{
  "hash": "000000006d3205179f1c3cf5da9da2b503aedf20c0cefb7c91c0293ab61113b8",
  "confirmations": 46336,
  "height": 6762,
  "version": 1,
  "versionHex": "00000001",
  "merkleroot": "f0c94b34430bf1205e3b64066bea95ae5b7fdfbb47352183de8539dfaaf96750",
  "time": 1236530689,
  "mediantime": 1236526238,
  "nonce": 2136618269,
  "bits": "1d00ffff",
  "difficulty": 1,
  "chainwork": "00000000000000000000000000000000000000000000000000001a6b1a6b1a6b",
  "nTx": 1,
  "previousblockhash": "00000000af3d21dcebdcd1cb3ed6cfe4654612868f2879b45456d4d3691b7d79",
  "nextblockhash": "00000000f791b7968f56df4d214cbd6089dbab8d475d5e85d118334060df0fca",
  "strippedsize": 216,
  "size": 216,
  "weight": 864,
  "tx": [
    {
      "txid": "f0c94b34430bf1205e3b64066bea95ae5b7fdfbb47352183de8539dfaaf96750",
      "hash": "f0c94b34430bf1205e3b64066bea95ae5b7fdfbb47352183de8539dfaaf96750",
      "version": 1,
      "size": 135,
      "vsize": 135,
      "weight": 540,
      "locktime": 0,
      "vin": [
        {
          "coinbase": "04ffff001d025008",
          "sequence": 4294967295
        }
      ],
      "vout": [
        {
          "value": 50.0,
          "n": 0,
          "scriptPubKey": {
            "asm": "04eed7af07a1aa1268965388d4dc12d63a7462ab85b855a1a4d7a8b21f8aab1817307948169f51cd864d9d3f0c77bed11c42d67298fd3bc5666af094483214d5dc OP_CHECKSIG",
            "desc": "pk(04eed7af07a1aa1268965388d4dc12d63a7462ab85b855a1a4d7a8b21f8aab1817307948169f51cd864d9d3f0c77bed11c42d67298fd3bc5666af094483214d5dc)#8skjvpx8",
            "hex": "4104eed7af07a1aa1268965388d4dc12d63a7462ab85b855a1a4d7a8b21f8aab1817307948169f51cd864d9d3f0c77bed11c42d67298fd3bc5666af094483214d5dcac",
            "type": "pubkey"
          }
        }
      ],
      "hex": "01000000010000000000000000000000000000000000000000000000000000000000000000ffffffff0804ffff001d025008ffffffff0100f2052a01000000434104eed7af07a1aa1268965388d4dc12d63a7462ab85b855a1a4d7a8b21f8aab1817307948169f51cd864d9d3f0c77bed11c42d67298fd3bc5666af094483214d5dcac00000000"
    }
  ]
}