{
  "hash": "00000000862e368008109249209ab82652b294d45f69f98b670fd78ac6eaabbd",
  "confirmations": 47119,
  "height": 5979,
  "version": 1,
  "versionHex": "00000001",
  "merkleroot": "4e1ba07ceb616b83f6189e2148feb23155f435c3737fa23aaeef78fb20573451",
  "time": 1235910696,
  "mediantime": 1235907276,
  "nonce": 1555303684,
  "bits": "1d00ffff",
  "difficulty": 1,
  "chainwork": "0000000000000000000000000000000000000000000000000000175c175c175c",
  "nTx": 1,
  "previousblockhash": "0000000023a6db2eb5ebd4045692676a474871628fb1df3e54eb5871dfb79ef4",
  "nextblockhash": "000000005795a59fb1b1ec304af65a747a73bcd66c6200286392e8c47375a924",
  "strippedsize": 216,
  "size": 216,
  "weight": 864,
  "tx": [
    {
      "txid": "4e1ba07ceb616b83f6189e2148feb23155f435c3737fa23aaeef78fb20573451",
      "hash": "4e1ba07ceb616b83f6189e2148feb23155f435c3737fa23aaeef78fb20573451",
      "version": 1,
      "size": 135,
      "vsize": 135,
      "weight": 540,
      "locktime": 0,
      "vin": [
        {
          "coinbase": "04ffff001d028504",
          "sequence": 4294967295
        }
      ],
      "vout": [
        {
          "value": 50.0,
          "n": 0,
          "scriptPubKey": {
            "asm": "045922af8b1e62e2f4db384fbcd87b22721254f9e3f8b5cbf1a4f20981d531af16e1ece564117172f071253fec7e6332d3cf41fc7adea3ae104fedddea9833e819 OP_CHECKSIG",
            "desc": "pk(045922af8b1e62e2f4db384fbcd87b22721254f9e3f8b5cbf1a4f20981d531af16e1ece564117172f071253fec7e6332d3cf41fc7adea3ae104fedddea9833e819)#p5dqtp79",
            "hex": "41045922af8b1e62e2f4db384fbcd87b22721254f9e3f8b5cbf1a4f20981d531af16e1ece564117172f071253fec7e6332d3cf41fc7adea3ae104fedddea9833e819ac",
            "type": "pubkey"
          }
        }
      ],
      "hex": "01000000010000000000000000000000000000000000000000000000000000000000000000ffffffff0804ffff001d028504ffffffff0100f2052a010000004341045922af8b1e62e2f4db384fbcd87b22721254f9e3f8b5cbf1a4f20981d531af16e1ece564117172f071253fec7e6332d3cf41fc7adea3ae104fedddea9833e819ac00000000"
    }
  ]
}