{
  "hash": "00000000b99441bfc61169458d0ba6a34e68285a03e16bd9ba8489f7dc7b06e7",
  "confirmations": 48144,
  "height": 4954,
  "version": 1,
  "versionHex": "00000001",
  "merkleroot": "35372eae3ad6720e264ee95b96ea1971c041b9593c4bcff767032d38a954647e",
  "time": 1235107341,
  "mediantime": 1235104283,
  "nonce": 3398180147,
  "bits": "1d00ffff",
  "difficulty": 1,
  "chainwork": "0000000000000000000000000000000000000000000000000000135b135b135b",
  "nTx": 1,
  "previousblockhash": "000000007332c79e650f38f073bff41f25d01c9bde50f750ee284dd88fff06c3",
  "nextblockhash": "0000000058a26c8722e6444f40e5441952b52d09c03efe759622b941e8d21e92",
  "strippedsize": 216,
  "size": 216,
  "weight": 864,
  "tx": [
    {
      "txid": "35372eae3ad6720e264ee95b96ea1971c041b9593c4bcff767032d38a954647e",
      "hash": "35372eae3ad6720e264ee95b96ea1971c041b9593c4bcff767032d38a954647e",
      "version": 1,
      "size": 135,
      "vsize": 135,
      "weight": 540,
      "locktime": 0,
      "vin": [
        {
          "coinbase": "04ffff001d027506",
          "sequence": 4294967295
        }
      ],
      "vout": [
        {
          "value": 50.0,
          "n": 0,
          "scriptPubKey": {
            "asm": "04abdb37f398ef17252684a19ae79c49da33e5304d2b099644e451516eb040a7897d240f3e1bb8bb6a2581707bf77ddbacce7414d3a699229efdcc232812c38996 OP_CHECKSIG",
            "desc": "pk(04abdb37f398ef17252684a19ae79c49da33e5304d2b099644e451516eb040a7897d240f3e1bb8bb6a2581707bf77ddbacce7414d3a699229efdcc232812c38996)#fcsguerw",
            "hex": "4104abdb37f398ef17252684a19ae79c49da33e5304d2b099644e451516eb040a7897d240f3e1bb8bb6a2581707bf77ddbacce7414d3a699229efdcc232812c38996ac",
            "type": "pubkey"
          }
        }
      ],
      "hex": "01000000010000000000000000000000000000000000000000000000000000000000000000ffffffff0804ffff001d027506ffffffff0100f2052a01000000434104abdb37f398ef17252684a19ae79c49da33e5304d2b099644e451516eb040a7897d240f3e1bb8bb6a2581707bf77ddbacce7414d3a699229efdcc232812c38996ac00000000"
    }
  ]
}