{
  "hash": "0000000098fed875813dfbd674308c11f43078682113aebdcf807c3db85a9274",
  "confirmations": 46691,
  "height": 6407,
  "version": 1,
  "versionHex": "00000001",
  "merkleroot": "b4f016c3c082f25db47f3a682ae4367640c79c6a921a482cd74f3935728c11a2",
  "time": 1236260495,
  "mediantime": 1236256783,
  "nonce": 2269494563,
  "bits": "1d00ffff",
  "difficulty": 1,
  "chainwork": "0000000000000000000000000000000000000000000000000000190819081908",
  "nTx": 1,
  "previousblockhash": "0000000011d174fb8c9431a4756f9d793d73bd683a11296ea026d7cf15708246",
  "nextblockhash": "000000000feda47065401b6268fc01c698705a417a70a1683d15c6706bc96fed",
  "strippedsize": 216,
  "size": 216,
  "weight": 864,
  "tx": [
    {
      "txid": "b4f016c3c082f25db47f3a682ae4367640c79c6a921a482cd74f3935728c11a2",
      "hash": "b4f016c3c082f25db47f3a682ae4367640c79c6a921a482cd74f3935728c11a2",
      "version": 1,
      "size": 135,
      "vsize": 135,
      "weight": 540,
      "locktime": 0,
      "vin": [
        {
          "coinbase": "04ffff001d02f901",
          "sequence": 4294967295
        }
      ],
      "vout": [
        {
          "value": 50.0,
          "n": 0,
          "scriptPubKey": {
            "asm": "04def9c50f2d34e4f6584383b1ff79672c86e9a83ecc1c230c70145633d40990df7126423df561a272076d7e78ffaaa16c8e038b7308b15cf5010b653243b696fb OP_CHECKSIG",
            "desc": "pk(04def9c50f2d34e4f6584383b1ff79672c86e9a83ecc1c230c70145633d40990df7126423df561a272076d7e78ffaaa16c8e038b7308b15cf5010b653243b696fb)#eesvf60a",
            "hex": "4104def9c50f2d34e4f6584383b1ff79672c86e9a83ecc1c230c70145633d40990df7126423df561a272076d7e78ffaaa16c8e038b7308b15cf5010b653243b696fbac",
            "type": "pubkey"
          }
        }
      ],
      "hex": "01000000010000000000000000000000000000000000000000000000000000000000000000ffffffff0804ffff001d02f901ffffffff0100f2052a01000000434104def9c50f2d34e4f6584383b1ff79672c86e9a83ecc1c230c70145633d40990df7126423df561a272076d7e78ffaaa16c8e038b7308b15cf5010b653243b696fbac00000000"
    }
  ]
}