{
  "hash": "00000000aac6a74f87d6f947ad42540a8696154a968d11b6f87c024991ad51ca",
  "confirmations": 48159,
  "height": 4939,
  "version": 1,
  "versionHex": "00000001",
  "merkleroot": "358b92a18177441909f2285e9002d9ad8c8b8f8caada1e1317facf9c54cca99a",
  "time": 1235096665,
  "mediantime": 1235093638,
  "nonce": 3648624388,
  "bits": "1d00ffff",
  "difficulty": 1,
  "chainwork": "0000000000000000000000000000000000000000000000000000134c134c134c",
  "nTx": 1,
  "previousblockhash": "0000000034c9ed54db29752d200cbcec1ac0ea811f810a959238a952486ad76c",
  "nextblockhash": "00000000af36b9118036baa7b9c82bc7d1a3017642a08f4255dd71c45c03849b",
  "strippedsize": 216,
  "size": 216,
  "weight": 864,
  "tx": [
    {
      "txid": "358b92a18177441909f2285e9002d9ad8c8b8f8caada1e1317facf9c54cca99a",
      "hash": "358b92a18177441909f2285e9002d9ad8c8b8f8caada1e1317facf9c54cca99a",
      "version": 1,
      "size": 135,
      "vsize": 135,
      "weight": 540,
      "locktime": 0,
      "vin": [
        {
          "coinbase": "04ffff001d023c06",
          "sequence": 4294967295
        }
      ],
      "vout": [
        {
          "value": 50.0,
          "n": 0,
          "scriptPubKey": {
            "asm": "040f66bf7361a3179d569440ba91f5d2fd7dee3f0f6f5cae7c41dd0a669d55ea8ebeabcc4aad02441a5fe3d2ff0413feac45201386bd2d005241614891c232bba0 OP_CHECKSIG",
            "desc": "pk(040f66bf7361a3179d569440ba91f5d2fd7dee3f0f6f5cae7c41dd0a669d55ea8ebeabcc4aad02441a5fe3d2ff0413feac45201386bd2d005241614891c232bba0)#wf2vcjsy",
            "hex": "41040f66bf7361a3179d569440ba91f5d2fd7dee3f0f6f5cae7c41dd0a669d55ea8ebeabcc4aad02441a5fe3d2ff0413feac45201386bd2d005241614891c232bba0ac",
            "type": "pubkey"
          }
        }
      ],
      "hex": "01000000010000000000000000000000000000000000000000000000000000000000000000ffffffff0804ffff001d023c06ffffffff0100f2052a010000004341040f66bf7361a3179d569440ba91f5d2fd7dee3f0f6f5cae7c41dd0a669d55ea8ebeabcc4aad02441a5fe3d2ff0413feac45201386bd2d005241614891c232bba0ac00000000"
    }
  ]
}