{
  "hash": "0000000062b69e4a2c3312a5782d7798b0711e9ebac065cd5d19f946439f8609",
  "confirmations": 52037,
  "height": 300,
  "version": 1,
  "versionHex": "00000001",
  "merkleroot": "bc15f9dcbe637c187bb94247057b14637316613630126fc396c22e08b89006ea",
  "time": 1231832435,
  "mediantime": 1231829183,
  "nonce": 951842076,
  "bits": "1d00ffff",
  "difficulty": 1,
  "chainwork": "0000000000000000000000000000000000000000000000000000012d012d012d",
  "nTx": 1,
  "previousblockhash": "00000000b9b003c04b2fe21b4f7a2fa809eb643852573c3a1748653e2019f01c",
  "nextblockhash": "00000000a23332a5740d8676baabcbffe490fd8849b6d30f7399b83aedd733f6",
  "strippedsize": 215,
  "size": 215,
  "weight": 860,
  "tx": [
    {
      "txid": "bc15f9dcbe637c187bb94247057b14637316613630126fc396c22e08b89006ea",
      "hash": "bc15f9dcbe637c187bb94247057b14637316613630126fc396c22e08b89006ea",
      "version": 1,
      "size": 134,
      "vsize": 134,
      "weight": 536,
      "locktime": 0,
      "vin": [
        {
          "coinbase": "04ffff001d016a",
          "sequence": 4294967295
        }
      ],
      "vout": [
        {
          "value": 50.0,
          "n": 0,
          "scriptPubKey": {
            "asm": "043d44d78421a180a22042e60da571124100de0fa09534279ae8599abf8e46207a9d64330b27c3a3e9736ab6f3c88e6c18c2386966dc3845c7b22178557e86baf7 OP_CHECKSIG",
            "desc": "pk(043d44d78421a180a22042e60da571124100de0fa09534279ae8599abf8e46207a9d64330b27c3a3e9736ab6f3c88e6c18c2386966dc3845c7b22178557e86baf7)#zw9q8vfs",
            "hex": "41043d44d78421a180a22042e60da571124100de0fa09534279ae8599abf8e46207a9d64330b27c3a3e9736ab6f3c88e6c18c2386966dc3845c7b22178557e86baf7ac",
            "type": "pubkey"
          }
        }
      ],
      "hex": "01000000010000000000000000000000000000000000000000000000000000000000000000ffffffff0704ffff001d016affffffff0100f2052a010000004341043d44d78421a180a22042e60da571124100de0fa09534279ae8599abf8e46207a9d64330b27c3a3e9736ab6f3c88e6c18c2386966dc3845c7b22178557e86baf7ac00000000"
    }
  ]
}