{
  "hash": "000000003e9fd14891982889923642c92442f72a612c4f28cebf3fe91c27ca3e",
  "confirmations": 46313,
  "height": 6785,
  "version": 1,
  "versionHex": "00000001",
  "merkleroot": "1aa6a276326b070b21de583f578dddd7ec8d74650e98c625274e469e431948d4",
  "time": 1236548382,
  "mediantime": 1236544197,
  "nonce": 3715977273,
  "bits": "1d00ffff",
  "difficulty": 1,
  "chainwork": "00000000000000000000000000000000000000000000000000001a821a821a82",
  "nTx": 1,
  "previousblockhash": "0000000026e33290086013f66115a4fa85ea289f4b2deefcd0b9e40d758a5eb5",
  "nextblockhash": "00000000df61052e8f43f94592ab2488a5221306f5c7db778694ebba62e1d23a",
  "strippedsize": 216,
  "size": 216,
  "weight": 864,
  "tx": [
    {
      "txid": "1aa6a276326b070b21de583f578dddd7ec8d74650e98c625274e469e431948d4",
      "hash": "1aa6a276326b070b21de583f578dddd7ec8d74650e98c625274e469e431948d4",
      "version": 1,
      "size": 135,
      "vsize": 135,
      "weight": 540,
      "locktime": 0,
      "vin": [
        {
          "coinbase": "04ffff001d02a308",
          "sequence": 4294967295
        }
      ],
      "vout": [
        {
          "value": 50.0,
          "n": 0,
          "scriptPubKey": {
            "asm": "0463e66e7413d9632cfd50076e53a89ebe4f18ee608c426daa673ccccaa611389772591710b77bdfc8e30daf3fb013831da3e6a4cfa4a9eb263fadd2e2e30f8c2f OP_CHECKSIG",
            "desc": "pk(0463e66e7413d9632cfd50076e53a89ebe4f18ee608c426daa673ccccaa611389772591710b77bdfc8e30daf3fb013831da3e6a4cfa4a9eb263fadd2e2e30f8c2f)#cfkxa8u6",
            "hex": "410463e66e7413d9632cfd50076e53a89ebe4f18ee608c426daa673ccccaa611389772591710b77bdfc8e30daf3fb013831da3e6a4cfa4a9eb263fadd2e2e30f8c2fac",
            "type": "pubkey"
          }
        }
      ],
      "hex": "01000000010000000000000000000000000000000000000000000000000000000000000000ffffffff0804ffff001d02a308ffffffff0100f2052a0100000043410463e66e7413d9632cfd50076e53a89ebe4f18ee608c426daa673ccccaa611389772591710b77bdfc8e30daf3fb013831da3e6a4cfa4a9eb263fadd2e2e30f8c2fac00000000"
    }
  ]
}