{
  "hash": "0000000038ff8c0d624e4170f4d465544de9acc743bd8f6bcd286d85b4d6f342",
  "confirmations": 47007,
  "height": 6091,
  "version": 1,
  "versionHex": "00000001",
  "merkleroot": "2922da30115ebfceb929a29665acd3ffc8b6979b41b37b3a062c587fdcb29ad6",
  "time": 1236000467,
  "mediantime": 1235997629,
  "nonce": 1372809005,
  "bits": "1d00ffff",
  "difficulty": 1,
  "chainwork": "000000000000000000000000000000000000000000000000000017cc17cc17cc",
  "nTx": 1,
  "previousblockhash": "00000000553d224a74bdc6718ab1659b68df8c761f86c4a4a16006b0b4b59bd0",
  "nextblockhash": "000000006c5cfcc268b09c6d379e82dfeb8eb6499ff120b669a9a658fca197bf",
  "strippedsize": 216,
  "size": 216,
  "weight": 864,
  "tx": [
    {
      "txid": "2922da30115ebfceb929a29665acd3ffc8b6979b41b37b3a062c587fdcb29ad6",
      "hash": "2922da30115ebfceb929a29665acd3ffc8b6979b41b37b3a062c587fdcb29ad6",
      "version": 1,
      "size": 135,
      "vsize": 135,
      "weight": 540,
      "locktime": 0,
      "vin": [
        {
          "coinbase": "04ffff001d02a006",
          "sequence": 4294967295
        }
      ],
      "vout": [
        {
          "value": 50.0,
          "n": 0,
          "scriptPubKey": {
            "asm": "04cf4f0cc4cda72b48e599a8866961cc0371cfd8eb141dd7351bb12d9a27dbfb3fe055d279442c880008fe28268b91785d9a44a34c3ba45115a547b929e485e0b7 OP_CHECKSIG",
            "desc": "pk(04cf4f0cc4cda72b48e599a8866961cc0371cfd8eb141dd7351bb12d9a27dbfb3fe055d279442c880008fe28268b91785d9a44a34c3ba45115a547b929e485e0b7)#v32qwa6x",
            "hex": "4104cf4f0cc4cda72b48e599a8866961cc0371cfd8eb141dd7351bb12d9a27dbfb3fe055d279442c880008fe28268b91785d9a44a34c3ba45115a547b929e485e0b7ac",
            "type": "pubkey"
          }
        }
      ],
      "hex": "01000000010000000000000000000000000000000000000000000000000000000000000000ffffffff0804ffff001d02a006ffffffff0100f2052a01000000434104cf4f0cc4cda72b48e599a8866961cc0371cfd8eb141dd7351bb12d9a27dbfb3fe055d279442c880008fe28268b91785d9a44a34c3ba45115a547b929e485e0b7ac00000000"
    }
  ]
}