{
  "hash": "000000004054a6f0c361133d75d87810c11d6386b53454696037689824060cee",
  "confirmations": 49953,
  "height": 3145,
  "version": 1,
  "versionHex": "00000001",
  "merkleroot": "f01051d5bd905e3353f3b9c19f5d1a4073151034cd4edd753f0cfdd5898c2971",
  "time": 1233864577,
  "mediantime": 1233861837,
  "nonce": 103045409,
  "bits": "1d00ffff",
  "difficulty": 1,
  "chainwork": "00000000000000000000000000000000000000000000000000000c4a0c4a0c4a",
  "nTx": 1,
  "previousblockhash": "000000000a7500e6d85b71ebdc936820644b2dbb1152c026fc5969f3d6942059",
  "nextblockhash": "000000008c49fe2a8cb83021565d77846d9e5776c0a492c1189b580fab7f3b2f",
  "strippedsize": 216,
  "size": 216,
  "weight": 864,
  "tx": [
    {
      "txid": "f01051d5bd905e3353f3b9c19f5d1a4073151034cd4edd753f0cfdd5898c2971",
      "hash": "f01051d5bd905e3353f3b9c19f5d1a4073151034cd4edd753f0cfdd5898c2971",
      "version": 1,
      "size": 135,
      "vsize": 135,
      "weight": 540,
      "locktime": 0,
      "vin": [
        {
          "coinbase": "04ffff001d02d701",
          "sequence": 4294967295
        }
      ],
      "vout": [
        {
          "value": 50.0,
          "n": 0,
          "scriptPubKey": {
            "asm": "04a96e6128146fd196abebdaed6c8271a92a24c6095925a426d788efd71b3250267616ff3ec7840948920aa627158a93bdbbe1634539b91cd8618bbb042f63c0ea OP_CHECKSIG",
            "desc": "pk(04a96e6128146fd196abebdaed6c8271a92a24c6095925a426d788efd71b3250267616ff3ec7840948920aa627158a93bdbbe1634539b91cd8618bbb042f63c0ea)#ajm5qtv5",
            "hex": "4104a96e6128146fd196abebdaed6c8271a92a24c6095925a426d788efd71b3250267616ff3ec7840948920aa627158a93bdbbe1634539b91cd8618bbb042f63c0eaac",
            "type": "pubkey"
          }
        }
      ],
      "hex": "01000000010000000000000000000000000000000000000000000000000000000000000000ffffffff0804ffff001d02d701ffffffff0100f2052a01000000434104a96e6128146fd196abebdaed6c8271a92a24c6095925a426d788efd71b3250267616ff3ec7840948920aa627158a93bdbbe1634539b91cd8618bbb042f63c0eaac00000000"
    }
  ]
}