{
  "hash": "00000000daf4096c5bc5b11e5f6d0e1f835525d658333c791f11d573c9295f79",
  "confirmations": 51744,
  "height": 1354,
  "version": 1,
  "versionHex": "00000001",
  "merkleroot": "e298e07e52d74a8bf9615b995c9e3b0ad2a10709edf1f889646adf368d1b138a",
  "time": 1232645196,
  "mediantime": 1232641365,
  "nonce": 4227668520,
  "bits": "1d00ffff",
  "difficulty": 1,
  "chainwork": "0000000000000000000000000000000000000000000000000000054b054b054b",
  "nTx": 1,
  "previousblockhash": "00000000ba74726f506303ea0c13a12f0638fc09f8dc1009c2ebc5a20b2f91ee",
  "nextblockhash": "0000000019668292e90a9b0e7246f4f829e1f99e8818482203203d5e25b2ecab",
  "strippedsize": 216,
  "size": 216,
  "weight": 864,
  "tx": [
    {
      "txid": "e298e07e52d74a8bf9615b995c9e3b0ad2a10709edf1f889646adf368d1b138a",
      "hash": "e298e07e52d74a8bf9615b995c9e3b0ad2a10709edf1f889646adf368d1b138a",
      "version": 1,
      "size": 135,
      "vsize": 135,
      "weight": 540,
      "locktime": 0,
      "vin": [
        {
          "coinbase": "04ffff001d024001",
          "sequence": 4294967295
        }
      ],
      "vout": [
        {
          "value": 50.0,
          "n": 0,
          "scriptPubKey": {
            "asm": "04fbe275af6620bd203c988d06b39993c16efa1edccacad6ae2c679524739ee92f12944157b91a14716a41faa1de7c84bbaf561dfee497c586387304dd872d20cc OP_CHECKSIG",
            "desc": "pk(04fbe275af6620bd203c988d06b39993c16efa1edccacad6ae2c679524739ee92f12944157b91a14716a41faa1de7c84bbaf561dfee497c586387304dd872d20cc)#2ahexzlg",
            "hex": "4104fbe275af6620bd203c988d06b39993c16efa1edccacad6ae2c679524739ee92f12944157b91a14716a41faa1de7c84bbaf561dfee497c586387304dd872d20ccac",
            "type": "pubkey"
          }
        }
      ],
      "hex": "01000000010000000000000000000000000000000000000000000000000000000000000000ffffffff0804ffff001d024001ffffffff0100f2052a01000000434104fbe275af6620bd203c988d06b39993c16efa1edccacad6ae2c679524739ee92f12944157b91a14716a41faa1de7c84bbaf561dfee497c586387304dd872d20ccac00000000"
    }
  ]
}