{
  "hash": "00000000015402dc2bcc4afdc3be3c58e873a7ecea22c12f72d6889eb9b9a0b1",
  "confirmations": 52570,
  "height": 525,
  "version": 1,
  "versionHex": "00000001",
  "merkleroot": "1dbbaa8018f395543ffa7d6efbed0e5fa0a5b139f7d1bbabedc10c321b9ab64a",
  "time": 1231984996,
  "mediantime": 1231982359,
  "nonce": 2217301295,
  "bits": "1d00ffff",
  "difficulty": 1,
  "chainwork": "0000000000000000000000000000000000000000000000000000020e020e020e",
  "nTx": 1,
  "previousblockhash": "00000000309014d78fc7440362c8ae0599e79557fe7bd0c94172dbc8c050ba5e",
  "nextblockhash": "00000000be9472e6e4b47acfb67345bd7aba371b41712904e30a1e6e728e910d",
  "strippedsize": 216,
  "size": 216,
  "weight": 864,
  "tx": [
    {
      "txid": "1dbbaa8018f395543ffa7d6efbed0e5fa0a5b139f7d1bbabedc10c321b9ab64a",
      "hash": "1dbbaa8018f395543ffa7d6efbed0e5fa0a5b139f7d1bbabedc10c321b9ab64a",
      "version": 1,
      "size": 135,
      "vsize": 135,
      "weight": 540,
      "locktime": 0,
      "vin": [
        {
          "coinbase": "04ffff001d02fc04",
          "sequence": 4294967295
        }
      ],
      "vout": [
        {
          "value": 50.0,
          "n": 0,
          "scriptPubKey": {
            "asm": "041e1ee881a1b91917e4a5cfd0931e64ab5c4990e4256c9b2c873aa415a1abe3ca339a5ef5aefdc1267c3b7d3493ffcfaebe7117f5b71b52988e3618c8feae9801 OP_CHECKSIG",
            "desc": "pk(041e1ee881a1b91917e4a5cfd0931e64ab5c4990e4256c9b2c873aa415a1abe3ca339a5ef5aefdc1267c3b7d3493ffcfaebe7117f5b71b52988e3618c8feae9801)#xkxums3v",
            "hex": "41041e1ee881a1b91917e4a5cfd0931e64ab5c4990e4256c9b2c873aa415a1abe3ca339a5ef5aefdc1267c3b7d3493ffcfaebe7117f5b71b52988e3618c8feae9801ac",
            "type": "pubkey"
          }
        }
      ],
      "hex": "01000000010000000000000000000000000000000000000000000000000000000000000000ffffffff0804ffff001d02fc04ffffffff0100f2052a010000004341041e1ee881a1b91917e4a5cfd0931e64ab5c4990e4256c9b2c873aa415a1abe3ca339a5ef5aefdc1267c3b7d3493ffcfaebe7117f5b71b52988e3618c8feae9801ac00000000"
    }
  ]
}