{
  "hash": "000000009e2b227a3bc1f65cfbff4ee1556501a31db849e5a5be46be3acc69eb",
  "confirmations": 47123,
  "height": 5975,
  "version": 1,
  "versionHex": "00000001",
  "merkleroot": "6f7efbd0b7b9490d4217f121e29ad248a2048b710ca3d2573ebb07f47e021397",
  "time": 1235907726,
  "mediantime": 1235904684,
  "nonce": 3487154727,
  "bits": "1d00ffff",
  "difficulty": 1,
  "chainwork": "0000000000000000000000000000000000000000000000000000175817581758",
  "nTx": 1,
  "previousblockhash": "000000006b67f1eefedae06fbf6c0c9dba1a74d187110fd063fbc1d76bf670a4",
  "nextblockhash": "000000004426ab753a1b3200a81baea251f6914e2427668906dee1b8df015788",
  "strippedsize": 216,
  "size": 216,
  "weight": 864,
  "tx": [
    {
      "txid": "6f7efbd0b7b9490d4217f121e29ad248a2048b710ca3d2573ebb07f47e021397",
      "hash": "6f7efbd0b7b9490d4217f121e29ad248a2048b710ca3d2573ebb07f47e021397",
      "version": 1,
      "size": 135,
      "vsize": 135,
      "weight": 540,
      "locktime": 0,
      "vin": [
        {
          "coinbase": "04ffff001d026e04",
          "sequence": 4294967295
        }
      ],
      "vout": [
        {
          "value": 50.0,
          "n": 0,
          "scriptPubKey": {
            "asm": "047eb4b1ceeb75fea9bc356508f759dbe75cbe87c4fe8089b19a8c124eba8ec9b531b5dd3c8ae5c114f875975b7e460f610eb60905ca946c68f52daa4f87032367 OP_CHECKSIG",
            "desc": "pk(047eb4b1ceeb75fea9bc356508f759dbe75cbe87c4fe8089b19a8c124eba8ec9b531b5dd3c8ae5c114f875975b7e460f610eb60905ca946c68f52daa4f87032367)#23wufl77",
            "hex": "41047eb4b1ceeb75fea9bc356508f759dbe75cbe87c4fe8089b19a8c124eba8ec9b531b5dd3c8ae5c114f875975b7e460f610eb60905ca946c68f52daa4f87032367ac",
            "type": "pubkey"
          }
        }
      ],
      "hex": "01000000010000000000000000000000000000000000000000000000000000000000000000ffffffff0804ffff001d026e04ffffffff0100f2052a010000004341047eb4b1ceeb75fea9bc356508f759dbe75cbe87c4fe8089b19a8c124eba8ec9b531b5dd3c8ae5c114f875975b7e460f610eb60905ca946c68f52daa4f87032367ac00000000"
    }
  ]
}