{
  "hash": "00000000d1592d33adfc27f8c3bfba9b4d1587925ed1ec78e78670c00e6ae114",
  "confirmations": 43442,
  "height": 9656,
  "version": 1,
  "versionHex": "00000001",
  "merkleroot": "bfaa36b077cbef866131b65383cbb3e81134f870035c57b3f8bc27ee8bcae6cd",
  "time": 1238745577,
  "mediantime": 1238741743,
  "nonce": 48991934,
  "bits": "1d00ffff",
  "difficulty": 1,
  "chainwork": "000000000000000000000000000000000000000000000000000025b925b925b9",
  "nTx": 1,
  "previousblockhash": "00000000f757255fccb7ab2cf59e8c8c2446e08ca5890dc3b95a0073089643ce",
  "nextblockhash": "00000000fea351a9fe1a3dcd4e8e7899856ebc7f66b60998ff780f67fdadb9ab",
  "strippedsize": 216,
  "size": 216,
  "weight": 864,
  "tx": [
    {
      "txid": "bfaa36b077cbef866131b65383cbb3e81134f870035c57b3f8bc27ee8bcae6cd",
      "hash": "bfaa36b077cbef866131b65383cbb3e81134f870035c57b3f8bc27ee8bcae6cd",
      "version": 1,
      "size": 135,
      "vsize": 135,
      "weight": 540,
      "locktime": 0,
      "vin": [
        {
          "coinbase": "04ffff001d027010",
          "sequence": 4294967295
        }
      ],
      "vout": [
        {
          "value": 50.0,
          "n": 0,
          "scriptPubKey": {
            "asm": "045c863389b61aa09a93feb324b371202060e97cf65fc2e20ffb555400f166508e7a9e824e1170011d0f4447361a369d0da9866326596f8fb12fd8767e49db4df9 OP_CHECKSIG",
            "desc": "pk(045c863389b61aa09a93feb324b371202060e97cf65fc2e20ffb555400f166508e7a9e824e1170011d0f4447361a369d0da9866326596f8fb12fd8767e49db4df9)#yjewmej3",
            "hex": "41045c863389b61aa09a93feb324b371202060e97cf65fc2e20ffb555400f166508e7a9e824e1170011d0f4447361a369d0da9866326596f8fb12fd8767e49db4df9ac",
            "type": "pubkey"
          }
        }
      ],
      "hex": "01000000010000000000000000000000000000000000000000000000000000000000000000ffffffff0804ffff001d027010ffffffff0100f2052a010000004341045c863389b61aa09a93feb324b371202060e97cf65fc2e20ffb555400f166508e7a9e824e1170011d0f4447361a369d0da9866326596f8fb12fd8767e49db4df9ac00000000"
    }
  ]
}