{
  "hash": "0000000074b3e5c7c97e10be14edc49589e469eef0c3109e5f5a6041383ba409",
  "confirmations": 45320,
  "height": 7778,
  "version": 1,
  "versionHex": "00000001",
  "merkleroot": "857a86a21c480b9ea9a551080381626410775deefd1e39ae0f07e619a82c0ed2",
  "time": 1237297051,
  "mediantime": 1237294513,
  "nonce": 585191462,
  "bits": "1d00ffff",
  "difficulty": 1,
  "chainwork": "00000000000000000000000000000000000000000000000000001e631e631e63",
  "nTx": 1,
  "previousblockhash": "000000005785d33c4ebe225528532e2fe7d1f545f01b486f16261afa3359ba8f",
  "nextblockhash": "000000007b85b403757304d6172bfd9de5024cf8705ca0c39dc78f50b228f2cb",
  "strippedsize": 216,
  "size": 216,
  "weight": 864,
  "tx": [
    {
      "txid": "857a86a21c480b9ea9a551080381626410775deefd1e39ae0f07e619a82c0ed2",
      "hash": "857a86a21c480b9ea9a551080381626410775deefd1e39ae0f07e619a82c0ed2",
      "version": 1,
      "size": 135,
      "vsize": 135,
      "weight": 540,
      "locktime": 0,
      "vin": [
        {
          "coinbase": "04ffff001d025f05",
          "sequence": 4294967295
        }
      ],
      "vout": [
        {
          "value": 50.0,
          "n": 0,
          "scriptPubKey": {
            "asm": "04b9d8ef27c1966303e486ddc46aa902a0f35e226af2f7c7798864c9f911e45c953583334e02741d46905dcd09d4ef009932a06d713c9bcea44a683028096b3ed2 OP_CHECKSIG",
            "desc": "pk(04b9d8ef27c1966303e486ddc46aa902a0f35e226af2f7c7798864c9f911e45c953583334e02741d46905dcd09d4ef009932a06d713c9bcea44a683028096b3ed2)#69nk2rhv",
            "hex": "4104b9d8ef27c1966303e486ddc46aa902a0f35e226af2f7c7798864c9f911e45c953583334e02741d46905dcd09d4ef009932a06d713c9bcea44a683028096b3ed2ac",
            "type": "pubkey"
          }
        }
      ],
      "hex": "01000000010000000000000000000000000000000000000000000000000000000000000000ffffffff0804ffff001d025f05ffffffff0100f2052a01000000434104b9d8ef27c1966303e486ddc46aa902a0f35e226af2f7c7798864c9f911e45c953583334e02741d46905dcd09d4ef009932a06d713c9bcea44a683028096b3ed2ac00000000"
    }
  ]
}