{
  "hash": "0000000044c429d722e2586f2ece255f6252fa9c8b8e2796d365fa5f8a21bf5c",
  "confirmations": 50205,
  "height": 2893,
  "version": 1,
  "versionHex": "00000001",
  "merkleroot": "1ed561caa0e4a5a4986c0d9bb7cf32ce159bfeeab2bdba93915767fa6687e75d",
  "time": 1233686996,
  "mediantime": 1233683611,
  "nonce": 96767554,
  "bits": "1d00ffff",
  "difficulty": 1,
  "chainwork": "00000000000000000000000000000000000000000000000000000b4e0b4e0b4e",
  "nTx": 1,
  "previousblockhash": "0000000084643dd55c0eb44772299bcae8487874840036a9b45b5807e24f6a3d",
  "nextblockhash": "00000000b619e0d2de2553e632d75814cba8b95af7132d173c23ca8a0dbda690",
  "strippedsize": 216,
  "size": 216,
  "weight": 864,
  "tx": [
    {
      "txid": "1ed561caa0e4a5a4986c0d9bb7cf32ce159bfeeab2bdba93915767fa6687e75d",
      "hash": "1ed561caa0e4a5a4986c0d9bb7cf32ce159bfeeab2bdba93915767fa6687e75d",
      "version": 1,
      "size": 135,
      "vsize": 135,
      "weight": 540,
      "locktime": 0,
      "vin": [
        {
          "coinbase": "04ffff001d029500",
          "sequence": 4294967295
        }
      ],
      "vout": [
        {
          "value": 50.0,
          "n": 0,
          "scriptPubKey": {
            "asm": "04d4c73aa92c2e777d2eb07b50420615806a279c02c45639c44a84636c9feaa00e147b755db53db833f3a9360ce997c21f9d4fdd1b119183f92a6c6d0205a6000a OP_CHECKSIG",
            "desc": "pk(04d4c73aa92c2e777d2eb07b50420615806a279c02c45639c44a84636c9feaa00e147b755db53db833f3a9360ce997c21f9d4fdd1b119183f92a6c6d0205a6000a)#dlv5587w",
            "hex": "4104d4c73aa92c2e777d2eb07b50420615806a279c02c45639c44a84636c9feaa00e147b755db53db833f3a9360ce997c21f9d4fdd1b119183f92a6c6d0205a6000aac",
            "type": "pubkey"
          }
        }
      ],
      "hex": "01000000010000000000000000000000000000000000000000000000000000000000000000ffffffff0804ffff001d029500ffffffff0100f2052a01000000434104d4c73aa92c2e777d2eb07b50420615806a279c02c45639c44a84636c9feaa00e147b755db53db833f3a9360ce997c21f9d4fdd1b119183f92a6c6d0205a6000aac00000000"
    }
  ]
}