{
  "hash": "000000005401086bc69a6bd6d9b58b0de1ec274d1789ca42b359dd9897aa8b59",
  "confirmations": 45653,
  "height": 7445,
  "version": 1,
  "versionHex": "00000001",
  "merkleroot": "99a193f77486e711d4a1eb60fed697533d6017c5c07459fbe06eb8e6780d7bfc",
  "time": 1237058026,
  "mediantime": 1237053142,
  "nonce": 659322922,
  "bits": "1d00ffff",
  "difficulty": 1,
  "chainwork": "00000000000000000000000000000000000000000000000000001d161d161d16",
  "nTx": 1,
  "previousblockhash": "000000006182f684cdbe2dd5bc7b5b7dcd059c2ee1ae2c7b39659f2d44355e03",
  "nextblockhash": "000000000f2b2d53f572fb68e3a085b6375370b7e9099379633d1de51f6fa810",
  "strippedsize": 215,
  "size": 215,
  "weight": 860,
  "tx": [
    {
      "txid": "99a193f77486e711d4a1eb60fed697533d6017c5c07459fbe06eb8e6780d7bfc",
      "hash": "99a193f77486e711d4a1eb60fed697533d6017c5c07459fbe06eb8e6780d7bfc",
      "version": 1,
      "size": 134,
      "vsize": 134,
      "weight": 536,
      "locktime": 0,
      "vin": [
        {
          "coinbase": "04ffff001d010e",
          "sequence": 4294967295
        }
      ],
      "vout": [
        {
          "value": 50.0,
          "n": 0,
          "scriptPubKey": {
            "asm": "044e70ea7f6b8362a2132d7179687fc464aed5aa37960e96a7d998da88b1e87b5c2164e9ba1b996c2b1eb580e5f22648fcdf62cdb490103d137756a99a4e596b70 OP_CHECKSIG",
            "desc": "pk(044e70ea7f6b8362a2132d7179687fc464aed5aa37960e96a7d998da88b1e87b5c2164e9ba1b996c2b1eb580e5f22648fcdf62cdb490103d137756a99a4e596b70)#wtwqtj9u",
            "hex": "41044e70ea7f6b8362a2132d7179687fc464aed5aa37960e96a7d998da88b1e87b5c2164e9ba1b996c2b1eb580e5f22648fcdf62cdb490103d137756a99a4e596b70ac",
            "type": "pubkey"
          }
        }
      ],
      "hex": "01000000010000000000000000000000000000000000000000000000000000000000000000ffffffff0704ffff001d010effffffff0100f2052a010000004341044e70ea7f6b8362a2132d7179687fc464aed5aa37960e96a7d998da88b1e87b5c2164e9ba1b996c2b1eb580e5f22648fcdf62cdb490103d137756a99a4e596b70ac00000000"
    }
  ]
}