{
  "hash": "000000001a1fbb7858bcb15973040942b8adf4cd182e41119d5fd7aa5f2cab64",
  "confirmations": 43292,
  "height": 9806,
  "version": 1,
  "versionHex": "00000001",
  "merkleroot": "691a63af10968f852c5d9c0321ac6ad6fb5f57c4be41d4d6f277868098658d06",
  "time": 1238860378,
  "mediantime": 1238857174,
  "nonce": 30042699,
  "bits": "1d00ffff",
  "difficulty": 1,
  "chainwork": "0000000000000000000000000000000000000000000000000000264f264f264f",
  "nTx": 1,
  "previousblockhash": "00000000a327da808a225fe6f2d55f96287e402269c40347000e9307d571df85",
  "nextblockhash": "000000006065e9803f2d73435e142a84a6864a737649bbda0b775d21ad256c4a",
  "strippedsize": 216,
  "size": 216,
  "weight": 864,
  "tx": [
    {
      "txid": "691a63af10968f852c5d9c0321ac6ad6fb5f57c4be41d4d6f277868098658d06",
      "hash": "691a63af10968f852c5d9c0321ac6ad6fb5f57c4be41d4d6f277868098658d06",
      "version": 1,
      "size": 135,
      "vsize": 135,
      "weight": 540,
      "locktime": 0,
      "vin": [
        {
          "coinbase": "04ffff001d021f01",
          "sequence": 4294967295
        }
      ],
      "vout": [
        {
          "value": 50.0,
          "n": 0,
          "scriptPubKey": {
            "asm": "0416713c045746d5157770086d650497b4df30b3f46b1e0a51e27b0cfd62037fc03d9cc88cf2a03c65d71ae3b1964be63a14100fcc213b6e665ee763c798fc5d74 OP_CHECKSIG",
            "desc": "pk(0416713c045746d5157770086d650497b4df30b3f46b1e0a51e27b0cfd62037fc03d9cc88cf2a03c65d71ae3b1964be63a14100fcc213b6e665ee763c798fc5d74)#dxnzwauc",
            "hex": "410416713c045746d5157770086d650497b4df30b3f46b1e0a51e27b0cfd62037fc03d9cc88cf2a03c65d71ae3b1964be63a14100fcc213b6e665ee763c798fc5d74ac",
            "type": "pubkey"
          }
        }
      ],
      "hex": "01000000010000000000000000000000000000000000000000000000000000000000000000ffffffff0804ffff001d021f01ffffffff0100f2052a0100000043410416713c045746d5157770086d650497b4df30b3f46b1e0a51e27b0cfd62037fc03d9cc88cf2a03c65d71ae3b1964be63a14100fcc213b6e665ee763c798fc5d74ac00000000"
    }
  ]
}