{
  "hash": "0000000032f2fbfb5849e57629bb28ff2e79d4e231fddb25b183a2b13ff2d123",
  "confirmations": 47598,
  "height": 5500,
  "version": 1,
  "versionHex": "00000001",
  "merkleroot": "9676bc05294db3a5eb1d882b81d239a4b7f32a2c1c435b90cb68a35f1d7ce4aa",
  "time": 1235522439,
  "mediantime": 1235517949,
  "nonce": 4173632551,
  "bits": "1d00ffff",
  "difficulty": 1,
  "chainwork": "0000000000000000000000000000000000000000000000000000157d157d157d",
  "nTx": 1,
  "previousblockhash": "00000000e109937eede65b29d2c908983b2a951bac8fc6f4d95d4d8d0a3afbb9",
  "nextblockhash": "000000000dd21696e382cfc77279cab9a6194280fc602d1ee7a6809fd549534e",
  "strippedsize": 216,
  "size": 216,
  "weight": 864,
  "tx": [
    {
      "txid": "9676bc05294db3a5eb1d882b81d239a4b7f32a2c1c435b90cb68a35f1d7ce4aa",
      "hash": "9676bc05294db3a5eb1d882b81d239a4b7f32a2c1c435b90cb68a35f1d7ce4aa",
      "version": 1,
      "size": 135,
      "vsize": 135,
      "weight": 540,
      "locktime": 0,
      "vin": [
        {
          "coinbase": "04ffff001d02a505",
          "sequence": 4294967295
        }
      ],
      "vout": [
        {
          "value": 50.0,
          "n": 0,
          "scriptPubKey": {
            "asm": "0469ba2d25f5fc4c9d2578e6b46d5bb9a799d8fb6afdb02f7d031f7c0ce5e189277b0e7ac083cdfb84d225fb9c3b9d6fee5868d1ac447c4f7e65796760177c058d OP_CHECKSIG",
            "desc": "pk(0469ba2d25f5fc4c9d2578e6b46d5bb9a799d8fb6afdb02f7d031f7c0ce5e189277b0e7ac083cdfb84d225fb9c3b9d6fee5868d1ac447c4f7e65796760177c058d)#4pks5xz8",
            "hex": "410469ba2d25f5fc4c9d2578e6b46d5bb9a799d8fb6afdb02f7d031f7c0ce5e189277b0e7ac083cdfb84d225fb9c3b9d6fee5868d1ac447c4f7e65796760177c058dac",
            "type": "pubkey"
          }
        }
      ],
      "hex": "01000000010000000000000000000000000000000000000000000000000000000000000000ffffffff0804ffff001d02a505ffffffff0100f2052a0100000043410469ba2d25f5fc4c9d2578e6b46d5bb9a799d8fb6afdb02f7d031f7c0ce5e189277b0e7ac083cdfb84d225fb9c3b9d6fee5868d1ac447c4f7e65796760177c058dac00000000"
    }
  ]
}