{
  "hash": "00000000899d793be03154a7711eb366727ce7391c8d54c69d40aecfc9e675f5",
  "confirmations": 45022,
  "height": 8076,
  "version": 1,
  "versionHex": "00000001",
  "merkleroot": "143a82b9436d61601e5d232d7e14f911ed882f8e662956dc432a3d32b0d7de25",
  "time": 1237514510,
  "mediantime": 1237513405,
  "nonce": 3609921540,
  "bits": "1d00ffff",
  "difficulty": 1,
  "chainwork": "00000000000000000000000000000000000000000000000000001f8d1f8d1f8d",
  "nTx": 1,
  "previousblockhash": "00000000c742bac88e7a92e1b140c581099d2e1d56c4f280f1f9b52a4ebdde99",
  "nextblockhash": "00000000c4b151af424176b62bbea5fceb2220916d04c29736c8219b8cc7c0c4",
  "strippedsize": 216,
  "size": 216,
  "weight": 864,
  "tx": [
    {
      "txid": "143a82b9436d61601e5d232d7e14f911ed882f8e662956dc432a3d32b0d7de25",
      "hash": "143a82b9436d61601e5d232d7e14f911ed882f8e662956dc432a3d32b0d7de25",
      "version": 1,
      "size": 135,
      "vsize": 135,
      "weight": 540,
      "locktime": 0,
      "vin": [
        {
          "coinbase": "04ffff001d02c400",
          "sequence": 4294967295
        }
      ],
      "vout": [
        {
          "value": 50.0,
          "n": 0,
          "scriptPubKey": {
            "asm": "047e0bd8b74dc6dde03db074c9ad88806beabce942249656184d8223e8e1af1d24517fced980157076aa65d7a67589b440e3c425641f1bc2057371e12e0bf74a79 OP_CHECKSIG",
            "desc": "pk(047e0bd8b74dc6dde03db074c9ad88806beabce942249656184d8223e8e1af1d24517fced980157076aa65d7a67589b440e3c425641f1bc2057371e12e0bf74a79)#pc29q032",
            "hex": "41047e0bd8b74dc6dde03db074c9ad88806beabce942249656184d8223e8e1af1d24517fced980157076aa65d7a67589b440e3c425641f1bc2057371e12e0bf74a79ac",
            "type": "pubkey"
          }
        }
      ],
      "hex": "01000000010000000000000000000000000000000000000000000000000000000000000000ffffffff0804ffff001d02c400ffffffff0100f2052a010000004341047e0bd8b74dc6dde03db074c9ad88806beabce942249656184d8223e8e1af1d24517fced980157076aa65d7a67589b440e3c425641f1bc2057371e12e0bf74a79ac00000000"
    }
  ]
}