{
  "hash": "000000008316bcaa2c49435c8b4f1367f240941eb58202c7fae7765be088fe76",
  "confirmations": 45555,
  "height": 7543,
  "version": 1,
  "versionHex": "00000001",
  "merkleroot": "007bd11662d1b9125e58075b2d0574ff6a459c78d33d741f924609bd1c16c0be",
  "time": 1237131407,
  "mediantime": 1237127460,
  "nonce": 1288933936,
  "bits": "1d00ffff",
  "difficulty": 1,
  "chainwork": "00000000000000000000000000000000000000000000000000001d781d781d78",
  "nTx": 1,
  "previousblockhash": "00000000babe08e0d513f9af0541fb24498b1b1349195580f648c1dee9f38c8f",
  "nextblockhash": "000000007ad607a6ba7082748b58c8d54e79dc1023687de7467ba2af6c446026",
  "strippedsize": 216,
  "size": 216,
  "weight": 864,
  "tx": [
    {
      "txid": "007bd11662d1b9125e58075b2d0574ff6a459c78d33d741f924609bd1c16c0be",
      "hash": "007bd11662d1b9125e58075b2d0574ff6a459c78d33d741f924609bd1c16c0be",
      "version": 1,
      "size": 135,
      "vsize": 135,
      "weight": 540,
      "locktime": 0,
      "vin": [
        {
          "coinbase": "04ffff001d02b701",
          "sequence": 4294967295
        }
      ],
      "vout": [
        {
          "value": 50.0,
          "n": 0,
          "scriptPubKey": {
            "asm": "04419d9c15dac95a1e4400485087bb378befb10c67baf9fe3c90e0c672370604f643c90509953fbf09162f720ba8ea34f389ce9b09fba839a08ef5e8f638a94547 OP_CHECKSIG",
            "desc": "pk(04419d9c15dac95a1e4400485087bb378befb10c67baf9fe3c90e0c672370604f643c90509953fbf09162f720ba8ea34f389ce9b09fba839a08ef5e8f638a94547)#ywxvmhyw",
            "hex": "4104419d9c15dac95a1e4400485087bb378befb10c67baf9fe3c90e0c672370604f643c90509953fbf09162f720ba8ea34f389ce9b09fba839a08ef5e8f638a94547ac",
            "type": "pubkey"
          }
        }
      ],
      "hex": "01000000010000000000000000000000000000000000000000000000000000000000000000ffffffff0804ffff001d02b701ffffffff0100f2052a01000000434104419d9c15dac95a1e4400485087bb378befb10c67baf9fe3c90e0c672370604f643c90509953fbf09162f720ba8ea34f389ce9b09fba839a08ef5e8f638a94547ac00000000"
    }
  ]
}