{
  "hash": "00000000bfafa874eff9ea7ec32c26499bd2580718daa33fb5dd7710db2c814c",
  "confirmations": 51902,
  "height": 68,
  "version": 1,
  "versionHex": "00000001",
  "merkleroot": "bdc5121446fd203abbf0e4d13fe99594dc3dc4c1cb95504feb459e8982d923be",
  "time": 1231626618,
  "mediantime": 1231623880,
  "nonce": 4035836948,
  "bits": "1d00ffff",
  "difficulty": 1,
  "chainwork": "0000000000000000000000000000000000000000000000000000004500450045",
  "nTx": 1,
  "previousblockhash": "00000000cd9c854b176413d6d344d6238426539fe1525b9a88a06e5d8a2df72b",
  "nextblockhash": "00000000ddaccd89104a83b0a28e1987a88d8f51829029cb7e18630e2575e939",
  "strippedsize": 216,
  "size": 216,
  "weight": 864,
  "tx": [
    {
      "txid": "bdc5121446fd203abbf0e4d13fe99594dc3dc4c1cb95504feb459e8982d923be",
      "hash": "bdc5121446fd203abbf0e4d13fe99594dc3dc4c1cb95504feb459e8982d923be",
      "version": 1,
      "size": 135,
      "vsize": 135,
      "weight": 540,
      "locktime": 0,
      "vin": [
        {
          "coinbase": "04ffff001d02b400",
          "sequence": 4294967295
        }
      ],
      "vout": [
        {
          "value": 50.0,
          "n": 0,
          "scriptPubKey": {
            "asm": "04440de3fdefd849e2d4725cef4dccf25a7bd8b8dcc181edaf189391790a5cae414a08e75a76df0fc4ed2fb79dfba9fdc3026ceded3582a34a20fffcfa4fb12153 OP_CHECKSIG",
            "desc": "pk(04440de3fdefd849e2d4725cef4dccf25a7bd8b8dcc181edaf189391790a5cae414a08e75a76df0fc4ed2fb79dfba9fdc3026ceded3582a34a20fffcfa4fb12153)#9fr5qqxg",
            "hex": "4104440de3fdefd849e2d4725cef4dccf25a7bd8b8dcc181edaf189391790a5cae414a08e75a76df0fc4ed2fb79dfba9fdc3026ceded3582a34a20fffcfa4fb12153ac",
            "type": "pubkey"
          }
        }
      ],
      "hex": "01000000010000000000000000000000000000000000000000000000000000000000000000ffffffff0804ffff001d02b400ffffffff0100f2052a01000000434104440de3fdefd849e2d4725cef4dccf25a7bd8b8dcc181edaf189391790a5cae414a08e75a76df0fc4ed2fb79dfba9fdc3026ceded3582a34a20fffcfa4fb12153ac00000000"
    }
  ]
}