{
  "hash": "00000000d9d32fb5c2f98d89cd677b9c1d2316dc29dc2592bc4903825f2183e7",
  "confirmations": 45249,
  "height": 7849,
  "version": 1,
  "versionHex": "00000001",
  "merkleroot": "e1dda86339bc99b7b3d57ac642fa10c6f3fd7406cf72a0ef6f992ff18e67d768",
  "time": 1237350058,
  "mediantime": 1237347983,
  "nonce": 701596469,
  "bits": "1d00ffff",
  "difficulty": 1,
  "chainwork": "00000000000000000000000000000000000000000000000000001eaa1eaa1eaa",
  "nTx": 1,
  "previousblockhash": "0000000093cd17e2342eed322d209f94ca67eab09b2670ad50715a306662e83f",
  "nextblockhash": "00000000b1564f7023873353c8e95cd498177d0d6f4d1ef4b6bbab4533461e80",
  "strippedsize": 216,
  "size": 216,
  "weight": 864,
  "tx": [
    {
      "txid": "e1dda86339bc99b7b3d57ac642fa10c6f3fd7406cf72a0ef6f992ff18e67d768",
      "hash": "e1dda86339bc99b7b3d57ac642fa10c6f3fd7406cf72a0ef6f992ff18e67d768",
      "version": 1,
      "size": 135,
      "vsize": 135,
      "weight": 540,
      "locktime": 0,
      "vin": [
        {
          "coinbase": "04ffff001d02bf06",
          "sequence": 4294967295
        }
      ],
      "vout": [
        {
          "value": 50.0,
          "n": 0,
          "scriptPubKey": {
            "asm": "04e483684cf17fe2a7cf39ccb69192e034597043d7d1fd7be1e262695bcceecb15dcc88d8313691d502e014c9ac2a804f90f88ec1bdfdcdb7ee4df18ac21f2d5bb OP_CHECKSIG",
            "desc": "pk(04e483684cf17fe2a7cf39ccb69192e034597043d7d1fd7be1e262695bcceecb15dcc88d8313691d502e014c9ac2a804f90f88ec1bdfdcdb7ee4df18ac21f2d5bb)#5uzxl5z8",
            "hex": "4104e483684cf17fe2a7cf39ccb69192e034597043d7d1fd7be1e262695bcceecb15dcc88d8313691d502e014c9ac2a804f90f88ec1bdfdcdb7ee4df18ac21f2d5bbac",
            "type": "pubkey"
          }
        }
      ],
      "hex": "01000000010000000000000000000000000000000000000000000000000000000000000000ffffffff0804ffff001d02bf06ffffffff0100f2052a01000000434104e483684cf17fe2a7cf39ccb69192e034597043d7d1fd7be1e262695bcceecb15dcc88d8313691d502e014c9ac2a804f90f88ec1bdfdcdb7ee4df18ac21f2d5bbac00000000"
    }
  ]
}