{
  "hash": "000000005f8f454363f7fd78dd2bbff401a5d865639fddf48308014a936acd32",
  "confirmations": 44614,
  "height": 8484,
  "version": 1,
  "versionHex": "00000001",
  "merkleroot": "d1281989be24d2d96b10494a65e030bb9c156fcc075d51d843cfc73ddee4e371",
  "time": 1237857951,
  "mediantime": 1237852768,
  "nonce": 1877254451,
  "bits": "1d00ffff",
  "difficulty": 1,
  "chainwork": "0000000000000000000000000000000000000000000000000000212521252125",
  "nTx": 1,
  "previousblockhash": "00000000bd044e01e409fe3e81f46d347684af1315802b0ace861d869bc818ed",
  "nextblockhash": "00000000872ef69168d41555abc68bfe1995e349bf2521093f9babaf95a1fbf7",
  "strippedsize": 216,
  "size": 216,
  "weight": 864,
  "tx": [
    {
      "txid": "d1281989be24d2d96b10494a65e030bb9c156fcc075d51d843cfc73ddee4e371",
      "hash": "d1281989be24d2d96b10494a65e030bb9c156fcc075d51d843cfc73ddee4e371",
      "version": 1,
      "size": 135,
      "vsize": 135,
      "weight": 540,
      "locktime": 0,
      "vin": [
        {
          "coinbase": "04ffff001d026707",
          "sequence": 4294967295
        }
      ],
      "vout": [
        {
          "value": 50.0,
          "n": 0,
          "scriptPubKey": {
            "asm": "04f358ebcb93a620310cc7505ecf1fadf11e6b8493e1395f326d0b53723a65eaefddea182a3ba31a321df7a3049d7ea08b9e7ff0015529927967375a8e63b2b1da OP_CHECKSIG",
            "desc": "pk(04f358ebcb93a620310cc7505ecf1fadf11e6b8493e1395f326d0b53723a65eaefddea182a3ba31a321df7a3049d7ea08b9e7ff0015529927967375a8e63b2b1da)#tjyy2nyn",
            "hex": "4104f358ebcb93a620310cc7505ecf1fadf11e6b8493e1395f326d0b53723a65eaefddea182a3ba31a321df7a3049d7ea08b9e7ff0015529927967375a8e63b2b1daac",
            "type": "pubkey"
          }
        }
      ],
      "hex": "01000000010000000000000000000000000000000000000000000000000000000000000000ffffffff0804ffff001d026707ffffffff0100f2052a01000000434104f358ebcb93a620310cc7505ecf1fadf11e6b8493e1395f326d0b53723a65eaefddea182a3ba31a321df7a3049d7ea08b9e7ff0015529927967375a8e63b2b1daac00000000"
    }
  ]
}