{
  "hash": "000000008402372eb75f2d028213f46437f00f9a72ded4f337e5a51605a9ada0",
  "confirmations": 48743,
  "height": 4355,
  "version": 1,
  "versionHex": "00000001",
  "merkleroot": "93212f0548a50b916e4bd50fe1d2974a794bfbdc01ccc9874149a6c7acccc4a4",
  "time": 1234680580,
  "mediantime": 1234677126,
  "nonce": 29666626,
  "bits": "1d00ffff",
  "difficulty": 1,
  "chainwork": "0000000000000000000000000000000000000000000000000000110411041104",
  "nTx": 1,
  "previousblockhash": "00000000cd1f08cb3f60082bfa90c63ffa3b90218b3b9d7719279283a68fd84e",
  "nextblockhash": "0000000001fdf3e0b8fc9f6dabca935225c4bf667f7eab8ca17199e693e4bd92",
  "strippedsize": 216,
  "size": 216,
  "weight": 864,
  "tx": [
    {
      "txid": "93212f0548a50b916e4bd50fe1d2974a794bfbdc01ccc9874149a6c7acccc4a4",
      "hash": "93212f0548a50b916e4bd50fe1d2974a794bfbdc01ccc9874149a6c7acccc4a4",
      "version": 1,
      "size": 135,
      "vsize": 135,
      "weight": 540,
      "locktime": 0,
      "vin": [
        {
          "coinbase": "04ffff001d02c000",
          "sequence": 4294967295
        }
      ],
      "vout": [
        {
          "value": 50.0,
          "n": 0,
          "scriptPubKey": {
            "asm": "04bc94d03ac2f75ddd1fbb1f8e3e087216aa55c7e3c3810c624f8d304799c1dae1b77caae68e5016573aade214500784a7b3f83bd061854849d9239b3e1505c78c OP_CHECKSIG",
            "desc": "pk(04bc94d03ac2f75ddd1fbb1f8e3e087216aa55c7e3c3810c624f8d304799c1dae1b77caae68e5016573aade214500784a7b3f83bd061854849d9239b3e1505c78c)#ml66f5qn",
            "hex": "4104bc94d03ac2f75ddd1fbb1f8e3e087216aa55c7e3c3810c624f8d304799c1dae1b77caae68e5016573aade214500784a7b3f83bd061854849d9239b3e1505c78cac",
            "type": "pubkey"
          }
        }
      ],
      "hex": "01000000010000000000000000000000000000000000000000000000000000000000000000ffffffff0804ffff001d02c000ffffffff0100f2052a01000000434104bc94d03ac2f75ddd1fbb1f8e3e087216aa55c7e3c3810c624f8d304799c1dae1b77caae68e5016573aade214500784a7b3f83bd061854849d9239b3e1505c78cac00000000"
    }
  ]
}