{
  "hash": "0000000001b609c73fd98ed701a1f3654b4a9e66c4e3447e46076c5aa3d41913",
  "confirmations": 43614,
  "height": 9484,
  "version": 1,
  "versionHex": "00000001",
  "merkleroot": "60c8ca6ff58d7a0cd6ed2bb02a2e65d1a8a588e987b30d6641a8ee5f45a92d83",
  "time": 1238618130,
  "mediantime": 1238613952,
  "nonce": 244825655,
  "bits": "1d00ffff",
  "difficulty": 1,
  "chainwork": "0000000000000000000000000000000000000000000000000000250d250d250d",
  "nTx": 1,
  "previousblockhash": "00000000cb0356066b1f8d2482c4747e8da716bf355b71f88fad0b3c3bdd62d8",
  "nextblockhash": "00000000cf513443f3b41f0868cce9111f76d1016f106831a2d07c8625123471",
  "strippedsize": 216,
  "size": 216,
  "weight": 864,
  "tx": [
    {
      "txid": "60c8ca6ff58d7a0cd6ed2bb02a2e65d1a8a588e987b30d6641a8ee5f45a92d83",
      "hash": "60c8ca6ff58d7a0cd6ed2bb02a2e65d1a8a588e987b30d6641a8ee5f45a92d83",
      "version": 1,
      "size": 135,
      "vsize": 135,
      "weight": 540,
      "locktime": 0,
      "vin": [
        {
          "coinbase": "04ffff001d022d05",
          "sequence": 4294967295
        }
      ],
      "vout": [
        {
          "value": 50.0,
          "n": 0,
          "scriptPubKey": {
            "asm": "043a04e5752b2df93c2aaa8ab704874238260e4db97c45d3f3a4a4d48e4386d24ded69ab5643c7789a810cc6c19e149e545038316bca011381e60401c3bdc8cdb6 OP_CHECKSIG",
            "desc": "pk(043a04e5752b2df93c2aaa8ab704874238260e4db97c45d3f3a4a4d48e4386d24ded69ab5643c7789a810cc6c19e149e545038316bca011381e60401c3bdc8cdb6)#evht3y6d",
            "hex": "41043a04e5752b2df93c2aaa8ab704874238260e4db97c45d3f3a4a4d48e4386d24ded69ab5643c7789a810cc6c19e149e545038316bca011381e60401c3bdc8cdb6ac",
            "type": "pubkey"
          }
        }
      ],
      "hex": "01000000010000000000000000000000000000000000000000000000000000000000000000ffffffff0804ffff001d022d05ffffffff0100f2052a010000004341043a04e5752b2df93c2aaa8ab704874238260e4db97c45d3f3a4a4d48e4386d24ded69ab5643c7789a810cc6c19e149e545038316bca011381e60401c3bdc8cdb6ac00000000"
    }
  ]
}