{
  "hash": "00000000bb0d9430d3d1bab474be5050342161efcca9f7e45b151bff9a700944",
  "confirmations": 51804,
  "height": 28,
  "version": 1,
  "versionHex": "00000001",
  "merkleroot": "f399cb6c5bed7bb36d44f361c29dd5ecf12deba163470d8835b7ba0c4ed8aebd",
  "time": 1231601457,
  "mediantime": 1231567611,
  "nonce": 2396281646,
  "bits": "1d00ffff",
  "difficulty": 1,
  "chainwork": "0000000000000000000000000000000000000000000000000000001d001d001d",
  "nTx": 1,
  "previousblockhash": "0000000071350772f98f84babf35502b33d42ee8466d3dde0f376c4120352081",
  "nextblockhash": "00000000c57a1b6351208c592eef8eff015d93c899a047fe35b35252a4a59bcb",
  "strippedsize": 215,
  "size": 215,
  "weight": 860,
  "tx": [
    {
      "txid": "f399cb6c5bed7bb36d44f361c29dd5ecf12deba163470d8835b7ba0c4ed8aebd",
      "hash": "f399cb6c5bed7bb36d44f361c29dd5ecf12deba163470d8835b7ba0c4ed8aebd",
      "version": 1,
      "size": 134,
      "vsize": 134,
      "weight": 536,
      "locktime": 0,
      "vin": [
        {
          "coinbase": "04ffff001d0109",
          "sequence": 4294967295
        }
      ],
      "vout": [
        {
          "value": 50.0,
          "n": 0,
          "scriptPubKey": {
            "asm": "04d3a4fd2722f5754102b96cd8b8ec7ea870c10ed5363290b8ac92eaf6b1202a569ed95ed4957c644df7fc0794774b03bf9f63baf7a55cde9e5076774f67987b34 OP_CHECKSIG",
            "desc": "pk(04d3a4fd2722f5754102b96cd8b8ec7ea870c10ed5363290b8ac92eaf6b1202a569ed95ed4957c644df7fc0794774b03bf9f63baf7a55cde9e5076774f67987b34)#3sett634",
            "hex": "4104d3a4fd2722f5754102b96cd8b8ec7ea870c10ed5363290b8ac92eaf6b1202a569ed95ed4957c644df7fc0794774b03bf9f63baf7a55cde9e5076774f67987b34ac",
            "type": "pubkey"
          }
        }
      ],
      "hex": "01000000010000000000000000000000000000000000000000000000000000000000000000ffffffff0704ffff001d0109ffffffff0100f2052a01000000434104d3a4fd2722f5754102b96cd8b8ec7ea870c10ed5363290b8ac92eaf6b1202a569ed95ed4957c644df7fc0794774b03bf9f63baf7a55cde9e5076774f67987b34ac00000000"
    }
  ]
}