{
  "hash": "00000000f6137280c0651f47875d46fe828cf47ff6c4a102cbb7468592692a25",
  "confirmations": 43677,
  "height": 9421,
  "version": 1,
  "versionHex": "00000001",
  "merkleroot": "c7bc30d34bdb87fbd6d4b9e5a8377b99014bcc22233f5a18ca0892d539110d5c",
  "time": 1238569490,
  "mediantime": 1238565354,
  "nonce": 605977912,
  "bits": "1d00ffff",
  "difficulty": 1,
  "chainwork": "000000000000000000000000000000000000000000000000000024ce24ce24ce",
  "nTx": 1,
  "previousblockhash": "00000000193023fe6dc52135f5babcccfc242b6a8b45836f55045b9b58dd81b5",
  "nextblockhash": "00000000795e7c45910089c42d961483b7c4c0a6d39567e7476d353533688bd9",
  "strippedsize": 216,
  "size": 216,
  "weight": 864,
  "tx": [
    {
      "txid": "c7bc30d34bdb87fbd6d4b9e5a8377b99014bcc22233f5a18ca0892d539110d5c",
      "hash": "c7bc30d34bdb87fbd6d4b9e5a8377b99014bcc22233f5a18ca0892d539110d5c",
      "version": 1,
      "size": 135,
      "vsize": 135,
      "weight": 540,
      "locktime": 0,
      "vin": [
        {
          "coinbase": "04ffff001d02fa03",
          "sequence": 4294967295
        }
      ],
      "vout": [
        {
          "value": 50.0,
          "n": 0,
          "scriptPubKey": {
            "asm": "0475dc0268c13d96f488762a0a12e490a98d4963f5ff6864564252bdf33005c9ab6245b3fd54f0b4969904d7608c50b9f395d2959d63f7814c6e1b9fa226588397 OP_CHECKSIG",
            "desc": "pk(0475dc0268c13d96f488762a0a12e490a98d4963f5ff6864564252bdf33005c9ab6245b3fd54f0b4969904d7608c50b9f395d2959d63f7814c6e1b9fa226588397)#fldsejnr",
            "hex": "410475dc0268c13d96f488762a0a12e490a98d4963f5ff6864564252bdf33005c9ab6245b3fd54f0b4969904d7608c50b9f395d2959d63f7814c6e1b9fa226588397ac",
            "type": "pubkey"
          }
        }
      ],
      "hex": "01000000010000000000000000000000000000000000000000000000000000000000000000ffffffff0804ffff001d02fa03ffffffff0100f2052a0100000043410475dc0268c13d96f488762a0a12e490a98d4963f5ff6864564252bdf33005c9ab6245b3fd54f0b4969904d7608c50b9f395d2959d63f7814c6e1b9fa226588397ac00000000"
    }
  ]
}