{
  "hash": "000000006797a0a0c44c2c46974e627d2fd29ce00f1d5b28dd16a0daa9ebfc7a",
  "confirmations": 47140,
  "height": 5958,
  "version": 1,
  "versionHex": "00000001",
  "merkleroot": "3a3e4b503f93e548b1101c896df4fa525aae264fbd8b99c438fb8ce6663ab585",
  "time": 1235894723,
  "mediantime": 1235890233,
  "nonce": 2308139049,
  "bits": "1d00ffff",
  "difficulty": 1,
  "chainwork": "0000000000000000000000000000000000000000000000000000174717471747",
  "nTx": 1,
  "previousblockhash": "000000008462fe42d69930b0e98b5cb33d68d70a15955a066a4169d70fd01cf3",
  "nextblockhash": "00000000d278a052e5ea6fc38e1e32bdc5aecbc1b7ae50bf71270724f4e22576",
  "strippedsize": 216,
  "size": 216,
  "weight": 864,
  "tx": [
    {
      "txid": "3a3e4b503f93e548b1101c896df4fa525aae264fbd8b99c438fb8ce6663ab585",
      "hash": "3a3e4b503f93e548b1101c896df4fa525aae264fbd8b99c438fb8ce6663ab585",
      "version": 1,
      "size": 135,
      "vsize": 135,
      "weight": 540,
      "locktime": 0,
      "vin": [
        {
          "coinbase": "04ffff001d022e04",
          "sequence": 4294967295
        }
      ],
      "vout": [
        {
          "value": 50.0,
          "n": 0,
          "scriptPubKey": {
            "asm": "04cc723372cb3b3e747dc5e17dcec84e343cf3b824be16ebcd18e8b1f829a0a1c51064b1bc9eba0f1620c1588cca5a9cbe54d118e82c1fae645ba2f05c7bc2531b OP_CHECKSIG",
            "desc": "pk(04cc723372cb3b3e747dc5e17dcec84e343cf3b824be16ebcd18e8b1f829a0a1c51064b1bc9eba0f1620c1588cca5a9cbe54d118e82c1fae645ba2f05c7bc2531b)#qflwyc0r",
            "hex": "4104cc723372cb3b3e747dc5e17dcec84e343cf3b824be16ebcd18e8b1f829a0a1c51064b1bc9eba0f1620c1588cca5a9cbe54d118e82c1fae645ba2f05c7bc2531bac",
            "type": "pubkey"
          }
        }
      ],
      "hex": "01000000010000000000000000000000000000000000000000000000000000000000000000ffffffff0804ffff001d022e04ffffffff0100f2052a01000000434104cc723372cb3b3e747dc5e17dcec84e343cf3b824be16ebcd18e8b1f829a0a1c51064b1bc9eba0f1620c1588cca5a9cbe54d118e82c1fae645ba2f05c7bc2531bac00000000"
    }
  ]
}