{
  "hash": "00000000d6da0422931a51d5fb47379f6330d9e608b1c340942d404bcd56cfc8",
  "confirmations": 51913,
  "height": 1185,
  "version": 1,
  "versionHex": "00000001",
  "merkleroot": "ed25614ba4f2e94b25949e79f0b3d72285dfc0c7b810d6ce944072ad9264a1f6",
  "time": 1232489051,
  "mediantime": 1232484648,
  "nonce": 853871133,
  "bits": "1d00ffff",
  "difficulty": 1,
  "chainwork": "000000000000000000000000000000000000000000000000000004a204a204a2",
  "nTx": 1,
  "previousblockhash": "00000000f0816fe38cd51c7f9a5602b60233ac311fd8351b8353f35981133501",
  "nextblockhash": "0000000085ed5798867e86376ea39cf26c1aab9cfa6c3c56c543bf81f7a9d0a6",
  "strippedsize": 216,
  "size": 216,
  "weight": 864,
  "tx": [
    {
      "txid": "ed25614ba4f2e94b25949e79f0b3d72285dfc0c7b810d6ce944072ad9264a1f6",
      "hash": "ed25614ba4f2e94b25949e79f0b3d72285dfc0c7b810d6ce944072ad9264a1f6",
      "version": 1,
      "size": 135,
      "vsize": 135,
      "weight": 540,
      "locktime": 0,
      "vin": [
        {
          "coinbase": "04ffff001d026608",
          "sequence": 4294967295
        }
      ],
      "vout": [
        {
          "value": 50.0,
          "n": 0,
          "scriptPubKey": {
            "asm": "0497d44731486be6c305bb7ea78f4c7c16b82bcb09c4fedf41d077356a1910d96921e6bc9aed774a30e8a7aac5df8e8b5fcb01dd0d964b1cd40bd123cfbec3ecf5 OP_CHECKSIG",
            "desc": "pk(0497d44731486be6c305bb7ea78f4c7c16b82bcb09c4fedf41d077356a1910d96921e6bc9aed774a30e8a7aac5df8e8b5fcb01dd0d964b1cd40bd123cfbec3ecf5)#h4nvqthj",
            "hex": "410497d44731486be6c305bb7ea78f4c7c16b82bcb09c4fedf41d077356a1910d96921e6bc9aed774a30e8a7aac5df8e8b5fcb01dd0d964b1cd40bd123cfbec3ecf5ac",
            "type": "pubkey"
          }
        }
      ],
      "hex": "01000000010000000000000000000000000000000000000000000000000000000000000000ffffffff0804ffff001d026608ffffffff0100f2052a0100000043410497d44731486be6c305bb7ea78f4c7c16b82bcb09c4fedf41d077356a1910d96921e6bc9aed774a30e8a7aac5df8e8b5fcb01dd0d964b1cd40bd123cfbec3ecf5ac00000000"
    }
  ]
}