{
  "hash": "000000005f8dbc254ba41890b98e5a9e218c220a3476455539db27f642db3673",
  "confirmations": 52003,
  "height": 337,
  "version": 1,
  "versionHex": "00000001",
  "merkleroot": "2902a7464e53e63787a6ad8fca1e4b85b566bbf0064bbf28ce1ae183ee84d791",
  "time": 1231857108,
  "mediantime": 1231854604,
  "nonce": 2670684464,
  "bits": "1d00ffff",
  "difficulty": 1,
  "chainwork": "0000000000000000000000000000000000000000000000000000015201520152",
  "nTx": 1,
  "previousblockhash": "00000000306b5009d2a9efa54aaec49a0ce1e992b0079c3f2e54fc49871d7956",
  "nextblockhash": "0000000004b7c0bdbf2d818f3e4d441d8db5fd2e8168d0150edda83dc59b7da6",
  "strippedsize": 216,
  "size": 216,
  "weight": 864,
  "tx": [
    {
      "txid": "2902a7464e53e63787a6ad8fca1e4b85b566bbf0064bbf28ce1ae183ee84d791",
      "hash": "2902a7464e53e63787a6ad8fca1e4b85b566bbf0064bbf28ce1ae183ee84d791",
      "version": 1,
      "size": 135,
      "vsize": 135,
      "weight": 540,
      "locktime": 0,
      "vin": [
        {
          "coinbase": "04ffff001d024601",
          "sequence": 4294967295
        }
      ],
      "vout": [
        {
          "value": 50.0,
          "n": 0,
          "scriptPubKey": {
            "asm": "04fb172522087b728b7234c896c3c4c9462ded777c3f7e8f9d2a9939bf4aa54e4fa31016afcc1b32917d1186e2eeb49e973a9d8c268caa58da0d6dc70c59547b93 OP_CHECKSIG",
            "desc": "pk(04fb172522087b728b7234c896c3c4c9462ded777c3f7e8f9d2a9939bf4aa54e4fa31016afcc1b32917d1186e2eeb49e973a9d8c268caa58da0d6dc70c59547b93)#82q2jk2k",
            "hex": "4104fb172522087b728b7234c896c3c4c9462ded777c3f7e8f9d2a9939bf4aa54e4fa31016afcc1b32917d1186e2eeb49e973a9d8c268caa58da0d6dc70c59547b93ac",
            "type": "pubkey"
          }
        }
      ],
      "hex": "01000000010000000000000000000000000000000000000000000000000000000000000000ffffffff0804ffff001d024601ffffffff0100f2052a01000000434104fb172522087b728b7234c896c3c4c9462ded777c3f7e8f9d2a9939bf4aa54e4fa31016afcc1b32917d1186e2eeb49e973a9d8c268caa58da0d6dc70c59547b93ac00000000"
    }
  ]
}