{
  "hash": "000000009fb7cad2f4a67dbf5e9aa10b6d1752491b1ef54211425e49492031c9",
  "confirmations": 43612,
  "height": 9486,
  "version": 1,
  "versionHex": "00000001",
  "merkleroot": "4829ce138ec6cb875d18341e16605f013644cc1100228d6f7de5f59baae94005",
  "time": 1238619857,
  "mediantime": 1238615471,
  "nonce": 1129989634,
  "bits": "1d00ffff",
  "difficulty": 1,
  "chainwork": "0000000000000000000000000000000000000000000000000000250f250f250f",
  "nTx": 1,
  "previousblockhash": "00000000cf513443f3b41f0868cce9111f76d1016f106831a2d07c8625123471",
  "nextblockhash": "00000000e0821e4e55733e8a43e69c335f76b551c7486428d04d91252d1c9559",
  "strippedsize": 216,
  "size": 216,
  "weight": 864,
  "tx": [
    {
      "txid": "4829ce138ec6cb875d18341e16605f013644cc1100228d6f7de5f59baae94005",
      "hash": "4829ce138ec6cb875d18341e16605f013644cc1100228d6f7de5f59baae94005",
      "version": 1,
      "size": 135,
      "vsize": 135,
      "weight": 540,
      "locktime": 0,
      "vin": [
        {
          "coinbase": "04ffff001d024605",
          "sequence": 4294967295
        }
      ],
      "vout": [
        {
          "value": 50.0,
          "n": 0,
          "scriptPubKey": {
            "asm": "04ae5d17468ba35003c91885e3b8150de383b067cea7f6413bbc55a4cb1f6efc96340067f363449ec015c042cf975aeef4f60b8f34c88052fcdbf95d76bb8a480d OP_CHECKSIG",
            "desc": "pk(04ae5d17468ba35003c91885e3b8150de383b067cea7f6413bbc55a4cb1f6efc96340067f363449ec015c042cf975aeef4f60b8f34c88052fcdbf95d76bb8a480d)#7vzsvwee",
            "hex": "4104ae5d17468ba35003c91885e3b8150de383b067cea7f6413bbc55a4cb1f6efc96340067f363449ec015c042cf975aeef4f60b8f34c88052fcdbf95d76bb8a480dac",
            "type": "pubkey"
          }
        }
      ],
      "hex": "01000000010000000000000000000000000000000000000000000000000000000000000000ffffffff0804ffff001d024605ffffffff0100f2052a01000000434104ae5d17468ba35003c91885e3b8150de383b067cea7f6413bbc55a4cb1f6efc96340067f363449ec015c042cf975aeef4f60b8f34c88052fcdbf95d76bb8a480dac00000000"
    }
  ]
}