{
  "hash": "000000006758d578caf2ebb468e61e283078515e1a3814a230cfb9ac7c290b50",
  "confirmations": 47933,
  "height": 5165,
  "version": 1,
  "versionHex": "00000001",
  "merkleroot": "7ce513c0b9e647e6fb8ab645c644b5a2e40305fa728119a107bb0dd94554a94f",
  "time": 1235262262,
  "mediantime": 1235259294,
  "nonce": 1927911214,
  "bits": "1d00ffff",
  "difficulty": 1,
  "chainwork": "0000000000000000000000000000000000000000000000000000142e142e142e",
  "nTx": 1,
  "previousblockhash": "00000000a62347cd09208a6683da1b735df581544384eecfdbcb4a0ba4f13488",
  "nextblockhash": "00000000df039632706f1fae438e4fddc0f42b92d5778348a53413e577180553",
  "strippedsize": 216,
  "size": 216,
  "weight": 864,
  "tx": [
    {
      "txid": "7ce513c0b9e647e6fb8ab645c644b5a2e40305fa728119a107bb0dd94554a94f",
      "hash": "7ce513c0b9e647e6fb8ab645c644b5a2e40305fa728119a107bb0dd94554a94f",
      "version": 1,
      "size": 135,
      "vsize": 135,
      "weight": 540,
      "locktime": 0,
      "vin": [
        {
          "coinbase": "04ffff001d022f0a",
          "sequence": 4294967295
        }
      ],
      "vout": [
        {
          "value": 50.0,
          "n": 0,
          "scriptPubKey": {
            "asm": "04727824759b39294256d0b79e22b17de2d3147f4b9452fb5e70f46a272caa6a8fa2870827662002a8771fe0953f8cf0e6fe67871a740aed69dc7a0f12f9f542c7 OP_CHECKSIG",
            "desc": "pk(04727824759b39294256d0b79e22b17de2d3147f4b9452fb5e70f46a272caa6a8fa2870827662002a8771fe0953f8cf0e6fe67871a740aed69dc7a0f12f9f542c7)#7q8y8ef2",
            "hex": "4104727824759b39294256d0b79e22b17de2d3147f4b9452fb5e70f46a272caa6a8fa2870827662002a8771fe0953f8cf0e6fe67871a740aed69dc7a0f12f9f542c7ac",
            "type": "pubkey"
          }
        }
      ],
      "hex": "01000000010000000000000000000000000000000000000000000000000000000000000000ffffffff0804ffff001d022f0affffffff0100f2052a01000000434104727824759b39294256d0b79e22b17de2d3147f4b9452fb5e70f46a272caa6a8fa2870827662002a8771fe0953f8cf0e6fe67871a740aed69dc7a0f12f9f542c7ac00000000"
    }
  ]
}