{
  "hash": "0000000027a7f5d35d5d5b255b2c9255813f6f569ee3b01d567ad3e492f3cf21",
  "confirmations": 44782,
  "height": 8316,
  "version": 1,
  "versionHex": "00000001",
  "merkleroot": "ffe5ae70c95b391938ee60f2c8d371e971426e7d7ce0c311270838c7ed4bdfb5",
  "time": 1237739784,
  "mediantime": 1237737028,
  "nonce": 4168929846,
  "bits": "1d00ffff",
  "difficulty": 1,
  "chainwork": "0000000000000000000000000000000000000000000000000000207d207d207d",
  "nTx": 1,
  "previousblockhash": "00000000f2256ba62635f7918d0f685fc34447cc5eff1cd523b555f716435710",
  "nextblockhash": "000000006c30cbb5fe068b63a4635c9c596f77b5490ffc6160c93840141eac61",
  "strippedsize": 216,
  "size": 216,
  "weight": 864,
  "tx": [
    {
      "txid": "ffe5ae70c95b391938ee60f2c8d371e971426e7d7ce0c311270838c7ed4bdfb5",
      "hash": "ffe5ae70c95b391938ee60f2c8d371e971426e7d7ce0c311270838c7ed4bdfb5",
      "version": 1,
      "size": 135,
      "vsize": 135,
      "weight": 540,
      "locktime": 0,
      "vin": [
        {
          "coinbase": "04ffff001d025904",
          "sequence": 4294967295
        }
      ],
      "vout": [
        {
          "value": 50.0,
          "n": 0,
          "scriptPubKey": {
            "asm": "04fb118af60ec5ac3a801e9813509d7f13674bc0d85ed8c575a48cea92352d3a2072f87e82d061091156bceef6088aac419e44c9d637bd7ba6c8785ff0886ccfcc OP_CHECKSIG",
            "desc": "pk(04fb118af60ec5ac3a801e9813509d7f13674bc0d85ed8c575a48cea92352d3a2072f87e82d061091156bceef6088aac419e44c9d637bd7ba6c8785ff0886ccfcc)#x8dfnnhd",
            "hex": "4104fb118af60ec5ac3a801e9813509d7f13674bc0d85ed8c575a48cea92352d3a2072f87e82d061091156bceef6088aac419e44c9d637bd7ba6c8785ff0886ccfccac",
            "type": "pubkey"
          }
        }
      ],
      "hex": "01000000010000000000000000000000000000000000000000000000000000000000000000ffffffff0804ffff001d025904ffffffff0100f2052a01000000434104fb118af60ec5ac3a801e9813509d7f13674bc0d85ed8c575a48cea92352d3a2072f87e82d061091156bceef6088aac419e44c9d637bd7ba6c8785ff0886ccfccac00000000"
    }
  ]
}