{
  "hash": "000000005f88f80bbecf493713debc4a0dedc7ad6391f77ca9dc8ea45304674c",
  "confirmations": 43183,
  "height": 9915,
  "version": 1,
  "versionHex": "00000001",
  "merkleroot": "13a76e5c4373149bc9f1478e9949a2450aee2da108ff285b275173e713cce4f5",
  "time": 1238931792,
  "mediantime": 1238928946,
  "nonce": 54087853,
  "bits": "1d00ffff",
  "difficulty": 1,
  "chainwork": "000000000000000000000000000000000000000000000000000026bc26bc26bc",
  "nTx": 1,
  "previousblockhash": "000000001f193ff0460a64cd339f7c00e076dcfecffe434a55892540b3ab2b17",
  "nextblockhash": "00000000b0718c2433b012e399de10ea7b884b6af5fd7607ee0e854954f69393",
  "strippedsize": 216,
  "size": 216,
  "weight": 864,
  "tx": [
    {
      "txid": "13a76e5c4373149bc9f1478e9949a2450aee2da108ff285b275173e713cce4f5",
      "hash": "13a76e5c4373149bc9f1478e9949a2450aee2da108ff285b275173e713cce4f5",
      "version": 1,
      "size": 135,
      "vsize": 135,
      "weight": 540,
      "locktime": 0,
      "vin": [
        {
          "coinbase": "04ffff001d02a601",
          "sequence": 4294967295
        }
      ],
      "vout": [
        {
          "value": 50.0,
          "n": 0,
          "scriptPubKey": {
            "asm": "0408578a82a4d51d112119e41ca6df8ff775864a9f2ed41e163ca918ccb9c30c871fee6de3088d0900f11f9abd7739649b01aca361d45450614e7180be4fd61306 OP_CHECKSIG",
            "desc": "pk(0408578a82a4d51d112119e41ca6df8ff775864a9f2ed41e163ca918ccb9c30c871fee6de3088d0900f11f9abd7739649b01aca361d45450614e7180be4fd61306)#cf30kzkh",
            "hex": "410408578a82a4d51d112119e41ca6df8ff775864a9f2ed41e163ca918ccb9c30c871fee6de3088d0900f11f9abd7739649b01aca361d45450614e7180be4fd61306ac",
            "type": "pubkey"
          }
        }
      ],
      "hex": "01000000010000000000000000000000000000000000000000000000000000000000000000ffffffff0804ffff001d02a601ffffffff0100f2052a0100000043410408578a82a4d51d112119e41ca6df8ff775864a9f2ed41e163ca918ccb9c30c871fee6de3088d0900f11f9abd7739649b01aca361d45450614e7180be4fd61306ac00000000"
    }
  ]
}