{
  "hash": "00000000c3c2749b1a7d80aea4ae36313f64d2e3864906c3bed8c375d4107688",
  "confirmations": 47257,
  "height": 5841,
  "version": 1,
  "versionHex": "00000001",
  "merkleroot": "ca976cf28342c8916d0c66bfb698bc39354d60852a3249b619cd1d064ff80e42",
  "time": 1235793852,
  "mediantime": 1235788769,
  "nonce": 4247748663,
  "bits": "1d00ffff",
  "difficulty": 1,
  "chainwork": "000000000000000000000000000000000000000000000000000016d216d216d2",
  "nTx": 1,
  "previousblockhash": "000000007f87a3fc3a4c47760cd2e6df646be144198714dc1ba6240eb90ef35e",
  "nextblockhash": "000000008e3316a0a8fdb9e806706f0893d0f739d4c6eb9b5ed4e5a7b63e1337",
  "strippedsize": 216,
  "size": 216,
  "weight": 864,
  "tx": [
    {
      "txid": "ca976cf28342c8916d0c66bfb698bc39354d60852a3249b619cd1d064ff80e42",
      "hash": "ca976cf28342c8916d0c66bfb698bc39354d60852a3249b619cd1d064ff80e42",
      "version": 1,
      "size": 135,
      "vsize": 135,
      "weight": 540,
      "locktime": 0,
      "vin": [
        {
          "coinbase": "04ffff001d028701",
          "sequence": 4294967295
        }
      ],
      "vout": [
        {
          "value": 50.0,
          "n": 0,
          "scriptPubKey": {
            "asm": "04c81545969cd7653ce95a4ad0460d665c84d0112e6374d43b48ef2bd017bf7dd968fbb28964f7a85f291c753309376ce156228da7d33fdc41e409da6ca7d1bb8d OP_CHECKSIG",
            "desc": "pk(04c81545969cd7653ce95a4ad0460d665c84d0112e6374d43b48ef2bd017bf7dd968fbb28964f7a85f291c753309376ce156228da7d33fdc41e409da6ca7d1bb8d)#fducajwa",
            "hex": "4104c81545969cd7653ce95a4ad0460d665c84d0112e6374d43b48ef2bd017bf7dd968fbb28964f7a85f291c753309376ce156228da7d33fdc41e409da6ca7d1bb8dac",
            "type": "pubkey"
          }
        }
      ],
      "hex": "01000000010000000000000000000000000000000000000000000000000000000000000000ffffffff0804ffff001d028701ffffffff0100f2052a01000000434104c81545969cd7653ce95a4ad0460d665c84d0112e6374d43b48ef2bd017bf7dd968fbb28964f7a85f291c753309376ce156228da7d33fdc41e409da6ca7d1bb8dac00000000"
    }
  ]
}