{
  "hash": "0000000038a4260870c405792244cc5d17fdb4ab1131f71d6a8c4d7c74fd7d8c",
  "confirmations": 45092,
  "height": 8006,
  "version": 1,
  "versionHex": "00000001",
  "merkleroot": "05cf076356358d999b2a47dea95d3fad29984d881a719c431ad8649597acf15d",
  "time": 1237464782,
  "mediantime": 1237461630,
  "nonce": 104891806,
  "bits": "1d00ffff",
  "difficulty": 1,
  "chainwork": "00000000000000000000000000000000000000000000000000001f471f471f47",
  "nTx": 1,
  "previousblockhash": "00000000a2eeaf89e9e077bc8908e1501cdebbe7187fc498906bc1d156a6ec64",
  "nextblockhash": "00000000b51a20c3e4739b6415bf169adf4024795f2e266a5ce8182156354ae7",
  "strippedsize": 215,
  "size": 215,
  "weight": 860,
  "tx": [
    {
      "txid": "05cf076356358d999b2a47dea95d3fad29984d881a719c431ad8649597acf15d",
      "hash": "05cf076356358d999b2a47dea95d3fad29984d881a719c431ad8649597acf15d",
      "version": 1,
      "size": 134,
      "vsize": 134,
      "weight": 536,
      "locktime": 0,
      "vin": [
        {
          "coinbase": "04ffff001d0110",
          "sequence": 4294967295
        }
      ],
      "vout": [
        {
          "value": 50.0,
          "n": 0,
          "scriptPubKey": {
            "asm": "045568449060ed22fac6e2f4c7e5890b9589080f97ce3b77eedbb6b95997685b428c20f84d06e59bc8b7ea4a4626803f52949a8ab7de7f639cd04a38cb3956bec1 OP_CHECKSIG",
            "desc": "pk(045568449060ed22fac6e2f4c7e5890b9589080f97ce3b77eedbb6b95997685b428c20f84d06e59bc8b7ea4a4626803f52949a8ab7de7f639cd04a38cb3956bec1)#gq7a6tuc",
            "hex": "41045568449060ed22fac6e2f4c7e5890b9589080f97ce3b77eedbb6b95997685b428c20f84d06e59bc8b7ea4a4626803f52949a8ab7de7f639cd04a38cb3956bec1ac",
            "type": "pubkey"
          }
        }
      ],
      "hex": "01000000010000000000000000000000000000000000000000000000000000000000000000ffffffff0704ffff001d0110ffffffff0100f2052a010000004341045568449060ed22fac6e2f4c7e5890b9589080f97ce3b77eedbb6b95997685b428c20f84d06e59bc8b7ea4a4626803f52949a8ab7de7f639cd04a38cb3956bec1ac00000000"
    }
  ]
}