{
  "hash": "000000003bf8ef23f94d23b5e6d71a4492ffb1b064963db87941c30c7d640c48",
  "confirmations": 43692,
  "height": 9406,
  "version": 1,
  "versionHex": "00000001",
  "merkleroot": "cbb4c0708d9402c86e1e466a3bc761d290b46f3edd63763fcd798d29c9f162c3",
  "time": 1238560820,
  "mediantime": 1238553719,
  "nonce": 191933712,
  "bits": "1d00ffff",
  "difficulty": 1,
  "chainwork": "000000000000000000000000000000000000000000000000000024bf24bf24bf",
  "nTx": 1,
  "previousblockhash": "000000005cf4edaa6a2027ad062ecb0a30826781ee0f80925afdc169033142f1",
  "nextblockhash": "00000000c6d2d7c767da9e5550ed691546c58ca353eab751276d51d055963606",
  "strippedsize": 215,
  "size": 215,
  "weight": 860,
  "tx": [
    {
      "txid": "cbb4c0708d9402c86e1e466a3bc761d290b46f3edd63763fcd798d29c9f162c3",
      "hash": "cbb4c0708d9402c86e1e466a3bc761d290b46f3edd63763fcd798d29c9f162c3",
      "version": 1,
      "size": 134,
      "vsize": 134,
      "weight": 536,
      "locktime": 0,
      "vin": [
        {
          "coinbase": "04ffff001d015f",
          "sequence": 4294967295
        }
      ],
      "vout": [
        {
          "value": 50.0,
          "n": 0,
          "scriptPubKey": {
            "asm": "04e17669216936df68b638bb487ed87a2a97632090dd5fe0ef4f9e595fd679762d06d8586103b2498a27c29028fcc0c6d3ecc7c6e975348251b36dafaa5803d3b9 OP_CHECKSIG",
            "desc": "pk(04e17669216936df68b638bb487ed87a2a97632090dd5fe0ef4f9e595fd679762d06d8586103b2498a27c29028fcc0c6d3ecc7c6e975348251b36dafaa5803d3b9)#hkt2z6za",
            "hex": "4104e17669216936df68b638bb487ed87a2a97632090dd5fe0ef4f9e595fd679762d06d8586103b2498a27c29028fcc0c6d3ecc7c6e975348251b36dafaa5803d3b9ac",
            "type": "pubkey"
          }
        }
      ],
      "hex": "01000000010000000000000000000000000000000000000000000000000000000000000000ffffffff0704ffff001d015fffffffff0100f2052a01000000434104e17669216936df68b638bb487ed87a2a97632090dd5fe0ef4f9e595fd679762d06d8586103b2498a27c29028fcc0c6d3ecc7c6e975348251b36dafaa5803d3b9ac00000000"
    }
  ]
}