{
  "hash": "000000001210de7676a0944eb9a0df4cd4001868be65f0f1b0abb80061521bb4",
  "confirmations": 51128,
  "height": 1970,
  "version": 1,
  "versionHex": "00000001",
  "merkleroot": "2b1df83557a92b9ded5e175b97b8cdaafe357010154aaf14a0896b4c2bdbb8cf",
  "time": 1233023940,
  "mediantime": 1233020036,
  "nonce": 2543482170,
  "bits": "1d00ffff",
  "difficulty": 1,
  "chainwork": "000000000000000000000000000000000000000000000000000007b307b307b3",
  "nTx": 1,
  "previousblockhash": "00000000be9aaca9fcb7ddda0d54db9f98365e752dcfd576ce9ae4cc2e330f39",
  "nextblockhash": "000000009d524126e78d19290cd9d7fa356ce0c2b58d67fbe8e51142e811bee8",
  "strippedsize": 216,
  "size": 216,
  "weight": 864,
  "tx": [
    {
      "txid": "2b1df83557a92b9ded5e175b97b8cdaafe357010154aaf14a0896b4c2bdbb8cf",
      "hash": "2b1df83557a92b9ded5e175b97b8cdaafe357010154aaf14a0896b4c2bdbb8cf",
      "version": 1,
      "size": 135,
      "vsize": 135,
      "weight": 540,
      "locktime": 0,
      "vin": [
        {
          "coinbase": "04ffff001d02ff00",
          "sequence": 4294967295
        }
      ],
      "vout": [
        {
          "value": 50.0,
          "n": 0,
          "scriptPubKey": {
            "asm": "04372826495c803387ebae0f9f5e0f0b70f9bb8c5e6205e0bbaadc5e9eccccd0d564fae03eb47b29ae2318bc8edacc5c09e302bf530529bd81fc939fad7576c0f0 OP_CHECKSIG",
            "desc": "pk(04372826495c803387ebae0f9f5e0f0b70f9bb8c5e6205e0bbaadc5e9eccccd0d564fae03eb47b29ae2318bc8edacc5c09e302bf530529bd81fc939fad7576c0f0)#akzpdypa",
            "hex": "4104372826495c803387ebae0f9f5e0f0b70f9bb8c5e6205e0bbaadc5e9eccccd0d564fae03eb47b29ae2318bc8edacc5c09e302bf530529bd81fc939fad7576c0f0ac",
            "type": "pubkey"
          }
        }
      ],
      "hex": "01000000010000000000000000000000000000000000000000000000000000000000000000ffffffff0804ffff001d02ff00ffffffff0100f2052a01000000434104372826495c803387ebae0f9f5e0f0b70f9bb8c5e6205e0bbaadc5e9eccccd0d564fae03eb47b29ae2318bc8edacc5c09e302bf530529bd81fc939fad7576c0f0ac00000000"
    }
  ]
}