{
  "hash": "00000000a3f1415f4802b510db478857a3ab6e0e27419f852de00c11074cb2bb",
  "confirmations": 46772,
  "height": 6326,
  "version": 1,
  "versionHex": "00000001",
  "merkleroot": "2a9eca28223630826c87d0dccbed00d2bedd11c9b1c447e04c62a08e28ab1ee3",
  "time": 1236194386,
  "mediantime": 1236189624,
  "nonce": 3055020318,
  "bits": "1d00ffff",
  "difficulty": 1,
  "chainwork": "000000000000000000000000000000000000000000000000000018b718b718b7",
  "nTx": 1,
  "previousblockhash": "000000000779d1bbd8e59aa27deef1bfbe46e0070e64f733ff734a051aa9034c",
  "nextblockhash": "00000000ebe7361ef6ded54587e1840e15e41146ce8101e38c78b86a9980ab54",
  "strippedsize": 215,
  "size": 215,
  "weight": 860,
  "tx": [
    {
      "txid": "2a9eca28223630826c87d0dccbed00d2bedd11c9b1c447e04c62a08e28ab1ee3",
      "hash": "2a9eca28223630826c87d0dccbed00d2bedd11c9b1c447e04c62a08e28ab1ee3",
      "version": 1,
      "size": 134,
      "vsize": 134,
      "weight": 536,
      "locktime": 0,
      "vin": [
        {
          "coinbase": "04ffff001d017e",
          "sequence": 4294967295
        }
      ],
      "vout": [
        {
          "value": 50.0,
          "n": 0,
          "scriptPubKey": {
            "asm": "04c1aadd6eb7371817a9c599e12e4c86c846fef76f84ecf72c6c99220a9867b543823f4444431e5c7c5848abb779ef225f5170f556a58d5dfbc28cc26053694d72 OP_CHECKSIG",
            "desc": "pk(04c1aadd6eb7371817a9c599e12e4c86c846fef76f84ecf72c6c99220a9867b543823f4444431e5c7c5848abb779ef225f5170f556a58d5dfbc28cc26053694d72)#prxuf5r6",
            "hex": "4104c1aadd6eb7371817a9c599e12e4c86c846fef76f84ecf72c6c99220a9867b543823f4444431e5c7c5848abb779ef225f5170f556a58d5dfbc28cc26053694d72ac",
            "type": "pubkey"
          }
        }
      ],
      "hex": "01000000010000000000000000000000000000000000000000000000000000000000000000ffffffff0704ffff001d017effffffff0100f2052a01000000434104c1aadd6eb7371817a9c599e12e4c86c846fef76f84ecf72c6c99220a9867b543823f4444431e5c7c5848abb779ef225f5170f556a58d5dfbc28cc26053694d72ac00000000"
    }
  ]
}