{
  "hash": "00000000e51c5e124b5b690fd5143f8bd543e73068a4d0ddd9bc01e8ce0e3633",
  "confirmations": 51880,
  "height": 1218,
  "version": 1,
  "versionHex": "00000001",
  "merkleroot": "5f60b5eaf404fc48b9900a4c05a6cb6e9ee1dbeb3fe7e34b079121050011e7b7",
  "time": 1232513643,
  "mediantime": 1232510782,
  "nonce": 196328591,
  "bits": "1d00ffff",
  "difficulty": 1,
  "chainwork": "000000000000000000000000000000000000000000000000000004c304c304c3",
  "nTx": 1,
  "previousblockhash": "000000003a5b63b85bdf11159dce1ca095e0c5168ef718d2f9e36654992eefc7",
  "nextblockhash": "00000000924e36aed155fe03fdfb5e351ab618c7815815350cd21c0bf5a05693",
  "strippedsize": 216,
  "size": 216,
  "weight": 864,
  "tx": [
    {
      "txid": "5f60b5eaf404fc48b9900a4c05a6cb6e9ee1dbeb3fe7e34b079121050011e7b7",
      "hash": "5f60b5eaf404fc48b9900a4c05a6cb6e9ee1dbeb3fe7e34b079121050011e7b7",
      "version": 1,
      "size": 135,
      "vsize": 135,
      "weight": 540,
      "locktime": 0,
      "vin": [
        {
          "coinbase": "04ffff001d027b01",
          "sequence": 4294967295
        }
      ],
      "vout": [
        {
          "value": 50.0,
          "n": 0,
          "scriptPubKey": {
            "asm": "04413382282462df70a74e1d46731cba25445393feac120d3890be98b7af5019f484ecbdc070cf02c9da0da9a4ef1e085c4c6c2d503a7f723cb5fd37164f3c0715 OP_CHECKSIG",
            "desc": "pk(04413382282462df70a74e1d46731cba25445393feac120d3890be98b7af5019f484ecbdc070cf02c9da0da9a4ef1e085c4c6c2d503a7f723cb5fd37164f3c0715)#5dv2qry5",
            "hex": "4104413382282462df70a74e1d46731cba25445393feac120d3890be98b7af5019f484ecbdc070cf02c9da0da9a4ef1e085c4c6c2d503a7f723cb5fd37164f3c0715ac",
            "type": "pubkey"
          }
        }
      ],
      "hex": "01000000010000000000000000000000000000000000000000000000000000000000000000ffffffff0804ffff001d027b01ffffffff0100f2052a01000000434104413382282462df70a74e1d46731cba25445393feac120d3890be98b7af5019f484ecbdc070cf02c9da0da9a4ef1e085c4c6c2d503a7f723cb5fd37164f3c0715ac00000000"
    }
  ]
}