{
  "hash": "00000000778ec8f598a2763e04391b1bb47f7b57fbdcc46bc1448f18382456cd",
  "confirmations": 48530,
  "height": 4568,
  "version": 1,
  "versionHex": "00000001",
  "merkleroot": "9a0d369c0124bb38b1a7e685e45631a0433a1f1b0a9ef548739beb7fd5d3177d",
  "time": 1234828987,
  "mediantime": 1234827009,
  "nonce": 87747797,
  "bits": "1d00ffff",
  "difficulty": 1,
  "chainwork": "000000000000000000000000000000000000000000000000000011d911d911d9",
  "nTx": 1,
  "previousblockhash": "000000002a11eca002d9fcdee8dc749a7ff1b97948f5cef5f34d40f255e3ffa0",
  "nextblockhash": "00000000f716a4ee9ee578b947faabadc3eab9fbeda12a00eb18b44f9346808b",
  "strippedsize": 216,
  "size": 216,
  "weight": 864,
  "tx": [
    {
      "txid": "9a0d369c0124bb38b1a7e685e45631a0433a1f1b0a9ef548739beb7fd5d3177d",
      "hash": "9a0d369c0124bb38b1a7e685e45631a0433a1f1b0a9ef548739beb7fd5d3177d",
      "version": 1,
      "size": 135,
      "vsize": 135,
      "weight": 540,
      "locktime": 0,
      "vin": [
        {
          "coinbase": "04ffff001d029603",
          "sequence": 4294967295
        }
      ],
      "vout": [
        {
          "value": 50.0,
          "n": 0,
          "scriptPubKey": {
            "asm": "04a4bf7057edf5da28240a7bb9019773511eae2bb4c64579630de34c547db58d0039b1566a3a0a35bbde9f058cac2016e72e30b3b8809fb1ee632fedb39316781c OP_CHECKSIG",
            "desc": "pk(04a4bf7057edf5da28240a7bb9019773511eae2bb4c64579630de34c547db58d0039b1566a3a0a35bbde9f058cac2016e72e30b3b8809fb1ee632fedb39316781c)#h2jfapa5",
            "hex": "4104a4bf7057edf5da28240a7bb9019773511eae2bb4c64579630de34c547db58d0039b1566a3a0a35bbde9f058cac2016e72e30b3b8809fb1ee632fedb39316781cac",
            "type": "pubkey"
          }
        }
      ],
      "hex": "01000000010000000000000000000000000000000000000000000000000000000000000000ffffffff0804ffff001d029603ffffffff0100f2052a01000000434104a4bf7057edf5da28240a7bb9019773511eae2bb4c64579630de34c547db58d0039b1566a3a0a35bbde9f058cac2016e72e30b3b8809fb1ee632fedb39316781cac00000000"
    }
  ]
}