{
  "hash": "00000000b52ea769a94d61147fc8dbd9c36afb0bf10499a179d14cde80cb46bc",
  "confirmations": 51480,
  "height": 1618,
  "version": 1,
  "versionHex": "00000001",
  "merkleroot": "0690edcee8bfebdddeea1cafd0055ce355ebb9a5c1e9ce45eb84416840d09c55",
  "time": 1232819209,
  "mediantime": 1232816840,
  "nonce": 1703199021,
  "bits": "1d00ffff",
  "difficulty": 1,
  "chainwork": "0000000000000000000000000000000000000000000000000000065306530653",
  "nTx": 1,
  "previousblockhash": "00000000970de9b79c0e4f91652dd43ca9b779257fb57759f80e36e2c0835330",
  "nextblockhash": "000000005d0d49633cb396d5d6d03f3436e22b4bd145cb800d2f96a9cc2a3fd0",
  "strippedsize": 216,
  "size": 216,
  "weight": 864,
  "tx": [
    {
      "txid": "0690edcee8bfebdddeea1cafd0055ce355ebb9a5c1e9ce45eb84416840d09c55",
      "hash": "0690edcee8bfebdddeea1cafd0055ce355ebb9a5c1e9ce45eb84416840d09c55",
      "version": 1,
      "size": 135,
      "vsize": 135,
      "weight": 540,
      "locktime": 0,
      "vin": [
        {
          "coinbase": "04ffff001d022a02",
          "sequence": 4294967295
        }
      ],
      "vout": [
        {
          "value": 50.0,
          "n": 0,
          "scriptPubKey": {
            "asm": "04949da11cdc0ea0043a7b3323b215993a9be9828791578bf8e669431bac5b645d4a159c34e102fde755dea2f7f475cd6821a07fa308b9fb3461d3c169e9d2fb44 OP_CHECKSIG",
            "desc": "pk(04949da11cdc0ea0043a7b3323b215993a9be9828791578bf8e669431bac5b645d4a159c34e102fde755dea2f7f475cd6821a07fa308b9fb3461d3c169e9d2fb44)#l6d8rws0",
            "hex": "4104949da11cdc0ea0043a7b3323b215993a9be9828791578bf8e669431bac5b645d4a159c34e102fde755dea2f7f475cd6821a07fa308b9fb3461d3c169e9d2fb44ac",
            "type": "pubkey"
          }
        }
      ],
      "hex": "01000000010000000000000000000000000000000000000000000000000000000000000000ffffffff0804ffff001d022a02ffffffff0100f2052a01000000434104949da11cdc0ea0043a7b3323b215993a9be9828791578bf8e669431bac5b645d4a159c34e102fde755dea2f7f475cd6821a07fa308b9fb3461d3c169e9d2fb44ac00000000"
    }
  ]
}