{
  "hash": "00000000bf9c7f7b8b72d82164a9328e331581e68885d1f5003da874f23fa474",
  "confirmations": 52391,
  "height": 707,
  "version": 1,
  "versionHex": "00000001",
  "merkleroot": "56ef0aca70b659257a4bd9f74b01c5c370645a6370e06a36e831a498142fb1d9",
  "time": 1232113906,
  "mediantime": 1232110073,
  "nonce": 7512790,
  "bits": "1d00ffff",
  "difficulty": 1,
  "chainwork": "000000000000000000000000000000000000000000000000000002c402c402c4",
  "nTx": 2,
  "previousblockhash": "000000006f6709b76bed31001b32309167757007aa4fb899f8168c8e9c084b1a",
  "nextblockhash": "00000000e4f0ff6c0defc41f1b44db9519708cb667e8d07ca982f8ab473e6786",
  "strippedsize": 529,
  "size": 529,
  "weight": 2116,
  "tx": [
    {
      "txid": "eee136c1ba8f9b76f31b8d049d6e373a331f20f0b00c02395ace5156b2ccaa20",
      "hash": "eee136c1ba8f9b76f31b8d049d6e373a331f20f0b00c02395ace5156b2ccaa20",
      "version": 1,
      "size": 134,
      "vsize": 134,
      "weight": 536,
      "locktime": 0,
      "vin": [
        {
          "coinbase": "04ffff001d014e",
          "sequence": 4294967295
        }
      ],
      "vout": [
        {
          "value": 50.0,
          "n": 0,
          "scriptPubKey": {
            "asm": "04b7f45034a7478c9c741cafa2ce13621da68b8d3559cb28555040da65bf909716dab6f977d1e93902a1de95bf72d1474bcb38fafecdbbec9130f4607a09365e57 OP_CHECKSIG",
            "desc": "pk(04b7f45034a7478c9c741cafa2ce13621da68b8d3559cb28555040da65bf909716dab6f977d1e93902a1de95bf72d1474bcb38fafecdbbec9130f4607a09365e57)#v6d7pmf5",
            "hex": "4104b7f45034a7478c9c741cafa2ce13621da68b8d3559cb28555040da65bf909716dab6f977d1e93902a1de95bf72d1474bcb38fafecdbbec9130f4607a09365e57ac",
            "type": "pubkey"
          }
        }
      ],
      "hex": "01000000010000000000000000000000000000000000000000000000000000000000000000ffffffff0704ffff001d014effffffff0100f2052a01000000434104b7f45034a7478c9c741cafa2ce13621da68b8d3559cb28555040da65bf909716dab6f977d1e93902a1de95bf72d1474bcb38fafecdbbec9130f4607a09365e57ac00000000"
    },
    {
      "txid": "5439c37c4c6dad4ad93b1d5598d57f1aace9d0f68b892236da903b3f136451a1",
      "hash": "5439c37c4c6dad4ad93b1d5598d57f1aace9d0f68b892236da903b3f136451a1",
      "version": 1,
      "size": 314,
      "vsize": 314,
      "weight": 1256,
      "locktime": 0,
      "vin": [
        {
          "txid": "cfbba5a04f23049b63941e3ff5d57aa1431671281f2e3ade1a7050ffdd284377",
          "vout": 0,
          "scriptSig": {
            "asm": "30450220456c80524bf6d7c542839791067ea98afe10e1b271422808d2117469fc33a7dd0221008beb72efed006d244ab4933bb150a7f4330f2ce850b4f77f7884e4350efc03c7[ALL]",
            "hex": "4830450220456c80524bf6d7c542839791067ea98afe10e1b271422808d2117469fc33a7dd0221008beb72efed006d244ab4933bb150a7f4330f2ce850b4f77f7884e4350efc03c701"
          },
          "sequence": 4294967295
        },
        {
          "txid": "282b861e411dc3b61aa06e9e13abf49bce5c571e21a19c37f738244cee33b778",
          "vout": 0,
          "scriptSig": {
            "asm": "3045022020f0110caa1819d3338267b466b162bee8a7b955393e7a1b3ee25bc4f33b3216022100c1117a48db19917536687ebe4feea58f864b625d4ec7b506d3ef02b3ac022ac2[ALL]",
            "hex": "483045022020f0110caa1819d3338267b466b162bee8a7b955393e7a1b3ee25bc4f33b3216022100c1117a48db19917536687ebe4feea58f864b625d4ec7b506d3ef02b3ac022ac201"
          },
          "sequence": 4294967295
        }
      ],
      "vout": [
        {
          "value": 100.0,
          "n": 0,
          "scriptPubKey": {
            "asm": "042c0960594d5e48ccc8edb8a7ac622d5b542a1058257aecbf5f2e75ae8cfffeb98ac6cd8aa268a671857053c2d094725ffa2d22c5fc7872ddb6ffc8ee298a3ec9 OP_CHECKSIG",
            "desc": "pk(042c0960594d5e48ccc8edb8a7ac622d5b542a1058257aecbf5f2e75ae8cfffeb98ac6cd8aa268a671857053c2d094725ffa2d22c5fc7872ddb6ffc8ee298a3ec9)#qpsuhs4s",
            "hex": "41042c0960594d5e48ccc8edb8a7ac622d5b542a1058257aecbf5f2e75ae8cfffeb98ac6cd8aa268a671857053c2d094725ffa2d22c5fc7872ddb6ffc8ee298a3ec9ac",
            "type": "pubkey"
          }
        }
      ],
      "fee": 0.0,
      "hex": "0100000002774328ddff50701ade3a2e1f28711643a17ad5f53f1e94639b04234fa0a5bbcf00000000494830450220456c80524bf6d7c542839791067ea98afe10e1b271422808d2117469fc33a7dd0221008beb72efed006d244ab4933bb150a7f4330f2ce850b4f77f7884e4350efc03c701ffffffff78b733ee4c2438f7379ca1211e575cce9bf4ab139e6ea01ab6c31d411e862b280000000049483045022020f0110caa1819d3338267b466b162bee8a7b955393e7a1b3ee25bc4f33b3216022100c1117a48db19917536687ebe4feea58f864b625d4ec7b506d3ef02b3ac022ac201ffffffff0100e40b54020000004341042c0960594d5e48ccc8edb8a7ac622d5b542a1058257aecbf5f2e75ae8cfffeb98ac6cd8aa268a671857053c2d094725ffa2d22c5fc7872ddb6ffc8ee298a3ec9ac00000000"
    }
  ]
}