{
  "hash": "000000005c7fae2b7594b35b2aab55f1030db794bd2b2efe67376fc166399140",
  "confirmations": 49525,
  "height": 3573,
  "version": 1,
  "versionHex": "00000001",
  "merkleroot": "b6dbfa28021546a14219fac7697e56cb2760fc68fe9eaf2fb1534ad7df699a98",
  "time": 1234152354,
  "mediantime": 1234147895,
  "nonce": 35339943,
  "bits": "1d00ffff",
  "difficulty": 1,
  "chainwork": "00000000000000000000000000000000000000000000000000000df60df60df6",
  "nTx": 1,
  "previousblockhash": "00000000c541e75089314c0fdd0ea03075d482797004ddb5a7d5d6662ab56ea5",
  "nextblockhash": "00000000743db03540fa59f71cc7eca0645a4a807cc5f99cfea6fc432769e7fc",
  "strippedsize": 216,
  "size": 216,
  "weight": 864,
  "tx": [
    {
      "txid": "b6dbfa28021546a14219fac7697e56cb2760fc68fe9eaf2fb1534ad7df699a98",
      "hash": "b6dbfa28021546a14219fac7697e56cb2760fc68fe9eaf2fb1534ad7df699a98",
      "version": 1,
      "size": 135,
      "vsize": 135,
      "weight": 540,
      "locktime": 0,
      "vin": [
        {
          "coinbase": "04ffff001d02c101",
          "sequence": 4294967295
        }
      ],
      "vout": [
        {
          "value": 50.0,
          "n": 0,
          "scriptPubKey": {
            "asm": "04aa414467b62d81769fc5718f19166cbf5771c76c30039aea786d491a5835f2f72490ca4b587640c1b86348767bdb00118e4cd37d77783649baa77fb3087e14a3 OP_CHECKSIG",
            "desc": "pk(04aa414467b62d81769fc5718f19166cbf5771c76c30039aea786d491a5835f2f72490ca4b587640c1b86348767bdb00118e4cd37d77783649baa77fb3087e14a3)#2eslamzp",
            "hex": "4104aa414467b62d81769fc5718f19166cbf5771c76c30039aea786d491a5835f2f72490ca4b587640c1b86348767bdb00118e4cd37d77783649baa77fb3087e14a3ac",
            "type": "pubkey"
          }
        }
      ],
      "hex": "01000000010000000000000000000000000000000000000000000000000000000000000000ffffffff0804ffff001d02c101ffffffff0100f2052a01000000434104aa414467b62d81769fc5718f19166cbf5771c76c30039aea786d491a5835f2f72490ca4b587640c1b86348767bdb00118e4cd37d77783649baa77fb3087e14a3ac00000000"
    }
  ]
}