{
  "hash": "00000000572960eae340d22d2e3a119628896be3e29ab736f55f5f49aae42849",
  "confirmations": 43672,
  "height": 9426,
  "version": 1,
  "versionHex": "00000001",
  "merkleroot": "e4bdf5e03e05122ba1490e32b7aa965d3e48bcdab32269f44978c0bb318968de",
  "time": 1238572623,
  "mediantime": 1238569490,
  "nonce": 3537052956,
  "bits": "1d00ffff",
  "difficulty": 1,
  "chainwork": "000000000000000000000000000000000000000000000000000024d324d324d3",
  "nTx": 1,
  "previousblockhash": "0000000021fcb61d5b3cf66201f3a0efc25b7b7ee5af710c6b686a74bc28edfc",
  "nextblockhash": "000000008415f9170d9043d9a997502883062a885cb69218f4b64c06d8d4c404",
  "strippedsize": 216,
  "size": 216,
  "weight": 864,
  "tx": [
    {
      "txid": "e4bdf5e03e05122ba1490e32b7aa965d3e48bcdab32269f44978c0bb318968de",
      "hash": "e4bdf5e03e05122ba1490e32b7aa965d3e48bcdab32269f44978c0bb318968de",
      "version": 1,
      "size": 135,
      "vsize": 135,
      "weight": 540,
      "locktime": 0,
      "vin": [
        {
          "coinbase": "04ffff001d020a04",
          "sequence": 4294967295
        }
      ],
      "vout": [
        {
          "value": 50.0,
          "n": 0,
          "scriptPubKey": {
            "asm": "04546439ec44ced72c777fb11cc3d272a05200a7357ef585bd7e23b4b541263389c6df3a8bedc43ea4e1d0b56976b8e87c5ee4f554fd80e6f49c41cda945d576b9 OP_CHECKSIG",
            "desc": "pk(04546439ec44ced72c777fb11cc3d272a05200a7357ef585bd7e23b4b541263389c6df3a8bedc43ea4e1d0b56976b8e87c5ee4f554fd80e6f49c41cda945d576b9)#gkmj5k0h",
            "hex": "4104546439ec44ced72c777fb11cc3d272a05200a7357ef585bd7e23b4b541263389c6df3a8bedc43ea4e1d0b56976b8e87c5ee4f554fd80e6f49c41cda945d576b9ac",
            "type": "pubkey"
          }
        }
      ],
      "hex": "01000000010000000000000000000000000000000000000000000000000000000000000000ffffffff0804ffff001d020a04ffffffff0100f2052a01000000434104546439ec44ced72c777fb11cc3d272a05200a7357ef585bd7e23b4b541263389c6df3a8bedc43ea4e1d0b56976b8e87c5ee4f554fd80e6f49c41cda945d576b9ac00000000"
    }
  ]
}