{
  "hash": "000000000d0d23516c5efd3af4eb951603bb30b2c93884b522a318b30e918ee7",
  "confirmations": 52512,
  "height": 586,
  "version": 1,
  "versionHex": "00000001",
  "merkleroot": "197b3d968ce463aa5da7d8eeba8af35eba80ded4e4fe6808e6cc0dd1c069594d",
  "time": 1232029520,
  "mediantime": 1232024561,
  "nonce": 932288301,
  "bits": "1d00ffff",
  "difficulty": 1,
  "chainwork": "0000000000000000000000000000000000000000000000000000024b024b024b",
  "nTx": 3,
  "previousblockhash": "0000000046ff6c4f9a7224aa331c407c7e37f49434571307d6fca58695bcba38",
  "nextblockhash": "00000000fa041c4905c4eca1cc0c75204c2cd118da3ffd129c41840152038d20",
  "strippedsize": 1071,
  "size": 1071,
  "weight": 4284,
  "tx": [
    {
      "txid": "d45724bacd1480b0c94d363ebf59f844fb54e60cdfda0cd38ef67154e9d0bc43",
      "hash": "d45724bacd1480b0c94d363ebf59f844fb54e60cdfda0cd38ef67154e9d0bc43",
      "version": 1,
      "size": 135,
      "vsize": 135,
      "weight": 540,
      "locktime": 0,
      "vin": [
        {
          "coinbase": "04ffff001d025d06",
          "sequence": 4294967295
        }
      ],
      "vout": [
        {
          "value": 50.0,
          "n": 0,
          "scriptPubKey": {
            "asm": "0410daf049ef402de0b6adba8b0f7c392bcf9a6385116efc8b4143b8b7a7841e7de73b478ffe13b60c50ea01e24b4b48c24f5e0fbc5d6c8433c7ca7c3ed3ab8173 OP_CHECKSIG",
            "desc": "pk(0410daf049ef402de0b6adba8b0f7c392bcf9a6385116efc8b4143b8b7a7841e7de73b478ffe13b60c50ea01e24b4b48c24f5e0fbc5d6c8433c7ca7c3ed3ab8173)#jnrzrht8",
            "hex": "410410daf049ef402de0b6adba8b0f7c392bcf9a6385116efc8b4143b8b7a7841e7de73b478ffe13b60c50ea01e24b4b48c24f5e0fbc5d6c8433c7ca7c3ed3ab8173ac",
            "type": "pubkey"
          }
        }
      ],
      "hex": "01000000010000000000000000000000000000000000000000000000000000000000000000ffffffff0804ffff001d025d06ffffffff0100f2052a0100000043410410daf049ef402de0b6adba8b0f7c392bcf9a6385116efc8b4143b8b7a7841e7de73b478ffe13b60c50ea01e24b4b48c24f5e0fbc5d6c8433c7ca7c3ed3ab8173ac00000000"
    },
    {
      "txid": "4d6edbeb62735d45ff1565385a8b0045f066055c9425e21540ea7a8060f08bf2",
      "hash": "4d6edbeb62735d45ff1565385a8b0045f066055c9425e21540ea7a8060f08bf2",
      "version": 1,
      "size": 655,
      "vsize": 655,
      "weight": 2620,
      "locktime": 0,
      "vin": [
        {
          "txid": "c3f0bb699bcc8a4e0716de45aef74c40aabeb80f7f00b3bdb45e115ee6f5400f",
          "vout": 0,
          "scriptSig": {
            "asm": "304402201092da40af6dea8abcbeefb8586335b26d39d36be9b6c38d6c9cc18f20dd5886022045964de79a9008f68d53fc9bc58f9e30b224a1b98dbfda5c7b7b860f32c6aef1[ALL]",
            "hex": "47304402201092da40af6dea8abcbeefb8586335b26d39d36be9b6c38d6c9cc18f20dd5886022045964de79a9008f68d53fc9bc58f9e30b224a1b98dbfda5c7b7b860f32c6aef101"
          },
          "sequence": 4294967295
        },
        {
          "txid": "193b51cd0c5a44bf6593e69fea91e9ddd311f610c5c23187552e3347b275b81b",
          "vout": 0,
          "scriptSig": {
            "asm": "3045022100b0a1d0a00251c56809a5ab5d7ba6cbe68b82c9bf4f806ee39c568ae537572c840220781ce69017ec3b2d6f96ffff4d19c80c224f40c73b8c26cba4b30e7f4171579b[ALL]",
            "hex": "483045022100b0a1d0a00251c56809a5ab5d7ba6cbe68b82c9bf4f806ee39c568ae537572c840220781ce69017ec3b2d6f96ffff4d19c80c224f40c73b8c26cba4b30e7f4171579b01"
          },
          "sequence": 4294967295
        },
        {
          "txid": "b6c967d8f3a3d5fe859a12e9f385531655c2c457326845065fc3942da9e19920",
          "vout": 0,
          "scriptSig": {
            "asm": "3045022100c8e980f43c616232e2d59dce08a5edb84aaa0915ea49780a8af367330216084a02203cc2628f16f995c7aaf6104cba64971963a4e084e4fbd0b6bcf825b47a09f8e3[ALL]",
            "hex": "483045022100c8e980f43c616232e2d59dce08a5edb84aaa0915ea49780a8af367330216084a02203cc2628f16f995c7aaf6104cba64971963a4e084e4fbd0b6bcf825b47a09f8e301"
          },
          "sequence": 4294967295
        },
        {
          "txid": "a739f9909bdf50466fd746e42394fada8e245f29e6f5747fca0a70dec470b75f",
          "vout": 0,
          "scriptSig": {
            "asm": "30450220745a8d99c51f98f5c93b8d2f5f14a1f2d8cc42ff7329645681bcafe846cbf50d022100b24e31186129f3ae6cc8a226d1eda389373652a9cf2095631fcc4345067c1ff3[ALL]",
            "hex": "4830450220745a8d99c51f98f5c93b8d2f5f14a1f2d8cc42ff7329645681bcafe846cbf50d022100b24e31186129f3ae6cc8a226d1eda389373652a9cf2095631fcc4345067c1ff301"
          },
          "sequence": 4294967295
        },
        {
          "txid": "d8bb7a39f85135c14c37c8d370c97d642b907a791dd235793061e86e094c8d96",
          "vout": 0,
          "scriptSig": {
            "asm": "3045022100ca65b3f290724d6c56fc333570fa342f2477f34b2a6c93c2e2d7216d9fe9088e022077e259a29ed1f988fab2b9f2ce17a4a56a20c188cadc72bca94e06a738269665[ALL]",
            "hex": "483045022100ca65b3f290724d6c56fc333570fa342f2477f34b2a6c93c2e2d7216d9fe9088e022077e259a29ed1f988fab2b9f2ce17a4a56a20c188cadc72bca94e06a73826966501"
          },
          "sequence": 4294967295
        }
      ],
      "vout": [
        {
          "value": 250.0,
          "n": 0,
          "scriptPubKey": {
            "asm": "0497304efd3ab14d0dcbf1e901045a25f4b5dbaf576d074506fd8ded4122ba6f6bec0ed4698ce0e7928c0eaf9ddfb5387929b5d697e82e7aabebe04c10e5c87164 OP_CHECKSIG",
            "desc": "pk(0497304efd3ab14d0dcbf1e901045a25f4b5dbaf576d074506fd8ded4122ba6f6bec0ed4698ce0e7928c0eaf9ddfb5387929b5d697e82e7aabebe04c10e5c87164)#5yw69kxv",
            "hex": "410497304efd3ab14d0dcbf1e901045a25f4b5dbaf576d074506fd8ded4122ba6f6bec0ed4698ce0e7928c0eaf9ddfb5387929b5d697e82e7aabebe04c10e5c87164ac",
            "type": "pubkey"
          }
        }
      ],
      "fee": 0.0,
      "hex": "01000000050f40f5e65e115eb4bdb3007f0fb8beaa404cf7ae45de16074e8acc9b69bbf0c3000000004847304402201092da40af6dea8abcbeefb8586335b26d39d36be9b6c38d6c9cc18f20dd5886022045964de79a9008f68d53fc9bc58f9e30b224a1b98dbfda5c7b7b860f32c6aef101ffffffff1bb875b247332e558731c2c510f611d3dde991ea9fe69365bf445a0ccd513b190000000049483045022100b0a1d0a00251c56809a5ab5d7ba6cbe68b82c9bf4f806ee39c568ae537572c840220781ce69017ec3b2d6f96ffff4d19c80c224f40c73b8c26cba4b30e7f4171579b01ffffffff2099e1a92d94c35f0645683257c4c255165385f3e9129a85fed5a3f3d867c9b60000000049483045022100c8e980f43c616232e2d59dce08a5edb84aaa0915ea49780a8af367330216084a02203cc2628f16f995c7aaf6104cba64971963a4e084e4fbd0b6bcf825b47a09f8e301ffffffff5fb770c4de700aca7f74f5e6295f248edafa9423e446d76f4650df9b90f939a700000000494830450220745a8d99c51f98f5c93b8d2f5f14a1f2d8cc42ff7329645681bcafe846cbf50d022100b24e31186129f3ae6cc8a226d1eda389373652a9cf2095631fcc4345067c1ff301ffffffff968d4c096ee861307935d21d797a902b647dc970d3c8374cc13551f8397abbd80000000049483045022100ca65b3f290724d6c56fc333570fa342f2477f34b2a6c93c2e2d7216d9fe9088e022077e259a29ed1f988fab2b9f2ce17a4a56a20c188cadc72bca94e06a73826966501ffffffff0100ba1dd20500000043410497304efd3ab14d0dcbf1e901045a25f4b5dbaf576d074506fd8ded4122ba6f6bec0ed4698ce0e7928c0eaf9ddfb5387929b5d697e82e7aabebe04c10e5c87164ac00000000"
    },
    {
      "txid": "6bf363548b08aa8761e278be802a2d84b8e40daefe8150f9af7dd7b65a0de49f",
      "hash": "6bf363548b08aa8761e278be802a2d84b8e40daefe8150f9af7dd7b65a0de49f",
      "version": 1,
      "size": 200,
      "vsize": 200,
      "weight": 800,
      "locktime": 0,
      "vin": [
        {
          "txid": "e7caf9a784751643f7b71881aaf96e2b3e041950b42638b4fcfe82ff57ba260d",
          "vout": 0,
          "scriptSig": {
            "asm": "3045022024fd7345df2b2bd0e6f8416529046b7d52bda5ffdb70146bc6d72b1ba73cabcd022100ff99c03006cc8f28d92e686f0ae640d20395177f329d0a9dbd560fd2a55aeee7[ALL]",
            "hex": "483045022024fd7345df2b2bd0e6f8416529046b7d52bda5ffdb70146bc6d72b1ba73cabcd022100ff99c03006cc8f28d92e686f0ae640d20395177f329d0a9dbd560fd2a55aeee701"
          },
          "sequence": 4294967295
        }
      ],
      "vout": [
        {
          "value": 50.0,
          "n": 0,
          "scriptPubKey": {
            "asm": "04888d890e1bd84c9e2ac363a9774414a081eb805cd2c0d52e49efc7170ebf342f1cdb284a2e2eb754fc8dd4525fe0caa3d3a525214d0b504dd75376b2f63804a8 OP_CHECKSIG",
            "desc": "pk(04888d890e1bd84c9e2ac363a9774414a081eb805cd2c0d52e49efc7170ebf342f1cdb284a2e2eb754fc8dd4525fe0caa3d3a525214d0b504dd75376b2f63804a8)#kgajq599",
            "hex": "4104888d890e1bd84c9e2ac363a9774414a081eb805cd2c0d52e49efc7170ebf342f1cdb284a2e2eb754fc8dd4525fe0caa3d3a525214d0b504dd75376b2f63804a8ac",
            "type": "pubkey"
          }
        }
      ],
      "fee": 0.0,
      "hex": "01000000010d26ba57ff82fefcb43826b45019043e2b6ef9aa8118b7f743167584a7f9cae70000000049483045022024fd7345df2b2bd0e6f8416529046b7d52bda5ffdb70146bc6d72b1ba73cabcd022100ff99c03006cc8f28d92e686f0ae640d20395177f329d0a9dbd560fd2a55aeee701ffffffff0100f2052a01000000434104888d890e1bd84c9e2ac363a9774414a081eb805cd2c0d52e49efc7170ebf342f1cdb284a2e2eb754fc8dd4525fe0caa3d3a525214d0b504dd75376b2f63804a8ac00000000"
    }
  ]
}