{
  "hash": "0000000084e8e6edf4f6f6a8207243b69981580cb75aa09f856d6986aee0bfef",
  "confirmations": 47790,
  "height": 5308,
  "version": 1,
  "versionHex": "00000001",
  "merkleroot": "65c067ce0731cb1a25997eb2756715f5029048c1bdd9730a96a6fd546b802ca0",
  "time": 1235369187,
  "mediantime": 1235366576,
  "nonce": 3781151025,
  "bits": "1d00ffff",
  "difficulty": 1,
  "chainwork": "000000000000000000000000000000000000000000000000000014bd14bd14bd",
  "nTx": 1,
  "previousblockhash": "000000009ecc5f466b465b4435fabda37468ca0ea5de8ddd922cd3f75b337e5b",
  "nextblockhash": "0000000013013cd4c77776266947f1313ed4af861cff01880032c2b3f9ce6196",
  "strippedsize": 216,
  "size": 216,
  "weight": 864,
  "tx": [
    {
      "txid": "65c067ce0731cb1a25997eb2756715f5029048c1bdd9730a96a6fd546b802ca0",
      "hash": "65c067ce0731cb1a25997eb2756715f5029048c1bdd9730a96a6fd546b802ca0",
      "version": 1,
      "size": 135,
      "vsize": 135,
      "weight": 540,
      "locktime": 0,
      "vin": [
        {
          "coinbase": "04ffff001d022e02",
          "sequence": 4294967295
        }
      ],
      "vout": [
        {
          "value": 50.0,
          "n": 0,
          "scriptPubKey": {
            "asm": "04c10ce9e881efb95acb4c9879ef9216e13adba6f533f8d1696003cfa1131bac5b1eda81d1f5acc01059672e05d324b21be0e0a542daf88571b5440deec43910cd OP_CHECKSIG",
            "desc": "pk(04c10ce9e881efb95acb4c9879ef9216e13adba6f533f8d1696003cfa1131bac5b1eda81d1f5acc01059672e05d324b21be0e0a542daf88571b5440deec43910cd)#42we7vup",
            "hex": "4104c10ce9e881efb95acb4c9879ef9216e13adba6f533f8d1696003cfa1131bac5b1eda81d1f5acc01059672e05d324b21be0e0a542daf88571b5440deec43910cdac",
            "type": "pubkey"
          }
        }
      ],
      "hex": "01000000010000000000000000000000000000000000000000000000000000000000000000ffffffff0804ffff001d022e02ffffffff0100f2052a01000000434104c10ce9e881efb95acb4c9879ef9216e13adba6f533f8d1696003cfa1131bac5b1eda81d1f5acc01059672e05d324b21be0e0a542daf88571b5440deec43910cdac00000000"
    }
  ]
}