{
  "hash": "00000000f5958051f9bb3989f7445a0f3f052cf4edd882bbec5001ad2346d20c",
  "confirmations": 46881,
  "height": 6217,
  "version": 1,
  "versionHex": "00000001",
  "merkleroot": "6b0223ddc9f238341dc1e56cdead9bd9801eae3887b6bd7c80de397355ea1279",
  "time": 1236104474,
  "mediantime": 1236101705,
  "nonce": 2763601722,
  "bits": "1d00ffff",
  "difficulty": 1,
  "chainwork": "0000000000000000000000000000000000000000000000000000184a184a184a",
  "nTx": 1,
  "previousblockhash": "00000000c6e12494172cb98d60bc2cdba56bd19b7ca902351ef78280443e9f8c",
  "nextblockhash": "000000004e246d1a127ecb39813359b04b012968d590609d3dcb319e85447e24",
  "strippedsize": 216,
  "size": 216,
  "weight": 864,
  "tx": [
    {
      "txid": "6b0223ddc9f238341dc1e56cdead9bd9801eae3887b6bd7c80de397355ea1279",
      "hash": "6b0223ddc9f238341dc1e56cdead9bd9801eae3887b6bd7c80de397355ea1279",
      "version": 1,
      "size": 135,
      "vsize": 135,
      "weight": 540,
      "locktime": 0,
      "vin": [
        {
          "coinbase": "04ffff001d02c708",
          "sequence": 4294967295
        }
      ],
      "vout": [
        {
          "value": 50.0,
          "n": 0,
          "scriptPubKey": {
            "asm": "04536e9e8efa922edc31d499acaa95b1fd1a32270456820af2b0ccbda21c48f257d1b8fdb21426d0e8925f092a7e0c62cb92fdf148276aa2d9b843d03c27a2a20c OP_CHECKSIG",
            "desc": "pk(04536e9e8efa922edc31d499acaa95b1fd1a32270456820af2b0ccbda21c48f257d1b8fdb21426d0e8925f092a7e0c62cb92fdf148276aa2d9b843d03c27a2a20c)#p0xr8u2q",
            "hex": "4104536e9e8efa922edc31d499acaa95b1fd1a32270456820af2b0ccbda21c48f257d1b8fdb21426d0e8925f092a7e0c62cb92fdf148276aa2d9b843d03c27a2a20cac",
            "type": "pubkey"
          }
        }
      ],
      "hex": "01000000010000000000000000000000000000000000000000000000000000000000000000ffffffff0804ffff001d02c708ffffffff0100f2052a01000000434104536e9e8efa922edc31d499acaa95b1fd1a32270456820af2b0ccbda21c48f257d1b8fdb21426d0e8925f092a7e0c62cb92fdf148276aa2d9b843d03c27a2a20cac00000000"
    }
  ]
}