{
  "hash": "00000000d6c466cb2e74f1c18ea7caf55e410cb58a5971c7b16180ee8bf5f15a",
  "confirmations": 45918,
  "height": 7180,
  "version": 1,
  "versionHex": "00000001",
  "merkleroot": "27232ad7c7e3112f932b8a83190ee6e7de4b28cd405de337a677b7222d2f7a89",
  "time": 1236856503,
  "mediantime": 1236853400,
  "nonce": 63550781,
  "bits": "1d00ffff",
  "difficulty": 1,
  "chainwork": "00000000000000000000000000000000000000000000000000001c0d1c0d1c0d",
  "nTx": 1,
  "previousblockhash": "000000005fee4ca7eec12cfbcd1e741845b81c4fe2b8ad11c4314db1ddb1a9ab",
  "nextblockhash": "000000008ed2ec3c0472d8ee8fe6006203e00aeb19def1e71d03b1ffec214241",
  "strippedsize": 216,
  "size": 216,
  "weight": 864,
  "tx": [
    {
      "txid": "27232ad7c7e3112f932b8a83190ee6e7de4b28cd405de337a677b7222d2f7a89",
      "hash": "27232ad7c7e3112f932b8a83190ee6e7de4b28cd405de337a677b7222d2f7a89",
      "version": 1,
      "size": 135,
      "vsize": 135,
      "weight": 540,
      "locktime": 0,
      "vin": [
        {
          "coinbase": "04ffff001d026702",
          "sequence": 4294967295
        }
      ],
      "vout": [
        {
          "value": 50.0,
          "n": 0,
          "scriptPubKey": {
            "asm": "04ae1995a40a941bee3ff6433e33e123479f6aec0da64c2478b1fe879b487cadd1e78198bc79a31b9961efd20b32d9843a75807002ada7a3e5257e88eacf681a97 OP_CHECKSIG",
            "desc": "pk(04ae1995a40a941bee3ff6433e33e123479f6aec0da64c2478b1fe879b487cadd1e78198bc79a31b9961efd20b32d9843a75807002ada7a3e5257e88eacf681a97)#khwtnu9e",
            "hex": "4104ae1995a40a941bee3ff6433e33e123479f6aec0da64c2478b1fe879b487cadd1e78198bc79a31b9961efd20b32d9843a75807002ada7a3e5257e88eacf681a97ac",
            "type": "pubkey"
          }
        }
      ],
      "hex": "01000000010000000000000000000000000000000000000000000000000000000000000000ffffffff0804ffff001d026702ffffffff0100f2052a01000000434104ae1995a40a941bee3ff6433e33e123479f6aec0da64c2478b1fe879b487cadd1e78198bc79a31b9961efd20b32d9843a75807002ada7a3e5257e88eacf681a97ac00000000"
    }
  ]
}