{
  "hash": "00000000cfafc98e75705e6fc693f0f54fdae4dd304586b1474743b1f383b381",
  "confirmations": 47360,
  "height": 5738,
  "version": 1,
  "versionHex": "00000001",
  "merkleroot": "c02eac142fc0a94a3153f82e2f9a7bee4ecf859c018bfe06787f5041f5ad1522",
  "time": 1235712243,
  "mediantime": 1235709006,
  "nonce": 1802313218,
  "bits": "1d00ffff",
  "difficulty": 1,
  "chainwork": "0000000000000000000000000000000000000000000000000000166b166b166b",
  "nTx": 1,
  "previousblockhash": "00000000f1fabea7162c2ef951fc96c6eac554d1b81327681de02ce91d6b6870",
  "nextblockhash": "00000000cb46b92d09a373864a17f84a3e553ffac83858d5cbedc659f01112f2",
  "strippedsize": 216,
  "size": 216,
  "weight": 864,
  "tx": [
    {
      "txid": "c02eac142fc0a94a3153f82e2f9a7bee4ecf859c018bfe06787f5041f5ad1522",
      "hash": "c02eac142fc0a94a3153f82e2f9a7bee4ecf859c018bfe06787f5041f5ad1522",
      "version": 1,
      "size": 135,
      "vsize": 135,
      "weight": 540,
      "locktime": 0,
      "vin": [
        {
          "coinbase": "04ffff001d020f0a",
          "sequence": 4294967295
        }
      ],
      "vout": [
        {
          "value": 50.0,
          "n": 0,
          "scriptPubKey": {
            "asm": "0490a24170e922e6f3eeea94c38b35598f62491be7d322dbbe2bb92c85a976759736737dd216c139796445e781e9d60f028cd653f9032d11ca2ea8669d7c928a91 OP_CHECKSIG",
            "desc": "pk(0490a24170e922e6f3eeea94c38b35598f62491be7d322dbbe2bb92c85a976759736737dd216c139796445e781e9d60f028cd653f9032d11ca2ea8669d7c928a91)#rlm7yvjl",
            "hex": "410490a24170e922e6f3eeea94c38b35598f62491be7d322dbbe2bb92c85a976759736737dd216c139796445e781e9d60f028cd653f9032d11ca2ea8669d7c928a91ac",
            "type": "pubkey"
          }
        }
      ],
      "hex": "01000000010000000000000000000000000000000000000000000000000000000000000000ffffffff0804ffff001d020f0affffffff0100f2052a0100000043410490a24170e922e6f3eeea94c38b35598f62491be7d322dbbe2bb92c85a976759736737dd216c139796445e781e9d60f028cd653f9032d11ca2ea8669d7c928a91ac00000000"
    }
  ]
}