{
  "hash": "000000002727bdb811d6c1dc0cc2121ac07a90e37b83954eafe8ae948388aaef",
  "confirmations": 52334,
  "height": 764,
  "version": 1,
  "versionHex": "00000001",
  "merkleroot": "fdb086ee0237a3b1f85a4a5181952081f06abd8b4337f2a5b4dcaa71522bd992",
  "time": 1232162276,
  "mediantime": 1232158170,
  "nonce": 4156161586,
  "bits": "1d00ffff",
  "difficulty": 1,
  "chainwork": "000000000000000000000000000000000000000000000000000002fd02fd02fd",
  "nTx": 1,
  "previousblockhash": "0000000097e8325b37343ea6e7004b8b088602a68065cd7ada89aef6da0a3abe",
  "nextblockhash": "000000009dc6f775548971151fc86491ebc626057e9f5be06ab36421717d52bf",
  "strippedsize": 216,
  "size": 216,
  "weight": 864,
  "tx": [
    {
      "txid": "fdb086ee0237a3b1f85a4a5181952081f06abd8b4337f2a5b4dcaa71522bd992",
      "hash": "fdb086ee0237a3b1f85a4a5181952081f06abd8b4337f2a5b4dcaa71522bd992",
      "version": 1,
      "size": 135,
      "vsize": 135,
      "weight": 540,
      "locktime": 0,
      "vin": [
        {
          "coinbase": "04ffff001d02c900",
          "sequence": 4294967295
        }
      ],
      "vout": [
        {
          "value": 50.0,
          "n": 0,
          "scriptPubKey": {
            "asm": "0412c9452fbc5181b53b8fa87d7faea03cdce0a55383d8ef0d015460294612cd32e1450e54481c1c67bb6d2f85214ce51b7f9fced679ee14817c64f6aa3d7ffca7 OP_CHECKSIG",
            "desc": "pk(0412c9452fbc5181b53b8fa87d7faea03cdce0a55383d8ef0d015460294612cd32e1450e54481c1c67bb6d2f85214ce51b7f9fced679ee14817c64f6aa3d7ffca7)#tp6kw97m",
            "hex": "410412c9452fbc5181b53b8fa87d7faea03cdce0a55383d8ef0d015460294612cd32e1450e54481c1c67bb6d2f85214ce51b7f9fced679ee14817c64f6aa3d7ffca7ac",
            "type": "pubkey"
          }
        }
      ],
      "hex": "01000000010000000000000000000000000000000000000000000000000000000000000000ffffffff0804ffff001d02c900ffffffff0100f2052a0100000043410412c9452fbc5181b53b8fa87d7faea03cdce0a55383d8ef0d015460294612cd32e1450e54481c1c67bb6d2f85214ce51b7f9fced679ee14817c64f6aa3d7ffca7ac00000000"
    }
  ]
}