{
  "hash": "000000000e5d6f32d0e5e08eb45eda56f536f98066c4b45eb4b0157217868494",
  "confirmations": 49640,
  "height": 3458,
  "version": 1,
  "versionHex": "00000001",
  "merkleroot": "400ba93f3665a03605ac4072f6704496cc2b9e5b4c58fec2e6c653c0276378e7",
  "time": 1234075719,
  "mediantime": 1234073323,
  "nonce": 3745695,
  "bits": "1d00ffff",
  "difficulty": 1,
  "chainwork": "00000000000000000000000000000000000000000000000000000d830d830d83",
  "nTx": 1,
  "previousblockhash": "0000000052cad0f19276cc6aac2b056124b9c719138388c78b10f537747de0fa",
  "nextblockhash": "000000006b53f3a991ed120f781e2643f8f5a83440a266a8c8dfafd4dafd596b",
  "strippedsize": 216,
  "size": 216,
  "weight": 864,
  "tx": [
    {
      "txid": "400ba93f3665a03605ac4072f6704496cc2b9e5b4c58fec2e6c653c0276378e7",
      "hash": "400ba93f3665a03605ac4072f6704496cc2b9e5b4c58fec2e6c653c0276378e7",
      "version": 1,
      "size": 135,
      "vsize": 135,
      "weight": 540,
      "locktime": 0,
      "vin": [
        {
          "coinbase": "04ffff001d02e700",
          "sequence": 4294967295
        }
      ],
      "vout": [
        {
          "value": 50.0,
          "n": 0,
          "scriptPubKey": {
            "asm": "04a0172ed4e396d7965f34a4d8f37fe08715923a447eafd0fbb7e407ffee694ebcd336aefc4d6c8a47c1565fb5a4f9baf308bebdcfe099e9cd6c6368cc0a0d1fb0 OP_CHECKSIG",
            "desc": "pk(04a0172ed4e396d7965f34a4d8f37fe08715923a447eafd0fbb7e407ffee694ebcd336aefc4d6c8a47c1565fb5a4f9baf308bebdcfe099e9cd6c6368cc0a0d1fb0)#t4s0jstl",
            "hex": "4104a0172ed4e396d7965f34a4d8f37fe08715923a447eafd0fbb7e407ffee694ebcd336aefc4d6c8a47c1565fb5a4f9baf308bebdcfe099e9cd6c6368cc0a0d1fb0ac",
            "type": "pubkey"
          }
        }
      ],
      "hex": "01000000010000000000000000000000000000000000000000000000000000000000000000ffffffff0804ffff001d02e700ffffffff0100f2052a01000000434104a0172ed4e396d7965f34a4d8f37fe08715923a447eafd0fbb7e407ffee694ebcd336aefc4d6c8a47c1565fb5a4f9baf308bebdcfe099e9cd6c6368cc0a0d1fb0ac00000000"
    }
  ]
}