{
  "hash": "00000000333871bd7aaa5cdacffba04f16b17b060ccaeffb9977dc3aa158a5b6",
  "confirmations": 43655,
  "height": 9443,
  "version": 1,
  "versionHex": "00000001",
  "merkleroot": "8fa98a91e14dd9c979d2510cb77797a4f9f9a905510a2db836b7cc9ecd29c6ff",
  "time": 1238587016,
  "mediantime": 1238583725,
  "nonce": 3091341370,
  "bits": "1d00ffff",
  "difficulty": 1,
  "chainwork": "000000000000000000000000000000000000000000000000000024e424e424e4",
  "nTx": 1,
  "previousblockhash": "00000000142eb98f462be0b16008fb3bc58c2e77a9aee2bc278277d60df0bab2",
  "nextblockhash": "00000000eddcc4c5f55ca8e83f7b01e173b388a67c61ad4eef0b595985205074",
  "strippedsize": 216,
  "size": 216,
  "weight": 864,
  "tx": [
    {
      "txid": "8fa98a91e14dd9c979d2510cb77797a4f9f9a905510a2db836b7cc9ecd29c6ff",
      "hash": "8fa98a91e14dd9c979d2510cb77797a4f9f9a905510a2db836b7cc9ecd29c6ff",
      "version": 1,
      "size": 135,
      "vsize": 135,
      "weight": 540,
      "locktime": 0,
      "vin": [
        {
          "coinbase": "04ffff001d027e04",
          "sequence": 4294967295
        }
      ],
      "vout": [
        {
          "value": 50.0,
          "n": 0,
          "scriptPubKey": {
            "asm": "041ef2ab22147b1d3c0b0daf65ac3c8b751ce6d8a22acfa4fdb02faa83c84b609522f70db8e5c1c6cbf062c969f9ac7a812b645006e38224a5a9221f7cf8c1aa83 OP_CHECKSIG",
            "desc": "pk(041ef2ab22147b1d3c0b0daf65ac3c8b751ce6d8a22acfa4fdb02faa83c84b609522f70db8e5c1c6cbf062c969f9ac7a812b645006e38224a5a9221f7cf8c1aa83)#2a356vxf",
            "hex": "41041ef2ab22147b1d3c0b0daf65ac3c8b751ce6d8a22acfa4fdb02faa83c84b609522f70db8e5c1c6cbf062c969f9ac7a812b645006e38224a5a9221f7cf8c1aa83ac",
            "type": "pubkey"
          }
        }
      ],
      "hex": "01000000010000000000000000000000000000000000000000000000000000000000000000ffffffff0804ffff001d027e04ffffffff0100f2052a010000004341041ef2ab22147b1d3c0b0daf65ac3c8b751ce6d8a22acfa4fdb02faa83c84b609522f70db8e5c1c6cbf062c969f9ac7a812b645006e38224a5a9221f7cf8c1aa83ac00000000"
    }
  ]
}