{
  "hash": "000000002c49a539fd73c253dbcd8afaa392bb36e02863bcca3e84456e05aec8",
  "confirmations": 52011,
  "height": 115,
  "version": 1,
  "versionHex": "00000001",
  "merkleroot": "3ed59485d7b1e1ded9c35a5a098611f5ddd7c1581923de11165b759b5fc8e0a4",
  "time": 1231671963,
  "mediantime": 1231668739,
  "nonce": 2823413539,
  "bits": "1d00ffff",
  "difficulty": 1,
  "chainwork": "0000000000000000000000000000000000000000000000000000007400740074",
  "nTx": 1,
  "previousblockhash": "000000005d7dd40c24c4b6334812f48d4386c7756fb9006d6c74300837c91ebd",
  "nextblockhash": "000000007bf2805ee06ee9d6eb1197a8818e7c36e47d9fb081ce8ae1206c3c71",
  "strippedsize": 216,
  "size": 216,
  "weight": 864,
  "tx": [
    {
      "txid": "3ed59485d7b1e1ded9c35a5a098611f5ddd7c1581923de11165b759b5fc8e0a4",
      "hash": "3ed59485d7b1e1ded9c35a5a098611f5ddd7c1581923de11165b759b5fc8e0a4",
      "version": 1,
      "size": 135,
      "vsize": 135,
      "weight": 540,
      "locktime": 0,
      "vin": [
        {
          "coinbase": "04ffff001d02af00",
          "sequence": 4294967295
        }
      ],
      "vout": [
        {
          "value": 50.0,
          "n": 0,
          "scriptPubKey": {
            "asm": "047a36cf0b12caed035efce9c21f8067afb25c76f008d7f88071618691b3e1bc7be198d74a81f0e5bf37444024beb345d57d1be245cc1516eae397aeac49c02221 OP_CHECKSIG",
            "desc": "pk(047a36cf0b12caed035efce9c21f8067afb25c76f008d7f88071618691b3e1bc7be198d74a81f0e5bf37444024beb345d57d1be245cc1516eae397aeac49c02221)#p873hzrp",
            "hex": "41047a36cf0b12caed035efce9c21f8067afb25c76f008d7f88071618691b3e1bc7be198d74a81f0e5bf37444024beb345d57d1be245cc1516eae397aeac49c02221ac",
            "type": "pubkey"
          }
        }
      ],
      "hex": "01000000010000000000000000000000000000000000000000000000000000000000000000ffffffff0804ffff001d02af00ffffffff0100f2052a010000004341047a36cf0b12caed035efce9c21f8067afb25c76f008d7f88071618691b3e1bc7be198d74a81f0e5bf37444024beb345d57d1be245cc1516eae397aeac49c02221ac00000000"
    }
  ]
}