{
  "hash": "00000000e6e89b27af3ea7484fd5c7e277ce12754bec74c2718bf5fedf5058de",
  "confirmations": 47848,
  "height": 5250,
  "version": 1,
  "versionHex": "00000001",
  "merkleroot": "795a122625917a9b0371f4373da8c0ad4dd048f0d57e67bda88ba9d25513a6fd",
  "time": 1235322586,
  "mediantime": 1235319348,
  "nonce": 1915383337,
  "bits": "1d00ffff",
  "difficulty": 1,
  "chainwork": "0000000000000000000000000000000000000000000000000000148314831483",
  "nTx": 1,
  "previousblockhash": "0000000039bad54d526624a26b4d313d1af008cce73af07662b0699ddc1f26ff",
  "nextblockhash": "00000000978d4dc87fc77895f46fdd7857132863febccb784b8706819ecb4123",
  "strippedsize": 216,
  "size": 216,
  "weight": 864,
  "tx": [
    {
      "txid": "795a122625917a9b0371f4373da8c0ad4dd048f0d57e67bda88ba9d25513a6fd",
      "hash": "795a122625917a9b0371f4373da8c0ad4dd048f0d57e67bda88ba9d25513a6fd",
      "version": 1,
      "size": 135,
      "vsize": 135,
      "weight": 540,
      "locktime": 0,
      "vin": [
        {
          "coinbase": "04ffff001d022d01",
          "sequence": 4294967295
        }
      ],
      "vout": [
        {
          "value": 50.0,
          "n": 0,
          "scriptPubKey": {
            "asm": "04126ff581856d5c469f0dc41b9d17fc75c4442a7e6689403e2b475a099ea7812fb9d0d311a42b693446bba188e22da2aae11fbac60bc805355faf28e3ca75206d OP_CHECKSIG",
            "desc": "pk(04126ff581856d5c469f0dc41b9d17fc75c4442a7e6689403e2b475a099ea7812fb9d0d311a42b693446bba188e22da2aae11fbac60bc805355faf28e3ca75206d)#ze77tdkf",
            "hex": "4104126ff581856d5c469f0dc41b9d17fc75c4442a7e6689403e2b475a099ea7812fb9d0d311a42b693446bba188e22da2aae11fbac60bc805355faf28e3ca75206dac",
            "type": "pubkey"
          }
        }
      ],
      "hex": "01000000010000000000000000000000000000000000000000000000000000000000000000ffffffff0804ffff001d022d01ffffffff0100f2052a01000000434104126ff581856d5c469f0dc41b9d17fc75c4442a7e6689403e2b475a099ea7812fb9d0d311a42b693446bba188e22da2aae11fbac60bc805355faf28e3ca75206dac00000000"
    }
  ]
}