{
  "hash": "00000000d043f79aaf7c941940d42056f0709a592aa9354a2f65742078cfe33d",
  "confirmations": 49956,
  "height": 3142,
  "version": 1,
  "versionHex": "00000001",
  "merkleroot": "d471911aa46c72cbcd9a72ebc4be71cb31033e2e35a7e1098388d89e2cf3c2a9",
  "time": 1233862631,
  "mediantime": 1233860045,
  "nonce": 21853219,
  "bits": "1d00ffff",
  "difficulty": 1,
  "chainwork": "00000000000000000000000000000000000000000000000000000c470c470c47",
  "nTx": 1,
  "previousblockhash": "00000000b0ebfcf711fecc9de626c27ebb72e740d57e65353dcabd18e91bac6f",
  "nextblockhash": "0000000023b460fe30e798acb6e84814c8672e277305498f563c1eb213587b70",
  "strippedsize": 215,
  "size": 215,
  "weight": 860,
  "tx": [
    {
      "txid": "d471911aa46c72cbcd9a72ebc4be71cb31033e2e35a7e1098388d89e2cf3c2a9",
      "hash": "d471911aa46c72cbcd9a72ebc4be71cb31033e2e35a7e1098388d89e2cf3c2a9",
      "version": 1,
      "size": 134,
      "vsize": 134,
      "weight": 536,
      "locktime": 0,
      "vin": [
        {
          "coinbase": "04ffff001d0125",
          "sequence": 4294967295
        }
      ],
      "vout": [
        {
          "value": 50.0,
          "n": 0,
          "scriptPubKey": {
            "asm": "042680bdd768e49ba5e445c859a2330825c96a58d14cff84e03e78ee1d372dd7b045e6ff3fcd421d9940d1b2d5b26be439e971caf1f7ce191be64f8b3ef4235377 OP_CHECKSIG",
            "desc": "pk(042680bdd768e49ba5e445c859a2330825c96a58d14cff84e03e78ee1d372dd7b045e6ff3fcd421d9940d1b2d5b26be439e971caf1f7ce191be64f8b3ef4235377)#zd4c3de0",
            "hex": "41042680bdd768e49ba5e445c859a2330825c96a58d14cff84e03e78ee1d372dd7b045e6ff3fcd421d9940d1b2d5b26be439e971caf1f7ce191be64f8b3ef4235377ac",
            "type": "pubkey"
          }
        }
      ],
      "hex": "01000000010000000000000000000000000000000000000000000000000000000000000000ffffffff0704ffff001d0125ffffffff0100f2052a010000004341042680bdd768e49ba5e445c859a2330825c96a58d14cff84e03e78ee1d372dd7b045e6ff3fcd421d9940d1b2d5b26be439e971caf1f7ce191be64f8b3ef4235377ac00000000"
    }
  ]
}