{
  "hash": "00000000dba122187e4b66b0ef56e08dfa8b10de1b11f7024d94a83fbd03cb12",
  "confirmations": 45417,
  "height": 7681,
  "version": 1,
  "versionHex": "00000001",
  "merkleroot": "a2152f45a9fb9bf6296f1160411115c5f14d718ba83c4cefd8fff8ba2f6b348d",
  "time": 1237224519,
  "mediantime": 1237221186,
  "nonce": 158032857,
  "bits": "1d00ffff",
  "difficulty": 1,
  "chainwork": "00000000000000000000000000000000000000000000000000001e021e021e02",
  "nTx": 1,
  "previousblockhash": "00000000d4960de3fcb6a1afc2808f83d47ee1e9435dbb3c7b79d45af0130625",
  "nextblockhash": "000000002d8cad650759e8cabda86e5a6bc824d23c493950f890144672f7ad1c",
  "strippedsize": 216,
  "size": 216,
  "weight": 864,
  "tx": [
    {
      "txid": "a2152f45a9fb9bf6296f1160411115c5f14d718ba83c4cefd8fff8ba2f6b348d",
      "hash": "a2152f45a9fb9bf6296f1160411115c5f14d718ba83c4cefd8fff8ba2f6b348d",
      "version": 1,
      "size": 135,
      "vsize": 135,
      "weight": 540,
      "locktime": 0,
      "vin": [
        {
          "coinbase": "04ffff001d027202",
          "sequence": 4294967295
        }
      ],
      "vout": [
        {
          "value": 50.0,
          "n": 0,
          "scriptPubKey": {
            "asm": "04bdbb9f0c6e593040c9721cd7954236be062a4dde886c9690fd0f13f9c505a0279218ac80437b2b93458caabc4057eb3c96cdd90ffb5a8f6d1e510b576c229397 OP_CHECKSIG",
            "desc": "pk(04bdbb9f0c6e593040c9721cd7954236be062a4dde886c9690fd0f13f9c505a0279218ac80437b2b93458caabc4057eb3c96cdd90ffb5a8f6d1e510b576c229397)#245tv8vr",
            "hex": "4104bdbb9f0c6e593040c9721cd7954236be062a4dde886c9690fd0f13f9c505a0279218ac80437b2b93458caabc4057eb3c96cdd90ffb5a8f6d1e510b576c229397ac",
            "type": "pubkey"
          }
        }
      ],
      "hex": "01000000010000000000000000000000000000000000000000000000000000000000000000ffffffff0804ffff001d027202ffffffff0100f2052a01000000434104bdbb9f0c6e593040c9721cd7954236be062a4dde886c9690fd0f13f9c505a0279218ac80437b2b93458caabc4057eb3c96cdd90ffb5a8f6d1e510b576c229397ac00000000"
    }
  ]
}