{
  "hash": "0000000019db297501a3a2deb4c5d78238b677ab5fd5a15d6db94ff7861d4325",
  "confirmations": 44600,
  "height": 8498,
  "version": 1,
  "versionHex": "00000001",
  "merkleroot": "d7ff42a18975ee6669b0698ff7ec6fde2da6d4a2803d531aeb380bd04c6e1791",
  "time": 1237871634,
  "mediantime": 1237865928,
  "nonce": 1455594007,
  "bits": "1d00ffff",
  "difficulty": 1,
  "chainwork": "0000000000000000000000000000000000000000000000000000213321332133",
  "nTx": 1,
  "previousblockhash": "00000000746f6bca4d7fb62aaca814a7847937b878b6f256f63d2c569fc96de1",
  "nextblockhash": "00000000da2e3ba930cf4e8ed7a2a4f26595083ddc4e1fa56320bdc69a1b1ae2",
  "strippedsize": 216,
  "size": 216,
  "weight": 864,
  "tx": [
    {
      "txid": "d7ff42a18975ee6669b0698ff7ec6fde2da6d4a2803d531aeb380bd04c6e1791",
      "hash": "d7ff42a18975ee6669b0698ff7ec6fde2da6d4a2803d531aeb380bd04c6e1791",
      "version": 1,
      "size": 135,
      "vsize": 135,
      "weight": 540,
      "locktime": 0,
      "vin": [
        {
          "coinbase": "04ffff001d02b507",
          "sequence": 4294967295
        }
      ],
      "vout": [
        {
          "value": 50.0,
          "n": 0,
          "scriptPubKey": {
            "asm": "0422b23ac54fa3265ec275f8c0605f1b46329b316e86539331f4e3f0308e85e80494be9ee106f9e92aedddc28238cef4eee2d05cc9d087ec7da79acc64062ce8a6 OP_CHECKSIG",
            "desc": "pk(0422b23ac54fa3265ec275f8c0605f1b46329b316e86539331f4e3f0308e85e80494be9ee106f9e92aedddc28238cef4eee2d05cc9d087ec7da79acc64062ce8a6)#00766azh",
            "hex": "410422b23ac54fa3265ec275f8c0605f1b46329b316e86539331f4e3f0308e85e80494be9ee106f9e92aedddc28238cef4eee2d05cc9d087ec7da79acc64062ce8a6ac",
            "type": "pubkey"
          }
        }
      ],
      "hex": "01000000010000000000000000000000000000000000000000000000000000000000000000ffffffff0804ffff001d02b507ffffffff0100f2052a0100000043410422b23ac54fa3265ec275f8c0605f1b46329b316e86539331f4e3f0308e85e80494be9ee106f9e92aedddc28238cef4eee2d05cc9d087ec7da79acc64062ce8a6ac00000000"
    }
  ]
}