{
  "hash": "00000000ffa5e19e744552ad9cf9255de8ac6d4c03b9ed259fca020c9a071b1e",
  "confirmations": 52410,
  "height": 688,
  "version": 1,
  "versionHex": "00000001",
  "merkleroot": "0030800bdbc219ac7089af0798459a209446750f7322a212b496bdfe842184cd",
  "time": 1232098802,
  "mediantime": 1232095430,
  "nonce": 3384379957,
  "bits": "1d00ffff",
  "difficulty": 1,
  "chainwork": "000000000000000000000000000000000000000000000000000002b102b102b1",
  "nTx": 1,
  "previousblockhash": "000000006ba5f6eada01dce3194be9fa2ff777b689bce7ab37a4d5a85e591820",
  "nextblockhash": "000000004f51ff3b75ee624c32e5b1fdc911bd0c07104b00e192fd1d375fa452",
  "strippedsize": 216,
  "size": 216,
  "weight": 864,
  "tx": [
    {
      "txid": "0030800bdbc219ac7089af0798459a209446750f7322a212b496bdfe842184cd",
      "hash": "0030800bdbc219ac7089af0798459a209446750f7322a212b496bdfe842184cd",
      "version": 1,
      "size": 135,
      "vsize": 135,
      "weight": 540,
      "locktime": 0,
      "vin": [
        {
          "coinbase": "04ffff001d029800",
          "sequence": 4294967295
        }
      ],
      "vout": [
        {
          "value": 50.0,
          "n": 0,
          "scriptPubKey": {
            "asm": "045e2fe4e8b458a8fc3c75b781bcfba7f119390490cb8eeced31008ee76e4318be9e9d619fb3f419a2db7996dbcbc1565211ec426c7b4475faa40ecca032337fa5 OP_CHECKSIG",
            "desc": "pk(045e2fe4e8b458a8fc3c75b781bcfba7f119390490cb8eeced31008ee76e4318be9e9d619fb3f419a2db7996dbcbc1565211ec426c7b4475faa40ecca032337fa5)#3xyfyx3k",
            "hex": "41045e2fe4e8b458a8fc3c75b781bcfba7f119390490cb8eeced31008ee76e4318be9e9d619fb3f419a2db7996dbcbc1565211ec426c7b4475faa40ecca032337fa5ac",
            "type": "pubkey"
          }
        }
      ],
      "hex": "01000000010000000000000000000000000000000000000000000000000000000000000000ffffffff0804ffff001d029800ffffffff0100f2052a010000004341045e2fe4e8b458a8fc3c75b781bcfba7f119390490cb8eeced31008ee76e4318be9e9d619fb3f419a2db7996dbcbc1565211ec426c7b4475faa40ecca032337fa5ac00000000"
    }
  ]
}