{
  "hash": "00000000e47ee7510179985e4f2ef68c7212f3eded5df75af702ba6306bbec5a",
  "confirmations": 45096,
  "height": 8002,
  "version": 1,
  "versionHex": "00000001",
  "merkleroot": "3c5734b4d64906074e7c991de1020d220b09f8fb47b98d43949a18d68ae83d2d",
  "time": 1237462770,
  "mediantime": 1237460868,
  "nonce": 50214604,
  "bits": "1d00ffff",
  "difficulty": 1,
  "chainwork": "00000000000000000000000000000000000000000000000000001f431f431f43",
  "nTx": 1,
  "previousblockhash": "0000000072e011d1731643b13159a274aa0d4e15024d534e1f62804a018d242c",
  "nextblockhash": "00000000f75e4d0f2b7e474d9f91830870341fef36f096c018eb4bffd0449686",
  "strippedsize": 215,
  "size": 215,
  "weight": 860,
  "tx": [
    {
      "txid": "3c5734b4d64906074e7c991de1020d220b09f8fb47b98d43949a18d68ae83d2d",
      "hash": "3c5734b4d64906074e7c991de1020d220b09f8fb47b98d43949a18d68ae83d2d",
      "version": 1,
      "size": 134,
      "vsize": 134,
      "weight": 536,
      "locktime": 0,
      "vin": [
        {
          "coinbase": "04ffff001d0143",
          "sequence": 4294967295
        }
      ],
      "vout": [
        {
          "value": 50.0,
          "n": 0,
          "scriptPubKey": {
            "asm": "0403ce1bf453e308b3e059e6f06542d8e66f43eea628323284101e8d5edd1fa75feb0dac9a5e39abdf257742158cec59720895e9d29bc05b543e19077c7b2230ae OP_CHECKSIG",
            "desc": "pk(0403ce1bf453e308b3e059e6f06542d8e66f43eea628323284101e8d5edd1fa75feb0dac9a5e39abdf257742158cec59720895e9d29bc05b543e19077c7b2230ae)#qd2nhhs9",
            "hex": "410403ce1bf453e308b3e059e6f06542d8e66f43eea628323284101e8d5edd1fa75feb0dac9a5e39abdf257742158cec59720895e9d29bc05b543e19077c7b2230aeac",
            "type": "pubkey"
          }
        }
      ],
      "hex": "01000000010000000000000000000000000000000000000000000000000000000000000000ffffffff0704ffff001d0143ffffffff0100f2052a0100000043410403ce1bf453e308b3e059e6f06542d8e66f43eea628323284101e8d5edd1fa75feb0dac9a5e39abdf257742158cec59720895e9d29bc05b543e19077c7b2230aeac00000000"
    }
  ]
}