{
  "hash": "000000008cdc2b9644f029150a3da3ac27491a4c69826bb40f3bb47e5d123d2d",
  "confirmations": 48442,
  "height": 4656,
  "version": 1,
  "versionHex": "00000001",
  "merkleroot": "10b6b610f2b7f944b8506d14c0d48c2da6fee54c29b2030f94042d338d77760b",
  "time": 1234895226,
  "mediantime": 1234891688,
  "nonce": 1769230374,
  "bits": "1d00ffff",
  "difficulty": 1,
  "chainwork": "0000000000000000000000000000000000000000000000000000123112311231",
  "nTx": 1,
  "previousblockhash": "000000003571fe470db466ef0ba2e0e3dd987473054992b86c40a1914282bc96",
  "nextblockhash": "0000000001de3c526d957ec0037d88a511aebdc11b4d0851ede92116d51dc10e",
  "strippedsize": 216,
  "size": 216,
  "weight": 864,
  "tx": [
    {
      "txid": "10b6b610f2b7f944b8506d14c0d48c2da6fee54c29b2030f94042d338d77760b",
      "hash": "10b6b610f2b7f944b8506d14c0d48c2da6fee54c29b2030f94042d338d77760b",
      "version": 1,
      "size": 135,
      "vsize": 135,
      "weight": 540,
      "locktime": 0,
      "vin": [
        {
          "coinbase": "04ffff001d02d401",
          "sequence": 4294967295
        }
      ],
      "vout": [
        {
          "value": 50.0,
          "n": 0,
          "scriptPubKey": {
            "asm": "04e99de603f24b6c6dd4acc520d68d7d877e507caab5c9f621b8ac5cecca12b3153843bbbb8ae7d5c201213a7c1050f62de20e1d4e5bc8bd77b02d19471ac9d547 OP_CHECKSIG",
            "desc": "pk(04e99de603f24b6c6dd4acc520d68d7d877e507caab5c9f621b8ac5cecca12b3153843bbbb8ae7d5c201213a7c1050f62de20e1d4e5bc8bd77b02d19471ac9d547)#z8sk9ehv",
            "hex": "4104e99de603f24b6c6dd4acc520d68d7d877e507caab5c9f621b8ac5cecca12b3153843bbbb8ae7d5c201213a7c1050f62de20e1d4e5bc8bd77b02d19471ac9d547ac",
            "type": "pubkey"
          }
        }
      ],
      "hex": "01000000010000000000000000000000000000000000000000000000000000000000000000ffffffff0804ffff001d02d401ffffffff0100f2052a01000000434104e99de603f24b6c6dd4acc520d68d7d877e507caab5c9f621b8ac5cecca12b3153843bbbb8ae7d5c201213a7c1050f62de20e1d4e5bc8bd77b02d19471ac9d547ac00000000"
    }
  ]
}