{
  "hash": "000000006f3270d3817f8571e4f732bfebdacc89d4034650042ec17eab525610",
  "confirmations": 48908,
  "height": 4190,
  "version": 1,
  "versionHex": "00000001",
  "merkleroot": "55842fb950fe6ccaddbe7666617a29cf6abe53f60d5d109465bbaa50d716f6cb",
  "time": 1234573034,
  "mediantime": 1234570762,
  "nonce": 106228353,
  "bits": "1d00ffff",
  "difficulty": 1,
  "chainwork": "0000000000000000000000000000000000000000000000000000105f105f105f",
  "nTx": 1,
  "previousblockhash": "00000000691c26533547345e80f870817f594d996f5bc4ab7ed6c89fdb197131",
  "nextblockhash": "00000000dc9b7219827322a8526001a9334edff46978e967d7008e9cb22b0445",
  "strippedsize": 215,
  "size": 215,
  "weight": 860,
  "tx": [
    {
      "txid": "55842fb950fe6ccaddbe7666617a29cf6abe53f60d5d109465bbaa50d716f6cb",
      "hash": "55842fb950fe6ccaddbe7666617a29cf6abe53f60d5d109465bbaa50d716f6cb",
      "version": 1,
      "size": 134,
      "vsize": 134,
      "weight": 536,
      "locktime": 0,
      "vin": [
        {
          "coinbase": "04ffff001d010e",
          "sequence": 4294967295
        }
      ],
      "vout": [
        {
          "value": 50.0,
          "n": 0,
          "scriptPubKey": {
            "asm": "04ef614580b94584a3c212edbe050b6f4057a24cd41cad96c6d4679eeb085cf875a75e1a9cc818c0d57854e846494d87cb32d2ff69783e7b6e8580adde5938757f OP_CHECKSIG",
            "desc": "pk(04ef614580b94584a3c212edbe050b6f4057a24cd41cad96c6d4679eeb085cf875a75e1a9cc818c0d57854e846494d87cb32d2ff69783e7b6e8580adde5938757f)#zma3d7jt",
            "hex": "4104ef614580b94584a3c212edbe050b6f4057a24cd41cad96c6d4679eeb085cf875a75e1a9cc818c0d57854e846494d87cb32d2ff69783e7b6e8580adde5938757fac",
            "type": "pubkey"
          }
        }
      ],
      "hex": "01000000010000000000000000000000000000000000000000000000000000000000000000ffffffff0704ffff001d010effffffff0100f2052a01000000434104ef614580b94584a3c212edbe050b6f4057a24cd41cad96c6d4679eeb085cf875a75e1a9cc818c0d57854e846494d87cb32d2ff69783e7b6e8580adde5938757fac00000000"
    }
  ]
}