{
  "hash": "000000007f20688b2b5c654489c4d3b69196eba0129a364f89b97ae8e4cb0e33",
  "confirmations": 52187,
  "height": 489,
  "version": 1,
  "versionHex": "00000001",
  "merkleroot": "baec98f293455fb31e899fb2c5bfd290adc35e37b0083e1af067e781fdf3310c",
  "time": 1231962187,
  "mediantime": 1231958892,
  "nonce": 2687703079,
  "bits": "1d00ffff",
  "difficulty": 1,
  "chainwork": "000000000000000000000000000000000000000000000000000001ea01ea01ea",
  "nTx": 1,
  "previousblockhash": "00000000ecd04ea471aee3d438940b44fc375b10a3b71cad70abec7ff6b22938",
  "nextblockhash": "0000000020b23d4bcb733afc7c28ad9eff58e1f8108a15bfd8477cbdcb9bf3a0",
  "strippedsize": 216,
  "size": 216,
  "weight": 864,
  "tx": [
    {
      "txid": "baec98f293455fb31e899fb2c5bfd290adc35e37b0083e1af067e781fdf3310c",
      "hash": "baec98f293455fb31e899fb2c5bfd290adc35e37b0083e1af067e781fdf3310c",
      "version": 1,
      "size": 135,
      "vsize": 135,
      "weight": 540,
      "locktime": 0,
      "vin": [
        {
          "coinbase": "04ffff001d025a04",
          "sequence": 4294967295
        }
      ],
      "vout": [
        {
          "value": 50.0,
          "n": 0,
          "scriptPubKey": {
            "asm": "0406081cf6c8a2873f4358c775a1891c517bffcda5420dbc1e4fd7adbd5cbd8454a5d7bc8057fe09c98fa1560d74886d9d25cd8e8c09f22b47a55a21618fd05cb2 OP_CHECKSIG",
            "desc": "pk(0406081cf6c8a2873f4358c775a1891c517bffcda5420dbc1e4fd7adbd5cbd8454a5d7bc8057fe09c98fa1560d74886d9d25cd8e8c09f22b47a55a21618fd05cb2)#4emtjhvu",
            "hex": "410406081cf6c8a2873f4358c775a1891c517bffcda5420dbc1e4fd7adbd5cbd8454a5d7bc8057fe09c98fa1560d74886d9d25cd8e8c09f22b47a55a21618fd05cb2ac",
            "type": "pubkey"
          }
        }
      ],
      "hex": "01000000010000000000000000000000000000000000000000000000000000000000000000ffffffff0804ffff001d025a04ffffffff0100f2052a0100000043410406081cf6c8a2873f4358c775a1891c517bffcda5420dbc1e4fd7adbd5cbd8454a5d7bc8057fe09c98fa1560d74886d9d25cd8e8c09f22b47a55a21618fd05cb2ac00000000"
    }
  ]
}