{
  "hash": "00000000484f3bae55c16d61a0b40f355de3da86026348ef4edf1a32c24dc6c8",
  "confirmations": 46842,
  "height": 6256,
  "version": 1,
  "versionHex": "00000001",
  "merkleroot": "49a43206b159e0795ee0c0936bfa2b530b1f726903e8699eeb145fcebc4fc9d7",
  "time": 1236137444,
  "mediantime": 1236132911,
  "nonce": 477263660,
  "bits": "1d00ffff",
  "difficulty": 1,
  "chainwork": "0000000000000000000000000000000000000000000000000000187118711871",
  "nTx": 1,
  "previousblockhash": "00000000a08c6cbcd6c90029c8130ad54eccf7472f2abd2d3f4312624fc8d40f",
  "nextblockhash": "000000002352d625810ae3828c2e051b453e9cf73fbac54707e18d9a3127e670",
  "strippedsize": 216,
  "size": 216,
  "weight": 864,
  "tx": [
    {
      "txid": "49a43206b159e0795ee0c0936bfa2b530b1f726903e8699eeb145fcebc4fc9d7",
      "hash": "49a43206b159e0795ee0c0936bfa2b530b1f726903e8699eeb145fcebc4fc9d7",
      "version": 1,
      "size": 135,
      "vsize": 135,
      "weight": 540,
      "locktime": 0,
      "vin": [
        {
          "coinbase": "04ffff001d02b209",
          "sequence": 4294967295
        }
      ],
      "vout": [
        {
          "value": 50.0,
          "n": 0,
          "scriptPubKey": {
            "asm": "0449184862a2980abe868d62f5db6866afe511d5064857a11c96450e7c8520cc467f8d7d5b496ff006fad8c02d70e1a93707ce014954b32f736ebfa527b5bbf00a OP_CHECKSIG",
            "desc": "pk(0449184862a2980abe868d62f5db6866afe511d5064857a11c96450e7c8520cc467f8d7d5b496ff006fad8c02d70e1a93707ce014954b32f736ebfa527b5bbf00a)#7d4ez460",
            "hex": "410449184862a2980abe868d62f5db6866afe511d5064857a11c96450e7c8520cc467f8d7d5b496ff006fad8c02d70e1a93707ce014954b32f736ebfa527b5bbf00aac",
            "type": "pubkey"
          }
        }
      ],
      "hex": "01000000010000000000000000000000000000000000000000000000000000000000000000ffffffff0804ffff001d02b209ffffffff0100f2052a0100000043410449184862a2980abe868d62f5db6866afe511d5064857a11c96450e7c8520cc467f8d7d5b496ff006fad8c02d70e1a93707ce014954b32f736ebfa527b5bbf00aac00000000"
    }
  ]
}