{
  "hash": "00000000eb3e381ed39e7eeea17eb4a347719958ed9b392ce0405198d7fb949b",
  "confirmations": 50479,
  "height": 2619,
  "version": 1,
  "versionHex": "00000001",
  "merkleroot": "71b2ad938fa64e2bf458477ab267300cc5edf5bc27049190ad8f5cd03fa9fd0e",
  "time": 1233507653,
  "mediantime": 1233503197,
  "nonce": 2008589359,
  "bits": "1d00ffff",
  "difficulty": 1,
  "chainwork": "00000000000000000000000000000000000000000000000000000a3c0a3c0a3c",
  "nTx": 1,
  "previousblockhash": "00000000350193a2ce1f3758e0369f02b54d41cb077525f6cb155dcd13cdb9db",
  "nextblockhash": "000000000f39c341df325173430f32af8912a446b53dbbc9d1e2a93d860aa773",
  "strippedsize": 216,
  "size": 216,
  "weight": 864,
  "tx": [
    {
      "txid": "71b2ad938fa64e2bf458477ab267300cc5edf5bc27049190ad8f5cd03fa9fd0e",
      "hash": "71b2ad938fa64e2bf458477ab267300cc5edf5bc27049190ad8f5cd03fa9fd0e",
      "version": 1,
      "size": 135,
      "vsize": 135,
      "weight": 540,
      "locktime": 0,
      "vin": [
        {
          "coinbase": "04ffff001d025c03",
          "sequence": 4294967295
        }
      ],
      "vout": [
        {
          "value": 50.0,
          "n": 0,
          "scriptPubKey": {
            "asm": "04103fc4d2284a9f6c00e78280f10db34060893511b7e2834c74f5d92d0459258fb8a082253281c6a45262e1058ac693440b2a5182eb6212663ceb117eb96893d6 OP_CHECKSIG",
            "desc": "pk(04103fc4d2284a9f6c00e78280f10db34060893511b7e2834c74f5d92d0459258fb8a082253281c6a45262e1058ac693440b2a5182eb6212663ceb117eb96893d6)#fezc45t5",
            "hex": "4104103fc4d2284a9f6c00e78280f10db34060893511b7e2834c74f5d92d0459258fb8a082253281c6a45262e1058ac693440b2a5182eb6212663ceb117eb96893d6ac",
            "type": "pubkey"
          }
        }
      ],
      "hex": "01000000010000000000000000000000000000000000000000000000000000000000000000ffffffff0804ffff001d025c03ffffffff0100f2052a01000000434104103fc4d2284a9f6c00e78280f10db34060893511b7e2834c74f5d92d0459258fb8a082253281c6a45262e1058ac693440b2a5182eb6212663ceb117eb96893d6ac00000000"
    }
  ]
}