{
  "hash": "00000000ef95513c5ad9c9eec8b9a2d9676d5d9b825e46c5a3a1be8c6de25f78",
  "confirmations": 50207,
  "height": 2891,
  "version": 1,
  "versionHex": "00000001",
  "merkleroot": "10b3d4bab607603e0edcf2c85468e1ff3594f02101a8ca10c19eed8e8b5db1ba",
  "time": 1233686355,
  "mediantime": 1233681331,
  "nonce": 138916293,
  "bits": "1d00ffff",
  "difficulty": 1,
  "chainwork": "00000000000000000000000000000000000000000000000000000b4c0b4c0b4c",
  "nTx": 1,
  "previousblockhash": "00000000942b4a56b8fb720816d5cb9fa59913e1fa8733622e8a79b4480cd292",
  "nextblockhash": "0000000084643dd55c0eb44772299bcae8487874840036a9b45b5807e24f6a3d",
  "strippedsize": 216,
  "size": 216,
  "weight": 864,
  "tx": [
    {
      "txid": "10b3d4bab607603e0edcf2c85468e1ff3594f02101a8ca10c19eed8e8b5db1ba",
      "hash": "10b3d4bab607603e0edcf2c85468e1ff3594f02101a8ca10c19eed8e8b5db1ba",
      "version": 1,
      "size": 135,
      "vsize": 135,
      "weight": 540,
      "locktime": 0,
      "vin": [
        {
          "coinbase": "04ffff001d02de00",
          "sequence": 4294967295
        }
      ],
      "vout": [
        {
          "value": 50.0,
          "n": 0,
          "scriptPubKey": {
            "asm": "04ea77a9facabffa79411376c168b87687ecbf40ed25c6e7bd062835c15895f9f742f45d723b9fb6de2227b2fb43142f974154f437aa5c8c3063f5aa70f14f7b5b OP_CHECKSIG",
            "desc": "pk(04ea77a9facabffa79411376c168b87687ecbf40ed25c6e7bd062835c15895f9f742f45d723b9fb6de2227b2fb43142f974154f437aa5c8c3063f5aa70f14f7b5b)#22e0fnfw",
            "hex": "4104ea77a9facabffa79411376c168b87687ecbf40ed25c6e7bd062835c15895f9f742f45d723b9fb6de2227b2fb43142f974154f437aa5c8c3063f5aa70f14f7b5bac",
            "type": "pubkey"
          }
        }
      ],
      "hex": "01000000010000000000000000000000000000000000000000000000000000000000000000ffffffff0804ffff001d02de00ffffffff0100f2052a01000000434104ea77a9facabffa79411376c168b87687ecbf40ed25c6e7bd062835c15895f9f742f45d723b9fb6de2227b2fb43142f974154f437aa5c8c3063f5aa70f14f7b5bac00000000"
    }
  ]
}