{
  "hash": "000000009e381ed636487a82f3b47f9571b78f332b6beac4b3e60927d3abc629",
  "confirmations": 46428,
  "height": 6670,
  "version": 1,
  "versionHex": "00000001",
  "merkleroot": "5af4144351a4fb8eaebe092edfd44bba6e78aeb98e8361844e500afdcd5a5261",
  "time": 1236459632,
  "mediantime": 1236456033,
  "nonce": 3109184048,
  "bits": "1d00ffff",
  "difficulty": 1,
  "chainwork": "00000000000000000000000000000000000000000000000000001a0f1a0f1a0f",
  "nTx": 1,
  "previousblockhash": "000000005ccc739a2b7eb7f987ebbda68cc40dd28d53700f658f89ff8072cf11",
  "nextblockhash": "00000000927c52403ce3746ae9c8b6177e1a1de36cfdbfc8631693a1cdfb5e17",
  "strippedsize": 216,
  "size": 216,
  "weight": 864,
  "tx": [
    {
      "txid": "5af4144351a4fb8eaebe092edfd44bba6e78aeb98e8361844e500afdcd5a5261",
      "hash": "5af4144351a4fb8eaebe092edfd44bba6e78aeb98e8361844e500afdcd5a5261",
      "version": 1,
      "size": 135,
      "vsize": 135,
      "weight": 540,
      "locktime": 0,
      "vin": [
        {
          "coinbase": "04ffff001d026c06",
          "sequence": 4294967295
        }
      ],
      "vout": [
        {
          "value": 50.0,
          "n": 0,
          "scriptPubKey": {
            "asm": "041a1856418277a4e3efccbdcd206433735ddcce8fd2fa88f01cabdc90964274f1e3bf4c3966a0d07a2e1b794959110b30e6851a462624dc7107d9908a8c036ad2 OP_CHECKSIG",
            "desc": "pk(041a1856418277a4e3efccbdcd206433735ddcce8fd2fa88f01cabdc90964274f1e3bf4c3966a0d07a2e1b794959110b30e6851a462624dc7107d9908a8c036ad2)#mh8rhafs",
            "hex": "41041a1856418277a4e3efccbdcd206433735ddcce8fd2fa88f01cabdc90964274f1e3bf4c3966a0d07a2e1b794959110b30e6851a462624dc7107d9908a8c036ad2ac",
            "type": "pubkey"
          }
        }
      ],
      "hex": "01000000010000000000000000000000000000000000000000000000000000000000000000ffffffff0804ffff001d026c06ffffffff0100f2052a010000004341041a1856418277a4e3efccbdcd206433735ddcce8fd2fa88f01cabdc90964274f1e3bf4c3966a0d07a2e1b794959110b30e6851a462624dc7107d9908a8c036ad2ac00000000"
    }
  ]
}