{
  "hash": "00000000f9f4a155d9b911c01b3ae6f10a02ce3a0aa16946be72dfd5acbb6192",
  "confirmations": 44569,
  "height": 8529,
  "version": 1,
  "versionHex": "00000001",
  "merkleroot": "431eb357a5404717db995c6f1fb2b52594d2212be6b46bdb9005018f3b789f66",
  "time": 1237896244,
  "mediantime": 1237892248,
  "nonce": 50662862,
  "bits": "1d00ffff",
  "difficulty": 1,
  "chainwork": "0000000000000000000000000000000000000000000000000000215221522152",
  "nTx": 1,
  "previousblockhash": "00000000e8ef29ff44603ced8534398e1b5d9ff169e5f21d0036bbda3542e24a",
  "nextblockhash": "0000000033007eebe850fce87336cb64f5a8452462336837a99e020eb356b87a",
  "strippedsize": 216,
  "size": 216,
  "weight": 864,
  "tx": [
    {
      "txid": "431eb357a5404717db995c6f1fb2b52594d2212be6b46bdb9005018f3b789f66",
      "hash": "431eb357a5404717db995c6f1fb2b52594d2212be6b46bdb9005018f3b789f66",
      "version": 1,
      "size": 135,
      "vsize": 135,
      "weight": 540,
      "locktime": 0,
      "vin": [
        {
          "coinbase": "04ffff001d02d700",
          "sequence": 4294967295
        }
      ],
      "vout": [
        {
          "value": 50.0,
          "n": 0,
          "scriptPubKey": {
            "asm": "04f7e66892ff362c4a29a2a5779421f2bc862ece9c6f2ae66eca19373a1204a1314bdffb7e8d761d5fdc4036c440d6bad8bbaf206ae5f4a2975c0c5d6acc82f2bb OP_CHECKSIG",
            "desc": "pk(04f7e66892ff362c4a29a2a5779421f2bc862ece9c6f2ae66eca19373a1204a1314bdffb7e8d761d5fdc4036c440d6bad8bbaf206ae5f4a2975c0c5d6acc82f2bb)#xv23l83t",
            "hex": "4104f7e66892ff362c4a29a2a5779421f2bc862ece9c6f2ae66eca19373a1204a1314bdffb7e8d761d5fdc4036c440d6bad8bbaf206ae5f4a2975c0c5d6acc82f2bbac",
            "type": "pubkey"
          }
        }
      ],
      "hex": "01000000010000000000000000000000000000000000000000000000000000000000000000ffffffff0804ffff001d02d700ffffffff0100f2052a01000000434104f7e66892ff362c4a29a2a5779421f2bc862ece9c6f2ae66eca19373a1204a1314bdffb7e8d761d5fdc4036c440d6bad8bbaf206ae5f4a2975c0c5d6acc82f2bbac00000000"
    }
  ]
}