{
  "hash": "000000009cde9cde5c331b51a8166b8e0ff9dabc4d8cc1c0afb81c7ead6e1ad2",
  "confirmations": 45669,
  "height": 7429,
  "version": 1,
  "versionHex": "00000001",
  "merkleroot": "61b918e860a05525f5c3b2f42812b6de2ee1759178c9a041099ad712b51b3872",
  "time": 1237044876,
  "mediantime": 1237041055,
  "nonce": 59739909,
  "bits": "1d00ffff",
  "difficulty": 1,
  "chainwork": "00000000000000000000000000000000000000000000000000001d061d061d06",
  "nTx": 1,
  "previousblockhash": "0000000095aec581cb9903f935c4da8edc78cd194824cc34077e4d1ef822f3bf",
  "nextblockhash": "000000005addc3c13a441ba0532387a240907929a1029cd3553efee30acb9880",
  "strippedsize": 216,
  "size": 216,
  "weight": 864,
  "tx": [
    {
      "txid": "61b918e860a05525f5c3b2f42812b6de2ee1759178c9a041099ad712b51b3872",
      "hash": "61b918e860a05525f5c3b2f42812b6de2ee1759178c9a041099ad712b51b3872",
      "version": 1,
      "size": 135,
      "vsize": 135,
      "weight": 540,
      "locktime": 0,
      "vin": [
        {
          "coinbase": "04ffff001d02b507",
          "sequence": 4294967295
        }
      ],
      "vout": [
        {
          "value": 50.0,
          "n": 0,
          "scriptPubKey": {
            "asm": "0452706428ba207af2584252405c0ca4054e4134d5758e1f668d8a3850422cf6f9c35f8724185c0733ffd52edfc5212c4a65f4059009ec02df7920a3e98cf1bdde OP_CHECKSIG",
            "desc": "pk(0452706428ba207af2584252405c0ca4054e4134d5758e1f668d8a3850422cf6f9c35f8724185c0733ffd52edfc5212c4a65f4059009ec02df7920a3e98cf1bdde)#kyguee2q",
            "hex": "410452706428ba207af2584252405c0ca4054e4134d5758e1f668d8a3850422cf6f9c35f8724185c0733ffd52edfc5212c4a65f4059009ec02df7920a3e98cf1bddeac",
            "type": "pubkey"
          }
        }
      ],
      "hex": "01000000010000000000000000000000000000000000000000000000000000000000000000ffffffff0804ffff001d02b507ffffffff0100f2052a0100000043410452706428ba207af2584252405c0ca4054e4134d5758e1f668d8a3850422cf6f9c35f8724185c0733ffd52edfc5212c4a65f4059009ec02df7920a3e98cf1bddeac00000000"
    }
  ]
}