{
  "hash": "000000005a9badf2cdd1e57a1dc8ed30ecad795976af5788f4deda3b5b2b632e",
  "confirmations": 47087,
  "height": 6011,
  "version": 1,
  "versionHex": "00000001",
  "merkleroot": "d132e2ecda7acfb840b8b01ff9811e7d089eb54ed9d9f22d1cdbcb7ff3f12060",
  "time": 1235934927,
  "mediantime": 1235930903,
  "nonce": 4062223142,
  "bits": "1d00ffff",
  "difficulty": 1,
  "chainwork": "0000000000000000000000000000000000000000000000000000177c177c177c",
  "nTx": 1,
  "previousblockhash": "000000002d099cb0497257d14889b8291cf70642f41d3c4784e15d16b65dd961",
  "nextblockhash": "00000000443d8d4d473d8275ca2e568501a346eb92a0e20577fcde95dcc2bc86",
  "strippedsize": 216,
  "size": 216,
  "weight": 864,
  "tx": [
    {
      "txid": "d132e2ecda7acfb840b8b01ff9811e7d089eb54ed9d9f22d1cdbcb7ff3f12060",
      "hash": "d132e2ecda7acfb840b8b01ff9811e7d089eb54ed9d9f22d1cdbcb7ff3f12060",
      "version": 1,
      "size": 135,
      "vsize": 135,
      "weight": 540,
      "locktime": 0,
      "vin": [
        {
          "coinbase": "04ffff001d021805",
          "sequence": 4294967295
        }
      ],
      "vout": [
        {
          "value": 50.0,
          "n": 0,
          "scriptPubKey": {
            "asm": "0478a1892654d722cdb22fb75c2c8d0c71126930393968be72b4d4cd484b5d348d7b783054fc3d7ed18f5af2c3a254b88fc865f7d32443a4b3e1b751ff4a20bab3 OP_CHECKSIG",
            "desc": "pk(0478a1892654d722cdb22fb75c2c8d0c71126930393968be72b4d4cd484b5d348d7b783054fc3d7ed18f5af2c3a254b88fc865f7d32443a4b3e1b751ff4a20bab3)#zjhtksrl",
            "hex": "410478a1892654d722cdb22fb75c2c8d0c71126930393968be72b4d4cd484b5d348d7b783054fc3d7ed18f5af2c3a254b88fc865f7d32443a4b3e1b751ff4a20bab3ac",
            "type": "pubkey"
          }
        }
      ],
      "hex": "01000000010000000000000000000000000000000000000000000000000000000000000000ffffffff0804ffff001d021805ffffffff0100f2052a0100000043410478a1892654d722cdb22fb75c2c8d0c71126930393968be72b4d4cd484b5d348d7b783054fc3d7ed18f5af2c3a254b88fc865f7d32443a4b3e1b751ff4a20bab3ac00000000"
    }
  ]
}