{
  "hash": "000000007bc6bf48f2d5134ef450b56bbf30b042f3234279550f8568705cab09",
  "confirmations": 49418,
  "height": 3680,
  "version": 1,
  "versionHex": "00000001",
  "merkleroot": "e5d109814149b0043e9c01dc87c0d4a8fd519c053b8ea0356eac5a0fb1d65817",
  "time": 1234221701,
  "mediantime": 1234218159,
  "nonce": 2279160365,
  "bits": "1d00ffff",
  "difficulty": 1,
  "chainwork": "00000000000000000000000000000000000000000000000000000e610e610e61",
  "nTx": 1,
  "previousblockhash": "0000000074cd80cc346e6e5ce4c153042423cd07a452959040210b06e8c286fe",
  "nextblockhash": "000000007f4df2938477dbaba0f584c6d90499c6c826e253de64cd8400d3946a",
  "strippedsize": 216,
  "size": 216,
  "weight": 864,
  "tx": [
    {
      "txid": "e5d109814149b0043e9c01dc87c0d4a8fd519c053b8ea0356eac5a0fb1d65817",
      "hash": "e5d109814149b0043e9c01dc87c0d4a8fd519c053b8ea0356eac5a0fb1d65817",
      "version": 1,
      "size": 135,
      "vsize": 135,
      "weight": 540,
      "locktime": 0,
      "vin": [
        {
          "coinbase": "04ffff001d02d009",
          "sequence": 4294967295
        }
      ],
      "vout": [
        {
          "value": 50.0,
          "n": 0,
          "scriptPubKey": {
            "asm": "04e5f0f151eb1800d1b787437eea66493c8c2c6da2ba4d4709e0583daefdf5aad0e30bae87c7f33b04b0f9e5f2045853bc45be1526a31a264e1c17e75da91c18e6 OP_CHECKSIG",
            "desc": "pk(04e5f0f151eb1800d1b787437eea66493c8c2c6da2ba4d4709e0583daefdf5aad0e30bae87c7f33b04b0f9e5f2045853bc45be1526a31a264e1c17e75da91c18e6)#7ucg8zjh",
            "hex": "4104e5f0f151eb1800d1b787437eea66493c8c2c6da2ba4d4709e0583daefdf5aad0e30bae87c7f33b04b0f9e5f2045853bc45be1526a31a264e1c17e75da91c18e6ac",
            "type": "pubkey"
          }
        }
      ],
      "hex": "01000000010000000000000000000000000000000000000000000000000000000000000000ffffffff0804ffff001d02d009ffffffff0100f2052a01000000434104e5f0f151eb1800d1b787437eea66493c8c2c6da2ba4d4709e0583daefdf5aad0e30bae87c7f33b04b0f9e5f2045853bc45be1526a31a264e1c17e75da91c18e6ac00000000"
    }
  ]
}