{
  "hash": "00000000757a306d33e554ced26a05c31c7c9e845dda17c4d316160e29a86fa3",
  "confirmations": 45705,
  "height": 7393,
  "version": 1,
  "versionHex": "00000001",
  "merkleroot": "1fa3a340dd4f0c4e6213baacc4920f364e87277f27ef3f33c31b39fca5572146",
  "time": 1237017665,
  "mediantime": 1237012227,
  "nonce": 148608297,
  "bits": "1d00ffff",
  "difficulty": 1,
  "chainwork": "00000000000000000000000000000000000000000000000000001ce21ce21ce2",
  "nTx": 1,
  "previousblockhash": "000000008df9aba1fa38aa5f0e6de72505e3eedc41e64eb3f3bbeebbdb298122",
  "nextblockhash": "00000000cbf4c042e284afff2148447817937c71e378bd3aa2e13778ed4bc6de",
  "strippedsize": 216,
  "size": 216,
  "weight": 864,
  "tx": [
    {
      "txid": "1fa3a340dd4f0c4e6213baacc4920f364e87277f27ef3f33c31b39fca5572146",
      "hash": "1fa3a340dd4f0c4e6213baacc4920f364e87277f27ef3f33c31b39fca5572146",
      "version": 1,
      "size": 135,
      "vsize": 135,
      "weight": 540,
      "locktime": 0,
      "vin": [
        {
          "coinbase": "04ffff001d029107",
          "sequence": 4294967295
        }
      ],
      "vout": [
        {
          "value": 50.0,
          "n": 0,
          "scriptPubKey": {
            "asm": "04ca73793f47d41158e392769e46f9dec37ba473599639c2b15207ada4d2f2449b45b1a3923e2e770298e01a9b009117e3cfe200e4fb2504e4362f516c32fc7904 OP_CHECKSIG",
            "desc": "pk(04ca73793f47d41158e392769e46f9dec37ba473599639c2b15207ada4d2f2449b45b1a3923e2e770298e01a9b009117e3cfe200e4fb2504e4362f516c32fc7904)#99au9wqw",
            "hex": "4104ca73793f47d41158e392769e46f9dec37ba473599639c2b15207ada4d2f2449b45b1a3923e2e770298e01a9b009117e3cfe200e4fb2504e4362f516c32fc7904ac",
            "type": "pubkey"
          }
        }
      ],
      "hex": "01000000010000000000000000000000000000000000000000000000000000000000000000ffffffff0804ffff001d029107ffffffff0100f2052a01000000434104ca73793f47d41158e392769e46f9dec37ba473599639c2b15207ada4d2f2449b45b1a3923e2e770298e01a9b009117e3cfe200e4fb2504e4362f516c32fc7904ac00000000"
    }
  ]
}