{
  "hash": "00000000d61b82fd6ed1423a19824a9b7dad03adbeff0feffe06eefab3149531",
  "confirmations": 47457,
  "height": 5641,
  "version": 1,
  "versionHex": "00000001",
  "merkleroot": "09af1f934858cb6cf56224abff5b102b84419e933dada9964024b7f4818e119a",
  "time": 1235638876,
  "mediantime": 1235635125,
  "nonce": 117419008,
  "bits": "1d00ffff",
  "difficulty": 1,
  "chainwork": "0000000000000000000000000000000000000000000000000000160a160a160a",
  "nTx": 1,
  "previousblockhash": "0000000037b32f32b177ea8d09746c5b05c60005bfcc84c78ca8fb22c5269c10",
  "nextblockhash": "00000000f194a1196643a1cd4cbdfe716cf7765b49b0df73f0c76da44fad6d34",
  "strippedsize": 216,
  "size": 216,
  "weight": 864,
  "tx": [
    {
      "txid": "09af1f934858cb6cf56224abff5b102b84419e933dada9964024b7f4818e119a",
      "hash": "09af1f934858cb6cf56224abff5b102b84419e933dada9964024b7f4818e119a",
      "version": 1,
      "size": 135,
      "vsize": 135,
      "weight": 540,
      "locktime": 0,
      "vin": [
        {
          "coinbase": "04ffff001d027508",
          "sequence": 4294967295
        }
      ],
      "vout": [
        {
          "value": 50.0,
          "n": 0,
          "scriptPubKey": {
            "asm": "04bbdbeec6cdfc0770127ff3023c54a116f75adeedc95044bd6172f7a00a0427e0723abfb0e56393e4eac3d30e78d7572f709f9eec8868a2799027a8af81e5bbdd OP_CHECKSIG",
            "desc": "pk(04bbdbeec6cdfc0770127ff3023c54a116f75adeedc95044bd6172f7a00a0427e0723abfb0e56393e4eac3d30e78d7572f709f9eec8868a2799027a8af81e5bbdd)#sccy6dex",
            "hex": "4104bbdbeec6cdfc0770127ff3023c54a116f75adeedc95044bd6172f7a00a0427e0723abfb0e56393e4eac3d30e78d7572f709f9eec8868a2799027a8af81e5bbddac",
            "type": "pubkey"
          }
        }
      ],
      "hex": "01000000010000000000000000000000000000000000000000000000000000000000000000ffffffff0804ffff001d027508ffffffff0100f2052a01000000434104bbdbeec6cdfc0770127ff3023c54a116f75adeedc95044bd6172f7a00a0427e0723abfb0e56393e4eac3d30e78d7572f709f9eec8868a2799027a8af81e5bbddac00000000"
    }
  ]
}