{
  "hash": "00000000fe588b9409e65b74d465f36b7d792e649d3cb3bdcacaae5d3d3297d7",
  "confirmations": 46232,
  "height": 6866,
  "version": 1,
  "versionHex": "00000001",
  "merkleroot": "b433a3179cd068abfd55c1954f3554828204b4a7766892451d81ad1025d8288c",
  "time": 1236605947,
  "mediantime": 1236603463,
  "nonce": 1240942115,
  "bits": "1d00ffff",
  "difficulty": 1,
  "chainwork": "00000000000000000000000000000000000000000000000000001ad31ad31ad3",
  "nTx": 1,
  "previousblockhash": "00000000e5aafc1c3dbd73a2d90fb42b9cfbc18835c21a2e0881ddad91dda766",
  "nextblockhash": "0000000015ec638dc43499574063a1d1a8b47a47756e3608517210c7abd9b2b6",
  "strippedsize": 216,
  "size": 216,
  "weight": 864,
  "tx": [
    {
      "txid": "b433a3179cd068abfd55c1954f3554828204b4a7766892451d81ad1025d8288c",
      "hash": "b433a3179cd068abfd55c1954f3554828204b4a7766892451d81ad1025d8288c",
      "version": 1,
      "size": 135,
      "vsize": 135,
      "weight": 540,
      "locktime": 0,
      "vin": [
        {
          "coinbase": "04ffff001d02f209",
          "sequence": 4294967295
        }
      ],
      "vout": [
        {
          "value": 50.0,
          "n": 0,
          "scriptPubKey": {
            "asm": "041b07219ede88f8674888824552b668daa4f044bb294fd5adb52186ab3b14d4486a96fe02177b72150269cba02ddd6e82ce9cc5b53e8876154fb0d6a94a932c6b OP_CHECKSIG",
            "desc": "pk(041b07219ede88f8674888824552b668daa4f044bb294fd5adb52186ab3b14d4486a96fe02177b72150269cba02ddd6e82ce9cc5b53e8876154fb0d6a94a932c6b)#hkpcjrvg",
            "hex": "41041b07219ede88f8674888824552b668daa4f044bb294fd5adb52186ab3b14d4486a96fe02177b72150269cba02ddd6e82ce9cc5b53e8876154fb0d6a94a932c6bac",
            "type": "pubkey"
          }
        }
      ],
      "hex": "01000000010000000000000000000000000000000000000000000000000000000000000000ffffffff0804ffff001d02f209ffffffff0100f2052a010000004341041b07219ede88f8674888824552b668daa4f044bb294fd5adb52186ab3b14d4486a96fe02177b72150269cba02ddd6e82ce9cc5b53e8876154fb0d6a94a932c6bac00000000"
    }
  ]
}