{
  "hash": "000000006e7289e97a4e7328ad4d23d5d2d3e301a2bf5ffe01867d7578cb3f8a",
  "confirmations": 48034,
  "height": 5064,
  "version": 1,
  "versionHex": "00000001",
  "merkleroot": "6096d1bb9edb1c1746b56c9597018c6bc4075991c961e0f4a063edd82fdef6da",
  "time": 1235188223,
  "mediantime": 1235183552,
  "nonce": 433297690,
  "bits": "1d00ffff",
  "difficulty": 1,
  "chainwork": "000000000000000000000000000000000000000000000000000013c913c913c9",
  "nTx": 1,
  "previousblockhash": "0000000096c0d938872c42fbfcb01d44f76535701e4c354d5c3f7345b004e3f6",
  "nextblockhash": "00000000e73bb66186646ccbdaa1a8348846b14e9bdb1a1bcfc5c1a5a1bf875d",
  "strippedsize": 216,
  "size": 216,
  "weight": 864,
  "tx": [
    {
      "txid": "6096d1bb9edb1c1746b56c9597018c6bc4075991c961e0f4a063edd82fdef6da",
      "hash": "6096d1bb9edb1c1746b56c9597018c6bc4075991c961e0f4a063edd82fdef6da",
      "version": 1,
      "size": 135,
      "vsize": 135,
      "weight": 540,
      "locktime": 0,
      "vin": [
        {
          "coinbase": "04ffff001d022908",
          "sequence": 4294967295
        }
      ],
      "vout": [
        {
          "value": 50.0,
          "n": 0,
          "scriptPubKey": {
            "asm": "040497116a9f2da3a3c5c224a81b4137b4145e1be6361c2efe7979144f5e7c258186cad8dd2155b10fc9e57d8cf0551f41da8e633c2ee97b7b4d2097c412646820 OP_CHECKSIG",
            "desc": "pk(040497116a9f2da3a3c5c224a81b4137b4145e1be6361c2efe7979144f5e7c258186cad8dd2155b10fc9e57d8cf0551f41da8e633c2ee97b7b4d2097c412646820)#48qfkkxn",
            "hex": "41040497116a9f2da3a3c5c224a81b4137b4145e1be6361c2efe7979144f5e7c258186cad8dd2155b10fc9e57d8cf0551f41da8e633c2ee97b7b4d2097c412646820ac",
            "type": "pubkey"
          }
        }
      ],
      "hex": "01000000010000000000000000000000000000000000000000000000000000000000000000ffffffff0804ffff001d022908ffffffff0100f2052a010000004341040497116a9f2da3a3c5c224a81b4137b4145e1be6361c2efe7979144f5e7c258186cad8dd2155b10fc9e57d8cf0551f41da8e633c2ee97b7b4d2097c412646820ac00000000"
    }
  ]
}