{
  "hash": "0000000054de543828fb973ecf9302291426f1e99189b03c97f618f79eebf4b3",
  "confirmations": 52069,
  "height": 266,
  "version": 1,
  "versionHex": "00000001",
  "merkleroot": "06271e4f803593c477b084788e9d98bd5e3a17389a107de4e2f7ef37afc30010",
  "time": 1231806170,
  "mediantime": 1231803223,
  "nonce": 38500562,
  "bits": "1d00ffff",
  "difficulty": 1,
  "chainwork": "0000000000000000000000000000000000000000000000000000010b010b010b",
  "nTx": 1,
  "previousblockhash": "000000001cd3ea335cdf6fbffe7fa954f761d16ff19893f04465916a3f5f5dc3",
  "nextblockhash": "0000000007e162784d52a035bfebf67d0b73813c09e2e23e6710fa237b301f0f",
  "strippedsize": 215,
  "size": 215,
  "weight": 860,
  "tx": [
    {
      "txid": "06271e4f803593c477b084788e9d98bd5e3a17389a107de4e2f7ef37afc30010",
      "hash": "06271e4f803593c477b084788e9d98bd5e3a17389a107de4e2f7ef37afc30010",
      "version": 1,
      "size": 134,
      "vsize": 134,
      "weight": 536,
      "locktime": 0,
      "vin": [
        {
          "coinbase": "04ffff001d0125",
          "sequence": 4294967295
        }
      ],
      "vout": [
        {
          "value": 50.0,
          "n": 0,
          "scriptPubKey": {
            "asm": "04f891112435449a22336d9502173e87e6b20eac4aff8dc496658e97fa64d650d9186718bf180e41994e823f4c12cffc9524cfe64be1d5ccddf6a871678f892fa7 OP_CHECKSIG",
            "desc": "pk(04f891112435449a22336d9502173e87e6b20eac4aff8dc496658e97fa64d650d9186718bf180e41994e823f4c12cffc9524cfe64be1d5ccddf6a871678f892fa7)#9590cnrx",
            "hex": "4104f891112435449a22336d9502173e87e6b20eac4aff8dc496658e97fa64d650d9186718bf180e41994e823f4c12cffc9524cfe64be1d5ccddf6a871678f892fa7ac",
            "type": "pubkey"
          }
        }
      ],
      "hex": "01000000010000000000000000000000000000000000000000000000000000000000000000ffffffff0704ffff001d0125ffffffff0100f2052a01000000434104f891112435449a22336d9502173e87e6b20eac4aff8dc496658e97fa64d650d9186718bf180e41994e823f4c12cffc9524cfe64be1d5ccddf6a871678f892fa7ac00000000"
    }
  ]
}