{
  "hash": "000000005228ece0026fd6d775ca17dbd74fcd7dfe061b0b4072cfe2c58c577b",
  "confirmations": 46307,
  "height": 6791,
  "version": 1,
  "versionHex": "00000001",
  "merkleroot": "f18362bcf70c53825bfc99d05b82e88f235d2ad81027c59bd059bfd76a66484c",
  "time": 1236551979,
  "mediantime": 1236549563,
  "nonce": 3159085876,
  "bits": "1d00ffff",
  "difficulty": 1,
  "chainwork": "00000000000000000000000000000000000000000000000000001a881a881a88",
  "nTx": 1,
  "previousblockhash": "00000000832ac9edd5405a1fd4e417d879d17d8f344813f48f49ed725f9a5690",
  "nextblockhash": "00000000904dc5e49999f9da6536e941a754111261a9b1ac06284be8e48eb7d3",
  "strippedsize": 216,
  "size": 216,
  "weight": 864,
  "tx": [
    {
      "txid": "f18362bcf70c53825bfc99d05b82e88f235d2ad81027c59bd059bfd76a66484c",
      "hash": "f18362bcf70c53825bfc99d05b82e88f235d2ad81027c59bd059bfd76a66484c",
      "version": 1,
      "size": 135,
      "vsize": 135,
      "weight": 540,
      "locktime": 0,
      "vin": [
        {
          "coinbase": "04ffff001d02be08",
          "sequence": 4294967295
        }
      ],
      "vout": [
        {
          "value": 50.0,
          "n": 0,
          "scriptPubKey": {
            "asm": "04c5da45875eaec7b357e1d1ed02cf940cc5b0b9b1c64d62a3c51870e10a4ae4364dda39dc49861a680604fb4bae5d936bd1e33bcad43dc541b5bf380adc175fa6 OP_CHECKSIG",
            "desc": "pk(04c5da45875eaec7b357e1d1ed02cf940cc5b0b9b1c64d62a3c51870e10a4ae4364dda39dc49861a680604fb4bae5d936bd1e33bcad43dc541b5bf380adc175fa6)#chxj58dm",
            "hex": "4104c5da45875eaec7b357e1d1ed02cf940cc5b0b9b1c64d62a3c51870e10a4ae4364dda39dc49861a680604fb4bae5d936bd1e33bcad43dc541b5bf380adc175fa6ac",
            "type": "pubkey"
          }
        }
      ],
      "hex": "01000000010000000000000000000000000000000000000000000000000000000000000000ffffffff0804ffff001d02be08ffffffff0100f2052a01000000434104c5da45875eaec7b357e1d1ed02cf940cc5b0b9b1c64d62a3c51870e10a4ae4364dda39dc49861a680604fb4bae5d936bd1e33bcad43dc541b5bf380adc175fa6ac00000000"
    }
  ]
}