{
  "hash": "00000000daacbdc1415b33e4f2ea96c8ef99cb518bd234b34a2b28f5d9362a42",
  "confirmations": 51950,
  "height": 1148,
  "version": 1,
  "versionHex": "00000001",
  "merkleroot": "44507021570706e3b1ecbfb485d0cea4e34bca8c0e636e09af66534653bffe3c",
  "time": 1232458200,
  "mediantime": 1232454851,
  "nonce": 943273262,
  "bits": "1d00ffff",
  "difficulty": 1,
  "chainwork": "0000000000000000000000000000000000000000000000000000047d047d047d",
  "nTx": 1,
  "previousblockhash": "000000006490882d27c8666a6b72b4955d96e1664ff68de4631220e53c390238",
  "nextblockhash": "000000007e27fe423979067dfffce661e38264081a8b1d56bcf8d60759fdeacb",
  "strippedsize": 216,
  "size": 216,
  "weight": 864,
  "tx": [
    {
      "txid": "44507021570706e3b1ecbfb485d0cea4e34bca8c0e636e09af66534653bffe3c",
      "hash": "44507021570706e3b1ecbfb485d0cea4e34bca8c0e636e09af66534653bffe3c",
      "version": 1,
      "size": 135,
      "vsize": 135,
      "weight": 540,
      "locktime": 0,
      "vin": [
        {
          "coinbase": "04ffff001d02c807",
          "sequence": 4294967295
        }
      ],
      "vout": [
        {
          "value": 50.0,
          "n": 0,
          "scriptPubKey": {
            "asm": "045775489ddddf634622caf0183c6c1e5a65a9527aca20e0b262b307dbd2042e0f2d645f6a503e8097093e42b9215b61c6bee46c9bf156c9545b5ee6ef0a32492b OP_CHECKSIG",
            "desc": "pk(045775489ddddf634622caf0183c6c1e5a65a9527aca20e0b262b307dbd2042e0f2d645f6a503e8097093e42b9215b61c6bee46c9bf156c9545b5ee6ef0a32492b)#xxt3e9h9",
            "hex": "41045775489ddddf634622caf0183c6c1e5a65a9527aca20e0b262b307dbd2042e0f2d645f6a503e8097093e42b9215b61c6bee46c9bf156c9545b5ee6ef0a32492bac",
            "type": "pubkey"
          }
        }
      ],
      "hex": "01000000010000000000000000000000000000000000000000000000000000000000000000ffffffff0804ffff001d02c807ffffffff0100f2052a010000004341045775489ddddf634622caf0183c6c1e5a65a9527aca20e0b262b307dbd2042e0f2d645f6a503e8097093e42b9215b61c6bee46c9bf156c9545b5ee6ef0a32492bac00000000"
    }
  ]
}