{
  "hash": "0000000040250d7fff7b1e37fcd7122ea690494f3d5f47e8d311c126d09a21de",
  "confirmations": 50075,
  "height": 3023,
  "version": 1,
  "versionHex": "00000001",
  "merkleroot": "083497afe899e4f5dc1381769377bf171e9e311600545a03736b3942b3d1526f",
  "time": 1233777957,
  "mediantime": 1233774446,
  "nonce": 63894937,
  "bits": "1d00ffff",
  "difficulty": 1,
  "chainwork": "00000000000000000000000000000000000000000000000000000bd00bd00bd0",
  "nTx": 1,
  "previousblockhash": "00000000fab5fc2278a9224c4c0905b6159f6e28f0d7c43437f1eea18fb4368a",
  "nextblockhash": "00000000956918d60ba336d469e04e79113091f0c9bb465101c4c7e5d03d7d6c",
  "strippedsize": 216,
  "size": 216,
  "weight": 864,
  "tx": [
    {
      "txid": "083497afe899e4f5dc1381769377bf171e9e311600545a03736b3942b3d1526f",
      "hash": "083497afe899e4f5dc1381769377bf171e9e311600545a03736b3942b3d1526f",
      "version": 1,
      "size": 135,
      "vsize": 135,
      "weight": 540,
      "locktime": 0,
      "vin": [
        {
          "coinbase": "04ffff001d021302",
          "sequence": 4294967295
        }
      ],
      "vout": [
        {
          "value": 50.0,
          "n": 0,
          "scriptPubKey": {
            "asm": "04bd6f1f82421b459bc94b3b1dcc7fabbe403b4e819eedc92b2906faa5ce65d3e1e37a85cd6699f5630a218a00f2269cefe98092db94348109217ff5e8031a84ff OP_CHECKSIG",
            "desc": "pk(04bd6f1f82421b459bc94b3b1dcc7fabbe403b4e819eedc92b2906faa5ce65d3e1e37a85cd6699f5630a218a00f2269cefe98092db94348109217ff5e8031a84ff)#0r4cf55q",
            "hex": "4104bd6f1f82421b459bc94b3b1dcc7fabbe403b4e819eedc92b2906faa5ce65d3e1e37a85cd6699f5630a218a00f2269cefe98092db94348109217ff5e8031a84ffac",
            "type": "pubkey"
          }
        }
      ],
      "hex": "01000000010000000000000000000000000000000000000000000000000000000000000000ffffffff0804ffff001d021302ffffffff0100f2052a01000000434104bd6f1f82421b459bc94b3b1dcc7fabbe403b4e819eedc92b2906faa5ce65d3e1e37a85cd6699f5630a218a00f2269cefe98092db94348109217ff5e8031a84ffac00000000"
    }
  ]
}