{
  "hash": "00000000b113322da717207d93b13024bc75f09c1c12e7b40497664583b6d4df",
  "confirmations": 52539,
  "height": 559,
  "version": 1,
  "versionHex": "00000001",
  "merkleroot": "b1eec924ded059de5aee1609a1d66942eefcac471cc6321b55507ef70e4692b5",
  "time": 1232010280,
  "mediantime": 1232006385,
  "nonce": 3869711393,
  "bits": "1d00ffff",
  "difficulty": 1,
  "chainwork": "0000000000000000000000000000000000000000000000000000023002300230",
  "nTx": 1,
  "previousblockhash": "00000000e6940891fe89992ae41b65864936c75880e4a428221520f8783c9215",
  "nextblockhash": "00000000b5b71fea3e2abdf62fdc6b1273f48927f2a9ed5493e280792a50ad65",
  "strippedsize": 216,
  "size": 216,
  "weight": 864,
  "tx": [
    {
      "txid": "b1eec924ded059de5aee1609a1d66942eefcac471cc6321b55507ef70e4692b5",
      "hash": "b1eec924ded059de5aee1609a1d66942eefcac471cc6321b55507ef70e4692b5",
      "version": 1,
      "size": 135,
      "vsize": 135,
      "weight": 540,
      "locktime": 0,
      "vin": [
        {
          "coinbase": "04ffff001d02e705",
          "sequence": 4294967295
        }
      ],
      "vout": [
        {
          "value": 50.0,
          "n": 0,
          "scriptPubKey": {
            "asm": "048dbfe014a16451062cfc571c352095127f7f557d5eee0457f3f7f0456f60254bac8dfd4ce37cf7a40db68c9e05f85af474db905f6f731aa17cd0cb8966877331 OP_CHECKSIG",
            "desc": "pk(048dbfe014a16451062cfc571c352095127f7f557d5eee0457f3f7f0456f60254bac8dfd4ce37cf7a40db68c9e05f85af474db905f6f731aa17cd0cb8966877331)#chksnrzh",
            "hex": "41048dbfe014a16451062cfc571c352095127f7f557d5eee0457f3f7f0456f60254bac8dfd4ce37cf7a40db68c9e05f85af474db905f6f731aa17cd0cb8966877331ac",
            "type": "pubkey"
          }
        }
      ],
      "hex": "01000000010000000000000000000000000000000000000000000000000000000000000000ffffffff0804ffff001d02e705ffffffff0100f2052a010000004341048dbfe014a16451062cfc571c352095127f7f557d5eee0457f3f7f0456f60254bac8dfd4ce37cf7a40db68c9e05f85af474db905f6f731aa17cd0cb8966877331ac00000000"
    }
  ]
}