{
  "hash": "00000000f3a96763eb7e4bf1e7753bfda0641d65ae0ccc2b25ae4dfc1bd83f39",
  "confirmations": 46532,
  "height": 6566,
  "version": 1,
  "versionHex": "00000001",
  "merkleroot": "248849b0295a8b799d7605b2bbfa27118a3fe6355ae04041831d6481a6b16824",
  "time": 1236376764,
  "mediantime": 1236374614,
  "nonce": 23565670,
  "bits": "1d00ffff",
  "difficulty": 1,
  "chainwork": "000000000000000000000000000000000000000000000000000019a719a719a7",
  "nTx": 1,
  "previousblockhash": "00000000469051cee0bd7a50d086371524494b377fc40b30664bcf503860d548",
  "nextblockhash": "000000000897999f131aadbb67f87200bc24d7dc46ddd3d6ea21e1e82fb7d354",
  "strippedsize": 216,
  "size": 216,
  "weight": 864,
  "tx": [
    {
      "txid": "248849b0295a8b799d7605b2bbfa27118a3fe6355ae04041831d6481a6b16824",
      "hash": "248849b0295a8b799d7605b2bbfa27118a3fe6355ae04041831d6481a6b16824",
      "version": 1,
      "size": 135,
      "vsize": 135,
      "weight": 540,
      "locktime": 0,
      "vin": [
        {
          "coinbase": "04ffff001d029c01",
          "sequence": 4294967295
        }
      ],
      "vout": [
        {
          "value": 50.0,
          "n": 0,
          "scriptPubKey": {
            "asm": "04058c680d7462c61dd3d5678dbbb0436011db7919f8cac43e47136100fdf6fcc299a7f9f55c7b72dc61093e2b55580ea5379f2a00328e9c0be470b1d863ee5cb8 OP_CHECKSIG",
            "desc": "pk(04058c680d7462c61dd3d5678dbbb0436011db7919f8cac43e47136100fdf6fcc299a7f9f55c7b72dc61093e2b55580ea5379f2a00328e9c0be470b1d863ee5cb8)#u5adf5q6",
            "hex": "4104058c680d7462c61dd3d5678dbbb0436011db7919f8cac43e47136100fdf6fcc299a7f9f55c7b72dc61093e2b55580ea5379f2a00328e9c0be470b1d863ee5cb8ac",
            "type": "pubkey"
          }
        }
      ],
      "hex": "01000000010000000000000000000000000000000000000000000000000000000000000000ffffffff0804ffff001d029c01ffffffff0100f2052a01000000434104058c680d7462c61dd3d5678dbbb0436011db7919f8cac43e47136100fdf6fcc299a7f9f55c7b72dc61093e2b55580ea5379f2a00328e9c0be470b1d863ee5cb8ac00000000"
    }
  ]
}