{
  "hash": "00000000222004580a239ed4a744ad183c5b6506b93d368db86b72a8383bef5c",
  "confirmations": 50045,
  "height": 3053,
  "version": 1,
  "versionHex": "00000001",
  "merkleroot": "10dafa2b1857a58764d065ffd2713216a3dbd3966fec34583fe30316793d73d4",
  "time": 1233798979,
  "mediantime": 1233794163,
  "nonce": 176660316,
  "bits": "1d00ffff",
  "difficulty": 1,
  "chainwork": "00000000000000000000000000000000000000000000000000000bee0bee0bee",
  "nTx": 1,
  "previousblockhash": "0000000077748127087216f283a991031dafaaa521061cdfa5ac11f75c6088f4",
  "nextblockhash": "000000005768713cb899beee95c08ab0e13486216036fedee1df38361d65d230",
  "strippedsize": 216,
  "size": 216,
  "weight": 864,
  "tx": [
    {
      "txid": "10dafa2b1857a58764d065ffd2713216a3dbd3966fec34583fe30316793d73d4",
      "hash": "10dafa2b1857a58764d065ffd2713216a3dbd3966fec34583fe30316793d73d4",
      "version": 1,
      "size": 135,
      "vsize": 135,
      "weight": 540,
      "locktime": 0,
      "vin": [
        {
          "coinbase": "04ffff001d023102",
          "sequence": 4294967295
        }
      ],
      "vout": [
        {
          "value": 50.0,
          "n": 0,
          "scriptPubKey": {
            "asm": "0488187bc823b0b30ae8058176bf2e1686385a4181460c67529bedd28115701ceb78fd7edd8fcc0730a0dcee6a2d7714846294e6b44bd17f40f49ac3ea7db0b7c0 OP_CHECKSIG",
            "desc": "pk(0488187bc823b0b30ae8058176bf2e1686385a4181460c67529bedd28115701ceb78fd7edd8fcc0730a0dcee6a2d7714846294e6b44bd17f40f49ac3ea7db0b7c0)#e2uzudsx",
            "hex": "410488187bc823b0b30ae8058176bf2e1686385a4181460c67529bedd28115701ceb78fd7edd8fcc0730a0dcee6a2d7714846294e6b44bd17f40f49ac3ea7db0b7c0ac",
            "type": "pubkey"
          }
        }
      ],
      "hex": "01000000010000000000000000000000000000000000000000000000000000000000000000ffffffff0804ffff001d023102ffffffff0100f2052a0100000043410488187bc823b0b30ae8058176bf2e1686385a4181460c67529bedd28115701ceb78fd7edd8fcc0730a0dcee6a2d7714846294e6b44bd17f40f49ac3ea7db0b7c0ac00000000"
    }
  ]
}