{
  "hash": "0000000082fe6107593d074303ab3b17996ee50ed8faa3a0faf96b736d697c34",
  "confirmations": 50248,
  "height": 2850,
  "version": 1,
  "versionHex": "00000001",
  "merkleroot": "3b00cd0923660f1b2cf9b51d838a1a3d26b5b1acd25d1103f78bac5ebcd2ec3c",
  "time": 1233658032,
  "mediantime": 1233656267,
  "nonce": 93861445,
  "bits": "1d00ffff",
  "difficulty": 1,
  "chainwork": "00000000000000000000000000000000000000000000000000000b230b230b23",
  "nTx": 1,
  "previousblockhash": "0000000029600c3b2f4e109f98875b0a14d8aaad028f7ad6e48621c8d565351b",
  "nextblockhash": "000000005d468ff89f544ccc58cba53493cb818815455742034837091c6ad473",
  "strippedsize": 215,
  "size": 215,
  "weight": 860,
  "tx": [
    {
      "txid": "3b00cd0923660f1b2cf9b51d838a1a3d26b5b1acd25d1103f78bac5ebcd2ec3c",
      "hash": "3b00cd0923660f1b2cf9b51d838a1a3d26b5b1acd25d1103f78bac5ebcd2ec3c",
      "version": 1,
      "size": 134,
      "vsize": 134,
      "weight": 536,
      "locktime": 0,
      "vin": [
        {
          "coinbase": "04ffff001d0109",
          "sequence": 4294967295
        }
      ],
      "vout": [
        {
          "value": 50.0,
          "n": 0,
          "scriptPubKey": {
            "asm": "04712a60241c112db152ae1019a884a55138c96188f9c4b5adb8fb26b8b83b72bc00afc5903ca0c3a0f0096fa82501b3f61fd8265557ce19b515e75e18bf3273b1 OP_CHECKSIG",
            "desc": "pk(04712a60241c112db152ae1019a884a55138c96188f9c4b5adb8fb26b8b83b72bc00afc5903ca0c3a0f0096fa82501b3f61fd8265557ce19b515e75e18bf3273b1)#w7x3s4u2",
            "hex": "4104712a60241c112db152ae1019a884a55138c96188f9c4b5adb8fb26b8b83b72bc00afc5903ca0c3a0f0096fa82501b3f61fd8265557ce19b515e75e18bf3273b1ac",
            "type": "pubkey"
          }
        }
      ],
      "hex": "01000000010000000000000000000000000000000000000000000000000000000000000000ffffffff0704ffff001d0109ffffffff0100f2052a01000000434104712a60241c112db152ae1019a884a55138c96188f9c4b5adb8fb26b8b83b72bc00afc5903ca0c3a0f0096fa82501b3f61fd8265557ce19b515e75e18bf3273b1ac00000000"
    }
  ]
}