{
  "hash": "000000004e0e1cc55b7f35f5d2d4bcd8a4524eee3e8907246a51e412025605bb",
  "confirmations": 47285,
  "height": 5813,
  "version": 1,
  "versionHex": "00000001",
  "merkleroot": "9a048efdc61e6638c16ddaed95427e456c413ee246aa381a45ee6c91568aefb0",
  "time": 1235769199,
  "mediantime": 1235764934,
  "nonce": 1454646070,
  "bits": "1d00ffff",
  "difficulty": 1,
  "chainwork": "000000000000000000000000000000000000000000000000000016b616b616b6",
  "nTx": 1,
  "previousblockhash": "000000003c0600d80391cf020c05a733bf097f4282b1e6831648bab40c159f38",
  "nextblockhash": "000000003e1aba3c139fd1e7399a92d0de0aa3290b34943ebfd38903cf59cb0c",
  "strippedsize": 216,
  "size": 216,
  "weight": 864,
  "tx": [
    {
      "txid": "9a048efdc61e6638c16ddaed95427e456c413ee246aa381a45ee6c91568aefb0",
      "hash": "9a048efdc61e6638c16ddaed95427e456c413ee246aa381a45ee6c91568aefb0",
      "version": 1,
      "size": 135,
      "vsize": 135,
      "weight": 540,
      "locktime": 0,
      "vin": [
        {
          "coinbase": "04ffff001d02f400",
          "sequence": 4294967295
        }
      ],
      "vout": [
        {
          "value": 50.0,
          "n": 0,
          "scriptPubKey": {
            "asm": "047ff9981ab4e22a02b0453caa0629d08a751ca399ac8d1364e575e2dccb22d523663a58c46b8e604df3d884d9814a175e700d8cc9e8b62c4f71c76ce452fe5490 OP_CHECKSIG",
            "desc": "pk(047ff9981ab4e22a02b0453caa0629d08a751ca399ac8d1364e575e2dccb22d523663a58c46b8e604df3d884d9814a175e700d8cc9e8b62c4f71c76ce452fe5490)#jj66yavd",
            "hex": "41047ff9981ab4e22a02b0453caa0629d08a751ca399ac8d1364e575e2dccb22d523663a58c46b8e604df3d884d9814a175e700d8cc9e8b62c4f71c76ce452fe5490ac",
            "type": "pubkey"
          }
        }
      ],
      "hex": "01000000010000000000000000000000000000000000000000000000000000000000000000ffffffff0804ffff001d02f400ffffffff0100f2052a010000004341047ff9981ab4e22a02b0453caa0629d08a751ca399ac8d1364e575e2dccb22d523663a58c46b8e604df3d884d9814a175e700d8cc9e8b62c4f71c76ce452fe5490ac00000000"
    }
  ]
}