{
  "hash": "000000008aabb7df8289ae5fea5e3a5ddb5ae9725193d6421d5e9abf42a8272c",
  "confirmations": 52492,
  "height": 606,
  "version": 1,
  "versionHex": "00000001",
  "merkleroot": "7e058c284462571cfc08c5d11a4abcc8d17a5a0e2425f14232c993e163140a09",
  "time": 1232042240,
  "mediantime": 1232039247,
  "nonce": 1220570136,
  "bits": "1d00ffff",
  "difficulty": 1,
  "chainwork": "0000000000000000000000000000000000000000000000000000025f025f025f",
  "nTx": 1,
  "previousblockhash": "000000004b3d9501669152bc65bd56eba1992da6737c8c454662ad7ba7b5e443",
  "nextblockhash": "00000000a2f73f89957afec478a73c5227f9b7a1f697de7f71bc1f9c9c9cf419",
  "strippedsize": 216,
  "size": 216,
  "weight": 864,
  "tx": [
    {
      "txid": "7e058c284462571cfc08c5d11a4abcc8d17a5a0e2425f14232c993e163140a09",
      "hash": "7e058c284462571cfc08c5d11a4abcc8d17a5a0e2425f14232c993e163140a09",
      "version": 1,
      "size": 135,
      "vsize": 135,
      "weight": 540,
      "locktime": 0,
      "vin": [
        {
          "coinbase": "04ffff001d02d306",
          "sequence": 4294967295
        }
      ],
      "vout": [
        {
          "value": 50.0,
          "n": 0,
          "scriptPubKey": {
            "asm": "045ebfcc355c7171565d23a7e0d2b2f534c962e3ca0ca8c80d13ef51585413f028aad36d6b8a5d4c11ce743df3314f9219f3baf77e8d77e780e959224bd2d8c3ee OP_CHECKSIG",
            "desc": "pk(045ebfcc355c7171565d23a7e0d2b2f534c962e3ca0ca8c80d13ef51585413f028aad36d6b8a5d4c11ce743df3314f9219f3baf77e8d77e780e959224bd2d8c3ee)#yz90lc7y",
            "hex": "41045ebfcc355c7171565d23a7e0d2b2f534c962e3ca0ca8c80d13ef51585413f028aad36d6b8a5d4c11ce743df3314f9219f3baf77e8d77e780e959224bd2d8c3eeac",
            "type": "pubkey"
          }
        }
      ],
      "hex": "01000000010000000000000000000000000000000000000000000000000000000000000000ffffffff0804ffff001d02d306ffffffff0100f2052a010000004341045ebfcc355c7171565d23a7e0d2b2f534c962e3ca0ca8c80d13ef51585413f028aad36d6b8a5d4c11ce743df3314f9219f3baf77e8d77e780e959224bd2d8c3eeac00000000"
    }
  ]
}