{
  "hash": "0000000084643dd55c0eb44772299bcae8487874840036a9b45b5807e24f6a3d",
  "confirmations": 50206,
  "height": 2892,
  "version": 1,
  "versionHex": "00000001",
  "merkleroot": "6d25f1b8fc8827e13671f76bb0fcdd946d2c23922192607f01b3ddfe34bf5ac4",
  "time": 1233686611,
  "mediantime": 1233682275,
  "nonce": 2285544483,
  "bits": "1d00ffff",
  "difficulty": 1,
  "chainwork": "00000000000000000000000000000000000000000000000000000b4d0b4d0b4d",
  "nTx": 1,
  "previousblockhash": "00000000ef95513c5ad9c9eec8b9a2d9676d5d9b825e46c5a3a1be8c6de25f78",
  "nextblockhash": "0000000044c429d722e2586f2ece255f6252fa9c8b8e2796d365fa5f8a21bf5c",
  "strippedsize": 216,
  "size": 216,
  "weight": 864,
  "tx": [
    {
      "txid": "6d25f1b8fc8827e13671f76bb0fcdd946d2c23922192607f01b3ddfe34bf5ac4",
      "hash": "6d25f1b8fc8827e13671f76bb0fcdd946d2c23922192607f01b3ddfe34bf5ac4",
      "version": 1,
      "size": 135,
      "vsize": 135,
      "weight": 540,
      "locktime": 0,
      "vin": [
        {
          "coinbase": "04ffff001d025307",
          "sequence": 4294967295
        }
      ],
      "vout": [
        {
          "value": 50.0,
          "n": 0,
          "scriptPubKey": {
            "asm": "0488095a9fd6d601026f0a6b8d0490a37d886127f68702e52b4b641e90f2192a0972101acd76ae31763a0cb5b3f6f117ef1a7ac45e4486f9050f3119e1a29a586e OP_CHECKSIG",
            "desc": "pk(0488095a9fd6d601026f0a6b8d0490a37d886127f68702e52b4b641e90f2192a0972101acd76ae31763a0cb5b3f6f117ef1a7ac45e4486f9050f3119e1a29a586e)#5330xa9h",
            "hex": "410488095a9fd6d601026f0a6b8d0490a37d886127f68702e52b4b641e90f2192a0972101acd76ae31763a0cb5b3f6f117ef1a7ac45e4486f9050f3119e1a29a586eac",
            "type": "pubkey"
          }
        }
      ],
      "hex": "01000000010000000000000000000000000000000000000000000000000000000000000000ffffffff0804ffff001d025307ffffffff0100f2052a0100000043410488095a9fd6d601026f0a6b8d0490a37d886127f68702e52b4b641e90f2192a0972101acd76ae31763a0cb5b3f6f117ef1a7ac45e4486f9050f3119e1a29a586eac00000000"
    }
  ]
}