{
  "hash": "00000000907fef6d24dbd9646cc5d27f6836e76a15f1105e250230323dd1c7ed",
  "confirmations": 50966,
  "height": 2132,
  "version": 1,
  "versionHex": "00000001",
  "merkleroot": "5b2dd5b8957b8d1bd731a7c35f073f2facb7742f166133148dfb1d38dbd42520",
  "time": 1233161093,
  "mediantime": 1233156053,
  "nonce": 2989250602,
  "bits": "1d00ffff",
  "difficulty": 1,
  "chainwork": "0000000000000000000000000000000000000000000000000000085508550855",
  "nTx": 1,
  "previousblockhash": "00000000d375589770b4652369b6cb946209240f3c06dbd7bb91d3d0d4ce7c9e",
  "nextblockhash": "000000001330bcf09ebb284a528734961a23c361bbd3807c47bd0d570156b975",
  "strippedsize": 215,
  "size": 215,
  "weight": 860,
  "tx": [
    {
      "txid": "5b2dd5b8957b8d1bd731a7c35f073f2facb7742f166133148dfb1d38dbd42520",
      "hash": "5b2dd5b8957b8d1bd731a7c35f073f2facb7742f166133148dfb1d38dbd42520",
      "version": 1,
      "size": 134,
      "vsize": 134,
      "weight": 536,
      "locktime": 0,
      "vin": [
        {
          "coinbase": "04ffff001d0106",
          "sequence": 4294967295
        }
      ],
      "vout": [
        {
          "value": 50.0,
          "n": 0,
          "scriptPubKey": {
            "asm": "044601602cb5ff4011b8b65ce674d299b23a47ba26a20fbbae4ed3a901c2f0343d9b7d34bb026b92b5029a9045f0fa12a05006af3ecd6f6d5794e63f19f09045e9 OP_CHECKSIG",
            "desc": "pk(044601602cb5ff4011b8b65ce674d299b23a47ba26a20fbbae4ed3a901c2f0343d9b7d34bb026b92b5029a9045f0fa12a05006af3ecd6f6d5794e63f19f09045e9)#60c0g4v7",
            "hex": "41044601602cb5ff4011b8b65ce674d299b23a47ba26a20fbbae4ed3a901c2f0343d9b7d34bb026b92b5029a9045f0fa12a05006af3ecd6f6d5794e63f19f09045e9ac",
            "type": "pubkey"
          }
        }
      ],
      "hex": "01000000010000000000000000000000000000000000000000000000000000000000000000ffffffff0704ffff001d0106ffffffff0100f2052a010000004341044601602cb5ff4011b8b65ce674d299b23a47ba26a20fbbae4ed3a901c2f0343d9b7d34bb026b92b5029a9045f0fa12a05006af3ecd6f6d5794e63f19f09045e9ac00000000"
    }
  ]
}