{
  "hash": "00000000775e3fc84079c869924535ec2d706a86534377d14820d793c8f9e15e",
  "confirmations": 44269,
  "height": 8829,
  "version": 1,
  "versionHex": "00000001",
  "merkleroot": "4ab28c2310a0c8dcfd45d2b7acf813c1367c5bb8c0fc4fec6a735147661ec84a",
  "time": 1238118587,
  "mediantime": 1238116344,
  "nonce": 4223447336,
  "bits": "1d00ffff",
  "difficulty": 1,
  "chainwork": "0000000000000000000000000000000000000000000000000000227e227e227e",
  "nTx": 1,
  "previousblockhash": "000000006f84c39f60dbbd7c09a45a8f4c5da4a68202ef7097643de38134fb2b",
  "nextblockhash": "00000000b58332786a49b6b2f1b7be930503914a6ff762d2f42ce600fc546951",
  "strippedsize": 216,
  "size": 216,
  "weight": 864,
  "tx": [
    {
      "txid": "4ab28c2310a0c8dcfd45d2b7acf813c1367c5bb8c0fc4fec6a735147661ec84a",
      "hash": "4ab28c2310a0c8dcfd45d2b7acf813c1367c5bb8c0fc4fec6a735147661ec84a",
      "version": 1,
      "size": 135,
      "vsize": 135,
      "weight": 540,
      "locktime": 0,
      "vin": [
        {
          "coinbase": "04ffff001d024403",
          "sequence": 4294967295
        }
      ],
      "vout": [
        {
          "value": 50.0,
          "n": 0,
          "scriptPubKey": {
            "asm": "04c026abb87a6daf109f27355f9f302d203a1856b898812439a5813375a19af6fe612cd9cf1781a042185b0c4c47d17560a829e4ddef9c190d271a7a3b7de5948f OP_CHECKSIG",
            "desc": "pk(04c026abb87a6daf109f27355f9f302d203a1856b898812439a5813375a19af6fe612cd9cf1781a042185b0c4c47d17560a829e4ddef9c190d271a7a3b7de5948f)#6t67hvdt",
            "hex": "4104c026abb87a6daf109f27355f9f302d203a1856b898812439a5813375a19af6fe612cd9cf1781a042185b0c4c47d17560a829e4ddef9c190d271a7a3b7de5948fac",
            "type": "pubkey"
          }
        }
      ],
      "hex": "01000000010000000000000000000000000000000000000000000000000000000000000000ffffffff0804ffff001d024403ffffffff0100f2052a01000000434104c026abb87a6daf109f27355f9f302d203a1856b898812439a5813375a19af6fe612cd9cf1781a042185b0c4c47d17560a829e4ddef9c190d271a7a3b7de5948fac00000000"
    }
  ]
}