{
  "hash": "0000000042f33084b4d1d5ddb8aafd3c2276ba8b055b7c44935f9eb63650bfe8",
  "confirmations": 45626,
  "height": 7472,
  "version": 1,
  "versionHex": "00000001",
  "merkleroot": "156c6f63d673b6b4d023a818935b1403194af99934353f3276db359232756a23",
  "time": 1237077704,
  "mediantime": 1237074191,
  "nonce": 2413670710,
  "bits": "1d00ffff",
  "difficulty": 1,
  "chainwork": "00000000000000000000000000000000000000000000000000001d311d311d31",
  "nTx": 1,
  "previousblockhash": "000000003e02802f5ab58d9132299394f315b860859889a34323af7487a1c6c9",
  "nextblockhash": "000000006c4aba91a4d86a26b6b33dca7dd01bca8afaf940ae744637e812627a",
  "strippedsize": 216,
  "size": 216,
  "weight": 864,
  "tx": [
    {
      "txid": "156c6f63d673b6b4d023a818935b1403194af99934353f3276db359232756a23",
      "hash": "156c6f63d673b6b4d023a818935b1403194af99934353f3276db359232756a23",
      "version": 1,
      "size": 135,
      "vsize": 135,
      "weight": 540,
      "locktime": 0,
      "vin": [
        {
          "coinbase": "04ffff001d028d00",
          "sequence": 4294967295
        }
      ],
      "vout": [
        {
          "value": 50.0,
          "n": 0,
          "scriptPubKey": {
            "asm": "046c16eacd7fe5d6181764cfb8c0dac7c06caa5929fb30e0826b0b887972d0cac6cfb7fb634dafb39af038a778e2f1af372d92b083880d3a37d6bc2ca35c7b2159 OP_CHECKSIG",
            "desc": "pk(046c16eacd7fe5d6181764cfb8c0dac7c06caa5929fb30e0826b0b887972d0cac6cfb7fb634dafb39af038a778e2f1af372d92b083880d3a37d6bc2ca35c7b2159)#tl02ham2",
            "hex": "41046c16eacd7fe5d6181764cfb8c0dac7c06caa5929fb30e0826b0b887972d0cac6cfb7fb634dafb39af038a778e2f1af372d92b083880d3a37d6bc2ca35c7b2159ac",
            "type": "pubkey"
          }
        }
      ],
      "hex": "01000000010000000000000000000000000000000000000000000000000000000000000000ffffffff0804ffff001d028d00ffffffff0100f2052a010000004341046c16eacd7fe5d6181764cfb8c0dac7c06caa5929fb30e0826b0b887972d0cac6cfb7fb634dafb39af038a778e2f1af372d92b083880d3a37d6bc2ca35c7b2159ac00000000"
    }
  ]
}