{
  "hash": "0000000079b87a8133a42c754a248faceca856cd9e9195f3891a1df367574da8",
  "confirmations": 49504,
  "height": 3594,
  "version": 1,
  "versionHex": "00000001",
  "merkleroot": "daa7a16d5f07c9c70e9fdbe699df5fd422a2602a2c70a521edbe6ab2b1044a6e",
  "time": 1234168938,
  "mediantime": 1234165722,
  "nonce": 1621062914,
  "bits": "1d00ffff",
  "difficulty": 1,
  "chainwork": "00000000000000000000000000000000000000000000000000000e0b0e0b0e0b",
  "nTx": 1,
  "previousblockhash": "00000000634d63176c4714a66615d472f4eea9f72a4eb4a7240ac7c8b6963023",
  "nextblockhash": "000000002d65894ac42111196a3cc544594144192ee3bef5faf291fcdb05f0fe",
  "strippedsize": 216,
  "size": 216,
  "weight": 864,
  "tx": [
    {
      "txid": "daa7a16d5f07c9c70e9fdbe699df5fd422a2602a2c70a521edbe6ab2b1044a6e",
      "hash": "daa7a16d5f07c9c70e9fdbe699df5fd422a2602a2c70a521edbe6ab2b1044a6e",
      "version": 1,
      "size": 135,
      "vsize": 135,
      "weight": 540,
      "locktime": 0,
      "vin": [
        {
          "coinbase": "04ffff001d028b08",
          "sequence": 4294967295
        }
      ],
      "vout": [
        {
          "value": 50.0,
          "n": 0,
          "scriptPubKey": {
            "asm": "0475adc683e46a574b2c27d13ee0695c942f9f34e7cd71182d18bc296b7a58ac1a2672c7ca279966ac5ac4f1b278f64502d910d873ecf03c3fa58b107fb75a5b3a OP_CHECKSIG",
            "desc": "pk(0475adc683e46a574b2c27d13ee0695c942f9f34e7cd71182d18bc296b7a58ac1a2672c7ca279966ac5ac4f1b278f64502d910d873ecf03c3fa58b107fb75a5b3a)#arv3glyg",
            "hex": "410475adc683e46a574b2c27d13ee0695c942f9f34e7cd71182d18bc296b7a58ac1a2672c7ca279966ac5ac4f1b278f64502d910d873ecf03c3fa58b107fb75a5b3aac",
            "type": "pubkey"
          }
        }
      ],
      "hex": "01000000010000000000000000000000000000000000000000000000000000000000000000ffffffff0804ffff001d028b08ffffffff0100f2052a0100000043410475adc683e46a574b2c27d13ee0695c942f9f34e7cd71182d18bc296b7a58ac1a2672c7ca279966ac5ac4f1b278f64502d910d873ecf03c3fa58b107fb75a5b3aac00000000"
    }
  ]
}