{
  "hash": "000000006f35e3b272050957426e172bd987fc433392954d6390d0437b3c67a9",
  "confirmations": 52134,
  "height": 964,
  "version": 1,
  "versionHex": "00000001",
  "merkleroot": "f906fad3d8ee167fd89afe94e79ed6f0bd0bfbaba6d3593e82eb5344069915d6",
  "time": 1232322800,
  "mediantime": 1232318024,
  "nonce": 295149863,
  "bits": "1d00ffff",
  "difficulty": 1,
  "chainwork": "000000000000000000000000000000000000000000000000000003c503c503c5",
  "nTx": 1,
  "previousblockhash": "00000000b054267b1e38c6c6b9c85890c414d552037105116cdc4a5659c55362",
  "nextblockhash": "000000004d3814f64f864ff1e3c2197618154b43c62237c80ea1be1a09c20c92",
  "strippedsize": 216,
  "size": 216,
  "weight": 864,
  "tx": [
    {
      "txid": "f906fad3d8ee167fd89afe94e79ed6f0bd0bfbaba6d3593e82eb5344069915d6",
      "hash": "f906fad3d8ee167fd89afe94e79ed6f0bd0bfbaba6d3593e82eb5344069915d6",
      "version": 1,
      "size": 135,
      "vsize": 135,
      "weight": 540,
      "locktime": 0,
      "vin": [
        {
          "coinbase": "04ffff001d02a500",
          "sequence": 4294967295
        }
      ],
      "vout": [
        {
          "value": 50.0,
          "n": 0,
          "scriptPubKey": {
            "asm": "04ff0875e9d01c03008fee91f0d55e15abfd6863fa3a65a44bc529924d59d4cf20524ca6a4d7d906669dcdebd0b38e5a45e02b60b20ab19f522e7fd2aa158f83c3 OP_CHECKSIG",
            "desc": "pk(04ff0875e9d01c03008fee91f0d55e15abfd6863fa3a65a44bc529924d59d4cf20524ca6a4d7d906669dcdebd0b38e5a45e02b60b20ab19f522e7fd2aa158f83c3)#ga7748n2",
            "hex": "4104ff0875e9d01c03008fee91f0d55e15abfd6863fa3a65a44bc529924d59d4cf20524ca6a4d7d906669dcdebd0b38e5a45e02b60b20ab19f522e7fd2aa158f83c3ac",
            "type": "pubkey"
          }
        }
      ],
      "hex": "01000000010000000000000000000000000000000000000000000000000000000000000000ffffffff0804ffff001d02a500ffffffff0100f2052a01000000434104ff0875e9d01c03008fee91f0d55e15abfd6863fa3a65a44bc529924d59d4cf20524ca6a4d7d906669dcdebd0b38e5a45e02b60b20ab19f522e7fd2aa158f83c3ac00000000"
    }
  ]
}