{
  "hash": "00000000cc8e8997eed18bf23dca4f237b62366dec8bfb285009c8f2f3237517",
  "confirmations": 49834,
  "height": 3264,
  "version": 1,
  "versionHex": "00000001",
  "merkleroot": "2e252b90bea0b4444abc6a0135ce6dbcf95d6e58ea3eaad19486fbf731f99f7f",
  "time": 1233944994,
  "mediantime": 1233941936,
  "nonce": 1791716662,
  "bits": "1d00ffff",
  "difficulty": 1,
  "chainwork": "00000000000000000000000000000000000000000000000000000cc10cc10cc1",
  "nTx": 1,
  "previousblockhash": "00000000741591462cc354e1d44ae3cd997c2d49e23227722b1ac5c663400328",
  "nextblockhash": "000000009c3cf4f018d22f7432ac8fc0371382eec83ecc612698a05341ad301a",
  "strippedsize": 216,
  "size": 216,
  "weight": 864,
  "tx": [
    {
      "txid": "2e252b90bea0b4444abc6a0135ce6dbcf95d6e58ea3eaad19486fbf731f99f7f",
      "hash": "2e252b90bea0b4444abc6a0135ce6dbcf95d6e58ea3eaad19486fbf731f99f7f",
      "version": 1,
      "size": 135,
      "vsize": 135,
      "weight": 540,
      "locktime": 0,
      "vin": [
        {
          "coinbase": "04ffff001d02b003",
          "sequence": 4294967295
        }
      ],
      "vout": [
        {
          "value": 50.0,
          "n": 0,
          "scriptPubKey": {
            "asm": "041b1741bc1175c813143ece680c52269bae2c5ce2d1c8abf43e9b4403c39ace2980691c59114743f70b5b420fa9090616b5751a8c57ca21c8afe454e67c17f5a1 OP_CHECKSIG",
            "desc": "pk(041b1741bc1175c813143ece680c52269bae2c5ce2d1c8abf43e9b4403c39ace2980691c59114743f70b5b420fa9090616b5751a8c57ca21c8afe454e67c17f5a1)#57uh04gt",
            "hex": "41041b1741bc1175c813143ece680c52269bae2c5ce2d1c8abf43e9b4403c39ace2980691c59114743f70b5b420fa9090616b5751a8c57ca21c8afe454e67c17f5a1ac",
            "type": "pubkey"
          }
        }
      ],
      "hex": "01000000010000000000000000000000000000000000000000000000000000000000000000ffffffff0804ffff001d02b003ffffffff0100f2052a010000004341041b1741bc1175c813143ece680c52269bae2c5ce2d1c8abf43e9b4403c39ace2980691c59114743f70b5b420fa9090616b5751a8c57ca21c8afe454e67c17f5a1ac00000000"
    }
  ]
}