{
  "hash": "00000000c1fde6622e905b35b1126bce0f533d810b3f328fac7b169e3954e0dc",
  "confirmations": 43555,
  "height": 9543,
  "version": 1,
  "versionHex": "00000001",
  "merkleroot": "9a74a242bef08c0dd4e2388bef1657d6b487280c5d5861d592a0be2a3501ab50",
  "time": 1238655841,
  "mediantime": 1238652109,
  "nonce": 238822435,
  "bits": "1d00ffff",
  "difficulty": 1,
  "chainwork": "0000000000000000000000000000000000000000000000000000254825482548",
  "nTx": 1,
  "previousblockhash": "0000000010aeb8b367224364dcc3de94c10972238e1c21303150c890300a602f",
  "nextblockhash": "000000006ea2914e92adcfc7b39fcb00b3dfa0328aae70500f6ff26e11f764ef",
  "strippedsize": 216,
  "size": 216,
  "weight": 864,
  "tx": [
    {
      "txid": "9a74a242bef08c0dd4e2388bef1657d6b487280c5d5861d592a0be2a3501ab50",
      "hash": "9a74a242bef08c0dd4e2388bef1657d6b487280c5d5861d592a0be2a3501ab50",
      "version": 1,
      "size": 135,
      "vsize": 135,
      "weight": 540,
      "locktime": 0,
      "vin": [
        {
          "coinbase": "04ffff001d02f905",
          "sequence": 4294967295
        }
      ],
      "vout": [
        {
          "value": 50.0,
          "n": 0,
          "scriptPubKey": {
            "asm": "04594c354e9b9e9076e4d8b9ebf9b84cc5c5bbd4ee77b372c241476b0b703201d55b14661da120607177b8c1922d3e10edc314ba1686766557880f340f0f3a6520 OP_CHECKSIG",
            "desc": "pk(04594c354e9b9e9076e4d8b9ebf9b84cc5c5bbd4ee77b372c241476b0b703201d55b14661da120607177b8c1922d3e10edc314ba1686766557880f340f0f3a6520)#dthvwryq",
            "hex": "4104594c354e9b9e9076e4d8b9ebf9b84cc5c5bbd4ee77b372c241476b0b703201d55b14661da120607177b8c1922d3e10edc314ba1686766557880f340f0f3a6520ac",
            "type": "pubkey"
          }
        }
      ],
      "hex": "01000000010000000000000000000000000000000000000000000000000000000000000000ffffffff0804ffff001d02f905ffffffff0100f2052a01000000434104594c354e9b9e9076e4d8b9ebf9b84cc5c5bbd4ee77b372c241476b0b703201d55b14661da120607177b8c1922d3e10edc314ba1686766557880f340f0f3a6520ac00000000"
    }
  ]
}