{
  "hash": "00000000305d6a663100108e3ead61bdb3df4ca9d5875e1db372d512d14b035c",
  "confirmations": 52362,
  "height": 736,
  "version": 1,
  "versionHex": "00000001",
  "merkleroot": "6d9633cefd02ff96e95cad1c59373cbb489e9017e54249ea2ac9e370d011ba78",
  "time": 1232139204,
  "mediantime": 1232134905,
  "nonce": 1275128361,
  "bits": "1d00ffff",
  "difficulty": 1,
  "chainwork": "000000000000000000000000000000000000000000000000000002e102e102e1",
  "nTx": 1,
  "previousblockhash": "000000005e132ed894791add9a4e71175ead568b4e197de381364f9e965a491a",
  "nextblockhash": "00000000daf09309228c0a50e0b30f65411db9cee48635a1ea150be7b3127918",
  "strippedsize": 215,
  "size": 215,
  "weight": 860,
  "tx": [
    {
      "txid": "6d9633cefd02ff96e95cad1c59373cbb489e9017e54249ea2ac9e370d011ba78",
      "hash": "6d9633cefd02ff96e95cad1c59373cbb489e9017e54249ea2ac9e370d011ba78",
      "version": 1,
      "size": 134,
      "vsize": 134,
      "weight": 536,
      "locktime": 0,
      "vin": [
        {
          "coinbase": "04ffff001d0153",
          "sequence": 4294967295
        }
      ],
      "vout": [
        {
          "value": 50.0,
          "n": 0,
          "scriptPubKey": {
            "asm": "0471f0d59f39569de6d3f4e6f7410cdc98b78125348a19bce6db45fea5c40635680391aa74976c0c9112b07faaf126434ea73e279c4732b0514c6baa0b05eb9c20 OP_CHECKSIG",
            "desc": "pk(0471f0d59f39569de6d3f4e6f7410cdc98b78125348a19bce6db45fea5c40635680391aa74976c0c9112b07faaf126434ea73e279c4732b0514c6baa0b05eb9c20)#zwvwynqn",
            "hex": "410471f0d59f39569de6d3f4e6f7410cdc98b78125348a19bce6db45fea5c40635680391aa74976c0c9112b07faaf126434ea73e279c4732b0514c6baa0b05eb9c20ac",
            "type": "pubkey"
          }
        }
      ],
      "hex": "01000000010000000000000000000000000000000000000000000000000000000000000000ffffffff0704ffff001d0153ffffffff0100f2052a0100000043410471f0d59f39569de6d3f4e6f7410cdc98b78125348a19bce6db45fea5c40635680391aa74976c0c9112b07faaf126434ea73e279c4732b0514c6baa0b05eb9c20ac00000000"
    }
  ]
}