{
  "hash": "00000000b755e7fa6b511a6f89d7c1748cfd4bcf98724b95d7ebda8add953975",
  "confirmations": 50223,
  "height": 2875,
  "version": 1,
  "versionHex": "00000001",
  "merkleroot": "e3d8cb58a001607547729eb24fc90bd6264c7c88665f7b1c94ba447868161806",
  "time": 1233674517,
  "mediantime": 1233671549,
  "nonce": 628667689,
  "bits": "1d00ffff",
  "difficulty": 1,
  "chainwork": "00000000000000000000000000000000000000000000000000000b3c0b3c0b3c",
  "nTx": 1,
  "previousblockhash": "00000000586c6c91ae629eb7333c295da0fa4d980f1b7340e0c4a0b4a250326a",
  "nextblockhash": "0000000049d32ae3139483c40cb413c21b47083f201e1c45988cdc0eaaf581dd",
  "strippedsize": 216,
  "size": 216,
  "weight": 864,
  "tx": [
    {
      "txid": "e3d8cb58a001607547729eb24fc90bd6264c7c88665f7b1c94ba447868161806",
      "hash": "e3d8cb58a001607547729eb24fc90bd6264c7c88665f7b1c94ba447868161806",
      "version": 1,
      "size": 135,
      "vsize": 135,
      "weight": 540,
      "locktime": 0,
      "vin": [
        {
          "coinbase": "04ffff001d020707",
          "sequence": 4294967295
        }
      ],
      "vout": [
        {
          "value": 50.0,
          "n": 0,
          "scriptPubKey": {
            "asm": "04402b819ca1d54cda2f7bc67f3c574af3e617a420bcd384c81ab9b05738324b48c7f36a276df8e6aed1a0fc027365c74b904f750372a4b0ae4be8d539f30026d3 OP_CHECKSIG",
            "desc": "pk(04402b819ca1d54cda2f7bc67f3c574af3e617a420bcd384c81ab9b05738324b48c7f36a276df8e6aed1a0fc027365c74b904f750372a4b0ae4be8d539f30026d3)#7rax8gl9",
            "hex": "4104402b819ca1d54cda2f7bc67f3c574af3e617a420bcd384c81ab9b05738324b48c7f36a276df8e6aed1a0fc027365c74b904f750372a4b0ae4be8d539f30026d3ac",
            "type": "pubkey"
          }
        }
      ],
      "hex": "01000000010000000000000000000000000000000000000000000000000000000000000000ffffffff0804ffff001d020707ffffffff0100f2052a01000000434104402b819ca1d54cda2f7bc67f3c574af3e617a420bcd384c81ab9b05738324b48c7f36a276df8e6aed1a0fc027365c74b904f750372a4b0ae4be8d539f30026d3ac00000000"
    }
  ]
}