{
  "hash": "00000000d48dc4f87ea7fd0a24fdf68437293a2ce9f1c382340921a7db4b4bd7",
  "confirmations": 51703,
  "height": 1395,
  "version": 1,
  "versionHex": "00000001",
  "merkleroot": "210afd872c9b9d680b038e2940fa8d726607a4f3f0ac904e218a421510d60241",
  "time": 1232707975,
  "mediantime": 1232696035,
  "nonce": 1331443042,
  "bits": "1d00ffff",
  "difficulty": 1,
  "chainwork": "0000000000000000000000000000000000000000000000000000057405740574",
  "nTx": 1,
  "previousblockhash": "00000000deb704fba930460b98b866320eca8626fc6eae98242fe49e698b319e",
  "nextblockhash": "00000000613c16fe1873a17c7663fcc4d462f0b63e761e45805aa8f14aa7877e",
  "strippedsize": 215,
  "size": 215,
  "weight": 860,
  "tx": [
    {
      "txid": "210afd872c9b9d680b038e2940fa8d726607a4f3f0ac904e218a421510d60241",
      "hash": "210afd872c9b9d680b038e2940fa8d726607a4f3f0ac904e218a421510d60241",
      "version": 1,
      "size": 134,
      "vsize": 134,
      "weight": 536,
      "locktime": 0,
      "vin": [
        {
          "coinbase": "04ffff001d0106",
          "sequence": 4294967295
        }
      ],
      "vout": [
        {
          "value": 50.0,
          "n": 0,
          "scriptPubKey": {
            "asm": "046f86e75e8959e4777adc3198b13d266dcbab505694720dcb70959b376e2882073de3216fc2c6e87866bc14da92d6d31f2036b1da9584b379e0ebdeb4f0e6efe7 OP_CHECKSIG",
            "desc": "pk(046f86e75e8959e4777adc3198b13d266dcbab505694720dcb70959b376e2882073de3216fc2c6e87866bc14da92d6d31f2036b1da9584b379e0ebdeb4f0e6efe7)#t4k2fjre",
            "hex": "41046f86e75e8959e4777adc3198b13d266dcbab505694720dcb70959b376e2882073de3216fc2c6e87866bc14da92d6d31f2036b1da9584b379e0ebdeb4f0e6efe7ac",
            "type": "pubkey"
          }
        }
      ],
      "hex": "01000000010000000000000000000000000000000000000000000000000000000000000000ffffffff0704ffff001d0106ffffffff0100f2052a010000004341046f86e75e8959e4777adc3198b13d266dcbab505694720dcb70959b376e2882073de3216fc2c6e87866bc14da92d6d31f2036b1da9584b379e0ebdeb4f0e6efe7ac00000000"
    }
  ]
}