{
  "hash": "00000000b4ef896caf07fc332d2a735f12c850b4bd9212fa8267b70d4c1039b9",
  "confirmations": 47944,
  "height": 5154,
  "version": 1,
  "versionHex": "00000001",
  "merkleroot": "3272b3c038ddf417cc4c0e7883d2707abb7e7ac9b1036cea62fef61fa444153a",
  "time": 1235255678,
  "mediantime": 1235252633,
  "nonce": 3024616758,
  "bits": "1d00ffff",
  "difficulty": 1,
  "chainwork": "0000000000000000000000000000000000000000000000000000142314231423",
  "nTx": 1,
  "previousblockhash": "00000000484ed3aeb7f32c789d72a730682cfc6a16fb1dfa8fd9cfddd60940dc",
  "nextblockhash": "00000000eb09b9d5419d0961c4ed3766e60fe3d98a9b530ae45c393fbebad967",
  "strippedsize": 216,
  "size": 216,
  "weight": 864,
  "tx": [
    {
      "txid": "3272b3c038ddf417cc4c0e7883d2707abb7e7ac9b1036cea62fef61fa444153a",
      "hash": "3272b3c038ddf417cc4c0e7883d2707abb7e7ac9b1036cea62fef61fa444153a",
      "version": 1,
      "size": 135,
      "vsize": 135,
      "weight": 540,
      "locktime": 0,
      "vin": [
        {
          "coinbase": "04ffff001d02fb09",
          "sequence": 4294967295
        }
      ],
      "vout": [
        {
          "value": 50.0,
          "n": 0,
          "scriptPubKey": {
            "asm": "043d1b2922cb6df5aaa8cacee18831a00e962560bb1c2ff63f3e33bf616bd0736f74f93e96443fc7179f689e37ff65aefd762e77f95a94470309ae1662f11ab431 OP_CHECKSIG",
            "desc": "pk(043d1b2922cb6df5aaa8cacee18831a00e962560bb1c2ff63f3e33bf616bd0736f74f93e96443fc7179f689e37ff65aefd762e77f95a94470309ae1662f11ab431)#dlalc0e0",
            "hex": "41043d1b2922cb6df5aaa8cacee18831a00e962560bb1c2ff63f3e33bf616bd0736f74f93e96443fc7179f689e37ff65aefd762e77f95a94470309ae1662f11ab431ac",
            "type": "pubkey"
          }
        }
      ],
      "hex": "01000000010000000000000000000000000000000000000000000000000000000000000000ffffffff0804ffff001d02fb09ffffffff0100f2052a010000004341043d1b2922cb6df5aaa8cacee18831a00e962560bb1c2ff63f3e33bf616bd0736f74f93e96443fc7179f689e37ff65aefd762e77f95a94470309ae1662f11ab431ac00000000"
    }
  ]
}