{
  "hash": "000000009556c08430fc765e27e484a187e728bb01cf1e83cce4c5576b11248d",
  "confirmations": 47164,
  "height": 5934,
  "version": 1,
  "versionHex": "00000001",
  "merkleroot": "0e19a2982a69d09edae41c5ce386b5d802517feda61205852b91888a1768cac4",
  "time": 1235875095,
  "mediantime": 1235870027,
  "nonce": 1291402028,
  "bits": "1d00ffff",
  "difficulty": 1,
  "chainwork": "0000000000000000000000000000000000000000000000000000172f172f172f",
  "nTx": 1,
  "previousblockhash": "0000000036a940c9b689d08f6cfe4a3fff610ed07af0b53d3d81ba97ee717ea0",
  "nextblockhash": "000000007dc81a43d78ac2a6b7a21b99670e7cef083609a29098c181e97d06ae",
  "strippedsize": 216,
  "size": 216,
  "weight": 864,
  "tx": [
    {
      "txid": "0e19a2982a69d09edae41c5ce386b5d802517feda61205852b91888a1768cac4",
      "hash": "0e19a2982a69d09edae41c5ce386b5d802517feda61205852b91888a1768cac4",
      "version": 1,
      "size": 135,
      "vsize": 135,
      "weight": 540,
      "locktime": 0,
      "vin": [
        {
          "coinbase": "04ffff001d02cc03",
          "sequence": 4294967295
        }
      ],
      "vout": [
        {
          "value": 50.0,
          "n": 0,
          "scriptPubKey": {
            "asm": "049fe7d440b80e1663d741809f57a1acbace38e7a4260caaee55f35637cec4ffc2143430dd87e66e1cce2d9ab3dc406c40f75e5e7e69f46f91361d4426a5e003be OP_CHECKSIG",
            "desc": "pk(049fe7d440b80e1663d741809f57a1acbace38e7a4260caaee55f35637cec4ffc2143430dd87e66e1cce2d9ab3dc406c40f75e5e7e69f46f91361d4426a5e003be)#mwguhhmf",
            "hex": "41049fe7d440b80e1663d741809f57a1acbace38e7a4260caaee55f35637cec4ffc2143430dd87e66e1cce2d9ab3dc406c40f75e5e7e69f46f91361d4426a5e003beac",
            "type": "pubkey"
          }
        }
      ],
      "hex": "01000000010000000000000000000000000000000000000000000000000000000000000000ffffffff0804ffff001d02cc03ffffffff0100f2052a010000004341049fe7d440b80e1663d741809f57a1acbace38e7a4260caaee55f35637cec4ffc2143430dd87e66e1cce2d9ab3dc406c40f75e5e7e69f46f91361d4426a5e003beac00000000"
    }
  ]
}