{
  "hash": "00000000e2cfb7d2dccec6ceba36a5742c4afe06ebc06b3b114988455a9e47d7",
  "confirmations": 48304,
  "height": 4794,
  "version": 1,
  "versionHex": "00000001",
  "merkleroot": "05d5bfac89749ae7e8b77aa8704fef91e55483854436e839638ad2a407ddb435",
  "time": 1234995558,
  "mediantime": 1234991229,
  "nonce": 124144203,
  "bits": "1d00ffff",
  "difficulty": 1,
  "chainwork": "000000000000000000000000000000000000000000000000000012bb12bb12bb",
  "nTx": 1,
  "previousblockhash": "0000000046ac4f2201ff722934f21515269ea25836d18b48fa90d42b079363bf",
  "nextblockhash": "00000000c8de245ab0abf11ccf933ca8d909d30738615094892d279271b8a851",
  "strippedsize": 216,
  "size": 216,
  "weight": 864,
  "tx": [
    {
      "txid": "05d5bfac89749ae7e8b77aa8704fef91e55483854436e839638ad2a407ddb435",
      "hash": "05d5bfac89749ae7e8b77aa8704fef91e55483854436e839638ad2a407ddb435",
      "version": 1,
      "size": 135,
      "vsize": 135,
      "weight": 540,
      "locktime": 0,
      "vin": [
        {
          "coinbase": "04ffff001d02520b",
          "sequence": 4294967295
        }
      ],
      "vout": [
        {
          "value": 50.0,
          "n": 0,
          "scriptPubKey": {
            "asm": "0435a753fbffc8f5d181e237df7d89a947905d745bbaf159b653021a09583eb036e99a664d2226b1aaa6f603f52fe35b4b31c38e9ed334fd87747deccff440e3e6 OP_CHECKSIG",
            "desc": "pk(0435a753fbffc8f5d181e237df7d89a947905d745bbaf159b653021a09583eb036e99a664d2226b1aaa6f603f52fe35b4b31c38e9ed334fd87747deccff440e3e6)#y79q099a",
            "hex": "410435a753fbffc8f5d181e237df7d89a947905d745bbaf159b653021a09583eb036e99a664d2226b1aaa6f603f52fe35b4b31c38e9ed334fd87747deccff440e3e6ac",
            "type": "pubkey"
          }
        }
      ],
      "hex": "01000000010000000000000000000000000000000000000000000000000000000000000000ffffffff0804ffff001d02520bffffffff0100f2052a0100000043410435a753fbffc8f5d181e237df7d89a947905d745bbaf159b653021a09583eb036e99a664d2226b1aaa6f603f52fe35b4b31c38e9ed334fd87747deccff440e3e6ac00000000"
    }
  ]
}