{
  "hash": "00000000d0743dabf49b4766bed6ef0662bfc6f48f2fcf02bb5cb2a8054b81fe",
  "confirmations": 47679,
  "height": 5419,
  "version": 1,
  "versionHex": "00000001",
  "merkleroot": "8e3f985e117308b3d2ad7da7d3896c5d6c6e1b6fe50223e60e27bb6895abe917",
  "time": 1235454929,
  "mediantime": 1235450304,
  "nonce": 57499553,
  "bits": "1d00ffff",
  "difficulty": 1,
  "chainwork": "0000000000000000000000000000000000000000000000000000152c152c152c",
  "nTx": 1,
  "previousblockhash": "00000000afda0e79f404bd04f14f6450eca2a9cb1cac617953e1841a4afa4e65",
  "nextblockhash": "00000000fd0d2373e1a563ec2744aa8527f78939101059cca2330c1fd7a86d31",
  "strippedsize": 216,
  "size": 216,
  "weight": 864,
  "tx": [
    {
      "txid": "8e3f985e117308b3d2ad7da7d3896c5d6c6e1b6fe50223e60e27bb6895abe917",
      "hash": "8e3f985e117308b3d2ad7da7d3896c5d6c6e1b6fe50223e60e27bb6895abe917",
      "version": 1,
      "size": 135,
      "vsize": 135,
      "weight": 540,
      "locktime": 0,
      "vin": [
        {
          "coinbase": "04ffff001d02ee06",
          "sequence": 4294967295
        }
      ],
      "vout": [
        {
          "value": 50.0,
          "n": 0,
          "scriptPubKey": {
            "asm": "0446cfbfb6a632f352ad64e539353fe6113c90df0e5c78380653e73333e860a6402ccdb74fb2e92462d3805813a6470d5fef20b6d307033319743b0a1ae1adcc2a OP_CHECKSIG",
            "desc": "pk(0446cfbfb6a632f352ad64e539353fe6113c90df0e5c78380653e73333e860a6402ccdb74fb2e92462d3805813a6470d5fef20b6d307033319743b0a1ae1adcc2a)#fvgj9y5l",
            "hex": "410446cfbfb6a632f352ad64e539353fe6113c90df0e5c78380653e73333e860a6402ccdb74fb2e92462d3805813a6470d5fef20b6d307033319743b0a1ae1adcc2aac",
            "type": "pubkey"
          }
        }
      ],
      "hex": "01000000010000000000000000000000000000000000000000000000000000000000000000ffffffff0804ffff001d02ee06ffffffff0100f2052a0100000043410446cfbfb6a632f352ad64e539353fe6113c90df0e5c78380653e73333e860a6402ccdb74fb2e92462d3805813a6470d5fef20b6d307033319743b0a1ae1adcc2aac00000000"
    }
  ]
}