{
  "hash": "00000000376773e9cc30f6b052dde766ae11ac33aa779dea7c1c1405db2a3e68",
  "confirmations": 44375,
  "height": 8723,
  "version": 1,
  "versionHex": "00000001",
  "merkleroot": "82b967027d8af94d1a04fbb3a86f1b4a1a1f6c0cffd97e476f5b8c669c2db146",
  "time": 1238038413,
  "mediantime": 1238034647,
  "nonce": 127560311,
  "bits": "1d00ffff",
  "difficulty": 1,
  "chainwork": "0000000000000000000000000000000000000000000000000000221422142214",
  "nTx": 1,
  "previousblockhash": "00000000e93a18e6d4acbaa5fec37dfbdf2d4109efbe8ea2d962e4c922565252",
  "nextblockhash": "00000000b2eb9ca958d41e99e8d2adddd716526882ae94b7c40201d9b94f5f13",
  "strippedsize": 216,
  "size": 216,
  "weight": 864,
  "tx": [
    {
      "txid": "82b967027d8af94d1a04fbb3a86f1b4a1a1f6c0cffd97e476f5b8c669c2db146",
      "hash": "82b967027d8af94d1a04fbb3a86f1b4a1a1f6c0cffd97e476f5b8c669c2db146",
      "version": 1,
      "size": 135,
      "vsize": 135,
      "weight": 540,
      "locktime": 0,
      "vin": [
        {
          "coinbase": "04ffff001d02d702",
          "sequence": 4294967295
        }
      ],
      "vout": [
        {
          "value": 50.0,
          "n": 0,
          "scriptPubKey": {
            "asm": "0425b7a3aedd4c76294f2494f20a5f36fbdf794f8f4c0af34a3b509affc951a1a77d77e5ed074180ca8fa89714710d740c05d105294e3ea65ef1279cf825505714 OP_CHECKSIG",
            "desc": "pk(0425b7a3aedd4c76294f2494f20a5f36fbdf794f8f4c0af34a3b509affc951a1a77d77e5ed074180ca8fa89714710d740c05d105294e3ea65ef1279cf825505714)#x3zdxl6d",
            "hex": "410425b7a3aedd4c76294f2494f20a5f36fbdf794f8f4c0af34a3b509affc951a1a77d77e5ed074180ca8fa89714710d740c05d105294e3ea65ef1279cf825505714ac",
            "type": "pubkey"
          }
        }
      ],
      "hex": "01000000010000000000000000000000000000000000000000000000000000000000000000ffffffff0804ffff001d02d702ffffffff0100f2052a0100000043410425b7a3aedd4c76294f2494f20a5f36fbdf794f8f4c0af34a3b509affc951a1a77d77e5ed074180ca8fa89714710d740c05d105294e3ea65ef1279cf825505714ac00000000"
    }
  ]
}