{
  "hash": "00000000bffb7cc82f9914185fbc5b7afe25f4282db8d3228fea67da7b23e3d1",
  "confirmations": 50603,
  "height": 2495,
  "version": 1,
  "versionHex": "00000001",
  "merkleroot": "89b64ba839fe2c59e6dcd02d649b8bbc7facc6d2b24469790f368c0b52eb7b19",
  "time": 1233418917,
  "mediantime": 1233415848,
  "nonce": 1892356395,
  "bits": "1d00ffff",
  "difficulty": 1,
  "chainwork": "000000000000000000000000000000000000000000000000000009c009c009c0",
  "nTx": 1,
  "previousblockhash": "00000000976ea48290f62762637a1c9a1d6abe361d9f96dfe72dfee44abde5e9",
  "nextblockhash": "0000000070e67f9dfd07af69263b1f7d9e943c5665cd5f45ab187504d357f251",
  "strippedsize": 216,
  "size": 216,
  "weight": 864,
  "tx": [
    {
      "txid": "89b64ba839fe2c59e6dcd02d649b8bbc7facc6d2b24469790f368c0b52eb7b19",
      "hash": "89b64ba839fe2c59e6dcd02d649b8bbc7facc6d2b24469790f368c0b52eb7b19",
      "version": 1,
      "size": 135,
      "vsize": 135,
      "weight": 540,
      "locktime": 0,
      "vin": [
        {
          "coinbase": "04ffff001d02fd00",
          "sequence": 4294967295
        }
      ],
      "vout": [
        {
          "value": 50.0,
          "n": 0,
          "scriptPubKey": {
            "asm": "0472bc72c97ad6e45ce450fe6fb94cc82225b37ca26e2f0caaff5616233a2347e745b96fa6c3754c39b81c66439fc8f8e0530c28d3618ee251bb62a5800fed1ace OP_CHECKSIG",
            "desc": "pk(0472bc72c97ad6e45ce450fe6fb94cc82225b37ca26e2f0caaff5616233a2347e745b96fa6c3754c39b81c66439fc8f8e0530c28d3618ee251bb62a5800fed1ace)#hs8j9u3y",
            "hex": "410472bc72c97ad6e45ce450fe6fb94cc82225b37ca26e2f0caaff5616233a2347e745b96fa6c3754c39b81c66439fc8f8e0530c28d3618ee251bb62a5800fed1aceac",
            "type": "pubkey"
          }
        }
      ],
      "hex": "01000000010000000000000000000000000000000000000000000000000000000000000000ffffffff0804ffff001d02fd00ffffffff0100f2052a0100000043410472bc72c97ad6e45ce450fe6fb94cc82225b37ca26e2f0caaff5616233a2347e745b96fa6c3754c39b81c66439fc8f8e0530c28d3618ee251bb62a5800fed1aceac00000000"
    }
  ]
}