{
  "hash": "00000000639da7c336f301c900371d7c5ba695206ad504853dc947b9084e189d",
  "confirmations": 48291,
  "height": 4807,
  "version": 1,
  "versionHex": "00000001",
  "merkleroot": "1659fdea4e0803b397bcea37a967f673ca4638dbfa86a4b0aeae1d0fea0b8ca5",
  "time": 1235004874,
  "mediantime": 1235001167,
  "nonce": 2821278521,
  "bits": "1d00ffff",
  "difficulty": 1,
  "chainwork": "000000000000000000000000000000000000000000000000000012c812c812c8",
  "nTx": 1,
  "previousblockhash": "00000000a18ba4ac4f021d33ec832dc10c79f888b5be636d25e01e5c4141d68e",
  "nextblockhash": "0000000009c3629042caecf2090a9e851c79c2b2f78fd72a5b80a5d47f6320f1",
  "strippedsize": 216,
  "size": 216,
  "weight": 864,
  "tx": [
    {
      "txid": "1659fdea4e0803b397bcea37a967f673ca4638dbfa86a4b0aeae1d0fea0b8ca5",
      "hash": "1659fdea4e0803b397bcea37a967f673ca4638dbfa86a4b0aeae1d0fea0b8ca5",
      "version": 1,
      "size": 135,
      "vsize": 135,
      "weight": 540,
      "locktime": 0,
      "vin": [
        {
          "coinbase": "04ffff001d027b04",
          "sequence": 4294967295
        }
      ],
      "vout": [
        {
          "value": 50.0,
          "n": 0,
          "scriptPubKey": {
            "asm": "04c3f9a17ef849776efc4a990e7a8bb1912522d1917ad44c69d601a2705c21ceecccdca9f5fbf802de14c6aba7863e8270234d171e09ba6096f0ae71af7a1b7c08 OP_CHECKSIG",
            "desc": "pk(04c3f9a17ef849776efc4a990e7a8bb1912522d1917ad44c69d601a2705c21ceecccdca9f5fbf802de14c6aba7863e8270234d171e09ba6096f0ae71af7a1b7c08)#rnmg97sj",
            "hex": "4104c3f9a17ef849776efc4a990e7a8bb1912522d1917ad44c69d601a2705c21ceecccdca9f5fbf802de14c6aba7863e8270234d171e09ba6096f0ae71af7a1b7c08ac",
            "type": "pubkey"
          }
        }
      ],
      "hex": "01000000010000000000000000000000000000000000000000000000000000000000000000ffffffff0804ffff001d027b04ffffffff0100f2052a01000000434104c3f9a17ef849776efc4a990e7a8bb1912522d1917ad44c69d601a2705c21ceecccdca9f5fbf802de14c6aba7863e8270234d171e09ba6096f0ae71af7a1b7c08ac00000000"
    }
  ]
}