{
  "hash": "000000000b1bf41e99038c31539269f799725cb56bff67f7a2492cad380d36ac",
  "confirmations": 48198,
  "height": 4900,
  "version": 1,
  "versionHex": "00000001",
  "merkleroot": "3be0f0f6a8d337756ea1aa9920e8fec0aca6dd9b7efb7444fdf84e5df09a25e8",
  "time": 1235069935,
  "mediantime": 1235067300,
  "nonce": 2452382980,
  "bits": "1d00ffff",
  "difficulty": 1,
  "chainwork": "0000000000000000000000000000000000000000000000000000132513251325",
  "nTx": 1,
  "previousblockhash": "000000006c7eddb91900bfa2837a4f594e519ecf2f0b5ace065fbb53a0ebdcdb",
  "nextblockhash": "00000000c6303c4a85f581fc12d76a945055d2134c18f7613493d94c972d5133",
  "strippedsize": 216,
  "size": 216,
  "weight": 864,
  "tx": [
    {
      "txid": "3be0f0f6a8d337756ea1aa9920e8fec0aca6dd9b7efb7444fdf84e5df09a25e8",
      "hash": "3be0f0f6a8d337756ea1aa9920e8fec0aca6dd9b7efb7444fdf84e5df09a25e8",
      "version": 1,
      "size": 135,
      "vsize": 135,
      "weight": 540,
      "locktime": 0,
      "vin": [
        {
          "coinbase": "04ffff001d02a205",
          "sequence": 4294967295
        }
      ],
      "vout": [
        {
          "value": 50.0,
          "n": 0,
          "scriptPubKey": {
            "asm": "047813fef4c8fd28835b5537c3d7d7a07dc9ec4a41b821f0afba259a85b511f3158545feb745585c619fa10f658588891db8b45ae896f94978df5c4be10f24268d OP_CHECKSIG",
            "desc": "pk(047813fef4c8fd28835b5537c3d7d7a07dc9ec4a41b821f0afba259a85b511f3158545feb745585c619fa10f658588891db8b45ae896f94978df5c4be10f24268d)#e34ap62n",
            "hex": "41047813fef4c8fd28835b5537c3d7d7a07dc9ec4a41b821f0afba259a85b511f3158545feb745585c619fa10f658588891db8b45ae896f94978df5c4be10f24268dac",
            "type": "pubkey"
          }
        }
      ],
      "hex": "01000000010000000000000000000000000000000000000000000000000000000000000000ffffffff0804ffff001d02a205ffffffff0100f2052a010000004341047813fef4c8fd28835b5537c3d7d7a07dc9ec4a41b821f0afba259a85b511f3158545feb745585c619fa10f658588891db8b45ae896f94978df5c4be10f24268dac00000000"
    }
  ]
}