{
  "hash": "000000004b3de4b2d57b7945c0ed21980aa745db49ac039cb3ab27db972497d8",
  "confirmations": 47718,
  "height": 5380,
  "version": 1,
  "versionHex": "00000001",
  "merkleroot": "f6bacc8dc3f87660b54921da2193a59b01f8f4b3ee13eecb358933ab3082c169",
  "time": 1235423756,
  "mediantime": 1235420195,
  "nonce": 225856298,
  "bits": "1d00ffff",
  "difficulty": 1,
  "chainwork": "0000000000000000000000000000000000000000000000000000150515051505",
  "nTx": 1,
  "previousblockhash": "0000000066980737855bff84002f94764abd800b953dd81f2ebe90a6ff5c0aef",
  "nextblockhash": "00000000b9244e69cd68d3c510602c033b92bac6e517a37794c211f7b7007798",
  "strippedsize": 216,
  "size": 216,
  "weight": 864,
  "tx": [
    {
      "txid": "f6bacc8dc3f87660b54921da2193a59b01f8f4b3ee13eecb358933ab3082c169",
      "hash": "f6bacc8dc3f87660b54921da2193a59b01f8f4b3ee13eecb358933ab3082c169",
      "version": 1,
      "size": 135,
      "vsize": 135,
      "weight": 540,
      "locktime": 0,
      "vin": [
        {
          "coinbase": "04ffff001d025a03",
          "sequence": 4294967295
        }
      ],
      "vout": [
        {
          "value": 50.0,
          "n": 0,
          "scriptPubKey": {
            "asm": "042ae532e89e9977423d4f622bb455034109a74c2757755da6135bbb055ff219f7bfed8fb223327c204907ea9f2fef591a0c33800ee551f19baa626807472481c6 OP_CHECKSIG",
            "desc": "pk(042ae532e89e9977423d4f622bb455034109a74c2757755da6135bbb055ff219f7bfed8fb223327c204907ea9f2fef591a0c33800ee551f19baa626807472481c6)#ez55n0wh",
            "hex": "41042ae532e89e9977423d4f622bb455034109a74c2757755da6135bbb055ff219f7bfed8fb223327c204907ea9f2fef591a0c33800ee551f19baa626807472481c6ac",
            "type": "pubkey"
          }
        }
      ],
      "hex": "01000000010000000000000000000000000000000000000000000000000000000000000000ffffffff0804ffff001d025a03ffffffff0100f2052a010000004341042ae532e89e9977423d4f622bb455034109a74c2757755da6135bbb055ff219f7bfed8fb223327c204907ea9f2fef591a0c33800ee551f19baa626807472481c6ac00000000"
    }
  ]
}