{
  "hash": "000000004bca7349d50dfe2f3330ab18527bcc1ae4535b557032e70eebd50e8c",
  "confirmations": 46251,
  "height": 6847,
  "version": 1,
  "versionHex": "00000001",
  "merkleroot": "e475241859e35fa2007ac6ba68ee93c60e7655b9df78d177961a4300d2a7a22e",
  "time": 1236592051,
  "mediantime": 1236587348,
  "nonce": 129557138,
  "bits": "1d00ffff",
  "difficulty": 1,
  "chainwork": "00000000000000000000000000000000000000000000000000001ac01ac01ac0",
  "nTx": 1,
  "previousblockhash": "00000000c22abfe5235fc0782a817fb6efc1c52d82fa42aa9ee60cb6de753282",
  "nextblockhash": "0000000078f8f28a56ef1345b070eb3ffbf432828feb05ad51db938022d8b88e",
  "strippedsize": 215,
  "size": 215,
  "weight": 860,
  "tx": [
    {
      "txid": "e475241859e35fa2007ac6ba68ee93c60e7655b9df78d177961a4300d2a7a22e",
      "hash": "e475241859e35fa2007ac6ba68ee93c60e7655b9df78d177961a4300d2a7a22e",
      "version": 1,
      "size": 134,
      "vsize": 134,
      "weight": 536,
      "locktime": 0,
      "vin": [
        {
          "coinbase": "04ffff001d0153",
          "sequence": 4294967295
        }
      ],
      "vout": [
        {
          "value": 50.0,
          "n": 0,
          "scriptPubKey": {
            "asm": "040bb2cd0b2e415ef2f57e5beee5b3db00547e289d7864644959eab9f7b52dda8d832aac65af59b9f529515a0853b667f71f46db182c95a85d472e08b398710416 OP_CHECKSIG",
            "desc": "pk(040bb2cd0b2e415ef2f57e5beee5b3db00547e289d7864644959eab9f7b52dda8d832aac65af59b9f529515a0853b667f71f46db182c95a85d472e08b398710416)#0w6psq2l",
            "hex": "41040bb2cd0b2e415ef2f57e5beee5b3db00547e289d7864644959eab9f7b52dda8d832aac65af59b9f529515a0853b667f71f46db182c95a85d472e08b398710416ac",
            "type": "pubkey"
          }
        }
      ],
      "hex": "01000000010000000000000000000000000000000000000000000000000000000000000000ffffffff0704ffff001d0153ffffffff0100f2052a010000004341040bb2cd0b2e415ef2f57e5beee5b3db00547e289d7864644959eab9f7b52dda8d832aac65af59b9f529515a0853b667f71f46db182c95a85d472e08b398710416ac00000000"
    }
  ]
}