{
  "hash": "00000000f5b28582ec2c9a0dfda17a1d79b7d3832e135db5d9ca537fa8c471eb",
  "confirmations": 45958,
  "height": 7140,
  "version": 1,
  "versionHex": "00000001",
  "merkleroot": "b83a492958eed5d1b21b2628a4fe559793369021d94de96fdb645cb513c94de8",
  "time": 1236826031,
  "mediantime": 1236821174,
  "nonce": 2443597620,
  "bits": "1d00ffff",
  "difficulty": 1,
  "chainwork": "00000000000000000000000000000000000000000000000000001be51be51be5",
  "nTx": 1,
  "previousblockhash": "000000007ba29cd871f3b083f3c742a38b5c23c16756bb9d7b0753d0797104d7",
  "nextblockhash": "00000000d483f00655cae8c9467bb5d77469b61d64a7f79dd6d53c7b20a0b6bb",
  "strippedsize": 216,
  "size": 216,
  "weight": 864,
  "tx": [
    {
      "txid": "b83a492958eed5d1b21b2628a4fe559793369021d94de96fdb645cb513c94de8",
      "hash": "b83a492958eed5d1b21b2628a4fe559793369021d94de96fdb645cb513c94de8",
      "version": 1,
      "size": 135,
      "vsize": 135,
      "weight": 540,
      "locktime": 0,
      "vin": [
        {
          "coinbase": "04ffff001d02d104",
          "sequence": 4294967295
        }
      ],
      "vout": [
        {
          "value": 50.0,
          "n": 0,
          "scriptPubKey": {
            "asm": "048bca50a154c0992a17617d6b007ea29cf310caa7d6aa8be821a975ef8b3b3cd6278d1f27d8158c4bbbe41c765e065c1a8af7c054ca539f09d0b175a568ed8e47 OP_CHECKSIG",
            "desc": "pk(048bca50a154c0992a17617d6b007ea29cf310caa7d6aa8be821a975ef8b3b3cd6278d1f27d8158c4bbbe41c765e065c1a8af7c054ca539f09d0b175a568ed8e47)#pjm4nfu3",
            "hex": "41048bca50a154c0992a17617d6b007ea29cf310caa7d6aa8be821a975ef8b3b3cd6278d1f27d8158c4bbbe41c765e065c1a8af7c054ca539f09d0b175a568ed8e47ac",
            "type": "pubkey"
          }
        }
      ],
      "hex": "01000000010000000000000000000000000000000000000000000000000000000000000000ffffffff0804ffff001d02d104ffffffff0100f2052a010000004341048bca50a154c0992a17617d6b007ea29cf310caa7d6aa8be821a975ef8b3b3cd6278d1f27d8158c4bbbe41c765e065c1a8af7c054ca539f09d0b175a568ed8e47ac00000000"
    }
  ]
}