{
  "hash": "000000002b50d5963806b024fa09d296a3d8762713536eba9e5bdfa7596f814a",
  "confirmations": 52029,
  "height": 201,
  "version": 1,
  "versionHex": "00000001",
  "merkleroot": "864b69193eb78695cc6990d65c37877ede30dbddbe1a5a81a5a0bfb370c6ce1d",
  "time": 1231753837,
  "mediantime": 1231750046,
  "nonce": 4003448086,
  "bits": "1d00ffff",
  "difficulty": 1,
  "chainwork": "000000000000000000000000000000000000000000000000000000ca00ca00ca",
  "nTx": 1,
  "previousblockhash": "000000008f1a7008320c16b8402b7f11e82951f44ca2663caf6860ab2eeef320",
  "nextblockhash": "0000000009c730652f9bacbf750723245979b5978dd8332fb3581a90c3a5bda8",
  "strippedsize": 215,
  "size": 215,
  "weight": 860,
  "tx": [
    {
      "txid": "864b69193eb78695cc6990d65c37877ede30dbddbe1a5a81a5a0bfb370c6ce1d",
      "hash": "864b69193eb78695cc6990d65c37877ede30dbddbe1a5a81a5a0bfb370c6ce1d",
      "version": 1,
      "size": 134,
      "vsize": 134,
      "weight": 536,
      "locktime": 0,
      "vin": [
        {
          "coinbase": "04ffff001d013b",
          "sequence": 4294967295
        }
      ],
      "vout": [
        {
          "value": 50.0,
          "n": 0,
          "scriptPubKey": {
            "asm": "04caa6b189180c0135f5ffc43a41b5bec593d7baf94240a3076ffce63679e550df3c01ce91c1bfb82498a3f4fecd884d137101bbcdd70dbdd7b457a63252b614f2 OP_CHECKSIG",
            "desc": "pk(04caa6b189180c0135f5ffc43a41b5bec593d7baf94240a3076ffce63679e550df3c01ce91c1bfb82498a3f4fecd884d137101bbcdd70dbdd7b457a63252b614f2)#p6np8t5l",
            "hex": "4104caa6b189180c0135f5ffc43a41b5bec593d7baf94240a3076ffce63679e550df3c01ce91c1bfb82498a3f4fecd884d137101bbcdd70dbdd7b457a63252b614f2ac",
            "type": "pubkey"
          }
        }
      ],
      "hex": "01000000010000000000000000000000000000000000000000000000000000000000000000ffffffff0704ffff001d013bffffffff0100f2052a01000000434104caa6b189180c0135f5ffc43a41b5bec593d7baf94240a3076ffce63679e550df3c01ce91c1bfb82498a3f4fecd884d137101bbcdd70dbdd7b457a63252b614f2ac00000000"
    }
  ]
}