{
  "hash": "000000000f74612866d64e628be188be845fb0a1fd8a0842ff4c7dd44fd1565d",
  "confirmations": 51667,
  "height": 1431,
  "version": 1,
  "versionHex": "00000001",
  "merkleroot": "9f094c9a5a93cabb8db5261cd598a3b8e05082dea00cb63b02ba873625205df2",
  "time": 1232738035,
  "mediantime": 1232735393,
  "nonce": 735780628,
  "bits": "1d00ffff",
  "difficulty": 1,
  "chainwork": "0000000000000000000000000000000000000000000000000000059805980598",
  "nTx": 1,
  "previousblockhash": "000000000009606d829b157912edb060c406b519fb2bfcc1078c196b69c67e49",
  "nextblockhash": "0000000067581e59bebbbca4fbf396f7395cb89e4470d3875fc3d28198b464b8",
  "strippedsize": 215,
  "size": 215,
  "weight": 860,
  "tx": [
    {
      "txid": "9f094c9a5a93cabb8db5261cd598a3b8e05082dea00cb63b02ba873625205df2",
      "hash": "9f094c9a5a93cabb8db5261cd598a3b8e05082dea00cb63b02ba873625205df2",
      "version": 1,
      "size": 134,
      "vsize": 134,
      "weight": 536,
      "locktime": 0,
      "vin": [
        {
          "coinbase": "04ffff001d0162",
          "sequence": 4294967295
        }
      ],
      "vout": [
        {
          "value": 50.0,
          "n": 0,
          "scriptPubKey": {
            "asm": "049d758802b3748575ab9baf178acf4d20474b29d42c5b852fe932228ad2360412efcaf30f811ad156d74291819318ba00fb68661d935423e15f753950eb51fccb OP_CHECKSIG",
            "desc": "pk(049d758802b3748575ab9baf178acf4d20474b29d42c5b852fe932228ad2360412efcaf30f811ad156d74291819318ba00fb68661d935423e15f753950eb51fccb)#k5tsgfzs",
            "hex": "41049d758802b3748575ab9baf178acf4d20474b29d42c5b852fe932228ad2360412efcaf30f811ad156d74291819318ba00fb68661d935423e15f753950eb51fccbac",
            "type": "pubkey"
          }
        }
      ],
      "hex": "01000000010000000000000000000000000000000000000000000000000000000000000000ffffffff0704ffff001d0162ffffffff0100f2052a010000004341049d758802b3748575ab9baf178acf4d20474b29d42c5b852fe932228ad2360412efcaf30f811ad156d74291819318ba00fb68661d935423e15f753950eb51fccbac00000000"
    }
  ]
}