{
  "hash": "00000000f26dc0abcf26f103471831cf37ef77e3487d167498f3cfadeeaaea7d",
  "confirmations": 43829,
  "height": 9269,
  "version": 1,
  "versionHex": "00000001",
  "merkleroot": "0cfa952b0540b296105ca5610fb978c46c26bd6f7f4d2feb166e515d963bf503",
  "time": 1238449812,
  "mediantime": 1238445216,
  "nonce": 151070993,
  "bits": "1d00ffff",
  "difficulty": 1,
  "chainwork": "0000000000000000000000000000000000000000000000000000243624362436",
  "nTx": 1,
  "previousblockhash": "00000000162e6210296363f147ab51bffcb993e3d4adf2ff6b94ccd437cd72ea",
  "nextblockhash": "00000000a118e4a28b9aaca70cca6195f0ce0a5092325dbf32060c5c53d6ec33",
  "strippedsize": 215,
  "size": 215,
  "weight": 860,
  "tx": [
    {
      "txid": "0cfa952b0540b296105ca5610fb978c46c26bd6f7f4d2feb166e515d963bf503",
      "hash": "0cfa952b0540b296105ca5610fb978c46c26bd6f7f4d2feb166e515d963bf503",
      "version": 1,
      "size": 134,
      "vsize": 134,
      "weight": 536,
      "locktime": 0,
      "vin": [
        {
          "coinbase": "04ffff001d012c",
          "sequence": 4294967295
        }
      ],
      "vout": [
        {
          "value": 50.0,
          "n": 0,
          "scriptPubKey": {
            "asm": "0467afa020c27b68d5946591cec08fde01eb8bd41110794304de1395b7bbf50a5ccff8485708c585ab7f8a3ac0d5d2868200a47e6285ac8c820e1b23adb8eea670 OP_CHECKSIG",
            "desc": "pk(0467afa020c27b68d5946591cec08fde01eb8bd41110794304de1395b7bbf50a5ccff8485708c585ab7f8a3ac0d5d2868200a47e6285ac8c820e1b23adb8eea670)#kleut9hu",
            "hex": "410467afa020c27b68d5946591cec08fde01eb8bd41110794304de1395b7bbf50a5ccff8485708c585ab7f8a3ac0d5d2868200a47e6285ac8c820e1b23adb8eea670ac",
            "type": "pubkey"
          }
        }
      ],
      "hex": "01000000010000000000000000000000000000000000000000000000000000000000000000ffffffff0704ffff001d012cffffffff0100f2052a0100000043410467afa020c27b68d5946591cec08fde01eb8bd41110794304de1395b7bbf50a5ccff8485708c585ab7f8a3ac0d5d2868200a47e6285ac8c820e1b23adb8eea670ac00000000"
    }
  ]
}