{
  "hash": "00000000a0fa43da5b739b04bf5b561acab1e19617d28b334853101f59e0fc90",
  "confirmations": 48169,
  "height": 4929,
  "version": 1,
  "versionHex": "00000001",
  "merkleroot": "d4098f27ee7d5dc8c9c783fab2d2f32a3396179911ff8b76b4dd55c92d971e10",
  "time": 1235090642,
  "mediantime": 1235086022,
  "nonce": 1674181934,
  "bits": "1d00ffff",
  "difficulty": 1,
  "chainwork": "0000000000000000000000000000000000000000000000000000134213421342",
  "nTx": 1,
  "previousblockhash": "00000000780a852aa74c8ecf8efa643f89b5a4bceebc667077fead3d7068870a",
  "nextblockhash": "00000000696b0f25ca63595ee901c059ca94ebb99ce16a84c421a8565f86c77a",
  "strippedsize": 216,
  "size": 216,
  "weight": 864,
  "tx": [
    {
      "txid": "d4098f27ee7d5dc8c9c783fab2d2f32a3396179911ff8b76b4dd55c92d971e10",
      "hash": "d4098f27ee7d5dc8c9c783fab2d2f32a3396179911ff8b76b4dd55c92d971e10",
      "version": 1,
      "size": 135,
      "vsize": 135,
      "weight": 540,
      "locktime": 0,
      "vin": [
        {
          "coinbase": "04ffff001d021d06",
          "sequence": 4294967295
        }
      ],
      "vout": [
        {
          "value": 50.0,
          "n": 0,
          "scriptPubKey": {
            "asm": "04b29c2f1c8d285af9f5d7c17a94e1fab04a2dde74ffd1d6661bb96ca99616a51f10c267ca0c266e8452863293bb6b43d1c8dd3e8c3f316742ed1e1f40cf3b6da6 OP_CHECKSIG",
            "desc": "pk(04b29c2f1c8d285af9f5d7c17a94e1fab04a2dde74ffd1d6661bb96ca99616a51f10c267ca0c266e8452863293bb6b43d1c8dd3e8c3f316742ed1e1f40cf3b6da6)#wf3ewx9y",
            "hex": "4104b29c2f1c8d285af9f5d7c17a94e1fab04a2dde74ffd1d6661bb96ca99616a51f10c267ca0c266e8452863293bb6b43d1c8dd3e8c3f316742ed1e1f40cf3b6da6ac",
            "type": "pubkey"
          }
        }
      ],
      "hex": "01000000010000000000000000000000000000000000000000000000000000000000000000ffffffff0804ffff001d021d06ffffffff0100f2052a01000000434104b29c2f1c8d285af9f5d7c17a94e1fab04a2dde74ffd1d6661bb96ca99616a51f10c267ca0c266e8452863293bb6b43d1c8dd3e8c3f316742ed1e1f40cf3b6da6ac00000000"
    }
  ]
}