{
  "hash": "00000000dc2953ccf1233a13f4e139e52bdfb500d53cf65a5f7498ed8161fed1",
  "confirmations": 48014,
  "height": 5084,
  "version": 1,
  "versionHex": "00000001",
  "merkleroot": "269fc82096fe08a803140b696475ef8dbe7a3fe6eccdd0e6f2cca092b9444e67",
  "time": 1235204548,
  "mediantime": 1235200832,
  "nonce": 71329380,
  "bits": "1d00ffff",
  "difficulty": 1,
  "chainwork": "000000000000000000000000000000000000000000000000000013dd13dd13dd",
  "nTx": 1,
  "previousblockhash": "00000000db884a1624191f86c836671aae80346a5bd3ec4eb88885650f9f88ec",
  "nextblockhash": "00000000140e7c8288bfab47c59d714ddb74280c3ba74afac649ebb9ba253252",
  "strippedsize": 215,
  "size": 215,
  "weight": 860,
  "tx": [
    {
      "txid": "269fc82096fe08a803140b696475ef8dbe7a3fe6eccdd0e6f2cca092b9444e67",
      "hash": "269fc82096fe08a803140b696475ef8dbe7a3fe6eccdd0e6f2cca092b9444e67",
      "version": 1,
      "size": 134,
      "vsize": 134,
      "weight": 536,
      "locktime": 0,
      "vin": [
        {
          "coinbase": "04ffff001d010e",
          "sequence": 4294967295
        }
      ],
      "vout": [
        {
          "value": 50.0,
          "n": 0,
          "scriptPubKey": {
            "asm": "04cd20e9b004a96735b73a77d2d7a990b9db881ad3d229dbd2e2ac8035edd4856bb330da335c27efbf0edf7a67efe8df7beb10d7e1029b46b507ba184a0a15701b OP_CHECKSIG",
            "desc": "pk(04cd20e9b004a96735b73a77d2d7a990b9db881ad3d229dbd2e2ac8035edd4856bb330da335c27efbf0edf7a67efe8df7beb10d7e1029b46b507ba184a0a15701b)#7cputajm",
            "hex": "4104cd20e9b004a96735b73a77d2d7a990b9db881ad3d229dbd2e2ac8035edd4856bb330da335c27efbf0edf7a67efe8df7beb10d7e1029b46b507ba184a0a15701bac",
            "type": "pubkey"
          }
        }
      ],
      "hex": "01000000010000000000000000000000000000000000000000000000000000000000000000ffffffff0704ffff001d010effffffff0100f2052a01000000434104cd20e9b004a96735b73a77d2d7a990b9db881ad3d229dbd2e2ac8035edd4856bb330da335c27efbf0edf7a67efe8df7beb10d7e1029b46b507ba184a0a15701bac00000000"
    }
  ]
}