{
  "hash": "00000000bd044e01e409fe3e81f46d347684af1315802b0ace861d869bc818ed",
  "confirmations": 44615,
  "height": 8483,
  "version": 1,
  "versionHex": "00000001",
  "merkleroot": "d13278872a6163066a0e86fcfb832a26cc64e349154f5cd24d2ce5a49d259d31",
  "time": 1237857537,
  "mediantime": 1237851528,
  "nonce": 2975932194,
  "bits": "1d00ffff",
  "difficulty": 1,
  "chainwork": "0000000000000000000000000000000000000000000000000000212421242124",
  "nTx": 1,
  "previousblockhash": "0000000066ecd95009b387adb205ff97f50ace90b8bfd79825346336217b5ed7",
  "nextblockhash": "000000005f8f454363f7fd78dd2bbff401a5d865639fddf48308014a936acd32",
  "strippedsize": 216,
  "size": 216,
  "weight": 864,
  "tx": [
    {
      "txid": "d13278872a6163066a0e86fcfb832a26cc64e349154f5cd24d2ce5a49d259d31",
      "hash": "d13278872a6163066a0e86fcfb832a26cc64e349154f5cd24d2ce5a49d259d31",
      "version": 1,
      "size": 135,
      "vsize": 135,
      "weight": 540,
      "locktime": 0,
      "vin": [
        {
          "coinbase": "04ffff001d026307",
          "sequence": 4294967295
        }
      ],
      "vout": [
        {
          "value": 50.0,
          "n": 0,
          "scriptPubKey": {
            "asm": "047d351e7793c58b123644e34d28126f5aff0b1edfe55a837dfaba22c003de862aeb5e3fbca1dc681f93a5f3531b4ba87ff8714a12a9daad96128b319c1efd1188 OP_CHECKSIG",
            "desc": "pk(047d351e7793c58b123644e34d28126f5aff0b1edfe55a837dfaba22c003de862aeb5e3fbca1dc681f93a5f3531b4ba87ff8714a12a9daad96128b319c1efd1188)#yy04dcjm",
            "hex": "41047d351e7793c58b123644e34d28126f5aff0b1edfe55a837dfaba22c003de862aeb5e3fbca1dc681f93a5f3531b4ba87ff8714a12a9daad96128b319c1efd1188ac",
            "type": "pubkey"
          }
        }
      ],
      "hex": "01000000010000000000000000000000000000000000000000000000000000000000000000ffffffff0804ffff001d026307ffffffff0100f2052a010000004341047d351e7793c58b123644e34d28126f5aff0b1edfe55a837dfaba22c003de862aeb5e3fbca1dc681f93a5f3531b4ba87ff8714a12a9daad96128b319c1efd1188ac00000000"
    }
  ]
}