{
  "hash": "0000000026489f015f397719b8b0431ce91a3f40f4f2c9dce3bf4081d61bfc46",
  "confirmations": 50175,
  "height": 2923,
  "version": 1,
  "versionHex": "00000001",
  "merkleroot": "2d621dd379390b6b20dbb542594ce1a428ee2c938d5d1bbd2ce69d8031dadd48",
  "time": 1233705540,
  "mediantime": 1233704478,
  "nonce": 164303104,
  "bits": "1d00ffff",
  "difficulty": 1,
  "chainwork": "00000000000000000000000000000000000000000000000000000b6c0b6c0b6c",
  "nTx": 1,
  "previousblockhash": "00000000d7d6bd925a0071d9fb3264f061f3fc4c912a26d8b1f9773eb8fbebda",
  "nextblockhash": "0000000011b6a8aab82d7be7642ea9c909b2a6e783e5b96de4a77b9de04f5c02",
  "strippedsize": 215,
  "size": 215,
  "weight": 860,
  "tx": [
    {
      "txid": "2d621dd379390b6b20dbb542594ce1a428ee2c938d5d1bbd2ce69d8031dadd48",
      "hash": "2d621dd379390b6b20dbb542594ce1a428ee2c938d5d1bbd2ce69d8031dadd48",
      "version": 1,
      "size": 134,
      "vsize": 134,
      "weight": 536,
      "locktime": 0,
      "vin": [
        {
          "coinbase": "04ffff001d0103",
          "sequence": 4294967295
        }
      ],
      "vout": [
        {
          "value": 50.0,
          "n": 0,
          "scriptPubKey": {
            "asm": "041237c3b2df4376bdc0de5740756243278dcbb12775aa466d64649f21b450b57bcd0252120d06ac4c9d7616ff6b3ab77fece4e8dcd4aab11ea9688190302431c9 OP_CHECKSIG",
            "desc": "pk(041237c3b2df4376bdc0de5740756243278dcbb12775aa466d64649f21b450b57bcd0252120d06ac4c9d7616ff6b3ab77fece4e8dcd4aab11ea9688190302431c9)#f5fa87au",
            "hex": "41041237c3b2df4376bdc0de5740756243278dcbb12775aa466d64649f21b450b57bcd0252120d06ac4c9d7616ff6b3ab77fece4e8dcd4aab11ea9688190302431c9ac",
            "type": "pubkey"
          }
        }
      ],
      "hex": "01000000010000000000000000000000000000000000000000000000000000000000000000ffffffff0704ffff001d0103ffffffff0100f2052a010000004341041237c3b2df4376bdc0de5740756243278dcbb12775aa466d64649f21b450b57bcd0252120d06ac4c9d7616ff6b3ab77fece4e8dcd4aab11ea9688190302431c9ac00000000"
    }
  ]
}