{
  "hash": "000000009b1d9e201e8be7a1aa3bc7380b448915e41413b8465b44423928054f",
  "confirmations": 44182,
  "height": 8916,
  "version": 1,
  "versionHex": "00000001",
  "merkleroot": "8d1fa04f83e2824af974b838c83f56dbb2dcdf64b7ac036882ae508533ec18f5",
  "time": 1238192929,
  "mediantime": 1238187609,
  "nonce": 3409308184,
  "bits": "1d00ffff",
  "difficulty": 1,
  "chainwork": "000000000000000000000000000000000000000000000000000022d522d522d5",
  "nTx": 1,
  "previousblockhash": "000000009a1fb06bb4c7b3f1d1f9fd97b4c30da89cdc2010a8f98307baf01ba9",
  "nextblockhash": "00000000a535b317af77fc9fb733618a5b04eb9e68d152369239d5dd95d604b4",
  "strippedsize": 216,
  "size": 216,
  "weight": 864,
  "tx": [
    {
      "txid": "8d1fa04f83e2824af974b838c83f56dbb2dcdf64b7ac036882ae508533ec18f5",
      "hash": "8d1fa04f83e2824af974b838c83f56dbb2dcdf64b7ac036882ae508533ec18f5",
      "version": 1,
      "size": 135,
      "vsize": 135,
      "weight": 540,
      "locktime": 0,
      "vin": [
        {
          "coinbase": "04ffff001d02e404",
          "sequence": 4294967295
        }
      ],
      "vout": [
        {
          "value": 50.0,
          "n": 0,
          "scriptPubKey": {
            "asm": "04a1935a29c66909aa903dff7fdbc11756f3a1209c8ba3a91d14fcb61645034f341c4b676c585228a9cfe504186a9a8ec2532ae5efcd172c774fd61a39189195d0 OP_CHECKSIG",
            "desc": "pk(04a1935a29c66909aa903dff7fdbc11756f3a1209c8ba3a91d14fcb61645034f341c4b676c585228a9cfe504186a9a8ec2532ae5efcd172c774fd61a39189195d0)#3djjanya",
            "hex": "4104a1935a29c66909aa903dff7fdbc11756f3a1209c8ba3a91d14fcb61645034f341c4b676c585228a9cfe504186a9a8ec2532ae5efcd172c774fd61a39189195d0ac",
            "type": "pubkey"
          }
        }
      ],
      "hex": "01000000010000000000000000000000000000000000000000000000000000000000000000ffffffff0804ffff001d02e404ffffffff0100f2052a01000000434104a1935a29c66909aa903dff7fdbc11756f3a1209c8ba3a91d14fcb61645034f341c4b676c585228a9cfe504186a9a8ec2532ae5efcd172c774fd61a39189195d0ac00000000"
    }
  ]
}