{
  "hash": "0000000057fe26eebfbe0d0b7bfca14afee147973eef16350c8e6b9fde49343a",
  "confirmations": 52007,
  "height": 228,
  "version": 1,
  "versionHex": "00000001",
  "merkleroot": "9941bbca58bc438e2eeafbda59e6ce63428cda348b8e961983e5bc9381a3ba85",
  "time": 1231775125,
  "mediantime": 1231771213,
  "nonce": 1602999590,
  "bits": "1d00ffff",
  "difficulty": 1,
  "chainwork": "000000000000000000000000000000000000000000000000000000e500e500e5",
  "nTx": 1,
  "previousblockhash": "00000000fa8b0d2c835156455cee090212192ab289d5233aaf4c39ada1741f63",
  "nextblockhash": "00000000dc854870a02ac502cdd732644eea099008b518985da6d76015db2bdf",
  "strippedsize": 216,
  "size": 216,
  "weight": 864,
  "tx": [
    {
      "txid": "9941bbca58bc438e2eeafbda59e6ce63428cda348b8e961983e5bc9381a3ba85",
      "hash": "9941bbca58bc438e2eeafbda59e6ce63428cda348b8e961983e5bc9381a3ba85",
      "version": 1,
      "size": 135,
      "vsize": 135,
      "weight": 540,
      "locktime": 0,
      "vin": [
        {
          "coinbase": "04ffff001d02c700",
          "sequence": 4294967295
        }
      ],
      "vout": [
        {
          "value": 50.0,
          "n": 0,
          "scriptPubKey": {
            "asm": "045b4a0f4b37cc82e614a79913a02dfdd25d9d0a841847305c6aa30ee44be67b143f53304a382960471399f42eacb3bf79498b2ebe8da3b3a7d5649b067d448fb8 OP_CHECKSIG",
            "desc": "pk(045b4a0f4b37cc82e614a79913a02dfdd25d9d0a841847305c6aa30ee44be67b143f53304a382960471399f42eacb3bf79498b2ebe8da3b3a7d5649b067d448fb8)#7tq476kx",
            "hex": "41045b4a0f4b37cc82e614a79913a02dfdd25d9d0a841847305c6aa30ee44be67b143f53304a382960471399f42eacb3bf79498b2ebe8da3b3a7d5649b067d448fb8ac",
            "type": "pubkey"
          }
        }
      ],
      "hex": "01000000010000000000000000000000000000000000000000000000000000000000000000ffffffff0804ffff001d02c700ffffffff0100f2052a010000004341045b4a0f4b37cc82e614a79913a02dfdd25d9d0a841847305c6aa30ee44be67b143f53304a382960471399f42eacb3bf79498b2ebe8da3b3a7d5649b067d448fb8ac00000000"
    }
  ]
}