{
  "hash": "000000008432d271e10da213c08719ee38207b54c24dcdced3f1dbee2f773dd0",
  "confirmations": 46081,
  "height": 7017,
  "version": 1,
  "versionHex": "00000001",
  "merkleroot": "963ed1a44ec437ab125ae78f1e2fbd4cf06a9e5d6377ae6e24c82a79eb60b3e4",
  "time": 1236731177,
  "mediantime": 1236727726,
  "nonce": 3757344290,
  "bits": "1d00ffff",
  "difficulty": 1,
  "chainwork": "00000000000000000000000000000000000000000000000000001b6a1b6a1b6a",
  "nTx": 1,
  "previousblockhash": "000000009eec68dffd9349e4df77d9573f103795be393558f331051be1523671",
  "nextblockhash": "000000001a878278a10b68554eedb02f49aa249c75453f2f339c417365fdc8b9",
  "strippedsize": 216,
  "size": 216,
  "weight": 864,
  "tx": [
    {
      "txid": "963ed1a44ec437ab125ae78f1e2fbd4cf06a9e5d6377ae6e24c82a79eb60b3e4",
      "hash": "963ed1a44ec437ab125ae78f1e2fbd4cf06a9e5d6377ae6e24c82a79eb60b3e4",
      "version": 1,
      "size": 135,
      "vsize": 135,
      "weight": 540,
      "locktime": 0,
      "vin": [
        {
          "coinbase": "04ffff001d02a602",
          "sequence": 4294967295
        }
      ],
      "vout": [
        {
          "value": 50.0,
          "n": 0,
          "scriptPubKey": {
            "asm": "04b02d2cf5a72fe46bb3cf92f5a0a1ecbdcf14ff6934da232b264c4c06c739941be6b432504d3b7ed38815a525dabbbcd01db77a9e479fddb7af5c4ced6298362e OP_CHECKSIG",
            "desc": "pk(04b02d2cf5a72fe46bb3cf92f5a0a1ecbdcf14ff6934da232b264c4c06c739941be6b432504d3b7ed38815a525dabbbcd01db77a9e479fddb7af5c4ced6298362e)#u4ddpupv",
            "hex": "4104b02d2cf5a72fe46bb3cf92f5a0a1ecbdcf14ff6934da232b264c4c06c739941be6b432504d3b7ed38815a525dabbbcd01db77a9e479fddb7af5c4ced6298362eac",
            "type": "pubkey"
          }
        }
      ],
      "hex": "01000000010000000000000000000000000000000000000000000000000000000000000000ffffffff0804ffff001d02a602ffffffff0100f2052a01000000434104b02d2cf5a72fe46bb3cf92f5a0a1ecbdcf14ff6934da232b264c4c06c739941be6b432504d3b7ed38815a525dabbbcd01db77a9e479fddb7af5c4ced6298362eac00000000"
    }
  ]
}