{
  "hash": "00000000a3f4050652cb60d37dee6056b322fa2f3f8aa633e0162cb021c8a1df",
  "confirmations": 52401,
  "height": 697,
  "version": 1,
  "versionHex": "00000001",
  "merkleroot": "1837d8b7b8aa93cd49fe256f0aea81a70d781b9164b77544d99dc8d38e5de868",
  "time": 1232107288,
  "mediantime": 1232101972,
  "nonce": 2666622506,
  "bits": "1d00ffff",
  "difficulty": 1,
  "chainwork": "000000000000000000000000000000000000000000000000000002ba02ba02ba",
  "nTx": 1,
  "previousblockhash": "00000000438ef100a73793939192b5d3b2b6efb59ee0e60bed3a3f599027ada6",
  "nextblockhash": "000000008010738f01223f740b6881d3c86fc05b0dd4ce8b20e6300f448a904c",
  "strippedsize": 216,
  "size": 216,
  "weight": 864,
  "tx": [
    {
      "txid": "1837d8b7b8aa93cd49fe256f0aea81a70d781b9164b77544d99dc8d38e5de868",
      "hash": "1837d8b7b8aa93cd49fe256f0aea81a70d781b9164b77544d99dc8d38e5de868",
      "version": 1,
      "size": 135,
      "vsize": 135,
      "weight": 540,
      "locktime": 0,
      "vin": [
        {
          "coinbase": "04ffff001d02fe00",
          "sequence": 4294967295
        }
      ],
      "vout": [
        {
          "value": 50.0,
          "n": 0,
          "scriptPubKey": {
            "asm": "04a8059940a0fea49ab5feb31ef2c529df59795b3d0e515eb3d248a80ef78043c9bbed86d7d45254a8044987bdbe9b71c647e67b279bfd220fbc28a21645377009 OP_CHECKSIG",
            "desc": "pk(04a8059940a0fea49ab5feb31ef2c529df59795b3d0e515eb3d248a80ef78043c9bbed86d7d45254a8044987bdbe9b71c647e67b279bfd220fbc28a21645377009)#vw8y299g",
            "hex": "4104a8059940a0fea49ab5feb31ef2c529df59795b3d0e515eb3d248a80ef78043c9bbed86d7d45254a8044987bdbe9b71c647e67b279bfd220fbc28a21645377009ac",
            "type": "pubkey"
          }
        }
      ],
      "hex": "01000000010000000000000000000000000000000000000000000000000000000000000000ffffffff0804ffff001d02fe00ffffffff0100f2052a01000000434104a8059940a0fea49ab5feb31ef2c529df59795b3d0e515eb3d248a80ef78043c9bbed86d7d45254a8044987bdbe9b71c647e67b279bfd220fbc28a21645377009ac00000000"
    }
  ]
}