{
  "hash": "00000000c6846ae9277a93737caabca0f5e73f5cec08b9d2843aadf4d9992d70",
  "confirmations": 52327,
  "height": 771,
  "version": 1,
  "versionHex": "00000001",
  "merkleroot": "84c0f854414d644397bd06b36003bf87fd57f24692cfd2b2e28cd1e9141680fc",
  "time": 1232168513,
  "mediantime": 1232164242,
  "nonce": 1891661111,
  "bits": "1d00ffff",
  "difficulty": 1,
  "chainwork": "0000000000000000000000000000000000000000000000000000030403040304",
  "nTx": 1,
  "previousblockhash": "00000000641ad9cd4ddfc5139e95d1062e39239e358f5d2c5c3d425237d4ba48",
  "nextblockhash": "00000000a332b39117fefe672973d5dbb13dcf3e21385478a0ab5c6aa34809ce",
  "strippedsize": 216,
  "size": 216,
  "weight": 864,
  "tx": [
    {
      "txid": "84c0f854414d644397bd06b36003bf87fd57f24692cfd2b2e28cd1e9141680fc",
      "hash": "84c0f854414d644397bd06b36003bf87fd57f24692cfd2b2e28cd1e9141680fc",
      "version": 1,
      "size": 135,
      "vsize": 135,
      "weight": 540,
      "locktime": 0,
      "vin": [
        {
          "coinbase": "04ffff001d02f400",
          "sequence": 4294967295
        }
      ],
      "vout": [
        {
          "value": 50.0,
          "n": 0,
          "scriptPubKey": {
            "asm": "04ee6aae54110bc0aeac35c7a2c9b59226f9323bf3d64682c88394685156597c0daf3fbffdc9ce0d7089c6f8eb7e5397d6fe01a015b6b70c531ed0cd01a0bc00f3 OP_CHECKSIG",
            "desc": "pk(04ee6aae54110bc0aeac35c7a2c9b59226f9323bf3d64682c88394685156597c0daf3fbffdc9ce0d7089c6f8eb7e5397d6fe01a015b6b70c531ed0cd01a0bc00f3)#eea5rd7j",
            "hex": "4104ee6aae54110bc0aeac35c7a2c9b59226f9323bf3d64682c88394685156597c0daf3fbffdc9ce0d7089c6f8eb7e5397d6fe01a015b6b70c531ed0cd01a0bc00f3ac",
            "type": "pubkey"
          }
        }
      ],
      "hex": "01000000010000000000000000000000000000000000000000000000000000000000000000ffffffff0804ffff001d02f400ffffffff0100f2052a01000000434104ee6aae54110bc0aeac35c7a2c9b59226f9323bf3d64682c88394685156597c0daf3fbffdc9ce0d7089c6f8eb7e5397d6fe01a015b6b70c531ed0cd01a0bc00f3ac00000000"
    }
  ]
}