{
  "hash": "00000000b00e30759b2921f01ede8c77783d3724d993116f5b7cf731d5c51350",
  "confirmations": 46583,
  "height": 6515,
  "version": 1,
  "versionHex": "00000001",
  "merkleroot": "3f84052a1b2aec5a2ef2a53cebd7df5aecde874ee6e6bdba94b52bdf641d5219",
  "time": 1236339221,
  "mediantime": 1236336614,
  "nonce": 344885267,
  "bits": "1d00ffff",
  "difficulty": 1,
  "chainwork": "0000000000000000000000000000000000000000000000000000197419741974",
  "nTx": 1,
  "previousblockhash": "000000004c32116cf9c711a9f3668efc9a486bf656771b97eb6b3c3390dabaa1",
  "nextblockhash": "00000000695ca86e48e2d28aeaadbec48161e51aed54af18073e3bbcbe295265",
  "strippedsize": 216,
  "size": 216,
  "weight": 864,
  "tx": [
    {
      "txid": "3f84052a1b2aec5a2ef2a53cebd7df5aecde874ee6e6bdba94b52bdf641d5219",
      "hash": "3f84052a1b2aec5a2ef2a53cebd7df5aecde874ee6e6bdba94b52bdf641d5219",
      "version": 1,
      "size": 135,
      "vsize": 135,
      "weight": 540,
      "locktime": 0,
      "vin": [
        {
          "coinbase": "04ffff001d02ed03",
          "sequence": 4294967295
        }
      ],
      "vout": [
        {
          "value": 50.0,
          "n": 0,
          "scriptPubKey": {
            "asm": "04fbcc4c20da410cb5881a746014f0547a231044818f739e6977c1a89a57795967ba4db919b6802fba8a0708c4d151a76f0d88d943caa89e9c9a370b1ad3486092 OP_CHECKSIG",
            "desc": "pk(04fbcc4c20da410cb5881a746014f0547a231044818f739e6977c1a89a57795967ba4db919b6802fba8a0708c4d151a76f0d88d943caa89e9c9a370b1ad3486092)#4gnccv3c",
            "hex": "4104fbcc4c20da410cb5881a746014f0547a231044818f739e6977c1a89a57795967ba4db919b6802fba8a0708c4d151a76f0d88d943caa89e9c9a370b1ad3486092ac",
            "type": "pubkey"
          }
        }
      ],
      "hex": "01000000010000000000000000000000000000000000000000000000000000000000000000ffffffff0804ffff001d02ed03ffffffff0100f2052a01000000434104fbcc4c20da410cb5881a746014f0547a231044818f739e6977c1a89a57795967ba4db919b6802fba8a0708c4d151a76f0d88d943caa89e9c9a370b1ad3486092ac00000000"
    }
  ]
}