{
  "hash": "00000000cd59f48beee18995921d026a34e6e09941ae2f78f529a9ed6f698009",
  "confirmations": 51740,
  "height": 1358,
  "version": 1,
  "versionHex": "00000001",
  "merkleroot": "705401aa7f161cab154dc533672e2d4d731f9753516b4da0c955d1815ec142c3",
  "time": 1232649772,
  "mediantime": 1232643990,
  "nonce": 1297788191,
  "bits": "1d00ffff",
  "difficulty": 1,
  "chainwork": "0000000000000000000000000000000000000000000000000000054f054f054f",
  "nTx": 1,
  "previousblockhash": "00000000bf4dcf6e329283e7182d438a8f1f89703593bac3a7d11f4e31d33dd9",
  "nextblockhash": "00000000937216a873edd99bf12eef27ed5c3ccbbd8b0f42f931887d314d8038",
  "strippedsize": 216,
  "size": 216,
  "weight": 864,
  "tx": [
    {
      "txid": "705401aa7f161cab154dc533672e2d4d731f9753516b4da0c955d1815ec142c3",
      "hash": "705401aa7f161cab154dc533672e2d4d731f9753516b4da0c955d1815ec142c3",
      "version": 1,
      "size": 135,
      "vsize": 135,
      "weight": 540,
      "locktime": 0,
      "vin": [
        {
          "coinbase": "04ffff001d025101",
          "sequence": 4294967295
        }
      ],
      "vout": [
        {
          "value": 50.0,
          "n": 0,
          "scriptPubKey": {
            "asm": "04b35f57b43ba510250ffb89a2ec71e7fd889d6996b2728c0caa04a69f7298bfac471e90850f126dcf5a31b937937a2da53058f7b5f6f6a59bc03dcb9df4e6e074 OP_CHECKSIG",
            "desc": "pk(04b35f57b43ba510250ffb89a2ec71e7fd889d6996b2728c0caa04a69f7298bfac471e90850f126dcf5a31b937937a2da53058f7b5f6f6a59bc03dcb9df4e6e074)#2lqdc7vt",
            "hex": "4104b35f57b43ba510250ffb89a2ec71e7fd889d6996b2728c0caa04a69f7298bfac471e90850f126dcf5a31b937937a2da53058f7b5f6f6a59bc03dcb9df4e6e074ac",
            "type": "pubkey"
          }
        }
      ],
      "hex": "01000000010000000000000000000000000000000000000000000000000000000000000000ffffffff0804ffff001d025101ffffffff0100f2052a01000000434104b35f57b43ba510250ffb89a2ec71e7fd889d6996b2728c0caa04a69f7298bfac471e90850f126dcf5a31b937937a2da53058f7b5f6f6a59bc03dcb9df4e6e074ac00000000"
    }
  ]
}