{
  "hash": "000000006fbd5d5c06beb7bd23d87b677d3eca2e2e644a96f8eefe28b41b845d",
  "confirmations": 49995,
  "height": 3103,
  "version": 1,
  "versionHex": "00000001",
  "merkleroot": "f62cfb487fa2a8050b643e9e3ecaf22eebb935fb8cbecaa616bf46f2b722aa7f",
  "time": 1233837098,
  "mediantime": 1233832989,
  "nonce": 250867096,
  "bits": "1d00ffff",
  "difficulty": 1,
  "chainwork": "00000000000000000000000000000000000000000000000000000c200c200c20",
  "nTx": 1,
  "previousblockhash": "00000000de4e9e30d87758af6afab71f26ab732cea8bb5f36a927253ea44c944",
  "nextblockhash": "00000000a2381ea41f749c4242e3e55d4e8f4477f9ba83cb3ade3a234f86b365",
  "strippedsize": 215,
  "size": 215,
  "weight": 860,
  "tx": [
    {
      "txid": "f62cfb487fa2a8050b643e9e3ecaf22eebb935fb8cbecaa616bf46f2b722aa7f",
      "hash": "f62cfb487fa2a8050b643e9e3ecaf22eebb935fb8cbecaa616bf46f2b722aa7f",
      "version": 1,
      "size": 134,
      "vsize": 134,
      "weight": 536,
      "locktime": 0,
      "vin": [
        {
          "coinbase": "04ffff001d010b",
          "sequence": 4294967295
        }
      ],
      "vout": [
        {
          "value": 50.0,
          "n": 0,
          "scriptPubKey": {
            "asm": "0403642912d3218194d7af8d57fb5e8e63595c3a145aae4854efba6c5844c05efaa53ce216045c1dca6dbc6c4b4f9e3e0901fe461afa52bf75d3cc77da68ef0601 OP_CHECKSIG",
            "desc": "pk(0403642912d3218194d7af8d57fb5e8e63595c3a145aae4854efba6c5844c05efaa53ce216045c1dca6dbc6c4b4f9e3e0901fe461afa52bf75d3cc77da68ef0601)#6xffe73a",
            "hex": "410403642912d3218194d7af8d57fb5e8e63595c3a145aae4854efba6c5844c05efaa53ce216045c1dca6dbc6c4b4f9e3e0901fe461afa52bf75d3cc77da68ef0601ac",
            "type": "pubkey"
          }
        }
      ],
      "hex": "01000000010000000000000000000000000000000000000000000000000000000000000000ffffffff0704ffff001d010bffffffff0100f2052a0100000043410403642912d3218194d7af8d57fb5e8e63595c3a145aae4854efba6c5844c05efaa53ce216045c1dca6dbc6c4b4f9e3e0901fe461afa52bf75d3cc77da68ef0601ac00000000"
    }
  ]
}