{
  "hash": "0000000052a967356e6fc462d73a38732b64bde78622497cfb948dc93bcfef18",
  "confirmations": 43329,
  "height": 9769,
  "version": 1,
  "versionHex": "00000001",
  "merkleroot": "359ca71f8fdafc12c21910471eb2b815cfb72b5d29e1aa8e580a15c3e9d197b9",
  "time": 1238833048,
  "mediantime": 1238829129,
  "nonce": 862977584,
  "bits": "1d00ffff",
  "difficulty": 1,
  "chainwork": "0000000000000000000000000000000000000000000000000000262a262a262a",
  "nTx": 1,
  "previousblockhash": "00000000791297c9579f5746c8ab7d491c5f919ca930bc621d1dcfb5680111f6",
  "nextblockhash": "000000008a11f31763a5afe4f820b00a9793b63434b916b4c53cf582378833a3",
  "strippedsize": 216,
  "size": 216,
  "weight": 864,
  "tx": [
    {
      "txid": "359ca71f8fdafc12c21910471eb2b815cfb72b5d29e1aa8e580a15c3e9d197b9",
      "hash": "359ca71f8fdafc12c21910471eb2b815cfb72b5d29e1aa8e580a15c3e9d197b9",
      "version": 1,
      "size": 135,
      "vsize": 135,
      "weight": 540,
      "locktime": 0,
      "vin": [
        {
          "coinbase": "04ffff001d021c0a",
          "sequence": 4294967295
        }
      ],
      "vout": [
        {
          "value": 50.0,
          "n": 0,
          "scriptPubKey": {
            "asm": "04e116a4d445f020f71a408c38bee2b53872e2a6fbea7e17da15fd9b6183365a85a75034e505503bdff8b339e61a77597e44a92935ddf7bd3c9efdb5b8fdf47bd5 OP_CHECKSIG",
            "desc": "pk(04e116a4d445f020f71a408c38bee2b53872e2a6fbea7e17da15fd9b6183365a85a75034e505503bdff8b339e61a77597e44a92935ddf7bd3c9efdb5b8fdf47bd5)#rgd5gtjp",
            "hex": "4104e116a4d445f020f71a408c38bee2b53872e2a6fbea7e17da15fd9b6183365a85a75034e505503bdff8b339e61a77597e44a92935ddf7bd3c9efdb5b8fdf47bd5ac",
            "type": "pubkey"
          }
        }
      ],
      "hex": "01000000010000000000000000000000000000000000000000000000000000000000000000ffffffff0804ffff001d021c0affffffff0100f2052a01000000434104e116a4d445f020f71a408c38bee2b53872e2a6fbea7e17da15fd9b6183365a85a75034e505503bdff8b339e61a77597e44a92935ddf7bd3c9efdb5b8fdf47bd5ac00000000"
    }
  ]
}