{
  "hash": "00000000206be65b27f200bc6c642c4d31fda97142c04e20ae6ffb111a88af93",
  "confirmations": 51891,
  "height": 1207,
  "version": 1,
  "versionHex": "00000001",
  "merkleroot": "467096ffc0e0e3433753f04dc6ee45d8c27f24e7922e0c77697fa12eda4159c5",
  "time": 1232505800,
  "mediantime": 1232502483,
  "nonce": 2702470659,
  "bits": "1d00ffff",
  "difficulty": 1,
  "chainwork": "000000000000000000000000000000000000000000000000000004b804b804b8",
  "nTx": 1,
  "previousblockhash": "000000006acde06ce6e26138c93848a595511fef93c4dd68e330332ba9604217",
  "nextblockhash": "00000000a949a93111b3b55ae95dd6522a6ff925e9caa0bfb88575333d71dbc6",
  "strippedsize": 216,
  "size": 216,
  "weight": 864,
  "tx": [
    {
      "txid": "467096ffc0e0e3433753f04dc6ee45d8c27f24e7922e0c77697fa12eda4159c5",
      "hash": "467096ffc0e0e3433753f04dc6ee45d8c27f24e7922e0c77697fa12eda4159c5",
      "version": 1,
      "size": 135,
      "vsize": 135,
      "weight": 540,
      "locktime": 0,
      "vin": [
        {
          "coinbase": "04ffff001d02be08",
          "sequence": 4294967295
        }
      ],
      "vout": [
        {
          "value": 50.0,
          "n": 0,
          "scriptPubKey": {
            "asm": "0455b0480727a3843365a35d5e503195eec923d153d40d8ba986c7df5edd66bd5808d3bb0a29618c8b416f599251d2fd2c19c76bcbf79d5a5f81b71fc1f6e48c04 OP_CHECKSIG",
            "desc": "pk(0455b0480727a3843365a35d5e503195eec923d153d40d8ba986c7df5edd66bd5808d3bb0a29618c8b416f599251d2fd2c19c76bcbf79d5a5f81b71fc1f6e48c04)#vsaazgg8",
            "hex": "410455b0480727a3843365a35d5e503195eec923d153d40d8ba986c7df5edd66bd5808d3bb0a29618c8b416f599251d2fd2c19c76bcbf79d5a5f81b71fc1f6e48c04ac",
            "type": "pubkey"
          }
        }
      ],
      "hex": "01000000010000000000000000000000000000000000000000000000000000000000000000ffffffff0804ffff001d02be08ffffffff0100f2052a0100000043410455b0480727a3843365a35d5e503195eec923d153d40d8ba986c7df5edd66bd5808d3bb0a29618c8b416f599251d2fd2c19c76bcbf79d5a5f81b71fc1f6e48c04ac00000000"
    }
  ]
}