{
  "hash": "0000000009c3629042caecf2090a9e851c79c2b2f78fd72a5b80a5d47f6320f1",
  "confirmations": 48290,
  "height": 4808,
  "version": 1,
  "versionHex": "00000001",
  "merkleroot": "11f1074eb5d6e3b6c1e869a8b38b7678defcb0f833eededf2de3770b69897f13",
  "time": 1235005096,
  "mediantime": 1235001685,
  "nonce": 70052185,
  "bits": "1d00ffff",
  "difficulty": 1,
  "chainwork": "000000000000000000000000000000000000000000000000000012c912c912c9",
  "nTx": 1,
  "previousblockhash": "00000000639da7c336f301c900371d7c5ba695206ad504853dc947b9084e189d",
  "nextblockhash": "00000000c3c3800a7c806f7237fd96aa83625d08b96ee4224847887e0b245557",
  "strippedsize": 216,
  "size": 216,
  "weight": 864,
  "tx": [
    {
      "txid": "11f1074eb5d6e3b6c1e869a8b38b7678defcb0f833eededf2de3770b69897f13",
      "hash": "11f1074eb5d6e3b6c1e869a8b38b7678defcb0f833eededf2de3770b69897f13",
      "version": 1,
      "size": 135,
      "vsize": 135,
      "weight": 540,
      "locktime": 0,
      "vin": [
        {
          "coinbase": "04ffff001d021401",
          "sequence": 4294967295
        }
      ],
      "vout": [
        {
          "value": 50.0,
          "n": 0,
          "scriptPubKey": {
            "asm": "0471ab5310d950433a0423c862ce98c5e4311cd0120b0815ba1ffb0982e43ed7807ff6344aa362e20b62460d5a852c8e11cfae12352b63dfff222231a1fe3ec8bf OP_CHECKSIG",
            "desc": "pk(0471ab5310d950433a0423c862ce98c5e4311cd0120b0815ba1ffb0982e43ed7807ff6344aa362e20b62460d5a852c8e11cfae12352b63dfff222231a1fe3ec8bf)#qwfja9zu",
            "hex": "410471ab5310d950433a0423c862ce98c5e4311cd0120b0815ba1ffb0982e43ed7807ff6344aa362e20b62460d5a852c8e11cfae12352b63dfff222231a1fe3ec8bfac",
            "type": "pubkey"
          }
        }
      ],
      "hex": "01000000010000000000000000000000000000000000000000000000000000000000000000ffffffff0804ffff001d021401ffffffff0100f2052a0100000043410471ab5310d950433a0423c862ce98c5e4311cd0120b0815ba1ffb0982e43ed7807ff6344aa362e20b62460d5a852c8e11cfae12352b63dfff222231a1fe3ec8bfac00000000"
    }
  ]
}