{
  "hash": "0000000093506413d42170caa97d0624b7fd36b5fd672f4e88a9a9d2e283f81c",
  "confirmations": 44061,
  "height": 9037,
  "version": 1,
  "versionHex": "00000001",
  "merkleroot": "6407c662ddbaf6496cc10db483cb0a02543183f8dfb9bfc63f2912c4b965afa2",
  "time": 1238279159,
  "mediantime": 1238275524,
  "nonce": 1801003785,
  "bits": "1d00ffff",
  "difficulty": 1,
  "chainwork": "0000000000000000000000000000000000000000000000000000234e234e234e",
  "nTx": 1,
  "previousblockhash": "000000008cdfaf5111efc7d95cd524aaf23d1f62ec41482cd1234fb019c898aa",
  "nextblockhash": "0000000021c12ba808106093f028d52a16b3dd8456e4d04ba6a7b6de469d4215",
  "strippedsize": 216,
  "size": 216,
  "weight": 864,
  "tx": [
    {
      "txid": "6407c662ddbaf6496cc10db483cb0a02543183f8dfb9bfc63f2912c4b965afa2",
      "hash": "6407c662ddbaf6496cc10db483cb0a02543183f8dfb9bfc63f2912c4b965afa2",
      "version": 1,
      "size": 135,
      "vsize": 135,
      "weight": 540,
      "locktime": 0,
      "vin": [
        {
          "coinbase": "04ffff001d020507",
          "sequence": 4294967295
        }
      ],
      "vout": [
        {
          "value": 50.0,
          "n": 0,
          "scriptPubKey": {
            "asm": "047e4e25bb1db104bc4330fd8a9da0e5015cb64e2e4eee05d15e358e3c9f93261dfdcf9b164548855f5e3c54459f6440be32517c2d3340d6fa5220ae6894179613 OP_CHECKSIG",
            "desc": "pk(047e4e25bb1db104bc4330fd8a9da0e5015cb64e2e4eee05d15e358e3c9f93261dfdcf9b164548855f5e3c54459f6440be32517c2d3340d6fa5220ae6894179613)#j438mxvd",
            "hex": "41047e4e25bb1db104bc4330fd8a9da0e5015cb64e2e4eee05d15e358e3c9f93261dfdcf9b164548855f5e3c54459f6440be32517c2d3340d6fa5220ae6894179613ac",
            "type": "pubkey"
          }
        }
      ],
      "hex": "01000000010000000000000000000000000000000000000000000000000000000000000000ffffffff0804ffff001d020507ffffffff0100f2052a010000004341047e4e25bb1db104bc4330fd8a9da0e5015cb64e2e4eee05d15e358e3c9f93261dfdcf9b164548855f5e3c54459f6440be32517c2d3340d6fa5220ae6894179613ac00000000"
    }
  ]
}