{
  "hash": "00000000100fecd6bf10d11e6a6639bb4ea23b80ffb8cb0ac6c5bd7a11eaa074",
  "confirmations": 47454,
  "height": 5644,
  "version": 1,
  "versionHex": "00000001",
  "merkleroot": "f5e6a20fdb01ac9db83cb1a2b2b8f39214a0b17747e88b2d4022fa75ab3ebc74",
  "time": 1235641426,
  "mediantime": 1235636915,
  "nonce": 2217630777,
  "bits": "1d00ffff",
  "difficulty": 1,
  "chainwork": "0000000000000000000000000000000000000000000000000000160d160d160d",
  "nTx": 1,
  "previousblockhash": "00000000ff3f1f5e91e8c0e0d1e0aa9828e283b7a2a921b2165a655e43e95475",
  "nextblockhash": "0000000020b199a81eed96e3aae298c904d572905b4a592a32df95ece596965b",
  "strippedsize": 216,
  "size": 216,
  "weight": 864,
  "tx": [
    {
      "txid": "f5e6a20fdb01ac9db83cb1a2b2b8f39214a0b17747e88b2d4022fa75ab3ebc74",
      "hash": "f5e6a20fdb01ac9db83cb1a2b2b8f39214a0b17747e88b2d4022fa75ab3ebc74",
      "version": 1,
      "size": 135,
      "vsize": 135,
      "weight": 540,
      "locktime": 0,
      "vin": [
        {
          "coinbase": "04ffff001d028108",
          "sequence": 4294967295
        }
      ],
      "vout": [
        {
          "value": 50.0,
          "n": 0,
          "scriptPubKey": {
            "asm": "041ad6d3358dd9cb8b3da6dfdb3948b7242bf31980dda79e00edb645a5ddd6b0e10f7505a39efbbb66485d8d86945dcd962d7e2c9c6f24383d567c059d0ca50072 OP_CHECKSIG",
            "desc": "pk(041ad6d3358dd9cb8b3da6dfdb3948b7242bf31980dda79e00edb645a5ddd6b0e10f7505a39efbbb66485d8d86945dcd962d7e2c9c6f24383d567c059d0ca50072)#kjnaw6fx",
            "hex": "41041ad6d3358dd9cb8b3da6dfdb3948b7242bf31980dda79e00edb645a5ddd6b0e10f7505a39efbbb66485d8d86945dcd962d7e2c9c6f24383d567c059d0ca50072ac",
            "type": "pubkey"
          }
        }
      ],
      "hex": "01000000010000000000000000000000000000000000000000000000000000000000000000ffffffff0804ffff001d028108ffffffff0100f2052a010000004341041ad6d3358dd9cb8b3da6dfdb3948b7242bf31980dda79e00edb645a5ddd6b0e10f7505a39efbbb66485d8d86945dcd962d7e2c9c6f24383d567c059d0ca50072ac00000000"
    }
  ]
}