{
  "hash": "00000000dc9d553f5c5b7d4999ac4893a3a4c04ad264c92a0d096ad6698feeec",
  "confirmations": 50401,
  "height": 2697,
  "version": 1,
  "versionHex": "00000001",
  "merkleroot": "8c6d41bac62be4dce3d239cab5a4cbe323cc3a9dd343c948a29520141e2c8efb",
  "time": 1233558176,
  "mediantime": 1233556092,
  "nonce": 102470221,
  "bits": "1d00ffff",
  "difficulty": 1,
  "chainwork": "00000000000000000000000000000000000000000000000000000a8a0a8a0a8a",
  "nTx": 1,
  "previousblockhash": "00000000b7b198680cf2afca0342000147150a1e7fd947e51f934f1efab309fe",
  "nextblockhash": "00000000cf6630870383558dcf82aa7b9925c75cac1f1dd39496b55be7d485f9",
  "strippedsize": 215,
  "size": 215,
  "weight": 860,
  "tx": [
    {
      "txid": "8c6d41bac62be4dce3d239cab5a4cbe323cc3a9dd343c948a29520141e2c8efb",
      "hash": "8c6d41bac62be4dce3d239cab5a4cbe323cc3a9dd343c948a29520141e2c8efb",
      "version": 1,
      "size": 134,
      "vsize": 134,
      "weight": 536,
      "locktime": 0,
      "vin": [
        {
          "coinbase": "04ffff001d010f",
          "sequence": 4294967295
        }
      ],
      "vout": [
        {
          "value": 50.0,
          "n": 0,
          "scriptPubKey": {
            "asm": "04458f7dcfe68a8644d7496e432f26a9663a722b334f0a85b5835c4e3dc3bc10ddfcf90774f67e42bf518fa27c044f9b3987a8ad14611bcc769d9a7dab7d271e52 OP_CHECKSIG",
            "desc": "pk(04458f7dcfe68a8644d7496e432f26a9663a722b334f0a85b5835c4e3dc3bc10ddfcf90774f67e42bf518fa27c044f9b3987a8ad14611bcc769d9a7dab7d271e52)#dyapw0ce",
            "hex": "4104458f7dcfe68a8644d7496e432f26a9663a722b334f0a85b5835c4e3dc3bc10ddfcf90774f67e42bf518fa27c044f9b3987a8ad14611bcc769d9a7dab7d271e52ac",
            "type": "pubkey"
          }
        }
      ],
      "hex": "01000000010000000000000000000000000000000000000000000000000000000000000000ffffffff0704ffff001d010fffffffff0100f2052a01000000434104458f7dcfe68a8644d7496e432f26a9663a722b334f0a85b5835c4e3dc3bc10ddfcf90774f67e42bf518fa27c044f9b3987a8ad14611bcc769d9a7dab7d271e52ac00000000"
    }
  ]
}