{
  "hash": "00000000a71dd2609baade0e6f6f67ac7d37e6b7b4c5dfc0496590c4009b2fe9",
  "confirmations": 45750,
  "height": 7348,
  "version": 1,
  "versionHex": "00000001",
  "merkleroot": "6b864b62ccd1c60d72e0af3006295aad86b7fb8e7ca7b8782004b63ea3b06c34",
  "time": 1236982707,
  "mediantime": 1236978856,
  "nonce": 3598029574,
  "bits": "1d00ffff",
  "difficulty": 1,
  "chainwork": "00000000000000000000000000000000000000000000000000001cb51cb51cb5",
  "nTx": 1,
  "previousblockhash": "000000006c0d7bd1e0b2f00425a672729c8d95895c8c3f39042889c269c5c51e",
  "nextblockhash": "00000000df7167cd8ffc5e5749f130bd3bc13a812840db1ff767971ecbfa3e93",
  "strippedsize": 216,
  "size": 216,
  "weight": 864,
  "tx": [
    {
      "txid": "6b864b62ccd1c60d72e0af3006295aad86b7fb8e7ca7b8782004b63ea3b06c34",
      "hash": "6b864b62ccd1c60d72e0af3006295aad86b7fb8e7ca7b8782004b63ea3b06c34",
      "version": 1,
      "size": 135,
      "vsize": 135,
      "weight": 540,
      "locktime": 0,
      "vin": [
        {
          "coinbase": "04ffff001d027508",
          "sequence": 4294967295
        }
      ],
      "vout": [
        {
          "value": 50.0,
          "n": 0,
          "scriptPubKey": {
            "asm": "044635e56a12e8880cf76f0f1d13b4c4781326fd30c8fcca66fd1037f4da076dca8d0ca58068a08baf635789af9e932d36647cbd96e7d794d6b66e0fcf9e8d1e5f OP_CHECKSIG",
            "desc": "pk(044635e56a12e8880cf76f0f1d13b4c4781326fd30c8fcca66fd1037f4da076dca8d0ca58068a08baf635789af9e932d36647cbd96e7d794d6b66e0fcf9e8d1e5f)#eljhaukj",
            "hex": "41044635e56a12e8880cf76f0f1d13b4c4781326fd30c8fcca66fd1037f4da076dca8d0ca58068a08baf635789af9e932d36647cbd96e7d794d6b66e0fcf9e8d1e5fac",
            "type": "pubkey"
          }
        }
      ],
      "hex": "01000000010000000000000000000000000000000000000000000000000000000000000000ffffffff0804ffff001d027508ffffffff0100f2052a010000004341044635e56a12e8880cf76f0f1d13b4c4781326fd30c8fcca66fd1037f4da076dca8d0ca58068a08baf635789af9e932d36647cbd96e7d794d6b66e0fcf9e8d1e5fac00000000"
    }
  ]
}