{
  "hash": "000000009daeba91628accf6aa92c55caf0ab7efb4c81de2029544050b63bfda",
  "confirmations": 49900,
  "height": 3198,
  "version": 1,
  "versionHex": "00000001",
  "merkleroot": "c170d4941f41c109f5beb5fa9f5f5b17452c69305b41715dac6f1a89a6d7d7fc",
  "time": 1233898905,
  "mediantime": 1233894298,
  "nonce": 2486904614,
  "bits": "1d00ffff",
  "difficulty": 1,
  "chainwork": "00000000000000000000000000000000000000000000000000000c7f0c7f0c7f",
  "nTx": 1,
  "previousblockhash": "000000009dd977c7dcf8eddb9562f7ad4da7486fbb4ed5dd871e8732e5e49f32",
  "nextblockhash": "000000000d3bf19ff55606d892692c0e214bf1db8cb619e62b92b71503631e6f",
  "strippedsize": 216,
  "size": 216,
  "weight": 864,
  "tx": [
    {
      "txid": "c170d4941f41c109f5beb5fa9f5f5b17452c69305b41715dac6f1a89a6d7d7fc",
      "hash": "c170d4941f41c109f5beb5fa9f5f5b17452c69305b41715dac6f1a89a6d7d7fc",
      "version": 1,
      "size": 135,
      "vsize": 135,
      "weight": 540,
      "locktime": 0,
      "vin": [
        {
          "coinbase": "04ffff001d02b002",
          "sequence": 4294967295
        }
      ],
      "vout": [
        {
          "value": 50.0,
          "n": 0,
          "scriptPubKey": {
            "asm": "046311535a444fb44f36e365c70e81b955cb7808a03305a2fed35147ec0819fe6d83d01f44b474edde227d49106f6f0c6d48f7e3fbef719661f014f0db00779f21 OP_CHECKSIG",
            "desc": "pk(046311535a444fb44f36e365c70e81b955cb7808a03305a2fed35147ec0819fe6d83d01f44b474edde227d49106f6f0c6d48f7e3fbef719661f014f0db00779f21)#2lke894d",
            "hex": "41046311535a444fb44f36e365c70e81b955cb7808a03305a2fed35147ec0819fe6d83d01f44b474edde227d49106f6f0c6d48f7e3fbef719661f014f0db00779f21ac",
            "type": "pubkey"
          }
        }
      ],
      "hex": "01000000010000000000000000000000000000000000000000000000000000000000000000ffffffff0804ffff001d02b002ffffffff0100f2052a010000004341046311535a444fb44f36e365c70e81b955cb7808a03305a2fed35147ec0819fe6d83d01f44b474edde227d49106f6f0c6d48f7e3fbef719661f014f0db00779f21ac00000000"
    }
  ]
}