{
  "hash": "00000000148bdeac381f614fa764e59475f9c78ee809e87a81bf089b3cb2633a",
  "confirmations": 49933,
  "height": 3165,
  "version": 1,
  "versionHex": "00000001",
  "merkleroot": "3211ef5249db99ca68e883add93cb2f27e118afae1d11dc38a8f12e877d4f5fc",
  "time": 1233876388,
  "mediantime": 1233873296,
  "nonce": 108490196,
  "bits": "1d00ffff",
  "difficulty": 1,
  "chainwork": "00000000000000000000000000000000000000000000000000000c5e0c5e0c5e",
  "nTx": 1,
  "previousblockhash": "000000001c360bfb7c6cae6269ec3916af8551037e152544e067559d537d058a",
  "nextblockhash": "00000000de6f3abd9bfb2f2a6b25245d42fbeedcec5a97d6083c5fce3a2eefab",
  "strippedsize": 215,
  "size": 215,
  "weight": 860,
  "tx": [
    {
      "txid": "3211ef5249db99ca68e883add93cb2f27e118afae1d11dc38a8f12e877d4f5fc",
      "hash": "3211ef5249db99ca68e883add93cb2f27e118afae1d11dc38a8f12e877d4f5fc",
      "version": 1,
      "size": 134,
      "vsize": 134,
      "weight": 536,
      "locktime": 0,
      "vin": [
        {
          "coinbase": "04ffff001d0124",
          "sequence": 4294967295
        }
      ],
      "vout": [
        {
          "value": 50.0,
          "n": 0,
          "scriptPubKey": {
            "asm": "0421ee01b9801e1ee6a3f69c7476a41d77c8f1d4aaa83814391561ed7fd1fcb7ee682f1009d92bd236be0dd28791c6fc525502800c3905ad60555882894a5723b7 OP_CHECKSIG",
            "desc": "pk(0421ee01b9801e1ee6a3f69c7476a41d77c8f1d4aaa83814391561ed7fd1fcb7ee682f1009d92bd236be0dd28791c6fc525502800c3905ad60555882894a5723b7)#nvmkj9vh",
            "hex": "410421ee01b9801e1ee6a3f69c7476a41d77c8f1d4aaa83814391561ed7fd1fcb7ee682f1009d92bd236be0dd28791c6fc525502800c3905ad60555882894a5723b7ac",
            "type": "pubkey"
          }
        }
      ],
      "hex": "01000000010000000000000000000000000000000000000000000000000000000000000000ffffffff0704ffff001d0124ffffffff0100f2052a0100000043410421ee01b9801e1ee6a3f69c7476a41d77c8f1d4aaa83814391561ed7fd1fcb7ee682f1009d92bd236be0dd28791c6fc525502800c3905ad60555882894a5723b7ac00000000"
    }
  ]
}