{
  "hash": "00000000a8a4e1f22885af970a9317b3d97de8ff8e1b4646bccf1b9c5891d32b",
  "confirmations": 46684,
  "height": 6414,
  "version": 1,
  "versionHex": "00000001",
  "merkleroot": "e0f32efcc1cf374f4b06730440021e352151eff3b1436445c2f23992d490a77a",
  "time": 1236267887,
  "mediantime": 1236262942,
  "nonce": 1945291052,
  "bits": "1d00ffff",
  "difficulty": 1,
  "chainwork": "0000000000000000000000000000000000000000000000000000190f190f190f",
  "nTx": 1,
  "previousblockhash": "00000000748ec6c31fadf6895fcf0cad33d06ae1f5901929b28874f1b6764b9e",
  "nextblockhash": "000000001ba119a0f6d49ebabd83343b125d7ee3d3184b1b41d6a7f2051153eb",
  "strippedsize": 216,
  "size": 216,
  "weight": 864,
  "tx": [
    {
      "txid": "e0f32efcc1cf374f4b06730440021e352151eff3b1436445c2f23992d490a77a",
      "hash": "e0f32efcc1cf374f4b06730440021e352151eff3b1436445c2f23992d490a77a",
      "version": 1,
      "size": 135,
      "vsize": 135,
      "weight": 540,
      "locktime": 0,
      "vin": [
        {
          "coinbase": "04ffff001d021c02",
          "sequence": 4294967295
        }
      ],
      "vout": [
        {
          "value": 50.0,
          "n": 0,
          "scriptPubKey": {
            "asm": "0415e2462666172e57a703804c579bd635365e165317856af6e3dedd21e9b59d1204103ca3dac56d0d1e0b2715f98c08016694c4b5ff202a7298b6ec856b29ab49 OP_CHECKSIG",
            "desc": "pk(0415e2462666172e57a703804c579bd635365e165317856af6e3dedd21e9b59d1204103ca3dac56d0d1e0b2715f98c08016694c4b5ff202a7298b6ec856b29ab49)#keay6r77",
            "hex": "410415e2462666172e57a703804c579bd635365e165317856af6e3dedd21e9b59d1204103ca3dac56d0d1e0b2715f98c08016694c4b5ff202a7298b6ec856b29ab49ac",
            "type": "pubkey"
          }
        }
      ],
      "hex": "01000000010000000000000000000000000000000000000000000000000000000000000000ffffffff0804ffff001d021c02ffffffff0100f2052a0100000043410415e2462666172e57a703804c579bd635365e165317856af6e3dedd21e9b59d1204103ca3dac56d0d1e0b2715f98c08016694c4b5ff202a7298b6ec856b29ab49ac00000000"
    }
  ]
}