{
  "hash": "00000000fa8b0d2c835156455cee090212192ab289d5233aaf4c39ada1741f63",
  "confirmations": 52008,
  "height": 227,
  "version": 1,
  "versionHex": "00000001",
  "merkleroot": "b0dfeb4cfd4ece7d367bc6eec66af2a49c9c5aa4e12f90d728da63adbe18540f",
  "time": 1231774735,
  "mediantime": 1231770653,
  "nonce": 650652928,
  "bits": "1d00ffff",
  "difficulty": 1,
  "chainwork": "000000000000000000000000000000000000000000000000000000e400e400e4",
  "nTx": 1,
  "previousblockhash": "000000005153e11361b28644ee63887e11f0b4b5a14d8e3da826d215dc1ce364",
  "nextblockhash": "0000000057fe26eebfbe0d0b7bfca14afee147973eef16350c8e6b9fde49343a",
  "strippedsize": 216,
  "size": 216,
  "weight": 864,
  "tx": [
    {
      "txid": "b0dfeb4cfd4ece7d367bc6eec66af2a49c9c5aa4e12f90d728da63adbe18540f",
      "hash": "b0dfeb4cfd4ece7d367bc6eec66af2a49c9c5aa4e12f90d728da63adbe18540f",
      "version": 1,
      "size": 135,
      "vsize": 135,
      "weight": 540,
      "locktime": 0,
      "vin": [
        {
          "coinbase": "04ffff001d02c500",
          "sequence": 4294967295
        }
      ],
      "vout": [
        {
          "value": 50.0,
          "n": 0,
          "scriptPubKey": {
            "asm": "04cb3af80067cec806c926a101c06f04b0db6ef761659293578327a226eb5f6e017df58d6f0c7eb8e3ea42b1c58e81f85d02d4ce6e2105ac12e52f167e183c154d OP_CHECKSIG",
            "desc": "pk(04cb3af80067cec806c926a101c06f04b0db6ef761659293578327a226eb5f6e017df58d6f0c7eb8e3ea42b1c58e81f85d02d4ce6e2105ac12e52f167e183c154d)#xv2x3u55",
            "hex": "4104cb3af80067cec806c926a101c06f04b0db6ef761659293578327a226eb5f6e017df58d6f0c7eb8e3ea42b1c58e81f85d02d4ce6e2105ac12e52f167e183c154dac",
            "type": "pubkey"
          }
        }
      ],
      "hex": "01000000010000000000000000000000000000000000000000000000000000000000000000ffffffff0804ffff001d02c500ffffffff0100f2052a01000000434104cb3af80067cec806c926a101c06f04b0db6ef761659293578327a226eb5f6e017df58d6f0c7eb8e3ea42b1c58e81f85d02d4ce6e2105ac12e52f167e183c154dac00000000"
    }
  ]
}