{
  "hash": "00000000beecc05104c1cf910a44524f717be71686f339b751824aa0e76ad313",
  "confirmations": 52478,
  "height": 620,
  "version": 1,
  "versionHex": "00000001",
  "merkleroot": "258dd358083ebcce80d25acdee99031d3ac5d968096ae6fa922b574b4b029029",
  "time": 1232050140,
  "mediantime": 1232046290,
  "nonce": 1881029892,
  "bits": "1d00ffff",
  "difficulty": 1,
  "chainwork": "0000000000000000000000000000000000000000000000000000026d026d026d",
  "nTx": 1,
  "previousblockhash": "0000000080af4f2b1c483e0942b004618fbd23ec0b4acea09486fd5257b4ecae",
  "nextblockhash": "00000000ee4c3bfaae7ced8917c27b277b279e681f13bed9005c74e4557b27e5",
  "strippedsize": 216,
  "size": 216,
  "weight": 864,
  "tx": [
    {
      "txid": "258dd358083ebcce80d25acdee99031d3ac5d968096ae6fa922b574b4b029029",
      "hash": "258dd358083ebcce80d25acdee99031d3ac5d968096ae6fa922b574b4b029029",
      "version": 1,
      "size": 135,
      "vsize": 135,
      "weight": 540,
      "locktime": 0,
      "vin": [
        {
          "coinbase": "04ffff001d02fe06",
          "sequence": 4294967295
        }
      ],
      "vout": [
        {
          "value": 50.0,
          "n": 0,
          "scriptPubKey": {
            "asm": "04a644d470ad29cfe6a905a172b6b688c69e07c314f864a40707cbd87c9ddb6270185a8d0c592c2f218f5af80ea1ce3f3322f501c9971155b282ceafd3e391b116 OP_CHECKSIG",
            "desc": "pk(04a644d470ad29cfe6a905a172b6b688c69e07c314f864a40707cbd87c9ddb6270185a8d0c592c2f218f5af80ea1ce3f3322f501c9971155b282ceafd3e391b116)#287y448r",
            "hex": "4104a644d470ad29cfe6a905a172b6b688c69e07c314f864a40707cbd87c9ddb6270185a8d0c592c2f218f5af80ea1ce3f3322f501c9971155b282ceafd3e391b116ac",
            "type": "pubkey"
          }
        }
      ],
      "hex": "01000000010000000000000000000000000000000000000000000000000000000000000000ffffffff0804ffff001d02fe06ffffffff0100f2052a01000000434104a644d470ad29cfe6a905a172b6b688c69e07c314f864a40707cbd87c9ddb6270185a8d0c592c2f218f5af80ea1ce3f3322f501c9971155b282ceafd3e391b116ac00000000"
    }
  ]
}