{
  "hash": "00000000b5e779143dcc5052a30298bc54026a55089ee7c54d9a84df56b1857d",
  "confirmations": 52470,
  "height": 628,
  "version": 1,
  "versionHex": "00000001",
  "merkleroot": "e1939d77490aced40d5e6223023c05dc701e654d069a20fe269ebd435123f13f",
  "time": 1232054999,
  "mediantime": 1232051797,
  "nonce": 2973157678,
  "bits": "1d00ffff",
  "difficulty": 1,
  "chainwork": "0000000000000000000000000000000000000000000000000000027502750275",
  "nTx": 1,
  "previousblockhash": "000000004a7c386863b0f68ed98667aa7199f93e53daf51aa82c273881b60729",
  "nextblockhash": "00000000959df6e8faf7b28a0e0610574f33856b74a6b9c2888fccdc7e3e6c03",
  "strippedsize": 216,
  "size": 216,
  "weight": 864,
  "tx": [
    {
      "txid": "e1939d77490aced40d5e6223023c05dc701e654d069a20fe269ebd435123f13f",
      "hash": "e1939d77490aced40d5e6223023c05dc701e654d069a20fe269ebd435123f13f",
      "version": 1,
      "size": 135,
      "vsize": 135,
      "weight": 540,
      "locktime": 0,
      "vin": [
        {
          "coinbase": "04ffff001d021707",
          "sequence": 4294967295
        }
      ],
      "vout": [
        {
          "value": 50.0,
          "n": 0,
          "scriptPubKey": {
            "asm": "044b2b9f3cbeb30312c5c03b636e5cb5752a79b548e9296884681fafd058152f0858ceab8bc455f1567b92266b26904bff2607359bc7a05b1da0cfb0f130b86ad5 OP_CHECKSIG",
            "desc": "pk(044b2b9f3cbeb30312c5c03b636e5cb5752a79b548e9296884681fafd058152f0858ceab8bc455f1567b92266b26904bff2607359bc7a05b1da0cfb0f130b86ad5)#k00fkscc",
            "hex": "41044b2b9f3cbeb30312c5c03b636e5cb5752a79b548e9296884681fafd058152f0858ceab8bc455f1567b92266b26904bff2607359bc7a05b1da0cfb0f130b86ad5ac",
            "type": "pubkey"
          }
        }
      ],
      "hex": "01000000010000000000000000000000000000000000000000000000000000000000000000ffffffff0804ffff001d021707ffffffff0100f2052a010000004341044b2b9f3cbeb30312c5c03b636e5cb5752a79b548e9296884681fafd058152f0858ceab8bc455f1567b92266b26904bff2607359bc7a05b1da0cfb0f130b86ad5ac00000000"
    }
  ]
}