{
  "hash": "00000000a396bda7ddfea736dc41dc1ff82ab99b391da8b8d8a24147bae0fe51",
  "confirmations": 52038,
  "height": 1060,
  "version": 1,
  "versionHex": "00000001",
  "merkleroot": "5991f787f8c08f3d82c055dfc4000b2fd76e53a60954b08a84baf13664b8358e",
  "time": 1232395715,
  "mediantime": 1232391642,
  "nonce": 37734473,
  "bits": "1d00ffff",
  "difficulty": 1,
  "chainwork": "0000000000000000000000000000000000000000000000000000042504250425",
  "nTx": 1,
  "previousblockhash": "00000000f6e758bff279b5d6c6c557dd1b90511eac1df10652a2a782aa5733b5",
  "nextblockhash": "0000000062499825b027659fceb5959e09bfb6c2b856533941f6a090a02ce433",
  "strippedsize": 216,
  "size": 216,
  "weight": 864,
  "tx": [
    {
      "txid": "5991f787f8c08f3d82c055dfc4000b2fd76e53a60954b08a84baf13664b8358e",
      "hash": "5991f787f8c08f3d82c055dfc4000b2fd76e53a60954b08a84baf13664b8358e",
      "version": 1,
      "size": 135,
      "vsize": 135,
      "weight": 540,
      "locktime": 0,
      "vin": [
        {
          "coinbase": "04ffff001d029e01",
          "sequence": 4294967295
        }
      ],
      "vout": [
        {
          "value": 50.0,
          "n": 0,
          "scriptPubKey": {
            "asm": "04397d7e34a81539596e8ba66ed65b80ad1523604c2a3b4bee603aed9ea059d4eff64d12550c3d6885479a02a648e6ac79d0d53c358a24b9668a235cc38f7ae3cf OP_CHECKSIG",
            "desc": "pk(04397d7e34a81539596e8ba66ed65b80ad1523604c2a3b4bee603aed9ea059d4eff64d12550c3d6885479a02a648e6ac79d0d53c358a24b9668a235cc38f7ae3cf)#vkjydygv",
            "hex": "4104397d7e34a81539596e8ba66ed65b80ad1523604c2a3b4bee603aed9ea059d4eff64d12550c3d6885479a02a648e6ac79d0d53c358a24b9668a235cc38f7ae3cfac",
            "type": "pubkey"
          }
        }
      ],
      "hex": "01000000010000000000000000000000000000000000000000000000000000000000000000ffffffff0804ffff001d029e01ffffffff0100f2052a01000000434104397d7e34a81539596e8ba66ed65b80ad1523604c2a3b4bee603aed9ea059d4eff64d12550c3d6885479a02a648e6ac79d0d53c358a24b9668a235cc38f7ae3cfac00000000"
    }
  ]
}