{
  "hash": "0000000042908edf3f36befc516476b3f94db81051c5fc5ae6084f0c4eafa6f8",
  "confirmations": 47393,
  "height": 5705,
  "version": 1,
  "versionHex": "00000001",
  "merkleroot": "46f5e3e7b9c9ce13c5599f1cac174ddbff0970c7aa86c794255c2e5a97c73672",
  "time": 1235690124,
  "mediantime": 1235685058,
  "nonce": 3014119729,
  "bits": "1d00ffff",
  "difficulty": 1,
  "chainwork": "0000000000000000000000000000000000000000000000000000164a164a164a",
  "nTx": 1,
  "previousblockhash": "000000005bf129772a6ad06016b514fa89ee7a4ba333a657055bf709d3017c5c",
  "nextblockhash": "00000000feb1709385920e9f3df9fc8605dbb9427488bd8c71c3d2dbc8f8c073",
  "strippedsize": 216,
  "size": 216,
  "weight": 864,
  "tx": [
    {
      "txid": "46f5e3e7b9c9ce13c5599f1cac174ddbff0970c7aa86c794255c2e5a97c73672",
      "hash": "46f5e3e7b9c9ce13c5599f1cac174ddbff0970c7aa86c794255c2e5a97c73672",
      "version": 1,
      "size": 135,
      "vsize": 135,
      "weight": 540,
      "locktime": 0,
      "vin": [
        {
          "coinbase": "04ffff001d028909",
          "sequence": 4294967295
        }
      ],
      "vout": [
        {
          "value": 50.0,
          "n": 0,
          "scriptPubKey": {
            "asm": "046ce3df8732461b6cbeee4a7d71f4ee21fa760609f0cca3febc4ee01160673833f0b46aaa8f0f07e48692cda27fb44597e302ab0ece78c8abaa0b93180345ee99 OP_CHECKSIG",
            "desc": "pk(046ce3df8732461b6cbeee4a7d71f4ee21fa760609f0cca3febc4ee01160673833f0b46aaa8f0f07e48692cda27fb44597e302ab0ece78c8abaa0b93180345ee99)#3v7rltks",
            "hex": "41046ce3df8732461b6cbeee4a7d71f4ee21fa760609f0cca3febc4ee01160673833f0b46aaa8f0f07e48692cda27fb44597e302ab0ece78c8abaa0b93180345ee99ac",
            "type": "pubkey"
          }
        }
      ],
      "hex": "01000000010000000000000000000000000000000000000000000000000000000000000000ffffffff0804ffff001d028909ffffffff0100f2052a010000004341046ce3df8732461b6cbeee4a7d71f4ee21fa760609f0cca3febc4ee01160673833f0b46aaa8f0f07e48692cda27fb44597e302ab0ece78c8abaa0b93180345ee99ac00000000"
    }
  ]
}