{
  "hash": "000000006fc3e77516953428d1a272253b9cce64995145e6fee03cccc794a75a",
  "confirmations": 46768,
  "height": 6330,
  "version": 1,
  "versionHex": "00000001",
  "merkleroot": "4f82024abbc67186d91419cbf0097a87521048336e65a9db1f8836a98cc15338",
  "time": 1236197378,
  "mediantime": 1236193758,
  "nonce": 1036223766,
  "bits": "1d00ffff",
  "difficulty": 1,
  "chainwork": "000000000000000000000000000000000000000000000000000018bb18bb18bb",
  "nTx": 1,
  "previousblockhash": "00000000e4315a299d86138a2114a5a4ad426b93d2500d8deab4752bd4e1fe81",
  "nextblockhash": "0000000002b3c97bd8b0c73b03b9dcdf25353fcd9114c7ad99b249fda0025f99",
  "strippedsize": 216,
  "size": 216,
  "weight": 864,
  "tx": [
    {
      "txid": "4f82024abbc67186d91419cbf0097a87521048336e65a9db1f8836a98cc15338",
      "hash": "4f82024abbc67186d91419cbf0097a87521048336e65a9db1f8836a98cc15338",
      "version": 1,
      "size": 135,
      "vsize": 135,
      "weight": 540,
      "locktime": 0,
      "vin": [
        {
          "coinbase": "04ffff001d028800",
          "sequence": 4294967295
        }
      ],
      "vout": [
        {
          "value": 50.0,
          "n": 0,
          "scriptPubKey": {
            "asm": "045aad2826418451ffc1da088af05e301a31d0bd7c20387475d0273f03a25dd1a82aa78cd97d10e2bc5972784971adf28c423f94b17a8600879832b123072c3806 OP_CHECKSIG",
            "desc": "pk(045aad2826418451ffc1da088af05e301a31d0bd7c20387475d0273f03a25dd1a82aa78cd97d10e2bc5972784971adf28c423f94b17a8600879832b123072c3806)#r9s7nuje",
            "hex": "41045aad2826418451ffc1da088af05e301a31d0bd7c20387475d0273f03a25dd1a82aa78cd97d10e2bc5972784971adf28c423f94b17a8600879832b123072c3806ac",
            "type": "pubkey"
          }
        }
      ],
      "hex": "01000000010000000000000000000000000000000000000000000000000000000000000000ffffffff0804ffff001d028800ffffffff0100f2052a010000004341045aad2826418451ffc1da088af05e301a31d0bd7c20387475d0273f03a25dd1a82aa78cd97d10e2bc5972784971adf28c423f94b17a8600879832b123072c3806ac00000000"
    }
  ]
}