{
  "hash": "0000000059b3af167907578525bd8cd41697761192e4aceb2129d9701d13a49c",
  "confirmations": 43579,
  "height": 9519,
  "version": 1,
  "versionHex": "00000001",
  "merkleroot": "1cf2976b935d4b7253463cc160cdcb1ae60b7ab398cc04d9120ef9051edaa7c7",
  "time": 1238640866,
  "mediantime": 1238638939,
  "nonce": 14145896,
  "bits": "1d00ffff",
  "difficulty": 1,
  "chainwork": "0000000000000000000000000000000000000000000000000000253025302530",
  "nTx": 1,
  "previousblockhash": "00000000ca4019c36fc34ce3485f0bf44ac2439c593b11399059a8ba421b2a97",
  "nextblockhash": "00000000a9bf1908345264b4433ebc00479bee71f142821b46b87a12a91a1bd7",
  "strippedsize": 215,
  "size": 215,
  "weight": 860,
  "tx": [
    {
      "txid": "1cf2976b935d4b7253463cc160cdcb1ae60b7ab398cc04d9120ef9051edaa7c7",
      "hash": "1cf2976b935d4b7253463cc160cdcb1ae60b7ab398cc04d9120ef9051edaa7c7",
      "version": 1,
      "size": 134,
      "vsize": 134,
      "weight": 536,
      "locktime": 0,
      "vin": [
        {
          "coinbase": "04ffff001d0165",
          "sequence": 4294967295
        }
      ],
      "vout": [
        {
          "value": 50.0,
          "n": 0,
          "scriptPubKey": {
            "asm": "0418759d70e2c268881df233624ae48c9316b30be106d5ef2fac2862e1fd4f91bc454c73f43cb36c7aee422f284ee90c827c8008170084ee7625f6139931b4de6c OP_CHECKSIG",
            "desc": "pk(0418759d70e2c268881df233624ae48c9316b30be106d5ef2fac2862e1fd4f91bc454c73f43cb36c7aee422f284ee90c827c8008170084ee7625f6139931b4de6c)#epnrzzaj",
            "hex": "410418759d70e2c268881df233624ae48c9316b30be106d5ef2fac2862e1fd4f91bc454c73f43cb36c7aee422f284ee90c827c8008170084ee7625f6139931b4de6cac",
            "type": "pubkey"
          }
        }
      ],
      "hex": "01000000010000000000000000000000000000000000000000000000000000000000000000ffffffff0704ffff001d0165ffffffff0100f2052a0100000043410418759d70e2c268881df233624ae48c9316b30be106d5ef2fac2862e1fd4f91bc454c73f43cb36c7aee422f284ee90c827c8008170084ee7625f6139931b4de6cac00000000"
    }
  ]
}