{
  "hash": "000000005c7347e53208461ec227ff3ed52741a1adacb9f6e590e96c34cad900",
  "confirmations": 44609,
  "height": 8489,
  "version": 1,
  "versionHex": "00000001",
  "merkleroot": "957df30305cbd3fad3ad9f72627f24b80c093248bf8f9514149ddc51971dd043",
  "time": 1237861872,
  "mediantime": 1237857951,
  "nonce": 2232730918,
  "bits": "1d00ffff",
  "difficulty": 1,
  "chainwork": "0000000000000000000000000000000000000000000000000000212a212a212a",
  "nTx": 1,
  "previousblockhash": "00000000cc38146771a93a6025cffbcbdd26e106a9ce76dbe4c8bd8224e0a05d",
  "nextblockhash": "0000000006ff36ecbe0777cc448dae54c82182d4cdb3845fb5082289ad6e3626",
  "strippedsize": 216,
  "size": 216,
  "weight": 864,
  "tx": [
    {
      "txid": "957df30305cbd3fad3ad9f72627f24b80c093248bf8f9514149ddc51971dd043",
      "hash": "957df30305cbd3fad3ad9f72627f24b80c093248bf8f9514149ddc51971dd043",
      "version": 1,
      "size": 135,
      "vsize": 135,
      "weight": 540,
      "locktime": 0,
      "vin": [
        {
          "coinbase": "04ffff001d028707",
          "sequence": 4294967295
        }
      ],
      "vout": [
        {
          "value": 50.0,
          "n": 0,
          "scriptPubKey": {
            "asm": "04f8c376b8c023cc98f94988a6e2ab1520ed0a14fb7336f8870cf5b484e92709014bb3453a2fce7dd5a809dc3d821d4715664843ce404a7a5973ff0c908b795bba OP_CHECKSIG",
            "desc": "pk(04f8c376b8c023cc98f94988a6e2ab1520ed0a14fb7336f8870cf5b484e92709014bb3453a2fce7dd5a809dc3d821d4715664843ce404a7a5973ff0c908b795bba)#ykh57vua",
            "hex": "4104f8c376b8c023cc98f94988a6e2ab1520ed0a14fb7336f8870cf5b484e92709014bb3453a2fce7dd5a809dc3d821d4715664843ce404a7a5973ff0c908b795bbaac",
            "type": "pubkey"
          }
        }
      ],
      "hex": "01000000010000000000000000000000000000000000000000000000000000000000000000ffffffff0804ffff001d028707ffffffff0100f2052a01000000434104f8c376b8c023cc98f94988a6e2ab1520ed0a14fb7336f8870cf5b484e92709014bb3453a2fce7dd5a809dc3d821d4715664843ce404a7a5973ff0c908b795bbaac00000000"
    }
  ]
}