{
  "hash": "00000000b60006aa4228517957f825de73774ef378ecac7aaf794491c0057326",
  "confirmations": 51306,
  "height": 1792,
  "version": 1,
  "versionHex": "00000001",
  "merkleroot": "b65e925ea15d9d36b0afd6080ff430a0af92ea70f8711870153a5078b3c26d8a",
  "time": 1232893362,
  "mediantime": 1232891366,
  "nonce": 3787161347,
  "bits": "1d00ffff",
  "difficulty": 1,
  "chainwork": "0000000000000000000000000000000000000000000000000000070107010701",
  "nTx": 1,
  "previousblockhash": "000000000d3fbaa25f0227c92f29637a5ae5c86d3b580b4501c36ac81341f375",
  "nextblockhash": "00000000a261e79d42b6b6cb44caf88caa09688b4e945230f725a5d24ef9cdc8",
  "strippedsize": 216,
  "size": 216,
  "weight": 864,
  "tx": [
    {
      "txid": "b65e925ea15d9d36b0afd6080ff430a0af92ea70f8711870153a5078b3c26d8a",
      "hash": "b65e925ea15d9d36b0afd6080ff430a0af92ea70f8711870153a5078b3c26d8a",
      "version": 1,
      "size": 135,
      "vsize": 135,
      "weight": 540,
      "locktime": 0,
      "vin": [
        {
          "coinbase": "04ffff001d02df03",
          "sequence": 4294967295
        }
      ],
      "vout": [
        {
          "value": 50.0,
          "n": 0,
          "scriptPubKey": {
            "asm": "04604b25008d9c679c7b9e25ce07b7c7e9415cdb8cfd3109a750f1010c852a8a180e59fe24e879d9a6fc71ec47b2410d44b618b96c505f53eca8225c9e0e758445 OP_CHECKSIG",
            "desc": "pk(04604b25008d9c679c7b9e25ce07b7c7e9415cdb8cfd3109a750f1010c852a8a180e59fe24e879d9a6fc71ec47b2410d44b618b96c505f53eca8225c9e0e758445)#l654jmfh",
            "hex": "4104604b25008d9c679c7b9e25ce07b7c7e9415cdb8cfd3109a750f1010c852a8a180e59fe24e879d9a6fc71ec47b2410d44b618b96c505f53eca8225c9e0e758445ac",
            "type": "pubkey"
          }
        }
      ],
      "hex": "01000000010000000000000000000000000000000000000000000000000000000000000000ffffffff0804ffff001d02df03ffffffff0100f2052a01000000434104604b25008d9c679c7b9e25ce07b7c7e9415cdb8cfd3109a750f1010c852a8a180e59fe24e879d9a6fc71ec47b2410d44b618b96c505f53eca8225c9e0e758445ac00000000"
    }
  ]
}