{
  "hash": "00000000259e1bc251ed1341c5c905ac3497ba8cb8a6669cacf14fc396e02313",
  "confirmations": 51944,
  "height": 1154,
  "version": 1,
  "versionHex": "00000001",
  "merkleroot": "71189089b85b3c0b79dc666af6c8849a2c2407d05985b6c4e05e30c6611441fa",
  "time": 1232463379,
  "mediantime": 1232459287,
  "nonce": 3704716547,
  "bits": "1d00ffff",
  "difficulty": 1,
  "chainwork": "0000000000000000000000000000000000000000000000000000048304830483",
  "nTx": 1,
  "previousblockhash": "00000000a1d70e7b236bb9b06557f15e1ddc2fe0b67a4a3e54049601fc27b255",
  "nextblockhash": "0000000042c37bff3a0a89a0460b76b7e8fb9bca1ab626ababbdf9b5cc47929e",
  "strippedsize": 216,
  "size": 216,
  "weight": 864,
  "tx": [
    {
      "txid": "71189089b85b3c0b79dc666af6c8849a2c2407d05985b6c4e05e30c6611441fa",
      "hash": "71189089b85b3c0b79dc666af6c8849a2c2407d05985b6c4e05e30c6611441fa",
      "version": 1,
      "size": 135,
      "vsize": 135,
      "weight": 540,
      "locktime": 0,
      "vin": [
        {
          "coinbase": "04ffff001d02d507",
          "sequence": 4294967295
        }
      ],
      "vout": [
        {
          "value": 50.0,
          "n": 0,
          "scriptPubKey": {
            "asm": "046cb3f2c84f0b6bbde6e8cac5fcb71c7f85bd5e98d4d43f4845e55efa805f3d852def8cb44bae8a0998237b70148ccd34d5640d894bfbc6bf7cb29bd937cf82e9 OP_CHECKSIG",
            "desc": "pk(046cb3f2c84f0b6bbde6e8cac5fcb71c7f85bd5e98d4d43f4845e55efa805f3d852def8cb44bae8a0998237b70148ccd34d5640d894bfbc6bf7cb29bd937cf82e9)#aeav8wkp",
            "hex": "41046cb3f2c84f0b6bbde6e8cac5fcb71c7f85bd5e98d4d43f4845e55efa805f3d852def8cb44bae8a0998237b70148ccd34d5640d894bfbc6bf7cb29bd937cf82e9ac",
            "type": "pubkey"
          }
        }
      ],
      "hex": "01000000010000000000000000000000000000000000000000000000000000000000000000ffffffff0804ffff001d02d507ffffffff0100f2052a010000004341046cb3f2c84f0b6bbde6e8cac5fcb71c7f85bd5e98d4d43f4845e55efa805f3d852def8cb44bae8a0998237b70148ccd34d5640d894bfbc6bf7cb29bd937cf82e9ac00000000"
    }
  ]
}