{
  "hash": "00000000484ed3aeb7f32c789d72a730682cfc6a16fb1dfa8fd9cfddd60940dc",
  "confirmations": 47945,
  "height": 5153,
  "version": 1,
  "versionHex": "00000001",
  "merkleroot": "737f2468b72b97ab6ad17132b37b05dbb39b5f1ff487fc8737e8a09b7b573b09",
  "time": 1235254919,
  "mediantime": 1235251745,
  "nonce": 3073348356,
  "bits": "1d00ffff",
  "difficulty": 1,
  "chainwork": "0000000000000000000000000000000000000000000000000000142214221422",
  "nTx": 1,
  "previousblockhash": "0000000071859718e3c473a5b8dce1feccaca2e18320ec34daa5dd8943c3cca3",
  "nextblockhash": "00000000b4ef896caf07fc332d2a735f12c850b4bd9212fa8267b70d4c1039b9",
  "strippedsize": 216,
  "size": 216,
  "weight": 864,
  "tx": [
    {
      "txid": "737f2468b72b97ab6ad17132b37b05dbb39b5f1ff487fc8737e8a09b7b573b09",
      "hash": "737f2468b72b97ab6ad17132b37b05dbb39b5f1ff487fc8737e8a09b7b573b09",
      "version": 1,
      "size": 135,
      "vsize": 135,
      "weight": 540,
      "locktime": 0,
      "vin": [
        {
          "coinbase": "04ffff001d02f009",
          "sequence": 4294967295
        }
      ],
      "vout": [
        {
          "value": 50.0,
          "n": 0,
          "scriptPubKey": {
            "asm": "04d0edbbd0bf6f940bb708b3dd7ec9b034fea6af7bcd528b16387b9516f0e9312ad083879d9237d773de1f6157b847b657f00a7c6a779ba880fe0112bab2bfd179 OP_CHECKSIG",
            "desc": "pk(04d0edbbd0bf6f940bb708b3dd7ec9b034fea6af7bcd528b16387b9516f0e9312ad083879d9237d773de1f6157b847b657f00a7c6a779ba880fe0112bab2bfd179)#asl3h34g",
            "hex": "4104d0edbbd0bf6f940bb708b3dd7ec9b034fea6af7bcd528b16387b9516f0e9312ad083879d9237d773de1f6157b847b657f00a7c6a779ba880fe0112bab2bfd179ac",
            "type": "pubkey"
          }
        }
      ],
      "hex": "01000000010000000000000000000000000000000000000000000000000000000000000000ffffffff0804ffff001d02f009ffffffff0100f2052a01000000434104d0edbbd0bf6f940bb708b3dd7ec9b034fea6af7bcd528b16387b9516f0e9312ad083879d9237d773de1f6157b847b657f00a7c6a779ba880fe0112bab2bfd179ac00000000"
    }
  ]
}