{
  "hash": "00000000232f4805b3516eb9361c2e0e0cc3fd9ebbdcbb969e2a5b117a8bc28c",
  "confirmations": 52343,
  "height": 755,
  "version": 1,
  "versionHex": "00000001",
  "merkleroot": "d55bab37c8b69e894032f5db2b1ccb6285e745949084e274a739919a1695cff5",
  "time": 1232155719,
  "mediantime": 1232152343,
  "nonce": 1601131298,
  "bits": "1d00ffff",
  "difficulty": 1,
  "chainwork": "000000000000000000000000000000000000000000000000000002f402f402f4",
  "nTx": 1,
  "previousblockhash": "000000007a97861a5765941225104fc424dc76dcd95f2d84bae78beff16ba484",
  "nextblockhash": "0000000024c6a84ddf1a85c22e955d6b016cf13611257ad8f634cb4730158157",
  "strippedsize": 216,
  "size": 216,
  "weight": 864,
  "tx": [
    {
      "txid": "d55bab37c8b69e894032f5db2b1ccb6285e745949084e274a739919a1695cff5",
      "hash": "d55bab37c8b69e894032f5db2b1ccb6285e745949084e274a739919a1695cff5",
      "version": 1,
      "size": 135,
      "vsize": 135,
      "weight": 540,
      "locktime": 0,
      "vin": [
        {
          "coinbase": "04ffff001d02b300",
          "sequence": 4294967295
        }
      ],
      "vout": [
        {
          "value": 50.0,
          "n": 0,
          "scriptPubKey": {
            "asm": "04d2dc8b565e4f48a30ab4a9eca31365caee43334447cabe084c71f43427710bafbb7eefcea750a805a9cd0bedec43a17ec0dfb293a52a5bfd3fc5f290e17bd0f6 OP_CHECKSIG",
            "desc": "pk(04d2dc8b565e4f48a30ab4a9eca31365caee43334447cabe084c71f43427710bafbb7eefcea750a805a9cd0bedec43a17ec0dfb293a52a5bfd3fc5f290e17bd0f6)#qn48a3s5",
            "hex": "4104d2dc8b565e4f48a30ab4a9eca31365caee43334447cabe084c71f43427710bafbb7eefcea750a805a9cd0bedec43a17ec0dfb293a52a5bfd3fc5f290e17bd0f6ac",
            "type": "pubkey"
          }
        }
      ],
      "hex": "01000000010000000000000000000000000000000000000000000000000000000000000000ffffffff0804ffff001d02b300ffffffff0100f2052a01000000434104d2dc8b565e4f48a30ab4a9eca31365caee43334447cabe084c71f43427710bafbb7eefcea750a805a9cd0bedec43a17ec0dfb293a52a5bfd3fc5f290e17bd0f6ac00000000"
    }
  ]
}