{
  "hash": "000000005139fca0ddd3f3ab9372b45b51171e3ff9568dc2e5c756d08db16b0f",
  "confirmations": 47898,
  "height": 5200,
  "version": 1,
  "versionHex": "00000001",
  "merkleroot": "08025b1602b588886880cbec14ca4c1b2fcad2d037bfb2f57079be9257b0aa29",
  "time": 1235287575,
  "mediantime": 1235283713,
  "nonce": 49747388,
  "bits": "1d00ffff",
  "difficulty": 1,
  "chainwork": "0000000000000000000000000000000000000000000000000000145114511451",
  "nTx": 1,
  "previousblockhash": "0000000004b5e05be7c491eb4f6cd26c118039046cfdc10bd42f575af477f67d",
  "nextblockhash": "00000000a7900a5c3cac254aa7db9052d2f694529a49c5b0477bf4d1e09269ec",
  "strippedsize": 215,
  "size": 215,
  "weight": 860,
  "tx": [
    {
      "txid": "08025b1602b588886880cbec14ca4c1b2fcad2d037bfb2f57079be9257b0aa29",
      "hash": "08025b1602b588886880cbec14ca4c1b2fcad2d037bfb2f57079be9257b0aa29",
      "version": 1,
      "size": 134,
      "vsize": 134,
      "weight": 536,
      "locktime": 0,
      "vin": [
        {
          "coinbase": "04ffff001d0122",
          "sequence": 4294967295
        }
      ],
      "vout": [
        {
          "value": 50.0,
          "n": 0,
          "scriptPubKey": {
            "asm": "049f87669fb295f50f68363617bf6894de2218613cb8b698f370d6ee185cb39f2487a8418de080e3c228fbfc7efa878c483b626e16fad2c80a63d8f4288d7a5e8a OP_CHECKSIG",
            "desc": "pk(049f87669fb295f50f68363617bf6894de2218613cb8b698f370d6ee185cb39f2487a8418de080e3c228fbfc7efa878c483b626e16fad2c80a63d8f4288d7a5e8a)#7qtvm2s5",
            "hex": "41049f87669fb295f50f68363617bf6894de2218613cb8b698f370d6ee185cb39f2487a8418de080e3c228fbfc7efa878c483b626e16fad2c80a63d8f4288d7a5e8aac",
            "type": "pubkey"
          }
        }
      ],
      "hex": "01000000010000000000000000000000000000000000000000000000000000000000000000ffffffff0704ffff001d0122ffffffff0100f2052a010000004341049f87669fb295f50f68363617bf6894de2218613cb8b698f370d6ee185cb39f2487a8418de080e3c228fbfc7efa878c483b626e16fad2c80a63d8f4288d7a5e8aac00000000"
    }
  ]
}