{
  "hash": "00000000347030f090cf9ee7e51d421804362334d1f97905b6b7158d2d3fd737",
  "confirmations": 52105,
  "height": 993,
  "version": 1,
  "versionHex": "00000001",
  "merkleroot": "cd07a869118591c6bd02be56a8e0199615792c44b249875bab0020dd764443e1",
  "time": 1232344227,
  "mediantime": 1232340645,
  "nonce": 30008296,
  "bits": "1d00ffff",
  "difficulty": 1,
  "chainwork": "000000000000000000000000000000000000000000000000000003e203e203e2",
  "nTx": 1,
  "previousblockhash": "000000005b113ff7a3a03d633e87a416a372f09b37da8891650c6f8812e7288e",
  "nextblockhash": "00000000f6e8e7975456ff3cdff418d55552c6a99cdbaa54cddd53837f974d7b",
  "strippedsize": 216,
  "size": 216,
  "weight": 864,
  "tx": [
    {
      "txid": "cd07a869118591c6bd02be56a8e0199615792c44b249875bab0020dd764443e1",
      "hash": "cd07a869118591c6bd02be56a8e0199615792c44b249875bab0020dd764443e1",
      "version": 1,
      "size": 135,
      "vsize": 135,
      "weight": 540,
      "locktime": 0,
      "vin": [
        {
          "coinbase": "04ffff001d025d01",
          "sequence": 4294967295
        }
      ],
      "vout": [
        {
          "value": 50.0,
          "n": 0,
          "scriptPubKey": {
            "asm": "0496a1462e868752ac6e42aaea19d8d449276ee9d399d41b4e39b841108c08773caf3d991541ee0399c47a726908d8ffcf4de5986930e520b2d913c61897e92094 OP_CHECKSIG",
            "desc": "pk(0496a1462e868752ac6e42aaea19d8d449276ee9d399d41b4e39b841108c08773caf3d991541ee0399c47a726908d8ffcf4de5986930e520b2d913c61897e92094)#269eswg5",
            "hex": "410496a1462e868752ac6e42aaea19d8d449276ee9d399d41b4e39b841108c08773caf3d991541ee0399c47a726908d8ffcf4de5986930e520b2d913c61897e92094ac",
            "type": "pubkey"
          }
        }
      ],
      "hex": "01000000010000000000000000000000000000000000000000000000000000000000000000ffffffff0804ffff001d025d01ffffffff0100f2052a0100000043410496a1462e868752ac6e42aaea19d8d449276ee9d399d41b4e39b841108c08773caf3d991541ee0399c47a726908d8ffcf4de5986930e520b2d913c61897e92094ac00000000"
    }
  ]
}