{
  "hash": "00000000819d198eb8ce9df3d5ddba6ee710cc637e83d5d806dbb541ebd85445",
  "confirmations": 43977,
  "height": 9121,
  "version": 1,
  "versionHex": "00000001",
  "merkleroot": "6338a680fb28d29ecca6e4a6462a2e95be7d0086080167c1a2c690b08597e6b7",
  "time": 1238345035,
  "mediantime": 1238341204,
  "nonce": 215028846,
  "bits": "1d00ffff",
  "difficulty": 1,
  "chainwork": "000000000000000000000000000000000000000000000000000023a223a223a2",
  "nTx": 1,
  "previousblockhash": "00000000a991eb99233461c8f4462aa648e9415a44d92878bf6f605ff26a8a27",
  "nextblockhash": "00000000d4ff8c141c0b6ddab614cced66667ed7e37116f135ae90258a2e0867",
  "strippedsize": 216,
  "size": 216,
  "weight": 864,
  "tx": [
    {
      "txid": "6338a680fb28d29ecca6e4a6462a2e95be7d0086080167c1a2c690b08597e6b7",
      "hash": "6338a680fb28d29ecca6e4a6462a2e95be7d0086080167c1a2c690b08597e6b7",
      "version": 1,
      "size": 135,
      "vsize": 135,
      "weight": 540,
      "locktime": 0,
      "vin": [
        {
          "coinbase": "04ffff001d024904",
          "sequence": 4294967295
        }
      ],
      "vout": [
        {
          "value": 50.0,
          "n": 0,
          "scriptPubKey": {
            "asm": "04ae188a136c8d2f3f457f4397f1e0a05c41a76a8baeefa9ae5e668d0995a960e4283ce37e98ff61be29009a74fb51346f4620576fae0f0017dbf215225e53e468 OP_CHECKSIG",
            "desc": "pk(04ae188a136c8d2f3f457f4397f1e0a05c41a76a8baeefa9ae5e668d0995a960e4283ce37e98ff61be29009a74fb51346f4620576fae0f0017dbf215225e53e468)#qymz00j3",
            "hex": "4104ae188a136c8d2f3f457f4397f1e0a05c41a76a8baeefa9ae5e668d0995a960e4283ce37e98ff61be29009a74fb51346f4620576fae0f0017dbf215225e53e468ac",
            "type": "pubkey"
          }
        }
      ],
      "hex": "01000000010000000000000000000000000000000000000000000000000000000000000000ffffffff0804ffff001d024904ffffffff0100f2052a01000000434104ae188a136c8d2f3f457f4397f1e0a05c41a76a8baeefa9ae5e668d0995a960e4283ce37e98ff61be29009a74fb51346f4620576fae0f0017dbf215225e53e468ac00000000"
    }
  ]
}