{
  "hash": "00000000a8a4f0d56f23e2b25d89a88c7542ef6c3c4ac2027d0d2d1fac70d56f",
  "confirmations": 48229,
  "height": 4869,
  "version": 1,
  "versionHex": "00000001",
  "merkleroot": "0b7b891abfd84b77596d5507b047d5c4ed642913e78ab715d912f9395cd9bebf",
  "time": 1235050646,
  "mediantime": 1235047107,
  "nonce": 126350350,
  "bits": "1d00ffff",
  "difficulty": 1,
  "chainwork": "0000000000000000000000000000000000000000000000000000130613061306",
  "nTx": 1,
  "previousblockhash": "00000000a62af389701fa23c5aa195906449c39bd26e49894c75e2936e21cb01",
  "nextblockhash": "00000000152f06cc03da5cedf76320afe61b0e59156e04ff3ad9857e7e2a47f7",
  "strippedsize": 215,
  "size": 215,
  "weight": 860,
  "tx": [
    {
      "txid": "0b7b891abfd84b77596d5507b047d5c4ed642913e78ab715d912f9395cd9bebf",
      "hash": "0b7b891abfd84b77596d5507b047d5c4ed642913e78ab715d912f9395cd9bebf",
      "version": 1,
      "size": 134,
      "vsize": 134,
      "weight": 536,
      "locktime": 0,
      "vin": [
        {
          "coinbase": "04ffff001d0134",
          "sequence": 4294967295
        }
      ],
      "vout": [
        {
          "value": 50.0,
          "n": 0,
          "scriptPubKey": {
            "asm": "0453f97554c6d90bcfff7a3f13ffd4e7568a9994c603df60f5114ee04eed04cb48902f0da6403084cfeefc350a4ff8280e17639e6729f4da9256b8d3492d74eb37 OP_CHECKSIG",
            "desc": "pk(0453f97554c6d90bcfff7a3f13ffd4e7568a9994c603df60f5114ee04eed04cb48902f0da6403084cfeefc350a4ff8280e17639e6729f4da9256b8d3492d74eb37)#dyfx9u53",
            "hex": "410453f97554c6d90bcfff7a3f13ffd4e7568a9994c603df60f5114ee04eed04cb48902f0da6403084cfeefc350a4ff8280e17639e6729f4da9256b8d3492d74eb37ac",
            "type": "pubkey"
          }
        }
      ],
      "hex": "01000000010000000000000000000000000000000000000000000000000000000000000000ffffffff0704ffff001d0134ffffffff0100f2052a0100000043410453f97554c6d90bcfff7a3f13ffd4e7568a9994c603df60f5114ee04eed04cb48902f0da6403084cfeefc350a4ff8280e17639e6729f4da9256b8d3492d74eb37ac00000000"
    }
  ]
}