{
  "hash": "000000000c52354ba07004839e93b43a90d17fdff43732ed32267ef07e887137",
  "confirmations": 44126,
  "height": 8972,
  "version": 1,
  "versionHex": "00000001",
  "merkleroot": "94a2204bdaa7e37f62163fcf740d7b58740867a700fcab4e210358250d91177c",
  "time": 1238232614,
  "mediantime": 1238229943,
  "nonce": 4172010530,
  "bits": "1d00ffff",
  "difficulty": 1,
  "chainwork": "0000000000000000000000000000000000000000000000000000230d230d230d",
  "nTx": 1,
  "previousblockhash": "000000004135e9bcc2ce23326ca43eb91f92f6021699ca8e89088a2a097c4d48",
  "nextblockhash": "00000000156fd2cf2dd0589f39c323f99b934d0b08fd1188976c69b53842390d",
  "strippedsize": 216,
  "size": 216,
  "weight": 864,
  "tx": [
    {
      "txid": "94a2204bdaa7e37f62163fcf740d7b58740867a700fcab4e210358250d91177c",
      "hash": "94a2204bdaa7e37f62163fcf740d7b58740867a700fcab4e210358250d91177c",
      "version": 1,
      "size": 135,
      "vsize": 135,
      "weight": 540,
      "locktime": 0,
      "vin": [
        {
          "coinbase": "04ffff001d02f605",
          "sequence": 4294967295
        }
      ],
      "vout": [
        {
          "value": 50.0,
          "n": 0,
          "scriptPubKey": {
            "asm": "049fef829ff63e331dd883163361dd96c0858c7f9a3758d8eeeb3d92c5736a1804393b9216c1fdbeedd7dfba66fd2d16ad092630e800a9484327a7f5dc792f53e1 OP_CHECKSIG",
            "desc": "pk(049fef829ff63e331dd883163361dd96c0858c7f9a3758d8eeeb3d92c5736a1804393b9216c1fdbeedd7dfba66fd2d16ad092630e800a9484327a7f5dc792f53e1)#nf5mvv8v",
            "hex": "41049fef829ff63e331dd883163361dd96c0858c7f9a3758d8eeeb3d92c5736a1804393b9216c1fdbeedd7dfba66fd2d16ad092630e800a9484327a7f5dc792f53e1ac",
            "type": "pubkey"
          }
        }
      ],
      "hex": "01000000010000000000000000000000000000000000000000000000000000000000000000ffffffff0804ffff001d02f605ffffffff0100f2052a010000004341049fef829ff63e331dd883163361dd96c0858c7f9a3758d8eeeb3d92c5736a1804393b9216c1fdbeedd7dfba66fd2d16ad092630e800a9484327a7f5dc792f53e1ac00000000"
    }
  ]
}