{
  "hash": "00000000bdfb91e2ff603c06a2487f6b046e23999312a7e68beb164cf5524b6c",
  "confirmations": 51590,
  "height": 1508,
  "version": 1,
  "versionHex": "00000001",
  "merkleroot": "71160838a58d4e86cbac63dcbd0985880cd2197ba1256b57539f9b0e0ccb5a9e",
  "time": 1232771489,
  "mediantime": 1232769467,
  "nonce": 1518155039,
  "bits": "1d00ffff",
  "difficulty": 1,
  "chainwork": "000000000000000000000000000000000000000000000000000005e505e505e5",
  "nTx": 1,
  "previousblockhash": "000000007e1ac8ccd506621e0bff04bc0af3c3aa16b5be64084eb23779c1d166",
  "nextblockhash": "000000007cf65564396af4a75ba96d5a07123d9f430faaf49758abc4e50cf2ea",
  "strippedsize": 216,
  "size": 216,
  "weight": 864,
  "tx": [
    {
      "txid": "71160838a58d4e86cbac63dcbd0985880cd2197ba1256b57539f9b0e0ccb5a9e",
      "hash": "71160838a58d4e86cbac63dcbd0985880cd2197ba1256b57539f9b0e0ccb5a9e",
      "version": 1,
      "size": 135,
      "vsize": 135,
      "weight": 540,
      "locktime": 0,
      "vin": [
        {
          "coinbase": "04ffff001d023801",
          "sequence": 4294967295
        }
      ],
      "vout": [
        {
          "value": 50.0,
          "n": 0,
          "scriptPubKey": {
            "asm": "04bbced973bddc068d1ba9430cef591c9e8b01d64baa18b1d623e20f32be7500e51f40afac4f6328c07c78f37140b3ab31896e5a69b43c1d25d48664cafa33db28 OP_CHECKSIG",
            "desc": "pk(04bbced973bddc068d1ba9430cef591c9e8b01d64baa18b1d623e20f32be7500e51f40afac4f6328c07c78f37140b3ab31896e5a69b43c1d25d48664cafa33db28)#d9ht83pf",
            "hex": "4104bbced973bddc068d1ba9430cef591c9e8b01d64baa18b1d623e20f32be7500e51f40afac4f6328c07c78f37140b3ab31896e5a69b43c1d25d48664cafa33db28ac",
            "type": "pubkey"
          }
        }
      ],
      "hex": "01000000010000000000000000000000000000000000000000000000000000000000000000ffffffff0804ffff001d023801ffffffff0100f2052a01000000434104bbced973bddc068d1ba9430cef591c9e8b01d64baa18b1d623e20f32be7500e51f40afac4f6328c07c78f37140b3ab31896e5a69b43c1d25d48664cafa33db28ac00000000"
    }
  ]
}