{
  "hash": "000000006b6a210ca5b715e587c0155a2524c3d592266bdbd75cf1186172dab8",
  "confirmations": 51985,
  "height": 355,
  "version": 1,
  "versionHex": "00000001",
  "merkleroot": "3caf7b5832b0be3621ec166a3560e90bf267485a987f6d3e99b1e142497f2ae0",
  "time": 1231869577,
  "mediantime": 1231865478,
  "nonce": 974193704,
  "bits": "1d00ffff",
  "difficulty": 1,
  "chainwork": "0000000000000000000000000000000000000000000000000000016401640164",
  "nTx": 1,
  "previousblockhash": "000000009bbc82871dd828a2573d035d05cc2947c7d99668609f6c671779436c",
  "nextblockhash": "00000000e125dc5a97591697785b3a3cbb9a9c2857d4a0a3a9905461eceb1ddd",
  "strippedsize": 216,
  "size": 216,
  "weight": 864,
  "tx": [
    {
      "txid": "3caf7b5832b0be3621ec166a3560e90bf267485a987f6d3e99b1e142497f2ae0",
      "hash": "3caf7b5832b0be3621ec166a3560e90bf267485a987f6d3e99b1e142497f2ae0",
      "version": 1,
      "size": 135,
      "vsize": 135,
      "weight": 540,
      "locktime": 0,
      "vin": [
        {
          "coinbase": "04ffff001d02a201",
          "sequence": 4294967295
        }
      ],
      "vout": [
        {
          "value": 50.0,
          "n": 0,
          "scriptPubKey": {
            "asm": "0430b51ef35b3a0df616e5aa73ac0c1e1362a194ac7bb04b76b36f140e8ee9cdecdf0692601f0c9e9028ca8ccef4664b7d30c5276dbeb156064752dcae508b0eea OP_CHECKSIG",
            "desc": "pk(0430b51ef35b3a0df616e5aa73ac0c1e1362a194ac7bb04b76b36f140e8ee9cdecdf0692601f0c9e9028ca8ccef4664b7d30c5276dbeb156064752dcae508b0eea)#j5yyupuz",
            "hex": "410430b51ef35b3a0df616e5aa73ac0c1e1362a194ac7bb04b76b36f140e8ee9cdecdf0692601f0c9e9028ca8ccef4664b7d30c5276dbeb156064752dcae508b0eeaac",
            "type": "pubkey"
          }
        }
      ],
      "hex": "01000000010000000000000000000000000000000000000000000000000000000000000000ffffffff0804ffff001d02a201ffffffff0100f2052a0100000043410430b51ef35b3a0df616e5aa73ac0c1e1362a194ac7bb04b76b36f140e8ee9cdecdf0692601f0c9e9028ca8ccef4664b7d30c5276dbeb156064752dcae508b0eeaac00000000"
    }
  ]
}