{
  "hash": "00000000dc647e1a8dab876039d77f9e54561b6996bc4bf63f7398cfb19d83fc",
  "confirmations": 45816,
  "height": 7282,
  "version": 1,
  "versionHex": "00000001",
  "merkleroot": "570a1b0b8eb4aaad4e6863142721d82321f08957e77bdfcf32a272f0c535d239",
  "time": 1236933090,
  "mediantime": 1236929521,
  "nonce": 2076291116,
  "bits": "1d00ffff",
  "difficulty": 1,
  "chainwork": "00000000000000000000000000000000000000000000000000001c731c731c73",
  "nTx": 1,
  "previousblockhash": "000000007a6f495d4f7495b8f36266822d741415acf0ceb3729f8863ea8e6567",
  "nextblockhash": "000000006ffb9188ef126ff462598687db7832ec71041d3b90e0b559e8d00bbe",
  "strippedsize": 216,
  "size": 216,
  "weight": 864,
  "tx": [
    {
      "txid": "570a1b0b8eb4aaad4e6863142721d82321f08957e77bdfcf32a272f0c535d239",
      "hash": "570a1b0b8eb4aaad4e6863142721d82321f08957e77bdfcf32a272f0c535d239",
      "version": 1,
      "size": 135,
      "vsize": 135,
      "weight": 540,
      "locktime": 0,
      "vin": [
        {
          "coinbase": "04ffff001d020507",
          "sequence": 4294967295
        }
      ],
      "vout": [
        {
          "value": 50.0,
          "n": 0,
          "scriptPubKey": {
            "asm": "04f356eb158c2ec7767890d2e367222d46620f8ce259bb32fb5f38fe14fa8d72d0f651f26668e2c2c9157cd6018645eb3833f05b83b779f2189d4cd40c79b97913 OP_CHECKSIG",
            "desc": "pk(04f356eb158c2ec7767890d2e367222d46620f8ce259bb32fb5f38fe14fa8d72d0f651f26668e2c2c9157cd6018645eb3833f05b83b779f2189d4cd40c79b97913)#rr8v2pqt",
            "hex": "4104f356eb158c2ec7767890d2e367222d46620f8ce259bb32fb5f38fe14fa8d72d0f651f26668e2c2c9157cd6018645eb3833f05b83b779f2189d4cd40c79b97913ac",
            "type": "pubkey"
          }
        }
      ],
      "hex": "01000000010000000000000000000000000000000000000000000000000000000000000000ffffffff0804ffff001d020507ffffffff0100f2052a01000000434104f356eb158c2ec7767890d2e367222d46620f8ce259bb32fb5f38fe14fa8d72d0f651f26668e2c2c9157cd6018645eb3833f05b83b779f2189d4cd40c79b97913ac00000000"
    }
  ]
}