{
  "hash": "000000007eff6cf2aaf401206860911f5c41565162de63e687d627e20335ef0a",
  "confirmations": 52035,
  "height": 302,
  "version": 1,
  "versionHex": "00000001",
  "merkleroot": "e3571250e3f925ce7af635e1b049db5a7f3d10ab43f8961b3e5c8d4a8845cae1",
  "time": 1231833861,
  "mediantime": 1231829772,
  "nonce": 4007265592,
  "bits": "1d00ffff",
  "difficulty": 1,
  "chainwork": "0000000000000000000000000000000000000000000000000000012f012f012f",
  "nTx": 1,
  "previousblockhash": "00000000a23332a5740d8676baabcbffe490fd8849b6d30f7399b83aedd733f6",
  "nextblockhash": "000000006be00235ed1d0b71d20f33c3daaba0a3ebd8169967ce94e32b288860",
  "strippedsize": 215,
  "size": 215,
  "weight": 860,
  "tx": [
    {
      "txid": "e3571250e3f925ce7af635e1b049db5a7f3d10ab43f8961b3e5c8d4a8845cae1",
      "hash": "e3571250e3f925ce7af635e1b049db5a7f3d10ab43f8961b3e5c8d4a8845cae1",
      "version": 1,
      "size": 134,
      "vsize": 134,
      "weight": 536,
      "locktime": 0,
      "vin": [
        {
          "coinbase": "04ffff001d0170",
          "sequence": 4294967295
        }
      ],
      "vout": [
        {
          "value": 50.0,
          "n": 0,
          "scriptPubKey": {
            "asm": "04b6546b932e5fbb27ba58d4b7466275ca16bb365b635e440ce38d81661addf4a5c9cd32b08963c69d4c35ae512a6dbcf981cd503929b582f827abb0ceb6fe07b3 OP_CHECKSIG",
            "desc": "pk(04b6546b932e5fbb27ba58d4b7466275ca16bb365b635e440ce38d81661addf4a5c9cd32b08963c69d4c35ae512a6dbcf981cd503929b582f827abb0ceb6fe07b3)#g43yxhx4",
            "hex": "4104b6546b932e5fbb27ba58d4b7466275ca16bb365b635e440ce38d81661addf4a5c9cd32b08963c69d4c35ae512a6dbcf981cd503929b582f827abb0ceb6fe07b3ac",
            "type": "pubkey"
          }
        }
      ],
      "hex": "01000000010000000000000000000000000000000000000000000000000000000000000000ffffffff0704ffff001d0170ffffffff0100f2052a01000000434104b6546b932e5fbb27ba58d4b7466275ca16bb365b635e440ce38d81661addf4a5c9cd32b08963c69d4c35ae512a6dbcf981cd503929b582f827abb0ceb6fe07b3ac00000000"
    }
  ]
}