{
  "hash": "0000000052e8defdf229e53f422755f9c4a9a9f031d8caad0fb64f285ad186f6",
  "confirmations": 52151,
  "height": 947,
  "version": 1,
  "versionHex": "00000001",
  "merkleroot": "aefd630d82657f09db160afa2512eb9f5a585b49d9ccf7189f45fa90fddeeea2",
  "time": 1232311132,
  "mediantime": 1232307944,
  "nonce": 3477715234,
  "bits": "1d00ffff",
  "difficulty": 1,
  "chainwork": "000000000000000000000000000000000000000000000000000003b403b403b4",
  "nTx": 1,
  "previousblockhash": "00000000dc9198f0e49f7af2f4d78c935dd3f4523d9a88d1c938bdd448337edc",
  "nextblockhash": "00000000721d433c05a77906cac3261bcfb79b3ce3db11cee016ba1a05e878f1",
  "strippedsize": 216,
  "size": 216,
  "weight": 864,
  "tx": [
    {
      "txid": "aefd630d82657f09db160afa2512eb9f5a585b49d9ccf7189f45fa90fddeeea2",
      "hash": "aefd630d82657f09db160afa2512eb9f5a585b49d9ccf7189f45fa90fddeeea2",
      "version": 1,
      "size": 135,
      "vsize": 135,
      "weight": 540,
      "locktime": 0,
      "vin": [
        {
          "coinbase": "04ffff001d024a04",
          "sequence": 4294967295
        }
      ],
      "vout": [
        {
          "value": 50.0,
          "n": 0,
          "scriptPubKey": {
            "asm": "04fb3c8835d951702e03dfb64d19ec554ef6cb2a5971b48c477da982cf7fb94e411b9d0444404e96c1e7acb10f032581247da667c74479357edf285b4d067f8441 OP_CHECKSIG",
            "desc": "pk(04fb3c8835d951702e03dfb64d19ec554ef6cb2a5971b48c477da982cf7fb94e411b9d0444404e96c1e7acb10f032581247da667c74479357edf285b4d067f8441)#pgk33dg6",
            "hex": "4104fb3c8835d951702e03dfb64d19ec554ef6cb2a5971b48c477da982cf7fb94e411b9d0444404e96c1e7acb10f032581247da667c74479357edf285b4d067f8441ac",
            "type": "pubkey"
          }
        }
      ],
      "hex": "01000000010000000000000000000000000000000000000000000000000000000000000000ffffffff0804ffff001d024a04ffffffff0100f2052a01000000434104fb3c8835d951702e03dfb64d19ec554ef6cb2a5971b48c477da982cf7fb94e411b9d0444404e96c1e7acb10f032581247da667c74479357edf285b4d067f8441ac00000000"
    }
  ]
}