{
  "hash": "0000000068f0ffcd5493d706ced42fd21407d9e2cd2c90eedbb53430fb7df297",
  "confirmations": 50881,
  "height": 2217,
  "version": 1,
  "versionHex": "00000001",
  "merkleroot": "a568a4984c971015ce632a3034cbda769c9d20c2a33a97eb464ca58252366ef3",
  "time": 1233225567,
  "mediantime": 1233222520,
  "nonce": 1850289435,
  "bits": "1d00ffff",
  "difficulty": 1,
  "chainwork": "000000000000000000000000000000000000000000000000000008aa08aa08aa",
  "nTx": 1,
  "previousblockhash": "0000000057ce692a1c822d97ea4111f7f157d8c0052114df5c6c1492743753fb",
  "nextblockhash": "000000004461f7c3d567d2d658ee66317859bc922f270438df621a0e851571fc",
  "strippedsize": 216,
  "size": 216,
  "weight": 864,
  "tx": [
    {
      "txid": "a568a4984c971015ce632a3034cbda769c9d20c2a33a97eb464ca58252366ef3",
      "hash": "a568a4984c971015ce632a3034cbda769c9d20c2a33a97eb464ca58252366ef3",
      "version": 1,
      "size": 135,
      "vsize": 135,
      "weight": 540,
      "locktime": 0,
      "vin": [
        {
          "coinbase": "04ffff001d029800",
          "sequence": 4294967295
        }
      ],
      "vout": [
        {
          "value": 50.0,
          "n": 0,
          "scriptPubKey": {
            "asm": "04bb1e861c6537d543a826ff2c98e49703d2fb129af2c6c42640eda921524a68868530d320391fd3410b2eb0f830b22e89a275fb151c154666e98af36fbf92d83f OP_CHECKSIG",
            "desc": "pk(04bb1e861c6537d543a826ff2c98e49703d2fb129af2c6c42640eda921524a68868530d320391fd3410b2eb0f830b22e89a275fb151c154666e98af36fbf92d83f)#m7q87sz5",
            "hex": "4104bb1e861c6537d543a826ff2c98e49703d2fb129af2c6c42640eda921524a68868530d320391fd3410b2eb0f830b22e89a275fb151c154666e98af36fbf92d83fac",
            "type": "pubkey"
          }
        }
      ],
      "hex": "01000000010000000000000000000000000000000000000000000000000000000000000000ffffffff0804ffff001d029800ffffffff0100f2052a01000000434104bb1e861c6537d543a826ff2c98e49703d2fb129af2c6c42640eda921524a68868530d320391fd3410b2eb0f830b22e89a275fb151c154666e98af36fbf92d83fac00000000"
    }
  ]
}