{
  "hash": "00000000cf513443f3b41f0868cce9111f76d1016f106831a2d07c8625123471",
  "confirmations": 43613,
  "height": 9485,
  "version": 1,
  "versionHex": "00000001",
  "merkleroot": "18d69f49e56cab4f646dc0307dd17f9a4ce50b85f40f4f6b2412a65a44203c17",
  "time": 1238618915,
  "mediantime": 1238614620,
  "nonce": 1974558728,
  "bits": "1d00ffff",
  "difficulty": 1,
  "chainwork": "0000000000000000000000000000000000000000000000000000250e250e250e",
  "nTx": 1,
  "previousblockhash": "0000000001b609c73fd98ed701a1f3654b4a9e66c4e3447e46076c5aa3d41913",
  "nextblockhash": "000000009fb7cad2f4a67dbf5e9aa10b6d1752491b1ef54211425e49492031c9",
  "strippedsize": 216,
  "size": 216,
  "weight": 864,
  "tx": [
    {
      "txid": "18d69f49e56cab4f646dc0307dd17f9a4ce50b85f40f4f6b2412a65a44203c17",
      "hash": "18d69f49e56cab4f646dc0307dd17f9a4ce50b85f40f4f6b2412a65a44203c17",
      "version": 1,
      "size": 135,
      "vsize": 135,
      "weight": 540,
      "locktime": 0,
      "vin": [
        {
          "coinbase": "04ffff001d023405",
          "sequence": 4294967295
        }
      ],
      "vout": [
        {
          "value": 50.0,
          "n": 0,
          "scriptPubKey": {
            "asm": "04790f8c4a90ccb9450b7c0d92891edb59fa38d3ac17296645dbce2a54265531302acdf8809f3ab9d5e42007f798e458e4482e575a12bfedd09a9603e6e512bd80 OP_CHECKSIG",
            "desc": "pk(04790f8c4a90ccb9450b7c0d92891edb59fa38d3ac17296645dbce2a54265531302acdf8809f3ab9d5e42007f798e458e4482e575a12bfedd09a9603e6e512bd80)#2euzk5rc",
            "hex": "4104790f8c4a90ccb9450b7c0d92891edb59fa38d3ac17296645dbce2a54265531302acdf8809f3ab9d5e42007f798e458e4482e575a12bfedd09a9603e6e512bd80ac",
            "type": "pubkey"
          }
        }
      ],
      "hex": "01000000010000000000000000000000000000000000000000000000000000000000000000ffffffff0804ffff001d023405ffffffff0100f2052a01000000434104790f8c4a90ccb9450b7c0d92891edb59fa38d3ac17296645dbce2a54265531302acdf8809f3ab9d5e42007f798e458e4482e575a12bfedd09a9603e6e512bd80ac00000000"
    }
  ]
}