{
  "hash": "0000000098d356d3127dc1a9984018c08692c89121d340910be45497691b2a63",
  "confirmations": 44099,
  "height": 8999,
  "version": 1,
  "versionHex": "00000001",
  "merkleroot": "6bb814a946272d1d3e7e05fda03cac569f8ad493d004335691e4ded37b089357",
  "time": 1238252140,
  "mediantime": 1238248659,
  "nonce": 2997418771,
  "bits": "1d00ffff",
  "difficulty": 1,
  "chainwork": "0000000000000000000000000000000000000000000000000000232823282328",
  "nTx": 1,
  "previousblockhash": "000000003a72ab8ed0504528f0d8272445d2cb77af3367f2b3c274a52b7f9ee5",
  "nextblockhash": "00000000415c7a0f3e54ed29a3165414e5952fce6848b697696fcc840011a5b5",
  "strippedsize": 216,
  "size": 216,
  "weight": 864,
  "tx": [
    {
      "txid": "6bb814a946272d1d3e7e05fda03cac569f8ad493d004335691e4ded37b089357",
      "hash": "6bb814a946272d1d3e7e05fda03cac569f8ad493d004335691e4ded37b089357",
      "version": 1,
      "size": 135,
      "vsize": 135,
      "weight": 540,
      "locktime": 0,
      "vin": [
        {
          "coinbase": "04ffff001d025d06",
          "sequence": 4294967295
        }
      ],
      "vout": [
        {
          "value": 50.0,
          "n": 0,
          "scriptPubKey": {
            "asm": "048245543a6799ad7d71aa823bcef5e25bcf984cf5ed7d728e88dd2e4b1b405b76c6115af1ef913fec95ccc3b6378fffb6777ccbf12e53acf6d4703974c3a1299f OP_CHECKSIG",
            "desc": "pk(048245543a6799ad7d71aa823bcef5e25bcf984cf5ed7d728e88dd2e4b1b405b76c6115af1ef913fec95ccc3b6378fffb6777ccbf12e53acf6d4703974c3a1299f)#ykgqt9yy",
            "hex": "41048245543a6799ad7d71aa823bcef5e25bcf984cf5ed7d728e88dd2e4b1b405b76c6115af1ef913fec95ccc3b6378fffb6777ccbf12e53acf6d4703974c3a1299fac",
            "type": "pubkey"
          }
        }
      ],
      "hex": "01000000010000000000000000000000000000000000000000000000000000000000000000ffffffff0804ffff001d025d06ffffffff0100f2052a010000004341048245543a6799ad7d71aa823bcef5e25bcf984cf5ed7d728e88dd2e4b1b405b76c6115af1ef913fec95ccc3b6378fffb6777ccbf12e53acf6d4703974c3a1299fac00000000"
    }
  ]
}