{
  "hash": "000000004245a3a490252f474486d5dc0c40ecd6c64b0066872e81a65d47ad04",
  "confirmations": 46979,
  "height": 6119,
  "version": 1,
  "versionHex": "00000001",
  "merkleroot": "653a007071ac61d7f47ca93630149dc48426d5a75048d627338847bc0de671d3",
  "time": 1236025066,
  "mediantime": 1236020073,
  "nonce": 3683489301,
  "bits": "1d00ffff",
  "difficulty": 1,
  "chainwork": "000000000000000000000000000000000000000000000000000017e817e817e8",
  "nTx": 1,
  "previousblockhash": "00000000a3eb27a6abcc24d18af3cf28013c39643228ab02493463346dadf3c0",
  "nextblockhash": "0000000045eebeb8dde04afe8706f42b549aa63cf8fa478e46917ef823335e44",
  "strippedsize": 216,
  "size": 216,
  "weight": 864,
  "tx": [
    {
      "txid": "653a007071ac61d7f47ca93630149dc48426d5a75048d627338847bc0de671d3",
      "hash": "653a007071ac61d7f47ca93630149dc48426d5a75048d627338847bc0de671d3",
      "version": 1,
      "size": 135,
      "vsize": 135,
      "weight": 540,
      "locktime": 0,
      "vin": [
        {
          "coinbase": "04ffff001d022407",
          "sequence": 4294967295
        }
      ],
      "vout": [
        {
          "value": 50.0,
          "n": 0,
          "scriptPubKey": {
            "asm": "0485d28bf7d1a97bc56f33cf66a73cdefde8768d5750cae20ee151db8bcb213fe4b7e769fc8858327f7dd8a30f303c524e1ae99ab59067f5352212f6b44e543884 OP_CHECKSIG",
            "desc": "pk(0485d28bf7d1a97bc56f33cf66a73cdefde8768d5750cae20ee151db8bcb213fe4b7e769fc8858327f7dd8a30f303c524e1ae99ab59067f5352212f6b44e543884)#t3030hpn",
            "hex": "410485d28bf7d1a97bc56f33cf66a73cdefde8768d5750cae20ee151db8bcb213fe4b7e769fc8858327f7dd8a30f303c524e1ae99ab59067f5352212f6b44e543884ac",
            "type": "pubkey"
          }
        }
      ],
      "hex": "01000000010000000000000000000000000000000000000000000000000000000000000000ffffffff0804ffff001d022407ffffffff0100f2052a0100000043410485d28bf7d1a97bc56f33cf66a73cdefde8768d5750cae20ee151db8bcb213fe4b7e769fc8858327f7dd8a30f303c524e1ae99ab59067f5352212f6b44e543884ac00000000"
    }
  ]
}