{
  "hash": "00000000d03697646ccb60f11e360d5bfb0416885db1fe89b42921af7557df49",
  "confirmations": 43112,
  "height": 9986,
  "version": 1,
  "versionHex": "00000001",
  "merkleroot": "9010ebbf943196fada273f826c80672116f7f0d5616709f65aa8f39de410f963",
  "time": 1238978867,
  "mediantime": 1238976852,
  "nonce": 3689998336,
  "bits": "1d00ffff",
  "difficulty": 1,
  "chainwork": "0000000000000000000000000000000000000000000000000000270327032703",
  "nTx": 1,
  "previousblockhash": "0000000028b5a0355daaec03a326df3c9118c35ca86dfdde7500d59e2af6a91a",
  "nextblockhash": "0000000001128326262ef6ae9d1a332d7d2893287a6943d83c756afc06dd81d3",
  "strippedsize": 216,
  "size": 216,
  "weight": 864,
  "tx": [
    {
      "txid": "9010ebbf943196fada273f826c80672116f7f0d5616709f65aa8f39de410f963",
      "hash": "9010ebbf943196fada273f826c80672116f7f0d5616709f65aa8f39de410f963",
      "version": 1,
      "size": 135,
      "vsize": 135,
      "weight": 540,
      "locktime": 0,
      "vin": [
        {
          "coinbase": "04ffff001d022c03",
          "sequence": 4294967295
        }
      ],
      "vout": [
        {
          "value": 50.0,
          "n": 0,
          "scriptPubKey": {
            "asm": "04354f4cb3fb4c108ac8863965f733d0675d4bf38ef4e0e0286fa99b5688aeb896f0fde1835ffa6393367d9a3cd8f164709ef2b13abf3bff6899ff744e113e3fb2 OP_CHECKSIG",
            "desc": "pk(04354f4cb3fb4c108ac8863965f733d0675d4bf38ef4e0e0286fa99b5688aeb896f0fde1835ffa6393367d9a3cd8f164709ef2b13abf3bff6899ff744e113e3fb2)#6heneffz",
            "hex": "4104354f4cb3fb4c108ac8863965f733d0675d4bf38ef4e0e0286fa99b5688aeb896f0fde1835ffa6393367d9a3cd8f164709ef2b13abf3bff6899ff744e113e3fb2ac",
            "type": "pubkey"
          }
        }
      ],
      "hex": "01000000010000000000000000000000000000000000000000000000000000000000000000ffffffff0804ffff001d022c03ffffffff0100f2052a01000000434104354f4cb3fb4c108ac8863965f733d0675d4bf38ef4e0e0286fa99b5688aeb896f0fde1835ffa6393367d9a3cd8f164709ef2b13abf3bff6899ff744e113e3fb2ac00000000"
    }
  ]
}