{
  "hash": "00000000c098f9ff9bd14d9edb3c1ba38024a3a1a0c89a50570ba45c70128fa6",
  "confirmations": 45126,
  "height": 7972,
  "version": 1,
  "versionHex": "00000001",
  "merkleroot": "164a2340e9dd7d621768603ad9f0bcdf1d80b7737dd4e0e23b2cdfd5ad86c73b",
  "time": 1237443203,
  "mediantime": 1237438973,
  "nonce": 3426816058,
  "bits": "1d00ffff",
  "difficulty": 1,
  "chainwork": "00000000000000000000000000000000000000000000000000001f251f251f25",
  "nTx": 1,
  "previousblockhash": "000000003be532452e00cd5820a7597f3b86a0707174d5fe8ab10198006d3240",
  "nextblockhash": "00000000697c9c23663f76d60e6d777ce26011ba3539b34963a34a320aedc58d",
  "strippedsize": 216,
  "size": 216,
  "weight": 864,
  "tx": [
    {
      "txid": "164a2340e9dd7d621768603ad9f0bcdf1d80b7737dd4e0e23b2cdfd5ad86c73b",
      "hash": "164a2340e9dd7d621768603ad9f0bcdf1d80b7737dd4e0e23b2cdfd5ad86c73b",
      "version": 1,
      "size": 135,
      "vsize": 135,
      "weight": 540,
      "locktime": 0,
      "vin": [
        {
          "coinbase": "04ffff001d02e708",
          "sequence": 4294967295
        }
      ],
      "vout": [
        {
          "value": 50.0,
          "n": 0,
          "scriptPubKey": {
            "asm": "04b4c9927d106b9e15d3a065d34216a743288248105e62f5ce8fcf8accca6e212ad0d6944ee3bcd8304afede4340a790e99652114e6c14833b8ecaa9d7e9fb48ca OP_CHECKSIG",
            "desc": "pk(04b4c9927d106b9e15d3a065d34216a743288248105e62f5ce8fcf8accca6e212ad0d6944ee3bcd8304afede4340a790e99652114e6c14833b8ecaa9d7e9fb48ca)#qza266yf",
            "hex": "4104b4c9927d106b9e15d3a065d34216a743288248105e62f5ce8fcf8accca6e212ad0d6944ee3bcd8304afede4340a790e99652114e6c14833b8ecaa9d7e9fb48caac",
            "type": "pubkey"
          }
        }
      ],
      "hex": "01000000010000000000000000000000000000000000000000000000000000000000000000ffffffff0804ffff001d02e708ffffffff0100f2052a01000000434104b4c9927d106b9e15d3a065d34216a743288248105e62f5ce8fcf8accca6e212ad0d6944ee3bcd8304afede4340a790e99652114e6c14833b8ecaa9d7e9fb48caac00000000"
    }
  ]
}