{
  "hash": "00000000520bf3614f3f3f312491bcce9ae820cfcf8393cf1e7aecb0db4932ab",
  "confirmations": 52037,
  "height": 191,
  "version": 1,
  "versionHex": "00000001",
  "merkleroot": "eb0050c15250c0cae3248d4989c84b45495aeb3d8434627fb8d217deb399adb1",
  "time": 1231745534,
  "mediantime": 1231743669,
  "nonce": 2966469413,
  "bits": "1d00ffff",
  "difficulty": 1,
  "chainwork": "000000000000000000000000000000000000000000000000000000c000c000c0",
  "nTx": 1,
  "previousblockhash": "000000007d31c3592c3fd6f4571c14870f06150028320dda7c847e1869881535",
  "nextblockhash": "000000000a35a6104f17dc5dedb6ef250ef412f4fbf67f5dd77f964aa1c10b36",
  "strippedsize": 215,
  "size": 215,
  "weight": 860,
  "tx": [
    {
      "txid": "eb0050c15250c0cae3248d4989c84b45495aeb3d8434627fb8d217deb399adb1",
      "hash": "eb0050c15250c0cae3248d4989c84b45495aeb3d8434627fb8d217deb399adb1",
      "version": 1,
      "size": 134,
      "vsize": 134,
      "weight": 536,
      "locktime": 0,
      "vin": [
        {
          "coinbase": "04ffff001d0121",
          "sequence": 4294967295
        }
      ],
      "vout": [
        {
          "value": 50.0,
          "n": 0,
          "scriptPubKey": {
            "asm": "04ef870ee124a68e999508eda763ddf0152c2684a9d74d7f07d0af3b8c7192e98277d0dc3247f10b75fc32207f71cfeadb01337d0c8c540970679102a5f9547c76 OP_CHECKSIG",
            "desc": "pk(04ef870ee124a68e999508eda763ddf0152c2684a9d74d7f07d0af3b8c7192e98277d0dc3247f10b75fc32207f71cfeadb01337d0c8c540970679102a5f9547c76)#jgzezvv2",
            "hex": "4104ef870ee124a68e999508eda763ddf0152c2684a9d74d7f07d0af3b8c7192e98277d0dc3247f10b75fc32207f71cfeadb01337d0c8c540970679102a5f9547c76ac",
            "type": "pubkey"
          }
        }
      ],
      "hex": "01000000010000000000000000000000000000000000000000000000000000000000000000ffffffff0704ffff001d0121ffffffff0100f2052a01000000434104ef870ee124a68e999508eda763ddf0152c2684a9d74d7f07d0af3b8c7192e98277d0dc3247f10b75fc32207f71cfeadb01337d0c8c540970679102a5f9547c76ac00000000"
    }
  ]
}