{
  "hash": "00000000bedd5e3eacd5152622c5b1db0f5293b4a79faf62d92f3ca510995e49",
  "confirmations": 45144,
  "height": 7954,
  "version": 1,
  "versionHex": "00000001",
  "merkleroot": "93fb4611ad9e328a9b8d0f6b9cad314e453aa595d5936dd1486673e8ca8e96b2",
  "time": 1237429842,
  "mediantime": 1237425950,
  "nonce": 2036921400,
  "bits": "1d00ffff",
  "difficulty": 1,
  "chainwork": "00000000000000000000000000000000000000000000000000001f131f131f13",
  "nTx": 1,
  "previousblockhash": "0000000065edeaa48820fab00df7fd489e48f82ead34856b76b2a67f2a1e015b",
  "nextblockhash": "00000000ac283a2fea309bfcb78e819acd0e17b59dd8d11f69844089f5d96c38",
  "strippedsize": 216,
  "size": 216,
  "weight": 864,
  "tx": [
    {
      "txid": "93fb4611ad9e328a9b8d0f6b9cad314e453aa595d5936dd1486673e8ca8e96b2",
      "hash": "93fb4611ad9e328a9b8d0f6b9cad314e453aa595d5936dd1486673e8ca8e96b2",
      "version": 1,
      "size": 135,
      "vsize": 135,
      "weight": 540,
      "locktime": 0,
      "vin": [
        {
          "coinbase": "04ffff001d028108",
          "sequence": 4294967295
        }
      ],
      "vout": [
        {
          "value": 50.0,
          "n": 0,
          "scriptPubKey": {
            "asm": "044751bf6316efb7eda22751f2063250f29fb0490215e17c0c40f0f32ce3f946f4bf54bc99d3eeb926cfa60f58e3857be05e55557cf90ca87f7426871ad874f54f OP_CHECKSIG",
            "desc": "pk(044751bf6316efb7eda22751f2063250f29fb0490215e17c0c40f0f32ce3f946f4bf54bc99d3eeb926cfa60f58e3857be05e55557cf90ca87f7426871ad874f54f)#lmac48sm",
            "hex": "41044751bf6316efb7eda22751f2063250f29fb0490215e17c0c40f0f32ce3f946f4bf54bc99d3eeb926cfa60f58e3857be05e55557cf90ca87f7426871ad874f54fac",
            "type": "pubkey"
          }
        }
      ],
      "hex": "01000000010000000000000000000000000000000000000000000000000000000000000000ffffffff0804ffff001d028108ffffffff0100f2052a010000004341044751bf6316efb7eda22751f2063250f29fb0490215e17c0c40f0f32ce3f946f4bf54bc99d3eeb926cfa60f58e3857be05e55557cf90ca87f7426871ad874f54fac00000000"
    }
  ]
}