{
  "hash": "0000000027db8c3becbb444573fdc3d5e5d3226ab9c98e029c1d8c54884bf4fb",
  "confirmations": 44763,
  "height": 8335,
  "version": 1,
  "versionHex": "00000001",
  "merkleroot": "c06e376d972ad305d9ecb56e02150ab0592595a276d5cccc99b9f42dad75d6e9",
  "time": 1237756363,
  "mediantime": 1237752696,
  "nonce": 1726608437,
  "bits": "1d00ffff",
  "difficulty": 1,
  "chainwork": "0000000000000000000000000000000000000000000000000000209020902090",
  "nTx": 1,
  "previousblockhash": "00000000f61901c4fd1e33bcb8ec1a79300682fee44a8b01d556759f2430d963",
  "nextblockhash": "000000002a0a75f55d31664d286633abc3ac468d6f4d440677056b4f907eb8c3",
  "strippedsize": 216,
  "size": 216,
  "weight": 864,
  "tx": [
    {
      "txid": "c06e376d972ad305d9ecb56e02150ab0592595a276d5cccc99b9f42dad75d6e9",
      "hash": "c06e376d972ad305d9ecb56e02150ab0592595a276d5cccc99b9f42dad75d6e9",
      "version": 1,
      "size": 135,
      "vsize": 135,
      "weight": 540,
      "locktime": 0,
      "vin": [
        {
          "coinbase": "04ffff001d02bb04",
          "sequence": 4294967295
        }
      ],
      "vout": [
        {
          "value": 50.0,
          "n": 0,
          "scriptPubKey": {
            "asm": "04e446c46b32727e4f2d144633236e7a48baf952f3127bd123b0c2b7c5c27f13f0769a72d9cf870436544dea9bd5c0c1a6f022505f2a7606025725fc7d32e60af1 OP_CHECKSIG",
            "desc": "pk(04e446c46b32727e4f2d144633236e7a48baf952f3127bd123b0c2b7c5c27f13f0769a72d9cf870436544dea9bd5c0c1a6f022505f2a7606025725fc7d32e60af1)#f563yxhu",
            "hex": "4104e446c46b32727e4f2d144633236e7a48baf952f3127bd123b0c2b7c5c27f13f0769a72d9cf870436544dea9bd5c0c1a6f022505f2a7606025725fc7d32e60af1ac",
            "type": "pubkey"
          }
        }
      ],
      "hex": "01000000010000000000000000000000000000000000000000000000000000000000000000ffffffff0804ffff001d02bb04ffffffff0100f2052a01000000434104e446c46b32727e4f2d144633236e7a48baf952f3127bd123b0c2b7c5c27f13f0769a72d9cf870436544dea9bd5c0c1a6f022505f2a7606025725fc7d32e60af1ac00000000"
    }
  ]
}