{
  "hash": "00000000da3bc425973d4fd5de7e1b34872449530e8ea7d6ba40eea0287185ca",
  "confirmations": 44590,
  "height": 8508,
  "version": 1,
  "versionHex": "00000001",
  "merkleroot": "26e837fd25906133074b31542354a8e21bc54c693cb64c0690ff43d0f5a5a740",
  "time": 1237878633,
  "mediantime": 1237874973,
  "nonce": 1282518273,
  "bits": "1d00ffff",
  "difficulty": 1,
  "chainwork": "0000000000000000000000000000000000000000000000000000213d213d213d",
  "nTx": 1,
  "previousblockhash": "00000000aae2c3b8318803a611280d3938930d820772e43f92254f7d1921c8d5",
  "nextblockhash": "00000000a51b482e2226e6082f0db7ee90862382730de17f6551a131e93e36fc",
  "strippedsize": 216,
  "size": 216,
  "weight": 864,
  "tx": [
    {
      "txid": "26e837fd25906133074b31542354a8e21bc54c693cb64c0690ff43d0f5a5a740",
      "hash": "26e837fd25906133074b31542354a8e21bc54c693cb64c0690ff43d0f5a5a740",
      "version": 1,
      "size": 135,
      "vsize": 135,
      "weight": 540,
      "locktime": 0,
      "vin": [
        {
          "coinbase": "04ffff001d02e207",
          "sequence": 4294967295
        }
      ],
      "vout": [
        {
          "value": 50.0,
          "n": 0,
          "scriptPubKey": {
            "asm": "04b68647e7802819240beee448d5d1d6bbc60f0c0a1089393a895c6ecb216093f810e3021e5c7b014441bf53169a944375254714f6d797912e45ccb0491406b827 OP_CHECKSIG",
            "desc": "pk(04b68647e7802819240beee448d5d1d6bbc60f0c0a1089393a895c6ecb216093f810e3021e5c7b014441bf53169a944375254714f6d797912e45ccb0491406b827)#npfkrs5x",
            "hex": "4104b68647e7802819240beee448d5d1d6bbc60f0c0a1089393a895c6ecb216093f810e3021e5c7b014441bf53169a944375254714f6d797912e45ccb0491406b827ac",
            "type": "pubkey"
          }
        }
      ],
      "hex": "01000000010000000000000000000000000000000000000000000000000000000000000000ffffffff0804ffff001d02e207ffffffff0100f2052a01000000434104b68647e7802819240beee448d5d1d6bbc60f0c0a1089393a895c6ecb216093f810e3021e5c7b014441bf53169a944375254714f6d797912e45ccb0491406b827ac00000000"
    }
  ]
}