{
  "hash": "000000005a512245f8e901241ce422afbd6b6f4c2d4bb582b763118614d57858",
  "confirmations": 51924,
  "height": 76,
  "version": 1,
  "versionHex": "00000001",
  "merkleroot": "47c981c4193d62d9d33b59fe1a6de9c27ff78d9f9003325b61e686a720673626",
  "time": 1231632554,
  "mediantime": 1231628459,
  "nonce": 3921374238,
  "bits": "1d00ffff",
  "difficulty": 1,
  "chainwork": "0000000000000000000000000000000000000000000000000000004d004d004d",
  "nTx": 1,
  "previousblockhash": "00000000be64a31bc9c3c29ddfd5e45c81b6db279fee45b3a11cd7945109e54e",
  "nextblockhash": "00000000e7d28ee0e6238bd21775a007d5c4987967d2e99a527572dd30fa06ef",
  "strippedsize": 215,
  "size": 215,
  "weight": 860,
  "tx": [
    {
      "txid": "47c981c4193d62d9d33b59fe1a6de9c27ff78d9f9003325b61e686a720673626",
      "hash": "47c981c4193d62d9d33b59fe1a6de9c27ff78d9f9003325b61e686a720673626",
      "version": 1,
      "size": 134,
      "vsize": 134,
      "weight": 536,
      "locktime": 0,
      "vin": [
        {
          "coinbase": "04ffff001d010b",
          "sequence": 4294967295
        }
      ],
      "vout": [
        {
          "value": 50.0,
          "n": 0,
          "scriptPubKey": {
            "asm": "04737918981d5f4caa7efd6c11cccd696b4b588e823053ce202dbe1b2531f09150f885e32ff0af259d2bfa3f0ba573807addcc096375961f1490a50a860444204c OP_CHECKSIG",
            "desc": "pk(04737918981d5f4caa7efd6c11cccd696b4b588e823053ce202dbe1b2531f09150f885e32ff0af259d2bfa3f0ba573807addcc096375961f1490a50a860444204c)#czpxjz5m",
            "hex": "4104737918981d5f4caa7efd6c11cccd696b4b588e823053ce202dbe1b2531f09150f885e32ff0af259d2bfa3f0ba573807addcc096375961f1490a50a860444204cac",
            "type": "pubkey"
          }
        }
      ],
      "hex": "01000000010000000000000000000000000000000000000000000000000000000000000000ffffffff0704ffff001d010bffffffff0100f2052a01000000434104737918981d5f4caa7efd6c11cccd696b4b588e823053ce202dbe1b2531f09150f885e32ff0af259d2bfa3f0ba573807addcc096375961f1490a50a860444204cac00000000"
    }
  ]
}