{
  "hash": "0000000053546be7a5a27a2f352732622e5ebb27bd2210cbbe0f4338747aae75",
  "confirmations": 47009,
  "height": 6089,
  "version": 1,
  "versionHex": "00000001",
  "merkleroot": "7351fc837f0bd774793375b9662680e4042c865c242b2439fc1e072b12554e1b",
  "time": 1235999933,
  "mediantime": 1235996056,
  "nonce": 2808658177,
  "bits": "1d00ffff",
  "difficulty": 1,
  "chainwork": "000000000000000000000000000000000000000000000000000017ca17ca17ca",
  "nTx": 1,
  "previousblockhash": "000000009da7847f369b41a097529cdb499668d28a6df3e85d0470fe405560ba",
  "nextblockhash": "00000000553d224a74bdc6718ab1659b68df8c761f86c4a4a16006b0b4b59bd0",
  "strippedsize": 216,
  "size": 216,
  "weight": 864,
  "tx": [
    {
      "txid": "7351fc837f0bd774793375b9662680e4042c865c242b2439fc1e072b12554e1b",
      "hash": "7351fc837f0bd774793375b9662680e4042c865c242b2439fc1e072b12554e1b",
      "version": 1,
      "size": 135,
      "vsize": 135,
      "weight": 540,
      "locktime": 0,
      "vin": [
        {
          "coinbase": "04ffff001d029d06",
          "sequence": 4294967295
        }
      ],
      "vout": [
        {
          "value": 50.0,
          "n": 0,
          "scriptPubKey": {
            "asm": "0497d6f725553749956a4d5b60a25d45a703a26f9299acb599682821f557ec4fcfaf4f61c4c2d9631696d1b58612c8bbfb195e9da94ef7f37ec331aab3273a6932 OP_CHECKSIG",
            "desc": "pk(0497d6f725553749956a4d5b60a25d45a703a26f9299acb599682821f557ec4fcfaf4f61c4c2d9631696d1b58612c8bbfb195e9da94ef7f37ec331aab3273a6932)#xls9gg2e",
            "hex": "410497d6f725553749956a4d5b60a25d45a703a26f9299acb599682821f557ec4fcfaf4f61c4c2d9631696d1b58612c8bbfb195e9da94ef7f37ec331aab3273a6932ac",
            "type": "pubkey"
          }
        }
      ],
      "hex": "01000000010000000000000000000000000000000000000000000000000000000000000000ffffffff0804ffff001d029d06ffffffff0100f2052a0100000043410497d6f725553749956a4d5b60a25d45a703a26f9299acb599682821f557ec4fcfaf4f61c4c2d9631696d1b58612c8bbfb195e9da94ef7f37ec331aab3273a6932ac00000000"
    }
  ]
}