{
  "hash": "00000000db40a28de1fe7a8ee77a6e426524a7620d91823ceaccc44e1f358a2b",
  "confirmations": 48381,
  "height": 4717,
  "version": 1,
  "versionHex": "00000001",
  "merkleroot": "97842a8a9b3e3a0fdd5b923bf9f31a6317fce83d4f3426a7e78963ba059b2a01",
  "time": 1234938751,
  "mediantime": 1234936358,
  "nonce": 3996886565,
  "bits": "1d00ffff",
  "difficulty": 1,
  "chainwork": "0000000000000000000000000000000000000000000000000000126e126e126e",
  "nTx": 1,
  "previousblockhash": "00000000860ca8c60f8aec1e145540c0c9ed3e741e9a38dea2412d70db8b0785",
  "nextblockhash": "00000000348b122b754c4a07ef4ed500412faa566250573da396c342f72398c6",
  "strippedsize": 216,
  "size": 216,
  "weight": 864,
  "tx": [
    {
      "txid": "97842a8a9b3e3a0fdd5b923bf9f31a6317fce83d4f3426a7e78963ba059b2a01",
      "hash": "97842a8a9b3e3a0fdd5b923bf9f31a6317fce83d4f3426a7e78963ba059b2a01",
      "version": 1,
      "size": 135,
      "vsize": 135,
      "weight": 540,
      "locktime": 0,
      "vin": [
        {
          "coinbase": "04ffff001d02bf02",
          "sequence": 4294967295
        }
      ],
      "vout": [
        {
          "value": 50.0,
          "n": 0,
          "scriptPubKey": {
            "asm": "043ff057745c873dc32379a1e62bf252c78fb9ef1ec2dda3a764a962b23e85f0f2b4f97d9ebd1f6a656f972a60160680e3063fd6b2aa2403efe5f003361f4e15dc OP_CHECKSIG",
            "desc": "pk(043ff057745c873dc32379a1e62bf252c78fb9ef1ec2dda3a764a962b23e85f0f2b4f97d9ebd1f6a656f972a60160680e3063fd6b2aa2403efe5f003361f4e15dc)#aae36nl3",
            "hex": "41043ff057745c873dc32379a1e62bf252c78fb9ef1ec2dda3a764a962b23e85f0f2b4f97d9ebd1f6a656f972a60160680e3063fd6b2aa2403efe5f003361f4e15dcac",
            "type": "pubkey"
          }
        }
      ],
      "hex": "01000000010000000000000000000000000000000000000000000000000000000000000000ffffffff0804ffff001d02bf02ffffffff0100f2052a010000004341043ff057745c873dc32379a1e62bf252c78fb9ef1ec2dda3a764a962b23e85f0f2b4f97d9ebd1f6a656f972a60160680e3063fd6b2aa2403efe5f003361f4e15dcac00000000"
    }
  ]
}