{
  "hash": "0000000078c1dfef29ed103d268ce77b6f5afffd0146dd2f5796b35b45d58342",
  "confirmations": 50916,
  "height": 2182,
  "version": 1,
  "versionHex": "00000001",
  "merkleroot": "26a5a38a8b5ebd623c2dcf4af45efcb48a76f18020b704559a1ab43daa518deb",
  "time": 1233201115,
  "mediantime": 1233196058,
  "nonce": 2529873439,
  "bits": "1d00ffff",
  "difficulty": 1,
  "chainwork": "0000000000000000000000000000000000000000000000000000088708870887",
  "nTx": 1,
  "previousblockhash": "000000005e03eceb949b01f3e8a4e13382850aae6e7097482661ddc1813b08a3",
  "nextblockhash": "0000000053f12d670dc0188a5f4e8be2f59215ce14eb128c14faf997449b7183",
  "strippedsize": 215,
  "size": 215,
  "weight": 860,
  "tx": [
    {
      "txid": "26a5a38a8b5ebd623c2dcf4af45efcb48a76f18020b704559a1ab43daa518deb",
      "hash": "26a5a38a8b5ebd623c2dcf4af45efcb48a76f18020b704559a1ab43daa518deb",
      "version": 1,
      "size": 134,
      "vsize": 134,
      "weight": 536,
      "locktime": 0,
      "vin": [
        {
          "coinbase": "04ffff001d010f",
          "sequence": 4294967295
        }
      ],
      "vout": [
        {
          "value": 50.0,
          "n": 0,
          "scriptPubKey": {
            "asm": "04148927599548ca3aa6471699e606bd4412755f11e4f4dd9de0ffcde89afd5c0d6fc62cecf1250076721d83d524ddd5ad4ede6a48203160898c0eb7ac9e683987 OP_CHECKSIG",
            "desc": "pk(04148927599548ca3aa6471699e606bd4412755f11e4f4dd9de0ffcde89afd5c0d6fc62cecf1250076721d83d524ddd5ad4ede6a48203160898c0eb7ac9e683987)#xwwklmg6",
            "hex": "4104148927599548ca3aa6471699e606bd4412755f11e4f4dd9de0ffcde89afd5c0d6fc62cecf1250076721d83d524ddd5ad4ede6a48203160898c0eb7ac9e683987ac",
            "type": "pubkey"
          }
        }
      ],
      "hex": "01000000010000000000000000000000000000000000000000000000000000000000000000ffffffff0704ffff001d010fffffffff0100f2052a01000000434104148927599548ca3aa6471699e606bd4412755f11e4f4dd9de0ffcde89afd5c0d6fc62cecf1250076721d83d524ddd5ad4ede6a48203160898c0eb7ac9e683987ac00000000"
    }
  ]
}