{
  "hash": "000000006218458103c5aa28f412e6d56bf660eca974d0e53aa5b5916f08de68",
  "confirmations": 51357,
  "height": 1741,
  "version": 1,
  "versionHex": "00000001",
  "merkleroot": "eca905c448e1799c6fbd562812e99ca4715aaccc60e3d0ee45dcadf44d41b4b9",
  "time": 1232870333,
  "mediantime": 1232867239,
  "nonce": 2547066914,
  "bits": "1d00ffff",
  "difficulty": 1,
  "chainwork": "000000000000000000000000000000000000000000000000000006ce06ce06ce",
  "nTx": 1,
  "previousblockhash": "0000000046b7ed5890ee696b81606e98bc97481aba201255721cac2f427d6b15",
  "nextblockhash": "000000004963669f3b1276e3222d0a6539fad4ca5b1bb5e7150af49f5c6751f1",
  "strippedsize": 216,
  "size": 216,
  "weight": 864,
  "tx": [
    {
      "txid": "eca905c448e1799c6fbd562812e99ca4715aaccc60e3d0ee45dcadf44d41b4b9",
      "hash": "eca905c448e1799c6fbd562812e99ca4715aaccc60e3d0ee45dcadf44d41b4b9",
      "version": 1,
      "size": 135,
      "vsize": 135,
      "weight": 540,
      "locktime": 0,
      "vin": [
        {
          "coinbase": "04ffff001d027203",
          "sequence": 4294967295
        }
      ],
      "vout": [
        {
          "value": 50.0,
          "n": 0,
          "scriptPubKey": {
            "asm": "045f738c84a3ecd8bbae4fd91a32873aeb66a2dc1cad257757ea246b73f4ff204099aebb421a73a3e93bbf8a6311e241ab1f6aea7757adb082f2fd72e107a600fb OP_CHECKSIG",
            "desc": "pk(045f738c84a3ecd8bbae4fd91a32873aeb66a2dc1cad257757ea246b73f4ff204099aebb421a73a3e93bbf8a6311e241ab1f6aea7757adb082f2fd72e107a600fb)#nuy2433w",
            "hex": "41045f738c84a3ecd8bbae4fd91a32873aeb66a2dc1cad257757ea246b73f4ff204099aebb421a73a3e93bbf8a6311e241ab1f6aea7757adb082f2fd72e107a600fbac",
            "type": "pubkey"
          }
        }
      ],
      "hex": "01000000010000000000000000000000000000000000000000000000000000000000000000ffffffff0804ffff001d027203ffffffff0100f2052a010000004341045f738c84a3ecd8bbae4fd91a32873aeb66a2dc1cad257757ea246b73f4ff204099aebb421a73a3e93bbf8a6311e241ab1f6aea7757adb082f2fd72e107a600fbac00000000"
    }
  ]
}