{
  "hash": "000000005475f9938641f78a7c167f7a9f792a78e98c79b16e516dee149aa024",
  "confirmations": 52300,
  "height": 798,
  "version": 1,
  "versionHex": "00000001",
  "merkleroot": "cdf46f6d9d4bb38ea7c49767bf4bdc9f2316a19d0e5a34000900f9c42bd825d8",
  "time": 1232192234,
  "mediantime": 1232186294,
  "nonce": 1618487816,
  "bits": "1d00ffff",
  "difficulty": 1,
  "chainwork": "0000000000000000000000000000000000000000000000000000031f031f031f",
  "nTx": 1,
  "previousblockhash": "00000000b0a235f2c0d786b99d2419dfd4461838842dddb1b7c9025592983fea",
  "nextblockhash": "000000003b22251a4f456dcc27c4acdd8dd2b8832a0ddf410d8f864304c2c888",
  "strippedsize": 216,
  "size": 216,
  "weight": 864,
  "tx": [
    {
      "txid": "cdf46f6d9d4bb38ea7c49767bf4bdc9f2316a19d0e5a34000900f9c42bd825d8",
      "hash": "cdf46f6d9d4bb38ea7c49767bf4bdc9f2316a19d0e5a34000900f9c42bd825d8",
      "version": 1,
      "size": 135,
      "vsize": 135,
      "weight": 540,
      "locktime": 0,
      "vin": [
        {
          "coinbase": "04ffff001d027e01",
          "sequence": 4294967295
        }
      ],
      "vout": [
        {
          "value": 50.0,
          "n": 0,
          "scriptPubKey": {
            "asm": "043e58de317694bb5358c0a2556c88d9789471201efe0f092b829bb6faf4cd8bb0b9df421da66420353565b1fe533f8b2ba7d8e5036f1d49e803d0f72ae7f41d3d OP_CHECKSIG",
            "desc": "pk(043e58de317694bb5358c0a2556c88d9789471201efe0f092b829bb6faf4cd8bb0b9df421da66420353565b1fe533f8b2ba7d8e5036f1d49e803d0f72ae7f41d3d)#7e02jnxz",
            "hex": "41043e58de317694bb5358c0a2556c88d9789471201efe0f092b829bb6faf4cd8bb0b9df421da66420353565b1fe533f8b2ba7d8e5036f1d49e803d0f72ae7f41d3dac",
            "type": "pubkey"
          }
        }
      ],
      "hex": "01000000010000000000000000000000000000000000000000000000000000000000000000ffffffff0804ffff001d027e01ffffffff0100f2052a010000004341043e58de317694bb5358c0a2556c88d9789471201efe0f092b829bb6faf4cd8bb0b9df421da66420353565b1fe533f8b2ba7d8e5036f1d49e803d0f72ae7f41d3dac00000000"
    }
  ]
}