{
  "hash": "000000007f6d461815d7d53620358498e179e846a66084f2f6239c5e7a3ae9f6",
  "confirmations": 51361,
  "height": 1737,
  "version": 1,
  "versionHex": "00000001",
  "merkleroot": "8cdd1d46c5fa7cf75b2cabb4689dd535e8338bc265cd92aa7c9ce60d0b56d1f2",
  "time": 1232867752,
  "mediantime": 1232865328,
  "nonce": 3664993838,
  "bits": "1d00ffff",
  "difficulty": 1,
  "chainwork": "000000000000000000000000000000000000000000000000000006ca06ca06ca",
  "nTx": 1,
  "previousblockhash": "000000004de37d28a0f1229e7b34e6206dc18288431efda04eb8730edcc8282c",
  "nextblockhash": "000000005f4ee3550ae77c7651b40fcb37505a3bd254016f66de78d9bf54ebb7",
  "strippedsize": 216,
  "size": 216,
  "weight": 864,
  "tx": [
    {
      "txid": "8cdd1d46c5fa7cf75b2cabb4689dd535e8338bc265cd92aa7c9ce60d0b56d1f2",
      "hash": "8cdd1d46c5fa7cf75b2cabb4689dd535e8338bc265cd92aa7c9ce60d0b56d1f2",
      "version": 1,
      "size": 135,
      "vsize": 135,
      "weight": 540,
      "locktime": 0,
      "vin": [
        {
          "coinbase": "04ffff001d026b03",
          "sequence": 4294967295
        }
      ],
      "vout": [
        {
          "value": 50.0,
          "n": 0,
          "scriptPubKey": {
            "asm": "04aa025911cb13dc46623605b1811101c52e05b3cb031b3bdf9afcc1a8c91f5c4f926d4973c603dd98d6fe57f2f7e73632779a0765b5bf67c2a9aa9d9b32f956fd OP_CHECKSIG",
            "desc": "pk(04aa025911cb13dc46623605b1811101c52e05b3cb031b3bdf9afcc1a8c91f5c4f926d4973c603dd98d6fe57f2f7e73632779a0765b5bf67c2a9aa9d9b32f956fd)#2y5vhn3l",
            "hex": "4104aa025911cb13dc46623605b1811101c52e05b3cb031b3bdf9afcc1a8c91f5c4f926d4973c603dd98d6fe57f2f7e73632779a0765b5bf67c2a9aa9d9b32f956fdac",
            "type": "pubkey"
          }
        }
      ],
      "hex": "01000000010000000000000000000000000000000000000000000000000000000000000000ffffffff0804ffff001d026b03ffffffff0100f2052a01000000434104aa025911cb13dc46623605b1811101c52e05b3cb031b3bdf9afcc1a8c91f5c4f926d4973c603dd98d6fe57f2f7e73632779a0765b5bf67c2a9aa9d9b32f956fdac00000000"
    }
  ]
}