{
  "hash": "00000000cf884c9ca1e2a408132942d48be12baa47022d902c1dc29397a8d29d",
  "confirmations": 45833,
  "height": 7265,
  "version": 1,
  "versionHex": "00000001",
  "merkleroot": "5d1518f43b26bfc64ab109da780dbb627875486d0de02ac26adc06e2f1b657f0",
  "time": 1236920555,
  "mediantime": 1236916825,
  "nonce": 1642266658,
  "bits": "1d00ffff",
  "difficulty": 1,
  "chainwork": "00000000000000000000000000000000000000000000000000001c621c621c62",
  "nTx": 1,
  "previousblockhash": "0000000014e42377cc14aa8e94fce7fc56b6a2bc283264ae129936413cb6232f",
  "nextblockhash": "00000000878119c100055d8423526cbd934a88de8ca8db65d9795f1677e4cb6a",
  "strippedsize": 216,
  "size": 216,
  "weight": 864,
  "tx": [
    {
      "txid": "5d1518f43b26bfc64ab109da780dbb627875486d0de02ac26adc06e2f1b657f0",
      "hash": "5d1518f43b26bfc64ab109da780dbb627875486d0de02ac26adc06e2f1b657f0",
      "version": 1,
      "size": 135,
      "vsize": 135,
      "weight": 540,
      "locktime": 0,
      "vin": [
        {
          "coinbase": "04ffff001d02c106",
          "sequence": 4294967295
        }
      ],
      "vout": [
        {
          "value": 50.0,
          "n": 0,
          "scriptPubKey": {
            "asm": "049b4ee9ae7492bfa90bec95b89139603cd974bede2ca4e928f5be92928efb5d30ef3f702339b585f6094fbde9fa7250228fd04264887816c33b0aca0d759f67fc OP_CHECKSIG",
            "desc": "pk(049b4ee9ae7492bfa90bec95b89139603cd974bede2ca4e928f5be92928efb5d30ef3f702339b585f6094fbde9fa7250228fd04264887816c33b0aca0d759f67fc)#36ht3h3s",
            "hex": "41049b4ee9ae7492bfa90bec95b89139603cd974bede2ca4e928f5be92928efb5d30ef3f702339b585f6094fbde9fa7250228fd04264887816c33b0aca0d759f67fcac",
            "type": "pubkey"
          }
        }
      ],
      "hex": "01000000010000000000000000000000000000000000000000000000000000000000000000ffffffff0804ffff001d02c106ffffffff0100f2052a010000004341049b4ee9ae7492bfa90bec95b89139603cd974bede2ca4e928f5be92928efb5d30ef3f702339b585f6094fbde9fa7250228fd04264887816c33b0aca0d759f67fcac00000000"
    }
  ]
}