{
  "hash": "00000000db884a1624191f86c836671aae80346a5bd3ec4eb88885650f9f88ec",
  "confirmations": 48015,
  "height": 5083,
  "version": 1,
  "versionHex": "00000001",
  "merkleroot": "8c85ca7ef507529f3584d0139f1a8e9c22a1079d0ca6d2df3d5e9a69b9cede03",
  "time": 1235204314,
  "mediantime": 1235199574,
  "nonce": 2727667204,
  "bits": "1d00ffff",
  "difficulty": 1,
  "chainwork": "000000000000000000000000000000000000000000000000000013dc13dc13dc",
  "nTx": 1,
  "previousblockhash": "00000000f49df538620cb75473634b4e867ecf88d7e49ace3cfad1590784a2ac",
  "nextblockhash": "00000000dc2953ccf1233a13f4e139e52bdfb500d53cf65a5f7498ed8161fed1",
  "strippedsize": 216,
  "size": 216,
  "weight": 864,
  "tx": [
    {
      "txid": "8c85ca7ef507529f3584d0139f1a8e9c22a1079d0ca6d2df3d5e9a69b9cede03",
      "hash": "8c85ca7ef507529f3584d0139f1a8e9c22a1079d0ca6d2df3d5e9a69b9cede03",
      "version": 1,
      "size": 135,
      "vsize": 135,
      "weight": 540,
      "locktime": 0,
      "vin": [
        {
          "coinbase": "04ffff001d02a608",
          "sequence": 4294967295
        }
      ],
      "vout": [
        {
          "value": 50.0,
          "n": 0,
          "scriptPubKey": {
            "asm": "0475abd3c94e8a0f3526124567d6b8dfd1d5a532cefc7c023470a71226bb2032a1115211fe54a2b05a7ca088d4667b41470411c0994f267d37373f07bd06dbda07 OP_CHECKSIG",
            "desc": "pk(0475abd3c94e8a0f3526124567d6b8dfd1d5a532cefc7c023470a71226bb2032a1115211fe54a2b05a7ca088d4667b41470411c0994f267d37373f07bd06dbda07)#gszc9myd",
            "hex": "410475abd3c94e8a0f3526124567d6b8dfd1d5a532cefc7c023470a71226bb2032a1115211fe54a2b05a7ca088d4667b41470411c0994f267d37373f07bd06dbda07ac",
            "type": "pubkey"
          }
        }
      ],
      "hex": "01000000010000000000000000000000000000000000000000000000000000000000000000ffffffff0804ffff001d02a608ffffffff0100f2052a0100000043410475abd3c94e8a0f3526124567d6b8dfd1d5a532cefc7c023470a71226bb2032a1115211fe54a2b05a7ca088d4667b41470411c0994f267d37373f07bd06dbda07ac00000000"
    }
  ]
}