{
  "hash": "00000000855a4014ebff20693aa8e9059d9f4d8f1265b683e54f8c3a87dcfd92",
  "confirmations": 43446,
  "height": 9652,
  "version": 1,
  "versionHex": "00000001",
  "merkleroot": "748a0a4f8109a86724a67b200f29016fa3b818a2a5b6b212e9fac6258830d5fd",
  "time": 1238742900,
  "mediantime": 1238738393,
  "nonce": 81580079,
  "bits": "1d00ffff",
  "difficulty": 1,
  "chainwork": "000000000000000000000000000000000000000000000000000025b525b525b5",
  "nTx": 1,
  "previousblockhash": "000000004c4bc2f337eb21c50ae03d91159e006c235e7851731099feb8cb7a92",
  "nextblockhash": "0000000081aae35d3fcac45280d84af2d10453d8005e9db2c549e062373b0e97",
  "strippedsize": 216,
  "size": 216,
  "weight": 864,
  "tx": [
    {
      "txid": "748a0a4f8109a86724a67b200f29016fa3b818a2a5b6b212e9fac6258830d5fd",
      "hash": "748a0a4f8109a86724a67b200f29016fa3b818a2a5b6b212e9fac6258830d5fd",
      "version": 1,
      "size": 135,
      "vsize": 135,
      "weight": 540,
      "locktime": 0,
      "vin": [
        {
          "coinbase": "04ffff001d02bf07",
          "sequence": 4294967295
        }
      ],
      "vout": [
        {
          "value": 50.0,
          "n": 0,
          "scriptPubKey": {
            "asm": "040d34c0e278ddec64484a53694748369b5a3b14cca0791a4853a8f0a31b88520f85c5c676313bfe8d972779a241c22aee93b8aa1735fe25ddee7f25f57fecc44b OP_CHECKSIG",
            "desc": "pk(040d34c0e278ddec64484a53694748369b5a3b14cca0791a4853a8f0a31b88520f85c5c676313bfe8d972779a241c22aee93b8aa1735fe25ddee7f25f57fecc44b)#q86q4gfx",
            "hex": "41040d34c0e278ddec64484a53694748369b5a3b14cca0791a4853a8f0a31b88520f85c5c676313bfe8d972779a241c22aee93b8aa1735fe25ddee7f25f57fecc44bac",
            "type": "pubkey"
          }
        }
      ],
      "hex": "01000000010000000000000000000000000000000000000000000000000000000000000000ffffffff0804ffff001d02bf07ffffffff0100f2052a010000004341040d34c0e278ddec64484a53694748369b5a3b14cca0791a4853a8f0a31b88520f85c5c676313bfe8d972779a241c22aee93b8aa1735fe25ddee7f25f57fecc44bac00000000"
    }
  ]
}