{
  "hash": "00000000edb29a7e6f15ff720d0e607611300dd0b995ad80ceac1e93c66be9a0",
  "confirmations": 43108,
  "height": 9990,
  "version": 1,
  "versionHex": "00000001",
  "merkleroot": "13e5709ab60bd9a0189d585c1804722ded68daa38f699a82d37dab75c993a3a3",
  "time": 1238982027,
  "mediantime": 1238978169,
  "nonce": 1771462406,
  "bits": "1d00ffff",
  "difficulty": 1,
  "chainwork": "0000000000000000000000000000000000000000000000000000270727072707",
  "nTx": 1,
  "previousblockhash": "000000001313525cb4daed80d0f8cbd86fbb332374de8d778523358fe4d0aae6",
  "nextblockhash": "000000003a86175f154cd24e470793ff71dacc63ea307e18b292451bc4dec53e",
  "strippedsize": 216,
  "size": 216,
  "weight": 864,
  "tx": [
    {
      "txid": "13e5709ab60bd9a0189d585c1804722ded68daa38f699a82d37dab75c993a3a3",
      "hash": "13e5709ab60bd9a0189d585c1804722ded68daa38f699a82d37dab75c993a3a3",
      "version": 1,
      "size": 135,
      "vsize": 135,
      "weight": 540,
      "locktime": 0,
      "vin": [
        {
          "coinbase": "04ffff001d023603",
          "sequence": 4294967295
        }
      ],
      "vout": [
        {
          "value": 50.0,
          "n": 0,
          "scriptPubKey": {
            "asm": "0447da764f11d8df37e2a539f3c34daee4b7467ea8700e9b6019be95f4e85f122e909aa77cadd68878e878bf11ea52b1816d6e1a4d4314b117ff3d4db5d7555f51 OP_CHECKSIG",
            "desc": "pk(0447da764f11d8df37e2a539f3c34daee4b7467ea8700e9b6019be95f4e85f122e909aa77cadd68878e878bf11ea52b1816d6e1a4d4314b117ff3d4db5d7555f51)#ea34js2f",
            "hex": "410447da764f11d8df37e2a539f3c34daee4b7467ea8700e9b6019be95f4e85f122e909aa77cadd68878e878bf11ea52b1816d6e1a4d4314b117ff3d4db5d7555f51ac",
            "type": "pubkey"
          }
        }
      ],
      "hex": "01000000010000000000000000000000000000000000000000000000000000000000000000ffffffff0804ffff001d023603ffffffff0100f2052a0100000043410447da764f11d8df37e2a539f3c34daee4b7467ea8700e9b6019be95f4e85f122e909aa77cadd68878e878bf11ea52b1816d6e1a4d4314b117ff3d4db5d7555f51ac00000000"
    }
  ]
}