{
  "hash": "000000004670c45a768b79470e72978d3e265d632334e0a3e79ec13fa866b425",
  "confirmations": 52347,
  "height": 751,
  "version": 1,
  "versionHex": "00000001",
  "merkleroot": "9dda78aabc54a575174ca4fe89eb79c6760d7bdcf669e70f0c6ab3705a0b70d4",
  "time": 1232152910,
  "mediantime": 1232148780,
  "nonce": 3823982599,
  "bits": "1d00ffff",
  "difficulty": 1,
  "chainwork": "000000000000000000000000000000000000000000000000000002f002f002f0",
  "nTx": 1,
  "previousblockhash": "00000000ad8174a71c1b2c01fd6076143c2cf57d768bf80d7c11b6721d3a2525",
  "nextblockhash": "00000000d9f631023b59f4abca4fbe5802ec6100b04520687ae9b215c007e934",
  "strippedsize": 216,
  "size": 216,
  "weight": 864,
  "tx": [
    {
      "txid": "9dda78aabc54a575174ca4fe89eb79c6760d7bdcf669e70f0c6ab3705a0b70d4",
      "hash": "9dda78aabc54a575174ca4fe89eb79c6760d7bdcf669e70f0c6ab3705a0b70d4",
      "version": 1,
      "size": 135,
      "vsize": 135,
      "weight": 540,
      "locktime": 0,
      "vin": [
        {
          "coinbase": "04ffff001d02a200",
          "sequence": 4294967295
        }
      ],
      "vout": [
        {
          "value": 50.0,
          "n": 0,
          "scriptPubKey": {
            "asm": "04a1a683d7832e7cf3b45a8f0290786348263356edea13c22692a1abbf1f54f1920e04a48eeb41f5b205fcdc792fac23bd95b485095fd6f2c34f23dc67f0f425ca OP_CHECKSIG",
            "desc": "pk(04a1a683d7832e7cf3b45a8f0290786348263356edea13c22692a1abbf1f54f1920e04a48eeb41f5b205fcdc792fac23bd95b485095fd6f2c34f23dc67f0f425ca)#n54ncefd",
            "hex": "4104a1a683d7832e7cf3b45a8f0290786348263356edea13c22692a1abbf1f54f1920e04a48eeb41f5b205fcdc792fac23bd95b485095fd6f2c34f23dc67f0f425caac",
            "type": "pubkey"
          }
        }
      ],
      "hex": "01000000010000000000000000000000000000000000000000000000000000000000000000ffffffff0804ffff001d02a200ffffffff0100f2052a01000000434104a1a683d7832e7cf3b45a8f0290786348263356edea13c22692a1abbf1f54f1920e04a48eeb41f5b205fcdc792fac23bd95b485095fd6f2c34f23dc67f0f425caac00000000"
    }
  ]
}