{
  "hash": "000000005f180e6d0b2a46c27b3458d56b1ccfa95c0d416de101f4a00bf137f2",
  "confirmations": 46092,
  "height": 7006,
  "version": 1,
  "versionHex": "00000001",
  "merkleroot": "a9c4e7873d96e986341a60f8ad60ed4658a6201a7c98db8b6cb35d444f46bdb0",
  "time": 1236722910,
  "mediantime": 1236718823,
  "nonce": 3660834050,
  "bits": "1d00ffff",
  "difficulty": 1,
  "chainwork": "00000000000000000000000000000000000000000000000000001b5f1b5f1b5f",
  "nTx": 1,
  "previousblockhash": "00000000b4852e4781193991e5e336082d0c8f65aaf2e336e338146077366ff0",
  "nextblockhash": "00000000a73029e1a5567a04e0f893fe1fd13fd017900b96a4696a7560026359",
  "strippedsize": 216,
  "size": 216,
  "weight": 864,
  "tx": [
    {
      "txid": "a9c4e7873d96e986341a60f8ad60ed4658a6201a7c98db8b6cb35d444f46bdb0",
      "hash": "a9c4e7873d96e986341a60f8ad60ed4658a6201a7c98db8b6cb35d444f46bdb0",
      "version": 1,
      "size": 135,
      "vsize": 135,
      "weight": 540,
      "locktime": 0,
      "vin": [
        {
          "coinbase": "04ffff001d026c02",
          "sequence": 4294967295
        }
      ],
      "vout": [
        {
          "value": 50.0,
          "n": 0,
          "scriptPubKey": {
            "asm": "04fe2bfb657cfd45061c115d167cc840fa8d6229a24a3a32741bf84c4263ec8752933f37fb186a0d25ce05b1b186d914971af8646c13fed345056bed57b07e9c7f OP_CHECKSIG",
            "desc": "pk(04fe2bfb657cfd45061c115d167cc840fa8d6229a24a3a32741bf84c4263ec8752933f37fb186a0d25ce05b1b186d914971af8646c13fed345056bed57b07e9c7f)#qt7jeq7l",
            "hex": "4104fe2bfb657cfd45061c115d167cc840fa8d6229a24a3a32741bf84c4263ec8752933f37fb186a0d25ce05b1b186d914971af8646c13fed345056bed57b07e9c7fac",
            "type": "pubkey"
          }
        }
      ],
      "hex": "01000000010000000000000000000000000000000000000000000000000000000000000000ffffffff0804ffff001d026c02ffffffff0100f2052a01000000434104fe2bfb657cfd45061c115d167cc840fa8d6229a24a3a32741bf84c4263ec8752933f37fb186a0d25ce05b1b186d914971af8646c13fed345056bed57b07e9c7fac00000000"
    }
  ]
}