{
  "hash": "00000000d094ac53d917dc62f798c7569485ed6f5be43cab46d3b953143303de",
  "confirmations": 51909,
  "height": 1189,
  "version": 1,
  "versionHex": "00000001",
  "merkleroot": "bd1faf258e5447465b3bfb1a906d90b081505e6ec52da13587f14d2590e98c1f",
  "time": 1232492251,
  "mediantime": 1232488392,
  "nonce": 3233238038,
  "bits": "1d00ffff",
  "difficulty": 1,
  "chainwork": "000000000000000000000000000000000000000000000000000004a604a604a6",
  "nTx": 1,
  "previousblockhash": "000000008bbb96eb48d21a0deaae236cdfc92f16a9a673ffefee05381c3c1638",
  "nextblockhash": "000000005d8c1f827319a4dc019cc2474346e90ef6335f17e99c0ef9b50f3572",
  "strippedsize": 216,
  "size": 216,
  "weight": 864,
  "tx": [
    {
      "txid": "bd1faf258e5447465b3bfb1a906d90b081505e6ec52da13587f14d2590e98c1f",
      "hash": "bd1faf258e5447465b3bfb1a906d90b081505e6ec52da13587f14d2590e98c1f",
      "version": 1,
      "size": 135,
      "vsize": 135,
      "weight": 540,
      "locktime": 0,
      "vin": [
        {
          "coinbase": "04ffff001d028308",
          "sequence": 4294967295
        }
      ],
      "vout": [
        {
          "value": 50.0,
          "n": 0,
          "scriptPubKey": {
            "asm": "0470649f9e6d93be33fb6297f55e6238eb7f16fd6ab2c00ee2bd1a2e8c8e314cb278de7aecd101369d27e2bc393e82b1dcbc5affd11e0114d72ab10b88ebc3a583 OP_CHECKSIG",
            "desc": "pk(0470649f9e6d93be33fb6297f55e6238eb7f16fd6ab2c00ee2bd1a2e8c8e314cb278de7aecd101369d27e2bc393e82b1dcbc5affd11e0114d72ab10b88ebc3a583)#87g3m4zj",
            "hex": "410470649f9e6d93be33fb6297f55e6238eb7f16fd6ab2c00ee2bd1a2e8c8e314cb278de7aecd101369d27e2bc393e82b1dcbc5affd11e0114d72ab10b88ebc3a583ac",
            "type": "pubkey"
          }
        }
      ],
      "hex": "01000000010000000000000000000000000000000000000000000000000000000000000000ffffffff0804ffff001d028308ffffffff0100f2052a0100000043410470649f9e6d93be33fb6297f55e6238eb7f16fd6ab2c00ee2bd1a2e8c8e314cb278de7aecd101369d27e2bc393e82b1dcbc5affd11e0114d72ab10b88ebc3a583ac00000000"
    }
  ]
}