{
  "hash": "000000006f1118b1dbecd400b89a792deb92416e78d16b56cba3f88d6515f48e",
  "confirmations": 45087,
  "height": 8011,
  "version": 1,
  "versionHex": "00000001",
  "merkleroot": "81cf42782eff6f269634ddd07afc7d476a112cf192f875dd7b6337ad771ed620",
  "time": 1237469010,
  "mediantime": 1237464782,
  "nonce": 1316374825,
  "bits": "1d00ffff",
  "difficulty": 1,
  "chainwork": "00000000000000000000000000000000000000000000000000001f4c1f4c1f4c",
  "nTx": 1,
  "previousblockhash": "000000009c88d3647ea19e4f2ecb76ba0cb2349f246cf593377b7755346ad43a",
  "nextblockhash": "00000000389992a4f3d04b294470e22d45677c8ea45acb95cbfa71ffb468d779",
  "strippedsize": 216,
  "size": 216,
  "weight": 864,
  "tx": [
    {
      "txid": "81cf42782eff6f269634ddd07afc7d476a112cf192f875dd7b6337ad771ed620",
      "hash": "81cf42782eff6f269634ddd07afc7d476a112cf192f875dd7b6337ad771ed620",
      "version": 1,
      "size": 135,
      "vsize": 135,
      "weight": 540,
      "locktime": 0,
      "vin": [
        {
          "coinbase": "04ffff001d02a409",
          "sequence": 4294967295
        }
      ],
      "vout": [
        {
          "value": 50.0,
          "n": 0,
          "scriptPubKey": {
            "asm": "044b46a8adbeab9833d541ab3cfe29a9e97b623dd0dc9301fd11053aba0b6d68450874703232f7e24f92748ba22c9b239ca9f76135d300f1d08a6214adde011bb3 OP_CHECKSIG",
            "desc": "pk(044b46a8adbeab9833d541ab3cfe29a9e97b623dd0dc9301fd11053aba0b6d68450874703232f7e24f92748ba22c9b239ca9f76135d300f1d08a6214adde011bb3)#gtsqwfyz",
            "hex": "41044b46a8adbeab9833d541ab3cfe29a9e97b623dd0dc9301fd11053aba0b6d68450874703232f7e24f92748ba22c9b239ca9f76135d300f1d08a6214adde011bb3ac",
            "type": "pubkey"
          }
        }
      ],
      "hex": "01000000010000000000000000000000000000000000000000000000000000000000000000ffffffff0804ffff001d02a409ffffffff0100f2052a010000004341044b46a8adbeab9833d541ab3cfe29a9e97b623dd0dc9301fd11053aba0b6d68450874703232f7e24f92748ba22c9b239ca9f76135d300f1d08a6214adde011bb3ac00000000"
    }
  ]
}