{
  "hash": "00000000d49a9c4ff3bd924b3f0b083b5169f2dd327090f205d155f76d0e8fec",
  "confirmations": 52148,
  "height": 950,
  "version": 1,
  "versionHex": "00000001",
  "merkleroot": "7f1bd607937f6a5e633c1455e174d79887b151c435baca445fdc23008d5674f4",
  "time": 1232313148,
  "mediantime": 1232309637,
  "nonce": 3259387437,
  "bits": "1d00ffff",
  "difficulty": 1,
  "chainwork": "000000000000000000000000000000000000000000000000000003b703b703b7",
  "nTx": 1,
  "previousblockhash": "000000005eb3d7fa23603142c9981fb12269a00616eeda1c7657076fd4fc1480",
  "nextblockhash": "00000000040354dfe4ac02f4f8055b93adfcc36eb4617643e305f08e02f2edb7",
  "strippedsize": 216,
  "size": 216,
  "weight": 864,
  "tx": [
    {
      "txid": "7f1bd607937f6a5e633c1455e174d79887b151c435baca445fdc23008d5674f4",
      "hash": "7f1bd607937f6a5e633c1455e174d79887b151c435baca445fdc23008d5674f4",
      "version": 1,
      "size": 135,
      "vsize": 135,
      "weight": 540,
      "locktime": 0,
      "vin": [
        {
          "coinbase": "04ffff001d025404",
          "sequence": 4294967295
        }
      ],
      "vout": [
        {
          "value": 50.0,
          "n": 0,
          "scriptPubKey": {
            "asm": "04f54370f6d038606967548379fe526831806f571b2e15c00319a4c1c5c41d90f04150c2dac8e127a8f99b586ea1d206f2ae760327c2f436b574468ceb365ad131 OP_CHECKSIG",
            "desc": "pk(04f54370f6d038606967548379fe526831806f571b2e15c00319a4c1c5c41d90f04150c2dac8e127a8f99b586ea1d206f2ae760327c2f436b574468ceb365ad131)#zhexdewl",
            "hex": "4104f54370f6d038606967548379fe526831806f571b2e15c00319a4c1c5c41d90f04150c2dac8e127a8f99b586ea1d206f2ae760327c2f436b574468ceb365ad131ac",
            "type": "pubkey"
          }
        }
      ],
      "hex": "01000000010000000000000000000000000000000000000000000000000000000000000000ffffffff0804ffff001d025404ffffffff0100f2052a01000000434104f54370f6d038606967548379fe526831806f571b2e15c00319a4c1c5c41d90f04150c2dac8e127a8f99b586ea1d206f2ae760327c2f436b574468ceb365ad131ac00000000"
    }
  ]
}