{
  "hash": "00000000cb47a64e56fd6b5281024931710888376df90d9f8dfbf706275bfb98",
  "confirmations": 50776,
  "height": 2322,
  "version": 1,
  "versionHex": "00000001",
  "merkleroot": "41331b0d6541fbe26757e28856633c66f1a1e0dd529166ef568a2463deaa68e1",
  "time": 1233296767,
  "mediantime": 1233292771,
  "nonce": 3529908769,
  "bits": "1d00ffff",
  "difficulty": 1,
  "chainwork": "0000000000000000000000000000000000000000000000000000091309130913",
  "nTx": 1,
  "previousblockhash": "000000005a3e48ac94931820ecad2e423467232c48b9258501994ff61a548ca6",
  "nextblockhash": "00000000ccb320a356fdfb47e4cd9ebb22e4c294e23bd316aaeaef1701058c9e",
  "strippedsize": 216,
  "size": 216,
  "weight": 864,
  "tx": [
    {
      "txid": "41331b0d6541fbe26757e28856633c66f1a1e0dd529166ef568a2463deaa68e1",
      "hash": "41331b0d6541fbe26757e28856633c66f1a1e0dd529166ef568a2463deaa68e1",
      "version": 1,
      "size": 135,
      "vsize": 135,
      "weight": 540,
      "locktime": 0,
      "vin": [
        {
          "coinbase": "04ffff001d023002",
          "sequence": 4294967295
        }
      ],
      "vout": [
        {
          "value": 50.0,
          "n": 0,
          "scriptPubKey": {
            "asm": "04f783161c2890c635f5c3b03f8bb0508da9df97350c23c723b8133a02c6e8b1a5524feb4019995750fb8a22183449e954cea3a92ce7d500ca51dea07cfe66ce67 OP_CHECKSIG",
            "desc": "pk(04f783161c2890c635f5c3b03f8bb0508da9df97350c23c723b8133a02c6e8b1a5524feb4019995750fb8a22183449e954cea3a92ce7d500ca51dea07cfe66ce67)#gfq7a6nw",
            "hex": "4104f783161c2890c635f5c3b03f8bb0508da9df97350c23c723b8133a02c6e8b1a5524feb4019995750fb8a22183449e954cea3a92ce7d500ca51dea07cfe66ce67ac",
            "type": "pubkey"
          }
        }
      ],
      "hex": "01000000010000000000000000000000000000000000000000000000000000000000000000ffffffff0804ffff001d023002ffffffff0100f2052a01000000434104f783161c2890c635f5c3b03f8bb0508da9df97350c23c723b8133a02c6e8b1a5524feb4019995750fb8a22183449e954cea3a92ce7d500ca51dea07cfe66ce67ac00000000"
    }
  ]
}