{
  "hash": "00000000ef3b918293d5b533a43ef16d95742b39f9a0372996814a180543c3b8",
  "confirmations": 52031,
  "height": 306,
  "version": 1,
  "versionHex": "00000001",
  "merkleroot": "c860f14427dd40ca724600f78effce48aa0937e3300946903149276af9ea634b",
  "time": 1231837946,
  "mediantime": 1231833175,
  "nonce": 3507606049,
  "bits": "1d00ffff",
  "difficulty": 1,
  "chainwork": "0000000000000000000000000000000000000000000000000000013301330133",
  "nTx": 1,
  "previousblockhash": "0000000055650460d2d0c657bfbc52cac36a01a95bc5296446b50b79269cde67",
  "nextblockhash": "0000000011d68e7505461a2ae9aa7a9e4b4d3a010e6de8ae1d4e3bbcca98409b",
  "strippedsize": 216,
  "size": 216,
  "weight": 864,
  "tx": [
    {
      "txid": "c860f14427dd40ca724600f78effce48aa0937e3300946903149276af9ea634b",
      "hash": "c860f14427dd40ca724600f78effce48aa0937e3300946903149276af9ea634b",
      "version": 1,
      "size": 135,
      "vsize": 135,
      "weight": 540,
      "locktime": 0,
      "vin": [
        {
          "coinbase": "04ffff001d029400",
          "sequence": 4294967295
        }
      ],
      "vout": [
        {
          "value": 50.0,
          "n": 0,
          "scriptPubKey": {
            "asm": "045c3046714f11270f239aaa035519d13dd12f84c7f8103bf7554dde0867cb9aa6300563373362baa19cf4eefd105c3f6027cc1660bf1f607ca765dd3df82e3b90 OP_CHECKSIG",
            "desc": "pk(045c3046714f11270f239aaa035519d13dd12f84c7f8103bf7554dde0867cb9aa6300563373362baa19cf4eefd105c3f6027cc1660bf1f607ca765dd3df82e3b90)#hwaae650",
            "hex": "41045c3046714f11270f239aaa035519d13dd12f84c7f8103bf7554dde0867cb9aa6300563373362baa19cf4eefd105c3f6027cc1660bf1f607ca765dd3df82e3b90ac",
            "type": "pubkey"
          }
        }
      ],
      "hex": "01000000010000000000000000000000000000000000000000000000000000000000000000ffffffff0804ffff001d029400ffffffff0100f2052a010000004341045c3046714f11270f239aaa035519d13dd12f84c7f8103bf7554dde0867cb9aa6300563373362baa19cf4eefd105c3f6027cc1660bf1f607ca765dd3df82e3b90ac00000000"
    }
  ]
}