{
  "hash": "000000000cd339982e556dfffa9de94744a4135c53eeef15b7bcc9bdeb9c2182",
  "confirmations": 51799,
  "height": 23,
  "version": 1,
  "versionHex": "00000001",
  "merkleroot": "e1cf3476234d8446653ad52a8939ed792003eefdcd0e897319ab9d2cb4c14c8c",
  "time": 1231567611,
  "mediantime": 1231564334,
  "nonce": 1437882917,
  "bits": "1d00ffff",
  "difficulty": 1,
  "chainwork": "0000000000000000000000000000000000000000000000000000001800180018",
  "nTx": 1,
  "previousblockhash": "0000000098b58d427a10c860335a21c1a9a7639e96c3d6f1a03d8c8c885b5e3b",
  "nextblockhash": "00000000fc051fbbce89a487e811a5d4319d209785ea4f4b27fc83770d1e415f",
  "strippedsize": 215,
  "size": 215,
  "weight": 860,
  "tx": [
    {
      "txid": "e1cf3476234d8446653ad52a8939ed792003eefdcd0e897319ab9d2cb4c14c8c",
      "hash": "e1cf3476234d8446653ad52a8939ed792003eefdcd0e897319ab9d2cb4c14c8c",
      "version": 1,
      "size": 134,
      "vsize": 134,
      "weight": 536,
      "locktime": 0,
      "vin": [
        {
          "coinbase": "04ffff001d0131",
          "sequence": 4294967295
        }
      ],
      "vout": [
        {
          "value": 50.0,
          "n": 0,
          "scriptPubKey": {
            "asm": "041a24b5639c12b2b0a612011eb780a682020b6312782fef0bc29a75eee7cf66abd081121a0b7b5c3076e055648379c25ed52eff8d2b11871e5a7e0c8604f4053f OP_CHECKSIG",
            "desc": "pk(041a24b5639c12b2b0a612011eb780a682020b6312782fef0bc29a75eee7cf66abd081121a0b7b5c3076e055648379c25ed52eff8d2b11871e5a7e0c8604f4053f)#pxqcfg8a",
            "hex": "41041a24b5639c12b2b0a612011eb780a682020b6312782fef0bc29a75eee7cf66abd081121a0b7b5c3076e055648379c25ed52eff8d2b11871e5a7e0c8604f4053fac",
            "type": "pubkey"
          }
        }
      ],
      "hex": "01000000010000000000000000000000000000000000000000000000000000000000000000ffffffff0704ffff001d0131ffffffff0100f2052a010000004341041a24b5639c12b2b0a612011eb780a682020b6312782fef0bc29a75eee7cf66abd081121a0b7b5c3076e055648379c25ed52eff8d2b11871e5a7e0c8604f4053fac00000000"
    }
  ]
}