{
  "hash": "0000000098946a0ed4f9a3339236301250973d3a63680c0d9d414101fae6c037",
  "confirmations": 45339,
  "height": 7759,
  "version": 1,
  "versionHex": "00000001",
  "merkleroot": "806fe25745beafe1452b49c8748c6f315bc441cfb5f3af7c2900515d2803bc31",
  "time": 1237282602,
  "mediantime": 1237279019,
  "nonce": 647557139,
  "bits": "1d00ffff",
  "difficulty": 1,
  "chainwork": "00000000000000000000000000000000000000000000000000001e501e501e50",
  "nTx": 1,
  "previousblockhash": "000000002bb5d3945f2cf8ca3c29e12678c4f47f182ddd835a2fb3ae4cbf1058",
  "nextblockhash": "00000000645bb1a8754dff8a6eb838ad4fe55391315c2e22f741129f84d6072c",
  "strippedsize": 216,
  "size": 216,
  "weight": 864,
  "tx": [
    {
      "txid": "806fe25745beafe1452b49c8748c6f315bc441cfb5f3af7c2900515d2803bc31",
      "hash": "806fe25745beafe1452b49c8748c6f315bc441cfb5f3af7c2900515d2803bc31",
      "version": 1,
      "size": 135,
      "vsize": 135,
      "weight": 540,
      "locktime": 0,
      "vin": [
        {
          "coinbase": "04ffff001d022505",
          "sequence": 4294967295
        }
      ],
      "vout": [
        {
          "value": 50.0,
          "n": 0,
          "scriptPubKey": {
            "asm": "0481f170299679426cd2485a4daf36c7dd48d25f56a84829b794cb8c3c5404c39ab89ecaa076309ea8493b9e49c05dbba2710b00768f5e739725250f6ff69c287e OP_CHECKSIG",
            "desc": "pk(0481f170299679426cd2485a4daf36c7dd48d25f56a84829b794cb8c3c5404c39ab89ecaa076309ea8493b9e49c05dbba2710b00768f5e739725250f6ff69c287e)#mt6wrvgh",
            "hex": "410481f170299679426cd2485a4daf36c7dd48d25f56a84829b794cb8c3c5404c39ab89ecaa076309ea8493b9e49c05dbba2710b00768f5e739725250f6ff69c287eac",
            "type": "pubkey"
          }
        }
      ],
      "hex": "01000000010000000000000000000000000000000000000000000000000000000000000000ffffffff0804ffff001d022505ffffffff0100f2052a0100000043410481f170299679426cd2485a4daf36c7dd48d25f56a84829b794cb8c3c5404c39ab89ecaa076309ea8493b9e49c05dbba2710b00768f5e739725250f6ff69c287eac00000000"
    }
  ]
}