{
  "hash": "000000004ebe43b15565f9a42d99481d4a4188059d803d6071906b6804e9d4fe",
  "confirmations": 52393,
  "height": 705,
  "version": 1,
  "versionHex": "00000001",
  "merkleroot": "81e1b4d46bd99a7bed77ef1c6aa1a4ee10acb7fc9b2b61841b2f116a39ef4cf0",
  "time": 1232111780,
  "mediantime": 1232108688,
  "nonce": 527846711,
  "bits": "1d00ffff",
  "difficulty": 1,
  "chainwork": "000000000000000000000000000000000000000000000000000002c202c202c2",
  "nTx": 1,
  "previousblockhash": "00000000b0b1a85adf0d820cb132d663ae799a4c65d3333673f28cda68f7be9c",
  "nextblockhash": "000000006f6709b76bed31001b32309167757007aa4fb899f8168c8e9c084b1a",
  "strippedsize": 216,
  "size": 216,
  "weight": 864,
  "tx": [
    {
      "txid": "81e1b4d46bd99a7bed77ef1c6aa1a4ee10acb7fc9b2b61841b2f116a39ef4cf0",
      "hash": "81e1b4d46bd99a7bed77ef1c6aa1a4ee10acb7fc9b2b61841b2f116a39ef4cf0",
      "version": 1,
      "size": 135,
      "vsize": 135,
      "weight": 540,
      "locktime": 0,
      "vin": [
        {
          "coinbase": "04ffff001d022101",
          "sequence": 4294967295
        }
      ],
      "vout": [
        {
          "value": 50.0,
          "n": 0,
          "scriptPubKey": {
            "asm": "0407583fd36e5f2caf88e97676c9513adc2befaa6866ac36c7880d09b7914301b2ad1e30f63d244e8d3268202e59937c61aa78aa102e6ee9c14e8bdc630af08d3a OP_CHECKSIG",
            "desc": "pk(0407583fd36e5f2caf88e97676c9513adc2befaa6866ac36c7880d09b7914301b2ad1e30f63d244e8d3268202e59937c61aa78aa102e6ee9c14e8bdc630af08d3a)#rskx3fxp",
            "hex": "410407583fd36e5f2caf88e97676c9513adc2befaa6866ac36c7880d09b7914301b2ad1e30f63d244e8d3268202e59937c61aa78aa102e6ee9c14e8bdc630af08d3aac",
            "type": "pubkey"
          }
        }
      ],
      "hex": "01000000010000000000000000000000000000000000000000000000000000000000000000ffffffff0804ffff001d022101ffffffff0100f2052a0100000043410407583fd36e5f2caf88e97676c9513adc2befaa6866ac36c7880d09b7914301b2ad1e30f63d244e8d3268202e59937c61aa78aa102e6ee9c14e8bdc630af08d3aac00000000"
    }
  ]
}