{
  "hash": "0000000058b9d64ce6728168716bcd837c2b628cf5f26d2aa28cfce8543d2bd6",
  "confirmations": 52537,
  "height": 561,
  "version": 1,
  "versionHex": "00000001",
  "merkleroot": "b3e9c6ac89e67b0bc4a48f42fbe0127927c4568077a1a5fb48a0acd150857167",
  "time": 1232011955,
  "mediantime": 1232008124,
  "nonce": 1182816800,
  "bits": "1d00ffff",
  "difficulty": 1,
  "chainwork": "0000000000000000000000000000000000000000000000000000023202320232",
  "nTx": 1,
  "previousblockhash": "00000000b5b71fea3e2abdf62fdc6b1273f48927f2a9ed5493e280792a50ad65",
  "nextblockhash": "000000009f7479465e462edc3ef7e174e916e6d60d51270f180f68e2157aa4ae",
  "strippedsize": 216,
  "size": 216,
  "weight": 864,
  "tx": [
    {
      "txid": "b3e9c6ac89e67b0bc4a48f42fbe0127927c4568077a1a5fb48a0acd150857167",
      "hash": "b3e9c6ac89e67b0bc4a48f42fbe0127927c4568077a1a5fb48a0acd150857167",
      "version": 1,
      "size": 135,
      "vsize": 135,
      "weight": 540,
      "locktime": 0,
      "vin": [
        {
          "coinbase": "04ffff001d02ea05",
          "sequence": 4294967295
        }
      ],
      "vout": [
        {
          "value": 50.0,
          "n": 0,
          "scriptPubKey": {
            "asm": "04974b64a6b5c2cc1755e200d38872adb1ba18ff0958dd319769565f0126f5a4e81627fbcc8c137e67d30c03ed9ad16483986fa640446cc31559f829d1e032c8b4 OP_CHECKSIG",
            "desc": "pk(04974b64a6b5c2cc1755e200d38872adb1ba18ff0958dd319769565f0126f5a4e81627fbcc8c137e67d30c03ed9ad16483986fa640446cc31559f829d1e032c8b4)#8u9kwfzj",
            "hex": "4104974b64a6b5c2cc1755e200d38872adb1ba18ff0958dd319769565f0126f5a4e81627fbcc8c137e67d30c03ed9ad16483986fa640446cc31559f829d1e032c8b4ac",
            "type": "pubkey"
          }
        }
      ],
      "hex": "01000000010000000000000000000000000000000000000000000000000000000000000000ffffffff0804ffff001d02ea05ffffffff0100f2052a01000000434104974b64a6b5c2cc1755e200d38872adb1ba18ff0958dd319769565f0126f5a4e81627fbcc8c137e67d30c03ed9ad16483986fa640446cc31559f829d1e032c8b4ac00000000"
    }
  ]
}