{
  "hash": "00000000c4df9bb8a91975c195d5d407def56a0d24855bed48aaa26e221120f6",
  "confirmations": 48787,
  "height": 4311,
  "version": 1,
  "versionHex": "00000001",
  "merkleroot": "af5c184c62093dd5046fd41528909cce922ebd7c0328b1aa49c4e7f92533156e",
  "time": 1234650135,
  "mediantime": 1234646337,
  "nonce": 3123607606,
  "bits": "1d00ffff",
  "difficulty": 1,
  "chainwork": "000000000000000000000000000000000000000000000000000010d810d810d8",
  "nTx": 1,
  "previousblockhash": "000000004201ff1f9c46ff10642eb40bc664653b36e9d6091a6cf5b03fb8bd0d",
  "nextblockhash": "00000000a9da635727dce622d78361b153ce3334e6a60d4377fad529abfc7863",
  "strippedsize": 215,
  "size": 215,
  "weight": 860,
  "tx": [
    {
      "txid": "af5c184c62093dd5046fd41528909cce922ebd7c0328b1aa49c4e7f92533156e",
      "hash": "af5c184c62093dd5046fd41528909cce922ebd7c0328b1aa49c4e7f92533156e",
      "version": 1,
      "size": 134,
      "vsize": 134,
      "weight": 536,
      "locktime": 0,
      "vin": [
        {
          "coinbase": "04ffff001d010a",
          "sequence": 4294967295
        }
      ],
      "vout": [
        {
          "value": 50.0,
          "n": 0,
          "scriptPubKey": {
            "asm": "04f862da7987b74a798a7f01853cca9c36b5bbadfd198f0a3784c98b9f8bfb820598660e734b3d683935d3e0e00714ea163b0be90e42176cbcb1ac52946cc9d0dd OP_CHECKSIG",
            "desc": "pk(04f862da7987b74a798a7f01853cca9c36b5bbadfd198f0a3784c98b9f8bfb820598660e734b3d683935d3e0e00714ea163b0be90e42176cbcb1ac52946cc9d0dd)#2w9vdj8e",
            "hex": "4104f862da7987b74a798a7f01853cca9c36b5bbadfd198f0a3784c98b9f8bfb820598660e734b3d683935d3e0e00714ea163b0be90e42176cbcb1ac52946cc9d0ddac",
            "type": "pubkey"
          }
        }
      ],
      "hex": "01000000010000000000000000000000000000000000000000000000000000000000000000ffffffff0704ffff001d010affffffff0100f2052a01000000434104f862da7987b74a798a7f01853cca9c36b5bbadfd198f0a3784c98b9f8bfb820598660e734b3d683935d3e0e00714ea163b0be90e42176cbcb1ac52946cc9d0ddac00000000"
    }
  ]
}