{
  "hash": "00000000b367d60936957ad2e4000240e663fbf225145aa4308f9f951600c559",
  "confirmations": 44342,
  "height": 8756,
  "version": 1,
  "versionHex": "00000001",
  "merkleroot": "8a8877136609960a20aac0644946b62d74de4a1339b1eb893b253f73649242e3",
  "time": 1238065349,
  "mediantime": 1238059802,
  "nonce": 1873536810,
  "bits": "1d00ffff",
  "difficulty": 1,
  "chainwork": "0000000000000000000000000000000000000000000000000000223522352235",
  "nTx": 1,
  "previousblockhash": "00000000b69587e814b378d834d53cc5c11a488b9d3a4dceaef877677d6e8c8c",
  "nextblockhash": "00000000b01260abe5a6b9f8a300e8312032fcbe3caec6f68aed27a1fe4278ba",
  "strippedsize": 216,
  "size": 216,
  "weight": 864,
  "tx": [
    {
      "txid": "8a8877136609960a20aac0644946b62d74de4a1339b1eb893b253f73649242e3",
      "hash": "8a8877136609960a20aac0644946b62d74de4a1339b1eb893b253f73649242e3",
      "version": 1,
      "size": 135,
      "vsize": 135,
      "weight": 540,
      "locktime": 0,
      "vin": [
        {
          "coinbase": "04ffff001d02df01",
          "sequence": 4294967295
        }
      ],
      "vout": [
        {
          "value": 50.0,
          "n": 0,
          "scriptPubKey": {
            "asm": "04750faf3fb4475f6300a7b0a7418d511033077212757eb2829cfe334dd91b5bec3de722b8ce24734415f62a6eb309eb9f38166a26365571c2f596990e162c7939 OP_CHECKSIG",
            "desc": "pk(04750faf3fb4475f6300a7b0a7418d511033077212757eb2829cfe334dd91b5bec3de722b8ce24734415f62a6eb309eb9f38166a26365571c2f596990e162c7939)#x0gup9tp",
            "hex": "4104750faf3fb4475f6300a7b0a7418d511033077212757eb2829cfe334dd91b5bec3de722b8ce24734415f62a6eb309eb9f38166a26365571c2f596990e162c7939ac",
            "type": "pubkey"
          }
        }
      ],
      "hex": "01000000010000000000000000000000000000000000000000000000000000000000000000ffffffff0804ffff001d02df01ffffffff0100f2052a01000000434104750faf3fb4475f6300a7b0a7418d511033077212757eb2829cfe334dd91b5bec3de722b8ce24734415f62a6eb309eb9f38166a26365571c2f596990e162c7939ac00000000"
    }
  ]
}