{
  "hash": "00000000c19d343702bf8fa5b9f86be983dcc99f471267a4f84e5b22462c4269",
  "confirmations": 46783,
  "height": 6315,
  "version": 1,
  "versionHex": "00000001",
  "merkleroot": "6704b281078f7cf693a19bdbed7cb6431645fd6316ff8893e77b04671a7e1862",
  "time": 1236183799,
  "mediantime": 1236179691,
  "nonce": 3193914904,
  "bits": "1d00ffff",
  "difficulty": 1,
  "chainwork": "000000000000000000000000000000000000000000000000000018ac18ac18ac",
  "nTx": 1,
  "previousblockhash": "000000003457e576d0076d86f135eb895290bac9a48eb080ecee6c3c5b633fa7",
  "nextblockhash": "0000000059638339223984f993eb0a4005649103aacf02ed1139d70b21c7e5c3",
  "strippedsize": 215,
  "size": 215,
  "weight": 860,
  "tx": [
    {
      "txid": "6704b281078f7cf693a19bdbed7cb6431645fd6316ff8893e77b04671a7e1862",
      "hash": "6704b281078f7cf693a19bdbed7cb6431645fd6316ff8893e77b04671a7e1862",
      "version": 1,
      "size": 134,
      "vsize": 134,
      "weight": 536,
      "locktime": 0,
      "vin": [
        {
          "coinbase": "04ffff001d0166",
          "sequence": 4294967295
        }
      ],
      "vout": [
        {
          "value": 50.0,
          "n": 0,
          "scriptPubKey": {
            "asm": "04bdd6d7548f9a16ef053d6cfff8988d88c9c15340c9badb43931352471a2d2bc8fc784fc743df861056623cba543ecbbcac64561680f3eea6dadea4dfabaef153 OP_CHECKSIG",
            "desc": "pk(04bdd6d7548f9a16ef053d6cfff8988d88c9c15340c9badb43931352471a2d2bc8fc784fc743df861056623cba543ecbbcac64561680f3eea6dadea4dfabaef153)#psftvnju",
            "hex": "4104bdd6d7548f9a16ef053d6cfff8988d88c9c15340c9badb43931352471a2d2bc8fc784fc743df861056623cba543ecbbcac64561680f3eea6dadea4dfabaef153ac",
            "type": "pubkey"
          }
        }
      ],
      "hex": "01000000010000000000000000000000000000000000000000000000000000000000000000ffffffff0704ffff001d0166ffffffff0100f2052a01000000434104bdd6d7548f9a16ef053d6cfff8988d88c9c15340c9badb43931352471a2d2bc8fc784fc743df861056623cba543ecbbcac64561680f3eea6dadea4dfabaef153ac00000000"
    }
  ]
}