{
  "hash": "000000007a1b08a534ce7e00b4e0f3f15e598ea2cf8400a2f68077780dd786c0",
  "confirmations": 50403,
  "height": 2695,
  "version": 1,
  "versionHex": "00000001",
  "merkleroot": "5b0d5c33cda57646e48d7b5adae907a434143fe1cdca9d4825affc7a05fe6cb7",
  "time": 1233557507,
  "mediantime": 1233554880,
  "nonce": 420491265,
  "bits": "1d00ffff",
  "difficulty": 1,
  "chainwork": "00000000000000000000000000000000000000000000000000000a880a880a88",
  "nTx": 1,
  "previousblockhash": "000000009968b9db3d60b28ebf5653412d2e3bca609498d409b3c78044a8f61d",
  "nextblockhash": "00000000b7b198680cf2afca0342000147150a1e7fd947e51f934f1efab309fe",
  "strippedsize": 216,
  "size": 216,
  "weight": 864,
  "tx": [
    {
      "txid": "5b0d5c33cda57646e48d7b5adae907a434143fe1cdca9d4825affc7a05fe6cb7",
      "hash": "5b0d5c33cda57646e48d7b5adae907a434143fe1cdca9d4825affc7a05fe6cb7",
      "version": 1,
      "size": 135,
      "vsize": 135,
      "weight": 540,
      "locktime": 0,
      "vin": [
        {
          "coinbase": "04ffff001d02ac04",
          "sequence": 4294967295
        }
      ],
      "vout": [
        {
          "value": 50.0,
          "n": 0,
          "scriptPubKey": {
            "asm": "04ea2b6b89033ab87890e810afeaac8e7f853ffd5d742dbb439daa6d76eede5880de0aab256a6ee498debaed02b174d662589300caeafe541bbc8eb7c9af3ca1b8 OP_CHECKSIG",
            "desc": "pk(04ea2b6b89033ab87890e810afeaac8e7f853ffd5d742dbb439daa6d76eede5880de0aab256a6ee498debaed02b174d662589300caeafe541bbc8eb7c9af3ca1b8)#6rpxkxgw",
            "hex": "4104ea2b6b89033ab87890e810afeaac8e7f853ffd5d742dbb439daa6d76eede5880de0aab256a6ee498debaed02b174d662589300caeafe541bbc8eb7c9af3ca1b8ac",
            "type": "pubkey"
          }
        }
      ],
      "hex": "01000000010000000000000000000000000000000000000000000000000000000000000000ffffffff0804ffff001d02ac04ffffffff0100f2052a01000000434104ea2b6b89033ab87890e810afeaac8e7f853ffd5d742dbb439daa6d76eede5880de0aab256a6ee498debaed02b174d662589300caeafe541bbc8eb7c9af3ca1b8ac00000000"
    }
  ]
}