{
  "hash": "00000000ecc497948551055d2df1f67f2c0798c86dc2a8cf52f8eed84d14995d",
  "confirmations": 50186,
  "height": 2912,
  "version": 1,
  "versionHex": "00000001",
  "merkleroot": "f10d5908d483e2372fe59c8f4047e4d849acc20aad22928ca906d71fda5e834e",
  "time": 1233699846,
  "mediantime": 1233696595,
  "nonce": 284235015,
  "bits": "1d00ffff",
  "difficulty": 1,
  "chainwork": "00000000000000000000000000000000000000000000000000000b610b610b61",
  "nTx": 1,
  "previousblockhash": "0000000011f86d80ca78308b01a7466c905b8ed7bda4ce85ea2d36d15244faa6",
  "nextblockhash": "000000006c2890a86b30cf93d369b407a67a2731600464ae7b2da7c79ec4d40e",
  "strippedsize": 216,
  "size": 216,
  "weight": 864,
  "tx": [
    {
      "txid": "f10d5908d483e2372fe59c8f4047e4d849acc20aad22928ca906d71fda5e834e",
      "hash": "f10d5908d483e2372fe59c8f4047e4d849acc20aad22928ca906d71fda5e834e",
      "version": 1,
      "size": 135,
      "vsize": 135,
      "weight": 540,
      "locktime": 0,
      "vin": [
        {
          "coinbase": "04ffff001d028807",
          "sequence": 4294967295
        }
      ],
      "vout": [
        {
          "value": 50.0,
          "n": 0,
          "scriptPubKey": {
            "asm": "04e826fa916b7faa2a753cebe985f4ada6d3b7c14b55708373dcc1120afe337354825a4a4c70ec19d9e8e37221d02603dd7c25de5b66aa46cdd2940bbe19f8cc01 OP_CHECKSIG",
            "desc": "pk(04e826fa916b7faa2a753cebe985f4ada6d3b7c14b55708373dcc1120afe337354825a4a4c70ec19d9e8e37221d02603dd7c25de5b66aa46cdd2940bbe19f8cc01)#xjy3djzq",
            "hex": "4104e826fa916b7faa2a753cebe985f4ada6d3b7c14b55708373dcc1120afe337354825a4a4c70ec19d9e8e37221d02603dd7c25de5b66aa46cdd2940bbe19f8cc01ac",
            "type": "pubkey"
          }
        }
      ],
      "hex": "01000000010000000000000000000000000000000000000000000000000000000000000000ffffffff0804ffff001d028807ffffffff0100f2052a01000000434104e826fa916b7faa2a753cebe985f4ada6d3b7c14b55708373dcc1120afe337354825a4a4c70ec19d9e8e37221d02603dd7c25de5b66aa46cdd2940bbe19f8cc01ac00000000"
    }
  ]
}