{
  "hash": "000000003359668e837c4554d41cca210eaf738de8eb77f6ec86807118f07d0c",
  "confirmations": 45147,
  "height": 7951,
  "version": 1,
  "versionHex": "00000001",
  "merkleroot": "556f15fb7a1d56525ee6352530b8eb6bfd4a04d5500d6a233e4f3176d3b23a4e",
  "time": 1237428319,
  "mediantime": 1237423952,
  "nonce": 1155890966,
  "bits": "1d00ffff",
  "difficulty": 1,
  "chainwork": "00000000000000000000000000000000000000000000000000001f101f101f10",
  "nTx": 1,
  "previousblockhash": "00000000b24a6699586b4a94b6edc300dd0d4ca6151372b06c3f7f492c86bd0d",
  "nextblockhash": "00000000072b00d5649b0b4f442b212c8b2e7a4d474b7156764acede830ad2fb",
  "strippedsize": 216,
  "size": 216,
  "weight": 864,
  "tx": [
    {
      "txid": "556f15fb7a1d56525ee6352530b8eb6bfd4a04d5500d6a233e4f3176d3b23a4e",
      "hash": "556f15fb7a1d56525ee6352530b8eb6bfd4a04d5500d6a233e4f3176d3b23a4e",
      "version": 1,
      "size": 135,
      "vsize": 135,
      "weight": 540,
      "locktime": 0,
      "vin": [
        {
          "coinbase": "04ffff001d027e08",
          "sequence": 4294967295
        }
      ],
      "vout": [
        {
          "value": 50.0,
          "n": 0,
          "scriptPubKey": {
            "asm": "04f312c5f9f17244c3eeca5b1cd74be7b7735f37c70f5e6088b992826b454e8285db65968324246758c2352ae2b917b370569130dc222a8a2366e9eb63726ccc0a OP_CHECKSIG",
            "desc": "pk(04f312c5f9f17244c3eeca5b1cd74be7b7735f37c70f5e6088b992826b454e8285db65968324246758c2352ae2b917b370569130dc222a8a2366e9eb63726ccc0a)#rm4z675d",
            "hex": "4104f312c5f9f17244c3eeca5b1cd74be7b7735f37c70f5e6088b992826b454e8285db65968324246758c2352ae2b917b370569130dc222a8a2366e9eb63726ccc0aac",
            "type": "pubkey"
          }
        }
      ],
      "hex": "01000000010000000000000000000000000000000000000000000000000000000000000000ffffffff0804ffff001d027e08ffffffff0100f2052a01000000434104f312c5f9f17244c3eeca5b1cd74be7b7735f37c70f5e6088b992826b454e8285db65968324246758c2352ae2b917b370569130dc222a8a2366e9eb63726ccc0aac00000000"
    }
  ]
}