{
  "hash": "00000000b74544f44585efbcf42f3bb6dd8d6d5170c7841a18a982f693e7675a",
  "confirmations": 47636,
  "height": 5462,
  "version": 1,
  "versionHex": "00000001",
  "merkleroot": "958072ef500270d6aa1a2608fa43d41ed0c807bdae081b057427ae9ae894c2f4",
  "time": 1235493370,
  "mediantime": 1235489117,
  "nonce": 3078598912,
  "bits": "1d00ffff",
  "difficulty": 1,
  "chainwork": "0000000000000000000000000000000000000000000000000000155715571557",
  "nTx": 1,
  "previousblockhash": "00000000a7f6f51893720282ff254abe456f3139e2bb149d9475f25581b6a43a",
  "nextblockhash": "000000008217fe661c8fa1fe90e78b6f578d274169e4ec2b1a38ab56d4341566",
  "strippedsize": 216,
  "size": 216,
  "weight": 864,
  "tx": [
    {
      "txid": "958072ef500270d6aa1a2608fa43d41ed0c807bdae081b057427ae9ae894c2f4",
      "hash": "958072ef500270d6aa1a2608fa43d41ed0c807bdae081b057427ae9ae894c2f4",
      "version": 1,
      "size": 135,
      "vsize": 135,
      "weight": 540,
      "locktime": 0,
      "vin": [
        {
          "coinbase": "04ffff001d02f504",
          "sequence": 4294967295
        }
      ],
      "vout": [
        {
          "value": 50.0,
          "n": 0,
          "scriptPubKey": {
            "asm": "041cd937cbf14260a8d7fc4293340e42f25cdc38125af06a7c8aa87814180f4d0b1e4625d34ccfc5951c3d661c85167815a22533299eed50dbd1318bc1eb5bb965 OP_CHECKSIG",
            "desc": "pk(041cd937cbf14260a8d7fc4293340e42f25cdc38125af06a7c8aa87814180f4d0b1e4625d34ccfc5951c3d661c85167815a22533299eed50dbd1318bc1eb5bb965)#8cemw3zy",
            "hex": "41041cd937cbf14260a8d7fc4293340e42f25cdc38125af06a7c8aa87814180f4d0b1e4625d34ccfc5951c3d661c85167815a22533299eed50dbd1318bc1eb5bb965ac",
            "type": "pubkey"
          }
        }
      ],
      "hex": "01000000010000000000000000000000000000000000000000000000000000000000000000ffffffff0804ffff001d02f504ffffffff0100f2052a010000004341041cd937cbf14260a8d7fc4293340e42f25cdc38125af06a7c8aa87814180f4d0b1e4625d34ccfc5951c3d661c85167815a22533299eed50dbd1318bc1eb5bb965ac00000000"
    }
  ]
}