{
  "hash": "000000008075febe41a0a338a29d96f1a77adc89b5ef40528a5c6a203ed59443",
  "confirmations": 44649,
  "height": 8449,
  "version": 1,
  "versionHex": "00000001",
  "merkleroot": "6250cab4d601764a8ac75aba90a47588f76957b81305d2dbda2c396cbadd5f30",
  "time": 1237829306,
  "mediantime": 1237826465,
  "nonce": 1247864119,
  "bits": "1d00ffff",
  "difficulty": 1,
  "chainwork": "0000000000000000000000000000000000000000000000000000210221022102",
  "nTx": 1,
  "previousblockhash": "00000000f328621d6fa600202fe79cff93d99118acf9e08d31222e53172ec53f",
  "nextblockhash": "00000000e74a842e631ddd610026648b888dcd3b19cd2367d9f89334c64b0244",
  "strippedsize": 216,
  "size": 216,
  "weight": 864,
  "tx": [
    {
      "txid": "6250cab4d601764a8ac75aba90a47588f76957b81305d2dbda2c396cbadd5f30",
      "hash": "6250cab4d601764a8ac75aba90a47588f76957b81305d2dbda2c396cbadd5f30",
      "version": 1,
      "size": 135,
      "vsize": 135,
      "weight": 540,
      "locktime": 0,
      "vin": [
        {
          "coinbase": "04ffff001d02c406",
          "sequence": 4294967295
        }
      ],
      "vout": [
        {
          "value": 50.0,
          "n": 0,
          "scriptPubKey": {
            "asm": "046b7549385a5fac630e5c7d5ca533045485c7ab42236a01e969b6ce6211f24e88d92f8372bd0c99032aa4331bc24f0e65e65b8bef9e58802aa45cbd7932225831 OP_CHECKSIG",
            "desc": "pk(046b7549385a5fac630e5c7d5ca533045485c7ab42236a01e969b6ce6211f24e88d92f8372bd0c99032aa4331bc24f0e65e65b8bef9e58802aa45cbd7932225831)#qwnk73ud",
            "hex": "41046b7549385a5fac630e5c7d5ca533045485c7ab42236a01e969b6ce6211f24e88d92f8372bd0c99032aa4331bc24f0e65e65b8bef9e58802aa45cbd7932225831ac",
            "type": "pubkey"
          }
        }
      ],
      "hex": "01000000010000000000000000000000000000000000000000000000000000000000000000ffffffff0804ffff001d02c406ffffffff0100f2052a010000004341046b7549385a5fac630e5c7d5ca533045485c7ab42236a01e969b6ce6211f24e88d92f8372bd0c99032aa4331bc24f0e65e65b8bef9e58802aa45cbd7932225831ac00000000"
    }
  ]
}