{
  "hash": "0000000079fe2d3adf72263777b6b47778870f959fc9b3a4ba10be2ce320c734",
  "confirmations": 52181,
  "height": 917,
  "version": 1,
  "versionHex": "00000001",
  "merkleroot": "01fa154c187cd706072b9885c44b79339ed3acc1178b6c4bd2cf305305d30668",
  "time": 1232289711,
  "mediantime": 1232286406,
  "nonce": 779648262,
  "bits": "1d00ffff",
  "difficulty": 1,
  "chainwork": "0000000000000000000000000000000000000000000000000000039603960396",
  "nTx": 1,
  "previousblockhash": "00000000740acadf4cce36a0d8d7616f64a7b1fdad10aa93fd33e36bde2a67fc",
  "nextblockhash": "000000007912070eb7a6078158e549c6815f588dc2ad174a5f099edea2ef30b0",
  "strippedsize": 216,
  "size": 216,
  "weight": 864,
  "tx": [
    {
      "txid": "01fa154c187cd706072b9885c44b79339ed3acc1178b6c4bd2cf305305d30668",
      "hash": "01fa154c187cd706072b9885c44b79339ed3acc1178b6c4bd2cf305305d30668",
      "version": 1,
      "size": 135,
      "vsize": 135,
      "weight": 540,
      "locktime": 0,
      "vin": [
        {
          "coinbase": "04ffff001d02e003",
          "sequence": 4294967295
        }
      ],
      "vout": [
        {
          "value": 50.0,
          "n": 0,
          "scriptPubKey": {
            "asm": "0497604bc59b0b748e1e68c925f0fa041dac8bde1008dcb7b4fe73f3c20bdb2bfb589b4b7cd7d96c5e020b9873bc2689af87659ba4a4b1fcdf753a1a0987c82fff OP_CHECKSIG",
            "desc": "pk(0497604bc59b0b748e1e68c925f0fa041dac8bde1008dcb7b4fe73f3c20bdb2bfb589b4b7cd7d96c5e020b9873bc2689af87659ba4a4b1fcdf753a1a0987c82fff)#ke7998u7",
            "hex": "410497604bc59b0b748e1e68c925f0fa041dac8bde1008dcb7b4fe73f3c20bdb2bfb589b4b7cd7d96c5e020b9873bc2689af87659ba4a4b1fcdf753a1a0987c82fffac",
            "type": "pubkey"
          }
        }
      ],
      "hex": "01000000010000000000000000000000000000000000000000000000000000000000000000ffffffff0804ffff001d02e003ffffffff0100f2052a0100000043410497604bc59b0b748e1e68c925f0fa041dac8bde1008dcb7b4fe73f3c20bdb2bfb589b4b7cd7d96c5e020b9873bc2689af87659ba4a4b1fcdf753a1a0987c82fffac00000000"
    }
  ]
}