{
  "hash": "000000005dcc844e056aef76ba55ccf388e25fd92d1ec64d7317577aa8a66161",
  "confirmations": 47315,
  "height": 5783,
  "version": 1,
  "versionHex": "00000001",
  "merkleroot": "a2cbac8eb24e38e6eea91f1e3dd6fa66e239ea4ef93887921d1daec8c6ab5764",
  "time": 1235747745,
  "mediantime": 1235743360,
  "nonce": 2558953008,
  "bits": "1d00ffff",
  "difficulty": 1,
  "chainwork": "0000000000000000000000000000000000000000000000000000169816981698",
  "nTx": 1,
  "previousblockhash": "00000000ac9c37de83c6d89694721e039081206c1825a5b6325d2967a250d373",
  "nextblockhash": "00000000ded964897b5102b2e70a685fde945ad88405e657cd8406e1f519a404",
  "strippedsize": 215,
  "size": 215,
  "weight": 860,
  "tx": [
    {
      "txid": "a2cbac8eb24e38e6eea91f1e3dd6fa66e239ea4ef93887921d1daec8c6ab5764",
      "hash": "a2cbac8eb24e38e6eea91f1e3dd6fa66e239ea4ef93887921d1daec8c6ab5764",
      "version": 1,
      "size": 134,
      "vsize": 134,
      "weight": 536,
      "locktime": 0,
      "vin": [
        {
          "coinbase": "04ffff001d017b",
          "sequence": 4294967295
        }
      ],
      "vout": [
        {
          "value": 50.0,
          "n": 0,
          "scriptPubKey": {
            "asm": "043e7f78fab305d9126533cf4ddeb882afe1d3f947f349a8fa9c14fc2517a7b293632228e5b812ce81d3fda9640e705c6f22d6d084e78740c57d88fdf117a4f820 OP_CHECKSIG",
            "desc": "pk(043e7f78fab305d9126533cf4ddeb882afe1d3f947f349a8fa9c14fc2517a7b293632228e5b812ce81d3fda9640e705c6f22d6d084e78740c57d88fdf117a4f820)#l8s2lhma",
            "hex": "41043e7f78fab305d9126533cf4ddeb882afe1d3f947f349a8fa9c14fc2517a7b293632228e5b812ce81d3fda9640e705c6f22d6d084e78740c57d88fdf117a4f820ac",
            "type": "pubkey"
          }
        }
      ],
      "hex": "01000000010000000000000000000000000000000000000000000000000000000000000000ffffffff0704ffff001d017bffffffff0100f2052a010000004341043e7f78fab305d9126533cf4ddeb882afe1d3f947f349a8fa9c14fc2517a7b293632228e5b812ce81d3fda9640e705c6f22d6d084e78740c57d88fdf117a4f820ac00000000"
    }
  ]
}