{
  "hash": "000000000779d1bbd8e59aa27deef1bfbe46e0070e64f733ff734a051aa9034c",
  "confirmations": 46773,
  "height": 6325,
  "version": 1,
  "versionHex": "00000001",
  "merkleroot": "097f4a75c315cd801404e5029bb96434acad93010d4acb67bde13c2caadfb9f6",
  "time": 1236193758,
  "mediantime": 1236188241,
  "nonce": 1720020258,
  "bits": "1d00ffff",
  "difficulty": 1,
  "chainwork": "000000000000000000000000000000000000000000000000000018b618b618b6",
  "nTx": 1,
  "previousblockhash": "00000000f15bd8304a0853a8012b92702536736cf655d1573ae37216a1502428",
  "nextblockhash": "00000000a3f1415f4802b510db478857a3ab6e0e27419f852de00c11074cb2bb",
  "strippedsize": 215,
  "size": 215,
  "weight": 860,
  "tx": [
    {
      "txid": "097f4a75c315cd801404e5029bb96434acad93010d4acb67bde13c2caadfb9f6",
      "hash": "097f4a75c315cd801404e5029bb96434acad93010d4acb67bde13c2caadfb9f6",
      "version": 1,
      "size": 134,
      "vsize": 134,
      "weight": 536,
      "locktime": 0,
      "vin": [
        {
          "coinbase": "04ffff001d017c",
          "sequence": 4294967295
        }
      ],
      "vout": [
        {
          "value": 50.0,
          "n": 0,
          "scriptPubKey": {
            "asm": "04dd545db3b5028dd2624a48c906a963310561049cc3a1fd424013509acd430d03e673f094869357765299e1befcc3759168f507a92c3b46fc11ed01f3586dbab1 OP_CHECKSIG",
            "desc": "pk(04dd545db3b5028dd2624a48c906a963310561049cc3a1fd424013509acd430d03e673f094869357765299e1befcc3759168f507a92c3b46fc11ed01f3586dbab1)#a2p6tv5v",
            "hex": "4104dd545db3b5028dd2624a48c906a963310561049cc3a1fd424013509acd430d03e673f094869357765299e1befcc3759168f507a92c3b46fc11ed01f3586dbab1ac",
            "type": "pubkey"
          }
        }
      ],
      "hex": "01000000010000000000000000000000000000000000000000000000000000000000000000ffffffff0704ffff001d017cffffffff0100f2052a01000000434104dd545db3b5028dd2624a48c906a963310561049cc3a1fd424013509acd430d03e673f094869357765299e1befcc3759168f507a92c3b46fc11ed01f3586dbab1ac00000000"
    }
  ]
}