{
  "hash": "000000001c77c4cc9a7489390e942b5180a7a604309de003ad53d79813699dad",
  "confirmations": 50680,
  "height": 2418,
  "version": 1,
  "versionHex": "00000001",
  "merkleroot": "57d36541694103f6842e1a2190803c16fd410119cad83e9e138a0ddb54fa8307",
  "time": 1233369028,
  "mediantime": 1233364566,
  "nonce": 4233734954,
  "bits": "1d00ffff",
  "difficulty": 1,
  "chainwork": "0000000000000000000000000000000000000000000000000000097309730973",
  "nTx": 1,
  "previousblockhash": "00000000c0969c1775dc2efb67f9461039750c47d149665b5754d4ffe09c9df4",
  "nextblockhash": "00000000f650c21563c0dba2bad638a0a0723d33638a7114414d18fa05fe2335",
  "strippedsize": 215,
  "size": 215,
  "weight": 860,
  "tx": [
    {
      "txid": "57d36541694103f6842e1a2190803c16fd410119cad83e9e138a0ddb54fa8307",
      "hash": "57d36541694103f6842e1a2190803c16fd410119cad83e9e138a0ddb54fa8307",
      "version": 1,
      "size": 134,
      "vsize": 134,
      "weight": 536,
      "locktime": 0,
      "vin": [
        {
          "coinbase": "04ffff001d010b",
          "sequence": 4294967295
        }
      ],
      "vout": [
        {
          "value": 50.0,
          "n": 0,
          "scriptPubKey": {
            "asm": "04cec69b1f71724bdde7e380aaaf7890509604d88cc74e9ea1f94c93a7ebd3ef649662295e2c16bac6255fb93c4eb3135f87720a9c6b9098e52f4cf813e0930767 OP_CHECKSIG",
            "desc": "pk(04cec69b1f71724bdde7e380aaaf7890509604d88cc74e9ea1f94c93a7ebd3ef649662295e2c16bac6255fb93c4eb3135f87720a9c6b9098e52f4cf813e0930767)#3lhxfyvs",
            "hex": "4104cec69b1f71724bdde7e380aaaf7890509604d88cc74e9ea1f94c93a7ebd3ef649662295e2c16bac6255fb93c4eb3135f87720a9c6b9098e52f4cf813e0930767ac",
            "type": "pubkey"
          }
        }
      ],
      "hex": "01000000010000000000000000000000000000000000000000000000000000000000000000ffffffff0704ffff001d010bffffffff0100f2052a01000000434104cec69b1f71724bdde7e380aaaf7890509604d88cc74e9ea1f94c93a7ebd3ef649662295e2c16bac6255fb93c4eb3135f87720a9c6b9098e52f4cf813e0930767ac00000000"
    }
  ]
}