{
  "hash": "000000006f96e1687eeb496822e84b1934aa5f09362cc5fd2f20eefca1e77143",
  "confirmations": 49656,
  "height": 3442,
  "version": 1,
  "versionHex": "00000001",
  "merkleroot": "6545202c846dd29b07ada7edbe8a0e0b06c8cdb9d37d337b4bd72eba29f0a16a",
  "time": 1234067213,
  "mediantime": 1234064586,
  "nonce": 129096976,
  "bits": "1d00ffff",
  "difficulty": 1,
  "chainwork": "00000000000000000000000000000000000000000000000000000d730d730d73",
  "nTx": 1,
  "previousblockhash": "00000000d77100eeadaa69f6232358a6f7b79199108f84826848d49fad83482a",
  "nextblockhash": "0000000002d82d3e958363ae29b1a07bf3d8fbc4587540e590e7f15f3edabd81",
  "strippedsize": 215,
  "size": 215,
  "weight": 860,
  "tx": [
    {
      "txid": "6545202c846dd29b07ada7edbe8a0e0b06c8cdb9d37d337b4bd72eba29f0a16a",
      "hash": "6545202c846dd29b07ada7edbe8a0e0b06c8cdb9d37d337b4bd72eba29f0a16a",
      "version": 1,
      "size": 134,
      "vsize": 134,
      "weight": 536,
      "locktime": 0,
      "vin": [
        {
          "coinbase": "04ffff001d0160",
          "sequence": 4294967295
        }
      ],
      "vout": [
        {
          "value": 50.0,
          "n": 0,
          "scriptPubKey": {
            "asm": "047513b8acde8f486a1d25c248ae40dccb5c21287a41c41966a984b3f336726f9c380f8a616c12d70b640c29f6d080d7efb0a013cdf199b5a14dead3201abd83d8 OP_CHECKSIG",
            "desc": "pk(047513b8acde8f486a1d25c248ae40dccb5c21287a41c41966a984b3f336726f9c380f8a616c12d70b640c29f6d080d7efb0a013cdf199b5a14dead3201abd83d8)#c9xmhkqq",
            "hex": "41047513b8acde8f486a1d25c248ae40dccb5c21287a41c41966a984b3f336726f9c380f8a616c12d70b640c29f6d080d7efb0a013cdf199b5a14dead3201abd83d8ac",
            "type": "pubkey"
          }
        }
      ],
      "hex": "01000000010000000000000000000000000000000000000000000000000000000000000000ffffffff0704ffff001d0160ffffffff0100f2052a010000004341047513b8acde8f486a1d25c248ae40dccb5c21287a41c41966a984b3f336726f9c380f8a616c12d70b640c29f6d080d7efb0a013cdf199b5a14dead3201abd83d8ac00000000"
    }
  ]
}