{
  "hash": "00000000490b2e02c33bc577ca3feb0d8df1653663b6b4ec95a0e1723cce9f57",
  "confirmations": 49884,
  "height": 3214,
  "version": 1,
  "versionHex": "00000001",
  "merkleroot": "61b13d42bc693fbba043b7401f717077ff94e9362b698d577832e51c0dddae37",
  "time": 1233911507,
  "mediantime": 1233906655,
  "nonce": 1928371988,
  "bits": "1d00ffff",
  "difficulty": 1,
  "chainwork": "00000000000000000000000000000000000000000000000000000c8f0c8f0c8f",
  "nTx": 1,
  "previousblockhash": "00000000310b0b5dedec0105d997d31402b7828b6417d1a2673b9a86596a694d",
  "nextblockhash": "0000000048287f3247a279373967e982abe45d08edbea282691b2a5018261014",
  "strippedsize": 216,
  "size": 216,
  "weight": 864,
  "tx": [
    {
      "txid": "61b13d42bc693fbba043b7401f717077ff94e9362b698d577832e51c0dddae37",
      "hash": "61b13d42bc693fbba043b7401f717077ff94e9362b698d577832e51c0dddae37",
      "version": 1,
      "size": 135,
      "vsize": 135,
      "weight": 540,
      "locktime": 0,
      "vin": [
        {
          "coinbase": "04ffff001d02f502",
          "sequence": 4294967295
        }
      ],
      "vout": [
        {
          "value": 50.0,
          "n": 0,
          "scriptPubKey": {
            "asm": "04d9f8301e682247c1e6824c03ca9991b5500b7ecac936c1c4faaba574eb5ebabe97cc23c11072d08960b63d0535f02c53045033721bf1b5e7dc52015ee23e2674 OP_CHECKSIG",
            "desc": "pk(04d9f8301e682247c1e6824c03ca9991b5500b7ecac936c1c4faaba574eb5ebabe97cc23c11072d08960b63d0535f02c53045033721bf1b5e7dc52015ee23e2674)#mq54nsex",
            "hex": "4104d9f8301e682247c1e6824c03ca9991b5500b7ecac936c1c4faaba574eb5ebabe97cc23c11072d08960b63d0535f02c53045033721bf1b5e7dc52015ee23e2674ac",
            "type": "pubkey"
          }
        }
      ],
      "hex": "01000000010000000000000000000000000000000000000000000000000000000000000000ffffffff0804ffff001d02f502ffffffff0100f2052a01000000434104d9f8301e682247c1e6824c03ca9991b5500b7ecac936c1c4faaba574eb5ebabe97cc23c11072d08960b63d0535f02c53045033721bf1b5e7dc52015ee23e2674ac00000000"
    }
  ]
}