{
  "hash": "000000004919955232b3051edf5b8c09e46eb5b076b3168e1daefcebd2bf0a18",
  "confirmations": 50334,
  "height": 2764,
  "version": 1,
  "versionHex": "00000001",
  "merkleroot": "cca16903aad37820bc558d504e906ec21ea18a61213692dc74a383cfd5f14ace",
  "time": 1233604691,
  "mediantime": 1233602397,
  "nonce": 14376834,
  "bits": "1d00ffff",
  "difficulty": 1,
  "chainwork": "00000000000000000000000000000000000000000000000000000acd0acd0acd",
  "nTx": 1,
  "previousblockhash": "00000000ad6d78cf8038828aa515caf2518fcc5931a92bce753d3be459a8c7d3",
  "nextblockhash": "0000000071387bb155f1fba14338ad98fa1a78844a54f80495243096fb6194bd",
  "strippedsize": 216,
  "size": 216,
  "weight": 864,
  "tx": [
    {
      "txid": "cca16903aad37820bc558d504e906ec21ea18a61213692dc74a383cfd5f14ace",
      "hash": "cca16903aad37820bc558d504e906ec21ea18a61213692dc74a383cfd5f14ace",
      "version": 1,
      "size": 135,
      "vsize": 135,
      "weight": 540,
      "locktime": 0,
      "vin": [
        {
          "coinbase": "04ffff001d022303",
          "sequence": 4294967295
        }
      ],
      "vout": [
        {
          "value": 50.0,
          "n": 0,
          "scriptPubKey": {
            "asm": "0418b7c047302ee1b8bc82375699fd9285be0706355b4d5fbec14e3edbe36d7c07160003cd96b98d5579d2c196c5d7c9275947ffbac16c549879b2adf4ade9bfec OP_CHECKSIG",
            "desc": "pk(0418b7c047302ee1b8bc82375699fd9285be0706355b4d5fbec14e3edbe36d7c07160003cd96b98d5579d2c196c5d7c9275947ffbac16c549879b2adf4ade9bfec)#l3ygsm58",
            "hex": "410418b7c047302ee1b8bc82375699fd9285be0706355b4d5fbec14e3edbe36d7c07160003cd96b98d5579d2c196c5d7c9275947ffbac16c549879b2adf4ade9bfecac",
            "type": "pubkey"
          }
        }
      ],
      "hex": "01000000010000000000000000000000000000000000000000000000000000000000000000ffffffff0804ffff001d022303ffffffff0100f2052a0100000043410418b7c047302ee1b8bc82375699fd9285be0706355b4d5fbec14e3edbe36d7c07160003cd96b98d5579d2c196c5d7c9275947ffbac16c549879b2adf4ade9bfecac00000000"
    }
  ]
}