{
  "hash": "00000000efa65b37a20a3a6cc6d7c0c4416aec940ba165ce921dca422859ffbe",
  "confirmations": 46862,
  "height": 6236,
  "version": 1,
  "versionHex": "00000001",
  "merkleroot": "ef045ba1e496b150002e50ac413a4be8ddc20c97e072fb7f9ddc24774ee6376b",
  "time": 1236121578,
  "mediantime": 1236116866,
  "nonce": 2046745605,
  "bits": "1d00ffff",
  "difficulty": 1,
  "chainwork": "0000000000000000000000000000000000000000000000000000185d185d185d",
  "nTx": 1,
  "previousblockhash": "000000004e86c580872ef7535517035c34868e9c6e516cdac80b5d269ab0b3bf",
  "nextblockhash": "000000002d7648884f84ea6960f99a08bc8aa07a714a4099fa23cf66d166b28f",
  "strippedsize": 216,
  "size": 216,
  "weight": 864,
  "tx": [
    {
      "txid": "ef045ba1e496b150002e50ac413a4be8ddc20c97e072fb7f9ddc24774ee6376b",
      "hash": "ef045ba1e496b150002e50ac413a4be8ddc20c97e072fb7f9ddc24774ee6376b",
      "version": 1,
      "size": 135,
      "vsize": 135,
      "weight": 540,
      "locktime": 0,
      "vin": [
        {
          "coinbase": "04ffff001d023b09",
          "sequence": 4294967295
        }
      ],
      "vout": [
        {
          "value": 50.0,
          "n": 0,
          "scriptPubKey": {
            "asm": "04528b9618dca5b1bdd7aac4e96d594a62a92565f97f2a01d41d77d31d20d3a77fb4c072113dc71c3412a158cdf2b94a54bb5d51c6c7aa7396e27c44519f82adce OP_CHECKSIG",
            "desc": "pk(04528b9618dca5b1bdd7aac4e96d594a62a92565f97f2a01d41d77d31d20d3a77fb4c072113dc71c3412a158cdf2b94a54bb5d51c6c7aa7396e27c44519f82adce)#2g8wu59e",
            "hex": "4104528b9618dca5b1bdd7aac4e96d594a62a92565f97f2a01d41d77d31d20d3a77fb4c072113dc71c3412a158cdf2b94a54bb5d51c6c7aa7396e27c44519f82adceac",
            "type": "pubkey"
          }
        }
      ],
      "hex": "01000000010000000000000000000000000000000000000000000000000000000000000000ffffffff0804ffff001d023b09ffffffff0100f2052a01000000434104528b9618dca5b1bdd7aac4e96d594a62a92565f97f2a01d41d77d31d20d3a77fb4c072113dc71c3412a158cdf2b94a54bb5d51c6c7aa7396e27c44519f82adceac00000000"
    }
  ]
}