{
  "hash": "000000009e51da9980dc4f98be36c65abd497fcb009cdfa488467c2f6152805c",
  "confirmations": 51030,
  "height": 2068,
  "version": 1,
  "versionHex": "00000001",
  "merkleroot": "3af01de58515b7ded1e76aa6785ebc2356b7b6e61d6861c942b1e67fa343f5b9",
  "time": 1233113945,
  "mediantime": 1233107385,
  "nonce": 1403541269,
  "bits": "1d00ffff",
  "difficulty": 1,
  "chainwork": "0000000000000000000000000000000000000000000000000000081508150815",
  "nTx": 1,
  "previousblockhash": "00000000eb952510b6fe05aa6a0fd7730e49ea18d051be315e50f1007f200829",
  "nextblockhash": "00000000ea79bc139ea90db3446daa3cbdcd1a4bac1fdc191743dbae3633368d",
  "strippedsize": 216,
  "size": 216,
  "weight": 864,
  "tx": [
    {
      "txid": "3af01de58515b7ded1e76aa6785ebc2356b7b6e61d6861c942b1e67fa343f5b9",
      "hash": "3af01de58515b7ded1e76aa6785ebc2356b7b6e61d6861c942b1e67fa343f5b9",
      "version": 1,
      "size": 135,
      "vsize": 135,
      "weight": 540,
      "locktime": 0,
      "vin": [
        {
          "coinbase": "04ffff001d023003",
          "sequence": 4294967295
        }
      ],
      "vout": [
        {
          "value": 50.0,
          "n": 0,
          "scriptPubKey": {
            "asm": "04e6fa62d3fceaf242e47db1ae1165edc055bf07605036bfaef29bdf1165d89d207fa597facc2d91b1b41435d52eb8aa2dcfe7eae62839f38a4a93f600e7c4b607 OP_CHECKSIG",
            "desc": "pk(04e6fa62d3fceaf242e47db1ae1165edc055bf07605036bfaef29bdf1165d89d207fa597facc2d91b1b41435d52eb8aa2dcfe7eae62839f38a4a93f600e7c4b607)#k7wu3hjy",
            "hex": "4104e6fa62d3fceaf242e47db1ae1165edc055bf07605036bfaef29bdf1165d89d207fa597facc2d91b1b41435d52eb8aa2dcfe7eae62839f38a4a93f600e7c4b607ac",
            "type": "pubkey"
          }
        }
      ],
      "hex": "01000000010000000000000000000000000000000000000000000000000000000000000000ffffffff0804ffff001d023003ffffffff0100f2052a01000000434104e6fa62d3fceaf242e47db1ae1165edc055bf07605036bfaef29bdf1165d89d207fa597facc2d91b1b41435d52eb8aa2dcfe7eae62839f38a4a93f600e7c4b607ac00000000"
    }
  ]
}