{
  "hash": "00000000e8bcaa99f456be9f35e6a9ea7d4b4712367871a9158d417e0083c311",
  "confirmations": 47951,
  "height": 5147,
  "version": 1,
  "versionHex": "00000001",
  "merkleroot": "2411ca6bf8540eef3678a32162e286591b492f1aa8ceeec2c6744ab4522b1ead",
  "time": 1235250889,
  "mediantime": 1235245943,
  "nonce": 469694005,
  "bits": "1d00ffff",
  "difficulty": 1,
  "chainwork": "0000000000000000000000000000000000000000000000000000141c141c141c",
  "nTx": 1,
  "previousblockhash": "00000000083cf16b38d138788e5dc77616141d29366d1acd23447e72d31bec08",
  "nextblockhash": "000000009713cdd4b0b1e88ba44fdcb0e9baae9ba534cd4d1689121a0d3934e8",
  "strippedsize": 216,
  "size": 216,
  "weight": 864,
  "tx": [
    {
      "txid": "2411ca6bf8540eef3678a32162e286591b492f1aa8ceeec2c6744ab4522b1ead",
      "hash": "2411ca6bf8540eef3678a32162e286591b492f1aa8ceeec2c6744ab4522b1ead",
      "version": 1,
      "size": 135,
      "vsize": 135,
      "weight": 540,
      "locktime": 0,
      "vin": [
        {
          "coinbase": "04ffff001d02d209",
          "sequence": 4294967295
        }
      ],
      "vout": [
        {
          "value": 50.0,
          "n": 0,
          "scriptPubKey": {
            "asm": "04aa4f457e069b89d05e33679717abefde0facfa1c215321494735b6a258dbbd66238d53e5e327d49aaa5baf15e38dde449db72ef7f739dcd943622b7fe9233cdf OP_CHECKSIG",
            "desc": "pk(04aa4f457e069b89d05e33679717abefde0facfa1c215321494735b6a258dbbd66238d53e5e327d49aaa5baf15e38dde449db72ef7f739dcd943622b7fe9233cdf)#arja4r5n",
            "hex": "4104aa4f457e069b89d05e33679717abefde0facfa1c215321494735b6a258dbbd66238d53e5e327d49aaa5baf15e38dde449db72ef7f739dcd943622b7fe9233cdfac",
            "type": "pubkey"
          }
        }
      ],
      "hex": "01000000010000000000000000000000000000000000000000000000000000000000000000ffffffff0804ffff001d02d209ffffffff0100f2052a01000000434104aa4f457e069b89d05e33679717abefde0facfa1c215321494735b6a258dbbd66238d53e5e327d49aaa5baf15e38dde449db72ef7f739dcd943622b7fe9233cdfac00000000"
    }
  ]
}