{
  "hash": "0000000042ac8da50c65a15238747d1a4f7b3e95dda0ba068d5518d3a941a25a",
  "confirmations": 43215,
  "height": 9883,
  "version": 1,
  "versionHex": "00000001",
  "merkleroot": "5e40c9676f7a15337b7ecae4b7bd9f48a675575f1e896b2f1f5935fd8e4a3379",
  "time": 1238914222,
  "mediantime": 1238910586,
  "nonce": 1457879608,
  "bits": "1d00ffff",
  "difficulty": 1,
  "chainwork": "0000000000000000000000000000000000000000000000000000269c269c269c",
  "nTx": 1,
  "previousblockhash": "000000002feb2d6954b845d99c1453a0f157eada14f663cabc96138c1a2faa6e",
  "nextblockhash": "000000007446ffb52462e68259ace3ae9e7e3ccbbbe5ce2c89c5a76e2fe1861c",
  "strippedsize": 216,
  "size": 216,
  "weight": 864,
  "tx": [
    {
      "txid": "5e40c9676f7a15337b7ecae4b7bd9f48a675575f1e896b2f1f5935fd8e4a3379",
      "hash": "5e40c9676f7a15337b7ecae4b7bd9f48a675575f1e896b2f1f5935fd8e4a3379",
      "version": 1,
      "size": 135,
      "vsize": 135,
      "weight": 540,
      "locktime": 0,
      "vin": [
        {
          "coinbase": "04ffff001d02cf01",
          "sequence": 4294967295
        }
      ],
      "vout": [
        {
          "value": 50.0,
          "n": 0,
          "scriptPubKey": {
            "asm": "0492942c7fc55b85f03a0293129b50465ee25b1636b163c9194df22f1cafd71d8ab46dc5f3232dd4e9e65256b58a16a6deee18a271e32b06ae7b88ea0bddc59ba8 OP_CHECKSIG",
            "desc": "pk(0492942c7fc55b85f03a0293129b50465ee25b1636b163c9194df22f1cafd71d8ab46dc5f3232dd4e9e65256b58a16a6deee18a271e32b06ae7b88ea0bddc59ba8)#0gymrre4",
            "hex": "410492942c7fc55b85f03a0293129b50465ee25b1636b163c9194df22f1cafd71d8ab46dc5f3232dd4e9e65256b58a16a6deee18a271e32b06ae7b88ea0bddc59ba8ac",
            "type": "pubkey"
          }
        }
      ],
      "hex": "01000000010000000000000000000000000000000000000000000000000000000000000000ffffffff0804ffff001d02cf01ffffffff0100f2052a0100000043410492942c7fc55b85f03a0293129b50465ee25b1636b163c9194df22f1cafd71d8ab46dc5f3232dd4e9e65256b58a16a6deee18a271e32b06ae7b88ea0bddc59ba8ac00000000"
    }
  ]
}