{
  "hash": "00000000ae162df19a3451cefa33bc09a4a91b53e9bf103d57386158b798c71a",
  "confirmations": 52200,
  "height": 421,
  "version": 1,
  "versionHex": "00000001",
  "merkleroot": "9534526df583cf138e928ac6abab7a5b756eb7b9f143b2763c635db600626bed",
  "time": 1231915415,
  "mediantime": 1231912942,
  "nonce": 120767577,
  "bits": "1d00ffff",
  "difficulty": 1,
  "chainwork": "000000000000000000000000000000000000000000000000000001a601a601a6",
  "nTx": 1,
  "previousblockhash": "000000006a906fbef861f23ce8ff5fae146675508fa5ec64817db5c81be04019",
  "nextblockhash": "00000000e5712502949a46acaddb05b85428ea87f6756c67f6e99d4ee8ecb274",
  "strippedsize": 215,
  "size": 215,
  "weight": 860,
  "tx": [
    {
      "txid": "9534526df583cf138e928ac6abab7a5b756eb7b9f143b2763c635db600626bed",
      "hash": "9534526df583cf138e928ac6abab7a5b756eb7b9f143b2763c635db600626bed",
      "version": 1,
      "size": 134,
      "vsize": 134,
      "weight": 536,
      "locktime": 0,
      "vin": [
        {
          "coinbase": "04ffff001d012b",
          "sequence": 4294967295
        }
      ],
      "vout": [
        {
          "value": 50.0,
          "n": 0,
          "scriptPubKey": {
            "asm": "04c60c7b517ea9af71acdbb91123c646fc99dd6d21c5b3e9381a9619645a3a7ced3dde093a962862fce41dc86267606decc0aad3e53a25d64341182dfdcb8ac697 OP_CHECKSIG",
            "desc": "pk(04c60c7b517ea9af71acdbb91123c646fc99dd6d21c5b3e9381a9619645a3a7ced3dde093a962862fce41dc86267606decc0aad3e53a25d64341182dfdcb8ac697)#kjf2r0rw",
            "hex": "4104c60c7b517ea9af71acdbb91123c646fc99dd6d21c5b3e9381a9619645a3a7ced3dde093a962862fce41dc86267606decc0aad3e53a25d64341182dfdcb8ac697ac",
            "type": "pubkey"
          }
        }
      ],
      "hex": "01000000010000000000000000000000000000000000000000000000000000000000000000ffffffff0704ffff001d012bffffffff0100f2052a01000000434104c60c7b517ea9af71acdbb91123c646fc99dd6d21c5b3e9381a9619645a3a7ced3dde093a962862fce41dc86267606decc0aad3e53a25d64341182dfdcb8ac697ac00000000"
    }
  ]
}