{
  "hash": "00000000906ec21d7b5c22f724f955212463b7275ed4f209ca44a6c235854202",
  "confirmations": 48081,
  "height": 5017,
  "version": 1,
  "versionHex": "00000001",
  "merkleroot": "3b88a60cdf2d19ffccaac7d2551dc015d7092fd3446dfa9edebf5ecfab0cb3b6",
  "time": 1235148109,
  "mediantime": 1235144239,
  "nonce": 993065245,
  "bits": "1d00ffff",
  "difficulty": 1,
  "chainwork": "0000000000000000000000000000000000000000000000000000139a139a139a",
  "nTx": 1,
  "previousblockhash": "00000000dcef08d7694a92a9cbb2b90a4e66dc9299df51d7296aed972af369c3",
  "nextblockhash": "00000000f84617ccb4e4f069cbcf641f4fbef59b43583bd0021fc85845f7d74e",
  "strippedsize": 216,
  "size": 216,
  "weight": 864,
  "tx": [
    {
      "txid": "3b88a60cdf2d19ffccaac7d2551dc015d7092fd3446dfa9edebf5ecfab0cb3b6",
      "hash": "3b88a60cdf2d19ffccaac7d2551dc015d7092fd3446dfa9edebf5ecfab0cb3b6",
      "version": 1,
      "size": 135,
      "vsize": 135,
      "weight": 540,
      "locktime": 0,
      "vin": [
        {
          "coinbase": "04ffff001d023b07",
          "sequence": 4294967295
        }
      ],
      "vout": [
        {
          "value": 50.0,
          "n": 0,
          "scriptPubKey": {
            "asm": "04713604b66c0dbc019132d7f7393b4d4ecb1de761032d9e2a01e6ddbbe9a2f1739d382b9643e479d50f33a3b73e16d7a27176c31a3ebfe5759ff72c3b61be3597 OP_CHECKSIG",
            "desc": "pk(04713604b66c0dbc019132d7f7393b4d4ecb1de761032d9e2a01e6ddbbe9a2f1739d382b9643e479d50f33a3b73e16d7a27176c31a3ebfe5759ff72c3b61be3597)#prgl72dx",
            "hex": "4104713604b66c0dbc019132d7f7393b4d4ecb1de761032d9e2a01e6ddbbe9a2f1739d382b9643e479d50f33a3b73e16d7a27176c31a3ebfe5759ff72c3b61be3597ac",
            "type": "pubkey"
          }
        }
      ],
      "hex": "01000000010000000000000000000000000000000000000000000000000000000000000000ffffffff0804ffff001d023b07ffffffff0100f2052a01000000434104713604b66c0dbc019132d7f7393b4d4ecb1de761032d9e2a01e6ddbbe9a2f1739d382b9643e479d50f33a3b73e16d7a27176c31a3ebfe5759ff72c3b61be3597ac00000000"
    }
  ]
}