{
  "hash": "000000006ba2b4486646bee1b816212f2f33a30ab89cc2bffc5834d9462e908c",
  "confirmations": 43251,
  "height": 9847,
  "version": 1,
  "versionHex": "00000001",
  "merkleroot": "2a6500c4eec4847963c576168b614262a37e2bd915b34ff6d0cd12179118696b",
  "time": 1238889104,
  "mediantime": 1238885764,
  "nonce": 4140331796,
  "bits": "1d00ffff",
  "difficulty": 1,
  "chainwork": "0000000000000000000000000000000000000000000000000000267826782678",
  "nTx": 1,
  "previousblockhash": "000000004bde83b5eb086c3a4e8b85e09f743e5eb80b07f0a9df6047fa3a338b",
  "nextblockhash": "0000000049e4e63584aaa79329d2c5dced7f0fa952a324a9af99e66841f9a10f",
  "strippedsize": 216,
  "size": 216,
  "weight": 864,
  "tx": [
    {
      "txid": "2a6500c4eec4847963c576168b614262a37e2bd915b34ff6d0cd12179118696b",
      "hash": "2a6500c4eec4847963c576168b614262a37e2bd915b34ff6d0cd12179118696b",
      "version": 1,
      "size": 135,
      "vsize": 135,
      "weight": 540,
      "locktime": 0,
      "vin": [
        {
          "coinbase": "04ffff001d023301",
          "sequence": 4294967295
        }
      ],
      "vout": [
        {
          "value": 50.0,
          "n": 0,
          "scriptPubKey": {
            "asm": "04e83a132799af4b34a9b87574ee46bab20590c555b02dfc6628057bf29ba261e8b2777a504bf4640ca8f271388e27e511d67b71f948174dd35b056ed3b4ea070e OP_CHECKSIG",
            "desc": "pk(04e83a132799af4b34a9b87574ee46bab20590c555b02dfc6628057bf29ba261e8b2777a504bf4640ca8f271388e27e511d67b71f948174dd35b056ed3b4ea070e)#qpw8lve0",
            "hex": "4104e83a132799af4b34a9b87574ee46bab20590c555b02dfc6628057bf29ba261e8b2777a504bf4640ca8f271388e27e511d67b71f948174dd35b056ed3b4ea070eac",
            "type": "pubkey"
          }
        }
      ],
      "hex": "01000000010000000000000000000000000000000000000000000000000000000000000000ffffffff0804ffff001d023301ffffffff0100f2052a01000000434104e83a132799af4b34a9b87574ee46bab20590c555b02dfc6628057bf29ba261e8b2777a504bf4640ca8f271388e27e511d67b71f948174dd35b056ed3b4ea070eac00000000"
    }
  ]
}