{
  "hash": "00000000887a8d2a257aaf81dddc1c8293b269fd7d80ce10579d78d1e5c8c982",
  "confirmations": 45151,
  "height": 7947,
  "version": 1,
  "versionHex": "00000001",
  "merkleroot": "61d21a9a89db537b479f52d164b43874f6f8e8ada8a94e00451c7bf652122264",
  "time": 1237424491,
  "mediantime": 1237422088,
  "nonce": 521639454,
  "bits": "1d00ffff",
  "difficulty": 1,
  "chainwork": "00000000000000000000000000000000000000000000000000001f0c1f0c1f0c",
  "nTx": 1,
  "previousblockhash": "000000002fa17e8f97fb9326f280738df4769e7e125b8262d0e07ce1bd43df3a",
  "nextblockhash": "00000000fa9da87d8db2bcef5be8a9de7eaaf976a516541fb1bce79d4b9091e9",
  "strippedsize": 216,
  "size": 216,
  "weight": 864,
  "tx": [
    {
      "txid": "61d21a9a89db537b479f52d164b43874f6f8e8ada8a94e00451c7bf652122264",
      "hash": "61d21a9a89db537b479f52d164b43874f6f8e8ada8a94e00451c7bf652122264",
      "version": 1,
      "size": 135,
      "vsize": 135,
      "weight": 540,
      "locktime": 0,
      "vin": [
        {
          "coinbase": "04ffff001d026708",
          "sequence": 4294967295
        }
      ],
      "vout": [
        {
          "value": 50.0,
          "n": 0,
          "scriptPubKey": {
            "asm": "044638e197176d2d959eec9a5f4448ddd5d9b2d9c64a4279d00ff03a5d1e43062cf81fbbabc64462e7ed7adf55189f50db0307c206951923307eb0ce0613a237fd OP_CHECKSIG",
            "desc": "pk(044638e197176d2d959eec9a5f4448ddd5d9b2d9c64a4279d00ff03a5d1e43062cf81fbbabc64462e7ed7adf55189f50db0307c206951923307eb0ce0613a237fd)#3l44pe25",
            "hex": "41044638e197176d2d959eec9a5f4448ddd5d9b2d9c64a4279d00ff03a5d1e43062cf81fbbabc64462e7ed7adf55189f50db0307c206951923307eb0ce0613a237fdac",
            "type": "pubkey"
          }
        }
      ],
      "hex": "01000000010000000000000000000000000000000000000000000000000000000000000000ffffffff0804ffff001d026708ffffffff0100f2052a010000004341044638e197176d2d959eec9a5f4448ddd5d9b2d9c64a4279d00ff03a5d1e43062cf81fbbabc64462e7ed7adf55189f50db0307c206951923307eb0ce0613a237fdac00000000"
    }
  ]
}