{
  "hash": "00000000d51042239d9dbfe214a29c85f0e17ad84a1ff55f2194b545f3c4be4a",
  "confirmations": 49756,
  "height": 3342,
  "version": 1,
  "versionHex": "00000001",
  "merkleroot": "d8f4dc81411af2c15e5ababf2f702b4977d7c735ddee959185e45b4ad274c6eb",
  "time": 1233997155,
  "mediantime": 1233991463,
  "nonce": 1784441123,
  "bits": "1d00ffff",
  "difficulty": 1,
  "chainwork": "00000000000000000000000000000000000000000000000000000d0f0d0f0d0f",
  "nTx": 1,
  "previousblockhash": "000000005f769a80286a09a6c2e630dd437442fdfd877e0076a6b077a6e1567b",
  "nextblockhash": "0000000010c70a34bfdf218dde3594d574bed31483c28c954fd140b41037743c",
  "strippedsize": 216,
  "size": 216,
  "weight": 864,
  "tx": [
    {
      "txid": "d8f4dc81411af2c15e5ababf2f702b4977d7c735ddee959185e45b4ad274c6eb",
      "hash": "d8f4dc81411af2c15e5ababf2f702b4977d7c735ddee959185e45b4ad274c6eb",
      "version": 1,
      "size": 135,
      "vsize": 135,
      "weight": 540,
      "locktime": 0,
      "vin": [
        {
          "coinbase": "04ffff001d02f804",
          "sequence": 4294967295
        }
      ],
      "vout": [
        {
          "value": 50.0,
          "n": 0,
          "scriptPubKey": {
            "asm": "0479e8c42908dd27e3ea1f59c9925a1e2bc6b8c75b88fb6e3fad89b80dd54b8c538e84678db5be93619e938b188b7e10a9ed5279e02b730629ed70d155bc8eec83 OP_CHECKSIG",
            "desc": "pk(0479e8c42908dd27e3ea1f59c9925a1e2bc6b8c75b88fb6e3fad89b80dd54b8c538e84678db5be93619e938b188b7e10a9ed5279e02b730629ed70d155bc8eec83)#vf62w3vw",
            "hex": "410479e8c42908dd27e3ea1f59c9925a1e2bc6b8c75b88fb6e3fad89b80dd54b8c538e84678db5be93619e938b188b7e10a9ed5279e02b730629ed70d155bc8eec83ac",
            "type": "pubkey"
          }
        }
      ],
      "hex": "01000000010000000000000000000000000000000000000000000000000000000000000000ffffffff0804ffff001d02f804ffffffff0100f2052a0100000043410479e8c42908dd27e3ea1f59c9925a1e2bc6b8c75b88fb6e3fad89b80dd54b8c538e84678db5be93619e938b188b7e10a9ed5279e02b730629ed70d155bc8eec83ac00000000"
    }
  ]
}