{
  "hash": "0000000024c190f46c9ea20d9b6c4c35b0c3638d18f639dffa3815b80d779dc7",
  "confirmations": 46381,
  "height": 6717,
  "version": 1,
  "versionHex": "00000001",
  "merkleroot": "e8a2e681d28c4a713acd579f479e5f381edf7eca94aa004aefc4ac1ae8695a6f",
  "time": 1236495084,
  "mediantime": 1236491531,
  "nonce": 1979984684,
  "bits": "1d00ffff",
  "difficulty": 1,
  "chainwork": "00000000000000000000000000000000000000000000000000001a3e1a3e1a3e",
  "nTx": 1,
  "previousblockhash": "00000000e806613a9ad88f4daf04431d66908f54575276d4759bb378d28bf29b",
  "nextblockhash": "00000000d9e38de1dd2a732270a11a7df79978b7aabd7ac205980576b07420c1",
  "strippedsize": 216,
  "size": 216,
  "weight": 864,
  "tx": [
    {
      "txid": "e8a2e681d28c4a713acd579f479e5f381edf7eca94aa004aefc4ac1ae8695a6f",
      "hash": "e8a2e681d28c4a713acd579f479e5f381edf7eca94aa004aefc4ac1ae8695a6f",
      "version": 1,
      "size": 135,
      "vsize": 135,
      "weight": 540,
      "locktime": 0,
      "vin": [
        {
          "coinbase": "04ffff001d025107",
          "sequence": 4294967295
        }
      ],
      "vout": [
        {
          "value": 50.0,
          "n": 0,
          "scriptPubKey": {
            "asm": "04ee043c0cda67013e4a73b34f53151fbe38810247d29a41e9a613e9417a5b547ac2f90999a1b649f55af2e6784b82a6578cb0596b12341ae3019ba344cd0a043a OP_CHECKSIG",
            "desc": "pk(04ee043c0cda67013e4a73b34f53151fbe38810247d29a41e9a613e9417a5b547ac2f90999a1b649f55af2e6784b82a6578cb0596b12341ae3019ba344cd0a043a)#ywuysp0e",
            "hex": "4104ee043c0cda67013e4a73b34f53151fbe38810247d29a41e9a613e9417a5b547ac2f90999a1b649f55af2e6784b82a6578cb0596b12341ae3019ba344cd0a043aac",
            "type": "pubkey"
          }
        }
      ],
      "hex": "01000000010000000000000000000000000000000000000000000000000000000000000000ffffffff0804ffff001d025107ffffffff0100f2052a01000000434104ee043c0cda67013e4a73b34f53151fbe38810247d29a41e9a613e9417a5b547ac2f90999a1b649f55af2e6784b82a6578cb0596b12341ae3019ba344cd0a043aac00000000"
    }
  ]
}