{
  "hash": "000000005a4e2652c424379e180ba98a3e6ebec92df5f25c4307e663302808ef",
  "confirmations": 51001,
  "height": 2097,
  "version": 1,
  "versionHex": "00000001",
  "merkleroot": "49e2f7be0350a4f16701cd29f3156d83ef2a0b5efea4c53238b26ae1653019bf",
  "time": 1233135169,
  "mediantime": 1233131690,
  "nonce": 1801524537,
  "bits": "1d00ffff",
  "difficulty": 1,
  "chainwork": "0000000000000000000000000000000000000000000000000000083208320832",
  "nTx": 1,
  "previousblockhash": "00000000613a98b6b1ff823ae8af5b1613f436e1b1ef62744ae39df6c62d7b0c",
  "nextblockhash": "000000005a9189f917643e93a3fc11775592586079ab775db9e5e06c6f7861d9",
  "strippedsize": 216,
  "size": 216,
  "weight": 864,
  "tx": [
    {
      "txid": "49e2f7be0350a4f16701cd29f3156d83ef2a0b5efea4c53238b26ae1653019bf",
      "hash": "49e2f7be0350a4f16701cd29f3156d83ef2a0b5efea4c53238b26ae1653019bf",
      "version": 1,
      "size": 135,
      "vsize": 135,
      "weight": 540,
      "locktime": 0,
      "vin": [
        {
          "coinbase": "04ffff001d029b03",
          "sequence": 4294967295
        }
      ],
      "vout": [
        {
          "value": 50.0,
          "n": 0,
          "scriptPubKey": {
            "asm": "048f12e4c4e200ca63b67067641fef8faafaec7fc1944972d5deb9aa68766ef01cb388a6b67a9e1e2b01837f356a6fbdd45b05518d2a11efdaa4e2695bfaa3439f OP_CHECKSIG",
            "desc": "pk(048f12e4c4e200ca63b67067641fef8faafaec7fc1944972d5deb9aa68766ef01cb388a6b67a9e1e2b01837f356a6fbdd45b05518d2a11efdaa4e2695bfaa3439f)#fqjx9fd7",
            "hex": "41048f12e4c4e200ca63b67067641fef8faafaec7fc1944972d5deb9aa68766ef01cb388a6b67a9e1e2b01837f356a6fbdd45b05518d2a11efdaa4e2695bfaa3439fac",
            "type": "pubkey"
          }
        }
      ],
      "hex": "01000000010000000000000000000000000000000000000000000000000000000000000000ffffffff0804ffff001d029b03ffffffff0100f2052a010000004341048f12e4c4e200ca63b67067641fef8faafaec7fc1944972d5deb9aa68766ef01cb388a6b67a9e1e2b01837f356a6fbdd45b05518d2a11efdaa4e2695bfaa3439fac00000000"
    }
  ]
}