{
  "hash": "000000004d965280cf9e134acc9df0a18fd562b77500255d9b12f15d98095ab0",
  "confirmations": 47441,
  "height": 5657,
  "version": 1,
  "versionHex": "00000001",
  "merkleroot": "cb83684d67619ae3b3066d70b0fb86f1dfd6a57b1f32e44a8b9b9e5f1f4ece78",
  "time": 1235654910,
  "mediantime": 1235649750,
  "nonce": 1311055363,
  "bits": "1d00ffff",
  "difficulty": 1,
  "chainwork": "0000000000000000000000000000000000000000000000000000161a161a161a",
  "nTx": 1,
  "previousblockhash": "00000000949a6879f9658d4de693f9a393e6add7e383425fb1148fd288c51200",
  "nextblockhash": "000000004d05f98e9de57d05c6412fc92d24bc1107a636b3d0e4b6cb33599260",
  "strippedsize": 216,
  "size": 216,
  "weight": 864,
  "tx": [
    {
      "txid": "cb83684d67619ae3b3066d70b0fb86f1dfd6a57b1f32e44a8b9b9e5f1f4ece78",
      "hash": "cb83684d67619ae3b3066d70b0fb86f1dfd6a57b1f32e44a8b9b9e5f1f4ece78",
      "version": 1,
      "size": 135,
      "vsize": 135,
      "weight": 540,
      "locktime": 0,
      "vin": [
        {
          "coinbase": "04ffff001d02ce08",
          "sequence": 4294967295
        }
      ],
      "vout": [
        {
          "value": 50.0,
          "n": 0,
          "scriptPubKey": {
            "asm": "0478a891f8b7bbc1338fc90f421adbbb9d5fd970250dd93aab3d89afc56f928cb3cbc190fa5f940e7ab40e08fe22dcf2de2bd84c8e0f2f703d3567f7c4c36345c3 OP_CHECKSIG",
            "desc": "pk(0478a891f8b7bbc1338fc90f421adbbb9d5fd970250dd93aab3d89afc56f928cb3cbc190fa5f940e7ab40e08fe22dcf2de2bd84c8e0f2f703d3567f7c4c36345c3)#64whffq6",
            "hex": "410478a891f8b7bbc1338fc90f421adbbb9d5fd970250dd93aab3d89afc56f928cb3cbc190fa5f940e7ab40e08fe22dcf2de2bd84c8e0f2f703d3567f7c4c36345c3ac",
            "type": "pubkey"
          }
        }
      ],
      "hex": "01000000010000000000000000000000000000000000000000000000000000000000000000ffffffff0804ffff001d02ce08ffffffff0100f2052a0100000043410478a891f8b7bbc1338fc90f421adbbb9d5fd970250dd93aab3d89afc56f928cb3cbc190fa5f940e7ab40e08fe22dcf2de2bd84c8e0f2f703d3567f7c4c36345c3ac00000000"
    }
  ]
}