{
  "hash": "00000000eaa3b87c3687480c0edb465b00e8dcab7f0c2ef10fe5b11a1756b16d",
  "confirmations": 52559,
  "height": 539,
  "version": 1,
  "versionHex": "00000001",
  "merkleroot": "40a6e22c4aad609b30e35b4dab23c7aad1b8e8b52e9e409b281c774d1ebeb689",
  "time": 1231994794,
  "mediantime": 1231991091,
  "nonce": 3710850821,
  "bits": "1d00ffff",
  "difficulty": 1,
  "chainwork": "0000000000000000000000000000000000000000000000000000021c021c021c",
  "nTx": 1,
  "previousblockhash": "00000000169808a15adcbb7c4f5c8b5d61ef69764a68f2fffd882d92e39fc2af",
  "nextblockhash": "000000001958fb614e3eed2ab35305fa89a8b8db9bb5fd2575aa08fc0a06b84f",
  "strippedsize": 216,
  "size": 216,
  "weight": 864,
  "tx": [
    {
      "txid": "40a6e22c4aad609b30e35b4dab23c7aad1b8e8b52e9e409b281c774d1ebeb689",
      "hash": "40a6e22c4aad609b30e35b4dab23c7aad1b8e8b52e9e409b281c774d1ebeb689",
      "version": 1,
      "size": 135,
      "vsize": 135,
      "weight": 540,
      "locktime": 0,
      "vin": [
        {
          "coinbase": "04ffff001d026705",
          "sequence": 4294967295
        }
      ],
      "vout": [
        {
          "value": 50.0,
          "n": 0,
          "scriptPubKey": {
            "asm": "0468814e34366ca55d7da28c488bebb6165660ea8414025a16ed2c474ec1378e384102de2c53e686259fdedc07271f0e454f86fb365e014a6e541d0eaa19abe2ad OP_CHECKSIG",
            "desc": "pk(0468814e34366ca55d7da28c488bebb6165660ea8414025a16ed2c474ec1378e384102de2c53e686259fdedc07271f0e454f86fb365e014a6e541d0eaa19abe2ad)#gtk2d440",
            "hex": "410468814e34366ca55d7da28c488bebb6165660ea8414025a16ed2c474ec1378e384102de2c53e686259fdedc07271f0e454f86fb365e014a6e541d0eaa19abe2adac",
            "type": "pubkey"
          }
        }
      ],
      "hex": "01000000010000000000000000000000000000000000000000000000000000000000000000ffffffff0804ffff001d026705ffffffff0100f2052a0100000043410468814e34366ca55d7da28c488bebb6165660ea8414025a16ed2c474ec1378e384102de2c53e686259fdedc07271f0e454f86fb365e014a6e541d0eaa19abe2adac00000000"
    }
  ]
}