{
  "hash": "00000000aa9f9c565876fbbb0652950b6e556df7b7e3e6936862d0d254373a34",
  "confirmations": 46404,
  "height": 6694,
  "version": 1,
  "versionHex": "00000001",
  "merkleroot": "cb49edb39de24488fd4fd857f0a228845d5bfc727aee046af12dcbd8a534e8dc",
  "time": 1236478580,
  "mediantime": 1236475314,
  "nonce": 2447000602,
  "bits": "1d00ffff",
  "difficulty": 1,
  "chainwork": "00000000000000000000000000000000000000000000000000001a271a271a27",
  "nTx": 1,
  "previousblockhash": "000000008bc90e56b5bee69295294ec719dd3fc4813aec427afdc1c954c2a1ad",
  "nextblockhash": "000000002ac77db998bfea6d804aae7c3c75566561aec4d38a9162618064286e",
  "strippedsize": 216,
  "size": 216,
  "weight": 864,
  "tx": [
    {
      "txid": "cb49edb39de24488fd4fd857f0a228845d5bfc727aee046af12dcbd8a534e8dc",
      "hash": "cb49edb39de24488fd4fd857f0a228845d5bfc727aee046af12dcbd8a534e8dc",
      "version": 1,
      "size": 135,
      "vsize": 135,
      "weight": 540,
      "locktime": 0,
      "vin": [
        {
          "coinbase": "04ffff001d02d006",
          "sequence": 4294967295
        }
      ],
      "vout": [
        {
          "value": 50.0,
          "n": 0,
          "scriptPubKey": {
            "asm": "04431722c6e514582e031906a3ff55ac93c1756e0f12c9136b40a54f598cf9a4532fffd22e52e225f761ee7a188a3eeb6f3860cec93e17fee8ded6c1b4cad966ee OP_CHECKSIG",
            "desc": "pk(04431722c6e514582e031906a3ff55ac93c1756e0f12c9136b40a54f598cf9a4532fffd22e52e225f761ee7a188a3eeb6f3860cec93e17fee8ded6c1b4cad966ee)#2ujnh4zq",
            "hex": "4104431722c6e514582e031906a3ff55ac93c1756e0f12c9136b40a54f598cf9a4532fffd22e52e225f761ee7a188a3eeb6f3860cec93e17fee8ded6c1b4cad966eeac",
            "type": "pubkey"
          }
        }
      ],
      "hex": "01000000010000000000000000000000000000000000000000000000000000000000000000ffffffff0804ffff001d02d006ffffffff0100f2052a01000000434104431722c6e514582e031906a3ff55ac93c1756e0f12c9136b40a54f598cf9a4532fffd22e52e225f761ee7a188a3eeb6f3860cec93e17fee8ded6c1b4cad966eeac00000000"
    }
  ]
}