{
  "hash": "000000009932103735fbcdf36f7110fe8fa4e3fa773ea612014f3bf10661a021",
  "confirmations": 48543,
  "height": 4555,
  "version": 1,
  "versionHex": "00000001",
  "merkleroot": "2b32f604d3cf90c37052efb28a293269d11940f8f93ec5913f63795c2302ea05",
  "time": 1234820711,
  "mediantime": 1234818352,
  "nonce": 3321779479,
  "bits": "1d00ffff",
  "difficulty": 1,
  "chainwork": "000000000000000000000000000000000000000000000000000011cc11cc11cc",
  "nTx": 1,
  "previousblockhash": "00000000ed72c1e2ec926c34c50dd20ddc514d081a1794b5f773c2f8fe514990",
  "nextblockhash": "0000000054d4f171b0eab3cd4e31da4ce5a1a06f27b39bf36c5902c9bb8ef5c4",
  "strippedsize": 215,
  "size": 215,
  "weight": 860,
  "tx": [
    {
      "txid": "2b32f604d3cf90c37052efb28a293269d11940f8f93ec5913f63795c2302ea05",
      "hash": "2b32f604d3cf90c37052efb28a293269d11940f8f93ec5913f63795c2302ea05",
      "version": 1,
      "size": 134,
      "vsize": 134,
      "weight": 536,
      "locktime": 0,
      "vin": [
        {
          "coinbase": "04ffff001d0137",
          "sequence": 4294967295
        }
      ],
      "vout": [
        {
          "value": 50.0,
          "n": 0,
          "scriptPubKey": {
            "asm": "047e87a85280d8dd87555efcc5c9ee5afa8ed5df1c108f5bc95e95a5558326b38a9f84fb48c799c0e573d61db84dbd79f28c279886a5bbbecf7197bdd633a4187a OP_CHECKSIG",
            "desc": "pk(047e87a85280d8dd87555efcc5c9ee5afa8ed5df1c108f5bc95e95a5558326b38a9f84fb48c799c0e573d61db84dbd79f28c279886a5bbbecf7197bdd633a4187a)#z7emx9g3",
            "hex": "41047e87a85280d8dd87555efcc5c9ee5afa8ed5df1c108f5bc95e95a5558326b38a9f84fb48c799c0e573d61db84dbd79f28c279886a5bbbecf7197bdd633a4187aac",
            "type": "pubkey"
          }
        }
      ],
      "hex": "01000000010000000000000000000000000000000000000000000000000000000000000000ffffffff0704ffff001d0137ffffffff0100f2052a010000004341047e87a85280d8dd87555efcc5c9ee5afa8ed5df1c108f5bc95e95a5558326b38a9f84fb48c799c0e573d61db84dbd79f28c279886a5bbbecf7197bdd633a4187aac00000000"
    }
  ]
}