{
  "hash": "0000000023f3f4e0f83ca6f225a276de3d009a8a6c93a8a281b13a2b78e60843",
  "confirmations": 45618,
  "height": 7480,
  "version": 1,
  "versionHex": "00000001",
  "merkleroot": "9f0749fbeb4de28a9cd1d73037c6c7d29e452b482be1499ec279bd64a2a68dd3",
  "time": 1237082254,
  "mediantime": 1237079508,
  "nonce": 1090201640,
  "bits": "1d00ffff",
  "difficulty": 1,
  "chainwork": "00000000000000000000000000000000000000000000000000001d391d391d39",
  "nTx": 1,
  "previousblockhash": "000000002552d84f58d6f064bd78324f960ac7697291de25acca5cc451d23fd2",
  "nextblockhash": "000000007e2e3408008ede8c63dd2ec864403af22561c82332053dab811c8326",
  "strippedsize": 216,
  "size": 216,
  "weight": 864,
  "tx": [
    {
      "txid": "9f0749fbeb4de28a9cd1d73037c6c7d29e452b482be1499ec279bd64a2a68dd3",
      "hash": "9f0749fbeb4de28a9cd1d73037c6c7d29e452b482be1499ec279bd64a2a68dd3",
      "version": 1,
      "size": 135,
      "vsize": 135,
      "weight": 540,
      "locktime": 0,
      "vin": [
        {
          "coinbase": "04ffff001d02a100",
          "sequence": 4294967295
        }
      ],
      "vout": [
        {
          "value": 50.0,
          "n": 0,
          "scriptPubKey": {
            "asm": "04359ed0ebb92108a6697de7768e1e7a47fd3c2120f262d8881dbcc40bd4556edbf6e8aa955c25bc4d36f4cb9db0c31588428584f3610b597cd01efc8222224a8b OP_CHECKSIG",
            "desc": "pk(04359ed0ebb92108a6697de7768e1e7a47fd3c2120f262d8881dbcc40bd4556edbf6e8aa955c25bc4d36f4cb9db0c31588428584f3610b597cd01efc8222224a8b)#lrg2f672",
            "hex": "4104359ed0ebb92108a6697de7768e1e7a47fd3c2120f262d8881dbcc40bd4556edbf6e8aa955c25bc4d36f4cb9db0c31588428584f3610b597cd01efc8222224a8bac",
            "type": "pubkey"
          }
        }
      ],
      "hex": "01000000010000000000000000000000000000000000000000000000000000000000000000ffffffff0804ffff001d02a100ffffffff0100f2052a01000000434104359ed0ebb92108a6697de7768e1e7a47fd3c2120f262d8881dbcc40bd4556edbf6e8aa955c25bc4d36f4cb9db0c31588428584f3610b597cd01efc8222224a8bac00000000"
    }
  ]
}