{
  "hash": "000000000af7d285a4de23d3a44fa16decc6c90b03fd794ee5140aded45232f7",
  "confirmations": 51163,
  "height": 1935,
  "version": 1,
  "versionHex": "00000001",
  "merkleroot": "c537c1a951c9d6b01554c11629a9870a011447c9253406470fb23621c1f62826",
  "time": 1232996097,
  "mediantime": 1232990956,
  "nonce": 120255804,
  "bits": "1d00ffff",
  "difficulty": 1,
  "chainwork": "0000000000000000000000000000000000000000000000000000079007900790",
  "nTx": 1,
  "previousblockhash": "0000000014508be38bb90f3be774d262c209303a51c71bbf3102a458f39b8e3e",
  "nextblockhash": "00000000b8ac4d358fa0a7d32a2c7a0dbf0cf7e6c369a009c3535e496c0b6b3a",
  "strippedsize": 215,
  "size": 215,
  "weight": 860,
  "tx": [
    {
      "txid": "c537c1a951c9d6b01554c11629a9870a011447c9253406470fb23621c1f62826",
      "hash": "c537c1a951c9d6b01554c11629a9870a011447c9253406470fb23621c1f62826",
      "version": 1,
      "size": 134,
      "vsize": 134,
      "weight": 536,
      "locktime": 0,
      "vin": [
        {
          "coinbase": "04ffff001d0109",
          "sequence": 4294967295
        }
      ],
      "vout": [
        {
          "value": 50.0,
          "n": 0,
          "scriptPubKey": {
            "asm": "0471d514ff190eddf361d3e81e45c06c12f77ac7674b364cf437107eaba25eb1a65763087a4043218fb204781dc280e7c94eb9c2ec89ac90ec4cab0a23f0af4acc OP_CHECKSIG",
            "desc": "pk(0471d514ff190eddf361d3e81e45c06c12f77ac7674b364cf437107eaba25eb1a65763087a4043218fb204781dc280e7c94eb9c2ec89ac90ec4cab0a23f0af4acc)#4x6gle2f",
            "hex": "410471d514ff190eddf361d3e81e45c06c12f77ac7674b364cf437107eaba25eb1a65763087a4043218fb204781dc280e7c94eb9c2ec89ac90ec4cab0a23f0af4accac",
            "type": "pubkey"
          }
        }
      ],
      "hex": "01000000010000000000000000000000000000000000000000000000000000000000000000ffffffff0704ffff001d0109ffffffff0100f2052a0100000043410471d514ff190eddf361d3e81e45c06c12f77ac7674b364cf437107eaba25eb1a65763087a4043218fb204781dc280e7c94eb9c2ec89ac90ec4cab0a23f0af4accac00000000"
    }
  ]
}