{
  "hash": "000000005b28ffb3c31a309a53425a7190ec55af9c65c574e6b5abd45ce83846",
  "confirmations": 46987,
  "height": 6111,
  "version": 1,
  "versionHex": "00000001",
  "merkleroot": "5381573768941a5a161af53d5d4dc2d13fbb65d8ddd4dcadaf2b42aa8df3e616",
  "time": 1236017832,
  "mediantime": 1236013210,
  "nonce": 2892492580,
  "bits": "1d00ffff",
  "difficulty": 1,
  "chainwork": "000000000000000000000000000000000000000000000000000017e017e017e0",
  "nTx": 1,
  "previousblockhash": "00000000dac6dfbd3ee5ab827d0cb3a4a340ec66459f4f551b92e0b13e27108c",
  "nextblockhash": "0000000016d49814f2a12452f3d3d37b846be12702f9f3932c4eb9c4d3eb39ef",
  "strippedsize": 216,
  "size": 216,
  "weight": 864,
  "tx": [
    {
      "txid": "5381573768941a5a161af53d5d4dc2d13fbb65d8ddd4dcadaf2b42aa8df3e616",
      "hash": "5381573768941a5a161af53d5d4dc2d13fbb65d8ddd4dcadaf2b42aa8df3e616",
      "version": 1,
      "size": 135,
      "vsize": 135,
      "weight": 540,
      "locktime": 0,
      "vin": [
        {
          "coinbase": "04ffff001d02fe06",
          "sequence": 4294967295
        }
      ],
      "vout": [
        {
          "value": 50.0,
          "n": 0,
          "scriptPubKey": {
            "asm": "04500d8ffa5f33c30f8c53dbf3f2ed2dfb6db370f919b16ecf6ee30b6970d4461a854c4e64fbdc49096f762d8b6048ac56357e0b3a0661bac52444104a97cb9d5d OP_CHECKSIG",
            "desc": "pk(04500d8ffa5f33c30f8c53dbf3f2ed2dfb6db370f919b16ecf6ee30b6970d4461a854c4e64fbdc49096f762d8b6048ac56357e0b3a0661bac52444104a97cb9d5d)#w0px7mqv",
            "hex": "4104500d8ffa5f33c30f8c53dbf3f2ed2dfb6db370f919b16ecf6ee30b6970d4461a854c4e64fbdc49096f762d8b6048ac56357e0b3a0661bac52444104a97cb9d5dac",
            "type": "pubkey"
          }
        }
      ],
      "hex": "01000000010000000000000000000000000000000000000000000000000000000000000000ffffffff0804ffff001d02fe06ffffffff0100f2052a01000000434104500d8ffa5f33c30f8c53dbf3f2ed2dfb6db370f919b16ecf6ee30b6970d4461a854c4e64fbdc49096f762d8b6048ac56357e0b3a0661bac52444104a97cb9d5dac00000000"
    }
  ]
}