{
  "hash": "000000002e837d054e162d8bcada74abb938e4a97c2d0743f80377f177707f9b",
  "confirmations": 48182,
  "height": 4916,
  "version": 1,
  "versionHex": "00000001",
  "merkleroot": "bdadc92ae18d2ffa54452e1a65a20cb9edd8e0adce04a5d5ec5d528a0f3ba2ba",
  "time": 1235082002,
  "mediantime": 1235078327,
  "nonce": 1409420826,
  "bits": "1d00ffff",
  "difficulty": 1,
  "chainwork": "0000000000000000000000000000000000000000000000000000133513351335",
  "nTx": 1,
  "previousblockhash": "0000000067c381ab839b6af5e3107e0b268fe07cd689ff6dc83214e5d310f714",
  "nextblockhash": "00000000f98c6d48b5a9b48a12231358985750a238de6848570617d3e883e24f",
  "strippedsize": 216,
  "size": 216,
  "weight": 864,
  "tx": [
    {
      "txid": "bdadc92ae18d2ffa54452e1a65a20cb9edd8e0adce04a5d5ec5d528a0f3ba2ba",
      "hash": "bdadc92ae18d2ffa54452e1a65a20cb9edd8e0adce04a5d5ec5d528a0f3ba2ba",
      "version": 1,
      "size": 135,
      "vsize": 135,
      "weight": 540,
      "locktime": 0,
      "vin": [
        {
          "coinbase": "04ffff001d02e005",
          "sequence": 4294967295
        }
      ],
      "vout": [
        {
          "value": 50.0,
          "n": 0,
          "scriptPubKey": {
            "asm": "0488718130dcb4ea172c243489986485f831f49a3614b16f05c450079544125f01a734d70cf7b6beb45dc045cd222405ea444fc252f543ed70fdb2a335f5ecfe73 OP_CHECKSIG",
            "desc": "pk(0488718130dcb4ea172c243489986485f831f49a3614b16f05c450079544125f01a734d70cf7b6beb45dc045cd222405ea444fc252f543ed70fdb2a335f5ecfe73)#vpz04mu4",
            "hex": "410488718130dcb4ea172c243489986485f831f49a3614b16f05c450079544125f01a734d70cf7b6beb45dc045cd222405ea444fc252f543ed70fdb2a335f5ecfe73ac",
            "type": "pubkey"
          }
        }
      ],
      "hex": "01000000010000000000000000000000000000000000000000000000000000000000000000ffffffff0804ffff001d02e005ffffffff0100f2052a0100000043410488718130dcb4ea172c243489986485f831f49a3614b16f05c450079544125f01a734d70cf7b6beb45dc045cd222405ea444fc252f543ed70fdb2a335f5ecfe73ac00000000"
    }
  ]
}