{
  "hash": "00000000e04c96acf5b8eb06f58d0f345908597d75f436b474f8c6cba2ae216f",
  "confirmations": 50692,
  "height": 2406,
  "version": 1,
  "versionHex": "00000001",
  "merkleroot": "7b64979922a497a2236dbf4bfd18403f80abea9a09fc1b4896be80f49cc9ca58",
  "time": 1233360098,
  "mediantime": 1233355986,
  "nonce": 10609191,
  "bits": "1d00ffff",
  "difficulty": 1,
  "chainwork": "0000000000000000000000000000000000000000000000000000096709670967",
  "nTx": 1,
  "previousblockhash": "00000000f64d740c99ad27c96ba81e388c0ba9662f8993eadcedb259e7d469cf",
  "nextblockhash": "000000001c872eaf10e26b49a1626be66c4c943b9b883b6e80dbed7b164b6144",
  "strippedsize": 215,
  "size": 215,
  "weight": 860,
  "tx": [
    {
      "txid": "7b64979922a497a2236dbf4bfd18403f80abea9a09fc1b4896be80f49cc9ca58",
      "hash": "7b64979922a497a2236dbf4bfd18403f80abea9a09fc1b4896be80f49cc9ca58",
      "version": 1,
      "size": 134,
      "vsize": 134,
      "weight": 536,
      "locktime": 0,
      "vin": [
        {
          "coinbase": "04ffff001d011c",
          "sequence": 4294967295
        }
      ],
      "vout": [
        {
          "value": 50.0,
          "n": 0,
          "scriptPubKey": {
            "asm": "04eb6e143bd59111d719ff07a434a41af17593194659dccc4de689b29fc3bd17860ca72ebb295eb8cef5611798eddd25e60a88543aa21331ccdcf2f97defd2da43 OP_CHECKSIG",
            "desc": "pk(04eb6e143bd59111d719ff07a434a41af17593194659dccc4de689b29fc3bd17860ca72ebb295eb8cef5611798eddd25e60a88543aa21331ccdcf2f97defd2da43)#we97hzud",
            "hex": "4104eb6e143bd59111d719ff07a434a41af17593194659dccc4de689b29fc3bd17860ca72ebb295eb8cef5611798eddd25e60a88543aa21331ccdcf2f97defd2da43ac",
            "type": "pubkey"
          }
        }
      ],
      "hex": "01000000010000000000000000000000000000000000000000000000000000000000000000ffffffff0704ffff001d011cffffffff0100f2052a01000000434104eb6e143bd59111d719ff07a434a41af17593194659dccc4de689b29fc3bd17860ca72ebb295eb8cef5611798eddd25e60a88543aa21331ccdcf2f97defd2da43ac00000000"
    }
  ]
}