{
  "hash": "0000000092c065597fb404109ba891cdd509879774bf7dea5e3d9abafe888db2",
  "confirmations": 46594,
  "height": 6504,
  "version": 1,
  "versionHex": "00000001",
  "merkleroot": "c5e85305679886f4510e6b48cd1cf1cada41d62a3c7cf7a37accc99024937b8e",
  "time": 1236334526,
  "mediantime": 1236330388,
  "nonce": 487406619,
  "bits": "1d00ffff",
  "difficulty": 1,
  "chainwork": "0000000000000000000000000000000000000000000000000000196919691969",
  "nTx": 1,
  "previousblockhash": "0000000013f7c29152ef57883c73749b9d969ad78add6bb1bd1d473eb67fa1ab",
  "nextblockhash": "00000000b05f46cf39a85dcb3743c437f17d920b286412a8d5339de8f5b82872",
  "strippedsize": 216,
  "size": 216,
  "weight": 864,
  "tx": [
    {
      "txid": "c5e85305679886f4510e6b48cd1cf1cada41d62a3c7cf7a37accc99024937b8e",
      "hash": "c5e85305679886f4510e6b48cd1cf1cada41d62a3c7cf7a37accc99024937b8e",
      "version": 1,
      "size": 135,
      "vsize": 135,
      "weight": 540,
      "locktime": 0,
      "vin": [
        {
          "coinbase": "04ffff001d02c003",
          "sequence": 4294967295
        }
      ],
      "vout": [
        {
          "value": 50.0,
          "n": 0,
          "scriptPubKey": {
            "asm": "044e90bd307353eacf7a474da22a4b019ac674416f235d0ab9beb2ffdf51af100e30e6bf6d4a1598d8f4ec630af01404655e16b193d48e18e5a30d27388c28b0df OP_CHECKSIG",
            "desc": "pk(044e90bd307353eacf7a474da22a4b019ac674416f235d0ab9beb2ffdf51af100e30e6bf6d4a1598d8f4ec630af01404655e16b193d48e18e5a30d27388c28b0df)#zmxnlfal",
            "hex": "41044e90bd307353eacf7a474da22a4b019ac674416f235d0ab9beb2ffdf51af100e30e6bf6d4a1598d8f4ec630af01404655e16b193d48e18e5a30d27388c28b0dfac",
            "type": "pubkey"
          }
        }
      ],
      "hex": "01000000010000000000000000000000000000000000000000000000000000000000000000ffffffff0804ffff001d02c003ffffffff0100f2052a010000004341044e90bd307353eacf7a474da22a4b019ac674416f235d0ab9beb2ffdf51af100e30e6bf6d4a1598d8f4ec630af01404655e16b193d48e18e5a30d27388c28b0dfac00000000"
    }
  ]
}