{
  "hash": "00000000054aad44afc89e1f4e0ee9561568629273df16153e425a2eb9cbbcb9",
  "confirmations": 52074,
  "height": 261,
  "version": 1,
  "versionHex": "00000001",
  "merkleroot": "fa015e93b37ffe1314bcd6d821fca951978138ee5f417ab1a460ddf34b1943f5",
  "time": 1231803223,
  "mediantime": 1231798073,
  "nonce": 1438666019,
  "bits": "1d00ffff",
  "difficulty": 1,
  "chainwork": "0000000000000000000000000000000000000000000000000000010601060106",
  "nTx": 1,
  "previousblockhash": "0000000032501f50fe47fd32d16bc632c04170255d407b7d15652c32d119397f",
  "nextblockhash": "0000000062e646293e5f21e2ef1e2099b048cfb58a81081d4e4035a4e19e47a8",
  "strippedsize": 216,
  "size": 216,
  "weight": 864,
  "tx": [
    {
      "txid": "fa015e93b37ffe1314bcd6d821fca951978138ee5f417ab1a460ddf34b1943f5",
      "hash": "fa015e93b37ffe1314bcd6d821fca951978138ee5f417ab1a460ddf34b1943f5",
      "version": 1,
      "size": 135,
      "vsize": 135,
      "weight": 540,
      "locktime": 0,
      "vin": [
        {
          "coinbase": "04ffff001d025801",
          "sequence": 4294967295
        }
      ],
      "vout": [
        {
          "value": 50.0,
          "n": 0,
          "scriptPubKey": {
            "asm": "04c03099311f6abeea03d4fa1a281c5f83f46590658bb5e6531f231ca8f4dc1238b45e0ef31ed08ca5176a904c1cf02e31694925ae3f9f112efb5117d0edc83bc4 OP_CHECKSIG",
            "desc": "pk(04c03099311f6abeea03d4fa1a281c5f83f46590658bb5e6531f231ca8f4dc1238b45e0ef31ed08ca5176a904c1cf02e31694925ae3f9f112efb5117d0edc83bc4)#kcnhp6j0",
            "hex": "4104c03099311f6abeea03d4fa1a281c5f83f46590658bb5e6531f231ca8f4dc1238b45e0ef31ed08ca5176a904c1cf02e31694925ae3f9f112efb5117d0edc83bc4ac",
            "type": "pubkey"
          }
        }
      ],
      "hex": "01000000010000000000000000000000000000000000000000000000000000000000000000ffffffff0804ffff001d025801ffffffff0100f2052a01000000434104c03099311f6abeea03d4fa1a281c5f83f46590658bb5e6531f231ca8f4dc1238b45e0ef31ed08ca5176a904c1cf02e31694925ae3f9f112efb5117d0edc83bc4ac00000000"
    }
  ]
}