{
  "hash": "000000009ec2ee43f67a560de84d578baca51447d83edcafb93311dc2255b1eb",
  "confirmations": 46688,
  "height": 6410,
  "version": 1,
  "versionHex": "00000001",
  "merkleroot": "c234d837e01e194a747d8114b86a9e1e2b20d77a40c49769ab62931d83cc59fe",
  "time": 1236263655,
  "mediantime": 1236258886,
  "nonce": 1239915572,
  "bits": "1d00ffff",
  "difficulty": 1,
  "chainwork": "0000000000000000000000000000000000000000000000000000190b190b190b",
  "nTx": 1,
  "previousblockhash": "0000000007fd4cc3c27a36d79310031601a26ef1dabcb90ff2c046b6cff8ffbe",
  "nextblockhash": "0000000077ee8bb8e91ef9657695c874239b0060b4bd2bf95839a7d118b5edd6",
  "strippedsize": 216,
  "size": 216,
  "weight": 864,
  "tx": [
    {
      "txid": "c234d837e01e194a747d8114b86a9e1e2b20d77a40c49769ab62931d83cc59fe",
      "hash": "c234d837e01e194a747d8114b86a9e1e2b20d77a40c49769ab62931d83cc59fe",
      "version": 1,
      "size": 135,
      "vsize": 135,
      "weight": 540,
      "locktime": 0,
      "vin": [
        {
          "coinbase": "04ffff001d020b02",
          "sequence": 4294967295
        }
      ],
      "vout": [
        {
          "value": 50.0,
          "n": 0,
          "scriptPubKey": {
            "asm": "04e8413354ca46b984d74deab281b4a4aa80a0da6deed925adcb05682343030939e4e5e49b2381ea719668a95fca1558297ddd2ae4d2d723047611f3ed44a34407 OP_CHECKSIG",
            "desc": "pk(04e8413354ca46b984d74deab281b4a4aa80a0da6deed925adcb05682343030939e4e5e49b2381ea719668a95fca1558297ddd2ae4d2d723047611f3ed44a34407)#cyu90nad",
            "hex": "4104e8413354ca46b984d74deab281b4a4aa80a0da6deed925adcb05682343030939e4e5e49b2381ea719668a95fca1558297ddd2ae4d2d723047611f3ed44a34407ac",
            "type": "pubkey"
          }
        }
      ],
      "hex": "01000000010000000000000000000000000000000000000000000000000000000000000000ffffffff0804ffff001d020b02ffffffff0100f2052a01000000434104e8413354ca46b984d74deab281b4a4aa80a0da6deed925adcb05682343030939e4e5e49b2381ea719668a95fca1558297ddd2ae4d2d723047611f3ed44a34407ac00000000"
    }
  ]
}