{
  "hash": "00000000275bc54ff48c36cd5226a3660155618cb73a7bb45550033dc29cfec1",
  "confirmations": 51629,
  "height": 1469,
  "version": 1,
  "versionHex": "00000001",
  "merkleroot": "befef3612fd77ec682aa698fa5177c8b9f110873bc3d8f86ca19ffbd5c6185a5",
  "time": 1232754989,
  "mediantime": 1232752933,
  "nonce": 4222741528,
  "bits": "1d00ffff",
  "difficulty": 1,
  "chainwork": "000000000000000000000000000000000000000000000000000005be05be05be",
  "nTx": 1,
  "previousblockhash": "00000000389c21647e4c1444abfad4ef7d186694f5a0e080bf617bd99692611f",
  "nextblockhash": "000000002207b009445560de0ccb14ce5933c32c5aa5a277e2f4c244b5ea3e09",
  "strippedsize": 216,
  "size": 216,
  "weight": 864,
  "tx": [
    {
      "txid": "befef3612fd77ec682aa698fa5177c8b9f110873bc3d8f86ca19ffbd5c6185a5",
      "hash": "befef3612fd77ec682aa698fa5177c8b9f110873bc3d8f86ca19ffbd5c6185a5",
      "version": 1,
      "size": 135,
      "vsize": 135,
      "weight": 540,
      "locktime": 0,
      "vin": [
        {
          "coinbase": "04ffff001d02ee00",
          "sequence": 4294967295
        }
      ],
      "vout": [
        {
          "value": 50.0,
          "n": 0,
          "scriptPubKey": {
            "asm": "044e4bd59dfb8e1fef39445bd2d3df411644cb86c5ef8e8cebd0d0488f909841df85c46861e8a8225b81d72355e908b06a5af27ff393ae7b49ccd33d5ac05ac30c OP_CHECKSIG",
            "desc": "pk(044e4bd59dfb8e1fef39445bd2d3df411644cb86c5ef8e8cebd0d0488f909841df85c46861e8a8225b81d72355e908b06a5af27ff393ae7b49ccd33d5ac05ac30c)#tjl07mhj",
            "hex": "41044e4bd59dfb8e1fef39445bd2d3df411644cb86c5ef8e8cebd0d0488f909841df85c46861e8a8225b81d72355e908b06a5af27ff393ae7b49ccd33d5ac05ac30cac",
            "type": "pubkey"
          }
        }
      ],
      "hex": "01000000010000000000000000000000000000000000000000000000000000000000000000ffffffff0804ffff001d02ee00ffffffff0100f2052a010000004341044e4bd59dfb8e1fef39445bd2d3df411644cb86c5ef8e8cebd0d0488f909841df85c46861e8a8225b81d72355e908b06a5af27ff393ae7b49ccd33d5ac05ac30cac00000000"
    }
  ]
}