{
  "hash": "0000000070870354b303c863a9b1382b3efbad38ad63256a282dde05fd43d0e0",
  "confirmations": 48057,
  "height": 5041,
  "version": 1,
  "versionHex": "00000001",
  "merkleroot": "b63c1837d86e8ea0b1f37293d5e3fc10199ecccc4d1e34d40e2d1beb8cd65118",
  "time": 1235167728,
  "mediantime": 1235163338,
  "nonce": 2538174722,
  "bits": "1d00ffff",
  "difficulty": 1,
  "chainwork": "000000000000000000000000000000000000000000000000000013b213b213b2",
  "nTx": 1,
  "previousblockhash": "0000000039a115c36715d1cda9bf7b9b20ae14c53e1b577881b8e290ee9fbc51",
  "nextblockhash": "0000000061768ee56b647e973cbab21891fcd0d17948f1601e906bdf4211de04",
  "strippedsize": 216,
  "size": 216,
  "weight": 864,
  "tx": [
    {
      "txid": "b63c1837d86e8ea0b1f37293d5e3fc10199ecccc4d1e34d40e2d1beb8cd65118",
      "hash": "b63c1837d86e8ea0b1f37293d5e3fc10199ecccc4d1e34d40e2d1beb8cd65118",
      "version": 1,
      "size": 135,
      "vsize": 135,
      "weight": 540,
      "locktime": 0,
      "vin": [
        {
          "coinbase": "04ffff001d02b707",
          "sequence": 4294967295
        }
      ],
      "vout": [
        {
          "value": 50.0,
          "n": 0,
          "scriptPubKey": {
            "asm": "04749d7a9e933e70421e65322ae8967072e24a609f33a0a28d748e64999e70b22ad167d1a70e3997698dba73ac74f55f8b1a56bf8576b1e84a8e5f215b589538c1 OP_CHECKSIG",
            "desc": "pk(04749d7a9e933e70421e65322ae8967072e24a609f33a0a28d748e64999e70b22ad167d1a70e3997698dba73ac74f55f8b1a56bf8576b1e84a8e5f215b589538c1)#vluyx5zk",
            "hex": "4104749d7a9e933e70421e65322ae8967072e24a609f33a0a28d748e64999e70b22ad167d1a70e3997698dba73ac74f55f8b1a56bf8576b1e84a8e5f215b589538c1ac",
            "type": "pubkey"
          }
        }
      ],
      "hex": "01000000010000000000000000000000000000000000000000000000000000000000000000ffffffff0804ffff001d02b707ffffffff0100f2052a01000000434104749d7a9e933e70421e65322ae8967072e24a609f33a0a28d748e64999e70b22ad167d1a70e3997698dba73ac74f55f8b1a56bf8576b1e84a8e5f215b589538c1ac00000000"
    }
  ]
}