{
  "hash": "000000008f64cda5d0d1d1e4c443112051fd16ef4bce34dec33022872b19702c",
  "confirmations": 47741,
  "height": 5357,
  "version": 1,
  "versionHex": "00000001",
  "merkleroot": "ef3dacc3d967c9840bf61bceda0d3f48b13ebd555349b5edd6be4e153d8af167",
  "time": 1235408742,
  "mediantime": 1235405486,
  "nonce": 1672006701,
  "bits": "1d00ffff",
  "difficulty": 1,
  "chainwork": "000000000000000000000000000000000000000000000000000014ee14ee14ee",
  "nTx": 1,
  "previousblockhash": "00000000b3094785a5038c6d30308f8c96b5137ecb88c7790b061f61f9b9e877",
  "nextblockhash": "00000000bafabb8a5a07292226a73808b925e55a61b11adda18b62dedae10c55",
  "strippedsize": 216,
  "size": 216,
  "weight": 864,
  "tx": [
    {
      "txid": "ef3dacc3d967c9840bf61bceda0d3f48b13ebd555349b5edd6be4e153d8af167",
      "hash": "ef3dacc3d967c9840bf61bceda0d3f48b13ebd555349b5edd6be4e153d8af167",
      "version": 1,
      "size": 135,
      "vsize": 135,
      "weight": 540,
      "locktime": 0,
      "vin": [
        {
          "coinbase": "04ffff001d020003",
          "sequence": 4294967295
        }
      ],
      "vout": [
        {
          "value": 50.0,
          "n": 0,
          "scriptPubKey": {
            "asm": "04a7da95275e8aeb5207da0ee19e552e773948d2d6b6e14a1b2e08df46f7f2f2764d71aafd3ae188127780faff3f1ec9ccf0accbffbaa4ebf6a8def6e1ee92f3a1 OP_CHECKSIG",
            "desc": "pk(04a7da95275e8aeb5207da0ee19e552e773948d2d6b6e14a1b2e08df46f7f2f2764d71aafd3ae188127780faff3f1ec9ccf0accbffbaa4ebf6a8def6e1ee92f3a1)#xxsqlxtv",
            "hex": "4104a7da95275e8aeb5207da0ee19e552e773948d2d6b6e14a1b2e08df46f7f2f2764d71aafd3ae188127780faff3f1ec9ccf0accbffbaa4ebf6a8def6e1ee92f3a1ac",
            "type": "pubkey"
          }
        }
      ],
      "hex": "01000000010000000000000000000000000000000000000000000000000000000000000000ffffffff0804ffff001d020003ffffffff0100f2052a01000000434104a7da95275e8aeb5207da0ee19e552e773948d2d6b6e14a1b2e08df46f7f2f2764d71aafd3ae188127780faff3f1ec9ccf0accbffbaa4ebf6a8def6e1ee92f3a1ac00000000"
    }
  ]
}