{
  "hash": "00000000668b7906f7d29afd108a5c0c9f5fd6439c5d678386de34df269d9326",
  "confirmations": 47573,
  "height": 5525,
  "version": 1,
  "versionHex": "00000001",
  "merkleroot": "87e4b0fddab2a8c1f19a5f3690ba07d01da8cd8f35660c7cc38fd518b8de8c51",
  "time": 1235540898,
  "mediantime": 1235536697,
  "nonce": 108904298,
  "bits": "1d00ffff",
  "difficulty": 1,
  "chainwork": "0000000000000000000000000000000000000000000000000000159615961596",
  "nTx": 1,
  "previousblockhash": "000000008a80e8ed5ada2b8832572a62152acd7be8084c46a7ff153ee14f54c9",
  "nextblockhash": "0000000077b2d94aa31f27643f15f9c707b6b7a0f9a4c885650ab02f6b1425cf",
  "strippedsize": 215,
  "size": 215,
  "weight": 860,
  "tx": [
    {
      "txid": "87e4b0fddab2a8c1f19a5f3690ba07d01da8cd8f35660c7cc38fd518b8de8c51",
      "hash": "87e4b0fddab2a8c1f19a5f3690ba07d01da8cd8f35660c7cc38fd518b8de8c51",
      "version": 1,
      "size": 134,
      "vsize": 134,
      "weight": 536,
      "locktime": 0,
      "vin": [
        {
          "coinbase": "04ffff001d011b",
          "sequence": 4294967295
        }
      ],
      "vout": [
        {
          "value": 50.0,
          "n": 0,
          "scriptPubKey": {
            "asm": "04cad382284a3f37f1bac9fd69ed3272a199e5028f8406581bd0886952a72b8aba2ea6fbb5eaabf2f7eb0d2d1305ce0a99a63ec2a98d55f281c191fa5285564b1f OP_CHECKSIG",
            "desc": "pk(04cad382284a3f37f1bac9fd69ed3272a199e5028f8406581bd0886952a72b8aba2ea6fbb5eaabf2f7eb0d2d1305ce0a99a63ec2a98d55f281c191fa5285564b1f)#43phdr6a",
            "hex": "4104cad382284a3f37f1bac9fd69ed3272a199e5028f8406581bd0886952a72b8aba2ea6fbb5eaabf2f7eb0d2d1305ce0a99a63ec2a98d55f281c191fa5285564b1fac",
            "type": "pubkey"
          }
        }
      ],
      "hex": "01000000010000000000000000000000000000000000000000000000000000000000000000ffffffff0704ffff001d011bffffffff0100f2052a01000000434104cad382284a3f37f1bac9fd69ed3272a199e5028f8406581bd0886952a72b8aba2ea6fbb5eaabf2f7eb0d2d1305ce0a99a63ec2a98d55f281c191fa5285564b1fac00000000"
    }
  ]
}