{
  "hash": "0000000064ce70558fb016627685f36a7a5ef46cd818e850baa21ce5fe4ea041",
  "confirmations": 52261,
  "height": 837,
  "version": 1,
  "versionHex": "00000001",
  "merkleroot": "bdd70593b434db35414e96caa8026a79667c807395ba5b67edd26de66d1cd25b",
  "time": 1232219953,
  "mediantime": 1232215545,
  "nonce": 1604223784,
  "bits": "1d00ffff",
  "difficulty": 1,
  "chainwork": "0000000000000000000000000000000000000000000000000000034603460346",
  "nTx": 1,
  "previousblockhash": "00000000657735ca6d3368548751e8c4cde75698d0ed4f55e3f1297e27724c21",
  "nextblockhash": "0000000078eecd2a8f456ed336fe4ecd7c84d0bdc18cc609fc34b02ad9b4ee40",
  "strippedsize": 216,
  "size": 216,
  "weight": 864,
  "tx": [
    {
      "txid": "bdd70593b434db35414e96caa8026a79667c807395ba5b67edd26de66d1cd25b",
      "hash": "bdd70593b434db35414e96caa8026a79667c807395ba5b67edd26de66d1cd25b",
      "version": 1,
      "size": 135,
      "vsize": 135,
      "weight": 540,
      "locktime": 0,
      "vin": [
        {
          "coinbase": "04ffff001d022802",
          "sequence": 4294967295
        }
      ],
      "vout": [
        {
          "value": 50.0,
          "n": 0,
          "scriptPubKey": {
            "asm": "04a2780eac192e1dcf1aedd501dbffed64a261badccc58fcdafc1346d1be9f777a287b2fb5330e48274d62c3f8e48e3d7639a87eff8e707a4ddb0cd5a463214e1a OP_CHECKSIG",
            "desc": "pk(04a2780eac192e1dcf1aedd501dbffed64a261badccc58fcdafc1346d1be9f777a287b2fb5330e48274d62c3f8e48e3d7639a87eff8e707a4ddb0cd5a463214e1a)#jvcq05ka",
            "hex": "4104a2780eac192e1dcf1aedd501dbffed64a261badccc58fcdafc1346d1be9f777a287b2fb5330e48274d62c3f8e48e3d7639a87eff8e707a4ddb0cd5a463214e1aac",
            "type": "pubkey"
          }
        }
      ],
      "hex": "01000000010000000000000000000000000000000000000000000000000000000000000000ffffffff0804ffff001d022802ffffffff0100f2052a01000000434104a2780eac192e1dcf1aedd501dbffed64a261badccc58fcdafc1346d1be9f777a287b2fb5330e48274d62c3f8e48e3d7639a87eff8e707a4ddb0cd5a463214e1aac00000000"
    }
  ]
}