{
  "hash": "00000000cfaad7de6eef5817f3e42943c8219991aa52f44280e5504607ebd743",
  "confirmations": 45258,
  "height": 7840,
  "version": 1,
  "versionHex": "00000001",
  "merkleroot": "5c22ffb72fdd12d8bb3c84eaa7bc478c5a6e89b45e7d9562b1eb827c8f6e7748",
  "time": 1237343952,
  "mediantime": 1237339225,
  "nonce": 1821001481,
  "bits": "1d00ffff",
  "difficulty": 1,
  "chainwork": "00000000000000000000000000000000000000000000000000001ea11ea11ea1",
  "nTx": 1,
  "previousblockhash": "00000000ccaa7b8ae59f0bc58e7aca6ea7020b433a5127679c5372675519c102",
  "nextblockhash": "000000001ee7109f7e57c96d5b1d125caa3e15ed967fa2e98c5b9228162d6c4f",
  "strippedsize": 216,
  "size": 216,
  "weight": 864,
  "tx": [
    {
      "txid": "5c22ffb72fdd12d8bb3c84eaa7bc478c5a6e89b45e7d9562b1eb827c8f6e7748",
      "hash": "5c22ffb72fdd12d8bb3c84eaa7bc478c5a6e89b45e7d9562b1eb827c8f6e7748",
      "version": 1,
      "size": 135,
      "vsize": 135,
      "weight": 540,
      "locktime": 0,
      "vin": [
        {
          "coinbase": "04ffff001d028706",
          "sequence": 4294967295
        }
      ],
      "vout": [
        {
          "value": 50.0,
          "n": 0,
          "scriptPubKey": {
            "asm": "0414940131417777732477bf7f963a600b5ff63a071551ed19625a169e421419e61e210893a8c55100c3a92c1a695d25ae09f6ecb5286580138b98891d24fca1a5 OP_CHECKSIG",
            "desc": "pk(0414940131417777732477bf7f963a600b5ff63a071551ed19625a169e421419e61e210893a8c55100c3a92c1a695d25ae09f6ecb5286580138b98891d24fca1a5)#8vpgeq2e",
            "hex": "410414940131417777732477bf7f963a600b5ff63a071551ed19625a169e421419e61e210893a8c55100c3a92c1a695d25ae09f6ecb5286580138b98891d24fca1a5ac",
            "type": "pubkey"
          }
        }
      ],
      "hex": "01000000010000000000000000000000000000000000000000000000000000000000000000ffffffff0804ffff001d028706ffffffff0100f2052a0100000043410414940131417777732477bf7f963a600b5ff63a071551ed19625a169e421419e61e210893a8c55100c3a92c1a695d25ae09f6ecb5286580138b98891d24fca1a5ac00000000"
    }
  ]
}