{
  "hash": "000000006b56931d2097102e89bbc1ce959da8d32ccc4042e95897a65d642df6",
  "confirmations": 51780,
  "height": 1318,
  "version": 1,
  "versionHex": "00000001",
  "merkleroot": "02626df965d83194010816f181ac1558af5c0e977017657f7fd4611eeefa24df",
  "time": 1232610329,
  "mediantime": 1232606990,
  "nonce": 4113017637,
  "bits": "1d00ffff",
  "difficulty": 1,
  "chainwork": "0000000000000000000000000000000000000000000000000000052705270527",
  "nTx": 1,
  "previousblockhash": "000000005385e40682f749dd1e1945a68074df786677d12a4a5556afb8fa974c",
  "nextblockhash": "0000000024c349961797255cd1ddece5f0e917eaecd111f750bd91340def1beb",
  "strippedsize": 215,
  "size": 215,
  "weight": 860,
  "tx": [
    {
      "txid": "02626df965d83194010816f181ac1558af5c0e977017657f7fd4611eeefa24df",
      "hash": "02626df965d83194010816f181ac1558af5c0e977017657f7fd4611eeefa24df",
      "version": 1,
      "size": 134,
      "vsize": 134,
      "weight": 536,
      "locktime": 0,
      "vin": [
        {
          "coinbase": "04ffff001d016a",
          "sequence": 4294967295
        }
      ],
      "vout": [
        {
          "value": 50.0,
          "n": 0,
          "scriptPubKey": {
            "asm": "04b96eb898c2ea898c58d0636c5a55e4dc134a083deed4e30ed0160f5040b4936585197bc82aa8be8a7b3f97a62e35da794eb3994deb7e1c1dcff69071dd574b4c OP_CHECKSIG",
            "desc": "pk(04b96eb898c2ea898c58d0636c5a55e4dc134a083deed4e30ed0160f5040b4936585197bc82aa8be8a7b3f97a62e35da794eb3994deb7e1c1dcff69071dd574b4c)#uc2ugx8j",
            "hex": "4104b96eb898c2ea898c58d0636c5a55e4dc134a083deed4e30ed0160f5040b4936585197bc82aa8be8a7b3f97a62e35da794eb3994deb7e1c1dcff69071dd574b4cac",
            "type": "pubkey"
          }
        }
      ],
      "hex": "01000000010000000000000000000000000000000000000000000000000000000000000000ffffffff0704ffff001d016affffffff0100f2052a01000000434104b96eb898c2ea898c58d0636c5a55e4dc134a083deed4e30ed0160f5040b4936585197bc82aa8be8a7b3f97a62e35da794eb3994deb7e1c1dcff69071dd574b4cac00000000"
    }
  ]
}