{
  "hash": "00000000135e515a3570b8bd43cc0e5bc301780b7d98a57fe980739df183d289",
  "confirmations": 52102,
  "height": 996,
  "version": 1,
  "versionHex": "00000001",
  "merkleroot": "85bef6cfcfb730466d0a1d891d2adcc9942e9794ba6176bc7b57d44cf4aa2650",
  "time": 1232345150,
  "mediantime": 1232343383,
  "nonce": 102380112,
  "bits": "1d00ffff",
  "difficulty": 1,
  "chainwork": "000000000000000000000000000000000000000000000000000003e503e503e5",
  "nTx": 1,
  "previousblockhash": "000000000881c1287f3eb22d7cf45356c826ec0d35ecc0a7724b3f7b1817d3f0",
  "nextblockhash": "00000000a231f8c4eb3e7abd317d52964002854596956660a678e4d11537e73e",
  "strippedsize": 216,
  "size": 216,
  "weight": 864,
  "tx": [
    {
      "txid": "85bef6cfcfb730466d0a1d891d2adcc9942e9794ba6176bc7b57d44cf4aa2650",
      "hash": "85bef6cfcfb730466d0a1d891d2adcc9942e9794ba6176bc7b57d44cf4aa2650",
      "version": 1,
      "size": 135,
      "vsize": 135,
      "weight": 540,
      "locktime": 0,
      "vin": [
        {
          "coinbase": "04ffff001d02c300",
          "sequence": 4294967295
        }
      ],
      "vout": [
        {
          "value": 50.0,
          "n": 0,
          "scriptPubKey": {
            "asm": "04b3206c97af4ed56950f11b14d134053951c2dac5a774731459e60a9d1e2a74869c1f27186c571f46d5b1b2810ace625bad66e9519881ea4d2ebc58077dcbc268 OP_CHECKSIG",
            "desc": "pk(04b3206c97af4ed56950f11b14d134053951c2dac5a774731459e60a9d1e2a74869c1f27186c571f46d5b1b2810ace625bad66e9519881ea4d2ebc58077dcbc268)#twgp6wp6",
            "hex": "4104b3206c97af4ed56950f11b14d134053951c2dac5a774731459e60a9d1e2a74869c1f27186c571f46d5b1b2810ace625bad66e9519881ea4d2ebc58077dcbc268ac",
            "type": "pubkey"
          }
        }
      ],
      "hex": "01000000010000000000000000000000000000000000000000000000000000000000000000ffffffff0804ffff001d02c300ffffffff0100f2052a01000000434104b3206c97af4ed56950f11b14d134053951c2dac5a774731459e60a9d1e2a74869c1f27186c571f46d5b1b2810ace625bad66e9519881ea4d2ebc58077dcbc268ac00000000"
    }
  ]
}