{
  "hash": "00000000299ded291db48445b2642a0ffd02ac51aee52e494e024fd3dcae9bdc",
  "confirmations": 48084,
  "height": 5014,
  "version": 1,
  "versionHex": "00000001",
  "merkleroot": "14883850a5c54d9115e8268c470f51df8b11c440ed54c7f194fe748c3085ebab",
  "time": 1235145406,
  "mediantime": 1235141896,
  "nonce": 1969977909,
  "bits": "1d00ffff",
  "difficulty": 1,
  "chainwork": "0000000000000000000000000000000000000000000000000000139713971397",
  "nTx": 1,
  "previousblockhash": "0000000082b427d4f4c3dec9e1df1b9f32b426fa8b12e85384921aa3f59306c3",
  "nextblockhash": "00000000332f23add6bf08f8d6aa46acbdfd3fd238bafa3640084eb20511bcfe",
  "strippedsize": 216,
  "size": 216,
  "weight": 864,
  "tx": [
    {
      "txid": "14883850a5c54d9115e8268c470f51df8b11c440ed54c7f194fe748c3085ebab",
      "hash": "14883850a5c54d9115e8268c470f51df8b11c440ed54c7f194fe748c3085ebab",
      "version": 1,
      "size": 135,
      "vsize": 135,
      "weight": 540,
      "locktime": 0,
      "vin": [
        {
          "coinbase": "04ffff001d023807",
          "sequence": 4294967295
        }
      ],
      "vout": [
        {
          "value": 50.0,
          "n": 0,
          "scriptPubKey": {
            "asm": "0476d9481d62823306a53bc24cb2af9bbb06a22f6afe23480c1cb7fe5f7e54b29bbd8807eee32f953b6ad2fd756056d5793fb0fd2f5ce80776707cb33b98bcb290 OP_CHECKSIG",
            "desc": "pk(0476d9481d62823306a53bc24cb2af9bbb06a22f6afe23480c1cb7fe5f7e54b29bbd8807eee32f953b6ad2fd756056d5793fb0fd2f5ce80776707cb33b98bcb290)#9wue5gwk",
            "hex": "410476d9481d62823306a53bc24cb2af9bbb06a22f6afe23480c1cb7fe5f7e54b29bbd8807eee32f953b6ad2fd756056d5793fb0fd2f5ce80776707cb33b98bcb290ac",
            "type": "pubkey"
          }
        }
      ],
      "hex": "01000000010000000000000000000000000000000000000000000000000000000000000000ffffffff0804ffff001d023807ffffffff0100f2052a0100000043410476d9481d62823306a53bc24cb2af9bbb06a22f6afe23480c1cb7fe5f7e54b29bbd8807eee32f953b6ad2fd756056d5793fb0fd2f5ce80776707cb33b98bcb290ac00000000"
    }
  ]
}