{
  "hash": "00000000b98fcbc3ffa5735bca2dddb8ae01b75c01a1f055ba48b515eebef020",
  "confirmations": 52454,
  "height": 644,
  "version": 1,
  "versionHex": "00000001",
  "merkleroot": "8194397336013be4770343e5c93455abedbe324666fd767c9f31102f7af69f24",
  "time": 1232065311,
  "mediantime": 1232062277,
  "nonce": 106627856,
  "bits": "1d00ffff",
  "difficulty": 1,
  "chainwork": "0000000000000000000000000000000000000000000000000000028502850285",
  "nTx": 1,
  "previousblockhash": "000000006ded0e621cfacfcbab228781c8fb768d632a41503f8ed3a26ff58d8b",
  "nextblockhash": "000000002689f3021912d78bc8d5b046d2828a75dc695905b8743222b9907a8d",
  "strippedsize": 215,
  "size": 215,
  "weight": 860,
  "tx": [
    {
      "txid": "8194397336013be4770343e5c93455abedbe324666fd767c9f31102f7af69f24",
      "hash": "8194397336013be4770343e5c93455abedbe324666fd767c9f31102f7af69f24",
      "version": 1,
      "size": 134,
      "vsize": 134,
      "weight": 536,
      "locktime": 0,
      "vin": [
        {
          "coinbase": "04ffff001d013b",
          "sequence": 4294967295
        }
      ],
      "vout": [
        {
          "value": 50.0,
          "n": 0,
          "scriptPubKey": {
            "asm": "044d0f5b826a05d967e798d06feab915c44256d5133f7565b346acb4a29bd45b6eb9f8a5876b8c284f85318fb0f842a1a61968f120c174136c398a51891bce714a OP_CHECKSIG",
            "desc": "pk(044d0f5b826a05d967e798d06feab915c44256d5133f7565b346acb4a29bd45b6eb9f8a5876b8c284f85318fb0f842a1a61968f120c174136c398a51891bce714a)#4w50kz2r",
            "hex": "41044d0f5b826a05d967e798d06feab915c44256d5133f7565b346acb4a29bd45b6eb9f8a5876b8c284f85318fb0f842a1a61968f120c174136c398a51891bce714aac",
            "type": "pubkey"
          }
        }
      ],
      "hex": "01000000010000000000000000000000000000000000000000000000000000000000000000ffffffff0704ffff001d013bffffffff0100f2052a010000004341044d0f5b826a05d967e798d06feab915c44256d5133f7565b346acb4a29bd45b6eb9f8a5876b8c284f85318fb0f842a1a61968f120c174136c398a51891bce714aac00000000"
    }
  ]
}