{
  "hash": "0000000017f705cb7ed5be17eb1eb9d4af765c62810e985964322140a8347e28",
  "confirmations": 45886,
  "height": 7212,
  "version": 1,
  "versionHex": "00000001",
  "merkleroot": "c1813032640fe009143f7ab63665f1e986a10f74a80e23b361cafb3432a62b81",
  "time": 1236880777,
  "mediantime": 1236875911,
  "nonce": 3968258605,
  "bits": "1d00ffff",
  "difficulty": 1,
  "chainwork": "00000000000000000000000000000000000000000000000000001c2d1c2d1c2d",
  "nTx": 1,
  "previousblockhash": "00000000c4ba7c08aa7eae6210902548bdb3044b0c1b46414c7417a99a73b088",
  "nextblockhash": "000000009ffa11c17eadc59fd47257fea07b3a11d81509fa79ed39cfb54c117f",
  "strippedsize": 216,
  "size": 216,
  "weight": 864,
  "tx": [
    {
      "txid": "c1813032640fe009143f7ab63665f1e986a10f74a80e23b361cafb3432a62b81",
      "hash": "c1813032640fe009143f7ab63665f1e986a10f74a80e23b361cafb3432a62b81",
      "version": 1,
      "size": 135,
      "vsize": 135,
      "weight": 540,
      "locktime": 0,
      "vin": [
        {
          "coinbase": "04ffff001d02de05",
          "sequence": 4294967295
        }
      ],
      "vout": [
        {
          "value": 50.0,
          "n": 0,
          "scriptPubKey": {
            "asm": "041dab5134d47dc9264b4fe4fcc5035c669a2d64c43ef1165cfe416a6ccf387a0e8e6386d3693da1d61d1aa4ac76623884c619cbc7d8abcd43c59e587eeb9daac1 OP_CHECKSIG",
            "desc": "pk(041dab5134d47dc9264b4fe4fcc5035c669a2d64c43ef1165cfe416a6ccf387a0e8e6386d3693da1d61d1aa4ac76623884c619cbc7d8abcd43c59e587eeb9daac1)#0sf2q0v6",
            "hex": "41041dab5134d47dc9264b4fe4fcc5035c669a2d64c43ef1165cfe416a6ccf387a0e8e6386d3693da1d61d1aa4ac76623884c619cbc7d8abcd43c59e587eeb9daac1ac",
            "type": "pubkey"
          }
        }
      ],
      "hex": "01000000010000000000000000000000000000000000000000000000000000000000000000ffffffff0804ffff001d02de05ffffffff0100f2052a010000004341041dab5134d47dc9264b4fe4fcc5035c669a2d64c43ef1165cfe416a6ccf387a0e8e6386d3693da1d61d1aa4ac76623884c619cbc7d8abcd43c59e587eeb9daac1ac00000000"
    }
  ]
}