{
  "hash": "0000000040accb84a2356cb2cb1a730c27950c8a978b9951f28b1aec98db0524",
  "confirmations": 45078,
  "height": 8020,
  "version": 1,
  "versionHex": "00000001",
  "merkleroot": "f9d29a62c3f46298a0a11cc80b0f508d4da03a7e5e55a6375498c87d0659b8cd",
  "time": 1237476808,
  "mediantime": 1237473642,
  "nonce": 790723385,
  "bits": "1d00ffff",
  "difficulty": 1,
  "chainwork": "00000000000000000000000000000000000000000000000000001f551f551f55",
  "nTx": 1,
  "previousblockhash": "000000004d5ca107f6dbbad71dc433f132fbe8c935002dab3df03e910c1b7411",
  "nextblockhash": "0000000004562798713fa81fdff3f8960ed3eb53948a25b05559aaa4ad9c63df",
  "strippedsize": 216,
  "size": 216,
  "weight": 864,
  "tx": [
    {
      "txid": "f9d29a62c3f46298a0a11cc80b0f508d4da03a7e5e55a6375498c87d0659b8cd",
      "hash": "f9d29a62c3f46298a0a11cc80b0f508d4da03a7e5e55a6375498c87d0659b8cd",
      "version": 1,
      "size": 135,
      "vsize": 135,
      "weight": 540,
      "locktime": 0,
      "vin": [
        {
          "coinbase": "04ffff001d02d009",
          "sequence": 4294967295
        }
      ],
      "vout": [
        {
          "value": 50.0,
          "n": 0,
          "scriptPubKey": {
            "asm": "0452bead4e6251745b69b12813a34739c03a791401d90f73705116b31cdd537f3375492794fb73df560f5e34d4cd96e75fe33c59a07d7e8aa9b4ad76ef0cb2761d OP_CHECKSIG",
            "desc": "pk(0452bead4e6251745b69b12813a34739c03a791401d90f73705116b31cdd537f3375492794fb73df560f5e34d4cd96e75fe33c59a07d7e8aa9b4ad76ef0cb2761d)#00y3k4eg",
            "hex": "410452bead4e6251745b69b12813a34739c03a791401d90f73705116b31cdd537f3375492794fb73df560f5e34d4cd96e75fe33c59a07d7e8aa9b4ad76ef0cb2761dac",
            "type": "pubkey"
          }
        }
      ],
      "hex": "01000000010000000000000000000000000000000000000000000000000000000000000000ffffffff0804ffff001d02d009ffffffff0100f2052a0100000043410452bead4e6251745b69b12813a34739c03a791401d90f73705116b31cdd537f3375492794fb73df560f5e34d4cd96e75fe33c59a07d7e8aa9b4ad76ef0cb2761dac00000000"
    }
  ]
}