{
  "hash": "00000000218e64fdb5bd5e8d1a798da284c2fdbe26d966ce6851b54f4933cf41",
  "confirmations": 47073,
  "height": 6025,
  "version": 1,
  "versionHex": "00000001",
  "merkleroot": "e21b6ea0c634b13e04cc49c053abe4dba8945b4b1b7c14c2d525088f635cf7fe",
  "time": 1235949587,
  "mediantime": 1235944295,
  "nonce": 2790819330,
  "bits": "1d00ffff",
  "difficulty": 1,
  "chainwork": "0000000000000000000000000000000000000000000000000000178a178a178a",
  "nTx": 1,
  "previousblockhash": "00000000f1969a8d7c5bf8aa05dd5395abe392806655b798bd4973322eaa47db",
  "nextblockhash": "00000000d3dc73a054e18dcba96273a2a8017ffb6533d09cd0c1db1df8756d73",
  "strippedsize": 216,
  "size": 216,
  "weight": 864,
  "tx": [
    {
      "txid": "e21b6ea0c634b13e04cc49c053abe4dba8945b4b1b7c14c2d525088f635cf7fe",
      "hash": "e21b6ea0c634b13e04cc49c053abe4dba8945b4b1b7c14c2d525088f635cf7fe",
      "version": 1,
      "size": 135,
      "vsize": 135,
      "weight": 540,
      "locktime": 0,
      "vin": [
        {
          "coinbase": "04ffff001d026505",
          "sequence": 4294967295
        }
      ],
      "vout": [
        {
          "value": 50.0,
          "n": 0,
          "scriptPubKey": {
            "asm": "04da8e847fcb4056510efc9303e41c70ada4461dec0fba15632059270e7e5f27f97e094481ecc8a77554303279031a2c8d57b82f8458c8c5a9eeb0a04ca40b2ad0 OP_CHECKSIG",
            "desc": "pk(04da8e847fcb4056510efc9303e41c70ada4461dec0fba15632059270e7e5f27f97e094481ecc8a77554303279031a2c8d57b82f8458c8c5a9eeb0a04ca40b2ad0)#yfakuya4",
            "hex": "4104da8e847fcb4056510efc9303e41c70ada4461dec0fba15632059270e7e5f27f97e094481ecc8a77554303279031a2c8d57b82f8458c8c5a9eeb0a04ca40b2ad0ac",
            "type": "pubkey"
          }
        }
      ],
      "hex": "01000000010000000000000000000000000000000000000000000000000000000000000000ffffffff0804ffff001d026505ffffffff0100f2052a01000000434104da8e847fcb4056510efc9303e41c70ada4461dec0fba15632059270e7e5f27f97e094481ecc8a77554303279031a2c8d57b82f8458c8c5a9eeb0a04ca40b2ad0ac00000000"
    }
  ]
}