{
  "hash": "000000005ff9176bea60f69cc15fe74d97c5ee970ba99a6d5ce33396ea15ebd0",
  "confirmations": 48066,
  "height": 5032,
  "version": 1,
  "versionHex": "00000001",
  "merkleroot": "c5c3a4047fda8d391a97356a692cd74caa8c4ff752a8ddf824c5975ad4b11f81",
  "time": 1235161354,
  "mediantime": 1235157244,
  "nonce": 1697367046,
  "bits": "1d00ffff",
  "difficulty": 1,
  "chainwork": "000000000000000000000000000000000000000000000000000013a913a913a9",
  "nTx": 1,
  "previousblockhash": "0000000020510fc6ab7b2c0bc24fe4524d83cd9238f29619097fbf17fbad7331",
  "nextblockhash": "0000000015f5d05292b863e839cb89eb88c21274ff0ee4bc7ba673203c199eea",
  "strippedsize": 216,
  "size": 216,
  "weight": 864,
  "tx": [
    {
      "txid": "c5c3a4047fda8d391a97356a692cd74caa8c4ff752a8ddf824c5975ad4b11f81",
      "hash": "c5c3a4047fda8d391a97356a692cd74caa8c4ff752a8ddf824c5975ad4b11f81",
      "version": 1,
      "size": 135,
      "vsize": 135,
      "weight": 540,
      "locktime": 0,
      "vin": [
        {
          "coinbase": "04ffff001d029807",
          "sequence": 4294967295
        }
      ],
      "vout": [
        {
          "value": 50.0,
          "n": 0,
          "scriptPubKey": {
            "asm": "04efdbba998a80fa81b88c95d88b379cbbad51ee883dc80a92a31b871c96e7bfdcf93aee63c82d2322cde50f7cfb0bba17db1c60ad0ff13b2ea5e655fabdd7360e OP_CHECKSIG",
            "desc": "pk(04efdbba998a80fa81b88c95d88b379cbbad51ee883dc80a92a31b871c96e7bfdcf93aee63c82d2322cde50f7cfb0bba17db1c60ad0ff13b2ea5e655fabdd7360e)#2zjsxqhf",
            "hex": "4104efdbba998a80fa81b88c95d88b379cbbad51ee883dc80a92a31b871c96e7bfdcf93aee63c82d2322cde50f7cfb0bba17db1c60ad0ff13b2ea5e655fabdd7360eac",
            "type": "pubkey"
          }
        }
      ],
      "hex": "01000000010000000000000000000000000000000000000000000000000000000000000000ffffffff0804ffff001d029807ffffffff0100f2052a01000000434104efdbba998a80fa81b88c95d88b379cbbad51ee883dc80a92a31b871c96e7bfdcf93aee63c82d2322cde50f7cfb0bba17db1c60ad0ff13b2ea5e655fabdd7360eac00000000"
    }
  ]
}