{
  "hash": "00000000695bfd635ef616f7784ff80b9458fc2c967008241c356c1aba796fb3",
  "confirmations": 44202,
  "height": 8896,
  "version": 1,
  "versionHex": "00000001",
  "merkleroot": "8a9203757a8d20c4a7938cd5decdd3f11ae36eb87fd217ada015e0c6145efba6",
  "time": 1238175386,
  "mediantime": 1238171101,
  "nonce": 2994442797,
  "bits": "1d00ffff",
  "difficulty": 1,
  "chainwork": "000000000000000000000000000000000000000000000000000022c122c122c1",
  "nTx": 1,
  "previousblockhash": "000000005a0f22af67816e3f62c05e64a7c3a9d451e7aa1312ad896e1c2f82d5",
  "nextblockhash": "0000000097f6a39d0e65f5d3b76083ffabc4312760f5b0d9bb16e72032cc1863",
  "strippedsize": 216,
  "size": 216,
  "weight": 864,
  "tx": [
    {
      "txid": "8a9203757a8d20c4a7938cd5decdd3f11ae36eb87fd217ada015e0c6145efba6",
      "hash": "8a9203757a8d20c4a7938cd5decdd3f11ae36eb87fd217ada015e0c6145efba6",
      "version": 1,
      "size": 135,
      "vsize": 135,
      "weight": 540,
      "locktime": 0,
      "vin": [
        {
          "coinbase": "04ffff001d025604",
          "sequence": 4294967295
        }
      ],
      "vout": [
        {
          "value": 50.0,
          "n": 0,
          "scriptPubKey": {
            "asm": "04e26a715df65e7713d86151bc1d1b2299ebbe6606c16094d93c0c20f744d16d33bdad9faf8dfad6c6393782e9756354f67fdd4aa8ea1d53036adcff2296b15b77 OP_CHECKSIG",
            "desc": "pk(04e26a715df65e7713d86151bc1d1b2299ebbe6606c16094d93c0c20f744d16d33bdad9faf8dfad6c6393782e9756354f67fdd4aa8ea1d53036adcff2296b15b77)#sugfm25n",
            "hex": "4104e26a715df65e7713d86151bc1d1b2299ebbe6606c16094d93c0c20f744d16d33bdad9faf8dfad6c6393782e9756354f67fdd4aa8ea1d53036adcff2296b15b77ac",
            "type": "pubkey"
          }
        }
      ],
      "hex": "01000000010000000000000000000000000000000000000000000000000000000000000000ffffffff0804ffff001d025604ffffffff0100f2052a01000000434104e26a715df65e7713d86151bc1d1b2299ebbe6606c16094d93c0c20f744d16d33bdad9faf8dfad6c6393782e9756354f67fdd4aa8ea1d53036adcff2296b15b77ac00000000"
    }
  ]
}