{
  "hash": "0000000037a74bef375488f46021f90d3690317a16f885a4e8f41e255d5dde09",
  "confirmations": 51928,
  "height": 1170,
  "version": 1,
  "versionHex": "00000001",
  "merkleroot": "593c2241a6a6455437f77d8acf646764bc3bfa0e84132e26942bbe9a460680e8",
  "time": 1232476860,
  "mediantime": 1232472056,
  "nonce": 712193055,
  "bits": "1d00ffff",
  "difficulty": 1,
  "chainwork": "0000000000000000000000000000000000000000000000000000049304930493",
  "nTx": 1,
  "previousblockhash": "00000000e387669a236a5a5aa809b33ec8f9dd4cd5d9bffe017ee5f20f004a46",
  "nextblockhash": "00000000cf0fd555a9230400d78e655f1f5f44534897e3942d96f27076095405",
  "strippedsize": 216,
  "size": 216,
  "weight": 864,
  "tx": [
    {
      "txid": "593c2241a6a6455437f77d8acf646764bc3bfa0e84132e26942bbe9a460680e8",
      "hash": "593c2241a6a6455437f77d8acf646764bc3bfa0e84132e26942bbe9a460680e8",
      "version": 1,
      "size": 135,
      "vsize": 135,
      "weight": 540,
      "locktime": 0,
      "vin": [
        {
          "coinbase": "04ffff001d022308",
          "sequence": 4294967295
        }
      ],
      "vout": [
        {
          "value": 50.0,
          "n": 0,
          "scriptPubKey": {
            "asm": "04c7f8d532a056eee5f6341f36a1a67bc15886994371cccef3f6c436acb105c82f2c51de928e339912a1f12d48333e1c3b5f8d9067c1a9987ac6b5056d1b99a701 OP_CHECKSIG",
            "desc": "pk(04c7f8d532a056eee5f6341f36a1a67bc15886994371cccef3f6c436acb105c82f2c51de928e339912a1f12d48333e1c3b5f8d9067c1a9987ac6b5056d1b99a701)#k559g9c2",
            "hex": "4104c7f8d532a056eee5f6341f36a1a67bc15886994371cccef3f6c436acb105c82f2c51de928e339912a1f12d48333e1c3b5f8d9067c1a9987ac6b5056d1b99a701ac",
            "type": "pubkey"
          }
        }
      ],
      "hex": "01000000010000000000000000000000000000000000000000000000000000000000000000ffffffff0804ffff001d022308ffffffff0100f2052a01000000434104c7f8d532a056eee5f6341f36a1a67bc15886994371cccef3f6c436acb105c82f2c51de928e339912a1f12d48333e1c3b5f8d9067c1a9987ac6b5056d1b99a701ac00000000"
    }
  ]
}