{
  "hash": "000000007640f80b4355a643ae4791394f14299dffa196c99247f39957fe8c19",
  "confirmations": 51755,
  "height": 1343,
  "version": 1,
  "versionHex": "00000001",
  "merkleroot": "1154c34f5beed66ed741395bfcc3ad84da68a1c88c4f248aa4fb4c6acc55afea",
  "time": 1232634666,
  "mediantime": 1232631018,
  "nonce": 2558933766,
  "bits": "1d00ffff",
  "difficulty": 1,
  "chainwork": "0000000000000000000000000000000000000000000000000000054005400540",
  "nTx": 1,
  "previousblockhash": "00000000b8a728c30ad7acb0b86a0dbd5e4457b388431ea9cc61be8905bd60d2",
  "nextblockhash": "0000000006d5f5fabc6f0a3234a96583cfe534d9dc170067291cbfdad65cb2b1",
  "strippedsize": 216,
  "size": 216,
  "weight": 864,
  "tx": [
    {
      "txid": "1154c34f5beed66ed741395bfcc3ad84da68a1c88c4f248aa4fb4c6acc55afea",
      "hash": "1154c34f5beed66ed741395bfcc3ad84da68a1c88c4f248aa4fb4c6acc55afea",
      "version": 1,
      "size": 135,
      "vsize": 135,
      "weight": 540,
      "locktime": 0,
      "vin": [
        {
          "coinbase": "04ffff001d020c01",
          "sequence": 4294967295
        }
      ],
      "vout": [
        {
          "value": 50.0,
          "n": 0,
          "scriptPubKey": {
            "asm": "04124ec46eb494c6ad09d44e9ca8848f6405791712f28a9d4ce2b9f3c75ef9e3a48644be56f5d034f3e59b8b0264e6817a146e57c0a652b0ec7e0db3dd65976e79 OP_CHECKSIG",
            "desc": "pk(04124ec46eb494c6ad09d44e9ca8848f6405791712f28a9d4ce2b9f3c75ef9e3a48644be56f5d034f3e59b8b0264e6817a146e57c0a652b0ec7e0db3dd65976e79)#uc2dfqm9",
            "hex": "4104124ec46eb494c6ad09d44e9ca8848f6405791712f28a9d4ce2b9f3c75ef9e3a48644be56f5d034f3e59b8b0264e6817a146e57c0a652b0ec7e0db3dd65976e79ac",
            "type": "pubkey"
          }
        }
      ],
      "hex": "01000000010000000000000000000000000000000000000000000000000000000000000000ffffffff0804ffff001d020c01ffffffff0100f2052a01000000434104124ec46eb494c6ad09d44e9ca8848f6405791712f28a9d4ce2b9f3c75ef9e3a48644be56f5d034f3e59b8b0264e6817a146e57c0a652b0ec7e0db3dd65976e79ac00000000"
    }
  ]
}