{
  "hash": "000000007dce0a462058ba41965c44be67766dffd42b87f02804a4f257bd3ad2",
  "confirmations": 48103,
  "height": 4995,
  "version": 1,
  "versionHex": "00000001",
  "merkleroot": "e164e4c28e8b39623ec43577902098fb70776cdd3f6bca9cae36b0c207c95e55",
  "time": 1235133137,
  "mediantime": 1235131840,
  "nonce": 68497643,
  "bits": "1d00ffff",
  "difficulty": 1,
  "chainwork": "0000000000000000000000000000000000000000000000000000138413841384",
  "nTx": 1,
  "previousblockhash": "000000000d1a13f38e7174bd1eb3a87c0690511759b46b601fe452f319b09e4d",
  "nextblockhash": "0000000067088c4f789903333a7e50cc34cbd5784f96d2a112670b5b571cd077",
  "strippedsize": 216,
  "size": 216,
  "weight": 864,
  "tx": [
    {
      "txid": "e164e4c28e8b39623ec43577902098fb70776cdd3f6bca9cae36b0c207c95e55",
      "hash": "e164e4c28e8b39623ec43577902098fb70776cdd3f6bca9cae36b0c207c95e55",
      "version": 1,
      "size": 135,
      "vsize": 135,
      "weight": 540,
      "locktime": 0,
      "vin": [
        {
          "coinbase": "04ffff001d021c0c",
          "sequence": 4294967295
        }
      ],
      "vout": [
        {
          "value": 50.0,
          "n": 0,
          "scriptPubKey": {
            "asm": "0463617c3e64c4cb9e6911a74ecd6786e29a8aca31069325496dff6d3a3691bea488ce1793bc38d52ec086c9dfb3d9aeb7988173ccb008b4628a83b688ddc4c9d9 OP_CHECKSIG",
            "desc": "pk(0463617c3e64c4cb9e6911a74ecd6786e29a8aca31069325496dff6d3a3691bea488ce1793bc38d52ec086c9dfb3d9aeb7988173ccb008b4628a83b688ddc4c9d9)#vx5qnlkz",
            "hex": "410463617c3e64c4cb9e6911a74ecd6786e29a8aca31069325496dff6d3a3691bea488ce1793bc38d52ec086c9dfb3d9aeb7988173ccb008b4628a83b688ddc4c9d9ac",
            "type": "pubkey"
          }
        }
      ],
      "hex": "01000000010000000000000000000000000000000000000000000000000000000000000000ffffffff0804ffff001d021c0cffffffff0100f2052a0100000043410463617c3e64c4cb9e6911a74ecd6786e29a8aca31069325496dff6d3a3691bea488ce1793bc38d52ec086c9dfb3d9aeb7988173ccb008b4628a83b688ddc4c9d9ac00000000"
    }
  ]
}