{
  "hash": "000000006d7551a9a291f139ee27688b182fa30a33fe62af9da5c589fca157e0",
  "confirmations": 43283,
  "height": 9815,
  "version": 1,
  "versionHex": "00000001",
  "merkleroot": "a85acfc81206b06143424428c462a2e267dcc9fe582d97a054b2ffee896f7dd9",
  "time": 1238865363,
  "mediantime": 1238861350,
  "nonce": 4159975710,
  "bits": "1d00ffff",
  "difficulty": 1,
  "chainwork": "0000000000000000000000000000000000000000000000000000265826582658",
  "nTx": 1,
  "previousblockhash": "000000007fa0dae8be3bc397597f379bb57dd91e7f3b29836ff5dcb419864da6",
  "nextblockhash": "000000004bdaff9104c05a421be7dcaff6d2a818711f11d20f73d8c55f3cd372",
  "strippedsize": 216,
  "size": 216,
  "weight": 864,
  "tx": [
    {
      "txid": "a85acfc81206b06143424428c462a2e267dcc9fe582d97a054b2ffee896f7dd9",
      "hash": "a85acfc81206b06143424428c462a2e267dcc9fe582d97a054b2ffee896f7dd9",
      "version": 1,
      "size": 135,
      "vsize": 135,
      "weight": 540,
      "locktime": 0,
      "vin": [
        {
          "coinbase": "04ffff001d028600",
          "sequence": 4294967295
        }
      ],
      "vout": [
        {
          "value": 50.0,
          "n": 0,
          "scriptPubKey": {
            "asm": "046d1d812ab5d28bf16dc03007108f4b7a9517302d8c8d956fb5e3b085946d877527508cae5aa7ff6061d818cf94ea54cee4e129ca93339b2e003c3ae6c8756897 OP_CHECKSIG",
            "desc": "pk(046d1d812ab5d28bf16dc03007108f4b7a9517302d8c8d956fb5e3b085946d877527508cae5aa7ff6061d818cf94ea54cee4e129ca93339b2e003c3ae6c8756897)#yzay7qt3",
            "hex": "41046d1d812ab5d28bf16dc03007108f4b7a9517302d8c8d956fb5e3b085946d877527508cae5aa7ff6061d818cf94ea54cee4e129ca93339b2e003c3ae6c8756897ac",
            "type": "pubkey"
          }
        }
      ],
      "hex": "01000000010000000000000000000000000000000000000000000000000000000000000000ffffffff0804ffff001d028600ffffffff0100f2052a010000004341046d1d812ab5d28bf16dc03007108f4b7a9517302d8c8d956fb5e3b085946d877527508cae5aa7ff6061d818cf94ea54cee4e129ca93339b2e003c3ae6c8756897ac00000000"
    }
  ]
}