{
  "hash": "000000002c1bcf6765602f5fb4e250000a672a98b657c5e3c1cce1fc1193bab5",
  "confirmations": 43130,
  "height": 9968,
  "version": 1,
  "versionHex": "00000001",
  "merkleroot": "fd4c6539aa2da55d361929f0734d5198023a738d87cb736ca5969331e18eb73e",
  "time": 1238969445,
  "mediantime": 1238964883,
  "nonce": 2868065536,
  "bits": "1d00ffff",
  "difficulty": 1,
  "chainwork": "000000000000000000000000000000000000000000000000000026f126f126f1",
  "nTx": 1,
  "previousblockhash": "0000000004bd76435430c3ec3f313a7935c48782c7313c3519488ef6a348acab",
  "nextblockhash": "00000000b94ac5e08ca0e3e56cb5951109e30b8a5b7b97f8b106a6d7ec14a4ee",
  "strippedsize": 216,
  "size": 216,
  "weight": 864,
  "tx": [
    {
      "txid": "fd4c6539aa2da55d361929f0734d5198023a738d87cb736ca5969331e18eb73e",
      "hash": "fd4c6539aa2da55d361929f0734d5198023a738d87cb736ca5969331e18eb73e",
      "version": 1,
      "size": 135,
      "vsize": 135,
      "weight": 540,
      "locktime": 0,
      "vin": [
        {
          "coinbase": "04ffff001d02f802",
          "sequence": 4294967295
        }
      ],
      "vout": [
        {
          "value": 50.0,
          "n": 0,
          "scriptPubKey": {
            "asm": "04243eb45332800622b0693f4dbec0a51b49d8c4a3c1bde9ab2c15ab7850481d2a1a8dbc5add3d8b42d1eb9964506aad08020ddc7b43212da004694a8cb6889922 OP_CHECKSIG",
            "desc": "pk(04243eb45332800622b0693f4dbec0a51b49d8c4a3c1bde9ab2c15ab7850481d2a1a8dbc5add3d8b42d1eb9964506aad08020ddc7b43212da004694a8cb6889922)#vwl6sjhg",
            "hex": "4104243eb45332800622b0693f4dbec0a51b49d8c4a3c1bde9ab2c15ab7850481d2a1a8dbc5add3d8b42d1eb9964506aad08020ddc7b43212da004694a8cb6889922ac",
            "type": "pubkey"
          }
        }
      ],
      "hex": "01000000010000000000000000000000000000000000000000000000000000000000000000ffffffff0804ffff001d02f802ffffffff0100f2052a01000000434104243eb45332800622b0693f4dbec0a51b49d8c4a3c1bde9ab2c15ab7850481d2a1a8dbc5add3d8b42d1eb9964506aad08020ddc7b43212da004694a8cb6889922ac00000000"
    }
  ]
}