{
  "hash": "00000000ee9986ac9a76dc81bfe5919cef796697d3f3417a00861c2d5f08effe",
  "confirmations": 46431,
  "height": 6667,
  "version": 1,
  "versionHex": "00000001",
  "merkleroot": "36354c946e6bf6f09bf34efe0e56d59000a8ca2dbc34f52113638d4929a8d167",
  "time": 1236457109,
  "mediantime": 1236452498,
  "nonce": 1545898499,
  "bits": "1d00ffff",
  "difficulty": 1,
  "chainwork": "00000000000000000000000000000000000000000000000000001a0c1a0c1a0c",
  "nTx": 1,
  "previousblockhash": "000000007e2811a6012b2f6b797ef936a1bfccf2f00e150ca8fa28fafaf0638c",
  "nextblockhash": "000000005fc3c5e1f29ea3d5e11501857733ebb3ecbff103ca1b42164dbb0c74",
  "strippedsize": 216,
  "size": 216,
  "weight": 864,
  "tx": [
    {
      "txid": "36354c946e6bf6f09bf34efe0e56d59000a8ca2dbc34f52113638d4929a8d167",
      "hash": "36354c946e6bf6f09bf34efe0e56d59000a8ca2dbc34f52113638d4929a8d167",
      "version": 1,
      "size": 135,
      "vsize": 135,
      "weight": 540,
      "locktime": 0,
      "vin": [
        {
          "coinbase": "04ffff001d026506",
          "sequence": 4294967295
        }
      ],
      "vout": [
        {
          "value": 50.0,
          "n": 0,
          "scriptPubKey": {
            "asm": "0477abb39b37e7d8e58c02220b18142fd920d8b7fe25abe5ef0ce046312df43b1de655c2bef2fc53901d27b93eb232d4233091050ed113f7ed608b98c81bc7600d OP_CHECKSIG",
            "desc": "pk(0477abb39b37e7d8e58c02220b18142fd920d8b7fe25abe5ef0ce046312df43b1de655c2bef2fc53901d27b93eb232d4233091050ed113f7ed608b98c81bc7600d)#qa2r5jca",
            "hex": "410477abb39b37e7d8e58c02220b18142fd920d8b7fe25abe5ef0ce046312df43b1de655c2bef2fc53901d27b93eb232d4233091050ed113f7ed608b98c81bc7600dac",
            "type": "pubkey"
          }
        }
      ],
      "hex": "01000000010000000000000000000000000000000000000000000000000000000000000000ffffffff0804ffff001d026506ffffffff0100f2052a0100000043410477abb39b37e7d8e58c02220b18142fd920d8b7fe25abe5ef0ce046312df43b1de655c2bef2fc53901d27b93eb232d4233091050ed113f7ed608b98c81bc7600dac00000000"
    }
  ]
}