{
  "hash": "00000000e01c1272124aaaaa8c9ea3d16e16d8f7f0bc7300326da5c21311bed5",
  "confirmations": 46016,
  "height": 7082,
  "version": 1,
  "versionHex": "00000001",
  "merkleroot": "5edf73ba821804dd10ef9ba1ab12891552fb156a775a354609dd390734443d08",
  "time": 1236782333,
  "mediantime": 1236777455,
  "nonce": 445901879,
  "bits": "1d00ffff",
  "difficulty": 1,
  "chainwork": "00000000000000000000000000000000000000000000000000001bab1bab1bab",
  "nTx": 1,
  "previousblockhash": "00000000487c1dc00849fd069a73009c4f1086c153585b40a30d925ad705cdb8",
  "nextblockhash": "00000000cbbb4b09e70b5f12c082567597686c6e7d24174e6b1d9f18dbe90bd0",
  "strippedsize": 216,
  "size": 216,
  "weight": 864,
  "tx": [
    {
      "txid": "5edf73ba821804dd10ef9ba1ab12891552fb156a775a354609dd390734443d08",
      "hash": "5edf73ba821804dd10ef9ba1ab12891552fb156a775a354609dd390734443d08",
      "version": 1,
      "size": 135,
      "vsize": 135,
      "weight": 540,
      "locktime": 0,
      "vin": [
        {
          "coinbase": "04ffff001d02b203",
          "sequence": 4294967295
        }
      ],
      "vout": [
        {
          "value": 50.0,
          "n": 0,
          "scriptPubKey": {
            "asm": "04b04e9f1b895a13fadc5a68ffb0a17d31a3dff9300c10e372fddc2af9f70c8f4e86d05bdc3635fffddc33abe6e898dfacd1b0598649d870d359d993aa49948eb7 OP_CHECKSIG",
            "desc": "pk(04b04e9f1b895a13fadc5a68ffb0a17d31a3dff9300c10e372fddc2af9f70c8f4e86d05bdc3635fffddc33abe6e898dfacd1b0598649d870d359d993aa49948eb7)#u5ese07c",
            "hex": "4104b04e9f1b895a13fadc5a68ffb0a17d31a3dff9300c10e372fddc2af9f70c8f4e86d05bdc3635fffddc33abe6e898dfacd1b0598649d870d359d993aa49948eb7ac",
            "type": "pubkey"
          }
        }
      ],
      "hex": "01000000010000000000000000000000000000000000000000000000000000000000000000ffffffff0804ffff001d02b203ffffffff0100f2052a01000000434104b04e9f1b895a13fadc5a68ffb0a17d31a3dff9300c10e372fddc2af9f70c8f4e86d05bdc3635fffddc33abe6e898dfacd1b0598649d870d359d993aa49948eb7ac00000000"
    }
  ]
}