{
  "hash": "00000000eae98bf15e531e004bcaffdf3c5c5cc6444c52a9fd0f82101249ba95",
  "confirmations": 52563,
  "height": 535,
  "version": 1,
  "versionHex": "00000001",
  "merkleroot": "15b81bd56b6ce291682bd5d9fbe01e7a75b8228c2e3902cc87b40e16b06505d1",
  "time": 1231991724,
  "mediantime": 1231988141,
  "nonce": 4066104874,
  "bits": "1d00ffff",
  "difficulty": 1,
  "chainwork": "0000000000000000000000000000000000000000000000000000021802180218",
  "nTx": 1,
  "previousblockhash": "00000000827d29aff6dd1f65c772885502960a7416957e5a00dfcff8a4374bdc",
  "nextblockhash": "0000000026c22aef6ad239ed7cce10ee37ea91fffd280bc581f4e8e705106ba5",
  "strippedsize": 216,
  "size": 216,
  "weight": 864,
  "tx": [
    {
      "txid": "15b81bd56b6ce291682bd5d9fbe01e7a75b8228c2e3902cc87b40e16b06505d1",
      "hash": "15b81bd56b6ce291682bd5d9fbe01e7a75b8228c2e3902cc87b40e16b06505d1",
      "version": 1,
      "size": 135,
      "vsize": 135,
      "weight": 540,
      "locktime": 0,
      "vin": [
        {
          "coinbase": "04ffff001d025605",
          "sequence": 4294967295
        }
      ],
      "vout": [
        {
          "value": 50.0,
          "n": 0,
          "scriptPubKey": {
            "asm": "04ef347ad9258416adb74114cc5d0a00f04a1bdb51ed42ec9dc50a7bf0256172b2436749b5cf8bd5b5b7c50aa190e54b3408501c012d50a824d1e7fad90e763ae3 OP_CHECKSIG",
            "desc": "pk(04ef347ad9258416adb74114cc5d0a00f04a1bdb51ed42ec9dc50a7bf0256172b2436749b5cf8bd5b5b7c50aa190e54b3408501c012d50a824d1e7fad90e763ae3)#f3ne770u",
            "hex": "4104ef347ad9258416adb74114cc5d0a00f04a1bdb51ed42ec9dc50a7bf0256172b2436749b5cf8bd5b5b7c50aa190e54b3408501c012d50a824d1e7fad90e763ae3ac",
            "type": "pubkey"
          }
        }
      ],
      "hex": "01000000010000000000000000000000000000000000000000000000000000000000000000ffffffff0804ffff001d025605ffffffff0100f2052a01000000434104ef347ad9258416adb74114cc5d0a00f04a1bdb51ed42ec9dc50a7bf0256172b2436749b5cf8bd5b5b7c50aa190e54b3408501c012d50a824d1e7fad90e763ae3ac00000000"
    }
  ]
}