{
  "hash": "000000008d2cb17c35fcc238c878883646c6a9797211bd46c5e30076fa7f08d3",
  "confirmations": 51759,
  "height": 1339,
  "version": 1,
  "versionHex": "00000001",
  "merkleroot": "6082db786ee30f771d5d6f9b05bda44f5a2f6cebbdc737805081f03bb0b05a16",
  "time": 1232631547,
  "mediantime": 1232626632,
  "nonce": 2684438825,
  "bits": "1d00ffff",
  "difficulty": 1,
  "chainwork": "0000000000000000000000000000000000000000000000000000053c053c053c",
  "nTx": 1,
  "previousblockhash": "000000006bfee7e986540759c8b18085b8f6cdbbae8bdefe8e5bc12086c25777",
  "nextblockhash": "00000000324093ac23a52cab4b9c6e17675818d4ab49b071dc5263eea1379c6c",
  "strippedsize": 216,
  "size": 216,
  "weight": 864,
  "tx": [
    {
      "txid": "6082db786ee30f771d5d6f9b05bda44f5a2f6cebbdc737805081f03bb0b05a16",
      "hash": "6082db786ee30f771d5d6f9b05bda44f5a2f6cebbdc737805081f03bb0b05a16",
      "version": 1,
      "size": 135,
      "vsize": 135,
      "weight": 540,
      "locktime": 0,
      "vin": [
        {
          "coinbase": "04ffff001d020201",
          "sequence": 4294967295
        }
      ],
      "vout": [
        {
          "value": 50.0,
          "n": 0,
          "scriptPubKey": {
            "asm": "042966ad86288b553d5da36db4f41d604d02f6a48e3d93a3dd9abdafdd361693b457ddaee739c33b6b1954f6beeda8433348f3f43a3d88e7875c1a40dd9cb80011 OP_CHECKSIG",
            "desc": "pk(042966ad86288b553d5da36db4f41d604d02f6a48e3d93a3dd9abdafdd361693b457ddaee739c33b6b1954f6beeda8433348f3f43a3d88e7875c1a40dd9cb80011)#n4sdtx4y",
            "hex": "41042966ad86288b553d5da36db4f41d604d02f6a48e3d93a3dd9abdafdd361693b457ddaee739c33b6b1954f6beeda8433348f3f43a3d88e7875c1a40dd9cb80011ac",
            "type": "pubkey"
          }
        }
      ],
      "hex": "01000000010000000000000000000000000000000000000000000000000000000000000000ffffffff0804ffff001d020201ffffffff0100f2052a010000004341042966ad86288b553d5da36db4f41d604d02f6a48e3d93a3dd9abdafdd361693b457ddaee739c33b6b1954f6beeda8433348f3f43a3d88e7875c1a40dd9cb80011ac00000000"
    }
  ]
}