{
  "hash": "0000000012650c830b5f7274c1161ac090ab727a457fd25dbe436137ced84363",
  "confirmations": 47318,
  "height": 5780,
  "version": 1,
  "versionHex": "00000001",
  "merkleroot": "40dc8047beca29b84d1613a3efebaf5746331abbe424203523a37fd78131fbf2",
  "time": 1235744731,
  "mediantime": 1235741288,
  "nonce": 795864340,
  "bits": "1d00ffff",
  "difficulty": 1,
  "chainwork": "0000000000000000000000000000000000000000000000000000169516951695",
  "nTx": 1,
  "previousblockhash": "000000006950a126ea4be46f40412a2c40c580d075cbc57653fef2167aa5d295",
  "nextblockhash": "00000000211bb5d4ed9b771e78628015593cd1c381956f48e5b1b1daf598041e",
  "strippedsize": 215,
  "size": 215,
  "weight": 860,
  "tx": [
    {
      "txid": "40dc8047beca29b84d1613a3efebaf5746331abbe424203523a37fd78131fbf2",
      "hash": "40dc8047beca29b84d1613a3efebaf5746331abbe424203523a37fd78131fbf2",
      "version": 1,
      "size": 134,
      "vsize": 134,
      "weight": 536,
      "locktime": 0,
      "vin": [
        {
          "coinbase": "04ffff001d0177",
          "sequence": 4294967295
        }
      ],
      "vout": [
        {
          "value": 50.0,
          "n": 0,
          "scriptPubKey": {
            "asm": "04d41889ba9889ec0c78a19dcf57b749d0d3c17eda079ff5417e3611d468fe5b58666ebcacf139a6ed7d17761689002e0a9153051b38dfed65cdeff96247ed05c6 OP_CHECKSIG",
            "desc": "pk(04d41889ba9889ec0c78a19dcf57b749d0d3c17eda079ff5417e3611d468fe5b58666ebcacf139a6ed7d17761689002e0a9153051b38dfed65cdeff96247ed05c6)#nulyqfcx",
            "hex": "4104d41889ba9889ec0c78a19dcf57b749d0d3c17eda079ff5417e3611d468fe5b58666ebcacf139a6ed7d17761689002e0a9153051b38dfed65cdeff96247ed05c6ac",
            "type": "pubkey"
          }
        }
      ],
      "hex": "01000000010000000000000000000000000000000000000000000000000000000000000000ffffffff0704ffff001d0177ffffffff0100f2052a01000000434104d41889ba9889ec0c78a19dcf57b749d0d3c17eda079ff5417e3611d468fe5b58666ebcacf139a6ed7d17761689002e0a9153051b38dfed65cdeff96247ed05c6ac00000000"
    }
  ]
}