{
  "hash": "00000000e6c6176e34c2a981c13a16ebd4db095e0f4baa3a4b0cd9f65bed793f",
  "confirmations": 43342,
  "height": 9756,
  "version": 1,
  "versionHex": "00000001",
  "merkleroot": "819b4199efef51b7fa45e58bf72a035aff8244ac4705f09bac3cae2919fcd08f",
  "time": 1238820932,
  "mediantime": 1238817144,
  "nonce": 1069513498,
  "bits": "1d00ffff",
  "difficulty": 1,
  "chainwork": "0000000000000000000000000000000000000000000000000000261d261d261d",
  "nTx": 1,
  "previousblockhash": "00000000e2784200286121758beef4e8d0e279d6056ff648efa3c9470756619d",
  "nextblockhash": "00000000b83466f4f18fab25c16b2ebbefabae19bbf8f8dcfd8de0c2f5674b24",
  "strippedsize": 216,
  "size": 216,
  "weight": 864,
  "tx": [
    {
      "txid": "819b4199efef51b7fa45e58bf72a035aff8244ac4705f09bac3cae2919fcd08f",
      "hash": "819b4199efef51b7fa45e58bf72a035aff8244ac4705f09bac3cae2919fcd08f",
      "version": 1,
      "size": 135,
      "vsize": 135,
      "weight": 540,
      "locktime": 0,
      "vin": [
        {
          "coinbase": "04ffff001d02d709",
          "sequence": 4294967295
        }
      ],
      "vout": [
        {
          "value": 50.0,
          "n": 0,
          "scriptPubKey": {
            "asm": "048234997b080589c2596773696dc0eb925ed008f305f7a0de68a9f4cc2e665cca3d6ad8dbb8c0c651739523efdda580f8e7a19b30eab82e70b9a15bbd9a424067 OP_CHECKSIG",
            "desc": "pk(048234997b080589c2596773696dc0eb925ed008f305f7a0de68a9f4cc2e665cca3d6ad8dbb8c0c651739523efdda580f8e7a19b30eab82e70b9a15bbd9a424067)#rejqlang",
            "hex": "41048234997b080589c2596773696dc0eb925ed008f305f7a0de68a9f4cc2e665cca3d6ad8dbb8c0c651739523efdda580f8e7a19b30eab82e70b9a15bbd9a424067ac",
            "type": "pubkey"
          }
        }
      ],
      "hex": "01000000010000000000000000000000000000000000000000000000000000000000000000ffffffff0804ffff001d02d709ffffffff0100f2052a010000004341048234997b080589c2596773696dc0eb925ed008f305f7a0de68a9f4cc2e665cca3d6ad8dbb8c0c651739523efdda580f8e7a19b30eab82e70b9a15bbd9a424067ac00000000"
    }
  ]
}