{
  "hash": "000000003e68eadecbbd5bd683cbf336ae96bbb650085595aaff3f2be0724ba1",
  "confirmations": 44320,
  "height": 8778,
  "version": 1,
  "versionHex": "00000001",
  "merkleroot": "15f7f2096c99bbea9c9f7e75e832105080b180f1657365335b1add5b66ccef5a",
  "time": 1238084120,
  "mediantime": 1238079222,
  "nonce": 46574628,
  "bits": "1d00ffff",
  "difficulty": 1,
  "chainwork": "0000000000000000000000000000000000000000000000000000224b224b224b",
  "nTx": 1,
  "previousblockhash": "0000000096d8c76027a64ef1b9dbf12737ffad0a05fcd7cf33f68bb74e11b78d",
  "nextblockhash": "000000007e982c1dfb6d928c0c185bba82f9bef5eed09f193454bec8a0bfb6ab",
  "strippedsize": 216,
  "size": 216,
  "weight": 864,
  "tx": [
    {
      "txid": "15f7f2096c99bbea9c9f7e75e832105080b180f1657365335b1add5b66ccef5a",
      "hash": "15f7f2096c99bbea9c9f7e75e832105080b180f1657365335b1add5b66ccef5a",
      "version": 1,
      "size": 135,
      "vsize": 135,
      "weight": 540,
      "locktime": 0,
      "vin": [
        {
          "coinbase": "04ffff001d023202",
          "sequence": 4294967295
        }
      ],
      "vout": [
        {
          "value": 50.0,
          "n": 0,
          "scriptPubKey": {
            "asm": "0401396478246437f033ef9516adc88da8369573761fe830e4774b5a9d6c9c6578431855734ef654000465fe70d70b9e7112f57f0c9ae66974a2187104b0884530 OP_CHECKSIG",
            "desc": "pk(0401396478246437f033ef9516adc88da8369573761fe830e4774b5a9d6c9c6578431855734ef654000465fe70d70b9e7112f57f0c9ae66974a2187104b0884530)#u6ky68ag",
            "hex": "410401396478246437f033ef9516adc88da8369573761fe830e4774b5a9d6c9c6578431855734ef654000465fe70d70b9e7112f57f0c9ae66974a2187104b0884530ac",
            "type": "pubkey"
          }
        }
      ],
      "hex": "01000000010000000000000000000000000000000000000000000000000000000000000000ffffffff0804ffff001d023202ffffffff0100f2052a0100000043410401396478246437f033ef9516adc88da8369573761fe830e4774b5a9d6c9c6578431855734ef654000465fe70d70b9e7112f57f0c9ae66974a2187104b0884530ac00000000"
    }
  ]
}