{
  "hash": "00000000a5815d732899aad3fe8c69348707e022dec60cad4f92b27e1de8ff18",
  "confirmations": 50163,
  "height": 2935,
  "version": 1,
  "versionHex": "00000001",
  "merkleroot": "925c826c929ce6a52c0ccfea9eba7dfada3990471fd3d4969aa18e1f8a1da2d7",
  "time": 1233714592,
  "mediantime": 1233710874,
  "nonce": 2861917464,
  "bits": "1d00ffff",
  "difficulty": 1,
  "chainwork": "00000000000000000000000000000000000000000000000000000b780b780b78",
  "nTx": 1,
  "previousblockhash": "0000000073ac184e60c6f799690cc042a8193c60d71c296c2bdcb96348d8c5f7",
  "nextblockhash": "0000000024bf107e716056fa59bc1ea7d61d531504a2d487e14fbfd139c1f000",
  "strippedsize": 215,
  "size": 215,
  "weight": 860,
  "tx": [
    {
      "txid": "925c826c929ce6a52c0ccfea9eba7dfada3990471fd3d4969aa18e1f8a1da2d7",
      "hash": "925c826c929ce6a52c0ccfea9eba7dfada3990471fd3d4969aa18e1f8a1da2d7",
      "version": 1,
      "size": 134,
      "vsize": 134,
      "weight": 536,
      "locktime": 0,
      "vin": [
        {
          "coinbase": "04ffff001d0151",
          "sequence": 4294967295
        }
      ],
      "vout": [
        {
          "value": 50.0,
          "n": 0,
          "scriptPubKey": {
            "asm": "04249217697aef49873c398272bae813ddc09da4a59efa1792d05b6f88578d17736e224fc90d176621b3b62b9cfe1ef8fc9e5d318b900e250ecdc765f66c61bf0f OP_CHECKSIG",
            "desc": "pk(04249217697aef49873c398272bae813ddc09da4a59efa1792d05b6f88578d17736e224fc90d176621b3b62b9cfe1ef8fc9e5d318b900e250ecdc765f66c61bf0f)#pw0mrr8m",
            "hex": "4104249217697aef49873c398272bae813ddc09da4a59efa1792d05b6f88578d17736e224fc90d176621b3b62b9cfe1ef8fc9e5d318b900e250ecdc765f66c61bf0fac",
            "type": "pubkey"
          }
        }
      ],
      "hex": "01000000010000000000000000000000000000000000000000000000000000000000000000ffffffff0704ffff001d0151ffffffff0100f2052a01000000434104249217697aef49873c398272bae813ddc09da4a59efa1792d05b6f88578d17736e224fc90d176621b3b62b9cfe1ef8fc9e5d318b900e250ecdc765f66c61bf0fac00000000"
    }
  ]
}