{
  "hash": "000000003ad78dad85af064768461527ee2458869ae7066cd22b826fd6c31dbb",
  "confirmations": 49773,
  "height": 3325,
  "version": 1,
  "versionHex": "00000001",
  "merkleroot": "04cd9c8ad35a45e24ca5a51d7cc23719996b10d1c10ed29e027a349777d94f88",
  "time": 1233983729,
  "mediantime": 1233981520,
  "nonce": 1770097705,
  "bits": "1d00ffff",
  "difficulty": 1,
  "chainwork": "00000000000000000000000000000000000000000000000000000cfe0cfe0cfe",
  "nTx": 1,
  "previousblockhash": "0000000020029ec024e149c0abc9319ccebe038a163c17a27a7ad029152133d6",
  "nextblockhash": "00000000c799052a807b645a8b0407a35475d0a2cae92544d41c5a30226f4013",
  "strippedsize": 216,
  "size": 216,
  "weight": 864,
  "tx": [
    {
      "txid": "04cd9c8ad35a45e24ca5a51d7cc23719996b10d1c10ed29e027a349777d94f88",
      "hash": "04cd9c8ad35a45e24ca5a51d7cc23719996b10d1c10ed29e027a349777d94f88",
      "version": 1,
      "size": 135,
      "vsize": 135,
      "weight": 540,
      "locktime": 0,
      "vin": [
        {
          "coinbase": "04ffff001d02ae04",
          "sequence": 4294967295
        }
      ],
      "vout": [
        {
          "value": 50.0,
          "n": 0,
          "scriptPubKey": {
            "asm": "041c0ddfea23d93356d57bee9da2e656fe0f551f3b8f53076430ca4a402df8b56177798e55c4f79fad5ae90d73c6aab069f4546a0fa3f428059ddb213b267bdc20 OP_CHECKSIG",
            "desc": "pk(041c0ddfea23d93356d57bee9da2e656fe0f551f3b8f53076430ca4a402df8b56177798e55c4f79fad5ae90d73c6aab069f4546a0fa3f428059ddb213b267bdc20)#a82nrf80",
            "hex": "41041c0ddfea23d93356d57bee9da2e656fe0f551f3b8f53076430ca4a402df8b56177798e55c4f79fad5ae90d73c6aab069f4546a0fa3f428059ddb213b267bdc20ac",
            "type": "pubkey"
          }
        }
      ],
      "hex": "01000000010000000000000000000000000000000000000000000000000000000000000000ffffffff0804ffff001d02ae04ffffffff0100f2052a010000004341041c0ddfea23d93356d57bee9da2e656fe0f551f3b8f53076430ca4a402df8b56177798e55c4f79fad5ae90d73c6aab069f4546a0fa3f428059ddb213b267bdc20ac00000000"
    }
  ]
}