{
  "hash": "000000008ef6e157c9c48a0d7c41d403e9d61ffe56499ed0f2ea1f6d8fb21bb7",
  "confirmations": 44560,
  "height": 8538,
  "version": 1,
  "versionHex": "00000001",
  "merkleroot": "62a7e9019b830ff39a2a77ddb6bb981ecddf2166280599776a4ba7bbf795805f",
  "time": 1237901233,
  "mediantime": 1237897914,
  "nonce": 2065073451,
  "bits": "1d00ffff",
  "difficulty": 1,
  "chainwork": "0000000000000000000000000000000000000000000000000000215b215b215b",
  "nTx": 1,
  "previousblockhash": "000000006a649db8a53c19693ea9ee32dfadd3b8797e3a67fa219c7375d16855",
  "nextblockhash": "00000000ed62b53eecaa6da3feb43d84937f0d8b82cae4f77a78163f4dbd94fb",
  "strippedsize": 216,
  "size": 216,
  "weight": 864,
  "tx": [
    {
      "txid": "62a7e9019b830ff39a2a77ddb6bb981ecddf2166280599776a4ba7bbf795805f",
      "hash": "62a7e9019b830ff39a2a77ddb6bb981ecddf2166280599776a4ba7bbf795805f",
      "version": 1,
      "size": 135,
      "vsize": 135,
      "weight": 540,
      "locktime": 0,
      "vin": [
        {
          "coinbase": "04ffff001d027b08",
          "sequence": 4294967295
        }
      ],
      "vout": [
        {
          "value": 50.0,
          "n": 0,
          "scriptPubKey": {
            "asm": "0407952a5234166a7b07aac1189d5a5dc508cfde3a50f8ac0c3eb31e6091a6ae2f4e4c005c0f1cb91c274914b01241fe9d9f0d30ce3d3e4b27a6ad5b7f05639906 OP_CHECKSIG",
            "desc": "pk(0407952a5234166a7b07aac1189d5a5dc508cfde3a50f8ac0c3eb31e6091a6ae2f4e4c005c0f1cb91c274914b01241fe9d9f0d30ce3d3e4b27a6ad5b7f05639906)#e3y5egn5",
            "hex": "410407952a5234166a7b07aac1189d5a5dc508cfde3a50f8ac0c3eb31e6091a6ae2f4e4c005c0f1cb91c274914b01241fe9d9f0d30ce3d3e4b27a6ad5b7f05639906ac",
            "type": "pubkey"
          }
        }
      ],
      "hex": "01000000010000000000000000000000000000000000000000000000000000000000000000ffffffff0804ffff001d027b08ffffffff0100f2052a0100000043410407952a5234166a7b07aac1189d5a5dc508cfde3a50f8ac0c3eb31e6091a6ae2f4e4c005c0f1cb91c274914b01241fe9d9f0d30ce3d3e4b27a6ad5b7f05639906ac00000000"
    }
  ]
}