{
  "hash": "000000006d3f392120ab7ed4327901cfa4ad0ceef03760f3157c87bd3e06a51d",
  "confirmations": 51520,
  "height": 1578,
  "version": 1,
  "versionHex": "00000001",
  "merkleroot": "b9f58463aeed32b7d7b9362e39fc579d03ef5ed26fb5d173c150ab0186d15ddb",
  "time": 1232801442,
  "mediantime": 1232799318,
  "nonce": 3085586742,
  "bits": "1d00ffff",
  "difficulty": 1,
  "chainwork": "0000000000000000000000000000000000000000000000000000062b062b062b",
  "nTx": 1,
  "previousblockhash": "000000000c594e91c5fa9a2bf8a358c50d0efd818441798cd8568fe25e214fa5",
  "nextblockhash": "00000000685b26841f98298b275f9b886db67f63c1e7c7aae8a22c8bb8dce8cb",
  "strippedsize": 216,
  "size": 216,
  "weight": 864,
  "tx": [
    {
      "txid": "b9f58463aeed32b7d7b9362e39fc579d03ef5ed26fb5d173c150ab0186d15ddb",
      "hash": "b9f58463aeed32b7d7b9362e39fc579d03ef5ed26fb5d173c150ab0186d15ddb",
      "version": 1,
      "size": 135,
      "vsize": 135,
      "weight": 540,
      "locktime": 0,
      "vin": [
        {
          "coinbase": "04ffff001d02e201",
          "sequence": 4294967295
        }
      ],
      "vout": [
        {
          "value": 50.0,
          "n": 0,
          "scriptPubKey": {
            "asm": "04422eef86eba8a858748972644d16bfd3693eb5968d653242dc05e0d7ac03b652fb7b51b7e9f0284d7f6c9089b1be94d4dd41cf0e164eaf4bd1cd1ee13323037d OP_CHECKSIG",
            "desc": "pk(04422eef86eba8a858748972644d16bfd3693eb5968d653242dc05e0d7ac03b652fb7b51b7e9f0284d7f6c9089b1be94d4dd41cf0e164eaf4bd1cd1ee13323037d)#fa3mstuc",
            "hex": "4104422eef86eba8a858748972644d16bfd3693eb5968d653242dc05e0d7ac03b652fb7b51b7e9f0284d7f6c9089b1be94d4dd41cf0e164eaf4bd1cd1ee13323037dac",
            "type": "pubkey"
          }
        }
      ],
      "hex": "01000000010000000000000000000000000000000000000000000000000000000000000000ffffffff0804ffff001d02e201ffffffff0100f2052a01000000434104422eef86eba8a858748972644d16bfd3693eb5968d653242dc05e0d7ac03b652fb7b51b7e9f0284d7f6c9089b1be94d4dd41cf0e164eaf4bd1cd1ee13323037dac00000000"
    }
  ]
}