{
  "hash": "000000005f5c18fb5aacefddaaafbc44535f74d92dd40371e80d06765d4f6324",
  "confirmations": 45226,
  "height": 7872,
  "version": 1,
  "versionHex": "00000001",
  "merkleroot": "1bc8bf4e26aa4f82aab049674a924007f8f07b7d1612deb2bf291b5d143de5b1",
  "time": 1237369759,
  "mediantime": 1237365547,
  "nonce": 731334420,
  "bits": "1d00ffff",
  "difficulty": 1,
  "chainwork": "00000000000000000000000000000000000000000000000000001ec11ec11ec1",
  "nTx": 1,
  "previousblockhash": "00000000d90f1872204bc72859cc3c6e1462ea1b3a46fca9d0a766ad250e007f",
  "nextblockhash": "000000009bce23f4d8c9ae225570da6674fa1ff277233a3c75efb2640b9d22a7",
  "strippedsize": 216,
  "size": 216,
  "weight": 864,
  "tx": [
    {
      "txid": "1bc8bf4e26aa4f82aab049674a924007f8f07b7d1612deb2bf291b5d143de5b1",
      "hash": "1bc8bf4e26aa4f82aab049674a924007f8f07b7d1612deb2bf291b5d143de5b1",
      "version": 1,
      "size": 135,
      "vsize": 135,
      "weight": 540,
      "locktime": 0,
      "vin": [
        {
          "coinbase": "04ffff001d020f07",
          "sequence": 4294967295
        }
      ],
      "vout": [
        {
          "value": 50.0,
          "n": 0,
          "scriptPubKey": {
            "asm": "0467eac89c7f76ed375d995b39c687b8716192e0c7c0fee596efd3d193eab8493f574cb70120923bb8d8f250e9ac8d8771344430a4e658cb6e9f39ee627a09133c OP_CHECKSIG",
            "desc": "pk(0467eac89c7f76ed375d995b39c687b8716192e0c7c0fee596efd3d193eab8493f574cb70120923bb8d8f250e9ac8d8771344430a4e658cb6e9f39ee627a09133c)#jjpursgt",
            "hex": "410467eac89c7f76ed375d995b39c687b8716192e0c7c0fee596efd3d193eab8493f574cb70120923bb8d8f250e9ac8d8771344430a4e658cb6e9f39ee627a09133cac",
            "type": "pubkey"
          }
        }
      ],
      "hex": "01000000010000000000000000000000000000000000000000000000000000000000000000ffffffff0804ffff001d020f07ffffffff0100f2052a0100000043410467eac89c7f76ed375d995b39c687b8716192e0c7c0fee596efd3d193eab8493f574cb70120923bb8d8f250e9ac8d8771344430a4e658cb6e9f39ee627a09133cac00000000"
    }
  ]
}