{
  "hash": "00000000791297c9579f5746c8ab7d491c5f919ca930bc621d1dcfb5680111f6",
  "confirmations": 43330,
  "height": 9768,
  "version": 1,
  "versionHex": "00000001",
  "merkleroot": "7e7733b1114fa1778b68c039f95f650d35a91dc33aa8b483b22e26b6479d4b8d",
  "time": 1238831987,
  "mediantime": 1238827785,
  "nonce": 3889510144,
  "bits": "1d00ffff",
  "difficulty": 1,
  "chainwork": "0000000000000000000000000000000000000000000000000000262926292629",
  "nTx": 1,
  "previousblockhash": "000000000f05d756c81fdd85f43ddea8eee709710427b43dbd6587a4a1c24ac0",
  "nextblockhash": "0000000052a967356e6fc462d73a38732b64bde78622497cfb948dc93bcfef18",
  "strippedsize": 216,
  "size": 216,
  "weight": 864,
  "tx": [
    {
      "txid": "7e7733b1114fa1778b68c039f95f650d35a91dc33aa8b483b22e26b6479d4b8d",
      "hash": "7e7733b1114fa1778b68c039f95f650d35a91dc33aa8b483b22e26b6479d4b8d",
      "version": 1,
      "size": 135,
      "vsize": 135,
      "weight": 540,
      "locktime": 0,
      "vin": [
        {
          "coinbase": "04ffff001d02180a",
          "sequence": 4294967295
        }
      ],
      "vout": [
        {
          "value": 50.0,
          "n": 0,
          "scriptPubKey": {
            "asm": "04ebf00d1ab818ef92ee73bfb77ee3521e7696fc4e0e214bba6af8c853ca0bd672b35bc03d72cdd7764b09beef05ce5d86d403d0c8985252a9eac474f68079de41 OP_CHECKSIG",
            "desc": "pk(04ebf00d1ab818ef92ee73bfb77ee3521e7696fc4e0e214bba6af8c853ca0bd672b35bc03d72cdd7764b09beef05ce5d86d403d0c8985252a9eac474f68079de41)#pj6e4p8w",
            "hex": "4104ebf00d1ab818ef92ee73bfb77ee3521e7696fc4e0e214bba6af8c853ca0bd672b35bc03d72cdd7764b09beef05ce5d86d403d0c8985252a9eac474f68079de41ac",
            "type": "pubkey"
          }
        }
      ],
      "hex": "01000000010000000000000000000000000000000000000000000000000000000000000000ffffffff0804ffff001d02180affffffff0100f2052a01000000434104ebf00d1ab818ef92ee73bfb77ee3521e7696fc4e0e214bba6af8c853ca0bd672b35bc03d72cdd7764b09beef05ce5d86d403d0c8985252a9eac474f68079de41ac00000000"
    }
  ]
}