{
  "hash": "00000000becf44176653725cbdb1e7f7f53831953566deb59b8c685ee833e414",
  "confirmations": 44566,
  "height": 8532,
  "version": 1,
  "versionHex": "00000001",
  "merkleroot": "ccd1ead17a8cb0f60e9e2b889b949dcd276e19a1671f07033e2c1bee263d922c",
  "time": 1237897786,
  "mediantime": 1237894457,
  "nonce": 60298010,
  "bits": "1d00ffff",
  "difficulty": 1,
  "chainwork": "0000000000000000000000000000000000000000000000000000215521552155",
  "nTx": 1,
  "previousblockhash": "000000000c171e4cf4db44ee5c88f7a6f767bf4db349e90c53d4c2ea26fbe796",
  "nextblockhash": "000000008d608e153af9dfa3b67d10ba42e08083ca45cc40788b97398ed73632",
  "strippedsize": 216,
  "size": 216,
  "weight": 864,
  "tx": [
    {
      "txid": "ccd1ead17a8cb0f60e9e2b889b949dcd276e19a1671f07033e2c1bee263d922c",
      "hash": "ccd1ead17a8cb0f60e9e2b889b949dcd276e19a1671f07033e2c1bee263d922c",
      "version": 1,
      "size": 135,
      "vsize": 135,
      "weight": 540,
      "locktime": 0,
      "vin": [
        {
          "coinbase": "04ffff001d02da00",
          "sequence": 4294967295
        }
      ],
      "vout": [
        {
          "value": 50.0,
          "n": 0,
          "scriptPubKey": {
            "asm": "04f5772f8d95d04e835ff7550def32d29a3b98899f5f2ffbe876768f88a8a5e0922ff3f4e3c1a13d8a9ecd0a7a06cb7aa0f4a692dc7e81f9b80f1b9d8fcd40964d OP_CHECKSIG",
            "desc": "pk(04f5772f8d95d04e835ff7550def32d29a3b98899f5f2ffbe876768f88a8a5e0922ff3f4e3c1a13d8a9ecd0a7a06cb7aa0f4a692dc7e81f9b80f1b9d8fcd40964d)#q6ekxxty",
            "hex": "4104f5772f8d95d04e835ff7550def32d29a3b98899f5f2ffbe876768f88a8a5e0922ff3f4e3c1a13d8a9ecd0a7a06cb7aa0f4a692dc7e81f9b80f1b9d8fcd40964dac",
            "type": "pubkey"
          }
        }
      ],
      "hex": "01000000010000000000000000000000000000000000000000000000000000000000000000ffffffff0804ffff001d02da00ffffffff0100f2052a01000000434104f5772f8d95d04e835ff7550def32d29a3b98899f5f2ffbe876768f88a8a5e0922ff3f4e3c1a13d8a9ecd0a7a06cb7aa0f4a692dc7e81f9b80f1b9d8fcd40964dac00000000"
    }
  ]
}