{
  "hash": "00000000314d10afa32ee1e395604d6d5f30f5c7bfee78900077aa10884edaa8",
  "confirmations": 47365,
  "height": 5733,
  "version": 1,
  "versionHex": "00000001",
  "merkleroot": "fb7188f7993c36512eaedcdedfa3857513fcfe19000ae594094e6f91c3543972",
  "time": 1235709006,
  "mediantime": 1235705453,
  "nonce": 20975358,
  "bits": "1d00ffff",
  "difficulty": 1,
  "chainwork": "0000000000000000000000000000000000000000000000000000166616661666",
  "nTx": 1,
  "previousblockhash": "000000005d3426b59913052bc769be948246bc688622d646023cdbe0c8c1148a",
  "nextblockhash": "00000000f394b4b366c84301059474799b88243c32b800ed86376517fe27659e",
  "strippedsize": 215,
  "size": 215,
  "weight": 860,
  "tx": [
    {
      "txid": "fb7188f7993c36512eaedcdedfa3857513fcfe19000ae594094e6f91c3543972",
      "hash": "fb7188f7993c36512eaedcdedfa3857513fcfe19000ae594094e6f91c3543972",
      "version": 1,
      "size": 134,
      "vsize": 134,
      "weight": 536,
      "locktime": 0,
      "vin": [
        {
          "coinbase": "04ffff001d0168",
          "sequence": 4294967295
        }
      ],
      "vout": [
        {
          "value": 50.0,
          "n": 0,
          "scriptPubKey": {
            "asm": "049c7f389279e7224f3e493a711a5e87f5555d89dc51bcc83a3831f420b2ecf1153ce3779125aeeee80c4dbda585c4e317b5c46200f1012caa67eda831e521298a OP_CHECKSIG",
            "desc": "pk(049c7f389279e7224f3e493a711a5e87f5555d89dc51bcc83a3831f420b2ecf1153ce3779125aeeee80c4dbda585c4e317b5c46200f1012caa67eda831e521298a)#8tx658nf",
            "hex": "41049c7f389279e7224f3e493a711a5e87f5555d89dc51bcc83a3831f420b2ecf1153ce3779125aeeee80c4dbda585c4e317b5c46200f1012caa67eda831e521298aac",
            "type": "pubkey"
          }
        }
      ],
      "hex": "01000000010000000000000000000000000000000000000000000000000000000000000000ffffffff0704ffff001d0168ffffffff0100f2052a010000004341049c7f389279e7224f3e493a711a5e87f5555d89dc51bcc83a3831f420b2ecf1153ce3779125aeeee80c4dbda585c4e317b5c46200f1012caa67eda831e521298aac00000000"
    }
  ]
}