{
  "hash": "00000000f047c44f82ed0653e0d661b10f714f567ca7904a0f9ee475893a95e2",
  "confirmations": 52486,
  "height": 612,
  "version": 1,
  "versionHex": "00000001",
  "merkleroot": "fc8c44b8bc7fbea03302bc50eddf714d863c692fd2b3189ba7d089d0f813409e",
  "time": 1232045313,
  "mediantime": 1232042393,
  "nonce": 3185009946,
  "bits": "1d00ffff",
  "difficulty": 1,
  "chainwork": "0000000000000000000000000000000000000000000000000000026502650265",
  "nTx": 1,
  "previousblockhash": "00000000d0dbd675a2abec27951b87fe2c0f8e059ac2566d3042165a3f4082db",
  "nextblockhash": "00000000459941238f97367414684ae72ee74f2981797c26508e5b77577426fc",
  "strippedsize": 216,
  "size": 216,
  "weight": 864,
  "tx": [
    {
      "txid": "fc8c44b8bc7fbea03302bc50eddf714d863c692fd2b3189ba7d089d0f813409e",
      "hash": "fc8c44b8bc7fbea03302bc50eddf714d863c692fd2b3189ba7d089d0f813409e",
      "version": 1,
      "size": 135,
      "vsize": 135,
      "weight": 540,
      "locktime": 0,
      "vin": [
        {
          "coinbase": "04ffff001d02e106",
          "sequence": 4294967295
        }
      ],
      "vout": [
        {
          "value": 50.0,
          "n": 0,
          "scriptPubKey": {
            "asm": "04eb061251a6a22bfcff6f7487c9d617aff99a6a3c8d495f3085d70ec4583c552e7e7fa2f473ab1b6d710f5701e4e1cb99b86e7a7a2a298c9ad996a01e1ca5b4fa OP_CHECKSIG",
            "desc": "pk(04eb061251a6a22bfcff6f7487c9d617aff99a6a3c8d495f3085d70ec4583c552e7e7fa2f473ab1b6d710f5701e4e1cb99b86e7a7a2a298c9ad996a01e1ca5b4fa)#wzg35fue",
            "hex": "4104eb061251a6a22bfcff6f7487c9d617aff99a6a3c8d495f3085d70ec4583c552e7e7fa2f473ab1b6d710f5701e4e1cb99b86e7a7a2a298c9ad996a01e1ca5b4faac",
            "type": "pubkey"
          }
        }
      ],
      "hex": "01000000010000000000000000000000000000000000000000000000000000000000000000ffffffff0804ffff001d02e106ffffffff0100f2052a01000000434104eb061251a6a22bfcff6f7487c9d617aff99a6a3c8d495f3085d70ec4583c552e7e7fa2f473ab1b6d710f5701e4e1cb99b86e7a7a2a298c9ad996a01e1ca5b4faac00000000"
    }
  ]
}