{
  "hash": "00000000d7ca158757439629b22b2466bb217494d9136752dfbf8e7b9f2b8b68",
  "confirmations": 46817,
  "height": 6281,
  "version": 1,
  "versionHex": "00000001",
  "merkleroot": "d184dc97339a02fc93ac17f7299c5820140c0094bf3e0217edd44bdfb44072c8",
  "time": 1236155205,
  "mediantime": 1236151731,
  "nonce": 3920301875,
  "bits": "1d00ffff",
  "difficulty": 1,
  "chainwork": "0000000000000000000000000000000000000000000000000000188a188a188a",
  "nTx": 1,
  "previousblockhash": "0000000006ddcb44f13e5221ce8e85f6f4cd239c4de6af2d86d886319ff55c68",
  "nextblockhash": "00000000b0414a04140a5893059e1ed6b84fc173f4322b68a702ceb7e6d60b32",
  "strippedsize": 216,
  "size": 216,
  "weight": 864,
  "tx": [
    {
      "txid": "d184dc97339a02fc93ac17f7299c5820140c0094bf3e0217edd44bdfb44072c8",
      "hash": "d184dc97339a02fc93ac17f7299c5820140c0094bf3e0217edd44bdfb44072c8",
      "version": 1,
      "size": 135,
      "vsize": 135,
      "weight": 540,
      "locktime": 0,
      "vin": [
        {
          "coinbase": "04ffff001d02070a",
          "sequence": 4294967295
        }
      ],
      "vout": [
        {
          "value": 50.0,
          "n": 0,
          "scriptPubKey": {
            "asm": "04c70e413251f628821053f502af28c3ea21b9b7a0cc7e9ff8f3f9cc7450ff0cb28b251c986fb63863d495d72e6f822d7be30859109c786aad5e065020afed944b OP_CHECKSIG",
            "desc": "pk(04c70e413251f628821053f502af28c3ea21b9b7a0cc7e9ff8f3f9cc7450ff0cb28b251c986fb63863d495d72e6f822d7be30859109c786aad5e065020afed944b)#5as3g4ah",
            "hex": "4104c70e413251f628821053f502af28c3ea21b9b7a0cc7e9ff8f3f9cc7450ff0cb28b251c986fb63863d495d72e6f822d7be30859109c786aad5e065020afed944bac",
            "type": "pubkey"
          }
        }
      ],
      "hex": "01000000010000000000000000000000000000000000000000000000000000000000000000ffffffff0804ffff001d02070affffffff0100f2052a01000000434104c70e413251f628821053f502af28c3ea21b9b7a0cc7e9ff8f3f9cc7450ff0cb28b251c986fb63863d495d72e6f822d7be30859109c786aad5e065020afed944bac00000000"
    }
  ]
}