{
  "hash": "00000000500612eadf73e3c11e7cfd2c4f7281aba60b8e192b7c9c6f3149fc8b",
  "confirmations": 45389,
  "height": 7709,
  "version": 1,
  "versionHex": "00000001",
  "merkleroot": "6d50ec3c4b32fa0ed5545ed619b42f40456123baf5ab5d912e76ca2ba796bfc6",
  "time": 1237244337,
  "mediantime": 1237241996,
  "nonce": 170751710,
  "bits": "1d00ffff",
  "difficulty": 1,
  "chainwork": "00000000000000000000000000000000000000000000000000001e1e1e1e1e1e",
  "nTx": 1,
  "previousblockhash": "000000002b51d6496448233dd393758ea1cbc22a10befeb9a0fe569973b29fbc",
  "nextblockhash": "00000000bd10d59d9304901303f9cd0f1e72cf98c6d751f91fcd11838f924e61",
  "strippedsize": 216,
  "size": 216,
  "weight": 864,
  "tx": [
    {
      "txid": "6d50ec3c4b32fa0ed5545ed619b42f40456123baf5ab5d912e76ca2ba796bfc6",
      "hash": "6d50ec3c4b32fa0ed5545ed619b42f40456123baf5ab5d912e76ca2ba796bfc6",
      "version": 1,
      "size": 135,
      "vsize": 135,
      "weight": 540,
      "locktime": 0,
      "vin": [
        {
          "coinbase": "04ffff001d028e02",
          "sequence": 4294967295
        }
      ],
      "vout": [
        {
          "value": 50.0,
          "n": 0,
          "scriptPubKey": {
            "asm": "042a9829041c8b814087db22de90b61309fc7b5f41d07e4aa958ceffc8c2c444135b3603ae4424fb562faa7aa73f6912ccb90038f4691fa14ca12f4ba4cd6586e0 OP_CHECKSIG",
            "desc": "pk(042a9829041c8b814087db22de90b61309fc7b5f41d07e4aa958ceffc8c2c444135b3603ae4424fb562faa7aa73f6912ccb90038f4691fa14ca12f4ba4cd6586e0)#r95lthha",
            "hex": "41042a9829041c8b814087db22de90b61309fc7b5f41d07e4aa958ceffc8c2c444135b3603ae4424fb562faa7aa73f6912ccb90038f4691fa14ca12f4ba4cd6586e0ac",
            "type": "pubkey"
          }
        }
      ],
      "hex": "01000000010000000000000000000000000000000000000000000000000000000000000000ffffffff0804ffff001d028e02ffffffff0100f2052a010000004341042a9829041c8b814087db22de90b61309fc7b5f41d07e4aa958ceffc8c2c444135b3603ae4424fb562faa7aa73f6912ccb90038f4691fa14ca12f4ba4cd6586e0ac00000000"
    }
  ]
}