{
  "hash": "00000000d99c02b3ba9537ea410afef45756bfffe739dbf127e5a64729eb0db7",
  "confirmations": 43409,
  "height": 9689,
  "version": 1,
  "versionHex": "00000001",
  "merkleroot": "9c546d43b65cdec7a4635b96f6d8117b6741b7dc8e1fead91f5fa2749822a4d6",
  "time": 1238770498,
  "mediantime": 1238767060,
  "nonce": 93074689,
  "bits": "1d00ffff",
  "difficulty": 1,
  "chainwork": "000000000000000000000000000000000000000000000000000025da25da25da",
  "nTx": 1,
  "previousblockhash": "0000000038806a20908b3504c8357b0a84cd2053d98814e9665959fa9917e721",
  "nextblockhash": "00000000514bd4046890b24a59e4b23ec4a011c09e52d3b65972e93db74abe11",
  "strippedsize": 216,
  "size": 216,
  "weight": 864,
  "tx": [
    {
      "txid": "9c546d43b65cdec7a4635b96f6d8117b6741b7dc8e1fead91f5fa2749822a4d6",
      "hash": "9c546d43b65cdec7a4635b96f6d8117b6741b7dc8e1fead91f5fa2749822a4d6",
      "version": 1,
      "size": 135,
      "vsize": 135,
      "weight": 540,
      "locktime": 0,
      "vin": [
        {
          "coinbase": "04ffff001d02ae00",
          "sequence": 4294967295
        }
      ],
      "vout": [
        {
          "value": 50.0,
          "n": 0,
          "scriptPubKey": {
            "asm": "04180605e84c578d9ba5cfe5997f94f702ff5c2d91bbf6035e72417d0eba75d4ab4a83bef52c7621c0b611881c4388b796dbf7caa3dc031c205745bfc9e1b55e97 OP_CHECKSIG",
            "desc": "pk(04180605e84c578d9ba5cfe5997f94f702ff5c2d91bbf6035e72417d0eba75d4ab4a83bef52c7621c0b611881c4388b796dbf7caa3dc031c205745bfc9e1b55e97)#9666rcpg",
            "hex": "4104180605e84c578d9ba5cfe5997f94f702ff5c2d91bbf6035e72417d0eba75d4ab4a83bef52c7621c0b611881c4388b796dbf7caa3dc031c205745bfc9e1b55e97ac",
            "type": "pubkey"
          }
        }
      ],
      "hex": "01000000010000000000000000000000000000000000000000000000000000000000000000ffffffff0804ffff001d02ae00ffffffff0100f2052a01000000434104180605e84c578d9ba5cfe5997f94f702ff5c2d91bbf6035e72417d0eba75d4ab4a83bef52c7621c0b611881c4388b796dbf7caa3dc031c205745bfc9e1b55e97ac00000000"
    }
  ]
}