{
  "hash": "000000005b41445c2564f3872d777a03759d18bb87a7393005199c1bd3b76010",
  "confirmations": 48766,
  "height": 4332,
  "version": 1,
  "versionHex": "00000001",
  "merkleroot": "62a16a025447fb29ba6f609294642b3e1503c2a503070df286673c3ad6e0c29d",
  "time": 1234667164,
  "mediantime": 1234664098,
  "nonce": 184115757,
  "bits": "1d00ffff",
  "difficulty": 1,
  "chainwork": "000000000000000000000000000000000000000000000000000010ed10ed10ed",
  "nTx": 1,
  "previousblockhash": "0000000080244524dc111e7417cd17d35135479a91f5af938175f8a7d5a31234",
  "nextblockhash": "00000000bf963f2dbacf7724bbed1bdcc8a0dab238012b2c58437e7fa6ec0a5a",
  "strippedsize": 216,
  "size": 216,
  "weight": 864,
  "tx": [
    {
      "txid": "62a16a025447fb29ba6f609294642b3e1503c2a503070df286673c3ad6e0c29d",
      "hash": "62a16a025447fb29ba6f609294642b3e1503c2a503070df286673c3ad6e0c29d",
      "version": 1,
      "size": 135,
      "vsize": 135,
      "weight": 540,
      "locktime": 0,
      "vin": [
        {
          "coinbase": "04ffff001d02b000",
          "sequence": 4294967295
        }
      ],
      "vout": [
        {
          "value": 50.0,
          "n": 0,
          "scriptPubKey": {
            "asm": "041c0fbe29945e54c68b1a113cf23071637465d327663cf57d1b0562e364a406e0b4ffe14569521b33d137563170cba172fe420a545f720e9175ee5951b4aa09c5 OP_CHECKSIG",
            "desc": "pk(041c0fbe29945e54c68b1a113cf23071637465d327663cf57d1b0562e364a406e0b4ffe14569521b33d137563170cba172fe420a545f720e9175ee5951b4aa09c5)#5q4xgyfn",
            "hex": "41041c0fbe29945e54c68b1a113cf23071637465d327663cf57d1b0562e364a406e0b4ffe14569521b33d137563170cba172fe420a545f720e9175ee5951b4aa09c5ac",
            "type": "pubkey"
          }
        }
      ],
      "hex": "01000000010000000000000000000000000000000000000000000000000000000000000000ffffffff0804ffff001d02b000ffffffff0100f2052a010000004341041c0fbe29945e54c68b1a113cf23071637465d327663cf57d1b0562e364a406e0b4ffe14569521b33d137563170cba172fe420a545f720e9175ee5951b4aa09c5ac00000000"
    }
  ]
}