{
  "hash": "00000000c9448fda9599ef8d4421f51742bba52db190a76eff472365605ae7aa",
  "confirmations": 45677,
  "height": 7421,
  "version": 1,
  "versionHex": "00000001",
  "merkleroot": "4c8cbc3cedb2c0838a6cbcfd9bba10fda999b00f1b085713c9524dca032eb688",
  "time": 1237039104,
  "mediantime": 1237034778,
  "nonce": 132937448,
  "bits": "1d00ffff",
  "difficulty": 1,
  "chainwork": "00000000000000000000000000000000000000000000000000001cfe1cfe1cfe",
  "nTx": 1,
  "previousblockhash": "00000000fc6229edf248274a072d5b75ca8853539c817e6faee4edd02cd0a4b6",
  "nextblockhash": "00000000e0d9b8de4c2f2a966d18fecb2f600df5de7a00634fa77c7ce7dbbaf8",
  "strippedsize": 216,
  "size": 216,
  "weight": 864,
  "tx": [
    {
      "txid": "4c8cbc3cedb2c0838a6cbcfd9bba10fda999b00f1b085713c9524dca032eb688",
      "hash": "4c8cbc3cedb2c0838a6cbcfd9bba10fda999b00f1b085713c9524dca032eb688",
      "version": 1,
      "size": 135,
      "vsize": 135,
      "weight": 540,
      "locktime": 0,
      "vin": [
        {
          "coinbase": "04ffff001d027401",
          "sequence": 4294967295
        }
      ],
      "vout": [
        {
          "value": 50.0,
          "n": 0,
          "scriptPubKey": {
            "asm": "04ef5fa4203076e5cf154bd839b634bbb6ee786af0fa533db66656b02b33157b4360c04bc21fc69de8b7c552e00106b000d98e0f16c83ab7aadf10cb154d259ac8 OP_CHECKSIG",
            "desc": "pk(04ef5fa4203076e5cf154bd839b634bbb6ee786af0fa533db66656b02b33157b4360c04bc21fc69de8b7c552e00106b000d98e0f16c83ab7aadf10cb154d259ac8)#zncr9av9",
            "hex": "4104ef5fa4203076e5cf154bd839b634bbb6ee786af0fa533db66656b02b33157b4360c04bc21fc69de8b7c552e00106b000d98e0f16c83ab7aadf10cb154d259ac8ac",
            "type": "pubkey"
          }
        }
      ],
      "hex": "01000000010000000000000000000000000000000000000000000000000000000000000000ffffffff0804ffff001d027401ffffffff0100f2052a01000000434104ef5fa4203076e5cf154bd839b634bbb6ee786af0fa533db66656b02b33157b4360c04bc21fc69de8b7c552e00106b000d98e0f16c83ab7aadf10cb154d259ac8ac00000000"
    }
  ]
}