{
  "hash": "00000000da00b8154b4ade8c1d36147fc61b6c5973a99a562ce5213f8ea7979f",
  "confirmations": 46134,
  "height": 6964,
  "version": 1,
  "versionHex": "00000001",
  "merkleroot": "4607b0d349a135e325c0d4c5c5f57a917f1ac2c80a4d839c8649d21fcd795dad",
  "time": 1236690280,
  "mediantime": 1236687021,
  "nonce": 591770165,
  "bits": "1d00ffff",
  "difficulty": 1,
  "chainwork": "00000000000000000000000000000000000000000000000000001b351b351b35",
  "nTx": 1,
  "previousblockhash": "0000000017eb5e1cdb2d28bab5703122ffce6b3c00f53f12dbbe997eb94ca487",
  "nextblockhash": "000000009ecf2e19ea3bab1b9186bd44f85cca06a86b029933c441f01312126d",
  "strippedsize": 216,
  "size": 216,
  "weight": 864,
  "tx": [
    {
      "txid": "4607b0d349a135e325c0d4c5c5f57a917f1ac2c80a4d839c8649d21fcd795dad",
      "hash": "4607b0d349a135e325c0d4c5c5f57a917f1ac2c80a4d839c8649d21fcd795dad",
      "version": 1,
      "size": 135,
      "vsize": 135,
      "weight": 540,
      "locktime": 0,
      "vin": [
        {
          "coinbase": "04ffff001d029801",
          "sequence": 4294967295
        }
      ],
      "vout": [
        {
          "value": 50.0,
          "n": 0,
          "scriptPubKey": {
            "asm": "047aa973f9ad06810c7b6ceb551ea63822e5beab85e3afc02bc60b2137106820b22f586de13f465f67b7c3b131d08f9ada6f4296bf6eb4cdf2494fcf174337d416 OP_CHECKSIG",
            "desc": "pk(047aa973f9ad06810c7b6ceb551ea63822e5beab85e3afc02bc60b2137106820b22f586de13f465f67b7c3b131d08f9ada6f4296bf6eb4cdf2494fcf174337d416)#t7txtmvh",
            "hex": "41047aa973f9ad06810c7b6ceb551ea63822e5beab85e3afc02bc60b2137106820b22f586de13f465f67b7c3b131d08f9ada6f4296bf6eb4cdf2494fcf174337d416ac",
            "type": "pubkey"
          }
        }
      ],
      "hex": "01000000010000000000000000000000000000000000000000000000000000000000000000ffffffff0804ffff001d029801ffffffff0100f2052a010000004341047aa973f9ad06810c7b6ceb551ea63822e5beab85e3afc02bc60b2137106820b22f586de13f465f67b7c3b131d08f9ada6f4296bf6eb4cdf2494fcf174337d416ac00000000"
    }
  ]
}