{
  "hash": "00000000bc69cdb796f26d8db9cdb97f10520513595d8b85f34adaa38557f2de",
  "confirmations": 45050,
  "height": 8048,
  "version": 1,
  "versionHex": "00000001",
  "merkleroot": "fbcc2721d3d9fd60ec3a056b77460e07ea7972781f6690a1e31cbcc73e163bd3",
  "time": 1237496715,
  "mediantime": 1237491335,
  "nonce": 1342466853,
  "bits": "1d00ffff",
  "difficulty": 1,
  "chainwork": "00000000000000000000000000000000000000000000000000001f711f711f71",
  "nTx": 1,
  "previousblockhash": "000000006fb3f114e0b57276b80d7426f982f58589b9bc664e2b1ede88bb46b0",
  "nextblockhash": "00000000ef701c41ccbacb4ea1152f800014892874ed55e3fc43871044509ae6",
  "strippedsize": 215,
  "size": 215,
  "weight": 860,
  "tx": [
    {
      "txid": "fbcc2721d3d9fd60ec3a056b77460e07ea7972781f6690a1e31cbcc73e163bd3",
      "hash": "fbcc2721d3d9fd60ec3a056b77460e07ea7972781f6690a1e31cbcc73e163bd3",
      "version": 1,
      "size": 134,
      "vsize": 134,
      "weight": 536,
      "locktime": 0,
      "vin": [
        {
          "coinbase": "04ffff001d010a",
          "sequence": 4294967295
        }
      ],
      "vout": [
        {
          "value": 50.0,
          "n": 0,
          "scriptPubKey": {
            "asm": "040d46254d656785c5f9a1cb543ac52309ae0869d6a987658b13456b411f4b7a30fbb6b105afa23919ea52e125a61e14c96f3adab20bc5f016f299158e59484ae0 OP_CHECKSIG",
            "desc": "pk(040d46254d656785c5f9a1cb543ac52309ae0869d6a987658b13456b411f4b7a30fbb6b105afa23919ea52e125a61e14c96f3adab20bc5f016f299158e59484ae0)#yw7dzx6f",
            "hex": "41040d46254d656785c5f9a1cb543ac52309ae0869d6a987658b13456b411f4b7a30fbb6b105afa23919ea52e125a61e14c96f3adab20bc5f016f299158e59484ae0ac",
            "type": "pubkey"
          }
        }
      ],
      "hex": "01000000010000000000000000000000000000000000000000000000000000000000000000ffffffff0704ffff001d010affffffff0100f2052a010000004341040d46254d656785c5f9a1cb543ac52309ae0869d6a987658b13456b411f4b7a30fbb6b105afa23919ea52e125a61e14c96f3adab20bc5f016f299158e59484ae0ac00000000"
    }
  ]
}