{
  "hash": "00000000198dcc55f787401f8d0fe034d1bcf67c1132422eeb590db42bf780f5",
  "confirmations": 47096,
  "height": 6002,
  "version": 1,
  "versionHex": "00000001",
  "merkleroot": "d7abb7ab91d11db06fbfc113d1a483cb16838bb39ed8ddb7970804ff0de7ea40",
  "time": 1235928907,
  "mediantime": 1235925558,
  "nonce": 454957349,
  "bits": "1d00ffff",
  "difficulty": 1,
  "chainwork": "0000000000000000000000000000000000000000000000000000177317731773",
  "nTx": 1,
  "previousblockhash": "0000000055fcaf04cb9a82bb86b46a21b15fcaa75ac8c18679b0234f79c4c615",
  "nextblockhash": "0000000059751467aa018170229ddbaa00e76eb9f18a2e5677d94883cb739d40",
  "strippedsize": 216,
  "size": 216,
  "weight": 864,
  "tx": [
    {
      "txid": "d7abb7ab91d11db06fbfc113d1a483cb16838bb39ed8ddb7970804ff0de7ea40",
      "hash": "d7abb7ab91d11db06fbfc113d1a483cb16838bb39ed8ddb7970804ff0de7ea40",
      "version": 1,
      "size": 135,
      "vsize": 135,
      "weight": 540,
      "locktime": 0,
      "vin": [
        {
          "coinbase": "04ffff001d02ff04",
          "sequence": 4294967295
        }
      ],
      "vout": [
        {
          "value": 50.0,
          "n": 0,
          "scriptPubKey": {
            "asm": "042ed73fa5b7c6e637dbc3840baeab8570fe8a378d38902cada09ffdf6f82384b8eea5d77aa29172ab83c833275a7669da654950c9ed41382e734fcfd8563045bd OP_CHECKSIG",
            "desc": "pk(042ed73fa5b7c6e637dbc3840baeab8570fe8a378d38902cada09ffdf6f82384b8eea5d77aa29172ab83c833275a7669da654950c9ed41382e734fcfd8563045bd)#ku8t0kew",
            "hex": "41042ed73fa5b7c6e637dbc3840baeab8570fe8a378d38902cada09ffdf6f82384b8eea5d77aa29172ab83c833275a7669da654950c9ed41382e734fcfd8563045bdac",
            "type": "pubkey"
          }
        }
      ],
      "hex": "01000000010000000000000000000000000000000000000000000000000000000000000000ffffffff0804ffff001d02ff04ffffffff0100f2052a010000004341042ed73fa5b7c6e637dbc3840baeab8570fe8a378d38902cada09ffdf6f82384b8eea5d77aa29172ab83c833275a7669da654950c9ed41382e734fcfd8563045bdac00000000"
    }
  ]
}