{
  "hash": "00000000db30aefe9e1dd65c55d9bf2d28655f5ba8e557fa19fab50731304b7a",
  "confirmations": 47886,
  "height": 5212,
  "version": 1,
  "versionHex": "00000001",
  "merkleroot": "a68ff9065bdfd44336a0cea9f5a2bb531c18c060c302179f2fdcd19de0b42f03",
  "time": 1235293457,
  "mediantime": 1235291206,
  "nonce": 124214295,
  "bits": "1d00ffff",
  "difficulty": 1,
  "chainwork": "0000000000000000000000000000000000000000000000000000145d145d145d",
  "nTx": 1,
  "previousblockhash": "000000003ee04ee60071265a1b483c7a127aa3c1d64373e89f3a1ab4330e6af7",
  "nextblockhash": "000000000b9cb276a6d303d7104c9fb7c92b2c79193196c9e2200ac2c34adf02",
  "strippedsize": 216,
  "size": 216,
  "weight": 864,
  "tx": [
    {
      "txid": "a68ff9065bdfd44336a0cea9f5a2bb531c18c060c302179f2fdcd19de0b42f03",
      "hash": "a68ff9065bdfd44336a0cea9f5a2bb531c18c060c302179f2fdcd19de0b42f03",
      "version": 1,
      "size": 135,
      "vsize": 135,
      "weight": 540,
      "locktime": 0,
      "vin": [
        {
          "coinbase": "04ffff001d02b900",
          "sequence": 4294967295
        }
      ],
      "vout": [
        {
          "value": 50.0,
          "n": 0,
          "scriptPubKey": {
            "asm": "0433797e57b10230aeb386723218f0f68852ea699060595ba4bfe36993ffc4546d807cf06584073dcd1a2b21222a6b45e76fed9d9a048793acbd9acbd2239fa73a OP_CHECKSIG",
            "desc": "pk(0433797e57b10230aeb386723218f0f68852ea699060595ba4bfe36993ffc4546d807cf06584073dcd1a2b21222a6b45e76fed9d9a048793acbd9acbd2239fa73a)#8aqsnkc2",
            "hex": "410433797e57b10230aeb386723218f0f68852ea699060595ba4bfe36993ffc4546d807cf06584073dcd1a2b21222a6b45e76fed9d9a048793acbd9acbd2239fa73aac",
            "type": "pubkey"
          }
        }
      ],
      "hex": "01000000010000000000000000000000000000000000000000000000000000000000000000ffffffff0804ffff001d02b900ffffffff0100f2052a0100000043410433797e57b10230aeb386723218f0f68852ea699060595ba4bfe36993ffc4546d807cf06584073dcd1a2b21222a6b45e76fed9d9a048793acbd9acbd2239fa73aac00000000"
    }
  ]
}