{
  "hash": "0000000014ae7c9765f35c9522e3632c3115142a7f985015f708339cc94878b2",
  "confirmations": 52329,
  "height": 769,
  "version": 1,
  "versionHex": "00000001",
  "merkleroot": "0aa75aafb5b4bacc5497f6402a6bc3307d2cb77ae977642b1e222b61fbb2510d",
  "time": 1232166977,
  "mediantime": 1232162276,
  "nonce": 2142688517,
  "bits": "1d00ffff",
  "difficulty": 1,
  "chainwork": "0000000000000000000000000000000000000000000000000000030203020302",
  "nTx": 1,
  "previousblockhash": "000000000af8d998f9358c2288930f510664fda475d566bf8fdfb2e1b5076e48",
  "nextblockhash": "00000000641ad9cd4ddfc5139e95d1062e39239e358f5d2c5c3d425237d4ba48",
  "strippedsize": 216,
  "size": 216,
  "weight": 864,
  "tx": [
    {
      "txid": "0aa75aafb5b4bacc5497f6402a6bc3307d2cb77ae977642b1e222b61fbb2510d",
      "hash": "0aa75aafb5b4bacc5497f6402a6bc3307d2cb77ae977642b1e222b61fbb2510d",
      "version": 1,
      "size": 135,
      "vsize": 135,
      "weight": 540,
      "locktime": 0,
      "vin": [
        {
          "coinbase": "04ffff001d02f000",
          "sequence": 4294967295
        }
      ],
      "vout": [
        {
          "value": 50.0,
          "n": 0,
          "scriptPubKey": {
            "asm": "04262989765fe91ed37558febcddfd54c1f989f6d8beffbd89fbb5374cae1e4d68f5c238615ceee23a41901ce50b34fb4b80b05b4ad2b0b6b3befc04a3d6af850e OP_CHECKSIG",
            "desc": "pk(04262989765fe91ed37558febcddfd54c1f989f6d8beffbd89fbb5374cae1e4d68f5c238615ceee23a41901ce50b34fb4b80b05b4ad2b0b6b3befc04a3d6af850e)#p2lv25x2",
            "hex": "4104262989765fe91ed37558febcddfd54c1f989f6d8beffbd89fbb5374cae1e4d68f5c238615ceee23a41901ce50b34fb4b80b05b4ad2b0b6b3befc04a3d6af850eac",
            "type": "pubkey"
          }
        }
      ],
      "hex": "01000000010000000000000000000000000000000000000000000000000000000000000000ffffffff0804ffff001d02f000ffffffff0100f2052a01000000434104262989765fe91ed37558febcddfd54c1f989f6d8beffbd89fbb5374cae1e4d68f5c238615ceee23a41901ce50b34fb4b80b05b4ad2b0b6b3befc04a3d6af850eac00000000"
    }
  ]
}