{
  "hash": "00000000e83a8dccb7792a9597503bfbfb08a6310df0a997b3921e3e3e9fa843",
  "confirmations": 51364,
  "height": 1734,
  "version": 1,
  "versionHex": "00000001",
  "merkleroot": "4b5c3b27e32cefe8bff4aafc0e9e06a745b9b7c4e3d2a1d6a3e16816449a6f4e",
  "time": 1232866719,
  "mediantime": 1232864255,
  "nonce": 3367453973,
  "bits": "1d00ffff",
  "difficulty": 1,
  "chainwork": "000000000000000000000000000000000000000000000000000006c706c706c7",
  "nTx": 1,
  "previousblockhash": "00000000b657947b4fee40933358d97b9ec6b2130083d1346fd5e0607d2c5941",
  "nextblockhash": "0000000085a99775be185c1c86668f64c415ed150af0c150e1332c88fa128993",
  "strippedsize": 216,
  "size": 216,
  "weight": 864,
  "tx": [
    {
      "txid": "4b5c3b27e32cefe8bff4aafc0e9e06a745b9b7c4e3d2a1d6a3e16816449a6f4e",
      "hash": "4b5c3b27e32cefe8bff4aafc0e9e06a745b9b7c4e3d2a1d6a3e16816449a6f4e",
      "version": 1,
      "size": 135,
      "vsize": 135,
      "weight": 540,
      "locktime": 0,
      "vin": [
        {
          "coinbase": "04ffff001d024903",
          "sequence": 4294967295
        }
      ],
      "vout": [
        {
          "value": 50.0,
          "n": 0,
          "scriptPubKey": {
            "asm": "04a1bc596fd58a17a33e77f4cd2f5f0eea6a4bbdd5fed293075d6049574729973c73f523caac9fd8980028226da8cae1c472b52f7772d605fe4b1dec46aedae80b OP_CHECKSIG",
            "desc": "pk(04a1bc596fd58a17a33e77f4cd2f5f0eea6a4bbdd5fed293075d6049574729973c73f523caac9fd8980028226da8cae1c472b52f7772d605fe4b1dec46aedae80b)#qdjymyg6",
            "hex": "4104a1bc596fd58a17a33e77f4cd2f5f0eea6a4bbdd5fed293075d6049574729973c73f523caac9fd8980028226da8cae1c472b52f7772d605fe4b1dec46aedae80bac",
            "type": "pubkey"
          }
        }
      ],
      "hex": "01000000010000000000000000000000000000000000000000000000000000000000000000ffffffff0804ffff001d024903ffffffff0100f2052a01000000434104a1bc596fd58a17a33e77f4cd2f5f0eea6a4bbdd5fed293075d6049574729973c73f523caac9fd8980028226da8cae1c472b52f7772d605fe4b1dec46aedae80bac00000000"
    }
  ]
}