{
  "hash": "000000006a1e87b12ff12edcc04408a61b6d436b21dd6d8af9f5afc759a38116",
  "confirmations": 50987,
  "height": 2111,
  "version": 1,
  "versionHex": "00000001",
  "merkleroot": "534129356897f9ce638a0a5dcc2d18df13bf79fafdf880fcd76a6d62e91fde88",
  "time": 1233145769,
  "mediantime": 1233140826,
  "nonce": 1972770105,
  "bits": "1d00ffff",
  "difficulty": 1,
  "chainwork": "0000000000000000000000000000000000000000000000000000084008400840",
  "nTx": 1,
  "previousblockhash": "000000004e9faa21bc0797c4124998999b0d8a42b1b5257dada61079a3f00257",
  "nextblockhash": "00000000e8bcdaa8ab9f8ef19c5ecf6d5e624b8b094fd62c10ddde907881a81e",
  "strippedsize": 216,
  "size": 216,
  "weight": 864,
  "tx": [
    {
      "txid": "534129356897f9ce638a0a5dcc2d18df13bf79fafdf880fcd76a6d62e91fde88",
      "hash": "534129356897f9ce638a0a5dcc2d18df13bf79fafdf880fcd76a6d62e91fde88",
      "version": 1,
      "size": 135,
      "vsize": 135,
      "weight": 540,
      "locktime": 0,
      "vin": [
        {
          "coinbase": "04ffff001d02cd03",
          "sequence": 4294967295
        }
      ],
      "vout": [
        {
          "value": 50.0,
          "n": 0,
          "scriptPubKey": {
            "asm": "0437e4f2316810ce18e4edad9eb57d192ae7a63d8ee0319ed7a3c89cefc79d156b70300b855f09011da3cd1e6a67942a0f01abc456ce3c89555d195e08d15889f6 OP_CHECKSIG",
            "desc": "pk(0437e4f2316810ce18e4edad9eb57d192ae7a63d8ee0319ed7a3c89cefc79d156b70300b855f09011da3cd1e6a67942a0f01abc456ce3c89555d195e08d15889f6)#g88sz2me",
            "hex": "410437e4f2316810ce18e4edad9eb57d192ae7a63d8ee0319ed7a3c89cefc79d156b70300b855f09011da3cd1e6a67942a0f01abc456ce3c89555d195e08d15889f6ac",
            "type": "pubkey"
          }
        }
      ],
      "hex": "01000000010000000000000000000000000000000000000000000000000000000000000000ffffffff0804ffff001d02cd03ffffffff0100f2052a0100000043410437e4f2316810ce18e4edad9eb57d192ae7a63d8ee0319ed7a3c89cefc79d156b70300b855f09011da3cd1e6a67942a0f01abc456ce3c89555d195e08d15889f6ac00000000"
    }
  ]
}