{
  "hash": "000000006fc7695e3f72a7c86d5ff978c37737a57a4ad5d157eaa0a62b07905c",
  "confirmations": 44012,
  "height": 9086,
  "version": 1,
  "versionHex": "00000001",
  "merkleroot": "e6020d712c4e229187e35c23978a2fc8e1f1b2a7fcd1ca32d61e790df1fca18c",
  "time": 1238321432,
  "mediantime": 1238317883,
  "nonce": 93229980,
  "bits": "1d00ffff",
  "difficulty": 1,
  "chainwork": "0000000000000000000000000000000000000000000000000000237f237f237f",
  "nTx": 1,
  "previousblockhash": "000000004b803960d7ba557bea43d87d84616871bdc16449c862ac3e39b125fb",
  "nextblockhash": "000000002c639cf314da2cd627f37349e7139841fc034eab6eeaa7c6732e3d53",
  "strippedsize": 216,
  "size": 216,
  "weight": 864,
  "tx": [
    {
      "txid": "e6020d712c4e229187e35c23978a2fc8e1f1b2a7fcd1ca32d61e790df1fca18c",
      "hash": "e6020d712c4e229187e35c23978a2fc8e1f1b2a7fcd1ca32d61e790df1fca18c",
      "version": 1,
      "size": 135,
      "vsize": 135,
      "weight": 540,
      "locktime": 0,
      "vin": [
        {
          "coinbase": "04ffff001d02ad00",
          "sequence": 4294967295
        }
      ],
      "vout": [
        {
          "value": 50.0,
          "n": 0,
          "scriptPubKey": {
            "asm": "04035a3e06faaafc4050072cf64adeae480052a27a0ae6ca9c9a60c41dcbeb8656ce74bb38bca7410c9bb03a76f82a4eec2608475b8f97c8a3bf4a850192f7c16e OP_CHECKSIG",
            "desc": "pk(04035a3e06faaafc4050072cf64adeae480052a27a0ae6ca9c9a60c41dcbeb8656ce74bb38bca7410c9bb03a76f82a4eec2608475b8f97c8a3bf4a850192f7c16e)#ylhakevs",
            "hex": "4104035a3e06faaafc4050072cf64adeae480052a27a0ae6ca9c9a60c41dcbeb8656ce74bb38bca7410c9bb03a76f82a4eec2608475b8f97c8a3bf4a850192f7c16eac",
            "type": "pubkey"
          }
        }
      ],
      "hex": "01000000010000000000000000000000000000000000000000000000000000000000000000ffffffff0804ffff001d02ad00ffffffff0100f2052a01000000434104035a3e06faaafc4050072cf64adeae480052a27a0ae6ca9c9a60c41dcbeb8656ce74bb38bca7410c9bb03a76f82a4eec2608475b8f97c8a3bf4a850192f7c16eac00000000"
    }
  ]
}