{
  "hash": "0000000051458a41664374205402cefad24ac4978f5bd25c499bc6bfb52daec5",
  "confirmations": 45642,
  "height": 7456,
  "version": 1,
  "versionHex": "00000001",
  "merkleroot": "ae5e738a80473768fe31f6165a862834930359cc34d72b89339237d993b053f7",
  "time": 1237067318,
  "mediantime": 1237062885,
  "nonce": 2485294627,
  "bits": "1d00ffff",
  "difficulty": 1,
  "chainwork": "00000000000000000000000000000000000000000000000000001d211d211d21",
  "nTx": 1,
  "previousblockhash": "00000000340242be6430f943ea1cf1c10dd79d3055a8a0cd23cde3cd026e6604",
  "nextblockhash": "00000000e587ad57bf3f71554211864ff0f64148cfe62946916cc5bbe8736c00",
  "strippedsize": 215,
  "size": 215,
  "weight": 860,
  "tx": [
    {
      "txid": "ae5e738a80473768fe31f6165a862834930359cc34d72b89339237d993b053f7",
      "hash": "ae5e738a80473768fe31f6165a862834930359cc34d72b89339237d993b053f7",
      "version": 1,
      "size": 134,
      "vsize": 134,
      "weight": 536,
      "locktime": 0,
      "vin": [
        {
          "coinbase": "04ffff001d0137",
          "sequence": 4294967295
        }
      ],
      "vout": [
        {
          "value": 50.0,
          "n": 0,
          "scriptPubKey": {
            "asm": "0461a26a4803d57ab26b6ee9fa1c98958b0ca76f1051773621c8c77155f7ae1dd4bc04014b6597c7eccca16fd0d31118c847836ea2c25bb4fc15388ce5492cfd32 OP_CHECKSIG",
            "desc": "pk(0461a26a4803d57ab26b6ee9fa1c98958b0ca76f1051773621c8c77155f7ae1dd4bc04014b6597c7eccca16fd0d31118c847836ea2c25bb4fc15388ce5492cfd32)#vduvkz63",
            "hex": "410461a26a4803d57ab26b6ee9fa1c98958b0ca76f1051773621c8c77155f7ae1dd4bc04014b6597c7eccca16fd0d31118c847836ea2c25bb4fc15388ce5492cfd32ac",
            "type": "pubkey"
          }
        }
      ],
      "hex": "01000000010000000000000000000000000000000000000000000000000000000000000000ffffffff0704ffff001d0137ffffffff0100f2052a0100000043410461a26a4803d57ab26b6ee9fa1c98958b0ca76f1051773621c8c77155f7ae1dd4bc04014b6597c7eccca16fd0d31118c847836ea2c25bb4fc15388ce5492cfd32ac00000000"
    }
  ]
}