{
  "hash": "000000007b8668d5592a7121834c43237d7cfd28104f6276eebedab94901ff66",
  "confirmations": 44907,
  "height": 8191,
  "version": 1,
  "versionHex": "00000001",
  "merkleroot": "037d3320925d5a2f62249d9d43cf5d682c60726e89b2f312c910113b3e12bbda",
  "time": 1237599789,
  "mediantime": 1237596610,
  "nonce": 1118694422,
  "bits": "1d00ffff",
  "difficulty": 1,
  "chainwork": "0000000000000000000000000000000000000000000000000000200020002000",
  "nTx": 1,
  "previousblockhash": "000000002136a553f9bf7ba9979781548453aaf836e275febf273cc1c67dd3fe",
  "nextblockhash": "00000000802f81d32148baaef7c7bc786853cde82bef5321d1f1bded819f2991",
  "strippedsize": 216,
  "size": 216,
  "weight": 864,
  "tx": [
    {
      "txid": "037d3320925d5a2f62249d9d43cf5d682c60726e89b2f312c910113b3e12bbda",
      "hash": "037d3320925d5a2f62249d9d43cf5d682c60726e89b2f312c910113b3e12bbda",
      "version": 1,
      "size": 135,
      "vsize": 135,
      "weight": 540,
      "locktime": 0,
      "vin": [
        {
          "coinbase": "04ffff001d02bb02",
          "sequence": 4294967295
        }
      ],
      "vout": [
        {
          "value": 50.0,
          "n": 0,
          "scriptPubKey": {
            "asm": "049696572e7cabf7b5367e37a7cecf8db759dca138fa3fc77a817ff4e9dd4ddef71fa4d872bb72bbe60835f358cf6f800101260e2e8d4d97c36a8853cf5920b719 OP_CHECKSIG",
            "desc": "pk(049696572e7cabf7b5367e37a7cecf8db759dca138fa3fc77a817ff4e9dd4ddef71fa4d872bb72bbe60835f358cf6f800101260e2e8d4d97c36a8853cf5920b719)#f4gd584d",
            "hex": "41049696572e7cabf7b5367e37a7cecf8db759dca138fa3fc77a817ff4e9dd4ddef71fa4d872bb72bbe60835f358cf6f800101260e2e8d4d97c36a8853cf5920b719ac",
            "type": "pubkey"
          }
        }
      ],
      "hex": "01000000010000000000000000000000000000000000000000000000000000000000000000ffffffff0804ffff001d02bb02ffffffff0100f2052a010000004341049696572e7cabf7b5367e37a7cecf8db759dca138fa3fc77a817ff4e9dd4ddef71fa4d872bb72bbe60835f358cf6f800101260e2e8d4d97c36a8853cf5920b719ac00000000"
    }
  ]
}