{
  "hash": "00000000dc13311431d8a8019d731ea5d6b7a6dab21412fb37b28e8d494cb892",
  "confirmations": 46756,
  "height": 6342,
  "version": 1,
  "versionHex": "00000001",
  "merkleroot": "f7257cbe6d961f8fef0f93360245a90d1f6962c3c3fbc83213515ad809999bd3",
  "time": 1236208159,
  "mediantime": 1236203405,
  "nonce": 556881200,
  "bits": "1d00ffff",
  "difficulty": 1,
  "chainwork": "000000000000000000000000000000000000000000000000000018c718c718c7",
  "nTx": 1,
  "previousblockhash": "00000000f5989003c6281f982010302c086da7aeb7c5b7cb6c78d0a88b3af70a",
  "nextblockhash": "000000001c53155b3f5a9e3d7a9abdd9f73a6d7a244ef5891fba5ca0953fb03e",
  "strippedsize": 216,
  "size": 216,
  "weight": 864,
  "tx": [
    {
      "txid": "f7257cbe6d961f8fef0f93360245a90d1f6962c3c3fbc83213515ad809999bd3",
      "hash": "f7257cbe6d961f8fef0f93360245a90d1f6962c3c3fbc83213515ad809999bd3",
      "version": 1,
      "size": 135,
      "vsize": 135,
      "weight": 540,
      "locktime": 0,
      "vin": [
        {
          "coinbase": "04ffff001d02b700",
          "sequence": 4294967295
        }
      ],
      "vout": [
        {
          "value": 50.0,
          "n": 0,
          "scriptPubKey": {
            "asm": "0482be200904189b794a5ae8636809e4916821408ddc5d1bbafe9057f0745229f4055a277aeefeba657be1a5fa75ee54a92968130f47d73ee4396db5644fd9a478 OP_CHECKSIG",
            "desc": "pk(0482be200904189b794a5ae8636809e4916821408ddc5d1bbafe9057f0745229f4055a277aeefeba657be1a5fa75ee54a92968130f47d73ee4396db5644fd9a478)#67zxm8z7",
            "hex": "410482be200904189b794a5ae8636809e4916821408ddc5d1bbafe9057f0745229f4055a277aeefeba657be1a5fa75ee54a92968130f47d73ee4396db5644fd9a478ac",
            "type": "pubkey"
          }
        }
      ],
      "hex": "01000000010000000000000000000000000000000000000000000000000000000000000000ffffffff0804ffff001d02b700ffffffff0100f2052a0100000043410482be200904189b794a5ae8636809e4916821408ddc5d1bbafe9057f0745229f4055a277aeefeba657be1a5fa75ee54a92968130f47d73ee4396db5644fd9a478ac00000000"
    }
  ]
}