{
  "hash": "00000000de595188f4fba1e8cdea3978561bcc4223a7bdfed90a5344280f83c0",
  "confirmations": 44970,
  "height": 8128,
  "version": 1,
  "versionHex": "00000001",
  "merkleroot": "f5fa20594407a2f282aae3e1458aa235620181b66bb8a551cf62ef42df586c1f",
  "time": 1237553648,
  "mediantime": 1237549560,
  "nonce": 16771358,
  "bits": "1d00ffff",
  "difficulty": 1,
  "chainwork": "00000000000000000000000000000000000000000000000000001fc11fc11fc1",
  "nTx": 1,
  "previousblockhash": "00000000750319651a28016fe2b40c351032097d3c134ddd57509c0236a12f30",
  "nextblockhash": "00000000f554d506d673778a4463d2e700f4cd2eaaaa97dd40cc612e78c4e547",
  "strippedsize": 216,
  "size": 216,
  "weight": 864,
  "tx": [
    {
      "txid": "f5fa20594407a2f282aae3e1458aa235620181b66bb8a551cf62ef42df586c1f",
      "hash": "f5fa20594407a2f282aae3e1458aa235620181b66bb8a551cf62ef42df586c1f",
      "version": 1,
      "size": 135,
      "vsize": 135,
      "weight": 540,
      "locktime": 0,
      "vin": [
        {
          "coinbase": "04ffff001d021d06",
          "sequence": 4294967295
        }
      ],
      "vout": [
        {
          "value": 50.0,
          "n": 0,
          "scriptPubKey": {
            "asm": "0407ea917549edc2c977ca4db00ae33ab7ea7a8e1eecd66340b1e67dca1459b7de8206f047b4f9f9a545ee3bc4104bc4f44506223386f6b6923ae9edad6d50568f OP_CHECKSIG",
            "desc": "pk(0407ea917549edc2c977ca4db00ae33ab7ea7a8e1eecd66340b1e67dca1459b7de8206f047b4f9f9a545ee3bc4104bc4f44506223386f6b6923ae9edad6d50568f)#nvl6w4pc",
            "hex": "410407ea917549edc2c977ca4db00ae33ab7ea7a8e1eecd66340b1e67dca1459b7de8206f047b4f9f9a545ee3bc4104bc4f44506223386f6b6923ae9edad6d50568fac",
            "type": "pubkey"
          }
        }
      ],
      "hex": "01000000010000000000000000000000000000000000000000000000000000000000000000ffffffff0804ffff001d021d06ffffffff0100f2052a0100000043410407ea917549edc2c977ca4db00ae33ab7ea7a8e1eecd66340b1e67dca1459b7de8206f047b4f9f9a545ee3bc4104bc4f44506223386f6b6923ae9edad6d50568fac00000000"
    }
  ]
}