{
  "hash": "0000000004432268712b572db0d0e55bd4003daaa3303edb9cc0b63147e69144",
  "confirmations": 49857,
  "height": 3241,
  "version": 1,
  "versionHex": "00000001",
  "merkleroot": "cee6132d5ca4ad940354a905c25a85a491bb95b27d42fb9e8af77c0724412e87",
  "time": 1233929188,
  "mediantime": 1233925796,
  "nonce": 3767360773,
  "bits": "1d00ffff",
  "difficulty": 1,
  "chainwork": "00000000000000000000000000000000000000000000000000000caa0caa0caa",
  "nTx": 1,
  "previousblockhash": "00000000883e289741813f2900714b6e76edbf6896dfd6d465faace22e2fcdba",
  "nextblockhash": "00000000a8991b1c8e1b331c6d30f21157f489b0ee908afc2718cc369b51f540",
  "strippedsize": 216,
  "size": 216,
  "weight": 864,
  "tx": [
    {
      "txid": "cee6132d5ca4ad940354a905c25a85a491bb95b27d42fb9e8af77c0724412e87",
      "hash": "cee6132d5ca4ad940354a905c25a85a491bb95b27d42fb9e8af77c0724412e87",
      "version": 1,
      "size": 135,
      "vsize": 135,
      "weight": 540,
      "locktime": 0,
      "vin": [
        {
          "coinbase": "04ffff001d024a03",
          "sequence": 4294967295
        }
      ],
      "vout": [
        {
          "value": 50.0,
          "n": 0,
          "scriptPubKey": {
            "asm": "041fdd701a33d06cb42a41d998bffac5293fa3992ddfa35da6ef3ab08b14d8afcf2a9b1ba0155f504923467ba20eb85b0c510cf8d3398fb253d698c583368fc2f5 OP_CHECKSIG",
            "desc": "pk(041fdd701a33d06cb42a41d998bffac5293fa3992ddfa35da6ef3ab08b14d8afcf2a9b1ba0155f504923467ba20eb85b0c510cf8d3398fb253d698c583368fc2f5)#ah8u8kfz",
            "hex": "41041fdd701a33d06cb42a41d998bffac5293fa3992ddfa35da6ef3ab08b14d8afcf2a9b1ba0155f504923467ba20eb85b0c510cf8d3398fb253d698c583368fc2f5ac",
            "type": "pubkey"
          }
        }
      ],
      "hex": "01000000010000000000000000000000000000000000000000000000000000000000000000ffffffff0804ffff001d024a03ffffffff0100f2052a010000004341041fdd701a33d06cb42a41d998bffac5293fa3992ddfa35da6ef3ab08b14d8afcf2a9b1ba0155f504923467ba20eb85b0c510cf8d3398fb253d698c583368fc2f5ac00000000"
    }
  ]
}