{
  "hash": "000000001a84417b77acd346df4e55ffe5384db5098fcf575b820c3005c0548a",
  "confirmations": 44412,
  "height": 8686,
  "version": 1,
  "versionHex": "00000001",
  "merkleroot": "ef72c419a0bf9023dfd8a71520291b6fdf23d14746bd4f3d381a9302580a4b88",
  "time": 1238015797,
  "mediantime": 1238012255,
  "nonce": 3187624454,
  "bits": "1d00ffff",
  "difficulty": 1,
  "chainwork": "000000000000000000000000000000000000000000000000000021ef21ef21ef",
  "nTx": 1,
  "previousblockhash": "000000008820476d20779d81d2ed114aa22577b61e1e40e299d91bf70988cef2",
  "nextblockhash": "00000000cf0eeecf3d814ea5ab7ed4293803ea6aeee0e3779ed9c2e77997f8e5",
  "strippedsize": 216,
  "size": 216,
  "weight": 864,
  "tx": [
    {
      "txid": "ef72c419a0bf9023dfd8a71520291b6fdf23d14746bd4f3d381a9302580a4b88",
      "hash": "ef72c419a0bf9023dfd8a71520291b6fdf23d14746bd4f3d381a9302580a4b88",
      "version": 1,
      "size": 135,
      "vsize": 135,
      "weight": 540,
      "locktime": 0,
      "vin": [
        {
          "coinbase": "04ffff001d02b200",
          "sequence": 4294967295
        }
      ],
      "vout": [
        {
          "value": 50.0,
          "n": 0,
          "scriptPubKey": {
            "asm": "04ca581dcd0be28ea7dfa14097823809fee30a50afe87111f82e1f0c106f7c883301a85327a0de567638a56e780b14310b549970a56d783267810aa9d3f4caa3c5 OP_CHECKSIG",
            "desc": "pk(04ca581dcd0be28ea7dfa14097823809fee30a50afe87111f82e1f0c106f7c883301a85327a0de567638a56e780b14310b549970a56d783267810aa9d3f4caa3c5)#x3qpal5v",
            "hex": "4104ca581dcd0be28ea7dfa14097823809fee30a50afe87111f82e1f0c106f7c883301a85327a0de567638a56e780b14310b549970a56d783267810aa9d3f4caa3c5ac",
            "type": "pubkey"
          }
        }
      ],
      "hex": "01000000010000000000000000000000000000000000000000000000000000000000000000ffffffff0804ffff001d02b200ffffffff0100f2052a01000000434104ca581dcd0be28ea7dfa14097823809fee30a50afe87111f82e1f0c106f7c883301a85327a0de567638a56e780b14310b549970a56d783267810aa9d3f4caa3c5ac00000000"
    }
  ]
}