{
  "hash": "00000000e03a5d549e64adfeaf26b49917f2a492c322ae866a7dadc870c441cb",
  "confirmations": 45462,
  "height": 7636,
  "version": 1,
  "versionHex": "00000001",
  "merkleroot": "1d3f80b4b0ce80fa7fa19dde0f8ff2089363eabcb2c591999a9fda0fdfa60d8c",
  "time": 1237192401,
  "mediantime": 1237189890,
  "nonce": 13568258,
  "bits": "1d00ffff",
  "difficulty": 1,
  "chainwork": "00000000000000000000000000000000000000000000000000001dd51dd51dd5",
  "nTx": 1,
  "previousblockhash": "000000001d0cfd9d4ff652899e002ee4284cdf5e0a8b8ba766f3fe1fbedd4237",
  "nextblockhash": "000000008380d20e65c9f3aa351b420b437f3fcfbcfdeecb7e33fe3dd6f3d1bd",
  "strippedsize": 216,
  "size": 216,
  "weight": 864,
  "tx": [
    {
      "txid": "1d3f80b4b0ce80fa7fa19dde0f8ff2089363eabcb2c591999a9fda0fdfa60d8c",
      "hash": "1d3f80b4b0ce80fa7fa19dde0f8ff2089363eabcb2c591999a9fda0fdfa60d8c",
      "version": 1,
      "size": 135,
      "vsize": 135,
      "weight": 540,
      "locktime": 0,
      "vin": [
        {
          "coinbase": "04ffff001d023702",
          "sequence": 4294967295
        }
      ],
      "vout": [
        {
          "value": 50.0,
          "n": 0,
          "scriptPubKey": {
            "asm": "04b11fa80a0e12303d2ab0d5d3a110c7269780f709d053e57eec85efde06c29391f4f7cb0e71bf13fc1ae17ee223a5b1d8b42a202a11fa4ca105633e6a72cb1f1a OP_CHECKSIG",
            "desc": "pk(04b11fa80a0e12303d2ab0d5d3a110c7269780f709d053e57eec85efde06c29391f4f7cb0e71bf13fc1ae17ee223a5b1d8b42a202a11fa4ca105633e6a72cb1f1a)#xtwu5dru",
            "hex": "4104b11fa80a0e12303d2ab0d5d3a110c7269780f709d053e57eec85efde06c29391f4f7cb0e71bf13fc1ae17ee223a5b1d8b42a202a11fa4ca105633e6a72cb1f1aac",
            "type": "pubkey"
          }
        }
      ],
      "hex": "01000000010000000000000000000000000000000000000000000000000000000000000000ffffffff0804ffff001d023702ffffffff0100f2052a01000000434104b11fa80a0e12303d2ab0d5d3a110c7269780f709d053e57eec85efde06c29391f4f7cb0e71bf13fc1ae17ee223a5b1d8b42a202a11fa4ca105633e6a72cb1f1aac00000000"
    }
  ]
}