{
  "hash": "000000002973d6cb9371b8db0fe6a16a98dfac07c0aa9207c1cfc967b35290c4",
  "confirmations": 51890,
  "height": 61,
  "version": 1,
  "versionHex": "00000001",
  "merkleroot": "ae6eedf8e47ac6dda10ca9f3334bd3031795c55a124948003acd944ebd31fee1",
  "time": 1231622445,
  "mediantime": 1231618848,
  "nonce": 1399277111,
  "bits": "1d00ffff",
  "difficulty": 1,
  "chainwork": "0000000000000000000000000000000000000000000000000000003e003e003e",
  "nTx": 1,
  "previousblockhash": "00000000c47a58b89434bd7c7af8334b366f713330dfb89119d67d79424d2cdf",
  "nextblockhash": "0000000042fe934de30881dcecc5af1c80b5a083030e37d71806e7fc1e8ca02a",
  "strippedsize": 216,
  "size": 216,
  "weight": 864,
  "tx": [
    {
      "txid": "ae6eedf8e47ac6dda10ca9f3334bd3031795c55a124948003acd944ebd31fee1",
      "hash": "ae6eedf8e47ac6dda10ca9f3334bd3031795c55a124948003acd944ebd31fee1",
      "version": 1,
      "size": 135,
      "vsize": 135,
      "weight": 540,
      "locktime": 0,
      "vin": [
        {
          "coinbase": "04ffff001d029200",
          "sequence": 4294967295
        }
      ],
      "vout": [
        {
          "value": 50.0,
          "n": 0,
          "scriptPubKey": {
            "asm": "042a988f492cef43f38089fc1a6f11ab07f3cd52ca3c0fb6850bc2d31b83dbc97c7575203691a5afe51fc36d287bff42506979e40ab61a758adafc51f746b2d6ae OP_CHECKSIG",
            "desc": "pk(042a988f492cef43f38089fc1a6f11ab07f3cd52ca3c0fb6850bc2d31b83dbc97c7575203691a5afe51fc36d287bff42506979e40ab61a758adafc51f746b2d6ae)#ulx04z9d",
            "hex": "41042a988f492cef43f38089fc1a6f11ab07f3cd52ca3c0fb6850bc2d31b83dbc97c7575203691a5afe51fc36d287bff42506979e40ab61a758adafc51f746b2d6aeac",
            "type": "pubkey"
          }
        }
      ],
      "hex": "01000000010000000000000000000000000000000000000000000000000000000000000000ffffffff0804ffff001d029200ffffffff0100f2052a010000004341042a988f492cef43f38089fc1a6f11ab07f3cd52ca3c0fb6850bc2d31b83dbc97c7575203691a5afe51fc36d287bff42506979e40ab61a758adafc51f746b2d6aeac00000000"
    }
  ]
}