{
  "hash": "00000000f6e878a39c360be327ee5409f547f317d3a6fada92923ecdbeac5e6c",
  "confirmations": 49950,
  "height": 3148,
  "version": 1,
  "versionHex": "00000001",
  "merkleroot": "9629b4b5f9cc11cb40e2557d420f4b5dac9d6a1c34a6192c45c3a8f4bdf246d4",
  "time": 1233865542,
  "mediantime": 1233862678,
  "nonce": 5662003,
  "bits": "1d00ffff",
  "difficulty": 1,
  "chainwork": "00000000000000000000000000000000000000000000000000000c4d0c4d0c4d",
  "nTx": 1,
  "previousblockhash": "0000000013e04165771b8944c41e88935c7b25222af1c6e9115dd33a6f16f8c3",
  "nextblockhash": "0000000006bbd39938ca25952dc97fef0da6068940059f044bcee1aa7771ec2c",
  "strippedsize": 215,
  "size": 215,
  "weight": 860,
  "tx": [
    {
      "txid": "9629b4b5f9cc11cb40e2557d420f4b5dac9d6a1c34a6192c45c3a8f4bdf246d4",
      "hash": "9629b4b5f9cc11cb40e2557d420f4b5dac9d6a1c34a6192c45c3a8f4bdf246d4",
      "version": 1,
      "size": 134,
      "vsize": 134,
      "weight": 536,
      "locktime": 0,
      "vin": [
        {
          "coinbase": "04ffff001d0113",
          "sequence": 4294967295
        }
      ],
      "vout": [
        {
          "value": 50.0,
          "n": 0,
          "scriptPubKey": {
            "asm": "04d8cca8888181401f43ad9c09ae83edee3baec6fff5b2cdc928c9af9a007cc091e79b714f382bb0af86fecbe8bbfbfdf60abe367bc044fc7780a9be94ea7d6c5e OP_CHECKSIG",
            "desc": "pk(04d8cca8888181401f43ad9c09ae83edee3baec6fff5b2cdc928c9af9a007cc091e79b714f382bb0af86fecbe8bbfbfdf60abe367bc044fc7780a9be94ea7d6c5e)#jxreyx80",
            "hex": "4104d8cca8888181401f43ad9c09ae83edee3baec6fff5b2cdc928c9af9a007cc091e79b714f382bb0af86fecbe8bbfbfdf60abe367bc044fc7780a9be94ea7d6c5eac",
            "type": "pubkey"
          }
        }
      ],
      "hex": "01000000010000000000000000000000000000000000000000000000000000000000000000ffffffff0704ffff001d0113ffffffff0100f2052a01000000434104d8cca8888181401f43ad9c09ae83edee3baec6fff5b2cdc928c9af9a007cc091e79b714f382bb0af86fecbe8bbfbfdf60abe367bc044fc7780a9be94ea7d6c5eac00000000"
    }
  ]
}