{
  "hash": "0000000003c11ac3a009b94dccc057555966b994bd1de1f538758bf22b1a2713",
  "confirmations": 51126,
  "height": 1972,
  "version": 1,
  "versionHex": "00000001",
  "merkleroot": "8db7247e10c7f29ccebd9df41f7b160d95b1e617fd0602e9a83472094bb8d2c5",
  "time": 1233025028,
  "mediantime": 1233021449,
  "nonce": 1615771937,
  "bits": "1d00ffff",
  "difficulty": 1,
  "chainwork": "000000000000000000000000000000000000000000000000000007b507b507b5",
  "nTx": 1,
  "previousblockhash": "000000009d524126e78d19290cd9d7fa356ce0c2b58d67fbe8e51142e811bee8",
  "nextblockhash": "000000002d9dd660268a57b9415be9b27d1eefcff934c75a48c676222b00ca36",
  "strippedsize": 216,
  "size": 216,
  "weight": 864,
  "tx": [
    {
      "txid": "8db7247e10c7f29ccebd9df41f7b160d95b1e617fd0602e9a83472094bb8d2c5",
      "hash": "8db7247e10c7f29ccebd9df41f7b160d95b1e617fd0602e9a83472094bb8d2c5",
      "version": 1,
      "size": 135,
      "vsize": 135,
      "weight": 540,
      "locktime": 0,
      "vin": [
        {
          "coinbase": "04ffff001d020101",
          "sequence": 4294967295
        }
      ],
      "vout": [
        {
          "value": 50.0,
          "n": 0,
          "scriptPubKey": {
            "asm": "044af51ad8ef38d2a351466a22e7a7d9393a18302ad697c5e3d23d2f2ae7726eb648182dc998b1931579164522fc0e5fe8e8b15752b78fb73061dd5fac21e5dc40 OP_CHECKSIG",
            "desc": "pk(044af51ad8ef38d2a351466a22e7a7d9393a18302ad697c5e3d23d2f2ae7726eb648182dc998b1931579164522fc0e5fe8e8b15752b78fb73061dd5fac21e5dc40)#zkxlkj22",
            "hex": "41044af51ad8ef38d2a351466a22e7a7d9393a18302ad697c5e3d23d2f2ae7726eb648182dc998b1931579164522fc0e5fe8e8b15752b78fb73061dd5fac21e5dc40ac",
            "type": "pubkey"
          }
        }
      ],
      "hex": "01000000010000000000000000000000000000000000000000000000000000000000000000ffffffff0804ffff001d020101ffffffff0100f2052a010000004341044af51ad8ef38d2a351466a22e7a7d9393a18302ad697c5e3d23d2f2ae7726eb648182dc998b1931579164522fc0e5fe8e8b15752b78fb73061dd5fac21e5dc40ac00000000"
    }
  ]
}