{
  "hash": "000000008e316e5d1e71a6c2d2d9812ad71736a28eb4d76fd7f933ed7b02a52a",
  "confirmations": 46284,
  "height": 6814,
  "version": 1,
  "versionHex": "00000001",
  "merkleroot": "8ac3dd6ba2a8a50881688d94f1a0687e02493b6869e6dd011f4ff495a2077a61",
  "time": 1236566175,
  "mediantime": 1236563743,
  "nonce": 3334626348,
  "bits": "1d00ffff",
  "difficulty": 1,
  "chainwork": "00000000000000000000000000000000000000000000000000001a9f1a9f1a9f",
  "nTx": 1,
  "previousblockhash": "00000000b0584849a2d5df998c8cb640333a1841cce54dd0ac207d339735907d",
  "nextblockhash": "00000000815f50e231547f23c2b67a932b6d9fd53f246c1aace8290ee2ba8b4e",
  "strippedsize": 216,
  "size": 216,
  "weight": 864,
  "tx": [
    {
      "txid": "8ac3dd6ba2a8a50881688d94f1a0687e02493b6869e6dd011f4ff495a2077a61",
      "hash": "8ac3dd6ba2a8a50881688d94f1a0687e02493b6869e6dd011f4ff495a2077a61",
      "version": 1,
      "size": 135,
      "vsize": 135,
      "weight": 540,
      "locktime": 0,
      "vin": [
        {
          "coinbase": "04ffff001d023d09",
          "sequence": 4294967295
        }
      ],
      "vout": [
        {
          "value": 50.0,
          "n": 0,
          "scriptPubKey": {
            "asm": "04b08e21a52eea71bc52e53ea5e3318567650353f141f0d7bf7cfc6f5f615365e5b883798fb9ac458af08f15baadba1ca69166e0e08175dc09b5cc0474ca03a995 OP_CHECKSIG",
            "desc": "pk(04b08e21a52eea71bc52e53ea5e3318567650353f141f0d7bf7cfc6f5f615365e5b883798fb9ac458af08f15baadba1ca69166e0e08175dc09b5cc0474ca03a995)#v6slcdy8",
            "hex": "4104b08e21a52eea71bc52e53ea5e3318567650353f141f0d7bf7cfc6f5f615365e5b883798fb9ac458af08f15baadba1ca69166e0e08175dc09b5cc0474ca03a995ac",
            "type": "pubkey"
          }
        }
      ],
      "hex": "01000000010000000000000000000000000000000000000000000000000000000000000000ffffffff0804ffff001d023d09ffffffff0100f2052a01000000434104b08e21a52eea71bc52e53ea5e3318567650353f141f0d7bf7cfc6f5f615365e5b883798fb9ac458af08f15baadba1ca69166e0e08175dc09b5cc0474ca03a995ac00000000"
    }
  ]
}