{
  "hash": "00000000aeee3e3f2da0bc9e43a94e391c182b044835a1f7c5bfbc8041192cdb",
  "confirmations": 43770,
  "height": 9328,
  "version": 1,
  "versionHex": "00000001",
  "merkleroot": "65558eec14651f36c13e2c8dd291b7908a7bfdebd2309720bb6e6ef3217e480f",
  "time": 1238495528,
  "mediantime": 1238492099,
  "nonce": 2100376115,
  "bits": "1d00ffff",
  "difficulty": 1,
  "chainwork": "0000000000000000000000000000000000000000000000000000247124712471",
  "nTx": 1,
  "previousblockhash": "0000000091d4de698e62f92b77990f39d6613afbccd4d1bc258dd8aed90ff894",
  "nextblockhash": "000000008fc19732f7f8c2eaecb187234c8b571c2a2bfa470fdd9a58aa934115",
  "strippedsize": 216,
  "size": 216,
  "weight": 864,
  "tx": [
    {
      "txid": "65558eec14651f36c13e2c8dd291b7908a7bfdebd2309720bb6e6ef3217e480f",
      "hash": "65558eec14651f36c13e2c8dd291b7908a7bfdebd2309720bb6e6ef3217e480f",
      "version": 1,
      "size": 135,
      "vsize": 135,
      "weight": 540,
      "locktime": 0,
      "vin": [
        {
          "coinbase": "04ffff001d024302",
          "sequence": 4294967295
        }
      ],
      "vout": [
        {
          "value": 50.0,
          "n": 0,
          "scriptPubKey": {
            "asm": "0418966b139d0a107e89a656e9b40e4fbd247154bb1e047a8de5a41a61c3e3b1a7d91efd961772a99e2a743f377b672602484635fcdc4ff805c97287039b02b89b OP_CHECKSIG",
            "desc": "pk(0418966b139d0a107e89a656e9b40e4fbd247154bb1e047a8de5a41a61c3e3b1a7d91efd961772a99e2a743f377b672602484635fcdc4ff805c97287039b02b89b)#ax4sp6gk",
            "hex": "410418966b139d0a107e89a656e9b40e4fbd247154bb1e047a8de5a41a61c3e3b1a7d91efd961772a99e2a743f377b672602484635fcdc4ff805c97287039b02b89bac",
            "type": "pubkey"
          }
        }
      ],
      "hex": "01000000010000000000000000000000000000000000000000000000000000000000000000ffffffff0804ffff001d024302ffffffff0100f2052a0100000043410418966b139d0a107e89a656e9b40e4fbd247154bb1e047a8de5a41a61c3e3b1a7d91efd961772a99e2a743f377b672602484635fcdc4ff805c97287039b02b89bac00000000"
    }
  ]
}