{
  "hash": "00000000bdebace782e92206845942b7ff4c89071b3a7bba584a31d8b6d6c505",
  "confirmations": 45819,
  "height": 7279,
  "version": 1,
  "versionHex": "00000001",
  "merkleroot": "7cc79461192cba8833471ff93df78a4b92752e0e3ab833b5304e813462da3c12",
  "time": 1236930810,
  "mediantime": 1236926239,
  "nonce": 2510815514,
  "bits": "1d00ffff",
  "difficulty": 1,
  "chainwork": "00000000000000000000000000000000000000000000000000001c701c701c70",
  "nTx": 1,
  "previousblockhash": "00000000424dd4464523a62a4b39c9ed23ec6b6d02f73d18064c5660a876c276",
  "nextblockhash": "00000000ab56cdc9af24b07edd56b6f8fe77be5abb859b481d03f1631dcd914b",
  "strippedsize": 216,
  "size": 216,
  "weight": 864,
  "tx": [
    {
      "txid": "7cc79461192cba8833471ff93df78a4b92752e0e3ab833b5304e813462da3c12",
      "hash": "7cc79461192cba8833471ff93df78a4b92752e0e3ab833b5304e813462da3c12",
      "version": 1,
      "size": 135,
      "vsize": 135,
      "weight": 540,
      "locktime": 0,
      "vin": [
        {
          "coinbase": "04ffff001d02fc06",
          "sequence": 4294967295
        }
      ],
      "vout": [
        {
          "value": 50.0,
          "n": 0,
          "scriptPubKey": {
            "asm": "0478d35643f364791d289522d61e82b57899d5e3f5da312936ce644aac8318f97e6f54f841fec8d73073a0e1ccb7c68887aaf070b524052154fa52803b7a679fe3 OP_CHECKSIG",
            "desc": "pk(0478d35643f364791d289522d61e82b57899d5e3f5da312936ce644aac8318f97e6f54f841fec8d73073a0e1ccb7c68887aaf070b524052154fa52803b7a679fe3)#shhf7fng",
            "hex": "410478d35643f364791d289522d61e82b57899d5e3f5da312936ce644aac8318f97e6f54f841fec8d73073a0e1ccb7c68887aaf070b524052154fa52803b7a679fe3ac",
            "type": "pubkey"
          }
        }
      ],
      "hex": "01000000010000000000000000000000000000000000000000000000000000000000000000ffffffff0804ffff001d02fc06ffffffff0100f2052a0100000043410478d35643f364791d289522d61e82b57899d5e3f5da312936ce644aac8318f97e6f54f841fec8d73073a0e1ccb7c68887aaf070b524052154fa52803b7a679fe3ac00000000"
    }
  ]
}