{
  "hash": "00000000b64e8c9993582a248b929fd8892d43a1d4d82e316c916ba77b997acd",
  "confirmations": 49378,
  "height": 3720,
  "version": 1,
  "versionHex": "00000001",
  "merkleroot": "e1c7a33e5284488990db99ab71e8b33ca578fda112532bccf474d161a712c7a6",
  "time": 1234247138,
  "mediantime": 1234242915,
  "nonce": 2130120194,
  "bits": "1d00ffff",
  "difficulty": 1,
  "chainwork": "00000000000000000000000000000000000000000000000000000e890e890e89",
  "nTx": 1,
  "previousblockhash": "0000000092c4edbe24e1433c087b9d170c9d68587a158fde0ff9d7a2059a6493",
  "nextblockhash": "0000000090adb31fc879d5379a5ac986f9800e840fd73bc6bba824fabf3ad225",
  "strippedsize": 215,
  "size": 215,
  "weight": 860,
  "tx": [
    {
      "txid": "e1c7a33e5284488990db99ab71e8b33ca578fda112532bccf474d161a712c7a6",
      "hash": "e1c7a33e5284488990db99ab71e8b33ca578fda112532bccf474d161a712c7a6",
      "version": 1,
      "size": 134,
      "vsize": 134,
      "weight": 536,
      "locktime": 0,
      "vin": [
        {
          "coinbase": "04ffff001d0119",
          "sequence": 4294967295
        }
      ],
      "vout": [
        {
          "value": 50.0,
          "n": 0,
          "scriptPubKey": {
            "asm": "0476d7aafec370a515e41638e9f66a88f8cdd3eca1ae95d2746e34fa182249c4f3a6eb24dab32e0d4aa63c8a4164a9f7f387433ef17ede49af88401c05597213d2 OP_CHECKSIG",
            "desc": "pk(0476d7aafec370a515e41638e9f66a88f8cdd3eca1ae95d2746e34fa182249c4f3a6eb24dab32e0d4aa63c8a4164a9f7f387433ef17ede49af88401c05597213d2)#7n9d9637",
            "hex": "410476d7aafec370a515e41638e9f66a88f8cdd3eca1ae95d2746e34fa182249c4f3a6eb24dab32e0d4aa63c8a4164a9f7f387433ef17ede49af88401c05597213d2ac",
            "type": "pubkey"
          }
        }
      ],
      "hex": "01000000010000000000000000000000000000000000000000000000000000000000000000ffffffff0704ffff001d0119ffffffff0100f2052a0100000043410476d7aafec370a515e41638e9f66a88f8cdd3eca1ae95d2746e34fa182249c4f3a6eb24dab32e0d4aa63c8a4164a9f7f387433ef17ede49af88401c05597213d2ac00000000"
    }
  ]
}