{
  "hash": "0000000030d317436271d42f336d26387b284fed7c84e02f8d951d1a865b052b",
  "confirmations": 51998,
  "height": 342,
  "version": 1,
  "versionHex": "00000001",
  "merkleroot": "88d5c23cdb2843057397159dddfefbab00da2b4a4f94a45ea5679bca2e38f009",
  "time": 1231860068,
  "mediantime": 1231857108,
  "nonce": 2771976212,
  "bits": "1d00ffff",
  "difficulty": 1,
  "chainwork": "0000000000000000000000000000000000000000000000000000015701570157",
  "nTx": 1,
  "previousblockhash": "0000000082a38ff5b06379fe8898e516e4b9158c6b3e4bf07dae998ac3e8699c",
  "nextblockhash": "00000000da99d2a1a9a5b005143254481a8a37c28ef845e9cbe07e8bd3727c6e",
  "strippedsize": 216,
  "size": 216,
  "weight": 864,
  "tx": [
    {
      "txid": "88d5c23cdb2843057397159dddfefbab00da2b4a4f94a45ea5679bca2e38f009",
      "hash": "88d5c23cdb2843057397159dddfefbab00da2b4a4f94a45ea5679bca2e38f009",
      "version": 1,
      "size": 135,
      "vsize": 135,
      "weight": 540,
      "locktime": 0,
      "vin": [
        {
          "coinbase": "04ffff001d025a01",
          "sequence": 4294967295
        }
      ],
      "vout": [
        {
          "value": 50.0,
          "n": 0,
          "scriptPubKey": {
            "asm": "0403e810b35f5b97957ad94bd3619f25384f5bcf403c57776921af38de5737f85e43257c9bacc247d63fe67e62d884d8987437033f553d6182d98313ca39c00eb6 OP_CHECKSIG",
            "desc": "pk(0403e810b35f5b97957ad94bd3619f25384f5bcf403c57776921af38de5737f85e43257c9bacc247d63fe67e62d884d8987437033f553d6182d98313ca39c00eb6)#7j5l4vqa",
            "hex": "410403e810b35f5b97957ad94bd3619f25384f5bcf403c57776921af38de5737f85e43257c9bacc247d63fe67e62d884d8987437033f553d6182d98313ca39c00eb6ac",
            "type": "pubkey"
          }
        }
      ],
      "hex": "01000000010000000000000000000000000000000000000000000000000000000000000000ffffffff0804ffff001d025a01ffffffff0100f2052a0100000043410403e810b35f5b97957ad94bd3619f25384f5bcf403c57776921af38de5737f85e43257c9bacc247d63fe67e62d884d8987437033f553d6182d98313ca39c00eb6ac00000000"
    }
  ]
}