{
  "hash": "00000000fb4304df797fb08783b14a9d138f486ca9b69ea1917d7a4e70af833e",
  "confirmations": 45506,
  "height": 7592,
  "version": 1,
  "versionHex": "00000001",
  "merkleroot": "047fa5c3438ea4668455437d3bf88409e808bc4d294e42b3e08d6c7f1edd565a",
  "time": 1237161891,
  "mediantime": 1237158074,
  "nonce": 292942596,
  "bits": "1d00ffff",
  "difficulty": 1,
  "chainwork": "00000000000000000000000000000000000000000000000000001da91da91da9",
  "nTx": 1,
  "previousblockhash": "0000000084fca9b87cf6c0d8c1c4548cb0defc9a07816de6ec70dfb96a45cbb6",
  "nextblockhash": "0000000012f320022d8d1fd89cee1f0f6ac019ce76632809d5ac93fddcfa06e9",
  "strippedsize": 216,
  "size": 216,
  "weight": 864,
  "tx": [
    {
      "txid": "047fa5c3438ea4668455437d3bf88409e808bc4d294e42b3e08d6c7f1edd565a",
      "hash": "047fa5c3438ea4668455437d3bf88409e808bc4d294e42b3e08d6c7f1edd565a",
      "version": 1,
      "size": 135,
      "vsize": 135,
      "weight": 540,
      "locktime": 0,
      "vin": [
        {
          "coinbase": "04ffff001d027302",
          "sequence": 4294967295
        }
      ],
      "vout": [
        {
          "value": 50.0,
          "n": 0,
          "scriptPubKey": {
            "asm": "0409703419b70664b354e5c28d157a733204b0aaad3b52df6897eadd4b56d7324f45379c404dea8534baa921434d2d1b23b52cd5e14c164bbadb203cdf028f64b5 OP_CHECKSIG",
            "desc": "pk(0409703419b70664b354e5c28d157a733204b0aaad3b52df6897eadd4b56d7324f45379c404dea8534baa921434d2d1b23b52cd5e14c164bbadb203cdf028f64b5)#gcmw5p3k",
            "hex": "410409703419b70664b354e5c28d157a733204b0aaad3b52df6897eadd4b56d7324f45379c404dea8534baa921434d2d1b23b52cd5e14c164bbadb203cdf028f64b5ac",
            "type": "pubkey"
          }
        }
      ],
      "hex": "01000000010000000000000000000000000000000000000000000000000000000000000000ffffffff0804ffff001d027302ffffffff0100f2052a0100000043410409703419b70664b354e5c28d157a733204b0aaad3b52df6897eadd4b56d7324f45379c404dea8534baa921434d2d1b23b52cd5e14c164bbadb203cdf028f64b5ac00000000"
    }
  ]
}