{
  "hash": "000000009b7262315dbf071787ad3656097b892abffd1f95a1a022f896f533fc",
  "confirmations": 51769,
  "height": 5,
  "version": 1,
  "versionHex": "00000001",
  "merkleroot": "63522845d294ee9b0188ae5cac91bf389a0c3723f084ca1025e7d9cdfe481ce1",
  "time": 1231471428,
  "mediantime": 1231470173,
  "nonce": 2011431709,
  "bits": "1d00ffff",
  "difficulty": 1,
  "chainwork": "0000000000000000000000000000000000000000000000000000000600060006",
  "nTx": 1,
  "previousblockhash": "000000004ebadb55ee9096c9a2f8880e09da59c0d68b1c228da88e48844a1485",
  "nextblockhash": "000000003031a0e73735690c5a1ff2a4be82553b2a12b776fbd3a215dc8f778d",
  "strippedsize": 215,
  "size": 215,
  "weight": 860,
  "tx": [
    {
      "txid": "63522845d294ee9b0188ae5cac91bf389a0c3723f084ca1025e7d9cdfe481ce1",
      "hash": "63522845d294ee9b0188ae5cac91bf389a0c3723f084ca1025e7d9cdfe481ce1",
      "version": 1,
      "size": 134,
      "vsize": 134,
      "weight": 536,
      "locktime": 0,
      "vin": [
        {
          "coinbase": "04ffff001d0120",
          "sequence": 4294967295
        }
      ],
      "vout": [
        {
          "value": 50.0,
          "n": 0,
          "scriptPubKey": {
            "asm": "0456579536d150fbce94ee62b47db2ca43af0a730a0467ba55c79e2a7ec9ce4ad297e35cdbb8e42a4643a60eef7c9abee2f5822f86b1da242d9c2301c431facfd8 OP_CHECKSIG",
            "desc": "pk(0456579536d150fbce94ee62b47db2ca43af0a730a0467ba55c79e2a7ec9ce4ad297e35cdbb8e42a4643a60eef7c9abee2f5822f86b1da242d9c2301c431facfd8)#lslj2ktp",
            "hex": "410456579536d150fbce94ee62b47db2ca43af0a730a0467ba55c79e2a7ec9ce4ad297e35cdbb8e42a4643a60eef7c9abee2f5822f86b1da242d9c2301c431facfd8ac",
            "type": "pubkey"
          }
        }
      ],
      "hex": "01000000010000000000000000000000000000000000000000000000000000000000000000ffffffff0704ffff001d0120ffffffff0100f2052a0100000043410456579536d150fbce94ee62b47db2ca43af0a730a0467ba55c79e2a7ec9ce4ad297e35cdbb8e42a4643a60eef7c9abee2f5822f86b1da242d9c2301c431facfd8ac00000000"
    }
  ]
}