{
  "hash": "00000000aa339ed7cfa279eb35e8ef16fee4f9f328c088f15d648d7ac4ed0a7e",
  "confirmations": 43394,
  "height": 9704,
  "version": 1,
  "versionHex": "00000001",
  "merkleroot": "00f12e356cbbb856d262a588772b2cce84c50bfae2c4848389de8d9178980275",
  "time": 1238780142,
  "mediantime": 1238776816,
  "nonce": 3605603379,
  "bits": "1d00ffff",
  "difficulty": 1,
  "chainwork": "000000000000000000000000000000000000000000000000000025e925e925e9",
  "nTx": 1,
  "previousblockhash": "00000000096a6e5a2cf06d4bcd1402b8e49db28f8ebd5f0ba31b9b54d9f7000a",
  "nextblockhash": "00000000873b99a25f123d8b09a022b08d4a56a7b220f2b4ffce98c58f4e09bc",
  "strippedsize": 216,
  "size": 216,
  "weight": 864,
  "tx": [
    {
      "txid": "00f12e356cbbb856d262a588772b2cce84c50bfae2c4848389de8d9178980275",
      "hash": "00f12e356cbbb856d262a588772b2cce84c50bfae2c4848389de8d9178980275",
      "version": 1,
      "size": 135,
      "vsize": 135,
      "weight": 540,
      "locktime": 0,
      "vin": [
        {
          "coinbase": "04ffff001d027a08",
          "sequence": 4294967295
        }
      ],
      "vout": [
        {
          "value": 50.0,
          "n": 0,
          "scriptPubKey": {
            "asm": "04470ef2850a3443f646635bd227ea17a9f9c9b6ea7b7e5c0af01e69d9c6dcb1b8c0e8e080277bc01714de3e356e7e35dd6e2a6154066b3c53aee882ba71f85b2b OP_CHECKSIG",
            "desc": "pk(04470ef2850a3443f646635bd227ea17a9f9c9b6ea7b7e5c0af01e69d9c6dcb1b8c0e8e080277bc01714de3e356e7e35dd6e2a6154066b3c53aee882ba71f85b2b)#n2ctgarr",
            "hex": "4104470ef2850a3443f646635bd227ea17a9f9c9b6ea7b7e5c0af01e69d9c6dcb1b8c0e8e080277bc01714de3e356e7e35dd6e2a6154066b3c53aee882ba71f85b2bac",
            "type": "pubkey"
          }
        }
      ],
      "hex": "01000000010000000000000000000000000000000000000000000000000000000000000000ffffffff0804ffff001d027a08ffffffff0100f2052a01000000434104470ef2850a3443f646635bd227ea17a9f9c9b6ea7b7e5c0af01e69d9c6dcb1b8c0e8e080277bc01714de3e356e7e35dd6e2a6154066b3c53aee882ba71f85b2bac00000000"
    }
  ]
}