{
  "hash": "00000000e098ca34e9f3f5db8747ef86ecaf2ef37c5c2e2c1efc16471ac9d6d8",
  "confirmations": 46277,
  "height": 6821,
  "version": 1,
  "versionHex": "00000001",
  "merkleroot": "18da151ceea7feca531b6f30f69124d1491674f98c1baa3c753c13f563b7ef7c",
  "time": 1236572155,
  "mediantime": 1236567395,
  "nonce": 1545747229,
  "bits": "1d00ffff",
  "difficulty": 1,
  "chainwork": "00000000000000000000000000000000000000000000000000001aa61aa61aa6",
  "nTx": 1,
  "previousblockhash": "00000000d4b475b93aa2e16aa32bb0d4967f4a5ede8235de7b7b3f4b2105c185",
  "nextblockhash": "000000009cde2ce5bc01b3866af3ac350324f222d3c3509435539a517a13227d",
  "strippedsize": 216,
  "size": 216,
  "weight": 864,
  "tx": [
    {
      "txid": "18da151ceea7feca531b6f30f69124d1491674f98c1baa3c753c13f563b7ef7c",
      "hash": "18da151ceea7feca531b6f30f69124d1491674f98c1baa3c753c13f563b7ef7c",
      "version": 1,
      "size": 135,
      "vsize": 135,
      "weight": 540,
      "locktime": 0,
      "vin": [
        {
          "coinbase": "04ffff001d024e09",
          "sequence": 4294967295
        }
      ],
      "vout": [
        {
          "value": 50.0,
          "n": 0,
          "scriptPubKey": {
            "asm": "0459efedf4c34155dcd573551318d4e9c117e2dadbdaf58f5ece1389650294ac114919bea28604df32355c7e0249b697fdabbb4f4ec2537a5cf82551126a4681d5 OP_CHECKSIG",
            "desc": "pk(0459efedf4c34155dcd573551318d4e9c117e2dadbdaf58f5ece1389650294ac114919bea28604df32355c7e0249b697fdabbb4f4ec2537a5cf82551126a4681d5)#9lyenng3",
            "hex": "410459efedf4c34155dcd573551318d4e9c117e2dadbdaf58f5ece1389650294ac114919bea28604df32355c7e0249b697fdabbb4f4ec2537a5cf82551126a4681d5ac",
            "type": "pubkey"
          }
        }
      ],
      "hex": "01000000010000000000000000000000000000000000000000000000000000000000000000ffffffff0804ffff001d024e09ffffffff0100f2052a0100000043410459efedf4c34155dcd573551318d4e9c117e2dadbdaf58f5ece1389650294ac114919bea28604df32355c7e0249b697fdabbb4f4ec2537a5cf82551126a4681d5ac00000000"
    }
  ]
}