{
  "hash": "000000009efdd8d604a9250d5fc1cc992139b5ace5580a5fe00494ef99f016d7",
  "confirmations": 47767,
  "height": 5331,
  "version": 1,
  "versionHex": "00000001",
  "merkleroot": "a4e393053478f254bce0a2462a89f5529428a4ceec1356b7dc68c3b160e5614a",
  "time": 1235388168,
  "mediantime": 1235383515,
  "nonce": 2771484956,
  "bits": "1d00ffff",
  "difficulty": 1,
  "chainwork": "000000000000000000000000000000000000000000000000000014d414d414d4",
  "nTx": 1,
  "previousblockhash": "00000000b48f9e71a1313a6c3ccc4234345b5b134baf48f32c629dcfef546686",
  "nextblockhash": "000000002318be75dc17291f702b90fdaa2d232d77228159b4ddc3e45252daba",
  "strippedsize": 216,
  "size": 216,
  "weight": 864,
  "tx": [
    {
      "txid": "a4e393053478f254bce0a2462a89f5529428a4ceec1356b7dc68c3b160e5614a",
      "hash": "a4e393053478f254bce0a2462a89f5529428a4ceec1356b7dc68c3b160e5614a",
      "version": 1,
      "size": 135,
      "vsize": 135,
      "weight": 540,
      "locktime": 0,
      "vin": [
        {
          "coinbase": "04ffff001d027e02",
          "sequence": 4294967295
        }
      ],
      "vout": [
        {
          "value": 50.0,
          "n": 0,
          "scriptPubKey": {
            "asm": "043ed92e09771273290d99e00d35d9af5433fa1d38568ab5c0ec6dd090e6d7495e4eb199cda7faa3f6e23fbf51be52433feae01532bc4a092a74662362044c9ec1 OP_CHECKSIG",
            "desc": "pk(043ed92e09771273290d99e00d35d9af5433fa1d38568ab5c0ec6dd090e6d7495e4eb199cda7faa3f6e23fbf51be52433feae01532bc4a092a74662362044c9ec1)#hdh3p0lj",
            "hex": "41043ed92e09771273290d99e00d35d9af5433fa1d38568ab5c0ec6dd090e6d7495e4eb199cda7faa3f6e23fbf51be52433feae01532bc4a092a74662362044c9ec1ac",
            "type": "pubkey"
          }
        }
      ],
      "hex": "01000000010000000000000000000000000000000000000000000000000000000000000000ffffffff0804ffff001d027e02ffffffff0100f2052a010000004341043ed92e09771273290d99e00d35d9af5433fa1d38568ab5c0ec6dd090e6d7495e4eb199cda7faa3f6e23fbf51be52433feae01532bc4a092a74662362044c9ec1ac00000000"
    }
  ]
}