{
  "hash": "0000000004b5e05be7c491eb4f6cd26c118039046cfdc10bd42f575af477f67d",
  "confirmations": 47899,
  "height": 5199,
  "version": 1,
  "versionHex": "00000001",
  "merkleroot": "699e30976150084e40498367b1038cfa094b3a7208d88ba28a5ffe02c35ca106",
  "time": 1235287378,
  "mediantime": 1235283263,
  "nonce": 141281161,
  "bits": "1d00ffff",
  "difficulty": 1,
  "chainwork": "0000000000000000000000000000000000000000000000000000145014501450",
  "nTx": 1,
  "previousblockhash": "0000000079994f85bef0f1d6aabd59b089b5cd58e36d295fef9c0087ab399d30",
  "nextblockhash": "000000005139fca0ddd3f3ab9372b45b51171e3ff9568dc2e5c756d08db16b0f",
  "strippedsize": 216,
  "size": 216,
  "weight": 864,
  "tx": [
    {
      "txid": "699e30976150084e40498367b1038cfa094b3a7208d88ba28a5ffe02c35ca106",
      "hash": "699e30976150084e40498367b1038cfa094b3a7208d88ba28a5ffe02c35ca106",
      "version": 1,
      "size": 135,
      "vsize": 135,
      "weight": 540,
      "locktime": 0,
      "vin": [
        {
          "coinbase": "04ffff001d020e06",
          "sequence": 4294967295
        }
      ],
      "vout": [
        {
          "value": 50.0,
          "n": 0,
          "scriptPubKey": {
            "asm": "0448482f8ec41dd255028a304dea457748ff9c25e6dfb645fe0a6b1dade95ca2bf74980944aec7c85716ec630d37954d035fe2bb579d1f9bb4d1686dc578e04f59 OP_CHECKSIG",
            "desc": "pk(0448482f8ec41dd255028a304dea457748ff9c25e6dfb645fe0a6b1dade95ca2bf74980944aec7c85716ec630d37954d035fe2bb579d1f9bb4d1686dc578e04f59)#6p0vpyzl",
            "hex": "410448482f8ec41dd255028a304dea457748ff9c25e6dfb645fe0a6b1dade95ca2bf74980944aec7c85716ec630d37954d035fe2bb579d1f9bb4d1686dc578e04f59ac",
            "type": "pubkey"
          }
        }
      ],
      "hex": "01000000010000000000000000000000000000000000000000000000000000000000000000ffffffff0804ffff001d020e06ffffffff0100f2052a0100000043410448482f8ec41dd255028a304dea457748ff9c25e6dfb645fe0a6b1dade95ca2bf74980944aec7c85716ec630d37954d035fe2bb579d1f9bb4d1686dc578e04f59ac00000000"
    }
  ]
}