{
  "hash": "0000000065dcc2ca9250ed1e6c5d089663266646ece20545a7fbed933f3e8753",
  "confirmations": 46997,
  "height": 6101,
  "version": 1,
  "versionHex": "00000001",
  "merkleroot": "896ad9043c9e6f339cec00b42a4a8576a8be34ab3bd5c0611e43e35af008a620",
  "time": 1236010778,
  "mediantime": 1236005138,
  "nonce": 292631834,
  "bits": "1d00ffff",
  "difficulty": 1,
  "chainwork": "000000000000000000000000000000000000000000000000000017d617d617d6",
  "nTx": 1,
  "previousblockhash": "00000000707f5eba0caca3b6e725956e92c62f68c114a239f49ca9cf2b043801",
  "nextblockhash": "00000000d9218daa2bb14eff01c9e4de11d119a645356fa26c0b0572414ae334",
  "strippedsize": 216,
  "size": 216,
  "weight": 864,
  "tx": [
    {
      "txid": "896ad9043c9e6f339cec00b42a4a8576a8be34ab3bd5c0611e43e35af008a620",
      "hash": "896ad9043c9e6f339cec00b42a4a8576a8be34ab3bd5c0611e43e35af008a620",
      "version": 1,
      "size": 135,
      "vsize": 135,
      "weight": 540,
      "locktime": 0,
      "vin": [
        {
          "coinbase": "04ffff001d02cc06",
          "sequence": 4294967295
        }
      ],
      "vout": [
        {
          "value": 50.0,
          "n": 0,
          "scriptPubKey": {
            "asm": "041b1393a9d38a954b5858d9613d1c85bc9732507292dc69a79bb90792f5d6f79880c2d7b3725ce7fe53cf712bec38ed4c4e7e9f10f9b71e709f4482d2ca144863 OP_CHECKSIG",
            "desc": "pk(041b1393a9d38a954b5858d9613d1c85bc9732507292dc69a79bb90792f5d6f79880c2d7b3725ce7fe53cf712bec38ed4c4e7e9f10f9b71e709f4482d2ca144863)#e60x9wl7",
            "hex": "41041b1393a9d38a954b5858d9613d1c85bc9732507292dc69a79bb90792f5d6f79880c2d7b3725ce7fe53cf712bec38ed4c4e7e9f10f9b71e709f4482d2ca144863ac",
            "type": "pubkey"
          }
        }
      ],
      "hex": "01000000010000000000000000000000000000000000000000000000000000000000000000ffffffff0804ffff001d02cc06ffffffff0100f2052a010000004341041b1393a9d38a954b5858d9613d1c85bc9732507292dc69a79bb90792f5d6f79880c2d7b3725ce7fe53cf712bec38ed4c4e7e9f10f9b71e709f4482d2ca144863ac00000000"
    }
  ]
}