{
  "hash": "000000003cfe3e2403cc46de7c6c3e20221786af4f4577da48225bbb539b5d5e",
  "confirmations": 50065,
  "height": 3033,
  "version": 1,
  "versionHex": "00000001",
  "merkleroot": "de58f5bcf2ce7240749a85162c1fc4f27df9033b7cca8d661816aad6762347ca",
  "time": 1233783500,
  "mediantime": 1233781219,
  "nonce": 3956542774,
  "bits": "1d00ffff",
  "difficulty": 1,
  "chainwork": "00000000000000000000000000000000000000000000000000000bda0bda0bda",
  "nTx": 1,
  "previousblockhash": "000000007eb7ae764c9ea9ddf8f11ea576616a2fcccd0720f48bcde18b4f9ecd",
  "nextblockhash": "000000004b52938d0547fc2e74faf023150355592ada03105252c8fc0a46f7b0",
  "strippedsize": 216,
  "size": 216,
  "weight": 864,
  "tx": [
    {
      "txid": "de58f5bcf2ce7240749a85162c1fc4f27df9033b7cca8d661816aad6762347ca",
      "hash": "de58f5bcf2ce7240749a85162c1fc4f27df9033b7cca8d661816aad6762347ca",
      "version": 1,
      "size": 135,
      "vsize": 135,
      "weight": 540,
      "locktime": 0,
      "vin": [
        {
          "coinbase": "04ffff001d02d501",
          "sequence": 4294967295
        }
      ],
      "vout": [
        {
          "value": 50.0,
          "n": 0,
          "scriptPubKey": {
            "asm": "048fe8f713c5324496910376897e577cefd31097ad8a85dded8079e07af1910e292fba26be7c5f1135183ceda6ad41a265bff7d2ac25aca56e9f1c8fb791594859 OP_CHECKSIG",
            "desc": "pk(048fe8f713c5324496910376897e577cefd31097ad8a85dded8079e07af1910e292fba26be7c5f1135183ceda6ad41a265bff7d2ac25aca56e9f1c8fb791594859)#jslasq92",
            "hex": "41048fe8f713c5324496910376897e577cefd31097ad8a85dded8079e07af1910e292fba26be7c5f1135183ceda6ad41a265bff7d2ac25aca56e9f1c8fb791594859ac",
            "type": "pubkey"
          }
        }
      ],
      "hex": "01000000010000000000000000000000000000000000000000000000000000000000000000ffffffff0804ffff001d02d501ffffffff0100f2052a010000004341048fe8f713c5324496910376897e577cefd31097ad8a85dded8079e07af1910e292fba26be7c5f1135183ceda6ad41a265bff7d2ac25aca56e9f1c8fb791594859ac00000000"
    }
  ]
}