{
  "hash": "00000000b40394f3a6c8c4fef12d5cca6f66ce35eb190c69c8b03ccdfb1fed34",
  "confirmations": 44575,
  "height": 8523,
  "version": 1,
  "versionHex": "00000001",
  "merkleroot": "093eafa85cdc8e74494a69f199376dfa41a47b30537e217767a5b4830bc6321f",
  "time": 1237891152,
  "mediantime": 1237885255,
  "nonce": 2522755592,
  "bits": "1d00ffff",
  "difficulty": 1,
  "chainwork": "0000000000000000000000000000000000000000000000000000214c214c214c",
  "nTx": 1,
  "previousblockhash": "00000000d688cf4de5240c8cfcb389f37e55f66a130d4096f5053778f139f43f",
  "nextblockhash": "00000000dd67c115529e4cd02fa4df2085d55624e31bda594c107b31a2c12d86",
  "strippedsize": 216,
  "size": 216,
  "weight": 864,
  "tx": [
    {
      "txid": "093eafa85cdc8e74494a69f199376dfa41a47b30537e217767a5b4830bc6321f",
      "hash": "093eafa85cdc8e74494a69f199376dfa41a47b30537e217767a5b4830bc6321f",
      "version": 1,
      "size": 135,
      "vsize": 135,
      "weight": 540,
      "locktime": 0,
      "vin": [
        {
          "coinbase": "04ffff001d022208",
          "sequence": 4294967295
        }
      ],
      "vout": [
        {
          "value": 50.0,
          "n": 0,
          "scriptPubKey": {
            "asm": "041e727e08085b2c9b6ea7cb04a49c4280bfae241f506a70dc8521a7c13cf22e41ddf51c4a0036cc561135cc68e1dfcb5c5ea6a940c22da67b4413b677864f7821 OP_CHECKSIG",
            "desc": "pk(041e727e08085b2c9b6ea7cb04a49c4280bfae241f506a70dc8521a7c13cf22e41ddf51c4a0036cc561135cc68e1dfcb5c5ea6a940c22da67b4413b677864f7821)#tq24l0w3",
            "hex": "41041e727e08085b2c9b6ea7cb04a49c4280bfae241f506a70dc8521a7c13cf22e41ddf51c4a0036cc561135cc68e1dfcb5c5ea6a940c22da67b4413b677864f7821ac",
            "type": "pubkey"
          }
        }
      ],
      "hex": "01000000010000000000000000000000000000000000000000000000000000000000000000ffffffff0804ffff001d022208ffffffff0100f2052a010000004341041e727e08085b2c9b6ea7cb04a49c4280bfae241f506a70dc8521a7c13cf22e41ddf51c4a0036cc561135cc68e1dfcb5c5ea6a940c22da67b4413b677864f7821ac00000000"
    }
  ]
}