{
  "hash": "000000002d98b5f04bfec834842873d9a8dcaf92f25817d5a3dd04c601b84b94",
  "confirmations": 47882,
  "height": 5216,
  "version": 1,
  "versionHex": "00000001",
  "merkleroot": "9cc8790c39cd32319ee1369b986ca5663059fa9f66ef47f5c0582397de9a4476",
  "time": 1235295534,
  "mediantime": 1235292929,
  "nonce": 963223578,
  "bits": "1d00ffff",
  "difficulty": 1,
  "chainwork": "0000000000000000000000000000000000000000000000000000146114611461",
  "nTx": 1,
  "previousblockhash": "0000000037372e0730345c9991f9f4426428afd462329d9d61a3e626dc6ac015",
  "nextblockhash": "0000000025075f093c42a0393c844bc59f90024b18a9f588f6fa3fc37487c3c2",
  "strippedsize": 216,
  "size": 216,
  "weight": 864,
  "tx": [
    {
      "txid": "9cc8790c39cd32319ee1369b986ca5663059fa9f66ef47f5c0582397de9a4476",
      "hash": "9cc8790c39cd32319ee1369b986ca5663059fa9f66ef47f5c0582397de9a4476",
      "version": 1,
      "size": 135,
      "vsize": 135,
      "weight": 540,
      "locktime": 0,
      "vin": [
        {
          "coinbase": "04ffff001d02c200",
          "sequence": 4294967295
        }
      ],
      "vout": [
        {
          "value": 50.0,
          "n": 0,
          "scriptPubKey": {
            "asm": "04cb7979d7a1e1e967f2df1f15190e4534b1e467e47b18e67e7833dbb5c7a759afeae3091c5a28f0102eb2a52fa60e568c0cb0a5b1d4e0d8e55540fb630b803e32 OP_CHECKSIG",
            "desc": "pk(04cb7979d7a1e1e967f2df1f15190e4534b1e467e47b18e67e7833dbb5c7a759afeae3091c5a28f0102eb2a52fa60e568c0cb0a5b1d4e0d8e55540fb630b803e32)#dkm954su",
            "hex": "4104cb7979d7a1e1e967f2df1f15190e4534b1e467e47b18e67e7833dbb5c7a759afeae3091c5a28f0102eb2a52fa60e568c0cb0a5b1d4e0d8e55540fb630b803e32ac",
            "type": "pubkey"
          }
        }
      ],
      "hex": "01000000010000000000000000000000000000000000000000000000000000000000000000ffffffff0804ffff001d02c200ffffffff0100f2052a01000000434104cb7979d7a1e1e967f2df1f15190e4534b1e467e47b18e67e7833dbb5c7a759afeae3091c5a28f0102eb2a52fa60e568c0cb0a5b1d4e0d8e55540fb630b803e32ac00000000"
    }
  ]
}