{
  "hash": "00000000b15cc18f1326b12b66218aa68f3f038e45c6ff15ffd47a8bcf144c31",
  "confirmations": 50748,
  "height": 2350,
  "version": 1,
  "versionHex": "00000001",
  "merkleroot": "bfbe19020eaad0154a88cedac9b9d88d09716e6725229946227aeeadc02d7355",
  "time": 1233317259,
  "mediantime": 1233313208,
  "nonce": 3139651359,
  "bits": "1d00ffff",
  "difficulty": 1,
  "chainwork": "0000000000000000000000000000000000000000000000000000092f092f092f",
  "nTx": 1,
  "previousblockhash": "000000002378d870a489ae9b1460f3a170fdcf7ee1121c767a40cc3c5baec2ea",
  "nextblockhash": "000000009846564229f87d0eb692916c97251d48b5d59b853fb5cad385992b3b",
  "strippedsize": 216,
  "size": 216,
  "weight": 864,
  "tx": [
    {
      "txid": "bfbe19020eaad0154a88cedac9b9d88d09716e6725229946227aeeadc02d7355",
      "hash": "bfbe19020eaad0154a88cedac9b9d88d09716e6725229946227aeeadc02d7355",
      "version": 1,
      "size": 135,
      "vsize": 135,
      "weight": 540,
      "locktime": 0,
      "vin": [
        {
          "coinbase": "04ffff001d02be02",
          "sequence": 4294967295
        }
      ],
      "vout": [
        {
          "value": 50.0,
          "n": 0,
          "scriptPubKey": {
            "asm": "041cb8066b201235d2ebaddd5921ca1dbf9a7ecbe8d908be903324435e4830fea31be3e913520e467e3ee171eeb072146aa624622222ea646dee9f382c92cba37e OP_CHECKSIG",
            "desc": "pk(041cb8066b201235d2ebaddd5921ca1dbf9a7ecbe8d908be903324435e4830fea31be3e913520e467e3ee171eeb072146aa624622222ea646dee9f382c92cba37e)#kwnjtxv8",
            "hex": "41041cb8066b201235d2ebaddd5921ca1dbf9a7ecbe8d908be903324435e4830fea31be3e913520e467e3ee171eeb072146aa624622222ea646dee9f382c92cba37eac",
            "type": "pubkey"
          }
        }
      ],
      "hex": "01000000010000000000000000000000000000000000000000000000000000000000000000ffffffff0804ffff001d02be02ffffffff0100f2052a010000004341041cb8066b201235d2ebaddd5921ca1dbf9a7ecbe8d908be903324435e4830fea31be3e913520e467e3ee171eeb072146aa624622222ea646dee9f382c92cba37eac00000000"
    }
  ]
}