{
  "hash": "000000007ded56efcc8f4403816f031328926ea9a71ca38c60b78599fc3133f8",
  "confirmations": 43651,
  "height": 9447,
  "version": 1,
  "versionHex": "00000001",
  "merkleroot": "e45e0898815d17721120f0ef6df9b3057257f2942331b704fe5646ac7b90d5ee",
  "time": 1238589748,
  "mediantime": 1238585880,
  "nonce": 65835819,
  "bits": "1d00ffff",
  "difficulty": 1,
  "chainwork": "000000000000000000000000000000000000000000000000000024e824e824e8",
  "nTx": 1,
  "previousblockhash": "000000005a2fa33f9e9912dd16c71ed40445e392baff4a7756089413828b82bb",
  "nextblockhash": "00000000868027af1d3282ec317ed737a0363896a27ae4a831565c7a2d806003",
  "strippedsize": 216,
  "size": 216,
  "weight": 864,
  "tx": [
    {
      "txid": "e45e0898815d17721120f0ef6df9b3057257f2942331b704fe5646ac7b90d5ee",
      "hash": "e45e0898815d17721120f0ef6df9b3057257f2942331b704fe5646ac7b90d5ee",
      "version": 1,
      "size": 135,
      "vsize": 135,
      "weight": 540,
      "locktime": 0,
      "vin": [
        {
          "coinbase": "04ffff001d028b04",
          "sequence": 4294967295
        }
      ],
      "vout": [
        {
          "value": 50.0,
          "n": 0,
          "scriptPubKey": {
            "asm": "046c1c08487ce3a6f189e9771f3999523e463582993bd047d3a48c02f6bc2b75389138416880f6ce26af844bfe252322539d5b304ae39c1e877f39cee0263bd589 OP_CHECKSIG",
            "desc": "pk(046c1c08487ce3a6f189e9771f3999523e463582993bd047d3a48c02f6bc2b75389138416880f6ce26af844bfe252322539d5b304ae39c1e877f39cee0263bd589)#nafe6l22",
            "hex": "41046c1c08487ce3a6f189e9771f3999523e463582993bd047d3a48c02f6bc2b75389138416880f6ce26af844bfe252322539d5b304ae39c1e877f39cee0263bd589ac",
            "type": "pubkey"
          }
        }
      ],
      "hex": "01000000010000000000000000000000000000000000000000000000000000000000000000ffffffff0804ffff001d028b04ffffffff0100f2052a010000004341046c1c08487ce3a6f189e9771f3999523e463582993bd047d3a48c02f6bc2b75389138416880f6ce26af844bfe252322539d5b304ae39c1e877f39cee0263bd589ac00000000"
    }
  ]
}