{
  "hash": "00000000a0044b90f7600f5f7f094113f213fe963638972d242a400db0d3911f",
  "confirmations": 50610,
  "height": 2488,
  "version": 1,
  "versionHex": "00000001",
  "merkleroot": "54a2a7b899c2e65c3dfe248c861a5f30d80e32df5e13b79cd90473756fa40cac",
  "time": 1233414798,
  "mediantime": 1233412537,
  "nonce": 44076618,
  "bits": "1d00ffff",
  "difficulty": 1,
  "chainwork": "000000000000000000000000000000000000000000000000000009b909b909b9",
  "nTx": 1,
  "previousblockhash": "00000000bd6fa884554428530dd33f1a9aa593554cadda89f4cf8264e50ba3c9",
  "nextblockhash": "0000000035276fa0d290d11aa5e1fccf6854496c1e9da22e9ff7e9704e7451a2",
  "strippedsize": 216,
  "size": 216,
  "weight": 864,
  "tx": [
    {
      "txid": "54a2a7b899c2e65c3dfe248c861a5f30d80e32df5e13b79cd90473756fa40cac",
      "hash": "54a2a7b899c2e65c3dfe248c861a5f30d80e32df5e13b79cd90473756fa40cac",
      "version": 1,
      "size": 135,
      "vsize": 135,
      "weight": 540,
      "locktime": 0,
      "vin": [
        {
          "coinbase": "04ffff001d025001",
          "sequence": 4294967295
        }
      ],
      "vout": [
        {
          "value": 50.0,
          "n": 0,
          "scriptPubKey": {
            "asm": "040e7f29ddc8918345f7b187d9345cf89125a3d338c77446aec7fcc16032968e00e5952e0f7f3ba3b6d62c22ea537a673518407e6b3efc44682e77db95fd1fee73 OP_CHECKSIG",
            "desc": "pk(040e7f29ddc8918345f7b187d9345cf89125a3d338c77446aec7fcc16032968e00e5952e0f7f3ba3b6d62c22ea537a673518407e6b3efc44682e77db95fd1fee73)#zuttf042",
            "hex": "41040e7f29ddc8918345f7b187d9345cf89125a3d338c77446aec7fcc16032968e00e5952e0f7f3ba3b6d62c22ea537a673518407e6b3efc44682e77db95fd1fee73ac",
            "type": "pubkey"
          }
        }
      ],
      "hex": "01000000010000000000000000000000000000000000000000000000000000000000000000ffffffff0804ffff001d025001ffffffff0100f2052a010000004341040e7f29ddc8918345f7b187d9345cf89125a3d338c77446aec7fcc16032968e00e5952e0f7f3ba3b6d62c22ea537a673518407e6b3efc44682e77db95fd1fee73ac00000000"
    }
  ]
}