{
  "hash": "000000001383f9f8bbf03a0f4f80e18575c6cbfd3d91f6fb75de275ecbe3159e",
  "confirmations": 47064,
  "height": 6034,
  "version": 1,
  "versionHex": "00000001",
  "merkleroot": "035afccceee3497dc652055a0801cec6e03588b6e33cbe8c6fd7d2f68857b756",
  "time": 1235956537,
  "mediantime": 1235952055,
  "nonce": 2268403225,
  "bits": "1d00ffff",
  "difficulty": 1,
  "chainwork": "0000000000000000000000000000000000000000000000000000179317931793",
  "nTx": 1,
  "previousblockhash": "00000000838f0bfcf42b11be09ad50111df5e838e7f58b1616fe121ba5bd330a",
  "nextblockhash": "0000000097f8cc004ec6223f882678fe354bb73895e5fd92b1e997bcb5a3dc0b",
  "strippedsize": 216,
  "size": 216,
  "weight": 864,
  "tx": [
    {
      "txid": "035afccceee3497dc652055a0801cec6e03588b6e33cbe8c6fd7d2f68857b756",
      "hash": "035afccceee3497dc652055a0801cec6e03588b6e33cbe8c6fd7d2f68857b756",
      "version": 1,
      "size": 135,
      "vsize": 135,
      "weight": 540,
      "locktime": 0,
      "vin": [
        {
          "coinbase": "04ffff001d029d05",
          "sequence": 4294967295
        }
      ],
      "vout": [
        {
          "value": 50.0,
          "n": 0,
          "scriptPubKey": {
            "asm": "045386ecaa8554911138d1ba22f603feafe1241dc67b6614d24209bbb0561211b9f5bbf7a2db4fd3123cd191af115d568d8be9e800594285dbb04ca4639da62043 OP_CHECKSIG",
            "desc": "pk(045386ecaa8554911138d1ba22f603feafe1241dc67b6614d24209bbb0561211b9f5bbf7a2db4fd3123cd191af115d568d8be9e800594285dbb04ca4639da62043)#05lxu9h3",
            "hex": "41045386ecaa8554911138d1ba22f603feafe1241dc67b6614d24209bbb0561211b9f5bbf7a2db4fd3123cd191af115d568d8be9e800594285dbb04ca4639da62043ac",
            "type": "pubkey"
          }
        }
      ],
      "hex": "01000000010000000000000000000000000000000000000000000000000000000000000000ffffffff0804ffff001d029d05ffffffff0100f2052a010000004341045386ecaa8554911138d1ba22f603feafe1241dc67b6614d24209bbb0561211b9f5bbf7a2db4fd3123cd191af115d568d8be9e800594285dbb04ca4639da62043ac00000000"
    }
  ]
}