{
  "hash": "00000000aae2c3b8318803a611280d3938930d820772e43f92254f7d1921c8d5",
  "confirmations": 44591,
  "height": 8507,
  "version": 1,
  "versionHex": "00000001",
  "merkleroot": "9c6ac74665a4ea3560b7713a1a7a4f943b5d48fb1df5daf40237ce9601466c82",
  "time": 1237877180,
  "mediantime": 1237874197,
  "nonce": 2503203620,
  "bits": "1d00ffff",
  "difficulty": 1,
  "chainwork": "0000000000000000000000000000000000000000000000000000213c213c213c",
  "nTx": 1,
  "previousblockhash": "0000000098a71523ddd1970642b2f5a8991b5aa911d2681bf1d3fb9f4bde7be7",
  "nextblockhash": "00000000da3bc425973d4fd5de7e1b34872449530e8ea7d6ba40eea0287185ca",
  "strippedsize": 216,
  "size": 216,
  "weight": 864,
  "tx": [
    {
      "txid": "9c6ac74665a4ea3560b7713a1a7a4f943b5d48fb1df5daf40237ce9601466c82",
      "hash": "9c6ac74665a4ea3560b7713a1a7a4f943b5d48fb1df5daf40237ce9601466c82",
      "version": 1,
      "size": 135,
      "vsize": 135,
      "weight": 540,
      "locktime": 0,
      "vin": [
        {
          "coinbase": "04ffff001d02e007",
          "sequence": 4294967295
        }
      ],
      "vout": [
        {
          "value": 50.0,
          "n": 0,
          "scriptPubKey": {
            "asm": "04ebeceb2f89edc95c70d9873044e3a1bd933246e10c0fdac3a85dfaadfcb7d3563331d3b51da7855c48e6d68628337a29c615f37a523ffebea8e9120fdc2d8a81 OP_CHECKSIG",
            "desc": "pk(04ebeceb2f89edc95c70d9873044e3a1bd933246e10c0fdac3a85dfaadfcb7d3563331d3b51da7855c48e6d68628337a29c615f37a523ffebea8e9120fdc2d8a81)#8446g3v8",
            "hex": "4104ebeceb2f89edc95c70d9873044e3a1bd933246e10c0fdac3a85dfaadfcb7d3563331d3b51da7855c48e6d68628337a29c615f37a523ffebea8e9120fdc2d8a81ac",
            "type": "pubkey"
          }
        }
      ],
      "hex": "01000000010000000000000000000000000000000000000000000000000000000000000000ffffffff0804ffff001d02e007ffffffff0100f2052a01000000434104ebeceb2f89edc95c70d9873044e3a1bd933246e10c0fdac3a85dfaadfcb7d3563331d3b51da7855c48e6d68628337a29c615f37a523ffebea8e9120fdc2d8a81ac00000000"
    }
  ]
}