{
  "hash": "00000000bbbc218b74ae3d27a4e038258da12a61439e568b4f9cbc6a23bf2682",
  "confirmations": 48996,
  "height": 4102,
  "version": 1,
  "versionHex": "00000001",
  "merkleroot": "4f5f9cf8bdb1768cf797c589cb5c1792c58a2a6d0e2de9a68450eb13c90bf902",
  "time": 1234515730,
  "mediantime": 1234511110,
  "nonce": 932898593,
  "bits": "1d00ffff",
  "difficulty": 1,
  "chainwork": "0000000000000000000000000000000000000000000000000000100710071007",
  "nTx": 1,
  "previousblockhash": "00000000367551c3c80466ccaa7583ea433b57aa1e48b9f312775b32d89beb50",
  "nextblockhash": "00000000d3dfa80f2b20e2dd9e5fd668a87dd3a51e7c85f78ea53e9cc9977d3d",
  "strippedsize": 216,
  "size": 216,
  "weight": 864,
  "tx": [
    {
      "txid": "4f5f9cf8bdb1768cf797c589cb5c1792c58a2a6d0e2de9a68450eb13c90bf902",
      "hash": "4f5f9cf8bdb1768cf797c589cb5c1792c58a2a6d0e2de9a68450eb13c90bf902",
      "version": 1,
      "size": 135,
      "vsize": 135,
      "weight": 540,
      "locktime": 0,
      "vin": [
        {
          "coinbase": "04ffff001d02f405",
          "sequence": 4294967295
        }
      ],
      "vout": [
        {
          "value": 50.0,
          "n": 0,
          "scriptPubKey": {
            "asm": "0415feae855f1f600da615cc2d1d63193942bbe3b1e7eb5a76951a3de8a145c479eab03f70c62d9639d42577b0b475c392d4c86e2c65dd95bfade10433ce5e641e OP_CHECKSIG",
            "desc": "pk(0415feae855f1f600da615cc2d1d63193942bbe3b1e7eb5a76951a3de8a145c479eab03f70c62d9639d42577b0b475c392d4c86e2c65dd95bfade10433ce5e641e)#hcm65grx",
            "hex": "410415feae855f1f600da615cc2d1d63193942bbe3b1e7eb5a76951a3de8a145c479eab03f70c62d9639d42577b0b475c392d4c86e2c65dd95bfade10433ce5e641eac",
            "type": "pubkey"
          }
        }
      ],
      "hex": "01000000010000000000000000000000000000000000000000000000000000000000000000ffffffff0804ffff001d02f405ffffffff0100f2052a0100000043410415feae855f1f600da615cc2d1d63193942bbe3b1e7eb5a76951a3de8a145c479eab03f70c62d9639d42577b0b475c392d4c86e2c65dd95bfade10433ce5e641eac00000000"
    }
  ]
}