{
  "hash": "000000001414f1c4b00806241cedf3fb45c843c9144fbd14df57c03a84b8cc7b",
  "confirmations": 51147,
  "height": 1951,
  "version": 1,
  "versionHex": "00000001",
  "merkleroot": "cc38f4a9e12f8a3d73ec60a332febcd8be4120f40d18c00a26b741feebc0e5ae",
  "time": 1233008892,
  "mediantime": 1233004797,
  "nonce": 691669283,
  "bits": "1d00ffff",
  "difficulty": 1,
  "chainwork": "000000000000000000000000000000000000000000000000000007a007a007a0",
  "nTx": 1,
  "previousblockhash": "000000008a3f87d76e4e59fbd3c531a87b0557b91c838a988e7c9589b42cf7db",
  "nextblockhash": "00000000a76232a750ee00bc46ea28d6fdc59e34487adbe6f985b62cd50ef7d1",
  "strippedsize": 216,
  "size": 216,
  "weight": 864,
  "tx": [
    {
      "txid": "cc38f4a9e12f8a3d73ec60a332febcd8be4120f40d18c00a26b741feebc0e5ae",
      "hash": "cc38f4a9e12f8a3d73ec60a332febcd8be4120f40d18c00a26b741feebc0e5ae",
      "version": 1,
      "size": 135,
      "vsize": 135,
      "weight": 540,
      "locktime": 0,
      "vin": [
        {
          "coinbase": "04ffff001d028f00",
          "sequence": 4294967295
        }
      ],
      "vout": [
        {
          "value": 50.0,
          "n": 0,
          "scriptPubKey": {
            "asm": "04b4ba0a2a853decd6085e9381a3b7e5f3f3ecc546c4a4e3c46298afee4b0432dadcfb488c0f5041aaaee69ebaab3a2f210e6c9ad051ada6494048b5b3f44ca9b2 OP_CHECKSIG",
            "desc": "pk(04b4ba0a2a853decd6085e9381a3b7e5f3f3ecc546c4a4e3c46298afee4b0432dadcfb488c0f5041aaaee69ebaab3a2f210e6c9ad051ada6494048b5b3f44ca9b2)#hp52l724",
            "hex": "4104b4ba0a2a853decd6085e9381a3b7e5f3f3ecc546c4a4e3c46298afee4b0432dadcfb488c0f5041aaaee69ebaab3a2f210e6c9ad051ada6494048b5b3f44ca9b2ac",
            "type": "pubkey"
          }
        }
      ],
      "hex": "01000000010000000000000000000000000000000000000000000000000000000000000000ffffffff0804ffff001d028f00ffffffff0100f2052a01000000434104b4ba0a2a853decd6085e9381a3b7e5f3f3ecc546c4a4e3c46298afee4b0432dadcfb488c0f5041aaaee69ebaab3a2f210e6c9ad051ada6494048b5b3f44ca9b2ac00000000"
    }
  ]
}