{
  "hash": "000000000a27fe6e830188657d3e6952640dc4e5645d10587aa39a96c465ea01",
  "confirmations": 45046,
  "height": 8052,
  "version": 1,
  "versionHex": "00000001",
  "merkleroot": "6c068701b1faf9aa892cb3b08c5289d208a2256c5d12842de839040c7a957c34",
  "time": 1237498836,
  "mediantime": 1237495440,
  "nonce": 3952796977,
  "bits": "1d00ffff",
  "difficulty": 1,
  "chainwork": "00000000000000000000000000000000000000000000000000001f751f751f75",
  "nTx": 1,
  "previousblockhash": "00000000b95a06d9c629e486f4e42bbaa4ee3c6f76181806c816c2bf99464b09",
  "nextblockhash": "00000000677656fad39aa16dccde62544df254962ca5ebb74ba27654d0467e78",
  "strippedsize": 215,
  "size": 215,
  "weight": 860,
  "tx": [
    {
      "txid": "6c068701b1faf9aa892cb3b08c5289d208a2256c5d12842de839040c7a957c34",
      "hash": "6c068701b1faf9aa892cb3b08c5289d208a2256c5d12842de839040c7a957c34",
      "version": 1,
      "size": 134,
      "vsize": 134,
      "weight": 536,
      "locktime": 0,
      "vin": [
        {
          "coinbase": "04ffff001d011e",
          "sequence": 4294967295
        }
      ],
      "vout": [
        {
          "value": 50.0,
          "n": 0,
          "scriptPubKey": {
            "asm": "04204e34ead74c8112751ca2cfe3490bb31a27e8f46f5f6a3cd277846d5f20a3479180ccd9390186d58e35ba59537db5b06ad3dbea7c8b882fe33f4dbf2183b9b1 OP_CHECKSIG",
            "desc": "pk(04204e34ead74c8112751ca2cfe3490bb31a27e8f46f5f6a3cd277846d5f20a3479180ccd9390186d58e35ba59537db5b06ad3dbea7c8b882fe33f4dbf2183b9b1)#rww5h9su",
            "hex": "4104204e34ead74c8112751ca2cfe3490bb31a27e8f46f5f6a3cd277846d5f20a3479180ccd9390186d58e35ba59537db5b06ad3dbea7c8b882fe33f4dbf2183b9b1ac",
            "type": "pubkey"
          }
        }
      ],
      "hex": "01000000010000000000000000000000000000000000000000000000000000000000000000ffffffff0704ffff001d011effffffff0100f2052a01000000434104204e34ead74c8112751ca2cfe3490bb31a27e8f46f5f6a3cd277846d5f20a3479180ccd9390186d58e35ba59537db5b06ad3dbea7c8b882fe33f4dbf2183b9b1ac00000000"
    }
  ]
}