{
  "hash": "0000000049adbeeca7fb22c980d0788eb83188c1481fddd6009519d2c9dcfea6",
  "confirmations": 43225,
  "height": 9873,
  "version": 1,
  "versionHex": "00000001",
  "merkleroot": "27ac35e1415f08b84bf898c41b2af1d1b26c0803cbf8711511dbcbcd294c761f",
  "time": 1238907919,
  "mediantime": 1238904436,
  "nonce": 208334875,
  "bits": "1d00ffff",
  "difficulty": 1,
  "chainwork": "0000000000000000000000000000000000000000000000000000269226922692",
  "nTx": 1,
  "previousblockhash": "0000000096fed37ea3ca79072dcd1deb328413843550fd271a01bc4e56ea4854",
  "nextblockhash": "00000000e6e807e81755db9421d65e1017661109e9270913cab0283fc94acc1a",
  "strippedsize": 216,
  "size": 216,
  "weight": 864,
  "tx": [
    {
      "txid": "27ac35e1415f08b84bf898c41b2af1d1b26c0803cbf8711511dbcbcd294c761f",
      "hash": "27ac35e1415f08b84bf898c41b2af1d1b26c0803cbf8711511dbcbcd294c761f",
      "version": 1,
      "size": 135,
      "vsize": 135,
      "weight": 540,
      "locktime": 0,
      "vin": [
        {
          "coinbase": "04ffff001d02ab01",
          "sequence": 4294967295
        }
      ],
      "vout": [
        {
          "value": 50.0,
          "n": 0,
          "scriptPubKey": {
            "asm": "04db646c2978afb61245bbd01072cf0a4b46001d76ee4e52fb53eeac734dc15c33d265d711c7e3a5e2824a402f28587066d7bf6fec8cceaec447af831910fdc3f6 OP_CHECKSIG",
            "desc": "pk(04db646c2978afb61245bbd01072cf0a4b46001d76ee4e52fb53eeac734dc15c33d265d711c7e3a5e2824a402f28587066d7bf6fec8cceaec447af831910fdc3f6)#u6plr385",
            "hex": "4104db646c2978afb61245bbd01072cf0a4b46001d76ee4e52fb53eeac734dc15c33d265d711c7e3a5e2824a402f28587066d7bf6fec8cceaec447af831910fdc3f6ac",
            "type": "pubkey"
          }
        }
      ],
      "hex": "01000000010000000000000000000000000000000000000000000000000000000000000000ffffffff0804ffff001d02ab01ffffffff0100f2052a01000000434104db646c2978afb61245bbd01072cf0a4b46001d76ee4e52fb53eeac734dc15c33d265d711c7e3a5e2824a402f28587066d7bf6fec8cceaec447af831910fdc3f6ac00000000"
    }
  ]
}