{
  "hash": "000000002fe533f8072b16630474527667d8b8b6c7ab1b9add74ab68250f623c",
  "confirmations": 50027,
  "height": 3071,
  "version": 1,
  "versionHex": "00000001",
  "merkleroot": "a2faa2b713d3a608cbca3c3db9a51b13a07c5cc6fb2c4234ab78a313cca038e7",
  "time": 1233810083,
  "mediantime": 1233806009,
  "nonce": 2365991198,
  "bits": "1d00ffff",
  "difficulty": 1,
  "chainwork": "00000000000000000000000000000000000000000000000000000c000c000c00",
  "nTx": 1,
  "previousblockhash": "000000003e3f906f35b88dcf209aa9678511c09ddfbf966b32603d46fb8ebad1",
  "nextblockhash": "000000002a871d6e5cd6d89b551dbc96d992637000bb02ba10140e41bf06ae19",
  "strippedsize": 216,
  "size": 216,
  "weight": 864,
  "tx": [
    {
      "txid": "a2faa2b713d3a608cbca3c3db9a51b13a07c5cc6fb2c4234ab78a313cca038e7",
      "hash": "a2faa2b713d3a608cbca3c3db9a51b13a07c5cc6fb2c4234ab78a313cca038e7",
      "version": 1,
      "size": 135,
      "vsize": 135,
      "weight": 540,
      "locktime": 0,
      "vin": [
        {
          "coinbase": "04ffff001d029700",
          "sequence": 4294967295
        }
      ],
      "vout": [
        {
          "value": 50.0,
          "n": 0,
          "scriptPubKey": {
            "asm": "04c6897a5d42c8009f9b2696706c2212efc722afee3c0ef25ff7caf31cf4b5e4b7c9eb9d8936d6c20c38f8e41129876c8d85bd7dece654e4947790cad720dfa17a OP_CHECKSIG",
            "desc": "pk(04c6897a5d42c8009f9b2696706c2212efc722afee3c0ef25ff7caf31cf4b5e4b7c9eb9d8936d6c20c38f8e41129876c8d85bd7dece654e4947790cad720dfa17a)#chc96cah",
            "hex": "4104c6897a5d42c8009f9b2696706c2212efc722afee3c0ef25ff7caf31cf4b5e4b7c9eb9d8936d6c20c38f8e41129876c8d85bd7dece654e4947790cad720dfa17aac",
            "type": "pubkey"
          }
        }
      ],
      "hex": "01000000010000000000000000000000000000000000000000000000000000000000000000ffffffff0804ffff001d029700ffffffff0100f2052a01000000434104c6897a5d42c8009f9b2696706c2212efc722afee3c0ef25ff7caf31cf4b5e4b7c9eb9d8936d6c20c38f8e41129876c8d85bd7dece654e4947790cad720dfa17aac00000000"
    }
  ]
}