{
  "hash": "00000000973620c3ffd7de52d1cd1ce698264b835cc2ebe2be235507918c4c30",
  "confirmations": 49618,
  "height": 3480,
  "version": 1,
  "versionHex": "00000001",
  "merkleroot": "debfbc2b477110b2883d16c08d17d5652cb17d52fc6f5bf3b31f3a9966be9f8e",
  "time": 1234089031,
  "mediantime": 1234085861,
  "nonce": 139914795,
  "bits": "1d00ffff",
  "difficulty": 1,
  "chainwork": "00000000000000000000000000000000000000000000000000000d990d990d99",
  "nTx": 1,
  "previousblockhash": "00000000c4c896025ba83c494125757f10a8d05e90443b1a7d10281a9cccb24a",
  "nextblockhash": "0000000078f33ce8fe84be281a618b43e3cd97c2481f313f21d8bb772fb9f427",
  "strippedsize": 216,
  "size": 216,
  "weight": 864,
  "tx": [
    {
      "txid": "debfbc2b477110b2883d16c08d17d5652cb17d52fc6f5bf3b31f3a9966be9f8e",
      "hash": "debfbc2b477110b2883d16c08d17d5652cb17d52fc6f5bf3b31f3a9966be9f8e",
      "version": 1,
      "size": 135,
      "vsize": 135,
      "weight": 540,
      "locktime": 0,
      "vin": [
        {
          "coinbase": "04ffff001d022806",
          "sequence": 4294967295
        }
      ],
      "vout": [
        {
          "value": 50.0,
          "n": 0,
          "scriptPubKey": {
            "asm": "04d1d758e066564d2149f298ae88a4d5fc0eea643c937cd4f80a1a017b34f30b12c322668e9907a3041d84b7e7346c5331c603c0f8d7c1ee0fe4a6d1a93f42fed7 OP_CHECKSIG",
            "desc": "pk(04d1d758e066564d2149f298ae88a4d5fc0eea643c937cd4f80a1a017b34f30b12c322668e9907a3041d84b7e7346c5331c603c0f8d7c1ee0fe4a6d1a93f42fed7)#484x6m9m",
            "hex": "4104d1d758e066564d2149f298ae88a4d5fc0eea643c937cd4f80a1a017b34f30b12c322668e9907a3041d84b7e7346c5331c603c0f8d7c1ee0fe4a6d1a93f42fed7ac",
            "type": "pubkey"
          }
        }
      ],
      "hex": "01000000010000000000000000000000000000000000000000000000000000000000000000ffffffff0804ffff001d022806ffffffff0100f2052a01000000434104d1d758e066564d2149f298ae88a4d5fc0eea643c937cd4f80a1a017b34f30b12c322668e9907a3041d84b7e7346c5331c603c0f8d7c1ee0fe4a6d1a93f42fed7ac00000000"
    }
  ]
}