{
  "hash": "000000005f1a9e236f32bcfbdb8ccd951e120858070d459d048ccf9577c462fd",
  "confirmations": 52188,
  "height": 433,
  "version": 1,
  "versionHex": "00000001",
  "merkleroot": "a94ce7bdfc2204c25fbeae8a66a82d6cf5a276f295c9995820f4621c8587022e",
  "time": 1231924258,
  "mediantime": 1231920924,
  "nonce": 280531905,
  "bits": "1d00ffff",
  "difficulty": 1,
  "chainwork": "000000000000000000000000000000000000000000000000000001b201b201b2",
  "nTx": 1,
  "previousblockhash": "00000000fa6066998c588e2c3933e036ed64907a65ec593fd8ab37316fed0e8f",
  "nextblockhash": "00000000f102043c1c58e47b6e91e6804f7ae356fed25c456c6f8359e737da6d",
  "strippedsize": 215,
  "size": 215,
  "weight": 860,
  "tx": [
    {
      "txid": "a94ce7bdfc2204c25fbeae8a66a82d6cf5a276f295c9995820f4621c8587022e",
      "hash": "a94ce7bdfc2204c25fbeae8a66a82d6cf5a276f295c9995820f4621c8587022e",
      "version": 1,
      "size": 134,
      "vsize": 134,
      "weight": 536,
      "locktime": 0,
      "vin": [
        {
          "coinbase": "04ffff001d0130",
          "sequence": 4294967295
        }
      ],
      "vout": [
        {
          "value": 50.0,
          "n": 0,
          "scriptPubKey": {
            "asm": "045c40fab087d4d4d18adad3245e48ad33a323d95fa9691e0fc0de57e653b0b586fb8d7c7efac178647087c6769cb3236bd9db43e1d7ca43b08d3021c4164aec9b OP_CHECKSIG",
            "desc": "pk(045c40fab087d4d4d18adad3245e48ad33a323d95fa9691e0fc0de57e653b0b586fb8d7c7efac178647087c6769cb3236bd9db43e1d7ca43b08d3021c4164aec9b)#e08sv87f",
            "hex": "41045c40fab087d4d4d18adad3245e48ad33a323d95fa9691e0fc0de57e653b0b586fb8d7c7efac178647087c6769cb3236bd9db43e1d7ca43b08d3021c4164aec9bac",
            "type": "pubkey"
          }
        }
      ],
      "hex": "01000000010000000000000000000000000000000000000000000000000000000000000000ffffffff0704ffff001d0130ffffffff0100f2052a010000004341045c40fab087d4d4d18adad3245e48ad33a323d95fa9691e0fc0de57e653b0b586fb8d7c7efac178647087c6769cb3236bd9db43e1d7ca43b08d3021c4164aec9bac00000000"
    }
  ]
}