{
  "hash": "000000005d2b548da26c517588c77bc11e157ff666fef91ad10ef32be07a3933",
  "confirmations": 51764,
  "height": 1334,
  "version": 1,
  "versionHex": "00000001",
  "merkleroot": "79e9edd4a5a49b5130d0eeca47ef70747b97bcdd115bdc5b721a917461e782e7",
  "time": 1232626632,
  "mediantime": 1232621997,
  "nonce": 658635821,
  "bits": "1d00ffff",
  "difficulty": 1,
  "chainwork": "0000000000000000000000000000000000000000000000000000053705370537",
  "nTx": 1,
  "previousblockhash": "00000000841a4a0ed073bac16b8293717282e61a02bd6b8ffb38fe32d0f29e57",
  "nextblockhash": "000000006e2da81cbf5954bf848a0716d640c0c9a178af86f3c4f62ebf888f9a",
  "strippedsize": 216,
  "size": 216,
  "weight": 864,
  "tx": [
    {
      "txid": "79e9edd4a5a49b5130d0eeca47ef70747b97bcdd115bdc5b721a917461e782e7",
      "hash": "79e9edd4a5a49b5130d0eeca47ef70747b97bcdd115bdc5b721a917461e782e7",
      "version": 1,
      "size": 135,
      "vsize": 135,
      "weight": 540,
      "locktime": 0,
      "vin": [
        {
          "coinbase": "04ffff001d02c700",
          "sequence": 4294967295
        }
      ],
      "vout": [
        {
          "value": 50.0,
          "n": 0,
          "scriptPubKey": {
            "asm": "0462ae6bd1bfb9725e67830ce92a635f1de6f5fb2fed9e2b32eb45f26bf740b2728cb2621f29c5a628d01b854dc3ba2e29faed6a0e03751ea2933a10226a7a78cb OP_CHECKSIG",
            "desc": "pk(0462ae6bd1bfb9725e67830ce92a635f1de6f5fb2fed9e2b32eb45f26bf740b2728cb2621f29c5a628d01b854dc3ba2e29faed6a0e03751ea2933a10226a7a78cb)#ne4ka4dv",
            "hex": "410462ae6bd1bfb9725e67830ce92a635f1de6f5fb2fed9e2b32eb45f26bf740b2728cb2621f29c5a628d01b854dc3ba2e29faed6a0e03751ea2933a10226a7a78cbac",
            "type": "pubkey"
          }
        }
      ],
      "hex": "01000000010000000000000000000000000000000000000000000000000000000000000000ffffffff0804ffff001d02c700ffffffff0100f2052a0100000043410462ae6bd1bfb9725e67830ce92a635f1de6f5fb2fed9e2b32eb45f26bf740b2728cb2621f29c5a628d01b854dc3ba2e29faed6a0e03751ea2933a10226a7a78cbac00000000"
    }
  ]
}