{
  "hash": "00000000105e488237af82627f85b0414c6b91a8c3fe1f64843b404c6258294d",
  "confirmations": 45753,
  "height": 7345,
  "version": 1,
  "versionHex": "00000001",
  "merkleroot": "dd4643c4333467101bfe17213e7cbb9fd2fafd6dc176b9e28bd05e36f776a506",
  "time": 1236979937,
  "mediantime": 1236977252,
  "nonce": 921668379,
  "bits": "1d00ffff",
  "difficulty": 1,
  "chainwork": "00000000000000000000000000000000000000000000000000001cb21cb21cb2",
  "nTx": 1,
  "previousblockhash": "000000000381ffacfdce77f3544e4671ce4a48a12e15502c144dfb4ef00b8326",
  "nextblockhash": "00000000a249463a60d644eae16e4e2273d06b8760242df2230677d16a22eba5",
  "strippedsize": 216,
  "size": 216,
  "weight": 864,
  "tx": [
    {
      "txid": "dd4643c4333467101bfe17213e7cbb9fd2fafd6dc176b9e28bd05e36f776a506",
      "hash": "dd4643c4333467101bfe17213e7cbb9fd2fafd6dc176b9e28bd05e36f776a506",
      "version": 1,
      "size": 135,
      "vsize": 135,
      "weight": 540,
      "locktime": 0,
      "vin": [
        {
          "coinbase": "04ffff001d026e08",
          "sequence": 4294967295
        }
      ],
      "vout": [
        {
          "value": 50.0,
          "n": 0,
          "scriptPubKey": {
            "asm": "0478c7b56f8f664de4dfd70a09f5786f5476dfe9dac722fa0c8dad4c05ae48dfb6d45d756ed4f246cdde525d906693904b8f6b665d3cefe94864fbd6f31d7fe16d OP_CHECKSIG",
            "desc": "pk(0478c7b56f8f664de4dfd70a09f5786f5476dfe9dac722fa0c8dad4c05ae48dfb6d45d756ed4f246cdde525d906693904b8f6b665d3cefe94864fbd6f31d7fe16d)#r2yuh32w",
            "hex": "410478c7b56f8f664de4dfd70a09f5786f5476dfe9dac722fa0c8dad4c05ae48dfb6d45d756ed4f246cdde525d906693904b8f6b665d3cefe94864fbd6f31d7fe16dac",
            "type": "pubkey"
          }
        }
      ],
      "hex": "01000000010000000000000000000000000000000000000000000000000000000000000000ffffffff0804ffff001d026e08ffffffff0100f2052a0100000043410478c7b56f8f664de4dfd70a09f5786f5476dfe9dac722fa0c8dad4c05ae48dfb6d45d756ed4f246cdde525d906693904b8f6b665d3cefe94864fbd6f31d7fe16dac00000000"
    }
  ]
}