{
  "hash": "00000000c792e56146dbddad10fd6291486bd905b14992e54319f08196d88da3",
  "confirmations": 49765,
  "height": 3333,
  "version": 1,
  "versionHex": "00000001",
  "merkleroot": "8d3119e23ed59706d396ddaa6af574ef68926801e0fdf4ad649d2744e974323f",
  "time": 1233988845,
  "mediantime": 1233984947,
  "nonce": 4009148461,
  "bits": "1d00ffff",
  "difficulty": 1,
  "chainwork": "00000000000000000000000000000000000000000000000000000d060d060d06",
  "nTx": 1,
  "previousblockhash": "0000000029dd23371637ffe40c2121b5bb246492e3595248f754ea461ac433b5",
  "nextblockhash": "0000000012c0d2d7bdb9f16c2fef39bec4b7fc84e117e21d7a8aed23e444fc9e",
  "strippedsize": 216,
  "size": 216,
  "weight": 864,
  "tx": [
    {
      "txid": "8d3119e23ed59706d396ddaa6af574ef68926801e0fdf4ad649d2744e974323f",
      "hash": "8d3119e23ed59706d396ddaa6af574ef68926801e0fdf4ad649d2744e974323f",
      "version": 1,
      "size": 135,
      "vsize": 135,
      "weight": 540,
      "locktime": 0,
      "vin": [
        {
          "coinbase": "04ffff001d02d404",
          "sequence": 4294967295
        }
      ],
      "vout": [
        {
          "value": 50.0,
          "n": 0,
          "scriptPubKey": {
            "asm": "048155c643a2e73ccae2deb546577486ce281429149d021e119f0c936c60864f84bd429f6343c932b706d2e4f3606ccc618c793092d2f628b35ac8d5eec7693c02 OP_CHECKSIG",
            "desc": "pk(048155c643a2e73ccae2deb546577486ce281429149d021e119f0c936c60864f84bd429f6343c932b706d2e4f3606ccc618c793092d2f628b35ac8d5eec7693c02)#yagq4d6q",
            "hex": "41048155c643a2e73ccae2deb546577486ce281429149d021e119f0c936c60864f84bd429f6343c932b706d2e4f3606ccc618c793092d2f628b35ac8d5eec7693c02ac",
            "type": "pubkey"
          }
        }
      ],
      "hex": "01000000010000000000000000000000000000000000000000000000000000000000000000ffffffff0804ffff001d02d404ffffffff0100f2052a010000004341048155c643a2e73ccae2deb546577486ce281429149d021e119f0c936c60864f84bd429f6343c932b706d2e4f3606ccc618c793092d2f628b35ac8d5eec7693c02ac00000000"
    }
  ]
}