{
  "hash": "0000000059824cf5bc5d1d0af1c7dd8608d5c7d91d49b2d9c233332e47dd9d22",
  "confirmations": 45682,
  "height": 7416,
  "version": 1,
  "versionHex": "00000001",
  "merkleroot": "0beb80bdb6fb2e692795e03e8f70ffd342e68b51b1cb08e927aa509700dd4c73",
  "time": 1237034778,
  "mediantime": 1237031738,
  "nonce": 2627124275,
  "bits": "1d00ffff",
  "difficulty": 1,
  "chainwork": "00000000000000000000000000000000000000000000000000001cf91cf91cf9",
  "nTx": 1,
  "previousblockhash": "00000000f87025fc25b08d602f23a4754d368fe8e3c9fc8505b1a101874dd1eb",
  "nextblockhash": "00000000e6d396093b92c68e18af6ac367fd7111280711b1c73cb661ca5ddfc9",
  "strippedsize": 216,
  "size": 216,
  "weight": 864,
  "tx": [
    {
      "txid": "0beb80bdb6fb2e692795e03e8f70ffd342e68b51b1cb08e927aa509700dd4c73",
      "hash": "0beb80bdb6fb2e692795e03e8f70ffd342e68b51b1cb08e927aa509700dd4c73",
      "version": 1,
      "size": 135,
      "vsize": 135,
      "weight": 540,
      "locktime": 0,
      "vin": [
        {
          "coinbase": "04ffff001d02b409",
          "sequence": 4294967295
        }
      ],
      "vout": [
        {
          "value": 50.0,
          "n": 0,
          "scriptPubKey": {
            "asm": "04e2d9dd345dd7a100ab5f0a2ce5adb211f9b6ed8ecfa7e60db94065d433a70e445d294628ab270c6c995e09f8a1bcef04bab0500e19d6f7dd17b5417616faf0fb OP_CHECKSIG",
            "desc": "pk(04e2d9dd345dd7a100ab5f0a2ce5adb211f9b6ed8ecfa7e60db94065d433a70e445d294628ab270c6c995e09f8a1bcef04bab0500e19d6f7dd17b5417616faf0fb)#f5kjyqkl",
            "hex": "4104e2d9dd345dd7a100ab5f0a2ce5adb211f9b6ed8ecfa7e60db94065d433a70e445d294628ab270c6c995e09f8a1bcef04bab0500e19d6f7dd17b5417616faf0fbac",
            "type": "pubkey"
          }
        }
      ],
      "hex": "01000000010000000000000000000000000000000000000000000000000000000000000000ffffffff0804ffff001d02b409ffffffff0100f2052a01000000434104e2d9dd345dd7a100ab5f0a2ce5adb211f9b6ed8ecfa7e60db94065d433a70e445d294628ab270c6c995e09f8a1bcef04bab0500e19d6f7dd17b5417616faf0fbac00000000"
    }
  ]
}