{
  "hash": "00000000eb9788be682b8e427ed48cb2a128ffddcb509fa8164108a483a41bdd",
  "confirmations": 44834,
  "height": 8264,
  "version": 1,
  "versionHex": "00000001",
  "merkleroot": "8c83f7766433e6cc7eb96d64a70eba5a1ab7024184c4358ad7f6258924bc5bea",
  "time": 1237707499,
  "mediantime": 1237703036,
  "nonce": 393399325,
  "bits": "1d00ffff",
  "difficulty": 1,
  "chainwork": "0000000000000000000000000000000000000000000000000000204920492049",
  "nTx": 1,
  "previousblockhash": "000000001387aa638f0d2b584da63a8f101ac6ee167df801f3f1c685f72a7abc",
  "nextblockhash": "000000006ebcdb80c7c2e27af3f3dd6e54efd5094328a319a8cb9024a64fe4a7",
  "strippedsize": 216,
  "size": 216,
  "weight": 864,
  "tx": [
    {
      "txid": "8c83f7766433e6cc7eb96d64a70eba5a1ab7024184c4358ad7f6258924bc5bea",
      "hash": "8c83f7766433e6cc7eb96d64a70eba5a1ab7024184c4358ad7f6258924bc5bea",
      "version": 1,
      "size": 135,
      "vsize": 135,
      "weight": 540,
      "locktime": 0,
      "vin": [
        {
          "coinbase": "04ffff001d02aa03",
          "sequence": 4294967295
        }
      ],
      "vout": [
        {
          "value": 50.0,
          "n": 0,
          "scriptPubKey": {
            "asm": "0443fdd58d5cdd841ba2600ae7f827036e96cbb2c66eca996f06c4d5f29a1d251d376bdfb069cef57c9c5aa9d14ee60940bf3a3f77a6510a1bcb20642a0648fd65 OP_CHECKSIG",
            "desc": "pk(0443fdd58d5cdd841ba2600ae7f827036e96cbb2c66eca996f06c4d5f29a1d251d376bdfb069cef57c9c5aa9d14ee60940bf3a3f77a6510a1bcb20642a0648fd65)#qfcfrycv",
            "hex": "410443fdd58d5cdd841ba2600ae7f827036e96cbb2c66eca996f06c4d5f29a1d251d376bdfb069cef57c9c5aa9d14ee60940bf3a3f77a6510a1bcb20642a0648fd65ac",
            "type": "pubkey"
          }
        }
      ],
      "hex": "01000000010000000000000000000000000000000000000000000000000000000000000000ffffffff0804ffff001d02aa03ffffffff0100f2052a0100000043410443fdd58d5cdd841ba2600ae7f827036e96cbb2c66eca996f06c4d5f29a1d251d376bdfb069cef57c9c5aa9d14ee60940bf3a3f77a6510a1bcb20642a0648fd65ac00000000"
    }
  ]
}