{
  "hash": "0000000049db57f7c89df82008dbfeba44995c9675d779180ffb788aa6f6ad16",
  "confirmations": 52171,
  "height": 458,
  "version": 1,
  "versionHex": "00000001",
  "merkleroot": "de977a67fb37491a3b6909aeb137abc9750f469dd2fd7d3ed5838062e883be93",
  "time": 1231942726,
  "mediantime": 1231938459,
  "nonce": 1125295152,
  "bits": "1d00ffff",
  "difficulty": 1,
  "chainwork": "000000000000000000000000000000000000000000000000000001cb01cb01cb",
  "nTx": 1,
  "previousblockhash": "000000000c86bbd3cbfe99ef173d046ac8f6d39b6819af1b6353861d36365f0a",
  "nextblockhash": "00000000b03379dd693686ed84a33b5086d9770f1f08c6951a9e3fc40b06e7cf",
  "strippedsize": 216,
  "size": 216,
  "weight": 864,
  "tx": [
    {
      "txid": "de977a67fb37491a3b6909aeb137abc9750f469dd2fd7d3ed5838062e883be93",
      "hash": "de977a67fb37491a3b6909aeb137abc9750f469dd2fd7d3ed5838062e883be93",
      "version": 1,
      "size": 135,
      "vsize": 135,
      "weight": 540,
      "locktime": 0,
      "vin": [
        {
          "coinbase": "04ffff001d02d103",
          "sequence": 4294967295
        }
      ],
      "vout": [
        {
          "value": 50.0,
          "n": 0,
          "scriptPubKey": {
            "asm": "04bc3d8148d363354eced5cd0b09546b78a5077c5183b2fbdc21bd681a07b0372386d43628897759fd4ed6a73996310f02441fec935dac8ea1037c2e556376909d OP_CHECKSIG",
            "desc": "pk(04bc3d8148d363354eced5cd0b09546b78a5077c5183b2fbdc21bd681a07b0372386d43628897759fd4ed6a73996310f02441fec935dac8ea1037c2e556376909d)#qdzyyteu",
            "hex": "4104bc3d8148d363354eced5cd0b09546b78a5077c5183b2fbdc21bd681a07b0372386d43628897759fd4ed6a73996310f02441fec935dac8ea1037c2e556376909dac",
            "type": "pubkey"
          }
        }
      ],
      "hex": "01000000010000000000000000000000000000000000000000000000000000000000000000ffffffff0804ffff001d02d103ffffffff0100f2052a01000000434104bc3d8148d363354eced5cd0b09546b78a5077c5183b2fbdc21bd681a07b0372386d43628897759fd4ed6a73996310f02441fec935dac8ea1037c2e556376909dac00000000"
    }
  ]
}