{
  "hash": "000000007399345e02b91dcd09f912612c2f5edbbec7cebd10eb98e96b97093f",
  "confirmations": 46473,
  "height": 6625,
  "version": 1,
  "versionHex": "00000001",
  "merkleroot": "c396f40da974d805346fbca95a875b4b8dbaa18d0a95816a8d4fae921558a5f3",
  "time": 1236422582,
  "mediantime": 1236418799,
  "nonce": 4012253493,
  "bits": "1d00ffff",
  "difficulty": 1,
  "chainwork": "000000000000000000000000000000000000000000000000000019e219e219e2",
  "nTx": 1,
  "previousblockhash": "00000000076faca5464a20cfcc56d95d5315e009f077b0671ed83d9481a71801",
  "nextblockhash": "000000006163eb62074580c67500056146ccdbf1b7c8c48566f752e2f4971cc6",
  "strippedsize": 216,
  "size": 216,
  "weight": 864,
  "tx": [
    {
      "txid": "c396f40da974d805346fbca95a875b4b8dbaa18d0a95816a8d4fae921558a5f3",
      "hash": "c396f40da974d805346fbca95a875b4b8dbaa18d0a95816a8d4fae921558a5f3",
      "version": 1,
      "size": 135,
      "vsize": 135,
      "weight": 540,
      "locktime": 0,
      "vin": [
        {
          "coinbase": "04ffff001d029705",
          "sequence": 4294967295
        }
      ],
      "vout": [
        {
          "value": 50.0,
          "n": 0,
          "scriptPubKey": {
            "asm": "04a7b49bea0c32ae195a34845010c621c410adcd72120f6624427e9822bab8ce25a33772159dd5eca293c5c9b84e937b150ed42332665a165f50364c3cff174cfa OP_CHECKSIG",
            "desc": "pk(04a7b49bea0c32ae195a34845010c621c410adcd72120f6624427e9822bab8ce25a33772159dd5eca293c5c9b84e937b150ed42332665a165f50364c3cff174cfa)#qnn925hl",
            "hex": "4104a7b49bea0c32ae195a34845010c621c410adcd72120f6624427e9822bab8ce25a33772159dd5eca293c5c9b84e937b150ed42332665a165f50364c3cff174cfaac",
            "type": "pubkey"
          }
        }
      ],
      "hex": "01000000010000000000000000000000000000000000000000000000000000000000000000ffffffff0804ffff001d029705ffffffff0100f2052a01000000434104a7b49bea0c32ae195a34845010c621c410adcd72120f6624427e9822bab8ce25a33772159dd5eca293c5c9b84e937b150ed42332665a165f50364c3cff174cfaac00000000"
    }
  ]
}