{
  "hash": "000000006fc2496723747628e8fca0e2992bc4e04b6675685f27acd3d83c93b2",
  "confirmations": 50578,
  "height": 2520,
  "version": 1,
  "versionHex": "00000001",
  "merkleroot": "93417207619d6568c0148ba70079722b408fc433575cf0224ec268694077f2aa",
  "time": 1233430684,
  "mediantime": 1233427791,
  "nonce": 1368776992,
  "bits": "1d00ffff",
  "difficulty": 1,
  "chainwork": "000000000000000000000000000000000000000000000000000009d909d909d9",
  "nTx": 1,
  "previousblockhash": "00000000551ff485c4327858a3fa9be59635d98f4272869145919394ef3d1460",
  "nextblockhash": "000000007ea398cc04b3902c4e5ef0fb3d7de85231d7b6dadb31fe6e69f0d9d4",
  "strippedsize": 216,
  "size": 216,
  "weight": 864,
  "tx": [
    {
      "txid": "93417207619d6568c0148ba70079722b408fc433575cf0224ec268694077f2aa",
      "hash": "93417207619d6568c0148ba70079722b408fc433575cf0224ec268694077f2aa",
      "version": 1,
      "size": 135,
      "vsize": 135,
      "weight": 540,
      "locktime": 0,
      "vin": [
        {
          "coinbase": "04ffff001d024f01",
          "sequence": 4294967295
        }
      ],
      "vout": [
        {
          "value": 50.0,
          "n": 0,
          "scriptPubKey": {
            "asm": "044194375b2769bbe6bd7deb9f65c4bffb3d088217ae61431f87b33e0fe657f532ed8406eda391fdcb7c39d1280c5faebb8151e37056c46d5b7208744079f8afe9 OP_CHECKSIG",
            "desc": "pk(044194375b2769bbe6bd7deb9f65c4bffb3d088217ae61431f87b33e0fe657f532ed8406eda391fdcb7c39d1280c5faebb8151e37056c46d5b7208744079f8afe9)#j7ws2c2f",
            "hex": "41044194375b2769bbe6bd7deb9f65c4bffb3d088217ae61431f87b33e0fe657f532ed8406eda391fdcb7c39d1280c5faebb8151e37056c46d5b7208744079f8afe9ac",
            "type": "pubkey"
          }
        }
      ],
      "hex": "01000000010000000000000000000000000000000000000000000000000000000000000000ffffffff0804ffff001d024f01ffffffff0100f2052a010000004341044194375b2769bbe6bd7deb9f65c4bffb3d088217ae61431f87b33e0fe657f532ed8406eda391fdcb7c39d1280c5faebb8151e37056c46d5b7208744079f8afe9ac00000000"
    }
  ]
}