{
  "hash": "000000003170c52b94e104635c06b2ce9368af7380b25cd44395f00b3295b9aa",
  "confirmations": 51374,
  "height": 1724,
  "version": 1,
  "versionHex": "00000001",
  "merkleroot": "4ec87059361bb60f716d46ddbdea2656fe9324f7002cf86de1175a40e6e233c8",
  "time": 1232862066,
  "mediantime": 1232860046,
  "nonce": 3628504368,
  "bits": "1d00ffff",
  "difficulty": 1,
  "chainwork": "000000000000000000000000000000000000000000000000000006bd06bd06bd",
  "nTx": 1,
  "previousblockhash": "00000000e922b6c5216260f29c6590f7d733aa47559a9b5a7694e1b7c1328c50",
  "nextblockhash": "00000000bb391367c0d16a54a7430a98a566ba9b738a49f9876f3c90006f24c2",
  "strippedsize": 216,
  "size": 216,
  "weight": 864,
  "tx": [
    {
      "txid": "4ec87059361bb60f716d46ddbdea2656fe9324f7002cf86de1175a40e6e233c8",
      "hash": "4ec87059361bb60f716d46ddbdea2656fe9324f7002cf86de1175a40e6e233c8",
      "version": 1,
      "size": 135,
      "vsize": 135,
      "weight": 540,
      "locktime": 0,
      "vin": [
        {
          "coinbase": "04ffff001d025903",
          "sequence": 4294967295
        }
      ],
      "vout": [
        {
          "value": 50.0,
          "n": 0,
          "scriptPubKey": {
            "asm": "049df5891b444c6b80a908afb58c0fec25132d75173217488ca388438b02c66839286f04babfe33bc873463f116d55775663b3f44c72129b1e790aa6bacb2e323e OP_CHECKSIG",
            "desc": "pk(049df5891b444c6b80a908afb58c0fec25132d75173217488ca388438b02c66839286f04babfe33bc873463f116d55775663b3f44c72129b1e790aa6bacb2e323e)#jpcxd965",
            "hex": "41049df5891b444c6b80a908afb58c0fec25132d75173217488ca388438b02c66839286f04babfe33bc873463f116d55775663b3f44c72129b1e790aa6bacb2e323eac",
            "type": "pubkey"
          }
        }
      ],
      "hex": "01000000010000000000000000000000000000000000000000000000000000000000000000ffffffff0804ffff001d025903ffffffff0100f2052a010000004341049df5891b444c6b80a908afb58c0fec25132d75173217488ca388438b02c66839286f04babfe33bc873463f116d55775663b3f44c72129b1e790aa6bacb2e323eac00000000"
    }
  ]
}