{
  "hash": "00000000f8a387a6c5e6f093d97339ed517f2ee6592168556f761a758b82a983",
  "confirmations": 52222,
  "height": 876,
  "version": 1,
  "versionHex": "00000001",
  "merkleroot": "85f5a0e051e02e3d4df287b8466a3638c442732b4051eff7746a8f9284274405",
  "time": 1232253850,
  "mediantime": 1232249078,
  "nonce": 359544121,
  "bits": "1d00ffff",
  "difficulty": 1,
  "chainwork": "0000000000000000000000000000000000000000000000000000036d036d036d",
  "nTx": 1,
  "previousblockhash": "000000004d8ea04709f1a7900af251f3e92a3f897222ad59be3fea34977afb36",
  "nextblockhash": "0000000034c2e9a10fa013104bd7e20ee50a6fb2e1ee4445b5cb1958c13cabec",
  "strippedsize": 216,
  "size": 216,
  "weight": 864,
  "tx": [
    {
      "txid": "85f5a0e051e02e3d4df287b8466a3638c442732b4051eff7746a8f9284274405",
      "hash": "85f5a0e051e02e3d4df287b8466a3638c442732b4051eff7746a8f9284274405",
      "version": 1,
      "size": 135,
      "vsize": 135,
      "weight": 540,
      "locktime": 0,
      "vin": [
        {
          "coinbase": "04ffff001d021703",
          "sequence": 4294967295
        }
      ],
      "vout": [
        {
          "value": 50.0,
          "n": 0,
          "scriptPubKey": {
            "asm": "04c273652c37d021848e2f2df67b4e162e49b145f58a1bd8effdd9f46372bdd8c68cbba1471779ef546e84be7b0d37d4929488de50afe133e95640bf9dc7af6b81 OP_CHECKSIG",
            "desc": "pk(04c273652c37d021848e2f2df67b4e162e49b145f58a1bd8effdd9f46372bdd8c68cbba1471779ef546e84be7b0d37d4929488de50afe133e95640bf9dc7af6b81)#t6qsjc3w",
            "hex": "4104c273652c37d021848e2f2df67b4e162e49b145f58a1bd8effdd9f46372bdd8c68cbba1471779ef546e84be7b0d37d4929488de50afe133e95640bf9dc7af6b81ac",
            "type": "pubkey"
          }
        }
      ],
      "hex": "01000000010000000000000000000000000000000000000000000000000000000000000000ffffffff0804ffff001d021703ffffffff0100f2052a01000000434104c273652c37d021848e2f2df67b4e162e49b145f58a1bd8effdd9f46372bdd8c68cbba1471779ef546e84be7b0d37d4929488de50afe133e95640bf9dc7af6b81ac00000000"
    }
  ]
}