{
  "hash": "00000000d163fbc2a6cd5700a8dd8f171fa2644004912ef8ddbe92651704b3a5",
  "confirmations": 44759,
  "height": 8339,
  "version": 1,
  "versionHex": "00000001",
  "merkleroot": "3f4e8b5746c354155ed25b9e3e9c026a162b290701d234437aaff1b544f8bdb0",
  "time": 1237758875,
  "mediantime": 1237755664,
  "nonce": 33334210,
  "bits": "1d00ffff",
  "difficulty": 1,
  "chainwork": "0000000000000000000000000000000000000000000000000000209420942094",
  "nTx": 1,
  "previousblockhash": "0000000070d7aa2d2d8611330edbc8c7af20de6b82833a4e5c93ff617db1656a",
  "nextblockhash": "00000000cc4dd37968c99bcad436498218031715b0ee1d1e901bab3d80aabf07",
  "strippedsize": 215,
  "size": 215,
  "weight": 860,
  "tx": [
    {
      "txid": "3f4e8b5746c354155ed25b9e3e9c026a162b290701d234437aaff1b544f8bdb0",
      "hash": "3f4e8b5746c354155ed25b9e3e9c026a162b290701d234437aaff1b544f8bdb0",
      "version": 1,
      "size": 134,
      "vsize": 134,
      "weight": 536,
      "locktime": 0,
      "vin": [
        {
          "coinbase": "04ffff001d0134",
          "sequence": 4294967295
        }
      ],
      "vout": [
        {
          "value": 50.0,
          "n": 0,
          "scriptPubKey": {
            "asm": "04ce7e9c7ba29f4649c85875c787de3cb915a3d17eb39b08ada86b23cc0fd92bcae6d40d12f8f4a8f52ba0f3c0bd25c077c7f9edc2f312f791a7e32a6e20019ef4 OP_CHECKSIG",
            "desc": "pk(04ce7e9c7ba29f4649c85875c787de3cb915a3d17eb39b08ada86b23cc0fd92bcae6d40d12f8f4a8f52ba0f3c0bd25c077c7f9edc2f312f791a7e32a6e20019ef4)#lvym74az",
            "hex": "4104ce7e9c7ba29f4649c85875c787de3cb915a3d17eb39b08ada86b23cc0fd92bcae6d40d12f8f4a8f52ba0f3c0bd25c077c7f9edc2f312f791a7e32a6e20019ef4ac",
            "type": "pubkey"
          }
        }
      ],
      "hex": "01000000010000000000000000000000000000000000000000000000000000000000000000ffffffff0704ffff001d0134ffffffff0100f2052a01000000434104ce7e9c7ba29f4649c85875c787de3cb915a3d17eb39b08ada86b23cc0fd92bcae6d40d12f8f4a8f52ba0f3c0bd25c077c7f9edc2f312f791a7e32a6e20019ef4ac00000000"
    }
  ]
}