{
  "hash": "0000000036830127678f188ce9655d890af60dbe64a0d0dba8c306dce4ab6d46",
  "confirmations": 51449,
  "height": 1649,
  "version": 1,
  "versionHex": "00000001",
  "merkleroot": "73542e00f6ab56d60c4ed4072bc1127cbe7b9a15f588bccb3e6faec4b6899775",
  "time": 1232833428,
  "mediantime": 1232830901,
  "nonce": 2188046893,
  "bits": "1d00ffff",
  "difficulty": 1,
  "chainwork": "0000000000000000000000000000000000000000000000000000067206720672",
  "nTx": 1,
  "previousblockhash": "00000000a70a77fc3609554fb6ffca2a1bc7b24245332f9d57aa16a8656dcb46",
  "nextblockhash": "00000000272f42aa7edb7b466441a307f90490358b4283ba5b74dd149d7eb32a",
  "strippedsize": 216,
  "size": 216,
  "weight": 864,
  "tx": [
    {
      "txid": "73542e00f6ab56d60c4ed4072bc1127cbe7b9a15f588bccb3e6faec4b6899775",
      "hash": "73542e00f6ab56d60c4ed4072bc1127cbe7b9a15f588bccb3e6faec4b6899775",
      "version": 1,
      "size": 135,
      "vsize": 135,
      "weight": 540,
      "locktime": 0,
      "vin": [
        {
          "coinbase": "04ffff001d029c02",
          "sequence": 4294967295
        }
      ],
      "vout": [
        {
          "value": 50.0,
          "n": 0,
          "scriptPubKey": {
            "asm": "042397e3e6f6e22b16a15896236360ccd9c4998766c6c7faec3b33e56384ce4326b5b4540d6ae3de05f006fcd1c187e9b15cea4f306f9e4e3dcd9cf65e6e7e60a8 OP_CHECKSIG",
            "desc": "pk(042397e3e6f6e22b16a15896236360ccd9c4998766c6c7faec3b33e56384ce4326b5b4540d6ae3de05f006fcd1c187e9b15cea4f306f9e4e3dcd9cf65e6e7e60a8)#jjfg3rff",
            "hex": "41042397e3e6f6e22b16a15896236360ccd9c4998766c6c7faec3b33e56384ce4326b5b4540d6ae3de05f006fcd1c187e9b15cea4f306f9e4e3dcd9cf65e6e7e60a8ac",
            "type": "pubkey"
          }
        }
      ],
      "hex": "01000000010000000000000000000000000000000000000000000000000000000000000000ffffffff0804ffff001d029c02ffffffff0100f2052a010000004341042397e3e6f6e22b16a15896236360ccd9c4998766c6c7faec3b33e56384ce4326b5b4540d6ae3de05f006fcd1c187e9b15cea4f306f9e4e3dcd9cf65e6e7e60a8ac00000000"
    }
  ]
}