{
  "hash": "0000000038485cf43edc17983f88e21db0a1c0230c4295e584bcb8610f2af8c2",
  "confirmations": 44516,
  "height": 8582,
  "version": 1,
  "versionHex": "00000001",
  "merkleroot": "84a7b9db1e1d0383b94eae93e3ddf5545497903b38d920dae661d48be32b4495",
  "time": 1237937300,
  "mediantime": 1237933547,
  "nonce": 2440773399,
  "bits": "1d00ffff",
  "difficulty": 1,
  "chainwork": "0000000000000000000000000000000000000000000000000000218721872187",
  "nTx": 1,
  "previousblockhash": "00000000ed64dfd40acbbe9393ead18d82c16d82894304e4c36bedec3c1c90f5",
  "nextblockhash": "000000000bfbae4d9002a93fe457ba2308c4dd2c79966d0e6abe0969dee6f9ac",
  "strippedsize": 216,
  "size": 216,
  "weight": 864,
  "tx": [
    {
      "txid": "84a7b9db1e1d0383b94eae93e3ddf5545497903b38d920dae661d48be32b4495",
      "hash": "84a7b9db1e1d0383b94eae93e3ddf5545497903b38d920dae661d48be32b4495",
      "version": 1,
      "size": 135,
      "vsize": 135,
      "weight": 540,
      "locktime": 0,
      "vin": [
        {
          "coinbase": "04ffff001d024c09",
          "sequence": 4294967295
        }
      ],
      "vout": [
        {
          "value": 50.0,
          "n": 0,
          "scriptPubKey": {
            "asm": "0417fd39de48c6ae6cc54356f00e698e3e01dde0340d1841ea5a296545e75f78ffeea2687bf727c5ae52a2b1cfba9fdb768b9fab262a9484e47da03e0dc2935972 OP_CHECKSIG",
            "desc": "pk(0417fd39de48c6ae6cc54356f00e698e3e01dde0340d1841ea5a296545e75f78ffeea2687bf727c5ae52a2b1cfba9fdb768b9fab262a9484e47da03e0dc2935972)#le8k5qct",
            "hex": "410417fd39de48c6ae6cc54356f00e698e3e01dde0340d1841ea5a296545e75f78ffeea2687bf727c5ae52a2b1cfba9fdb768b9fab262a9484e47da03e0dc2935972ac",
            "type": "pubkey"
          }
        }
      ],
      "hex": "01000000010000000000000000000000000000000000000000000000000000000000000000ffffffff0804ffff001d024c09ffffffff0100f2052a0100000043410417fd39de48c6ae6cc54356f00e698e3e01dde0340d1841ea5a296545e75f78ffeea2687bf727c5ae52a2b1cfba9fdb768b9fab262a9484e47da03e0dc2935972ac00000000"
    }
  ]
}