{
  "hash": "00000000f29e00214e99c5dbabee71a1033b577a27143248bdfff08adc3644f3",
  "confirmations": 51965,
  "height": 1133,
  "version": 1,
  "versionHex": "00000001",
  "merkleroot": "1af5c8806f123fc2ffd180584a66d7d05e0d5f1af8cf361c7eb064c372848a73",
  "time": 1232446711,
  "mediantime": 1232441857,
  "nonce": 2981678874,
  "bits": "1d00ffff",
  "difficulty": 1,
  "chainwork": "0000000000000000000000000000000000000000000000000000046e046e046e",
  "nTx": 1,
  "previousblockhash": "00000000d02f8a6f352ba7a55b6ba9d32a346eaca6ecfd8d14534d7a2399bf08",
  "nextblockhash": "00000000f209d861eca97e4cf1f10d13698459f7b08be9281b207b97a804f0c9",
  "strippedsize": 216,
  "size": 216,
  "weight": 864,
  "tx": [
    {
      "txid": "1af5c8806f123fc2ffd180584a66d7d05e0d5f1af8cf361c7eb064c372848a73",
      "hash": "1af5c8806f123fc2ffd180584a66d7d05e0d5f1af8cf361c7eb064c372848a73",
      "version": 1,
      "size": 135,
      "vsize": 135,
      "weight": 540,
      "locktime": 0,
      "vin": [
        {
          "coinbase": "04ffff001d028707",
          "sequence": 4294967295
        }
      ],
      "vout": [
        {
          "value": 50.0,
          "n": 0,
          "scriptPubKey": {
            "asm": "0471fc8c2eef2c8a055158ffd5be7d7d02cdefca76cdf7ef14bf7bf7d379fa077387a1f837603c81cb21faa2617fa72ed0982eb7df9f23f07488a539a548677443 OP_CHECKSIG",
            "desc": "pk(0471fc8c2eef2c8a055158ffd5be7d7d02cdefca76cdf7ef14bf7bf7d379fa077387a1f837603c81cb21faa2617fa72ed0982eb7df9f23f07488a539a548677443)#47qut9nr",
            "hex": "410471fc8c2eef2c8a055158ffd5be7d7d02cdefca76cdf7ef14bf7bf7d379fa077387a1f837603c81cb21faa2617fa72ed0982eb7df9f23f07488a539a548677443ac",
            "type": "pubkey"
          }
        }
      ],
      "hex": "01000000010000000000000000000000000000000000000000000000000000000000000000ffffffff0804ffff001d028707ffffffff0100f2052a0100000043410471fc8c2eef2c8a055158ffd5be7d7d02cdefca76cdf7ef14bf7bf7d379fa077387a1f837603c81cb21faa2617fa72ed0982eb7df9f23f07488a539a548677443ac00000000"
    }
  ]
}