{
  "hash": "000000000037504b6bdd57439970d748eac0f091945f8b12373e83c1bbc46c79",
  "confirmations": 52031,
  "height": 1067,
  "version": 1,
  "versionHex": "00000001",
  "merkleroot": "71518f60620cfadd2915e2132cf44fe1f25a11b927c20d60649ebe0e9458d11f",
  "time": 1232399182,
  "mediantime": 1232396840,
  "nonce": 3602742530,
  "bits": "1d00ffff",
  "difficulty": 1,
  "chainwork": "0000000000000000000000000000000000000000000000000000042c042c042c",
  "nTx": 1,
  "previousblockhash": "00000000fecd0d39a38004fd68f750df914176ce5f7096f10d40f92451692b3b",
  "nextblockhash": "00000000205733cf2849ad94758525c1086e7f0908cd28329aab7c4d71030e79",
  "strippedsize": 216,
  "size": 216,
  "weight": 864,
  "tx": [
    {
      "txid": "71518f60620cfadd2915e2132cf44fe1f25a11b927c20d60649ebe0e9458d11f",
      "hash": "71518f60620cfadd2915e2132cf44fe1f25a11b927c20d60649ebe0e9458d11f",
      "version": 1,
      "size": 135,
      "vsize": 135,
      "weight": 540,
      "locktime": 0,
      "vin": [
        {
          "coinbase": "04ffff001d025106",
          "sequence": 4294967295
        }
      ],
      "vout": [
        {
          "value": 50.0,
          "n": 0,
          "scriptPubKey": {
            "asm": "04e5e9a08c0c7d2323a4f86f3e9158a0f11c2e488351a27f9cde22911739373285b5165bf8309df0f23c118ad5da51a0fb022ff88377d699e52fb0b2abc88d4628 OP_CHECKSIG",
            "desc": "pk(04e5e9a08c0c7d2323a4f86f3e9158a0f11c2e488351a27f9cde22911739373285b5165bf8309df0f23c118ad5da51a0fb022ff88377d699e52fb0b2abc88d4628)#3sgq44wk",
            "hex": "4104e5e9a08c0c7d2323a4f86f3e9158a0f11c2e488351a27f9cde22911739373285b5165bf8309df0f23c118ad5da51a0fb022ff88377d699e52fb0b2abc88d4628ac",
            "type": "pubkey"
          }
        }
      ],
      "hex": "01000000010000000000000000000000000000000000000000000000000000000000000000ffffffff0804ffff001d025106ffffffff0100f2052a01000000434104e5e9a08c0c7d2323a4f86f3e9158a0f11c2e488351a27f9cde22911739373285b5165bf8309df0f23c118ad5da51a0fb022ff88377d699e52fb0b2abc88d4628ac00000000"
    }
  ]
}