{
  "hash": "00000000d7240a8973a85e105fe01d06e40dfe2094a878d8f50115d3ac15529c",
  "confirmations": 46665,
  "height": 6433,
  "version": 1,
  "versionHex": "00000001",
  "merkleroot": "17ab30dc1805d9fcd6bfbc48e104fe99712049a0f808bee4a9edb5da810909fb",
  "time": 1236281062,
  "mediantime": 1236276029,
  "nonce": 2165980474,
  "bits": "1d00ffff",
  "difficulty": 1,
  "chainwork": "0000000000000000000000000000000000000000000000000000192219221922",
  "nTx": 1,
  "previousblockhash": "00000000e69b23348fc7c54152140fa220eb2cd7886b5ff2e13bbe05f9b27e7f",
  "nextblockhash": "0000000096167d3f681344c10474938f00eadd1f4063395a8c6c559492afc1bb",
  "strippedsize": 216,
  "size": 216,
  "weight": 864,
  "tx": [
    {
      "txid": "17ab30dc1805d9fcd6bfbc48e104fe99712049a0f808bee4a9edb5da810909fb",
      "hash": "17ab30dc1805d9fcd6bfbc48e104fe99712049a0f808bee4a9edb5da810909fb",
      "version": 1,
      "size": 135,
      "vsize": 135,
      "weight": 540,
      "locktime": 0,
      "vin": [
        {
          "coinbase": "04ffff001d026502",
          "sequence": 4294967295
        }
      ],
      "vout": [
        {
          "value": 50.0,
          "n": 0,
          "scriptPubKey": {
            "asm": "04d0c43de4d2b57c61977fb8c6d6f64520b9677abbebaaa29b0c1dc275bad8094780b5cbe4a1d78195c055ed69a489b44d4b537575bde92a7e0f50954b813aad0f OP_CHECKSIG",
            "desc": "pk(04d0c43de4d2b57c61977fb8c6d6f64520b9677abbebaaa29b0c1dc275bad8094780b5cbe4a1d78195c055ed69a489b44d4b537575bde92a7e0f50954b813aad0f)#acjg86q4",
            "hex": "4104d0c43de4d2b57c61977fb8c6d6f64520b9677abbebaaa29b0c1dc275bad8094780b5cbe4a1d78195c055ed69a489b44d4b537575bde92a7e0f50954b813aad0fac",
            "type": "pubkey"
          }
        }
      ],
      "hex": "01000000010000000000000000000000000000000000000000000000000000000000000000ffffffff0804ffff001d026502ffffffff0100f2052a01000000434104d0c43de4d2b57c61977fb8c6d6f64520b9677abbebaaa29b0c1dc275bad8094780b5cbe4a1d78195c055ed69a489b44d4b537575bde92a7e0f50954b813aad0fac00000000"
    }
  ]
}