{
  "hash": "00000000ef78b3d4894522830144ea85a6e3dad7caccbda7a118e51eb8115cbc",
  "confirmations": 47428,
  "height": 5670,
  "version": 1,
  "versionHex": "00000001",
  "merkleroot": "e50e5137b6730226d40d5eb427d4c92df57e4109948041b6c874c0913fe644ad",
  "time": 1235666102,
  "mediantime": 1235662374,
  "nonce": 1706716423,
  "bits": "1d00ffff",
  "difficulty": 1,
  "chainwork": "0000000000000000000000000000000000000000000000000000162716271627",
  "nTx": 1,
  "previousblockhash": "0000000095a387d69be36dc016d5025fc12257f616e0defcbb76b89157e65c47",
  "nextblockhash": "00000000a4d4a5a85d5944b8f4de6a7efaefb5a056ee0997d587c19493062d6d",
  "strippedsize": 216,
  "size": 216,
  "weight": 864,
  "tx": [
    {
      "txid": "e50e5137b6730226d40d5eb427d4c92df57e4109948041b6c874c0913fe644ad",
      "hash": "e50e5137b6730226d40d5eb427d4c92df57e4109948041b6c874c0913fe644ad",
      "version": 1,
      "size": 135,
      "vsize": 135,
      "weight": 540,
      "locktime": 0,
      "vin": [
        {
          "coinbase": "04ffff001d02f208",
          "sequence": 4294967295
        }
      ],
      "vout": [
        {
          "value": 50.0,
          "n": 0,
          "scriptPubKey": {
            "asm": "04af47c4b500770570fb35e874c803f3fb93d48e03f2fb0a429b90f36950d63ab14099392a8e1dca9e3df9a85bc0c44a15fbd5ea84e10e30c9efabd3326401a317 OP_CHECKSIG",
            "desc": "pk(04af47c4b500770570fb35e874c803f3fb93d48e03f2fb0a429b90f36950d63ab14099392a8e1dca9e3df9a85bc0c44a15fbd5ea84e10e30c9efabd3326401a317)#rqqrc9wc",
            "hex": "4104af47c4b500770570fb35e874c803f3fb93d48e03f2fb0a429b90f36950d63ab14099392a8e1dca9e3df9a85bc0c44a15fbd5ea84e10e30c9efabd3326401a317ac",
            "type": "pubkey"
          }
        }
      ],
      "hex": "01000000010000000000000000000000000000000000000000000000000000000000000000ffffffff0804ffff001d02f208ffffffff0100f2052a01000000434104af47c4b500770570fb35e874c803f3fb93d48e03f2fb0a429b90f36950d63ab14099392a8e1dca9e3df9a85bc0c44a15fbd5ea84e10e30c9efabd3326401a317ac00000000"
    }
  ]
}