{
  "hash": "00000000a8548239874d42f2566c8c9976fb7aa162394c3ff60030d86219f366",
  "confirmations": 47834,
  "height": 5264,
  "version": 1,
  "versionHex": "00000001",
  "merkleroot": "cbc12c124ab4e96bd81978f9ed05714c8a066a389763ca8913fc69a3a177c91f",
  "time": 1235333254,
  "mediantime": 1235329919,
  "nonce": 3557842231,
  "bits": "1d00ffff",
  "difficulty": 1,
  "chainwork": "0000000000000000000000000000000000000000000000000000149114911491",
  "nTx": 1,
  "previousblockhash": "00000000d0b88b709f1c6ace8876c77957e6548aeef7311329fdeff1f3dcd814",
  "nextblockhash": "00000000b2f298757e5db43e956f2b13e47c66e908296cc73931dd74de149e18",
  "strippedsize": 216,
  "size": 216,
  "weight": 864,
  "tx": [
    {
      "txid": "cbc12c124ab4e96bd81978f9ed05714c8a066a389763ca8913fc69a3a177c91f",
      "hash": "cbc12c124ab4e96bd81978f9ed05714c8a066a389763ca8913fc69a3a177c91f",
      "version": 1,
      "size": 135,
      "vsize": 135,
      "weight": 540,
      "locktime": 0,
      "vin": [
        {
          "coinbase": "04ffff001d027801",
          "sequence": 4294967295
        }
      ],
      "vout": [
        {
          "value": 50.0,
          "n": 0,
          "scriptPubKey": {
            "asm": "045e903b13934eb6932db7eb4994f9be7cbd28090d5678d2d964cbbe85bacdcf3da51ad24a4d467bb287a61d38696093065826ebc0e0c43d1ce4ddacdb136258e5 OP_CHECKSIG",
            "desc": "pk(045e903b13934eb6932db7eb4994f9be7cbd28090d5678d2d964cbbe85bacdcf3da51ad24a4d467bb287a61d38696093065826ebc0e0c43d1ce4ddacdb136258e5)#a089s4v2",
            "hex": "41045e903b13934eb6932db7eb4994f9be7cbd28090d5678d2d964cbbe85bacdcf3da51ad24a4d467bb287a61d38696093065826ebc0e0c43d1ce4ddacdb136258e5ac",
            "type": "pubkey"
          }
        }
      ],
      "hex": "01000000010000000000000000000000000000000000000000000000000000000000000000ffffffff0804ffff001d027801ffffffff0100f2052a010000004341045e903b13934eb6932db7eb4994f9be7cbd28090d5678d2d964cbbe85bacdcf3da51ad24a4d467bb287a61d38696093065826ebc0e0c43d1ce4ddacdb136258e5ac00000000"
    }
  ]
}