{
  "hash": "0000000029f43c478ae858c7c74dde93566c7d96eef8d7ce5f06a9d9b0683448",
  "confirmations": 47707,
  "height": 5391,
  "version": 1,
  "versionHex": "00000001",
  "merkleroot": "7bae93d895a7b57c7a168c44ea20584bba234db009f9df28a6d58a8671236790",
  "time": 1235432910,
  "mediantime": 1235428564,
  "nonce": 1286960920,
  "bits": "1d00ffff",
  "difficulty": 1,
  "chainwork": "0000000000000000000000000000000000000000000000000000151015101510",
  "nTx": 1,
  "previousblockhash": "00000000b709637ba4f335f084ffa9687385450a7502fa22411bf813022c84bb",
  "nextblockhash": "000000009071cc47c91bb79252981fe5aae10d67d1f2c3cefe3e6d7669e54e8d",
  "strippedsize": 216,
  "size": 216,
  "weight": 864,
  "tx": [
    {
      "txid": "7bae93d895a7b57c7a168c44ea20584bba234db009f9df28a6d58a8671236790",
      "hash": "7bae93d895a7b57c7a168c44ea20584bba234db009f9df28a6d58a8671236790",
      "version": 1,
      "size": 135,
      "vsize": 135,
      "weight": 540,
      "locktime": 0,
      "vin": [
        {
          "coinbase": "04ffff001d027d03",
          "sequence": 4294967295
        }
      ],
      "vout": [
        {
          "value": 50.0,
          "n": 0,
          "scriptPubKey": {
            "asm": "041c381fb75d3ed165842b25cf7bc2d3d46a95e06dba26a71a605d0c221f49772d75e8d2b2e9c90a31de03b445db8dd74c089a0c3a811dda4bb7ee365594afd1aa OP_CHECKSIG",
            "desc": "pk(041c381fb75d3ed165842b25cf7bc2d3d46a95e06dba26a71a605d0c221f49772d75e8d2b2e9c90a31de03b445db8dd74c089a0c3a811dda4bb7ee365594afd1aa)#lsgjwe5a",
            "hex": "41041c381fb75d3ed165842b25cf7bc2d3d46a95e06dba26a71a605d0c221f49772d75e8d2b2e9c90a31de03b445db8dd74c089a0c3a811dda4bb7ee365594afd1aaac",
            "type": "pubkey"
          }
        }
      ],
      "hex": "01000000010000000000000000000000000000000000000000000000000000000000000000ffffffff0804ffff001d027d03ffffffff0100f2052a010000004341041c381fb75d3ed165842b25cf7bc2d3d46a95e06dba26a71a605d0c221f49772d75e8d2b2e9c90a31de03b445db8dd74c089a0c3a811dda4bb7ee365594afd1aaac00000000"
    }
  ]
}