{
  "hash": "0000000069fffbee95dde2909855c4bd3844c8251aacc381519c6f65021b0a63",
  "confirmations": 48461,
  "height": 4637,
  "version": 1,
  "versionHex": "00000001",
  "merkleroot": "c37a6c360086c576448dce0e656b8aeabb7942b67dc78c41d4cc6c6fc5a79591",
  "time": 1234881318,
  "mediantime": 1234877653,
  "nonce": 162971911,
  "bits": "1d00ffff",
  "difficulty": 1,
  "chainwork": "0000000000000000000000000000000000000000000000000000121e121e121e",
  "nTx": 1,
  "previousblockhash": "00000000940ff65f8a4e61cfbdd89d1aedb9942fbb77026be03807740ed54c89",
  "nextblockhash": "000000004247d8088fd1d7c393982cfd579c44a19cd54464be2dea09f9ee3d6d",
  "strippedsize": 215,
  "size": 215,
  "weight": 860,
  "tx": [
    {
      "txid": "c37a6c360086c576448dce0e656b8aeabb7942b67dc78c41d4cc6c6fc5a79591",
      "hash": "c37a6c360086c576448dce0e656b8aeabb7942b67dc78c41d4cc6c6fc5a79591",
      "version": 1,
      "size": 134,
      "vsize": 134,
      "weight": 536,
      "locktime": 0,
      "vin": [
        {
          "coinbase": "04ffff001d016b",
          "sequence": 4294967295
        }
      ],
      "vout": [
        {
          "value": 50.0,
          "n": 0,
          "scriptPubKey": {
            "asm": "048881fbf1495c1056c4a261dff3d9580ff853e5a8e42f55816e19769b4ca39316e470eb2bd2fc168f442cdbc870ec818d057f924f1cb7397ea52133803563336a OP_CHECKSIG",
            "desc": "pk(048881fbf1495c1056c4a261dff3d9580ff853e5a8e42f55816e19769b4ca39316e470eb2bd2fc168f442cdbc870ec818d057f924f1cb7397ea52133803563336a)#5euxcysv",
            "hex": "41048881fbf1495c1056c4a261dff3d9580ff853e5a8e42f55816e19769b4ca39316e470eb2bd2fc168f442cdbc870ec818d057f924f1cb7397ea52133803563336aac",
            "type": "pubkey"
          }
        }
      ],
      "hex": "01000000010000000000000000000000000000000000000000000000000000000000000000ffffffff0704ffff001d016bffffffff0100f2052a010000004341048881fbf1495c1056c4a261dff3d9580ff853e5a8e42f55816e19769b4ca39316e470eb2bd2fc168f442cdbc870ec818d057f924f1cb7397ea52133803563336aac00000000"
    }
  ]
}