{
  "hash": "000000001d0998f0ebe37d8518d71098603e3897bc2b69d7ca75dcb380af405b",
  "confirmations": 44872,
  "height": 8226,
  "version": 1,
  "versionHex": "00000001",
  "merkleroot": "c075dd987aabc834fb776dd98b9c10adbfb9b6d632b25cc671f8d2ad0d43b6cf",
  "time": 1237657580,
  "mediantime": 1237639653,
  "nonce": 3449338942,
  "bits": "1d00ffff",
  "difficulty": 1,
  "chainwork": "0000000000000000000000000000000000000000000000000000202320232023",
  "nTx": 1,
  "previousblockhash": "000000003496ef9e8c7b7ab66b512cc4841807902372238921bd247c65538703",
  "nextblockhash": "000000002fecabbc819af928732ad3456e68e554f2d8b136992238ac5e5ed8ef",
  "strippedsize": 216,
  "size": 216,
  "weight": 864,
  "tx": [
    {
      "txid": "c075dd987aabc834fb776dd98b9c10adbfb9b6d632b25cc671f8d2ad0d43b6cf",
      "hash": "c075dd987aabc834fb776dd98b9c10adbfb9b6d632b25cc671f8d2ad0d43b6cf",
      "version": 1,
      "size": 135,
      "vsize": 135,
      "weight": 540,
      "locktime": 0,
      "vin": [
        {
          "coinbase": "04ffff001d02eb00",
          "sequence": 4294967295
        }
      ],
      "vout": [
        {
          "value": 50.0,
          "n": 0,
          "scriptPubKey": {
            "asm": "04428c2416963e518fd572a13e740fa18f412aedbfbff60b3270207d152c819d0cc32b5ce4eba0da3cabbd623a377cab2f6ebd948cd6a14a1e45a49df7b6246819 OP_CHECKSIG",
            "desc": "pk(04428c2416963e518fd572a13e740fa18f412aedbfbff60b3270207d152c819d0cc32b5ce4eba0da3cabbd623a377cab2f6ebd948cd6a14a1e45a49df7b6246819)#8s2hwhsq",
            "hex": "4104428c2416963e518fd572a13e740fa18f412aedbfbff60b3270207d152c819d0cc32b5ce4eba0da3cabbd623a377cab2f6ebd948cd6a14a1e45a49df7b6246819ac",
            "type": "pubkey"
          }
        }
      ],
      "hex": "01000000010000000000000000000000000000000000000000000000000000000000000000ffffffff0804ffff001d02eb00ffffffff0100f2052a01000000434104428c2416963e518fd572a13e740fa18f412aedbfbff60b3270207d152c819d0cc32b5ce4eba0da3cabbd623a377cab2f6ebd948cd6a14a1e45a49df7b6246819ac00000000"
    }
  ]
}