{
  "hash": "0000000015668111ed6b058329318b4077bf91d2c3fd330731372917bb795db9",
  "confirmations": 51460,
  "height": 1638,
  "version": 1,
  "versionHex": "00000001",
  "merkleroot": "25d25a5abdde8c0f618e8b8b4f5e2eaef57c118384b96f89c209b3c0286548a0",
  "time": 1232827973,
  "mediantime": 1232825250,
  "nonce": 1469787174,
  "bits": "1d00ffff",
  "difficulty": 1,
  "chainwork": "0000000000000000000000000000000000000000000000000000066706670667",
  "nTx": 1,
  "previousblockhash": "0000000072af7bcb74e7756770bc1f526a9c82500fadecd0261a25babe8583f4",
  "nextblockhash": "0000000065ab62062b11798ef540cf0ac0a7be50046f1ffd094d9dd650e8a512",
  "strippedsize": 216,
  "size": 216,
  "weight": 864,
  "tx": [
    {
      "txid": "25d25a5abdde8c0f618e8b8b4f5e2eaef57c118384b96f89c209b3c0286548a0",
      "hash": "25d25a5abdde8c0f618e8b8b4f5e2eaef57c118384b96f89c209b3c0286548a0",
      "version": 1,
      "size": 135,
      "vsize": 135,
      "weight": 540,
      "locktime": 0,
      "vin": [
        {
          "coinbase": "04ffff001d025d02",
          "sequence": 4294967295
        }
      ],
      "vout": [
        {
          "value": 50.0,
          "n": 0,
          "scriptPubKey": {
            "asm": "0465d2ec44adcfac135b2f106a929d9a96c108d128ff4b9bfff299a573704d6a3026220259a3b7254d9ef2ec702a3157408b74d137db83e8dbf78f529b515b2d84 OP_CHECKSIG",
            "desc": "pk(0465d2ec44adcfac135b2f106a929d9a96c108d128ff4b9bfff299a573704d6a3026220259a3b7254d9ef2ec702a3157408b74d137db83e8dbf78f529b515b2d84)#c06ak95p",
            "hex": "410465d2ec44adcfac135b2f106a929d9a96c108d128ff4b9bfff299a573704d6a3026220259a3b7254d9ef2ec702a3157408b74d137db83e8dbf78f529b515b2d84ac",
            "type": "pubkey"
          }
        }
      ],
      "hex": "01000000010000000000000000000000000000000000000000000000000000000000000000ffffffff0804ffff001d025d02ffffffff0100f2052a0100000043410465d2ec44adcfac135b2f106a929d9a96c108d128ff4b9bfff299a573704d6a3026220259a3b7254d9ef2ec702a3157408b74d137db83e8dbf78f529b515b2d84ac00000000"
    }
  ]
}