{
  "hash": "0000000096fe9fd3737ac2f816ff211998d4215add411cbe3fe7b29f4883aab5",
  "confirmations": 48741,
  "height": 4357,
  "version": 1,
  "versionHex": "00000001",
  "merkleroot": "bded9f565684a93cbb4fa4afc32216cb658caaf9ea8ef3e51f0da17b717d6c52",
  "time": 1234681655,
  "mediantime": 1234678478,
  "nonce": 2171782184,
  "bits": "1d00ffff",
  "difficulty": 1,
  "chainwork": "0000000000000000000000000000000000000000000000000000110611061106",
  "nTx": 1,
  "previousblockhash": "0000000001fdf3e0b8fc9f6dabca935225c4bf667f7eab8ca17199e693e4bd92",
  "nextblockhash": "00000000c051cf105aea8707737d7f83b3347487609b2a0bcb6a1a46f03963c3",
  "strippedsize": 216,
  "size": 216,
  "weight": 864,
  "tx": [
    {
      "txid": "bded9f565684a93cbb4fa4afc32216cb658caaf9ea8ef3e51f0da17b717d6c52",
      "hash": "bded9f565684a93cbb4fa4afc32216cb658caaf9ea8ef3e51f0da17b717d6c52",
      "version": 1,
      "size": 135,
      "vsize": 135,
      "weight": 540,
      "locktime": 0,
      "vin": [
        {
          "coinbase": "04ffff001d029500",
          "sequence": 4294967295
        }
      ],
      "vout": [
        {
          "value": 50.0,
          "n": 0,
          "scriptPubKey": {
            "asm": "04ddd29fa85a953d06fe55c251da2b54952584399afc0878978d1917e286c6d06412bdc211bf610f18f281a4db7563a97237625754e3f99960d82106b0a49ed04e OP_CHECKSIG",
            "desc": "pk(04ddd29fa85a953d06fe55c251da2b54952584399afc0878978d1917e286c6d06412bdc211bf610f18f281a4db7563a97237625754e3f99960d82106b0a49ed04e)#08u3vlfm",
            "hex": "4104ddd29fa85a953d06fe55c251da2b54952584399afc0878978d1917e286c6d06412bdc211bf610f18f281a4db7563a97237625754e3f99960d82106b0a49ed04eac",
            "type": "pubkey"
          }
        }
      ],
      "hex": "01000000010000000000000000000000000000000000000000000000000000000000000000ffffffff0804ffff001d029500ffffffff0100f2052a01000000434104ddd29fa85a953d06fe55c251da2b54952584399afc0878978d1917e286c6d06412bdc211bf610f18f281a4db7563a97237625754e3f99960d82106b0a49ed04eac00000000"
    }
  ]
}