{
  "hash": "00000000ee7947e2c00f657648bb1f4bfbc2f8fe0c9222d892c1474401cdc4ad",
  "confirmations": 52542,
  "height": 556,
  "version": 1,
  "versionHex": "00000001",
  "merkleroot": "a84c57b17fb767870a708f336e1cbf95582ad0fde26ec10195f82189295d073f",
  "time": 1232008124,
  "mediantime": 1232003453,
  "nonce": 106766895,
  "bits": "1d00ffff",
  "difficulty": 1,
  "chainwork": "0000000000000000000000000000000000000000000000000000022d022d022d",
  "nTx": 1,
  "previousblockhash": "00000000edade40797e3c4bf27edeb65733d1884beaa8c502a89d50a54111e1c",
  "nextblockhash": "00000000581a8d9a2a053e8d54b52477e6850e16fd33fcf4a607c1b21600c7ce",
  "strippedsize": 216,
  "size": 216,
  "weight": 864,
  "tx": [
    {
      "txid": "a84c57b17fb767870a708f336e1cbf95582ad0fde26ec10195f82189295d073f",
      "hash": "a84c57b17fb767870a708f336e1cbf95582ad0fde26ec10195f82189295d073f",
      "version": 1,
      "size": 135,
      "vsize": 135,
      "weight": 540,
      "locktime": 0,
      "vin": [
        {
          "coinbase": "04ffff001d02d005",
          "sequence": 4294967295
        }
      ],
      "vout": [
        {
          "value": 50.0,
          "n": 0,
          "scriptPubKey": {
            "asm": "04341ec67f60592483368f291fbd36e901bfb3eec499b1c070e19d700b3e719560bfb6b597e29e38f5da0e8b43179ebb780a71503053db8ada268499b0ae603b5d OP_CHECKSIG",
            "desc": "pk(04341ec67f60592483368f291fbd36e901bfb3eec499b1c070e19d700b3e719560bfb6b597e29e38f5da0e8b43179ebb780a71503053db8ada268499b0ae603b5d)#q8n8qlwq",
            "hex": "4104341ec67f60592483368f291fbd36e901bfb3eec499b1c070e19d700b3e719560bfb6b597e29e38f5da0e8b43179ebb780a71503053db8ada268499b0ae603b5dac",
            "type": "pubkey"
          }
        }
      ],
      "hex": "01000000010000000000000000000000000000000000000000000000000000000000000000ffffffff0804ffff001d02d005ffffffff0100f2052a01000000434104341ec67f60592483368f291fbd36e901bfb3eec499b1c070e19d700b3e719560bfb6b597e29e38f5da0e8b43179ebb780a71503053db8ada268499b0ae603b5dac00000000"
    }
  ]
}