{
  "hash": "00000000d2e92d19faa5930749bfa2bca22ebe7c9bf9677b915db3e3f11f9bdc",
  "confirmations": 45723,
  "height": 7375,
  "version": 1,
  "versionHex": "00000001",
  "merkleroot": "5e4089e9de256e7247658fc3d53a318b383d71a764948b57e0f530b6cb89b7bf",
  "time": 1237002361,
  "mediantime": 1236997915,
  "nonce": 1844948022,
  "bits": "1d00ffff",
  "difficulty": 1,
  "chainwork": "00000000000000000000000000000000000000000000000000001cd01cd01cd0",
  "nTx": 1,
  "previousblockhash": "000000006850617955d4768569384e0a5dd88dc1c15ba559b0b231cba6bd63e8",
  "nextblockhash": "0000000075ed8532f3b13ebb69ee7a2d9b3a22999e398b889af485d1b41fad85",
  "strippedsize": 216,
  "size": 216,
  "weight": 864,
  "tx": [
    {
      "txid": "5e4089e9de256e7247658fc3d53a318b383d71a764948b57e0f530b6cb89b7bf",
      "hash": "5e4089e9de256e7247658fc3d53a318b383d71a764948b57e0f530b6cb89b7bf",
      "version": 1,
      "size": 135,
      "vsize": 135,
      "weight": 540,
      "locktime": 0,
      "vin": [
        {
          "coinbase": "04ffff001d02e608",
          "sequence": 4294967295
        }
      ],
      "vout": [
        {
          "value": 50.0,
          "n": 0,
          "scriptPubKey": {
            "asm": "041ab4a5a23e9fd89c36c2a69004fa3f508d3fdc828009a283a4983db87543e68dd98d6d5237f15d7097338f0e26d226668371d7869befb48acc2225ac50b3910d OP_CHECKSIG",
            "desc": "pk(041ab4a5a23e9fd89c36c2a69004fa3f508d3fdc828009a283a4983db87543e68dd98d6d5237f15d7097338f0e26d226668371d7869befb48acc2225ac50b3910d)#4p4sm4nx",
            "hex": "41041ab4a5a23e9fd89c36c2a69004fa3f508d3fdc828009a283a4983db87543e68dd98d6d5237f15d7097338f0e26d226668371d7869befb48acc2225ac50b3910dac",
            "type": "pubkey"
          }
        }
      ],
      "hex": "01000000010000000000000000000000000000000000000000000000000000000000000000ffffffff0804ffff001d02e608ffffffff0100f2052a010000004341041ab4a5a23e9fd89c36c2a69004fa3f508d3fdc828009a283a4983db87543e68dd98d6d5237f15d7097338f0e26d226668371d7869befb48acc2225ac50b3910dac00000000"
    }
  ]
}