{
  "hash": "00000000ea1f4e21fc336b5552e712d12a660b28baf8458b4bba1cf2187da1b0",
  "confirmations": 44292,
  "height": 8806,
  "version": 1,
  "versionHex": "00000001",
  "merkleroot": "be2cad4e0c87306c34d90bb52385de64ad3d49f7a1a948740a2a4103168d8556",
  "time": 1238104624,
  "mediantime": 1238101726,
  "nonce": 403138568,
  "bits": "1d00ffff",
  "difficulty": 1,
  "chainwork": "0000000000000000000000000000000000000000000000000000226722672267",
  "nTx": 1,
  "previousblockhash": "00000000c628d5357e37a0971d37f884d29b653404c76884a6e493e50253b222",
  "nextblockhash": "00000000c7ede4b4d97579ce2ef124526d32a1dc1c4d35b18a9cd3096a4f0cbd",
  "strippedsize": 216,
  "size": 216,
  "weight": 864,
  "tx": [
    {
      "txid": "be2cad4e0c87306c34d90bb52385de64ad3d49f7a1a948740a2a4103168d8556",
      "hash": "be2cad4e0c87306c34d90bb52385de64ad3d49f7a1a948740a2a4103168d8556",
      "version": 1,
      "size": 135,
      "vsize": 135,
      "weight": 540,
      "locktime": 0,
      "vin": [
        {
          "coinbase": "04ffff001d02db02",
          "sequence": 4294967295
        }
      ],
      "vout": [
        {
          "value": 50.0,
          "n": 0,
          "scriptPubKey": {
            "asm": "04ca6d3458fb884ad2ebc1a89d8cbe6eed683d27e05105fc6dce5a2d4c244356df539354a29ea3aa47564943b8a73461fcdd47b257c0a38397063ef7468e01ead1 OP_CHECKSIG",
            "desc": "pk(04ca6d3458fb884ad2ebc1a89d8cbe6eed683d27e05105fc6dce5a2d4c244356df539354a29ea3aa47564943b8a73461fcdd47b257c0a38397063ef7468e01ead1)#w248ec9w",
            "hex": "4104ca6d3458fb884ad2ebc1a89d8cbe6eed683d27e05105fc6dce5a2d4c244356df539354a29ea3aa47564943b8a73461fcdd47b257c0a38397063ef7468e01ead1ac",
            "type": "pubkey"
          }
        }
      ],
      "hex": "01000000010000000000000000000000000000000000000000000000000000000000000000ffffffff0804ffff001d02db02ffffffff0100f2052a01000000434104ca6d3458fb884ad2ebc1a89d8cbe6eed683d27e05105fc6dce5a2d4c244356df539354a29ea3aa47564943b8a73461fcdd47b257c0a38397063ef7468e01ead1ac00000000"
    }
  ]
}