{
  "hash": "00000000a949a93111b3b55ae95dd6522a6ff925e9caa0bfb88575333d71dbc6",
  "confirmations": 51890,
  "height": 1208,
  "version": 1,
  "versionHex": "00000001",
  "merkleroot": "ee4cba591b16ebf1bcc8f62e5400b8200e5984743fae939460fa9e09705a2fa5",
  "time": 1232506171,
  "mediantime": 1232503773,
  "nonce": 108711363,
  "bits": "1d00ffff",
  "difficulty": 1,
  "chainwork": "000000000000000000000000000000000000000000000000000004b904b904b9",
  "nTx": 1,
  "previousblockhash": "00000000206be65b27f200bc6c642c4d31fda97142c04e20ae6ffb111a88af93",
  "nextblockhash": "000000007f012928cfafbad8787f42c7f303f2ec7285ad0407930e061abdd264",
  "strippedsize": 215,
  "size": 215,
  "weight": 860,
  "tx": [
    {
      "txid": "ee4cba591b16ebf1bcc8f62e5400b8200e5984743fae939460fa9e09705a2fa5",
      "hash": "ee4cba591b16ebf1bcc8f62e5400b8200e5984743fae939460fa9e09705a2fa5",
      "version": 1,
      "size": 134,
      "vsize": 134,
      "weight": 536,
      "locktime": 0,
      "vin": [
        {
          "coinbase": "04ffff001d010f",
          "sequence": 4294967295
        }
      ],
      "vout": [
        {
          "value": 50.0,
          "n": 0,
          "scriptPubKey": {
            "asm": "043c957486a5bf8196d2f89c96d7105c6b6b26f0d07dbde74556fac2027b9c213960b49b81a1760f88140aab48d52235237f9a561b1a42abda7a3b8712e9d806c5 OP_CHECKSIG",
            "desc": "pk(043c957486a5bf8196d2f89c96d7105c6b6b26f0d07dbde74556fac2027b9c213960b49b81a1760f88140aab48d52235237f9a561b1a42abda7a3b8712e9d806c5)#08xwxe7d",
            "hex": "41043c957486a5bf8196d2f89c96d7105c6b6b26f0d07dbde74556fac2027b9c213960b49b81a1760f88140aab48d52235237f9a561b1a42abda7a3b8712e9d806c5ac",
            "type": "pubkey"
          }
        }
      ],
      "hex": "01000000010000000000000000000000000000000000000000000000000000000000000000ffffffff0704ffff001d010fffffffff0100f2052a010000004341043c957486a5bf8196d2f89c96d7105c6b6b26f0d07dbde74556fac2027b9c213960b49b81a1760f88140aab48d52235237f9a561b1a42abda7a3b8712e9d806c5ac00000000"
    }
  ]
}