{
  "hash": "00000000b6ef2f53bef81c9c04a010e5ac99fc586c421fab2957926b127edc86",
  "confirmations": 48164,
  "height": 4934,
  "version": 1,
  "versionHex": "00000001",
  "merkleroot": "bc848b9765df47099b0f3be1b1e7895a75345700313810336d2b1bea6598e146",
  "time": 1235093638,
  "mediantime": 1235090642,
  "nonce": 1629475630,
  "bits": "1d00ffff",
  "difficulty": 1,
  "chainwork": "0000000000000000000000000000000000000000000000000000134713471347",
  "nTx": 1,
  "previousblockhash": "00000000e3e9f616676fc2d12c188eed257f5300593723445a3c551fb57787a0",
  "nextblockhash": "00000000e71e95ab631cb898b73385749f28556f9a6d3205c12c056d2c708d22",
  "strippedsize": 216,
  "size": 216,
  "weight": 864,
  "tx": [
    {
      "txid": "bc848b9765df47099b0f3be1b1e7895a75345700313810336d2b1bea6598e146",
      "hash": "bc848b9765df47099b0f3be1b1e7895a75345700313810336d2b1bea6598e146",
      "version": 1,
      "size": 135,
      "vsize": 135,
      "weight": 540,
      "locktime": 0,
      "vin": [
        {
          "coinbase": "04ffff001d023006",
          "sequence": 4294967295
        }
      ],
      "vout": [
        {
          "value": 50.0,
          "n": 0,
          "scriptPubKey": {
            "asm": "0499a2e00bab2cb8e1c5a19f6e9ed42c5c4d4d323301f68c509ebd977d21b5ffa52614b43dcb521c3b25fefc9e83621d0d125022e4344f0561fe3f4e7ca89f35d5 OP_CHECKSIG",
            "desc": "pk(0499a2e00bab2cb8e1c5a19f6e9ed42c5c4d4d323301f68c509ebd977d21b5ffa52614b43dcb521c3b25fefc9e83621d0d125022e4344f0561fe3f4e7ca89f35d5)#ayma5rgf",
            "hex": "410499a2e00bab2cb8e1c5a19f6e9ed42c5c4d4d323301f68c509ebd977d21b5ffa52614b43dcb521c3b25fefc9e83621d0d125022e4344f0561fe3f4e7ca89f35d5ac",
            "type": "pubkey"
          }
        }
      ],
      "hex": "01000000010000000000000000000000000000000000000000000000000000000000000000ffffffff0804ffff001d023006ffffffff0100f2052a0100000043410499a2e00bab2cb8e1c5a19f6e9ed42c5c4d4d323301f68c509ebd977d21b5ffa52614b43dcb521c3b25fefc9e83621d0d125022e4344f0561fe3f4e7ca89f35d5ac00000000"
    }
  ]
}