{
  "hash": "000000003a9d525344b3aac97bbfca6a7898642ff2e072fb9bac354d0aec5217",
  "confirmations": 50948,
  "height": 2150,
  "version": 1,
  "versionHex": "00000001",
  "merkleroot": "b6e5988e835de702d47183502c3e93c2b8ec14d71df9a3055002368645cb9326",
  "time": 1233175845,
  "mediantime": 1233172816,
  "nonce": 2092622888,
  "bits": "1d00ffff",
  "difficulty": 1,
  "chainwork": "0000000000000000000000000000000000000000000000000000086708670867",
  "nTx": 1,
  "previousblockhash": "0000000027639216483775437aaf3bfbc8153ba2f40ab525511ff55732996bef",
  "nextblockhash": "0000000060853d68d5905f6d2c670d36d71b248fa1fa09c74cc89d11dbfc78d8",
  "strippedsize": 215,
  "size": 215,
  "weight": 860,
  "tx": [
    {
      "txid": "b6e5988e835de702d47183502c3e93c2b8ec14d71df9a3055002368645cb9326",
      "hash": "b6e5988e835de702d47183502c3e93c2b8ec14d71df9a3055002368645cb9326",
      "version": 1,
      "size": 134,
      "vsize": 134,
      "weight": 536,
      "locktime": 0,
      "vin": [
        {
          "coinbase": "04ffff001d017d",
          "sequence": 4294967295
        }
      ],
      "vout": [
        {
          "value": 50.0,
          "n": 0,
          "scriptPubKey": {
            "asm": "04e485907eca7545cc6b1a533a8daf673ecf746d23848a737d75870082c68580943c92f783d320d1fafe27fd17c1f8b20cafc996946baed18e0d186c3b8a088434 OP_CHECKSIG",
            "desc": "pk(04e485907eca7545cc6b1a533a8daf673ecf746d23848a737d75870082c68580943c92f783d320d1fafe27fd17c1f8b20cafc996946baed18e0d186c3b8a088434)#z0q3q8pe",
            "hex": "4104e485907eca7545cc6b1a533a8daf673ecf746d23848a737d75870082c68580943c92f783d320d1fafe27fd17c1f8b20cafc996946baed18e0d186c3b8a088434ac",
            "type": "pubkey"
          }
        }
      ],
      "hex": "01000000010000000000000000000000000000000000000000000000000000000000000000ffffffff0704ffff001d017dffffffff0100f2052a01000000434104e485907eca7545cc6b1a533a8daf673ecf746d23848a737d75870082c68580943c92f783d320d1fafe27fd17c1f8b20cafc996946baed18e0d186c3b8a088434ac00000000"
    }
  ]
}