{
  "hash": "00000000278351f61c4b0cce4f4a37affd04a86b97bf74c87352ba292a8316d7",
  "confirmations": 45011,
  "height": 8087,
  "version": 1,
  "versionHex": "00000001",
  "merkleroot": "14de2f6593a196206223e28d5a1cfa5dd2b39354758431a912b84e87bab6e56f",
  "time": 1237521615,
  "mediantime": 1237518329,
  "nonce": 222154547,
  "bits": "1d00ffff",
  "difficulty": 1,
  "chainwork": "00000000000000000000000000000000000000000000000000001f981f981f98",
  "nTx": 1,
  "previousblockhash": "000000006ac096c4adc7143d58b9476fecc031c87db921d4d85404d9aa93222a",
  "nextblockhash": "000000001d809dffa4279b1e9e8b7ea278fc86e5709938ed601ebc495906cc0d",
  "strippedsize": 216,
  "size": 216,
  "weight": 864,
  "tx": [
    {
      "txid": "14de2f6593a196206223e28d5a1cfa5dd2b39354758431a912b84e87bab6e56f",
      "hash": "14de2f6593a196206223e28d5a1cfa5dd2b39354758431a912b84e87bab6e56f",
      "version": 1,
      "size": 135,
      "vsize": 135,
      "weight": 540,
      "locktime": 0,
      "vin": [
        {
          "coinbase": "04ffff001d02e100",
          "sequence": 4294967295
        }
      ],
      "vout": [
        {
          "value": 50.0,
          "n": 0,
          "scriptPubKey": {
            "asm": "04ea04d47f0be4892e07bee27461c15375251ac877311ecfb8be1149d6b888e3a08e98c2349ad59b20c0fd62273a3d4c0f6629843fe6fa506803256ce1ab2e15ba OP_CHECKSIG",
            "desc": "pk(04ea04d47f0be4892e07bee27461c15375251ac877311ecfb8be1149d6b888e3a08e98c2349ad59b20c0fd62273a3d4c0f6629843fe6fa506803256ce1ab2e15ba)#yqdp6lx3",
            "hex": "4104ea04d47f0be4892e07bee27461c15375251ac877311ecfb8be1149d6b888e3a08e98c2349ad59b20c0fd62273a3d4c0f6629843fe6fa506803256ce1ab2e15baac",
            "type": "pubkey"
          }
        }
      ],
      "hex": "01000000010000000000000000000000000000000000000000000000000000000000000000ffffffff0804ffff001d02e100ffffffff0100f2052a01000000434104ea04d47f0be4892e07bee27461c15375251ac877311ecfb8be1149d6b888e3a08e98c2349ad59b20c0fd62273a3d4c0f6629843fe6fa506803256ce1ab2e15baac00000000"
    }
  ]
}