{
  "hash": "000000001ee955645635bf9569c048ca034efef0bb5877f24767c310ea33fd23",
  "confirmations": 49964,
  "height": 3134,
  "version": 1,
  "versionHex": "00000001",
  "merkleroot": "4310b3b8bf9591e3ceb66e44b9b4a0e556a34ba63835a1e6d0c35d304afb7469",
  "time": 1233857734,
  "mediantime": 1233852888,
  "nonce": 1357630467,
  "bits": "1d00ffff",
  "difficulty": 1,
  "chainwork": "00000000000000000000000000000000000000000000000000000c3f0c3f0c3f",
  "nTx": 1,
  "previousblockhash": "00000000c7d607d0e612e4c1328d8912055b561a448a580d83afa9ca01ad5239",
  "nextblockhash": "0000000036649e2e83334c72daf01e4445807ba927e4efaeb50c19dba1076e48",
  "strippedsize": 216,
  "size": 216,
  "weight": 864,
  "tx": [
    {
      "txid": "4310b3b8bf9591e3ceb66e44b9b4a0e556a34ba63835a1e6d0c35d304afb7469",
      "hash": "4310b3b8bf9591e3ceb66e44b9b4a0e556a34ba63835a1e6d0c35d304afb7469",
      "version": 1,
      "size": 135,
      "vsize": 135,
      "weight": 540,
      "locktime": 0,
      "vin": [
        {
          "coinbase": "04ffff001d02b301",
          "sequence": 4294967295
        }
      ],
      "vout": [
        {
          "value": 50.0,
          "n": 0,
          "scriptPubKey": {
            "asm": "04b6f7f6fdc6e6957b91c2b4058f845e4966a9da73b67e0ec0856e4fd22618cac0fd934640a3bc0d631deefaaa1cf034121338c840ea9bedc65636398bf4cfcf6a OP_CHECKSIG",
            "desc": "pk(04b6f7f6fdc6e6957b91c2b4058f845e4966a9da73b67e0ec0856e4fd22618cac0fd934640a3bc0d631deefaaa1cf034121338c840ea9bedc65636398bf4cfcf6a)#45nf8nmg",
            "hex": "4104b6f7f6fdc6e6957b91c2b4058f845e4966a9da73b67e0ec0856e4fd22618cac0fd934640a3bc0d631deefaaa1cf034121338c840ea9bedc65636398bf4cfcf6aac",
            "type": "pubkey"
          }
        }
      ],
      "hex": "01000000010000000000000000000000000000000000000000000000000000000000000000ffffffff0804ffff001d02b301ffffffff0100f2052a01000000434104b6f7f6fdc6e6957b91c2b4058f845e4966a9da73b67e0ec0856e4fd22618cac0fd934640a3bc0d631deefaaa1cf034121338c840ea9bedc65636398bf4cfcf6aac00000000"
    }
  ]
}