{
  "hash": "00000000aa75397d136edac5de594b722e57ff7635ef97357f392d5383452c57",
  "confirmations": 50737,
  "height": 2361,
  "version": 1,
  "versionHex": "00000001",
  "merkleroot": "9cfe218cad13c496b0f3231e28029600b37aa3ac382dc3fd7a3e971b520fc495",
  "time": 1233322450,
  "mediantime": 1233320510,
  "nonce": 2642716162,
  "bits": "1d00ffff",
  "difficulty": 1,
  "chainwork": "0000000000000000000000000000000000000000000000000000093a093a093a",
  "nTx": 1,
  "previousblockhash": "00000000eba8a666e81792ca1f8b4b9bacf6ff879ad511e830d010e434dcfa85",
  "nextblockhash": "0000000078b21f73ec9d79df432ee2f6f4ad981d772af1b0b35842789ccc4d28",
  "strippedsize": 216,
  "size": 216,
  "weight": 864,
  "tx": [
    {
      "txid": "9cfe218cad13c496b0f3231e28029600b37aa3ac382dc3fd7a3e971b520fc495",
      "hash": "9cfe218cad13c496b0f3231e28029600b37aa3ac382dc3fd7a3e971b520fc495",
      "version": 1,
      "size": 135,
      "vsize": 135,
      "weight": 540,
      "locktime": 0,
      "vin": [
        {
          "coinbase": "04ffff001d02ca02",
          "sequence": 4294967295
        }
      ],
      "vout": [
        {
          "value": 50.0,
          "n": 0,
          "scriptPubKey": {
            "asm": "0483b29d7388aa3f4bc20de2f91340e75e4e6b7ee2c7eebf9c68a8e224290413fcbe55d69d046705a98f120f90832f3d01415785e28519f003e8d3c9bc47b59914 OP_CHECKSIG",
            "desc": "pk(0483b29d7388aa3f4bc20de2f91340e75e4e6b7ee2c7eebf9c68a8e224290413fcbe55d69d046705a98f120f90832f3d01415785e28519f003e8d3c9bc47b59914)#j9dt2kt9",
            "hex": "410483b29d7388aa3f4bc20de2f91340e75e4e6b7ee2c7eebf9c68a8e224290413fcbe55d69d046705a98f120f90832f3d01415785e28519f003e8d3c9bc47b59914ac",
            "type": "pubkey"
          }
        }
      ],
      "hex": "01000000010000000000000000000000000000000000000000000000000000000000000000ffffffff0804ffff001d02ca02ffffffff0100f2052a0100000043410483b29d7388aa3f4bc20de2f91340e75e4e6b7ee2c7eebf9c68a8e224290413fcbe55d69d046705a98f120f90832f3d01415785e28519f003e8d3c9bc47b59914ac00000000"
    }
  ]
}