{
  "hash": "000000009445629e5662b81815da26b0cdfa65c54f9b64378ab2a3d501087438",
  "confirmations": 48092,
  "height": 5006,
  "version": 1,
  "versionHex": "00000001",
  "merkleroot": "116f1715d5f7dde9e7a96853623f051fa004ef0b27ad1c91b4c655bed9c445aa",
  "time": 1235141226,
  "mediantime": 1235136619,
  "nonce": 3596965377,
  "bits": "1d00ffff",
  "difficulty": 1,
  "chainwork": "0000000000000000000000000000000000000000000000000000138f138f138f",
  "nTx": 1,
  "previousblockhash": "00000000d8e1ff70753bdcc86a037f9394d61c9437d1a14f9878c6b52285cbb7",
  "nextblockhash": "000000002d2e2c744dcad27e34b5674ce03194451fc82d34d0b114aea1c8e823",
  "strippedsize": 216,
  "size": 216,
  "weight": 864,
  "tx": [
    {
      "txid": "116f1715d5f7dde9e7a96853623f051fa004ef0b27ad1c91b4c655bed9c445aa",
      "hash": "116f1715d5f7dde9e7a96853623f051fa004ef0b27ad1c91b4c655bed9c445aa",
      "version": 1,
      "size": 135,
      "vsize": 135,
      "weight": 540,
      "locktime": 0,
      "vin": [
        {
          "coinbase": "04ffff001d021707",
          "sequence": 4294967295
        }
      ],
      "vout": [
        {
          "value": 50.0,
          "n": 0,
          "scriptPubKey": {
            "asm": "04ef36bf3e13ea3e4faa1f7428eaef483327fc013db1fbffae01ff88cf183fc5e53ea53d002ab40184b1c2ff136bfd324d9a15a1343e9ab674237d6c4acb635760 OP_CHECKSIG",
            "desc": "pk(04ef36bf3e13ea3e4faa1f7428eaef483327fc013db1fbffae01ff88cf183fc5e53ea53d002ab40184b1c2ff136bfd324d9a15a1343e9ab674237d6c4acb635760)#uwhxk758",
            "hex": "4104ef36bf3e13ea3e4faa1f7428eaef483327fc013db1fbffae01ff88cf183fc5e53ea53d002ab40184b1c2ff136bfd324d9a15a1343e9ab674237d6c4acb635760ac",
            "type": "pubkey"
          }
        }
      ],
      "hex": "01000000010000000000000000000000000000000000000000000000000000000000000000ffffffff0804ffff001d021707ffffffff0100f2052a01000000434104ef36bf3e13ea3e4faa1f7428eaef483327fc013db1fbffae01ff88cf183fc5e53ea53d002ab40184b1c2ff136bfd324d9a15a1343e9ab674237d6c4acb635760ac00000000"
    }
  ]
}