{
  "hash": "00000000f7a80dbc86ad8adb945f503d4199716553a1fe6c46811b524d1a765d",
  "confirmations": 50923,
  "height": 2175,
  "version": 1,
  "versionHex": "00000001",
  "merkleroot": "0689f697a2effc17d07aa05417395b53af65e1427cc515021f5a70b7c349cdb3",
  "time": 1233195288,
  "mediantime": 1233189587,
  "nonce": 2988343849,
  "bits": "1d00ffff",
  "difficulty": 1,
  "chainwork": "0000000000000000000000000000000000000000000000000000088008800880",
  "nTx": 1,
  "previousblockhash": "00000000b2031d82577d9bb787414b85a64ade60ccc77aba4a226d68e66878c5",
  "nextblockhash": "000000007f0b289645f06d880831c128a81c8d225671963668f63039aba5671c",
  "strippedsize": 215,
  "size": 215,
  "weight": 860,
  "tx": [
    {
      "txid": "0689f697a2effc17d07aa05417395b53af65e1427cc515021f5a70b7c349cdb3",
      "hash": "0689f697a2effc17d07aa05417395b53af65e1427cc515021f5a70b7c349cdb3",
      "version": 1,
      "size": 134,
      "vsize": 134,
      "weight": 536,
      "locktime": 0,
      "vin": [
        {
          "coinbase": "04ffff001d0108",
          "sequence": 4294967295
        }
      ],
      "vout": [
        {
          "value": 50.0,
          "n": 0,
          "scriptPubKey": {
            "asm": "04b72a4075bf82570dd29211c42e2109c776d2418a3325793013565f368c0e067bd50e31e68b7e3989b92869edb346cf579e38e9ca329a2297e0e585759e146509 OP_CHECKSIG",
            "desc": "pk(04b72a4075bf82570dd29211c42e2109c776d2418a3325793013565f368c0e067bd50e31e68b7e3989b92869edb346cf579e38e9ca329a2297e0e585759e146509)#7m6644hy",
            "hex": "4104b72a4075bf82570dd29211c42e2109c776d2418a3325793013565f368c0e067bd50e31e68b7e3989b92869edb346cf579e38e9ca329a2297e0e585759e146509ac",
            "type": "pubkey"
          }
        }
      ],
      "hex": "01000000010000000000000000000000000000000000000000000000000000000000000000ffffffff0704ffff001d0108ffffffff0100f2052a01000000434104b72a4075bf82570dd29211c42e2109c776d2418a3325793013565f368c0e067bd50e31e68b7e3989b92869edb346cf579e38e9ca329a2297e0e585759e146509ac00000000"
    }
  ]
}