{
  "hash": "00000000fc468e1375ee4aa26db6b6053ee5979c54e341094ba3b591f3fb75e4",
  "confirmations": 44684,
  "height": 8414,
  "version": 1,
  "versionHex": "00000001",
  "merkleroot": "87bacc457eaa457cee308255a61e2dc51853e22c8850d88dd06cb3627ae4d196",
  "time": 1237809363,
  "mediantime": 1237805372,
  "nonce": 88689631,
  "bits": "1d00ffff",
  "difficulty": 1,
  "chainwork": "000000000000000000000000000000000000000000000000000020df20df20df",
  "nTx": 1,
  "previousblockhash": "00000000ab66e934e5822e9fe621c0120b33ad1634b24935a730e48905032a79",
  "nextblockhash": "000000000e10be0713aaea675fb71a9481e6468fd9206833b6be100af33baeab",
  "strippedsize": 216,
  "size": 216,
  "weight": 864,
  "tx": [
    {
      "txid": "87bacc457eaa457cee308255a61e2dc51853e22c8850d88dd06cb3627ae4d196",
      "hash": "87bacc457eaa457cee308255a61e2dc51853e22c8850d88dd06cb3627ae4d196",
      "version": 1,
      "size": 135,
      "vsize": 135,
      "weight": 540,
      "locktime": 0,
      "vin": [
        {
          "coinbase": "04ffff001d02a501",
          "sequence": 4294967295
        }
      ],
      "vout": [
        {
          "value": 50.0,
          "n": 0,
          "scriptPubKey": {
            "asm": "04050a971d153f6ff10ce86bd3e55bc2d6f6867325e72fb10fe5fd2d8d01c2ffc7747f9d513eeca10d4cba09b8e9f09eb5388cf7e06e17e45d6934b1d1eabe16a6 OP_CHECKSIG",
            "desc": "pk(04050a971d153f6ff10ce86bd3e55bc2d6f6867325e72fb10fe5fd2d8d01c2ffc7747f9d513eeca10d4cba09b8e9f09eb5388cf7e06e17e45d6934b1d1eabe16a6)#7u0d3geg",
            "hex": "4104050a971d153f6ff10ce86bd3e55bc2d6f6867325e72fb10fe5fd2d8d01c2ffc7747f9d513eeca10d4cba09b8e9f09eb5388cf7e06e17e45d6934b1d1eabe16a6ac",
            "type": "pubkey"
          }
        }
      ],
      "hex": "01000000010000000000000000000000000000000000000000000000000000000000000000ffffffff0804ffff001d02a501ffffffff0100f2052a01000000434104050a971d153f6ff10ce86bd3e55bc2d6f6867325e72fb10fe5fd2d8d01c2ffc7747f9d513eeca10d4cba09b8e9f09eb5388cf7e06e17e45d6934b1d1eabe16a6ac00000000"
    }
  ]
}