{
  "hash": "00000000dda07b33ea6dc860805e868c05f8ffa2e8d35a8157a51ec64f0818f0",
  "confirmations": 52033,
  "height": 128,
  "version": 1,
  "versionHex": "00000001",
  "merkleroot": "5f9aa6e1717102b9a059c223901fa36842c8a9db462d58a0ba71177c9ed9febc",
  "time": 1231682091,
  "mediantime": 1231677823,
  "nonce": 711997478,
  "bits": "1d00ffff",
  "difficulty": 1,
  "chainwork": "0000000000000000000000000000000000000000000000000000008100810081",
  "nTx": 1,
  "previousblockhash": "00000000467a752a3365c86f267d340635e66703ad4071c61e9b394ef172665b",
  "nextblockhash": "000000001884b26b0a2482be00f3dc03131154430462453c7193b6079daaf0eb",
  "strippedsize": 215,
  "size": 215,
  "weight": 860,
  "tx": [
    {
      "txid": "5f9aa6e1717102b9a059c223901fa36842c8a9db462d58a0ba71177c9ed9febc",
      "hash": "5f9aa6e1717102b9a059c223901fa36842c8a9db462d58a0ba71177c9ed9febc",
      "version": 1,
      "size": 134,
      "vsize": 134,
      "weight": 536,
      "locktime": 0,
      "vin": [
        {
          "coinbase": "04ffff001d0109",
          "sequence": 4294967295
        }
      ],
      "vout": [
        {
          "value": 50.0,
          "n": 0,
          "scriptPubKey": {
            "asm": "04076258c08254b7a4d8765afe658ca545827e9bfbc0c31c90377cf3459f2b4d83ef008867a1d28cee7f7ee40d6a47fcb2f271934762d23b44576125e87ce6bc03 OP_CHECKSIG",
            "desc": "pk(04076258c08254b7a4d8765afe658ca545827e9bfbc0c31c90377cf3459f2b4d83ef008867a1d28cee7f7ee40d6a47fcb2f271934762d23b44576125e87ce6bc03)#k0skskkn",
            "hex": "4104076258c08254b7a4d8765afe658ca545827e9bfbc0c31c90377cf3459f2b4d83ef008867a1d28cee7f7ee40d6a47fcb2f271934762d23b44576125e87ce6bc03ac",
            "type": "pubkey"
          }
        }
      ],
      "hex": "01000000010000000000000000000000000000000000000000000000000000000000000000ffffffff0704ffff001d0109ffffffff0100f2052a01000000434104076258c08254b7a4d8765afe658ca545827e9bfbc0c31c90377cf3459f2b4d83ef008867a1d28cee7f7ee40d6a47fcb2f271934762d23b44576125e87ce6bc03ac00000000"
    }
  ]
}