{
  "hash": "00000000a3a74b99b0ae09e50c7f317c03be3482bf752390b30adc67b12f23bf",
  "confirmations": 45948,
  "height": 7150,
  "version": 1,
  "versionHex": "00000001",
  "merkleroot": "682c3bed4db9b62ad50ddccc77a9a79af08b26e1ad7aeacf8e42054afaf28f3c",
  "time": 1236836240,
  "mediantime": 1236831701,
  "nonce": 132501542,
  "bits": "1d00ffff",
  "difficulty": 1,
  "chainwork": "00000000000000000000000000000000000000000000000000001bef1bef1bef",
  "nTx": 1,
  "previousblockhash": "00000000659f3dabb63b2c492b466867ca8838e7e3272e72b090bb05c7e8e7f6",
  "nextblockhash": "00000000105fb7538b2bea90c38e9286580e213abf8b5c2fed13466f547a390c",
  "strippedsize": 215,
  "size": 215,
  "weight": 860,
  "tx": [
    {
      "txid": "682c3bed4db9b62ad50ddccc77a9a79af08b26e1ad7aeacf8e42054afaf28f3c",
      "hash": "682c3bed4db9b62ad50ddccc77a9a79af08b26e1ad7aeacf8e42054afaf28f3c",
      "version": 1,
      "size": 134,
      "vsize": 134,
      "weight": 536,
      "locktime": 0,
      "vin": [
        {
          "coinbase": "04ffff001d0165",
          "sequence": 4294967295
        }
      ],
      "vout": [
        {
          "value": 50.0,
          "n": 0,
          "scriptPubKey": {
            "asm": "0492d466484bc97479791ab452bdf7e60d8a7a86218ec1f1f7b6890f17cec4236df4656d47537d162a5f0dad76f5e65379de928b3387af3a7158db82f69617b49b OP_CHECKSIG",
            "desc": "pk(0492d466484bc97479791ab452bdf7e60d8a7a86218ec1f1f7b6890f17cec4236df4656d47537d162a5f0dad76f5e65379de928b3387af3a7158db82f69617b49b)#wusw5vu8",
            "hex": "410492d466484bc97479791ab452bdf7e60d8a7a86218ec1f1f7b6890f17cec4236df4656d47537d162a5f0dad76f5e65379de928b3387af3a7158db82f69617b49bac",
            "type": "pubkey"
          }
        }
      ],
      "hex": "01000000010000000000000000000000000000000000000000000000000000000000000000ffffffff0704ffff001d0165ffffffff0100f2052a0100000043410492d466484bc97479791ab452bdf7e60d8a7a86218ec1f1f7b6890f17cec4236df4656d47537d162a5f0dad76f5e65379de928b3387af3a7158db82f69617b49bac00000000"
    }
  ]
}