{
  "hash": "000000005fae7d3d06fc898ccdc1d9435b917dd2db63ecf0a0bc2b3f4210b831",
  "confirmations": 52088,
  "height": 247,
  "version": 1,
  "versionHex": "00000001",
  "merkleroot": "5f7694d702a9cf2ea6d3f0ddda1a4c488c507709b5440ab5a7aed4a74f4e5401",
  "time": 1231789563,
  "mediantime": 1231785773,
  "nonce": 2121910810,
  "bits": "1d00ffff",
  "difficulty": 1,
  "chainwork": "000000000000000000000000000000000000000000000000000000f800f800f8",
  "nTx": 1,
  "previousblockhash": "00000000ccc62f72d2e8e34c750d9ab72b6f2557d3b249b619d3e7f1860f1a32",
  "nextblockhash": "00000000fb5b44edc7a1aa105075564a179d65506e2bd25f55f1629251d0f6b0",
  "strippedsize": 216,
  "size": 216,
  "weight": 864,
  "tx": [
    {
      "txid": "5f7694d702a9cf2ea6d3f0ddda1a4c488c507709b5440ab5a7aed4a74f4e5401",
      "hash": "5f7694d702a9cf2ea6d3f0ddda1a4c488c507709b5440ab5a7aed4a74f4e5401",
      "version": 1,
      "size": 135,
      "vsize": 135,
      "weight": 540,
      "locktime": 0,
      "vin": [
        {
          "coinbase": "04ffff001d020501",
          "sequence": 4294967295
        }
      ],
      "vout": [
        {
          "value": 50.0,
          "n": 0,
          "scriptPubKey": {
            "asm": "0474f197b0b43d284cc13cdf60d46f7e5a5fd2db8b6b0c4e21040c1b0207790c67b67245a494bff78e0a0fe8467622b4d704e7da650ad3af39071d3ffb315959f0 OP_CHECKSIG",
            "desc": "pk(0474f197b0b43d284cc13cdf60d46f7e5a5fd2db8b6b0c4e21040c1b0207790c67b67245a494bff78e0a0fe8467622b4d704e7da650ad3af39071d3ffb315959f0)#jhmrn9yp",
            "hex": "410474f197b0b43d284cc13cdf60d46f7e5a5fd2db8b6b0c4e21040c1b0207790c67b67245a494bff78e0a0fe8467622b4d704e7da650ad3af39071d3ffb315959f0ac",
            "type": "pubkey"
          }
        }
      ],
      "hex": "01000000010000000000000000000000000000000000000000000000000000000000000000ffffffff0804ffff001d020501ffffffff0100f2052a0100000043410474f197b0b43d284cc13cdf60d46f7e5a5fd2db8b6b0c4e21040c1b0207790c67b67245a494bff78e0a0fe8467622b4d704e7da650ad3af39071d3ffb315959f0ac00000000"
    }
  ]
}