{
  "hash": "00000000919b014bc75f44102663634638acf4ef6b2f914982d01172ca244667",
  "confirmations": 44784,
  "height": 8314,
  "version": 1,
  "versionHex": "00000001",
  "merkleroot": "bd3a34024894eea5ad561ade54bff950ddd33fa601fc7c64322fe2ec83963ff1",
  "time": 1237738682,
  "mediantime": 1237735884,
  "nonce": 2194088741,
  "bits": "1d00ffff",
  "difficulty": 1,
  "chainwork": "0000000000000000000000000000000000000000000000000000207b207b207b",
  "nTx": 1,
  "previousblockhash": "0000000085d1bb02b81459e42cd4f790ff2d4fa319316f28386602b8d1f385c1",
  "nextblockhash": "00000000f2256ba62635f7918d0f685fc34447cc5eff1cd523b555f716435710",
  "strippedsize": 216,
  "size": 216,
  "weight": 864,
  "tx": [
    {
      "txid": "bd3a34024894eea5ad561ade54bff950ddd33fa601fc7c64322fe2ec83963ff1",
      "hash": "bd3a34024894eea5ad561ade54bff950ddd33fa601fc7c64322fe2ec83963ff1",
      "version": 1,
      "size": 135,
      "vsize": 135,
      "weight": 540,
      "locktime": 0,
      "vin": [
        {
          "coinbase": "04ffff001d025104",
          "sequence": 4294967295
        }
      ],
      "vout": [
        {
          "value": 50.0,
          "n": 0,
          "scriptPubKey": {
            "asm": "04b9fbb91adb0a37472f91e37b71b3f383cd738bc69dd380548bc1a7d99a84ff54dca9ce8a7e4a99b0c08280fb33c8262878ac2f169e657ace0868360cc8605cec OP_CHECKSIG",
            "desc": "pk(04b9fbb91adb0a37472f91e37b71b3f383cd738bc69dd380548bc1a7d99a84ff54dca9ce8a7e4a99b0c08280fb33c8262878ac2f169e657ace0868360cc8605cec)#x3qkhunk",
            "hex": "4104b9fbb91adb0a37472f91e37b71b3f383cd738bc69dd380548bc1a7d99a84ff54dca9ce8a7e4a99b0c08280fb33c8262878ac2f169e657ace0868360cc8605cecac",
            "type": "pubkey"
          }
        }
      ],
      "hex": "01000000010000000000000000000000000000000000000000000000000000000000000000ffffffff0804ffff001d025104ffffffff0100f2052a01000000434104b9fbb91adb0a37472f91e37b71b3f383cd738bc69dd380548bc1a7d99a84ff54dca9ce8a7e4a99b0c08280fb33c8262878ac2f169e657ace0868360cc8605cecac00000000"
    }
  ]
}