{
  "hash": "00000000d218e41de99b3a609f095c4915d87946ebe92b433fb2b8b160ca768c",
  "confirmations": 49138,
  "height": 3960,
  "version": 1,
  "versionHex": "00000001",
  "merkleroot": "f394689f062aff6bc8a13229670edab2d53d0c287869a93c05c9bb7c71375a38",
  "time": 1234413035,
  "mediantime": 1234409490,
  "nonce": 2907785519,
  "bits": "1d00ffff",
  "difficulty": 1,
  "chainwork": "00000000000000000000000000000000000000000000000000000f790f790f79",
  "nTx": 1,
  "previousblockhash": "0000000051a1c6b6b255623f2bf37011d9b358e0c4da35aa490b273df9e256ce",
  "nextblockhash": "0000000021b21c276e12d1b68c5f0ec98510702c0645f1d9e82ba157e70809fd",
  "strippedsize": 216,
  "size": 216,
  "weight": 864,
  "tx": [
    {
      "txid": "f394689f062aff6bc8a13229670edab2d53d0c287869a93c05c9bb7c71375a38",
      "hash": "f394689f062aff6bc8a13229670edab2d53d0c287869a93c05c9bb7c71375a38",
      "version": 1,
      "size": 135,
      "vsize": 135,
      "weight": 540,
      "locktime": 0,
      "vin": [
        {
          "coinbase": "04ffff001d02b003",
          "sequence": 4294967295
        }
      ],
      "vout": [
        {
          "value": 50.0,
          "n": 0,
          "scriptPubKey": {
            "asm": "0485ad3b5f1e9b04f75ad9539b127d4827aba4720f41ec18a2e50b6d4546da52bb1d7f2ddbe74be4ae6c212ae09ff99d19aa6e191ff6e71929120b0c5b673e44ee OP_CHECKSIG",
            "desc": "pk(0485ad3b5f1e9b04f75ad9539b127d4827aba4720f41ec18a2e50b6d4546da52bb1d7f2ddbe74be4ae6c212ae09ff99d19aa6e191ff6e71929120b0c5b673e44ee)#htl5j0xv",
            "hex": "410485ad3b5f1e9b04f75ad9539b127d4827aba4720f41ec18a2e50b6d4546da52bb1d7f2ddbe74be4ae6c212ae09ff99d19aa6e191ff6e71929120b0c5b673e44eeac",
            "type": "pubkey"
          }
        }
      ],
      "hex": "01000000010000000000000000000000000000000000000000000000000000000000000000ffffffff0804ffff001d02b003ffffffff0100f2052a0100000043410485ad3b5f1e9b04f75ad9539b127d4827aba4720f41ec18a2e50b6d4546da52bb1d7f2ddbe74be4ae6c212ae09ff99d19aa6e191ff6e71929120b0c5b673e44eeac00000000"
    }
  ]
}