{
  "hash": "0000000068d5e34919adf6d656f9d6e11ab372224221e48c24e3b9b6c258ac59",
  "confirmations": 44996,
  "height": 8102,
  "version": 1,
  "versionHex": "00000001",
  "merkleroot": "c26e557d96a58a75567e7433fa18e7b64ef4e90b7fe91225556a1217738edfcb",
  "time": 1237533786,
  "mediantime": 1237529116,
  "nonce": 305753352,
  "bits": "1d00ffff",
  "difficulty": 1,
  "chainwork": "00000000000000000000000000000000000000000000000000001fa71fa71fa7",
  "nTx": 1,
  "previousblockhash": "00000000b8dc5f844239cdf2a13a5e4a71b3e767c13004d310a5042696a0517b",
  "nextblockhash": "00000000f08da4ba5d41219aed535af9712919fd87293765b8a237136988d5fe",
  "strippedsize": 215,
  "size": 215,
  "weight": 860,
  "tx": [
    {
      "txid": "c26e557d96a58a75567e7433fa18e7b64ef4e90b7fe91225556a1217738edfcb",
      "hash": "c26e557d96a58a75567e7433fa18e7b64ef4e90b7fe91225556a1217738edfcb",
      "version": 1,
      "size": 134,
      "vsize": 134,
      "weight": 536,
      "locktime": 0,
      "vin": [
        {
          "coinbase": "04ffff001d016e",
          "sequence": 4294967295
        }
      ],
      "vout": [
        {
          "value": 50.0,
          "n": 0,
          "scriptPubKey": {
            "asm": "0466812f1b3c6346aa6565ad8eaa50acd50ff82d0cc2aae240baad73335f36ef336ff21fdeda02f1636a29ead68e05c009d6c97ae1ba43da5d04f244a1f5f9e957 OP_CHECKSIG",
            "desc": "pk(0466812f1b3c6346aa6565ad8eaa50acd50ff82d0cc2aae240baad73335f36ef336ff21fdeda02f1636a29ead68e05c009d6c97ae1ba43da5d04f244a1f5f9e957)#4kslqll7",
            "hex": "410466812f1b3c6346aa6565ad8eaa50acd50ff82d0cc2aae240baad73335f36ef336ff21fdeda02f1636a29ead68e05c009d6c97ae1ba43da5d04f244a1f5f9e957ac",
            "type": "pubkey"
          }
        }
      ],
      "hex": "01000000010000000000000000000000000000000000000000000000000000000000000000ffffffff0704ffff001d016effffffff0100f2052a0100000043410466812f1b3c6346aa6565ad8eaa50acd50ff82d0cc2aae240baad73335f36ef336ff21fdeda02f1636a29ead68e05c009d6c97ae1ba43da5d04f244a1f5f9e957ac00000000"
    }
  ]
}