{
  "hash": "00000000e9ef1a30235fe40e58604b08497b8d25ca3cf8f87c972be1e171f928",
  "confirmations": 44965,
  "height": 8133,
  "version": 1,
  "versionHex": "00000001",
  "merkleroot": "80c9c43de304f7f852b5ea99cdfe32375f2d4245c53a2aac661bda1d91f46d63",
  "time": 1237557348,
  "mediantime": 1237553648,
  "nonce": 480930071,
  "bits": "1d00ffff",
  "difficulty": 1,
  "chainwork": "00000000000000000000000000000000000000000000000000001fc61fc61fc6",
  "nTx": 1,
  "previousblockhash": "00000000cd4287fcda009c4c2c31448698304d2b009d7e031e2af6921cc3f859",
  "nextblockhash": "000000005eb4163cb0063ab0d7e2ec003d3b2ce722b07a3f3583656aba28a2ab",
  "strippedsize": 216,
  "size": 216,
  "weight": 864,
  "tx": [
    {
      "txid": "80c9c43de304f7f852b5ea99cdfe32375f2d4245c53a2aac661bda1d91f46d63",
      "hash": "80c9c43de304f7f852b5ea99cdfe32375f2d4245c53a2aac661bda1d91f46d63",
      "version": 1,
      "size": 135,
      "vsize": 135,
      "weight": 540,
      "locktime": 0,
      "vin": [
        {
          "coinbase": "04ffff001d02b301",
          "sequence": 4294967295
        }
      ],
      "vout": [
        {
          "value": 50.0,
          "n": 0,
          "scriptPubKey": {
            "asm": "04dc637550ee5f44033d384fd967868e90188963ec491b4737ac493afe55ecbe09be27fa1e4dcbf4d05c68cc6d14308eee999f539dbbd3fed11dffd335487a0a44 OP_CHECKSIG",
            "desc": "pk(04dc637550ee5f44033d384fd967868e90188963ec491b4737ac493afe55ecbe09be27fa1e4dcbf4d05c68cc6d14308eee999f539dbbd3fed11dffd335487a0a44)#4zke5zwu",
            "hex": "4104dc637550ee5f44033d384fd967868e90188963ec491b4737ac493afe55ecbe09be27fa1e4dcbf4d05c68cc6d14308eee999f539dbbd3fed11dffd335487a0a44ac",
            "type": "pubkey"
          }
        }
      ],
      "hex": "01000000010000000000000000000000000000000000000000000000000000000000000000ffffffff0804ffff001d02b301ffffffff0100f2052a01000000434104dc637550ee5f44033d384fd967868e90188963ec491b4737ac493afe55ecbe09be27fa1e4dcbf4d05c68cc6d14308eee999f539dbbd3fed11dffd335487a0a44ac00000000"
    }
  ]
}