{
  "hash": "00000000c52f9f67991800a704489d66653bcf91d1a950cc966820ff53a6a067",
  "confirmations": 49906,
  "height": 3192,
  "version": 1,
  "versionHex": "00000001",
  "merkleroot": "bded1ba86a3265a2fb76a35e1a759d2db904a195153c096f3f7654fa7103f478",
  "time": 1233893476,
  "mediantime": 1233890974,
  "nonce": 74147737,
  "bits": "1d00ffff",
  "difficulty": 1,
  "chainwork": "00000000000000000000000000000000000000000000000000000c790c790c79",
  "nTx": 1,
  "previousblockhash": "000000004747b92355b84ab0e4a53a411fc640485f3c055b0f7895e6c074d650",
  "nextblockhash": "0000000039071cc3993397398ba6bc1265563383f428226a972903a42017b4a2",
  "strippedsize": 215,
  "size": 215,
  "weight": 860,
  "tx": [
    {
      "txid": "bded1ba86a3265a2fb76a35e1a759d2db904a195153c096f3f7654fa7103f478",
      "hash": "bded1ba86a3265a2fb76a35e1a759d2db904a195153c096f3f7654fa7103f478",
      "version": 1,
      "size": 134,
      "vsize": 134,
      "weight": 536,
      "locktime": 0,
      "vin": [
        {
          "coinbase": "04ffff001d0110",
          "sequence": 4294967295
        }
      ],
      "vout": [
        {
          "value": 50.0,
          "n": 0,
          "scriptPubKey": {
            "asm": "0465e4eedf9c4cd448ab56591fe53cff1ab0c8609653684c49e502baa638f3cc5b0707b62cc8b82f00fd07dc6fe28cea5ed4ecd2ee799cf43e6ad9c944d915c9ab OP_CHECKSIG",
            "desc": "pk(0465e4eedf9c4cd448ab56591fe53cff1ab0c8609653684c49e502baa638f3cc5b0707b62cc8b82f00fd07dc6fe28cea5ed4ecd2ee799cf43e6ad9c944d915c9ab)#2uaz5edc",
            "hex": "410465e4eedf9c4cd448ab56591fe53cff1ab0c8609653684c49e502baa638f3cc5b0707b62cc8b82f00fd07dc6fe28cea5ed4ecd2ee799cf43e6ad9c944d915c9abac",
            "type": "pubkey"
          }
        }
      ],
      "hex": "01000000010000000000000000000000000000000000000000000000000000000000000000ffffffff0704ffff001d0110ffffffff0100f2052a0100000043410465e4eedf9c4cd448ab56591fe53cff1ab0c8609653684c49e502baa638f3cc5b0707b62cc8b82f00fd07dc6fe28cea5ed4ecd2ee799cf43e6ad9c944d915c9abac00000000"
    }
  ]
}