{
  "hash": "00000000c7bde0d880a138cd7740026b9b7e18436951ffb12c992541c5ba3a73",
  "confirmations": 50380,
  "height": 2718,
  "version": 1,
  "versionHex": "00000001",
  "merkleroot": "8d0cc2321a8cb3db8e4c94b69308313173ec09669a0aeb6d4eb1c16e35906b7a",
  "time": 1233575666,
  "mediantime": 1233573491,
  "nonce": 149224036,
  "bits": "1d00ffff",
  "difficulty": 1,
  "chainwork": "00000000000000000000000000000000000000000000000000000a9f0a9f0a9f",
  "nTx": 1,
  "previousblockhash": "00000000b8ca3931632b20657f1d6064a3ec4066d5f2bb4b716cc06671a9014d",
  "nextblockhash": "00000000bfd3c9bce9f32df730377f628c8c09a3175603cfd40095a361b8c417",
  "strippedsize": 215,
  "size": 215,
  "weight": 860,
  "tx": [
    {
      "txid": "8d0cc2321a8cb3db8e4c94b69308313173ec09669a0aeb6d4eb1c16e35906b7a",
      "hash": "8d0cc2321a8cb3db8e4c94b69308313173ec09669a0aeb6d4eb1c16e35906b7a",
      "version": 1,
      "size": 134,
      "vsize": 134,
      "weight": 536,
      "locktime": 0,
      "vin": [
        {
          "coinbase": "04ffff001d0124",
          "sequence": 4294967295
        }
      ],
      "vout": [
        {
          "value": 50.0,
          "n": 0,
          "scriptPubKey": {
            "asm": "046d49f701b80667b6dfced1f557682147607388dc99df034b53e1808d88e6c2a36be3360c634cac31c0df5a69a3ed72df8372959a3cf523f15b1fddb9cd346f67 OP_CHECKSIG",
            "desc": "pk(046d49f701b80667b6dfced1f557682147607388dc99df034b53e1808d88e6c2a36be3360c634cac31c0df5a69a3ed72df8372959a3cf523f15b1fddb9cd346f67)#2ts9uast",
            "hex": "41046d49f701b80667b6dfced1f557682147607388dc99df034b53e1808d88e6c2a36be3360c634cac31c0df5a69a3ed72df8372959a3cf523f15b1fddb9cd346f67ac",
            "type": "pubkey"
          }
        }
      ],
      "hex": "01000000010000000000000000000000000000000000000000000000000000000000000000ffffffff0704ffff001d0124ffffffff0100f2052a010000004341046d49f701b80667b6dfced1f557682147607388dc99df034b53e1808d88e6c2a36be3360c634cac31c0df5a69a3ed72df8372959a3cf523f15b1fddb9cd346f67ac00000000"
    }
  ]
}