{
  "hash": "00000000cd78da22f490f21db457237ac26725852aa58aa0650cb4e1c6885a47",
  "confirmations": 45429,
  "height": 7669,
  "version": 1,
  "versionHex": "00000001",
  "merkleroot": "8c80990f79649db8e34e10cbd5a0bdff2956ada71e218cb495426f6182eebf41",
  "time": 1237216178,
  "mediantime": 1237212707,
  "nonce": 776416284,
  "bits": "1d00ffff",
  "difficulty": 1,
  "chainwork": "00000000000000000000000000000000000000000000000000001df61df61df6",
  "nTx": 1,
  "previousblockhash": "00000000aa2ad049e5189761e4e1e1e1dfda226cc3ff615da71080edc896f0ae",
  "nextblockhash": "00000000ff0f28a34a9fe0eca704612149b0ab4317ec75f37e86c41adba879a2",
  "strippedsize": 216,
  "size": 216,
  "weight": 864,
  "tx": [
    {
      "txid": "8c80990f79649db8e34e10cbd5a0bdff2956ada71e218cb495426f6182eebf41",
      "hash": "8c80990f79649db8e34e10cbd5a0bdff2956ada71e218cb495426f6182eebf41",
      "version": 1,
      "size": 135,
      "vsize": 135,
      "weight": 540,
      "locktime": 0,
      "vin": [
        {
          "coinbase": "04ffff001d029903",
          "sequence": 4294967295
        }
      ],
      "vout": [
        {
          "value": 50.0,
          "n": 0,
          "scriptPubKey": {
            "asm": "04f9b315171fdb00b32f3aca9b76604cda329c96eb59231fedc4b3d2af4f8674406849ec76428142c9dcfc6d41f190c1a1a9db77d3d9886ea53bb4d0b9fb40cf3b OP_CHECKSIG",
            "desc": "pk(04f9b315171fdb00b32f3aca9b76604cda329c96eb59231fedc4b3d2af4f8674406849ec76428142c9dcfc6d41f190c1a1a9db77d3d9886ea53bb4d0b9fb40cf3b)#upwyelwh",
            "hex": "4104f9b315171fdb00b32f3aca9b76604cda329c96eb59231fedc4b3d2af4f8674406849ec76428142c9dcfc6d41f190c1a1a9db77d3d9886ea53bb4d0b9fb40cf3bac",
            "type": "pubkey"
          }
        }
      ],
      "hex": "01000000010000000000000000000000000000000000000000000000000000000000000000ffffffff0804ffff001d029903ffffffff0100f2052a01000000434104f9b315171fdb00b32f3aca9b76604cda329c96eb59231fedc4b3d2af4f8674406849ec76428142c9dcfc6d41f190c1a1a9db77d3d9886ea53bb4d0b9fb40cf3bac00000000"
    }
  ]
}