{
  "hash": "0000000042f28c9a92ac3f9f1e5890789a3cf88e7bc52d2815126f907804b3c6",
  "confirmations": 43189,
  "height": 9909,
  "version": 1,
  "versionHex": "00000001",
  "merkleroot": "d9492cbaedc401ecaf8b3b8231c55050f2374a308de1937e0b22deffb303369e",
  "time": 1238928541,
  "mediantime": 1238926035,
  "nonce": 2090380324,
  "bits": "1d00ffff",
  "difficulty": 1,
  "chainwork": "000000000000000000000000000000000000000000000000000026b626b626b6",
  "nTx": 1,
  "previousblockhash": "00000000a0163eeaabe7c01a481b2ed518f2da7cee9bb97d826df2a5a73b9a00",
  "nextblockhash": "00000000e8999f40cb02a324bbb1e658dede0cf475448e578cd3bcf80b015564",
  "strippedsize": 216,
  "size": 216,
  "weight": 864,
  "tx": [
    {
      "txid": "d9492cbaedc401ecaf8b3b8231c55050f2374a308de1937e0b22deffb303369e",
      "hash": "d9492cbaedc401ecaf8b3b8231c55050f2374a308de1937e0b22deffb303369e",
      "version": 1,
      "size": 135,
      "vsize": 135,
      "weight": 540,
      "locktime": 0,
      "vin": [
        {
          "coinbase": "04ffff001d023c02",
          "sequence": 4294967295
        }
      ],
      "vout": [
        {
          "value": 50.0,
          "n": 0,
          "scriptPubKey": {
            "asm": "04f9e8e786d24aecb4ee70da6bbc99f984e999a301e5228e54b503121ed6cb5eb0b966613cf4df2ac3d31716fceac2b4a80d2e3fff3679b02afebd9428fea6b513 OP_CHECKSIG",
            "desc": "pk(04f9e8e786d24aecb4ee70da6bbc99f984e999a301e5228e54b503121ed6cb5eb0b966613cf4df2ac3d31716fceac2b4a80d2e3fff3679b02afebd9428fea6b513)#ssmprt5g",
            "hex": "4104f9e8e786d24aecb4ee70da6bbc99f984e999a301e5228e54b503121ed6cb5eb0b966613cf4df2ac3d31716fceac2b4a80d2e3fff3679b02afebd9428fea6b513ac",
            "type": "pubkey"
          }
        }
      ],
      "hex": "01000000010000000000000000000000000000000000000000000000000000000000000000ffffffff0804ffff001d023c02ffffffff0100f2052a01000000434104f9e8e786d24aecb4ee70da6bbc99f984e999a301e5228e54b503121ed6cb5eb0b966613cf4df2ac3d31716fceac2b4a80d2e3fff3679b02afebd9428fea6b513ac00000000"
    }
  ]
}