{
  "hash": "00000000188a13c1bfb71ef32a6f43fd5215e329d66a9106f0fe2e51de8b3a0a",
  "confirmations": 45762,
  "height": 7336,
  "version": 1,
  "versionHex": "00000001",
  "merkleroot": "ce1a01379548cf230a78ee4234f099485ffbe62f482c8583ed52092d2d56db4f",
  "time": 1236974184,
  "mediantime": 1236971189,
  "nonce": 1969526069,
  "bits": "1d00ffff",
  "difficulty": 1,
  "chainwork": "00000000000000000000000000000000000000000000000000001ca91ca91ca9",
  "nTx": 1,
  "previousblockhash": "0000000013c6c49df5be068f2cdb65de63bde211c7ad02e5407ce045843b0ad6",
  "nextblockhash": "00000000c2a00ff270374743214dc1a3191781d9481fa61c80c77b4321fefe03",
  "strippedsize": 216,
  "size": 216,
  "weight": 864,
  "tx": [
    {
      "txid": "ce1a01379548cf230a78ee4234f099485ffbe62f482c8583ed52092d2d56db4f",
      "hash": "ce1a01379548cf230a78ee4234f099485ffbe62f482c8583ed52092d2d56db4f",
      "version": 1,
      "size": 135,
      "vsize": 135,
      "weight": 540,
      "locktime": 0,
      "vin": [
        {
          "coinbase": "04ffff001d024808",
          "sequence": 4294967295
        }
      ],
      "vout": [
        {
          "value": 50.0,
          "n": 0,
          "scriptPubKey": {
            "asm": "04a686d4ba9489a7af305078e4fe6de04dc90cc0ebf7ea844eda8d195a4fea3fb4b2eb8ac5760b9162e3df4c68df5d8c2290dbe7bc49525d72a1e91c71ea56207f OP_CHECKSIG",
            "desc": "pk(04a686d4ba9489a7af305078e4fe6de04dc90cc0ebf7ea844eda8d195a4fea3fb4b2eb8ac5760b9162e3df4c68df5d8c2290dbe7bc49525d72a1e91c71ea56207f)#v679t6s9",
            "hex": "4104a686d4ba9489a7af305078e4fe6de04dc90cc0ebf7ea844eda8d195a4fea3fb4b2eb8ac5760b9162e3df4c68df5d8c2290dbe7bc49525d72a1e91c71ea56207fac",
            "type": "pubkey"
          }
        }
      ],
      "hex": "01000000010000000000000000000000000000000000000000000000000000000000000000ffffffff0804ffff001d024808ffffffff0100f2052a01000000434104a686d4ba9489a7af305078e4fe6de04dc90cc0ebf7ea844eda8d195a4fea3fb4b2eb8ac5760b9162e3df4c68df5d8c2290dbe7bc49525d72a1e91c71ea56207fac00000000"
    }
  ]
}