{
  "hash": "00000000e71e95ab631cb898b73385749f28556f9a6d3205c12c056d2c708d22",
  "confirmations": 48163,
  "height": 4935,
  "version": 1,
  "versionHex": "00000001",
  "merkleroot": "c47a7265d56c2951d25d2879c7718f39310bfef36293ee464bcd62d8fa540a77",
  "time": 1235093940,
  "mediantime": 1235090852,
  "nonce": 48111588,
  "bits": "1d00ffff",
  "difficulty": 1,
  "chainwork": "0000000000000000000000000000000000000000000000000000134813481348",
  "nTx": 1,
  "previousblockhash": "00000000b6ef2f53bef81c9c04a010e5ac99fc586c421fab2957926b127edc86",
  "nextblockhash": "00000000e62c4e2da549427e3283e7fcb97f74c26d4c2ce71f7b89a0d3509d67",
  "strippedsize": 216,
  "size": 216,
  "weight": 864,
  "tx": [
    {
      "txid": "c47a7265d56c2951d25d2879c7718f39310bfef36293ee464bcd62d8fa540a77",
      "hash": "c47a7265d56c2951d25d2879c7718f39310bfef36293ee464bcd62d8fa540a77",
      "version": 1,
      "size": 135,
      "vsize": 135,
      "weight": 540,
      "locktime": 0,
      "vin": [
        {
          "coinbase": "04ffff001d02c303",
          "sequence": 4294967295
        }
      ],
      "vout": [
        {
          "value": 50.0,
          "n": 0,
          "scriptPubKey": {
            "asm": "04b949f7d244b847ec366009f4bc8a4c45500e518284c68f0d836a30df2aecd23ee4450a04e74602d954e725aeaa55ac6204a7bd20b0aa7618074a1dd137580c69 OP_CHECKSIG",
            "desc": "pk(04b949f7d244b847ec366009f4bc8a4c45500e518284c68f0d836a30df2aecd23ee4450a04e74602d954e725aeaa55ac6204a7bd20b0aa7618074a1dd137580c69)#2gkrruap",
            "hex": "4104b949f7d244b847ec366009f4bc8a4c45500e518284c68f0d836a30df2aecd23ee4450a04e74602d954e725aeaa55ac6204a7bd20b0aa7618074a1dd137580c69ac",
            "type": "pubkey"
          }
        }
      ],
      "hex": "01000000010000000000000000000000000000000000000000000000000000000000000000ffffffff0804ffff001d02c303ffffffff0100f2052a01000000434104b949f7d244b847ec366009f4bc8a4c45500e518284c68f0d836a30df2aecd23ee4450a04e74602d954e725aeaa55ac6204a7bd20b0aa7618074a1dd137580c69ac00000000"
    }
  ]
}