{
  "hash": "000000008849986c44878f325590e577febaf1d60c9af9d79411c664264e5c0a",
  "confirmations": 44497,
  "height": 8601,
  "version": 1,
  "versionHex": "00000001",
  "merkleroot": "e4a62fc60f691fbc4ce6d72b499752366e20f25206a2539f0cbf8c3dcdee88eb",
  "time": 1237951921,
  "mediantime": 1237947959,
  "nonce": 3289037111,
  "bits": "1d00ffff",
  "difficulty": 1,
  "chainwork": "0000000000000000000000000000000000000000000000000000219a219a219a",
  "nTx": 1,
  "previousblockhash": "00000000312efa075ffb31b57ab2f1239105155c51349b426c19c112c66474d3",
  "nextblockhash": "00000000372f1107dde648bf80c4bc629b4fbba581e07686a6f89539e114c0b9",
  "strippedsize": 216,
  "size": 216,
  "weight": 864,
  "tx": [
    {
      "txid": "e4a62fc60f691fbc4ce6d72b499752366e20f25206a2539f0cbf8c3dcdee88eb",
      "hash": "e4a62fc60f691fbc4ce6d72b499752366e20f25206a2539f0cbf8c3dcdee88eb",
      "version": 1,
      "size": 135,
      "vsize": 135,
      "weight": 540,
      "locktime": 0,
      "vin": [
        {
          "coinbase": "04ffff001d028009",
          "sequence": 4294967295
        }
      ],
      "vout": [
        {
          "value": 50.0,
          "n": 0,
          "scriptPubKey": {
            "asm": "0478d793b74b08d486dfd748b545a7eab3a24645550ac53d4e2bebf61735214c78996dc019ebb6b99ac29d9be43ab60ea6b0f010e314a0a8fa6623c90a057b7353 OP_CHECKSIG",
            "desc": "pk(0478d793b74b08d486dfd748b545a7eab3a24645550ac53d4e2bebf61735214c78996dc019ebb6b99ac29d9be43ab60ea6b0f010e314a0a8fa6623c90a057b7353)#7a5k49qj",
            "hex": "410478d793b74b08d486dfd748b545a7eab3a24645550ac53d4e2bebf61735214c78996dc019ebb6b99ac29d9be43ab60ea6b0f010e314a0a8fa6623c90a057b7353ac",
            "type": "pubkey"
          }
        }
      ],
      "hex": "01000000010000000000000000000000000000000000000000000000000000000000000000ffffffff0804ffff001d028009ffffffff0100f2052a0100000043410478d793b74b08d486dfd748b545a7eab3a24645550ac53d4e2bebf61735214c78996dc019ebb6b99ac29d9be43ab60ea6b0f010e314a0a8fa6623c90a057b7353ac00000000"
    }
  ]
}