{
  "hash": "0000000056478f3afe4bdf32da9b4a0f35e06e207f5822c98112fd765a4aec30",
  "confirmations": 51545,
  "height": 1553,
  "version": 1,
  "versionHex": "00000001",
  "merkleroot": "c2bca4037020943f4ee142a7f1e4d8c9b6a50ef32fcb7faf7b73f6fdcedce9a1",
  "time": 1232790640,
  "mediantime": 1232787707,
  "nonce": 3633594426,
  "bits": "1d00ffff",
  "difficulty": 1,
  "chainwork": "0000000000000000000000000000000000000000000000000000061206120612",
  "nTx": 1,
  "previousblockhash": "000000008fdb65e1b0cfd8099d65aa8b889f23c68f698ebadca6356f9c2003bc",
  "nextblockhash": "000000002807ceb4bd813aed6cbdc001cc0424e425f2013abedc8f021d19d272",
  "strippedsize": 216,
  "size": 216,
  "weight": 864,
  "tx": [
    {
      "txid": "c2bca4037020943f4ee142a7f1e4d8c9b6a50ef32fcb7faf7b73f6fdcedce9a1",
      "hash": "c2bca4037020943f4ee142a7f1e4d8c9b6a50ef32fcb7faf7b73f6fdcedce9a1",
      "version": 1,
      "size": 135,
      "vsize": 135,
      "weight": 540,
      "locktime": 0,
      "vin": [
        {
          "coinbase": "04ffff001d02b001",
          "sequence": 4294967295
        }
      ],
      "vout": [
        {
          "value": 50.0,
          "n": 0,
          "scriptPubKey": {
            "asm": "0473aa2659ab473c36473b0a2ffd7cf09db58844d6e9ae47a0b7e30a6b40678a9a4fd385ecf3bf1abdf1f20b2d2658ac35ab5749f690569f9393fc20f6fb2e03b9 OP_CHECKSIG",
            "desc": "pk(0473aa2659ab473c36473b0a2ffd7cf09db58844d6e9ae47a0b7e30a6b40678a9a4fd385ecf3bf1abdf1f20b2d2658ac35ab5749f690569f9393fc20f6fb2e03b9)#vel3zhl9",
            "hex": "410473aa2659ab473c36473b0a2ffd7cf09db58844d6e9ae47a0b7e30a6b40678a9a4fd385ecf3bf1abdf1f20b2d2658ac35ab5749f690569f9393fc20f6fb2e03b9ac",
            "type": "pubkey"
          }
        }
      ],
      "hex": "01000000010000000000000000000000000000000000000000000000000000000000000000ffffffff0804ffff001d02b001ffffffff0100f2052a0100000043410473aa2659ab473c36473b0a2ffd7cf09db58844d6e9ae47a0b7e30a6b40678a9a4fd385ecf3bf1abdf1f20b2d2658ac35ab5749f690569f9393fc20f6fb2e03b9ac00000000"
    }
  ]
}