{
  "hash": "0000000098b558c90ae999a09ebe7fb61b23d01e3a2d6fa9e204cab89d02df60",
  "confirmations": 45294,
  "height": 7804,
  "version": 1,
  "versionHex": "00000001",
  "merkleroot": "aeb1923c27fa0893581c5d082e1a36d9f20241db5c23e0f65f43ca516d8f9290",
  "time": 1237316061,
  "mediantime": 1237313260,
  "nonce": 142721196,
  "bits": "1d00ffff",
  "difficulty": 1,
  "chainwork": "00000000000000000000000000000000000000000000000000001e7d1e7d1e7d",
  "nTx": 1,
  "previousblockhash": "00000000a783b17791529c67bc7c7398ef0fd86a5747d27920dab5583f903a1c",
  "nextblockhash": "000000004c7d1e71ab125cff19bec48a3b21f60063fdad6a44d8399d08b238cf",
  "strippedsize": 216,
  "size": 216,
  "weight": 864,
  "tx": [
    {
      "txid": "aeb1923c27fa0893581c5d082e1a36d9f20241db5c23e0f65f43ca516d8f9290",
      "hash": "aeb1923c27fa0893581c5d082e1a36d9f20241db5c23e0f65f43ca516d8f9290",
      "version": 1,
      "size": 135,
      "vsize": 135,
      "weight": 540,
      "locktime": 0,
      "vin": [
        {
          "coinbase": "04ffff001d02ec02",
          "sequence": 4294967295
        }
      ],
      "vout": [
        {
          "value": 50.0,
          "n": 0,
          "scriptPubKey": {
            "asm": "04dd0780560982100363b1280fc3a1d583eb776123b5dedb93ea537abd704ba901ca2a60792f2372c963125dfe81e0071d00eb4d450f17d9b1900d7797f8264e76 OP_CHECKSIG",
            "desc": "pk(04dd0780560982100363b1280fc3a1d583eb776123b5dedb93ea537abd704ba901ca2a60792f2372c963125dfe81e0071d00eb4d450f17d9b1900d7797f8264e76)#f0n0l8fn",
            "hex": "4104dd0780560982100363b1280fc3a1d583eb776123b5dedb93ea537abd704ba901ca2a60792f2372c963125dfe81e0071d00eb4d450f17d9b1900d7797f8264e76ac",
            "type": "pubkey"
          }
        }
      ],
      "hex": "01000000010000000000000000000000000000000000000000000000000000000000000000ffffffff0804ffff001d02ec02ffffffff0100f2052a01000000434104dd0780560982100363b1280fc3a1d583eb776123b5dedb93ea537abd704ba901ca2a60792f2372c963125dfe81e0071d00eb4d450f17d9b1900d7797f8264e76ac00000000"
    }
  ]
}