{
  "hash": "00000000316a89cc10bd7218f681b36ca5b9e761c0438e2617dc4fb8a1c65c8b",
  "confirmations": 45778,
  "height": 7320,
  "version": 1,
  "versionHex": "00000001",
  "merkleroot": "2c2582ee5758d3a00a03778873faf502fff280c4e52cc5b973796210807f13bc",
  "time": 1236962389,
  "mediantime": 1236959851,
  "nonce": 3587761922,
  "bits": "1d00ffff",
  "difficulty": 1,
  "chainwork": "00000000000000000000000000000000000000000000000000001c991c991c99",
  "nTx": 1,
  "previousblockhash": "000000001326764b4bc72d992b3361606326b201ed99fc42609afec79c18ae28",
  "nextblockhash": "0000000071b1c0b324d78aeba8ba45cf79b02418572c93a66af8ab6b94c9dfbb",
  "strippedsize": 216,
  "size": 216,
  "weight": 864,
  "tx": [
    {
      "txid": "2c2582ee5758d3a00a03778873faf502fff280c4e52cc5b973796210807f13bc",
      "hash": "2c2582ee5758d3a00a03778873faf502fff280c4e52cc5b973796210807f13bc",
      "version": 1,
      "size": 135,
      "vsize": 135,
      "weight": 540,
      "locktime": 0,
      "vin": [
        {
          "coinbase": "04ffff001d02e007",
          "sequence": 4294967295
        }
      ],
      "vout": [
        {
          "value": 50.0,
          "n": 0,
          "scriptPubKey": {
            "asm": "04032a1b96d261b2f414168c4cc02beb8f862ece9c936d487c00003c18b79a110e074c7ad26179cac787579808098bb47362e4c9cc65cba33e53a94e231f522155 OP_CHECKSIG",
            "desc": "pk(04032a1b96d261b2f414168c4cc02beb8f862ece9c936d487c00003c18b79a110e074c7ad26179cac787579808098bb47362e4c9cc65cba33e53a94e231f522155)#ryynk9mj",
            "hex": "4104032a1b96d261b2f414168c4cc02beb8f862ece9c936d487c00003c18b79a110e074c7ad26179cac787579808098bb47362e4c9cc65cba33e53a94e231f522155ac",
            "type": "pubkey"
          }
        }
      ],
      "hex": "01000000010000000000000000000000000000000000000000000000000000000000000000ffffffff0804ffff001d02e007ffffffff0100f2052a01000000434104032a1b96d261b2f414168c4cc02beb8f862ece9c936d487c00003c18b79a110e074c7ad26179cac787579808098bb47362e4c9cc65cba33e53a94e231f522155ac00000000"
    }
  ]
}