{
  "hash": "0000000058ff161132d81b301c3699f6f04d87f7f4ae8b5f273c4b4b1f569e40",
  "confirmations": 44418,
  "height": 8680,
  "version": 1,
  "versionHex": "00000001",
  "merkleroot": "b48495d383f1f35c628d5c03d9ba334e86f3990e79ebdbda520e4f11a321d9d0",
  "time": 1238010903,
  "mediantime": 1238005531,
  "nonce": 2456363573,
  "bits": "1d00ffff",
  "difficulty": 1,
  "chainwork": "000000000000000000000000000000000000000000000000000021e921e921e9",
  "nTx": 1,
  "previousblockhash": "0000000099e9b90af841ce3a535671c52164d057e95aa4e793ee0e0f893ea7df",
  "nextblockhash": "0000000008089f06ac82cc732939402ac8ecc10402363bf936c3b4a2cd3c60c4",
  "strippedsize": 216,
  "size": 216,
  "weight": 864,
  "tx": [
    {
      "txid": "b48495d383f1f35c628d5c03d9ba334e86f3990e79ebdbda520e4f11a321d9d0",
      "hash": "b48495d383f1f35c628d5c03d9ba334e86f3990e79ebdbda520e4f11a321d9d0",
      "version": 1,
      "size": 135,
      "vsize": 135,
      "weight": 540,
      "locktime": 0,
      "vin": [
        {
          "coinbase": "04ffff001d029b00",
          "sequence": 4294967295
        }
      ],
      "vout": [
        {
          "value": 50.0,
          "n": 0,
          "scriptPubKey": {
            "asm": "046cec34b1b7b81a420cdc640520ea4348189bfb9918452287b675c6a1a8a32429d23e41cb5377152ca67b742d5e5edbc4e808a77e657bdad11369d77b4b578997 OP_CHECKSIG",
            "desc": "pk(046cec34b1b7b81a420cdc640520ea4348189bfb9918452287b675c6a1a8a32429d23e41cb5377152ca67b742d5e5edbc4e808a77e657bdad11369d77b4b578997)#rad0frt5",
            "hex": "41046cec34b1b7b81a420cdc640520ea4348189bfb9918452287b675c6a1a8a32429d23e41cb5377152ca67b742d5e5edbc4e808a77e657bdad11369d77b4b578997ac",
            "type": "pubkey"
          }
        }
      ],
      "hex": "01000000010000000000000000000000000000000000000000000000000000000000000000ffffffff0804ffff001d029b00ffffffff0100f2052a010000004341046cec34b1b7b81a420cdc640520ea4348189bfb9918452287b675c6a1a8a32429d23e41cb5377152ca67b742d5e5edbc4e808a77e657bdad11369d77b4b578997ac00000000"
    }
  ]
}