{
  "hash": "000000003865dd95666b8196090790c5952d7ee45e9dce3e7bc991212a3dc975",
  "confirmations": 43912,
  "height": 9186,
  "version": 1,
  "versionHex": "00000001",
  "merkleroot": "f51f1c5b69ff4368beb9784301eb99a57b0a5ddde078006e6a1321506fd06385",
  "time": 1238391098,
  "mediantime": 1238386691,
  "nonce": 31957965,
  "bits": "1d00ffff",
  "difficulty": 1,
  "chainwork": "000000000000000000000000000000000000000000000000000023e323e323e3",
  "nTx": 1,
  "previousblockhash": "0000000092cfcd02dfb69c6b137fe1c864dea27cc09734ed766bfb9df84ee8b1",
  "nextblockhash": "0000000065f35f8f590064aae9c964227a29b0e433abd4d85978c34225aa8fb8",
  "strippedsize": 216,
  "size": 216,
  "weight": 864,
  "tx": [
    {
      "txid": "f51f1c5b69ff4368beb9784301eb99a57b0a5ddde078006e6a1321506fd06385",
      "hash": "f51f1c5b69ff4368beb9784301eb99a57b0a5ddde078006e6a1321506fd06385",
      "version": 1,
      "size": 135,
      "vsize": 135,
      "weight": 540,
      "locktime": 0,
      "vin": [
        {
          "coinbase": "04ffff001d024908",
          "sequence": 4294967295
        }
      ],
      "vout": [
        {
          "value": 50.0,
          "n": 0,
          "scriptPubKey": {
            "asm": "046883213a8815f5847ca99dac003b381e4e3e757b77dd0ba20dcb7a20344de7047b339b3e92d4e9440ef99c756c097a83896e5ac7ef4fe6f81382bcbb901475ad OP_CHECKSIG",
            "desc": "pk(046883213a8815f5847ca99dac003b381e4e3e757b77dd0ba20dcb7a20344de7047b339b3e92d4e9440ef99c756c097a83896e5ac7ef4fe6f81382bcbb901475ad)#44h4n8gr",
            "hex": "41046883213a8815f5847ca99dac003b381e4e3e757b77dd0ba20dcb7a20344de7047b339b3e92d4e9440ef99c756c097a83896e5ac7ef4fe6f81382bcbb901475adac",
            "type": "pubkey"
          }
        }
      ],
      "hex": "01000000010000000000000000000000000000000000000000000000000000000000000000ffffffff0804ffff001d024908ffffffff0100f2052a010000004341046883213a8815f5847ca99dac003b381e4e3e757b77dd0ba20dcb7a20344de7047b339b3e92d4e9440ef99c756c097a83896e5ac7ef4fe6f81382bcbb901475adac00000000"
    }
  ]
}