{
  "hash": "000000001943f7332d6eed79dd7c66f37c571c47f51faa9f34efd13e3f4e181c",
  "confirmations": 52418,
  "height": 680,
  "version": 1,
  "versionHex": "00000001",
  "merkleroot": "f72eee188d834179294d724b5e8b16620fef0963378cff5e7bcd7dac86e3503b",
  "time": 1232092650,
  "mediantime": 1232088311,
  "nonce": 558579490,
  "bits": "1d00ffff",
  "difficulty": 1,
  "chainwork": "000000000000000000000000000000000000000000000000000002a902a902a9",
  "nTx": 1,
  "previousblockhash": "00000000144cf235e3c011e236d261bf535720eebf6ead83ceb1e9fc1e5e4c16",
  "nextblockhash": "000000008c3c1a85063bc181d4ff51425209ba6788a0f85c473667620bed5780",
  "strippedsize": 215,
  "size": 215,
  "weight": 860,
  "tx": [
    {
      "txid": "f72eee188d834179294d724b5e8b16620fef0963378cff5e7bcd7dac86e3503b",
      "hash": "f72eee188d834179294d724b5e8b16620fef0963378cff5e7bcd7dac86e3503b",
      "version": 1,
      "size": 134,
      "vsize": 134,
      "weight": 536,
      "locktime": 0,
      "vin": [
        {
          "coinbase": "04ffff001d0168",
          "sequence": 4294967295
        }
      ],
      "vout": [
        {
          "value": 50.0,
          "n": 0,
          "scriptPubKey": {
            "asm": "04ca9d56f10a4f2fdf85a9b6ae4c12607b36097ab2423e03abd8a40b2ccdadb5b0ff749a0782307ed1ff61ec0d7232183d60f11db85c4805541901b1f88f2ce023 OP_CHECKSIG",
            "desc": "pk(04ca9d56f10a4f2fdf85a9b6ae4c12607b36097ab2423e03abd8a40b2ccdadb5b0ff749a0782307ed1ff61ec0d7232183d60f11db85c4805541901b1f88f2ce023)#cv62z232",
            "hex": "4104ca9d56f10a4f2fdf85a9b6ae4c12607b36097ab2423e03abd8a40b2ccdadb5b0ff749a0782307ed1ff61ec0d7232183d60f11db85c4805541901b1f88f2ce023ac",
            "type": "pubkey"
          }
        }
      ],
      "hex": "01000000010000000000000000000000000000000000000000000000000000000000000000ffffffff0704ffff001d0168ffffffff0100f2052a01000000434104ca9d56f10a4f2fdf85a9b6ae4c12607b36097ab2423e03abd8a40b2ccdadb5b0ff749a0782307ed1ff61ec0d7232183d60f11db85c4805541901b1f88f2ce023ac00000000"
    }
  ]
}