{
  "hash": "00000000420f32435818595072953be954315431b17128715872c66542474740",
  "confirmations": 48453,
  "height": 4645,
  "version": 1,
  "versionHex": "00000001",
  "merkleroot": "308af34ea1079224091f72e885b1b8a0e8bc59635f29daabd48ad7fc0ef692a4",
  "time": 1234887755,
  "mediantime": 1234884186,
  "nonce": 2570978348,
  "bits": "1d00ffff",
  "difficulty": 1,
  "chainwork": "0000000000000000000000000000000000000000000000000000122612261226",
  "nTx": 1,
  "previousblockhash": "00000000b5a884433639b614072bcf6eada0fc1a8049ae1e7b293f0a94efa72e",
  "nextblockhash": "0000000088f568959bc898e3af5325a67a27d5a4380fa41c5f6b7a204708d63d",
  "strippedsize": 216,
  "size": 216,
  "weight": 864,
  "tx": [
    {
      "txid": "308af34ea1079224091f72e885b1b8a0e8bc59635f29daabd48ad7fc0ef692a4",
      "hash": "308af34ea1079224091f72e885b1b8a0e8bc59635f29daabd48ad7fc0ef692a4",
      "version": 1,
      "size": 135,
      "vsize": 135,
      "weight": 540,
      "locktime": 0,
      "vin": [
        {
          "coinbase": "04ffff001d029501",
          "sequence": 4294967295
        }
      ],
      "vout": [
        {
          "value": 50.0,
          "n": 0,
          "scriptPubKey": {
            "asm": "04b182f50d6ad2f7cb2812c8000fbe364b59c00de99e88f7ec6b421145402d23b7ed7111de52fd6abe78672844689faba9dd635d9779ac4ea5641031170f50a371 OP_CHECKSIG",
            "desc": "pk(04b182f50d6ad2f7cb2812c8000fbe364b59c00de99e88f7ec6b421145402d23b7ed7111de52fd6abe78672844689faba9dd635d9779ac4ea5641031170f50a371)#takmemm8",
            "hex": "4104b182f50d6ad2f7cb2812c8000fbe364b59c00de99e88f7ec6b421145402d23b7ed7111de52fd6abe78672844689faba9dd635d9779ac4ea5641031170f50a371ac",
            "type": "pubkey"
          }
        }
      ],
      "hex": "01000000010000000000000000000000000000000000000000000000000000000000000000ffffffff0804ffff001d029501ffffffff0100f2052a01000000434104b182f50d6ad2f7cb2812c8000fbe364b59c00de99e88f7ec6b421145402d23b7ed7111de52fd6abe78672844689faba9dd635d9779ac4ea5641031170f50a371ac00000000"
    }
  ]
}