{
  "hash": "00000000c843444a37d3940480b25c8efc2634ed4e3749e70c3d62543fb35205",
  "confirmations": 49735,
  "height": 3363,
  "version": 1,
  "versionHex": "00000001",
  "merkleroot": "f4541a7b34c42641111064d79cff108196f6a4b99f11006ba60b9b0e7647fba8",
  "time": 1234011604,
  "mediantime": 1234008525,
  "nonce": 1012761654,
  "bits": "1d00ffff",
  "difficulty": 1,
  "chainwork": "00000000000000000000000000000000000000000000000000000d240d240d24",
  "nTx": 1,
  "previousblockhash": "00000000f4d6e99c5cad59f196e206d0f713b52c0514ba5255a1deeaf0f0612c",
  "nextblockhash": "00000000cdd1691076469c884667c363b5dad931767a1f8a7d6253ccdd73fd10",
  "strippedsize": 216,
  "size": 216,
  "weight": 864,
  "tx": [
    {
      "txid": "f4541a7b34c42641111064d79cff108196f6a4b99f11006ba60b9b0e7647fba8",
      "hash": "f4541a7b34c42641111064d79cff108196f6a4b99f11006ba60b9b0e7647fba8",
      "version": 1,
      "size": 135,
      "vsize": 135,
      "weight": 540,
      "locktime": 0,
      "vin": [
        {
          "coinbase": "04ffff001d024d05",
          "sequence": 4294967295
        }
      ],
      "vout": [
        {
          "value": 50.0,
          "n": 0,
          "scriptPubKey": {
            "asm": "04515703666aac9bf0e0888011282e4bc526073ade75cd4a58aaaba36fa1b45e63d86fd8a8b2c7fe97380cc3c030faa6707bdfcd438534baf6ff6e72584f3822b9 OP_CHECKSIG",
            "desc": "pk(04515703666aac9bf0e0888011282e4bc526073ade75cd4a58aaaba36fa1b45e63d86fd8a8b2c7fe97380cc3c030faa6707bdfcd438534baf6ff6e72584f3822b9)#hrh92en8",
            "hex": "4104515703666aac9bf0e0888011282e4bc526073ade75cd4a58aaaba36fa1b45e63d86fd8a8b2c7fe97380cc3c030faa6707bdfcd438534baf6ff6e72584f3822b9ac",
            "type": "pubkey"
          }
        }
      ],
      "hex": "01000000010000000000000000000000000000000000000000000000000000000000000000ffffffff0804ffff001d024d05ffffffff0100f2052a01000000434104515703666aac9bf0e0888011282e4bc526073ade75cd4a58aaaba36fa1b45e63d86fd8a8b2c7fe97380cc3c030faa6707bdfcd438534baf6ff6e72584f3822b9ac00000000"
    }
  ]
}