{
  "hash": "000000004eca954c4a657354cbdff294b4c09807607dd468aedbfd1f638a7631",
  "confirmations": 44633,
  "height": 8465,
  "version": 1,
  "versionHex": "00000001",
  "merkleroot": "70db3b4085683f66238883250a417125ee218032340db999fca5af5a445beab1",
  "time": 1237841771,
  "mediantime": 1237837306,
  "nonce": 3490650916,
  "bits": "1d00ffff",
  "difficulty": 1,
  "chainwork": "0000000000000000000000000000000000000000000000000000211221122112",
  "nTx": 1,
  "previousblockhash": "000000007c7efc06681fd184359b6207adc6d6108a9d421ddfa8e901dbb49b7e",
  "nextblockhash": "00000000fe37ad71656b4d9038de26a234982550e3c867422b2e7fb918b457d9",
  "strippedsize": 216,
  "size": 216,
  "weight": 864,
  "tx": [
    {
      "txid": "70db3b4085683f66238883250a417125ee218032340db999fca5af5a445beab1",
      "hash": "70db3b4085683f66238883250a417125ee218032340db999fca5af5a445beab1",
      "version": 1,
      "size": 135,
      "vsize": 135,
      "weight": 540,
      "locktime": 0,
      "vin": [
        {
          "coinbase": "04ffff001d020607",
          "sequence": 4294967295
        }
      ],
      "vout": [
        {
          "value": 50.0,
          "n": 0,
          "scriptPubKey": {
            "asm": "04b735f5b661c294e05f9a1efbd63dcb3d808a9cea59c8033bbf781f99c2195592ec1c0fb1f226ea76501cc7f9446c32633a864aec389fd785c3a96d3cd32b463b OP_CHECKSIG",
            "desc": "pk(04b735f5b661c294e05f9a1efbd63dcb3d808a9cea59c8033bbf781f99c2195592ec1c0fb1f226ea76501cc7f9446c32633a864aec389fd785c3a96d3cd32b463b)#744yw44v",
            "hex": "4104b735f5b661c294e05f9a1efbd63dcb3d808a9cea59c8033bbf781f99c2195592ec1c0fb1f226ea76501cc7f9446c32633a864aec389fd785c3a96d3cd32b463bac",
            "type": "pubkey"
          }
        }
      ],
      "hex": "01000000010000000000000000000000000000000000000000000000000000000000000000ffffffff0804ffff001d020607ffffffff0100f2052a01000000434104b735f5b661c294e05f9a1efbd63dcb3d808a9cea59c8033bbf781f99c2195592ec1c0fb1f226ea76501cc7f9446c32633a864aec389fd785c3a96d3cd32b463bac00000000"
    }
  ]
}