{
  "hash": "000000000f724595d732e7bfdf59303b9bdf7666deb0ad79e7b5875ec181afc1",
  "confirmations": 46470,
  "height": 6628,
  "version": 1,
  "versionHex": "00000001",
  "merkleroot": "fea84a60dc735b6e5df171bfd4ff6bf731aee00f13fe6c408fc8fe95debf6d4e",
  "time": 1236423976,
  "mediantime": 1236420422,
  "nonce": 1217457209,
  "bits": "1d00ffff",
  "difficulty": 1,
  "chainwork": "000000000000000000000000000000000000000000000000000019e519e519e5",
  "nTx": 1,
  "previousblockhash": "0000000016dd4dfa448162b44668342ef93b73b31c94c44e0c09163adfadd904",
  "nextblockhash": "00000000641089c958685df21d0ac747441faf8c2c67cb0ac7060e9c1979030f",
  "strippedsize": 216,
  "size": 216,
  "weight": 864,
  "tx": [
    {
      "txid": "fea84a60dc735b6e5df171bfd4ff6bf731aee00f13fe6c408fc8fe95debf6d4e",
      "hash": "fea84a60dc735b6e5df171bfd4ff6bf731aee00f13fe6c408fc8fe95debf6d4e",
      "version": 1,
      "size": 135,
      "vsize": 135,
      "weight": 540,
      "locktime": 0,
      "vin": [
        {
          "coinbase": "04ffff001d02a605",
          "sequence": 4294967295
        }
      ],
      "vout": [
        {
          "value": 50.0,
          "n": 0,
          "scriptPubKey": {
            "asm": "042a0408e562eb3794d75849fa22221cd6da98195e3c4be46d11236137c7d1c8d777efee6be94d9b52c3e9cea9fdf0321ea4a5b7ddad5922e0df84557fc2e31b94 OP_CHECKSIG",
            "desc": "pk(042a0408e562eb3794d75849fa22221cd6da98195e3c4be46d11236137c7d1c8d777efee6be94d9b52c3e9cea9fdf0321ea4a5b7ddad5922e0df84557fc2e31b94)#cwywzh92",
            "hex": "41042a0408e562eb3794d75849fa22221cd6da98195e3c4be46d11236137c7d1c8d777efee6be94d9b52c3e9cea9fdf0321ea4a5b7ddad5922e0df84557fc2e31b94ac",
            "type": "pubkey"
          }
        }
      ],
      "hex": "01000000010000000000000000000000000000000000000000000000000000000000000000ffffffff0804ffff001d02a605ffffffff0100f2052a010000004341042a0408e562eb3794d75849fa22221cd6da98195e3c4be46d11236137c7d1c8d777efee6be94d9b52c3e9cea9fdf0321ea4a5b7ddad5922e0df84557fc2e31b94ac00000000"
    }
  ]
}