{
  "hash": "000000008ec07092656ed89fba460c462cac9359ab6eb8f8bee486529016850f",
  "confirmations": 45178,
  "height": 7920,
  "version": 1,
  "versionHex": "00000001",
  "merkleroot": "5f956fc3f13380b295d94cd219e3e4b50b09f1bfec36a5021b98d62d6b8fd47a",
  "time": 1237406967,
  "mediantime": 1237403387,
  "nonce": 655600422,
  "bits": "1d00ffff",
  "difficulty": 1,
  "chainwork": "00000000000000000000000000000000000000000000000000001ef11ef11ef1",
  "nTx": 1,
  "previousblockhash": "000000000ddec185ba130dab5776cf66cecf23aa2f5317bf62a2297766b397b4",
  "nextblockhash": "0000000059103f17879ba261827089d0e36b422332358c188db08390d9bdcd67",
  "strippedsize": 216,
  "size": 216,
  "weight": 864,
  "tx": [
    {
      "txid": "5f956fc3f13380b295d94cd219e3e4b50b09f1bfec36a5021b98d62d6b8fd47a",
      "hash": "5f956fc3f13380b295d94cd219e3e4b50b09f1bfec36a5021b98d62d6b8fd47a",
      "version": 1,
      "size": 135,
      "vsize": 135,
      "weight": 540,
      "locktime": 0,
      "vin": [
        {
          "coinbase": "04ffff001d02cf07",
          "sequence": 4294967295
        }
      ],
      "vout": [
        {
          "value": 50.0,
          "n": 0,
          "scriptPubKey": {
            "asm": "0463e7df4eb0fa62ee755a98f43534f199fe6a0b1c52c3ddb3c0a92cbdf4a0204b8e532784802f955f3b46b76e02cd84bbf3dd2a4f247ffae3f3cc50a2d962a6a1 OP_CHECKSIG",
            "desc": "pk(0463e7df4eb0fa62ee755a98f43534f199fe6a0b1c52c3ddb3c0a92cbdf4a0204b8e532784802f955f3b46b76e02cd84bbf3dd2a4f247ffae3f3cc50a2d962a6a1)#2q4y25e7",
            "hex": "410463e7df4eb0fa62ee755a98f43534f199fe6a0b1c52c3ddb3c0a92cbdf4a0204b8e532784802f955f3b46b76e02cd84bbf3dd2a4f247ffae3f3cc50a2d962a6a1ac",
            "type": "pubkey"
          }
        }
      ],
      "hex": "01000000010000000000000000000000000000000000000000000000000000000000000000ffffffff0804ffff001d02cf07ffffffff0100f2052a0100000043410463e7df4eb0fa62ee755a98f43534f199fe6a0b1c52c3ddb3c0a92cbdf4a0204b8e532784802f955f3b46b76e02cd84bbf3dd2a4f247ffae3f3cc50a2d962a6a1ac00000000"
    }
  ]
}