{
  "hash": "00000000e99dc5bc27514e37daf534abcd3ce26fd1e32e2c45e834c214f4c7ae",
  "confirmations": 51177,
  "height": 1921,
  "version": 1,
  "versionHex": "00000001",
  "merkleroot": "0186c5c079af089bffff827aacc7283c2ad2753a2449966e5bfef858e3dfca7a",
  "time": 1232982699,
  "mediantime": 1232960632,
  "nonce": 131478575,
  "bits": "1d00ffff",
  "difficulty": 1,
  "chainwork": "0000000000000000000000000000000000000000000000000000078207820782",
  "nTx": 1,
  "previousblockhash": "00000000dc9e979cbe08b1ab64eac7bbb51dd3201b68870c55ba13fefb2976cb",
  "nextblockhash": "00000000b26e8961576fa599674ce4bc517d38950034df7516e599113b1d815b",
  "strippedsize": 215,
  "size": 215,
  "weight": 860,
  "tx": [
    {
      "txid": "0186c5c079af089bffff827aacc7283c2ad2753a2449966e5bfef858e3dfca7a",
      "hash": "0186c5c079af089bffff827aacc7283c2ad2753a2449966e5bfef858e3dfca7a",
      "version": 1,
      "size": 134,
      "vsize": 134,
      "weight": 536,
      "locktime": 0,
      "vin": [
        {
          "coinbase": "04ffff001d0105",
          "sequence": 4294967295
        }
      ],
      "vout": [
        {
          "value": 50.0,
          "n": 0,
          "scriptPubKey": {
            "asm": "044bdbd77efcd2f62106008edc8061ec5b838891c956eb3609fb090c5793b721fdb9740c6336e8b9a5b6f29c5eae2e7789c349dca7736e7be288496578b973b2f9 OP_CHECKSIG",
            "desc": "pk(044bdbd77efcd2f62106008edc8061ec5b838891c956eb3609fb090c5793b721fdb9740c6336e8b9a5b6f29c5eae2e7789c349dca7736e7be288496578b973b2f9)#ayh34kx0",
            "hex": "41044bdbd77efcd2f62106008edc8061ec5b838891c956eb3609fb090c5793b721fdb9740c6336e8b9a5b6f29c5eae2e7789c349dca7736e7be288496578b973b2f9ac",
            "type": "pubkey"
          }
        }
      ],
      "hex": "01000000010000000000000000000000000000000000000000000000000000000000000000ffffffff0704ffff001d0105ffffffff0100f2052a010000004341044bdbd77efcd2f62106008edc8061ec5b838891c956eb3609fb090c5793b721fdb9740c6336e8b9a5b6f29c5eae2e7789c349dca7736e7be288496578b973b2f9ac00000000"
    }
  ]
}