{
  "hash": "000000001b2bd1ae61c12d0d015711ba3a7eab386f6ed8b539002140ed9c02d9",
  "confirmations": 49684,
  "height": 3414,
  "version": 1,
  "versionHex": "00000001",
  "merkleroot": "f804f587b1bbf1ceb28d71a72fb94c933f377adf2f1df4865b15e875625608f7",
  "time": 1234047565,
  "mediantime": 1234044169,
  "nonce": 4166665758,
  "bits": "1d00ffff",
  "difficulty": 1,
  "chainwork": "00000000000000000000000000000000000000000000000000000d570d570d57",
  "nTx": 1,
  "previousblockhash": "000000004a501fe4d2ac58e840059bd0ff08ac0557b69ed226f031a806ec4294",
  "nextblockhash": "00000000261f1b92e5650e378b90cc8f779a3b644723b81f3400dbbbf3e233fe",
  "strippedsize": 216,
  "size": 216,
  "weight": 864,
  "tx": [
    {
      "txid": "f804f587b1bbf1ceb28d71a72fb94c933f377adf2f1df4865b15e875625608f7",
      "hash": "f804f587b1bbf1ceb28d71a72fb94c933f377adf2f1df4865b15e875625608f7",
      "version": 1,
      "size": 135,
      "vsize": 135,
      "weight": 540,
      "locktime": 0,
      "vin": [
        {
          "coinbase": "04ffff001d02d305",
          "sequence": 4294967295
        }
      ],
      "vout": [
        {
          "value": 50.0,
          "n": 0,
          "scriptPubKey": {
            "asm": "04009e6555423199906b7fa88131f6012932b1303cba2d8bee2527ee5088d61ead76a8d60c574f0be8b35a341a0118c486f115f8e565c03ec3b9d3594a4b0406b1 OP_CHECKSIG",
            "desc": "pk(04009e6555423199906b7fa88131f6012932b1303cba2d8bee2527ee5088d61ead76a8d60c574f0be8b35a341a0118c486f115f8e565c03ec3b9d3594a4b0406b1)#hgrgj95q",
            "hex": "4104009e6555423199906b7fa88131f6012932b1303cba2d8bee2527ee5088d61ead76a8d60c574f0be8b35a341a0118c486f115f8e565c03ec3b9d3594a4b0406b1ac",
            "type": "pubkey"
          }
        }
      ],
      "hex": "01000000010000000000000000000000000000000000000000000000000000000000000000ffffffff0804ffff001d02d305ffffffff0100f2052a01000000434104009e6555423199906b7fa88131f6012932b1303cba2d8bee2527ee5088d61ead76a8d60c574f0be8b35a341a0118c486f115f8e565c03ec3b9d3594a4b0406b1ac00000000"
    }
  ]
}