{
  "hash": "000000002fde9b67df624be5391cfd372f0ef24a53f9f7ffb96559139d5725b6",
  "confirmations": 47391,
  "height": 5707,
  "version": 1,
  "versionHex": "00000001",
  "merkleroot": "80f47cc5f9b74bca1d4287ad33c89e8292460ed158ef3b2ba747a1cb1c134c88",
  "time": 1235691651,
  "mediantime": 1235686841,
  "nonce": 3987974701,
  "bits": "1d00ffff",
  "difficulty": 1,
  "chainwork": "0000000000000000000000000000000000000000000000000000164c164c164c",
  "nTx": 1,
  "previousblockhash": "00000000feb1709385920e9f3df9fc8605dbb9427488bd8c71c3d2dbc8f8c073",
  "nextblockhash": "000000004cd24ab3e22739277e4b1fc0d1dbb7c622c12bc875474bf9642e96e3",
  "strippedsize": 216,
  "size": 216,
  "weight": 864,
  "tx": [
    {
      "txid": "80f47cc5f9b74bca1d4287ad33c89e8292460ed158ef3b2ba747a1cb1c134c88",
      "hash": "80f47cc5f9b74bca1d4287ad33c89e8292460ed158ef3b2ba747a1cb1c134c88",
      "version": 1,
      "size": 135,
      "vsize": 135,
      "weight": 540,
      "locktime": 0,
      "vin": [
        {
          "coinbase": "04ffff001d029309",
          "sequence": 4294967295
        }
      ],
      "vout": [
        {
          "value": 50.0,
          "n": 0,
          "scriptPubKey": {
            "asm": "04c058563fb3e638db07070ef1f9641a79160366fd83c3070a0938260d39e10278ffb96cd4be03a0508e82643f6d45e13a3e9f5d81f8d70da75f022b0a56fedb6d OP_CHECKSIG",
            "desc": "pk(04c058563fb3e638db07070ef1f9641a79160366fd83c3070a0938260d39e10278ffb96cd4be03a0508e82643f6d45e13a3e9f5d81f8d70da75f022b0a56fedb6d)#69qeuvpy",
            "hex": "4104c058563fb3e638db07070ef1f9641a79160366fd83c3070a0938260d39e10278ffb96cd4be03a0508e82643f6d45e13a3e9f5d81f8d70da75f022b0a56fedb6dac",
            "type": "pubkey"
          }
        }
      ],
      "hex": "01000000010000000000000000000000000000000000000000000000000000000000000000ffffffff0804ffff001d029309ffffffff0100f2052a01000000434104c058563fb3e638db07070ef1f9641a79160366fd83c3070a0938260d39e10278ffb96cd4be03a0508e82643f6d45e13a3e9f5d81f8d70da75f022b0a56fedb6dac00000000"
    }
  ]
}