{
  "hash": "0000000014a65a70cefa53205e5fd3523696b11a33abb522ebbc2dfd5542e1c5",
  "confirmations": 50903,
  "height": 2195,
  "version": 1,
  "versionHex": "00000001",
  "merkleroot": "c66d72e2fd387100e31ba011a36e0762d2e89b69a61e4540e4331d5b55374976",
  "time": 1233211327,
  "mediantime": 1233207720,
  "nonce": 453036310,
  "bits": "1d00ffff",
  "difficulty": 1,
  "chainwork": "0000000000000000000000000000000000000000000000000000089408940894",
  "nTx": 1,
  "previousblockhash": "000000007eb604956e2f591f9959baf9eaaf6d4eac8f273f5c6cb7c0555444ab",
  "nextblockhash": "00000000138559989f729ef79ebbf2b47bc24742f94b81007ba733940f574baa",
  "strippedsize": 215,
  "size": 215,
  "weight": 860,
  "tx": [
    {
      "txid": "c66d72e2fd387100e31ba011a36e0762d2e89b69a61e4540e4331d5b55374976",
      "hash": "c66d72e2fd387100e31ba011a36e0762d2e89b69a61e4540e4331d5b55374976",
      "version": 1,
      "size": 134,
      "vsize": 134,
      "weight": 536,
      "locktime": 0,
      "vin": [
        {
          "coinbase": "04ffff001d013d",
          "sequence": 4294967295
        }
      ],
      "vout": [
        {
          "value": 50.0,
          "n": 0,
          "scriptPubKey": {
            "asm": "0476e9a4d82f02556efa31b21c6aeac5626a764a7cb9554fe58a88aebdc5a8c650608ba39c8493b0fb80cafa4cdcf706f33f568d04c997ea09b19f42df2450987b OP_CHECKSIG",
            "desc": "pk(0476e9a4d82f02556efa31b21c6aeac5626a764a7cb9554fe58a88aebdc5a8c650608ba39c8493b0fb80cafa4cdcf706f33f568d04c997ea09b19f42df2450987b)#xt6jft6f",
            "hex": "410476e9a4d82f02556efa31b21c6aeac5626a764a7cb9554fe58a88aebdc5a8c650608ba39c8493b0fb80cafa4cdcf706f33f568d04c997ea09b19f42df2450987bac",
            "type": "pubkey"
          }
        }
      ],
      "hex": "01000000010000000000000000000000000000000000000000000000000000000000000000ffffffff0704ffff001d013dffffffff0100f2052a0100000043410476e9a4d82f02556efa31b21c6aeac5626a764a7cb9554fe58a88aebdc5a8c650608ba39c8493b0fb80cafa4cdcf706f33f568d04c997ea09b19f42df2450987bac00000000"
    }
  ]
}