{
  "hash": "000000001ee7109f7e57c96d5b1d125caa3e15ed967fa2e98c5b9228162d6c4f",
  "confirmations": 45257,
  "height": 7841,
  "version": 1,
  "versionHex": "00000001",
  "merkleroot": "08d3d1bcfd30d5adf643e72c75501368e9148ba82949163ff82f3655faae4b86",
  "time": 1237345285,
  "mediantime": 1237340506,
  "nonce": 1297639978,
  "bits": "1d00ffff",
  "difficulty": 1,
  "chainwork": "00000000000000000000000000000000000000000000000000001ea21ea21ea2",
  "nTx": 1,
  "previousblockhash": "00000000cfaad7de6eef5817f3e42943c8219991aa52f44280e5504607ebd743",
  "nextblockhash": "00000000eb7ad499b9bb85905ac97b514418ab030f74424d21f4bd88e4271b16",
  "strippedsize": 216,
  "size": 216,
  "weight": 864,
  "tx": [
    {
      "txid": "08d3d1bcfd30d5adf643e72c75501368e9148ba82949163ff82f3655faae4b86",
      "hash": "08d3d1bcfd30d5adf643e72c75501368e9148ba82949163ff82f3655faae4b86",
      "version": 1,
      "size": 135,
      "vsize": 135,
      "weight": 540,
      "locktime": 0,
      "vin": [
        {
          "coinbase": "04ffff001d028806",
          "sequence": 4294967295
        }
      ],
      "vout": [
        {
          "value": 50.0,
          "n": 0,
          "scriptPubKey": {
            "asm": "044f9037fcfdace7608e4f85fbda1137fd2c1166300db0410d76de3c38b0ef076d055da652799a909448b8d6cfa21a67585f2124d53b40c41a885c11c236b72629 OP_CHECKSIG",
            "desc": "pk(044f9037fcfdace7608e4f85fbda1137fd2c1166300db0410d76de3c38b0ef076d055da652799a909448b8d6cfa21a67585f2124d53b40c41a885c11c236b72629)#tvvq0l4s",
            "hex": "41044f9037fcfdace7608e4f85fbda1137fd2c1166300db0410d76de3c38b0ef076d055da652799a909448b8d6cfa21a67585f2124d53b40c41a885c11c236b72629ac",
            "type": "pubkey"
          }
        }
      ],
      "hex": "01000000010000000000000000000000000000000000000000000000000000000000000000ffffffff0804ffff001d028806ffffffff0100f2052a010000004341044f9037fcfdace7608e4f85fbda1137fd2c1166300db0410d76de3c38b0ef076d055da652799a909448b8d6cfa21a67585f2124d53b40c41a885c11c236b72629ac00000000"
    }
  ]
}