{
  "hash": "0000000093f6623ff5855f72bbd8893a8a3f6f482d9365a882c23540c1354c4b",
  "confirmations": 43327,
  "height": 9771,
  "version": 1,
  "versionHex": "00000001",
  "merkleroot": "2caea4e34096a48652d49032baa7ce3227390391ec299018164fff0de677edbf",
  "time": 1238834174,
  "mediantime": 1238830671,
  "nonce": 811460101,
  "bits": "1d00ffff",
  "difficulty": 1,
  "chainwork": "0000000000000000000000000000000000000000000000000000262c262c262c",
  "nTx": 1,
  "previousblockhash": "000000008a11f31763a5afe4f820b00a9793b63434b916b4c53cf582378833a3",
  "nextblockhash": "00000000ec7f892e14f2f3f2314f072443b96bc52c6eb982f4728c3a9761e544",
  "strippedsize": 216,
  "size": 216,
  "weight": 864,
  "tx": [
    {
      "txid": "2caea4e34096a48652d49032baa7ce3227390391ec299018164fff0de677edbf",
      "hash": "2caea4e34096a48652d49032baa7ce3227390391ec299018164fff0de677edbf",
      "version": 1,
      "size": 135,
      "vsize": 135,
      "weight": 540,
      "locktime": 0,
      "vin": [
        {
          "coinbase": "04ffff001d021f0a",
          "sequence": 4294967295
        }
      ],
      "vout": [
        {
          "value": 50.0,
          "n": 0,
          "scriptPubKey": {
            "asm": "0433d59907760651590e29b5af668671263078c912d5757afe526216a79d9b4ed841d2b39d28e6c8c489be095f4d1c8f56efff43354775deddc9540a47cb982e17 OP_CHECKSIG",
            "desc": "pk(0433d59907760651590e29b5af668671263078c912d5757afe526216a79d9b4ed841d2b39d28e6c8c489be095f4d1c8f56efff43354775deddc9540a47cb982e17)#hfzpat8k",
            "hex": "410433d59907760651590e29b5af668671263078c912d5757afe526216a79d9b4ed841d2b39d28e6c8c489be095f4d1c8f56efff43354775deddc9540a47cb982e17ac",
            "type": "pubkey"
          }
        }
      ],
      "hex": "01000000010000000000000000000000000000000000000000000000000000000000000000ffffffff0804ffff001d021f0affffffff0100f2052a0100000043410433d59907760651590e29b5af668671263078c912d5757afe526216a79d9b4ed841d2b39d28e6c8c489be095f4d1c8f56efff43354775deddc9540a47cb982e17ac00000000"
    }
  ]
}