{
  "hash": "000000009bfffe757ad0a672c91bbd920f0c6bcb0dbc9915f1684eb5050f8c47",
  "confirmations": 50509,
  "height": 2589,
  "version": 1,
  "versionHex": "00000001",
  "merkleroot": "744e29137a1b23cb22f714e2ba72e5d9272409fb57617dfdca314f9542d08502",
  "time": 1233486497,
  "mediantime": 1233481390,
  "nonce": 3892594181,
  "bits": "1d00ffff",
  "difficulty": 1,
  "chainwork": "00000000000000000000000000000000000000000000000000000a1e0a1e0a1e",
  "nTx": 1,
  "previousblockhash": "00000000826ba9819ae31fba3ffd2a377747331a7dd819d104e207518ba74021",
  "nextblockhash": "00000000422b3acec93f5327c7b8735e3a14ad5a56ee6087596af5b489935458",
  "strippedsize": 216,
  "size": 216,
  "weight": 864,
  "tx": [
    {
      "txid": "744e29137a1b23cb22f714e2ba72e5d9272409fb57617dfdca314f9542d08502",
      "hash": "744e29137a1b23cb22f714e2ba72e5d9272409fb57617dfdca314f9542d08502",
      "version": 1,
      "size": 135,
      "vsize": 135,
      "weight": 540,
      "locktime": 0,
      "vin": [
        {
          "coinbase": "04ffff001d02cc02",
          "sequence": 4294967295
        }
      ],
      "vout": [
        {
          "value": 50.0,
          "n": 0,
          "scriptPubKey": {
            "asm": "04eb297b1e066eac16ff4c653d8af92c254624488fa0a37a9d045f6e49346add06bb02d8a87ed3ac5cf3638e0cd9edd21d73ee8d96665d1992f9f83b52a4df28a3 OP_CHECKSIG",
            "desc": "pk(04eb297b1e066eac16ff4c653d8af92c254624488fa0a37a9d045f6e49346add06bb02d8a87ed3ac5cf3638e0cd9edd21d73ee8d96665d1992f9f83b52a4df28a3)#exn22jy9",
            "hex": "4104eb297b1e066eac16ff4c653d8af92c254624488fa0a37a9d045f6e49346add06bb02d8a87ed3ac5cf3638e0cd9edd21d73ee8d96665d1992f9f83b52a4df28a3ac",
            "type": "pubkey"
          }
        }
      ],
      "hex": "01000000010000000000000000000000000000000000000000000000000000000000000000ffffffff0804ffff001d02cc02ffffffff0100f2052a01000000434104eb297b1e066eac16ff4c653d8af92c254624488fa0a37a9d045f6e49346add06bb02d8a87ed3ac5cf3638e0cd9edd21d73ee8d96665d1992f9f83b52a4df28a3ac00000000"
    }
  ]
}