{
  "hash": "000000008ef6dfbc30b0dca20d65aaf8c7556b5513a3634fb3909d6560f08326",
  "confirmations": 44968,
  "height": 8130,
  "version": 1,
  "versionHex": "00000001",
  "merkleroot": "e8b7a191327bddfae2250de972f29e6184ea413c83a9fb8ff9b008e6d43a4aa5",
  "time": 1237555020,
  "mediantime": 1237551718,
  "nonce": 3666359552,
  "bits": "1d00ffff",
  "difficulty": 1,
  "chainwork": "00000000000000000000000000000000000000000000000000001fc31fc31fc3",
  "nTx": 1,
  "previousblockhash": "00000000f554d506d673778a4463d2e700f4cd2eaaaa97dd40cc612e78c4e547",
  "nextblockhash": "00000000a58e0c2bd95bfbec763c376d1f0bbd502a274a5dce2a9105caca4769",
  "strippedsize": 216,
  "size": 216,
  "weight": 864,
  "tx": [
    {
      "txid": "e8b7a191327bddfae2250de972f29e6184ea413c83a9fb8ff9b008e6d43a4aa5",
      "hash": "e8b7a191327bddfae2250de972f29e6184ea413c83a9fb8ff9b008e6d43a4aa5",
      "version": 1,
      "size": 135,
      "vsize": 135,
      "weight": 540,
      "locktime": 0,
      "vin": [
        {
          "coinbase": "04ffff001d02a201",
          "sequence": 4294967295
        }
      ],
      "vout": [
        {
          "value": 50.0,
          "n": 0,
          "scriptPubKey": {
            "asm": "04c0d2ae1994dac62d927a4ffe1e4ad410fda4d58f1b45d918c00f409247aef6355c765a049572322dbd11a4c6fff601d11bf320fcbe8bdbedd6c57775585d4356 OP_CHECKSIG",
            "desc": "pk(04c0d2ae1994dac62d927a4ffe1e4ad410fda4d58f1b45d918c00f409247aef6355c765a049572322dbd11a4c6fff601d11bf320fcbe8bdbedd6c57775585d4356)#ntdgdt22",
            "hex": "4104c0d2ae1994dac62d927a4ffe1e4ad410fda4d58f1b45d918c00f409247aef6355c765a049572322dbd11a4c6fff601d11bf320fcbe8bdbedd6c57775585d4356ac",
            "type": "pubkey"
          }
        }
      ],
      "hex": "01000000010000000000000000000000000000000000000000000000000000000000000000ffffffff0804ffff001d02a201ffffffff0100f2052a01000000434104c0d2ae1994dac62d927a4ffe1e4ad410fda4d58f1b45d918c00f409247aef6355c765a049572322dbd11a4c6fff601d11bf320fcbe8bdbedd6c57775585d4356ac00000000"
    }
  ]
}