{
  "hash": "00000000422c4bdd5a4216a9351ba060e9cba84686974b9ca940e5013fb4e725",
  "confirmations": 47486,
  "height": 5612,
  "version": 1,
  "versionHex": "00000001",
  "merkleroot": "aa46de11463f63083e2339fe7db292d952238ddac8e6937296b1113af991051a",
  "time": 1235614125,
  "mediantime": 1235610192,
  "nonce": 3613427459,
  "bits": "1d00ffff",
  "difficulty": 1,
  "chainwork": "000000000000000000000000000000000000000000000000000015ed15ed15ed",
  "nTx": 1,
  "previousblockhash": "00000000fd4cc74ad1b37f149dfe5913118d1d8f457add57209fa14793a8d1c4",
  "nextblockhash": "000000000aaeb860e58ea6677ebe2ace24708a27eb957758c8f82ee018f3ee94",
  "strippedsize": 216,
  "size": 216,
  "weight": 864,
  "tx": [
    {
      "txid": "aa46de11463f63083e2339fe7db292d952238ddac8e6937296b1113af991051a",
      "hash": "aa46de11463f63083e2339fe7db292d952238ddac8e6937296b1113af991051a",
      "version": 1,
      "size": 135,
      "vsize": 135,
      "weight": 540,
      "locktime": 0,
      "vin": [
        {
          "coinbase": "04ffff001d02d607",
          "sequence": 4294967295
        }
      ],
      "vout": [
        {
          "value": 50.0,
          "n": 0,
          "scriptPubKey": {
            "asm": "04a86a676f8b4daf0a426d5cd4f38c2c57b36eaf4b5fea3782e3f02c1c3718c968edc75e3f713ffc596b6ddd232988ac8a5aa212e2314eb1e521c0e936b267b2e6 OP_CHECKSIG",
            "desc": "pk(04a86a676f8b4daf0a426d5cd4f38c2c57b36eaf4b5fea3782e3f02c1c3718c968edc75e3f713ffc596b6ddd232988ac8a5aa212e2314eb1e521c0e936b267b2e6)#3gh5cdm5",
            "hex": "4104a86a676f8b4daf0a426d5cd4f38c2c57b36eaf4b5fea3782e3f02c1c3718c968edc75e3f713ffc596b6ddd232988ac8a5aa212e2314eb1e521c0e936b267b2e6ac",
            "type": "pubkey"
          }
        }
      ],
      "hex": "01000000010000000000000000000000000000000000000000000000000000000000000000ffffffff0804ffff001d02d607ffffffff0100f2052a01000000434104a86a676f8b4daf0a426d5cd4f38c2c57b36eaf4b5fea3782e3f02c1c3718c968edc75e3f713ffc596b6ddd232988ac8a5aa212e2314eb1e521c0e936b267b2e6ac00000000"
    }
  ]
}