{
  "hash": "00000000589bea8b8ba6b3c039cc4c10e414c498d4bab561af7b1f92a7181ce4",
  "confirmations": 52169,
  "height": 460,
  "version": 1,
  "versionHex": "00000001",
  "merkleroot": "eff56a0127c9262d388864bbbd7111c5ccb25241491163f876c62b25ba8e5baf",
  "time": 1231943631,
  "mediantime": 1231940169,
  "nonce": 1519491111,
  "bits": "1d00ffff",
  "difficulty": 1,
  "chainwork": "000000000000000000000000000000000000000000000000000001cd01cd01cd",
  "nTx": 1,
  "previousblockhash": "00000000b03379dd693686ed84a33b5086d9770f1f08c6951a9e3fc40b06e7cf",
  "nextblockhash": "000000002082739d0e82596fb69243b1ca9db66db623d3fdcf283f18486cdbaf",
  "strippedsize": 216,
  "size": 216,
  "weight": 864,
  "tx": [
    {
      "txid": "eff56a0127c9262d388864bbbd7111c5ccb25241491163f876c62b25ba8e5baf",
      "hash": "eff56a0127c9262d388864bbbd7111c5ccb25241491163f876c62b25ba8e5baf",
      "version": 1,
      "size": 135,
      "vsize": 135,
      "weight": 540,
      "locktime": 0,
      "vin": [
        {
          "coinbase": "04ffff001d02d403",
          "sequence": 4294967295
        }
      ],
      "vout": [
        {
          "value": 50.0,
          "n": 0,
          "scriptPubKey": {
            "asm": "044a991457f24f788894ce2011735a8c07d4cc9d2d016fe174f81a02080db94a1239d9b2b44aa3b53093d803dc12e5b4adbbc3bd6d9495fb77e15cb6cc37894b13 OP_CHECKSIG",
            "desc": "pk(044a991457f24f788894ce2011735a8c07d4cc9d2d016fe174f81a02080db94a1239d9b2b44aa3b53093d803dc12e5b4adbbc3bd6d9495fb77e15cb6cc37894b13)#4tkw3rss",
            "hex": "41044a991457f24f788894ce2011735a8c07d4cc9d2d016fe174f81a02080db94a1239d9b2b44aa3b53093d803dc12e5b4adbbc3bd6d9495fb77e15cb6cc37894b13ac",
            "type": "pubkey"
          }
        }
      ],
      "hex": "01000000010000000000000000000000000000000000000000000000000000000000000000ffffffff0804ffff001d02d403ffffffff0100f2052a010000004341044a991457f24f788894ce2011735a8c07d4cc9d2d016fe174f81a02080db94a1239d9b2b44aa3b53093d803dc12e5b4adbbc3bd6d9495fb77e15cb6cc37894b13ac00000000"
    }
  ]
}