{
  "hash": "00000000fe47c494b4ff5393c885888f6e1b134c09ab42e06d40bc795d9d9ed6",
  "confirmations": 51340,
  "height": 1758,
  "version": 1,
  "versionHex": "00000001",
  "merkleroot": "b7356cfb9f77b317c171c5354c3e97dd2a9ec9d3df3763d657241c2c4dc752cf",
  "time": 1232878590,
  "mediantime": 1232875638,
  "nonce": 292309021,
  "bits": "1d00ffff",
  "difficulty": 1,
  "chainwork": "000000000000000000000000000000000000000000000000000006df06df06df",
  "nTx": 1,
  "previousblockhash": "00000000f512066d0e3b2d3599420092efd44976a82cbf4d335beb947031e891",
  "nextblockhash": "00000000d52d9d0b6fe6b9ec08096d3da59c3dcdaa2e29bef2dffdfc905f5f7a",
  "strippedsize": 215,
  "size": 215,
  "weight": 860,
  "tx": [
    {
      "txid": "b7356cfb9f77b317c171c5354c3e97dd2a9ec9d3df3763d657241c2c4dc752cf",
      "hash": "b7356cfb9f77b317c171c5354c3e97dd2a9ec9d3df3763d657241c2c4dc752cf",
      "version": 1,
      "size": 134,
      "vsize": 134,
      "weight": 536,
      "locktime": 0,
      "vin": [
        {
          "coinbase": "04ffff001d016a",
          "sequence": 4294967295
        }
      ],
      "vout": [
        {
          "value": 50.0,
          "n": 0,
          "scriptPubKey": {
            "asm": "04a3c71c9e8d795d6965d18ce4d16a81a8b9326c86e1d01f92bf8a7a17684f349c9bfe68d24ec08258edb5a9320bb7c860c62abbf0d6ab768b139ebc1c70824a02 OP_CHECKSIG",
            "desc": "pk(04a3c71c9e8d795d6965d18ce4d16a81a8b9326c86e1d01f92bf8a7a17684f349c9bfe68d24ec08258edb5a9320bb7c860c62abbf0d6ab768b139ebc1c70824a02)#3mdzct7k",
            "hex": "4104a3c71c9e8d795d6965d18ce4d16a81a8b9326c86e1d01f92bf8a7a17684f349c9bfe68d24ec08258edb5a9320bb7c860c62abbf0d6ab768b139ebc1c70824a02ac",
            "type": "pubkey"
          }
        }
      ],
      "hex": "01000000010000000000000000000000000000000000000000000000000000000000000000ffffffff0704ffff001d016affffffff0100f2052a01000000434104a3c71c9e8d795d6965d18ce4d16a81a8b9326c86e1d01f92bf8a7a17684f349c9bfe68d24ec08258edb5a9320bb7c860c62abbf0d6ab768b139ebc1c70824a02ac00000000"
    }
  ]
}