{
  "hash": "00000000e6940891fe89992ae41b65864936c75880e4a428221520f8783c9215",
  "confirmations": 52540,
  "height": 558,
  "version": 1,
  "versionHex": "00000001",
  "merkleroot": "7146f458cfbf7680aa20bdc976a72c303d74b41e61b18deb6270278508d18fa8",
  "time": 1232009292,
  "mediantime": 1232005462,
  "nonce": 2305234483,
  "bits": "1d00ffff",
  "difficulty": 1,
  "chainwork": "0000000000000000000000000000000000000000000000000000022f022f022f",
  "nTx": 1,
  "previousblockhash": "00000000581a8d9a2a053e8d54b52477e6850e16fd33fcf4a607c1b21600c7ce",
  "nextblockhash": "00000000b113322da717207d93b13024bc75f09c1c12e7b40497664583b6d4df",
  "strippedsize": 216,
  "size": 216,
  "weight": 864,
  "tx": [
    {
      "txid": "7146f458cfbf7680aa20bdc976a72c303d74b41e61b18deb6270278508d18fa8",
      "hash": "7146f458cfbf7680aa20bdc976a72c303d74b41e61b18deb6270278508d18fa8",
      "version": 1,
      "size": 135,
      "vsize": 135,
      "weight": 540,
      "locktime": 0,
      "vin": [
        {
          "coinbase": "04ffff001d02dd05",
          "sequence": 4294967295
        }
      ],
      "vout": [
        {
          "value": 50.0,
          "n": 0,
          "scriptPubKey": {
            "asm": "04051a40eaac91647e678a82d757cb0378424441f14b83d3b8b103e74d6b90a6d1cb5ca5501c976bba65ece3d8d44a97dedc540ddcc59ccf85c7fc9e15daee45ea OP_CHECKSIG",
            "desc": "pk(04051a40eaac91647e678a82d757cb0378424441f14b83d3b8b103e74d6b90a6d1cb5ca5501c976bba65ece3d8d44a97dedc540ddcc59ccf85c7fc9e15daee45ea)#5ffm7mu3",
            "hex": "4104051a40eaac91647e678a82d757cb0378424441f14b83d3b8b103e74d6b90a6d1cb5ca5501c976bba65ece3d8d44a97dedc540ddcc59ccf85c7fc9e15daee45eaac",
            "type": "pubkey"
          }
        }
      ],
      "hex": "01000000010000000000000000000000000000000000000000000000000000000000000000ffffffff0804ffff001d02dd05ffffffff0100f2052a01000000434104051a40eaac91647e678a82d757cb0378424441f14b83d3b8b103e74d6b90a6d1cb5ca5501c976bba65ece3d8d44a97dedc540ddcc59ccf85c7fc9e15daee45eaac00000000"
    }
  ]
}