{
  "hash": "00000000e97b7fc46af3fd4592fe0fa9a9c0094da8b9a8fc7ef4810c6a23c304",
  "confirmations": 47409,
  "height": 5689,
  "version": 1,
  "versionHex": "00000001",
  "merkleroot": "a8a3da0ea7521b285ddb18d96656b7d851930a5e7359e7c570e24e11b89846b1",
  "time": 1235679855,
  "mediantime": 1235676289,
  "nonce": 2392909058,
  "bits": "1d00ffff",
  "difficulty": 1,
  "chainwork": "0000000000000000000000000000000000000000000000000000163a163a163a",
  "nTx": 1,
  "previousblockhash": "000000000941e2ff1d64d48fe0d72964d2ea14d33fca450070c7217975c5da46",
  "nextblockhash": "000000008a8b4be0aed3eb15efad0eaa713b726f92c3c835d0081195c3edc919",
  "strippedsize": 216,
  "size": 216,
  "weight": 864,
  "tx": [
    {
      "txid": "a8a3da0ea7521b285ddb18d96656b7d851930a5e7359e7c570e24e11b89846b1",
      "hash": "a8a3da0ea7521b285ddb18d96656b7d851930a5e7359e7c570e24e11b89846b1",
      "version": 1,
      "size": 135,
      "vsize": 135,
      "weight": 540,
      "locktime": 0,
      "vin": [
        {
          "coinbase": "04ffff001d024009",
          "sequence": 4294967295
        }
      ],
      "vout": [
        {
          "value": 50.0,
          "n": 0,
          "scriptPubKey": {
            "asm": "04247bb8c1e26de44c34c8bedb72e333b479081c6b63e752ab3b505c8e5f9845f4cda4c314ce6388c689f80bda27d8cf9909a98a493135746bae5c85118564ff69 OP_CHECKSIG",
            "desc": "pk(04247bb8c1e26de44c34c8bedb72e333b479081c6b63e752ab3b505c8e5f9845f4cda4c314ce6388c689f80bda27d8cf9909a98a493135746bae5c85118564ff69)#r25cxndz",
            "hex": "4104247bb8c1e26de44c34c8bedb72e333b479081c6b63e752ab3b505c8e5f9845f4cda4c314ce6388c689f80bda27d8cf9909a98a493135746bae5c85118564ff69ac",
            "type": "pubkey"
          }
        }
      ],
      "hex": "01000000010000000000000000000000000000000000000000000000000000000000000000ffffffff0804ffff001d024009ffffffff0100f2052a01000000434104247bb8c1e26de44c34c8bedb72e333b479081c6b63e752ab3b505c8e5f9845f4cda4c314ce6388c689f80bda27d8cf9909a98a493135746bae5c85118564ff69ac00000000"
    }
  ]
}