{
  "hash": "00000000381e31c7775c6b6aad8c4344321a24bed056e020cd8e6b5149d2c447",
  "confirmations": 50125,
  "height": 2973,
  "version": 1,
  "versionHex": "00000001",
  "merkleroot": "495924c5b09b0e851bbcd48615c36aec8cc081706f743bffcf1fdc0e8111e916",
  "time": 1233743419,
  "mediantime": 1233739643,
  "nonce": 1111888440,
  "bits": "1d00ffff",
  "difficulty": 1,
  "chainwork": "00000000000000000000000000000000000000000000000000000b9e0b9e0b9e",
  "nTx": 1,
  "previousblockhash": "00000000d94f1d51a312d293fe4acaea8aae1377eb26ca4c0b8bcb50ae43f743",
  "nextblockhash": "00000000e38cd27491d5a6ada8965ab82a6e24ff12ef2f9aae81f4c30beab55c",
  "strippedsize": 216,
  "size": 216,
  "weight": 864,
  "tx": [
    {
      "txid": "495924c5b09b0e851bbcd48615c36aec8cc081706f743bffcf1fdc0e8111e916",
      "hash": "495924c5b09b0e851bbcd48615c36aec8cc081706f743bffcf1fdc0e8111e916",
      "version": 1,
      "size": 135,
      "vsize": 135,
      "weight": 540,
      "locktime": 0,
      "vin": [
        {
          "coinbase": "04ffff001d02fa00",
          "sequence": 4294967295
        }
      ],
      "vout": [
        {
          "value": 50.0,
          "n": 0,
          "scriptPubKey": {
            "asm": "04feded01e32c24d43c1a31b6af213a33e3bdcdd6f5f3866faadb64309c4c533e7c69eb4217a40884b77a9f07b7d0d04a65aaccc5d780b18ac0a34333f22a83d19 OP_CHECKSIG",
            "desc": "pk(04feded01e32c24d43c1a31b6af213a33e3bdcdd6f5f3866faadb64309c4c533e7c69eb4217a40884b77a9f07b7d0d04a65aaccc5d780b18ac0a34333f22a83d19)#s4zd9dds",
            "hex": "4104feded01e32c24d43c1a31b6af213a33e3bdcdd6f5f3866faadb64309c4c533e7c69eb4217a40884b77a9f07b7d0d04a65aaccc5d780b18ac0a34333f22a83d19ac",
            "type": "pubkey"
          }
        }
      ],
      "hex": "01000000010000000000000000000000000000000000000000000000000000000000000000ffffffff0804ffff001d02fa00ffffffff0100f2052a01000000434104feded01e32c24d43c1a31b6af213a33e3bdcdd6f5f3866faadb64309c4c533e7c69eb4217a40884b77a9f07b7d0d04a65aaccc5d780b18ac0a34333f22a83d19ac00000000"
    }
  ]
}