{
  "hash": "00000000188c2430e645a76ab00cbaa925f993476fe8cf75088b9fdf84e63709",
  "confirmations": 43880,
  "height": 9218,
  "version": 1,
  "versionHex": "00000001",
  "merkleroot": "3a2f1e252e4100f021d965125d4cd53a9d32418ae80f81648fa1c09ddafdd02c",
  "time": 1238414125,
  "mediantime": 1238410512,
  "nonce": 2125306655,
  "bits": "1d00ffff",
  "difficulty": 1,
  "chainwork": "0000000000000000000000000000000000000000000000000000240324032403",
  "nTx": 1,
  "previousblockhash": "0000000011d0af58284833562b2d4560dc629a4b7af832c09fe0398826ec95d1",
  "nextblockhash": "000000005da33104778dcaad5053597a631924f5dcb245f21fa486f62ad48b42",
  "strippedsize": 215,
  "size": 215,
  "weight": 860,
  "tx": [
    {
      "txid": "3a2f1e252e4100f021d965125d4cd53a9d32418ae80f81648fa1c09ddafdd02c",
      "hash": "3a2f1e252e4100f021d965125d4cd53a9d32418ae80f81648fa1c09ddafdd02c",
      "version": 1,
      "size": 134,
      "vsize": 134,
      "weight": 536,
      "locktime": 0,
      "vin": [
        {
          "coinbase": "04ffff001d0135",
          "sequence": 4294967295
        }
      ],
      "vout": [
        {
          "value": 50.0,
          "n": 0,
          "scriptPubKey": {
            "asm": "04487efca06e96d2b769cd13b548eb425c85e063f1e94bb0057f6533d39a44e5ec3519fc7523f727c363124d8c4b6612e235c7dc12964e6edc4a56317dea886911 OP_CHECKSIG",
            "desc": "pk(04487efca06e96d2b769cd13b548eb425c85e063f1e94bb0057f6533d39a44e5ec3519fc7523f727c363124d8c4b6612e235c7dc12964e6edc4a56317dea886911)#vdvjrsak",
            "hex": "4104487efca06e96d2b769cd13b548eb425c85e063f1e94bb0057f6533d39a44e5ec3519fc7523f727c363124d8c4b6612e235c7dc12964e6edc4a56317dea886911ac",
            "type": "pubkey"
          }
        }
      ],
      "hex": "01000000010000000000000000000000000000000000000000000000000000000000000000ffffffff0704ffff001d0135ffffffff0100f2052a01000000434104487efca06e96d2b769cd13b548eb425c85e063f1e94bb0057f6533d39a44e5ec3519fc7523f727c363124d8c4b6612e235c7dc12964e6edc4a56317dea886911ac00000000"
    }
  ]
}