{
  "hash": "00000000e055383ede208a39e8a1b48de44abd430b80149f483a81a84d5564f6",
  "confirmations": 45236,
  "height": 7862,
  "version": 1,
  "versionHex": "00000001",
  "merkleroot": "a6766a35423b4dd48da8b9360811954855a8f179bb0d22291bf025a6439ecee6",
  "time": 1237360568,
  "mediantime": 1237356343,
  "nonce": 54002988,
  "bits": "1d00ffff",
  "difficulty": 1,
  "chainwork": "00000000000000000000000000000000000000000000000000001eb71eb71eb7",
  "nTx": 1,
  "previousblockhash": "0000000026e64b5b6ef0594d272e81ad05ad19fc949446348b0b5e15dd75be16",
  "nextblockhash": "00000000c53dbe6b1e67b2d6903bb1829a383d44c900d5b8c3e930f4aaaa7af4",
  "strippedsize": 216,
  "size": 216,
  "weight": 864,
  "tx": [
    {
      "txid": "a6766a35423b4dd48da8b9360811954855a8f179bb0d22291bf025a6439ecee6",
      "hash": "a6766a35423b4dd48da8b9360811954855a8f179bb0d22291bf025a6439ecee6",
      "version": 1,
      "size": 135,
      "vsize": 135,
      "weight": 540,
      "locktime": 0,
      "vin": [
        {
          "coinbase": "04ffff001d02ee06",
          "sequence": 4294967295
        }
      ],
      "vout": [
        {
          "value": 50.0,
          "n": 0,
          "scriptPubKey": {
            "asm": "04038018a0a68cee619bef9dac10e2a7e0e5fca09616c5289bf324b5a7d098a0ceed8618ec3de4c02376ed4fb0ba2e2005c5171683ffbd107671198162c23af9dd OP_CHECKSIG",
            "desc": "pk(04038018a0a68cee619bef9dac10e2a7e0e5fca09616c5289bf324b5a7d098a0ceed8618ec3de4c02376ed4fb0ba2e2005c5171683ffbd107671198162c23af9dd)#nhd9thdn",
            "hex": "4104038018a0a68cee619bef9dac10e2a7e0e5fca09616c5289bf324b5a7d098a0ceed8618ec3de4c02376ed4fb0ba2e2005c5171683ffbd107671198162c23af9ddac",
            "type": "pubkey"
          }
        }
      ],
      "hex": "01000000010000000000000000000000000000000000000000000000000000000000000000ffffffff0804ffff001d02ee06ffffffff0100f2052a01000000434104038018a0a68cee619bef9dac10e2a7e0e5fca09616c5289bf324b5a7d098a0ceed8618ec3de4c02376ed4fb0ba2e2005c5171683ffbd107671198162c23af9ddac00000000"
    }
  ]
}