{
  "hash": "0000000087540aa075d0ff6853003831137acc8a2677cf0574b676e202fcd9c4",
  "confirmations": 44148,
  "height": 8950,
  "version": 1,
  "versionHex": "00000001",
  "merkleroot": "d21c9e42d362e1d5cf16b3000d13f1c5cc59d80bb81cdfa272e7e7acae697357",
  "time": 1238217929,
  "mediantime": 1238213429,
  "nonce": 53408701,
  "bits": "1d00ffff",
  "difficulty": 1,
  "chainwork": "000000000000000000000000000000000000000000000000000022f722f722f7",
  "nTx": 1,
  "previousblockhash": "00000000445bf8b54a7c8ffa6519555b267be41e76f8e18ae8e0b732b8c6e1f7",
  "nextblockhash": "000000002baf5fc1698949b53091f2a20958ccd95950e9c1a0ea748cd89537bb",
  "strippedsize": 216,
  "size": 216,
  "weight": 864,
  "tx": [
    {
      "txid": "d21c9e42d362e1d5cf16b3000d13f1c5cc59d80bb81cdfa272e7e7acae697357",
      "hash": "d21c9e42d362e1d5cf16b3000d13f1c5cc59d80bb81cdfa272e7e7acae697357",
      "version": 1,
      "size": 135,
      "vsize": 135,
      "weight": 540,
      "locktime": 0,
      "vin": [
        {
          "coinbase": "04ffff001d02b903",
          "sequence": 4294967295
        }
      ],
      "vout": [
        {
          "value": 50.0,
          "n": 0,
          "scriptPubKey": {
            "asm": "04962bb9d9328c1ec8990d23c8111b3727a04b9ce48c63837f0bae69c267dd80145bebb0e91a6028e3206bc988a049bfd06c68ac6c84084f79845c8da1cf199f24 OP_CHECKSIG",
            "desc": "pk(04962bb9d9328c1ec8990d23c8111b3727a04b9ce48c63837f0bae69c267dd80145bebb0e91a6028e3206bc988a049bfd06c68ac6c84084f79845c8da1cf199f24)#4wupjjpq",
            "hex": "4104962bb9d9328c1ec8990d23c8111b3727a04b9ce48c63837f0bae69c267dd80145bebb0e91a6028e3206bc988a049bfd06c68ac6c84084f79845c8da1cf199f24ac",
            "type": "pubkey"
          }
        }
      ],
      "hex": "01000000010000000000000000000000000000000000000000000000000000000000000000ffffffff0804ffff001d02b903ffffffff0100f2052a01000000434104962bb9d9328c1ec8990d23c8111b3727a04b9ce48c63837f0bae69c267dd80145bebb0e91a6028e3206bc988a049bfd06c68ac6c84084f79845c8da1cf199f24ac00000000"
    }
  ]
}