{
  "hash": "00000000b7b927177c9fadc4a393e12a0b05aa71d66cd8db2ade5e86e6e0fc8a",
  "confirmations": 50068,
  "height": 3030,
  "version": 1,
  "versionHex": "00000001",
  "merkleroot": "e6f8873be09fde768e98fd19e1c7b74af8ee1573978ecf4d316e7091eaece3e8",
  "time": 1233782378,
  "mediantime": 1233779690,
  "nonce": 2692363065,
  "bits": "1d00ffff",
  "difficulty": 1,
  "chainwork": "00000000000000000000000000000000000000000000000000000bd70bd70bd7",
  "nTx": 1,
  "previousblockhash": "00000000ebb5c787dc062f35b25915e00b89ee2f499767592828c9fdb11c092e",
  "nextblockhash": "00000000999dc4ea5312d6d9db4613f064706bf51ba542360a164de46fab9c0e",
  "strippedsize": 216,
  "size": 216,
  "weight": 864,
  "tx": [
    {
      "txid": "e6f8873be09fde768e98fd19e1c7b74af8ee1573978ecf4d316e7091eaece3e8",
      "hash": "e6f8873be09fde768e98fd19e1c7b74af8ee1573978ecf4d316e7091eaece3e8",
      "version": 1,
      "size": 135,
      "vsize": 135,
      "weight": 540,
      "locktime": 0,
      "vin": [
        {
          "coinbase": "04ffff001d02d001",
          "sequence": 4294967295
        }
      ],
      "vout": [
        {
          "value": 50.0,
          "n": 0,
          "scriptPubKey": {
            "asm": "04e73602b8337c1bb6b0a80049f485813b9efea2dd378c75bd8e619da4ba5f52c917abab7760b9f6dcd97280bde1867912294bacbff867054aad7cc2829163485d OP_CHECKSIG",
            "desc": "pk(04e73602b8337c1bb6b0a80049f485813b9efea2dd378c75bd8e619da4ba5f52c917abab7760b9f6dcd97280bde1867912294bacbff867054aad7cc2829163485d)#hjy4hn78",
            "hex": "4104e73602b8337c1bb6b0a80049f485813b9efea2dd378c75bd8e619da4ba5f52c917abab7760b9f6dcd97280bde1867912294bacbff867054aad7cc2829163485dac",
            "type": "pubkey"
          }
        }
      ],
      "hex": "01000000010000000000000000000000000000000000000000000000000000000000000000ffffffff0804ffff001d02d001ffffffff0100f2052a01000000434104e73602b8337c1bb6b0a80049f485813b9efea2dd378c75bd8e619da4ba5f52c917abab7760b9f6dcd97280bde1867912294bacbff867054aad7cc2829163485dac00000000"
    }
  ]
}