{
  "hash": "00000000faa0f221e2886a8f0a544b232da1258c208ff422ca7b4ced77cd6109",
  "confirmations": 47781,
  "height": 5317,
  "version": 1,
  "versionHex": "00000001",
  "merkleroot": "7e434eb8d9d9130ca4dc04f5e1aee064579d787078045b3ac9d0c974fc21470c",
  "time": 1235378731,
  "mediantime": 1235373184,
  "nonce": 3401278253,
  "bits": "1d00ffff",
  "difficulty": 1,
  "chainwork": "000000000000000000000000000000000000000000000000000014c614c614c6",
  "nTx": 1,
  "previousblockhash": "00000000337ad9abadea27e4f1a0d2bbc91847a70e67a0aa254fc4b946a9ba32",
  "nextblockhash": "0000000077373914195560aee41f7b290477bd4a6c8641ebf52539478ab31345",
  "strippedsize": 216,
  "size": 216,
  "weight": 864,
  "tx": [
    {
      "txid": "7e434eb8d9d9130ca4dc04f5e1aee064579d787078045b3ac9d0c974fc21470c",
      "hash": "7e434eb8d9d9130ca4dc04f5e1aee064579d787078045b3ac9d0c974fc21470c",
      "version": 1,
      "size": 135,
      "vsize": 135,
      "weight": 540,
      "locktime": 0,
      "vin": [
        {
          "coinbase": "04ffff001d025602",
          "sequence": 4294967295
        }
      ],
      "vout": [
        {
          "value": 50.0,
          "n": 0,
          "scriptPubKey": {
            "asm": "043b98edbe3873af82fdd6a49c9b8e27a8c890620e58a2cb590bbbf388bf2007cc4bddfa06c14f7af2f0292d7aa9d339c88eb0c0c227b9f3c1f111a29a14687bfd OP_CHECKSIG",
            "desc": "pk(043b98edbe3873af82fdd6a49c9b8e27a8c890620e58a2cb590bbbf388bf2007cc4bddfa06c14f7af2f0292d7aa9d339c88eb0c0c227b9f3c1f111a29a14687bfd)#eq0yx4cx",
            "hex": "41043b98edbe3873af82fdd6a49c9b8e27a8c890620e58a2cb590bbbf388bf2007cc4bddfa06c14f7af2f0292d7aa9d339c88eb0c0c227b9f3c1f111a29a14687bfdac",
            "type": "pubkey"
          }
        }
      ],
      "hex": "01000000010000000000000000000000000000000000000000000000000000000000000000ffffffff0804ffff001d025602ffffffff0100f2052a010000004341043b98edbe3873af82fdd6a49c9b8e27a8c890620e58a2cb590bbbf388bf2007cc4bddfa06c14f7af2f0292d7aa9d339c88eb0c0c227b9f3c1f111a29a14687bfdac00000000"
    }
  ]
}