{
  "hash": "00000000bf3fc4c4ab6737df907f613b5aa86373d426b5e86a1009030852f129",
  "confirmations": 51209,
  "height": 1889,
  "version": 1,
  "versionHex": "00000001",
  "merkleroot": "787f140c5a8c93a5ba3878a1fb1fdb048c03e7dbc61bc095781300117e50c80f",
  "time": 1232940382,
  "mediantime": 1232938161,
  "nonce": 1490491442,
  "bits": "1d00ffff",
  "difficulty": 1,
  "chainwork": "0000000000000000000000000000000000000000000000000000076207620762",
  "nTx": 1,
  "previousblockhash": "000000001ee1d3053357a374d6d9746e80d56a666f3827c92e80e0d1b3f2f2a1",
  "nextblockhash": "00000000a8a51545d4f832bdc7d613721795024a022ee5146358045179e1b022",
  "strippedsize": 216,
  "size": 216,
  "weight": 864,
  "tx": [
    {
      "txid": "787f140c5a8c93a5ba3878a1fb1fdb048c03e7dbc61bc095781300117e50c80f",
      "hash": "787f140c5a8c93a5ba3878a1fb1fdb048c03e7dbc61bc095781300117e50c80f",
      "version": 1,
      "size": 135,
      "vsize": 135,
      "weight": 540,
      "locktime": 0,
      "vin": [
        {
          "coinbase": "04ffff001d022005",
          "sequence": 4294967295
        }
      ],
      "vout": [
        {
          "value": 50.0,
          "n": 0,
          "scriptPubKey": {
            "asm": "044689739ea73872a3d056882cef1947f4983f7d255b4afaf1c985f3480acaf955a4cbf8fedf9cfa1d116d53daa2d6ef2b8a087a38f96b2695e903f64039562978 OP_CHECKSIG",
            "desc": "pk(044689739ea73872a3d056882cef1947f4983f7d255b4afaf1c985f3480acaf955a4cbf8fedf9cfa1d116d53daa2d6ef2b8a087a38f96b2695e903f64039562978)#drfn3wd0",
            "hex": "41044689739ea73872a3d056882cef1947f4983f7d255b4afaf1c985f3480acaf955a4cbf8fedf9cfa1d116d53daa2d6ef2b8a087a38f96b2695e903f64039562978ac",
            "type": "pubkey"
          }
        }
      ],
      "hex": "01000000010000000000000000000000000000000000000000000000000000000000000000ffffffff0804ffff001d022005ffffffff0100f2052a010000004341044689739ea73872a3d056882cef1947f4983f7d255b4afaf1c985f3480acaf955a4cbf8fedf9cfa1d116d53daa2d6ef2b8a087a38f96b2695e903f64039562978ac00000000"
    }
  ]
}