{
  "hash": "0000000012edd696c437386ce5b18705914c083f1633720b390f43bf2235c7ff",
  "confirmations": 47628,
  "height": 5470,
  "version": 1,
  "versionHex": "00000001",
  "merkleroot": "7ee7f5e9514d81d68e6dbf91335577425b0b441b1256faa008052fa129dff0e9",
  "time": 1235497396,
  "mediantime": 1235494225,
  "nonce": 2018310433,
  "bits": "1d00ffff",
  "difficulty": 1,
  "chainwork": "0000000000000000000000000000000000000000000000000000155f155f155f",
  "nTx": 1,
  "previousblockhash": "00000000d9c06cf8f96a597f3d9214fabe22a19435b57938a782beba0d450607",
  "nextblockhash": "00000000cd67e465a7dc7d6a61165a5920364fb1b4a4219fe9eb7762852ac2de",
  "strippedsize": 216,
  "size": 216,
  "weight": 864,
  "tx": [
    {
      "txid": "7ee7f5e9514d81d68e6dbf91335577425b0b441b1256faa008052fa129dff0e9",
      "hash": "7ee7f5e9514d81d68e6dbf91335577425b0b441b1256faa008052fa129dff0e9",
      "version": 1,
      "size": 135,
      "vsize": 135,
      "weight": 540,
      "locktime": 0,
      "vin": [
        {
          "coinbase": "04ffff001d020b05",
          "sequence": 4294967295
        }
      ],
      "vout": [
        {
          "value": 50.0,
          "n": 0,
          "scriptPubKey": {
            "asm": "047438e66bfa87b1fe99e1977c363e557dfc52d23729db413ede93a4f377b90d292d1b679607d477e6c339b97d58b01eda35fdecb50c360dd8c7e54a12556b4e86 OP_CHECKSIG",
            "desc": "pk(047438e66bfa87b1fe99e1977c363e557dfc52d23729db413ede93a4f377b90d292d1b679607d477e6c339b97d58b01eda35fdecb50c360dd8c7e54a12556b4e86)#u5nnjes3",
            "hex": "41047438e66bfa87b1fe99e1977c363e557dfc52d23729db413ede93a4f377b90d292d1b679607d477e6c339b97d58b01eda35fdecb50c360dd8c7e54a12556b4e86ac",
            "type": "pubkey"
          }
        }
      ],
      "hex": "01000000010000000000000000000000000000000000000000000000000000000000000000ffffffff0804ffff001d020b05ffffffff0100f2052a010000004341047438e66bfa87b1fe99e1977c363e557dfc52d23729db413ede93a4f377b90d292d1b679607d477e6c339b97d58b01eda35fdecb50c360dd8c7e54a12556b4e86ac00000000"
    }
  ]
}