{
  "hash": "000000001de30cff4e1b00c0343aa622db0b2f5a2f61be7beb70344410d00f74",
  "confirmations": 44933,
  "height": 8165,
  "version": 1,
  "versionHex": "00000001",
  "merkleroot": "46007723a9437b27eff7f431975fb08a645e216bb88dacb99e32f35e94ed00c9",
  "time": 1237583103,
  "mediantime": 1237578402,
  "nonce": 3615992368,
  "bits": "1d00ffff",
  "difficulty": 1,
  "chainwork": "00000000000000000000000000000000000000000000000000001fe61fe61fe6",
  "nTx": 1,
  "previousblockhash": "00000000858da1c33337cb05b63b2f6a1897a32d1e8d71e54e6fba72311510e3",
  "nextblockhash": "00000000ba79f798c4ed1ec3ff1dfa86a70856fa6ab83cb6d67f16e6f9de4e62",
  "strippedsize": 216,
  "size": 216,
  "weight": 864,
  "tx": [
    {
      "txid": "46007723a9437b27eff7f431975fb08a645e216bb88dacb99e32f35e94ed00c9",
      "hash": "46007723a9437b27eff7f431975fb08a645e216bb88dacb99e32f35e94ed00c9",
      "version": 1,
      "size": 135,
      "vsize": 135,
      "weight": 540,
      "locktime": 0,
      "vin": [
        {
          "coinbase": "04ffff001d024f02",
          "sequence": 4294967295
        }
      ],
      "vout": [
        {
          "value": 50.0,
          "n": 0,
          "scriptPubKey": {
            "asm": "04b40683ce92401fbe9c528337eaccda7f7246b947a509f6f0906eb713efa235950ee6535dc840bf6d38d71ae2e1a9a83be9e7b1e0a2b82b53f4e795b600d564c8 OP_CHECKSIG",
            "desc": "pk(04b40683ce92401fbe9c528337eaccda7f7246b947a509f6f0906eb713efa235950ee6535dc840bf6d38d71ae2e1a9a83be9e7b1e0a2b82b53f4e795b600d564c8)#ejmasvsd",
            "hex": "4104b40683ce92401fbe9c528337eaccda7f7246b947a509f6f0906eb713efa235950ee6535dc840bf6d38d71ae2e1a9a83be9e7b1e0a2b82b53f4e795b600d564c8ac",
            "type": "pubkey"
          }
        }
      ],
      "hex": "01000000010000000000000000000000000000000000000000000000000000000000000000ffffffff0804ffff001d024f02ffffffff0100f2052a01000000434104b40683ce92401fbe9c528337eaccda7f7246b947a509f6f0906eb713efa235950ee6535dc840bf6d38d71ae2e1a9a83be9e7b1e0a2b82b53f4e795b600d564c8ac00000000"
    }
  ]
}