{
  "hash": "000000000839b2ed52dcfa5543d9b7d9fadbb68ddfe1c5c73ecdd42044f61e1e",
  "confirmations": 49654,
  "height": 3444,
  "version": 1,
  "versionHex": "00000001",
  "merkleroot": "aeae951d703e642bb21ba563da9a7da880ee00a1b41999a45c5db9928f1cd12b",
  "time": 1234068713,
  "mediantime": 1234065983,
  "nonce": 148270503,
  "bits": "1d00ffff",
  "difficulty": 1,
  "chainwork": "00000000000000000000000000000000000000000000000000000d750d750d75",
  "nTx": 1,
  "previousblockhash": "0000000002d82d3e958363ae29b1a07bf3d8fbc4587540e590e7f15f3edabd81",
  "nextblockhash": "00000000ad18b419feecdcb6e635b4d4fdaeabb54eb461c4c2a581ae01645f3e",
  "strippedsize": 215,
  "size": 215,
  "weight": 860,
  "tx": [
    {
      "txid": "aeae951d703e642bb21ba563da9a7da880ee00a1b41999a45c5db9928f1cd12b",
      "hash": "aeae951d703e642bb21ba563da9a7da880ee00a1b41999a45c5db9928f1cd12b",
      "version": 1,
      "size": 134,
      "vsize": 134,
      "weight": 536,
      "locktime": 0,
      "vin": [
        {
          "coinbase": "04ffff001d0162",
          "sequence": 4294967295
        }
      ],
      "vout": [
        {
          "value": 50.0,
          "n": 0,
          "scriptPubKey": {
            "asm": "04c86aa65b98b11e5d327773337a3b5bfc42ed4171d76cffcd1eb2e40b3895731266a16ece40880c5ad3a6d4771220843dc3a176a215ba162a6cd7b36f947ac71f OP_CHECKSIG",
            "desc": "pk(04c86aa65b98b11e5d327773337a3b5bfc42ed4171d76cffcd1eb2e40b3895731266a16ece40880c5ad3a6d4771220843dc3a176a215ba162a6cd7b36f947ac71f)#vj0xjvke",
            "hex": "4104c86aa65b98b11e5d327773337a3b5bfc42ed4171d76cffcd1eb2e40b3895731266a16ece40880c5ad3a6d4771220843dc3a176a215ba162a6cd7b36f947ac71fac",
            "type": "pubkey"
          }
        }
      ],
      "hex": "01000000010000000000000000000000000000000000000000000000000000000000000000ffffffff0704ffff001d0162ffffffff0100f2052a01000000434104c86aa65b98b11e5d327773337a3b5bfc42ed4171d76cffcd1eb2e40b3895731266a16ece40880c5ad3a6d4771220843dc3a176a215ba162a6cd7b36f947ac71fac00000000"
    }
  ]
}