{
  "hash": "000000009094b2dd03fd9ad6b150b50c571295d45753445076fad28c6cb47ab3",
  "confirmations": 49792,
  "height": 3306,
  "version": 1,
  "versionHex": "00000001",
  "merkleroot": "a192911ea1daa648bb10f5a9c8ecc660b50a07ab6b831b401c1a9684edf29a2e",
  "time": 1233972824,
  "mediantime": 1233970379,
  "nonce": 48294657,
  "bits": "1d00ffff",
  "difficulty": 1,
  "chainwork": "00000000000000000000000000000000000000000000000000000ceb0ceb0ceb",
  "nTx": 1,
  "previousblockhash": "0000000008b139799229859fb817bb24663467d3509916d013dd79574204bbad",
  "nextblockhash": "00000000c544f8738cb24447ecbffd016836f0be6bb9aac17a986099df95ca8a",
  "strippedsize": 216,
  "size": 216,
  "weight": 864,
  "tx": [
    {
      "txid": "a192911ea1daa648bb10f5a9c8ecc660b50a07ab6b831b401c1a9684edf29a2e",
      "hash": "a192911ea1daa648bb10f5a9c8ecc660b50a07ab6b831b401c1a9684edf29a2e",
      "version": 1,
      "size": 135,
      "vsize": 135,
      "weight": 540,
      "locktime": 0,
      "vin": [
        {
          "coinbase": "04ffff001d02b100",
          "sequence": 4294967295
        }
      ],
      "vout": [
        {
          "value": 50.0,
          "n": 0,
          "scriptPubKey": {
            "asm": "0456e05722ba5b1ced7de120b94525661e18c3b6da5c92d618466c8f52b394c680b5d96d715b29dde07d8e5924193b723095f5fc918a362b80084c27aece98a8a0 OP_CHECKSIG",
            "desc": "pk(0456e05722ba5b1ced7de120b94525661e18c3b6da5c92d618466c8f52b394c680b5d96d715b29dde07d8e5924193b723095f5fc918a362b80084c27aece98a8a0)#c2hf2akp",
            "hex": "410456e05722ba5b1ced7de120b94525661e18c3b6da5c92d618466c8f52b394c680b5d96d715b29dde07d8e5924193b723095f5fc918a362b80084c27aece98a8a0ac",
            "type": "pubkey"
          }
        }
      ],
      "hex": "01000000010000000000000000000000000000000000000000000000000000000000000000ffffffff0804ffff001d02b100ffffffff0100f2052a0100000043410456e05722ba5b1ced7de120b94525661e18c3b6da5c92d618466c8f52b394c680b5d96d715b29dde07d8e5924193b723095f5fc918a362b80084c27aece98a8a0ac00000000"
    }
  ]
}