{
  "hash": "00000000b8a3e3ea56754658585a3714cdf761547687159ae4026328cd50f082",
  "confirmations": 46699,
  "height": 6399,
  "version": 1,
  "versionHex": "00000001",
  "merkleroot": "ca40d2f3e8429c3716889d7307ad4ad01c404078cdab2da9eb3c454a2327168c",
  "time": 1236254910,
  "mediantime": 1236251098,
  "nonce": 2658667832,
  "bits": "1d00ffff",
  "difficulty": 1,
  "chainwork": "0000000000000000000000000000000000000000000000000000190019001900",
  "nTx": 1,
  "previousblockhash": "000000006d562551f8040cdd043feed3d6a0147fd6d56147e06bd62c266c80f4",
  "nextblockhash": "00000000584420c089821bdea32f64a73ad055ed814e90972f9108cc295517cf",
  "strippedsize": 216,
  "size": 216,
  "weight": 864,
  "tx": [
    {
      "txid": "ca40d2f3e8429c3716889d7307ad4ad01c404078cdab2da9eb3c454a2327168c",
      "hash": "ca40d2f3e8429c3716889d7307ad4ad01c404078cdab2da9eb3c454a2327168c",
      "version": 1,
      "size": 135,
      "vsize": 135,
      "weight": 540,
      "locktime": 0,
      "vin": [
        {
          "coinbase": "04ffff001d02ce01",
          "sequence": 4294967295
        }
      ],
      "vout": [
        {
          "value": 50.0,
          "n": 0,
          "scriptPubKey": {
            "asm": "043c5a585a7dc5abb158b10843a5b3960dfff7f59f1644316372e4251406a27e1952ec403bdf42e08d0a474d8e4b060cb568321c2b82942a88434e20c66c1824fa OP_CHECKSIG",
            "desc": "pk(043c5a585a7dc5abb158b10843a5b3960dfff7f59f1644316372e4251406a27e1952ec403bdf42e08d0a474d8e4b060cb568321c2b82942a88434e20c66c1824fa)#dc4z0xmm",
            "hex": "41043c5a585a7dc5abb158b10843a5b3960dfff7f59f1644316372e4251406a27e1952ec403bdf42e08d0a474d8e4b060cb568321c2b82942a88434e20c66c1824faac",
            "type": "pubkey"
          }
        }
      ],
      "hex": "01000000010000000000000000000000000000000000000000000000000000000000000000ffffffff0804ffff001d02ce01ffffffff0100f2052a010000004341043c5a585a7dc5abb158b10843a5b3960dfff7f59f1644316372e4251406a27e1952ec403bdf42e08d0a474d8e4b060cb568321c2b82942a88434e20c66c1824faac00000000"
    }
  ]
}