{
  "hash": "00000000eb5d25e4d3dbf0ccb3867c2b34a6e3931d143b7d750503ed506b3832",
  "confirmations": 43993,
  "height": 9105,
  "version": 1,
  "versionHex": "00000001",
  "merkleroot": "9a7afee5fd3d9d3d9cd939f97ee42a230b8dae52f292cf5cc508c91b92ae4089",
  "time": 1238334405,
  "mediantime": 1238329657,
  "nonce": 255045633,
  "bits": "1d00ffff",
  "difficulty": 1,
  "chainwork": "0000000000000000000000000000000000000000000000000000239223922392",
  "nTx": 1,
  "previousblockhash": "00000000348a6c03161a7b7c036f52689d07552bb6dd4c2b3ccf018f2a76627e",
  "nextblockhash": "000000001be17e3d17a0a259fab0a275b1614909e56bcac9719318c300f82d1c",
  "strippedsize": 216,
  "size": 216,
  "weight": 864,
  "tx": [
    {
      "txid": "9a7afee5fd3d9d3d9cd939f97ee42a230b8dae52f292cf5cc508c91b92ae4089",
      "hash": "9a7afee5fd3d9d3d9cd939f97ee42a230b8dae52f292cf5cc508c91b92ae4089",
      "version": 1,
      "size": 135,
      "vsize": 135,
      "weight": 540,
      "locktime": 0,
      "vin": [
        {
          "coinbase": "04ffff001d027208",
          "sequence": 4294967295
        }
      ],
      "vout": [
        {
          "value": 50.0,
          "n": 0,
          "scriptPubKey": {
            "asm": "041c2ad2940be197dec71c500f28582fb8002dd6f3b8abb4f72f0569efaab576cbc2c732354a8afbe4b3e6f7ead8e76d97a12f4a1487453d7c85a9420e15c0453f OP_CHECKSIG",
            "desc": "pk(041c2ad2940be197dec71c500f28582fb8002dd6f3b8abb4f72f0569efaab576cbc2c732354a8afbe4b3e6f7ead8e76d97a12f4a1487453d7c85a9420e15c0453f)#rnyzh4vg",
            "hex": "41041c2ad2940be197dec71c500f28582fb8002dd6f3b8abb4f72f0569efaab576cbc2c732354a8afbe4b3e6f7ead8e76d97a12f4a1487453d7c85a9420e15c0453fac",
            "type": "pubkey"
          }
        }
      ],
      "hex": "01000000010000000000000000000000000000000000000000000000000000000000000000ffffffff0804ffff001d027208ffffffff0100f2052a010000004341041c2ad2940be197dec71c500f28582fb8002dd6f3b8abb4f72f0569efaab576cbc2c732354a8afbe4b3e6f7ead8e76d97a12f4a1487453d7c85a9420e15c0453fac00000000"
    }
  ]
}