{
  "hash": "000000003c8ec78460726c22b802a30ce7a8c0c5030a1dd2f1e39e25a3a015ea",
  "confirmations": 51993,
  "height": 1105,
  "version": 1,
  "versionHex": "00000001",
  "merkleroot": "c32bf61d1f90b6fd11718483b6ead5d079be8db6796ccb3c8d74e764d0b74616",
  "time": 1232427022,
  "mediantime": 1232424389,
  "nonce": 202161741,
  "bits": "1d00ffff",
  "difficulty": 1,
  "chainwork": "0000000000000000000000000000000000000000000000000000045204520452",
  "nTx": 1,
  "previousblockhash": "00000000e6a38b6f334f7c43e4e17dff29226d894be3eff2782f82e73598a0a5",
  "nextblockhash": "00000000dd27a015ea5d0eccb24914b3c49d676344b4dcd992a575ed413d2d60",
  "strippedsize": 216,
  "size": 216,
  "weight": 864,
  "tx": [
    {
      "txid": "c32bf61d1f90b6fd11718483b6ead5d079be8db6796ccb3c8d74e764d0b74616",
      "hash": "c32bf61d1f90b6fd11718483b6ead5d079be8db6796ccb3c8d74e764d0b74616",
      "version": 1,
      "size": 135,
      "vsize": 135,
      "weight": 540,
      "locktime": 0,
      "vin": [
        {
          "coinbase": "04ffff001d02c101",
          "sequence": 4294967295
        }
      ],
      "vout": [
        {
          "value": 50.0,
          "n": 0,
          "scriptPubKey": {
            "asm": "04f1ef86349fbc4b4158b98fb8fb5324fc56b147b5efe2354e06a52bdb269ea35615a8b6d4a521b22e1766719bee8b27865e4e5f3ee126bfefc83232ef871b5707 OP_CHECKSIG",
            "desc": "pk(04f1ef86349fbc4b4158b98fb8fb5324fc56b147b5efe2354e06a52bdb269ea35615a8b6d4a521b22e1766719bee8b27865e4e5f3ee126bfefc83232ef871b5707)#scv09w9z",
            "hex": "4104f1ef86349fbc4b4158b98fb8fb5324fc56b147b5efe2354e06a52bdb269ea35615a8b6d4a521b22e1766719bee8b27865e4e5f3ee126bfefc83232ef871b5707ac",
            "type": "pubkey"
          }
        }
      ],
      "hex": "01000000010000000000000000000000000000000000000000000000000000000000000000ffffffff0804ffff001d02c101ffffffff0100f2052a01000000434104f1ef86349fbc4b4158b98fb8fb5324fc56b147b5efe2354e06a52bdb269ea35615a8b6d4a521b22e1766719bee8b27865e4e5f3ee126bfefc83232ef871b5707ac00000000"
    }
  ]
}