{
  "hash": "00000000a774bf51063dcfef93137cbc8279551be274092b887ff2332bf04d4a",
  "confirmations": 44542,
  "height": 8556,
  "version": 1,
  "versionHex": "00000001",
  "merkleroot": "819aa41ac6aedb1a0ba3413d8ac96f69daeb034257ecc43daf64e8bcd2ed2307",
  "time": 1237917220,
  "mediantime": 1237913235,
  "nonce": 1062871082,
  "bits": "1d00ffff",
  "difficulty": 1,
  "chainwork": "0000000000000000000000000000000000000000000000000000216d216d216d",
  "nTx": 1,
  "previousblockhash": "0000000001cbad170ac4c2ce8484dcf236075fedcce8229627e0f2ea2b4781ff",
  "nextblockhash": "000000001abb7c65800db1b6b3c9db2ae2dde80252ba2010a2736ec649a1d8ba",
  "strippedsize": 216,
  "size": 216,
  "weight": 864,
  "tx": [
    {
      "txid": "819aa41ac6aedb1a0ba3413d8ac96f69daeb034257ecc43daf64e8bcd2ed2307",
      "hash": "819aa41ac6aedb1a0ba3413d8ac96f69daeb034257ecc43daf64e8bcd2ed2307",
      "version": 1,
      "size": 135,
      "vsize": 135,
      "weight": 540,
      "locktime": 0,
      "vin": [
        {
          "coinbase": "04ffff001d02d508",
          "sequence": 4294967295
        }
      ],
      "vout": [
        {
          "value": 50.0,
          "n": 0,
          "scriptPubKey": {
            "asm": "046fb718fc19abebb57a6f71911e1c32ed5818d270bc54e7096f32b40cb44da396ec582d17c5c8d1ba966e33491ba211ca78865e4eacbcea3ed5be4543141377cd OP_CHECKSIG",
            "desc": "pk(046fb718fc19abebb57a6f71911e1c32ed5818d270bc54e7096f32b40cb44da396ec582d17c5c8d1ba966e33491ba211ca78865e4eacbcea3ed5be4543141377cd)#npvwa7aa",
            "hex": "41046fb718fc19abebb57a6f71911e1c32ed5818d270bc54e7096f32b40cb44da396ec582d17c5c8d1ba966e33491ba211ca78865e4eacbcea3ed5be4543141377cdac",
            "type": "pubkey"
          }
        }
      ],
      "hex": "01000000010000000000000000000000000000000000000000000000000000000000000000ffffffff0804ffff001d02d508ffffffff0100f2052a010000004341046fb718fc19abebb57a6f71911e1c32ed5818d270bc54e7096f32b40cb44da396ec582d17c5c8d1ba966e33491ba211ca78865e4eacbcea3ed5be4543141377cdac00000000"
    }
  ]
}