{
  "hash": "00000000a5172c1cbc1879e59d35daffe696d547fbd37345c13ef5407887d3be",
  "confirmations": 48771,
  "height": 4327,
  "version": 1,
  "versionHex": "00000001",
  "merkleroot": "9a0f890b413394240137ec117e660b6238e28cde25b2d75b327e06031614d3c9",
  "time": 1234664098,
  "mediantime": 1234659836,
  "nonce": 169855240,
  "bits": "1d00ffff",
  "difficulty": 1,
  "chainwork": "000000000000000000000000000000000000000000000000000010e810e810e8",
  "nTx": 1,
  "previousblockhash": "0000000095f2f99630d27f46bccbc35344196da56517d512db1095358c851362",
  "nextblockhash": "00000000a273478f4fdaffe595518f22fde6c052021ee0cfc09c205580bbeeae",
  "strippedsize": 215,
  "size": 215,
  "weight": 860,
  "tx": [
    {
      "txid": "9a0f890b413394240137ec117e660b6238e28cde25b2d75b327e06031614d3c9",
      "hash": "9a0f890b413394240137ec117e660b6238e28cde25b2d75b327e06031614d3c9",
      "version": 1,
      "size": 134,
      "vsize": 134,
      "weight": 536,
      "locktime": 0,
      "vin": [
        {
          "coinbase": "04ffff001d0149",
          "sequence": 4294967295
        }
      ],
      "vout": [
        {
          "value": 50.0,
          "n": 0,
          "scriptPubKey": {
            "asm": "04220862fa8fd34b9f86eaf23b2d124d4a34e6649bfcdbbaf5e88dab5111d8acd4d74f102d1629366a44a787cee05dbbd842777dc4731d0f93d9902cff089204a1 OP_CHECKSIG",
            "desc": "pk(04220862fa8fd34b9f86eaf23b2d124d4a34e6649bfcdbbaf5e88dab5111d8acd4d74f102d1629366a44a787cee05dbbd842777dc4731d0f93d9902cff089204a1)#htr7lr9h",
            "hex": "4104220862fa8fd34b9f86eaf23b2d124d4a34e6649bfcdbbaf5e88dab5111d8acd4d74f102d1629366a44a787cee05dbbd842777dc4731d0f93d9902cff089204a1ac",
            "type": "pubkey"
          }
        }
      ],
      "hex": "01000000010000000000000000000000000000000000000000000000000000000000000000ffffffff0704ffff001d0149ffffffff0100f2052a01000000434104220862fa8fd34b9f86eaf23b2d124d4a34e6649bfcdbbaf5e88dab5111d8acd4d74f102d1629366a44a787cee05dbbd842777dc4731d0f93d9902cff089204a1ac00000000"
    }
  ]
}