{
  "hash": "0000000031c2ab2d71221cca7415d2746b101d890616b7da15a8059c7f5b1578",
  "confirmations": 46680,
  "height": 6418,
  "version": 1,
  "versionHex": "00000001",
  "merkleroot": "6324a98ce226e26883f8747d107ce17e27db938359cc3b48c84038a78e6c8e5b",
  "time": 1236269230,
  "mediantime": 1236267026,
  "nonce": 1197098516,
  "bits": "1d00ffff",
  "difficulty": 1,
  "chainwork": "0000000000000000000000000000000000000000000000000000191319131913",
  "nTx": 1,
  "previousblockhash": "000000008a0521aecef14afd335a0a29309d86fbb2eaaef968977e7a962a810e",
  "nextblockhash": "0000000067dfa8751fd11068f79075298820192cf137b6c11891e0178029e022",
  "strippedsize": 216,
  "size": 216,
  "weight": 864,
  "tx": [
    {
      "txid": "6324a98ce226e26883f8747d107ce17e27db938359cc3b48c84038a78e6c8e5b",
      "hash": "6324a98ce226e26883f8747d107ce17e27db938359cc3b48c84038a78e6c8e5b",
      "version": 1,
      "size": 135,
      "vsize": 135,
      "weight": 540,
      "locktime": 0,
      "vin": [
        {
          "coinbase": "04ffff001d022402",
          "sequence": 4294967295
        }
      ],
      "vout": [
        {
          "value": 50.0,
          "n": 0,
          "scriptPubKey": {
            "asm": "048dad3cdd44644cc3d6e16648b90a090f27c595f6fcf57fbbc3177ae37cf00b82db4684afb50a9028373e516c291e89cfe83c9708e73ffd4caea11feefa857403 OP_CHECKSIG",
            "desc": "pk(048dad3cdd44644cc3d6e16648b90a090f27c595f6fcf57fbbc3177ae37cf00b82db4684afb50a9028373e516c291e89cfe83c9708e73ffd4caea11feefa857403)#k3yrm9xs",
            "hex": "41048dad3cdd44644cc3d6e16648b90a090f27c595f6fcf57fbbc3177ae37cf00b82db4684afb50a9028373e516c291e89cfe83c9708e73ffd4caea11feefa857403ac",
            "type": "pubkey"
          }
        }
      ],
      "hex": "01000000010000000000000000000000000000000000000000000000000000000000000000ffffffff0804ffff001d022402ffffffff0100f2052a010000004341048dad3cdd44644cc3d6e16648b90a090f27c595f6fcf57fbbc3177ae37cf00b82db4684afb50a9028373e516c291e89cfe83c9708e73ffd4caea11feefa857403ac00000000"
    }
  ]
}