{
  "hash": "00000000602026e823816d2d09de3dd7b285cb59292edb5f6b3cdc4b5afed989",
  "confirmations": 44105,
  "height": 8993,
  "version": 1,
  "versionHex": "00000001",
  "merkleroot": "7776a8c8878125df06701ab3916abd26b4338c4d794ecf55b76ea74a917d6677",
  "time": 1238247282,
  "mediantime": 1238244866,
  "nonce": 1687109379,
  "bits": "1d00ffff",
  "difficulty": 1,
  "chainwork": "0000000000000000000000000000000000000000000000000000232223222322",
  "nTx": 1,
  "previousblockhash": "00000000aa5d657e89fa1edf8c21247942d4cbb730188db2990c8abba491615c",
  "nextblockhash": "00000000fb00a6ee85e96ed7418fce94d36a4b616914f6e5a1fb80d9ff88b8a9",
  "strippedsize": 216,
  "size": 216,
  "weight": 864,
  "tx": [
    {
      "txid": "7776a8c8878125df06701ab3916abd26b4338c4d794ecf55b76ea74a917d6677",
      "hash": "7776a8c8878125df06701ab3916abd26b4338c4d794ecf55b76ea74a917d6677",
      "version": 1,
      "size": 135,
      "vsize": 135,
      "weight": 540,
      "locktime": 0,
      "vin": [
        {
          "coinbase": "04ffff001d024106",
          "sequence": 4294967295
        }
      ],
      "vout": [
        {
          "value": 50.0,
          "n": 0,
          "scriptPubKey": {
            "asm": "04ee62d14cb34cfdd9fb2022d1d18347bf5150dea464c0ff9b8ca9691e6793efeff402c44cd4360ac5a77659e853f560947820cb074d82cb2f41695f43334477aa OP_CHECKSIG",
            "desc": "pk(04ee62d14cb34cfdd9fb2022d1d18347bf5150dea464c0ff9b8ca9691e6793efeff402c44cd4360ac5a77659e853f560947820cb074d82cb2f41695f43334477aa)#ft5uka53",
            "hex": "4104ee62d14cb34cfdd9fb2022d1d18347bf5150dea464c0ff9b8ca9691e6793efeff402c44cd4360ac5a77659e853f560947820cb074d82cb2f41695f43334477aaac",
            "type": "pubkey"
          }
        }
      ],
      "hex": "01000000010000000000000000000000000000000000000000000000000000000000000000ffffffff0804ffff001d024106ffffffff0100f2052a01000000434104ee62d14cb34cfdd9fb2022d1d18347bf5150dea464c0ff9b8ca9691e6793efeff402c44cd4360ac5a77659e853f560947820cb074d82cb2f41695f43334477aaac00000000"
    }
  ]
}