{
  "hash": "00000000e1e952781d28b03566fbb8cd894cc93d2e55950b827d35b5e136c231",
  "confirmations": 43155,
  "height": 9943,
  "version": 1,
  "versionHex": "00000001",
  "merkleroot": "643532afbc6f8a543abd56a3eec508ba5dce16b3595b4e8f52c2fd24cdafb68d",
  "time": 1238949200,
  "mediantime": 1238946279,
  "nonce": 131537074,
  "bits": "1d00ffff",
  "difficulty": 1,
  "chainwork": "000000000000000000000000000000000000000000000000000026d826d826d8",
  "nTx": 1,
  "previousblockhash": "00000000f51d5e5cffb6b011adcd8bef6cb92edeefe7a1c86c1d791d95d066ba",
  "nextblockhash": "00000000cdddc307896ba07503cfe36bc6c1e5eaa2bed269039a8b90f8a10ca4",
  "strippedsize": 216,
  "size": 216,
  "weight": 864,
  "tx": [
    {
      "txid": "643532afbc6f8a543abd56a3eec508ba5dce16b3595b4e8f52c2fd24cdafb68d",
      "hash": "643532afbc6f8a543abd56a3eec508ba5dce16b3595b4e8f52c2fd24cdafb68d",
      "version": 1,
      "size": 135,
      "vsize": 135,
      "weight": 540,
      "locktime": 0,
      "vin": [
        {
          "coinbase": "04ffff001d02a501",
          "sequence": 4294967295
        }
      ],
      "vout": [
        {
          "value": 50.0,
          "n": 0,
          "scriptPubKey": {
            "asm": "044d7c8c8de97acbd8c3012ec51f1d15b81a7e0b4acf2ad240ecc13fb2aa5d4674a09c8f51eca46ab15f061157f94e42bd1698e1a06a58018221c879a4f07a3417 OP_CHECKSIG",
            "desc": "pk(044d7c8c8de97acbd8c3012ec51f1d15b81a7e0b4acf2ad240ecc13fb2aa5d4674a09c8f51eca46ab15f061157f94e42bd1698e1a06a58018221c879a4f07a3417)#xktukkrv",
            "hex": "41044d7c8c8de97acbd8c3012ec51f1d15b81a7e0b4acf2ad240ecc13fb2aa5d4674a09c8f51eca46ab15f061157f94e42bd1698e1a06a58018221c879a4f07a3417ac",
            "type": "pubkey"
          }
        }
      ],
      "hex": "01000000010000000000000000000000000000000000000000000000000000000000000000ffffffff0804ffff001d02a501ffffffff0100f2052a010000004341044d7c8c8de97acbd8c3012ec51f1d15b81a7e0b4acf2ad240ecc13fb2aa5d4674a09c8f51eca46ab15f061157f94e42bd1698e1a06a58018221c879a4f07a3417ac00000000"
    }
  ]
}