{
  "hash": "000000002d8cad650759e8cabda86e5a6bc824d23c493950f890144672f7ad1c",
  "confirmations": 45416,
  "height": 7682,
  "version": 1,
  "versionHex": "00000001",
  "merkleroot": "3ea9d00897d73255bc2a1dcc01571f2566c832c0269958e3be02345c668f7df7",
  "time": 1237224731,
  "mediantime": 1237221615,
  "nonce": 716613127,
  "bits": "1d00ffff",
  "difficulty": 1,
  "chainwork": "00000000000000000000000000000000000000000000000000001e031e031e03",
  "nTx": 1,
  "previousblockhash": "00000000dba122187e4b66b0ef56e08dfa8b10de1b11f7024d94a83fbd03cb12",
  "nextblockhash": "00000000ac6d253d46fb08d451a714c3356c96bbd64833350dd2d1e4dc5a0cae",
  "strippedsize": 216,
  "size": 216,
  "weight": 864,
  "tx": [
    {
      "txid": "3ea9d00897d73255bc2a1dcc01571f2566c832c0269958e3be02345c668f7df7",
      "hash": "3ea9d00897d73255bc2a1dcc01571f2566c832c0269958e3be02345c668f7df7",
      "version": 1,
      "size": 135,
      "vsize": 135,
      "weight": 540,
      "locktime": 0,
      "vin": [
        {
          "coinbase": "04ffff001d02ce03",
          "sequence": 4294967295
        }
      ],
      "vout": [
        {
          "value": 50.0,
          "n": 0,
          "scriptPubKey": {
            "asm": "044e9d8cbb5f65246e70b58f04a46d33e6a2cf01e7b5e8b658b33ddc1327023b6e592a08078006a65b38b326c1f82efd11a2f7d08a317f4e7d0a289b1657edfd33 OP_CHECKSIG",
            "desc": "pk(044e9d8cbb5f65246e70b58f04a46d33e6a2cf01e7b5e8b658b33ddc1327023b6e592a08078006a65b38b326c1f82efd11a2f7d08a317f4e7d0a289b1657edfd33)#a2k9hqd6",
            "hex": "41044e9d8cbb5f65246e70b58f04a46d33e6a2cf01e7b5e8b658b33ddc1327023b6e592a08078006a65b38b326c1f82efd11a2f7d08a317f4e7d0a289b1657edfd33ac",
            "type": "pubkey"
          }
        }
      ],
      "hex": "01000000010000000000000000000000000000000000000000000000000000000000000000ffffffff0804ffff001d02ce03ffffffff0100f2052a010000004341044e9d8cbb5f65246e70b58f04a46d33e6a2cf01e7b5e8b658b33ddc1327023b6e592a08078006a65b38b326c1f82efd11a2f7d08a317f4e7d0a289b1657edfd33ac00000000"
    }
  ]
}