{
  "hash": "000000008415f9170d9043d9a997502883062a885cb69218f4b64c06d8d4c404",
  "confirmations": 43671,
  "height": 9427,
  "version": 1,
  "versionHex": "00000001",
  "merkleroot": "a87dc81c414d5baad00108911b4a5ae475dad13886756f7245aec426f44d4160",
  "time": 1238573218,
  "mediantime": 1238570028,
  "nonce": 93712636,
  "bits": "1d00ffff",
  "difficulty": 1,
  "chainwork": "000000000000000000000000000000000000000000000000000024d424d424d4",
  "nTx": 1,
  "previousblockhash": "00000000572960eae340d22d2e3a119628896be3e29ab736f55f5f49aae42849",
  "nextblockhash": "000000005815a4f2bbdcc3bdeada4a08fb1c6f3cc48b547eb58b25d7f3c0862e",
  "strippedsize": 216,
  "size": 216,
  "weight": 864,
  "tx": [
    {
      "txid": "a87dc81c414d5baad00108911b4a5ae475dad13886756f7245aec426f44d4160",
      "hash": "a87dc81c414d5baad00108911b4a5ae475dad13886756f7245aec426f44d4160",
      "version": 1,
      "size": 135,
      "vsize": 135,
      "weight": 540,
      "locktime": 0,
      "vin": [
        {
          "coinbase": "04ffff001d028b0f",
          "sequence": 4294967295
        }
      ],
      "vout": [
        {
          "value": 50.0,
          "n": 0,
          "scriptPubKey": {
            "asm": "0408582a9c95117a1352812cb46c8e23841578c6065c970b206c50ec49695859856fcc0ee006718f90e11b797594d5f5f6c8a6124340013242c40e641fbc08e1b8 OP_CHECKSIG",
            "desc": "pk(0408582a9c95117a1352812cb46c8e23841578c6065c970b206c50ec49695859856fcc0ee006718f90e11b797594d5f5f6c8a6124340013242c40e641fbc08e1b8)#svtnwnay",
            "hex": "410408582a9c95117a1352812cb46c8e23841578c6065c970b206c50ec49695859856fcc0ee006718f90e11b797594d5f5f6c8a6124340013242c40e641fbc08e1b8ac",
            "type": "pubkey"
          }
        }
      ],
      "hex": "01000000010000000000000000000000000000000000000000000000000000000000000000ffffffff0804ffff001d028b0fffffffff0100f2052a0100000043410408582a9c95117a1352812cb46c8e23841578c6065c970b206c50ec49695859856fcc0ee006718f90e11b797594d5f5f6c8a6124340013242c40e641fbc08e1b8ac00000000"
    }
  ]
}