{
  "hash": "00000000f84617ccb4e4f069cbcf641f4fbef59b43583bd0021fc85845f7d74e",
  "confirmations": 48080,
  "height": 5018,
  "version": 1,
  "versionHex": "00000001",
  "merkleroot": "d1a04af92d96dc77d65ae2cb87c51734a192ae75c02b2c5e878bf6799138066b",
  "time": 1235148826,
  "mediantime": 1235144741,
  "nonce": 3777767979,
  "bits": "1d00ffff",
  "difficulty": 1,
  "chainwork": "0000000000000000000000000000000000000000000000000000139b139b139b",
  "nTx": 1,
  "previousblockhash": "00000000906ec21d7b5c22f724f955212463b7275ed4f209ca44a6c235854202",
  "nextblockhash": "00000000d1c6dd5c2746b21cc54966eab68a24ffc152ecf53f0bc4bf59da6966",
  "strippedsize": 216,
  "size": 216,
  "weight": 864,
  "tx": [
    {
      "txid": "d1a04af92d96dc77d65ae2cb87c51734a192ae75c02b2c5e878bf6799138066b",
      "hash": "d1a04af92d96dc77d65ae2cb87c51734a192ae75c02b2c5e878bf6799138066b",
      "version": 1,
      "size": 135,
      "vsize": 135,
      "weight": 540,
      "locktime": 0,
      "vin": [
        {
          "coinbase": "04ffff001d023c07",
          "sequence": 4294967295
        }
      ],
      "vout": [
        {
          "value": 50.0,
          "n": 0,
          "scriptPubKey": {
            "asm": "04f9a43712786a98b06d29f9ae3476dd5561db1ffb7399542080b7fb0a3e2c13a4a1640804f57a952e647daff1273ac1f9c48dac4e92acb32be7b97c55721bdbe2 OP_CHECKSIG",
            "desc": "pk(04f9a43712786a98b06d29f9ae3476dd5561db1ffb7399542080b7fb0a3e2c13a4a1640804f57a952e647daff1273ac1f9c48dac4e92acb32be7b97c55721bdbe2)#u6ksm6nh",
            "hex": "4104f9a43712786a98b06d29f9ae3476dd5561db1ffb7399542080b7fb0a3e2c13a4a1640804f57a952e647daff1273ac1f9c48dac4e92acb32be7b97c55721bdbe2ac",
            "type": "pubkey"
          }
        }
      ],
      "hex": "01000000010000000000000000000000000000000000000000000000000000000000000000ffffffff0804ffff001d023c07ffffffff0100f2052a01000000434104f9a43712786a98b06d29f9ae3476dd5561db1ffb7399542080b7fb0a3e2c13a4a1640804f57a952e647daff1273ac1f9c48dac4e92acb32be7b97c55721bdbe2ac00000000"
    }
  ]
}