{
  "hash": "0000000059751467aa018170229ddbaa00e76eb9f18a2e5677d94883cb739d40",
  "confirmations": 47095,
  "height": 6003,
  "version": 1,
  "versionHex": "00000001",
  "merkleroot": "8389eaae9e1e137f97ac2e106a421bff1537bfef7f36c384d94a87050839ed29",
  "time": 1235929212,
  "mediantime": 1235926399,
  "nonce": 80952026,
  "bits": "1d00ffff",
  "difficulty": 1,
  "chainwork": "0000000000000000000000000000000000000000000000000000177417741774",
  "nTx": 1,
  "previousblockhash": "00000000198dcc55f787401f8d0fe034d1bcf67c1132422eeb590db42bf780f5",
  "nextblockhash": "00000000b3ddef529610c784ff3ce6bf39fd322d4f659952843c07262438e34a",
  "strippedsize": 216,
  "size": 216,
  "weight": 864,
  "tx": [
    {
      "txid": "8389eaae9e1e137f97ac2e106a421bff1537bfef7f36c384d94a87050839ed29",
      "hash": "8389eaae9e1e137f97ac2e106a421bff1537bfef7f36c384d94a87050839ed29",
      "version": 1,
      "size": 135,
      "vsize": 135,
      "weight": 540,
      "locktime": 0,
      "vin": [
        {
          "coinbase": "04ffff001d023809",
          "sequence": 4294967295
        }
      ],
      "vout": [
        {
          "value": 50.0,
          "n": 0,
          "scriptPubKey": {
            "asm": "042b1f270a08335c36025f8db47844ee16c75e0a6596ddf48b31178ea2bdf067fbf034815166c816b0002cf7939962ef5adf48efa29e12c2712040e49644229c16 OP_CHECKSIG",
            "desc": "pk(042b1f270a08335c36025f8db47844ee16c75e0a6596ddf48b31178ea2bdf067fbf034815166c816b0002cf7939962ef5adf48efa29e12c2712040e49644229c16)#5kvlsp3x",
            "hex": "41042b1f270a08335c36025f8db47844ee16c75e0a6596ddf48b31178ea2bdf067fbf034815166c816b0002cf7939962ef5adf48efa29e12c2712040e49644229c16ac",
            "type": "pubkey"
          }
        }
      ],
      "hex": "01000000010000000000000000000000000000000000000000000000000000000000000000ffffffff0804ffff001d023809ffffffff0100f2052a010000004341042b1f270a08335c36025f8db47844ee16c75e0a6596ddf48b31178ea2bdf067fbf034815166c816b0002cf7939962ef5adf48efa29e12c2712040e49644229c16ac00000000"
    }
  ]
}