{
  "hash": "000000005e707fcd51e766ce6bd973ff5adbe756d996184f476d1d3760ab4fc8",
  "confirmations": 47419,
  "height": 5679,
  "version": 1,
  "versionHex": "00000001",
  "merkleroot": "34ee243f50546f4efe49af9540152a8f79ebdd5dc05bb5cfcae80a6c373f5ff4",
  "time": 1235673470,
  "mediantime": 1235670492,
  "nonce": 2879048490,
  "bits": "1d00ffff",
  "difficulty": 1,
  "chainwork": "0000000000000000000000000000000000000000000000000000163016301630",
  "nTx": 1,
  "previousblockhash": "000000008715a1aaa2adc6acc0c1ed61c169d92573987f6cd6c8136f06161c8e",
  "nextblockhash": "00000000f10cbb89e740b80162df1f679def8d249371d46e6ddc671b63d360de",
  "strippedsize": 216,
  "size": 216,
  "weight": 864,
  "tx": [
    {
      "txid": "34ee243f50546f4efe49af9540152a8f79ebdd5dc05bb5cfcae80a6c373f5ff4",
      "hash": "34ee243f50546f4efe49af9540152a8f79ebdd5dc05bb5cfcae80a6c373f5ff4",
      "version": 1,
      "size": 135,
      "vsize": 135,
      "weight": 540,
      "locktime": 0,
      "vin": [
        {
          "coinbase": "04ffff001d021b09",
          "sequence": 4294967295
        }
      ],
      "vout": [
        {
          "value": 50.0,
          "n": 0,
          "scriptPubKey": {
            "asm": "04d3a02fa07109937f8253f905a8279ba8008aa31f5e6efdf37ae4274e02a33433633997162a24c13083dd46769f7e1c4c50ce17d146005b251fdf3b43425af307 OP_CHECKSIG",
            "desc": "pk(04d3a02fa07109937f8253f905a8279ba8008aa31f5e6efdf37ae4274e02a33433633997162a24c13083dd46769f7e1c4c50ce17d146005b251fdf3b43425af307)#q2h7p2pq",
            "hex": "4104d3a02fa07109937f8253f905a8279ba8008aa31f5e6efdf37ae4274e02a33433633997162a24c13083dd46769f7e1c4c50ce17d146005b251fdf3b43425af307ac",
            "type": "pubkey"
          }
        }
      ],
      "hex": "01000000010000000000000000000000000000000000000000000000000000000000000000ffffffff0804ffff001d021b09ffffffff0100f2052a01000000434104d3a02fa07109937f8253f905a8279ba8008aa31f5e6efdf37ae4274e02a33433633997162a24c13083dd46769f7e1c4c50ce17d146005b251fdf3b43425af307ac00000000"
    }
  ]
}