{
  "hash": "000000008df9aba1fa38aa5f0e6de72505e3eedc41e64eb3f3bbeebbdb298122",
  "confirmations": 45706,
  "height": 7392,
  "version": 1,
  "versionHex": "00000001",
  "merkleroot": "211ddb014a2afc7635ebefb82bef42b66e8249dfea4851a8ebb5f1e0b209da81",
  "time": 1237016632,
  "mediantime": 1237011107,
  "nonce": 3399404083,
  "bits": "1d00ffff",
  "difficulty": 1,
  "chainwork": "00000000000000000000000000000000000000000000000000001ce11ce11ce1",
  "nTx": 1,
  "previousblockhash": "0000000054be77b2e8577df495a6ae01bff8b28ceacf7703296dd59816f10805",
  "nextblockhash": "00000000757a306d33e554ced26a05c31c7c9e845dda17c4d316160e29a86fa3",
  "strippedsize": 216,
  "size": 216,
  "weight": 864,
  "tx": [
    {
      "txid": "211ddb014a2afc7635ebefb82bef42b66e8249dfea4851a8ebb5f1e0b209da81",
      "hash": "211ddb014a2afc7635ebefb82bef42b66e8249dfea4851a8ebb5f1e0b209da81",
      "version": 1,
      "size": 135,
      "vsize": 135,
      "weight": 540,
      "locktime": 0,
      "vin": [
        {
          "coinbase": "04ffff001d023009",
          "sequence": 4294967295
        }
      ],
      "vout": [
        {
          "value": 50.0,
          "n": 0,
          "scriptPubKey": {
            "asm": "04404de2ee8c1f741fa52da86598dad2a36d88f864123173cef4d8ac396bda1cd5f8f691482c2de170dea349cafb94e3f8d8ed4d2c2cce6c5ad1f02f5ed481770e OP_CHECKSIG",
            "desc": "pk(04404de2ee8c1f741fa52da86598dad2a36d88f864123173cef4d8ac396bda1cd5f8f691482c2de170dea349cafb94e3f8d8ed4d2c2cce6c5ad1f02f5ed481770e)#cxnq4tyk",
            "hex": "4104404de2ee8c1f741fa52da86598dad2a36d88f864123173cef4d8ac396bda1cd5f8f691482c2de170dea349cafb94e3f8d8ed4d2c2cce6c5ad1f02f5ed481770eac",
            "type": "pubkey"
          }
        }
      ],
      "hex": "01000000010000000000000000000000000000000000000000000000000000000000000000ffffffff0804ffff001d023009ffffffff0100f2052a01000000434104404de2ee8c1f741fa52da86598dad2a36d88f864123173cef4d8ac396bda1cd5f8f691482c2de170dea349cafb94e3f8d8ed4d2c2cce6c5ad1f02f5ed481770eac00000000"
    }
  ]
}