{
  "hash": "000000008d3b06397627839cb42386e01e1e097432a9c5393170c4b6ce909372",
  "confirmations": 52187,
  "height": 476,
  "version": 1,
  "versionHex": "00000001",
  "merkleroot": "dd98d02d478e3489fc0e0b48b879239768da395fa015e382ccf71ac821b15a6d",
  "time": 1231952108,
  "mediantime": 1231949596,
  "nonce": 2744224261,
  "bits": "1d00ffff",
  "difficulty": 1,
  "chainwork": "000000000000000000000000000000000000000000000000000001dd01dd01dd",
  "nTx": 1,
  "previousblockhash": "00000000db64cbf7545cc66bc9a9eeb6f5ab53f843144be6f1932ac36fd72c04",
  "nextblockhash": "00000000e15bee1a653b171741fdd792b4936a22990c7a08764349f06239001e",
  "strippedsize": 216,
  "size": 216,
  "weight": 864,
  "tx": [
    {
      "txid": "dd98d02d478e3489fc0e0b48b879239768da395fa015e382ccf71ac821b15a6d",
      "hash": "dd98d02d478e3489fc0e0b48b879239768da395fa015e382ccf71ac821b15a6d",
      "version": 1,
      "size": 135,
      "vsize": 135,
      "weight": 540,
      "locktime": 0,
      "vin": [
        {
          "coinbase": "04ffff001d020f04",
          "sequence": 4294967295
        }
      ],
      "vout": [
        {
          "value": 50.0,
          "n": 0,
          "scriptPubKey": {
            "asm": "04d8d243b14ea8b2e7c9d2f4ad9ba2ef5ac0ffc27e6eae2e2f363047b02c2f33ccb1088f07700a6cd99f4e4e57418eba0ba6b188833dda28ab7e1e65e1b9abd393 OP_CHECKSIG",
            "desc": "pk(04d8d243b14ea8b2e7c9d2f4ad9ba2ef5ac0ffc27e6eae2e2f363047b02c2f33ccb1088f07700a6cd99f4e4e57418eba0ba6b188833dda28ab7e1e65e1b9abd393)#kpcgw4pd",
            "hex": "4104d8d243b14ea8b2e7c9d2f4ad9ba2ef5ac0ffc27e6eae2e2f363047b02c2f33ccb1088f07700a6cd99f4e4e57418eba0ba6b188833dda28ab7e1e65e1b9abd393ac",
            "type": "pubkey"
          }
        }
      ],
      "hex": "01000000010000000000000000000000000000000000000000000000000000000000000000ffffffff0804ffff001d020f04ffffffff0100f2052a01000000434104d8d243b14ea8b2e7c9d2f4ad9ba2ef5ac0ffc27e6eae2e2f363047b02c2f33ccb1088f07700a6cd99f4e4e57418eba0ba6b188833dda28ab7e1e65e1b9abd393ac00000000"
    }
  ]
}