{
  "hash": "000000001af2bc6ce395f9495ed79306719e34467152479862ecaed4de7fd1b3",
  "confirmations": 44798,
  "height": 8300,
  "version": 1,
  "versionHex": "00000001",
  "merkleroot": "cfdedbf64cd6a40ca8691d2972e365ebe5dbc550bcefcf885d9af2ed377effcd",
  "time": 1237730069,
  "mediantime": 1237727257,
  "nonce": 2275079480,
  "bits": "1d00ffff",
  "difficulty": 1,
  "chainwork": "0000000000000000000000000000000000000000000000000000206d206d206d",
  "nTx": 1,
  "previousblockhash": "00000000cd55b40c62d50782b3c8c6521463499d8a4cfdf301dd19895594e071",
  "nextblockhash": "000000001751d9f38fef72a0202ff032d3e9c808d5fb3950fffdc8a83a759977",
  "strippedsize": 216,
  "size": 216,
  "weight": 864,
  "tx": [
    {
      "txid": "cfdedbf64cd6a40ca8691d2972e365ebe5dbc550bcefcf885d9af2ed377effcd",
      "hash": "cfdedbf64cd6a40ca8691d2972e365ebe5dbc550bcefcf885d9af2ed377effcd",
      "version": 1,
      "size": 135,
      "vsize": 135,
      "weight": 540,
      "locktime": 0,
      "vin": [
        {
          "coinbase": "04ffff001d022704",
          "sequence": 4294967295
        }
      ],
      "vout": [
        {
          "value": 50.0,
          "n": 0,
          "scriptPubKey": {
            "asm": "04694d836009ff760472f58321793fb3a5d20ab12773d16b98f328df2e96b5568d5c87793ae7ee72afb47bda303c104365278c5cf46e91e1258d7be28d01fc9f1f OP_CHECKSIG",
            "desc": "pk(04694d836009ff760472f58321793fb3a5d20ab12773d16b98f328df2e96b5568d5c87793ae7ee72afb47bda303c104365278c5cf46e91e1258d7be28d01fc9f1f)#zy23clux",
            "hex": "4104694d836009ff760472f58321793fb3a5d20ab12773d16b98f328df2e96b5568d5c87793ae7ee72afb47bda303c104365278c5cf46e91e1258d7be28d01fc9f1fac",
            "type": "pubkey"
          }
        }
      ],
      "hex": "01000000010000000000000000000000000000000000000000000000000000000000000000ffffffff0804ffff001d022704ffffffff0100f2052a01000000434104694d836009ff760472f58321793fb3a5d20ab12773d16b98f328df2e96b5568d5c87793ae7ee72afb47bda303c104365278c5cf46e91e1258d7be28d01fc9f1fac00000000"
    }
  ]
}