{
  "hash": "000000007c111c0372aeefa57a2dae1bcd9fa43879bd3e02b676e00b3a939ec2",
  "confirmations": 45455,
  "height": 7643,
  "version": 1,
  "versionHex": "00000001",
  "merkleroot": "251d960b1d582bebcf4f595f27e5c46f785a344bd922a9e1eba2669d0b851f18",
  "time": 1237198087,
  "mediantime": 1237193995,
  "nonce": 105096358,
  "bits": "1d00ffff",
  "difficulty": 1,
  "chainwork": "00000000000000000000000000000000000000000000000000001ddc1ddc1ddc",
  "nTx": 1,
  "previousblockhash": "0000000010b23315ac37b91735230922cee46eb802320c87e508cbc89e89644a",
  "nextblockhash": "00000000e8b0041987d2838f34ff84024e9c673455837216a53ed92209916e9c",
  "strippedsize": 216,
  "size": 216,
  "weight": 864,
  "tx": [
    {
      "txid": "251d960b1d582bebcf4f595f27e5c46f785a344bd922a9e1eba2669d0b851f18",
      "hash": "251d960b1d582bebcf4f595f27e5c46f785a344bd922a9e1eba2669d0b851f18",
      "version": 1,
      "size": 135,
      "vsize": 135,
      "weight": 540,
      "locktime": 0,
      "vin": [
        {
          "coinbase": "04ffff001d028b08",
          "sequence": 4294967295
        }
      ],
      "vout": [
        {
          "value": 50.0,
          "n": 0,
          "scriptPubKey": {
            "asm": "04f4e78aeb4d14235cce47ebaa8c72d0c58cdb675beff3a2ee0554f3fd2f9c06cefc231bec85d74d562bee78dc12d9519526b8f8402f50654838346773bd424ca5 OP_CHECKSIG",
            "desc": "pk(04f4e78aeb4d14235cce47ebaa8c72d0c58cdb675beff3a2ee0554f3fd2f9c06cefc231bec85d74d562bee78dc12d9519526b8f8402f50654838346773bd424ca5)#5ehpfgxs",
            "hex": "4104f4e78aeb4d14235cce47ebaa8c72d0c58cdb675beff3a2ee0554f3fd2f9c06cefc231bec85d74d562bee78dc12d9519526b8f8402f50654838346773bd424ca5ac",
            "type": "pubkey"
          }
        }
      ],
      "hex": "01000000010000000000000000000000000000000000000000000000000000000000000000ffffffff0804ffff001d028b08ffffffff0100f2052a01000000434104f4e78aeb4d14235cce47ebaa8c72d0c58cdb675beff3a2ee0554f3fd2f9c06cefc231bec85d74d562bee78dc12d9519526b8f8402f50654838346773bd424ca5ac00000000"
    }
  ]
}