{
  "hash": "00000000539b4dbc93a3a54577cc0745e8b691b18875b40283e1f44fe9bb833e",
  "confirmations": 43868,
  "height": 9230,
  "version": 1,
  "versionHex": "00000001",
  "merkleroot": "8fe04822ee8ac2d6a71220d40727b59c572b2a3d51b34500411c66f500e5982c",
  "time": 1238420478,
  "mediantime": 1238417721,
  "nonce": 48216382,
  "bits": "1d00ffff",
  "difficulty": 1,
  "chainwork": "0000000000000000000000000000000000000000000000000000240f240f240f",
  "nTx": 1,
  "previousblockhash": "00000000bd25f62a827acd2c93c872ba704c20c5c0b9dc3b5033848934eae810",
  "nextblockhash": "00000000363a7cce4960510203e132500997d956fe1b86af154a168d869a1022",
  "strippedsize": 215,
  "size": 215,
  "weight": 860,
  "tx": [
    {
      "txid": "8fe04822ee8ac2d6a71220d40727b59c572b2a3d51b34500411c66f500e5982c",
      "hash": "8fe04822ee8ac2d6a71220d40727b59c572b2a3d51b34500411c66f500e5982c",
      "version": 1,
      "size": 134,
      "vsize": 134,
      "weight": 536,
      "locktime": 0,
      "vin": [
        {
          "coinbase": "04ffff001d012b",
          "sequence": 4294967295
        }
      ],
      "vout": [
        {
          "value": 50.0,
          "n": 0,
          "scriptPubKey": {
            "asm": "04d452d695a06c54c6bf61bebe30bf35b66718d3399abfe73ef693986e9f4afc18fe0a941bb3673dde79b206772cf4365824eb88f8dadf9c65ed74517ee7f0c826 OP_CHECKSIG",
            "desc": "pk(04d452d695a06c54c6bf61bebe30bf35b66718d3399abfe73ef693986e9f4afc18fe0a941bb3673dde79b206772cf4365824eb88f8dadf9c65ed74517ee7f0c826)#qt8j4gl7",
            "hex": "4104d452d695a06c54c6bf61bebe30bf35b66718d3399abfe73ef693986e9f4afc18fe0a941bb3673dde79b206772cf4365824eb88f8dadf9c65ed74517ee7f0c826ac",
            "type": "pubkey"
          }
        }
      ],
      "hex": "01000000010000000000000000000000000000000000000000000000000000000000000000ffffffff0704ffff001d012bffffffff0100f2052a01000000434104d452d695a06c54c6bf61bebe30bf35b66718d3399abfe73ef693986e9f4afc18fe0a941bb3673dde79b206772cf4365824eb88f8dadf9c65ed74517ee7f0c826ac00000000"
    }
  ]
}