{
  "hash": "000000007235eda3143cf68087b0056ff54f274afa7495a19ad8c2d75e814a2d",
  "confirmations": 50477,
  "height": 2621,
  "version": 1,
  "versionHex": "00000001",
  "merkleroot": "12745c30d634df6e42cf5aa2485bd53e16891bb945ebdbb6af7b34e0b1aa5c92",
  "time": 1233508607,
  "mediantime": 1233505512,
  "nonce": 20025031,
  "bits": "1d00ffff",
  "difficulty": 1,
  "chainwork": "00000000000000000000000000000000000000000000000000000a3e0a3e0a3e",
  "nTx": 1,
  "previousblockhash": "000000000f39c341df325173430f32af8912a446b53dbbc9d1e2a93d860aa773",
  "nextblockhash": "00000000ca2784989c64db4c1a5dc9d51facd4ad5c146c497e7e2f76413d8b86",
  "strippedsize": 216,
  "size": 216,
  "weight": 864,
  "tx": [
    {
      "txid": "12745c30d634df6e42cf5aa2485bd53e16891bb945ebdbb6af7b34e0b1aa5c92",
      "hash": "12745c30d634df6e42cf5aa2485bd53e16891bb945ebdbb6af7b34e0b1aa5c92",
      "version": 1,
      "size": 135,
      "vsize": 135,
      "weight": 540,
      "locktime": 0,
      "vin": [
        {
          "coinbase": "04ffff001d02ac05",
          "sequence": 4294967295
        }
      ],
      "vout": [
        {
          "value": 50.0,
          "n": 0,
          "scriptPubKey": {
            "asm": "0497044ce8086ae72fe78c642b05de50f377e1ac3839ded8c1d70850e7a2af709f717b6a7a94723ac38f3ea148db7b9c3e224551e702395a40d3c134c8f1f793ee OP_CHECKSIG",
            "desc": "pk(0497044ce8086ae72fe78c642b05de50f377e1ac3839ded8c1d70850e7a2af709f717b6a7a94723ac38f3ea148db7b9c3e224551e702395a40d3c134c8f1f793ee)#8w5zhym2",
            "hex": "410497044ce8086ae72fe78c642b05de50f377e1ac3839ded8c1d70850e7a2af709f717b6a7a94723ac38f3ea148db7b9c3e224551e702395a40d3c134c8f1f793eeac",
            "type": "pubkey"
          }
        }
      ],
      "hex": "01000000010000000000000000000000000000000000000000000000000000000000000000ffffffff0804ffff001d02ac05ffffffff0100f2052a0100000043410497044ce8086ae72fe78c642b05de50f377e1ac3839ded8c1d70850e7a2af709f717b6a7a94723ac38f3ea148db7b9c3e224551e702395a40d3c134c8f1f793eeac00000000"
    }
  ]
}