{
  "hash": "00000000dca66cfc107a2c59b9f5d9b3708450cf1e2789bedfd92e19cbb2e8b5",
  "confirmations": 50055,
  "height": 3043,
  "version": 1,
  "versionHex": "00000001",
  "merkleroot": "18c3df35edb76ba08ffe34b0b60fd9e9fa49aebd41081434ba2ca4d0dd8c59e5",
  "time": 1233792501,
  "mediantime": 1233787449,
  "nonce": 949646344,
  "bits": "1d00ffff",
  "difficulty": 1,
  "chainwork": "00000000000000000000000000000000000000000000000000000be40be40be4",
  "nTx": 1,
  "previousblockhash": "00000000c1122aa69bb3d2651513e9629ca86b9e22691ac50a2ac838353c34a0",
  "nextblockhash": "000000008ff7dcd02bd4a92a9047ddb42e2d4c0807d972803729316e20c9ccec",
  "strippedsize": 215,
  "size": 215,
  "weight": 860,
  "tx": [
    {
      "txid": "18c3df35edb76ba08ffe34b0b60fd9e9fa49aebd41081434ba2ca4d0dd8c59e5",
      "hash": "18c3df35edb76ba08ffe34b0b60fd9e9fa49aebd41081434ba2ca4d0dd8c59e5",
      "version": 1,
      "size": 134,
      "vsize": 134,
      "weight": 536,
      "locktime": 0,
      "vin": [
        {
          "coinbase": "04ffff001d011b",
          "sequence": 4294967295
        }
      ],
      "vout": [
        {
          "value": 50.0,
          "n": 0,
          "scriptPubKey": {
            "asm": "04a219afccfbb6419499b0248fa4e0925852edd4fb625769b2f67c1f86103274e716de24beee5a6e866ef9dae8ad7b298932c231daf27ac459cbeaeac1287030d9 OP_CHECKSIG",
            "desc": "pk(04a219afccfbb6419499b0248fa4e0925852edd4fb625769b2f67c1f86103274e716de24beee5a6e866ef9dae8ad7b298932c231daf27ac459cbeaeac1287030d9)#nu3pv7pn",
            "hex": "4104a219afccfbb6419499b0248fa4e0925852edd4fb625769b2f67c1f86103274e716de24beee5a6e866ef9dae8ad7b298932c231daf27ac459cbeaeac1287030d9ac",
            "type": "pubkey"
          }
        }
      ],
      "hex": "01000000010000000000000000000000000000000000000000000000000000000000000000ffffffff0704ffff001d011bffffffff0100f2052a01000000434104a219afccfbb6419499b0248fa4e0925852edd4fb625769b2f67c1f86103274e716de24beee5a6e866ef9dae8ad7b298932c231daf27ac459cbeaeac1287030d9ac00000000"
    }
  ]
}