{
  "hash": "00000000c949a1cd4ef194f11ec32fc5f5166a94038b9c85598cbb94e9adc0d7",
  "confirmations": 43439,
  "height": 9659,
  "version": 1,
  "versionHex": "00000001",
  "merkleroot": "02fc577673c8e548565456cc0f51dbddafcb70bc985788c3e747cad6438e8107",
  "time": 1238746054,
  "mediantime": 1238744700,
  "nonce": 36272957,
  "bits": "1d00ffff",
  "difficulty": 1,
  "chainwork": "000000000000000000000000000000000000000000000000000025bc25bc25bc",
  "nTx": 1,
  "previousblockhash": "00000000fd2c5d1d81693ff9c30987f42c4b4d9e62de13009075c11f05b6bdb9",
  "nextblockhash": "00000000d2600ad05e61ac036ce2260fc6ffc3fdd1180fcb1dc46a23c3f05eee",
  "strippedsize": 215,
  "size": 215,
  "weight": 860,
  "tx": [
    {
      "txid": "02fc577673c8e548565456cc0f51dbddafcb70bc985788c3e747cad6438e8107",
      "hash": "02fc577673c8e548565456cc0f51dbddafcb70bc985788c3e747cad6438e8107",
      "version": 1,
      "size": 134,
      "vsize": 134,
      "weight": 536,
      "locktime": 0,
      "vin": [
        {
          "coinbase": "04ffff001d012d",
          "sequence": 4294967295
        }
      ],
      "vout": [
        {
          "value": 50.0,
          "n": 0,
          "scriptPubKey": {
            "asm": "047b037ec86586fcae8075ba60a22a08f78f2df05914d75b08d2ccac5b3a560ab07da6d994e3b7a0ce441eb1d359f39a3727c80424f497fd04e497de75c2b78fc6 OP_CHECKSIG",
            "desc": "pk(047b037ec86586fcae8075ba60a22a08f78f2df05914d75b08d2ccac5b3a560ab07da6d994e3b7a0ce441eb1d359f39a3727c80424f497fd04e497de75c2b78fc6)#edfllhcp",
            "hex": "41047b037ec86586fcae8075ba60a22a08f78f2df05914d75b08d2ccac5b3a560ab07da6d994e3b7a0ce441eb1d359f39a3727c80424f497fd04e497de75c2b78fc6ac",
            "type": "pubkey"
          }
        }
      ],
      "hex": "01000000010000000000000000000000000000000000000000000000000000000000000000ffffffff0704ffff001d012dffffffff0100f2052a010000004341047b037ec86586fcae8075ba60a22a08f78f2df05914d75b08d2ccac5b3a560ab07da6d994e3b7a0ce441eb1d359f39a3727c80424f497fd04e497de75c2b78fc6ac00000000"
    }
  ]
}