{
  "hash": "000000001bbde9ca358ef26004688ddf7f6bedba1869ebf2482831b6d1376be4",
  "confirmations": 46097,
  "height": 7001,
  "version": 1,
  "versionHex": "00000001",
  "merkleroot": "eeea9761b908ca75ee2a0b4d8154d5070cd0dc0c9e883aa0de94fbc657fd0717",
  "time": 1236718823,
  "mediantime": 1236715636,
  "nonce": 1762082586,
  "bits": "1d00ffff",
  "difficulty": 1,
  "chainwork": "00000000000000000000000000000000000000000000000000001b5a1b5a1b5a",
  "nTx": 1,
  "previousblockhash": "00000000febe750c27cd55f8bead2b0d4faf33ba961f9e3c0314791ab90ade55",
  "nextblockhash": "000000003c33351232ed433627d1cbc8b8ead2dd39a110305573bb7b8034432f",
  "strippedsize": 216,
  "size": 216,
  "weight": 864,
  "tx": [
    {
      "txid": "eeea9761b908ca75ee2a0b4d8154d5070cd0dc0c9e883aa0de94fbc657fd0717",
      "hash": "eeea9761b908ca75ee2a0b4d8154d5070cd0dc0c9e883aa0de94fbc657fd0717",
      "version": 1,
      "size": 135,
      "vsize": 135,
      "weight": 540,
      "locktime": 0,
      "vin": [
        {
          "coinbase": "04ffff001d024402",
          "sequence": 4294967295
        }
      ],
      "vout": [
        {
          "value": 50.0,
          "n": 0,
          "scriptPubKey": {
            "asm": "04e683571c120de5b9f4a41a21b2f17e408256baa2b8fe35c96a45aa628b867cd4c8584ea707cb63061a11c289ea364ba1b4df20c306cfdda534ece7b85b7e1e19 OP_CHECKSIG",
            "desc": "pk(04e683571c120de5b9f4a41a21b2f17e408256baa2b8fe35c96a45aa628b867cd4c8584ea707cb63061a11c289ea364ba1b4df20c306cfdda534ece7b85b7e1e19)#8u8lzcng",
            "hex": "4104e683571c120de5b9f4a41a21b2f17e408256baa2b8fe35c96a45aa628b867cd4c8584ea707cb63061a11c289ea364ba1b4df20c306cfdda534ece7b85b7e1e19ac",
            "type": "pubkey"
          }
        }
      ],
      "hex": "01000000010000000000000000000000000000000000000000000000000000000000000000ffffffff0804ffff001d024402ffffffff0100f2052a01000000434104e683571c120de5b9f4a41a21b2f17e408256baa2b8fe35c96a45aa628b867cd4c8584ea707cb63061a11c289ea364ba1b4df20c306cfdda534ece7b85b7e1e19ac00000000"
    }
  ]
}