{
  "hash": "00000000d49b4ca9755293ff435ec57a308b605ef88f01a78300bea433756a45",
  "confirmations": 43537,
  "height": 9561,
  "version": 1,
  "versionHex": "00000001",
  "merkleroot": "73b4eae16790ec44d86eadbd9a8c640f74b5a1a4075895426bba3b80af7a81de",
  "time": 1238670713,
  "mediantime": 1238666724,
  "nonce": 1111506474,
  "bits": "1d00ffff",
  "difficulty": 1,
  "chainwork": "0000000000000000000000000000000000000000000000000000255a255a255a",
  "nTx": 1,
  "previousblockhash": "00000000bcc7bc36c3f52bf8dac1ec6c8e3be24321d23761f0b9d93a22cc30d0",
  "nextblockhash": "00000000c62e465146babdfbab8e1538e19999e47809aa8d455952beb5e993c1",
  "strippedsize": 216,
  "size": 216,
  "weight": 864,
  "tx": [
    {
      "txid": "73b4eae16790ec44d86eadbd9a8c640f74b5a1a4075895426bba3b80af7a81de",
      "hash": "73b4eae16790ec44d86eadbd9a8c640f74b5a1a4075895426bba3b80af7a81de",
      "version": 1,
      "size": 135,
      "vsize": 135,
      "weight": 540,
      "locktime": 0,
      "vin": [
        {
          "coinbase": "04ffff001d024906",
          "sequence": 4294967295
        }
      ],
      "vout": [
        {
          "value": 50.0,
          "n": 0,
          "scriptPubKey": {
            "asm": "0460fba0ae7a7ba2818ca264b6f93e88a8a24c025e2f426bb84e4ab04d5e5ca21280aaa0b2009ba4968886b21c1cc5c645b689e2574f558086e1eae0f32b47ec18 OP_CHECKSIG",
            "desc": "pk(0460fba0ae7a7ba2818ca264b6f93e88a8a24c025e2f426bb84e4ab04d5e5ca21280aaa0b2009ba4968886b21c1cc5c645b689e2574f558086e1eae0f32b47ec18)#cudq4vjd",
            "hex": "410460fba0ae7a7ba2818ca264b6f93e88a8a24c025e2f426bb84e4ab04d5e5ca21280aaa0b2009ba4968886b21c1cc5c645b689e2574f558086e1eae0f32b47ec18ac",
            "type": "pubkey"
          }
        }
      ],
      "hex": "01000000010000000000000000000000000000000000000000000000000000000000000000ffffffff0804ffff001d024906ffffffff0100f2052a0100000043410460fba0ae7a7ba2818ca264b6f93e88a8a24c025e2f426bb84e4ab04d5e5ca21280aaa0b2009ba4968886b21c1cc5c645b689e2574f558086e1eae0f32b47ec18ac00000000"
    }
  ]
}