{
  "hash": "000000000ae28c49008f79314d623311e6838cc8e3c43cb40f121de5be64709f",
  "confirmations": 45391,
  "height": 7707,
  "version": 1,
  "versionHex": "00000001",
  "merkleroot": "3340a5260529bf826d013281176e1ef09ab25bf63becaa22faf3b04018b9a4a0",
  "time": 1237243347,
  "mediantime": 1237240784,
  "nonce": 50950203,
  "bits": "1d00ffff",
  "difficulty": 1,
  "chainwork": "00000000000000000000000000000000000000000000000000001e1c1e1c1e1c",
  "nTx": 1,
  "previousblockhash": "00000000cab8ba72a5d415dd48bcb03ce10497ed82e16d628e5101c1dc0c0994",
  "nextblockhash": "000000002b51d6496448233dd393758ea1cbc22a10befeb9a0fe569973b29fbc",
  "strippedsize": 216,
  "size": 216,
  "weight": 864,
  "tx": [
    {
      "txid": "3340a5260529bf826d013281176e1ef09ab25bf63becaa22faf3b04018b9a4a0",
      "hash": "3340a5260529bf826d013281176e1ef09ab25bf63becaa22faf3b04018b9a4a0",
      "version": 1,
      "size": 135,
      "vsize": 135,
      "weight": 540,
      "locktime": 0,
      "vin": [
        {
          "coinbase": "04ffff001d02ba03",
          "sequence": 4294967295
        }
      ],
      "vout": [
        {
          "value": 50.0,
          "n": 0,
          "scriptPubKey": {
            "asm": "047f2f0aac0259d76b7fc87a1e6ed6cd6a249ea84bf76769b343fc6776e4c4e589e9c5d76d9f9f67c04f6720682cc8b31da1a79c933a797142dc92d74d425c622b OP_CHECKSIG",
            "desc": "pk(047f2f0aac0259d76b7fc87a1e6ed6cd6a249ea84bf76769b343fc6776e4c4e589e9c5d76d9f9f67c04f6720682cc8b31da1a79c933a797142dc92d74d425c622b)#y8rt9t3d",
            "hex": "41047f2f0aac0259d76b7fc87a1e6ed6cd6a249ea84bf76769b343fc6776e4c4e589e9c5d76d9f9f67c04f6720682cc8b31da1a79c933a797142dc92d74d425c622bac",
            "type": "pubkey"
          }
        }
      ],
      "hex": "01000000010000000000000000000000000000000000000000000000000000000000000000ffffffff0804ffff001d02ba03ffffffff0100f2052a010000004341047f2f0aac0259d76b7fc87a1e6ed6cd6a249ea84bf76769b343fc6776e4c4e589e9c5d76d9f9f67c04f6720682cc8b31da1a79c933a797142dc92d74d425c622bac00000000"
    }
  ]
}