{
  "hash": "00000000e04d4895a162fba0fb5fa7199830b698fd164a5cef2b411ea0547d97",
  "confirmations": 49581,
  "height": 3517,
  "version": 1,
  "versionHex": "00000001",
  "merkleroot": "70810d956108398feed4bae952ff63015e13e7b7097a53c6419e60a6d2cf21a7",
  "time": 1234113634,
  "mediantime": 1234110185,
  "nonce": 3603269889,
  "bits": "1d00ffff",
  "difficulty": 1,
  "chainwork": "00000000000000000000000000000000000000000000000000000dbe0dbe0dbe",
  "nTx": 1,
  "previousblockhash": "000000000a182da448974e74238ec9264c91c81491773fcda40f01c0af842fcb",
  "nextblockhash": "0000000082d79e9d6230da0d5a541d08a856ff524b91a5ce8294b2d0fe7e3a8d",
  "strippedsize": 216,
  "size": 216,
  "weight": 864,
  "tx": [
    {
      "txid": "70810d956108398feed4bae952ff63015e13e7b7097a53c6419e60a6d2cf21a7",
      "hash": "70810d956108398feed4bae952ff63015e13e7b7097a53c6419e60a6d2cf21a7",
      "version": 1,
      "size": 135,
      "vsize": 135,
      "weight": 540,
      "locktime": 0,
      "vin": [
        {
          "coinbase": "04ffff001d027107",
          "sequence": 4294967295
        }
      ],
      "vout": [
        {
          "value": 50.0,
          "n": 0,
          "scriptPubKey": {
            "asm": "048cfac485a37060550890fa3668baefb94171ecd60bdebfb03483c46242fb0260a858982054dbf8006b0e3ba290963096c0eaac9a2d448051a0f38dcb0ac09587 OP_CHECKSIG",
            "desc": "pk(048cfac485a37060550890fa3668baefb94171ecd60bdebfb03483c46242fb0260a858982054dbf8006b0e3ba290963096c0eaac9a2d448051a0f38dcb0ac09587)#v7fkxtpe",
            "hex": "41048cfac485a37060550890fa3668baefb94171ecd60bdebfb03483c46242fb0260a858982054dbf8006b0e3ba290963096c0eaac9a2d448051a0f38dcb0ac09587ac",
            "type": "pubkey"
          }
        }
      ],
      "hex": "01000000010000000000000000000000000000000000000000000000000000000000000000ffffffff0804ffff001d027107ffffffff0100f2052a010000004341048cfac485a37060550890fa3668baefb94171ecd60bdebfb03483c46242fb0260a858982054dbf8006b0e3ba290963096c0eaac9a2d448051a0f38dcb0ac09587ac00000000"
    }
  ]
}