{
  "hash": "00000000f4ebc5ad93758a8f72c9f205d360e4d5757f233777de9f846c255951",
  "confirmations": 50732,
  "height": 2366,
  "version": 1,
  "versionHex": "00000001",
  "merkleroot": "fa840e4c94d1194446c72c1563824e08facb0a49779f57d5baedf35d6a2d499d",
  "time": 1233325272,
  "mediantime": 1233322450,
  "nonce": 1457171464,
  "bits": "1d00ffff",
  "difficulty": 1,
  "chainwork": "0000000000000000000000000000000000000000000000000000093f093f093f",
  "nTx": 1,
  "previousblockhash": "0000000080fe9cc5080967c294bbe730b871dd656658b32fccc74bb0a2d579e7",
  "nextblockhash": "000000007aad5b373b57f4d5a5f910ddf5361396a0eb6e6130f081bd992aab39",
  "strippedsize": 216,
  "size": 216,
  "weight": 864,
  "tx": [
    {
      "txid": "fa840e4c94d1194446c72c1563824e08facb0a49779f57d5baedf35d6a2d499d",
      "hash": "fa840e4c94d1194446c72c1563824e08facb0a49779f57d5baedf35d6a2d499d",
      "version": 1,
      "size": 135,
      "vsize": 135,
      "weight": 540,
      "locktime": 0,
      "vin": [
        {
          "coinbase": "04ffff001d02d602",
          "sequence": 4294967295
        }
      ],
      "vout": [
        {
          "value": 50.0,
          "n": 0,
          "scriptPubKey": {
            "asm": "0431b523ac271843f4a3ad9a6bd8ffed15edaf8def0ce6cdd54967288ee6605bbb3b5dd2c805629a38bbe8725f2d40228525e7808e7928b89106eb44be4511322b OP_CHECKSIG",
            "desc": "pk(0431b523ac271843f4a3ad9a6bd8ffed15edaf8def0ce6cdd54967288ee6605bbb3b5dd2c805629a38bbe8725f2d40228525e7808e7928b89106eb44be4511322b)#c72xjcka",
            "hex": "410431b523ac271843f4a3ad9a6bd8ffed15edaf8def0ce6cdd54967288ee6605bbb3b5dd2c805629a38bbe8725f2d40228525e7808e7928b89106eb44be4511322bac",
            "type": "pubkey"
          }
        }
      ],
      "hex": "01000000010000000000000000000000000000000000000000000000000000000000000000ffffffff0804ffff001d02d602ffffffff0100f2052a0100000043410431b523ac271843f4a3ad9a6bd8ffed15edaf8def0ce6cdd54967288ee6605bbb3b5dd2c805629a38bbe8725f2d40228525e7808e7928b89106eb44be4511322bac00000000"
    }
  ]
}