{
  "hash": "000000009688c4421c7e422e1739262af03d68a927f3c1b89c52b8058a20f9e2",
  "confirmations": 46169,
  "height": 6929,
  "version": 1,
  "versionHex": "00000001",
  "merkleroot": "d17376aee4f8434c58b72e5a6ee390b0980817ed6173994996dd73c462dc4870",
  "time": 1236660785,
  "mediantime": 1236655597,
  "nonce": 1194211885,
  "bits": "1d00ffff",
  "difficulty": 1,
  "chainwork": "00000000000000000000000000000000000000000000000000001b121b121b12",
  "nTx": 1,
  "previousblockhash": "0000000047911be990105985f50e3365ea69202306ad052201e0010d7e989999",
  "nextblockhash": "00000000f49a9d6fa0beaf1f8a8ef2a4c1768e77d2358d2e6064a6f579207e01",
  "strippedsize": 216,
  "size": 216,
  "weight": 864,
  "tx": [
    {
      "txid": "d17376aee4f8434c58b72e5a6ee390b0980817ed6173994996dd73c462dc4870",
      "hash": "d17376aee4f8434c58b72e5a6ee390b0980817ed6173994996dd73c462dc4870",
      "version": 1,
      "size": 135,
      "vsize": 135,
      "weight": 540,
      "locktime": 0,
      "vin": [
        {
          "coinbase": "04ffff001d02f400",
          "sequence": 4294967295
        }
      ],
      "vout": [
        {
          "value": 50.0,
          "n": 0,
          "scriptPubKey": {
            "asm": "04211dfa397dc41ec075ef45793ea9395263ee13dd3d6a0100cc87db1111ada0d180a614cef52b69529aaa3bb7a2baa26d705cd0b39bee62ddb6b6df04a7364f63 OP_CHECKSIG",
            "desc": "pk(04211dfa397dc41ec075ef45793ea9395263ee13dd3d6a0100cc87db1111ada0d180a614cef52b69529aaa3bb7a2baa26d705cd0b39bee62ddb6b6df04a7364f63)#fvpmhzl8",
            "hex": "4104211dfa397dc41ec075ef45793ea9395263ee13dd3d6a0100cc87db1111ada0d180a614cef52b69529aaa3bb7a2baa26d705cd0b39bee62ddb6b6df04a7364f63ac",
            "type": "pubkey"
          }
        }
      ],
      "hex": "01000000010000000000000000000000000000000000000000000000000000000000000000ffffffff0804ffff001d02f400ffffffff0100f2052a01000000434104211dfa397dc41ec075ef45793ea9395263ee13dd3d6a0100cc87db1111ada0d180a614cef52b69529aaa3bb7a2baa26d705cd0b39bee62ddb6b6df04a7364f63ac00000000"
    }
  ]
}