{
  "hash": "00000000c90449e0eae4ab3e64248d2bb105c8bc720e3c7317ecfa4f1c482163",
  "confirmations": 52191,
  "height": 907,
  "version": 1,
  "versionHex": "00000001",
  "merkleroot": "5fccad788f8a2bb7fe47c2bf83805e166f88b6ba9a6b5a49f238c988760c5f7a",
  "time": 1232281621,
  "mediantime": 1232278193,
  "nonce": 9281905,
  "bits": "1d00ffff",
  "difficulty": 1,
  "chainwork": "0000000000000000000000000000000000000000000000000000038c038c038c",
  "nTx": 1,
  "previousblockhash": "0000000096732a5e1eb8fd8da3bc5024cfb882a9ed4c04b3a0077eae470169cb",
  "nextblockhash": "00000000bdcf8ca4e6b5259d02ace5d03b450214927ca0bc2217220323fc2256",
  "strippedsize": 216,
  "size": 216,
  "weight": 864,
  "tx": [
    {
      "txid": "5fccad788f8a2bb7fe47c2bf83805e166f88b6ba9a6b5a49f238c988760c5f7a",
      "hash": "5fccad788f8a2bb7fe47c2bf83805e166f88b6ba9a6b5a49f238c988760c5f7a",
      "version": 1,
      "size": 135,
      "vsize": 135,
      "weight": 540,
      "locktime": 0,
      "vin": [
        {
          "coinbase": "04ffff001d020e01",
          "sequence": 4294967295
        }
      ],
      "vout": [
        {
          "value": 50.0,
          "n": 0,
          "scriptPubKey": {
            "asm": "04b0f56e7884b181445e145594c20db4c60023345545806fc9aa8c358932b4b0f6e2bef7161fc422bcf9f5b17a80570b43e267efc88f454a095e3c0698176cfe98 OP_CHECKSIG",
            "desc": "pk(04b0f56e7884b181445e145594c20db4c60023345545806fc9aa8c358932b4b0f6e2bef7161fc422bcf9f5b17a80570b43e267efc88f454a095e3c0698176cfe98)#9u2yzdzk",
            "hex": "4104b0f56e7884b181445e145594c20db4c60023345545806fc9aa8c358932b4b0f6e2bef7161fc422bcf9f5b17a80570b43e267efc88f454a095e3c0698176cfe98ac",
            "type": "pubkey"
          }
        }
      ],
      "hex": "01000000010000000000000000000000000000000000000000000000000000000000000000ffffffff0804ffff001d020e01ffffffff0100f2052a01000000434104b0f56e7884b181445e145594c20db4c60023345545806fc9aa8c358932b4b0f6e2bef7161fc422bcf9f5b17a80570b43e267efc88f454a095e3c0698176cfe98ac00000000"
    }
  ]
}