{
  "hash": "00000000bbed92b5479c99db0db6180da4f5d985100ec7fa49542b50f55e63aa",
  "confirmations": 46063,
  "height": 7035,
  "version": 1,
  "versionHex": "00000001",
  "merkleroot": "3101a152684bf211bb8d38d249e71b6182df9c231da515a8811c596540b02e92",
  "time": 1236744705,
  "mediantime": 1236740223,
  "nonce": 344423477,
  "bits": "1d00ffff",
  "difficulty": 1,
  "chainwork": "00000000000000000000000000000000000000000000000000001b7c1b7c1b7c",
  "nTx": 1,
  "previousblockhash": "00000000f38abfe1610549168b2b686005cd1a388a2f06f6fc779813baaa27a1",
  "nextblockhash": "000000005b3f9f5a28b3a6269666a7cce802abd90fe1f6f4f3f678907b054c81",
  "strippedsize": 216,
  "size": 216,
  "weight": 864,
  "tx": [
    {
      "txid": "3101a152684bf211bb8d38d249e71b6182df9c231da515a8811c596540b02e92",
      "hash": "3101a152684bf211bb8d38d249e71b6182df9c231da515a8811c596540b02e92",
      "version": 1,
      "size": 135,
      "vsize": 135,
      "weight": 540,
      "locktime": 0,
      "vin": [
        {
          "coinbase": "04ffff001d02f202",
          "sequence": 4294967295
        }
      ],
      "vout": [
        {
          "value": 50.0,
          "n": 0,
          "scriptPubKey": {
            "asm": "04ac6173825566d9bb90623cea532be30988b90c1fbcc5bfc4e77a11da1f76304e90b3b3e23206496fd0fb55f37d0103b19328b86f27986179ec35eea302d5e7a3 OP_CHECKSIG",
            "desc": "pk(04ac6173825566d9bb90623cea532be30988b90c1fbcc5bfc4e77a11da1f76304e90b3b3e23206496fd0fb55f37d0103b19328b86f27986179ec35eea302d5e7a3)#mpvguh7t",
            "hex": "4104ac6173825566d9bb90623cea532be30988b90c1fbcc5bfc4e77a11da1f76304e90b3b3e23206496fd0fb55f37d0103b19328b86f27986179ec35eea302d5e7a3ac",
            "type": "pubkey"
          }
        }
      ],
      "hex": "01000000010000000000000000000000000000000000000000000000000000000000000000ffffffff0804ffff001d02f202ffffffff0100f2052a01000000434104ac6173825566d9bb90623cea532be30988b90c1fbcc5bfc4e77a11da1f76304e90b3b3e23206496fd0fb55f37d0103b19328b86f27986179ec35eea302d5e7a3ac00000000"
    }
  ]
}