{
  "hash": "00000000652518bcaeb45faa6379068d5ed34caa0fe046498b974d8acc265a1d",
  "confirmations": 44051,
  "height": 9047,
  "version": 1,
  "versionHex": "00000001",
  "merkleroot": "1c162aeee10c7bcd9e713e5658584ac638f4baf3cfd1f836730a53cff5fb2caa",
  "time": 1238286976,
  "mediantime": 1238283736,
  "nonce": 947415319,
  "bits": "1d00ffff",
  "difficulty": 1,
  "chainwork": "0000000000000000000000000000000000000000000000000000235823582358",
  "nTx": 1,
  "previousblockhash": "00000000a9f7951b94c788d7e5b96e1f606bae29cb7439b3b2f357411b2f7cd6",
  "nextblockhash": "000000001247f067f39b80d4f0ebc77bd6e44ad520d48dcae476c791b190117b",
  "strippedsize": 216,
  "size": 216,
  "weight": 864,
  "tx": [
    {
      "txid": "1c162aeee10c7bcd9e713e5658584ac638f4baf3cfd1f836730a53cff5fb2caa",
      "hash": "1c162aeee10c7bcd9e713e5658584ac638f4baf3cfd1f836730a53cff5fb2caa",
      "version": 1,
      "size": 135,
      "vsize": 135,
      "weight": 540,
      "locktime": 0,
      "vin": [
        {
          "coinbase": "04ffff001d023607",
          "sequence": 4294967295
        }
      ],
      "vout": [
        {
          "value": 50.0,
          "n": 0,
          "scriptPubKey": {
            "asm": "04031832646008e3f8906392956bdcd35c9fd41118a80de48753db75a51531c0ff0ae2adeb041e597a5087d7387eca9fc36a9a1ce325fc19bd89c464e6f2ef2d1c OP_CHECKSIG",
            "desc": "pk(04031832646008e3f8906392956bdcd35c9fd41118a80de48753db75a51531c0ff0ae2adeb041e597a5087d7387eca9fc36a9a1ce325fc19bd89c464e6f2ef2d1c)#yevem6hn",
            "hex": "4104031832646008e3f8906392956bdcd35c9fd41118a80de48753db75a51531c0ff0ae2adeb041e597a5087d7387eca9fc36a9a1ce325fc19bd89c464e6f2ef2d1cac",
            "type": "pubkey"
          }
        }
      ],
      "hex": "01000000010000000000000000000000000000000000000000000000000000000000000000ffffffff0804ffff001d023607ffffffff0100f2052a01000000434104031832646008e3f8906392956bdcd35c9fd41118a80de48753db75a51531c0ff0ae2adeb041e597a5087d7387eca9fc36a9a1ce325fc19bd89c464e6f2ef2d1cac00000000"
    }
  ]
}