{
  "hash": "00000000b2a8a9fb671be4ea3e7d06acc927289aca57de843abceb67c9e7947e",
  "confirmations": 48018,
  "height": 5080,
  "version": 1,
  "versionHex": "00000001",
  "merkleroot": "74354eb33f74e67e56bda883461e86a5eb1924e18662af574c4ad27bb41e4fbb",
  "time": 1235201352,
  "mediantime": 1235197695,
  "nonce": 2202759172,
  "bits": "1d00ffff",
  "difficulty": 1,
  "chainwork": "000000000000000000000000000000000000000000000000000013d913d913d9",
  "nTx": 1,
  "previousblockhash": "00000000734ab21f150418f24e54223ca0ee470a8472137931eb586b79a0c9ca",
  "nextblockhash": "00000000290ed9f54dcdfe3e56eafee77c9d9d73fc117d323ba8a4f2f25c174d",
  "strippedsize": 216,
  "size": 216,
  "weight": 864,
  "tx": [
    {
      "txid": "74354eb33f74e67e56bda883461e86a5eb1924e18662af574c4ad27bb41e4fbb",
      "hash": "74354eb33f74e67e56bda883461e86a5eb1924e18662af574c4ad27bb41e4fbb",
      "version": 1,
      "size": 135,
      "vsize": 135,
      "weight": 540,
      "locktime": 0,
      "vin": [
        {
          "coinbase": "04ffff001d028408",
          "sequence": 4294967295
        }
      ],
      "vout": [
        {
          "value": 50.0,
          "n": 0,
          "scriptPubKey": {
            "asm": "04eefd8a2efb6c8dc0348c616034f5948d8edd398908db58f84cc540e54bcaefe6369c1ad5d4e258049191546cedad2ecfb35489ce31dfeee70a4458f853345b3d OP_CHECKSIG",
            "desc": "pk(04eefd8a2efb6c8dc0348c616034f5948d8edd398908db58f84cc540e54bcaefe6369c1ad5d4e258049191546cedad2ecfb35489ce31dfeee70a4458f853345b3d)#uadv9jpg",
            "hex": "4104eefd8a2efb6c8dc0348c616034f5948d8edd398908db58f84cc540e54bcaefe6369c1ad5d4e258049191546cedad2ecfb35489ce31dfeee70a4458f853345b3dac",
            "type": "pubkey"
          }
        }
      ],
      "hex": "01000000010000000000000000000000000000000000000000000000000000000000000000ffffffff0804ffff001d028408ffffffff0100f2052a01000000434104eefd8a2efb6c8dc0348c616034f5948d8edd398908db58f84cc540e54bcaefe6369c1ad5d4e258049191546cedad2ecfb35489ce31dfeee70a4458f853345b3dac00000000"
    }
  ]
}