{
  "hash": "000000008eecc1a8f452c12ee9c1df88ebb3689a0bc63afc82e323a812ef3be4",
  "confirmations": 45405,
  "height": 7693,
  "version": 1,
  "versionHex": "00000001",
  "merkleroot": "be12e6d0c0eb953329496c683a3a67999fa73af4bf418e6659f1c58ef1670831",
  "time": 1237235380,
  "mediantime": 1237229799,
  "nonce": 1361545762,
  "bits": "1d00ffff",
  "difficulty": 1,
  "chainwork": "00000000000000000000000000000000000000000000000000001e0e1e0e1e0e",
  "nTx": 1,
  "previousblockhash": "0000000078ce9ba26300c4dd5eccd9cb7a2c3fc3be6e585a2d28c49b86f36542",
  "nextblockhash": "00000000970066c6d43d0afa42d130dd8dfb87df978943270a41a8a8e9ccb757",
  "strippedsize": 216,
  "size": 216,
  "weight": 864,
  "tx": [
    {
      "txid": "be12e6d0c0eb953329496c683a3a67999fa73af4bf418e6659f1c58ef1670831",
      "hash": "be12e6d0c0eb953329496c683a3a67999fa73af4bf418e6659f1c58ef1670831",
      "version": 1,
      "size": 135,
      "vsize": 135,
      "weight": 540,
      "locktime": 0,
      "vin": [
        {
          "coinbase": "04ffff001d021704",
          "sequence": 4294967295
        }
      ],
      "vout": [
        {
          "value": 50.0,
          "n": 0,
          "scriptPubKey": {
            "asm": "047353a8e23bd7fa7bf534a9555ee92505210083fdc3359c5ef065028e66ff34c3a3abd3465f6feeec708727e7a0bd6b98417a5934c34d08c7e39348d0873bf8b0 OP_CHECKSIG",
            "desc": "pk(047353a8e23bd7fa7bf534a9555ee92505210083fdc3359c5ef065028e66ff34c3a3abd3465f6feeec708727e7a0bd6b98417a5934c34d08c7e39348d0873bf8b0)#ln4480kj",
            "hex": "41047353a8e23bd7fa7bf534a9555ee92505210083fdc3359c5ef065028e66ff34c3a3abd3465f6feeec708727e7a0bd6b98417a5934c34d08c7e39348d0873bf8b0ac",
            "type": "pubkey"
          }
        }
      ],
      "hex": "01000000010000000000000000000000000000000000000000000000000000000000000000ffffffff0804ffff001d021704ffffffff0100f2052a010000004341047353a8e23bd7fa7bf534a9555ee92505210083fdc3359c5ef065028e66ff34c3a3abd3465f6feeec708727e7a0bd6b98417a5934c34d08c7e39348d0873bf8b0ac00000000"
    }
  ]
}