{
  "hash": "00000000b3ddef529610c784ff3ce6bf39fd322d4f659952843c07262438e34a",
  "confirmations": 47094,
  "height": 6004,
  "version": 1,
  "versionHex": "00000001",
  "merkleroot": "3b7af1f24cd6327c63ed890c2c83e743f42369f2ed339496e42c5135e82fbc21",
  "time": 1235929435,
  "mediantime": 1235927060,
  "nonce": 68604583,
  "bits": "1d00ffff",
  "difficulty": 1,
  "chainwork": "0000000000000000000000000000000000000000000000000000177517751775",
  "nTx": 1,
  "previousblockhash": "0000000059751467aa018170229ddbaa00e76eb9f18a2e5677d94883cb739d40",
  "nextblockhash": "0000000019dd0eec7de985a95ea4b368aafc0edc7b21ddab82978ca247956f81",
  "strippedsize": 216,
  "size": 216,
  "weight": 864,
  "tx": [
    {
      "txid": "3b7af1f24cd6327c63ed890c2c83e743f42369f2ed339496e42c5135e82fbc21",
      "hash": "3b7af1f24cd6327c63ed890c2c83e743f42369f2ed339496e42c5135e82fbc21",
      "version": 1,
      "size": 135,
      "vsize": 135,
      "weight": 540,
      "locktime": 0,
      "vin": [
        {
          "coinbase": "04ffff001d02ee01",
          "sequence": 4294967295
        }
      ],
      "vout": [
        {
          "value": 50.0,
          "n": 0,
          "scriptPubKey": {
            "asm": "04ddfede61eb1ab7f37b5a8c37a6049a5309b2a190355496672dd22f63a6c4a1eba040690adafc058a7720db5b63d901fca6ecdc7f52b38e32018f14639f3f5209 OP_CHECKSIG",
            "desc": "pk(04ddfede61eb1ab7f37b5a8c37a6049a5309b2a190355496672dd22f63a6c4a1eba040690adafc058a7720db5b63d901fca6ecdc7f52b38e32018f14639f3f5209)#gns9x0ym",
            "hex": "4104ddfede61eb1ab7f37b5a8c37a6049a5309b2a190355496672dd22f63a6c4a1eba040690adafc058a7720db5b63d901fca6ecdc7f52b38e32018f14639f3f5209ac",
            "type": "pubkey"
          }
        }
      ],
      "hex": "01000000010000000000000000000000000000000000000000000000000000000000000000ffffffff0804ffff001d02ee01ffffffff0100f2052a01000000434104ddfede61eb1ab7f37b5a8c37a6049a5309b2a190355496672dd22f63a6c4a1eba040690adafc058a7720db5b63d901fca6ecdc7f52b38e32018f14639f3f5209ac00000000"
    }
  ]
}