{
  "hash": "0000000014b203ca88a1aa26a8302a7075e3344d5fbc80fc0988e4402254c8ca",
  "confirmations": 45901,
  "height": 7197,
  "version": 1,
  "versionHex": "00000001",
  "merkleroot": "98dde13ce846de4ce7db75c8304e70bb347861ddbdc8811c7933e8513be93a0b",
  "time": 1236867576,
  "mediantime": 1236864206,
  "nonce": 488527874,
  "bits": "1d00ffff",
  "difficulty": 1,
  "chainwork": "00000000000000000000000000000000000000000000000000001c1e1c1e1c1e",
  "nTx": 1,
  "previousblockhash": "0000000090b995d03360cb830c2420f33432df40c0be92bb7bb8e621dea6726d",
  "nextblockhash": "00000000a588431277ece14d08d79f3f2ea6a937f7e2571a9246f7a3e7752614",
  "strippedsize": 216,
  "size": 216,
  "weight": 864,
  "tx": [
    {
      "txid": "98dde13ce846de4ce7db75c8304e70bb347861ddbdc8811c7933e8513be93a0b",
      "hash": "98dde13ce846de4ce7db75c8304e70bb347861ddbdc8811c7933e8513be93a0b",
      "version": 1,
      "size": 135,
      "vsize": 135,
      "weight": 540,
      "locktime": 0,
      "vin": [
        {
          "coinbase": "04ffff001d028d05",
          "sequence": 4294967295
        }
      ],
      "vout": [
        {
          "value": 50.0,
          "n": 0,
          "scriptPubKey": {
            "asm": "04ce98238e1feef4427b2390a38993a9ebc25df5ef9808ff9796adcfe75859d1d8fbb515549ccb98157f49f5a8b1a47fcc6689193d90a3fcf98be19b2247dd69f0 OP_CHECKSIG",
            "desc": "pk(04ce98238e1feef4427b2390a38993a9ebc25df5ef9808ff9796adcfe75859d1d8fbb515549ccb98157f49f5a8b1a47fcc6689193d90a3fcf98be19b2247dd69f0)#r7u59h2v",
            "hex": "4104ce98238e1feef4427b2390a38993a9ebc25df5ef9808ff9796adcfe75859d1d8fbb515549ccb98157f49f5a8b1a47fcc6689193d90a3fcf98be19b2247dd69f0ac",
            "type": "pubkey"
          }
        }
      ],
      "hex": "01000000010000000000000000000000000000000000000000000000000000000000000000ffffffff0804ffff001d028d05ffffffff0100f2052a01000000434104ce98238e1feef4427b2390a38993a9ebc25df5ef9808ff9796adcfe75859d1d8fbb515549ccb98157f49f5a8b1a47fcc6689193d90a3fcf98be19b2247dd69f0ac00000000"
    }
  ]
}