{
  "hash": "000000006ebfb2a9b128248cf18a1f0b98996d1bef2fad7e78eb49fdadf9ef51",
  "confirmations": 43721,
  "height": 9377,
  "version": 1,
  "versionHex": "00000001",
  "merkleroot": "77659edebe646ec8ce953873200b3292f40b41ec5df2b6a8b9296fc608244199",
  "time": 1238531909,
  "mediantime": 1238526672,
  "nonce": 3637011997,
  "bits": "1d00ffff",
  "difficulty": 1,
  "chainwork": "000000000000000000000000000000000000000000000000000024a224a224a2",
  "nTx": 1,
  "previousblockhash": "000000003cda70eebd121313f31fac0070e06dcd2e7a9ee5bb6e7467299ed4d9",
  "nextblockhash": "00000000654566cf2ba8b224326128b1f7d7489a4f53f581133ee5df476b0b69",
  "strippedsize": 216,
  "size": 216,
  "weight": 864,
  "tx": [
    {
      "txid": "77659edebe646ec8ce953873200b3292f40b41ec5df2b6a8b9296fc608244199",
      "hash": "77659edebe646ec8ce953873200b3292f40b41ec5df2b6a8b9296fc608244199",
      "version": 1,
      "size": 135,
      "vsize": 135,
      "weight": 540,
      "locktime": 0,
      "vin": [
        {
          "coinbase": "04ffff001d022803",
          "sequence": 4294967295
        }
      ],
      "vout": [
        {
          "value": 50.0,
          "n": 0,
          "scriptPubKey": {
            "asm": "04fb21aa30538b8592ad5aaab322ef063e5c498e3015aeae35c937162e38ab19a3e1a6516f04bde6b4d64c4fd7842006a044e1f8d0200fba53ffde5f8b48e0287d OP_CHECKSIG",
            "desc": "pk(04fb21aa30538b8592ad5aaab322ef063e5c498e3015aeae35c937162e38ab19a3e1a6516f04bde6b4d64c4fd7842006a044e1f8d0200fba53ffde5f8b48e0287d)#nxkgf85j",
            "hex": "4104fb21aa30538b8592ad5aaab322ef063e5c498e3015aeae35c937162e38ab19a3e1a6516f04bde6b4d64c4fd7842006a044e1f8d0200fba53ffde5f8b48e0287dac",
            "type": "pubkey"
          }
        }
      ],
      "hex": "01000000010000000000000000000000000000000000000000000000000000000000000000ffffffff0804ffff001d022803ffffffff0100f2052a01000000434104fb21aa30538b8592ad5aaab322ef063e5c498e3015aeae35c937162e38ab19a3e1a6516f04bde6b4d64c4fd7842006a044e1f8d0200fba53ffde5f8b48e0287dac00000000"
    }
  ]
}