{
  "hash": "000000000cb69682e57a58ac02bd4af63e983a3478bf793e2b684f130325eeb6",
  "confirmations": 51980,
  "height": 1118,
  "version": 1,
  "versionHex": "00000001",
  "merkleroot": "c62bf6bc9e22ada1220b869828454be0058437be9d4a54a85d38fb0b05e1c804",
  "time": 1232434771,
  "mediantime": 1232431889,
  "nonce": 178431025,
  "bits": "1d00ffff",
  "difficulty": 1,
  "chainwork": "0000000000000000000000000000000000000000000000000000045f045f045f",
  "nTx": 1,
  "previousblockhash": "000000008137e694130dc3f23a1441921a6bafaa4247b116edade8ce89847339",
  "nextblockhash": "0000000085abc7c8220ed9f2bdb8de94cff262c44981414587260f1bd66b7a24",
  "strippedsize": 216,
  "size": 216,
  "weight": 864,
  "tx": [
    {
      "txid": "c62bf6bc9e22ada1220b869828454be0058437be9d4a54a85d38fb0b05e1c804",
      "hash": "c62bf6bc9e22ada1220b869828454be0058437be9d4a54a85d38fb0b05e1c804",
      "version": 1,
      "size": 135,
      "vsize": 135,
      "weight": 540,
      "locktime": 0,
      "vin": [
        {
          "coinbase": "04ffff001d025107",
          "sequence": 4294967295
        }
      ],
      "vout": [
        {
          "value": 50.0,
          "n": 0,
          "scriptPubKey": {
            "asm": "042bf9bfe5f9139e9405c95a243bb5be2b05a22264ec3187daba10b335df992b4c455ba67a25883950616590ca8e5e9aa628cd19ac47395481615fbf8e5bf3be38 OP_CHECKSIG",
            "desc": "pk(042bf9bfe5f9139e9405c95a243bb5be2b05a22264ec3187daba10b335df992b4c455ba67a25883950616590ca8e5e9aa628cd19ac47395481615fbf8e5bf3be38)#kh0xjp0m",
            "hex": "41042bf9bfe5f9139e9405c95a243bb5be2b05a22264ec3187daba10b335df992b4c455ba67a25883950616590ca8e5e9aa628cd19ac47395481615fbf8e5bf3be38ac",
            "type": "pubkey"
          }
        }
      ],
      "hex": "01000000010000000000000000000000000000000000000000000000000000000000000000ffffffff0804ffff001d025107ffffffff0100f2052a010000004341042bf9bfe5f9139e9405c95a243bb5be2b05a22264ec3187daba10b335df992b4c455ba67a25883950616590ca8e5e9aa628cd19ac47395481615fbf8e5bf3be38ac00000000"
    }
  ]
}