{
  "hash": "0000000016a9f3ddedb8e850941f6981623c7721302a32ca8548dff1f7bd6e58",
  "confirmations": 52049,
  "height": 176,
  "version": 1,
  "versionHex": "00000001",
  "merkleroot": "64c195ad911554d3cbfbed05f78b5aa9379a0f98600305b03469cbb70ce13d5c",
  "time": 1231735142,
  "mediantime": 1231731401,
  "nonce": 1720267529,
  "bits": "1d00ffff",
  "difficulty": 1,
  "chainwork": "000000000000000000000000000000000000000000000000000000b100b100b1",
  "nTx": 1,
  "previousblockhash": "00000000fd4afcc15f0fdda9b24be4c62068d8cf82fe6277730fd096712d9d08",
  "nextblockhash": "00000000480c9799dd2b35009ff1833f69690f76c26a9bea7e00cd0042f67db1",
  "strippedsize": 215,
  "size": 215,
  "weight": 860,
  "tx": [
    {
      "txid": "64c195ad911554d3cbfbed05f78b5aa9379a0f98600305b03469cbb70ce13d5c",
      "hash": "64c195ad911554d3cbfbed05f78b5aa9379a0f98600305b03469cbb70ce13d5c",
      "version": 1,
      "size": 134,
      "vsize": 134,
      "weight": 536,
      "locktime": 0,
      "vin": [
        {
          "coinbase": "04ffff001d0112",
          "sequence": 4294967295
        }
      ],
      "vout": [
        {
          "value": 50.0,
          "n": 0,
          "scriptPubKey": {
            "asm": "046d1078f58caef4a77119f7762342d31b1a3ed6b6db4086cf612811fa4141e08df18c0d351727204f54ad428ae7b53007c4f3868a28f91144eabd0c42a9bacc45 OP_CHECKSIG",
            "desc": "pk(046d1078f58caef4a77119f7762342d31b1a3ed6b6db4086cf612811fa4141e08df18c0d351727204f54ad428ae7b53007c4f3868a28f91144eabd0c42a9bacc45)#fkz9xdkp",
            "hex": "41046d1078f58caef4a77119f7762342d31b1a3ed6b6db4086cf612811fa4141e08df18c0d351727204f54ad428ae7b53007c4f3868a28f91144eabd0c42a9bacc45ac",
            "type": "pubkey"
          }
        }
      ],
      "hex": "01000000010000000000000000000000000000000000000000000000000000000000000000ffffffff0704ffff001d0112ffffffff0100f2052a010000004341046d1078f58caef4a77119f7762342d31b1a3ed6b6db4086cf612811fa4141e08df18c0d351727204f54ad428ae7b53007c4f3868a28f91144eabd0c42a9bacc45ac00000000"
    }
  ]
}