{
  "hash": "000000005845885b0f3e66a5a7377c408c7c42bad7528f44862f7b7e741bdb9e",
  "confirmations": 50799,
  "height": 2299,
  "version": 1,
  "versionHex": "00000001",
  "merkleroot": "e2bee07f4eaba3cd2b541d9b844cb8d1e1bd9ae116eb1af38b6df688b1f5d185",
  "time": 1233278545,
  "mediantime": 1233275907,
  "nonce": 3862345478,
  "bits": "1d00ffff",
  "difficulty": 1,
  "chainwork": "000000000000000000000000000000000000000000000000000008fc08fc08fc",
  "nTx": 1,
  "previousblockhash": "00000000de1a62f59c544724d3d7267033ed03b8339aa5469a15f44da2a36428",
  "nextblockhash": "0000000091a5fdf4b5f5fe07ed869bf82049b3d61a403f2771b5cbd1937dad09",
  "strippedsize": 216,
  "size": 216,
  "weight": 864,
  "tx": [
    {
      "txid": "e2bee07f4eaba3cd2b541d9b844cb8d1e1bd9ae116eb1af38b6df688b1f5d185",
      "hash": "e2bee07f4eaba3cd2b541d9b844cb8d1e1bd9ae116eb1af38b6df688b1f5d185",
      "version": 1,
      "size": 135,
      "vsize": 135,
      "weight": 540,
      "locktime": 0,
      "vin": [
        {
          "coinbase": "04ffff001d02ad01",
          "sequence": 4294967295
        }
      ],
      "vout": [
        {
          "value": 50.0,
          "n": 0,
          "scriptPubKey": {
            "asm": "04634c1aebf0cff04ef9e250899b96591041767ab40767eb67d5a400ab59b5a023741f804e5c10e862a6fe2e7d54a180e0e663bc6fc05ddfbc305c95948239674f OP_CHECKSIG",
            "desc": "pk(04634c1aebf0cff04ef9e250899b96591041767ab40767eb67d5a400ab59b5a023741f804e5c10e862a6fe2e7d54a180e0e663bc6fc05ddfbc305c95948239674f)#6v9y937j",
            "hex": "4104634c1aebf0cff04ef9e250899b96591041767ab40767eb67d5a400ab59b5a023741f804e5c10e862a6fe2e7d54a180e0e663bc6fc05ddfbc305c95948239674fac",
            "type": "pubkey"
          }
        }
      ],
      "hex": "01000000010000000000000000000000000000000000000000000000000000000000000000ffffffff0804ffff001d02ad01ffffffff0100f2052a01000000434104634c1aebf0cff04ef9e250899b96591041767ab40767eb67d5a400ab59b5a023741f804e5c10e862a6fe2e7d54a180e0e663bc6fc05ddfbc305c95948239674fac00000000"
    }
  ]
}