{
  "hash": "0000000057a454272b22d687594e25aacbd3db16be45fa1dbcb71fb6d1514cce",
  "confirmations": 43448,
  "height": 9650,
  "version": 1,
  "versionHex": "00000001",
  "merkleroot": "2dc6d25803ac16035455a9ade866c267843c124eeeede7341f443102a38cdab9",
  "time": 1238740883,
  "mediantime": 1238736956,
  "nonce": 1469319975,
  "bits": "1d00ffff",
  "difficulty": 1,
  "chainwork": "000000000000000000000000000000000000000000000000000025b325b325b3",
  "nTx": 1,
  "previousblockhash": "00000000249676c42655bf8af5caec8d41bd5e2fa3fe736f163a4262b4ed8fe4",
  "nextblockhash": "000000004c4bc2f337eb21c50ae03d91159e006c235e7851731099feb8cb7a92",
  "strippedsize": 216,
  "size": 216,
  "weight": 864,
  "tx": [
    {
      "txid": "2dc6d25803ac16035455a9ade866c267843c124eeeede7341f443102a38cdab9",
      "hash": "2dc6d25803ac16035455a9ade866c267843c124eeeede7341f443102a38cdab9",
      "version": 1,
      "size": 135,
      "vsize": 135,
      "weight": 540,
      "locktime": 0,
      "vin": [
        {
          "coinbase": "04ffff001d02b507",
          "sequence": 4294967295
        }
      ],
      "vout": [
        {
          "value": 50.0,
          "n": 0,
          "scriptPubKey": {
            "asm": "04d1062c465b96763328f13f8b3b98ab9971bd154e24074d96321f7222b8e7e648923a9e70be1aa9f50dc8f440aa8c8963248f66bc64a4219ee1b934339d0e7d01 OP_CHECKSIG",
            "desc": "pk(04d1062c465b96763328f13f8b3b98ab9971bd154e24074d96321f7222b8e7e648923a9e70be1aa9f50dc8f440aa8c8963248f66bc64a4219ee1b934339d0e7d01)#9y5gqdu6",
            "hex": "4104d1062c465b96763328f13f8b3b98ab9971bd154e24074d96321f7222b8e7e648923a9e70be1aa9f50dc8f440aa8c8963248f66bc64a4219ee1b934339d0e7d01ac",
            "type": "pubkey"
          }
        }
      ],
      "hex": "01000000010000000000000000000000000000000000000000000000000000000000000000ffffffff0804ffff001d02b507ffffffff0100f2052a01000000434104d1062c465b96763328f13f8b3b98ab9971bd154e24074d96321f7222b8e7e648923a9e70be1aa9f50dc8f440aa8c8963248f66bc64a4219ee1b934339d0e7d01ac00000000"
    }
  ]
}