{
  "hash": "00000000b6424577a0a7e0a76e4714167a68c9083b3058d40ce5bad463fb13cf",
  "confirmations": 51504,
  "height": 1594,
  "version": 1,
  "versionHex": "00000001",
  "merkleroot": "2e00cae73e08b3a278eba53400ffe4e2f163e990ba8af23add06f59161458da6",
  "time": 1232809000,
  "mediantime": 1232807150,
  "nonce": 4212865044,
  "bits": "1d00ffff",
  "difficulty": 1,
  "chainwork": "0000000000000000000000000000000000000000000000000000063b063b063b",
  "nTx": 1,
  "previousblockhash": "00000000dd29353953496a5a1d58dd7ccf9357e835730e2c834fbb60e741c7e1",
  "nextblockhash": "000000007b3c95711d2117296d758059a8eca0de7ebdc4c0ac001a8e24925116",
  "strippedsize": 216,
  "size": 216,
  "weight": 864,
  "tx": [
    {
      "txid": "2e00cae73e08b3a278eba53400ffe4e2f163e990ba8af23add06f59161458da6",
      "hash": "2e00cae73e08b3a278eba53400ffe4e2f163e990ba8af23add06f59161458da6",
      "version": 1,
      "size": 135,
      "vsize": 135,
      "weight": 540,
      "locktime": 0,
      "vin": [
        {
          "coinbase": "04ffff001d020402",
          "sequence": 4294967295
        }
      ],
      "vout": [
        {
          "value": 50.0,
          "n": 0,
          "scriptPubKey": {
            "asm": "04304122f4b943253a44d06008375b2a1bcf8d335de785dd7014d3eca086c7cb07afa9b5b8e2df01e460611432b5d4867479cc61f441eb324cc5901fec46a44a9c OP_CHECKSIG",
            "desc": "pk(04304122f4b943253a44d06008375b2a1bcf8d335de785dd7014d3eca086c7cb07afa9b5b8e2df01e460611432b5d4867479cc61f441eb324cc5901fec46a44a9c)#tzn4eqfc",
            "hex": "4104304122f4b943253a44d06008375b2a1bcf8d335de785dd7014d3eca086c7cb07afa9b5b8e2df01e460611432b5d4867479cc61f441eb324cc5901fec46a44a9cac",
            "type": "pubkey"
          }
        }
      ],
      "hex": "01000000010000000000000000000000000000000000000000000000000000000000000000ffffffff0804ffff001d020402ffffffff0100f2052a01000000434104304122f4b943253a44d06008375b2a1bcf8d335de785dd7014d3eca086c7cb07afa9b5b8e2df01e460611432b5d4867479cc61f441eb324cc5901fec46a44a9cac00000000"
    }
  ]
}