{
  "hash": "0000000032d1692a4b213820a1e668733d72e483188ca3dc64f838cdcf5b2fb9",
  "confirmations": 52030,
  "height": 358,
  "version": 1,
  "versionHex": "00000001",
  "merkleroot": "8e14057a94ffefff7dcc9e8ab9c9f7090ab3877d8cc918641af2a76e1df5b4ac",
  "time": 1231871671,
  "mediantime": 1231867963,
  "nonce": 564240431,
  "bits": "1d00ffff",
  "difficulty": 1,
  "chainwork": "0000000000000000000000000000000000000000000000000000016701670167",
  "nTx": 1,
  "previousblockhash": "0000000018271ff4d19879fbe9f94bccf7323965fe1926fb0458ddee8b63c992",
  "nextblockhash": "0000000092c57e4d0f6f29a83a4072fdea05816199619e60c96867f7df570d5d",
  "strippedsize": 216,
  "size": 216,
  "weight": 864,
  "tx": [
    {
      "txid": "8e14057a94ffefff7dcc9e8ab9c9f7090ab3877d8cc918641af2a76e1df5b4ac",
      "hash": "8e14057a94ffefff7dcc9e8ab9c9f7090ab3877d8cc918641af2a76e1df5b4ac",
      "version": 1,
      "size": 135,
      "vsize": 135,
      "weight": 540,
      "locktime": 0,
      "vin": [
        {
          "coinbase": "04ffff001d02ae01",
          "sequence": 4294967295
        }
      ],
      "vout": [
        {
          "value": 50.0,
          "n": 0,
          "scriptPubKey": {
            "asm": "04e7b01d63a21c3258c02d02e46f2ea9cfd010e70c8722b10d5437e09522073e0ccf5155707a8e0f889c82f6b216afcef13aed3aecd29093f71dcde7a0af0474d2 OP_CHECKSIG",
            "desc": "pk(04e7b01d63a21c3258c02d02e46f2ea9cfd010e70c8722b10d5437e09522073e0ccf5155707a8e0f889c82f6b216afcef13aed3aecd29093f71dcde7a0af0474d2)#s2dujjlr",
            "hex": "4104e7b01d63a21c3258c02d02e46f2ea9cfd010e70c8722b10d5437e09522073e0ccf5155707a8e0f889c82f6b216afcef13aed3aecd29093f71dcde7a0af0474d2ac",
            "type": "pubkey"
          }
        }
      ],
      "hex": "01000000010000000000000000000000000000000000000000000000000000000000000000ffffffff0804ffff001d02ae01ffffffff0100f2052a01000000434104e7b01d63a21c3258c02d02e46f2ea9cfd010e70c8722b10d5437e09522073e0ccf5155707a8e0f889c82f6b216afcef13aed3aecd29093f71dcde7a0af0474d2ac00000000"
    }
  ]
}