{
  "hash": "0000000097901cf10df46a15283576c23c20e28456949ab9d0131b14e75bf6b2",
  "confirmations": 44289,
  "height": 8809,
  "version": 1,
  "versionHex": "00000001",
  "merkleroot": "4caf14ecac9046beb5889c4363e651c81464f49f0de587a0e66cb9643e815774",
  "time": 1238106210,
  "mediantime": 1238103647,
  "nonce": 3751177250,
  "bits": "1d00ffff",
  "difficulty": 1,
  "chainwork": "0000000000000000000000000000000000000000000000000000226a226a226a",
  "nTx": 1,
  "previousblockhash": "000000007d963253c24e06e6730837483accd5ab78549a4a7040e79247d07eb0",
  "nextblockhash": "00000000917055ca56f73122581850ffaaab9fc2d0276e1dffbc02d6249f87ae",
  "strippedsize": 216,
  "size": 216,
  "weight": 864,
  "tx": [
    {
      "txid": "4caf14ecac9046beb5889c4363e651c81464f49f0de587a0e66cb9643e815774",
      "hash": "4caf14ecac9046beb5889c4363e651c81464f49f0de587a0e66cb9643e815774",
      "version": 1,
      "size": 135,
      "vsize": 135,
      "weight": 540,
      "locktime": 0,
      "vin": [
        {
          "coinbase": "04ffff001d02e302",
          "sequence": 4294967295
        }
      ],
      "vout": [
        {
          "value": 50.0,
          "n": 0,
          "scriptPubKey": {
            "asm": "04016bf13723665e6528bcd222bb4e4a16552542d65e0e9b79c207b6f57e2ca7d96029b995826906ad4a7333e2e5db24fc477fb8d4126f4af9c49d5dfce9b4048d OP_CHECKSIG",
            "desc": "pk(04016bf13723665e6528bcd222bb4e4a16552542d65e0e9b79c207b6f57e2ca7d96029b995826906ad4a7333e2e5db24fc477fb8d4126f4af9c49d5dfce9b4048d)#gkv8dz0u",
            "hex": "4104016bf13723665e6528bcd222bb4e4a16552542d65e0e9b79c207b6f57e2ca7d96029b995826906ad4a7333e2e5db24fc477fb8d4126f4af9c49d5dfce9b4048dac",
            "type": "pubkey"
          }
        }
      ],
      "hex": "01000000010000000000000000000000000000000000000000000000000000000000000000ffffffff0804ffff001d02e302ffffffff0100f2052a01000000434104016bf13723665e6528bcd222bb4e4a16552542d65e0e9b79c207b6f57e2ca7d96029b995826906ad4a7333e2e5db24fc477fb8d4126f4af9c49d5dfce9b4048dac00000000"
    }
  ]
}