{
  "hash": "000000009ff1900d129365d25ff6529fb89b01d8aa4363d35d5b885c979e4c86",
  "confirmations": 46384,
  "height": 6714,
  "version": 1,
  "versionHex": "00000001",
  "merkleroot": "f77e98d0dcb1864a7d47d8f2a54a6951b6780f695e461d12ad55ee3eeb8dc5c2",
  "time": 1236492548,
  "mediantime": 1236490046,
  "nonce": 3990081300,
  "bits": "1d00ffff",
  "difficulty": 1,
  "chainwork": "00000000000000000000000000000000000000000000000000001a3b1a3b1a3b",
  "nTx": 1,
  "previousblockhash": "000000003933b11259a938879479cc743fdee2d71e2f0e3242b7fc7176a87f12",
  "nextblockhash": "00000000caf10e58decf15b632e23e1806681a68825b25f8e6a60df0e5a2da99",
  "strippedsize": 216,
  "size": 216,
  "weight": 864,
  "tx": [
    {
      "txid": "f77e98d0dcb1864a7d47d8f2a54a6951b6780f695e461d12ad55ee3eeb8dc5c2",
      "hash": "f77e98d0dcb1864a7d47d8f2a54a6951b6780f695e461d12ad55ee3eeb8dc5c2",
      "version": 1,
      "size": 135,
      "vsize": 135,
      "weight": 540,
      "locktime": 0,
      "vin": [
        {
          "coinbase": "04ffff001d024907",
          "sequence": 4294967295
        }
      ],
      "vout": [
        {
          "value": 50.0,
          "n": 0,
          "scriptPubKey": {
            "asm": "04d49b517d1b3ecc5f38b59c06540a837a5096292797e0a12c35c7d468f952998821fa9a6127473b44f63c3cdb5f331044568e5c44087eb7e12fb6bdc86235d0be OP_CHECKSIG",
            "desc": "pk(04d49b517d1b3ecc5f38b59c06540a837a5096292797e0a12c35c7d468f952998821fa9a6127473b44f63c3cdb5f331044568e5c44087eb7e12fb6bdc86235d0be)#luna94w5",
            "hex": "4104d49b517d1b3ecc5f38b59c06540a837a5096292797e0a12c35c7d468f952998821fa9a6127473b44f63c3cdb5f331044568e5c44087eb7e12fb6bdc86235d0beac",
            "type": "pubkey"
          }
        }
      ],
      "hex": "01000000010000000000000000000000000000000000000000000000000000000000000000ffffffff0804ffff001d024907ffffffff0100f2052a01000000434104d49b517d1b3ecc5f38b59c06540a837a5096292797e0a12c35c7d468f952998821fa9a6127473b44f63c3cdb5f331044568e5c44087eb7e12fb6bdc86235d0beac00000000"
    }
  ]
}