{
  "hash": "000000004b0e157aa87eac0c56f74f81267a5864eaae05064c0a0bb1e9e5329d",
  "confirmations": 45570,
  "height": 7528,
  "version": 1,
  "versionHex": "00000001",
  "merkleroot": "e182c26cb298d9da4a3067946284d22a028a8236ae16c3b6dc6abdd1ea6c6f4b",
  "time": 1237119287,
  "mediantime": 1237113741,
  "nonce": 1350433073,
  "bits": "1d00ffff",
  "difficulty": 1,
  "chainwork": "00000000000000000000000000000000000000000000000000001d691d691d69",
  "nTx": 1,
  "previousblockhash": "00000000460acaf3de600a7a70cd266ca615190130b336bcf2804d9d5546d527",
  "nextblockhash": "000000004603377411e9fdc039c1f4f293e8b9c0d3c42b14b8eb95591f07cd54",
  "strippedsize": 216,
  "size": 216,
  "weight": 864,
  "tx": [
    {
      "txid": "e182c26cb298d9da4a3067946284d22a028a8236ae16c3b6dc6abdd1ea6c6f4b",
      "hash": "e182c26cb298d9da4a3067946284d22a028a8236ae16c3b6dc6abdd1ea6c6f4b",
      "version": 1,
      "size": 135,
      "vsize": 135,
      "weight": 540,
      "locktime": 0,
      "vin": [
        {
          "coinbase": "04ffff001d027501",
          "sequence": 4294967295
        }
      ],
      "vout": [
        {
          "value": 50.0,
          "n": 0,
          "scriptPubKey": {
            "asm": "04cb65b24b62328f89fd5ec53973594b815f8d27fb21971ee3a53b7686e935ccc0d3fd649d520e0b086dc6caa82bc05847534e9a3fdfea403fdf84b7e606ce99a4 OP_CHECKSIG",
            "desc": "pk(04cb65b24b62328f89fd5ec53973594b815f8d27fb21971ee3a53b7686e935ccc0d3fd649d520e0b086dc6caa82bc05847534e9a3fdfea403fdf84b7e606ce99a4)#n7jdws6v",
            "hex": "4104cb65b24b62328f89fd5ec53973594b815f8d27fb21971ee3a53b7686e935ccc0d3fd649d520e0b086dc6caa82bc05847534e9a3fdfea403fdf84b7e606ce99a4ac",
            "type": "pubkey"
          }
        }
      ],
      "hex": "01000000010000000000000000000000000000000000000000000000000000000000000000ffffffff0804ffff001d027501ffffffff0100f2052a01000000434104cb65b24b62328f89fd5ec53973594b815f8d27fb21971ee3a53b7686e935ccc0d3fd649d520e0b086dc6caa82bc05847534e9a3fdfea403fdf84b7e606ce99a4ac00000000"
    }
  ]
}