{
  "hash": "000000005885e0b90c9529da0eb8b0dea99dbe803dbd58a850f695cbd565301e",
  "confirmations": 44573,
  "height": 8525,
  "version": 1,
  "versionHex": "00000001",
  "merkleroot": "719f4ef8ea0bbabc3d87daef92671e64923b3185e157a7c13f494d6eb9638dc9",
  "time": 1237892636,
  "mediantime": 1237888070,
  "nonce": 3271640632,
  "bits": "1d00ffff",
  "difficulty": 1,
  "chainwork": "0000000000000000000000000000000000000000000000000000214e214e214e",
  "nTx": 1,
  "previousblockhash": "00000000dd67c115529e4cd02fa4df2085d55624e31bda594c107b31a2c12d86",
  "nextblockhash": "000000007f52c47486c9fa848a14371db3d2698079c75124ea474df9e4eb8cb2",
  "strippedsize": 216,
  "size": 216,
  "weight": 864,
  "tx": [
    {
      "txid": "719f4ef8ea0bbabc3d87daef92671e64923b3185e157a7c13f494d6eb9638dc9",
      "hash": "719f4ef8ea0bbabc3d87daef92671e64923b3185e157a7c13f494d6eb9638dc9",
      "version": 1,
      "size": 135,
      "vsize": 135,
      "weight": 540,
      "locktime": 0,
      "vin": [
        {
          "coinbase": "04ffff001d022408",
          "sequence": 4294967295
        }
      ],
      "vout": [
        {
          "value": 50.0,
          "n": 0,
          "scriptPubKey": {
            "asm": "048c107de630c7963c67e20351dc0c4a5fe742ff02040b9feec213c947f487fb49802e194f98570a92bde82285b466d9368f82e4b340ee372f4eff68d72050acf4 OP_CHECKSIG",
            "desc": "pk(048c107de630c7963c67e20351dc0c4a5fe742ff02040b9feec213c947f487fb49802e194f98570a92bde82285b466d9368f82e4b340ee372f4eff68d72050acf4)#fcpyfg3n",
            "hex": "41048c107de630c7963c67e20351dc0c4a5fe742ff02040b9feec213c947f487fb49802e194f98570a92bde82285b466d9368f82e4b340ee372f4eff68d72050acf4ac",
            "type": "pubkey"
          }
        }
      ],
      "hex": "01000000010000000000000000000000000000000000000000000000000000000000000000ffffffff0804ffff001d022408ffffffff0100f2052a010000004341048c107de630c7963c67e20351dc0c4a5fe742ff02040b9feec213c947f487fb49802e194f98570a92bde82285b466d9368f82e4b340ee372f4eff68d72050acf4ac00000000"
    }
  ]
}