{
  "hash": "00000000ad4de69521187e7030317d1ae7afec0a16ef85aee761e25cf376e3c6",
  "confirmations": 46464,
  "height": 6634,
  "version": 1,
  "versionHex": "00000001",
  "merkleroot": "10a36e22d5a5758a989d23446e9fd037bf1db989eb173a903be1e6d5df3d6e25",
  "time": 1236430019,
  "mediantime": 1236425322,
  "nonce": 1719673608,
  "bits": "1d00ffff",
  "difficulty": 1,
  "chainwork": "000000000000000000000000000000000000000000000000000019eb19eb19eb",
  "nTx": 1,
  "previousblockhash": "000000008aa82460fcc7049b175253401719e1425eb24a1de18018c26583aa27",
  "nextblockhash": "00000000bb012e27be51fa0f564112682689c023690125d160d93da8cf1f18ff",
  "strippedsize": 216,
  "size": 216,
  "weight": 864,
  "tx": [
    {
      "txid": "10a36e22d5a5758a989d23446e9fd037bf1db989eb173a903be1e6d5df3d6e25",
      "hash": "10a36e22d5a5758a989d23446e9fd037bf1db989eb173a903be1e6d5df3d6e25",
      "version": 1,
      "size": 135,
      "vsize": 135,
      "weight": 540,
      "locktime": 0,
      "vin": [
        {
          "coinbase": "04ffff001d02c805",
          "sequence": 4294967295
        }
      ],
      "vout": [
        {
          "value": 50.0,
          "n": 0,
          "scriptPubKey": {
            "asm": "0410459de1f04791900a72a6e6d7b4cac65ae1061c2c3b98f9d0d13368ba0d7975c320a061c35b1b10c0de257087129b6e73f690d960bca37797afcc217fda0cc2 OP_CHECKSIG",
            "desc": "pk(0410459de1f04791900a72a6e6d7b4cac65ae1061c2c3b98f9d0d13368ba0d7975c320a061c35b1b10c0de257087129b6e73f690d960bca37797afcc217fda0cc2)#g97zqfty",
            "hex": "410410459de1f04791900a72a6e6d7b4cac65ae1061c2c3b98f9d0d13368ba0d7975c320a061c35b1b10c0de257087129b6e73f690d960bca37797afcc217fda0cc2ac",
            "type": "pubkey"
          }
        }
      ],
      "hex": "01000000010000000000000000000000000000000000000000000000000000000000000000ffffffff0804ffff001d02c805ffffffff0100f2052a0100000043410410459de1f04791900a72a6e6d7b4cac65ae1061c2c3b98f9d0d13368ba0d7975c320a061c35b1b10c0de257087129b6e73f690d960bca37797afcc217fda0cc2ac00000000"
    }
  ]
}