{
  "hash": "00000000216216c3bd47e4c75660053f43b6035828f00e4ade750de93b1efcec",
  "confirmations": 47955,
  "height": 5143,
  "version": 1,
  "versionHex": "00000001",
  "merkleroot": "88c8470a4083b2efb7c5591336595f3acf8819b65a15d197b203a93d271f1f16",
  "time": 1235247250,
  "mediantime": 1235243626,
  "nonce": 598354973,
  "bits": "1d00ffff",
  "difficulty": 1,
  "chainwork": "0000000000000000000000000000000000000000000000000000141814181418",
  "nTx": 1,
  "previousblockhash": "0000000027f405f71ba9d1fb7239f96d32ae3b55d81237051243ff86ddd7a0c9",
  "nextblockhash": "000000000ad2e08201d27fd6cb17f87c0e4f980a5668bd619f294ff99f0f2c2e",
  "strippedsize": 216,
  "size": 216,
  "weight": 864,
  "tx": [
    {
      "txid": "88c8470a4083b2efb7c5591336595f3acf8819b65a15d197b203a93d271f1f16",
      "hash": "88c8470a4083b2efb7c5591336595f3acf8819b65a15d197b203a93d271f1f16",
      "version": 1,
      "size": 135,
      "vsize": 135,
      "weight": 540,
      "locktime": 0,
      "vin": [
        {
          "coinbase": "04ffff001d02cc09",
          "sequence": 4294967295
        }
      ],
      "vout": [
        {
          "value": 50.0,
          "n": 0,
          "scriptPubKey": {
            "asm": "04e8f24b93c820ceaa765995040ab8b033770b1203768ec21801d5dba77bc53bb5c1a86af2e7c0a424c09bf043f0a8a1b219c00481d98cd3ce6a18f3375b55b5b0 OP_CHECKSIG",
            "desc": "pk(04e8f24b93c820ceaa765995040ab8b033770b1203768ec21801d5dba77bc53bb5c1a86af2e7c0a424c09bf043f0a8a1b219c00481d98cd3ce6a18f3375b55b5b0)#yrwdamvq",
            "hex": "4104e8f24b93c820ceaa765995040ab8b033770b1203768ec21801d5dba77bc53bb5c1a86af2e7c0a424c09bf043f0a8a1b219c00481d98cd3ce6a18f3375b55b5b0ac",
            "type": "pubkey"
          }
        }
      ],
      "hex": "01000000010000000000000000000000000000000000000000000000000000000000000000ffffffff0804ffff001d02cc09ffffffff0100f2052a01000000434104e8f24b93c820ceaa765995040ab8b033770b1203768ec21801d5dba77bc53bb5c1a86af2e7c0a424c09bf043f0a8a1b219c00481d98cd3ce6a18f3375b55b5b0ac00000000"
    }
  ]
}