{
  "hash": "00000000471e58945f3e967d5ae8b6dfd0d6335c11260c2fc6075c005a14ab26",
  "confirmations": 50368,
  "height": 2730,
  "version": 1,
  "versionHex": "00000001",
  "merkleroot": "af9b855096809c6df482af6dabc7666bf10e305b88c99f0f20a8e90d6e841cbc",
  "time": 1233584247,
  "mediantime": 1233581000,
  "nonce": 2142074414,
  "bits": "1d00ffff",
  "difficulty": 1,
  "chainwork": "00000000000000000000000000000000000000000000000000000aab0aab0aab",
  "nTx": 1,
  "previousblockhash": "00000000353203facafa80f07f05a2f5df0237846d9b5d1fd4dbbfd56f6dd107",
  "nextblockhash": "000000002720171a25a22889ee7d4f33538b927a262e8d617523d448fe8ad794",
  "strippedsize": 216,
  "size": 216,
  "weight": 864,
  "tx": [
    {
      "txid": "af9b855096809c6df482af6dabc7666bf10e305b88c99f0f20a8e90d6e841cbc",
      "hash": "af9b855096809c6df482af6dabc7666bf10e305b88c99f0f20a8e90d6e841cbc",
      "version": 1,
      "size": 135,
      "vsize": 135,
      "weight": 540,
      "locktime": 0,
      "vin": [
        {
          "coinbase": "04ffff001d023405",
          "sequence": 4294967295
        }
      ],
      "vout": [
        {
          "value": 50.0,
          "n": 0,
          "scriptPubKey": {
            "asm": "04429e109781d54316e58451dd39312f59a61f0130f0133074f41e86efc79cbd780b7666a1a685b180e1465c12140b6cdf4e3c8dddda985112f0e60ce921b7ea87 OP_CHECKSIG",
            "desc": "pk(04429e109781d54316e58451dd39312f59a61f0130f0133074f41e86efc79cbd780b7666a1a685b180e1465c12140b6cdf4e3c8dddda985112f0e60ce921b7ea87)#mdaygwwf",
            "hex": "4104429e109781d54316e58451dd39312f59a61f0130f0133074f41e86efc79cbd780b7666a1a685b180e1465c12140b6cdf4e3c8dddda985112f0e60ce921b7ea87ac",
            "type": "pubkey"
          }
        }
      ],
      "hex": "01000000010000000000000000000000000000000000000000000000000000000000000000ffffffff0804ffff001d023405ffffffff0100f2052a01000000434104429e109781d54316e58451dd39312f59a61f0130f0133074f41e86efc79cbd780b7666a1a685b180e1465c12140b6cdf4e3c8dddda985112f0e60ce921b7ea87ac00000000"
    }
  ]
}