{
  "hash": "00000000f10906b2ba9bc24818a505636a81767da51f266deb79ea06297aebdf",
  "confirmations": 49812,
  "height": 3286,
  "version": 1,
  "versionHex": "00000001",
  "merkleroot": "90bf801ae5024f67fbec523985f5462531f9076246a0b2c769d638d8e55a2a10",
  "time": 1233961976,
  "mediantime": 1233956252,
  "nonce": 3884225033,
  "bits": "1d00ffff",
  "difficulty": 1,
  "chainwork": "00000000000000000000000000000000000000000000000000000cd70cd70cd7",
  "nTx": 1,
  "previousblockhash": "00000000b995aedc9be48fdfe76499c79c9db2b6515e72c10483cf573aa325af",
  "nextblockhash": "00000000460ddf4975bb46903298de10afc2b44d7e1cffec0ccfbcc04902ce2d",
  "strippedsize": 216,
  "size": 216,
  "weight": 864,
  "tx": [
    {
      "txid": "90bf801ae5024f67fbec523985f5462531f9076246a0b2c769d638d8e55a2a10",
      "hash": "90bf801ae5024f67fbec523985f5462531f9076246a0b2c769d638d8e55a2a10",
      "version": 1,
      "size": 135,
      "vsize": 135,
      "weight": 540,
      "locktime": 0,
      "vin": [
        {
          "coinbase": "04ffff001d020104",
          "sequence": 4294967295
        }
      ],
      "vout": [
        {
          "value": 50.0,
          "n": 0,
          "scriptPubKey": {
            "asm": "0489904826aa098c8f447b1995b43651eb8ff0b7b18053bcd3633214f0122adbca74255e8cd31c74bcc14477df896109a27cdaa6e85a9655e29747f88e9b1b4090 OP_CHECKSIG",
            "desc": "pk(0489904826aa098c8f447b1995b43651eb8ff0b7b18053bcd3633214f0122adbca74255e8cd31c74bcc14477df896109a27cdaa6e85a9655e29747f88e9b1b4090)#yrt35gcr",
            "hex": "410489904826aa098c8f447b1995b43651eb8ff0b7b18053bcd3633214f0122adbca74255e8cd31c74bcc14477df896109a27cdaa6e85a9655e29747f88e9b1b4090ac",
            "type": "pubkey"
          }
        }
      ],
      "hex": "01000000010000000000000000000000000000000000000000000000000000000000000000ffffffff0804ffff001d020104ffffffff0100f2052a0100000043410489904826aa098c8f447b1995b43651eb8ff0b7b18053bcd3633214f0122adbca74255e8cd31c74bcc14477df896109a27cdaa6e85a9655e29747f88e9b1b4090ac00000000"
    }
  ]
}