{
  "hash": "000000003b1a33fecc66ca72fc1742865736881bcf78306b80fa44195678313a",
  "confirmations": 50983,
  "height": 2115,
  "version": 1,
  "versionHex": "00000001",
  "merkleroot": "41412ae1c6fd54d81df47b34f0c238b5532ff24a6fecd5f775e6506994c65a1e",
  "time": 1233149308,
  "mediantime": 1233144297,
  "nonce": 1426231842,
  "bits": "1d00ffff",
  "difficulty": 1,
  "chainwork": "0000000000000000000000000000000000000000000000000000084408440844",
  "nTx": 1,
  "previousblockhash": "000000000c10387a9c25bf199de9619ec0169ca480bf5be2fb176d195390936b",
  "nextblockhash": "000000003bbcc9dfe24e9880fb4d462003191a40b1d313b962d9a458d0d6f84c",
  "strippedsize": 216,
  "size": 216,
  "weight": 864,
  "tx": [
    {
      "txid": "41412ae1c6fd54d81df47b34f0c238b5532ff24a6fecd5f775e6506994c65a1e",
      "hash": "41412ae1c6fd54d81df47b34f0c238b5532ff24a6fecd5f775e6506994c65a1e",
      "version": 1,
      "size": 135,
      "vsize": 135,
      "weight": 540,
      "locktime": 0,
      "vin": [
        {
          "coinbase": "04ffff001d02d503",
          "sequence": 4294967295
        }
      ],
      "vout": [
        {
          "value": 50.0,
          "n": 0,
          "scriptPubKey": {
            "asm": "0492f994cc17ef50702eaa7962448ebb9b6d1d649a28f41ed1b2c86ecf14a36a8b74f166f8ff4780ccecae3f52119634299c8341bafc15c4c575f6883b8040db80 OP_CHECKSIG",
            "desc": "pk(0492f994cc17ef50702eaa7962448ebb9b6d1d649a28f41ed1b2c86ecf14a36a8b74f166f8ff4780ccecae3f52119634299c8341bafc15c4c575f6883b8040db80)#qhsrzna5",
            "hex": "410492f994cc17ef50702eaa7962448ebb9b6d1d649a28f41ed1b2c86ecf14a36a8b74f166f8ff4780ccecae3f52119634299c8341bafc15c4c575f6883b8040db80ac",
            "type": "pubkey"
          }
        }
      ],
      "hex": "01000000010000000000000000000000000000000000000000000000000000000000000000ffffffff0804ffff001d02d503ffffffff0100f2052a0100000043410492f994cc17ef50702eaa7962448ebb9b6d1d649a28f41ed1b2c86ecf14a36a8b74f166f8ff4780ccecae3f52119634299c8341bafc15c4c575f6883b8040db80ac00000000"
    }
  ]
}