{
  "hash": "00000000205733cf2849ad94758525c1086e7f0908cd28329aab7c4d71030e79",
  "confirmations": 52030,
  "height": 1068,
  "version": 1,
  "versionHex": "00000001",
  "merkleroot": "885629b7bac00f1319324b2e6e8ff7e05079c8fd3d20a000d8a7859c999cadb1",
  "time": 1232399947,
  "mediantime": 1232397012,
  "nonce": 242884348,
  "bits": "1d00ffff",
  "difficulty": 1,
  "chainwork": "0000000000000000000000000000000000000000000000000000042d042d042d",
  "nTx": 1,
  "previousblockhash": "000000000037504b6bdd57439970d748eac0f091945f8b12373e83c1bbc46c79",
  "nextblockhash": "00000000db89c622e0fd700f8849c5f68015ff4ae58b9be410a21da81edd1400",
  "strippedsize": 216,
  "size": 216,
  "weight": 864,
  "tx": [
    {
      "txid": "885629b7bac00f1319324b2e6e8ff7e05079c8fd3d20a000d8a7859c999cadb1",
      "hash": "885629b7bac00f1319324b2e6e8ff7e05079c8fd3d20a000d8a7859c999cadb1",
      "version": 1,
      "size": 135,
      "vsize": 135,
      "weight": 540,
      "locktime": 0,
      "vin": [
        {
          "coinbase": "04ffff001d020501",
          "sequence": 4294967295
        }
      ],
      "vout": [
        {
          "value": 50.0,
          "n": 0,
          "scriptPubKey": {
            "asm": "04c4edf9a13abd8378fc3cf445b18ce812779311b937f565b2b43928ba262d92d53f6d552778f0265069b41c481cebfd29f7295013eb92e4ce9ed5c74ffe36439c OP_CHECKSIG",
            "desc": "pk(04c4edf9a13abd8378fc3cf445b18ce812779311b937f565b2b43928ba262d92d53f6d552778f0265069b41c481cebfd29f7295013eb92e4ce9ed5c74ffe36439c)#ara2taq9",
            "hex": "4104c4edf9a13abd8378fc3cf445b18ce812779311b937f565b2b43928ba262d92d53f6d552778f0265069b41c481cebfd29f7295013eb92e4ce9ed5c74ffe36439cac",
            "type": "pubkey"
          }
        }
      ],
      "hex": "01000000010000000000000000000000000000000000000000000000000000000000000000ffffffff0804ffff001d020501ffffffff0100f2052a01000000434104c4edf9a13abd8378fc3cf445b18ce812779311b937f565b2b43928ba262d92d53f6d552778f0265069b41c481cebfd29f7295013eb92e4ce9ed5c74ffe36439cac00000000"
    }
  ]
}