{
  "hash": "0000000053d168279fa9783832e47483c20d6077c98f85e29621ffad2119a6c1",
  "confirmations": 47281,
  "height": 5817,
  "version": 1,
  "versionHex": "00000001",
  "merkleroot": "5c7feae8778aa33d5d801189270acd921461cac83b70bb341a8f8c678c3789ec",
  "time": 1235772939,
  "mediantime": 1235768372,
  "nonce": 659723047,
  "bits": "1d00ffff",
  "difficulty": 1,
  "chainwork": "000000000000000000000000000000000000000000000000000016ba16ba16ba",
  "nTx": 1,
  "previousblockhash": "00000000ae419a918322bba4bc0812ca1a810bde58abba3000f54cebc3dbe83b",
  "nextblockhash": "00000000e962aff490ab5a8814a48eba9b205430e970ee091d8a6eaf329374fd",
  "strippedsize": 216,
  "size": 216,
  "weight": 864,
  "tx": [
    {
      "txid": "5c7feae8778aa33d5d801189270acd921461cac83b70bb341a8f8c678c3789ec",
      "hash": "5c7feae8778aa33d5d801189270acd921461cac83b70bb341a8f8c678c3789ec",
      "version": 1,
      "size": 135,
      "vsize": 135,
      "weight": 540,
      "locktime": 0,
      "vin": [
        {
          "coinbase": "04ffff001d020501",
          "sequence": 4294967295
        }
      ],
      "vout": [
        {
          "value": 50.0,
          "n": 0,
          "scriptPubKey": {
            "asm": "04b0ce22aa367cfb74d39ab516842f11d3ad5bba922d438943aec7ffa39b0fb6b214138998ae0cfba0a27626d6aab1b3a329caf5a505ca18b612ef510244ebc4d5 OP_CHECKSIG",
            "desc": "pk(04b0ce22aa367cfb74d39ab516842f11d3ad5bba922d438943aec7ffa39b0fb6b214138998ae0cfba0a27626d6aab1b3a329caf5a505ca18b612ef510244ebc4d5)#7w8msw9u",
            "hex": "4104b0ce22aa367cfb74d39ab516842f11d3ad5bba922d438943aec7ffa39b0fb6b214138998ae0cfba0a27626d6aab1b3a329caf5a505ca18b612ef510244ebc4d5ac",
            "type": "pubkey"
          }
        }
      ],
      "hex": "01000000010000000000000000000000000000000000000000000000000000000000000000ffffffff0804ffff001d020501ffffffff0100f2052a01000000434104b0ce22aa367cfb74d39ab516842f11d3ad5bba922d438943aec7ffa39b0fb6b214138998ae0cfba0a27626d6aab1b3a329caf5a505ca18b612ef510244ebc4d5ac00000000"
    }
  ]
}