{
  "hash": "00000000748ec6c31fadf6895fcf0cad33d06ae1f5901929b28874f1b6764b9e",
  "confirmations": 46685,
  "height": 6413,
  "version": 1,
  "versionHex": "00000001",
  "merkleroot": "14c5e5aa3783f7219b594717da8cd94307c17d8adc3161ccfebcd62e36e2fdcc",
  "time": 1236267026,
  "mediantime": 1236262010,
  "nonce": 2468944149,
  "bits": "1d00ffff",
  "difficulty": 1,
  "chainwork": "0000000000000000000000000000000000000000000000000000190e190e190e",
  "nTx": 1,
  "previousblockhash": "000000008f785cc65342a71e68383e38c63b077ae2f4f7b5a3a3894fc5fa1b44",
  "nextblockhash": "00000000a8a4e1f22885af970a9317b3d97de8ff8e1b4646bccf1b9c5891d32b",
  "strippedsize": 216,
  "size": 216,
  "weight": 864,
  "tx": [
    {
      "txid": "14c5e5aa3783f7219b594717da8cd94307c17d8adc3161ccfebcd62e36e2fdcc",
      "hash": "14c5e5aa3783f7219b594717da8cd94307c17d8adc3161ccfebcd62e36e2fdcc",
      "version": 1,
      "size": 135,
      "vsize": 135,
      "weight": 540,
      "locktime": 0,
      "vin": [
        {
          "coinbase": "04ffff001d021a02",
          "sequence": 4294967295
        }
      ],
      "vout": [
        {
          "value": 50.0,
          "n": 0,
          "scriptPubKey": {
            "asm": "04f1b75ccdc53baf25a3dcdd53848893686d854465479e543117719ab28bb2d47a4db1a5237cb6587affe68d72a2048c4c40ef8eaa7c782ca593733b54d4800aaa OP_CHECKSIG",
            "desc": "pk(04f1b75ccdc53baf25a3dcdd53848893686d854465479e543117719ab28bb2d47a4db1a5237cb6587affe68d72a2048c4c40ef8eaa7c782ca593733b54d4800aaa)#al232nf3",
            "hex": "4104f1b75ccdc53baf25a3dcdd53848893686d854465479e543117719ab28bb2d47a4db1a5237cb6587affe68d72a2048c4c40ef8eaa7c782ca593733b54d4800aaaac",
            "type": "pubkey"
          }
        }
      ],
      "hex": "01000000010000000000000000000000000000000000000000000000000000000000000000ffffffff0804ffff001d021a02ffffffff0100f2052a01000000434104f1b75ccdc53baf25a3dcdd53848893686d854465479e543117719ab28bb2d47a4db1a5237cb6587affe68d72a2048c4c40ef8eaa7c782ca593733b54d4800aaaac00000000"
    }
  ]
}