{
  "hash": "00000000b0718c2433b012e399de10ea7b884b6af5fd7607ee0e854954f69393",
  "confirmations": 43182,
  "height": 9916,
  "version": 1,
  "versionHex": "00000001",
  "merkleroot": "2eacefe18685c8138d52d15fc9d0a4f9d9a20e3250f340e4318518948bc46abd",
  "time": 1238932072,
  "mediantime": 1238929580,
  "nonce": 58338327,
  "bits": "1d00ffff",
  "difficulty": 1,
  "chainwork": "000000000000000000000000000000000000000000000000000026bd26bd26bd",
  "nTx": 1,
  "previousblockhash": "000000005f88f80bbecf493713debc4a0dedc7ad6391f77ca9dc8ea45304674c",
  "nextblockhash": "00000000b1cbcc5fe7b5b3e23737d83d8bbda880ab1429d58a78a4579010bb7b",
  "strippedsize": 216,
  "size": 216,
  "weight": 864,
  "tx": [
    {
      "txid": "2eacefe18685c8138d52d15fc9d0a4f9d9a20e3250f340e4318518948bc46abd",
      "hash": "2eacefe18685c8138d52d15fc9d0a4f9d9a20e3250f340e4318518948bc46abd",
      "version": 1,
      "size": 135,
      "vsize": 135,
      "weight": 540,
      "locktime": 0,
      "vin": [
        {
          "coinbase": "04ffff001d028a01",
          "sequence": 4294967295
        }
      ],
      "vout": [
        {
          "value": 50.0,
          "n": 0,
          "scriptPubKey": {
            "asm": "04c5b9ec31a7f24e573f827f3a9d9f5b50177c72b82910de0c3999934ee38cb6f411cbf42f161c7fff3d227b4835588df424fb3ddecf16be8a821f6e70f9c58fb5 OP_CHECKSIG",
            "desc": "pk(04c5b9ec31a7f24e573f827f3a9d9f5b50177c72b82910de0c3999934ee38cb6f411cbf42f161c7fff3d227b4835588df424fb3ddecf16be8a821f6e70f9c58fb5)#y638astp",
            "hex": "4104c5b9ec31a7f24e573f827f3a9d9f5b50177c72b82910de0c3999934ee38cb6f411cbf42f161c7fff3d227b4835588df424fb3ddecf16be8a821f6e70f9c58fb5ac",
            "type": "pubkey"
          }
        }
      ],
      "hex": "01000000010000000000000000000000000000000000000000000000000000000000000000ffffffff0804ffff001d028a01ffffffff0100f2052a01000000434104c5b9ec31a7f24e573f827f3a9d9f5b50177c72b82910de0c3999934ee38cb6f411cbf42f161c7fff3d227b4835588df424fb3ddecf16be8a821f6e70f9c58fb5ac00000000"
    }
  ]
}