{
  "hash": "000000009b35c1ca52988212e39430925c5f11f9f679a233e08daf2fb7baa744",
  "confirmations": 46115,
  "height": 6983,
  "version": 1,
  "versionHex": "00000001",
  "merkleroot": "807c250061bf5177ed24e78b22f8ba22586f3770a3dcb533abfd32467ebca2f6",
  "time": 1236703808,
  "mediantime": 1236698575,
  "nonce": 591486522,
  "bits": "1d00ffff",
  "difficulty": 1,
  "chainwork": "00000000000000000000000000000000000000000000000000001b481b481b48",
  "nTx": 1,
  "previousblockhash": "00000000ee01f2591da756d1045ae3bd04341279842dddba8a7d002b7c170f94",
  "nextblockhash": "0000000074df9d9258ed1acc85abb45e099a7aca5d53f082c17efad5de4cf73a",
  "strippedsize": 216,
  "size": 216,
  "weight": 864,
  "tx": [
    {
      "txid": "807c250061bf5177ed24e78b22f8ba22586f3770a3dcb533abfd32467ebca2f6",
      "hash": "807c250061bf5177ed24e78b22f8ba22586f3770a3dcb533abfd32467ebca2f6",
      "version": 1,
      "size": 135,
      "vsize": 135,
      "weight": 540,
      "locktime": 0,
      "vin": [
        {
          "coinbase": "04ffff001d02f201",
          "sequence": 4294967295
        }
      ],
      "vout": [
        {
          "value": 50.0,
          "n": 0,
          "scriptPubKey": {
            "asm": "04fc1418484fa105f88f9a914a1666305501de34cfdcf9e05304c5b9c917e75f359abf8ac5a7d2335e2568d434d16e714b25f7f06703031d11e7bf1b779704674e OP_CHECKSIG",
            "desc": "pk(04fc1418484fa105f88f9a914a1666305501de34cfdcf9e05304c5b9c917e75f359abf8ac5a7d2335e2568d434d16e714b25f7f06703031d11e7bf1b779704674e)#sxcr6qp4",
            "hex": "4104fc1418484fa105f88f9a914a1666305501de34cfdcf9e05304c5b9c917e75f359abf8ac5a7d2335e2568d434d16e714b25f7f06703031d11e7bf1b779704674eac",
            "type": "pubkey"
          }
        }
      ],
      "hex": "01000000010000000000000000000000000000000000000000000000000000000000000000ffffffff0804ffff001d02f201ffffffff0100f2052a01000000434104fc1418484fa105f88f9a914a1666305501de34cfdcf9e05304c5b9c917e75f359abf8ac5a7d2335e2568d434d16e714b25f7f06703031d11e7bf1b779704674eac00000000"
    }
  ]
}