{
  "hash": "00000000306b5009d2a9efa54aaec49a0ce1e992b0079c3f2e54fc49871d7956",
  "confirmations": 52004,
  "height": 336,
  "version": 1,
  "versionHex": "00000001",
  "merkleroot": "1e3d32020b8dfb2b46adbf9be1a006b45b056e14874114bf0253acc4e39b411e",
  "time": 1231856644,
  "mediantime": 1231854172,
  "nonce": 330980379,
  "bits": "1d00ffff",
  "difficulty": 1,
  "chainwork": "0000000000000000000000000000000000000000000000000000015101510151",
  "nTx": 1,
  "previousblockhash": "00000000b104104dfc538d175f3caa313dffc06607fc06e4737e0c3abcd085d8",
  "nextblockhash": "000000005f8dbc254ba41890b98e5a9e218c220a3476455539db27f642db3673",
  "strippedsize": 216,
  "size": 216,
  "weight": 864,
  "tx": [
    {
      "txid": "1e3d32020b8dfb2b46adbf9be1a006b45b056e14874114bf0253acc4e39b411e",
      "hash": "1e3d32020b8dfb2b46adbf9be1a006b45b056e14874114bf0253acc4e39b411e",
      "version": 1,
      "size": 135,
      "vsize": 135,
      "weight": 540,
      "locktime": 0,
      "vin": [
        {
          "coinbase": "04ffff001d023f01",
          "sequence": 4294967295
        }
      ],
      "vout": [
        {
          "value": 50.0,
          "n": 0,
          "scriptPubKey": {
            "asm": "042679cf38324a546c674cd60c40c77c6bc1414ad665bca1eb54ecdf23c5676de644104a11386a001c233e5aa75ba56bf6c72a8f15464d426bc93ca28d2526f842 OP_CHECKSIG",
            "desc": "pk(042679cf38324a546c674cd60c40c77c6bc1414ad665bca1eb54ecdf23c5676de644104a11386a001c233e5aa75ba56bf6c72a8f15464d426bc93ca28d2526f842)#wcxsxccq",
            "hex": "41042679cf38324a546c674cd60c40c77c6bc1414ad665bca1eb54ecdf23c5676de644104a11386a001c233e5aa75ba56bf6c72a8f15464d426bc93ca28d2526f842ac",
            "type": "pubkey"
          }
        }
      ],
      "hex": "01000000010000000000000000000000000000000000000000000000000000000000000000ffffffff0804ffff001d023f01ffffffff0100f2052a010000004341042679cf38324a546c674cd60c40c77c6bc1414ad665bca1eb54ecdf23c5676de644104a11386a001c233e5aa75ba56bf6c72a8f15464d426bc93ca28d2526f842ac00000000"
    }
  ]
}