{
  "hash": "00000000b1564f7023873353c8e95cd498177d0d6f4d1ef4b6bbab4533461e80",
  "confirmations": 45248,
  "height": 7850,
  "version": 1,
  "versionHex": "00000001",
  "merkleroot": "43f0ccab104e7a5b493e4b4152f30a45381be81811bfd2c59905c22ef11829e9",
  "time": 1237351050,
  "mediantime": 1237348102,
  "nonce": 3275818789,
  "bits": "1d00ffff",
  "difficulty": 1,
  "chainwork": "00000000000000000000000000000000000000000000000000001eab1eab1eab",
  "nTx": 1,
  "previousblockhash": "00000000d9d32fb5c2f98d89cd677b9c1d2316dc29dc2592bc4903825f2183e7",
  "nextblockhash": "0000000071c93c1b85a9d259786cb8fd604f3ac366e26428bdff4e18e0b37085",
  "strippedsize": 216,
  "size": 216,
  "weight": 864,
  "tx": [
    {
      "txid": "43f0ccab104e7a5b493e4b4152f30a45381be81811bfd2c59905c22ef11829e9",
      "hash": "43f0ccab104e7a5b493e4b4152f30a45381be81811bfd2c59905c22ef11829e9",
      "version": 1,
      "size": 135,
      "vsize": 135,
      "weight": 540,
      "locktime": 0,
      "vin": [
        {
          "coinbase": "04ffff001d02c406",
          "sequence": 4294967295
        }
      ],
      "vout": [
        {
          "value": 50.0,
          "n": 0,
          "scriptPubKey": {
            "asm": "0479d902a6e35ec9f2228543195b1ffe5822414535abb7a4ce4de83c68070d054e2c64c3cadd4423c6e19039fc7e05d3239555754ea1a2a7ca4ec3c0facad91df7 OP_CHECKSIG",
            "desc": "pk(0479d902a6e35ec9f2228543195b1ffe5822414535abb7a4ce4de83c68070d054e2c64c3cadd4423c6e19039fc7e05d3239555754ea1a2a7ca4ec3c0facad91df7)#4frr27qq",
            "hex": "410479d902a6e35ec9f2228543195b1ffe5822414535abb7a4ce4de83c68070d054e2c64c3cadd4423c6e19039fc7e05d3239555754ea1a2a7ca4ec3c0facad91df7ac",
            "type": "pubkey"
          }
        }
      ],
      "hex": "01000000010000000000000000000000000000000000000000000000000000000000000000ffffffff0804ffff001d02c406ffffffff0100f2052a0100000043410479d902a6e35ec9f2228543195b1ffe5822414535abb7a4ce4de83c68070d054e2c64c3cadd4423c6e19039fc7e05d3239555754ea1a2a7ca4ec3c0facad91df7ac00000000"
    }
  ]
}