{
  "hash": "000000007eae4bac692f36a760b612ef21a217cd970fe72a6a908c22dd582dd1",
  "confirmations": 47854,
  "height": 5244,
  "version": 1,
  "versionHex": "00000001",
  "merkleroot": "7b317670336cab83bf498719450bad36cf4c968210e23713bb6d589d7e3db899",
  "time": 1235318527,
  "mediantime": 1235315054,
  "nonce": 1525637410,
  "bits": "1d00ffff",
  "difficulty": 1,
  "chainwork": "0000000000000000000000000000000000000000000000000000147d147d147d",
  "nTx": 1,
  "previousblockhash": "00000000dce646012b1fc3eea4b8e90bc8a253eb6c781ca874fd790d953c730c",
  "nextblockhash": "000000007a07d829e13c59e78a17753562ab6fdf95c7a0f36fece7ebab4d7070",
  "strippedsize": 216,
  "size": 216,
  "weight": 864,
  "tx": [
    {
      "txid": "7b317670336cab83bf498719450bad36cf4c968210e23713bb6d589d7e3db899",
      "hash": "7b317670336cab83bf498719450bad36cf4c968210e23713bb6d589d7e3db899",
      "version": 1,
      "size": 135,
      "vsize": 135,
      "weight": 540,
      "locktime": 0,
      "vin": [
        {
          "coinbase": "04ffff001d021d01",
          "sequence": 4294967295
        }
      ],
      "vout": [
        {
          "value": 50.0,
          "n": 0,
          "scriptPubKey": {
            "asm": "041ea2fb2514338e7cc1092744af887a40e240be85e25d7c3f299ddc24d60cefab8de8ec8237696c81899d86a3159aeb7d82fa4c98b4dbd1a58385c56a81ef8bed OP_CHECKSIG",
            "desc": "pk(041ea2fb2514338e7cc1092744af887a40e240be85e25d7c3f299ddc24d60cefab8de8ec8237696c81899d86a3159aeb7d82fa4c98b4dbd1a58385c56a81ef8bed)#w6rf8wdp",
            "hex": "41041ea2fb2514338e7cc1092744af887a40e240be85e25d7c3f299ddc24d60cefab8de8ec8237696c81899d86a3159aeb7d82fa4c98b4dbd1a58385c56a81ef8bedac",
            "type": "pubkey"
          }
        }
      ],
      "hex": "01000000010000000000000000000000000000000000000000000000000000000000000000ffffffff0804ffff001d021d01ffffffff0100f2052a010000004341041ea2fb2514338e7cc1092744af887a40e240be85e25d7c3f299ddc24d60cefab8de8ec8237696c81899d86a3159aeb7d82fa4c98b4dbd1a58385c56a81ef8bedac00000000"
    }
  ]
}