{
  "hash": "00000000e0fb65763a98dd44af4150924c3be965b545c625f8999821cf7bf37b",
  "confirmations": 50781,
  "height": 2317,
  "version": 1,
  "versionHex": "00000001",
  "merkleroot": "bd1e5bfa345a9d9e4a41565df1274135de5be87966e1fe2819af29e67346726c",
  "time": 1233292771,
  "mediantime": 1233289492,
  "nonce": 1203672357,
  "bits": "1d00ffff",
  "difficulty": 1,
  "chainwork": "0000000000000000000000000000000000000000000000000000090e090e090e",
  "nTx": 1,
  "previousblockhash": "0000000084fc48f2fc98e994ab6f676ef5a58992954775d6e02e5a864ca93455",
  "nextblockhash": "00000000fd09b9bde2042508551ba03266daf362e8e2029332c2d93d0c947033",
  "strippedsize": 216,
  "size": 216,
  "weight": 864,
  "tx": [
    {
      "txid": "bd1e5bfa345a9d9e4a41565df1274135de5be87966e1fe2819af29e67346726c",
      "hash": "bd1e5bfa345a9d9e4a41565df1274135de5be87966e1fe2819af29e67346726c",
      "version": 1,
      "size": 135,
      "vsize": 135,
      "weight": 540,
      "locktime": 0,
      "vin": [
        {
          "coinbase": "04ffff001d02e501",
          "sequence": 4294967295
        }
      ],
      "vout": [
        {
          "value": 50.0,
          "n": 0,
          "scriptPubKey": {
            "asm": "04b498b441785f0f0f5193c9296381aad170bcc80342b146daee8410719644ed57ec75bfcd7fa068ed5896dddb7158b7f8f3dc7c7dd14f5510887b4b8ebfbbfa02 OP_CHECKSIG",
            "desc": "pk(04b498b441785f0f0f5193c9296381aad170bcc80342b146daee8410719644ed57ec75bfcd7fa068ed5896dddb7158b7f8f3dc7c7dd14f5510887b4b8ebfbbfa02)#qsuqhp6g",
            "hex": "4104b498b441785f0f0f5193c9296381aad170bcc80342b146daee8410719644ed57ec75bfcd7fa068ed5896dddb7158b7f8f3dc7c7dd14f5510887b4b8ebfbbfa02ac",
            "type": "pubkey"
          }
        }
      ],
      "hex": "01000000010000000000000000000000000000000000000000000000000000000000000000ffffffff0804ffff001d02e501ffffffff0100f2052a01000000434104b498b441785f0f0f5193c9296381aad170bcc80342b146daee8410719644ed57ec75bfcd7fa068ed5896dddb7158b7f8f3dc7c7dd14f5510887b4b8ebfbbfa02ac00000000"
    }
  ]
}