{
  "hash": "00000000b85fcd8488a7f12d71d94b07d5492494e009c3cf1e4f02bd71ce8569",
  "confirmations": 51866,
  "height": 1232,
  "version": 1,
  "versionHex": "00000001",
  "merkleroot": "d6957d0c9783ef92e8f43e4ab0db4ebf1b06a262ddb5ef0b35b4644acd762231",
  "time": 1232525373,
  "mediantime": 1232521768,
  "nonce": 1980210203,
  "bits": "1d00ffff",
  "difficulty": 1,
  "chainwork": "000000000000000000000000000000000000000000000000000004d104d104d1",
  "nTx": 1,
  "previousblockhash": "00000000c27f99b034e535f4fb1052bbefce5886bd2f7bac945ea4a31a71f829",
  "nextblockhash": "00000000f00d59bf8908172e96fdd552eccef0c8f61014fcf00a3806b944d74c",
  "strippedsize": 216,
  "size": 216,
  "weight": 864,
  "tx": [
    {
      "txid": "d6957d0c9783ef92e8f43e4ab0db4ebf1b06a262ddb5ef0b35b4644acd762231",
      "hash": "d6957d0c9783ef92e8f43e4ab0db4ebf1b06a262ddb5ef0b35b4644acd762231",
      "version": 1,
      "size": 135,
      "vsize": 135,
      "weight": 540,
      "locktime": 0,
      "vin": [
        {
          "coinbase": "04ffff001d022709",
          "sequence": 4294967295
        }
      ],
      "vout": [
        {
          "value": 50.0,
          "n": 0,
          "scriptPubKey": {
            "asm": "04f1a4b8b5ba1fc8dc57c06a9e4edf1c2e08850d910d2fb2506dfcaba45a06577b89a018b509b480b14cd81df75427bd46399e4ce3081d68c00781cdd8cec07172 OP_CHECKSIG",
            "desc": "pk(04f1a4b8b5ba1fc8dc57c06a9e4edf1c2e08850d910d2fb2506dfcaba45a06577b89a018b509b480b14cd81df75427bd46399e4ce3081d68c00781cdd8cec07172)#2p3ft0kw",
            "hex": "4104f1a4b8b5ba1fc8dc57c06a9e4edf1c2e08850d910d2fb2506dfcaba45a06577b89a018b509b480b14cd81df75427bd46399e4ce3081d68c00781cdd8cec07172ac",
            "type": "pubkey"
          }
        }
      ],
      "hex": "01000000010000000000000000000000000000000000000000000000000000000000000000ffffffff0804ffff001d022709ffffffff0100f2052a01000000434104f1a4b8b5ba1fc8dc57c06a9e4edf1c2e08850d910d2fb2506dfcaba45a06577b89a018b509b480b14cd81df75427bd46399e4ce3081d68c00781cdd8cec07172ac00000000"
    }
  ]
}