{
  "hash": "00000000c9ec538cab7f38ef9c67a95742f56ab07b0a37c5be6b02808dbfb4e0",
  "confirmations": 52054,
  "height": 171,
  "version": 1,
  "versionHex": "00000001",
  "merkleroot": "d5f2d21453a6f0e67b5c42959c9700853e4c4d46fa7519d1cc58e77369c893f2",
  "time": 1231731401,
  "mediantime": 1231716329,
  "nonce": 653436935,
  "bits": "1d00ffff",
  "difficulty": 1,
  "chainwork": "000000000000000000000000000000000000000000000000000000ac00ac00ac",
  "nTx": 1,
  "previousblockhash": "00000000d1145790a8694403d4063f323d499e655c83426834d4ce2f8dd4a2ee",
  "nextblockhash": "00000000e3efabf60693ecc2519c5f761801ccac25c2ac89e32d11dd92686854",
  "strippedsize": 215,
  "size": 215,
  "weight": 860,
  "tx": [
    {
      "txid": "d5f2d21453a6f0e67b5c42959c9700853e4c4d46fa7519d1cc58e77369c893f2",
      "hash": "d5f2d21453a6f0e67b5c42959c9700853e4c4d46fa7519d1cc58e77369c893f2",
      "version": 1,
      "size": 134,
      "vsize": 134,
      "weight": 536,
      "locktime": 0,
      "vin": [
        {
          "coinbase": "04ffff001d010e",
          "sequence": 4294967295
        }
      ],
      "vout": [
        {
          "value": 50.0,
          "n": 0,
          "scriptPubKey": {
            "asm": "04566824c312073315df60e5aa6490b6cdd80cd90f6a8f02e022ca3c2d52968c253006c9c602e03aed7be52d6ac55f5b557c72529bcc3899ace7eb4227153eb44b OP_CHECKSIG",
            "desc": "pk(04566824c312073315df60e5aa6490b6cdd80cd90f6a8f02e022ca3c2d52968c253006c9c602e03aed7be52d6ac55f5b557c72529bcc3899ace7eb4227153eb44b)#zgne8095",
            "hex": "4104566824c312073315df60e5aa6490b6cdd80cd90f6a8f02e022ca3c2d52968c253006c9c602e03aed7be52d6ac55f5b557c72529bcc3899ace7eb4227153eb44bac",
            "type": "pubkey"
          }
        }
      ],
      "hex": "01000000010000000000000000000000000000000000000000000000000000000000000000ffffffff0704ffff001d010effffffff0100f2052a01000000434104566824c312073315df60e5aa6490b6cdd80cd90f6a8f02e022ca3c2d52968c253006c9c602e03aed7be52d6ac55f5b557c72529bcc3899ace7eb4227153eb44bac00000000"
    }
  ]
}