{
  "hash": "000000007e10e9dae52f6354019e0eed8092447a6cf2a5686759b6824767ad61",
  "confirmations": 50215,
  "height": 2883,
  "version": 1,
  "versionHex": "00000001",
  "merkleroot": "cc56275ea5686435f0a6125ff4f7cdadaa6d905ea185016f3de6fd23bd3eed60",
  "time": 1233680354,
  "mediantime": 1233677362,
  "nonce": 118376071,
  "bits": "1d00ffff",
  "difficulty": 1,
  "chainwork": "00000000000000000000000000000000000000000000000000000b440b440b44",
  "nTx": 1,
  "previousblockhash": "00000000c7a90f69f3edd1bc0bbf1391decc8367519b61fbbf81a05b43e04a6c",
  "nextblockhash": "00000000b33665a706914ef4eb26abb9b021c47b285108480f0ed2a2ef346e8b",
  "strippedsize": 216,
  "size": 216,
  "weight": 864,
  "tx": [
    {
      "txid": "cc56275ea5686435f0a6125ff4f7cdadaa6d905ea185016f3de6fd23bd3eed60",
      "hash": "cc56275ea5686435f0a6125ff4f7cdadaa6d905ea185016f3de6fd23bd3eed60",
      "version": 1,
      "size": 135,
      "vsize": 135,
      "weight": 540,
      "locktime": 0,
      "vin": [
        {
          "coinbase": "04ffff001d028b00",
          "sequence": 4294967295
        }
      ],
      "vout": [
        {
          "value": 50.0,
          "n": 0,
          "scriptPubKey": {
            "asm": "049cb53295c1c907dfc00f4fa026681a73b8d844149b858a9e4f2409e37df26da805334dc09af091512f6d5fb0abed1c1f423911425f5ee906b3e0b50429670f9a OP_CHECKSIG",
            "desc": "pk(049cb53295c1c907dfc00f4fa026681a73b8d844149b858a9e4f2409e37df26da805334dc09af091512f6d5fb0abed1c1f423911425f5ee906b3e0b50429670f9a)#zdkk2twu",
            "hex": "41049cb53295c1c907dfc00f4fa026681a73b8d844149b858a9e4f2409e37df26da805334dc09af091512f6d5fb0abed1c1f423911425f5ee906b3e0b50429670f9aac",
            "type": "pubkey"
          }
        }
      ],
      "hex": "01000000010000000000000000000000000000000000000000000000000000000000000000ffffffff0804ffff001d028b00ffffffff0100f2052a010000004341049cb53295c1c907dfc00f4fa026681a73b8d844149b858a9e4f2409e37df26da805334dc09af091512f6d5fb0abed1c1f423911425f5ee906b3e0b50429670f9aac00000000"
    }
  ]
}