{
  "hash": "000000000ca08faf922f8cd81502787e39cc3c8669ed202e6bb4149264d9de21",
  "confirmations": 43302,
  "height": 9796,
  "version": 1,
  "versionHex": "00000001",
  "merkleroot": "e4658755ca31ceab3b27ed39a25e6443ddb8734c4f9ec8d03764835c803ee89d",
  "time": 1238854097,
  "mediantime": 1238851188,
  "nonce": 8003631,
  "bits": "1d00ffff",
  "difficulty": 1,
  "chainwork": "0000000000000000000000000000000000000000000000000000264526452645",
  "nTx": 1,
  "previousblockhash": "0000000048ef72a0db69d3fa9679d6a2ab5d71eb80d043089ea8fa423fafdc57",
  "nextblockhash": "000000002f571b4fe2815c4697a29a7edf683d27aacd96680247087b5d787e9f",
  "strippedsize": 215,
  "size": 215,
  "weight": 860,
  "tx": [
    {
      "txid": "e4658755ca31ceab3b27ed39a25e6443ddb8734c4f9ec8d03764835c803ee89d",
      "hash": "e4658755ca31ceab3b27ed39a25e6443ddb8734c4f9ec8d03764835c803ee89d",
      "version": 1,
      "size": 134,
      "vsize": 134,
      "weight": 536,
      "locktime": 0,
      "vin": [
        {
          "coinbase": "04ffff001d013d",
          "sequence": 4294967295
        }
      ],
      "vout": [
        {
          "value": 50.0,
          "n": 0,
          "scriptPubKey": {
            "asm": "0496db32870a22a178870a1947246fde7c920a3063909e45352f00d8d01137ddbc6e3f55a5c3d383164ecfff9c5d641778cb12380406edcb9c01a3e55826a34676 OP_CHECKSIG",
            "desc": "pk(0496db32870a22a178870a1947246fde7c920a3063909e45352f00d8d01137ddbc6e3f55a5c3d383164ecfff9c5d641778cb12380406edcb9c01a3e55826a34676)#hln7qan7",
            "hex": "410496db32870a22a178870a1947246fde7c920a3063909e45352f00d8d01137ddbc6e3f55a5c3d383164ecfff9c5d641778cb12380406edcb9c01a3e55826a34676ac",
            "type": "pubkey"
          }
        }
      ],
      "hex": "01000000010000000000000000000000000000000000000000000000000000000000000000ffffffff0704ffff001d013dffffffff0100f2052a0100000043410496db32870a22a178870a1947246fde7c920a3063909e45352f00d8d01137ddbc6e3f55a5c3d383164ecfff9c5d641778cb12380406edcb9c01a3e55826a34676ac00000000"
    }
  ]
}