{
  "hash": "0000000055a12319e123c04d357b87f5fb27f3e3de80a72de797db8f97018c0a",
  "confirmations": 52321,
  "height": 503,
  "version": 1,
  "versionHex": "00000001",
  "merkleroot": "dbc96d6c55bd74f37ab8d6383ca7b80d9b243297d779ceeabcd1d55fc5cc4a8e",
  "time": 1231970693,
  "mediantime": 1231966976,
  "nonce": 3058291991,
  "bits": "1d00ffff",
  "difficulty": 1,
  "chainwork": "000000000000000000000000000000000000000000000000000001f801f801f8",
  "nTx": 1,
  "previousblockhash": "000000003727134a4823b6c4c5245e961fff7816fc494742fb0abd353c94757b",
  "nextblockhash": "000000006c298ed28e13fc5f9583581f7497c299abdae9b78c098eeb8f13b1ee",
  "strippedsize": 216,
  "size": 216,
  "weight": 864,
  "tx": [
    {
      "txid": "dbc96d6c55bd74f37ab8d6383ca7b80d9b243297d779ceeabcd1d55fc5cc4a8e",
      "hash": "dbc96d6c55bd74f37ab8d6383ca7b80d9b243297d779ceeabcd1d55fc5cc4a8e",
      "version": 1,
      "size": 135,
      "vsize": 135,
      "weight": 540,
      "locktime": 0,
      "vin": [
        {
          "coinbase": "04ffff001d028204",
          "sequence": 4294967295
        }
      ],
      "vout": [
        {
          "value": 50.0,
          "n": 0,
          "scriptPubKey": {
            "asm": "04ba0ee81a39e907df796ee8a68ae4be1def85f287cc0dd4c46dcf9c4f4a282a075eca68713d81523ac458671ac3d2147fa71f5d7b49cbdfdd670c2971bfde0062 OP_CHECKSIG",
            "desc": "pk(04ba0ee81a39e907df796ee8a68ae4be1def85f287cc0dd4c46dcf9c4f4a282a075eca68713d81523ac458671ac3d2147fa71f5d7b49cbdfdd670c2971bfde0062)#06nch573",
            "hex": "4104ba0ee81a39e907df796ee8a68ae4be1def85f287cc0dd4c46dcf9c4f4a282a075eca68713d81523ac458671ac3d2147fa71f5d7b49cbdfdd670c2971bfde0062ac",
            "type": "pubkey"
          }
        }
      ],
      "hex": "01000000010000000000000000000000000000000000000000000000000000000000000000ffffffff0804ffff001d028204ffffffff0100f2052a01000000434104ba0ee81a39e907df796ee8a68ae4be1def85f287cc0dd4c46dcf9c4f4a282a075eca68713d81523ac458671ac3d2147fa71f5d7b49cbdfdd670c2971bfde0062ac00000000"
    }
  ]
}