{
  "hash": "000000005fb69b9bec712a7f91f9fec73e942eeb08c808585afeba0aef29db6d",
  "confirmations": 46720,
  "height": 6378,
  "version": 1,
  "versionHex": "00000001",
  "merkleroot": "77fd0f6e8b033a8d52d8a259482c7489f59b22cb9dfba84d3052da14f3801d0e",
  "time": 1236241310,
  "mediantime": 1236235893,
  "nonce": 2860703522,
  "bits": "1d00ffff",
  "difficulty": 1,
  "chainwork": "000000000000000000000000000000000000000000000000000018eb18eb18eb",
  "nTx": 1,
  "previousblockhash": "00000000d6612711fbafefd7143b744441cda783030178232a2a7f7d219933c4",
  "nextblockhash": "0000000060911d1cafd5d115e1a83114626c9fe421b8f9bd5152a347c5238579",
  "strippedsize": 216,
  "size": 216,
  "weight": 864,
  "tx": [
    {
      "txid": "77fd0f6e8b033a8d52d8a259482c7489f59b22cb9dfba84d3052da14f3801d0e",
      "hash": "77fd0f6e8b033a8d52d8a259482c7489f59b22cb9dfba84d3052da14f3801d0e",
      "version": 1,
      "size": 135,
      "vsize": 135,
      "weight": 540,
      "locktime": 0,
      "vin": [
        {
          "coinbase": "04ffff001d026801",
          "sequence": 4294967295
        }
      ],
      "vout": [
        {
          "value": 50.0,
          "n": 0,
          "scriptPubKey": {
            "asm": "04b675fba31e7bc8654fffd1225afe50f6466a333e50d8b6ae846666723b6023635cc47b6bdf9d6530775a861c96695b96d136314d578e9560f3098f291ad80bdb OP_CHECKSIG",
            "desc": "pk(04b675fba31e7bc8654fffd1225afe50f6466a333e50d8b6ae846666723b6023635cc47b6bdf9d6530775a861c96695b96d136314d578e9560f3098f291ad80bdb)#7d9lxnns",
            "hex": "4104b675fba31e7bc8654fffd1225afe50f6466a333e50d8b6ae846666723b6023635cc47b6bdf9d6530775a861c96695b96d136314d578e9560f3098f291ad80bdbac",
            "type": "pubkey"
          }
        }
      ],
      "hex": "01000000010000000000000000000000000000000000000000000000000000000000000000ffffffff0804ffff001d026801ffffffff0100f2052a01000000434104b675fba31e7bc8654fffd1225afe50f6466a333e50d8b6ae846666723b6023635cc47b6bdf9d6530775a861c96695b96d136314d578e9560f3098f291ad80bdbac00000000"
    }
  ]
}