{
  "hash": "00000000ad8174a71c1b2c01fd6076143c2cf57d768bf80d7c11b6721d3a2525",
  "confirmations": 52348,
  "height": 750,
  "version": 1,
  "versionHex": "00000001",
  "merkleroot": "3ea06ee850efdfe56068e643ef9238ec49dadc333c49c43bfccc248577d0d1c9",
  "time": 1232152343,
  "mediantime": 1232147265,
  "nonce": 3488550421,
  "bits": "1d00ffff",
  "difficulty": 1,
  "chainwork": "000000000000000000000000000000000000000000000000000002ef02ef02ef",
  "nTx": 1,
  "previousblockhash": "00000000f6b7bac6920871b0a04a0c6c0d3aafd178acc7d057562c45f7dfc0ce",
  "nextblockhash": "000000004670c45a768b79470e72978d3e265d632334e0a3e79ec13fa866b425",
  "strippedsize": 216,
  "size": 216,
  "weight": 864,
  "tx": [
    {
      "txid": "3ea06ee850efdfe56068e643ef9238ec49dadc333c49c43bfccc248577d0d1c9",
      "hash": "3ea06ee850efdfe56068e643ef9238ec49dadc333c49c43bfccc248577d0d1c9",
      "version": 1,
      "size": 135,
      "vsize": 135,
      "weight": 540,
      "locktime": 0,
      "vin": [
        {
          "coinbase": "04ffff001d02a000",
          "sequence": 4294967295
        }
      ],
      "vout": [
        {
          "value": 50.0,
          "n": 0,
          "scriptPubKey": {
            "asm": "04cc3f9d2cde7c80eafbb8d80385086064bdb436c95457f9eca72cc90184c1026b47fce3b611df776c19156fb3919ee6cc289f7cd570f8115990a892f5241a1890 OP_CHECKSIG",
            "desc": "pk(04cc3f9d2cde7c80eafbb8d80385086064bdb436c95457f9eca72cc90184c1026b47fce3b611df776c19156fb3919ee6cc289f7cd570f8115990a892f5241a1890)#hdwlunza",
            "hex": "4104cc3f9d2cde7c80eafbb8d80385086064bdb436c95457f9eca72cc90184c1026b47fce3b611df776c19156fb3919ee6cc289f7cd570f8115990a892f5241a1890ac",
            "type": "pubkey"
          }
        }
      ],
      "hex": "01000000010000000000000000000000000000000000000000000000000000000000000000ffffffff0804ffff001d02a000ffffffff0100f2052a01000000434104cc3f9d2cde7c80eafbb8d80385086064bdb436c95457f9eca72cc90184c1026b47fce3b611df776c19156fb3919ee6cc289f7cd570f8115990a892f5241a1890ac00000000"
    }
  ]
}