{
  "hash": "00000000a44852891cf522a466015a94e7ab363e5ad84e0992e60d82a1f66c3d",
  "confirmations": 45926,
  "height": 7172,
  "version": 1,
  "versionHex": "00000001",
  "merkleroot": "1fb89114fe6d5c4f0826365a5d81521891e2f8d5ca00569a57bf404b9993c30c",
  "time": 1236850382,
  "mediantime": 1236846778,
  "nonce": 577921082,
  "bits": "1d00ffff",
  "difficulty": 1,
  "chainwork": "00000000000000000000000000000000000000000000000000001c051c051c05",
  "nTx": 1,
  "previousblockhash": "0000000048d63c87803479db8600d99d8b1a4644f7361da1e23ac06eacbaefaf",
  "nextblockhash": "0000000010d6771ec0c8675cc55bcaeebf7af18df3fd4dc38858fc9a115112dd",
  "strippedsize": 216,
  "size": 216,
  "weight": 864,
  "tx": [
    {
      "txid": "1fb89114fe6d5c4f0826365a5d81521891e2f8d5ca00569a57bf404b9993c30c",
      "hash": "1fb89114fe6d5c4f0826365a5d81521891e2f8d5ca00569a57bf404b9993c30c",
      "version": 1,
      "size": 135,
      "vsize": 135,
      "weight": 540,
      "locktime": 0,
      "vin": [
        {
          "coinbase": "04ffff001d024b05",
          "sequence": 4294967295
        }
      ],
      "vout": [
        {
          "value": 50.0,
          "n": 0,
          "scriptPubKey": {
            "asm": "04eb17bd33fbce0fcb99352a14143bd208aec62f1f19ff5e3b5e5c062a0c5a0574e7341670773c407bbc5e6aaf4d192125757acc71ac81263ce6a5fbd016cc5802 OP_CHECKSIG",
            "desc": "pk(04eb17bd33fbce0fcb99352a14143bd208aec62f1f19ff5e3b5e5c062a0c5a0574e7341670773c407bbc5e6aaf4d192125757acc71ac81263ce6a5fbd016cc5802)#lktchuz5",
            "hex": "4104eb17bd33fbce0fcb99352a14143bd208aec62f1f19ff5e3b5e5c062a0c5a0574e7341670773c407bbc5e6aaf4d192125757acc71ac81263ce6a5fbd016cc5802ac",
            "type": "pubkey"
          }
        }
      ],
      "hex": "01000000010000000000000000000000000000000000000000000000000000000000000000ffffffff0804ffff001d024b05ffffffff0100f2052a01000000434104eb17bd33fbce0fcb99352a14143bd208aec62f1f19ff5e3b5e5c062a0c5a0574e7341670773c407bbc5e6aaf4d192125757acc71ac81263ce6a5fbd016cc5802ac00000000"
    }
  ]
}