{
  "hash": "00000000ee13abb6a7b843cd46d0a5318e27139585832922a4a2dd16096eca50",
  "confirmations": 52220,
  "height": 878,
  "version": 1,
  "versionHex": "00000001",
  "merkleroot": "fe8459c15da69f76acd83eb79c28fad313a08dd28453051f216d41d3fbf7ff55",
  "time": 1232256159,
  "mediantime": 1232250742,
  "nonce": 2290555911,
  "bits": "1d00ffff",
  "difficulty": 1,
  "chainwork": "0000000000000000000000000000000000000000000000000000036f036f036f",
  "nTx": 1,
  "previousblockhash": "0000000034c2e9a10fa013104bd7e20ee50a6fb2e1ee4445b5cb1958c13cabec",
  "nextblockhash": "00000000703049cdf8677b655afc88c370a89788f39a5c76a0489af5d3b8477e",
  "strippedsize": 216,
  "size": 216,
  "weight": 864,
  "tx": [
    {
      "txid": "fe8459c15da69f76acd83eb79c28fad313a08dd28453051f216d41d3fbf7ff55",
      "hash": "fe8459c15da69f76acd83eb79c28fad313a08dd28453051f216d41d3fbf7ff55",
      "version": 1,
      "size": 135,
      "vsize": 135,
      "weight": 540,
      "locktime": 0,
      "vin": [
        {
          "coinbase": "04ffff001d022403",
          "sequence": 4294967295
        }
      ],
      "vout": [
        {
          "value": 50.0,
          "n": 0,
          "scriptPubKey": {
            "asm": "04c8b378f224cfa7aadca06d6003bc816fa4234e7c12d505030084ff02fa5fda582decac8c317a212b228fd044c8113310ccc790f6ac2ab51da338fa05fb99f887 OP_CHECKSIG",
            "desc": "pk(04c8b378f224cfa7aadca06d6003bc816fa4234e7c12d505030084ff02fa5fda582decac8c317a212b228fd044c8113310ccc790f6ac2ab51da338fa05fb99f887)#ryxh7dlz",
            "hex": "4104c8b378f224cfa7aadca06d6003bc816fa4234e7c12d505030084ff02fa5fda582decac8c317a212b228fd044c8113310ccc790f6ac2ab51da338fa05fb99f887ac",
            "type": "pubkey"
          }
        }
      ],
      "hex": "01000000010000000000000000000000000000000000000000000000000000000000000000ffffffff0804ffff001d022403ffffffff0100f2052a01000000434104c8b378f224cfa7aadca06d6003bc816fa4234e7c12d505030084ff02fa5fda582decac8c317a212b228fd044c8113310ccc790f6ac2ab51da338fa05fb99f887ac00000000"
    }
  ]
}