{
  "hash": "0000000074cdfa02e95668af05ee2bbf380b62e1856fdcb587ba4e90962a5b2f",
  "confirmations": 47024,
  "height": 6074,
  "version": 1,
  "versionHex": "00000001",
  "merkleroot": "a9a6d448202c70d35290c83b1be84aab72c45f7bfba5b02e023cc496056c3c69",
  "time": 1235987212,
  "mediantime": 1235983569,
  "nonce": 2726286112,
  "bits": "1d00ffff",
  "difficulty": 1,
  "chainwork": "000000000000000000000000000000000000000000000000000017bb17bb17bb",
  "nTx": 1,
  "previousblockhash": "000000008199d6e2f355950fc8f30c1f702d935e2b69ba8a310753ef6683a98b",
  "nextblockhash": "00000000e55bdb23e325d66d095a16c6b803094f0ee7b782b3ccbb8e1477c7e9",
  "strippedsize": 216,
  "size": 216,
  "weight": 864,
  "tx": [
    {
      "txid": "a9a6d448202c70d35290c83b1be84aab72c45f7bfba5b02e023cc496056c3c69",
      "hash": "a9a6d448202c70d35290c83b1be84aab72c45f7bfba5b02e023cc496056c3c69",
      "version": 1,
      "size": 135,
      "vsize": 135,
      "weight": 540,
      "locktime": 0,
      "vin": [
        {
          "coinbase": "04ffff001d024a06",
          "sequence": 4294967295
        }
      ],
      "vout": [
        {
          "value": 50.0,
          "n": 0,
          "scriptPubKey": {
            "asm": "04e76ccee45dce83a472d277e7cca96be4c8dd3c6e4ff46291bdb2092108c66418c4054b4218bf89f20fb44181b52b68b24e68a57e2efe1739225147c25080a268 OP_CHECKSIG",
            "desc": "pk(04e76ccee45dce83a472d277e7cca96be4c8dd3c6e4ff46291bdb2092108c66418c4054b4218bf89f20fb44181b52b68b24e68a57e2efe1739225147c25080a268)#353qa48n",
            "hex": "4104e76ccee45dce83a472d277e7cca96be4c8dd3c6e4ff46291bdb2092108c66418c4054b4218bf89f20fb44181b52b68b24e68a57e2efe1739225147c25080a268ac",
            "type": "pubkey"
          }
        }
      ],
      "hex": "01000000010000000000000000000000000000000000000000000000000000000000000000ffffffff0804ffff001d024a06ffffffff0100f2052a01000000434104e76ccee45dce83a472d277e7cca96be4c8dd3c6e4ff46291bdb2092108c66418c4054b4218bf89f20fb44181b52b68b24e68a57e2efe1739225147c25080a268ac00000000"
    }
  ]
}