{
  "hash": "00000000146e6b3b4659cacbcda38e5d26d1d3d668fa1048fb99d84a03789932",
  "confirmations": 51813,
  "height": 1285,
  "version": 1,
  "versionHex": "00000001",
  "merkleroot": "0346da4634e1d9a66f9cd107f05f828285455c3bfba72b223f808ef01ecaabb3",
  "time": 1232563860,
  "mediantime": 1232560088,
  "nonce": 223046516,
  "bits": "1d00ffff",
  "difficulty": 1,
  "chainwork": "0000000000000000000000000000000000000000000000000000050605060506",
  "nTx": 1,
  "previousblockhash": "00000000508635742fe3c95ba2d1c8a4a985de308e5e4b45b0d88c3e9beaa210",
  "nextblockhash": "000000008f40e88b84b2e59314f86eb02dad46f335c8897a3197d0b5894c6b06",
  "strippedsize": 215,
  "size": 215,
  "weight": 860,
  "tx": [
    {
      "txid": "0346da4634e1d9a66f9cd107f05f828285455c3bfba72b223f808ef01ecaabb3",
      "hash": "0346da4634e1d9a66f9cd107f05f828285455c3bfba72b223f808ef01ecaabb3",
      "version": 1,
      "size": 134,
      "vsize": 134,
      "weight": 536,
      "locktime": 0,
      "vin": [
        {
          "coinbase": "04ffff001d0114",
          "sequence": 4294967295
        }
      ],
      "vout": [
        {
          "value": 50.0,
          "n": 0,
          "scriptPubKey": {
            "asm": "04e7218ae15f02b6a93dad227137f184b4e7834ff7a37c43e254395b60856d229aaeb57325f52bddd832d577ef22218264d942f4aa9451f459a2f0259c93fbf77a OP_CHECKSIG",
            "desc": "pk(04e7218ae15f02b6a93dad227137f184b4e7834ff7a37c43e254395b60856d229aaeb57325f52bddd832d577ef22218264d942f4aa9451f459a2f0259c93fbf77a)#04nrrqq9",
            "hex": "4104e7218ae15f02b6a93dad227137f184b4e7834ff7a37c43e254395b60856d229aaeb57325f52bddd832d577ef22218264d942f4aa9451f459a2f0259c93fbf77aac",
            "type": "pubkey"
          }
        }
      ],
      "hex": "01000000010000000000000000000000000000000000000000000000000000000000000000ffffffff0704ffff001d0114ffffffff0100f2052a01000000434104e7218ae15f02b6a93dad227137f184b4e7834ff7a37c43e254395b60856d229aaeb57325f52bddd832d577ef22218264d942f4aa9451f459a2f0259c93fbf77aac00000000"
    }
  ]
}