{
  "hash": "0000000066980737855bff84002f94764abd800b953dd81f2ebe90a6ff5c0aef",
  "confirmations": 47719,
  "height": 5379,
  "version": 1,
  "versionHex": "00000001",
  "merkleroot": "e6e3739ec8158b3fc1a336869463e287aa52f97027d94250446588616c2f212c",
  "time": 1235423621,
  "mediantime": 1235419876,
  "nonce": 44873625,
  "bits": "1d00ffff",
  "difficulty": 1,
  "chainwork": "0000000000000000000000000000000000000000000000000000150415041504",
  "nTx": 1,
  "previousblockhash": "000000005b3b88b319812d3b189e398e206567f518dd0e3cea34c43b7bf2d710",
  "nextblockhash": "000000004b3de4b2d57b7945c0ed21980aa745db49ac039cb3ab27db972497d8",
  "strippedsize": 216,
  "size": 216,
  "weight": 864,
  "tx": [
    {
      "txid": "e6e3739ec8158b3fc1a336869463e287aa52f97027d94250446588616c2f212c",
      "hash": "e6e3739ec8158b3fc1a336869463e287aa52f97027d94250446588616c2f212c",
      "version": 1,
      "size": 135,
      "vsize": 135,
      "weight": 540,
      "locktime": 0,
      "vin": [
        {
          "coinbase": "04ffff001d02a400",
          "sequence": 4294967295
        }
      ],
      "vout": [
        {
          "value": 50.0,
          "n": 0,
          "scriptPubKey": {
            "asm": "049c6217067d1edf8d5f72f06f24f98afb4be62e98be9e8099950b6e08acf0b99f83fbf8de84c3f5cbed30f118aee034d8609c0aaa8a78fbdb0a2d705d44302959 OP_CHECKSIG",
            "desc": "pk(049c6217067d1edf8d5f72f06f24f98afb4be62e98be9e8099950b6e08acf0b99f83fbf8de84c3f5cbed30f118aee034d8609c0aaa8a78fbdb0a2d705d44302959)#wa5wa9km",
            "hex": "41049c6217067d1edf8d5f72f06f24f98afb4be62e98be9e8099950b6e08acf0b99f83fbf8de84c3f5cbed30f118aee034d8609c0aaa8a78fbdb0a2d705d44302959ac",
            "type": "pubkey"
          }
        }
      ],
      "hex": "01000000010000000000000000000000000000000000000000000000000000000000000000ffffffff0804ffff001d02a400ffffffff0100f2052a010000004341049c6217067d1edf8d5f72f06f24f98afb4be62e98be9e8099950b6e08acf0b99f83fbf8de84c3f5cbed30f118aee034d8609c0aaa8a78fbdb0a2d705d44302959ac00000000"
    }
  ]
}