{
  "hash": "00000000cf0fd555a9230400d78e655f1f5f44534897e3942d96f27076095405",
  "confirmations": 51927,
  "height": 1171,
  "version": 1,
  "versionHex": "00000001",
  "merkleroot": "4d164f721bbe714dfce4b333f157770850774147283b21dcbcbe86e17a332696",
  "time": 1232477955,
  "mediantime": 1232473286,
  "nonce": 3211632182,
  "bits": "1d00ffff",
  "difficulty": 1,
  "chainwork": "0000000000000000000000000000000000000000000000000000049404940494",
  "nTx": 1,
  "previousblockhash": "0000000037a74bef375488f46021f90d3690317a16f885a4e8f41e255d5dde09",
  "nextblockhash": "0000000088050140d2390ff996e2c3036b2594562441868303d3bed3b02f53c0",
  "strippedsize": 216,
  "size": 216,
  "weight": 864,
  "tx": [
    {
      "txid": "4d164f721bbe714dfce4b333f157770850774147283b21dcbcbe86e17a332696",
      "hash": "4d164f721bbe714dfce4b333f157770850774147283b21dcbcbe86e17a332696",
      "version": 1,
      "size": 135,
      "vsize": 135,
      "weight": 540,
      "locktime": 0,
      "vin": [
        {
          "coinbase": "04ffff001d022908",
          "sequence": 4294967295
        }
      ],
      "vout": [
        {
          "value": 50.0,
          "n": 0,
          "scriptPubKey": {
            "asm": "04f52ba755967ad4223d15a6a630ed6962eb1fc1f2014ccb0b2cc562aeff6231c4c65f8c54b52ffa2345dd83fcd65f659a23b85e32846cfe9d9fd114f3a39e9c35 OP_CHECKSIG",
            "desc": "pk(04f52ba755967ad4223d15a6a630ed6962eb1fc1f2014ccb0b2cc562aeff6231c4c65f8c54b52ffa2345dd83fcd65f659a23b85e32846cfe9d9fd114f3a39e9c35)#482m83rz",
            "hex": "4104f52ba755967ad4223d15a6a630ed6962eb1fc1f2014ccb0b2cc562aeff6231c4c65f8c54b52ffa2345dd83fcd65f659a23b85e32846cfe9d9fd114f3a39e9c35ac",
            "type": "pubkey"
          }
        }
      ],
      "hex": "01000000010000000000000000000000000000000000000000000000000000000000000000ffffffff0804ffff001d022908ffffffff0100f2052a01000000434104f52ba755967ad4223d15a6a630ed6962eb1fc1f2014ccb0b2cc562aeff6231c4c65f8c54b52ffa2345dd83fcd65f659a23b85e32846cfe9d9fd114f3a39e9c35ac00000000"
    }
  ]
}