{
  "hash": "00000000ef8702608c77533244518e2a8f4c6fe01986af24109a5e63b7b2d40d",
  "confirmations": 50091,
  "height": 3007,
  "version": 1,
  "versionHex": "00000001",
  "merkleroot": "ec725ddfe0d4ae522bfce85e90f16ad24b4f3e6467e8b283384148013c1e569e",
  "time": 1233766955,
  "mediantime": 1233763257,
  "nonce": 74169360,
  "bits": "1d00ffff",
  "difficulty": 1,
  "chainwork": "00000000000000000000000000000000000000000000000000000bc00bc00bc0",
  "nTx": 1,
  "previousblockhash": "0000000022b5b4e8016c2518a4fa06d89472b8a6fb4f97f82c67eb7b13147613",
  "nextblockhash": "000000001d000b3e4e9ab7de3b9ad7a442eb36f6aaaad8280ecdbd29c000be3b",
  "strippedsize": 216,
  "size": 216,
  "weight": 864,
  "tx": [
    {
      "txid": "ec725ddfe0d4ae522bfce85e90f16ad24b4f3e6467e8b283384148013c1e569e",
      "hash": "ec725ddfe0d4ae522bfce85e90f16ad24b4f3e6467e8b283384148013c1e569e",
      "version": 1,
      "size": 135,
      "vsize": 135,
      "weight": 540,
      "locktime": 0,
      "vin": [
        {
          "coinbase": "04ffff001d023f07",
          "sequence": 4294967295
        }
      ],
      "vout": [
        {
          "value": 50.0,
          "n": 0,
          "scriptPubKey": {
            "asm": "049b025a500cee57e5890367c0516ef8ac66bca48d33b1df280841cf7839f81d38f96baf7381c09798e716469d870f46df92deb7b27cb481183d478fdcadf99851 OP_CHECKSIG",
            "desc": "pk(049b025a500cee57e5890367c0516ef8ac66bca48d33b1df280841cf7839f81d38f96baf7381c09798e716469d870f46df92deb7b27cb481183d478fdcadf99851)#eayyzvj7",
            "hex": "41049b025a500cee57e5890367c0516ef8ac66bca48d33b1df280841cf7839f81d38f96baf7381c09798e716469d870f46df92deb7b27cb481183d478fdcadf99851ac",
            "type": "pubkey"
          }
        }
      ],
      "hex": "01000000010000000000000000000000000000000000000000000000000000000000000000ffffffff0804ffff001d023f07ffffffff0100f2052a010000004341049b025a500cee57e5890367c0516ef8ac66bca48d33b1df280841cf7839f81d38f96baf7381c09798e716469d870f46df92deb7b27cb481183d478fdcadf99851ac00000000"
    }
  ]
}