{
  "hash": "000000005d1fc8c58989690282c5e913a216323d5c2f87bfb2085fcc6061c753",
  "confirmations": 43835,
  "height": 9263,
  "version": 1,
  "versionHex": "00000001",
  "merkleroot": "14fa452018693256e0ceec1ff6937f4658901729b45f93de382d7d3eaa9e7c10",
  "time": 1238444034,
  "mediantime": 1238440328,
  "nonce": 3860306972,
  "bits": "1d00ffff",
  "difficulty": 1,
  "chainwork": "0000000000000000000000000000000000000000000000000000243024302430",
  "nTx": 1,
  "previousblockhash": "000000003fb1302addd7e4e2a041b834c601bcce32b06cec44ffda08bdc6807f",
  "nextblockhash": "00000000c4dbe2ba337fbe3ca768cca95e58c18f770042552dd8a41ee89204aa",
  "strippedsize": 216,
  "size": 216,
  "weight": 864,
  "tx": [
    {
      "txid": "14fa452018693256e0ceec1ff6937f4658901729b45f93de382d7d3eaa9e7c10",
      "hash": "14fa452018693256e0ceec1ff6937f4658901729b45f93de382d7d3eaa9e7c10",
      "version": 1,
      "size": 135,
      "vsize": 135,
      "weight": 540,
      "locktime": 0,
      "vin": [
        {
          "coinbase": "04ffff001d021401",
          "sequence": 4294967295
        }
      ],
      "vout": [
        {
          "value": 50.0,
          "n": 0,
          "scriptPubKey": {
            "asm": "043d4e26d445edfc25752c5165d4f2f65e8c525ae7198eb0d3ca1b660375832a9b7f1de19647eaef8983af57f71ace66afd84c67fc39e433523b4ae102b5d48f7d OP_CHECKSIG",
            "desc": "pk(043d4e26d445edfc25752c5165d4f2f65e8c525ae7198eb0d3ca1b660375832a9b7f1de19647eaef8983af57f71ace66afd84c67fc39e433523b4ae102b5d48f7d)#zseg3xju",
            "hex": "41043d4e26d445edfc25752c5165d4f2f65e8c525ae7198eb0d3ca1b660375832a9b7f1de19647eaef8983af57f71ace66afd84c67fc39e433523b4ae102b5d48f7dac",
            "type": "pubkey"
          }
        }
      ],
      "hex": "01000000010000000000000000000000000000000000000000000000000000000000000000ffffffff0804ffff001d021401ffffffff0100f2052a010000004341043d4e26d445edfc25752c5165d4f2f65e8c525ae7198eb0d3ca1b660375832a9b7f1de19647eaef8983af57f71ace66afd84c67fc39e433523b4ae102b5d48f7dac00000000"
    }
  ]
}