{
  "hash": "000000002feb2d6954b845d99c1453a0f157eada14f663cabc96138c1a2faa6e",
  "confirmations": 43216,
  "height": 9882,
  "version": 1,
  "versionHex": "00000001",
  "merkleroot": "0017da04374dd807e84f664b0f1d0966c1487f11b8952915a10aad36674d08e2",
  "time": 1238913299,
  "mediantime": 1238910343,
  "nonce": 2880707605,
  "bits": "1d00ffff",
  "difficulty": 1,
  "chainwork": "0000000000000000000000000000000000000000000000000000269b269b269b",
  "nTx": 1,
  "previousblockhash": "00000000305fd11c9d5e286ab19b452848a784abc927905d8d91e57928114f85",
  "nextblockhash": "0000000042ac8da50c65a15238747d1a4f7b3e95dda0ba068d5518d3a941a25a",
  "strippedsize": 216,
  "size": 216,
  "weight": 864,
  "tx": [
    {
      "txid": "0017da04374dd807e84f664b0f1d0966c1487f11b8952915a10aad36674d08e2",
      "hash": "0017da04374dd807e84f664b0f1d0966c1487f11b8952915a10aad36674d08e2",
      "version": 1,
      "size": 135,
      "vsize": 135,
      "weight": 540,
      "locktime": 0,
      "vin": [
        {
          "coinbase": "04ffff001d02c701",
          "sequence": 4294967295
        }
      ],
      "vout": [
        {
          "value": 50.0,
          "n": 0,
          "scriptPubKey": {
            "asm": "042e275e416094fab76c18bd430d21da1ca105ae46b833dd584f6f69f0a30461b9e20088edf19ad4195d2f2448869841d2b22555a0499918804a0cf13168e5329f OP_CHECKSIG",
            "desc": "pk(042e275e416094fab76c18bd430d21da1ca105ae46b833dd584f6f69f0a30461b9e20088edf19ad4195d2f2448869841d2b22555a0499918804a0cf13168e5329f)#pde56kvr",
            "hex": "41042e275e416094fab76c18bd430d21da1ca105ae46b833dd584f6f69f0a30461b9e20088edf19ad4195d2f2448869841d2b22555a0499918804a0cf13168e5329fac",
            "type": "pubkey"
          }
        }
      ],
      "hex": "01000000010000000000000000000000000000000000000000000000000000000000000000ffffffff0804ffff001d02c701ffffffff0100f2052a010000004341042e275e416094fab76c18bd430d21da1ca105ae46b833dd584f6f69f0a30461b9e20088edf19ad4195d2f2448869841d2b22555a0499918804a0cf13168e5329fac00000000"
    }
  ]
}