{
  "hash": "00000000b3678464e2e88134700b20ac0e29b30e7368698083a6591127e123d4",
  "confirmations": 46537,
  "height": 6561,
  "version": 1,
  "versionHex": "00000001",
  "merkleroot": "54c7808af92f84df79399da6c2e31166bb0cea06ed3bad25e9ff676409d859f1",
  "time": 1236374614,
  "mediantime": 1236369522,
  "nonce": 41497253,
  "bits": "1d00ffff",
  "difficulty": 1,
  "chainwork": "000000000000000000000000000000000000000000000000000019a219a219a2",
  "nTx": 1,
  "previousblockhash": "000000008c20691cd9b2c56bc110a3d9a431cbd08ce60bb63958f779e5ab081c",
  "nextblockhash": "000000000bc27e52b44cd7dec9b4fbcc20c3a3e5afcac46aeb5f6a31c4c71b18",
  "strippedsize": 216,
  "size": 216,
  "weight": 864,
  "tx": [
    {
      "txid": "54c7808af92f84df79399da6c2e31166bb0cea06ed3bad25e9ff676409d859f1",
      "hash": "54c7808af92f84df79399da6c2e31166bb0cea06ed3bad25e9ff676409d859f1",
      "version": 1,
      "size": 135,
      "vsize": 135,
      "weight": 540,
      "locktime": 0,
      "vin": [
        {
          "coinbase": "04ffff001d029701",
          "sequence": 4294967295
        }
      ],
      "vout": [
        {
          "value": 50.0,
          "n": 0,
          "scriptPubKey": {
            "asm": "0496f746d04d3fce400d55801ba32a3a9183cf8c7a956388ad3e0e471522d6a173d028b90495aab4cca4830041d4a8b4d5e206ffb75e95cea718ad9643345c57ef OP_CHECKSIG",
            "desc": "pk(0496f746d04d3fce400d55801ba32a3a9183cf8c7a956388ad3e0e471522d6a173d028b90495aab4cca4830041d4a8b4d5e206ffb75e95cea718ad9643345c57ef)#ew3qzcea",
            "hex": "410496f746d04d3fce400d55801ba32a3a9183cf8c7a956388ad3e0e471522d6a173d028b90495aab4cca4830041d4a8b4d5e206ffb75e95cea718ad9643345c57efac",
            "type": "pubkey"
          }
        }
      ],
      "hex": "01000000010000000000000000000000000000000000000000000000000000000000000000ffffffff0804ffff001d029701ffffffff0100f2052a0100000043410496f746d04d3fce400d55801ba32a3a9183cf8c7a956388ad3e0e471522d6a173d028b90495aab4cca4830041d4a8b4d5e206ffb75e95cea718ad9643345c57efac00000000"
    }
  ]
}