{
  "hash": "00000000cafedc2f63b9f605bd03dfb7ca612b3f3500d9268a5e61a1fcdbaa96",
  "confirmations": 50734,
  "height": 2364,
  "version": 1,
  "versionHex": "00000001",
  "merkleroot": "824f361c94d6d04fd87a739bc9d767c656fdc770bdccda22512977809743b48e",
  "time": 1233324226,
  "mediantime": 1233321637,
  "nonce": 2734344736,
  "bits": "1d00ffff",
  "difficulty": 1,
  "chainwork": "0000000000000000000000000000000000000000000000000000093d093d093d",
  "nTx": 1,
  "previousblockhash": "00000000e88527b4966a476e828e7226af310d43288b3a733b15c947053414c9",
  "nextblockhash": "0000000080fe9cc5080967c294bbe730b871dd656658b32fccc74bb0a2d579e7",
  "strippedsize": 216,
  "size": 216,
  "weight": 864,
  "tx": [
    {
      "txid": "824f361c94d6d04fd87a739bc9d767c656fdc770bdccda22512977809743b48e",
      "hash": "824f361c94d6d04fd87a739bc9d767c656fdc770bdccda22512977809743b48e",
      "version": 1,
      "size": 135,
      "vsize": 135,
      "weight": 540,
      "locktime": 0,
      "vin": [
        {
          "coinbase": "04ffff001d02d002",
          "sequence": 4294967295
        }
      ],
      "vout": [
        {
          "value": 50.0,
          "n": 0,
          "scriptPubKey": {
            "asm": "042d33de711dabd740408d6b9d227554d7e5de1221d44ad102d554de5cff09d339c026f1fe6356caf8d2439750b4b571325b37ced986283008e34637e9d63d112a OP_CHECKSIG",
            "desc": "pk(042d33de711dabd740408d6b9d227554d7e5de1221d44ad102d554de5cff09d339c026f1fe6356caf8d2439750b4b571325b37ced986283008e34637e9d63d112a)#umx3p9p4",
            "hex": "41042d33de711dabd740408d6b9d227554d7e5de1221d44ad102d554de5cff09d339c026f1fe6356caf8d2439750b4b571325b37ced986283008e34637e9d63d112aac",
            "type": "pubkey"
          }
        }
      ],
      "hex": "01000000010000000000000000000000000000000000000000000000000000000000000000ffffffff0804ffff001d02d002ffffffff0100f2052a010000004341042d33de711dabd740408d6b9d227554d7e5de1221d44ad102d554de5cff09d339c026f1fe6356caf8d2439750b4b571325b37ced986283008e34637e9d63d112aac00000000"
    }
  ]
}