{
  "hash": "000000008a11f31763a5afe4f820b00a9793b63434b916b4c53cf582378833a3",
  "confirmations": 43328,
  "height": 9770,
  "version": 1,
  "versionHex": "00000001",
  "merkleroot": "1df5e9286d5c1622cd24a93ff2391172bb80680dde054e967b37addd4c9673b8",
  "time": 1238833685,
  "mediantime": 1238830317,
  "nonce": 104519248,
  "bits": "1d00ffff",
  "difficulty": 1,
  "chainwork": "0000000000000000000000000000000000000000000000000000262b262b262b",
  "nTx": 1,
  "previousblockhash": "0000000052a967356e6fc462d73a38732b64bde78622497cfb948dc93bcfef18",
  "nextblockhash": "0000000093f6623ff5855f72bbd8893a8a3f6f482d9365a882c23540c1354c4b",
  "strippedsize": 216,
  "size": 216,
  "weight": 864,
  "tx": [
    {
      "txid": "1df5e9286d5c1622cd24a93ff2391172bb80680dde054e967b37addd4c9673b8",
      "hash": "1df5e9286d5c1622cd24a93ff2391172bb80680dde054e967b37addd4c9673b8",
      "version": 1,
      "size": 135,
      "vsize": 135,
      "weight": 540,
      "locktime": 0,
      "vin": [
        {
          "coinbase": "04ffff001d02e210",
          "sequence": 4294967295
        }
      ],
      "vout": [
        {
          "value": 50.0,
          "n": 0,
          "scriptPubKey": {
            "asm": "0418a6fb247490e36e22a83faab8290520b93c32d04e42764ed52e3517fa53dc26d78154f1ff9f1a52c5efd8ed6894d18b3ccd39f008772e7e58f3f61c325b6ce9 OP_CHECKSIG",
            "desc": "pk(0418a6fb247490e36e22a83faab8290520b93c32d04e42764ed52e3517fa53dc26d78154f1ff9f1a52c5efd8ed6894d18b3ccd39f008772e7e58f3f61c325b6ce9)#rrq4hz6j",
            "hex": "410418a6fb247490e36e22a83faab8290520b93c32d04e42764ed52e3517fa53dc26d78154f1ff9f1a52c5efd8ed6894d18b3ccd39f008772e7e58f3f61c325b6ce9ac",
            "type": "pubkey"
          }
        }
      ],
      "hex": "01000000010000000000000000000000000000000000000000000000000000000000000000ffffffff0804ffff001d02e210ffffffff0100f2052a0100000043410418a6fb247490e36e22a83faab8290520b93c32d04e42764ed52e3517fa53dc26d78154f1ff9f1a52c5efd8ed6894d18b3ccd39f008772e7e58f3f61c325b6ce9ac00000000"
    }
  ]
}