{
  "hash": "000000008a487ac5d4af04a5452e7b5f68143eaa0ce93b8cc3984a8cf619e702",
  "confirmations": 45765,
  "height": 7333,
  "version": 1,
  "versionHex": "00000001",
  "merkleroot": "7c54772849d5194f61d72455fca7a45b0b50cfc4f5759ccc55873e621dfde5f1",
  "time": 1236973004,
  "mediantime": 1236968157,
  "nonce": 3269513258,
  "bits": "1d00ffff",
  "difficulty": 1,
  "chainwork": "00000000000000000000000000000000000000000000000000001ca61ca61ca6",
  "nTx": 1,
  "previousblockhash": "00000000e1cb38cae3a27e65008e52e85db2ac6740d9a0cd688d3e60c63d3bf4",
  "nextblockhash": "000000004ae42a08f18ecfb1ce1092cf3c6834be290c0ea1096be8a1625c9187",
  "strippedsize": 216,
  "size": 216,
  "weight": 864,
  "tx": [
    {
      "txid": "7c54772849d5194f61d72455fca7a45b0b50cfc4f5759ccc55873e621dfde5f1",
      "hash": "7c54772849d5194f61d72455fca7a45b0b50cfc4f5759ccc55873e621dfde5f1",
      "version": 1,
      "size": 135,
      "vsize": 135,
      "weight": 540,
      "locktime": 0,
      "vin": [
        {
          "coinbase": "04ffff001d024108",
          "sequence": 4294967295
        }
      ],
      "vout": [
        {
          "value": 50.0,
          "n": 0,
          "scriptPubKey": {
            "asm": "04779fbcadead265b41d75d446321c26d5261718e5e040ed10bf8e35fe7a2397ec06dd4b47ac21ed7ba95e408b52f57a9ef58e23433e2c0eecb7a93a1d306da88a OP_CHECKSIG",
            "desc": "pk(04779fbcadead265b41d75d446321c26d5261718e5e040ed10bf8e35fe7a2397ec06dd4b47ac21ed7ba95e408b52f57a9ef58e23433e2c0eecb7a93a1d306da88a)#jg397p5r",
            "hex": "4104779fbcadead265b41d75d446321c26d5261718e5e040ed10bf8e35fe7a2397ec06dd4b47ac21ed7ba95e408b52f57a9ef58e23433e2c0eecb7a93a1d306da88aac",
            "type": "pubkey"
          }
        }
      ],
      "hex": "01000000010000000000000000000000000000000000000000000000000000000000000000ffffffff0804ffff001d024108ffffffff0100f2052a01000000434104779fbcadead265b41d75d446321c26d5261718e5e040ed10bf8e35fe7a2397ec06dd4b47ac21ed7ba95e408b52f57a9ef58e23433e2c0eecb7a93a1d306da88aac00000000"
    }
  ]
}