{
  "hash": "00000000b51605f3005d43217446c483615c74d95956b4c569b4682e42fbe05d",
  "confirmations": 46347,
  "height": 6751,
  "version": 1,
  "versionHex": "00000001",
  "merkleroot": "a06664177aa4d27d4ee631fbc44f37bc94ff3b81e3fe08e4dd56cc966fb3f60a",
  "time": 1236521265,
  "mediantime": 1236516599,
  "nonce": 1395305782,
  "bits": "1d00ffff",
  "difficulty": 1,
  "chainwork": "00000000000000000000000000000000000000000000000000001a601a601a60",
  "nTx": 1,
  "previousblockhash": "0000000033db164200689cb657cfd86a66ee6ff38679c388517948fef79b7423",
  "nextblockhash": "000000001c6e1e47a1d818180a56d06abfc729f2edc05f24c6b61f20c077f2ae",
  "strippedsize": 216,
  "size": 216,
  "weight": 864,
  "tx": [
    {
      "txid": "a06664177aa4d27d4ee631fbc44f37bc94ff3b81e3fe08e4dd56cc966fb3f60a",
      "hash": "a06664177aa4d27d4ee631fbc44f37bc94ff3b81e3fe08e4dd56cc966fb3f60a",
      "version": 1,
      "size": 135,
      "vsize": 135,
      "weight": 540,
      "locktime": 0,
      "vin": [
        {
          "coinbase": "04ffff001d021e08",
          "sequence": 4294967295
        }
      ],
      "vout": [
        {
          "value": 50.0,
          "n": 0,
          "scriptPubKey": {
            "asm": "04ec823f190a1433fafc1ebf4e97ac72a9b93f372c9d4fb60e547a181d516838e9ef8357da7a33c66038fccd5557218da82908acb87d2dc0d710b4f8ed2aa10c54 OP_CHECKSIG",
            "desc": "pk(04ec823f190a1433fafc1ebf4e97ac72a9b93f372c9d4fb60e547a181d516838e9ef8357da7a33c66038fccd5557218da82908acb87d2dc0d710b4f8ed2aa10c54)#0jtyajda",
            "hex": "4104ec823f190a1433fafc1ebf4e97ac72a9b93f372c9d4fb60e547a181d516838e9ef8357da7a33c66038fccd5557218da82908acb87d2dc0d710b4f8ed2aa10c54ac",
            "type": "pubkey"
          }
        }
      ],
      "hex": "01000000010000000000000000000000000000000000000000000000000000000000000000ffffffff0804ffff001d021e08ffffffff0100f2052a01000000434104ec823f190a1433fafc1ebf4e97ac72a9b93f372c9d4fb60e547a181d516838e9ef8357da7a33c66038fccd5557218da82908acb87d2dc0d710b4f8ed2aa10c54ac00000000"
    }
  ]
}