{
  "hash": "00000000bdba2cb37492243786d1957714adb31e6149f5d20aca6653bca2b84b",
  "confirmations": 46711,
  "height": 6387,
  "version": 1,
  "versionHex": "00000001",
  "merkleroot": "5f06c8a75a5ae6b0e050b24162f8cf4158cb4375c25090007d16d2c3c9643788",
  "time": 1236245917,
  "mediantime": 1236243483,
  "nonce": 45179179,
  "bits": "1d00ffff",
  "difficulty": 1,
  "chainwork": "000000000000000000000000000000000000000000000000000018f418f418f4",
  "nTx": 1,
  "previousblockhash": "000000006b1567112c76099a3cb73da141ce0e8e237078ef59132102517b846d",
  "nextblockhash": "00000000f0173202be67ae5ba15d3a03bdecee57713b3805ba9c167596efcf08",
  "strippedsize": 216,
  "size": 216,
  "weight": 864,
  "tx": [
    {
      "txid": "5f06c8a75a5ae6b0e050b24162f8cf4158cb4375c25090007d16d2c3c9643788",
      "hash": "5f06c8a75a5ae6b0e050b24162f8cf4158cb4375c25090007d16d2c3c9643788",
      "version": 1,
      "size": 135,
      "vsize": 135,
      "weight": 540,
      "locktime": 0,
      "vin": [
        {
          "coinbase": "04ffff001d02e800",
          "sequence": 4294967295
        }
      ],
      "vout": [
        {
          "value": 50.0,
          "n": 0,
          "scriptPubKey": {
            "asm": "04f5c568b0e62a593dc7ee4b2264b00472c409fd0e1342fc0cd9e87e5e01949fe19bb5aec7d01db77eadf71a3e46a1c28ee1d0b6e733338575d6254276ce0cbd82 OP_CHECKSIG",
            "desc": "pk(04f5c568b0e62a593dc7ee4b2264b00472c409fd0e1342fc0cd9e87e5e01949fe19bb5aec7d01db77eadf71a3e46a1c28ee1d0b6e733338575d6254276ce0cbd82)#fefxsywp",
            "hex": "4104f5c568b0e62a593dc7ee4b2264b00472c409fd0e1342fc0cd9e87e5e01949fe19bb5aec7d01db77eadf71a3e46a1c28ee1d0b6e733338575d6254276ce0cbd82ac",
            "type": "pubkey"
          }
        }
      ],
      "hex": "01000000010000000000000000000000000000000000000000000000000000000000000000ffffffff0804ffff001d02e800ffffffff0100f2052a01000000434104f5c568b0e62a593dc7ee4b2264b00472c409fd0e1342fc0cd9e87e5e01949fe19bb5aec7d01db77eadf71a3e46a1c28ee1d0b6e733338575d6254276ce0cbd82ac00000000"
    }
  ]
}