{
  "hash": "0000000063b8e6166e70911584686416790fa849e581a076a280937b37aee2b8",
  "confirmations": 43747,
  "height": 9351,
  "version": 1,
  "versionHex": "00000001",
  "merkleroot": "9ba9f55f41b8859b164669bd0a14a3f7b53dd9693e8bcfbf0d810c33e0858e7f",
  "time": 1238512551,
  "mediantime": 1238508573,
  "nonce": 2924867073,
  "bits": "1d00ffff",
  "difficulty": 1,
  "chainwork": "0000000000000000000000000000000000000000000000000000248824882488",
  "nTx": 1,
  "previousblockhash": "000000008e25cdaf2d946a369f78990d6ec8e191d9d1427c7ff904172586a74a",
  "nextblockhash": "0000000037853fd38712b66711771ecc5960c612e151007d6765e71af0f515bb",
  "strippedsize": 216,
  "size": 216,
  "weight": 864,
  "tx": [
    {
      "txid": "9ba9f55f41b8859b164669bd0a14a3f7b53dd9693e8bcfbf0d810c33e0858e7f",
      "hash": "9ba9f55f41b8859b164669bd0a14a3f7b53dd9693e8bcfbf0d810c33e0858e7f",
      "version": 1,
      "size": 135,
      "vsize": 135,
      "weight": 540,
      "locktime": 0,
      "vin": [
        {
          "coinbase": "04ffff001d02a802",
          "sequence": 4294967295
        }
      ],
      "vout": [
        {
          "value": 50.0,
          "n": 0,
          "scriptPubKey": {
            "asm": "04e0f78290a73d696491bbe067b74ddc93f48a64cfbbd156584b61d568c4db770dc2983f9c2ac4ea4156015d26d0f017d65b2a0d32ade11e38c0b2d16bf3e69422 OP_CHECKSIG",
            "desc": "pk(04e0f78290a73d696491bbe067b74ddc93f48a64cfbbd156584b61d568c4db770dc2983f9c2ac4ea4156015d26d0f017d65b2a0d32ade11e38c0b2d16bf3e69422)#59yur4zd",
            "hex": "4104e0f78290a73d696491bbe067b74ddc93f48a64cfbbd156584b61d568c4db770dc2983f9c2ac4ea4156015d26d0f017d65b2a0d32ade11e38c0b2d16bf3e69422ac",
            "type": "pubkey"
          }
        }
      ],
      "hex": "01000000010000000000000000000000000000000000000000000000000000000000000000ffffffff0804ffff001d02a802ffffffff0100f2052a01000000434104e0f78290a73d696491bbe067b74ddc93f48a64cfbbd156584b61d568c4db770dc2983f9c2ac4ea4156015d26d0f017d65b2a0d32ade11e38c0b2d16bf3e69422ac00000000"
    }
  ]
}