{
  "hash": "000000001e1073c002b345c5294a18b269bc4959c1f1cdf27053617474b0b253",
  "confirmations": 46485,
  "height": 6613,
  "version": 1,
  "versionHex": "00000001",
  "merkleroot": "86a35fae99ee12b6e72493c4a586f2d5dfd67e69277ef39249375505572578bf",
  "time": 1236413363,
  "mediantime": 1236410750,
  "nonce": 76813392,
  "bits": "1d00ffff",
  "difficulty": 1,
  "chainwork": "000000000000000000000000000000000000000000000000000019d619d619d6",
  "nTx": 1,
  "previousblockhash": "00000000bd52e0af9167059079552edc131a6f1cd3e258517a50771eec15ae41",
  "nextblockhash": "00000000a91bf5d68cd1da7873fc2d6a173462df900eabc46b0d6fc20a223a0e",
  "strippedsize": 216,
  "size": 216,
  "weight": 864,
  "tx": [
    {
      "txid": "86a35fae99ee12b6e72493c4a586f2d5dfd67e69277ef39249375505572578bf",
      "hash": "86a35fae99ee12b6e72493c4a586f2d5dfd67e69277ef39249375505572578bf",
      "version": 1,
      "size": 135,
      "vsize": 135,
      "weight": 540,
      "locktime": 0,
      "vin": [
        {
          "coinbase": "04ffff001d028604",
          "sequence": 4294967295
        }
      ],
      "vout": [
        {
          "value": 50.0,
          "n": 0,
          "scriptPubKey": {
            "asm": "04e91359d5a532739c79090b2deb89b73821d466ef803a8c2c6c763d394946a7600f3cb37e4f268ac63b81341e18c8409dd31406bdbff7d8c2242e72b86575e0b5 OP_CHECKSIG",
            "desc": "pk(04e91359d5a532739c79090b2deb89b73821d466ef803a8c2c6c763d394946a7600f3cb37e4f268ac63b81341e18c8409dd31406bdbff7d8c2242e72b86575e0b5)#nvu5k6kt",
            "hex": "4104e91359d5a532739c79090b2deb89b73821d466ef803a8c2c6c763d394946a7600f3cb37e4f268ac63b81341e18c8409dd31406bdbff7d8c2242e72b86575e0b5ac",
            "type": "pubkey"
          }
        }
      ],
      "hex": "01000000010000000000000000000000000000000000000000000000000000000000000000ffffffff0804ffff001d028604ffffffff0100f2052a01000000434104e91359d5a532739c79090b2deb89b73821d466ef803a8c2c6c763d394946a7600f3cb37e4f268ac63b81341e18c8409dd31406bdbff7d8c2242e72b86575e0b5ac00000000"
    }
  ]
}