{
  "hash": "0000000009e9fa775a2d3fbf04779dc784bff89b95870a684ca597d3bdbe800d",
  "confirmations": 43525,
  "height": 9573,
  "version": 1,
  "versionHex": "00000001",
  "merkleroot": "38399f496cc206aa0f82986015b69e644199d68434065aa3cd88554d6eb96fa8",
  "time": 1238679964,
  "mediantime": 1238676951,
  "nonce": 25081229,
  "bits": "1d00ffff",
  "difficulty": 1,
  "chainwork": "0000000000000000000000000000000000000000000000000000256625662566",
  "nTx": 1,
  "previousblockhash": "000000006650fe70a9f6441e9b8a4411bda08b84b4baab240910a57e44d6fd14",
  "nextblockhash": "0000000078493daf495abe0ca316583c5b291ed4e2edc793e7348c70ad6b6c53",
  "strippedsize": 215,
  "size": 215,
  "weight": 860,
  "tx": [
    {
      "txid": "38399f496cc206aa0f82986015b69e644199d68434065aa3cd88554d6eb96fa8",
      "hash": "38399f496cc206aa0f82986015b69e644199d68434065aa3cd88554d6eb96fa8",
      "version": 1,
      "size": 134,
      "vsize": 134,
      "weight": 536,
      "locktime": 0,
      "vin": [
        {
          "coinbase": "04ffff001d0161",
          "sequence": 4294967295
        }
      ],
      "vout": [
        {
          "value": 50.0,
          "n": 0,
          "scriptPubKey": {
            "asm": "04e87e7051b19ef9368dfe809b64e53458e8788808b9a3ffe98aafb845cda1f12b549137565edd6ac6104ba65bf91a6c4a1497e285cba2a774afcd98e8eaef502b OP_CHECKSIG",
            "desc": "pk(04e87e7051b19ef9368dfe809b64e53458e8788808b9a3ffe98aafb845cda1f12b549137565edd6ac6104ba65bf91a6c4a1497e285cba2a774afcd98e8eaef502b)#7clscumr",
            "hex": "4104e87e7051b19ef9368dfe809b64e53458e8788808b9a3ffe98aafb845cda1f12b549137565edd6ac6104ba65bf91a6c4a1497e285cba2a774afcd98e8eaef502bac",
            "type": "pubkey"
          }
        }
      ],
      "hex": "01000000010000000000000000000000000000000000000000000000000000000000000000ffffffff0704ffff001d0161ffffffff0100f2052a01000000434104e87e7051b19ef9368dfe809b64e53458e8788808b9a3ffe98aafb845cda1f12b549137565edd6ac6104ba65bf91a6c4a1497e285cba2a774afcd98e8eaef502bac00000000"
    }
  ]
}