{
  "hash": "00000000c242f9176c79dafd651ca5a59db13a90a3240ceaebd16798569ef8ab",
  "confirmations": 46962,
  "height": 6136,
  "version": 1,
  "versionHex": "00000001",
  "merkleroot": "b1b93e48ad7acf4a5acf14df62e3bb9aa79e876f1d0f81c4482ebe27ea0107c5",
  "time": 1236037669,
  "mediantime": 1236033080,
  "nonce": 2059050796,
  "bits": "1d00ffff",
  "difficulty": 1,
  "chainwork": "000000000000000000000000000000000000000000000000000017f917f917f9",
  "nTx": 1,
  "previousblockhash": "0000000010774ff48119619dc84c5b158dacfb715fdb8aec96bf0324797d108e",
  "nextblockhash": "00000000aefb155d7aed0437259b81c2b20c5905f0f88035f32e857bcfa2faeb",
  "strippedsize": 216,
  "size": 216,
  "weight": 864,
  "tx": [
    {
      "txid": "b1b93e48ad7acf4a5acf14df62e3bb9aa79e876f1d0f81c4482ebe27ea0107c5",
      "hash": "b1b93e48ad7acf4a5acf14df62e3bb9aa79e876f1d0f81c4482ebe27ea0107c5",
      "version": 1,
      "size": 135,
      "vsize": 135,
      "weight": 540,
      "locktime": 0,
      "vin": [
        {
          "coinbase": "04ffff001d027907",
          "sequence": 4294967295
        }
      ],
      "vout": [
        {
          "value": 50.0,
          "n": 0,
          "scriptPubKey": {
            "asm": "047c41e990656bac4eb57f449d3f02270829488d4a7e7d9220fecd522b9b4474677283a0ac9aae1c4e2ae1fa6ba1dee478c7a4cf92e626884db0753ef7f02dc165 OP_CHECKSIG",
            "desc": "pk(047c41e990656bac4eb57f449d3f02270829488d4a7e7d9220fecd522b9b4474677283a0ac9aae1c4e2ae1fa6ba1dee478c7a4cf92e626884db0753ef7f02dc165)#wcne2pg7",
            "hex": "41047c41e990656bac4eb57f449d3f02270829488d4a7e7d9220fecd522b9b4474677283a0ac9aae1c4e2ae1fa6ba1dee478c7a4cf92e626884db0753ef7f02dc165ac",
            "type": "pubkey"
          }
        }
      ],
      "hex": "01000000010000000000000000000000000000000000000000000000000000000000000000ffffffff0804ffff001d027907ffffffff0100f2052a010000004341047c41e990656bac4eb57f449d3f02270829488d4a7e7d9220fecd522b9b4474677283a0ac9aae1c4e2ae1fa6ba1dee478c7a4cf92e626884db0753ef7f02dc165ac00000000"
    }
  ]
}