{
  "hash": "0000000059734cc49793a3ccb9b5dbf6a213db50b84537d7493c79c0150bcaaa",
  "confirmations": 47344,
  "height": 5754,
  "version": 1,
  "versionHex": "00000001",
  "merkleroot": "a251ecd3fe3714d503a2cc1f36707c8b4d3f5ebff97a851d667afd66763369ea",
  "time": 1235726503,
  "mediantime": 1235722810,
  "nonce": 2662666286,
  "bits": "1d00ffff",
  "difficulty": 1,
  "chainwork": "0000000000000000000000000000000000000000000000000000167b167b167b",
  "nTx": 1,
  "previousblockhash": "00000000afc0a13b32bad499a6447b5e5269e0e075220d286004effbadae62d6",
  "nextblockhash": "00000000a8b2b31aba382f5d892001122d8d20a397dd979d3414907a8129ac97",
  "strippedsize": 215,
  "size": 215,
  "weight": 860,
  "tx": [
    {
      "txid": "a251ecd3fe3714d503a2cc1f36707c8b4d3f5ebff97a851d667afd66763369ea",
      "hash": "a251ecd3fe3714d503a2cc1f36707c8b4d3f5ebff97a851d667afd66763369ea",
      "version": 1,
      "size": 134,
      "vsize": 134,
      "weight": 536,
      "locktime": 0,
      "vin": [
        {
          "coinbase": "04ffff001d0114",
          "sequence": 4294967295
        }
      ],
      "vout": [
        {
          "value": 50.0,
          "n": 0,
          "scriptPubKey": {
            "asm": "04dd47625a7c544984df303f854ecb0e8a79174234d56712ffd3e0b5963d85a645484c610a9184a6a3b04c71b7661ac9730262e1d5726186a8ce837a435e90a6b2 OP_CHECKSIG",
            "desc": "pk(04dd47625a7c544984df303f854ecb0e8a79174234d56712ffd3e0b5963d85a645484c610a9184a6a3b04c71b7661ac9730262e1d5726186a8ce837a435e90a6b2)#ydnw495x",
            "hex": "4104dd47625a7c544984df303f854ecb0e8a79174234d56712ffd3e0b5963d85a645484c610a9184a6a3b04c71b7661ac9730262e1d5726186a8ce837a435e90a6b2ac",
            "type": "pubkey"
          }
        }
      ],
      "hex": "01000000010000000000000000000000000000000000000000000000000000000000000000ffffffff0704ffff001d0114ffffffff0100f2052a01000000434104dd47625a7c544984df303f854ecb0e8a79174234d56712ffd3e0b5963d85a645484c610a9184a6a3b04c71b7661ac9730262e1d5726186a8ce837a435e90a6b2ac00000000"
    }
  ]
}