{
  "hash": "00000000e99b6bda0cbf779eb661b874d5f6f450a0616bb9d9942b4929feaf97",
  "confirmations": 43232,
  "height": 9866,
  "version": 1,
  "versionHex": "00000001",
  "merkleroot": "994c6f04577fc3dbd628e04c30aac1280c4e80eaf98fac507ec69cbf38989015",
  "time": 1238903584,
  "mediantime": 1238898855,
  "nonce": 1562044934,
  "bits": "1d00ffff",
  "difficulty": 1,
  "chainwork": "0000000000000000000000000000000000000000000000000000268b268b268b",
  "nTx": 1,
  "previousblockhash": "0000000056bf00aa4411511ce55bc7597eccda1319659a6ad66fdf3aee2efae0",
  "nextblockhash": "0000000074642394974015239b42465e8e4cc7636dfac0f645e20ac68daf4dd2",
  "strippedsize": 216,
  "size": 216,
  "weight": 864,
  "tx": [
    {
      "txid": "994c6f04577fc3dbd628e04c30aac1280c4e80eaf98fac507ec69cbf38989015",
      "hash": "994c6f04577fc3dbd628e04c30aac1280c4e80eaf98fac507ec69cbf38989015",
      "version": 1,
      "size": 135,
      "vsize": 135,
      "weight": 540,
      "locktime": 0,
      "vin": [
        {
          "coinbase": "04ffff001d029801",
          "sequence": 4294967295
        }
      ],
      "vout": [
        {
          "value": 50.0,
          "n": 0,
          "scriptPubKey": {
            "asm": "04c9c3ffa2a2825a78a7f025e236391519353a67c268902f29161be33684cd20feadaa6aa127e113978e6c19ceada18f2a8249e3e8d1e069472cef6757c1622a3d OP_CHECKSIG",
            "desc": "pk(04c9c3ffa2a2825a78a7f025e236391519353a67c268902f29161be33684cd20feadaa6aa127e113978e6c19ceada18f2a8249e3e8d1e069472cef6757c1622a3d)#6wszktd5",
            "hex": "4104c9c3ffa2a2825a78a7f025e236391519353a67c268902f29161be33684cd20feadaa6aa127e113978e6c19ceada18f2a8249e3e8d1e069472cef6757c1622a3dac",
            "type": "pubkey"
          }
        }
      ],
      "hex": "01000000010000000000000000000000000000000000000000000000000000000000000000ffffffff0804ffff001d029801ffffffff0100f2052a01000000434104c9c3ffa2a2825a78a7f025e236391519353a67c268902f29161be33684cd20feadaa6aa127e113978e6c19ceada18f2a8249e3e8d1e069472cef6757c1622a3dac00000000"
    }
  ]
}