{
  "hash": "00000000fb831f909a4b0abe527c5117ed7dfa290c4585bdd6ba498482a2e1c8",
  "confirmations": 50209,
  "height": 2889,
  "version": 1,
  "versionHex": "00000001",
  "merkleroot": "8304fb3d17263113637f904a75ac8b10c5ee48314035115752a00e60eac53c11",
  "time": 1233684700,
  "mediantime": 1233680501,
  "nonce": 1502884358,
  "bits": "1d00ffff",
  "difficulty": 1,
  "chainwork": "00000000000000000000000000000000000000000000000000000b4a0b4a0b4a",
  "nTx": 1,
  "previousblockhash": "000000005edb587278445979a00b11032f2aea8b6f427c79e44009768c2e390d",
  "nextblockhash": "00000000942b4a56b8fb720816d5cb9fa59913e1fa8733622e8a79b4480cd292",
  "strippedsize": 216,
  "size": 216,
  "weight": 864,
  "tx": [
    {
      "txid": "8304fb3d17263113637f904a75ac8b10c5ee48314035115752a00e60eac53c11",
      "hash": "8304fb3d17263113637f904a75ac8b10c5ee48314035115752a00e60eac53c11",
      "version": 1,
      "size": 135,
      "vsize": 135,
      "weight": 540,
      "locktime": 0,
      "vin": [
        {
          "coinbase": "04ffff001d024807",
          "sequence": 4294967295
        }
      ],
      "vout": [
        {
          "value": 50.0,
          "n": 0,
          "scriptPubKey": {
            "asm": "042cde5a9c92ed161c37cbc9602ddc095833175ac48d9d0baf91d4d9b9b8b4f4d77cdd4a8e2ad0779e8e29949d95d92d0021c262dd152de21aa7a5da62dd7e3291 OP_CHECKSIG",
            "desc": "pk(042cde5a9c92ed161c37cbc9602ddc095833175ac48d9d0baf91d4d9b9b8b4f4d77cdd4a8e2ad0779e8e29949d95d92d0021c262dd152de21aa7a5da62dd7e3291)#mrt3r58l",
            "hex": "41042cde5a9c92ed161c37cbc9602ddc095833175ac48d9d0baf91d4d9b9b8b4f4d77cdd4a8e2ad0779e8e29949d95d92d0021c262dd152de21aa7a5da62dd7e3291ac",
            "type": "pubkey"
          }
        }
      ],
      "hex": "01000000010000000000000000000000000000000000000000000000000000000000000000ffffffff0804ffff001d024807ffffffff0100f2052a010000004341042cde5a9c92ed161c37cbc9602ddc095833175ac48d9d0baf91d4d9b9b8b4f4d77cdd4a8e2ad0779e8e29949d95d92d0021c262dd152de21aa7a5da62dd7e3291ac00000000"
    }
  ]
}