{
  "hash": "00000000d5b191939be02a3657d5c784bd713d3389602765791989ba9cde529b",
  "confirmations": 46854,
  "height": 6244,
  "version": 1,
  "versionHex": "00000001",
  "merkleroot": "af9f712334774e083666e640b6c311ea20006245fc130f0545e5d525c1797e1c",
  "time": 1236126865,
  "mediantime": 1236123657,
  "nonce": 979211810,
  "bits": "1d00ffff",
  "difficulty": 1,
  "chainwork": "0000000000000000000000000000000000000000000000000000186518651865",
  "nTx": 1,
  "previousblockhash": "000000009a7cd048d59081828decc229eb4ea671f0fd10b1ed8aee3b4c2759fd",
  "nextblockhash": "0000000011bcb964387316b6ce0b1942980c0a14b7ad3220acc1fe407bb44e71",
  "strippedsize": 216,
  "size": 216,
  "weight": 864,
  "tx": [
    {
      "txid": "af9f712334774e083666e640b6c311ea20006245fc130f0545e5d525c1797e1c",
      "hash": "af9f712334774e083666e640b6c311ea20006245fc130f0545e5d525c1797e1c",
      "version": 1,
      "size": 135,
      "vsize": 135,
      "weight": 540,
      "locktime": 0,
      "vin": [
        {
          "coinbase": "04ffff001d026909",
          "sequence": 4294967295
        }
      ],
      "vout": [
        {
          "value": 50.0,
          "n": 0,
          "scriptPubKey": {
            "asm": "045fa55ad3071f7bb2d39d4ab96713c401e8f6f0deeede173dcfe0bf26be5c9b8fa5c37f882cdf99360160f5a420a3e555be359b7d3fff1e8c36d5c776f590a7fd OP_CHECKSIG",
            "desc": "pk(045fa55ad3071f7bb2d39d4ab96713c401e8f6f0deeede173dcfe0bf26be5c9b8fa5c37f882cdf99360160f5a420a3e555be359b7d3fff1e8c36d5c776f590a7fd)#zxa5758d",
            "hex": "41045fa55ad3071f7bb2d39d4ab96713c401e8f6f0deeede173dcfe0bf26be5c9b8fa5c37f882cdf99360160f5a420a3e555be359b7d3fff1e8c36d5c776f590a7fdac",
            "type": "pubkey"
          }
        }
      ],
      "hex": "01000000010000000000000000000000000000000000000000000000000000000000000000ffffffff0804ffff001d026909ffffffff0100f2052a010000004341045fa55ad3071f7bb2d39d4ab96713c401e8f6f0deeede173dcfe0bf26be5c9b8fa5c37f882cdf99360160f5a420a3e555be359b7d3fff1e8c36d5c776f590a7fdac00000000"
    }
  ]
}