{
  "hash": "00000000f5714fa64e1f16186d5afe7100ca4393320cef8298e0f59e64c3b008",
  "confirmations": 52025,
  "height": 207,
  "version": 1,
  "versionHex": "00000001",
  "merkleroot": "10213d32652ab07be761d88a33ead6a159fa9bc60456843bbd3ab9583b9dc383",
  "time": 1231757909,
  "mediantime": 1231754944,
  "nonce": 2948075804,
  "bits": "1d00ffff",
  "difficulty": 1,
  "chainwork": "000000000000000000000000000000000000000000000000000000d000d000d0",
  "nTx": 1,
  "previousblockhash": "000000007986095d6dce2f41fd76e8008e828282400e46d3b49f39d19e2b7a78",
  "nextblockhash": "00000000fe5020fa736e81aa601b61c4c8007c171a92fdc802649970b81f82ff",
  "strippedsize": 215,
  "size": 215,
  "weight": 860,
  "tx": [
    {
      "txid": "10213d32652ab07be761d88a33ead6a159fa9bc60456843bbd3ab9583b9dc383",
      "hash": "10213d32652ab07be761d88a33ead6a159fa9bc60456843bbd3ab9583b9dc383",
      "version": 1,
      "size": 134,
      "vsize": 134,
      "weight": 536,
      "locktime": 0,
      "vin": [
        {
          "coinbase": "04ffff001d0154",
          "sequence": 4294967295
        }
      ],
      "vout": [
        {
          "value": 50.0,
          "n": 0,
          "scriptPubKey": {
            "asm": "049fe85ac14399698da9f37468d6d4a3adb3a9e3f9422ff8e76854e72ca952da88a3fac8628710908f240ff4a32486ccd8aaaf721394dbdedb5f387aedbb843aa7 OP_CHECKSIG",
            "desc": "pk(049fe85ac14399698da9f37468d6d4a3adb3a9e3f9422ff8e76854e72ca952da88a3fac8628710908f240ff4a32486ccd8aaaf721394dbdedb5f387aedbb843aa7)#3mtj357x",
            "hex": "41049fe85ac14399698da9f37468d6d4a3adb3a9e3f9422ff8e76854e72ca952da88a3fac8628710908f240ff4a32486ccd8aaaf721394dbdedb5f387aedbb843aa7ac",
            "type": "pubkey"
          }
        }
      ],
      "hex": "01000000010000000000000000000000000000000000000000000000000000000000000000ffffffff0704ffff001d0154ffffffff0100f2052a010000004341049fe85ac14399698da9f37468d6d4a3adb3a9e3f9422ff8e76854e72ca952da88a3fac8628710908f240ff4a32486ccd8aaaf721394dbdedb5f387aedbb843aa7ac00000000"
    }
  ]
}