{
  "hash": "00000000c2778d0f857f30bc33d74dfbe81e7638bd09c0b1d234a634e4f068e3",
  "confirmations": 49290,
  "height": 3808,
  "version": 1,
  "versionHex": "00000001",
  "merkleroot": "abd7574527bea5d24e9c97544bbf979df4ac5379df1c33dd9f1881178370f93b",
  "time": 1234312442,
  "mediantime": 1234309233,
  "nonce": 1260867635,
  "bits": "1d00ffff",
  "difficulty": 1,
  "chainwork": "00000000000000000000000000000000000000000000000000000ee10ee10ee1",
  "nTx": 1,
  "previousblockhash": "000000006f8648807dd770d06929b305658307bca587094b3398c481a1b70fcc",
  "nextblockhash": "000000006e592d7b479b5a0e021c8311ebe5d14a7833dd895a243ab897cb35c6",
  "strippedsize": 216,
  "size": 216,
  "weight": 864,
  "tx": [
    {
      "txid": "abd7574527bea5d24e9c97544bbf979df4ac5379df1c33dd9f1881178370f93b",
      "hash": "abd7574527bea5d24e9c97544bbf979df4ac5379df1c33dd9f1881178370f93b",
      "version": 1,
      "size": 135,
      "vsize": 135,
      "weight": 540,
      "locktime": 0,
      "vin": [
        {
          "coinbase": "04ffff001d026a01",
          "sequence": 4294967295
        }
      ],
      "vout": [
        {
          "value": 50.0,
          "n": 0,
          "scriptPubKey": {
            "asm": "040abc599c17bcf0fb39afb251dbb8a9f0c0036cb4e78bde5ba14100cb2f4a4f95a32f1033610aa5b1e16acfdb1f1394c2850d7746145513150cf7dd644f859176 OP_CHECKSIG",
            "desc": "pk(040abc599c17bcf0fb39afb251dbb8a9f0c0036cb4e78bde5ba14100cb2f4a4f95a32f1033610aa5b1e16acfdb1f1394c2850d7746145513150cf7dd644f859176)#9ne5y6p4",
            "hex": "41040abc599c17bcf0fb39afb251dbb8a9f0c0036cb4e78bde5ba14100cb2f4a4f95a32f1033610aa5b1e16acfdb1f1394c2850d7746145513150cf7dd644f859176ac",
            "type": "pubkey"
          }
        }
      ],
      "hex": "01000000010000000000000000000000000000000000000000000000000000000000000000ffffffff0804ffff001d026a01ffffffff0100f2052a010000004341040abc599c17bcf0fb39afb251dbb8a9f0c0036cb4e78bde5ba14100cb2f4a4f95a32f1033610aa5b1e16acfdb1f1394c2850d7746145513150cf7dd644f859176ac00000000"
    }
  ]
}