{
  "hash": "00000000e6d396093b92c68e18af6ac367fd7111280711b1c73cb661ca5ddfc9",
  "confirmations": 45681,
  "height": 7417,
  "version": 1,
  "versionHex": "00000001",
  "merkleroot": "2dde2f16f20faa5bc0053a36d7e426598d1b0fa94f04e281a9002264c66b230c",
  "time": 1237036166,
  "mediantime": 1237032513,
  "nonce": 566949377,
  "bits": "1d00ffff",
  "difficulty": 1,
  "chainwork": "00000000000000000000000000000000000000000000000000001cfa1cfa1cfa",
  "nTx": 1,
  "previousblockhash": "0000000059824cf5bc5d1d0af1c7dd8608d5c7d91d49b2d9c233332e47dd9d22",
  "nextblockhash": "0000000026f2aa7e311092d5a040290e5070a877b0013300acceb4c72ab1d9e6",
  "strippedsize": 216,
  "size": 216,
  "weight": 864,
  "tx": [
    {
      "txid": "2dde2f16f20faa5bc0053a36d7e426598d1b0fa94f04e281a9002264c66b230c",
      "hash": "2dde2f16f20faa5bc0053a36d7e426598d1b0fa94f04e281a9002264c66b230c",
      "version": 1,
      "size": 135,
      "vsize": 135,
      "weight": 540,
      "locktime": 0,
      "vin": [
        {
          "coinbase": "04ffff001d02c309",
          "sequence": 4294967295
        }
      ],
      "vout": [
        {
          "value": 50.0,
          "n": 0,
          "scriptPubKey": {
            "asm": "04d675ae916a22c331774294bda3e5dc4613f935a6b634715a452d0a266ed67d0acd869a974af2b38e827a0cec5f21b8a28a6737e0268ef59dbafee9dc96438191 OP_CHECKSIG",
            "desc": "pk(04d675ae916a22c331774294bda3e5dc4613f935a6b634715a452d0a266ed67d0acd869a974af2b38e827a0cec5f21b8a28a6737e0268ef59dbafee9dc96438191)#pu668vzu",
            "hex": "4104d675ae916a22c331774294bda3e5dc4613f935a6b634715a452d0a266ed67d0acd869a974af2b38e827a0cec5f21b8a28a6737e0268ef59dbafee9dc96438191ac",
            "type": "pubkey"
          }
        }
      ],
      "hex": "01000000010000000000000000000000000000000000000000000000000000000000000000ffffffff0804ffff001d02c309ffffffff0100f2052a01000000434104d675ae916a22c331774294bda3e5dc4613f935a6b634715a452d0a266ed67d0acd869a974af2b38e827a0cec5f21b8a28a6737e0268ef59dbafee9dc96438191ac00000000"
    }
  ]
}