{
  "hash": "00000000bbe372ad70b7df2b13f3043c8324d4118ed71babf9cc6c584273df4a",
  "confirmations": 45355,
  "height": 7743,
  "version": 1,
  "versionHex": "00000001",
  "merkleroot": "f494564127f40f4219d2c260f263a4d3212073a55b65bf57583668f98d1bb943",
  "time": 1237272704,
  "mediantime": 1237268033,
  "nonce": 147745831,
  "bits": "1d00ffff",
  "difficulty": 1,
  "chainwork": "00000000000000000000000000000000000000000000000000001e401e401e40",
  "nTx": 1,
  "previousblockhash": "0000000016786764bd1922d96dd75912655381ca9f55d4980c74892fb1d9b6ce",
  "nextblockhash": "00000000d4ba898f54d5fb794f7d3856fc879260341b2cb0aefcebaf957d9a7c",
  "strippedsize": 216,
  "size": 216,
  "weight": 864,
  "tx": [
    {
      "txid": "f494564127f40f4219d2c260f263a4d3212073a55b65bf57583668f98d1bb943",
      "hash": "f494564127f40f4219d2c260f263a4d3212073a55b65bf57583668f98d1bb943",
      "version": 1,
      "size": 135,
      "vsize": 135,
      "weight": 540,
      "locktime": 0,
      "vin": [
        {
          "coinbase": "04ffff001d02f204",
          "sequence": 4294967295
        }
      ],
      "vout": [
        {
          "value": 50.0,
          "n": 0,
          "scriptPubKey": {
            "asm": "04e829906b97110b038227eb44e74a3841d217f4381be887c40ab8b0b262d4f254b27a480b7146121cbd96c12035091b7a00009993c5a0fc4e4f3143b042872211 OP_CHECKSIG",
            "desc": "pk(04e829906b97110b038227eb44e74a3841d217f4381be887c40ab8b0b262d4f254b27a480b7146121cbd96c12035091b7a00009993c5a0fc4e4f3143b042872211)#8edtjd8h",
            "hex": "4104e829906b97110b038227eb44e74a3841d217f4381be887c40ab8b0b262d4f254b27a480b7146121cbd96c12035091b7a00009993c5a0fc4e4f3143b042872211ac",
            "type": "pubkey"
          }
        }
      ],
      "hex": "01000000010000000000000000000000000000000000000000000000000000000000000000ffffffff0804ffff001d02f204ffffffff0100f2052a01000000434104e829906b97110b038227eb44e74a3841d217f4381be887c40ab8b0b262d4f254b27a480b7146121cbd96c12035091b7a00009993c5a0fc4e4f3143b042872211ac00000000"
    }
  ]
}