{
  "hash": "00000000d1899d2fa50af50c57eccdec55b7f7414b55d3145eb31035cb16ae6e",
  "confirmations": 46670,
  "height": 6428,
  "version": 1,
  "versionHex": "00000001",
  "merkleroot": "694c1d9d6b4bee58bd4d6d9a8657288f89830b15986e592fe13f7042458c00c1",
  "time": 1236276029,
  "mediantime": 1236272469,
  "nonce": 134208600,
  "bits": "1d00ffff",
  "difficulty": 1,
  "chainwork": "0000000000000000000000000000000000000000000000000000191d191d191d",
  "nTx": 1,
  "previousblockhash": "00000000419b12a77cfc58546f8b1b764c031cf0192286a5a304a153ae520aa3",
  "nextblockhash": "00000000209cf1fdb3128f8d37fb6af10c93aee04b80de3aed6688f5d80ded87",
  "strippedsize": 216,
  "size": 216,
  "weight": 864,
  "tx": [
    {
      "txid": "694c1d9d6b4bee58bd4d6d9a8657288f89830b15986e592fe13f7042458c00c1",
      "hash": "694c1d9d6b4bee58bd4d6d9a8657288f89830b15986e592fe13f7042458c00c1",
      "version": 1,
      "size": 135,
      "vsize": 135,
      "weight": 540,
      "locktime": 0,
      "vin": [
        {
          "coinbase": "04ffff001d02e50a",
          "sequence": 4294967295
        }
      ],
      "vout": [
        {
          "value": 50.0,
          "n": 0,
          "scriptPubKey": {
            "asm": "04e5d95105cccb8f2c9b8da3767bb825583f081b1b479a040fcf6f65f5269cff6bf70a3636ca1fd8b4d22126364326c8b550c0df793bb03b269022930fa11ef985 OP_CHECKSIG",
            "desc": "pk(04e5d95105cccb8f2c9b8da3767bb825583f081b1b479a040fcf6f65f5269cff6bf70a3636ca1fd8b4d22126364326c8b550c0df793bb03b269022930fa11ef985)#3updmt8f",
            "hex": "4104e5d95105cccb8f2c9b8da3767bb825583f081b1b479a040fcf6f65f5269cff6bf70a3636ca1fd8b4d22126364326c8b550c0df793bb03b269022930fa11ef985ac",
            "type": "pubkey"
          }
        }
      ],
      "hex": "01000000010000000000000000000000000000000000000000000000000000000000000000ffffffff0804ffff001d02e50affffffff0100f2052a01000000434104e5d95105cccb8f2c9b8da3767bb825583f081b1b479a040fcf6f65f5269cff6bf70a3636ca1fd8b4d22126364326c8b550c0df793bb03b269022930fa11ef985ac00000000"
    }
  ]
}