{
  "hash": "00000000a17bc7e51b85d43b8dbc06f6cd575f94d0050ad3d5c4d3f6cecc88d7",
  "confirmations": 43266,
  "height": 9832,
  "version": 1,
  "versionHex": "00000001",
  "merkleroot": "09539fa58a08fae52872e121791ed12a17c1b0fccdee0b1214f768ea20c15a90",
  "time": 1238878323,
  "mediantime": 1238875284,
  "nonce": 238496057,
  "bits": "1d00ffff",
  "difficulty": 1,
  "chainwork": "0000000000000000000000000000000000000000000000000000266926692669",
  "nTx": 1,
  "previousblockhash": "00000000cb436394d614a9f287adf06cc481eb1da693ea873da8c139081a0dbc",
  "nextblockhash": "00000000291d1e9992b6fb0950aa42ee916e11c7342c0532dfc996dbc927b3a2",
  "strippedsize": 216,
  "size": 216,
  "weight": 864,
  "tx": [
    {
      "txid": "09539fa58a08fae52872e121791ed12a17c1b0fccdee0b1214f768ea20c15a90",
      "hash": "09539fa58a08fae52872e121791ed12a17c1b0fccdee0b1214f768ea20c15a90",
      "version": 1,
      "size": 135,
      "vsize": 135,
      "weight": 540,
      "locktime": 0,
      "vin": [
        {
          "coinbase": "04ffff001d023901",
          "sequence": 4294967295
        }
      ],
      "vout": [
        {
          "value": 50.0,
          "n": 0,
          "scriptPubKey": {
            "asm": "048fbc1c2101bae7093404e7732ee37834b8d86ff002720f6eea6b72ca42294fbcc2a7b9f8199dca05df9ea87aece5890517294139eb5db5589e82256b4f0923fc OP_CHECKSIG",
            "desc": "pk(048fbc1c2101bae7093404e7732ee37834b8d86ff002720f6eea6b72ca42294fbcc2a7b9f8199dca05df9ea87aece5890517294139eb5db5589e82256b4f0923fc)#qect4ev4",
            "hex": "41048fbc1c2101bae7093404e7732ee37834b8d86ff002720f6eea6b72ca42294fbcc2a7b9f8199dca05df9ea87aece5890517294139eb5db5589e82256b4f0923fcac",
            "type": "pubkey"
          }
        }
      ],
      "hex": "01000000010000000000000000000000000000000000000000000000000000000000000000ffffffff0804ffff001d023901ffffffff0100f2052a010000004341048fbc1c2101bae7093404e7732ee37834b8d86ff002720f6eea6b72ca42294fbcc2a7b9f8199dca05df9ea87aece5890517294139eb5db5589e82256b4f0923fcac00000000"
    }
  ]
}