{
  "hash": "0000000062f250b9e1995a186da0136fc5589d86b85ad4d750f7490921cedec1",
  "confirmations": 51159,
  "height": 1939,
  "version": 1,
  "versionHex": "00000001",
  "merkleroot": "6b68e8e0a3f3ccb34f98f98c6fb63b92b4ef0e01e857bec3936aa550e5b7d856",
  "time": 1232998139,
  "mediantime": 1232995642,
  "nonce": 2524252983,
  "bits": "1d00ffff",
  "difficulty": 1,
  "chainwork": "0000000000000000000000000000000000000000000000000000079407940794",
  "nTx": 1,
  "previousblockhash": "0000000073c361ad66b65532aec5cc99e4b7fcdd4896e8579c25dfc7ddba89a6",
  "nextblockhash": "0000000056cb3abfa6d975ce08a6055365c432426a39ea7d8d984562dbbcea07",
  "strippedsize": 215,
  "size": 215,
  "weight": 860,
  "tx": [
    {
      "txid": "6b68e8e0a3f3ccb34f98f98c6fb63b92b4ef0e01e857bec3936aa550e5b7d856",
      "hash": "6b68e8e0a3f3ccb34f98f98c6fb63b92b4ef0e01e857bec3936aa550e5b7d856",
      "version": 1,
      "size": 134,
      "vsize": 134,
      "weight": 536,
      "locktime": 0,
      "vin": [
        {
          "coinbase": "04ffff001d0169",
          "sequence": 4294967295
        }
      ],
      "vout": [
        {
          "value": 50.0,
          "n": 0,
          "scriptPubKey": {
            "asm": "040a0e1e28791ece3440bee5c0cfafcb58c752c49fcc681d410ec017518952c6bf966f02266af6072b5d073a129c2d802662b35410f62927a83b95fc4df291bb2e OP_CHECKSIG",
            "desc": "pk(040a0e1e28791ece3440bee5c0cfafcb58c752c49fcc681d410ec017518952c6bf966f02266af6072b5d073a129c2d802662b35410f62927a83b95fc4df291bb2e)#payt0qgg",
            "hex": "41040a0e1e28791ece3440bee5c0cfafcb58c752c49fcc681d410ec017518952c6bf966f02266af6072b5d073a129c2d802662b35410f62927a83b95fc4df291bb2eac",
            "type": "pubkey"
          }
        }
      ],
      "hex": "01000000010000000000000000000000000000000000000000000000000000000000000000ffffffff0704ffff001d0169ffffffff0100f2052a010000004341040a0e1e28791ece3440bee5c0cfafcb58c752c49fcc681d410ec017518952c6bf966f02266af6072b5d073a129c2d802662b35410f62927a83b95fc4df291bb2eac00000000"
    }
  ]
}