{
  "hash": "00000000709ec29ec2dc71813775b703420a9778dac292d48d28756d7ecdd60f",
  "confirmations": 46750,
  "height": 6348,
  "version": 1,
  "versionHex": "00000001",
  "merkleroot": "95417cce7514a5ab048f174b351560d384d7baddbca959a3552732d26e766529",
  "time": 1236215214,
  "mediantime": 1236209362,
  "nonce": 4160548371,
  "bits": "1d00ffff",
  "difficulty": 1,
  "chainwork": "000000000000000000000000000000000000000000000000000018cd18cd18cd",
  "nTx": 1,
  "previousblockhash": "000000000d01f01bdf97b4cb90133fc9f2e20a61e1cd62a43101f5fdfd88eb11",
  "nextblockhash": "000000007c6befb84efe7266c7cd2573f1452573f7d397578b7b67198bb0cbbc",
  "strippedsize": 216,
  "size": 216,
  "weight": 864,
  "tx": [
    {
      "txid": "95417cce7514a5ab048f174b351560d384d7baddbca959a3552732d26e766529",
      "hash": "95417cce7514a5ab048f174b351560d384d7baddbca959a3552732d26e766529",
      "version": 1,
      "size": 135,
      "vsize": 135,
      "weight": 540,
      "locktime": 0,
      "vin": [
        {
          "coinbase": "04ffff001d02cd00",
          "sequence": 4294967295
        }
      ],
      "vout": [
        {
          "value": 50.0,
          "n": 0,
          "scriptPubKey": {
            "asm": "041b07cfa770f2d51a0142e10b9788f6db4d0fbb4b52444384de89d4e33ffef3e7c33523c04e9ffe1d67788b3649a2b3b4c691d95283de4e8180d8ece6d025e0ae OP_CHECKSIG",
            "desc": "pk(041b07cfa770f2d51a0142e10b9788f6db4d0fbb4b52444384de89d4e33ffef3e7c33523c04e9ffe1d67788b3649a2b3b4c691d95283de4e8180d8ece6d025e0ae)#k8znx4vx",
            "hex": "41041b07cfa770f2d51a0142e10b9788f6db4d0fbb4b52444384de89d4e33ffef3e7c33523c04e9ffe1d67788b3649a2b3b4c691d95283de4e8180d8ece6d025e0aeac",
            "type": "pubkey"
          }
        }
      ],
      "hex": "01000000010000000000000000000000000000000000000000000000000000000000000000ffffffff0804ffff001d02cd00ffffffff0100f2052a010000004341041b07cfa770f2d51a0142e10b9788f6db4d0fbb4b52444384de89d4e33ffef3e7c33523c04e9ffe1d67788b3649a2b3b4c691d95283de4e8180d8ece6d025e0aeac00000000"
    }
  ]
}