{
  "hash": "000000005ceec93f3dfbdfa1eab28ceac7ad24b73064b3812b73fe6c6be96a55",
  "confirmations": 52315,
  "height": 783,
  "version": 1,
  "versionHex": "00000001",
  "merkleroot": "34e34f49f383939bff4725edb9e6f3e8e05bd295a01a2dc17b1cdbda4d7f8ce2",
  "time": 1232177364,
  "mediantime": 1232172535,
  "nonce": 84370712,
  "bits": "1d00ffff",
  "difficulty": 1,
  "chainwork": "0000000000000000000000000000000000000000000000000000031003100310",
  "nTx": 1,
  "previousblockhash": "00000000857b9025fa9a6f95f96c59b711db8cb8d5dc5831c22d50c24466a088",
  "nextblockhash": "000000002dfc22975439a6a353d80a5bd5ae2052f9c6c647640f3b102e2a2eb3",
  "strippedsize": 216,
  "size": 216,
  "weight": 864,
  "tx": [
    {
      "txid": "34e34f49f383939bff4725edb9e6f3e8e05bd295a01a2dc17b1cdbda4d7f8ce2",
      "hash": "34e34f49f383939bff4725edb9e6f3e8e05bd295a01a2dc17b1cdbda4d7f8ce2",
      "version": 1,
      "size": 135,
      "vsize": 135,
      "weight": 540,
      "locktime": 0,
      "vin": [
        {
          "coinbase": "04ffff001d022501",
          "sequence": 4294967295
        }
      ],
      "vout": [
        {
          "value": 50.0,
          "n": 0,
          "scriptPubKey": {
            "asm": "0449b30409c1a8ce05d476eec5e4dd31d379aac681cdeb787f71da98142dcca0004f984342b312a65b05a291036ec9eadea10c5b66441426457f6d3b7163ba6877 OP_CHECKSIG",
            "desc": "pk(0449b30409c1a8ce05d476eec5e4dd31d379aac681cdeb787f71da98142dcca0004f984342b312a65b05a291036ec9eadea10c5b66441426457f6d3b7163ba6877)#z5pqq0lk",
            "hex": "410449b30409c1a8ce05d476eec5e4dd31d379aac681cdeb787f71da98142dcca0004f984342b312a65b05a291036ec9eadea10c5b66441426457f6d3b7163ba6877ac",
            "type": "pubkey"
          }
        }
      ],
      "hex": "01000000010000000000000000000000000000000000000000000000000000000000000000ffffffff0804ffff001d022501ffffffff0100f2052a0100000043410449b30409c1a8ce05d476eec5e4dd31d379aac681cdeb787f71da98142dcca0004f984342b312a65b05a291036ec9eadea10c5b66441426457f6d3b7163ba6877ac00000000"
    }
  ]
}