{
  "hash": "00000000da2bc3cab56858357a59f787a0c52292787f01f43fec45aebe534547",
  "confirmations": 50201,
  "height": 2897,
  "version": 1,
  "versionHex": "00000001",
  "merkleroot": "79beac1ff9dff813e1891e863a6cf16ca1c52d3fb11742ecf50804f042c447cb",
  "time": 1233690629,
  "mediantime": 1233686611,
  "nonce": 1679725093,
  "bits": "1d00ffff",
  "difficulty": 1,
  "chainwork": "00000000000000000000000000000000000000000000000000000b520b520b52",
  "nTx": 1,
  "previousblockhash": "00000000739051ee3f517aa433062cf021d50b81b6e637c2d8113307c09b900b",
  "nextblockhash": "00000000801e25fd507871048f2cea9415287790a83412995427eecebc4c1125",
  "strippedsize": 216,
  "size": 216,
  "weight": 864,
  "tx": [
    {
      "txid": "79beac1ff9dff813e1891e863a6cf16ca1c52d3fb11742ecf50804f042c447cb",
      "hash": "79beac1ff9dff813e1891e863a6cf16ca1c52d3fb11742ecf50804f042c447cb",
      "version": 1,
      "size": 135,
      "vsize": 135,
      "weight": 540,
      "locktime": 0,
      "vin": [
        {
          "coinbase": "04ffff001d025807",
          "sequence": 4294967295
        }
      ],
      "vout": [
        {
          "value": 50.0,
          "n": 0,
          "scriptPubKey": {
            "asm": "04a1c2597a822c66af17b426bc64e9435574aa9e1df1f59eb8224b8b2c1ac105eaa8f9d7cf3faf5d7e2dce0f501e7032cebfc3a0dd9309d60f2758a3853f694382 OP_CHECKSIG",
            "desc": "pk(04a1c2597a822c66af17b426bc64e9435574aa9e1df1f59eb8224b8b2c1ac105eaa8f9d7cf3faf5d7e2dce0f501e7032cebfc3a0dd9309d60f2758a3853f694382)#e0ner0ue",
            "hex": "4104a1c2597a822c66af17b426bc64e9435574aa9e1df1f59eb8224b8b2c1ac105eaa8f9d7cf3faf5d7e2dce0f501e7032cebfc3a0dd9309d60f2758a3853f694382ac",
            "type": "pubkey"
          }
        }
      ],
      "hex": "01000000010000000000000000000000000000000000000000000000000000000000000000ffffffff0804ffff001d025807ffffffff0100f2052a01000000434104a1c2597a822c66af17b426bc64e9435574aa9e1df1f59eb8224b8b2c1ac105eaa8f9d7cf3faf5d7e2dce0f501e7032cebfc3a0dd9309d60f2758a3853f694382ac00000000"
    }
  ]
}