{
  "hash": "00000000a56ca23f24f2abe452198a521e40bde5fe35f094119a0d922511fc5c",
  "confirmations": 46811,
  "height": 6287,
  "version": 1,
  "versionHex": "00000001",
  "merkleroot": "715439af79a08315d1852ab0539ac42d166de0f5474d3c25f12cfbef64e5d706",
  "time": 1236160766,
  "mediantime": 1236156320,
  "nonce": 1015742720,
  "bits": "1d00ffff",
  "difficulty": 1,
  "chainwork": "0000000000000000000000000000000000000000000000000000189018901890",
  "nTx": 1,
  "previousblockhash": "000000001949d2e66888c9f734f4d061e5dc942fc5b399ee3dc3f67dd8663ed7",
  "nextblockhash": "00000000de774ee17f88201bd17e4a1cfd028dfc01a13d39729d02afebfa73d8",
  "strippedsize": 216,
  "size": 216,
  "weight": 864,
  "tx": [
    {
      "txid": "715439af79a08315d1852ab0539ac42d166de0f5474d3c25f12cfbef64e5d706",
      "hash": "715439af79a08315d1852ab0539ac42d166de0f5474d3c25f12cfbef64e5d706",
      "version": 1,
      "size": 135,
      "vsize": 135,
      "weight": 540,
      "locktime": 0,
      "vin": [
        {
          "coinbase": "04ffff001d02200a",
          "sequence": 4294967295
        }
      ],
      "vout": [
        {
          "value": 50.0,
          "n": 0,
          "scriptPubKey": {
            "asm": "049987bf116702dd55b8bbcf8d81c9dea918620953c4b7de42a537bea42ff780db579fc0a15df1650fc40d1faea0a781aa1b543b01458257111751583ff2e3affe OP_CHECKSIG",
            "desc": "pk(049987bf116702dd55b8bbcf8d81c9dea918620953c4b7de42a537bea42ff780db579fc0a15df1650fc40d1faea0a781aa1b543b01458257111751583ff2e3affe)#qccspkyk",
            "hex": "41049987bf116702dd55b8bbcf8d81c9dea918620953c4b7de42a537bea42ff780db579fc0a15df1650fc40d1faea0a781aa1b543b01458257111751583ff2e3affeac",
            "type": "pubkey"
          }
        }
      ],
      "hex": "01000000010000000000000000000000000000000000000000000000000000000000000000ffffffff0804ffff001d02200affffffff0100f2052a010000004341049987bf116702dd55b8bbcf8d81c9dea918620953c4b7de42a537bea42ff780db579fc0a15df1650fc40d1faea0a781aa1b543b01458257111751583ff2e3affeac00000000"
    }
  ]
}