{
  "hash": "00000000c9688e6f53f7514179cab0c6483453a7218e9737a0f6340abc3b1a9b",
  "confirmations": 45067,
  "height": 8031,
  "version": 1,
  "versionHex": "00000001",
  "merkleroot": "c1ef2aa01b5a719242c63054ceaf85601ae3e4a8e386f31b85570e8d744d3054",
  "time": 1237486244,
  "mediantime": 1237481978,
  "nonce": 2837239595,
  "bits": "1d00ffff",
  "difficulty": 1,
  "chainwork": "00000000000000000000000000000000000000000000000000001f601f601f60",
  "nTx": 1,
  "previousblockhash": "000000006072b820e5b460fb9761dfd497e901097c06b7ba34170f0200616072",
  "nextblockhash": "0000000094fb40384e41a2b6b47b3dfbb6c60bbb60e3a5704ad01392830acd74",
  "strippedsize": 216,
  "size": 216,
  "weight": 864,
  "tx": [
    {
      "txid": "c1ef2aa01b5a719242c63054ceaf85601ae3e4a8e386f31b85570e8d744d3054",
      "hash": "c1ef2aa01b5a719242c63054ceaf85601ae3e4a8e386f31b85570e8d744d3054",
      "version": 1,
      "size": 135,
      "vsize": 135,
      "weight": 540,
      "locktime": 0,
      "vin": [
        {
          "coinbase": "04ffff001d02fb09",
          "sequence": 4294967295
        }
      ],
      "vout": [
        {
          "value": 50.0,
          "n": 0,
          "scriptPubKey": {
            "asm": "04e3d5a16bdcd80a2221a047ed479b2e0e52ef10ea47a37638aebbcd6d5a7e045ee1daefeaa6ea6e4c36d8257669fafda548df1d082f12129011fbccdf7cb50ca4 OP_CHECKSIG",
            "desc": "pk(04e3d5a16bdcd80a2221a047ed479b2e0e52ef10ea47a37638aebbcd6d5a7e045ee1daefeaa6ea6e4c36d8257669fafda548df1d082f12129011fbccdf7cb50ca4)#46e8wpu2",
            "hex": "4104e3d5a16bdcd80a2221a047ed479b2e0e52ef10ea47a37638aebbcd6d5a7e045ee1daefeaa6ea6e4c36d8257669fafda548df1d082f12129011fbccdf7cb50ca4ac",
            "type": "pubkey"
          }
        }
      ],
      "hex": "01000000010000000000000000000000000000000000000000000000000000000000000000ffffffff0804ffff001d02fb09ffffffff0100f2052a01000000434104e3d5a16bdcd80a2221a047ed479b2e0e52ef10ea47a37638aebbcd6d5a7e045ee1daefeaa6ea6e4c36d8257669fafda548df1d082f12129011fbccdf7cb50ca4ac00000000"
    }
  ]
}