{
  "hash": "00000000a51d7f1727d1b484ae0c8cfdcc0576c291be93622b1be931134225e0",
  "confirmations": 47614,
  "height": 5484,
  "version": 1,
  "versionHex": "00000001",
  "merkleroot": "1d55299f4ee4598ee20bfe813c16c8cff35192dca468a24f605cc215256b91b0",
  "time": 1235506480,
  "mediantime": 1235503543,
  "nonce": 1509359131,
  "bits": "1d00ffff",
  "difficulty": 1,
  "chainwork": "0000000000000000000000000000000000000000000000000000156d156d156d",
  "nTx": 1,
  "previousblockhash": "0000000059d23e34eb3dcda6bc4bd13c5f96354168db30ed14bfba4be20eaeae",
  "nextblockhash": "00000000c028057c1ef4bf6644cc46914497268119170f2fb2d2823aa1f71e43",
  "strippedsize": 216,
  "size": 216,
  "weight": 864,
  "tx": [
    {
      "txid": "1d55299f4ee4598ee20bfe813c16c8cff35192dca468a24f605cc215256b91b0",
      "hash": "1d55299f4ee4598ee20bfe813c16c8cff35192dca468a24f605cc215256b91b0",
      "version": 1,
      "size": 135,
      "vsize": 135,
      "weight": 540,
      "locktime": 0,
      "vin": [
        {
          "coinbase": "04ffff001d025205",
          "sequence": 4294967295
        }
      ],
      "vout": [
        {
          "value": 50.0,
          "n": 0,
          "scriptPubKey": {
            "asm": "0455a3680e3ee1be976c038fafc6ae7974f80839aee262b8113fba4d5e107b79f3c4b0b20ae7ae4479b63401def08f9069c51205525eb731457632b6d85711fac2 OP_CHECKSIG",
            "desc": "pk(0455a3680e3ee1be976c038fafc6ae7974f80839aee262b8113fba4d5e107b79f3c4b0b20ae7ae4479b63401def08f9069c51205525eb731457632b6d85711fac2)#g4je8fa0",
            "hex": "410455a3680e3ee1be976c038fafc6ae7974f80839aee262b8113fba4d5e107b79f3c4b0b20ae7ae4479b63401def08f9069c51205525eb731457632b6d85711fac2ac",
            "type": "pubkey"
          }
        }
      ],
      "hex": "01000000010000000000000000000000000000000000000000000000000000000000000000ffffffff0804ffff001d025205ffffffff0100f2052a0100000043410455a3680e3ee1be976c038fafc6ae7974f80839aee262b8113fba4d5e107b79f3c4b0b20ae7ae4479b63401def08f9069c51205525eb731457632b6d85711fac2ac00000000"
    }
  ]
}