{
  "hash": "0000000074f93467cd042ff543456cdc048b61a3fe680ba70a67391cf82152e8",
  "confirmations": 47975,
  "height": 5123,
  "version": 1,
  "versionHex": "00000001",
  "merkleroot": "7b26a1967014c8b3754bd1a7588d9bde4ceb198ab2ed0d68139e470e16c42885",
  "time": 1235232997,
  "mediantime": 1235230526,
  "nonce": 2382409781,
  "bits": "1d00ffff",
  "difficulty": 1,
  "chainwork": "0000000000000000000000000000000000000000000000000000140414041404",
  "nTx": 1,
  "previousblockhash": "00000000348839143e107d56efa51e1883f6130384d37f34b111070a4e2e8180",
  "nextblockhash": "000000004276bb19c09247e33ba2aa49b8b5eb68b3b55d975bbd509e1f402c4f",
  "strippedsize": 216,
  "size": 216,
  "weight": 864,
  "tx": [
    {
      "txid": "7b26a1967014c8b3754bd1a7588d9bde4ceb198ab2ed0d68139e470e16c42885",
      "hash": "7b26a1967014c8b3754bd1a7588d9bde4ceb198ab2ed0d68139e470e16c42885",
      "version": 1,
      "size": 135,
      "vsize": 135,
      "weight": 540,
      "locktime": 0,
      "vin": [
        {
          "coinbase": "04ffff001d026209",
          "sequence": 4294967295
        }
      ],
      "vout": [
        {
          "value": 50.0,
          "n": 0,
          "scriptPubKey": {
            "asm": "049f40206e629a7683ae20bb3cced3f00270409a125598580be88d774ebb2d93a7c16057e56ccefb43bbd4737830ab331e4acbd348e26c1b21caf3b31aadcb3a66 OP_CHECKSIG",
            "desc": "pk(049f40206e629a7683ae20bb3cced3f00270409a125598580be88d774ebb2d93a7c16057e56ccefb43bbd4737830ab331e4acbd348e26c1b21caf3b31aadcb3a66)#5hh8sc95",
            "hex": "41049f40206e629a7683ae20bb3cced3f00270409a125598580be88d774ebb2d93a7c16057e56ccefb43bbd4737830ab331e4acbd348e26c1b21caf3b31aadcb3a66ac",
            "type": "pubkey"
          }
        }
      ],
      "hex": "01000000010000000000000000000000000000000000000000000000000000000000000000ffffffff0804ffff001d026209ffffffff0100f2052a010000004341049f40206e629a7683ae20bb3cced3f00270409a125598580be88d774ebb2d93a7c16057e56ccefb43bbd4737830ab331e4acbd348e26c1b21caf3b31aadcb3a66ac00000000"
    }
  ]
}