{
  "hash": "00000000d1875178e5bee1a42932a35c2572580ff016df27a33d75f802b0ae6f",
  "confirmations": 45119,
  "height": 7979,
  "version": 1,
  "versionHex": "00000001",
  "merkleroot": "a5dac1e3fbb05734951df3a3f7ef2702a62fec71a449f046a34ce9d7027e11a6",
  "time": 1237447027,
  "mediantime": 1237444992,
  "nonce": 868232737,
  "bits": "1d00ffff",
  "difficulty": 1,
  "chainwork": "00000000000000000000000000000000000000000000000000001f2c1f2c1f2c",
  "nTx": 1,
  "previousblockhash": "00000000a7d9641747cef5e2cd084a5298f5997f5a30cbf1bda142efcf789c42",
  "nextblockhash": "00000000bfa0f0d66b2151934f61ef683341ecfc28a8ddd47e4cbc8b18a37029",
  "strippedsize": 216,
  "size": 216,
  "weight": 864,
  "tx": [
    {
      "txid": "a5dac1e3fbb05734951df3a3f7ef2702a62fec71a449f046a34ce9d7027e11a6",
      "hash": "a5dac1e3fbb05734951df3a3f7ef2702a62fec71a449f046a34ce9d7027e11a6",
      "version": 1,
      "size": 135,
      "vsize": 135,
      "weight": 540,
      "locktime": 0,
      "vin": [
        {
          "coinbase": "04ffff001d02fe08",
          "sequence": 4294967295
        }
      ],
      "vout": [
        {
          "value": 50.0,
          "n": 0,
          "scriptPubKey": {
            "asm": "0424a867c27b3d0d4f75d037fbe3516290c6fd41dc2f84ca86394819137ed54d38e9c77a1c74f249ecb38a967143d24b3a9828c6557bab7dab4cf5cf0768d56e19 OP_CHECKSIG",
            "desc": "pk(0424a867c27b3d0d4f75d037fbe3516290c6fd41dc2f84ca86394819137ed54d38e9c77a1c74f249ecb38a967143d24b3a9828c6557bab7dab4cf5cf0768d56e19)#52t0pwqy",
            "hex": "410424a867c27b3d0d4f75d037fbe3516290c6fd41dc2f84ca86394819137ed54d38e9c77a1c74f249ecb38a967143d24b3a9828c6557bab7dab4cf5cf0768d56e19ac",
            "type": "pubkey"
          }
        }
      ],
      "hex": "01000000010000000000000000000000000000000000000000000000000000000000000000ffffffff0804ffff001d02fe08ffffffff0100f2052a0100000043410424a867c27b3d0d4f75d037fbe3516290c6fd41dc2f84ca86394819137ed54d38e9c77a1c74f249ecb38a967143d24b3a9828c6557bab7dab4cf5cf0768d56e19ac00000000"
    }
  ]
}