{
  "hash": "000000004cf71dbbc5e6b2570c1413cf01f14f0698ec6fe5b3c8003f828506ce",
  "confirmations": 44845,
  "height": 8253,
  "version": 1,
  "versionHex": "00000001",
  "merkleroot": "dc21a7f022d56fb034dd8bbac83682a7782bd891c56bf6b0054451e6d0f12703",
  "time": 1237699519,
  "mediantime": 1237695965,
  "nonce": 1090700032,
  "bits": "1d00ffff",
  "difficulty": 1,
  "chainwork": "0000000000000000000000000000000000000000000000000000203e203e203e",
  "nTx": 1,
  "previousblockhash": "000000000bdbf6e905e421dfe910c24248fc2dabd5644ace51f6ddb2fa1b7f3b",
  "nextblockhash": "00000000682d24e0ec13f1b3cbddf37ad655b7f962d0a604f2477bbbc9f54b64",
  "strippedsize": 216,
  "size": 216,
  "weight": 864,
  "tx": [
    {
      "txid": "dc21a7f022d56fb034dd8bbac83682a7782bd891c56bf6b0054451e6d0f12703",
      "hash": "dc21a7f022d56fb034dd8bbac83682a7782bd891c56bf6b0054451e6d0f12703",
      "version": 1,
      "size": 135,
      "vsize": 135,
      "weight": 540,
      "locktime": 0,
      "vin": [
        {
          "coinbase": "04ffff001d028803",
          "sequence": 4294967295
        }
      ],
      "vout": [
        {
          "value": 50.0,
          "n": 0,
          "scriptPubKey": {
            "asm": "040815d1c4a0042983d46ce993c3991388f26f428fd369df5cd6c5f2669343c5f69d20c03fb3d60d30f1df8383aae2f42bbd6f97a6ad861b02e8d5dd6d391a1944 OP_CHECKSIG",
            "desc": "pk(040815d1c4a0042983d46ce993c3991388f26f428fd369df5cd6c5f2669343c5f69d20c03fb3d60d30f1df8383aae2f42bbd6f97a6ad861b02e8d5dd6d391a1944)#k0rpdz5e",
            "hex": "41040815d1c4a0042983d46ce993c3991388f26f428fd369df5cd6c5f2669343c5f69d20c03fb3d60d30f1df8383aae2f42bbd6f97a6ad861b02e8d5dd6d391a1944ac",
            "type": "pubkey"
          }
        }
      ],
      "hex": "01000000010000000000000000000000000000000000000000000000000000000000000000ffffffff0804ffff001d028803ffffffff0100f2052a010000004341040815d1c4a0042983d46ce993c3991388f26f428fd369df5cd6c5f2669343c5f69d20c03fb3d60d30f1df8383aae2f42bbd6f97a6ad861b02e8d5dd6d391a1944ac00000000"
    }
  ]
}