{
  "hash": "00000000f6b7bac6920871b0a04a0c6c0d3aafd178acc7d057562c45f7dfc0ce",
  "confirmations": 52349,
  "height": 749,
  "version": 1,
  "versionHex": "00000001",
  "merkleroot": "8d678f9dc967ec84913e4e0b8779dc404ad19309e09fc57df0aa37f3f63ec239",
  "time": 1232151146,
  "mediantime": 1232146460,
  "nonce": 1931439621,
  "bits": "1d00ffff",
  "difficulty": 1,
  "chainwork": "000000000000000000000000000000000000000000000000000002ee02ee02ee",
  "nTx": 1,
  "previousblockhash": "00000000417a0fcdb5047f37ed922c536fa7c27b99fc2d455016a42e11b6e96c",
  "nextblockhash": "00000000ad8174a71c1b2c01fd6076143c2cf57d768bf80d7c11b6721d3a2525",
  "strippedsize": 216,
  "size": 216,
  "weight": 864,
  "tx": [
    {
      "txid": "8d678f9dc967ec84913e4e0b8779dc404ad19309e09fc57df0aa37f3f63ec239",
      "hash": "8d678f9dc967ec84913e4e0b8779dc404ad19309e09fc57df0aa37f3f63ec239",
      "version": 1,
      "size": 135,
      "vsize": 135,
      "weight": 540,
      "locktime": 0,
      "vin": [
        {
          "coinbase": "04ffff001d029f00",
          "sequence": 4294967295
        }
      ],
      "vout": [
        {
          "value": 50.0,
          "n": 0,
          "scriptPubKey": {
            "asm": "04ad28794ae607e6b4be79272a4b20ad88d4368b69161b2613fb71fee86baf3ed98499706ffd5c33e006be66bdabfb555ce42cd96c8df9a229ca68bec5c912e60e OP_CHECKSIG",
            "desc": "pk(04ad28794ae607e6b4be79272a4b20ad88d4368b69161b2613fb71fee86baf3ed98499706ffd5c33e006be66bdabfb555ce42cd96c8df9a229ca68bec5c912e60e)#7708h6w4",
            "hex": "4104ad28794ae607e6b4be79272a4b20ad88d4368b69161b2613fb71fee86baf3ed98499706ffd5c33e006be66bdabfb555ce42cd96c8df9a229ca68bec5c912e60eac",
            "type": "pubkey"
          }
        }
      ],
      "hex": "01000000010000000000000000000000000000000000000000000000000000000000000000ffffffff0804ffff001d029f00ffffffff0100f2052a01000000434104ad28794ae607e6b4be79272a4b20ad88d4368b69161b2613fb71fee86baf3ed98499706ffd5c33e006be66bdabfb555ce42cd96c8df9a229ca68bec5c912e60eac00000000"
    }
  ]
}