{
  "hash": "0000000015711ec0cd8d5b71ef8ac65df81f6ad95a0449d90ca5bf6820881efb",
  "confirmations": 45117,
  "height": 7981,
  "version": 1,
  "versionHex": "00000001",
  "merkleroot": "c8f2f19bc5417259412a48bb70d8482d5e41d872741f2280644b240d0a24b256",
  "time": 1237448211,
  "mediantime": 1237445649,
  "nonce": 1974794500,
  "bits": "1d00ffff",
  "difficulty": 1,
  "chainwork": "00000000000000000000000000000000000000000000000000001f2e1f2e1f2e",
  "nTx": 1,
  "previousblockhash": "00000000bfa0f0d66b2151934f61ef683341ecfc28a8ddd47e4cbc8b18a37029",
  "nextblockhash": "000000001c936ae3099fd3cc59f18cd70c1c862ab4860f20ff92c7775314b073",
  "strippedsize": 216,
  "size": 216,
  "weight": 864,
  "tx": [
    {
      "txid": "c8f2f19bc5417259412a48bb70d8482d5e41d872741f2280644b240d0a24b256",
      "hash": "c8f2f19bc5417259412a48bb70d8482d5e41d872741f2280644b240d0a24b256",
      "version": 1,
      "size": 135,
      "vsize": 135,
      "weight": 540,
      "locktime": 0,
      "vin": [
        {
          "coinbase": "04ffff001d020f09",
          "sequence": 4294967295
        }
      ],
      "vout": [
        {
          "value": 50.0,
          "n": 0,
          "scriptPubKey": {
            "asm": "045efdaf39d12e7c98087df24e25eeafb7a16d0711e579cd10f0fbc139210010aa832d8b8d29c2e3bae2c2680ba6f9086d5a1b10439e46d87bcfde8fc4b0a1e19d OP_CHECKSIG",
            "desc": "pk(045efdaf39d12e7c98087df24e25eeafb7a16d0711e579cd10f0fbc139210010aa832d8b8d29c2e3bae2c2680ba6f9086d5a1b10439e46d87bcfde8fc4b0a1e19d)#u0v4uc47",
            "hex": "41045efdaf39d12e7c98087df24e25eeafb7a16d0711e579cd10f0fbc139210010aa832d8b8d29c2e3bae2c2680ba6f9086d5a1b10439e46d87bcfde8fc4b0a1e19dac",
            "type": "pubkey"
          }
        }
      ],
      "hex": "01000000010000000000000000000000000000000000000000000000000000000000000000ffffffff0804ffff001d020f09ffffffff0100f2052a010000004341045efdaf39d12e7c98087df24e25eeafb7a16d0711e579cd10f0fbc139210010aa832d8b8d29c2e3bae2c2680ba6f9086d5a1b10439e46d87bcfde8fc4b0a1e19dac00000000"
    }
  ]
}