{
  "hash": "00000000af9ecd4de95e6f92a55106c7b2a78161fdb71531497f0328b42cc14b",
  "confirmations": 45232,
  "height": 7866,
  "version": 1,
  "versionHex": "00000001",
  "merkleroot": "c7f053458aa1f8c3df4ff69aeef79b57e7226a8d6f1a756a51f3b4fae7ee7f63",
  "time": 1237364286,
  "mediantime": 1237359245,
  "nonce": 806193687,
  "bits": "1d00ffff",
  "difficulty": 1,
  "chainwork": "00000000000000000000000000000000000000000000000000001ebb1ebb1ebb",
  "nTx": 1,
  "previousblockhash": "0000000020bdf900fc67ded9a556b6f22740856a1bf2ad92a6871ac4d3d0f594",
  "nextblockhash": "00000000238e8850d1e9cfc702e5ca08e8ad95500bc811f1103a70c61d8cc26c",
  "strippedsize": 216,
  "size": 216,
  "weight": 864,
  "tx": [
    {
      "txid": "c7f053458aa1f8c3df4ff69aeef79b57e7226a8d6f1a756a51f3b4fae7ee7f63",
      "hash": "c7f053458aa1f8c3df4ff69aeef79b57e7226a8d6f1a756a51f3b4fae7ee7f63",
      "version": 1,
      "size": 135,
      "vsize": 135,
      "weight": 540,
      "locktime": 0,
      "vin": [
        {
          "coinbase": "04ffff001d02ff06",
          "sequence": 4294967295
        }
      ],
      "vout": [
        {
          "value": 50.0,
          "n": 0,
          "scriptPubKey": {
            "asm": "04a0319a5a3c7a6765f266e23923aaebc6c691d50d291e374bb4b5a7b935d4c62986b13d8174eb817940264c0ddc9f94038503be8f81447d2df0ee8e0c17856b89 OP_CHECKSIG",
            "desc": "pk(04a0319a5a3c7a6765f266e23923aaebc6c691d50d291e374bb4b5a7b935d4c62986b13d8174eb817940264c0ddc9f94038503be8f81447d2df0ee8e0c17856b89)#yp9yzpd0",
            "hex": "4104a0319a5a3c7a6765f266e23923aaebc6c691d50d291e374bb4b5a7b935d4c62986b13d8174eb817940264c0ddc9f94038503be8f81447d2df0ee8e0c17856b89ac",
            "type": "pubkey"
          }
        }
      ],
      "hex": "01000000010000000000000000000000000000000000000000000000000000000000000000ffffffff0804ffff001d02ff06ffffffff0100f2052a01000000434104a0319a5a3c7a6765f266e23923aaebc6c691d50d291e374bb4b5a7b935d4c62986b13d8174eb817940264c0ddc9f94038503be8f81447d2df0ee8e0c17856b89ac00000000"
    }
  ]
}