{
  "hash": "00000000951f6f6673daf5146e2b0d64a9056faa598afadec03cc09664a21297",
  "confirmations": 50660,
  "height": 2438,
  "version": 1,
  "versionHex": "00000001",
  "merkleroot": "8c851e45a6a278ac719bc3befc2ce85e72d64b927513ac62c0b9a24c917e2dc2",
  "time": 1233383847,
  "mediantime": 1233380038,
  "nonce": 2475072305,
  "bits": "1d00ffff",
  "difficulty": 1,
  "chainwork": "0000000000000000000000000000000000000000000000000000098709870987",
  "nTx": 1,
  "previousblockhash": "00000000066397fb85d28f2cdee78c1ad5e1a01cddba2728e728f92a04c6a405",
  "nextblockhash": "00000000716ec65a3944e4282b67d65a91e42271ec199270ab782c80ac182704",
  "strippedsize": 215,
  "size": 215,
  "weight": 860,
  "tx": [
    {
      "txid": "8c851e45a6a278ac719bc3befc2ce85e72d64b927513ac62c0b9a24c917e2dc2",
      "hash": "8c851e45a6a278ac719bc3befc2ce85e72d64b927513ac62c0b9a24c917e2dc2",
      "version": 1,
      "size": 134,
      "vsize": 134,
      "weight": 536,
      "locktime": 0,
      "vin": [
        {
          "coinbase": "04ffff001d0159",
          "sequence": 4294967295
        }
      ],
      "vout": [
        {
          "value": 50.0,
          "n": 0,
          "scriptPubKey": {
            "asm": "0479bb58ea8914c4266e7c2857090ed236055a72cb4c04f89c2c3fb93b4e86774090f5e95bd02f51a058da804ede66f438e4dac3192bb98266f5393ae0b564b0d8 OP_CHECKSIG",
            "desc": "pk(0479bb58ea8914c4266e7c2857090ed236055a72cb4c04f89c2c3fb93b4e86774090f5e95bd02f51a058da804ede66f438e4dac3192bb98266f5393ae0b564b0d8)#28yhvph6",
            "hex": "410479bb58ea8914c4266e7c2857090ed236055a72cb4c04f89c2c3fb93b4e86774090f5e95bd02f51a058da804ede66f438e4dac3192bb98266f5393ae0b564b0d8ac",
            "type": "pubkey"
          }
        }
      ],
      "hex": "01000000010000000000000000000000000000000000000000000000000000000000000000ffffffff0704ffff001d0159ffffffff0100f2052a0100000043410479bb58ea8914c4266e7c2857090ed236055a72cb4c04f89c2c3fb93b4e86774090f5e95bd02f51a058da804ede66f438e4dac3192bb98266f5393ae0b564b0d8ac00000000"
    }
  ]
}