{
  "hash": "00000000ebc95fe8f770d81dfdc07a034fd6c1dabf35af9bed834fedaa5f065b",
  "confirmations": 44717,
  "height": 8381,
  "version": 1,
  "versionHex": "00000001",
  "merkleroot": "8432824c6b37323806aab5d034f78fdee85f91b5183c6462a8d4f6863bed08b6",
  "time": 1237787540,
  "mediantime": 1237783082,
  "nonce": 900020743,
  "bits": "1d00ffff",
  "difficulty": 1,
  "chainwork": "000000000000000000000000000000000000000000000000000020be20be20be",
  "nTx": 1,
  "previousblockhash": "000000007991c4351b6074eade162fcd39992d42ef527ebe0e03ff427e1e9e59",
  "nextblockhash": "00000000156ff65d1b35b88ad8539f0cc096fd4618750fa779142ecdbbcd2e15",
  "strippedsize": 216,
  "size": 216,
  "weight": 864,
  "tx": [
    {
      "txid": "8432824c6b37323806aab5d034f78fdee85f91b5183c6462a8d4f6863bed08b6",
      "hash": "8432824c6b37323806aab5d034f78fdee85f91b5183c6462a8d4f6863bed08b6",
      "version": 1,
      "size": 135,
      "vsize": 135,
      "weight": 540,
      "locktime": 0,
      "vin": [
        {
          "coinbase": "04ffff001d028705",
          "sequence": 4294967295
        }
      ],
      "vout": [
        {
          "value": 50.0,
          "n": 0,
          "scriptPubKey": {
            "asm": "04f904dffc2936ac081f5247c02a6e97467597e1e2efba0f2306751f3e833610988ca01b3dc6cd7212eafa016bd1960d965a3928c029ff9af8ee6e44b3311d5f31 OP_CHECKSIG",
            "desc": "pk(04f904dffc2936ac081f5247c02a6e97467597e1e2efba0f2306751f3e833610988ca01b3dc6cd7212eafa016bd1960d965a3928c029ff9af8ee6e44b3311d5f31)#8xfts6xh",
            "hex": "4104f904dffc2936ac081f5247c02a6e97467597e1e2efba0f2306751f3e833610988ca01b3dc6cd7212eafa016bd1960d965a3928c029ff9af8ee6e44b3311d5f31ac",
            "type": "pubkey"
          }
        }
      ],
      "hex": "01000000010000000000000000000000000000000000000000000000000000000000000000ffffffff0804ffff001d028705ffffffff0100f2052a01000000434104f904dffc2936ac081f5247c02a6e97467597e1e2efba0f2306751f3e833610988ca01b3dc6cd7212eafa016bd1960d965a3928c029ff9af8ee6e44b3311d5f31ac00000000"
    }
  ]
}