{
  "hash": "00000000204da74cb20af67449c889b7bbb19f53d5387f999f875d8a1325de57",
  "confirmations": 52468,
  "height": 630,
  "version": 1,
  "versionHex": "00000001",
  "merkleroot": "5465da8f17a7ff8dc2e381faef3b36515efce1d72917463f66b43c5522b31d17",
  "time": 1232056478,
  "mediantime": 1232052762,
  "nonce": 539073568,
  "bits": "1d00ffff",
  "difficulty": 1,
  "chainwork": "0000000000000000000000000000000000000000000000000000027702770277",
  "nTx": 1,
  "previousblockhash": "00000000959df6e8faf7b28a0e0610574f33856b74a6b9c2888fccdc7e3e6c03",
  "nextblockhash": "000000002c72cdf747e4fa6ad34a4bf6159cc65ab462e069c15d23eb5a688107",
  "strippedsize": 216,
  "size": 216,
  "weight": 864,
  "tx": [
    {
      "txid": "5465da8f17a7ff8dc2e381faef3b36515efce1d72917463f66b43c5522b31d17",
      "hash": "5465da8f17a7ff8dc2e381faef3b36515efce1d72917463f66b43c5522b31d17",
      "version": 1,
      "size": 135,
      "vsize": 135,
      "weight": 540,
      "locktime": 0,
      "vin": [
        {
          "coinbase": "04ffff001d021c07",
          "sequence": 4294967295
        }
      ],
      "vout": [
        {
          "value": 50.0,
          "n": 0,
          "scriptPubKey": {
            "asm": "0442969209de8c85a10118abf214fd98ea6c59a432281858dd8e4b62692217e6c58145fd0150d1c78b501707019a5b0626b9d711c9cf848054b7c9a0eae73443c2 OP_CHECKSIG",
            "desc": "pk(0442969209de8c85a10118abf214fd98ea6c59a432281858dd8e4b62692217e6c58145fd0150d1c78b501707019a5b0626b9d711c9cf848054b7c9a0eae73443c2)#hzh8grhy",
            "hex": "410442969209de8c85a10118abf214fd98ea6c59a432281858dd8e4b62692217e6c58145fd0150d1c78b501707019a5b0626b9d711c9cf848054b7c9a0eae73443c2ac",
            "type": "pubkey"
          }
        }
      ],
      "hex": "01000000010000000000000000000000000000000000000000000000000000000000000000ffffffff0804ffff001d021c07ffffffff0100f2052a0100000043410442969209de8c85a10118abf214fd98ea6c59a432281858dd8e4b62692217e6c58145fd0150d1c78b501707019a5b0626b9d711c9cf848054b7c9a0eae73443c2ac00000000"
    }
  ]
}