{
  "hash": "0000000092c57e4d0f6f29a83a4072fdea05816199619e60c96867f7df570d5d",
  "confirmations": 52040,
  "height": 359,
  "version": 1,
  "versionHex": "00000001",
  "merkleroot": "6959b3dad2d2c20625013a464b5acb2442da2096a1243e0034e1e5a984b1e10c",
  "time": 1231872516,
  "mediantime": 1231868549,
  "nonce": 2119252013,
  "bits": "1d00ffff",
  "difficulty": 1,
  "chainwork": "0000000000000000000000000000000000000000000000000000016801680168",
  "nTx": 1,
  "previousblockhash": "0000000032d1692a4b213820a1e668733d72e483188ca3dc64f838cdcf5b2fb9",
  "nextblockhash": "00000000b3de4f2a07df16131eab4f13aa38f9db2d4468ba25a083f8c0cb2cd6",
  "strippedsize": 216,
  "size": 216,
  "weight": 864,
  "tx": [
    {
      "txid": "6959b3dad2d2c20625013a464b5acb2442da2096a1243e0034e1e5a984b1e10c",
      "hash": "6959b3dad2d2c20625013a464b5acb2442da2096a1243e0034e1e5a984b1e10c",
      "version": 1,
      "size": 135,
      "vsize": 135,
      "weight": 540,
      "locktime": 0,
      "vin": [
        {
          "coinbase": "04ffff001d02b101",
          "sequence": 4294967295
        }
      ],
      "vout": [
        {
          "value": 50.0,
          "n": 0,
          "scriptPubKey": {
            "asm": "04df8c5d8ca2404f53ee574702c08602c9a38a7ae05b2b36b06dfc55802d53e58c477bd864a48403396c431681b3466b5a5be53a13ebc2bacb49b4862d31e02096 OP_CHECKSIG",
            "desc": "pk(04df8c5d8ca2404f53ee574702c08602c9a38a7ae05b2b36b06dfc55802d53e58c477bd864a48403396c431681b3466b5a5be53a13ebc2bacb49b4862d31e02096)#mthmwwvt",
            "hex": "4104df8c5d8ca2404f53ee574702c08602c9a38a7ae05b2b36b06dfc55802d53e58c477bd864a48403396c431681b3466b5a5be53a13ebc2bacb49b4862d31e02096ac",
            "type": "pubkey"
          }
        }
      ],
      "hex": "01000000010000000000000000000000000000000000000000000000000000000000000000ffffffff0804ffff001d02b101ffffffff0100f2052a01000000434104df8c5d8ca2404f53ee574702c08602c9a38a7ae05b2b36b06dfc55802d53e58c477bd864a48403396c431681b3466b5a5be53a13ebc2bacb49b4862d31e02096ac00000000"
    }
  ]
}