{
  "hash": "00000000e0aa228fd33ef41299c7451f0c1d331ffb77cfcdf27379fa75bac6ff",
  "confirmations": 43592,
  "height": 9506,
  "version": 1,
  "versionHex": "00000001",
  "merkleroot": "90b8869c35f1098ebb3613ba2f6b71fdbf745e0f73cb51032b8f411d3528b95b",
  "time": 1238632732,
  "mediantime": 1238628803,
  "nonce": 174090809,
  "bits": "1d00ffff",
  "difficulty": 1,
  "chainwork": "0000000000000000000000000000000000000000000000000000252325232523",
  "nTx": 1,
  "previousblockhash": "000000003c07449ea96a504f5ea2d61107673fa5e4ed9d7add56ab9b8bbf7cc0",
  "nextblockhash": "00000000332b32f70008b5275e72fc2a2d103b2559da7f0679db424c2d2eb928",
  "strippedsize": 216,
  "size": 216,
  "weight": 864,
  "tx": [
    {
      "txid": "90b8869c35f1098ebb3613ba2f6b71fdbf745e0f73cb51032b8f411d3528b95b",
      "hash": "90b8869c35f1098ebb3613ba2f6b71fdbf745e0f73cb51032b8f411d3528b95b",
      "version": 1,
      "size": 135,
      "vsize": 135,
      "weight": 540,
      "locktime": 0,
      "vin": [
        {
          "coinbase": "04ffff001d027905",
          "sequence": 4294967295
        }
      ],
      "vout": [
        {
          "value": 50.0,
          "n": 0,
          "scriptPubKey": {
            "asm": "04ceb0c5b342ad30e59ec1619ee2dd6cbc4ee0599ede4c8dc08683b001b2caa266d174da907e270b9708069cb9800729513d97d1b5de9ef4cdfb12d36e61e9b1ee OP_CHECKSIG",
            "desc": "pk(04ceb0c5b342ad30e59ec1619ee2dd6cbc4ee0599ede4c8dc08683b001b2caa266d174da907e270b9708069cb9800729513d97d1b5de9ef4cdfb12d36e61e9b1ee)#tnkcl32r",
            "hex": "4104ceb0c5b342ad30e59ec1619ee2dd6cbc4ee0599ede4c8dc08683b001b2caa266d174da907e270b9708069cb9800729513d97d1b5de9ef4cdfb12d36e61e9b1eeac",
            "type": "pubkey"
          }
        }
      ],
      "hex": "01000000010000000000000000000000000000000000000000000000000000000000000000ffffffff0804ffff001d027905ffffffff0100f2052a01000000434104ceb0c5b342ad30e59ec1619ee2dd6cbc4ee0599ede4c8dc08683b001b2caa266d174da907e270b9708069cb9800729513d97d1b5de9ef4cdfb12d36e61e9b1eeac00000000"
    }
  ]
}