{
  "hash": "00000000f7faec5b1ca7ebc049b6a4549fbba3dd1eecde8184a2758fd65cc042",
  "confirmations": 51432,
  "height": 1666,
  "version": 1,
  "versionHex": "00000001",
  "merkleroot": "1adf6ecb0a06efc0b06ab447afd2eb48648f8af742205d5180981eb66c4c270c",
  "time": 1232838737,
  "mediantime": 1232837279,
  "nonce": 41277206,
  "bits": "1d00ffff",
  "difficulty": 1,
  "chainwork": "0000000000000000000000000000000000000000000000000000068306830683",
  "nTx": 1,
  "previousblockhash": "000000001c4b5a7ace6494b30fbad309ca9ed670cb691ac272ff4ec8d2511328",
  "nextblockhash": "00000000bcbe926ce2e80ad73147811703d86bfe355e911f75676f77d5176bf8",
  "strippedsize": 216,
  "size": 216,
  "weight": 864,
  "tx": [
    {
      "txid": "1adf6ecb0a06efc0b06ab447afd2eb48648f8af742205d5180981eb66c4c270c",
      "hash": "1adf6ecb0a06efc0b06ab447afd2eb48648f8af742205d5180981eb66c4c270c",
      "version": 1,
      "size": 135,
      "vsize": 135,
      "weight": 540,
      "locktime": 0,
      "vin": [
        {
          "coinbase": "04ffff001d02b102",
          "sequence": 4294967295
        }
      ],
      "vout": [
        {
          "value": 50.0,
          "n": 0,
          "scriptPubKey": {
            "asm": "04925fe69f0950beee596671ac9a36342aabd5fcdbd296a024ede5c2e10b4843e5030a0025bebfddd8ebeed55fd5b2ffaafdfb55c534fd7f3fd29d2b8ac5b0b308 OP_CHECKSIG",
            "desc": "pk(04925fe69f0950beee596671ac9a36342aabd5fcdbd296a024ede5c2e10b4843e5030a0025bebfddd8ebeed55fd5b2ffaafdfb55c534fd7f3fd29d2b8ac5b0b308)#c5z6gm5j",
            "hex": "4104925fe69f0950beee596671ac9a36342aabd5fcdbd296a024ede5c2e10b4843e5030a0025bebfddd8ebeed55fd5b2ffaafdfb55c534fd7f3fd29d2b8ac5b0b308ac",
            "type": "pubkey"
          }
        }
      ],
      "hex": "01000000010000000000000000000000000000000000000000000000000000000000000000ffffffff0804ffff001d02b102ffffffff0100f2052a01000000434104925fe69f0950beee596671ac9a36342aabd5fcdbd296a024ede5c2e10b4843e5030a0025bebfddd8ebeed55fd5b2ffaafdfb55c534fd7f3fd29d2b8ac5b0b308ac00000000"
    }
  ]
}