{
  "hash": "00000000d0e646265da32fa7eac3a7a4cc9bf2953a5c8333d59c9ffd83bcb894",
  "confirmations": 47968,
  "height": 5130,
  "version": 1,
  "versionHex": "00000001",
  "merkleroot": "aee014c65c150829a2b384ff877fed20cd2ac5ad90be62038e69cdff88574d05",
  "time": 1235237744,
  "mediantime": 1235234025,
  "nonce": 79208470,
  "bits": "1d00ffff",
  "difficulty": 1,
  "chainwork": "0000000000000000000000000000000000000000000000000000140b140b140b",
  "nTx": 1,
  "previousblockhash": "0000000057e88a6a6bef8144585cf4911c15c84c797d160c553ea192c1137ca5",
  "nextblockhash": "000000001c7d76a9dc50b36c8f2fb152e4355e2db354487b99d78b23085f90c0",
  "strippedsize": 215,
  "size": 215,
  "weight": 860,
  "tx": [
    {
      "txid": "aee014c65c150829a2b384ff877fed20cd2ac5ad90be62038e69cdff88574d05",
      "hash": "aee014c65c150829a2b384ff877fed20cd2ac5ad90be62038e69cdff88574d05",
      "version": 1,
      "size": 134,
      "vsize": 134,
      "weight": 536,
      "locktime": 0,
      "vin": [
        {
          "coinbase": "04ffff001d010c",
          "sequence": 4294967295
        }
      ],
      "vout": [
        {
          "value": 50.0,
          "n": 0,
          "scriptPubKey": {
            "asm": "047020c375035acc63cb867c4c04d6359a5cc5ee9bb047bb404896bd11239627f69ddc65655ed38672988c7750749890bc94a7f95174323464d6f3ae6832079d63 OP_CHECKSIG",
            "desc": "pk(047020c375035acc63cb867c4c04d6359a5cc5ee9bb047bb404896bd11239627f69ddc65655ed38672988c7750749890bc94a7f95174323464d6f3ae6832079d63)#u53shs4r",
            "hex": "41047020c375035acc63cb867c4c04d6359a5cc5ee9bb047bb404896bd11239627f69ddc65655ed38672988c7750749890bc94a7f95174323464d6f3ae6832079d63ac",
            "type": "pubkey"
          }
        }
      ],
      "hex": "01000000010000000000000000000000000000000000000000000000000000000000000000ffffffff0704ffff001d010cffffffff0100f2052a010000004341047020c375035acc63cb867c4c04d6359a5cc5ee9bb047bb404896bd11239627f69ddc65655ed38672988c7750749890bc94a7f95174323464d6f3ae6832079d63ac00000000"
    }
  ]
}