{
  "hash": "00000000eb2c876cc1125d31010538ed611330bfca9933912979976590d9fe8a",
  "confirmations": 48185,
  "height": 4913,
  "version": 1,
  "versionHex": "00000001",
  "merkleroot": "6957816a7be9e06def8e113ee939e4eee4b3e78dfd0e52c3c05e6cdd057e0939",
  "time": 1235079810,
  "mediantime": 1235076449,
  "nonce": 1234395948,
  "bits": "1d00ffff",
  "difficulty": 1,
  "chainwork": "0000000000000000000000000000000000000000000000000000133213321332",
  "nTx": 1,
  "previousblockhash": "000000008b8d737b88327bc66edc676668f56db95c623bbe91aa945342983c3b",
  "nextblockhash": "0000000063f2a8df3250c9ed3a88b3dd03c156a7de74219a3fca969d04dce318",
  "strippedsize": 216,
  "size": 216,
  "weight": 864,
  "tx": [
    {
      "txid": "6957816a7be9e06def8e113ee939e4eee4b3e78dfd0e52c3c05e6cdd057e0939",
      "hash": "6957816a7be9e06def8e113ee939e4eee4b3e78dfd0e52c3c05e6cdd057e0939",
      "version": 1,
      "size": 135,
      "vsize": 135,
      "weight": 540,
      "locktime": 0,
      "vin": [
        {
          "coinbase": "04ffff001d02c905",
          "sequence": 4294967295
        }
      ],
      "vout": [
        {
          "value": 50.0,
          "n": 0,
          "scriptPubKey": {
            "asm": "0423d0de8a9c1e91f0c1343b0a3487f90e91d573703b7227fa9d3e36d513f3b5de513ef417e37e5d33afe682bf428929f60dfe9540c5f0154f4e4a3238bf8d09f9 OP_CHECKSIG",
            "desc": "pk(0423d0de8a9c1e91f0c1343b0a3487f90e91d573703b7227fa9d3e36d513f3b5de513ef417e37e5d33afe682bf428929f60dfe9540c5f0154f4e4a3238bf8d09f9)#6z09vcn0",
            "hex": "410423d0de8a9c1e91f0c1343b0a3487f90e91d573703b7227fa9d3e36d513f3b5de513ef417e37e5d33afe682bf428929f60dfe9540c5f0154f4e4a3238bf8d09f9ac",
            "type": "pubkey"
          }
        }
      ],
      "hex": "01000000010000000000000000000000000000000000000000000000000000000000000000ffffffff0804ffff001d02c905ffffffff0100f2052a0100000043410423d0de8a9c1e91f0c1343b0a3487f90e91d573703b7227fa9d3e36d513f3b5de513ef417e37e5d33afe682bf428929f60dfe9540c5f0154f4e4a3238bf8d09f9ac00000000"
    }
  ]
}