{
  "hash": "000000009e68d1afdc7c07b4b3bbc1ce891baf472495aef5a57f8ac73fd4f9b6",
  "confirmations": 47588,
  "height": 5510,
  "version": 1,
  "versionHex": "00000001",
  "merkleroot": "ab789d926b1bb1ca0bffb086c9f2ea7128e47d3f89d6ab3fe35711343a29f62d",
  "time": 1235529891,
  "mediantime": 1235525729,
  "nonce": 1735812640,
  "bits": "1d00ffff",
  "difficulty": 1,
  "chainwork": "0000000000000000000000000000000000000000000000000000158715871587",
  "nTx": 1,
  "previousblockhash": "00000000931cb664384a4c637862f20287d8df407ab6de0afca432d98f6963f1",
  "nextblockhash": "000000000c0cfb45eb088805bacb26e3258fb826384f7ac0c190cbdcc269de5d",
  "strippedsize": 216,
  "size": 216,
  "weight": 864,
  "tx": [
    {
      "txid": "ab789d926b1bb1ca0bffb086c9f2ea7128e47d3f89d6ab3fe35711343a29f62d",
      "hash": "ab789d926b1bb1ca0bffb086c9f2ea7128e47d3f89d6ab3fe35711343a29f62d",
      "version": 1,
      "size": 135,
      "vsize": 135,
      "weight": 540,
      "locktime": 0,
      "vin": [
        {
          "coinbase": "04ffff001d02d405",
          "sequence": 4294967295
        }
      ],
      "vout": [
        {
          "value": 50.0,
          "n": 0,
          "scriptPubKey": {
            "asm": "04d85c335d5ddba591cfa1644fa9b35bdc24d0a02e4ec8f72e4fb4d6f4a2677180148e5936d64ae43da1eccaec959d488e415057bfc775e5d18c4deef17fd6c8df OP_CHECKSIG",
            "desc": "pk(04d85c335d5ddba591cfa1644fa9b35bdc24d0a02e4ec8f72e4fb4d6f4a2677180148e5936d64ae43da1eccaec959d488e415057bfc775e5d18c4deef17fd6c8df)#w9q8xhrc",
            "hex": "4104d85c335d5ddba591cfa1644fa9b35bdc24d0a02e4ec8f72e4fb4d6f4a2677180148e5936d64ae43da1eccaec959d488e415057bfc775e5d18c4deef17fd6c8dfac",
            "type": "pubkey"
          }
        }
      ],
      "hex": "01000000010000000000000000000000000000000000000000000000000000000000000000ffffffff0804ffff001d02d405ffffffff0100f2052a01000000434104d85c335d5ddba591cfa1644fa9b35bdc24d0a02e4ec8f72e4fb4d6f4a2677180148e5936d64ae43da1eccaec959d488e415057bfc775e5d18c4deef17fd6c8dfac00000000"
    }
  ]
}