{
  "hash": "0000000050f1efa0c2d73fa8b622f4fb303ff0ad32d8c42674740f3d3f1b3ea6",
  "confirmations": 48689,
  "height": 4409,
  "version": 1,
  "versionHex": "00000001",
  "merkleroot": "e76c3427f8a03d4d83a0e7a618dc8b2472c01076e96b031cfc64e68505733d93",
  "time": 1234718841,
  "mediantime": 1234716007,
  "nonce": 3439395623,
  "bits": "1d00ffff",
  "difficulty": 1,
  "chainwork": "0000000000000000000000000000000000000000000000000000113a113a113a",
  "nTx": 2,
  "previousblockhash": "000000007825f125ca631cdf63c6dc6ec0e97b7a41c9035f5a2c8cab37fca7ff",
  "nextblockhash": "00000000ef9c6890b4fd5783616463f221054d4b1f8808fdc37792150cfe0f7c",
  "strippedsize": 988,
  "size": 988,
  "weight": 3952,
  "tx": [
    {
      "txid": "172c983cb3f0a0fc51769cbbce9a71dcaf0e75b2bd941df80acfca6af8297255",
      "hash": "172c983cb3f0a0fc51769cbbce9a71dcaf0e75b2bd941df80acfca6af8297255",
      "version": 1,
      "size": 135,
      "vsize": 135,
      "weight": 540,
      "locktime": 0,
      "vin": [
        {
          "coinbase": "04ffff001d027501",
          "sequence": 4294967295
        }
      ],
      "vout": [
        {
          "value": 50.0,
          "n": 0,
          "scriptPubKey": {
            "asm": "04785ccf486e2468c854d33985c2a07cfbca33105edcfa9903e6c9b95656c7f74d09ef06673c0c4f9578d75e1226f69e1d54d91f04383ef4382fc0fb03edbb61a0 OP_CHECKSIG",
            "desc": "pk(04785ccf486e2468c854d33985c2a07cfbca33105edcfa9903e6c9b95656c7f74d09ef06673c0c4f9578d75e1226f69e1d54d91f04383ef4382fc0fb03edbb61a0)#wwek6320",
            "hex": "4104785ccf486e2468c854d33985c2a07cfbca33105edcfa9903e6c9b95656c7f74d09ef06673c0c4f9578d75e1226f69e1d54d91f04383ef4382fc0fb03edbb61a0ac",
            "type": "pubkey"
          }
        }
      ],
      "hex": "01000000010000000000000000000000000000000000000000000000000000000000000000ffffffff0804ffff001d027501ffffffff0100f2052a01000000434104785ccf486e2468c854d33985c2a07cfbca33105edcfa9903e6c9b95656c7f74d09ef06673c0c4f9578d75e1226f69e1d54d91f04383ef4382fc0fb03edbb61a0ac00000000"
    },
    {
      "txid": "44e2654e3d0de45d6c3195d4d77a12318b13547b9cd0160b96babaf0c00a6f50",
      "hash": "44e2654e3d0de45d6c3195d4d77a12318b13547b9cd0160b96babaf0c00a6f50",
      "version": 1,
      "size": 772,
      "vsize": 772,
      "weight": 3088,
      "locktime": 0,
      "vin": [
        {
          "txid": "511649150cd77d57a90f22f5de7ab72e577ac795b36d1e19cc6e7cf9ced1881e",
          "vout": 0,
          "scriptSig": {
            "asm": "304602210098323988a7f507fb1a76a2b573fe9d8d424b0e5607619ef531adf519ecf6f5e4022100d17c72937dc70e917362c0b2ca63b4bb6f92f39b38adce3fbdf919bd88f40ff0[ALL]",
            "hex": "49304602210098323988a7f507fb1a76a2b573fe9d8d424b0e5607619ef531adf519ecf6f5e4022100d17c72937dc70e917362c0b2ca63b4bb6f92f39b38adce3fbdf919bd88f40ff001"
          },
          "sequence": 4294967295
        },
        {
          "txid": "dc6846136494d63c92a895dd0dda5fd83e4deaaf1eff1cfc5a640935f64a7548",
          "vout": 0,
          "scriptSig": {
            "asm": "30460221009cf27758729b23c9f364a82e3d7d6ab4a82437ea7e21af25a26fca97becf7e91022100f4f480cf78346abc61aaba1c93a063d5313c57328213da1300c2f8b8c9f38fc0[ALL]",
            "hex": "4930460221009cf27758729b23c9f364a82e3d7d6ab4a82437ea7e21af25a26fca97becf7e91022100f4f480cf78346abc61aaba1c93a063d5313c57328213da1300c2f8b8c9f38fc001"
          },
          "sequence": 4294967295
        },
        {
          "txid": "87553c376c32aaaffe46ebe6368a975809962ddc166859c5330bed5d822c467d",
          "vout": 0,
          "scriptSig": {
            "asm": "304502206bc52fc1d263ded7ac0a385a0a88b8145adf25827ccbd72a40c1d72339a9d29e022100f5a3d32db1c1b3e40544bae1e9c62c9b8498129032abb1f15596ab52a2206fed[ALL]",
            "hex": "48304502206bc52fc1d263ded7ac0a385a0a88b8145adf25827ccbd72a40c1d72339a9d29e022100f5a3d32db1c1b3e40544bae1e9c62c9b8498129032abb1f15596ab52a2206fed01"
          },
          "sequence": 4294967295
        },
        {
          "txid": "c5647a461d21832153da851e740038686957f7b6dfa879482a1fb3bb3f49e595",
          "vout": 0,
          "scriptSig": {
            "asm": "30450220426170b8449de18d5b389efe6ff7d00d405a4169c425f48fdf1397482e2f90e2022100fbed3f6b830a0a34e85d323e7cd83c328f846147b3b94703b784554d36250f21[ALL]",
            "hex": "4830450220426170b8449de18d5b389efe6ff7d00d405a4169c425f48fdf1397482e2f90e2022100fbed3f6b830a0a34e85d323e7cd83c328f846147b3b94703b784554d36250f2101"
          },
          "sequence": 4294967295
        },
        {
          "txid": "ac6a16d049edc039fb9bd5e513ad4de37bd5559c8157fc22a0dfee50d70a3ea9",
          "vout": 0,
          "scriptSig": {
            "asm": "3045022100dc711499ce9af5f183f6d6e02dec7090c03d024a0213211add96b6b5e5c166400220490222af2adc2850b9204cb868910a92d3151a0aeeab959243b9a6a9e6219d4a[ALL]",
            "hex": "483045022100dc711499ce9af5f183f6d6e02dec7090c03d024a0213211add96b6b5e5c166400220490222af2adc2850b9204cb868910a92d3151a0aeeab959243b9a6a9e6219d4a01"
          },
          "sequence": 4294967295
        },
        {
          "txid": "ca222ebc8fdee1f57a00f825455c0dcc45840d3b6f2eff11a6570d1cf5c39fe1",
          "vout": 0,
          "scriptSig": {
            "asm": "3045022100d548b97aa8eb583f0ec0ce924ae81fcc852bf10698d04234f00401d8556620f5022020cb72626fb7b6f76b97354472909b0a021eb7e3de0eaf6afc0359bcd18607e1[ALL]",
            "hex": "483045022100d548b97aa8eb583f0ec0ce924ae81fcc852bf10698d04234f00401d8556620f5022020cb72626fb7b6f76b97354472909b0a021eb7e3de0eaf6afc0359bcd18607e101"
          },
          "sequence": 4294967295
        }
      ],
      "vout": [
        {
          "value": 550.0,
          "n": 0,
          "scriptPubKey": {
            "asm": "042e3d29ccb78680a0da35bac8dc7adf895feb2b8eb9dbc5058400d811f6d7ce46faf0099ef63a05f3a8340e7e95530515303d652f27c2d9b379174b41bfd7046b OP_CHECKSIG",
            "desc": "pk(042e3d29ccb78680a0da35bac8dc7adf895feb2b8eb9dbc5058400d811f6d7ce46faf0099ef63a05f3a8340e7e95530515303d652f27c2d9b379174b41bfd7046b)#6r5tu74v",
            "hex": "41042e3d29ccb78680a0da35bac8dc7adf895feb2b8eb9dbc5058400d811f6d7ce46faf0099ef63a05f3a8340e7e95530515303d652f27c2d9b379174b41bfd7046bac",
            "type": "pubkey"
          }
        }
      ],
      "fee": 0.0,
      "hex": "01000000061e88d1cef97c6ecc191e6db395c77a572eb77adef5220fa9577dd70c15491651000000004a49304602210098323988a7f507fb1a76a2b573fe9d8d424b0e5607619ef531adf519ecf6f5e4022100d17c72937dc70e917362c0b2ca63b4bb6f92f39b38adce3fbdf919bd88f40ff001ffffffff48754af63509645afc1cff1eafea4d3ed85fda0ddd95a8923cd69464134668dc000000004a4930460221009cf27758729b23c9f364a82e3d7d6ab4a82437ea7e21af25a26fca97becf7e91022100f4f480cf78346abc61aaba1c93a063d5313c57328213da1300c2f8b8c9f38fc001ffffffff7d462c825ded0b33c5596816dc2d960958978a36e6eb46feafaa326c373c5587000000004948304502206bc52fc1d263ded7ac0a385a0a88b8145adf25827ccbd72a40c1d72339a9d29e022100f5a3d32db1c1b3e40544bae1e9c62c9b8498129032abb1f15596ab52a2206fed01ffffffff95e5493fbbb31f2a4879a8dfb6f75769683800741e85da532183211d467a64c500000000494830450220426170b8449de18d5b389efe6ff7d00d405a4169c425f48fdf1397482e2f90e2022100fbed3f6b830a0a34e85d323e7cd83c328f846147b3b94703b784554d36250f2101ffffffffa93e0ad750eedfa022fc57819c55d57be34dad13e5d59bfb39c0ed49d0166aac0000000049483045022100dc711499ce9af5f183f6d6e02dec7090c03d024a0213211add96b6b5e5c166400220490222af2adc2850b9204cb868910a92d3151a0aeeab959243b9a6a9e6219d4a01ffffffffe19fc3f51c0d57a611ff2e6f3b0d8445cc0d5c4525f8007af5e1de8fbc2e22ca0000000049483045022100d548b97aa8eb583f0ec0ce924ae81fcc852bf10698d04234f00401d8556620f5022020cb72626fb7b6f76b97354472909b0a021eb7e3de0eaf6afc0359bcd18607e101ffffffff01006641ce0c0000004341042e3d29ccb78680a0da35bac8dc7adf895feb2b8eb9dbc5058400d811f6d7ce46faf0099ef63a05f3a8340e7e95530515303d652f27c2d9b379174b41bfd7046bac00000000"
    }
  ]
}