{
  "hash": "00000000c6ebe5f7a54fb279f5b9121d92f2c34e3215215d20a327d30ad5dca6",
  "confirmations": 43210,
  "height": 9888,
  "version": 1,
  "versionHex": "00000001",
  "merkleroot": "74e8bbac81c1b0627444003cf22319ded5801fef8f45b153ec1ae6c1eed65250",
  "time": 1238917045,
  "mediantime": 1238914222,
  "nonce": 82978701,
  "bits": "1d00ffff",
  "difficulty": 1,
  "chainwork": "000000000000000000000000000000000000000000000000000026a126a126a1",
  "nTx": 1,
  "previousblockhash": "000000002d00ebefbac23a5958ed1a5a4d6b2528c6054cbb187f9040eac8128d",
  "nextblockhash": "00000000fd523232a2811f1458f217b56fb37050e4f7db1280696849cff3388d",
  "strippedsize": 216,
  "size": 216,
  "weight": 864,
  "tx": [
    {
      "txid": "74e8bbac81c1b0627444003cf22319ded5801fef8f45b153ec1ae6c1eed65250",
      "hash": "74e8bbac81c1b0627444003cf22319ded5801fef8f45b153ec1ae6c1eed65250",
      "version": 1,
      "size": 135,
      "vsize": 135,
      "weight": 540,
      "locktime": 0,
      "vin": [
        {
          "coinbase": "04ffff001d02fd00",
          "sequence": 4294967295
        }
      ],
      "vout": [
        {
          "value": 50.0,
          "n": 0,
          "scriptPubKey": {
            "asm": "0495d1b62f1d2527afe6ed97b8756a1ca88a45c439e0c1ea5dbdca233035e2e516139e3bccfc16c7c12b649a1da44ec95b11c1fd1d4ef54e627ed5cadfac1a91e5 OP_CHECKSIG",
            "desc": "pk(0495d1b62f1d2527afe6ed97b8756a1ca88a45c439e0c1ea5dbdca233035e2e516139e3bccfc16c7c12b649a1da44ec95b11c1fd1d4ef54e627ed5cadfac1a91e5)#xz3cpf6r",
            "hex": "410495d1b62f1d2527afe6ed97b8756a1ca88a45c439e0c1ea5dbdca233035e2e516139e3bccfc16c7c12b649a1da44ec95b11c1fd1d4ef54e627ed5cadfac1a91e5ac",
            "type": "pubkey"
          }
        }
      ],
      "hex": "01000000010000000000000000000000000000000000000000000000000000000000000000ffffffff0804ffff001d02fd00ffffffff0100f2052a0100000043410495d1b62f1d2527afe6ed97b8756a1ca88a45c439e0c1ea5dbdca233035e2e516139e3bccfc16c7c12b649a1da44ec95b11c1fd1d4ef54e627ed5cadfac1a91e5ac00000000"
    }
  ]
}