{
  "hash": "000000009943416b6b2f86cbe5b5dcf41e1f95a1257050a3f7f72aea9dd02fef",
  "confirmations": 43877,
  "height": 9221,
  "version": 1,
  "versionHex": "00000001",
  "merkleroot": "f44d80318a66e1c4388e184b49ae6e0be92eb66ee56a912fc02538859f14c7c0",
  "time": 1238416292,
  "mediantime": 1238412924,
  "nonce": 142617952,
  "bits": "1d00ffff",
  "difficulty": 1,
  "chainwork": "0000000000000000000000000000000000000000000000000000240624062406",
  "nTx": 1,
  "previousblockhash": "0000000008340b5a9ed7616e9d0db0a1fdc08775690874fb190c01bff7bc164f",
  "nextblockhash": "00000000a9181ba76a9b035cd65682e10bb61f5787cc56a9d59d12a6dd13823a",
  "strippedsize": 216,
  "size": 216,
  "weight": 864,
  "tx": [
    {
      "txid": "f44d80318a66e1c4388e184b49ae6e0be92eb66ee56a912fc02538859f14c7c0",
      "hash": "f44d80318a66e1c4388e184b49ae6e0be92eb66ee56a912fc02538859f14c7c0",
      "version": 1,
      "size": 135,
      "vsize": 135,
      "weight": 540,
      "locktime": 0,
      "vin": [
        {
          "coinbase": "04ffff001d02ad04",
          "sequence": 4294967295
        }
      ],
      "vout": [
        {
          "value": 50.0,
          "n": 0,
          "scriptPubKey": {
            "asm": "04bbceadc8a1289320ac954c3e118e54bce5dbb267a98f0e745cb2a3e3bfe9b39af2523f019c90dce2265a1141eb812710796d53b78bff706c6724b126c466af75 OP_CHECKSIG",
            "desc": "pk(04bbceadc8a1289320ac954c3e118e54bce5dbb267a98f0e745cb2a3e3bfe9b39af2523f019c90dce2265a1141eb812710796d53b78bff706c6724b126c466af75)#szftmtd4",
            "hex": "4104bbceadc8a1289320ac954c3e118e54bce5dbb267a98f0e745cb2a3e3bfe9b39af2523f019c90dce2265a1141eb812710796d53b78bff706c6724b126c466af75ac",
            "type": "pubkey"
          }
        }
      ],
      "hex": "01000000010000000000000000000000000000000000000000000000000000000000000000ffffffff0804ffff001d02ad04ffffffff0100f2052a01000000434104bbceadc8a1289320ac954c3e118e54bce5dbb267a98f0e745cb2a3e3bfe9b39af2523f019c90dce2265a1141eb812710796d53b78bff706c6724b126c466af75ac00000000"
    }
  ]
}