{
  "hash": "000000000e848e4c6b43a767fffb1a5a5e4be8b95ce0c9423e4a6b568113fc56",
  "confirmations": 47452,
  "height": 5646,
  "version": 1,
  "versionHex": "00000001",
  "merkleroot": "9dacdff16bb4be646f6f8ed5cb15c9bce2973e74453b5e986fe77916cea451b8",
  "time": 1235643922,
  "mediantime": 1235638876,
  "nonce": 3098316802,
  "bits": "1d00ffff",
  "difficulty": 1,
  "chainwork": "0000000000000000000000000000000000000000000000000000160f160f160f",
  "nTx": 1,
  "previousblockhash": "0000000020b199a81eed96e3aae298c904d572905b4a592a32df95ece596965b",
  "nextblockhash": "0000000037d7365c2c14c5a0345b430dc55ee9ab4a49d92b3d0e3a0646d0e59d",
  "strippedsize": 216,
  "size": 216,
  "weight": 864,
  "tx": [
    {
      "txid": "9dacdff16bb4be646f6f8ed5cb15c9bce2973e74453b5e986fe77916cea451b8",
      "hash": "9dacdff16bb4be646f6f8ed5cb15c9bce2973e74453b5e986fe77916cea451b8",
      "version": 1,
      "size": 135,
      "vsize": 135,
      "weight": 540,
      "locktime": 0,
      "vin": [
        {
          "coinbase": "04ffff001d02a008",
          "sequence": 4294967295
        }
      ],
      "vout": [
        {
          "value": 50.0,
          "n": 0,
          "scriptPubKey": {
            "asm": "04d8354da7e977fb71abe0b5180878ed7bb7499861f0277c46d33928345d299a89382adbaf4162a596d46c8eff34aa543957c965aea84bcdf2260c2a85370aaeee OP_CHECKSIG",
            "desc": "pk(04d8354da7e977fb71abe0b5180878ed7bb7499861f0277c46d33928345d299a89382adbaf4162a596d46c8eff34aa543957c965aea84bcdf2260c2a85370aaeee)#zkulmzju",
            "hex": "4104d8354da7e977fb71abe0b5180878ed7bb7499861f0277c46d33928345d299a89382adbaf4162a596d46c8eff34aa543957c965aea84bcdf2260c2a85370aaeeeac",
            "type": "pubkey"
          }
        }
      ],
      "hex": "01000000010000000000000000000000000000000000000000000000000000000000000000ffffffff0804ffff001d02a008ffffffff0100f2052a01000000434104d8354da7e977fb71abe0b5180878ed7bb7499861f0277c46d33928345d299a89382adbaf4162a596d46c8eff34aa543957c965aea84bcdf2260c2a85370aaeeeac00000000"
    }
  ]
}