{
  "hash": "000000007c10649de417536ee07de1f01c0626c12b7ba2e4d5fbba3795eb1a69",
  "confirmations": 50778,
  "height": 2320,
  "version": 1,
  "versionHex": "00000001",
  "merkleroot": "228704f5d5906becf951a49819052a6334b8e7c7f4be6626d9c4f252822ef3c2",
  "time": 1233295202,
  "mediantime": 1233291214,
  "nonce": 4066048543,
  "bits": "1d00ffff",
  "difficulty": 1,
  "chainwork": "0000000000000000000000000000000000000000000000000000091109110911",
  "nTx": 1,
  "previousblockhash": "00000000303a4583fd6758b31198cb8bae8427dbf62f879a0848539a6a5376f0",
  "nextblockhash": "000000005a3e48ac94931820ecad2e423467232c48b9258501994ff61a548ca6",
  "strippedsize": 216,
  "size": 216,
  "weight": 864,
  "tx": [
    {
      "txid": "228704f5d5906becf951a49819052a6334b8e7c7f4be6626d9c4f252822ef3c2",
      "hash": "228704f5d5906becf951a49819052a6334b8e7c7f4be6626d9c4f252822ef3c2",
      "version": 1,
      "size": 135,
      "vsize": 135,
      "weight": 540,
      "locktime": 0,
      "vin": [
        {
          "coinbase": "04ffff001d022002",
          "sequence": 4294967295
        }
      ],
      "vout": [
        {
          "value": 50.0,
          "n": 0,
          "scriptPubKey": {
            "asm": "04dff8269c54c31c5dca6247b43eb4a9512e811a6799e501240a59d72e60581daa481f79ebb8b560b981d2117cf67c9fe9f39ec1494394bf13a1de709e7b56ea19 OP_CHECKSIG",
            "desc": "pk(04dff8269c54c31c5dca6247b43eb4a9512e811a6799e501240a59d72e60581daa481f79ebb8b560b981d2117cf67c9fe9f39ec1494394bf13a1de709e7b56ea19)#m88n8d0h",
            "hex": "4104dff8269c54c31c5dca6247b43eb4a9512e811a6799e501240a59d72e60581daa481f79ebb8b560b981d2117cf67c9fe9f39ec1494394bf13a1de709e7b56ea19ac",
            "type": "pubkey"
          }
        }
      ],
      "hex": "01000000010000000000000000000000000000000000000000000000000000000000000000ffffffff0804ffff001d022002ffffffff0100f2052a01000000434104dff8269c54c31c5dca6247b43eb4a9512e811a6799e501240a59d72e60581daa481f79ebb8b560b981d2117cf67c9fe9f39ec1494394bf13a1de709e7b56ea19ac00000000"
    }
  ]
}