{
  "hash": "00000000d8a13923777c8e43026b44de0c652c7d7e2325fec947100147b43790",
  "confirmations": 49553,
  "height": 3545,
  "version": 1,
  "versionHex": "00000001",
  "merkleroot": "26545cf1d6568d52c0f64f6b207a40121973cd3eaac6dbe5f118871528947e70",
  "time": 1234132152,
  "mediantime": 1234127873,
  "nonce": 1849904169,
  "bits": "1d00ffff",
  "difficulty": 1,
  "chainwork": "00000000000000000000000000000000000000000000000000000dda0dda0dda",
  "nTx": 1,
  "previousblockhash": "00000000b1f4eb1b35a1b731caee56173bdc43edaecdf8fa1220c59525f102ff",
  "nextblockhash": "0000000040206949827272f209db87fd3362556c93562864433b85d97c52aaf0",
  "strippedsize": 216,
  "size": 216,
  "weight": 864,
  "tx": [
    {
      "txid": "26545cf1d6568d52c0f64f6b207a40121973cd3eaac6dbe5f118871528947e70",
      "hash": "26545cf1d6568d52c0f64f6b207a40121973cd3eaac6dbe5f118871528947e70",
      "version": 1,
      "size": 135,
      "vsize": 135,
      "weight": 540,
      "locktime": 0,
      "vin": [
        {
          "coinbase": "04ffff001d02ed07",
          "sequence": 4294967295
        }
      ],
      "vout": [
        {
          "value": 50.0,
          "n": 0,
          "scriptPubKey": {
            "asm": "047f8cdc9129b37c89435f62677960a0f8f40f6607e7b9f4508c2327a71b389acde0c54c3c10c5a7a3da85264c8b5f72784b7b687bb5cf550d1f3f9f78e7326fb3 OP_CHECKSIG",
            "desc": "pk(047f8cdc9129b37c89435f62677960a0f8f40f6607e7b9f4508c2327a71b389acde0c54c3c10c5a7a3da85264c8b5f72784b7b687bb5cf550d1f3f9f78e7326fb3)#sqtu8a52",
            "hex": "41047f8cdc9129b37c89435f62677960a0f8f40f6607e7b9f4508c2327a71b389acde0c54c3c10c5a7a3da85264c8b5f72784b7b687bb5cf550d1f3f9f78e7326fb3ac",
            "type": "pubkey"
          }
        }
      ],
      "hex": "01000000010000000000000000000000000000000000000000000000000000000000000000ffffffff0804ffff001d02ed07ffffffff0100f2052a010000004341047f8cdc9129b37c89435f62677960a0f8f40f6607e7b9f4508c2327a71b389acde0c54c3c10c5a7a3da85264c8b5f72784b7b687bb5cf550d1f3f9f78e7326fb3ac00000000"
    }
  ]
}