{
  "hash": "0000000069080c00ad6658ce29f7a094ee78168e8eda10ccde62042f4b7744f9",
  "confirmations": 46546,
  "height": 6552,
  "version": 1,
  "versionHex": "00000001",
  "merkleroot": "8315e15e1cee74bbecaf8fd01302e8aff4ac3574b834dec81e26ea0058c9b2fb",
  "time": 1236366950,
  "mediantime": 1236363377,
  "nonce": 55441767,
  "bits": "1d00ffff",
  "difficulty": 1,
  "chainwork": "0000000000000000000000000000000000000000000000000000199919991999",
  "nTx": 1,
  "previousblockhash": "000000000865506a72d77c94c24d867a61e79ef0f3dff73a7a8c8589004d76e2",
  "nextblockhash": "0000000028c18620aeab000ec560a64419bec60c4d31a226fb0c960752886e0d",
  "strippedsize": 216,
  "size": 216,
  "weight": 864,
  "tx": [
    {
      "txid": "8315e15e1cee74bbecaf8fd01302e8aff4ac3574b834dec81e26ea0058c9b2fb",
      "hash": "8315e15e1cee74bbecaf8fd01302e8aff4ac3574b834dec81e26ea0058c9b2fb",
      "version": 1,
      "size": 135,
      "vsize": 135,
      "weight": 540,
      "locktime": 0,
      "vin": [
        {
          "coinbase": "04ffff001d028e01",
          "sequence": 4294967295
        }
      ],
      "vout": [
        {
          "value": 50.0,
          "n": 0,
          "scriptPubKey": {
            "asm": "043b0cb345c7469b647996ca2dd130df7232c65f214e99c7d9226be76cf3e16cd3127544f4bb9165018196d5f466c5941d22bcb9ca07997338f385ed51e0163dcb OP_CHECKSIG",
            "desc": "pk(043b0cb345c7469b647996ca2dd130df7232c65f214e99c7d9226be76cf3e16cd3127544f4bb9165018196d5f466c5941d22bcb9ca07997338f385ed51e0163dcb)#d5afaura",
            "hex": "41043b0cb345c7469b647996ca2dd130df7232c65f214e99c7d9226be76cf3e16cd3127544f4bb9165018196d5f466c5941d22bcb9ca07997338f385ed51e0163dcbac",
            "type": "pubkey"
          }
        }
      ],
      "hex": "01000000010000000000000000000000000000000000000000000000000000000000000000ffffffff0804ffff001d028e01ffffffff0100f2052a010000004341043b0cb345c7469b647996ca2dd130df7232c65f214e99c7d9226be76cf3e16cd3127544f4bb9165018196d5f466c5941d22bcb9ca07997338f385ed51e0163dcbac00000000"
    }
  ]
}