{
  "hash": "00000000f3a77fdef1ca4465b48caecf4431c7c8bd38b5b274694f4f781d25b6",
  "confirmations": 51420,
  "height": 1678,
  "version": 1,
  "versionHex": "00000001",
  "merkleroot": "35a2dac86fa759b44f364f3029d51b6b12708cbcbdfa7b109b7b155dad552aa2",
  "time": 1232842995,
  "mediantime": 1232841922,
  "nonce": 829033,
  "bits": "1d00ffff",
  "difficulty": 1,
  "chainwork": "0000000000000000000000000000000000000000000000000000068f068f068f",
  "nTx": 1,
  "previousblockhash": "000000006bbca4fb6c2a1b6f1d1a625afd94b9493e491420637ac29ee626010f",
  "nextblockhash": "00000000b4df63292b5cb43548367908d8b998a67c4f8e481a32f4bdb467b3cf",
  "strippedsize": 216,
  "size": 216,
  "weight": 864,
  "tx": [
    {
      "txid": "35a2dac86fa759b44f364f3029d51b6b12708cbcbdfa7b109b7b155dad552aa2",
      "hash": "35a2dac86fa759b44f364f3029d51b6b12708cbcbdfa7b109b7b155dad552aa2",
      "version": 1,
      "size": 135,
      "vsize": 135,
      "weight": 540,
      "locktime": 0,
      "vin": [
        {
          "coinbase": "04ffff001d02d501",
          "sequence": 4294967295
        }
      ],
      "vout": [
        {
          "value": 50.0,
          "n": 0,
          "scriptPubKey": {
            "asm": "043a2283457f1fe5bf77c7719fad2195497dfbaacd89537e606c17997022f1c0cb492241faeec18f2a7d28df2ba32657329e2c207e4e77f0e580cd789bdcbe207f OP_CHECKSIG",
            "desc": "pk(043a2283457f1fe5bf77c7719fad2195497dfbaacd89537e606c17997022f1c0cb492241faeec18f2a7d28df2ba32657329e2c207e4e77f0e580cd789bdcbe207f)#7gwv5kny",
            "hex": "41043a2283457f1fe5bf77c7719fad2195497dfbaacd89537e606c17997022f1c0cb492241faeec18f2a7d28df2ba32657329e2c207e4e77f0e580cd789bdcbe207fac",
            "type": "pubkey"
          }
        }
      ],
      "hex": "01000000010000000000000000000000000000000000000000000000000000000000000000ffffffff0804ffff001d02d501ffffffff0100f2052a010000004341043a2283457f1fe5bf77c7719fad2195497dfbaacd89537e606c17997022f1c0cb492241faeec18f2a7d28df2ba32657329e2c207e4e77f0e580cd789bdcbe207fac00000000"
    }
  ]
}