{
  "hash": "00000000f70e7488c538fe667e2aef73aa5a8c4748be06ed6bcd6dcf2c4ac7dc",
  "confirmations": 47504,
  "height": 5594,
  "version": 1,
  "versionHex": "00000001",
  "merkleroot": "42b6c1bdf67938022a5f223dd7dd1974cca654790e857cafbb4e7a27b1dcbcb7",
  "time": 1235597039,
  "mediantime": 1235591270,
  "nonce": 249834758,
  "bits": "1d00ffff",
  "difficulty": 1,
  "chainwork": "000000000000000000000000000000000000000000000000000015db15db15db",
  "nTx": 1,
  "previousblockhash": "00000000add261f56fcd9beef3c02f29235ab5ba6547403baa0849d160edac69",
  "nextblockhash": "00000000f4f728599c73fd0a2c30e5b8f601804e1173bbab7f12691fb80312e8",
  "strippedsize": 216,
  "size": 216,
  "weight": 864,
  "tx": [
    {
      "txid": "42b6c1bdf67938022a5f223dd7dd1974cca654790e857cafbb4e7a27b1dcbcb7",
      "hash": "42b6c1bdf67938022a5f223dd7dd1974cca654790e857cafbb4e7a27b1dcbcb7",
      "version": 1,
      "size": 135,
      "vsize": 135,
      "weight": 540,
      "locktime": 0,
      "vin": [
        {
          "coinbase": "04ffff001d029507",
          "sequence": 4294967295
        }
      ],
      "vout": [
        {
          "value": 50.0,
          "n": 0,
          "scriptPubKey": {
            "asm": "04c1e629b1c8cb123beb215c2a8c3c4bf9d24c1458532512db7ba82ec5ba590d492fff55904fc195c0d52b7da7b28de85b2435f535b8e16273ba81d691b4884c4e OP_CHECKSIG",
            "desc": "pk(04c1e629b1c8cb123beb215c2a8c3c4bf9d24c1458532512db7ba82ec5ba590d492fff55904fc195c0d52b7da7b28de85b2435f535b8e16273ba81d691b4884c4e)#9hx37mzq",
            "hex": "4104c1e629b1c8cb123beb215c2a8c3c4bf9d24c1458532512db7ba82ec5ba590d492fff55904fc195c0d52b7da7b28de85b2435f535b8e16273ba81d691b4884c4eac",
            "type": "pubkey"
          }
        }
      ],
      "hex": "01000000010000000000000000000000000000000000000000000000000000000000000000ffffffff0804ffff001d029507ffffffff0100f2052a01000000434104c1e629b1c8cb123beb215c2a8c3c4bf9d24c1458532512db7ba82ec5ba590d492fff55904fc195c0d52b7da7b28de85b2435f535b8e16273ba81d691b4884c4eac00000000"
    }
  ]
}