{
  "hash": "00000000e017389c0490147e53ff28845b007ed51fcdc5e54f50fcaa3831d2da",
  "confirmations": 44635,
  "height": 8463,
  "version": 1,
  "versionHex": "00000001",
  "merkleroot": "f0f828c5a1dde8ad91311f7442821f0ef38adce897e5521384a38433abf0d716",
  "time": 1237840358,
  "mediantime": 1237835173,
  "nonce": 1081260845,
  "bits": "1d00ffff",
  "difficulty": 1,
  "chainwork": "0000000000000000000000000000000000000000000000000000211021102110",
  "nTx": 1,
  "previousblockhash": "00000000fad20effda3e87cd77d15cad42364b58f66fca28dda4b34363c671a7",
  "nextblockhash": "000000007c7efc06681fd184359b6207adc6d6108a9d421ddfa8e901dbb49b7e",
  "strippedsize": 216,
  "size": 216,
  "weight": 864,
  "tx": [
    {
      "txid": "f0f828c5a1dde8ad91311f7442821f0ef38adce897e5521384a38433abf0d716",
      "hash": "f0f828c5a1dde8ad91311f7442821f0ef38adce897e5521384a38433abf0d716",
      "version": 1,
      "size": 135,
      "vsize": 135,
      "weight": 540,
      "locktime": 0,
      "vin": [
        {
          "coinbase": "04ffff001d02ff06",
          "sequence": 4294967295
        }
      ],
      "vout": [
        {
          "value": 50.0,
          "n": 0,
          "scriptPubKey": {
            "asm": "042f0b1fbc2790c717c0b0571b433c5bb092bbf5d58844fcc4e43d600c391c109ab7a94c205c26aea422acf956c431ef793c0172d1afe228a5d7337a69c6d03390 OP_CHECKSIG",
            "desc": "pk(042f0b1fbc2790c717c0b0571b433c5bb092bbf5d58844fcc4e43d600c391c109ab7a94c205c26aea422acf956c431ef793c0172d1afe228a5d7337a69c6d03390)#phvjp4cg",
            "hex": "41042f0b1fbc2790c717c0b0571b433c5bb092bbf5d58844fcc4e43d600c391c109ab7a94c205c26aea422acf956c431ef793c0172d1afe228a5d7337a69c6d03390ac",
            "type": "pubkey"
          }
        }
      ],
      "hex": "01000000010000000000000000000000000000000000000000000000000000000000000000ffffffff0804ffff001d02ff06ffffffff0100f2052a010000004341042f0b1fbc2790c717c0b0571b433c5bb092bbf5d58844fcc4e43d600c391c109ab7a94c205c26aea422acf956c431ef793c0172d1afe228a5d7337a69c6d03390ac00000000"
    }
  ]
}