{
  "hash": "000000007f24c102400049eed364b7c209a11f67b2768dd9f390415704b477b5",
  "confirmations": 49511,
  "height": 3587,
  "version": 1,
  "versionHex": "00000001",
  "merkleroot": "cec7e4b1d0d8647b2141d739f62103b5a469024527d5594a4fcf90b3bb90e9ba",
  "time": 1234163837,
  "mediantime": 1234159802,
  "nonce": 4175050782,
  "bits": "1d00ffff",
  "difficulty": 1,
  "chainwork": "00000000000000000000000000000000000000000000000000000e040e040e04",
  "nTx": 1,
  "previousblockhash": "000000004cb8e9df43d64e0d52a82e7d1933d696912cb45bf2b75965ff3b5092",
  "nextblockhash": "000000003809f142947d5bf4351f58c8249ababbf13b52c615784d2b44d3644e",
  "strippedsize": 216,
  "size": 216,
  "weight": 864,
  "tx": [
    {
      "txid": "cec7e4b1d0d8647b2141d739f62103b5a469024527d5594a4fcf90b3bb90e9ba",
      "hash": "cec7e4b1d0d8647b2141d739f62103b5a469024527d5594a4fcf90b3bb90e9ba",
      "version": 1,
      "size": 135,
      "vsize": 135,
      "weight": 540,
      "locktime": 0,
      "vin": [
        {
          "coinbase": "04ffff001d027708",
          "sequence": 4294967295
        }
      ],
      "vout": [
        {
          "value": 50.0,
          "n": 0,
          "scriptPubKey": {
            "asm": "0462fff0b47cbc4dd939f0816b0b8d6dc8db656de6b7e21d5b2e22e7883bb8b12dac15c677cd773d858b867df6695c4fd7f474db9d8c8ecf86ae6dfa48eaa53070 OP_CHECKSIG",
            "desc": "pk(0462fff0b47cbc4dd939f0816b0b8d6dc8db656de6b7e21d5b2e22e7883bb8b12dac15c677cd773d858b867df6695c4fd7f474db9d8c8ecf86ae6dfa48eaa53070)#zd4j4rax",
            "hex": "410462fff0b47cbc4dd939f0816b0b8d6dc8db656de6b7e21d5b2e22e7883bb8b12dac15c677cd773d858b867df6695c4fd7f474db9d8c8ecf86ae6dfa48eaa53070ac",
            "type": "pubkey"
          }
        }
      ],
      "hex": "01000000010000000000000000000000000000000000000000000000000000000000000000ffffffff0804ffff001d027708ffffffff0100f2052a0100000043410462fff0b47cbc4dd939f0816b0b8d6dc8db656de6b7e21d5b2e22e7883bb8b12dac15c677cd773d858b867df6695c4fd7f474db9d8c8ecf86ae6dfa48eaa53070ac00000000"
    }
  ]
}