{
  "hash": "000000002f7d702a27ccd65158740198f79d4ba1ddea8ab14b56b63a6289fe89",
  "confirmations": 52220,
  "height": 398,
  "version": 1,
  "versionHex": "00000001",
  "merkleroot": "c056d48ae983586d78b51352c7d689db7c33acd286958301a5ec59e3a09ae016",
  "time": 1231900415,
  "mediantime": 1231897603,
  "nonce": 2903054622,
  "bits": "1d00ffff",
  "difficulty": 1,
  "chainwork": "0000000000000000000000000000000000000000000000000000018f018f018f",
  "nTx": 1,
  "previousblockhash": "0000000081c0ab052aac47e3ad0dbfab9ca3475e6d8d136a53a698bbced84ee4",
  "nextblockhash": "0000000006a774e00b730eeba018fbca6673c32753fce367a316f5c9be4332bd",
  "strippedsize": 216,
  "size": 216,
  "weight": 864,
  "tx": [
    {
      "txid": "c056d48ae983586d78b51352c7d689db7c33acd286958301a5ec59e3a09ae016",
      "hash": "c056d48ae983586d78b51352c7d689db7c33acd286958301a5ec59e3a09ae016",
      "version": 1,
      "size": 135,
      "vsize": 135,
      "weight": 540,
      "locktime": 0,
      "vin": [
        {
          "coinbase": "04ffff001d026f02",
          "sequence": 4294967295
        }
      ],
      "vout": [
        {
          "value": 50.0,
          "n": 0,
          "scriptPubKey": {
            "asm": "04c03ee7780b5708206a1479c8a1c56b06ecc246c56421e98f4192d967b66df07c9fd299b7d087b2c9aabc384aa6e265f4df2ae9e0febbaaeff828e5a98199966c OP_CHECKSIG",
            "desc": "pk(04c03ee7780b5708206a1479c8a1c56b06ecc246c56421e98f4192d967b66df07c9fd299b7d087b2c9aabc384aa6e265f4df2ae9e0febbaaeff828e5a98199966c)#48j05ryk",
            "hex": "4104c03ee7780b5708206a1479c8a1c56b06ecc246c56421e98f4192d967b66df07c9fd299b7d087b2c9aabc384aa6e265f4df2ae9e0febbaaeff828e5a98199966cac",
            "type": "pubkey"
          }
        }
      ],
      "hex": "01000000010000000000000000000000000000000000000000000000000000000000000000ffffffff0804ffff001d026f02ffffffff0100f2052a01000000434104c03ee7780b5708206a1479c8a1c56b06ecc246c56421e98f4192d967b66df07c9fd299b7d087b2c9aabc384aa6e265f4df2ae9e0febbaaeff828e5a98199966cac00000000"
    }
  ]
}