{
  "hash": "00000000944e3364a71446e8a21c45e9fac1d356b6671c2b76276ce091ee7eb6",
  "confirmations": 46100,
  "height": 6998,
  "version": 1,
  "versionHex": "00000001",
  "merkleroot": "5b25ed390717a706b3eedc84ffa4a255afe7e79ba42090d26bbe2b473870a117",
  "time": 1236716675,
  "mediantime": 1236712617,
  "nonce": 107103405,
  "bits": "1d00ffff",
  "difficulty": 1,
  "chainwork": "00000000000000000000000000000000000000000000000000001b571b571b57",
  "nTx": 1,
  "previousblockhash": "00000000202e241e5270b7ba44929a822724ccadba9b8846bdc01d8ea9f3d8b9",
  "nextblockhash": "00000000bced95e8d882530a8d2350390a8147c42e1bc6917b3dab4cc6363298",
  "strippedsize": 215,
  "size": 215,
  "weight": 860,
  "tx": [
    {
      "txid": "5b25ed390717a706b3eedc84ffa4a255afe7e79ba42090d26bbe2b473870a117",
      "hash": "5b25ed390717a706b3eedc84ffa4a255afe7e79ba42090d26bbe2b473870a117",
      "version": 1,
      "size": 134,
      "vsize": 134,
      "weight": 536,
      "locktime": 0,
      "vin": [
        {
          "coinbase": "04ffff001d0164",
          "sequence": 4294967295
        }
      ],
      "vout": [
        {
          "value": 50.0,
          "n": 0,
          "scriptPubKey": {
            "asm": "04edeb2e103ef6739e02f41f4c93424d7cd5a738f9b2bb9f7799f4727e8fd01704e73ae7396820cc3571c55c27e797646bf82cc7198ec3b750db675aa164da5b34 OP_CHECKSIG",
            "desc": "pk(04edeb2e103ef6739e02f41f4c93424d7cd5a738f9b2bb9f7799f4727e8fd01704e73ae7396820cc3571c55c27e797646bf82cc7198ec3b750db675aa164da5b34)#s9a7dyue",
            "hex": "4104edeb2e103ef6739e02f41f4c93424d7cd5a738f9b2bb9f7799f4727e8fd01704e73ae7396820cc3571c55c27e797646bf82cc7198ec3b750db675aa164da5b34ac",
            "type": "pubkey"
          }
        }
      ],
      "hex": "01000000010000000000000000000000000000000000000000000000000000000000000000ffffffff0704ffff001d0164ffffffff0100f2052a01000000434104edeb2e103ef6739e02f41f4c93424d7cd5a738f9b2bb9f7799f4727e8fd01704e73ae7396820cc3571c55c27e797646bf82cc7198ec3b750db675aa164da5b34ac00000000"
    }
  ]
}