{
  "hash": "0000000033f505543e0cd672552cd0135d4fb8a10961ff386420a8e9ac5a4779",
  "confirmations": 47465,
  "height": 5633,
  "version": 1,
  "versionHex": "00000001",
  "merkleroot": "9a234c7834c953a1810a15c821195671751e29f0e9e0b57e9acbae126abe0f78",
  "time": 1235633497,
  "mediantime": 1235628166,
  "nonce": 4283846426,
  "bits": "1d00ffff",
  "difficulty": 1,
  "chainwork": "0000000000000000000000000000000000000000000000000000160216021602",
  "nTx": 1,
  "previousblockhash": "000000002a98484f5fa940d1f5e7c1340d354438d9842b974afdafe56dd773e1",
  "nextblockhash": "0000000024ec7df45bcbc4c633c369540304a7f6c27e47d3629b71b254bf6f06",
  "strippedsize": 216,
  "size": 216,
  "weight": 864,
  "tx": [
    {
      "txid": "9a234c7834c953a1810a15c821195671751e29f0e9e0b57e9acbae126abe0f78",
      "hash": "9a234c7834c953a1810a15c821195671751e29f0e9e0b57e9acbae126abe0f78",
      "version": 1,
      "size": 135,
      "vsize": 135,
      "weight": 540,
      "locktime": 0,
      "vin": [
        {
          "coinbase": "04ffff001d025e08",
          "sequence": 4294967295
        }
      ],
      "vout": [
        {
          "value": 50.0,
          "n": 0,
          "scriptPubKey": {
            "asm": "04580d761dd88084aedfd432da3cc55aee59e02879637f1948da0004f1f6d17475d8147417886ce72b7a6e2b8a07d051ae6e4e6dff1c989b5cd1dfc954ab1701be OP_CHECKSIG",
            "desc": "pk(04580d761dd88084aedfd432da3cc55aee59e02879637f1948da0004f1f6d17475d8147417886ce72b7a6e2b8a07d051ae6e4e6dff1c989b5cd1dfc954ab1701be)#9pqs6n6p",
            "hex": "4104580d761dd88084aedfd432da3cc55aee59e02879637f1948da0004f1f6d17475d8147417886ce72b7a6e2b8a07d051ae6e4e6dff1c989b5cd1dfc954ab1701beac",
            "type": "pubkey"
          }
        }
      ],
      "hex": "01000000010000000000000000000000000000000000000000000000000000000000000000ffffffff0804ffff001d025e08ffffffff0100f2052a01000000434104580d761dd88084aedfd432da3cc55aee59e02879637f1948da0004f1f6d17475d8147417886ce72b7a6e2b8a07d051ae6e4e6dff1c989b5cd1dfc954ab1701beac00000000"
    }
  ]
}