{
  "hash": "00000000df13b9e208afff5f5d0f391a9265b32be4298ceb5df6aa79ff9d9e70",
  "confirmations": 44116,
  "height": 8982,
  "version": 1,
  "versionHex": "00000001",
  "merkleroot": "7a36bca43ed9212089a9117ecf6aedea485819fc7a26aeb41ef6c46a2659967d",
  "time": 1238240371,
  "mediantime": 1238236670,
  "nonce": 52955623,
  "bits": "1d00ffff",
  "difficulty": 1,
  "chainwork": "0000000000000000000000000000000000000000000000000000231723172317",
  "nTx": 1,
  "previousblockhash": "00000000bc575fd8fc0320ee5b7bcc92a846871f10c3643dfa2e917d7ab0f997",
  "nextblockhash": "00000000d89087ae0c65dbe821b9a9926077f3f618fc8fac46d7070f28eb1153",
  "strippedsize": 215,
  "size": 215,
  "weight": 860,
  "tx": [
    {
      "txid": "7a36bca43ed9212089a9117ecf6aedea485819fc7a26aeb41ef6c46a2659967d",
      "hash": "7a36bca43ed9212089a9117ecf6aedea485819fc7a26aeb41ef6c46a2659967d",
      "version": 1,
      "size": 134,
      "vsize": 134,
      "weight": 536,
      "locktime": 0,
      "vin": [
        {
          "coinbase": "04ffff001d013b",
          "sequence": 4294967295
        }
      ],
      "vout": [
        {
          "value": 50.0,
          "n": 0,
          "scriptPubKey": {
            "asm": "0443cbdc2ae88f907eecb04d4ef2f99087d29e6277bcd725b82eb7111028f49637e26722d86e66b2411fb1067066970bae6eb7291766ba3532ec716d7a12f4cbb2 OP_CHECKSIG",
            "desc": "pk(0443cbdc2ae88f907eecb04d4ef2f99087d29e6277bcd725b82eb7111028f49637e26722d86e66b2411fb1067066970bae6eb7291766ba3532ec716d7a12f4cbb2)#kzz9zn99",
            "hex": "410443cbdc2ae88f907eecb04d4ef2f99087d29e6277bcd725b82eb7111028f49637e26722d86e66b2411fb1067066970bae6eb7291766ba3532ec716d7a12f4cbb2ac",
            "type": "pubkey"
          }
        }
      ],
      "hex": "01000000010000000000000000000000000000000000000000000000000000000000000000ffffffff0704ffff001d013bffffffff0100f2052a0100000043410443cbdc2ae88f907eecb04d4ef2f99087d29e6277bcd725b82eb7111028f49637e26722d86e66b2411fb1067066970bae6eb7291766ba3532ec716d7a12f4cbb2ac00000000"
    }
  ]
}