{
  "hash": "000000001e4311a635821c79fef6238a0d4a523454fde0846a0547785c7f721c",
  "confirmations": 50525,
  "height": 2573,
  "version": 1,
  "versionHex": "00000001",
  "merkleroot": "fced981f49b9f21dc11040cbdf5e100b21aaff7bb1274562f2617025384bfdf3",
  "time": 1233471972,
  "mediantime": 1233467683,
  "nonce": 3639021091,
  "bits": "1d00ffff",
  "difficulty": 1,
  "chainwork": "00000000000000000000000000000000000000000000000000000a0e0a0e0a0e",
  "nTx": 1,
  "previousblockhash": "0000000046757cbe7e2e93f787e4801005b3033e0fd50fe45e6d7082e81361b8",
  "nextblockhash": "00000000bd9844ad2b844fbb019788034a20a484448c54c06e9ed6c5db8e7624",
  "strippedsize": 216,
  "size": 216,
  "weight": 864,
  "tx": [
    {
      "txid": "fced981f49b9f21dc11040cbdf5e100b21aaff7bb1274562f2617025384bfdf3",
      "hash": "fced981f49b9f21dc11040cbdf5e100b21aaff7bb1274562f2617025384bfdf3",
      "version": 1,
      "size": 135,
      "vsize": 135,
      "weight": 540,
      "locktime": 0,
      "vin": [
        {
          "coinbase": "04ffff001d027502",
          "sequence": 4294967295
        }
      ],
      "vout": [
        {
          "value": 50.0,
          "n": 0,
          "scriptPubKey": {
            "asm": "04a4b0a9df682d823cd76eaf1e562a7731c40e8c0251c3fc7aea2bd1a8ab4785401582da52c6b829e2ff0876b4c7316c377e4ffb359aa95a71910d6cd86e6cfe97 OP_CHECKSIG",
            "desc": "pk(04a4b0a9df682d823cd76eaf1e562a7731c40e8c0251c3fc7aea2bd1a8ab4785401582da52c6b829e2ff0876b4c7316c377e4ffb359aa95a71910d6cd86e6cfe97)#7yq2z04t",
            "hex": "4104a4b0a9df682d823cd76eaf1e562a7731c40e8c0251c3fc7aea2bd1a8ab4785401582da52c6b829e2ff0876b4c7316c377e4ffb359aa95a71910d6cd86e6cfe97ac",
            "type": "pubkey"
          }
        }
      ],
      "hex": "01000000010000000000000000000000000000000000000000000000000000000000000000ffffffff0804ffff001d027502ffffffff0100f2052a01000000434104a4b0a9df682d823cd76eaf1e562a7731c40e8c0251c3fc7aea2bd1a8ab4785401582da52c6b829e2ff0876b4c7316c377e4ffb359aa95a71910d6cd86e6cfe97ac00000000"
    }
  ]
}