{
  "hash": "00000000670e58778b6861f17514c8ffdf786cb2ad2d1c7d77281c1e861c43e9",
  "confirmations": 45094,
  "height": 8004,
  "version": 1,
  "versionHex": "00000001",
  "merkleroot": "43a7ace3fd6ab02e89b33e68b05671af36e4a342067b9a586265f070814d2628",
  "time": 1237463240,
  "mediantime": 1237461111,
  "nonce": 1308734239,
  "bits": "1d00ffff",
  "difficulty": 1,
  "chainwork": "00000000000000000000000000000000000000000000000000001f451f451f45",
  "nTx": 1,
  "previousblockhash": "00000000f75e4d0f2b7e474d9f91830870341fef36f096c018eb4bffd0449686",
  "nextblockhash": "00000000a2eeaf89e9e077bc8908e1501cdebbe7187fc498906bc1d156a6ec64",
  "strippedsize": 216,
  "size": 216,
  "weight": 864,
  "tx": [
    {
      "txid": "43a7ace3fd6ab02e89b33e68b05671af36e4a342067b9a586265f070814d2628",
      "hash": "43a7ace3fd6ab02e89b33e68b05671af36e4a342067b9a586265f070814d2628",
      "version": 1,
      "size": 135,
      "vsize": 135,
      "weight": 540,
      "locktime": 0,
      "vin": [
        {
          "coinbase": "04ffff001d027b09",
          "sequence": 4294967295
        }
      ],
      "vout": [
        {
          "value": 50.0,
          "n": 0,
          "scriptPubKey": {
            "asm": "044b10dd6964c2a666d706c5221eb448ed22d037eb6576def742d1f809b4435314edeb43a7f5f89f1d86c709c5688efb6996fa982b5303a0401abe51f654c63026 OP_CHECKSIG",
            "desc": "pk(044b10dd6964c2a666d706c5221eb448ed22d037eb6576def742d1f809b4435314edeb43a7f5f89f1d86c709c5688efb6996fa982b5303a0401abe51f654c63026)#uugsj0vr",
            "hex": "41044b10dd6964c2a666d706c5221eb448ed22d037eb6576def742d1f809b4435314edeb43a7f5f89f1d86c709c5688efb6996fa982b5303a0401abe51f654c63026ac",
            "type": "pubkey"
          }
        }
      ],
      "hex": "01000000010000000000000000000000000000000000000000000000000000000000000000ffffffff0804ffff001d027b09ffffffff0100f2052a010000004341044b10dd6964c2a666d706c5221eb448ed22d037eb6576def742d1f809b4435314edeb43a7f5f89f1d86c709c5688efb6996fa982b5303a0401abe51f654c63026ac00000000"
    }
  ]
}