{
  "hash": "0000000074df75635eba118acf8f92e54b4337fac3a01753125a8a708f0511b7",
  "confirmations": 46992,
  "height": 6106,
  "version": 1,
  "versionHex": "00000001",
  "merkleroot": "5c7d2bab0493dccf8de05c8f7150caecf687582de4c2f97b6fe3e94207ce4910",
  "time": 1236013210,
  "mediantime": 1236010778,
  "nonce": 2770118457,
  "bits": "1d00ffff",
  "difficulty": 1,
  "chainwork": "000000000000000000000000000000000000000000000000000017db17db17db",
  "nTx": 1,
  "previousblockhash": "00000000108d8beb9816c1f4b400ba9dc765e02bc16f6050fb5d7a1576c37f8d",
  "nextblockhash": "00000000e9bae0e8d8c11601625ae2c5f53cf155604f7093b822fb2ca1c76c24",
  "strippedsize": 216,
  "size": 216,
  "weight": 864,
  "tx": [
    {
      "txid": "5c7d2bab0493dccf8de05c8f7150caecf687582de4c2f97b6fe3e94207ce4910",
      "hash": "5c7d2bab0493dccf8de05c8f7150caecf687582de4c2f97b6fe3e94207ce4910",
      "version": 1,
      "size": 135,
      "vsize": 135,
      "weight": 540,
      "locktime": 0,
      "vin": [
        {
          "coinbase": "04ffff001d02d906",
          "sequence": 4294967295
        }
      ],
      "vout": [
        {
          "value": 50.0,
          "n": 0,
          "scriptPubKey": {
            "asm": "04cf7fe49469770a2e3a6bcf71de476eb212f066a4f72be85444ebe2742c444b16725483add3170ddf26f23a271f7056215093b8babe5985630aae428c3491494d OP_CHECKSIG",
            "desc": "pk(04cf7fe49469770a2e3a6bcf71de476eb212f066a4f72be85444ebe2742c444b16725483add3170ddf26f23a271f7056215093b8babe5985630aae428c3491494d)#cc3jy6wk",
            "hex": "4104cf7fe49469770a2e3a6bcf71de476eb212f066a4f72be85444ebe2742c444b16725483add3170ddf26f23a271f7056215093b8babe5985630aae428c3491494dac",
            "type": "pubkey"
          }
        }
      ],
      "hex": "01000000010000000000000000000000000000000000000000000000000000000000000000ffffffff0804ffff001d02d906ffffffff0100f2052a01000000434104cf7fe49469770a2e3a6bcf71de476eb212f066a4f72be85444ebe2742c444b16725483add3170ddf26f23a271f7056215093b8babe5985630aae428c3491494dac00000000"
    }
  ]
}