{
  "hash": "0000000027e00f2e7afbf04f9fa9b3be38ca53b9064018efdb68a2fd7f3be901",
  "confirmations": 43187,
  "height": 9911,
  "version": 1,
  "versionHex": "00000001",
  "merkleroot": "acbcb097f88ccaeb278c6fa1d60ded9799260ea5515c2d738e238303c9802a6a",
  "time": 1238929580,
  "mediantime": 1238926587,
  "nonce": 2072777222,
  "bits": "1d00ffff",
  "difficulty": 1,
  "chainwork": "000000000000000000000000000000000000000000000000000026b826b826b8",
  "nTx": 1,
  "previousblockhash": "00000000e8999f40cb02a324bbb1e658dede0cf475448e578cd3bcf80b015564",
  "nextblockhash": "00000000004afd117272c0de5b1902b469d8375454cb52ec5b63fef4bf8ec20f",
  "strippedsize": 216,
  "size": 216,
  "weight": 864,
  "tx": [
    {
      "txid": "acbcb097f88ccaeb278c6fa1d60ded9799260ea5515c2d738e238303c9802a6a",
      "hash": "acbcb097f88ccaeb278c6fa1d60ded9799260ea5515c2d738e238303c9802a6a",
      "version": 1,
      "size": 135,
      "vsize": 135,
      "weight": 540,
      "locktime": 0,
      "vin": [
        {
          "coinbase": "04ffff001d024502",
          "sequence": 4294967295
        }
      ],
      "vout": [
        {
          "value": 50.0,
          "n": 0,
          "scriptPubKey": {
            "asm": "04e5b87e025d7dec2724ff09a2b9a632fd6922223caf9a6a118847893ce88d8576c044f2b9b6065f31e47408cc14d2cae9886854b0d5b4aecc42e8545c9ee3edac OP_CHECKSIG",
            "desc": "pk(04e5b87e025d7dec2724ff09a2b9a632fd6922223caf9a6a118847893ce88d8576c044f2b9b6065f31e47408cc14d2cae9886854b0d5b4aecc42e8545c9ee3edac)#0wjl5dmq",
            "hex": "4104e5b87e025d7dec2724ff09a2b9a632fd6922223caf9a6a118847893ce88d8576c044f2b9b6065f31e47408cc14d2cae9886854b0d5b4aecc42e8545c9ee3edacac",
            "type": "pubkey"
          }
        }
      ],
      "hex": "01000000010000000000000000000000000000000000000000000000000000000000000000ffffffff0804ffff001d024502ffffffff0100f2052a01000000434104e5b87e025d7dec2724ff09a2b9a632fd6922223caf9a6a118847893ce88d8576c044f2b9b6065f31e47408cc14d2cae9886854b0d5b4aecc42e8545c9ee3edacac00000000"
    }
  ]
}