{
  "hash": "0000000098bb546b5c9de3f5d54247747fc1314447d421ecdfd5a4464c101303",
  "confirmations": 47763,
  "height": 5335,
  "version": 1,
  "versionHex": "00000001",
  "merkleroot": "046363535a43578e6510b06b133562ffb96bc540247aaf07a9571f97faca651c",
  "time": 1235391604,
  "mediantime": 1235386886,
  "nonce": 4127995656,
  "bits": "1d00ffff",
  "difficulty": 1,
  "chainwork": "000000000000000000000000000000000000000000000000000014d814d814d8",
  "nTx": 1,
  "previousblockhash": "000000009ab599bf5edb629d03ab5f7a83204c3e3d91fe800cf87c0314db5cab",
  "nextblockhash": "0000000072774caac272e804392873e6c575b91b14ab83de83fa27b57773020a",
  "strippedsize": 216,
  "size": 216,
  "weight": 864,
  "tx": [
    {
      "txid": "046363535a43578e6510b06b133562ffb96bc540247aaf07a9571f97faca651c",
      "hash": "046363535a43578e6510b06b133562ffb96bc540247aaf07a9571f97faca651c",
      "version": 1,
      "size": 135,
      "vsize": 135,
      "weight": 540,
      "locktime": 0,
      "vin": [
        {
          "coinbase": "04ffff001d029202",
          "sequence": 4294967295
        }
      ],
      "vout": [
        {
          "value": 50.0,
          "n": 0,
          "scriptPubKey": {
            "asm": "049c8f9a49d2e2c769e56884a138dc5d9cbef6142af05328c8c6c908019b510b2604e79fa961b1c278d486141b248cc55098de1e28bcd8f45f6279e6bbd46600a4 OP_CHECKSIG",
            "desc": "pk(049c8f9a49d2e2c769e56884a138dc5d9cbef6142af05328c8c6c908019b510b2604e79fa961b1c278d486141b248cc55098de1e28bcd8f45f6279e6bbd46600a4)#ppp03ftp",
            "hex": "41049c8f9a49d2e2c769e56884a138dc5d9cbef6142af05328c8c6c908019b510b2604e79fa961b1c278d486141b248cc55098de1e28bcd8f45f6279e6bbd46600a4ac",
            "type": "pubkey"
          }
        }
      ],
      "hex": "01000000010000000000000000000000000000000000000000000000000000000000000000ffffffff0804ffff001d029202ffffffff0100f2052a010000004341049c8f9a49d2e2c769e56884a138dc5d9cbef6142af05328c8c6c908019b510b2604e79fa961b1c278d486141b248cc55098de1e28bcd8f45f6279e6bbd46600a4ac00000000"
    }
  ]
}