{
  "hash": "00000000244dee58451972a2a04486d0c04adf2539d35463b09734beaabea6df",
  "confirmations": 44770,
  "height": 8328,
  "version": 1,
  "versionHex": "00000001",
  "merkleroot": "6ad448872e6a60c9f157bd6c8d7fede966b7a26c99e95072103ff0b743419e79",
  "time": 1237751334,
  "mediantime": 1237746756,
  "nonce": 134723553,
  "bits": "1d00ffff",
  "difficulty": 1,
  "chainwork": "0000000000000000000000000000000000000000000000000000208920892089",
  "nTx": 1,
  "previousblockhash": "0000000014a53caabd74159f6cd702b21bdd09961cc3f4456777cbe64c5862c0",
  "nextblockhash": "000000002069040e1667d2c6d78c69d286e5ffea8cd97287cca8cfba3514b653",
  "strippedsize": 215,
  "size": 215,
  "weight": 860,
  "tx": [
    {
      "txid": "6ad448872e6a60c9f157bd6c8d7fede966b7a26c99e95072103ff0b743419e79",
      "hash": "6ad448872e6a60c9f157bd6c8d7fede966b7a26c99e95072103ff0b743419e79",
      "version": 1,
      "size": 134,
      "vsize": 134,
      "weight": 536,
      "locktime": 0,
      "vin": [
        {
          "coinbase": "04ffff001d010e",
          "sequence": 4294967295
        }
      ],
      "vout": [
        {
          "value": 50.0,
          "n": 0,
          "scriptPubKey": {
            "asm": "04de78975f072130f90bc206b8410d3fdd2a3b58a85014240feb9007310153599261d419c250be3663795241e7d4c119e9cee073e4985701630cced299a3387371 OP_CHECKSIG",
            "desc": "pk(04de78975f072130f90bc206b8410d3fdd2a3b58a85014240feb9007310153599261d419c250be3663795241e7d4c119e9cee073e4985701630cced299a3387371)#34smkwke",
            "hex": "4104de78975f072130f90bc206b8410d3fdd2a3b58a85014240feb9007310153599261d419c250be3663795241e7d4c119e9cee073e4985701630cced299a3387371ac",
            "type": "pubkey"
          }
        }
      ],
      "hex": "01000000010000000000000000000000000000000000000000000000000000000000000000ffffffff0704ffff001d010effffffff0100f2052a01000000434104de78975f072130f90bc206b8410d3fdd2a3b58a85014240feb9007310153599261d419c250be3663795241e7d4c119e9cee073e4985701630cced299a3387371ac00000000"
    }
  ]
}