{
  "hash": "000000008a92018d09a49048a2d4dec35a57e429480a6f5ff111cd2c4fcce8f6",
  "confirmations": 45560,
  "height": 7538,
  "version": 1,
  "versionHex": "00000001",
  "merkleroot": "88ec2294ebc2dc0e0526559e5f3a1635fe1372229c1715a6cf0f0711cff1fe64",
  "time": 1237127460,
  "mediantime": 1237124941,
  "nonce": 598841123,
  "bits": "1d00ffff",
  "difficulty": 1,
  "chainwork": "00000000000000000000000000000000000000000000000000001d731d731d73",
  "nTx": 1,
  "previousblockhash": "000000009080921cf08df2e9cc4f8fa0f450481ff00db4bc217b88e8d1e58b7f",
  "nextblockhash": "000000003b04f1b0a58347fbe06b5cc312c1a7a69ecbc4b0ee0725e7eb233164",
  "strippedsize": 216,
  "size": 216,
  "weight": 864,
  "tx": [
    {
      "txid": "88ec2294ebc2dc0e0526559e5f3a1635fe1372229c1715a6cf0f0711cff1fe64",
      "hash": "88ec2294ebc2dc0e0526559e5f3a1635fe1372229c1715a6cf0f0711cff1fe64",
      "version": 1,
      "size": 135,
      "vsize": 135,
      "weight": 540,
      "locktime": 0,
      "vin": [
        {
          "coinbase": "04ffff001d02a801",
          "sequence": 4294967295
        }
      ],
      "vout": [
        {
          "value": 50.0,
          "n": 0,
          "scriptPubKey": {
            "asm": "0412fc7bfaaf9d8ebbc83416ad6aada2d9155013609e42d5ef7644530fc2783c168225ae3687226656441a5fbbf990b73cd6bd3b67217c69760655915bd7689a24 OP_CHECKSIG",
            "desc": "pk(0412fc7bfaaf9d8ebbc83416ad6aada2d9155013609e42d5ef7644530fc2783c168225ae3687226656441a5fbbf990b73cd6bd3b67217c69760655915bd7689a24)#ny9g89nr",
            "hex": "410412fc7bfaaf9d8ebbc83416ad6aada2d9155013609e42d5ef7644530fc2783c168225ae3687226656441a5fbbf990b73cd6bd3b67217c69760655915bd7689a24ac",
            "type": "pubkey"
          }
        }
      ],
      "hex": "01000000010000000000000000000000000000000000000000000000000000000000000000ffffffff0804ffff001d02a801ffffffff0100f2052a0100000043410412fc7bfaaf9d8ebbc83416ad6aada2d9155013609e42d5ef7644530fc2783c168225ae3687226656441a5fbbf990b73cd6bd3b67217c69760655915bd7689a24ac00000000"
    }
  ]
}