{
  "hash": "00000000eb861b5b31f7d3cc12d2ab03a9c3896ee3102361db41d426cd23f183",
  "confirmations": 44894,
  "height": 8204,
  "version": 1,
  "versionHex": "00000001",
  "merkleroot": "af6c6564f387790910247fb7caa71ba8aba7f72c1997895b17ece092842cc2cd",
  "time": 1237608445,
  "mediantime": 1237605808,
  "nonce": 2894514981,
  "bits": "1d00ffff",
  "difficulty": 1,
  "chainwork": "0000000000000000000000000000000000000000000000000000200d200d200d",
  "nTx": 1,
  "previousblockhash": "000000007dc0a044ed2d3950071f69dce1ac6e75c14a9b9638cc773e098c56a3",
  "nextblockhash": "00000000a8523a2e8b5b7b3c95049b513756a4d8ca4ad4b6b7208093a83e3b22",
  "strippedsize": 216,
  "size": 216,
  "weight": 864,
  "tx": [
    {
      "txid": "af6c6564f387790910247fb7caa71ba8aba7f72c1997895b17ece092842cc2cd",
      "hash": "af6c6564f387790910247fb7caa71ba8aba7f72c1997895b17ece092842cc2cd",
      "version": 1,
      "size": 135,
      "vsize": 135,
      "weight": 540,
      "locktime": 0,
      "vin": [
        {
          "coinbase": "04ffff001d02d802",
          "sequence": 4294967295
        }
      ],
      "vout": [
        {
          "value": 50.0,
          "n": 0,
          "scriptPubKey": {
            "asm": "045820e986bf9799d279a791c6b4912d8dfb0280b9a790f914f2df1084a7a2a30ad53b537c51e0dd2dbb885fbaa6c913b5e71f42eb8c3a5497fa6ab118d8092790 OP_CHECKSIG",
            "desc": "pk(045820e986bf9799d279a791c6b4912d8dfb0280b9a790f914f2df1084a7a2a30ad53b537c51e0dd2dbb885fbaa6c913b5e71f42eb8c3a5497fa6ab118d8092790)#c9cfmg7t",
            "hex": "41045820e986bf9799d279a791c6b4912d8dfb0280b9a790f914f2df1084a7a2a30ad53b537c51e0dd2dbb885fbaa6c913b5e71f42eb8c3a5497fa6ab118d8092790ac",
            "type": "pubkey"
          }
        }
      ],
      "hex": "01000000010000000000000000000000000000000000000000000000000000000000000000ffffffff0804ffff001d02d802ffffffff0100f2052a010000004341045820e986bf9799d279a791c6b4912d8dfb0280b9a790f914f2df1084a7a2a30ad53b537c51e0dd2dbb885fbaa6c913b5e71f42eb8c3a5497fa6ab118d8092790ac00000000"
    }
  ]
}