{
  "hash": "000000008ff347146c3956176dfb2bb3c45ef9471a5f59d952474b97cf28d724",
  "confirmations": 43785,
  "height": 9313,
  "version": 1,
  "versionHex": "00000001",
  "merkleroot": "2fb4f749ece8d62f0cec2874877c164f98bbbeb4bdbaec2b2a40d80bb32456e0",
  "time": 1238484299,
  "mediantime": 1238480514,
  "nonce": 160690717,
  "bits": "1d00ffff",
  "difficulty": 1,
  "chainwork": "0000000000000000000000000000000000000000000000000000246224622462",
  "nTx": 1,
  "previousblockhash": "00000000587aac037a61ccc1fa1022836f5c57554bb6d0a30ea1ec282aa0fb9d",
  "nextblockhash": "000000005030db2d311e4e34f502110e79329e36e92b22a6c6c5d9730789aad1",
  "strippedsize": 216,
  "size": 216,
  "weight": 864,
  "tx": [
    {
      "txid": "2fb4f749ece8d62f0cec2874877c164f98bbbeb4bdbaec2b2a40d80bb32456e0",
      "hash": "2fb4f749ece8d62f0cec2874877c164f98bbbeb4bdbaec2b2a40d80bb32456e0",
      "version": 1,
      "size": 135,
      "vsize": 135,
      "weight": 540,
      "locktime": 0,
      "vin": [
        {
          "coinbase": "04ffff001d02ef01",
          "sequence": 4294967295
        }
      ],
      "vout": [
        {
          "value": 50.0,
          "n": 0,
          "scriptPubKey": {
            "asm": "0436498cc5ab0723af31d77b4fd259bf86e31fd4ec3b5ff18404e431bb7581a30edfee88ff6e42242b1f101d805010503580191b47293e152d52dfff29c3b01aee OP_CHECKSIG",
            "desc": "pk(0436498cc5ab0723af31d77b4fd259bf86e31fd4ec3b5ff18404e431bb7581a30edfee88ff6e42242b1f101d805010503580191b47293e152d52dfff29c3b01aee)#2hgl8ze4",
            "hex": "410436498cc5ab0723af31d77b4fd259bf86e31fd4ec3b5ff18404e431bb7581a30edfee88ff6e42242b1f101d805010503580191b47293e152d52dfff29c3b01aeeac",
            "type": "pubkey"
          }
        }
      ],
      "hex": "01000000010000000000000000000000000000000000000000000000000000000000000000ffffffff0804ffff001d02ef01ffffffff0100f2052a0100000043410436498cc5ab0723af31d77b4fd259bf86e31fd4ec3b5ff18404e431bb7581a30edfee88ff6e42242b1f101d805010503580191b47293e152d52dfff29c3b01aeeac00000000"
    }
  ]
}