{
  "hash": "0000000009b872c83e6911694e0af5989fa0c8fd958f1d741629da4c32d53001",
  "confirmations": 49800,
  "height": 3298,
  "version": 1,
  "versionHex": "00000001",
  "merkleroot": "5e4c15ff053b5e221a409e002a278174ced635e53d77f5be622bdb76752c2e18",
  "time": 1233967835,
  "mediantime": 1233966217,
  "nonce": 58948898,
  "bits": "1d00ffff",
  "difficulty": 1,
  "chainwork": "00000000000000000000000000000000000000000000000000000ce30ce30ce3",
  "nTx": 1,
  "previousblockhash": "0000000031348600da1c5b2dadd17d6c37c6ebdfa8a4780d10648701a7a0be16",
  "nextblockhash": "00000000310ac14a0f1fc6adfbdddfecd334a884315fa4373a80b9e46b3e7704",
  "strippedsize": 215,
  "size": 215,
  "weight": 860,
  "tx": [
    {
      "txid": "5e4c15ff053b5e221a409e002a278174ced635e53d77f5be622bdb76752c2e18",
      "hash": "5e4c15ff053b5e221a409e002a278174ced635e53d77f5be622bdb76752c2e18",
      "version": 1,
      "size": 134,
      "vsize": 134,
      "weight": 536,
      "locktime": 0,
      "vin": [
        {
          "coinbase": "04ffff001d010d",
          "sequence": 4294967295
        }
      ],
      "vout": [
        {
          "value": 50.0,
          "n": 0,
          "scriptPubKey": {
            "asm": "0485363af20ee6dde2f4b1890b5d1e5cf49906021353a37720ea70d22316858a214ed74decd59ead78eb816714756c8310149c0d41a68215228e2609c245ea6029 OP_CHECKSIG",
            "desc": "pk(0485363af20ee6dde2f4b1890b5d1e5cf49906021353a37720ea70d22316858a214ed74decd59ead78eb816714756c8310149c0d41a68215228e2609c245ea6029)#3zyw02nn",
            "hex": "410485363af20ee6dde2f4b1890b5d1e5cf49906021353a37720ea70d22316858a214ed74decd59ead78eb816714756c8310149c0d41a68215228e2609c245ea6029ac",
            "type": "pubkey"
          }
        }
      ],
      "hex": "01000000010000000000000000000000000000000000000000000000000000000000000000ffffffff0704ffff001d010dffffffff0100f2052a0100000043410485363af20ee6dde2f4b1890b5d1e5cf49906021353a37720ea70d22316858a214ed74decd59ead78eb816714756c8310149c0d41a68215228e2609c245ea6029ac00000000"
    }
  ]
}