{
  "hash": "000000009ea40eadbe623ae735d05ed6b57dc821bcd1d871e1b032fe939f5c8b",
  "confirmations": 51657,
  "height": 1441,
  "version": 1,
  "versionHex": "00000001",
  "merkleroot": "01c764372637a9282ee673dd9bbdbf1660ac39b694d192931b9296e922553bb1",
  "time": 1232742800,
  "mediantime": 1232741127,
  "nonce": 477055767,
  "bits": "1d00ffff",
  "difficulty": 1,
  "chainwork": "000000000000000000000000000000000000000000000000000005a205a205a2",
  "nTx": 1,
  "previousblockhash": "00000000ad67cba546e7a036e14ca28e74d1d092218236b8bb6f0b420dc12d59",
  "nextblockhash": "00000000cc55e4386c9058a04888ac9680d2a767b3d7075dc0c680f5d699e548",
  "strippedsize": 215,
  "size": 215,
  "weight": 860,
  "tx": [
    {
      "txid": "01c764372637a9282ee673dd9bbdbf1660ac39b694d192931b9296e922553bb1",
      "hash": "01c764372637a9282ee673dd9bbdbf1660ac39b694d192931b9296e922553bb1",
      "version": 1,
      "size": 134,
      "vsize": 134,
      "weight": 536,
      "locktime": 0,
      "vin": [
        {
          "coinbase": "04ffff001d017d",
          "sequence": 4294967295
        }
      ],
      "vout": [
        {
          "value": 50.0,
          "n": 0,
          "scriptPubKey": {
            "asm": "04d84a1986d47ad9c2340cae5c8bef30f74e8e4f6176e0aec7b06881efd3d444a5326876179fd5d5fd12b11f31daa1c44cc8bc9e8add3ae84af9a8659d6e7425fd OP_CHECKSIG",
            "desc": "pk(04d84a1986d47ad9c2340cae5c8bef30f74e8e4f6176e0aec7b06881efd3d444a5326876179fd5d5fd12b11f31daa1c44cc8bc9e8add3ae84af9a8659d6e7425fd)#tascrvew",
            "hex": "4104d84a1986d47ad9c2340cae5c8bef30f74e8e4f6176e0aec7b06881efd3d444a5326876179fd5d5fd12b11f31daa1c44cc8bc9e8add3ae84af9a8659d6e7425fdac",
            "type": "pubkey"
          }
        }
      ],
      "hex": "01000000010000000000000000000000000000000000000000000000000000000000000000ffffffff0704ffff001d017dffffffff0100f2052a01000000434104d84a1986d47ad9c2340cae5c8bef30f74e8e4f6176e0aec7b06881efd3d444a5326876179fd5d5fd12b11f31daa1c44cc8bc9e8add3ae84af9a8659d6e7425fdac00000000"
    }
  ]
}