{
  "hash": "000000002978eecde8d020f7f057083bc990002fff495121d7dc1c26d00c00f8",
  "confirmations": 51859,
  "height": 44,
  "version": 1,
  "versionHex": "00000001",
  "merkleroot": "439aee1e1aa6923ad61c1990459f88de1faa3e18b4ee125f99b94b82e1e0af5f",
  "time": 1231610361,
  "mediantime": 1231607511,
  "nonce": 429798192,
  "bits": "1d00ffff",
  "difficulty": 1,
  "chainwork": "0000000000000000000000000000000000000000000000000000002d002d002d",
  "nTx": 1,
  "previousblockhash": "00000000ac21f2862aaab177fd3c5c8b395de842f84d88c9cf3420b2d393e550",
  "nextblockhash": "000000009189006e461d2f4037a819d00217412ac01900ddbf09461100b836bb",
  "strippedsize": 215,
  "size": 215,
  "weight": 860,
  "tx": [
    {
      "txid": "439aee1e1aa6923ad61c1990459f88de1faa3e18b4ee125f99b94b82e1e0af5f",
      "hash": "439aee1e1aa6923ad61c1990459f88de1faa3e18b4ee125f99b94b82e1e0af5f",
      "version": 1,
      "size": 134,
      "vsize": 134,
      "weight": 536,
      "locktime": 0,
      "vin": [
        {
          "coinbase": "04ffff001d011e",
          "sequence": 4294967295
        }
      ],
      "vout": [
        {
          "value": 50.0,
          "n": 0,
          "scriptPubKey": {
            "asm": "04c9eb99d7bbbd9acfab695c8aa8b931beb43292f2fecdc19d7e687b524d2e2c8a9d167f9be930634adae005424b441a9de8e8c15d8b2462661eb78418a8aba662 OP_CHECKSIG",
            "desc": "pk(04c9eb99d7bbbd9acfab695c8aa8b931beb43292f2fecdc19d7e687b524d2e2c8a9d167f9be930634adae005424b441a9de8e8c15d8b2462661eb78418a8aba662)#2336sx3c",
            "hex": "4104c9eb99d7bbbd9acfab695c8aa8b931beb43292f2fecdc19d7e687b524d2e2c8a9d167f9be930634adae005424b441a9de8e8c15d8b2462661eb78418a8aba662ac",
            "type": "pubkey"
          }
        }
      ],
      "hex": "01000000010000000000000000000000000000000000000000000000000000000000000000ffffffff0704ffff001d011effffffff0100f2052a01000000434104c9eb99d7bbbd9acfab695c8aa8b931beb43292f2fecdc19d7e687b524d2e2c8a9d167f9be930634adae005424b441a9de8e8c15d8b2462661eb78418a8aba662ac00000000"
    }
  ]
}