{
  "hash": "00000000078c42fe4c24ca283e3d88a7b5457ef80b3e64807faade6549f16ca5",
  "confirmations": 45593,
  "height": 7505,
  "version": 1,
  "versionHex": "00000001",
  "merkleroot": "3fc40fdba785e4f3616027d957f2d3d6dbe36b9c56434d5d1bc3e33a401ebb0c",
  "time": 1237101078,
  "mediantime": 1237098418,
  "nonce": 4043618358,
  "bits": "1d00ffff",
  "difficulty": 1,
  "chainwork": "00000000000000000000000000000000000000000000000000001d521d521d52",
  "nTx": 1,
  "previousblockhash": "00000000174841d2ff2709caf9c0c974e44cfbbb2c825a119c35f244806fd3cb",
  "nextblockhash": "000000000e6b706d07a86752164dd5d2cc8a6f4a381ec682a66173f2fc179245",
  "strippedsize": 216,
  "size": 216,
  "weight": 864,
  "tx": [
    {
      "txid": "3fc40fdba785e4f3616027d957f2d3d6dbe36b9c56434d5d1bc3e33a401ebb0c",
      "hash": "3fc40fdba785e4f3616027d957f2d3d6dbe36b9c56434d5d1bc3e33a401ebb0c",
      "version": 1,
      "size": 135,
      "vsize": 135,
      "weight": 540,
      "locktime": 0,
      "vin": [
        {
          "coinbase": "04ffff001d02fc00",
          "sequence": 4294967295
        }
      ],
      "vout": [
        {
          "value": 50.0,
          "n": 0,
          "scriptPubKey": {
            "asm": "047a57daa13ff374fc6ef6382bef1b8c33633cd35b9a81ba0d3caef1058963ace63f2d0e8439e380fd2139b055eeb09b10ed61f4f112f50df8c1d8fab5c6f0eb64 OP_CHECKSIG",
            "desc": "pk(047a57daa13ff374fc6ef6382bef1b8c33633cd35b9a81ba0d3caef1058963ace63f2d0e8439e380fd2139b055eeb09b10ed61f4f112f50df8c1d8fab5c6f0eb64)#rh92s24q",
            "hex": "41047a57daa13ff374fc6ef6382bef1b8c33633cd35b9a81ba0d3caef1058963ace63f2d0e8439e380fd2139b055eeb09b10ed61f4f112f50df8c1d8fab5c6f0eb64ac",
            "type": "pubkey"
          }
        }
      ],
      "hex": "01000000010000000000000000000000000000000000000000000000000000000000000000ffffffff0804ffff001d02fc00ffffffff0100f2052a010000004341047a57daa13ff374fc6ef6382bef1b8c33633cd35b9a81ba0d3caef1058963ace63f2d0e8439e380fd2139b055eeb09b10ed61f4f112f50df8c1d8fab5c6f0eb64ac00000000"
    }
  ]
}