{
  "hash": "00000000bf05c31b858ae12d66acbc7a8c31d2893d56c01299b6ed800587119a",
  "confirmations": 49562,
  "height": 3536,
  "version": 1,
  "versionHex": "00000001",
  "merkleroot": "30f886d2e1906b6c050d7b9312c5dd9a5fa9ef7c2210f53bf40cfacf75c2a7d7",
  "time": 1234126537,
  "mediantime": 1234124185,
  "nonce": 10068567,
  "bits": "1d00ffff",
  "difficulty": 1,
  "chainwork": "00000000000000000000000000000000000000000000000000000dd10dd10dd1",
  "nTx": 1,
  "previousblockhash": "00000000340aa68fb1905aed4d4f31dfe1cf560442506b6fd3227c81b8631488",
  "nextblockhash": "0000000090a3f95819fc5ae42d8e1175ec0909dee27194b9076f0b479fe2507e",
  "strippedsize": 216,
  "size": 216,
  "weight": 864,
  "tx": [
    {
      "txid": "30f886d2e1906b6c050d7b9312c5dd9a5fa9ef7c2210f53bf40cfacf75c2a7d7",
      "hash": "30f886d2e1906b6c050d7b9312c5dd9a5fa9ef7c2210f53bf40cfacf75c2a7d7",
      "version": 1,
      "size": 135,
      "vsize": 135,
      "weight": 540,
      "locktime": 0,
      "vin": [
        {
          "coinbase": "04ffff001d024809",
          "sequence": 4294967295
        }
      ],
      "vout": [
        {
          "value": 50.0,
          "n": 0,
          "scriptPubKey": {
            "asm": "04a1ae0ec7d4ba199602e7124003220a9ca8f3e9b7dc63e61319e9f11f5393bc63428b9a7c1ab9fd2d17adde49688b9b413cc2413264f785780b3dcb8e70994a13 OP_CHECKSIG",
            "desc": "pk(04a1ae0ec7d4ba199602e7124003220a9ca8f3e9b7dc63e61319e9f11f5393bc63428b9a7c1ab9fd2d17adde49688b9b413cc2413264f785780b3dcb8e70994a13)#jw8pug3x",
            "hex": "4104a1ae0ec7d4ba199602e7124003220a9ca8f3e9b7dc63e61319e9f11f5393bc63428b9a7c1ab9fd2d17adde49688b9b413cc2413264f785780b3dcb8e70994a13ac",
            "type": "pubkey"
          }
        }
      ],
      "hex": "01000000010000000000000000000000000000000000000000000000000000000000000000ffffffff0804ffff001d024809ffffffff0100f2052a01000000434104a1ae0ec7d4ba199602e7124003220a9ca8f3e9b7dc63e61319e9f11f5393bc63428b9a7c1ab9fd2d17adde49688b9b413cc2413264f785780b3dcb8e70994a13ac00000000"
    }
  ]
}