{
  "hash": "0000000002edf896a1d087514c37b37680e1e9d93058bd6fab49711169a2a79b",
  "confirmations": 52156,
  "height": 942,
  "version": 1,
  "versionHex": "00000001",
  "merkleroot": "c9ad232dc223d242a0813cab4ab80cc1053bccb9b7c585ef8cb882cb5263b43a",
  "time": 1232307944,
  "mediantime": 1232304668,
  "nonce": 167978504,
  "bits": "1d00ffff",
  "difficulty": 1,
  "chainwork": "000000000000000000000000000000000000000000000000000003af03af03af",
  "nTx": 1,
  "previousblockhash": "00000000fa3c04695a819bb5ddcbe4b06c0943c659ad2690f6dcd60e2a0e20f3",
  "nextblockhash": "00000000e9a0e6f8f08cc1ac6198e3ea633bce375316c3d593a6654ec7e08b2d",
  "strippedsize": 216,
  "size": 216,
  "weight": 864,
  "tx": [
    {
      "txid": "c9ad232dc223d242a0813cab4ab80cc1053bccb9b7c585ef8cb882cb5263b43a",
      "hash": "c9ad232dc223d242a0813cab4ab80cc1053bccb9b7c585ef8cb882cb5263b43a",
      "version": 1,
      "size": 135,
      "vsize": 135,
      "weight": 540,
      "locktime": 0,
      "vin": [
        {
          "coinbase": "04ffff001d023f04",
          "sequence": 4294967295
        }
      ],
      "vout": [
        {
          "value": 50.0,
          "n": 0,
          "scriptPubKey": {
            "asm": "040bdc77d7480da9151fd5bb7c7feed3c93a0b92c29cfd44a8daace3913d190b8e9ba64c086fceca7991b65af0f181d121781e80bbc0d89978cacdfd7cc32af8a3 OP_CHECKSIG",
            "desc": "pk(040bdc77d7480da9151fd5bb7c7feed3c93a0b92c29cfd44a8daace3913d190b8e9ba64c086fceca7991b65af0f181d121781e80bbc0d89978cacdfd7cc32af8a3)#ung2jdf0",
            "hex": "41040bdc77d7480da9151fd5bb7c7feed3c93a0b92c29cfd44a8daace3913d190b8e9ba64c086fceca7991b65af0f181d121781e80bbc0d89978cacdfd7cc32af8a3ac",
            "type": "pubkey"
          }
        }
      ],
      "hex": "01000000010000000000000000000000000000000000000000000000000000000000000000ffffffff0804ffff001d023f04ffffffff0100f2052a010000004341040bdc77d7480da9151fd5bb7c7feed3c93a0b92c29cfd44a8daace3913d190b8e9ba64c086fceca7991b65af0f181d121781e80bbc0d89978cacdfd7cc32af8a3ac00000000"
    }
  ]
}