{
  "hash": "000000002dcb4a3fbf33a516ed4ae12d08f11c7bfc001271f9312a31eb6dbf52",
  "confirmations": 46598,
  "height": 6500,
  "version": 1,
  "versionHex": "00000001",
  "merkleroot": "3d1c6931f81a9b23e895324ab2bae48d348b7414bf69fc638b5bd970b94dd6bf",
  "time": 1236330950,
  "mediantime": 1236327372,
  "nonce": 56467253,
  "bits": "1d00ffff",
  "difficulty": 1,
  "chainwork": "0000000000000000000000000000000000000000000000000000196519651965",
  "nTx": 1,
  "previousblockhash": "00000000e0ed409c6efb3391f4dc3ff3ae0251f7963f989bfb4bc31bc1baa82e",
  "nextblockhash": "00000000bcaf0e3c091ec2cdb925f8582cb9fe04822f4ffc1e8da2760bc9647b",
  "strippedsize": 216,
  "size": 216,
  "weight": 864,
  "tx": [
    {
      "txid": "3d1c6931f81a9b23e895324ab2bae48d348b7414bf69fc638b5bd970b94dd6bf",
      "hash": "3d1c6931f81a9b23e895324ab2bae48d348b7414bf69fc638b5bd970b94dd6bf",
      "version": 1,
      "size": 135,
      "vsize": 135,
      "weight": 540,
      "locktime": 0,
      "vin": [
        {
          "coinbase": "04ffff001d025a01",
          "sequence": 4294967295
        }
      ],
      "vout": [
        {
          "value": 50.0,
          "n": 0,
          "scriptPubKey": {
            "asm": "04ef3a46b163e5848cfed7b5bbcefddcf4c6959f7c8b8299a3f7b48bec89927ccb431edaf68657a9bf15962147afbfe51b8cbbcec7cb81cddc9ea8a9b009ae8cf0 OP_CHECKSIG",
            "desc": "pk(04ef3a46b163e5848cfed7b5bbcefddcf4c6959f7c8b8299a3f7b48bec89927ccb431edaf68657a9bf15962147afbfe51b8cbbcec7cb81cddc9ea8a9b009ae8cf0)#zxlxxdfn",
            "hex": "4104ef3a46b163e5848cfed7b5bbcefddcf4c6959f7c8b8299a3f7b48bec89927ccb431edaf68657a9bf15962147afbfe51b8cbbcec7cb81cddc9ea8a9b009ae8cf0ac",
            "type": "pubkey"
          }
        }
      ],
      "hex": "01000000010000000000000000000000000000000000000000000000000000000000000000ffffffff0804ffff001d025a01ffffffff0100f2052a01000000434104ef3a46b163e5848cfed7b5bbcefddcf4c6959f7c8b8299a3f7b48bec89927ccb431edaf68657a9bf15962147afbfe51b8cbbcec7cb81cddc9ea8a9b009ae8cf0ac00000000"
    }
  ]
}