{
  "hash": "00000000e74a842e631ddd610026648b888dcd3b19cd2367d9f89334c64b0244",
  "confirmations": 44648,
  "height": 8450,
  "version": 1,
  "versionHex": "00000001",
  "merkleroot": "b1ecaf2384d49458744500b6fea7b3d22b6080166d54bcbd4766f9ab4f2c8832",
  "time": 1237829665,
  "mediantime": 1237826929,
  "nonce": 3232449542,
  "bits": "1d00ffff",
  "difficulty": 1,
  "chainwork": "0000000000000000000000000000000000000000000000000000210321032103",
  "nTx": 1,
  "previousblockhash": "000000008075febe41a0a338a29d96f1a77adc89b5ef40528a5c6a203ed59443",
  "nextblockhash": "00000000cdb32825ea7611cdf2981d663362301c5a0883f062cce4da77ad50c1",
  "strippedsize": 216,
  "size": 216,
  "weight": 864,
  "tx": [
    {
      "txid": "b1ecaf2384d49458744500b6fea7b3d22b6080166d54bcbd4766f9ab4f2c8832",
      "hash": "b1ecaf2384d49458744500b6fea7b3d22b6080166d54bcbd4766f9ab4f2c8832",
      "version": 1,
      "size": 135,
      "vsize": 135,
      "weight": 540,
      "locktime": 0,
      "vin": [
        {
          "coinbase": "04ffff001d02c706",
          "sequence": 4294967295
        }
      ],
      "vout": [
        {
          "value": 50.0,
          "n": 0,
          "scriptPubKey": {
            "asm": "040bf80bb6179877e2844888abc6610368c2827c1a7ee1fa140d6b023c4de306ff8118f7d3d6262a25d9f64bc53677f8426fdc9478b3a4e8bd69fee94c483eaa95 OP_CHECKSIG",
            "desc": "pk(040bf80bb6179877e2844888abc6610368c2827c1a7ee1fa140d6b023c4de306ff8118f7d3d6262a25d9f64bc53677f8426fdc9478b3a4e8bd69fee94c483eaa95)#taapnhzs",
            "hex": "41040bf80bb6179877e2844888abc6610368c2827c1a7ee1fa140d6b023c4de306ff8118f7d3d6262a25d9f64bc53677f8426fdc9478b3a4e8bd69fee94c483eaa95ac",
            "type": "pubkey"
          }
        }
      ],
      "hex": "01000000010000000000000000000000000000000000000000000000000000000000000000ffffffff0804ffff001d02c706ffffffff0100f2052a010000004341040bf80bb6179877e2844888abc6610368c2827c1a7ee1fa140d6b023c4de306ff8118f7d3d6262a25d9f64bc53677f8426fdc9478b3a4e8bd69fee94c483eaa95ac00000000"
    }
  ]
}