{
  "hash": "00000000cf0e9000778f9af0929ab6410aa02904e078ffe9eb14610ec8b4b2ea",
  "confirmations": 46050,
  "height": 7048,
  "version": 1,
  "versionHex": "00000001",
  "merkleroot": "0d9bb8b481ffef1375b591ead4ba07e25891a9970b61d6a28593e3049deef684",
  "time": 1236756476,
  "mediantime": 1236751152,
  "nonce": 28097376,
  "bits": "1d00ffff",
  "difficulty": 1,
  "chainwork": "00000000000000000000000000000000000000000000000000001b891b891b89",
  "nTx": 1,
  "previousblockhash": "00000000aaa4bb5f000426e08ad6109cac943d3e15c62637869058a97b63962c",
  "nextblockhash": "000000003fc64c60236d6a8921e7d9dffb536e78321ab37f1136667cc39a04c0",
  "strippedsize": 215,
  "size": 215,
  "weight": 860,
  "tx": [
    {
      "txid": "0d9bb8b481ffef1375b591ead4ba07e25891a9970b61d6a28593e3049deef684",
      "hash": "0d9bb8b481ffef1375b591ead4ba07e25891a9970b61d6a28593e3049deef684",
      "version": 1,
      "size": 134,
      "vsize": 134,
      "weight": 536,
      "locktime": 0,
      "vin": [
        {
          "coinbase": "04ffff001d0104",
          "sequence": 4294967295
        }
      ],
      "vout": [
        {
          "value": 50.0,
          "n": 0,
          "scriptPubKey": {
            "asm": "049deb740afe0b8d36de5bb8f80939fa9b7810101656913d19300f96d36bbdf9567b4bfe7c0c470702a69c86d779cbaa7e1d4c84b2f1b4a9babf8a22745cc87484 OP_CHECKSIG",
            "desc": "pk(049deb740afe0b8d36de5bb8f80939fa9b7810101656913d19300f96d36bbdf9567b4bfe7c0c470702a69c86d779cbaa7e1d4c84b2f1b4a9babf8a22745cc87484)#ny3jsypm",
            "hex": "41049deb740afe0b8d36de5bb8f80939fa9b7810101656913d19300f96d36bbdf9567b4bfe7c0c470702a69c86d779cbaa7e1d4c84b2f1b4a9babf8a22745cc87484ac",
            "type": "pubkey"
          }
        }
      ],
      "hex": "01000000010000000000000000000000000000000000000000000000000000000000000000ffffffff0704ffff001d0104ffffffff0100f2052a010000004341049deb740afe0b8d36de5bb8f80939fa9b7810101656913d19300f96d36bbdf9567b4bfe7c0c470702a69c86d779cbaa7e1d4c84b2f1b4a9babf8a22745cc87484ac00000000"
    }
  ]
}