{
  "hash": "00000000471916db33ca96f0927d0c0cfaf7df62a88807f009a688db0bcfc132",
  "confirmations": 50616,
  "height": 2482,
  "version": 1,
  "versionHex": "00000001",
  "merkleroot": "5b26beddf39dd95eca0af5a39d4405cbc5d6b0ef99b7e038c85629abc811f890",
  "time": 1233411304,
  "mediantime": 1233408365,
  "nonce": 14890571,
  "bits": "1d00ffff",
  "difficulty": 1,
  "chainwork": "000000000000000000000000000000000000000000000000000009b309b309b3",
  "nTx": 1,
  "previousblockhash": "0000000023681a59f33999c8d65be2ac85e9987641a79b02bc0531b4a22500bd",
  "nextblockhash": "000000008801d8554b3e7470ffb511ca0664ecf07098b14be09dd036664328d0",
  "strippedsize": 216,
  "size": 216,
  "weight": 864,
  "tx": [
    {
      "txid": "5b26beddf39dd95eca0af5a39d4405cbc5d6b0ef99b7e038c85629abc811f890",
      "hash": "5b26beddf39dd95eca0af5a39d4405cbc5d6b0ef99b7e038c85629abc811f890",
      "version": 1,
      "size": 135,
      "vsize": 135,
      "weight": 540,
      "locktime": 0,
      "vin": [
        {
          "coinbase": "04ffff001d024a01",
          "sequence": 4294967295
        }
      ],
      "vout": [
        {
          "value": 50.0,
          "n": 0,
          "scriptPubKey": {
            "asm": "047a088e7846408f86f418242cac4a80a4f810fc37c8baeb2567ac1c7163fe2efc90b869df0843e55b16a23720ba4ef915e2a67012932178c6b934c32635face4f OP_CHECKSIG",
            "desc": "pk(047a088e7846408f86f418242cac4a80a4f810fc37c8baeb2567ac1c7163fe2efc90b869df0843e55b16a23720ba4ef915e2a67012932178c6b934c32635face4f)#3pev95lv",
            "hex": "41047a088e7846408f86f418242cac4a80a4f810fc37c8baeb2567ac1c7163fe2efc90b869df0843e55b16a23720ba4ef915e2a67012932178c6b934c32635face4fac",
            "type": "pubkey"
          }
        }
      ],
      "hex": "01000000010000000000000000000000000000000000000000000000000000000000000000ffffffff0804ffff001d024a01ffffffff0100f2052a010000004341047a088e7846408f86f418242cac4a80a4f810fc37c8baeb2567ac1c7163fe2efc90b869df0843e55b16a23720ba4ef915e2a67012932178c6b934c32635face4fac00000000"
    }
  ]
}