{
  "hash": "00000000129eaacfb9262cc58a77ab961eb05f2840dd5629e163f465fabaf528",
  "confirmations": 50047,
  "height": 3051,
  "version": 1,
  "versionHex": "00000001",
  "merkleroot": "2d77d3c9d1133aa2215704584ee2ceba930cd4ecc65849d52021e6555e7fdca1",
  "time": 1233797191,
  "mediantime": 1233793412,
  "nonce": 44383006,
  "bits": "1d00ffff",
  "difficulty": 1,
  "chainwork": "00000000000000000000000000000000000000000000000000000bec0bec0bec",
  "nTx": 1,
  "previousblockhash": "00000000e6db66070661bcefe01e5b80626de9af28ed13c2786a9e5cb779d1d9",
  "nextblockhash": "0000000077748127087216f283a991031dafaaa521061cdfa5ac11f75c6088f4",
  "strippedsize": 215,
  "size": 215,
  "weight": 860,
  "tx": [
    {
      "txid": "2d77d3c9d1133aa2215704584ee2ceba930cd4ecc65849d52021e6555e7fdca1",
      "hash": "2d77d3c9d1133aa2215704584ee2ceba930cd4ecc65849d52021e6555e7fdca1",
      "version": 1,
      "size": 134,
      "vsize": 134,
      "weight": 536,
      "locktime": 0,
      "vin": [
        {
          "coinbase": "04ffff001d0138",
          "sequence": 4294967295
        }
      ],
      "vout": [
        {
          "value": 50.0,
          "n": 0,
          "scriptPubKey": {
            "asm": "047f09719ac3e525e601379b379ab546513cfc140a1c0c8182b42b6db10aa9d266d0f5181843af9b7b54cf9135ee71d3caf247795ff1d8f1df7dcf4761c377dc02 OP_CHECKSIG",
            "desc": "pk(047f09719ac3e525e601379b379ab546513cfc140a1c0c8182b42b6db10aa9d266d0f5181843af9b7b54cf9135ee71d3caf247795ff1d8f1df7dcf4761c377dc02)#34usrlqk",
            "hex": "41047f09719ac3e525e601379b379ab546513cfc140a1c0c8182b42b6db10aa9d266d0f5181843af9b7b54cf9135ee71d3caf247795ff1d8f1df7dcf4761c377dc02ac",
            "type": "pubkey"
          }
        }
      ],
      "hex": "01000000010000000000000000000000000000000000000000000000000000000000000000ffffffff0704ffff001d0138ffffffff0100f2052a010000004341047f09719ac3e525e601379b379ab546513cfc140a1c0c8182b42b6db10aa9d266d0f5181843af9b7b54cf9135ee71d3caf247795ff1d8f1df7dcf4761c377dc02ac00000000"
    }
  ]
}