{
  "hash": "00000000f08da4ba5d41219aed535af9712919fd87293765b8a237136988d5fe",
  "confirmations": 44995,
  "height": 8103,
  "version": 1,
  "versionHex": "00000001",
  "merkleroot": "6fdf763c456ec1a599edc5e87ed66b304e6f9426d6cd2838c71fcd1f231435a3",
  "time": 1237533945,
  "mediantime": 1237529559,
  "nonce": 8194606,
  "bits": "1d00ffff",
  "difficulty": 1,
  "chainwork": "00000000000000000000000000000000000000000000000000001fa81fa81fa8",
  "nTx": 1,
  "previousblockhash": "0000000068d5e34919adf6d656f9d6e11ab372224221e48c24e3b9b6c258ac59",
  "nextblockhash": "000000009cf1442932004bdc400c080db72157649003d2630f85674caf8dd342",
  "strippedsize": 216,
  "size": 216,
  "weight": 864,
  "tx": [
    {
      "txid": "6fdf763c456ec1a599edc5e87ed66b304e6f9426d6cd2838c71fcd1f231435a3",
      "hash": "6fdf763c456ec1a599edc5e87ed66b304e6f9426d6cd2838c71fcd1f231435a3",
      "version": 1,
      "size": 135,
      "vsize": 135,
      "weight": 540,
      "locktime": 0,
      "vin": [
        {
          "coinbase": "04ffff001d023001",
          "sequence": 4294967295
        }
      ],
      "vout": [
        {
          "value": 50.0,
          "n": 0,
          "scriptPubKey": {
            "asm": "0432845931e84be2f24fb6ae6614f04320d5e80532a676617f91d219bfdad5bcc5f858ffd4ff2819906454d69bdb28dcc1e79835ebec06cb1ea6cc62670cb65f8d OP_CHECKSIG",
            "desc": "pk(0432845931e84be2f24fb6ae6614f04320d5e80532a676617f91d219bfdad5bcc5f858ffd4ff2819906454d69bdb28dcc1e79835ebec06cb1ea6cc62670cb65f8d)#d2u02gvy",
            "hex": "410432845931e84be2f24fb6ae6614f04320d5e80532a676617f91d219bfdad5bcc5f858ffd4ff2819906454d69bdb28dcc1e79835ebec06cb1ea6cc62670cb65f8dac",
            "type": "pubkey"
          }
        }
      ],
      "hex": "01000000010000000000000000000000000000000000000000000000000000000000000000ffffffff0804ffff001d023001ffffffff0100f2052a0100000043410432845931e84be2f24fb6ae6614f04320d5e80532a676617f91d219bfdad5bcc5f858ffd4ff2819906454d69bdb28dcc1e79835ebec06cb1ea6cc62670cb65f8dac00000000"
    }
  ]
}