{
  "hash": "00000000d9255f85c6aedd5fdbe650fe5dcba77b0e577ee540da8001cfa55fa6",
  "confirmations": 50631,
  "height": 2467,
  "version": 1,
  "versionHex": "00000001",
  "merkleroot": "a421c87083d653f36d93d1481567dca9ba810141dff65736b334afeeb7b431b6",
  "time": 1233402657,
  "mediantime": 1233400547,
  "nonce": 1355339013,
  "bits": "1d00ffff",
  "difficulty": 1,
  "chainwork": "000000000000000000000000000000000000000000000000000009a409a409a4",
  "nTx": 1,
  "previousblockhash": "00000000dd41eafae6a1c14065eb3215f1cab7a1733f5b3e7f4240051d66786f",
  "nextblockhash": "0000000062e6259050e2473da6bf170546025d6b32a95cb8b91f00da62afe112",
  "strippedsize": 216,
  "size": 216,
  "weight": 864,
  "tx": [
    {
      "txid": "a421c87083d653f36d93d1481567dca9ba810141dff65736b334afeeb7b431b6",
      "hash": "a421c87083d653f36d93d1481567dca9ba810141dff65736b334afeeb7b431b6",
      "version": 1,
      "size": 135,
      "vsize": 135,
      "weight": 540,
      "locktime": 0,
      "vin": [
        {
          "coinbase": "04ffff001d02b000",
          "sequence": 4294967295
        }
      ],
      "vout": [
        {
          "value": 50.0,
          "n": 0,
          "scriptPubKey": {
            "asm": "04a55af0562f94351f70a9c456d758406bec535d5ab27c6550a5d4827610eef6249543fae9a7f1066c491e0ce95f832aa49cdd51fd5f2a30be7e980276f1e38909 OP_CHECKSIG",
            "desc": "pk(04a55af0562f94351f70a9c456d758406bec535d5ab27c6550a5d4827610eef6249543fae9a7f1066c491e0ce95f832aa49cdd51fd5f2a30be7e980276f1e38909)#huustun4",
            "hex": "4104a55af0562f94351f70a9c456d758406bec535d5ab27c6550a5d4827610eef6249543fae9a7f1066c491e0ce95f832aa49cdd51fd5f2a30be7e980276f1e38909ac",
            "type": "pubkey"
          }
        }
      ],
      "hex": "01000000010000000000000000000000000000000000000000000000000000000000000000ffffffff0804ffff001d02b000ffffffff0100f2052a01000000434104a55af0562f94351f70a9c456d758406bec535d5ab27c6550a5d4827610eef6249543fae9a7f1066c491e0ce95f832aa49cdd51fd5f2a30be7e980276f1e38909ac00000000"
    }
  ]
}