{
  "hash": "000000000558b35935bd19d7b8c5969feda2b7e993f4d98ff519da470520dcf7",
  "confirmations": 43381,
  "height": 9717,
  "version": 1,
  "versionHex": "00000001",
  "merkleroot": "336da22dc409e2685cf6b390edfaf1188581129a939a3287bc08393195196a5f",
  "time": 1238791228,
  "mediantime": 1238787133,
  "nonce": 786563105,
  "bits": "1d00ffff",
  "difficulty": 1,
  "chainwork": "000000000000000000000000000000000000000000000000000025f625f625f6",
  "nTx": 1,
  "previousblockhash": "00000000c3fb5743f363f762c0b564eca5628ec0e3b39b343b5fd754e489b707",
  "nextblockhash": "00000000750b79ebcb003361963255872f9c7e8934bd09f60e510fc2e25023cb",
  "strippedsize": 216,
  "size": 216,
  "weight": 864,
  "tx": [
    {
      "txid": "336da22dc409e2685cf6b390edfaf1188581129a939a3287bc08393195196a5f",
      "hash": "336da22dc409e2685cf6b390edfaf1188581129a939a3287bc08393195196a5f",
      "version": 1,
      "size": 135,
      "vsize": 135,
      "weight": 540,
      "locktime": 0,
      "vin": [
        {
          "coinbase": "04ffff001d02da08",
          "sequence": 4294967295
        }
      ],
      "vout": [
        {
          "value": 50.0,
          "n": 0,
          "scriptPubKey": {
            "asm": "044053c49a78c175c353b3e3145ad2ae0ff285867c26864186f18f48ab2f71f071577014344b00b6b5f05c36f0591fff9b4dde03113a7bfee23a549891e66178e9 OP_CHECKSIG",
            "desc": "pk(044053c49a78c175c353b3e3145ad2ae0ff285867c26864186f18f48ab2f71f071577014344b00b6b5f05c36f0591fff9b4dde03113a7bfee23a549891e66178e9)#eshwguwm",
            "hex": "41044053c49a78c175c353b3e3145ad2ae0ff285867c26864186f18f48ab2f71f071577014344b00b6b5f05c36f0591fff9b4dde03113a7bfee23a549891e66178e9ac",
            "type": "pubkey"
          }
        }
      ],
      "hex": "01000000010000000000000000000000000000000000000000000000000000000000000000ffffffff0804ffff001d02da08ffffffff0100f2052a010000004341044053c49a78c175c353b3e3145ad2ae0ff285867c26864186f18f48ab2f71f071577014344b00b6b5f05c36f0591fff9b4dde03113a7bfee23a549891e66178e9ac00000000"
    }
  ]
}