{
  "hash": "0000000062ded0482f3cacbf7b6d9f3e8f0f72eed1b6688cc20e49e900c4e490",
  "confirmations": 46367,
  "height": 6731,
  "version": 1,
  "versionHex": "00000001",
  "merkleroot": "8aff7f3864d863c4e16a7dc059c09c933168581d37a613e3c1752b148590270f",
  "time": 1236505032,
  "mediantime": 1236501729,
  "nonce": 2327168819,
  "bits": "1d00ffff",
  "difficulty": 1,
  "chainwork": "00000000000000000000000000000000000000000000000000001a4c1a4c1a4c",
  "nTx": 1,
  "previousblockhash": "000000006ceff3c5dd4052fd63d58e80c069d41beed962d91cbd8452358dfcbc",
  "nextblockhash": "0000000082071efed90bf22339edeba39516ec9a06ed3eca7133c78e6a0c29bd",
  "strippedsize": 216,
  "size": 216,
  "weight": 864,
  "tx": [
    {
      "txid": "8aff7f3864d863c4e16a7dc059c09c933168581d37a613e3c1752b148590270f",
      "hash": "8aff7f3864d863c4e16a7dc059c09c933168581d37a613e3c1752b148590270f",
      "version": 1,
      "size": 135,
      "vsize": 135,
      "weight": 540,
      "locktime": 0,
      "vin": [
        {
          "coinbase": "04ffff001d02b807",
          "sequence": 4294967295
        }
      ],
      "vout": [
        {
          "value": 50.0,
          "n": 0,
          "scriptPubKey": {
            "asm": "04544b1ded42d36104d7515b2ce33da68352a8003aaf67c40f6c2e5ee405ba8db0b61b2ae6ee415823fe08f2c5908b8b8737fea8ac058c4b674b432b9b2f848abd OP_CHECKSIG",
            "desc": "pk(04544b1ded42d36104d7515b2ce33da68352a8003aaf67c40f6c2e5ee405ba8db0b61b2ae6ee415823fe08f2c5908b8b8737fea8ac058c4b674b432b9b2f848abd)#mn6nte0n",
            "hex": "4104544b1ded42d36104d7515b2ce33da68352a8003aaf67c40f6c2e5ee405ba8db0b61b2ae6ee415823fe08f2c5908b8b8737fea8ac058c4b674b432b9b2f848abdac",
            "type": "pubkey"
          }
        }
      ],
      "hex": "01000000010000000000000000000000000000000000000000000000000000000000000000ffffffff0804ffff001d02b807ffffffff0100f2052a01000000434104544b1ded42d36104d7515b2ce33da68352a8003aaf67c40f6c2e5ee405ba8db0b61b2ae6ee415823fe08f2c5908b8b8737fea8ac058c4b674b432b9b2f848abdac00000000"
    }
  ]
}