{
  "hash": "000000006f0fca19456e2824feaae5ba4be5f2542c63c786bbd19dd5a1229271",
  "confirmations": 43783,
  "height": 9315,
  "version": 1,
  "versionHex": "00000001",
  "merkleroot": "3da74d5f5230a86e351a0659c55ae77357010b8883a04a51f1092d74a1cbb6bb",
  "time": 1238485629,
  "mediantime": 1238482209,
  "nonce": 434464045,
  "bits": "1d00ffff",
  "difficulty": 1,
  "chainwork": "0000000000000000000000000000000000000000000000000000246424642464",
  "nTx": 1,
  "previousblockhash": "000000005030db2d311e4e34f502110e79329e36e92b22a6c6c5d9730789aad1",
  "nextblockhash": "00000000d32bc5ec519824ce94f22577e79e067a5e1cde93c9f6325a2cdac198",
  "strippedsize": 216,
  "size": 216,
  "weight": 864,
  "tx": [
    {
      "txid": "3da74d5f5230a86e351a0659c55ae77357010b8883a04a51f1092d74a1cbb6bb",
      "hash": "3da74d5f5230a86e351a0659c55ae77357010b8883a04a51f1092d74a1cbb6bb",
      "version": 1,
      "size": 135,
      "vsize": 135,
      "weight": 540,
      "locktime": 0,
      "vin": [
        {
          "coinbase": "04ffff001d020b02",
          "sequence": 4294967295
        }
      ],
      "vout": [
        {
          "value": 50.0,
          "n": 0,
          "scriptPubKey": {
            "asm": "04ac3f32e86cdc5565e982858a1ddb28e4aaa8f3421e7dc11cdfa3b8fa31262811559ac13e9d185c6e7f476447305aecea66b6efd97f2dbede724f83174f026cde OP_CHECKSIG",
            "desc": "pk(04ac3f32e86cdc5565e982858a1ddb28e4aaa8f3421e7dc11cdfa3b8fa31262811559ac13e9d185c6e7f476447305aecea66b6efd97f2dbede724f83174f026cde)#fr80jz2y",
            "hex": "4104ac3f32e86cdc5565e982858a1ddb28e4aaa8f3421e7dc11cdfa3b8fa31262811559ac13e9d185c6e7f476447305aecea66b6efd97f2dbede724f83174f026cdeac",
            "type": "pubkey"
          }
        }
      ],
      "hex": "01000000010000000000000000000000000000000000000000000000000000000000000000ffffffff0804ffff001d020b02ffffffff0100f2052a01000000434104ac3f32e86cdc5565e982858a1ddb28e4aaa8f3421e7dc11cdfa3b8fa31262811559ac13e9d185c6e7f476447305aecea66b6efd97f2dbede724f83174f026cdeac00000000"
    }
  ]
}