{
  "hash": "0000000087f4d4e4f161170d0b78e5ef6a9ec336b940ec6a14b2e1dfcdbbbb60",
  "confirmations": 44727,
  "height": 8371,
  "version": 1,
  "versionHex": "00000001",
  "merkleroot": "b57c610bf8738934d571ee4ff6fb743e16caccef3507d958577b330f60a87ba1",
  "time": 1237780095,
  "mediantime": 1237778447,
  "nonce": 37359059,
  "bits": "1d00ffff",
  "difficulty": 1,
  "chainwork": "000000000000000000000000000000000000000000000000000020b420b420b4",
  "nTx": 1,
  "previousblockhash": "00000000a23eb534ee04e5bc3ad1ad9118e83a50668830b5bd9f278e65a5898e",
  "nextblockhash": "000000003bef25ccaef6d6841f7a7f2e67817f212dca3e981dd0457c3c070fd3",
  "strippedsize": 215,
  "size": 215,
  "weight": 860,
  "tx": [
    {
      "txid": "b57c610bf8738934d571ee4ff6fb743e16caccef3507d958577b330f60a87ba1",
      "hash": "b57c610bf8738934d571ee4ff6fb743e16caccef3507d958577b330f60a87ba1",
      "version": 1,
      "size": 134,
      "vsize": 134,
      "weight": 536,
      "locktime": 0,
      "vin": [
        {
          "coinbase": "04ffff001d0139",
          "sequence": 4294967295
        }
      ],
      "vout": [
        {
          "value": 50.0,
          "n": 0,
          "scriptPubKey": {
            "asm": "04099514787e14ba1bb88438d4d3b32e7374606d82e5dcb7e7463d80a871e618a95d032c547e2f4a4118fb09c93a369a8139290d758eaed0d954ed14476dc13351 OP_CHECKSIG",
            "desc": "pk(04099514787e14ba1bb88438d4d3b32e7374606d82e5dcb7e7463d80a871e618a95d032c547e2f4a4118fb09c93a369a8139290d758eaed0d954ed14476dc13351)#52ayzuhr",
            "hex": "4104099514787e14ba1bb88438d4d3b32e7374606d82e5dcb7e7463d80a871e618a95d032c547e2f4a4118fb09c93a369a8139290d758eaed0d954ed14476dc13351ac",
            "type": "pubkey"
          }
        }
      ],
      "hex": "01000000010000000000000000000000000000000000000000000000000000000000000000ffffffff0704ffff001d0139ffffffff0100f2052a01000000434104099514787e14ba1bb88438d4d3b32e7374606d82e5dcb7e7463d80a871e618a95d032c547e2f4a4118fb09c93a369a8139290d758eaed0d954ed14476dc13351ac00000000"
    }
  ]
}