{
  "hash": "00000000d1987901437fa51afb63827b9cfa621d5ff57abe736750ea74556af0",
  "confirmations": 44548,
  "height": 8550,
  "version": 1,
  "versionHex": "00000001",
  "merkleroot": "f9b7e7620c33a880d954b0d5e054bf08e6b800ca7fada5d37b52176ebf2f6016",
  "time": 1237911985,
  "mediantime": 1237908528,
  "nonce": 2368671746,
  "bits": "1d00ffff",
  "difficulty": 1,
  "chainwork": "0000000000000000000000000000000000000000000000000000216721672167",
  "nTx": 1,
  "previousblockhash": "0000000073c033b4861b754589d7843e31858bb5197ffa4c62f5c15446c3ac90",
  "nextblockhash": "00000000574f231f5c40a77f80dbc456a6a367d70cacc6c87b66a7a17f969584",
  "strippedsize": 216,
  "size": 216,
  "weight": 864,
  "tx": [
    {
      "txid": "f9b7e7620c33a880d954b0d5e054bf08e6b800ca7fada5d37b52176ebf2f6016",
      "hash": "f9b7e7620c33a880d954b0d5e054bf08e6b800ca7fada5d37b52176ebf2f6016",
      "version": 1,
      "size": 135,
      "vsize": 135,
      "weight": 540,
      "locktime": 0,
      "vin": [
        {
          "coinbase": "04ffff001d02be08",
          "sequence": 4294967295
        }
      ],
      "vout": [
        {
          "value": 50.0,
          "n": 0,
          "scriptPubKey": {
            "asm": "04450714ce3f22facc5066fc272bb3f26d7e745af96f1487c4d219a4e1f53ea8821592a680ebe09cc61b012c199d4b3c7a748a211d8124bf2092914c335ea238c7 OP_CHECKSIG",
            "desc": "pk(04450714ce3f22facc5066fc272bb3f26d7e745af96f1487c4d219a4e1f53ea8821592a680ebe09cc61b012c199d4b3c7a748a211d8124bf2092914c335ea238c7)#wcq7q9rl",
            "hex": "4104450714ce3f22facc5066fc272bb3f26d7e745af96f1487c4d219a4e1f53ea8821592a680ebe09cc61b012c199d4b3c7a748a211d8124bf2092914c335ea238c7ac",
            "type": "pubkey"
          }
        }
      ],
      "hex": "01000000010000000000000000000000000000000000000000000000000000000000000000ffffffff0804ffff001d02be08ffffffff0100f2052a01000000434104450714ce3f22facc5066fc272bb3f26d7e745af96f1487c4d219a4e1f53ea8821592a680ebe09cc61b012c199d4b3c7a748a211d8124bf2092914c335ea238c7ac00000000"
    }
  ]
}