{
  "hash": "00000000603dde813d493121c680778128448022453a8bd2df9babef2b2fa2c0",
  "confirmations": 46656,
  "height": 6442,
  "version": 1,
  "versionHex": "00000001",
  "merkleroot": "f2b8fbcbdc6cdd3bc1e134d9d27722461b7060ed5a526bb70817a5280681d522",
  "time": 1236287001,
  "mediantime": 1236284102,
  "nonce": 4117907201,
  "bits": "1d00ffff",
  "difficulty": 1,
  "chainwork": "0000000000000000000000000000000000000000000000000000192b192b192b",
  "nTx": 1,
  "previousblockhash": "000000002922e47fd435bbd6c36317332d561ae46094ce54523b89bbdaa746da",
  "nextblockhash": "00000000056f2cc01f0b67503e2eb48eb9c5e466c43f03ba376a7c7f88ce631d",
  "strippedsize": 216,
  "size": 216,
  "weight": 864,
  "tx": [
    {
      "txid": "f2b8fbcbdc6cdd3bc1e134d9d27722461b7060ed5a526bb70817a5280681d522",
      "hash": "f2b8fbcbdc6cdd3bc1e134d9d27722461b7060ed5a526bb70817a5280681d522",
      "version": 1,
      "size": 135,
      "vsize": 135,
      "weight": 540,
      "locktime": 0,
      "vin": [
        {
          "coinbase": "04ffff001d027a02",
          "sequence": 4294967295
        }
      ],
      "vout": [
        {
          "value": 50.0,
          "n": 0,
          "scriptPubKey": {
            "asm": "04d17254e37a1f80d2648c25e923b0800e4c9c3ee2fa42a0ab7c713fb4af2d4cabaf20d0be9e17cbf72dd08f79067fc45c58ee182227d1c64b691a58b77687c52b OP_CHECKSIG",
            "desc": "pk(04d17254e37a1f80d2648c25e923b0800e4c9c3ee2fa42a0ab7c713fb4af2d4cabaf20d0be9e17cbf72dd08f79067fc45c58ee182227d1c64b691a58b77687c52b)#zvskrxqf",
            "hex": "4104d17254e37a1f80d2648c25e923b0800e4c9c3ee2fa42a0ab7c713fb4af2d4cabaf20d0be9e17cbf72dd08f79067fc45c58ee182227d1c64b691a58b77687c52bac",
            "type": "pubkey"
          }
        }
      ],
      "hex": "01000000010000000000000000000000000000000000000000000000000000000000000000ffffffff0804ffff001d027a02ffffffff0100f2052a01000000434104d17254e37a1f80d2648c25e923b0800e4c9c3ee2fa42a0ab7c713fb4af2d4cabaf20d0be9e17cbf72dd08f79067fc45c58ee182227d1c64b691a58b77687c52bac00000000"
    }
  ]
}