{
  "hash": "0000000045c8a34e1ebcb1a568ba89786fa79106dfe99740651ec249bd6ba989",
  "confirmations": 52247,
  "height": 851,
  "version": 1,
  "versionHex": "00000001",
  "merkleroot": "609cb081fc3c8fba496507ac33948de3ce6f145a6477181fbf817f82c69bbfaa",
  "time": 1232230156,
  "mediantime": 1232225685,
  "nonce": 682697238,
  "bits": "1d00ffff",
  "difficulty": 1,
  "chainwork": "0000000000000000000000000000000000000000000000000000035403540354",
  "nTx": 1,
  "previousblockhash": "00000000923a992877f070d2c8fa5ae67e66f6edcd828b321caa75885136386b",
  "nextblockhash": "0000000002409962f89d663037584576946a5f685d2d5baf7afaea685532ec76",
  "strippedsize": 216,
  "size": 216,
  "weight": 864,
  "tx": [
    {
      "txid": "609cb081fc3c8fba496507ac33948de3ce6f145a6477181fbf817f82c69bbfaa",
      "hash": "609cb081fc3c8fba496507ac33948de3ce6f145a6477181fbf817f82c69bbfaa",
      "version": 1,
      "size": 135,
      "vsize": 135,
      "weight": 540,
      "locktime": 0,
      "vin": [
        {
          "coinbase": "04ffff001d027902",
          "sequence": 4294967295
        }
      ],
      "vout": [
        {
          "value": 50.0,
          "n": 0,
          "scriptPubKey": {
            "asm": "04276f574598c7b71827939579e196b18d965a4e4221de628f75e7ccdd3f9a76466dac10ba7d8ce803db4d7b878d3b30c5dd296bf719c0aaab0dab0bcb993283a0 OP_CHECKSIG",
            "desc": "pk(04276f574598c7b71827939579e196b18d965a4e4221de628f75e7ccdd3f9a76466dac10ba7d8ce803db4d7b878d3b30c5dd296bf719c0aaab0dab0bcb993283a0)#6t7lw5le",
            "hex": "4104276f574598c7b71827939579e196b18d965a4e4221de628f75e7ccdd3f9a76466dac10ba7d8ce803db4d7b878d3b30c5dd296bf719c0aaab0dab0bcb993283a0ac",
            "type": "pubkey"
          }
        }
      ],
      "hex": "01000000010000000000000000000000000000000000000000000000000000000000000000ffffffff0804ffff001d027902ffffffff0100f2052a01000000434104276f574598c7b71827939579e196b18d965a4e4221de628f75e7ccdd3f9a76466dac10ba7d8ce803db4d7b878d3b30c5dd296bf719c0aaab0dab0bcb993283a0ac00000000"
    }
  ]
}