{
  "hash": "0000000083122578d2348469ba5466ff6db3cb027ec56249909e36343a6c1a78",
  "confirmations": 44690,
  "height": 8408,
  "version": 1,
  "versionHex": "00000001",
  "merkleroot": "35d07926c86fa9dc8be162dc2f75bc5184ac7b121990f4bbd5acd15b2af1be19",
  "time": 1237804507,
  "mediantime": 1237800687,
  "nonce": 4059303471,
  "bits": "1d00ffff",
  "difficulty": 1,
  "chainwork": "000000000000000000000000000000000000000000000000000020d920d920d9",
  "nTx": 1,
  "previousblockhash": "000000009b6afc9f6bd55c20c5e15c30fb10b630a7da6205ab63e621d794f5ad",
  "nextblockhash": "000000005c9a30c6b6cf531e5fc316627199daa092bc41a75f0d67bd8cf5de49",
  "strippedsize": 216,
  "size": 216,
  "weight": 864,
  "tx": [
    {
      "txid": "35d07926c86fa9dc8be162dc2f75bc5184ac7b121990f4bbd5acd15b2af1be19",
      "hash": "35d07926c86fa9dc8be162dc2f75bc5184ac7b121990f4bbd5acd15b2af1be19",
      "version": 1,
      "size": 135,
      "vsize": 135,
      "weight": 540,
      "locktime": 0,
      "vin": [
        {
          "coinbase": "04ffff001d022806",
          "sequence": 4294967295
        }
      ],
      "vout": [
        {
          "value": 50.0,
          "n": 0,
          "scriptPubKey": {
            "asm": "0461ff936264ef5ca56ed1ba277bf0c4a47830e9c414414ad0ebd08f61032017ea357504bb30e725f42b4c0d95539fbc5d6fe631c446a7d06b9f8b8d715850c489 OP_CHECKSIG",
            "desc": "pk(0461ff936264ef5ca56ed1ba277bf0c4a47830e9c414414ad0ebd08f61032017ea357504bb30e725f42b4c0d95539fbc5d6fe631c446a7d06b9f8b8d715850c489)#e9j2haks",
            "hex": "410461ff936264ef5ca56ed1ba277bf0c4a47830e9c414414ad0ebd08f61032017ea357504bb30e725f42b4c0d95539fbc5d6fe631c446a7d06b9f8b8d715850c489ac",
            "type": "pubkey"
          }
        }
      ],
      "hex": "01000000010000000000000000000000000000000000000000000000000000000000000000ffffffff0804ffff001d022806ffffffff0100f2052a0100000043410461ff936264ef5ca56ed1ba277bf0c4a47830e9c414414ad0ebd08f61032017ea357504bb30e725f42b4c0d95539fbc5d6fe631c446a7d06b9f8b8d715850c489ac00000000"
    }
  ]
}