{
  "hash": "00000000ce5d3314ce99a2420f0ad9b045e47724c957bfd8feb0931d27a2bde7",
  "confirmations": 44963,
  "height": 8135,
  "version": 1,
  "versionHex": "00000001",
  "merkleroot": "94b17182887b49a6fd639a4368d70da1e27f20b42c54cf1ca312bf90a5f5b090",
  "time": 1237559507,
  "mediantime": 1237555020,
  "nonce": 3124636707,
  "bits": "1d00ffff",
  "difficulty": 1,
  "chainwork": "00000000000000000000000000000000000000000000000000001fc81fc81fc8",
  "nTx": 1,
  "previousblockhash": "000000005eb4163cb0063ab0d7e2ec003d3b2ce722b07a3f3583656aba28a2ab",
  "nextblockhash": "000000002033003e0ea2ebcab66f60ab701ee7fd06b5e2b707507d841bdd3fcc",
  "strippedsize": 216,
  "size": 216,
  "weight": 864,
  "tx": [
    {
      "txid": "94b17182887b49a6fd639a4368d70da1e27f20b42c54cf1ca312bf90a5f5b090",
      "hash": "94b17182887b49a6fd639a4368d70da1e27f20b42c54cf1ca312bf90a5f5b090",
      "version": 1,
      "size": 135,
      "vsize": 135,
      "weight": 540,
      "locktime": 0,
      "vin": [
        {
          "coinbase": "04ffff001d02ba01",
          "sequence": 4294967295
        }
      ],
      "vout": [
        {
          "value": 50.0,
          "n": 0,
          "scriptPubKey": {
            "asm": "043ffd79ad8cc5e7d53e2682b2f6b0f8c0363a8842f74f21ee555096ac7887b5421c8902638a453484a1f253e455521dcfeeec7a35b75743340476c3ab7f0f239e OP_CHECKSIG",
            "desc": "pk(043ffd79ad8cc5e7d53e2682b2f6b0f8c0363a8842f74f21ee555096ac7887b5421c8902638a453484a1f253e455521dcfeeec7a35b75743340476c3ab7f0f239e)#fzm37y8k",
            "hex": "41043ffd79ad8cc5e7d53e2682b2f6b0f8c0363a8842f74f21ee555096ac7887b5421c8902638a453484a1f253e455521dcfeeec7a35b75743340476c3ab7f0f239eac",
            "type": "pubkey"
          }
        }
      ],
      "hex": "01000000010000000000000000000000000000000000000000000000000000000000000000ffffffff0804ffff001d02ba01ffffffff0100f2052a010000004341043ffd79ad8cc5e7d53e2682b2f6b0f8c0363a8842f74f21ee555096ac7887b5421c8902638a453484a1f253e455521dcfeeec7a35b75743340476c3ab7f0f239eac00000000"
    }
  ]
}