{
  "hash": "00000000b6cb8a4e0e8059b3b6a089002c4aea360b5bc885e124cbbba91c09f4",
  "confirmations": 49913,
  "height": 3185,
  "version": 1,
  "versionHex": "00000001",
  "merkleroot": "1a30a9ed2f79c7815c4a549acbd58cf32a4b088ae08638362c83a8647fe1d597",
  "time": 1233890082,
  "mediantime": 1233886267,
  "nonce": 2806800155,
  "bits": "1d00ffff",
  "difficulty": 1,
  "chainwork": "00000000000000000000000000000000000000000000000000000c720c720c72",
  "nTx": 1,
  "previousblockhash": "0000000044265b9727ada3e7621b975576a4c1ba6905aa92470b275b56afe48f",
  "nextblockhash": "00000000874a9b7e9ba19a983c84d92c5896b6d9a4edce07421422c8e0044895",
  "strippedsize": 216,
  "size": 216,
  "weight": 864,
  "tx": [
    {
      "txid": "1a30a9ed2f79c7815c4a549acbd58cf32a4b088ae08638362c83a8647fe1d597",
      "hash": "1a30a9ed2f79c7815c4a549acbd58cf32a4b088ae08638362c83a8647fe1d597",
      "version": 1,
      "size": 135,
      "vsize": 135,
      "weight": 540,
      "locktime": 0,
      "vin": [
        {
          "coinbase": "04ffff001d027502",
          "sequence": 4294967295
        }
      ],
      "vout": [
        {
          "value": 50.0,
          "n": 0,
          "scriptPubKey": {
            "asm": "0451bcc2bdbb834c4961a4b16558ec5f3b646aeb1388cfc89a8248f748f552a773ae4b2fda1f4a68e27a22c3de6d68d2d37e12ab9840a2464439bc411d8220eda1 OP_CHECKSIG",
            "desc": "pk(0451bcc2bdbb834c4961a4b16558ec5f3b646aeb1388cfc89a8248f748f552a773ae4b2fda1f4a68e27a22c3de6d68d2d37e12ab9840a2464439bc411d8220eda1)#zpp5h8ly",
            "hex": "410451bcc2bdbb834c4961a4b16558ec5f3b646aeb1388cfc89a8248f748f552a773ae4b2fda1f4a68e27a22c3de6d68d2d37e12ab9840a2464439bc411d8220eda1ac",
            "type": "pubkey"
          }
        }
      ],
      "hex": "01000000010000000000000000000000000000000000000000000000000000000000000000ffffffff0804ffff001d027502ffffffff0100f2052a0100000043410451bcc2bdbb834c4961a4b16558ec5f3b646aeb1388cfc89a8248f748f552a773ae4b2fda1f4a68e27a22c3de6d68d2d37e12ab9840a2464439bc411d8220eda1ac00000000"
    }
  ]
}