{
  "hash": "00000000c333caad0a5e19edab4cfb8517af86248d1658f23553c87971d86038",
  "confirmations": 50306,
  "height": 2792,
  "version": 1,
  "versionHex": "00000001",
  "merkleroot": "1891c4d21d010dea39c3d26d56b268c1c4cdac12b8812052fb42d193657127d5",
  "time": 1233624139,
  "mediantime": 1233620939,
  "nonce": 1789584939,
  "bits": "1d00ffff",
  "difficulty": 1,
  "chainwork": "00000000000000000000000000000000000000000000000000000ae90ae90ae9",
  "nTx": 1,
  "previousblockhash": "00000000323adbc5d0bb84492f56f1096dbd22eedb7a8cb535fd8ad69b3ecfa0",
  "nextblockhash": "00000000fade95f148d84e52cdd2848facf7e54c69f92b2f9ec59d6830896687",
  "strippedsize": 216,
  "size": 216,
  "weight": 864,
  "tx": [
    {
      "txid": "1891c4d21d010dea39c3d26d56b268c1c4cdac12b8812052fb42d193657127d5",
      "hash": "1891c4d21d010dea39c3d26d56b268c1c4cdac12b8812052fb42d193657127d5",
      "version": 1,
      "size": 135,
      "vsize": 135,
      "weight": 540,
      "locktime": 0,
      "vin": [
        {
          "coinbase": "04ffff001d021306",
          "sequence": 4294967295
        }
      ],
      "vout": [
        {
          "value": 50.0,
          "n": 0,
          "scriptPubKey": {
            "asm": "049e3de9bf788f3e83ac86cdc4f64fb593f1831e569148e069f29fb42988355469cd48ee0402c355cf3d04cb3d3a7fde4be6d7a4e286c38eeaa6f2f4e69a6b0d08 OP_CHECKSIG",
            "desc": "pk(049e3de9bf788f3e83ac86cdc4f64fb593f1831e569148e069f29fb42988355469cd48ee0402c355cf3d04cb3d3a7fde4be6d7a4e286c38eeaa6f2f4e69a6b0d08)#4n9nkxqn",
            "hex": "41049e3de9bf788f3e83ac86cdc4f64fb593f1831e569148e069f29fb42988355469cd48ee0402c355cf3d04cb3d3a7fde4be6d7a4e286c38eeaa6f2f4e69a6b0d08ac",
            "type": "pubkey"
          }
        }
      ],
      "hex": "01000000010000000000000000000000000000000000000000000000000000000000000000ffffffff0804ffff001d021306ffffffff0100f2052a010000004341049e3de9bf788f3e83ac86cdc4f64fb593f1831e569148e069f29fb42988355469cd48ee0402c355cf3d04cb3d3a7fde4be6d7a4e286c38eeaa6f2f4e69a6b0d08ac00000000"
    }
  ]
}