{
  "hash": "000000001f193ff0460a64cd339f7c00e076dcfecffe434a55892540b3ab2b17",
  "confirmations": 43184,
  "height": 9914,
  "version": 1,
  "versionHex": "00000001",
  "merkleroot": "cb21a8ff039edf793e95774cb6bb04c4c2ed66a1d1e9cfdcf8462e16aa5ffac5",
  "time": 1238931652,
  "mediantime": 1238928541,
  "nonce": 2536398635,
  "bits": "1d00ffff",
  "difficulty": 1,
  "chainwork": "000000000000000000000000000000000000000000000000000026bb26bb26bb",
  "nTx": 1,
  "previousblockhash": "000000005bfebf4e532df90474212998115744a178075b3840a2e081f91a6a4b",
  "nextblockhash": "000000005f88f80bbecf493713debc4a0dedc7ad6391f77ca9dc8ea45304674c",
  "strippedsize": 216,
  "size": 216,
  "weight": 864,
  "tx": [
    {
      "txid": "cb21a8ff039edf793e95774cb6bb04c4c2ed66a1d1e9cfdcf8462e16aa5ffac5",
      "hash": "cb21a8ff039edf793e95774cb6bb04c4c2ed66a1d1e9cfdcf8462e16aa5ffac5",
      "version": 1,
      "size": 135,
      "vsize": 135,
      "weight": 540,
      "locktime": 0,
      "vin": [
        {
          "coinbase": "04ffff001d024a02",
          "sequence": 4294967295
        }
      ],
      "vout": [
        {
          "value": 50.0,
          "n": 0,
          "scriptPubKey": {
            "asm": "043af3526365de3d7faf58c0d802f2757c5b27bfcb41b3ca055f4417fde1254d9b7973feb5fd2bea62d98b6ba76fe8ab68755e6483e476ed6650dcf5124e408054 OP_CHECKSIG",
            "desc": "pk(043af3526365de3d7faf58c0d802f2757c5b27bfcb41b3ca055f4417fde1254d9b7973feb5fd2bea62d98b6ba76fe8ab68755e6483e476ed6650dcf5124e408054)#ra8clt47",
            "hex": "41043af3526365de3d7faf58c0d802f2757c5b27bfcb41b3ca055f4417fde1254d9b7973feb5fd2bea62d98b6ba76fe8ab68755e6483e476ed6650dcf5124e408054ac",
            "type": "pubkey"
          }
        }
      ],
      "hex": "01000000010000000000000000000000000000000000000000000000000000000000000000ffffffff0804ffff001d024a02ffffffff0100f2052a010000004341043af3526365de3d7faf58c0d802f2757c5b27bfcb41b3ca055f4417fde1254d9b7973feb5fd2bea62d98b6ba76fe8ab68755e6483e476ed6650dcf5124e408054ac00000000"
    }
  ]
}