{
  "hash": "00000000be4d15eecaf3c7317c2e9858b2f432cfe679c6404543ec64a5ed4760",
  "confirmations": 44490,
  "height": 8608,
  "version": 1,
  "versionHex": "00000001",
  "merkleroot": "cb0cc86e854ead8255632a19b97a4226841f5c203fd3a8c26ba216fb8a7de089",
  "time": 1237955637,
  "mediantime": 1237952941,
  "nonce": 4242049050,
  "bits": "1d00ffff",
  "difficulty": 1,
  "chainwork": "000000000000000000000000000000000000000000000000000021a121a121a1",
  "nTx": 1,
  "previousblockhash": "00000000b3732246d1584953e73cb0f8f5134191f475aa02ab07ac3bf755126d",
  "nextblockhash": "0000000020bb707c700651de0154778daa43d211c910fa0553aa9dc360c3f513",
  "strippedsize": 216,
  "size": 216,
  "weight": 864,
  "tx": [
    {
      "txid": "cb0cc86e854ead8255632a19b97a4226841f5c203fd3a8c26ba216fb8a7de089",
      "hash": "cb0cc86e854ead8255632a19b97a4226841f5c203fd3a8c26ba216fb8a7de089",
      "version": 1,
      "size": 135,
      "vsize": 135,
      "weight": 540,
      "locktime": 0,
      "vin": [
        {
          "coinbase": "04ffff001d029e09",
          "sequence": 4294967295
        }
      ],
      "vout": [
        {
          "value": 50.0,
          "n": 0,
          "scriptPubKey": {
            "asm": "04a13779dabbb76a7f0b1a335547f8dedc11ed4e2d9ce3ee9a0f4169204a2026861538c44f3e203f0dad8507739b72741f68f74f35c2ab8ca1c450a997c67c62bf OP_CHECKSIG",
            "desc": "pk(04a13779dabbb76a7f0b1a335547f8dedc11ed4e2d9ce3ee9a0f4169204a2026861538c44f3e203f0dad8507739b72741f68f74f35c2ab8ca1c450a997c67c62bf)#3ne8t87e",
            "hex": "4104a13779dabbb76a7f0b1a335547f8dedc11ed4e2d9ce3ee9a0f4169204a2026861538c44f3e203f0dad8507739b72741f68f74f35c2ab8ca1c450a997c67c62bfac",
            "type": "pubkey"
          }
        }
      ],
      "hex": "01000000010000000000000000000000000000000000000000000000000000000000000000ffffffff0804ffff001d029e09ffffffff0100f2052a01000000434104a13779dabbb76a7f0b1a335547f8dedc11ed4e2d9ce3ee9a0f4169204a2026861538c44f3e203f0dad8507739b72741f68f74f35c2ab8ca1c450a997c67c62bfac00000000"
    }
  ]
}