{
  "hash": "00000000aeb12f1156bd7d568d39a9db82f70e093aeec472cff510af553b7c7c",
  "confirmations": 51692,
  "height": 1406,
  "version": 1,
  "versionHex": "00000001",
  "merkleroot": "e93c14498a71aedf009abe8d13a931ea0511a647bf54238fda95315a2e2ce850",
  "time": 1232728810,
  "mediantime": 1232726498,
  "nonce": 994086171,
  "bits": "1d00ffff",
  "difficulty": 1,
  "chainwork": "0000000000000000000000000000000000000000000000000000057f057f057f",
  "nTx": 1,
  "previousblockhash": "000000004472faa5e8894259c36dd1b07032e2f5f91fc0567a73cfe7c5337909",
  "nextblockhash": "000000002f62790a7d68267a5175c6a6a32a34e13c3b8491002e40f95bd03539",
  "strippedsize": 215,
  "size": 215,
  "weight": 860,
  "tx": [
    {
      "txid": "e93c14498a71aedf009abe8d13a931ea0511a647bf54238fda95315a2e2ce850",
      "hash": "e93c14498a71aedf009abe8d13a931ea0511a647bf54238fda95315a2e2ce850",
      "version": 1,
      "size": 134,
      "vsize": 134,
      "weight": 536,
      "locktime": 0,
      "vin": [
        {
          "coinbase": "04ffff001d011e",
          "sequence": 4294967295
        }
      ],
      "vout": [
        {
          "value": 50.0,
          "n": 0,
          "scriptPubKey": {
            "asm": "04ed7f5bf5d7ac4eb32b758f320bf393a88e8e51105ce25fca146c5b2f5710201f771643f58f59d91185c58c23d111384eb7b6664ea6378113b0104b84f4cceb29 OP_CHECKSIG",
            "desc": "pk(04ed7f5bf5d7ac4eb32b758f320bf393a88e8e51105ce25fca146c5b2f5710201f771643f58f59d91185c58c23d111384eb7b6664ea6378113b0104b84f4cceb29)#z98vel4x",
            "hex": "4104ed7f5bf5d7ac4eb32b758f320bf393a88e8e51105ce25fca146c5b2f5710201f771643f58f59d91185c58c23d111384eb7b6664ea6378113b0104b84f4cceb29ac",
            "type": "pubkey"
          }
        }
      ],
      "hex": "01000000010000000000000000000000000000000000000000000000000000000000000000ffffffff0704ffff001d011effffffff0100f2052a01000000434104ed7f5bf5d7ac4eb32b758f320bf393a88e8e51105ce25fca146c5b2f5710201f771643f58f59d91185c58c23d111384eb7b6664ea6378113b0104b84f4cceb29ac00000000"
    }
  ]
}