{
  "hash": "0000000059e7320a82d07619edbb80111446a14afe835c62674875d9442dbbbc",
  "confirmations": 46444,
  "height": 6654,
  "version": 1,
  "versionHex": "00000001",
  "merkleroot": "181982f993ae17b84ddbe0bdc10d3b671a06d9b5e09fb208b60932de0a30d4b8",
  "time": 1236448351,
  "mediantime": 1236444467,
  "nonce": 2985583930,
  "bits": "1d00ffff",
  "difficulty": 1,
  "chainwork": "000000000000000000000000000000000000000000000000000019ff19ff19ff",
  "nTx": 1,
  "previousblockhash": "000000003367ecf7ced02b79a4195b68d1c5ba932bb2d820bb205660c617baef",
  "nextblockhash": "0000000079789b316275f77063322d08b49a123eb48df39e3c2c9b56eff7e942",
  "strippedsize": 216,
  "size": 216,
  "weight": 864,
  "tx": [
    {
      "txid": "181982f993ae17b84ddbe0bdc10d3b671a06d9b5e09fb208b60932de0a30d4b8",
      "hash": "181982f993ae17b84ddbe0bdc10d3b671a06d9b5e09fb208b60932de0a30d4b8",
      "version": 1,
      "size": 135,
      "vsize": 135,
      "weight": 540,
      "locktime": 0,
      "vin": [
        {
          "coinbase": "04ffff001d022906",
          "sequence": 4294967295
        }
      ],
      "vout": [
        {
          "value": 50.0,
          "n": 0,
          "scriptPubKey": {
            "asm": "04a9d991784c3c77470120443b4d878555986ff163aba85878f8c7d8c00e716f471ceff7245d41d1b4cb221b1ee38f2c7c9fd46a5e3014c0f068f1b6cc69c24c1a OP_CHECKSIG",
            "desc": "pk(04a9d991784c3c77470120443b4d878555986ff163aba85878f8c7d8c00e716f471ceff7245d41d1b4cb221b1ee38f2c7c9fd46a5e3014c0f068f1b6cc69c24c1a)#0lylwcfk",
            "hex": "4104a9d991784c3c77470120443b4d878555986ff163aba85878f8c7d8c00e716f471ceff7245d41d1b4cb221b1ee38f2c7c9fd46a5e3014c0f068f1b6cc69c24c1aac",
            "type": "pubkey"
          }
        }
      ],
      "hex": "01000000010000000000000000000000000000000000000000000000000000000000000000ffffffff0804ffff001d022906ffffffff0100f2052a01000000434104a9d991784c3c77470120443b4d878555986ff163aba85878f8c7d8c00e716f471ceff7245d41d1b4cb221b1ee38f2c7c9fd46a5e3014c0f068f1b6cc69c24c1aac00000000"
    }
  ]
}