{
  "hash": "00000000244e9eed41e1fbe83ade0336808571c9df875998ed2529568e57f57d",
  "confirmations": 43103,
  "height": 9995,
  "version": 1,
  "versionHex": "00000001",
  "merkleroot": "26e2d6dbec9a9d73a9580904b396faf16d2ed8f2e0169874e93fc066c1097a80",
  "time": 1238985062,
  "mediantime": 1238982027,
  "nonce": 37411660,
  "bits": "1d00ffff",
  "difficulty": 1,
  "chainwork": "0000000000000000000000000000000000000000000000000000270c270c270c",
  "nTx": 1,
  "previousblockhash": "0000000000360b078b37111a567b25ad2fa96905140604870d61a3e7aab18f4e",
  "nextblockhash": "00000000b828d5261f040827d682721f6f54fe21f1b263745968d31cc1e10837",
  "strippedsize": 216,
  "size": 216,
  "weight": 864,
  "tx": [
    {
      "txid": "26e2d6dbec9a9d73a9580904b396faf16d2ed8f2e0169874e93fc066c1097a80",
      "hash": "26e2d6dbec9a9d73a9580904b396faf16d2ed8f2e0169874e93fc066c1097a80",
      "version": 1,
      "size": 135,
      "vsize": 135,
      "weight": 540,
      "locktime": 0,
      "vin": [
        {
          "coinbase": "04ffff001d02c411",
          "sequence": 4294967295
        }
      ],
      "vout": [
        {
          "value": 50.0,
          "n": 0,
          "scriptPubKey": {
            "asm": "0444fe0420b0718506239afe1a2a211fa2099464e6891dc93330d230199e322fb7f1169ffb46c5af27e99d89601939e0c5134fd4b1aee531b518e2042a223cba07 OP_CHECKSIG",
            "desc": "pk(0444fe0420b0718506239afe1a2a211fa2099464e6891dc93330d230199e322fb7f1169ffb46c5af27e99d89601939e0c5134fd4b1aee531b518e2042a223cba07)#cpze4vqf",
            "hex": "410444fe0420b0718506239afe1a2a211fa2099464e6891dc93330d230199e322fb7f1169ffb46c5af27e99d89601939e0c5134fd4b1aee531b518e2042a223cba07ac",
            "type": "pubkey"
          }
        }
      ],
      "hex": "01000000010000000000000000000000000000000000000000000000000000000000000000ffffffff0804ffff001d02c411ffffffff0100f2052a0100000043410444fe0420b0718506239afe1a2a211fa2099464e6891dc93330d230199e322fb7f1169ffb46c5af27e99d89601939e0c5134fd4b1aee531b518e2042a223cba07ac00000000"
    }
  ]
}