{
  "hash": "000000007509929eb2a348285246eeacdb28c98446f7760b6c2b2a9e98015c05",
  "confirmations": 43272,
  "height": 9826,
  "version": 1,
  "versionHex": "00000001",
  "merkleroot": "a0f53bfb84633ca604fbc61e60eb01a32082981bf41e26ed0b8be6f5933dfda4",
  "time": 1238874379,
  "mediantime": 1238870123,
  "nonce": 1432320295,
  "bits": "1d00ffff",
  "difficulty": 1,
  "chainwork": "0000000000000000000000000000000000000000000000000000266326632663",
  "nTx": 1,
  "previousblockhash": "0000000002f84ce99315f07cc0693fef6caa5720e5f39f7b08199b3fe2fff795",
  "nextblockhash": "0000000003eb7f288ba713e86a91e40fc34825240b8e353d6083b8dcc4d353e5",
  "strippedsize": 216,
  "size": 216,
  "weight": 864,
  "tx": [
    {
      "txid": "a0f53bfb84633ca604fbc61e60eb01a32082981bf41e26ed0b8be6f5933dfda4",
      "hash": "a0f53bfb84633ca604fbc61e60eb01a32082981bf41e26ed0b8be6f5933dfda4",
      "version": 1,
      "size": 135,
      "vsize": 135,
      "weight": 540,
      "locktime": 0,
      "vin": [
        {
          "coinbase": "04ffff001d02d200",
          "sequence": 4294967295
        }
      ],
      "vout": [
        {
          "value": 50.0,
          "n": 0,
          "scriptPubKey": {
            "asm": "04c6305edf88f59d521d828117c75c5f209545bb3503ad4dc5da115063cd96ba635a8bf924fe2905385139140ac3062c08933fc6605dd5ad55aff7aab1f76d070c OP_CHECKSIG",
            "desc": "pk(04c6305edf88f59d521d828117c75c5f209545bb3503ad4dc5da115063cd96ba635a8bf924fe2905385139140ac3062c08933fc6605dd5ad55aff7aab1f76d070c)#dz4zvwdm",
            "hex": "4104c6305edf88f59d521d828117c75c5f209545bb3503ad4dc5da115063cd96ba635a8bf924fe2905385139140ac3062c08933fc6605dd5ad55aff7aab1f76d070cac",
            "type": "pubkey"
          }
        }
      ],
      "hex": "01000000010000000000000000000000000000000000000000000000000000000000000000ffffffff0804ffff001d02d200ffffffff0100f2052a01000000434104c6305edf88f59d521d828117c75c5f209545bb3503ad4dc5da115063cd96ba635a8bf924fe2905385139140ac3062c08933fc6605dd5ad55aff7aab1f76d070cac00000000"
    }
  ]
}