{
  "hash": "0000000082c0abb2875dc690a243dce6cbc856647b6422abbe82f97a3a7b127a",
  "confirmations": 51914,
  "height": 72,
  "version": 1,
  "versionHex": "00000001",
  "merkleroot": "dea3224cc1333edf41b3b97913d8b2a6402bddf6132f2137e003b535369f9ae1",
  "time": 1231629194,
  "mediantime": 1231626072,
  "nonce": 3714618120,
  "bits": "1d00ffff",
  "difficulty": 1,
  "chainwork": "0000000000000000000000000000000000000000000000000000004900490049",
  "nTx": 1,
  "previousblockhash": "000000007f7cbc93a93141bb69eb7fbfad9c4682cc328da097dbcb2b77bd1457",
  "nextblockhash": "000000008ec9525cb2092c6bd7d1c2580e595bcfa54bac51cf6f0278b242f25d",
  "strippedsize": 216,
  "size": 216,
  "weight": 864,
  "tx": [
    {
      "txid": "dea3224cc1333edf41b3b97913d8b2a6402bddf6132f2137e003b535369f9ae1",
      "hash": "dea3224cc1333edf41b3b97913d8b2a6402bddf6132f2137e003b535369f9ae1",
      "version": 1,
      "size": 135,
      "vsize": 135,
      "weight": 540,
      "locktime": 0,
      "vin": [
        {
          "coinbase": "04ffff001d02c700",
          "sequence": 4294967295
        }
      ],
      "vout": [
        {
          "value": 50.0,
          "n": 0,
          "scriptPubKey": {
            "asm": "04d2b452aa16024f4eb306bfc304e7f1ff5a01c2f4953859ea6608a7ad5a7c3e5b238bc6310d3816f7b8851e06a3c218911a16c3eedf7d1db982b06dba8c399a34 OP_CHECKSIG",
            "desc": "pk(04d2b452aa16024f4eb306bfc304e7f1ff5a01c2f4953859ea6608a7ad5a7c3e5b238bc6310d3816f7b8851e06a3c218911a16c3eedf7d1db982b06dba8c399a34)#ctt9n70a",
            "hex": "4104d2b452aa16024f4eb306bfc304e7f1ff5a01c2f4953859ea6608a7ad5a7c3e5b238bc6310d3816f7b8851e06a3c218911a16c3eedf7d1db982b06dba8c399a34ac",
            "type": "pubkey"
          }
        }
      ],
      "hex": "01000000010000000000000000000000000000000000000000000000000000000000000000ffffffff0804ffff001d02c700ffffffff0100f2052a01000000434104d2b452aa16024f4eb306bfc304e7f1ff5a01c2f4953859ea6608a7ad5a7c3e5b238bc6310d3816f7b8851e06a3c218911a16c3eedf7d1db982b06dba8c399a34ac00000000"
    }
  ]
}