{
  "hash": "0000000089e399d12c0104c1601b84166a7b2ecf163a3d1f7e6372d0d6265d5e",
  "confirmations": 48609,
  "height": 4489,
  "version": 1,
  "versionHex": "00000001",
  "merkleroot": "0159abbaa162235e04f9ba33ff13c1599ba3e2a5c9aa90cd080d62b2dbc8d692",
  "time": 1234772214,
  "mediantime": 1234768775,
  "nonce": 732713257,
  "bits": "1d00ffff",
  "difficulty": 1,
  "chainwork": "0000000000000000000000000000000000000000000000000000118a118a118a",
  "nTx": 1,
  "previousblockhash": "000000005ced5b0d6721ad74e4a08bc1b5a04c6005f155058db682f379c5d9c9",
  "nextblockhash": "000000002d3ce54305428084e74de3ba4f0d39b0561df8f3b3d3276411dbd1be",
  "strippedsize": 216,
  "size": 216,
  "weight": 864,
  "tx": [
    {
      "txid": "0159abbaa162235e04f9ba33ff13c1599ba3e2a5c9aa90cd080d62b2dbc8d692",
      "hash": "0159abbaa162235e04f9ba33ff13c1599ba3e2a5c9aa90cd080d62b2dbc8d692",
      "version": 1,
      "size": 135,
      "vsize": 135,
      "weight": 540,
      "locktime": 0,
      "vin": [
        {
          "coinbase": "04ffff001d02af02",
          "sequence": 4294967295
        }
      ],
      "vout": [
        {
          "value": 50.0,
          "n": 0,
          "scriptPubKey": {
            "asm": "04fbbb70366bbdc63271849728a37fd4a548420f9ef9dd6c301be56bd4693f24c7718be55cb19cded0d57487b522be73ff5b5c3e0c1513a6986512c969dc403b0b OP_CHECKSIG",
            "desc": "pk(04fbbb70366bbdc63271849728a37fd4a548420f9ef9dd6c301be56bd4693f24c7718be55cb19cded0d57487b522be73ff5b5c3e0c1513a6986512c969dc403b0b)#v8lczx3y",
            "hex": "4104fbbb70366bbdc63271849728a37fd4a548420f9ef9dd6c301be56bd4693f24c7718be55cb19cded0d57487b522be73ff5b5c3e0c1513a6986512c969dc403b0bac",
            "type": "pubkey"
          }
        }
      ],
      "hex": "01000000010000000000000000000000000000000000000000000000000000000000000000ffffffff0804ffff001d02af02ffffffff0100f2052a01000000434104fbbb70366bbdc63271849728a37fd4a548420f9ef9dd6c301be56bd4693f24c7718be55cb19cded0d57487b522be73ff5b5c3e0c1513a6986512c969dc403b0bac00000000"
    }
  ]
}