{
  "hash": "00000000e77d0285d63710f82deb70ec76e49fde5ffda000071d1c00ec112638",
  "confirmations": 47287,
  "height": 5811,
  "version": 1,
  "versionHex": "00000001",
  "merkleroot": "cd6d7c4cad057080b42dfe1ff3065f9f80037489c94cbc9187b855a88245e77e",
  "time": 1235767819,
  "mediantime": 1235763151,
  "nonce": 4197641474,
  "bits": "1d00ffff",
  "difficulty": 1,
  "chainwork": "000000000000000000000000000000000000000000000000000016b416b416b4",
  "nTx": 1,
  "previousblockhash": "000000002b2a480b297c264ed72b6bdd5a50d6e2d767dbed63aac4aae29f4503",
  "nextblockhash": "000000003c0600d80391cf020c05a733bf097f4282b1e6831648bab40c159f38",
  "strippedsize": 216,
  "size": 216,
  "weight": 864,
  "tx": [
    {
      "txid": "cd6d7c4cad057080b42dfe1ff3065f9f80037489c94cbc9187b855a88245e77e",
      "hash": "cd6d7c4cad057080b42dfe1ff3065f9f80037489c94cbc9187b855a88245e77e",
      "version": 1,
      "size": 135,
      "vsize": 135,
      "weight": 540,
      "locktime": 0,
      "vin": [
        {
          "coinbase": "04ffff001d02eb00",
          "sequence": 4294967295
        }
      ],
      "vout": [
        {
          "value": 50.0,
          "n": 0,
          "scriptPubKey": {
            "asm": "0499f311e5ca6eafac7f703c8ea74fdbf744d22ddca7ae55b13389acc9b0e2d1b2114f29149700afcdd22990f49ccb26619db3141aab1145c4c81c4b26580d0cfc OP_CHECKSIG",
            "desc": "pk(0499f311e5ca6eafac7f703c8ea74fdbf744d22ddca7ae55b13389acc9b0e2d1b2114f29149700afcdd22990f49ccb26619db3141aab1145c4c81c4b26580d0cfc)#lerppscy",
            "hex": "410499f311e5ca6eafac7f703c8ea74fdbf744d22ddca7ae55b13389acc9b0e2d1b2114f29149700afcdd22990f49ccb26619db3141aab1145c4c81c4b26580d0cfcac",
            "type": "pubkey"
          }
        }
      ],
      "hex": "01000000010000000000000000000000000000000000000000000000000000000000000000ffffffff0804ffff001d02eb00ffffffff0100f2052a0100000043410499f311e5ca6eafac7f703c8ea74fdbf744d22ddca7ae55b13389acc9b0e2d1b2114f29149700afcdd22990f49ccb26619db3141aab1145c4c81c4b26580d0cfcac00000000"
    }
  ]
}