{
  "hash": "00000000fd01351b7f07599e682c570bcf3f369249084e43a2603da1e6aefe77",
  "confirmations": 51319,
  "height": 1779,
  "version": 1,
  "versionHex": "00000001",
  "merkleroot": "4c8a1abd463899b9b58c34bf5ca7f08f00a9e41a3b981135fc0a05f9841d8dec",
  "time": 1232887868,
  "mediantime": 1232885293,
  "nonce": 3636280373,
  "bits": "1d00ffff",
  "difficulty": 1,
  "chainwork": "000000000000000000000000000000000000000000000000000006f406f406f4",
  "nTx": 1,
  "previousblockhash": "00000000317b4bb991241794ad06039987459a82d7ca05b2da9282e93b475f3b",
  "nextblockhash": "00000000ab798ba558d898672adf688356cd75fde67f5a02342b196ba915fcc3",
  "strippedsize": 216,
  "size": 216,
  "weight": 864,
  "tx": [
    {
      "txid": "4c8a1abd463899b9b58c34bf5ca7f08f00a9e41a3b981135fc0a05f9841d8dec",
      "hash": "4c8a1abd463899b9b58c34bf5ca7f08f00a9e41a3b981135fc0a05f9841d8dec",
      "version": 1,
      "size": 135,
      "vsize": 135,
      "weight": 540,
      "locktime": 0,
      "vin": [
        {
          "coinbase": "04ffff001d02e403",
          "sequence": 4294967295
        }
      ],
      "vout": [
        {
          "value": 50.0,
          "n": 0,
          "scriptPubKey": {
            "asm": "04880cf42c22d2d14de62b0af10a17e0abf7ab9362993880769d1204453ff8281b79cd808c32132d6151d33d5bf15a184a8551c3afcb15af5021442dc1cff15a0b OP_CHECKSIG",
            "desc": "pk(04880cf42c22d2d14de62b0af10a17e0abf7ab9362993880769d1204453ff8281b79cd808c32132d6151d33d5bf15a184a8551c3afcb15af5021442dc1cff15a0b)#fvkwnhd3",
            "hex": "4104880cf42c22d2d14de62b0af10a17e0abf7ab9362993880769d1204453ff8281b79cd808c32132d6151d33d5bf15a184a8551c3afcb15af5021442dc1cff15a0bac",
            "type": "pubkey"
          }
        }
      ],
      "hex": "01000000010000000000000000000000000000000000000000000000000000000000000000ffffffff0804ffff001d02e403ffffffff0100f2052a01000000434104880cf42c22d2d14de62b0af10a17e0abf7ab9362993880769d1204453ff8281b79cd808c32132d6151d33d5bf15a184a8551c3afcb15af5021442dc1cff15a0bac00000000"
    }
  ]
}