{
  "hash": "0000000084c854eb834d7b51d570cf00b6c5d95c5bdd031fb9649d60be10357f",
  "confirmations": 44093,
  "height": 9005,
  "version": 1,
  "versionHex": "00000001",
  "merkleroot": "7159b97894ae8efe135943e5e63e198fbe167d5ef63e82e9a379c9339fecc77c",
  "time": 1238255644,
  "mediantime": 1238252710,
  "nonce": 3155907353,
  "bits": "1d00ffff",
  "difficulty": 1,
  "chainwork": "0000000000000000000000000000000000000000000000000000232e232e232e",
  "nTx": 1,
  "previousblockhash": "00000000afaa28d7a8633e32946906d78cfcdfeb06cbec5826c12f688aa23b9a",
  "nextblockhash": "00000000d62541570fc319e4496fec3961a06be293cf2f504f57ec7b9466f07a",
  "strippedsize": 216,
  "size": 216,
  "weight": 864,
  "tx": [
    {
      "txid": "7159b97894ae8efe135943e5e63e198fbe167d5ef63e82e9a379c9339fecc77c",
      "hash": "7159b97894ae8efe135943e5e63e198fbe167d5ef63e82e9a379c9339fecc77c",
      "version": 1,
      "size": 135,
      "vsize": 135,
      "weight": 540,
      "locktime": 0,
      "vin": [
        {
          "coinbase": "04ffff001d027606",
          "sequence": 4294967295
        }
      ],
      "vout": [
        {
          "value": 50.0,
          "n": 0,
          "scriptPubKey": {
            "asm": "04bff8529f97613d58a090a913c48f750f645f90edc106076e2703b55f42f3b6abdc3cc3ecba654f732f8a2ec93d7ccd6283ef027d2366518375880062d8b44d0c OP_CHECKSIG",
            "desc": "pk(04bff8529f97613d58a090a913c48f750f645f90edc106076e2703b55f42f3b6abdc3cc3ecba654f732f8a2ec93d7ccd6283ef027d2366518375880062d8b44d0c)#zl68pven",
            "hex": "4104bff8529f97613d58a090a913c48f750f645f90edc106076e2703b55f42f3b6abdc3cc3ecba654f732f8a2ec93d7ccd6283ef027d2366518375880062d8b44d0cac",
            "type": "pubkey"
          }
        }
      ],
      "hex": "01000000010000000000000000000000000000000000000000000000000000000000000000ffffffff0804ffff001d027606ffffffff0100f2052a01000000434104bff8529f97613d58a090a913c48f750f645f90edc106076e2703b55f42f3b6abdc3cc3ecba654f732f8a2ec93d7ccd6283ef027d2366518375880062d8b44d0cac00000000"
    }
  ]
}