{
  "hash": "00000000bd5b11b70c81f25faa5f68bd6cfe8995adbf24920c96239aa29e2842",
  "confirmations": 46658,
  "height": 6440,
  "version": 1,
  "versionHex": "00000001",
  "merkleroot": "abffa229a2de733b8bde9faa43237409bd1164d4a12addfa6a0635048086bfe8",
  "time": 1236285581,
  "mediantime": 1236282972,
  "nonce": 2033700143,
  "bits": "1d00ffff",
  "difficulty": 1,
  "chainwork": "0000000000000000000000000000000000000000000000000000192919291929",
  "nTx": 1,
  "previousblockhash": "00000000b8dbdb4bba017f6c4e1a6ddf80de19d56765a5d991ea52b29fd50597",
  "nextblockhash": "000000002922e47fd435bbd6c36317332d561ae46094ce54523b89bbdaa746da",
  "strippedsize": 216,
  "size": 216,
  "weight": 864,
  "tx": [
    {
      "txid": "abffa229a2de733b8bde9faa43237409bd1164d4a12addfa6a0635048086bfe8",
      "hash": "abffa229a2de733b8bde9faa43237409bd1164d4a12addfa6a0635048086bfe8",
      "version": 1,
      "size": 135,
      "vsize": 135,
      "weight": 540,
      "locktime": 0,
      "vin": [
        {
          "coinbase": "04ffff001d027002",
          "sequence": 4294967295
        }
      ],
      "vout": [
        {
          "value": 50.0,
          "n": 0,
          "scriptPubKey": {
            "asm": "04712f9f7b008afb60a13c1d56563074086e0d861c0760f03df8c0013d8793dfc2a37d22383e12315a11bdcce180748a1a6f1a2ffb2ba99090349aaa378cef7ab0 OP_CHECKSIG",
            "desc": "pk(04712f9f7b008afb60a13c1d56563074086e0d861c0760f03df8c0013d8793dfc2a37d22383e12315a11bdcce180748a1a6f1a2ffb2ba99090349aaa378cef7ab0)#heehd6px",
            "hex": "4104712f9f7b008afb60a13c1d56563074086e0d861c0760f03df8c0013d8793dfc2a37d22383e12315a11bdcce180748a1a6f1a2ffb2ba99090349aaa378cef7ab0ac",
            "type": "pubkey"
          }
        }
      ],
      "hex": "01000000010000000000000000000000000000000000000000000000000000000000000000ffffffff0804ffff001d027002ffffffff0100f2052a01000000434104712f9f7b008afb60a13c1d56563074086e0d861c0760f03df8c0013d8793dfc2a37d22383e12315a11bdcce180748a1a6f1a2ffb2ba99090349aaa378cef7ab0ac00000000"
    }
  ]
}