{
  "hash": "00000000ec989ed4909499b92e9d3eb900d75dd1fab455315916e3d45924d456",
  "confirmations": 51920,
  "height": 74,
  "version": 1,
  "versionHex": "00000001",
  "merkleroot": "d472546c5171ea73bc9000f2994f069631c7706f5e922e2fe5f8e50e0402bed6",
  "time": 1231631189,
  "mediantime": 1231626979,
  "nonce": 3926285097,
  "bits": "1d00ffff",
  "difficulty": 1,
  "chainwork": "0000000000000000000000000000000000000000000000000000004b004b004b",
  "nTx": 1,
  "previousblockhash": "000000008ec9525cb2092c6bd7d1c2580e595bcfa54bac51cf6f0278b242f25d",
  "nextblockhash": "00000000be64a31bc9c3c29ddfd5e45c81b6db279fee45b3a11cd7945109e54e",
  "strippedsize": 215,
  "size": 215,
  "weight": 860,
  "tx": [
    {
      "txid": "d472546c5171ea73bc9000f2994f069631c7706f5e922e2fe5f8e50e0402bed6",
      "hash": "d472546c5171ea73bc9000f2994f069631c7706f5e922e2fe5f8e50e0402bed6",
      "version": 1,
      "size": 134,
      "vsize": 134,
      "weight": 536,
      "locktime": 0,
      "vin": [
        {
          "coinbase": "04ffff001d0103",
          "sequence": 4294967295
        }
      ],
      "vout": [
        {
          "value": 50.0,
          "n": 0,
          "scriptPubKey": {
            "asm": "044ec8b0fcf5304f08f97348130e5c12c89f2f1678b1599d7f78b033597944945362ca67001ad40afaac594d09cb25ef323ea1bea28ae01c392397a7c673206072 OP_CHECKSIG",
            "desc": "pk(044ec8b0fcf5304f08f97348130e5c12c89f2f1678b1599d7f78b033597944945362ca67001ad40afaac594d09cb25ef323ea1bea28ae01c392397a7c673206072)#mpgrpflt",
            "hex": "41044ec8b0fcf5304f08f97348130e5c12c89f2f1678b1599d7f78b033597944945362ca67001ad40afaac594d09cb25ef323ea1bea28ae01c392397a7c673206072ac",
            "type": "pubkey"
          }
        }
      ],
      "hex": "01000000010000000000000000000000000000000000000000000000000000000000000000ffffffff0704ffff001d0103ffffffff0100f2052a010000004341044ec8b0fcf5304f08f97348130e5c12c89f2f1678b1599d7f78b033597944945362ca67001ad40afaac594d09cb25ef323ea1bea28ae01c392397a7c673206072ac00000000"
    }
  ]
}