{
  "hash": "00000000d0dbd675a2abec27951b87fe2c0f8e059ac2566d3042165a3f4082db",
  "confirmations": 52487,
  "height": 611,
  "version": 1,
  "versionHex": "00000001",
  "merkleroot": "456410c6886b0238a4b40c59743d581bede61b7dd82f10cba6ffa380491c0047",
  "time": 1232044594,
  "mediantime": 1232042240,
  "nonce": 1481131776,
  "bits": "1d00ffff",
  "difficulty": 1,
  "chainwork": "0000000000000000000000000000000000000000000000000000026402640264",
  "nTx": 1,
  "previousblockhash": "00000000efe4090f8b075603d047b16ea2d2c23eea6027a1b13f05c829b28588",
  "nextblockhash": "00000000f047c44f82ed0653e0d661b10f714f567ca7904a0f9ee475893a95e2",
  "strippedsize": 216,
  "size": 216,
  "weight": 864,
  "tx": [
    {
      "txid": "456410c6886b0238a4b40c59743d581bede61b7dd82f10cba6ffa380491c0047",
      "hash": "456410c6886b0238a4b40c59743d581bede61b7dd82f10cba6ffa380491c0047",
      "version": 1,
      "size": 135,
      "vsize": 135,
      "weight": 540,
      "locktime": 0,
      "vin": [
        {
          "coinbase": "04ffff001d02de06",
          "sequence": 4294967295
        }
      ],
      "vout": [
        {
          "value": 50.0,
          "n": 0,
          "scriptPubKey": {
            "asm": "04eb9dcdf8c037e300bf9d7ba729d628dfb95597d856719bcd7da72081fb796a9f34b98ae33eaa47fe2ca6dff86fd2c937ae42ac191f48cd62e9c08251a10cf9c9 OP_CHECKSIG",
            "desc": "pk(04eb9dcdf8c037e300bf9d7ba729d628dfb95597d856719bcd7da72081fb796a9f34b98ae33eaa47fe2ca6dff86fd2c937ae42ac191f48cd62e9c08251a10cf9c9)#6eyc9qtw",
            "hex": "4104eb9dcdf8c037e300bf9d7ba729d628dfb95597d856719bcd7da72081fb796a9f34b98ae33eaa47fe2ca6dff86fd2c937ae42ac191f48cd62e9c08251a10cf9c9ac",
            "type": "pubkey"
          }
        }
      ],
      "hex": "01000000010000000000000000000000000000000000000000000000000000000000000000ffffffff0804ffff001d02de06ffffffff0100f2052a01000000434104eb9dcdf8c037e300bf9d7ba729d628dfb95597d856719bcd7da72081fb796a9f34b98ae33eaa47fe2ca6dff86fd2c937ae42ac191f48cd62e9c08251a10cf9c9ac00000000"
    }
  ]
}