{
  "hash": "000000003d2e9b6028278e748c5c0ce4aa9828c60bf121f48656ad32f33e52a4",
  "confirmations": 46499,
  "height": 6599,
  "version": 1,
  "versionHex": "00000001",
  "merkleroot": "b2b4633f3ab70597fc971a98ed0dfc7307ce42b6e92325430553858d41f372d3",
  "time": 1236405449,
  "mediantime": 1236399818,
  "nonce": 374000674,
  "bits": "1d00ffff",
  "difficulty": 1,
  "chainwork": "000000000000000000000000000000000000000000000000000019c819c819c8",
  "nTx": 1,
  "previousblockhash": "00000000934b8d7c7585d55221f78f93d40c029d70e0cf774d41a38e734629fb",
  "nextblockhash": "00000000ed467a2513dd15679b22b20138d16b7b608f6ab79db482011fffa423",
  "strippedsize": 216,
  "size": 216,
  "weight": 864,
  "tx": [
    {
      "txid": "b2b4633f3ab70597fc971a98ed0dfc7307ce42b6e92325430553858d41f372d3",
      "hash": "b2b4633f3ab70597fc971a98ed0dfc7307ce42b6e92325430553858d41f372d3",
      "version": 1,
      "size": 135,
      "vsize": 135,
      "weight": 540,
      "locktime": 0,
      "vin": [
        {
          "coinbase": "04ffff001d022005",
          "sequence": 4294967295
        }
      ],
      "vout": [
        {
          "value": 50.0,
          "n": 0,
          "scriptPubKey": {
            "asm": "043a5add5662e91fbff6fe2c40d9acc46b3259906ace471979c3922ddeb83b6d8f87911af11820542819801a3890ead93956de4094a8e4c13a1ac94b87fa73ba78 OP_CHECKSIG",
            "desc": "pk(043a5add5662e91fbff6fe2c40d9acc46b3259906ace471979c3922ddeb83b6d8f87911af11820542819801a3890ead93956de4094a8e4c13a1ac94b87fa73ba78)#m4f0h8jx",
            "hex": "41043a5add5662e91fbff6fe2c40d9acc46b3259906ace471979c3922ddeb83b6d8f87911af11820542819801a3890ead93956de4094a8e4c13a1ac94b87fa73ba78ac",
            "type": "pubkey"
          }
        }
      ],
      "hex": "01000000010000000000000000000000000000000000000000000000000000000000000000ffffffff0804ffff001d022005ffffffff0100f2052a010000004341043a5add5662e91fbff6fe2c40d9acc46b3259906ace471979c3922ddeb83b6d8f87911af11820542819801a3890ead93956de4094a8e4c13a1ac94b87fa73ba78ac00000000"
    }
  ]
}