{
  "hash": "00000000e1c380678a058f550dab7c1f0ae9e4d0c8f9325a4c7f06c893919911",
  "confirmations": 45460,
  "height": 7638,
  "version": 1,
  "versionHex": "00000001",
  "merkleroot": "6dbaf38a0a00bf078873774a88318a983b8225138c1460d262a59daa99fb9c60",
  "time": 1237193995,
  "mediantime": 1237190787,
  "nonce": 1660032802,
  "bits": "1d00ffff",
  "difficulty": 1,
  "chainwork": "00000000000000000000000000000000000000000000000000001dd71dd71dd7",
  "nTx": 1,
  "previousblockhash": "000000008380d20e65c9f3aa351b420b437f3fcfbcfdeecb7e33fe3dd6f3d1bd",
  "nextblockhash": "000000000799fafcaebbd7432bba0e20699d60259572263c35c92f7ae27a9885",
  "strippedsize": 216,
  "size": 216,
  "weight": 864,
  "tx": [
    {
      "txid": "6dbaf38a0a00bf078873774a88318a983b8225138c1460d262a59daa99fb9c60",
      "hash": "6dbaf38a0a00bf078873774a88318a983b8225138c1460d262a59daa99fb9c60",
      "version": 1,
      "size": 135,
      "vsize": 135,
      "weight": 540,
      "locktime": 0,
      "vin": [
        {
          "coinbase": "04ffff001d020f03",
          "sequence": 4294967295
        }
      ],
      "vout": [
        {
          "value": 50.0,
          "n": 0,
          "scriptPubKey": {
            "asm": "04dade7e44ed8c0f7321680867c69aa71eda6294d0a946ed780ba597ddff7cd18eaa5bbb2cec01f75db7c74529dbf3ce270d7a7025f5f8a01cfee9ea5fd0fa7ded OP_CHECKSIG",
            "desc": "pk(04dade7e44ed8c0f7321680867c69aa71eda6294d0a946ed780ba597ddff7cd18eaa5bbb2cec01f75db7c74529dbf3ce270d7a7025f5f8a01cfee9ea5fd0fa7ded)#ksq986y3",
            "hex": "4104dade7e44ed8c0f7321680867c69aa71eda6294d0a946ed780ba597ddff7cd18eaa5bbb2cec01f75db7c74529dbf3ce270d7a7025f5f8a01cfee9ea5fd0fa7dedac",
            "type": "pubkey"
          }
        }
      ],
      "hex": "01000000010000000000000000000000000000000000000000000000000000000000000000ffffffff0804ffff001d020f03ffffffff0100f2052a01000000434104dade7e44ed8c0f7321680867c69aa71eda6294d0a946ed780ba597ddff7cd18eaa5bbb2cec01f75db7c74529dbf3ce270d7a7025f5f8a01cfee9ea5fd0fa7dedac00000000"
    }
  ]
}