{
  "hash": "000000001de9b5f2060bcc24a2e6b9819b9434c784e03362037c4f0ef77d02be",
  "confirmations": 45635,
  "height": 7463,
  "version": 1,
  "versionHex": "00000001",
  "merkleroot": "7d241f5382aaa4df69da1c0dc46b1b146bf3e416495a10eeb24db5c60eaf0caf",
  "time": 1237072290,
  "mediantime": 1237068715,
  "nonce": 2559821342,
  "bits": "1d00ffff",
  "difficulty": 1,
  "chainwork": "00000000000000000000000000000000000000000000000000001d281d281d28",
  "nTx": 1,
  "previousblockhash": "000000005f3f79d743d6c610beaa31ea3b2cd065e1b8b378a4c7d93be92f9c0e",
  "nextblockhash": "00000000733c164446584d635b7b387c92187fbf5655dfd4fb5e33f7dc1b21ad",
  "strippedsize": 215,
  "size": 215,
  "weight": 860,
  "tx": [
    {
      "txid": "7d241f5382aaa4df69da1c0dc46b1b146bf3e416495a10eeb24db5c60eaf0caf",
      "hash": "7d241f5382aaa4df69da1c0dc46b1b146bf3e416495a10eeb24db5c60eaf0caf",
      "version": 1,
      "size": 134,
      "vsize": 134,
      "weight": 536,
      "locktime": 0,
      "vin": [
        {
          "coinbase": "04ffff001d0164",
          "sequence": 4294967295
        }
      ],
      "vout": [
        {
          "value": 50.0,
          "n": 0,
          "scriptPubKey": {
            "asm": "04965eb098db4be29c76cf12430c5f4b8386dd9e86a742c871d1f2cff0f8e12cddd4a883f11bfc345dbe318aa382ab500baf484641ce2b01e253014f6dc8c60047 OP_CHECKSIG",
            "desc": "pk(04965eb098db4be29c76cf12430c5f4b8386dd9e86a742c871d1f2cff0f8e12cddd4a883f11bfc345dbe318aa382ab500baf484641ce2b01e253014f6dc8c60047)#6l4wfl34",
            "hex": "4104965eb098db4be29c76cf12430c5f4b8386dd9e86a742c871d1f2cff0f8e12cddd4a883f11bfc345dbe318aa382ab500baf484641ce2b01e253014f6dc8c60047ac",
            "type": "pubkey"
          }
        }
      ],
      "hex": "01000000010000000000000000000000000000000000000000000000000000000000000000ffffffff0704ffff001d0164ffffffff0100f2052a01000000434104965eb098db4be29c76cf12430c5f4b8386dd9e86a742c871d1f2cff0f8e12cddd4a883f11bfc345dbe318aa382ab500baf484641ce2b01e253014f6dc8c60047ac00000000"
    }
  ]
}