{
  "hash": "00000000eed6a2ca4d16b68cc38d981555de070f46e6673b018f123f0d967554",
  "confirmations": 44605,
  "height": 8493,
  "version": 1,
  "versionHex": "00000001",
  "merkleroot": "6fbd8b035acf67836df8f9762e73b4d89bc4d59c3523548354f4a4c55f6d80ec",
  "time": 1237865928,
  "mediantime": 1237860864,
  "nonce": 109150012,
  "bits": "1d00ffff",
  "difficulty": 1,
  "chainwork": "0000000000000000000000000000000000000000000000000000212e212e212e",
  "nTx": 1,
  "previousblockhash": "00000000714d217e19d52f46a9073f2cf20adf99f963e91bbcd3c13ca5a170b5",
  "nextblockhash": "00000000597c74ad4e5770cf0ff3a0463822b9b971d11f81b6371a19d6d76331",
  "strippedsize": 216,
  "size": 216,
  "weight": 864,
  "tx": [
    {
      "txid": "6fbd8b035acf67836df8f9762e73b4d89bc4d59c3523548354f4a4c55f6d80ec",
      "hash": "6fbd8b035acf67836df8f9762e73b4d89bc4d59c3523548354f4a4c55f6d80ec",
      "version": 1,
      "size": 135,
      "vsize": 135,
      "weight": 540,
      "locktime": 0,
      "vin": [
        {
          "coinbase": "04ffff001d02e00b",
          "sequence": 4294967295
        }
      ],
      "vout": [
        {
          "value": 50.0,
          "n": 0,
          "scriptPubKey": {
            "asm": "040c7bde8a5eb1ab322c74e07fcf4cd362614cf78a9a0eec257044675bcfe67a53ada5f63c0a0611c9fd78a26d3332d10c65e8fa3021a84eea5c57d1752ae0a130 OP_CHECKSIG",
            "desc": "pk(040c7bde8a5eb1ab322c74e07fcf4cd362614cf78a9a0eec257044675bcfe67a53ada5f63c0a0611c9fd78a26d3332d10c65e8fa3021a84eea5c57d1752ae0a130)#ujkwa4cx",
            "hex": "41040c7bde8a5eb1ab322c74e07fcf4cd362614cf78a9a0eec257044675bcfe67a53ada5f63c0a0611c9fd78a26d3332d10c65e8fa3021a84eea5c57d1752ae0a130ac",
            "type": "pubkey"
          }
        }
      ],
      "hex": "01000000010000000000000000000000000000000000000000000000000000000000000000ffffffff0804ffff001d02e00bffffffff0100f2052a010000004341040c7bde8a5eb1ab322c74e07fcf4cd362614cf78a9a0eec257044675bcfe67a53ada5f63c0a0611c9fd78a26d3332d10c65e8fa3021a84eea5c57d1752ae0a130ac00000000"
    }
  ]
}