{
  "hash": "00000000c19d44a43443f81bcf4cf215168c63a28e47383f718fc12a305f36c2",
  "confirmations": 44479,
  "height": 8619,
  "version": 1,
  "versionHex": "00000001",
  "merkleroot": "0532434b96c9fccd03bff1b76981f00063f987b58c1ff31c674a30391a1531c3",
  "time": 1237962904,
  "mediantime": 1237959374,
  "nonce": 595653429,
  "bits": "1d00ffff",
  "difficulty": 1,
  "chainwork": "000000000000000000000000000000000000000000000000000021ac21ac21ac",
  "nTx": 1,
  "previousblockhash": "00000000b57cc4526ae7344fc61c79d936ea4cdc9a69f5800f9ec1a7c5c9a454",
  "nextblockhash": "00000000a21fce31e6146319bf426fcb54556266d7f3ec5b13815eb032aef3fb",
  "strippedsize": 216,
  "size": 216,
  "weight": 864,
  "tx": [
    {
      "txid": "0532434b96c9fccd03bff1b76981f00063f987b58c1ff31c674a30391a1531c3",
      "hash": "0532434b96c9fccd03bff1b76981f00063f987b58c1ff31c674a30391a1531c3",
      "version": 1,
      "size": 135,
      "vsize": 135,
      "weight": 540,
      "locktime": 0,
      "vin": [
        {
          "coinbase": "04ffff001d02cb09",
          "sequence": 4294967295
        }
      ],
      "vout": [
        {
          "value": 50.0,
          "n": 0,
          "scriptPubKey": {
            "asm": "046674ca69b62fe4790d107a7b184f71580c2053dc9570aecafea46590734180c49acc0029a419965f082da098bca2efe1e90212d9758dbcd96a63072d028b97a3 OP_CHECKSIG",
            "desc": "pk(046674ca69b62fe4790d107a7b184f71580c2053dc9570aecafea46590734180c49acc0029a419965f082da098bca2efe1e90212d9758dbcd96a63072d028b97a3)#uhfcwl2g",
            "hex": "41046674ca69b62fe4790d107a7b184f71580c2053dc9570aecafea46590734180c49acc0029a419965f082da098bca2efe1e90212d9758dbcd96a63072d028b97a3ac",
            "type": "pubkey"
          }
        }
      ],
      "hex": "01000000010000000000000000000000000000000000000000000000000000000000000000ffffffff0804ffff001d02cb09ffffffff0100f2052a010000004341046674ca69b62fe4790d107a7b184f71580c2053dc9570aecafea46590734180c49acc0029a419965f082da098bca2efe1e90212d9758dbcd96a63072d028b97a3ac00000000"
    }
  ]
}