{
  "hash": "00000000e72c58e764934572712f7313cd9482a79452ebb1293c4e6ca06b0304",
  "confirmations": 45564,
  "height": 7534,
  "version": 1,
  "versionHex": "00000001",
  "merkleroot": "574f6d85badd2dbcbfc85fc3cc3ba423b6630107771e659f90c4c097820ff4ab",
  "time": 1237124967,
  "mediantime": 1237120937,
  "nonce": 3199628087,
  "bits": "1d00ffff",
  "difficulty": 1,
  "chainwork": "00000000000000000000000000000000000000000000000000001d6f1d6f1d6f",
  "nTx": 1,
  "previousblockhash": "00000000be3148cc4f4f92ffbead5508a50e85befeeadc63933fc55f2aeb8183",
  "nextblockhash": "00000000bee1692a9104248b9dadcaaf0c45b358572c60f2824cbf2a30e9de25",
  "strippedsize": 216,
  "size": 216,
  "weight": 864,
  "tx": [
    {
      "txid": "574f6d85badd2dbcbfc85fc3cc3ba423b6630107771e659f90c4c097820ff4ab",
      "hash": "574f6d85badd2dbcbfc85fc3cc3ba423b6630107771e659f90c4c097820ff4ab",
      "version": 1,
      "size": 135,
      "vsize": 135,
      "weight": 540,
      "locktime": 0,
      "vin": [
        {
          "coinbase": "04ffff001d029b01",
          "sequence": 4294967295
        }
      ],
      "vout": [
        {
          "value": 50.0,
          "n": 0,
          "scriptPubKey": {
            "asm": "04a3e2dbf5211f8c3250054b1854d607ebb0c3c40c628dba4a96c69b6d4786ec224b3e479fc3b9594281d7d522060efe4c68204e203b393c2d7d611ed9c9634d4d OP_CHECKSIG",
            "desc": "pk(04a3e2dbf5211f8c3250054b1854d607ebb0c3c40c628dba4a96c69b6d4786ec224b3e479fc3b9594281d7d522060efe4c68204e203b393c2d7d611ed9c9634d4d)#2a4nh9hu",
            "hex": "4104a3e2dbf5211f8c3250054b1854d607ebb0c3c40c628dba4a96c69b6d4786ec224b3e479fc3b9594281d7d522060efe4c68204e203b393c2d7d611ed9c9634d4dac",
            "type": "pubkey"
          }
        }
      ],
      "hex": "01000000010000000000000000000000000000000000000000000000000000000000000000ffffffff0804ffff001d029b01ffffffff0100f2052a01000000434104a3e2dbf5211f8c3250054b1854d607ebb0c3c40c628dba4a96c69b6d4786ec224b3e479fc3b9594281d7d522060efe4c68204e203b393c2d7d611ed9c9634d4dac00000000"
    }
  ]
}