{
  "hash": "00000000769bdd49485a3885587411b2e2a0fef7efc38f9df7a9845e67724765",
  "confirmations": 43515,
  "height": 9583,
  "version": 1,
  "versionHex": "00000001",
  "merkleroot": "6edd4437e6a98f87bed806bcd270d0952f8ef93bf45e02ee3dc566f62939cb0b",
  "time": 1238687038,
  "mediantime": 1238683823,
  "nonce": 2796040984,
  "bits": "1d00ffff",
  "difficulty": 1,
  "chainwork": "0000000000000000000000000000000000000000000000000000257025702570",
  "nTx": 1,
  "previousblockhash": "000000003764082701ec20cff0d916e2085f0416b289e77aacea65d4f30247f2",
  "nextblockhash": "000000009540ad91c4b76a3060b545daa853cc2182396fb23ecccc907e87d0b8",
  "strippedsize": 216,
  "size": 216,
  "weight": 864,
  "tx": [
    {
      "txid": "6edd4437e6a98f87bed806bcd270d0952f8ef93bf45e02ee3dc566f62939cb0b",
      "hash": "6edd4437e6a98f87bed806bcd270d0952f8ef93bf45e02ee3dc566f62939cb0b",
      "version": 1,
      "size": 135,
      "vsize": 135,
      "weight": 540,
      "locktime": 0,
      "vin": [
        {
          "coinbase": "04ffff001d02b606",
          "sequence": 4294967295
        }
      ],
      "vout": [
        {
          "value": 50.0,
          "n": 0,
          "scriptPubKey": {
            "asm": "0439eaec6c366c1d48982ac90623e71fffbec93d3087414ff3202fb870c5111b47430c4faa7dfea7c1fabed035645c81793b24f0fa2f4174e5ffab7a57b16166c2 OP_CHECKSIG",
            "desc": "pk(0439eaec6c366c1d48982ac90623e71fffbec93d3087414ff3202fb870c5111b47430c4faa7dfea7c1fabed035645c81793b24f0fa2f4174e5ffab7a57b16166c2)#4ek054jd",
            "hex": "410439eaec6c366c1d48982ac90623e71fffbec93d3087414ff3202fb870c5111b47430c4faa7dfea7c1fabed035645c81793b24f0fa2f4174e5ffab7a57b16166c2ac",
            "type": "pubkey"
          }
        }
      ],
      "hex": "01000000010000000000000000000000000000000000000000000000000000000000000000ffffffff0804ffff001d02b606ffffffff0100f2052a0100000043410439eaec6c366c1d48982ac90623e71fffbec93d3087414ff3202fb870c5111b47430c4faa7dfea7c1fabed035645c81793b24f0fa2f4174e5ffab7a57b16166c2ac00000000"
    }
  ]
}