{
  "hash": "00000000312b2ac3324f98f9c3f1b6167620f11641084278798cc388dbef9d4e",
  "confirmations": 44913,
  "height": 8185,
  "version": 1,
  "versionHex": "00000001",
  "merkleroot": "9eeed7a04a0c2620ef311b9293ebed56ac6e0c052c6b8e945542a72ba46f9ce8",
  "time": 1237595442,
  "mediantime": 1237592618,
  "nonce": 652152064,
  "bits": "1d00ffff",
  "difficulty": 1,
  "chainwork": "00000000000000000000000000000000000000000000000000001ffa1ffa1ffa",
  "nTx": 1,
  "previousblockhash": "00000000aa5561ad2a4b3b2e946789e150d488766d95a390bea6e4cce1c491ea",
  "nextblockhash": "0000000005e1e453df756fcf511353abef26ad10c471acb04c8aae78f66cc7fc",
  "strippedsize": 216,
  "size": 216,
  "weight": 864,
  "tx": [
    {
      "txid": "9eeed7a04a0c2620ef311b9293ebed56ac6e0c052c6b8e945542a72ba46f9ce8",
      "hash": "9eeed7a04a0c2620ef311b9293ebed56ac6e0c052c6b8e945542a72ba46f9ce8",
      "version": 1,
      "size": 135,
      "vsize": 135,
      "weight": 540,
      "locktime": 0,
      "vin": [
        {
          "coinbase": "04ffff001d02af02",
          "sequence": 4294967295
        }
      ],
      "vout": [
        {
          "value": 50.0,
          "n": 0,
          "scriptPubKey": {
            "asm": "044680f5fae201086cb79b6ce4060f53b71cb926cb6cfeb929093d1de11259dcead093e8ca499669204bdf6a44d0d0c130e6799deecf26fc44bda50bb336e6db02 OP_CHECKSIG",
            "desc": "pk(044680f5fae201086cb79b6ce4060f53b71cb926cb6cfeb929093d1de11259dcead093e8ca499669204bdf6a44d0d0c130e6799deecf26fc44bda50bb336e6db02)#fdthknnt",
            "hex": "41044680f5fae201086cb79b6ce4060f53b71cb926cb6cfeb929093d1de11259dcead093e8ca499669204bdf6a44d0d0c130e6799deecf26fc44bda50bb336e6db02ac",
            "type": "pubkey"
          }
        }
      ],
      "hex": "01000000010000000000000000000000000000000000000000000000000000000000000000ffffffff0804ffff001d02af02ffffffff0100f2052a010000004341044680f5fae201086cb79b6ce4060f53b71cb926cb6cfeb929093d1de11259dcead093e8ca499669204bdf6a44d0d0c130e6799deecf26fc44bda50bb336e6db02ac00000000"
    }
  ]
}