{
  "hash": "00000000fb25fb790b1e890b86d656f509c3a55e83ba5705d654602cff2f7607",
  "confirmations": 44464,
  "height": 8634,
  "version": 1,
  "versionHex": "00000001",
  "merkleroot": "2c9ab2eb9b4c8643861cf395a572fac695f2cc09891cfb2337576009902ebd02",
  "time": 1237971144,
  "mediantime": 1237968741,
  "nonce": 3846151451,
  "bits": "1d00ffff",
  "difficulty": 1,
  "chainwork": "000000000000000000000000000000000000000000000000000021bb21bb21bb",
  "nTx": 1,
  "previousblockhash": "00000000e1890040f7ae27ee86da324af47712fec7e8c5d4614509238536b96c",
  "nextblockhash": "000000007c193af7b3031cfa0280be044abd3b81e3cdc628dd6cb8b58b2ac190",
  "strippedsize": 216,
  "size": 216,
  "weight": 864,
  "tx": [
    {
      "txid": "2c9ab2eb9b4c8643861cf395a572fac695f2cc09891cfb2337576009902ebd02",
      "hash": "2c9ab2eb9b4c8643861cf395a572fac695f2cc09891cfb2337576009902ebd02",
      "version": 1,
      "size": 135,
      "vsize": 135,
      "weight": 540,
      "locktime": 0,
      "vin": [
        {
          "coinbase": "04ffff001d020e0a",
          "sequence": 4294967295
        }
      ],
      "vout": [
        {
          "value": 50.0,
          "n": 0,
          "scriptPubKey": {
            "asm": "0467b3e6c301f12f34ec26da932dd827b559a43b6425ce0dc78d34becfdacd76a90e41232035a426ea9c623ff9d488a0393496c8463d61bcaabe69637a4cfb13d0 OP_CHECKSIG",
            "desc": "pk(0467b3e6c301f12f34ec26da932dd827b559a43b6425ce0dc78d34becfdacd76a90e41232035a426ea9c623ff9d488a0393496c8463d61bcaabe69637a4cfb13d0)#2xkcs04e",
            "hex": "410467b3e6c301f12f34ec26da932dd827b559a43b6425ce0dc78d34becfdacd76a90e41232035a426ea9c623ff9d488a0393496c8463d61bcaabe69637a4cfb13d0ac",
            "type": "pubkey"
          }
        }
      ],
      "hex": "01000000010000000000000000000000000000000000000000000000000000000000000000ffffffff0804ffff001d020e0affffffff0100f2052a0100000043410467b3e6c301f12f34ec26da932dd827b559a43b6425ce0dc78d34becfdacd76a90e41232035a426ea9c623ff9d488a0393496c8463d61bcaabe69637a4cfb13d0ac00000000"
    }
  ]
}