{
  "hash": "000000009dd977c7dcf8eddb9562f7ad4da7486fbb4ed5dd871e8732e5e49f32",
  "confirmations": 49901,
  "height": 3197,
  "version": 1,
  "versionHex": "00000001",
  "merkleroot": "e4760fe000e6cd84ae57d82f9c5ece389269164cd0285d349e4ee33a5821cf1d",
  "time": 1233897351,
  "mediantime": 1233893476,
  "nonce": 1952125193,
  "bits": "1d00ffff",
  "difficulty": 1,
  "chainwork": "00000000000000000000000000000000000000000000000000000c7e0c7e0c7e",
  "nTx": 1,
  "previousblockhash": "00000000fa0f9d275d9d0f963cd44cd811b5d73c611b25d2e49f096f92cf6c4b",
  "nextblockhash": "000000009daeba91628accf6aa92c55caf0ab7efb4c81de2029544050b63bfda",
  "strippedsize": 216,
  "size": 216,
  "weight": 864,
  "tx": [
    {
      "txid": "e4760fe000e6cd84ae57d82f9c5ece389269164cd0285d349e4ee33a5821cf1d",
      "hash": "e4760fe000e6cd84ae57d82f9c5ece389269164cd0285d349e4ee33a5821cf1d",
      "version": 1,
      "size": 135,
      "vsize": 135,
      "weight": 540,
      "locktime": 0,
      "vin": [
        {
          "coinbase": "04ffff001d02a702",
          "sequence": 4294967295
        }
      ],
      "vout": [
        {
          "value": 50.0,
          "n": 0,
          "scriptPubKey": {
            "asm": "0475455795be597a1130c6d4d79366b1c08a829314ce5a93feb052b0e846185690b69fb4349346ab7f56cf659ed075dd42d1e704aeedb87b738b2d3f76b22cfaa0 OP_CHECKSIG",
            "desc": "pk(0475455795be597a1130c6d4d79366b1c08a829314ce5a93feb052b0e846185690b69fb4349346ab7f56cf659ed075dd42d1e704aeedb87b738b2d3f76b22cfaa0)#yjrh3sqx",
            "hex": "410475455795be597a1130c6d4d79366b1c08a829314ce5a93feb052b0e846185690b69fb4349346ab7f56cf659ed075dd42d1e704aeedb87b738b2d3f76b22cfaa0ac",
            "type": "pubkey"
          }
        }
      ],
      "hex": "01000000010000000000000000000000000000000000000000000000000000000000000000ffffffff0804ffff001d02a702ffffffff0100f2052a0100000043410475455795be597a1130c6d4d79366b1c08a829314ce5a93feb052b0e846185690b69fb4349346ab7f56cf659ed075dd42d1e704aeedb87b738b2d3f76b22cfaa0ac00000000"
    }
  ]
}