{
  "hash": "00000000138559989f729ef79ebbf2b47bc24742f94b81007ba733940f574baa",
  "confirmations": 50902,
  "height": 2196,
  "version": 1,
  "versionHex": "00000001",
  "merkleroot": "c75317286666fee05dd04f27a94c8a01f1623fb7ccda905254adc4b835f75d05",
  "time": 1233212106,
  "mediantime": 1233207804,
  "nonce": 3696350250,
  "bits": "1d00ffff",
  "difficulty": 1,
  "chainwork": "0000000000000000000000000000000000000000000000000000089508950895",
  "nTx": 1,
  "previousblockhash": "0000000014a65a70cefa53205e5fd3523696b11a33abb522ebbc2dfd5542e1c5",
  "nextblockhash": "0000000086941c5a4e7fb7ad5940948cfbbfc23743999293254606eb26bc2a10",
  "strippedsize": 215,
  "size": 215,
  "weight": 860,
  "tx": [
    {
      "txid": "c75317286666fee05dd04f27a94c8a01f1623fb7ccda905254adc4b835f75d05",
      "hash": "c75317286666fee05dd04f27a94c8a01f1623fb7ccda905254adc4b835f75d05",
      "version": 1,
      "size": 134,
      "vsize": 134,
      "weight": 536,
      "locktime": 0,
      "vin": [
        {
          "coinbase": "04ffff001d013f",
          "sequence": 4294967295
        }
      ],
      "vout": [
        {
          "value": 50.0,
          "n": 0,
          "scriptPubKey": {
            "asm": "04e35422753af21ead694922d68e4307e1da09c583c21791287dc412036883d139cb7d5c0a640868467af972172bcb5bffbcc465914f443823d8c504f40d3bfc0e OP_CHECKSIG",
            "desc": "pk(04e35422753af21ead694922d68e4307e1da09c583c21791287dc412036883d139cb7d5c0a640868467af972172bcb5bffbcc465914f443823d8c504f40d3bfc0e)#taldmjzy",
            "hex": "4104e35422753af21ead694922d68e4307e1da09c583c21791287dc412036883d139cb7d5c0a640868467af972172bcb5bffbcc465914f443823d8c504f40d3bfc0eac",
            "type": "pubkey"
          }
        }
      ],
      "hex": "01000000010000000000000000000000000000000000000000000000000000000000000000ffffffff0704ffff001d013fffffffff0100f2052a01000000434104e35422753af21ead694922d68e4307e1da09c583c21791287dc412036883d139cb7d5c0a640868467af972172bcb5bffbcc465914f443823d8c504f40d3bfc0eac00000000"
    }
  ]
}