{
  "hash": "0000000045218b32eb3717ef96608c1abe156546fe156a5d4eb1a0300f5f523b",
  "confirmations": 50586,
  "height": 2512,
  "version": 1,
  "versionHex": "00000001",
  "merkleroot": "87975d875bd5273f7e21f20982438feaf343e234886d6526b15d3bf3a0d26a90",
  "time": 1233427056,
  "mediantime": 1233423772,
  "nonce": 61071185,
  "bits": "1d00ffff",
  "difficulty": 1,
  "chainwork": "000000000000000000000000000000000000000000000000000009d109d109d1",
  "nTx": 1,
  "previousblockhash": "000000001e07a73f81ff6000eb8c58158aebcb67bbeaf43ad580a518a579d7d7",
  "nextblockhash": "000000007030a61ba73a6c9e66c84956b9817f5487edd52d2eccc02374e048d9",
  "strippedsize": 216,
  "size": 216,
  "weight": 864,
  "tx": [
    {
      "txid": "87975d875bd5273f7e21f20982438feaf343e234886d6526b15d3bf3a0d26a90",
      "hash": "87975d875bd5273f7e21f20982438feaf343e234886d6526b15d3bf3a0d26a90",
      "version": 1,
      "size": 135,
      "vsize": 135,
      "weight": 540,
      "locktime": 0,
      "vin": [
        {
          "coinbase": "04ffff001d023d05",
          "sequence": 4294967295
        }
      ],
      "vout": [
        {
          "value": 50.0,
          "n": 0,
          "scriptPubKey": {
            "asm": "04dc07903011dbe46579750e8f4d2bd1a5a704fb7085bcb713591b595d60ff9848caff7baaee5b289743a4d1392707df65dc9ee1da6044cddef85f99b996a88cc7 OP_CHECKSIG",
            "desc": "pk(04dc07903011dbe46579750e8f4d2bd1a5a704fb7085bcb713591b595d60ff9848caff7baaee5b289743a4d1392707df65dc9ee1da6044cddef85f99b996a88cc7)#pjndarzc",
            "hex": "4104dc07903011dbe46579750e8f4d2bd1a5a704fb7085bcb713591b595d60ff9848caff7baaee5b289743a4d1392707df65dc9ee1da6044cddef85f99b996a88cc7ac",
            "type": "pubkey"
          }
        }
      ],
      "hex": "01000000010000000000000000000000000000000000000000000000000000000000000000ffffffff0804ffff001d023d05ffffffff0100f2052a01000000434104dc07903011dbe46579750e8f4d2bd1a5a704fb7085bcb713591b595d60ff9848caff7baaee5b289743a4d1392707df65dc9ee1da6044cddef85f99b996a88cc7ac00000000"
    }
  ]
}