{
  "hash": "000000001eaa0de9af3be951fdf24becbe29dad16d2b1ff71a863867ded88e29",
  "confirmations": 51732,
  "height": 1366,
  "version": 1,
  "versionHex": "00000001",
  "merkleroot": "cfd6f5e9dcb111efbadbeec365e1e69df860da991831c7260ae4697ed6e4e1c4",
  "time": 1232655076,
  "mediantime": 1232652104,
  "nonce": 3088536866,
  "bits": "1d00ffff",
  "difficulty": 1,
  "chainwork": "0000000000000000000000000000000000000000000000000000055705570557",
  "nTx": 1,
  "previousblockhash": "0000000001511ad3f629602f88cbecd0ba96c9ffdf7cbacdedfbff8619ae28f3",
  "nextblockhash": "00000000e76c0650088fa82ecfe07574cf4f938c5cc46eb6195dbb4f083a776c",
  "strippedsize": 216,
  "size": 216,
  "weight": 864,
  "tx": [
    {
      "txid": "cfd6f5e9dcb111efbadbeec365e1e69df860da991831c7260ae4697ed6e4e1c4",
      "hash": "cfd6f5e9dcb111efbadbeec365e1e69df860da991831c7260ae4697ed6e4e1c4",
      "version": 1,
      "size": 135,
      "vsize": 135,
      "weight": 540,
      "locktime": 0,
      "vin": [
        {
          "coinbase": "04ffff001d027901",
          "sequence": 4294967295
        }
      ],
      "vout": [
        {
          "value": 50.0,
          "n": 0,
          "scriptPubKey": {
            "asm": "042f5475d1da854573c8d56b92f90789e84dc312e6102979627e49651311a8190682b7d99a1abbb579412c36d75f2c802048b6f1aae7a0b6b5a488567113d639df OP_CHECKSIG",
            "desc": "pk(042f5475d1da854573c8d56b92f90789e84dc312e6102979627e49651311a8190682b7d99a1abbb579412c36d75f2c802048b6f1aae7a0b6b5a488567113d639df)#0jefp8l5",
            "hex": "41042f5475d1da854573c8d56b92f90789e84dc312e6102979627e49651311a8190682b7d99a1abbb579412c36d75f2c802048b6f1aae7a0b6b5a488567113d639dfac",
            "type": "pubkey"
          }
        }
      ],
      "hex": "01000000010000000000000000000000000000000000000000000000000000000000000000ffffffff0804ffff001d027901ffffffff0100f2052a010000004341042f5475d1da854573c8d56b92f90789e84dc312e6102979627e49651311a8190682b7d99a1abbb579412c36d75f2c802048b6f1aae7a0b6b5a488567113d639dfac00000000"
    }
  ]
}