{
  "hash": "000000000f8bfdd6bc2b93436abdbe8fa7dcfc86bc40a6ce697efd874d9dd894",
  "confirmations": 49876,
  "height": 3222,
  "version": 1,
  "versionHex": "00000001",
  "merkleroot": "778e2e9b2ce63da2b1188281196c41574dd3db2461b35c52e6aafb79e72b9423",
  "time": 1233917324,
  "mediantime": 1233913528,
  "nonce": 744344881,
  "bits": "1d00ffff",
  "difficulty": 1,
  "chainwork": "00000000000000000000000000000000000000000000000000000c970c970c97",
  "nTx": 1,
  "previousblockhash": "00000000fec4d1033bc750395d89a151b6c28615218aa1b6d7e519062bcf50b5",
  "nextblockhash": "00000000c9a0c1a8f27d4790dc66a7519b45e5f3fe284eab3efd6958e1a5cb49",
  "strippedsize": 216,
  "size": 216,
  "weight": 864,
  "tx": [
    {
      "txid": "778e2e9b2ce63da2b1188281196c41574dd3db2461b35c52e6aafb79e72b9423",
      "hash": "778e2e9b2ce63da2b1188281196c41574dd3db2461b35c52e6aafb79e72b9423",
      "version": 1,
      "size": 135,
      "vsize": 135,
      "weight": 540,
      "locktime": 0,
      "vin": [
        {
          "coinbase": "04ffff001d021c03",
          "sequence": 4294967295
        }
      ],
      "vout": [
        {
          "value": 50.0,
          "n": 0,
          "scriptPubKey": {
            "asm": "04a046e60b4f116734e4759157884dc59ae28552d195da74536763e273aa26b282df5bd57e3429863bf1bbe59ca2cbfa3d5a72f5f61e4bf8ae7d74be453ddd079b OP_CHECKSIG",
            "desc": "pk(04a046e60b4f116734e4759157884dc59ae28552d195da74536763e273aa26b282df5bd57e3429863bf1bbe59ca2cbfa3d5a72f5f61e4bf8ae7d74be453ddd079b)#vampul9j",
            "hex": "4104a046e60b4f116734e4759157884dc59ae28552d195da74536763e273aa26b282df5bd57e3429863bf1bbe59ca2cbfa3d5a72f5f61e4bf8ae7d74be453ddd079bac",
            "type": "pubkey"
          }
        }
      ],
      "hex": "01000000010000000000000000000000000000000000000000000000000000000000000000ffffffff0804ffff001d021c03ffffffff0100f2052a01000000434104a046e60b4f116734e4759157884dc59ae28552d195da74536763e273aa26b282df5bd57e3429863bf1bbe59ca2cbfa3d5a72f5f61e4bf8ae7d74be453ddd079bac00000000"
    }
  ]
}