{
  "hash": "00000000eabd6b5488e55bd5e1b8309bbabde7405beb8c967e3b3bf8ceadd5c5",
  "confirmations": 44831,
  "height": 8267,
  "version": 1,
  "versionHex": "00000001",
  "merkleroot": "05c2c53635c85e9fa5275f26df7982dd26bda3b9ac27538d3a73652e37960d15",
  "time": 1237710806,
  "mediantime": 1237706308,
  "nonce": 2395706672,
  "bits": "1d00ffff",
  "difficulty": 1,
  "chainwork": "0000000000000000000000000000000000000000000000000000204c204c204c",
  "nTx": 1,
  "previousblockhash": "000000004d0fd467c9c464f1805333ddd87a9f438ee21bd00515b5f57e597fc8",
  "nextblockhash": "00000000163d2e6783901ed6c384ac09071417f283de88d37ce4a2602b6a0233",
  "strippedsize": 216,
  "size": 216,
  "weight": 864,
  "tx": [
    {
      "txid": "05c2c53635c85e9fa5275f26df7982dd26bda3b9ac27538d3a73652e37960d15",
      "hash": "05c2c53635c85e9fa5275f26df7982dd26bda3b9ac27538d3a73652e37960d15",
      "version": 1,
      "size": 135,
      "vsize": 135,
      "weight": 540,
      "locktime": 0,
      "vin": [
        {
          "coinbase": "04ffff001d02b203",
          "sequence": 4294967295
        }
      ],
      "vout": [
        {
          "value": 50.0,
          "n": 0,
          "scriptPubKey": {
            "asm": "04941266d3a78876404015b701e20c7d5253433764f61b1c3f84fd448244219265728932f83d696401ea7f244b06cf2217e2d5297d5f75f2f9480d89734bede52c OP_CHECKSIG",
            "desc": "pk(04941266d3a78876404015b701e20c7d5253433764f61b1c3f84fd448244219265728932f83d696401ea7f244b06cf2217e2d5297d5f75f2f9480d89734bede52c)#892wq7yt",
            "hex": "4104941266d3a78876404015b701e20c7d5253433764f61b1c3f84fd448244219265728932f83d696401ea7f244b06cf2217e2d5297d5f75f2f9480d89734bede52cac",
            "type": "pubkey"
          }
        }
      ],
      "hex": "01000000010000000000000000000000000000000000000000000000000000000000000000ffffffff0804ffff001d02b203ffffffff0100f2052a01000000434104941266d3a78876404015b701e20c7d5253433764f61b1c3f84fd448244219265728932f83d696401ea7f244b06cf2217e2d5297d5f75f2f9480d89734bede52cac00000000"
    }
  ]
}