{
  "hash": "0000000034ef597f4ec8b0479e997836b76ce8f11cd14091105abc96297d4995",
  "confirmations": 44173,
  "height": 8925,
  "version": 1,
  "versionHex": "00000001",
  "merkleroot": "23732d59f7458e9a14e8436f2595d797ff118a0eeb27f4601eabe36339b8d5ae",
  "time": 1238198472,
  "mediantime": 1238195552,
  "nonce": 4165826090,
  "bits": "1d00ffff",
  "difficulty": 1,
  "chainwork": "000000000000000000000000000000000000000000000000000022de22de22de",
  "nTx": 1,
  "previousblockhash": "000000009bc048e19006c823c0e3df7d78f107b6a4724168af82cedc17128c01",
  "nextblockhash": "000000009693162dda45657adb691d84c66f42d2cc21075212a8695d243b9f5d",
  "strippedsize": 216,
  "size": 216,
  "weight": 864,
  "tx": [
    {
      "txid": "23732d59f7458e9a14e8436f2595d797ff118a0eeb27f4601eabe36339b8d5ae",
      "hash": "23732d59f7458e9a14e8436f2595d797ff118a0eeb27f4601eabe36339b8d5ae",
      "version": 1,
      "size": 135,
      "vsize": 135,
      "weight": 540,
      "locktime": 0,
      "vin": [
        {
          "coinbase": "04ffff001d021a05",
          "sequence": 4294967295
        }
      ],
      "vout": [
        {
          "value": 50.0,
          "n": 0,
          "scriptPubKey": {
            "asm": "0438917c2076b018f2d529b896f949eb8f5d98140ec078f57be88089dd00ea03497d8c470391c4ff09481f2cda01d0b1d0a79585e789b51e60454de64356ecde1f OP_CHECKSIG",
            "desc": "pk(0438917c2076b018f2d529b896f949eb8f5d98140ec078f57be88089dd00ea03497d8c470391c4ff09481f2cda01d0b1d0a79585e789b51e60454de64356ecde1f)#cvqj6qy0",
            "hex": "410438917c2076b018f2d529b896f949eb8f5d98140ec078f57be88089dd00ea03497d8c470391c4ff09481f2cda01d0b1d0a79585e789b51e60454de64356ecde1fac",
            "type": "pubkey"
          }
        }
      ],
      "hex": "01000000010000000000000000000000000000000000000000000000000000000000000000ffffffff0804ffff001d021a05ffffffff0100f2052a0100000043410438917c2076b018f2d529b896f949eb8f5d98140ec078f57be88089dd00ea03497d8c470391c4ff09481f2cda01d0b1d0a79585e789b51e60454de64356ecde1fac00000000"
    }
  ]
}