{
  "hash": "00000000613c16fe1873a17c7663fcc4d462f0b63e761e45805aa8f14aa7877e",
  "confirmations": 51702,
  "height": 1396,
  "version": 1,
  "versionHex": "00000001",
  "merkleroot": "3465704ac2228398088db6c764047c0497fc5ff12ada5c574b9a22fb95ca4496",
  "time": 1232708727,
  "mediantime": 1232696915,
  "nonce": 184857836,
  "bits": "1d00ffff",
  "difficulty": 1,
  "chainwork": "0000000000000000000000000000000000000000000000000000057505750575",
  "nTx": 1,
  "previousblockhash": "00000000d48dc4f87ea7fd0a24fdf68437293a2ce9f1c382340921a7db4b4bd7",
  "nextblockhash": "00000000e7050ca0479ee3a47bc5b028bba56d4a1bed2e52e9317cd1fd633c08",
  "strippedsize": 216,
  "size": 216,
  "weight": 864,
  "tx": [
    {
      "txid": "3465704ac2228398088db6c764047c0497fc5ff12ada5c574b9a22fb95ca4496",
      "hash": "3465704ac2228398088db6c764047c0497fc5ff12ada5c574b9a22fb95ca4496",
      "version": 1,
      "size": 135,
      "vsize": 135,
      "weight": 540,
      "locktime": 0,
      "vin": [
        {
          "coinbase": "04ffff001d02dc00",
          "sequence": 4294967295
        }
      ],
      "vout": [
        {
          "value": 50.0,
          "n": 0,
          "scriptPubKey": {
            "asm": "042334b1ef6d155b364537fed08c7a4755123f324e6207e600d3ee923757b1473167c3ebeef67f63648b8c4d0eccf64cbb8bc15016d2e5122892fda96e96b4cddc OP_CHECKSIG",
            "desc": "pk(042334b1ef6d155b364537fed08c7a4755123f324e6207e600d3ee923757b1473167c3ebeef67f63648b8c4d0eccf64cbb8bc15016d2e5122892fda96e96b4cddc)#c04uexsn",
            "hex": "41042334b1ef6d155b364537fed08c7a4755123f324e6207e600d3ee923757b1473167c3ebeef67f63648b8c4d0eccf64cbb8bc15016d2e5122892fda96e96b4cddcac",
            "type": "pubkey"
          }
        }
      ],
      "hex": "01000000010000000000000000000000000000000000000000000000000000000000000000ffffffff0804ffff001d02dc00ffffffff0100f2052a010000004341042334b1ef6d155b364537fed08c7a4755123f324e6207e600d3ee923757b1473167c3ebeef67f63648b8c4d0eccf64cbb8bc15016d2e5122892fda96e96b4cddcac00000000"
    }
  ]
}