{
  "hash": "000000001b855e08f1e619a9f854a9bc3914fd532102bc93970647299b373efd",
  "confirmations": 50694,
  "height": 2404,
  "version": 1,
  "versionHex": "00000001",
  "merkleroot": "1a1c40a9b6400ec64fb08431ba0cef32b229d0ec2658681d65d2b46a0ce76d75",
  "time": 1233358899,
  "mediantime": 1233355774,
  "nonce": 10767365,
  "bits": "1d00ffff",
  "difficulty": 1,
  "chainwork": "0000000000000000000000000000000000000000000000000000096509650965",
  "nTx": 1,
  "previousblockhash": "00000000a8dbbd2c5c1b17611ddde87ef045a49e528dd91df13d4ef0f80ef03e",
  "nextblockhash": "00000000f64d740c99ad27c96ba81e388c0ba9662f8993eadcedb259e7d469cf",
  "strippedsize": 215,
  "size": 215,
  "weight": 860,
  "tx": [
    {
      "txid": "1a1c40a9b6400ec64fb08431ba0cef32b229d0ec2658681d65d2b46a0ce76d75",
      "hash": "1a1c40a9b6400ec64fb08431ba0cef32b229d0ec2658681d65d2b46a0ce76d75",
      "version": 1,
      "size": 134,
      "vsize": 134,
      "weight": 536,
      "locktime": 0,
      "vin": [
        {
          "coinbase": "04ffff001d010e",
          "sequence": 4294967295
        }
      ],
      "vout": [
        {
          "value": 50.0,
          "n": 0,
          "scriptPubKey": {
            "asm": "04645ee6c468b8782e9ebe6d83e0e951fb1abb8e1fb350589b83c20dbd8bdf47a01c619362fef6589d8e1c1ac21fed41b1ed70d251582b4bb5b990bfe834850403 OP_CHECKSIG",
            "desc": "pk(04645ee6c468b8782e9ebe6d83e0e951fb1abb8e1fb350589b83c20dbd8bdf47a01c619362fef6589d8e1c1ac21fed41b1ed70d251582b4bb5b990bfe834850403)#en4eal3e",
            "hex": "4104645ee6c468b8782e9ebe6d83e0e951fb1abb8e1fb350589b83c20dbd8bdf47a01c619362fef6589d8e1c1ac21fed41b1ed70d251582b4bb5b990bfe834850403ac",
            "type": "pubkey"
          }
        }
      ],
      "hex": "01000000010000000000000000000000000000000000000000000000000000000000000000ffffffff0704ffff001d010effffffff0100f2052a01000000434104645ee6c468b8782e9ebe6d83e0e951fb1abb8e1fb350589b83c20dbd8bdf47a01c619362fef6589d8e1c1ac21fed41b1ed70d251582b4bb5b990bfe834850403ac00000000"
    }
  ]
}