{
  "hash": "0000000010a507c16fe49a0f1c49913a77e503574c7cfac13222362ee6ef4f8b",
  "confirmations": 47641,
  "height": 5457,
  "version": 1,
  "versionHex": "00000001",
  "merkleroot": "c6e7a5914b0fb0588de038c87b04d0d86ef815445f09d3e0ff3ea92c78d52eb0",
  "time": 1235489117,
  "mediantime": 1235485427,
  "nonce": 3807880219,
  "bits": "1d00ffff",
  "difficulty": 1,
  "chainwork": "0000000000000000000000000000000000000000000000000000155215521552",
  "nTx": 1,
  "previousblockhash": "00000000a41d7cd90863e72b25cb473115c90bdc839059c24d4b9418aeeb2238",
  "nextblockhash": "00000000c8ac383017017586e606e2778165bc452501a6e479d2649e4a1067e9",
  "strippedsize": 216,
  "size": 216,
  "weight": 864,
  "tx": [
    {
      "txid": "c6e7a5914b0fb0588de038c87b04d0d86ef815445f09d3e0ff3ea92c78d52eb0",
      "hash": "c6e7a5914b0fb0588de038c87b04d0d86ef815445f09d3e0ff3ea92c78d52eb0",
      "version": 1,
      "size": 135,
      "vsize": 135,
      "weight": 540,
      "locktime": 0,
      "vin": [
        {
          "coinbase": "04ffff001d02db04",
          "sequence": 4294967295
        }
      ],
      "vout": [
        {
          "value": 50.0,
          "n": 0,
          "scriptPubKey": {
            "asm": "044b12ab2c4cb7fc2b6bd56840c43a4279ecab1aa5a172b817f958a9ef29c826090b05190a45fba85a5ad039469984ceec280ada0e7b1c2e716d94b4663feba9c2 OP_CHECKSIG",
            "desc": "pk(044b12ab2c4cb7fc2b6bd56840c43a4279ecab1aa5a172b817f958a9ef29c826090b05190a45fba85a5ad039469984ceec280ada0e7b1c2e716d94b4663feba9c2)#dl7x6s3g",
            "hex": "41044b12ab2c4cb7fc2b6bd56840c43a4279ecab1aa5a172b817f958a9ef29c826090b05190a45fba85a5ad039469984ceec280ada0e7b1c2e716d94b4663feba9c2ac",
            "type": "pubkey"
          }
        }
      ],
      "hex": "01000000010000000000000000000000000000000000000000000000000000000000000000ffffffff0804ffff001d02db04ffffffff0100f2052a010000004341044b12ab2c4cb7fc2b6bd56840c43a4279ecab1aa5a172b817f958a9ef29c826090b05190a45fba85a5ad039469984ceec280ada0e7b1c2e716d94b4663feba9c2ac00000000"
    }
  ]
}