{
  "hash": "00000000c03c0de143abe860076d2a0ffa92f9f1dc08eb0c94c6bc3b8998e27a",
  "confirmations": 50158,
  "height": 2940,
  "version": 1,
  "versionHex": "00000001",
  "merkleroot": "609ad70c2ffba5b2ac11cd1525ce33be7e6f2fe0bedee0880c77cf6261a66868",
  "time": 1233717911,
  "mediantime": 1233714592,
  "nonce": 244716747,
  "bits": "1d00ffff",
  "difficulty": 1,
  "chainwork": "00000000000000000000000000000000000000000000000000000b7d0b7d0b7d",
  "nTx": 1,
  "previousblockhash": "0000000009e8ec81ce4d599d67ef1a780230c9db23cc7aec269b08d684a05d76",
  "nextblockhash": "000000001c9a6bbe76159eedc2a94c514ec7e8e2d98202c699cfc095c39daab1",
  "strippedsize": 216,
  "size": 216,
  "weight": 864,
  "tx": [
    {
      "txid": "609ad70c2ffba5b2ac11cd1525ce33be7e6f2fe0bedee0880c77cf6261a66868",
      "hash": "609ad70c2ffba5b2ac11cd1525ce33be7e6f2fe0bedee0880c77cf6261a66868",
      "version": 1,
      "size": 135,
      "vsize": 135,
      "weight": 540,
      "locktime": 0,
      "vin": [
        {
          "coinbase": "04ffff001d020804",
          "sequence": 4294967295
        }
      ],
      "vout": [
        {
          "value": 50.0,
          "n": 0,
          "scriptPubKey": {
            "asm": "048e82199a721328a9f218d9cb4440fa5fc3d565beb8cd633d58664fed02cd9585d3f2ca1b79a470d6da985df20ccb2cb7938b26532d11c4fac3ba04b754b9c9b5 OP_CHECKSIG",
            "desc": "pk(048e82199a721328a9f218d9cb4440fa5fc3d565beb8cd633d58664fed02cd9585d3f2ca1b79a470d6da985df20ccb2cb7938b26532d11c4fac3ba04b754b9c9b5)#646dn24s",
            "hex": "41048e82199a721328a9f218d9cb4440fa5fc3d565beb8cd633d58664fed02cd9585d3f2ca1b79a470d6da985df20ccb2cb7938b26532d11c4fac3ba04b754b9c9b5ac",
            "type": "pubkey"
          }
        }
      ],
      "hex": "01000000010000000000000000000000000000000000000000000000000000000000000000ffffffff0804ffff001d020804ffffffff0100f2052a010000004341048e82199a721328a9f218d9cb4440fa5fc3d565beb8cd633d58664fed02cd9585d3f2ca1b79a470d6da985df20ccb2cb7938b26532d11c4fac3ba04b754b9c9b5ac00000000"
    }
  ]
}