{
  "hash": "00000000340aa68fb1905aed4d4f31dfe1cf560442506b6fd3227c81b8631488",
  "confirmations": 49563,
  "height": 3535,
  "version": 1,
  "versionHex": "00000001",
  "merkleroot": "153375ecd646491aadbccba5bf5b76557ae75c8a37d68e6b820d1106f95302e3",
  "time": 1234126435,
  "mediantime": 1234124126,
  "nonce": 153914828,
  "bits": "1d00ffff",
  "difficulty": 1,
  "chainwork": "00000000000000000000000000000000000000000000000000000dd00dd00dd0",
  "nTx": 1,
  "previousblockhash": "000000007077d3246c426993aa89e45aa5904da8dedfc6086b70f3d5ae039005",
  "nextblockhash": "00000000bf05c31b858ae12d66acbc7a8c31d2893d56c01299b6ed800587119a",
  "strippedsize": 216,
  "size": 216,
  "weight": 864,
  "tx": [
    {
      "txid": "153375ecd646491aadbccba5bf5b76557ae75c8a37d68e6b820d1106f95302e3",
      "hash": "153375ecd646491aadbccba5bf5b76557ae75c8a37d68e6b820d1106f95302e3",
      "version": 1,
      "size": 135,
      "vsize": 135,
      "weight": 540,
      "locktime": 0,
      "vin": [
        {
          "coinbase": "04ffff001d029700",
          "sequence": 4294967295
        }
      ],
      "vout": [
        {
          "value": 50.0,
          "n": 0,
          "scriptPubKey": {
            "asm": "04e769181f8715eebc33ff8519b3913615ab069e9f070d2a8d85ad504d45ada33657bd5fe172ce83db28dc117755b2087e7a015aa48a72c626da0f111f1bef1775 OP_CHECKSIG",
            "desc": "pk(04e769181f8715eebc33ff8519b3913615ab069e9f070d2a8d85ad504d45ada33657bd5fe172ce83db28dc117755b2087e7a015aa48a72c626da0f111f1bef1775)#8hxaqjww",
            "hex": "4104e769181f8715eebc33ff8519b3913615ab069e9f070d2a8d85ad504d45ada33657bd5fe172ce83db28dc117755b2087e7a015aa48a72c626da0f111f1bef1775ac",
            "type": "pubkey"
          }
        }
      ],
      "hex": "01000000010000000000000000000000000000000000000000000000000000000000000000ffffffff0804ffff001d029700ffffffff0100f2052a01000000434104e769181f8715eebc33ff8519b3913615ab069e9f070d2a8d85ad504d45ada33657bd5fe172ce83db28dc117755b2087e7a015aa48a72c626da0f111f1bef1775ac00000000"
    }
  ]
}