{
  "hash": "00000000981ca0dc378f6a82d52e1f9dbbc8bd6886c6207f2c4d9a92ffe37f93",
  "confirmations": 44878,
  "height": 8220,
  "version": 1,
  "versionHex": "00000001",
  "merkleroot": "e2259ac226938970080f7480111e340c9ebe3f85fcca8f54a3a7ab9740d938b8",
  "time": 1237638899,
  "mediantime": 1237628258,
  "nonce": 565926786,
  "bits": "1d00ffff",
  "difficulty": 1,
  "chainwork": "0000000000000000000000000000000000000000000000000000201d201d201d",
  "nTx": 1,
  "previousblockhash": "0000000015d7594fd18fff8fe61b933f47993da6f7bbe9b192ee0a9652fa9b21",
  "nextblockhash": "00000000ff01a6a381f5e801336233d4b9b5580ab45b692b69dd319f40569127",
  "strippedsize": 216,
  "size": 216,
  "weight": 864,
  "tx": [
    {
      "txid": "e2259ac226938970080f7480111e340c9ebe3f85fcca8f54a3a7ab9740d938b8",
      "hash": "e2259ac226938970080f7480111e340c9ebe3f85fcca8f54a3a7ab9740d938b8",
      "version": 1,
      "size": 135,
      "vsize": 135,
      "weight": 540,
      "locktime": 0,
      "vin": [
        {
          "coinbase": "04ffff001d022e02",
          "sequence": 4294967295
        }
      ],
      "vout": [
        {
          "value": 50.0,
          "n": 0,
          "scriptPubKey": {
            "asm": "04b0cce31ee3741243ca892abe015e3541d3ddfb41ef09ca1348e22c3855a7f0b44b575e30496e2d7703a0d85729ea0c5e1ffff73af90efe0d0598341b6d686f0c OP_CHECKSIG",
            "desc": "pk(04b0cce31ee3741243ca892abe015e3541d3ddfb41ef09ca1348e22c3855a7f0b44b575e30496e2d7703a0d85729ea0c5e1ffff73af90efe0d0598341b6d686f0c)#8th3tzdk",
            "hex": "4104b0cce31ee3741243ca892abe015e3541d3ddfb41ef09ca1348e22c3855a7f0b44b575e30496e2d7703a0d85729ea0c5e1ffff73af90efe0d0598341b6d686f0cac",
            "type": "pubkey"
          }
        }
      ],
      "hex": "01000000010000000000000000000000000000000000000000000000000000000000000000ffffffff0804ffff001d022e02ffffffff0100f2052a01000000434104b0cce31ee3741243ca892abe015e3541d3ddfb41ef09ca1348e22c3855a7f0b44b575e30496e2d7703a0d85729ea0c5e1ffff73af90efe0d0598341b6d686f0cac00000000"
    }
  ]
}