{
  "hash": "00000000809330f2851b51d33720a96fb9f1333fec63a306d626412d7115ab17",
  "confirmations": 51561,
  "height": 1537,
  "version": 1,
  "versionHex": "00000001",
  "merkleroot": "573de801b779cda3c1edf9dc0c938afdf75d602616a98bf361292665eb5f3111",
  "time": 1232783207,
  "mediantime": 1232781335,
  "nonce": 947900217,
  "bits": "1d00ffff",
  "difficulty": 1,
  "chainwork": "0000000000000000000000000000000000000000000000000000060206020602",
  "nTx": 1,
  "previousblockhash": "00000000e54ab466b9ff2411cd7fbafcbb94d129e8b77c23c7e5dc6ee70664b2",
  "nextblockhash": "00000000a05c1fab96a447ee20c205aa74a69c48569d8d4ff607fd56693a267c",
  "strippedsize": 216,
  "size": 216,
  "weight": 864,
  "tx": [
    {
      "txid": "573de801b779cda3c1edf9dc0c938afdf75d602616a98bf361292665eb5f3111",
      "hash": "573de801b779cda3c1edf9dc0c938afdf75d602616a98bf361292665eb5f3111",
      "version": 1,
      "size": 135,
      "vsize": 135,
      "weight": 540,
      "locktime": 0,
      "vin": [
        {
          "coinbase": "04ffff001d029501",
          "sequence": 4294967295
        }
      ],
      "vout": [
        {
          "value": 50.0,
          "n": 0,
          "scriptPubKey": {
            "asm": "043d4fd79338a37d575cba59d61004f122151974c974271ae6a5d0ac4f0f9cb6ab0baea6bedc3c64465354b2499cc00027d1eb86c7627be97f3fc11a7eb27445a3 OP_CHECKSIG",
            "desc": "pk(043d4fd79338a37d575cba59d61004f122151974c974271ae6a5d0ac4f0f9cb6ab0baea6bedc3c64465354b2499cc00027d1eb86c7627be97f3fc11a7eb27445a3)#fjxvhqe8",
            "hex": "41043d4fd79338a37d575cba59d61004f122151974c974271ae6a5d0ac4f0f9cb6ab0baea6bedc3c64465354b2499cc00027d1eb86c7627be97f3fc11a7eb27445a3ac",
            "type": "pubkey"
          }
        }
      ],
      "hex": "01000000010000000000000000000000000000000000000000000000000000000000000000ffffffff0804ffff001d029501ffffffff0100f2052a010000004341043d4fd79338a37d575cba59d61004f122151974c974271ae6a5d0ac4f0f9cb6ab0baea6bedc3c64465354b2499cc00027d1eb86c7627be97f3fc11a7eb27445a3ac00000000"
    }
  ]
}