{
  "hash": "000000002b7f6e55aab66535f20baac45b59440da8f82733eb5dfdb814988cb2",
  "confirmations": 46974,
  "height": 6124,
  "version": 1,
  "versionHex": "00000001",
  "merkleroot": "84154ffa7627880317941a3700cd8b0bd21bb8144f3899c75ec27fd6ecea1a8a",
  "time": 1236027979,
  "mediantime": 1236025066,
  "nonce": 2235054906,
  "bits": "1d00ffff",
  "difficulty": 1,
  "chainwork": "000000000000000000000000000000000000000000000000000017ed17ed17ed",
  "nTx": 1,
  "previousblockhash": "00000000a7571070a1f69887523caeda62228f27159fc2e6fbedd6faef6772ec",
  "nextblockhash": "0000000093ca739f386f6ce9687e5849aaadf3600d037e01bf92a7a8183dd313",
  "strippedsize": 216,
  "size": 216,
  "weight": 864,
  "tx": [
    {
      "txid": "84154ffa7627880317941a3700cd8b0bd21bb8144f3899c75ec27fd6ecea1a8a",
      "hash": "84154ffa7627880317941a3700cd8b0bd21bb8144f3899c75ec27fd6ecea1a8a",
      "version": 1,
      "size": 135,
      "vsize": 135,
      "weight": 540,
      "locktime": 0,
      "vin": [
        {
          "coinbase": "04ffff001d023d07",
          "sequence": 4294967295
        }
      ],
      "vout": [
        {
          "value": 50.0,
          "n": 0,
          "scriptPubKey": {
            "asm": "0401b7ba8dabb8de8cf5b9c8a20e628048fcb3c368b72227ec0bbabd8a155678906cb2b06685a007a805be1a3430ecb1c6fa7432ac6f8c9cef7d3d8473f419fb89 OP_CHECKSIG",
            "desc": "pk(0401b7ba8dabb8de8cf5b9c8a20e628048fcb3c368b72227ec0bbabd8a155678906cb2b06685a007a805be1a3430ecb1c6fa7432ac6f8c9cef7d3d8473f419fb89)#pus9fsuc",
            "hex": "410401b7ba8dabb8de8cf5b9c8a20e628048fcb3c368b72227ec0bbabd8a155678906cb2b06685a007a805be1a3430ecb1c6fa7432ac6f8c9cef7d3d8473f419fb89ac",
            "type": "pubkey"
          }
        }
      ],
      "hex": "01000000010000000000000000000000000000000000000000000000000000000000000000ffffffff0804ffff001d023d07ffffffff0100f2052a0100000043410401b7ba8dabb8de8cf5b9c8a20e628048fcb3c368b72227ec0bbabd8a155678906cb2b06685a007a805be1a3430ecb1c6fa7432ac6f8c9cef7d3d8473f419fb89ac00000000"
    }
  ]
}