{
  "hash": "0000000090adb31fc879d5379a5ac986f9800e840fd73bc6bba824fabf3ad225",
  "confirmations": 49377,
  "height": 3721,
  "version": 1,
  "versionHex": "00000001",
  "merkleroot": "ee8322d990673428fbe9ba74a6705a2c3fb0de8597e564c6a482387b4fbef158",
  "time": 1234248131,
  "mediantime": 1234243285,
  "nonce": 266623100,
  "bits": "1d00ffff",
  "difficulty": 1,
  "chainwork": "00000000000000000000000000000000000000000000000000000e8a0e8a0e8a",
  "nTx": 1,
  "previousblockhash": "00000000b64e8c9993582a248b929fd8892d43a1d4d82e316c916ba77b997acd",
  "nextblockhash": "00000000b6212607842d539ad5dd946a0103651d314ab149cd4c291bffa55311",
  "strippedsize": 215,
  "size": 215,
  "weight": 860,
  "tx": [
    {
      "txid": "ee8322d990673428fbe9ba74a6705a2c3fb0de8597e564c6a482387b4fbef158",
      "hash": "ee8322d990673428fbe9ba74a6705a2c3fb0de8597e564c6a482387b4fbef158",
      "version": 1,
      "size": 134,
      "vsize": 134,
      "weight": 536,
      "locktime": 0,
      "vin": [
        {
          "coinbase": "04ffff001d012a",
          "sequence": 4294967295
        }
      ],
      "vout": [
        {
          "value": 50.0,
          "n": 0,
          "scriptPubKey": {
            "asm": "0444a33e5008fd61e816e2d6e77ec89b468623c09cff44c4c0b6e7476ac9cbd0f552bdf4ea1e391abe6181547588575f1a938b260f3a1abf7eeee81f72fb0a3cfd OP_CHECKSIG",
            "desc": "pk(0444a33e5008fd61e816e2d6e77ec89b468623c09cff44c4c0b6e7476ac9cbd0f552bdf4ea1e391abe6181547588575f1a938b260f3a1abf7eeee81f72fb0a3cfd)#ekf8lpmw",
            "hex": "410444a33e5008fd61e816e2d6e77ec89b468623c09cff44c4c0b6e7476ac9cbd0f552bdf4ea1e391abe6181547588575f1a938b260f3a1abf7eeee81f72fb0a3cfdac",
            "type": "pubkey"
          }
        }
      ],
      "hex": "01000000010000000000000000000000000000000000000000000000000000000000000000ffffffff0704ffff001d012affffffff0100f2052a0100000043410444a33e5008fd61e816e2d6e77ec89b468623c09cff44c4c0b6e7476ac9cbd0f552bdf4ea1e391abe6181547588575f1a938b260f3a1abf7eeee81f72fb0a3cfdac00000000"
    }
  ]
}