{
  "hash": "00000000a4a82c938d12c1a4fa65d98e40183ad33805c40b3654775082f19273",
  "confirmations": 51587,
  "height": 1511,
  "version": 1,
  "versionHex": "00000001",
  "merkleroot": "f29d116999d36bcb7a1a351ff7cb7b91a75edb3b9882a28aab079e1279d695d0",
  "time": 1232772878,
  "mediantime": 1232771110,
  "nonce": 2739787577,
  "bits": "1d00ffff",
  "difficulty": 1,
  "chainwork": "000000000000000000000000000000000000000000000000000005e805e805e8",
  "nTx": 1,
  "previousblockhash": "0000000035c87619e4408443c2791f30d3d27c7252739b3af85e910ab2c50306",
  "nextblockhash": "00000000dee2dd1ce1241d4b839cf62c51baa75e4e004ac839e8e20b6f22c535",
  "strippedsize": 216,
  "size": 216,
  "weight": 864,
  "tx": [
    {
      "txid": "f29d116999d36bcb7a1a351ff7cb7b91a75edb3b9882a28aab079e1279d695d0",
      "hash": "f29d116999d36bcb7a1a351ff7cb7b91a75edb3b9882a28aab079e1279d695d0",
      "version": 1,
      "size": 135,
      "vsize": 135,
      "weight": 540,
      "locktime": 0,
      "vin": [
        {
          "coinbase": "04ffff001d023c01",
          "sequence": 4294967295
        }
      ],
      "vout": [
        {
          "value": 50.0,
          "n": 0,
          "scriptPubKey": {
            "asm": "0414bd11f3bb8a716aa72644d1f6802c29d4806cd02acfc77f07d80e01d1aa2de64785170b3ba88c8a73d067735349068ea7b1690de5f8ccc5b7db692ed1778fb7 OP_CHECKSIG",
            "desc": "pk(0414bd11f3bb8a716aa72644d1f6802c29d4806cd02acfc77f07d80e01d1aa2de64785170b3ba88c8a73d067735349068ea7b1690de5f8ccc5b7db692ed1778fb7)#m9r9mwds",
            "hex": "410414bd11f3bb8a716aa72644d1f6802c29d4806cd02acfc77f07d80e01d1aa2de64785170b3ba88c8a73d067735349068ea7b1690de5f8ccc5b7db692ed1778fb7ac",
            "type": "pubkey"
          }
        }
      ],
      "hex": "01000000010000000000000000000000000000000000000000000000000000000000000000ffffffff0804ffff001d023c01ffffffff0100f2052a0100000043410414bd11f3bb8a716aa72644d1f6802c29d4806cd02acfc77f07d80e01d1aa2de64785170b3ba88c8a73d067735349068ea7b1690de5f8ccc5b7db692ed1778fb7ac00000000"
    }
  ]
}