{
  "hash": "0000000005e8f18e86f55c587101ea0234542e505c81e8118ca1ef6e07a7f261",
  "confirmations": 46875,
  "height": 6223,
  "version": 1,
  "versionHex": "00000001",
  "merkleroot": "2088108f799cfb6f6c8460481272bea9f5d6a836c1e64cd59ed8806ec75b8d4b",
  "time": 1236109437,
  "mediantime": 1236105158,
  "nonce": 1471826230,
  "bits": "1d00ffff",
  "difficulty": 1,
  "chainwork": "0000000000000000000000000000000000000000000000000000185018501850",
  "nTx": 1,
  "previousblockhash": "000000002426866050252405485d89a58df2f51faab9ec30c9c99b775e389378",
  "nextblockhash": "00000000ce58ddb0014222910ec24be4ce393d4319b58ccf1ea02c74891e8c58",
  "strippedsize": 216,
  "size": 216,
  "weight": 864,
  "tx": [
    {
      "txid": "2088108f799cfb6f6c8460481272bea9f5d6a836c1e64cd59ed8806ec75b8d4b",
      "hash": "2088108f799cfb6f6c8460481272bea9f5d6a836c1e64cd59ed8806ec75b8d4b",
      "version": 1,
      "size": 135,
      "vsize": 135,
      "weight": 540,
      "locktime": 0,
      "vin": [
        {
          "coinbase": "04ffff001d02ee08",
          "sequence": 4294967295
        }
      ],
      "vout": [
        {
          "value": 50.0,
          "n": 0,
          "scriptPubKey": {
            "asm": "04946d8e4ac8d1c819987b445167a54e923ea7a6d25654f030ad63b4b41409810fbd7bf8278b994de1f9ccacfe44f2803ad5f07def7ebb0194954e9d56f851cd36 OP_CHECKSIG",
            "desc": "pk(04946d8e4ac8d1c819987b445167a54e923ea7a6d25654f030ad63b4b41409810fbd7bf8278b994de1f9ccacfe44f2803ad5f07def7ebb0194954e9d56f851cd36)#s0neqyun",
            "hex": "4104946d8e4ac8d1c819987b445167a54e923ea7a6d25654f030ad63b4b41409810fbd7bf8278b994de1f9ccacfe44f2803ad5f07def7ebb0194954e9d56f851cd36ac",
            "type": "pubkey"
          }
        }
      ],
      "hex": "01000000010000000000000000000000000000000000000000000000000000000000000000ffffffff0804ffff001d02ee08ffffffff0100f2052a01000000434104946d8e4ac8d1c819987b445167a54e923ea7a6d25654f030ad63b4b41409810fbd7bf8278b994de1f9ccacfe44f2803ad5f07def7ebb0194954e9d56f851cd36ac00000000"
    }
  ]
}