{
  "hash": "000000000e671cb83d9978cd9487e52a6c64c20054eaa1fcbc9c9a510222f9f1",
  "confirmations": 44322,
  "height": 8776,
  "version": 1,
  "versionHex": "00000001",
  "merkleroot": "9f1e504fcc1166f2e6b67d67c369273ae3e49ab87bdd0aed80be1407e9e9eb27",
  "time": 1238082267,
  "mediantime": 1238077929,
  "nonce": 426085663,
  "bits": "1d00ffff",
  "difficulty": 1,
  "chainwork": "0000000000000000000000000000000000000000000000000000224922492249",
  "nTx": 1,
  "previousblockhash": "000000002c304a01535a30cf525dec0c3bbfa362f6ed4b097913bc0ff15b55d4",
  "nextblockhash": "0000000096d8c76027a64ef1b9dbf12737ffad0a05fcd7cf33f68bb74e11b78d",
  "strippedsize": 216,
  "size": 216,
  "weight": 864,
  "tx": [
    {
      "txid": "9f1e504fcc1166f2e6b67d67c369273ae3e49ab87bdd0aed80be1407e9e9eb27",
      "hash": "9f1e504fcc1166f2e6b67d67c369273ae3e49ab87bdd0aed80be1407e9e9eb27",
      "version": 1,
      "size": 135,
      "vsize": 135,
      "weight": 540,
      "locktime": 0,
      "vin": [
        {
          "coinbase": "04ffff001d022a02",
          "sequence": 4294967295
        }
      ],
      "vout": [
        {
          "value": 50.0,
          "n": 0,
          "scriptPubKey": {
            "asm": "045e1d5c1920b9934eed806b15082b64083396804f06c473e87239131b3586fa5d87c4def36fea83e91ce7eb7d7ec56c866e3a40f8048421f4ad305d4968e32438 OP_CHECKSIG",
            "desc": "pk(045e1d5c1920b9934eed806b15082b64083396804f06c473e87239131b3586fa5d87c4def36fea83e91ce7eb7d7ec56c866e3a40f8048421f4ad305d4968e32438)#zvhr845z",
            "hex": "41045e1d5c1920b9934eed806b15082b64083396804f06c473e87239131b3586fa5d87c4def36fea83e91ce7eb7d7ec56c866e3a40f8048421f4ad305d4968e32438ac",
            "type": "pubkey"
          }
        }
      ],
      "hex": "01000000010000000000000000000000000000000000000000000000000000000000000000ffffffff0804ffff001d022a02ffffffff0100f2052a010000004341045e1d5c1920b9934eed806b15082b64083396804f06c473e87239131b3586fa5d87c4def36fea83e91ce7eb7d7ec56c866e3a40f8048421f4ad305d4968e32438ac00000000"
    }
  ]
}