{
  "hash": "0000000011f86d80ca78308b01a7466c905b8ed7bda4ce85ea2d36d15244faa6",
  "confirmations": 50187,
  "height": 2911,
  "version": 1,
  "versionHex": "00000001",
  "merkleroot": "4a39e38a09c7fb7c0db6d1058a1d7024914ac114473e25092f03cfeb4fe47be7",
  "time": 1233699151,
  "mediantime": 1233695486,
  "nonce": 79711784,
  "bits": "1d00ffff",
  "difficulty": 1,
  "chainwork": "00000000000000000000000000000000000000000000000000000b600b600b60",
  "nTx": 1,
  "previousblockhash": "000000009a102824511c4bb8346b68066ee0e1d5ac470e841a7f95d218ad3c8f",
  "nextblockhash": "00000000ecc497948551055d2df1f67f2c0798c86dc2a8cf52f8eed84d14995d",
  "strippedsize": 216,
  "size": 216,
  "weight": 864,
  "tx": [
    {
      "txid": "4a39e38a09c7fb7c0db6d1058a1d7024914ac114473e25092f03cfeb4fe47be7",
      "hash": "4a39e38a09c7fb7c0db6d1058a1d7024914ac114473e25092f03cfeb4fe47be7",
      "version": 1,
      "size": 135,
      "vsize": 135,
      "weight": 540,
      "locktime": 0,
      "vin": [
        {
          "coinbase": "04ffff001d028607",
          "sequence": 4294967295
        }
      ],
      "vout": [
        {
          "value": 50.0,
          "n": 0,
          "scriptPubKey": {
            "asm": "04afe8953077b971d113ebfa0579c73faaecfe6df67353141f5e8bf90af449da95b83d18d91a87ecd3dd80dacaffa88af667a0a9ae356e0387f84cc43f78060116 OP_CHECKSIG",
            "desc": "pk(04afe8953077b971d113ebfa0579c73faaecfe6df67353141f5e8bf90af449da95b83d18d91a87ecd3dd80dacaffa88af667a0a9ae356e0387f84cc43f78060116)#497mj68t",
            "hex": "4104afe8953077b971d113ebfa0579c73faaecfe6df67353141f5e8bf90af449da95b83d18d91a87ecd3dd80dacaffa88af667a0a9ae356e0387f84cc43f78060116ac",
            "type": "pubkey"
          }
        }
      ],
      "hex": "01000000010000000000000000000000000000000000000000000000000000000000000000ffffffff0804ffff001d028607ffffffff0100f2052a01000000434104afe8953077b971d113ebfa0579c73faaecfe6df67353141f5e8bf90af449da95b83d18d91a87ecd3dd80dacaffa88af667a0a9ae356e0387f84cc43f78060116ac00000000"
    }
  ]
}