{
  "hash": "000000009b1f8113a6b692738f264a8c2b2615bfc1c68062828d13e3cec82e04",
  "confirmations": 44611,
  "height": 8487,
  "version": 1,
  "versionHex": "00000001",
  "merkleroot": "2c577478ce718b0f06c5e0e2d1489f0b08a2bd6bab76bee9dd93cae8ee75a168",
  "time": 1237860632,
  "mediantime": 1237855987,
  "nonce": 3318879538,
  "bits": "1d00ffff",
  "difficulty": 1,
  "chainwork": "0000000000000000000000000000000000000000000000000000212821282128",
  "nTx": 1,
  "previousblockhash": "00000000a100c2683a24dce9baa57ea903133e25915b91f8b92fa69c0d24cef6",
  "nextblockhash": "00000000cc38146771a93a6025cffbcbdd26e106a9ce76dbe4c8bd8224e0a05d",
  "strippedsize": 216,
  "size": 216,
  "weight": 864,
  "tx": [
    {
      "txid": "2c577478ce718b0f06c5e0e2d1489f0b08a2bd6bab76bee9dd93cae8ee75a168",
      "hash": "2c577478ce718b0f06c5e0e2d1489f0b08a2bd6bab76bee9dd93cae8ee75a168",
      "version": 1,
      "size": 135,
      "vsize": 135,
      "weight": 540,
      "locktime": 0,
      "vin": [
        {
          "coinbase": "04ffff001d028207",
          "sequence": 4294967295
        }
      ],
      "vout": [
        {
          "value": 50.0,
          "n": 0,
          "scriptPubKey": {
            "asm": "04a8d5cd8574ddabb3740d997102f2b2f21796d053f704235e2eb13cb3a7cf2a6523ba4f7ef2265d8fb2c28168669a6c6d9048b9972130b967f6a93de01450e355 OP_CHECKSIG",
            "desc": "pk(04a8d5cd8574ddabb3740d997102f2b2f21796d053f704235e2eb13cb3a7cf2a6523ba4f7ef2265d8fb2c28168669a6c6d9048b9972130b967f6a93de01450e355)#s2s2urdk",
            "hex": "4104a8d5cd8574ddabb3740d997102f2b2f21796d053f704235e2eb13cb3a7cf2a6523ba4f7ef2265d8fb2c28168669a6c6d9048b9972130b967f6a93de01450e355ac",
            "type": "pubkey"
          }
        }
      ],
      "hex": "01000000010000000000000000000000000000000000000000000000000000000000000000ffffffff0804ffff001d028207ffffffff0100f2052a01000000434104a8d5cd8574ddabb3740d997102f2b2f21796d053f704235e2eb13cb3a7cf2a6523ba4f7ef2265d8fb2c28168669a6c6d9048b9972130b967f6a93de01450e355ac00000000"
    }
  ]
}