{
  "hash": "00000000dc1aca742f8e8192fd60e9ec882a3ce0e65015a73b18034a90aebf15",
  "confirmations": 47313,
  "height": 5785,
  "version": 1,
  "versionHex": "00000001",
  "merkleroot": "3666e682436c3ee56646dc35c6b74b89e72d09ee7f54e69f00176f6e102f365c",
  "time": 1235749426,
  "mediantime": 1235744731,
  "nonce": 1998296345,
  "bits": "1d00ffff",
  "difficulty": 1,
  "chainwork": "0000000000000000000000000000000000000000000000000000169a169a169a",
  "nTx": 1,
  "previousblockhash": "00000000ded964897b5102b2e70a685fde945ad88405e657cd8406e1f519a404",
  "nextblockhash": "0000000082512ffda27fd65932cf4bab94dc7d667f483a1c1a2acf2029d90f0b",
  "strippedsize": 216,
  "size": 216,
  "weight": 864,
  "tx": [
    {
      "txid": "3666e682436c3ee56646dc35c6b74b89e72d09ee7f54e69f00176f6e102f365c",
      "hash": "3666e682436c3ee56646dc35c6b74b89e72d09ee7f54e69f00176f6e102f365c",
      "version": 1,
      "size": 135,
      "vsize": 135,
      "weight": 540,
      "locktime": 0,
      "vin": [
        {
          "coinbase": "04ffff001d028500",
          "sequence": 4294967295
        }
      ],
      "vout": [
        {
          "value": 50.0,
          "n": 0,
          "scriptPubKey": {
            "asm": "0433668ea69bc424bf24cd08a67437211ec1de6d45834698fec1d36a44401a83df72351c5ae334fcb19455c78793d3ae6b74561997147768db9b5059766d51c097 OP_CHECKSIG",
            "desc": "pk(0433668ea69bc424bf24cd08a67437211ec1de6d45834698fec1d36a44401a83df72351c5ae334fcb19455c78793d3ae6b74561997147768db9b5059766d51c097)#8r9u4vf3",
            "hex": "410433668ea69bc424bf24cd08a67437211ec1de6d45834698fec1d36a44401a83df72351c5ae334fcb19455c78793d3ae6b74561997147768db9b5059766d51c097ac",
            "type": "pubkey"
          }
        }
      ],
      "hex": "01000000010000000000000000000000000000000000000000000000000000000000000000ffffffff0804ffff001d028500ffffffff0100f2052a0100000043410433668ea69bc424bf24cd08a67437211ec1de6d45834698fec1d36a44401a83df72351c5ae334fcb19455c78793d3ae6b74561997147768db9b5059766d51c097ac00000000"
    }
  ]
}