{
  "hash": "00000000ad891f0b0b3b40cf8a2e5453947cbfcae49caa6e01d6f9e0165cd599",
  "confirmations": 49573,
  "height": 3525,
  "version": 1,
  "versionHex": "00000001",
  "merkleroot": "36e5c2125085997a2a042c67e45f16d7f0f9458bd7be4986415a00d234d5a878",
  "time": 1234119644,
  "mediantime": 1234116293,
  "nonce": 1731042352,
  "bits": "1d00ffff",
  "difficulty": 1,
  "chainwork": "00000000000000000000000000000000000000000000000000000dc60dc60dc6",
  "nTx": 1,
  "previousblockhash": "000000005287f0691e716edb27dfff2ff55f085ddb338657d107db1115aa8dfc",
  "nextblockhash": "000000006a6bff857a90e9b7de8e1652a4929e2ef7d7a5b61c659f57640663ea",
  "strippedsize": 216,
  "size": 216,
  "weight": 864,
  "tx": [
    {
      "txid": "36e5c2125085997a2a042c67e45f16d7f0f9458bd7be4986415a00d234d5a878",
      "hash": "36e5c2125085997a2a042c67e45f16d7f0f9458bd7be4986415a00d234d5a878",
      "version": 1,
      "size": 135,
      "vsize": 135,
      "weight": 540,
      "locktime": 0,
      "vin": [
        {
          "coinbase": "04ffff001d029407",
          "sequence": 4294967295
        }
      ],
      "vout": [
        {
          "value": 50.0,
          "n": 0,
          "scriptPubKey": {
            "asm": "04f4238dde4a556c8c8e31a912a7eba4f4e34674fe8b99affb60c475ae7768e39419704fb04384550dc43da50a49ea794cdb68f40abe8fdfe5e75a4c3f7aae96be OP_CHECKSIG",
            "desc": "pk(04f4238dde4a556c8c8e31a912a7eba4f4e34674fe8b99affb60c475ae7768e39419704fb04384550dc43da50a49ea794cdb68f40abe8fdfe5e75a4c3f7aae96be)#qk7k2cr9",
            "hex": "4104f4238dde4a556c8c8e31a912a7eba4f4e34674fe8b99affb60c475ae7768e39419704fb04384550dc43da50a49ea794cdb68f40abe8fdfe5e75a4c3f7aae96beac",
            "type": "pubkey"
          }
        }
      ],
      "hex": "01000000010000000000000000000000000000000000000000000000000000000000000000ffffffff0804ffff001d029407ffffffff0100f2052a01000000434104f4238dde4a556c8c8e31a912a7eba4f4e34674fe8b99affb60c475ae7768e39419704fb04384550dc43da50a49ea794cdb68f40abe8fdfe5e75a4c3f7aae96beac00000000"
    }
  ]
}