{
  "hash": "000000003024fcc0de00e9af302c8bf69b0c625eea0ac3502fb25adb935b652c",
  "confirmations": 51035,
  "height": 2063,
  "version": 1,
  "versionHex": "00000001",
  "merkleroot": "1adb62bc17687573f27c58f85e523a220f44ef468b54adbf7e82d77ee16fe933",
  "time": 1233107385,
  "mediantime": 1233103080,
  "nonce": 655503404,
  "bits": "1d00ffff",
  "difficulty": 1,
  "chainwork": "0000000000000000000000000000000000000000000000000000081008100810",
  "nTx": 1,
  "previousblockhash": "00000000d34199387862c42561031f5b25cc35bb9895e53dd07e30508748ced8",
  "nextblockhash": "00000000184d61d43e667b4aebe6224e0a3265a2be87048b7924d7339de6095d",
  "strippedsize": 216,
  "size": 216,
  "weight": 864,
  "tx": [
    {
      "txid": "1adb62bc17687573f27c58f85e523a220f44ef468b54adbf7e82d77ee16fe933",
      "hash": "1adb62bc17687573f27c58f85e523a220f44ef468b54adbf7e82d77ee16fe933",
      "version": 1,
      "size": 135,
      "vsize": 135,
      "weight": 540,
      "locktime": 0,
      "vin": [
        {
          "coinbase": "04ffff001d020303",
          "sequence": 4294967295
        }
      ],
      "vout": [
        {
          "value": 50.0,
          "n": 0,
          "scriptPubKey": {
            "asm": "0464d5c24da473f662bdfab349bdbd08e2cd5283079c3dbea3509db61db524564fb1969b7e82b6609cf7ba7377209f52809f00d148cb6e611ff396b94d5b198255 OP_CHECKSIG",
            "desc": "pk(0464d5c24da473f662bdfab349bdbd08e2cd5283079c3dbea3509db61db524564fb1969b7e82b6609cf7ba7377209f52809f00d148cb6e611ff396b94d5b198255)#d8glhulu",
            "hex": "410464d5c24da473f662bdfab349bdbd08e2cd5283079c3dbea3509db61db524564fb1969b7e82b6609cf7ba7377209f52809f00d148cb6e611ff396b94d5b198255ac",
            "type": "pubkey"
          }
        }
      ],
      "hex": "01000000010000000000000000000000000000000000000000000000000000000000000000ffffffff0804ffff001d020303ffffffff0100f2052a0100000043410464d5c24da473f662bdfab349bdbd08e2cd5283079c3dbea3509db61db524564fb1969b7e82b6609cf7ba7377209f52809f00d148cb6e611ff396b94d5b198255ac00000000"
    }
  ]
}