{
  "hash": "00000000a6fc949b6c31948835a2678cfdd38679deb9575ddd9ae34d9db0f258",
  "confirmations": 47166,
  "height": 5932,
  "version": 1,
  "versionHex": "00000001",
  "merkleroot": "f6f526dfac60f8a7d386944b0eba745c44b5edddb813b649238c241a2a6a64dd",
  "time": 1235873174,
  "mediantime": 1235868640,
  "nonce": 4201769,
  "bits": "1d00ffff",
  "difficulty": 1,
  "chainwork": "0000000000000000000000000000000000000000000000000000172d172d172d",
  "nTx": 1,
  "previousblockhash": "00000000098e963428886a8ce592bf6cdc4ab78e23704a357ea2bc560337611e",
  "nextblockhash": "0000000036a940c9b689d08f6cfe4a3fff610ed07af0b53d3d81ba97ee717ea0",
  "strippedsize": 216,
  "size": 216,
  "weight": 864,
  "tx": [
    {
      "txid": "f6f526dfac60f8a7d386944b0eba745c44b5edddb813b649238c241a2a6a64dd",
      "hash": "f6f526dfac60f8a7d386944b0eba745c44b5edddb813b649238c241a2a6a64dd",
      "version": 1,
      "size": 135,
      "vsize": 135,
      "weight": 540,
      "locktime": 0,
      "vin": [
        {
          "coinbase": "04ffff001d02ae03",
          "sequence": 4294967295
        }
      ],
      "vout": [
        {
          "value": 50.0,
          "n": 0,
          "scriptPubKey": {
            "asm": "04b8d9d3795f7d30007eb3bd3e18b65c344809a8b8ae33d8e35fc3aa939ba4ec51d25d5229952e9b36b435fc2bfeee393a3029af87527c411c861af89bd569ff94 OP_CHECKSIG",
            "desc": "pk(04b8d9d3795f7d30007eb3bd3e18b65c344809a8b8ae33d8e35fc3aa939ba4ec51d25d5229952e9b36b435fc2bfeee393a3029af87527c411c861af89bd569ff94)#50hj8xmv",
            "hex": "4104b8d9d3795f7d30007eb3bd3e18b65c344809a8b8ae33d8e35fc3aa939ba4ec51d25d5229952e9b36b435fc2bfeee393a3029af87527c411c861af89bd569ff94ac",
            "type": "pubkey"
          }
        }
      ],
      "hex": "01000000010000000000000000000000000000000000000000000000000000000000000000ffffffff0804ffff001d02ae03ffffffff0100f2052a01000000434104b8d9d3795f7d30007eb3bd3e18b65c344809a8b8ae33d8e35fc3aa939ba4ec51d25d5229952e9b36b435fc2bfeee393a3029af87527c411c861af89bd569ff94ac00000000"
    }
  ]
}