{
  "hash": "000000006d30b804fed339990eaa5651ad7633bed1a626473e46c3d148fe4227",
  "confirmations": 47016,
  "height": 6082,
  "version": 1,
  "versionHex": "00000001",
  "merkleroot": "95bd985110616fbb504d42192152740ac79478075ddffab1506c23a968cafd4e",
  "time": 1235994722,
  "mediantime": 1235991247,
  "nonce": 3574175767,
  "bits": "1d00ffff",
  "difficulty": 1,
  "chainwork": "000000000000000000000000000000000000000000000000000017c317c317c3",
  "nTx": 1,
  "previousblockhash": "000000001f12696b387ea4b5485c1c27392e2c75718d1dcadc44e055105ce190",
  "nextblockhash": "00000000ae0070e0a2b1132c2ba236572f25c925b0ebe2c3394db845f19b2c8a",
  "strippedsize": 216,
  "size": 216,
  "weight": 864,
  "tx": [
    {
      "txid": "95bd985110616fbb504d42192152740ac79478075ddffab1506c23a968cafd4e",
      "hash": "95bd985110616fbb504d42192152740ac79478075ddffab1506c23a968cafd4e",
      "version": 1,
      "size": 135,
      "vsize": 135,
      "weight": 540,
      "locktime": 0,
      "vin": [
        {
          "coinbase": "04ffff001d026a06",
          "sequence": 4294967295
        }
      ],
      "vout": [
        {
          "value": 50.0,
          "n": 0,
          "scriptPubKey": {
            "asm": "04654d71442077a497a220adb2c4867e4692018670cae8b1c870c8c2aefef4f33df91f379140fce2df8afdddf92e31108eac5c6d46eb9e39a0c2de51468b6e93f1 OP_CHECKSIG",
            "desc": "pk(04654d71442077a497a220adb2c4867e4692018670cae8b1c870c8c2aefef4f33df91f379140fce2df8afdddf92e31108eac5c6d46eb9e39a0c2de51468b6e93f1)#xap6hrzl",
            "hex": "4104654d71442077a497a220adb2c4867e4692018670cae8b1c870c8c2aefef4f33df91f379140fce2df8afdddf92e31108eac5c6d46eb9e39a0c2de51468b6e93f1ac",
            "type": "pubkey"
          }
        }
      ],
      "hex": "01000000010000000000000000000000000000000000000000000000000000000000000000ffffffff0804ffff001d026a06ffffffff0100f2052a01000000434104654d71442077a497a220adb2c4867e4692018670cae8b1c870c8c2aefef4f33df91f379140fce2df8afdddf92e31108eac5c6d46eb9e39a0c2de51468b6e93f1ac00000000"
    }
  ]
}