{
  "hash": "00000000f2240fb9174dad96d3e4fa5a392ba81c048c76d1e5f8ea313ec2ea33",
  "confirmations": 43628,
  "height": 9470,
  "version": 1,
  "versionHex": "00000001",
  "merkleroot": "0849d5c8b1da88f767307382bc37d80bb8eb36cff84db8c2055d764103c48ac9",
  "time": 1238606324,
  "mediantime": 1238602542,
  "nonce": 2113314098,
  "bits": "1d00ffff",
  "difficulty": 1,
  "chainwork": "000000000000000000000000000000000000000000000000000024ff24ff24ff",
  "nTx": 1,
  "previousblockhash": "00000000c29b2595b46321efd07066a4d3d94db1b71302e40907ef3c720b274b",
  "nextblockhash": "000000008d8d39fdb99089b013d9fb527af43763f77411fad9c682c755a9ab89",
  "strippedsize": 216,
  "size": 216,
  "weight": 864,
  "tx": [
    {
      "txid": "0849d5c8b1da88f767307382bc37d80bb8eb36cff84db8c2055d764103c48ac9",
      "hash": "0849d5c8b1da88f767307382bc37d80bb8eb36cff84db8c2055d764103c48ac9",
      "version": 1,
      "size": 135,
      "vsize": 135,
      "weight": 540,
      "locktime": 0,
      "vin": [
        {
          "coinbase": "04ffff001d02d704",
          "sequence": 4294967295
        }
      ],
      "vout": [
        {
          "value": 50.0,
          "n": 0,
          "scriptPubKey": {
            "asm": "04e3251961ed3d6b37a41341dd403af1962a20dc3cb0213d6fda24d6f945ba0050eb8b9a3a68f47df613f2230d24f8b31ec4f0aa7032bcad0e1ffafb54b4be3bd1 OP_CHECKSIG",
            "desc": "pk(04e3251961ed3d6b37a41341dd403af1962a20dc3cb0213d6fda24d6f945ba0050eb8b9a3a68f47df613f2230d24f8b31ec4f0aa7032bcad0e1ffafb54b4be3bd1)#zpth34c9",
            "hex": "4104e3251961ed3d6b37a41341dd403af1962a20dc3cb0213d6fda24d6f945ba0050eb8b9a3a68f47df613f2230d24f8b31ec4f0aa7032bcad0e1ffafb54b4be3bd1ac",
            "type": "pubkey"
          }
        }
      ],
      "hex": "01000000010000000000000000000000000000000000000000000000000000000000000000ffffffff0804ffff001d02d704ffffffff0100f2052a01000000434104e3251961ed3d6b37a41341dd403af1962a20dc3cb0213d6fda24d6f945ba0050eb8b9a3a68f47df613f2230d24f8b31ec4f0aa7032bcad0e1ffafb54b4be3bd1ac00000000"
    }
  ]
}