{
  "hash": "00000000249676c42655bf8af5caec8d41bd5e2fa3fe736f163a4262b4ed8fe4",
  "confirmations": 43449,
  "height": 9649,
  "version": 1,
  "versionHex": "00000001",
  "merkleroot": "f4bc05f49b419f19b1b258c05d17646ac2feae57f9da3b50408c572b7f274975",
  "time": 1238739660,
  "mediantime": 1238735829,
  "nonce": 2775283992,
  "bits": "1d00ffff",
  "difficulty": 1,
  "chainwork": "000000000000000000000000000000000000000000000000000025b225b225b2",
  "nTx": 1,
  "previousblockhash": "00000000cfc1106fedfe17720e78aaa65f8cc72cc83a216604666f5a738b0b8b",
  "nextblockhash": "0000000057a454272b22d687594e25aacbd3db16be45fa1dbcb71fb6d1514cce",
  "strippedsize": 216,
  "size": 216,
  "weight": 864,
  "tx": [
    {
      "txid": "f4bc05f49b419f19b1b258c05d17646ac2feae57f9da3b50408c572b7f274975",
      "hash": "f4bc05f49b419f19b1b258c05d17646ac2feae57f9da3b50408c572b7f274975",
      "version": 1,
      "size": 135,
      "vsize": 135,
      "weight": 540,
      "locktime": 0,
      "vin": [
        {
          "coinbase": "04ffff001d02b307",
          "sequence": 4294967295
        }
      ],
      "vout": [
        {
          "value": 50.0,
          "n": 0,
          "scriptPubKey": {
            "asm": "044101313e23a4e50da1fa95b34ccd8ba4bc97d7e3d3c3bb74e671f335ecf194cc3a8013e33e2b1502b635fd94c993fe288691bb78361745d4a88aa6b6c92de80b OP_CHECKSIG",
            "desc": "pk(044101313e23a4e50da1fa95b34ccd8ba4bc97d7e3d3c3bb74e671f335ecf194cc3a8013e33e2b1502b635fd94c993fe288691bb78361745d4a88aa6b6c92de80b)#dy6xz7ea",
            "hex": "41044101313e23a4e50da1fa95b34ccd8ba4bc97d7e3d3c3bb74e671f335ecf194cc3a8013e33e2b1502b635fd94c993fe288691bb78361745d4a88aa6b6c92de80bac",
            "type": "pubkey"
          }
        }
      ],
      "hex": "01000000010000000000000000000000000000000000000000000000000000000000000000ffffffff0804ffff001d02b307ffffffff0100f2052a010000004341044101313e23a4e50da1fa95b34ccd8ba4bc97d7e3d3c3bb74e671f335ecf194cc3a8013e33e2b1502b635fd94c993fe288691bb78361745d4a88aa6b6c92de80bac00000000"
    }
  ]
}