{
  "hash": "0000000058f437720be706c70fd716ceb07110ea74402c9921b093815ad685d7",
  "confirmations": 52184,
  "height": 437,
  "version": 1,
  "versionHex": "00000001",
  "merkleroot": "3afb973177f5fc9a68036d1bede0cb163487d1fbd5c8973db7a1cbecacc5a714",
  "time": 1231927300,
  "mediantime": 1231923277,
  "nonce": 2187505972,
  "bits": "1d00ffff",
  "difficulty": 1,
  "chainwork": "000000000000000000000000000000000000000000000000000001b601b601b6",
  "nTx": 1,
  "previousblockhash": "000000007f7ce860da89da06f2c78d489a21d61557bf89549d016afcb6c31d54",
  "nextblockhash": "0000000025c6b644f8add734be7e666fa4afa43ca0204d623a0c0b1fd2104c7a",
  "strippedsize": 216,
  "size": 216,
  "weight": 864,
  "tx": [
    {
      "txid": "3afb973177f5fc9a68036d1bede0cb163487d1fbd5c8973db7a1cbecacc5a714",
      "hash": "3afb973177f5fc9a68036d1bede0cb163487d1fbd5c8973db7a1cbecacc5a714",
      "version": 1,
      "size": 135,
      "vsize": 135,
      "weight": 540,
      "locktime": 0,
      "vin": [
        {
          "coinbase": "04ffff001d026203",
          "sequence": 4294967295
        }
      ],
      "vout": [
        {
          "value": 50.0,
          "n": 0,
          "scriptPubKey": {
            "asm": "04d84664e44cafc6c09c69ef8b5ce54614353282edc007885b920d54463a9c9de4a40c0c8d9307595bd4c207277753462e3f60ca658a99aa5b794e4758a4424e13 OP_CHECKSIG",
            "desc": "pk(04d84664e44cafc6c09c69ef8b5ce54614353282edc007885b920d54463a9c9de4a40c0c8d9307595bd4c207277753462e3f60ca658a99aa5b794e4758a4424e13)#5dxjaep4",
            "hex": "4104d84664e44cafc6c09c69ef8b5ce54614353282edc007885b920d54463a9c9de4a40c0c8d9307595bd4c207277753462e3f60ca658a99aa5b794e4758a4424e13ac",
            "type": "pubkey"
          }
        }
      ],
      "hex": "01000000010000000000000000000000000000000000000000000000000000000000000000ffffffff0804ffff001d026203ffffffff0100f2052a01000000434104d84664e44cafc6c09c69ef8b5ce54614353282edc007885b920d54463a9c9de4a40c0c8d9307595bd4c207277753462e3f60ca658a99aa5b794e4758a4424e13ac00000000"
    }
  ]
}