{
  "hash": "00000000585855b0d4b1f4554469203b2c5cba21a1130633f7e54c1bf077ef11",
  "confirmations": 43551,
  "height": 9547,
  "version": 1,
  "versionHex": "00000001",
  "merkleroot": "e6f04ba3cabf3fd594b2da4d51f5c7ae2c98d1fc4b443eb1ed784561285d67c3",
  "time": 1238660698,
  "mediantime": 1238655342,
  "nonce": 4280702008,
  "bits": "1d00ffff",
  "difficulty": 1,
  "chainwork": "0000000000000000000000000000000000000000000000000000254c254c254c",
  "nTx": 1,
  "previousblockhash": "00000000fa1c0eeb4d57aa23609edf276a0d38f7895a37f33e969b9b04fba236",
  "nextblockhash": "00000000e16d5dc0f9902480f1897956b02f30c5a2d5b88c4a1064488f09c7c2",
  "strippedsize": 216,
  "size": 216,
  "weight": 864,
  "tx": [
    {
      "txid": "e6f04ba3cabf3fd594b2da4d51f5c7ae2c98d1fc4b443eb1ed784561285d67c3",
      "hash": "e6f04ba3cabf3fd594b2da4d51f5c7ae2c98d1fc4b443eb1ed784561285d67c3",
      "version": 1,
      "size": 135,
      "vsize": 135,
      "weight": 540,
      "locktime": 0,
      "vin": [
        {
          "coinbase": "04ffff001d020806",
          "sequence": 4294967295
        }
      ],
      "vout": [
        {
          "value": 50.0,
          "n": 0,
          "scriptPubKey": {
            "asm": "04785e44bbedaaceb53ac23c7753c4ffad7b3dbfcf9e3746e9eb33a58e6853ceab75d67405c1d769b496c432ed7012be10174de4a0df035fbbc8f6c7b22e7bb007 OP_CHECKSIG",
            "desc": "pk(04785e44bbedaaceb53ac23c7753c4ffad7b3dbfcf9e3746e9eb33a58e6853ceab75d67405c1d769b496c432ed7012be10174de4a0df035fbbc8f6c7b22e7bb007)#p2j0wmnv",
            "hex": "4104785e44bbedaaceb53ac23c7753c4ffad7b3dbfcf9e3746e9eb33a58e6853ceab75d67405c1d769b496c432ed7012be10174de4a0df035fbbc8f6c7b22e7bb007ac",
            "type": "pubkey"
          }
        }
      ],
      "hex": "01000000010000000000000000000000000000000000000000000000000000000000000000ffffffff0804ffff001d020806ffffffff0100f2052a01000000434104785e44bbedaaceb53ac23c7753c4ffad7b3dbfcf9e3746e9eb33a58e6853ceab75d67405c1d769b496c432ed7012be10174de4a0df035fbbc8f6c7b22e7bb007ac00000000"
    }
  ]
}