{
  "hash": "00000000f5727d38f3cecbac7718f51db5256b2c403f7b6b33025b1c68f53372",
  "confirmations": 47160,
  "height": 5938,
  "version": 1,
  "versionHex": "00000001",
  "merkleroot": "459544161bcbbf4ec305db5562d93b0c32dcd03a06e17008ea76c221fa621c78",
  "time": 1235879648,
  "mediantime": 1235874483,
  "nonce": 2566032173,
  "bits": "1d00ffff",
  "difficulty": 1,
  "chainwork": "0000000000000000000000000000000000000000000000000000173317331733",
  "nTx": 1,
  "previousblockhash": "00000000a439be94e901c6b16149f25f549c72ee0c8aea08ff9f41f1734e2270",
  "nextblockhash": "00000000502c41b516a23d632b173665e6d355804f7cca0a5215ac7000df76f2",
  "strippedsize": 216,
  "size": 216,
  "weight": 864,
  "tx": [
    {
      "txid": "459544161bcbbf4ec305db5562d93b0c32dcd03a06e17008ea76c221fa621c78",
      "hash": "459544161bcbbf4ec305db5562d93b0c32dcd03a06e17008ea76c221fa621c78",
      "version": 1,
      "size": 135,
      "vsize": 135,
      "weight": 540,
      "locktime": 0,
      "vin": [
        {
          "coinbase": "04ffff001d02dd03",
          "sequence": 4294967295
        }
      ],
      "vout": [
        {
          "value": 50.0,
          "n": 0,
          "scriptPubKey": {
            "asm": "047872893a76a7443c5c6bbc9f8759f997fb806d326de8a7bba492802b103eac696b044b9495e762ed3655373323f1ab4282c125adc0349e8a38eb7a2de524b7fb OP_CHECKSIG",
            "desc": "pk(047872893a76a7443c5c6bbc9f8759f997fb806d326de8a7bba492802b103eac696b044b9495e762ed3655373323f1ab4282c125adc0349e8a38eb7a2de524b7fb)#50smjvdn",
            "hex": "41047872893a76a7443c5c6bbc9f8759f997fb806d326de8a7bba492802b103eac696b044b9495e762ed3655373323f1ab4282c125adc0349e8a38eb7a2de524b7fbac",
            "type": "pubkey"
          }
        }
      ],
      "hex": "01000000010000000000000000000000000000000000000000000000000000000000000000ffffffff0804ffff001d02dd03ffffffff0100f2052a010000004341047872893a76a7443c5c6bbc9f8759f997fb806d326de8a7bba492802b103eac696b044b9495e762ed3655373323f1ab4282c125adc0349e8a38eb7a2de524b7fbac00000000"
    }
  ]
}