{
  "hash": "00000000abb6fb53e7f6969addee837a8275ad4ce773d0a1d59909f3e7aac1ad",
  "confirmations": 46009,
  "height": 7089,
  "version": 1,
  "versionHex": "00000001",
  "merkleroot": "bdf0c137bfba92c92c44c7c1cc2158013539b19299eeee0e3504526aad6561a6",
  "time": 1236788846,
  "mediantime": 1236783837,
  "nonce": 1962183173,
  "bits": "1d00ffff",
  "difficulty": 1,
  "chainwork": "00000000000000000000000000000000000000000000000000001bb21bb21bb2",
  "nTx": 1,
  "previousblockhash": "00000000ee293cb25df5e37330c33e51894decbd813e7f15af3a6e9cad9adea4",
  "nextblockhash": "00000000709a5bd4108d01c035bcd5b73360ead3c107b52fc92a5438f08a0398",
  "strippedsize": 216,
  "size": 216,
  "weight": 864,
  "tx": [
    {
      "txid": "bdf0c137bfba92c92c44c7c1cc2158013539b19299eeee0e3504526aad6561a6",
      "hash": "bdf0c137bfba92c92c44c7c1cc2158013539b19299eeee0e3504526aad6561a6",
      "version": 1,
      "size": 135,
      "vsize": 135,
      "weight": 540,
      "locktime": 0,
      "vin": [
        {
          "coinbase": "04ffff001d02d103",
          "sequence": 4294967295
        }
      ],
      "vout": [
        {
          "value": 50.0,
          "n": 0,
          "scriptPubKey": {
            "asm": "04421769d788ab93d742c93d6b66e625534ebcf950f85b99f6e8ddbe94788334f4bc3f919a8106ff08d67ce0b9a3f092b3f8452f4eaa16884478c461e358167c08 OP_CHECKSIG",
            "desc": "pk(04421769d788ab93d742c93d6b66e625534ebcf950f85b99f6e8ddbe94788334f4bc3f919a8106ff08d67ce0b9a3f092b3f8452f4eaa16884478c461e358167c08)#evrdan76",
            "hex": "4104421769d788ab93d742c93d6b66e625534ebcf950f85b99f6e8ddbe94788334f4bc3f919a8106ff08d67ce0b9a3f092b3f8452f4eaa16884478c461e358167c08ac",
            "type": "pubkey"
          }
        }
      ],
      "hex": "01000000010000000000000000000000000000000000000000000000000000000000000000ffffffff0804ffff001d02d103ffffffff0100f2052a01000000434104421769d788ab93d742c93d6b66e625534ebcf950f85b99f6e8ddbe94788334f4bc3f919a8106ff08d67ce0b9a3f092b3f8452f4eaa16884478c461e358167c08ac00000000"
    }
  ]
}