{
  "hash": "00000000045287838aeb116c2463ae3c6063f1bca7c6746b6edd9c24b5f6263e",
  "confirmations": 50643,
  "height": 2455,
  "version": 1,
  "versionHex": "00000001",
  "merkleroot": "2aa6397bd7069af97f345614ffe354fa3b8ac872a5b7ed36027a130d8016ba93",
  "time": 1233396353,
  "mediantime": 1233392709,
  "nonce": 77932574,
  "bits": "1d00ffff",
  "difficulty": 1,
  "chainwork": "0000000000000000000000000000000000000000000000000000099809980998",
  "nTx": 1,
  "previousblockhash": "0000000087e23245441cf605ab7dd6dacebe12660b537a6c5780b316f1b5792f",
  "nextblockhash": "0000000048510e76eb02fb23b43f6fdaf1f0758b7190d0181aedb170c84efb6a",
  "strippedsize": 216,
  "size": 216,
  "weight": 864,
  "tx": [
    {
      "txid": "2aa6397bd7069af97f345614ffe354fa3b8ac872a5b7ed36027a130d8016ba93",
      "hash": "2aa6397bd7069af97f345614ffe354fa3b8ac872a5b7ed36027a130d8016ba93",
      "version": 1,
      "size": 135,
      "vsize": 135,
      "weight": 540,
      "locktime": 0,
      "vin": [
        {
          "coinbase": "04ffff001d022f01",
          "sequence": 4294967295
        }
      ],
      "vout": [
        {
          "value": 50.0,
          "n": 0,
          "scriptPubKey": {
            "asm": "04e48d7bb1f3c37ae71d02262028a17aaa77df6e8ce29788da4d5dac0540fdfa056938fa508d1df4f46764bfa2964c7f354278502ae1ecf535e18ddd1c5ad8a7f7 OP_CHECKSIG",
            "desc": "pk(04e48d7bb1f3c37ae71d02262028a17aaa77df6e8ce29788da4d5dac0540fdfa056938fa508d1df4f46764bfa2964c7f354278502ae1ecf535e18ddd1c5ad8a7f7)#h8hvuzmd",
            "hex": "4104e48d7bb1f3c37ae71d02262028a17aaa77df6e8ce29788da4d5dac0540fdfa056938fa508d1df4f46764bfa2964c7f354278502ae1ecf535e18ddd1c5ad8a7f7ac",
            "type": "pubkey"
          }
        }
      ],
      "hex": "01000000010000000000000000000000000000000000000000000000000000000000000000ffffffff0804ffff001d022f01ffffffff0100f2052a01000000434104e48d7bb1f3c37ae71d02262028a17aaa77df6e8ce29788da4d5dac0540fdfa056938fa508d1df4f46764bfa2964c7f354278502ae1ecf535e18ddd1c5ad8a7f7ac00000000"
    }
  ]
}