{
  "hash": "00000000ecf7d6813d1891e1ddb0d89a7d53abdfc92d94a3751d9fa231420a50",
  "confirmations": 49165,
  "height": 3933,
  "version": 1,
  "versionHex": "00000001",
  "merkleroot": "868979f72b403f0e70c8182847bf2c9ab692cef1b2dcb3f890a1b017aad20f4c",
  "time": 1234394030,
  "mediantime": 1234391149,
  "nonce": 64015654,
  "bits": "1d00ffff",
  "difficulty": 1,
  "chainwork": "00000000000000000000000000000000000000000000000000000f5e0f5e0f5e",
  "nTx": 1,
  "previousblockhash": "0000000065553b4ddefb916f4932204ed0a3c081068fc04cd41e4fbefc89874c",
  "nextblockhash": "00000000c38643b0acebe99612a2b9f2d443874a5cfc26028d55916fdb2f55b2",
  "strippedsize": 216,
  "size": 216,
  "weight": 864,
  "tx": [
    {
      "txid": "868979f72b403f0e70c8182847bf2c9ab692cef1b2dcb3f890a1b017aad20f4c",
      "hash": "868979f72b403f0e70c8182847bf2c9ab692cef1b2dcb3f890a1b017aad20f4c",
      "version": 1,
      "size": 135,
      "vsize": 135,
      "weight": 540,
      "locktime": 0,
      "vin": [
        {
          "coinbase": "04ffff001d021601",
          "sequence": 4294967295
        }
      ],
      "vout": [
        {
          "value": 50.0,
          "n": 0,
          "scriptPubKey": {
            "asm": "044f1786fc1bbc2bcd3881c4d5231d9afcd9661014699aa634ddda371518e2cab9957b1c9a269c6974d1b222b35ed46e5b15415055d9684f922a40a298e18c3c6a OP_CHECKSIG",
            "desc": "pk(044f1786fc1bbc2bcd3881c4d5231d9afcd9661014699aa634ddda371518e2cab9957b1c9a269c6974d1b222b35ed46e5b15415055d9684f922a40a298e18c3c6a)#zhrqufdv",
            "hex": "41044f1786fc1bbc2bcd3881c4d5231d9afcd9661014699aa634ddda371518e2cab9957b1c9a269c6974d1b222b35ed46e5b15415055d9684f922a40a298e18c3c6aac",
            "type": "pubkey"
          }
        }
      ],
      "hex": "01000000010000000000000000000000000000000000000000000000000000000000000000ffffffff0804ffff001d021601ffffffff0100f2052a010000004341044f1786fc1bbc2bcd3881c4d5231d9afcd9661014699aa634ddda371518e2cab9957b1c9a269c6974d1b222b35ed46e5b15415055d9684f922a40a298e18c3c6aac00000000"
    }
  ]
}