{
  "hash": "00000000502a828323486f0c50c163f950f29631fdf3b3e3c46fca18a148ff4e",
  "confirmations": 45229,
  "height": 7869,
  "version": 1,
  "versionHex": "00000001",
  "merkleroot": "e8b062bdc6cde188ec808cbe6c4563f88d726230124d407be07a9b69aaba1006",
  "time": 1237367109,
  "mediantime": 1237362504,
  "nonce": 199327375,
  "bits": "1d00ffff",
  "difficulty": 1,
  "chainwork": "00000000000000000000000000000000000000000000000000001ebe1ebe1ebe",
  "nTx": 1,
  "previousblockhash": "000000003e31f902e3512f075ff97c5ffb9bfd1fd9dbe560b08f37214a89e705",
  "nextblockhash": "00000000b7fba4fb7744c2b2e8395048facd9c2e8f11ff077996c49d738e1777",
  "strippedsize": 216,
  "size": 216,
  "weight": 864,
  "tx": [
    {
      "txid": "e8b062bdc6cde188ec808cbe6c4563f88d726230124d407be07a9b69aaba1006",
      "hash": "e8b062bdc6cde188ec808cbe6c4563f88d726230124d407be07a9b69aaba1006",
      "version": 1,
      "size": 135,
      "vsize": 135,
      "weight": 540,
      "locktime": 0,
      "vin": [
        {
          "coinbase": "04ffff001d022103",
          "sequence": 4294967295
        }
      ],
      "vout": [
        {
          "value": 50.0,
          "n": 0,
          "scriptPubKey": {
            "asm": "042b9eb37910e51be1d9f5d33efe0ec9448d73a3c3c0ea09e5d4b584c095d96f36736cbd2fc9b6fd602252833052b464a2c0f7b59233329d4d46425d034c29d946 OP_CHECKSIG",
            "desc": "pk(042b9eb37910e51be1d9f5d33efe0ec9448d73a3c3c0ea09e5d4b584c095d96f36736cbd2fc9b6fd602252833052b464a2c0f7b59233329d4d46425d034c29d946)#rfndjn77",
            "hex": "41042b9eb37910e51be1d9f5d33efe0ec9448d73a3c3c0ea09e5d4b584c095d96f36736cbd2fc9b6fd602252833052b464a2c0f7b59233329d4d46425d034c29d946ac",
            "type": "pubkey"
          }
        }
      ],
      "hex": "01000000010000000000000000000000000000000000000000000000000000000000000000ffffffff0804ffff001d022103ffffffff0100f2052a010000004341042b9eb37910e51be1d9f5d33efe0ec9448d73a3c3c0ea09e5d4b584c095d96f36736cbd2fc9b6fd602252833052b464a2c0f7b59233329d4d46425d034c29d946ac00000000"
    }
  ]
}