{
  "hash": "0000000000360b078b37111a567b25ad2fa96905140604870d61a3e7aab18f4e",
  "confirmations": 43104,
  "height": 9994,
  "version": 1,
  "versionHex": "00000001",
  "merkleroot": "b83df386cbf10189c8b98d1e08337a5c913bdb0660090c27f11fa08f21b0cdf7",
  "time": 1238984702,
  "mediantime": 1238981341,
  "nonce": 1805108249,
  "bits": "1d00ffff",
  "difficulty": 1,
  "chainwork": "0000000000000000000000000000000000000000000000000000270b270b270b",
  "nTx": 1,
  "previousblockhash": "000000003b25cd3a37b9d1da064f4d4d2559e43fbc8bd6a2962b1a71550623d1",
  "nextblockhash": "00000000244e9eed41e1fbe83ade0336808571c9df875998ed2529568e57f57d",
  "strippedsize": 216,
  "size": 216,
  "weight": 864,
  "tx": [
    {
      "txid": "b83df386cbf10189c8b98d1e08337a5c913bdb0660090c27f11fa08f21b0cdf7",
      "hash": "b83df386cbf10189c8b98d1e08337a5c913bdb0660090c27f11fa08f21b0cdf7",
      "version": 1,
      "size": 135,
      "vsize": 135,
      "weight": 540,
      "locktime": 0,
      "vin": [
        {
          "coinbase": "04ffff001d024a03",
          "sequence": 4294967295
        }
      ],
      "vout": [
        {
          "value": 50.0,
          "n": 0,
          "scriptPubKey": {
            "asm": "048a86227eb43d41751249baae7a9487310939bbbd685458d5e5fc0438ac48a2b6ca6e91dcd64a875e785866b6f24dcc9590c1c38760c55d3ccfac9e3c16610638 OP_CHECKSIG",
            "desc": "pk(048a86227eb43d41751249baae7a9487310939bbbd685458d5e5fc0438ac48a2b6ca6e91dcd64a875e785866b6f24dcc9590c1c38760c55d3ccfac9e3c16610638)#tm3e9jss",
            "hex": "41048a86227eb43d41751249baae7a9487310939bbbd685458d5e5fc0438ac48a2b6ca6e91dcd64a875e785866b6f24dcc9590c1c38760c55d3ccfac9e3c16610638ac",
            "type": "pubkey"
          }
        }
      ],
      "hex": "01000000010000000000000000000000000000000000000000000000000000000000000000ffffffff0804ffff001d024a03ffffffff0100f2052a010000004341048a86227eb43d41751249baae7a9487310939bbbd685458d5e5fc0438ac48a2b6ca6e91dcd64a875e785866b6f24dcc9590c1c38760c55d3ccfac9e3c16610638ac00000000"
    }
  ]
}