{
  "hash": "00000000aacccd0be0d7e6f86f5874402541dbd34824c9f8108f1a108b884a66",
  "confirmations": 51855,
  "height": 1243,
  "version": 1,
  "versionHex": "00000001",
  "merkleroot": "09b5943ee35c0c503fdad512920af33c7cea71b4e9d79110dc02166e5ebe96b8",
  "time": 1232533191,
  "mediantime": 1232530568,
  "nonce": 3586630425,
  "bits": "1d00ffff",
  "difficulty": 1,
  "chainwork": "000000000000000000000000000000000000000000000000000004dc04dc04dc",
  "nTx": 1,
  "previousblockhash": "00000000185888e14c4852a45468c785ab63038985aa377fa8d6cab4a1c4d583",
  "nextblockhash": "000000004662421a8c32ca813a5ed9198cc98c93de7c31b902344917ba41294c",
  "strippedsize": 216,
  "size": 216,
  "weight": 864,
  "tx": [
    {
      "txid": "09b5943ee35c0c503fdad512920af33c7cea71b4e9d79110dc02166e5ebe96b8",
      "hash": "09b5943ee35c0c503fdad512920af33c7cea71b4e9d79110dc02166e5ebe96b8",
      "version": 1,
      "size": 135,
      "vsize": 135,
      "weight": 540,
      "locktime": 0,
      "vin": [
        {
          "coinbase": "04ffff001d024f09",
          "sequence": 4294967295
        }
      ],
      "vout": [
        {
          "value": 50.0,
          "n": 0,
          "scriptPubKey": {
            "asm": "04b85d5afff5fe1e72a28a2be1b1df1408670bd908107e09481004c4d93209b7467765ada7ae2aab0d2c80febc012207b698fd22d0308fbd8b91439c698abee4ca OP_CHECKSIG",
            "desc": "pk(04b85d5afff5fe1e72a28a2be1b1df1408670bd908107e09481004c4d93209b7467765ada7ae2aab0d2c80febc012207b698fd22d0308fbd8b91439c698abee4ca)#ltzh855d",
            "hex": "4104b85d5afff5fe1e72a28a2be1b1df1408670bd908107e09481004c4d93209b7467765ada7ae2aab0d2c80febc012207b698fd22d0308fbd8b91439c698abee4caac",
            "type": "pubkey"
          }
        }
      ],
      "hex": "01000000010000000000000000000000000000000000000000000000000000000000000000ffffffff0804ffff001d024f09ffffffff0100f2052a01000000434104b85d5afff5fe1e72a28a2be1b1df1408670bd908107e09481004c4d93209b7467765ada7ae2aab0d2c80febc012207b698fd22d0308fbd8b91439c698abee4caac00000000"
    }
  ]
}