{
  "hash": "000000001cbc3aa13ba780a1d662742d2d0fa94b568b3010f31ee9c33bdf441a",
  "confirmations": 44960,
  "height": 8138,
  "version": 1,
  "versionHex": "00000001",
  "merkleroot": "76561c2ff7ed2d2070a8b318eb894dc707e51a8b6fcbb0cac4ef2e958c2425b5",
  "time": 1237562104,
  "mediantime": 1237557348,
  "nonce": 183833309,
  "bits": "1d00ffff",
  "difficulty": 1,
  "chainwork": "00000000000000000000000000000000000000000000000000001fcb1fcb1fcb",
  "nTx": 1,
  "previousblockhash": "00000000f94cd3d689200533b1bf3a0001e05a34b683f7d22b5da08d291ccf30",
  "nextblockhash": "0000000042992d944601e484892ca33c7f1abc183523108faf7ad0b1c9146111",
  "strippedsize": 216,
  "size": 216,
  "weight": 864,
  "tx": [
    {
      "txid": "76561c2ff7ed2d2070a8b318eb894dc707e51a8b6fcbb0cac4ef2e958c2425b5",
      "hash": "76561c2ff7ed2d2070a8b318eb894dc707e51a8b6fcbb0cac4ef2e958c2425b5",
      "version": 1,
      "size": 135,
      "vsize": 135,
      "weight": 540,
      "locktime": 0,
      "vin": [
        {
          "coinbase": "04ffff001d02db01",
          "sequence": 4294967295
        }
      ],
      "vout": [
        {
          "value": 50.0,
          "n": 0,
          "scriptPubKey": {
            "asm": "047fc9c66a9f995010fabbc32dd12d36a2417c4b15abc1969f731528251067fa62b2d83def34ba617e825c8c08a0d01147dfe70927667ec6aa1f8839b86f9788d6 OP_CHECKSIG",
            "desc": "pk(047fc9c66a9f995010fabbc32dd12d36a2417c4b15abc1969f731528251067fa62b2d83def34ba617e825c8c08a0d01147dfe70927667ec6aa1f8839b86f9788d6)#0a85wygz",
            "hex": "41047fc9c66a9f995010fabbc32dd12d36a2417c4b15abc1969f731528251067fa62b2d83def34ba617e825c8c08a0d01147dfe70927667ec6aa1f8839b86f9788d6ac",
            "type": "pubkey"
          }
        }
      ],
      "hex": "01000000010000000000000000000000000000000000000000000000000000000000000000ffffffff0804ffff001d02db01ffffffff0100f2052a010000004341047fc9c66a9f995010fabbc32dd12d36a2417c4b15abc1969f731528251067fa62b2d83def34ba617e825c8c08a0d01147dfe70927667ec6aa1f8839b86f9788d6ac00000000"
    }
  ]
}