{
  "hash": "00000000a3bbe4fd1da16a29dbdaba01cc35d6fc74ee17f794cf3aab94f7aaa0",
  "confirmations": 52026,
  "height": 123,
  "version": 1,
  "versionHex": "00000001",
  "merkleroot": "b944ef8c77f9b5f4a4276880f17256988bba4d0125abc54391548061a688ae09",
  "time": 1231677823,
  "mediantime": 1231673484,
  "nonce": 4094077204,
  "bits": "1d00ffff",
  "difficulty": 1,
  "chainwork": "0000000000000000000000000000000000000000000000000000007c007c007c",
  "nTx": 1,
  "previousblockhash": "000000008d98d186565441057e87cc03251b95b9042956c9fb11325e2d4a847a",
  "nextblockhash": "00000000ceae2b1cb578f066bd08c672fe87814880671c205febb2d624184f21",
  "strippedsize": 216,
  "size": 216,
  "weight": 864,
  "tx": [
    {
      "txid": "b944ef8c77f9b5f4a4276880f17256988bba4d0125abc54391548061a688ae09",
      "hash": "b944ef8c77f9b5f4a4276880f17256988bba4d0125abc54391548061a688ae09",
      "version": 1,
      "size": 135,
      "vsize": 135,
      "weight": 540,
      "locktime": 0,
      "vin": [
        {
          "coinbase": "04ffff001d02df00",
          "sequence": 4294967295
        }
      ],
      "vout": [
        {
          "value": 50.0,
          "n": 0,
          "scriptPubKey": {
            "asm": "04b715afd59b31be928e073e375a6196d654a78d9aa709789665dd4aecf1b85ebc850ffb90a1c04f18565afe0be4a042ff6629c398f674a5c632b017d793dc8e04 OP_CHECKSIG",
            "desc": "pk(04b715afd59b31be928e073e375a6196d654a78d9aa709789665dd4aecf1b85ebc850ffb90a1c04f18565afe0be4a042ff6629c398f674a5c632b017d793dc8e04)#nmmes6h0",
            "hex": "4104b715afd59b31be928e073e375a6196d654a78d9aa709789665dd4aecf1b85ebc850ffb90a1c04f18565afe0be4a042ff6629c398f674a5c632b017d793dc8e04ac",
            "type": "pubkey"
          }
        }
      ],
      "hex": "01000000010000000000000000000000000000000000000000000000000000000000000000ffffffff0804ffff001d02df00ffffffff0100f2052a01000000434104b715afd59b31be928e073e375a6196d654a78d9aa709789665dd4aecf1b85ebc850ffb90a1c04f18565afe0be4a042ff6629c398f674a5c632b017d793dc8e04ac00000000"
    }
  ]
}