{
  "hash": "00000000c0fdff868df4a80a43d3e6323eacb6378f4bd12c14d7b970a9f282af",
  "confirmations": 50458,
  "height": 2640,
  "version": 1,
  "versionHex": "00000001",
  "merkleroot": "d5c8fc8aba8b1af31856ab2bf053372ff1bf3d9fbc82a69481d7d08d98a71726",
  "time": 1233519880,
  "mediantime": 1233516399,
  "nonce": 4107262513,
  "bits": "1d00ffff",
  "difficulty": 1,
  "chainwork": "00000000000000000000000000000000000000000000000000000a510a510a51",
  "nTx": 1,
  "previousblockhash": "000000003422963724f09b627b6fe20e927ea04b8e98fdb882b7377e3ce51eae",
  "nextblockhash": "00000000cd1414191afd437fec70c9fd32447210f2aba1dad11ec32416913f46",
  "strippedsize": 216,
  "size": 216,
  "weight": 864,
  "tx": [
    {
      "txid": "d5c8fc8aba8b1af31856ab2bf053372ff1bf3d9fbc82a69481d7d08d98a71726",
      "hash": "d5c8fc8aba8b1af31856ab2bf053372ff1bf3d9fbc82a69481d7d08d98a71726",
      "version": 1,
      "size": 135,
      "vsize": 135,
      "weight": 540,
      "locktime": 0,
      "vin": [
        {
          "coinbase": "04ffff001d02b703",
          "sequence": 4294967295
        }
      ],
      "vout": [
        {
          "value": 50.0,
          "n": 0,
          "scriptPubKey": {
            "asm": "049c9e4848558f1f8fd6a554188d2dcac855a7841c197bc699bde637c1a9f2a6ac3edf1c6fca5eb0ee578c221a3e85b6084d83a648e1838c7f214e1fec24c2d50f OP_CHECKSIG",
            "desc": "pk(049c9e4848558f1f8fd6a554188d2dcac855a7841c197bc699bde637c1a9f2a6ac3edf1c6fca5eb0ee578c221a3e85b6084d83a648e1838c7f214e1fec24c2d50f)#trldxh96",
            "hex": "41049c9e4848558f1f8fd6a554188d2dcac855a7841c197bc699bde637c1a9f2a6ac3edf1c6fca5eb0ee578c221a3e85b6084d83a648e1838c7f214e1fec24c2d50fac",
            "type": "pubkey"
          }
        }
      ],
      "hex": "01000000010000000000000000000000000000000000000000000000000000000000000000ffffffff0804ffff001d02b703ffffffff0100f2052a010000004341049c9e4848558f1f8fd6a554188d2dcac855a7841c197bc699bde637c1a9f2a6ac3edf1c6fca5eb0ee578c221a3e85b6084d83a648e1838c7f214e1fec24c2d50fac00000000"
    }
  ]
}