{
  "hash": "00000000278617cb288129fdc526d05d9f3bb671f7933b12100e1ed1d6896c8c",
  "confirmations": 46242,
  "height": 6856,
  "version": 1,
  "versionHex": "00000001",
  "merkleroot": "0a21214c16a7498ccfd7f7c307aec160d63bb6152ae1c019b6ceb221e10330e3",
  "time": 1236599993,
  "mediantime": 1236595086,
  "nonce": 2936570650,
  "bits": "1d00ffff",
  "difficulty": 1,
  "chainwork": "00000000000000000000000000000000000000000000000000001ac91ac91ac9",
  "nTx": 1,
  "previousblockhash": "000000008f73a920ccd0081eba0f5298d4290f774d79cdf789ea102da9628d02",
  "nextblockhash": "0000000003a4cbd3c094831fa8668dca578b5d0613204a590ebeb23423869839",
  "strippedsize": 216,
  "size": 216,
  "weight": 864,
  "tx": [
    {
      "txid": "0a21214c16a7498ccfd7f7c307aec160d63bb6152ae1c019b6ceb221e10330e3",
      "hash": "0a21214c16a7498ccfd7f7c307aec160d63bb6152ae1c019b6ceb221e10330e3",
      "version": 1,
      "size": 135,
      "vsize": 135,
      "weight": 540,
      "locktime": 0,
      "vin": [
        {
          "coinbase": "04ffff001d02cc09",
          "sequence": 4294967295
        }
      ],
      "vout": [
        {
          "value": 50.0,
          "n": 0,
          "scriptPubKey": {
            "asm": "04c375b1d401fab9ca0a1d2a067c2974e2c02abb84b031eeeb8967cbeaae61d487a7d3d8eb0f04da912c593bf9cf3205fdc731b9de3ff873b08a3a1cb0f672c2fc OP_CHECKSIG",
            "desc": "pk(04c375b1d401fab9ca0a1d2a067c2974e2c02abb84b031eeeb8967cbeaae61d487a7d3d8eb0f04da912c593bf9cf3205fdc731b9de3ff873b08a3a1cb0f672c2fc)#7n2rj74c",
            "hex": "4104c375b1d401fab9ca0a1d2a067c2974e2c02abb84b031eeeb8967cbeaae61d487a7d3d8eb0f04da912c593bf9cf3205fdc731b9de3ff873b08a3a1cb0f672c2fcac",
            "type": "pubkey"
          }
        }
      ],
      "hex": "01000000010000000000000000000000000000000000000000000000000000000000000000ffffffff0804ffff001d02cc09ffffffff0100f2052a01000000434104c375b1d401fab9ca0a1d2a067c2974e2c02abb84b031eeeb8967cbeaae61d487a7d3d8eb0f04da912c593bf9cf3205fdc731b9de3ff873b08a3a1cb0f672c2fcac00000000"
    }
  ]
}