{
  "hash": "00000000606b3f705e9d875b960ffe3ebc03a2e4bab96a44e85ae00a995c693c",
  "confirmations": 45244,
  "height": 7854,
  "version": 1,
  "versionHex": "00000001",
  "merkleroot": "521602f6e98709337ced49d51438609b2cfc679aa799f118a7db6411996db98a",
  "time": 1237353473,
  "mediantime": 1237350058,
  "nonce": 2273864196,
  "bits": "1d00ffff",
  "difficulty": 1,
  "chainwork": "00000000000000000000000000000000000000000000000000001eaf1eaf1eaf",
  "nTx": 1,
  "previousblockhash": "0000000005b20bb1fe4821dc10b369e453a7642e1279419126efe34f1e2bee82",
  "nextblockhash": "0000000014f66ca81e544f8b094aced340ae2f0e3452829eba2c28bd360bf52f",
  "strippedsize": 216,
  "size": 216,
  "weight": 864,
  "tx": [
    {
      "txid": "521602f6e98709337ced49d51438609b2cfc679aa799f118a7db6411996db98a",
      "hash": "521602f6e98709337ced49d51438609b2cfc679aa799f118a7db6411996db98a",
      "version": 1,
      "size": 135,
      "vsize": 135,
      "weight": 540,
      "locktime": 0,
      "vin": [
        {
          "coinbase": "04ffff001d02d006",
          "sequence": 4294967295
        }
      ],
      "vout": [
        {
          "value": 50.0,
          "n": 0,
          "scriptPubKey": {
            "asm": "0454f9a3e650508347668ff143186139dd8d490cededf522c7010108060d5ea3d669b245824dd22956c292ff084fcd8362e8b9a82d0a62e2cdb4fe92b92eb0f744 OP_CHECKSIG",
            "desc": "pk(0454f9a3e650508347668ff143186139dd8d490cededf522c7010108060d5ea3d669b245824dd22956c292ff084fcd8362e8b9a82d0a62e2cdb4fe92b92eb0f744)#qm7gw3xk",
            "hex": "410454f9a3e650508347668ff143186139dd8d490cededf522c7010108060d5ea3d669b245824dd22956c292ff084fcd8362e8b9a82d0a62e2cdb4fe92b92eb0f744ac",
            "type": "pubkey"
          }
        }
      ],
      "hex": "01000000010000000000000000000000000000000000000000000000000000000000000000ffffffff0804ffff001d02d006ffffffff0100f2052a0100000043410454f9a3e650508347668ff143186139dd8d490cededf522c7010108060d5ea3d669b245824dd22956c292ff084fcd8362e8b9a82d0a62e2cdb4fe92b92eb0f744ac00000000"
    }
  ]
}