{
  "hash": "000000000adc53330a168c3e3ba9bea0090735fc7048846d7c858d3777d2b575",
  "confirmations": 52130,
  "height": 968,
  "version": 1,
  "versionHex": "00000001",
  "merkleroot": "a603a352cb87c3654c83ebb33af22c50001cb08d026d3038ee9d45311bee9150",
  "time": 1232325165,
  "mediantime": 1232321869,
  "nonce": 3336958487,
  "bits": "1d00ffff",
  "difficulty": 1,
  "chainwork": "000000000000000000000000000000000000000000000000000003c903c903c9",
  "nTx": 1,
  "previousblockhash": "00000000cdf94db726e0bb0f60db1998b8f24241ec0f1fffb594451bbaa477bd",
  "nextblockhash": "0000000069ed32a4d4ad130aa267687f78b25236c5efd1d54abf65a7ee1fa0c0",
  "strippedsize": 216,
  "size": 216,
  "weight": 864,
  "tx": [
    {
      "txid": "a603a352cb87c3654c83ebb33af22c50001cb08d026d3038ee9d45311bee9150",
      "hash": "a603a352cb87c3654c83ebb33af22c50001cb08d026d3038ee9d45311bee9150",
      "version": 1,
      "size": 135,
      "vsize": 135,
      "weight": 540,
      "locktime": 0,
      "vin": [
        {
          "coinbase": "04ffff001d02a004",
          "sequence": 4294967295
        }
      ],
      "vout": [
        {
          "value": 50.0,
          "n": 0,
          "scriptPubKey": {
            "asm": "040f99e40be4da6c4657af37a76fad976b38b4c239f87d2253155eaa78d98d3d510e53ab820bc1dd8501cc60c034f1799860d4e97558732956ecb42352f4ff52d3 OP_CHECKSIG",
            "desc": "pk(040f99e40be4da6c4657af37a76fad976b38b4c239f87d2253155eaa78d98d3d510e53ab820bc1dd8501cc60c034f1799860d4e97558732956ecb42352f4ff52d3)#dvjwfmtn",
            "hex": "41040f99e40be4da6c4657af37a76fad976b38b4c239f87d2253155eaa78d98d3d510e53ab820bc1dd8501cc60c034f1799860d4e97558732956ecb42352f4ff52d3ac",
            "type": "pubkey"
          }
        }
      ],
      "hex": "01000000010000000000000000000000000000000000000000000000000000000000000000ffffffff0804ffff001d02a004ffffffff0100f2052a010000004341040f99e40be4da6c4657af37a76fad976b38b4c239f87d2253155eaa78d98d3d510e53ab820bc1dd8501cc60c034f1799860d4e97558732956ecb42352f4ff52d3ac00000000"
    }
  ]
}