{
  "hash": "00000000b42d777499a04fe506a1191749a326cac0f415cae286ebe0b164c7b6",
  "confirmations": 49727,
  "height": 3371,
  "version": 1,
  "versionHex": "00000001",
  "merkleroot": "eea382fc7dea524f91dd454a238a942809c92976195b7b4c4d4da0218f5dec28",
  "time": 1234017797,
  "mediantime": 1234014434,
  "nonce": 78044567,
  "bits": "1d00ffff",
  "difficulty": 1,
  "chainwork": "00000000000000000000000000000000000000000000000000000d2c0d2c0d2c",
  "nTx": 1,
  "previousblockhash": "000000009369ae1a9e919dc3a7609920c4a6d157e98a54ef527addffe81c079a",
  "nextblockhash": "00000000b66b9de950074a4955c75f08ac47d7052b8e876eef7d2af390e17897",
  "strippedsize": 215,
  "size": 215,
  "weight": 860,
  "tx": [
    {
      "txid": "eea382fc7dea524f91dd454a238a942809c92976195b7b4c4d4da0218f5dec28",
      "hash": "eea382fc7dea524f91dd454a238a942809c92976195b7b4c4d4da0218f5dec28",
      "version": 1,
      "size": 134,
      "vsize": 134,
      "weight": 536,
      "locktime": 0,
      "vin": [
        {
          "coinbase": "04ffff001d0119",
          "sequence": 4294967295
        }
      ],
      "vout": [
        {
          "value": 50.0,
          "n": 0,
          "scriptPubKey": {
            "asm": "040fb91b8dd038cfa6bb5e78b4ebcebd69eb0ef44e1ed89898e6ff0eb1f70b37194ff50d71d403b4c8a849af34dbba5e14352fa9a585dc81e46c1e490f70853c0f OP_CHECKSIG",
            "desc": "pk(040fb91b8dd038cfa6bb5e78b4ebcebd69eb0ef44e1ed89898e6ff0eb1f70b37194ff50d71d403b4c8a849af34dbba5e14352fa9a585dc81e46c1e490f70853c0f)#yral80jc",
            "hex": "41040fb91b8dd038cfa6bb5e78b4ebcebd69eb0ef44e1ed89898e6ff0eb1f70b37194ff50d71d403b4c8a849af34dbba5e14352fa9a585dc81e46c1e490f70853c0fac",
            "type": "pubkey"
          }
        }
      ],
      "hex": "01000000010000000000000000000000000000000000000000000000000000000000000000ffffffff0704ffff001d0119ffffffff0100f2052a010000004341040fb91b8dd038cfa6bb5e78b4ebcebd69eb0ef44e1ed89898e6ff0eb1f70b37194ff50d71d403b4c8a849af34dbba5e14352fa9a585dc81e46c1e490f70853c0fac00000000"
    }
  ]
}