{
  "hash": "000000005e527a6166853b1c058aee21adbd82e652b2bb2017f344ef9db37b54",
  "confirmations": 45542,
  "height": 7556,
  "version": 1,
  "versionHex": "00000001",
  "merkleroot": "3deb490cd1bfb36a9cf71934b6dbe7a824112d9ad8de20a5923eceee0c09f1ef",
  "time": 1237141477,
  "mediantime": 1237137033,
  "nonce": 110118423,
  "bits": "1d00ffff",
  "difficulty": 1,
  "chainwork": "00000000000000000000000000000000000000000000000000001d851d851d85",
  "nTx": 1,
  "previousblockhash": "00000000b2329dd5992114e0cd7d04386c9d0cf332f4032f4380fae24b609e44",
  "nextblockhash": "000000002456ec49b80bfcec57dc9fb38f0989a3ebed077a12bfd014e87376af",
  "strippedsize": 216,
  "size": 216,
  "weight": 864,
  "tx": [
    {
      "txid": "3deb490cd1bfb36a9cf71934b6dbe7a824112d9ad8de20a5923eceee0c09f1ef",
      "hash": "3deb490cd1bfb36a9cf71934b6dbe7a824112d9ad8de20a5923eceee0c09f1ef",
      "version": 1,
      "size": 135,
      "vsize": 135,
      "weight": 540,
      "locktime": 0,
      "vin": [
        {
          "coinbase": "04ffff001d022203",
          "sequence": 4294967295
        }
      ],
      "vout": [
        {
          "value": 50.0,
          "n": 0,
          "scriptPubKey": {
            "asm": "04d1b0038d7a9dd3e48f8a95f1a5c8d60cd1a1ee52a97847b385c962e9593bd820b83845f2211b3fc6e18f9288a2207321746eb6ca6f75c79a7228143c75e14c8e OP_CHECKSIG",
            "desc": "pk(04d1b0038d7a9dd3e48f8a95f1a5c8d60cd1a1ee52a97847b385c962e9593bd820b83845f2211b3fc6e18f9288a2207321746eb6ca6f75c79a7228143c75e14c8e)#p6uvv5hv",
            "hex": "4104d1b0038d7a9dd3e48f8a95f1a5c8d60cd1a1ee52a97847b385c962e9593bd820b83845f2211b3fc6e18f9288a2207321746eb6ca6f75c79a7228143c75e14c8eac",
            "type": "pubkey"
          }
        }
      ],
      "hex": "01000000010000000000000000000000000000000000000000000000000000000000000000ffffffff0804ffff001d022203ffffffff0100f2052a01000000434104d1b0038d7a9dd3e48f8a95f1a5c8d60cd1a1ee52a97847b385c962e9593bd820b83845f2211b3fc6e18f9288a2207321746eb6ca6f75c79a7228143c75e14c8eac00000000"
    }
  ]
}