{
  "hash": "000000007a88a48873eb2ea72692e28736efda85ccec78e8d067f06ff93f95c4",
  "confirmations": 51757,
  "height": 1341,
  "version": 1,
  "versionHex": "00000001",
  "merkleroot": "6de469a9a2dbc5b0195ce938c07d52e6e110c82be62c531d915f5ba326582f3e",
  "time": 1232633711,
  "mediantime": 1232628826,
  "nonce": 3826915607,
  "bits": "1d00ffff",
  "difficulty": 1,
  "chainwork": "0000000000000000000000000000000000000000000000000000053e053e053e",
  "nTx": 1,
  "previousblockhash": "00000000324093ac23a52cab4b9c6e17675818d4ab49b071dc5263eea1379c6c",
  "nextblockhash": "00000000b8a728c30ad7acb0b86a0dbd5e4457b388431ea9cc61be8905bd60d2",
  "strippedsize": 216,
  "size": 216,
  "weight": 864,
  "tx": [
    {
      "txid": "6de469a9a2dbc5b0195ce938c07d52e6e110c82be62c531d915f5ba326582f3e",
      "hash": "6de469a9a2dbc5b0195ce938c07d52e6e110c82be62c531d915f5ba326582f3e",
      "version": 1,
      "size": 135,
      "vsize": 135,
      "weight": 540,
      "locktime": 0,
      "vin": [
        {
          "coinbase": "04ffff001d020601",
          "sequence": 4294967295
        }
      ],
      "vout": [
        {
          "value": 50.0,
          "n": 0,
          "scriptPubKey": {
            "asm": "04de4294eea03db7f137741095ef0071f7cc19161dfb916beb08afc1d48fa55dfe4f37eb901b988f373339aa7142dbbd6c9944e4b60a87a9f72cc9ce3ef36ce844 OP_CHECKSIG",
            "desc": "pk(04de4294eea03db7f137741095ef0071f7cc19161dfb916beb08afc1d48fa55dfe4f37eb901b988f373339aa7142dbbd6c9944e4b60a87a9f72cc9ce3ef36ce844)#n5legmrn",
            "hex": "4104de4294eea03db7f137741095ef0071f7cc19161dfb916beb08afc1d48fa55dfe4f37eb901b988f373339aa7142dbbd6c9944e4b60a87a9f72cc9ce3ef36ce844ac",
            "type": "pubkey"
          }
        }
      ],
      "hex": "01000000010000000000000000000000000000000000000000000000000000000000000000ffffffff0804ffff001d020601ffffffff0100f2052a01000000434104de4294eea03db7f137741095ef0071f7cc19161dfb916beb08afc1d48fa55dfe4f37eb901b988f373339aa7142dbbd6c9944e4b60a87a9f72cc9ce3ef36ce844ac00000000"
    }
  ]
}