{
  "hash": "00000000f78078420299b8d5c188bb8afcbaa49085569c106de370ff0b39289f",
  "confirmations": 51261,
  "height": 1837,
  "version": 1,
  "versionHex": "00000001",
  "merkleroot": "6d8fae6a1b92f3171c4a3a698e636c683f3965559e83ecc6ce402224cc2f7766",
  "time": 1232916341,
  "mediantime": 1232914343,
  "nonce": 2014237956,
  "bits": "1d00ffff",
  "difficulty": 1,
  "chainwork": "0000000000000000000000000000000000000000000000000000072e072e072e",
  "nTx": 1,
  "previousblockhash": "0000000086a691adc91420e5524c503a91492ac8aa76e994321721c25cf489d1",
  "nextblockhash": "0000000022fa7cb365cc0e556ad0f9afc0148c9f2e73d18b6ff7f6d82af6f31e",
  "strippedsize": 216,
  "size": 216,
  "weight": 864,
  "tx": [
    {
      "txid": "6d8fae6a1b92f3171c4a3a698e636c683f3965559e83ecc6ce402224cc2f7766",
      "hash": "6d8fae6a1b92f3171c4a3a698e636c683f3965559e83ecc6ce402224cc2f7766",
      "version": 1,
      "size": 135,
      "vsize": 135,
      "weight": 540,
      "locktime": 0,
      "vin": [
        {
          "coinbase": "04ffff001d027904",
          "sequence": 4294967295
        }
      ],
      "vout": [
        {
          "value": 50.0,
          "n": 0,
          "scriptPubKey": {
            "asm": "0487eb1a43fa4e9cebd3ab45120e068325286de257f038da0e2cf0bc6b0620c40f4d01ccb25a9ce28a40d2c51e07f9c0e216c84630f794b0725c39c0e61f84c480 OP_CHECKSIG",
            "desc": "pk(0487eb1a43fa4e9cebd3ab45120e068325286de257f038da0e2cf0bc6b0620c40f4d01ccb25a9ce28a40d2c51e07f9c0e216c84630f794b0725c39c0e61f84c480)#8yr7h2p4",
            "hex": "410487eb1a43fa4e9cebd3ab45120e068325286de257f038da0e2cf0bc6b0620c40f4d01ccb25a9ce28a40d2c51e07f9c0e216c84630f794b0725c39c0e61f84c480ac",
            "type": "pubkey"
          }
        }
      ],
      "hex": "01000000010000000000000000000000000000000000000000000000000000000000000000ffffffff0804ffff001d027904ffffffff0100f2052a0100000043410487eb1a43fa4e9cebd3ab45120e068325286de257f038da0e2cf0bc6b0620c40f4d01ccb25a9ce28a40d2c51e07f9c0e216c84630f794b0725c39c0e61f84c480ac00000000"
    }
  ]
}