{
  "hash": "00000000d3594307e0b09b113898d5431697abaf9e08d614f6262c5bd4ef7715",
  "confirmations": 45629,
  "height": 7469,
  "version": 1,
  "versionHex": "00000001",
  "merkleroot": "a3eef6f5cae72064e8868bcd8c187071372bba4723bc9a20e8d156bc847fd6eb",
  "time": 1237076159,
  "mediantime": 1237072834,
  "nonce": 2184929578,
  "bits": "1d00ffff",
  "difficulty": 1,
  "chainwork": "00000000000000000000000000000000000000000000000000001d2e1d2e1d2e",
  "nTx": 1,
  "previousblockhash": "000000004b1b5dc962fb6668d806c335677bd633b702274bc6c7fc3ccd70941d",
  "nextblockhash": "000000002de78f3696efa0325b1680fda66ce777029f87753ea3b9a9c2ad15aa",
  "strippedsize": 215,
  "size": 215,
  "weight": 860,
  "tx": [
    {
      "txid": "a3eef6f5cae72064e8868bcd8c187071372bba4723bc9a20e8d156bc847fd6eb",
      "hash": "a3eef6f5cae72064e8868bcd8c187071372bba4723bc9a20e8d156bc847fd6eb",
      "version": 1,
      "size": 134,
      "vsize": 134,
      "weight": 536,
      "locktime": 0,
      "vin": [
        {
          "coinbase": "04ffff001d017d",
          "sequence": 4294967295
        }
      ],
      "vout": [
        {
          "value": 50.0,
          "n": 0,
          "scriptPubKey": {
            "asm": "0420ca1a9548f311a09e8ca0d83a9d389101a19748c8e831c23421c06eae4372095d3926c8610e8523135fb221fed3f198328ffada3dd4f1c131968702e1d77bfb OP_CHECKSIG",
            "desc": "pk(0420ca1a9548f311a09e8ca0d83a9d389101a19748c8e831c23421c06eae4372095d3926c8610e8523135fb221fed3f198328ffada3dd4f1c131968702e1d77bfb)#gn2nt2zn",
            "hex": "410420ca1a9548f311a09e8ca0d83a9d389101a19748c8e831c23421c06eae4372095d3926c8610e8523135fb221fed3f198328ffada3dd4f1c131968702e1d77bfbac",
            "type": "pubkey"
          }
        }
      ],
      "hex": "01000000010000000000000000000000000000000000000000000000000000000000000000ffffffff0704ffff001d017dffffffff0100f2052a0100000043410420ca1a9548f311a09e8ca0d83a9d389101a19748c8e831c23421c06eae4372095d3926c8610e8523135fb221fed3f198328ffada3dd4f1c131968702e1d77bfbac00000000"
    }
  ]
}