{
  "hash": "0000000009270ffb79c779eae921c1741ff849732435421b215502e6d25b09d2",
  "confirmations": 51969,
  "height": 1129,
  "version": 1,
  "versionHex": "00000001",
  "merkleroot": "4834d4d4d7fa71ded10f045c3069d9fb931c5d0d857a3f211eb352a643be2ad6",
  "time": 1232443220,
  "mediantime": 1232438477,
  "nonce": 153504264,
  "bits": "1d00ffff",
  "difficulty": 1,
  "chainwork": "0000000000000000000000000000000000000000000000000000046a046a046a",
  "nTx": 1,
  "previousblockhash": "00000000040cc7d952bcb73d2f5de80b15945c08d347bdaabb207cae9775a6c7",
  "nextblockhash": "000000001785e36e4037082e8b803f5fe274eaa161f9c96c41da5af4b44e1fa0",
  "strippedsize": 216,
  "size": 216,
  "weight": 864,
  "tx": [
    {
      "txid": "4834d4d4d7fa71ded10f045c3069d9fb931c5d0d857a3f211eb352a643be2ad6",
      "hash": "4834d4d4d7fa71ded10f045c3069d9fb931c5d0d857a3f211eb352a643be2ad6",
      "version": 1,
      "size": 135,
      "vsize": 135,
      "weight": 540,
      "locktime": 0,
      "vin": [
        {
          "coinbase": "04ffff001d027007",
          "sequence": 4294967295
        }
      ],
      "vout": [
        {
          "value": 50.0,
          "n": 0,
          "scriptPubKey": {
            "asm": "04944ffcd33b857e96ed1f71a3e8cb911646f21fa35c5fa26771b729274a7441ce0b559bc9ae145d3b99fcef2483e85ac4207e48d6ebca2e81fbe7cbcb9d34c6ba OP_CHECKSIG",
            "desc": "pk(04944ffcd33b857e96ed1f71a3e8cb911646f21fa35c5fa26771b729274a7441ce0b559bc9ae145d3b99fcef2483e85ac4207e48d6ebca2e81fbe7cbcb9d34c6ba)#dhdzh9h5",
            "hex": "4104944ffcd33b857e96ed1f71a3e8cb911646f21fa35c5fa26771b729274a7441ce0b559bc9ae145d3b99fcef2483e85ac4207e48d6ebca2e81fbe7cbcb9d34c6baac",
            "type": "pubkey"
          }
        }
      ],
      "hex": "01000000010000000000000000000000000000000000000000000000000000000000000000ffffffff0804ffff001d027007ffffffff0100f2052a01000000434104944ffcd33b857e96ed1f71a3e8cb911646f21fa35c5fa26771b729274a7441ce0b559bc9ae145d3b99fcef2483e85ac4207e48d6ebca2e81fbe7cbcb9d34c6baac00000000"
    }
  ]
}