{
  "hash": "00000000c08e4db3ceaeaf7cef9429f6d3fd9ede816df6f150f89892183fd780",
  "confirmations": 44765,
  "height": 8333,
  "version": 1,
  "versionHex": "00000001",
  "merkleroot": "abba1496d524b2bf6cfad7a33dabad979811ca73e11476efec8e009a76bc64f8",
  "time": 1237755439,
  "mediantime": 1237751334,
  "nonce": 233739666,
  "bits": "1d00ffff",
  "difficulty": 1,
  "chainwork": "0000000000000000000000000000000000000000000000000000208e208e208e",
  "nTx": 1,
  "previousblockhash": "00000000145fa1fdb9cfd8ff7f33fc964db8bd2472aad4f8fe9a233234971cc5",
  "nextblockhash": "00000000f61901c4fd1e33bcb8ec1a79300682fee44a8b01d556759f2430d963",
  "strippedsize": 215,
  "size": 215,
  "weight": 860,
  "tx": [
    {
      "txid": "abba1496d524b2bf6cfad7a33dabad979811ca73e11476efec8e009a76bc64f8",
      "hash": "abba1496d524b2bf6cfad7a33dabad979811ca73e11476efec8e009a76bc64f8",
      "version": 1,
      "size": 134,
      "vsize": 134,
      "weight": 536,
      "locktime": 0,
      "vin": [
        {
          "coinbase": "04ffff001d0109",
          "sequence": 4294967295
        }
      ],
      "vout": [
        {
          "value": 50.0,
          "n": 0,
          "scriptPubKey": {
            "asm": "0496ebf37f50b4d4169d6f35d8c07d3b1a4218c12f10578f77f3f2c8bf2f0a7ac065923b468d511f18d8aea3f348a6698cabea9b998bacc9584f135747910caadf OP_CHECKSIG",
            "desc": "pk(0496ebf37f50b4d4169d6f35d8c07d3b1a4218c12f10578f77f3f2c8bf2f0a7ac065923b468d511f18d8aea3f348a6698cabea9b998bacc9584f135747910caadf)#vljwz3j5",
            "hex": "410496ebf37f50b4d4169d6f35d8c07d3b1a4218c12f10578f77f3f2c8bf2f0a7ac065923b468d511f18d8aea3f348a6698cabea9b998bacc9584f135747910caadfac",
            "type": "pubkey"
          }
        }
      ],
      "hex": "01000000010000000000000000000000000000000000000000000000000000000000000000ffffffff0704ffff001d0109ffffffff0100f2052a0100000043410496ebf37f50b4d4169d6f35d8c07d3b1a4218c12f10578f77f3f2c8bf2f0a7ac065923b468d511f18d8aea3f348a6698cabea9b998bacc9584f135747910caadfac00000000"
    }
  ]
}