{
  "hash": "00000000d72ce9b5dfc502f0220cf57d39a001a39482223249a32b8853aafaec",
  "confirmations": 49744,
  "height": 3354,
  "version": 1,
  "versionHex": "00000001",
  "merkleroot": "c4eab2b8e75c648ca8b5f1b2c49739ea2c3379dc363fd47d1777d3dd48b0659a",
  "time": 1234006992,
  "mediantime": 1234003092,
  "nonce": 437679381,
  "bits": "1d00ffff",
  "difficulty": 1,
  "chainwork": "00000000000000000000000000000000000000000000000000000d1b0d1b0d1b",
  "nTx": 1,
  "previousblockhash": "00000000de396209129b1c7a002a6bf0fb951794e2009c0e384763ac21359947",
  "nextblockhash": "00000000030aafcfd8bb78cdff0a4153fabfaf25be4199a8f8ceb5c7c79d6168",
  "strippedsize": 216,
  "size": 216,
  "weight": 864,
  "tx": [
    {
      "txid": "c4eab2b8e75c648ca8b5f1b2c49739ea2c3379dc363fd47d1777d3dd48b0659a",
      "hash": "c4eab2b8e75c648ca8b5f1b2c49739ea2c3379dc363fd47d1777d3dd48b0659a",
      "version": 1,
      "size": 135,
      "vsize": 135,
      "weight": 540,
      "locktime": 0,
      "vin": [
        {
          "coinbase": "04ffff001d022005",
          "sequence": 4294967295
        }
      ],
      "vout": [
        {
          "value": 50.0,
          "n": 0,
          "scriptPubKey": {
            "asm": "044a40ec7e118561446e61d7579cde691f7756d32563537521c8f510552b7473008a7c75c7c331c2da2e4b6bc52e8fcad8e7fc313a75beb8eaeb54d6f1e2a739f1 OP_CHECKSIG",
            "desc": "pk(044a40ec7e118561446e61d7579cde691f7756d32563537521c8f510552b7473008a7c75c7c331c2da2e4b6bc52e8fcad8e7fc313a75beb8eaeb54d6f1e2a739f1)#wfrgrsy0",
            "hex": "41044a40ec7e118561446e61d7579cde691f7756d32563537521c8f510552b7473008a7c75c7c331c2da2e4b6bc52e8fcad8e7fc313a75beb8eaeb54d6f1e2a739f1ac",
            "type": "pubkey"
          }
        }
      ],
      "hex": "01000000010000000000000000000000000000000000000000000000000000000000000000ffffffff0804ffff001d022005ffffffff0100f2052a010000004341044a40ec7e118561446e61d7579cde691f7756d32563537521c8f510552b7473008a7c75c7c331c2da2e4b6bc52e8fcad8e7fc313a75beb8eaeb54d6f1e2a739f1ac00000000"
    }
  ]
}