{
  "hash": "00000000adc949d7070c080d5bad0cf7effa0fa8b7b3acb8fdf7a99290066466",
  "confirmations": 49830,
  "height": 3268,
  "version": 1,
  "versionHex": "00000001",
  "merkleroot": "f628ddde092d3a5aef9799c98e4f9d69d52fc121d35c704b2e2fc20aa98cd018",
  "time": 1233947616,
  "mediantime": 1233944227,
  "nonce": 359960269,
  "bits": "1d00ffff",
  "difficulty": 1,
  "chainwork": "00000000000000000000000000000000000000000000000000000cc50cc50cc5",
  "nTx": 1,
  "previousblockhash": "000000008ebf197a1354e06b65644b01b213bfe40e11a7e74663006fe15dd051",
  "nextblockhash": "0000000097a79e2bfcac5d28cdce5f3deb20afbd8bdb74f2b36a12cc83d144b3",
  "strippedsize": 215,
  "size": 215,
  "weight": 860,
  "tx": [
    {
      "txid": "f628ddde092d3a5aef9799c98e4f9d69d52fc121d35c704b2e2fc20aa98cd018",
      "hash": "f628ddde092d3a5aef9799c98e4f9d69d52fc121d35c704b2e2fc20aa98cd018",
      "version": 1,
      "size": 134,
      "vsize": 134,
      "weight": 536,
      "locktime": 0,
      "vin": [
        {
          "coinbase": "04ffff001d0138",
          "sequence": 4294967295
        }
      ],
      "vout": [
        {
          "value": 50.0,
          "n": 0,
          "scriptPubKey": {
            "asm": "044ea6c115261dbd06f4172ecdb498843a6ca52e4919e32771554550efcc15706bdbc77899ad400877616c7ad6bc6df0a593e9a8637e5f00138d1b1f14f22637a7 OP_CHECKSIG",
            "desc": "pk(044ea6c115261dbd06f4172ecdb498843a6ca52e4919e32771554550efcc15706bdbc77899ad400877616c7ad6bc6df0a593e9a8637e5f00138d1b1f14f22637a7)#0alsjpfr",
            "hex": "41044ea6c115261dbd06f4172ecdb498843a6ca52e4919e32771554550efcc15706bdbc77899ad400877616c7ad6bc6df0a593e9a8637e5f00138d1b1f14f22637a7ac",
            "type": "pubkey"
          }
        }
      ],
      "hex": "01000000010000000000000000000000000000000000000000000000000000000000000000ffffffff0704ffff001d0138ffffffff0100f2052a010000004341044ea6c115261dbd06f4172ecdb498843a6ca52e4919e32771554550efcc15706bdbc77899ad400877616c7ad6bc6df0a593e9a8637e5f00138d1b1f14f22637a7ac00000000"
    }
  ]
}