{
  "hash": "00000000c6bcf8f690bdfbcf51a2c4b9057d47f05ba9efc3980b5c83919a8828",
  "confirmations": 52468,
  "height": 518,
  "version": 1,
  "versionHex": "00000001",
  "merkleroot": "be0d66ff141aae1d4787b40c99f1f36ea717fd293b240feb001c32e8fb48ceb7",
  "time": 1231980679,
  "mediantime": 1231976547,
  "nonce": 2112881958,
  "bits": "1d00ffff",
  "difficulty": 1,
  "chainwork": "0000000000000000000000000000000000000000000000000000020702070207",
  "nTx": 1,
  "previousblockhash": "0000000098c4a148c28c0eb7ae6aeca20768db02f4f1f9795f66924da6181214",
  "nextblockhash": "00000000c82dee467b576139731f6197775ba9ff3bb57f0fde638b9a89d00423",
  "strippedsize": 216,
  "size": 216,
  "weight": 864,
  "tx": [
    {
      "txid": "be0d66ff141aae1d4787b40c99f1f36ea717fd293b240feb001c32e8fb48ceb7",
      "hash": "be0d66ff141aae1d4787b40c99f1f36ea717fd293b240feb001c32e8fb48ceb7",
      "version": 1,
      "size": 135,
      "vsize": 135,
      "weight": 540,
      "locktime": 0,
      "vin": [
        {
          "coinbase": "04ffff001d02c504",
          "sequence": 4294967295
        }
      ],
      "vout": [
        {
          "value": 50.0,
          "n": 0,
          "scriptPubKey": {
            "asm": "04f10e4230a0e35b7ef111247075ce043127e3093482c3c6816bc2f49c5738d13fd5904a6df639d992b482aee99d4c953cefe9ade1b6c7b90d755cb286860fb3ef OP_CHECKSIG",
            "desc": "pk(04f10e4230a0e35b7ef111247075ce043127e3093482c3c6816bc2f49c5738d13fd5904a6df639d992b482aee99d4c953cefe9ade1b6c7b90d755cb286860fb3ef)#xq0fqydm",
            "hex": "4104f10e4230a0e35b7ef111247075ce043127e3093482c3c6816bc2f49c5738d13fd5904a6df639d992b482aee99d4c953cefe9ade1b6c7b90d755cb286860fb3efac",
            "type": "pubkey"
          }
        }
      ],
      "hex": "01000000010000000000000000000000000000000000000000000000000000000000000000ffffffff0804ffff001d02c504ffffffff0100f2052a01000000434104f10e4230a0e35b7ef111247075ce043127e3093482c3c6816bc2f49c5738d13fd5904a6df639d992b482aee99d4c953cefe9ade1b6c7b90d755cb286860fb3efac00000000"
    }
  ]
}