{
  "hash": "00000000a73fb23b6c42b18b3253ed29c5d0c80d84624efa12c2cf05c4b4318f",
  "confirmations": 51831,
  "height": 34,
  "version": 1,
  "versionHex": "00000001",
  "merkleroot": "223b0620a8f1c1f23a2ebf8032ed11321b921017d01974e74cddd651319b5474",
  "time": 1231604338,
  "mediantime": 1231601503,
  "nonce": 616579874,
  "bits": "1d00ffff",
  "difficulty": 1,
  "chainwork": "0000000000000000000000000000000000000000000000000000002300230023",
  "nTx": 1,
  "previousblockhash": "00000000a87073ea3d7af299e02a434598b9c92094afa552e0711afcc0857962",
  "nextblockhash": "00000000b572a465b4e816420d47a16274557b3573b7924b64808a82c7322d9b",
  "strippedsize": 215,
  "size": 215,
  "weight": 860,
  "tx": [
    {
      "txid": "223b0620a8f1c1f23a2ebf8032ed11321b921017d01974e74cddd651319b5474",
      "hash": "223b0620a8f1c1f23a2ebf8032ed11321b921017d01974e74cddd651319b5474",
      "version": 1,
      "size": 134,
      "vsize": 134,
      "weight": 536,
      "locktime": 0,
      "vin": [
        {
          "coinbase": "04ffff001d0147",
          "sequence": 4294967295
        }
      ],
      "vout": [
        {
          "value": 50.0,
          "n": 0,
          "scriptPubKey": {
            "asm": "04180bfa57bff462c7641fa0b91efe29344a77086b073cd9c5f769cb2393acc151a4e7377eaabacc39f5b2bd2cd4bcb5ed1855939619e491c79c0bb5793d4edbf3 OP_CHECKSIG",
            "desc": "pk(04180bfa57bff462c7641fa0b91efe29344a77086b073cd9c5f769cb2393acc151a4e7377eaabacc39f5b2bd2cd4bcb5ed1855939619e491c79c0bb5793d4edbf3)#2r3lky44",
            "hex": "4104180bfa57bff462c7641fa0b91efe29344a77086b073cd9c5f769cb2393acc151a4e7377eaabacc39f5b2bd2cd4bcb5ed1855939619e491c79c0bb5793d4edbf3ac",
            "type": "pubkey"
          }
        }
      ],
      "hex": "01000000010000000000000000000000000000000000000000000000000000000000000000ffffffff0704ffff001d0147ffffffff0100f2052a01000000434104180bfa57bff462c7641fa0b91efe29344a77086b073cd9c5f769cb2393acc151a4e7377eaabacc39f5b2bd2cd4bcb5ed1855939619e491c79c0bb5793d4edbf3ac00000000"
    }
  ]
}