{
  "hash": "00000000d50a093110c3cde6536f10c7ca57e46896397372930d74534ac16879",
  "confirmations": 44738,
  "height": 8360,
  "version": 1,
  "versionHex": "00000001",
  "merkleroot": "36997515b7514da1bc200e7cac794ed8f399017013c300d79b7f214c2de71918",
  "time": 1237773655,
  "mediantime": 1237771947,
  "nonce": 1079492130,
  "bits": "1d00ffff",
  "difficulty": 1,
  "chainwork": "000000000000000000000000000000000000000000000000000020a920a920a9",
  "nTx": 1,
  "previousblockhash": "0000000057921684b09457cbaba3b5c7809b40b1e37f71dc54e3b86b5bfaec7e",
  "nextblockhash": "000000009d1eeefa21f3ca68284fd9236e722d6aad7443c2c8f23d124e7fb9df",
  "strippedsize": 216,
  "size": 216,
  "weight": 864,
  "tx": [
    {
      "txid": "36997515b7514da1bc200e7cac794ed8f399017013c300d79b7f214c2de71918",
      "hash": "36997515b7514da1bc200e7cac794ed8f399017013c300d79b7f214c2de71918",
      "version": 1,
      "size": 135,
      "vsize": 135,
      "weight": 540,
      "locktime": 0,
      "vin": [
        {
          "coinbase": "04ffff001d023f05",
          "sequence": 4294967295
        }
      ],
      "vout": [
        {
          "value": 50.0,
          "n": 0,
          "scriptPubKey": {
            "asm": "04b36532a0d10a11811cd56b120e6b9961de927fb00ea400e7cb281864a61c3fc0b67f0b015ec654fd3bfb7233afc31f06ec178d4f9ed07d3e7458c38f05e6c75f OP_CHECKSIG",
            "desc": "pk(04b36532a0d10a11811cd56b120e6b9961de927fb00ea400e7cb281864a61c3fc0b67f0b015ec654fd3bfb7233afc31f06ec178d4f9ed07d3e7458c38f05e6c75f)#jvfdcnc8",
            "hex": "4104b36532a0d10a11811cd56b120e6b9961de927fb00ea400e7cb281864a61c3fc0b67f0b015ec654fd3bfb7233afc31f06ec178d4f9ed07d3e7458c38f05e6c75fac",
            "type": "pubkey"
          }
        }
      ],
      "hex": "01000000010000000000000000000000000000000000000000000000000000000000000000ffffffff0804ffff001d023f05ffffffff0100f2052a01000000434104b36532a0d10a11811cd56b120e6b9961de927fb00ea400e7cb281864a61c3fc0b67f0b015ec654fd3bfb7233afc31f06ec178d4f9ed07d3e7458c38f05e6c75fac00000000"
    }
  ]
}