{
  "hash": "000000008a434bf614865306593649511c5d2a784d5c756b9174619b2e8df9a6",
  "confirmations": 43523,
  "height": 9575,
  "version": 1,
  "versionHex": "00000001",
  "merkleroot": "b18296ad549e129622b313a66e48ece0f4b7d44c37aa06a487d712144dffeea8",
  "time": 1238681628,
  "mediantime": 1238678319,
  "nonce": 1255068722,
  "bits": "1d00ffff",
  "difficulty": 1,
  "chainwork": "0000000000000000000000000000000000000000000000000000256825682568",
  "nTx": 1,
  "previousblockhash": "0000000078493daf495abe0ca316583c5b291ed4e2edc793e7348c70ad6b6c53",
  "nextblockhash": "0000000098e3770b1ae304350692cdfc809035b2077627cbcbd664cf5171a5a2",
  "strippedsize": 216,
  "size": 216,
  "weight": 864,
  "tx": [
    {
      "txid": "b18296ad549e129622b313a66e48ece0f4b7d44c37aa06a487d712144dffeea8",
      "hash": "b18296ad549e129622b313a66e48ece0f4b7d44c37aa06a487d712144dffeea8",
      "version": 1,
      "size": 135,
      "vsize": 135,
      "weight": 540,
      "locktime": 0,
      "vin": [
        {
          "coinbase": "04ffff001d029906",
          "sequence": 4294967295
        }
      ],
      "vout": [
        {
          "value": 50.0,
          "n": 0,
          "scriptPubKey": {
            "asm": "04e7e155788f8d82864cde4df52337ac70dfe23f65cfdeaf7397d81ca756de0619a232262c5afd22dad98d64506e5574d14521367c94785f007a8479955e9dd65a OP_CHECKSIG",
            "desc": "pk(04e7e155788f8d82864cde4df52337ac70dfe23f65cfdeaf7397d81ca756de0619a232262c5afd22dad98d64506e5574d14521367c94785f007a8479955e9dd65a)#t0q7haha",
            "hex": "4104e7e155788f8d82864cde4df52337ac70dfe23f65cfdeaf7397d81ca756de0619a232262c5afd22dad98d64506e5574d14521367c94785f007a8479955e9dd65aac",
            "type": "pubkey"
          }
        }
      ],
      "hex": "01000000010000000000000000000000000000000000000000000000000000000000000000ffffffff0804ffff001d029906ffffffff0100f2052a01000000434104e7e155788f8d82864cde4df52337ac70dfe23f65cfdeaf7397d81ca756de0619a232262c5afd22dad98d64506e5574d14521367c94785f007a8479955e9dd65aac00000000"
    }
  ]
}