{
  "hash": "00000000e8abf3d8f51adfe484443d87f054de0632a7330f3b9f4e1be1225610",
  "confirmations": 43256,
  "height": 9842,
  "version": 1,
  "versionHex": "00000001",
  "merkleroot": "2b9fab7773a140890d396268dae6d323e8b5526940db8be28178559ef75186d6",
  "time": 1238885764,
  "mediantime": 1238882064,
  "nonce": 1421711873,
  "bits": "1d00ffff",
  "difficulty": 1,
  "chainwork": "0000000000000000000000000000000000000000000000000000267326732673",
  "nTx": 1,
  "previousblockhash": "00000000a24ffe7c80ead2ec6243cc63ccf856b283fcc540f99c0290d8c83d84",
  "nextblockhash": "000000008662451ad23b11fe82c8454201cc79613d14cc462941c512626a2c46",
  "strippedsize": 216,
  "size": 216,
  "weight": 864,
  "tx": [
    {
      "txid": "2b9fab7773a140890d396268dae6d323e8b5526940db8be28178559ef75186d6",
      "hash": "2b9fab7773a140890d396268dae6d323e8b5526940db8be28178559ef75186d6",
      "version": 1,
      "size": 135,
      "vsize": 135,
      "weight": 540,
      "locktime": 0,
      "vin": [
        {
          "coinbase": "04ffff001d020801",
          "sequence": 4294967295
        }
      ],
      "vout": [
        {
          "value": 50.0,
          "n": 0,
          "scriptPubKey": {
            "asm": "0402ebcb9c1db572d18c8059b11864d980245437606931d4ba06e4071305e9e645ed97fe5e3de47da9a53a81f23834b38abceec67301d30564b13b0d847b139058 OP_CHECKSIG",
            "desc": "pk(0402ebcb9c1db572d18c8059b11864d980245437606931d4ba06e4071305e9e645ed97fe5e3de47da9a53a81f23834b38abceec67301d30564b13b0d847b139058)#2sdvmgfx",
            "hex": "410402ebcb9c1db572d18c8059b11864d980245437606931d4ba06e4071305e9e645ed97fe5e3de47da9a53a81f23834b38abceec67301d30564b13b0d847b139058ac",
            "type": "pubkey"
          }
        }
      ],
      "hex": "01000000010000000000000000000000000000000000000000000000000000000000000000ffffffff0804ffff001d020801ffffffff0100f2052a0100000043410402ebcb9c1db572d18c8059b11864d980245437606931d4ba06e4071305e9e645ed97fe5e3de47da9a53a81f23834b38abceec67301d30564b13b0d847b139058ac00000000"
    }
  ]
}