{
  "hash": "0000000054c76b6f6f5281bec251577475cc500fc2f754a3e58985752e6cee12",
  "confirmations": 47089,
  "height": 6009,
  "version": 1,
  "versionHex": "00000001",
  "merkleroot": "155de27858810b74b9103e550813b758409d4e2770a1d4e4e28c24b7e8e71496",
  "time": 1235932177,
  "mediantime": 1235929435,
  "nonce": 2295379768,
  "bits": "1d00ffff",
  "difficulty": 1,
  "chainwork": "0000000000000000000000000000000000000000000000000000177a177a177a",
  "nTx": 1,
  "previousblockhash": "00000000b620e15a469e3404a0a5e74ace5b93d69234d1b5dc5dbbe59d54a1aa",
  "nextblockhash": "000000002d099cb0497257d14889b8291cf70642f41d3c4784e15d16b65dd961",
  "strippedsize": 216,
  "size": 216,
  "weight": 864,
  "tx": [
    {
      "txid": "155de27858810b74b9103e550813b758409d4e2770a1d4e4e28c24b7e8e71496",
      "hash": "155de27858810b74b9103e550813b758409d4e2770a1d4e4e28c24b7e8e71496",
      "version": 1,
      "size": 135,
      "vsize": 135,
      "weight": 540,
      "locktime": 0,
      "vin": [
        {
          "coinbase": "04ffff001d021205",
          "sequence": 4294967295
        }
      ],
      "vout": [
        {
          "value": 50.0,
          "n": 0,
          "scriptPubKey": {
            "asm": "04c9fe2ff9ec02bd8b46e9ea6162ff16da3a504e1752ab04b44e9ca875c8c13862d782154a0b301718841ea37399af2e4a9ff80f9669e3b1b7ed2932727b3b6149 OP_CHECKSIG",
            "desc": "pk(04c9fe2ff9ec02bd8b46e9ea6162ff16da3a504e1752ab04b44e9ca875c8c13862d782154a0b301718841ea37399af2e4a9ff80f9669e3b1b7ed2932727b3b6149)#u45lyd5g",
            "hex": "4104c9fe2ff9ec02bd8b46e9ea6162ff16da3a504e1752ab04b44e9ca875c8c13862d782154a0b301718841ea37399af2e4a9ff80f9669e3b1b7ed2932727b3b6149ac",
            "type": "pubkey"
          }
        }
      ],
      "hex": "01000000010000000000000000000000000000000000000000000000000000000000000000ffffffff0804ffff001d021205ffffffff0100f2052a01000000434104c9fe2ff9ec02bd8b46e9ea6162ff16da3a504e1752ab04b44e9ca875c8c13862d782154a0b301718841ea37399af2e4a9ff80f9669e3b1b7ed2932727b3b6149ac00000000"
    }
  ]
}