{
  "hash": "00000000aaaa8ffe108ac1aba04f8415014a2d3892f9849b52b30e9726af533f",
  "confirmations": 44395,
  "height": 8703,
  "version": 1,
  "versionHex": "00000001",
  "merkleroot": "5eab83f8e4fac9f9a75a3482f06942353bc2673771443fc173ff15ace980c933",
  "time": 1238026927,
  "mediantime": 1238023221,
  "nonce": 318440980,
  "bits": "1d00ffff",
  "difficulty": 1,
  "chainwork": "0000000000000000000000000000000000000000000000000000220022002200",
  "nTx": 1,
  "previousblockhash": "00000000d44c165c8c8a7e9a2aa502a299327c744addee331b03733fe1b382f0",
  "nextblockhash": "0000000023bf2a6b9fdb55a03690eb77a746bb0e95488f18c666c45cf3511720",
  "strippedsize": 216,
  "size": 216,
  "weight": 864,
  "tx": [
    {
      "txid": "5eab83f8e4fac9f9a75a3482f06942353bc2673771443fc173ff15ace980c933",
      "hash": "5eab83f8e4fac9f9a75a3482f06942353bc2673771443fc173ff15ace980c933",
      "version": 1,
      "size": 135,
      "vsize": 135,
      "weight": 540,
      "locktime": 0,
      "vin": [
        {
          "coinbase": "04ffff001d02c302",
          "sequence": 4294967295
        }
      ],
      "vout": [
        {
          "value": 50.0,
          "n": 0,
          "scriptPubKey": {
            "asm": "04e08d0a19af69f07b566d2a6d8c63c740d592fafc8c045cbe0bd4f9ec38323b169d13ba0fcf7824db3e4db780ce009a832c1a243e2fb192c00bb7840313e475a0 OP_CHECKSIG",
            "desc": "pk(04e08d0a19af69f07b566d2a6d8c63c740d592fafc8c045cbe0bd4f9ec38323b169d13ba0fcf7824db3e4db780ce009a832c1a243e2fb192c00bb7840313e475a0)#53dy4700",
            "hex": "4104e08d0a19af69f07b566d2a6d8c63c740d592fafc8c045cbe0bd4f9ec38323b169d13ba0fcf7824db3e4db780ce009a832c1a243e2fb192c00bb7840313e475a0ac",
            "type": "pubkey"
          }
        }
      ],
      "hex": "01000000010000000000000000000000000000000000000000000000000000000000000000ffffffff0804ffff001d02c302ffffffff0100f2052a01000000434104e08d0a19af69f07b566d2a6d8c63c740d592fafc8c045cbe0bd4f9ec38323b169d13ba0fcf7824db3e4db780ce009a832c1a243e2fb192c00bb7840313e475a0ac00000000"
    }
  ]
}