{
  "hash": "00000000c7dbed2ee7e87f6aa4f139d1a8b47ed721aae6ef11b66872a3a81ad5",
  "confirmations": 49946,
  "height": 3152,
  "version": 1,
  "versionHex": "00000001",
  "merkleroot": "63a08cfe1cfb39cf69e9a213ec3d13be845008a555e549a7ad18d800d3cfae7a",
  "time": 1233868588,
  "mediantime": 1233865495,
  "nonce": 628038166,
  "bits": "1d00ffff",
  "difficulty": 1,
  "chainwork": "00000000000000000000000000000000000000000000000000000c510c510c51",
  "nTx": 1,
  "previousblockhash": "00000000a51617eee6b4a6e4e5ba4dd9f79aa59c92f7be03f4c4cca995995b51",
  "nextblockhash": "0000000092a762e2e74308fc7d649a52e8b60455d10429b417be16adf005c13d",
  "strippedsize": 216,
  "size": 216,
  "weight": 864,
  "tx": [
    {
      "txid": "63a08cfe1cfb39cf69e9a213ec3d13be845008a555e549a7ad18d800d3cfae7a",
      "hash": "63a08cfe1cfb39cf69e9a213ec3d13be845008a555e549a7ad18d800d3cfae7a",
      "version": 1,
      "size": 135,
      "vsize": 135,
      "weight": 540,
      "locktime": 0,
      "vin": [
        {
          "coinbase": "04ffff001d020a02",
          "sequence": 4294967295
        }
      ],
      "vout": [
        {
          "value": 50.0,
          "n": 0,
          "scriptPubKey": {
            "asm": "041a0d785aa16dee52c9cda08841f4beae1631040a75f4c85c68e3e82343e31edba2a80ca9d8b38b6b7325034acbc94a47bbe286d642723cebc9b5102e0a37245c OP_CHECKSIG",
            "desc": "pk(041a0d785aa16dee52c9cda08841f4beae1631040a75f4c85c68e3e82343e31edba2a80ca9d8b38b6b7325034acbc94a47bbe286d642723cebc9b5102e0a37245c)#v7z3043z",
            "hex": "41041a0d785aa16dee52c9cda08841f4beae1631040a75f4c85c68e3e82343e31edba2a80ca9d8b38b6b7325034acbc94a47bbe286d642723cebc9b5102e0a37245cac",
            "type": "pubkey"
          }
        }
      ],
      "hex": "01000000010000000000000000000000000000000000000000000000000000000000000000ffffffff0804ffff001d020a02ffffffff0100f2052a010000004341041a0d785aa16dee52c9cda08841f4beae1631040a75f4c85c68e3e82343e31edba2a80ca9d8b38b6b7325034acbc94a47bbe286d642723cebc9b5102e0a37245cac00000000"
    }
  ]
}