{
  "hash": "000000004d6a6dd8b882deec7b54421949dddd2c166bd51ee7f62a52091a6c35",
  "confirmations": 52007,
  "height": 111,
  "version": 1,
  "versionHex": "00000001",
  "merkleroot": "e7a3e246c6f2d582b089d7d6c2f925e8aae46ef0c0ce97d3dd3afe3016a44e97",
  "time": 1231669673,
  "mediantime": 1231665565,
  "nonce": 4076340484,
  "bits": "1d00ffff",
  "difficulty": 1,
  "chainwork": "0000000000000000000000000000000000000000000000000000007000700070",
  "nTx": 1,
  "previousblockhash": "00000000a30e366158a1813a6fda9f913497000a68f1c008b9f935b866cee55b",
  "nextblockhash": "00000000ce2780c9640fde662ffbb07a10c9e96a226718875225a9a0fe6ac337",
  "strippedsize": 216,
  "size": 216,
  "weight": 864,
  "tx": [
    {
      "txid": "e7a3e246c6f2d582b089d7d6c2f925e8aae46ef0c0ce97d3dd3afe3016a44e97",
      "hash": "e7a3e246c6f2d582b089d7d6c2f925e8aae46ef0c0ce97d3dd3afe3016a44e97",
      "version": 1,
      "size": 135,
      "vsize": 135,
      "weight": 540,
      "locktime": 0,
      "vin": [
        {
          "coinbase": "04ffff001d02a700",
          "sequence": 4294967295
        }
      ],
      "vout": [
        {
          "value": 50.0,
          "n": 0,
          "scriptPubKey": {
            "asm": "04a75502d3670b14b7e5640591191c05868da841699d52f9752a70dc891183a2b9a00f7a5893389f3b973a8ac5e30c20041ccbd99a3889b7ae7a705203d0991498 OP_CHECKSIG",
            "desc": "pk(04a75502d3670b14b7e5640591191c05868da841699d52f9752a70dc891183a2b9a00f7a5893389f3b973a8ac5e30c20041ccbd99a3889b7ae7a705203d0991498)#t8yvze8a",
            "hex": "4104a75502d3670b14b7e5640591191c05868da841699d52f9752a70dc891183a2b9a00f7a5893389f3b973a8ac5e30c20041ccbd99a3889b7ae7a705203d0991498ac",
            "type": "pubkey"
          }
        }
      ],
      "hex": "01000000010000000000000000000000000000000000000000000000000000000000000000ffffffff0804ffff001d02a700ffffffff0100f2052a01000000434104a75502d3670b14b7e5640591191c05868da841699d52f9752a70dc891183a2b9a00f7a5893389f3b973a8ac5e30c20041ccbd99a3889b7ae7a705203d0991498ac00000000"
    }
  ]
}