{
  "hash": "00000000cd9b12643e6854cb25939b39cd7a1ad0af31a9bd8b2efe67854b1995",
  "confirmations": 51969,
  "height": 99,
  "version": 1,
  "versionHex": "00000001",
  "merkleroot": "33a4592d4d8dc04304361ad7bcd96fe23fa801db6d7d917074f75c732079a569",
  "time": 1231660146,
  "mediantime": 1231655581,
  "nonce": 2500462385,
  "bits": "1d00ffff",
  "difficulty": 1,
  "chainwork": "0000000000000000000000000000000000000000000000000000006400640064",
  "nTx": 1,
  "previousblockhash": "00000000a8ed5e960dccdf309f2ee2132badcc9247755c32a4b7081422d51899",
  "nextblockhash": "000000007bc154e0fa7ea32218a72fe2c1bb9f86cf8c9ebf9a715ed27fdb229a",
  "strippedsize": 215,
  "size": 215,
  "weight": 860,
  "tx": [
    {
      "txid": "33a4592d4d8dc04304361ad7bcd96fe23fa801db6d7d917074f75c732079a569",
      "hash": "33a4592d4d8dc04304361ad7bcd96fe23fa801db6d7d917074f75c732079a569",
      "version": 1,
      "size": 134,
      "vsize": 134,
      "weight": 536,
      "locktime": 0,
      "vin": [
        {
          "coinbase": "04ffff001d0145",
          "sequence": 4294967295
        }
      ],
      "vout": [
        {
          "value": 50.0,
          "n": 0,
          "scriptPubKey": {
            "asm": "04c6b866deb67d6f20d7030817e1afa3c57ab94ffa1b3b39d365fa047aa518868697376dec5a78d497965af57cd27af63362c2df85e7823a0144e06a37851e072e OP_CHECKSIG",
            "desc": "pk(04c6b866deb67d6f20d7030817e1afa3c57ab94ffa1b3b39d365fa047aa518868697376dec5a78d497965af57cd27af63362c2df85e7823a0144e06a37851e072e)#wqkdh9z0",
            "hex": "4104c6b866deb67d6f20d7030817e1afa3c57ab94ffa1b3b39d365fa047aa518868697376dec5a78d497965af57cd27af63362c2df85e7823a0144e06a37851e072eac",
            "type": "pubkey"
          }
        }
      ],
      "hex": "01000000010000000000000000000000000000000000000000000000000000000000000000ffffffff0704ffff001d0145ffffffff0100f2052a01000000434104c6b866deb67d6f20d7030817e1afa3c57ab94ffa1b3b39d365fa047aa518868697376dec5a78d497965af57cd27af63362c2df85e7823a0144e06a37851e072eac00000000"
    }
  ]
}