{
  "hash": "000000000031e03f8f396ba4d1ae91489983fc878e3f4295e15052edf33858a5",
  "confirmations": 44644,
  "height": 8454,
  "version": 1,
  "versionHex": "00000001",
  "merkleroot": "7d1c9af312aef89c944b1bb57444f290bbf76752b2c12e35a09ab1ac456bf525",
  "time": 1237832772,
  "mediantime": 1237829306,
  "nonce": 2255048225,
  "bits": "1d00ffff",
  "difficulty": 1,
  "chainwork": "0000000000000000000000000000000000000000000000000000210721072107",
  "nTx": 1,
  "previousblockhash": "0000000096dbaac683385c185df9fc82677b5aa72d36be2799dd4fadcf79a32f",
  "nextblockhash": "00000000c858ffba5731087a945836fcb2e778ce6446ff3e8a40b77a44ef6945",
  "strippedsize": 216,
  "size": 216,
  "weight": 864,
  "tx": [
    {
      "txid": "7d1c9af312aef89c944b1bb57444f290bbf76752b2c12e35a09ab1ac456bf525",
      "hash": "7d1c9af312aef89c944b1bb57444f290bbf76752b2c12e35a09ab1ac456bf525",
      "version": 1,
      "size": 135,
      "vsize": 135,
      "weight": 540,
      "locktime": 0,
      "vin": [
        {
          "coinbase": "04ffff001d02ce06",
          "sequence": 4294967295
        }
      ],
      "vout": [
        {
          "value": 50.0,
          "n": 0,
          "scriptPubKey": {
            "asm": "04d98f0ee025865ad4feff6b0596a785b3cb28faf41c0ef7d1c66128801e3e1f84d45afafc6c44b6d51bd443f32df71fa53c736d9211152a71e30ac8309f52af53 OP_CHECKSIG",
            "desc": "pk(04d98f0ee025865ad4feff6b0596a785b3cb28faf41c0ef7d1c66128801e3e1f84d45afafc6c44b6d51bd443f32df71fa53c736d9211152a71e30ac8309f52af53)#2ht6m4lk",
            "hex": "4104d98f0ee025865ad4feff6b0596a785b3cb28faf41c0ef7d1c66128801e3e1f84d45afafc6c44b6d51bd443f32df71fa53c736d9211152a71e30ac8309f52af53ac",
            "type": "pubkey"
          }
        }
      ],
      "hex": "01000000010000000000000000000000000000000000000000000000000000000000000000ffffffff0804ffff001d02ce06ffffffff0100f2052a01000000434104d98f0ee025865ad4feff6b0596a785b3cb28faf41c0ef7d1c66128801e3e1f84d45afafc6c44b6d51bd443f32df71fa53c736d9211152a71e30ac8309f52af53ac00000000"
    }
  ]
}