{
  "hash": "00000000f968a8fef2e92ef6296a62d6d7fb6219643a0aef3d95e9e26421c634",
  "confirmations": 45449,
  "height": 7649,
  "version": 1,
  "versionHex": "00000001",
  "merkleroot": "8abd44875656b9906ed320ac357aa4043356e9c19ae0ce6b8432e9563d8563bb",
  "time": 1237202314,
  "mediantime": 1237198503,
  "nonce": 43072168,
  "bits": "1d00ffff",
  "difficulty": 1,
  "chainwork": "00000000000000000000000000000000000000000000000000001de21de21de2",
  "nTx": 1,
  "previousblockhash": "00000000149a05aa3aa2544993ee1e359683750df8ec055c183e749f452c1fcf",
  "nextblockhash": "00000000b5e5bdc399d6cc3b4312dd0ccd2c686663a7aa337647772473bf3570",
  "strippedsize": 216,
  "size": 216,
  "weight": 864,
  "tx": [
    {
      "txid": "8abd44875656b9906ed320ac357aa4043356e9c19ae0ce6b8432e9563d8563bb",
      "hash": "8abd44875656b9906ed320ac357aa4043356e9c19ae0ce6b8432e9563d8563bb",
      "version": 1,
      "size": 135,
      "vsize": 135,
      "weight": 540,
      "locktime": 0,
      "vin": [
        {
          "coinbase": "04ffff001d029108",
          "sequence": 4294967295
        }
      ],
      "vout": [
        {
          "value": 50.0,
          "n": 0,
          "scriptPubKey": {
            "asm": "04d6ae391aeb5d4d20cdc6dd060040b4db1a7942c2ae2ab9b6c6b61fa9bfed1e5ca680f77901fecb462bd5685f32f7d2a57d90cd4a46575e164804fd144a66b8ef OP_CHECKSIG",
            "desc": "pk(04d6ae391aeb5d4d20cdc6dd060040b4db1a7942c2ae2ab9b6c6b61fa9bfed1e5ca680f77901fecb462bd5685f32f7d2a57d90cd4a46575e164804fd144a66b8ef)#3fxet48r",
            "hex": "4104d6ae391aeb5d4d20cdc6dd060040b4db1a7942c2ae2ab9b6c6b61fa9bfed1e5ca680f77901fecb462bd5685f32f7d2a57d90cd4a46575e164804fd144a66b8efac",
            "type": "pubkey"
          }
        }
      ],
      "hex": "01000000010000000000000000000000000000000000000000000000000000000000000000ffffffff0804ffff001d029108ffffffff0100f2052a01000000434104d6ae391aeb5d4d20cdc6dd060040b4db1a7942c2ae2ab9b6c6b61fa9bfed1e5ca680f77901fecb462bd5685f32f7d2a57d90cd4a46575e164804fd144a66b8efac00000000"
    }
  ]
}