{
  "hash": "00000000042f0f3f54ea856a76160609bfb9cb3551085fa0e9f12771e9bad5e9",
  "confirmations": 47533,
  "height": 5565,
  "version": 1,
  "versionHex": "00000001",
  "merkleroot": "0351e33c9cd0512860f7d62b70296f99c162dfa5ea066bacf770fe31a3827146",
  "time": 1235575171,
  "mediantime": 1235571270,
  "nonce": 3414355001,
  "bits": "1d00ffff",
  "difficulty": 1,
  "chainwork": "000000000000000000000000000000000000000000000000000015be15be15be",
  "nTx": 1,
  "previousblockhash": "00000000be8627e96b08630d714bd2d2281fee73a4c9d84306379ff1034da4af",
  "nextblockhash": "00000000fac4c353a6e426c186b9f98e7f600c2f4768af8bae898b738ab58d87",
  "strippedsize": 216,
  "size": 216,
  "weight": 864,
  "tx": [
    {
      "txid": "0351e33c9cd0512860f7d62b70296f99c162dfa5ea066bacf770fe31a3827146",
      "hash": "0351e33c9cd0512860f7d62b70296f99c162dfa5ea066bacf770fe31a3827146",
      "version": 1,
      "size": 135,
      "vsize": 135,
      "weight": 540,
      "locktime": 0,
      "vin": [
        {
          "coinbase": "04ffff001d02ea06",
          "sequence": 4294967295
        }
      ],
      "vout": [
        {
          "value": 50.0,
          "n": 0,
          "scriptPubKey": {
            "asm": "048a1980ba528fa12306b171573c17ac92a9189b3ed93c02b9c8aec4508728379870813b003d1f39de72e6ab1262c4b44ae0b70601a25c60d15ac2cd7ad76ed73f OP_CHECKSIG",
            "desc": "pk(048a1980ba528fa12306b171573c17ac92a9189b3ed93c02b9c8aec4508728379870813b003d1f39de72e6ab1262c4b44ae0b70601a25c60d15ac2cd7ad76ed73f)#9wnuha5w",
            "hex": "41048a1980ba528fa12306b171573c17ac92a9189b3ed93c02b9c8aec4508728379870813b003d1f39de72e6ab1262c4b44ae0b70601a25c60d15ac2cd7ad76ed73fac",
            "type": "pubkey"
          }
        }
      ],
      "hex": "01000000010000000000000000000000000000000000000000000000000000000000000000ffffffff0804ffff001d02ea06ffffffff0100f2052a010000004341048a1980ba528fa12306b171573c17ac92a9189b3ed93c02b9c8aec4508728379870813b003d1f39de72e6ab1262c4b44ae0b70601a25c60d15ac2cd7ad76ed73fac00000000"
    }
  ]
}