{
  "hash": "00000000b828d5261f040827d682721f6f54fe21f1b263745968d31cc1e10837",
  "confirmations": 43102,
  "height": 9996,
  "version": 1,
  "versionHex": "00000001",
  "merkleroot": "8f4eb148bc0361eb5c05868fc799616f7d77a7ddfc15c60230caf2398f97e583",
  "time": 1238985246,
  "mediantime": 1238983316,
  "nonce": 3890397751,
  "bits": "1d00ffff",
  "difficulty": 1,
  "chainwork": "0000000000000000000000000000000000000000000000000000270d270d270d",
  "nTx": 1,
  "previousblockhash": "00000000244e9eed41e1fbe83ade0336808571c9df875998ed2529568e57f57d",
  "nextblockhash": "00000000d59da91580f0e568e00a3d56279b78e5786c993543610d7ad692cbcd",
  "strippedsize": 216,
  "size": 216,
  "weight": 864,
  "tx": [
    {
      "txid": "8f4eb148bc0361eb5c05868fc799616f7d77a7ddfc15c60230caf2398f97e583",
      "hash": "8f4eb148bc0361eb5c05868fc799616f7d77a7ddfc15c60230caf2398f97e583",
      "version": 1,
      "size": 135,
      "vsize": 135,
      "weight": 540,
      "locktime": 0,
      "vin": [
        {
          "coinbase": "04ffff001d024e03",
          "sequence": 4294967295
        }
      ],
      "vout": [
        {
          "value": 50.0,
          "n": 0,
          "scriptPubKey": {
            "asm": "04180012cddf34cc641a6b0cb014e5378b962d1773d759922f1523682c77dea58406d27e359735bf77f723415322bf1c66fafa56b98477de80b660bacb2d759b7f OP_CHECKSIG",
            "desc": "pk(04180012cddf34cc641a6b0cb014e5378b962d1773d759922f1523682c77dea58406d27e359735bf77f723415322bf1c66fafa56b98477de80b660bacb2d759b7f)#7exfcapj",
            "hex": "4104180012cddf34cc641a6b0cb014e5378b962d1773d759922f1523682c77dea58406d27e359735bf77f723415322bf1c66fafa56b98477de80b660bacb2d759b7fac",
            "type": "pubkey"
          }
        }
      ],
      "hex": "01000000010000000000000000000000000000000000000000000000000000000000000000ffffffff0804ffff001d024e03ffffffff0100f2052a01000000434104180012cddf34cc641a6b0cb014e5378b962d1773d759922f1523682c77dea58406d27e359735bf77f723415322bf1c66fafa56b98477de80b660bacb2d759b7fac00000000"
    }
  ]
}