{
  "hash": "000000002a328821dc9296af7ee9c723cdd44a5a58dbd0ca2a032efc52712c48",
  "confirmations": 45808,
  "height": 7290,
  "version": 1,
  "versionHex": "00000001",
  "merkleroot": "8d2ad25f47e479d6f5c5d7183ff2a582c6b5570d0e287fbb5e0b926e0b275205",
  "time": 1236941463,
  "mediantime": 1236936747,
  "nonce": 969486345,
  "bits": "1d00ffff",
  "difficulty": 1,
  "chainwork": "00000000000000000000000000000000000000000000000000001c7b1c7b1c7b",
  "nTx": 1,
  "previousblockhash": "00000000d74790381c24c4a617921091bd225a48c6a7145e7600b52ac0db32ec",
  "nextblockhash": "000000002f9a0690fe60aa6111258c49c9ea48ccc3ca7f3d9684a35677ebfd9a",
  "strippedsize": 216,
  "size": 216,
  "weight": 864,
  "tx": [
    {
      "txid": "8d2ad25f47e479d6f5c5d7183ff2a582c6b5570d0e287fbb5e0b926e0b275205",
      "hash": "8d2ad25f47e479d6f5c5d7183ff2a582c6b5570d0e287fbb5e0b926e0b275205",
      "version": 1,
      "size": 135,
      "vsize": 135,
      "weight": 540,
      "locktime": 0,
      "vin": [
        {
          "coinbase": "04ffff001d024107",
          "sequence": 4294967295
        }
      ],
      "vout": [
        {
          "value": 50.0,
          "n": 0,
          "scriptPubKey": {
            "asm": "04e79b242c28b47d957509df59867e5a550bc8aafe000ac68b64e4eee64af6c7d3586bf109f2419bf8d752e53970b27f7175d6de6b89bccf5bc8fe660105c6d399 OP_CHECKSIG",
            "desc": "pk(04e79b242c28b47d957509df59867e5a550bc8aafe000ac68b64e4eee64af6c7d3586bf109f2419bf8d752e53970b27f7175d6de6b89bccf5bc8fe660105c6d399)#622e4ap8",
            "hex": "4104e79b242c28b47d957509df59867e5a550bc8aafe000ac68b64e4eee64af6c7d3586bf109f2419bf8d752e53970b27f7175d6de6b89bccf5bc8fe660105c6d399ac",
            "type": "pubkey"
          }
        }
      ],
      "hex": "01000000010000000000000000000000000000000000000000000000000000000000000000ffffffff0804ffff001d024107ffffffff0100f2052a01000000434104e79b242c28b47d957509df59867e5a550bc8aafe000ac68b64e4eee64af6c7d3586bf109f2419bf8d752e53970b27f7175d6de6b89bccf5bc8fe660105c6d399ac00000000"
    }
  ]
}