{
  "hash": "000000004fd009d894abe93f6fbbfd88ef9084dbbcad5b865eddc5d4f6ade142",
  "confirmations": 48022,
  "height": 5076,
  "version": 1,
  "versionHex": "00000001",
  "merkleroot": "06b90343bef25405206af19999cfaa08951f46e995e286768a9bf4709c0997a4",
  "time": 1235198119,
  "mediantime": 1235194028,
  "nonce": 1622934568,
  "bits": "1d00ffff",
  "difficulty": 1,
  "chainwork": "000000000000000000000000000000000000000000000000000013d513d513d5",
  "nTx": 1,
  "previousblockhash": "0000000080fdfe6991556339df99174d2bd8b30613622726bebae82a87440096",
  "nextblockhash": "0000000093a83868382518d92909290f14d977f700acc6a55142aefdc1a5739d",
  "strippedsize": 216,
  "size": 216,
  "weight": 864,
  "tx": [
    {
      "txid": "06b90343bef25405206af19999cfaa08951f46e995e286768a9bf4709c0997a4",
      "hash": "06b90343bef25405206af19999cfaa08951f46e995e286768a9bf4709c0997a4",
      "version": 1,
      "size": 135,
      "vsize": 135,
      "weight": 540,
      "locktime": 0,
      "vin": [
        {
          "coinbase": "04ffff001d026d08",
          "sequence": 4294967295
        }
      ],
      "vout": [
        {
          "value": 50.0,
          "n": 0,
          "scriptPubKey": {
            "asm": "04eec4b44cb14824e84c38020f7bcb2e9578c175102b147ec629c93d787e8cddb898e56c9b8c3750c6a71ea1d55edea2df32ea18a5c16fd107d44dbe660c1a7775 OP_CHECKSIG",
            "desc": "pk(04eec4b44cb14824e84c38020f7bcb2e9578c175102b147ec629c93d787e8cddb898e56c9b8c3750c6a71ea1d55edea2df32ea18a5c16fd107d44dbe660c1a7775)#ghe5ejd4",
            "hex": "4104eec4b44cb14824e84c38020f7bcb2e9578c175102b147ec629c93d787e8cddb898e56c9b8c3750c6a71ea1d55edea2df32ea18a5c16fd107d44dbe660c1a7775ac",
            "type": "pubkey"
          }
        }
      ],
      "hex": "01000000010000000000000000000000000000000000000000000000000000000000000000ffffffff0804ffff001d026d08ffffffff0100f2052a01000000434104eec4b44cb14824e84c38020f7bcb2e9578c175102b147ec629c93d787e8cddb898e56c9b8c3750c6a71ea1d55edea2df32ea18a5c16fd107d44dbe660c1a7775ac00000000"
    }
  ]
}