{
  "hash": "000000009525cb6d461036fcbb40ec7ffd427f581569441c1395a5deedd765a9",
  "confirmations": 47199,
  "height": 5899,
  "version": 1,
  "versionHex": "00000001",
  "merkleroot": "572323438850d1c75bf29115de5f08e7dcaa74828ab0e6dcb2d80da7b18d492d",
  "time": 1235843413,
  "mediantime": 1235838969,
  "nonce": 914413098,
  "bits": "1d00ffff",
  "difficulty": 1,
  "chainwork": "0000000000000000000000000000000000000000000000000000170c170c170c",
  "nTx": 1,
  "previousblockhash": "000000006c754600cb31121249d282e0ddcb11c80d1867b896e6d3fcd24d1fa5",
  "nextblockhash": "00000000b81a499a58a1c13ca64f6f2bd072bab8146e3067b29dcc1eab71e926",
  "strippedsize": 216,
  "size": 216,
  "weight": 864,
  "tx": [
    {
      "txid": "572323438850d1c75bf29115de5f08e7dcaa74828ab0e6dcb2d80da7b18d492d",
      "hash": "572323438850d1c75bf29115de5f08e7dcaa74828ab0e6dcb2d80da7b18d492d",
      "version": 1,
      "size": 135,
      "vsize": 135,
      "weight": 540,
      "locktime": 0,
      "vin": [
        {
          "coinbase": "04ffff001d020003",
          "sequence": 4294967295
        }
      ],
      "vout": [
        {
          "value": 50.0,
          "n": 0,
          "scriptPubKey": {
            "asm": "0440e4f03bbc23fc8523eda8ef78e993eeca01995b0355da0d87cdf9a0a0ee0b8df7682097c6908f3744ad20711f8748271a4e596313accb194adc27c10868efc4 OP_CHECKSIG",
            "desc": "pk(0440e4f03bbc23fc8523eda8ef78e993eeca01995b0355da0d87cdf9a0a0ee0b8df7682097c6908f3744ad20711f8748271a4e596313accb194adc27c10868efc4)#fc0edytt",
            "hex": "410440e4f03bbc23fc8523eda8ef78e993eeca01995b0355da0d87cdf9a0a0ee0b8df7682097c6908f3744ad20711f8748271a4e596313accb194adc27c10868efc4ac",
            "type": "pubkey"
          }
        }
      ],
      "hex": "01000000010000000000000000000000000000000000000000000000000000000000000000ffffffff0804ffff001d020003ffffffff0100f2052a0100000043410440e4f03bbc23fc8523eda8ef78e993eeca01995b0355da0d87cdf9a0a0ee0b8df7682097c6908f3744ad20711f8748271a4e596313accb194adc27c10868efc4ac00000000"
    }
  ]
}