{
  "hash": "000000008e3316a0a8fdb9e806706f0893d0f739d4c6eb9b5ed4e5a7b63e1337",
  "confirmations": 47256,
  "height": 5842,
  "version": 1,
  "versionHex": "00000001",
  "merkleroot": "7a18c451f00053c94f989912614c1a495b51fedf08188c1ecdf793fa014b6783",
  "time": 1235794684,
  "mediantime": 1235790260,
  "nonce": 4275125296,
  "bits": "1d00ffff",
  "difficulty": 1,
  "chainwork": "000000000000000000000000000000000000000000000000000016d316d316d3",
  "nTx": 1,
  "previousblockhash": "00000000c3c2749b1a7d80aea4ae36313f64d2e3864906c3bed8c375d4107688",
  "nextblockhash": "000000007f7066100aecbe79f3e0ff7c705a3c910656730e03f101d1b3645ec1",
  "strippedsize": 216,
  "size": 216,
  "weight": 864,
  "tx": [
    {
      "txid": "7a18c451f00053c94f989912614c1a495b51fedf08188c1ecdf793fa014b6783",
      "hash": "7a18c451f00053c94f989912614c1a495b51fedf08188c1ecdf793fa014b6783",
      "version": 1,
      "size": 135,
      "vsize": 135,
      "weight": 540,
      "locktime": 0,
      "vin": [
        {
          "coinbase": "04ffff001d028c01",
          "sequence": 4294967295
        }
      ],
      "vout": [
        {
          "value": 50.0,
          "n": 0,
          "scriptPubKey": {
            "asm": "0418c04b6eb6f210b4e8d24dcc12e9f8913fae4671151b536f7f60a3974149b9ad16dd685b7b6ed7d60234728ee8f4352072eea5790e30ab1cd8cad50e7c1d89d8 OP_CHECKSIG",
            "desc": "pk(0418c04b6eb6f210b4e8d24dcc12e9f8913fae4671151b536f7f60a3974149b9ad16dd685b7b6ed7d60234728ee8f4352072eea5790e30ab1cd8cad50e7c1d89d8)#9k3uhe4a",
            "hex": "410418c04b6eb6f210b4e8d24dcc12e9f8913fae4671151b536f7f60a3974149b9ad16dd685b7b6ed7d60234728ee8f4352072eea5790e30ab1cd8cad50e7c1d89d8ac",
            "type": "pubkey"
          }
        }
      ],
      "hex": "01000000010000000000000000000000000000000000000000000000000000000000000000ffffffff0804ffff001d028c01ffffffff0100f2052a0100000043410418c04b6eb6f210b4e8d24dcc12e9f8913fae4671151b536f7f60a3974149b9ad16dd685b7b6ed7d60234728ee8f4352072eea5790e30ab1cd8cad50e7c1d89d8ac00000000"
    }
  ]
}