{
  "hash": "00000000395cf80fdfcb67aa69779a02a7d6d21562f74d4b53238d542248acae",
  "confirmations": 46123,
  "height": 6975,
  "version": 1,
  "versionHex": "00000001",
  "merkleroot": "5203fc9e5ee57df2f0226fe3d577334935f008a778bbe7d8b4146310aa9a2f28",
  "time": 1236696646,
  "mediantime": 1236694141,
  "nonce": 2731777320,
  "bits": "1d00ffff",
  "difficulty": 1,
  "chainwork": "00000000000000000000000000000000000000000000000000001b401b401b40",
  "nTx": 1,
  "previousblockhash": "0000000083d7354495f32cedf2c906d176b085561786f46e7e9e161d04c0b628",
  "nextblockhash": "0000000067f5c9058f4beddbdd38bf49dac8cfdbe02acaf919f045b6a38a080a",
  "strippedsize": 216,
  "size": 216,
  "weight": 864,
  "tx": [
    {
      "txid": "5203fc9e5ee57df2f0226fe3d577334935f008a778bbe7d8b4146310aa9a2f28",
      "hash": "5203fc9e5ee57df2f0226fe3d577334935f008a778bbe7d8b4146310aa9a2f28",
      "version": 1,
      "size": 135,
      "vsize": 135,
      "weight": 540,
      "locktime": 0,
      "vin": [
        {
          "coinbase": "04ffff001d02c601",
          "sequence": 4294967295
        }
      ],
      "vout": [
        {
          "value": 50.0,
          "n": 0,
          "scriptPubKey": {
            "asm": "04757077c12f7b9875d14ef81bc27d825e1bd29eda2057e8e9c45ab454a2a506f51947db34e4a0dc770845ae3687aed8636b512a952599d4cfcb25a39ce2af8ea0 OP_CHECKSIG",
            "desc": "pk(04757077c12f7b9875d14ef81bc27d825e1bd29eda2057e8e9c45ab454a2a506f51947db34e4a0dc770845ae3687aed8636b512a952599d4cfcb25a39ce2af8ea0)#l4p55dds",
            "hex": "4104757077c12f7b9875d14ef81bc27d825e1bd29eda2057e8e9c45ab454a2a506f51947db34e4a0dc770845ae3687aed8636b512a952599d4cfcb25a39ce2af8ea0ac",
            "type": "pubkey"
          }
        }
      ],
      "hex": "01000000010000000000000000000000000000000000000000000000000000000000000000ffffffff0804ffff001d02c601ffffffff0100f2052a01000000434104757077c12f7b9875d14ef81bc27d825e1bd29eda2057e8e9c45ab454a2a506f51947db34e4a0dc770845ae3687aed8636b512a952599d4cfcb25a39ce2af8ea0ac00000000"
    }
  ]
}