{
  "hash": "00000000f36f858234eadbca4edf69d8f22393cfb4577534a2ec5e84113c410f",
  "confirmations": 43335,
  "height": 9763,
  "version": 1,
  "versionHex": "00000001",
  "merkleroot": "a8731bb795c61934f8f94468e51a3701ecd26a49fdb8d9bfe8dc1bc71e5815d8",
  "time": 1238827785,
  "mediantime": 1238823376,
  "nonce": 1942750260,
  "bits": "1d00ffff",
  "difficulty": 1,
  "chainwork": "0000000000000000000000000000000000000000000000000000262426242624",
  "nTx": 1,
  "previousblockhash": "0000000021d6c84f61db50efd6ea42c9787b9d53f25f1b7a78154c4a8bd42aa7",
  "nextblockhash": "000000000c1d42bcd697373daa90bbdd622557c57d315edb8adf930d76770cda",
  "strippedsize": 216,
  "size": 216,
  "weight": 864,
  "tx": [
    {
      "txid": "a8731bb795c61934f8f94468e51a3701ecd26a49fdb8d9bfe8dc1bc71e5815d8",
      "hash": "a8731bb795c61934f8f94468e51a3701ecd26a49fdb8d9bfe8dc1bc71e5815d8",
      "version": 1,
      "size": 135,
      "vsize": 135,
      "weight": 540,
      "locktime": 0,
      "vin": [
        {
          "coinbase": "04ffff001d02060a",
          "sequence": 4294967295
        }
      ],
      "vout": [
        {
          "value": 50.0,
          "n": 0,
          "scriptPubKey": {
            "asm": "04855feb760d7f71cdc10064489df16988de0ed90e10030ee9ecccf514fd5664febc5f7ba3422bc2b18449edda396ab97927bf68e6c8a746e35e71762b9de41f99 OP_CHECKSIG",
            "desc": "pk(04855feb760d7f71cdc10064489df16988de0ed90e10030ee9ecccf514fd5664febc5f7ba3422bc2b18449edda396ab97927bf68e6c8a746e35e71762b9de41f99)#hdy84370",
            "hex": "4104855feb760d7f71cdc10064489df16988de0ed90e10030ee9ecccf514fd5664febc5f7ba3422bc2b18449edda396ab97927bf68e6c8a746e35e71762b9de41f99ac",
            "type": "pubkey"
          }
        }
      ],
      "hex": "01000000010000000000000000000000000000000000000000000000000000000000000000ffffffff0804ffff001d02060affffffff0100f2052a01000000434104855feb760d7f71cdc10064489df16988de0ed90e10030ee9ecccf514fd5664febc5f7ba3422bc2b18449edda396ab97927bf68e6c8a746e35e71762b9de41f99ac00000000"
    }
  ]
}