{
  "hash": "00000000acd2ef888a5ffac36d379c510bcb6ceb522bceb36c199d1b0fe7589e",
  "confirmations": 43938,
  "height": 9160,
  "version": 1,
  "versionHex": "00000001",
  "merkleroot": "54c92b5a2b26ade9c438049352408fa5faad6c45887a4eb9fc8bfef1b58619ae",
  "time": 1238371353,
  "mediantime": 1238369437,
  "nonce": 243778586,
  "bits": "1d00ffff",
  "difficulty": 1,
  "chainwork": "000000000000000000000000000000000000000000000000000023c923c923c9",
  "nTx": 1,
  "previousblockhash": "000000001a44c1969ffb770bc096971f41ec06e846b7a56fb0fe6cd5c05b2a05",
  "nextblockhash": "000000006714b9228d28fec96bff6f515ad2a7e5749a0d05976c9f7636bffaee",
  "strippedsize": 216,
  "size": 216,
  "weight": 864,
  "tx": [
    {
      "txid": "54c92b5a2b26ade9c438049352408fa5faad6c45887a4eb9fc8bfef1b58619ae",
      "hash": "54c92b5a2b26ade9c438049352408fa5faad6c45887a4eb9fc8bfef1b58619ae",
      "version": 1,
      "size": 135,
      "vsize": 135,
      "weight": 540,
      "locktime": 0,
      "vin": [
        {
          "coinbase": "04ffff001d027004",
          "sequence": 4294967295
        }
      ],
      "vout": [
        {
          "value": 50.0,
          "n": 0,
          "scriptPubKey": {
            "asm": "04024d0cd55d6f7ba3423bf1954f5d55755a79d017cca0251e33a1da280026003a3129b47eb57d24a663647ff89d342039cc28df8389eb701f8f7ae6ada5239808 OP_CHECKSIG",
            "desc": "pk(04024d0cd55d6f7ba3423bf1954f5d55755a79d017cca0251e33a1da280026003a3129b47eb57d24a663647ff89d342039cc28df8389eb701f8f7ae6ada5239808)#7aakvv8u",
            "hex": "4104024d0cd55d6f7ba3423bf1954f5d55755a79d017cca0251e33a1da280026003a3129b47eb57d24a663647ff89d342039cc28df8389eb701f8f7ae6ada5239808ac",
            "type": "pubkey"
          }
        }
      ],
      "hex": "01000000010000000000000000000000000000000000000000000000000000000000000000ffffffff0804ffff001d027004ffffffff0100f2052a01000000434104024d0cd55d6f7ba3423bf1954f5d55755a79d017cca0251e33a1da280026003a3129b47eb57d24a663647ff89d342039cc28df8389eb701f8f7ae6ada5239808ac00000000"
    }
  ]
}