{
  "hash": "00000000934e21f27256b447a256208b8f8e0c59a0a1d6193e2c996be33dca6f",
  "confirmations": 47836,
  "height": 5262,
  "version": 1,
  "versionHex": "00000001",
  "merkleroot": "fe4f7909c7eaab9378e480c344133bd8a37fcd269cff4f41b8fbce749d966f93",
  "time": 1235331412,
  "mediantime": 1235328469,
  "nonce": 54534523,
  "bits": "1d00ffff",
  "difficulty": 1,
  "chainwork": "0000000000000000000000000000000000000000000000000000148f148f148f",
  "nTx": 1,
  "previousblockhash": "00000000d47ee447e9c7b04828803f14fc1a86bf67163b3e3a641e8ecf57ed6e",
  "nextblockhash": "00000000d0b88b709f1c6ace8876c77957e6548aeef7311329fdeff1f3dcd814",
  "strippedsize": 215,
  "size": 215,
  "weight": 860,
  "tx": [
    {
      "txid": "fe4f7909c7eaab9378e480c344133bd8a37fcd269cff4f41b8fbce749d966f93",
      "hash": "fe4f7909c7eaab9378e480c344133bd8a37fcd269cff4f41b8fbce749d966f93",
      "version": 1,
      "size": 134,
      "vsize": 134,
      "weight": 536,
      "locktime": 0,
      "vin": [
        {
          "coinbase": "04ffff001d010b",
          "sequence": 4294967295
        }
      ],
      "vout": [
        {
          "value": 50.0,
          "n": 0,
          "scriptPubKey": {
            "asm": "04ce7c1b2c40649308bed8bb01105e0a7e32de67cfafb9f0aa8e30d55154036076d2cb8eddcfa7b7c8ad6a05e983379b408856a8fc83dabc109c9cb50fb495b5d2 OP_CHECKSIG",
            "desc": "pk(04ce7c1b2c40649308bed8bb01105e0a7e32de67cfafb9f0aa8e30d55154036076d2cb8eddcfa7b7c8ad6a05e983379b408856a8fc83dabc109c9cb50fb495b5d2)#tp3ga8yt",
            "hex": "4104ce7c1b2c40649308bed8bb01105e0a7e32de67cfafb9f0aa8e30d55154036076d2cb8eddcfa7b7c8ad6a05e983379b408856a8fc83dabc109c9cb50fb495b5d2ac",
            "type": "pubkey"
          }
        }
      ],
      "hex": "01000000010000000000000000000000000000000000000000000000000000000000000000ffffffff0704ffff001d010bffffffff0100f2052a01000000434104ce7c1b2c40649308bed8bb01105e0a7e32de67cfafb9f0aa8e30d55154036076d2cb8eddcfa7b7c8ad6a05e983379b408856a8fc83dabc109c9cb50fb495b5d2ac00000000"
    }
  ]
}