{
  "hash": "00000000dfb37670075b0cdcb36dfe3e733a450ab4b2a27ccd4278edbcfeb8fb",
  "confirmations": 43945,
  "height": 9153,
  "version": 1,
  "versionHex": "00000001",
  "merkleroot": "5aa130abd1d82dc92d1ad079d13d165460f0dd64c211b74f54a3b475ced08259",
  "time": 1238368736,
  "mediantime": 1238366026,
  "nonce": 4038706743,
  "bits": "1d00ffff",
  "difficulty": 1,
  "chainwork": "000000000000000000000000000000000000000000000000000023c223c223c2",
  "nTx": 1,
  "previousblockhash": "00000000ab0236e1656a988050fc919231136e6e3a21d5782a9efac7c8f40e29",
  "nextblockhash": "00000000b9370f6cc868c0810a3c651921e3557c041a8dd45504ee87d0534f6b",
  "strippedsize": 216,
  "size": 216,
  "weight": 864,
  "tx": [
    {
      "txid": "5aa130abd1d82dc92d1ad079d13d165460f0dd64c211b74f54a3b475ced08259",
      "hash": "5aa130abd1d82dc92d1ad079d13d165460f0dd64c211b74f54a3b475ced08259",
      "version": 1,
      "size": 135,
      "vsize": 135,
      "weight": 540,
      "locktime": 0,
      "vin": [
        {
          "coinbase": "04ffff001d027709",
          "sequence": 4294967295
        }
      ],
      "vout": [
        {
          "value": 50.0,
          "n": 0,
          "scriptPubKey": {
            "asm": "04208662ad437974bdbf42fb7abb23b9aecac9242fa823a46e2ca51879f820ae58b18687b78c0c87bec5061549195e3e86182752d3dedbf352de2eddbbc81c8f2a OP_CHECKSIG",
            "desc": "pk(04208662ad437974bdbf42fb7abb23b9aecac9242fa823a46e2ca51879f820ae58b18687b78c0c87bec5061549195e3e86182752d3dedbf352de2eddbbc81c8f2a)#58z2jc55",
            "hex": "4104208662ad437974bdbf42fb7abb23b9aecac9242fa823a46e2ca51879f820ae58b18687b78c0c87bec5061549195e3e86182752d3dedbf352de2eddbbc81c8f2aac",
            "type": "pubkey"
          }
        }
      ],
      "hex": "01000000010000000000000000000000000000000000000000000000000000000000000000ffffffff0804ffff001d027709ffffffff0100f2052a01000000434104208662ad437974bdbf42fb7abb23b9aecac9242fa823a46e2ca51879f820ae58b18687b78c0c87bec5061549195e3e86182752d3dedbf352de2eddbbc81c8f2aac00000000"
    }
  ]
}