{
  "hash": "000000000dd21696e382cfc77279cab9a6194280fc602d1ee7a6809fd549534e",
  "confirmations": 47597,
  "height": 5501,
  "version": 1,
  "versionHex": "00000001",
  "merkleroot": "0a15ea591feb96d3a36679c0aa72ac5d3ae047f87d34e956fc7a081bbb752021",
  "time": 1235523130,
  "mediantime": 1235519062,
  "nonce": 147434223,
  "bits": "1d00ffff",
  "difficulty": 1,
  "chainwork": "0000000000000000000000000000000000000000000000000000157e157e157e",
  "nTx": 1,
  "previousblockhash": "0000000032f2fbfb5849e57629bb28ff2e79d4e231fddb25b183a2b13ff2d123",
  "nextblockhash": "00000000c97387559738150a07f2b07d6031f31f7f0026f4bf3a2728eacd91af",
  "strippedsize": 215,
  "size": 215,
  "weight": 860,
  "tx": [
    {
      "txid": "0a15ea591feb96d3a36679c0aa72ac5d3ae047f87d34e956fc7a081bbb752021",
      "hash": "0a15ea591feb96d3a36679c0aa72ac5d3ae047f87d34e956fc7a081bbb752021",
      "version": 1,
      "size": 134,
      "vsize": 134,
      "weight": 536,
      "locktime": 0,
      "vin": [
        {
          "coinbase": "04ffff001d0104",
          "sequence": 4294967295
        }
      ],
      "vout": [
        {
          "value": 50.0,
          "n": 0,
          "scriptPubKey": {
            "asm": "042f99aceb606b2cee2cf5668d1e3e027fd0c136ef3ea5382a47798c3f1264bf48435078578bec537fe43a37c6a23d65723414dc994b1ef038b358a1cf08c471ab OP_CHECKSIG",
            "desc": "pk(042f99aceb606b2cee2cf5668d1e3e027fd0c136ef3ea5382a47798c3f1264bf48435078578bec537fe43a37c6a23d65723414dc994b1ef038b358a1cf08c471ab)#0t5k5aqy",
            "hex": "41042f99aceb606b2cee2cf5668d1e3e027fd0c136ef3ea5382a47798c3f1264bf48435078578bec537fe43a37c6a23d65723414dc994b1ef038b358a1cf08c471abac",
            "type": "pubkey"
          }
        }
      ],
      "hex": "01000000010000000000000000000000000000000000000000000000000000000000000000ffffffff0704ffff001d0104ffffffff0100f2052a010000004341042f99aceb606b2cee2cf5668d1e3e027fd0c136ef3ea5382a47798c3f1264bf48435078578bec537fe43a37c6a23d65723414dc994b1ef038b358a1cf08c471abac00000000"
    }
  ]
}