{
  "hash": "0000000037b6e2d6c3b3e9c6eaea5f89a1d1fdc3ac19302ed5da81f8c9c1d247",
  "confirmations": 46353,
  "height": 6745,
  "version": 1,
  "versionHex": "00000001",
  "merkleroot": "8607efc04c55deeb5c4208670bcdde39af5afd50b78722fe1be13ee9026cfea3",
  "time": 1236515671,
  "mediantime": 1236511830,
  "nonce": 3168699178,
  "bits": "1d00ffff",
  "difficulty": 1,
  "chainwork": "00000000000000000000000000000000000000000000000000001a5a1a5a1a5a",
  "nTx": 1,
  "previousblockhash": "00000000c0c06a428289ab6f5447027c67562ff91213fd06bf5df4bf050c69a1",
  "nextblockhash": "000000009300b70e71451244de470a3fc53f58bab347292149d6b375ccb85eb4",
  "strippedsize": 216,
  "size": 216,
  "weight": 864,
  "tx": [
    {
      "txid": "8607efc04c55deeb5c4208670bcdde39af5afd50b78722fe1be13ee9026cfea3",
      "hash": "8607efc04c55deeb5c4208670bcdde39af5afd50b78722fe1be13ee9026cfea3",
      "version": 1,
      "size": 135,
      "vsize": 135,
      "weight": 540,
      "locktime": 0,
      "vin": [
        {
          "coinbase": "04ffff001d020c08",
          "sequence": 4294967295
        }
      ],
      "vout": [
        {
          "value": 50.0,
          "n": 0,
          "scriptPubKey": {
            "asm": "04d230ad5ff85334116fe6b2d29c422218c971a728d5934e6d7adb4e99720c932efb1b26cca2478135b8465af202faebf56da8ed210fc919084097fda57ee39d6d OP_CHECKSIG",
            "desc": "pk(04d230ad5ff85334116fe6b2d29c422218c971a728d5934e6d7adb4e99720c932efb1b26cca2478135b8465af202faebf56da8ed210fc919084097fda57ee39d6d)#5u5pwa5t",
            "hex": "4104d230ad5ff85334116fe6b2d29c422218c971a728d5934e6d7adb4e99720c932efb1b26cca2478135b8465af202faebf56da8ed210fc919084097fda57ee39d6dac",
            "type": "pubkey"
          }
        }
      ],
      "hex": "01000000010000000000000000000000000000000000000000000000000000000000000000ffffffff0804ffff001d020c08ffffffff0100f2052a01000000434104d230ad5ff85334116fe6b2d29c422218c971a728d5934e6d7adb4e99720c932efb1b26cca2478135b8465af202faebf56da8ed210fc919084097fda57ee39d6dac00000000"
    }
  ]
}