{
  "hash": "00000000119df6ccb9bf4a35e615b31ce3a9246b553e59a02b99522dd95838cb",
  "confirmations": 51532,
  "height": 1566,
  "version": 1,
  "versionHex": "00000001",
  "merkleroot": "900ab04b0d168009a62e1813393bea3d97a392aad282cac15e0879de2a234b35",
  "time": 1232796676,
  "mediantime": 1232794965,
  "nonce": 586142243,
  "bits": "1d00ffff",
  "difficulty": 1,
  "chainwork": "0000000000000000000000000000000000000000000000000000061f061f061f",
  "nTx": 1,
  "previousblockhash": "000000009d8a30496ea9ca78019d91bb464eeae0fd380899aecd544ce93ad685",
  "nextblockhash": "00000000fb34a5586423cbc3a4ba92f45f36fa44e1ec61c692ca806cd56ea164",
  "strippedsize": 216,
  "size": 216,
  "weight": 864,
  "tx": [
    {
      "txid": "900ab04b0d168009a62e1813393bea3d97a392aad282cac15e0879de2a234b35",
      "hash": "900ab04b0d168009a62e1813393bea3d97a392aad282cac15e0879de2a234b35",
      "version": 1,
      "size": 135,
      "vsize": 135,
      "weight": 540,
      "locktime": 0,
      "vin": [
        {
          "coinbase": "04ffff001d02cf01",
          "sequence": 4294967295
        }
      ],
      "vout": [
        {
          "value": 50.0,
          "n": 0,
          "scriptPubKey": {
            "asm": "0452a9f96cc3a77e80552cfd59819ae96082a301f1d98c2347ed21b2ac09c948ca9a412cbce8670370f67fd44fa4b3ea4083e527bae42e2aeeeb0c7075bb537abd OP_CHECKSIG",
            "desc": "pk(0452a9f96cc3a77e80552cfd59819ae96082a301f1d98c2347ed21b2ac09c948ca9a412cbce8670370f67fd44fa4b3ea4083e527bae42e2aeeeb0c7075bb537abd)#54hr6xsy",
            "hex": "410452a9f96cc3a77e80552cfd59819ae96082a301f1d98c2347ed21b2ac09c948ca9a412cbce8670370f67fd44fa4b3ea4083e527bae42e2aeeeb0c7075bb537abdac",
            "type": "pubkey"
          }
        }
      ],
      "hex": "01000000010000000000000000000000000000000000000000000000000000000000000000ffffffff0804ffff001d02cf01ffffffff0100f2052a0100000043410452a9f96cc3a77e80552cfd59819ae96082a301f1d98c2347ed21b2ac09c948ca9a412cbce8670370f67fd44fa4b3ea4083e527bae42e2aeeeb0c7075bb537abdac00000000"
    }
  ]
}