{
  "hash": "0000000061b042eb33ee8cced80427818b74e69a7239c3291d452e993f008534",
  "confirmations": 43645,
  "height": 9453,
  "version": 1,
  "versionHex": "00000001",
  "merkleroot": "6b43b0ec4af73181added4b7a48b190972db413849106642cd73812e3950ff21",
  "time": 1238594742,
  "mediantime": 1238590641,
  "nonce": 1688222773,
  "bits": "1d00ffff",
  "difficulty": 1,
  "chainwork": "000000000000000000000000000000000000000000000000000024ee24ee24ee",
  "nTx": 1,
  "previousblockhash": "00000000b75438a0eface9c6a15d8c50ee53c06a0e8f0fba64afd90364b5ae3e",
  "nextblockhash": "0000000077ef0a8af7749037a92165605c627cae835cf2d5cc1b4f81dd7756bd",
  "strippedsize": 216,
  "size": 216,
  "weight": 864,
  "tx": [
    {
      "txid": "6b43b0ec4af73181added4b7a48b190972db413849106642cd73812e3950ff21",
      "hash": "6b43b0ec4af73181added4b7a48b190972db413849106642cd73812e3950ff21",
      "version": 1,
      "size": 135,
      "vsize": 135,
      "weight": 540,
      "locktime": 0,
      "vin": [
        {
          "coinbase": "04ffff001d029f04",
          "sequence": 4294967295
        }
      ],
      "vout": [
        {
          "value": 50.0,
          "n": 0,
          "scriptPubKey": {
            "asm": "043a09da3c02bada0b4314ee270129b637d86d3d84c77101c06bd5be6c440fa30ceaa1907024ff1ca8ef3b9d676cb2822dc92d6aaeede9ff15a050f507a4b3375b OP_CHECKSIG",
            "desc": "pk(043a09da3c02bada0b4314ee270129b637d86d3d84c77101c06bd5be6c440fa30ceaa1907024ff1ca8ef3b9d676cb2822dc92d6aaeede9ff15a050f507a4b3375b)#r05v3fmw",
            "hex": "41043a09da3c02bada0b4314ee270129b637d86d3d84c77101c06bd5be6c440fa30ceaa1907024ff1ca8ef3b9d676cb2822dc92d6aaeede9ff15a050f507a4b3375bac",
            "type": "pubkey"
          }
        }
      ],
      "hex": "01000000010000000000000000000000000000000000000000000000000000000000000000ffffffff0804ffff001d029f04ffffffff0100f2052a010000004341043a09da3c02bada0b4314ee270129b637d86d3d84c77101c06bd5be6c440fa30ceaa1907024ff1ca8ef3b9d676cb2822dc92d6aaeede9ff15a050f507a4b3375bac00000000"
    }
  ]
}