{
  "hash": "0000000098e453043107b29a58db813021640b3def7c1e659742ddf56420d6ca",
  "confirmations": 52088,
  "height": 232,
  "version": 1,
  "versionHex": "00000001",
  "merkleroot": "bdccc4d6bce7254baff1457931cc20976f91ac8721f8b8f44eeb4fc5c7146ca1",
  "time": 1231778080,
  "mediantime": 1231774735,
  "nonce": 2914525958,
  "bits": "1d00ffff",
  "difficulty": 1,
  "chainwork": "000000000000000000000000000000000000000000000000000000e900e900e9",
  "nTx": 1,
  "previousblockhash": "00000000b6ee1bc8ef48268ca7fbd243cf2d4c4792620ebfc5933cf08c487bdb",
  "nextblockhash": "0000000016c7dad613635ae08f697c10935476b49dc67fdb6ef08b1143d01a3e",
  "strippedsize": 216,
  "size": 216,
  "weight": 864,
  "tx": [
    {
      "txid": "bdccc4d6bce7254baff1457931cc20976f91ac8721f8b8f44eeb4fc5c7146ca1",
      "hash": "bdccc4d6bce7254baff1457931cc20976f91ac8721f8b8f44eeb4fc5c7146ca1",
      "version": 1,
      "size": 135,
      "vsize": 135,
      "weight": 540,
      "locktime": 0,
      "vin": [
        {
          "coinbase": "04ffff001d02d600",
          "sequence": 4294967295
        }
      ],
      "vout": [
        {
          "value": 50.0,
          "n": 0,
          "scriptPubKey": {
            "asm": "04cef9232d03fa86b2d50f9d884e5856d3fb2064da950891d08804323edbf99fcdeb8c4ba46de6d9b8e2a4d9202695f0e5458728da157e99fabe68e2b1e9afe952 OP_CHECKSIG",
            "desc": "pk(04cef9232d03fa86b2d50f9d884e5856d3fb2064da950891d08804323edbf99fcdeb8c4ba46de6d9b8e2a4d9202695f0e5458728da157e99fabe68e2b1e9afe952)#h9var822",
            "hex": "4104cef9232d03fa86b2d50f9d884e5856d3fb2064da950891d08804323edbf99fcdeb8c4ba46de6d9b8e2a4d9202695f0e5458728da157e99fabe68e2b1e9afe952ac",
            "type": "pubkey"
          }
        }
      ],
      "hex": "01000000010000000000000000000000000000000000000000000000000000000000000000ffffffff0804ffff001d02d600ffffffff0100f2052a01000000434104cef9232d03fa86b2d50f9d884e5856d3fb2064da950891d08804323edbf99fcdeb8c4ba46de6d9b8e2a4d9202695f0e5458728da157e99fabe68e2b1e9afe952ac00000000"
    }
  ]
}