{
  "hash": "000000002252e14a5e9415cc10dc2d5d277c294d73f3dd3215ab1dc1570a7ad2",
  "confirmations": 44388,
  "height": 8710,
  "version": 1,
  "versionHex": "00000001",
  "merkleroot": "d03b3c9b8d77110dcf81d1a6fee57cc14edc9e15b61d9358a5d576302c42f729",
  "time": 1238031092,
  "mediantime": 1238028385,
  "nonce": 2690920214,
  "bits": "1d00ffff",
  "difficulty": 1,
  "chainwork": "0000000000000000000000000000000000000000000000000000220722072207",
  "nTx": 1,
  "previousblockhash": "00000000e45135d08930aced43292e6780309e09f6aedaff6837baf5999e5938",
  "nextblockhash": "000000008fee4dbb28eed41e6f7772d5c3f3f1dc81dfe3b4f938d5c6674fa098",
  "strippedsize": 216,
  "size": 216,
  "weight": 864,
  "tx": [
    {
      "txid": "d03b3c9b8d77110dcf81d1a6fee57cc14edc9e15b61d9358a5d576302c42f729",
      "hash": "d03b3c9b8d77110dcf81d1a6fee57cc14edc9e15b61d9358a5d576302c42f729",
      "version": 1,
      "size": 135,
      "vsize": 135,
      "weight": 540,
      "locktime": 0,
      "vin": [
        {
          "coinbase": "04ffff001d021701",
          "sequence": 4294967295
        }
      ],
      "vout": [
        {
          "value": 50.0,
          "n": 0,
          "scriptPubKey": {
            "asm": "040ff54cf23b4ea8f3e14c45edb6178f607530805b5e9b106f168906f6b161f2b93a0ff3a7e3ca446d863190d0aebeae00919b47173faca439f3436c2907625742 OP_CHECKSIG",
            "desc": "pk(040ff54cf23b4ea8f3e14c45edb6178f607530805b5e9b106f168906f6b161f2b93a0ff3a7e3ca446d863190d0aebeae00919b47173faca439f3436c2907625742)#6v36xcd7",
            "hex": "41040ff54cf23b4ea8f3e14c45edb6178f607530805b5e9b106f168906f6b161f2b93a0ff3a7e3ca446d863190d0aebeae00919b47173faca439f3436c2907625742ac",
            "type": "pubkey"
          }
        }
      ],
      "hex": "01000000010000000000000000000000000000000000000000000000000000000000000000ffffffff0804ffff001d021701ffffffff0100f2052a010000004341040ff54cf23b4ea8f3e14c45edb6178f607530805b5e9b106f168906f6b161f2b93a0ff3a7e3ca446d863190d0aebeae00919b47173faca439f3436c2907625742ac00000000"
    }
  ]
}