{
  "hash": "00000000e4f5cca3f71da3e6dea6dd23e9a015a25a29457ff6998be25cfdac17",
  "confirmations": 43436,
  "height": 9662,
  "version": 1,
  "versionHex": "00000001",
  "merkleroot": "98f4f00589b7f4090da6263911fd34ef9cbb75c79090d5419d4255595843c396",
  "time": 1238748219,
  "mediantime": 1238745805,
  "nonce": 2299571988,
  "bits": "1d00ffff",
  "difficulty": 1,
  "chainwork": "000000000000000000000000000000000000000000000000000025bf25bf25bf",
  "nTx": 1,
  "previousblockhash": "0000000075cb04f1f16535d33ad1a5e178e571447bbce2d0778325cc7ab49fbf",
  "nextblockhash": "000000004acb0af9697e2415638fab4825be8f4ec40452c4ea50450aef863c32",
  "strippedsize": 216,
  "size": 216,
  "weight": 864,
  "tx": [
    {
      "txid": "98f4f00589b7f4090da6263911fd34ef9cbb75c79090d5419d4255595843c396",
      "hash": "98f4f00589b7f4090da6263911fd34ef9cbb75c79090d5419d4255595843c396",
      "version": 1,
      "size": 135,
      "vsize": 135,
      "weight": 540,
      "locktime": 0,
      "vin": [
        {
          "coinbase": "04ffff001d02d207",
          "sequence": 4294967295
        }
      ],
      "vout": [
        {
          "value": 50.0,
          "n": 0,
          "scriptPubKey": {
            "asm": "04963f4df7ec266973e3fff4d650e5375983c1a64567dd74db490a6a12740723ece9114c0b38d3e66592efb2285e15556a6ef1f218f8b38a67d35460decc62ea0f OP_CHECKSIG",
            "desc": "pk(04963f4df7ec266973e3fff4d650e5375983c1a64567dd74db490a6a12740723ece9114c0b38d3e66592efb2285e15556a6ef1f218f8b38a67d35460decc62ea0f)#6xxwlar6",
            "hex": "4104963f4df7ec266973e3fff4d650e5375983c1a64567dd74db490a6a12740723ece9114c0b38d3e66592efb2285e15556a6ef1f218f8b38a67d35460decc62ea0fac",
            "type": "pubkey"
          }
        }
      ],
      "hex": "01000000010000000000000000000000000000000000000000000000000000000000000000ffffffff0804ffff001d02d207ffffffff0100f2052a01000000434104963f4df7ec266973e3fff4d650e5375983c1a64567dd74db490a6a12740723ece9114c0b38d3e66592efb2285e15556a6ef1f218f8b38a67d35460decc62ea0fac00000000"
    }
  ]
}