{
  "hash": "00000000c3beb2fd77559d21f21ad9ed394ca108bcb99967a1906c6138a0bab9",
  "confirmations": 45268,
  "height": 7830,
  "version": 1,
  "versionHex": "00000001",
  "merkleroot": "83fd546efcc14c4e242013d13dcd50f0e33fd55eb68ff9b7bc147c02e8dd1cf5",
  "time": 1237336418,
  "mediantime": 1237333200,
  "nonce": 4126462756,
  "bits": "1d00ffff",
  "difficulty": 1,
  "chainwork": "00000000000000000000000000000000000000000000000000001e971e971e97",
  "nTx": 1,
  "previousblockhash": "0000000041871aab549b51afde2931eba08ae5aba73ada1ea5a63373805b470d",
  "nextblockhash": "000000005b6e54fed7a8ec63e4d6729fb8cc2af5a006d95614e84290a9723e7f",
  "strippedsize": 216,
  "size": 216,
  "weight": 864,
  "tx": [
    {
      "txid": "83fd546efcc14c4e242013d13dcd50f0e33fd55eb68ff9b7bc147c02e8dd1cf5",
      "hash": "83fd546efcc14c4e242013d13dcd50f0e33fd55eb68ff9b7bc147c02e8dd1cf5",
      "version": 1,
      "size": 135,
      "vsize": 135,
      "weight": 540,
      "locktime": 0,
      "vin": [
        {
          "coinbase": "04ffff001d026206",
          "sequence": 4294967295
        }
      ],
      "vout": [
        {
          "value": 50.0,
          "n": 0,
          "scriptPubKey": {
            "asm": "04119f1636c6f1cb29d2310b8d633c5d4b012c7d97ef85a3fcd0e47a4a34582ee46adc525b8923168f5600a79bf18814e4085951ebce16b4ca030ffeb1126ce25d OP_CHECKSIG",
            "desc": "pk(04119f1636c6f1cb29d2310b8d633c5d4b012c7d97ef85a3fcd0e47a4a34582ee46adc525b8923168f5600a79bf18814e4085951ebce16b4ca030ffeb1126ce25d)#s8e7qh90",
            "hex": "4104119f1636c6f1cb29d2310b8d633c5d4b012c7d97ef85a3fcd0e47a4a34582ee46adc525b8923168f5600a79bf18814e4085951ebce16b4ca030ffeb1126ce25dac",
            "type": "pubkey"
          }
        }
      ],
      "hex": "01000000010000000000000000000000000000000000000000000000000000000000000000ffffffff0804ffff001d026206ffffffff0100f2052a01000000434104119f1636c6f1cb29d2310b8d633c5d4b012c7d97ef85a3fcd0e47a4a34582ee46adc525b8923168f5600a79bf18814e4085951ebce16b4ca030ffeb1126ce25dac00000000"
    }
  ]
}