{
  "hash": "0000000047638a0d2e2e541db2c05544bae64a7a7292838e019dda6890b0b1dd",
  "confirmations": 52317,
  "height": 781,
  "version": 1,
  "versionHex": "00000001",
  "merkleroot": "b30e0f7d573a5247957dd5cd2bface78d453fb2d1a3d83e87fad06a8bb036d96",
  "time": 1232175823,
  "mediantime": 1232171865,
  "nonce": 1060163616,
  "bits": "1d00ffff",
  "difficulty": 1,
  "chainwork": "0000000000000000000000000000000000000000000000000000030e030e030e",
  "nTx": 1,
  "previousblockhash": "00000000ba676d471b894c4d66237733dbffd900eba759091cc95b8de28a97e6",
  "nextblockhash": "00000000857b9025fa9a6f95f96c59b711db8cb8d5dc5831c22d50c24466a088",
  "strippedsize": 216,
  "size": 216,
  "weight": 864,
  "tx": [
    {
      "txid": "b30e0f7d573a5247957dd5cd2bface78d453fb2d1a3d83e87fad06a8bb036d96",
      "hash": "b30e0f7d573a5247957dd5cd2bface78d453fb2d1a3d83e87fad06a8bb036d96",
      "version": 1,
      "size": 135,
      "vsize": 135,
      "weight": 540,
      "locktime": 0,
      "vin": [
        {
          "coinbase": "04ffff001d022101",
          "sequence": 4294967295
        }
      ],
      "vout": [
        {
          "value": 50.0,
          "n": 0,
          "scriptPubKey": {
            "asm": "044e6d76ffd4bd7f1f06a8078e7a6bf77b692b303657091dd4620fcf34966e4635d06f96d463a10e8fb8f7abcb77797a9c90c5909ba6b254ce6c62832d8aeec79c OP_CHECKSIG",
            "desc": "pk(044e6d76ffd4bd7f1f06a8078e7a6bf77b692b303657091dd4620fcf34966e4635d06f96d463a10e8fb8f7abcb77797a9c90c5909ba6b254ce6c62832d8aeec79c)#2faktjvj",
            "hex": "41044e6d76ffd4bd7f1f06a8078e7a6bf77b692b303657091dd4620fcf34966e4635d06f96d463a10e8fb8f7abcb77797a9c90c5909ba6b254ce6c62832d8aeec79cac",
            "type": "pubkey"
          }
        }
      ],
      "hex": "01000000010000000000000000000000000000000000000000000000000000000000000000ffffffff0804ffff001d022101ffffffff0100f2052a010000004341044e6d76ffd4bd7f1f06a8078e7a6bf77b692b303657091dd4620fcf34966e4635d06f96d463a10e8fb8f7abcb77797a9c90c5909ba6b254ce6c62832d8aeec79cac00000000"
    }
  ]
}