{
  "hash": "0000000022a6e7d05ed7bbbfb7cf21c9a8fbb4d9e8deea84ae4147662b3a5815",
  "confirmations": 52024,
  "height": 1074,
  "version": 1,
  "versionHex": "00000001",
  "merkleroot": "ebc6ab4245fea8bf211fc12b6b71037230dc7fd2a9d0d6b98fbc2c38dc9902e8",
  "time": 1232404725,
  "mediantime": 1232399994,
  "nonce": 2626048548,
  "bits": "1d00ffff",
  "difficulty": 1,
  "chainwork": "0000000000000000000000000000000000000000000000000000043304330433",
  "nTx": 1,
  "previousblockhash": "000000007992ee161457c2a991db0f76708a88eb7f3011c5e306545eadf93192",
  "nextblockhash": "0000000057463cd166551836e83b001d8046cf2863631a45896d0440d9bb0b74",
  "strippedsize": 216,
  "size": 216,
  "weight": 864,
  "tx": [
    {
      "txid": "ebc6ab4245fea8bf211fc12b6b71037230dc7fd2a9d0d6b98fbc2c38dc9902e8",
      "hash": "ebc6ab4245fea8bf211fc12b6b71037230dc7fd2a9d0d6b98fbc2c38dc9902e8",
      "version": 1,
      "size": 135,
      "vsize": 135,
      "weight": 540,
      "locktime": 0,
      "vin": [
        {
          "coinbase": "04ffff001d027906",
          "sequence": 4294967295
        }
      ],
      "vout": [
        {
          "value": 50.0,
          "n": 0,
          "scriptPubKey": {
            "asm": "047cc4580d70ad10166e1cf6e2c47f3df5d10a9a3019b5b9804f41cdaeedc87d94c9d5db2a392313acb0892384066e27a7628d6ffded1c6963fbd4cdcb021b3764 OP_CHECKSIG",
            "desc": "pk(047cc4580d70ad10166e1cf6e2c47f3df5d10a9a3019b5b9804f41cdaeedc87d94c9d5db2a392313acb0892384066e27a7628d6ffded1c6963fbd4cdcb021b3764)#a80q752t",
            "hex": "41047cc4580d70ad10166e1cf6e2c47f3df5d10a9a3019b5b9804f41cdaeedc87d94c9d5db2a392313acb0892384066e27a7628d6ffded1c6963fbd4cdcb021b3764ac",
            "type": "pubkey"
          }
        }
      ],
      "hex": "01000000010000000000000000000000000000000000000000000000000000000000000000ffffffff0804ffff001d027906ffffffff0100f2052a010000004341047cc4580d70ad10166e1cf6e2c47f3df5d10a9a3019b5b9804f41cdaeedc87d94c9d5db2a392313acb0892384066e27a7628d6ffded1c6963fbd4cdcb021b3764ac00000000"
    }
  ]
}