{
  "hash": "0000000080244524dc111e7417cd17d35135479a91f5af938175f8a7d5a31234",
  "confirmations": 48767,
  "height": 4331,
  "version": 1,
  "versionHex": "00000001",
  "merkleroot": "9b3178b1ee0a5937f1cb631084701607e09cd68a58cf2241c892fe664cf527e6",
  "time": 1234666301,
  "mediantime": 1234663518,
  "nonce": 3434301465,
  "bits": "1d00ffff",
  "difficulty": 1,
  "chainwork": "000000000000000000000000000000000000000000000000000010ec10ec10ec",
  "nTx": 1,
  "previousblockhash": "0000000006c7fa7c5a3aca62794090a46f23bffec2f768061eddf9942f17b33f",
  "nextblockhash": "000000005b41445c2564f3872d777a03759d18bb87a7393005199c1bd3b76010",
  "strippedsize": 215,
  "size": 215,
  "weight": 860,
  "tx": [
    {
      "txid": "9b3178b1ee0a5937f1cb631084701607e09cd68a58cf2241c892fe664cf527e6",
      "hash": "9b3178b1ee0a5937f1cb631084701607e09cd68a58cf2241c892fe664cf527e6",
      "version": 1,
      "size": 134,
      "vsize": 134,
      "weight": 536,
      "locktime": 0,
      "vin": [
        {
          "coinbase": "04ffff001d0152",
          "sequence": 4294967295
        }
      ],
      "vout": [
        {
          "value": 50.0,
          "n": 0,
          "scriptPubKey": {
            "asm": "04a413c97670ff958332b438b9fc59a7b7f3a8848231f501244b92cd377f8d6540a7fc8faf295f78f16c02266bd76256776e49c8e9b9f407553c00a4589b9758f4 OP_CHECKSIG",
            "desc": "pk(04a413c97670ff958332b438b9fc59a7b7f3a8848231f501244b92cd377f8d6540a7fc8faf295f78f16c02266bd76256776e49c8e9b9f407553c00a4589b9758f4)#nj9r90hp",
            "hex": "4104a413c97670ff958332b438b9fc59a7b7f3a8848231f501244b92cd377f8d6540a7fc8faf295f78f16c02266bd76256776e49c8e9b9f407553c00a4589b9758f4ac",
            "type": "pubkey"
          }
        }
      ],
      "hex": "01000000010000000000000000000000000000000000000000000000000000000000000000ffffffff0704ffff001d0152ffffffff0100f2052a01000000434104a413c97670ff958332b438b9fc59a7b7f3a8848231f501244b92cd377f8d6540a7fc8faf295f78f16c02266bd76256776e49c8e9b9f407553c00a4589b9758f4ac00000000"
    }
  ]
}