{
  "hash": "0000000001b7d9a476e3351be6708422701c951ccbeb1b34b7cc3e856d2d1c13",
  "confirmations": 48354,
  "height": 4744,
  "version": 1,
  "versionHex": "00000001",
  "merkleroot": "2c7605bebf15ed82490d2a1fde57bedb9d8de81db38336d2194f1467c8ca8503",
  "time": 1234959640,
  "mediantime": 1234955471,
  "nonce": 3870484480,
  "bits": "1d00ffff",
  "difficulty": 1,
  "chainwork": "0000000000000000000000000000000000000000000000000000128912891289",
  "nTx": 1,
  "previousblockhash": "00000000e65ad45cd017632aa4e08d77a1ca12f3b6ac29b73d64bf641df77532",
  "nextblockhash": "000000005ab451dfa33bb45121438ca7576104d3e20c41b8a8f2b67b1b2384b7",
  "strippedsize": 216,
  "size": 216,
  "weight": 864,
  "tx": [
    {
      "txid": "2c7605bebf15ed82490d2a1fde57bedb9d8de81db38336d2194f1467c8ca8503",
      "hash": "2c7605bebf15ed82490d2a1fde57bedb9d8de81db38336d2194f1467c8ca8503",
      "version": 1,
      "size": 135,
      "vsize": 135,
      "weight": 540,
      "locktime": 0,
      "vin": [
        {
          "coinbase": "04ffff001d022403",
          "sequence": 4294967295
        }
      ],
      "vout": [
        {
          "value": 50.0,
          "n": 0,
          "scriptPubKey": {
            "asm": "044944930957d8f9fbf94a674a9c2ade75a55767ad53f97361e0ef379decb665ca7baa6bc58de20a8503a79e1de0c9aa335f1b49352e63188bf1aa10703e4ecb59 OP_CHECKSIG",
            "desc": "pk(044944930957d8f9fbf94a674a9c2ade75a55767ad53f97361e0ef379decb665ca7baa6bc58de20a8503a79e1de0c9aa335f1b49352e63188bf1aa10703e4ecb59)#sxg9z39u",
            "hex": "41044944930957d8f9fbf94a674a9c2ade75a55767ad53f97361e0ef379decb665ca7baa6bc58de20a8503a79e1de0c9aa335f1b49352e63188bf1aa10703e4ecb59ac",
            "type": "pubkey"
          }
        }
      ],
      "hex": "01000000010000000000000000000000000000000000000000000000000000000000000000ffffffff0804ffff001d022403ffffffff0100f2052a010000004341044944930957d8f9fbf94a674a9c2ade75a55767ad53f97361e0ef379decb665ca7baa6bc58de20a8503a79e1de0c9aa335f1b49352e63188bf1aa10703e4ecb59ac00000000"
    }
  ]
}