{
  "hash": "000000006470ca6145469a3b54dba5c1a03c54f330e036061571d580b7023ee2",
  "confirmations": 52304,
  "height": 794,
  "version": 1,
  "versionHex": "00000001",
  "merkleroot": "664c809efb6f90980f741f909bc3413f2eaaad15df0ebf065eb8c32d39987c99",
  "time": 1232187625,
  "mediantime": 1232181334,
  "nonce": 3719039745,
  "bits": "1d00ffff",
  "difficulty": 1,
  "chainwork": "0000000000000000000000000000000000000000000000000000031b031b031b",
  "nTx": 1,
  "previousblockhash": "000000000e1d12b6db7849adac4a60d7af56e6d3b5c1087d64aae1444dad6a34",
  "nextblockhash": "00000000c8e6d6e1e61e22c780e255ffb21b420fc82f6b4d10a16bcd7710fc89",
  "strippedsize": 216,
  "size": 216,
  "weight": 864,
  "tx": [
    {
      "txid": "664c809efb6f90980f741f909bc3413f2eaaad15df0ebf065eb8c32d39987c99",
      "hash": "664c809efb6f90980f741f909bc3413f2eaaad15df0ebf065eb8c32d39987c99",
      "version": 1,
      "size": 135,
      "vsize": 135,
      "weight": 540,
      "locktime": 0,
      "vin": [
        {
          "coinbase": "04ffff001d025b01",
          "sequence": 4294967295
        }
      ],
      "vout": [
        {
          "value": 50.0,
          "n": 0,
          "scriptPubKey": {
            "asm": "0433ee9528c3dd17ea96d3f66765d2137838cf5cfce1d41e3664cd1f83463fb617023e2b0690febd20ed30754ddca4e93d99d315a0a855f045667fce891759d1c0 OP_CHECKSIG",
            "desc": "pk(0433ee9528c3dd17ea96d3f66765d2137838cf5cfce1d41e3664cd1f83463fb617023e2b0690febd20ed30754ddca4e93d99d315a0a855f045667fce891759d1c0)#q9np6nuc",
            "hex": "410433ee9528c3dd17ea96d3f66765d2137838cf5cfce1d41e3664cd1f83463fb617023e2b0690febd20ed30754ddca4e93d99d315a0a855f045667fce891759d1c0ac",
            "type": "pubkey"
          }
        }
      ],
      "hex": "01000000010000000000000000000000000000000000000000000000000000000000000000ffffffff0804ffff001d025b01ffffffff0100f2052a0100000043410433ee9528c3dd17ea96d3f66765d2137838cf5cfce1d41e3664cd1f83463fb617023e2b0690febd20ed30754ddca4e93d99d315a0a855f045667fce891759d1c0ac00000000"
    }
  ]
}