{
  "hash": "00000000962e841023ce2177e1975f029b13a1fb3fc0a1c537e9f2a19ead5d34",
  "confirmations": 52176,
  "height": 922,
  "version": 1,
  "versionHex": "00000001",
  "merkleroot": "4343cabbabcf5f693712e40bcc2790f703bdc1c42b729dd1d8806cc70d976ddb",
  "time": 1232293348,
  "mediantime": 1232289711,
  "nonce": 1926017821,
  "bits": "1d00ffff",
  "difficulty": 1,
  "chainwork": "0000000000000000000000000000000000000000000000000000039b039b039b",
  "nTx": 1,
  "previousblockhash": "0000000086bab1e650c7fe174d5ae7943b39176fc956041d16b240bd8b4d7d2f",
  "nextblockhash": "000000002e8da323ef670b4a8414303080298e3139a8506cc02e3137a5523166",
  "strippedsize": 216,
  "size": 216,
  "weight": 864,
  "tx": [
    {
      "txid": "4343cabbabcf5f693712e40bcc2790f703bdc1c42b729dd1d8806cc70d976ddb",
      "hash": "4343cabbabcf5f693712e40bcc2790f703bdc1c42b729dd1d8806cc70d976ddb",
      "version": 1,
      "size": 135,
      "vsize": 135,
      "weight": 540,
      "locktime": 0,
      "vin": [
        {
          "coinbase": "04ffff001d02f403",
          "sequence": 4294967295
        }
      ],
      "vout": [
        {
          "value": 50.0,
          "n": 0,
          "scriptPubKey": {
            "asm": "04a5564463843e9643a6e9d21292c7b61d7bf34bbcb56eae0bbde226bfdee42ea3f33ac24829cd74fe4cafcdf2f6edd6568b89aed55618c36ca3b1a43e6b753cc1 OP_CHECKSIG",
            "desc": "pk(04a5564463843e9643a6e9d21292c7b61d7bf34bbcb56eae0bbde226bfdee42ea3f33ac24829cd74fe4cafcdf2f6edd6568b89aed55618c36ca3b1a43e6b753cc1)#zu5enr2s",
            "hex": "4104a5564463843e9643a6e9d21292c7b61d7bf34bbcb56eae0bbde226bfdee42ea3f33ac24829cd74fe4cafcdf2f6edd6568b89aed55618c36ca3b1a43e6b753cc1ac",
            "type": "pubkey"
          }
        }
      ],
      "hex": "01000000010000000000000000000000000000000000000000000000000000000000000000ffffffff0804ffff001d02f403ffffffff0100f2052a01000000434104a5564463843e9643a6e9d21292c7b61d7bf34bbcb56eae0bbde226bfdee42ea3f33ac24829cd74fe4cafcdf2f6edd6568b89aed55618c36ca3b1a43e6b753cc1ac00000000"
    }
  ]
}