{
  "hash": "00000000814a9380e070a26c717b5611bfbd0c5e3e91fc3b4424d5af9c3e8bae",
  "confirmations": 44800,
  "height": 8298,
  "version": 1,
  "versionHex": "00000001",
  "merkleroot": "4af0b5f81c3d12a800d30062b6975f2ceeabf4e459078e4fa16702539a65a946",
  "time": 1237728756,
  "mediantime": 1237724936,
  "nonce": 1673447959,
  "bits": "1d00ffff",
  "difficulty": 1,
  "chainwork": "0000000000000000000000000000000000000000000000000000206b206b206b",
  "nTx": 1,
  "previousblockhash": "00000000a99f42c001b1f548f97d17865ca930426dfa034d2ccb569ff029f0dd",
  "nextblockhash": "00000000cd55b40c62d50782b3c8c6521463499d8a4cfdf301dd19895594e071",
  "strippedsize": 216,
  "size": 216,
  "weight": 864,
  "tx": [
    {
      "txid": "4af0b5f81c3d12a800d30062b6975f2ceeabf4e459078e4fa16702539a65a946",
      "hash": "4af0b5f81c3d12a800d30062b6975f2ceeabf4e459078e4fa16702539a65a946",
      "version": 1,
      "size": 135,
      "vsize": 135,
      "weight": 540,
      "locktime": 0,
      "vin": [
        {
          "coinbase": "04ffff001d022204",
          "sequence": 4294967295
        }
      ],
      "vout": [
        {
          "value": 50.0,
          "n": 0,
          "scriptPubKey": {
            "asm": "0415232c138e35d3ce2dd89ec832430bf2a0262beaa1fffc105bd0cee8a5cd6de3c453544daf1c0f44286574dda38fdcd64bcdf7be91a1fedab11cac6a53257eb6 OP_CHECKSIG",
            "desc": "pk(0415232c138e35d3ce2dd89ec832430bf2a0262beaa1fffc105bd0cee8a5cd6de3c453544daf1c0f44286574dda38fdcd64bcdf7be91a1fedab11cac6a53257eb6)#x7vu8pp8",
            "hex": "410415232c138e35d3ce2dd89ec832430bf2a0262beaa1fffc105bd0cee8a5cd6de3c453544daf1c0f44286574dda38fdcd64bcdf7be91a1fedab11cac6a53257eb6ac",
            "type": "pubkey"
          }
        }
      ],
      "hex": "01000000010000000000000000000000000000000000000000000000000000000000000000ffffffff0804ffff001d022204ffffffff0100f2052a0100000043410415232c138e35d3ce2dd89ec832430bf2a0262beaa1fffc105bd0cee8a5cd6de3c453544daf1c0f44286574dda38fdcd64bcdf7be91a1fedab11cac6a53257eb6ac00000000"
    }
  ]
}