{
  "hash": "00000000b81b771a8a7bb38f8ff734c947c687d8825c26a64141227cf11c7f6c",
  "confirmations": 50096,
  "height": 3002,
  "version": 1,
  "versionHex": "00000001",
  "merkleroot": "00b719641fcc64ef30c4455ba2553bfe5177811daffbae40406fef0e6a7ca4e6",
  "time": 1233763257,
  "mediantime": 1233758727,
  "nonce": 3156358402,
  "bits": "1d00ffff",
  "difficulty": 1,
  "chainwork": "00000000000000000000000000000000000000000000000000000bbb0bbb0bbb",
  "nTx": 1,
  "previousblockhash": "00000000ee1d6b98d28b71c969d4bc8a20ee43a379ce49547bcad30c606d8845",
  "nextblockhash": "000000003c0189a438845b13551ce64dbf5840c9375495ef0fdad0503de4feac",
  "strippedsize": 216,
  "size": 216,
  "weight": 864,
  "tx": [
    {
      "txid": "00b719641fcc64ef30c4455ba2553bfe5177811daffbae40406fef0e6a7ca4e6",
      "hash": "00b719641fcc64ef30c4455ba2553bfe5177811daffbae40406fef0e6a7ca4e6",
      "version": 1,
      "size": 135,
      "vsize": 135,
      "weight": 540,
      "locktime": 0,
      "vin": [
        {
          "coinbase": "04ffff001d027101",
          "sequence": 4294967295
        }
      ],
      "vout": [
        {
          "value": 50.0,
          "n": 0,
          "scriptPubKey": {
            "asm": "04abd1f5c63e6396ab4fdf699866f385a13c217d5fa73b77bf3c3a4ba1551b818f2467d8614c0c67dd75d31c02cd35c6b9f47bd85c9aa0bfc1ba0916007da971c5 OP_CHECKSIG",
            "desc": "pk(04abd1f5c63e6396ab4fdf699866f385a13c217d5fa73b77bf3c3a4ba1551b818f2467d8614c0c67dd75d31c02cd35c6b9f47bd85c9aa0bfc1ba0916007da971c5)#fck4s3uv",
            "hex": "4104abd1f5c63e6396ab4fdf699866f385a13c217d5fa73b77bf3c3a4ba1551b818f2467d8614c0c67dd75d31c02cd35c6b9f47bd85c9aa0bfc1ba0916007da971c5ac",
            "type": "pubkey"
          }
        }
      ],
      "hex": "01000000010000000000000000000000000000000000000000000000000000000000000000ffffffff0804ffff001d027101ffffffff0100f2052a01000000434104abd1f5c63e6396ab4fdf699866f385a13c217d5fa73b77bf3c3a4ba1551b818f2467d8614c0c67dd75d31c02cd35c6b9f47bd85c9aa0bfc1ba0916007da971c5ac00000000"
    }
  ]
}