{
  "hash": "00000000abd5f5b6f9c105607d83d51a6c9a2407b734521272ad3e5910ad6858",
  "confirmations": 46618,
  "height": 6480,
  "version": 1,
  "versionHex": "00000001",
  "merkleroot": "dc46aae2ebdafdecb7325f497845fab0788162389d04db7d7197bfbd8ddf8a47",
  "time": 1236315363,
  "mediantime": 1236310889,
  "nonce": 304018994,
  "bits": "1d00ffff",
  "difficulty": 1,
  "chainwork": "0000000000000000000000000000000000000000000000000000195119511951",
  "nTx": 1,
  "previousblockhash": "00000000804b6cc556b38b08cbfb7955e144584a33d9e26ee924da51ccb92d52",
  "nextblockhash": "00000000e6a02f1b36c1d4a7faec94be737c1fef22df42cc3a33b19e13b3dceb",
  "strippedsize": 216,
  "size": 216,
  "weight": 864,
  "tx": [
    {
      "txid": "dc46aae2ebdafdecb7325f497845fab0788162389d04db7d7197bfbd8ddf8a47",
      "hash": "dc46aae2ebdafdecb7325f497845fab0788162389d04db7d7197bfbd8ddf8a47",
      "version": 1,
      "size": 135,
      "vsize": 135,
      "weight": 540,
      "locktime": 0,
      "vin": [
        {
          "coinbase": "04ffff001d021503",
          "sequence": 4294967295
        }
      ],
      "vout": [
        {
          "value": 50.0,
          "n": 0,
          "scriptPubKey": {
            "asm": "040a69e45932ed09ca6ea40ec68e3428a47f8dbaa10e71a2a00e1b7c9936dfd6b8e515962750d9bd7566f13c8f8b7c913ddfa25a9804864d4e9ab1acf8c7ec236c OP_CHECKSIG",
            "desc": "pk(040a69e45932ed09ca6ea40ec68e3428a47f8dbaa10e71a2a00e1b7c9936dfd6b8e515962750d9bd7566f13c8f8b7c913ddfa25a9804864d4e9ab1acf8c7ec236c)#h6w23c0u",
            "hex": "41040a69e45932ed09ca6ea40ec68e3428a47f8dbaa10e71a2a00e1b7c9936dfd6b8e515962750d9bd7566f13c8f8b7c913ddfa25a9804864d4e9ab1acf8c7ec236cac",
            "type": "pubkey"
          }
        }
      ],
      "hex": "01000000010000000000000000000000000000000000000000000000000000000000000000ffffffff0804ffff001d021503ffffffff0100f2052a010000004341040a69e45932ed09ca6ea40ec68e3428a47f8dbaa10e71a2a00e1b7c9936dfd6b8e515962750d9bd7566f13c8f8b7c913ddfa25a9804864d4e9ab1acf8c7ec236cac00000000"
    }
  ]
}