{
  "hash": "000000008a445c650d29879722e4d37c945310907f74e7d3f2aeccc54a94dc82",
  "confirmations": 51687,
  "height": 1411,
  "version": 1,
  "versionHex": "00000001",
  "merkleroot": "3f910e9623603d43a0bd4e5843721df34195556fde500b1e4da95aa9623396fe",
  "time": 1232729636,
  "mediantime": 1232728810,
  "nonce": 3029937684,
  "bits": "1d00ffff",
  "difficulty": 1,
  "chainwork": "0000000000000000000000000000000000000000000000000000058405840584",
  "nTx": 1,
  "previousblockhash": "000000002607a33986c36cea0cc034838ac5b332f7fb702958f61f6b4f38840c",
  "nextblockhash": "000000009365124501ccc3fd99fd9a600d15a02c623851ef583445a2357cf1ae",
  "strippedsize": 215,
  "size": 215,
  "weight": 860,
  "tx": [
    {
      "txid": "3f910e9623603d43a0bd4e5843721df34195556fde500b1e4da95aa9623396fe",
      "hash": "3f910e9623603d43a0bd4e5843721df34195556fde500b1e4da95aa9623396fe",
      "version": 1,
      "size": 134,
      "vsize": 134,
      "weight": 536,
      "locktime": 0,
      "vin": [
        {
          "coinbase": "04ffff001d012f",
          "sequence": 4294967295
        }
      ],
      "vout": [
        {
          "value": 50.0,
          "n": 0,
          "scriptPubKey": {
            "asm": "0447b2338b1178c50ac12375f54036106fe1307d3786286b55ba8da44ee4aa768b965f2fec0ae881be8584bfb5ab102efb1823e7e57324f2ca461555ca367d3d8f OP_CHECKSIG",
            "desc": "pk(0447b2338b1178c50ac12375f54036106fe1307d3786286b55ba8da44ee4aa768b965f2fec0ae881be8584bfb5ab102efb1823e7e57324f2ca461555ca367d3d8f)#eza49ng2",
            "hex": "410447b2338b1178c50ac12375f54036106fe1307d3786286b55ba8da44ee4aa768b965f2fec0ae881be8584bfb5ab102efb1823e7e57324f2ca461555ca367d3d8fac",
            "type": "pubkey"
          }
        }
      ],
      "hex": "01000000010000000000000000000000000000000000000000000000000000000000000000ffffffff0704ffff001d012fffffffff0100f2052a0100000043410447b2338b1178c50ac12375f54036106fe1307d3786286b55ba8da44ee4aa768b965f2fec0ae881be8584bfb5ab102efb1823e7e57324f2ca461555ca367d3d8fac00000000"
    }
  ]
}