{
  "hash": "00000000a62af389701fa23c5aa195906449c39bd26e49894c75e2936e21cb01",
  "confirmations": 48230,
  "height": 4868,
  "version": 1,
  "versionHex": "00000001",
  "merkleroot": "ad4afb41d9683788236e64bf68bcde0c12d93253e12de822026275694b427f70",
  "time": 1235050196,
  "mediantime": 1235046985,
  "nonce": 1573972994,
  "bits": "1d00ffff",
  "difficulty": 1,
  "chainwork": "0000000000000000000000000000000000000000000000000000130513051305",
  "nTx": 1,
  "previousblockhash": "00000000c571818a30ca83344628844c6b56b8ed1092aa26ae8f136a40710dea",
  "nextblockhash": "00000000a8a4f0d56f23e2b25d89a88c7542ef6c3c4ac2027d0d2d1fac70d56f",
  "strippedsize": 216,
  "size": 216,
  "weight": 864,
  "tx": [
    {
      "txid": "ad4afb41d9683788236e64bf68bcde0c12d93253e12de822026275694b427f70",
      "hash": "ad4afb41d9683788236e64bf68bcde0c12d93253e12de822026275694b427f70",
      "version": 1,
      "size": 135,
      "vsize": 135,
      "weight": 540,
      "locktime": 0,
      "vin": [
        {
          "coinbase": "04ffff001d025305",
          "sequence": 4294967295
        }
      ],
      "vout": [
        {
          "value": 50.0,
          "n": 0,
          "scriptPubKey": {
            "asm": "04c1c3827a9a0a6bc0cef0feb7fde1115e652ea3727cad9708fd2c333f2a10abe929a2ef81be3f037c41477623375b8e8e62b14f1aaaa24cc426945c39e3adf7f9 OP_CHECKSIG",
            "desc": "pk(04c1c3827a9a0a6bc0cef0feb7fde1115e652ea3727cad9708fd2c333f2a10abe929a2ef81be3f037c41477623375b8e8e62b14f1aaaa24cc426945c39e3adf7f9)#5m8eqvdt",
            "hex": "4104c1c3827a9a0a6bc0cef0feb7fde1115e652ea3727cad9708fd2c333f2a10abe929a2ef81be3f037c41477623375b8e8e62b14f1aaaa24cc426945c39e3adf7f9ac",
            "type": "pubkey"
          }
        }
      ],
      "hex": "01000000010000000000000000000000000000000000000000000000000000000000000000ffffffff0804ffff001d025305ffffffff0100f2052a01000000434104c1c3827a9a0a6bc0cef0feb7fde1115e652ea3727cad9708fd2c333f2a10abe929a2ef81be3f037c41477623375b8e8e62b14f1aaaa24cc426945c39e3adf7f9ac00000000"
    }
  ]
}