{
  "hash": "000000004a365ae12d9e43615db500336e9c40afd19502d3e1fa066e0c924532",
  "confirmations": 48095,
  "height": 5003,
  "version": 1,
  "versionHex": "00000001",
  "merkleroot": "1708fb5a4a7535f40970239f3965b6642291b27f1b14369b3b7d1f0b407ffce5",
  "time": 1235138767,
  "mediantime": 1235134590,
  "nonce": 518373428,
  "bits": "1d00ffff",
  "difficulty": 1,
  "chainwork": "0000000000000000000000000000000000000000000000000000138c138c138c",
  "nTx": 1,
  "previousblockhash": "0000000058c93b07908de1a99f12593a18c0dbdcfd912c2327ecd36a6bac0c8c",
  "nextblockhash": "00000000422e1857bb1bd758376a2e541cca2f329de1a63663f1fd9787476f01",
  "strippedsize": 216,
  "size": 216,
  "weight": 864,
  "tx": [
    {
      "txid": "1708fb5a4a7535f40970239f3965b6642291b27f1b14369b3b7d1f0b407ffce5",
      "hash": "1708fb5a4a7535f40970239f3965b6642291b27f1b14369b3b7d1f0b407ffce5",
      "version": 1,
      "size": 135,
      "vsize": 135,
      "weight": 540,
      "locktime": 0,
      "vin": [
        {
          "coinbase": "04ffff001d021107",
          "sequence": 4294967295
        }
      ],
      "vout": [
        {
          "value": 50.0,
          "n": 0,
          "scriptPubKey": {
            "asm": "04153e6b9462b02ee6f7cf1eb5daa235553bdca4fded01070a8848dd9938a5eb34fcffa7a571d0a15b40bb23bd97d53e510f2c3592c92abfddd199394d6195087f OP_CHECKSIG",
            "desc": "pk(04153e6b9462b02ee6f7cf1eb5daa235553bdca4fded01070a8848dd9938a5eb34fcffa7a571d0a15b40bb23bd97d53e510f2c3592c92abfddd199394d6195087f)#d8pp74al",
            "hex": "4104153e6b9462b02ee6f7cf1eb5daa235553bdca4fded01070a8848dd9938a5eb34fcffa7a571d0a15b40bb23bd97d53e510f2c3592c92abfddd199394d6195087fac",
            "type": "pubkey"
          }
        }
      ],
      "hex": "01000000010000000000000000000000000000000000000000000000000000000000000000ffffffff0804ffff001d021107ffffffff0100f2052a01000000434104153e6b9462b02ee6f7cf1eb5daa235553bdca4fded01070a8848dd9938a5eb34fcffa7a571d0a15b40bb23bd97d53e510f2c3592c92abfddd199394d6195087fac00000000"
    }
  ]
}