{
  "hash": "00000000149a05aa3aa2544993ee1e359683750df8ec055c183e749f452c1fcf",
  "confirmations": 45450,
  "height": 7648,
  "version": 1,
  "versionHex": "00000001",
  "merkleroot": "7645a0a0ccc2226f8b67116f30d0697cfeb12e586200263ea1e2640a3fa9656b",
  "time": 1237202060,
  "mediantime": 1237198087,
  "nonce": 2480270637,
  "bits": "1d00ffff",
  "difficulty": 1,
  "chainwork": "00000000000000000000000000000000000000000000000000001de11de11de1",
  "nTx": 1,
  "previousblockhash": "000000001cf7cd13648a8613f515ed9dfebd6335b98b7140906bd022df40d5bb",
  "nextblockhash": "00000000f968a8fef2e92ef6296a62d6d7fb6219643a0aef3d95e9e26421c634",
  "strippedsize": 216,
  "size": 216,
  "weight": 864,
  "tx": [
    {
      "txid": "7645a0a0ccc2226f8b67116f30d0697cfeb12e586200263ea1e2640a3fa9656b",
      "hash": "7645a0a0ccc2226f8b67116f30d0697cfeb12e586200263ea1e2640a3fa9656b",
      "version": 1,
      "size": 135,
      "vsize": 135,
      "weight": 540,
      "locktime": 0,
      "vin": [
        {
          "coinbase": "04ffff001d023903",
          "sequence": 4294967295
        }
      ],
      "vout": [
        {
          "value": 50.0,
          "n": 0,
          "scriptPubKey": {
            "asm": "04205045a5475bc07060edefa0f9dd62815086e81ee89e5459321721f7ed4b56b03b4a626b3266a3d4be0aeff447d7e10f5c0ea3d63c1801b9958c01d1534591a8 OP_CHECKSIG",
            "desc": "pk(04205045a5475bc07060edefa0f9dd62815086e81ee89e5459321721f7ed4b56b03b4a626b3266a3d4be0aeff447d7e10f5c0ea3d63c1801b9958c01d1534591a8)#h7knewnw",
            "hex": "4104205045a5475bc07060edefa0f9dd62815086e81ee89e5459321721f7ed4b56b03b4a626b3266a3d4be0aeff447d7e10f5c0ea3d63c1801b9958c01d1534591a8ac",
            "type": "pubkey"
          }
        }
      ],
      "hex": "01000000010000000000000000000000000000000000000000000000000000000000000000ffffffff0804ffff001d023903ffffffff0100f2052a01000000434104205045a5475bc07060edefa0f9dd62815086e81ee89e5459321721f7ed4b56b03b4a626b3266a3d4be0aeff447d7e10f5c0ea3d63c1801b9958c01d1534591a8ac00000000"
    }
  ]
}