{
  "hash": "000000008f8713e5adcfe70145e227b57e9354e457dcaf481a21e16bb7d9a1a2",
  "confirmations": 49890,
  "height": 3208,
  "version": 1,
  "versionHex": "00000001",
  "merkleroot": "931c79e2d542f763160cfa7e7bd3bb890fe420baeeea43ad4612e06f9c984c0e",
  "time": 1233905627,
  "mediantime": 1233903069,
  "nonce": 6154321,
  "bits": "1d00ffff",
  "difficulty": 1,
  "chainwork": "00000000000000000000000000000000000000000000000000000c890c890c89",
  "nTx": 1,
  "previousblockhash": "00000000731863fda62ad45cb258731b85038f96e19bca63afe7201a5e4a8e6c",
  "nextblockhash": "00000000e9eac4f031a1594cd03d8c04d30e6efe46cf9befe52f41f0cf4c41df",
  "strippedsize": 215,
  "size": 215,
  "weight": 860,
  "tx": [
    {
      "txid": "931c79e2d542f763160cfa7e7bd3bb890fe420baeeea43ad4612e06f9c984c0e",
      "hash": "931c79e2d542f763160cfa7e7bd3bb890fe420baeeea43ad4612e06f9c984c0e",
      "version": 1,
      "size": 134,
      "vsize": 134,
      "weight": 536,
      "locktime": 0,
      "vin": [
        {
          "coinbase": "04ffff001d0120",
          "sequence": 4294967295
        }
      ],
      "vout": [
        {
          "value": 50.0,
          "n": 0,
          "scriptPubKey": {
            "asm": "04a58c4255c7d7bfee838857c263a423ab895678333ca185b8468aba82b16ad1ebb76ab6c3b01a981fe0a3c0bf9788efdbcfbd5a165fe94c7d158f61511d31b64b OP_CHECKSIG",
            "desc": "pk(04a58c4255c7d7bfee838857c263a423ab895678333ca185b8468aba82b16ad1ebb76ab6c3b01a981fe0a3c0bf9788efdbcfbd5a165fe94c7d158f61511d31b64b)#6z7u5ycg",
            "hex": "4104a58c4255c7d7bfee838857c263a423ab895678333ca185b8468aba82b16ad1ebb76ab6c3b01a981fe0a3c0bf9788efdbcfbd5a165fe94c7d158f61511d31b64bac",
            "type": "pubkey"
          }
        }
      ],
      "hex": "01000000010000000000000000000000000000000000000000000000000000000000000000ffffffff0704ffff001d0120ffffffff0100f2052a01000000434104a58c4255c7d7bfee838857c263a423ab895678333ca185b8468aba82b16ad1ebb76ab6c3b01a981fe0a3c0bf9788efdbcfbd5a165fe94c7d158f61511d31b64bac00000000"
    }
  ]
}