{
  "hash": "000000005153e11361b28644ee63887e11f0b4b5a14d8e3da826d215dc1ce364",
  "confirmations": 52009,
  "height": 226,
  "version": 1,
  "versionHex": "00000001",
  "merkleroot": "9e493f9683043a91ab533f50919339eb8c35756e8c2b82372b53217a73d3826b",
  "time": 1231773794,
  "mediantime": 1231770060,
  "nonce": 434958616,
  "bits": "1d00ffff",
  "difficulty": 1,
  "chainwork": "000000000000000000000000000000000000000000000000000000e300e300e3",
  "nTx": 1,
  "previousblockhash": "00000000c665269a9d5cf61af5fd43e73840d933179c55a6d681957d3d214f28",
  "nextblockhash": "00000000fa8b0d2c835156455cee090212192ab289d5233aaf4c39ada1741f63",
  "strippedsize": 216,
  "size": 216,
  "weight": 864,
  "tx": [
    {
      "txid": "9e493f9683043a91ab533f50919339eb8c35756e8c2b82372b53217a73d3826b",
      "hash": "9e493f9683043a91ab533f50919339eb8c35756e8c2b82372b53217a73d3826b",
      "version": 1,
      "size": 135,
      "vsize": 135,
      "weight": 540,
      "locktime": 0,
      "vin": [
        {
          "coinbase": "04ffff001d02bd00",
          "sequence": 4294967295
        }
      ],
      "vout": [
        {
          "value": 50.0,
          "n": 0,
          "scriptPubKey": {
            "asm": "04f1954e04cc08c836b2bd9dac3127b9cbba0b7b7ff92bc0ea9b2532931381fd9da5b918cc7018b224bafcb78e38bb2a46ad6bcee99879d6972f0dc6134c8c48c3 OP_CHECKSIG",
            "desc": "pk(04f1954e04cc08c836b2bd9dac3127b9cbba0b7b7ff92bc0ea9b2532931381fd9da5b918cc7018b224bafcb78e38bb2a46ad6bcee99879d6972f0dc6134c8c48c3)#jwfs4dmg",
            "hex": "4104f1954e04cc08c836b2bd9dac3127b9cbba0b7b7ff92bc0ea9b2532931381fd9da5b918cc7018b224bafcb78e38bb2a46ad6bcee99879d6972f0dc6134c8c48c3ac",
            "type": "pubkey"
          }
        }
      ],
      "hex": "01000000010000000000000000000000000000000000000000000000000000000000000000ffffffff0804ffff001d02bd00ffffffff0100f2052a01000000434104f1954e04cc08c836b2bd9dac3127b9cbba0b7b7ff92bc0ea9b2532931381fd9da5b918cc7018b224bafcb78e38bb2a46ad6bcee99879d6972f0dc6134c8c48c3ac00000000"
    }
  ]
}