{
  "hash": "000000005d0d04bca775ea7b312834c415ab28b40f623b19084186c78b3a56d8",
  "confirmations": 47217,
  "height": 5881,
  "version": 1,
  "versionHex": "00000001",
  "merkleroot": "49a22ef89609a43092c502ed75497c490c4c6602840ec30e5d032377feedfbd7",
  "time": 1235828842,
  "mediantime": 1235824650,
  "nonce": 875064616,
  "bits": "1d00ffff",
  "difficulty": 1,
  "chainwork": "000000000000000000000000000000000000000000000000000016fa16fa16fa",
  "nTx": 1,
  "previousblockhash": "000000003eb751f538e66bf2d6ce2131184b11e3e804a87b4a839b1f50a1ee14",
  "nextblockhash": "000000009212abd1bf88429c39215c2d070751091a77280ab3535550a6a9b4c4",
  "strippedsize": 216,
  "size": 216,
  "weight": 864,
  "tx": [
    {
      "txid": "49a22ef89609a43092c502ed75497c490c4c6602840ec30e5d032377feedfbd7",
      "hash": "49a22ef89609a43092c502ed75497c490c4c6602840ec30e5d032377feedfbd7",
      "version": 1,
      "size": 135,
      "vsize": 135,
      "weight": 540,
      "locktime": 0,
      "vin": [
        {
          "coinbase": "04ffff001d02ad02",
          "sequence": 4294967295
        }
      ],
      "vout": [
        {
          "value": 50.0,
          "n": 0,
          "scriptPubKey": {
            "asm": "04a2daccb6110098013923956fda9eb2beda06b4ffa21864ef3dc21a2fede5a9f03e27276fb625782466e506e65fd45726c121afb843b8d6c2da891643a55ccf4f OP_CHECKSIG",
            "desc": "pk(04a2daccb6110098013923956fda9eb2beda06b4ffa21864ef3dc21a2fede5a9f03e27276fb625782466e506e65fd45726c121afb843b8d6c2da891643a55ccf4f)#vp5r865m",
            "hex": "4104a2daccb6110098013923956fda9eb2beda06b4ffa21864ef3dc21a2fede5a9f03e27276fb625782466e506e65fd45726c121afb843b8d6c2da891643a55ccf4fac",
            "type": "pubkey"
          }
        }
      ],
      "hex": "01000000010000000000000000000000000000000000000000000000000000000000000000ffffffff0804ffff001d02ad02ffffffff0100f2052a01000000434104a2daccb6110098013923956fda9eb2beda06b4ffa21864ef3dc21a2fede5a9f03e27276fb625782466e506e65fd45726c121afb843b8d6c2da891643a55ccf4fac00000000"
    }
  ]
}