{
  "hash": "000000003f1bc1f4ac95537d79c9fb4bf77654ca1703c94d2b49f52e7574fb3c",
  "confirmations": 47405,
  "height": 5693,
  "version": 1,
  "versionHex": "00000001",
  "merkleroot": "ebe7b8af31fc9b846ce0a6965c618601055292a75f18014176321925307eeb46",
  "time": 1235681816,
  "mediantime": 1235678910,
  "nonce": 735314696,
  "bits": "1d00ffff",
  "difficulty": 1,
  "chainwork": "0000000000000000000000000000000000000000000000000000163e163e163e",
  "nTx": 1,
  "previousblockhash": "0000000073206ed6b450c75cedfa97ae033d3ed6866ba4ff83ccc35a388479e9",
  "nextblockhash": "0000000012e205a04fe7a4742f5c954e6f86249760d827d72db877fc5b2a9e3f",
  "strippedsize": 216,
  "size": 216,
  "weight": 864,
  "tx": [
    {
      "txid": "ebe7b8af31fc9b846ce0a6965c618601055292a75f18014176321925307eeb46",
      "hash": "ebe7b8af31fc9b846ce0a6965c618601055292a75f18014176321925307eeb46",
      "version": 1,
      "size": 135,
      "vsize": 135,
      "weight": 540,
      "locktime": 0,
      "vin": [
        {
          "coinbase": "04ffff001d025909",
          "sequence": 4294967295
        }
      ],
      "vout": [
        {
          "value": 50.0,
          "n": 0,
          "scriptPubKey": {
            "asm": "04a671190c735812a21aa1953a340f14f614b5aaf37867a9ac496414c884ab43c76ba3ac1f9a937d685042d2bae9f514b357ff93f1f6fc90d40751b9bd66d2682d OP_CHECKSIG",
            "desc": "pk(04a671190c735812a21aa1953a340f14f614b5aaf37867a9ac496414c884ab43c76ba3ac1f9a937d685042d2bae9f514b357ff93f1f6fc90d40751b9bd66d2682d)#nyf02q9p",
            "hex": "4104a671190c735812a21aa1953a340f14f614b5aaf37867a9ac496414c884ab43c76ba3ac1f9a937d685042d2bae9f514b357ff93f1f6fc90d40751b9bd66d2682dac",
            "type": "pubkey"
          }
        }
      ],
      "hex": "01000000010000000000000000000000000000000000000000000000000000000000000000ffffffff0804ffff001d025909ffffffff0100f2052a01000000434104a671190c735812a21aa1953a340f14f614b5aaf37867a9ac496414c884ab43c76ba3ac1f9a937d685042d2bae9f514b357ff93f1f6fc90d40751b9bd66d2682dac00000000"
    }
  ]
}