{
  "hash": "00000000d8699db19ceba1be6407e2b79fb8620d631ede772e70c26a9cd059af",
  "confirmations": 45107,
  "height": 7991,
  "version": 1,
  "versionHex": "00000001",
  "merkleroot": "a4a24c1230cc356940a5e79f1a0090b02a800fbab9b0161d86d9de649f90a880",
  "time": 1237457185,
  "mediantime": 1237452527,
  "nonce": 2352611585,
  "bits": "1d00ffff",
  "difficulty": 1,
  "chainwork": "00000000000000000000000000000000000000000000000000001f381f381f38",
  "nTx": 1,
  "previousblockhash": "00000000e34f0987c3e2f5b24fe991fd2d67acc73aad5736da87573284e72755",
  "nextblockhash": "00000000f9be3ef6b7c1dabb77ed79d195fe16865a64d331e9ccee6d3c05cd76",
  "strippedsize": 216,
  "size": 216,
  "weight": 864,
  "tx": [
    {
      "txid": "a4a24c1230cc356940a5e79f1a0090b02a800fbab9b0161d86d9de649f90a880",
      "hash": "a4a24c1230cc356940a5e79f1a0090b02a800fbab9b0161d86d9de649f90a880",
      "version": 1,
      "size": 135,
      "vsize": 135,
      "weight": 540,
      "locktime": 0,
      "vin": [
        {
          "coinbase": "04ffff001d025309",
          "sequence": 4294967295
        }
      ],
      "vout": [
        {
          "value": 50.0,
          "n": 0,
          "scriptPubKey": {
            "asm": "042e9d5c97352a9e8077c923d943d9477364f9c4f77a73e4941e9d14b07c8db85f1edd07f650f7354d4bcad80d4c796cec3adb3cf1a6869614cbb26f6e86ebeefd OP_CHECKSIG",
            "desc": "pk(042e9d5c97352a9e8077c923d943d9477364f9c4f77a73e4941e9d14b07c8db85f1edd07f650f7354d4bcad80d4c796cec3adb3cf1a6869614cbb26f6e86ebeefd)#8tvy7usq",
            "hex": "41042e9d5c97352a9e8077c923d943d9477364f9c4f77a73e4941e9d14b07c8db85f1edd07f650f7354d4bcad80d4c796cec3adb3cf1a6869614cbb26f6e86ebeefdac",
            "type": "pubkey"
          }
        }
      ],
      "hex": "01000000010000000000000000000000000000000000000000000000000000000000000000ffffffff0804ffff001d025309ffffffff0100f2052a010000004341042e9d5c97352a9e8077c923d943d9477364f9c4f77a73e4941e9d14b07c8db85f1edd07f650f7354d4bcad80d4c796cec3adb3cf1a6869614cbb26f6e86ebeefdac00000000"
    }
  ]
}