{
  "hash": "00000000b33665a706914ef4eb26abb9b021c47b285108480f0ed2a2ef346e8b",
  "confirmations": 50214,
  "height": 2884,
  "version": 1,
  "versionHex": "00000001",
  "merkleroot": "f03e7560d25decb155d49714853f31ab929e04eb82a1a61aef82c01bf7c84c06",
  "time": 1233680501,
  "mediantime": 1233677873,
  "nonce": 23565168,
  "bits": "1d00ffff",
  "difficulty": 1,
  "chainwork": "00000000000000000000000000000000000000000000000000000b450b450b45",
  "nTx": 1,
  "previousblockhash": "000000007e10e9dae52f6354019e0eed8092447a6cf2a5686759b6824767ad61",
  "nextblockhash": "00000000416becf6020383b27bfd8308138fc21918537a6660874b21a7876487",
  "strippedsize": 215,
  "size": 215,
  "weight": 860,
  "tx": [
    {
      "txid": "f03e7560d25decb155d49714853f31ab929e04eb82a1a61aef82c01bf7c84c06",
      "hash": "f03e7560d25decb155d49714853f31ab929e04eb82a1a61aef82c01bf7c84c06",
      "version": 1,
      "size": 134,
      "vsize": 134,
      "weight": 536,
      "locktime": 0,
      "vin": [
        {
          "coinbase": "04ffff001d013f",
          "sequence": 4294967295
        }
      ],
      "vout": [
        {
          "value": 50.0,
          "n": 0,
          "scriptPubKey": {
            "asm": "04a1d84326a1b977fa3a509bcacb092fcecc47a68c2ce6fd137e13de1e183fdf2e64778ac3dd6cf16f3c1f95786adcd9339986662893da50a47382c174a75538d6 OP_CHECKSIG",
            "desc": "pk(04a1d84326a1b977fa3a509bcacb092fcecc47a68c2ce6fd137e13de1e183fdf2e64778ac3dd6cf16f3c1f95786adcd9339986662893da50a47382c174a75538d6)#9mvd4y5d",
            "hex": "4104a1d84326a1b977fa3a509bcacb092fcecc47a68c2ce6fd137e13de1e183fdf2e64778ac3dd6cf16f3c1f95786adcd9339986662893da50a47382c174a75538d6ac",
            "type": "pubkey"
          }
        }
      ],
      "hex": "01000000010000000000000000000000000000000000000000000000000000000000000000ffffffff0704ffff001d013fffffffff0100f2052a01000000434104a1d84326a1b977fa3a509bcacb092fcecc47a68c2ce6fd137e13de1e183fdf2e64778ac3dd6cf16f3c1f95786adcd9339986662893da50a47382c174a75538d6ac00000000"
    }
  ]
}