{
  "hash": "00000000d54ca7d7a8e3d623a54564bc2450698a432372fea36796d239c8ac70",
  "confirmations": 48135,
  "height": 4963,
  "version": 1,
  "versionHex": "00000001",
  "merkleroot": "c1fae6ab77623410b9cc8ff1c258331dd16d89a64a76cb1350c699d76c2cd568",
  "time": 1235114005,
  "mediantime": 1235111102,
  "nonce": 396294675,
  "bits": "1d00ffff",
  "difficulty": 1,
  "chainwork": "0000000000000000000000000000000000000000000000000000136413641364",
  "nTx": 1,
  "previousblockhash": "0000000005cf9b991e8867f48cf1a9359c40e22905152b97d8fde0b54201bd61",
  "nextblockhash": "000000001867c90f9f9ec67b6001384a3630c7d7c7c3fccd4757cc4fcc4a686b",
  "strippedsize": 216,
  "size": 216,
  "weight": 864,
  "tx": [
    {
      "txid": "c1fae6ab77623410b9cc8ff1c258331dd16d89a64a76cb1350c699d76c2cd568",
      "hash": "c1fae6ab77623410b9cc8ff1c258331dd16d89a64a76cb1350c699d76c2cd568",
      "version": 1,
      "size": 135,
      "vsize": 135,
      "weight": 540,
      "locktime": 0,
      "vin": [
        {
          "coinbase": "04ffff001d02fc0b",
          "sequence": 4294967295
        }
      ],
      "vout": [
        {
          "value": 50.0,
          "n": 0,
          "scriptPubKey": {
            "asm": "04a8745dd83a29d9bf3ee45dbbeb9d6c07c914691d56ff2d7352621da95fcab2cf927ffae9cdd67d510d22348db4223fee5c7694608724a968f25ce56dffce816e OP_CHECKSIG",
            "desc": "pk(04a8745dd83a29d9bf3ee45dbbeb9d6c07c914691d56ff2d7352621da95fcab2cf927ffae9cdd67d510d22348db4223fee5c7694608724a968f25ce56dffce816e)#vqxqucz3",
            "hex": "4104a8745dd83a29d9bf3ee45dbbeb9d6c07c914691d56ff2d7352621da95fcab2cf927ffae9cdd67d510d22348db4223fee5c7694608724a968f25ce56dffce816eac",
            "type": "pubkey"
          }
        }
      ],
      "hex": "01000000010000000000000000000000000000000000000000000000000000000000000000ffffffff0804ffff001d02fc0bffffffff0100f2052a01000000434104a8745dd83a29d9bf3ee45dbbeb9d6c07c914691d56ff2d7352621da95fcab2cf927ffae9cdd67d510d22348db4223fee5c7694608724a968f25ce56dffce816eac00000000"
    }
  ]
}