{
  "hash": "00000000d4b08aca34609811875a3c8f9570c00e9763baea6c4d640a418ce7bc",
  "confirmations": 45772,
  "height": 7326,
  "version": 1,
  "versionHex": "00000001",
  "merkleroot": "8311af1560a7ec415321d6c1878090a2466b705510adc7d3859d201ebd98bb02",
  "time": 1236966198,
  "mediantime": 1236962812,
  "nonce": 3402970920,
  "bits": "1d00ffff",
  "difficulty": 1,
  "chainwork": "00000000000000000000000000000000000000000000000000001c9f1c9f1c9f",
  "nTx": 1,
  "previousblockhash": "00000000c041cb35fa7c3f2f8a71cd3ed85838d21cdfe93aee6d48a131e9866f",
  "nextblockhash": "0000000036ba5f0892f8e538f8e11bb525368921c0da9a972fc351bee24695a6",
  "strippedsize": 216,
  "size": 216,
  "weight": 864,
  "tx": [
    {
      "txid": "8311af1560a7ec415321d6c1878090a2466b705510adc7d3859d201ebd98bb02",
      "hash": "8311af1560a7ec415321d6c1878090a2466b705510adc7d3859d201ebd98bb02",
      "version": 1,
      "size": 135,
      "vsize": 135,
      "weight": 540,
      "locktime": 0,
      "vin": [
        {
          "coinbase": "04ffff001d020908",
          "sequence": 4294967295
        }
      ],
      "vout": [
        {
          "value": 50.0,
          "n": 0,
          "scriptPubKey": {
            "asm": "04f15b26a4122300b411a05d465a50cc5aa83a785383dfb4844200894d4ee6f81bfa04b6d71e9562e9a3b85a78a2d5ff1f3f4ec3234a183ca3c1487191f5ce959f OP_CHECKSIG",
            "desc": "pk(04f15b26a4122300b411a05d465a50cc5aa83a785383dfb4844200894d4ee6f81bfa04b6d71e9562e9a3b85a78a2d5ff1f3f4ec3234a183ca3c1487191f5ce959f)#jt8p5yem",
            "hex": "4104f15b26a4122300b411a05d465a50cc5aa83a785383dfb4844200894d4ee6f81bfa04b6d71e9562e9a3b85a78a2d5ff1f3f4ec3234a183ca3c1487191f5ce959fac",
            "type": "pubkey"
          }
        }
      ],
      "hex": "01000000010000000000000000000000000000000000000000000000000000000000000000ffffffff0804ffff001d020908ffffffff0100f2052a01000000434104f15b26a4122300b411a05d465a50cc5aa83a785383dfb4844200894d4ee6f81bfa04b6d71e9562e9a3b85a78a2d5ff1f3f4ec3234a183ca3c1487191f5ce959fac00000000"
    }
  ]
}