{
  "hash": "000000007fb3dc97caf583a7740fbcc579eaca202c1eba5ebedc80d8e1a3c696",
  "confirmations": 50437,
  "height": 2661,
  "version": 1,
  "versionHex": "00000001",
  "merkleroot": "f7ca4f4820cbc6423071aeb1312313bbb57aaf307e651a5022e44dd951ebfb5c",
  "time": 1233535311,
  "mediantime": 1233532287,
  "nonce": 3598391069,
  "bits": "1d00ffff",
  "difficulty": 1,
  "chainwork": "00000000000000000000000000000000000000000000000000000a660a660a66",
  "nTx": 1,
  "previousblockhash": "00000000d4f802358c9fd7fde183da3ad137979775893a756ce93ec3d2570526",
  "nextblockhash": "00000000fb77bc758b5efd0ff40f3bcf12edfb1a0bada75355ba71de737d5990",
  "strippedsize": 216,
  "size": 216,
  "weight": 864,
  "tx": [
    {
      "txid": "f7ca4f4820cbc6423071aeb1312313bbb57aaf307e651a5022e44dd951ebfb5c",
      "hash": "f7ca4f4820cbc6423071aeb1312313bbb57aaf307e651a5022e44dd951ebfb5c",
      "version": 1,
      "size": 135,
      "vsize": 135,
      "weight": 540,
      "locktime": 0,
      "vin": [
        {
          "coinbase": "04ffff001d022404",
          "sequence": 4294967295
        }
      ],
      "vout": [
        {
          "value": 50.0,
          "n": 0,
          "scriptPubKey": {
            "asm": "04f0059d183e8556093a5350557b6781f161a0a1ccbb0c2e606746bc41d1b3d414deda7c05c6696985fd646afdbbdc05d24f781cda0f33cef2ea427dadab050233 OP_CHECKSIG",
            "desc": "pk(04f0059d183e8556093a5350557b6781f161a0a1ccbb0c2e606746bc41d1b3d414deda7c05c6696985fd646afdbbdc05d24f781cda0f33cef2ea427dadab050233)#0xv8wc5n",
            "hex": "4104f0059d183e8556093a5350557b6781f161a0a1ccbb0c2e606746bc41d1b3d414deda7c05c6696985fd646afdbbdc05d24f781cda0f33cef2ea427dadab050233ac",
            "type": "pubkey"
          }
        }
      ],
      "hex": "01000000010000000000000000000000000000000000000000000000000000000000000000ffffffff0804ffff001d022404ffffffff0100f2052a01000000434104f0059d183e8556093a5350557b6781f161a0a1ccbb0c2e606746bc41d1b3d414deda7c05c6696985fd646afdbbdc05d24f781cda0f33cef2ea427dadab050233ac00000000"
    }
  ]
}