{
  "hash": "00000000c29b2595b46321efd07066a4d3d94db1b71302e40907ef3c720b274b",
  "confirmations": 43629,
  "height": 9469,
  "version": 1,
  "versionHex": "00000001",
  "merkleroot": "3ad54949d55282064642ba42b6e3d77f1c7abb2d1eb593ff0a280432b6194397",
  "time": 1238604881,
  "mediantime": 1238602266,
  "nonce": 2026277408,
  "bits": "1d00ffff",
  "difficulty": 1,
  "chainwork": "000000000000000000000000000000000000000000000000000024fe24fe24fe",
  "nTx": 1,
  "previousblockhash": "00000000c8f4d18b6df1c2a0788312b5c8df41bc083a70ef0a34a9908a7c45b8",
  "nextblockhash": "00000000f2240fb9174dad96d3e4fa5a392ba81c048c76d1e5f8ea313ec2ea33",
  "strippedsize": 216,
  "size": 216,
  "weight": 864,
  "tx": [
    {
      "txid": "3ad54949d55282064642ba42b6e3d77f1c7abb2d1eb593ff0a280432b6194397",
      "hash": "3ad54949d55282064642ba42b6e3d77f1c7abb2d1eb593ff0a280432b6194397",
      "version": 1,
      "size": 135,
      "vsize": 135,
      "weight": 540,
      "locktime": 0,
      "vin": [
        {
          "coinbase": "04ffff001d02d004",
          "sequence": 4294967295
        }
      ],
      "vout": [
        {
          "value": 50.0,
          "n": 0,
          "scriptPubKey": {
            "asm": "04311887cc6f7a8f7a8aee027e8eb691fd36a46e51c20290adeccb714048fddd2aaa5691a2bdb980dce0327f45acc809aa17aacb7a0bd9836e48212c05ee2c8d8a OP_CHECKSIG",
            "desc": "pk(04311887cc6f7a8f7a8aee027e8eb691fd36a46e51c20290adeccb714048fddd2aaa5691a2bdb980dce0327f45acc809aa17aacb7a0bd9836e48212c05ee2c8d8a)#rpj69nsy",
            "hex": "4104311887cc6f7a8f7a8aee027e8eb691fd36a46e51c20290adeccb714048fddd2aaa5691a2bdb980dce0327f45acc809aa17aacb7a0bd9836e48212c05ee2c8d8aac",
            "type": "pubkey"
          }
        }
      ],
      "hex": "01000000010000000000000000000000000000000000000000000000000000000000000000ffffffff0804ffff001d02d004ffffffff0100f2052a01000000434104311887cc6f7a8f7a8aee027e8eb691fd36a46e51c20290adeccb714048fddd2aaa5691a2bdb980dce0327f45acc809aa17aacb7a0bd9836e48212c05ee2c8d8aac00000000"
    }
  ]
}