{
  "hash": "00000000944a6986d12e34ccdcdf52d97c2a01eb6e53264c162d23c562984778",
  "confirmations": 44059,
  "height": 9039,
  "version": 1,
  "versionHex": "00000001",
  "merkleroot": "efdd0c446e026ba28410dc89708d2029487df83a8c617aa58f79372985d2b726",
  "time": 1238281469,
  "mediantime": 1238277051,
  "nonce": 2077430584,
  "bits": "1d00ffff",
  "difficulty": 1,
  "chainwork": "0000000000000000000000000000000000000000000000000000235023502350",
  "nTx": 1,
  "previousblockhash": "0000000021c12ba808106093f028d52a16b3dd8456e4d04ba6a7b6de469d4215",
  "nextblockhash": "00000000708e3b444d261f2563f04f1c4e7ea53f7b4315386f25b73c06e6f104",
  "strippedsize": 216,
  "size": 216,
  "weight": 864,
  "tx": [
    {
      "txid": "efdd0c446e026ba28410dc89708d2029487df83a8c617aa58f79372985d2b726",
      "hash": "efdd0c446e026ba28410dc89708d2029487df83a8c617aa58f79372985d2b726",
      "version": 1,
      "size": 135,
      "vsize": 135,
      "weight": 540,
      "locktime": 0,
      "vin": [
        {
          "coinbase": "04ffff001d020807",
          "sequence": 4294967295
        }
      ],
      "vout": [
        {
          "value": 50.0,
          "n": 0,
          "scriptPubKey": {
            "asm": "0464e745de94c299d224259b1dbdaeec4d2f3a30efc71f259154cbc58f8122cb44f75deab03d509b99252a8745a48b9d254d49d3ebab8dc3755f2a2429c02a28cb OP_CHECKSIG",
            "desc": "pk(0464e745de94c299d224259b1dbdaeec4d2f3a30efc71f259154cbc58f8122cb44f75deab03d509b99252a8745a48b9d254d49d3ebab8dc3755f2a2429c02a28cb)#mflxty2w",
            "hex": "410464e745de94c299d224259b1dbdaeec4d2f3a30efc71f259154cbc58f8122cb44f75deab03d509b99252a8745a48b9d254d49d3ebab8dc3755f2a2429c02a28cbac",
            "type": "pubkey"
          }
        }
      ],
      "hex": "01000000010000000000000000000000000000000000000000000000000000000000000000ffffffff0804ffff001d020807ffffffff0100f2052a0100000043410464e745de94c299d224259b1dbdaeec4d2f3a30efc71f259154cbc58f8122cb44f75deab03d509b99252a8745a48b9d254d49d3ebab8dc3755f2a2429c02a28cbac00000000"
    }
  ]
}