{
  "hash": "000000007689885f84a7fb445e5d4e3179411242d629d9e8b52d87a87d4768a6",
  "confirmations": 47913,
  "height": 5185,
  "version": 1,
  "versionHex": "00000001",
  "merkleroot": "61edac65bf301b9ac2bf1b6c64e9651d26b5bc47d70a3aee41d5d7677188933b",
  "time": 1235276036,
  "mediantime": 1235273304,
  "nonce": 2501977370,
  "bits": "1d00ffff",
  "difficulty": 1,
  "chainwork": "0000000000000000000000000000000000000000000000000000144214421442",
  "nTx": 1,
  "previousblockhash": "000000003983b989ed5037704b37ccced779def688ee8ad2ffba10f1cd94c731",
  "nextblockhash": "000000000d21a8252b86bf9105cf4c0a56ca512238adfd3ee483f0e215b96252",
  "strippedsize": 215,
  "size": 215,
  "weight": 860,
  "tx": [
    {
      "txid": "61edac65bf301b9ac2bf1b6c64e9651d26b5bc47d70a3aee41d5d7677188933b",
      "hash": "61edac65bf301b9ac2bf1b6c64e9651d26b5bc47d70a3aee41d5d7677188933b",
      "version": 1,
      "size": 134,
      "vsize": 134,
      "weight": 536,
      "locktime": 0,
      "vin": [
        {
          "coinbase": "04ffff001d0149",
          "sequence": 4294967295
        }
      ],
      "vout": [
        {
          "value": 50.0,
          "n": 0,
          "scriptPubKey": {
            "asm": "04b1da570e81e3fa007da7fb1dcdcd81b1b4b0cdb6f1c951aadd73b2629afbac0af193d1b715a1b47226f9fc0814d140ddd3e3023dc60e9c035d17b985765b7e24 OP_CHECKSIG",
            "desc": "pk(04b1da570e81e3fa007da7fb1dcdcd81b1b4b0cdb6f1c951aadd73b2629afbac0af193d1b715a1b47226f9fc0814d140ddd3e3023dc60e9c035d17b985765b7e24)#8qhd2hep",
            "hex": "4104b1da570e81e3fa007da7fb1dcdcd81b1b4b0cdb6f1c951aadd73b2629afbac0af193d1b715a1b47226f9fc0814d140ddd3e3023dc60e9c035d17b985765b7e24ac",
            "type": "pubkey"
          }
        }
      ],
      "hex": "01000000010000000000000000000000000000000000000000000000000000000000000000ffffffff0704ffff001d0149ffffffff0100f2052a01000000434104b1da570e81e3fa007da7fb1dcdcd81b1b4b0cdb6f1c951aadd73b2629afbac0af193d1b715a1b47226f9fc0814d140ddd3e3023dc60e9c035d17b985765b7e24ac00000000"
    }
  ]
}