{
  "hash": "00000000422e1857bb1bd758376a2e541cca2f329de1a63663f1fd9787476f01",
  "confirmations": 48094,
  "height": 5004,
  "version": 1,
  "versionHex": "00000001",
  "merkleroot": "875bd6ddff039b9c567f49610e575f4a221c0eaa114cd071d3038b7d7a7c8672",
  "time": 1235139872,
  "mediantime": 1235134923,
  "nonce": 3033274416,
  "bits": "1d00ffff",
  "difficulty": 1,
  "chainwork": "0000000000000000000000000000000000000000000000000000138d138d138d",
  "nTx": 1,
  "previousblockhash": "000000004a365ae12d9e43615db500336e9c40afd19502d3e1fa066e0c924532",
  "nextblockhash": "00000000d8e1ff70753bdcc86a037f9394d61c9437d1a14f9878c6b52285cbb7",
  "strippedsize": 216,
  "size": 216,
  "weight": 864,
  "tx": [
    {
      "txid": "875bd6ddff039b9c567f49610e575f4a221c0eaa114cd071d3038b7d7a7c8672",
      "hash": "875bd6ddff039b9c567f49610e575f4a221c0eaa114cd071d3038b7d7a7c8672",
      "version": 1,
      "size": 135,
      "vsize": 135,
      "weight": 540,
      "locktime": 0,
      "vin": [
        {
          "coinbase": "04ffff001d021307",
          "sequence": 4294967295
        }
      ],
      "vout": [
        {
          "value": 50.0,
          "n": 0,
          "scriptPubKey": {
            "asm": "04cca5209b49bb9cd4576fd4ae1b95162816d70970de007d857cd2aea2f4aa2f0b8cb2be6394d740ec27f2347000b64bea618c59f27937d3180f4c1466e65866ed OP_CHECKSIG",
            "desc": "pk(04cca5209b49bb9cd4576fd4ae1b95162816d70970de007d857cd2aea2f4aa2f0b8cb2be6394d740ec27f2347000b64bea618c59f27937d3180f4c1466e65866ed)#nle90euj",
            "hex": "4104cca5209b49bb9cd4576fd4ae1b95162816d70970de007d857cd2aea2f4aa2f0b8cb2be6394d740ec27f2347000b64bea618c59f27937d3180f4c1466e65866edac",
            "type": "pubkey"
          }
        }
      ],
      "hex": "01000000010000000000000000000000000000000000000000000000000000000000000000ffffffff0804ffff001d021307ffffffff0100f2052a01000000434104cca5209b49bb9cd4576fd4ae1b95162816d70970de007d857cd2aea2f4aa2f0b8cb2be6394d740ec27f2347000b64bea618c59f27937d3180f4c1466e65866edac00000000"
    }
  ]
}