{
  "hash": "000000000f7171e53e5f037b70ae6a30d2fa6c1a9e019aa3dae242180baea54a",
  "confirmations": 51887,
  "height": 59,
  "version": 1,
  "versionHex": "00000001",
  "merkleroot": "3c0db11484606a63b04ef4b8adcd665655939d3932ab1ebe90d1dfc5f077ca95",
  "time": 1231620928,
  "mediantime": 1231617386,
  "nonce": 1353976342,
  "bits": "1d00ffff",
  "difficulty": 1,
  "chainwork": "0000000000000000000000000000000000000000000000000000003c003c003c",
  "nTx": 1,
  "previousblockhash": "0000000075b4df54f33c4e60cf88c5dd6a6455f16f4fbe220ae81e157ce32ef1",
  "nextblockhash": "00000000c47a58b89434bd7c7af8334b366f713330dfb89119d67d79424d2cdf",
  "strippedsize": 216,
  "size": 216,
  "weight": 864,
  "tx": [
    {
      "txid": "3c0db11484606a63b04ef4b8adcd665655939d3932ab1ebe90d1dfc5f077ca95",
      "hash": "3c0db11484606a63b04ef4b8adcd665655939d3932ab1ebe90d1dfc5f077ca95",
      "version": 1,
      "size": 135,
      "vsize": 135,
      "weight": 540,
      "locktime": 0,
      "vin": [
        {
          "coinbase": "04ffff001d028300",
          "sequence": 4294967295
        }
      ],
      "vout": [
        {
          "value": 50.0,
          "n": 0,
          "scriptPubKey": {
            "asm": "047fcd0b4211b1c3cde62dcea8da192533f3fd1446734c221f5ff54904d28803eb77c16aeb9b1a0562e79d38b9ba281f9fc0a4c24d7d8d5af9d4c11b670dc61fc1 OP_CHECKSIG",
            "desc": "pk(047fcd0b4211b1c3cde62dcea8da192533f3fd1446734c221f5ff54904d28803eb77c16aeb9b1a0562e79d38b9ba281f9fc0a4c24d7d8d5af9d4c11b670dc61fc1)#29gy3f4f",
            "hex": "41047fcd0b4211b1c3cde62dcea8da192533f3fd1446734c221f5ff54904d28803eb77c16aeb9b1a0562e79d38b9ba281f9fc0a4c24d7d8d5af9d4c11b670dc61fc1ac",
            "type": "pubkey"
          }
        }
      ],
      "hex": "01000000010000000000000000000000000000000000000000000000000000000000000000ffffffff0804ffff001d028300ffffffff0100f2052a010000004341047fcd0b4211b1c3cde62dcea8da192533f3fd1446734c221f5ff54904d28803eb77c16aeb9b1a0562e79d38b9ba281f9fc0a4c24d7d8d5af9d4c11b670dc61fc1ac00000000"
    }
  ]
}