{
  "hash": "00000000b9ca35c786ff52a0b9eccb7730ae1a033d6313a43f28bc95b571cd1a",
  "confirmations": 51416,
  "height": 1682,
  "version": 1,
  "versionHex": "00000001",
  "merkleroot": "e1915d102d3d92a6128757560e024186bd9e28eab632dc81ab339413e7590714",
  "time": 1232845258,
  "mediantime": 1232842943,
  "nonce": 3808820271,
  "bits": "1d00ffff",
  "difficulty": 1,
  "chainwork": "0000000000000000000000000000000000000000000000000000069306930693",
  "nTx": 1,
  "previousblockhash": "00000000af33e1eea00b0c03076f5a06291d59622f39920b53710f0d60fc8489",
  "nextblockhash": "00000000d8213c90c9a0747a61a18ff7e334805adb5a03e1d295b3e104934a2b",
  "strippedsize": 216,
  "size": 216,
  "weight": 864,
  "tx": [
    {
      "txid": "e1915d102d3d92a6128757560e024186bd9e28eab632dc81ab339413e7590714",
      "hash": "e1915d102d3d92a6128757560e024186bd9e28eab632dc81ab339413e7590714",
      "version": 1,
      "size": 135,
      "vsize": 135,
      "weight": 540,
      "locktime": 0,
      "vin": [
        {
          "coinbase": "04ffff001d02f702",
          "sequence": 4294967295
        }
      ],
      "vout": [
        {
          "value": 50.0,
          "n": 0,
          "scriptPubKey": {
            "asm": "04665e3edf63e016622a8901dca8cf7b42e43666ba962bbb3b40a508f4e2a8b1e6f4a5f07a4d03779b22e98d3256ecb58a3f32a54d676eace27b186c78ce98e942 OP_CHECKSIG",
            "desc": "pk(04665e3edf63e016622a8901dca8cf7b42e43666ba962bbb3b40a508f4e2a8b1e6f4a5f07a4d03779b22e98d3256ecb58a3f32a54d676eace27b186c78ce98e942)#lwvduvnn",
            "hex": "4104665e3edf63e016622a8901dca8cf7b42e43666ba962bbb3b40a508f4e2a8b1e6f4a5f07a4d03779b22e98d3256ecb58a3f32a54d676eace27b186c78ce98e942ac",
            "type": "pubkey"
          }
        }
      ],
      "hex": "01000000010000000000000000000000000000000000000000000000000000000000000000ffffffff0804ffff001d02f702ffffffff0100f2052a01000000434104665e3edf63e016622a8901dca8cf7b42e43666ba962bbb3b40a508f4e2a8b1e6f4a5f07a4d03779b22e98d3256ecb58a3f32a54d676eace27b186c78ce98e942ac00000000"
    }
  ]
}