{
  "hash": "0000000011d0af58284833562b2d4560dc629a4b7af832c09fe0398826ec95d1",
  "confirmations": 43881,
  "height": 9217,
  "version": 1,
  "versionHex": "00000001",
  "merkleroot": "4309aa14d3e7ab793a42f8150e7d99aaf23100badab8e15e180356d75ae658f8",
  "time": 1238413539,
  "mediantime": 1238410355,
  "nonce": 96241875,
  "bits": "1d00ffff",
  "difficulty": 1,
  "chainwork": "0000000000000000000000000000000000000000000000000000240224022402",
  "nTx": 1,
  "previousblockhash": "000000006e6f24c028e57ed885e5925993a21e8521fda852c8e8941298e517dd",
  "nextblockhash": "00000000188c2430e645a76ab00cbaa925f993476fe8cf75088b9fdf84e63709",
  "strippedsize": 216,
  "size": 216,
  "weight": 864,
  "tx": [
    {
      "txid": "4309aa14d3e7ab793a42f8150e7d99aaf23100badab8e15e180356d75ae658f8",
      "hash": "4309aa14d3e7ab793a42f8150e7d99aaf23100badab8e15e180356d75ae658f8",
      "version": 1,
      "size": 135,
      "vsize": 135,
      "weight": 540,
      "locktime": 0,
      "vin": [
        {
          "coinbase": "04ffff001d02b80e",
          "sequence": 4294967295
        }
      ],
      "vout": [
        {
          "value": 50.0,
          "n": 0,
          "scriptPubKey": {
            "asm": "04ffd5551e270d45d39e92b126469c114c1527b895af01a0bcb8cf352f8160ca5004e8be65b7cc4547b054f4f4e86c721fc0369b52de195d00b19702a78bff27df OP_CHECKSIG",
            "desc": "pk(04ffd5551e270d45d39e92b126469c114c1527b895af01a0bcb8cf352f8160ca5004e8be65b7cc4547b054f4f4e86c721fc0369b52de195d00b19702a78bff27df)#s5qzr8tm",
            "hex": "4104ffd5551e270d45d39e92b126469c114c1527b895af01a0bcb8cf352f8160ca5004e8be65b7cc4547b054f4f4e86c721fc0369b52de195d00b19702a78bff27dfac",
            "type": "pubkey"
          }
        }
      ],
      "hex": "01000000010000000000000000000000000000000000000000000000000000000000000000ffffffff0804ffff001d02b80effffffff0100f2052a01000000434104ffd5551e270d45d39e92b126469c114c1527b895af01a0bcb8cf352f8160ca5004e8be65b7cc4547b054f4f4e86c721fc0369b52de195d00b19702a78bff27dfac00000000"
    }
  ]
}