{
  "hash": "00000000770b3cc7e452578726abdab6a8f7e614813e9e4602b151478f2952cc",
  "confirmations": 51438,
  "height": 1660,
  "version": 1,
  "versionHex": "00000001",
  "merkleroot": "61f7b5a370ce721d068a7a68f48280245eee465ceeac326f7e0832002b5446dc",
  "time": 1232836928,
  "mediantime": 1232835381,
  "nonce": 1374964516,
  "bits": "1d00ffff",
  "difficulty": 1,
  "chainwork": "0000000000000000000000000000000000000000000000000000067d067d067d",
  "nTx": 1,
  "previousblockhash": "00000000091ef505e86c7a89b2cd66543179a1616d6a496b7514da1fe6ecc48f",
  "nextblockhash": "00000000a776517f08957556cf726e2ba182b2d4848ad412ebab74043eca4308",
  "strippedsize": 216,
  "size": 216,
  "weight": 864,
  "tx": [
    {
      "txid": "61f7b5a370ce721d068a7a68f48280245eee465ceeac326f7e0832002b5446dc",
      "hash": "61f7b5a370ce721d068a7a68f48280245eee465ceeac326f7e0832002b5446dc",
      "version": 1,
      "size": 135,
      "vsize": 135,
      "weight": 540,
      "locktime": 0,
      "vin": [
        {
          "coinbase": "04ffff001d02c202",
          "sequence": 4294967295
        }
      ],
      "vout": [
        {
          "value": 50.0,
          "n": 0,
          "scriptPubKey": {
            "asm": "04a36529340aa78fcfe0e674d6f11340c44bc079d0c69cdb71c3a372fe6b7d9c6900b72577d39c4450156cf25361068c2122cee73ca62c075de3f6feac52f66991 OP_CHECKSIG",
            "desc": "pk(04a36529340aa78fcfe0e674d6f11340c44bc079d0c69cdb71c3a372fe6b7d9c6900b72577d39c4450156cf25361068c2122cee73ca62c075de3f6feac52f66991)#tcl9hnf2",
            "hex": "4104a36529340aa78fcfe0e674d6f11340c44bc079d0c69cdb71c3a372fe6b7d9c6900b72577d39c4450156cf25361068c2122cee73ca62c075de3f6feac52f66991ac",
            "type": "pubkey"
          }
        }
      ],
      "hex": "01000000010000000000000000000000000000000000000000000000000000000000000000ffffffff0804ffff001d02c202ffffffff0100f2052a01000000434104a36529340aa78fcfe0e674d6f11340c44bc079d0c69cdb71c3a372fe6b7d9c6900b72577d39c4450156cf25361068c2122cee73ca62c075de3f6feac52f66991ac00000000"
    }
  ]
}