{
  "hash": "00000000d086fbe7a127663c1a36495646d0c00732f09e97718b8d297a9f9c4e",
  "confirmations": 43139,
  "height": 9959,
  "version": 1,
  "versionHex": "00000001",
  "merkleroot": "9cbd9edb3e6b1a4a58f7484c7f64d169a47468e7a234ab2979a81c067c0a44f7",
  "time": 1238962186,
  "mediantime": 1238959215,
  "nonce": 2452285730,
  "bits": "1d00ffff",
  "difficulty": 1,
  "chainwork": "000000000000000000000000000000000000000000000000000026e826e826e8",
  "nTx": 1,
  "previousblockhash": "00000000d0d520c925dc479ea7a3724bb271c4ea86af7f732ca3084a55b497f6",
  "nextblockhash": "000000006fea5455dec691428ba4be12a11345232cbee3d5a533bea00921298b",
  "strippedsize": 216,
  "size": 216,
  "weight": 864,
  "tx": [
    {
      "txid": "9cbd9edb3e6b1a4a58f7484c7f64d169a47468e7a234ab2979a81c067c0a44f7",
      "hash": "9cbd9edb3e6b1a4a58f7484c7f64d169a47468e7a234ab2979a81c067c0a44f7",
      "version": 1,
      "size": 135,
      "vsize": 135,
      "weight": 540,
      "locktime": 0,
      "vin": [
        {
          "coinbase": "04ffff001d02ca02",
          "sequence": 4294967295
        }
      ],
      "vout": [
        {
          "value": 50.0,
          "n": 0,
          "scriptPubKey": {
            "asm": "04b9e9709c267368c4b5579e2ce4704a2c07eb8ad72854878d1387aed4fc6669a48dc135f22046ed8717bd5b1c64581ade9a7eb98ad916bf1c80c7b1ff0c946c4a OP_CHECKSIG",
            "desc": "pk(04b9e9709c267368c4b5579e2ce4704a2c07eb8ad72854878d1387aed4fc6669a48dc135f22046ed8717bd5b1c64581ade9a7eb98ad916bf1c80c7b1ff0c946c4a)#wrkz5v7q",
            "hex": "4104b9e9709c267368c4b5579e2ce4704a2c07eb8ad72854878d1387aed4fc6669a48dc135f22046ed8717bd5b1c64581ade9a7eb98ad916bf1c80c7b1ff0c946c4aac",
            "type": "pubkey"
          }
        }
      ],
      "hex": "01000000010000000000000000000000000000000000000000000000000000000000000000ffffffff0804ffff001d02ca02ffffffff0100f2052a01000000434104b9e9709c267368c4b5579e2ce4704a2c07eb8ad72854878d1387aed4fc6669a48dc135f22046ed8717bd5b1c64581ade9a7eb98ad916bf1c80c7b1ff0c946c4aac00000000"
    }
  ]
}