{
  "hash": "00000000c8fd8e47245760fc2d164013cf60b6b73a5f3ed9ed21c5c1289e65aa",
  "confirmations": 52083,
  "height": 252,
  "version": 1,
  "versionHex": "00000001",
  "merkleroot": "242aaea6008ac8c852d6b785748cc46c8dfe1578d94a411fac3c5bd714b4838a",
  "time": 1231795114,
  "mediantime": 1231789563,
  "nonce": 2644663328,
  "bits": "1d00ffff",
  "difficulty": 1,
  "chainwork": "000000000000000000000000000000000000000000000000000000fd00fd00fd",
  "nTx": 1,
  "previousblockhash": "00000000eddf09d9b36274faf45b4b4629a28266ff952a69d554c1ed0b988dff",
  "nextblockhash": "00000000d1c33e314501b8e8ad742afe030dd2eb8ac41affa0149ccc702f440b",
  "strippedsize": 216,
  "size": 216,
  "weight": 864,
  "tx": [
    {
      "txid": "242aaea6008ac8c852d6b785748cc46c8dfe1578d94a411fac3c5bd714b4838a",
      "hash": "242aaea6008ac8c852d6b785748cc46c8dfe1578d94a411fac3c5bd714b4838a",
      "version": 1,
      "size": 135,
      "vsize": 135,
      "weight": 540,
      "locktime": 0,
      "vin": [
        {
          "coinbase": "04ffff001d021e01",
          "sequence": 4294967295
        }
      ],
      "vout": [
        {
          "value": 50.0,
          "n": 0,
          "scriptPubKey": {
            "asm": "04eb686f9436f4dec3ecd94fecdea9c52a3ad9fa97a572ba37cdc7778b7725df4dac6a4b3ee9589660d8dab09b3305ff0e4d5464e26cb4cc2a85cbfb2900ee31b2 OP_CHECKSIG",
            "desc": "pk(04eb686f9436f4dec3ecd94fecdea9c52a3ad9fa97a572ba37cdc7778b7725df4dac6a4b3ee9589660d8dab09b3305ff0e4d5464e26cb4cc2a85cbfb2900ee31b2)#8jcdjj5d",
            "hex": "4104eb686f9436f4dec3ecd94fecdea9c52a3ad9fa97a572ba37cdc7778b7725df4dac6a4b3ee9589660d8dab09b3305ff0e4d5464e26cb4cc2a85cbfb2900ee31b2ac",
            "type": "pubkey"
          }
        }
      ],
      "hex": "01000000010000000000000000000000000000000000000000000000000000000000000000ffffffff0804ffff001d021e01ffffffff0100f2052a01000000434104eb686f9436f4dec3ecd94fecdea9c52a3ad9fa97a572ba37cdc7778b7725df4dac6a4b3ee9589660d8dab09b3305ff0e4d5464e26cb4cc2a85cbfb2900ee31b2ac00000000"
    }
  ]
}