{
  "hash": "00000000e6e807e81755db9421d65e1017661109e9270913cab0283fc94acc1a",
  "confirmations": 43224,
  "height": 9874,
  "version": 1,
  "versionHex": "00000001",
  "merkleroot": "7146bc40b29f795dc57b0db3166aaab541b256b49048ef689db83f7d0511186f",
  "time": 1238909082,
  "mediantime": 1238905734,
  "nonce": 3112131882,
  "bits": "1d00ffff",
  "difficulty": 1,
  "chainwork": "0000000000000000000000000000000000000000000000000000269326932693",
  "nTx": 1,
  "previousblockhash": "0000000049adbeeca7fb22c980d0788eb83188c1481fddd6009519d2c9dcfea6",
  "nextblockhash": "000000000f2517956407661789046380936c43f6e1d760bf27aab5f27020d611",
  "strippedsize": 216,
  "size": 216,
  "weight": 864,
  "tx": [
    {
      "txid": "7146bc40b29f795dc57b0db3166aaab541b256b49048ef689db83f7d0511186f",
      "hash": "7146bc40b29f795dc57b0db3166aaab541b256b49048ef689db83f7d0511186f",
      "version": 1,
      "size": 135,
      "vsize": 135,
      "weight": 540,
      "locktime": 0,
      "vin": [
        {
          "coinbase": "04ffff001d02b101",
          "sequence": 4294967295
        }
      ],
      "vout": [
        {
          "value": 50.0,
          "n": 0,
          "scriptPubKey": {
            "asm": "04a9a4fc9a75e81a45d7b55c3ccdab731bf0d9c6330fba1a03042cb26c3b29fb50e81497e17049b0933c1a392ff41648cbc1b543c85242368f9fba7e078288d1b6 OP_CHECKSIG",
            "desc": "pk(04a9a4fc9a75e81a45d7b55c3ccdab731bf0d9c6330fba1a03042cb26c3b29fb50e81497e17049b0933c1a392ff41648cbc1b543c85242368f9fba7e078288d1b6)#y3wvpgtz",
            "hex": "4104a9a4fc9a75e81a45d7b55c3ccdab731bf0d9c6330fba1a03042cb26c3b29fb50e81497e17049b0933c1a392ff41648cbc1b543c85242368f9fba7e078288d1b6ac",
            "type": "pubkey"
          }
        }
      ],
      "hex": "01000000010000000000000000000000000000000000000000000000000000000000000000ffffffff0804ffff001d02b101ffffffff0100f2052a01000000434104a9a4fc9a75e81a45d7b55c3ccdab731bf0d9c6330fba1a03042cb26c3b29fb50e81497e17049b0933c1a392ff41648cbc1b543c85242368f9fba7e078288d1b6ac00000000"
    }
  ]
}