{
  "hash": "00000000b81fc0db6199e9bc6f05284a660ad54c19e2b4edabdf45567b33b844",
  "confirmations": 43734,
  "height": 9364,
  "version": 1,
  "versionHex": "00000001",
  "merkleroot": "601d11efba58de5a4e24e5b3be2a11ae07896ee32f5588e43defb69e407f1579",
  "time": 1238521539,
  "mediantime": 1238517908,
  "nonce": 49137449,
  "bits": "1d00ffff",
  "difficulty": 1,
  "chainwork": "0000000000000000000000000000000000000000000000000000249524952495",
  "nTx": 1,
  "previousblockhash": "0000000068cb3469799c49a8cbac21aed190309a4adffc89036a527dbf512a46",
  "nextblockhash": "00000000fd9f9cbf5adbd0bce44f491720d8052a37895fa72e0773bd0f196970",
  "strippedsize": 216,
  "size": 216,
  "weight": 864,
  "tx": [
    {
      "txid": "601d11efba58de5a4e24e5b3be2a11ae07896ee32f5588e43defb69e407f1579",
      "hash": "601d11efba58de5a4e24e5b3be2a11ae07896ee32f5588e43defb69e407f1579",
      "version": 1,
      "size": 135,
      "vsize": 135,
      "weight": 540,
      "locktime": 0,
      "vin": [
        {
          "coinbase": "04ffff001d027c09",
          "sequence": 4294967295
        }
      ],
      "vout": [
        {
          "value": 50.0,
          "n": 0,
          "scriptPubKey": {
            "asm": "0453a3ab5e611651d0a5838f789b77a47a7564692aa735215a487de82d784c98afc2c67cf84fcf46bafae0d61935352a70e033c7213da599cd7cef8ad2a041a703 OP_CHECKSIG",
            "desc": "pk(0453a3ab5e611651d0a5838f789b77a47a7564692aa735215a487de82d784c98afc2c67cf84fcf46bafae0d61935352a70e033c7213da599cd7cef8ad2a041a703)#lat9phtq",
            "hex": "410453a3ab5e611651d0a5838f789b77a47a7564692aa735215a487de82d784c98afc2c67cf84fcf46bafae0d61935352a70e033c7213da599cd7cef8ad2a041a703ac",
            "type": "pubkey"
          }
        }
      ],
      "hex": "01000000010000000000000000000000000000000000000000000000000000000000000000ffffffff0804ffff001d027c09ffffffff0100f2052a0100000043410453a3ab5e611651d0a5838f789b77a47a7564692aa735215a487de82d784c98afc2c67cf84fcf46bafae0d61935352a70e033c7213da599cd7cef8ad2a041a703ac00000000"
    }
  ]
}