{
  "hash": "00000000d7f6d30acba819b86045a6b8ce5d9632f30525d162662bb43efacc18",
  "confirmations": 43137,
  "height": 9961,
  "version": 1,
  "versionHex": "00000001",
  "merkleroot": "86e543f6be21744a0a71bf964b3a6282f91cc33508d91e3932076a14d5c14820",
  "time": 1238963276,
  "mediantime": 1238960196,
  "nonce": 2095787559,
  "bits": "1d00ffff",
  "difficulty": 1,
  "chainwork": "000000000000000000000000000000000000000000000000000026ea26ea26ea",
  "nTx": 1,
  "previousblockhash": "000000006fea5455dec691428ba4be12a11345232cbee3d5a533bea00921298b",
  "nextblockhash": "000000005f65e257463e644ea951e4146200de16272557610e806b79d8aef60f",
  "strippedsize": 216,
  "size": 216,
  "weight": 864,
  "tx": [
    {
      "txid": "86e543f6be21744a0a71bf964b3a6282f91cc33508d91e3932076a14d5c14820",
      "hash": "86e543f6be21744a0a71bf964b3a6282f91cc33508d91e3932076a14d5c14820",
      "version": 1,
      "size": 135,
      "vsize": 135,
      "weight": 540,
      "locktime": 0,
      "vin": [
        {
          "coinbase": "04ffff001d02df02",
          "sequence": 4294967295
        }
      ],
      "vout": [
        {
          "value": 50.0,
          "n": 0,
          "scriptPubKey": {
            "asm": "04791b5cc6c0487a569f05347b34fce49d649a48df8ec03d110adcdfc91b62667405c4179d959dee61c06e9e4a8d04728e4ca645e6d8ea09d51cc404dd3544b9ea OP_CHECKSIG",
            "desc": "pk(04791b5cc6c0487a569f05347b34fce49d649a48df8ec03d110adcdfc91b62667405c4179d959dee61c06e9e4a8d04728e4ca645e6d8ea09d51cc404dd3544b9ea)#my9mhxv7",
            "hex": "4104791b5cc6c0487a569f05347b34fce49d649a48df8ec03d110adcdfc91b62667405c4179d959dee61c06e9e4a8d04728e4ca645e6d8ea09d51cc404dd3544b9eaac",
            "type": "pubkey"
          }
        }
      ],
      "hex": "01000000010000000000000000000000000000000000000000000000000000000000000000ffffffff0804ffff001d02df02ffffffff0100f2052a01000000434104791b5cc6c0487a569f05347b34fce49d649a48df8ec03d110adcdfc91b62667405c4179d959dee61c06e9e4a8d04728e4ca645e6d8ea09d51cc404dd3544b9eaac00000000"
    }
  ]
}