{
  "hash": "000000008339fb09714e5de4f5c2c97a11b6e95a92f7819ecba100dd22c7da0e",
  "confirmations": 43847,
  "height": 9251,
  "version": 1,
  "versionHex": "00000001",
  "merkleroot": "ede9279730d3c012a689ef766137098c04d116d0c728e1b3577965569dd3737a",
  "time": 1238435695,
  "mediantime": 1238432180,
  "nonce": 141361042,
  "bits": "1d00ffff",
  "difficulty": 1,
  "chainwork": "0000000000000000000000000000000000000000000000000000242424242424",
  "nTx": 1,
  "previousblockhash": "00000000f9ba2607cd9bcc7829102ed65f44cc0b6d80a33fe61ec4596571b71b",
  "nextblockhash": "000000001298675cfac1fa35dc10d3821ee336cdc1753d80df4c6a64200001cc",
  "strippedsize": 216,
  "size": 216,
  "weight": 864,
  "tx": [
    {
      "txid": "ede9279730d3c012a689ef766137098c04d116d0c728e1b3577965569dd3737a",
      "hash": "ede9279730d3c012a689ef766137098c04d116d0c728e1b3577965569dd3737a",
      "version": 1,
      "size": 135,
      "vsize": 135,
      "weight": 540,
      "locktime": 0,
      "vin": [
        {
          "coinbase": "04ffff001d028a08",
          "sequence": 4294967295
        }
      ],
      "vout": [
        {
          "value": 50.0,
          "n": 0,
          "scriptPubKey": {
            "asm": "046935e5a1a1ff723dd4d05d459063c3e42290ac79d238678e5fd542d884880e8139e23e47b0230da672a6f879fad69c347375ab0aaa5fb4348dcb581f4b241e39 OP_CHECKSIG",
            "desc": "pk(046935e5a1a1ff723dd4d05d459063c3e42290ac79d238678e5fd542d884880e8139e23e47b0230da672a6f879fad69c347375ab0aaa5fb4348dcb581f4b241e39)#khjn8eat",
            "hex": "41046935e5a1a1ff723dd4d05d459063c3e42290ac79d238678e5fd542d884880e8139e23e47b0230da672a6f879fad69c347375ab0aaa5fb4348dcb581f4b241e39ac",
            "type": "pubkey"
          }
        }
      ],
      "hex": "01000000010000000000000000000000000000000000000000000000000000000000000000ffffffff0804ffff001d028a08ffffffff0100f2052a010000004341046935e5a1a1ff723dd4d05d459063c3e42290ac79d238678e5fd542d884880e8139e23e47b0230da672a6f879fad69c347375ab0aaa5fb4348dcb581f4b241e39ac00000000"
    }
  ]
}