{
  "hash": "00000000fc94c5c2b9359e3f9a76fd15a6fa518e3d7819d765c3f1ff93753024",
  "confirmations": 51514,
  "height": 1584,
  "version": 1,
  "versionHex": "00000001",
  "merkleroot": "9801ba7ab9a6bd0cabe1c2b628ad898886f5422a35680fafcf94dedc8a93819d",
  "time": 1232804026,
  "mediantime": 1232801781,
  "nonce": 4023886882,
  "bits": "1d00ffff",
  "difficulty": 1,
  "chainwork": "0000000000000000000000000000000000000000000000000000063106310631",
  "nTx": 1,
  "previousblockhash": "0000000082fb56bbafe5f60356ddcff4bcadc8f0098718b2ff4498a7c6a0cad0",
  "nextblockhash": "00000000edf47e92dbe2219a8c71a66f10108a0cb87f7bbe0b6ed1db89bca085",
  "strippedsize": 216,
  "size": 216,
  "weight": 864,
  "tx": [
    {
      "txid": "9801ba7ab9a6bd0cabe1c2b628ad898886f5422a35680fafcf94dedc8a93819d",
      "hash": "9801ba7ab9a6bd0cabe1c2b628ad898886f5422a35680fafcf94dedc8a93819d",
      "version": 1,
      "size": 135,
      "vsize": 135,
      "weight": 540,
      "locktime": 0,
      "vin": [
        {
          "coinbase": "04ffff001d02e901",
          "sequence": 4294967295
        }
      ],
      "vout": [
        {
          "value": 50.0,
          "n": 0,
          "scriptPubKey": {
            "asm": "0423efeeb6bdd3afc10427e8b93ea18e0bb889687e80d95cbc6814b90b88b381683f1c044b9218ce29822aebb0b2553a74dc24587dc73df6f4f46eec26285998e0 OP_CHECKSIG",
            "desc": "pk(0423efeeb6bdd3afc10427e8b93ea18e0bb889687e80d95cbc6814b90b88b381683f1c044b9218ce29822aebb0b2553a74dc24587dc73df6f4f46eec26285998e0)#a2tpvd7w",
            "hex": "410423efeeb6bdd3afc10427e8b93ea18e0bb889687e80d95cbc6814b90b88b381683f1c044b9218ce29822aebb0b2553a74dc24587dc73df6f4f46eec26285998e0ac",
            "type": "pubkey"
          }
        }
      ],
      "hex": "01000000010000000000000000000000000000000000000000000000000000000000000000ffffffff0804ffff001d02e901ffffffff0100f2052a0100000043410423efeeb6bdd3afc10427e8b93ea18e0bb889687e80d95cbc6814b90b88b381683f1c044b9218ce29822aebb0b2553a74dc24587dc73df6f4f46eec26285998e0ac00000000"
    }
  ]
}