{
  "hash": "00000000040b7194d64aaef0b9a1b6183f462b41a30f1ed8c29191585e4b4cea",
  "confirmations": 48061,
  "height": 5037,
  "version": 1,
  "versionHex": "00000001",
  "merkleroot": "879e3851d2f03bafcecc9d740d6d7e72c865eedf9d78fbad9d3566733ac49c51",
  "time": 1235164276,
  "mediantime": 1235161354,
  "nonce": 252641565,
  "bits": "1d00ffff",
  "difficulty": 1,
  "chainwork": "000000000000000000000000000000000000000000000000000013ae13ae13ae",
  "nTx": 1,
  "previousblockhash": "0000000012ace098f737c771ee6ff00d89b6389e305378d5446c9a1ca98d9986",
  "nextblockhash": "000000000099fc7a4e340d4203deb248ea83f7e0a1864b8a907d6af8a2ddb04f",
  "strippedsize": 216,
  "size": 216,
  "weight": 864,
  "tx": [
    {
      "txid": "879e3851d2f03bafcecc9d740d6d7e72c865eedf9d78fbad9d3566733ac49c51",
      "hash": "879e3851d2f03bafcecc9d740d6d7e72c865eedf9d78fbad9d3566733ac49c51",
      "version": 1,
      "size": 135,
      "vsize": 135,
      "weight": 540,
      "locktime": 0,
      "vin": [
        {
          "coinbase": "04ffff001d02af07",
          "sequence": 4294967295
        }
      ],
      "vout": [
        {
          "value": 50.0,
          "n": 0,
          "scriptPubKey": {
            "asm": "04d443f7035f194f8ece128fba74eeb7661842a0cc50709798af18e3429ed9555ab77d150b8415cd579aa9ebbbeb9a40bd0d8f7bf639277f3ca4f600f0be1e07c1 OP_CHECKSIG",
            "desc": "pk(04d443f7035f194f8ece128fba74eeb7661842a0cc50709798af18e3429ed9555ab77d150b8415cd579aa9ebbbeb9a40bd0d8f7bf639277f3ca4f600f0be1e07c1)#vas4u9qq",
            "hex": "4104d443f7035f194f8ece128fba74eeb7661842a0cc50709798af18e3429ed9555ab77d150b8415cd579aa9ebbbeb9a40bd0d8f7bf639277f3ca4f600f0be1e07c1ac",
            "type": "pubkey"
          }
        }
      ],
      "hex": "01000000010000000000000000000000000000000000000000000000000000000000000000ffffffff0804ffff001d02af07ffffffff0100f2052a01000000434104d443f7035f194f8ece128fba74eeb7661842a0cc50709798af18e3429ed9555ab77d150b8415cd579aa9ebbbeb9a40bd0d8f7bf639277f3ca4f600f0be1e07c1ac00000000"
    }
  ]
}