{
  "hash": "000000007314d0d5728eac04a7549becea8938b99a6c37171eba1c4948784f1d",
  "confirmations": 47510,
  "height": 5588,
  "version": 1,
  "versionHex": "00000001",
  "merkleroot": "d9c80758a59ee776d21c0eef81103adb5d038f1f49292a4eb48a2c9786572181",
  "time": 1235590557,
  "mediantime": 1235587757,
  "nonce": 746126104,
  "bits": "1d00ffff",
  "difficulty": 1,
  "chainwork": "000000000000000000000000000000000000000000000000000015d515d515d5",
  "nTx": 1,
  "previousblockhash": "0000000065fb3894ac8259bdeca36b7c7e602602b63d411ba82a28e8f917e6c7",
  "nextblockhash": "000000007423d0eb705bdc5b13ea30ee60d6c842725bb4d4778ad9db376300be",
  "strippedsize": 216,
  "size": 216,
  "weight": 864,
  "tx": [
    {
      "txid": "d9c80758a59ee776d21c0eef81103adb5d038f1f49292a4eb48a2c9786572181",
      "hash": "d9c80758a59ee776d21c0eef81103adb5d038f1f49292a4eb48a2c9786572181",
      "version": 1,
      "size": 135,
      "vsize": 135,
      "weight": 540,
      "locktime": 0,
      "vin": [
        {
          "coinbase": "04ffff001d026607",
          "sequence": 4294967295
        }
      ],
      "vout": [
        {
          "value": 50.0,
          "n": 0,
          "scriptPubKey": {
            "asm": "04488b67be52dfc00a64990eb8c6cbe299de8488f21a339d65122006607b286c957e029ed430f0672f545491b1e25742f6c92ff9b76dff78826b29bfb667ac07aa OP_CHECKSIG",
            "desc": "pk(04488b67be52dfc00a64990eb8c6cbe299de8488f21a339d65122006607b286c957e029ed430f0672f545491b1e25742f6c92ff9b76dff78826b29bfb667ac07aa)#4ptl9yz0",
            "hex": "4104488b67be52dfc00a64990eb8c6cbe299de8488f21a339d65122006607b286c957e029ed430f0672f545491b1e25742f6c92ff9b76dff78826b29bfb667ac07aaac",
            "type": "pubkey"
          }
        }
      ],
      "hex": "01000000010000000000000000000000000000000000000000000000000000000000000000ffffffff0804ffff001d026607ffffffff0100f2052a01000000434104488b67be52dfc00a64990eb8c6cbe299de8488f21a339d65122006607b286c957e029ed430f0672f545491b1e25742f6c92ff9b76dff78826b29bfb667ac07aaac00000000"
    }
  ]
}