{
  "hash": "0000000077b4c660a460efea7a851250eebc5040d9b4759c71b7e896f8dc974f",
  "confirmations": 43811,
  "height": 9287,
  "version": 1,
  "versionHex": "00000001",
  "merkleroot": "f4ed809b897f6a5639eb81eff408d6d6f1b10b90f3e778eefddd482ba6580cf4",
  "time": 1238463765,
  "mediantime": 1238459615,
  "nonce": 3950914336,
  "bits": "1d00ffff",
  "difficulty": 1,
  "chainwork": "0000000000000000000000000000000000000000000000000000244824482448",
  "nTx": 1,
  "previousblockhash": "00000000516e4909d43e0197116b71173c2e5d1097cfa7bcff2754449c690847",
  "nextblockhash": "0000000035e94598de6570831e3401cc581c0b2aba1a0bb8af47ddf0b7788c19",
  "strippedsize": 216,
  "size": 216,
  "weight": 864,
  "tx": [
    {
      "txid": "f4ed809b897f6a5639eb81eff408d6d6f1b10b90f3e778eefddd482ba6580cf4",
      "hash": "f4ed809b897f6a5639eb81eff408d6d6f1b10b90f3e778eefddd482ba6580cf4",
      "version": 1,
      "size": 135,
      "vsize": 135,
      "weight": 540,
      "locktime": 0,
      "vin": [
        {
          "coinbase": "04ffff001d029001",
          "sequence": 4294967295
        }
      ],
      "vout": [
        {
          "value": 50.0,
          "n": 0,
          "scriptPubKey": {
            "asm": "04c3938a83c12dcf6fd8450079269419e946ec26669cb9d1925af2d2b33e659e1e7c95a4be6b47e8d9955eca1435cc4cabd52753430e11f6bbf17574b29fbc7164 OP_CHECKSIG",
            "desc": "pk(04c3938a83c12dcf6fd8450079269419e946ec26669cb9d1925af2d2b33e659e1e7c95a4be6b47e8d9955eca1435cc4cabd52753430e11f6bbf17574b29fbc7164)#ct0psalm",
            "hex": "4104c3938a83c12dcf6fd8450079269419e946ec26669cb9d1925af2d2b33e659e1e7c95a4be6b47e8d9955eca1435cc4cabd52753430e11f6bbf17574b29fbc7164ac",
            "type": "pubkey"
          }
        }
      ],
      "hex": "01000000010000000000000000000000000000000000000000000000000000000000000000ffffffff0804ffff001d029001ffffffff0100f2052a01000000434104c3938a83c12dcf6fd8450079269419e946ec26669cb9d1925af2d2b33e659e1e7c95a4be6b47e8d9955eca1435cc4cabd52753430e11f6bbf17574b29fbc7164ac00000000"
    }
  ]
}