{
  "hash": "00000000336d019f0ed240b52f597d86f2104095307e8386d53f34e779056456",
  "confirmations": 46139,
  "height": 6959,
  "version": 1,
  "versionHex": "00000001",
  "merkleroot": "8a4e582e3fa4ff602721caeed8c95e164491ebbbcfe1990ea9e22839eb449eb0",
  "time": 1236687021,
  "mediantime": 1236683703,
  "nonce": 1193280776,
  "bits": "1d00ffff",
  "difficulty": 1,
  "chainwork": "00000000000000000000000000000000000000000000000000001b301b301b30",
  "nTx": 1,
  "previousblockhash": "00000000dbc35f72e6cd66cef162d287a04552019dfeebb9b859d4637daa12d1",
  "nextblockhash": "000000009122abec0ff964ce5fd87322f621aa8d02a5f501b29c74ef66dfa178",
  "strippedsize": 216,
  "size": 216,
  "weight": 864,
  "tx": [
    {
      "txid": "8a4e582e3fa4ff602721caeed8c95e164491ebbbcfe1990ea9e22839eb449eb0",
      "hash": "8a4e582e3fa4ff602721caeed8c95e164491ebbbcfe1990ea9e22839eb449eb0",
      "version": 1,
      "size": 135,
      "vsize": 135,
      "weight": 540,
      "locktime": 0,
      "vin": [
        {
          "coinbase": "04ffff001d028b01",
          "sequence": 4294967295
        }
      ],
      "vout": [
        {
          "value": 50.0,
          "n": 0,
          "scriptPubKey": {
            "asm": "0416efca52b1122507dafc40b1414b5523432c0af62ed3cf8f85426f1d38399cc87b73e4bf907988c18ee5499e84817c1bdf4d7d6d2a1d5699496a9437973c37db OP_CHECKSIG",
            "desc": "pk(0416efca52b1122507dafc40b1414b5523432c0af62ed3cf8f85426f1d38399cc87b73e4bf907988c18ee5499e84817c1bdf4d7d6d2a1d5699496a9437973c37db)#f3s4hw7x",
            "hex": "410416efca52b1122507dafc40b1414b5523432c0af62ed3cf8f85426f1d38399cc87b73e4bf907988c18ee5499e84817c1bdf4d7d6d2a1d5699496a9437973c37dbac",
            "type": "pubkey"
          }
        }
      ],
      "hex": "01000000010000000000000000000000000000000000000000000000000000000000000000ffffffff0804ffff001d028b01ffffffff0100f2052a0100000043410416efca52b1122507dafc40b1414b5523432c0af62ed3cf8f85426f1d38399cc87b73e4bf907988c18ee5499e84817c1bdf4d7d6d2a1d5699496a9437973c37dbac00000000"
    }
  ]
}