{
  "hash": "00000000258c6a24c8301305ea8bbe86bc462c6775187cc3f380ac726ee4a03e",
  "confirmations": 51446,
  "height": 1652,
  "version": 1,
  "versionHex": "00000001",
  "merkleroot": "16f3c8897ff3b203aa3760734752c084baadeecc95caeed72441200babef9b0e",
  "time": 1232834181,
  "mediantime": 1232832150,
  "nonce": 86859076,
  "bits": "1d00ffff",
  "difficulty": 1,
  "chainwork": "0000000000000000000000000000000000000000000000000000067506750675",
  "nTx": 1,
  "previousblockhash": "000000001d31aee00267ea4b4814869ff1bff68492a920fefc6bbb80075c27e2",
  "nextblockhash": "000000005da52c5f43f857bea77d20d37645e875f7b6fed7f7da286059a93921",
  "strippedsize": 215,
  "size": 215,
  "weight": 860,
  "tx": [
    {
      "txid": "16f3c8897ff3b203aa3760734752c084baadeecc95caeed72441200babef9b0e",
      "hash": "16f3c8897ff3b203aa3760734752c084baadeecc95caeed72441200babef9b0e",
      "version": 1,
      "size": 134,
      "vsize": 134,
      "weight": 536,
      "locktime": 0,
      "vin": [
        {
          "coinbase": "04ffff001d0145",
          "sequence": 4294967295
        }
      ],
      "vout": [
        {
          "value": 50.0,
          "n": 0,
          "scriptPubKey": {
            "asm": "0477b167f5438813ec5055de36cbdb50a26112e3915602849d44d02ea749f6f97f4692dba5da7f701e1d818e8ecb5ba1f682f161a8772ae46d5c797263bcec7da9 OP_CHECKSIG",
            "desc": "pk(0477b167f5438813ec5055de36cbdb50a26112e3915602849d44d02ea749f6f97f4692dba5da7f701e1d818e8ecb5ba1f682f161a8772ae46d5c797263bcec7da9)#d2qrutks",
            "hex": "410477b167f5438813ec5055de36cbdb50a26112e3915602849d44d02ea749f6f97f4692dba5da7f701e1d818e8ecb5ba1f682f161a8772ae46d5c797263bcec7da9ac",
            "type": "pubkey"
          }
        }
      ],
      "hex": "01000000010000000000000000000000000000000000000000000000000000000000000000ffffffff0704ffff001d0145ffffffff0100f2052a0100000043410477b167f5438813ec5055de36cbdb50a26112e3915602849d44d02ea749f6f97f4692dba5da7f701e1d818e8ecb5ba1f682f161a8772ae46d5c797263bcec7da9ac00000000"
    }
  ]
}