{
  "hash": "00000000ee9b6376dab707bb146c445aedab4fc6518abf995acdb74ffb4be7ac",
  "confirmations": 52183,
  "height": 480,
  "version": 1,
  "versionHex": "00000001",
  "merkleroot": "fac56c7a1ba0252b7e32d792f0f3d16113800175e1dd493923a8bea5f3601596",
  "time": 1231955305,
  "mediantime": 1231951310,
  "nonce": 2329771544,
  "bits": "1d00ffff",
  "difficulty": 1,
  "chainwork": "000000000000000000000000000000000000000000000000000001e101e101e1",
  "nTx": 1,
  "previousblockhash": "00000000e2128d66b97e0b76b9fb06f58121e08b9b549a16411299dea3509cb3",
  "nextblockhash": "0000000086a40870d82307ba993f27e4f2485578bcf0d50a6baee40b9199806e",
  "strippedsize": 216,
  "size": 216,
  "weight": 864,
  "tx": [
    {
      "txid": "fac56c7a1ba0252b7e32d792f0f3d16113800175e1dd493923a8bea5f3601596",
      "hash": "fac56c7a1ba0252b7e32d792f0f3d16113800175e1dd493923a8bea5f3601596",
      "version": 1,
      "size": 135,
      "vsize": 135,
      "weight": 540,
      "locktime": 0,
      "vin": [
        {
          "coinbase": "04ffff001d022404",
          "sequence": 4294967295
        }
      ],
      "vout": [
        {
          "value": 50.0,
          "n": 0,
          "scriptPubKey": {
            "asm": "04149e4ca2ed08206de40f66c58fc820e1a4cfce8ebc4a8873585eb8e79b73d92b0807c7d1b3254301d81e99d50135f27f7b2f7afb4ae1ce953d9e267f02b4b50d OP_CHECKSIG",
            "desc": "pk(04149e4ca2ed08206de40f66c58fc820e1a4cfce8ebc4a8873585eb8e79b73d92b0807c7d1b3254301d81e99d50135f27f7b2f7afb4ae1ce953d9e267f02b4b50d)#p03lje3w",
            "hex": "4104149e4ca2ed08206de40f66c58fc820e1a4cfce8ebc4a8873585eb8e79b73d92b0807c7d1b3254301d81e99d50135f27f7b2f7afb4ae1ce953d9e267f02b4b50dac",
            "type": "pubkey"
          }
        }
      ],
      "hex": "01000000010000000000000000000000000000000000000000000000000000000000000000ffffffff0804ffff001d022404ffffffff0100f2052a01000000434104149e4ca2ed08206de40f66c58fc820e1a4cfce8ebc4a8873585eb8e79b73d92b0807c7d1b3254301d81e99d50135f27f7b2f7afb4ae1ce953d9e267f02b4b50dac00000000"
    }
  ]
}