{
  "hash": "0000000021d6c84f61db50efd6ea42c9787b9d53f25f1b7a78154c4a8bd42aa7",
  "confirmations": 43336,
  "height": 9762,
  "version": 1,
  "versionHex": "00000001",
  "merkleroot": "17676df03e3ef89068f684e980d8199727f2536853b46e989167f8a50a1a9f82",
  "time": 1238826752,
  "mediantime": 1238822574,
  "nonce": 103550490,
  "bits": "1d00ffff",
  "difficulty": 1,
  "chainwork": "0000000000000000000000000000000000000000000000000000262326232623",
  "nTx": 1,
  "previousblockhash": "00000000e011735719f2c8980eb2a76d6eab1024ffebe0773c4c1393360a5346",
  "nextblockhash": "00000000f36f858234eadbca4edf69d8f22393cfb4577534a2ec5e84113c410f",
  "strippedsize": 216,
  "size": 216,
  "weight": 864,
  "tx": [
    {
      "txid": "17676df03e3ef89068f684e980d8199727f2536853b46e989167f8a50a1a9f82",
      "hash": "17676df03e3ef89068f684e980d8199727f2536853b46e989167f8a50a1a9f82",
      "version": 1,
      "size": 135,
      "vsize": 135,
      "weight": 540,
      "locktime": 0,
      "vin": [
        {
          "coinbase": "04ffff001d02050a",
          "sequence": 4294967295
        }
      ],
      "vout": [
        {
          "value": 50.0,
          "n": 0,
          "scriptPubKey": {
            "asm": "04f5e2b49808821f309789370ae3514938cea21554c3792e26e88820dcb20a4dbdfed2f45d3b571892229b14c716a537d9c5ef4b307eea879bf1cac85ada84bc91 OP_CHECKSIG",
            "desc": "pk(04f5e2b49808821f309789370ae3514938cea21554c3792e26e88820dcb20a4dbdfed2f45d3b571892229b14c716a537d9c5ef4b307eea879bf1cac85ada84bc91)#7dhjcnvd",
            "hex": "4104f5e2b49808821f309789370ae3514938cea21554c3792e26e88820dcb20a4dbdfed2f45d3b571892229b14c716a537d9c5ef4b307eea879bf1cac85ada84bc91ac",
            "type": "pubkey"
          }
        }
      ],
      "hex": "01000000010000000000000000000000000000000000000000000000000000000000000000ffffffff0804ffff001d02050affffffff0100f2052a01000000434104f5e2b49808821f309789370ae3514938cea21554c3792e26e88820dcb20a4dbdfed2f45d3b571892229b14c716a537d9c5ef4b307eea879bf1cac85ada84bc91ac00000000"
    }
  ]
}