{
  "hash": "00000000aadccc32a63f45f0e82440cd77ace50b6535c6fd9b66cef77a6a4c75",
  "confirmations": 44332,
  "height": 8766,
  "version": 1,
  "versionHex": "00000001",
  "merkleroot": "cdf196494c39a31c8f006b9b595ae1344fa020ff9817dbc4f4cb515f4de8c392",
  "time": 1238074290,
  "mediantime": 1238071408,
  "nonce": 733761556,
  "bits": "1d00ffff",
  "difficulty": 1,
  "chainwork": "0000000000000000000000000000000000000000000000000000223f223f223f",
  "nTx": 1,
  "previousblockhash": "00000000a3227f2a250bacde81fc649d671697197d5094c8a4e5c67664306a6c",
  "nextblockhash": "00000000271b3f3bdfb6cc077990cfb6dc26c45dcda1c398159bf66eef14fb83",
  "strippedsize": 216,
  "size": 216,
  "weight": 864,
  "tx": [
    {
      "txid": "cdf196494c39a31c8f006b9b595ae1344fa020ff9817dbc4f4cb515f4de8c392",
      "hash": "cdf196494c39a31c8f006b9b595ae1344fa020ff9817dbc4f4cb515f4de8c392",
      "version": 1,
      "size": 135,
      "vsize": 135,
      "weight": 540,
      "locktime": 0,
      "vin": [
        {
          "coinbase": "04ffff001d020102",
          "sequence": 4294967295
        }
      ],
      "vout": [
        {
          "value": 50.0,
          "n": 0,
          "scriptPubKey": {
            "asm": "04dd1d82b0fc87f9823a08f1f6dc330464344d393caf105e3d5e5ce3999bb0dc667af8d4f3445b2e08297cc75bf2c5bbb37e5604db4c4c566d53c214d96d5dd300 OP_CHECKSIG",
            "desc": "pk(04dd1d82b0fc87f9823a08f1f6dc330464344d393caf105e3d5e5ce3999bb0dc667af8d4f3445b2e08297cc75bf2c5bbb37e5604db4c4c566d53c214d96d5dd300)#xt5fqqnj",
            "hex": "4104dd1d82b0fc87f9823a08f1f6dc330464344d393caf105e3d5e5ce3999bb0dc667af8d4f3445b2e08297cc75bf2c5bbb37e5604db4c4c566d53c214d96d5dd300ac",
            "type": "pubkey"
          }
        }
      ],
      "hex": "01000000010000000000000000000000000000000000000000000000000000000000000000ffffffff0804ffff001d020102ffffffff0100f2052a01000000434104dd1d82b0fc87f9823a08f1f6dc330464344d393caf105e3d5e5ce3999bb0dc667af8d4f3445b2e08297cc75bf2c5bbb37e5604db4c4c566d53c214d96d5dd300ac00000000"
    }
  ]
}