{
  "hash": "00000000b8ac4d358fa0a7d32a2c7a0dbf0cf7e6c369a009c3535e496c0b6b3a",
  "confirmations": 51162,
  "height": 1936,
  "version": 1,
  "versionHex": "00000001",
  "merkleroot": "df78963bd27d59e40c3a5091f12f49a6164096c2c1088206e905c440966f77c7",
  "time": 1232996393,
  "mediantime": 1232991559,
  "nonce": 19433144,
  "bits": "1d00ffff",
  "difficulty": 1,
  "chainwork": "0000000000000000000000000000000000000000000000000000079107910791",
  "nTx": 1,
  "previousblockhash": "000000000af7d285a4de23d3a44fa16decc6c90b03fd794ee5140aded45232f7",
  "nextblockhash": "0000000024b3acf0171e950d780d3db90f339aa3357252d375378e9427111c08",
  "strippedsize": 216,
  "size": 216,
  "weight": 864,
  "tx": [
    {
      "txid": "df78963bd27d59e40c3a5091f12f49a6164096c2c1088206e905c440966f77c7",
      "hash": "df78963bd27d59e40c3a5091f12f49a6164096c2c1088206e905c440966f77c7",
      "version": 1,
      "size": 135,
      "vsize": 135,
      "weight": 540,
      "locktime": 0,
      "vin": [
        {
          "coinbase": "04ffff001d027d04",
          "sequence": 4294967295
        }
      ],
      "vout": [
        {
          "value": 50.0,
          "n": 0,
          "scriptPubKey": {
            "asm": "04f1b88774800fd69a8b67774a2da9395ae1a14975957512274cb585c623e7e09ad9183a23016d5153a2d9e777f153eb51c8666efbdb413e6ed5c9b773cfca2671 OP_CHECKSIG",
            "desc": "pk(04f1b88774800fd69a8b67774a2da9395ae1a14975957512274cb585c623e7e09ad9183a23016d5153a2d9e777f153eb51c8666efbdb413e6ed5c9b773cfca2671)#kr58fmh6",
            "hex": "4104f1b88774800fd69a8b67774a2da9395ae1a14975957512274cb585c623e7e09ad9183a23016d5153a2d9e777f153eb51c8666efbdb413e6ed5c9b773cfca2671ac",
            "type": "pubkey"
          }
        }
      ],
      "hex": "01000000010000000000000000000000000000000000000000000000000000000000000000ffffffff0804ffff001d027d04ffffffff0100f2052a01000000434104f1b88774800fd69a8b67774a2da9395ae1a14975957512274cb585c623e7e09ad9183a23016d5153a2d9e777f153eb51c8666efbdb413e6ed5c9b773cfca2671ac00000000"
    }
  ]
}