{
  "hash": "000000002211ae09d76131041ec98b6834e5ccac370b3ee1b773a571880fd62a",
  "confirmations": 46311,
  "height": 6787,
  "version": 1,
  "versionHex": "00000001",
  "merkleroot": "10ee1b3fd5ea678751e64518f33c93c6d4bc725f8874019b8ed5709dea0b44f0",
  "time": 1236550334,
  "mediantime": 1236546630,
  "nonce": 205592028,
  "bits": "1d00ffff",
  "difficulty": 1,
  "chainwork": "00000000000000000000000000000000000000000000000000001a841a841a84",
  "nTx": 1,
  "previousblockhash": "00000000df61052e8f43f94592ab2488a5221306f5c7db778694ebba62e1d23a",
  "nextblockhash": "00000000095b6db047791627424c582acfd3f344767b80d6138fecc4f6d844b1",
  "strippedsize": 216,
  "size": 216,
  "weight": 864,
  "tx": [
    {
      "txid": "10ee1b3fd5ea678751e64518f33c93c6d4bc725f8874019b8ed5709dea0b44f0",
      "hash": "10ee1b3fd5ea678751e64518f33c93c6d4bc725f8874019b8ed5709dea0b44f0",
      "version": 1,
      "size": 135,
      "vsize": 135,
      "weight": 540,
      "locktime": 0,
      "vin": [
        {
          "coinbase": "04ffff001d024f0c",
          "sequence": 4294967295
        }
      ],
      "vout": [
        {
          "value": 50.0,
          "n": 0,
          "scriptPubKey": {
            "asm": "04f0bae73d2b6f21ae56de0245225ac9678d4945c2a5972bcaddc6229ed81e5b736e17868be3a4701317d99db84b8d32ab3230db686ea4749010f38635d64f00aa OP_CHECKSIG",
            "desc": "pk(04f0bae73d2b6f21ae56de0245225ac9678d4945c2a5972bcaddc6229ed81e5b736e17868be3a4701317d99db84b8d32ab3230db686ea4749010f38635d64f00aa)#yyexv5ys",
            "hex": "4104f0bae73d2b6f21ae56de0245225ac9678d4945c2a5972bcaddc6229ed81e5b736e17868be3a4701317d99db84b8d32ab3230db686ea4749010f38635d64f00aaac",
            "type": "pubkey"
          }
        }
      ],
      "hex": "01000000010000000000000000000000000000000000000000000000000000000000000000ffffffff0804ffff001d024f0cffffffff0100f2052a01000000434104f0bae73d2b6f21ae56de0245225ac9678d4945c2a5972bcaddc6229ed81e5b736e17868be3a4701317d99db84b8d32ab3230db686ea4749010f38635d64f00aaac00000000"
    }
  ]
}