{
  "hash": "00000000fc6277e0756dca8d31e33b9f2541ffc0fc1bd4a7a5e17fde998e4021",
  "confirmations": 45769,
  "height": 7329,
  "version": 1,
  "versionHex": "00000001",
  "merkleroot": "3e90cef8a353d81363e1f68aadc222148826aedca909a92cd2fc9c27c0c2278d",
  "time": 1236969536,
  "mediantime": 1236964659,
  "nonce": 3862610453,
  "bits": "1d00ffff",
  "difficulty": 1,
  "chainwork": "00000000000000000000000000000000000000000000000000001ca21ca21ca2",
  "nTx": 1,
  "previousblockhash": "0000000051fa1fdf351a2caaedfbf79912934561ab009b9ed6e287bf41299f9b",
  "nextblockhash": "00000000ae08d138a4c79e46621c213ae9aa0e495d71b4adefa3b7061d8438f0",
  "strippedsize": 216,
  "size": 216,
  "weight": 864,
  "tx": [
    {
      "txid": "3e90cef8a353d81363e1f68aadc222148826aedca909a92cd2fc9c27c0c2278d",
      "hash": "3e90cef8a353d81363e1f68aadc222148826aedca909a92cd2fc9c27c0c2278d",
      "version": 1,
      "size": 135,
      "vsize": 135,
      "weight": 540,
      "locktime": 0,
      "vin": [
        {
          "coinbase": "04ffff001d021308",
          "sequence": 4294967295
        }
      ],
      "vout": [
        {
          "value": 50.0,
          "n": 0,
          "scriptPubKey": {
            "asm": "0416188a0e8bda4f63cb493951fcc049c42c3b35418c8e32fc6cdee42c2f53c82d2533cd041c44d71b38ac4b23b5cee620c667eacdaf4956a1663971c6a339e7b0 OP_CHECKSIG",
            "desc": "pk(0416188a0e8bda4f63cb493951fcc049c42c3b35418c8e32fc6cdee42c2f53c82d2533cd041c44d71b38ac4b23b5cee620c667eacdaf4956a1663971c6a339e7b0)#fpr5xglm",
            "hex": "410416188a0e8bda4f63cb493951fcc049c42c3b35418c8e32fc6cdee42c2f53c82d2533cd041c44d71b38ac4b23b5cee620c667eacdaf4956a1663971c6a339e7b0ac",
            "type": "pubkey"
          }
        }
      ],
      "hex": "01000000010000000000000000000000000000000000000000000000000000000000000000ffffffff0804ffff001d021308ffffffff0100f2052a0100000043410416188a0e8bda4f63cb493951fcc049c42c3b35418c8e32fc6cdee42c2f53c82d2533cd041c44d71b38ac4b23b5cee620c667eacdaf4956a1663971c6a339e7b0ac00000000"
    }
  ]
}