{
  "hash": "0000000080fdfe6991556339df99174d2bd8b30613622726bebae82a87440096",
  "confirmations": 48023,
  "height": 5075,
  "version": 1,
  "versionHex": "00000001",
  "merkleroot": "2e1c035ef1cf4c9d10ae09b590c754ddb19499d1563dbdf401eb12b76b33e302",
  "time": 1235197695,
  "mediantime": 1235193510,
  "nonce": 545322896,
  "bits": "1d00ffff",
  "difficulty": 1,
  "chainwork": "000000000000000000000000000000000000000000000000000013d413d413d4",
  "nTx": 1,
  "previousblockhash": "000000002137b6e7d191f6ab9dd0dafa83b453a88ffd19b091f5f1c92b33cc34",
  "nextblockhash": "000000004fd009d894abe93f6fbbfd88ef9084dbbcad5b865eddc5d4f6ade142",
  "strippedsize": 216,
  "size": 216,
  "weight": 864,
  "tx": [
    {
      "txid": "2e1c035ef1cf4c9d10ae09b590c754ddb19499d1563dbdf401eb12b76b33e302",
      "hash": "2e1c035ef1cf4c9d10ae09b590c754ddb19499d1563dbdf401eb12b76b33e302",
      "version": 1,
      "size": 135,
      "vsize": 135,
      "weight": 540,
      "locktime": 0,
      "vin": [
        {
          "coinbase": "04ffff001d029c00",
          "sequence": 4294967295
        }
      ],
      "vout": [
        {
          "value": 50.0,
          "n": 0,
          "scriptPubKey": {
            "asm": "04ba1cb41d81db80fd9ab0822ff737e9172e74aa589c052b76524e6ec97db4274fafa79e7ffc06434c117928616abf83ee4d38302b5549b7e195bc3228dace67fd OP_CHECKSIG",
            "desc": "pk(04ba1cb41d81db80fd9ab0822ff737e9172e74aa589c052b76524e6ec97db4274fafa79e7ffc06434c117928616abf83ee4d38302b5549b7e195bc3228dace67fd)#rgdgppa0",
            "hex": "4104ba1cb41d81db80fd9ab0822ff737e9172e74aa589c052b76524e6ec97db4274fafa79e7ffc06434c117928616abf83ee4d38302b5549b7e195bc3228dace67fdac",
            "type": "pubkey"
          }
        }
      ],
      "hex": "01000000010000000000000000000000000000000000000000000000000000000000000000ffffffff0804ffff001d029c00ffffffff0100f2052a01000000434104ba1cb41d81db80fd9ab0822ff737e9172e74aa589c052b76524e6ec97db4274fafa79e7ffc06434c117928616abf83ee4d38302b5549b7e195bc3228dace67fdac00000000"
    }
  ]
}