{
  "hash": "0000000065aebd2a083094fe89216a6c350e59db077c8b5aae471014c8f54afa",
  "confirmations": 50811,
  "height": 2287,
  "version": 1,
  "versionHex": "00000001",
  "merkleroot": "fe2b05397616a24a0c36ed894842abff0798477ea45517a567653902482d8f08",
  "time": 1233272316,
  "mediantime": 1233268548,
  "nonce": 4110875171,
  "bits": "1d00ffff",
  "difficulty": 1,
  "chainwork": "000000000000000000000000000000000000000000000000000008f008f008f0",
  "nTx": 1,
  "previousblockhash": "000000001e77447f842ce3058379840fcff6a670567eda1a8f88186ef018b753",
  "nextblockhash": "00000000625bd7ce59366e8b19859e87e6021fabd2975e2cd4300419c8e1f72d",
  "strippedsize": 216,
  "size": 216,
  "weight": 864,
  "tx": [
    {
      "txid": "fe2b05397616a24a0c36ed894842abff0798477ea45517a567653902482d8f08",
      "hash": "fe2b05397616a24a0c36ed894842abff0798477ea45517a567653902482d8f08",
      "version": 1,
      "size": 135,
      "vsize": 135,
      "weight": 540,
      "locktime": 0,
      "vin": [
        {
          "coinbase": "04ffff001d028501",
          "sequence": 4294967295
        }
      ],
      "vout": [
        {
          "value": 50.0,
          "n": 0,
          "scriptPubKey": {
            "asm": "049cd3c1cf80b9fea60681112151998c5d7f5daab8af7dc70db9bbe775217700ab9b2804a5a570027bee4e75a9442e778becb8d19f58a64c5a4a4b0c6c882601ed OP_CHECKSIG",
            "desc": "pk(049cd3c1cf80b9fea60681112151998c5d7f5daab8af7dc70db9bbe775217700ab9b2804a5a570027bee4e75a9442e778becb8d19f58a64c5a4a4b0c6c882601ed)#a7epdgug",
            "hex": "41049cd3c1cf80b9fea60681112151998c5d7f5daab8af7dc70db9bbe775217700ab9b2804a5a570027bee4e75a9442e778becb8d19f58a64c5a4a4b0c6c882601edac",
            "type": "pubkey"
          }
        }
      ],
      "hex": "01000000010000000000000000000000000000000000000000000000000000000000000000ffffffff0804ffff001d028501ffffffff0100f2052a010000004341049cd3c1cf80b9fea60681112151998c5d7f5daab8af7dc70db9bbe775217700ab9b2804a5a570027bee4e75a9442e778becb8d19f58a64c5a4a4b0c6c882601edac00000000"
    }
  ]
}