{
  "hash": "00000000b46bb9d830499302bcf3e544e679897ab595531d98539a4593e5a849",
  "confirmations": 46517,
  "height": 6581,
  "version": 1,
  "versionHex": "00000001",
  "merkleroot": "247b93aa12df5b90c602b3cefdfb95d6bff4475eb05276772d9d5bc1aa66636e",
  "time": 1236389551,
  "mediantime": 1236385039,
  "nonce": 2409922836,
  "bits": "1d00ffff",
  "difficulty": 1,
  "chainwork": "000000000000000000000000000000000000000000000000000019b619b619b6",
  "nTx": 1,
  "previousblockhash": "00000000b5e64339fcaed867719bf17b4416839403deeeba1ec96ce5ea8c2929",
  "nextblockhash": "000000007fc54ccef03a1386155e5fd10229a80d592bd6b299064d1572635378",
  "strippedsize": 216,
  "size": 216,
  "weight": 864,
  "tx": [
    {
      "txid": "247b93aa12df5b90c602b3cefdfb95d6bff4475eb05276772d9d5bc1aa66636e",
      "hash": "247b93aa12df5b90c602b3cefdfb95d6bff4475eb05276772d9d5bc1aa66636e",
      "version": 1,
      "size": 135,
      "vsize": 135,
      "weight": 540,
      "locktime": 0,
      "vin": [
        {
          "coinbase": "04ffff001d02cc04",
          "sequence": 4294967295
        }
      ],
      "vout": [
        {
          "value": 50.0,
          "n": 0,
          "scriptPubKey": {
            "asm": "040e0c3bc0a6636f4e33f1e88f58b93b77d3804b0a2914b69077eab1321de0c29af820b6a97394f643f3453d0427345307fb90f9b0f3e61633d9736c42c5306743 OP_CHECKSIG",
            "desc": "pk(040e0c3bc0a6636f4e33f1e88f58b93b77d3804b0a2914b69077eab1321de0c29af820b6a97394f643f3453d0427345307fb90f9b0f3e61633d9736c42c5306743)#zsymj3nr",
            "hex": "41040e0c3bc0a6636f4e33f1e88f58b93b77d3804b0a2914b69077eab1321de0c29af820b6a97394f643f3453d0427345307fb90f9b0f3e61633d9736c42c5306743ac",
            "type": "pubkey"
          }
        }
      ],
      "hex": "01000000010000000000000000000000000000000000000000000000000000000000000000ffffffff0804ffff001d02cc04ffffffff0100f2052a010000004341040e0c3bc0a6636f4e33f1e88f58b93b77d3804b0a2914b69077eab1321de0c29af820b6a97394f643f3453d0427345307fb90f9b0f3e61633d9736c42c5306743ac00000000"
    }
  ]
}