{
  "hash": "000000001a483a866ad69445e03a31db4ed5a9ea3f1cfec388fc18092f242155",
  "confirmations": 52086,
  "height": 249,
  "version": 1,
  "versionHex": "00000001",
  "merkleroot": "b415569ce5c39e7397dbea33c02eb9c632cb22ed771b20be5bf0fd0e0256897d",
  "time": 1231791095,
  "mediantime": 1231787524,
  "nonce": 2215285783,
  "bits": "1d00ffff",
  "difficulty": 1,
  "chainwork": "000000000000000000000000000000000000000000000000000000fa00fa00fa",
  "nTx": 1,
  "previousblockhash": "00000000fb5b44edc7a1aa105075564a179d65506e2bd25f55f1629251d0f6b0",
  "nextblockhash": "000000004e833644bc7fb021abd3da831c64ec82bae73042cfa63923d47d3303",
  "strippedsize": 216,
  "size": 216,
  "weight": 864,
  "tx": [
    {
      "txid": "b415569ce5c39e7397dbea33c02eb9c632cb22ed771b20be5bf0fd0e0256897d",
      "hash": "b415569ce5c39e7397dbea33c02eb9c632cb22ed771b20be5bf0fd0e0256897d",
      "version": 1,
      "size": 135,
      "vsize": 135,
      "weight": 540,
      "locktime": 0,
      "vin": [
        {
          "coinbase": "04ffff001d021501",
          "sequence": 4294967295
        }
      ],
      "vout": [
        {
          "value": 50.0,
          "n": 0,
          "scriptPubKey": {
            "asm": "04cf28e086fa36ef2f5961a207725020bc8eccfdcba23099d7dc12ac161ee6e7374fe9990d944dcea987db56490c75836b227287ab076ebf06f804e7cb56bb7534 OP_CHECKSIG",
            "desc": "pk(04cf28e086fa36ef2f5961a207725020bc8eccfdcba23099d7dc12ac161ee6e7374fe9990d944dcea987db56490c75836b227287ab076ebf06f804e7cb56bb7534)#95pgkwmj",
            "hex": "4104cf28e086fa36ef2f5961a207725020bc8eccfdcba23099d7dc12ac161ee6e7374fe9990d944dcea987db56490c75836b227287ab076ebf06f804e7cb56bb7534ac",
            "type": "pubkey"
          }
        }
      ],
      "hex": "01000000010000000000000000000000000000000000000000000000000000000000000000ffffffff0804ffff001d021501ffffffff0100f2052a01000000434104cf28e086fa36ef2f5961a207725020bc8eccfdcba23099d7dc12ac161ee6e7374fe9990d944dcea987db56490c75836b227287ab076ebf06f804e7cb56bb7534ac00000000"
    }
  ]
}