{
  "hash": "000000004e0681c56296ec7b351243e40d17e7bcd90f4a1664266a95c5a1442a",
  "confirmations": 47249,
  "height": 5849,
  "version": 1,
  "versionHex": "00000001",
  "merkleroot": "67a250b5cda4f0c5e659b032cd50598df4d4a84eecb55d2a206d2603c3b7f5cf",
  "time": 1235800827,
  "mediantime": 1235795282,
  "nonce": 2523186462,
  "bits": "1d00ffff",
  "difficulty": 1,
  "chainwork": "000000000000000000000000000000000000000000000000000016da16da16da",
  "nTx": 1,
  "previousblockhash": "00000000526004111d4119e7986346e8fb5fc24619452dd5edf281ae63273287",
  "nextblockhash": "00000000cfaf10860f83364520541f536e50fa35cc0907592caf8e322e0fa7b3",
  "strippedsize": 216,
  "size": 216,
  "weight": 864,
  "tx": [
    {
      "txid": "67a250b5cda4f0c5e659b032cd50598df4d4a84eecb55d2a206d2603c3b7f5cf",
      "hash": "67a250b5cda4f0c5e659b032cd50598df4d4a84eecb55d2a206d2603c3b7f5cf",
      "version": 1,
      "size": 135,
      "vsize": 135,
      "weight": 540,
      "locktime": 0,
      "vin": [
        {
          "coinbase": "04ffff001d02cc01",
          "sequence": 4294967295
        }
      ],
      "vout": [
        {
          "value": 50.0,
          "n": 0,
          "scriptPubKey": {
            "asm": "04b2cd1b12f2a6bf6828c7d2b3b14620a4b999d1d00ba78409a2f292644c79215997af60e0d18f1d9cad32efc94e50698da90e2bc0596a61e50144cb91ee45b56b OP_CHECKSIG",
            "desc": "pk(04b2cd1b12f2a6bf6828c7d2b3b14620a4b999d1d00ba78409a2f292644c79215997af60e0d18f1d9cad32efc94e50698da90e2bc0596a61e50144cb91ee45b56b)#9mevgr4k",
            "hex": "4104b2cd1b12f2a6bf6828c7d2b3b14620a4b999d1d00ba78409a2f292644c79215997af60e0d18f1d9cad32efc94e50698da90e2bc0596a61e50144cb91ee45b56bac",
            "type": "pubkey"
          }
        }
      ],
      "hex": "01000000010000000000000000000000000000000000000000000000000000000000000000ffffffff0804ffff001d02cc01ffffffff0100f2052a01000000434104b2cd1b12f2a6bf6828c7d2b3b14620a4b999d1d00ba78409a2f292644c79215997af60e0d18f1d9cad32efc94e50698da90e2bc0596a61e50144cb91ee45b56bac00000000"
    }
  ]
}