{
  "hash": "000000005fc31e08cf3517f3ba151a111fdc4e68cdd06b8edb6de813a5f35f6a",
  "confirmations": 46024,
  "height": 7074,
  "version": 1,
  "versionHex": "00000001",
  "merkleroot": "8f63651feaa2c3f03957a019d8169c9967c6fd24c1c8ff0e3d7f004f4ba99420",
  "time": 1236774833,
  "mediantime": 1236772240,
  "nonce": 1357557302,
  "bits": "1d00ffff",
  "difficulty": 1,
  "chainwork": "00000000000000000000000000000000000000000000000000001ba31ba31ba3",
  "nTx": 1,
  "previousblockhash": "00000000bf12733f77886692fbedc933453bda332d3191d78fd3cbb228bcb2b7",
  "nextblockhash": "0000000035d7911d79ad1167526cdb88e653c106f93ff471a56182426db79bdc",
  "strippedsize": 216,
  "size": 216,
  "weight": 864,
  "tx": [
    {
      "txid": "8f63651feaa2c3f03957a019d8169c9967c6fd24c1c8ff0e3d7f004f4ba99420",
      "hash": "8f63651feaa2c3f03957a019d8169c9967c6fd24c1c8ff0e3d7f004f4ba99420",
      "version": 1,
      "size": 135,
      "vsize": 135,
      "weight": 540,
      "locktime": 0,
      "vin": [
        {
          "coinbase": "04ffff001d026603",
          "sequence": 4294967295
        }
      ],
      "vout": [
        {
          "value": 50.0,
          "n": 0,
          "scriptPubKey": {
            "asm": "0441892f56cda507358a3983abba5f470a191ce7eb159b69afd12760800eb3f9acb147ff2c8507f8169c2d5ab82f609580d6878917b38656a33aaf8586409ddbd9 OP_CHECKSIG",
            "desc": "pk(0441892f56cda507358a3983abba5f470a191ce7eb159b69afd12760800eb3f9acb147ff2c8507f8169c2d5ab82f609580d6878917b38656a33aaf8586409ddbd9)#85kxnhh0",
            "hex": "410441892f56cda507358a3983abba5f470a191ce7eb159b69afd12760800eb3f9acb147ff2c8507f8169c2d5ab82f609580d6878917b38656a33aaf8586409ddbd9ac",
            "type": "pubkey"
          }
        }
      ],
      "hex": "01000000010000000000000000000000000000000000000000000000000000000000000000ffffffff0804ffff001d026603ffffffff0100f2052a0100000043410441892f56cda507358a3983abba5f470a191ce7eb159b69afd12760800eb3f9acb147ff2c8507f8169c2d5ab82f609580d6878917b38656a33aaf8586409ddbd9ac00000000"
    }
  ]
}