{
  "hash": "00000000b26a3295d00933c2aaa73bca19a3b643b0ad9c72545592527d10aa91",
  "confirmations": 49944,
  "height": 3154,
  "version": 1,
  "versionHex": "00000001",
  "merkleroot": "37c3d6943a311c2abcf5ded64baaccfb135e087f7f27e802fc50482ddf8b55a7",
  "time": 1233869554,
  "mediantime": 1233866152,
  "nonce": 70434989,
  "bits": "1d00ffff",
  "difficulty": 1,
  "chainwork": "00000000000000000000000000000000000000000000000000000c530c530c53",
  "nTx": 1,
  "previousblockhash": "0000000092a762e2e74308fc7d649a52e8b60455d10429b417be16adf005c13d",
  "nextblockhash": "00000000652c66e45a2ca664d646231dc932583f7a3291753d9308ef5b4c19a1",
  "strippedsize": 215,
  "size": 215,
  "weight": 860,
  "tx": [
    {
      "txid": "37c3d6943a311c2abcf5ded64baaccfb135e087f7f27e802fc50482ddf8b55a7",
      "hash": "37c3d6943a311c2abcf5ded64baaccfb135e087f7f27e802fc50482ddf8b55a7",
      "version": 1,
      "size": 134,
      "vsize": 134,
      "weight": 536,
      "locktime": 0,
      "vin": [
        {
          "coinbase": "04ffff001d013e",
          "sequence": 4294967295
        }
      ],
      "vout": [
        {
          "value": 50.0,
          "n": 0,
          "scriptPubKey": {
            "asm": "044e30008af7a12f519b888f35cfa627c4e1de508e43d1a238e352c66cd966f2246dcb63c38a7c327d3d5ebd7c7e6e0fa204ec82272004c1dbf2131413cb4b4d35 OP_CHECKSIG",
            "desc": "pk(044e30008af7a12f519b888f35cfa627c4e1de508e43d1a238e352c66cd966f2246dcb63c38a7c327d3d5ebd7c7e6e0fa204ec82272004c1dbf2131413cb4b4d35)#aydps5cj",
            "hex": "41044e30008af7a12f519b888f35cfa627c4e1de508e43d1a238e352c66cd966f2246dcb63c38a7c327d3d5ebd7c7e6e0fa204ec82272004c1dbf2131413cb4b4d35ac",
            "type": "pubkey"
          }
        }
      ],
      "hex": "01000000010000000000000000000000000000000000000000000000000000000000000000ffffffff0704ffff001d013effffffff0100f2052a010000004341044e30008af7a12f519b888f35cfa627c4e1de508e43d1a238e352c66cd966f2246dcb63c38a7c327d3d5ebd7c7e6e0fa204ec82272004c1dbf2131413cb4b4d35ac00000000"
    }
  ]
}