{
  "hash": "00000000a9c7b58df891736322b516799232e8c7006fab25255a871e00808561",
  "confirmations": 46759,
  "height": 6339,
  "version": 1,
  "versionHex": "00000001",
  "merkleroot": "7379dcca7976fa0b38c3ac1e2b4c74bd87a319d79423aec0d031aa9bcb5de8b6",
  "time": 1236204307,
  "mediantime": 1236200884,
  "nonce": 3775908102,
  "bits": "1d00ffff",
  "difficulty": 1,
  "chainwork": "000000000000000000000000000000000000000000000000000018c418c418c4",
  "nTx": 1,
  "previousblockhash": "00000000075ef619e95ee0ce9f508d0ba39fcf57b644f444d5699d9560c8995d",
  "nextblockhash": "00000000efd2d97de7c773f03ccda887ffd5e86b1290be4ded356a25147a0a0f",
  "strippedsize": 216,
  "size": 216,
  "weight": 864,
  "tx": [
    {
      "txid": "7379dcca7976fa0b38c3ac1e2b4c74bd87a319d79423aec0d031aa9bcb5de8b6",
      "hash": "7379dcca7976fa0b38c3ac1e2b4c74bd87a319d79423aec0d031aa9bcb5de8b6",
      "version": 1,
      "size": 135,
      "vsize": 135,
      "weight": 540,
      "locktime": 0,
      "vin": [
        {
          "coinbase": "04ffff001d02a600",
          "sequence": 4294967295
        }
      ],
      "vout": [
        {
          "value": 50.0,
          "n": 0,
          "scriptPubKey": {
            "asm": "042c76b35c8d6bad3bfada707654f4e0c5603e3219cc8888ecc3691e1e69ffda35d9a6e4ce67512df351bdd86e245ae25226a402033f95ee6d27e2cddebf227729 OP_CHECKSIG",
            "desc": "pk(042c76b35c8d6bad3bfada707654f4e0c5603e3219cc8888ecc3691e1e69ffda35d9a6e4ce67512df351bdd86e245ae25226a402033f95ee6d27e2cddebf227729)#ty6u32tq",
            "hex": "41042c76b35c8d6bad3bfada707654f4e0c5603e3219cc8888ecc3691e1e69ffda35d9a6e4ce67512df351bdd86e245ae25226a402033f95ee6d27e2cddebf227729ac",
            "type": "pubkey"
          }
        }
      ],
      "hex": "01000000010000000000000000000000000000000000000000000000000000000000000000ffffffff0804ffff001d02a600ffffffff0100f2052a010000004341042c76b35c8d6bad3bfada707654f4e0c5603e3219cc8888ecc3691e1e69ffda35d9a6e4ce67512df351bdd86e245ae25226a402033f95ee6d27e2cddebf227729ac00000000"
    }
  ]
}