{
  "hash": "000000000c6055a27271753713a01cf4d039bde8378e3ea82400a3467ecb4f89",
  "confirmations": 45446,
  "height": 7652,
  "version": 1,
  "versionHex": "00000001",
  "merkleroot": "f7aa2e204b9bb1a53075e0af93a7ba0e0d4a9fc18bf8967e23f8832d74f77f1c",
  "time": 1237203381,
  "mediantime": 1237200953,
  "nonce": 72311626,
  "bits": "1d00ffff",
  "difficulty": 1,
  "chainwork": "00000000000000000000000000000000000000000000000000001de51de51de5",
  "nTx": 1,
  "previousblockhash": "0000000000f4560350f9ca6adfe15b05fd4d06389f32b7a3b7ec2fcc85fae341",
  "nextblockhash": "00000000f5ae4cbc8185c894f38b43f5cc132b597e97a766b83422ccf50e3ec3",
  "strippedsize": 216,
  "size": 216,
  "weight": 864,
  "tx": [
    {
      "txid": "f7aa2e204b9bb1a53075e0af93a7ba0e0d4a9fc18bf8967e23f8832d74f77f1c",
      "hash": "f7aa2e204b9bb1a53075e0af93a7ba0e0d4a9fc18bf8967e23f8832d74f77f1c",
      "version": 1,
      "size": 135,
      "vsize": 135,
      "weight": 540,
      "locktime": 0,
      "vin": [
        {
          "coinbase": "04ffff001d025402",
          "sequence": 4294967295
        }
      ],
      "vout": [
        {
          "value": 50.0,
          "n": 0,
          "scriptPubKey": {
            "asm": "04ed0b921c463407e2b87120075cfbc1f54c934c6acf1e36dab37f09afba16ff645fb9db6d735dec292dbd79ee61e51c310029f07a37f6d6707e31e68883b16c06 OP_CHECKSIG",
            "desc": "pk(04ed0b921c463407e2b87120075cfbc1f54c934c6acf1e36dab37f09afba16ff645fb9db6d735dec292dbd79ee61e51c310029f07a37f6d6707e31e68883b16c06)#540h637u",
            "hex": "4104ed0b921c463407e2b87120075cfbc1f54c934c6acf1e36dab37f09afba16ff645fb9db6d735dec292dbd79ee61e51c310029f07a37f6d6707e31e68883b16c06ac",
            "type": "pubkey"
          }
        }
      ],
      "hex": "01000000010000000000000000000000000000000000000000000000000000000000000000ffffffff0804ffff001d025402ffffffff0100f2052a01000000434104ed0b921c463407e2b87120075cfbc1f54c934c6acf1e36dab37f09afba16ff645fb9db6d735dec292dbd79ee61e51c310029f07a37f6d6707e31e68883b16c06ac00000000"
    }
  ]
}