{
  "hash": "00000000cec0b218145a7f68b9a0c50b09b4c6432c7e23e3fe62c9113980fd71",
  "confirmations": 50366,
  "height": 2732,
  "version": 1,
  "versionHex": "00000001",
  "merkleroot": "a61b69d4aff6a4d66ac17b3c20164ddc261d236c6d8dac74fd37f6f504a4299e",
  "time": 1233585579,
  "mediantime": 1233582954,
  "nonce": 538817287,
  "bits": "1d00ffff",
  "difficulty": 1,
  "chainwork": "00000000000000000000000000000000000000000000000000000aad0aad0aad",
  "nTx": 1,
  "previousblockhash": "000000002720171a25a22889ee7d4f33538b927a262e8d617523d448fe8ad794",
  "nextblockhash": "000000003f9bd4136dcac864ed9b2c442fb5f30e6710fe309a650983739a4706",
  "strippedsize": 216,
  "size": 216,
  "weight": 864,
  "tx": [
    {
      "txid": "a61b69d4aff6a4d66ac17b3c20164ddc261d236c6d8dac74fd37f6f504a4299e",
      "hash": "a61b69d4aff6a4d66ac17b3c20164ddc261d236c6d8dac74fd37f6f504a4299e",
      "version": 1,
      "size": 135,
      "vsize": 135,
      "weight": 540,
      "locktime": 0,
      "vin": [
        {
          "coinbase": "04ffff001d023f05",
          "sequence": 4294967295
        }
      ],
      "vout": [
        {
          "value": 50.0,
          "n": 0,
          "scriptPubKey": {
            "asm": "0414d5f4aa4f472adbeb4fd4d639358b6a2788f34d7bf8fc5bf66b869ad834fd4aa52c16321cda6318ea43d259247476673ba6950d1f12668711e9def7fbffc6c3 OP_CHECKSIG",
            "desc": "pk(0414d5f4aa4f472adbeb4fd4d639358b6a2788f34d7bf8fc5bf66b869ad834fd4aa52c16321cda6318ea43d259247476673ba6950d1f12668711e9def7fbffc6c3)#mvmy0ajg",
            "hex": "410414d5f4aa4f472adbeb4fd4d639358b6a2788f34d7bf8fc5bf66b869ad834fd4aa52c16321cda6318ea43d259247476673ba6950d1f12668711e9def7fbffc6c3ac",
            "type": "pubkey"
          }
        }
      ],
      "hex": "01000000010000000000000000000000000000000000000000000000000000000000000000ffffffff0804ffff001d023f05ffffffff0100f2052a0100000043410414d5f4aa4f472adbeb4fd4d639358b6a2788f34d7bf8fc5bf66b869ad834fd4aa52c16321cda6318ea43d259247476673ba6950d1f12668711e9def7fbffc6c3ac00000000"
    }
  ]
}