{
  "hash": "0000000018844c2a38f9ff9e018ba5ef9e02780b8d6fe3ce63fd4a6136633ed7",
  "confirmations": 52158,
  "height": 382,
  "version": 1,
  "versionHex": "00000001",
  "merkleroot": "20ace51d65bf8324c4f7861eb3521d26732fba1f8a2c9d30b50462c2e8cd8796",
  "time": 1231888319,
  "mediantime": 1231884950,
  "nonce": 170671674,
  "bits": "1d00ffff",
  "difficulty": 1,
  "chainwork": "0000000000000000000000000000000000000000000000000000017f017f017f",
  "nTx": 1,
  "previousblockhash": "00000000539376ba9a1b68e9b803ce7ae280bfbaa0eb62fc462126a6d07feec3",
  "nextblockhash": "000000002f10da7a6a0c302a3a800722764a863e32fa1730cafacce35cb023b8",
  "strippedsize": 216,
  "size": 216,
  "weight": 864,
  "tx": [
    {
      "txid": "20ace51d65bf8324c4f7861eb3521d26732fba1f8a2c9d30b50462c2e8cd8796",
      "hash": "20ace51d65bf8324c4f7861eb3521d26732fba1f8a2c9d30b50462c2e8cd8796",
      "version": 1,
      "size": 135,
      "vsize": 135,
      "weight": 540,
      "locktime": 0,
      "vin": [
        {
          "coinbase": "04ffff001d021702",
          "sequence": 4294967295
        }
      ],
      "vout": [
        {
          "value": 50.0,
          "n": 0,
          "scriptPubKey": {
            "asm": "043f9bf44ca4a2be0ff065e9d5c1f1010e702c9b6d5581e3410a0b620e9b78320c818934b74e118d7af01409cb708322045da362509e66903b9ee8bfae4364d336 OP_CHECKSIG",
            "desc": "pk(043f9bf44ca4a2be0ff065e9d5c1f1010e702c9b6d5581e3410a0b620e9b78320c818934b74e118d7af01409cb708322045da362509e66903b9ee8bfae4364d336)#6spasvh9",
            "hex": "41043f9bf44ca4a2be0ff065e9d5c1f1010e702c9b6d5581e3410a0b620e9b78320c818934b74e118d7af01409cb708322045da362509e66903b9ee8bfae4364d336ac",
            "type": "pubkey"
          }
        }
      ],
      "hex": "01000000010000000000000000000000000000000000000000000000000000000000000000ffffffff0804ffff001d021702ffffffff0100f2052a010000004341043f9bf44ca4a2be0ff065e9d5c1f1010e702c9b6d5581e3410a0b620e9b78320c818934b74e118d7af01409cb708322045da362509e66903b9ee8bfae4364d336ac00000000"
    }
  ]
}