{
  "hash": "000000005844a754a5040a46b1fafc21d245446652e010f878bee8a5e5b5fabd",
  "confirmations": 48174,
  "height": 4924,
  "version": 1,
  "versionHex": "00000001",
  "merkleroot": "6b884fd06a0e2465b41aa74c66d87ad4067963047d8ad560dcbf9be8921e14db",
  "time": 1235086022,
  "mediantime": 1235083317,
  "nonce": 132498209,
  "bits": "1d00ffff",
  "difficulty": 1,
  "chainwork": "0000000000000000000000000000000000000000000000000000133d133d133d",
  "nTx": 1,
  "previousblockhash": "000000009417874accc99f06451effdbf7378093fd6fc85d726fff584fca013a",
  "nextblockhash": "00000000f8dc3d57135d86bd5e82957e07ab709eab5dc965fb4385714c77a182",
  "strippedsize": 215,
  "size": 215,
  "weight": 860,
  "tx": [
    {
      "txid": "6b884fd06a0e2465b41aa74c66d87ad4067963047d8ad560dcbf9be8921e14db",
      "hash": "6b884fd06a0e2465b41aa74c66d87ad4067963047d8ad560dcbf9be8921e14db",
      "version": 1,
      "size": 134,
      "vsize": 134,
      "weight": 536,
      "locktime": 0,
      "vin": [
        {
          "coinbase": "04ffff001d010c",
          "sequence": 4294967295
        }
      ],
      "vout": [
        {
          "value": 50.0,
          "n": 0,
          "scriptPubKey": {
            "asm": "04a864b2573d9fd2539788ab042894cf1d17333703425add7dbf7b3793b1639e749dc0779fc8fb707846a2d94838fcd17bced08b12172255e65948453ed9a4cd16 OP_CHECKSIG",
            "desc": "pk(04a864b2573d9fd2539788ab042894cf1d17333703425add7dbf7b3793b1639e749dc0779fc8fb707846a2d94838fcd17bced08b12172255e65948453ed9a4cd16)#lvaj85ae",
            "hex": "4104a864b2573d9fd2539788ab042894cf1d17333703425add7dbf7b3793b1639e749dc0779fc8fb707846a2d94838fcd17bced08b12172255e65948453ed9a4cd16ac",
            "type": "pubkey"
          }
        }
      ],
      "hex": "01000000010000000000000000000000000000000000000000000000000000000000000000ffffffff0704ffff001d010cffffffff0100f2052a01000000434104a864b2573d9fd2539788ab042894cf1d17333703425add7dbf7b3793b1639e749dc0779fc8fb707846a2d94838fcd17bced08b12172255e65948453ed9a4cd16ac00000000"
    }
  ]
}