{
  "hash": "0000000057842005e176a8bef2bd36adcf8429afd370194d23736d192467ba0f",
  "confirmations": 45549,
  "height": 7549,
  "version": 1,
  "versionHex": "00000001",
  "merkleroot": "a1cace1800728da770737188544ee4af9cfc89d6db32af64f10e37f8ee647647",
  "time": 1237135050,
  "mediantime": 1237132390,
  "nonce": 362943241,
  "bits": "1d00ffff",
  "difficulty": 1,
  "chainwork": "00000000000000000000000000000000000000000000000000001d7e1d7e1d7e",
  "nTx": 1,
  "previousblockhash": "000000002b4467a597c262e404848237c9a7aa92d59ab9d2ba9568e537cf60f0",
  "nextblockhash": "00000000b7a2deae3c85fdf5944465bedb6fc297885142cb7e45da9c1ba25305",
  "strippedsize": 216,
  "size": 216,
  "weight": 864,
  "tx": [
    {
      "txid": "a1cace1800728da770737188544ee4af9cfc89d6db32af64f10e37f8ee647647",
      "hash": "a1cace1800728da770737188544ee4af9cfc89d6db32af64f10e37f8ee647647",
      "version": 1,
      "size": 135,
      "vsize": 135,
      "weight": 540,
      "locktime": 0,
      "vin": [
        {
          "coinbase": "04ffff001d02e801",
          "sequence": 4294967295
        }
      ],
      "vout": [
        {
          "value": 50.0,
          "n": 0,
          "scriptPubKey": {
            "asm": "04d0f16ce5b73d9c638fec3df8e89dca31a5ae9b8af8a9d00fd4f4dd0b8561ab843a4f934bab038610c8913ba21c1820a01fd6c7563f7c73dcbaafa2f495371a95 OP_CHECKSIG",
            "desc": "pk(04d0f16ce5b73d9c638fec3df8e89dca31a5ae9b8af8a9d00fd4f4dd0b8561ab843a4f934bab038610c8913ba21c1820a01fd6c7563f7c73dcbaafa2f495371a95)#5exjzjmw",
            "hex": "4104d0f16ce5b73d9c638fec3df8e89dca31a5ae9b8af8a9d00fd4f4dd0b8561ab843a4f934bab038610c8913ba21c1820a01fd6c7563f7c73dcbaafa2f495371a95ac",
            "type": "pubkey"
          }
        }
      ],
      "hex": "01000000010000000000000000000000000000000000000000000000000000000000000000ffffffff0804ffff001d02e801ffffffff0100f2052a01000000434104d0f16ce5b73d9c638fec3df8e89dca31a5ae9b8af8a9d00fd4f4dd0b8561ab843a4f934bab038610c8913ba21c1820a01fd6c7563f7c73dcbaafa2f495371a95ac00000000"
    }
  ]
}