{
  "hash": "00000000b4faa2facc1e5f54978b5c4cc770457d0ce921ac7c8a45d766e0858a",
  "confirmations": 52111,
  "height": 367,
  "version": 1,
  "versionHex": "00000001",
  "merkleroot": "c0ec5046f2616b7562fcd2b0b9bcbad187486bae9448dc6b49362175b3a1c5ef",
  "time": 1231877248,
  "mediantime": 1231873610,
  "nonce": 164959020,
  "bits": "1d00ffff",
  "difficulty": 1,
  "chainwork": "0000000000000000000000000000000000000000000000000000017001700170",
  "nTx": 1,
  "previousblockhash": "000000009342a7b5d434088a48d94dc05ca2b8543f11d8042c4fa2a32f3cfad5",
  "nextblockhash": "0000000023ead2b9fd8c909248a60bd63b0edca44c10c8a267548f9a6ae9f1b8",
  "strippedsize": 216,
  "size": 216,
  "weight": 864,
  "tx": [
    {
      "txid": "c0ec5046f2616b7562fcd2b0b9bcbad187486bae9448dc6b49362175b3a1c5ef",
      "hash": "c0ec5046f2616b7562fcd2b0b9bcbad187486bae9448dc6b49362175b3a1c5ef",
      "version": 1,
      "size": 135,
      "vsize": 135,
      "weight": 540,
      "locktime": 0,
      "vin": [
        {
          "coinbase": "04ffff001d02ce01",
          "sequence": 4294967295
        }
      ],
      "vout": [
        {
          "value": 50.0,
          "n": 0,
          "scriptPubKey": {
            "asm": "04fb49018b6f5d4b8d1731cd01f2af6ea25d1624a7e5af952762346e58c50de7060ee045098ab3e7540fcfddbd442e39167c6f2eaf89ef4637faf2e87c6d2b9d4f OP_CHECKSIG",
            "desc": "pk(04fb49018b6f5d4b8d1731cd01f2af6ea25d1624a7e5af952762346e58c50de7060ee045098ab3e7540fcfddbd442e39167c6f2eaf89ef4637faf2e87c6d2b9d4f)#wxnqxk60",
            "hex": "4104fb49018b6f5d4b8d1731cd01f2af6ea25d1624a7e5af952762346e58c50de7060ee045098ab3e7540fcfddbd442e39167c6f2eaf89ef4637faf2e87c6d2b9d4fac",
            "type": "pubkey"
          }
        }
      ],
      "hex": "01000000010000000000000000000000000000000000000000000000000000000000000000ffffffff0804ffff001d02ce01ffffffff0100f2052a01000000434104fb49018b6f5d4b8d1731cd01f2af6ea25d1624a7e5af952762346e58c50de7060ee045098ab3e7540fcfddbd442e39167c6f2eaf89ef4637faf2e87c6d2b9d4fac00000000"
    }
  ]
}