{
  "hash": "00000000193023fe6dc52135f5babcccfc242b6a8b45836f55045b9b58dd81b5",
  "confirmations": 43678,
  "height": 9420,
  "version": 1,
  "versionHex": "00000001",
  "merkleroot": "e6878ccea5b8191151c5a3697e4f1c14c6ee979fe015f47edc288f9fb37def4d",
  "time": 1238568641,
  "mediantime": 1238564727,
  "nonce": 957832484,
  "bits": "1d00ffff",
  "difficulty": 1,
  "chainwork": "000000000000000000000000000000000000000000000000000024cd24cd24cd",
  "nTx": 1,
  "previousblockhash": "00000000c8d976c960be031128b9e71485c2376b230c73c71af7af6f91b3642d",
  "nextblockhash": "00000000f6137280c0651f47875d46fe828cf47ff6c4a102cbb7468592692a25",
  "strippedsize": 216,
  "size": 216,
  "weight": 864,
  "tx": [
    {
      "txid": "e6878ccea5b8191151c5a3697e4f1c14c6ee979fe015f47edc288f9fb37def4d",
      "hash": "e6878ccea5b8191151c5a3697e4f1c14c6ee979fe015f47edc288f9fb37def4d",
      "version": 1,
      "size": 135,
      "vsize": 135,
      "weight": 540,
      "locktime": 0,
      "vin": [
        {
          "coinbase": "04ffff001d02f903",
          "sequence": 4294967295
        }
      ],
      "vout": [
        {
          "value": 50.0,
          "n": 0,
          "scriptPubKey": {
            "asm": "04e387dfbd7c58a827532fb5ebc604839b113f5cda5f8520160faa54c5e1d9aa3e4c80499c74f1912e534900d0605316ade88bb6d869d861c38b0c8d1e66744872 OP_CHECKSIG",
            "desc": "pk(04e387dfbd7c58a827532fb5ebc604839b113f5cda5f8520160faa54c5e1d9aa3e4c80499c74f1912e534900d0605316ade88bb6d869d861c38b0c8d1e66744872)#s0t8cynz",
            "hex": "4104e387dfbd7c58a827532fb5ebc604839b113f5cda5f8520160faa54c5e1d9aa3e4c80499c74f1912e534900d0605316ade88bb6d869d861c38b0c8d1e66744872ac",
            "type": "pubkey"
          }
        }
      ],
      "hex": "01000000010000000000000000000000000000000000000000000000000000000000000000ffffffff0804ffff001d02f903ffffffff0100f2052a01000000434104e387dfbd7c58a827532fb5ebc604839b113f5cda5f8520160faa54c5e1d9aa3e4c80499c74f1912e534900d0605316ade88bb6d869d861c38b0c8d1e66744872ac00000000"
    }
  ]
}