{
  "hash": "0000000097eaae862cc361fc29a60db85d4761187da3365d32afc6ca556bac99",
  "confirmations": 47608,
  "height": 5490,
  "version": 1,
  "versionHex": "00000001",
  "merkleroot": "3e3f2a924de8948c96d2380193fbc556e09a3af706c1956b3f4c037627a9e6b3",
  "time": 1235512795,
  "mediantime": 1235507965,
  "nonce": 3457490230,
  "bits": "1d00ffff",
  "difficulty": 1,
  "chainwork": "0000000000000000000000000000000000000000000000000000157315731573",
  "nTx": 1,
  "previousblockhash": "00000000bb69a1bf1d28a7668eb1d2e3cec786c2ab95c7693af6b05e3db1dc06",
  "nextblockhash": "00000000aa252ddbaa157a655a6d6258a33f6cc907a41ac147f8a1fe7682eecb",
  "strippedsize": 216,
  "size": 216,
  "weight": 864,
  "tx": [
    {
      "txid": "3e3f2a924de8948c96d2380193fbc556e09a3af706c1956b3f4c037627a9e6b3",
      "hash": "3e3f2a924de8948c96d2380193fbc556e09a3af706c1956b3f4c037627a9e6b3",
      "version": 1,
      "size": 135,
      "vsize": 135,
      "weight": 540,
      "locktime": 0,
      "vin": [
        {
          "coinbase": "04ffff001d026105",
          "sequence": 4294967295
        }
      ],
      "vout": [
        {
          "value": 50.0,
          "n": 0,
          "scriptPubKey": {
            "asm": "0447f82034dadc064d90c5a591e53d91df6e080d191a743d8cf6fdd4f51f8335b31d7719979bc0dbd07745578889706f60bdb66a7e8255c56e079d7732860dbd9f OP_CHECKSIG",
            "desc": "pk(0447f82034dadc064d90c5a591e53d91df6e080d191a743d8cf6fdd4f51f8335b31d7719979bc0dbd07745578889706f60bdb66a7e8255c56e079d7732860dbd9f)#5vc3cg0t",
            "hex": "410447f82034dadc064d90c5a591e53d91df6e080d191a743d8cf6fdd4f51f8335b31d7719979bc0dbd07745578889706f60bdb66a7e8255c56e079d7732860dbd9fac",
            "type": "pubkey"
          }
        }
      ],
      "hex": "01000000010000000000000000000000000000000000000000000000000000000000000000ffffffff0804ffff001d026105ffffffff0100f2052a0100000043410447f82034dadc064d90c5a591e53d91df6e080d191a743d8cf6fdd4f51f8335b31d7719979bc0dbd07745578889706f60bdb66a7e8255c56e079d7732860dbd9fac00000000"
    }
  ]
}