{
  "hash": "00000000f4d669b83791d914f8d23fac895f1e248da856082078bcad41669b0e",
  "confirmations": 44802,
  "height": 8296,
  "version": 1,
  "versionHex": "00000001",
  "merkleroot": "ad806066f95eaaaaa182a2904084834ddd2f7a2fe6db7a9e4dc7171265371e9e",
  "time": 1237727656,
  "mediantime": 1237724458,
  "nonce": 457666086,
  "bits": "1d00ffff",
  "difficulty": 1,
  "chainwork": "0000000000000000000000000000000000000000000000000000206920692069",
  "nTx": 1,
  "previousblockhash": "000000004d057f5e39e780853e80c3447f2827344674d417b5715ed201397c35",
  "nextblockhash": "00000000a99f42c001b1f548f97d17865ca930426dfa034d2ccb569ff029f0dd",
  "strippedsize": 216,
  "size": 216,
  "weight": 864,
  "tx": [
    {
      "txid": "ad806066f95eaaaaa182a2904084834ddd2f7a2fe6db7a9e4dc7171265371e9e",
      "hash": "ad806066f95eaaaaa182a2904084834ddd2f7a2fe6db7a9e4dc7171265371e9e",
      "version": 1,
      "size": 135,
      "vsize": 135,
      "weight": 540,
      "locktime": 0,
      "vin": [
        {
          "coinbase": "04ffff001d022104",
          "sequence": 4294967295
        }
      ],
      "vout": [
        {
          "value": 50.0,
          "n": 0,
          "scriptPubKey": {
            "asm": "0489a6f18c940ea33f3113a3e898c9779ad96587206ab8f9584f5fc1cb2aa21538c5f6f18149bf95c5991331ee92175b1c728abcf174c5edc175361eb38609edae OP_CHECKSIG",
            "desc": "pk(0489a6f18c940ea33f3113a3e898c9779ad96587206ab8f9584f5fc1cb2aa21538c5f6f18149bf95c5991331ee92175b1c728abcf174c5edc175361eb38609edae)#d7p3fhy4",
            "hex": "410489a6f18c940ea33f3113a3e898c9779ad96587206ab8f9584f5fc1cb2aa21538c5f6f18149bf95c5991331ee92175b1c728abcf174c5edc175361eb38609edaeac",
            "type": "pubkey"
          }
        }
      ],
      "hex": "01000000010000000000000000000000000000000000000000000000000000000000000000ffffffff0804ffff001d022104ffffffff0100f2052a0100000043410489a6f18c940ea33f3113a3e898c9779ad96587206ab8f9584f5fc1cb2aa21538c5f6f18149bf95c5991331ee92175b1c728abcf174c5edc175361eb38609edaeac00000000"
    }
  ]
}