{
  "hash": "000000007cdf2f72eebf5eac4379316b576c858fe6274d0a8032f46e26e2c607",
  "confirmations": 51325,
  "height": 1773,
  "version": 1,
  "versionHex": "00000001",
  "merkleroot": "8d4f611e46eeda4342ce49c066f5231711e139151bf41024a61cf187064d6667",
  "time": 1232885095,
  "mediantime": 1232883142,
  "nonce": 193101917,
  "bits": "1d00ffff",
  "difficulty": 1,
  "chainwork": "000000000000000000000000000000000000000000000000000006ee06ee06ee",
  "nTx": 1,
  "previousblockhash": "00000000d79ca1994b80322b944426b607c9729f2651436a7a87a1cd1048ebfe",
  "nextblockhash": "000000001a42293b356c865ecdcaba9c85faab1c77fdc48198d3d3ca9dc8405d",
  "strippedsize": 215,
  "size": 215,
  "weight": 860,
  "tx": [
    {
      "txid": "8d4f611e46eeda4342ce49c066f5231711e139151bf41024a61cf187064d6667",
      "hash": "8d4f611e46eeda4342ce49c066f5231711e139151bf41024a61cf187064d6667",
      "version": 1,
      "size": 134,
      "vsize": 134,
      "weight": 536,
      "locktime": 0,
      "vin": [
        {
          "coinbase": "04ffff001d010a",
          "sequence": 4294967295
        }
      ],
      "vout": [
        {
          "value": 50.0,
          "n": 0,
          "scriptPubKey": {
            "asm": "043b44987d4e280aa020a1581f68480b2dffa9f7367b18620cc96ce51f96507af3c62c18688e764f3614fbd24159b9ab47ab4479f88f7ff1fbc6505f90ee83eb45 OP_CHECKSIG",
            "desc": "pk(043b44987d4e280aa020a1581f68480b2dffa9f7367b18620cc96ce51f96507af3c62c18688e764f3614fbd24159b9ab47ab4479f88f7ff1fbc6505f90ee83eb45)#mgra3j33",
            "hex": "41043b44987d4e280aa020a1581f68480b2dffa9f7367b18620cc96ce51f96507af3c62c18688e764f3614fbd24159b9ab47ab4479f88f7ff1fbc6505f90ee83eb45ac",
            "type": "pubkey"
          }
        }
      ],
      "hex": "01000000010000000000000000000000000000000000000000000000000000000000000000ffffffff0704ffff001d010affffffff0100f2052a010000004341043b44987d4e280aa020a1581f68480b2dffa9f7367b18620cc96ce51f96507af3c62c18688e764f3614fbd24159b9ab47ab4479f88f7ff1fbc6505f90ee83eb45ac00000000"
    }
  ]
}