{
  "hash": "000000009ff42c9f4ae2390e49d20a2bd1db3194df1a7827448ea1dce2b3736c",
  "confirmations": 47080,
  "height": 6018,
  "version": 1,
  "versionHex": "00000001",
  "merkleroot": "3efb67a0bd9e8b6979191d6c50e2dac97e164991b7fb7555df4f9b8c482cf67d",
  "time": 1235941505,
  "mediantime": 1235936457,
  "nonce": 3766370609,
  "bits": "1d00ffff",
  "difficulty": 1,
  "chainwork": "0000000000000000000000000000000000000000000000000000178317831783",
  "nTx": 1,
  "previousblockhash": "00000000f47d854ffc9c5bf4f81f1486458be903143dc1472a98919efddd2de5",
  "nextblockhash": "0000000045174a571d0d57c1ebfb23d1bb03bdacfce99448cfa5a528cbe4c324",
  "strippedsize": 216,
  "size": 216,
  "weight": 864,
  "tx": [
    {
      "txid": "3efb67a0bd9e8b6979191d6c50e2dac97e164991b7fb7555df4f9b8c482cf67d",
      "hash": "3efb67a0bd9e8b6979191d6c50e2dac97e164991b7fb7555df4f9b8c482cf67d",
      "version": 1,
      "size": 135,
      "vsize": 135,
      "weight": 540,
      "locktime": 0,
      "vin": [
        {
          "coinbase": "04ffff001d023a05",
          "sequence": 4294967295
        }
      ],
      "vout": [
        {
          "value": 50.0,
          "n": 0,
          "scriptPubKey": {
            "asm": "0460121eadd9327b1df88abac536e090afbf63d413cd0f5e24b6cc678e1be256db01ee9bb70fa15a074da554506864da0a1a2d0949593c743893c63647831c02c9 OP_CHECKSIG",
            "desc": "pk(0460121eadd9327b1df88abac536e090afbf63d413cd0f5e24b6cc678e1be256db01ee9bb70fa15a074da554506864da0a1a2d0949593c743893c63647831c02c9)#x7dyde74",
            "hex": "410460121eadd9327b1df88abac536e090afbf63d413cd0f5e24b6cc678e1be256db01ee9bb70fa15a074da554506864da0a1a2d0949593c743893c63647831c02c9ac",
            "type": "pubkey"
          }
        }
      ],
      "hex": "01000000010000000000000000000000000000000000000000000000000000000000000000ffffffff0804ffff001d023a05ffffffff0100f2052a0100000043410460121eadd9327b1df88abac536e090afbf63d413cd0f5e24b6cc678e1be256db01ee9bb70fa15a074da554506864da0a1a2d0949593c743893c63647831c02c9ac00000000"
    }
  ]
}