{
  "hash": "00000000c193474e9bc3bc3c7a38deadec58c5fc45aa3fb605769b942dba0cb4",
  "confirmations": 46045,
  "height": 7053,
  "version": 1,
  "versionHex": "00000001",
  "merkleroot": "f39d886defa2174a24c6bbaf01fa22d8032c01e69b37b57873efa84efa17d0f3",
  "time": 1236760388,
  "mediantime": 1236756476,
  "nonce": 40746559,
  "bits": "1d00ffff",
  "difficulty": 1,
  "chainwork": "00000000000000000000000000000000000000000000000000001b8e1b8e1b8e",
  "nTx": 1,
  "previousblockhash": "000000008fb7a87bdd34eeec27ac4c2e9f92b7ed47ac512c8958eba1cc15aa99",
  "nextblockhash": "0000000012c720c66528e7309bce4c6a282361d95c83380e296535a891307398",
  "strippedsize": 216,
  "size": 216,
  "weight": 864,
  "tx": [
    {
      "txid": "f39d886defa2174a24c6bbaf01fa22d8032c01e69b37b57873efa84efa17d0f3",
      "hash": "f39d886defa2174a24c6bbaf01fa22d8032c01e69b37b57873efa84efa17d0f3",
      "version": 1,
      "size": 135,
      "vsize": 135,
      "weight": 540,
      "locktime": 0,
      "vin": [
        {
          "coinbase": "04ffff001d022a01",
          "sequence": 4294967295
        }
      ],
      "vout": [
        {
          "value": 50.0,
          "n": 0,
          "scriptPubKey": {
            "asm": "04f5264c6837580d294c27723bd506d00937e39150d011a44ab00a00418ca972dcb9a8ed9b8349b5966dde319ba4fffccdc5b4d7bccddea1e047e88c3b85088d33 OP_CHECKSIG",
            "desc": "pk(04f5264c6837580d294c27723bd506d00937e39150d011a44ab00a00418ca972dcb9a8ed9b8349b5966dde319ba4fffccdc5b4d7bccddea1e047e88c3b85088d33)#pvdv53qd",
            "hex": "4104f5264c6837580d294c27723bd506d00937e39150d011a44ab00a00418ca972dcb9a8ed9b8349b5966dde319ba4fffccdc5b4d7bccddea1e047e88c3b85088d33ac",
            "type": "pubkey"
          }
        }
      ],
      "hex": "01000000010000000000000000000000000000000000000000000000000000000000000000ffffffff0804ffff001d022a01ffffffff0100f2052a01000000434104f5264c6837580d294c27723bd506d00937e39150d011a44ab00a00418ca972dcb9a8ed9b8349b5966dde319ba4fffccdc5b4d7bccddea1e047e88c3b85088d33ac00000000"
    }
  ]
}