{
  "hash": "000000001a9c1eac0359894c6412fcd8148f1c57186b4fcd414c5f777d18c9d1",
  "confirmations": 45792,
  "height": 7306,
  "version": 1,
  "versionHex": "00000001",
  "merkleroot": "06f6b8b782fd4a00fab968390d65f053af13f9ca14a14273564aa0e04478e170",
  "time": 1236952094,
  "mediantime": 1236949514,
  "nonce": 104958750,
  "bits": "1d00ffff",
  "difficulty": 1,
  "chainwork": "00000000000000000000000000000000000000000000000000001c8b1c8b1c8b",
  "nTx": 1,
  "previousblockhash": "000000007d429f95f1101da62d4513a0dca14d303a2a2c0957bd74a7efca8464",
  "nextblockhash": "00000000e669ced399cdee6d98e1438cebd0bdaf35b277780153e3eb2d0a6e64",
  "strippedsize": 216,
  "size": 216,
  "weight": 864,
  "tx": [
    {
      "txid": "06f6b8b782fd4a00fab968390d65f053af13f9ca14a14273564aa0e04478e170",
      "hash": "06f6b8b782fd4a00fab968390d65f053af13f9ca14a14273564aa0e04478e170",
      "version": 1,
      "size": 135,
      "vsize": 135,
      "weight": 540,
      "locktime": 0,
      "vin": [
        {
          "coinbase": "04ffff001d020101",
          "sequence": 4294967295
        }
      ],
      "vout": [
        {
          "value": 50.0,
          "n": 0,
          "scriptPubKey": {
            "asm": "047099880ad94c1b0b663642fcd76d69bc6cadb01f01e6acbf30d43d4255daa1c92d516b4af684eae1c2bc6902e2098640ad63f0d65ade7d93dcc2dec73e608a86 OP_CHECKSIG",
            "desc": "pk(047099880ad94c1b0b663642fcd76d69bc6cadb01f01e6acbf30d43d4255daa1c92d516b4af684eae1c2bc6902e2098640ad63f0d65ade7d93dcc2dec73e608a86)#zd8p377x",
            "hex": "41047099880ad94c1b0b663642fcd76d69bc6cadb01f01e6acbf30d43d4255daa1c92d516b4af684eae1c2bc6902e2098640ad63f0d65ade7d93dcc2dec73e608a86ac",
            "type": "pubkey"
          }
        }
      ],
      "hex": "01000000010000000000000000000000000000000000000000000000000000000000000000ffffffff0804ffff001d020101ffffffff0100f2052a010000004341047099880ad94c1b0b663642fcd76d69bc6cadb01f01e6acbf30d43d4255daa1c92d516b4af684eae1c2bc6902e2098640ad63f0d65ade7d93dcc2dec73e608a86ac00000000"
    }
  ]
}