{
  "hash": "00000000cd741d8b0f40301c7fdc028883816ce467e13e0325e4f8ced3d4b19f",
  "confirmations": 44296,
  "height": 8802,
  "version": 1,
  "versionHex": "00000001",
  "merkleroot": "9ed2dd81ef58f62c143963532b474827b21f6b27d5d2a5515061abbdcc3eaf63",
  "time": 1238102377,
  "mediantime": 1238098510,
  "nonce": 590866996,
  "bits": "1d00ffff",
  "difficulty": 1,
  "chainwork": "0000000000000000000000000000000000000000000000000000226322632263",
  "nTx": 1,
  "previousblockhash": "0000000074b5bae4abdc95e88f7e12e68987856cbb384d61c3355bc2b9be4b9b",
  "nextblockhash": "000000002c59ee9cb421a4fc9a7e60d549168e3917d47a9cf276e958be8dd015",
  "strippedsize": 216,
  "size": 216,
  "weight": 864,
  "tx": [
    {
      "txid": "9ed2dd81ef58f62c143963532b474827b21f6b27d5d2a5515061abbdcc3eaf63",
      "hash": "9ed2dd81ef58f62c143963532b474827b21f6b27d5d2a5515061abbdcc3eaf63",
      "version": 1,
      "size": 135,
      "vsize": 135,
      "weight": 540,
      "locktime": 0,
      "vin": [
        {
          "coinbase": "04ffff001d02d102",
          "sequence": 4294967295
        }
      ],
      "vout": [
        {
          "value": 50.0,
          "n": 0,
          "scriptPubKey": {
            "asm": "044f59f92047b6e3dea00c4ad8061f4eaf93e1a754f5c8f9719a5ee5483136eac80ce8744045b9cbe5e04e38d0033177ba0a8f930b190f9b88e91dfe365446c5b8 OP_CHECKSIG",
            "desc": "pk(044f59f92047b6e3dea00c4ad8061f4eaf93e1a754f5c8f9719a5ee5483136eac80ce8744045b9cbe5e04e38d0033177ba0a8f930b190f9b88e91dfe365446c5b8)#7tw6p5nw",
            "hex": "41044f59f92047b6e3dea00c4ad8061f4eaf93e1a754f5c8f9719a5ee5483136eac80ce8744045b9cbe5e04e38d0033177ba0a8f930b190f9b88e91dfe365446c5b8ac",
            "type": "pubkey"
          }
        }
      ],
      "hex": "01000000010000000000000000000000000000000000000000000000000000000000000000ffffffff0804ffff001d02d102ffffffff0100f2052a010000004341044f59f92047b6e3dea00c4ad8061f4eaf93e1a754f5c8f9719a5ee5483136eac80ce8744045b9cbe5e04e38d0033177ba0a8f930b190f9b88e91dfe365446c5b8ac00000000"
    }
  ]
}