{
  "hash": "000000005d8516771145d96282eee114a0c22ae6d5f1d7f1d531b2723209cbab",
  "confirmations": 43564,
  "height": 9534,
  "version": 1,
  "versionHex": "00000001",
  "merkleroot": "90e9a1b18c516c5283528e41e028032004a56f04d12d51d214758aadb3c7291d",
  "time": 1238648901,
  "mediantime": 1238646573,
  "nonce": 28804383,
  "bits": "1d00ffff",
  "difficulty": 1,
  "chainwork": "0000000000000000000000000000000000000000000000000000253f253f253f",
  "nTx": 1,
  "previousblockhash": "0000000005346e72acfbba94ad89208e51788b01bce5104a3f6c293987733433",
  "nextblockhash": "00000000b844536347267e9686984e824573a438244e9e95856dd82bbf241982",
  "strippedsize": 215,
  "size": 215,
  "weight": 860,
  "tx": [
    {
      "txid": "90e9a1b18c516c5283528e41e028032004a56f04d12d51d214758aadb3c7291d",
      "hash": "90e9a1b18c516c5283528e41e028032004a56f04d12d51d214758aadb3c7291d",
      "version": 1,
      "size": 134,
      "vsize": 134,
      "weight": 536,
      "locktime": 0,
      "vin": [
        {
          "coinbase": "04ffff001d0174",
          "sequence": 4294967295
        }
      ],
      "vout": [
        {
          "value": 50.0,
          "n": 0,
          "scriptPubKey": {
            "asm": "04d3b9845b44355f0345000c6d6eb1811e1d1112783b228d96290c1b879b8210e6b542352b4582359a1f00f442a851877c6bfc490397868030734f09091eaf5bca OP_CHECKSIG",
            "desc": "pk(04d3b9845b44355f0345000c6d6eb1811e1d1112783b228d96290c1b879b8210e6b542352b4582359a1f00f442a851877c6bfc490397868030734f09091eaf5bca)#y9x3fl3a",
            "hex": "4104d3b9845b44355f0345000c6d6eb1811e1d1112783b228d96290c1b879b8210e6b542352b4582359a1f00f442a851877c6bfc490397868030734f09091eaf5bcaac",
            "type": "pubkey"
          }
        }
      ],
      "hex": "01000000010000000000000000000000000000000000000000000000000000000000000000ffffffff0704ffff001d0174ffffffff0100f2052a01000000434104d3b9845b44355f0345000c6d6eb1811e1d1112783b228d96290c1b879b8210e6b542352b4582359a1f00f442a851877c6bfc490397868030734f09091eaf5bcaac00000000"
    }
  ]
}