{
  "hash": "00000000b294b553450f66fc9e09afc49450d91beedeee319326a3d245730b36",
  "confirmations": 50290,
  "height": 2808,
  "version": 1,
  "versionHex": "00000001",
  "merkleroot": "2001cf817dcbfa98838493a6d981d46991bd98d6acc7e35a5e2a6e34e35bfbbd",
  "time": 1233632893,
  "mediantime": 1233630672,
  "nonce": 1658147844,
  "bits": "1d00ffff",
  "difficulty": 1,
  "chainwork": "00000000000000000000000000000000000000000000000000000af90af90af9",
  "nTx": 1,
  "previousblockhash": "0000000054b93ea0d0876eefb799940594963048b5a23cc95ee05e527769d507",
  "nextblockhash": "000000001acc86035f99faf5593a151d08ff13612f1be657a5e99f4047e5c64f",
  "strippedsize": 216,
  "size": 216,
  "weight": 864,
  "tx": [
    {
      "txid": "2001cf817dcbfa98838493a6d981d46991bd98d6acc7e35a5e2a6e34e35bfbbd",
      "hash": "2001cf817dcbfa98838493a6d981d46991bd98d6acc7e35a5e2a6e34e35bfbbd",
      "version": 1,
      "size": 135,
      "vsize": 135,
      "weight": 540,
      "locktime": 0,
      "vin": [
        {
          "coinbase": "04ffff001d023406",
          "sequence": 4294967295
        }
      ],
      "vout": [
        {
          "value": 50.0,
          "n": 0,
          "scriptPubKey": {
            "asm": "04b2e786a9ef78c59afec58beb27f4f002f061213ac371e22f6babaa1fc2d1a0b67af2430f2ad7e8d6020e6157cc82e8973a6618f1161d2500925d68e402df29f4 OP_CHECKSIG",
            "desc": "pk(04b2e786a9ef78c59afec58beb27f4f002f061213ac371e22f6babaa1fc2d1a0b67af2430f2ad7e8d6020e6157cc82e8973a6618f1161d2500925d68e402df29f4)#nmxrh5gx",
            "hex": "4104b2e786a9ef78c59afec58beb27f4f002f061213ac371e22f6babaa1fc2d1a0b67af2430f2ad7e8d6020e6157cc82e8973a6618f1161d2500925d68e402df29f4ac",
            "type": "pubkey"
          }
        }
      ],
      "hex": "01000000010000000000000000000000000000000000000000000000000000000000000000ffffffff0804ffff001d023406ffffffff0100f2052a01000000434104b2e786a9ef78c59afec58beb27f4f002f061213ac371e22f6babaa1fc2d1a0b67af2430f2ad7e8d6020e6157cc82e8973a6618f1161d2500925d68e402df29f4ac00000000"
    }
  ]
}