{
  "hash": "000000008773bccf8a80a86b91cebf36a59cee12b2d5934bec88e1c6d8e3cfc5",
  "confirmations": 45862,
  "height": 7236,
  "version": 1,
  "versionHex": "00000001",
  "merkleroot": "359cb2cfd2fe75a2dc13f37c7c54226d0c297fc58becad300591712102755ae9",
  "time": 1236895836,
  "mediantime": 1236893532,
  "nonce": 102565905,
  "bits": "1d00ffff",
  "difficulty": 1,
  "chainwork": "00000000000000000000000000000000000000000000000000001c451c451c45",
  "nTx": 1,
  "previousblockhash": "00000000e0b065f06b321953224a714423492fbff921bb732076528d4df7ff70",
  "nextblockhash": "00000000f13295efafe1a7c5498a889d542604af98a705fee95bd2feb6cda2e3",
  "strippedsize": 216,
  "size": 216,
  "weight": 864,
  "tx": [
    {
      "txid": "359cb2cfd2fe75a2dc13f37c7c54226d0c297fc58becad300591712102755ae9",
      "hash": "359cb2cfd2fe75a2dc13f37c7c54226d0c297fc58becad300591712102755ae9",
      "version": 1,
      "size": 135,
      "vsize": 135,
      "weight": 540,
      "locktime": 0,
      "vin": [
        {
          "coinbase": "04ffff001d02bb00",
          "sequence": 4294967295
        }
      ],
      "vout": [
        {
          "value": 50.0,
          "n": 0,
          "scriptPubKey": {
            "asm": "045565998ed918392a92314b0afe34c98ae443f636f24717bab9e94bb68e2e0f32ee4ddf3ff9592bc253d4c4961d4705e79ac42c01e76f636ef5ad7fd47655f30b OP_CHECKSIG",
            "desc": "pk(045565998ed918392a92314b0afe34c98ae443f636f24717bab9e94bb68e2e0f32ee4ddf3ff9592bc253d4c4961d4705e79ac42c01e76f636ef5ad7fd47655f30b)#s7rsx75l",
            "hex": "41045565998ed918392a92314b0afe34c98ae443f636f24717bab9e94bb68e2e0f32ee4ddf3ff9592bc253d4c4961d4705e79ac42c01e76f636ef5ad7fd47655f30bac",
            "type": "pubkey"
          }
        }
      ],
      "hex": "01000000010000000000000000000000000000000000000000000000000000000000000000ffffffff0804ffff001d02bb00ffffffff0100f2052a010000004341045565998ed918392a92314b0afe34c98ae443f636f24717bab9e94bb68e2e0f32ee4ddf3ff9592bc253d4c4961d4705e79ac42c01e76f636ef5ad7fd47655f30bac00000000"
    }
  ]
}