{
  "hash": "00000000b60450f1bd7d033f185ec885eeb2c49624a09f2142567f3e3a18262e",
  "confirmations": 46441,
  "height": 6657,
  "version": 1,
  "versionHex": "00000001",
  "merkleroot": "ec0e2a7987bc747e1eae2b1768484b533a1c950472bddc00d2e884ce7bf1aa4e",
  "time": 1236449311,
  "mediantime": 1236447105,
  "nonce": 12720274,
  "bits": "1d00ffff",
  "difficulty": 1,
  "chainwork": "00000000000000000000000000000000000000000000000000001a021a021a02",
  "nTx": 1,
  "previousblockhash": "000000004cd188af6ab641ec5260c83ff2007de7d512d3194ad97fb4f1fa7e40",
  "nextblockhash": "00000000091b6da7043bd1c9f2f468cf49ba510eef40e4f490f3efb667890f7e",
  "strippedsize": 215,
  "size": 215,
  "weight": 860,
  "tx": [
    {
      "txid": "ec0e2a7987bc747e1eae2b1768484b533a1c950472bddc00d2e884ce7bf1aa4e",
      "hash": "ec0e2a7987bc747e1eae2b1768484b533a1c950472bddc00d2e884ce7bf1aa4e",
      "version": 1,
      "size": 134,
      "vsize": 134,
      "weight": 536,
      "locktime": 0,
      "vin": [
        {
          "coinbase": "04ffff001d014e",
          "sequence": 4294967295
        }
      ],
      "vout": [
        {
          "value": 50.0,
          "n": 0,
          "scriptPubKey": {
            "asm": "04a595559c24d1ca520f0e3124b06925e911bcc386e0ba9841df5205a5ab38233a3c629be7025b1c6d6d7f93757af263f7a455bee9d096ddc660b9583852eddd90 OP_CHECKSIG",
            "desc": "pk(04a595559c24d1ca520f0e3124b06925e911bcc386e0ba9841df5205a5ab38233a3c629be7025b1c6d6d7f93757af263f7a455bee9d096ddc660b9583852eddd90)#y2k8hhq5",
            "hex": "4104a595559c24d1ca520f0e3124b06925e911bcc386e0ba9841df5205a5ab38233a3c629be7025b1c6d6d7f93757af263f7a455bee9d096ddc660b9583852eddd90ac",
            "type": "pubkey"
          }
        }
      ],
      "hex": "01000000010000000000000000000000000000000000000000000000000000000000000000ffffffff0704ffff001d014effffffff0100f2052a01000000434104a595559c24d1ca520f0e3124b06925e911bcc386e0ba9841df5205a5ab38233a3c629be7025b1c6d6d7f93757af263f7a455bee9d096ddc660b9583852eddd90ac00000000"
    }
  ]
}