{
  "hash": "000000007424ba7641af26de3067e92d49ba8d21c2b726e7f28fe99898cb3f5b",
  "confirmations": 48130,
  "height": 4968,
  "version": 1,
  "versionHex": "00000001",
  "merkleroot": "7ac1bb3f7862f9556406e8803789e9a98ae2be367cbb7a77b2b60cb760c500f2",
  "time": 1235117064,
  "mediantime": 1235114005,
  "nonce": 3933523970,
  "bits": "1d00ffff",
  "difficulty": 1,
  "chainwork": "0000000000000000000000000000000000000000000000000000136913691369",
  "nTx": 1,
  "previousblockhash": "00000000d6c6d644a13d10d17dc3f6b02a22cfde5412e3c94fa55b54636dc6dd",
  "nextblockhash": "000000009599b9daf24b787d76febb4b08ada0f80d87586456b6f523eb9f8352",
  "strippedsize": 216,
  "size": 216,
  "weight": 864,
  "tx": [
    {
      "txid": "7ac1bb3f7862f9556406e8803789e9a98ae2be367cbb7a77b2b60cb760c500f2",
      "hash": "7ac1bb3f7862f9556406e8803789e9a98ae2be367cbb7a77b2b60cb760c500f2",
      "version": 1,
      "size": 135,
      "vsize": 135,
      "weight": 540,
      "locktime": 0,
      "vin": [
        {
          "coinbase": "04ffff001d02a206",
          "sequence": 4294967295
        }
      ],
      "vout": [
        {
          "value": 50.0,
          "n": 0,
          "scriptPubKey": {
            "asm": "047bdc73eef91f255bc74b68f32568f29822ee6020082650ffe20cb8f969c06cc9a4d44c56f6b8bd5d272f11724ba5f7ef5704cdacfb9900345567aa73ac1f677c OP_CHECKSIG",
            "desc": "pk(047bdc73eef91f255bc74b68f32568f29822ee6020082650ffe20cb8f969c06cc9a4d44c56f6b8bd5d272f11724ba5f7ef5704cdacfb9900345567aa73ac1f677c)#2cv5djgm",
            "hex": "41047bdc73eef91f255bc74b68f32568f29822ee6020082650ffe20cb8f969c06cc9a4d44c56f6b8bd5d272f11724ba5f7ef5704cdacfb9900345567aa73ac1f677cac",
            "type": "pubkey"
          }
        }
      ],
      "hex": "01000000010000000000000000000000000000000000000000000000000000000000000000ffffffff0804ffff001d02a206ffffffff0100f2052a010000004341047bdc73eef91f255bc74b68f32568f29822ee6020082650ffe20cb8f969c06cc9a4d44c56f6b8bd5d272f11724ba5f7ef5704cdacfb9900345567aa73ac1f677cac00000000"
    }
  ]
}