{
  "hash": "000000006d89216b4cf7bbe9f6dec95741e4f7069259c32a4efe31091e63fffb",
  "confirmations": 50875,
  "height": 2223,
  "version": 1,
  "versionHex": "00000001",
  "merkleroot": "8a1731f243396731cc1a5a07209673aacb2c189c012650b028edb7c1fed5f1a6",
  "time": 1233229961,
  "mediantime": 1233227044,
  "nonce": 3546362166,
  "bits": "1d00ffff",
  "difficulty": 1,
  "chainwork": "000000000000000000000000000000000000000000000000000008b008b008b0",
  "nTx": 1,
  "previousblockhash": "000000009ffa197affbdef3f7e20aaadf1199d7d8317b1d7a55def5ce5fb2d1c",
  "nextblockhash": "00000000e8b0ee07bedc4499aced3524a875ed74cf71a6b3b30e2d887edaf6f0",
  "strippedsize": 216,
  "size": 216,
  "weight": 864,
  "tx": [
    {
      "txid": "8a1731f243396731cc1a5a07209673aacb2c189c012650b028edb7c1fed5f1a6",
      "hash": "8a1731f243396731cc1a5a07209673aacb2c189c012650b028edb7c1fed5f1a6",
      "version": 1,
      "size": 135,
      "vsize": 135,
      "weight": 540,
      "locktime": 0,
      "vin": [
        {
          "coinbase": "04ffff001d02b900",
          "sequence": 4294967295
        }
      ],
      "vout": [
        {
          "value": 50.0,
          "n": 0,
          "scriptPubKey": {
            "asm": "04ef9e44fb442e575f34c1533b8199df2e33b17f9a84db67bfcbb687e9c9e9a788774c6e35686f4ce43ce9811e43611d12bb962f22d8dfe8a7067dd179391c5809 OP_CHECKSIG",
            "desc": "pk(04ef9e44fb442e575f34c1533b8199df2e33b17f9a84db67bfcbb687e9c9e9a788774c6e35686f4ce43ce9811e43611d12bb962f22d8dfe8a7067dd179391c5809)#h32mwmye",
            "hex": "4104ef9e44fb442e575f34c1533b8199df2e33b17f9a84db67bfcbb687e9c9e9a788774c6e35686f4ce43ce9811e43611d12bb962f22d8dfe8a7067dd179391c5809ac",
            "type": "pubkey"
          }
        }
      ],
      "hex": "01000000010000000000000000000000000000000000000000000000000000000000000000ffffffff0804ffff001d02b900ffffffff0100f2052a01000000434104ef9e44fb442e575f34c1533b8199df2e33b17f9a84db67bfcbb687e9c9e9a788774c6e35686f4ce43ce9811e43611d12bb962f22d8dfe8a7067dd179391c5809ac00000000"
    }
  ]
}