{
  "hash": "00000000d04818b7e6d46f5e3e905fe07aaeaa98e4a7816f2b01fbce25ee4edb",
  "confirmations": 46230,
  "height": 6868,
  "version": 1,
  "versionHex": "00000001",
  "merkleroot": "513e280c607ac00f7a9053b3f82f6803058e8e68b23b1a64d43e7743711e65df",
  "time": 1236607230,
  "mediantime": 1236604441,
  "nonce": 1774008576,
  "bits": "1d00ffff",
  "difficulty": 1,
  "chainwork": "00000000000000000000000000000000000000000000000000001ad51ad51ad5",
  "nTx": 1,
  "previousblockhash": "0000000015ec638dc43499574063a1d1a8b47a47756e3608517210c7abd9b2b6",
  "nextblockhash": "00000000f00190cbb7214b80a0861c45c4ee5c8d3b54e01c9a9a73afd9473ce2",
  "strippedsize": 216,
  "size": 216,
  "weight": 864,
  "tx": [
    {
      "txid": "513e280c607ac00f7a9053b3f82f6803058e8e68b23b1a64d43e7743711e65df",
      "hash": "513e280c607ac00f7a9053b3f82f6803058e8e68b23b1a64d43e7743711e65df",
      "version": 1,
      "size": 135,
      "vsize": 135,
      "weight": 540,
      "locktime": 0,
      "vin": [
        {
          "coinbase": "04ffff001d02050a",
          "sequence": 4294967295
        }
      ],
      "vout": [
        {
          "value": 50.0,
          "n": 0,
          "scriptPubKey": {
            "asm": "04721b57359383ead1a55baf2d88e03c3705af5747eca418ebdaf2ef362f1c5a047b9eb65b1658b0d05ac678e0292eb7f86f378cc7cd93c34bd8d60f974fa1fe72 OP_CHECKSIG",
            "desc": "pk(04721b57359383ead1a55baf2d88e03c3705af5747eca418ebdaf2ef362f1c5a047b9eb65b1658b0d05ac678e0292eb7f86f378cc7cd93c34bd8d60f974fa1fe72)#c9833hd7",
            "hex": "4104721b57359383ead1a55baf2d88e03c3705af5747eca418ebdaf2ef362f1c5a047b9eb65b1658b0d05ac678e0292eb7f86f378cc7cd93c34bd8d60f974fa1fe72ac",
            "type": "pubkey"
          }
        }
      ],
      "hex": "01000000010000000000000000000000000000000000000000000000000000000000000000ffffffff0804ffff001d02050affffffff0100f2052a01000000434104721b57359383ead1a55baf2d88e03c3705af5747eca418ebdaf2ef362f1c5a047b9eb65b1658b0d05ac678e0292eb7f86f378cc7cd93c34bd8d60f974fa1fe72ac00000000"
    }
  ]
}