{
  "hash": "000000006ea2914e92adcfc7b39fcb00b3dfa0328aae70500f6ff26e11f764ef",
  "confirmations": 43554,
  "height": 9544,
  "version": 1,
  "versionHex": "00000001",
  "merkleroot": "17078cc8b8d2ef09d1d94faec728f1d71fb726cb31c92c0b05be2b4f760234a6",
  "time": 1238657024,
  "mediantime": 1238652709,
  "nonce": 1648544555,
  "bits": "1d00ffff",
  "difficulty": 1,
  "chainwork": "0000000000000000000000000000000000000000000000000000254925492549",
  "nTx": 1,
  "previousblockhash": "00000000c1fde6622e905b35b1126bce0f533d810b3f328fac7b169e3954e0dc",
  "nextblockhash": "000000003587b4cb17a29a80471c491b03a227eb8500689aab606de1fd692963",
  "strippedsize": 216,
  "size": 216,
  "weight": 864,
  "tx": [
    {
      "txid": "17078cc8b8d2ef09d1d94faec728f1d71fb726cb31c92c0b05be2b4f760234a6",
      "hash": "17078cc8b8d2ef09d1d94faec728f1d71fb726cb31c92c0b05be2b4f760234a6",
      "version": 1,
      "size": 135,
      "vsize": 135,
      "weight": 540,
      "locktime": 0,
      "vin": [
        {
          "coinbase": "04ffff001d02fe05",
          "sequence": 4294967295
        }
      ],
      "vout": [
        {
          "value": 50.0,
          "n": 0,
          "scriptPubKey": {
            "asm": "040121c841149dc7e9d8d0a87a1f58878e235aa704df4d8738d619e1eceb92a3a28207f54321a5eca7fdd525a19083c1b5c4ae36aecc0cf08b3b341367cc377314 OP_CHECKSIG",
            "desc": "pk(040121c841149dc7e9d8d0a87a1f58878e235aa704df4d8738d619e1eceb92a3a28207f54321a5eca7fdd525a19083c1b5c4ae36aecc0cf08b3b341367cc377314)#6qc4zqhg",
            "hex": "41040121c841149dc7e9d8d0a87a1f58878e235aa704df4d8738d619e1eceb92a3a28207f54321a5eca7fdd525a19083c1b5c4ae36aecc0cf08b3b341367cc377314ac",
            "type": "pubkey"
          }
        }
      ],
      "hex": "01000000010000000000000000000000000000000000000000000000000000000000000000ffffffff0804ffff001d02fe05ffffffff0100f2052a010000004341040121c841149dc7e9d8d0a87a1f58878e235aa704df4d8738d619e1eceb92a3a28207f54321a5eca7fdd525a19083c1b5c4ae36aecc0cf08b3b341367cc377314ac00000000"
    }
  ]
}