{
  "hash": "00000000654566cf2ba8b224326128b1f7d7489a4f53f581133ee5df476b0b69",
  "confirmations": 43720,
  "height": 9378,
  "version": 1,
  "versionHex": "00000001",
  "merkleroot": "0c63721cba3c0e53f73a8a7f2d0b19e7135db28d62dd032a48578b08615f5bca",
  "time": 1238532605,
  "mediantime": 1238527629,
  "nonce": 3662673975,
  "bits": "1d00ffff",
  "difficulty": 1,
  "chainwork": "000000000000000000000000000000000000000000000000000024a324a324a3",
  "nTx": 1,
  "previousblockhash": "000000006ebfb2a9b128248cf18a1f0b98996d1bef2fad7e78eb49fdadf9ef51",
  "nextblockhash": "00000000ecdc8ef06b4a6853f44de8440b02a9c603dd47b14b0b935a95a65ae7",
  "strippedsize": 216,
  "size": 216,
  "weight": 864,
  "tx": [
    {
      "txid": "0c63721cba3c0e53f73a8a7f2d0b19e7135db28d62dd032a48578b08615f5bca",
      "hash": "0c63721cba3c0e53f73a8a7f2d0b19e7135db28d62dd032a48578b08615f5bca",
      "version": 1,
      "size": 135,
      "vsize": 135,
      "weight": 540,
      "locktime": 0,
      "vin": [
        {
          "coinbase": "04ffff001d023903",
          "sequence": 4294967295
        }
      ],
      "vout": [
        {
          "value": 50.0,
          "n": 0,
          "scriptPubKey": {
            "asm": "04e440fa79c9820ee32b64306880d3701ad2a58cee71b514eecf66acff48e799cc3cbd2aa57842430e9d07fd3f4fa2bb1027974a862ed523557af6e7695a3c33b7 OP_CHECKSIG",
            "desc": "pk(04e440fa79c9820ee32b64306880d3701ad2a58cee71b514eecf66acff48e799cc3cbd2aa57842430e9d07fd3f4fa2bb1027974a862ed523557af6e7695a3c33b7)#823zcglu",
            "hex": "4104e440fa79c9820ee32b64306880d3701ad2a58cee71b514eecf66acff48e799cc3cbd2aa57842430e9d07fd3f4fa2bb1027974a862ed523557af6e7695a3c33b7ac",
            "type": "pubkey"
          }
        }
      ],
      "hex": "01000000010000000000000000000000000000000000000000000000000000000000000000ffffffff0804ffff001d023903ffffffff0100f2052a01000000434104e440fa79c9820ee32b64306880d3701ad2a58cee71b514eecf66acff48e799cc3cbd2aa57842430e9d07fd3f4fa2bb1027974a862ed523557af6e7695a3c33b7ac00000000"
    }
  ]
}