{
  "hash": "00000000cdaf0290cbd8caac684c2cb2bb32b8153b53c074df8e366ceb647da6",
  "confirmations": 52187,
  "height": 385,
  "version": 1,
  "versionHex": "00000001",
  "merkleroot": "d967e6bccb5d3e9db00ab9cfe799b92962afde0f6d3af9923052e21b55605f03",
  "time": 1231890970,
  "mediantime": 1231886972,
  "nonce": 1400409393,
  "bits": "1d00ffff",
  "difficulty": 1,
  "chainwork": "0000000000000000000000000000000000000000000000000000018201820182",
  "nTx": 1,
  "previousblockhash": "00000000a82a81f206e2bee2fc10dfcc107ad1a56312e0ebe94cffc1d05e7def",
  "nextblockhash": "0000000061d87eca0a039ebdf3f6a7932aa879729b74d64911b9828957a294d9",
  "strippedsize": 216,
  "size": 216,
  "weight": 864,
  "tx": [
    {
      "txid": "d967e6bccb5d3e9db00ab9cfe799b92962afde0f6d3af9923052e21b55605f03",
      "hash": "d967e6bccb5d3e9db00ab9cfe799b92962afde0f6d3af9923052e21b55605f03",
      "version": 1,
      "size": 135,
      "vsize": 135,
      "weight": 540,
      "locktime": 0,
      "vin": [
        {
          "coinbase": "04ffff001d023002",
          "sequence": 4294967295
        }
      ],
      "vout": [
        {
          "value": 50.0,
          "n": 0,
          "scriptPubKey": {
            "asm": "0473eaeca3681317e609bdca759710fc7d880d27a34e6b056eb8941bc820583d86a9f37fcad2f4a68ea214b26ff6a5b1e75e22210f72a652e47f4b588582daefb3 OP_CHECKSIG",
            "desc": "pk(0473eaeca3681317e609bdca759710fc7d880d27a34e6b056eb8941bc820583d86a9f37fcad2f4a68ea214b26ff6a5b1e75e22210f72a652e47f4b588582daefb3)#t8ezft7v",
            "hex": "410473eaeca3681317e609bdca759710fc7d880d27a34e6b056eb8941bc820583d86a9f37fcad2f4a68ea214b26ff6a5b1e75e22210f72a652e47f4b588582daefb3ac",
            "type": "pubkey"
          }
        }
      ],
      "hex": "01000000010000000000000000000000000000000000000000000000000000000000000000ffffffff0804ffff001d023002ffffffff0100f2052a0100000043410473eaeca3681317e609bdca759710fc7d880d27a34e6b056eb8941bc820583d86a9f37fcad2f4a68ea214b26ff6a5b1e75e22210f72a652e47f4b588582daefb3ac00000000"
    }
  ]
}