{
  "hash": "000000004f056cdad7e028b2227a96cf6db21d1c7767a89b922064fde5dab7f5",
  "confirmations": 47682,
  "height": 5416,
  "version": 1,
  "versionHex": "00000001",
  "merkleroot": "78a655184a8f8c2724b9ac55f0a0eaa085f758793ba64c42ad6d89bc4a6c3403",
  "time": 1235452255,
  "mediantime": 1235447904,
  "nonce": 2469143065,
  "bits": "1d00ffff",
  "difficulty": 1,
  "chainwork": "0000000000000000000000000000000000000000000000000000152915291529",
  "nTx": 1,
  "previousblockhash": "000000000157af061fd5db33b6d5144e641162682f33e81d239e4df09d612f53",
  "nextblockhash": "000000005fee47bb2ea239c052d26077078e4d822155fbad9669475b705d708c",
  "strippedsize": 216,
  "size": 216,
  "weight": 864,
  "tx": [
    {
      "txid": "78a655184a8f8c2724b9ac55f0a0eaa085f758793ba64c42ad6d89bc4a6c3403",
      "hash": "78a655184a8f8c2724b9ac55f0a0eaa085f758793ba64c42ad6d89bc4a6c3403",
      "version": 1,
      "size": 135,
      "vsize": 135,
      "weight": 540,
      "locktime": 0,
      "vin": [
        {
          "coinbase": "04ffff001d02d403",
          "sequence": 4294967295
        }
      ],
      "vout": [
        {
          "value": 50.0,
          "n": 0,
          "scriptPubKey": {
            "asm": "04b2de092749e3a743ca651651618e2a81921bd28013bcef20c1bb501d9db8563f5555ede5a1da5508e9228092e3c674740f72e83680f2ad6d4bf7b8dcbd361a78 OP_CHECKSIG",
            "desc": "pk(04b2de092749e3a743ca651651618e2a81921bd28013bcef20c1bb501d9db8563f5555ede5a1da5508e9228092e3c674740f72e83680f2ad6d4bf7b8dcbd361a78)#hxamadf9",
            "hex": "4104b2de092749e3a743ca651651618e2a81921bd28013bcef20c1bb501d9db8563f5555ede5a1da5508e9228092e3c674740f72e83680f2ad6d4bf7b8dcbd361a78ac",
            "type": "pubkey"
          }
        }
      ],
      "hex": "01000000010000000000000000000000000000000000000000000000000000000000000000ffffffff0804ffff001d02d403ffffffff0100f2052a01000000434104b2de092749e3a743ca651651618e2a81921bd28013bcef20c1bb501d9db8563f5555ede5a1da5508e9228092e3c674740f72e83680f2ad6d4bf7b8dcbd361a78ac00000000"
    }
  ]
}