{
  "hash": "00000000f40c565cd53f081da5c59e22b680758912d04a670cfecd3e181febd5",
  "confirmations": 43349,
  "height": 9749,
  "version": 1,
  "versionHex": "00000001",
  "merkleroot": "d96c473e0b78d33af8883cdd5b164c8e865af447023537710c186b29a8ac9465",
  "time": 1238814733,
  "mediantime": 1238810075,
  "nonce": 1701174018,
  "bits": "1d00ffff",
  "difficulty": 1,
  "chainwork": "0000000000000000000000000000000000000000000000000000261626162616",
  "nTx": 1,
  "previousblockhash": "000000004c174d3ca3a59143a26c2e1178f647d4b9f198c251c69d640ca83b67",
  "nextblockhash": "000000000130e59797893d4f2e5dc951e182ec170d6ba846ad84369529d547ad",
  "strippedsize": 216,
  "size": 216,
  "weight": 864,
  "tx": [
    {
      "txid": "d96c473e0b78d33af8883cdd5b164c8e865af447023537710c186b29a8ac9465",
      "hash": "d96c473e0b78d33af8883cdd5b164c8e865af447023537710c186b29a8ac9465",
      "version": 1,
      "size": 135,
      "vsize": 135,
      "weight": 540,
      "locktime": 0,
      "vin": [
        {
          "coinbase": "04ffff001d029a09",
          "sequence": 4294967295
        }
      ],
      "vout": [
        {
          "value": 50.0,
          "n": 0,
          "scriptPubKey": {
            "asm": "0488212044d9d6fc0483c591111f18103b65e54f48af831d3c82385bcf078d982cd661e9b1ecceeca12a28c0b6972105e419d96b2894938e4054adb88e13ee6bd5 OP_CHECKSIG",
            "desc": "pk(0488212044d9d6fc0483c591111f18103b65e54f48af831d3c82385bcf078d982cd661e9b1ecceeca12a28c0b6972105e419d96b2894938e4054adb88e13ee6bd5)#qr40w5l3",
            "hex": "410488212044d9d6fc0483c591111f18103b65e54f48af831d3c82385bcf078d982cd661e9b1ecceeca12a28c0b6972105e419d96b2894938e4054adb88e13ee6bd5ac",
            "type": "pubkey"
          }
        }
      ],
      "hex": "01000000010000000000000000000000000000000000000000000000000000000000000000ffffffff0804ffff001d029a09ffffffff0100f2052a0100000043410488212044d9d6fc0483c591111f18103b65e54f48af831d3c82385bcf078d982cd661e9b1ecceeca12a28c0b6972105e419d96b2894938e4054adb88e13ee6bd5ac00000000"
    }
  ]
}