{
  "hash": "00000000a37055f99a4c0ba0c418a30d4d27c2c97ecb78211e01f66d34701f59",
  "confirmations": 51659,
  "height": 1439,
  "version": 1,
  "versionHex": "00000001",
  "merkleroot": "dac2d3a8209f3b9e9977e8304205de2c5842177b8640751978ad5a01f90be3f9",
  "time": 1232741710,
  "mediantime": 1232739702,
  "nonce": 1158550807,
  "bits": "1d00ffff",
  "difficulty": 1,
  "chainwork": "000000000000000000000000000000000000000000000000000005a005a005a0",
  "nTx": 1,
  "previousblockhash": "000000000e262c2960b79e930fbf40dc1ab67fa5c74becf72251ecefd07e54ef",
  "nextblockhash": "00000000ad67cba546e7a036e14ca28e74d1d092218236b8bb6f0b420dc12d59",
  "strippedsize": 215,
  "size": 215,
  "weight": 860,
  "tx": [
    {
      "txid": "dac2d3a8209f3b9e9977e8304205de2c5842177b8640751978ad5a01f90be3f9",
      "hash": "dac2d3a8209f3b9e9977e8304205de2c5842177b8640751978ad5a01f90be3f9",
      "version": 1,
      "size": 134,
      "vsize": 134,
      "weight": 536,
      "locktime": 0,
      "vin": [
        {
          "coinbase": "04ffff001d0178",
          "sequence": 4294967295
        }
      ],
      "vout": [
        {
          "value": 50.0,
          "n": 0,
          "scriptPubKey": {
            "asm": "04a356276b38027c5d9d95e7bec4c1d3dad7533a4afe34d37dbd48c119af65c6894ca43e1e3cd952f4261718bc28e55a08d1866fff7e2d835d54a4e2d449bd0ffe OP_CHECKSIG",
            "desc": "pk(04a356276b38027c5d9d95e7bec4c1d3dad7533a4afe34d37dbd48c119af65c6894ca43e1e3cd952f4261718bc28e55a08d1866fff7e2d835d54a4e2d449bd0ffe)#axqlm470",
            "hex": "4104a356276b38027c5d9d95e7bec4c1d3dad7533a4afe34d37dbd48c119af65c6894ca43e1e3cd952f4261718bc28e55a08d1866fff7e2d835d54a4e2d449bd0ffeac",
            "type": "pubkey"
          }
        }
      ],
      "hex": "01000000010000000000000000000000000000000000000000000000000000000000000000ffffffff0704ffff001d0178ffffffff0100f2052a01000000434104a356276b38027c5d9d95e7bec4c1d3dad7533a4afe34d37dbd48c119af65c6894ca43e1e3cd952f4261718bc28e55a08d1866fff7e2d835d54a4e2d449bd0ffeac00000000"
    }
  ]
}