{
  "hash": "0000000044df1612302205e2d6bffbbdffb370456a3adebaf1fe0a7e8e312ccf",
  "confirmations": 44144,
  "height": 8954,
  "version": 1,
  "versionHex": "00000001",
  "merkleroot": "90b9c9a576404ebccb7ed29fe87703b1485e0f74bf7109279b99ee2d9b24a1dd",
  "time": 1238220813,
  "mediantime": 1238217762,
  "nonce": 464797590,
  "bits": "1d00ffff",
  "difficulty": 1,
  "chainwork": "000000000000000000000000000000000000000000000000000022fb22fb22fb",
  "nTx": 1,
  "previousblockhash": "000000001117ac12d7d84f4ba7331c2e7d1d1f38eda45f63ba726f30c54f5bdc",
  "nextblockhash": "00000000ab2ad4b32468850fd0c3c5a007acac4f6d2f4d55debb9d1781ca1a38",
  "strippedsize": 216,
  "size": 216,
  "weight": 864,
  "tx": [
    {
      "txid": "90b9c9a576404ebccb7ed29fe87703b1485e0f74bf7109279b99ee2d9b24a1dd",
      "hash": "90b9c9a576404ebccb7ed29fe87703b1485e0f74bf7109279b99ee2d9b24a1dd",
      "version": 1,
      "size": 135,
      "vsize": 135,
      "weight": 540,
      "locktime": 0,
      "vin": [
        {
          "coinbase": "04ffff001d02bd03",
          "sequence": 4294967295
        }
      ],
      "vout": [
        {
          "value": 50.0,
          "n": 0,
          "scriptPubKey": {
            "asm": "0426593f8af021426a5b57289f6f126975925399b309e54daa2701c76ee6e75181a51f24ba5a005e2ed4903084cdc0672a00f0acf6b1fda2a69ce656ce1a326ce2 OP_CHECKSIG",
            "desc": "pk(0426593f8af021426a5b57289f6f126975925399b309e54daa2701c76ee6e75181a51f24ba5a005e2ed4903084cdc0672a00f0acf6b1fda2a69ce656ce1a326ce2)#nxn7m2kv",
            "hex": "410426593f8af021426a5b57289f6f126975925399b309e54daa2701c76ee6e75181a51f24ba5a005e2ed4903084cdc0672a00f0acf6b1fda2a69ce656ce1a326ce2ac",
            "type": "pubkey"
          }
        }
      ],
      "hex": "01000000010000000000000000000000000000000000000000000000000000000000000000ffffffff0804ffff001d02bd03ffffffff0100f2052a0100000043410426593f8af021426a5b57289f6f126975925399b309e54daa2701c76ee6e75181a51f24ba5a005e2ed4903084cdc0672a00f0acf6b1fda2a69ce656ce1a326ce2ac00000000"
    }
  ]
}