{
  "hash": "00000000c9c28d2bb760225beaddbc212a01720869b624f088e9311df5b5d8f2",
  "confirmations": 51698,
  "height": 1400,
  "version": 1,
  "versionHex": "00000001",
  "merkleroot": "cb682e6f25bb24bdcc27ff97e5ae542af52f7084e618247235a0e21ba175999f",
  "time": 1232726353,
  "mediantime": 1232707975,
  "nonce": 1103297079,
  "bits": "1d00ffff",
  "difficulty": 1,
  "chainwork": "0000000000000000000000000000000000000000000000000000057905790579",
  "nTx": 1,
  "previousblockhash": "0000000014ae456c104853e17deaed2a61eede544edd048e557eda88c20b88f5",
  "nextblockhash": "00000000c7a7852c997de77ca70c5788d2e49417142398b245c5d257a2d96075",
  "strippedsize": 215,
  "size": 215,
  "weight": 860,
  "tx": [
    {
      "txid": "cb682e6f25bb24bdcc27ff97e5ae542af52f7084e618247235a0e21ba175999f",
      "hash": "cb682e6f25bb24bdcc27ff97e5ae542af52f7084e618247235a0e21ba175999f",
      "version": 1,
      "size": 134,
      "vsize": 134,
      "weight": 536,
      "locktime": 0,
      "vin": [
        {
          "coinbase": "04ffff001d0107",
          "sequence": 4294967295
        }
      ],
      "vout": [
        {
          "value": 50.0,
          "n": 0,
          "scriptPubKey": {
            "asm": "041c6d9eaec82e917b98ca2d80f82a1ed39b7661088a954a94acbb85ac2e23c7d3a0c4665bec40ebf96b286e8511e9227d3678b2a41de26dfc38fa72393a043fc2 OP_CHECKSIG",
            "desc": "pk(041c6d9eaec82e917b98ca2d80f82a1ed39b7661088a954a94acbb85ac2e23c7d3a0c4665bec40ebf96b286e8511e9227d3678b2a41de26dfc38fa72393a043fc2)#w0w3930t",
            "hex": "41041c6d9eaec82e917b98ca2d80f82a1ed39b7661088a954a94acbb85ac2e23c7d3a0c4665bec40ebf96b286e8511e9227d3678b2a41de26dfc38fa72393a043fc2ac",
            "type": "pubkey"
          }
        }
      ],
      "hex": "01000000010000000000000000000000000000000000000000000000000000000000000000ffffffff0704ffff001d0107ffffffff0100f2052a010000004341041c6d9eaec82e917b98ca2d80f82a1ed39b7661088a954a94acbb85ac2e23c7d3a0c4665bec40ebf96b286e8511e9227d3678b2a41de26dfc38fa72393a043fc2ac00000000"
    }
  ]
}