{
  "hash": "00000000d9081d63277c46d063f6bb871bb5af31110646cd302aefcd20a2d760",
  "confirmations": 47556,
  "height": 5542,
  "version": 1,
  "versionHex": "00000001",
  "merkleroot": "9df954564753315a57d17898866f49dcedb74252e0e80a826b34cda0e01a467f",
  "time": 1235555005,
  "mediantime": 1235550657,
  "nonce": 91145811,
  "bits": "1d00ffff",
  "difficulty": 1,
  "chainwork": "000000000000000000000000000000000000000000000000000015a715a715a7",
  "nTx": 1,
  "previousblockhash": "000000009c927b3df26058a468ed1bdb924af1beeb6c5b673889b6d7ab816088",
  "nextblockhash": "00000000fc162dab7c86bc96fe1096616b9a725aca1f60dee71fe7922ab9990b",
  "strippedsize": 215,
  "size": 215,
  "weight": 860,
  "tx": [
    {
      "txid": "9df954564753315a57d17898866f49dcedb74252e0e80a826b34cda0e01a467f",
      "hash": "9df954564753315a57d17898866f49dcedb74252e0e80a826b34cda0e01a467f",
      "version": 1,
      "size": 134,
      "vsize": 134,
      "weight": 536,
      "locktime": 0,
      "vin": [
        {
          "coinbase": "04ffff001d0130",
          "sequence": 4294967295
        }
      ],
      "vout": [
        {
          "value": 50.0,
          "n": 0,
          "scriptPubKey": {
            "asm": "0488398e488add57573764d9b08715a6e82b9477c7ca774f9a4fc989e170fc3e5ae102f79b71883dbe6d8da3474a28a24ad187ffe69f6b27c4fedc2e28a2129e22 OP_CHECKSIG",
            "desc": "pk(0488398e488add57573764d9b08715a6e82b9477c7ca774f9a4fc989e170fc3e5ae102f79b71883dbe6d8da3474a28a24ad187ffe69f6b27c4fedc2e28a2129e22)#plrmfj97",
            "hex": "410488398e488add57573764d9b08715a6e82b9477c7ca774f9a4fc989e170fc3e5ae102f79b71883dbe6d8da3474a28a24ad187ffe69f6b27c4fedc2e28a2129e22ac",
            "type": "pubkey"
          }
        }
      ],
      "hex": "01000000010000000000000000000000000000000000000000000000000000000000000000ffffffff0704ffff001d0130ffffffff0100f2052a0100000043410488398e488add57573764d9b08715a6e82b9477c7ca774f9a4fc989e170fc3e5ae102f79b71883dbe6d8da3474a28a24ad187ffe69f6b27c4fedc2e28a2129e22ac00000000"
    }
  ]
}