{
  "hash": "00000000b850d126a3ebd95aa19350b3566f60b706e541af8fe1c9ee415e8e88",
  "confirmations": 47519,
  "height": 5579,
  "version": 1,
  "versionHex": "00000001",
  "merkleroot": "7dc149823ed321289a3cfb45f1252612098d09115949e3c95aae8837adcd462a",
  "time": 1235585398,
  "mediantime": 1235581808,
  "nonce": 289740288,
  "bits": "1d00ffff",
  "difficulty": 1,
  "chainwork": "000000000000000000000000000000000000000000000000000015cc15cc15cc",
  "nTx": 1,
  "previousblockhash": "000000005d22e55aa66ce06913bb76074424422fd40e27306ab103bdbd767210",
  "nextblockhash": "00000000760a45e73301d37ccfc01410ba9e102c30555ae8375d7d8970f07341",
  "strippedsize": 216,
  "size": 216,
  "weight": 864,
  "tx": [
    {
      "txid": "7dc149823ed321289a3cfb45f1252612098d09115949e3c95aae8837adcd462a",
      "hash": "7dc149823ed321289a3cfb45f1252612098d09115949e3c95aae8837adcd462a",
      "version": 1,
      "size": 135,
      "vsize": 135,
      "weight": 540,
      "locktime": 0,
      "vin": [
        {
          "coinbase": "04ffff001d023b07",
          "sequence": 4294967295
        }
      ],
      "vout": [
        {
          "value": 50.0,
          "n": 0,
          "scriptPubKey": {
            "asm": "047c118a1b77e80d696a6bab92c2189e24c3409ab9f250a4acd906ebb1887d7dd0f22958314e9ee9705317b98a6ced75ac2865528485955cb1244e80026b4157c6 OP_CHECKSIG",
            "desc": "pk(047c118a1b77e80d696a6bab92c2189e24c3409ab9f250a4acd906ebb1887d7dd0f22958314e9ee9705317b98a6ced75ac2865528485955cb1244e80026b4157c6)#mw4zc545",
            "hex": "41047c118a1b77e80d696a6bab92c2189e24c3409ab9f250a4acd906ebb1887d7dd0f22958314e9ee9705317b98a6ced75ac2865528485955cb1244e80026b4157c6ac",
            "type": "pubkey"
          }
        }
      ],
      "hex": "01000000010000000000000000000000000000000000000000000000000000000000000000ffffffff0804ffff001d023b07ffffffff0100f2052a010000004341047c118a1b77e80d696a6bab92c2189e24c3409ab9f250a4acd906ebb1887d7dd0f22958314e9ee9705317b98a6ced75ac2865528485955cb1244e80026b4157c6ac00000000"
    }
  ]
}