{
  "hash": "00000000ecffce6482a68bcd4f82511cbad2afd94d71469432501ca6a5f4811a",
  "confirmations": 52180,
  "height": 483,
  "version": 1,
  "versionHex": "00000001",
  "merkleroot": "39ed112558fd501424e3b33bbcbf853ef9f24536ef0f8e6fbad2f5c5098173ad",
  "time": 1231958131,
  "mediantime": 1231953545,
  "nonce": 3474366240,
  "bits": "1d00ffff",
  "difficulty": 1,
  "chainwork": "000000000000000000000000000000000000000000000000000001e401e401e4",
  "nTx": 1,
  "previousblockhash": "00000000351892a119b67fcb13dfc9655e79e91215f8f9609bb6907cd1208e4d",
  "nextblockhash": "000000005eb185e781c9980b7bf3001170c606c7534f4543cc931d1d66a2b205",
  "strippedsize": 216,
  "size": 216,
  "weight": 864,
  "tx": [
    {
      "txid": "39ed112558fd501424e3b33bbcbf853ef9f24536ef0f8e6fbad2f5c5098173ad",
      "hash": "39ed112558fd501424e3b33bbcbf853ef9f24536ef0f8e6fbad2f5c5098173ad",
      "version": 1,
      "size": 135,
      "vsize": 135,
      "weight": 540,
      "locktime": 0,
      "vin": [
        {
          "coinbase": "04ffff001d023304",
          "sequence": 4294967295
        }
      ],
      "vout": [
        {
          "value": 50.0,
          "n": 0,
          "scriptPubKey": {
            "asm": "046669fa7aa0167f2ec25f903e331668bf2b8f51aba721cb0dfd7857bd03836397e4d7da5d21830fc92c4b5606c94b1882d532d0806817f37c9942ddd987dc0482 OP_CHECKSIG",
            "desc": "pk(046669fa7aa0167f2ec25f903e331668bf2b8f51aba721cb0dfd7857bd03836397e4d7da5d21830fc92c4b5606c94b1882d532d0806817f37c9942ddd987dc0482)#arcw9hwn",
            "hex": "41046669fa7aa0167f2ec25f903e331668bf2b8f51aba721cb0dfd7857bd03836397e4d7da5d21830fc92c4b5606c94b1882d532d0806817f37c9942ddd987dc0482ac",
            "type": "pubkey"
          }
        }
      ],
      "hex": "01000000010000000000000000000000000000000000000000000000000000000000000000ffffffff0804ffff001d023304ffffffff0100f2052a010000004341046669fa7aa0167f2ec25f903e331668bf2b8f51aba721cb0dfd7857bd03836397e4d7da5d21830fc92c4b5606c94b1882d532d0806817f37c9942ddd987dc0482ac00000000"
    }
  ]
}