{
  "hash": "00000000f394b4b366c84301059474799b88243c32b800ed86376517fe27659e",
  "confirmations": 47364,
  "height": 5734,
  "version": 1,
  "versionHex": "00000001",
  "merkleroot": "fe88a20866132bc8e2348cadb5836d4a6bf4a46bd8adfc624e411f926b70ff56",
  "time": 1235710252,
  "mediantime": 1235705786,
  "nonce": 1571767044,
  "bits": "1d00ffff",
  "difficulty": 1,
  "chainwork": "0000000000000000000000000000000000000000000000000000166716671667",
  "nTx": 1,
  "previousblockhash": "00000000314d10afa32ee1e395604d6d5f30f5c7bfee78900077aa10884edaa8",
  "nextblockhash": "0000000070f032cc00f18102b806258afa380dede23345c2ef5220b6b8b2ef1b",
  "strippedsize": 216,
  "size": 216,
  "weight": 864,
  "tx": [
    {
      "txid": "fe88a20866132bc8e2348cadb5836d4a6bf4a46bd8adfc624e411f926b70ff56",
      "hash": "fe88a20866132bc8e2348cadb5836d4a6bf4a46bd8adfc624e411f926b70ff56",
      "version": 1,
      "size": 135,
      "vsize": 135,
      "weight": 540,
      "locktime": 0,
      "vin": [
        {
          "coinbase": "04ffff001d02f809",
          "sequence": 4294967295
        }
      ],
      "vout": [
        {
          "value": 50.0,
          "n": 0,
          "scriptPubKey": {
            "asm": "04add0d06b4164c360217d634dc052d9bc80b6f62e0f1a4d3ea8c72ca5fd904648210ebd6d785383930463fa87e411716eb49c56a5375bab14744dbd7be565be2f OP_CHECKSIG",
            "desc": "pk(04add0d06b4164c360217d634dc052d9bc80b6f62e0f1a4d3ea8c72ca5fd904648210ebd6d785383930463fa87e411716eb49c56a5375bab14744dbd7be565be2f)#dhzgfjvv",
            "hex": "4104add0d06b4164c360217d634dc052d9bc80b6f62e0f1a4d3ea8c72ca5fd904648210ebd6d785383930463fa87e411716eb49c56a5375bab14744dbd7be565be2fac",
            "type": "pubkey"
          }
        }
      ],
      "hex": "01000000010000000000000000000000000000000000000000000000000000000000000000ffffffff0804ffff001d02f809ffffffff0100f2052a01000000434104add0d06b4164c360217d634dc052d9bc80b6f62e0f1a4d3ea8c72ca5fd904648210ebd6d785383930463fa87e411716eb49c56a5375bab14744dbd7be565be2fac00000000"
    }
  ]
}