{
  "hash": "0000000099944783286a0d443b6ae43b177af9c85cd45174a3e4d3b15e1681f8",
  "confirmations": 47231,
  "height": 5867,
  "version": 1,
  "versionHex": "00000001",
  "merkleroot": "c4b23a70f4158c0b71902d9a588f77d0655ab0b5f8017409d4154b1fc9940342",
  "time": 1235814785,
  "mediantime": 1235810816,
  "nonce": 661964035,
  "bits": "1d00ffff",
  "difficulty": 1,
  "chainwork": "000000000000000000000000000000000000000000000000000016ec16ec16ec",
  "nTx": 1,
  "previousblockhash": "00000000103d8fdbf787e5863e15311de52d3aa924f1e93e80eb7552164b958b",
  "nextblockhash": "000000009bb83b66dc1addd894f80eb7066b32e3f753f83e970ea074d97ce248",
  "strippedsize": 216,
  "size": 216,
  "weight": 864,
  "tx": [
    {
      "txid": "c4b23a70f4158c0b71902d9a588f77d0655ab0b5f8017409d4154b1fc9940342",
      "hash": "c4b23a70f4158c0b71902d9a588f77d0655ab0b5f8017409d4154b1fc9940342",
      "version": 1,
      "size": 135,
      "vsize": 135,
      "weight": 540,
      "locktime": 0,
      "vin": [
        {
          "coinbase": "04ffff001d024502",
          "sequence": 4294967295
        }
      ],
      "vout": [
        {
          "value": 50.0,
          "n": 0,
          "scriptPubKey": {
            "asm": "042ad2788ef7a849e8eee541ead1652159a3580962784591f17aaf948b63d4d86da004abc56967ac7cd1682b96fc44392830c6c899c37ff408065134fdf10612f4 OP_CHECKSIG",
            "desc": "pk(042ad2788ef7a849e8eee541ead1652159a3580962784591f17aaf948b63d4d86da004abc56967ac7cd1682b96fc44392830c6c899c37ff408065134fdf10612f4)#jvvgma0l",
            "hex": "41042ad2788ef7a849e8eee541ead1652159a3580962784591f17aaf948b63d4d86da004abc56967ac7cd1682b96fc44392830c6c899c37ff408065134fdf10612f4ac",
            "type": "pubkey"
          }
        }
      ],
      "hex": "01000000010000000000000000000000000000000000000000000000000000000000000000ffffffff0804ffff001d024502ffffffff0100f2052a010000004341042ad2788ef7a849e8eee541ead1652159a3580962784591f17aaf948b63d4d86da004abc56967ac7cd1682b96fc44392830c6c899c37ff408065134fdf10612f4ac00000000"
    }
  ]
}