{
  "hash": "0000000073da1d6157fff6fe35c9afe2802cf564e908c63e0f092371e3687635",
  "confirmations": 48150,
  "height": 4948,
  "version": 1,
  "versionHex": "00000001",
  "merkleroot": "b1cf953ad67f2ddc2f6af64a7e2eb60617893dbf9d2172585e86dbf3dcd05dd4",
  "time": 1235103608,
  "mediantime": 1235099128,
  "nonce": 2886495030,
  "bits": "1d00ffff",
  "difficulty": 1,
  "chainwork": "0000000000000000000000000000000000000000000000000000135513551355",
  "nTx": 1,
  "previousblockhash": "00000000c9c89a55b2a873eca0e3cdd1bda9e3b546620aba787ead8ba7605bdc",
  "nextblockhash": "00000000a5bebaf3f15f2609884db5866d0a1de181c71b3e4c0f7aa0421cb6a8",
  "strippedsize": 216,
  "size": 216,
  "weight": 864,
  "tx": [
    {
      "txid": "b1cf953ad67f2ddc2f6af64a7e2eb60617893dbf9d2172585e86dbf3dcd05dd4",
      "hash": "b1cf953ad67f2ddc2f6af64a7e2eb60617893dbf9d2172585e86dbf3dcd05dd4",
      "version": 1,
      "size": 135,
      "vsize": 135,
      "weight": 540,
      "locktime": 0,
      "vin": [
        {
          "coinbase": "04ffff001d025b06",
          "sequence": 4294967295
        }
      ],
      "vout": [
        {
          "value": 50.0,
          "n": 0,
          "scriptPubKey": {
            "asm": "044282a4fb99108b28a8b94b53dd229c595d1887c1d6cc52c55851556f94658edbc9128740096c3ee59bf63e610270213e356271605f65355bcd58edb5bf5125b4 OP_CHECKSIG",
            "desc": "pk(044282a4fb99108b28a8b94b53dd229c595d1887c1d6cc52c55851556f94658edbc9128740096c3ee59bf63e610270213e356271605f65355bcd58edb5bf5125b4)#es7nycan",
            "hex": "41044282a4fb99108b28a8b94b53dd229c595d1887c1d6cc52c55851556f94658edbc9128740096c3ee59bf63e610270213e356271605f65355bcd58edb5bf5125b4ac",
            "type": "pubkey"
          }
        }
      ],
      "hex": "01000000010000000000000000000000000000000000000000000000000000000000000000ffffffff0804ffff001d025b06ffffffff0100f2052a010000004341044282a4fb99108b28a8b94b53dd229c595d1887c1d6cc52c55851556f94658edbc9128740096c3ee59bf63e610270213e356271605f65355bcd58edb5bf5125b4ac00000000"
    }
  ]
}