{
  "hash": "000000005265c5afb97e91a7961ea9861612d965e7714df0c9d38da02b59d8f8",
  "confirmations": 52216,
  "height": 402,
  "version": 1,
  "versionHex": "00000001",
  "merkleroot": "6564bbc764f693e45d0cc173e3b4b4ff20244e9dd6226fab1e3a3a9bcb3e1e5a",
  "time": 1231903283,
  "mediantime": 1231899618,
  "nonce": 1150490646,
  "bits": "1d00ffff",
  "difficulty": 1,
  "chainwork": "0000000000000000000000000000000000000000000000000000019301930193",
  "nTx": 1,
  "previousblockhash": "000000005bbced8d14a6ec258a8ab28ae980616e9820437cc3b6d3daff3b7d14",
  "nextblockhash": "0000000070e953b7a87dad93a8c63a5884f92ba7f53e38f9dc2b64e09e0b735a",
  "strippedsize": 216,
  "size": 216,
  "weight": 864,
  "tx": [
    {
      "txid": "6564bbc764f693e45d0cc173e3b4b4ff20244e9dd6226fab1e3a3a9bcb3e1e5a",
      "hash": "6564bbc764f693e45d0cc173e3b4b4ff20244e9dd6226fab1e3a3a9bcb3e1e5a",
      "version": 1,
      "size": 135,
      "vsize": 135,
      "weight": 540,
      "locktime": 0,
      "vin": [
        {
          "coinbase": "04ffff001d027e02",
          "sequence": 4294967295
        }
      ],
      "vout": [
        {
          "value": 50.0,
          "n": 0,
          "scriptPubKey": {
            "asm": "04c2c8240321a8b4664b8193c12771a4e29226199929e457110a243b05ff4e6be5d2d6940ec134dd8bad972a7a29de168f9b1e503d4969fdf16e4c5af6fd8157a6 OP_CHECKSIG",
            "desc": "pk(04c2c8240321a8b4664b8193c12771a4e29226199929e457110a243b05ff4e6be5d2d6940ec134dd8bad972a7a29de168f9b1e503d4969fdf16e4c5af6fd8157a6)#t7cwwhjp",
            "hex": "4104c2c8240321a8b4664b8193c12771a4e29226199929e457110a243b05ff4e6be5d2d6940ec134dd8bad972a7a29de168f9b1e503d4969fdf16e4c5af6fd8157a6ac",
            "type": "pubkey"
          }
        }
      ],
      "hex": "01000000010000000000000000000000000000000000000000000000000000000000000000ffffffff0804ffff001d027e02ffffffff0100f2052a01000000434104c2c8240321a8b4664b8193c12771a4e29226199929e457110a243b05ff4e6be5d2d6940ec134dd8bad972a7a29de168f9b1e503d4969fdf16e4c5af6fd8157a6ac00000000"
    }
  ]
}