{
  "hash": "00000000174f4dcbf9ce8f5af28ebcab270cabc9066c67fb2d856c1227111e0e",
  "confirmations": 51737,
  "height": 1361,
  "version": 1,
  "versionHex": "00000001",
  "merkleroot": "b41b0add4cb37eb0389026e7ea0c5ec0cedd30b877623aa899467f1f1895ad65",
  "time": 1232652104,
  "mediantime": 1232647460,
  "nonce": 2195782916,
  "bits": "1d00ffff",
  "difficulty": 1,
  "chainwork": "0000000000000000000000000000000000000000000000000000055205520552",
  "nTx": 1,
  "previousblockhash": "00000000d0b483c7e7ba3ac75e979d6d42a173ce40f6dd0428903a400b032450",
  "nextblockhash": "000000009519f6eda3a12664c94d7577f34f880e8efc5f6908642a53c064fd73",
  "strippedsize": 216,
  "size": 216,
  "weight": 864,
  "tx": [
    {
      "txid": "b41b0add4cb37eb0389026e7ea0c5ec0cedd30b877623aa899467f1f1895ad65",
      "hash": "b41b0add4cb37eb0389026e7ea0c5ec0cedd30b877623aa899467f1f1895ad65",
      "version": 1,
      "size": 135,
      "vsize": 135,
      "weight": 540,
      "locktime": 0,
      "vin": [
        {
          "coinbase": "04ffff001d025c01",
          "sequence": 4294967295
        }
      ],
      "vout": [
        {
          "value": 50.0,
          "n": 0,
          "scriptPubKey": {
            "asm": "047832497ee7c45d5e73870b6885ed1b28d01a2a37009ded3676f696552170eb9a5bf7b21c9cc6e72a25ded64e56f956debfd47da405de910466a2d5fbc6d0b125 OP_CHECKSIG",
            "desc": "pk(047832497ee7c45d5e73870b6885ed1b28d01a2a37009ded3676f696552170eb9a5bf7b21c9cc6e72a25ded64e56f956debfd47da405de910466a2d5fbc6d0b125)#s2qv3gvl",
            "hex": "41047832497ee7c45d5e73870b6885ed1b28d01a2a37009ded3676f696552170eb9a5bf7b21c9cc6e72a25ded64e56f956debfd47da405de910466a2d5fbc6d0b125ac",
            "type": "pubkey"
          }
        }
      ],
      "hex": "01000000010000000000000000000000000000000000000000000000000000000000000000ffffffff0804ffff001d025c01ffffffff0100f2052a010000004341047832497ee7c45d5e73870b6885ed1b28d01a2a37009ded3676f696552170eb9a5bf7b21c9cc6e72a25ded64e56f956debfd47da405de910466a2d5fbc6d0b125ac00000000"
    }
  ]
}