{
  "hash": "00000000eec9714483685a04a58d487d758eadf0b0b15d9db38dd632ccb106f8",
  "confirmations": 52185,
  "height": 913,
  "version": 1,
  "versionHex": "00000001",
  "merkleroot": "ce824c3fead5f6f5f9e4d9f8e2e54c156814c565231c79070926bd8c51dea866",
  "time": 1232286892,
  "mediantime": 1232282025,
  "nonce": 86745304,
  "bits": "1d00ffff",
  "difficulty": 1,
  "chainwork": "0000000000000000000000000000000000000000000000000000039203920392",
  "nTx": 1,
  "previousblockhash": "000000003e9034ddb56d81bcdcd618118875ddf6d5786f85cb0ed988fdf7c7d4",
  "nextblockhash": "00000000f7b6ea92bd64f943a327f6b19ed7799c42a7e284ba6ec1888289a87e",
  "strippedsize": 215,
  "size": 215,
  "weight": 860,
  "tx": [
    {
      "txid": "ce824c3fead5f6f5f9e4d9f8e2e54c156814c565231c79070926bd8c51dea866",
      "hash": "ce824c3fead5f6f5f9e4d9f8e2e54c156814c565231c79070926bd8c51dea866",
      "version": 1,
      "size": 134,
      "vsize": 134,
      "weight": 536,
      "locktime": 0,
      "vin": [
        {
          "coinbase": "04ffff001d0178",
          "sequence": 4294967295
        }
      ],
      "vout": [
        {
          "value": 50.0,
          "n": 0,
          "scriptPubKey": {
            "asm": "04e53e82cea4edf62e6d5482c6a7922b97f40af780c86072cf7fb6db8a05e6e38e5328a6fd3c28cfcba9f8d00e9982d531fdcc07cd00fb9058db8b51a275b256f5 OP_CHECKSIG",
            "desc": "pk(04e53e82cea4edf62e6d5482c6a7922b97f40af780c86072cf7fb6db8a05e6e38e5328a6fd3c28cfcba9f8d00e9982d531fdcc07cd00fb9058db8b51a275b256f5)#mat2yegw",
            "hex": "4104e53e82cea4edf62e6d5482c6a7922b97f40af780c86072cf7fb6db8a05e6e38e5328a6fd3c28cfcba9f8d00e9982d531fdcc07cd00fb9058db8b51a275b256f5ac",
            "type": "pubkey"
          }
        }
      ],
      "hex": "01000000010000000000000000000000000000000000000000000000000000000000000000ffffffff0704ffff001d0178ffffffff0100f2052a01000000434104e53e82cea4edf62e6d5482c6a7922b97f40af780c86072cf7fb6db8a05e6e38e5328a6fd3c28cfcba9f8d00e9982d531fdcc07cd00fb9058db8b51a275b256f5ac00000000"
    }
  ]
}