{
  "hash": "00000000770b9deaf4fbe2bc6f47a80373786a5b8ec6c699079f21ae0beb7ff1",
  "confirmations": 44124,
  "height": 8974,
  "version": 1,
  "versionHex": "00000001",
  "merkleroot": "7504c333e2212237c7d4386fdd7927fa2a69760322aeb7d9997eddb1a31503b5",
  "time": 1238234202,
  "mediantime": 1238231150,
  "nonce": 3607489328,
  "bits": "1d00ffff",
  "difficulty": 1,
  "chainwork": "0000000000000000000000000000000000000000000000000000230f230f230f",
  "nTx": 1,
  "previousblockhash": "00000000156fd2cf2dd0589f39c323f99b934d0b08fd1188976c69b53842390d",
  "nextblockhash": "00000000f9f2eff4d24b4f63c6b86c04b54622e7727f820df1d3a8c0cb70344e",
  "strippedsize": 216,
  "size": 216,
  "weight": 864,
  "tx": [
    {
      "txid": "7504c333e2212237c7d4386fdd7927fa2a69760322aeb7d9997eddb1a31503b5",
      "hash": "7504c333e2212237c7d4386fdd7927fa2a69760322aeb7d9997eddb1a31503b5",
      "version": 1,
      "size": 135,
      "vsize": 135,
      "weight": 540,
      "locktime": 0,
      "vin": [
        {
          "coinbase": "04ffff001d020a06",
          "sequence": 4294967295
        }
      ],
      "vout": [
        {
          "value": 50.0,
          "n": 0,
          "scriptPubKey": {
            "asm": "04a80ed0e4af367eb5dbdca5f7424784d55bef8c307a069385de22eaec3267e001baba50f983c83fed67a288b6dcd105240dbc9f7b7f22ff11af543ea3c7cbcbcb OP_CHECKSIG",
            "desc": "pk(04a80ed0e4af367eb5dbdca5f7424784d55bef8c307a069385de22eaec3267e001baba50f983c83fed67a288b6dcd105240dbc9f7b7f22ff11af543ea3c7cbcbcb)#wfk69qv5",
            "hex": "4104a80ed0e4af367eb5dbdca5f7424784d55bef8c307a069385de22eaec3267e001baba50f983c83fed67a288b6dcd105240dbc9f7b7f22ff11af543ea3c7cbcbcbac",
            "type": "pubkey"
          }
        }
      ],
      "hex": "01000000010000000000000000000000000000000000000000000000000000000000000000ffffffff0804ffff001d020a06ffffffff0100f2052a01000000434104a80ed0e4af367eb5dbdca5f7424784d55bef8c307a069385de22eaec3267e001baba50f983c83fed67a288b6dcd105240dbc9f7b7f22ff11af543ea3c7cbcbcbac00000000"
    }
  ]
}