{
  "hash": "0000000063711ec944b72f90125bed39f840752b394b42d95ccba0cf0a61dcd7",
  "confirmations": 44500,
  "height": 8598,
  "version": 1,
  "versionHex": "00000001",
  "merkleroot": "8e63e9c98e2eff7e0ab7ac77cb3ebc35d5fbee89691e92c6563cbc1df4028b3f",
  "time": 1237948877,
  "mediantime": 1237946907,
  "nonce": 1959437618,
  "bits": "1d00ffff",
  "difficulty": 1,
  "chainwork": "0000000000000000000000000000000000000000000000000000219721972197",
  "nTx": 1,
  "previousblockhash": "000000005aa8a9d638da96e3718740efd14361e73beba28e0d44ba9b4757d5cc",
  "nextblockhash": "0000000049819c3168a4ef325de04fe528114a5ecca846549a643d8a8a74c383",
  "strippedsize": 216,
  "size": 216,
  "weight": 864,
  "tx": [
    {
      "txid": "8e63e9c98e2eff7e0ab7ac77cb3ebc35d5fbee89691e92c6563cbc1df4028b3f",
      "hash": "8e63e9c98e2eff7e0ab7ac77cb3ebc35d5fbee89691e92c6563cbc1df4028b3f",
      "version": 1,
      "size": 135,
      "vsize": 135,
      "weight": 540,
      "locktime": 0,
      "vin": [
        {
          "coinbase": "04ffff001d027209",
          "sequence": 4294967295
        }
      ],
      "vout": [
        {
          "value": 50.0,
          "n": 0,
          "scriptPubKey": {
            "asm": "0492ff804b7022d8ebcd15fc514c7d077edf16711820014bc886410e957c3fc82988fd1693a5fbe14a3e97b00ec200395a7fc3a4e86c13918debc60e41daba7f4c OP_CHECKSIG",
            "desc": "pk(0492ff804b7022d8ebcd15fc514c7d077edf16711820014bc886410e957c3fc82988fd1693a5fbe14a3e97b00ec200395a7fc3a4e86c13918debc60e41daba7f4c)#aucmr27n",
            "hex": "410492ff804b7022d8ebcd15fc514c7d077edf16711820014bc886410e957c3fc82988fd1693a5fbe14a3e97b00ec200395a7fc3a4e86c13918debc60e41daba7f4cac",
            "type": "pubkey"
          }
        }
      ],
      "hex": "01000000010000000000000000000000000000000000000000000000000000000000000000ffffffff0804ffff001d027209ffffffff0100f2052a0100000043410492ff804b7022d8ebcd15fc514c7d077edf16711820014bc886410e957c3fc82988fd1693a5fbe14a3e97b00ec200395a7fc3a4e86c13918debc60e41daba7f4cac00000000"
    }
  ]
}