{
  "hash": "00000000a1026027f415d4addcf74ed216156ad496bc38ff6e7ee0df93ef7399",
  "confirmations": 47225,
  "height": 5873,
  "version": 1,
  "versionHex": "00000001",
  "merkleroot": "e1eeaae0a74ae59bcef2e559e71010c9cbb928028f1be7f233ddce6e76018116",
  "time": 1235821691,
  "mediantime": 1235816269,
  "nonce": 2116307502,
  "bits": "1d00ffff",
  "difficulty": 1,
  "chainwork": "000000000000000000000000000000000000000000000000000016f216f216f2",
  "nTx": 1,
  "previousblockhash": "00000000a23802670c853f5b77391aa86fbd64f7365ed672486b7f7061700d23",
  "nextblockhash": "00000000850d32f1b3cd207632b5a657b2f0b2de9bf34da0d18bc8a5f20e25c3",
  "strippedsize": 216,
  "size": 216,
  "weight": 864,
  "tx": [
    {
      "txid": "e1eeaae0a74ae59bcef2e559e71010c9cbb928028f1be7f233ddce6e76018116",
      "hash": "e1eeaae0a74ae59bcef2e559e71010c9cbb928028f1be7f233ddce6e76018116",
      "version": 1,
      "size": 135,
      "vsize": 135,
      "weight": 540,
      "locktime": 0,
      "vin": [
        {
          "coinbase": "04ffff001d028402",
          "sequence": 4294967295
        }
      ],
      "vout": [
        {
          "value": 50.0,
          "n": 0,
          "scriptPubKey": {
            "asm": "0497b81116ca5d3614841205f118700567814aae9817ecc367de21af08121735c4f52abbf38c66122eba297b1723f1997699f6d04fad6905b80b4240fc9584fa77 OP_CHECKSIG",
            "desc": "pk(0497b81116ca5d3614841205f118700567814aae9817ecc367de21af08121735c4f52abbf38c66122eba297b1723f1997699f6d04fad6905b80b4240fc9584fa77)#hrlqtn2q",
            "hex": "410497b81116ca5d3614841205f118700567814aae9817ecc367de21af08121735c4f52abbf38c66122eba297b1723f1997699f6d04fad6905b80b4240fc9584fa77ac",
            "type": "pubkey"
          }
        }
      ],
      "hex": "01000000010000000000000000000000000000000000000000000000000000000000000000ffffffff0804ffff001d028402ffffffff0100f2052a0100000043410497b81116ca5d3614841205f118700567814aae9817ecc367de21af08121735c4f52abbf38c66122eba297b1723f1997699f6d04fad6905b80b4240fc9584fa77ac00000000"
    }
  ]
}