{
  "hash": "0000000034c59968f1bb96647eb16e741d0112c6894c22d9702423250f5ca846",
  "confirmations": 43163,
  "height": 9935,
  "version": 1,
  "versionHex": "00000001",
  "merkleroot": "04679af07dd2c121254208fe71078ff636ea5906f23747c4de6465ee88f003d4",
  "time": 1238945435,
  "mediantime": 1238942154,
  "nonce": 16434097,
  "bits": "1d00ffff",
  "difficulty": 1,
  "chainwork": "000000000000000000000000000000000000000000000000000026d026d026d0",
  "nTx": 1,
  "previousblockhash": "000000009334f65e2626c63d44b3cfd5be8dd8980ed703374ec054620e27c67e",
  "nextblockhash": "000000003ef1a1b4c1ca5887c90ac1a0d44584e4373f92aa7eddb52a5a582014",
  "strippedsize": 216,
  "size": 216,
  "weight": 864,
  "tx": [
    {
      "txid": "04679af07dd2c121254208fe71078ff636ea5906f23747c4de6465ee88f003d4",
      "hash": "04679af07dd2c121254208fe71078ff636ea5906f23747c4de6465ee88f003d4",
      "version": 1,
      "size": 135,
      "vsize": 135,
      "weight": 540,
      "locktime": 0,
      "vin": [
        {
          "coinbase": "04ffff001d02be00",
          "sequence": 4294967295
        }
      ],
      "vout": [
        {
          "value": 50.0,
          "n": 0,
          "scriptPubKey": {
            "asm": "04fea98d0ebe49f909a34ae11cd8f26dc20bbdc625a5d55123b9869a129524d504db8ec7598585ef710f34956a37e36bf0f5ea72df304c505ef3e7bb7baefb5491 OP_CHECKSIG",
            "desc": "pk(04fea98d0ebe49f909a34ae11cd8f26dc20bbdc625a5d55123b9869a129524d504db8ec7598585ef710f34956a37e36bf0f5ea72df304c505ef3e7bb7baefb5491)#k2g5mrqp",
            "hex": "4104fea98d0ebe49f909a34ae11cd8f26dc20bbdc625a5d55123b9869a129524d504db8ec7598585ef710f34956a37e36bf0f5ea72df304c505ef3e7bb7baefb5491ac",
            "type": "pubkey"
          }
        }
      ],
      "hex": "01000000010000000000000000000000000000000000000000000000000000000000000000ffffffff0804ffff001d02be00ffffffff0100f2052a01000000434104fea98d0ebe49f909a34ae11cd8f26dc20bbdc625a5d55123b9869a129524d504db8ec7598585ef710f34956a37e36bf0f5ea72df304c505ef3e7bb7baefb5491ac00000000"
    }
  ]
}