{
  "hash": "0000000090fd8059294d0cf84fd0278e8c618ca0ad09f712c0ec6c22fc216df0",
  "confirmations": 52379,
  "height": 719,
  "version": 1,
  "versionHex": "00000001",
  "merkleroot": "670ebd382379ffd751b0ef144f819223faac4af29c13cdc2bba71a092b2e8ec9",
  "time": 1232125432,
  "mediantime": 1232119917,
  "nonce": 3525052932,
  "bits": "1d00ffff",
  "difficulty": 1,
  "chainwork": "000000000000000000000000000000000000000000000000000002d002d002d0",
  "nTx": 1,
  "previousblockhash": "000000000992f083d79cdd428b664ce97105c57fdc63049371bfa98c28dbbc79",
  "nextblockhash": "00000000a6657c121ed645db8a0e48cec4fde2f4a020d7322dc62071d8f8bc2e",
  "strippedsize": 215,
  "size": 215,
  "weight": 860,
  "tx": [
    {
      "txid": "670ebd382379ffd751b0ef144f819223faac4af29c13cdc2bba71a092b2e8ec9",
      "hash": "670ebd382379ffd751b0ef144f819223faac4af29c13cdc2bba71a092b2e8ec9",
      "version": 1,
      "size": 134,
      "vsize": 134,
      "weight": 536,
      "locktime": 0,
      "vin": [
        {
          "coinbase": "04ffff001d0112",
          "sequence": 4294967295
        }
      ],
      "vout": [
        {
          "value": 50.0,
          "n": 0,
          "scriptPubKey": {
            "asm": "04ecf283fea68ef246e68bd697f098843f432d949c02213d02a7a23e7f122b4939194a8bb21b0cffced639bb32fe05befda1abc73bec456412fb157de103d10b81 OP_CHECKSIG",
            "desc": "pk(04ecf283fea68ef246e68bd697f098843f432d949c02213d02a7a23e7f122b4939194a8bb21b0cffced639bb32fe05befda1abc73bec456412fb157de103d10b81)#8rrfuyam",
            "hex": "4104ecf283fea68ef246e68bd697f098843f432d949c02213d02a7a23e7f122b4939194a8bb21b0cffced639bb32fe05befda1abc73bec456412fb157de103d10b81ac",
            "type": "pubkey"
          }
        }
      ],
      "hex": "01000000010000000000000000000000000000000000000000000000000000000000000000ffffffff0704ffff001d0112ffffffff0100f2052a01000000434104ecf283fea68ef246e68bd697f098843f432d949c02213d02a7a23e7f122b4939194a8bb21b0cffced639bb32fe05befda1abc73bec456412fb157de103d10b81ac00000000"
    }
  ]
}