{
  "hash": "000000000d1a13f38e7174bd1eb3a87c0690511759b46b601fe452f319b09e4d",
  "confirmations": 48104,
  "height": 4994,
  "version": 1,
  "versionHex": "00000001",
  "merkleroot": "aece4b973961af65b794e90060736714a24eca014455041099f05cc64fe3f763",
  "time": 1235132889,
  "mediantime": 1235131193,
  "nonce": 26505859,
  "bits": "1d00ffff",
  "difficulty": 1,
  "chainwork": "0000000000000000000000000000000000000000000000000000138313831383",
  "nTx": 1,
  "previousblockhash": "0000000039ec9a320d22da935ddace441e1f9b3827c33d693d366fb6a788a818",
  "nextblockhash": "000000007dce0a462058ba41965c44be67766dffd42b87f02804a4f257bd3ad2",
  "strippedsize": 215,
  "size": 215,
  "weight": 860,
  "tx": [
    {
      "txid": "aece4b973961af65b794e90060736714a24eca014455041099f05cc64fe3f763",
      "hash": "aece4b973961af65b794e90060736714a24eca014455041099f05cc64fe3f763",
      "version": 1,
      "size": 134,
      "vsize": 134,
      "weight": 536,
      "locktime": 0,
      "vin": [
        {
          "coinbase": "04ffff001d0106",
          "sequence": 4294967295
        }
      ],
      "vout": [
        {
          "value": 50.0,
          "n": 0,
          "scriptPubKey": {
            "asm": "048e4882a2c7ffa9bf1b0228b96a8854ca34c403894097f4f1c60dd10fc04bcb0a9612eb705eebb119ad458dd9a41a1252932b530339391c0fe6840f6345bfbff5 OP_CHECKSIG",
            "desc": "pk(048e4882a2c7ffa9bf1b0228b96a8854ca34c403894097f4f1c60dd10fc04bcb0a9612eb705eebb119ad458dd9a41a1252932b530339391c0fe6840f6345bfbff5)#wh7t6w2s",
            "hex": "41048e4882a2c7ffa9bf1b0228b96a8854ca34c403894097f4f1c60dd10fc04bcb0a9612eb705eebb119ad458dd9a41a1252932b530339391c0fe6840f6345bfbff5ac",
            "type": "pubkey"
          }
        }
      ],
      "hex": "01000000010000000000000000000000000000000000000000000000000000000000000000ffffffff0704ffff001d0106ffffffff0100f2052a010000004341048e4882a2c7ffa9bf1b0228b96a8854ca34c403894097f4f1c60dd10fc04bcb0a9612eb705eebb119ad458dd9a41a1252932b530339391c0fe6840f6345bfbff5ac00000000"
    }
  ]
}