{
  "hash": "000000005ace701abaa540d44bd4aaee7dd2a9c631f2d3ca9dc18682c2f0a110",
  "confirmations": 43451,
  "height": 9647,
  "version": 1,
  "versionHex": "00000001",
  "merkleroot": "205dab8e96aecc3a9ac15e91bdbad9b52268adf1b055ac5aed810d4bacf435b5",
  "time": 1238738393,
  "mediantime": 1238733267,
  "nonce": 121262376,
  "bits": "1d00ffff",
  "difficulty": 1,
  "chainwork": "000000000000000000000000000000000000000000000000000025b025b025b0",
  "nTx": 1,
  "previousblockhash": "00000000c15b8557411726e9a63c3963c4e21564f27f4c51953d0762a1a64d0d",
  "nextblockhash": "00000000cfc1106fedfe17720e78aaa65f8cc72cc83a216604666f5a738b0b8b",
  "strippedsize": 215,
  "size": 215,
  "weight": 860,
  "tx": [
    {
      "txid": "205dab8e96aecc3a9ac15e91bdbad9b52268adf1b055ac5aed810d4bacf435b5",
      "hash": "205dab8e96aecc3a9ac15e91bdbad9b52268adf1b055ac5aed810d4bacf435b5",
      "version": 1,
      "size": 134,
      "vsize": 134,
      "weight": 536,
      "locktime": 0,
      "vin": [
        {
          "coinbase": "04ffff001d0121",
          "sequence": 4294967295
        }
      ],
      "vout": [
        {
          "value": 50.0,
          "n": 0,
          "scriptPubKey": {
            "asm": "04b2a790da28976cf60941e9f9044bc1b649afd049ebe488a4997824f25f54f61b1878f296771a5ea4a4180130e4a197d98646c795011c0fe6a8d32cb572abee9e OP_CHECKSIG",
            "desc": "pk(04b2a790da28976cf60941e9f9044bc1b649afd049ebe488a4997824f25f54f61b1878f296771a5ea4a4180130e4a197d98646c795011c0fe6a8d32cb572abee9e)#dd2ldmn4",
            "hex": "4104b2a790da28976cf60941e9f9044bc1b649afd049ebe488a4997824f25f54f61b1878f296771a5ea4a4180130e4a197d98646c795011c0fe6a8d32cb572abee9eac",
            "type": "pubkey"
          }
        }
      ],
      "hex": "01000000010000000000000000000000000000000000000000000000000000000000000000ffffffff0704ffff001d0121ffffffff0100f2052a01000000434104b2a790da28976cf60941e9f9044bc1b649afd049ebe488a4997824f25f54f61b1878f296771a5ea4a4180130e4a197d98646c795011c0fe6a8d32cb572abee9eac00000000"
    }
  ]
}