{
  "hash": "00000000d2b9d5dbe0ce0c18739a9e237438db82d98b98c9449dc3d4ab2994e3",
  "confirmations": 51557,
  "height": 1541,
  "version": 1,
  "versionHex": "00000001",
  "merkleroot": "c665a387cbd7cdc79b70019c1f722d41a9f33f6fd0b01c2426af49f61be2179b",
  "time": 1232784479,
  "mediantime": 1232782688,
  "nonce": 3639891745,
  "bits": "1d00ffff",
  "difficulty": 1,
  "chainwork": "0000000000000000000000000000000000000000000000000000060606060606",
  "nTx": 1,
  "previousblockhash": "00000000e2a77c0f42ed41ebbe18a40cebd8b2b473d31de6ce098f2d0e608bef",
  "nextblockhash": "00000000c00a1eb009cbfe369b501a87547c9760dab9be33a10c6066d0947a0d",
  "strippedsize": 216,
  "size": 216,
  "weight": 864,
  "tx": [
    {
      "txid": "c665a387cbd7cdc79b70019c1f722d41a9f33f6fd0b01c2426af49f61be2179b",
      "hash": "c665a387cbd7cdc79b70019c1f722d41a9f33f6fd0b01c2426af49f61be2179b",
      "version": 1,
      "size": 135,
      "vsize": 135,
      "weight": 540,
      "locktime": 0,
      "vin": [
        {
          "coinbase": "04ffff001d029801",
          "sequence": 4294967295
        }
      ],
      "vout": [
        {
          "value": 50.0,
          "n": 0,
          "scriptPubKey": {
            "asm": "0402eecf32569b2eea20c53732a6288622b7138ecb65c0618f86c9574c3f618d692fa3c6f4abfd4c49d537b66077a9c2f90994827925b691623f645bebf9f4a806 OP_CHECKSIG",
            "desc": "pk(0402eecf32569b2eea20c53732a6288622b7138ecb65c0618f86c9574c3f618d692fa3c6f4abfd4c49d537b66077a9c2f90994827925b691623f645bebf9f4a806)#9je3ufsg",
            "hex": "410402eecf32569b2eea20c53732a6288622b7138ecb65c0618f86c9574c3f618d692fa3c6f4abfd4c49d537b66077a9c2f90994827925b691623f645bebf9f4a806ac",
            "type": "pubkey"
          }
        }
      ],
      "hex": "01000000010000000000000000000000000000000000000000000000000000000000000000ffffffff0804ffff001d029801ffffffff0100f2052a0100000043410402eecf32569b2eea20c53732a6288622b7138ecb65c0618f86c9574c3f618d692fa3c6f4abfd4c49d537b66077a9c2f90994827925b691623f645bebf9f4a806ac00000000"
    }
  ]
}