{
  "hash": "000000009d65522d29ae00f24ccc272fb66a97962440b2fd8aa0ca04bd1744ab",
  "confirmations": 50397,
  "height": 2701,
  "version": 1,
  "versionHex": "00000001",
  "merkleroot": "462fa1c2ec086491d0b5a1a5f0b15dd8ec9847e84d193c19ec7f246d0354b702",
  "time": 1233562015,
  "mediantime": 1233557681,
  "nonce": 822170371,
  "bits": "1d00ffff",
  "difficulty": 1,
  "chainwork": "00000000000000000000000000000000000000000000000000000a8e0a8e0a8e",
  "nTx": 1,
  "previousblockhash": "000000001731f7bb532ebd8ff11c253f128a9e3108eaf038d8155fedeba5bc0c",
  "nextblockhash": "000000003a230554eeafcf23be3d2d283d5c93a5750d13f77c1b6f343e9dd2d9",
  "strippedsize": 216,
  "size": 216,
  "weight": 864,
  "tx": [
    {
      "txid": "462fa1c2ec086491d0b5a1a5f0b15dd8ec9847e84d193c19ec7f246d0354b702",
      "hash": "462fa1c2ec086491d0b5a1a5f0b15dd8ec9847e84d193c19ec7f246d0354b702",
      "version": 1,
      "size": 135,
      "vsize": 135,
      "weight": 540,
      "locktime": 0,
      "vin": [
        {
          "coinbase": "04ffff001d02c504",
          "sequence": 4294967295
        }
      ],
      "vout": [
        {
          "value": 50.0,
          "n": 0,
          "scriptPubKey": {
            "asm": "044e7e382bf4dc83e2b48c53bbd1dac06252d6407ee9fa26bb1a404a10c54d0fa61ea2cf3dd7cf44eb448886e579c726e8a5b8b26eb2f99afa52694d9a425d0f2f OP_CHECKSIG",
            "desc": "pk(044e7e382bf4dc83e2b48c53bbd1dac06252d6407ee9fa26bb1a404a10c54d0fa61ea2cf3dd7cf44eb448886e579c726e8a5b8b26eb2f99afa52694d9a425d0f2f)#nkqhsdvt",
            "hex": "41044e7e382bf4dc83e2b48c53bbd1dac06252d6407ee9fa26bb1a404a10c54d0fa61ea2cf3dd7cf44eb448886e579c726e8a5b8b26eb2f99afa52694d9a425d0f2fac",
            "type": "pubkey"
          }
        }
      ],
      "hex": "01000000010000000000000000000000000000000000000000000000000000000000000000ffffffff0804ffff001d02c504ffffffff0100f2052a010000004341044e7e382bf4dc83e2b48c53bbd1dac06252d6407ee9fa26bb1a404a10c54d0fa61ea2cf3dd7cf44eb448886e579c726e8a5b8b26eb2f99afa52694d9a425d0f2fac00000000"
    }
  ]
}