{
  "hash": "00000000a6b938f2407fa173d034c9da999e8f82ff27503edca069b88dd9b1c0",
  "confirmations": 44298,
  "height": 8800,
  "version": 1,
  "versionHex": "00000001",
  "merkleroot": "654fb1ffd43bb8d326d91edae45ba7795d99769750a68b9dcd69ab9ac0fb01fe",
  "time": 1238100809,
  "mediantime": 1238097128,
  "nonce": 1340158006,
  "bits": "1d00ffff",
  "difficulty": 1,
  "chainwork": "0000000000000000000000000000000000000000000000000000226122612261",
  "nTx": 1,
  "previousblockhash": "00000000499539b7daa6092db8fc9e937d5021fe196d5e909686e75cfe7af045",
  "nextblockhash": "0000000074b5bae4abdc95e88f7e12e68987856cbb384d61c3355bc2b9be4b9b",
  "strippedsize": 216,
  "size": 216,
  "weight": 864,
  "tx": [
    {
      "txid": "654fb1ffd43bb8d326d91edae45ba7795d99769750a68b9dcd69ab9ac0fb01fe",
      "hash": "654fb1ffd43bb8d326d91edae45ba7795d99769750a68b9dcd69ab9ac0fb01fe",
      "version": 1,
      "size": 135,
      "vsize": 135,
      "weight": 540,
      "locktime": 0,
      "vin": [
        {
          "coinbase": "04ffff001d02cc02",
          "sequence": 4294967295
        }
      ],
      "vout": [
        {
          "value": 50.0,
          "n": 0,
          "scriptPubKey": {
            "asm": "04277e5d78cd81b132fb42ebb2382ddf6220f1d08d914f72722873f16b51f9db0e251e012de091e8652ce739806e6ace6346ff2bde98b3d795c735b076ad8e2be0 OP_CHECKSIG",
            "desc": "pk(04277e5d78cd81b132fb42ebb2382ddf6220f1d08d914f72722873f16b51f9db0e251e012de091e8652ce739806e6ace6346ff2bde98b3d795c735b076ad8e2be0)#qyfllglm",
            "hex": "4104277e5d78cd81b132fb42ebb2382ddf6220f1d08d914f72722873f16b51f9db0e251e012de091e8652ce739806e6ace6346ff2bde98b3d795c735b076ad8e2be0ac",
            "type": "pubkey"
          }
        }
      ],
      "hex": "01000000010000000000000000000000000000000000000000000000000000000000000000ffffffff0804ffff001d02cc02ffffffff0100f2052a01000000434104277e5d78cd81b132fb42ebb2382ddf6220f1d08d914f72722873f16b51f9db0e251e012de091e8652ce739806e6ace6346ff2bde98b3d795c735b076ad8e2be0ac00000000"
    }
  ]
}