{
  "hash": "00000000d483f00655cae8c9467bb5d77469b61d64a7f79dd6d53c7b20a0b6bb",
  "confirmations": 45957,
  "height": 7141,
  "version": 1,
  "versionHex": "00000001",
  "merkleroot": "c576cdc2538bf0f426907502446ee44a4bba4d1fcf214a676637d123b68b2646",
  "time": 1236827200,
  "mediantime": 1236822354,
  "nonce": 297020716,
  "bits": "1d00ffff",
  "difficulty": 1,
  "chainwork": "00000000000000000000000000000000000000000000000000001be61be61be6",
  "nTx": 1,
  "previousblockhash": "00000000f5b28582ec2c9a0dfda17a1d79b7d3832e135db5d9ca537fa8c471eb",
  "nextblockhash": "000000004b7c186e1ab61f6bbc008236e1e78717620c18046a2f5c4e633072c2",
  "strippedsize": 216,
  "size": 216,
  "weight": 864,
  "tx": [
    {
      "txid": "c576cdc2538bf0f426907502446ee44a4bba4d1fcf214a676637d123b68b2646",
      "hash": "c576cdc2538bf0f426907502446ee44a4bba4d1fcf214a676637d123b68b2646",
      "version": 1,
      "size": 135,
      "vsize": 135,
      "weight": 540,
      "locktime": 0,
      "vin": [
        {
          "coinbase": "04ffff001d02d304",
          "sequence": 4294967295
        }
      ],
      "vout": [
        {
          "value": 50.0,
          "n": 0,
          "scriptPubKey": {
            "asm": "0424853a67e0a06b7bdd9f2a5932c9f3267a4232a766e91b38f86a584e690b6d466faf34f57c9e6a4c47d10a329e7b9152b44df78362819f5bfcddff47c13e45a4 OP_CHECKSIG",
            "desc": "pk(0424853a67e0a06b7bdd9f2a5932c9f3267a4232a766e91b38f86a584e690b6d466faf34f57c9e6a4c47d10a329e7b9152b44df78362819f5bfcddff47c13e45a4)#982anz7v",
            "hex": "410424853a67e0a06b7bdd9f2a5932c9f3267a4232a766e91b38f86a584e690b6d466faf34f57c9e6a4c47d10a329e7b9152b44df78362819f5bfcddff47c13e45a4ac",
            "type": "pubkey"
          }
        }
      ],
      "hex": "01000000010000000000000000000000000000000000000000000000000000000000000000ffffffff0804ffff001d02d304ffffffff0100f2052a0100000043410424853a67e0a06b7bdd9f2a5932c9f3267a4232a766e91b38f86a584e690b6d466faf34f57c9e6a4c47d10a329e7b9152b44df78362819f5bfcddff47c13e45a4ac00000000"
    }
  ]
}