{
  "hash": "00000000b69587e814b378d834d53cc5c11a488b9d3a4dceaef877677d6e8c8c",
  "confirmations": 44343,
  "height": 8755,
  "version": 1,
  "versionHex": "00000001",
  "merkleroot": "20c900be8e6790d6759062b88e4869862d88175db79e05c12d6a0661c8dc72f2",
  "time": 1238064868,
  "mediantime": 1238059548,
  "nonce": 2600911646,
  "bits": "1d00ffff",
  "difficulty": 1,
  "chainwork": "0000000000000000000000000000000000000000000000000000223422342234",
  "nTx": 1,
  "previousblockhash": "000000003e44e5a6bea6457d62997d9d7d643dee0a119d8942c26dcda90b454e",
  "nextblockhash": "00000000b367d60936957ad2e4000240e663fbf225145aa4308f9f951600c559",
  "strippedsize": 216,
  "size": 216,
  "weight": 864,
  "tx": [
    {
      "txid": "20c900be8e6790d6759062b88e4869862d88175db79e05c12d6a0661c8dc72f2",
      "hash": "20c900be8e6790d6759062b88e4869862d88175db79e05c12d6a0661c8dc72f2",
      "version": 1,
      "size": 135,
      "vsize": 135,
      "weight": 540,
      "locktime": 0,
      "vin": [
        {
          "coinbase": "04ffff001d02d101",
          "sequence": 4294967295
        }
      ],
      "vout": [
        {
          "value": 50.0,
          "n": 0,
          "scriptPubKey": {
            "asm": "04f460bf4c85bb73a4368b734165ea8297af40efca74c945e3dc4b120348858fa7c9790386425051d70fba5a9ac8055e011317066a992cf42b39c9dbc16bb5c1ee OP_CHECKSIG",
            "desc": "pk(04f460bf4c85bb73a4368b734165ea8297af40efca74c945e3dc4b120348858fa7c9790386425051d70fba5a9ac8055e011317066a992cf42b39c9dbc16bb5c1ee)#kws9cu5u",
            "hex": "4104f460bf4c85bb73a4368b734165ea8297af40efca74c945e3dc4b120348858fa7c9790386425051d70fba5a9ac8055e011317066a992cf42b39c9dbc16bb5c1eeac",
            "type": "pubkey"
          }
        }
      ],
      "hex": "01000000010000000000000000000000000000000000000000000000000000000000000000ffffffff0804ffff001d02d101ffffffff0100f2052a01000000434104f460bf4c85bb73a4368b734165ea8297af40efca74c945e3dc4b120348858fa7c9790386425051d70fba5a9ac8055e011317066a992cf42b39c9dbc16bb5c1eeac00000000"
    }
  ]
}