{
  "hash": "00000000c47a58b89434bd7c7af8334b366f713330dfb89119d67d79424d2cdf",
  "confirmations": 51889,
  "height": 60,
  "version": 1,
  "versionHex": "00000001",
  "merkleroot": "82a1e1731a9b22fdea55c09f2fac191a89efee127956fcfef65caab70f54002d",
  "time": 1231621959,
  "mediantime": 1231618509,
  "nonce": 576951554,
  "bits": "1d00ffff",
  "difficulty": 1,
  "chainwork": "0000000000000000000000000000000000000000000000000000003d003d003d",
  "nTx": 1,
  "previousblockhash": "000000000f7171e53e5f037b70ae6a30d2fa6c1a9e019aa3dae242180baea54a",
  "nextblockhash": "000000002973d6cb9371b8db0fe6a16a98dfac07c0aa9207c1cfc967b35290c4",
  "strippedsize": 216,
  "size": 216,
  "weight": 864,
  "tx": [
    {
      "txid": "82a1e1731a9b22fdea55c09f2fac191a89efee127956fcfef65caab70f54002d",
      "hash": "82a1e1731a9b22fdea55c09f2fac191a89efee127956fcfef65caab70f54002d",
      "version": 1,
      "size": 135,
      "vsize": 135,
      "weight": 540,
      "locktime": 0,
      "vin": [
        {
          "coinbase": "04ffff001d028c00",
          "sequence": 4294967295
        }
      ],
      "vout": [
        {
          "value": 50.0,
          "n": 0,
          "scriptPubKey": {
            "asm": "049530a4ab6a53952c94488cada1f77631ed1d29d3b4c8597d8b68623f290f412752c087f2ec0fbda29dbb8496984ff6e1f8b0134da5b8011d34d9b3bfdf702e5b OP_CHECKSIG",
            "desc": "pk(049530a4ab6a53952c94488cada1f77631ed1d29d3b4c8597d8b68623f290f412752c087f2ec0fbda29dbb8496984ff6e1f8b0134da5b8011d34d9b3bfdf702e5b)#9g7pyu8k",
            "hex": "41049530a4ab6a53952c94488cada1f77631ed1d29d3b4c8597d8b68623f290f412752c087f2ec0fbda29dbb8496984ff6e1f8b0134da5b8011d34d9b3bfdf702e5bac",
            "type": "pubkey"
          }
        }
      ],
      "hex": "01000000010000000000000000000000000000000000000000000000000000000000000000ffffffff0804ffff001d028c00ffffffff0100f2052a010000004341049530a4ab6a53952c94488cada1f77631ed1d29d3b4c8597d8b68623f290f412752c087f2ec0fbda29dbb8496984ff6e1f8b0134da5b8011d34d9b3bfdf702e5bac00000000"
    }
  ]
}