{
  "hash": "00000000312ae1c84d144d140a2f2fc196bd4159f51d3f0932119cf96dac1006",
  "confirmations": 45056,
  "height": 8042,
  "version": 1,
  "versionHex": "00000001",
  "merkleroot": "528a57da0053db3c9830afb05f58d7f1173ef9bc3ab895a91d0a62646babfbd9",
  "time": 1237490718,
  "mediantime": 1237489443,
  "nonce": 1015408953,
  "bits": "1d00ffff",
  "difficulty": 1,
  "chainwork": "00000000000000000000000000000000000000000000000000001f6b1f6b1f6b",
  "nTx": 1,
  "previousblockhash": "000000001611341fe66ce445f6db203ac0a1636529b43bb2e871a3356d526350",
  "nextblockhash": "00000000dd34882aa41218fc886e50e48a06081a1627f28e4da45c4d554dfce6",
  "strippedsize": 216,
  "size": 216,
  "weight": 864,
  "tx": [
    {
      "txid": "528a57da0053db3c9830afb05f58d7f1173ef9bc3ab895a91d0a62646babfbd9",
      "hash": "528a57da0053db3c9830afb05f58d7f1173ef9bc3ab895a91d0a62646babfbd9",
      "version": 1,
      "size": 135,
      "vsize": 135,
      "weight": 540,
      "locktime": 0,
      "vin": [
        {
          "coinbase": "04ffff001d022d0a",
          "sequence": 4294967295
        }
      ],
      "vout": [
        {
          "value": 50.0,
          "n": 0,
          "scriptPubKey": {
            "asm": "040e0bc6a122821736824fedbed8bf4e9e791c9c98bacf04f283943558eb6f63358cbe37b27a0a4b46bddb678fcea427bc7237fa58e0233f3db02941445a24b45c OP_CHECKSIG",
            "desc": "pk(040e0bc6a122821736824fedbed8bf4e9e791c9c98bacf04f283943558eb6f63358cbe37b27a0a4b46bddb678fcea427bc7237fa58e0233f3db02941445a24b45c)#vz5rteqm",
            "hex": "41040e0bc6a122821736824fedbed8bf4e9e791c9c98bacf04f283943558eb6f63358cbe37b27a0a4b46bddb678fcea427bc7237fa58e0233f3db02941445a24b45cac",
            "type": "pubkey"
          }
        }
      ],
      "hex": "01000000010000000000000000000000000000000000000000000000000000000000000000ffffffff0804ffff001d022d0affffffff0100f2052a010000004341040e0bc6a122821736824fedbed8bf4e9e791c9c98bacf04f283943558eb6f63358cbe37b27a0a4b46bddb678fcea427bc7237fa58e0233f3db02941445a24b45cac00000000"
    }
  ]
}