{
  "hash": "0000000063d334becd1f17db9b6ccf570805caeed92d37d3d67b48e3685e760d",
  "confirmations": 51901,
  "height": 66,
  "version": 1,
  "versionHex": "00000001",
  "merkleroot": "f01d7897ca02ed20dfb5544b3c1228e225fd97b72510d40af6c9d8e489033a74",
  "time": 1231625020,
  "mediantime": 1231622445,
  "nonce": 2055099169,
  "bits": "1d00ffff",
  "difficulty": 1,
  "chainwork": "0000000000000000000000000000000000000000000000000000004300430043",
  "nTx": 1,
  "previousblockhash": "00000000aae47d47b6ff5eda6abab09cd6720684b1368eac70ac4240b3c90250",
  "nextblockhash": "00000000cd9c854b176413d6d344d6238426539fe1525b9a88a06e5d8a2df72b",
  "strippedsize": 216,
  "size": 216,
  "weight": 864,
  "tx": [
    {
      "txid": "f01d7897ca02ed20dfb5544b3c1228e225fd97b72510d40af6c9d8e489033a74",
      "hash": "f01d7897ca02ed20dfb5544b3c1228e225fd97b72510d40af6c9d8e489033a74",
      "version": 1,
      "size": 135,
      "vsize": 135,
      "weight": 540,
      "locktime": 0,
      "vin": [
        {
          "coinbase": "04ffff001d02a700",
          "sequence": 4294967295
        }
      ],
      "vout": [
        {
          "value": 50.0,
          "n": 0,
          "scriptPubKey": {
            "asm": "04931ec0965431158d18f122abc012edfa87e83df07028d2d3bd71504de74cac5798608b8283278f885639030029b1e5215f4a087506be0455fc9ebb5fa2aadd0e OP_CHECKSIG",
            "desc": "pk(04931ec0965431158d18f122abc012edfa87e83df07028d2d3bd71504de74cac5798608b8283278f885639030029b1e5215f4a087506be0455fc9ebb5fa2aadd0e)#8q858q3p",
            "hex": "4104931ec0965431158d18f122abc012edfa87e83df07028d2d3bd71504de74cac5798608b8283278f885639030029b1e5215f4a087506be0455fc9ebb5fa2aadd0eac",
            "type": "pubkey"
          }
        }
      ],
      "hex": "01000000010000000000000000000000000000000000000000000000000000000000000000ffffffff0804ffff001d02a700ffffffff0100f2052a01000000434104931ec0965431158d18f122abc012edfa87e83df07028d2d3bd71504de74cac5798608b8283278f885639030029b1e5215f4a087506be0455fc9ebb5fa2aadd0eac00000000"
    }
  ]
}