{
  "hash": "00000000b0383ad53d30fa9896168074f7f51a6a3366b1aaa2b263c7cd72b6a4",
  "confirmations": 51750,
  "height": 1348,
  "version": 1,
  "versionHex": "00000001",
  "merkleroot": "1385c48e01caedb111f2dc1617a1e5432170e9833409eeda73cee6521d366c82",
  "time": 1232640471,
  "mediantime": 1232634666,
  "nonce": 3306839581,
  "bits": "1d00ffff",
  "difficulty": 1,
  "chainwork": "0000000000000000000000000000000000000000000000000000054505450545",
  "nTx": 1,
  "previousblockhash": "00000000a414e24e3ed3ae002559874146a7ee6d21b863b4cfa3fec4add297e2",
  "nextblockhash": "0000000087b97399a2d8c2de62e64d61814a3b4bd488522fc9618083b125738e",
  "strippedsize": 216,
  "size": 216,
  "weight": 864,
  "tx": [
    {
      "txid": "1385c48e01caedb111f2dc1617a1e5432170e9833409eeda73cee6521d366c82",
      "hash": "1385c48e01caedb111f2dc1617a1e5432170e9833409eeda73cee6521d366c82",
      "version": 1,
      "size": 135,
      "vsize": 135,
      "weight": 540,
      "locktime": 0,
      "vin": [
        {
          "coinbase": "04ffff001d021901",
          "sequence": 4294967295
        }
      ],
      "vout": [
        {
          "value": 50.0,
          "n": 0,
          "scriptPubKey": {
            "asm": "0492e91f956af306b0531bc445b6e9c22a19afce62979da57e338fae9b778ef04b46a06c647f856e37ebb0da0369ddc0b91654ff148e64e498a560fb0bda8d527c OP_CHECKSIG",
            "desc": "pk(0492e91f956af306b0531bc445b6e9c22a19afce62979da57e338fae9b778ef04b46a06c647f856e37ebb0da0369ddc0b91654ff148e64e498a560fb0bda8d527c)#dk9k0kac",
            "hex": "410492e91f956af306b0531bc445b6e9c22a19afce62979da57e338fae9b778ef04b46a06c647f856e37ebb0da0369ddc0b91654ff148e64e498a560fb0bda8d527cac",
            "type": "pubkey"
          }
        }
      ],
      "hex": "01000000010000000000000000000000000000000000000000000000000000000000000000ffffffff0804ffff001d021901ffffffff0100f2052a0100000043410492e91f956af306b0531bc445b6e9c22a19afce62979da57e338fae9b778ef04b46a06c647f856e37ebb0da0369ddc0b91654ff148e64e498a560fb0bda8d527cac00000000"
    }
  ]
}