{
  "hash": "000000009a102824511c4bb8346b68066ee0e1d5ac470e841a7f95d218ad3c8f",
  "confirmations": 50188,
  "height": 2910,
  "version": 1,
  "versionHex": "00000001",
  "merkleroot": "91bfbc2c5e6fde6b0b5d24313f22fe06dd88c4d64563809bd6bf79e1de9bdfd2",
  "time": 1233698506,
  "mediantime": 1233695381,
  "nonce": 3581713172,
  "bits": "1d00ffff",
  "difficulty": 1,
  "chainwork": "00000000000000000000000000000000000000000000000000000b5f0b5f0b5f",
  "nTx": 1,
  "previousblockhash": "0000000047c61b4d11c78afdd78d838a799d256d97cb7638a7f75e919bf6750f",
  "nextblockhash": "0000000011f86d80ca78308b01a7466c905b8ed7bda4ce85ea2d36d15244faa6",
  "strippedsize": 216,
  "size": 216,
  "weight": 864,
  "tx": [
    {
      "txid": "91bfbc2c5e6fde6b0b5d24313f22fe06dd88c4d64563809bd6bf79e1de9bdfd2",
      "hash": "91bfbc2c5e6fde6b0b5d24313f22fe06dd88c4d64563809bd6bf79e1de9bdfd2",
      "version": 1,
      "size": 135,
      "vsize": 135,
      "weight": 540,
      "locktime": 0,
      "vin": [
        {
          "coinbase": "04ffff001d027707",
          "sequence": 4294967295
        }
      ],
      "vout": [
        {
          "value": 50.0,
          "n": 0,
          "scriptPubKey": {
            "asm": "04a7ceee69aba3f954c444fe33ec8a013f9fad4a5c858f5100090a8223462977372d2145201f6e360f4bdaa0d860e376ea6035b3a01820f59696be32e606dd9771 OP_CHECKSIG",
            "desc": "pk(04a7ceee69aba3f954c444fe33ec8a013f9fad4a5c858f5100090a8223462977372d2145201f6e360f4bdaa0d860e376ea6035b3a01820f59696be32e606dd9771)#5zy9fpr3",
            "hex": "4104a7ceee69aba3f954c444fe33ec8a013f9fad4a5c858f5100090a8223462977372d2145201f6e360f4bdaa0d860e376ea6035b3a01820f59696be32e606dd9771ac",
            "type": "pubkey"
          }
        }
      ],
      "hex": "01000000010000000000000000000000000000000000000000000000000000000000000000ffffffff0804ffff001d027707ffffffff0100f2052a01000000434104a7ceee69aba3f954c444fe33ec8a013f9fad4a5c858f5100090a8223462977372d2145201f6e360f4bdaa0d860e376ea6035b3a01820f59696be32e606dd9771ac00000000"
    }
  ]
}