{
  "hash": "00000000b574c7d2a83ac3ebe9fb668fad4fda4e79b03d4035281625f771d9d9",
  "confirmations": 51013,
  "height": 2085,
  "version": 1,
  "versionHex": "00000001",
  "merkleroot": "d85d0edeb8c4be6e11b8d9fd86a3d1443a908f175da7e1dd77d2ec6c26e6ef11",
  "time": 1233127813,
  "mediantime": 1233123994,
  "nonce": 32090934,
  "bits": "1d00ffff",
  "difficulty": 1,
  "chainwork": "0000000000000000000000000000000000000000000000000000082608260826",
  "nTx": 1,
  "previousblockhash": "00000000444dd3fa2b3604a8b9059656122387679b1aede0c43e1c3efdb41a60",
  "nextblockhash": "00000000d454b939589eb57f33777401abcf0b3c98dfe2bd382f3b8981081381",
  "strippedsize": 215,
  "size": 215,
  "weight": 860,
  "tx": [
    {
      "txid": "d85d0edeb8c4be6e11b8d9fd86a3d1443a908f175da7e1dd77d2ec6c26e6ef11",
      "hash": "d85d0edeb8c4be6e11b8d9fd86a3d1443a908f175da7e1dd77d2ec6c26e6ef11",
      "version": 1,
      "size": 134,
      "vsize": 134,
      "weight": 536,
      "locktime": 0,
      "vin": [
        {
          "coinbase": "04ffff001d0178",
          "sequence": 4294967295
        }
      ],
      "vout": [
        {
          "value": 50.0,
          "n": 0,
          "scriptPubKey": {
            "asm": "04ef32afc369ea0e2a1088b2701f94251f340adad4080bcbabf6ea505545d133b77eea9a9c9542f6cc22ac070a4136ddb7aa5668fe5b0b12b59fd55d77f3a20014 OP_CHECKSIG",
            "desc": "pk(04ef32afc369ea0e2a1088b2701f94251f340adad4080bcbabf6ea505545d133b77eea9a9c9542f6cc22ac070a4136ddb7aa5668fe5b0b12b59fd55d77f3a20014)#60jf6cq4",
            "hex": "4104ef32afc369ea0e2a1088b2701f94251f340adad4080bcbabf6ea505545d133b77eea9a9c9542f6cc22ac070a4136ddb7aa5668fe5b0b12b59fd55d77f3a20014ac",
            "type": "pubkey"
          }
        }
      ],
      "hex": "01000000010000000000000000000000000000000000000000000000000000000000000000ffffffff0704ffff001d0178ffffffff0100f2052a01000000434104ef32afc369ea0e2a1088b2701f94251f340adad4080bcbabf6ea505545d133b77eea9a9c9542f6cc22ac070a4136ddb7aa5668fe5b0b12b59fd55d77f3a20014ac00000000"
    }
  ]
}