{
  "hash": "0000000087f73823e9bc784daabf71bef5487a847cdcbdfabced04e24b2567ee",
  "confirmations": 44230,
  "height": 8868,
  "version": 1,
  "versionHex": "00000001",
  "merkleroot": "43a1558df1f20dce65a0a0e0319c6240bfecc0fdc0b8312f1bc2f42b106a4840",
  "time": 1238149778,
  "mediantime": 1238147581,
  "nonce": 762503429,
  "bits": "1d00ffff",
  "difficulty": 1,
  "chainwork": "000000000000000000000000000000000000000000000000000022a522a522a5",
  "nTx": 1,
  "previousblockhash": "00000000dc67fdb071610640cabd4f460469fd0e1e96aaaf93852054a956445f",
  "nextblockhash": "0000000045bb7ae8c24f4ca8fd07e830eca1575ce4a07cdd95acb7f9f53cd906",
  "strippedsize": 216,
  "size": 216,
  "weight": 864,
  "tx": [
    {
      "txid": "43a1558df1f20dce65a0a0e0319c6240bfecc0fdc0b8312f1bc2f42b106a4840",
      "hash": "43a1558df1f20dce65a0a0e0319c6240bfecc0fdc0b8312f1bc2f42b106a4840",
      "version": 1,
      "size": 135,
      "vsize": 135,
      "weight": 540,
      "locktime": 0,
      "vin": [
        {
          "coinbase": "04ffff001d02da03",
          "sequence": 4294967295
        }
      ],
      "vout": [
        {
          "value": 50.0,
          "n": 0,
          "scriptPubKey": {
            "asm": "04a5919ba19d88d3567de48529a93c860903d3c72394cf6f5d9ba829fa3a952903179d2c3e31a37d10ec36c87bef5f72c3ba3a5c9fb90bb4b2d336dea378925ed5 OP_CHECKSIG",
            "desc": "pk(04a5919ba19d88d3567de48529a93c860903d3c72394cf6f5d9ba829fa3a952903179d2c3e31a37d10ec36c87bef5f72c3ba3a5c9fb90bb4b2d336dea378925ed5)#6xhpzzld",
            "hex": "4104a5919ba19d88d3567de48529a93c860903d3c72394cf6f5d9ba829fa3a952903179d2c3e31a37d10ec36c87bef5f72c3ba3a5c9fb90bb4b2d336dea378925ed5ac",
            "type": "pubkey"
          }
        }
      ],
      "hex": "01000000010000000000000000000000000000000000000000000000000000000000000000ffffffff0804ffff001d02da03ffffffff0100f2052a01000000434104a5919ba19d88d3567de48529a93c860903d3c72394cf6f5d9ba829fa3a952903179d2c3e31a37d10ec36c87bef5f72c3ba3a5c9fb90bb4b2d336dea378925ed5ac00000000"
    }
  ]
}