{
  "hash": "0000000096c38ede93980fb06b6325557fe11208632bff19231724746c72c26a",
  "confirmations": 47326,
  "height": 5772,
  "version": 1,
  "versionHex": "00000001",
  "merkleroot": "a736712364d70f4d54205d36c615038e468f291111e71f3f0a0b244b7be96572",
  "time": 1235739268,
  "mediantime": 1235735507,
  "nonce": 68216502,
  "bits": "1d00ffff",
  "difficulty": 1,
  "chainwork": "0000000000000000000000000000000000000000000000000000168d168d168d",
  "nTx": 1,
  "previousblockhash": "00000000aba90cacf7fba8ead3b9191a50c9fa76939b9aa7ba055d6226da64f3",
  "nextblockhash": "000000004bae4adf43210b0bb648cd6b3e822a13a18470eb58ab067c9fedee9b",
  "strippedsize": 216,
  "size": 216,
  "weight": 864,
  "tx": [
    {
      "txid": "a736712364d70f4d54205d36c615038e468f291111e71f3f0a0b244b7be96572",
      "hash": "a736712364d70f4d54205d36c615038e468f291111e71f3f0a0b244b7be96572",
      "version": 1,
      "size": 135,
      "vsize": 135,
      "weight": 540,
      "locktime": 0,
      "vin": [
        {
          "coinbase": "04ffff001d021101",
          "sequence": 4294967295
        }
      ],
      "vout": [
        {
          "value": 50.0,
          "n": 0,
          "scriptPubKey": {
            "asm": "0471487bbeef42ea31a4db24fa41f71a4bc693c2a72ddbc74a90c18d0f87c317ea1d2af8fadaf7a7b19c1c300a814f906946d8d1960bc4cd8331157846337b199d OP_CHECKSIG",
            "desc": "pk(0471487bbeef42ea31a4db24fa41f71a4bc693c2a72ddbc74a90c18d0f87c317ea1d2af8fadaf7a7b19c1c300a814f906946d8d1960bc4cd8331157846337b199d)#y665u60h",
            "hex": "410471487bbeef42ea31a4db24fa41f71a4bc693c2a72ddbc74a90c18d0f87c317ea1d2af8fadaf7a7b19c1c300a814f906946d8d1960bc4cd8331157846337b199dac",
            "type": "pubkey"
          }
        }
      ],
      "hex": "01000000010000000000000000000000000000000000000000000000000000000000000000ffffffff0804ffff001d021101ffffffff0100f2052a0100000043410471487bbeef42ea31a4db24fa41f71a4bc693c2a72ddbc74a90c18d0f87c317ea1d2af8fadaf7a7b19c1c300a814f906946d8d1960bc4cd8331157846337b199dac00000000"
    }
  ]
}