{
  "hash": "00000000a0b289cb223408631a29dd583140a04d52870bb82cb7887cecbf7dc7",
  "confirmations": 51074,
  "height": 2024,
  "version": 1,
  "versionHex": "00000001",
  "merkleroot": "046a41003aa2594b2a8acf3751b9d1674814edc571229bd9a1f0938e94898483",
  "time": 1233071846,
  "mediantime": 1233067200,
  "nonce": 129852708,
  "bits": "1d00ffff",
  "difficulty": 1,
  "chainwork": "000000000000000000000000000000000000000000000000000007e907e907e9",
  "nTx": 1,
  "previousblockhash": "000000005a6dc0cc4c7efac72b59fac06a22ed02118789300fd0cc9ff9a48e3c",
  "nextblockhash": "00000000cc455e6c79b0d9b7d9546a507ea312b00626a4cc3b625b270d9ad6d3",
  "strippedsize": 216,
  "size": 216,
  "weight": 864,
  "tx": [
    {
      "txid": "046a41003aa2594b2a8acf3751b9d1674814edc571229bd9a1f0938e94898483",
      "hash": "046a41003aa2594b2a8acf3751b9d1674814edc571229bd9a1f0938e94898483",
      "version": 1,
      "size": 135,
      "vsize": 135,
      "weight": 540,
      "locktime": 0,
      "vin": [
        {
          "coinbase": "04ffff001d023b02",
          "sequence": 4294967295
        }
      ],
      "vout": [
        {
          "value": 50.0,
          "n": 0,
          "scriptPubKey": {
            "asm": "049e55a788d91fc7c9bcd319a5859a68af0d79a478c0c3b53a36c620a50ad433a81eb7c2602cc07cd483daf2e6a7d7d3413d203ed6ddca235b26cc224ba658689e OP_CHECKSIG",
            "desc": "pk(049e55a788d91fc7c9bcd319a5859a68af0d79a478c0c3b53a36c620a50ad433a81eb7c2602cc07cd483daf2e6a7d7d3413d203ed6ddca235b26cc224ba658689e)#jw6gyazm",
            "hex": "41049e55a788d91fc7c9bcd319a5859a68af0d79a478c0c3b53a36c620a50ad433a81eb7c2602cc07cd483daf2e6a7d7d3413d203ed6ddca235b26cc224ba658689eac",
            "type": "pubkey"
          }
        }
      ],
      "hex": "01000000010000000000000000000000000000000000000000000000000000000000000000ffffffff0804ffff001d023b02ffffffff0100f2052a010000004341049e55a788d91fc7c9bcd319a5859a68af0d79a478c0c3b53a36c620a50ad433a81eb7c2602cc07cd483daf2e6a7d7d3413d203ed6ddca235b26cc224ba658689eac00000000"
    }
  ]
}