{
  "hash": "000000001e55fdab74acc0278ec428443553ac814df4bfeb6ea548195ece6b50",
  "confirmations": 44340,
  "height": 8758,
  "version": 1,
  "versionHex": "00000001",
  "merkleroot": "05e94a0158df80449cf4b19ddae1734c15ef8b668131501fb5251acb3d06ff7f",
  "time": 1238067470,
  "mediantime": 1238062108,
  "nonce": 2131748635,
  "bits": "1d00ffff",
  "difficulty": 1,
  "chainwork": "0000000000000000000000000000000000000000000000000000223722372237",
  "nTx": 1,
  "previousblockhash": "00000000b01260abe5a6b9f8a300e8312032fcbe3caec6f68aed27a1fe4278ba",
  "nextblockhash": "0000000098c5f4a787c8253dfd2e20b476360c8c63ab7a2aec65c99a4f0334e2",
  "strippedsize": 216,
  "size": 216,
  "weight": 864,
  "tx": [
    {
      "txid": "05e94a0158df80449cf4b19ddae1734c15ef8b668131501fb5251acb3d06ff7f",
      "hash": "05e94a0158df80449cf4b19ddae1734c15ef8b668131501fb5251acb3d06ff7f",
      "version": 1,
      "size": 135,
      "vsize": 135,
      "weight": 540,
      "locktime": 0,
      "vin": [
        {
          "coinbase": "04ffff001d02e301",
          "sequence": 4294967295
        }
      ],
      "vout": [
        {
          "value": 50.0,
          "n": 0,
          "scriptPubKey": {
            "asm": "043e0e9f68d94871c8bef3ae30b04eb16cbc324e3c9662de13658d091db0a7433fc21daa71431a179841db2d208a040055a1599af87e738b3ddbe30799bfbdc3c5 OP_CHECKSIG",
            "desc": "pk(043e0e9f68d94871c8bef3ae30b04eb16cbc324e3c9662de13658d091db0a7433fc21daa71431a179841db2d208a040055a1599af87e738b3ddbe30799bfbdc3c5)#xxwcqczf",
            "hex": "41043e0e9f68d94871c8bef3ae30b04eb16cbc324e3c9662de13658d091db0a7433fc21daa71431a179841db2d208a040055a1599af87e738b3ddbe30799bfbdc3c5ac",
            "type": "pubkey"
          }
        }
      ],
      "hex": "01000000010000000000000000000000000000000000000000000000000000000000000000ffffffff0804ffff001d02e301ffffffff0100f2052a010000004341043e0e9f68d94871c8bef3ae30b04eb16cbc324e3c9662de13658d091db0a7433fc21daa71431a179841db2d208a040055a1599af87e738b3ddbe30799bfbdc3c5ac00000000"
    }
  ]
}