{
  "hash": "0000000015ec638dc43499574063a1d1a8b47a47756e3608517210c7abd9b2b6",
  "confirmations": 46231,
  "height": 6867,
  "version": 1,
  "versionHex": "00000001",
  "merkleroot": "9db6bb1ffcf72885399f6f6f05e039b2c3e7bc2607c66c7ade0f4ddcf5d18ff3",
  "time": 1236606417,
  "mediantime": 1236604237,
  "nonce": 3544622133,
  "bits": "1d00ffff",
  "difficulty": 1,
  "chainwork": "00000000000000000000000000000000000000000000000000001ad41ad41ad4",
  "nTx": 1,
  "previousblockhash": "00000000fe588b9409e65b74d465f36b7d792e649d3cb3bdcacaae5d3d3297d7",
  "nextblockhash": "00000000d04818b7e6d46f5e3e905fe07aaeaa98e4a7816f2b01fbce25ee4edb",
  "strippedsize": 216,
  "size": 216,
  "weight": 864,
  "tx": [
    {
      "txid": "9db6bb1ffcf72885399f6f6f05e039b2c3e7bc2607c66c7ade0f4ddcf5d18ff3",
      "hash": "9db6bb1ffcf72885399f6f6f05e039b2c3e7bc2607c66c7ade0f4ddcf5d18ff3",
      "version": 1,
      "size": 135,
      "vsize": 135,
      "weight": 540,
      "locktime": 0,
      "vin": [
        {
          "coinbase": "04ffff001d02f709",
          "sequence": 4294967295
        }
      ],
      "vout": [
        {
          "value": 50.0,
          "n": 0,
          "scriptPubKey": {
            "asm": "044f951a8685b5298fa16e01bff575f7eee79cd330c061d825bd7bce31df22998269e89f4872fa79661ce51f2a8afb501c12af3bf640bf10e92db05906baeaa5e0 OP_CHECKSIG",
            "desc": "pk(044f951a8685b5298fa16e01bff575f7eee79cd330c061d825bd7bce31df22998269e89f4872fa79661ce51f2a8afb501c12af3bf640bf10e92db05906baeaa5e0)#pp44ccyd",
            "hex": "41044f951a8685b5298fa16e01bff575f7eee79cd330c061d825bd7bce31df22998269e89f4872fa79661ce51f2a8afb501c12af3bf640bf10e92db05906baeaa5e0ac",
            "type": "pubkey"
          }
        }
      ],
      "hex": "01000000010000000000000000000000000000000000000000000000000000000000000000ffffffff0804ffff001d02f709ffffffff0100f2052a010000004341044f951a8685b5298fa16e01bff575f7eee79cd330c061d825bd7bce31df22998269e89f4872fa79661ce51f2a8afb501c12af3bf640bf10e92db05906baeaa5e0ac00000000"
    }
  ]
}