{
  "hash": "000000007d4b42d0d687640370337b588b6577a4b8ce369c321483ed57d60d39",
  "confirmations": 44587,
  "height": 8511,
  "version": 1,
  "versionHex": "00000001",
  "merkleroot": "714c3618d376fe5ba054632bf2ae640ba416289eca9ae48668390828efca5f12",
  "time": 1237880589,
  "mediantime": 1237876002,
  "nonce": 1657459491,
  "bits": "1d00ffff",
  "difficulty": 1,
  "chainwork": "0000000000000000000000000000000000000000000000000000214021402140",
  "nTx": 1,
  "previousblockhash": "00000000c8c96792b29184d00fd87cd9fe1d463704e4e3f0b0d9e6ba2af1cc3f",
  "nextblockhash": "000000007fa7a60972684f5ceba4e6cdba6026f32c7a7b72871872d12b835123",
  "strippedsize": 216,
  "size": 216,
  "weight": 864,
  "tx": [
    {
      "txid": "714c3618d376fe5ba054632bf2ae640ba416289eca9ae48668390828efca5f12",
      "hash": "714c3618d376fe5ba054632bf2ae640ba416289eca9ae48668390828efca5f12",
      "version": 1,
      "size": 135,
      "vsize": 135,
      "weight": 540,
      "locktime": 0,
      "vin": [
        {
          "coinbase": "04ffff001d02ed07",
          "sequence": 4294967295
        }
      ],
      "vout": [
        {
          "value": 50.0,
          "n": 0,
          "scriptPubKey": {
            "asm": "04c593d921c4c97a1a6564aed514b5537f704f978d4b2f3a6d553a6ca73c559b476dbb7b4e874427207706f7b798ffb896aae61bd3713d86319637534d7010920f OP_CHECKSIG",
            "desc": "pk(04c593d921c4c97a1a6564aed514b5537f704f978d4b2f3a6d553a6ca73c559b476dbb7b4e874427207706f7b798ffb896aae61bd3713d86319637534d7010920f)#axhmz9r0",
            "hex": "4104c593d921c4c97a1a6564aed514b5537f704f978d4b2f3a6d553a6ca73c559b476dbb7b4e874427207706f7b798ffb896aae61bd3713d86319637534d7010920fac",
            "type": "pubkey"
          }
        }
      ],
      "hex": "01000000010000000000000000000000000000000000000000000000000000000000000000ffffffff0804ffff001d02ed07ffffffff0100f2052a01000000434104c593d921c4c97a1a6564aed514b5537f704f978d4b2f3a6d553a6ca73c559b476dbb7b4e874427207706f7b798ffb896aae61bd3713d86319637534d7010920fac00000000"
    }
  ]
}