{
  "hash": "00000000fc0f0e9952be1ff8efe59f96cfac449734cd6d58704ce6c65ec726a9",
  "confirmations": 52180,
  "height": 441,
  "version": 1,
  "versionHex": "00000001",
  "merkleroot": "8c9296e4ea6bca8ccb401cfc0beaa532407f6100e75f3a4a7d91b3a1bd58c02e",
  "time": 1231929745,
  "mediantime": 1231926247,
  "nonce": 1444483105,
  "bits": "1d00ffff",
  "difficulty": 1,
  "chainwork": "000000000000000000000000000000000000000000000000000001ba01ba01ba",
  "nTx": 1,
  "previousblockhash": "000000004b9dfe906e0c97aaaa3dbb84a933d14788ddef29eb34c4054f884dfd",
  "nextblockhash": "00000000c55c595b18eff1e1d3f52b5759b9f56dac235af896e9c478cc77cbeb",
  "strippedsize": 216,
  "size": 216,
  "weight": 864,
  "tx": [
    {
      "txid": "8c9296e4ea6bca8ccb401cfc0beaa532407f6100e75f3a4a7d91b3a1bd58c02e",
      "hash": "8c9296e4ea6bca8ccb401cfc0beaa532407f6100e75f3a4a7d91b3a1bd58c02e",
      "version": 1,
      "size": 135,
      "vsize": 135,
      "weight": 540,
      "locktime": 0,
      "vin": [
        {
          "coinbase": "04ffff001d027603",
          "sequence": 4294967295
        }
      ],
      "vout": [
        {
          "value": 50.0,
          "n": 0,
          "scriptPubKey": {
            "asm": "0445cc08ce5475a132287d0b3750db5faa096cd343f6310bb82d3298f78413280ff0332c19a7f81765ffdbd66a8d20e805d5083da9931e6c70b647bb968bb5a3c2 OP_CHECKSIG",
            "desc": "pk(0445cc08ce5475a132287d0b3750db5faa096cd343f6310bb82d3298f78413280ff0332c19a7f81765ffdbd66a8d20e805d5083da9931e6c70b647bb968bb5a3c2)#jurge5qu",
            "hex": "410445cc08ce5475a132287d0b3750db5faa096cd343f6310bb82d3298f78413280ff0332c19a7f81765ffdbd66a8d20e805d5083da9931e6c70b647bb968bb5a3c2ac",
            "type": "pubkey"
          }
        }
      ],
      "hex": "01000000010000000000000000000000000000000000000000000000000000000000000000ffffffff0804ffff001d027603ffffffff0100f2052a0100000043410445cc08ce5475a132287d0b3750db5faa096cd343f6310bb82d3298f78413280ff0332c19a7f81765ffdbd66a8d20e805d5083da9931e6c70b647bb968bb5a3c2ac00000000"
    }
  ]
}