{
  "hash": "0000000040e7ce608d0332e893a0168ca2bad8d71c2ed33718389b63d2b9b43d",
  "confirmations": 50359,
  "height": 2739,
  "version": 1,
  "versionHex": "00000001",
  "merkleroot": "99aa68bf7964619a00bc4b05b50496897d3320557a8f6c607d06a34bb9e2780c",
  "time": 1233588909,
  "mediantime": 1233586931,
  "nonce": 2118762757,
  "bits": "1d00ffff",
  "difficulty": 1,
  "chainwork": "00000000000000000000000000000000000000000000000000000ab40ab40ab4",
  "nTx": 1,
  "previousblockhash": "000000006e92cb9f163c7f9eaf338207c25b3682b410a7352a1c140521a029d4",
  "nextblockhash": "00000000cff5728ada1a3d63a7793cdc3d3509e4123151e0d3227845cbe64e49",
  "strippedsize": 216,
  "size": 216,
  "weight": 864,
  "tx": [
    {
      "txid": "99aa68bf7964619a00bc4b05b50496897d3320557a8f6c607d06a34bb9e2780c",
      "hash": "99aa68bf7964619a00bc4b05b50496897d3320557a8f6c607d06a34bb9e2780c",
      "version": 1,
      "size": 135,
      "vsize": 135,
      "weight": 540,
      "locktime": 0,
      "vin": [
        {
          "coinbase": "04ffff001d024c05",
          "sequence": 4294967295
        }
      ],
      "vout": [
        {
          "value": 50.0,
          "n": 0,
          "scriptPubKey": {
            "asm": "04722707f26fcf55171709b63426276ae15329892e9b754de47198d4840346f8d14c07006400561b53c06084422138baf174047958240905bb22e9a453a12d044a OP_CHECKSIG",
            "desc": "pk(04722707f26fcf55171709b63426276ae15329892e9b754de47198d4840346f8d14c07006400561b53c06084422138baf174047958240905bb22e9a453a12d044a)#7z554egc",
            "hex": "4104722707f26fcf55171709b63426276ae15329892e9b754de47198d4840346f8d14c07006400561b53c06084422138baf174047958240905bb22e9a453a12d044aac",
            "type": "pubkey"
          }
        }
      ],
      "hex": "01000000010000000000000000000000000000000000000000000000000000000000000000ffffffff0804ffff001d024c05ffffffff0100f2052a01000000434104722707f26fcf55171709b63426276ae15329892e9b754de47198d4840346f8d14c07006400561b53c06084422138baf174047958240905bb22e9a453a12d044aac00000000"
    }
  ]
}