{
  "hash": "00000000870030be2b5d991093731b47f5f03e3f0427d3d5af16e34c22d2030a",
  "confirmations": 49399,
  "height": 3699,
  "version": 1,
  "versionHex": "00000001",
  "merkleroot": "75d604fb516c01219417a5c906f7d5ffbad69e7f32d14a2874281487b16c5237",
  "time": 1234232735,
  "mediantime": 1234229170,
  "nonce": 472103736,
  "bits": "1d00ffff",
  "difficulty": 1,
  "chainwork": "00000000000000000000000000000000000000000000000000000e740e740e74",
  "nTx": 1,
  "previousblockhash": "0000000007161cc22392815a573bfa97cc04debaecf70bc38f8eda2dfc832b5f",
  "nextblockhash": "00000000d9edaa8b2912a17d733001a1eac038171ff6ecb2ea9df6e7a0283dba",
  "strippedsize": 216,
  "size": 216,
  "weight": 864,
  "tx": [
    {
      "txid": "75d604fb516c01219417a5c906f7d5ffbad69e7f32d14a2874281487b16c5237",
      "hash": "75d604fb516c01219417a5c906f7d5ffbad69e7f32d14a2874281487b16c5237",
      "version": 1,
      "size": 135,
      "vsize": 135,
      "weight": 540,
      "locktime": 0,
      "vin": [
        {
          "coinbase": "04ffff001d02fd09",
          "sequence": 4294967295
        }
      ],
      "vout": [
        {
          "value": 50.0,
          "n": 0,
          "scriptPubKey": {
            "asm": "0418603d55826cb1d4c6dd1be0fb09261292effab40e54ec0595a3a2d802dad668d756d947ef21ad4c29afda08183ab87709b822ab65a1bd59501b09220532e077 OP_CHECKSIG",
            "desc": "pk(0418603d55826cb1d4c6dd1be0fb09261292effab40e54ec0595a3a2d802dad668d756d947ef21ad4c29afda08183ab87709b822ab65a1bd59501b09220532e077)#5hha2q3g",
            "hex": "410418603d55826cb1d4c6dd1be0fb09261292effab40e54ec0595a3a2d802dad668d756d947ef21ad4c29afda08183ab87709b822ab65a1bd59501b09220532e077ac",
            "type": "pubkey"
          }
        }
      ],
      "hex": "01000000010000000000000000000000000000000000000000000000000000000000000000ffffffff0804ffff001d02fd09ffffffff0100f2052a0100000043410418603d55826cb1d4c6dd1be0fb09261292effab40e54ec0595a3a2d802dad668d756d947ef21ad4c29afda08183ab87709b822ab65a1bd59501b09220532e077ac00000000"
    }
  ]
}