{
  "hash": "000000005d5e4d1f466de1812ccdb4a62aa368c43b9bd354e13dd2a8878e4b71",
  "confirmations": 46723,
  "height": 6375,
  "version": 1,
  "versionHex": "00000001",
  "merkleroot": "4c2590bbad75b403801b1bf9d63949ebe160a9595c0c1570f3ef18c7f92b878e",
  "time": 1236238085,
  "mediantime": 1236232821,
  "nonce": 2165138232,
  "bits": "1d00ffff",
  "difficulty": 1,
  "chainwork": "000000000000000000000000000000000000000000000000000018e818e818e8",
  "nTx": 1,
  "previousblockhash": "0000000068977b19cd0c97cbb3600f3f10165eac14d6f38c588cb5434ef19458",
  "nextblockhash": "000000002a14610115f83d647a6354a706e273a2ab4425c8eeace6152800bcbc",
  "strippedsize": 216,
  "size": 216,
  "weight": 864,
  "tx": [
    {
      "txid": "4c2590bbad75b403801b1bf9d63949ebe160a9595c0c1570f3ef18c7f92b878e",
      "hash": "4c2590bbad75b403801b1bf9d63949ebe160a9595c0c1570f3ef18c7f92b878e",
      "version": 1,
      "size": 135,
      "vsize": 135,
      "weight": 540,
      "locktime": 0,
      "vin": [
        {
          "coinbase": "04ffff001d025601",
          "sequence": 4294967295
        }
      ],
      "vout": [
        {
          "value": 50.0,
          "n": 0,
          "scriptPubKey": {
            "asm": "04850d3f203fd7e0d0927a1d8617775bc1d665cabc2e10ffa5b6a3062e397d4b1312a48df98d3db7629d682a57cfc6e3a404be64e8481bb00eae6acd9a17786925 OP_CHECKSIG",
            "desc": "pk(04850d3f203fd7e0d0927a1d8617775bc1d665cabc2e10ffa5b6a3062e397d4b1312a48df98d3db7629d682a57cfc6e3a404be64e8481bb00eae6acd9a17786925)#hxkgk4ae",
            "hex": "4104850d3f203fd7e0d0927a1d8617775bc1d665cabc2e10ffa5b6a3062e397d4b1312a48df98d3db7629d682a57cfc6e3a404be64e8481bb00eae6acd9a17786925ac",
            "type": "pubkey"
          }
        }
      ],
      "hex": "01000000010000000000000000000000000000000000000000000000000000000000000000ffffffff0804ffff001d025601ffffffff0100f2052a01000000434104850d3f203fd7e0d0927a1d8617775bc1d665cabc2e10ffa5b6a3062e397d4b1312a48df98d3db7629d682a57cfc6e3a404be64e8481bb00eae6acd9a17786925ac00000000"
    }
  ]
}