{
  "hash": "000000005efa045324071de29a6ec14b436d661dc1d5342229f638e3625f8161",
  "confirmations": 49869,
  "height": 3229,
  "version": 1,
  "versionHex": "00000001",
  "merkleroot": "0c47704536ddb0884f93addba687b86bc08f30f583fcd91022218b6c3badd91b",
  "time": 1233920518,
  "mediantime": 1233917678,
  "nonce": 782797348,
  "bits": "1d00ffff",
  "difficulty": 1,
  "chainwork": "00000000000000000000000000000000000000000000000000000c9e0c9e0c9e",
  "nTx": 1,
  "previousblockhash": "000000007d626f305f95eeefe3749698a9f0e3c478a31a9692e503eb396cffde",
  "nextblockhash": "0000000076c21f273b8a5ee56437b29190fd820cc8fbb8c4020e9c60a35ffe91",
  "strippedsize": 216,
  "size": 216,
  "weight": 864,
  "tx": [
    {
      "txid": "0c47704536ddb0884f93addba687b86bc08f30f583fcd91022218b6c3badd91b",
      "hash": "0c47704536ddb0884f93addba687b86bc08f30f583fcd91022218b6c3badd91b",
      "version": 1,
      "size": 135,
      "vsize": 135,
      "weight": 540,
      "locktime": 0,
      "vin": [
        {
          "coinbase": "04ffff001d022d03",
          "sequence": 4294967295
        }
      ],
      "vout": [
        {
          "value": 50.0,
          "n": 0,
          "scriptPubKey": {
            "asm": "047633c2f1d5749d02fbbe2767c683968a5e1332168a08384d12accf05f85812ea72cbbacfc945780d1b0eeb6b13d66f46e1dcfcd0f24143806a3ba3e271e56df9 OP_CHECKSIG",
            "desc": "pk(047633c2f1d5749d02fbbe2767c683968a5e1332168a08384d12accf05f85812ea72cbbacfc945780d1b0eeb6b13d66f46e1dcfcd0f24143806a3ba3e271e56df9)#fh5qpfjj",
            "hex": "41047633c2f1d5749d02fbbe2767c683968a5e1332168a08384d12accf05f85812ea72cbbacfc945780d1b0eeb6b13d66f46e1dcfcd0f24143806a3ba3e271e56df9ac",
            "type": "pubkey"
          }
        }
      ],
      "hex": "01000000010000000000000000000000000000000000000000000000000000000000000000ffffffff0804ffff001d022d03ffffffff0100f2052a010000004341047633c2f1d5749d02fbbe2767c683968a5e1332168a08384d12accf05f85812ea72cbbacfc945780d1b0eeb6b13d66f46e1dcfcd0f24143806a3ba3e271e56df9ac00000000"
    }
  ]
}