{
  "hash": "00000000ee39e13fe7c693ada69c543501a6dabd5ef2f72d56a43c1e906f795f",
  "confirmations": 52193,
  "height": 428,
  "version": 1,
  "versionHex": "00000001",
  "merkleroot": "b4afa9db78f78a058378583af3d5d58c054f9550e59e0409283578049ac9e5eb",
  "time": 1231920924,
  "mediantime": 1231916533,
  "nonce": 897864745,
  "bits": "1d00ffff",
  "difficulty": 1,
  "chainwork": "000000000000000000000000000000000000000000000000000001ad01ad01ad",
  "nTx": 1,
  "previousblockhash": "00000000d3f81421d484c4d27f2c3c31a82f33850eb483926f8e0297070f5de3",
  "nextblockhash": "000000008e5da1aa58d17da1bbc95e9b032714e7ea7831e82f2830bf97dc38e7",
  "strippedsize": 216,
  "size": 216,
  "weight": 864,
  "tx": [
    {
      "txid": "b4afa9db78f78a058378583af3d5d58c054f9550e59e0409283578049ac9e5eb",
      "hash": "b4afa9db78f78a058378583af3d5d58c054f9550e59e0409283578049ac9e5eb",
      "version": 1,
      "size": 135,
      "vsize": 135,
      "weight": 540,
      "locktime": 0,
      "vin": [
        {
          "coinbase": "04ffff001d022703",
          "sequence": 4294967295
        }
      ],
      "vout": [
        {
          "value": 50.0,
          "n": 0,
          "scriptPubKey": {
            "asm": "046165eacbc51d1b690114b42a66cbe8207836de8ce404d665ec01b1eda43fdefcc395370998881378f0098a484add6e25647ce1e671c298425f06c1f7d0749476 OP_CHECKSIG",
            "desc": "pk(046165eacbc51d1b690114b42a66cbe8207836de8ce404d665ec01b1eda43fdefcc395370998881378f0098a484add6e25647ce1e671c298425f06c1f7d0749476)#xdckjq9h",
            "hex": "41046165eacbc51d1b690114b42a66cbe8207836de8ce404d665ec01b1eda43fdefcc395370998881378f0098a484add6e25647ce1e671c298425f06c1f7d0749476ac",
            "type": "pubkey"
          }
        }
      ],
      "hex": "01000000010000000000000000000000000000000000000000000000000000000000000000ffffffff0804ffff001d022703ffffffff0100f2052a010000004341046165eacbc51d1b690114b42a66cbe8207836de8ce404d665ec01b1eda43fdefcc395370998881378f0098a484add6e25647ce1e671c298425f06c1f7d0749476ac00000000"
    }
  ]
}