{
  "hash": "00000000d57f67594ab43b983a67c59ac1fb3d877640594fb255e53b86ad0de3",
  "confirmations": 46570,
  "height": 6528,
  "version": 1,
  "versionHex": "00000001",
  "merkleroot": "442f6335cabae57a4804488d2021afe52079ee2af322cfad7b9f8125adeb3184",
  "time": 1236349389,
  "mediantime": 1236345485,
  "nonce": 673825062,
  "bits": "1d00ffff",
  "difficulty": 1,
  "chainwork": "0000000000000000000000000000000000000000000000000000198119811981",
  "nTx": 1,
  "previousblockhash": "0000000034896f11d935a066e923a205c2a1e823cfb74de2f7cb41b56306a370",
  "nextblockhash": "00000000b21433731a9342c3108c62ccc48ab4637aa581a4ef4a2f989cdfd969",
  "strippedsize": 216,
  "size": 216,
  "weight": 864,
  "tx": [
    {
      "txid": "442f6335cabae57a4804488d2021afe52079ee2af322cfad7b9f8125adeb3184",
      "hash": "442f6335cabae57a4804488d2021afe52079ee2af322cfad7b9f8125adeb3184",
      "version": 1,
      "size": 135,
      "vsize": 135,
      "weight": 540,
      "locktime": 0,
      "vin": [
        {
          "coinbase": "04ffff001d022004",
          "sequence": 4294967295
        }
      ],
      "vout": [
        {
          "value": 50.0,
          "n": 0,
          "scriptPubKey": {
            "asm": "0489d01692b96b87caf19cdb943043bbdab6babdd5885d57c0e2f3ade0058f4fd886c1f344fbdf11583dc52ed5c427a8d078dc38f5c9d58a03dc78c560917b86b6 OP_CHECKSIG",
            "desc": "pk(0489d01692b96b87caf19cdb943043bbdab6babdd5885d57c0e2f3ade0058f4fd886c1f344fbdf11583dc52ed5c427a8d078dc38f5c9d58a03dc78c560917b86b6)#kdgmfn83",
            "hex": "410489d01692b96b87caf19cdb943043bbdab6babdd5885d57c0e2f3ade0058f4fd886c1f344fbdf11583dc52ed5c427a8d078dc38f5c9d58a03dc78c560917b86b6ac",
            "type": "pubkey"
          }
        }
      ],
      "hex": "01000000010000000000000000000000000000000000000000000000000000000000000000ffffffff0804ffff001d022004ffffffff0100f2052a0100000043410489d01692b96b87caf19cdb943043bbdab6babdd5885d57c0e2f3ade0058f4fd886c1f344fbdf11583dc52ed5c427a8d078dc38f5c9d58a03dc78c560917b86b6ac00000000"
    }
  ]
}