{
  "hash": "00000000ec24cd43708330cd0158beb38ef337cf7ae2b5ae39bcaf5d0e16ee91",
  "confirmations": 45308,
  "height": 7790,
  "version": 1,
  "versionHex": "00000001",
  "merkleroot": "1a30fcbd60af7353d6eaf855e47987629d4bdb71061f05d326e971279741759d",
  "time": 1237303745,
  "mediantime": 1237301722,
  "nonce": 112597913,
  "bits": "1d00ffff",
  "difficulty": 1,
  "chainwork": "00000000000000000000000000000000000000000000000000001e6f1e6f1e6f",
  "nTx": 1,
  "previousblockhash": "0000000037df988a406d3f2eb1f486b720f05e3b9b66dfece0aaaba8c14699bc",
  "nextblockhash": "0000000023bff7235b69a00f98b96cd0133ff60527314c777dc98e0ebed3e03b",
  "strippedsize": 215,
  "size": 215,
  "weight": 860,
  "tx": [
    {
      "txid": "1a30fcbd60af7353d6eaf855e47987629d4bdb71061f05d326e971279741759d",
      "hash": "1a30fcbd60af7353d6eaf855e47987629d4bdb71061f05d326e971279741759d",
      "version": 1,
      "size": 134,
      "vsize": 134,
      "weight": 536,
      "locktime": 0,
      "vin": [
        {
          "coinbase": "04ffff001d017d",
          "sequence": 4294967295
        }
      ],
      "vout": [
        {
          "value": 50.0,
          "n": 0,
          "scriptPubKey": {
            "asm": "04cdd5f9206821e2f612068ec0c8597ef0ca87a7ba503f1729b7471179fe4558c55a1d8d6b0d404960f9256890be9888c542332e680990d9cbfd8e658210ade375 OP_CHECKSIG",
            "desc": "pk(04cdd5f9206821e2f612068ec0c8597ef0ca87a7ba503f1729b7471179fe4558c55a1d8d6b0d404960f9256890be9888c542332e680990d9cbfd8e658210ade375)#q2swy38l",
            "hex": "4104cdd5f9206821e2f612068ec0c8597ef0ca87a7ba503f1729b7471179fe4558c55a1d8d6b0d404960f9256890be9888c542332e680990d9cbfd8e658210ade375ac",
            "type": "pubkey"
          }
        }
      ],
      "hex": "01000000010000000000000000000000000000000000000000000000000000000000000000ffffffff0704ffff001d017dffffffff0100f2052a01000000434104cdd5f9206821e2f612068ec0c8597ef0ca87a7ba503f1729b7471179fe4558c55a1d8d6b0d404960f9256890be9888c542332e680990d9cbfd8e658210ade375ac00000000"
    }
  ]
}