{
  "hash": "0000000061d87eca0a039ebdf3f6a7932aa879729b74d64911b9828957a294d9",
  "confirmations": 52206,
  "height": 386,
  "version": 1,
  "versionHex": "00000001",
  "merkleroot": "f605681ec24a0545f24cdab7455612abbd3cb53ea883e014a549af808c4b1541",
  "time": 1231891966,
  "mediantime": 1231887806,
  "nonce": 4029209641,
  "bits": "1d00ffff",
  "difficulty": 1,
  "chainwork": "0000000000000000000000000000000000000000000000000000018301830183",
  "nTx": 1,
  "previousblockhash": "00000000cdaf0290cbd8caac684c2cb2bb32b8153b53c074df8e366ceb647da6",
  "nextblockhash": "0000000014669130de860bc311833a43cd310d0d9cbc3ac0a4801e6cb213646f",
  "strippedsize": 216,
  "size": 216,
  "weight": 864,
  "tx": [
    {
      "txid": "f605681ec24a0545f24cdab7455612abbd3cb53ea883e014a549af808c4b1541",
      "hash": "f605681ec24a0545f24cdab7455612abbd3cb53ea883e014a549af808c4b1541",
      "version": 1,
      "size": 135,
      "vsize": 135,
      "weight": 540,
      "locktime": 0,
      "vin": [
        {
          "coinbase": "04ffff001d023902",
          "sequence": 4294967295
        }
      ],
      "vout": [
        {
          "value": 50.0,
          "n": 0,
          "scriptPubKey": {
            "asm": "0484e8a49d4c2361e565b4b9df6467956a08abdae66574fc5ace18cd5a6952ef6dc66e87bb60706840dd7e04ef7bd8a2d839fc342d033f028643b9e2d366f6cf61 OP_CHECKSIG",
            "desc": "pk(0484e8a49d4c2361e565b4b9df6467956a08abdae66574fc5ace18cd5a6952ef6dc66e87bb60706840dd7e04ef7bd8a2d839fc342d033f028643b9e2d366f6cf61)#3da53g0z",
            "hex": "410484e8a49d4c2361e565b4b9df6467956a08abdae66574fc5ace18cd5a6952ef6dc66e87bb60706840dd7e04ef7bd8a2d839fc342d033f028643b9e2d366f6cf61ac",
            "type": "pubkey"
          }
        }
      ],
      "hex": "01000000010000000000000000000000000000000000000000000000000000000000000000ffffffff0804ffff001d023902ffffffff0100f2052a0100000043410484e8a49d4c2361e565b4b9df6467956a08abdae66574fc5ace18cd5a6952ef6dc66e87bb60706840dd7e04ef7bd8a2d839fc342d033f028643b9e2d366f6cf61ac00000000"
    }
  ]
}