{
  "hash": "00000000931cb664384a4c637862f20287d8df407ab6de0afca432d98f6963f1",
  "confirmations": 47589,
  "height": 5509,
  "version": 1,
  "versionHex": "00000001",
  "merkleroot": "aeab1385acb50fadf30c53792c31a0bd5bbdddad6f4b7aff80d095a044253728",
  "time": 1235528727,
  "mediantime": 1235525154,
  "nonce": 3933415976,
  "bits": "1d00ffff",
  "difficulty": 1,
  "chainwork": "0000000000000000000000000000000000000000000000000000158615861586",
  "nTx": 1,
  "previousblockhash": "000000000b83cb62913e9a1fe957d8eaa2135c83cabb41abe781f4a89ef8bd43",
  "nextblockhash": "000000009e68d1afdc7c07b4b3bbc1ce891baf472495aef5a57f8ac73fd4f9b6",
  "strippedsize": 216,
  "size": 216,
  "weight": 864,
  "tx": [
    {
      "txid": "aeab1385acb50fadf30c53792c31a0bd5bbdddad6f4b7aff80d095a044253728",
      "hash": "aeab1385acb50fadf30c53792c31a0bd5bbdddad6f4b7aff80d095a044253728",
      "version": 1,
      "size": 135,
      "vsize": 135,
      "weight": 540,
      "locktime": 0,
      "vin": [
        {
          "coinbase": "04ffff001d02c805",
          "sequence": 4294967295
        }
      ],
      "vout": [
        {
          "value": 50.0,
          "n": 0,
          "scriptPubKey": {
            "asm": "048119e78fa4188025882c54ca1bbe60aded3c66b7aebe5aa49303596619ab02edd2b699dbebff4ffcc489e6a725e1483770bd014c10a779aa3cddb59b81ec3983 OP_CHECKSIG",
            "desc": "pk(048119e78fa4188025882c54ca1bbe60aded3c66b7aebe5aa49303596619ab02edd2b699dbebff4ffcc489e6a725e1483770bd014c10a779aa3cddb59b81ec3983)#tt7hyd36",
            "hex": "41048119e78fa4188025882c54ca1bbe60aded3c66b7aebe5aa49303596619ab02edd2b699dbebff4ffcc489e6a725e1483770bd014c10a779aa3cddb59b81ec3983ac",
            "type": "pubkey"
          }
        }
      ],
      "hex": "01000000010000000000000000000000000000000000000000000000000000000000000000ffffffff0804ffff001d02c805ffffffff0100f2052a010000004341048119e78fa4188025882c54ca1bbe60aded3c66b7aebe5aa49303596619ab02edd2b699dbebff4ffcc489e6a725e1483770bd014c10a779aa3cddb59b81ec3983ac00000000"
    }
  ]
}