{
  "hash": "000000002eababc383ae816a69515f21ce47e99eff7ddca9a2e9d8cc82f54bf6",
  "confirmations": 50370,
  "height": 2728,
  "version": 1,
  "versionHex": "00000001",
  "merkleroot": "1667043bacbbb92fd95525b7cdb8873596e35a4e1dcb3d20847f44a39c8024c8",
  "time": 1233583305,
  "mediantime": 1233579324,
  "nonce": 19935183,
  "bits": "1d00ffff",
  "difficulty": 1,
  "chainwork": "00000000000000000000000000000000000000000000000000000aa90aa90aa9",
  "nTx": 1,
  "previousblockhash": "00000000dc9149f7231f7295c4045ddf952c6424575afbb8dd07c5e7f0d0567d",
  "nextblockhash": "00000000353203facafa80f07f05a2f5df0237846d9b5d1fd4dbbfd56f6dd107",
  "strippedsize": 216,
  "size": 216,
  "weight": 864,
  "tx": [
    {
      "txid": "1667043bacbbb92fd95525b7cdb8873596e35a4e1dcb3d20847f44a39c8024c8",
      "hash": "1667043bacbbb92fd95525b7cdb8873596e35a4e1dcb3d20847f44a39c8024c8",
      "version": 1,
      "size": 135,
      "vsize": 135,
      "weight": 540,
      "locktime": 0,
      "vin": [
        {
          "coinbase": "04ffff001d02fe02",
          "sequence": 4294967295
        }
      ],
      "vout": [
        {
          "value": 50.0,
          "n": 0,
          "scriptPubKey": {
            "asm": "0478718bac283a9dafbc2184b749b5aed996a7264464dcc4554c1f1583fcc979966afeb4719607cbbc59f5109196a1eab784e5c2b1bc220a80e13787afb42a088e OP_CHECKSIG",
            "desc": "pk(0478718bac283a9dafbc2184b749b5aed996a7264464dcc4554c1f1583fcc979966afeb4719607cbbc59f5109196a1eab784e5c2b1bc220a80e13787afb42a088e)#w6gtzvl4",
            "hex": "410478718bac283a9dafbc2184b749b5aed996a7264464dcc4554c1f1583fcc979966afeb4719607cbbc59f5109196a1eab784e5c2b1bc220a80e13787afb42a088eac",
            "type": "pubkey"
          }
        }
      ],
      "hex": "01000000010000000000000000000000000000000000000000000000000000000000000000ffffffff0804ffff001d02fe02ffffffff0100f2052a0100000043410478718bac283a9dafbc2184b749b5aed996a7264464dcc4554c1f1583fcc979966afeb4719607cbbc59f5109196a1eab784e5c2b1bc220a80e13787afb42a088eac00000000"
    }
  ]
}