{
  "hash": "00000000d1cd5801237dd8d330e5e7076d13fe5b04b60ba5e986a58ff8bf1c4b",
  "confirmations": 44593,
  "height": 8505,
  "version": 1,
  "versionHex": "00000001",
  "merkleroot": "829c2b01608f9fd68a2068766170c80b2ce47c95efa1000de7fbafde2004a613",
  "time": 1237875660,
  "mediantime": 1237872782,
  "nonce": 64267667,
  "bits": "1d00ffff",
  "difficulty": 1,
  "chainwork": "0000000000000000000000000000000000000000000000000000213a213a213a",
  "nTx": 1,
  "previousblockhash": "00000000c2f0110c9376fe235b3d302f545036d8bba38ad49a9fcde3a9328e11",
  "nextblockhash": "0000000098a71523ddd1970642b2f5a8991b5aa911d2681bf1d3fb9f4bde7be7",
  "strippedsize": 216,
  "size": 216,
  "weight": 864,
  "tx": [
    {
      "txid": "829c2b01608f9fd68a2068766170c80b2ce47c95efa1000de7fbafde2004a613",
      "hash": "829c2b01608f9fd68a2068766170c80b2ce47c95efa1000de7fbafde2004a613",
      "version": 1,
      "size": 135,
      "vsize": 135,
      "weight": 540,
      "locktime": 0,
      "vin": [
        {
          "coinbase": "04ffff001d02ec0b",
          "sequence": 4294967295
        }
      ],
      "vout": [
        {
          "value": 50.0,
          "n": 0,
          "scriptPubKey": {
            "asm": "043ba81aab33da16cd1b3de32709f66b55f1b2f83d7c585dfaade6186a1f0228df4a2c0a7631881e6fc36487ef327394e2096b6db615f014b80fc5a2de3871b186 OP_CHECKSIG",
            "desc": "pk(043ba81aab33da16cd1b3de32709f66b55f1b2f83d7c585dfaade6186a1f0228df4a2c0a7631881e6fc36487ef327394e2096b6db615f014b80fc5a2de3871b186)#7g8fzrnz",
            "hex": "41043ba81aab33da16cd1b3de32709f66b55f1b2f83d7c585dfaade6186a1f0228df4a2c0a7631881e6fc36487ef327394e2096b6db615f014b80fc5a2de3871b186ac",
            "type": "pubkey"
          }
        }
      ],
      "hex": "01000000010000000000000000000000000000000000000000000000000000000000000000ffffffff0804ffff001d02ec0bffffffff0100f2052a010000004341043ba81aab33da16cd1b3de32709f66b55f1b2f83d7c585dfaade6186a1f0228df4a2c0a7631881e6fc36487ef327394e2096b6db615f014b80fc5a2de3871b186ac00000000"
    }
  ]
}