{
  "hash": "0000000033dc66152e26c981dcfc5e05d1cbbe3489e7f8df271dbc068b647ab9",
  "confirmations": 49029,
  "height": 4069,
  "version": 1,
  "versionHex": "00000001",
  "merkleroot": "4bb8e5396584eaba291e0233fb3070801cc4158111fe8fff7bd33921c2c0fff8",
  "time": 1234490992,
  "mediantime": 1234488195,
  "nonce": 137192787,
  "bits": "1d00ffff",
  "difficulty": 1,
  "chainwork": "00000000000000000000000000000000000000000000000000000fe60fe60fe6",
  "nTx": 1,
  "previousblockhash": "0000000066ceada565012ca45bbb89e1e0596fe533ff42de13762d0170506103",
  "nextblockhash": "0000000043de9da7e9119fcdb43c58f744bca23b2110ef91479cec78c49ce86a",
  "strippedsize": 216,
  "size": 216,
  "weight": 864,
  "tx": [
    {
      "txid": "4bb8e5396584eaba291e0233fb3070801cc4158111fe8fff7bd33921c2c0fff8",
      "hash": "4bb8e5396584eaba291e0233fb3070801cc4158111fe8fff7bd33921c2c0fff8",
      "version": 1,
      "size": 135,
      "vsize": 135,
      "weight": 540,
      "locktime": 0,
      "vin": [
        {
          "coinbase": "04ffff001d027e03",
          "sequence": 4294967295
        }
      ],
      "vout": [
        {
          "value": 50.0,
          "n": 0,
          "scriptPubKey": {
            "asm": "0447768a3804fc90e398be85bdfb63e6fef9aa05574f19ea239276ad43c0a401f6fb43273b1f8cdb77f277dfdd554bb6adb84923b54b324a9b7f361951b6a486f2 OP_CHECKSIG",
            "desc": "pk(0447768a3804fc90e398be85bdfb63e6fef9aa05574f19ea239276ad43c0a401f6fb43273b1f8cdb77f277dfdd554bb6adb84923b54b324a9b7f361951b6a486f2)#gul0amww",
            "hex": "410447768a3804fc90e398be85bdfb63e6fef9aa05574f19ea239276ad43c0a401f6fb43273b1f8cdb77f277dfdd554bb6adb84923b54b324a9b7f361951b6a486f2ac",
            "type": "pubkey"
          }
        }
      ],
      "hex": "01000000010000000000000000000000000000000000000000000000000000000000000000ffffffff0804ffff001d027e03ffffffff0100f2052a0100000043410447768a3804fc90e398be85bdfb63e6fef9aa05574f19ea239276ad43c0a401f6fb43273b1f8cdb77f277dfdd554bb6adb84923b54b324a9b7f361951b6a486f2ac00000000"
    }
  ]
}