{
  "hash": "00000000dac6dfbd3ee5ab827d0cb3a4a340ec66459f4f551b92e0b13e27108c",
  "confirmations": 46988,
  "height": 6110,
  "version": 1,
  "versionHex": "00000001",
  "merkleroot": "bcf01804773c56f6ac29e7faae6f94a829e7919ead75bb62b2cbdc8e305af864",
  "time": 1236016719,
  "mediantime": 1236012666,
  "nonce": 942492948,
  "bits": "1d00ffff",
  "difficulty": 1,
  "chainwork": "000000000000000000000000000000000000000000000000000017df17df17df",
  "nTx": 1,
  "previousblockhash": "00000000085a4776d416c8eba3d2723a113e51c59bce7d1fdab54098c399f3ac",
  "nextblockhash": "000000005b28ffb3c31a309a53425a7190ec55af9c65c574e6b5abd45ce83846",
  "strippedsize": 216,
  "size": 216,
  "weight": 864,
  "tx": [
    {
      "txid": "bcf01804773c56f6ac29e7faae6f94a829e7919ead75bb62b2cbdc8e305af864",
      "hash": "bcf01804773c56f6ac29e7faae6f94a829e7919ead75bb62b2cbdc8e305af864",
      "version": 1,
      "size": 135,
      "vsize": 135,
      "weight": 540,
      "locktime": 0,
      "vin": [
        {
          "coinbase": "04ffff001d02ef06",
          "sequence": 4294967295
        }
      ],
      "vout": [
        {
          "value": 50.0,
          "n": 0,
          "scriptPubKey": {
            "asm": "04b7d177aef082cf429622203f41e25409e7640aa29f915c9c0ffa51c777bfde66277be77fc86cc271011ba853148b92331ab8e2de32f6de410ea63b2e3bc30eab OP_CHECKSIG",
            "desc": "pk(04b7d177aef082cf429622203f41e25409e7640aa29f915c9c0ffa51c777bfde66277be77fc86cc271011ba853148b92331ab8e2de32f6de410ea63b2e3bc30eab)#zfxzugpu",
            "hex": "4104b7d177aef082cf429622203f41e25409e7640aa29f915c9c0ffa51c777bfde66277be77fc86cc271011ba853148b92331ab8e2de32f6de410ea63b2e3bc30eabac",
            "type": "pubkey"
          }
        }
      ],
      "hex": "01000000010000000000000000000000000000000000000000000000000000000000000000ffffffff0804ffff001d02ef06ffffffff0100f2052a01000000434104b7d177aef082cf429622203f41e25409e7640aa29f915c9c0ffa51c777bfde66277be77fc86cc271011ba853148b92331ab8e2de32f6de410ea63b2e3bc30eabac00000000"
    }
  ]
}