{
  "hash": "000000004e56014d59915093432fb53cc27ff9832bb88ec224760053855adcc4",
  "confirmations": 46694,
  "height": 6404,
  "version": 1,
  "versionHex": "00000001",
  "merkleroot": "2734a1f114f76ba7ca71d6fb0e74ac1d474c5d90e55294c3413bbadb4c9c7a6d",
  "time": 1236258833,
  "mediantime": 1236254910,
  "nonce": 3274427947,
  "bits": "1d00ffff",
  "difficulty": 1,
  "chainwork": "0000000000000000000000000000000000000000000000000000190519051905",
  "nTx": 1,
  "previousblockhash": "0000000023590d5786ed808a04fd7ba10b4e8814ca8f3d7eef91621074f99f85",
  "nextblockhash": "00000000aefe1c4d2ce3109de7c3717d3007ece8616cb85caf20af1e860796c7",
  "strippedsize": 216,
  "size": 216,
  "weight": 864,
  "tx": [
    {
      "txid": "2734a1f114f76ba7ca71d6fb0e74ac1d474c5d90e55294c3413bbadb4c9c7a6d",
      "hash": "2734a1f114f76ba7ca71d6fb0e74ac1d474c5d90e55294c3413bbadb4c9c7a6d",
      "version": 1,
      "size": 135,
      "vsize": 135,
      "weight": 540,
      "locktime": 0,
      "vin": [
        {
          "coinbase": "04ffff001d02e701",
          "sequence": 4294967295
        }
      ],
      "vout": [
        {
          "value": 50.0,
          "n": 0,
          "scriptPubKey": {
            "asm": "041a92300f56cb935975a79feac18ec3b3190da976613d77e32677125ae5fa7d678e9b6e4726e80e32276ddf3f70638c0d63896bd9f16cdbe70f57edfae3432561 OP_CHECKSIG",
            "desc": "pk(041a92300f56cb935975a79feac18ec3b3190da976613d77e32677125ae5fa7d678e9b6e4726e80e32276ddf3f70638c0d63896bd9f16cdbe70f57edfae3432561)#sukypjxy",
            "hex": "41041a92300f56cb935975a79feac18ec3b3190da976613d77e32677125ae5fa7d678e9b6e4726e80e32276ddf3f70638c0d63896bd9f16cdbe70f57edfae3432561ac",
            "type": "pubkey"
          }
        }
      ],
      "hex": "01000000010000000000000000000000000000000000000000000000000000000000000000ffffffff0804ffff001d02e701ffffffff0100f2052a010000004341041a92300f56cb935975a79feac18ec3b3190da976613d77e32677125ae5fa7d678e9b6e4726e80e32276ddf3f70638c0d63896bd9f16cdbe70f57edfae3432561ac00000000"
    }
  ]
}