{
  "hash": "00000000c70c3b752e4ed753bee79e8426a3a7873b5d540538cf64fd55d60151",
  "confirmations": 44512,
  "height": 8586,
  "version": 1,
  "versionHex": "00000001",
  "merkleroot": "0b5c528b479cebcf648d448488ffa238fb88b6e368ee3278cd909a9bf9ba8c62",
  "time": 1237939764,
  "mediantime": 1237936057,
  "nonce": 308369717,
  "bits": "1d00ffff",
  "difficulty": 1,
  "chainwork": "0000000000000000000000000000000000000000000000000000218b218b218b",
  "nTx": 1,
  "previousblockhash": "000000005f5b22b1c1b20e29574119e78688a9df93a9bd6c6a0b245beedec829",
  "nextblockhash": "00000000d268586c9dfc0b5777610d3cb5cbf7b62c7b6049d7744871eae645be",
  "strippedsize": 216,
  "size": 216,
  "weight": 864,
  "tx": [
    {
      "txid": "0b5c528b479cebcf648d448488ffa238fb88b6e368ee3278cd909a9bf9ba8c62",
      "hash": "0b5c528b479cebcf648d448488ffa238fb88b6e368ee3278cd909a9bf9ba8c62",
      "version": 1,
      "size": 135,
      "vsize": 135,
      "weight": 540,
      "locktime": 0,
      "vin": [
        {
          "coinbase": "04ffff001d025f09",
          "sequence": 4294967295
        }
      ],
      "vout": [
        {
          "value": 50.0,
          "n": 0,
          "scriptPubKey": {
            "asm": "04d182ebb8bd17fdced172029be804cb1106fa0c787e876b3439ced4b90b569b1e5b6fb2f500e4223984f91ef677b932a52bfe801821537315100676e9bb72ea10 OP_CHECKSIG",
            "desc": "pk(04d182ebb8bd17fdced172029be804cb1106fa0c787e876b3439ced4b90b569b1e5b6fb2f500e4223984f91ef677b932a52bfe801821537315100676e9bb72ea10)#ud0wyk6h",
            "hex": "4104d182ebb8bd17fdced172029be804cb1106fa0c787e876b3439ced4b90b569b1e5b6fb2f500e4223984f91ef677b932a52bfe801821537315100676e9bb72ea10ac",
            "type": "pubkey"
          }
        }
      ],
      "hex": "01000000010000000000000000000000000000000000000000000000000000000000000000ffffffff0804ffff001d025f09ffffffff0100f2052a01000000434104d182ebb8bd17fdced172029be804cb1106fa0c787e876b3439ced4b90b569b1e5b6fb2f500e4223984f91ef677b932a52bfe801821537315100676e9bb72ea10ac00000000"
    }
  ]
}