{
  "hash": "0000000090a824325eb9cf4106e1b1972881aa1a822384bb9a78e812e16cbced",
  "confirmations": 50030,
  "height": 3068,
  "version": 1,
  "versionHex": "00000001",
  "merkleroot": "2a877b7f8a45daafb3f8656845a5b5a19a047492cead5054bdd6f6048d9bdff5",
  "time": 1233808468,
  "mediantime": 1233803897,
  "nonce": 2451346966,
  "bits": "1d00ffff",
  "difficulty": 1,
  "chainwork": "00000000000000000000000000000000000000000000000000000bfd0bfd0bfd",
  "nTx": 1,
  "previousblockhash": "000000007b308f42e27972faa8cfbdf1c9162f470095346450ca0246ba19e185",
  "nextblockhash": "00000000b3e6909a46f5bc05bf13d417bb049cdbd95f2842072651c91cd31ce0",
  "strippedsize": 215,
  "size": 215,
  "weight": 860,
  "tx": [
    {
      "txid": "2a877b7f8a45daafb3f8656845a5b5a19a047492cead5054bdd6f6048d9bdff5",
      "hash": "2a877b7f8a45daafb3f8656845a5b5a19a047492cead5054bdd6f6048d9bdff5",
      "version": 1,
      "size": 134,
      "vsize": 134,
      "weight": 536,
      "locktime": 0,
      "vin": [
        {
          "coinbase": "04ffff001d017e",
          "sequence": 4294967295
        }
      ],
      "vout": [
        {
          "value": 50.0,
          "n": 0,
          "scriptPubKey": {
            "asm": "04c94d056dc55acbd5b9a348d7ff67d12f53b6710f7d6ac6302a8a093ad9b1df0f94f90930c8959c70f77a06b423d7f918664511e5f00be3d313e61d99ff57af94 OP_CHECKSIG",
            "desc": "pk(04c94d056dc55acbd5b9a348d7ff67d12f53b6710f7d6ac6302a8a093ad9b1df0f94f90930c8959c70f77a06b423d7f918664511e5f00be3d313e61d99ff57af94)#v5g4t60m",
            "hex": "4104c94d056dc55acbd5b9a348d7ff67d12f53b6710f7d6ac6302a8a093ad9b1df0f94f90930c8959c70f77a06b423d7f918664511e5f00be3d313e61d99ff57af94ac",
            "type": "pubkey"
          }
        }
      ],
      "hex": "01000000010000000000000000000000000000000000000000000000000000000000000000ffffffff0704ffff001d017effffffff0100f2052a01000000434104c94d056dc55acbd5b9a348d7ff67d12f53b6710f7d6ac6302a8a093ad9b1df0f94f90930c8959c70f77a06b423d7f918664511e5f00be3d313e61d99ff57af94ac00000000"
    }
  ]
}