{
  "hash": "000000004586e460002e8b629f99c6c3afb75d0356e44c10f3d6bfb174726e43",
  "confirmations": 50084,
  "height": 3014,
  "version": 1,
  "versionHex": "00000001",
  "merkleroot": "348b9eac1629c1ba1087d6441273570cba5382dffed986f5fb7b79e7113e2b05",
  "time": 1233772277,
  "mediantime": 1233768745,
  "nonce": 158952334,
  "bits": "1d00ffff",
  "difficulty": 1,
  "chainwork": "00000000000000000000000000000000000000000000000000000bc70bc70bc7",
  "nTx": 1,
  "previousblockhash": "00000000b3f870834abddae4314818204529b780f833669157bb65b384d81621",
  "nextblockhash": "00000000ad2ac991747dc80b656e8f4af4b3e104b1311cae6af631740c644a8a",
  "strippedsize": 216,
  "size": 216,
  "weight": 864,
  "tx": [
    {
      "txid": "348b9eac1629c1ba1087d6441273570cba5382dffed986f5fb7b79e7113e2b05",
      "hash": "348b9eac1629c1ba1087d6441273570cba5382dffed986f5fb7b79e7113e2b05",
      "version": 1,
      "size": 135,
      "vsize": 135,
      "weight": 540,
      "locktime": 0,
      "vin": [
        {
          "coinbase": "04ffff001d024607",
          "sequence": 4294967295
        }
      ],
      "vout": [
        {
          "value": 50.0,
          "n": 0,
          "scriptPubKey": {
            "asm": "04167dc539219485afff390c3a33b8c06f4687749f212cc6a25a228a554a5650eebe5a0b0ad55ba0df036c8237ee986bbe8eecd91f9d5b47d8e34451c893001d2e OP_CHECKSIG",
            "desc": "pk(04167dc539219485afff390c3a33b8c06f4687749f212cc6a25a228a554a5650eebe5a0b0ad55ba0df036c8237ee986bbe8eecd91f9d5b47d8e34451c893001d2e)#q9vnmn7e",
            "hex": "4104167dc539219485afff390c3a33b8c06f4687749f212cc6a25a228a554a5650eebe5a0b0ad55ba0df036c8237ee986bbe8eecd91f9d5b47d8e34451c893001d2eac",
            "type": "pubkey"
          }
        }
      ],
      "hex": "01000000010000000000000000000000000000000000000000000000000000000000000000ffffffff0804ffff001d024607ffffffff0100f2052a01000000434104167dc539219485afff390c3a33b8c06f4687749f212cc6a25a228a554a5650eebe5a0b0ad55ba0df036c8237ee986bbe8eecd91f9d5b47d8e34451c893001d2eac00000000"
    }
  ]
}