{
  "hash": "0000000096fed37ea3ca79072dcd1deb328413843550fd271a01bc4e56ea4854",
  "confirmations": 43226,
  "height": 9872,
  "version": 1,
  "versionHex": "00000001",
  "merkleroot": "4f17010564a847a654bb661a6518b691312ec45b4c9e3ea44d788d5a576cfa55",
  "time": 1238907298,
  "mediantime": 1238904339,
  "nonce": 16710024,
  "bits": "1d00ffff",
  "difficulty": 1,
  "chainwork": "0000000000000000000000000000000000000000000000000000269126912691",
  "nTx": 1,
  "previousblockhash": "000000006d3d2980b9c32d15159d096877af85bfae5477556f5609bdfe6f9727",
  "nextblockhash": "0000000049adbeeca7fb22c980d0788eb83188c1481fddd6009519d2c9dcfea6",
  "strippedsize": 215,
  "size": 215,
  "weight": 860,
  "tx": [
    {
      "txid": "4f17010564a847a654bb661a6518b691312ec45b4c9e3ea44d788d5a576cfa55",
      "hash": "4f17010564a847a654bb661a6518b691312ec45b4c9e3ea44d788d5a576cfa55",
      "version": 1,
      "size": 134,
      "vsize": 134,
      "weight": 536,
      "locktime": 0,
      "vin": [
        {
          "coinbase": "04ffff001d014a",
          "sequence": 4294967295
        }
      ],
      "vout": [
        {
          "value": 50.0,
          "n": 0,
          "scriptPubKey": {
            "asm": "048d4bd26265903318819e90fae5f4a019ce58c8f1f09f9a664da17422e19f8d245e5fe97a6a966d1121fea1a7388b8ff179477a1821581ac7d1376b014a664439 OP_CHECKSIG",
            "desc": "pk(048d4bd26265903318819e90fae5f4a019ce58c8f1f09f9a664da17422e19f8d245e5fe97a6a966d1121fea1a7388b8ff179477a1821581ac7d1376b014a664439)#z0c48vjx",
            "hex": "41048d4bd26265903318819e90fae5f4a019ce58c8f1f09f9a664da17422e19f8d245e5fe97a6a966d1121fea1a7388b8ff179477a1821581ac7d1376b014a664439ac",
            "type": "pubkey"
          }
        }
      ],
      "hex": "01000000010000000000000000000000000000000000000000000000000000000000000000ffffffff0704ffff001d014affffffff0100f2052a010000004341048d4bd26265903318819e90fae5f4a019ce58c8f1f09f9a664da17422e19f8d245e5fe97a6a966d1121fea1a7388b8ff179477a1821581ac7d1376b014a664439ac00000000"
    }
  ]
}