{
  "hash": "000000007e7ac3c321c4ff1c7cdfe08b1faa80ba293a856d78203ad611daeb85",
  "confirmations": 45347,
  "height": 7751,
  "version": 1,
  "versionHex": "00000001",
  "merkleroot": "a75e5b8d0b86a8bf5a0845b8db9353f0b61b36022da1873013530f5778cf1fc6",
  "time": 1237277655,
  "mediantime": 1237273911,
  "nonce": 136516570,
  "bits": "1d00ffff",
  "difficulty": 1,
  "chainwork": "00000000000000000000000000000000000000000000000000001e481e481e48",
  "nTx": 1,
  "previousblockhash": "00000000565f674d29f07c227e8a7354ca2e330520847a43f3694ad2f9bed9a4",
  "nextblockhash": "00000000675cc0c2fa1953ee4fb3390b6b3cea4e57d9d00fb702b0984d7b9df1",
  "strippedsize": 215,
  "size": 215,
  "weight": 860,
  "tx": [
    {
      "txid": "a75e5b8d0b86a8bf5a0845b8db9353f0b61b36022da1873013530f5778cf1fc6",
      "hash": "a75e5b8d0b86a8bf5a0845b8db9353f0b61b36022da1873013530f5778cf1fc6",
      "version": 1,
      "size": 134,
      "vsize": 134,
      "weight": 536,
      "locktime": 0,
      "vin": [
        {
          "coinbase": "04ffff001d0156",
          "sequence": 4294967295
        }
      ],
      "vout": [
        {
          "value": 50.0,
          "n": 0,
          "scriptPubKey": {
            "asm": "04d2476e0b32bc40345911b178bd0e8b0c0f3ffc42f7f56be719301ed0d9f61d448dd960e3b9f53af33c34db6a9c8c03c8b689087e77c6f5c8f9fffbe7ae9d64ea OP_CHECKSIG",
            "desc": "pk(04d2476e0b32bc40345911b178bd0e8b0c0f3ffc42f7f56be719301ed0d9f61d448dd960e3b9f53af33c34db6a9c8c03c8b689087e77c6f5c8f9fffbe7ae9d64ea)#hwenq2ah",
            "hex": "4104d2476e0b32bc40345911b178bd0e8b0c0f3ffc42f7f56be719301ed0d9f61d448dd960e3b9f53af33c34db6a9c8c03c8b689087e77c6f5c8f9fffbe7ae9d64eaac",
            "type": "pubkey"
          }
        }
      ],
      "hex": "01000000010000000000000000000000000000000000000000000000000000000000000000ffffffff0704ffff001d0156ffffffff0100f2052a01000000434104d2476e0b32bc40345911b178bd0e8b0c0f3ffc42f7f56be719301ed0d9f61d448dd960e3b9f53af33c34db6a9c8c03c8b689087e77c6f5c8f9fffbe7ae9d64eaac00000000"
    }
  ]
}