{
  "hash": "0000000009d40c0a46d368c2780dfcb0375b0fee9f0d8ad87b325ec8e451e1d2",
  "confirmations": 51953,
  "height": 92,
  "version": 1,
  "versionHex": "00000001",
  "merkleroot": "81b896b98663fb6238c9643545eba3a1b32933f96e1a33d122efed5ab7165f2d",
  "time": 1231654561,
  "mediantime": 1231651888,
  "nonce": 3542398981,
  "bits": "1d00ffff",
  "difficulty": 1,
  "chainwork": "0000000000000000000000000000000000000000000000000000005d005d005d",
  "nTx": 1,
  "previousblockhash": "000000006e55c92b2a940de67b1314e150f0c72d0468c625f4f267fa30b8c1b1",
  "nextblockhash": "0000000069babcb34cc43c80e1c43d423a70821c740193a8265d3edc204ce4f0",
  "strippedsize": 215,
  "size": 215,
  "weight": 860,
  "tx": [
    {
      "txid": "81b896b98663fb6238c9643545eba3a1b32933f96e1a33d122efed5ab7165f2d",
      "hash": "81b896b98663fb6238c9643545eba3a1b32933f96e1a33d122efed5ab7165f2d",
      "version": 1,
      "size": 134,
      "vsize": 134,
      "weight": 536,
      "locktime": 0,
      "vin": [
        {
          "coinbase": "04ffff001d012f",
          "sequence": 4294967295
        }
      ],
      "vout": [
        {
          "value": 50.0,
          "n": 0,
          "scriptPubKey": {
            "asm": "04ad6f8b8c71859ab32eb863c88f33a9c6d621639cb1b6094ee61c7a8bdfa2fd7070c620d8f0f99e98b090ce932a7ea8d7595eadd0d80ce966c52bece59b96c88f OP_CHECKSIG",
            "desc": "pk(04ad6f8b8c71859ab32eb863c88f33a9c6d621639cb1b6094ee61c7a8bdfa2fd7070c620d8f0f99e98b090ce932a7ea8d7595eadd0d80ce966c52bece59b96c88f)#fjq70sjn",
            "hex": "4104ad6f8b8c71859ab32eb863c88f33a9c6d621639cb1b6094ee61c7a8bdfa2fd7070c620d8f0f99e98b090ce932a7ea8d7595eadd0d80ce966c52bece59b96c88fac",
            "type": "pubkey"
          }
        }
      ],
      "hex": "01000000010000000000000000000000000000000000000000000000000000000000000000ffffffff0704ffff001d012fffffffff0100f2052a01000000434104ad6f8b8c71859ab32eb863c88f33a9c6d621639cb1b6094ee61c7a8bdfa2fd7070c620d8f0f99e98b090ce932a7ea8d7595eadd0d80ce966c52bece59b96c88fac00000000"
    }
  ]
}