{
  "hash": "000000008c20691cd9b2c56bc110a3d9a431cbd08ce60bb63958f779e5ab081c",
  "confirmations": 46538,
  "height": 6560,
  "version": 1,
  "versionHex": "00000001",
  "merkleroot": "b9cbfb7f37a3ded998ece8478ecb4c1c78b6d7e33bf50041a9552b4abbfc332b",
  "time": 1236374181,
  "mediantime": 1236368730,
  "nonce": 3752752643,
  "bits": "1d00ffff",
  "difficulty": 1,
  "chainwork": "000000000000000000000000000000000000000000000000000019a119a119a1",
  "nTx": 1,
  "previousblockhash": "000000005fb2e00bae94eaa99f1715fd433f96dbb6714ce06f4b36250e898905",
  "nextblockhash": "00000000b3678464e2e88134700b20ac0e29b30e7368698083a6591127e123d4",
  "strippedsize": 216,
  "size": 216,
  "weight": 864,
  "tx": [
    {
      "txid": "b9cbfb7f37a3ded998ece8478ecb4c1c78b6d7e33bf50041a9552b4abbfc332b",
      "hash": "b9cbfb7f37a3ded998ece8478ecb4c1c78b6d7e33bf50041a9552b4abbfc332b",
      "version": 1,
      "size": 135,
      "vsize": 135,
      "weight": 540,
      "locktime": 0,
      "vin": [
        {
          "coinbase": "04ffff001d028d04",
          "sequence": 4294967295
        }
      ],
      "vout": [
        {
          "value": 50.0,
          "n": 0,
          "scriptPubKey": {
            "asm": "0412277ddac533b10a1be9bb69b79306eafdb5f46409c6a49a5965d044edb09a74980e26e340b59ebd219c81c6e9866369d2a885602a2658d0ca1ae1ec4229a7fd OP_CHECKSIG",
            "desc": "pk(0412277ddac533b10a1be9bb69b79306eafdb5f46409c6a49a5965d044edb09a74980e26e340b59ebd219c81c6e9866369d2a885602a2658d0ca1ae1ec4229a7fd)#5y2vledm",
            "hex": "410412277ddac533b10a1be9bb69b79306eafdb5f46409c6a49a5965d044edb09a74980e26e340b59ebd219c81c6e9866369d2a885602a2658d0ca1ae1ec4229a7fdac",
            "type": "pubkey"
          }
        }
      ],
      "hex": "01000000010000000000000000000000000000000000000000000000000000000000000000ffffffff0804ffff001d028d04ffffffff0100f2052a0100000043410412277ddac533b10a1be9bb69b79306eafdb5f46409c6a49a5965d044edb09a74980e26e340b59ebd219c81c6e9866369d2a885602a2658d0ca1ae1ec4229a7fdac00000000"
    }
  ]
}