{
  "hash": "00000000985c4c8c6b6597186250e2486f7ff7faa393ccbf7070803502b78cc6",
  "confirmations": 45174,
  "height": 7924,
  "version": 1,
  "versionHex": "00000001",
  "merkleroot": "9f746b391404520c5ee7f8d4d0cb213b0e2011f440b2e61786302900ee8a38e9",
  "time": 1237410288,
  "mediantime": 1237406421,
  "nonce": 18412805,
  "bits": "1d00ffff",
  "difficulty": 1,
  "chainwork": "00000000000000000000000000000000000000000000000000001ef51ef51ef5",
  "nTx": 1,
  "previousblockhash": "0000000046ba32458dff710c8f28a1ae9bb49e8f8ee994c6bf2e99ec4b2d73c6",
  "nextblockhash": "000000005ad42614c6d52625c7756775b05c0c5445dc487f5fcae5d44a54f850",
  "strippedsize": 216,
  "size": 216,
  "weight": 864,
  "tx": [
    {
      "txid": "9f746b391404520c5ee7f8d4d0cb213b0e2011f440b2e61786302900ee8a38e9",
      "hash": "9f746b391404520c5ee7f8d4d0cb213b0e2011f440b2e61786302900ee8a38e9",
      "version": 1,
      "size": 135,
      "vsize": 135,
      "weight": 540,
      "locktime": 0,
      "vin": [
        {
          "coinbase": "04ffff001d02f107",
          "sequence": 4294967295
        }
      ],
      "vout": [
        {
          "value": 50.0,
          "n": 0,
          "scriptPubKey": {
            "asm": "0441b8776c3d788d5cd0f5303c7bd79e136e30ac36ac611cfb54ae170c9b46590afa933191cfbabf04ef9c5b272ebdefe23d49e69e81c091bedbc08ceabce6c48a OP_CHECKSIG",
            "desc": "pk(0441b8776c3d788d5cd0f5303c7bd79e136e30ac36ac611cfb54ae170c9b46590afa933191cfbabf04ef9c5b272ebdefe23d49e69e81c091bedbc08ceabce6c48a)#kqaguzzm",
            "hex": "410441b8776c3d788d5cd0f5303c7bd79e136e30ac36ac611cfb54ae170c9b46590afa933191cfbabf04ef9c5b272ebdefe23d49e69e81c091bedbc08ceabce6c48aac",
            "type": "pubkey"
          }
        }
      ],
      "hex": "01000000010000000000000000000000000000000000000000000000000000000000000000ffffffff0804ffff001d02f107ffffffff0100f2052a0100000043410441b8776c3d788d5cd0f5303c7bd79e136e30ac36ac611cfb54ae170c9b46590afa933191cfbabf04ef9c5b272ebdefe23d49e69e81c091bedbc08ceabce6c48aac00000000"
    }
  ]
}