{
  "hash": "00000000f827639ada1b65cf1c85b92408862252ce39152b4da44ab806cc1421",
  "confirmations": 45044,
  "height": 8054,
  "version": 1,
  "versionHex": "00000001",
  "merkleroot": "a411ba9ab4861acf0fc62be6b0aa60fe3fc037983376e484ccb3e0dd685918b1",
  "time": 1237501238,
  "mediantime": 1237497338,
  "nonce": 3040127008,
  "bits": "1d00ffff",
  "difficulty": 1,
  "chainwork": "00000000000000000000000000000000000000000000000000001f771f771f77",
  "nTx": 1,
  "previousblockhash": "00000000677656fad39aa16dccde62544df254962ca5ebb74ba27654d0467e78",
  "nextblockhash": "00000000adfffdbddb87e45d8e68e75725da5336d77c7233e51f9bb483ad7376",
  "strippedsize": 215,
  "size": 215,
  "weight": 860,
  "tx": [
    {
      "txid": "a411ba9ab4861acf0fc62be6b0aa60fe3fc037983376e484ccb3e0dd685918b1",
      "hash": "a411ba9ab4861acf0fc62be6b0aa60fe3fc037983376e484ccb3e0dd685918b1",
      "version": 1,
      "size": 134,
      "vsize": 134,
      "weight": 536,
      "locktime": 0,
      "vin": [
        {
          "coinbase": "04ffff001d0144",
          "sequence": 4294967295
        }
      ],
      "vout": [
        {
          "value": 50.0,
          "n": 0,
          "scriptPubKey": {
            "asm": "04a67649628b97cf2ebdd649ae994ebe69da37dc60654e42f59f5fdd17f038a53d83e8a7c665c6ca39ec4ac4377e577b98e3476362a020be441fe70d67202f8aeb OP_CHECKSIG",
            "desc": "pk(04a67649628b97cf2ebdd649ae994ebe69da37dc60654e42f59f5fdd17f038a53d83e8a7c665c6ca39ec4ac4377e577b98e3476362a020be441fe70d67202f8aeb)#925dtfmt",
            "hex": "4104a67649628b97cf2ebdd649ae994ebe69da37dc60654e42f59f5fdd17f038a53d83e8a7c665c6ca39ec4ac4377e577b98e3476362a020be441fe70d67202f8aebac",
            "type": "pubkey"
          }
        }
      ],
      "hex": "01000000010000000000000000000000000000000000000000000000000000000000000000ffffffff0704ffff001d0144ffffffff0100f2052a01000000434104a67649628b97cf2ebdd649ae994ebe69da37dc60654e42f59f5fdd17f038a53d83e8a7c665c6ca39ec4ac4377e577b98e3476362a020be441fe70d67202f8aebac00000000"
    }
  ]
}