{
  "hash": "000000005521f7073f99a1cae1511c386efee46d23accbe3db41ddc5b41798b0",
  "confirmations": 49048,
  "height": 4050,
  "version": 1,
  "versionHex": "00000001",
  "merkleroot": "8774ca3390fcd32989522037c9b94f3b7f54e763ce921b40b5d86146436bd420",
  "time": 1234477000,
  "mediantime": 1234474356,
  "nonce": 2561312517,
  "bits": "1d00ffff",
  "difficulty": 1,
  "chainwork": "00000000000000000000000000000000000000000000000000000fd30fd30fd3",
  "nTx": 1,
  "previousblockhash": "000000009187931abd629b696201401af122c825d3a8e00a69b0137ee26e9777",
  "nextblockhash": "000000008e59bdbd090967473b94ac429bfc1f54366a520a40be7106dd447e12",
  "strippedsize": 216,
  "size": 216,
  "weight": 864,
  "tx": [
    {
      "txid": "8774ca3390fcd32989522037c9b94f3b7f54e763ce921b40b5d86146436bd420",
      "hash": "8774ca3390fcd32989522037c9b94f3b7f54e763ce921b40b5d86146436bd420",
      "version": 1,
      "size": 135,
      "vsize": 135,
      "weight": 540,
      "locktime": 0,
      "vin": [
        {
          "coinbase": "04ffff001d022b05",
          "sequence": 4294967295
        }
      ],
      "vout": [
        {
          "value": 50.0,
          "n": 0,
          "scriptPubKey": {
            "asm": "0415ec4a94fdb9fec37a87e8333c669bf734cb12527ae747ea3f25fa27ab31cc4fc4ef8dd453ffd5776cf17cc3d44644d45b8a5b2722414f899e6f37376bd57204 OP_CHECKSIG",
            "desc": "pk(0415ec4a94fdb9fec37a87e8333c669bf734cb12527ae747ea3f25fa27ab31cc4fc4ef8dd453ffd5776cf17cc3d44644d45b8a5b2722414f899e6f37376bd57204)#pc5usyd4",
            "hex": "410415ec4a94fdb9fec37a87e8333c669bf734cb12527ae747ea3f25fa27ab31cc4fc4ef8dd453ffd5776cf17cc3d44644d45b8a5b2722414f899e6f37376bd57204ac",
            "type": "pubkey"
          }
        }
      ],
      "hex": "01000000010000000000000000000000000000000000000000000000000000000000000000ffffffff0804ffff001d022b05ffffffff0100f2052a0100000043410415ec4a94fdb9fec37a87e8333c669bf734cb12527ae747ea3f25fa27ab31cc4fc4ef8dd453ffd5776cf17cc3d44644d45b8a5b2722414f899e6f37376bd57204ac00000000"
    }
  ]
}