{
  "hash": "00000000696871adf5dcc1f96a07267c950875fa86edf9a0734678ca50812646",
  "confirmations": 45985,
  "height": 7113,
  "version": 1,
  "versionHex": "00000001",
  "merkleroot": "5f1000811403fa28d155070953afa41748e9394b31aeb2e8e9830956abd708e4",
  "time": 1236807915,
  "mediantime": 1236804211,
  "nonce": 95364368,
  "bits": "1d00ffff",
  "difficulty": 1,
  "chainwork": "00000000000000000000000000000000000000000000000000001bca1bca1bca",
  "nTx": 1,
  "previousblockhash": "00000000127c54aaa91faa3c9a2b9d9c2526936703122b5b6fd38d2ef21735bf",
  "nextblockhash": "000000004ca6164ff68a48acdfd3b58ac435cccb3accb21a7dd6235df34428e6",
  "strippedsize": 216,
  "size": 216,
  "weight": 864,
  "tx": [
    {
      "txid": "5f1000811403fa28d155070953afa41748e9394b31aeb2e8e9830956abd708e4",
      "hash": "5f1000811403fa28d155070953afa41748e9394b31aeb2e8e9830956abd708e4",
      "version": 1,
      "size": 135,
      "vsize": 135,
      "weight": 540,
      "locktime": 0,
      "vin": [
        {
          "coinbase": "04ffff001d02900d",
          "sequence": 4294967295
        }
      ],
      "vout": [
        {
          "value": 50.0,
          "n": 0,
          "scriptPubKey": {
            "asm": "04a4dee8a0618f62f7df2994d19b3ed9785ee59572e5e9bb50a85ca950b6ffb22493938a44f06b03194b3415a41198ed9cbf1cc7e3df94bade69ca654327ee7b52 OP_CHECKSIG",
            "desc": "pk(04a4dee8a0618f62f7df2994d19b3ed9785ee59572e5e9bb50a85ca950b6ffb22493938a44f06b03194b3415a41198ed9cbf1cc7e3df94bade69ca654327ee7b52)#dtf4vz6h",
            "hex": "4104a4dee8a0618f62f7df2994d19b3ed9785ee59572e5e9bb50a85ca950b6ffb22493938a44f06b03194b3415a41198ed9cbf1cc7e3df94bade69ca654327ee7b52ac",
            "type": "pubkey"
          }
        }
      ],
      "hex": "01000000010000000000000000000000000000000000000000000000000000000000000000ffffffff0804ffff001d02900dffffffff0100f2052a01000000434104a4dee8a0618f62f7df2994d19b3ed9785ee59572e5e9bb50a85ca950b6ffb22493938a44f06b03194b3415a41198ed9cbf1cc7e3df94bade69ca654327ee7b52ac00000000"
    }
  ]
}