{
  "hash": "00000000b766cc05d769f86c3f57709358c88aa0f6bdcb2a1d466477575839a6",
  "confirmations": 49579,
  "height": 3519,
  "version": 1,
  "versionHex": "00000001",
  "merkleroot": "7a0698c0e6378a2c4071a0e06538fc8f7ff8305fefc7a4902265dd3a69abd53c",
  "time": 1234115019,
  "mediantime": 1234110878,
  "nonce": 2652304661,
  "bits": "1d00ffff",
  "difficulty": 1,
  "chainwork": "00000000000000000000000000000000000000000000000000000dc00dc00dc0",
  "nTx": 1,
  "previousblockhash": "0000000082d79e9d6230da0d5a541d08a856ff524b91a5ce8294b2d0fe7e3a8d",
  "nextblockhash": "00000000be44c8da28dca45feb177c1dde1eac3177605b2ee879aae85a090728",
  "strippedsize": 216,
  "size": 216,
  "weight": 864,
  "tx": [
    {
      "txid": "7a0698c0e6378a2c4071a0e06538fc8f7ff8305fefc7a4902265dd3a69abd53c",
      "hash": "7a0698c0e6378a2c4071a0e06538fc8f7ff8305fefc7a4902265dd3a69abd53c",
      "version": 1,
      "size": 135,
      "vsize": 135,
      "weight": 540,
      "locktime": 0,
      "vin": [
        {
          "coinbase": "04ffff001d027307",
          "sequence": 4294967295
        }
      ],
      "vout": [
        {
          "value": 50.0,
          "n": 0,
          "scriptPubKey": {
            "asm": "04ddc3f20fc0de56785ab70f0800f57158f70c66dc26e41ff72ba7fbd64dc410bd28b82e0123f7b5bf45e11a561d8b7d6dde8665ca9f8da2d6ddbd377b4efda304 OP_CHECKSIG",
            "desc": "pk(04ddc3f20fc0de56785ab70f0800f57158f70c66dc26e41ff72ba7fbd64dc410bd28b82e0123f7b5bf45e11a561d8b7d6dde8665ca9f8da2d6ddbd377b4efda304)#tk45mw2y",
            "hex": "4104ddc3f20fc0de56785ab70f0800f57158f70c66dc26e41ff72ba7fbd64dc410bd28b82e0123f7b5bf45e11a561d8b7d6dde8665ca9f8da2d6ddbd377b4efda304ac",
            "type": "pubkey"
          }
        }
      ],
      "hex": "01000000010000000000000000000000000000000000000000000000000000000000000000ffffffff0804ffff001d027307ffffffff0100f2052a01000000434104ddc3f20fc0de56785ab70f0800f57158f70c66dc26e41ff72ba7fbd64dc410bd28b82e0123f7b5bf45e11a561d8b7d6dde8665ca9f8da2d6ddbd377b4efda304ac00000000"
    }
  ]
}