{
  "hash": "0000000052cd2861ec501c07a736a692fa629d841525fa42fa59e09e15687a12",
  "confirmations": 52423,
  "height": 515,
  "version": 1,
  "versionHex": "00000001",
  "merkleroot": "feefc021e27b0df4c49166cb736748a9b964afbd566e40f5783c906309473f48",
  "time": 1231978202,
  "mediantime": 1231975169,
  "nonce": 233129761,
  "bits": "1d00ffff",
  "difficulty": 1,
  "chainwork": "0000000000000000000000000000000000000000000000000000020402040204",
  "nTx": 1,
  "previousblockhash": "000000000e0a6dd63fbaf3e078494491d81ba2d6695266fde007dda7d859315d",
  "nextblockhash": "000000008c8e0512be74fec25a643b6337b3596974a2cee47682578bf6a583a5",
  "strippedsize": 216,
  "size": 216,
  "weight": 864,
  "tx": [
    {
      "txid": "feefc021e27b0df4c49166cb736748a9b964afbd566e40f5783c906309473f48",
      "hash": "feefc021e27b0df4c49166cb736748a9b964afbd566e40f5783c906309473f48",
      "version": 1,
      "size": 135,
      "vsize": 135,
      "weight": 540,
      "locktime": 0,
      "vin": [
        {
          "coinbase": "04ffff001d02b104",
          "sequence": 4294967295
        }
      ],
      "vout": [
        {
          "value": 50.0,
          "n": 0,
          "scriptPubKey": {
            "asm": "04c436002f6cc1179d171e3a37d5871d6b6b96f501a8d8a8a9a891997a53036dc965a54fed67d8d5792f77564cf16e46de0698c8fa040a2551fea825d23e678a51 OP_CHECKSIG",
            "desc": "pk(04c436002f6cc1179d171e3a37d5871d6b6b96f501a8d8a8a9a891997a53036dc965a54fed67d8d5792f77564cf16e46de0698c8fa040a2551fea825d23e678a51)#3c0xqwmy",
            "hex": "4104c436002f6cc1179d171e3a37d5871d6b6b96f501a8d8a8a9a891997a53036dc965a54fed67d8d5792f77564cf16e46de0698c8fa040a2551fea825d23e678a51ac",
            "type": "pubkey"
          }
        }
      ],
      "hex": "01000000010000000000000000000000000000000000000000000000000000000000000000ffffffff0804ffff001d02b104ffffffff0100f2052a01000000434104c436002f6cc1179d171e3a37d5871d6b6b96f501a8d8a8a9a891997a53036dc965a54fed67d8d5792f77564cf16e46de0698c8fa040a2551fea825d23e678a51ac00000000"
    }
  ]
}