{
  "hash": "00000000aee45a45d367a33e8d164a989e07c9c02fb77e60eed5c80111b12f5e",
  "confirmations": 47402,
  "height": 5696,
  "version": 1,
  "versionHex": "00000001",
  "merkleroot": "7bcf1ad15e4457fb162567f98b0009c6ecabfa63f789d100ea1dee7bba3d02ab",
  "time": 1235683066,
  "mediantime": 1235680994,
  "nonce": 75546919,
  "bits": "1d00ffff",
  "difficulty": 1,
  "chainwork": "0000000000000000000000000000000000000000000000000000164116411641",
  "nTx": 1,
  "previousblockhash": "000000005036d70314279359adb43e4491dbfb418c4be653b11f7eb2a4d506f1",
  "nextblockhash": "000000007fb34675c45620585e2f2a28b2180270589e9740a08096ee54845a0d",
  "strippedsize": 216,
  "size": 216,
  "weight": 864,
  "tx": [
    {
      "txid": "7bcf1ad15e4457fb162567f98b0009c6ecabfa63f789d100ea1dee7bba3d02ab",
      "hash": "7bcf1ad15e4457fb162567f98b0009c6ecabfa63f789d100ea1dee7bba3d02ab",
      "version": 1,
      "size": 135,
      "vsize": 135,
      "weight": 540,
      "locktime": 0,
      "vin": [
        {
          "coinbase": "04ffff001d02c600",
          "sequence": 4294967295
        }
      ],
      "vout": [
        {
          "value": 50.0,
          "n": 0,
          "scriptPubKey": {
            "asm": "04ed5588fad698546b3826b312b39a8d823abd93700ec2b0059b8946ce20ae496fdfd63d31c644f25f540e7fac0b96426bccb1252b861d32d6457e7a35bd9bbb7e OP_CHECKSIG",
            "desc": "pk(04ed5588fad698546b3826b312b39a8d823abd93700ec2b0059b8946ce20ae496fdfd63d31c644f25f540e7fac0b96426bccb1252b861d32d6457e7a35bd9bbb7e)#ef9qgesa",
            "hex": "4104ed5588fad698546b3826b312b39a8d823abd93700ec2b0059b8946ce20ae496fdfd63d31c644f25f540e7fac0b96426bccb1252b861d32d6457e7a35bd9bbb7eac",
            "type": "pubkey"
          }
        }
      ],
      "hex": "01000000010000000000000000000000000000000000000000000000000000000000000000ffffffff0804ffff001d02c600ffffffff0100f2052a01000000434104ed5588fad698546b3826b312b39a8d823abd93700ec2b0059b8946ce20ae496fdfd63d31c644f25f540e7fac0b96426bccb1252b861d32d6457e7a35bd9bbb7eac00000000"
    }
  ]
}