{
  "hash": "00000000480c187b74ec3800eee1d79e16a2fb28aef585b3da4da330e4661077",
  "confirmations": 47252,
  "height": 5846,
  "version": 1,
  "versionHex": "00000001",
  "merkleroot": "389dd8c4a47dd7309b3888d73efedcac6cdea1be3d1029daa807422099e1d656",
  "time": 1235796937,
  "mediantime": 1235793852,
  "nonce": 469644083,
  "bits": "1d00ffff",
  "difficulty": 1,
  "chainwork": "000000000000000000000000000000000000000000000000000016d716d716d7",
  "nTx": 1,
  "previousblockhash": "0000000072f360fa7244f7703039f42363a52f0e698ae3247f577f37c4d2e508",
  "nextblockhash": "00000000224fcce8879d3247c3200c3274e0706641a36b950382a7c1c05a83e9",
  "strippedsize": 216,
  "size": 216,
  "weight": 864,
  "tx": [
    {
      "txid": "389dd8c4a47dd7309b3888d73efedcac6cdea1be3d1029daa807422099e1d656",
      "hash": "389dd8c4a47dd7309b3888d73efedcac6cdea1be3d1029daa807422099e1d656",
      "version": 1,
      "size": 135,
      "vsize": 135,
      "weight": 540,
      "locktime": 0,
      "vin": [
        {
          "coinbase": "04ffff001d029a01",
          "sequence": 4294967295
        }
      ],
      "vout": [
        {
          "value": 50.0,
          "n": 0,
          "scriptPubKey": {
            "asm": "048b49f0ef4f10d69bcdbefcec9b89ed114609a8c1c1fd9880f68db9bc4be430743a27be9a3ab1cadf64431c73cc8b82b120080cd534d3006c128a2d0cec07d7b2 OP_CHECKSIG",
            "desc": "pk(048b49f0ef4f10d69bcdbefcec9b89ed114609a8c1c1fd9880f68db9bc4be430743a27be9a3ab1cadf64431c73cc8b82b120080cd534d3006c128a2d0cec07d7b2)#ghjwr8z7",
            "hex": "41048b49f0ef4f10d69bcdbefcec9b89ed114609a8c1c1fd9880f68db9bc4be430743a27be9a3ab1cadf64431c73cc8b82b120080cd534d3006c128a2d0cec07d7b2ac",
            "type": "pubkey"
          }
        }
      ],
      "hex": "01000000010000000000000000000000000000000000000000000000000000000000000000ffffffff0804ffff001d029a01ffffffff0100f2052a010000004341048b49f0ef4f10d69bcdbefcec9b89ed114609a8c1c1fd9880f68db9bc4be430743a27be9a3ab1cadf64431c73cc8b82b120080cd534d3006c128a2d0cec07d7b2ac00000000"
    }
  ]
}