{
  "hash": "00000000dc3d517468456d8c7be9c3a4e272d93ddbda96e6afca523d5937b8e1",
  "confirmations": 50057,
  "height": 3041,
  "version": 1,
  "versionHex": "00000001",
  "merkleroot": "85acad1623755bde95b3ba66e85769a493e8c43c07d10ea8d4b89b91cfc8bbb3",
  "time": 1233790750,
  "mediantime": 1233786054,
  "nonce": 2220047921,
  "bits": "1d00ffff",
  "difficulty": 1,
  "chainwork": "00000000000000000000000000000000000000000000000000000be20be20be2",
  "nTx": 1,
  "previousblockhash": "00000000d49db14e5c9db263bbc5989f3eb4cbbbcf7ae8443d174f18a80a00fe",
  "nextblockhash": "00000000c1122aa69bb3d2651513e9629ca86b9e22691ac50a2ac838353c34a0",
  "strippedsize": 215,
  "size": 215,
  "weight": 860,
  "tx": [
    {
      "txid": "85acad1623755bde95b3ba66e85769a493e8c43c07d10ea8d4b89b91cfc8bbb3",
      "hash": "85acad1623755bde95b3ba66e85769a493e8c43c07d10ea8d4b89b91cfc8bbb3",
      "version": 1,
      "size": 134,
      "vsize": 134,
      "weight": 536,
      "locktime": 0,
      "vin": [
        {
          "coinbase": "04ffff001d0111",
          "sequence": 4294967295
        }
      ],
      "vout": [
        {
          "value": 50.0,
          "n": 0,
          "scriptPubKey": {
            "asm": "04f7ae068964ccc6ff8157ab2a6f82785de25adabddb9f6ef0527f45c7521db7d124fc23edbcfaa1d140d522f0ef29bfe784c0c1a4bc4164adc153dbbe97f1c026 OP_CHECKSIG",
            "desc": "pk(04f7ae068964ccc6ff8157ab2a6f82785de25adabddb9f6ef0527f45c7521db7d124fc23edbcfaa1d140d522f0ef29bfe784c0c1a4bc4164adc153dbbe97f1c026)#5wtqx4n9",
            "hex": "4104f7ae068964ccc6ff8157ab2a6f82785de25adabddb9f6ef0527f45c7521db7d124fc23edbcfaa1d140d522f0ef29bfe784c0c1a4bc4164adc153dbbe97f1c026ac",
            "type": "pubkey"
          }
        }
      ],
      "hex": "01000000010000000000000000000000000000000000000000000000000000000000000000ffffffff0704ffff001d0111ffffffff0100f2052a01000000434104f7ae068964ccc6ff8157ab2a6f82785de25adabddb9f6ef0527f45c7521db7d124fc23edbcfaa1d140d522f0ef29bfe784c0c1a4bc4164adc153dbbe97f1c026ac00000000"
    }
  ]
}