{
  "hash": "00000000cd03d80e5f2fe3002af88e73962be352356718937edb676e3bf19396",
  "confirmations": 46945,
  "height": 6153,
  "version": 1,
  "versionHex": "00000001",
  "merkleroot": "10a6ee162c53fb74fbc0798580d897786d914dc32d10dcc09e6e49ec25b7e418",
  "time": 1236051554,
  "mediantime": 1236046678,
  "nonce": 1199619841,
  "bits": "1d00ffff",
  "difficulty": 1,
  "chainwork": "0000000000000000000000000000000000000000000000000000180a180a180a",
  "nTx": 1,
  "previousblockhash": "0000000055f58d3e2bdbecad9ac3923b2043eaa3b26e4906e5a1d3cd8b9676d6",
  "nextblockhash": "000000000a892e40e7e50def27a70e48445f3ee8d293b71d2e125be3bc4915b2",
  "strippedsize": 216,
  "size": 216,
  "weight": 864,
  "tx": [
    {
      "txid": "10a6ee162c53fb74fbc0798580d897786d914dc32d10dcc09e6e49ec25b7e418",
      "hash": "10a6ee162c53fb74fbc0798580d897786d914dc32d10dcc09e6e49ec25b7e418",
      "version": 1,
      "size": 135,
      "vsize": 135,
      "weight": 540,
      "locktime": 0,
      "vin": [
        {
          "coinbase": "04ffff001d02b507",
          "sequence": 4294967295
        }
      ],
      "vout": [
        {
          "value": 50.0,
          "n": 0,
          "scriptPubKey": {
            "asm": "043166b3ce15af48446542a4f4680644bd5ba30f8db35d1ad9e2cd88d87a0e2005fd5391f9517411166f7bd103d20b6f1cf547ef7dfbe28dbc2a1aa3bcb019c266 OP_CHECKSIG",
            "desc": "pk(043166b3ce15af48446542a4f4680644bd5ba30f8db35d1ad9e2cd88d87a0e2005fd5391f9517411166f7bd103d20b6f1cf547ef7dfbe28dbc2a1aa3bcb019c266)#50jlhk7u",
            "hex": "41043166b3ce15af48446542a4f4680644bd5ba30f8db35d1ad9e2cd88d87a0e2005fd5391f9517411166f7bd103d20b6f1cf547ef7dfbe28dbc2a1aa3bcb019c266ac",
            "type": "pubkey"
          }
        }
      ],
      "hex": "01000000010000000000000000000000000000000000000000000000000000000000000000ffffffff0804ffff001d02b507ffffffff0100f2052a010000004341043166b3ce15af48446542a4f4680644bd5ba30f8db35d1ad9e2cd88d87a0e2005fd5391f9517411166f7bd103d20b6f1cf547ef7dfbe28dbc2a1aa3bcb019c266ac00000000"
    }
  ]
}