{
  "hash": "000000002c304a01535a30cf525dec0c3bbfa362f6ed4b097913bc0ff15b55d4",
  "confirmations": 44323,
  "height": 8775,
  "version": 1,
  "versionHex": "00000001",
  "merkleroot": "8801835d40bfc4a5cb637553dd72e4ad925f6405b1dde4921e0f3391a02acaad",
  "time": 1238080902,
  "mediantime": 1238076845,
  "nonce": 3987953960,
  "bits": "1d00ffff",
  "difficulty": 1,
  "chainwork": "0000000000000000000000000000000000000000000000000000224822482248",
  "nTx": 2,
  "previousblockhash": "00000000a996331c70cb7814d126c01e7bea080a5fe2cf5b63d0cc09d41aa2d6",
  "nextblockhash": "000000000e671cb83d9978cd9487e52a6c64c20054eaa1fcbc9c9a510222f9f1",
  "strippedsize": 3451,
  "size": 3451,
  "weight": 13804,
  "tx": [
    {
      "txid": "b41ae37b59d36c574ac8e800c2b338c4d14e34b3cd43a053beb1b9541b8cecfa",
      "hash": "b41ae37b59d36c574ac8e800c2b338c4d14e34b3cd43a053beb1b9541b8cecfa",
      "version": 1,
      "size": 135,
      "vsize": 135,
      "weight": 540,
      "locktime": 0,
      "vin": [
        {
          "coinbase": "04ffff001d022902",
          "sequence": 4294967295
        }
      ],
      "vout": [
        {
          "value": 50.0,
          "n": 0,
          "scriptPubKey": {
            "asm": "046a23bd0f7124c7dc6f52555a22f31501743ad35a62d9397ca65c9a6388bbe8bc8497729b135966627aa1b9ab0befe5994e770a114410a24a215f647137ad7a4e OP_CHECKSIG",
            "desc": "pk(046a23bd0f7124c7dc6f52555a22f31501743ad35a62d9397ca65c9a6388bbe8bc8497729b135966627aa1b9ab0befe5994e770a114410a24a215f647137ad7a4e)#wr4dtzyt",
            "hex": "41046a23bd0f7124c7dc6f52555a22f31501743ad35a62d9397ca65c9a6388bbe8bc8497729b135966627aa1b9ab0befe5994e770a114410a24a215f647137ad7a4eac",
            "type": "pubkey"
          }
        }
      ],
      "hex": "01000000010000000000000000000000000000000000000000000000000000000000000000ffffffff0804ffff001d022902ffffffff0100f2052a010000004341046a23bd0f7124c7dc6f52555a22f31501743ad35a62d9397ca65c9a6388bbe8bc8497729b135966627aa1b9ab0befe5994e770a114410a24a215f647137ad7a4eac00000000"
    },
    {
      "txid": "02158bebe1f72393a771fd39f950308ed93693d0b976f92c777677874764859a",
      "hash": "02158bebe1f72393a771fd39f950308ed93693d0b976f92c777677874764859a",
      "version": 1,
      "size": 3235,
      "vsize": 3235,
      "weight": 12940,
      "locktime": 0,
      "vin": [
        {
          "txid": "e0318c95ce67d02b1267a0202cabfaecc53f7cb7740fd61025ade36c47ced497",
          "vout": 0,
          "scriptSig": {
            "asm": "30450221008f22227ff841534b1ebb005d45ae06a0f26af3b30366eeecfac5d8c7d35c0b6f02205c94f1f1da862c0f35902ae7c278b4ea16572f4f6080b9189ef0a9965e2bea4e[ALL]",
            "hex": "4830450221008f22227ff841534b1ebb005d45ae06a0f26af3b30366eeecfac5d8c7d35c0b6f02205c94f1f1da862c0f35902ae7c278b4ea16572f4f6080b9189ef0a9965e2bea4e01"
          },
          "sequence": 4294967295
        },
        {
          "txid": "40f3547c93aea94fb0daa1c93c40ef560a10f2c807c67df1f86caa4c99690d3e",
          "vout": 0,
          "scriptSig": {
            "asm": "3045022100bc33c4a50bc8c44e5a96ce46569eb17b0eb985142654d5d9d6410c8ccc4c569e022042b235e0afb1fcb4883c48722666900bca4506623949eca43884530e8ab14c6b[ALL]",
            "hex": "483045022100bc33c4a50bc8c44e5a96ce46569eb17b0eb985142654d5d9d6410c8ccc4c569e022042b235e0afb1fcb4883c48722666900bca4506623949eca43884530e8ab14c6b01"
          },
          "sequence": 4294967295
        },
        {
          "txid": "49b79502558f5f30f74b62a6279e69ce4a23707971c6475e6d070a6b77ee2408",
          "vout": 0,
          "scriptSig": {
            "asm": "3045022100dcbdbce2ec8ccbebfd01da11383b9077f7649734dfa4e089743356de13a1495602206552e196ac845340d8db6456d2ee2b1040468abc9998f6151c093344e30568ea[ALL]",
            "hex": "483045022100dcbdbce2ec8ccbebfd01da11383b9077f7649734dfa4e089743356de13a1495602206552e196ac845340d8db6456d2ee2b1040468abc9998f6151c093344e30568ea01"
          },
          "sequence": 4294967295
        },
        {
          "txid": "55a67258bd4d68b0cbc49760a6b0d30527ea759caf17e2f48d1008e225812bf5",
          "vout": 0,
          "scriptSig": {
            "asm": "3046022100a81cd56c3c9871478e5e605746922d55f758af1933ffa60a8cb99452d4d249a3022100f2301ec56c6519cf8067db2b346c3a927aa10fec81649f39c96bf70e3a382a11[ALL]",
            "hex": "493046022100a81cd56c3c9871478e5e605746922d55f758af1933ffa60a8cb99452d4d249a3022100f2301ec56c6519cf8067db2b346c3a927aa10fec81649f39c96bf70e3a382a1101"
          },
          "sequence": 4294967295
        },
        {
          "txid": "76561c2ff7ed2d2070a8b318eb894dc707e51a8b6fcbb0cac4ef2e958c2425b5",
          "vout": 0,
          "scriptSig": {
            "asm": "3045022100e645441e195a9964990fc2eed5bc79f27f0e5b80eae973c8c300daadf1bb7d0b02200bd5dd74804e9bad82379b2c35768f8a46d58144047616b5836a9d514650daed[ALL]",
            "hex": "483045022100e645441e195a9964990fc2eed5bc79f27f0e5b80eae973c8c300daadf1bb7d0b02200bd5dd74804e9bad82379b2c35768f8a46d58144047616b5836a9d514650daed01"
          },
          "sequence": 4294967295
        },
        {
          "txid": "ff589cc57ebc01fc605c08650a97a27f484eaa731adbd38d4fb017c746933114",
          "vout": 0,
          "scriptSig": {
            "asm": "304502210092abdf34af02fedae4a71b39192aada7743e31b917200be1453b06d08814493502206039cc8f5c971ce1a2dd293ab49b14d3f9c72fdfa076c2740b3d4247b6814a50[ALL]",
            "hex": "48304502210092abdf34af02fedae4a71b39192aada7743e31b917200be1453b06d08814493502206039cc8f5c971ce1a2dd293ab49b14d3f9c72fdfa076c2740b3d4247b6814a5001"
          },
          "sequence": 4294967295
        },
        {
          "txid": "8f5ce5d667ca537347260f95b58ff8cb5ebb5788173d4c04724ed287fab4fa73",
          "vout": 0,
          "scriptSig": {
            "asm": "3046022100b5880481e15a9d8933ff113e1e1e36823bab1271b6d1c36d467d8b614fdcbfcc022100ae917a632c500c748671bddaf1dbdd232db6f2e3a57b1be1ce5fb0808e0a0a7c[ALL]",
            "hex": "493046022100b5880481e15a9d8933ff113e1e1e36823bab1271b6d1c36d467d8b614fdcbfcc022100ae917a632c500c748671bddaf1dbdd232db6f2e3a57b1be1ce5fb0808e0a0a7c01"
          },
          "sequence": 4294967295
        },
        {
          "txid": "26f78a6f65c82297dc8c6e815c2022edb55fec40c7c1b8215c3e8aa4d4e41dc2",
          "vout": 0,
          "scriptSig": {
            "asm": "3046022100ed73d43c17ec3ab4266a5e012120ade76f4b847dcd72075e51cb6b1d14656b07022100c06107cdfc94b2d15c078daef48c646926beae5b9f4eb386440214672da5ac92[ALL]",
            "hex": "493046022100ed73d43c17ec3ab4266a5e012120ade76f4b847dcd72075e51cb6b1d14656b07022100c06107cdfc94b2d15c078daef48c646926beae5b9f4eb386440214672da5ac9201"
          },
          "sequence": 4294967295
        },
        {
          "txid": "3f57d8e7c0f7d961931d1ae393ad1a5fce7f3e603e11cceb4d0a9b2714f327d4",
          "vout": 0,
          "scriptSig": {
            "asm": "304402201bc39dc156b6046ff01860a14a0b77dc672e746f156ccbb8c55a42c4b22068d502207e21ae5b51cb108a8b55e46ff362f762940d0b19abc0ba3cbc03a7868b4c9d1a[ALL]",
            "hex": "47304402201bc39dc156b6046ff01860a14a0b77dc672e746f156ccbb8c55a42c4b22068d502207e21ae5b51cb108a8b55e46ff362f762940d0b19abc0ba3cbc03a7868b4c9d1a01"
          },
          "sequence": 4294967295
        },
        {
          "txid": "6d855b1a3cb76a4fa4c5864d87c68d0de4393075264fcb932383de12743d93e8",
          "vout": 0,
          "scriptSig": {
            "asm": "304402206516cd2ddb1aa1c1e255477deb8af31b539f78e89a3e9dd45ece8e2d34022206022077dd8aa798cc62d0ee7642519913ad736fc463453ec6d813895fd2ab81c1ec35[ALL]",
            "hex": "47304402206516cd2ddb1aa1c1e255477deb8af31b539f78e89a3e9dd45ece8e2d34022206022077dd8aa798cc62d0ee7642519913ad736fc463453ec6d813895fd2ab81c1ec3501"
          },
          "sequence": 4294967295
        },
        {
          "txid": "f02c1b2f5ed4588fba4af8518b25186ee18177b9484d8d8fcc7892b43e266809",
          "vout": 0,
          "scriptSig": {
            "asm": "3044022037be9c717cae644f4e9551d5366ae7246de7941b3d54c57b7ffd9540a4441460022074efacef0500a0c3e37c4578bd499ea7312582f2761ec0504129a6f7a23a9bb4[ALL]",
            "hex": "473044022037be9c717cae644f4e9551d5366ae7246de7941b3d54c57b7ffd9540a4441460022074efacef0500a0c3e37c4578bd499ea7312582f2761ec0504129a6f7a23a9bb401"
          },
          "sequence": 4294967295
        },
        {
          "txid": "ce9df9fb24af719b7a25077da95c4026616e7b9ea6c0a3ec9dfee4e1e246b4c6",
          "vout": 0,
          "scriptSig": {
            "asm": "304502200446016e54132622da33e01f746bb56765e4a4b349f893c18da17cbee44e20aa022100dc327c61df9ae99476e35175fdbc499cb3b0898f0fafff11cae1f705f8b33861[ALL]",
            "hex": "48304502200446016e54132622da33e01f746bb56765e4a4b349f893c18da17cbee44e20aa022100dc327c61df9ae99476e35175fdbc499cb3b0898f0fafff11cae1f705f8b3386101"
          },
          "sequence": 4294967295
        },
        {
          "txid": "f2c7f506b81f9a98216dead4f7fbcb99530b4b2151c75d0e457bfe9bc6d8c1c7",
          "vout": 0,
          "scriptSig": {
            "asm": "3045022100ec8610066da523f66fb0e0091932f407b694af9d239d12dfd9c0ddc5ba066cfa022077c8676288f6e7bf67b382cc70033f273e26f19551ac0aa3b9a25f7f4c0a83fb[ALL]",
            "hex": "483045022100ec8610066da523f66fb0e0091932f407b694af9d239d12dfd9c0ddc5ba066cfa022077c8676288f6e7bf67b382cc70033f273e26f19551ac0aa3b9a25f7f4c0a83fb01"
          },
          "sequence": 4294967295
        },
        {
          "txid": "f9bf171a297b35b2ed9b78b4900d4a2d305defaf88cc31b58a35caad2a76f319",
          "vout": 0,
          "scriptSig": {
            "asm": "3044022011b7716f578fd9ee6261bb1172070d34feb94be982e5edf2060a7020d8c0ccd8022027a0da47c5e212dd9b46d0e568be365b665a2a0e0740a0afaf991f0a6b4a3e2e[ALL]",
            "hex": "473044022011b7716f578fd9ee6261bb1172070d34feb94be982e5edf2060a7020d8c0ccd8022027a0da47c5e212dd9b46d0e568be365b665a2a0e0740a0afaf991f0a6b4a3e2e01"
          },
          "sequence": 4294967295
        },
        {
          "txid": "5dad2dd9ca5adf5a55942c61c87d988c0f45e211a17a49a53bf5f55f43d76005",
          "vout": 0,
          "scriptSig": {
            "asm": "304502201973575ace2044214379f14b207441d384fa0584ad53b44161243f407691b09f022100ccfc053e254e6d626d0be872c5611f88b326a59ce99eb636d73c3e0b9b469e2b[ALL]",
            "hex": "48304502201973575ace2044214379f14b207441d384fa0584ad53b44161243f407691b09f022100ccfc053e254e6d626d0be872c5611f88b326a59ce99eb636d73c3e0b9b469e2b01"
          },
          "sequence": 4294967295
        },
        {
          "txid": "e2259ac226938970080f7480111e340c9ebe3f85fcca8f54a3a7ab9740d938b8",
          "vout": 0,
          "scriptSig": {
            "asm": "3045022100b649355489fcae60a1d3a89f3af6b3157eba685034bdfd0026c97aa34a479ad7022069864a887a08b3ecd4fe64149e7246e83f6a327c6b1017d95437ba0171cfd845[ALL]",
            "hex": "483045022100b649355489fcae60a1d3a89f3af6b3157eba685034bdfd0026c97aa34a479ad7022069864a887a08b3ecd4fe64149e7246e83f6a327c6b1017d95437ba0171cfd84501"
          },
          "sequence": 4294967295
        },
        {
          "txid": "e146bfec5a5db62ef0fd009baf42b1dc346480db1030789e4c933c3d2c99931d",
          "vout": 0,
          "scriptSig": {
            "asm": "3045022064579f369126b1e6c88591c0b3d6fe9d94b2cb21ca8ab633f29abe2cb7101a39022100f34f58435299ebbe07d14db7c3a3b4f1ab3e7f606d4f00d836009e08a537491b[ALL]",
            "hex": "483045022064579f369126b1e6c88591c0b3d6fe9d94b2cb21ca8ab633f29abe2cb7101a39022100f34f58435299ebbe07d14db7c3a3b4f1ab3e7f606d4f00d836009e08a537491b01"
          },
          "sequence": 4294967295
        },
        {
          "txid": "ccf86d1760d0fc80bb9677e670022f34619ea01b77800c98514569a9837b1775",
          "vout": 0,
          "scriptSig": {
            "asm": "304602210098e24c9ff010f215137671e624b640df7104c502b5c33f29f2df82705a7ae81f0221009e50e2aeaa8160961b14716fa8e17a8744b80f782b945d40889c90dadf1b0724[ALL]",
            "hex": "49304602210098e24c9ff010f215137671e624b640df7104c502b5c33f29f2df82705a7ae81f0221009e50e2aeaa8160961b14716fa8e17a8744b80f782b945d40889c90dadf1b072401"
          },
          "sequence": 4294967295
        },
        {
          "txid": "64bd51360b2cf281bf7af634f36396bb937fe97359cd2a62a8209f6e94267612",
          "vout": 0,
          "scriptSig": {
            "asm": "3045022056cf0cade208cae921824a0a54989f77cbfb7516973094cfa6a11e168da42a290221009a3761cbea803d60af128d321de2d8b82147c4353eab65ad47830f385a563ad6[ALL]",
            "hex": "483045022056cf0cade208cae921824a0a54989f77cbfb7516973094cfa6a11e168da42a290221009a3761cbea803d60af128d321de2d8b82147c4353eab65ad47830f385a563ad601"
          },
          "sequence": 4294967295
        },
        {
          "txid": "403987fcc85f610b36c617345eb2b8c69c9527b53de24a48a2ec96e8736b2014",
          "vout": 0,
          "scriptSig": {
            "asm": "3045022100c4fce2fbd745b18ea00dfc2155b5eea4a8fd35b8c423f645f705109c9ad199c402203cf19fc47ff189830107907deca57fe381f27dc859bccb350ae9f6262dafab27[ALL]",
            "hex": "483045022100c4fce2fbd745b18ea00dfc2155b5eea4a8fd35b8c423f645f705109c9ad199c402203cf19fc47ff189830107907deca57fe381f27dc859bccb350ae9f6262dafab2701"
          },
          "sequence": 4294967295
        },
        {
          "txid": "e08a8492e9ff2773e73cc524d475d457fe1b276a8c172889c53b28a4f1ec0322",
          "vout": 0,
          "scriptSig": {
            "asm": "304502200820c1807599dd761266318225b7b90e80d3000c5ddf44b5aae64f8c5b6c9d10022100e5169e5630d9cd731b1656eda28427b6549789bd42d3111e6b651173332a0248[ALL]",
            "hex": "48304502200820c1807599dd761266318225b7b90e80d3000c5ddf44b5aae64f8c5b6c9d10022100e5169e5630d9cd731b1656eda28427b6549789bd42d3111e6b651173332a024801"
          },
          "sequence": 4294967295
        },
        {
          "txid": "fe8cc7dc125f938edec74aa76d50cbce509bfff163d66941f7d43001781d3323",
          "vout": 0,
          "scriptSig": {
            "asm": "304502206caf1753b19bc9352cd119d5fe1529ca30312c6c5bedb0555a81ddb64748aea10221008d6713bd9bac038fa31928a4d3bdbc60d30cc538aa0a299bcf17de8f4b9856e4[ALL]",
            "hex": "48304502206caf1753b19bc9352cd119d5fe1529ca30312c6c5bedb0555a81ddb64748aea10221008d6713bd9bac038fa31928a4d3bdbc60d30cc538aa0a299bcf17de8f4b9856e401"
          },
          "sequence": 4294967295
        },
        {
          "txid": "ec3e53039c513afe09a5e08e109dd94b0aa7744733da827c461160c7803a1ff9",
          "vout": 0,
          "scriptSig": {
            "asm": "3045022100c809d7705292df0f6090c9e66ac4c2d58bffa30efd042f8db4d72823438518fe0220307670d7cff8c861cde97387926db226915492c2501727ab7de3fffbb5368084[ALL]",
            "hex": "483045022100c809d7705292df0f6090c9e66ac4c2d58bffa30efd042f8db4d72823438518fe0220307670d7cff8c861cde97387926db226915492c2501727ab7de3fffbb536808401"
          },
          "sequence": 4294967295
        },
        {
          "txid": "92e48659b3b42a39866dee81e5fc4ac979b03d993b08c35e1f7df3929c3a2fc0",
          "vout": 0,
          "scriptSig": {
            "asm": "304402207e9654e10b355f4d24dc80191b6e9c95a9160c6438410988243a8287039c8ef6022022f25ecd91520c915c57578a4132e70593f126c63bd70781e644f7608b406bdd[ALL]",
            "hex": "47304402207e9654e10b355f4d24dc80191b6e9c95a9160c6438410988243a8287039c8ef6022022f25ecd91520c915c57578a4132e70593f126c63bd70781e644f7608b406bdd01"
          },
          "sequence": 4294967295
        },
        {
          "txid": "c10ff24903cca8b6acb854f1c75d6ad5629e395b1811acdeb6e12381bd6a1afe",
          "vout": 0,
          "scriptSig": {
            "asm": "3045022100d89ab7874c937c02ef1812a6036dd1dcd60454114902ed3b823581093e432e370220307740793b8bc78d102b391deabca01645b48eb4b2d31378a08230abb20fc43d[ALL]",
            "hex": "483045022100d89ab7874c937c02ef1812a6036dd1dcd60454114902ed3b823581093e432e370220307740793b8bc78d102b391deabca01645b48eb4b2d31378a08230abb20fc43d01"
          },
          "sequence": 4294967295
        },
        {
          "txid": "455d82c38700b17f4c23a7f0b99ef164b18dddf773bb015fbb6fca1071921121",
          "vout": 0,
          "scriptSig": {
            "asm": "304402203a1d1e08be3d024bdbf319e58e77075e3e7c0aafe2ac4fdd78b1affe518d8d4702204eb31621ad1d0000f579b12443938a603e0c15e7a09fcb3f43ead0319a7066ea[ALL]",
            "hex": "47304402203a1d1e08be3d024bdbf319e58e77075e3e7c0aafe2ac4fdd78b1affe518d8d4702204eb31621ad1d0000f579b12443938a603e0c15e7a09fcb3f43ead0319a7066ea01"
          },
          "sequence": 4294967295
        },
        {
          "txid": "a454ab5783c044ea9a5037235c6229c42898b52f7a4ac3b7f437219f623c2516",
          "vout": 0,
          "scriptSig": {
            "asm": "304502201c502469572fc0a755e3da4c30d6968a314bf57f4cfb2801dac50db5391d2496022100969ae0c311077b5068a93c77540d351b3a05fa2902fedbe7adc4472de29c4b38[ALL]",
            "hex": "48304502201c502469572fc0a755e3da4c30d6968a314bf57f4cfb2801dac50db5391d2496022100969ae0c311077b5068a93c77540d351b3a05fa2902fedbe7adc4472de29c4b3801"
          },
          "sequence": 4294967295
        },
        {
          "txid": "a9dd4be91d9bf032935d02db094e42907d40ed4724f4667d8d2baf51ec88bc02",
          "vout": 0,
          "scriptSig": {
            "asm": "304602210089991c5e291ba95c1102f60074ecf4ecbb705a992ee1a7f8ac5e536995d3b4a4022100ee680df599f32a6958a9db4b8b678d240f2ea92360d2b67b14971a04601be0ea[ALL]",
            "hex": "49304602210089991c5e291ba95c1102f60074ecf4ecbb705a992ee1a7f8ac5e536995d3b4a4022100ee680df599f32a6958a9db4b8b678d240f2ea92360d2b67b14971a04601be0ea01"
          },
          "sequence": 4294967295
        }
      ],
      "vout": [
        {
          "value": 1400.0,
          "n": 0,
          "scriptPubKey": {
            "asm": "OP_DUP OP_HASH160 12ab8dc588ca9d5787dde7eb29569da63c3a238c OP_EQUALVERIFY OP_CHECKSIG",
            "desc": "addr(12higDjoCCNXSA95xZMWUdPvXNmkAduhWv)#zn56zju2",
            "hex": "76a91412ab8dc588ca9d5787dde7eb29569da63c3a238c88ac",
            "address": "12higDjoCCNXSA95xZMWUdPvXNmkAduhWv",
            "type": "pubkeyhash"
          }
        }
      ],
      "fee": 0.0,
      "hex": "010000001c97d4ce476ce3ad2510d60f74b77c3fc5ecfaab2c20a067122bd067ce958c31e000000000494830450221008f22227ff841534b1ebb005d45ae06a0f26af3b30366eeecfac5d8c7d35c0b6f02205c94f1f1da862c0f35902ae7c278b4ea16572f4f6080b9189ef0a9965e2bea4e01ffffffff3e0d69994caa6cf8f17dc607c8f2100a56ef403cc9a1dab04fa9ae937c54f3400000000049483045022100bc33c4a50bc8c44e5a96ce46569eb17b0eb985142654d5d9d6410c8ccc4c569e022042b235e0afb1fcb4883c48722666900bca4506623949eca43884530e8ab14c6b01ffffffff0824ee776b0a076d5e47c6717970234ace699e27a6624bf7305f8f550295b7490000000049483045022100dcbdbce2ec8ccbebfd01da11383b9077f7649734dfa4e089743356de13a1495602206552e196ac845340d8db6456d2ee2b1040468abc9998f6151c093344e30568ea01fffffffff52b8125e208108df4e217af9c75ea2705d3b0a66097c4cbb0684dbd5872a655000000004a493046022100a81cd56c3c9871478e5e605746922d55f758af1933ffa60a8cb99452d4d249a3022100f2301ec56c6519cf8067db2b346c3a927aa10fec81649f39c96bf70e3a382a1101ffffffffb525248c952eefc4cab0cb6f8b1ae507c74d89eb18b3a870202dedf72f1c56760000000049483045022100e645441e195a9964990fc2eed5bc79f27f0e5b80eae973c8c300daadf1bb7d0b02200bd5dd74804e9bad82379b2c35768f8a46d58144047616b5836a9d514650daed01ffffffff14319346c717b04f8dd3db1a73aa4e487fa2970a65085c60fc01bc7ec59c58ff000000004948304502210092abdf34af02fedae4a71b39192aada7743e31b917200be1453b06d08814493502206039cc8f5c971ce1a2dd293ab49b14d3f9c72fdfa076c2740b3d4247b6814a5001ffffffff73fab4fa87d24e72044c3d178857bb5ecbf88fb5950f26477353ca67d6e55c8f000000004a493046022100b5880481e15a9d8933ff113e1e1e36823bab1271b6d1c36d467d8b614fdcbfcc022100ae917a632c500c748671bddaf1dbdd232db6f2e3a57b1be1ce5fb0808e0a0a7c01ffffffffc21de4d4a48a3e5c21b8c1c740ec5fb5ed22205c816e8cdc9722c8656f8af726000000004a493046022100ed73d43c17ec3ab4266a5e012120ade76f4b847dcd72075e51cb6b1d14656b07022100c06107cdfc94b2d15c078daef48c646926beae5b9f4eb386440214672da5ac9201ffffffffd427f314279b0a4debcc113e603e7fce5f1aad93e31a1d9361d9f7c0e7d8573f000000004847304402201bc39dc156b6046ff01860a14a0b77dc672e746f156ccbb8c55a42c4b22068d502207e21ae5b51cb108a8b55e46ff362f762940d0b19abc0ba3cbc03a7868b4c9d1a01ffffffffe8933d7412de832393cb4f26753039e40d8dc6874d86c5a44f6ab73c1a5b856d000000004847304402206516cd2ddb1aa1c1e255477deb8af31b539f78e89a3e9dd45ece8e2d34022206022077dd8aa798cc62d0ee7642519913ad736fc463453ec6d813895fd2ab81c1ec3501ffffffff0968263eb49278cc8f8d4d48b97781e16e18258b51f84aba8f58d45e2f1b2cf00000000048473044022037be9c717cae644f4e9551d5366ae7246de7941b3d54c57b7ffd9540a4441460022074efacef0500a0c3e37c4578bd499ea7312582f2761ec0504129a6f7a23a9bb401ffffffffc6b446e2e1e4fe9deca3c0a69e7b6e6126405ca97d07257a9b71af24fbf99dce000000004948304502200446016e54132622da33e01f746bb56765e4a4b349f893c18da17cbee44e20aa022100dc327c61df9ae99476e35175fdbc499cb3b0898f0fafff11cae1f705f8b3386101ffffffffc7c1d8c69bfe7b450e5dc751214b0b5399cbfbf7d4ea6d21989a1fb806f5c7f20000000049483045022100ec8610066da523f66fb0e0091932f407b694af9d239d12dfd9c0ddc5ba066cfa022077c8676288f6e7bf67b382cc70033f273e26f19551ac0aa3b9a25f7f4c0a83fb01ffffffff19f3762aadca358ab531cc88afef5d302d4a0d90b4789bedb2357b291a17bff90000000048473044022011b7716f578fd9ee6261bb1172070d34feb94be982e5edf2060a7020d8c0ccd8022027a0da47c5e212dd9b46d0e568be365b665a2a0e0740a0afaf991f0a6b4a3e2e01ffffffff0560d7435ff5f53ba5497aa111e2450f8c987dc8612c94555adf5acad92dad5d000000004948304502201973575ace2044214379f14b207441d384fa0584ad53b44161243f407691b09f022100ccfc053e254e6d626d0be872c5611f88b326a59ce99eb636d73c3e0b9b469e2b01ffffffffb838d94097aba7a3548fcafc853fbe9e0c341e1180740f0870899326c29a25e20000000049483045022100b649355489fcae60a1d3a89f3af6b3157eba685034bdfd0026c97aa34a479ad7022069864a887a08b3ecd4fe64149e7246e83f6a327c6b1017d95437ba0171cfd84501ffffffff1d93992c3d3c934c9e783010db806434dcb142af9b00fdf02eb65d5aecbf46e10000000049483045022064579f369126b1e6c88591c0b3d6fe9d94b2cb21ca8ab633f29abe2cb7101a39022100f34f58435299ebbe07d14db7c3a3b4f1ab3e7f606d4f00d836009e08a537491b01ffffffff75177b83a9694551980c80771ba09e61342f0270e67796bb80fcd060176df8cc000000004a49304602210098e24c9ff010f215137671e624b640df7104c502b5c33f29f2df82705a7ae81f0221009e50e2aeaa8160961b14716fa8e17a8744b80f782b945d40889c90dadf1b072401ffffffff127626946e9f20a8622acd5973e97f93bb9663f334f67abf81f22c0b3651bd640000000049483045022056cf0cade208cae921824a0a54989f77cbfb7516973094cfa6a11e168da42a290221009a3761cbea803d60af128d321de2d8b82147c4353eab65ad47830f385a563ad601ffffffff14206b73e896eca2484ae23db527959cc6b8b25e3417c6360b615fc8fc8739400000000049483045022100c4fce2fbd745b18ea00dfc2155b5eea4a8fd35b8c423f645f705109c9ad199c402203cf19fc47ff189830107907deca57fe381f27dc859bccb350ae9f6262dafab2701ffffffff2203ecf1a4283bc58928178c6a271bfe57d475d424c53ce77327ffe992848ae0000000004948304502200820c1807599dd761266318225b7b90e80d3000c5ddf44b5aae64f8c5b6c9d10022100e5169e5630d9cd731b1656eda28427b6549789bd42d3111e6b651173332a024801ffffffff23331d780130d4f74169d663f1ff9b50cecb506da74ac7de8e935f12dcc78cfe000000004948304502206caf1753b19bc9352cd119d5fe1529ca30312c6c5bedb0555a81ddb64748aea10221008d6713bd9bac038fa31928a4d3bdbc60d30cc538aa0a299bcf17de8f4b9856e401fffffffff91f3a80c76011467c82da334774a70a4bd99d108ee0a509fe3a519c03533eec0000000049483045022100c809d7705292df0f6090c9e66ac4c2d58bffa30efd042f8db4d72823438518fe0220307670d7cff8c861cde97387926db226915492c2501727ab7de3fffbb536808401ffffffffc02f3a9c92f37d1f5ec3083b993db079c94afce581ee6d86392ab4b35986e492000000004847304402207e9654e10b355f4d24dc80191b6e9c95a9160c6438410988243a8287039c8ef6022022f25ecd91520c915c57578a4132e70593f126c63bd70781e644f7608b406bdd01fffffffffe1a6abd8123e1b6deac11185b399e62d56a5dc7f154b8acb6a8cc0349f20fc10000000049483045022100d89ab7874c937c02ef1812a6036dd1dcd60454114902ed3b823581093e432e370220307740793b8bc78d102b391deabca01645b48eb4b2d31378a08230abb20fc43d01ffffffff2111927110ca6fbb5f01bb73f7dd8db164f19eb9f0a7234c7fb10087c3825d45000000004847304402203a1d1e08be3d024bdbf319e58e77075e3e7c0aafe2ac4fdd78b1affe518d8d4702204eb31621ad1d0000f579b12443938a603e0c15e7a09fcb3f43ead0319a7066ea01ffffffff16253c629f2137f4b7c34a7a2fb59828c429625c2337509aea44c08357ab54a4000000004948304502201c502469572fc0a755e3da4c30d6968a314bf57f4cfb2801dac50db5391d2496022100969ae0c311077b5068a93c77540d351b3a05fa2902fedbe7adc4472de29c4b3801ffffffff02bc88ec51af2b8d7d66f42447ed407d90424e09db025d9332f09b1de94bdda9000000004a49304602210089991c5e291ba95c1102f60074ecf4ecbb705a992ee1a7f8ac5e536995d3b4a4022100ee680df599f32a6958a9db4b8b678d240f2ea92360d2b67b14971a04601be0ea01ffffffff010078a698200000001976a91412ab8dc588ca9d5787dde7eb29569da63c3a238c88ac00000000"
    }
  ]
}