{
  "hash": "000000006ff67eeaf26c0b98aeedf32331b482de85fef8b9f1124803341f468a",
  "confirmations": 43416,
  "height": 9682,
  "version": 1,
  "versionHex": "00000001",
  "merkleroot": "fd012d007342e2cee169f0a361de184331fdfb5d9eac550ccd5fde10aaad3c7a",
  "time": 1238765565,
  "mediantime": 1238760857,
  "nonce": 242272539,
  "bits": "1d00ffff",
  "difficulty": 1,
  "chainwork": "000000000000000000000000000000000000000000000000000025d325d325d3",
  "nTx": 1,
  "previousblockhash": "00000000540dfeaac348232c59256216841c00944305a27128f4f51525e6192d",
  "nextblockhash": "00000000a3111e554bc77cb60e769a1c5d179fc578cea7eccb5a0a4a7d862f53",
  "strippedsize": 216,
  "size": 216,
  "weight": 864,
  "tx": [
    {
      "txid": "fd012d007342e2cee169f0a361de184331fdfb5d9eac550ccd5fde10aaad3c7a",
      "hash": "fd012d007342e2cee169f0a361de184331fdfb5d9eac550ccd5fde10aaad3c7a",
      "version": 1,
      "size": 135,
      "vsize": 135,
      "weight": 540,
      "locktime": 0,
      "vin": [
        {
          "coinbase": "04ffff001d021e08",
          "sequence": 4294967295
        }
      ],
      "vout": [
        {
          "value": 50.0,
          "n": 0,
          "scriptPubKey": {
            "asm": "044bcbcbf806e577a88033af95bf21cbf54ba4535d5d007f099dcb45e5d00f271a1c6caf3383c13f36dd4eb3d3018d9f7599f7d9b1814e79a75d7932f9b0d13a41 OP_CHECKSIG",
            "desc": "pk(044bcbcbf806e577a88033af95bf21cbf54ba4535d5d007f099dcb45e5d00f271a1c6caf3383c13f36dd4eb3d3018d9f7599f7d9b1814e79a75d7932f9b0d13a41)#0xg747xg",
            "hex": "41044bcbcbf806e577a88033af95bf21cbf54ba4535d5d007f099dcb45e5d00f271a1c6caf3383c13f36dd4eb3d3018d9f7599f7d9b1814e79a75d7932f9b0d13a41ac",
            "type": "pubkey"
          }
        }
      ],
      "hex": "01000000010000000000000000000000000000000000000000000000000000000000000000ffffffff0804ffff001d021e08ffffffff0100f2052a010000004341044bcbcbf806e577a88033af95bf21cbf54ba4535d5d007f099dcb45e5d00f271a1c6caf3383c13f36dd4eb3d3018d9f7599f7d9b1814e79a75d7932f9b0d13a41ac00000000"
    }
  ]
}