{
  "hash": "000000000b7fe20effc94e06db34159535d06e689b3c388642e5381579450388",
  "confirmations": 44709,
  "height": 8389,
  "version": 1,
  "versionHex": "00000001",
  "merkleroot": "4b3e82a6895b453b30fa783e73c96744274a66d36f9a85628102564766f5ab30",
  "time": 1237794097,
  "mediantime": 1237790027,
  "nonce": 3515419655,
  "bits": "1d00ffff",
  "difficulty": 1,
  "chainwork": "000000000000000000000000000000000000000000000000000020c620c620c6",
  "nTx": 1,
  "previousblockhash": "00000000f5e97f5c8b8046930c5efdf7f85e9571eca087508c739ac196974846",
  "nextblockhash": "000000001c5f252fb978f1c660f922739506de7b0f80ebdfefa1a836f415521d",
  "strippedsize": 216,
  "size": 216,
  "weight": 864,
  "tx": [
    {
      "txid": "4b3e82a6895b453b30fa783e73c96744274a66d36f9a85628102564766f5ab30",
      "hash": "4b3e82a6895b453b30fa783e73c96744274a66d36f9a85628102564766f5ab30",
      "version": 1,
      "size": 135,
      "vsize": 135,
      "weight": 540,
      "locktime": 0,
      "vin": [
        {
          "coinbase": "04ffff001d02d305",
          "sequence": 4294967295
        }
      ],
      "vout": [
        {
          "value": 50.0,
          "n": 0,
          "scriptPubKey": {
            "asm": "04e6cc81152e037b03282f1d5284b53a40d3f2ba52c851c841a5b2b4eb566f62e0e9f43cad52f1e092f24469f1d07b177244e7ddd3c7d93f9b68ba7fc7c60922ff OP_CHECKSIG",
            "desc": "pk(04e6cc81152e037b03282f1d5284b53a40d3f2ba52c851c841a5b2b4eb566f62e0e9f43cad52f1e092f24469f1d07b177244e7ddd3c7d93f9b68ba7fc7c60922ff)#ueuudawz",
            "hex": "4104e6cc81152e037b03282f1d5284b53a40d3f2ba52c851c841a5b2b4eb566f62e0e9f43cad52f1e092f24469f1d07b177244e7ddd3c7d93f9b68ba7fc7c60922ffac",
            "type": "pubkey"
          }
        }
      ],
      "hex": "01000000010000000000000000000000000000000000000000000000000000000000000000ffffffff0804ffff001d02d305ffffffff0100f2052a01000000434104e6cc81152e037b03282f1d5284b53a40d3f2ba52c851c841a5b2b4eb566f62e0e9f43cad52f1e092f24469f1d07b177244e7ddd3c7d93f9b68ba7fc7c60922ffac00000000"
    }
  ]
}