{
  "hash": "00000000a439be94e901c6b16149f25f549c72ee0c8aea08ff9f41f1734e2270",
  "confirmations": 47161,
  "height": 5937,
  "version": 1,
  "versionHex": "00000001",
  "merkleroot": "8b1747e5ec1264ce2ff122de2fd2ccb49ba9aed443ad357013c1f93c562a3d52",
  "time": 1235878007,
  "mediantime": 1235873174,
  "nonce": 1165004852,
  "bits": "1d00ffff",
  "difficulty": 1,
  "chainwork": "0000000000000000000000000000000000000000000000000000173217321732",
  "nTx": 1,
  "previousblockhash": "0000000083f3b6ff05d6994814b2e9aba74f294635fd68a3155587c2a003a045",
  "nextblockhash": "00000000f5727d38f3cecbac7718f51db5256b2c403f7b6b33025b1c68f53372",
  "strippedsize": 216,
  "size": 216,
  "weight": 864,
  "tx": [
    {
      "txid": "8b1747e5ec1264ce2ff122de2fd2ccb49ba9aed443ad357013c1f93c562a3d52",
      "hash": "8b1747e5ec1264ce2ff122de2fd2ccb49ba9aed443ad357013c1f93c562a3d52",
      "version": 1,
      "size": 135,
      "vsize": 135,
      "weight": 540,
      "locktime": 0,
      "vin": [
        {
          "coinbase": "04ffff001d02d003",
          "sequence": 4294967295
        }
      ],
      "vout": [
        {
          "value": 50.0,
          "n": 0,
          "scriptPubKey": {
            "asm": "0403fc4a3bda4dc35b8610b38b7ad75e2557ca18473d4f30ee88639828a863610d7d03398d33a7d8d88a73dffc2fc200a241fc2ea228b5bcfe875a23cc0fafd013 OP_CHECKSIG",
            "desc": "pk(0403fc4a3bda4dc35b8610b38b7ad75e2557ca18473d4f30ee88639828a863610d7d03398d33a7d8d88a73dffc2fc200a241fc2ea228b5bcfe875a23cc0fafd013)#gz4ekkz2",
            "hex": "410403fc4a3bda4dc35b8610b38b7ad75e2557ca18473d4f30ee88639828a863610d7d03398d33a7d8d88a73dffc2fc200a241fc2ea228b5bcfe875a23cc0fafd013ac",
            "type": "pubkey"
          }
        }
      ],
      "hex": "01000000010000000000000000000000000000000000000000000000000000000000000000ffffffff0804ffff001d02d003ffffffff0100f2052a0100000043410403fc4a3bda4dc35b8610b38b7ad75e2557ca18473d4f30ee88639828a863610d7d03398d33a7d8d88a73dffc2fc200a241fc2ea228b5bcfe875a23cc0fafd013ac00000000"
    }
  ]
}