{
  "hash": "000000003c33351232ed433627d1cbc8b8ead2dd39a110305573bb7b8034432f",
  "confirmations": 46096,
  "height": 7002,
  "version": 1,
  "versionHex": "00000001",
  "merkleroot": "95af61f0d30a75053f743f9e074f9afb0c8aac7720531a0d9cbf9ae1fcc45d8a",
  "time": 1236719952,
  "mediantime": 1236716332,
  "nonce": 3058824968,
  "bits": "1d00ffff",
  "difficulty": 1,
  "chainwork": "00000000000000000000000000000000000000000000000000001b5b1b5b1b5b",
  "nTx": 1,
  "previousblockhash": "000000001bbde9ca358ef26004688ddf7f6bedba1869ebf2482831b6d1376be4",
  "nextblockhash": "00000000d42c2da0e9574cc0c6bd0fb9917dda230e54e92ecbbf4b1f798fe2aa",
  "strippedsize": 216,
  "size": 216,
  "weight": 864,
  "tx": [
    {
      "txid": "95af61f0d30a75053f743f9e074f9afb0c8aac7720531a0d9cbf9ae1fcc45d8a",
      "hash": "95af61f0d30a75053f743f9e074f9afb0c8aac7720531a0d9cbf9ae1fcc45d8a",
      "version": 1,
      "size": 135,
      "vsize": 135,
      "weight": 540,
      "locktime": 0,
      "vin": [
        {
          "coinbase": "04ffff001d025702",
          "sequence": 4294967295
        }
      ],
      "vout": [
        {
          "value": 50.0,
          "n": 0,
          "scriptPubKey": {
            "asm": "04269de580e2aac2d52da35c2204f7a98d70de084816a75d39b733cea3d6c5b6997a2134a9a5a1c4ec15ed6fcfc2c7af21b5e76a9b552a26a3fd09122372c69f02 OP_CHECKSIG",
            "desc": "pk(04269de580e2aac2d52da35c2204f7a98d70de084816a75d39b733cea3d6c5b6997a2134a9a5a1c4ec15ed6fcfc2c7af21b5e76a9b552a26a3fd09122372c69f02)#vel6f4d3",
            "hex": "4104269de580e2aac2d52da35c2204f7a98d70de084816a75d39b733cea3d6c5b6997a2134a9a5a1c4ec15ed6fcfc2c7af21b5e76a9b552a26a3fd09122372c69f02ac",
            "type": "pubkey"
          }
        }
      ],
      "hex": "01000000010000000000000000000000000000000000000000000000000000000000000000ffffffff0804ffff001d025702ffffffff0100f2052a01000000434104269de580e2aac2d52da35c2204f7a98d70de084816a75d39b733cea3d6c5b6997a2134a9a5a1c4ec15ed6fcfc2c7af21b5e76a9b552a26a3fd09122372c69f02ac00000000"
    }
  ]
}