{
  "hash": "000000003156b74fbbd80830bc22f8da3ad08a6114a53fb30782995470d1db1b",
  "confirmations": 48839,
  "height": 4259,
  "version": 1,
  "versionHex": "00000001",
  "merkleroot": "3658c6297b242d93407b44b6231eb37a8537a1163b595fea1aabd94d2184633f",
  "time": 1234615708,
  "mediantime": 1234612474,
  "nonce": 1159727901,
  "bits": "1d00ffff",
  "difficulty": 1,
  "chainwork": "000000000000000000000000000000000000000000000000000010a410a410a4",
  "nTx": 1,
  "previousblockhash": "000000007d3037617d7804e2376266203f19861de946a3490c3525e1034cddb7",
  "nextblockhash": "00000000115e54e306caa0b0a55e66d80f5537990a8f28422c12ecb0294d914d",
  "strippedsize": 216,
  "size": 216,
  "weight": 864,
  "tx": [
    {
      "txid": "3658c6297b242d93407b44b6231eb37a8537a1163b595fea1aabd94d2184633f",
      "hash": "3658c6297b242d93407b44b6231eb37a8537a1163b595fea1aabd94d2184633f",
      "version": 1,
      "size": 135,
      "vsize": 135,
      "weight": 540,
      "locktime": 0,
      "vin": [
        {
          "coinbase": "04ffff001d021c08",
          "sequence": 4294967295
        }
      ],
      "vout": [
        {
          "value": 50.0,
          "n": 0,
          "scriptPubKey": {
            "asm": "04d7d6b69f5a03f24e8c3caef02b42694aefdc841b1fdf2cc65dd208e2847e6a4572bae5ff06f4c908b83b0282ec23ff531eebdbcf874a0aa1fa15d4e19b8ceaf6 OP_CHECKSIG",
            "desc": "pk(04d7d6b69f5a03f24e8c3caef02b42694aefdc841b1fdf2cc65dd208e2847e6a4572bae5ff06f4c908b83b0282ec23ff531eebdbcf874a0aa1fa15d4e19b8ceaf6)#5cphnxty",
            "hex": "4104d7d6b69f5a03f24e8c3caef02b42694aefdc841b1fdf2cc65dd208e2847e6a4572bae5ff06f4c908b83b0282ec23ff531eebdbcf874a0aa1fa15d4e19b8ceaf6ac",
            "type": "pubkey"
          }
        }
      ],
      "hex": "01000000010000000000000000000000000000000000000000000000000000000000000000ffffffff0804ffff001d021c08ffffffff0100f2052a01000000434104d7d6b69f5a03f24e8c3caef02b42694aefdc841b1fdf2cc65dd208e2847e6a4572bae5ff06f4c908b83b0282ec23ff531eebdbcf874a0aa1fa15d4e19b8ceaf6ac00000000"
    }
  ]
}