{
  "hash": "000000005f769a80286a09a6c2e630dd437442fdfd877e0076a6b077a6e1567b",
  "confirmations": 49757,
  "height": 3341,
  "version": 1,
  "versionHex": "00000001",
  "merkleroot": "180d5f63d450722a413b79e4d2f401984e37a74e3479025da82492b9713106bb",
  "time": 1233995847,
  "mediantime": 1233990302,
  "nonce": 4233014313,
  "bits": "1d00ffff",
  "difficulty": 1,
  "chainwork": "00000000000000000000000000000000000000000000000000000d0e0d0e0d0e",
  "nTx": 1,
  "previousblockhash": "00000000ffd27d3cd7323dfb9cfda5fb363cbfe283e7fb248a5bdab693055a60",
  "nextblockhash": "00000000d51042239d9dbfe214a29c85f0e17ad84a1ff55f2194b545f3c4be4a",
  "strippedsize": 216,
  "size": 216,
  "weight": 864,
  "tx": [
    {
      "txid": "180d5f63d450722a413b79e4d2f401984e37a74e3479025da82492b9713106bb",
      "hash": "180d5f63d450722a413b79e4d2f401984e37a74e3479025da82492b9713106bb",
      "version": 1,
      "size": 135,
      "vsize": 135,
      "weight": 540,
      "locktime": 0,
      "vin": [
        {
          "coinbase": "04ffff001d02f704",
          "sequence": 4294967295
        }
      ],
      "vout": [
        {
          "value": 50.0,
          "n": 0,
          "scriptPubKey": {
            "asm": "04edf2b2491df22887b0cd4327edb1a5e2207432f46ae36a99fc52ad20b27d4f2a5295a3a59ff33a77b0127f7d0987f6cea89149140460925fb6d02cf07b7f553b OP_CHECKSIG",
            "desc": "pk(04edf2b2491df22887b0cd4327edb1a5e2207432f46ae36a99fc52ad20b27d4f2a5295a3a59ff33a77b0127f7d0987f6cea89149140460925fb6d02cf07b7f553b)#g6wd5g97",
            "hex": "4104edf2b2491df22887b0cd4327edb1a5e2207432f46ae36a99fc52ad20b27d4f2a5295a3a59ff33a77b0127f7d0987f6cea89149140460925fb6d02cf07b7f553bac",
            "type": "pubkey"
          }
        }
      ],
      "hex": "01000000010000000000000000000000000000000000000000000000000000000000000000ffffffff0804ffff001d02f704ffffffff0100f2052a01000000434104edf2b2491df22887b0cd4327edb1a5e2207432f46ae36a99fc52ad20b27d4f2a5295a3a59ff33a77b0127f7d0987f6cea89149140460925fb6d02cf07b7f553bac00000000"
    }
  ]
}