{
  "hash": "000000005e132ed894791add9a4e71175ead568b4e197de381364f9e965a491a",
  "confirmations": 52363,
  "height": 735,
  "version": 1,
  "versionHex": "00000001",
  "merkleroot": "b7b2b41bd7e219fe2d5543e196dc91d3fd72f1696a78f59a127ebcad9cb2bb3b",
  "time": 1232138546,
  "mediantime": 1232134449,
  "nonce": 3000905760,
  "bits": "1d00ffff",
  "difficulty": 1,
  "chainwork": "000000000000000000000000000000000000000000000000000002e002e002e0",
  "nTx": 1,
  "previousblockhash": "000000007f65dc5a5681c9de6fcdfec7f68aa67af923af236f151cbffaf8e26c",
  "nextblockhash": "00000000305d6a663100108e3ead61bdb3df4ca9d5875e1db372d512d14b035c",
  "strippedsize": 215,
  "size": 215,
  "weight": 860,
  "tx": [
    {
      "txid": "b7b2b41bd7e219fe2d5543e196dc91d3fd72f1696a78f59a127ebcad9cb2bb3b",
      "hash": "b7b2b41bd7e219fe2d5543e196dc91d3fd72f1696a78f59a127ebcad9cb2bb3b",
      "version": 1,
      "size": 134,
      "vsize": 134,
      "weight": 536,
      "locktime": 0,
      "vin": [
        {
          "coinbase": "04ffff001d014f",
          "sequence": 4294967295
        }
      ],
      "vout": [
        {
          "value": 50.0,
          "n": 0,
          "scriptPubKey": {
            "asm": "041d4902338b02c0398d57bdce283b9df0af5cd1ff87d65404e12cddb170a2d10289f924a17bbff522db6194ea359ed8389ea9374bb50797b2902a3fa59e8c0fe0 OP_CHECKSIG",
            "desc": "pk(041d4902338b02c0398d57bdce283b9df0af5cd1ff87d65404e12cddb170a2d10289f924a17bbff522db6194ea359ed8389ea9374bb50797b2902a3fa59e8c0fe0)#92amd9zg",
            "hex": "41041d4902338b02c0398d57bdce283b9df0af5cd1ff87d65404e12cddb170a2d10289f924a17bbff522db6194ea359ed8389ea9374bb50797b2902a3fa59e8c0fe0ac",
            "type": "pubkey"
          }
        }
      ],
      "hex": "01000000010000000000000000000000000000000000000000000000000000000000000000ffffffff0704ffff001d014fffffffff0100f2052a010000004341041d4902338b02c0398d57bdce283b9df0af5cd1ff87d65404e12cddb170a2d10289f924a17bbff522db6194ea359ed8389ea9374bb50797b2902a3fa59e8c0fe0ac00000000"
    }
  ]
}