{
  "hash": "00000000f41633f43a827c3e6e1886ac59a7a890e92f8a36134f11b51a1650e3",
  "confirmations": 43172,
  "height": 9926,
  "version": 1,
  "versionHex": "00000001",
  "merkleroot": "1c2c801f2c5011973b4c21b8e73a27b840b010391027db192687dc8a6845423b",
  "time": 1238938858,
  "mediantime": 1238934860,
  "nonce": 488035352,
  "bits": "1d00ffff",
  "difficulty": 1,
  "chainwork": "000000000000000000000000000000000000000000000000000026c726c726c7",
  "nTx": 1,
  "previousblockhash": "0000000080ba99de231147c2167c6c04a7a31c72f9e1e278c88187563dea8c77",
  "nextblockhash": "00000000129114ffebe6ee8fb3583802657e7c99f65dfc9666bf933ecb7a9e22",
  "strippedsize": 216,
  "size": 216,
  "weight": 864,
  "tx": [
    {
      "txid": "1c2c801f2c5011973b4c21b8e73a27b840b010391027db192687dc8a6845423b",
      "hash": "1c2c801f2c5011973b4c21b8e73a27b840b010391027db192687dc8a6845423b",
      "version": 1,
      "size": 135,
      "vsize": 135,
      "weight": 540,
      "locktime": 0,
      "vin": [
        {
          "coinbase": "04ffff001d027702",
          "sequence": 4294967295
        }
      ],
      "vout": [
        {
          "value": 50.0,
          "n": 0,
          "scriptPubKey": {
            "asm": "04f3677a0749f7e55c6312b9a4280f6cdf6e2c4a824cbc241a7a09f9edf26389e02fd924265e6cf6ebb7162a5c1eddbd87f4315b02cde5b3d517c07d784b3bf9fd OP_CHECKSIG",
            "desc": "pk(04f3677a0749f7e55c6312b9a4280f6cdf6e2c4a824cbc241a7a09f9edf26389e02fd924265e6cf6ebb7162a5c1eddbd87f4315b02cde5b3d517c07d784b3bf9fd)#ycfsflxa",
            "hex": "4104f3677a0749f7e55c6312b9a4280f6cdf6e2c4a824cbc241a7a09f9edf26389e02fd924265e6cf6ebb7162a5c1eddbd87f4315b02cde5b3d517c07d784b3bf9fdac",
            "type": "pubkey"
          }
        }
      ],
      "hex": "01000000010000000000000000000000000000000000000000000000000000000000000000ffffffff0804ffff001d027702ffffffff0100f2052a01000000434104f3677a0749f7e55c6312b9a4280f6cdf6e2c4a824cbc241a7a09f9edf26389e02fd924265e6cf6ebb7162a5c1eddbd87f4315b02cde5b3d517c07d784b3bf9fdac00000000"
    }
  ]
}