{
  "hash": "00000000ddd70c8bad8786e0685762584b0c110b8615b37cc5f85a59df8f4177",
  "confirmations": 47146,
  "height": 5952,
  "version": 1,
  "versionHex": "00000001",
  "merkleroot": "9068056aff45b8290d3d38d328a205d4e910b5e8d8d3b7ebda6b2db1a73f49cb",
  "time": 1235889775,
  "mediantime": 1235885917,
  "nonce": 449827363,
  "bits": "1d00ffff",
  "difficulty": 1,
  "chainwork": "0000000000000000000000000000000000000000000000000000174117411741",
  "nTx": 1,
  "previousblockhash": "000000001dbc678d1ca75d45178db84af4436393f14aa4af5b9ac0975913e5d0",
  "nextblockhash": "00000000fda6b58ccc636f9ead09ec00b1f1935124bdf27031c3719009ce395c",
  "strippedsize": 216,
  "size": 216,
  "weight": 864,
  "tx": [
    {
      "txid": "9068056aff45b8290d3d38d328a205d4e910b5e8d8d3b7ebda6b2db1a73f49cb",
      "hash": "9068056aff45b8290d3d38d328a205d4e910b5e8d8d3b7ebda6b2db1a73f49cb",
      "version": 1,
      "size": 135,
      "vsize": 135,
      "weight": 540,
      "locktime": 0,
      "vin": [
        {
          "coinbase": "04ffff001d021004",
          "sequence": 4294967295
        }
      ],
      "vout": [
        {
          "value": 50.0,
          "n": 0,
          "scriptPubKey": {
            "asm": "040b67c5140cd9380b5d48c7967633df368533bde85dfbf61762af4e886d57dc3cba3260192edd282cb12a7f73f4e5dde713f95f7870c2a0496b97381221327af0 OP_CHECKSIG",
            "desc": "pk(040b67c5140cd9380b5d48c7967633df368533bde85dfbf61762af4e886d57dc3cba3260192edd282cb12a7f73f4e5dde713f95f7870c2a0496b97381221327af0)#7f0cg620",
            "hex": "41040b67c5140cd9380b5d48c7967633df368533bde85dfbf61762af4e886d57dc3cba3260192edd282cb12a7f73f4e5dde713f95f7870c2a0496b97381221327af0ac",
            "type": "pubkey"
          }
        }
      ],
      "hex": "01000000010000000000000000000000000000000000000000000000000000000000000000ffffffff0804ffff001d021004ffffffff0100f2052a010000004341040b67c5140cd9380b5d48c7967633df368533bde85dfbf61762af4e886d57dc3cba3260192edd282cb12a7f73f4e5dde713f95f7870c2a0496b97381221327af0ac00000000"
    }
  ]
}