{
  "hash": "000000005a9b4befdee466381a59554c16d6692b5f11769b1c95c904bb053fcb",
  "confirmations": 45844,
  "height": 7254,
  "version": 1,
  "versionHex": "00000001",
  "merkleroot": "50af778c9c31876fe7c56baf01ff70284e19865581e405537a604b4d7dc6a053",
  "time": 1236910882,
  "mediantime": 1236906214,
  "nonce": 1513101881,
  "bits": "1d00ffff",
  "difficulty": 1,
  "chainwork": "00000000000000000000000000000000000000000000000000001c571c571c57",
  "nTx": 1,
  "previousblockhash": "00000000b844e1330daf4385c53f65e68c489b39bb67319146e35726fa0c2ba1",
  "nextblockhash": "00000000e57e1c8c92419233b40961ccf47186e71559194b2791aa53cb169265",
  "strippedsize": 216,
  "size": 216,
  "weight": 864,
  "tx": [
    {
      "txid": "50af778c9c31876fe7c56baf01ff70284e19865581e405537a604b4d7dc6a053",
      "hash": "50af778c9c31876fe7c56baf01ff70284e19865581e405537a604b4d7dc6a053",
      "version": 1,
      "size": 135,
      "vsize": 135,
      "weight": 540,
      "locktime": 0,
      "vin": [
        {
          "coinbase": "04ffff001d028706",
          "sequence": 4294967295
        }
      ],
      "vout": [
        {
          "value": 50.0,
          "n": 0,
          "scriptPubKey": {
            "asm": "042e6d866f4753358920c87f69e73aea8df1620ac11f785540e8aee30133311789d981c2dceaca86befb9ae68d9ec3d3f6e61fbaff8147510281e91bc56c781682 OP_CHECKSIG",
            "desc": "pk(042e6d866f4753358920c87f69e73aea8df1620ac11f785540e8aee30133311789d981c2dceaca86befb9ae68d9ec3d3f6e61fbaff8147510281e91bc56c781682)#aqcy98al",
            "hex": "41042e6d866f4753358920c87f69e73aea8df1620ac11f785540e8aee30133311789d981c2dceaca86befb9ae68d9ec3d3f6e61fbaff8147510281e91bc56c781682ac",
            "type": "pubkey"
          }
        }
      ],
      "hex": "01000000010000000000000000000000000000000000000000000000000000000000000000ffffffff0804ffff001d028706ffffffff0100f2052a010000004341042e6d866f4753358920c87f69e73aea8df1620ac11f785540e8aee30133311789d981c2dceaca86befb9ae68d9ec3d3f6e61fbaff8147510281e91bc56c781682ac00000000"
    }
  ]
}