{
  "hash": "00000000cd4e2942b678d341aaa6469a832b5492138bff5e650a785dda241cdd",
  "confirmations": 48071,
  "height": 5027,
  "version": 1,
  "versionHex": "00000001",
  "merkleroot": "56e37f5a099388611a64c4826d247e451d6d9fb34d6b7edc97cf003d20f33ab7",
  "time": 1235157244,
  "mediantime": 1235151874,
  "nonce": 3035695672,
  "bits": "1d00ffff",
  "difficulty": 1,
  "chainwork": "000000000000000000000000000000000000000000000000000013a413a413a4",
  "nTx": 1,
  "previousblockhash": "00000000c4512a444a69c0671c9b9910624981f7fc6ac5b44b78fd6613f79184",
  "nextblockhash": "000000001adc6c26e9860749f7905b1df0af564de9911a145d5dd7704619907c",
  "strippedsize": 216,
  "size": 216,
  "weight": 864,
  "tx": [
    {
      "txid": "56e37f5a099388611a64c4826d247e451d6d9fb34d6b7edc97cf003d20f33ab7",
      "hash": "56e37f5a099388611a64c4826d247e451d6d9fb34d6b7edc97cf003d20f33ab7",
      "version": 1,
      "size": 135,
      "vsize": 135,
      "weight": 540,
      "locktime": 0,
      "vin": [
        {
          "coinbase": "04ffff001d028107",
          "sequence": 4294967295
        }
      ],
      "vout": [
        {
          "value": 50.0,
          "n": 0,
          "scriptPubKey": {
            "asm": "04181bc1377b1ab7bd4758eb362e20f602da55e58886ceca1b0bb82d9c1f1df6b11b0ae36dbd5073908a76a0fca5db207ff91b784ddbd4e13ecb9d2d7f0c6575ba OP_CHECKSIG",
            "desc": "pk(04181bc1377b1ab7bd4758eb362e20f602da55e58886ceca1b0bb82d9c1f1df6b11b0ae36dbd5073908a76a0fca5db207ff91b784ddbd4e13ecb9d2d7f0c6575ba)#ah6wpx0m",
            "hex": "4104181bc1377b1ab7bd4758eb362e20f602da55e58886ceca1b0bb82d9c1f1df6b11b0ae36dbd5073908a76a0fca5db207ff91b784ddbd4e13ecb9d2d7f0c6575baac",
            "type": "pubkey"
          }
        }
      ],
      "hex": "01000000010000000000000000000000000000000000000000000000000000000000000000ffffffff0804ffff001d028107ffffffff0100f2052a01000000434104181bc1377b1ab7bd4758eb362e20f602da55e58886ceca1b0bb82d9c1f1df6b11b0ae36dbd5073908a76a0fca5db207ff91b784ddbd4e13ecb9d2d7f0c6575baac00000000"
    }
  ]
}