{
  "hash": "000000008db36ba3c95a5780c247cf049570bc1b3ae1e7155db166e6f5eb89fe",
  "confirmations": 46915,
  "height": 6183,
  "version": 1,
  "versionHex": "00000001",
  "merkleroot": "108dc9b413ad08521946d8bc0d8f188ef5a2d1d2c58f165220efe4ff586b22f9",
  "time": 1236078728,
  "mediantime": 1236073549,
  "nonce": 1510119218,
  "bits": "1d00ffff",
  "difficulty": 1,
  "chainwork": "0000000000000000000000000000000000000000000000000000182818281828",
  "nTx": 1,
  "previousblockhash": "000000008c9da40f51b0ea34315f03ba7f367a69c71f1654ecf42d9fec355960",
  "nextblockhash": "00000000d1b4e13188893c5a9ebe72c5b654d9ff0f3e8da665a014406852f574",
  "strippedsize": 216,
  "size": 216,
  "weight": 864,
  "tx": [
    {
      "txid": "108dc9b413ad08521946d8bc0d8f188ef5a2d1d2c58f165220efe4ff586b22f9",
      "hash": "108dc9b413ad08521946d8bc0d8f188ef5a2d1d2c58f165220efe4ff586b22f9",
      "version": 1,
      "size": 135,
      "vsize": 135,
      "weight": 540,
      "locktime": 0,
      "vin": [
        {
          "coinbase": "04ffff001d023808",
          "sequence": 4294967295
        }
      ],
      "vout": [
        {
          "value": 50.0,
          "n": 0,
          "scriptPubKey": {
            "asm": "0431952482206b2426530ca874f2df8cd50eda95dc2cfafbf6304ba5e75d34fab430f990ced2ce8614d6195e7b524ebf34cf50ce8d922abe5c11d0bf923de4db00 OP_CHECKSIG",
            "desc": "pk(0431952482206b2426530ca874f2df8cd50eda95dc2cfafbf6304ba5e75d34fab430f990ced2ce8614d6195e7b524ebf34cf50ce8d922abe5c11d0bf923de4db00)#w37ulehj",
            "hex": "410431952482206b2426530ca874f2df8cd50eda95dc2cfafbf6304ba5e75d34fab430f990ced2ce8614d6195e7b524ebf34cf50ce8d922abe5c11d0bf923de4db00ac",
            "type": "pubkey"
          }
        }
      ],
      "hex": "01000000010000000000000000000000000000000000000000000000000000000000000000ffffffff0804ffff001d023808ffffffff0100f2052a0100000043410431952482206b2426530ca874f2df8cd50eda95dc2cfafbf6304ba5e75d34fab430f990ced2ce8614d6195e7b524ebf34cf50ce8d922abe5c11d0bf923de4db00ac00000000"
    }
  ]
}