{
  "hash": "0000000008a63e41a03767c76e4ba79a2132db23a7d714f57c5a7e4a7288f479",
  "confirmations": 52125,
  "height": 973,
  "version": 1,
  "versionHex": "00000001",
  "merkleroot": "f0dacdd8b7bc23213a3b9d56bcb8c7a68d849468e9c3c5ceda0bbf34278e9549",
  "time": 1232329010,
  "mediantime": 1232325165,
  "nonce": 3763042605,
  "bits": "1d00ffff",
  "difficulty": 1,
  "chainwork": "000000000000000000000000000000000000000000000000000003ce03ce03ce",
  "nTx": 1,
  "previousblockhash": "00000000abe6f867ca73ca6bcf77fff97a214ad1be8d93c67648f34ac33b605d",
  "nextblockhash": "00000000be3c231de630b045c165b842d24d53760dc84925d0d332f5f833f7d3",
  "strippedsize": 216,
  "size": 216,
  "weight": 864,
  "tx": [
    {
      "txid": "f0dacdd8b7bc23213a3b9d56bcb8c7a68d849468e9c3c5ceda0bbf34278e9549",
      "hash": "f0dacdd8b7bc23213a3b9d56bcb8c7a68d849468e9c3c5ceda0bbf34278e9549",
      "version": 1,
      "size": 135,
      "vsize": 135,
      "weight": 540,
      "locktime": 0,
      "vin": [
        {
          "coinbase": "04ffff001d02b504",
          "sequence": 4294967295
        }
      ],
      "vout": [
        {
          "value": 50.0,
          "n": 0,
          "scriptPubKey": {
            "asm": "0416af3eb8f6fd873eaf0fcd4b90ea6e7683a59d378396f6c5f5bb0a6129c00da30a5d52ef23afcf43fedc7e22dc4fd773b6a168106aaf034104e2c886a8b23533 OP_CHECKSIG",
            "desc": "pk(0416af3eb8f6fd873eaf0fcd4b90ea6e7683a59d378396f6c5f5bb0a6129c00da30a5d52ef23afcf43fedc7e22dc4fd773b6a168106aaf034104e2c886a8b23533)#4afsty8q",
            "hex": "410416af3eb8f6fd873eaf0fcd4b90ea6e7683a59d378396f6c5f5bb0a6129c00da30a5d52ef23afcf43fedc7e22dc4fd773b6a168106aaf034104e2c886a8b23533ac",
            "type": "pubkey"
          }
        }
      ],
      "hex": "01000000010000000000000000000000000000000000000000000000000000000000000000ffffffff0804ffff001d02b504ffffffff0100f2052a0100000043410416af3eb8f6fd873eaf0fcd4b90ea6e7683a59d378396f6c5f5bb0a6129c00da30a5d52ef23afcf43fedc7e22dc4fd773b6a168106aaf034104e2c886a8b23533ac00000000"
    }
  ]
}