{
  "hash": "0000000008535274df95b9754828b09cac384a5d9f43453f769219aaccf1cd9a",
  "confirmations": 45260,
  "height": 7838,
  "version": 1,
  "versionHex": "00000001",
  "merkleroot": "5c51676cdebf22ba769b6a15b094663467604b29e864f029067800c7841df411",
  "time": 1237342854,
  "mediantime": 1237337842,
  "nonce": 1790070024,
  "bits": "1d00ffff",
  "difficulty": 1,
  "chainwork": "00000000000000000000000000000000000000000000000000001e9f1e9f1e9f",
  "nTx": 1,
  "previousblockhash": "00000000fa3dc261b67cd450002c1e439370f8401e7c5db6eb2cc93e10883a92",
  "nextblockhash": "00000000ccaa7b8ae59f0bc58e7aca6ea7020b433a5127679c5372675519c102",
  "strippedsize": 216,
  "size": 216,
  "weight": 864,
  "tx": [
    {
      "txid": "5c51676cdebf22ba769b6a15b094663467604b29e864f029067800c7841df411",
      "hash": "5c51676cdebf22ba769b6a15b094663467604b29e864f029067800c7841df411",
      "version": 1,
      "size": 135,
      "vsize": 135,
      "weight": 540,
      "locktime": 0,
      "vin": [
        {
          "coinbase": "04ffff001d028006",
          "sequence": 4294967295
        }
      ],
      "vout": [
        {
          "value": 50.0,
          "n": 0,
          "scriptPubKey": {
            "asm": "046a676ef93122b7416c9ef7e59b3f2214872474b6de7fc714ed8563af55feb504ccc2d54bd5e04c8812a7de30f1a0185dc5dbd08a8ae03cbadcaf17a83be47d84 OP_CHECKSIG",
            "desc": "pk(046a676ef93122b7416c9ef7e59b3f2214872474b6de7fc714ed8563af55feb504ccc2d54bd5e04c8812a7de30f1a0185dc5dbd08a8ae03cbadcaf17a83be47d84)#wghzrlew",
            "hex": "41046a676ef93122b7416c9ef7e59b3f2214872474b6de7fc714ed8563af55feb504ccc2d54bd5e04c8812a7de30f1a0185dc5dbd08a8ae03cbadcaf17a83be47d84ac",
            "type": "pubkey"
          }
        }
      ],
      "hex": "01000000010000000000000000000000000000000000000000000000000000000000000000ffffffff0804ffff001d028006ffffffff0100f2052a010000004341046a676ef93122b7416c9ef7e59b3f2214872474b6de7fc714ed8563af55feb504ccc2d54bd5e04c8812a7de30f1a0185dc5dbd08a8ae03cbadcaf17a83be47d84ac00000000"
    }
  ]
}