{
  "hash": "00000000dd9588e8b12025e5257267abe0e9134d493ab3b449a47db8d22567d2",
  "confirmations": 52518,
  "height": 580,
  "version": 1,
  "versionHex": "00000001",
  "merkleroot": "bd9b02d1db874049772cc6fceeb73b67cdb99774844ba4d4ed4bbe7fa1584940",
  "time": 1232024017,
  "mediantime": 1232020171,
  "nonce": 4212131640,
  "bits": "1d00ffff",
  "difficulty": 1,
  "chainwork": "0000000000000000000000000000000000000000000000000000024502450245",
  "nTx": 1,
  "previousblockhash": "0000000074e77a1e561ab5247bec8a977977d3dde3d70a74fabf0adc3d6bf4ac",
  "nextblockhash": "0000000084935be8a5b06525aea383d2988df6003963222f5adc5ddf5951e7fd",
  "strippedsize": 216,
  "size": 216,
  "weight": 864,
  "tx": [
    {
      "txid": "bd9b02d1db874049772cc6fceeb73b67cdb99774844ba4d4ed4bbe7fa1584940",
      "hash": "bd9b02d1db874049772cc6fceeb73b67cdb99774844ba4d4ed4bbe7fa1584940",
      "version": 1,
      "size": 135,
      "vsize": 135,
      "weight": 540,
      "locktime": 0,
      "vin": [
        {
          "coinbase": "04ffff001d023f06",
          "sequence": 4294967295
        }
      ],
      "vout": [
        {
          "value": 50.0,
          "n": 0,
          "scriptPubKey": {
            "asm": "0434d9f4d2e6393f62481e7739a2990598e3b8e43a17112ae9fc9576c976114d1c89fc54306f0381825bbb0e2dcc1d35e5ec3b080433d691c1132ed363fb2b4585 OP_CHECKSIG",
            "desc": "pk(0434d9f4d2e6393f62481e7739a2990598e3b8e43a17112ae9fc9576c976114d1c89fc54306f0381825bbb0e2dcc1d35e5ec3b080433d691c1132ed363fb2b4585)#kkx6adc9",
            "hex": "410434d9f4d2e6393f62481e7739a2990598e3b8e43a17112ae9fc9576c976114d1c89fc54306f0381825bbb0e2dcc1d35e5ec3b080433d691c1132ed363fb2b4585ac",
            "type": "pubkey"
          }
        }
      ],
      "hex": "01000000010000000000000000000000000000000000000000000000000000000000000000ffffffff0804ffff001d023f06ffffffff0100f2052a0100000043410434d9f4d2e6393f62481e7739a2990598e3b8e43a17112ae9fc9576c976114d1c89fc54306f0381825bbb0e2dcc1d35e5ec3b080433d691c1132ed363fb2b4585ac00000000"
    }
  ]
}