{
  "hash": "000000009b258aba4631bcd3e763667edd28ca4960da6cfedf98f42e2631314c",
  "confirmations": 51227,
  "height": 1871,
  "version": 1,
  "versionHex": "00000001",
  "merkleroot": "7c3d29ebc40581a5f6ac6891e3a3c83c8195c09aa9ce1f3123bbcce5b71013e0",
  "time": 1232931441,
  "mediantime": 1232929063,
  "nonce": 45270868,
  "bits": "1d00ffff",
  "difficulty": 1,
  "chainwork": "0000000000000000000000000000000000000000000000000000075007500750",
  "nTx": 1,
  "previousblockhash": "0000000039d64ce3bb6f073707a6ba831e6e2fbc7d9fae40709d162012b1253e",
  "nextblockhash": "00000000c2dfe3968ef3133e68e9d56fee1eee7409ea6986aafb5bd003f38478",
  "strippedsize": 216,
  "size": 216,
  "weight": 864,
  "tx": [
    {
      "txid": "7c3d29ebc40581a5f6ac6891e3a3c83c8195c09aa9ce1f3123bbcce5b71013e0",
      "hash": "7c3d29ebc40581a5f6ac6891e3a3c83c8195c09aa9ce1f3123bbcce5b71013e0",
      "version": 1,
      "size": 135,
      "vsize": 135,
      "weight": 540,
      "locktime": 0,
      "vin": [
        {
          "coinbase": "04ffff001d021f01",
          "sequence": 4294967295
        }
      ],
      "vout": [
        {
          "value": 50.0,
          "n": 0,
          "scriptPubKey": {
            "asm": "047d1713488c6d9076f3b4acea9aba50fcab73f9922fdc10387e2e4c0abe6f1deb14d57b5f9873da9a0e1f88716611796211ebc51d4c40b35f32679c8bb1feb794 OP_CHECKSIG",
            "desc": "pk(047d1713488c6d9076f3b4acea9aba50fcab73f9922fdc10387e2e4c0abe6f1deb14d57b5f9873da9a0e1f88716611796211ebc51d4c40b35f32679c8bb1feb794)#ucahfkeq",
            "hex": "41047d1713488c6d9076f3b4acea9aba50fcab73f9922fdc10387e2e4c0abe6f1deb14d57b5f9873da9a0e1f88716611796211ebc51d4c40b35f32679c8bb1feb794ac",
            "type": "pubkey"
          }
        }
      ],
      "hex": "01000000010000000000000000000000000000000000000000000000000000000000000000ffffffff0804ffff001d021f01ffffffff0100f2052a010000004341047d1713488c6d9076f3b4acea9aba50fcab73f9922fdc10387e2e4c0abe6f1deb14d57b5f9873da9a0e1f88716611796211ebc51d4c40b35f32679c8bb1feb794ac00000000"
    }
  ]
}