{
  "hash": "000000008d8b4b2027726a092d49e2cfc605606005b7b5d47bfc7fad3460c6e1",
  "confirmations": 51435,
  "height": 1663,
  "version": 1,
  "versionHex": "00000001",
  "merkleroot": "5f35cc0edb68969db83624965d4ad63e06ff88b13af4eeff0618b4446bf863e8",
  "time": 1232837961,
  "mediantime": 1232836677,
  "nonce": 1121292316,
  "bits": "1d00ffff",
  "difficulty": 1,
  "chainwork": "0000000000000000000000000000000000000000000000000000068006800680",
  "nTx": 1,
  "previousblockhash": "00000000af29522b2f41d71a460e13bf508b2c3e321f3c68c18e09a0803744d6",
  "nextblockhash": "000000006d1a2f7f2b16e1b950879de117d75ce7f3111f7a261b657016131385",
  "strippedsize": 216,
  "size": 216,
  "weight": 864,
  "tx": [
    {
      "txid": "5f35cc0edb68969db83624965d4ad63e06ff88b13af4eeff0618b4446bf863e8",
      "hash": "5f35cc0edb68969db83624965d4ad63e06ff88b13af4eeff0618b4446bf863e8",
      "version": 1,
      "size": 135,
      "vsize": 135,
      "weight": 540,
      "locktime": 0,
      "vin": [
        {
          "coinbase": "04ffff001d02c802",
          "sequence": 4294967295
        }
      ],
      "vout": [
        {
          "value": 50.0,
          "n": 0,
          "scriptPubKey": {
            "asm": "04284536f6d20b2d4fc11f67ee35453afd595cdafda2b0ece46e72f9b8a35dead49362b0f5322f5dd7e56bddf3efa97df0182e1f0e807f8160d990a090b8943a4e OP_CHECKSIG",
            "desc": "pk(04284536f6d20b2d4fc11f67ee35453afd595cdafda2b0ece46e72f9b8a35dead49362b0f5322f5dd7e56bddf3efa97df0182e1f0e807f8160d990a090b8943a4e)#n2ll3v24",
            "hex": "4104284536f6d20b2d4fc11f67ee35453afd595cdafda2b0ece46e72f9b8a35dead49362b0f5322f5dd7e56bddf3efa97df0182e1f0e807f8160d990a090b8943a4eac",
            "type": "pubkey"
          }
        }
      ],
      "hex": "01000000010000000000000000000000000000000000000000000000000000000000000000ffffffff0804ffff001d02c802ffffffff0100f2052a01000000434104284536f6d20b2d4fc11f67ee35453afd595cdafda2b0ece46e72f9b8a35dead49362b0f5322f5dd7e56bddf3efa97df0182e1f0e807f8160d990a090b8943a4eac00000000"
    }
  ]
}