{
  "hash": "00000000375a23a2394247f698824dc824d93136aede8194793e63ae7e3e3a99",
  "confirmations": 50268,
  "height": 2830,
  "version": 1,
  "versionHex": "00000001",
  "merkleroot": "e2b6da45ce4ab14c50282fa9bd83ad94684ac5ca0af643781bf29cdbead48ddf",
  "time": 1233645082,
  "mediantime": 1233642828,
  "nonce": 553033766,
  "bits": "1d00ffff",
  "difficulty": 1,
  "chainwork": "00000000000000000000000000000000000000000000000000000b0f0b0f0b0f",
  "nTx": 1,
  "previousblockhash": "0000000012d8999e42e708bc07f05c29c4295e05578ea27db36767903d19a5d5",
  "nextblockhash": "0000000008bc45649d6960c55328533f7cdb47a89415fd91a6d4efc917d04847",
  "strippedsize": 216,
  "size": 216,
  "weight": 864,
  "tx": [
    {
      "txid": "e2b6da45ce4ab14c50282fa9bd83ad94684ac5ca0af643781bf29cdbead48ddf",
      "hash": "e2b6da45ce4ab14c50282fa9bd83ad94684ac5ca0af643781bf29cdbead48ddf",
      "version": 1,
      "size": 135,
      "vsize": 135,
      "weight": 540,
      "locktime": 0,
      "vin": [
        {
          "coinbase": "04ffff001d028406",
          "sequence": 4294967295
        }
      ],
      "vout": [
        {
          "value": 50.0,
          "n": 0,
          "scriptPubKey": {
            "asm": "04ac9b876b496e69d81c0fc58f1ec78deaaaaf47711ae791f6cd9cce104b2bdeaae008ac7a02874fce7ce78d9253a1f6a64768c77350a631b946f067f1ee21b71c OP_CHECKSIG",
            "desc": "pk(04ac9b876b496e69d81c0fc58f1ec78deaaaaf47711ae791f6cd9cce104b2bdeaae008ac7a02874fce7ce78d9253a1f6a64768c77350a631b946f067f1ee21b71c)#eft5ezk9",
            "hex": "4104ac9b876b496e69d81c0fc58f1ec78deaaaaf47711ae791f6cd9cce104b2bdeaae008ac7a02874fce7ce78d9253a1f6a64768c77350a631b946f067f1ee21b71cac",
            "type": "pubkey"
          }
        }
      ],
      "hex": "01000000010000000000000000000000000000000000000000000000000000000000000000ffffffff0804ffff001d028406ffffffff0100f2052a01000000434104ac9b876b496e69d81c0fc58f1ec78deaaaaf47711ae791f6cd9cce104b2bdeaae008ac7a02874fce7ce78d9253a1f6a64768c77350a631b946f067f1ee21b71cac00000000"
    }
  ]
}