{
  "hash": "00000000e89fa57610a2194b859ae2ff1d6129399b7f92fcf1e6dd81d0c07c57",
  "confirmations": 47551,
  "height": 5547,
  "version": 1,
  "versionHex": "00000001",
  "merkleroot": "7db045b6eccbc00ed99c4ce7dd1b63752d6794d7a051fef8e712c2b259fd3051",
  "time": 1235559779,
  "mediantime": 1235555005,
  "nonce": 1266468141,
  "bits": "1d00ffff",
  "difficulty": 1,
  "chainwork": "000000000000000000000000000000000000000000000000000015ac15ac15ac",
  "nTx": 1,
  "previousblockhash": "000000009373ab8cf912050e3d9a3a7933b0ac1d3069ccca1a11efa6bbd9f4a5",
  "nextblockhash": "000000004e1942f8720de40b68b5f52510060a9fed6c3018dd7af62cf78144be",
  "strippedsize": 216,
  "size": 216,
  "weight": 864,
  "tx": [
    {
      "txid": "7db045b6eccbc00ed99c4ce7dd1b63752d6794d7a051fef8e712c2b259fd3051",
      "hash": "7db045b6eccbc00ed99c4ce7dd1b63752d6794d7a051fef8e712c2b259fd3051",
      "version": 1,
      "size": 135,
      "vsize": 135,
      "weight": 540,
      "locktime": 0,
      "vin": [
        {
          "coinbase": "04ffff001d028406",
          "sequence": 4294967295
        }
      ],
      "vout": [
        {
          "value": 50.0,
          "n": 0,
          "scriptPubKey": {
            "asm": "04b7bad4ee22c120e859d98d26c3c552c8f1db21896fc63ba57c4b828f36d61dfe15345482f58eb052942fcf6995dfb6a830387f300a487ad077f244e39a10e31c OP_CHECKSIG",
            "desc": "pk(04b7bad4ee22c120e859d98d26c3c552c8f1db21896fc63ba57c4b828f36d61dfe15345482f58eb052942fcf6995dfb6a830387f300a487ad077f244e39a10e31c)#exjj8a8a",
            "hex": "4104b7bad4ee22c120e859d98d26c3c552c8f1db21896fc63ba57c4b828f36d61dfe15345482f58eb052942fcf6995dfb6a830387f300a487ad077f244e39a10e31cac",
            "type": "pubkey"
          }
        }
      ],
      "hex": "01000000010000000000000000000000000000000000000000000000000000000000000000ffffffff0804ffff001d028406ffffffff0100f2052a01000000434104b7bad4ee22c120e859d98d26c3c552c8f1db21896fc63ba57c4b828f36d61dfe15345482f58eb052942fcf6995dfb6a830387f300a487ad077f244e39a10e31cac00000000"
    }
  ]
}