{
  "hash": "00000000b0dc00a3e472579f765d08538f330943d7c9f34fc1a3aa2dd8849006",
  "confirmations": 48059,
  "height": 5039,
  "version": 1,
  "versionHex": "00000001",
  "merkleroot": "1345b1f66e3abf7457818ea0c42fad03fffe1084067f4e39bcfd8091845b0754",
  "time": 1235166744,
  "mediantime": 1235163107,
  "nonce": 1690379816,
  "bits": "1d00ffff",
  "difficulty": 1,
  "chainwork": "000000000000000000000000000000000000000000000000000013b013b013b0",
  "nTx": 1,
  "previousblockhash": "000000000099fc7a4e340d4203deb248ea83f7e0a1864b8a907d6af8a2ddb04f",
  "nextblockhash": "0000000039a115c36715d1cda9bf7b9b20ae14c53e1b577881b8e290ee9fbc51",
  "strippedsize": 216,
  "size": 216,
  "weight": 864,
  "tx": [
    {
      "txid": "1345b1f66e3abf7457818ea0c42fad03fffe1084067f4e39bcfd8091845b0754",
      "hash": "1345b1f66e3abf7457818ea0c42fad03fffe1084067f4e39bcfd8091845b0754",
      "version": 1,
      "size": 135,
      "vsize": 135,
      "weight": 540,
      "locktime": 0,
      "vin": [
        {
          "coinbase": "04ffff001d02b207",
          "sequence": 4294967295
        }
      ],
      "vout": [
        {
          "value": 50.0,
          "n": 0,
          "scriptPubKey": {
            "asm": "04cfe98830050eca6ecfd7b7a14e4699487fd907766e47c7a3e34cdf0d431e68df502d0afe2684491d7d9a3cc832385a9056ac63d3ca85b52a5d8e8f8674d8bfef OP_CHECKSIG",
            "desc": "pk(04cfe98830050eca6ecfd7b7a14e4699487fd907766e47c7a3e34cdf0d431e68df502d0afe2684491d7d9a3cc832385a9056ac63d3ca85b52a5d8e8f8674d8bfef)#ljy25exv",
            "hex": "4104cfe98830050eca6ecfd7b7a14e4699487fd907766e47c7a3e34cdf0d431e68df502d0afe2684491d7d9a3cc832385a9056ac63d3ca85b52a5d8e8f8674d8bfefac",
            "type": "pubkey"
          }
        }
      ],
      "hex": "01000000010000000000000000000000000000000000000000000000000000000000000000ffffffff0804ffff001d02b207ffffffff0100f2052a01000000434104cfe98830050eca6ecfd7b7a14e4699487fd907766e47c7a3e34cdf0d431e68df502d0afe2684491d7d9a3cc832385a9056ac63d3ca85b52a5d8e8f8674d8bfefac00000000"
    }
  ]
}