{
  "hash": "00000000254c84df3a90a1d25b54cc77c2e37f8cfb72041b7fe0d3c8db9e93b3",
  "confirmations": 47539,
  "height": 5559,
  "version": 1,
  "versionHex": "00000001",
  "merkleroot": "6325f08202978bd3ba0a610e8308965a269aecef889f6b030ce88aaa95d30a09",
  "time": 1235570572,
  "mediantime": 1235566394,
  "nonce": 2666507540,
  "bits": "1d00ffff",
  "difficulty": 1,
  "chainwork": "000000000000000000000000000000000000000000000000000015b815b815b8",
  "nTx": 1,
  "previousblockhash": "00000000ad3dc1d61f61785f8a32a0d8320fba6f391cc1416a68c1e96d950bcd",
  "nextblockhash": "0000000089d94663a7f2c146c6aabca394848d8b87bcf685f8b2018883c27327",
  "strippedsize": 216,
  "size": 216,
  "weight": 864,
  "tx": [
    {
      "txid": "6325f08202978bd3ba0a610e8308965a269aecef889f6b030ce88aaa95d30a09",
      "hash": "6325f08202978bd3ba0a610e8308965a269aecef889f6b030ce88aaa95d30a09",
      "version": 1,
      "size": 135,
      "vsize": 135,
      "weight": 540,
      "locktime": 0,
      "vin": [
        {
          "coinbase": "04ffff001d02b806",
          "sequence": 4294967295
        }
      ],
      "vout": [
        {
          "value": 50.0,
          "n": 0,
          "scriptPubKey": {
            "asm": "04a7d4f662a998e18eeda9e330275c96c7700c4824167510dd72ac876564c791eb72e51188bdc75baad6a19eaba5703ee92dfbd36fbed9ce98503feda071b94dc9 OP_CHECKSIG",
            "desc": "pk(04a7d4f662a998e18eeda9e330275c96c7700c4824167510dd72ac876564c791eb72e51188bdc75baad6a19eaba5703ee92dfbd36fbed9ce98503feda071b94dc9)#0kxllnjr",
            "hex": "4104a7d4f662a998e18eeda9e330275c96c7700c4824167510dd72ac876564c791eb72e51188bdc75baad6a19eaba5703ee92dfbd36fbed9ce98503feda071b94dc9ac",
            "type": "pubkey"
          }
        }
      ],
      "hex": "01000000010000000000000000000000000000000000000000000000000000000000000000ffffffff0804ffff001d02b806ffffffff0100f2052a01000000434104a7d4f662a998e18eeda9e330275c96c7700c4824167510dd72ac876564c791eb72e51188bdc75baad6a19eaba5703ee92dfbd36fbed9ce98503feda071b94dc9ac00000000"
    }
  ]
}