{
  "hash": "0000000094bb5fbd86492b3259b328ed1e5d497c272159c3c84e2637b968e6bb",
  "confirmations": 45872,
  "height": 7226,
  "version": 1,
  "versionHex": "00000001",
  "merkleroot": "6bdad8ee0bd3fbdd49732e8c97993d28525cebcc8605891163efe58c02f7434b",
  "time": 1236890383,
  "mediantime": 1236886482,
  "nonce": 3088228379,
  "bits": "1d00ffff",
  "difficulty": 1,
  "chainwork": "00000000000000000000000000000000000000000000000000001c3b1c3b1c3b",
  "nTx": 1,
  "previousblockhash": "00000000dca66fd8c83987a74bcfb3be14a6ad212e62953bd2595242b35d207a",
  "nextblockhash": "000000006f571a21a59130d0f6f22a5d6d49f145a84b09677812e364410bae0b",
  "strippedsize": 216,
  "size": 216,
  "weight": 864,
  "tx": [
    {
      "txid": "6bdad8ee0bd3fbdd49732e8c97993d28525cebcc8605891163efe58c02f7434b",
      "hash": "6bdad8ee0bd3fbdd49732e8c97993d28525cebcc8605891163efe58c02f7434b",
      "version": 1,
      "size": 135,
      "vsize": 135,
      "weight": 540,
      "locktime": 0,
      "vin": [
        {
          "coinbase": "04ffff001d021906",
          "sequence": 4294967295
        }
      ],
      "vout": [
        {
          "value": 50.0,
          "n": 0,
          "scriptPubKey": {
            "asm": "047b14b6fe3bd37999d0bf4a936cefa8333c6435e99925ae59fa908c5d9a775d984a78eb105631f5170ce311b1e752ef2a69181898a0921a6f121ca0711ae68f4f OP_CHECKSIG",
            "desc": "pk(047b14b6fe3bd37999d0bf4a936cefa8333c6435e99925ae59fa908c5d9a775d984a78eb105631f5170ce311b1e752ef2a69181898a0921a6f121ca0711ae68f4f)#xjw5dcg0",
            "hex": "41047b14b6fe3bd37999d0bf4a936cefa8333c6435e99925ae59fa908c5d9a775d984a78eb105631f5170ce311b1e752ef2a69181898a0921a6f121ca0711ae68f4fac",
            "type": "pubkey"
          }
        }
      ],
      "hex": "01000000010000000000000000000000000000000000000000000000000000000000000000ffffffff0804ffff001d021906ffffffff0100f2052a010000004341047b14b6fe3bd37999d0bf4a936cefa8333c6435e99925ae59fa908c5d9a775d984a78eb105631f5170ce311b1e752ef2a69181898a0921a6f121ca0711ae68f4fac00000000"
    }
  ]
}