{
  "hash": "00000000b83466f4f18fab25c16b2ebbefabae19bbf8f8dcfd8de0c2f5674b24",
  "confirmations": 43341,
  "height": 9757,
  "version": 1,
  "versionHex": "00000001",
  "merkleroot": "97d7e41c9198e5de0317e34d37248d9e0de20be076087dacdb504b98b4468832",
  "time": 1238822574,
  "mediantime": 1238818463,
  "nonce": 4143752495,
  "bits": "1d00ffff",
  "difficulty": 1,
  "chainwork": "0000000000000000000000000000000000000000000000000000261e261e261e",
  "nTx": 1,
  "previousblockhash": "00000000e6c6176e34c2a981c13a16ebd4db095e0f4baa3a4b0cd9f65bed793f",
  "nextblockhash": "00000000ba57d5da44caf8a2e232aa6a714302c8be048a956f6ee8cf8d1865b3",
  "strippedsize": 216,
  "size": 216,
  "weight": 864,
  "tx": [
    {
      "txid": "97d7e41c9198e5de0317e34d37248d9e0de20be076087dacdb504b98b4468832",
      "hash": "97d7e41c9198e5de0317e34d37248d9e0de20be076087dacdb504b98b4468832",
      "version": 1,
      "size": 135,
      "vsize": 135,
      "weight": 540,
      "locktime": 0,
      "vin": [
        {
          "coinbase": "04ffff001d02e709",
          "sequence": 4294967295
        }
      ],
      "vout": [
        {
          "value": 50.0,
          "n": 0,
          "scriptPubKey": {
            "asm": "045a823c021046acebaf467772bc84c7b11df62e3ffd0bbf9f6eba78bf0a1554f2cccb71929455f62e089b660bcd867617d1f494c62bf6ad50dc1fb46b3c45379a OP_CHECKSIG",
            "desc": "pk(045a823c021046acebaf467772bc84c7b11df62e3ffd0bbf9f6eba78bf0a1554f2cccb71929455f62e089b660bcd867617d1f494c62bf6ad50dc1fb46b3c45379a)#ffqxhwyc",
            "hex": "41045a823c021046acebaf467772bc84c7b11df62e3ffd0bbf9f6eba78bf0a1554f2cccb71929455f62e089b660bcd867617d1f494c62bf6ad50dc1fb46b3c45379aac",
            "type": "pubkey"
          }
        }
      ],
      "hex": "01000000010000000000000000000000000000000000000000000000000000000000000000ffffffff0804ffff001d02e709ffffffff0100f2052a010000004341045a823c021046acebaf467772bc84c7b11df62e3ffd0bbf9f6eba78bf0a1554f2cccb71929455f62e089b660bcd867617d1f494c62bf6ad50dc1fb46b3c45379aac00000000"
    }
  ]
}