{
  "hash": "00000000783f5a38b7644e2a4687cf79047bde32429a62441170dcaa34a8a38b",
  "confirmations": 49924,
  "height": 3174,
  "version": 1,
  "versionHex": "00000001",
  "merkleroot": "78c1b52e83bd4f83e4396c66ea640ca6e2155eb7d9c0544e442b3fb851355be1",
  "time": 1233882016,
  "mediantime": 1233879455,
  "nonce": 156768307,
  "bits": "1d00ffff",
  "difficulty": 1,
  "chainwork": "00000000000000000000000000000000000000000000000000000c670c670c67",
  "nTx": 1,
  "previousblockhash": "000000004d45f9c50da31b2c243c285e2468022343df15862d3c659bcfaf480c",
  "nextblockhash": "00000000170b8ee3d8c6a3c70a8049ed290b7d2105af86d2f177b28849193311",
  "strippedsize": 216,
  "size": 216,
  "weight": 864,
  "tx": [
    {
      "txid": "78c1b52e83bd4f83e4396c66ea640ca6e2155eb7d9c0544e442b3fb851355be1",
      "hash": "78c1b52e83bd4f83e4396c66ea640ca6e2155eb7d9c0544e442b3fb851355be1",
      "version": 1,
      "size": 135,
      "vsize": 135,
      "weight": 540,
      "locktime": 0,
      "vin": [
        {
          "coinbase": "04ffff001d02f204",
          "sequence": 4294967295
        }
      ],
      "vout": [
        {
          "value": 50.0,
          "n": 0,
          "scriptPubKey": {
            "asm": "04da39f35e8128dbf5033333f76e677a8b52c5f6243f103d3d3bcbd843d21663e7af58f14b28ad6dd259a3de450a3e9c526e8b02df9b8cc299c711b40904edfee9 OP_CHECKSIG",
            "desc": "pk(04da39f35e8128dbf5033333f76e677a8b52c5f6243f103d3d3bcbd843d21663e7af58f14b28ad6dd259a3de450a3e9c526e8b02df9b8cc299c711b40904edfee9)#3mq4cf0c",
            "hex": "4104da39f35e8128dbf5033333f76e677a8b52c5f6243f103d3d3bcbd843d21663e7af58f14b28ad6dd259a3de450a3e9c526e8b02df9b8cc299c711b40904edfee9ac",
            "type": "pubkey"
          }
        }
      ],
      "hex": "01000000010000000000000000000000000000000000000000000000000000000000000000ffffffff0804ffff001d02f204ffffffff0100f2052a01000000434104da39f35e8128dbf5033333f76e677a8b52c5f6243f103d3d3bcbd843d21663e7af58f14b28ad6dd259a3de450a3e9c526e8b02df9b8cc299c711b40904edfee9ac00000000"
    }
  ]
}