{
  "hash": "00000000e85458c1467176b04a65d5efaccfecaaab717b17a587b4069276e143",
  "confirmations": 52032,
  "height": 198,
  "version": 1,
  "versionHex": "00000001",
  "merkleroot": "8453119b70f9a2b31aa32c64b5cade25fea8b67fb3437cb90a2332463f03250c",
  "time": 1231752161,
  "mediantime": 1231747455,
  "nonce": 798850333,
  "bits": "1d00ffff",
  "difficulty": 1,
  "chainwork": "000000000000000000000000000000000000000000000000000000c700c700c7",
  "nTx": 1,
  "previousblockhash": "00000000ef271937f59286dc81d6b28196ff099bf266e12a3442c4b82c9db814",
  "nextblockhash": "00000000b7691ccc084542565697eca256e56bb7f67e560b48789db27f0468eb",
  "strippedsize": 215,
  "size": 215,
  "weight": 860,
  "tx": [
    {
      "txid": "8453119b70f9a2b31aa32c64b5cade25fea8b67fb3437cb90a2332463f03250c",
      "hash": "8453119b70f9a2b31aa32c64b5cade25fea8b67fb3437cb90a2332463f03250c",
      "version": 1,
      "size": 134,
      "vsize": 134,
      "weight": 536,
      "locktime": 0,
      "vin": [
        {
          "coinbase": "04ffff001d0124",
          "sequence": 4294967295
        }
      ],
      "vout": [
        {
          "value": 50.0,
          "n": 0,
          "scriptPubKey": {
            "asm": "040b91eef9fcaea65e13c2821ae70f1aa428e0c9f2406f371f862309247f8a842ad7d9b72c95d7f556da274c9afdf6cfd238be861e77cf760fd99de3f67dff9142 OP_CHECKSIG",
            "desc": "pk(040b91eef9fcaea65e13c2821ae70f1aa428e0c9f2406f371f862309247f8a842ad7d9b72c95d7f556da274c9afdf6cfd238be861e77cf760fd99de3f67dff9142)#rsgekc9g",
            "hex": "41040b91eef9fcaea65e13c2821ae70f1aa428e0c9f2406f371f862309247f8a842ad7d9b72c95d7f556da274c9afdf6cfd238be861e77cf760fd99de3f67dff9142ac",
            "type": "pubkey"
          }
        }
      ],
      "hex": "01000000010000000000000000000000000000000000000000000000000000000000000000ffffffff0704ffff001d0124ffffffff0100f2052a010000004341040b91eef9fcaea65e13c2821ae70f1aa428e0c9f2406f371f862309247f8a842ad7d9b72c95d7f556da274c9afdf6cfd238be861e77cf760fd99de3f67dff9142ac00000000"
    }
  ]
}