{
  "hash": "000000004ca7fba723ae087aa3f24661d8659eb8a76a650af846d13c6e9e4e9f",
  "confirmations": 44703,
  "height": 8395,
  "version": 1,
  "versionHex": "00000001",
  "merkleroot": "231eb2c9be4e21aa5dedecf8836e5baa9981f605955a6e5071033085ef784550",
  "time": 1237797117,
  "mediantime": 1237795123,
  "nonce": 32082476,
  "bits": "1d00ffff",
  "difficulty": 1,
  "chainwork": "000000000000000000000000000000000000000000000000000020cc20cc20cc",
  "nTx": 1,
  "previousblockhash": "000000009f8cbf3db9d1f6cd6e63f63e2263f076c627c85c6f0d20c2799e3ec7",
  "nextblockhash": "000000003833f8e889296873103ee9678c46971cdc3688d99a61b7b53fc7f9a4",
  "strippedsize": 216,
  "size": 216,
  "weight": 864,
  "tx": [
    {
      "txid": "231eb2c9be4e21aa5dedecf8836e5baa9981f605955a6e5071033085ef784550",
      "hash": "231eb2c9be4e21aa5dedecf8836e5baa9981f605955a6e5071033085ef784550",
      "version": 1,
      "size": 135,
      "vsize": 135,
      "weight": 540,
      "locktime": 0,
      "vin": [
        {
          "coinbase": "04ffff001d02e305",
          "sequence": 4294967295
        }
      ],
      "vout": [
        {
          "value": 50.0,
          "n": 0,
          "scriptPubKey": {
            "asm": "04589815cf6fcf05b5dc90b02c83eefb1d603265694af89b29891f781b3e0fa8f090f2ff2cf0b15b4be949a7025fb8d6a982306338ce02cbe86eabbb343a29a7b2 OP_CHECKSIG",
            "desc": "pk(04589815cf6fcf05b5dc90b02c83eefb1d603265694af89b29891f781b3e0fa8f090f2ff2cf0b15b4be949a7025fb8d6a982306338ce02cbe86eabbb343a29a7b2)#3lj9zz0c",
            "hex": "4104589815cf6fcf05b5dc90b02c83eefb1d603265694af89b29891f781b3e0fa8f090f2ff2cf0b15b4be949a7025fb8d6a982306338ce02cbe86eabbb343a29a7b2ac",
            "type": "pubkey"
          }
        }
      ],
      "hex": "01000000010000000000000000000000000000000000000000000000000000000000000000ffffffff0804ffff001d02e305ffffffff0100f2052a01000000434104589815cf6fcf05b5dc90b02c83eefb1d603265694af89b29891f781b3e0fa8f090f2ff2cf0b15b4be949a7025fb8d6a982306338ce02cbe86eabbb343a29a7b2ac00000000"
    }
  ]
}