{
  "hash": "00000000f13dc76883b73f677d3a63b85f75f580e404a390da41db64885d8ca2",
  "confirmations": 51115,
  "height": 1983,
  "version": 1,
  "versionHex": "00000001",
  "merkleroot": "67e2d4bd4b423dcb32c1518a1aa6ebfd32b79c2998fd469a379162dc77ca2286",
  "time": 1233031902,
  "mediantime": 1233029092,
  "nonce": 2822107392,
  "bits": "1d00ffff",
  "difficulty": 1,
  "chainwork": "000000000000000000000000000000000000000000000000000007c007c007c0",
  "nTx": 1,
  "previousblockhash": "00000000714040eab6eca36be421e51514f98b8759cd30a60b9565f875ca1b82",
  "nextblockhash": "00000000d46ffd1af121ae116adaba61d44fbb8ce96d75143016583052715b33",
  "strippedsize": 216,
  "size": 216,
  "weight": 864,
  "tx": [
    {
      "txid": "67e2d4bd4b423dcb32c1518a1aa6ebfd32b79c2998fd469a379162dc77ca2286",
      "hash": "67e2d4bd4b423dcb32c1518a1aa6ebfd32b79c2998fd469a379162dc77ca2286",
      "version": 1,
      "size": 135,
      "vsize": 135,
      "weight": 540,
      "locktime": 0,
      "vin": [
        {
          "coinbase": "04ffff001d023301",
          "sequence": 4294967295
        }
      ],
      "vout": [
        {
          "value": 50.0,
          "n": 0,
          "scriptPubKey": {
            "asm": "04a6f04f8993e82f1a7b899620649e86a96447cfdbf2f1529761ebf18b116b9b53e6bd9ca28d5b075d2ccb51850d8fce15d436bb980fed57126267bc385bab429e OP_CHECKSIG",
            "desc": "pk(04a6f04f8993e82f1a7b899620649e86a96447cfdbf2f1529761ebf18b116b9b53e6bd9ca28d5b075d2ccb51850d8fce15d436bb980fed57126267bc385bab429e)#n6cpfzwz",
            "hex": "4104a6f04f8993e82f1a7b899620649e86a96447cfdbf2f1529761ebf18b116b9b53e6bd9ca28d5b075d2ccb51850d8fce15d436bb980fed57126267bc385bab429eac",
            "type": "pubkey"
          }
        }
      ],
      "hex": "01000000010000000000000000000000000000000000000000000000000000000000000000ffffffff0804ffff001d023301ffffffff0100f2052a01000000434104a6f04f8993e82f1a7b899620649e86a96447cfdbf2f1529761ebf18b116b9b53e6bd9ca28d5b075d2ccb51850d8fce15d436bb980fed57126267bc385bab429eac00000000"
    }
  ]
}