{
  "hash": "00000000345b12eaca4c045bb0320d37fb34026b8b5f2e951c617e4b90bde130",
  "confirmations": 49838,
  "height": 3260,
  "version": 1,
  "versionHex": "00000001",
  "merkleroot": "b248a509751d40794d9f8e1421b7b63409fa2c01be445abf0eb73539a6478e91",
  "time": 1233942683,
  "mediantime": 1233939004,
  "nonce": 4143631651,
  "bits": "1d00ffff",
  "difficulty": 1,
  "chainwork": "00000000000000000000000000000000000000000000000000000cbd0cbd0cbd",
  "nTx": 1,
  "previousblockhash": "000000002b20e0a5b1e3f9476d567791e75e15be1bd15d2d5f81afcbe3b6b391",
  "nextblockhash": "00000000941b0df270986c8df97730b912e6dd19e2aa47b8ac6e994479afdd04",
  "strippedsize": 216,
  "size": 216,
  "weight": 864,
  "tx": [
    {
      "txid": "b248a509751d40794d9f8e1421b7b63409fa2c01be445abf0eb73539a6478e91",
      "hash": "b248a509751d40794d9f8e1421b7b63409fa2c01be445abf0eb73539a6478e91",
      "version": 1,
      "size": 135,
      "vsize": 135,
      "weight": 540,
      "locktime": 0,
      "vin": [
        {
          "coinbase": "04ffff001d029c03",
          "sequence": 4294967295
        }
      ],
      "vout": [
        {
          "value": 50.0,
          "n": 0,
          "scriptPubKey": {
            "asm": "04348578179044229d3dfefedf46a83b7aa31ab85cc623665e61af61004258520aacb884e420636f28aa08a6746debb869d0e80d5c87a505960c1bbab153bd1118 OP_CHECKSIG",
            "desc": "pk(04348578179044229d3dfefedf46a83b7aa31ab85cc623665e61af61004258520aacb884e420636f28aa08a6746debb869d0e80d5c87a505960c1bbab153bd1118)#c4vnexxu",
            "hex": "4104348578179044229d3dfefedf46a83b7aa31ab85cc623665e61af61004258520aacb884e420636f28aa08a6746debb869d0e80d5c87a505960c1bbab153bd1118ac",
            "type": "pubkey"
          }
        }
      ],
      "hex": "01000000010000000000000000000000000000000000000000000000000000000000000000ffffffff0804ffff001d029c03ffffffff0100f2052a01000000434104348578179044229d3dfefedf46a83b7aa31ab85cc623665e61af61004258520aacb884e420636f28aa08a6746debb869d0e80d5c87a505960c1bbab153bd1118ac00000000"
    }
  ]
}