{
  "hash": "000000006566568c459e2b3b65fffae27ecac3b43b7903a5adb2b94bb5836c33",
  "confirmations": 43927,
  "height": 9171,
  "version": 1,
  "versionHex": "00000001",
  "merkleroot": "92b4d11dd27f77ea1f0208d344aa3452fd965a6c9f0763bc9dfe0a155051402c",
  "time": 1238380252,
  "mediantime": 1238376393,
  "nonce": 2500279347,
  "bits": "1d00ffff",
  "difficulty": 1,
  "chainwork": "000000000000000000000000000000000000000000000000000023d423d423d4",
  "nTx": 1,
  "previousblockhash": "000000000588b4c76288c72d8855b588d5e96410cd8cbc62a1109215150b4be5",
  "nextblockhash": "0000000025bc5e1e48fa381ac934cbdf4c59345deb9fcffc7566de29da908317",
  "strippedsize": 216,
  "size": 216,
  "weight": 864,
  "tx": [
    {
      "txid": "92b4d11dd27f77ea1f0208d344aa3452fd965a6c9f0763bc9dfe0a155051402c",
      "hash": "92b4d11dd27f77ea1f0208d344aa3452fd965a6c9f0763bc9dfe0a155051402c",
      "version": 1,
      "size": 135,
      "vsize": 135,
      "weight": 540,
      "locktime": 0,
      "vin": [
        {
          "coinbase": "04ffff001d02b909",
          "sequence": 4294967295
        }
      ],
      "vout": [
        {
          "value": 50.0,
          "n": 0,
          "scriptPubKey": {
            "asm": "0485be250534f849395edf41aa56b00cf03d7248f5aabdf3211a914fed85eb6bec402bb5efc31c6c82dbabe91b16f55c2bfc1ae675febd7066947ac2110cb74108 OP_CHECKSIG",
            "desc": "pk(0485be250534f849395edf41aa56b00cf03d7248f5aabdf3211a914fed85eb6bec402bb5efc31c6c82dbabe91b16f55c2bfc1ae675febd7066947ac2110cb74108)#9klnjq7h",
            "hex": "410485be250534f849395edf41aa56b00cf03d7248f5aabdf3211a914fed85eb6bec402bb5efc31c6c82dbabe91b16f55c2bfc1ae675febd7066947ac2110cb74108ac",
            "type": "pubkey"
          }
        }
      ],
      "hex": "01000000010000000000000000000000000000000000000000000000000000000000000000ffffffff0804ffff001d02b909ffffffff0100f2052a0100000043410485be250534f849395edf41aa56b00cf03d7248f5aabdf3211a914fed85eb6bec402bb5efc31c6c82dbabe91b16f55c2bfc1ae675febd7066947ac2110cb74108ac00000000"
    }
  ]
}