{
  "hash": "00000000ab6a769ccb58e2fda8a4e93abdb145ef6cf762203e913fad6cb1a247",
  "confirmations": 51991,
  "height": 1107,
  "version": 1,
  "versionHex": "00000001",
  "merkleroot": "f0cecaea6c2946d1eeb791ef11784f074952ba6addac20411bf92647beb92552",
  "time": 1232427447,
  "mediantime": 1232425368,
  "nonce": 13597666,
  "bits": "1d00ffff",
  "difficulty": 1,
  "chainwork": "0000000000000000000000000000000000000000000000000000045404540454",
  "nTx": 1,
  "previousblockhash": "00000000dd27a015ea5d0eccb24914b3c49d676344b4dcd992a575ed413d2d60",
  "nextblockhash": "00000000d033c35663d5d35acac6551cb69ea976f0f9efa8d903049b0888ea23",
  "strippedsize": 216,
  "size": 216,
  "weight": 864,
  "tx": [
    {
      "txid": "f0cecaea6c2946d1eeb791ef11784f074952ba6addac20411bf92647beb92552",
      "hash": "f0cecaea6c2946d1eeb791ef11784f074952ba6addac20411bf92647beb92552",
      "version": 1,
      "size": 135,
      "vsize": 135,
      "weight": 540,
      "locktime": 0,
      "vin": [
        {
          "coinbase": "04ffff001d02c901",
          "sequence": 4294967295
        }
      ],
      "vout": [
        {
          "value": 50.0,
          "n": 0,
          "scriptPubKey": {
            "asm": "04ac66aae3ed81cbe643a6e1927c78a5d688a98437e44122ac9957bc5954edd8c0c79912665978108926fcff3add1d78b7497d1d395a6247efd515cfdc58988b1e OP_CHECKSIG",
            "desc": "pk(04ac66aae3ed81cbe643a6e1927c78a5d688a98437e44122ac9957bc5954edd8c0c79912665978108926fcff3add1d78b7497d1d395a6247efd515cfdc58988b1e)#duty05lh",
            "hex": "4104ac66aae3ed81cbe643a6e1927c78a5d688a98437e44122ac9957bc5954edd8c0c79912665978108926fcff3add1d78b7497d1d395a6247efd515cfdc58988b1eac",
            "type": "pubkey"
          }
        }
      ],
      "hex": "01000000010000000000000000000000000000000000000000000000000000000000000000ffffffff0804ffff001d02c901ffffffff0100f2052a01000000434104ac66aae3ed81cbe643a6e1927c78a5d688a98437e44122ac9957bc5954edd8c0c79912665978108926fcff3add1d78b7497d1d395a6247efd515cfdc58988b1eac00000000"
    }
  ]
}