{
  "hash": "0000000012b510fdff8ac104c294afbb0248834d1c89661ebcb35f88dbe8fe53",
  "confirmations": 46814,
  "height": 6284,
  "version": 1,
  "versionHex": "00000001",
  "merkleroot": "6cc52fb996a59d15e01201803052bf625bbbe5217baa380b2d6c5bc39d7a2298",
  "time": 1236157297,
  "mediantime": 1236153318,
  "nonce": 362557474,
  "bits": "1d00ffff",
  "difficulty": 1,
  "chainwork": "0000000000000000000000000000000000000000000000000000188d188d188d",
  "nTx": 1,
  "previousblockhash": "00000000562c91f26d71cde437b34680ee347feb9901b77fe19aa57d2654e037",
  "nextblockhash": "000000000477ad4733fe68d6f813c81110d8bb886af9ee892b37b06c1399f6fd",
  "strippedsize": 216,
  "size": 216,
  "weight": 864,
  "tx": [
    {
      "txid": "6cc52fb996a59d15e01201803052bf625bbbe5217baa380b2d6c5bc39d7a2298",
      "hash": "6cc52fb996a59d15e01201803052bf625bbbe5217baa380b2d6c5bc39d7a2298",
      "version": 1,
      "size": 135,
      "vsize": 135,
      "weight": 540,
      "locktime": 0,
      "vin": [
        {
          "coinbase": "04ffff001d02150a",
          "sequence": 4294967295
        }
      ],
      "vout": [
        {
          "value": 50.0,
          "n": 0,
          "scriptPubKey": {
            "asm": "04c81047054b1587b505fde1971921da939ec2ad6be7a126b53ef85152b9db5157c92ef04fc39ff1d527fa9384117b8c1aaed3095b06777f10cef5729b910f3385 OP_CHECKSIG",
            "desc": "pk(04c81047054b1587b505fde1971921da939ec2ad6be7a126b53ef85152b9db5157c92ef04fc39ff1d527fa9384117b8c1aaed3095b06777f10cef5729b910f3385)#6rr30zwe",
            "hex": "4104c81047054b1587b505fde1971921da939ec2ad6be7a126b53ef85152b9db5157c92ef04fc39ff1d527fa9384117b8c1aaed3095b06777f10cef5729b910f3385ac",
            "type": "pubkey"
          }
        }
      ],
      "hex": "01000000010000000000000000000000000000000000000000000000000000000000000000ffffffff0804ffff001d02150affffffff0100f2052a01000000434104c81047054b1587b505fde1971921da939ec2ad6be7a126b53ef85152b9db5157c92ef04fc39ff1d527fa9384117b8c1aaed3095b06777f10cef5729b910f3385ac00000000"
    }
  ]
}