{
  "hash": "00000000903d49e3de149aa8aca76b7d74cdb9370c2c1781fa9bdb76aed4b13b",
  "confirmations": 45223,
  "height": 7875,
  "version": 1,
  "versionHex": "00000001",
  "merkleroot": "6536d30384be74df8f7e42881fea1224f7d2d40cd283328fdd6be1e07a31c6a6",
  "time": 1237373359,
  "mediantime": 1237367207,
  "nonce": 1991356677,
  "bits": "1d00ffff",
  "difficulty": 1,
  "chainwork": "00000000000000000000000000000000000000000000000000001ec41ec41ec4",
  "nTx": 1,
  "previousblockhash": "00000000c110e75e7bd5ecd29ecf1d4f60cf556fc5f2d3a3c02b406e85036e9a",
  "nextblockhash": "0000000026e4bbcf491b1bbf1778ca07bcf144c5836642b42bcd2c5db563f3b1",
  "strippedsize": 216,
  "size": 216,
  "weight": 864,
  "tx": [
    {
      "txid": "6536d30384be74df8f7e42881fea1224f7d2d40cd283328fdd6be1e07a31c6a6",
      "hash": "6536d30384be74df8f7e42881fea1224f7d2d40cd283328fdd6be1e07a31c6a6",
      "version": 1,
      "size": 135,
      "vsize": 135,
      "weight": 540,
      "locktime": 0,
      "vin": [
        {
          "coinbase": "04ffff001d021607",
          "sequence": 4294967295
        }
      ],
      "vout": [
        {
          "value": 50.0,
          "n": 0,
          "scriptPubKey": {
            "asm": "04928aa0e8a7e10f8c6ddc4e51ef0959086e0e9e282c384bb59055b1997e680325e8d6b36a964abedc9932c5bcaa609e8fd63721e5c8692c816bc1ae2d6cb917e2 OP_CHECKSIG",
            "desc": "pk(04928aa0e8a7e10f8c6ddc4e51ef0959086e0e9e282c384bb59055b1997e680325e8d6b36a964abedc9932c5bcaa609e8fd63721e5c8692c816bc1ae2d6cb917e2)#kf95r5nx",
            "hex": "4104928aa0e8a7e10f8c6ddc4e51ef0959086e0e9e282c384bb59055b1997e680325e8d6b36a964abedc9932c5bcaa609e8fd63721e5c8692c816bc1ae2d6cb917e2ac",
            "type": "pubkey"
          }
        }
      ],
      "hex": "01000000010000000000000000000000000000000000000000000000000000000000000000ffffffff0804ffff001d021607ffffffff0100f2052a01000000434104928aa0e8a7e10f8c6ddc4e51ef0959086e0e9e282c384bb59055b1997e680325e8d6b36a964abedc9932c5bcaa609e8fd63721e5c8692c816bc1ae2d6cb917e2ac00000000"
    }
  ]
}