{
  "hash": "00000000be3b857e6a25ae86dd9ccca0bac407d6bdd7d2879dee9987b5dc1653",
  "confirmations": 49326,
  "height": 3772,
  "version": 1,
  "versionHex": "00000001",
  "merkleroot": "4f2ce28f3dacf699df9e7c82294ddf1b5944c9e4a3221e8cb179116b9fc270cd",
  "time": 1234287167,
  "mediantime": 1234283550,
  "nonce": 48300122,
  "bits": "1d00ffff",
  "difficulty": 1,
  "chainwork": "00000000000000000000000000000000000000000000000000000ebd0ebd0ebd",
  "nTx": 1,
  "previousblockhash": "0000000083de75d9ccf21d9b4485d3cbdbe51c84e771c92e35ca6ac9ef7f1d89",
  "nextblockhash": "000000006ed67fffd1fa1094b146ef28eb6666e707f89cae32cb8089e65f0de6",
  "strippedsize": 216,
  "size": 216,
  "weight": 864,
  "tx": [
    {
      "txid": "4f2ce28f3dacf699df9e7c82294ddf1b5944c9e4a3221e8cb179116b9fc270cd",
      "hash": "4f2ce28f3dacf699df9e7c82294ddf1b5944c9e4a3221e8cb179116b9fc270cd",
      "version": 1,
      "size": 135,
      "vsize": 135,
      "weight": 540,
      "locktime": 0,
      "vin": [
        {
          "coinbase": "04ffff001d02a200",
          "sequence": 4294967295
        }
      ],
      "vout": [
        {
          "value": 50.0,
          "n": 0,
          "scriptPubKey": {
            "asm": "0464ba13c0d20a82ad225938d4cd0cf3b1c2badb3be1ea48d73fbbd360fa27b89b328c13819fd4fc1a97d956c536e866b6be1c3f1b10a275da53abf633dbdf2c79 OP_CHECKSIG",
            "desc": "pk(0464ba13c0d20a82ad225938d4cd0cf3b1c2badb3be1ea48d73fbbd360fa27b89b328c13819fd4fc1a97d956c536e866b6be1c3f1b10a275da53abf633dbdf2c79)#t6pa97xk",
            "hex": "410464ba13c0d20a82ad225938d4cd0cf3b1c2badb3be1ea48d73fbbd360fa27b89b328c13819fd4fc1a97d956c536e866b6be1c3f1b10a275da53abf633dbdf2c79ac",
            "type": "pubkey"
          }
        }
      ],
      "hex": "01000000010000000000000000000000000000000000000000000000000000000000000000ffffffff0804ffff001d02a200ffffffff0100f2052a0100000043410464ba13c0d20a82ad225938d4cd0cf3b1c2badb3be1ea48d73fbbd360fa27b89b328c13819fd4fc1a97d956c536e866b6be1c3f1b10a275da53abf633dbdf2c79ac00000000"
    }
  ]
}