{
  "hash": "00000000e5da5e4e1d7a614c5a8ea1adcbf01e7bf3fb4034a71b059338097b47",
  "confirmations": 44429,
  "height": 8669,
  "version": 1,
  "versionHex": "00000001",
  "merkleroot": "68de6a8d68c7db498ff5fe8ddf81c5f4916b30209bfef1f6b7ab281b34b49238",
  "time": 1237999477,
  "mediantime": 1237996122,
  "nonce": 1578304540,
  "bits": "1d00ffff",
  "difficulty": 1,
  "chainwork": "000000000000000000000000000000000000000000000000000021de21de21de",
  "nTx": 1,
  "previousblockhash": "000000002b35e95717d0a6ef2ce84e9ca559d912a9452f661c8b9671590e1933",
  "nextblockhash": "00000000dbe57169cf2498176385c693c38becd8a1f0a703a4996307d3ec0b7b",
  "strippedsize": 215,
  "size": 215,
  "weight": 860,
  "tx": [
    {
      "txid": "68de6a8d68c7db498ff5fe8ddf81c5f4916b30209bfef1f6b7ab281b34b49238",
      "hash": "68de6a8d68c7db498ff5fe8ddf81c5f4916b30209bfef1f6b7ab281b34b49238",
      "version": 1,
      "size": 134,
      "vsize": 134,
      "weight": 536,
      "locktime": 0,
      "vin": [
        {
          "coinbase": "04ffff001d0159",
          "sequence": 4294967295
        }
      ],
      "vout": [
        {
          "value": 50.0,
          "n": 0,
          "scriptPubKey": {
            "asm": "045dedb02b8bf9c845ab45343a137587f41e632ce5d2105c8bc5f94a59882b2b1c298475a1002a11986f449e81612a5fa39d847ed67db8ca4e6476aaa9acd0ef21 OP_CHECKSIG",
            "desc": "pk(045dedb02b8bf9c845ab45343a137587f41e632ce5d2105c8bc5f94a59882b2b1c298475a1002a11986f449e81612a5fa39d847ed67db8ca4e6476aaa9acd0ef21)#hqk7elxa",
            "hex": "41045dedb02b8bf9c845ab45343a137587f41e632ce5d2105c8bc5f94a59882b2b1c298475a1002a11986f449e81612a5fa39d847ed67db8ca4e6476aaa9acd0ef21ac",
            "type": "pubkey"
          }
        }
      ],
      "hex": "01000000010000000000000000000000000000000000000000000000000000000000000000ffffffff0704ffff001d0159ffffffff0100f2052a010000004341045dedb02b8bf9c845ab45343a137587f41e632ce5d2105c8bc5f94a59882b2b1c298475a1002a11986f449e81612a5fa39d847ed67db8ca4e6476aaa9acd0ef21ac00000000"
    }
  ]
}