{
  "hash": "000000002457c6c89c31b8cdbdcccf4ba884dbe7d7fce2a6ccd2ee7e75c122f6",
  "confirmations": 51216,
  "height": 1882,
  "version": 1,
  "versionHex": "00000001",
  "merkleroot": "53e0eb2665b71d015d3a11c5e4c04df1eb2fa007dbb6d1efb956430ac98d71dd",
  "time": 1232936568,
  "mediantime": 1232934047,
  "nonce": 3491218722,
  "bits": "1d00ffff",
  "difficulty": 1,
  "chainwork": "0000000000000000000000000000000000000000000000000000075b075b075b",
  "nTx": 1,
  "previousblockhash": "00000000c0577d1bd0329e645f7f6f79d224bb3e6af8cd480c1210010ce08680",
  "nextblockhash": "00000000feeb0d4b6494e4ccd20aef37fb9d93fb45a1feee644c2aaa33ebda4a",
  "strippedsize": 216,
  "size": 216,
  "weight": 864,
  "tx": [
    {
      "txid": "53e0eb2665b71d015d3a11c5e4c04df1eb2fa007dbb6d1efb956430ac98d71dd",
      "hash": "53e0eb2665b71d015d3a11c5e4c04df1eb2fa007dbb6d1efb956430ac98d71dd",
      "version": 1,
      "size": 135,
      "vsize": 135,
      "weight": 540,
      "locktime": 0,
      "vin": [
        {
          "coinbase": "04ffff001d020d05",
          "sequence": 4294967295
        }
      ],
      "vout": [
        {
          "value": 50.0,
          "n": 0,
          "scriptPubKey": {
            "asm": "0492aa8d898a8523418f51d9bb9fbf27ca7fc30c3900e44b8888c03fd6ae824a2a2d27cb24081a8218010ea0053b9349deb7e8c147ef6df51a7c39e9e615ad80ae OP_CHECKSIG",
            "desc": "pk(0492aa8d898a8523418f51d9bb9fbf27ca7fc30c3900e44b8888c03fd6ae824a2a2d27cb24081a8218010ea0053b9349deb7e8c147ef6df51a7c39e9e615ad80ae)#3a8yxvw8",
            "hex": "410492aa8d898a8523418f51d9bb9fbf27ca7fc30c3900e44b8888c03fd6ae824a2a2d27cb24081a8218010ea0053b9349deb7e8c147ef6df51a7c39e9e615ad80aeac",
            "type": "pubkey"
          }
        }
      ],
      "hex": "01000000010000000000000000000000000000000000000000000000000000000000000000ffffffff0804ffff001d020d05ffffffff0100f2052a0100000043410492aa8d898a8523418f51d9bb9fbf27ca7fc30c3900e44b8888c03fd6ae824a2a2d27cb24081a8218010ea0053b9349deb7e8c147ef6df51a7c39e9e615ad80aeac00000000"
    }
  ]
}