{
  "hash": "00000000e109937eede65b29d2c908983b2a951bac8fc6f4d95d4d8d0a3afbb9",
  "confirmations": 47599,
  "height": 5499,
  "version": 1,
  "versionHex": "00000001",
  "merkleroot": "bb68b781fe193c00fad8a18d119f621153991e675aec57fb1b252bfe7db87a32",
  "time": 1235521699,
  "mediantime": 1235516607,
  "nonce": 2432993793,
  "bits": "1d00ffff",
  "difficulty": 1,
  "chainwork": "0000000000000000000000000000000000000000000000000000157c157c157c",
  "nTx": 1,
  "previousblockhash": "0000000015a65a0dc19b34aedfe8c450254c226ed879fc93ade23f770d6e9df9",
  "nextblockhash": "0000000032f2fbfb5849e57629bb28ff2e79d4e231fddb25b183a2b13ff2d123",
  "strippedsize": 216,
  "size": 216,
  "weight": 864,
  "tx": [
    {
      "txid": "bb68b781fe193c00fad8a18d119f621153991e675aec57fb1b252bfe7db87a32",
      "hash": "bb68b781fe193c00fad8a18d119f621153991e675aec57fb1b252bfe7db87a32",
      "version": 1,
      "size": 135,
      "vsize": 135,
      "weight": 540,
      "locktime": 0,
      "vin": [
        {
          "coinbase": "04ffff001d02a405",
          "sequence": 4294967295
        }
      ],
      "vout": [
        {
          "value": 50.0,
          "n": 0,
          "scriptPubKey": {
            "asm": "042fb53e972b91949d6589f6adc7b16422fb3b0e1db535bb4b81a0f1bb0a93172896bee721a44d5099b68bdc2d3e4f1903012265ddbdbdf4f280074553b5583b87 OP_CHECKSIG",
            "desc": "pk(042fb53e972b91949d6589f6adc7b16422fb3b0e1db535bb4b81a0f1bb0a93172896bee721a44d5099b68bdc2d3e4f1903012265ddbdbdf4f280074553b5583b87)#kz5qp5m7",
            "hex": "41042fb53e972b91949d6589f6adc7b16422fb3b0e1db535bb4b81a0f1bb0a93172896bee721a44d5099b68bdc2d3e4f1903012265ddbdbdf4f280074553b5583b87ac",
            "type": "pubkey"
          }
        }
      ],
      "hex": "01000000010000000000000000000000000000000000000000000000000000000000000000ffffffff0804ffff001d02a405ffffffff0100f2052a010000004341042fb53e972b91949d6589f6adc7b16422fb3b0e1db535bb4b81a0f1bb0a93172896bee721a44d5099b68bdc2d3e4f1903012265ddbdbdf4f280074553b5583b87ac00000000"
    }
  ]
}