{
  "hash": "000000005788e703cf75547186956e4101a27e0feb84c71bd17ca301ba3d1556",
  "confirmations": 43901,
  "height": 9197,
  "version": 1,
  "versionHex": "00000001",
  "merkleroot": "77d7c37df0f2daeeb418e688ca70a1e025d2bef265e4ecf2311af73058944627",
  "time": 1238396611,
  "mediantime": 1238393741,
  "nonce": 17803254,
  "bits": "1d00ffff",
  "difficulty": 1,
  "chainwork": "000000000000000000000000000000000000000000000000000023ee23ee23ee",
  "nTx": 1,
  "previousblockhash": "0000000070e3f1d88cbbcee507d5a04027904aa61118bcd2cabd91a0f059275c",
  "nextblockhash": "00000000723ba5be5e2a36215ed4f00d1b61e005a3d0b1e529b74501e637e069",
  "strippedsize": 216,
  "size": 216,
  "weight": 864,
  "tx": [
    {
      "txid": "77d7c37df0f2daeeb418e688ca70a1e025d2bef265e4ecf2311af73058944627",
      "hash": "77d7c37df0f2daeeb418e688ca70a1e025d2bef265e4ecf2311af73058944627",
      "version": 1,
      "size": 135,
      "vsize": 135,
      "weight": 540,
      "locktime": 0,
      "vin": [
        {
          "coinbase": "04ffff001d02c000",
          "sequence": 4294967295
        }
      ],
      "vout": [
        {
          "value": 50.0,
          "n": 0,
          "scriptPubKey": {
            "asm": "0454149141754be751f5720171d7756531d7473c388d9f30c8a4ce813cc83c0b6741915b0015bbc616ddb14c701b5044d832e70747b6c1f1284bb75f026fd1bd2b OP_CHECKSIG",
            "desc": "pk(0454149141754be751f5720171d7756531d7473c388d9f30c8a4ce813cc83c0b6741915b0015bbc616ddb14c701b5044d832e70747b6c1f1284bb75f026fd1bd2b)#vspm6gjc",
            "hex": "410454149141754be751f5720171d7756531d7473c388d9f30c8a4ce813cc83c0b6741915b0015bbc616ddb14c701b5044d832e70747b6c1f1284bb75f026fd1bd2bac",
            "type": "pubkey"
          }
        }
      ],
      "hex": "01000000010000000000000000000000000000000000000000000000000000000000000000ffffffff0804ffff001d02c000ffffffff0100f2052a0100000043410454149141754be751f5720171d7756531d7473c388d9f30c8a4ce813cc83c0b6741915b0015bbc616ddb14c701b5044d832e70747b6c1f1284bb75f026fd1bd2bac00000000"
    }
  ]
}