{
  "hash": "00000000c3015f3cc282595568401ed7ed512f399fc6fa7a33ed5de63d5abe83",
  "confirmations": 44653,
  "height": 8445,
  "version": 1,
  "versionHex": "00000001",
  "merkleroot": "7b5a5fa099f24d8debc7bf8f671ac920d0c08ce51f15c485af536f9d09cbc839",
  "time": 1237826929,
  "mediantime": 1237824803,
  "nonce": 1726167350,
  "bits": "1d00ffff",
  "difficulty": 1,
  "chainwork": "000000000000000000000000000000000000000000000000000020fe20fe20fe",
  "nTx": 1,
  "previousblockhash": "00000000f097d15d4a19c0d1d9ebd4847f92c56c1d7e773d01dcff0aabc71e2b",
  "nextblockhash": "00000000479f42a88e1cb6c9fc39b2f7e42baa50685624eddde3bd517cf323fe",
  "strippedsize": 216,
  "size": 216,
  "weight": 864,
  "tx": [
    {
      "txid": "7b5a5fa099f24d8debc7bf8f671ac920d0c08ce51f15c485af536f9d09cbc839",
      "hash": "7b5a5fa099f24d8debc7bf8f671ac920d0c08ce51f15c485af536f9d09cbc839",
      "version": 1,
      "size": 135,
      "vsize": 135,
      "weight": 540,
      "locktime": 0,
      "vin": [
        {
          "coinbase": "04ffff001d02bd06",
          "sequence": 4294967295
        }
      ],
      "vout": [
        {
          "value": 50.0,
          "n": 0,
          "scriptPubKey": {
            "asm": "04cdfe97990f2a1af3e26d9042a436f7ed3129d128d7227b1955edbf44f65cdfe4e604bb51e9168f618b52cc33854bf325d772955b0762698b65acd16284eac0f5 OP_CHECKSIG",
            "desc": "pk(04cdfe97990f2a1af3e26d9042a436f7ed3129d128d7227b1955edbf44f65cdfe4e604bb51e9168f618b52cc33854bf325d772955b0762698b65acd16284eac0f5)#qtvucdcz",
            "hex": "4104cdfe97990f2a1af3e26d9042a436f7ed3129d128d7227b1955edbf44f65cdfe4e604bb51e9168f618b52cc33854bf325d772955b0762698b65acd16284eac0f5ac",
            "type": "pubkey"
          }
        }
      ],
      "hex": "01000000010000000000000000000000000000000000000000000000000000000000000000ffffffff0804ffff001d02bd06ffffffff0100f2052a01000000434104cdfe97990f2a1af3e26d9042a436f7ed3129d128d7227b1955edbf44f65cdfe4e604bb51e9168f618b52cc33854bf325d772955b0762698b65acd16284eac0f5ac00000000"
    }
  ]
}