{
  "hash": "00000000c256b2fa2ac9936f8f78dc8a0d88320a6bb0803ae30f82406af13955",
  "confirmations": 52091,
  "height": 365,
  "version": 1,
  "versionHex": "00000001",
  "merkleroot": "63722234d931137e97fbd0e76ce4d0b5493cdfd6296fa1b534646c3e61480946",
  "time": 1231875837,
  "mediantime": 1231872582,
  "nonce": 1380805661,
  "bits": "1d00ffff",
  "difficulty": 1,
  "chainwork": "0000000000000000000000000000000000000000000000000000016e016e016e",
  "nTx": 1,
  "previousblockhash": "00000000ad29c3caf774552a757b68a54b55cd0b9ff0bb2eda4c9d0409b26c0d",
  "nextblockhash": "000000009342a7b5d434088a48d94dc05ca2b8543f11d8042c4fa2a32f3cfad5",
  "strippedsize": 216,
  "size": 216,
  "weight": 864,
  "tx": [
    {
      "txid": "63722234d931137e97fbd0e76ce4d0b5493cdfd6296fa1b534646c3e61480946",
      "hash": "63722234d931137e97fbd0e76ce4d0b5493cdfd6296fa1b534646c3e61480946",
      "version": 1,
      "size": 135,
      "vsize": 135,
      "weight": 540,
      "locktime": 0,
      "vin": [
        {
          "coinbase": "04ffff001d02cb01",
          "sequence": 4294967295
        }
      ],
      "vout": [
        {
          "value": 50.0,
          "n": 0,
          "scriptPubKey": {
            "asm": "0448cacb52dc017abd7d6124755e3093f2daca88290766a7add8cc68ccc2d370378eb5e58a1499b3ce1e5504942d5cc634c2c2e073e1faf2c512adde78b3519592 OP_CHECKSIG",
            "desc": "pk(0448cacb52dc017abd7d6124755e3093f2daca88290766a7add8cc68ccc2d370378eb5e58a1499b3ce1e5504942d5cc634c2c2e073e1faf2c512adde78b3519592)#7d48mce0",
            "hex": "410448cacb52dc017abd7d6124755e3093f2daca88290766a7add8cc68ccc2d370378eb5e58a1499b3ce1e5504942d5cc634c2c2e073e1faf2c512adde78b3519592ac",
            "type": "pubkey"
          }
        }
      ],
      "hex": "01000000010000000000000000000000000000000000000000000000000000000000000000ffffffff0804ffff001d02cb01ffffffff0100f2052a0100000043410448cacb52dc017abd7d6124755e3093f2daca88290766a7add8cc68ccc2d370378eb5e58a1499b3ce1e5504942d5cc634c2c2e073e1faf2c512adde78b3519592ac00000000"
    }
  ]
}