{
  "hash": "00000000ca754770850fe481031a1789a0ad83d481c123575fc6fd484c3c07df",
  "confirmations": 48663,
  "height": 4435,
  "version": 1,
  "versionHex": "00000001",
  "merkleroot": "0b852b5f9440fdb1db40ecfe23a71a2c3b42b54de23e50c537607aee9528fead",
  "time": 1234738239,
  "mediantime": 1234734979,
  "nonce": 60474262,
  "bits": "1d00ffff",
  "difficulty": 1,
  "chainwork": "0000000000000000000000000000000000000000000000000000115411541154",
  "nTx": 1,
  "previousblockhash": "00000000295b0650797a3c7a8fa5b4df1bd61a589c3d8048312b8f8e75cf67c3",
  "nextblockhash": "0000000000e01d798e318d3677cbb4d6f642833da65162472a6513c5a9cae5b2",
  "strippedsize": 215,
  "size": 215,
  "weight": 860,
  "tx": [
    {
      "txid": "0b852b5f9440fdb1db40ecfe23a71a2c3b42b54de23e50c537607aee9528fead",
      "hash": "0b852b5f9440fdb1db40ecfe23a71a2c3b42b54de23e50c537607aee9528fead",
      "version": 1,
      "size": 134,
      "vsize": 134,
      "weight": 536,
      "locktime": 0,
      "vin": [
        {
          "coinbase": "04ffff001d0120",
          "sequence": 4294967295
        }
      ],
      "vout": [
        {
          "value": 50.0,
          "n": 0,
          "scriptPubKey": {
            "asm": "046b86df4727d32787a1f3027cf7cfed0444de56cc778c91fe419ad24b28e6251f8e1a6cc41eb7b803548d7365bfae2737e84fa0417d49a4612be92d834c3ffcc0 OP_CHECKSIG",
            "desc": "pk(046b86df4727d32787a1f3027cf7cfed0444de56cc778c91fe419ad24b28e6251f8e1a6cc41eb7b803548d7365bfae2737e84fa0417d49a4612be92d834c3ffcc0)#43h9gsqv",
            "hex": "41046b86df4727d32787a1f3027cf7cfed0444de56cc778c91fe419ad24b28e6251f8e1a6cc41eb7b803548d7365bfae2737e84fa0417d49a4612be92d834c3ffcc0ac",
            "type": "pubkey"
          }
        }
      ],
      "hex": "01000000010000000000000000000000000000000000000000000000000000000000000000ffffffff0704ffff001d0120ffffffff0100f2052a010000004341046b86df4727d32787a1f3027cf7cfed0444de56cc778c91fe419ad24b28e6251f8e1a6cc41eb7b803548d7365bfae2737e84fa0417d49a4612be92d834c3ffcc0ac00000000"
    }
  ]
}