{
  "hash": "000000007a97861a5765941225104fc424dc76dcd95f2d84bae78beff16ba484",
  "confirmations": 52344,
  "height": 754,
  "version": 1,
  "versionHex": "00000001",
  "merkleroot": "0de403b33004fd1f8dd9e7ad35417c07f5e7cfc6824b0e27e877a0bc492ae8fc",
  "time": 1232154634,
  "mediantime": 1232151146,
  "nonce": 2411849525,
  "bits": "1d00ffff",
  "difficulty": 1,
  "chainwork": "000000000000000000000000000000000000000000000000000002f302f302f3",
  "nTx": 1,
  "previousblockhash": "0000000017a3a3cbc16f12113fe4d2c3f315967767edf9d3dfea7126b10a9589",
  "nextblockhash": "00000000232f4805b3516eb9361c2e0e0cc3fd9ebbdcbb969e2a5b117a8bc28c",
  "strippedsize": 216,
  "size": 216,
  "weight": 864,
  "tx": [
    {
      "txid": "0de403b33004fd1f8dd9e7ad35417c07f5e7cfc6824b0e27e877a0bc492ae8fc",
      "hash": "0de403b33004fd1f8dd9e7ad35417c07f5e7cfc6824b0e27e877a0bc492ae8fc",
      "version": 1,
      "size": 135,
      "vsize": 135,
      "weight": 540,
      "locktime": 0,
      "vin": [
        {
          "coinbase": "04ffff001d02aa00",
          "sequence": 4294967295
        }
      ],
      "vout": [
        {
          "value": 50.0,
          "n": 0,
          "scriptPubKey": {
            "asm": "04231fa201dfc12f20343a710a61ec09667e502c7e4a3757e7bcff24f313fd81a180b63129d790c44598a816edb390b9c56a245b5cbcc8fa3a1275ae0ab689daa9 OP_CHECKSIG",
            "desc": "pk(04231fa201dfc12f20343a710a61ec09667e502c7e4a3757e7bcff24f313fd81a180b63129d790c44598a816edb390b9c56a245b5cbcc8fa3a1275ae0ab689daa9)#357gtcrc",
            "hex": "4104231fa201dfc12f20343a710a61ec09667e502c7e4a3757e7bcff24f313fd81a180b63129d790c44598a816edb390b9c56a245b5cbcc8fa3a1275ae0ab689daa9ac",
            "type": "pubkey"
          }
        }
      ],
      "hex": "01000000010000000000000000000000000000000000000000000000000000000000000000ffffffff0804ffff001d02aa00ffffffff0100f2052a01000000434104231fa201dfc12f20343a710a61ec09667e502c7e4a3757e7bcff24f313fd81a180b63129d790c44598a816edb390b9c56a245b5cbcc8fa3a1275ae0ab689daa9ac00000000"
    }
  ]
}