{
  "hash": "00000000b089d36f578ad9e419852345cdd87752817b25b39708a8035c4069e6",
  "confirmations": 43511,
  "height": 9587,
  "version": 1,
  "versionHex": "00000001",
  "merkleroot": "6aa87b5922f65332e621720f38cc67db7a92889e1eee79b77a09599a39323df3",
  "time": 1238693631,
  "mediantime": 1238686051,
  "nonce": 148821774,
  "bits": "1d00ffff",
  "difficulty": 1,
  "chainwork": "0000000000000000000000000000000000000000000000000000257425742574",
  "nTx": 1,
  "previousblockhash": "00000000c1e4c451d7f0f978f26904d27a578c9efb82f669e39afac8d97fdefa",
  "nextblockhash": "000000004b94101e16825742055109f51c7fc8966c6918e48416cf95bf750580",
  "strippedsize": 216,
  "size": 216,
  "weight": 864,
  "tx": [
    {
      "txid": "6aa87b5922f65332e621720f38cc67db7a92889e1eee79b77a09599a39323df3",
      "hash": "6aa87b5922f65332e621720f38cc67db7a92889e1eee79b77a09599a39323df3",
      "version": 1,
      "size": 135,
      "vsize": 135,
      "weight": 540,
      "locktime": 0,
      "vin": [
        {
          "coinbase": "04ffff001d025f07",
          "sequence": 4294967295
        }
      ],
      "vout": [
        {
          "value": 50.0,
          "n": 0,
          "scriptPubKey": {
            "asm": "047f64378c512b8b8de9db7aba1ad425e991256ee4e8a0b18b4997b1c9e2c0b11d54e405edabcd65fa65361f7d8f33b7728dabd0ee4ea206093d2d040ba28b123a OP_CHECKSIG",
            "desc": "pk(047f64378c512b8b8de9db7aba1ad425e991256ee4e8a0b18b4997b1c9e2c0b11d54e405edabcd65fa65361f7d8f33b7728dabd0ee4ea206093d2d040ba28b123a)#w5auqeg2",
            "hex": "41047f64378c512b8b8de9db7aba1ad425e991256ee4e8a0b18b4997b1c9e2c0b11d54e405edabcd65fa65361f7d8f33b7728dabd0ee4ea206093d2d040ba28b123aac",
            "type": "pubkey"
          }
        }
      ],
      "hex": "01000000010000000000000000000000000000000000000000000000000000000000000000ffffffff0804ffff001d025f07ffffffff0100f2052a010000004341047f64378c512b8b8de9db7aba1ad425e991256ee4e8a0b18b4997b1c9e2c0b11d54e405edabcd65fa65361f7d8f33b7728dabd0ee4ea206093d2d040ba28b123aac00000000"
    }
  ]
}