{
  "hash": "0000000068219b0408068df138c21a953f6e697af66ae95514e001b70f052efc",
  "confirmations": 50426,
  "height": 2672,
  "version": 1,
  "versionHex": "00000001",
  "merkleroot": "87cf07e64891972f6e96890de916e13f970bcdd17c234ff4398c7280e8bb115e",
  "time": 1233543677,
  "mediantime": 1233538781,
  "nonce": 117584088,
  "bits": "1d00ffff",
  "difficulty": 1,
  "chainwork": "00000000000000000000000000000000000000000000000000000a710a710a71",
  "nTx": 1,
  "previousblockhash": "00000000136c18e706a94aee3ca40c914d4ba806e0606a42c7e951c79cbc8f86",
  "nextblockhash": "0000000050d0e11320e855914e531fd47c6511774c1a5f7167dd17a698adebe3",
  "strippedsize": 216,
  "size": 216,
  "weight": 864,
  "tx": [
    {
      "txid": "87cf07e64891972f6e96890de916e13f970bcdd17c234ff4398c7280e8bb115e",
      "hash": "87cf07e64891972f6e96890de916e13f970bcdd17c234ff4398c7280e8bb115e",
      "version": 1,
      "size": 135,
      "vsize": 135,
      "weight": 540,
      "locktime": 0,
      "vin": [
        {
          "coinbase": "04ffff001d028400",
          "sequence": 4294967295
        }
      ],
      "vout": [
        {
          "value": 50.0,
          "n": 0,
          "scriptPubKey": {
            "asm": "047502461feea604e5fd443f10bd5b94b9d725a8d9347058f643245a29d6b4018d46826fc64101bafddf3ba7d59b7cfa6ae1159b9610a569f2aebfbae711c85653 OP_CHECKSIG",
            "desc": "pk(047502461feea604e5fd443f10bd5b94b9d725a8d9347058f643245a29d6b4018d46826fc64101bafddf3ba7d59b7cfa6ae1159b9610a569f2aebfbae711c85653)#9cs9s3ht",
            "hex": "41047502461feea604e5fd443f10bd5b94b9d725a8d9347058f643245a29d6b4018d46826fc64101bafddf3ba7d59b7cfa6ae1159b9610a569f2aebfbae711c85653ac",
            "type": "pubkey"
          }
        }
      ],
      "hex": "01000000010000000000000000000000000000000000000000000000000000000000000000ffffffff0804ffff001d028400ffffffff0100f2052a010000004341047502461feea604e5fd443f10bd5b94b9d725a8d9347058f643245a29d6b4018d46826fc64101bafddf3ba7d59b7cfa6ae1159b9610a569f2aebfbae711c85653ac00000000"
    }
  ]
}