{
  "hash": "00000000094ac9d8cfd71baeb92f12caf29c7f7f4241da712736b943e4880ef9",
  "confirmations": 45378,
  "height": 7720,
  "version": 1,
  "versionHex": "00000001",
  "merkleroot": "a2c61041c2ce30e0b37b7851beead4bb843f2e91a4162fac2110d77dec85bfe7",
  "time": 1237253632,
  "mediantime": 1237250834,
  "nonce": 3043202311,
  "bits": "1d00ffff",
  "difficulty": 1,
  "chainwork": "00000000000000000000000000000000000000000000000000001e291e291e29",
  "nTx": 1,
  "previousblockhash": "0000000024aa969ed9f1406a2b4b49f17b47a73e5fa573773ffcb7ceae9f6adf",
  "nextblockhash": "00000000f9a580fcdd6674f977283adda0284ea2c3dd2ad3abc5d364fb100874",
  "strippedsize": 216,
  "size": 216,
  "weight": 864,
  "tx": [
    {
      "txid": "a2c61041c2ce30e0b37b7851beead4bb843f2e91a4162fac2110d77dec85bfe7",
      "hash": "a2c61041c2ce30e0b37b7851beead4bb843f2e91a4162fac2110d77dec85bfe7",
      "version": 1,
      "size": 135,
      "vsize": 135,
      "weight": 540,
      "locktime": 0,
      "vin": [
        {
          "coinbase": "04ffff001d028c04",
          "sequence": 4294967295
        }
      ],
      "vout": [
        {
          "value": 50.0,
          "n": 0,
          "scriptPubKey": {
            "asm": "04335dc14db5e588cb4ee48cbb5d966eb4cf84078fb42e3bd0ee7923b98c85a4e5a7b3a87b58b795668b90058961f1262c96a48a77de94703fe545467c88903d56 OP_CHECKSIG",
            "desc": "pk(04335dc14db5e588cb4ee48cbb5d966eb4cf84078fb42e3bd0ee7923b98c85a4e5a7b3a87b58b795668b90058961f1262c96a48a77de94703fe545467c88903d56)#n05wv0wm",
            "hex": "4104335dc14db5e588cb4ee48cbb5d966eb4cf84078fb42e3bd0ee7923b98c85a4e5a7b3a87b58b795668b90058961f1262c96a48a77de94703fe545467c88903d56ac",
            "type": "pubkey"
          }
        }
      ],
      "hex": "01000000010000000000000000000000000000000000000000000000000000000000000000ffffffff0804ffff001d028c04ffffffff0100f2052a01000000434104335dc14db5e588cb4ee48cbb5d966eb4cf84078fb42e3bd0ee7923b98c85a4e5a7b3a87b58b795668b90058961f1262c96a48a77de94703fe545467c88903d56ac00000000"
    }
  ]
}