{
  "hash": "00000000738ec0bac6f72b709cdd5e1baeeecff4f25d598b338e1bcea2e50ff1",
  "confirmations": 43688,
  "height": 9410,
  "version": 1,
  "versionHex": "00000001",
  "merkleroot": "35ff6f6a763fbc8cc998fb0a9366c49a5a69c64dd4ba1631494739791b677461",
  "time": 1238561130,
  "mediantime": 1238556761,
  "nonce": 2096682538,
  "bits": "1d00ffff",
  "difficulty": 1,
  "chainwork": "000000000000000000000000000000000000000000000000000024c324c324c3",
  "nTx": 1,
  "previousblockhash": "000000009094d287fdd224f711275949855e606b46a3d30b9522cb3b8a666776",
  "nextblockhash": "00000000b06a73da217e95186d72673c36fa4529498a44ca7c3c3f41904c76d3",
  "strippedsize": 216,
  "size": 216,
  "weight": 864,
  "tx": [
    {
      "txid": "35ff6f6a763fbc8cc998fb0a9366c49a5a69c64dd4ba1631494739791b677461",
      "hash": "35ff6f6a763fbc8cc998fb0a9366c49a5a69c64dd4ba1631494739791b677461",
      "version": 1,
      "size": 135,
      "vsize": 135,
      "weight": 540,
      "locktime": 0,
      "vin": [
        {
          "coinbase": "04ffff001d02d703",
          "sequence": 4294967295
        }
      ],
      "vout": [
        {
          "value": 50.0,
          "n": 0,
          "scriptPubKey": {
            "asm": "04a8a95f3094aac9733e51fc786a2fa817f76f3012558d7ffec8c093f2e5195c3c6fee728f370746df3e59b8df1a69ed55c30b525d4c446751e9ab579b7d5ffddf OP_CHECKSIG",
            "desc": "pk(04a8a95f3094aac9733e51fc786a2fa817f76f3012558d7ffec8c093f2e5195c3c6fee728f370746df3e59b8df1a69ed55c30b525d4c446751e9ab579b7d5ffddf)#zs740294",
            "hex": "4104a8a95f3094aac9733e51fc786a2fa817f76f3012558d7ffec8c093f2e5195c3c6fee728f370746df3e59b8df1a69ed55c30b525d4c446751e9ab579b7d5ffddfac",
            "type": "pubkey"
          }
        }
      ],
      "hex": "01000000010000000000000000000000000000000000000000000000000000000000000000ffffffff0804ffff001d02d703ffffffff0100f2052a01000000434104a8a95f3094aac9733e51fc786a2fa817f76f3012558d7ffec8c093f2e5195c3c6fee728f370746df3e59b8df1a69ed55c30b525d4c446751e9ab579b7d5ffddfac00000000"
    }
  ]
}