{
  "hash": "00000000a244a05a450e401e820bfe30e3cb4d149a3a468e83aef3790b9fc4ca",
  "confirmations": 48980,
  "height": 4118,
  "version": 1,
  "versionHex": "00000001",
  "merkleroot": "1f34483a948c9d4583b61a71ce888903d7392128dfb1324e7e85f4731f3c29d3",
  "time": 1234525524,
  "mediantime": 1234522872,
  "nonce": 209065236,
  "bits": "1d00ffff",
  "difficulty": 1,
  "chainwork": "0000000000000000000000000000000000000000000000000000101710171017",
  "nTx": 1,
  "previousblockhash": "0000000087841ef9d34b4a9604314ee994457266282a9de66a673ed7787f4c24",
  "nextblockhash": "000000008eb5127b83f7c34ab666d529ec8afa9f9692d9baea4bf519084ed796",
  "strippedsize": 216,
  "size": 216,
  "weight": 864,
  "tx": [
    {
      "txid": "1f34483a948c9d4583b61a71ce888903d7392128dfb1324e7e85f4731f3c29d3",
      "hash": "1f34483a948c9d4583b61a71ce888903d7392128dfb1324e7e85f4731f3c29d3",
      "version": 1,
      "size": 135,
      "vsize": 135,
      "weight": 540,
      "locktime": 0,
      "vin": [
        {
          "coinbase": "04ffff001d023006",
          "sequence": 4294967295
        }
      ],
      "vout": [
        {
          "value": 50.0,
          "n": 0,
          "scriptPubKey": {
            "asm": "04db5aea06edf7dd51ad37c63955fb8149eece47ef9fa8697f2750ba68e70aae2e8095454472f64862322f615b8756e12fbb902846acb122929daac001168d2bff OP_CHECKSIG",
            "desc": "pk(04db5aea06edf7dd51ad37c63955fb8149eece47ef9fa8697f2750ba68e70aae2e8095454472f64862322f615b8756e12fbb902846acb122929daac001168d2bff)#axpwe3r3",
            "hex": "4104db5aea06edf7dd51ad37c63955fb8149eece47ef9fa8697f2750ba68e70aae2e8095454472f64862322f615b8756e12fbb902846acb122929daac001168d2bffac",
            "type": "pubkey"
          }
        }
      ],
      "hex": "01000000010000000000000000000000000000000000000000000000000000000000000000ffffffff0804ffff001d023006ffffffff0100f2052a01000000434104db5aea06edf7dd51ad37c63955fb8149eece47ef9fa8697f2750ba68e70aae2e8095454472f64862322f615b8756e12fbb902846acb122929daac001168d2bffac00000000"
    }
  ]
}