{
  "hash": "000000001203fe0407b12fff21672937aa3275836acc1dc45d5b28cffeaa6c2c",
  "confirmations": 49149,
  "height": 3949,
  "version": 1,
  "versionHex": "00000001",
  "merkleroot": "818ae44946260f7819982c9ad6c842f3e309905ab7327ef9a62aa4121ace1c40",
  "time": 1234404674,
  "mediantime": 1234402402,
  "nonce": 52234721,
  "bits": "1d00ffff",
  "difficulty": 1,
  "chainwork": "00000000000000000000000000000000000000000000000000000f6e0f6e0f6e",
  "nTx": 1,
  "previousblockhash": "000000007178384fef810de8a90ed16e71197bf89d05e75267babada153e5662",
  "nextblockhash": "000000006ec7be174df07ab9382e982d8af348dd52f4091e880764bc060a92ce",
  "strippedsize": 215,
  "size": 215,
  "weight": 860,
  "tx": [
    {
      "txid": "818ae44946260f7819982c9ad6c842f3e309905ab7327ef9a62aa4121ace1c40",
      "hash": "818ae44946260f7819982c9ad6c842f3e309905ab7327ef9a62aa4121ace1c40",
      "version": 1,
      "size": 134,
      "vsize": 134,
      "weight": 536,
      "locktime": 0,
      "vin": [
        {
          "coinbase": "04ffff001d0172",
          "sequence": 4294967295
        }
      ],
      "vout": [
        {
          "value": 50.0,
          "n": 0,
          "scriptPubKey": {
            "asm": "044a2ea5e3096ac05b77e3b3816157e06a87ab231fd850de230c42776c8944dd9075227ef47ecf6fa295c9c322d9cbf2b4276abef5d8ccf32848aacb1a8001f97e OP_CHECKSIG",
            "desc": "pk(044a2ea5e3096ac05b77e3b3816157e06a87ab231fd850de230c42776c8944dd9075227ef47ecf6fa295c9c322d9cbf2b4276abef5d8ccf32848aacb1a8001f97e)#k8d49spd",
            "hex": "41044a2ea5e3096ac05b77e3b3816157e06a87ab231fd850de230c42776c8944dd9075227ef47ecf6fa295c9c322d9cbf2b4276abef5d8ccf32848aacb1a8001f97eac",
            "type": "pubkey"
          }
        }
      ],
      "hex": "01000000010000000000000000000000000000000000000000000000000000000000000000ffffffff0704ffff001d0172ffffffff0100f2052a010000004341044a2ea5e3096ac05b77e3b3816157e06a87ab231fd850de230c42776c8944dd9075227ef47ecf6fa295c9c322d9cbf2b4276abef5d8ccf32848aacb1a8001f97eac00000000"
    }
  ]
}