{
  "hash": "00000000888fa29c0d536dd58236724bc0dc115120dab4bfc529ffea1cb680fc",
  "confirmations": 52077,
  "height": 1021,
  "version": 1,
  "versionHex": "00000001",
  "merkleroot": "14ff7379051c8efbf02af9edbd99b22c926c928d7556a6a7a24a582e6cf04910",
  "time": 1232365709,
  "mediantime": 1232360852,
  "nonce": 408827182,
  "bits": "1d00ffff",
  "difficulty": 1,
  "chainwork": "000000000000000000000000000000000000000000000000000003fe03fe03fe",
  "nTx": 1,
  "previousblockhash": "00000000aea3469718b670a4f3e86f5d5c10d58ce6c92e2fbd1b0f0a9317b5a2",
  "nextblockhash": "00000000e677056d42005209b140b3ff81d64dc757ad4fc30ad6776a289fbdb7",
  "strippedsize": 216,
  "size": 216,
  "weight": 864,
  "tx": [
    {
      "txid": "14ff7379051c8efbf02af9edbd99b22c926c928d7556a6a7a24a582e6cf04910",
      "hash": "14ff7379051c8efbf02af9edbd99b22c926c928d7556a6a7a24a582e6cf04910",
      "version": 1,
      "size": 135,
      "vsize": 135,
      "weight": 540,
      "locktime": 0,
      "vin": [
        {
          "coinbase": "04ffff001d029605",
          "sequence": 4294967295
        }
      ],
      "vout": [
        {
          "value": 50.0,
          "n": 0,
          "scriptPubKey": {
            "asm": "0480aec2b977a8e0b955c2d97b21c59c150f863924e9b0cc85782d9a8d185fa1f7920b73ab3acffe6f16308cbd1b67f50aba4784d48d6d70749957de376fec37f1 OP_CHECKSIG",
            "desc": "pk(0480aec2b977a8e0b955c2d97b21c59c150f863924e9b0cc85782d9a8d185fa1f7920b73ab3acffe6f16308cbd1b67f50aba4784d48d6d70749957de376fec37f1)#wjw3hskc",
            "hex": "410480aec2b977a8e0b955c2d97b21c59c150f863924e9b0cc85782d9a8d185fa1f7920b73ab3acffe6f16308cbd1b67f50aba4784d48d6d70749957de376fec37f1ac",
            "type": "pubkey"
          }
        }
      ],
      "hex": "01000000010000000000000000000000000000000000000000000000000000000000000000ffffffff0804ffff001d029605ffffffff0100f2052a0100000043410480aec2b977a8e0b955c2d97b21c59c150f863924e9b0cc85782d9a8d185fa1f7920b73ab3acffe6f16308cbd1b67f50aba4784d48d6d70749957de376fec37f1ac00000000"
    }
  ]
}