{
  "hash": "00000000c5f6cbdba8d8a5344839183f53bebd28189a2f1b43577a0ae73409aa",
  "confirmations": 50299,
  "height": 2799,
  "version": 1,
  "versionHex": "00000001",
  "merkleroot": "26237c8e89612cb14d7ee6dd82d3a857ce893312101a124e8c1a898b9b8b4518",
  "time": 1233627898,
  "mediantime": 1233625675,
  "nonce": 2080267288,
  "bits": "1d00ffff",
  "difficulty": 1,
  "chainwork": "00000000000000000000000000000000000000000000000000000af00af00af0",
  "nTx": 1,
  "previousblockhash": "00000000bd552e9cb342d1c21836d1e8f7b2ed19452e1abce3fa5b9a57cf4821",
  "nextblockhash": "00000000d10250150162aefbf7d64ab10f3b4706ffe4d04ae59ca410f672e97b",
  "strippedsize": 216,
  "size": 216,
  "weight": 864,
  "tx": [
    {
      "txid": "26237c8e89612cb14d7ee6dd82d3a857ce893312101a124e8c1a898b9b8b4518",
      "hash": "26237c8e89612cb14d7ee6dd82d3a857ce893312101a124e8c1a898b9b8b4518",
      "version": 1,
      "size": 135,
      "vsize": 135,
      "weight": 540,
      "locktime": 0,
      "vin": [
        {
          "coinbase": "04ffff001d021f06",
          "sequence": 4294967295
        }
      ],
      "vout": [
        {
          "value": 50.0,
          "n": 0,
          "scriptPubKey": {
            "asm": "04f23ace7eacaa4ad003b41ac3e97ff1ba76e337dc7bbdead57b5a19a19a2c45c9406171ff2d029ad2321ad8d72b22cbfdf037b7d7cff083476d241fff21cbc728 OP_CHECKSIG",
            "desc": "pk(04f23ace7eacaa4ad003b41ac3e97ff1ba76e337dc7bbdead57b5a19a19a2c45c9406171ff2d029ad2321ad8d72b22cbfdf037b7d7cff083476d241fff21cbc728)#sfxcqgxh",
            "hex": "4104f23ace7eacaa4ad003b41ac3e97ff1ba76e337dc7bbdead57b5a19a19a2c45c9406171ff2d029ad2321ad8d72b22cbfdf037b7d7cff083476d241fff21cbc728ac",
            "type": "pubkey"
          }
        }
      ],
      "hex": "01000000010000000000000000000000000000000000000000000000000000000000000000ffffffff0804ffff001d021f06ffffffff0100f2052a01000000434104f23ace7eacaa4ad003b41ac3e97ff1ba76e337dc7bbdead57b5a19a19a2c45c9406171ff2d029ad2321ad8d72b22cbfdf037b7d7cff083476d241fff21cbc728ac00000000"
    }
  ]
}