{
  "hash": "00000000665d5339b5b00ffa19afd10a3651ae057be36112a69669c28c4aa35f",
  "confirmations": 44362,
  "height": 8736,
  "version": 1,
  "versionHex": "00000001",
  "merkleroot": "d8837b8d53f6786f25f9aa7445ba8f5f8e627852a3c565dbf086ee514e9fbaef",
  "time": 1238049083,
  "mediantime": 1238043594,
  "nonce": 1439952389,
  "bits": "1d00ffff",
  "difficulty": 1,
  "chainwork": "0000000000000000000000000000000000000000000000000000222122212221",
  "nTx": 1,
  "previousblockhash": "000000009bf588ec242454e1343b03c8f1934b1cae89fd96f6ea8906b81a7e46",
  "nextblockhash": "00000000f435608a96087d61c29baa738739b49a384282c9e15c58273fb397af",
  "strippedsize": 216,
  "size": 216,
  "weight": 864,
  "tx": [
    {
      "txid": "d8837b8d53f6786f25f9aa7445ba8f5f8e627852a3c565dbf086ee514e9fbaef",
      "hash": "d8837b8d53f6786f25f9aa7445ba8f5f8e627852a3c565dbf086ee514e9fbaef",
      "version": 1,
      "size": 135,
      "vsize": 135,
      "weight": 540,
      "locktime": 0,
      "vin": [
        {
          "coinbase": "04ffff001d028301",
          "sequence": 4294967295
        }
      ],
      "vout": [
        {
          "value": 50.0,
          "n": 0,
          "scriptPubKey": {
            "asm": "045399908fa08a67eac85081f15e8e79bb6dfa83cf439a9bbe97158f2126a703b53eb677608fad56d2740baee05ee399500befcd29a2791c5d8c100a1698f2b22c OP_CHECKSIG",
            "desc": "pk(045399908fa08a67eac85081f15e8e79bb6dfa83cf439a9bbe97158f2126a703b53eb677608fad56d2740baee05ee399500befcd29a2791c5d8c100a1698f2b22c)#3ht48ptf",
            "hex": "41045399908fa08a67eac85081f15e8e79bb6dfa83cf439a9bbe97158f2126a703b53eb677608fad56d2740baee05ee399500befcd29a2791c5d8c100a1698f2b22cac",
            "type": "pubkey"
          }
        }
      ],
      "hex": "01000000010000000000000000000000000000000000000000000000000000000000000000ffffffff0804ffff001d028301ffffffff0100f2052a010000004341045399908fa08a67eac85081f15e8e79bb6dfa83cf439a9bbe97158f2126a703b53eb677608fad56d2740baee05ee399500befcd29a2791c5d8c100a1698f2b22cac00000000"
    }
  ]
}