{
  "hash": "0000000011d174fb8c9431a4756f9d793d73bd683a11296ea026d7cf15708246",
  "confirmations": 46692,
  "height": 6406,
  "version": 1,
  "versionHex": "00000001",
  "merkleroot": "936d91bd39901f271a8a8c82d3a7fba317bd9c8b5d6a620bc5375098a7054806",
  "time": 1236259405,
  "mediantime": 1236256616,
  "nonce": 283933205,
  "bits": "1d00ffff",
  "difficulty": 1,
  "chainwork": "0000000000000000000000000000000000000000000000000000190719071907",
  "nTx": 1,
  "previousblockhash": "00000000aefe1c4d2ce3109de7c3717d3007ece8616cb85caf20af1e860796c7",
  "nextblockhash": "0000000098fed875813dfbd674308c11f43078682113aebdcf807c3db85a9274",
  "strippedsize": 216,
  "size": 216,
  "weight": 864,
  "tx": [
    {
      "txid": "936d91bd39901f271a8a8c82d3a7fba317bd9c8b5d6a620bc5375098a7054806",
      "hash": "936d91bd39901f271a8a8c82d3a7fba317bd9c8b5d6a620bc5375098a7054806",
      "version": 1,
      "size": 135,
      "vsize": 135,
      "weight": 540,
      "locktime": 0,
      "vin": [
        {
          "coinbase": "04ffff001d02f101",
          "sequence": 4294967295
        }
      ],
      "vout": [
        {
          "value": 50.0,
          "n": 0,
          "scriptPubKey": {
            "asm": "04ad54801c58544e6e234f74e0ca75a2b03fd31227bce492f44483214302604475315202af0f2d82c0513c34f915019c85e8cc41fdfde5a70e6863583b9dd35323 OP_CHECKSIG",
            "desc": "pk(04ad54801c58544e6e234f74e0ca75a2b03fd31227bce492f44483214302604475315202af0f2d82c0513c34f915019c85e8cc41fdfde5a70e6863583b9dd35323)#kdv43l9h",
            "hex": "4104ad54801c58544e6e234f74e0ca75a2b03fd31227bce492f44483214302604475315202af0f2d82c0513c34f915019c85e8cc41fdfde5a70e6863583b9dd35323ac",
            "type": "pubkey"
          }
        }
      ],
      "hex": "01000000010000000000000000000000000000000000000000000000000000000000000000ffffffff0804ffff001d02f101ffffffff0100f2052a01000000434104ad54801c58544e6e234f74e0ca75a2b03fd31227bce492f44483214302604475315202af0f2d82c0513c34f915019c85e8cc41fdfde5a70e6863583b9dd35323ac00000000"
    }
  ]
}