{
  "hash": "00000000ddab5b03e1a0ea911bd6ffaa5e1ab24d75918bc717c1ad0ad8ae39ca",
  "confirmations": 49006,
  "height": 4092,
  "version": 1,
  "versionHex": "00000001",
  "merkleroot": "acb50c6406c16c55a5b0b23fb1cfffa5ad68600e46c46eecce98e8c10ff4d221",
  "time": 1234507665,
  "mediantime": 1234502881,
  "nonce": 87973964,
  "bits": "1d00ffff",
  "difficulty": 1,
  "chainwork": "00000000000000000000000000000000000000000000000000000ffd0ffd0ffd",
  "nTx": 1,
  "previousblockhash": "000000008af2f7e50adfea5af321b00e884ead00d87fde7a7ec1f5b85e5924e3",
  "nextblockhash": "00000000d6007fa7c6ca9a92c2722fcf28680505430a0e1169f3bd72f67dd625",
  "strippedsize": 215,
  "size": 215,
  "weight": 860,
  "tx": [
    {
      "txid": "acb50c6406c16c55a5b0b23fb1cfffa5ad68600e46c46eecce98e8c10ff4d221",
      "hash": "acb50c6406c16c55a5b0b23fb1cfffa5ad68600e46c46eecce98e8c10ff4d221",
      "version": 1,
      "size": 134,
      "vsize": 134,
      "weight": 536,
      "locktime": 0,
      "vin": [
        {
          "coinbase": "04ffff001d0129",
          "sequence": 4294967295
        }
      ],
      "vout": [
        {
          "value": 50.0,
          "n": 0,
          "scriptPubKey": {
            "asm": "04aefc8c269804518ecc1b5a4ad66a2bf05500f28127fa943029b8b18427940112204c504bd23ddc8e721c44b9a759d90717e96dfe5fe4ca469f1d3bd50a3f459c OP_CHECKSIG",
            "desc": "pk(04aefc8c269804518ecc1b5a4ad66a2bf05500f28127fa943029b8b18427940112204c504bd23ddc8e721c44b9a759d90717e96dfe5fe4ca469f1d3bd50a3f459c)#xmghl3qe",
            "hex": "4104aefc8c269804518ecc1b5a4ad66a2bf05500f28127fa943029b8b18427940112204c504bd23ddc8e721c44b9a759d90717e96dfe5fe4ca469f1d3bd50a3f459cac",
            "type": "pubkey"
          }
        }
      ],
      "hex": "01000000010000000000000000000000000000000000000000000000000000000000000000ffffffff0704ffff001d0129ffffffff0100f2052a01000000434104aefc8c269804518ecc1b5a4ad66a2bf05500f28127fa943029b8b18427940112204c504bd23ddc8e721c44b9a759d90717e96dfe5fe4ca469f1d3bd50a3f459cac00000000"
    }
  ]
}