{
  "hash": "000000003bcb083b87ad79fe333e3aa90e29c3ac417d26ac99324ffdba260a90",
  "confirmations": 47241,
  "height": 5857,
  "version": 1,
  "versionHex": "00000001",
  "merkleroot": "dea82c0ce94aaf9b7a4ffdd8d4ca21c45ad82299945b6c924b868ea8178448fd",
  "time": 1235807663,
  "mediantime": 1235803518,
  "nonce": 1013863424,
  "bits": "1d00ffff",
  "difficulty": 1,
  "chainwork": "000000000000000000000000000000000000000000000000000016e216e216e2",
  "nTx": 1,
  "previousblockhash": "000000006b6870283ee477fc3e514b22767bc3b39dd6edb683fb67d921feb861",
  "nextblockhash": "000000003b00bf0720292e4cbf4a9b90b9b793db6d047532afe3c69784e9c34e",
  "strippedsize": 216,
  "size": 216,
  "weight": 864,
  "tx": [
    {
      "txid": "dea82c0ce94aaf9b7a4ffdd8d4ca21c45ad82299945b6c924b868ea8178448fd",
      "hash": "dea82c0ce94aaf9b7a4ffdd8d4ca21c45ad82299945b6c924b868ea8178448fd",
      "version": 1,
      "size": 135,
      "vsize": 135,
      "weight": 540,
      "locktime": 0,
      "vin": [
        {
          "coinbase": "04ffff001d020802",
          "sequence": 4294967295
        }
      ],
      "vout": [
        {
          "value": 50.0,
          "n": 0,
          "scriptPubKey": {
            "asm": "04b800c885d551e6ddfae4c8ada910b4ea8792b961c969d0eff38d497b5d25ea4ce39ff92cbd26ac0a67896c30be0adf8a2dea2b0e868bf1df6dec1ce79cd052e3 OP_CHECKSIG",
            "desc": "pk(04b800c885d551e6ddfae4c8ada910b4ea8792b961c969d0eff38d497b5d25ea4ce39ff92cbd26ac0a67896c30be0adf8a2dea2b0e868bf1df6dec1ce79cd052e3)#l6h8h487",
            "hex": "4104b800c885d551e6ddfae4c8ada910b4ea8792b961c969d0eff38d497b5d25ea4ce39ff92cbd26ac0a67896c30be0adf8a2dea2b0e868bf1df6dec1ce79cd052e3ac",
            "type": "pubkey"
          }
        }
      ],
      "hex": "01000000010000000000000000000000000000000000000000000000000000000000000000ffffffff0804ffff001d020802ffffffff0100f2052a01000000434104b800c885d551e6ddfae4c8ada910b4ea8792b961c969d0eff38d497b5d25ea4ce39ff92cbd26ac0a67896c30be0adf8a2dea2b0e868bf1df6dec1ce79cd052e3ac00000000"
    }
  ]
}