{
  "hash": "0000000070e67f9dfd07af69263b1f7d9e943c5665cd5f45ab187504d357f251",
  "confirmations": 50602,
  "height": 2496,
  "version": 1,
  "versionHex": "00000001",
  "merkleroot": "ce4cfa6b4edf08f6cd1abcfab711a6614ce57935924132a8ff8156eaa1c8413e",
  "time": 1233419446,
  "mediantime": 1233417115,
  "nonce": 1484842018,
  "bits": "1d00ffff",
  "difficulty": 1,
  "chainwork": "000000000000000000000000000000000000000000000000000009c109c109c1",
  "nTx": 1,
  "previousblockhash": "00000000bffb7cc82f9914185fbc5b7afe25f4282db8d3228fea67da7b23e3d1",
  "nextblockhash": "000000000d88aca9f27de54dd924aa087356c5118204fc2e61715cea75b95c03",
  "strippedsize": 216,
  "size": 216,
  "weight": 864,
  "tx": [
    {
      "txid": "ce4cfa6b4edf08f6cd1abcfab711a6614ce57935924132a8ff8156eaa1c8413e",
      "hash": "ce4cfa6b4edf08f6cd1abcfab711a6614ce57935924132a8ff8156eaa1c8413e",
      "version": 1,
      "size": 135,
      "vsize": 135,
      "weight": 540,
      "locktime": 0,
      "vin": [
        {
          "coinbase": "04ffff001d020501",
          "sequence": 4294967295
        }
      ],
      "vout": [
        {
          "value": 50.0,
          "n": 0,
          "scriptPubKey": {
            "asm": "04b86cd4ea99fb2c447b49c8d7f3fd01c82cff15c5b7576873047fe6dcb380a0c33f99017b2bdaaf780696f7e175659ae6628b46651886a60e475b2b7cd850e547 OP_CHECKSIG",
            "desc": "pk(04b86cd4ea99fb2c447b49c8d7f3fd01c82cff15c5b7576873047fe6dcb380a0c33f99017b2bdaaf780696f7e175659ae6628b46651886a60e475b2b7cd850e547)#9w6mdhdd",
            "hex": "4104b86cd4ea99fb2c447b49c8d7f3fd01c82cff15c5b7576873047fe6dcb380a0c33f99017b2bdaaf780696f7e175659ae6628b46651886a60e475b2b7cd850e547ac",
            "type": "pubkey"
          }
        }
      ],
      "hex": "01000000010000000000000000000000000000000000000000000000000000000000000000ffffffff0804ffff001d020501ffffffff0100f2052a01000000434104b86cd4ea99fb2c447b49c8d7f3fd01c82cff15c5b7576873047fe6dcb380a0c33f99017b2bdaaf780696f7e175659ae6628b46651886a60e475b2b7cd850e547ac00000000"
    }
  ]
}