{
  "hash": "00000000a62a159fc96d465e76da1d1e503b0f226e7feaf815196b690480e303",
  "confirmations": 47602,
  "height": 5496,
  "version": 1,
  "versionHex": "00000001",
  "merkleroot": "6a9fcfbadf767a4bb6fbd93454240f3e9a7b6188429eb470e077d5ceebe133a5",
  "time": 1235519062,
  "mediantime": 1235514250,
  "nonce": 3725026822,
  "bits": "1d00ffff",
  "difficulty": 1,
  "chainwork": "0000000000000000000000000000000000000000000000000000157915791579",
  "nTx": 1,
  "previousblockhash": "00000000dbd440eca4c5110d78f0f10ab9ef037dafcd06cb50ff483c9d7345f4",
  "nextblockhash": "00000000ae748666ef62e384a02ce2568a59e80349f2c9ce250e48dbcb77ce6c",
  "strippedsize": 216,
  "size": 216,
  "weight": 864,
  "tx": [
    {
      "txid": "6a9fcfbadf767a4bb6fbd93454240f3e9a7b6188429eb470e077d5ceebe133a5",
      "hash": "6a9fcfbadf767a4bb6fbd93454240f3e9a7b6188429eb470e077d5ceebe133a5",
      "version": 1,
      "size": 135,
      "vsize": 135,
      "weight": 540,
      "locktime": 0,
      "vin": [
        {
          "coinbase": "04ffff001d028905",
          "sequence": 4294967295
        }
      ],
      "vout": [
        {
          "value": 50.0,
          "n": 0,
          "scriptPubKey": {
            "asm": "0462000e6acc4d718d603417732c673d0f08cc55b85cdf2dcc35fb0277916d0891d99c1187e397daba2ad8d2c7c2c1a9a051e5133058c9c9d68467671bed18496e OP_CHECKSIG",
            "desc": "pk(0462000e6acc4d718d603417732c673d0f08cc55b85cdf2dcc35fb0277916d0891d99c1187e397daba2ad8d2c7c2c1a9a051e5133058c9c9d68467671bed18496e)#ns0l528k",
            "hex": "410462000e6acc4d718d603417732c673d0f08cc55b85cdf2dcc35fb0277916d0891d99c1187e397daba2ad8d2c7c2c1a9a051e5133058c9c9d68467671bed18496eac",
            "type": "pubkey"
          }
        }
      ],
      "hex": "01000000010000000000000000000000000000000000000000000000000000000000000000ffffffff0804ffff001d028905ffffffff0100f2052a0100000043410462000e6acc4d718d603417732c673d0f08cc55b85cdf2dcc35fb0277916d0891d99c1187e397daba2ad8d2c7c2c1a9a051e5133058c9c9d68467671bed18496eac00000000"
    }
  ]
}