{
  "hash": "00000000c88cd451d53ba12b50e85e2c1d0381458e22813012bbd571b86f7920",
  "confirmations": 52066,
  "height": 270,
  "version": 1,
  "versionHex": "00000001",
  "merkleroot": "746f072f376eb17dd3699c9589e5a020bdde959146a063a3113a0b72767f9b78",
  "time": 1231808778,
  "mediantime": 1231806051,
  "nonce": 3999369255,
  "bits": "1d00ffff",
  "difficulty": 1,
  "chainwork": "0000000000000000000000000000000000000000000000000000010f010f010f",
  "nTx": 1,
  "previousblockhash": "00000000a167a34dd8823317ccda6036d0a243161464e3e67fc01a543ce62b7f",
  "nextblockhash": "0000000035981d26f072cea02a0cb67897b896229b1436e0009cb9c4c20a4ee9",
  "strippedsize": 216,
  "size": 216,
  "weight": 864,
  "tx": [
    {
      "txid": "746f072f376eb17dd3699c9589e5a020bdde959146a063a3113a0b72767f9b78",
      "hash": "746f072f376eb17dd3699c9589e5a020bdde959146a063a3113a0b72767f9b78",
      "version": 1,
      "size": 135,
      "vsize": 135,
      "weight": 540,
      "locktime": 0,
      "vin": [
        {
          "coinbase": "04ffff001d027801",
          "sequence": 4294967295
        }
      ],
      "vout": [
        {
          "value": 50.0,
          "n": 0,
          "scriptPubKey": {
            "asm": "04cbcf82a2da8fd5bb24955e6a39ccf8d6a8aec7ed2824130c84f21dd5699222733a4fd2c1312a8900b853f2b04fcd6ade11b7ab6f9f42f41662d7d28c4de4ed3b OP_CHECKSIG",
            "desc": "pk(04cbcf82a2da8fd5bb24955e6a39ccf8d6a8aec7ed2824130c84f21dd5699222733a4fd2c1312a8900b853f2b04fcd6ade11b7ab6f9f42f41662d7d28c4de4ed3b)#4snsqpdw",
            "hex": "4104cbcf82a2da8fd5bb24955e6a39ccf8d6a8aec7ed2824130c84f21dd5699222733a4fd2c1312a8900b853f2b04fcd6ade11b7ab6f9f42f41662d7d28c4de4ed3bac",
            "type": "pubkey"
          }
        }
      ],
      "hex": "01000000010000000000000000000000000000000000000000000000000000000000000000ffffffff0804ffff001d027801ffffffff0100f2052a01000000434104cbcf82a2da8fd5bb24955e6a39ccf8d6a8aec7ed2824130c84f21dd5699222733a4fd2c1312a8900b853f2b04fcd6ade11b7ab6f9f42f41662d7d28c4de4ed3bac00000000"
    }
  ]
}