{
  "hash": "000000006996eb82f552752f4a82c86769fad132f8367bddac0b3197888f0a78",
  "confirmations": 43635,
  "height": 9463,
  "version": 1,
  "versionHex": "00000001",
  "merkleroot": "895cadd152954f93eb0eaa463507c9489f86e5280fd6d9eb4b7b2634a53e4f9a",
  "time": 1238601565,
  "mediantime": 1238598749,
  "nonce": 164972312,
  "bits": "1d00ffff",
  "difficulty": 1,
  "chainwork": "000000000000000000000000000000000000000000000000000024f824f824f8",
  "nTx": 1,
  "previousblockhash": "00000000a71267a0e0df7af9e09fc3da51d6ab82150c13ccce98bbcbba560a86",
  "nextblockhash": "00000000d5b91b275f3858fe848b9ada0cde0d2531d66c23a9079a3ae4f54dcc",
  "strippedsize": 216,
  "size": 216,
  "weight": 864,
  "tx": [
    {
      "txid": "895cadd152954f93eb0eaa463507c9489f86e5280fd6d9eb4b7b2634a53e4f9a",
      "hash": "895cadd152954f93eb0eaa463507c9489f86e5280fd6d9eb4b7b2634a53e4f9a",
      "version": 1,
      "size": 135,
      "vsize": 135,
      "weight": 540,
      "locktime": 0,
      "vin": [
        {
          "coinbase": "04ffff001d02b804",
          "sequence": 4294967295
        }
      ],
      "vout": [
        {
          "value": 50.0,
          "n": 0,
          "scriptPubKey": {
            "asm": "04b5856115cbd851bc1a4e84d776c99d3b8766fb5b4e6560826bea12581c495f903206c2103539bdc739a40740118d6a2d1e49de15c883e8d9b4ef22b0de37d547 OP_CHECKSIG",
            "desc": "pk(04b5856115cbd851bc1a4e84d776c99d3b8766fb5b4e6560826bea12581c495f903206c2103539bdc739a40740118d6a2d1e49de15c883e8d9b4ef22b0de37d547)#ue5q5rj0",
            "hex": "4104b5856115cbd851bc1a4e84d776c99d3b8766fb5b4e6560826bea12581c495f903206c2103539bdc739a40740118d6a2d1e49de15c883e8d9b4ef22b0de37d547ac",
            "type": "pubkey"
          }
        }
      ],
      "hex": "01000000010000000000000000000000000000000000000000000000000000000000000000ffffffff0804ffff001d02b804ffffffff0100f2052a01000000434104b5856115cbd851bc1a4e84d776c99d3b8766fb5b4e6560826bea12581c495f903206c2103539bdc739a40740118d6a2d1e49de15c883e8d9b4ef22b0de37d547ac00000000"
    }
  ]
}