{
  "hash": "000000004926cc20d8615223a1a330e7f6ebc30d3bd12e53a974cabcc88fe13c",
  "confirmations": 46726,
  "height": 6372,
  "version": 1,
  "versionHex": "00000001",
  "merkleroot": "aaed6be5ce31f6b3b317fa6c795ee2dfe2abfb29abed0d3350f0e6f065de4575",
  "time": 1236235343,
  "mediantime": 1236231550,
  "nonce": 3931445035,
  "bits": "1d00ffff",
  "difficulty": 1,
  "chainwork": "000000000000000000000000000000000000000000000000000018e518e518e5",
  "nTx": 1,
  "previousblockhash": "000000008c600e846c66c9eac98969a1d435f569e099db10d19129f777527600",
  "nextblockhash": "0000000027482a073a4f97cca991d6702b871a5296f6aa75fb4e41208ea4e881",
  "strippedsize": 216,
  "size": 216,
  "weight": 864,
  "tx": [
    {
      "txid": "aaed6be5ce31f6b3b317fa6c795ee2dfe2abfb29abed0d3350f0e6f065de4575",
      "hash": "aaed6be5ce31f6b3b317fa6c795ee2dfe2abfb29abed0d3350f0e6f065de4575",
      "version": 1,
      "size": 135,
      "vsize": 135,
      "weight": 540,
      "locktime": 0,
      "vin": [
        {
          "coinbase": "04ffff001d024e01",
          "sequence": 4294967295
        }
      ],
      "vout": [
        {
          "value": 50.0,
          "n": 0,
          "scriptPubKey": {
            "asm": "04fc53a8c07bdb5cbcbbc80169f8abefb456820ef4c9a5a68f0abc3f2313218a971abd34c142826ed06ce41813a6b16abee0ef686e2efb7ec469b081faa06c11e4 OP_CHECKSIG",
            "desc": "pk(04fc53a8c07bdb5cbcbbc80169f8abefb456820ef4c9a5a68f0abc3f2313218a971abd34c142826ed06ce41813a6b16abee0ef686e2efb7ec469b081faa06c11e4)#hqfv4afw",
            "hex": "4104fc53a8c07bdb5cbcbbc80169f8abefb456820ef4c9a5a68f0abc3f2313218a971abd34c142826ed06ce41813a6b16abee0ef686e2efb7ec469b081faa06c11e4ac",
            "type": "pubkey"
          }
        }
      ],
      "hex": "01000000010000000000000000000000000000000000000000000000000000000000000000ffffffff0804ffff001d024e01ffffffff0100f2052a01000000434104fc53a8c07bdb5cbcbbc80169f8abefb456820ef4c9a5a68f0abc3f2313218a971abd34c142826ed06ce41813a6b16abee0ef686e2efb7ec469b081faa06c11e4ac00000000"
    }
  ]
}