{
  "hash": "000000004d092f3b5f821106ec5aa6aee923e5900418f31d8083f65e72ae8ffa",
  "confirmations": 50565,
  "height": 2533,
  "version": 1,
  "versionHex": "00000001",
  "merkleroot": "58d4befc8430a9e640c59e0b9d7c6f99b60a76c0605ec681cb68d8ed176824a5",
  "time": 1233440022,
  "mediantime": 1233435545,
  "nonce": 600525851,
  "bits": "1d00ffff",
  "difficulty": 1,
  "chainwork": "000000000000000000000000000000000000000000000000000009e609e609e6",
  "nTx": 1,
  "previousblockhash": "00000000c3323972d09a12c61078412126e11cc28a73fa6f3e9d3aa63234c4c4",
  "nextblockhash": "00000000f021c6092044c58a0b4d398fddcc9eca3ad36c8621ac7337231db4a6",
  "strippedsize": 216,
  "size": 216,
  "weight": 864,
  "tx": [
    {
      "txid": "58d4befc8430a9e640c59e0b9d7c6f99b60a76c0605ec681cb68d8ed176824a5",
      "hash": "58d4befc8430a9e640c59e0b9d7c6f99b60a76c0605ec681cb68d8ed176824a5",
      "version": 1,
      "size": 135,
      "vsize": 135,
      "weight": 540,
      "locktime": 0,
      "vin": [
        {
          "coinbase": "04ffff001d028e01",
          "sequence": 4294967295
        }
      ],
      "vout": [
        {
          "value": 50.0,
          "n": 0,
          "scriptPubKey": {
            "asm": "0463e15692d59067f34f8b2570c06fad34a6682495c1ff54e6eddbd2d7486537e6b32c3568ae33e59592d647803d689ebe1116ab64a0d6a642f8a37977daef79b8 OP_CHECKSIG",
            "desc": "pk(0463e15692d59067f34f8b2570c06fad34a6682495c1ff54e6eddbd2d7486537e6b32c3568ae33e59592d647803d689ebe1116ab64a0d6a642f8a37977daef79b8)#v7yunvqe",
            "hex": "410463e15692d59067f34f8b2570c06fad34a6682495c1ff54e6eddbd2d7486537e6b32c3568ae33e59592d647803d689ebe1116ab64a0d6a642f8a37977daef79b8ac",
            "type": "pubkey"
          }
        }
      ],
      "hex": "01000000010000000000000000000000000000000000000000000000000000000000000000ffffffff0804ffff001d028e01ffffffff0100f2052a0100000043410463e15692d59067f34f8b2570c06fad34a6682495c1ff54e6eddbd2d7486537e6b32c3568ae33e59592d647803d689ebe1116ab64a0d6a642f8a37977daef79b8ac00000000"
    }
  ]
}