{
  "hash": "00000000a6b6f1b2e7526a8c26043a01ce7098cbc5d95896b4dc24836b908411",
  "confirmations": 43472,
  "height": 9626,
  "version": 1,
  "versionHex": "00000001",
  "merkleroot": "8cefe07f1074596271e67d63cb9878015d2e7ae3dd4a270773074df1e0d59467",
  "time": 1238721630,
  "mediantime": 1238719220,
  "nonce": 1825125127,
  "bits": "1d00ffff",
  "difficulty": 1,
  "chainwork": "0000000000000000000000000000000000000000000000000000259b259b259b",
  "nTx": 1,
  "previousblockhash": "00000000b91b9b688617963d22b2b4d638cda7588a87c830f2111fc3eeb1b526",
  "nextblockhash": "000000004a2ed49fca14f2a937747a307110a8da0a5052dd9065548c36aaaf17",
  "strippedsize": 216,
  "size": 216,
  "weight": 864,
  "tx": [
    {
      "txid": "8cefe07f1074596271e67d63cb9878015d2e7ae3dd4a270773074df1e0d59467",
      "hash": "8cefe07f1074596271e67d63cb9878015d2e7ae3dd4a270773074df1e0d59467",
      "version": 1,
      "size": 135,
      "vsize": 135,
      "weight": 540,
      "locktime": 0,
      "vin": [
        {
          "coinbase": "04ffff001d026d07",
          "sequence": 4294967295
        }
      ],
      "vout": [
        {
          "value": 50.0,
          "n": 0,
          "scriptPubKey": {
            "asm": "048b0428a89c74fd66b655258c85ece16d3ce321d5c68b0388255f9394249051b1d0641df5e5d14e0eeacc26fdaa240f04ba73baeb6276abcdc3ccddef1442e38a OP_CHECKSIG",
            "desc": "pk(048b0428a89c74fd66b655258c85ece16d3ce321d5c68b0388255f9394249051b1d0641df5e5d14e0eeacc26fdaa240f04ba73baeb6276abcdc3ccddef1442e38a)#geuetkt8",
            "hex": "41048b0428a89c74fd66b655258c85ece16d3ce321d5c68b0388255f9394249051b1d0641df5e5d14e0eeacc26fdaa240f04ba73baeb6276abcdc3ccddef1442e38aac",
            "type": "pubkey"
          }
        }
      ],
      "hex": "01000000010000000000000000000000000000000000000000000000000000000000000000ffffffff0804ffff001d026d07ffffffff0100f2052a010000004341048b0428a89c74fd66b655258c85ece16d3ce321d5c68b0388255f9394249051b1d0641df5e5d14e0eeacc26fdaa240f04ba73baeb6276abcdc3ccddef1442e38aac00000000"
    }
  ]
}