{
  "hash": "00000000916b7ad3fe0820aace4b006c8f1b3cf31980d321bd6bed6dd62418e1",
  "confirmations": 51932,
  "height": 1166,
  "version": 1,
  "versionHex": "00000001",
  "merkleroot": "ca990bd8b6474675ea3c317d498365ac7d28af8740f4608b12894b433835ecc9",
  "time": 1232473286,
  "mediantime": 1232468329,
  "nonce": 707560707,
  "bits": "1d00ffff",
  "difficulty": 1,
  "chainwork": "0000000000000000000000000000000000000000000000000000048f048f048f",
  "nTx": 1,
  "previousblockhash": "0000000096802223977e8859bc89748566516f34656c33b9a74179078f78819b",
  "nextblockhash": "00000000f0767ad76279839d0fced591231529c8b53d6ee282c6fd50d7c89660",
  "strippedsize": 216,
  "size": 216,
  "weight": 864,
  "tx": [
    {
      "txid": "ca990bd8b6474675ea3c317d498365ac7d28af8740f4608b12894b433835ecc9",
      "hash": "ca990bd8b6474675ea3c317d498365ac7d28af8740f4608b12894b433835ecc9",
      "version": 1,
      "size": 135,
      "vsize": 135,
      "weight": 540,
      "locktime": 0,
      "vin": [
        {
          "coinbase": "04ffff001d020f08",
          "sequence": 4294967295
        }
      ],
      "vout": [
        {
          "value": 50.0,
          "n": 0,
          "scriptPubKey": {
            "asm": "047dd8067efc50682dfde1ba3dc2583ebd0131e1a6184d0694478b5b6cb8d61df448316639a6bd3067256a6b01d1532dc69a907693d6c96074515b0d25efe49f62 OP_CHECKSIG",
            "desc": "pk(047dd8067efc50682dfde1ba3dc2583ebd0131e1a6184d0694478b5b6cb8d61df448316639a6bd3067256a6b01d1532dc69a907693d6c96074515b0d25efe49f62)#qa93z6qm",
            "hex": "41047dd8067efc50682dfde1ba3dc2583ebd0131e1a6184d0694478b5b6cb8d61df448316639a6bd3067256a6b01d1532dc69a907693d6c96074515b0d25efe49f62ac",
            "type": "pubkey"
          }
        }
      ],
      "hex": "01000000010000000000000000000000000000000000000000000000000000000000000000ffffffff0804ffff001d020f08ffffffff0100f2052a010000004341047dd8067efc50682dfde1ba3dc2583ebd0131e1a6184d0694478b5b6cb8d61df448316639a6bd3067256a6b01d1532dc69a907693d6c96074515b0d25efe49f62ac00000000"
    }
  ]
}