{
  "hash": "00000000a2df4dc128c18a1dedfa47412ed65e891bbe90f7cf76fdbd340b71f3",
  "confirmations": 43954,
  "height": 9144,
  "version": 1,
  "versionHex": "00000001",
  "merkleroot": "23a6b1458302deeeea14e8d754ecebe7a4301c55223f05e9dc4f05751124b49e",
  "time": 1238364051,
  "mediantime": 1238360231,
  "nonce": 3545259822,
  "bits": "1d00ffff",
  "difficulty": 1,
  "chainwork": "000000000000000000000000000000000000000000000000000023b923b923b9",
  "nTx": 1,
  "previousblockhash": "0000000014af7149075396d071a46c047198ed6747b2b5bfeaa30bd2802e1e02",
  "nextblockhash": "0000000066f3787b1b95fda31ace10c2b0b3f673fbf456dc3bf993e58aeaee68",
  "strippedsize": 216,
  "size": 216,
  "weight": 864,
  "tx": [
    {
      "txid": "23a6b1458302deeeea14e8d754ecebe7a4301c55223f05e9dc4f05751124b49e",
      "hash": "23a6b1458302deeeea14e8d754ecebe7a4301c55223f05e9dc4f05751124b49e",
      "version": 1,
      "size": 135,
      "vsize": 135,
      "weight": 540,
      "locktime": 0,
      "vin": [
        {
          "coinbase": "04ffff001d023809",
          "sequence": 4294967295
        }
      ],
      "vout": [
        {
          "value": 50.0,
          "n": 0,
          "scriptPubKey": {
            "asm": "04a2141d13d80af534018e2b1e9429dbfec414ac28b4196f8ec3b28e53d871918f6971626eb71d8c56dd98eb7ef44f4a22c2f6520cbed6911e83c09dc7a54e1852 OP_CHECKSIG",
            "desc": "pk(04a2141d13d80af534018e2b1e9429dbfec414ac28b4196f8ec3b28e53d871918f6971626eb71d8c56dd98eb7ef44f4a22c2f6520cbed6911e83c09dc7a54e1852)#4jn84mcq",
            "hex": "4104a2141d13d80af534018e2b1e9429dbfec414ac28b4196f8ec3b28e53d871918f6971626eb71d8c56dd98eb7ef44f4a22c2f6520cbed6911e83c09dc7a54e1852ac",
            "type": "pubkey"
          }
        }
      ],
      "hex": "01000000010000000000000000000000000000000000000000000000000000000000000000ffffffff0804ffff001d023809ffffffff0100f2052a01000000434104a2141d13d80af534018e2b1e9429dbfec414ac28b4196f8ec3b28e53d871918f6971626eb71d8c56dd98eb7ef44f4a22c2f6520cbed6911e83c09dc7a54e1852ac00000000"
    }
  ]
}