{
  "hash": "000000001ae61609f1fc79036377ef6f119363175c8eb152ca1c13d115427da5",
  "confirmations": 43681,
  "height": 9417,
  "version": 1,
  "versionHex": "00000001",
  "merkleroot": "5b3c76898b2c82b40834378bd530cc949ec1ce3fdb50bb642d8397f5fb337f0a",
  "time": 1238566287,
  "mediantime": 1238562698,
  "nonce": 1287436581,
  "bits": "1d00ffff",
  "difficulty": 1,
  "chainwork": "000000000000000000000000000000000000000000000000000024ca24ca24ca",
  "nTx": 1,
  "previousblockhash": "00000000c30dfd2ed5be57055c7b9feb276a7b6771e4b521d6db46f7c19aea4d",
  "nextblockhash": "00000000c2f448fe90300b26b9adfe2d2060ae8d46d58b5d2b8435953237ad55",
  "strippedsize": 216,
  "size": 216,
  "weight": 864,
  "tx": [
    {
      "txid": "5b3c76898b2c82b40834378bd530cc949ec1ce3fdb50bb642d8397f5fb337f0a",
      "hash": "5b3c76898b2c82b40834378bd530cc949ec1ce3fdb50bb642d8397f5fb337f0a",
      "version": 1,
      "size": 135,
      "vsize": 135,
      "weight": 540,
      "locktime": 0,
      "vin": [
        {
          "coinbase": "04ffff001d02f303",
          "sequence": 4294967295
        }
      ],
      "vout": [
        {
          "value": 50.0,
          "n": 0,
          "scriptPubKey": {
            "asm": "047f5b09ab27e913ba0bcf046af581de4a72b21162d8e2b9a40a7e6d34a288477941b5d026dda584d5228f14fd0f880069d88c83ae2b2481ab9383646b49378dc3 OP_CHECKSIG",
            "desc": "pk(047f5b09ab27e913ba0bcf046af581de4a72b21162d8e2b9a40a7e6d34a288477941b5d026dda584d5228f14fd0f880069d88c83ae2b2481ab9383646b49378dc3)#9mv8wtcm",
            "hex": "41047f5b09ab27e913ba0bcf046af581de4a72b21162d8e2b9a40a7e6d34a288477941b5d026dda584d5228f14fd0f880069d88c83ae2b2481ab9383646b49378dc3ac",
            "type": "pubkey"
          }
        }
      ],
      "hex": "01000000010000000000000000000000000000000000000000000000000000000000000000ffffffff0804ffff001d02f303ffffffff0100f2052a010000004341047f5b09ab27e913ba0bcf046af581de4a72b21162d8e2b9a40a7e6d34a288477941b5d026dda584d5228f14fd0f880069d88c83ae2b2481ab9383646b49378dc3ac00000000"
    }
  ]
}