{
  "hash": "00000000852cdd8fbc5098c192225567123d44b737f4581c3b1b395e60ff78a7",
  "confirmations": 43370,
  "height": 9728,
  "version": 1,
  "versionHex": "00000001",
  "merkleroot": "e65163d1b7dd1f48afc0239e3539f282ed2fe2c7c4e12585a5fc471f0969a921",
  "time": 1238798644,
  "mediantime": 1238796171,
  "nonce": 332586017,
  "bits": "1d00ffff",
  "difficulty": 1,
  "chainwork": "0000000000000000000000000000000000000000000000000000260126012601",
  "nTx": 1,
  "previousblockhash": "00000000a0d6037de3246522df44099aeb5d9bdc34906ac1a7654f1485c88425",
  "nextblockhash": "0000000075d570602de5c172f1c16a5d6f7f3ffd063a6c413042863742ec3473",
  "strippedsize": 216,
  "size": 216,
  "weight": 864,
  "tx": [
    {
      "txid": "e65163d1b7dd1f48afc0239e3539f282ed2fe2c7c4e12585a5fc471f0969a921",
      "hash": "e65163d1b7dd1f48afc0239e3539f282ed2fe2c7c4e12585a5fc471f0969a921",
      "version": 1,
      "size": 135,
      "vsize": 135,
      "weight": 540,
      "locktime": 0,
      "vin": [
        {
          "coinbase": "04ffff001d02fc08",
          "sequence": 4294967295
        }
      ],
      "vout": [
        {
          "value": 50.0,
          "n": 0,
          "scriptPubKey": {
            "asm": "0482e262d6622b5e9f406162cf50d8eaeac96ddc294f71756bb53f96a16b23b71fe28a4092e9dfc3dbd039aa9b7a1ab1313d32fe31f6e78266654a6581a9997e02 OP_CHECKSIG",
            "desc": "pk(0482e262d6622b5e9f406162cf50d8eaeac96ddc294f71756bb53f96a16b23b71fe28a4092e9dfc3dbd039aa9b7a1ab1313d32fe31f6e78266654a6581a9997e02)#xyp2nwqc",
            "hex": "410482e262d6622b5e9f406162cf50d8eaeac96ddc294f71756bb53f96a16b23b71fe28a4092e9dfc3dbd039aa9b7a1ab1313d32fe31f6e78266654a6581a9997e02ac",
            "type": "pubkey"
          }
        }
      ],
      "hex": "01000000010000000000000000000000000000000000000000000000000000000000000000ffffffff0804ffff001d02fc08ffffffff0100f2052a0100000043410482e262d6622b5e9f406162cf50d8eaeac96ddc294f71756bb53f96a16b23b71fe28a4092e9dfc3dbd039aa9b7a1ab1313d32fe31f6e78266654a6581a9997e02ac00000000"
    }
  ]
}