{
  "hash": "00000000d38aa0ceedf6d3f41b61e7c66f4ddbe7b4eb75ada23e47b4fb9c2fa9",
  "confirmations": 46424,
  "height": 6674,
  "version": 1,
  "versionHex": "00000001",
  "merkleroot": "6b267c4edfa1ea4c5c6d63760951c25a8570dfc203f823b016e1896c21533285",
  "time": 1236463945,
  "mediantime": 1236458787,
  "nonce": 34478232,
  "bits": "1d00ffff",
  "difficulty": 1,
  "chainwork": "00000000000000000000000000000000000000000000000000001a131a131a13",
  "nTx": 1,
  "previousblockhash": "00000000c112fdf3d5bf38d58944c1eeeaa06e77986351a835dd442129c96baf",
  "nextblockhash": "000000006bdf4ca84bdb8f2bb54e3955e55ea0b3c6b3f9dc1dc929b6fb570755",
  "strippedsize": 216,
  "size": 216,
  "weight": 864,
  "tx": [
    {
      "txid": "6b267c4edfa1ea4c5c6d63760951c25a8570dfc203f823b016e1896c21533285",
      "hash": "6b267c4edfa1ea4c5c6d63760951c25a8570dfc203f823b016e1896c21533285",
      "version": 1,
      "size": 135,
      "vsize": 135,
      "weight": 540,
      "locktime": 0,
      "vin": [
        {
          "coinbase": "04ffff001d020802",
          "sequence": 4294967295
        }
      ],
      "vout": [
        {
          "value": 50.0,
          "n": 0,
          "scriptPubKey": {
            "asm": "04f06deb51750a65b8bd4a75158f5581a3ab5a4a39de6d42f7768dacce20fc64e09f7491192bc8d36165b0ec36077c1a7fb2cf009c2e56c5cf80f1060df4ad9b51 OP_CHECKSIG",
            "desc": "pk(04f06deb51750a65b8bd4a75158f5581a3ab5a4a39de6d42f7768dacce20fc64e09f7491192bc8d36165b0ec36077c1a7fb2cf009c2e56c5cf80f1060df4ad9b51)#7ucdf00h",
            "hex": "4104f06deb51750a65b8bd4a75158f5581a3ab5a4a39de6d42f7768dacce20fc64e09f7491192bc8d36165b0ec36077c1a7fb2cf009c2e56c5cf80f1060df4ad9b51ac",
            "type": "pubkey"
          }
        }
      ],
      "hex": "01000000010000000000000000000000000000000000000000000000000000000000000000ffffffff0804ffff001d020802ffffffff0100f2052a01000000434104f06deb51750a65b8bd4a75158f5581a3ab5a4a39de6d42f7768dacce20fc64e09f7491192bc8d36165b0ec36077c1a7fb2cf009c2e56c5cf80f1060df4ad9b51ac00000000"
    }
  ]
}