{
  "hash": "00000000d7c1cc9c3b971360e854059298ae70a0d1a410a9aad67d49663088e1",
  "confirmations": 52200,
  "height": 898,
  "version": 1,
  "versionHex": "00000001",
  "merkleroot": "3ef208172ed0e3d4121a1640350277d5a61c6baa577ef26d51bd6b009732269c",
  "time": 1232274205,
  "mediantime": 1232269231,
  "nonce": 608768289,
  "bits": "1d00ffff",
  "difficulty": 1,
  "chainwork": "0000000000000000000000000000000000000000000000000000038303830383",
  "nTx": 1,
  "previousblockhash": "00000000306d8ff2a054d739a88fea4d9fd453508571331ca944099ea77c3b0c",
  "nextblockhash": "00000000679a9b4bd9ee14552dd3bcc8330c75aa76191dd2c112db1ceee4926d",
  "strippedsize": 216,
  "size": 216,
  "weight": 864,
  "tx": [
    {
      "txid": "3ef208172ed0e3d4121a1640350277d5a61c6baa577ef26d51bd6b009732269c",
      "hash": "3ef208172ed0e3d4121a1640350277d5a61c6baa577ef26d51bd6b009732269c",
      "version": 1,
      "size": 135,
      "vsize": 135,
      "weight": 540,
      "locktime": 0,
      "vin": [
        {
          "coinbase": "04ffff001d02a403",
          "sequence": 4294967295
        }
      ],
      "vout": [
        {
          "value": 50.0,
          "n": 0,
          "scriptPubKey": {
            "asm": "04838e1c25f8264c643b4d9cef7ae39afeafa77bfa9525bc3c555e55f0203230738140fc4fb96446a94724719e267a2b0923582e27aab4f11c8b2b27a739354401 OP_CHECKSIG",
            "desc": "pk(04838e1c25f8264c643b4d9cef7ae39afeafa77bfa9525bc3c555e55f0203230738140fc4fb96446a94724719e267a2b0923582e27aab4f11c8b2b27a739354401)#ef87dkuj",
            "hex": "4104838e1c25f8264c643b4d9cef7ae39afeafa77bfa9525bc3c555e55f0203230738140fc4fb96446a94724719e267a2b0923582e27aab4f11c8b2b27a739354401ac",
            "type": "pubkey"
          }
        }
      ],
      "hex": "01000000010000000000000000000000000000000000000000000000000000000000000000ffffffff0804ffff001d02a403ffffffff0100f2052a01000000434104838e1c25f8264c643b4d9cef7ae39afeafa77bfa9525bc3c555e55f0203230738140fc4fb96446a94724719e267a2b0923582e27aab4f11c8b2b27a739354401ac00000000"
    }
  ]
}