{
  "hash": "00000000de396209129b1c7a002a6bf0fb951794e2009c0e384763ac21359947",
  "confirmations": 49745,
  "height": 3353,
  "version": 1,
  "versionHex": "00000001",
  "merkleroot": "8d30491e68ba108613cd6a33cf2a5ed0a38df3f3d855bc48cd1fee76f693456a",
  "time": 1234006253,
  "mediantime": 1234002674,
  "nonce": 1773802794,
  "bits": "1d00ffff",
  "difficulty": 1,
  "chainwork": "00000000000000000000000000000000000000000000000000000d1a0d1a0d1a",
  "nTx": 1,
  "previousblockhash": "00000000f85b5decee1e69250bbcd5a9b8745e5e547b4de8f4d7868a7b9b7468",
  "nextblockhash": "00000000d72ce9b5dfc502f0220cf57d39a001a39482223249a32b8853aafaec",
  "strippedsize": 216,
  "size": 216,
  "weight": 864,
  "tx": [
    {
      "txid": "8d30491e68ba108613cd6a33cf2a5ed0a38df3f3d855bc48cd1fee76f693456a",
      "hash": "8d30491e68ba108613cd6a33cf2a5ed0a38df3f3d855bc48cd1fee76f693456a",
      "version": 1,
      "size": 135,
      "vsize": 135,
      "weight": 540,
      "locktime": 0,
      "vin": [
        {
          "coinbase": "04ffff001d021d05",
          "sequence": 4294967295
        }
      ],
      "vout": [
        {
          "value": 50.0,
          "n": 0,
          "scriptPubKey": {
            "asm": "0421dc63506e3c4b4b3f97e773098329f5a5272b3f2e2e1b6953c276122bd771f42506b6e9485db2857c60f1d6beb988aaaea39dca409ae3b9244dab7ed665f625 OP_CHECKSIG",
            "desc": "pk(0421dc63506e3c4b4b3f97e773098329f5a5272b3f2e2e1b6953c276122bd771f42506b6e9485db2857c60f1d6beb988aaaea39dca409ae3b9244dab7ed665f625)#lpg2c3pf",
            "hex": "410421dc63506e3c4b4b3f97e773098329f5a5272b3f2e2e1b6953c276122bd771f42506b6e9485db2857c60f1d6beb988aaaea39dca409ae3b9244dab7ed665f625ac",
            "type": "pubkey"
          }
        }
      ],
      "hex": "01000000010000000000000000000000000000000000000000000000000000000000000000ffffffff0804ffff001d021d05ffffffff0100f2052a0100000043410421dc63506e3c4b4b3f97e773098329f5a5272b3f2e2e1b6953c276122bd771f42506b6e9485db2857c60f1d6beb988aaaea39dca409ae3b9244dab7ed665f625ac00000000"
    }
  ]
}