{
  "hash": "00000000523bb635c3a4a4a289ea466db478470819de1e06e875b54b5f2b0f6c",
  "confirmations": 47773,
  "height": 5325,
  "version": 1,
  "versionHex": "00000001",
  "merkleroot": "0b0e785953c0980d80e6c062b962e7d50693ae9e4e81a5552f274007a838dbc7",
  "time": 1235382797,
  "mediantime": 1235379296,
  "nonce": 1834593792,
  "bits": "1d00ffff",
  "difficulty": 1,
  "chainwork": "000000000000000000000000000000000000000000000000000014ce14ce14ce",
  "nTx": 1,
  "previousblockhash": "0000000028a1d7efcb39397fe3ec2842c283f2673bf3aa71a15ae846c761716d",
  "nextblockhash": "000000000c39b194e62df9eb698346a7b804419e57c3a1920ca9b89309a17386",
  "strippedsize": 216,
  "size": 216,
  "weight": 864,
  "tx": [
    {
      "txid": "0b0e785953c0980d80e6c062b962e7d50693ae9e4e81a5552f274007a838dbc7",
      "hash": "0b0e785953c0980d80e6c062b962e7d50693ae9e4e81a5552f274007a838dbc7",
      "version": 1,
      "size": 135,
      "vsize": 135,
      "weight": 540,
      "locktime": 0,
      "vin": [
        {
          "coinbase": "04ffff001d026602",
          "sequence": 4294967295
        }
      ],
      "vout": [
        {
          "value": 50.0,
          "n": 0,
          "scriptPubKey": {
            "asm": "04fd064afa5987ae5fe02045ea5fc1ebc957607126123fd02859305248a256f8d80a665972fe4d89f5e1e55f4d06447ec9099c674635ddb6aaa02c76eacf4bb609 OP_CHECKSIG",
            "desc": "pk(04fd064afa5987ae5fe02045ea5fc1ebc957607126123fd02859305248a256f8d80a665972fe4d89f5e1e55f4d06447ec9099c674635ddb6aaa02c76eacf4bb609)#fsw05735",
            "hex": "4104fd064afa5987ae5fe02045ea5fc1ebc957607126123fd02859305248a256f8d80a665972fe4d89f5e1e55f4d06447ec9099c674635ddb6aaa02c76eacf4bb609ac",
            "type": "pubkey"
          }
        }
      ],
      "hex": "01000000010000000000000000000000000000000000000000000000000000000000000000ffffffff0804ffff001d026602ffffffff0100f2052a01000000434104fd064afa5987ae5fe02045ea5fc1ebc957607126123fd02859305248a256f8d80a665972fe4d89f5e1e55f4d06447ec9099c674635ddb6aaa02c76eacf4bb609ac00000000"
    }
  ]
}