{
  "hash": "0000000080531d52d3c5d4b517a81ae1a10b958b93c0c17f10754da0c638e362",
  "confirmations": 52015,
  "height": 1083,
  "version": 1,
  "versionHex": "00000001",
  "merkleroot": "3a95fb7f8fe2119afe4ac12321386c5223e6a43c6f5535ab6dd6480af4a6ff22",
  "time": 1232411392,
  "mediantime": 1232407662,
  "nonce": 191487173,
  "bits": "1d00ffff",
  "difficulty": 1,
  "chainwork": "0000000000000000000000000000000000000000000000000000043c043c043c",
  "nTx": 1,
  "previousblockhash": "00000000b9f66944817ba67b775004d0db2b3590d2babdd53336e71dbc390f58",
  "nextblockhash": "00000000279454a36be308b8643fa0a0f9c7785b402efcf7ac42d165d402cc94",
  "strippedsize": 215,
  "size": 215,
  "weight": 860,
  "tx": [
    {
      "txid": "3a95fb7f8fe2119afe4ac12321386c5223e6a43c6f5535ab6dd6480af4a6ff22",
      "hash": "3a95fb7f8fe2119afe4ac12321386c5223e6a43c6f5535ab6dd6480af4a6ff22",
      "version": 1,
      "size": 134,
      "vsize": 134,
      "weight": 536,
      "locktime": 0,
      "vin": [
        {
          "coinbase": "04ffff001d0142",
          "sequence": 4294967295
        }
      ],
      "vout": [
        {
          "value": 50.0,
          "n": 0,
          "scriptPubKey": {
            "asm": "04e992d886223f764e07ece5c70cfbcf97bff27f438a6ef9d7f579ab2123fe3e791e965d73d9361688d1547de0731ac7dd17601cd884e548c82ec516191ee53b83 OP_CHECKSIG",
            "desc": "pk(04e992d886223f764e07ece5c70cfbcf97bff27f438a6ef9d7f579ab2123fe3e791e965d73d9361688d1547de0731ac7dd17601cd884e548c82ec516191ee53b83)#m8naj86d",
            "hex": "4104e992d886223f764e07ece5c70cfbcf97bff27f438a6ef9d7f579ab2123fe3e791e965d73d9361688d1547de0731ac7dd17601cd884e548c82ec516191ee53b83ac",
            "type": "pubkey"
          }
        }
      ],
      "hex": "01000000010000000000000000000000000000000000000000000000000000000000000000ffffffff0704ffff001d0142ffffffff0100f2052a01000000434104e992d886223f764e07ece5c70cfbcf97bff27f438a6ef9d7f579ab2123fe3e791e965d73d9361688d1547de0731ac7dd17601cd884e548c82ec516191ee53b83ac00000000"
    }
  ]
}