{
  "hash": "00000000fa194d73503b3c2195de33f526e3ff5731005b93a75de60776a44ce9",
  "confirmations": 46885,
  "height": 6213,
  "version": 1,
  "versionHex": "00000001",
  "merkleroot": "b725c4e809c23d74b1d3ce20b27135b714c1d872d2d16e7ce36d5247e29c0608",
  "time": 1236102767,
  "mediantime": 1236097458,
  "nonce": 2303965473,
  "bits": "1d00ffff",
  "difficulty": 1,
  "chainwork": "0000000000000000000000000000000000000000000000000000184618461846",
  "nTx": 1,
  "previousblockhash": "0000000052b0361fae7eb7b7612b34b7c8f13b3d88fb4046af83b3b0e9d2fc58",
  "nextblockhash": "00000000391ccdccc5b028199f8570b6f21f5595665ea6f0416a3c50cf4a283c",
  "strippedsize": 216,
  "size": 216,
  "weight": 864,
  "tx": [
    {
      "txid": "b725c4e809c23d74b1d3ce20b27135b714c1d872d2d16e7ce36d5247e29c0608",
      "hash": "b725c4e809c23d74b1d3ce20b27135b714c1d872d2d16e7ce36d5247e29c0608",
      "version": 1,
      "size": 135,
      "vsize": 135,
      "weight": 540,
      "locktime": 0,
      "vin": [
        {
          "coinbase": "04ffff001d02b508",
          "sequence": 4294967295
        }
      ],
      "vout": [
        {
          "value": 50.0,
          "n": 0,
          "scriptPubKey": {
            "asm": "04b47865cab229b956ca4243e5bd02db5176f256ab6242c68fc4f6e3f47d6c2655b4911d40e29f624cc787e56e02d5ac553f7ed3713f98f18b2dfab4ac1d1d609d OP_CHECKSIG",
            "desc": "pk(04b47865cab229b956ca4243e5bd02db5176f256ab6242c68fc4f6e3f47d6c2655b4911d40e29f624cc787e56e02d5ac553f7ed3713f98f18b2dfab4ac1d1d609d)#fcwn5pzm",
            "hex": "4104b47865cab229b956ca4243e5bd02db5176f256ab6242c68fc4f6e3f47d6c2655b4911d40e29f624cc787e56e02d5ac553f7ed3713f98f18b2dfab4ac1d1d609dac",
            "type": "pubkey"
          }
        }
      ],
      "hex": "01000000010000000000000000000000000000000000000000000000000000000000000000ffffffff0804ffff001d02b508ffffffff0100f2052a01000000434104b47865cab229b956ca4243e5bd02db5176f256ab6242c68fc4f6e3f47d6c2655b4911d40e29f624cc787e56e02d5ac553f7ed3713f98f18b2dfab4ac1d1d609dac00000000"
    }
  ]
}