{
  "hash": "00000000b724efff8f4676451ae39f9fdf73e9e1f756dd6d8c69fe6ed0ed1f4d",
  "confirmations": 51025,
  "height": 2073,
  "version": 1,
  "versionHex": "00000001",
  "merkleroot": "53b8d7f9b9a89eb4ac766332d91cf8b69a5cb41d8ac3dbe39ee94b76da1db77d",
  "time": 1233117486,
  "mediantime": 1233113945,
  "nonce": 3075060778,
  "bits": "1d00ffff",
  "difficulty": 1,
  "chainwork": "0000000000000000000000000000000000000000000000000000081a081a081a",
  "nTx": 1,
  "previousblockhash": "00000000a14bb926208eb6326310d9054de589be3a9d6217130bcbf401dec5fb",
  "nextblockhash": "000000006fb214a441e0beccf10a78c946eddeeacf0bb8f658fa895a498f20a0",
  "strippedsize": 216,
  "size": 216,
  "weight": 864,
  "tx": [
    {
      "txid": "53b8d7f9b9a89eb4ac766332d91cf8b69a5cb41d8ac3dbe39ee94b76da1db77d",
      "hash": "53b8d7f9b9a89eb4ac766332d91cf8b69a5cb41d8ac3dbe39ee94b76da1db77d",
      "version": 1,
      "size": 135,
      "vsize": 135,
      "weight": 540,
      "locktime": 0,
      "vin": [
        {
          "coinbase": "04ffff001d024303",
          "sequence": 4294967295
        }
      ],
      "vout": [
        {
          "value": 50.0,
          "n": 0,
          "scriptPubKey": {
            "asm": "046ffa36175c421974cf7ba6495e06de4a8e93ac39c83d140d54f81be5d4657e214c10e269d34dfc7452083caeb9838f5a4c89424a35b62a95d7df504c24260c3a OP_CHECKSIG",
            "desc": "pk(046ffa36175c421974cf7ba6495e06de4a8e93ac39c83d140d54f81be5d4657e214c10e269d34dfc7452083caeb9838f5a4c89424a35b62a95d7df504c24260c3a)#88zat7rd",
            "hex": "41046ffa36175c421974cf7ba6495e06de4a8e93ac39c83d140d54f81be5d4657e214c10e269d34dfc7452083caeb9838f5a4c89424a35b62a95d7df504c24260c3aac",
            "type": "pubkey"
          }
        }
      ],
      "hex": "01000000010000000000000000000000000000000000000000000000000000000000000000ffffffff0804ffff001d024303ffffffff0100f2052a010000004341046ffa36175c421974cf7ba6495e06de4a8e93ac39c83d140d54f81be5d4657e214c10e269d34dfc7452083caeb9838f5a4c89424a35b62a95d7df504c24260c3aac00000000"
    }
  ]
}