{
  "hash": "00000000a165e7fd7ed07f753fea6acda46f374003c7acf3e0fc508b65376b6a",
  "confirmations": 52023,
  "height": 315,
  "version": 1,
  "versionHex": "00000001",
  "merkleroot": "4db3c5ee3446c90c30841d1c0ae3c82fd7e9b2e870d2e6dc26cb2bfd45b32425",
  "time": 1231843597,
  "mediantime": 1231840002,
  "nonce": 4010322950,
  "bits": "1d00ffff",
  "difficulty": 1,
  "chainwork": "0000000000000000000000000000000000000000000000000000013c013c013c",
  "nTx": 1,
  "previousblockhash": "00000000c1d6c5079f4f15ca5d70c4e2726a0cbadb7af5e846259dbda57fab70",
  "nextblockhash": "00000000790a957603fc7b301dfca1c8dd93837a6af49c87c85119e9335478ab",
  "strippedsize": 216,
  "size": 216,
  "weight": 864,
  "tx": [
    {
      "txid": "4db3c5ee3446c90c30841d1c0ae3c82fd7e9b2e870d2e6dc26cb2bfd45b32425",
      "hash": "4db3c5ee3446c90c30841d1c0ae3c82fd7e9b2e870d2e6dc26cb2bfd45b32425",
      "version": 1,
      "size": 135,
      "vsize": 135,
      "weight": 540,
      "locktime": 0,
      "vin": [
        {
          "coinbase": "04ffff001d02bd00",
          "sequence": 4294967295
        }
      ],
      "vout": [
        {
          "value": 50.0,
          "n": 0,
          "scriptPubKey": {
            "asm": "04c2bc064c46daa7817e8136801305f0da508443556cea17ee3746045834be8e8be6741f17e1a729adcccf13f4306473f79ca8bf9e3c1b3028bcc3f00780fb5239 OP_CHECKSIG",
            "desc": "pk(04c2bc064c46daa7817e8136801305f0da508443556cea17ee3746045834be8e8be6741f17e1a729adcccf13f4306473f79ca8bf9e3c1b3028bcc3f00780fb5239)#qg4rr7ku",
            "hex": "4104c2bc064c46daa7817e8136801305f0da508443556cea17ee3746045834be8e8be6741f17e1a729adcccf13f4306473f79ca8bf9e3c1b3028bcc3f00780fb5239ac",
            "type": "pubkey"
          }
        }
      ],
      "hex": "01000000010000000000000000000000000000000000000000000000000000000000000000ffffffff0804ffff001d02bd00ffffffff0100f2052a01000000434104c2bc064c46daa7817e8136801305f0da508443556cea17ee3746045834be8e8be6741f17e1a729adcccf13f4306473f79ca8bf9e3c1b3028bcc3f00780fb5239ac00000000"
    }
  ]
}