{
  "hash": "00000000531e4155ba3c359f0e4f20265e20139284e18a75bc3baf77f8bfe414",
  "confirmations": 49010,
  "height": 4088,
  "version": 1,
  "versionHex": "00000001",
  "merkleroot": "340859f6c49671fa3bb7607fce22f54d089909c5f34d4811e251c4d8797530d2",
  "time": 1234503464,
  "mediantime": 1234499269,
  "nonce": 4290710563,
  "bits": "1d00ffff",
  "difficulty": 1,
  "chainwork": "00000000000000000000000000000000000000000000000000000ff90ff90ff9",
  "nTx": 1,
  "previousblockhash": "0000000002f0206f5468039bea2bdeeeb065dfb86ecf498458df45cbc389de7c",
  "nextblockhash": "00000000fd9df872a0a506799764e1814c70cff9bd058f9cc1c67e856be05170",
  "strippedsize": 216,
  "size": 216,
  "weight": 864,
  "tx": [
    {
      "txid": "340859f6c49671fa3bb7607fce22f54d089909c5f34d4811e251c4d8797530d2",
      "hash": "340859f6c49671fa3bb7607fce22f54d089909c5f34d4811e251c4d8797530d2",
      "version": 1,
      "size": 135,
      "vsize": 135,
      "weight": 540,
      "locktime": 0,
      "vin": [
        {
          "coinbase": "04ffff001d02cf05",
          "sequence": 4294967295
        }
      ],
      "vout": [
        {
          "value": 50.0,
          "n": 0,
          "scriptPubKey": {
            "asm": "044401e7a51fdf22440163e444755476506b7d10b0e26f856003b7516c511af234c5138198b6c5e122995e40580a784e721a94968e6f101f4aef75856fafa4e0ad OP_CHECKSIG",
            "desc": "pk(044401e7a51fdf22440163e444755476506b7d10b0e26f856003b7516c511af234c5138198b6c5e122995e40580a784e721a94968e6f101f4aef75856fafa4e0ad)#mdnd89kr",
            "hex": "41044401e7a51fdf22440163e444755476506b7d10b0e26f856003b7516c511af234c5138198b6c5e122995e40580a784e721a94968e6f101f4aef75856fafa4e0adac",
            "type": "pubkey"
          }
        }
      ],
      "hex": "01000000010000000000000000000000000000000000000000000000000000000000000000ffffffff0804ffff001d02cf05ffffffff0100f2052a010000004341044401e7a51fdf22440163e444755476506b7d10b0e26f856003b7516c511af234c5138198b6c5e122995e40580a784e721a94968e6f101f4aef75856fafa4e0adac00000000"
    }
  ]
}