{
  "hash": "00000000ccb320a356fdfb47e4cd9ebb22e4c294e23bd316aaeaef1701058c9e",
  "confirmations": 50775,
  "height": 2323,
  "version": 1,
  "versionHex": "00000001",
  "merkleroot": "0ec54f2edd9eb242494f1b4c1722209e2e2e931af42e2cb345954666539e7d0a",
  "time": 1233296826,
  "mediantime": 1233294034,
  "nonce": 7678524,
  "bits": "1d00ffff",
  "difficulty": 1,
  "chainwork": "0000000000000000000000000000000000000000000000000000091409140914",
  "nTx": 1,
  "previousblockhash": "00000000cb47a64e56fd6b5281024931710888376df90d9f8dfbf706275bfb98",
  "nextblockhash": "00000000c0eb042f3e6a51a8c5f4f0c0350724affae79436f0fb315b94ed8cf5",
  "strippedsize": 216,
  "size": 216,
  "weight": 864,
  "tx": [
    {
      "txid": "0ec54f2edd9eb242494f1b4c1722209e2e2e931af42e2cb345954666539e7d0a",
      "hash": "0ec54f2edd9eb242494f1b4c1722209e2e2e931af42e2cb345954666539e7d0a",
      "version": 1,
      "size": 135,
      "vsize": 135,
      "weight": 540,
      "locktime": 0,
      "vin": [
        {
          "coinbase": "04ffff001d029e00",
          "sequence": 4294967295
        }
      ],
      "vout": [
        {
          "value": 50.0,
          "n": 0,
          "scriptPubKey": {
            "asm": "04b029dd1eaf8d4bdef6dece8309fd79bbea181c15982491b687242cf6f846a79f131b1d3dd70cb0b3ca01a63a18c3808c75e57791a4ed866408ef5959a781e6ab OP_CHECKSIG",
            "desc": "pk(04b029dd1eaf8d4bdef6dece8309fd79bbea181c15982491b687242cf6f846a79f131b1d3dd70cb0b3ca01a63a18c3808c75e57791a4ed866408ef5959a781e6ab)#jxg6fz6h",
            "hex": "4104b029dd1eaf8d4bdef6dece8309fd79bbea181c15982491b687242cf6f846a79f131b1d3dd70cb0b3ca01a63a18c3808c75e57791a4ed866408ef5959a781e6abac",
            "type": "pubkey"
          }
        }
      ],
      "hex": "01000000010000000000000000000000000000000000000000000000000000000000000000ffffffff0804ffff001d029e00ffffffff0100f2052a01000000434104b029dd1eaf8d4bdef6dece8309fd79bbea181c15982491b687242cf6f846a79f131b1d3dd70cb0b3ca01a63a18c3808c75e57791a4ed866408ef5959a781e6abac00000000"
    }
  ]
}