{
  "hash": "00000000f18bd9fbccbdbf97c94b0452572243cf8355ce03204d490ccd19c90f",
  "confirmations": 47535,
  "height": 5563,
  "version": 1,
  "versionHex": "00000001",
  "merkleroot": "2840230aea26cee9635c18549c50980260c244f836b7055045fd30cb5114e5cb",
  "time": 1235572735,
  "mediantime": 1235570026,
  "nonce": 1618156078,
  "bits": "1d00ffff",
  "difficulty": 1,
  "chainwork": "000000000000000000000000000000000000000000000000000015bc15bc15bc",
  "nTx": 1,
  "previousblockhash": "0000000044dd5254c03c119184b8fa2aa777a0afe325ff152ef4dc877277a26a",
  "nextblockhash": "00000000be8627e96b08630d714bd2d2281fee73a4c9d84306379ff1034da4af",
  "strippedsize": 216,
  "size": 216,
  "weight": 864,
  "tx": [
    {
      "txid": "2840230aea26cee9635c18549c50980260c244f836b7055045fd30cb5114e5cb",
      "hash": "2840230aea26cee9635c18549c50980260c244f836b7055045fd30cb5114e5cb",
      "version": 1,
      "size": 135,
      "vsize": 135,
      "weight": 540,
      "locktime": 0,
      "vin": [
        {
          "coinbase": "04ffff001d02dc06",
          "sequence": 4294967295
        }
      ],
      "vout": [
        {
          "value": 50.0,
          "n": 0,
          "scriptPubKey": {
            "asm": "0478b5a74dcb489e87b6db2761608c0982036d8bf8e203530868ca6bf0fe0c1329f3968373595aac900e51877e2d291da81fd5e26a4b7e7c57e073733e3e883923 OP_CHECKSIG",
            "desc": "pk(0478b5a74dcb489e87b6db2761608c0982036d8bf8e203530868ca6bf0fe0c1329f3968373595aac900e51877e2d291da81fd5e26a4b7e7c57e073733e3e883923)#5f9a6s3p",
            "hex": "410478b5a74dcb489e87b6db2761608c0982036d8bf8e203530868ca6bf0fe0c1329f3968373595aac900e51877e2d291da81fd5e26a4b7e7c57e073733e3e883923ac",
            "type": "pubkey"
          }
        }
      ],
      "hex": "01000000010000000000000000000000000000000000000000000000000000000000000000ffffffff0804ffff001d02dc06ffffffff0100f2052a0100000043410478b5a74dcb489e87b6db2761608c0982036d8bf8e203530868ca6bf0fe0c1329f3968373595aac900e51877e2d291da81fd5e26a4b7e7c57e073733e3e883923ac00000000"
    }
  ]
}