{
  "hash": "0000000061b435f518105fbce0d9dd9e75351f3089d5972a07adc905fe32fa0f",
  "confirmations": 46357,
  "height": 6741,
  "version": 1,
  "versionHex": "00000001",
  "merkleroot": "e01b98247365041bd1a4b0b6fcc36ad4e511c1e1ee30d9e1d3a7b241bc1ea8c1",
  "time": 1236513173,
  "mediantime": 1236508540,
  "nonce": 3980155192,
  "bits": "1d00ffff",
  "difficulty": 1,
  "chainwork": "00000000000000000000000000000000000000000000000000001a561a561a56",
  "nTx": 1,
  "previousblockhash": "000000007f533ee5c11b5b8e71e07a960ac16482a0e1c9a53843330f0bb3cfcd",
  "nextblockhash": "00000000d0859da1e40cb5522219d4689c0071444a237c3818d724470ba7f6e8",
  "strippedsize": 216,
  "size": 216,
  "weight": 864,
  "tx": [
    {
      "txid": "e01b98247365041bd1a4b0b6fcc36ad4e511c1e1ee30d9e1d3a7b241bc1ea8c1",
      "hash": "e01b98247365041bd1a4b0b6fcc36ad4e511c1e1ee30d9e1d3a7b241bc1ea8c1",
      "version": 1,
      "size": 135,
      "vsize": 135,
      "weight": 540,
      "locktime": 0,
      "vin": [
        {
          "coinbase": "04ffff001d02ff07",
          "sequence": 4294967295
        }
      ],
      "vout": [
        {
          "value": 50.0,
          "n": 0,
          "scriptPubKey": {
            "asm": "04114e74cd3b28fbceb6a44b34bab9e2bf491897b308a28eedf4b0490c087fa1c9d9deaba240c866050364dd2f795c5fabbb51b505dff598902aee6482065d692a OP_CHECKSIG",
            "desc": "pk(04114e74cd3b28fbceb6a44b34bab9e2bf491897b308a28eedf4b0490c087fa1c9d9deaba240c866050364dd2f795c5fabbb51b505dff598902aee6482065d692a)#rhx9ngjh",
            "hex": "4104114e74cd3b28fbceb6a44b34bab9e2bf491897b308a28eedf4b0490c087fa1c9d9deaba240c866050364dd2f795c5fabbb51b505dff598902aee6482065d692aac",
            "type": "pubkey"
          }
        }
      ],
      "hex": "01000000010000000000000000000000000000000000000000000000000000000000000000ffffffff0804ffff001d02ff07ffffffff0100f2052a01000000434104114e74cd3b28fbceb6a44b34bab9e2bf491897b308a28eedf4b0490c087fa1c9d9deaba240c866050364dd2f795c5fabbb51b505dff598902aee6482065d692aac00000000"
    }
  ]
}