{
  "hash": "00000000a88d6a14d79b7afd292071916cb04899411fcbc83131e86e5f98269b",
  "confirmations": 51418,
  "height": 1680,
  "version": 1,
  "versionHex": "00000001",
  "merkleroot": "dfa8e065c310b6f86479e0dfae4bfcc6416f2d822b72e46661f24c5f1cdcdcbd",
  "time": 1232844161,
  "mediantime": 1232842441,
  "nonce": 3851034902,
  "bits": "1d00ffff",
  "difficulty": 1,
  "chainwork": "0000000000000000000000000000000000000000000000000000069106910691",
  "nTx": 1,
  "previousblockhash": "00000000b4df63292b5cb43548367908d8b998a67c4f8e481a32f4bdb467b3cf",
  "nextblockhash": "00000000af33e1eea00b0c03076f5a06291d59622f39920b53710f0d60fc8489",
  "strippedsize": 216,
  "size": 216,
  "weight": 864,
  "tx": [
    {
      "txid": "dfa8e065c310b6f86479e0dfae4bfcc6416f2d822b72e46661f24c5f1cdcdcbd",
      "hash": "dfa8e065c310b6f86479e0dfae4bfcc6416f2d822b72e46661f24c5f1cdcdcbd",
      "version": 1,
      "size": 135,
      "vsize": 135,
      "weight": 540,
      "locktime": 0,
      "vin": [
        {
          "coinbase": "04ffff001d02f502",
          "sequence": 4294967295
        }
      ],
      "vout": [
        {
          "value": 50.0,
          "n": 0,
          "scriptPubKey": {
            "asm": "045cb74e91dc2a361a4fcd95ae65e474ecb43c7c5c006a5dbb27ddf52e2be5f1e903201a2a3c193ecd5fd0924743ec04533917cd84c6b9b352c7127207e9463ef5 OP_CHECKSIG",
            "desc": "pk(045cb74e91dc2a361a4fcd95ae65e474ecb43c7c5c006a5dbb27ddf52e2be5f1e903201a2a3c193ecd5fd0924743ec04533917cd84c6b9b352c7127207e9463ef5)#fcskuj8d",
            "hex": "41045cb74e91dc2a361a4fcd95ae65e474ecb43c7c5c006a5dbb27ddf52e2be5f1e903201a2a3c193ecd5fd0924743ec04533917cd84c6b9b352c7127207e9463ef5ac",
            "type": "pubkey"
          }
        }
      ],
      "hex": "01000000010000000000000000000000000000000000000000000000000000000000000000ffffffff0804ffff001d02f502ffffffff0100f2052a010000004341045cb74e91dc2a361a4fcd95ae65e474ecb43c7c5c006a5dbb27ddf52e2be5f1e903201a2a3c193ecd5fd0924743ec04533917cd84c6b9b352c7127207e9463ef5ac00000000"
    }
  ]
}