{
  "hash": "00000000ee985adaa7242745800b7702d48558fbc517358be4fb597368f8b217",
  "confirmations": 44655,
  "height": 8443,
  "version": 1,
  "versionHex": "00000001",
  "merkleroot": "f2c7f506b81f9a98216dead4f7fbcb99530b4b2151c75d0e457bfe9bc6d8c1c7",
  "time": 1237826305,
  "mediantime": 1237822742,
  "nonce": 143140462,
  "bits": "1d00ffff",
  "difficulty": 1,
  "chainwork": "000000000000000000000000000000000000000000000000000020fc20fc20fc",
  "nTx": 1,
  "previousblockhash": "00000000c9f65fe6643536baef48c61f1c81a781c4acbf7e3458ef1c2d0427f8",
  "nextblockhash": "00000000f097d15d4a19c0d1d9ebd4847f92c56c1d7e773d01dcff0aabc71e2b",
  "strippedsize": 216,
  "size": 216,
  "weight": 864,
  "tx": [
    {
      "txid": "f2c7f506b81f9a98216dead4f7fbcb99530b4b2151c75d0e457bfe9bc6d8c1c7",
      "hash": "f2c7f506b81f9a98216dead4f7fbcb99530b4b2151c75d0e457bfe9bc6d8c1c7",
      "version": 1,
      "size": 135,
      "vsize": 135,
      "weight": 540,
      "locktime": 0,
      "vin": [
        {
          "coinbase": "04ffff001d020f03",
          "sequence": 4294967295
        }
      ],
      "vout": [
        {
          "value": 50.0,
          "n": 0,
          "scriptPubKey": {
            "asm": "04809561c84a1550eba00fd5cf06212ad75a007983c63398d8fe234b7518f1bba9aa6a139ae42eb20eeff9fbeb35e83af7d59d006ef4132afc61d83246b03f678a OP_CHECKSIG",
            "desc": "pk(04809561c84a1550eba00fd5cf06212ad75a007983c63398d8fe234b7518f1bba9aa6a139ae42eb20eeff9fbeb35e83af7d59d006ef4132afc61d83246b03f678a)#dphjrlzw",
            "hex": "4104809561c84a1550eba00fd5cf06212ad75a007983c63398d8fe234b7518f1bba9aa6a139ae42eb20eeff9fbeb35e83af7d59d006ef4132afc61d83246b03f678aac",
            "type": "pubkey"
          }
        }
      ],
      "hex": "01000000010000000000000000000000000000000000000000000000000000000000000000ffffffff0804ffff001d020f03ffffffff0100f2052a01000000434104809561c84a1550eba00fd5cf06212ad75a007983c63398d8fe234b7518f1bba9aa6a139ae42eb20eeff9fbeb35e83af7d59d006ef4132afc61d83246b03f678aac00000000"
    }
  ]
}