{
  "hash": "00000000f2a0609babed82ee09155eb88ce1fd8466fe3721d76f13982e29bd00",
  "confirmations": 46512,
  "height": 6586,
  "version": 1,
  "versionHex": "00000001",
  "merkleroot": "5ea8e4e875a7eaef14e27c8f443b0452784b8f611cc19f9cb4ece6788a47dba9",
  "time": 1236392964,
  "mediantime": 1236389551,
  "nonce": 3213371704,
  "bits": "1d00ffff",
  "difficulty": 1,
  "chainwork": "000000000000000000000000000000000000000000000000000019bb19bb19bb",
  "nTx": 1,
  "previousblockhash": "00000000f4d5cf9c261c366bdbf152fdd78e50c4cd577e389345ba2822baf208",
  "nextblockhash": "000000002280cc13bf8a16d13f4b2314ce0204a58637c09ceee011ed1e1c0466",
  "strippedsize": 216,
  "size": 216,
  "weight": 864,
  "tx": [
    {
      "txid": "5ea8e4e875a7eaef14e27c8f443b0452784b8f611cc19f9cb4ece6788a47dba9",
      "hash": "5ea8e4e875a7eaef14e27c8f443b0452784b8f611cc19f9cb4ece6788a47dba9",
      "version": 1,
      "size": 135,
      "vsize": 135,
      "weight": 540,
      "locktime": 0,
      "vin": [
        {
          "coinbase": "04ffff001d02d904",
          "sequence": 4294967295
        }
      ],
      "vout": [
        {
          "value": 50.0,
          "n": 0,
          "scriptPubKey": {
            "asm": "04cdaa8be90a262a83372363e2103426dfb59ca9a7653bf83c1b98d786840f867309ac23c7ad6b88f9c6aee6fea47cf979a2c53f4f502d01aaf7de681a8040abd8 OP_CHECKSIG",
            "desc": "pk(04cdaa8be90a262a83372363e2103426dfb59ca9a7653bf83c1b98d786840f867309ac23c7ad6b88f9c6aee6fea47cf979a2c53f4f502d01aaf7de681a8040abd8)#gmgjf62u",
            "hex": "4104cdaa8be90a262a83372363e2103426dfb59ca9a7653bf83c1b98d786840f867309ac23c7ad6b88f9c6aee6fea47cf979a2c53f4f502d01aaf7de681a8040abd8ac",
            "type": "pubkey"
          }
        }
      ],
      "hex": "01000000010000000000000000000000000000000000000000000000000000000000000000ffffffff0804ffff001d02d904ffffffff0100f2052a01000000434104cdaa8be90a262a83372363e2103426dfb59ca9a7653bf83c1b98d786840f867309ac23c7ad6b88f9c6aee6fea47cf979a2c53f4f502d01aaf7de681a8040abd8ac00000000"
    }
  ]
}