{
  "hash": "00000000b3b9813ca08c6e789420db15c3fd8751c56b27c0b3046d651a0bea0c",
  "confirmations": 44724,
  "height": 8374,
  "version": 1,
  "versionHex": "00000001",
  "merkleroot": "7f28c68c27c6be948f191917cab3a94e689d06874f07357e28417e631c6c756a",
  "time": 1237781620,
  "mediantime": 1237779545,
  "nonce": 1085698102,
  "bits": "1d00ffff",
  "difficulty": 1,
  "chainwork": "000000000000000000000000000000000000000000000000000020b720b720b7",
  "nTx": 1,
  "previousblockhash": "000000002a9e31750bdef0772fdb2eb650d8e36231c2f6b4f62d80963bfe99d6",
  "nextblockhash": "00000000218f06574d0365ce488b661121df6b3777e1cd42213e6ed5a13136d2",
  "strippedsize": 216,
  "size": 216,
  "weight": 864,
  "tx": [
    {
      "txid": "7f28c68c27c6be948f191917cab3a94e689d06874f07357e28417e631c6c756a",
      "hash": "7f28c68c27c6be948f191917cab3a94e689d06874f07357e28417e631c6c756a",
      "version": 1,
      "size": 135,
      "vsize": 135,
      "weight": 540,
      "locktime": 0,
      "vin": [
        {
          "coinbase": "04ffff001d026b05",
          "sequence": 4294967295
        }
      ],
      "vout": [
        {
          "value": 50.0,
          "n": 0,
          "scriptPubKey": {
            "asm": "04c2fed0933271e04617e72802803a14837ab6fcaf3e3e7da51d495bed1812dbdf4a2469f6c30d8c78688e87795e90547aa6e0738850c8a0eea1db3134da0ab82d OP_CHECKSIG",
            "desc": "pk(04c2fed0933271e04617e72802803a14837ab6fcaf3e3e7da51d495bed1812dbdf4a2469f6c30d8c78688e87795e90547aa6e0738850c8a0eea1db3134da0ab82d)#g48zy9r5",
            "hex": "4104c2fed0933271e04617e72802803a14837ab6fcaf3e3e7da51d495bed1812dbdf4a2469f6c30d8c78688e87795e90547aa6e0738850c8a0eea1db3134da0ab82dac",
            "type": "pubkey"
          }
        }
      ],
      "hex": "01000000010000000000000000000000000000000000000000000000000000000000000000ffffffff0804ffff001d026b05ffffffff0100f2052a01000000434104c2fed0933271e04617e72802803a14837ab6fcaf3e3e7da51d495bed1812dbdf4a2469f6c30d8c78688e87795e90547aa6e0738850c8a0eea1db3134da0ab82dac00000000"
    }
  ]
}