{
  "hash": "00000000fad7d9b3db7773b6263b902c8d6dabfc5ec36d6941188627393394e6",
  "confirmations": 44949,
  "height": 8149,
  "version": 1,
  "versionHex": "00000001",
  "merkleroot": "f84a067df08f3ebdd85db0da03415dfe9841cb450d6133193f4e329b856f03c3",
  "time": 1237572805,
  "mediantime": 1237568809,
  "nonce": 2712994089,
  "bits": "1d00ffff",
  "difficulty": 1,
  "chainwork": "00000000000000000000000000000000000000000000000000001fd61fd61fd6",
  "nTx": 1,
  "previousblockhash": "00000000060bf8df0264f34e0c5a797e76ee7d7747ad601b2740cdb2444ddbd2",
  "nextblockhash": "00000000a72028741dab34d9e7694d30f0a61f004af107a9ce055b8f82adcf65",
  "strippedsize": 216,
  "size": 216,
  "weight": 864,
  "tx": [
    {
      "txid": "f84a067df08f3ebdd85db0da03415dfe9841cb450d6133193f4e329b856f03c3",
      "hash": "f84a067df08f3ebdd85db0da03415dfe9841cb450d6133193f4e329b856f03c3",
      "version": 1,
      "size": 135,
      "vsize": 135,
      "weight": 540,
      "locktime": 0,
      "vin": [
        {
          "coinbase": "04ffff001d02fd01",
          "sequence": 4294967295
        }
      ],
      "vout": [
        {
          "value": 50.0,
          "n": 0,
          "scriptPubKey": {
            "asm": "0405b03f46c19542b0117e0473b45db868aad6a5bdddba6f120a0b1f6b5dba4ac6933c81531b5c92e6b3bd5f13e7e1bf45bda7a0f71feafc1028bf26ad10f87250 OP_CHECKSIG",
            "desc": "pk(0405b03f46c19542b0117e0473b45db868aad6a5bdddba6f120a0b1f6b5dba4ac6933c81531b5c92e6b3bd5f13e7e1bf45bda7a0f71feafc1028bf26ad10f87250)#wfnffc66",
            "hex": "410405b03f46c19542b0117e0473b45db868aad6a5bdddba6f120a0b1f6b5dba4ac6933c81531b5c92e6b3bd5f13e7e1bf45bda7a0f71feafc1028bf26ad10f87250ac",
            "type": "pubkey"
          }
        }
      ],
      "hex": "01000000010000000000000000000000000000000000000000000000000000000000000000ffffffff0804ffff001d02fd01ffffffff0100f2052a0100000043410405b03f46c19542b0117e0473b45db868aad6a5bdddba6f120a0b1f6b5dba4ac6933c81531b5c92e6b3bd5f13e7e1bf45bda7a0f71feafc1028bf26ad10f87250ac00000000"
    }
  ]
}