{
  "hash": "00000000e0f76cad79c0bb4af567f920bafd257ed493fb86e502447e5f66ab99",
  "confirmations": 44064,
  "height": 9034,
  "version": 1,
  "versionHex": "00000001",
  "merkleroot": "69042f638ecb05a11f351dc43f2e25ce96967d74d89c234701da73d3f1e3ae22",
  "time": 1238277051,
  "mediantime": 1238272814,
  "nonce": 2732616477,
  "bits": "1d00ffff",
  "difficulty": 1,
  "chainwork": "0000000000000000000000000000000000000000000000000000234b234b234b",
  "nTx": 1,
  "previousblockhash": "0000000022f4585cc2153d6e049ff0664f100524da17823b04dd94a9f2aefe4b",
  "nextblockhash": "000000005aa3c1eeadbe8f57e0688f31c19309d17ad649a1e8ea2243895ce565",
  "strippedsize": 216,
  "size": 216,
  "weight": 864,
  "tx": [
    {
      "txid": "69042f638ecb05a11f351dc43f2e25ce96967d74d89c234701da73d3f1e3ae22",
      "hash": "69042f638ecb05a11f351dc43f2e25ce96967d74d89c234701da73d3f1e3ae22",
      "version": 1,
      "size": 135,
      "vsize": 135,
      "weight": 540,
      "locktime": 0,
      "vin": [
        {
          "coinbase": "04ffff001d02f206",
          "sequence": 4294967295
        }
      ],
      "vout": [
        {
          "value": 50.0,
          "n": 0,
          "scriptPubKey": {
            "asm": "04852b38a41cb6a97816e75674b8240f222d480e80e5e9843cfba64b8254d19b910decbf71704bb9689121e7e644e0ae2e4fd9a17537c69d3f70c8a9918e2db856 OP_CHECKSIG",
            "desc": "pk(04852b38a41cb6a97816e75674b8240f222d480e80e5e9843cfba64b8254d19b910decbf71704bb9689121e7e644e0ae2e4fd9a17537c69d3f70c8a9918e2db856)#rsvj8uyl",
            "hex": "4104852b38a41cb6a97816e75674b8240f222d480e80e5e9843cfba64b8254d19b910decbf71704bb9689121e7e644e0ae2e4fd9a17537c69d3f70c8a9918e2db856ac",
            "type": "pubkey"
          }
        }
      ],
      "hex": "01000000010000000000000000000000000000000000000000000000000000000000000000ffffffff0804ffff001d02f206ffffffff0100f2052a01000000434104852b38a41cb6a97816e75674b8240f222d480e80e5e9843cfba64b8254d19b910decbf71704bb9689121e7e644e0ae2e4fd9a17537c69d3f70c8a9918e2db856ac00000000"
    }
  ]
}