{
  "hash": "00000000e6e8e61bfcf9702db23056966c62536890ad0b4bba6864ad915efa5d",
  "confirmations": 47620,
  "height": 5478,
  "version": 1,
  "versionHex": "00000001",
  "merkleroot": "9d3c9b5a6759e82b16243702edbbc02abaee2b8d657810d89073f67440fe281c",
  "time": 1235502545,
  "mediantime": 1235500181,
  "nonce": 49009549,
  "bits": "1d00ffff",
  "difficulty": 1,
  "chainwork": "0000000000000000000000000000000000000000000000000000156715671567",
  "nTx": 1,
  "previousblockhash": "0000000054c9c7fa5bde77cf1eb5b0bc398a5de9ab2886838564f1be68ce26e7",
  "nextblockhash": "00000000cc6ddabd562993839c89fd9d89b4f43191ba6a03c9b8aa997eef6009",
  "strippedsize": 216,
  "size": 216,
  "weight": 864,
  "tx": [
    {
      "txid": "9d3c9b5a6759e82b16243702edbbc02abaee2b8d657810d89073f67440fe281c",
      "hash": "9d3c9b5a6759e82b16243702edbbc02abaee2b8d657810d89073f67440fe281c",
      "version": 1,
      "size": 135,
      "vsize": 135,
      "weight": 540,
      "locktime": 0,
      "vin": [
        {
          "coinbase": "04ffff001d022907",
          "sequence": 4294967295
        }
      ],
      "vout": [
        {
          "value": 50.0,
          "n": 0,
          "scriptPubKey": {
            "asm": "04824ec7cfebff495419492233e7ef3c425545f20bd2fc01f912379c59c9d3e837ea9f06363e72424f6fa4ae010595978e3bf651108d17b5f77f6158c1e835d9e4 OP_CHECKSIG",
            "desc": "pk(04824ec7cfebff495419492233e7ef3c425545f20bd2fc01f912379c59c9d3e837ea9f06363e72424f6fa4ae010595978e3bf651108d17b5f77f6158c1e835d9e4)#42cu3hsu",
            "hex": "4104824ec7cfebff495419492233e7ef3c425545f20bd2fc01f912379c59c9d3e837ea9f06363e72424f6fa4ae010595978e3bf651108d17b5f77f6158c1e835d9e4ac",
            "type": "pubkey"
          }
        }
      ],
      "hex": "01000000010000000000000000000000000000000000000000000000000000000000000000ffffffff0804ffff001d022907ffffffff0100f2052a01000000434104824ec7cfebff495419492233e7ef3c425545f20bd2fc01f912379c59c9d3e837ea9f06363e72424f6fa4ae010595978e3bf651108d17b5f77f6158c1e835d9e4ac00000000"
    }
  ]
}