{
  "hash": "000000002b35e95717d0a6ef2ce84e9ca559d912a9452f661c8b9671590e1933",
  "confirmations": 44430,
  "height": 8668,
  "version": 1,
  "versionHex": "00000001",
  "merkleroot": "0596beef18c955a379a5573f2436d7381961b656997dcafe9147497888e26a0c",
  "time": 1237998313,
  "mediantime": 1237995045,
  "nonce": 2817723684,
  "bits": "1d00ffff",
  "difficulty": 1,
  "chainwork": "000000000000000000000000000000000000000000000000000021dd21dd21dd",
  "nTx": 1,
  "previousblockhash": "000000009852a769270625f40529a344c7f54c1c1ad866deee611b8810a7bef1",
  "nextblockhash": "00000000e5da5e4e1d7a614c5a8ea1adcbf01e7bf3fb4034a71b059338097b47",
  "strippedsize": 215,
  "size": 215,
  "weight": 860,
  "tx": [
    {
      "txid": "0596beef18c955a379a5573f2436d7381961b656997dcafe9147497888e26a0c",
      "hash": "0596beef18c955a379a5573f2436d7381961b656997dcafe9147497888e26a0c",
      "version": 1,
      "size": 134,
      "vsize": 134,
      "weight": 536,
      "locktime": 0,
      "vin": [
        {
          "coinbase": "04ffff001d0152",
          "sequence": 4294967295
        }
      ],
      "vout": [
        {
          "value": 50.0,
          "n": 0,
          "scriptPubKey": {
            "asm": "0444b46dc4b3a2a70843d3b6b99e4b6436cd5f2d09b98ab1b44af710af6adad8cc9af85907452cf2869e0342c193146f65188517addf8838b7f485c85e84aaca91 OP_CHECKSIG",
            "desc": "pk(0444b46dc4b3a2a70843d3b6b99e4b6436cd5f2d09b98ab1b44af710af6adad8cc9af85907452cf2869e0342c193146f65188517addf8838b7f485c85e84aaca91)#ku9c5n0p",
            "hex": "410444b46dc4b3a2a70843d3b6b99e4b6436cd5f2d09b98ab1b44af710af6adad8cc9af85907452cf2869e0342c193146f65188517addf8838b7f485c85e84aaca91ac",
            "type": "pubkey"
          }
        }
      ],
      "hex": "01000000010000000000000000000000000000000000000000000000000000000000000000ffffffff0704ffff001d0152ffffffff0100f2052a0100000043410444b46dc4b3a2a70843d3b6b99e4b6436cd5f2d09b98ab1b44af710af6adad8cc9af85907452cf2869e0342c193146f65188517addf8838b7f485c85e84aaca91ac00000000"
    }
  ]
}