{
  "hash": "00000000859e983115a123473dd3bd2fc85a2d190013a9214aefb416f2179d87",
  "confirmations": 46190,
  "height": 6908,
  "version": 1,
  "versionHex": "00000001",
  "merkleroot": "cea925544527f0826651d7efc3b552ec9014728afee47dbd6c73b55964c592e1",
  "time": 1236644532,
  "mediantime": 1236639650,
  "nonce": 154650217,
  "bits": "1d00ffff",
  "difficulty": 1,
  "chainwork": "00000000000000000000000000000000000000000000000000001afd1afd1afd",
  "nTx": 1,
  "previousblockhash": "000000000f2a8949a2cfcf5842ad2844ad6f4526c723a755946487b302d4f2fa",
  "nextblockhash": "00000000c38e2807c90c9c1a3fd5034e69d1f2710217ab0683a62a1bde438645",
  "strippedsize": 216,
  "size": 216,
  "weight": 864,
  "tx": [
    {
      "txid": "cea925544527f0826651d7efc3b552ec9014728afee47dbd6c73b55964c592e1",
      "hash": "cea925544527f0826651d7efc3b552ec9014728afee47dbd6c73b55964c592e1",
      "version": 1,
      "size": 135,
      "vsize": 135,
      "weight": 540,
      "locktime": 0,
      "vin": [
        {
          "coinbase": "04ffff001d02a400",
          "sequence": 4294967295
        }
      ],
      "vout": [
        {
          "value": 50.0,
          "n": 0,
          "scriptPubKey": {
            "asm": "0428fe85fed6382316a9ed67c4ea90d8216beba359588a985a6914f1b79257820276423b298917b9c9d03215396db51e17bf4820f754177c837e329cce8b4aa63e OP_CHECKSIG",
            "desc": "pk(0428fe85fed6382316a9ed67c4ea90d8216beba359588a985a6914f1b79257820276423b298917b9c9d03215396db51e17bf4820f754177c837e329cce8b4aa63e)#jlhap9n6",
            "hex": "410428fe85fed6382316a9ed67c4ea90d8216beba359588a985a6914f1b79257820276423b298917b9c9d03215396db51e17bf4820f754177c837e329cce8b4aa63eac",
            "type": "pubkey"
          }
        }
      ],
      "hex": "01000000010000000000000000000000000000000000000000000000000000000000000000ffffffff0804ffff001d02a400ffffffff0100f2052a0100000043410428fe85fed6382316a9ed67c4ea90d8216beba359588a985a6914f1b79257820276423b298917b9c9d03215396db51e17bf4820f754177c837e329cce8b4aa63eac00000000"
    }
  ]
}