{
  "hash": "00000000e5a427932794530bbadc6a9a6c354f030da4cd9b5765d866b51502fd",
  "confirmations": 49798,
  "height": 3300,
  "version": 1,
  "versionHex": "00000001",
  "merkleroot": "fe6e01837f5f809cdd85e5993a22970346ea8b919331868b258ec9309c0faf2a",
  "time": 1233969746,
  "mediantime": 1233966571,
  "nonce": 1384078345,
  "bits": "1d00ffff",
  "difficulty": 1,
  "chainwork": "00000000000000000000000000000000000000000000000000000ce50ce50ce5",
  "nTx": 1,
  "previousblockhash": "00000000310ac14a0f1fc6adfbdddfecd334a884315fa4373a80b9e46b3e7704",
  "nextblockhash": "000000001a2b99010ab59e07281c075ffdde342a1564ba1419036c30e4dff0f5",
  "strippedsize": 216,
  "size": 216,
  "weight": 864,
  "tx": [
    {
      "txid": "fe6e01837f5f809cdd85e5993a22970346ea8b919331868b258ec9309c0faf2a",
      "hash": "fe6e01837f5f809cdd85e5993a22970346ea8b919331868b258ec9309c0faf2a",
      "version": 1,
      "size": 135,
      "vsize": 135,
      "weight": 540,
      "locktime": 0,
      "vin": [
        {
          "coinbase": "04ffff001d023b04",
          "sequence": 4294967295
        }
      ],
      "vout": [
        {
          "value": 50.0,
          "n": 0,
          "scriptPubKey": {
            "asm": "041849c3d6035dd247afb24a71dc0855349c6af89977473a9f818b9e852475a565ac484bdb777acb055fbf32c54a610cf80fe6ec9920af645d0f03f223af984bdf OP_CHECKSIG",
            "desc": "pk(041849c3d6035dd247afb24a71dc0855349c6af89977473a9f818b9e852475a565ac484bdb777acb055fbf32c54a610cf80fe6ec9920af645d0f03f223af984bdf)#7z5x5wl9",
            "hex": "41041849c3d6035dd247afb24a71dc0855349c6af89977473a9f818b9e852475a565ac484bdb777acb055fbf32c54a610cf80fe6ec9920af645d0f03f223af984bdfac",
            "type": "pubkey"
          }
        }
      ],
      "hex": "01000000010000000000000000000000000000000000000000000000000000000000000000ffffffff0804ffff001d023b04ffffffff0100f2052a010000004341041849c3d6035dd247afb24a71dc0855349c6af89977473a9f818b9e852475a565ac484bdb777acb055fbf32c54a610cf80fe6ec9920af645d0f03f223af984bdfac00000000"
    }
  ]
}