{
  "hash": "00000000d0ef02f86cc258eaa292327ab3e8f06938cbd6b83871fde1064365a1",
  "confirmations": 45025,
  "height": 8073,
  "version": 1,
  "versionHex": "00000001",
  "merkleroot": "0842d84d501cc8320b821124e5eb4185be1eb76340d5cb5cd6069f5afc355fb9",
  "time": 1237514086,
  "mediantime": 1237511766,
  "nonce": 4115591972,
  "bits": "1d00ffff",
  "difficulty": 1,
  "chainwork": "00000000000000000000000000000000000000000000000000001f8a1f8a1f8a",
  "nTx": 1,
  "previousblockhash": "00000000549ccd92340f9eac14c39c435e1ee0ac3e8ba46a02ebf4315f7f4cca",
  "nextblockhash": "000000006b7a6562f3d5fc324f657ad9f5106544328505d21edd6d6548ea113c",
  "strippedsize": 216,
  "size": 216,
  "weight": 864,
  "tx": [
    {
      "txid": "0842d84d501cc8320b821124e5eb4185be1eb76340d5cb5cd6069f5afc355fb9",
      "hash": "0842d84d501cc8320b821124e5eb4185be1eb76340d5cb5cd6069f5afc355fb9",
      "version": 1,
      "size": 135,
      "vsize": 135,
      "weight": 540,
      "locktime": 0,
      "vin": [
        {
          "coinbase": "04ffff001d02c200",
          "sequence": 4294967295
        }
      ],
      "vout": [
        {
          "value": 50.0,
          "n": 0,
          "scriptPubKey": {
            "asm": "04f2ab6aa232378fdf11359af8df50340943a6621127b21777db07452ccebbcd9390cfb3908582fe9bf0dd1e60f36582ba326367a9ff446fc7366e24d9fb754949 OP_CHECKSIG",
            "desc": "pk(04f2ab6aa232378fdf11359af8df50340943a6621127b21777db07452ccebbcd9390cfb3908582fe9bf0dd1e60f36582ba326367a9ff446fc7366e24d9fb754949)#0uezzl27",
            "hex": "4104f2ab6aa232378fdf11359af8df50340943a6621127b21777db07452ccebbcd9390cfb3908582fe9bf0dd1e60f36582ba326367a9ff446fc7366e24d9fb754949ac",
            "type": "pubkey"
          }
        }
      ],
      "hex": "01000000010000000000000000000000000000000000000000000000000000000000000000ffffffff0804ffff001d02c200ffffffff0100f2052a01000000434104f2ab6aa232378fdf11359af8df50340943a6621127b21777db07452ccebbcd9390cfb3908582fe9bf0dd1e60f36582ba326367a9ff446fc7366e24d9fb754949ac00000000"
    }
  ]
}