{
  "hash": "000000007f4aa391140e70d0fcd35399fb6fb327ebe838cb22c72de3aee8fe7d",
  "confirmations": 50968,
  "height": 2130,
  "version": 1,
  "versionHex": "00000001",
  "merkleroot": "a5a5ba0c3227386cea02e38197c19303c9a191ffdb1dbe569c95a1a3e4f338b0",
  "time": 1233159248,
  "mediantime": 1233155233,
  "nonce": 182752449,
  "bits": "1d00ffff",
  "difficulty": 1,
  "chainwork": "0000000000000000000000000000000000000000000000000000085308530853",
  "nTx": 1,
  "previousblockhash": "000000001b5ebb8e71cc48a0950bbba9cf94758ebb2e3eb52b5c04c9dfa496fa",
  "nextblockhash": "00000000d375589770b4652369b6cb946209240f3c06dbd7bb91d3d0d4ce7c9e",
  "strippedsize": 215,
  "size": 215,
  "weight": 860,
  "tx": [
    {
      "txid": "a5a5ba0c3227386cea02e38197c19303c9a191ffdb1dbe569c95a1a3e4f338b0",
      "hash": "a5a5ba0c3227386cea02e38197c19303c9a191ffdb1dbe569c95a1a3e4f338b0",
      "version": 1,
      "size": 134,
      "vsize": 134,
      "weight": 536,
      "locktime": 0,
      "vin": [
        {
          "coinbase": "04ffff001d0118",
          "sequence": 4294967295
        }
      ],
      "vout": [
        {
          "value": 50.0,
          "n": 0,
          "scriptPubKey": {
            "asm": "04e73389cc359e9042e298d137dbcde05e3dcd88ffe9ba881092c8348ac85cc04841c6fe5e3af7644547fadc1562049e3dd8544ed916739bd28d9a1c634ab6edc3 OP_CHECKSIG",
            "desc": "pk(04e73389cc359e9042e298d137dbcde05e3dcd88ffe9ba881092c8348ac85cc04841c6fe5e3af7644547fadc1562049e3dd8544ed916739bd28d9a1c634ab6edc3)#49njrmf7",
            "hex": "4104e73389cc359e9042e298d137dbcde05e3dcd88ffe9ba881092c8348ac85cc04841c6fe5e3af7644547fadc1562049e3dd8544ed916739bd28d9a1c634ab6edc3ac",
            "type": "pubkey"
          }
        }
      ],
      "hex": "01000000010000000000000000000000000000000000000000000000000000000000000000ffffffff0704ffff001d0118ffffffff0100f2052a01000000434104e73389cc359e9042e298d137dbcde05e3dcd88ffe9ba881092c8348ac85cc04841c6fe5e3af7644547fadc1562049e3dd8544ed916739bd28d9a1c634ab6edc3ac00000000"
    }
  ]
}