{
  "hash": "00000000c609eea603a94e64c34c8a2e9bd808d2a13d8c05eadb1a84976d249e",
  "confirmations": 43379,
  "height": 9719,
  "version": 1,
  "versionHex": "00000001",
  "merkleroot": "ddbb71c171af5f0971eb1f3855c266d65b3d36edeefe7d274ea24b14e72c654c",
  "time": 1238793276,
  "mediantime": 1238788679,
  "nonce": 79800938,
  "bits": "1d00ffff",
  "difficulty": 1,
  "chainwork": "000000000000000000000000000000000000000000000000000025f825f825f8",
  "nTx": 1,
  "previousblockhash": "00000000750b79ebcb003361963255872f9c7e8934bd09f60e510fc2e25023cb",
  "nextblockhash": "0000000023b6a52f525d702667b86e43f2a3a7e73a841da8b7a61e0cc6502e22",
  "strippedsize": 216,
  "size": 216,
  "weight": 864,
  "tx": [
    {
      "txid": "ddbb71c171af5f0971eb1f3855c266d65b3d36edeefe7d274ea24b14e72c654c",
      "hash": "ddbb71c171af5f0971eb1f3855c266d65b3d36edeefe7d274ea24b14e72c654c",
      "version": 1,
      "size": 135,
      "vsize": 135,
      "weight": 540,
      "locktime": 0,
      "vin": [
        {
          "coinbase": "04ffff001d024501",
          "sequence": 4294967295
        }
      ],
      "vout": [
        {
          "value": 50.0,
          "n": 0,
          "scriptPubKey": {
            "asm": "04eba4411bdb4374c781a196b745128daaf978f892430c8b495ef8024213dc5957c141c9777550d5043088e3c87b18510f35c30257d022be837b5400193e7fbf99 OP_CHECKSIG",
            "desc": "pk(04eba4411bdb4374c781a196b745128daaf978f892430c8b495ef8024213dc5957c141c9777550d5043088e3c87b18510f35c30257d022be837b5400193e7fbf99)#zjdsx0xc",
            "hex": "4104eba4411bdb4374c781a196b745128daaf978f892430c8b495ef8024213dc5957c141c9777550d5043088e3c87b18510f35c30257d022be837b5400193e7fbf99ac",
            "type": "pubkey"
          }
        }
      ],
      "hex": "01000000010000000000000000000000000000000000000000000000000000000000000000ffffffff0804ffff001d024501ffffffff0100f2052a01000000434104eba4411bdb4374c781a196b745128daaf978f892430c8b495ef8024213dc5957c141c9777550d5043088e3c87b18510f35c30257d022be837b5400193e7fbf99ac00000000"
    }
  ]
}