{
  "hash": "000000005e626f41710604fb9154aec55318e8ba135c94e0a6c81bbb329681e7",
  "confirmations": 48568,
  "height": 4530,
  "version": 1,
  "versionHex": "00000001",
  "merkleroot": "a244d59cfa843ae3c580573c8969317967119e41aa803f05788eeb1378fa522d",
  "time": 1234803201,
  "mediantime": 1234798152,
  "nonce": 2614602282,
  "bits": "1d00ffff",
  "difficulty": 1,
  "chainwork": "000000000000000000000000000000000000000000000000000011b311b311b3",
  "nTx": 1,
  "previousblockhash": "00000000116983d1a8487b215a3d0c4396f9490ce5781d9fe0b6f64defe7c363",
  "nextblockhash": "00000000ccff6d9265224ce26285b94ee0485984c30ee395383533941d65fa11",
  "strippedsize": 216,
  "size": 216,
  "weight": 864,
  "tx": [
    {
      "txid": "a244d59cfa843ae3c580573c8969317967119e41aa803f05788eeb1378fa522d",
      "hash": "a244d59cfa843ae3c580573c8969317967119e41aa803f05788eeb1378fa522d",
      "version": 1,
      "size": 135,
      "vsize": 135,
      "weight": 540,
      "locktime": 0,
      "vin": [
        {
          "coinbase": "04ffff001d024903",
          "sequence": 4294967295
        }
      ],
      "vout": [
        {
          "value": 50.0,
          "n": 0,
          "scriptPubKey": {
            "asm": "044024e3b273c2cac25c46f0f349f78e530fe94d6c8d0992ef26e550fc19cdf1d5fac0db967a1a48a6648a527990f83082383501eaaac54c1c6889575973e27e36 OP_CHECKSIG",
            "desc": "pk(044024e3b273c2cac25c46f0f349f78e530fe94d6c8d0992ef26e550fc19cdf1d5fac0db967a1a48a6648a527990f83082383501eaaac54c1c6889575973e27e36)#jppx2mat",
            "hex": "41044024e3b273c2cac25c46f0f349f78e530fe94d6c8d0992ef26e550fc19cdf1d5fac0db967a1a48a6648a527990f83082383501eaaac54c1c6889575973e27e36ac",
            "type": "pubkey"
          }
        }
      ],
      "hex": "01000000010000000000000000000000000000000000000000000000000000000000000000ffffffff0804ffff001d024903ffffffff0100f2052a010000004341044024e3b273c2cac25c46f0f349f78e530fe94d6c8d0992ef26e550fc19cdf1d5fac0db967a1a48a6648a527990f83082383501eaaac54c1c6889575973e27e36ac00000000"
    }
  ]
}