{
  "hash": "000000000f84cb6d276c94f0d8b9ad3d398c164d9eda53491a1102cd4d16ef0d",
  "confirmations": 51101,
  "height": 1997,
  "version": 1,
  "versionHex": "00000001",
  "merkleroot": "e8a670dfcb0af131a5bab04fe50772cd2b15d146ea195d2a92d39458c783f53c",
  "time": 1233044368,
  "mediantime": 1233040087,
  "nonce": 3606491695,
  "bits": "1d00ffff",
  "difficulty": 1,
  "chainwork": "000000000000000000000000000000000000000000000000000007ce07ce07ce",
  "nTx": 1,
  "previousblockhash": "00000000f0876346d33d67c16544d3fe99d6898ad114c59f78dfd8c5f41611b9",
  "nextblockhash": "0000000062436dec026b8c8fcf9aea8554312de16d35888f05d2b41710850477",
  "strippedsize": 216,
  "size": 216,
  "weight": 864,
  "tx": [
    {
      "txid": "e8a670dfcb0af131a5bab04fe50772cd2b15d146ea195d2a92d39458c783f53c",
      "hash": "e8a670dfcb0af131a5bab04fe50772cd2b15d146ea195d2a92d39458c783f53c",
      "version": 1,
      "size": 135,
      "vsize": 135,
      "weight": 540,
      "locktime": 0,
      "vin": [
        {
          "coinbase": "04ffff001d028201",
          "sequence": 4294967295
        }
      ],
      "vout": [
        {
          "value": 50.0,
          "n": 0,
          "scriptPubKey": {
            "asm": "04e6917c9dce6b2793cc85400a5c5674bd3f559f1195a4378adcbe67fcaef6b96c5acba363491b5bb9caa7a0c49d56d05e319d1ddd41261aa14b0a00eaa0783791 OP_CHECKSIG",
            "desc": "pk(04e6917c9dce6b2793cc85400a5c5674bd3f559f1195a4378adcbe67fcaef6b96c5acba363491b5bb9caa7a0c49d56d05e319d1ddd41261aa14b0a00eaa0783791)#mpz0c9xx",
            "hex": "4104e6917c9dce6b2793cc85400a5c5674bd3f559f1195a4378adcbe67fcaef6b96c5acba363491b5bb9caa7a0c49d56d05e319d1ddd41261aa14b0a00eaa0783791ac",
            "type": "pubkey"
          }
        }
      ],
      "hex": "01000000010000000000000000000000000000000000000000000000000000000000000000ffffffff0804ffff001d028201ffffffff0100f2052a01000000434104e6917c9dce6b2793cc85400a5c5674bd3f559f1195a4378adcbe67fcaef6b96c5acba363491b5bb9caa7a0c49d56d05e319d1ddd41261aa14b0a00eaa0783791ac00000000"
    }
  ]
}