{
  "hash": "000000008d7a34b286d702a4125f4b00b29c15af3f06d9a9b1e414bb8a8d3c55",
  "confirmations": 48356,
  "height": 4742,
  "version": 1,
  "versionHex": "00000001",
  "merkleroot": "4fbc7e511867f79a39a6b9751d8778d66553533a8077d4e99e44e360f1d7ef5d",
  "time": 1234957768,
  "mediantime": 1234954250,
  "nonce": 1230143513,
  "bits": "1d00ffff",
  "difficulty": 1,
  "chainwork": "0000000000000000000000000000000000000000000000000000128712871287",
  "nTx": 1,
  "previousblockhash": "00000000d71eb8c1626357306f752c2c91910a0e47be5dd0bcfa9697524478b9",
  "nextblockhash": "00000000e65ad45cd017632aa4e08d77a1ca12f3b6ac29b73d64bf641df77532",
  "strippedsize": 216,
  "size": 216,
  "weight": 864,
  "tx": [
    {
      "txid": "4fbc7e511867f79a39a6b9751d8778d66553533a8077d4e99e44e360f1d7ef5d",
      "hash": "4fbc7e511867f79a39a6b9751d8778d66553533a8077d4e99e44e360f1d7ef5d",
      "version": 1,
      "size": 135,
      "vsize": 135,
      "weight": 540,
      "locktime": 0,
      "vin": [
        {
          "coinbase": "04ffff001d021f03",
          "sequence": 4294967295
        }
      ],
      "vout": [
        {
          "value": 50.0,
          "n": 0,
          "scriptPubKey": {
            "asm": "04a10e16b591f11f6975fd6ae259877329bfee0416e9dfdd594ebcbb41cfa3f0e90e097a19e7e3b9abf5733617615a2c16ee9421c48e6501c5bb5df7cae5bc1514 OP_CHECKSIG",
            "desc": "pk(04a10e16b591f11f6975fd6ae259877329bfee0416e9dfdd594ebcbb41cfa3f0e90e097a19e7e3b9abf5733617615a2c16ee9421c48e6501c5bb5df7cae5bc1514)#0zg4r6kd",
            "hex": "4104a10e16b591f11f6975fd6ae259877329bfee0416e9dfdd594ebcbb41cfa3f0e90e097a19e7e3b9abf5733617615a2c16ee9421c48e6501c5bb5df7cae5bc1514ac",
            "type": "pubkey"
          }
        }
      ],
      "hex": "01000000010000000000000000000000000000000000000000000000000000000000000000ffffffff0804ffff001d021f03ffffffff0100f2052a01000000434104a10e16b591f11f6975fd6ae259877329bfee0416e9dfdd594ebcbb41cfa3f0e90e097a19e7e3b9abf5733617615a2c16ee9421c48e6501c5bb5df7cae5bc1514ac00000000"
    }
  ]
}