{
  "hash": "000000005120278f36b55314b0a71920b959c23e6cf06fd82a829188885fa236",
  "confirmations": 52164,
  "height": 934,
  "version": 1,
  "versionHex": "00000001",
  "merkleroot": "16c495d2e252f86a8efa3d862c819ac6ece2c3e340249a031ea493a38e32d20a",
  "time": 1232303074,
  "mediantime": 1232298650,
  "nonce": 3676923939,
  "bits": "1d00ffff",
  "difficulty": 1,
  "chainwork": "000000000000000000000000000000000000000000000000000003a703a703a7",
  "nTx": 1,
  "previousblockhash": "00000000f99261c7dd7c7492cd2917f0a43f010b630b54e16b65cd631d6bed1e",
  "nextblockhash": "0000000098ad8bb8446cf0314ac1999c8e9df878128d8f29b16c554134085915",
  "strippedsize": 216,
  "size": 216,
  "weight": 864,
  "tx": [
    {
      "txid": "16c495d2e252f86a8efa3d862c819ac6ece2c3e340249a031ea493a38e32d20a",
      "hash": "16c495d2e252f86a8efa3d862c819ac6ece2c3e340249a031ea493a38e32d20a",
      "version": 1,
      "size": 135,
      "vsize": 135,
      "weight": 540,
      "locktime": 0,
      "vin": [
        {
          "coinbase": "04ffff001d022704",
          "sequence": 4294967295
        }
      ],
      "vout": [
        {
          "value": 50.0,
          "n": 0,
          "scriptPubKey": {
            "asm": "04d2a883484de23123f65455e84ff1a29532378b477f0e181f929e112c8ec5d941183c6a82a9ae6ea3a6e1eafcb93e636b07a35510dc4e529e4d0a2548721b9e2e OP_CHECKSIG",
            "desc": "pk(04d2a883484de23123f65455e84ff1a29532378b477f0e181f929e112c8ec5d941183c6a82a9ae6ea3a6e1eafcb93e636b07a35510dc4e529e4d0a2548721b9e2e)#rxz6fv0f",
            "hex": "4104d2a883484de23123f65455e84ff1a29532378b477f0e181f929e112c8ec5d941183c6a82a9ae6ea3a6e1eafcb93e636b07a35510dc4e529e4d0a2548721b9e2eac",
            "type": "pubkey"
          }
        }
      ],
      "hex": "01000000010000000000000000000000000000000000000000000000000000000000000000ffffffff0804ffff001d022704ffffffff0100f2052a01000000434104d2a883484de23123f65455e84ff1a29532378b477f0e181f929e112c8ec5d941183c6a82a9ae6ea3a6e1eafcb93e636b07a35510dc4e529e4d0a2548721b9e2eac00000000"
    }
  ]
}