{
  "hash": "0000000067998d09c2a310314ea12cbfc7e528d60a6bdc2e0907ae3b9482855c",
  "confirmations": 51599,
  "height": 1499,
  "version": 1,
  "versionHex": "00000001",
  "merkleroot": "4fac2c2ac32988364c17d29a6da321ffd95dd79febb466136f39114c5bfd6c77",
  "time": 1232767809,
  "mediantime": 1232765208,
  "nonce": 2529930016,
  "bits": "1d00ffff",
  "difficulty": 1,
  "chainwork": "000000000000000000000000000000000000000000000000000005dc05dc05dc",
  "nTx": 1,
  "previousblockhash": "000000000a20cbe365611f74cd93f91ad2f037b465cd67bb09ba1a43fbdfc278",
  "nextblockhash": "000000007d07681a955b7bb9d96c473e847395b592b6e9e5a73b15b594bd4013",
  "strippedsize": 216,
  "size": 216,
  "weight": 864,
  "tx": [
    {
      "txid": "4fac2c2ac32988364c17d29a6da321ffd95dd79febb466136f39114c5bfd6c77",
      "hash": "4fac2c2ac32988364c17d29a6da321ffd95dd79febb466136f39114c5bfd6c77",
      "version": 1,
      "size": 135,
      "vsize": 135,
      "weight": 540,
      "locktime": 0,
      "vin": [
        {
          "coinbase": "04ffff001d022501",
          "sequence": 4294967295
        }
      ],
      "vout": [
        {
          "value": 50.0,
          "n": 0,
          "scriptPubKey": {
            "asm": "04f332ac2d5a4c0082e32793c135996f8c1b3b0791988d8b56ebc1b464f0a3c58d0598fd8e34e68cf9c101805f42af6c39607729c39cb79d3cdf36f5dfb31e93c2 OP_CHECKSIG",
            "desc": "pk(04f332ac2d5a4c0082e32793c135996f8c1b3b0791988d8b56ebc1b464f0a3c58d0598fd8e34e68cf9c101805f42af6c39607729c39cb79d3cdf36f5dfb31e93c2)#tplpuylv",
            "hex": "4104f332ac2d5a4c0082e32793c135996f8c1b3b0791988d8b56ebc1b464f0a3c58d0598fd8e34e68cf9c101805f42af6c39607729c39cb79d3cdf36f5dfb31e93c2ac",
            "type": "pubkey"
          }
        }
      ],
      "hex": "01000000010000000000000000000000000000000000000000000000000000000000000000ffffffff0804ffff001d022501ffffffff0100f2052a01000000434104f332ac2d5a4c0082e32793c135996f8c1b3b0791988d8b56ebc1b464f0a3c58d0598fd8e34e68cf9c101805f42af6c39607729c39cb79d3cdf36f5dfb31e93c2ac00000000"
    }
  ]
}