{
  "hash": "00000000ceea5084fcd34dadb597d392d7c9ed0d59f06b3eaf6a21d3440e9deb",
  "confirmations": 47172,
  "height": 5926,
  "version": 1,
  "versionHex": "00000001",
  "merkleroot": "eb0cc73e2a8e801afc2696c0e0e19ca26c52664f5804301a7ad9ef41e9052398",
  "time": 1235868165,
  "mediantime": 1235862867,
  "nonce": 2838085385,
  "bits": "1d00ffff",
  "difficulty": 1,
  "chainwork": "0000000000000000000000000000000000000000000000000000172717271727",
  "nTx": 1,
  "previousblockhash": "000000002fce7124497fcde33aaf7cc52d4b289d3b3e6b88f9232f17ddf6cd9c",
  "nextblockhash": "0000000045251df12f1ad0f8244982942ed3e9aa2af67e1f00a39ae69f49c471",
  "strippedsize": 216,
  "size": 216,
  "weight": 864,
  "tx": [
    {
      "txid": "eb0cc73e2a8e801afc2696c0e0e19ca26c52664f5804301a7ad9ef41e9052398",
      "hash": "eb0cc73e2a8e801afc2696c0e0e19ca26c52664f5804301a7ad9ef41e9052398",
      "version": 1,
      "size": 135,
      "vsize": 135,
      "weight": 540,
      "locktime": 0,
      "vin": [
        {
          "coinbase": "04ffff001d02a103",
          "sequence": 4294967295
        }
      ],
      "vout": [
        {
          "value": 50.0,
          "n": 0,
          "scriptPubKey": {
            "asm": "04e9637dfeac1e8209eb73776accb18b41aac43ce1888abc2e5bd1bcb74a2968ee61d1497f94f485ca4c4004892aaafc532da4a48472d575c9b082f461d7601f2d OP_CHECKSIG",
            "desc": "pk(04e9637dfeac1e8209eb73776accb18b41aac43ce1888abc2e5bd1bcb74a2968ee61d1497f94f485ca4c4004892aaafc532da4a48472d575c9b082f461d7601f2d)#7g6x0wd3",
            "hex": "4104e9637dfeac1e8209eb73776accb18b41aac43ce1888abc2e5bd1bcb74a2968ee61d1497f94f485ca4c4004892aaafc532da4a48472d575c9b082f461d7601f2dac",
            "type": "pubkey"
          }
        }
      ],
      "hex": "01000000010000000000000000000000000000000000000000000000000000000000000000ffffffff0804ffff001d02a103ffffffff0100f2052a01000000434104e9637dfeac1e8209eb73776accb18b41aac43ce1888abc2e5bd1bcb74a2968ee61d1497f94f485ca4c4004892aaafc532da4a48472d575c9b082f461d7601f2dac00000000"
    }
  ]
}