{
  "hash": "00000000cbf44e759a2d23485e8504103441f782219f86ad53061be1121214c5",
  "confirmations": 45353,
  "height": 7745,
  "version": 1,
  "versionHex": "00000001",
  "merkleroot": "711235f63c27f10ebef10442d4f836f80d8eb3a89776b4360beb74dc927f044f",
  "time": 1237273820,
  "mediantime": 1237270470,
  "nonce": 95575774,
  "bits": "1d00ffff",
  "difficulty": 1,
  "chainwork": "00000000000000000000000000000000000000000000000000001e421e421e42",
  "nTx": 1,
  "previousblockhash": "00000000d4ba898f54d5fb794f7d3856fc879260341b2cb0aefcebaf957d9a7c",
  "nextblockhash": "00000000360766b53c44b11bcebc64d9a4c366ba9632f273adefc7fa042b031f",
  "strippedsize": 216,
  "size": 216,
  "weight": 864,
  "tx": [
    {
      "txid": "711235f63c27f10ebef10442d4f836f80d8eb3a89776b4360beb74dc927f044f",
      "hash": "711235f63c27f10ebef10442d4f836f80d8eb3a89776b4360beb74dc927f044f",
      "version": 1,
      "size": 135,
      "vsize": 135,
      "weight": 540,
      "locktime": 0,
      "vin": [
        {
          "coinbase": "04ffff001d02a502",
          "sequence": 4294967295
        }
      ],
      "vout": [
        {
          "value": 50.0,
          "n": 0,
          "scriptPubKey": {
            "asm": "042988f4949debfd0b2de573935c213193291c2ca6bd9429cac895b321e59ffd4c9d3f89204315adcdd7f9e4ec3046e5d4808c21a0441be6b034652435bcd6d3f7 OP_CHECKSIG",
            "desc": "pk(042988f4949debfd0b2de573935c213193291c2ca6bd9429cac895b321e59ffd4c9d3f89204315adcdd7f9e4ec3046e5d4808c21a0441be6b034652435bcd6d3f7)#lr28qn0d",
            "hex": "41042988f4949debfd0b2de573935c213193291c2ca6bd9429cac895b321e59ffd4c9d3f89204315adcdd7f9e4ec3046e5d4808c21a0441be6b034652435bcd6d3f7ac",
            "type": "pubkey"
          }
        }
      ],
      "hex": "01000000010000000000000000000000000000000000000000000000000000000000000000ffffffff0804ffff001d02a502ffffffff0100f2052a010000004341042988f4949debfd0b2de573935c213193291c2ca6bd9429cac895b321e59ffd4c9d3f89204315adcdd7f9e4ec3046e5d4808c21a0441be6b034652435bcd6d3f7ac00000000"
    }
  ]
}