{
  "hash": "00000000cad779b7ff1028ba66f4216ae112ea9a5e7ea26f109480887e3ff5c6",
  "confirmations": 43497,
  "height": 9601,
  "version": 1,
  "versionHex": "00000001",
  "merkleroot": "970b3eb3d893652057a0a9a8f96a4edd8a6df0ce718911e5ecae53f7df19ef7b",
  "time": 1238701671,
  "mediantime": 1238697270,
  "nonce": 2362675752,
  "bits": "1d00ffff",
  "difficulty": 1,
  "chainwork": "0000000000000000000000000000000000000000000000000000258225822582",
  "nTx": 1,
  "previousblockhash": "00000000ca2be0b2535ca0dc5b74a3d59f3209f664c3c6dd016d227d31548995",
  "nextblockhash": "0000000045ddcaf83e2dceb3d542c15bd0e6fea78dd814a5c683f2dfdbd58fe5",
  "strippedsize": 216,
  "size": 216,
  "weight": 864,
  "tx": [
    {
      "txid": "970b3eb3d893652057a0a9a8f96a4edd8a6df0ce718911e5ecae53f7df19ef7b",
      "hash": "970b3eb3d893652057a0a9a8f96a4edd8a6df0ce718911e5ecae53f7df19ef7b",
      "version": 1,
      "size": 135,
      "vsize": 135,
      "weight": 540,
      "locktime": 0,
      "vin": [
        {
          "coinbase": "04ffff001d021807",
          "sequence": 4294967295
        }
      ],
      "vout": [
        {
          "value": 50.0,
          "n": 0,
          "scriptPubKey": {
            "asm": "04cdbb8e33eab5eb937f52a699caa809b32d2c6a4adfb9aa3fae227870d63bd0013ec857162ae3c1c1f65ccf93af0c4e2b18f5965d152495d46a462ed04ead2fe5 OP_CHECKSIG",
            "desc": "pk(04cdbb8e33eab5eb937f52a699caa809b32d2c6a4adfb9aa3fae227870d63bd0013ec857162ae3c1c1f65ccf93af0c4e2b18f5965d152495d46a462ed04ead2fe5)#95u6kl97",
            "hex": "4104cdbb8e33eab5eb937f52a699caa809b32d2c6a4adfb9aa3fae227870d63bd0013ec857162ae3c1c1f65ccf93af0c4e2b18f5965d152495d46a462ed04ead2fe5ac",
            "type": "pubkey"
          }
        }
      ],
      "hex": "01000000010000000000000000000000000000000000000000000000000000000000000000ffffffff0804ffff001d021807ffffffff0100f2052a01000000434104cdbb8e33eab5eb937f52a699caa809b32d2c6a4adfb9aa3fae227870d63bd0013ec857162ae3c1c1f65ccf93af0c4e2b18f5965d152495d46a462ed04ead2fe5ac00000000"
    }
  ]
}