{
  "hash": "000000001089b8daa01146187596c7f81c8ed253a1af379bebb06f9271334679",
  "confirmations": 49473,
  "height": 3625,
  "version": 1,
  "versionHex": "00000001",
  "merkleroot": "f28e4349d1728d4cd0cd59b0c3d9aaf6588cba9ab0a41ea51ecc3ee599f6d07b",
  "time": 1234188020,
  "mediantime": 1234184052,
  "nonce": 3486788406,
  "bits": "1d00ffff",
  "difficulty": 1,
  "chainwork": "00000000000000000000000000000000000000000000000000000e2a0e2a0e2a",
  "nTx": 1,
  "previousblockhash": "00000000cdd7bbb3ed07a08ac0a53de3d93dcb7448987b05e5c2f5476cf2733a",
  "nextblockhash": "00000000508a91354e9ea0b022772e4880ffadf21b97ed341f047887fa153d2e",
  "strippedsize": 216,
  "size": 216,
  "weight": 864,
  "tx": [
    {
      "txid": "f28e4349d1728d4cd0cd59b0c3d9aaf6588cba9ab0a41ea51ecc3ee599f6d07b",
      "hash": "f28e4349d1728d4cd0cd59b0c3d9aaf6588cba9ab0a41ea51ecc3ee599f6d07b",
      "version": 1,
      "size": 135,
      "vsize": 135,
      "weight": 540,
      "locktime": 0,
      "vin": [
        {
          "coinbase": "04ffff001d02ed08",
          "sequence": 4294967295
        }
      ],
      "vout": [
        {
          "value": 50.0,
          "n": 0,
          "scriptPubKey": {
            "asm": "04372e08b4be6a27601e405bdac213ec4ce5d3c0d3819fedfe901cb936e0e4f51734eb10a31cf14adc6328c692af06e0fed04f799bdfcda69d4e5009c23a8fec3d OP_CHECKSIG",
            "desc": "pk(04372e08b4be6a27601e405bdac213ec4ce5d3c0d3819fedfe901cb936e0e4f51734eb10a31cf14adc6328c692af06e0fed04f799bdfcda69d4e5009c23a8fec3d)#rc0wan8u",
            "hex": "4104372e08b4be6a27601e405bdac213ec4ce5d3c0d3819fedfe901cb936e0e4f51734eb10a31cf14adc6328c692af06e0fed04f799bdfcda69d4e5009c23a8fec3dac",
            "type": "pubkey"
          }
        }
      ],
      "hex": "01000000010000000000000000000000000000000000000000000000000000000000000000ffffffff0804ffff001d02ed08ffffffff0100f2052a01000000434104372e08b4be6a27601e405bdac213ec4ce5d3c0d3819fedfe901cb936e0e4f51734eb10a31cf14adc6328c692af06e0fed04f799bdfcda69d4e5009c23a8fec3dac00000000"
    }
  ]
}