{
  "hash": "0000000093a83868382518d92909290f14d977f700acc6a55142aefdc1a5739d",
  "confirmations": 48021,
  "height": 5077,
  "version": 1,
  "versionHex": "00000001",
  "merkleroot": "f71661c32d2163ab9d4f1f8df6b99308369425b93d62e2d84580b1c181f376d6",
  "time": 1235199390,
  "mediantime": 1235195062,
  "nonce": 389866137,
  "bits": "1d00ffff",
  "difficulty": 1,
  "chainwork": "000000000000000000000000000000000000000000000000000013d613d613d6",
  "nTx": 1,
  "previousblockhash": "000000004fd009d894abe93f6fbbfd88ef9084dbbcad5b865eddc5d4f6ade142",
  "nextblockhash": "00000000138212fdb5ad5c0d5be7962d7c76df0ae360473f2f81837e89014b78",
  "strippedsize": 216,
  "size": 216,
  "weight": 864,
  "tx": [
    {
      "txid": "f71661c32d2163ab9d4f1f8df6b99308369425b93d62e2d84580b1c181f376d6",
      "hash": "f71661c32d2163ab9d4f1f8df6b99308369425b93d62e2d84580b1c181f376d6",
      "version": 1,
      "size": 135,
      "vsize": 135,
      "weight": 540,
      "locktime": 0,
      "vin": [
        {
          "coinbase": "04ffff001d026e0c",
          "sequence": 4294967295
        }
      ],
      "vout": [
        {
          "value": 50.0,
          "n": 0,
          "scriptPubKey": {
            "asm": "046b1ccff655004238b1566e3d0506704e62065687108fae8514a6c038d1af79ef634d41be5c9c8e3e3aa3fb46d0619a03caeffbfb778de62432ae0f2b42925d91 OP_CHECKSIG",
            "desc": "pk(046b1ccff655004238b1566e3d0506704e62065687108fae8514a6c038d1af79ef634d41be5c9c8e3e3aa3fb46d0619a03caeffbfb778de62432ae0f2b42925d91)#jl2d6gdl",
            "hex": "41046b1ccff655004238b1566e3d0506704e62065687108fae8514a6c038d1af79ef634d41be5c9c8e3e3aa3fb46d0619a03caeffbfb778de62432ae0f2b42925d91ac",
            "type": "pubkey"
          }
        }
      ],
      "hex": "01000000010000000000000000000000000000000000000000000000000000000000000000ffffffff0804ffff001d026e0cffffffff0100f2052a010000004341046b1ccff655004238b1566e3d0506704e62065687108fae8514a6c038d1af79ef634d41be5c9c8e3e3aa3fb46d0619a03caeffbfb778de62432ae0f2b42925d91ac00000000"
    }
  ]
}