{
  "hash": "000000008d47f2e62a4fc29427cae537426c7ff461719e7f0433e785138b751c",
  "confirmations": 51992,
  "height": 348,
  "version": 1,
  "versionHex": "00000001",
  "merkleroot": "9240bc95f391ea1730d8c98b660f7e98fcdbcf84435fd839ee95a83bdfcab0bc",
  "time": 1231864090,
  "mediantime": 1231860987,
  "nonce": 453300999,
  "bits": "1d00ffff",
  "difficulty": 1,
  "chainwork": "0000000000000000000000000000000000000000000000000000015d015d015d",
  "nTx": 1,
  "previousblockhash": "000000003f87de459605bbbbbb06f4207ff09f79c7e516aca650545b374b26be",
  "nextblockhash": "00000000c4f49e3bffbd95679dc5684e388bf65b0c5160a64b34ab9a22ebc6d3",
  "strippedsize": 216,
  "size": 216,
  "weight": 864,
  "tx": [
    {
      "txid": "9240bc95f391ea1730d8c98b660f7e98fcdbcf84435fd839ee95a83bdfcab0bc",
      "hash": "9240bc95f391ea1730d8c98b660f7e98fcdbcf84435fd839ee95a83bdfcab0bc",
      "version": 1,
      "size": 135,
      "vsize": 135,
      "weight": 540,
      "locktime": 0,
      "vin": [
        {
          "coinbase": "04ffff001d027001",
          "sequence": 4294967295
        }
      ],
      "vout": [
        {
          "value": 50.0,
          "n": 0,
          "scriptPubKey": {
            "asm": "044928d0f4eab251eb6d01cbd115319afa4d1a46e816a6b690445760dd00482df3097444de15ff455bf023b98fabb1c841cf5bc544a4a42751020b4f585767bf91 OP_CHECKSIG",
            "desc": "pk(044928d0f4eab251eb6d01cbd115319afa4d1a46e816a6b690445760dd00482df3097444de15ff455bf023b98fabb1c841cf5bc544a4a42751020b4f585767bf91)#jrcy4zwu",
            "hex": "41044928d0f4eab251eb6d01cbd115319afa4d1a46e816a6b690445760dd00482df3097444de15ff455bf023b98fabb1c841cf5bc544a4a42751020b4f585767bf91ac",
            "type": "pubkey"
          }
        }
      ],
      "hex": "01000000010000000000000000000000000000000000000000000000000000000000000000ffffffff0804ffff001d027001ffffffff0100f2052a010000004341044928d0f4eab251eb6d01cbd115319afa4d1a46e816a6b690445760dd00482df3097444de15ff455bf023b98fabb1c841cf5bc544a4a42751020b4f585767bf91ac00000000"
    }
  ]
}