{
  "hash": "00000000d96ba9671153a7649eda0c70f99877f4aaf11aaecb676b3568bf30ce",
  "confirmations": 45675,
  "height": 7423,
  "version": 1,
  "versionHex": "00000001",
  "merkleroot": "8d6cab187ae59c9185a675403aaa564738ced5e89190b3a2d430d507de50002f",
  "time": 1237040943,
  "mediantime": 1237036522,
  "nonce": 3055427866,
  "bits": "1d00ffff",
  "difficulty": 1,
  "chainwork": "00000000000000000000000000000000000000000000000000001d001d001d00",
  "nTx": 1,
  "previousblockhash": "00000000e0d9b8de4c2f2a966d18fecb2f600df5de7a00634fa77c7ce7dbbaf8",
  "nextblockhash": "000000005d688c3609c7e06b3098174d6d6bd914c7bb0454572887640623ab69",
  "strippedsize": 216,
  "size": 216,
  "weight": 864,
  "tx": [
    {
      "txid": "8d6cab187ae59c9185a675403aaa564738ced5e89190b3a2d430d507de50002f",
      "hash": "8d6cab187ae59c9185a675403aaa564738ced5e89190b3a2d430d507de50002f",
      "version": 1,
      "size": 135,
      "vsize": 135,
      "weight": 540,
      "locktime": 0,
      "vin": [
        {
          "coinbase": "04ffff001d02cd09",
          "sequence": 4294967295
        }
      ],
      "vout": [
        {
          "value": 50.0,
          "n": 0,
          "scriptPubKey": {
            "asm": "04349733b4044549ddf2ed701aa4a23b040f1fbfa0a9273ebf74b1aa8ad71d07f6108942f1705566af52a4e815c7254a6a8954be738a2264590c944abba57c8ce3 OP_CHECKSIG",
            "desc": "pk(04349733b4044549ddf2ed701aa4a23b040f1fbfa0a9273ebf74b1aa8ad71d07f6108942f1705566af52a4e815c7254a6a8954be738a2264590c944abba57c8ce3)#8744uc5v",
            "hex": "4104349733b4044549ddf2ed701aa4a23b040f1fbfa0a9273ebf74b1aa8ad71d07f6108942f1705566af52a4e815c7254a6a8954be738a2264590c944abba57c8ce3ac",
            "type": "pubkey"
          }
        }
      ],
      "hex": "01000000010000000000000000000000000000000000000000000000000000000000000000ffffffff0804ffff001d02cd09ffffffff0100f2052a01000000434104349733b4044549ddf2ed701aa4a23b040f1fbfa0a9273ebf74b1aa8ad71d07f6108942f1705566af52a4e815c7254a6a8954be738a2264590c944abba57c8ce3ac00000000"
    }
  ]
}