{
  "hash": "00000000fbeefb043c0f27fc4a978e6a3600e90bed2f4c2de756c2a1c65cf544",
  "confirmations": 52197,
  "height": 424,
  "version": 1,
  "versionHex": "00000001",
  "merkleroot": "614b9dc455514ddc167bac5c089e0e17c49f310c8f58c051816b499049ee9f32",
  "time": 1231917703,
  "mediantime": 1231914168,
  "nonce": 908706075,
  "bits": "1d00ffff",
  "difficulty": 1,
  "chainwork": "000000000000000000000000000000000000000000000000000001a901a901a9",
  "nTx": 1,
  "previousblockhash": "0000000002dbc4c9438932dd99fc1ccc00868af1a864f4ec41766edd3fdad38a",
  "nextblockhash": "0000000031c97dfb51b823efe75ee7917133bbfc610b0ffa07d21d52006b83e6",
  "strippedsize": 216,
  "size": 216,
  "weight": 864,
  "tx": [
    {
      "txid": "614b9dc455514ddc167bac5c089e0e17c49f310c8f58c051816b499049ee9f32",
      "hash": "614b9dc455514ddc167bac5c089e0e17c49f310c8f58c051816b499049ee9f32",
      "version": 1,
      "size": 135,
      "vsize": 135,
      "weight": 540,
      "locktime": 0,
      "vin": [
        {
          "coinbase": "04ffff001d02fb02",
          "sequence": 4294967295
        }
      ],
      "vout": [
        {
          "value": 50.0,
          "n": 0,
          "scriptPubKey": {
            "asm": "047979d508ecdff33d45167577b2aef43727bd5d1bc01c10596e9831deda61fb32ef0d2a639a4d97e2655fb04bb55a153066ae5f34f44db5a9ed06c2ad9cf5cd76 OP_CHECKSIG",
            "desc": "pk(047979d508ecdff33d45167577b2aef43727bd5d1bc01c10596e9831deda61fb32ef0d2a639a4d97e2655fb04bb55a153066ae5f34f44db5a9ed06c2ad9cf5cd76)#xuq470fv",
            "hex": "41047979d508ecdff33d45167577b2aef43727bd5d1bc01c10596e9831deda61fb32ef0d2a639a4d97e2655fb04bb55a153066ae5f34f44db5a9ed06c2ad9cf5cd76ac",
            "type": "pubkey"
          }
        }
      ],
      "hex": "01000000010000000000000000000000000000000000000000000000000000000000000000ffffffff0804ffff001d02fb02ffffffff0100f2052a010000004341047979d508ecdff33d45167577b2aef43727bd5d1bc01c10596e9831deda61fb32ef0d2a639a4d97e2655fb04bb55a153066ae5f34f44db5a9ed06c2ad9cf5cd76ac00000000"
    }
  ]
}