{
  "hash": "00000000c022945291aca0d76b730dccbb0161ac83fa86feaea192d5c70cce67",
  "confirmations": 52040,
  "height": 131,
  "version": 1,
  "versionHex": "00000001",
  "merkleroot": "9a9699147493e8528df46eb9a3216ad1ab64fd733fa3f8f3d55908ad7ec41ff9",
  "time": 1231684725,
  "mediantime": 1231679899,
  "nonce": 237559704,
  "bits": "1d00ffff",
  "difficulty": 1,
  "chainwork": "0000000000000000000000000000000000000000000000000000008400840084",
  "nTx": 1,
  "previousblockhash": "00000000a639917e11de9c36aa5d2e5f3352c2fcef06729ac9540b84837c59a1",
  "nextblockhash": "000000007fa3a39f556782005d5f041b9e6e0e8c1bfbbfc9be81437e5537ba17",
  "strippedsize": 215,
  "size": 215,
  "weight": 860,
  "tx": [
    {
      "txid": "9a9699147493e8528df46eb9a3216ad1ab64fd733fa3f8f3d55908ad7ec41ff9",
      "hash": "9a9699147493e8528df46eb9a3216ad1ab64fd733fa3f8f3d55908ad7ec41ff9",
      "version": 1,
      "size": 134,
      "vsize": 134,
      "weight": 536,
      "locktime": 0,
      "vin": [
        {
          "coinbase": "04ffff001d010a",
          "sequence": 4294967295
        }
      ],
      "vout": [
        {
          "value": 50.0,
          "n": 0,
          "scriptPubKey": {
            "asm": "0412b101ed7705dadd2e40ba19c393fa8bf148665f12b03c22e26633452933078acc0aee85f81705ac43aab5f286024917444b117a420435a0839a65e67360639e OP_CHECKSIG",
            "desc": "pk(0412b101ed7705dadd2e40ba19c393fa8bf148665f12b03c22e26633452933078acc0aee85f81705ac43aab5f286024917444b117a420435a0839a65e67360639e)#r4x8zxtw",
            "hex": "410412b101ed7705dadd2e40ba19c393fa8bf148665f12b03c22e26633452933078acc0aee85f81705ac43aab5f286024917444b117a420435a0839a65e67360639eac",
            "type": "pubkey"
          }
        }
      ],
      "hex": "01000000010000000000000000000000000000000000000000000000000000000000000000ffffffff0704ffff001d010affffffff0100f2052a0100000043410412b101ed7705dadd2e40ba19c393fa8bf148665f12b03c22e26633452933078acc0aee85f81705ac43aab5f286024917444b117a420435a0839a65e67360639eac00000000"
    }
  ]
}