{
  "hash": "000000008ade7f7f12bd85d04ffe6fdab4cb22c02cfaef5650469bec1e2a289d",
  "confirmations": 48178,
  "height": 4920,
  "version": 1,
  "versionHex": "00000001",
  "merkleroot": "7a659e9b63f8198c642ff555c2c5e32b6753be91f54c4546b2b494e3ac4e82d1",
  "time": 1235083877,
  "mediantime": 1235081335,
  "nonce": 855253763,
  "bits": "1d00ffff",
  "difficulty": 1,
  "chainwork": "0000000000000000000000000000000000000000000000000000133913391339",
  "nTx": 1,
  "previousblockhash": "000000001028aa59a2fe098db8628eb784d71f852b16d06a1651a87f2a056b69",
  "nextblockhash": "00000000bd8f46dbdec0d53e9587f240ac60eb01473663e9526d21692172c8d3",
  "strippedsize": 216,
  "size": 216,
  "weight": 864,
  "tx": [
    {
      "txid": "7a659e9b63f8198c642ff555c2c5e32b6753be91f54c4546b2b494e3ac4e82d1",
      "hash": "7a659e9b63f8198c642ff555c2c5e32b6753be91f54c4546b2b494e3ac4e82d1",
      "version": 1,
      "size": 135,
      "vsize": 135,
      "weight": 540,
      "locktime": 0,
      "vin": [
        {
          "coinbase": "04ffff001d02fa05",
          "sequence": 4294967295
        }
      ],
      "vout": [
        {
          "value": 50.0,
          "n": 0,
          "scriptPubKey": {
            "asm": "041895aba512c9ae0f37291217f892fa2f83ca1845a468d48154b37692fb6b4617c5038c4f5ab0cf501c7ef9cb5d2cfc8934ca903d4e36f24c30294496444ff23b OP_CHECKSIG",
            "desc": "pk(041895aba512c9ae0f37291217f892fa2f83ca1845a468d48154b37692fb6b4617c5038c4f5ab0cf501c7ef9cb5d2cfc8934ca903d4e36f24c30294496444ff23b)#gtdzp0vk",
            "hex": "41041895aba512c9ae0f37291217f892fa2f83ca1845a468d48154b37692fb6b4617c5038c4f5ab0cf501c7ef9cb5d2cfc8934ca903d4e36f24c30294496444ff23bac",
            "type": "pubkey"
          }
        }
      ],
      "hex": "01000000010000000000000000000000000000000000000000000000000000000000000000ffffffff0804ffff001d02fa05ffffffff0100f2052a010000004341041895aba512c9ae0f37291217f892fa2f83ca1845a468d48154b37692fb6b4617c5038c4f5ab0cf501c7ef9cb5d2cfc8934ca903d4e36f24c30294496444ff23bac00000000"
    }
  ]
}