{
  "hash": "00000000050263108675caf911d5befc890e599ee2ad018bcd1bbccb01daa92d",
  "confirmations": 46316,
  "height": 6782,
  "version": 1,
  "versionHex": "00000001",
  "merkleroot": "7c1327a8c8de5d1f3cb3f9ee1b548922c8c76a191706b77918421d952d866c2a",
  "time": 1236546630,
  "mediantime": 1236541718,
  "nonce": 3953891845,
  "bits": "1d00ffff",
  "difficulty": 1,
  "chainwork": "00000000000000000000000000000000000000000000000000001a7f1a7f1a7f",
  "nTx": 1,
  "previousblockhash": "00000000336e4ea5c4aaf6ab1ca364716f61a80700d3daec209989d8611bf6f6",
  "nextblockhash": "000000005aab39ac88d376bf250ce6497c2a32df8d370fdf67d24f65e024137c",
  "strippedsize": 216,
  "size": 216,
  "weight": 864,
  "tx": [
    {
      "txid": "7c1327a8c8de5d1f3cb3f9ee1b548922c8c76a191706b77918421d952d866c2a",
      "hash": "7c1327a8c8de5d1f3cb3f9ee1b548922c8c76a191706b77918421d952d866c2a",
      "version": 1,
      "size": 135,
      "vsize": 135,
      "weight": 540,
      "locktime": 0,
      "vin": [
        {
          "coinbase": "04ffff001d029308",
          "sequence": 4294967295
        }
      ],
      "vout": [
        {
          "value": 50.0,
          "n": 0,
          "scriptPubKey": {
            "asm": "047ef003bfdad98b4058f6653a73afe027ca49131231cc931f17f10b1fe653e2a2fd08ce5bf97b92d004e24c9f425885aa66bca969374f779fcf47eb1b60e2c5c2 OP_CHECKSIG",
            "desc": "pk(047ef003bfdad98b4058f6653a73afe027ca49131231cc931f17f10b1fe653e2a2fd08ce5bf97b92d004e24c9f425885aa66bca969374f779fcf47eb1b60e2c5c2)#yt4fazzk",
            "hex": "41047ef003bfdad98b4058f6653a73afe027ca49131231cc931f17f10b1fe653e2a2fd08ce5bf97b92d004e24c9f425885aa66bca969374f779fcf47eb1b60e2c5c2ac",
            "type": "pubkey"
          }
        }
      ],
      "hex": "01000000010000000000000000000000000000000000000000000000000000000000000000ffffffff0804ffff001d029308ffffffff0100f2052a010000004341047ef003bfdad98b4058f6653a73afe027ca49131231cc931f17f10b1fe653e2a2fd08ce5bf97b92d004e24c9f425885aa66bca969374f779fcf47eb1b60e2c5c2ac00000000"
    }
  ]
}