{
  "hash": "00000000fb00a6ee85e96ed7418fce94d36a4b616914f6e5a1fb80d9ff88b8a9",
  "confirmations": 44104,
  "height": 8994,
  "version": 1,
  "versionHex": "00000001",
  "merkleroot": "f873bc01d2d415f5e87f4e4a40f28193974a9d3e995c925a5d9ba310e2fab194",
  "time": 1238248659,
  "mediantime": 1238245399,
  "nonce": 3333823778,
  "bits": "1d00ffff",
  "difficulty": 1,
  "chainwork": "0000000000000000000000000000000000000000000000000000232323232323",
  "nTx": 1,
  "previousblockhash": "00000000602026e823816d2d09de3dd7b285cb59292edb5f6b3cdc4b5afed989",
  "nextblockhash": "000000008b0cde449f5fb47eff545764f75872783ee24ab4f636810c3b60a45d",
  "strippedsize": 216,
  "size": 216,
  "weight": 864,
  "tx": [
    {
      "txid": "f873bc01d2d415f5e87f4e4a40f28193974a9d3e995c925a5d9ba310e2fab194",
      "hash": "f873bc01d2d415f5e87f4e4a40f28193974a9d3e995c925a5d9ba310e2fab194",
      "version": 1,
      "size": 135,
      "vsize": 135,
      "weight": 540,
      "locktime": 0,
      "vin": [
        {
          "coinbase": "04ffff001d024306",
          "sequence": 4294967295
        }
      ],
      "vout": [
        {
          "value": 50.0,
          "n": 0,
          "scriptPubKey": {
            "asm": "0471e36f36ff7dec9d16a57712cb4abf26a748b26c4d2ae46738e58d2adda5abeab4a056eb515d93ab07ce3be047fee324bc1029a95e84c2a4955f92ca9e8ce6c4 OP_CHECKSIG",
            "desc": "pk(0471e36f36ff7dec9d16a57712cb4abf26a748b26c4d2ae46738e58d2adda5abeab4a056eb515d93ab07ce3be047fee324bc1029a95e84c2a4955f92ca9e8ce6c4)#r426q3q7",
            "hex": "410471e36f36ff7dec9d16a57712cb4abf26a748b26c4d2ae46738e58d2adda5abeab4a056eb515d93ab07ce3be047fee324bc1029a95e84c2a4955f92ca9e8ce6c4ac",
            "type": "pubkey"
          }
        }
      ],
      "hex": "01000000010000000000000000000000000000000000000000000000000000000000000000ffffffff0804ffff001d024306ffffffff0100f2052a0100000043410471e36f36ff7dec9d16a57712cb4abf26a748b26c4d2ae46738e58d2adda5abeab4a056eb515d93ab07ce3be047fee324bc1029a95e84c2a4955f92ca9e8ce6c4ac00000000"
    }
  ]
}