{
  "hash": "00000000e6db66070661bcefe01e5b80626de9af28ed13c2786a9e5cb779d1d9",
  "confirmations": 50048,
  "height": 3050,
  "version": 1,
  "versionHex": "00000001",
  "merkleroot": "aef2ca1217ba3eb0756ff84764f9a4de9152af24f93668c422aee71577ba3601",
  "time": 1233796564,
  "mediantime": 1233792939,
  "nonce": 2307404316,
  "bits": "1d00ffff",
  "difficulty": 1,
  "chainwork": "00000000000000000000000000000000000000000000000000000beb0beb0beb",
  "nTx": 1,
  "previousblockhash": "00000000c0b5300ab3f48f768ccbea253d86dd894952ce048272787deb5bc2d9",
  "nextblockhash": "00000000129eaacfb9262cc58a77ab961eb05f2840dd5629e163f465fabaf528",
  "strippedsize": 215,
  "size": 215,
  "weight": 860,
  "tx": [
    {
      "txid": "aef2ca1217ba3eb0756ff84764f9a4de9152af24f93668c422aee71577ba3601",
      "hash": "aef2ca1217ba3eb0756ff84764f9a4de9152af24f93668c422aee71577ba3601",
      "version": 1,
      "size": 134,
      "vsize": 134,
      "weight": 536,
      "locktime": 0,
      "vin": [
        {
          "coinbase": "04ffff001d012c",
          "sequence": 4294967295
        }
      ],
      "vout": [
        {
          "value": 50.0,
          "n": 0,
          "scriptPubKey": {
            "asm": "047104fac26004e5196538b7c403639b570abaff5aa609b973dbbff0616d0c5d7a0ba8c38fa19806254454fcd65f0468674d8bbb2de61388d145ba25ebf6e2bee9 OP_CHECKSIG",
            "desc": "pk(047104fac26004e5196538b7c403639b570abaff5aa609b973dbbff0616d0c5d7a0ba8c38fa19806254454fcd65f0468674d8bbb2de61388d145ba25ebf6e2bee9)#v9haxt5n",
            "hex": "41047104fac26004e5196538b7c403639b570abaff5aa609b973dbbff0616d0c5d7a0ba8c38fa19806254454fcd65f0468674d8bbb2de61388d145ba25ebf6e2bee9ac",
            "type": "pubkey"
          }
        }
      ],
      "hex": "01000000010000000000000000000000000000000000000000000000000000000000000000ffffffff0704ffff001d012cffffffff0100f2052a010000004341047104fac26004e5196538b7c403639b570abaff5aa609b973dbbff0616d0c5d7a0ba8c38fa19806254454fcd65f0468674d8bbb2de61388d145ba25ebf6e2bee9ac00000000"
    }
  ]
}