{
  "hash": "000000001751d9f38fef72a0202ff032d3e9c808d5fb3950fffdc8a83a759977",
  "confirmations": 44797,
  "height": 8301,
  "version": 1,
  "versionHex": "00000001",
  "merkleroot": "f02c1b2f5ed4588fba4af8518b25186ee18177b9484d8d8fcc7892b43e266809",
  "time": 1237730902,
  "mediantime": 1237727656,
  "nonce": 236367131,
  "bits": "1d00ffff",
  "difficulty": 1,
  "chainwork": "0000000000000000000000000000000000000000000000000000206e206e206e",
  "nTx": 1,
  "previousblockhash": "000000001af2bc6ce395f9495ed79306719e34467152479862ecaed4de7fd1b3",
  "nextblockhash": "0000000005b3f15cee9e54a4b046562bac7158c8d5915ffaaa16396708daaeec",
  "strippedsize": 216,
  "size": 216,
  "weight": 864,
  "tx": [
    {
      "txid": "f02c1b2f5ed4588fba4af8518b25186ee18177b9484d8d8fcc7892b43e266809",
      "hash": "f02c1b2f5ed4588fba4af8518b25186ee18177b9484d8d8fcc7892b43e266809",
      "version": 1,
      "size": 135,
      "vsize": 135,
      "weight": 540,
      "locktime": 0,
      "vin": [
        {
          "coinbase": "04ffff001d027f02",
          "sequence": 4294967295
        }
      ],
      "vout": [
        {
          "value": 50.0,
          "n": 0,
          "scriptPubKey": {
            "asm": "0481a9165fc89a2d493477fe7c6bdb899833ef417993b67900acac60f4cece702390c75d9b520840954e29c3cf96315797a5bcb98581c78567fe392fe72bd3c63e OP_CHECKSIG",
            "desc": "pk(0481a9165fc89a2d493477fe7c6bdb899833ef417993b67900acac60f4cece702390c75d9b520840954e29c3cf96315797a5bcb98581c78567fe392fe72bd3c63e)#ewzvjpgt",
            "hex": "410481a9165fc89a2d493477fe7c6bdb899833ef417993b67900acac60f4cece702390c75d9b520840954e29c3cf96315797a5bcb98581c78567fe392fe72bd3c63eac",
            "type": "pubkey"
          }
        }
      ],
      "hex": "01000000010000000000000000000000000000000000000000000000000000000000000000ffffffff0804ffff001d027f02ffffffff0100f2052a0100000043410481a9165fc89a2d493477fe7c6bdb899833ef417993b67900acac60f4cece702390c75d9b520840954e29c3cf96315797a5bcb98581c78567fe392fe72bd3c63eac00000000"
    }
  ]
}