{
  "hash": "00000000459941238f97367414684ae72ee74f2981797c26508e5b77577426fc",
  "confirmations": 52485,
  "height": 613,
  "version": 1,
  "versionHex": "00000001",
  "merkleroot": "9a7e42be64604ac8f9922c8d131485b6973003a4056921b5644714065c805b1d",
  "time": 1232045372,
  "mediantime": 1232043026,
  "nonce": 21213150,
  "bits": "1d00ffff",
  "difficulty": 1,
  "chainwork": "0000000000000000000000000000000000000000000000000000026602660266",
  "nTx": 1,
  "previousblockhash": "00000000f047c44f82ed0653e0d661b10f714f567ca7904a0f9ee475893a95e2",
  "nextblockhash": "000000007c85141167dad3a3c31beee277664e7050e2af9a1befae630e7c2d1d",
  "strippedsize": 215,
  "size": 215,
  "weight": 860,
  "tx": [
    {
      "txid": "9a7e42be64604ac8f9922c8d131485b6973003a4056921b5644714065c805b1d",
      "hash": "9a7e42be64604ac8f9922c8d131485b6973003a4056921b5644714065c805b1d",
      "version": 1,
      "size": 134,
      "vsize": 134,
      "weight": 536,
      "locktime": 0,
      "vin": [
        {
          "coinbase": "04ffff001d011e",
          "sequence": 4294967295
        }
      ],
      "vout": [
        {
          "value": 50.0,
          "n": 0,
          "scriptPubKey": {
            "asm": "0411e001e77a3f14c6c6d6119b47614d1a8e4ae47006b539a4ab2134528f383b05c77c3f05a012da7d51525ad9b6ce724114acdf8e602758510d5108fa2ee68f01 OP_CHECKSIG",
            "desc": "pk(0411e001e77a3f14c6c6d6119b47614d1a8e4ae47006b539a4ab2134528f383b05c77c3f05a012da7d51525ad9b6ce724114acdf8e602758510d5108fa2ee68f01)#xvv0wu7m",
            "hex": "410411e001e77a3f14c6c6d6119b47614d1a8e4ae47006b539a4ab2134528f383b05c77c3f05a012da7d51525ad9b6ce724114acdf8e602758510d5108fa2ee68f01ac",
            "type": "pubkey"
          }
        }
      ],
      "hex": "01000000010000000000000000000000000000000000000000000000000000000000000000ffffffff0704ffff001d011effffffff0100f2052a0100000043410411e001e77a3f14c6c6d6119b47614d1a8e4ae47006b539a4ab2134528f383b05c77c3f05a012da7d51525ad9b6ce724114acdf8e602758510d5108fa2ee68f01ac00000000"
    }
  ]
}