{
  "hash": "0000000016f8d64bc2e4a9d74fbd145f2578c8a872ffaa623b9291468263d2ab",
  "confirmations": 47263,
  "height": 5835,
  "version": 1,
  "versionHex": "00000001",
  "merkleroot": "ad33ae8b905fe41a7b62aa106dafc8ec607477f483c7593187a0873bef84c6c1",
  "time": 1235787603,
  "mediantime": 1235784142,
  "nonce": 1381825589,
  "bits": "1d00ffff",
  "difficulty": 1,
  "chainwork": "000000000000000000000000000000000000000000000000000016cc16cc16cc",
  "nTx": 1,
  "previousblockhash": "0000000001a674b3aff7aa32cc9a08d01b685e7129511f3655444e7a2c427dfb",
  "nextblockhash": "00000000ac8864a297d8c07e6e3a9126cb1360bcf47a4620e1c6d1b1e7724f13",
  "strippedsize": 216,
  "size": 216,
  "weight": 864,
  "tx": [
    {
      "txid": "ad33ae8b905fe41a7b62aa106dafc8ec607477f483c7593187a0873bef84c6c1",
      "hash": "ad33ae8b905fe41a7b62aa106dafc8ec607477f483c7593187a0873bef84c6c1",
      "version": 1,
      "size": 135,
      "vsize": 135,
      "weight": 540,
      "locktime": 0,
      "vin": [
        {
          "coinbase": "04ffff001d027001",
          "sequence": 4294967295
        }
      ],
      "vout": [
        {
          "value": 50.0,
          "n": 0,
          "scriptPubKey": {
            "asm": "0479ec5fb771293f283ddf7e7c53312d5afb1ed25ddd304d4ab85ad886383026a4d61174d6a06a14e0a1c128e4880bc58122b3a6edee1fdb4f624ea91afa59cee9 OP_CHECKSIG",
            "desc": "pk(0479ec5fb771293f283ddf7e7c53312d5afb1ed25ddd304d4ab85ad886383026a4d61174d6a06a14e0a1c128e4880bc58122b3a6edee1fdb4f624ea91afa59cee9)#rmn2a6c4",
            "hex": "410479ec5fb771293f283ddf7e7c53312d5afb1ed25ddd304d4ab85ad886383026a4d61174d6a06a14e0a1c128e4880bc58122b3a6edee1fdb4f624ea91afa59cee9ac",
            "type": "pubkey"
          }
        }
      ],
      "hex": "01000000010000000000000000000000000000000000000000000000000000000000000000ffffffff0804ffff001d027001ffffffff0100f2052a0100000043410479ec5fb771293f283ddf7e7c53312d5afb1ed25ddd304d4ab85ad886383026a4d61174d6a06a14e0a1c128e4880bc58122b3a6edee1fdb4f624ea91afa59cee9ac00000000"
    }
  ]
}