{
  "hash": "000000004ea3fb1a453c3c7d29dbd5baabe7e23571f73cb242dc10282c705907",
  "confirmations": 51997,
  "height": 1101,
  "version": 1,
  "versionHex": "00000001",
  "merkleroot": "747739c10db3a93bd51d0a54788477e317a00c679f78714a6fde73f6a52940f2",
  "time": 1232425169,
  "mediantime": 1232419724,
  "nonce": 2826776603,
  "bits": "1d00ffff",
  "difficulty": 1,
  "chainwork": "0000000000000000000000000000000000000000000000000000044e044e044e",
  "nTx": 1,
  "previousblockhash": "000000009cd3f93cd2d843202155561eb773b2a7b7c97561ddef31e707f4eb4b",
  "nextblockhash": "00000000e642f04d2f57d1d8fb6ff0c1814c5f65e6d72de5c3dd2d7319e9beb0",
  "strippedsize": 216,
  "size": 216,
  "weight": 864,
  "tx": [
    {
      "txid": "747739c10db3a93bd51d0a54788477e317a00c679f78714a6fde73f6a52940f2",
      "hash": "747739c10db3a93bd51d0a54788477e317a00c679f78714a6fde73f6a52940f2",
      "version": 1,
      "size": 135,
      "vsize": 135,
      "weight": 540,
      "locktime": 0,
      "vin": [
        {
          "coinbase": "04ffff001d022307",
          "sequence": 4294967295
        }
      ],
      "vout": [
        {
          "value": 50.0,
          "n": 0,
          "scriptPubKey": {
            "asm": "043600a38abd73b2dfc23788d715809550c1dc87a7bb4128d5ccf12e58fc53e01976d7c5208f3f9f8b968b49338c5cd8a2aa90c9828c06814792cdcb4263ed3654 OP_CHECKSIG",
            "desc": "pk(043600a38abd73b2dfc23788d715809550c1dc87a7bb4128d5ccf12e58fc53e01976d7c5208f3f9f8b968b49338c5cd8a2aa90c9828c06814792cdcb4263ed3654)#5fkte2t0",
            "hex": "41043600a38abd73b2dfc23788d715809550c1dc87a7bb4128d5ccf12e58fc53e01976d7c5208f3f9f8b968b49338c5cd8a2aa90c9828c06814792cdcb4263ed3654ac",
            "type": "pubkey"
          }
        }
      ],
      "hex": "01000000010000000000000000000000000000000000000000000000000000000000000000ffffffff0804ffff001d022307ffffffff0100f2052a010000004341043600a38abd73b2dfc23788d715809550c1dc87a7bb4128d5ccf12e58fc53e01976d7c5208f3f9f8b968b49338c5cd8a2aa90c9828c06814792cdcb4263ed3654ac00000000"
    }
  ]
}