{
  "hash": "0000000098d88753452c62bfce6c636c7a139ebac7d9a3284636af5c79de0587",
  "confirmations": 47575,
  "height": 5523,
  "version": 1,
  "versionHex": "00000001",
  "merkleroot": "1bb83a178485d949186a3c12d36d68f9e57b5e142a77a5e095d50a287ca2ac39",
  "time": 1235539348,
  "mediantime": 1235535735,
  "nonce": 4234676016,
  "bits": "1d00ffff",
  "difficulty": 1,
  "chainwork": "0000000000000000000000000000000000000000000000000000159415941594",
  "nTx": 1,
  "previousblockhash": "000000001686e1d92319baf8038fff00f036216317f0c89fd77c36acfeda88d9",
  "nextblockhash": "000000008a80e8ed5ada2b8832572a62152acd7be8084c46a7ff153ee14f54c9",
  "strippedsize": 216,
  "size": 216,
  "weight": 864,
  "tx": [
    {
      "txid": "1bb83a178485d949186a3c12d36d68f9e57b5e142a77a5e095d50a287ca2ac39",
      "hash": "1bb83a178485d949186a3c12d36d68f9e57b5e142a77a5e095d50a287ca2ac39",
      "version": 1,
      "size": 135,
      "vsize": 135,
      "weight": 540,
      "locktime": 0,
      "vin": [
        {
          "coinbase": "04ffff001d021a06",
          "sequence": 4294967295
        }
      ],
      "vout": [
        {
          "value": 50.0,
          "n": 0,
          "scriptPubKey": {
            "asm": "04d2dc4cbe1d48d9137d45a2c62c310f3758cd5180b3d541aec22403d1f3ecc490817b066b6590cd173fa25e61c31af1edf745d4d4bc081e84f7559f726d44ce37 OP_CHECKSIG",
            "desc": "pk(04d2dc4cbe1d48d9137d45a2c62c310f3758cd5180b3d541aec22403d1f3ecc490817b066b6590cd173fa25e61c31af1edf745d4d4bc081e84f7559f726d44ce37)#cgs5rwu7",
            "hex": "4104d2dc4cbe1d48d9137d45a2c62c310f3758cd5180b3d541aec22403d1f3ecc490817b066b6590cd173fa25e61c31af1edf745d4d4bc081e84f7559f726d44ce37ac",
            "type": "pubkey"
          }
        }
      ],
      "hex": "01000000010000000000000000000000000000000000000000000000000000000000000000ffffffff0804ffff001d021a06ffffffff0100f2052a01000000434104d2dc4cbe1d48d9137d45a2c62c310f3758cd5180b3d541aec22403d1f3ecc490817b066b6590cd173fa25e61c31af1edf745d4d4bc081e84f7559f726d44ce37ac00000000"
    }
  ]
}