{
  "hash": "00000000f9b2fcdc987caa6011728406cc836878beb7f852fa3b362270d9745a",
  "confirmations": 47863,
  "height": 5235,
  "version": 1,
  "versionHex": "00000001",
  "merkleroot": "21af7c861dba790a90a681e84d17439884c136fb6c1b5074cf78e74e5a099e63",
  "time": 1235312383,
  "mediantime": 1235309396,
  "nonce": 59045889,
  "bits": "1d00ffff",
  "difficulty": 1,
  "chainwork": "0000000000000000000000000000000000000000000000000000147414741474",
  "nTx": 1,
  "previousblockhash": "00000000cf0967a75cf5c6c111b6379184e70665c4d5450370355423ca9da917",
  "nextblockhash": "0000000072f3e99e7d129f44f9679ae08da4598460679748a75c1111f08f4207",
  "strippedsize": 216,
  "size": 216,
  "weight": 864,
  "tx": [
    {
      "txid": "21af7c861dba790a90a681e84d17439884c136fb6c1b5074cf78e74e5a099e63",
      "hash": "21af7c861dba790a90a681e84d17439884c136fb6c1b5074cf78e74e5a099e63",
      "version": 1,
      "size": 135,
      "vsize": 135,
      "weight": 540,
      "locktime": 0,
      "vin": [
        {
          "coinbase": "04ffff001d020801",
          "sequence": 4294967295
        }
      ],
      "vout": [
        {
          "value": 50.0,
          "n": 0,
          "scriptPubKey": {
            "asm": "04a53f176c2cbf0d4a4aafdc51f7f544e65d77fd292402990335212272f06a945c37e05bf5642029e05a2b3ac9cbb30032a0c0e1011818e13ba1e01b3f2cbca0f8 OP_CHECKSIG",
            "desc": "pk(04a53f176c2cbf0d4a4aafdc51f7f544e65d77fd292402990335212272f06a945c37e05bf5642029e05a2b3ac9cbb30032a0c0e1011818e13ba1e01b3f2cbca0f8)#tj3e0sl4",
            "hex": "4104a53f176c2cbf0d4a4aafdc51f7f544e65d77fd292402990335212272f06a945c37e05bf5642029e05a2b3ac9cbb30032a0c0e1011818e13ba1e01b3f2cbca0f8ac",
            "type": "pubkey"
          }
        }
      ],
      "hex": "01000000010000000000000000000000000000000000000000000000000000000000000000ffffffff0804ffff001d020801ffffffff0100f2052a01000000434104a53f176c2cbf0d4a4aafdc51f7f544e65d77fd292402990335212272f06a945c37e05bf5642029e05a2b3ac9cbb30032a0c0e1011818e13ba1e01b3f2cbca0f8ac00000000"
    }
  ]
}