{
  "hash": "00000000580a7a7cd537bfac354996f0d5ab1d1779e316968b524153bfff09fc",
  "confirmations": 46519,
  "height": 6579,
  "version": 1,
  "versionHex": "00000001",
  "merkleroot": "d4d4c32f2923d604ed38d62a4bd71646440e2ee701cb1c5388eb79ecc9afa93a",
  "time": 1236386844,
  "mediantime": 1236383089,
  "nonce": 2182486057,
  "bits": "1d00ffff",
  "difficulty": 1,
  "chainwork": "000000000000000000000000000000000000000000000000000019b419b419b4",
  "nTx": 1,
  "previousblockhash": "000000000ab7ac9a9423071d674d8104ee4b220d5664387d90850e3f76e979ae",
  "nextblockhash": "00000000b5e64339fcaed867719bf17b4416839403deeeba1ec96ce5ea8c2929",
  "strippedsize": 216,
  "size": 216,
  "weight": 864,
  "tx": [
    {
      "txid": "d4d4c32f2923d604ed38d62a4bd71646440e2ee701cb1c5388eb79ecc9afa93a",
      "hash": "d4d4c32f2923d604ed38d62a4bd71646440e2ee701cb1c5388eb79ecc9afa93a",
      "version": 1,
      "size": 135,
      "vsize": 135,
      "weight": 540,
      "locktime": 0,
      "vin": [
        {
          "coinbase": "04ffff001d02c304",
          "sequence": 4294967295
        }
      ],
      "vout": [
        {
          "value": 50.0,
          "n": 0,
          "scriptPubKey": {
            "asm": "04957cf29f6ad10f30a6850403d427f6b0500825b41b28f5e17a0dfb6859c69b1ff1c2393273ae5f37b5faa850a299ccdc84bb132c0a54f983f29d4c2423374cf7 OP_CHECKSIG",
            "desc": "pk(04957cf29f6ad10f30a6850403d427f6b0500825b41b28f5e17a0dfb6859c69b1ff1c2393273ae5f37b5faa850a299ccdc84bb132c0a54f983f29d4c2423374cf7)#zppl4pm7",
            "hex": "4104957cf29f6ad10f30a6850403d427f6b0500825b41b28f5e17a0dfb6859c69b1ff1c2393273ae5f37b5faa850a299ccdc84bb132c0a54f983f29d4c2423374cf7ac",
            "type": "pubkey"
          }
        }
      ],
      "hex": "01000000010000000000000000000000000000000000000000000000000000000000000000ffffffff0804ffff001d02c304ffffffff0100f2052a01000000434104957cf29f6ad10f30a6850403d427f6b0500825b41b28f5e17a0dfb6859c69b1ff1c2393273ae5f37b5faa850a299ccdc84bb132c0a54f983f29d4c2423374cf7ac00000000"
    }
  ]
}