{
  "hash": "000000005310971d1304a456759d9e85e4aad473f5f773a62fb9d08a51e313d9",
  "confirmations": 47568,
  "height": 5530,
  "version": 1,
  "versionHex": "00000001",
  "merkleroot": "e16995109ccf577715cdb964a07a65a53bb9fed9bed8d01a85986f0592a055e3",
  "time": 1235544821,
  "mediantime": 1235540898,
  "nonce": 3015423520,
  "bits": "1d00ffff",
  "difficulty": 1,
  "chainwork": "0000000000000000000000000000000000000000000000000000159b159b159b",
  "nTx": 1,
  "previousblockhash": "00000000c4e031a9a9924efd3ff0ab34f5b8f76ae66b3275b80f35d0767fcec3",
  "nextblockhash": "0000000046b6272474a106a41c35c914370c3b3d96da1ba75d2e29f6afc71a65",
  "strippedsize": 216,
  "size": 216,
  "weight": 864,
  "tx": [
    {
      "txid": "e16995109ccf577715cdb964a07a65a53bb9fed9bed8d01a85986f0592a055e3",
      "hash": "e16995109ccf577715cdb964a07a65a53bb9fed9bed8d01a85986f0592a055e3",
      "version": 1,
      "size": 135,
      "vsize": 135,
      "weight": 540,
      "locktime": 0,
      "vin": [
        {
          "coinbase": "04ffff001d022e06",
          "sequence": 4294967295
        }
      ],
      "vout": [
        {
          "value": 50.0,
          "n": 0,
          "scriptPubKey": {
            "asm": "045169be0f7c0a8c0943556fdc0bb11a45fa935bd22a5ce4304f4b84dc40a30d031a8aee47363efa9d53cb88fce0b8f6fcb9825658dc9e3090e9357f271f06baa2 OP_CHECKSIG",
            "desc": "pk(045169be0f7c0a8c0943556fdc0bb11a45fa935bd22a5ce4304f4b84dc40a30d031a8aee47363efa9d53cb88fce0b8f6fcb9825658dc9e3090e9357f271f06baa2)#2r4s66tm",
            "hex": "41045169be0f7c0a8c0943556fdc0bb11a45fa935bd22a5ce4304f4b84dc40a30d031a8aee47363efa9d53cb88fce0b8f6fcb9825658dc9e3090e9357f271f06baa2ac",
            "type": "pubkey"
          }
        }
      ],
      "hex": "01000000010000000000000000000000000000000000000000000000000000000000000000ffffffff0804ffff001d022e06ffffffff0100f2052a010000004341045169be0f7c0a8c0943556fdc0bb11a45fa935bd22a5ce4304f4b84dc40a30d031a8aee47363efa9d53cb88fce0b8f6fcb9825658dc9e3090e9357f271f06baa2ac00000000"
    }
  ]
}