{
  "hash": "0000000062ad672a1552b48011a28073ad9e0c2af53aa92760675016957f58e8",
  "confirmations": 46990,
  "height": 6108,
  "version": 1,
  "versionHex": "00000001",
  "merkleroot": "48f0322819330fb1945874521193301684f3fe137d581ae1fdbd812c3332ec28",
  "time": 1236014724,
  "mediantime": 1236011708,
  "nonce": 2931055673,
  "bits": "1d00ffff",
  "difficulty": 1,
  "chainwork": "000000000000000000000000000000000000000000000000000017dd17dd17dd",
  "nTx": 1,
  "previousblockhash": "00000000e9bae0e8d8c11601625ae2c5f53cf155604f7093b822fb2ca1c76c24",
  "nextblockhash": "00000000085a4776d416c8eba3d2723a113e51c59bce7d1fdab54098c399f3ac",
  "strippedsize": 216,
  "size": 216,
  "weight": 864,
  "tx": [
    {
      "txid": "48f0322819330fb1945874521193301684f3fe137d581ae1fdbd812c3332ec28",
      "hash": "48f0322819330fb1945874521193301684f3fe137d581ae1fdbd812c3332ec28",
      "version": 1,
      "size": 135,
      "vsize": 135,
      "weight": 540,
      "locktime": 0,
      "vin": [
        {
          "coinbase": "04ffff001d02e106",
          "sequence": 4294967295
        }
      ],
      "vout": [
        {
          "value": 50.0,
          "n": 0,
          "scriptPubKey": {
            "asm": "0435c70e347eac65e90fa4c966a8d827c695ed12b268376eed227258550d565aabb5edc4656b982d27fcdf2170108710fc428a56c8b7004fc597bbad3814757075 OP_CHECKSIG",
            "desc": "pk(0435c70e347eac65e90fa4c966a8d827c695ed12b268376eed227258550d565aabb5edc4656b982d27fcdf2170108710fc428a56c8b7004fc597bbad3814757075)#p8v2ctep",
            "hex": "410435c70e347eac65e90fa4c966a8d827c695ed12b268376eed227258550d565aabb5edc4656b982d27fcdf2170108710fc428a56c8b7004fc597bbad3814757075ac",
            "type": "pubkey"
          }
        }
      ],
      "hex": "01000000010000000000000000000000000000000000000000000000000000000000000000ffffffff0804ffff001d02e106ffffffff0100f2052a0100000043410435c70e347eac65e90fa4c966a8d827c695ed12b268376eed227258550d565aabb5edc4656b982d27fcdf2170108710fc428a56c8b7004fc597bbad3814757075ac00000000"
    }
  ]
}