{
  "hash": "00000000b3c9b14588afc5892c4b56179a73e269a6a5ce62500f2b0e7157df9d",
  "confirmations": 47743,
  "height": 5355,
  "version": 1,
  "versionHex": "00000001",
  "merkleroot": "2a7088a62326a17f9c30ab00786b51f2dcf27d083c34fd6b687ca24d5e3ec2a4",
  "time": 1235407886,
  "mediantime": 1235404398,
  "nonce": 2146372380,
  "bits": "1d00ffff",
  "difficulty": 1,
  "chainwork": "000000000000000000000000000000000000000000000000000014ec14ec14ec",
  "nTx": 1,
  "previousblockhash": "00000000d391c1150a599c652c5279914e1dd23e44331d15981a21b0cc55a770",
  "nextblockhash": "00000000b3094785a5038c6d30308f8c96b5137ecb88c7790b061f61f9b9e877",
  "strippedsize": 216,
  "size": 216,
  "weight": 864,
  "tx": [
    {
      "txid": "2a7088a62326a17f9c30ab00786b51f2dcf27d083c34fd6b687ca24d5e3ec2a4",
      "hash": "2a7088a62326a17f9c30ab00786b51f2dcf27d083c34fd6b687ca24d5e3ec2a4",
      "version": 1,
      "size": 135,
      "vsize": 135,
      "weight": 540,
      "locktime": 0,
      "vin": [
        {
          "coinbase": "04ffff001d02f902",
          "sequence": 4294967295
        }
      ],
      "vout": [
        {
          "value": 50.0,
          "n": 0,
          "scriptPubKey": {
            "asm": "048b0789986c45909bfb712f8582eced98f8e763b3d0f655fce060d365873deffab686a0037a0d4405747b6310050dd2c21090484dd60706cae1341e6274a7da3a OP_CHECKSIG",
            "desc": "pk(048b0789986c45909bfb712f8582eced98f8e763b3d0f655fce060d365873deffab686a0037a0d4405747b6310050dd2c21090484dd60706cae1341e6274a7da3a)#w0lxqzca",
            "hex": "41048b0789986c45909bfb712f8582eced98f8e763b3d0f655fce060d365873deffab686a0037a0d4405747b6310050dd2c21090484dd60706cae1341e6274a7da3aac",
            "type": "pubkey"
          }
        }
      ],
      "hex": "01000000010000000000000000000000000000000000000000000000000000000000000000ffffffff0804ffff001d02f902ffffffff0100f2052a010000004341048b0789986c45909bfb712f8582eced98f8e763b3d0f655fce060d365873deffab686a0037a0d4405747b6310050dd2c21090484dd60706cae1341e6274a7da3aac00000000"
    }
  ]
}