{
  "hash": "000000001602a26ca45749bd46ba43f009cbb87afe19db699a0cf1e6ba2c5e27",
  "confirmations": 49310,
  "height": 3788,
  "version": 1,
  "versionHex": "00000001",
  "merkleroot": "6b94fd5d9a67b5466df9c864335d8e8de0b0ef1afccffec2752e9d39b32db876",
  "time": 1234297193,
  "mediantime": 1234295154,
  "nonce": 107495537,
  "bits": "1d00ffff",
  "difficulty": 1,
  "chainwork": "00000000000000000000000000000000000000000000000000000ecd0ecd0ecd",
  "nTx": 1,
  "previousblockhash": "00000000affef59b351d72d4dcc3f5d3adfbff2f70bb190ceab076599808e37d",
  "nextblockhash": "000000009dd93ccb24330fec31bdfa4429c31c3b64113fca84e37ace602a7a59",
  "strippedsize": 215,
  "size": 215,
  "weight": 860,
  "tx": [
    {
      "txid": "6b94fd5d9a67b5466df9c864335d8e8de0b0ef1afccffec2752e9d39b32db876",
      "hash": "6b94fd5d9a67b5466df9c864335d8e8de0b0ef1afccffec2752e9d39b32db876",
      "version": 1,
      "size": 134,
      "vsize": 134,
      "weight": 536,
      "locktime": 0,
      "vin": [
        {
          "coinbase": "04ffff001d0141",
          "sequence": 4294967295
        }
      ],
      "vout": [
        {
          "value": 50.0,
          "n": 0,
          "scriptPubKey": {
            "asm": "04499ff989ab2d2317e7b59063281d6e7ebc41508e8176eeacbe9ed4b7b95ffb7ad7e00bbb0259f9445f11a6d5a1dfb83688cf3f664d4bee5e20c030fac1f92f08 OP_CHECKSIG",
            "desc": "pk(04499ff989ab2d2317e7b59063281d6e7ebc41508e8176eeacbe9ed4b7b95ffb7ad7e00bbb0259f9445f11a6d5a1dfb83688cf3f664d4bee5e20c030fac1f92f08)#jmyywzkf",
            "hex": "4104499ff989ab2d2317e7b59063281d6e7ebc41508e8176eeacbe9ed4b7b95ffb7ad7e00bbb0259f9445f11a6d5a1dfb83688cf3f664d4bee5e20c030fac1f92f08ac",
            "type": "pubkey"
          }
        }
      ],
      "hex": "01000000010000000000000000000000000000000000000000000000000000000000000000ffffffff0704ffff001d0141ffffffff0100f2052a01000000434104499ff989ab2d2317e7b59063281d6e7ebc41508e8176eeacbe9ed4b7b95ffb7ad7e00bbb0259f9445f11a6d5a1dfb83688cf3f664d4bee5e20c030fac1f92f08ac00000000"
    }
  ]
}