{
  "hash": "000000001b1f52515b653e6ea7a852604291031240bf64ea1c61e45f46f6d837",
  "confirmations": 43776,
  "height": 9322,
  "version": 1,
  "versionHex": "00000001",
  "merkleroot": "2e06d43645f309b389b4c8a980f48c4fec61c6b9c813366451355a22a209ded9",
  "time": 1238493276,
  "mediantime": 1238487130,
  "nonce": 68553056,
  "bits": "1d00ffff",
  "difficulty": 1,
  "chainwork": "0000000000000000000000000000000000000000000000000000246b246b246b",
  "nTx": 1,
  "previousblockhash": "0000000069e4461ea0adb0e3e9d9e71ed022d14e27ad8a309417b3b742c16f4f",
  "nextblockhash": "00000000a88719e11a80c259ccb094d96baed3c97bce37a9520831884a1b1db7",
  "strippedsize": 216,
  "size": 216,
  "weight": 864,
  "tx": [
    {
      "txid": "2e06d43645f309b389b4c8a980f48c4fec61c6b9c813366451355a22a209ded9",
      "hash": "2e06d43645f309b389b4c8a980f48c4fec61c6b9c813366451355a22a209ded9",
      "version": 1,
      "size": 135,
      "vsize": 135,
      "weight": 540,
      "locktime": 0,
      "vin": [
        {
          "coinbase": "04ffff001d025506",
          "sequence": 4294967295
        }
      ],
      "vout": [
        {
          "value": 50.0,
          "n": 0,
          "scriptPubKey": {
            "asm": "0433af428150bed15d14c831bf5323851c49d99bf30d3dd18e0bc356bde3146c8e253341756930a37ce2f7b6ebca2fdc35f172a6db8914fe2ab22daf97ae84b3d7 OP_CHECKSIG",
            "desc": "pk(0433af428150bed15d14c831bf5323851c49d99bf30d3dd18e0bc356bde3146c8e253341756930a37ce2f7b6ebca2fdc35f172a6db8914fe2ab22daf97ae84b3d7)#7ayk4rn5",
            "hex": "410433af428150bed15d14c831bf5323851c49d99bf30d3dd18e0bc356bde3146c8e253341756930a37ce2f7b6ebca2fdc35f172a6db8914fe2ab22daf97ae84b3d7ac",
            "type": "pubkey"
          }
        }
      ],
      "hex": "01000000010000000000000000000000000000000000000000000000000000000000000000ffffffff0804ffff001d025506ffffffff0100f2052a0100000043410433af428150bed15d14c831bf5323851c49d99bf30d3dd18e0bc356bde3146c8e253341756930a37ce2f7b6ebca2fdc35f172a6db8914fe2ab22daf97ae84b3d7ac00000000"
    }
  ]
}