{
  "hash": "000000006912600f586e7e570208953694113c9d80cc1729cac3ce3765d0c4b7",
  "confirmations": 43126,
  "height": 9972,
  "version": 1,
  "versionHex": "00000001",
  "merkleroot": "8bbc09899a3c87baceb9012ad4224cec50b7e2e3bbbc0622b5b5b2a8144e8a88",
  "time": 1238972385,
  "mediantime": 1238968196,
  "nonce": 3306526750,
  "bits": "1d00ffff",
  "difficulty": 1,
  "chainwork": "000000000000000000000000000000000000000000000000000026f526f526f5",
  "nTx": 1,
  "previousblockhash": "000000001a510e2689acef458d8d27cab6b154a0b1b0fcb5263c23182593c3dc",
  "nextblockhash": "00000000eda492f8b3a2e5b5394426654bc783fed48ed7dcb79805f1da1c8198",
  "strippedsize": 216,
  "size": 216,
  "weight": 864,
  "tx": [
    {
      "txid": "8bbc09899a3c87baceb9012ad4224cec50b7e2e3bbbc0622b5b5b2a8144e8a88",
      "hash": "8bbc09899a3c87baceb9012ad4224cec50b7e2e3bbbc0622b5b5b2a8144e8a88",
      "version": 1,
      "size": 135,
      "vsize": 135,
      "weight": 540,
      "locktime": 0,
      "vin": [
        {
          "coinbase": "04ffff001d020303",
          "sequence": 4294967295
        }
      ],
      "vout": [
        {
          "value": 50.0,
          "n": 0,
          "scriptPubKey": {
            "asm": "0433dd29d48899575054a10991a650d754db3ff6d88df48f4ddc1d74c959451f0e9df76f05f72f3ffc1f7d2086e2244f4262e04f85867bde74b4a493aa0dbed504 OP_CHECKSIG",
            "desc": "pk(0433dd29d48899575054a10991a650d754db3ff6d88df48f4ddc1d74c959451f0e9df76f05f72f3ffc1f7d2086e2244f4262e04f85867bde74b4a493aa0dbed504)#l8ffg3t6",
            "hex": "410433dd29d48899575054a10991a650d754db3ff6d88df48f4ddc1d74c959451f0e9df76f05f72f3ffc1f7d2086e2244f4262e04f85867bde74b4a493aa0dbed504ac",
            "type": "pubkey"
          }
        }
      ],
      "hex": "01000000010000000000000000000000000000000000000000000000000000000000000000ffffffff0804ffff001d020303ffffffff0100f2052a0100000043410433dd29d48899575054a10991a650d754db3ff6d88df48f4ddc1d74c959451f0e9df76f05f72f3ffc1f7d2086e2244f4262e04f85867bde74b4a493aa0dbed504ac00000000"
    }
  ]
}