{
  "hash": "000000005da52c5f43f857bea77d20d37645e875f7b6fed7f7da286059a93921",
  "confirmations": 51445,
  "height": 1653,
  "version": 1,
  "versionHex": "00000001",
  "merkleroot": "7235314afe99c6cbe7b719b914459ea4ca49e701feb077e8bf4c3aa1f0e5a7b0",
  "time": 1232834269,
  "mediantime": 1232832723,
  "nonce": 4137811754,
  "bits": "1d00ffff",
  "difficulty": 1,
  "chainwork": "0000000000000000000000000000000000000000000000000000067606760676",
  "nTx": 1,
  "previousblockhash": "00000000258c6a24c8301305ea8bbe86bc462c6775187cc3f380ac726ee4a03e",
  "nextblockhash": "000000004eaa0043cf91a137bb342eb46f87bb4cd1bb8d8e8909ceefb901e048",
  "strippedsize": 216,
  "size": 216,
  "weight": 864,
  "tx": [
    {
      "txid": "7235314afe99c6cbe7b719b914459ea4ca49e701feb077e8bf4c3aa1f0e5a7b0",
      "hash": "7235314afe99c6cbe7b719b914459ea4ca49e701feb077e8bf4c3aa1f0e5a7b0",
      "version": 1,
      "size": 135,
      "vsize": 135,
      "weight": 540,
      "locktime": 0,
      "vin": [
        {
          "coinbase": "04ffff001d02a902",
          "sequence": 4294967295
        }
      ],
      "vout": [
        {
          "value": 50.0,
          "n": 0,
          "scriptPubKey": {
            "asm": "0402328e0285754b4522e36cbd9543b0bff76b3c916ef229ff349706ec009a6fee0b99472c8b338f08b514347fdcac5d22e958df4f215c6e0c24b0bbbbf1659fa6 OP_CHECKSIG",
            "desc": "pk(0402328e0285754b4522e36cbd9543b0bff76b3c916ef229ff349706ec009a6fee0b99472c8b338f08b514347fdcac5d22e958df4f215c6e0c24b0bbbbf1659fa6)#tq974xfu",
            "hex": "410402328e0285754b4522e36cbd9543b0bff76b3c916ef229ff349706ec009a6fee0b99472c8b338f08b514347fdcac5d22e958df4f215c6e0c24b0bbbbf1659fa6ac",
            "type": "pubkey"
          }
        }
      ],
      "hex": "01000000010000000000000000000000000000000000000000000000000000000000000000ffffffff0804ffff001d02a902ffffffff0100f2052a0100000043410402328e0285754b4522e36cbd9543b0bff76b3c916ef229ff349706ec009a6fee0b99472c8b338f08b514347fdcac5d22e958df4f215c6e0c24b0bbbbf1659fa6ac00000000"
    }
  ]
}