{
  "hash": "00000000517019985319688c802df181a7a9345f86ef7cc7a1f1b03106c8eae7",
  "confirmations": 46387,
  "height": 6711,
  "version": 1,
  "versionHex": "00000001",
  "merkleroot": "a6630aa3abef8d1c57ef382161c6c67c92c051cea1bf7b74d20bc1688207f660",
  "time": 1236490583,
  "mediantime": 1236487772,
  "nonce": 1058715913,
  "bits": "1d00ffff",
  "difficulty": 1,
  "chainwork": "00000000000000000000000000000000000000000000000000001a381a381a38",
  "nTx": 1,
  "previousblockhash": "00000000bbc8eb7a2c1aa9ada272689f40561aa226b6bed8308e244fbac84ee8",
  "nextblockhash": "00000000a50a8a7b5db2c4556a40d8ef13514104f642c8bddfd9cddbac1eb2fd",
  "strippedsize": 216,
  "size": 216,
  "weight": 864,
  "tx": [
    {
      "txid": "a6630aa3abef8d1c57ef382161c6c67c92c051cea1bf7b74d20bc1688207f660",
      "hash": "a6630aa3abef8d1c57ef382161c6c67c92c051cea1bf7b74d20bc1688207f660",
      "version": 1,
      "size": 135,
      "vsize": 135,
      "weight": 540,
      "locktime": 0,
      "vin": [
        {
          "coinbase": "04ffff001d023f07",
          "sequence": 4294967295
        }
      ],
      "vout": [
        {
          "value": 50.0,
          "n": 0,
          "scriptPubKey": {
            "asm": "045e2985057265d63fd14a4dabc47968d7c2736ae0c5c11d0c34363b25161c447793d6f0bf0c8f1b3d9d5d9318d9531b0722606294b21309a78db506ca22e4e795 OP_CHECKSIG",
            "desc": "pk(045e2985057265d63fd14a4dabc47968d7c2736ae0c5c11d0c34363b25161c447793d6f0bf0c8f1b3d9d5d9318d9531b0722606294b21309a78db506ca22e4e795)#4jp8cmqf",
            "hex": "41045e2985057265d63fd14a4dabc47968d7c2736ae0c5c11d0c34363b25161c447793d6f0bf0c8f1b3d9d5d9318d9531b0722606294b21309a78db506ca22e4e795ac",
            "type": "pubkey"
          }
        }
      ],
      "hex": "01000000010000000000000000000000000000000000000000000000000000000000000000ffffffff0804ffff001d023f07ffffffff0100f2052a010000004341045e2985057265d63fd14a4dabc47968d7c2736ae0c5c11d0c34363b25161c447793d6f0bf0c8f1b3d9d5d9318d9531b0722606294b21309a78db506ca22e4e795ac00000000"
    }
  ]
}