{
  "hash": "00000000a31b3785f0adc10975a4e3e356d133365c0aeab6e42240e17ac2e63c",
  "confirmations": 51942,
  "height": 87,
  "version": 1,
  "versionHex": "00000001",
  "merkleroot": "edb7b78f88263e5c47717ee0761131683e85cc31beeac9a98554917c30686440",
  "time": 1231651888,
  "mediantime": 1231647491,
  "nonce": 1947169835,
  "bits": "1d00ffff",
  "difficulty": 1,
  "chainwork": "0000000000000000000000000000000000000000000000000000005800580058",
  "nTx": 1,
  "previousblockhash": "00000000f1b3a6b39671e475b858bc6831db3ca57e8ecafa49a13c4d5b04fb53",
  "nextblockhash": "0000000011fd31ceefda804321c8e00d9870c15a5395f361f3b0c6908eb7d04b",
  "strippedsize": 215,
  "size": 215,
  "weight": 860,
  "tx": [
    {
      "txid": "edb7b78f88263e5c47717ee0761131683e85cc31beeac9a98554917c30686440",
      "hash": "edb7b78f88263e5c47717ee0761131683e85cc31beeac9a98554917c30686440",
      "version": 1,
      "size": 134,
      "vsize": 134,
      "weight": 536,
      "locktime": 0,
      "vin": [
        {
          "coinbase": "04ffff001d0120",
          "sequence": 4294967295
        }
      ],
      "vout": [
        {
          "value": 50.0,
          "n": 0,
          "scriptPubKey": {
            "asm": "04212f1e2bc4abbef7682da4e136de7f8cfb6e49cf21eccfed72046ec0ae5f034a282db6ba0391205055aee425ba21e033c94441227eb86cd9f13a93c330afd563 OP_CHECKSIG",
            "desc": "pk(04212f1e2bc4abbef7682da4e136de7f8cfb6e49cf21eccfed72046ec0ae5f034a282db6ba0391205055aee425ba21e033c94441227eb86cd9f13a93c330afd563)#cygr6f3r",
            "hex": "4104212f1e2bc4abbef7682da4e136de7f8cfb6e49cf21eccfed72046ec0ae5f034a282db6ba0391205055aee425ba21e033c94441227eb86cd9f13a93c330afd563ac",
            "type": "pubkey"
          }
        }
      ],
      "hex": "01000000010000000000000000000000000000000000000000000000000000000000000000ffffffff0704ffff001d0120ffffffff0100f2052a01000000434104212f1e2bc4abbef7682da4e136de7f8cfb6e49cf21eccfed72046ec0ae5f034a282db6ba0391205055aee425ba21e033c94441227eb86cd9f13a93c330afd563ac00000000"
    }
  ]
}