{
  "hash": "0000000071c93c1b85a9d259786cb8fd604f3ac366e26428bdff4e18e0b37085",
  "confirmations": 45247,
  "height": 7851,
  "version": 1,
  "versionHex": "00000001",
  "merkleroot": "292cb33bf56efea7f4751f8b64a19faa91d409ba49bfbc738684ae0494fcaff2",
  "time": 1237351435,
  "mediantime": 1237348572,
  "nonce": 1814340129,
  "bits": "1d00ffff",
  "difficulty": 1,
  "chainwork": "00000000000000000000000000000000000000000000000000001eac1eac1eac",
  "nTx": 1,
  "previousblockhash": "00000000b1564f7023873353c8e95cd498177d0d6f4d1ef4b6bbab4533461e80",
  "nextblockhash": "00000000551d6d74c20b6cf721470c85e0db58cd8dce4feee3d9537d9097a29a",
  "strippedsize": 216,
  "size": 216,
  "weight": 864,
  "tx": [
    {
      "txid": "292cb33bf56efea7f4751f8b64a19faa91d409ba49bfbc738684ae0494fcaff2",
      "hash": "292cb33bf56efea7f4751f8b64a19faa91d409ba49bfbc738684ae0494fcaff2",
      "version": 1,
      "size": 135,
      "vsize": 135,
      "weight": 540,
      "locktime": 0,
      "vin": [
        {
          "coinbase": "04ffff001d02c806",
          "sequence": 4294967295
        }
      ],
      "vout": [
        {
          "value": 50.0,
          "n": 0,
          "scriptPubKey": {
            "asm": "048d78db399b27151b3e806bb60e55141ea97f9bbd26504b0c78a43d39d753f9b8b01daf1341eae90ed04fa545cded4aeb5deeccd6760ea06267649e33f5e41825 OP_CHECKSIG",
            "desc": "pk(048d78db399b27151b3e806bb60e55141ea97f9bbd26504b0c78a43d39d753f9b8b01daf1341eae90ed04fa545cded4aeb5deeccd6760ea06267649e33f5e41825)#htxraa3x",
            "hex": "41048d78db399b27151b3e806bb60e55141ea97f9bbd26504b0c78a43d39d753f9b8b01daf1341eae90ed04fa545cded4aeb5deeccd6760ea06267649e33f5e41825ac",
            "type": "pubkey"
          }
        }
      ],
      "hex": "01000000010000000000000000000000000000000000000000000000000000000000000000ffffffff0804ffff001d02c806ffffffff0100f2052a010000004341048d78db399b27151b3e806bb60e55141ea97f9bbd26504b0c78a43d39d753f9b8b01daf1341eae90ed04fa545cded4aeb5deeccd6760ea06267649e33f5e41825ac00000000"
    }
  ]
}