{
  "hash": "0000000037859d141f0e4f14daa08f1d4c0f1c8754adf01908ad14ae239437fe",
  "confirmations": 43161,
  "height": 9937,
  "version": 1,
  "versionHex": "00000001",
  "merkleroot": "763a72457898ecf8201febb54eeaef58d4a8edce37c8536cd7d2a4def05fcfeb",
  "time": 1238945714,
  "mediantime": 1238943188,
  "nonce": 22445444,
  "bits": "1d00ffff",
  "difficulty": 1,
  "chainwork": "000000000000000000000000000000000000000000000000000026d226d226d2",
  "nTx": 1,
  "previousblockhash": "000000003ef1a1b4c1ca5887c90ac1a0d44584e4373f92aa7eddb52a5a582014",
  "nextblockhash": "00000000212d49b27f9085ff0f64ce3da962dc1d14288c75e1bd75c4be84458e",
  "strippedsize": 216,
  "size": 216,
  "weight": 864,
  "tx": [
    {
      "txid": "763a72457898ecf8201febb54eeaef58d4a8edce37c8536cd7d2a4def05fcfeb",
      "hash": "763a72457898ecf8201febb54eeaef58d4a8edce37c8536cd7d2a4def05fcfeb",
      "version": 1,
      "size": 135,
      "vsize": 135,
      "weight": 540,
      "locktime": 0,
      "vin": [
        {
          "coinbase": "04ffff001d028811",
          "sequence": 4294967295
        }
      ],
      "vout": [
        {
          "value": 50.0,
          "n": 0,
          "scriptPubKey": {
            "asm": "049a55e71c5de2d37e5a65aa699e35c5526f16977311ef1f6d69c07122061d5522222e459980b0fdcdfb72f2b60f16c94237e3c01396d8ed7c77e0c678bf70c589 OP_CHECKSIG",
            "desc": "pk(049a55e71c5de2d37e5a65aa699e35c5526f16977311ef1f6d69c07122061d5522222e459980b0fdcdfb72f2b60f16c94237e3c01396d8ed7c77e0c678bf70c589)#9rx446ry",
            "hex": "41049a55e71c5de2d37e5a65aa699e35c5526f16977311ef1f6d69c07122061d5522222e459980b0fdcdfb72f2b60f16c94237e3c01396d8ed7c77e0c678bf70c589ac",
            "type": "pubkey"
          }
        }
      ],
      "hex": "01000000010000000000000000000000000000000000000000000000000000000000000000ffffffff0804ffff001d028811ffffffff0100f2052a010000004341049a55e71c5de2d37e5a65aa699e35c5526f16977311ef1f6d69c07122061d5522222e459980b0fdcdfb72f2b60f16c94237e3c01396d8ed7c77e0c678bf70c589ac00000000"
    }
  ]
}