{
  "hash": "000000005b01b8ddef835564691bd96f7c418dc48f399e6949cf5607420d971d",
  "confirmations": 52110,
  "height": 988,
  "version": 1,
  "versionHex": "00000001",
  "merkleroot": "af6397d00e2ebf9cb99ddf15f68eee4e58acba358f6a3900ff2d313fa5926edf",
  "time": 1232340645,
  "mediantime": 1232338277,
  "nonce": 53832323,
  "bits": "1d00ffff",
  "difficulty": 1,
  "chainwork": "000000000000000000000000000000000000000000000000000003dd03dd03dd",
  "nTx": 1,
  "previousblockhash": "0000000046e6482b90633bb69bf904b904ca955e275fbe93cbdd5c9dd78dd3f4",
  "nextblockhash": "000000008a3893cb71fd4fe6d29882bec1de9fdbe70a4f5408f6d9bb6ff2680d",
  "strippedsize": 216,
  "size": 216,
  "weight": 864,
  "tx": [
    {
      "txid": "af6397d00e2ebf9cb99ddf15f68eee4e58acba358f6a3900ff2d313fa5926edf",
      "hash": "af6397d00e2ebf9cb99ddf15f68eee4e58acba358f6a3900ff2d313fa5926edf",
      "version": 1,
      "size": 135,
      "vsize": 135,
      "weight": 540,
      "locktime": 0,
      "vin": [
        {
          "coinbase": "04ffff001d025b01",
          "sequence": 4294967295
        }
      ],
      "vout": [
        {
          "value": 50.0,
          "n": 0,
          "scriptPubKey": {
            "asm": "04b1d1bf4daf9e14cca997f8a20c969eb15cf62fe2c195638926eeaa77ef5130080fa984e7a5e6699f9d8ed211d87b3cca8711602de387f2ad2ae9916afd10e16c OP_CHECKSIG",
            "desc": "pk(04b1d1bf4daf9e14cca997f8a20c969eb15cf62fe2c195638926eeaa77ef5130080fa984e7a5e6699f9d8ed211d87b3cca8711602de387f2ad2ae9916afd10e16c)#uuejw56v",
            "hex": "4104b1d1bf4daf9e14cca997f8a20c969eb15cf62fe2c195638926eeaa77ef5130080fa984e7a5e6699f9d8ed211d87b3cca8711602de387f2ad2ae9916afd10e16cac",
            "type": "pubkey"
          }
        }
      ],
      "hex": "01000000010000000000000000000000000000000000000000000000000000000000000000ffffffff0804ffff001d025b01ffffffff0100f2052a01000000434104b1d1bf4daf9e14cca997f8a20c969eb15cf62fe2c195638926eeaa77ef5130080fa984e7a5e6699f9d8ed211d87b3cca8711602de387f2ad2ae9916afd10e16cac00000000"
    }
  ]
}