{
  "hash": "000000002082739d0e82596fb69243b1ca9db66db623d3fdcf283f18486cdbaf",
  "confirmations": 52168,
  "height": 461,
  "version": 1,
  "versionHex": "00000001",
  "merkleroot": "9e01daccf3280ab1663fbbb34e7b798acf488d23eb4d60f0176b6c9c86ffcd6b",
  "time": 1231943876,
  "mediantime": 1231941022,
  "nonce": 66291407,
  "bits": "1d00ffff",
  "difficulty": 1,
  "chainwork": "000000000000000000000000000000000000000000000000000001ce01ce01ce",
  "nTx": 1,
  "previousblockhash": "00000000589bea8b8ba6b3c039cc4c10e414c498d4bab561af7b1f92a7181ce4",
  "nextblockhash": "0000000095c81ef621ffd5b8c7fbea7608b672ac81fd5f03c43ab3a7b27353b1",
  "strippedsize": 215,
  "size": 215,
  "weight": 860,
  "tx": [
    {
      "txid": "9e01daccf3280ab1663fbbb34e7b798acf488d23eb4d60f0176b6c9c86ffcd6b",
      "hash": "9e01daccf3280ab1663fbbb34e7b798acf488d23eb4d60f0176b6c9c86ffcd6b",
      "version": 1,
      "size": 134,
      "vsize": 134,
      "weight": 536,
      "locktime": 0,
      "vin": [
        {
          "coinbase": "04ffff001d014c",
          "sequence": 4294967295
        }
      ],
      "vout": [
        {
          "value": 50.0,
          "n": 0,
          "scriptPubKey": {
            "asm": "04553ddda3a799da48cd6146bc36cb1c0cac7b8988b968fe2f8ba63feec7ff24cf651ac6e307986c24163d4e420f3e580d7e4b392c257ae5064b3589dc058c3bd4 OP_CHECKSIG",
            "desc": "pk(04553ddda3a799da48cd6146bc36cb1c0cac7b8988b968fe2f8ba63feec7ff24cf651ac6e307986c24163d4e420f3e580d7e4b392c257ae5064b3589dc058c3bd4)#r6rnzlq9",
            "hex": "4104553ddda3a799da48cd6146bc36cb1c0cac7b8988b968fe2f8ba63feec7ff24cf651ac6e307986c24163d4e420f3e580d7e4b392c257ae5064b3589dc058c3bd4ac",
            "type": "pubkey"
          }
        }
      ],
      "hex": "01000000010000000000000000000000000000000000000000000000000000000000000000ffffffff0704ffff001d014cffffffff0100f2052a01000000434104553ddda3a799da48cd6146bc36cb1c0cac7b8988b968fe2f8ba63feec7ff24cf651ac6e307986c24163d4e420f3e580d7e4b392c257ae5064b3589dc058c3bd4ac00000000"
    }
  ]
}