{
  "hash": "00000000356b8c7d725f4da31dd2e8d441a52446e88812562598ba588099289a",
  "confirmations": 50378,
  "height": 2720,
  "version": 1,
  "versionHex": "00000001",
  "merkleroot": "4f9ce81ea56d90b41619613aa10b4c14690ad1d1c02b234afd5219ebf89a1482",
  "time": 1233576661,
  "mediantime": 1233574829,
  "nonce": 276665883,
  "bits": "1d00ffff",
  "difficulty": 1,
  "chainwork": "00000000000000000000000000000000000000000000000000000aa10aa10aa1",
  "nTx": 1,
  "previousblockhash": "00000000bfd3c9bce9f32df730377f628c8c09a3175603cfd40095a361b8c417",
  "nextblockhash": "00000000ee0241f476b222d6e2aa219d8882cc04927a7b32ee1a7ca1f4408112",
  "strippedsize": 216,
  "size": 216,
  "weight": 864,
  "tx": [
    {
      "txid": "4f9ce81ea56d90b41619613aa10b4c14690ad1d1c02b234afd5219ebf89a1482",
      "hash": "4f9ce81ea56d90b41619613aa10b4c14690ad1d1c02b234afd5219ebf89a1482",
      "version": 1,
      "size": 135,
      "vsize": 135,
      "weight": 540,
      "locktime": 0,
      "vin": [
        {
          "coinbase": "04ffff001d020005",
          "sequence": 4294967295
        }
      ],
      "vout": [
        {
          "value": 50.0,
          "n": 0,
          "scriptPubKey": {
            "asm": "042c4ece5fa625ba74e86571f26d5569bfa4b4378740d3839fc1650772a012e50619dfced157fefa8208dc6ebe2e31c5303dfc383d3e39ff32d903231e3a8f8477 OP_CHECKSIG",
            "desc": "pk(042c4ece5fa625ba74e86571f26d5569bfa4b4378740d3839fc1650772a012e50619dfced157fefa8208dc6ebe2e31c5303dfc383d3e39ff32d903231e3a8f8477)#4na02lal",
            "hex": "41042c4ece5fa625ba74e86571f26d5569bfa4b4378740d3839fc1650772a012e50619dfced157fefa8208dc6ebe2e31c5303dfc383d3e39ff32d903231e3a8f8477ac",
            "type": "pubkey"
          }
        }
      ],
      "hex": "01000000010000000000000000000000000000000000000000000000000000000000000000ffffffff0804ffff001d020005ffffffff0100f2052a010000004341042c4ece5fa625ba74e86571f26d5569bfa4b4378740d3839fc1650772a012e50619dfced157fefa8208dc6ebe2e31c5303dfc383d3e39ff32d903231e3a8f8477ac00000000"
    }
  ]
}