{
  "hash": "000000005f9b24448be4d2c0216ac940c35554a090c12c1192603b068e2d7be5",
  "confirmations": 48297,
  "height": 4801,
  "version": 1,
  "versionHex": "00000001",
  "merkleroot": "d4ed382db9292499283906b5c8c05fb0287c90a3950868b6887793d913e4cd08",
  "time": 1235000467,
  "mediantime": 1234996105,
  "nonce": 140680915,
  "bits": "1d00ffff",
  "difficulty": 1,
  "chainwork": "000000000000000000000000000000000000000000000000000012c212c212c2",
  "nTx": 1,
  "previousblockhash": "0000000097ff6abc82bca6f90e04c2f898fff86a3f13c361a712d4722f6871cf",
  "nextblockhash": "00000000b525d70053db9f1c2aac377a94f0779d04c58af7b1016d2da82674fd",
  "strippedsize": 216,
  "size": 216,
  "weight": 864,
  "tx": [
    {
      "txid": "d4ed382db9292499283906b5c8c05fb0287c90a3950868b6887793d913e4cd08",
      "hash": "d4ed382db9292499283906b5c8c05fb0287c90a3950868b6887793d913e4cd08",
      "version": 1,
      "size": 135,
      "vsize": 135,
      "weight": 540,
      "locktime": 0,
      "vin": [
        {
          "coinbase": "04ffff001d02590b",
          "sequence": 4294967295
        }
      ],
      "vout": [
        {
          "value": 50.0,
          "n": 0,
          "scriptPubKey": {
            "asm": "040882ad7cd0fcdde897a671475ad7494da82a31c376fd73f5539178a33b6cd3aa419ef4005549eb5f3e7529f138cdaaa7f17796ac878934cf4e2be51f0e63cc76 OP_CHECKSIG",
            "desc": "pk(040882ad7cd0fcdde897a671475ad7494da82a31c376fd73f5539178a33b6cd3aa419ef4005549eb5f3e7529f138cdaaa7f17796ac878934cf4e2be51f0e63cc76)#z20afaa6",
            "hex": "41040882ad7cd0fcdde897a671475ad7494da82a31c376fd73f5539178a33b6cd3aa419ef4005549eb5f3e7529f138cdaaa7f17796ac878934cf4e2be51f0e63cc76ac",
            "type": "pubkey"
          }
        }
      ],
      "hex": "01000000010000000000000000000000000000000000000000000000000000000000000000ffffffff0804ffff001d02590bffffffff0100f2052a010000004341040882ad7cd0fcdde897a671475ad7494da82a31c376fd73f5539178a33b6cd3aa419ef4005549eb5f3e7529f138cdaaa7f17796ac878934cf4e2be51f0e63cc76ac00000000"
    }
  ]
}