{
  "hash": "00000000790a957603fc7b301dfca1c8dd93837a6af49c87c85119e9335478ab",
  "confirmations": 52022,
  "height": 316,
  "version": 1,
  "versionHex": "00000001",
  "merkleroot": "7a21e4f7b21ebdcf4be47933e732ad6b2232bce85b7dfc1a922d53363018289b",
  "time": 1231844245,
  "mediantime": 1231840140,
  "nonce": 2522577445,
  "bits": "1d00ffff",
  "difficulty": 1,
  "chainwork": "0000000000000000000000000000000000000000000000000000013d013d013d",
  "nTx": 1,
  "previousblockhash": "00000000a165e7fd7ed07f753fea6acda46f374003c7acf3e0fc508b65376b6a",
  "nextblockhash": "000000004929d251b3802ccff6876d044ac68e0bedd37edb2ac735f771ffb04a",
  "strippedsize": 216,
  "size": 216,
  "weight": 864,
  "tx": [
    {
      "txid": "7a21e4f7b21ebdcf4be47933e732ad6b2232bce85b7dfc1a922d53363018289b",
      "hash": "7a21e4f7b21ebdcf4be47933e732ad6b2232bce85b7dfc1a922d53363018289b",
      "version": 1,
      "size": 135,
      "vsize": 135,
      "weight": 540,
      "locktime": 0,
      "vin": [
        {
          "coinbase": "04ffff001d02c800",
          "sequence": 4294967295
        }
      ],
      "vout": [
        {
          "value": 50.0,
          "n": 0,
          "scriptPubKey": {
            "asm": "0459e36c0db3d04feb44a906cf5508a7ce5812c0e3f1dddc31a3e121407a030bd8c0e45969b10e0778f2e32474bd27740258bacda5411c498793e64a66a9911146 OP_CHECKSIG",
            "desc": "pk(0459e36c0db3d04feb44a906cf5508a7ce5812c0e3f1dddc31a3e121407a030bd8c0e45969b10e0778f2e32474bd27740258bacda5411c498793e64a66a9911146)#z32n3qpk",
            "hex": "410459e36c0db3d04feb44a906cf5508a7ce5812c0e3f1dddc31a3e121407a030bd8c0e45969b10e0778f2e32474bd27740258bacda5411c498793e64a66a9911146ac",
            "type": "pubkey"
          }
        }
      ],
      "hex": "01000000010000000000000000000000000000000000000000000000000000000000000000ffffffff0804ffff001d02c800ffffffff0100f2052a0100000043410459e36c0db3d04feb44a906cf5508a7ce5812c0e3f1dddc31a3e121407a030bd8c0e45969b10e0778f2e32474bd27740258bacda5411c498793e64a66a9911146ac00000000"
    }
  ]
}