{
  "hash": "0000000011037ba6c8f7ecb30499daa83d745818edfe8ddfaa1801215e8dc5b3",
  "confirmations": 45199,
  "height": 7899,
  "version": 1,
  "versionHex": "00000001",
  "merkleroot": "1311f72c0fd6f8886334bceeae254da167f1f0177731a9d862162d10c400863b",
  "time": 1237390668,
  "mediantime": 1237387303,
  "nonce": 27263492,
  "bits": "1d00ffff",
  "difficulty": 1,
  "chainwork": "00000000000000000000000000000000000000000000000000001edc1edc1edc",
  "nTx": 1,
  "previousblockhash": "000000004be011192200692e4bd803d4963f13a1b221c290fe325c91bc18b4f3",
  "nextblockhash": "00000000b5514e2e72cec7ee5d03cedd91dea5c31580673911d159711035e2f2",
  "strippedsize": 216,
  "size": 216,
  "weight": 864,
  "tx": [
    {
      "txid": "1311f72c0fd6f8886334bceeae254da167f1f0177731a9d862162d10c400863b",
      "hash": "1311f72c0fd6f8886334bceeae254da167f1f0177731a9d862162d10c400863b",
      "version": 1,
      "size": 135,
      "vsize": 135,
      "weight": 540,
      "locktime": 0,
      "vin": [
        {
          "coinbase": "04ffff001d026f07",
          "sequence": 4294967295
        }
      ],
      "vout": [
        {
          "value": 50.0,
          "n": 0,
          "scriptPubKey": {
            "asm": "0445b56cce35923400fdbecdf690ff15ce917248909e8accaa3a4b84a7f9231cf98ef029069e8a21c7381043c6b0255f7f098cc64be17f114fa4a15a58ce5fd738 OP_CHECKSIG",
            "desc": "pk(0445b56cce35923400fdbecdf690ff15ce917248909e8accaa3a4b84a7f9231cf98ef029069e8a21c7381043c6b0255f7f098cc64be17f114fa4a15a58ce5fd738)#z6ckz0a8",
            "hex": "410445b56cce35923400fdbecdf690ff15ce917248909e8accaa3a4b84a7f9231cf98ef029069e8a21c7381043c6b0255f7f098cc64be17f114fa4a15a58ce5fd738ac",
            "type": "pubkey"
          }
        }
      ],
      "hex": "01000000010000000000000000000000000000000000000000000000000000000000000000ffffffff0804ffff001d026f07ffffffff0100f2052a0100000043410445b56cce35923400fdbecdf690ff15ce917248909e8accaa3a4b84a7f9231cf98ef029069e8a21c7381043c6b0255f7f098cc64be17f114fa4a15a58ce5fd738ac00000000"
    }
  ]
}