{
  "hash": "000000005446a2e7544a571fe72aac68046ad5e18d31badde7196eff89f2c43c",
  "confirmations": 46144,
  "height": 6954,
  "version": 1,
  "versionHex": "00000001",
  "merkleroot": "d6f76dee62d31ddae7484f0913e1ee1c218961cce5a573f05ddf7d50ac33b30f",
  "time": 1236683703,
  "mediantime": 1236679434,
  "nonce": 16824069,
  "bits": "1d00ffff",
  "difficulty": 1,
  "chainwork": "00000000000000000000000000000000000000000000000000001b2b1b2b1b2b",
  "nTx": 1,
  "previousblockhash": "000000009528e65fa55b5dfdfbb9662aececf54169bc5e2a7379128ec4345765",
  "nextblockhash": "0000000020e3e93765e3c3bdf4ff2aeae61bcaa177d9bc4ab8dd8911110e8511",
  "strippedsize": 216,
  "size": 216,
  "weight": 864,
  "tx": [
    {
      "txid": "d6f76dee62d31ddae7484f0913e1ee1c218961cce5a573f05ddf7d50ac33b30f",
      "hash": "d6f76dee62d31ddae7484f0913e1ee1c218961cce5a573f05ddf7d50ac33b30f",
      "version": 1,
      "size": 135,
      "vsize": 135,
      "weight": 540,
      "locktime": 0,
      "vin": [
        {
          "coinbase": "04ffff001d026c01",
          "sequence": 4294967295
        }
      ],
      "vout": [
        {
          "value": 50.0,
          "n": 0,
          "scriptPubKey": {
            "asm": "04cf85f45acd7cd95909e2b4cb4c3a9477aa0af3c94faf89cdda0e37236c4eb4c03e57186276740c858f974e6f6bb2727d7e2dcb71e859b9a551e0a08e56e0ed17 OP_CHECKSIG",
            "desc": "pk(04cf85f45acd7cd95909e2b4cb4c3a9477aa0af3c94faf89cdda0e37236c4eb4c03e57186276740c858f974e6f6bb2727d7e2dcb71e859b9a551e0a08e56e0ed17)#r8n4uwvp",
            "hex": "4104cf85f45acd7cd95909e2b4cb4c3a9477aa0af3c94faf89cdda0e37236c4eb4c03e57186276740c858f974e6f6bb2727d7e2dcb71e859b9a551e0a08e56e0ed17ac",
            "type": "pubkey"
          }
        }
      ],
      "hex": "01000000010000000000000000000000000000000000000000000000000000000000000000ffffffff0804ffff001d026c01ffffffff0100f2052a01000000434104cf85f45acd7cd95909e2b4cb4c3a9477aa0af3c94faf89cdda0e37236c4eb4c03e57186276740c858f974e6f6bb2727d7e2dcb71e859b9a551e0a08e56e0ed17ac00000000"
    }
  ]
}