{
  "hash": "00000000960a29c869fc09bae1f2475f2b85710b2070479e1a6c133768916921",
  "confirmations": 50891,
  "height": 2207,
  "version": 1,
  "versionHex": "00000001",
  "merkleroot": "ef7e662c376ea3248ee4d3c310c01055831ead3e895babdb09f3a3d378522136",
  "time": 1233219856,
  "mediantime": 1233217662,
  "nonce": 1738212410,
  "bits": "1d00ffff",
  "difficulty": 1,
  "chainwork": "000000000000000000000000000000000000000000000000000008a008a008a0",
  "nTx": 1,
  "previousblockhash": "0000000072f60db6866296490c6a70516b5258b7fce00ae379b6633f22ae0d66",
  "nextblockhash": "00000000e6296f1eda44755317774b3e9ab1f585fe39c373d0af59092e79bd80",
  "strippedsize": 215,
  "size": 215,
  "weight": 860,
  "tx": [
    {
      "txid": "ef7e662c376ea3248ee4d3c310c01055831ead3e895babdb09f3a3d378522136",
      "hash": "ef7e662c376ea3248ee4d3c310c01055831ead3e895babdb09f3a3d378522136",
      "version": 1,
      "size": 134,
      "vsize": 134,
      "weight": 536,
      "locktime": 0,
      "vin": [
        {
          "coinbase": "04ffff001d017c",
          "sequence": 4294967295
        }
      ],
      "vout": [
        {
          "value": 50.0,
          "n": 0,
          "scriptPubKey": {
            "asm": "044c9c85caaee9f92da16dd4d145b6a13643322258c93f1d297e82d6030ca3074394aa448e1fde26b59ddb2dbab0dbe1794c6ad5b619c1226f9ba88e2d9bd455c4 OP_CHECKSIG",
            "desc": "pk(044c9c85caaee9f92da16dd4d145b6a13643322258c93f1d297e82d6030ca3074394aa448e1fde26b59ddb2dbab0dbe1794c6ad5b619c1226f9ba88e2d9bd455c4)#ln4hmuy7",
            "hex": "41044c9c85caaee9f92da16dd4d145b6a13643322258c93f1d297e82d6030ca3074394aa448e1fde26b59ddb2dbab0dbe1794c6ad5b619c1226f9ba88e2d9bd455c4ac",
            "type": "pubkey"
          }
        }
      ],
      "hex": "01000000010000000000000000000000000000000000000000000000000000000000000000ffffffff0704ffff001d017cffffffff0100f2052a010000004341044c9c85caaee9f92da16dd4d145b6a13643322258c93f1d297e82d6030ca3074394aa448e1fde26b59ddb2dbab0dbe1794c6ad5b619c1226f9ba88e2d9bd455c4ac00000000"
    }
  ]
}