{
  "hash": "00000000c3665928b750dbcd90eccfa48974c95a48ac2e4b19159341ce870d51",
  "confirmations": 46351,
  "height": 6747,
  "version": 1,
  "versionHex": "00000001",
  "merkleroot": "50c1fed12b3be5f34c9486f8cf6a1f0ba26c9411ae21f0673dc3fede0aa9537c",
  "time": 1236517836,
  "mediantime": 1236513414,
  "nonce": 3573256754,
  "bits": "1d00ffff",
  "difficulty": 1,
  "chainwork": "00000000000000000000000000000000000000000000000000001a5c1a5c1a5c",
  "nTx": 1,
  "previousblockhash": "000000009300b70e71451244de470a3fc53f58bab347292149d6b375ccb85eb4",
  "nextblockhash": "00000000a4b2ad5591c6de2f743742935cfde0adb4b590de1520abe7c0cefd68",
  "strippedsize": 216,
  "size": 216,
  "weight": 864,
  "tx": [
    {
      "txid": "50c1fed12b3be5f34c9486f8cf6a1f0ba26c9411ae21f0673dc3fede0aa9537c",
      "hash": "50c1fed12b3be5f34c9486f8cf6a1f0ba26c9411ae21f0673dc3fede0aa9537c",
      "version": 1,
      "size": 135,
      "vsize": 135,
      "weight": 540,
      "locktime": 0,
      "vin": [
        {
          "coinbase": "04ffff001d020e08",
          "sequence": 4294967295
        }
      ],
      "vout": [
        {
          "value": 50.0,
          "n": 0,
          "scriptPubKey": {
            "asm": "04115383c639a1dcc6dc89d1cde47cbc84735db6ce1058ddc2afc67ac965c3f0d916ed4d739185ee876cae06285ae644bc9b5b0c4142e0beb87e902b8c037abf5f OP_CHECKSIG",
            "desc": "pk(04115383c639a1dcc6dc89d1cde47cbc84735db6ce1058ddc2afc67ac965c3f0d916ed4d739185ee876cae06285ae644bc9b5b0c4142e0beb87e902b8c037abf5f)#726preqe",
            "hex": "4104115383c639a1dcc6dc89d1cde47cbc84735db6ce1058ddc2afc67ac965c3f0d916ed4d739185ee876cae06285ae644bc9b5b0c4142e0beb87e902b8c037abf5fac",
            "type": "pubkey"
          }
        }
      ],
      "hex": "01000000010000000000000000000000000000000000000000000000000000000000000000ffffffff0804ffff001d020e08ffffffff0100f2052a01000000434104115383c639a1dcc6dc89d1cde47cbc84735db6ce1058ddc2afc67ac965c3f0d916ed4d739185ee876cae06285ae644bc9b5b0c4142e0beb87e902b8c037abf5fac00000000"
    }
  ]
}