{
  "hash": "000000006647ee2e6199ed2ef35a85c62d4b0a378c9958e93ee1b5cbe1348715",
  "confirmations": 46011,
  "height": 7087,
  "version": 1,
  "versionHex": "00000001",
  "merkleroot": "dc17b739b85a5757a7a12a5253312043ac46424236332b7e0459697dd0b82946",
  "time": 1236787338,
  "mediantime": 1236782333,
  "nonce": 3246734382,
  "bits": "1d00ffff",
  "difficulty": 1,
  "chainwork": "00000000000000000000000000000000000000000000000000001bb01bb01bb0",
  "nTx": 1,
  "previousblockhash": "000000001d16ed426f26ce1f49967973f095f789b285c28406d1759320e860ad",
  "nextblockhash": "00000000ee293cb25df5e37330c33e51894decbd813e7f15af3a6e9cad9adea4",
  "strippedsize": 216,
  "size": 216,
  "weight": 864,
  "tx": [
    {
      "txid": "dc17b739b85a5757a7a12a5253312043ac46424236332b7e0459697dd0b82946",
      "hash": "dc17b739b85a5757a7a12a5253312043ac46424236332b7e0459697dd0b82946",
      "version": 1,
      "size": 135,
      "vsize": 135,
      "weight": 540,
      "locktime": 0,
      "vin": [
        {
          "coinbase": "04ffff001d02cb03",
          "sequence": 4294967295
        }
      ],
      "vout": [
        {
          "value": 50.0,
          "n": 0,
          "scriptPubKey": {
            "asm": "041e4b4e4fbce61f3994685695283ffcdc43a6847ae5257efd63903d430b14156dc6501d7d533ca1c9e903ce128bcd6f1356bc17a9227ac68b4526e008de02b2ae OP_CHECKSIG",
            "desc": "pk(041e4b4e4fbce61f3994685695283ffcdc43a6847ae5257efd63903d430b14156dc6501d7d533ca1c9e903ce128bcd6f1356bc17a9227ac68b4526e008de02b2ae)#z3sa4cl0",
            "hex": "41041e4b4e4fbce61f3994685695283ffcdc43a6847ae5257efd63903d430b14156dc6501d7d533ca1c9e903ce128bcd6f1356bc17a9227ac68b4526e008de02b2aeac",
            "type": "pubkey"
          }
        }
      ],
      "hex": "01000000010000000000000000000000000000000000000000000000000000000000000000ffffffff0804ffff001d02cb03ffffffff0100f2052a010000004341041e4b4e4fbce61f3994685695283ffcdc43a6847ae5257efd63903d430b14156dc6501d7d533ca1c9e903ce128bcd6f1356bc17a9227ac68b4526e008de02b2aeac00000000"
    }
  ]
}