{
  "hash": "0000000097e8325b37343ea6e7004b8b088602a68065cd7ada89aef6da0a3abe",
  "confirmations": 52335,
  "height": 763,
  "version": 1,
  "versionHex": "00000001",
  "merkleroot": "a21f53c4457aacf4a3403e8e8dc97745379970148ac1448c15cb8cac8006af4e",
  "time": 1232161744,
  "mediantime": 1232157221,
  "nonce": 3987125286,
  "bits": "1d00ffff",
  "difficulty": 1,
  "chainwork": "000000000000000000000000000000000000000000000000000002fc02fc02fc",
  "nTx": 1,
  "previousblockhash": "00000000d5ab597214e9a7d2f83e0a21696d5ebf4910c2d7d283794d68129aac",
  "nextblockhash": "000000002727bdb811d6c1dc0cc2121ac07a90e37b83954eafe8ae948388aaef",
  "strippedsize": 216,
  "size": 216,
  "weight": 864,
  "tx": [
    {
      "txid": "a21f53c4457aacf4a3403e8e8dc97745379970148ac1448c15cb8cac8006af4e",
      "hash": "a21f53c4457aacf4a3403e8e8dc97745379970148ac1448c15cb8cac8006af4e",
      "version": 1,
      "size": 135,
      "vsize": 135,
      "weight": 540,
      "locktime": 0,
      "vin": [
        {
          "coinbase": "04ffff001d02c700",
          "sequence": 4294967295
        }
      ],
      "vout": [
        {
          "value": 50.0,
          "n": 0,
          "scriptPubKey": {
            "asm": "049cc7acfa563c208aa0d606ec83077884b9d01679ce2f52f0b775cd170c3de35714cbe166ec78e7f37888a7ab506ec2c7ffe1960c4fab2e1d80ee6a838ce4bd37 OP_CHECKSIG",
            "desc": "pk(049cc7acfa563c208aa0d606ec83077884b9d01679ce2f52f0b775cd170c3de35714cbe166ec78e7f37888a7ab506ec2c7ffe1960c4fab2e1d80ee6a838ce4bd37)#5c5wypz5",
            "hex": "41049cc7acfa563c208aa0d606ec83077884b9d01679ce2f52f0b775cd170c3de35714cbe166ec78e7f37888a7ab506ec2c7ffe1960c4fab2e1d80ee6a838ce4bd37ac",
            "type": "pubkey"
          }
        }
      ],
      "hex": "01000000010000000000000000000000000000000000000000000000000000000000000000ffffffff0804ffff001d02c700ffffffff0100f2052a010000004341049cc7acfa563c208aa0d606ec83077884b9d01679ce2f52f0b775cd170c3de35714cbe166ec78e7f37888a7ab506ec2c7ffe1960c4fab2e1d80ee6a838ce4bd37ac00000000"
    }
  ]
}