{
  "hash": "000000003584db918b8667b768953ddff4489d491287aee518a91822e3660db4",
  "confirmations": 52475,
  "height": 623,
  "version": 1,
  "versionHex": "00000001",
  "merkleroot": "7439541b9f831082d7a9de2586e52edeedca81735764001d116c2a61bebae135",
  "time": 1232051797,
  "mediantime": 1232048357,
  "nonce": 2640010276,
  "bits": "1d00ffff",
  "difficulty": 1,
  "chainwork": "0000000000000000000000000000000000000000000000000000027002700270",
  "nTx": 1,
  "previousblockhash": "0000000045aa7ab90c20cf83d0206c6acdd431b52926962ffd46930ed7a04f5c",
  "nextblockhash": "00000000cf6faaa863599e2e84c38c87ae48ab71b0d181a86921ec265a94aa1f",
  "strippedsize": 216,
  "size": 216,
  "weight": 864,
  "tx": [
    {
      "txid": "7439541b9f831082d7a9de2586e52edeedca81735764001d116c2a61bebae135",
      "hash": "7439541b9f831082d7a9de2586e52edeedca81735764001d116c2a61bebae135",
      "version": 1,
      "size": 135,
      "vsize": 135,
      "weight": 540,
      "locktime": 0,
      "vin": [
        {
          "coinbase": "04ffff001d020707",
          "sequence": 4294967295
        }
      ],
      "vout": [
        {
          "value": 50.0,
          "n": 0,
          "scriptPubKey": {
            "asm": "04be2210d640b4500ca34004b8fcae190dcddb69f1446f323dd73ebc76b2446ffbf33b87372566b6e0f86cbb49ba57ccfe9661daef38577dce656d54e153b67ebd OP_CHECKSIG",
            "desc": "pk(04be2210d640b4500ca34004b8fcae190dcddb69f1446f323dd73ebc76b2446ffbf33b87372566b6e0f86cbb49ba57ccfe9661daef38577dce656d54e153b67ebd)#xc3vc8aa",
            "hex": "4104be2210d640b4500ca34004b8fcae190dcddb69f1446f323dd73ebc76b2446ffbf33b87372566b6e0f86cbb49ba57ccfe9661daef38577dce656d54e153b67ebdac",
            "type": "pubkey"
          }
        }
      ],
      "hex": "01000000010000000000000000000000000000000000000000000000000000000000000000ffffffff0804ffff001d020707ffffffff0100f2052a01000000434104be2210d640b4500ca34004b8fcae190dcddb69f1446f323dd73ebc76b2446ffbf33b87372566b6e0f86cbb49ba57ccfe9661daef38577dce656d54e153b67ebdac00000000"
    }
  ]
}