{
  "hash": "0000000099b87777f68f4308d652508aff9e586f314c69a58f30bb6c22b6b58c",
  "confirmations": 52282,
  "height": 816,
  "version": 1,
  "versionHex": "00000001",
  "merkleroot": "a8987b44c876befc29e2c1e358effc17ae63c4adcba573d39e5c11a30372d8bf",
  "time": 1232204591,
  "mediantime": 1232201404,
  "nonce": 1970918913,
  "bits": "1d00ffff",
  "difficulty": 1,
  "chainwork": "0000000000000000000000000000000000000000000000000000033103310331",
  "nTx": 1,
  "previousblockhash": "000000005310be1d1359d2ee7a7b810dae924ce77f22e5b48a44d248899c5134",
  "nextblockhash": "000000004a55646233610a6524b766a472a8764e8a8db78e752b9fcefd9cb01c",
  "strippedsize": 216,
  "size": 216,
  "weight": 864,
  "tx": [
    {
      "txid": "a8987b44c876befc29e2c1e358effc17ae63c4adcba573d39e5c11a30372d8bf",
      "hash": "a8987b44c876befc29e2c1e358effc17ae63c4adcba573d39e5c11a30372d8bf",
      "version": 1,
      "size": 135,
      "vsize": 135,
      "weight": 540,
      "locktime": 0,
      "vin": [
        {
          "coinbase": "04ffff001d02ca01",
          "sequence": 4294967295
        }
      ],
      "vout": [
        {
          "value": 50.0,
          "n": 0,
          "scriptPubKey": {
            "asm": "041b58b9b55bf1623cf1aef126e37e5b2cd02ac3747b7c3a592d73d7b8a1d8469795958a9db68d9485ab9b3c5ec665807e67e89ea156b6d9bf7102229f287757d5 OP_CHECKSIG",
            "desc": "pk(041b58b9b55bf1623cf1aef126e37e5b2cd02ac3747b7c3a592d73d7b8a1d8469795958a9db68d9485ab9b3c5ec665807e67e89ea156b6d9bf7102229f287757d5)#nw2dk4w7",
            "hex": "41041b58b9b55bf1623cf1aef126e37e5b2cd02ac3747b7c3a592d73d7b8a1d8469795958a9db68d9485ab9b3c5ec665807e67e89ea156b6d9bf7102229f287757d5ac",
            "type": "pubkey"
          }
        }
      ],
      "hex": "01000000010000000000000000000000000000000000000000000000000000000000000000ffffffff0804ffff001d02ca01ffffffff0100f2052a010000004341041b58b9b55bf1623cf1aef126e37e5b2cd02ac3747b7c3a592d73d7b8a1d8469795958a9db68d9485ab9b3c5ec665807e67e89ea156b6d9bf7102229f287757d5ac00000000"
    }
  ]
}