{
  "hash": "000000005c9912b5b1fb72d43e990d730e8826dd1629d33214cbc74828eab8f4",
  "confirmations": 47812,
  "height": 5286,
  "version": 1,
  "versionHex": "00000001",
  "merkleroot": "2a39b42bd96268b1be00432fbe6eb1e7d010c0278e2385a2d78555cd31b69741",
  "time": 1235349846,
  "mediantime": 1235345724,
  "nonce": 409947711,
  "bits": "1d00ffff",
  "difficulty": 1,
  "chainwork": "000000000000000000000000000000000000000000000000000014a714a714a7",
  "nTx": 1,
  "previousblockhash": "0000000041b04aa7c4de065196858b0cb9fce59b3d36b438e59043bba4c68ab3",
  "nextblockhash": "000000006dcc7b6f3aabef0115fed3a5f7686157f6827a8e1d246cedc9e6c387",
  "strippedsize": 216,
  "size": 216,
  "weight": 864,
  "tx": [
    {
      "txid": "2a39b42bd96268b1be00432fbe6eb1e7d010c0278e2385a2d78555cd31b69741",
      "hash": "2a39b42bd96268b1be00432fbe6eb1e7d010c0278e2385a2d78555cd31b69741",
      "version": 1,
      "size": 135,
      "vsize": 135,
      "weight": 540,
      "locktime": 0,
      "vin": [
        {
          "coinbase": "04ffff001d028500",
          "sequence": 4294967295
        }
      ],
      "vout": [
        {
          "value": 50.0,
          "n": 0,
          "scriptPubKey": {
            "asm": "048fb652c293ff346770599a0a14cf9e06073536cbfa1e71c0cf8ec7f81b1af726963c42c42dc350fa211d4d2da47477ec4e5a295bbf662a4e36366cdc72da607c OP_CHECKSIG",
            "desc": "pk(048fb652c293ff346770599a0a14cf9e06073536cbfa1e71c0cf8ec7f81b1af726963c42c42dc350fa211d4d2da47477ec4e5a295bbf662a4e36366cdc72da607c)#tnfvs3hv",
            "hex": "41048fb652c293ff346770599a0a14cf9e06073536cbfa1e71c0cf8ec7f81b1af726963c42c42dc350fa211d4d2da47477ec4e5a295bbf662a4e36366cdc72da607cac",
            "type": "pubkey"
          }
        }
      ],
      "hex": "01000000010000000000000000000000000000000000000000000000000000000000000000ffffffff0804ffff001d028500ffffffff0100f2052a010000004341048fb652c293ff346770599a0a14cf9e06073536cbfa1e71c0cf8ec7f81b1af726963c42c42dc350fa211d4d2da47477ec4e5a295bbf662a4e36366cdc72da607cac00000000"
    }
  ]
}