{
  "hash": "00000000283d033f128eb4629a36a4d2ed0c41aef6e0f4c7338bcd71ddcec8dd",
  "confirmations": 45580,
  "height": 7518,
  "version": 1,
  "versionHex": "00000001",
  "merkleroot": "1a369486e8be46b41e8d5a5894b67104f8c10146ab145a170dbdcd6928ccfde3",
  "time": 1237109947,
  "mediantime": 1237106406,
  "nonce": 618420784,
  "bits": "1d00ffff",
  "difficulty": 1,
  "chainwork": "00000000000000000000000000000000000000000000000000001d5f1d5f1d5f",
  "nTx": 1,
  "previousblockhash": "000000001f91e37ad5165ede25490fb2933149d8beb4de4505a7fa734f997edb",
  "nextblockhash": "000000006b7856a64c41411462e7328a5f0b241a891f7077af947e53bd2b3d49",
  "strippedsize": 216,
  "size": 216,
  "weight": 864,
  "tx": [
    {
      "txid": "1a369486e8be46b41e8d5a5894b67104f8c10146ab145a170dbdcd6928ccfde3",
      "hash": "1a369486e8be46b41e8d5a5894b67104f8c10146ab145a170dbdcd6928ccfde3",
      "version": 1,
      "size": 135,
      "vsize": 135,
      "weight": 540,
      "locktime": 0,
      "vin": [
        {
          "coinbase": "04ffff001d023901",
          "sequence": 4294967295
        }
      ],
      "vout": [
        {
          "value": 50.0,
          "n": 0,
          "scriptPubKey": {
            "asm": "045251adbe7ca01b526370b1b2b40a5c9cc772ae04b03004b82a431808fa23f687c07a44bef3a703c19ee149411c8c91acbbc92039b59deb29e4b876417d0a7a64 OP_CHECKSIG",
            "desc": "pk(045251adbe7ca01b526370b1b2b40a5c9cc772ae04b03004b82a431808fa23f687c07a44bef3a703c19ee149411c8c91acbbc92039b59deb29e4b876417d0a7a64)#4yd8mu2e",
            "hex": "41045251adbe7ca01b526370b1b2b40a5c9cc772ae04b03004b82a431808fa23f687c07a44bef3a703c19ee149411c8c91acbbc92039b59deb29e4b876417d0a7a64ac",
            "type": "pubkey"
          }
        }
      ],
      "hex": "01000000010000000000000000000000000000000000000000000000000000000000000000ffffffff0804ffff001d023901ffffffff0100f2052a010000004341045251adbe7ca01b526370b1b2b40a5c9cc772ae04b03004b82a431808fa23f687c07a44bef3a703c19ee149411c8c91acbbc92039b59deb29e4b876417d0a7a64ac00000000"
    }
  ]
}