{
  "hash": "00000000ef271937f59286dc81d6b28196ff099bf266e12a3442c4b82c9db814",
  "confirmations": 52032,
  "height": 197,
  "version": 1,
  "versionHex": "00000001",
  "merkleroot": "7a98238d69b473e82a4ccfa62463064379c0c96fa890a951ccdbb924f5572dcb",
  "time": 1231751312,
  "mediantime": 1231747164,
  "nonce": 2505039909,
  "bits": "1d00ffff",
  "difficulty": 1,
  "chainwork": "000000000000000000000000000000000000000000000000000000c600c600c6",
  "nTx": 1,
  "previousblockhash": "0000000091206177d68fee7a5a6b4a0747c39061c2eb82f800b447a077bfe310",
  "nextblockhash": "00000000e85458c1467176b04a65d5efaccfecaaab717b17a587b4069276e143",
  "strippedsize": 215,
  "size": 215,
  "weight": 860,
  "tx": [
    {
      "txid": "7a98238d69b473e82a4ccfa62463064379c0c96fa890a951ccdbb924f5572dcb",
      "hash": "7a98238d69b473e82a4ccfa62463064379c0c96fa890a951ccdbb924f5572dcb",
      "version": 1,
      "size": 134,
      "vsize": 134,
      "weight": 536,
      "locktime": 0,
      "vin": [
        {
          "coinbase": "04ffff001d011f",
          "sequence": 4294967295
        }
      ],
      "vout": [
        {
          "value": 50.0,
          "n": 0,
          "scriptPubKey": {
            "asm": "0441f84af9b0d434a654d041e22314144621b395f166e01abb2df9d603d7d838fc44a2a52276fe747833d737e80edd5ba0b9d5b5000985e5392463337e129ea676 OP_CHECKSIG",
            "desc": "pk(0441f84af9b0d434a654d041e22314144621b395f166e01abb2df9d603d7d838fc44a2a52276fe747833d737e80edd5ba0b9d5b5000985e5392463337e129ea676)#z6z7fxq0",
            "hex": "410441f84af9b0d434a654d041e22314144621b395f166e01abb2df9d603d7d838fc44a2a52276fe747833d737e80edd5ba0b9d5b5000985e5392463337e129ea676ac",
            "type": "pubkey"
          }
        }
      ],
      "hex": "01000000010000000000000000000000000000000000000000000000000000000000000000ffffffff0704ffff001d011fffffffff0100f2052a0100000043410441f84af9b0d434a654d041e22314144621b395f166e01abb2df9d603d7d838fc44a2a52276fe747833d737e80edd5ba0b9d5b5000985e5392463337e129ea676ac00000000"
    }
  ]
}