{
  "hash": "00000000b67f02c870135e1295b98394f753bc4a3b11c2ff2d5647ec39735366",
  "confirmations": 45373,
  "height": 7725,
  "version": 1,
  "versionHex": "00000001",
  "merkleroot": "18440d7a417b51cf2a2721abb9135f28e0801fcf9060682453f7e41a9fc2bee1",
  "time": 1237257484,
  "mediantime": 1237253632,
  "nonce": 3390957063,
  "bits": "1d00ffff",
  "difficulty": 1,
  "chainwork": "00000000000000000000000000000000000000000000000000001e2e1e2e1e2e",
  "nTx": 1,
  "previousblockhash": "00000000f34b30fb06e1a3a9af5421f762f9ebde42b3e030927a1e3ab9e4bef6",
  "nextblockhash": "0000000024a5462b56ce978327e365015ee6efd754c1d8b51070fdeaea129f04",
  "strippedsize": 216,
  "size": 216,
  "weight": 864,
  "tx": [
    {
      "txid": "18440d7a417b51cf2a2721abb9135f28e0801fcf9060682453f7e41a9fc2bee1",
      "hash": "18440d7a417b51cf2a2721abb9135f28e0801fcf9060682453f7e41a9fc2bee1",
      "version": 1,
      "size": 135,
      "vsize": 135,
      "weight": 540,
      "locktime": 0,
      "vin": [
        {
          "coinbase": "04ffff001d029904",
          "sequence": 4294967295
        }
      ],
      "vout": [
        {
          "value": 50.0,
          "n": 0,
          "scriptPubKey": {
            "asm": "04ffc840fde21777b4f721c300adbb470331eda190b5f5314b275f75f11a8e42eb979982a8bfa31853639b416c97e591c4d154bf9fac6066f4a885e6d0dc79b1c3 OP_CHECKSIG",
            "desc": "pk(04ffc840fde21777b4f721c300adbb470331eda190b5f5314b275f75f11a8e42eb979982a8bfa31853639b416c97e591c4d154bf9fac6066f4a885e6d0dc79b1c3)#vp8hzy5p",
            "hex": "4104ffc840fde21777b4f721c300adbb470331eda190b5f5314b275f75f11a8e42eb979982a8bfa31853639b416c97e591c4d154bf9fac6066f4a885e6d0dc79b1c3ac",
            "type": "pubkey"
          }
        }
      ],
      "hex": "01000000010000000000000000000000000000000000000000000000000000000000000000ffffffff0804ffff001d029904ffffffff0100f2052a01000000434104ffc840fde21777b4f721c300adbb470331eda190b5f5314b275f75f11a8e42eb979982a8bfa31853639b416c97e591c4d154bf9fac6066f4a885e6d0dc79b1c3ac00000000"
    }
  ]
}