{
  "hash": "000000002a43f5df49322805bd01cde675cdc39a13bfcb1b0186f1877756b6d5",
  "confirmations": 46296,
  "height": 6802,
  "version": 1,
  "versionHex": "00000001",
  "merkleroot": "ee92edf606e5d6e83f45e28e28e89a978cf155c9747fa7291f926b609949dc8c",
  "time": 1236559263,
  "mediantime": 1236555784,
  "nonce": 3093752625,
  "bits": "1d00ffff",
  "difficulty": 1,
  "chainwork": "00000000000000000000000000000000000000000000000000001a931a931a93",
  "nTx": 1,
  "previousblockhash": "0000000009e116a06e5a8ee2f64f3777ff2d82cfaf10a97a6a27fb947a835353",
  "nextblockhash": "0000000024e6fc9d04106a21dc9171f2c1a214d62c71747e155d652577758a6e",
  "strippedsize": 216,
  "size": 216,
  "weight": 864,
  "tx": [
    {
      "txid": "ee92edf606e5d6e83f45e28e28e89a978cf155c9747fa7291f926b609949dc8c",
      "hash": "ee92edf606e5d6e83f45e28e28e89a978cf155c9747fa7291f926b609949dc8c",
      "version": 1,
      "size": 135,
      "vsize": 135,
      "weight": 540,
      "locktime": 0,
      "vin": [
        {
          "coinbase": "04ffff001d021309",
          "sequence": 4294967295
        }
      ],
      "vout": [
        {
          "value": 50.0,
          "n": 0,
          "scriptPubKey": {
            "asm": "04ff39ae5d194c7bf385cfaf680cf6bd8d85583fb7b0b6c15f2321003abb1859e7dbfa165303ed7d5eb8f017e9656052d989e3266a3eda1e292f4467c0321bef8e OP_CHECKSIG",
            "desc": "pk(04ff39ae5d194c7bf385cfaf680cf6bd8d85583fb7b0b6c15f2321003abb1859e7dbfa165303ed7d5eb8f017e9656052d989e3266a3eda1e292f4467c0321bef8e)#fa7ggpn4",
            "hex": "4104ff39ae5d194c7bf385cfaf680cf6bd8d85583fb7b0b6c15f2321003abb1859e7dbfa165303ed7d5eb8f017e9656052d989e3266a3eda1e292f4467c0321bef8eac",
            "type": "pubkey"
          }
        }
      ],
      "hex": "01000000010000000000000000000000000000000000000000000000000000000000000000ffffffff0804ffff001d021309ffffffff0100f2052a01000000434104ff39ae5d194c7bf385cfaf680cf6bd8d85583fb7b0b6c15f2321003abb1859e7dbfa165303ed7d5eb8f017e9656052d989e3266a3eda1e292f4467c0321bef8eac00000000"
    }
  ]
}