{
  "hash": "000000006c6fc6a9889ec49f9468ec720b693881a62376ae61c9206cca4c79aa",
  "confirmations": 43625,
  "height": 9473,
  "version": 1,
  "versionHex": "00000001",
  "merkleroot": "64bf9f5b1212d9d0737dc3907e9f9542c46e8087efed8e53f5beabeb67c6dc9b",
  "time": 1238608559,
  "mediantime": 1238603848,
  "nonce": 2141592085,
  "bits": "1d00ffff",
  "difficulty": 1,
  "chainwork": "0000000000000000000000000000000000000000000000000000250225022502",
  "nTx": 1,
  "previousblockhash": "0000000086540541efbc04369ac58ccde00a83eded7155f62b40230da6774010",
  "nextblockhash": "00000000a6eacde42365a4e51b957cb29c21d8d52c217c058d5a59818a110abb",
  "strippedsize": 216,
  "size": 216,
  "weight": 864,
  "tx": [
    {
      "txid": "64bf9f5b1212d9d0737dc3907e9f9542c46e8087efed8e53f5beabeb67c6dc9b",
      "hash": "64bf9f5b1212d9d0737dc3907e9f9542c46e8087efed8e53f5beabeb67c6dc9b",
      "version": 1,
      "size": 135,
      "vsize": 135,
      "weight": 540,
      "locktime": 0,
      "vin": [
        {
          "coinbase": "04ffff001d02da04",
          "sequence": 4294967295
        }
      ],
      "vout": [
        {
          "value": 50.0,
          "n": 0,
          "scriptPubKey": {
            "asm": "0425d043e573e7d9920a3bbc6eb191c849e632f28e9436a12f394b841c71e671ac067da83b61c07f6ce1f9594e461dc4a068b626785ded9324de33215f2d90a163 OP_CHECKSIG",
            "desc": "pk(0425d043e573e7d9920a3bbc6eb191c849e632f28e9436a12f394b841c71e671ac067da83b61c07f6ce1f9594e461dc4a068b626785ded9324de33215f2d90a163)#lh27qu68",
            "hex": "410425d043e573e7d9920a3bbc6eb191c849e632f28e9436a12f394b841c71e671ac067da83b61c07f6ce1f9594e461dc4a068b626785ded9324de33215f2d90a163ac",
            "type": "pubkey"
          }
        }
      ],
      "hex": "01000000010000000000000000000000000000000000000000000000000000000000000000ffffffff0804ffff001d02da04ffffffff0100f2052a0100000043410425d043e573e7d9920a3bbc6eb191c849e632f28e9436a12f394b841c71e671ac067da83b61c07f6ce1f9594e461dc4a068b626785ded9324de33215f2d90a163ac00000000"
    }
  ]
}