{
  "hash": "00000000fe05ebd7a36e8b1b40f4116064bb005386df01b0ec353fa4225f48eb",
  "confirmations": 51584,
  "height": 1514,
  "version": 1,
  "versionHex": "00000001",
  "merkleroot": "0974cd910f0632604f778f86f69bc7226ae6d47aae3c2d6706e9b3511f5a43fd",
  "time": 1232773505,
  "mediantime": 1232771864,
  "nonce": 46601896,
  "bits": "1d00ffff",
  "difficulty": 1,
  "chainwork": "000000000000000000000000000000000000000000000000000005eb05eb05eb",
  "nTx": 1,
  "previousblockhash": "00000000fa66ffdee813787760787259bae445dac9939fbbfece689af56a31fa",
  "nextblockhash": "00000000acf5a1133f273d2ba5639cf33f5a502a124725c2d7e221044f850208",
  "strippedsize": 215,
  "size": 215,
  "weight": 860,
  "tx": [
    {
      "txid": "0974cd910f0632604f778f86f69bc7226ae6d47aae3c2d6706e9b3511f5a43fd",
      "hash": "0974cd910f0632604f778f86f69bc7226ae6d47aae3c2d6706e9b3511f5a43fd",
      "version": 1,
      "size": 134,
      "vsize": 134,
      "weight": 536,
      "locktime": 0,
      "vin": [
        {
          "coinbase": "04ffff001d0122",
          "sequence": 4294967295
        }
      ],
      "vout": [
        {
          "value": 50.0,
          "n": 0,
          "scriptPubKey": {
            "asm": "04c1ec087380251217f4c20cd531b48cbb039cf522684858b670c2d343f5b6d352acf6c4931cad5c0707bcff1659b67efc60c9442d33a951a9907dafb737d26976 OP_CHECKSIG",
            "desc": "pk(04c1ec087380251217f4c20cd531b48cbb039cf522684858b670c2d343f5b6d352acf6c4931cad5c0707bcff1659b67efc60c9442d33a951a9907dafb737d26976)#emlk0dyk",
            "hex": "4104c1ec087380251217f4c20cd531b48cbb039cf522684858b670c2d343f5b6d352acf6c4931cad5c0707bcff1659b67efc60c9442d33a951a9907dafb737d26976ac",
            "type": "pubkey"
          }
        }
      ],
      "hex": "01000000010000000000000000000000000000000000000000000000000000000000000000ffffffff0704ffff001d0122ffffffff0100f2052a01000000434104c1ec087380251217f4c20cd531b48cbb039cf522684858b670c2d343f5b6d352acf6c4931cad5c0707bcff1659b67efc60c9442d33a951a9907dafb737d26976ac00000000"
    }
  ]
}