{
  "hash": "00000000c0b5300ab3f48f768ccbea253d86dd894952ce048272787deb5bc2d9",
  "confirmations": 50049,
  "height": 3049,
  "version": 1,
  "versionHex": "00000001",
  "merkleroot": "800e2a734dc053d1ad2b33e665171a663c1c9b7aa68db4c9dca8fa8a1e1649a3",
  "time": 1233795081,
  "mediantime": 1233792927,
  "nonce": 1768674862,
  "bits": "1d00ffff",
  "difficulty": 1,
  "chainwork": "00000000000000000000000000000000000000000000000000000bea0bea0bea",
  "nTx": 1,
  "previousblockhash": "0000000078e35bc3183aa1dd53a37b58bae5b8417a7c0565cecc12af09084aa5",
  "nextblockhash": "00000000e6db66070661bcefe01e5b80626de9af28ed13c2786a9e5cb779d1d9",
  "strippedsize": 215,
  "size": 215,
  "weight": 860,
  "tx": [
    {
      "txid": "800e2a734dc053d1ad2b33e665171a663c1c9b7aa68db4c9dca8fa8a1e1649a3",
      "hash": "800e2a734dc053d1ad2b33e665171a663c1c9b7aa68db4c9dca8fa8a1e1649a3",
      "version": 1,
      "size": 134,
      "vsize": 134,
      "weight": 536,
      "locktime": 0,
      "vin": [
        {
          "coinbase": "04ffff001d012b",
          "sequence": 4294967295
        }
      ],
      "vout": [
        {
          "value": 50.0,
          "n": 0,
          "scriptPubKey": {
            "asm": "0447258901e22ddbc6833dae5413d82ea1b3457d433a0c29749e33da11d53ecabc3a3e50f1a27377ccd8f37050c1b6d83792013f94446ca3e64a990ece4a0c1b76 OP_CHECKSIG",
            "desc": "pk(0447258901e22ddbc6833dae5413d82ea1b3457d433a0c29749e33da11d53ecabc3a3e50f1a27377ccd8f37050c1b6d83792013f94446ca3e64a990ece4a0c1b76)#g5luscv8",
            "hex": "410447258901e22ddbc6833dae5413d82ea1b3457d433a0c29749e33da11d53ecabc3a3e50f1a27377ccd8f37050c1b6d83792013f94446ca3e64a990ece4a0c1b76ac",
            "type": "pubkey"
          }
        }
      ],
      "hex": "01000000010000000000000000000000000000000000000000000000000000000000000000ffffffff0704ffff001d012bffffffff0100f2052a0100000043410447258901e22ddbc6833dae5413d82ea1b3457d433a0c29749e33da11d53ecabc3a3e50f1a27377ccd8f37050c1b6d83792013f94446ca3e64a990ece4a0c1b76ac00000000"
    }
  ]
}