{
  "hash": "00000000adefd86a2e5602d66ba16e8cf1cdccce802762556061f4506ec7fd1c",
  "confirmations": 51571,
  "height": 1527,
  "version": 1,
  "versionHex": "00000001",
  "merkleroot": "71412205938f52f5a528b0f689575a3b77e76d01c32dacd43d20a28cd8531d1e",
  "time": 1232778415,
  "mediantime": 1232776178,
  "nonce": 1772022841,
  "bits": "1d00ffff",
  "difficulty": 1,
  "chainwork": "000000000000000000000000000000000000000000000000000005f805f805f8",
  "nTx": 1,
  "previousblockhash": "00000000e9f13af6043e8d4580b275b113202457e83aa96a6abc782ba5db2ae0",
  "nextblockhash": "00000000c9e353c5706413a4a94b0493f1c33243fe800fca039035a73410e643",
  "strippedsize": 216,
  "size": 216,
  "weight": 864,
  "tx": [
    {
      "txid": "71412205938f52f5a528b0f689575a3b77e76d01c32dacd43d20a28cd8531d1e",
      "hash": "71412205938f52f5a528b0f689575a3b77e76d01c32dacd43d20a28cd8531d1e",
      "version": 1,
      "size": 135,
      "vsize": 135,
      "weight": 540,
      "locktime": 0,
      "vin": [
        {
          "coinbase": "04ffff001d025501",
          "sequence": 4294967295
        }
      ],
      "vout": [
        {
          "value": 50.0,
          "n": 0,
          "scriptPubKey": {
            "asm": "04b5895bc3e0be345e3ff8d1fae7af557d60c1f992124c0f81fa5aab2ba7709c28557d0bd3ab6785de022ae8b2547137245aa5ba9131634508828cc142aa3f306f OP_CHECKSIG",
            "desc": "pk(04b5895bc3e0be345e3ff8d1fae7af557d60c1f992124c0f81fa5aab2ba7709c28557d0bd3ab6785de022ae8b2547137245aa5ba9131634508828cc142aa3f306f)#3t3mmz60",
            "hex": "4104b5895bc3e0be345e3ff8d1fae7af557d60c1f992124c0f81fa5aab2ba7709c28557d0bd3ab6785de022ae8b2547137245aa5ba9131634508828cc142aa3f306fac",
            "type": "pubkey"
          }
        }
      ],
      "hex": "01000000010000000000000000000000000000000000000000000000000000000000000000ffffffff0804ffff001d025501ffffffff0100f2052a01000000434104b5895bc3e0be345e3ff8d1fae7af557d60c1f992124c0f81fa5aab2ba7709c28557d0bd3ab6785de022ae8b2547137245aa5ba9131634508828cc142aa3f306fac00000000"
    }
  ]
}