{
  "hash": "00000000f9bd06e9019e31de128ad309640bb7621f87329d8c8755712bfbbc3d",
  "confirmations": 45014,
  "height": 8084,
  "version": 1,
  "versionHex": "00000001",
  "merkleroot": "1701ed882afe70a6df43b884d4be25ad4d009dd6e40b309c1e4507d9bdb40dfe",
  "time": 1237520166,
  "mediantime": 1237516442,
  "nonce": 3189554437,
  "bits": "1d00ffff",
  "difficulty": 1,
  "chainwork": "00000000000000000000000000000000000000000000000000001f951f951f95",
  "nTx": 1,
  "previousblockhash": "0000000081ca2fde084c7a0d8b14d0385f3d39d78870019e36e2c36195b30879",
  "nextblockhash": "000000002b9d4e32bbf849b26a60ec2e943ae709075846db03bc285f7ce0ad53",
  "strippedsize": 216,
  "size": 216,
  "weight": 864,
  "tx": [
    {
      "txid": "1701ed882afe70a6df43b884d4be25ad4d009dd6e40b309c1e4507d9bdb40dfe",
      "hash": "1701ed882afe70a6df43b884d4be25ad4d009dd6e40b309c1e4507d9bdb40dfe",
      "version": 1,
      "size": 135,
      "vsize": 135,
      "weight": 540,
      "locktime": 0,
      "vin": [
        {
          "coinbase": "04ffff001d02da00",
          "sequence": 4294967295
        }
      ],
      "vout": [
        {
          "value": 50.0,
          "n": 0,
          "scriptPubKey": {
            "asm": "04f2fd89aa678a8052c584cda5b18b0b072a9f21c08df47588b7ff8ef28a029df40c99b8e95aab795d72934520a27f67b195266374cae7fac196af2dbacb8d4c00 OP_CHECKSIG",
            "desc": "pk(04f2fd89aa678a8052c584cda5b18b0b072a9f21c08df47588b7ff8ef28a029df40c99b8e95aab795d72934520a27f67b195266374cae7fac196af2dbacb8d4c00)#mppe5tgu",
            "hex": "4104f2fd89aa678a8052c584cda5b18b0b072a9f21c08df47588b7ff8ef28a029df40c99b8e95aab795d72934520a27f67b195266374cae7fac196af2dbacb8d4c00ac",
            "type": "pubkey"
          }
        }
      ],
      "hex": "01000000010000000000000000000000000000000000000000000000000000000000000000ffffffff0804ffff001d02da00ffffffff0100f2052a01000000434104f2fd89aa678a8052c584cda5b18b0b072a9f21c08df47588b7ff8ef28a029df40c99b8e95aab795d72934520a27f67b195266374cae7fac196af2dbacb8d4c00ac00000000"
    }
  ]
}