{
  "hash": "00000000307708918efa6f5d0544ebe95849ec783c964d8a1e6c724bb8e836d4",
  "confirmations": 48236,
  "height": 4862,
  "version": 1,
  "versionHex": "00000001",
  "merkleroot": "e3056d46afd8a1e689041ef0b4f4296124fad5d0428ff63c1f00c100bfad4610",
  "time": 1235046306,
  "mediantime": 1235041904,
  "nonce": 3205863965,
  "bits": "1d00ffff",
  "difficulty": 1,
  "chainwork": "000000000000000000000000000000000000000000000000000012ff12ff12ff",
  "nTx": 1,
  "previousblockhash": "000000002770497ee49f2fc7b79330292e50a5f194836a20f35f27e5deb447db",
  "nextblockhash": "00000000324eb1a51d001b4dd870382f1155a52f0fb87f331386ba3c902e3cff",
  "strippedsize": 216,
  "size": 216,
  "weight": 864,
  "tx": [
    {
      "txid": "e3056d46afd8a1e689041ef0b4f4296124fad5d0428ff63c1f00c100bfad4610",
      "hash": "e3056d46afd8a1e689041ef0b4f4296124fad5d0428ff63c1f00c100bfad4610",
      "version": 1,
      "size": 135,
      "vsize": 135,
      "weight": 540,
      "locktime": 0,
      "vin": [
        {
          "coinbase": "04ffff001d023905",
          "sequence": 4294967295
        }
      ],
      "vout": [
        {
          "value": 50.0,
          "n": 0,
          "scriptPubKey": {
            "asm": "0441c3a14add6374221cee99fe185821914a6c0c76bab13a3175ff73835ece8d24b9869f3f4ff73786a68700276b343142b9f682bfb80f80c54aad05baf8b7c783 OP_CHECKSIG",
            "desc": "pk(0441c3a14add6374221cee99fe185821914a6c0c76bab13a3175ff73835ece8d24b9869f3f4ff73786a68700276b343142b9f682bfb80f80c54aad05baf8b7c783)#a2hx843g",
            "hex": "410441c3a14add6374221cee99fe185821914a6c0c76bab13a3175ff73835ece8d24b9869f3f4ff73786a68700276b343142b9f682bfb80f80c54aad05baf8b7c783ac",
            "type": "pubkey"
          }
        }
      ],
      "hex": "01000000010000000000000000000000000000000000000000000000000000000000000000ffffffff0804ffff001d023905ffffffff0100f2052a0100000043410441c3a14add6374221cee99fe185821914a6c0c76bab13a3175ff73835ece8d24b9869f3f4ff73786a68700276b343142b9f682bfb80f80c54aad05baf8b7c783ac00000000"
    }
  ]
}