{
  "hash": "000000007446ffb52462e68259ace3ae9e7e3ccbbbe5ce2c89c5a76e2fe1861c",
  "confirmations": 43214,
  "height": 9884,
  "version": 1,
  "versionHex": "00000001",
  "merkleroot": "b1b6423cca2eea354790208bacb9dc13f8876a2414d8f9bd4f85cad20df2b600",
  "time": 1238914659,
  "mediantime": 1238911196,
  "nonce": 2716924186,
  "bits": "1d00ffff",
  "difficulty": 1,
  "chainwork": "0000000000000000000000000000000000000000000000000000269d269d269d",
  "nTx": 1,
  "previousblockhash": "0000000042ac8da50c65a15238747d1a4f7b3e95dda0ba068d5518d3a941a25a",
  "nextblockhash": "00000000dcd9113fe48054aacf9f23cf40200bd8f24a1f25bad60f842d86f75b",
  "strippedsize": 216,
  "size": 216,
  "weight": 864,
  "tx": [
    {
      "txid": "b1b6423cca2eea354790208bacb9dc13f8876a2414d8f9bd4f85cad20df2b600",
      "hash": "b1b6423cca2eea354790208bacb9dc13f8876a2414d8f9bd4f85cad20df2b600",
      "version": 1,
      "size": 135,
      "vsize": 135,
      "weight": 540,
      "locktime": 0,
      "vin": [
        {
          "coinbase": "04ffff001d02d301",
          "sequence": 4294967295
        }
      ],
      "vout": [
        {
          "value": 50.0,
          "n": 0,
          "scriptPubKey": {
            "asm": "049a5ed8ad4b5f89d967c6fef3c982ad3c6d67a89966e6adfdd218e4f381ad7cedd2267956cddbaa8d964fa6010441cb6c6328f8b491c38032bc358a940031a007 OP_CHECKSIG",
            "desc": "pk(049a5ed8ad4b5f89d967c6fef3c982ad3c6d67a89966e6adfdd218e4f381ad7cedd2267956cddbaa8d964fa6010441cb6c6328f8b491c38032bc358a940031a007)#d3e3f6xq",
            "hex": "41049a5ed8ad4b5f89d967c6fef3c982ad3c6d67a89966e6adfdd218e4f381ad7cedd2267956cddbaa8d964fa6010441cb6c6328f8b491c38032bc358a940031a007ac",
            "type": "pubkey"
          }
        }
      ],
      "hex": "01000000010000000000000000000000000000000000000000000000000000000000000000ffffffff0804ffff001d02d301ffffffff0100f2052a010000004341049a5ed8ad4b5f89d967c6fef3c982ad3c6d67a89966e6adfdd218e4f381ad7cedd2267956cddbaa8d964fa6010441cb6c6328f8b491c38032bc358a940031a007ac00000000"
    }
  ]
}