{
  "hash": "00000000f486da4e0156bd6f2bc2c1238339aab925c6eb3095af32d61b955b58",
  "confirmations": 51672,
  "height": 1426,
  "version": 1,
  "versionHex": "00000001",
  "merkleroot": "4b6d192518fc112417f716d60dab53109af3be3fa1afa5303ecf3e5f50a86ea7",
  "time": 1232735393,
  "mediantime": 1232733831,
  "nonce": 941159447,
  "bits": "1d00ffff",
  "difficulty": 1,
  "chainwork": "0000000000000000000000000000000000000000000000000000059305930593",
  "nTx": 1,
  "previousblockhash": "0000000038a3627bbc86c1fff0cd34c115ad81289d6588ccd035bd573c0e4a59",
  "nextblockhash": "00000000147473672b2be974c2fa0c56ef679a7a9a726457539bbdd30cb3b57a",
  "strippedsize": 215,
  "size": 215,
  "weight": 860,
  "tx": [
    {
      "txid": "4b6d192518fc112417f716d60dab53109af3be3fa1afa5303ecf3e5f50a86ea7",
      "hash": "4b6d192518fc112417f716d60dab53109af3be3fa1afa5303ecf3e5f50a86ea7",
      "version": 1,
      "size": 134,
      "vsize": 134,
      "weight": 536,
      "locktime": 0,
      "vin": [
        {
          "coinbase": "04ffff001d0161",
          "sequence": 4294967295
        }
      ],
      "vout": [
        {
          "value": 50.0,
          "n": 0,
          "scriptPubKey": {
            "asm": "04f11d9c6bd693b4489d3bf357647cc76feae1ee0a7cd087fa69c67a2f752847c9a6f63476e191a4ff98d6ef184ff5d45250e33cf68d3dd9a5a12036bd1f47e468 OP_CHECKSIG",
            "desc": "pk(04f11d9c6bd693b4489d3bf357647cc76feae1ee0a7cd087fa69c67a2f752847c9a6f63476e191a4ff98d6ef184ff5d45250e33cf68d3dd9a5a12036bd1f47e468)#ghf304qg",
            "hex": "4104f11d9c6bd693b4489d3bf357647cc76feae1ee0a7cd087fa69c67a2f752847c9a6f63476e191a4ff98d6ef184ff5d45250e33cf68d3dd9a5a12036bd1f47e468ac",
            "type": "pubkey"
          }
        }
      ],
      "hex": "01000000010000000000000000000000000000000000000000000000000000000000000000ffffffff0704ffff001d0161ffffffff0100f2052a01000000434104f11d9c6bd693b4489d3bf357647cc76feae1ee0a7cd087fa69c67a2f752847c9a6f63476e191a4ff98d6ef184ff5d45250e33cf68d3dd9a5a12036bd1f47e468ac00000000"
    }
  ]
}