{
  "hash": "00000000670c002eabbf8a7f82dc78015e9fdc87c353e6aa2f8c3e27e4a066e6",
  "confirmations": 47384,
  "height": 5714,
  "version": 1,
  "versionHex": "00000001",
  "merkleroot": "6acf1c38a6f4db231e5f9c950b5c85c8c242a3ae38ce60f192361ecefdca0fd8",
  "time": 1235696011,
  "mediantime": 1235692680,
  "nonce": 392005377,
  "bits": "1d00ffff",
  "difficulty": 1,
  "chainwork": "0000000000000000000000000000000000000000000000000000165316531653",
  "nTx": 1,
  "previousblockhash": "000000007832443d72c1cda744b0f5cf1bf06f8aae84a82d1692cb63b7918cb6",
  "nextblockhash": "00000000c2b65b5f82abce58a34b062881a9877c4040e7ec0fd317ce1ad294c2",
  "strippedsize": 216,
  "size": 216,
  "weight": 864,
  "tx": [
    {
      "txid": "6acf1c38a6f4db231e5f9c950b5c85c8c242a3ae38ce60f192361ecefdca0fd8",
      "hash": "6acf1c38a6f4db231e5f9c950b5c85c8c242a3ae38ce60f192361ecefdca0fd8",
      "version": 1,
      "size": 135,
      "vsize": 135,
      "weight": 540,
      "locktime": 0,
      "vin": [
        {
          "coinbase": "04ffff001d02a609",
          "sequence": 4294967295
        }
      ],
      "vout": [
        {
          "value": 50.0,
          "n": 0,
          "scriptPubKey": {
            "asm": "04a4470045117782f7228a708b107e2452dca8b691ce31aa121cde47d2434165e931d7f9b635b7e74993f06c053f1cda879a5c98cb57e4ae80e01d079bfdadfd08 OP_CHECKSIG",
            "desc": "pk(04a4470045117782f7228a708b107e2452dca8b691ce31aa121cde47d2434165e931d7f9b635b7e74993f06c053f1cda879a5c98cb57e4ae80e01d079bfdadfd08)#jqkg8507",
            "hex": "4104a4470045117782f7228a708b107e2452dca8b691ce31aa121cde47d2434165e931d7f9b635b7e74993f06c053f1cda879a5c98cb57e4ae80e01d079bfdadfd08ac",
            "type": "pubkey"
          }
        }
      ],
      "hex": "01000000010000000000000000000000000000000000000000000000000000000000000000ffffffff0804ffff001d02a609ffffffff0100f2052a01000000434104a4470045117782f7228a708b107e2452dca8b691ce31aa121cde47d2434165e931d7f9b635b7e74993f06c053f1cda879a5c98cb57e4ae80e01d079bfdadfd08ac00000000"
    }
  ]
}