{
  "hash": "00000000977ae795b3e3eda03f83e3dddf98a294895dc34c94036182d76a16df",
  "confirmations": 45739,
  "height": 7359,
  "version": 1,
  "versionHex": "00000001",
  "merkleroot": "8643d70915bbc2bb0a1755c1a913f29e60091b873da8e7446d070ccfa6d8a166",
  "time": 1236989594,
  "mediantime": 1236986277,
  "nonce": 3669519921,
  "bits": "1d00ffff",
  "difficulty": 1,
  "chainwork": "00000000000000000000000000000000000000000000000000001cc01cc01cc0",
  "nTx": 1,
  "previousblockhash": "000000002de29197d5cb96c1a3ec08a2265923f8933dbcb491a0c5254c18f7f7",
  "nextblockhash": "00000000a2e098d335c76a032bccae87391c266ea889f7d4ccead547c49887d4",
  "strippedsize": 216,
  "size": 216,
  "weight": 864,
  "tx": [
    {
      "txid": "8643d70915bbc2bb0a1755c1a913f29e60091b873da8e7446d070ccfa6d8a166",
      "hash": "8643d70915bbc2bb0a1755c1a913f29e60091b873da8e7446d070ccfa6d8a166",
      "version": 1,
      "size": 135,
      "vsize": 135,
      "weight": 540,
      "locktime": 0,
      "vin": [
        {
          "coinbase": "04ffff001d02a308",
          "sequence": 4294967295
        }
      ],
      "vout": [
        {
          "value": 50.0,
          "n": 0,
          "scriptPubKey": {
            "asm": "04846a51163ea9664191a594c34f8ce3a96e30b746f6cfbbfb87a08a30a07dcfdd9d2f87f5e05c5952d435f7f8eaebb80cc2b60bd5e489263a4ce9d846cc1b3213 OP_CHECKSIG",
            "desc": "pk(04846a51163ea9664191a594c34f8ce3a96e30b746f6cfbbfb87a08a30a07dcfdd9d2f87f5e05c5952d435f7f8eaebb80cc2b60bd5e489263a4ce9d846cc1b3213)#egezjx46",
            "hex": "4104846a51163ea9664191a594c34f8ce3a96e30b746f6cfbbfb87a08a30a07dcfdd9d2f87f5e05c5952d435f7f8eaebb80cc2b60bd5e489263a4ce9d846cc1b3213ac",
            "type": "pubkey"
          }
        }
      ],
      "hex": "01000000010000000000000000000000000000000000000000000000000000000000000000ffffffff0804ffff001d02a308ffffffff0100f2052a01000000434104846a51163ea9664191a594c34f8ce3a96e30b746f6cfbbfb87a08a30a07dcfdd9d2f87f5e05c5952d435f7f8eaebb80cc2b60bd5e489263a4ce9d846cc1b3213ac00000000"
    }
  ]
}