{
  "hash": "0000000080098f80993ab8399f06e3ab935cdfa98e90b4699b2d56aed410a785",
  "confirmations": 46281,
  "height": 6817,
  "version": 1,
  "versionHex": "00000001",
  "merkleroot": "3b45b5347a8db4818b708706202ce88419e2f9d7e01905612c3d3395ec546133",
  "time": 1236568929,
  "mediantime": 1236564874,
  "nonce": 90271767,
  "bits": "1d00ffff",
  "difficulty": 1,
  "chainwork": "00000000000000000000000000000000000000000000000000001aa21aa21aa2",
  "nTx": 1,
  "previousblockhash": "00000000c47a7d088188d3d7fdc2bf2beee5a4546796491bad5f3c0976cc8312",
  "nextblockhash": "00000000b2985c1d290f3ccdbb5c91f0bbed2f3a220b363e5abe11106e596351",
  "strippedsize": 216,
  "size": 216,
  "weight": 864,
  "tx": [
    {
      "txid": "3b45b5347a8db4818b708706202ce88419e2f9d7e01905612c3d3395ec546133",
      "hash": "3b45b5347a8db4818b708706202ce88419e2f9d7e01905612c3d3395ec546133",
      "version": 1,
      "size": 135,
      "vsize": 135,
      "weight": 540,
      "locktime": 0,
      "vin": [
        {
          "coinbase": "04ffff001d024909",
          "sequence": 4294967295
        }
      ],
      "vout": [
        {
          "value": 50.0,
          "n": 0,
          "scriptPubKey": {
            "asm": "044b408709b7933ca9c92b3b614b32e6c630b738bacde1d7ee6e33b8686475b5ecfa7f451cd3236a55439af1812b50f6a38cd6cb7db269fb228410c9d3220f0767 OP_CHECKSIG",
            "desc": "pk(044b408709b7933ca9c92b3b614b32e6c630b738bacde1d7ee6e33b8686475b5ecfa7f451cd3236a55439af1812b50f6a38cd6cb7db269fb228410c9d3220f0767)#uwadfvf5",
            "hex": "41044b408709b7933ca9c92b3b614b32e6c630b738bacde1d7ee6e33b8686475b5ecfa7f451cd3236a55439af1812b50f6a38cd6cb7db269fb228410c9d3220f0767ac",
            "type": "pubkey"
          }
        }
      ],
      "hex": "01000000010000000000000000000000000000000000000000000000000000000000000000ffffffff0804ffff001d024909ffffffff0100f2052a010000004341044b408709b7933ca9c92b3b614b32e6c630b738bacde1d7ee6e33b8686475b5ecfa7f451cd3236a55439af1812b50f6a38cd6cb7db269fb228410c9d3220f0767ac00000000"
    }
  ]
}