{
  "hash": "000000001663b95c570bc4648bc2661053826575f4d61da0a08e3cd58af04dba",
  "confirmations": 46558,
  "height": 6540,
  "version": 1,
  "versionHex": "00000001",
  "merkleroot": "dc41be4052b8a4829d65f08a1cad296a844b9e5c543e8a5023ca913cebd921bc",
  "time": 1236358869,
  "mediantime": 1236354780,
  "nonce": 240101156,
  "bits": "1d00ffff",
  "difficulty": 1,
  "chainwork": "0000000000000000000000000000000000000000000000000000198d198d198d",
  "nTx": 1,
  "previousblockhash": "000000000dbedac52db2ef64f376d4d474e49987a9b632c8d4b07cfb27815f0a",
  "nextblockhash": "00000000c508e6ee8838e78bc6ed54f8de614aac190c6afe82c6f57ad8590d57",
  "strippedsize": 216,
  "size": 216,
  "weight": 864,
  "tx": [
    {
      "txid": "dc41be4052b8a4829d65f08a1cad296a844b9e5c543e8a5023ca913cebd921bc",
      "hash": "dc41be4052b8a4829d65f08a1cad296a844b9e5c543e8a5023ca913cebd921bc",
      "version": 1,
      "size": 135,
      "vsize": 135,
      "weight": 540,
      "locktime": 0,
      "vin": [
        {
          "coinbase": "04ffff001d023d04",
          "sequence": 4294967295
        }
      ],
      "vout": [
        {
          "value": 50.0,
          "n": 0,
          "scriptPubKey": {
            "asm": "046899c99eeb5af54e359ea64dc689a8c5c1b00532b97427aadc8bb148d26c84f3e1b87be3f788c7bba1b2e399aeb6d418a7eada79f401f2fdaac9e919d4a6b4d8 OP_CHECKSIG",
            "desc": "pk(046899c99eeb5af54e359ea64dc689a8c5c1b00532b97427aadc8bb148d26c84f3e1b87be3f788c7bba1b2e399aeb6d418a7eada79f401f2fdaac9e919d4a6b4d8)#q27fy5rr",
            "hex": "41046899c99eeb5af54e359ea64dc689a8c5c1b00532b97427aadc8bb148d26c84f3e1b87be3f788c7bba1b2e399aeb6d418a7eada79f401f2fdaac9e919d4a6b4d8ac",
            "type": "pubkey"
          }
        }
      ],
      "hex": "01000000010000000000000000000000000000000000000000000000000000000000000000ffffffff0804ffff001d023d04ffffffff0100f2052a010000004341046899c99eeb5af54e359ea64dc689a8c5c1b00532b97427aadc8bb148d26c84f3e1b87be3f788c7bba1b2e399aeb6d418a7eada79f401f2fdaac9e919d4a6b4d8ac00000000"
    }
  ]
}