{
  "hash": "00000000721ef8a34233ebb061399402026449dbfe5a422d0087ed2ba7b817fd",
  "confirmations": 48720,
  "height": 4378,
  "version": 1,
  "versionHex": "00000001",
  "merkleroot": "736411226b2198328283d45868fda7a8d83ae376e8a6518b26ebe745fc5f4301",
  "time": 1234695692,
  "mediantime": 1234692301,
  "nonce": 19447411,
  "bits": "1d00ffff",
  "difficulty": 1,
  "chainwork": "0000000000000000000000000000000000000000000000000000111b111b111b",
  "nTx": 1,
  "previousblockhash": "00000000b46af2a29d5c21c15f7e0e9107839b62954bbf4c18e1b70b6c38bf80",
  "nextblockhash": "00000000b38d24dcf8a81355b591e8e2a47e75083ed267db8bcae49eb0982b53",
  "strippedsize": 216,
  "size": 216,
  "weight": 864,
  "tx": [
    {
      "txid": "736411226b2198328283d45868fda7a8d83ae376e8a6518b26ebe745fc5f4301",
      "hash": "736411226b2198328283d45868fda7a8d83ae376e8a6518b26ebe745fc5f4301",
      "version": 1,
      "size": 135,
      "vsize": 135,
      "weight": 540,
      "locktime": 0,
      "vin": [
        {
          "coinbase": "04ffff001d025103",
          "sequence": 4294967295
        }
      ],
      "vout": [
        {
          "value": 50.0,
          "n": 0,
          "scriptPubKey": {
            "asm": "0491229476639b173289aaf9f7c237a6d5f17959637b6814b6d3affee6178d7050baf300d87301ddef616cd1910dabf7c579f3285218d34f764d6c0cc4ffcc8b17 OP_CHECKSIG",
            "desc": "pk(0491229476639b173289aaf9f7c237a6d5f17959637b6814b6d3affee6178d7050baf300d87301ddef616cd1910dabf7c579f3285218d34f764d6c0cc4ffcc8b17)#pumzgvu3",
            "hex": "410491229476639b173289aaf9f7c237a6d5f17959637b6814b6d3affee6178d7050baf300d87301ddef616cd1910dabf7c579f3285218d34f764d6c0cc4ffcc8b17ac",
            "type": "pubkey"
          }
        }
      ],
      "hex": "01000000010000000000000000000000000000000000000000000000000000000000000000ffffffff0804ffff001d025103ffffffff0100f2052a0100000043410491229476639b173289aaf9f7c237a6d5f17959637b6814b6d3affee6178d7050baf300d87301ddef616cd1910dabf7c579f3285218d34f764d6c0cc4ffcc8b17ac00000000"
    }
  ]
}