{
  "hash": "00000000405b854cab1a2522e3c78e0af016ac98cf5f223f1ee85f56f9ece3e0",
  "confirmations": 45693,
  "height": 7405,
  "version": 1,
  "versionHex": "00000001",
  "merkleroot": "2306eb3165e63ca0ec7ce341ebdeea29533053f20e8a8ceb991d5cc870f8a4d6",
  "time": 1237027204,
  "mediantime": 1237024362,
  "nonce": 27298355,
  "bits": "1d00ffff",
  "difficulty": 1,
  "chainwork": "00000000000000000000000000000000000000000000000000001cee1cee1cee",
  "nTx": 1,
  "previousblockhash": "000000000a57f553200b9e3f48d7ad22ca71ff844dac64415964876d0c790c14",
  "nextblockhash": "00000000ccc4a77183aba7a1908236a8e93890fb2e69e74d67344262b18583eb",
  "strippedsize": 216,
  "size": 216,
  "weight": 864,
  "tx": [
    {
      "txid": "2306eb3165e63ca0ec7ce341ebdeea29533053f20e8a8ceb991d5cc870f8a4d6",
      "hash": "2306eb3165e63ca0ec7ce341ebdeea29533053f20e8a8ceb991d5cc870f8a4d6",
      "version": 1,
      "size": 135,
      "vsize": 135,
      "weight": 540,
      "locktime": 0,
      "vin": [
        {
          "coinbase": "04ffff001d027c09",
          "sequence": 4294967295
        }
      ],
      "vout": [
        {
          "value": 50.0,
          "n": 0,
          "scriptPubKey": {
            "asm": "0443daea1bd83d69fd0793ffb847e2df9d59b21598d46fe2f0efe347fd880debc28c73e9492e0639a8076d389f60aaeb0ea08cb0b2726f38452bc3e77d2b432512 OP_CHECKSIG",
            "desc": "pk(0443daea1bd83d69fd0793ffb847e2df9d59b21598d46fe2f0efe347fd880debc28c73e9492e0639a8076d389f60aaeb0ea08cb0b2726f38452bc3e77d2b432512)#8ew40wh4",
            "hex": "410443daea1bd83d69fd0793ffb847e2df9d59b21598d46fe2f0efe347fd880debc28c73e9492e0639a8076d389f60aaeb0ea08cb0b2726f38452bc3e77d2b432512ac",
            "type": "pubkey"
          }
        }
      ],
      "hex": "01000000010000000000000000000000000000000000000000000000000000000000000000ffffffff0804ffff001d027c09ffffffff0100f2052a0100000043410443daea1bd83d69fd0793ffb847e2df9d59b21598d46fe2f0efe347fd880debc28c73e9492e0639a8076d389f60aaeb0ea08cb0b2726f38452bc3e77d2b432512ac00000000"
    }
  ]
}