{
  "hash": "00000000f046b243850d710ff764a552c10d8a9018a19bd0108e7a618c5ef2ee",
  "confirmations": 51594,
  "height": 1504,
  "version": 1,
  "versionHex": "00000001",
  "merkleroot": "4f8aafb8635697e1507b9e41e5635cac074b1aad7b4c9d4acfe67a080fe6abd8",
  "time": 1232770617,
  "mediantime": 1232767809,
  "nonce": 2679448634,
  "bits": "1d00ffff",
  "difficulty": 1,
  "chainwork": "000000000000000000000000000000000000000000000000000005e105e105e1",
  "nTx": 1,
  "previousblockhash": "00000000b0deb59c67e3efb491550cefba0c3cd959af391e5735763e5e62706f",
  "nextblockhash": "00000000477a98f1bd6fe9c20c9a838564d58ae3ce92346b42f771d44a52abc2",
  "strippedsize": 216,
  "size": 216,
  "weight": 864,
  "tx": [
    {
      "txid": "4f8aafb8635697e1507b9e41e5635cac074b1aad7b4c9d4acfe67a080fe6abd8",
      "hash": "4f8aafb8635697e1507b9e41e5635cac074b1aad7b4c9d4acfe67a080fe6abd8",
      "version": 1,
      "size": 135,
      "vsize": 135,
      "weight": 540,
      "locktime": 0,
      "vin": [
        {
          "coinbase": "04ffff001d023601",
          "sequence": 4294967295
        }
      ],
      "vout": [
        {
          "value": 50.0,
          "n": 0,
          "scriptPubKey": {
            "asm": "046b40f760a5fbd778ff8932f6dc5cd8ee2229112a8203089f8994105a1902d23d0f1461b1337213f27406c4d983cac9971fff21faa6a93be1a6f96297d996f51f OP_CHECKSIG",
            "desc": "pk(046b40f760a5fbd778ff8932f6dc5cd8ee2229112a8203089f8994105a1902d23d0f1461b1337213f27406c4d983cac9971fff21faa6a93be1a6f96297d996f51f)#wshjgj72",
            "hex": "41046b40f760a5fbd778ff8932f6dc5cd8ee2229112a8203089f8994105a1902d23d0f1461b1337213f27406c4d983cac9971fff21faa6a93be1a6f96297d996f51fac",
            "type": "pubkey"
          }
        }
      ],
      "hex": "01000000010000000000000000000000000000000000000000000000000000000000000000ffffffff0804ffff001d023601ffffffff0100f2052a010000004341046b40f760a5fbd778ff8932f6dc5cd8ee2229112a8203089f8994105a1902d23d0f1461b1337213f27406c4d983cac9971fff21faa6a93be1a6f96297d996f51fac00000000"
    }
  ]
}