{
  "hash": "000000005030db2d311e4e34f502110e79329e36e92b22a6c6c5d9730789aad1",
  "confirmations": 43784,
  "height": 9314,
  "version": 1,
  "versionHex": "00000001",
  "merkleroot": "a4d9bd7bb910650b9747704929883ee133eccd4c6efe8935e456f3f2bdecf04f",
  "time": 1238484934,
  "mediantime": 1238480915,
  "nonce": 2523710980,
  "bits": "1d00ffff",
  "difficulty": 1,
  "chainwork": "0000000000000000000000000000000000000000000000000000246324632463",
  "nTx": 1,
  "previousblockhash": "000000008ff347146c3956176dfb2bb3c45ef9471a5f59d952474b97cf28d724",
  "nextblockhash": "000000006f0fca19456e2824feaae5ba4be5f2542c63c786bbd19dd5a1229271",
  "strippedsize": 216,
  "size": 216,
  "weight": 864,
  "tx": [
    {
      "txid": "a4d9bd7bb910650b9747704929883ee133eccd4c6efe8935e456f3f2bdecf04f",
      "hash": "a4d9bd7bb910650b9747704929883ee133eccd4c6efe8935e456f3f2bdecf04f",
      "version": 1,
      "size": 135,
      "vsize": 135,
      "weight": 540,
      "locktime": 0,
      "vin": [
        {
          "coinbase": "04ffff001d02fb01",
          "sequence": 4294967295
        }
      ],
      "vout": [
        {
          "value": 50.0,
          "n": 0,
          "scriptPubKey": {
            "asm": "04d79d15970f8f6b27fb748651eeb4815661f16f26350d9935d7a5b7742ff8e8390d2966ed1cf6bc146a250567e43720596501a7382b35f41ac43ee4fe9ceec177 OP_CHECKSIG",
            "desc": "pk(04d79d15970f8f6b27fb748651eeb4815661f16f26350d9935d7a5b7742ff8e8390d2966ed1cf6bc146a250567e43720596501a7382b35f41ac43ee4fe9ceec177)#wdc9xc4a",
            "hex": "4104d79d15970f8f6b27fb748651eeb4815661f16f26350d9935d7a5b7742ff8e8390d2966ed1cf6bc146a250567e43720596501a7382b35f41ac43ee4fe9ceec177ac",
            "type": "pubkey"
          }
        }
      ],
      "hex": "01000000010000000000000000000000000000000000000000000000000000000000000000ffffffff0804ffff001d02fb01ffffffff0100f2052a01000000434104d79d15970f8f6b27fb748651eeb4815661f16f26350d9935d7a5b7742ff8e8390d2966ed1cf6bc146a250567e43720596501a7382b35f41ac43ee4fe9ceec177ac00000000"
    }
  ]
}