{
  "hash": "000000000ddf0028b5d6b6d0caa5fcb5944395e0e9bad55b9be480ab7ae03483",
  "confirmations": 49004,
  "height": 4094,
  "version": 1,
  "versionHex": "00000001",
  "merkleroot": "1d7bffcf55fba2e04416c4197c4df4a5b00940c22fad2770ef6ec2815d0a1866",
  "time": 1234507939,
  "mediantime": 1234504872,
  "nonce": 2889929492,
  "bits": "1d00ffff",
  "difficulty": 1,
  "chainwork": "00000000000000000000000000000000000000000000000000000fff0fff0fff",
  "nTx": 1,
  "previousblockhash": "00000000d6007fa7c6ca9a92c2722fcf28680505430a0e1169f3bd72f67dd625",
  "nextblockhash": "0000000066ca066a388fea7b34b7ff1e0e6f87f97be2a1eb82ed574182664fd4",
  "strippedsize": 216,
  "size": 216,
  "weight": 864,
  "tx": [
    {
      "txid": "1d7bffcf55fba2e04416c4197c4df4a5b00940c22fad2770ef6ec2815d0a1866",
      "hash": "1d7bffcf55fba2e04416c4197c4df4a5b00940c22fad2770ef6ec2815d0a1866",
      "version": 1,
      "size": 135,
      "vsize": 135,
      "weight": 540,
      "locktime": 0,
      "vin": [
        {
          "coinbase": "04ffff001d02d905",
          "sequence": 4294967295
        }
      ],
      "vout": [
        {
          "value": 50.0,
          "n": 0,
          "scriptPubKey": {
            "asm": "04e18e8e551514ade1febc099612369b8f580f704975b860356d7565edd137a5de565c51a3382c399f73d95fb54e77c7a69068352b761ece8fc9ef7298f2c83b37 OP_CHECKSIG",
            "desc": "pk(04e18e8e551514ade1febc099612369b8f580f704975b860356d7565edd137a5de565c51a3382c399f73d95fb54e77c7a69068352b761ece8fc9ef7298f2c83b37)#v7aykrsk",
            "hex": "4104e18e8e551514ade1febc099612369b8f580f704975b860356d7565edd137a5de565c51a3382c399f73d95fb54e77c7a69068352b761ece8fc9ef7298f2c83b37ac",
            "type": "pubkey"
          }
        }
      ],
      "hex": "01000000010000000000000000000000000000000000000000000000000000000000000000ffffffff0804ffff001d02d905ffffffff0100f2052a01000000434104e18e8e551514ade1febc099612369b8f580f704975b860356d7565edd137a5de565c51a3382c399f73d95fb54e77c7a69068352b761ece8fc9ef7298f2c83b37ac00000000"
    }
  ]
}