{
  "hash": "000000006b07b6b1e5cdb6252af5fa9b86f3f32b5e173b1b200db5673b2165cf",
  "confirmations": 44896,
  "height": 8202,
  "version": 1,
  "versionHex": "00000001",
  "merkleroot": "458659b5b57a7659d3cf1c9fc4275b11e0d6bf6b4aa95615b5e785c55cda4294",
  "time": 1237607336,
  "mediantime": 1237604556,
  "nonce": 3672529696,
  "bits": "1d00ffff",
  "difficulty": 1,
  "chainwork": "0000000000000000000000000000000000000000000000000000200b200b200b",
  "nTx": 1,
  "previousblockhash": "000000004ca8bd5222b4a82cc4817614f67fb4eb487de9cace123bd3bfb13417",
  "nextblockhash": "000000007dc0a044ed2d3950071f69dce1ac6e75c14a9b9638cc773e098c56a3",
  "strippedsize": 216,
  "size": 216,
  "weight": 864,
  "tx": [
    {
      "txid": "458659b5b57a7659d3cf1c9fc4275b11e0d6bf6b4aa95615b5e785c55cda4294",
      "hash": "458659b5b57a7659d3cf1c9fc4275b11e0d6bf6b4aa95615b5e785c55cda4294",
      "version": 1,
      "size": 135,
      "vsize": 135,
      "weight": 540,
      "locktime": 0,
      "vin": [
        {
          "coinbase": "04ffff001d02d502",
          "sequence": 4294967295
        }
      ],
      "vout": [
        {
          "value": 50.0,
          "n": 0,
          "scriptPubKey": {
            "asm": "047f3e48ad7a29742e087e26bf9cd1983c8a79e5a1efe593ec28be08643a1deb4fe6b6ed6e866c5d30d973e22bdcfaa8c7debd4b2252776ae9432b7df168796bae OP_CHECKSIG",
            "desc": "pk(047f3e48ad7a29742e087e26bf9cd1983c8a79e5a1efe593ec28be08643a1deb4fe6b6ed6e866c5d30d973e22bdcfaa8c7debd4b2252776ae9432b7df168796bae)#glwmr29m",
            "hex": "41047f3e48ad7a29742e087e26bf9cd1983c8a79e5a1efe593ec28be08643a1deb4fe6b6ed6e866c5d30d973e22bdcfaa8c7debd4b2252776ae9432b7df168796baeac",
            "type": "pubkey"
          }
        }
      ],
      "hex": "01000000010000000000000000000000000000000000000000000000000000000000000000ffffffff0804ffff001d02d502ffffffff0100f2052a010000004341047f3e48ad7a29742e087e26bf9cd1983c8a79e5a1efe593ec28be08643a1deb4fe6b6ed6e866c5d30d973e22bdcfaa8c7debd4b2252776ae9432b7df168796baeac00000000"
    }
  ]
}