{
  "hash": "000000000f85e438a8cee109ab1cad44f8324ce70de21b95b31fd038451e8f13",
  "confirmations": 44540,
  "height": 8558,
  "version": 1,
  "versionHex": "00000001",
  "merkleroot": "2ccc96ea9a41f8e099b76ae41bd8d07f8c772d8550f53a892c73a65ce0fa0155",
  "time": 1237918310,
  "mediantime": 1237915394,
  "nonce": 2651918089,
  "bits": "1d00ffff",
  "difficulty": 1,
  "chainwork": "0000000000000000000000000000000000000000000000000000216f216f216f",
  "nTx": 1,
  "previousblockhash": "000000001abb7c65800db1b6b3c9db2ae2dde80252ba2010a2736ec649a1d8ba",
  "nextblockhash": "00000000a8847fd5a6b57bcb460b431466c564983670a40161e704f8fc00e58a",
  "strippedsize": 216,
  "size": 216,
  "weight": 864,
  "tx": [
    {
      "txid": "2ccc96ea9a41f8e099b76ae41bd8d07f8c772d8550f53a892c73a65ce0fa0155",
      "hash": "2ccc96ea9a41f8e099b76ae41bd8d07f8c772d8550f53a892c73a65ce0fa0155",
      "version": 1,
      "size": 135,
      "vsize": 135,
      "weight": 540,
      "locktime": 0,
      "vin": [
        {
          "coinbase": "04ffff001d02e608",
          "sequence": 4294967295
        }
      ],
      "vout": [
        {
          "value": 50.0,
          "n": 0,
          "scriptPubKey": {
            "asm": "04a5026bc65aa73f85f25ec30a4b9e1336f37936aa3de8e3d381877a6cf26c201eb517c8e06860c1cbc345420e8d613440f4f2e5eedcb372020faf376e26f02c50 OP_CHECKSIG",
            "desc": "pk(04a5026bc65aa73f85f25ec30a4b9e1336f37936aa3de8e3d381877a6cf26c201eb517c8e06860c1cbc345420e8d613440f4f2e5eedcb372020faf376e26f02c50)#0mns74e9",
            "hex": "4104a5026bc65aa73f85f25ec30a4b9e1336f37936aa3de8e3d381877a6cf26c201eb517c8e06860c1cbc345420e8d613440f4f2e5eedcb372020faf376e26f02c50ac",
            "type": "pubkey"
          }
        }
      ],
      "hex": "01000000010000000000000000000000000000000000000000000000000000000000000000ffffffff0804ffff001d02e608ffffffff0100f2052a01000000434104a5026bc65aa73f85f25ec30a4b9e1336f37936aa3de8e3d381877a6cf26c201eb517c8e06860c1cbc345420e8d613440f4f2e5eedcb372020faf376e26f02c50ac00000000"
    }
  ]
}