{
  "hash": "0000000072d2a9bc066cd767cc7b87f55c2ed6a56f3afa209875fa754e33a9f9",
  "confirmations": 51212,
  "height": 1886,
  "version": 1,
  "versionHex": "00000001",
  "merkleroot": "96b221f9e8afbed5d7c56d98c333c1d4f6db9a64b255fecb77577ef189623b0a",
  "time": 1232938776,
  "mediantime": 1232936052,
  "nonce": 3559649562,
  "bits": "1d00ffff",
  "difficulty": 1,
  "chainwork": "0000000000000000000000000000000000000000000000000000075f075f075f",
  "nTx": 1,
  "previousblockhash": "000000006a7e674aa8851c0821d246124b62afcbc224c493a3e898d0618dfa52",
  "nextblockhash": "000000008865014383055fbc472d628eb95ef3924a4163b1188eaa7bf6a0aff3",
  "strippedsize": 216,
  "size": 216,
  "weight": 864,
  "tx": [
    {
      "txid": "96b221f9e8afbed5d7c56d98c333c1d4f6db9a64b255fecb77577ef189623b0a",
      "hash": "96b221f9e8afbed5d7c56d98c333c1d4f6db9a64b255fecb77577ef189623b0a",
      "version": 1,
      "size": 135,
      "vsize": 135,
      "weight": 540,
      "locktime": 0,
      "vin": [
        {
          "coinbase": "04ffff001d021b05",
          "sequence": 4294967295
        }
      ],
      "vout": [
        {
          "value": 50.0,
          "n": 0,
          "scriptPubKey": {
            "asm": "047d7a4930a6448837939fd370ab35ca575ccfa25cfa987ac95d62943974bd8ef3e6931ae5ff11de1a4fc4d2dad97789df6e555361f060aabd5b40e22da10971f2 OP_CHECKSIG",
            "desc": "pk(047d7a4930a6448837939fd370ab35ca575ccfa25cfa987ac95d62943974bd8ef3e6931ae5ff11de1a4fc4d2dad97789df6e555361f060aabd5b40e22da10971f2)#ucaql924",
            "hex": "41047d7a4930a6448837939fd370ab35ca575ccfa25cfa987ac95d62943974bd8ef3e6931ae5ff11de1a4fc4d2dad97789df6e555361f060aabd5b40e22da10971f2ac",
            "type": "pubkey"
          }
        }
      ],
      "hex": "01000000010000000000000000000000000000000000000000000000000000000000000000ffffffff0804ffff001d021b05ffffffff0100f2052a010000004341047d7a4930a6448837939fd370ab35ca575ccfa25cfa987ac95d62943974bd8ef3e6931ae5ff11de1a4fc4d2dad97789df6e555361f060aabd5b40e22da10971f2ac00000000"
    }
  ]
}