{
  "hash": "000000005b113ff7a3a03d633e87a416a372f09b37da8891650c6f8812e7288e",
  "confirmations": 52106,
  "height": 992,
  "version": 1,
  "versionHex": "00000001",
  "merkleroot": "4a531c0c49f0e44dac7a13dbbe532219f678cc40bce5c1ce8c039322c98fdd18",
  "time": 1232343956,
  "mediantime": 1232340412,
  "nonce": 121919971,
  "bits": "1d00ffff",
  "difficulty": 1,
  "chainwork": "000000000000000000000000000000000000000000000000000003e103e103e1",
  "nTx": 1,
  "previousblockhash": "00000000a97c5e59f98521c4c84e14ce030c67611feb28221c5a6f1276be5efb",
  "nextblockhash": "00000000347030f090cf9ee7e51d421804362334d1f97905b6b7158d2d3fd737",
  "strippedsize": 216,
  "size": 216,
  "weight": 864,
  "tx": [
    {
      "txid": "4a531c0c49f0e44dac7a13dbbe532219f678cc40bce5c1ce8c039322c98fdd18",
      "hash": "4a531c0c49f0e44dac7a13dbbe532219f678cc40bce5c1ce8c039322c98fdd18",
      "version": 1,
      "size": 135,
      "vsize": 135,
      "weight": 540,
      "locktime": 0,
      "vin": [
        {
          "coinbase": "04ffff001d021701",
          "sequence": 4294967295
        }
      ],
      "vout": [
        {
          "value": 50.0,
          "n": 0,
          "scriptPubKey": {
            "asm": "0433f0e4d0627ba8fa3a3a8fae48d1de8e17f0fa4d10cd12ef6c9e9aca212ed9157650c1a5ab7a1678b130abd7ef37f98bfd7372d6575a2aab89f0b6f8100ec6d6 OP_CHECKSIG",
            "desc": "pk(0433f0e4d0627ba8fa3a3a8fae48d1de8e17f0fa4d10cd12ef6c9e9aca212ed9157650c1a5ab7a1678b130abd7ef37f98bfd7372d6575a2aab89f0b6f8100ec6d6)#xeq564wd",
            "hex": "410433f0e4d0627ba8fa3a3a8fae48d1de8e17f0fa4d10cd12ef6c9e9aca212ed9157650c1a5ab7a1678b130abd7ef37f98bfd7372d6575a2aab89f0b6f8100ec6d6ac",
            "type": "pubkey"
          }
        }
      ],
      "hex": "01000000010000000000000000000000000000000000000000000000000000000000000000ffffffff0804ffff001d021701ffffffff0100f2052a0100000043410433f0e4d0627ba8fa3a3a8fae48d1de8e17f0fa4d10cd12ef6c9e9aca212ed9157650c1a5ab7a1678b130abd7ef37f98bfd7372d6575a2aab89f0b6f8100ec6d6ac00000000"
    }
  ]
}