{
  "hash": "000000005c619c5a51f6bfeea9029520d1e05befb6129795e9cb122efd8f4dc8",
  "confirmations": 52156,
  "height": 380,
  "version": 1,
  "versionHex": "00000001",
  "merkleroot": "1d2d4ff87874df163a3ad7d7657f075b6fc97f99537832ab64a4072d1430b386",
  "time": 1231886972,
  "mediantime": 1231882823,
  "nonce": 615297076,
  "bits": "1d00ffff",
  "difficulty": 1,
  "chainwork": "0000000000000000000000000000000000000000000000000000017d017d017d",
  "nTx": 1,
  "previousblockhash": "00000000ca826763c172f28976c008fcf73f4f2cbac96335d49918162cf3b018",
  "nextblockhash": "00000000539376ba9a1b68e9b803ce7ae280bfbaa0eb62fc462126a6d07feec3",
  "strippedsize": 216,
  "size": 216,
  "weight": 864,
  "tx": [
    {
      "txid": "1d2d4ff87874df163a3ad7d7657f075b6fc97f99537832ab64a4072d1430b386",
      "hash": "1d2d4ff87874df163a3ad7d7657f075b6fc97f99537832ab64a4072d1430b386",
      "version": 1,
      "size": 135,
      "vsize": 135,
      "weight": 540,
      "locktime": 0,
      "vin": [
        {
          "coinbase": "04ffff001d020e02",
          "sequence": 4294967295
        }
      ],
      "vout": [
        {
          "value": 50.0,
          "n": 0,
          "scriptPubKey": {
            "asm": "0491dbbb86f260e66c8a6da2c63b338ff4a971a760857ea0ab641210fa810c42f108fbd45c8c7cec72c9ac60c70a0fbb97c4741627f7309317156a963924794d64 OP_CHECKSIG",
            "desc": "pk(0491dbbb86f260e66c8a6da2c63b338ff4a971a760857ea0ab641210fa810c42f108fbd45c8c7cec72c9ac60c70a0fbb97c4741627f7309317156a963924794d64)#nju6vdrn",
            "hex": "410491dbbb86f260e66c8a6da2c63b338ff4a971a760857ea0ab641210fa810c42f108fbd45c8c7cec72c9ac60c70a0fbb97c4741627f7309317156a963924794d64ac",
            "type": "pubkey"
          }
        }
      ],
      "hex": "01000000010000000000000000000000000000000000000000000000000000000000000000ffffffff0804ffff001d020e02ffffffff0100f2052a0100000043410491dbbb86f260e66c8a6da2c63b338ff4a971a760857ea0ab641210fa810c42f108fbd45c8c7cec72c9ac60c70a0fbb97c4741627f7309317156a963924794d64ac00000000"
    }
  ]
}