{
  "hash": "00000000ea88a91c6afaa042408c615fe734e0bb0318b552deb0313f5946a8c3",
  "confirmations": 44377,
  "height": 8721,
  "version": 1,
  "versionHex": "00000001",
  "merkleroot": "7d454a41904c20f314a73cb05df8f10e9b41b58c7d6eb01a2a5871ed7e5f1d56",
  "time": 1238037780,
  "mediantime": 1238033991,
  "nonce": 146120446,
  "bits": "1d00ffff",
  "difficulty": 1,
  "chainwork": "0000000000000000000000000000000000000000000000000000221222122212",
  "nTx": 1,
  "previousblockhash": "0000000022e43352860ba926e8bec083b3a5813aa2765b41481120475eb5a972",
  "nextblockhash": "00000000e93a18e6d4acbaa5fec37dfbdf2d4109efbe8ea2d962e4c922565252",
  "strippedsize": 216,
  "size": 216,
  "weight": 864,
  "tx": [
    {
      "txid": "7d454a41904c20f314a73cb05df8f10e9b41b58c7d6eb01a2a5871ed7e5f1d56",
      "hash": "7d454a41904c20f314a73cb05df8f10e9b41b58c7d6eb01a2a5871ed7e5f1d56",
      "version": 1,
      "size": 135,
      "vsize": 135,
      "weight": 540,
      "locktime": 0,
      "vin": [
        {
          "coinbase": "04ffff001d02c40c",
          "sequence": 4294967295
        }
      ],
      "vout": [
        {
          "value": 50.0,
          "n": 0,
          "scriptPubKey": {
            "asm": "0420976d63e0792945796160ac4612bb10fd929c3facb248977c564a505ce0edf10cf8718559863d872ff097191d2290a607f54a9d4f9e2d1c61928b0fbcc6c6b6 OP_CHECKSIG",
            "desc": "pk(0420976d63e0792945796160ac4612bb10fd929c3facb248977c564a505ce0edf10cf8718559863d872ff097191d2290a607f54a9d4f9e2d1c61928b0fbcc6c6b6)#37ju0dnc",
            "hex": "410420976d63e0792945796160ac4612bb10fd929c3facb248977c564a505ce0edf10cf8718559863d872ff097191d2290a607f54a9d4f9e2d1c61928b0fbcc6c6b6ac",
            "type": "pubkey"
          }
        }
      ],
      "hex": "01000000010000000000000000000000000000000000000000000000000000000000000000ffffffff0804ffff001d02c40cffffffff0100f2052a0100000043410420976d63e0792945796160ac4612bb10fd929c3facb248977c564a505ce0edf10cf8718559863d872ff097191d2290a607f54a9d4f9e2d1c61928b0fbcc6c6b6ac00000000"
    }
  ]
}