{
  "hash": "00000000386e3d6a8e6bd289519e5aafb9c7216d173e9621465931dfe321d2ee",
  "confirmations": 47889,
  "height": 5209,
  "version": 1,
  "versionHex": "00000001",
  "merkleroot": "cfbb78dacce7ffafa82f1d1844dfc7519dc1d00e326116689db5f04b36d8f32e",
  "time": 1235292305,
  "mediantime": 1235289074,
  "nonce": 2108074518,
  "bits": "1d00ffff",
  "difficulty": 1,
  "chainwork": "0000000000000000000000000000000000000000000000000000145a145a145a",
  "nTx": 1,
  "previousblockhash": "000000009e5d26570424359900f436bd26b26e6b0b3573dad84b14df4b88bfeb",
  "nextblockhash": "00000000994224fb25bdb3642854d2c03137272675b05516e478dac3323873be",
  "strippedsize": 216,
  "size": 216,
  "weight": 864,
  "tx": [
    {
      "txid": "cfbb78dacce7ffafa82f1d1844dfc7519dc1d00e326116689db5f04b36d8f32e",
      "hash": "cfbb78dacce7ffafa82f1d1844dfc7519dc1d00e326116689db5f04b36d8f32e",
      "version": 1,
      "size": 135,
      "vsize": 135,
      "weight": 540,
      "locktime": 0,
      "vin": [
        {
          "coinbase": "04ffff001d02b700",
          "sequence": 4294967295
        }
      ],
      "vout": [
        {
          "value": 50.0,
          "n": 0,
          "scriptPubKey": {
            "asm": "04b8d43713b705ce454a60e0ac84c58400ea3f56c880b8b7dd5006e86528b75074adc75d1da7efbc01e929983188c2407a81b7233126e09ee36d110d49758812be OP_CHECKSIG",
            "desc": "pk(04b8d43713b705ce454a60e0ac84c58400ea3f56c880b8b7dd5006e86528b75074adc75d1da7efbc01e929983188c2407a81b7233126e09ee36d110d49758812be)#p3aemc7t",
            "hex": "4104b8d43713b705ce454a60e0ac84c58400ea3f56c880b8b7dd5006e86528b75074adc75d1da7efbc01e929983188c2407a81b7233126e09ee36d110d49758812beac",
            "type": "pubkey"
          }
        }
      ],
      "hex": "01000000010000000000000000000000000000000000000000000000000000000000000000ffffffff0804ffff001d02b700ffffffff0100f2052a01000000434104b8d43713b705ce454a60e0ac84c58400ea3f56c880b8b7dd5006e86528b75074adc75d1da7efbc01e929983188c2407a81b7233126e09ee36d110d49758812beac00000000"
    }
  ]
}