{
  "hash": "00000000588f7dd0e543b5ddea8fdeb14d2c1be97f11fe9d7440e6dea4b06652",
  "confirmations": 43845,
  "height": 9253,
  "version": 1,
  "versionHex": "00000001",
  "merkleroot": "04be0f5fe61097276e237272a544c8d22f60371462841a8109247f7e658d4744",
  "time": 1238436831,
  "mediantime": 1238433342,
  "nonce": 4202099506,
  "bits": "1d00ffff",
  "difficulty": 1,
  "chainwork": "0000000000000000000000000000000000000000000000000000242624262426",
  "nTx": 1,
  "previousblockhash": "000000001298675cfac1fa35dc10d3821ee336cdc1753d80df4c6a64200001cc",
  "nextblockhash": "00000000de962787c333315b4a48499e8003a6d21d700e9d8ca1e3116584d1c3",
  "strippedsize": 216,
  "size": 216,
  "weight": 864,
  "tx": [
    {
      "txid": "04be0f5fe61097276e237272a544c8d22f60371462841a8109247f7e658d4744",
      "hash": "04be0f5fe61097276e237272a544c8d22f60371462841a8109247f7e658d4744",
      "version": 1,
      "size": 135,
      "vsize": 135,
      "weight": 540,
      "locktime": 0,
      "vin": [
        {
          "coinbase": "04ffff001d02fa00",
          "sequence": 4294967295
        }
      ],
      "vout": [
        {
          "value": 50.0,
          "n": 0,
          "scriptPubKey": {
            "asm": "04937e27082dbf99d3e70df9a5d804150e131d128399c88806d79b4ee365311d718743c3d0001b07133b7bf5887af594db02aa569e3993688b5751ca4dd899f33a OP_CHECKSIG",
            "desc": "pk(04937e27082dbf99d3e70df9a5d804150e131d128399c88806d79b4ee365311d718743c3d0001b07133b7bf5887af594db02aa569e3993688b5751ca4dd899f33a)#2mltvc7l",
            "hex": "4104937e27082dbf99d3e70df9a5d804150e131d128399c88806d79b4ee365311d718743c3d0001b07133b7bf5887af594db02aa569e3993688b5751ca4dd899f33aac",
            "type": "pubkey"
          }
        }
      ],
      "hex": "01000000010000000000000000000000000000000000000000000000000000000000000000ffffffff0804ffff001d02fa00ffffffff0100f2052a01000000434104937e27082dbf99d3e70df9a5d804150e131d128399c88806d79b4ee365311d718743c3d0001b07133b7bf5887af594db02aa569e3993688b5751ca4dd899f33aac00000000"
    }
  ]
}