{
  "hash": "00000000aed0c1fc5c31ed59240dbe97b4fcb8e38595216a2e7070b15393da51",
  "confirmations": 43606,
  "height": 9492,
  "version": 1,
  "versionHex": "00000001",
  "merkleroot": "50552b38057b16879cabdb4455b9d6e4ef6292629beb1f3c1bf6d7fa8adededf",
  "time": 1238623030,
  "mediantime": 1238620598,
  "nonce": 287295792,
  "bits": "1d00ffff",
  "difficulty": 1,
  "chainwork": "0000000000000000000000000000000000000000000000000000251525152515",
  "nTx": 1,
  "previousblockhash": "000000007acf21ebcc9a0770ed02d59591aae15c763f6127433eb949bc33f945",
  "nextblockhash": "00000000b37596a3da4047bd87f87308fcd341f4cde8e6c7e6e1e490b0e9a80b",
  "strippedsize": 216,
  "size": 216,
  "weight": 864,
  "tx": [
    {
      "txid": "50552b38057b16879cabdb4455b9d6e4ef6292629beb1f3c1bf6d7fa8adededf",
      "hash": "50552b38057b16879cabdb4455b9d6e4ef6292629beb1f3c1bf6d7fa8adededf",
      "version": 1,
      "size": 135,
      "vsize": 135,
      "weight": 540,
      "locktime": 0,
      "vin": [
        {
          "coinbase": "04ffff001d025205",
          "sequence": 4294967295
        }
      ],
      "vout": [
        {
          "value": 50.0,
          "n": 0,
          "scriptPubKey": {
            "asm": "04e35449bb73ea113686ac02159ab455dd6219848c1e0d305a4163fecd958816468b347fdd8142d4bfe77bc074064a38c71947996e03e39f6d632ffa7ec2094cf1 OP_CHECKSIG",
            "desc": "pk(04e35449bb73ea113686ac02159ab455dd6219848c1e0d305a4163fecd958816468b347fdd8142d4bfe77bc074064a38c71947996e03e39f6d632ffa7ec2094cf1)#qrrmml0y",
            "hex": "4104e35449bb73ea113686ac02159ab455dd6219848c1e0d305a4163fecd958816468b347fdd8142d4bfe77bc074064a38c71947996e03e39f6d632ffa7ec2094cf1ac",
            "type": "pubkey"
          }
        }
      ],
      "hex": "01000000010000000000000000000000000000000000000000000000000000000000000000ffffffff0804ffff001d025205ffffffff0100f2052a01000000434104e35449bb73ea113686ac02159ab455dd6219848c1e0d305a4163fecd958816468b347fdd8142d4bfe77bc074064a38c71947996e03e39f6d632ffa7ec2094cf1ac00000000"
    }
  ]
}