{
  "hash": "000000002ece5ab68892dbfd32c3750ed5f36d53226e0c1aaac454a6e07c783e",
  "confirmations": 46733,
  "height": 6365,
  "version": 1,
  "versionHex": "00000001",
  "merkleroot": "94130a18725388077b637ea6b997b6f7f0c9b6132de885ff9190551b7518111a",
  "time": 1236230708,
  "mediantime": 1236226312,
  "nonce": 2287072278,
  "bits": "1d00ffff",
  "difficulty": 1,
  "chainwork": "000000000000000000000000000000000000000000000000000018de18de18de",
  "nTx": 1,
  "previousblockhash": "000000004f27086ab1e6a6f04c4268a4658545cf2b9976d022fbd88514443f4e",
  "nextblockhash": "00000000aea58f55f01e9d576d809787af36dc351476fbf30fc7252062de3af3",
  "strippedsize": 216,
  "size": 216,
  "weight": 864,
  "tx": [
    {
      "txid": "94130a18725388077b637ea6b997b6f7f0c9b6132de885ff9190551b7518111a",
      "hash": "94130a18725388077b637ea6b997b6f7f0c9b6132de885ff9190551b7518111a",
      "version": 1,
      "size": 135,
      "vsize": 135,
      "weight": 540,
      "locktime": 0,
      "vin": [
        {
          "coinbase": "04ffff001d022b01",
          "sequence": 4294967295
        }
      ],
      "vout": [
        {
          "value": 50.0,
          "n": 0,
          "scriptPubKey": {
            "asm": "04f98041eed144b745d18120e5693fd4b29a6af3172b8f756e3bc2cf479dfa1fc35569c5ab97f9c6776fe98c254decca3e9cb186f11f8d0393b548d7ea66f08d1a OP_CHECKSIG",
            "desc": "pk(04f98041eed144b745d18120e5693fd4b29a6af3172b8f756e3bc2cf479dfa1fc35569c5ab97f9c6776fe98c254decca3e9cb186f11f8d0393b548d7ea66f08d1a)#zy8qvafn",
            "hex": "4104f98041eed144b745d18120e5693fd4b29a6af3172b8f756e3bc2cf479dfa1fc35569c5ab97f9c6776fe98c254decca3e9cb186f11f8d0393b548d7ea66f08d1aac",
            "type": "pubkey"
          }
        }
      ],
      "hex": "01000000010000000000000000000000000000000000000000000000000000000000000000ffffffff0804ffff001d022b01ffffffff0100f2052a01000000434104f98041eed144b745d18120e5693fd4b29a6af3172b8f756e3bc2cf479dfa1fc35569c5ab97f9c6776fe98c254decca3e9cb186f11f8d0393b548d7ea66f08d1aac00000000"
    }
  ]
}