{
  "hash": "00000000a0963476270e03c002d98cc7be2865a02832451a65304e07712d1c95",
  "confirmations": 52285,
  "height": 813,
  "version": 1,
  "versionHex": "00000001",
  "merkleroot": "5dfac83c6969b841506ba52480f150e4b978327de8fce5c551e5aafeefa0af18",
  "time": 1232201977,
  "mediantime": 1232199450,
  "nonce": 31558952,
  "bits": "1d00ffff",
  "difficulty": 1,
  "chainwork": "0000000000000000000000000000000000000000000000000000032e032e032e",
  "nTx": 1,
  "previousblockhash": "00000000d139d167e3f6b575cf2578469e86db13d7cb1035eeabe64e751bb5cc",
  "nextblockhash": "00000000bb8f0f8f1b6ed581c0d13e52008d0cb527d5ed78264c30827da4c3ba",
  "strippedsize": 215,
  "size": 215,
  "weight": 860,
  "tx": [
    {
      "txid": "5dfac83c6969b841506ba52480f150e4b978327de8fce5c551e5aafeefa0af18",
      "hash": "5dfac83c6969b841506ba52480f150e4b978327de8fce5c551e5aafeefa0af18",
      "version": 1,
      "size": 134,
      "vsize": 134,
      "weight": 536,
      "locktime": 0,
      "vin": [
        {
          "coinbase": "04ffff001d0114",
          "sequence": 4294967295
        }
      ],
      "vout": [
        {
          "value": 50.0,
          "n": 0,
          "scriptPubKey": {
            "asm": "04a8cee902106d26f2eb66b94981187c6f1fda797eab0c6cc8ee3448b3e763f92ce92eb73a18f9b1b02b65663e9fc4cc02837cfe3b902b07a48e50ea90e407ad77 OP_CHECKSIG",
            "desc": "pk(04a8cee902106d26f2eb66b94981187c6f1fda797eab0c6cc8ee3448b3e763f92ce92eb73a18f9b1b02b65663e9fc4cc02837cfe3b902b07a48e50ea90e407ad77)#gc499p5m",
            "hex": "4104a8cee902106d26f2eb66b94981187c6f1fda797eab0c6cc8ee3448b3e763f92ce92eb73a18f9b1b02b65663e9fc4cc02837cfe3b902b07a48e50ea90e407ad77ac",
            "type": "pubkey"
          }
        }
      ],
      "hex": "01000000010000000000000000000000000000000000000000000000000000000000000000ffffffff0704ffff001d0114ffffffff0100f2052a01000000434104a8cee902106d26f2eb66b94981187c6f1fda797eab0c6cc8ee3448b3e763f92ce92eb73a18f9b1b02b65663e9fc4cc02837cfe3b902b07a48e50ea90e407ad77ac00000000"
    }
  ]
}