{
  "hash": "0000000077c1e92672fab780790d0feb5482b97f0f2842f552065c634752f88a",
  "confirmations": 46261,
  "height": 6837,
  "version": 1,
  "versionHex": "00000001",
  "merkleroot": "f68b5a4e0af1959561f4cbdb7f0936b49e334b4b562e256d64f6e2685262c587",
  "time": 1236583905,
  "mediantime": 1236581243,
  "nonce": 480660007,
  "bits": "1d00ffff",
  "difficulty": 1,
  "chainwork": "00000000000000000000000000000000000000000000000000001ab61ab61ab6",
  "nTx": 1,
  "previousblockhash": "00000000b5c761aeb6fbf1f16628aa37688a7c326e4c97c09130192370a94b5d",
  "nextblockhash": "00000000dd41ae581467f58797ae4dd936d83a6175a49405eea334bfd99834e4",
  "strippedsize": 216,
  "size": 216,
  "weight": 864,
  "tx": [
    {
      "txid": "f68b5a4e0af1959561f4cbdb7f0936b49e334b4b562e256d64f6e2685262c587",
      "hash": "f68b5a4e0af1959561f4cbdb7f0936b49e334b4b562e256d64f6e2685262c587",
      "version": 1,
      "size": 135,
      "vsize": 135,
      "weight": 540,
      "locktime": 0,
      "vin": [
        {
          "coinbase": "04ffff001d027c09",
          "sequence": 4294967295
        }
      ],
      "vout": [
        {
          "value": 50.0,
          "n": 0,
          "scriptPubKey": {
            "asm": "0477a734575e6192adf619466b9ef9a762b3c902f3453537dba152386947ee6b52c370bc9cdb6b44f0d1cc3ddc2375d6a58b8476b7ee9be34164539c3ae1cdb4a5 OP_CHECKSIG",
            "desc": "pk(0477a734575e6192adf619466b9ef9a762b3c902f3453537dba152386947ee6b52c370bc9cdb6b44f0d1cc3ddc2375d6a58b8476b7ee9be34164539c3ae1cdb4a5)#4878380l",
            "hex": "410477a734575e6192adf619466b9ef9a762b3c902f3453537dba152386947ee6b52c370bc9cdb6b44f0d1cc3ddc2375d6a58b8476b7ee9be34164539c3ae1cdb4a5ac",
            "type": "pubkey"
          }
        }
      ],
      "hex": "01000000010000000000000000000000000000000000000000000000000000000000000000ffffffff0804ffff001d027c09ffffffff0100f2052a0100000043410477a734575e6192adf619466b9ef9a762b3c902f3453537dba152386947ee6b52c370bc9cdb6b44f0d1cc3ddc2375d6a58b8476b7ee9be34164539c3ae1cdb4a5ac00000000"
    }
  ]
}