{
  "hash": "00000000bb7f77903d7ebcd8849cc4c6570bbd52e623f6ee341e8e67241251fc",
  "confirmations": 52428,
  "height": 670,
  "version": 1,
  "versionHex": "00000001",
  "merkleroot": "7242b388acbc0ffc05a8c50c2eb9c22d059a0db82bdd0071351a2804a4d20947",
  "time": 1232083261,
  "mediantime": 1232078458,
  "nonce": 868994351,
  "bits": "1d00ffff",
  "difficulty": 1,
  "chainwork": "0000000000000000000000000000000000000000000000000000029f029f029f",
  "nTx": 1,
  "previousblockhash": "0000000062f7c49b1b1fd14cac362c40affbf322e40c9f2603148e62ae95ac9f",
  "nextblockhash": "000000009e48aa3498ce546a1cbfccbc083e080108b06e0ad4bcea59c74a1af1",
  "strippedsize": 215,
  "size": 215,
  "weight": 860,
  "tx": [
    {
      "txid": "7242b388acbc0ffc05a8c50c2eb9c22d059a0db82bdd0071351a2804a4d20947",
      "hash": "7242b388acbc0ffc05a8c50c2eb9c22d059a0db82bdd0071351a2804a4d20947",
      "version": 1,
      "size": 134,
      "vsize": 134,
      "weight": 536,
      "locktime": 0,
      "vin": [
        {
          "coinbase": "04ffff001d013d",
          "sequence": 4294967295
        }
      ],
      "vout": [
        {
          "value": 50.0,
          "n": 0,
          "scriptPubKey": {
            "asm": "043ea77f2d38564bd72f040d9993e91b0b74baa01ef1f2bf170f93a6e3c9c52b0977c54bd702fddc8dfaf730fec498173fda1eaa50c6362e898199ecd55513a59c OP_CHECKSIG",
            "desc": "pk(043ea77f2d38564bd72f040d9993e91b0b74baa01ef1f2bf170f93a6e3c9c52b0977c54bd702fddc8dfaf730fec498173fda1eaa50c6362e898199ecd55513a59c)#kcvpvv3x",
            "hex": "41043ea77f2d38564bd72f040d9993e91b0b74baa01ef1f2bf170f93a6e3c9c52b0977c54bd702fddc8dfaf730fec498173fda1eaa50c6362e898199ecd55513a59cac",
            "type": "pubkey"
          }
        }
      ],
      "hex": "01000000010000000000000000000000000000000000000000000000000000000000000000ffffffff0704ffff001d013dffffffff0100f2052a010000004341043ea77f2d38564bd72f040d9993e91b0b74baa01ef1f2bf170f93a6e3c9c52b0977c54bd702fddc8dfaf730fec498173fda1eaa50c6362e898199ecd55513a59cac00000000"
    }
  ]
}