{
  "hash": "00000000b4bc9a4a22ad0e1c6ae73634968bd04eb5ea50737cbaf78039fcc5b1",
  "confirmations": 51467,
  "height": 1631,
  "version": 1,
  "versionHex": "00000001",
  "merkleroot": "516deee1bd6ba6bdc9849f68517201a68ee3773d9039da48dd6c5a6516aa81cd",
  "time": 1232824557,
  "mediantime": 1232821979,
  "nonce": 70523774,
  "bits": "1d00ffff",
  "difficulty": 1,
  "chainwork": "0000000000000000000000000000000000000000000000000000066006600660",
  "nTx": 1,
  "previousblockhash": "00000000c8cdeb2e335b0571fb95df17e5946283e42b8680e38ade3fc7bcbbe8",
  "nextblockhash": "00000000efd06192ee4bef48bd5b88b42c5ddfab8081c6470e10ea5187ce316d",
  "strippedsize": 215,
  "size": 215,
  "weight": 860,
  "tx": [
    {
      "txid": "516deee1bd6ba6bdc9849f68517201a68ee3773d9039da48dd6c5a6516aa81cd",
      "hash": "516deee1bd6ba6bdc9849f68517201a68ee3773d9039da48dd6c5a6516aa81cd",
      "version": 1,
      "size": 134,
      "vsize": 134,
      "weight": 536,
      "locktime": 0,
      "vin": [
        {
          "coinbase": "04ffff001d0134",
          "sequence": 4294967295
        }
      ],
      "vout": [
        {
          "value": 50.0,
          "n": 0,
          "scriptPubKey": {
            "asm": "04b648745745e68dd6721d843cd3badc479aeaeca9a6a8c79060de95f890b9850f6b40ffcf2c80282a55e261063f86857baa5324b3a19f5d71bed325df11c5ffa7 OP_CHECKSIG",
            "desc": "pk(04b648745745e68dd6721d843cd3badc479aeaeca9a6a8c79060de95f890b9850f6b40ffcf2c80282a55e261063f86857baa5324b3a19f5d71bed325df11c5ffa7)#yrrzs9vt",
            "hex": "4104b648745745e68dd6721d843cd3badc479aeaeca9a6a8c79060de95f890b9850f6b40ffcf2c80282a55e261063f86857baa5324b3a19f5d71bed325df11c5ffa7ac",
            "type": "pubkey"
          }
        }
      ],
      "hex": "01000000010000000000000000000000000000000000000000000000000000000000000000ffffffff0704ffff001d0134ffffffff0100f2052a01000000434104b648745745e68dd6721d843cd3badc479aeaeca9a6a8c79060de95f890b9850f6b40ffcf2c80282a55e261063f86857baa5324b3a19f5d71bed325df11c5ffa7ac00000000"
    }
  ]
}