{
  "hash": "00000000d3d00462bebfb057d6c3eb931a7690447a31b10f0db37b150ed4c08b",
  "confirmations": 52416,
  "height": 682,
  "version": 1,
  "versionHex": "00000001",
  "merkleroot": "3b5237257da3efe8eb36276b37469f219f074bc9b5607aa970c6150a7242ec3d",
  "time": 1232094155,
  "mediantime": 1232090447,
  "nonce": 2896709380,
  "bits": "1d00ffff",
  "difficulty": 1,
  "chainwork": "000000000000000000000000000000000000000000000000000002ab02ab02ab",
  "nTx": 1,
  "previousblockhash": "000000008c3c1a85063bc181d4ff51425209ba6788a0f85c473667620bed5780",
  "nextblockhash": "00000000cdecc1f6931a75229cdfe318c0501eb6b4fa3fa8633967d39f4a7430",
  "strippedsize": 215,
  "size": 215,
  "weight": 860,
  "tx": [
    {
      "txid": "3b5237257da3efe8eb36276b37469f219f074bc9b5607aa970c6150a7242ec3d",
      "hash": "3b5237257da3efe8eb36276b37469f219f074bc9b5607aa970c6150a7242ec3d",
      "version": 1,
      "size": 134,
      "vsize": 134,
      "weight": 536,
      "locktime": 0,
      "vin": [
        {
          "coinbase": "04ffff001d0174",
          "sequence": 4294967295
        }
      ],
      "vout": [
        {
          "value": 50.0,
          "n": 0,
          "scriptPubKey": {
            "asm": "04df4859b2f06180d770435a7becafc91097dc6500d52012044c5233e0a250666d1b63ad3c09e461822fa70515fa7c1241d0dae8183f8646f747e97ac8c2dd2bef OP_CHECKSIG",
            "desc": "pk(04df4859b2f06180d770435a7becafc91097dc6500d52012044c5233e0a250666d1b63ad3c09e461822fa70515fa7c1241d0dae8183f8646f747e97ac8c2dd2bef)#v0f2mcnf",
            "hex": "4104df4859b2f06180d770435a7becafc91097dc6500d52012044c5233e0a250666d1b63ad3c09e461822fa70515fa7c1241d0dae8183f8646f747e97ac8c2dd2befac",
            "type": "pubkey"
          }
        }
      ],
      "hex": "01000000010000000000000000000000000000000000000000000000000000000000000000ffffffff0704ffff001d0174ffffffff0100f2052a01000000434104df4859b2f06180d770435a7becafc91097dc6500d52012044c5233e0a250666d1b63ad3c09e461822fa70515fa7c1241d0dae8183f8646f747e97ac8c2dd2befac00000000"
    }
  ]
}