{
  "hash": "00000000b8dbdb4bba017f6c4e1a6ddf80de19d56765a5d991ea52b29fd50597",
  "confirmations": 46659,
  "height": 6439,
  "version": 1,
  "versionHex": "00000001",
  "merkleroot": "516aaa7d590338ca8e0525779552ce20e56c68a07d487e6700b7f67abd96911a",
  "time": 1236284815,
  "mediantime": 1236281593,
  "nonce": 1289956387,
  "bits": "1d00ffff",
  "difficulty": 1,
  "chainwork": "0000000000000000000000000000000000000000000000000000192819281928",
  "nTx": 1,
  "previousblockhash": "00000000fd3a9cde68ee4f2593374d4a9cd4d0d2269e29e8a47c08ad0bfa6241",
  "nextblockhash": "00000000bd5b11b70c81f25faa5f68bd6cfe8995adbf24920c96239aa29e2842",
  "strippedsize": 216,
  "size": 216,
  "weight": 864,
  "tx": [
    {
      "txid": "516aaa7d590338ca8e0525779552ce20e56c68a07d487e6700b7f67abd96911a",
      "hash": "516aaa7d590338ca8e0525779552ce20e56c68a07d487e6700b7f67abd96911a",
      "version": 1,
      "size": 135,
      "vsize": 135,
      "weight": 540,
      "locktime": 0,
      "vin": [
        {
          "coinbase": "04ffff001d026e02",
          "sequence": 4294967295
        }
      ],
      "vout": [
        {
          "value": 50.0,
          "n": 0,
          "scriptPubKey": {
            "asm": "04ef77ca86a244242e589d159187b58f0d9d6c3688ca54b0e8224fde66d942f622d6c74d74a363fa882f7435f6e41ea017b186d3a8836c69723707aec66dea03fa OP_CHECKSIG",
            "desc": "pk(04ef77ca86a244242e589d159187b58f0d9d6c3688ca54b0e8224fde66d942f622d6c74d74a363fa882f7435f6e41ea017b186d3a8836c69723707aec66dea03fa)#uedj2vpw",
            "hex": "4104ef77ca86a244242e589d159187b58f0d9d6c3688ca54b0e8224fde66d942f622d6c74d74a363fa882f7435f6e41ea017b186d3a8836c69723707aec66dea03faac",
            "type": "pubkey"
          }
        }
      ],
      "hex": "01000000010000000000000000000000000000000000000000000000000000000000000000ffffffff0804ffff001d026e02ffffffff0100f2052a01000000434104ef77ca86a244242e589d159187b58f0d9d6c3688ca54b0e8224fde66d942f622d6c74d74a363fa882f7435f6e41ea017b186d3a8836c69723707aec66dea03faac00000000"
    }
  ]
}