{
  "hash": "0000000039f2ad51345de657e8ff16d1d961d7446ee4db55dc9ccf56dfc7f2ff",
  "confirmations": 47479,
  "height": 5619,
  "version": 1,
  "versionHex": "00000001",
  "merkleroot": "f6cd634a9ce53f1cd084f9d9ebc581b4545f1cfe9d5652b632af931bba7ddbba",
  "time": 1235620539,
  "mediantime": 1235615695,
  "nonce": 2581399090,
  "bits": "1d00ffff",
  "difficulty": 1,
  "chainwork": "000000000000000000000000000000000000000000000000000015f415f415f4",
  "nTx": 1,
  "previousblockhash": "00000000d8738058a2623a01712488226f7c2c0f0465b3083ce4f78d42c79635",
  "nextblockhash": "0000000020c385efb05bd1a41ad9b3f27bcbf7a323088f9498629049ede86097",
  "strippedsize": 216,
  "size": 216,
  "weight": 864,
  "tx": [
    {
      "txid": "f6cd634a9ce53f1cd084f9d9ebc581b4545f1cfe9d5652b632af931bba7ddbba",
      "hash": "f6cd634a9ce53f1cd084f9d9ebc581b4545f1cfe9d5652b632af931bba7ddbba",
      "version": 1,
      "size": 135,
      "vsize": 135,
      "weight": 540,
      "locktime": 0,
      "vin": [
        {
          "coinbase": "04ffff001d021008",
          "sequence": 4294967295
        }
      ],
      "vout": [
        {
          "value": 50.0,
          "n": 0,
          "scriptPubKey": {
            "asm": "04bc27b088ca49957bf7dbb65903a6f029c7ae95f579a9167624aa444bd8bbe2e8259577ee0ecb8e8314ccf66ad9414604f7ccdec26dc8718558abcdc487e05683 OP_CHECKSIG",
            "desc": "pk(04bc27b088ca49957bf7dbb65903a6f029c7ae95f579a9167624aa444bd8bbe2e8259577ee0ecb8e8314ccf66ad9414604f7ccdec26dc8718558abcdc487e05683)#p9cg4k7k",
            "hex": "4104bc27b088ca49957bf7dbb65903a6f029c7ae95f579a9167624aa444bd8bbe2e8259577ee0ecb8e8314ccf66ad9414604f7ccdec26dc8718558abcdc487e05683ac",
            "type": "pubkey"
          }
        }
      ],
      "hex": "01000000010000000000000000000000000000000000000000000000000000000000000000ffffffff0804ffff001d021008ffffffff0100f2052a01000000434104bc27b088ca49957bf7dbb65903a6f029c7ae95f579a9167624aa444bd8bbe2e8259577ee0ecb8e8314ccf66ad9414604f7ccdec26dc8718558abcdc487e05683ac00000000"
    }
  ]
}