{
  "hash": "00000000ab56cdc9af24b07edd56b6f8fe77be5abb859b481d03f1631dcd914b",
  "confirmations": 45818,
  "height": 7280,
  "version": 1,
  "versionHex": "00000001",
  "merkleroot": "2a87d4f8b316e8d649b2639def0798fbc98ab6324eb029f92cba617b79319ee3",
  "time": 1236931117,
  "mediantime": 1236927524,
  "nonce": 97318791,
  "bits": "1d00ffff",
  "difficulty": 1,
  "chainwork": "00000000000000000000000000000000000000000000000000001c711c711c71",
  "nTx": 1,
  "previousblockhash": "00000000bdebace782e92206845942b7ff4c89071b3a7bba584a31d8b6d6c505",
  "nextblockhash": "000000007a6f495d4f7495b8f36266822d741415acf0ceb3729f8863ea8e6567",
  "strippedsize": 216,
  "size": 216,
  "weight": 864,
  "tx": [
    {
      "txid": "2a87d4f8b316e8d649b2639def0798fbc98ab6324eb029f92cba617b79319ee3",
      "hash": "2a87d4f8b316e8d649b2639def0798fbc98ab6324eb029f92cba617b79319ee3",
      "version": 1,
      "size": 135,
      "vsize": 135,
      "weight": 540,
      "locktime": 0,
      "vin": [
        {
          "coinbase": "04ffff001d02e700",
          "sequence": 4294967295
        }
      ],
      "vout": [
        {
          "value": 50.0,
          "n": 0,
          "scriptPubKey": {
            "asm": "040df99d7aad5db526a837ffba1d57e5d03c43c071cd04eb2ae15e16aae6b69e939b57936f7672dff2a3f93bdd5ddfa6c536f5364bb722e45c667efb7960148a92 OP_CHECKSIG",
            "desc": "pk(040df99d7aad5db526a837ffba1d57e5d03c43c071cd04eb2ae15e16aae6b69e939b57936f7672dff2a3f93bdd5ddfa6c536f5364bb722e45c667efb7960148a92)#2samjcqy",
            "hex": "41040df99d7aad5db526a837ffba1d57e5d03c43c071cd04eb2ae15e16aae6b69e939b57936f7672dff2a3f93bdd5ddfa6c536f5364bb722e45c667efb7960148a92ac",
            "type": "pubkey"
          }
        }
      ],
      "hex": "01000000010000000000000000000000000000000000000000000000000000000000000000ffffffff0804ffff001d02e700ffffffff0100f2052a010000004341040df99d7aad5db526a837ffba1d57e5d03c43c071cd04eb2ae15e16aae6b69e939b57936f7672dff2a3f93bdd5ddfa6c536f5364bb722e45c667efb7960148a92ac00000000"
    }
  ]
}