{
  "hash": "00000000b572a465b4e816420d47a16274557b3573b7924b64808a82c7322d9b",
  "confirmations": 51834,
  "height": 35,
  "version": 1,
  "versionHex": "00000001",
  "merkleroot": "852b1997ed935ba638078998e2d15bc8a91b8ad232e2d988e22c969eba3bafe0",
  "time": 1231605153,
  "mediantime": 1231602122,
  "nonce": 3890072084,
  "bits": "1d00ffff",
  "difficulty": 1,
  "chainwork": "0000000000000000000000000000000000000000000000000000002400240024",
  "nTx": 1,
  "previousblockhash": "00000000a73fb23b6c42b18b3253ed29c5d0c80d84624efa12c2cf05c4b4318f",
  "nextblockhash": "00000000f824d643f525b4904ea25c92174b8499435f388549a1700f4d3244de",
  "strippedsize": 215,
  "size": 215,
  "weight": 860,
  "tx": [
    {
      "txid": "852b1997ed935ba638078998e2d15bc8a91b8ad232e2d988e22c969eba3bafe0",
      "hash": "852b1997ed935ba638078998e2d15bc8a91b8ad232e2d988e22c969eba3bafe0",
      "version": 1,
      "size": 134,
      "vsize": 134,
      "weight": 536,
      "locktime": 0,
      "vin": [
        {
          "coinbase": "04ffff001d014d",
          "sequence": 4294967295
        }
      ],
      "vout": [
        {
          "value": 50.0,
          "n": 0,
          "scriptPubKey": {
            "asm": "04bb31566291ceb63ed600b0c29d6825d7924e73c265abac43fa088ad3e1a477c6fd15373fc40229cc895732d4175f6db615e4a2b6e9411e92974b6923d7985518 OP_CHECKSIG",
            "desc": "pk(04bb31566291ceb63ed600b0c29d6825d7924e73c265abac43fa088ad3e1a477c6fd15373fc40229cc895732d4175f6db615e4a2b6e9411e92974b6923d7985518)#fvvpkrpk",
            "hex": "4104bb31566291ceb63ed600b0c29d6825d7924e73c265abac43fa088ad3e1a477c6fd15373fc40229cc895732d4175f6db615e4a2b6e9411e92974b6923d7985518ac",
            "type": "pubkey"
          }
        }
      ],
      "hex": "01000000010000000000000000000000000000000000000000000000000000000000000000ffffffff0704ffff001d014dffffffff0100f2052a01000000434104bb31566291ceb63ed600b0c29d6825d7924e73c265abac43fa088ad3e1a477c6fd15373fc40229cc895732d4175f6db615e4a2b6e9411e92974b6923d7985518ac00000000"
    }
  ]
}