{
  "hash": "0000000038aa3060d5e47ad9acba85ded0f8dd6bae5a104c9181194641f1ff54",
  "confirmations": 51472,
  "height": 1626,
  "version": 1,
  "versionHex": "00000001",
  "merkleroot": "1ee594f8dc29906692d6bf1e2af5cf02bdf94b5831dcf4eb0eb5f8957006b705",
  "time": 1232821979,
  "mediantime": 1232820444,
  "nonce": 746194967,
  "bits": "1d00ffff",
  "difficulty": 1,
  "chainwork": "0000000000000000000000000000000000000000000000000000065b065b065b",
  "nTx": 1,
  "previousblockhash": "00000000b3483281759f10027c5664aba7bbcba1afc95a0f30a7679b90e5ae1e",
  "nextblockhash": "00000000b03c0e408570aa915e5970e3bbee2fab1ac2c8163a5c2d05ef2ca85f",
  "strippedsize": 216,
  "size": 216,
  "weight": 864,
  "tx": [
    {
      "txid": "1ee594f8dc29906692d6bf1e2af5cf02bdf94b5831dcf4eb0eb5f8957006b705",
      "hash": "1ee594f8dc29906692d6bf1e2af5cf02bdf94b5831dcf4eb0eb5f8957006b705",
      "version": 1,
      "size": 135,
      "vsize": 135,
      "weight": 540,
      "locktime": 0,
      "vin": [
        {
          "coinbase": "04ffff001d023a02",
          "sequence": 4294967295
        }
      ],
      "vout": [
        {
          "value": 50.0,
          "n": 0,
          "scriptPubKey": {
            "asm": "04513730c8c3b3d90526e6ae78bc2bae624d647efad55cd83099903758bbcc786ec3e8b6dfc61ad3d109182c0012b2715c1d2e316a25ee48686cd4ec85c592e0e9 OP_CHECKSIG",
            "desc": "pk(04513730c8c3b3d90526e6ae78bc2bae624d647efad55cd83099903758bbcc786ec3e8b6dfc61ad3d109182c0012b2715c1d2e316a25ee48686cd4ec85c592e0e9)#kf4afgpz",
            "hex": "4104513730c8c3b3d90526e6ae78bc2bae624d647efad55cd83099903758bbcc786ec3e8b6dfc61ad3d109182c0012b2715c1d2e316a25ee48686cd4ec85c592e0e9ac",
            "type": "pubkey"
          }
        }
      ],
      "hex": "01000000010000000000000000000000000000000000000000000000000000000000000000ffffffff0804ffff001d023a02ffffffff0100f2052a01000000434104513730c8c3b3d90526e6ae78bc2bae624d647efad55cd83099903758bbcc786ec3e8b6dfc61ad3d109182c0012b2715c1d2e316a25ee48686cd4ec85c592e0e9ac00000000"
    }
  ]
}