{
  "hash": "000000009080921cf08df2e9cc4f8fa0f450481ff00db4bc217b88e8d1e58b7f",
  "confirmations": 45561,
  "height": 7537,
  "version": 1,
  "versionHex": "00000001",
  "merkleroot": "3bdf915690aae01f89acb7e530311fb07052541e25d9db827813003d252d85d9",
  "time": 1237126612,
  "mediantime": 1237124000,
  "nonce": 1646237444,
  "bits": "1d00ffff",
  "difficulty": 1,
  "chainwork": "00000000000000000000000000000000000000000000000000001d721d721d72",
  "nTx": 1,
  "previousblockhash": "0000000037da02c4c4cf3236c65aee9856fc3771c62c8ffff1ba4c2a2f870887",
  "nextblockhash": "000000008a92018d09a49048a2d4dec35a57e429480a6f5ff111cd2c4fcce8f6",
  "strippedsize": 216,
  "size": 216,
  "weight": 864,
  "tx": [
    {
      "txid": "3bdf915690aae01f89acb7e530311fb07052541e25d9db827813003d252d85d9",
      "hash": "3bdf915690aae01f89acb7e530311fb07052541e25d9db827813003d252d85d9",
      "version": 1,
      "size": 135,
      "vsize": 135,
      "weight": 540,
      "locktime": 0,
      "vin": [
        {
          "coinbase": "04ffff001d02a401",
          "sequence": 4294967295
        }
      ],
      "vout": [
        {
          "value": 50.0,
          "n": 0,
          "scriptPubKey": {
            "asm": "04bf9e6991cdf12e100e70d9b9570b3c9d87d28dbe133f01816ee839d9c8993cc2a4ec2c751b72d333730415f894923a1d8db6643a259fe8f1af5aeb41d1a2d911 OP_CHECKSIG",
            "desc": "pk(04bf9e6991cdf12e100e70d9b9570b3c9d87d28dbe133f01816ee839d9c8993cc2a4ec2c751b72d333730415f894923a1d8db6643a259fe8f1af5aeb41d1a2d911)#yd82ak7c",
            "hex": "4104bf9e6991cdf12e100e70d9b9570b3c9d87d28dbe133f01816ee839d9c8993cc2a4ec2c751b72d333730415f894923a1d8db6643a259fe8f1af5aeb41d1a2d911ac",
            "type": "pubkey"
          }
        }
      ],
      "hex": "01000000010000000000000000000000000000000000000000000000000000000000000000ffffffff0804ffff001d02a401ffffffff0100f2052a01000000434104bf9e6991cdf12e100e70d9b9570b3c9d87d28dbe133f01816ee839d9c8993cc2a4ec2c751b72d333730415f894923a1d8db6643a259fe8f1af5aeb41d1a2d911ac00000000"
    }
  ]
}