{
  "hash": "000000003e31f902e3512f075ff97c5ffb9bfd1fd9dbe560b08f37214a89e705",
  "confirmations": 45230,
  "height": 7868,
  "version": 1,
  "versionHex": "00000001",
  "merkleroot": "85f6b2eeb6576cc7f1b43294cbae69999b4ef1a1d1bafe6da356bdd15df12cb8",
  "time": 1237365984,
  "mediantime": 1237361920,
  "nonce": 3142473258,
  "bits": "1d00ffff",
  "difficulty": 1,
  "chainwork": "00000000000000000000000000000000000000000000000000001ebd1ebd1ebd",
  "nTx": 1,
  "previousblockhash": "00000000238e8850d1e9cfc702e5ca08e8ad95500bc811f1103a70c61d8cc26c",
  "nextblockhash": "00000000502a828323486f0c50c163f950f29631fdf3b3e3c46fca18a148ff4e",
  "strippedsize": 216,
  "size": 216,
  "weight": 864,
  "tx": [
    {
      "txid": "85f6b2eeb6576cc7f1b43294cbae69999b4ef1a1d1bafe6da356bdd15df12cb8",
      "hash": "85f6b2eeb6576cc7f1b43294cbae69999b4ef1a1d1bafe6da356bdd15df12cb8",
      "version": 1,
      "size": 135,
      "vsize": 135,
      "weight": 540,
      "locktime": 0,
      "vin": [
        {
          "coinbase": "04ffff001d020607",
          "sequence": 4294967295
        }
      ],
      "vout": [
        {
          "value": 50.0,
          "n": 0,
          "scriptPubKey": {
            "asm": "04d90827e12fb9e08a5d79add11be4b060c4e300fde640d8a7da38673135d6d6efa5618c2abd5b44dff73ae1c36b2688a8cda649d366f7c1c6be23150848bfa157 OP_CHECKSIG",
            "desc": "pk(04d90827e12fb9e08a5d79add11be4b060c4e300fde640d8a7da38673135d6d6efa5618c2abd5b44dff73ae1c36b2688a8cda649d366f7c1c6be23150848bfa157)#ljr273du",
            "hex": "4104d90827e12fb9e08a5d79add11be4b060c4e300fde640d8a7da38673135d6d6efa5618c2abd5b44dff73ae1c36b2688a8cda649d366f7c1c6be23150848bfa157ac",
            "type": "pubkey"
          }
        }
      ],
      "hex": "01000000010000000000000000000000000000000000000000000000000000000000000000ffffffff0804ffff001d020607ffffffff0100f2052a01000000434104d90827e12fb9e08a5d79add11be4b060c4e300fde640d8a7da38673135d6d6efa5618c2abd5b44dff73ae1c36b2688a8cda649d366f7c1c6be23150848bfa157ac00000000"
    }
  ]
}