{
  "hash": "0000000042cceee1092a2084d091be35de333b20953e96057ffeaf27ca558aa8",
  "confirmations": 46826,
  "height": 6272,
  "version": 1,
  "versionHex": "00000001",
  "merkleroot": "7cd7e74ef22fa12a9ae6c68aa591f7ba2ae02eb7eb59d68ef03263354edd7619",
  "time": 1236149786,
  "mediantime": 1236147368,
  "nonce": 28344291,
  "bits": "1d00ffff",
  "difficulty": 1,
  "chainwork": "0000000000000000000000000000000000000000000000000000188118811881",
  "nTx": 1,
  "previousblockhash": "000000003ce99726d00dddc80aa52e7d8f2d4a9d6f531055cae0011637041719",
  "nextblockhash": "000000007dea7650bc2fa9b3da3aca691b286b4227ca4a3cc8d430c988457636",
  "strippedsize": 216,
  "size": 216,
  "weight": 864,
  "tx": [
    {
      "txid": "7cd7e74ef22fa12a9ae6c68aa591f7ba2ae02eb7eb59d68ef03263354edd7619",
      "hash": "7cd7e74ef22fa12a9ae6c68aa591f7ba2ae02eb7eb59d68ef03263354edd7619",
      "version": 1,
      "size": 135,
      "vsize": 135,
      "weight": 540,
      "locktime": 0,
      "vin": [
        {
          "coinbase": "04ffff001d02470a",
          "sequence": 4294967295
        }
      ],
      "vout": [
        {
          "value": 50.0,
          "n": 0,
          "scriptPubKey": {
            "asm": "0491343fd96d089009063fe12621d59e2196bb6a011e94655e60d02b442dfb8e4976a6e547b9ceda818b26b019f4a5f8fc164f606e9fa44a416e480ebf3b8ccb58 OP_CHECKSIG",
            "desc": "pk(0491343fd96d089009063fe12621d59e2196bb6a011e94655e60d02b442dfb8e4976a6e547b9ceda818b26b019f4a5f8fc164f606e9fa44a416e480ebf3b8ccb58)#ulvagvp3",
            "hex": "410491343fd96d089009063fe12621d59e2196bb6a011e94655e60d02b442dfb8e4976a6e547b9ceda818b26b019f4a5f8fc164f606e9fa44a416e480ebf3b8ccb58ac",
            "type": "pubkey"
          }
        }
      ],
      "hex": "01000000010000000000000000000000000000000000000000000000000000000000000000ffffffff0804ffff001d02470affffffff0100f2052a0100000043410491343fd96d089009063fe12621d59e2196bb6a011e94655e60d02b442dfb8e4976a6e547b9ceda818b26b019f4a5f8fc164f606e9fa44a416e480ebf3b8ccb58ac00000000"
    }
  ]
}