{
  "hash": "000000003480b0828d65e242d60eaef79b3ad0f9d716d5eab08f2ff1ca35c9ba",
  "confirmations": 49936,
  "height": 3162,
  "version": 1,
  "versionHex": "00000001",
  "merkleroot": "40bf70b42a00cf1b1684c127c78045423d2ba215a0b6c81508c38af894fd223b",
  "time": 1233874520,
  "mediantime": 1233871603,
  "nonce": 1433388059,
  "bits": "1d00ffff",
  "difficulty": 1,
  "chainwork": "00000000000000000000000000000000000000000000000000000c5b0c5b0c5b",
  "nTx": 1,
  "previousblockhash": "00000000f6b35310402b04383538314fb8a9399c4add35d0927a8d3807157d1b",
  "nextblockhash": "000000007296fe3afdeadd1832712870b7083c73af6fb116dc3db86aa02db446",
  "strippedsize": 216,
  "size": 216,
  "weight": 864,
  "tx": [
    {
      "txid": "40bf70b42a00cf1b1684c127c78045423d2ba215a0b6c81508c38af894fd223b",
      "hash": "40bf70b42a00cf1b1684c127c78045423d2ba215a0b6c81508c38af894fd223b",
      "version": 1,
      "size": 135,
      "vsize": 135,
      "weight": 540,
      "locktime": 0,
      "vin": [
        {
          "coinbase": "04ffff001d022d02",
          "sequence": 4294967295
        }
      ],
      "vout": [
        {
          "value": 50.0,
          "n": 0,
          "scriptPubKey": {
            "asm": "04d47e1a91504a5ef94dbb52989e4f935e9852deb5fa5c4f9f49431e6f82774002dd5dff0f6cb43b556f864d75458dbd1490c45b495fd768bb0cd5d28079db1060 OP_CHECKSIG",
            "desc": "pk(04d47e1a91504a5ef94dbb52989e4f935e9852deb5fa5c4f9f49431e6f82774002dd5dff0f6cb43b556f864d75458dbd1490c45b495fd768bb0cd5d28079db1060)#x88c9pn9",
            "hex": "4104d47e1a91504a5ef94dbb52989e4f935e9852deb5fa5c4f9f49431e6f82774002dd5dff0f6cb43b556f864d75458dbd1490c45b495fd768bb0cd5d28079db1060ac",
            "type": "pubkey"
          }
        }
      ],
      "hex": "01000000010000000000000000000000000000000000000000000000000000000000000000ffffffff0804ffff001d022d02ffffffff0100f2052a01000000434104d47e1a91504a5ef94dbb52989e4f935e9852deb5fa5c4f9f49431e6f82774002dd5dff0f6cb43b556f864d75458dbd1490c45b495fd768bb0cd5d28079db1060ac00000000"
    }
  ]
}