{
  "hash": "00000000d46ffd1af121ae116adaba61d44fbb8ce96d75143016583052715b33",
  "confirmations": 51114,
  "height": 1984,
  "version": 1,
  "versionHex": "00000001",
  "merkleroot": "ea46046920e65fab584923c6753f838e383ad3619367dcbd6de250251d0b3e32",
  "time": 1233032710,
  "mediantime": 1233029617,
  "nonce": 664470563,
  "bits": "1d00ffff",
  "difficulty": 1,
  "chainwork": "000000000000000000000000000000000000000000000000000007c107c107c1",
  "nTx": 1,
  "previousblockhash": "00000000f13dc76883b73f677d3a63b85f75f580e404a390da41db64885d8ca2",
  "nextblockhash": "00000000c7b984d0429b8e9ffa044a776932944d3761eedee5d8b7bedb7a1eb7",
  "strippedsize": 216,
  "size": 216,
  "weight": 864,
  "tx": [
    {
      "txid": "ea46046920e65fab584923c6753f838e383ad3619367dcbd6de250251d0b3e32",
      "hash": "ea46046920e65fab584923c6753f838e383ad3619367dcbd6de250251d0b3e32",
      "version": 1,
      "size": 135,
      "vsize": 135,
      "weight": 540,
      "locktime": 0,
      "vin": [
        {
          "coinbase": "04ffff001d023c01",
          "sequence": 4294967295
        }
      ],
      "vout": [
        {
          "value": 50.0,
          "n": 0,
          "scriptPubKey": {
            "asm": "049d6f0e49023ec930aeb8af9e802a8dcd0bfdc802c0f6efe3c9e168046f33b20e27fcc9ddfc49431c4877b3be52c2b966dc08620fe6a4b4923ccc0482ddc11f4c OP_CHECKSIG",
            "desc": "pk(049d6f0e49023ec930aeb8af9e802a8dcd0bfdc802c0f6efe3c9e168046f33b20e27fcc9ddfc49431c4877b3be52c2b966dc08620fe6a4b4923ccc0482ddc11f4c)#5p6vr4qy",
            "hex": "41049d6f0e49023ec930aeb8af9e802a8dcd0bfdc802c0f6efe3c9e168046f33b20e27fcc9ddfc49431c4877b3be52c2b966dc08620fe6a4b4923ccc0482ddc11f4cac",
            "type": "pubkey"
          }
        }
      ],
      "hex": "01000000010000000000000000000000000000000000000000000000000000000000000000ffffffff0804ffff001d023c01ffffffff0100f2052a010000004341049d6f0e49023ec930aeb8af9e802a8dcd0bfdc802c0f6efe3c9e168046f33b20e27fcc9ddfc49431c4877b3be52c2b966dc08620fe6a4b4923ccc0482ddc11f4cac00000000"
    }
  ]
}