{
  "hash": "00000000341cd13c5f45a36e832f66c2f6692d1aa1e7ef12f61aa326fbab6b42",
  "confirmations": 44237,
  "height": 8861,
  "version": 1,
  "versionHex": "00000001",
  "merkleroot": "68973d0baf9022e875ecffa2ead1965b919f95c92bd09904a7aecf098dc641bd",
  "time": 1238145047,
  "mediantime": 1238141379,
  "nonce": 525423408,
  "bits": "1d00ffff",
  "difficulty": 1,
  "chainwork": "0000000000000000000000000000000000000000000000000000229e229e229e",
  "nTx": 1,
  "previousblockhash": "0000000057a7e9fdd3568d83a3055f74d3f38934c5da5acb7924a495223915ad",
  "nextblockhash": "0000000062d3153a7f3a61ba5d7e94af4f2f297f69c8613b8b088125b57e1221",
  "strippedsize": 216,
  "size": 216,
  "weight": 864,
  "tx": [
    {
      "txid": "68973d0baf9022e875ecffa2ead1965b919f95c92bd09904a7aecf098dc641bd",
      "hash": "68973d0baf9022e875ecffa2ead1965b919f95c92bd09904a7aecf098dc641bd",
      "version": 1,
      "size": 135,
      "vsize": 135,
      "weight": 540,
      "locktime": 0,
      "vin": [
        {
          "coinbase": "04ffff001d02b003",
          "sequence": 4294967295
        }
      ],
      "vout": [
        {
          "value": 50.0,
          "n": 0,
          "scriptPubKey": {
            "asm": "04628510cbdde4c9abb753d1f014a2ccf2dff02d0ff2fc4f719472563bef61c5c9b449651031f8400681f3136b561e847b8f174c59e9d924047477e63bd57d40bc OP_CHECKSIG",
            "desc": "pk(04628510cbdde4c9abb753d1f014a2ccf2dff02d0ff2fc4f719472563bef61c5c9b449651031f8400681f3136b561e847b8f174c59e9d924047477e63bd57d40bc)#gyetd375",
            "hex": "4104628510cbdde4c9abb753d1f014a2ccf2dff02d0ff2fc4f719472563bef61c5c9b449651031f8400681f3136b561e847b8f174c59e9d924047477e63bd57d40bcac",
            "type": "pubkey"
          }
        }
      ],
      "hex": "01000000010000000000000000000000000000000000000000000000000000000000000000ffffffff0804ffff001d02b003ffffffff0100f2052a01000000434104628510cbdde4c9abb753d1f014a2ccf2dff02d0ff2fc4f719472563bef61c5c9b449651031f8400681f3136b561e847b8f174c59e9d924047477e63bd57d40bcac00000000"
    }
  ]
}