{
  "hash": "0000000010ba65d0044209335b49136db602c977f675444752d29cb0e05cac1d",
  "confirmations": 43133,
  "height": 9965,
  "version": 1,
  "versionHex": "00000001",
  "merkleroot": "076a891bb98958f162d6a5d518963a8ce01cad7a691a0d71e8bb0ff9825ae2d9",
  "time": 1238967054,
  "mediantime": 1238962671,
  "nonce": 2363548215,
  "bits": "1d00ffff",
  "difficulty": 1,
  "chainwork": "000000000000000000000000000000000000000000000000000026ee26ee26ee",
  "nTx": 1,
  "previousblockhash": "000000007eb86c59d99cec735679e8b12d6ddd1fae49f0e19a6b18bdd2929916",
  "nextblockhash": "00000000d3fd563fa90b2564190cb1b1babad4348ca6cac6ef7fb05045aebd0d",
  "strippedsize": 216,
  "size": 216,
  "weight": 864,
  "tx": [
    {
      "txid": "076a891bb98958f162d6a5d518963a8ce01cad7a691a0d71e8bb0ff9825ae2d9",
      "hash": "076a891bb98958f162d6a5d518963a8ce01cad7a691a0d71e8bb0ff9825ae2d9",
      "version": 1,
      "size": 135,
      "vsize": 135,
      "weight": 540,
      "locktime": 0,
      "vin": [
        {
          "coinbase": "04ffff001d02e702",
          "sequence": 4294967295
        }
      ],
      "vout": [
        {
          "value": 50.0,
          "n": 0,
          "scriptPubKey": {
            "asm": "0479d8c1841b4aa3f73a315e6e05fe7134b4fe5c0a9f408c915d15b64ed2af829dbc0759cb7762b4e2809b3fe847978a2ff602d1e775e73ffc5618f4e00a5b1174 OP_CHECKSIG",
            "desc": "pk(0479d8c1841b4aa3f73a315e6e05fe7134b4fe5c0a9f408c915d15b64ed2af829dbc0759cb7762b4e2809b3fe847978a2ff602d1e775e73ffc5618f4e00a5b1174)#3p37hr7h",
            "hex": "410479d8c1841b4aa3f73a315e6e05fe7134b4fe5c0a9f408c915d15b64ed2af829dbc0759cb7762b4e2809b3fe847978a2ff602d1e775e73ffc5618f4e00a5b1174ac",
            "type": "pubkey"
          }
        }
      ],
      "hex": "01000000010000000000000000000000000000000000000000000000000000000000000000ffffffff0804ffff001d02e702ffffffff0100f2052a0100000043410479d8c1841b4aa3f73a315e6e05fe7134b4fe5c0a9f408c915d15b64ed2af829dbc0759cb7762b4e2809b3fe847978a2ff602d1e775e73ffc5618f4e00a5b1174ac00000000"
    }
  ]
}