{
  "hash": "00000000c29e1e6c446ec15222612204ba124b158bb7fe29b078e072ce99532f",
  "confirmations": 45090,
  "height": 8008,
  "version": 1,
  "versionHex": "00000001",
  "merkleroot": "19833e4307093ba007d485b88b6f4dd0bd4df146fa4affc95ae4b577d715803f",
  "time": 1237466350,
  "mediantime": 1237463154,
  "nonce": 3777078792,
  "bits": "1d00ffff",
  "difficulty": 1,
  "chainwork": "00000000000000000000000000000000000000000000000000001f491f491f49",
  "nTx": 1,
  "previousblockhash": "00000000b51a20c3e4739b6415bf169adf4024795f2e266a5ce8182156354ae7",
  "nextblockhash": "00000000df48b9441e9902f7aa3e961c31a41c283e0509bce61de523426d6e7d",
  "strippedsize": 216,
  "size": 216,
  "weight": 864,
  "tx": [
    {
      "txid": "19833e4307093ba007d485b88b6f4dd0bd4df146fa4affc95ae4b577d715803f",
      "hash": "19833e4307093ba007d485b88b6f4dd0bd4df146fa4affc95ae4b577d715803f",
      "version": 1,
      "size": 135,
      "vsize": 135,
      "weight": 540,
      "locktime": 0,
      "vin": [
        {
          "coinbase": "04ffff001d028d09",
          "sequence": 4294967295
        }
      ],
      "vout": [
        {
          "value": 50.0,
          "n": 0,
          "scriptPubKey": {
            "asm": "045e5192653c7ce2e2673aa03b18dc3ed1a09d0dc99d3511fb23c7e5b9ab9435c931a778b9b811488c24f3a76a3b45b66a4169d9425fd9a5609f7dd0bcc329229e OP_CHECKSIG",
            "desc": "pk(045e5192653c7ce2e2673aa03b18dc3ed1a09d0dc99d3511fb23c7e5b9ab9435c931a778b9b811488c24f3a76a3b45b66a4169d9425fd9a5609f7dd0bcc329229e)#30nczfuk",
            "hex": "41045e5192653c7ce2e2673aa03b18dc3ed1a09d0dc99d3511fb23c7e5b9ab9435c931a778b9b811488c24f3a76a3b45b66a4169d9425fd9a5609f7dd0bcc329229eac",
            "type": "pubkey"
          }
        }
      ],
      "hex": "01000000010000000000000000000000000000000000000000000000000000000000000000ffffffff0804ffff001d028d09ffffffff0100f2052a010000004341045e5192653c7ce2e2673aa03b18dc3ed1a09d0dc99d3511fb23c7e5b9ab9435c931a778b9b811488c24f3a76a3b45b66a4169d9425fd9a5609f7dd0bcc329229eac00000000"
    }
  ]
}