{
  "hash": "00000000955f59fd9c3b10139325c0a802630ec1c7bbf308b754465a3485e737",
  "confirmations": 45532,
  "height": 7566,
  "version": 1,
  "versionHex": "00000001",
  "merkleroot": "8207570f60b138fc51ed6c71ad3a1ec9018e14ff9c33e375ab4751ed2e3eefa8",
  "time": 1237147764,
  "mediantime": 1237144968,
  "nonce": 43692268,
  "bits": "1d00ffff",
  "difficulty": 1,
  "chainwork": "00000000000000000000000000000000000000000000000000001d8f1d8f1d8f",
  "nTx": 1,
  "previousblockhash": "000000000193bb03ff72944c76f93beffe06056d4dbd7c86d2e5e1569429cffa",
  "nextblockhash": "00000000eaf6b1e6934d877f9e1a8370208498f604a4ce1695c96c78f987c077",
  "strippedsize": 216,
  "size": 216,
  "weight": 864,
  "tx": [
    {
      "txid": "8207570f60b138fc51ed6c71ad3a1ec9018e14ff9c33e375ab4751ed2e3eefa8",
      "hash": "8207570f60b138fc51ed6c71ad3a1ec9018e14ff9c33e375ab4751ed2e3eefa8",
      "version": 1,
      "size": 135,
      "vsize": 135,
      "weight": 540,
      "locktime": 0,
      "vin": [
        {
          "coinbase": "04ffff001d02e900",
          "sequence": 4294967295
        }
      ],
      "vout": [
        {
          "value": 50.0,
          "n": 0,
          "scriptPubKey": {
            "asm": "04506514de20adcfa5581fba297e1fac7642966f2fb9d16d0c0ddc8fcb72dd1b62e25e0845052db8858555503bfa68e3c3af60929f12a9b6a507924cd0f5accb34 OP_CHECKSIG",
            "desc": "pk(04506514de20adcfa5581fba297e1fac7642966f2fb9d16d0c0ddc8fcb72dd1b62e25e0845052db8858555503bfa68e3c3af60929f12a9b6a507924cd0f5accb34)#7sacp0zw",
            "hex": "4104506514de20adcfa5581fba297e1fac7642966f2fb9d16d0c0ddc8fcb72dd1b62e25e0845052db8858555503bfa68e3c3af60929f12a9b6a507924cd0f5accb34ac",
            "type": "pubkey"
          }
        }
      ],
      "hex": "01000000010000000000000000000000000000000000000000000000000000000000000000ffffffff0804ffff001d02e900ffffffff0100f2052a01000000434104506514de20adcfa5581fba297e1fac7642966f2fb9d16d0c0ddc8fcb72dd1b62e25e0845052db8858555503bfa68e3c3af60929f12a9b6a507924cd0f5accb34ac00000000"
    }
  ]
}