{
  "hash": "00000000c5f0a54f70b48b274672069a0732eb43d21b501e313b318ea8bafbf1",
  "confirmations": 45167,
  "height": 7931,
  "version": 1,
  "versionHex": "00000001",
  "merkleroot": "acfe4e8d0cc25197df639b1dcc319ee56bae4b6c90687aeda6885119e92a04a7",
  "time": 1237414851,
  "mediantime": 1237412019,
  "nonce": 1474446856,
  "bits": "1d00ffff",
  "difficulty": 1,
  "chainwork": "00000000000000000000000000000000000000000000000000001efc1efc1efc",
  "nTx": 1,
  "previousblockhash": "00000000654662ec8d93db4fcfc8d006e71113de5a3275087bdb592984864c24",
  "nextblockhash": "00000000559fbd392a1af1026f4024f7d39dcaea79e16dc06c28a24d16bda20a",
  "strippedsize": 216,
  "size": 216,
  "weight": 864,
  "tx": [
    {
      "txid": "acfe4e8d0cc25197df639b1dcc319ee56bae4b6c90687aeda6885119e92a04a7",
      "hash": "acfe4e8d0cc25197df639b1dcc319ee56bae4b6c90687aeda6885119e92a04a7",
      "version": 1,
      "size": 135,
      "vsize": 135,
      "weight": 540,
      "locktime": 0,
      "vin": [
        {
          "coinbase": "04ffff001d022208",
          "sequence": 4294967295
        }
      ],
      "vout": [
        {
          "value": 50.0,
          "n": 0,
          "scriptPubKey": {
            "asm": "048535f3b03438003e36bc2f26cc0f9d3776e7c528083e1c577d4e47b6c0e0e1d2dbb4196e8508ce2081ad99bcb67a9be7b8260047d9af7e10f68d514529d2ffd8 OP_CHECKSIG",
            "desc": "pk(048535f3b03438003e36bc2f26cc0f9d3776e7c528083e1c577d4e47b6c0e0e1d2dbb4196e8508ce2081ad99bcb67a9be7b8260047d9af7e10f68d514529d2ffd8)#r3f3k9wq",
            "hex": "41048535f3b03438003e36bc2f26cc0f9d3776e7c528083e1c577d4e47b6c0e0e1d2dbb4196e8508ce2081ad99bcb67a9be7b8260047d9af7e10f68d514529d2ffd8ac",
            "type": "pubkey"
          }
        }
      ],
      "hex": "01000000010000000000000000000000000000000000000000000000000000000000000000ffffffff0804ffff001d022208ffffffff0100f2052a010000004341048535f3b03438003e36bc2f26cc0f9d3776e7c528083e1c577d4e47b6c0e0e1d2dbb4196e8508ce2081ad99bcb67a9be7b8260047d9af7e10f68d514529d2ffd8ac00000000"
    }
  ]
}