{
  "hash": "000000008b875c8c5d25fcf66aca787e77572f2e57f5cbdf593d769d064b18f1",
  "confirmations": 51941,
  "height": 1157,
  "version": 1,
  "versionHex": "00000001",
  "merkleroot": "18bc005c25165868ecf5baa4f810c5f4d45ff3feb855f177758e0e06f084bec9",
  "time": 1232466217,
  "mediantime": 1232461912,
  "nonce": 2911469103,
  "bits": "1d00ffff",
  "difficulty": 1,
  "chainwork": "0000000000000000000000000000000000000000000000000000048604860486",
  "nTx": 1,
  "previousblockhash": "00000000bec4948cf315910ff844cd28f553afac320755783ed0f2e2f0aa2382",
  "nextblockhash": "000000002c868f123dc8b3b490665dd6f519a23b651b5c50d84f1279b64a44f0",
  "strippedsize": 216,
  "size": 216,
  "weight": 864,
  "tx": [
    {
      "txid": "18bc005c25165868ecf5baa4f810c5f4d45ff3feb855f177758e0e06f084bec9",
      "hash": "18bc005c25165868ecf5baa4f810c5f4d45ff3feb855f177758e0e06f084bec9",
      "version": 1,
      "size": 135,
      "vsize": 135,
      "weight": 540,
      "locktime": 0,
      "vin": [
        {
          "coinbase": "04ffff001d02f007",
          "sequence": 4294967295
        }
      ],
      "vout": [
        {
          "value": 50.0,
          "n": 0,
          "scriptPubKey": {
            "asm": "04def92fd0c80e29f5da63c0c3a0b9a84487dd94829b5089c738d288c2b5f5f93f3d2e72fb8816a1bb3120a8438149ee0393edd59de6e4689445829e91d31d39fe OP_CHECKSIG",
            "desc": "pk(04def92fd0c80e29f5da63c0c3a0b9a84487dd94829b5089c738d288c2b5f5f93f3d2e72fb8816a1bb3120a8438149ee0393edd59de6e4689445829e91d31d39fe)#t6s0ja6r",
            "hex": "4104def92fd0c80e29f5da63c0c3a0b9a84487dd94829b5089c738d288c2b5f5f93f3d2e72fb8816a1bb3120a8438149ee0393edd59de6e4689445829e91d31d39feac",
            "type": "pubkey"
          }
        }
      ],
      "hex": "01000000010000000000000000000000000000000000000000000000000000000000000000ffffffff0804ffff001d02f007ffffffff0100f2052a01000000434104def92fd0c80e29f5da63c0c3a0b9a84487dd94829b5089c738d288c2b5f5f93f3d2e72fb8816a1bb3120a8438149ee0393edd59de6e4689445829e91d31d39feac00000000"
    }
  ]
}