{
  "hash": "0000000086212d898444f6464d2ebfb9c6aacae1d54abdb22c484eefe276b008",
  "confirmations": 51131,
  "height": 1967,
  "version": 1,
  "versionHex": "00000001",
  "merkleroot": "27deffe7202f9d47237328899d64d9c6288dd94b75d13a2bd7f615da80c5f058",
  "time": 1233021449,
  "mediantime": 1233018927,
  "nonce": 7559234,
  "bits": "1d00ffff",
  "difficulty": 1,
  "chainwork": "000000000000000000000000000000000000000000000000000007b007b007b0",
  "nTx": 2,
  "previousblockhash": "00000000e9c874793faeed229d340019de32e49f31c74f96b609d7dd987a65e8",
  "nextblockhash": "00000000896f1f96404bc9c357dce2d73599c0bb3ebce920099b85a2c8c83312",
  "strippedsize": 641,
  "size": 641,
  "weight": 2564,
  "tx": [
    {
      "txid": "8052432ab8464076acdbc36b762582e59c7175bc110fe6f297c473fb4bbacf77",
      "hash": "8052432ab8464076acdbc36b762582e59c7175bc110fe6f297c473fb4bbacf77",
      "version": 1,
      "size": 134,
      "vsize": 134,
      "weight": 536,
      "locktime": 0,
      "vin": [
        {
          "coinbase": "04ffff001d0102",
          "sequence": 4294967295
        }
      ],
      "vout": [
        {
          "value": 50.0,
          "n": 0,
          "scriptPubKey": {
            "asm": "04966acaaefb9689dc022e3111de67877955a73269d9e06c8574a7719cfa726d654265f12f4e02664d35af6fbf395c5f0e4d39baba83d64d83fa189719a81064d1 OP_CHECKSIG",
            "desc": "pk(04966acaaefb9689dc022e3111de67877955a73269d9e06c8574a7719cfa726d654265f12f4e02664d35af6fbf395c5f0e4d39baba83d64d83fa189719a81064d1)#qvkht7dt",
            "hex": "4104966acaaefb9689dc022e3111de67877955a73269d9e06c8574a7719cfa726d654265f12f4e02664d35af6fbf395c5f0e4d39baba83d64d83fa189719a81064d1ac",
            "type": "pubkey"
          }
        }
      ],
      "hex": "01000000010000000000000000000000000000000000000000000000000000000000000000ffffffff0704ffff001d0102ffffffff0100f2052a01000000434104966acaaefb9689dc022e3111de67877955a73269d9e06c8574a7719cfa726d654265f12f4e02664d35af6fbf395c5f0e4d39baba83d64d83fa189719a81064d1ac00000000"
    },
    {
      "txid": "a4318436c7edba2aa3db89614f2a5f32880e3883b91593707e1d089b42ae1fb7",
      "hash": "a4318436c7edba2aa3db89614f2a5f32880e3883b91593707e1d089b42ae1fb7",
      "version": 1,
      "size": 426,
      "vsize": 426,
      "weight": 1704,
      "locktime": 0,
      "vin": [
        {
          "txid": "b5355a2d200545d846274473b9545521f11de962a88fd8b07f356707440a4467",
          "vout": 0,
          "scriptSig": {
            "asm": "30440220610056e43b2b16d9fffecb9c64c4ae0c4d1c501ed58b691a6484a7fcf5e156db0220395d2e75db9c70aab8facf46ec197f9e7d4aeee8ccd5f0d5f5f01e473a13d098[ALL]",
            "hex": "4730440220610056e43b2b16d9fffecb9c64c4ae0c4d1c501ed58b691a6484a7fcf5e156db0220395d2e75db9c70aab8facf46ec197f9e7d4aeee8ccd5f0d5f5f01e473a13d09801"
          },
          "sequence": 4294967295
        },
        {
          "txid": "1c6861aa429c0c8b3a5be978160a2b5671c5cbb1d8194bc8d54fa2da154f3d8c",
          "vout": 0,
          "scriptSig": {
            "asm": "3045022100e460be8a4175e53fc1b4fd37e225a3efe0e7bfbf5d01b51f83f68adf01dc094902202a0e3a1424d63def00caa311b7ecdae63bafe77f99ee6cadce8f3ded52c98f3c[ALL]",
            "hex": "483045022100e460be8a4175e53fc1b4fd37e225a3efe0e7bfbf5d01b51f83f68adf01dc094902202a0e3a1424d63def00caa311b7ecdae63bafe77f99ee6cadce8f3ded52c98f3c01"
          },
          "sequence": 4294967295
        },
        {
          "txid": "d5035b6bbfb810ff2a8166fc0a1081de0343e6c54415821564d7aa155fca89ea",
          "vout": 0,
          "scriptSig": {
            "asm": "3044022027bf8021569b623046c5ed2a05fac1cd18809a5bfbdbb1cf51b9ea256c91eefd0220678a611e7a006be791189126d9ba8bd104e9a4697cec5d69f9b43a2eaa63e0e3[ALL]",
            "hex": "473044022027bf8021569b623046c5ed2a05fac1cd18809a5bfbdbb1cf51b9ea256c91eefd0220678a611e7a006be791189126d9ba8bd104e9a4697cec5d69f9b43a2eaa63e0e301"
          },
          "sequence": 4294967295
        }
      ],
      "vout": [
        {
          "value": 150.0,
          "n": 0,
          "scriptPubKey": {
            "asm": "0455e8f7cb1dabec2bcd34a899c2c11e03d2b68b6e4bd1f967897e2756c8a0b58633d112a7951415a01749104d7c41dbf682be98304ec7910ad8816d171e4c17ac OP_CHECKSIG",
            "desc": "pk(0455e8f7cb1dabec2bcd34a899c2c11e03d2b68b6e4bd1f967897e2756c8a0b58633d112a7951415a01749104d7c41dbf682be98304ec7910ad8816d171e4c17ac)#n8ktr4nj",
            "hex": "410455e8f7cb1dabec2bcd34a899c2c11e03d2b68b6e4bd1f967897e2756c8a0b58633d112a7951415a01749104d7c41dbf682be98304ec7910ad8816d171e4c17acac",
            "type": "pubkey"
          }
        }
      ],
      "fee": 0.0,
      "hex": "010000000367440a440767357fb0d88fa862e91df1215554b973442746d84505202d5a35b500000000484730440220610056e43b2b16d9fffecb9c64c4ae0c4d1c501ed58b691a6484a7fcf5e156db0220395d2e75db9c70aab8facf46ec197f9e7d4aeee8ccd5f0d5f5f01e473a13d09801ffffffff8c3d4f15daa24fd5c84b19d8b1cbc571562b0a1678e95b3a8b0c9c42aa61681c0000000049483045022100e460be8a4175e53fc1b4fd37e225a3efe0e7bfbf5d01b51f83f68adf01dc094902202a0e3a1424d63def00caa311b7ecdae63bafe77f99ee6cadce8f3ded52c98f3c01ffffffffea89ca5f15aad76415821544c5e64303de81100afc66812aff10b8bf6b5b03d50000000048473044022027bf8021569b623046c5ed2a05fac1cd18809a5bfbdbb1cf51b9ea256c91eefd0220678a611e7a006be791189126d9ba8bd104e9a4697cec5d69f9b43a2eaa63e0e301ffffffff0100d6117e0300000043410455e8f7cb1dabec2bcd34a899c2c11e03d2b68b6e4bd1f967897e2756c8a0b58633d112a7951415a01749104d7c41dbf682be98304ec7910ad8816d171e4c17acac00000000"
    }
  ]
}