{
  "hash": "0000000071d2f3b1c050f917f1db7be528d79249170c2adc63b2986ac707ed31",
  "confirmations": 43287,
  "height": 9811,
  "version": 1,
  "versionHex": "00000001",
  "merkleroot": "b0e10c9541a2520b2ae532953393c2e73d4c6694cda991ef2a9297dcf9115546",
  "time": 1238861425,
  "mediantime": 1238860378,
  "nonce": 37934249,
  "bits": "1d00ffff",
  "difficulty": 1,
  "chainwork": "0000000000000000000000000000000000000000000000000000265426542654",
  "nTx": 1,
  "previousblockhash": "00000000277fe7c8ed7c09df84178baebe06c01c6c364c79428e6c8e1923b4e8",
  "nextblockhash": "00000000f8e01ecbcf496ba1f1d365537f51633b37a6d7cb5cd37c458830804e",
  "strippedsize": 215,
  "size": 215,
  "weight": 860,
  "tx": [
    {
      "txid": "b0e10c9541a2520b2ae532953393c2e73d4c6694cda991ef2a9297dcf9115546",
      "hash": "b0e10c9541a2520b2ae532953393c2e73d4c6694cda991ef2a9297dcf9115546",
      "version": 1,
      "size": 134,
      "vsize": 134,
      "weight": 536,
      "locktime": 0,
      "vin": [
        {
          "coinbase": "04ffff001d010d",
          "sequence": 4294967295
        }
      ],
      "vout": [
        {
          "value": 50.0,
          "n": 0,
          "scriptPubKey": {
            "asm": "045e4c1fe80e92b742dbf2dac679b6cfb4ad6f066618bbefc6a7bc89bb1ec2ab04a9ae72b83ac1b754884a6c341cc85b9830f1a11fa57a530f24ba2b269cc18f63 OP_CHECKSIG",
            "desc": "pk(045e4c1fe80e92b742dbf2dac679b6cfb4ad6f066618bbefc6a7bc89bb1ec2ab04a9ae72b83ac1b754884a6c341cc85b9830f1a11fa57a530f24ba2b269cc18f63)#xjpxq4gg",
            "hex": "41045e4c1fe80e92b742dbf2dac679b6cfb4ad6f066618bbefc6a7bc89bb1ec2ab04a9ae72b83ac1b754884a6c341cc85b9830f1a11fa57a530f24ba2b269cc18f63ac",
            "type": "pubkey"
          }
        }
      ],
      "hex": "01000000010000000000000000000000000000000000000000000000000000000000000000ffffffff0704ffff001d010dffffffff0100f2052a010000004341045e4c1fe80e92b742dbf2dac679b6cfb4ad6f066618bbefc6a7bc89bb1ec2ab04a9ae72b83ac1b754884a6c341cc85b9830f1a11fa57a530f24ba2b269cc18f63ac00000000"
    }
  ]
}