{
  "hash": "00000000a77f496fc7522e7a815866ea83b3986bbfcc95f9a9eed746b3637756",
  "confirmations": 45633,
  "height": 7465,
  "version": 1,
  "versionHex": "00000001",
  "merkleroot": "ed186b42cead0911d10881c4919fd9366949d152c3e49892676bf7bc746d7cdf",
  "time": 1237073337,
  "mediantime": 1237070346,
  "nonce": 2787885086,
  "bits": "1d00ffff",
  "difficulty": 1,
  "chainwork": "00000000000000000000000000000000000000000000000000001d2a1d2a1d2a",
  "nTx": 1,
  "previousblockhash": "00000000733c164446584d635b7b387c92187fbf5655dfd4fb5e33f7dc1b21ad",
  "nextblockhash": "000000009563ae9864265a9e26fdde16a3472feb911bcf3026248e0f94a79391",
  "strippedsize": 215,
  "size": 215,
  "weight": 860,
  "tx": [
    {
      "txid": "ed186b42cead0911d10881c4919fd9366949d152c3e49892676bf7bc746d7cdf",
      "hash": "ed186b42cead0911d10881c4919fd9366949d152c3e49892676bf7bc746d7cdf",
      "version": 1,
      "size": 134,
      "vsize": 134,
      "weight": 536,
      "locktime": 0,
      "vin": [
        {
          "coinbase": "04ffff001d0169",
          "sequence": 4294967295
        }
      ],
      "vout": [
        {
          "value": 50.0,
          "n": 0,
          "scriptPubKey": {
            "asm": "0446f2746e6095cc7042523a27c604a585135c25a9928a9f5c4474fa374c906561e9769532533c3c84c7501d2110f8f05add893196f25eff08015637d078ee0b01 OP_CHECKSIG",
            "desc": "pk(0446f2746e6095cc7042523a27c604a585135c25a9928a9f5c4474fa374c906561e9769532533c3c84c7501d2110f8f05add893196f25eff08015637d078ee0b01)#af8l80k7",
            "hex": "410446f2746e6095cc7042523a27c604a585135c25a9928a9f5c4474fa374c906561e9769532533c3c84c7501d2110f8f05add893196f25eff08015637d078ee0b01ac",
            "type": "pubkey"
          }
        }
      ],
      "hex": "01000000010000000000000000000000000000000000000000000000000000000000000000ffffffff0704ffff001d0169ffffffff0100f2052a0100000043410446f2746e6095cc7042523a27c604a585135c25a9928a9f5c4474fa374c906561e9769532533c3c84c7501d2110f8f05add893196f25eff08015637d078ee0b01ac00000000"
    }
  ]
}