{
  "hash": "00000000992fc36cb87322f89071bf6003a91f9ebf64b5c33caf6f0a792f8224",
  "confirmations": 50456,
  "height": 2642,
  "version": 1,
  "versionHex": "00000001",
  "merkleroot": "69e36660c4b107b7dee4d6fd88209b650d26374ed08280735795e5e412c9ff5f",
  "time": 1233521499,
  "mediantime": 1233517869,
  "nonce": 3710688794,
  "bits": "1d00ffff",
  "difficulty": 1,
  "chainwork": "00000000000000000000000000000000000000000000000000000a530a530a53",
  "nTx": 1,
  "previousblockhash": "00000000cd1414191afd437fec70c9fd32447210f2aba1dad11ec32416913f46",
  "nextblockhash": "00000000aa5fb4e7d3cf35707a05efd16f219d85b2430bb537c56059eb6a5575",
  "strippedsize": 216,
  "size": 216,
  "weight": 864,
  "tx": [
    {
      "txid": "69e36660c4b107b7dee4d6fd88209b650d26374ed08280735795e5e412c9ff5f",
      "hash": "69e36660c4b107b7dee4d6fd88209b650d26374ed08280735795e5e412c9ff5f",
      "version": 1,
      "size": 135,
      "vsize": 135,
      "weight": 540,
      "locktime": 0,
      "vin": [
        {
          "coinbase": "04ffff001d02c803",
          "sequence": 4294967295
        }
      ],
      "vout": [
        {
          "value": 50.0,
          "n": 0,
          "scriptPubKey": {
            "asm": "04faf542e0b6113f8a0348b6bf014b8bae546c4297094872b87557972801aeb3d08954511b6bdf3df787bd56fa79c3a6064afb8ef19c53866395cc2db85698579b OP_CHECKSIG",
            "desc": "pk(04faf542e0b6113f8a0348b6bf014b8bae546c4297094872b87557972801aeb3d08954511b6bdf3df787bd56fa79c3a6064afb8ef19c53866395cc2db85698579b)#pz6680nu",
            "hex": "4104faf542e0b6113f8a0348b6bf014b8bae546c4297094872b87557972801aeb3d08954511b6bdf3df787bd56fa79c3a6064afb8ef19c53866395cc2db85698579bac",
            "type": "pubkey"
          }
        }
      ],
      "hex": "01000000010000000000000000000000000000000000000000000000000000000000000000ffffffff0804ffff001d02c803ffffffff0100f2052a01000000434104faf542e0b6113f8a0348b6bf014b8bae546c4297094872b87557972801aeb3d08954511b6bdf3df787bd56fa79c3a6064afb8ef19c53866395cc2db85698579bac00000000"
    }
  ]
}