{
  "hash": "00000000921e00a5a6d80d8ccf201db757941594e98afb128c18b5b19f63f4e1",
  "confirmations": 45412,
  "height": 7686,
  "version": 1,
  "versionHex": "00000001",
  "merkleroot": "5e704a0467e5d6c9ef38cb5ca7ae1599ea2e99c71741a6ddead1162593ce3ceb",
  "time": 1237228584,
  "mediantime": 1237224519,
  "nonce": 280505142,
  "bits": "1d00ffff",
  "difficulty": 1,
  "chainwork": "00000000000000000000000000000000000000000000000000001e071e071e07",
  "nTx": 1,
  "previousblockhash": "00000000038394ae9db16d211b90453c249291f3a0bf5567d60b3447d6353a8b",
  "nextblockhash": "00000000f6873d893b86cbadc256db177cc7fa6f7c970dc2d9fdda7d5575b27d",
  "strippedsize": 216,
  "size": 216,
  "weight": 864,
  "tx": [
    {
      "txid": "5e704a0467e5d6c9ef38cb5ca7ae1599ea2e99c71741a6ddead1162593ce3ceb",
      "hash": "5e704a0467e5d6c9ef38cb5ca7ae1599ea2e99c71741a6ddead1162593ce3ceb",
      "version": 1,
      "size": 135,
      "vsize": 135,
      "weight": 540,
      "locktime": 0,
      "vin": [
        {
          "coinbase": "04ffff001d02e303",
          "sequence": 4294967295
        }
      ],
      "vout": [
        {
          "value": 50.0,
          "n": 0,
          "scriptPubKey": {
            "asm": "042fccae247cd6599fe2546b8fa7b318dd8b9cec1454f55941fe7c93fc3fac1f1037d2aa326f40c04b174d7f2b2afba692f4f7adba2eca80b3b19a19158f2adef8 OP_CHECKSIG",
            "desc": "pk(042fccae247cd6599fe2546b8fa7b318dd8b9cec1454f55941fe7c93fc3fac1f1037d2aa326f40c04b174d7f2b2afba692f4f7adba2eca80b3b19a19158f2adef8)#vnaqqq9v",
            "hex": "41042fccae247cd6599fe2546b8fa7b318dd8b9cec1454f55941fe7c93fc3fac1f1037d2aa326f40c04b174d7f2b2afba692f4f7adba2eca80b3b19a19158f2adef8ac",
            "type": "pubkey"
          }
        }
      ],
      "hex": "01000000010000000000000000000000000000000000000000000000000000000000000000ffffffff0804ffff001d02e303ffffffff0100f2052a010000004341042fccae247cd6599fe2546b8fa7b318dd8b9cec1454f55941fe7c93fc3fac1f1037d2aa326f40c04b174d7f2b2afba692f4f7adba2eca80b3b19a19158f2adef8ac00000000"
    }
  ]
}