{
  "hash": "0000000048ef72a0db69d3fa9679d6a2ab5d71eb80d043089ea8fa423fafdc57",
  "confirmations": 43303,
  "height": 9795,
  "version": 1,
  "versionHex": "00000001",
  "merkleroot": "6de09c7344c5a8878ff71c014b0a37f8b37db04db3f55259e2c4ed9803779967",
  "time": 1238853165,
  "mediantime": 1238850105,
  "nonce": 102678621,
  "bits": "1d00ffff",
  "difficulty": 1,
  "chainwork": "0000000000000000000000000000000000000000000000000000264426442644",
  "nTx": 1,
  "previousblockhash": "000000007b93b95654ad03260436f9b27c308df11093af38c73d2693637026a1",
  "nextblockhash": "000000000ca08faf922f8cd81502787e39cc3c8669ed202e6bb4149264d9de21",
  "strippedsize": 216,
  "size": 216,
  "weight": 864,
  "tx": [
    {
      "txid": "6de09c7344c5a8878ff71c014b0a37f8b37db04db3f55259e2c4ed9803779967",
      "hash": "6de09c7344c5a8878ff71c014b0a37f8b37db04db3f55259e2c4ed9803779967",
      "version": 1,
      "size": 135,
      "vsize": 135,
      "weight": 540,
      "locktime": 0,
      "vin": [
        {
          "coinbase": "04ffff001d021401",
          "sequence": 4294967295
        }
      ],
      "vout": [
        {
          "value": 50.0,
          "n": 0,
          "scriptPubKey": {
            "asm": "04946e0abf016a624acccc8b78a6538ccfc45a7c516d66e454365ea33f2ea9dda3d3fa0a3a2deea8cb1bde181a27a51653ebe88514b52be2f1faf3f2b88ec036f0 OP_CHECKSIG",
            "desc": "pk(04946e0abf016a624acccc8b78a6538ccfc45a7c516d66e454365ea33f2ea9dda3d3fa0a3a2deea8cb1bde181a27a51653ebe88514b52be2f1faf3f2b88ec036f0)#ygnqqwld",
            "hex": "4104946e0abf016a624acccc8b78a6538ccfc45a7c516d66e454365ea33f2ea9dda3d3fa0a3a2deea8cb1bde181a27a51653ebe88514b52be2f1faf3f2b88ec036f0ac",
            "type": "pubkey"
          }
        }
      ],
      "hex": "01000000010000000000000000000000000000000000000000000000000000000000000000ffffffff0804ffff001d021401ffffffff0100f2052a01000000434104946e0abf016a624acccc8b78a6538ccfc45a7c516d66e454365ea33f2ea9dda3d3fa0a3a2deea8cb1bde181a27a51653ebe88514b52be2f1faf3f2b88ec036f0ac00000000"
    }
  ]
}