{
  "hash": "00000000d1ba8570c7da8d9cb11df7ecaad7b9850a1b72a0eb15eb7c9c0b50d2",
  "confirmations": 51985,
  "height": 1113,
  "version": 1,
  "versionHex": "00000001",
  "merkleroot": "69ceb440612bada4c165f664ab0718c4fd84f8231213c1632f824c10863a4a8b",
  "time": 1232431889,
  "mediantime": 1232427802,
  "nonce": 17923699,
  "bits": "1d00ffff",
  "difficulty": 1,
  "chainwork": "0000000000000000000000000000000000000000000000000000045a045a045a",
  "nTx": 1,
  "previousblockhash": "00000000dd74d572772cafdb8c9f7a7ce14209605db76747843d811c91e61475",
  "nextblockhash": "00000000120dd526a6846eab1988c60f679c72a11e48f05235d3646829916b7c",
  "strippedsize": 216,
  "size": 216,
  "weight": 864,
  "tx": [
    {
      "txid": "69ceb440612bada4c165f664ab0718c4fd84f8231213c1632f824c10863a4a8b",
      "hash": "69ceb440612bada4c165f664ab0718c4fd84f8231213c1632f824c10863a4a8b",
      "version": 1,
      "size": 135,
      "vsize": 135,
      "weight": 540,
      "locktime": 0,
      "vin": [
        {
          "coinbase": "04ffff001d024301",
          "sequence": 4294967295
        }
      ],
      "vout": [
        {
          "value": 50.0,
          "n": 0,
          "scriptPubKey": {
            "asm": "0475c2b16f7db4b72f23e9a94adb6a707686b18b99d5c95d56bf9a257d9ab0564ada613a99cfbfcc1c1e38b295c3298b3c8734f0e6895b0fd2caff7fd0256f9293 OP_CHECKSIG",
            "desc": "pk(0475c2b16f7db4b72f23e9a94adb6a707686b18b99d5c95d56bf9a257d9ab0564ada613a99cfbfcc1c1e38b295c3298b3c8734f0e6895b0fd2caff7fd0256f9293)#cz3junyw",
            "hex": "410475c2b16f7db4b72f23e9a94adb6a707686b18b99d5c95d56bf9a257d9ab0564ada613a99cfbfcc1c1e38b295c3298b3c8734f0e6895b0fd2caff7fd0256f9293ac",
            "type": "pubkey"
          }
        }
      ],
      "hex": "01000000010000000000000000000000000000000000000000000000000000000000000000ffffffff0804ffff001d024301ffffffff0100f2052a0100000043410475c2b16f7db4b72f23e9a94adb6a707686b18b99d5c95d56bf9a257d9ab0564ada613a99cfbfcc1c1e38b295c3298b3c8734f0e6895b0fd2caff7fd0256f9293ac00000000"
    }
  ]
}