{
  "hash": "00000000f9951538ba14b27d91a73a555eb06c0a7ac2c05f6a9eacc0b75565b1",
  "confirmations": 45757,
  "height": 7341,
  "version": 1,
  "versionHex": "00000001",
  "merkleroot": "af9f519f2a999ad81e57ae2bef46dbb11cf9d4a22e3e27c70a99344e0d36e377",
  "time": 1236977966,
  "mediantime": 1236974184,
  "nonce": 2184100104,
  "bits": "1d00ffff",
  "difficulty": 1,
  "chainwork": "00000000000000000000000000000000000000000000000000001cae1cae1cae",
  "nTx": 1,
  "previousblockhash": "0000000002f68be966d73de0212c2b7b0f1184c99d700b076dcfda31edb88d0c",
  "nextblockhash": "0000000044719eedcaccde32c6bb5c290df4c883f0a76147a232aa64d8170bbc",
  "strippedsize": 216,
  "size": 216,
  "weight": 864,
  "tx": [
    {
      "txid": "af9f519f2a999ad81e57ae2bef46dbb11cf9d4a22e3e27c70a99344e0d36e377",
      "hash": "af9f519f2a999ad81e57ae2bef46dbb11cf9d4a22e3e27c70a99344e0d36e377",
      "version": 1,
      "size": 135,
      "vsize": 135,
      "weight": 540,
      "locktime": 0,
      "vin": [
        {
          "coinbase": "04ffff001d025708",
          "sequence": 4294967295
        }
      ],
      "vout": [
        {
          "value": 50.0,
          "n": 0,
          "scriptPubKey": {
            "asm": "046d448d90ded523fc3b94fcc61085c9b5dfb099db39ba2642e9c9557761ca2e5b00753b2f7cbd1377fc798c60d3ee966d4e3dd0664de7ce28788f85726e416749 OP_CHECKSIG",
            "desc": "pk(046d448d90ded523fc3b94fcc61085c9b5dfb099db39ba2642e9c9557761ca2e5b00753b2f7cbd1377fc798c60d3ee966d4e3dd0664de7ce28788f85726e416749)#y5za4k7a",
            "hex": "41046d448d90ded523fc3b94fcc61085c9b5dfb099db39ba2642e9c9557761ca2e5b00753b2f7cbd1377fc798c60d3ee966d4e3dd0664de7ce28788f85726e416749ac",
            "type": "pubkey"
          }
        }
      ],
      "hex": "01000000010000000000000000000000000000000000000000000000000000000000000000ffffffff0804ffff001d025708ffffffff0100f2052a010000004341046d448d90ded523fc3b94fcc61085c9b5dfb099db39ba2642e9c9557761ca2e5b00753b2f7cbd1377fc798c60d3ee966d4e3dd0664de7ce28788f85726e416749ac00000000"
    }
  ]
}