{
  "hash": "00000000e6a02f1b36c1d4a7faec94be737c1fef22df42cc3a33b19e13b3dceb",
  "confirmations": 46617,
  "height": 6481,
  "version": 1,
  "versionHex": "00000001",
  "merkleroot": "24b16346cfe2d7b95e10c140470b5bd45a507e7e0f8d282368ccb5b4727c255d",
  "time": 1236316866,
  "mediantime": 1236312004,
  "nonce": 404692905,
  "bits": "1d00ffff",
  "difficulty": 1,
  "chainwork": "0000000000000000000000000000000000000000000000000000195219521952",
  "nTx": 1,
  "previousblockhash": "00000000abd5f5b6f9c105607d83d51a6c9a2407b734521272ad3e5910ad6858",
  "nextblockhash": "000000008f3d4381c02a83d069df55b39200d7e8d539ccfcf258f61e07fa5db8",
  "strippedsize": 216,
  "size": 216,
  "weight": 864,
  "tx": [
    {
      "txid": "24b16346cfe2d7b95e10c140470b5bd45a507e7e0f8d282368ccb5b4727c255d",
      "hash": "24b16346cfe2d7b95e10c140470b5bd45a507e7e0f8d282368ccb5b4727c255d",
      "version": 1,
      "size": 135,
      "vsize": 135,
      "weight": 540,
      "locktime": 0,
      "vin": [
        {
          "coinbase": "04ffff001d021b0b",
          "sequence": 4294967295
        }
      ],
      "vout": [
        {
          "value": 50.0,
          "n": 0,
          "scriptPubKey": {
            "asm": "047ad8362f4cefce905c06dfb301ba41c543c46e6da66655c624e9aa19e358691f8432efa14a1650d07c230caa89264ce1c656e78f0e34f3e1fbb81f2b62cca118 OP_CHECKSIG",
            "desc": "pk(047ad8362f4cefce905c06dfb301ba41c543c46e6da66655c624e9aa19e358691f8432efa14a1650d07c230caa89264ce1c656e78f0e34f3e1fbb81f2b62cca118)#lsuegsne",
            "hex": "41047ad8362f4cefce905c06dfb301ba41c543c46e6da66655c624e9aa19e358691f8432efa14a1650d07c230caa89264ce1c656e78f0e34f3e1fbb81f2b62cca118ac",
            "type": "pubkey"
          }
        }
      ],
      "hex": "01000000010000000000000000000000000000000000000000000000000000000000000000ffffffff0804ffff001d021b0bffffffff0100f2052a010000004341047ad8362f4cefce905c06dfb301ba41c543c46e6da66655c624e9aa19e358691f8432efa14a1650d07c230caa89264ce1c656e78f0e34f3e1fbb81f2b62cca118ac00000000"
    }
  ]
}