{
  "hash": "00000000594397a29ea81a2a61f94299b6005d26c1ebe942236fb91649fd7929",
  "confirmations": 50549,
  "height": 2549,
  "version": 1,
  "versionHex": "00000001",
  "merkleroot": "3e07c7db865a179850aaf81d3beda061d58d2337560690c41e9dc485ed7af770",
  "time": 1233452942,
  "mediantime": 1233446920,
  "nonce": 1873626929,
  "bits": "1d00ffff",
  "difficulty": 1,
  "chainwork": "000000000000000000000000000000000000000000000000000009f609f609f6",
  "nTx": 1,
  "previousblockhash": "00000000d2101078511eef00bc4ef45bf9617cfa36440a6d9b5a0bc15f77fa40",
  "nextblockhash": "000000007f682ac5a58caa156e06a87ef5944a165ee0b33edbfc4cee0cdd5549",
  "strippedsize": 216,
  "size": 216,
  "weight": 864,
  "tx": [
    {
      "txid": "3e07c7db865a179850aaf81d3beda061d58d2337560690c41e9dc485ed7af770",
      "hash": "3e07c7db865a179850aaf81d3beda061d58d2337560690c41e9dc485ed7af770",
      "version": 1,
      "size": 135,
      "vsize": 135,
      "weight": 540,
      "locktime": 0,
      "vin": [
        {
          "coinbase": "04ffff001d02d701",
          "sequence": 4294967295
        }
      ],
      "vout": [
        {
          "value": 50.0,
          "n": 0,
          "scriptPubKey": {
            "asm": "040aff67a5d876fca2a627955370fee994a4637b7592f7d549daaf4f0c871199ac7fe230e7a1f0d50316e729892aa19c26a5e00cacb1522a376c5e2c2865020fb6 OP_CHECKSIG",
            "desc": "pk(040aff67a5d876fca2a627955370fee994a4637b7592f7d549daaf4f0c871199ac7fe230e7a1f0d50316e729892aa19c26a5e00cacb1522a376c5e2c2865020fb6)#2ct96h8w",
            "hex": "41040aff67a5d876fca2a627955370fee994a4637b7592f7d549daaf4f0c871199ac7fe230e7a1f0d50316e729892aa19c26a5e00cacb1522a376c5e2c2865020fb6ac",
            "type": "pubkey"
          }
        }
      ],
      "hex": "01000000010000000000000000000000000000000000000000000000000000000000000000ffffffff0804ffff001d02d701ffffffff0100f2052a010000004341040aff67a5d876fca2a627955370fee994a4637b7592f7d549daaf4f0c871199ac7fe230e7a1f0d50316e729892aa19c26a5e00cacb1522a376c5e2c2865020fb6ac00000000"
    }
  ]
}