{
  "hash": "0000000027c2488e2510d1acf4369787784fa20ee084c258b58d9fbd43802b5e",
  "confirmations": 51781,
  "height": 12,
  "version": 1,
  "versionHex": "00000001",
  "merkleroot": "3b96bb7e197ef276b85131afd4a09c059cc368133a26ca04ebffb0ab4f75c8b8",
  "time": 1231474888,
  "mediantime": 1231472369,
  "nonce": 208296255,
  "bits": "1d00ffff",
  "difficulty": 1,
  "chainwork": "0000000000000000000000000000000000000000000000000000000d000d000d",
  "nTx": 1,
  "previousblockhash": "0000000097be56d606cdd9c54b04d4747e957d3608abe69198c661f2add73073",
  "nextblockhash": "000000005c51de2031a895adc145ee2242e919a01c6d61fb222a54a54b4d3089",
  "strippedsize": 215,
  "size": 215,
  "weight": 860,
  "tx": [
    {
      "txid": "3b96bb7e197ef276b85131afd4a09c059cc368133a26ca04ebffb0ab4f75c8b8",
      "hash": "3b96bb7e197ef276b85131afd4a09c059cc368133a26ca04ebffb0ab4f75c8b8",
      "version": 1,
      "size": 134,
      "vsize": 134,
      "weight": 536,
      "locktime": 0,
      "vin": [
        {
          "coinbase": "04ffff001d010c",
          "sequence": 4294967295
        }
      ],
      "vout": [
        {
          "value": 50.0,
          "n": 0,
          "scriptPubKey": {
            "asm": "0478ebe2c28660cd2fa1ba17cc04e58d6312679005a7cad1fd56a7b7f4630bd700bcdb84a888a43fe1a2738ea1f3d2301d02faef357e8a5c35a706e4ae0352a6ad OP_CHECKSIG",
            "desc": "pk(0478ebe2c28660cd2fa1ba17cc04e58d6312679005a7cad1fd56a7b7f4630bd700bcdb84a888a43fe1a2738ea1f3d2301d02faef357e8a5c35a706e4ae0352a6ad)#4hepg3dx",
            "hex": "410478ebe2c28660cd2fa1ba17cc04e58d6312679005a7cad1fd56a7b7f4630bd700bcdb84a888a43fe1a2738ea1f3d2301d02faef357e8a5c35a706e4ae0352a6adac",
            "type": "pubkey"
          }
        }
      ],
      "hex": "01000000010000000000000000000000000000000000000000000000000000000000000000ffffffff0704ffff001d010cffffffff0100f2052a0100000043410478ebe2c28660cd2fa1ba17cc04e58d6312679005a7cad1fd56a7b7f4630bd700bcdb84a888a43fe1a2738ea1f3d2301d02faef357e8a5c35a706e4ae0352a6adac00000000"
    }
  ]
}