{
  "hash": "00000000604643cb8e376315a85d139613aaa211d2d216ef9772c66c85c54cd6",
  "confirmations": 46396,
  "height": 6702,
  "version": 1,
  "versionHex": "00000001",
  "merkleroot": "c67595cccbfecf02854cc84301c93f08fb0798f9af96a5286fc74b0d2c0ef29c",
  "time": 1236484936,
  "mediantime": 1236480112,
  "nonce": 3827206144,
  "bits": "1d00ffff",
  "difficulty": 1,
  "chainwork": "00000000000000000000000000000000000000000000000000001a2f1a2f1a2f",
  "nTx": 1,
  "previousblockhash": "000000003fd1bbe55cf76942175b13d725f8673722da819040844e8ba3019bcc",
  "nextblockhash": "000000000b64b7049faa7af2b20184180ed815252b194688dd435676129a6325",
  "strippedsize": 216,
  "size": 216,
  "weight": 864,
  "tx": [
    {
      "txid": "c67595cccbfecf02854cc84301c93f08fb0798f9af96a5286fc74b0d2c0ef29c",
      "hash": "c67595cccbfecf02854cc84301c93f08fb0798f9af96a5286fc74b0d2c0ef29c",
      "version": 1,
      "size": 135,
      "vsize": 135,
      "weight": 540,
      "locktime": 0,
      "vin": [
        {
          "coinbase": "04ffff001d020b07",
          "sequence": 4294967295
        }
      ],
      "vout": [
        {
          "value": 50.0,
          "n": 0,
          "scriptPubKey": {
            "asm": "0467921f0f4a7d9eae0b3f84f0f16c5f1ec782f1554e80cf680e9ae3cfb21de97277dc12c9fa3277e929e0fb71bf2a56d9a44ebba4cacca95e76445c251d26c0a4 OP_CHECKSIG",
            "desc": "pk(0467921f0f4a7d9eae0b3f84f0f16c5f1ec782f1554e80cf680e9ae3cfb21de97277dc12c9fa3277e929e0fb71bf2a56d9a44ebba4cacca95e76445c251d26c0a4)#dzg4gtcd",
            "hex": "410467921f0f4a7d9eae0b3f84f0f16c5f1ec782f1554e80cf680e9ae3cfb21de97277dc12c9fa3277e929e0fb71bf2a56d9a44ebba4cacca95e76445c251d26c0a4ac",
            "type": "pubkey"
          }
        }
      ],
      "hex": "01000000010000000000000000000000000000000000000000000000000000000000000000ffffffff0804ffff001d020b07ffffffff0100f2052a0100000043410467921f0f4a7d9eae0b3f84f0f16c5f1ec782f1554e80cf680e9ae3cfb21de97277dc12c9fa3277e929e0fb71bf2a56d9a44ebba4cacca95e76445c251d26c0a4ac00000000"
    }
  ]
}