{
  "hash": "00000000d58c922af6935587b7b1aa4f1cc21c315c98f613fb7856ce4daa4ed7",
  "confirmations": 45577,
  "height": 7521,
  "version": 1,
  "versionHex": "00000001",
  "merkleroot": "863721ff47fd52cce5672cca9b7b596ec3de04611df8724cbacb13014a674605",
  "time": 1237112873,
  "mediantime": 1237108155,
  "nonce": 35151396,
  "bits": "1d00ffff",
  "difficulty": 1,
  "chainwork": "00000000000000000000000000000000000000000000000000001d621d621d62",
  "nTx": 1,
  "previousblockhash": "00000000107f090343d1e22f8a191f60bbc13158944d1c954a11900b92b4c1f9",
  "nextblockhash": "00000000acba2569ca2b05b382b3dd2c0245f632742eb2cde3f626c175f43787",
  "strippedsize": 216,
  "size": 216,
  "weight": 864,
  "tx": [
    {
      "txid": "863721ff47fd52cce5672cca9b7b596ec3de04611df8724cbacb13014a674605",
      "hash": "863721ff47fd52cce5672cca9b7b596ec3de04611df8724cbacb13014a674605",
      "version": 1,
      "size": 135,
      "vsize": 135,
      "weight": 540,
      "locktime": 0,
      "vin": [
        {
          "coinbase": "04ffff001d024c01",
          "sequence": 4294967295
        }
      ],
      "vout": [
        {
          "value": 50.0,
          "n": 0,
          "scriptPubKey": {
            "asm": "049e907cef1f87da35d728ec1211ffdb7bb3350c5878765fe078b757ef95e2381c40734a1f8c21daf700bbb42356d2848f5a79a92d5498970479844116d4e90948 OP_CHECKSIG",
            "desc": "pk(049e907cef1f87da35d728ec1211ffdb7bb3350c5878765fe078b757ef95e2381c40734a1f8c21daf700bbb42356d2848f5a79a92d5498970479844116d4e90948)#n8mc8trp",
            "hex": "41049e907cef1f87da35d728ec1211ffdb7bb3350c5878765fe078b757ef95e2381c40734a1f8c21daf700bbb42356d2848f5a79a92d5498970479844116d4e90948ac",
            "type": "pubkey"
          }
        }
      ],
      "hex": "01000000010000000000000000000000000000000000000000000000000000000000000000ffffffff0804ffff001d024c01ffffffff0100f2052a010000004341049e907cef1f87da35d728ec1211ffdb7bb3350c5878765fe078b757ef95e2381c40734a1f8c21daf700bbb42356d2848f5a79a92d5498970479844116d4e90948ac00000000"
    }
  ]
}