{
  "hash": "000000009300b70e71451244de470a3fc53f58bab347292149d6b375ccb85eb4",
  "confirmations": 46352,
  "height": 6746,
  "version": 1,
  "versionHex": "00000001",
  "merkleroot": "e3ad6dbf9e51406e530c691f97259099e6318d4b520efb414ae3319f72323c58",
  "time": 1236516599,
  "mediantime": 1236513173,
  "nonce": 897770754,
  "bits": "1d00ffff",
  "difficulty": 1,
  "chainwork": "00000000000000000000000000000000000000000000000000001a5b1a5b1a5b",
  "nTx": 1,
  "previousblockhash": "0000000037b6e2d6c3b3e9c6eaea5f89a1d1fdc3ac19302ed5da81f8c9c1d247",
  "nextblockhash": "00000000c3665928b750dbcd90eccfa48974c95a48ac2e4b19159341ce870d51",
  "strippedsize": 216,
  "size": 216,
  "weight": 864,
  "tx": [
    {
      "txid": "e3ad6dbf9e51406e530c691f97259099e6318d4b520efb414ae3319f72323c58",
      "hash": "e3ad6dbf9e51406e530c691f97259099e6318d4b520efb414ae3319f72323c58",
      "version": 1,
      "size": 135,
      "vsize": 135,
      "weight": 540,
      "locktime": 0,
      "vin": [
        {
          "coinbase": "04ffff001d020d08",
          "sequence": 4294967295
        }
      ],
      "vout": [
        {
          "value": 50.0,
          "n": 0,
          "scriptPubKey": {
            "asm": "04e6a71e316c4de21788782a6e0e1ed118396a8a97271f8d88dbc4656f0a27683cbf17f06c29be62e948097d15027ee517f73f21925f7760ea284a4422feb1b79a OP_CHECKSIG",
            "desc": "pk(04e6a71e316c4de21788782a6e0e1ed118396a8a97271f8d88dbc4656f0a27683cbf17f06c29be62e948097d15027ee517f73f21925f7760ea284a4422feb1b79a)#uwd2ee3m",
            "hex": "4104e6a71e316c4de21788782a6e0e1ed118396a8a97271f8d88dbc4656f0a27683cbf17f06c29be62e948097d15027ee517f73f21925f7760ea284a4422feb1b79aac",
            "type": "pubkey"
          }
        }
      ],
      "hex": "01000000010000000000000000000000000000000000000000000000000000000000000000ffffffff0804ffff001d020d08ffffffff0100f2052a01000000434104e6a71e316c4de21788782a6e0e1ed118396a8a97271f8d88dbc4656f0a27683cbf17f06c29be62e948097d15027ee517f73f21925f7760ea284a4422feb1b79aac00000000"
    }
  ]
}