{
  "hash": "00000000444dd3fa2b3604a8b9059656122387679b1aede0c43e1c3efdb41a60",
  "confirmations": 51014,
  "height": 2084,
  "version": 1,
  "versionHex": "00000001",
  "merkleroot": "c230c57aaa1cc8f7e451e1653375d5a5f5e261f2dace5004690be7c83cb64b30",
  "time": 1233127451,
  "mediantime": 1233122770,
  "nonce": 350482230,
  "bits": "1d00ffff",
  "difficulty": 1,
  "chainwork": "0000000000000000000000000000000000000000000000000000082508250825",
  "nTx": 1,
  "previousblockhash": "000000006ee9fdd942b1357e5c480465caf5389123b631f9d5710a9b6dc75e2e",
  "nextblockhash": "00000000b574c7d2a83ac3ebe9fb668fad4fda4e79b03d4035281625f771d9d9",
  "strippedsize": 216,
  "size": 216,
  "weight": 864,
  "tx": [
    {
      "txid": "c230c57aaa1cc8f7e451e1653375d5a5f5e261f2dace5004690be7c83cb64b30",
      "hash": "c230c57aaa1cc8f7e451e1653375d5a5f5e261f2dace5004690be7c83cb64b30",
      "version": 1,
      "size": 135,
      "vsize": 135,
      "weight": 540,
      "locktime": 0,
      "vin": [
        {
          "coinbase": "04ffff001d027403",
          "sequence": 4294967295
        }
      ],
      "vout": [
        {
          "value": 50.0,
          "n": 0,
          "scriptPubKey": {
            "asm": "04fefa6c1a2c81753b16d4993e94b78a6c64b7b4f7f9acab1fad4b297c9d7e333194f51b75897bb8976008e06878b1ad319dd4ea55b87735271816b33d2551db9f OP_CHECKSIG",
            "desc": "pk(04fefa6c1a2c81753b16d4993e94b78a6c64b7b4f7f9acab1fad4b297c9d7e333194f51b75897bb8976008e06878b1ad319dd4ea55b87735271816b33d2551db9f)#3hrsyruk",
            "hex": "4104fefa6c1a2c81753b16d4993e94b78a6c64b7b4f7f9acab1fad4b297c9d7e333194f51b75897bb8976008e06878b1ad319dd4ea55b87735271816b33d2551db9fac",
            "type": "pubkey"
          }
        }
      ],
      "hex": "01000000010000000000000000000000000000000000000000000000000000000000000000ffffffff0804ffff001d027403ffffffff0100f2052a01000000434104fefa6c1a2c81753b16d4993e94b78a6c64b7b4f7f9acab1fad4b297c9d7e333194f51b75897bb8976008e06878b1ad319dd4ea55b87735271816b33d2551db9fac00000000"
    }
  ]
}