{
  "hash": "0000000018a71b22d226ea6e365546a3f13dd1c617fece6e9fa1438e243f4799",
  "confirmations": 48203,
  "height": 4895,
  "version": 1,
  "versionHex": "00000001",
  "merkleroot": "b10fe9991e53fce06c2424d7877629e436e03b592f73aa9b3b226a64fc8240b2",
  "time": 1235067300,
  "mediantime": 1235063817,
  "nonce": 3863997495,
  "bits": "1d00ffff",
  "difficulty": 1,
  "chainwork": "0000000000000000000000000000000000000000000000000000132013201320",
  "nTx": 1,
  "previousblockhash": "00000000460150663a7be86746e54faa470ebebdb19308213d9734d7136711c7",
  "nextblockhash": "000000000de025f43ce2d03f6c2d7cc406f8956ea273e10fc6266def7ffe308a",
  "strippedsize": 216,
  "size": 216,
  "weight": 864,
  "tx": [
    {
      "txid": "b10fe9991e53fce06c2424d7877629e436e03b592f73aa9b3b226a64fc8240b2",
      "hash": "b10fe9991e53fce06c2424d7877629e436e03b592f73aa9b3b226a64fc8240b2",
      "version": 1,
      "size": 135,
      "vsize": 135,
      "weight": 540,
      "locktime": 0,
      "vin": [
        {
          "coinbase": "04ffff001d029405",
          "sequence": 4294967295
        }
      ],
      "vout": [
        {
          "value": 50.0,
          "n": 0,
          "scriptPubKey": {
            "asm": "04219f6e5fff832c9ef3708fdb393908c1ac0e5e53eda4c04730cb04db8a3801df01296f69db8c111cfc4072c5db6c941fb3ea5eb7475eddb2cafb591361fb5c66 OP_CHECKSIG",
            "desc": "pk(04219f6e5fff832c9ef3708fdb393908c1ac0e5e53eda4c04730cb04db8a3801df01296f69db8c111cfc4072c5db6c941fb3ea5eb7475eddb2cafb591361fb5c66)#zvtnfxf6",
            "hex": "4104219f6e5fff832c9ef3708fdb393908c1ac0e5e53eda4c04730cb04db8a3801df01296f69db8c111cfc4072c5db6c941fb3ea5eb7475eddb2cafb591361fb5c66ac",
            "type": "pubkey"
          }
        }
      ],
      "hex": "01000000010000000000000000000000000000000000000000000000000000000000000000ffffffff0804ffff001d029405ffffffff0100f2052a01000000434104219f6e5fff832c9ef3708fdb393908c1ac0e5e53eda4c04730cb04db8a3801df01296f69db8c111cfc4072c5db6c941fb3ea5eb7475eddb2cafb591361fb5c66ac00000000"
    }
  ]
}