{
  "hash": "000000005f37a5ab3901a47f87e289b5557583498d9877ffaa8a149c7aa7fae7",
  "confirmations": 43546,
  "height": 9552,
  "version": 1,
  "versionHex": "00000001",
  "merkleroot": "95470e902351226b6b31c6b374d9ce80b0c760208b5338da11e996d9f562b076",
  "time": 1238665638,
  "mediantime": 1238660698,
  "nonce": 2613173556,
  "bits": "1d00ffff",
  "difficulty": 1,
  "chainwork": "0000000000000000000000000000000000000000000000000000255125512551",
  "nTx": 1,
  "previousblockhash": "00000000b100054b79ba744e0012d995acfe77b737c01fc6039cc5b47c257a48",
  "nextblockhash": "00000000007772bc65a8a3c3e9a83bec0729967cea649a6e99c7a4221872a292",
  "strippedsize": 216,
  "size": 216,
  "weight": 864,
  "tx": [
    {
      "txid": "95470e902351226b6b31c6b374d9ce80b0c760208b5338da11e996d9f562b076",
      "hash": "95470e902351226b6b31c6b374d9ce80b0c760208b5338da11e996d9f562b076",
      "version": 1,
      "size": 135,
      "vsize": 135,
      "weight": 540,
      "locktime": 0,
      "vin": [
        {
          "coinbase": "04ffff001d022606",
          "sequence": 4294967295
        }
      ],
      "vout": [
        {
          "value": 50.0,
          "n": 0,
          "scriptPubKey": {
            "asm": "04e591df1e4021860bfe8349f2118e228d99e74b645f04071ffd4d1d548c9794f0dc60ca91b937f1ae4189f6f0f0fc58196bf95bd8343f3c8d6545bd5fa6481636 OP_CHECKSIG",
            "desc": "pk(04e591df1e4021860bfe8349f2118e228d99e74b645f04071ffd4d1d548c9794f0dc60ca91b937f1ae4189f6f0f0fc58196bf95bd8343f3c8d6545bd5fa6481636)#j47wp5ud",
            "hex": "4104e591df1e4021860bfe8349f2118e228d99e74b645f04071ffd4d1d548c9794f0dc60ca91b937f1ae4189f6f0f0fc58196bf95bd8343f3c8d6545bd5fa6481636ac",
            "type": "pubkey"
          }
        }
      ],
      "hex": "01000000010000000000000000000000000000000000000000000000000000000000000000ffffffff0804ffff001d022606ffffffff0100f2052a01000000434104e591df1e4021860bfe8349f2118e228d99e74b645f04071ffd4d1d548c9794f0dc60ca91b937f1ae4189f6f0f0fc58196bf95bd8343f3c8d6545bd5fa6481636ac00000000"
    }
  ]
}