{
  "hash": "000000009eff3993bd5eba722577a82303ddc124ddacd4c26fdfc0e9a0c5b075",
  "confirmations": 43866,
  "height": 9232,
  "version": 1,
  "versionHex": "00000001",
  "merkleroot": "15f390738fbcaf7bb92c5b5aef0e4bf20a8d32e6bd74ccaf637731efe9110d44",
  "time": 1238421953,
  "mediantime": 1238418834,
  "nonce": 3834964247,
  "bits": "1d00ffff",
  "difficulty": 1,
  "chainwork": "0000000000000000000000000000000000000000000000000000241124112411",
  "nTx": 1,
  "previousblockhash": "00000000363a7cce4960510203e132500997d956fe1b86af154a168d869a1022",
  "nextblockhash": "000000001d3201277b4cc4f31e23db0b5aea7b3140c939476d5cff98b0c0ed77",
  "strippedsize": 216,
  "size": 216,
  "weight": 864,
  "tx": [
    {
      "txid": "15f390738fbcaf7bb92c5b5aef0e4bf20a8d32e6bd74ccaf637731efe9110d44",
      "hash": "15f390738fbcaf7bb92c5b5aef0e4bf20a8d32e6bd74ccaf637731efe9110d44",
      "version": 1,
      "size": 135,
      "vsize": 135,
      "weight": 540,
      "locktime": 0,
      "vin": [
        {
          "coinbase": "04ffff001d029700",
          "sequence": 4294967295
        }
      ],
      "vout": [
        {
          "value": 50.0,
          "n": 0,
          "scriptPubKey": {
            "asm": "049f836ab816ff99984854d8a8172411ca3d70efd6a13c1c6abce90e8ef3fd23851cc5efd835eb28010114a0b3057c317d466c0ac419846ce3dd295804a13fc220 OP_CHECKSIG",
            "desc": "pk(049f836ab816ff99984854d8a8172411ca3d70efd6a13c1c6abce90e8ef3fd23851cc5efd835eb28010114a0b3057c317d466c0ac419846ce3dd295804a13fc220)#pjl6z98z",
            "hex": "41049f836ab816ff99984854d8a8172411ca3d70efd6a13c1c6abce90e8ef3fd23851cc5efd835eb28010114a0b3057c317d466c0ac419846ce3dd295804a13fc220ac",
            "type": "pubkey"
          }
        }
      ],
      "hex": "01000000010000000000000000000000000000000000000000000000000000000000000000ffffffff0804ffff001d029700ffffffff0100f2052a010000004341049f836ab816ff99984854d8a8172411ca3d70efd6a13c1c6abce90e8ef3fd23851cc5efd835eb28010114a0b3057c317d466c0ac419846ce3dd295804a13fc220ac00000000"
    }
  ]
}