{
  "hash": "00000000717e8a421e4d27d4b19902d87d8d23c5169ad9ab964a0c6355d3653c",
  "confirmations": 45719,
  "height": 7379,
  "version": 1,
  "versionHex": "00000001",
  "merkleroot": "3fe63070d88f0df455d2f95e0b0e37c9f89bd73729baf1d5345dddf79d689d98",
  "time": 1237004994,
  "mediantime": 1237001087,
  "nonce": 49553441,
  "bits": "1d00ffff",
  "difficulty": 1,
  "chainwork": "00000000000000000000000000000000000000000000000000001cd41cd41cd4",
  "nTx": 1,
  "previousblockhash": "0000000025c5cf207c974ab573038440316d8d69a756180742d695d27c8e2a8b",
  "nextblockhash": "00000000cab80ebffb2ae3eda249cab4b0499ff8612266dc0cba8fed59806d57",
  "strippedsize": 216,
  "size": 216,
  "weight": 864,
  "tx": [
    {
      "txid": "3fe63070d88f0df455d2f95e0b0e37c9f89bd73729baf1d5345dddf79d689d98",
      "hash": "3fe63070d88f0df455d2f95e0b0e37c9f89bd73729baf1d5345dddf79d689d98",
      "version": 1,
      "size": 135,
      "vsize": 135,
      "weight": 540,
      "locktime": 0,
      "vin": [
        {
          "coinbase": "04ffff001d024a01",
          "sequence": 4294967295
        }
      ],
      "vout": [
        {
          "value": 50.0,
          "n": 0,
          "scriptPubKey": {
            "asm": "04b9ad8462775496632388adbec21a9d32890e73ec33bf8672f866f827408b2377179a0b0368ac784af4835f5f9bd92ad8caccab8f6c4bd9a2b7756dafdeed85cb OP_CHECKSIG",
            "desc": "pk(04b9ad8462775496632388adbec21a9d32890e73ec33bf8672f866f827408b2377179a0b0368ac784af4835f5f9bd92ad8caccab8f6c4bd9a2b7756dafdeed85cb)#yv8j4j38",
            "hex": "4104b9ad8462775496632388adbec21a9d32890e73ec33bf8672f866f827408b2377179a0b0368ac784af4835f5f9bd92ad8caccab8f6c4bd9a2b7756dafdeed85cbac",
            "type": "pubkey"
          }
        }
      ],
      "hex": "01000000010000000000000000000000000000000000000000000000000000000000000000ffffffff0804ffff001d024a01ffffffff0100f2052a01000000434104b9ad8462775496632388adbec21a9d32890e73ec33bf8672f866f827408b2377179a0b0368ac784af4835f5f9bd92ad8caccab8f6c4bd9a2b7756dafdeed85cbac00000000"
    }
  ]
}