{
  "hash": "000000000972b748f2bf37eb8e5319cb7aa2dc9b976ded9e15a56520e7272830",
  "confirmations": 46709,
  "height": 6389,
  "version": 1,
  "versionHex": "00000001",
  "merkleroot": "33f57a66cb39344b0ae6145120e140baa036726346413c70bd2e68e4ef7d7e9c",
  "time": 1236247991,
  "mediantime": 1236244823,
  "nonce": 4012460598,
  "bits": "1d00ffff",
  "difficulty": 1,
  "chainwork": "000000000000000000000000000000000000000000000000000018f618f618f6",
  "nTx": 1,
  "previousblockhash": "00000000f0173202be67ae5ba15d3a03bdecee57713b3805ba9c167596efcf08",
  "nextblockhash": "00000000fb149a0767bd488d7cf9e913c1cf709d6dac767a6c77d6f9b5448ee8",
  "strippedsize": 216,
  "size": 216,
  "weight": 864,
  "tx": [
    {
      "txid": "33f57a66cb39344b0ae6145120e140baa036726346413c70bd2e68e4ef7d7e9c",
      "hash": "33f57a66cb39344b0ae6145120e140baa036726346413c70bd2e68e4ef7d7e9c",
      "version": 1,
      "size": 135,
      "vsize": 135,
      "weight": 540,
      "locktime": 0,
      "vin": [
        {
          "coinbase": "04ffff001d029e01",
          "sequence": 4294967295
        }
      ],
      "vout": [
        {
          "value": 50.0,
          "n": 0,
          "scriptPubKey": {
            "asm": "0451b5aa253322a9c48537d6d22e7ed61e831dadd49b3e55a819b3e47d2d25e0ba02b2cda5449dd55a9992a784c99b3a7bc17e9f4a1dfeee52c4c8a2e9d8356ce7 OP_CHECKSIG",
            "desc": "pk(0451b5aa253322a9c48537d6d22e7ed61e831dadd49b3e55a819b3e47d2d25e0ba02b2cda5449dd55a9992a784c99b3a7bc17e9f4a1dfeee52c4c8a2e9d8356ce7)#fm0qeufn",
            "hex": "410451b5aa253322a9c48537d6d22e7ed61e831dadd49b3e55a819b3e47d2d25e0ba02b2cda5449dd55a9992a784c99b3a7bc17e9f4a1dfeee52c4c8a2e9d8356ce7ac",
            "type": "pubkey"
          }
        }
      ],
      "hex": "01000000010000000000000000000000000000000000000000000000000000000000000000ffffffff0804ffff001d029e01ffffffff0100f2052a0100000043410451b5aa253322a9c48537d6d22e7ed61e831dadd49b3e55a819b3e47d2d25e0ba02b2cda5449dd55a9992a784c99b3a7bc17e9f4a1dfeee52c4c8a2e9d8356ce7ac00000000"
    }
  ]
}