{
  "hash": "00000000e3b9afe6d09b959e337f8aad6e73a74afb10dca0a6f79abb65fa5a91",
  "confirmations": 46644,
  "height": 6454,
  "version": 1,
  "versionHex": "00000001",
  "merkleroot": "b48cfd406acde195d294e899d17223e94c416ca0af349d3218157e34c5e5f2bd",
  "time": 1236296065,
  "mediantime": 1236292807,
  "nonce": 142849746,
  "bits": "1d00ffff",
  "difficulty": 1,
  "chainwork": "0000000000000000000000000000000000000000000000000000193719371937",
  "nTx": 1,
  "previousblockhash": "00000000ea45133dfb3c76ffc0e75c4c0c5dcc21fa14ba9998cc8e77d4600d98",
  "nextblockhash": "00000000fd1e812fa64ecb5bf83c061d632432bddfbfb0675074d6d06267a5a1",
  "strippedsize": 215,
  "size": 215,
  "weight": 860,
  "tx": [
    {
      "txid": "b48cfd406acde195d294e899d17223e94c416ca0af349d3218157e34c5e5f2bd",
      "hash": "b48cfd406acde195d294e899d17223e94c416ca0af349d3218157e34c5e5f2bd",
      "version": 1,
      "size": 134,
      "vsize": 134,
      "weight": 536,
      "locktime": 0,
      "vin": [
        {
          "coinbase": "04ffff001d0108",
          "sequence": 4294967295
        }
      ],
      "vout": [
        {
          "value": 50.0,
          "n": 0,
          "scriptPubKey": {
            "asm": "04b202736fd299479c0b43f3a4354cbb4390c181281b9c0896baf0f0f878decb51e4efcfd5803d9af139ca9ece7088a050cfd93168575ef674785407339631c0ff OP_CHECKSIG",
            "desc": "pk(04b202736fd299479c0b43f3a4354cbb4390c181281b9c0896baf0f0f878decb51e4efcfd5803d9af139ca9ece7088a050cfd93168575ef674785407339631c0ff)#yccyea55",
            "hex": "4104b202736fd299479c0b43f3a4354cbb4390c181281b9c0896baf0f0f878decb51e4efcfd5803d9af139ca9ece7088a050cfd93168575ef674785407339631c0ffac",
            "type": "pubkey"
          }
        }
      ],
      "hex": "01000000010000000000000000000000000000000000000000000000000000000000000000ffffffff0704ffff001d0108ffffffff0100f2052a01000000434104b202736fd299479c0b43f3a4354cbb4390c181281b9c0896baf0f0f878decb51e4efcfd5803d9af139ca9ece7088a050cfd93168575ef674785407339631c0ffac00000000"
    }
  ]
}