{
  "hash": "00000000cdb0330da16925b7d3f3940a63e9be16325920edac597912801301b5",
  "confirmations": 47362,
  "height": 5736,
  "version": 1,
  "versionHex": "00000001",
  "merkleroot": "52e81d638ce07a426d15f6b51636202acc15218fe5a7c6b232e6e5afa8552622",
  "time": 1235710763,
  "mediantime": 1235707429,
  "nonce": 31879937,
  "bits": "1d00ffff",
  "difficulty": 1,
  "chainwork": "0000000000000000000000000000000000000000000000000000166916691669",
  "nTx": 1,
  "previousblockhash": "0000000070f032cc00f18102b806258afa380dede23345c2ef5220b6b8b2ef1b",
  "nextblockhash": "00000000f1fabea7162c2ef951fc96c6eac554d1b81327681de02ce91d6b6870",
  "strippedsize": 216,
  "size": 216,
  "weight": 864,
  "tx": [
    {
      "txid": "52e81d638ce07a426d15f6b51636202acc15218fe5a7c6b232e6e5afa8552622",
      "hash": "52e81d638ce07a426d15f6b51636202acc15218fe5a7c6b232e6e5afa8552622",
      "version": 1,
      "size": 135,
      "vsize": 135,
      "weight": 540,
      "locktime": 0,
      "vin": [
        {
          "coinbase": "04ffff001d028a00",
          "sequence": 4294967295
        }
      ],
      "vout": [
        {
          "value": 50.0,
          "n": 0,
          "scriptPubKey": {
            "asm": "04f4b45913bf38f27e80b8f21d8915b8ba1ad26e7432714987bcdff3de20d3637c31f4c4e18425fe963ab2a44e89227e9d9096525c1470d9cb45a2a5c502686ee1 OP_CHECKSIG",
            "desc": "pk(04f4b45913bf38f27e80b8f21d8915b8ba1ad26e7432714987bcdff3de20d3637c31f4c4e18425fe963ab2a44e89227e9d9096525c1470d9cb45a2a5c502686ee1)#pc700ydk",
            "hex": "4104f4b45913bf38f27e80b8f21d8915b8ba1ad26e7432714987bcdff3de20d3637c31f4c4e18425fe963ab2a44e89227e9d9096525c1470d9cb45a2a5c502686ee1ac",
            "type": "pubkey"
          }
        }
      ],
      "hex": "01000000010000000000000000000000000000000000000000000000000000000000000000ffffffff0804ffff001d028a00ffffffff0100f2052a01000000434104f4b45913bf38f27e80b8f21d8915b8ba1ad26e7432714987bcdff3de20d3637c31f4c4e18425fe963ab2a44e89227e9d9096525c1470d9cb45a2a5c502686ee1ac00000000"
    }
  ]
}