{
  "hash": "000000000db135a4809f3a7f75c7fe5c72594d928eff19bb8cfe4b1d2d29073f",
  "confirmations": 50324,
  "height": 2774,
  "version": 1,
  "versionHex": "00000001",
  "merkleroot": "d641fdaf06ed4469244a260e191447c8ee75622c59211473670b8ec1be61501f",
  "time": 1233612836,
  "mediantime": 1233609350,
  "nonce": 1983279132,
  "bits": "1d00ffff",
  "difficulty": 1,
  "chainwork": "00000000000000000000000000000000000000000000000000000ad70ad70ad7",
  "nTx": 1,
  "previousblockhash": "0000000033dbde75bb161359a3ea82c5c85311c8fc5e0bd8dd804a1423d575e9",
  "nextblockhash": "0000000062a31bd9d38393ba3c5bf782b651f57e242f316cdb648935eee614d1",
  "strippedsize": 216,
  "size": 216,
  "weight": 864,
  "tx": [
    {
      "txid": "d641fdaf06ed4469244a260e191447c8ee75622c59211473670b8ec1be61501f",
      "hash": "d641fdaf06ed4469244a260e191447c8ee75622c59211473670b8ec1be61501f",
      "version": 1,
      "size": 135,
      "vsize": 135,
      "weight": 540,
      "locktime": 0,
      "vin": [
        {
          "coinbase": "04ffff001d02d905",
          "sequence": 4294967295
        }
      ],
      "vout": [
        {
          "value": 50.0,
          "n": 0,
          "scriptPubKey": {
            "asm": "0448d8f9718af40f8ba25caba86907b7b28a025329a4d2ce069167071c24f31874b3a53b8d63335fadea4f54100d3185f8518c8aaa992313b72ae571187bc4e65e OP_CHECKSIG",
            "desc": "pk(0448d8f9718af40f8ba25caba86907b7b28a025329a4d2ce069167071c24f31874b3a53b8d63335fadea4f54100d3185f8518c8aaa992313b72ae571187bc4e65e)#ldn39ghv",
            "hex": "410448d8f9718af40f8ba25caba86907b7b28a025329a4d2ce069167071c24f31874b3a53b8d63335fadea4f54100d3185f8518c8aaa992313b72ae571187bc4e65eac",
            "type": "pubkey"
          }
        }
      ],
      "hex": "01000000010000000000000000000000000000000000000000000000000000000000000000ffffffff0804ffff001d02d905ffffffff0100f2052a0100000043410448d8f9718af40f8ba25caba86907b7b28a025329a4d2ce069167071c24f31874b3a53b8d63335fadea4f54100d3185f8518c8aaa992313b72ae571187bc4e65eac00000000"
    }
  ]
}