{
  "hash": "00000000a712efd9a87e1ea84e9f781f9fabb91f1924065c457b6ccb0a7b9337",
  "confirmations": 44069,
  "height": 9029,
  "version": 1,
  "versionHex": "00000001",
  "merkleroot": "f657af77c9f6b62f6de8848ee54c319c4424952307c3e1b79b1aa8b048355815",
  "time": 1238272814,
  "mediantime": 1238270104,
  "nonce": 2497850143,
  "bits": "1d00ffff",
  "difficulty": 1,
  "chainwork": "0000000000000000000000000000000000000000000000000000234623462346",
  "nTx": 1,
  "previousblockhash": "00000000b9fb4b453338bcfe77c0ab3cd342bd24ea0c6f38724c755e8479a525",
  "nextblockhash": "00000000d1c827fe034369dbbed5d835f5aad611cc802ba8862f3f1ade3860e8",
  "strippedsize": 216,
  "size": 216,
  "weight": 864,
  "tx": [
    {
      "txid": "f657af77c9f6b62f6de8848ee54c319c4424952307c3e1b79b1aa8b048355815",
      "hash": "f657af77c9f6b62f6de8848ee54c319c4424952307c3e1b79b1aa8b048355815",
      "version": 1,
      "size": 135,
      "vsize": 135,
      "weight": 540,
      "locktime": 0,
      "vin": [
        {
          "coinbase": "04ffff001d02db06",
          "sequence": 4294967295
        }
      ],
      "vout": [
        {
          "value": 50.0,
          "n": 0,
          "scriptPubKey": {
            "asm": "04dd308b5acc302b38abed31095a14cc79c11f6853141f9d4f4ad32ab6e9a2acc6757d24e7ad6e1c439d202a1a58d76d38c1979f9bf6a36d20b30b789e6e58a539 OP_CHECKSIG",
            "desc": "pk(04dd308b5acc302b38abed31095a14cc79c11f6853141f9d4f4ad32ab6e9a2acc6757d24e7ad6e1c439d202a1a58d76d38c1979f9bf6a36d20b30b789e6e58a539)#6urrjrvv",
            "hex": "4104dd308b5acc302b38abed31095a14cc79c11f6853141f9d4f4ad32ab6e9a2acc6757d24e7ad6e1c439d202a1a58d76d38c1979f9bf6a36d20b30b789e6e58a539ac",
            "type": "pubkey"
          }
        }
      ],
      "hex": "01000000010000000000000000000000000000000000000000000000000000000000000000ffffffff0804ffff001d02db06ffffffff0100f2052a01000000434104dd308b5acc302b38abed31095a14cc79c11f6853141f9d4f4ad32ab6e9a2acc6757d24e7ad6e1c439d202a1a58d76d38c1979f9bf6a36d20b30b789e6e58a539ac00000000"
    }
  ]
}