{
  "hash": "000000000ce946ccf793f66a47c78377d7a75010f71ffb4c63923456f81b13da",
  "confirmations": 43797,
  "height": 9301,
  "version": 1,
  "versionHex": "00000001",
  "merkleroot": "02c632facdf0f4e8b6d3bd9df5344a367d562a71f2b58b142a47be10af6283a5",
  "time": 1238475617,
  "mediantime": 1238472095,
  "nonce": 4189218332,
  "bits": "1d00ffff",
  "difficulty": 1,
  "chainwork": "0000000000000000000000000000000000000000000000000000245624562456",
  "nTx": 1,
  "previousblockhash": "00000000af5423167651b8b485f0bea8ced1bdf7fe832821e5fad4cc27c59195",
  "nextblockhash": "00000000454b5a70640b199dee28c6c1932b4d8fcd3f7fbf0c1499173222ef9e",
  "strippedsize": 216,
  "size": 216,
  "weight": 864,
  "tx": [
    {
      "txid": "02c632facdf0f4e8b6d3bd9df5344a367d562a71f2b58b142a47be10af6283a5",
      "hash": "02c632facdf0f4e8b6d3bd9df5344a367d562a71f2b58b142a47be10af6283a5",
      "version": 1,
      "size": 135,
      "vsize": 135,
      "weight": 540,
      "locktime": 0,
      "vin": [
        {
          "coinbase": "04ffff001d02b701",
          "sequence": 4294967295
        }
      ],
      "vout": [
        {
          "value": 50.0,
          "n": 0,
          "scriptPubKey": {
            "asm": "04dc21224ed490fe7ea9b537010d2866f610a4969a5bff977a4b1089fb6c24084ac8594cc68c0980a7554c3b5ffb9420673a201c49f56cb3ca2e43903850c20fdd OP_CHECKSIG",
            "desc": "pk(04dc21224ed490fe7ea9b537010d2866f610a4969a5bff977a4b1089fb6c24084ac8594cc68c0980a7554c3b5ffb9420673a201c49f56cb3ca2e43903850c20fdd)#z7yq8au9",
            "hex": "4104dc21224ed490fe7ea9b537010d2866f610a4969a5bff977a4b1089fb6c24084ac8594cc68c0980a7554c3b5ffb9420673a201c49f56cb3ca2e43903850c20fddac",
            "type": "pubkey"
          }
        }
      ],
      "hex": "01000000010000000000000000000000000000000000000000000000000000000000000000ffffffff0804ffff001d02b701ffffffff0100f2052a01000000434104dc21224ed490fe7ea9b537010d2866f610a4969a5bff977a4b1089fb6c24084ac8594cc68c0980a7554c3b5ffb9420673a201c49f56cb3ca2e43903850c20fddac00000000"
    }
  ]
}