{
  "hash": "0000000049e4e63584aaa79329d2c5dced7f0fa952a324a9af99e66841f9a10f",
  "confirmations": 43250,
  "height": 9848,
  "version": 1,
  "versionHex": "00000001",
  "merkleroot": "30f396002010f8b33f81c0a9550c9cbb46a400998ead5ebf00310daa43a83321",
  "time": 1238889638,
  "mediantime": 1238886757,
  "nonce": 2358792999,
  "bits": "1d00ffff",
  "difficulty": 1,
  "chainwork": "0000000000000000000000000000000000000000000000000000267926792679",
  "nTx": 1,
  "previousblockhash": "000000006ba2b4486646bee1b816212f2f33a30ab89cc2bffc5834d9462e908c",
  "nextblockhash": "0000000063ab29ae280403e55e2212679209d8167d8e698ace56c775ca97a5e8",
  "strippedsize": 216,
  "size": 216,
  "weight": 864,
  "tx": [
    {
      "txid": "30f396002010f8b33f81c0a9550c9cbb46a400998ead5ebf00310daa43a83321",
      "hash": "30f396002010f8b33f81c0a9550c9cbb46a400998ead5ebf00310daa43a83321",
      "version": 1,
      "size": 135,
      "vsize": 135,
      "weight": 540,
      "locktime": 0,
      "vin": [
        {
          "coinbase": "04ffff001d023401",
          "sequence": 4294967295
        }
      ],
      "vout": [
        {
          "value": 50.0,
          "n": 0,
          "scriptPubKey": {
            "asm": "041d8cc726627697d92b62a9660ecf7ac63323acee52efae13a7fefe1fb4259f694eb1c924e4a1463a027906b01db7a371b720297d7391925ccc94085d91a13bb7 OP_CHECKSIG",
            "desc": "pk(041d8cc726627697d92b62a9660ecf7ac63323acee52efae13a7fefe1fb4259f694eb1c924e4a1463a027906b01db7a371b720297d7391925ccc94085d91a13bb7)#qklremag",
            "hex": "41041d8cc726627697d92b62a9660ecf7ac63323acee52efae13a7fefe1fb4259f694eb1c924e4a1463a027906b01db7a371b720297d7391925ccc94085d91a13bb7ac",
            "type": "pubkey"
          }
        }
      ],
      "hex": "01000000010000000000000000000000000000000000000000000000000000000000000000ffffffff0804ffff001d023401ffffffff0100f2052a010000004341041d8cc726627697d92b62a9660ecf7ac63323acee52efae13a7fefe1fb4259f694eb1c924e4a1463a027906b01db7a371b720297d7391925ccc94085d91a13bb7ac00000000"
    }
  ]
}