{
  "hash": "00000000de1f65836215d710c7ffb54c3631a2432dc87188191ca73ef7e7dd04",
  "confirmations": 46181,
  "height": 6917,
  "version": 1,
  "versionHex": "00000001",
  "merkleroot": "0f60cdc1411de3f1e5fc103108cab476037c15d86e5990e4de992ac9d1a0d2a9",
  "time": 1236650442,
  "mediantime": 1236647573,
  "nonce": 70167230,
  "bits": "1d00ffff",
  "difficulty": 1,
  "chainwork": "00000000000000000000000000000000000000000000000000001b061b061b06",
  "nTx": 1,
  "previousblockhash": "00000000d2112a77f092ba9bf9534546a97cd164e027ec6ceb406a26e5166733",
  "nextblockhash": "000000005e75f01fd9f13cc5607476ca4b0caf1bb405cf47ffabf4b97a15680f",
  "strippedsize": 216,
  "size": 216,
  "weight": 864,
  "tx": [
    {
      "txid": "0f60cdc1411de3f1e5fc103108cab476037c15d86e5990e4de992ac9d1a0d2a9",
      "hash": "0f60cdc1411de3f1e5fc103108cab476037c15d86e5990e4de992ac9d1a0d2a9",
      "version": 1,
      "size": 135,
      "vsize": 135,
      "weight": 540,
      "locktime": 0,
      "vin": [
        {
          "coinbase": "04ffff001d02ad00",
          "sequence": 4294967295
        }
      ],
      "vout": [
        {
          "value": 50.0,
          "n": 0,
          "scriptPubKey": {
            "asm": "04045467d28fe8c5c31eaeedb2be36c4385f6266106d33df871fd95f0696b9d4bebe4d46dbdc898c1ca6e21aa4809f6e37f82446eea20d5587e4f1ce4c198349ea OP_CHECKSIG",
            "desc": "pk(04045467d28fe8c5c31eaeedb2be36c4385f6266106d33df871fd95f0696b9d4bebe4d46dbdc898c1ca6e21aa4809f6e37f82446eea20d5587e4f1ce4c198349ea)#8ckvf049",
            "hex": "4104045467d28fe8c5c31eaeedb2be36c4385f6266106d33df871fd95f0696b9d4bebe4d46dbdc898c1ca6e21aa4809f6e37f82446eea20d5587e4f1ce4c198349eaac",
            "type": "pubkey"
          }
        }
      ],
      "hex": "01000000010000000000000000000000000000000000000000000000000000000000000000ffffffff0804ffff001d02ad00ffffffff0100f2052a01000000434104045467d28fe8c5c31eaeedb2be36c4385f6266106d33df871fd95f0696b9d4bebe4d46dbdc898c1ca6e21aa4809f6e37f82446eea20d5587e4f1ce4c198349eaac00000000"
    }
  ]
}