{
  "hash": "000000005d43dd65f5b334be51b6ca0910477a0344c5290a36f147c0d5c0730e",
  "confirmations": 52197,
  "height": 901,
  "version": 1,
  "versionHex": "00000001",
  "merkleroot": "2e24a01d4401af1b7f1c51a685af5794fab8b4e21a79516ba2e4dc8651d382ec",
  "time": 1232277180,
  "mediantime": 1232272930,
  "nonce": 2505591040,
  "bits": "1d00ffff",
  "difficulty": 1,
  "chainwork": "0000000000000000000000000000000000000000000000000000038603860386",
  "nTx": 1,
  "previousblockhash": "00000000e684309e67fabdf765bea193cdf8532111079b7f53a0839746d19240",
  "nextblockhash": "000000007e53b7c2305ef1d7cac84e37402675d664884ff9e94c44effd2097c3",
  "strippedsize": 216,
  "size": 216,
  "weight": 864,
  "tx": [
    {
      "txid": "2e24a01d4401af1b7f1c51a685af5794fab8b4e21a79516ba2e4dc8651d382ec",
      "hash": "2e24a01d4401af1b7f1c51a685af5794fab8b4e21a79516ba2e4dc8651d382ec",
      "version": 1,
      "size": 135,
      "vsize": 135,
      "weight": 540,
      "locktime": 0,
      "vin": [
        {
          "coinbase": "04ffff001d02ab03",
          "sequence": 4294967295
        }
      ],
      "vout": [
        {
          "value": 50.0,
          "n": 0,
          "scriptPubKey": {
            "asm": "04503785d76f397082fde8029b0539f0df9ebc11a3c3df48f916a01275fa6958a4e27babcc93b5cd40034f5e96957898bb3cb923467257660ed79ed689f7ca655f OP_CHECKSIG",
            "desc": "pk(04503785d76f397082fde8029b0539f0df9ebc11a3c3df48f916a01275fa6958a4e27babcc93b5cd40034f5e96957898bb3cb923467257660ed79ed689f7ca655f)#2rgu05wu",
            "hex": "4104503785d76f397082fde8029b0539f0df9ebc11a3c3df48f916a01275fa6958a4e27babcc93b5cd40034f5e96957898bb3cb923467257660ed79ed689f7ca655fac",
            "type": "pubkey"
          }
        }
      ],
      "hex": "01000000010000000000000000000000000000000000000000000000000000000000000000ffffffff0804ffff001d02ab03ffffffff0100f2052a01000000434104503785d76f397082fde8029b0539f0df9ebc11a3c3df48f916a01275fa6958a4e27babcc93b5cd40034f5e96957898bb3cb923467257660ed79ed689f7ca655fac00000000"
    }
  ]
}