{
  "hash": "0000000086f96f6089236b0f59b2964df110455539f79e1354e537125ef24f11",
  "confirmations": 46550,
  "height": 6548,
  "version": 1,
  "versionHex": "00000001",
  "merkleroot": "66623a4c9a2bdb2c5e7b96bfd700bdd072fa80c845377e112e03ab44503e9641",
  "time": 1236363962,
  "mediantime": 1236360843,
  "nonce": 1761026071,
  "bits": "1d00ffff",
  "difficulty": 1,
  "chainwork": "0000000000000000000000000000000000000000000000000000199519951995",
  "nTx": 1,
  "previousblockhash": "00000000e0d9aafea15349436e44e9d256531d1db3d99d78b7c15c8655085d19",
  "nextblockhash": "000000005b6243538fcc845789b3893ffd33e8e35c9b0dea1ba3a581e24deac0",
  "strippedsize": 216,
  "size": 216,
  "weight": 864,
  "tx": [
    {
      "txid": "66623a4c9a2bdb2c5e7b96bfd700bdd072fa80c845377e112e03ab44503e9641",
      "hash": "66623a4c9a2bdb2c5e7b96bfd700bdd072fa80c845377e112e03ab44503e9641",
      "version": 1,
      "size": 135,
      "vsize": 135,
      "weight": 540,
      "locktime": 0,
      "vin": [
        {
          "coinbase": "04ffff001d024f04",
          "sequence": 4294967295
        }
      ],
      "vout": [
        {
          "value": 50.0,
          "n": 0,
          "scriptPubKey": {
            "asm": "04274a475ae81f9133faa6b87ab7ab4493707dbe385ba16a5a3fe3ab3a42fc110267fd8f5781a0c320761d08531bc29159a39127926969ec598402bdb54024e299 OP_CHECKSIG",
            "desc": "pk(04274a475ae81f9133faa6b87ab7ab4493707dbe385ba16a5a3fe3ab3a42fc110267fd8f5781a0c320761d08531bc29159a39127926969ec598402bdb54024e299)#arrzs85j",
            "hex": "4104274a475ae81f9133faa6b87ab7ab4493707dbe385ba16a5a3fe3ab3a42fc110267fd8f5781a0c320761d08531bc29159a39127926969ec598402bdb54024e299ac",
            "type": "pubkey"
          }
        }
      ],
      "hex": "01000000010000000000000000000000000000000000000000000000000000000000000000ffffffff0804ffff001d024f04ffffffff0100f2052a01000000434104274a475ae81f9133faa6b87ab7ab4493707dbe385ba16a5a3fe3ab3a42fc110267fd8f5781a0c320761d08531bc29159a39127926969ec598402bdb54024e299ac00000000"
    }
  ]
}