{
  "hash": "00000000e32aa73c997fad6a97be538ecd64735a4a9976edf2134024dee6c2f8",
  "confirmations": 45475,
  "height": 7623,
  "version": 1,
  "versionHex": "00000001",
  "merkleroot": "03abcae2094655952d24353b8842b9c6f021e0cd8db4308370bb058d9fe4485a",
  "time": 1237184989,
  "mediantime": 1237180437,
  "nonce": 2164010517,
  "bits": "1d00ffff",
  "difficulty": 1,
  "chainwork": "00000000000000000000000000000000000000000000000000001dc81dc81dc8",
  "nTx": 1,
  "previousblockhash": "000000007d679d9e8837117151224d14af2cfb20eb85de4e079f225ea70ed7e1",
  "nextblockhash": "0000000011ebb714b33c6842e807bc1de538a8bd1bf5038a9b5168b4344dd1f5",
  "strippedsize": 216,
  "size": 216,
  "weight": 864,
  "tx": [
    {
      "txid": "03abcae2094655952d24353b8842b9c6f021e0cd8db4308370bb058d9fe4485a",
      "hash": "03abcae2094655952d24353b8842b9c6f021e0cd8db4308370bb058d9fe4485a",
      "version": 1,
      "size": 135,
      "vsize": 135,
      "weight": 540,
      "locktime": 0,
      "vin": [
        {
          "coinbase": "04ffff001d02f602",
          "sequence": 4294967295
        }
      ],
      "vout": [
        {
          "value": 50.0,
          "n": 0,
          "scriptPubKey": {
            "asm": "0434f6e6f16a93d6e47dc8db3e517bdd1e9a0badb61c88bc2bf3bb982f601fe5a16a43f55867f9b12a6ded26cdc3e385bd381d8e57b9197b9e9e474a31cc44287f OP_CHECKSIG",
            "desc": "pk(0434f6e6f16a93d6e47dc8db3e517bdd1e9a0badb61c88bc2bf3bb982f601fe5a16a43f55867f9b12a6ded26cdc3e385bd381d8e57b9197b9e9e474a31cc44287f)#7hseldtc",
            "hex": "410434f6e6f16a93d6e47dc8db3e517bdd1e9a0badb61c88bc2bf3bb982f601fe5a16a43f55867f9b12a6ded26cdc3e385bd381d8e57b9197b9e9e474a31cc44287fac",
            "type": "pubkey"
          }
        }
      ],
      "hex": "01000000010000000000000000000000000000000000000000000000000000000000000000ffffffff0804ffff001d02f602ffffffff0100f2052a0100000043410434f6e6f16a93d6e47dc8db3e517bdd1e9a0badb61c88bc2bf3bb982f601fe5a16a43f55867f9b12a6ded26cdc3e385bd381d8e57b9197b9e9e474a31cc44287fac00000000"
    }
  ]
}