{
  "hash": "00000000bcf48730b0a0fc4b1fb6cba5b6ee87fcf583b96f11bec70e25c0f9cc",
  "confirmations": 44436,
  "height": 8662,
  "version": 1,
  "versionHex": "00000001",
  "merkleroot": "9dc0bd99942f4e4a2ee842d68e5b2cb11fbf66df85c41c6c1a8a069a60c8d71a",
  "time": 1237994476,
  "mediantime": 1237990585,
  "nonce": 192379240,
  "bits": "1d00ffff",
  "difficulty": 1,
  "chainwork": "000000000000000000000000000000000000000000000000000021d721d721d7",
  "nTx": 1,
  "previousblockhash": "000000009cab60c85f4a391a5854bcf53ea52cb47d1e3173d190ebb9029a2f19",
  "nextblockhash": "000000009a735f0487773c10335e1f28b7b60fd8ce6b0787117713f2ba75b35c",
  "strippedsize": 216,
  "size": 216,
  "weight": 864,
  "tx": [
    {
      "txid": "9dc0bd99942f4e4a2ee842d68e5b2cb11fbf66df85c41c6c1a8a069a60c8d71a",
      "hash": "9dc0bd99942f4e4a2ee842d68e5b2cb11fbf66df85c41c6c1a8a069a60c8d71a",
      "version": 1,
      "size": 135,
      "vsize": 135,
      "weight": 540,
      "locktime": 0,
      "vin": [
        {
          "coinbase": "04ffff001d029b02",
          "sequence": 4294967295
        }
      ],
      "vout": [
        {
          "value": 50.0,
          "n": 0,
          "scriptPubKey": {
            "asm": "0413626510d5a2d579429db66bcc7b84d4aff982895e8be9814102a9613fd36cf5a6c97e33eaf3bdd41bf77596cfa83da06e561a4cfb225ef70600b769d0443506 OP_CHECKSIG",
            "desc": "pk(0413626510d5a2d579429db66bcc7b84d4aff982895e8be9814102a9613fd36cf5a6c97e33eaf3bdd41bf77596cfa83da06e561a4cfb225ef70600b769d0443506)#rzj2x3nf",
            "hex": "410413626510d5a2d579429db66bcc7b84d4aff982895e8be9814102a9613fd36cf5a6c97e33eaf3bdd41bf77596cfa83da06e561a4cfb225ef70600b769d0443506ac",
            "type": "pubkey"
          }
        }
      ],
      "hex": "01000000010000000000000000000000000000000000000000000000000000000000000000ffffffff0804ffff001d029b02ffffffff0100f2052a0100000043410413626510d5a2d579429db66bcc7b84d4aff982895e8be9814102a9613fd36cf5a6c97e33eaf3bdd41bf77596cfa83da06e561a4cfb225ef70600b769d0443506ac00000000"
    }
  ]
}