{
  "hash": "000000000ec22cd8f789df05f81a61bc58dc9d8644fc84fadb4e9b454c08d42b",
  "confirmations": 45910,
  "height": 7188,
  "version": 1,
  "versionHex": "00000001",
  "merkleroot": "3868f898611d4f9c5861e0c23732840b33b8ebfd1348ff8d27d2f0d77de68e37",
  "time": 1236861112,
  "mediantime": 1236858767,
  "nonce": 215932435,
  "bits": "1d00ffff",
  "difficulty": 1,
  "chainwork": "00000000000000000000000000000000000000000000000000001c151c151c15",
  "nTx": 1,
  "previousblockhash": "000000009fa8c9846e3c061913a3ff7a8fa240770e4ecd06d319b302f51f4e73",
  "nextblockhash": "00000000803a23e4a80f66522b43b0da5de9cc3e0505b3467c6a2541a689fc81",
  "strippedsize": 216,
  "size": 216,
  "weight": 864,
  "tx": [
    {
      "txid": "3868f898611d4f9c5861e0c23732840b33b8ebfd1348ff8d27d2f0d77de68e37",
      "hash": "3868f898611d4f9c5861e0c23732840b33b8ebfd1348ff8d27d2f0d77de68e37",
      "version": 1,
      "size": 135,
      "vsize": 135,
      "weight": 540,
      "locktime": 0,
      "vin": [
        {
          "coinbase": "04ffff001d027505",
          "sequence": 4294967295
        }
      ],
      "vout": [
        {
          "value": 50.0,
          "n": 0,
          "scriptPubKey": {
            "asm": "0440bfcfe317d54e3d0566df6cee82943c82443ffc9ff91137331195842621b542918346634d09695372a41fb63238f4a00817fd70d31af575958a921811badfd1 OP_CHECKSIG",
            "desc": "pk(0440bfcfe317d54e3d0566df6cee82943c82443ffc9ff91137331195842621b542918346634d09695372a41fb63238f4a00817fd70d31af575958a921811badfd1)#dc6v8tsm",
            "hex": "410440bfcfe317d54e3d0566df6cee82943c82443ffc9ff91137331195842621b542918346634d09695372a41fb63238f4a00817fd70d31af575958a921811badfd1ac",
            "type": "pubkey"
          }
        }
      ],
      "hex": "01000000010000000000000000000000000000000000000000000000000000000000000000ffffffff0804ffff001d027505ffffffff0100f2052a0100000043410440bfcfe317d54e3d0566df6cee82943c82443ffc9ff91137331195842621b542918346634d09695372a41fb63238f4a00817fd70d31af575958a921811badfd1ac00000000"
    }
  ]
}