{
  "hash": "00000000cc7dbdb3bdab7a24a741932fe99f225c5ca7e2d03b2deaddd23664d1",
  "confirmations": 46895,
  "height": 6203,
  "version": 1,
  "versionHex": "00000001",
  "merkleroot": "3c3993bb82fb9b694a6c0704d981ce193e4aa2f8090d01b7b091c3f3a2c451c3",
  "time": 1236094020,
  "mediantime": 1236089244,
  "nonce": 3280555030,
  "bits": "1d00ffff",
  "difficulty": 1,
  "chainwork": "0000000000000000000000000000000000000000000000000000183c183c183c",
  "nTx": 1,
  "previousblockhash": "000000007680c0efe9e7875772f05e260fa3048a611ec70b31a39fc9df6db2aa",
  "nextblockhash": "0000000081d5a9f81b92293bd9233d5e2045c7299cc02c0847e80afce6e56e6f",
  "strippedsize": 216,
  "size": 216,
  "weight": 864,
  "tx": [
    {
      "txid": "3c3993bb82fb9b694a6c0704d981ce193e4aa2f8090d01b7b091c3f3a2c451c3",
      "hash": "3c3993bb82fb9b694a6c0704d981ce193e4aa2f8090d01b7b091c3f3a2c451c3",
      "version": 1,
      "size": 135,
      "vsize": 135,
      "weight": 540,
      "locktime": 0,
      "vin": [
        {
          "coinbase": "04ffff001d029208",
          "sequence": 4294967295
        }
      ],
      "vout": [
        {
          "value": 50.0,
          "n": 0,
          "scriptPubKey": {
            "asm": "049a7917fd830f52f80902d9306f855d0a23bbe12774f7db6980a26a8529449e11eb55331a60e83a34b2f90329ca5ddab930c4c2095db937bedf13731cfd968e1f OP_CHECKSIG",
            "desc": "pk(049a7917fd830f52f80902d9306f855d0a23bbe12774f7db6980a26a8529449e11eb55331a60e83a34b2f90329ca5ddab930c4c2095db937bedf13731cfd968e1f)#mtc2gd05",
            "hex": "41049a7917fd830f52f80902d9306f855d0a23bbe12774f7db6980a26a8529449e11eb55331a60e83a34b2f90329ca5ddab930c4c2095db937bedf13731cfd968e1fac",
            "type": "pubkey"
          }
        }
      ],
      "hex": "01000000010000000000000000000000000000000000000000000000000000000000000000ffffffff0804ffff001d029208ffffffff0100f2052a010000004341049a7917fd830f52f80902d9306f855d0a23bbe12774f7db6980a26a8529449e11eb55331a60e83a34b2f90329ca5ddab930c4c2095db937bedf13731cfd968e1fac00000000"
    }
  ]
}