{
  "hash": "000000003587b4cb17a29a80471c491b03a227eb8500689aab606de1fd692963",
  "confirmations": 43553,
  "height": 9545,
  "version": 1,
  "versionHex": "00000001",
  "merkleroot": "03c6e197129c0ede1562a89c1ad6c0207ee53fae1c98461d0fbf1a150e7cb021",
  "time": 1238658396,
  "mediantime": 1238653142,
  "nonce": 3173287959,
  "bits": "1d00ffff",
  "difficulty": 1,
  "chainwork": "0000000000000000000000000000000000000000000000000000254a254a254a",
  "nTx": 1,
  "previousblockhash": "000000006ea2914e92adcfc7b39fcb00b3dfa0328aae70500f6ff26e11f764ef",
  "nextblockhash": "00000000fa1c0eeb4d57aa23609edf276a0d38f7895a37f33e969b9b04fba236",
  "strippedsize": 216,
  "size": 216,
  "weight": 864,
  "tx": [
    {
      "txid": "03c6e197129c0ede1562a89c1ad6c0207ee53fae1c98461d0fbf1a150e7cb021",
      "hash": "03c6e197129c0ede1562a89c1ad6c0207ee53fae1c98461d0fbf1a150e7cb021",
      "version": 1,
      "size": 135,
      "vsize": 135,
      "weight": 540,
      "locktime": 0,
      "vin": [
        {
          "coinbase": "04ffff001d020306",
          "sequence": 4294967295
        }
      ],
      "vout": [
        {
          "value": 50.0,
          "n": 0,
          "scriptPubKey": {
            "asm": "049573bf9611d39f15df20f5b5e9149e0a33e8c74747e2e1c589c467f1fa0fe2b1f43d813c906b6c9826ee116f625d20c984a7842c62a96b66a008973a339662c9 OP_CHECKSIG",
            "desc": "pk(049573bf9611d39f15df20f5b5e9149e0a33e8c74747e2e1c589c467f1fa0fe2b1f43d813c906b6c9826ee116f625d20c984a7842c62a96b66a008973a339662c9)#a7pfvej4",
            "hex": "41049573bf9611d39f15df20f5b5e9149e0a33e8c74747e2e1c589c467f1fa0fe2b1f43d813c906b6c9826ee116f625d20c984a7842c62a96b66a008973a339662c9ac",
            "type": "pubkey"
          }
        }
      ],
      "hex": "01000000010000000000000000000000000000000000000000000000000000000000000000ffffffff0804ffff001d020306ffffffff0100f2052a010000004341049573bf9611d39f15df20f5b5e9149e0a33e8c74747e2e1c589c467f1fa0fe2b1f43d813c906b6c9826ee116f625d20c984a7842c62a96b66a008973a339662c9ac00000000"
    }
  ]
}