{
  "hash": "000000008acace09dc63456c6fa9c5f143081ece9091abdfb6cfdb309d8df4c6",
  "confirmations": 45914,
  "height": 7184,
  "version": 1,
  "versionHex": "00000001",
  "merkleroot": "cb9e76c2e7aad4ca9c6f64dce0409100ee8027ec7d0ca83448df2610dad0ee7a",
  "time": 1236859196,
  "mediantime": 1236855597,
  "nonce": 76908379,
  "bits": "1d00ffff",
  "difficulty": 1,
  "chainwork": "00000000000000000000000000000000000000000000000000001c111c111c11",
  "nTx": 1,
  "previousblockhash": "000000002d887db4fdd897322408e7fe207537801e55ee17fbe498d2dc133a7f",
  "nextblockhash": "00000000ba551e37af3b1851fdec32e283363af5d8df34a37fab9095d333097d",
  "strippedsize": 215,
  "size": 215,
  "weight": 860,
  "tx": [
    {
      "txid": "cb9e76c2e7aad4ca9c6f64dce0409100ee8027ec7d0ca83448df2610dad0ee7a",
      "hash": "cb9e76c2e7aad4ca9c6f64dce0409100ee8027ec7d0ca83448df2610dad0ee7a",
      "version": 1,
      "size": 134,
      "vsize": 134,
      "weight": 536,
      "locktime": 0,
      "vin": [
        {
          "coinbase": "04ffff001d0173",
          "sequence": 4294967295
        }
      ],
      "vout": [
        {
          "value": 50.0,
          "n": 0,
          "scriptPubKey": {
            "asm": "04e35edac1eefaaf3772d58163ca4135ac3b15994fa67958eb531b0a3f82da0627526e9e21ce45ba8c2d6ed90e36f249d4e29a5c974943ffe04e8900ec04989a84 OP_CHECKSIG",
            "desc": "pk(04e35edac1eefaaf3772d58163ca4135ac3b15994fa67958eb531b0a3f82da0627526e9e21ce45ba8c2d6ed90e36f249d4e29a5c974943ffe04e8900ec04989a84)#j8wmg2n3",
            "hex": "4104e35edac1eefaaf3772d58163ca4135ac3b15994fa67958eb531b0a3f82da0627526e9e21ce45ba8c2d6ed90e36f249d4e29a5c974943ffe04e8900ec04989a84ac",
            "type": "pubkey"
          }
        }
      ],
      "hex": "01000000010000000000000000000000000000000000000000000000000000000000000000ffffffff0704ffff001d0173ffffffff0100f2052a01000000434104e35edac1eefaaf3772d58163ca4135ac3b15994fa67958eb531b0a3f82da0627526e9e21ce45ba8c2d6ed90e36f249d4e29a5c974943ffe04e8900ec04989a84ac00000000"
    }
  ]
}