{
  "hash": "00000000a993926b3a5445a43a8cf541590a95295c62a59aaca09f3f1c802c72",
  "confirmations": 50999,
  "height": 2099,
  "version": 1,
  "versionHex": "00000001",
  "merkleroot": "a74dc5b1326691b88ebd1cc5322f915bdd2a0ec2ebddd4bf180539cb9528cfef",
  "time": 1233136693,
  "mediantime": 1233133172,
  "nonce": 33710484,
  "bits": "1d00ffff",
  "difficulty": 1,
  "chainwork": "0000000000000000000000000000000000000000000000000000083408340834",
  "nTx": 1,
  "previousblockhash": "000000005a9189f917643e93a3fc11775592586079ab775db9e5e06c6f7861d9",
  "nextblockhash": "00000000d5092034c3a92473d42f28e3fd279f0652e2d5b0049c7d40fcbc990b",
  "strippedsize": 215,
  "size": 215,
  "weight": 860,
  "tx": [
    {
      "txid": "a74dc5b1326691b88ebd1cc5322f915bdd2a0ec2ebddd4bf180539cb9528cfef",
      "hash": "a74dc5b1326691b88ebd1cc5322f915bdd2a0ec2ebddd4bf180539cb9528cfef",
      "version": 1,
      "size": 134,
      "vsize": 134,
      "weight": 536,
      "locktime": 0,
      "vin": [
        {
          "coinbase": "04ffff001d0129",
          "sequence": 4294967295
        }
      ],
      "vout": [
        {
          "value": 50.0,
          "n": 0,
          "scriptPubKey": {
            "asm": "047d0c649c40ae642cd83f58474d06188022ce7d1a8130617fc903654be5abbc7bd3ac5ba22477e6baa146072e356eed7f0aa87682da307003c62d068f0d4c220e OP_CHECKSIG",
            "desc": "pk(047d0c649c40ae642cd83f58474d06188022ce7d1a8130617fc903654be5abbc7bd3ac5ba22477e6baa146072e356eed7f0aa87682da307003c62d068f0d4c220e)#692ql553",
            "hex": "41047d0c649c40ae642cd83f58474d06188022ce7d1a8130617fc903654be5abbc7bd3ac5ba22477e6baa146072e356eed7f0aa87682da307003c62d068f0d4c220eac",
            "type": "pubkey"
          }
        }
      ],
      "hex": "01000000010000000000000000000000000000000000000000000000000000000000000000ffffffff0704ffff001d0129ffffffff0100f2052a010000004341047d0c649c40ae642cd83f58474d06188022ce7d1a8130617fc903654be5abbc7bd3ac5ba22477e6baa146072e356eed7f0aa87682da307003c62d068f0d4c220eac00000000"
    }
  ]
}