{
  "hash": "00000000fa31fc7699dfb3672a1cb0a97699724ee06e2b7910f5fd1fb2e61af2",
  "confirmations": 47852,
  "height": 5246,
  "version": 1,
  "versionHex": "00000001",
  "merkleroot": "f43b396fc409346e2ea026ec0eefe85a83ae75dbc2ffbea95f017c92dd3b784d",
  "time": 1235320321,
  "mediantime": 1235315768,
  "nonce": 144948539,
  "bits": "1d00ffff",
  "difficulty": 1,
  "chainwork": "0000000000000000000000000000000000000000000000000000147f147f147f",
  "nTx": 1,
  "previousblockhash": "000000007a07d829e13c59e78a17753562ab6fdf95c7a0f36fece7ebab4d7070",
  "nextblockhash": "0000000033a27c42a6d51c428de207c78007492be46d5488e636121e84161a18",
  "strippedsize": 215,
  "size": 215,
  "weight": 860,
  "tx": [
    {
      "txid": "f43b396fc409346e2ea026ec0eefe85a83ae75dbc2ffbea95f017c92dd3b784d",
      "hash": "f43b396fc409346e2ea026ec0eefe85a83ae75dbc2ffbea95f017c92dd3b784d",
      "version": 1,
      "size": 134,
      "vsize": 134,
      "weight": 536,
      "locktime": 0,
      "vin": [
        {
          "coinbase": "04ffff001d011d",
          "sequence": 4294967295
        }
      ],
      "vout": [
        {
          "value": 50.0,
          "n": 0,
          "scriptPubKey": {
            "asm": "04b999dba51a65d14bfa7d5229ec1f026f48b11c8a0517f24bf00a2670b1ac2ed4bf517256c99d91a452a400d7350e06a4ca86465ba68d0f253110a24bcb96bde7 OP_CHECKSIG",
            "desc": "pk(04b999dba51a65d14bfa7d5229ec1f026f48b11c8a0517f24bf00a2670b1ac2ed4bf517256c99d91a452a400d7350e06a4ca86465ba68d0f253110a24bcb96bde7)#r3ser8rr",
            "hex": "4104b999dba51a65d14bfa7d5229ec1f026f48b11c8a0517f24bf00a2670b1ac2ed4bf517256c99d91a452a400d7350e06a4ca86465ba68d0f253110a24bcb96bde7ac",
            "type": "pubkey"
          }
        }
      ],
      "hex": "01000000010000000000000000000000000000000000000000000000000000000000000000ffffffff0704ffff001d011dffffffff0100f2052a01000000434104b999dba51a65d14bfa7d5229ec1f026f48b11c8a0517f24bf00a2670b1ac2ed4bf517256c99d91a452a400d7350e06a4ca86465ba68d0f253110a24bcb96bde7ac00000000"
    }
  ]
}