{
  "hash": "00000000398d96b2a00b99c6205f3f0e8c1a902405eac26ef11ba2436a8ceb65",
  "confirmations": 46270,
  "height": 6828,
  "version": 1,
  "versionHex": "00000001",
  "merkleroot": "51b50ef9fb9ad77487106757ef58c37bf4dd5ba1c3d655ff3b8c8e5fa8aedbbd",
  "time": 1236578742,
  "mediantime": 1236573753,
  "nonce": 1465542407,
  "bits": "1d00ffff",
  "difficulty": 1,
  "chainwork": "00000000000000000000000000000000000000000000000000001aad1aad1aad",
  "nTx": 1,
  "previousblockhash": "0000000069dec34efdc135dcc1f9423f988cc98274fe5be00bae76e2443d5337",
  "nextblockhash": "00000000697c65060180ec39d4035e4a6740e78eded04c7f140e09832f91510a",
  "strippedsize": 216,
  "size": 216,
  "weight": 864,
  "tx": [
    {
      "txid": "51b50ef9fb9ad77487106757ef58c37bf4dd5ba1c3d655ff3b8c8e5fa8aedbbd",
      "hash": "51b50ef9fb9ad77487106757ef58c37bf4dd5ba1c3d655ff3b8c8e5fa8aedbbd",
      "version": 1,
      "size": 135,
      "vsize": 135,
      "weight": 540,
      "locktime": 0,
      "vin": [
        {
          "coinbase": "04ffff001d026809",
          "sequence": 4294967295
        }
      ],
      "vout": [
        {
          "value": 50.0,
          "n": 0,
          "scriptPubKey": {
            "asm": "0419ca9b6d6609841bc2bf1fa2fe1a88fed0c50b09f66d10f8737a08d8ca858c44fe56eeaf9dfa07e8bb9576a2f9785131069b9706495b82a59efd0b79f3e820dc OP_CHECKSIG",
            "desc": "pk(0419ca9b6d6609841bc2bf1fa2fe1a88fed0c50b09f66d10f8737a08d8ca858c44fe56eeaf9dfa07e8bb9576a2f9785131069b9706495b82a59efd0b79f3e820dc)#6mczljzu",
            "hex": "410419ca9b6d6609841bc2bf1fa2fe1a88fed0c50b09f66d10f8737a08d8ca858c44fe56eeaf9dfa07e8bb9576a2f9785131069b9706495b82a59efd0b79f3e820dcac",
            "type": "pubkey"
          }
        }
      ],
      "hex": "01000000010000000000000000000000000000000000000000000000000000000000000000ffffffff0804ffff001d026809ffffffff0100f2052a0100000043410419ca9b6d6609841bc2bf1fa2fe1a88fed0c50b09f66d10f8737a08d8ca858c44fe56eeaf9dfa07e8bb9576a2f9785131069b9706495b82a59efd0b79f3e820dcac00000000"
    }
  ]
}