{
  "hash": "00000000197e908be9fe98cc0a77e7578be2c575db0033ba7fb8e5e277a35149",
  "confirmations": 45953,
  "height": 7145,
  "version": 1,
  "versionHex": "00000001",
  "merkleroot": "9d4730e623f0b7460c910dc92e8a77457dff55689e12122e92c277dc048439cd",
  "time": 1236831701,
  "mediantime": 1236826031,
  "nonce": 1592233503,
  "bits": "1d00ffff",
  "difficulty": 1,
  "chainwork": "00000000000000000000000000000000000000000000000000001bea1bea1bea",
  "nTx": 1,
  "previousblockhash": "000000002612547d0fcea4f7d8b80a3df6659b71d346e3d306a3c86e21be8d22",
  "nextblockhash": "0000000026b19c784491f37573fc9f23370abf0188f819b3254030a7452d9a96",
  "strippedsize": 216,
  "size": 216,
  "weight": 864,
  "tx": [
    {
      "txid": "9d4730e623f0b7460c910dc92e8a77457dff55689e12122e92c277dc048439cd",
      "hash": "9d4730e623f0b7460c910dc92e8a77457dff55689e12122e92c277dc048439cd",
      "version": 1,
      "size": 135,
      "vsize": 135,
      "weight": 540,
      "locktime": 0,
      "vin": [
        {
          "coinbase": "04ffff001d02e204",
          "sequence": 4294967295
        }
      ],
      "vout": [
        {
          "value": 50.0,
          "n": 0,
          "scriptPubKey": {
            "asm": "04633ad401d13ac87982744ce31e3dea8f6e6d38559bf7dce727c20ff2529f7d04050df27fcc2a5d66aff8844641b12c5daf4680c4e4f4b6cdb41076243169d799 OP_CHECKSIG",
            "desc": "pk(04633ad401d13ac87982744ce31e3dea8f6e6d38559bf7dce727c20ff2529f7d04050df27fcc2a5d66aff8844641b12c5daf4680c4e4f4b6cdb41076243169d799)#mfhkhv82",
            "hex": "4104633ad401d13ac87982744ce31e3dea8f6e6d38559bf7dce727c20ff2529f7d04050df27fcc2a5d66aff8844641b12c5daf4680c4e4f4b6cdb41076243169d799ac",
            "type": "pubkey"
          }
        }
      ],
      "hex": "01000000010000000000000000000000000000000000000000000000000000000000000000ffffffff0804ffff001d02e204ffffffff0100f2052a01000000434104633ad401d13ac87982744ce31e3dea8f6e6d38559bf7dce727c20ff2529f7d04050df27fcc2a5d66aff8844641b12c5daf4680c4e4f4b6cdb41076243169d799ac00000000"
    }
  ]
}