{
  "hash": "0000000046f671b1a1a53fb5d2d63086b9023348c6e7829a76f0a4375d405804",
  "confirmations": 46199,
  "height": 6899,
  "version": 1,
  "versionHex": "00000001",
  "merkleroot": "0f3eef4bc230d4e0f6dfffc41cc140aa13aec09252e272c1d569d4d3703b47bf",
  "time": 1236636314,
  "mediantime": 1236632471,
  "nonce": 405768483,
  "bits": "1d00ffff",
  "difficulty": 1,
  "chainwork": "00000000000000000000000000000000000000000000000000001af41af41af4",
  "nTx": 1,
  "previousblockhash": "00000000986c05c1a1eb41f01d51b3fdcf6b566fdd549fc32be58d4a1b792ff9",
  "nextblockhash": "000000002855bc26b205524b86a8c5440a1fb7f05b136d840310308716c3a3cf",
  "strippedsize": 215,
  "size": 215,
  "weight": 860,
  "tx": [
    {
      "txid": "0f3eef4bc230d4e0f6dfffc41cc140aa13aec09252e272c1d569d4d3703b47bf",
      "hash": "0f3eef4bc230d4e0f6dfffc41cc140aa13aec09252e272c1d569d4d3703b47bf",
      "version": 1,
      "size": 134,
      "vsize": 134,
      "weight": 536,
      "locktime": 0,
      "vin": [
        {
          "coinbase": "04ffff001d014f",
          "sequence": 4294967295
        }
      ],
      "vout": [
        {
          "value": 50.0,
          "n": 0,
          "scriptPubKey": {
            "asm": "04afea36d561f07c3939d0bed6bacc5c4e8ea5e3ad43f8c35fb866a858d69b74616007770554f195f513d5cab190ae359817f18c3e959e65d27b80d105cac8eaf2 OP_CHECKSIG",
            "desc": "pk(04afea36d561f07c3939d0bed6bacc5c4e8ea5e3ad43f8c35fb866a858d69b74616007770554f195f513d5cab190ae359817f18c3e959e65d27b80d105cac8eaf2)#yfppjr3a",
            "hex": "4104afea36d561f07c3939d0bed6bacc5c4e8ea5e3ad43f8c35fb866a858d69b74616007770554f195f513d5cab190ae359817f18c3e959e65d27b80d105cac8eaf2ac",
            "type": "pubkey"
          }
        }
      ],
      "hex": "01000000010000000000000000000000000000000000000000000000000000000000000000ffffffff0704ffff001d014fffffffff0100f2052a01000000434104afea36d561f07c3939d0bed6bacc5c4e8ea5e3ad43f8c35fb866a858d69b74616007770554f195f513d5cab190ae359817f18c3e959e65d27b80d105cac8eaf2ac00000000"
    }
  ]
}