{
  "hash": "00000000941b0df270986c8df97730b912e6dd19e2aa47b8ac6e994479afdd04",
  "confirmations": 49837,
  "height": 3261,
  "version": 1,
  "versionHex": "00000001",
  "merkleroot": "af745d2107ea16e4b1c1a6abf6b410c944d18bf0132bf8b70089b9416accbde3",
  "time": 1233943475,
  "mediantime": 1233939949,
  "nonce": 175946019,
  "bits": "1d00ffff",
  "difficulty": 1,
  "chainwork": "00000000000000000000000000000000000000000000000000000cbe0cbe0cbe",
  "nTx": 1,
  "previousblockhash": "00000000345b12eaca4c045bb0320d37fb34026b8b5f2e951c617e4b90bde130",
  "nextblockhash": "000000001f7d36376d55585e6f69f1f7b4403cf94f30f7d5d523605420a30032",
  "strippedsize": 216,
  "size": 216,
  "weight": 864,
  "tx": [
    {
      "txid": "af745d2107ea16e4b1c1a6abf6b410c944d18bf0132bf8b70089b9416accbde3",
      "hash": "af745d2107ea16e4b1c1a6abf6b410c944d18bf0132bf8b70089b9416accbde3",
      "version": 1,
      "size": 135,
      "vsize": 135,
      "weight": 540,
      "locktime": 0,
      "vin": [
        {
          "coinbase": "04ffff001d023d08",
          "sequence": 4294967295
        }
      ],
      "vout": [
        {
          "value": 50.0,
          "n": 0,
          "scriptPubKey": {
            "asm": "04b8bc0851885c84ae6b99311045c4439dce460e7633cc6759e7c427066fee3f394b54dcc99699013dc878a4688ecf3f80df5307844157b97643ac8a1d9357206a OP_CHECKSIG",
            "desc": "pk(04b8bc0851885c84ae6b99311045c4439dce460e7633cc6759e7c427066fee3f394b54dcc99699013dc878a4688ecf3f80df5307844157b97643ac8a1d9357206a)#h6tj5grt",
            "hex": "4104b8bc0851885c84ae6b99311045c4439dce460e7633cc6759e7c427066fee3f394b54dcc99699013dc878a4688ecf3f80df5307844157b97643ac8a1d9357206aac",
            "type": "pubkey"
          }
        }
      ],
      "hex": "01000000010000000000000000000000000000000000000000000000000000000000000000ffffffff0804ffff001d023d08ffffffff0100f2052a01000000434104b8bc0851885c84ae6b99311045c4439dce460e7633cc6759e7c427066fee3f394b54dcc99699013dc878a4688ecf3f80df5307844157b97643ac8a1d9357206aac00000000"
    }
  ]
}