{
  "hash": "00000000a1f0deedb6706ae3d238df794df735aa9c7adef928a67cfb84869b71",
  "confirmations": 52185,
  "height": 478,
  "version": 1,
  "versionHex": "00000001",
  "merkleroot": "443ff5269a744272769e03fbc0d8db6f2201f1db65c703bf037f4e63f53d889c",
  "time": 1231953545,
  "mediantime": 1231950272,
  "nonce": 372783402,
  "bits": "1d00ffff",
  "difficulty": 1,
  "chainwork": "000000000000000000000000000000000000000000000000000001df01df01df",
  "nTx": 1,
  "previousblockhash": "00000000e15bee1a653b171741fdd792b4936a22990c7a08764349f06239001e",
  "nextblockhash": "00000000e2128d66b97e0b76b9fb06f58121e08b9b549a16411299dea3509cb3",
  "strippedsize": 216,
  "size": 216,
  "weight": 864,
  "tx": [
    {
      "txid": "443ff5269a744272769e03fbc0d8db6f2201f1db65c703bf037f4e63f53d889c",
      "hash": "443ff5269a744272769e03fbc0d8db6f2201f1db65c703bf037f4e63f53d889c",
      "version": 1,
      "size": 135,
      "vsize": 135,
      "weight": 540,
      "locktime": 0,
      "vin": [
        {
          "coinbase": "04ffff001d021304",
          "sequence": 4294967295
        }
      ],
      "vout": [
        {
          "value": 50.0,
          "n": 0,
          "scriptPubKey": {
            "asm": "04258da70730b48a6c68a59331c83924a7cf4d88e014431bf789c02e33fed43d6cdb71d584d6992a831d088e9bc6972202e6572c45a00ee0976f318b9ef39e40a6 OP_CHECKSIG",
            "desc": "pk(04258da70730b48a6c68a59331c83924a7cf4d88e014431bf789c02e33fed43d6cdb71d584d6992a831d088e9bc6972202e6572c45a00ee0976f318b9ef39e40a6)#4qqcp2tr",
            "hex": "4104258da70730b48a6c68a59331c83924a7cf4d88e014431bf789c02e33fed43d6cdb71d584d6992a831d088e9bc6972202e6572c45a00ee0976f318b9ef39e40a6ac",
            "type": "pubkey"
          }
        }
      ],
      "hex": "01000000010000000000000000000000000000000000000000000000000000000000000000ffffffff0804ffff001d021304ffffffff0100f2052a01000000434104258da70730b48a6c68a59331c83924a7cf4d88e014431bf789c02e33fed43d6cdb71d584d6992a831d088e9bc6972202e6572c45a00ee0976f318b9ef39e40a6ac00000000"
    }
  ]
}