{
  "hash": "00000000e54ab466b9ff2411cd7fbafcbb94d129e8b77c23c7e5dc6ee70664b2",
  "confirmations": 51562,
  "height": 1536,
  "version": 1,
  "versionHex": "00000001",
  "merkleroot": "a5ee760407129a58bc71938c24c414c64fbee9319635f5a59d125b390c60ebb2",
  "time": 1232782688,
  "mediantime": 1232780448,
  "nonce": 725013511,
  "bits": "1d00ffff",
  "difficulty": 1,
  "chainwork": "0000000000000000000000000000000000000000000000000000060106010601",
  "nTx": 1,
  "previousblockhash": "00000000033500537dffe75a6bb5d2b55934001a6d787b1a7c6605742389f6fb",
  "nextblockhash": "00000000809330f2851b51d33720a96fb9f1333fec63a306d626412d7115ab17",
  "strippedsize": 216,
  "size": 216,
  "weight": 864,
  "tx": [
    {
      "txid": "a5ee760407129a58bc71938c24c414c64fbee9319635f5a59d125b390c60ebb2",
      "hash": "a5ee760407129a58bc71938c24c414c64fbee9319635f5a59d125b390c60ebb2",
      "version": 1,
      "size": 135,
      "vsize": 135,
      "weight": 540,
      "locktime": 0,
      "vin": [
        {
          "coinbase": "04ffff001d027601",
          "sequence": 4294967295
        }
      ],
      "vout": [
        {
          "value": 50.0,
          "n": 0,
          "scriptPubKey": {
            "asm": "0474fb29873ab8efbb59bb8730714788b2ea04419d772b417ab98f81e697dd23ac4339a0e3869eb9d01499af32248dab85b63f07244918dec7a90f5e7cfa89e421 OP_CHECKSIG",
            "desc": "pk(0474fb29873ab8efbb59bb8730714788b2ea04419d772b417ab98f81e697dd23ac4339a0e3869eb9d01499af32248dab85b63f07244918dec7a90f5e7cfa89e421)#j5h2uktu",
            "hex": "410474fb29873ab8efbb59bb8730714788b2ea04419d772b417ab98f81e697dd23ac4339a0e3869eb9d01499af32248dab85b63f07244918dec7a90f5e7cfa89e421ac",
            "type": "pubkey"
          }
        }
      ],
      "hex": "01000000010000000000000000000000000000000000000000000000000000000000000000ffffffff0804ffff001d027601ffffffff0100f2052a0100000043410474fb29873ab8efbb59bb8730714788b2ea04419d772b417ab98f81e697dd23ac4339a0e3869eb9d01499af32248dab85b63f07244918dec7a90f5e7cfa89e421ac00000000"
    }
  ]
}