{
  "hash": "000000003f5dccc4e0bdac7081755b9d9ee17e7737316202b900d1c567c5abae",
  "confirmations": 51999,
  "height": 109,
  "version": 1,
  "versionHex": "00000001",
  "merkleroot": "a3007f3f43250476e47d2326dff86155f219294467da4e9e66a168abfab4b230",
  "time": 1231667774,
  "mediantime": 1231664009,
  "nonce": 1311612469,
  "bits": "1d00ffff",
  "difficulty": 1,
  "chainwork": "0000000000000000000000000000000000000000000000000000006e006e006e",
  "nTx": 1,
  "previousblockhash": "0000000042afd69ddd5c5e2e9f58f65e88bde9a53f9f8f69a6e5ca93b07a24cf",
  "nextblockhash": "00000000a30e366158a1813a6fda9f913497000a68f1c008b9f935b866cee55b",
  "strippedsize": 216,
  "size": 216,
  "weight": 864,
  "tx": [
    {
      "txid": "a3007f3f43250476e47d2326dff86155f219294467da4e9e66a168abfab4b230",
      "hash": "a3007f3f43250476e47d2326dff86155f219294467da4e9e66a168abfab4b230",
      "version": 1,
      "size": 135,
      "vsize": 135,
      "weight": 540,
      "locktime": 0,
      "vin": [
        {
          "coinbase": "04ffff001d028f00",
          "sequence": 4294967295
        }
      ],
      "vout": [
        {
          "value": 50.0,
          "n": 0,
          "scriptPubKey": {
            "asm": "040a2e3fd6c40ec70cb3d47dd3cf2208d487eadb3631ce499a474bfec2e2f449b8cadbd02bea341f9d996f5af053168362c9f188641ad2959c3b2a0e48ffc40a8f OP_CHECKSIG",
            "desc": "pk(040a2e3fd6c40ec70cb3d47dd3cf2208d487eadb3631ce499a474bfec2e2f449b8cadbd02bea341f9d996f5af053168362c9f188641ad2959c3b2a0e48ffc40a8f)#k6y47vxt",
            "hex": "41040a2e3fd6c40ec70cb3d47dd3cf2208d487eadb3631ce499a474bfec2e2f449b8cadbd02bea341f9d996f5af053168362c9f188641ad2959c3b2a0e48ffc40a8fac",
            "type": "pubkey"
          }
        }
      ],
      "hex": "01000000010000000000000000000000000000000000000000000000000000000000000000ffffffff0804ffff001d028f00ffffffff0100f2052a010000004341040a2e3fd6c40ec70cb3d47dd3cf2208d487eadb3631ce499a474bfec2e2f449b8cadbd02bea341f9d996f5af053168362c9f188641ad2959c3b2a0e48ffc40a8fac00000000"
    }
  ]
}