{
  "hash": "00000000024cb649bbe6303f9b11d2646b350a34518b0c22070765485765a7e7",
  "confirmations": 45522,
  "height": 7576,
  "version": 1,
  "versionHex": "00000001",
  "merkleroot": "7f22132cc6c6a2e50f39b6ebfababe1a073b4f923f5b3cbd876ac23c0591b48f",
  "time": 1237151420,
  "mediantime": 1237149230,
  "nonce": 1465357101,
  "bits": "1d00ffff",
  "difficulty": 1,
  "chainwork": "00000000000000000000000000000000000000000000000000001d991d991d99",
  "nTx": 1,
  "previousblockhash": "000000007e3905634e9e1aea0ceb71782b58ccc33d12c05c35db2b7d9600c8ec",
  "nextblockhash": "0000000095f150c1c42e80c0fc1c76e15263db5622ba58e44c4816d3ecf2bc28",
  "strippedsize": 216,
  "size": 216,
  "weight": 864,
  "tx": [
    {
      "txid": "7f22132cc6c6a2e50f39b6ebfababe1a073b4f923f5b3cbd876ac23c0591b48f",
      "hash": "7f22132cc6c6a2e50f39b6ebfababe1a073b4f923f5b3cbd876ac23c0591b48f",
      "version": 1,
      "size": 135,
      "vsize": 135,
      "weight": 540,
      "locktime": 0,
      "vin": [
        {
          "coinbase": "04ffff001d024802",
          "sequence": 4294967295
        }
      ],
      "vout": [
        {
          "value": 50.0,
          "n": 0,
          "scriptPubKey": {
            "asm": "0470a83e5c8baa06ac5cb9c7621a5707071bfd8506ffac7e959b13a6fba6fe20eec9e0ee2a9f31b4041e4c51f20a763cc47746a6afe4c70b410f234080a2cee571 OP_CHECKSIG",
            "desc": "pk(0470a83e5c8baa06ac5cb9c7621a5707071bfd8506ffac7e959b13a6fba6fe20eec9e0ee2a9f31b4041e4c51f20a763cc47746a6afe4c70b410f234080a2cee571)#f9w0dqg0",
            "hex": "410470a83e5c8baa06ac5cb9c7621a5707071bfd8506ffac7e959b13a6fba6fe20eec9e0ee2a9f31b4041e4c51f20a763cc47746a6afe4c70b410f234080a2cee571ac",
            "type": "pubkey"
          }
        }
      ],
      "hex": "01000000010000000000000000000000000000000000000000000000000000000000000000ffffffff0804ffff001d024802ffffffff0100f2052a0100000043410470a83e5c8baa06ac5cb9c7621a5707071bfd8506ffac7e959b13a6fba6fe20eec9e0ee2a9f31b4041e4c51f20a763cc47746a6afe4c70b410f234080a2cee571ac00000000"
    }
  ]
}