{
  "hash": "000000007f030f9dc40eb3c9b3b5aea163105bee02fa6f539c5ee7cab649f944",
  "confirmations": 52117,
  "height": 981,
  "version": 1,
  "versionHex": "00000001",
  "merkleroot": "ecaf911acdb8f76e56eea318c3cb91c1d0b08c85048ae0596e70bd9de4f349ef",
  "time": 1232335733,
  "mediantime": 1232331030,
  "nonce": 1365848084,
  "bits": "1d00ffff",
  "difficulty": 1,
  "chainwork": "000000000000000000000000000000000000000000000000000003d603d603d6",
  "nTx": 1,
  "previousblockhash": "00000000597a88a69db95f4d27a4f4438041770ece5eeb66642bee1e95a81ad7",
  "nextblockhash": "000000000bdef3b2f2cf98e7dfbbf1d2c2301f6174797c80fe447218e138364d",
  "strippedsize": 216,
  "size": 216,
  "weight": 864,
  "tx": [
    {
      "txid": "ecaf911acdb8f76e56eea318c3cb91c1d0b08c85048ae0596e70bd9de4f349ef",
      "hash": "ecaf911acdb8f76e56eea318c3cb91c1d0b08c85048ae0596e70bd9de4f349ef",
      "version": 1,
      "size": 135,
      "vsize": 135,
      "weight": 540,
      "locktime": 0,
      "vin": [
        {
          "coinbase": "04ffff001d02d904",
          "sequence": 4294967295
        }
      ],
      "vout": [
        {
          "value": 50.0,
          "n": 0,
          "scriptPubKey": {
            "asm": "049020adc7632ab1ca911599a470a0d22a6fd229211302cff8926bb882b49cc1836281ec9aa7be043a6908df09f33895ee8bc75f80613e8a64aeb22211f3dd078d OP_CHECKSIG",
            "desc": "pk(049020adc7632ab1ca911599a470a0d22a6fd229211302cff8926bb882b49cc1836281ec9aa7be043a6908df09f33895ee8bc75f80613e8a64aeb22211f3dd078d)#99hhqed7",
            "hex": "41049020adc7632ab1ca911599a470a0d22a6fd229211302cff8926bb882b49cc1836281ec9aa7be043a6908df09f33895ee8bc75f80613e8a64aeb22211f3dd078dac",
            "type": "pubkey"
          }
        }
      ],
      "hex": "01000000010000000000000000000000000000000000000000000000000000000000000000ffffffff0804ffff001d02d904ffffffff0100f2052a010000004341049020adc7632ab1ca911599a470a0d22a6fd229211302cff8926bb882b49cc1836281ec9aa7be043a6908df09f33895ee8bc75f80613e8a64aeb22211f3dd078dac00000000"
    }
  ]
}