{
  "hash": "000000002ce859c01fadb6cfdc296ba3aa15dad5b86f1f0693c50b89decc92e1",
  "confirmations": 43884,
  "height": 9214,
  "version": 1,
  "versionHex": "00000001",
  "merkleroot": "0c01d971735c10cea101a60e12f08f744abb0378b6082eec36740b7071a9d178",
  "time": 1238411720,
  "mediantime": 1238408754,
  "nonce": 393629018,
  "bits": "1d00ffff",
  "difficulty": 1,
  "chainwork": "000000000000000000000000000000000000000000000000000023ff23ff23ff",
  "nTx": 1,
  "previousblockhash": "000000007c3fd386028ec46b58517d8a08a719a5874ba5d1ed45c875fe1a0b28",
  "nextblockhash": "0000000094c61c16308c0e2c2e482835fd30c30a04ac2f833bc2b529ce6ee38c",
  "strippedsize": 216,
  "size": 216,
  "weight": 864,
  "tx": [
    {
      "txid": "0c01d971735c10cea101a60e12f08f744abb0378b6082eec36740b7071a9d178",
      "hash": "0c01d971735c10cea101a60e12f08f744abb0378b6082eec36740b7071a9d178",
      "version": 1,
      "size": 135,
      "vsize": 135,
      "weight": 540,
      "locktime": 0,
      "vin": [
        {
          "coinbase": "04ffff001d02a604",
          "sequence": 4294967295
        }
      ],
      "vout": [
        {
          "value": 50.0,
          "n": 0,
          "scriptPubKey": {
            "asm": "04c8ff47ccc1768bd5ff571c51383618970c13fed009517c94c431941135c426d35660233eec537a9a86e8a6c51236616c6e4cd1eac09801babb6c931b4300b4d9 OP_CHECKSIG",
            "desc": "pk(04c8ff47ccc1768bd5ff571c51383618970c13fed009517c94c431941135c426d35660233eec537a9a86e8a6c51236616c6e4cd1eac09801babb6c931b4300b4d9)#t2puq8e5",
            "hex": "4104c8ff47ccc1768bd5ff571c51383618970c13fed009517c94c431941135c426d35660233eec537a9a86e8a6c51236616c6e4cd1eac09801babb6c931b4300b4d9ac",
            "type": "pubkey"
          }
        }
      ],
      "hex": "01000000010000000000000000000000000000000000000000000000000000000000000000ffffffff0804ffff001d02a604ffffffff0100f2052a01000000434104c8ff47ccc1768bd5ff571c51383618970c13fed009517c94c431941135c426d35660233eec537a9a86e8a6c51236616c6e4cd1eac09801babb6c931b4300b4d9ac00000000"
    }
  ]
}