{
  "hash": "000000006c76b29ccdcf929a0dd16d6df4e26de60cc6cdcb31bbc58cb3cb6789",
  "confirmations": 51119,
  "height": 1979,
  "version": 1,
  "versionHex": "00000001",
  "merkleroot": "4f5e13797ba9317e12b9c530fa3b6329af1d3002af79d889d9cfe9fa9bf69bd2",
  "time": 1233029617,
  "mediantime": 1233026468,
  "nonce": 3148580,
  "bits": "1d00ffff",
  "difficulty": 1,
  "chainwork": "000000000000000000000000000000000000000000000000000007bc07bc07bc",
  "nTx": 1,
  "previousblockhash": "00000000abd7ba2d26bf3d2079a2406f6643d32e16bb41d4d4ff10277b6a5743",
  "nextblockhash": "000000001655468039ac54eb2f17e14c58f751ad6e044d1e80e1624847d2b6ac",
  "strippedsize": 216,
  "size": 216,
  "weight": 864,
  "tx": [
    {
      "txid": "4f5e13797ba9317e12b9c530fa3b6329af1d3002af79d889d9cfe9fa9bf69bd2",
      "hash": "4f5e13797ba9317e12b9c530fa3b6329af1d3002af79d889d9cfe9fa9bf69bd2",
      "version": 1,
      "size": 135,
      "vsize": 135,
      "weight": 540,
      "locktime": 0,
      "vin": [
        {
          "coinbase": "04ffff001d022001",
          "sequence": 4294967295
        }
      ],
      "vout": [
        {
          "value": 50.0,
          "n": 0,
          "scriptPubKey": {
            "asm": "048725f91fdd47e55db2f8d8e1ba1166d9da3ee5ac4477fa53b1af31df7225fde7254cf9816cc5c45961467b986bf959b40d35b3de14ce02dd48d0180ac92de7e3 OP_CHECKSIG",
            "desc": "pk(048725f91fdd47e55db2f8d8e1ba1166d9da3ee5ac4477fa53b1af31df7225fde7254cf9816cc5c45961467b986bf959b40d35b3de14ce02dd48d0180ac92de7e3)#cqn93gqz",
            "hex": "41048725f91fdd47e55db2f8d8e1ba1166d9da3ee5ac4477fa53b1af31df7225fde7254cf9816cc5c45961467b986bf959b40d35b3de14ce02dd48d0180ac92de7e3ac",
            "type": "pubkey"
          }
        }
      ],
      "hex": "01000000010000000000000000000000000000000000000000000000000000000000000000ffffffff0804ffff001d022001ffffffff0100f2052a010000004341048725f91fdd47e55db2f8d8e1ba1166d9da3ee5ac4477fa53b1af31df7225fde7254cf9816cc5c45961467b986bf959b40d35b3de14ce02dd48d0180ac92de7e3ac00000000"
    }
  ]
}