{
  "hash": "000000009043f3e65683b7eb3ceb3f51ae254cc8ddd2e014bdf244dfb9f65ba3",
  "confirmations": 47973,
  "height": 5125,
  "version": 1,
  "versionHex": "00000001",
  "merkleroot": "f620bb769866b5f9513b73a9b13bfed3fb196f7bfa02af273ea08bbb53438208",
  "time": 1235234025,
  "mediantime": 1235232137,
  "nonce": 986158361,
  "bits": "1d00ffff",
  "difficulty": 1,
  "chainwork": "0000000000000000000000000000000000000000000000000000140614061406",
  "nTx": 1,
  "previousblockhash": "000000004276bb19c09247e33ba2aa49b8b5eb68b3b55d975bbd509e1f402c4f",
  "nextblockhash": "00000000e8d3821a71325c30f78bda5a83dc908155e4e0eb2e2be8daaf478c2c",
  "strippedsize": 216,
  "size": 216,
  "weight": 864,
  "tx": [
    {
      "txid": "f620bb769866b5f9513b73a9b13bfed3fb196f7bfa02af273ea08bbb53438208",
      "hash": "f620bb769866b5f9513b73a9b13bfed3fb196f7bfa02af273ea08bbb53438208",
      "version": 1,
      "size": 135,
      "vsize": 135,
      "weight": 540,
      "locktime": 0,
      "vin": [
        {
          "coinbase": "04ffff001d026b09",
          "sequence": 4294967295
        }
      ],
      "vout": [
        {
          "value": 50.0,
          "n": 0,
          "scriptPubKey": {
            "asm": "04c6b5cfb3b010a95320bcc37254b649588d35a8f9fde45cdd7b4b8bf5f7fc5bc73d05bdd7b1b94e25193801a8a00f5b92055ee9079ec93598127bef9a9ea691f4 OP_CHECKSIG",
            "desc": "pk(04c6b5cfb3b010a95320bcc37254b649588d35a8f9fde45cdd7b4b8bf5f7fc5bc73d05bdd7b1b94e25193801a8a00f5b92055ee9079ec93598127bef9a9ea691f4)#w7l04ddc",
            "hex": "4104c6b5cfb3b010a95320bcc37254b649588d35a8f9fde45cdd7b4b8bf5f7fc5bc73d05bdd7b1b94e25193801a8a00f5b92055ee9079ec93598127bef9a9ea691f4ac",
            "type": "pubkey"
          }
        }
      ],
      "hex": "01000000010000000000000000000000000000000000000000000000000000000000000000ffffffff0804ffff001d026b09ffffffff0100f2052a01000000434104c6b5cfb3b010a95320bcc37254b649588d35a8f9fde45cdd7b4b8bf5f7fc5bc73d05bdd7b1b94e25193801a8a00f5b92055ee9079ec93598127bef9a9ea691f4ac00000000"
    }
  ]
}