{
  "hash": "00000000ca9437f9df341b6299905c0e2bc1bfb4a55241e45a22cae02b6aed92",
  "confirmations": 43738,
  "height": 9360,
  "version": 1,
  "versionHex": "00000001",
  "merkleroot": "6d8fb6059135a692a6809deccfd2f2a1a123f2bcdcc81f58ba46c0053c80c991",
  "time": 1238518093,
  "mediantime": 1238515237,
  "nonce": 2693734702,
  "bits": "1d00ffff",
  "difficulty": 1,
  "chainwork": "0000000000000000000000000000000000000000000000000000249124912491",
  "nTx": 1,
  "previousblockhash": "00000000e3895990e541f0e1728fe4114db8a7ed0fdb461d190dd4308817abe6",
  "nextblockhash": "00000000a112cdaf41ae5037132d00c4d62cbe91f5d089966fe5a9d0bd56a7ea",
  "strippedsize": 216,
  "size": 216,
  "weight": 864,
  "tx": [
    {
      "txid": "6d8fb6059135a692a6809deccfd2f2a1a123f2bcdcc81f58ba46c0053c80c991",
      "hash": "6d8fb6059135a692a6809deccfd2f2a1a123f2bcdcc81f58ba46c0053c80c991",
      "version": 1,
      "size": 135,
      "vsize": 135,
      "weight": 540,
      "locktime": 0,
      "vin": [
        {
          "coinbase": "04ffff001d02c302",
          "sequence": 4294967295
        }
      ],
      "vout": [
        {
          "value": 50.0,
          "n": 0,
          "scriptPubKey": {
            "asm": "04e6b6efcbad1d3d67e29e11af3dc0636ef67d43090ad09c32a5c7d5cf48ac38caf6c5e3adc39b7d1d847293c6b8bdac478a7afeec8393539dbd4179e6d4fe8012 OP_CHECKSIG",
            "desc": "pk(04e6b6efcbad1d3d67e29e11af3dc0636ef67d43090ad09c32a5c7d5cf48ac38caf6c5e3adc39b7d1d847293c6b8bdac478a7afeec8393539dbd4179e6d4fe8012)#u3xhk5nv",
            "hex": "4104e6b6efcbad1d3d67e29e11af3dc0636ef67d43090ad09c32a5c7d5cf48ac38caf6c5e3adc39b7d1d847293c6b8bdac478a7afeec8393539dbd4179e6d4fe8012ac",
            "type": "pubkey"
          }
        }
      ],
      "hex": "01000000010000000000000000000000000000000000000000000000000000000000000000ffffffff0804ffff001d02c302ffffffff0100f2052a01000000434104e6b6efcbad1d3d67e29e11af3dc0636ef67d43090ad09c32a5c7d5cf48ac38caf6c5e3adc39b7d1d847293c6b8bdac478a7afeec8393539dbd4179e6d4fe8012ac00000000"
    }
  ]
}