{
  "hash": "000000008c0ee094ee47ca98069bd49cb9c2417ee52f24476eef30b03da79553",
  "confirmations": 52532,
  "height": 566,
  "version": 1,
  "versionHex": "00000001",
  "merkleroot": "6cec9aca315f491c42c5ae9d838ea4202f10863eb08c87613b446e9eff643ca2",
  "time": 1232014595,
  "mediantime": 1232011955,
  "nonce": 1507672885,
  "bits": "1d00ffff",
  "difficulty": 1,
  "chainwork": "0000000000000000000000000000000000000000000000000000023702370237",
  "nTx": 1,
  "previousblockhash": "00000000d35ef9ae4b7ebdcfb05560bc578ce150508b20fbb1f8d961034b66c1",
  "nextblockhash": "0000000014d1fd4bbd117d952efac678911969dee3640944a830d024b9eb7375",
  "strippedsize": 216,
  "size": 216,
  "weight": 864,
  "tx": [
    {
      "txid": "6cec9aca315f491c42c5ae9d838ea4202f10863eb08c87613b446e9eff643ca2",
      "hash": "6cec9aca315f491c42c5ae9d838ea4202f10863eb08c87613b446e9eff643ca2",
      "version": 1,
      "size": 135,
      "vsize": 135,
      "weight": 540,
      "locktime": 0,
      "vin": [
        {
          "coinbase": "04ffff001d02fb05",
          "sequence": 4294967295
        }
      ],
      "vout": [
        {
          "value": 50.0,
          "n": 0,
          "scriptPubKey": {
            "asm": "044faaa36b949d5cbfefcca13d9f42f0d607ce5ebaecaec839de83c7c62e23f43ddf98425f8aca84e51bde83a6ddb471ff50d80e8d22643eaf81fba38af2d75e6f OP_CHECKSIG",
            "desc": "pk(044faaa36b949d5cbfefcca13d9f42f0d607ce5ebaecaec839de83c7c62e23f43ddf98425f8aca84e51bde83a6ddb471ff50d80e8d22643eaf81fba38af2d75e6f)#sd7weqh8",
            "hex": "41044faaa36b949d5cbfefcca13d9f42f0d607ce5ebaecaec839de83c7c62e23f43ddf98425f8aca84e51bde83a6ddb471ff50d80e8d22643eaf81fba38af2d75e6fac",
            "type": "pubkey"
          }
        }
      ],
      "hex": "01000000010000000000000000000000000000000000000000000000000000000000000000ffffffff0804ffff001d02fb05ffffffff0100f2052a010000004341044faaa36b949d5cbfefcca13d9f42f0d607ce5ebaecaec839de83c7c62e23f43ddf98425f8aca84e51bde83a6ddb471ff50d80e8d22643eaf81fba38af2d75e6fac00000000"
    }
  ]
}