{
  "hash": "000000004747b92355b84ab0e4a53a411fc640485f3c055b0f7895e6c074d650",
  "confirmations": 49907,
  "height": 3191,
  "version": 1,
  "versionHex": "00000001",
  "merkleroot": "b3288dbd961c18e862a9b968920026d5bcfbc86c2901c0a24784bb25ac54877a",
  "time": 1233892781,
  "mediantime": 1233890328,
  "nonce": 1896371484,
  "bits": "1d00ffff",
  "difficulty": 1,
  "chainwork": "00000000000000000000000000000000000000000000000000000c780c780c78",
  "nTx": 1,
  "previousblockhash": "00000000fd9f150c071a51835926824d720989c60fd7c6ea1aaf07f789cc5932",
  "nextblockhash": "00000000c52f9f67991800a704489d66653bcf91d1a950cc966820ff53a6a067",
  "strippedsize": 216,
  "size": 216,
  "weight": 864,
  "tx": [
    {
      "txid": "b3288dbd961c18e862a9b968920026d5bcfbc86c2901c0a24784bb25ac54877a",
      "hash": "b3288dbd961c18e862a9b968920026d5bcfbc86c2901c0a24784bb25ac54877a",
      "version": 1,
      "size": 135,
      "vsize": 135,
      "weight": 540,
      "locktime": 0,
      "vin": [
        {
          "coinbase": "04ffff001d028f02",
          "sequence": 4294967295
        }
      ],
      "vout": [
        {
          "value": 50.0,
          "n": 0,
          "scriptPubKey": {
            "asm": "04d7e8ccc163810a4ce0c3945337c9070209d206a1879698ff23604a86a05f797fdf0a245ad9bcaabe0b8e19ae4a1adde686e9128361e68e20acb5700a3dbc8fb5 OP_CHECKSIG",
            "desc": "pk(04d7e8ccc163810a4ce0c3945337c9070209d206a1879698ff23604a86a05f797fdf0a245ad9bcaabe0b8e19ae4a1adde686e9128361e68e20acb5700a3dbc8fb5)#xukwp09l",
            "hex": "4104d7e8ccc163810a4ce0c3945337c9070209d206a1879698ff23604a86a05f797fdf0a245ad9bcaabe0b8e19ae4a1adde686e9128361e68e20acb5700a3dbc8fb5ac",
            "type": "pubkey"
          }
        }
      ],
      "hex": "01000000010000000000000000000000000000000000000000000000000000000000000000ffffffff0804ffff001d028f02ffffffff0100f2052a01000000434104d7e8ccc163810a4ce0c3945337c9070209d206a1879698ff23604a86a05f797fdf0a245ad9bcaabe0b8e19ae4a1adde686e9128361e68e20acb5700a3dbc8fb5ac00000000"
    }
  ]
}