{
  "hash": "0000000002409962f89d663037584576946a5f685d2d5baf7afaea685532ec76",
  "confirmations": 52246,
  "height": 852,
  "version": 1,
  "versionHex": "00000001",
  "merkleroot": "362f1da2f76d1096dae5c946cc7912189d4d6a5eb2cda130aabd6c618bb7dd71",
  "time": 1232230602,
  "mediantime": 1232226781,
  "nonce": 3628017152,
  "bits": "1d00ffff",
  "difficulty": 1,
  "chainwork": "0000000000000000000000000000000000000000000000000000035503550355",
  "nTx": 1,
  "previousblockhash": "0000000045c8a34e1ebcb1a568ba89786fa79106dfe99740651ec249bd6ba989",
  "nextblockhash": "00000000b00e6bfa1742d8b209ea16cff0ca1f8466fa29fb9b171a1fcf9e09e9",
  "strippedsize": 216,
  "size": 216,
  "weight": 864,
  "tx": [
    {
      "txid": "362f1da2f76d1096dae5c946cc7912189d4d6a5eb2cda130aabd6c618bb7dd71",
      "hash": "362f1da2f76d1096dae5c946cc7912189d4d6a5eb2cda130aabd6c618bb7dd71",
      "version": 1,
      "size": 135,
      "vsize": 135,
      "weight": 540,
      "locktime": 0,
      "vin": [
        {
          "coinbase": "04ffff001d027b02",
          "sequence": 4294967295
        }
      ],
      "vout": [
        {
          "value": 50.0,
          "n": 0,
          "scriptPubKey": {
            "asm": "04c0e4e52fbcb5451ee1c40cee04f54ef0d53797542712679acdbb62c50ad2ad37a98715df1310ef60307514acb3edfcda7e956f8c27ae08c97d3d40c750056c7e OP_CHECKSIG",
            "desc": "pk(04c0e4e52fbcb5451ee1c40cee04f54ef0d53797542712679acdbb62c50ad2ad37a98715df1310ef60307514acb3edfcda7e956f8c27ae08c97d3d40c750056c7e)#t00j5k6u",
            "hex": "4104c0e4e52fbcb5451ee1c40cee04f54ef0d53797542712679acdbb62c50ad2ad37a98715df1310ef60307514acb3edfcda7e956f8c27ae08c97d3d40c750056c7eac",
            "type": "pubkey"
          }
        }
      ],
      "hex": "01000000010000000000000000000000000000000000000000000000000000000000000000ffffffff0804ffff001d027b02ffffffff0100f2052a01000000434104c0e4e52fbcb5451ee1c40cee04f54ef0d53797542712679acdbb62c50ad2ad37a98715df1310ef60307514acb3edfcda7e956f8c27ae08c97d3d40c750056c7eac00000000"
    }
  ]
}