{
  "hash": "000000006327405c513ba8016d62aa8963ba59f81272b2cd4d16b1a5f9b16ee7",
  "confirmations": 52018,
  "height": 1080,
  "version": 1,
  "versionHex": "00000001",
  "merkleroot": "3bbd4a05f81fffb3e7cf8472a165b3769e34c436a48c6dcd26536b8a11dc4bc5",
  "time": 1232409668,
  "mediantime": 1232404884,
  "nonce": 2344298012,
  "bits": "1d00ffff",
  "difficulty": 1,
  "chainwork": "0000000000000000000000000000000000000000000000000000043904390439",
  "nTx": 1,
  "previousblockhash": "0000000008d501c0bdaa3e966c59110a18546369e7ddd2bb81a7193b98769aa8",
  "nextblockhash": "00000000a748cbe2ec8fca05e61699e970173ab54dd13737a69a514fce64c3ee",
  "strippedsize": 216,
  "size": 216,
  "weight": 864,
  "tx": [
    {
      "txid": "3bbd4a05f81fffb3e7cf8472a165b3769e34c436a48c6dcd26536b8a11dc4bc5",
      "hash": "3bbd4a05f81fffb3e7cf8472a165b3769e34c436a48c6dcd26536b8a11dc4bc5",
      "version": 1,
      "size": 135,
      "vsize": 135,
      "weight": 540,
      "locktime": 0,
      "vin": [
        {
          "coinbase": "04ffff001d02b506",
          "sequence": 4294967295
        }
      ],
      "vout": [
        {
          "value": 50.0,
          "n": 0,
          "scriptPubKey": {
            "asm": "04e9c6ce62c24fb1d3e7d9f544da264933aa64e82380a817a8de94aa2ceab3899df8f1a07078cc3e795031b593597c5a602b68f3da1dde65e395147bdae2b57df3 OP_CHECKSIG",
            "desc": "pk(04e9c6ce62c24fb1d3e7d9f544da264933aa64e82380a817a8de94aa2ceab3899df8f1a07078cc3e795031b593597c5a602b68f3da1dde65e395147bdae2b57df3)#0hpk97u8",
            "hex": "4104e9c6ce62c24fb1d3e7d9f544da264933aa64e82380a817a8de94aa2ceab3899df8f1a07078cc3e795031b593597c5a602b68f3da1dde65e395147bdae2b57df3ac",
            "type": "pubkey"
          }
        }
      ],
      "hex": "01000000010000000000000000000000000000000000000000000000000000000000000000ffffffff0804ffff001d02b506ffffffff0100f2052a01000000434104e9c6ce62c24fb1d3e7d9f544da264933aa64e82380a817a8de94aa2ceab3899df8f1a07078cc3e795031b593597c5a602b68f3da1dde65e395147bdae2b57df3ac00000000"
    }
  ]
}