{
  "hash": "000000007194d44d9977b7eb4f52c931cd2e2b2186f3c039cc733a34cd76fd73",
  "confirmations": 48710,
  "height": 4388,
  "version": 1,
  "versionHex": "00000001",
  "merkleroot": "2b4d32e7f8b8f8b86b1d59a7cb5f988d7dc8f03526221b0d6226a1188486d05b",
  "time": 1234703594,
  "mediantime": 1234699754,
  "nonce": 1335040544,
  "bits": "1d00ffff",
  "difficulty": 1,
  "chainwork": "0000000000000000000000000000000000000000000000000000112511251125",
  "nTx": 1,
  "previousblockhash": "000000009c9790334bfc19c8c03910a87b7e659a96fa1123aff78e830e7dcd2e",
  "nextblockhash": "00000000f08170055b8c405f53cc611bd153d062776bb26e2d4c4dc748923296",
  "strippedsize": 216,
  "size": 216,
  "weight": 864,
  "tx": [
    {
      "txid": "2b4d32e7f8b8f8b86b1d59a7cb5f988d7dc8f03526221b0d6226a1188486d05b",
      "hash": "2b4d32e7f8b8f8b86b1d59a7cb5f988d7dc8f03526221b0d6226a1188486d05b",
      "version": 1,
      "size": 135,
      "vsize": 135,
      "weight": 540,
      "locktime": 0,
      "vin": [
        {
          "coinbase": "04ffff001d020b01",
          "sequence": 4294967295
        }
      ],
      "vout": [
        {
          "value": 50.0,
          "n": 0,
          "scriptPubKey": {
            "asm": "046a87c73d6aaf6a0c04e8bbe0c70e5271bcaadf69d9e449deaf6ac01d52b3404e3fad4fd8a6e755a01bddf4de16763669cf80feada38ceeea96ff440cfa1ea5e7 OP_CHECKSIG",
            "desc": "pk(046a87c73d6aaf6a0c04e8bbe0c70e5271bcaadf69d9e449deaf6ac01d52b3404e3fad4fd8a6e755a01bddf4de16763669cf80feada38ceeea96ff440cfa1ea5e7)#wjlh6f28",
            "hex": "41046a87c73d6aaf6a0c04e8bbe0c70e5271bcaadf69d9e449deaf6ac01d52b3404e3fad4fd8a6e755a01bddf4de16763669cf80feada38ceeea96ff440cfa1ea5e7ac",
            "type": "pubkey"
          }
        }
      ],
      "hex": "01000000010000000000000000000000000000000000000000000000000000000000000000ffffffff0804ffff001d020b01ffffffff0100f2052a010000004341046a87c73d6aaf6a0c04e8bbe0c70e5271bcaadf69d9e449deaf6ac01d52b3404e3fad4fd8a6e755a01bddf4de16763669cf80feada38ceeea96ff440cfa1ea5e7ac00000000"
    }
  ]
}