{
  "hash": "000000001c7d76a9dc50b36c8f2fb152e4355e2db354487b99d78b23085f90c0",
  "confirmations": 47967,
  "height": 5131,
  "version": 1,
  "versionHex": "00000001",
  "merkleroot": "7b0df7d88eb6ba2c47d2e4fa2abad8c6e758e503abb2040553351e0d53d27c9d",
  "time": 1235237875,
  "mediantime": 1235235259,
  "nonce": 34494370,
  "bits": "1d00ffff",
  "difficulty": 1,
  "chainwork": "0000000000000000000000000000000000000000000000000000140c140c140c",
  "nTx": 1,
  "previousblockhash": "00000000d0e646265da32fa7eac3a7a4cc9bf2953a5c8333d59c9ffd83bcb894",
  "nextblockhash": "000000003227c42f597e6e6a77e1abfa39a271f32afa4442e3b06f99b4bea50a",
  "strippedsize": 216,
  "size": 216,
  "weight": 864,
  "tx": [
    {
      "txid": "7b0df7d88eb6ba2c47d2e4fa2abad8c6e758e503abb2040553351e0d53d27c9d",
      "hash": "7b0df7d88eb6ba2c47d2e4fa2abad8c6e758e503abb2040553351e0d53d27c9d",
      "version": 1,
      "size": 135,
      "vsize": 135,
      "weight": 540,
      "locktime": 0,
      "vin": [
        {
          "coinbase": "04ffff001d02d200",
          "sequence": 4294967295
        }
      ],
      "vout": [
        {
          "value": 50.0,
          "n": 0,
          "scriptPubKey": {
            "asm": "046e1761bd9e788e0c7e00dff39092f7465c5c3d21ed3f760c6c35d6034276adb5da8c7473bd7543d62cda8d5073ee62d68e4615b7eb5dc058921980a8c238f186 OP_CHECKSIG",
            "desc": "pk(046e1761bd9e788e0c7e00dff39092f7465c5c3d21ed3f760c6c35d6034276adb5da8c7473bd7543d62cda8d5073ee62d68e4615b7eb5dc058921980a8c238f186)#69x8zpz6",
            "hex": "41046e1761bd9e788e0c7e00dff39092f7465c5c3d21ed3f760c6c35d6034276adb5da8c7473bd7543d62cda8d5073ee62d68e4615b7eb5dc058921980a8c238f186ac",
            "type": "pubkey"
          }
        }
      ],
      "hex": "01000000010000000000000000000000000000000000000000000000000000000000000000ffffffff0804ffff001d02d200ffffffff0100f2052a010000004341046e1761bd9e788e0c7e00dff39092f7465c5c3d21ed3f760c6c35d6034276adb5da8c7473bd7543d62cda8d5073ee62d68e4615b7eb5dc058921980a8c238f186ac00000000"
    }
  ]
}