{
  "hash": "00000000f131107c40828e11e8ab73b99701cdcf37ed4d857a25fe2ce9cd32de",
  "confirmations": 45903,
  "height": 7195,
  "version": 1,
  "versionHex": "00000001",
  "merkleroot": "bdc903f53a968061813cfcd6d51ce7cbfcf1be0007a9183618efd89d49097093",
  "time": 1236865020,
  "mediantime": 1236863469,
  "nonce": 3757876022,
  "bits": "1d00ffff",
  "difficulty": 1,
  "chainwork": "00000000000000000000000000000000000000000000000000001c1c1c1c1c1c",
  "nTx": 1,
  "previousblockhash": "00000000db943386cb0072dcd8194804b3097eac4b06b551a6ebda0b41e68bd2",
  "nextblockhash": "0000000090b995d03360cb830c2420f33432df40c0be92bb7bb8e621dea6726d",
  "strippedsize": 216,
  "size": 216,
  "weight": 864,
  "tx": [
    {
      "txid": "bdc903f53a968061813cfcd6d51ce7cbfcf1be0007a9183618efd89d49097093",
      "hash": "bdc903f53a968061813cfcd6d51ce7cbfcf1be0007a9183618efd89d49097093",
      "version": 1,
      "size": 135,
      "vsize": 135,
      "weight": 540,
      "locktime": 0,
      "vin": [
        {
          "coinbase": "04ffff001d028805",
          "sequence": 4294967295
        }
      ],
      "vout": [
        {
          "value": 50.0,
          "n": 0,
          "scriptPubKey": {
            "asm": "04886f640d7ba58804716ebf76e07b07ca0016d4c534a10fc6488ce5dd50d6fd0a9e85570ea24102f7d56fcfdc357e330931167b7e685514a9ee6426cf54450754 OP_CHECKSIG",
            "desc": "pk(04886f640d7ba58804716ebf76e07b07ca0016d4c534a10fc6488ce5dd50d6fd0a9e85570ea24102f7d56fcfdc357e330931167b7e685514a9ee6426cf54450754)#l36ghkqg",
            "hex": "4104886f640d7ba58804716ebf76e07b07ca0016d4c534a10fc6488ce5dd50d6fd0a9e85570ea24102f7d56fcfdc357e330931167b7e685514a9ee6426cf54450754ac",
            "type": "pubkey"
          }
        }
      ],
      "hex": "01000000010000000000000000000000000000000000000000000000000000000000000000ffffffff0804ffff001d028805ffffffff0100f2052a01000000434104886f640d7ba58804716ebf76e07b07ca0016d4c534a10fc6488ce5dd50d6fd0a9e85570ea24102f7d56fcfdc357e330931167b7e685514a9ee6426cf54450754ac00000000"
    }
  ]
}