{
  "hash": "00000000a87ca128a42507244953ad72320da7057c73141c125cb23881ca1aec",
  "confirmations": 46029,
  "height": 7069,
  "version": 1,
  "versionHex": "00000001",
  "merkleroot": "49087ed37abbdc8b59738b4c31977cc3a44d2f633e1295ca964f72af82acdaac",
  "time": 1236772240,
  "mediantime": 1236767840,
  "nonce": 4041535518,
  "bits": "1d00ffff",
  "difficulty": 1,
  "chainwork": "00000000000000000000000000000000000000000000000000001b9e1b9e1b9e",
  "nTx": 1,
  "previousblockhash": "00000000a29fcd97d0214eccf8da39927b2aeb9b416cc4d7b95e01d8bfb07601",
  "nextblockhash": "00000000fe45448bacba3458f23ea03591766f94a53a278f8797ac7d59e50abf",
  "strippedsize": 216,
  "size": 216,
  "weight": 864,
  "tx": [
    {
      "txid": "49087ed37abbdc8b59738b4c31977cc3a44d2f633e1295ca964f72af82acdaac",
      "hash": "49087ed37abbdc8b59738b4c31977cc3a44d2f633e1295ca964f72af82acdaac",
      "version": 1,
      "size": 135,
      "vsize": 135,
      "weight": 540,
      "locktime": 0,
      "vin": [
        {
          "coinbase": "04ffff001d025c03",
          "sequence": 4294967295
        }
      ],
      "vout": [
        {
          "value": 50.0,
          "n": 0,
          "scriptPubKey": {
            "asm": "0414cb7d038d6f9f052e41b728e175418d963a522ebe37cf4a8e501a4b985148f5076546cbde19545f5a3a99b9641b920a086a7857d6c0dca3cd2920c725bb646c OP_CHECKSIG",
            "desc": "pk(0414cb7d038d6f9f052e41b728e175418d963a522ebe37cf4a8e501a4b985148f5076546cbde19545f5a3a99b9641b920a086a7857d6c0dca3cd2920c725bb646c)#ldd4mhy8",
            "hex": "410414cb7d038d6f9f052e41b728e175418d963a522ebe37cf4a8e501a4b985148f5076546cbde19545f5a3a99b9641b920a086a7857d6c0dca3cd2920c725bb646cac",
            "type": "pubkey"
          }
        }
      ],
      "hex": "01000000010000000000000000000000000000000000000000000000000000000000000000ffffffff0804ffff001d025c03ffffffff0100f2052a0100000043410414cb7d038d6f9f052e41b728e175418d963a522ebe37cf4a8e501a4b985148f5076546cbde19545f5a3a99b9641b920a086a7857d6c0dca3cd2920c725bb646cac00000000"
    }
  ]
}