{
  "hash": "000000000214eb36bf98bd04284bfe1648029a63547a1bd52d5df90e5cc6f0f4",
  "confirmations": 50003,
  "height": 3095,
  "version": 1,
  "versionHex": "00000001",
  "merkleroot": "ed78596f740d8eb32251f7fce2f87cdc81bad06f65345ad52b0de9f8cd5a75e2",
  "time": 1233830687,
  "mediantime": 1233826959,
  "nonce": 116146478,
  "bits": "1d00ffff",
  "difficulty": 1,
  "chainwork": "00000000000000000000000000000000000000000000000000000c180c180c18",
  "nTx": 1,
  "previousblockhash": "000000001c931571df64f8c2efb3a7f12e82fae99d2bdbf02c2262f6e5fe5bb5",
  "nextblockhash": "00000000f5e5e1b325b5a1b27c0cc3f13d52e33ffb513ace2cccc68291b01740",
  "strippedsize": 216,
  "size": 216,
  "weight": 864,
  "tx": [
    {
      "txid": "ed78596f740d8eb32251f7fce2f87cdc81bad06f65345ad52b0de9f8cd5a75e2",
      "hash": "ed78596f740d8eb32251f7fce2f87cdc81bad06f65345ad52b0de9f8cd5a75e2",
      "version": 1,
      "size": 135,
      "vsize": 135,
      "weight": 540,
      "locktime": 0,
      "vin": [
        {
          "coinbase": "04ffff001d022d02",
          "sequence": 4294967295
        }
      ],
      "vout": [
        {
          "value": 50.0,
          "n": 0,
          "scriptPubKey": {
            "asm": "04ab83bf59a499040d2c001471d88a657de6a661d697efbaf2de5020e78e587939a44063d33836d0612f89e892d77f19387a38e1d76ee0d5c07e6cd13178293c87 OP_CHECKSIG",
            "desc": "pk(04ab83bf59a499040d2c001471d88a657de6a661d697efbaf2de5020e78e587939a44063d33836d0612f89e892d77f19387a38e1d76ee0d5c07e6cd13178293c87)#dl2hek9l",
            "hex": "4104ab83bf59a499040d2c001471d88a657de6a661d697efbaf2de5020e78e587939a44063d33836d0612f89e892d77f19387a38e1d76ee0d5c07e6cd13178293c87ac",
            "type": "pubkey"
          }
        }
      ],
      "hex": "01000000010000000000000000000000000000000000000000000000000000000000000000ffffffff0804ffff001d022d02ffffffff0100f2052a01000000434104ab83bf59a499040d2c001471d88a657de6a661d697efbaf2de5020e78e587939a44063d33836d0612f89e892d77f19387a38e1d76ee0d5c07e6cd13178293c87ac00000000"
    }
  ]
}