{
  "hash": "0000000089cff00788f5b5d1aa19b37b0e4e5f3d0da75c1ed0f27de07fc07417",
  "confirmations": 50272,
  "height": 2826,
  "version": 1,
  "versionHex": "00000001",
  "merkleroot": "96343a9b83f59456264bb5284c7ab6b9bbb8402ae488934571c58e90a267965a",
  "time": 1233643075,
  "mediantime": 1233639427,
  "nonce": 78194417,
  "bits": "1d00ffff",
  "difficulty": 1,
  "chainwork": "00000000000000000000000000000000000000000000000000000b0b0b0b0b0b",
  "nTx": 1,
  "previousblockhash": "000000006931328b8306e5c4c643ffbd537920e106866a0f37ffdbaa41b865a3",
  "nextblockhash": "000000005fc6aba2ca4495b7f54f27acb10411144a0b7ee392d8ed9d3727607b",
  "strippedsize": 216,
  "size": 216,
  "weight": 864,
  "tx": [
    {
      "txid": "96343a9b83f59456264bb5284c7ab6b9bbb8402ae488934571c58e90a267965a",
      "hash": "96343a9b83f59456264bb5284c7ab6b9bbb8402ae488934571c58e90a267965a",
      "version": 1,
      "size": 135,
      "vsize": 135,
      "weight": 540,
      "locktime": 0,
      "vin": [
        {
          "coinbase": "04ffff001d029303",
          "sequence": 4294967295
        }
      ],
      "vout": [
        {
          "value": 50.0,
          "n": 0,
          "scriptPubKey": {
            "asm": "047f8986bb2e38a6364c091c09d77fa74cc113418b1f2fabbbdc9e1f31f11200d2c2ba9d24fb77f9602004398b802aee8449b14f926cdf0e09a9ee32a2e3a0d235 OP_CHECKSIG",
            "desc": "pk(047f8986bb2e38a6364c091c09d77fa74cc113418b1f2fabbbdc9e1f31f11200d2c2ba9d24fb77f9602004398b802aee8449b14f926cdf0e09a9ee32a2e3a0d235)#x2n6tu5g",
            "hex": "41047f8986bb2e38a6364c091c09d77fa74cc113418b1f2fabbbdc9e1f31f11200d2c2ba9d24fb77f9602004398b802aee8449b14f926cdf0e09a9ee32a2e3a0d235ac",
            "type": "pubkey"
          }
        }
      ],
      "hex": "01000000010000000000000000000000000000000000000000000000000000000000000000ffffffff0804ffff001d029303ffffffff0100f2052a010000004341047f8986bb2e38a6364c091c09d77fa74cc113418b1f2fabbbdc9e1f31f11200d2c2ba9d24fb77f9602004398b802aee8449b14f926cdf0e09a9ee32a2e3a0d235ac00000000"
    }
  ]
}