{
  "hash": "0000000038e0e9e7b9f3b26d59d0ceafd1240c931c2d810c464ea15fbfb150e4",
  "confirmations": 52211,
  "height": 887,
  "version": 1,
  "versionHex": "00000001",
  "merkleroot": "cc13b1faadebcec8921fd617fd8470d8911362d23790bcace2e8d800853fd8ac",
  "time": 1232262926,
  "mediantime": 1232260301,
  "nonce": 65156835,
  "bits": "1d00ffff",
  "difficulty": 1,
  "chainwork": "0000000000000000000000000000000000000000000000000000037803780378",
  "nTx": 1,
  "previousblockhash": "000000008f6234fcdefbce28a3b12e5083df353fbdce4bf479ba7e6ba0d1bdee",
  "nextblockhash": "0000000071dc739913e6c9c1189f92ecbc457b680a3d448c21bd1a2710a06a3e",
  "strippedsize": 216,
  "size": 216,
  "weight": 864,
  "tx": [
    {
      "txid": "cc13b1faadebcec8921fd617fd8470d8911362d23790bcace2e8d800853fd8ac",
      "hash": "cc13b1faadebcec8921fd617fd8470d8911362d23790bcace2e8d800853fd8ac",
      "version": 1,
      "size": 135,
      "vsize": 135,
      "weight": 540,
      "locktime": 0,
      "vin": [
        {
          "coinbase": "04ffff001d02fa00",
          "sequence": 4294967295
        }
      ],
      "vout": [
        {
          "value": 50.0,
          "n": 0,
          "scriptPubKey": {
            "asm": "04c4a4d3cd3709b1e284b11fc11a0da8608f9a1dec1a30aca59ba001709094d2ea7150ff88964725ebdca9de8e643512486032de502939c2a242d283cfe125619d OP_CHECKSIG",
            "desc": "pk(04c4a4d3cd3709b1e284b11fc11a0da8608f9a1dec1a30aca59ba001709094d2ea7150ff88964725ebdca9de8e643512486032de502939c2a242d283cfe125619d)#4f3e26jv",
            "hex": "4104c4a4d3cd3709b1e284b11fc11a0da8608f9a1dec1a30aca59ba001709094d2ea7150ff88964725ebdca9de8e643512486032de502939c2a242d283cfe125619dac",
            "type": "pubkey"
          }
        }
      ],
      "hex": "01000000010000000000000000000000000000000000000000000000000000000000000000ffffffff0804ffff001d02fa00ffffffff0100f2052a01000000434104c4a4d3cd3709b1e284b11fc11a0da8608f9a1dec1a30aca59ba001709094d2ea7150ff88964725ebdca9de8e643512486032de502939c2a242d283cfe125619dac00000000"
    }
  ]
}