{
  "hash": "00000000c07fd2bc50c21d3acd40b37f591ceaeb6dedcbc87c2f5a92b8c880ea",
  "confirmations": 50786,
  "height": 2312,
  "version": 1,
  "versionHex": "00000001",
  "merkleroot": "fd229efd7b4599d281ebc33e04537f27d858cd291a7a2ba76860117b2e7f8b69",
  "time": 1233289492,
  "mediantime": 1233283986,
  "nonce": 84117277,
  "bits": "1d00ffff",
  "difficulty": 1,
  "chainwork": "0000000000000000000000000000000000000000000000000000090909090909",
  "nTx": 1,
  "previousblockhash": "00000000c56f613c78509701f4564954047124e8313743795ae073b86003012c",
  "nextblockhash": "000000000c7cc1382aea8698cd52304cfcff6f3f044958acbf890da20f096674",
  "strippedsize": 216,
  "size": 216,
  "weight": 864,
  "tx": [
    {
      "txid": "fd229efd7b4599d281ebc33e04537f27d858cd291a7a2ba76860117b2e7f8b69",
      "hash": "fd229efd7b4599d281ebc33e04537f27d858cd291a7a2ba76860117b2e7f8b69",
      "version": 1,
      "size": 135,
      "vsize": 135,
      "weight": 540,
      "locktime": 0,
      "vin": [
        {
          "coinbase": "04ffff001d02d801",
          "sequence": 4294967295
        }
      ],
      "vout": [
        {
          "value": 50.0,
          "n": 0,
          "scriptPubKey": {
            "asm": "046e09dd76eca591314287cf0fd1ba164ca5426b897d29decfa9f36c7e0af3e70f2988373c0ae21a57800e72c44c05ac53995d2a7f00d5c0f3b5467e520cdc3df7 OP_CHECKSIG",
            "desc": "pk(046e09dd76eca591314287cf0fd1ba164ca5426b897d29decfa9f36c7e0af3e70f2988373c0ae21a57800e72c44c05ac53995d2a7f00d5c0f3b5467e520cdc3df7)#u6n73nv4",
            "hex": "41046e09dd76eca591314287cf0fd1ba164ca5426b897d29decfa9f36c7e0af3e70f2988373c0ae21a57800e72c44c05ac53995d2a7f00d5c0f3b5467e520cdc3df7ac",
            "type": "pubkey"
          }
        }
      ],
      "hex": "01000000010000000000000000000000000000000000000000000000000000000000000000ffffffff0804ffff001d02d801ffffffff0100f2052a010000004341046e09dd76eca591314287cf0fd1ba164ca5426b897d29decfa9f36c7e0af3e70f2988373c0ae21a57800e72c44c05ac53995d2a7f00d5c0f3b5467e520cdc3df7ac00000000"
    }
  ]
}