{
  "hash": "00000000e04fb2b1746560fe55b178949972bcccd10d40474138d00f67592115",
  "confirmations": 51287,
  "height": 1811,
  "version": 1,
  "versionHex": "00000001",
  "merkleroot": "af97d8e062771e05e90e465a9737e56a20fcb2604de6b6dd0f646f0bdc693bef",
  "time": 1232904796,
  "mediantime": 1232901798,
  "nonce": 1761024293,
  "bits": "1d00ffff",
  "difficulty": 1,
  "chainwork": "0000000000000000000000000000000000000000000000000000071407140714",
  "nTx": 1,
  "previousblockhash": "0000000047d5a0870320bfe1a147312bc5a042d8e3e25dcf1bb72b5a7f23ac65",
  "nextblockhash": "00000000089b370bfcd7018fbfc74f0269d4c658c7be88fefbf678202b1ed0ad",
  "strippedsize": 216,
  "size": 216,
  "weight": 864,
  "tx": [
    {
      "txid": "af97d8e062771e05e90e465a9737e56a20fcb2604de6b6dd0f646f0bdc693bef",
      "hash": "af97d8e062771e05e90e465a9737e56a20fcb2604de6b6dd0f646f0bdc693bef",
      "version": 1,
      "size": 135,
      "vsize": 135,
      "weight": 540,
      "locktime": 0,
      "vin": [
        {
          "coinbase": "04ffff001d024504",
          "sequence": 4294967295
        }
      ],
      "vout": [
        {
          "value": 50.0,
          "n": 0,
          "scriptPubKey": {
            "asm": "0414d93c87fd39b9fb722cfc27fb73d915d83b42cf6037a6cc0866370693fa866ab6f086cf527cd3aacf8c59051630f25bebb91fc06913a695263ee9a99ee1b5a0 OP_CHECKSIG",
            "desc": "pk(0414d93c87fd39b9fb722cfc27fb73d915d83b42cf6037a6cc0866370693fa866ab6f086cf527cd3aacf8c59051630f25bebb91fc06913a695263ee9a99ee1b5a0)#yy8htkgt",
            "hex": "410414d93c87fd39b9fb722cfc27fb73d915d83b42cf6037a6cc0866370693fa866ab6f086cf527cd3aacf8c59051630f25bebb91fc06913a695263ee9a99ee1b5a0ac",
            "type": "pubkey"
          }
        }
      ],
      "hex": "01000000010000000000000000000000000000000000000000000000000000000000000000ffffffff0804ffff001d024504ffffffff0100f2052a0100000043410414d93c87fd39b9fb722cfc27fb73d915d83b42cf6037a6cc0866370693fa866ab6f086cf527cd3aacf8c59051630f25bebb91fc06913a695263ee9a99ee1b5a0ac00000000"
    }
  ]
}