{
  "hash": "0000000059896c850423261359ed330fb9ba2a0b981d75972d54096925aadc33",
  "confirmations": 47915,
  "height": 5183,
  "version": 1,
  "versionHex": "00000001",
  "merkleroot": "582039e9844ffe3e2d6988afbe973be9fbc6caaf172f769b8ea9263ce309e626",
  "time": 1235275059,
  "mediantime": 1235271659,
  "nonce": 2069848323,
  "bits": "1d00ffff",
  "difficulty": 1,
  "chainwork": "0000000000000000000000000000000000000000000000000000144014401440",
  "nTx": 1,
  "previousblockhash": "00000000ebd8c7431a6be90e160a05fb198de2ff29fd05aed72f924f8e61f26c",
  "nextblockhash": "000000003983b989ed5037704b37ccced779def688ee8ad2ffba10f1cd94c731",
  "strippedsize": 215,
  "size": 215,
  "weight": 860,
  "tx": [
    {
      "txid": "582039e9844ffe3e2d6988afbe973be9fbc6caaf172f769b8ea9263ce309e626",
      "hash": "582039e9844ffe3e2d6988afbe973be9fbc6caaf172f769b8ea9263ce309e626",
      "version": 1,
      "size": 134,
      "vsize": 134,
      "weight": 536,
      "locktime": 0,
      "vin": [
        {
          "coinbase": "04ffff001d0141",
          "sequence": 4294967295
        }
      ],
      "vout": [
        {
          "value": 50.0,
          "n": 0,
          "scriptPubKey": {
            "asm": "0446029463dd3bf22520f8bd18afc03fcb72c0adf9854c6d9c5a8f88bc189dfbff9f1b8646b0ff4f345cbf879eac2d83e815b4e9e590dbbd46862ac7019e7c04e2 OP_CHECKSIG",
            "desc": "pk(0446029463dd3bf22520f8bd18afc03fcb72c0adf9854c6d9c5a8f88bc189dfbff9f1b8646b0ff4f345cbf879eac2d83e815b4e9e590dbbd46862ac7019e7c04e2)#gf6w3eep",
            "hex": "410446029463dd3bf22520f8bd18afc03fcb72c0adf9854c6d9c5a8f88bc189dfbff9f1b8646b0ff4f345cbf879eac2d83e815b4e9e590dbbd46862ac7019e7c04e2ac",
            "type": "pubkey"
          }
        }
      ],
      "hex": "01000000010000000000000000000000000000000000000000000000000000000000000000ffffffff0704ffff001d0141ffffffff0100f2052a0100000043410446029463dd3bf22520f8bd18afc03fcb72c0adf9854c6d9c5a8f88bc189dfbff9f1b8646b0ff4f345cbf879eac2d83e815b4e9e590dbbd46862ac7019e7c04e2ac00000000"
    }
  ]
}