{
  "hash": "000000000bfbae4d9002a93fe457ba2308c4dd2c79966d0e6abe0969dee6f9ac",
  "confirmations": 44515,
  "height": 8583,
  "version": 1,
  "versionHex": "00000001",
  "merkleroot": "e500b24f09de1286e56ed550d292afac2b7b76d7a6281504a53c13600594a7f4",
  "time": 1237938471,
  "mediantime": 1237933945,
  "nonce": 1833738539,
  "bits": "1d00ffff",
  "difficulty": 1,
  "chainwork": "0000000000000000000000000000000000000000000000000000218821882188",
  "nTx": 1,
  "previousblockhash": "0000000038485cf43edc17983f88e21db0a1c0230c4295e584bcb8610f2af8c2",
  "nextblockhash": "000000009a8465e149a54f6157f1ccfe8cc00a30adbb4ce071b8527d24e4bd9a",
  "strippedsize": 216,
  "size": 216,
  "weight": 864,
  "tx": [
    {
      "txid": "e500b24f09de1286e56ed550d292afac2b7b76d7a6281504a53c13600594a7f4",
      "hash": "e500b24f09de1286e56ed550d292afac2b7b76d7a6281504a53c13600594a7f4",
      "version": 1,
      "size": 135,
      "vsize": 135,
      "weight": 540,
      "locktime": 0,
      "vin": [
        {
          "coinbase": "04ffff001d025809",
          "sequence": 4294967295
        }
      ],
      "vout": [
        {
          "value": 50.0,
          "n": 0,
          "scriptPubKey": {
            "asm": "040cdbbb593d607c9c141368f0c183a23143d82d4fafcc9b80386cd0b9a08a058b0b252c992531dc74e4377856823e27dbded75f23e28546244a9b96eaac64fe46 OP_CHECKSIG",
            "desc": "pk(040cdbbb593d607c9c141368f0c183a23143d82d4fafcc9b80386cd0b9a08a058b0b252c992531dc74e4377856823e27dbded75f23e28546244a9b96eaac64fe46)#yzn2e35u",
            "hex": "41040cdbbb593d607c9c141368f0c183a23143d82d4fafcc9b80386cd0b9a08a058b0b252c992531dc74e4377856823e27dbded75f23e28546244a9b96eaac64fe46ac",
            "type": "pubkey"
          }
        }
      ],
      "hex": "01000000010000000000000000000000000000000000000000000000000000000000000000ffffffff0804ffff001d025809ffffffff0100f2052a010000004341040cdbbb593d607c9c141368f0c183a23143d82d4fafcc9b80386cd0b9a08a058b0b252c992531dc74e4377856823e27dbded75f23e28546244a9b96eaac64fe46ac00000000"
    }
  ]
}