{
  "hash": "0000000073ba0d47c8458f2dafd7d7ed616fcb43e6b1a6c8a87236c7d991c89e",
  "confirmations": 51111,
  "height": 1987,
  "version": 1,
  "versionHex": "00000001",
  "merkleroot": "6d0b5c94d7051d610b5afb71e932e5c8d13c07e668b32919b2626f5bf1d017e7",
  "time": 1233036022,
  "mediantime": 1233030995,
  "nonce": 3447151897,
  "bits": "1d00ffff",
  "difficulty": 1,
  "chainwork": "000000000000000000000000000000000000000000000000000007c407c407c4",
  "nTx": 1,
  "previousblockhash": "0000000000243dfaef0a3b85c3b9c13c958ce6bed9fd4cb154c1df109c1ef884",
  "nextblockhash": "00000000785992b7d5ee630a7aaf650461ca6a5d176d96e8f1d83054132f0bf4",
  "strippedsize": 216,
  "size": 216,
  "weight": 864,
  "tx": [
    {
      "txid": "6d0b5c94d7051d610b5afb71e932e5c8d13c07e668b32919b2626f5bf1d017e7",
      "hash": "6d0b5c94d7051d610b5afb71e932e5c8d13c07e668b32919b2626f5bf1d017e7",
      "version": 1,
      "size": 135,
      "vsize": 135,
      "weight": 540,
      "locktime": 0,
      "vin": [
        {
          "coinbase": "04ffff001d025201",
          "sequence": 4294967295
        }
      ],
      "vout": [
        {
          "value": 50.0,
          "n": 0,
          "scriptPubKey": {
            "asm": "042bd10d2f3d27e932a372186b0537e2caf078d19e4aa2a7f88edc4b28286f2329687f180be9bc0e6d4bafe54738d4026ea3780fd9e5db50eee2ecde78515be807 OP_CHECKSIG",
            "desc": "pk(042bd10d2f3d27e932a372186b0537e2caf078d19e4aa2a7f88edc4b28286f2329687f180be9bc0e6d4bafe54738d4026ea3780fd9e5db50eee2ecde78515be807)#llvvzdvr",
            "hex": "41042bd10d2f3d27e932a372186b0537e2caf078d19e4aa2a7f88edc4b28286f2329687f180be9bc0e6d4bafe54738d4026ea3780fd9e5db50eee2ecde78515be807ac",
            "type": "pubkey"
          }
        }
      ],
      "hex": "01000000010000000000000000000000000000000000000000000000000000000000000000ffffffff0804ffff001d025201ffffffff0100f2052a010000004341042bd10d2f3d27e932a372186b0537e2caf078d19e4aa2a7f88edc4b28286f2329687f180be9bc0e6d4bafe54738d4026ea3780fd9e5db50eee2ecde78515be807ac00000000"
    }
  ]
}