{
  "hash": "00000000c04946d09e9072226bd5c8ee8708473540d055ce9119a75a614b260c",
  "confirmations": 43840,
  "height": 9258,
  "version": 1,
  "versionHex": "00000001",
  "merkleroot": "6cc12af66c2767453076c8b43d9ba63e1b7ff460623614cf0cbf29ac77f76d9e",
  "time": 1238440328,
  "mediantime": 1238436831,
  "nonce": 1400932915,
  "bits": "1d00ffff",
  "difficulty": 1,
  "chainwork": "0000000000000000000000000000000000000000000000000000242b242b242b",
  "nTx": 1,
  "previousblockhash": "00000000918b98be59042f38e4eeb3ca4ac74be0d67b54f04fc815c2518185b2",
  "nextblockhash": "000000009d2a75607f575992ff49383af412b8d849673c9503722e587e52b161",
  "strippedsize": 216,
  "size": 216,
  "weight": 864,
  "tx": [
    {
      "txid": "6cc12af66c2767453076c8b43d9ba63e1b7ff460623614cf0cbf29ac77f76d9e",
      "hash": "6cc12af66c2767453076c8b43d9ba63e1b7ff460623614cf0cbf29ac77f76d9e",
      "version": 1,
      "size": 135,
      "vsize": 135,
      "weight": 540,
      "locktime": 0,
      "vin": [
        {
          "coinbase": "04ffff001d020c01",
          "sequence": 4294967295
        }
      ],
      "vout": [
        {
          "value": 50.0,
          "n": 0,
          "scriptPubKey": {
            "asm": "0476c4a9bc7178b7b5e3db3d96226d6d909865c5d20e7a6f5c2404eb2dde20c7e0aedb320d99e6cd6540622cb08350fe46fd49d2929917828889d42d00bd75f43c OP_CHECKSIG",
            "desc": "pk(0476c4a9bc7178b7b5e3db3d96226d6d909865c5d20e7a6f5c2404eb2dde20c7e0aedb320d99e6cd6540622cb08350fe46fd49d2929917828889d42d00bd75f43c)#xme8lz8r",
            "hex": "410476c4a9bc7178b7b5e3db3d96226d6d909865c5d20e7a6f5c2404eb2dde20c7e0aedb320d99e6cd6540622cb08350fe46fd49d2929917828889d42d00bd75f43cac",
            "type": "pubkey"
          }
        }
      ],
      "hex": "01000000010000000000000000000000000000000000000000000000000000000000000000ffffffff0804ffff001d020c01ffffffff0100f2052a0100000043410476c4a9bc7178b7b5e3db3d96226d6d909865c5d20e7a6f5c2404eb2dde20c7e0aedb320d99e6cd6540622cb08350fe46fd49d2929917828889d42d00bd75f43cac00000000"
    }
  ]
}