{
  "hash": "000000003933b11259a938879479cc743fdee2d71e2f0e3242b7fc7176a87f12",
  "confirmations": 46385,
  "height": 6713,
  "version": 1,
  "versionHex": "00000001",
  "merkleroot": "2b6ff017273be57e0c10d5c31f7ff4b09adc832d78a65a736a9364cd1811c590",
  "time": 1236492057,
  "mediantime": 1236488724,
  "nonce": 220823070,
  "bits": "1d00ffff",
  "difficulty": 1,
  "chainwork": "00000000000000000000000000000000000000000000000000001a3a1a3a1a3a",
  "nTx": 1,
  "previousblockhash": "00000000a50a8a7b5db2c4556a40d8ef13514104f642c8bddfd9cddbac1eb2fd",
  "nextblockhash": "000000009ff1900d129365d25ff6529fb89b01d8aa4363d35d5b885c979e4c86",
  "strippedsize": 216,
  "size": 216,
  "weight": 864,
  "tx": [
    {
      "txid": "2b6ff017273be57e0c10d5c31f7ff4b09adc832d78a65a736a9364cd1811c590",
      "hash": "2b6ff017273be57e0c10d5c31f7ff4b09adc832d78a65a736a9364cd1811c590",
      "version": 1,
      "size": 135,
      "vsize": 135,
      "weight": 540,
      "locktime": 0,
      "vin": [
        {
          "coinbase": "04ffff001d024807",
          "sequence": 4294967295
        }
      ],
      "vout": [
        {
          "value": 50.0,
          "n": 0,
          "scriptPubKey": {
            "asm": "043b0f8ad7af1c18c8506e13afc4c471b44c4f0349a64545842ad7b90b5945ff96f75523e660ce62cf15378f332df00335335a12e6058846614bc45ad126bd4c67 OP_CHECKSIG",
            "desc": "pk(043b0f8ad7af1c18c8506e13afc4c471b44c4f0349a64545842ad7b90b5945ff96f75523e660ce62cf15378f332df00335335a12e6058846614bc45ad126bd4c67)#wx7h6l4h",
            "hex": "41043b0f8ad7af1c18c8506e13afc4c471b44c4f0349a64545842ad7b90b5945ff96f75523e660ce62cf15378f332df00335335a12e6058846614bc45ad126bd4c67ac",
            "type": "pubkey"
          }
        }
      ],
      "hex": "01000000010000000000000000000000000000000000000000000000000000000000000000ffffffff0804ffff001d024807ffffffff0100f2052a010000004341043b0f8ad7af1c18c8506e13afc4c471b44c4f0349a64545842ad7b90b5945ff96f75523e660ce62cf15378f332df00335335a12e6058846614bc45ad126bd4c67ac00000000"
    }
  ]
}