{
  "hash": "00000000022ab21405c00b0f6705786ea686db3e060ce60c84015c1db63e3df1",
  "confirmations": 46019,
  "height": 7079,
  "version": 1,
  "versionHex": "00000001",
  "merkleroot": "d0995534e34f568b7bcd846cbc86d4c1d99e1e802d92fb33f590cf8cb0365172",
  "time": 1236779199,
  "mediantime": 1236774833,
  "nonce": 3314243330,
  "bits": "1d00ffff",
  "difficulty": 1,
  "chainwork": "00000000000000000000000000000000000000000000000000001ba81ba81ba8",
  "nTx": 1,
  "previousblockhash": "00000000e682529cd536649ddac343e7aa2db6f8fe987606461da81036068599",
  "nextblockhash": "00000000db8341a7a6e4917f8b1f53153c4a6138334bb15fccffb841e02cbbe0",
  "strippedsize": 216,
  "size": 216,
  "weight": 864,
  "tx": [
    {
      "txid": "d0995534e34f568b7bcd846cbc86d4c1d99e1e802d92fb33f590cf8cb0365172",
      "hash": "d0995534e34f568b7bcd846cbc86d4c1d99e1e802d92fb33f590cf8cb0365172",
      "version": 1,
      "size": 135,
      "vsize": 135,
      "weight": 540,
      "locktime": 0,
      "vin": [
        {
          "coinbase": "04ffff001d029703",
          "sequence": 4294967295
        }
      ],
      "vout": [
        {
          "value": 50.0,
          "n": 0,
          "scriptPubKey": {
            "asm": "04dcc2760ba7bc3665b97c66c809dba0321030a27ce77b3ec4e2fd8b9939ead81b7b8622211f631a58dc43d1bde22fff2e78486b299c3ff12cfd3741cd36c9bda5 OP_CHECKSIG",
            "desc": "pk(04dcc2760ba7bc3665b97c66c809dba0321030a27ce77b3ec4e2fd8b9939ead81b7b8622211f631a58dc43d1bde22fff2e78486b299c3ff12cfd3741cd36c9bda5)#h2ul0hfg",
            "hex": "4104dcc2760ba7bc3665b97c66c809dba0321030a27ce77b3ec4e2fd8b9939ead81b7b8622211f631a58dc43d1bde22fff2e78486b299c3ff12cfd3741cd36c9bda5ac",
            "type": "pubkey"
          }
        }
      ],
      "hex": "01000000010000000000000000000000000000000000000000000000000000000000000000ffffffff0804ffff001d029703ffffffff0100f2052a01000000434104dcc2760ba7bc3665b97c66c809dba0321030a27ce77b3ec4e2fd8b9939ead81b7b8622211f631a58dc43d1bde22fff2e78486b299c3ff12cfd3741cd36c9bda5ac00000000"
    }
  ]
}