{
  "hash": "0000000080f303a86f15bbccd3c4707f87d3d6d5e01e1dd3e170680cc648d66a",
  "confirmations": 45996,
  "height": 7102,
  "version": 1,
  "versionHex": "00000001",
  "merkleroot": "0afd01f9e8c1e24516ea3f91f8a73267f4ad7ceee0ed977d619dd34d0e874199",
  "time": 1236798170,
  "mediantime": 1236796286,
  "nonce": 1965024565,
  "bits": "1d00ffff",
  "difficulty": 1,
  "chainwork": "00000000000000000000000000000000000000000000000000001bbf1bbf1bbf",
  "nTx": 1,
  "previousblockhash": "00000000875b49bf7241597cc91fce9cef41d74252f28d89caca66e6cb91c99c",
  "nextblockhash": "00000000ecbc3550f96e5cf97c35a266eb0a55a316064a2d2a7da7111322c9e8",
  "strippedsize": 216,
  "size": 216,
  "weight": 864,
  "tx": [
    {
      "txid": "0afd01f9e8c1e24516ea3f91f8a73267f4ad7ceee0ed977d619dd34d0e874199",
      "hash": "0afd01f9e8c1e24516ea3f91f8a73267f4ad7ceee0ed977d619dd34d0e874199",
      "version": 1,
      "size": 135,
      "vsize": 135,
      "weight": 540,
      "locktime": 0,
      "vin": [
        {
          "coinbase": "04ffff001d02ef03",
          "sequence": 4294967295
        }
      ],
      "vout": [
        {
          "value": 50.0,
          "n": 0,
          "scriptPubKey": {
            "asm": "0479337270136609dde8dccc1da1b6907517cb9ab8a50a09d2023bcac4f3dc3b11e68aaebf8f573d79edde42009644eaee76f35a50c6b057b019ee57ef84123c30 OP_CHECKSIG",
            "desc": "pk(0479337270136609dde8dccc1da1b6907517cb9ab8a50a09d2023bcac4f3dc3b11e68aaebf8f573d79edde42009644eaee76f35a50c6b057b019ee57ef84123c30)#9juhwehm",
            "hex": "410479337270136609dde8dccc1da1b6907517cb9ab8a50a09d2023bcac4f3dc3b11e68aaebf8f573d79edde42009644eaee76f35a50c6b057b019ee57ef84123c30ac",
            "type": "pubkey"
          }
        }
      ],
      "hex": "01000000010000000000000000000000000000000000000000000000000000000000000000ffffffff0804ffff001d02ef03ffffffff0100f2052a0100000043410479337270136609dde8dccc1da1b6907517cb9ab8a50a09d2023bcac4f3dc3b11e68aaebf8f573d79edde42009644eaee76f35a50c6b057b019ee57ef84123c30ac00000000"
    }
  ]
}