{
  "hash": "000000004e9faa21bc0797c4124998999b0d8a42b1b5257dada61079a3f00257",
  "confirmations": 50988,
  "height": 2110,
  "version": 1,
  "versionHex": "00000001",
  "merkleroot": "4dcecc9d4a04de78f503eacf5a1c5471102af5219df242d43bcf24fb11b005e0",
  "time": 1233144297,
  "mediantime": 1233139393,
  "nonce": 1108792093,
  "bits": "1d00ffff",
  "difficulty": 1,
  "chainwork": "0000000000000000000000000000000000000000000000000000083f083f083f",
  "nTx": 1,
  "previousblockhash": "00000000ea7f9f046ae440a6d6b3e42f67b20c9d51d300cd5d757f309beaf883",
  "nextblockhash": "000000006a1e87b12ff12edcc04408a61b6d436b21dd6d8af9f5afc759a38116",
  "strippedsize": 216,
  "size": 216,
  "weight": 864,
  "tx": [
    {
      "txid": "4dcecc9d4a04de78f503eacf5a1c5471102af5219df242d43bcf24fb11b005e0",
      "hash": "4dcecc9d4a04de78f503eacf5a1c5471102af5219df242d43bcf24fb11b005e0",
      "version": 1,
      "size": 135,
      "vsize": 135,
      "weight": 540,
      "locktime": 0,
      "vin": [
        {
          "coinbase": "04ffff001d02c603",
          "sequence": 4294967295
        }
      ],
      "vout": [
        {
          "value": 50.0,
          "n": 0,
          "scriptPubKey": {
            "asm": "043f8c2d6dc37c0f4e70aaf140c08f1636df1be1937c781ec6651a6e242fcc598f5b45fd516aed20303039eea2b27c0749ff44ff9f979ee32610b200d23574bce4 OP_CHECKSIG",
            "desc": "pk(043f8c2d6dc37c0f4e70aaf140c08f1636df1be1937c781ec6651a6e242fcc598f5b45fd516aed20303039eea2b27c0749ff44ff9f979ee32610b200d23574bce4)#l7p4d473",
            "hex": "41043f8c2d6dc37c0f4e70aaf140c08f1636df1be1937c781ec6651a6e242fcc598f5b45fd516aed20303039eea2b27c0749ff44ff9f979ee32610b200d23574bce4ac",
            "type": "pubkey"
          }
        }
      ],
      "hex": "01000000010000000000000000000000000000000000000000000000000000000000000000ffffffff0804ffff001d02c603ffffffff0100f2052a010000004341043f8c2d6dc37c0f4e70aaf140c08f1636df1be1937c781ec6651a6e242fcc598f5b45fd516aed20303039eea2b27c0749ff44ff9f979ee32610b200d23574bce4ac00000000"
    }
  ]
}