{
  "hash": "0000000021d01cc4f26d3763abc14e6bae5e9961fb89723e692ee7dacb39cb47",
  "confirmations": 47909,
  "height": 5189,
  "version": 1,
  "versionHex": "00000001",
  "merkleroot": "31f90648fe9b4701d1c942901f24f6fcd4c7f787f5cfcae1d152822f4632e026",
  "time": 1235278698,
  "mediantime": 1235275532,
  "nonce": 73061881,
  "bits": "1d00ffff",
  "difficulty": 1,
  "chainwork": "0000000000000000000000000000000000000000000000000000144614461446",
  "nTx": 1,
  "previousblockhash": "00000000e160e3bc26a8bd8cc826c6b065dac61a48b6683d29997e94c45cb20a",
  "nextblockhash": "0000000067651305205a78f27820c114c89115966c2fbe62ea20d2b571088c2d",
  "strippedsize": 216,
  "size": 216,
  "weight": 864,
  "tx": [
    {
      "txid": "31f90648fe9b4701d1c942901f24f6fcd4c7f787f5cfcae1d152822f4632e026",
      "hash": "31f90648fe9b4701d1c942901f24f6fcd4c7f787f5cfcae1d152822f4632e026",
      "version": 1,
      "size": 135,
      "vsize": 135,
      "weight": 540,
      "locktime": 0,
      "vin": [
        {
          "coinbase": "04ffff001d02de0c",
          "sequence": 4294967295
        }
      ],
      "vout": [
        {
          "value": 50.0,
          "n": 0,
          "scriptPubKey": {
            "asm": "0484ad679e6bd55163def985eec5d64a8a77722699e3d408f3a0a87aa8e3f929b686e5dd82e8b46ce7e704863cca4b7fce9c78db571be535a86c018e611ff03cc4 OP_CHECKSIG",
            "desc": "pk(0484ad679e6bd55163def985eec5d64a8a77722699e3d408f3a0a87aa8e3f929b686e5dd82e8b46ce7e704863cca4b7fce9c78db571be535a86c018e611ff03cc4)#z8ge0ssj",
            "hex": "410484ad679e6bd55163def985eec5d64a8a77722699e3d408f3a0a87aa8e3f929b686e5dd82e8b46ce7e704863cca4b7fce9c78db571be535a86c018e611ff03cc4ac",
            "type": "pubkey"
          }
        }
      ],
      "hex": "01000000010000000000000000000000000000000000000000000000000000000000000000ffffffff0804ffff001d02de0cffffffff0100f2052a0100000043410484ad679e6bd55163def985eec5d64a8a77722699e3d408f3a0a87aa8e3f929b686e5dd82e8b46ce7e704863cca4b7fce9c78db571be535a86c018e611ff03cc4ac00000000"
    }
  ]
}