{
  "hash": "000000001884b26b0a2482be00f3dc03131154430462453c7193b6079daaf0eb",
  "confirmations": 52036,
  "height": 129,
  "version": 1,
  "versionHex": "00000001",
  "merkleroot": "9a1f38fa9f25bb77504cfda998c4742b5a22466acb32ebedb247bd284682a5be",
  "time": 1231683160,
  "mediantime": 1231678278,
  "nonce": 1805656598,
  "bits": "1d00ffff",
  "difficulty": 1,
  "chainwork": "0000000000000000000000000000000000000000000000000000008200820082",
  "nTx": 1,
  "previousblockhash": "00000000dda07b33ea6dc860805e868c05f8ffa2e8d35a8157a51ec64f0818f0",
  "nextblockhash": "00000000a639917e11de9c36aa5d2e5f3352c2fcef06729ac9540b84837c59a1",
  "strippedsize": 215,
  "size": 215,
  "weight": 860,
  "tx": [
    {
      "txid": "9a1f38fa9f25bb77504cfda998c4742b5a22466acb32ebedb247bd284682a5be",
      "hash": "9a1f38fa9f25bb77504cfda998c4742b5a22466acb32ebedb247bd284682a5be",
      "version": 1,
      "size": 134,
      "vsize": 134,
      "weight": 536,
      "locktime": 0,
      "vin": [
        {
          "coinbase": "04ffff001d010c",
          "sequence": 4294967295
        }
      ],
      "vout": [
        {
          "value": 50.0,
          "n": 0,
          "scriptPubKey": {
            "asm": "0406e1974e271c855216c07ebf6594c18e06e73d99bfd7a54b391b24a8a29536fc7ce68b349bf098c623a6b219ca83f0422bc20653c3e201fa5a7e820abed4f30f OP_CHECKSIG",
            "desc": "pk(0406e1974e271c855216c07ebf6594c18e06e73d99bfd7a54b391b24a8a29536fc7ce68b349bf098c623a6b219ca83f0422bc20653c3e201fa5a7e820abed4f30f)#2vhycz48",
            "hex": "410406e1974e271c855216c07ebf6594c18e06e73d99bfd7a54b391b24a8a29536fc7ce68b349bf098c623a6b219ca83f0422bc20653c3e201fa5a7e820abed4f30fac",
            "type": "pubkey"
          }
        }
      ],
      "hex": "01000000010000000000000000000000000000000000000000000000000000000000000000ffffffff0704ffff001d010cffffffff0100f2052a0100000043410406e1974e271c855216c07ebf6594c18e06e73d99bfd7a54b391b24a8a29536fc7ce68b349bf098c623a6b219ca83f0422bc20653c3e201fa5a7e820abed4f30fac00000000"
    }
  ]
}