{
  "hash": "0000000035f8089050ccbed771a5106ae2876eae310f5ae393ec451cee47abcc",
  "confirmations": 43633,
  "height": 9465,
  "version": 1,
  "versionHex": "00000001",
  "merkleroot": "85a0944f4e0c6021e8b1a5f15f48f00d3a0c036d1764d7fd17574c35f3a742c2",
  "time": 1238602542,
  "mediantime": 1238599706,
  "nonce": 3516139563,
  "bits": "1d00ffff",
  "difficulty": 1,
  "chainwork": "000000000000000000000000000000000000000000000000000024fa24fa24fa",
  "nTx": 1,
  "previousblockhash": "00000000d5b91b275f3858fe848b9ada0cde0d2531d66c23a9079a3ae4f54dcc",
  "nextblockhash": "000000002fcc3326cb16666c82cd298ea4a6bf66363351af87d392b82f190ace",
  "strippedsize": 216,
  "size": 216,
  "weight": 864,
  "tx": [
    {
      "txid": "85a0944f4e0c6021e8b1a5f15f48f00d3a0c036d1764d7fd17574c35f3a742c2",
      "hash": "85a0944f4e0c6021e8b1a5f15f48f00d3a0c036d1764d7fd17574c35f3a742c2",
      "version": 1,
      "size": 135,
      "vsize": 135,
      "weight": 540,
      "locktime": 0,
      "vin": [
        {
          "coinbase": "04ffff001d02ba04",
          "sequence": 4294967295
        }
      ],
      "vout": [
        {
          "value": 50.0,
          "n": 0,
          "scriptPubKey": {
            "asm": "04b4d0114d136d3decfdd6b1f54fc26f411ec0ffc5d7304844d2dc088f83157a7ca1978dd38c0e81843eb13ed8a1106453f50baadb538354f1bd277401d0a14e9e OP_CHECKSIG",
            "desc": "pk(04b4d0114d136d3decfdd6b1f54fc26f411ec0ffc5d7304844d2dc088f83157a7ca1978dd38c0e81843eb13ed8a1106453f50baadb538354f1bd277401d0a14e9e)#kkkwvncp",
            "hex": "4104b4d0114d136d3decfdd6b1f54fc26f411ec0ffc5d7304844d2dc088f83157a7ca1978dd38c0e81843eb13ed8a1106453f50baadb538354f1bd277401d0a14e9eac",
            "type": "pubkey"
          }
        }
      ],
      "hex": "01000000010000000000000000000000000000000000000000000000000000000000000000ffffffff0804ffff001d02ba04ffffffff0100f2052a01000000434104b4d0114d136d3decfdd6b1f54fc26f411ec0ffc5d7304844d2dc088f83157a7ca1978dd38c0e81843eb13ed8a1106453f50baadb538354f1bd277401d0a14e9eac00000000"
    }
  ]
}