{
  "hash": "0000000090a0137ad27ad897e5f3d9119007b0aeff4fbec351340a7efdd9fc30",
  "confirmations": 47831,
  "height": 5267,
  "version": 1,
  "versionHex": "00000001",
  "merkleroot": "e64ef2e6a54a9fb0638bff5a339463de16c3b42bd2c9e63af8c3f424dba08cac",
  "time": 1235335298,
  "mediantime": 1235331412,
  "nonce": 2037144321,
  "bits": "1d00ffff",
  "difficulty": 1,
  "chainwork": "0000000000000000000000000000000000000000000000000000149414941494",
  "nTx": 1,
  "previousblockhash": "000000006d252aff157b8b6b5212fe6c72e3a2904912a6022c1161dcb329d744",
  "nextblockhash": "000000009972e6730c5f971f0b88a2a7702d240ebe1042f4cc77d65ab16bb47c",
  "strippedsize": 216,
  "size": 216,
  "weight": 864,
  "tx": [
    {
      "txid": "e64ef2e6a54a9fb0638bff5a339463de16c3b42bd2c9e63af8c3f424dba08cac",
      "hash": "e64ef2e6a54a9fb0638bff5a339463de16c3b42bd2c9e63af8c3f424dba08cac",
      "version": 1,
      "size": 135,
      "vsize": 135,
      "weight": 540,
      "locktime": 0,
      "vin": [
        {
          "coinbase": "04ffff001d028301",
          "sequence": 4294967295
        }
      ],
      "vout": [
        {
          "value": 50.0,
          "n": 0,
          "scriptPubKey": {
            "asm": "046c4f19037960f0498ce9f3d722960c1e83cd302695364babf3f6ca53ebe7730594473545a7e27a7673b013a856f1c62814b80f996e0d0bce01b170c24c93f1f7 OP_CHECKSIG",
            "desc": "pk(046c4f19037960f0498ce9f3d722960c1e83cd302695364babf3f6ca53ebe7730594473545a7e27a7673b013a856f1c62814b80f996e0d0bce01b170c24c93f1f7)#zt4hf5mm",
            "hex": "41046c4f19037960f0498ce9f3d722960c1e83cd302695364babf3f6ca53ebe7730594473545a7e27a7673b013a856f1c62814b80f996e0d0bce01b170c24c93f1f7ac",
            "type": "pubkey"
          }
        }
      ],
      "hex": "01000000010000000000000000000000000000000000000000000000000000000000000000ffffffff0804ffff001d028301ffffffff0100f2052a010000004341046c4f19037960f0498ce9f3d722960c1e83cd302695364babf3f6ca53ebe7730594473545a7e27a7673b013a856f1c62814b80f996e0d0bce01b170c24c93f1f7ac00000000"
    }
  ]
}