{
  "hash": "00000000aeeefd7c35c30f53345004470618aa400239892cdafd6ed5a282cd2a",
  "confirmations": 50996,
  "height": 2102,
  "version": 1,
  "versionHex": "00000001",
  "merkleroot": "db35fd078d476f8ee9a774998dfd46a7ea0f629c21ff3d4983d5119785c25e71",
  "time": 1233138292,
  "mediantime": 1233135169,
  "nonce": 109670576,
  "bits": "1d00ffff",
  "difficulty": 1,
  "chainwork": "0000000000000000000000000000000000000000000000000000083708370837",
  "nTx": 1,
  "previousblockhash": "00000000d8982f243bdc42ea9b6dd9961f98d99db54decdc6affdfdfd7205eaf",
  "nextblockhash": "00000000d5c38d3d304e325f7892bc67affc7c1bdbf82db7d6233178afd3edcb",
  "strippedsize": 215,
  "size": 215,
  "weight": 860,
  "tx": [
    {
      "txid": "db35fd078d476f8ee9a774998dfd46a7ea0f629c21ff3d4983d5119785c25e71",
      "hash": "db35fd078d476f8ee9a774998dfd46a7ea0f629c21ff3d4983d5119785c25e71",
      "version": 1,
      "size": 134,
      "vsize": 134,
      "weight": 536,
      "locktime": 0,
      "vin": [
        {
          "coinbase": "04ffff001d012c",
          "sequence": 4294967295
        }
      ],
      "vout": [
        {
          "value": 50.0,
          "n": 0,
          "scriptPubKey": {
            "asm": "04731511f522f0c786b20b897df95a7586520a8f7f4ef3b874a32e3e80cdc76340abb1c7effde982d13eaaa7914da3ec5f4e670713545f672abaafc2ee2e6b22a1 OP_CHECKSIG",
            "desc": "pk(04731511f522f0c786b20b897df95a7586520a8f7f4ef3b874a32e3e80cdc76340abb1c7effde982d13eaaa7914da3ec5f4e670713545f672abaafc2ee2e6b22a1)#28cr07g6",
            "hex": "4104731511f522f0c786b20b897df95a7586520a8f7f4ef3b874a32e3e80cdc76340abb1c7effde982d13eaaa7914da3ec5f4e670713545f672abaafc2ee2e6b22a1ac",
            "type": "pubkey"
          }
        }
      ],
      "hex": "01000000010000000000000000000000000000000000000000000000000000000000000000ffffffff0704ffff001d012cffffffff0100f2052a01000000434104731511f522f0c786b20b897df95a7586520a8f7f4ef3b874a32e3e80cdc76340abb1c7effde982d13eaaa7914da3ec5f4e670713545f672abaafc2ee2e6b22a1ac00000000"
    }
  ]
}