{
  "hash": "0000000040774cda0f66f9107d3171ce1dbd8a11043658f3892eac5a08124547",
  "confirmations": 44687,
  "height": 8411,
  "version": 1,
  "versionHex": "00000001",
  "merkleroot": "5f6f710f962d0d486e4750a30405cba4ad7fd5949ef7503649441e53c5170df6",
  "time": 1237807245,
  "mediantime": 1237802792,
  "nonce": 474134786,
  "bits": "1d00ffff",
  "difficulty": 1,
  "chainwork": "000000000000000000000000000000000000000000000000000020dc20dc20dc",
  "nTx": 1,
  "previousblockhash": "000000006373116c7d08c22020b47120d16747019c94c1bb82add99eaff21755",
  "nextblockhash": "0000000037e283cc7024657386e332f7e13f76083c58657303ea40db07ecc521",
  "strippedsize": 216,
  "size": 216,
  "weight": 864,
  "tx": [
    {
      "txid": "5f6f710f962d0d486e4750a30405cba4ad7fd5949ef7503649441e53c5170df6",
      "hash": "5f6f710f962d0d486e4750a30405cba4ad7fd5949ef7503649441e53c5170df6",
      "version": 1,
      "size": 135,
      "vsize": 135,
      "weight": 540,
      "locktime": 0,
      "vin": [
        {
          "coinbase": "04ffff001d024006",
          "sequence": 4294967295
        }
      ],
      "vout": [
        {
          "value": 50.0,
          "n": 0,
          "scriptPubKey": {
            "asm": "042a6a2091675cf353b48ae038c346f859927da28078e598a036d57727eedcc1b9b5410aad5492ae366c0842701d96bc9151ee0461ca1656a95810c79cba80f707 OP_CHECKSIG",
            "desc": "pk(042a6a2091675cf353b48ae038c346f859927da28078e598a036d57727eedcc1b9b5410aad5492ae366c0842701d96bc9151ee0461ca1656a95810c79cba80f707)#5trkh0ss",
            "hex": "41042a6a2091675cf353b48ae038c346f859927da28078e598a036d57727eedcc1b9b5410aad5492ae366c0842701d96bc9151ee0461ca1656a95810c79cba80f707ac",
            "type": "pubkey"
          }
        }
      ],
      "hex": "01000000010000000000000000000000000000000000000000000000000000000000000000ffffffff0804ffff001d024006ffffffff0100f2052a010000004341042a6a2091675cf353b48ae038c346f859927da28078e598a036d57727eedcc1b9b5410aad5492ae366c0842701d96bc9151ee0461ca1656a95810c79cba80f707ac00000000"
    }
  ]
}