{
  "hash": "00000000460ddf4975bb46903298de10afc2b44d7e1cffec0ccfbcc04902ce2d",
  "confirmations": 49811,
  "height": 3287,
  "version": 1,
  "versionHex": "00000001",
  "merkleroot": "e7d0abd722d530bf41e52569d0b100452d26a1f6092786d58a1b23d40e077e13",
  "time": 1233962857,
  "mediantime": 1233956776,
  "nonce": 2820422446,
  "bits": "1d00ffff",
  "difficulty": 1,
  "chainwork": "00000000000000000000000000000000000000000000000000000cd80cd80cd8",
  "nTx": 1,
  "previousblockhash": "00000000f10906b2ba9bc24818a505636a81767da51f266deb79ea06297aebdf",
  "nextblockhash": "0000000036dbc6ad310deeaa24e1a840f4a19da9a01e6cf95092862de20228c2",
  "strippedsize": 216,
  "size": 216,
  "weight": 864,
  "tx": [
    {
      "txid": "e7d0abd722d530bf41e52569d0b100452d26a1f6092786d58a1b23d40e077e13",
      "hash": "e7d0abd722d530bf41e52569d0b100452d26a1f6092786d58a1b23d40e077e13",
      "version": 1,
      "size": 135,
      "vsize": 135,
      "weight": 540,
      "locktime": 0,
      "vin": [
        {
          "coinbase": "04ffff001d020d04",
          "sequence": 4294967295
        }
      ],
      "vout": [
        {
          "value": 50.0,
          "n": 0,
          "scriptPubKey": {
            "asm": "040d032582d5c666974e448d8adb6a5e89e0b7c09b6af02aeb4fea65d688d7167c2ef6bdd6a6a932e80e7ddea61416e45997fd6b2bd33986b5170d437eb71c68f2 OP_CHECKSIG",
            "desc": "pk(040d032582d5c666974e448d8adb6a5e89e0b7c09b6af02aeb4fea65d688d7167c2ef6bdd6a6a932e80e7ddea61416e45997fd6b2bd33986b5170d437eb71c68f2)#9jdm6nxn",
            "hex": "41040d032582d5c666974e448d8adb6a5e89e0b7c09b6af02aeb4fea65d688d7167c2ef6bdd6a6a932e80e7ddea61416e45997fd6b2bd33986b5170d437eb71c68f2ac",
            "type": "pubkey"
          }
        }
      ],
      "hex": "01000000010000000000000000000000000000000000000000000000000000000000000000ffffffff0804ffff001d020d04ffffffff0100f2052a010000004341040d032582d5c666974e448d8adb6a5e89e0b7c09b6af02aeb4fea65d688d7167c2ef6bdd6a6a932e80e7ddea61416e45997fd6b2bd33986b5170d437eb71c68f2ac00000000"
    }
  ]
}