{
  "hash": "0000000083c5e39b7f7179b89332beb552d585cc4bd3ff69fb4bff56e02f65ff",
  "confirmations": 49460,
  "height": 3638,
  "version": 1,
  "versionHex": "00000001",
  "merkleroot": "1b3179e0f36addd13e9b7d9401d881996fe739e767955a2be15c5bcf32ce02c9",
  "time": 1234195171,
  "mediantime": 1234192747,
  "nonce": 7946210,
  "bits": "1d00ffff",
  "difficulty": 1,
  "chainwork": "00000000000000000000000000000000000000000000000000000e370e370e37",
  "nTx": 1,
  "previousblockhash": "00000000773154fb5e95c65f36d1f0f6c02355f61da430dbd05d0c56166bb1cd",
  "nextblockhash": "00000000f3e160a69e8b6b424b7ed6591558b63fc41b24c3e317988bd93313af",
  "strippedsize": 216,
  "size": 216,
  "weight": 864,
  "tx": [
    {
      "txid": "1b3179e0f36addd13e9b7d9401d881996fe739e767955a2be15c5bcf32ce02c9",
      "hash": "1b3179e0f36addd13e9b7d9401d881996fe739e767955a2be15c5bcf32ce02c9",
      "version": 1,
      "size": 135,
      "vsize": 135,
      "weight": 540,
      "locktime": 0,
      "vin": [
        {
          "coinbase": "04ffff001d024e01",
          "sequence": 4294967295
        }
      ],
      "vout": [
        {
          "value": 50.0,
          "n": 0,
          "scriptPubKey": {
            "asm": "04a4c1148f0e28cfcae918a32990ace6ef0691183fe75bef38dc4e4f842e9aef22ae9ac62cfe75f8988aa79da6aa59720f49d731109e7d5da2eaf33de66335b1ed OP_CHECKSIG",
            "desc": "pk(04a4c1148f0e28cfcae918a32990ace6ef0691183fe75bef38dc4e4f842e9aef22ae9ac62cfe75f8988aa79da6aa59720f49d731109e7d5da2eaf33de66335b1ed)#ue4tfq65",
            "hex": "4104a4c1148f0e28cfcae918a32990ace6ef0691183fe75bef38dc4e4f842e9aef22ae9ac62cfe75f8988aa79da6aa59720f49d731109e7d5da2eaf33de66335b1edac",
            "type": "pubkey"
          }
        }
      ],
      "hex": "01000000010000000000000000000000000000000000000000000000000000000000000000ffffffff0804ffff001d024e01ffffffff0100f2052a01000000434104a4c1148f0e28cfcae918a32990ace6ef0691183fe75bef38dc4e4f842e9aef22ae9ac62cfe75f8988aa79da6aa59720f49d731109e7d5da2eaf33de66335b1edac00000000"
    }
  ]
}