{
  "hash": "00000000f209d861eca97e4cf1f10d13698459f7b08be9281b207b97a804f0c9",
  "confirmations": 51964,
  "height": 1134,
  "version": 1,
  "versionHex": "00000001",
  "merkleroot": "d9401bfeeb67bfe3a4eee5e13cf3a94559b71b501c4571ef620cb370c2726164",
  "time": 1232448076,
  "mediantime": 1232443220,
  "nonce": 1724845832,
  "bits": "1d00ffff",
  "difficulty": 1,
  "chainwork": "0000000000000000000000000000000000000000000000000000046f046f046f",
  "nTx": 1,
  "previousblockhash": "00000000f29e00214e99c5dbabee71a1033b577a27143248bdfff08adc3644f3",
  "nextblockhash": "000000002a9d85363e7921b7988a2a9b912df882d0487dc6357a832f6180fb0e",
  "strippedsize": 216,
  "size": 216,
  "weight": 864,
  "tx": [
    {
      "txid": "d9401bfeeb67bfe3a4eee5e13cf3a94559b71b501c4571ef620cb370c2726164",
      "hash": "d9401bfeeb67bfe3a4eee5e13cf3a94559b71b501c4571ef620cb370c2726164",
      "version": 1,
      "size": 135,
      "vsize": 135,
      "weight": 540,
      "locktime": 0,
      "vin": [
        {
          "coinbase": "04ffff001d028e07",
          "sequence": 4294967295
        }
      ],
      "vout": [
        {
          "value": 50.0,
          "n": 0,
          "scriptPubKey": {
            "asm": "0463ac51daac04c85c655ddc49f83272bfafbfb5b6ddc929acabbcf4b4ccf6302411d67dc803fe8a777ee197ed3ea90478f3a3aa2e8857d884d65e9e3aff4a04bd OP_CHECKSIG",
            "desc": "pk(0463ac51daac04c85c655ddc49f83272bfafbfb5b6ddc929acabbcf4b4ccf6302411d67dc803fe8a777ee197ed3ea90478f3a3aa2e8857d884d65e9e3aff4a04bd)#nvjcx2eq",
            "hex": "410463ac51daac04c85c655ddc49f83272bfafbfb5b6ddc929acabbcf4b4ccf6302411d67dc803fe8a777ee197ed3ea90478f3a3aa2e8857d884d65e9e3aff4a04bdac",
            "type": "pubkey"
          }
        }
      ],
      "hex": "01000000010000000000000000000000000000000000000000000000000000000000000000ffffffff0804ffff001d028e07ffffffff0100f2052a0100000043410463ac51daac04c85c655ddc49f83272bfafbfb5b6ddc929acabbcf4b4ccf6302411d67dc803fe8a777ee197ed3ea90478f3a3aa2e8857d884d65e9e3aff4a04bdac00000000"
    }
  ]
}