{
  "hash": "000000008b948c2c786e8078aa2514d34aa68f726f5bcf360dac67fd4313d342",
  "confirmations": 46435,
  "height": 6663,
  "version": 1,
  "versionHex": "00000001",
  "merkleroot": "64f2be4b8baf173bbaaf89678edcb3c5ef32f8789e8f5a1cea93eed1453a9310",
  "time": 1236453426,
  "mediantime": 1236449909,
  "nonce": 3745726509,
  "bits": "1d00ffff",
  "difficulty": 1,
  "chainwork": "00000000000000000000000000000000000000000000000000001a081a081a08",
  "nTx": 1,
  "previousblockhash": "00000000319cacde61dec8ee9f4f064c445d9f6b6c163eec1c175c224a989771",
  "nextblockhash": "0000000074f99cc2c2f30dd95322757a2772b083a8695974540fdfe9756ef716",
  "strippedsize": 216,
  "size": 216,
  "weight": 864,
  "tx": [
    {
      "txid": "64f2be4b8baf173bbaaf89678edcb3c5ef32f8789e8f5a1cea93eed1453a9310",
      "hash": "64f2be4b8baf173bbaaf89678edcb3c5ef32f8789e8f5a1cea93eed1453a9310",
      "version": 1,
      "size": 135,
      "vsize": 135,
      "weight": 540,
      "locktime": 0,
      "vin": [
        {
          "coinbase": "04ffff001d025306",
          "sequence": 4294967295
        }
      ],
      "vout": [
        {
          "value": 50.0,
          "n": 0,
          "scriptPubKey": {
            "asm": "041cd2310bfd1b8fb85af31cd9ba42216f4755a1b7cf565b862b293a9cce26a2e7410cf1d4f5f5f10d10b48c40cfe72931faf90512ea24b3dd294beba9cf011953 OP_CHECKSIG",
            "desc": "pk(041cd2310bfd1b8fb85af31cd9ba42216f4755a1b7cf565b862b293a9cce26a2e7410cf1d4f5f5f10d10b48c40cfe72931faf90512ea24b3dd294beba9cf011953)#97gwt6dd",
            "hex": "41041cd2310bfd1b8fb85af31cd9ba42216f4755a1b7cf565b862b293a9cce26a2e7410cf1d4f5f5f10d10b48c40cfe72931faf90512ea24b3dd294beba9cf011953ac",
            "type": "pubkey"
          }
        }
      ],
      "hex": "01000000010000000000000000000000000000000000000000000000000000000000000000ffffffff0804ffff001d025306ffffffff0100f2052a010000004341041cd2310bfd1b8fb85af31cd9ba42216f4755a1b7cf565b862b293a9cce26a2e7410cf1d4f5f5f10d10b48c40cfe72931faf90512ea24b3dd294beba9cf011953ac00000000"
    }
  ]
}