{
  "hash": "0000000088d28a379c83e5f176eb13ceb5f8e8859c717608972d24d8f59265b8",
  "confirmations": 46173,
  "height": 6925,
  "version": 1,
  "versionHex": "00000001",
  "merkleroot": "7d754e00f48d81cdd7fc4a7b43669247d993a6825f488d1003b7062868a8a44e",
  "time": 1236656332,
  "mediantime": 1236652317,
  "nonce": 376036377,
  "bits": "1d00ffff",
  "difficulty": 1,
  "chainwork": "00000000000000000000000000000000000000000000000000001b0e1b0e1b0e",
  "nTx": 1,
  "previousblockhash": "000000000c5fc06f9d1f5b21ae3b05715a5285315f272cfe5432c89b8bc1647b",
  "nextblockhash": "00000000a2210c8fe0d6da04eeca8832b8cb20c55178561e543bbfc240754ef9",
  "strippedsize": 216,
  "size": 216,
  "weight": 864,
  "tx": [
    {
      "txid": "7d754e00f48d81cdd7fc4a7b43669247d993a6825f488d1003b7062868a8a44e",
      "hash": "7d754e00f48d81cdd7fc4a7b43669247d993a6825f488d1003b7062868a8a44e",
      "version": 1,
      "size": 135,
      "vsize": 135,
      "weight": 540,
      "locktime": 0,
      "vin": [
        {
          "coinbase": "04ffff001d02d200",
          "sequence": 4294967295
        }
      ],
      "vout": [
        {
          "value": 50.0,
          "n": 0,
          "scriptPubKey": {
            "asm": "0444ccbf826130c0940525fcc474876c5e6c37a3b421c29e4bcb0ab79834f23a90e75c828ce7d630c37b8ad68d8926ae2ca99972d881b708589ff8269ad8b7911e OP_CHECKSIG",
            "desc": "pk(0444ccbf826130c0940525fcc474876c5e6c37a3b421c29e4bcb0ab79834f23a90e75c828ce7d630c37b8ad68d8926ae2ca99972d881b708589ff8269ad8b7911e)#klnkvw3t",
            "hex": "410444ccbf826130c0940525fcc474876c5e6c37a3b421c29e4bcb0ab79834f23a90e75c828ce7d630c37b8ad68d8926ae2ca99972d881b708589ff8269ad8b7911eac",
            "type": "pubkey"
          }
        }
      ],
      "hex": "01000000010000000000000000000000000000000000000000000000000000000000000000ffffffff0804ffff001d02d200ffffffff0100f2052a0100000043410444ccbf826130c0940525fcc474876c5e6c37a3b421c29e4bcb0ab79834f23a90e75c828ce7d630c37b8ad68d8926ae2ca99972d881b708589ff8269ad8b7911eac00000000"
    }
  ]
}