{
  "hash": "00000000044ccb6ba36aafd0b7cb9efddd361a8773f69fe17c2f9b377c836571",
  "confirmations": 45731,
  "height": 7367,
  "version": 1,
  "versionHex": "00000001",
  "merkleroot": "8e9006cf278dc9c0065c9c8666a71ce9a16234ff4efeefa47af434ad059f23a7",
  "time": 1236996224,
  "mediantime": 1236991500,
  "nonce": 2925747000,
  "bits": "1d00ffff",
  "difficulty": 1,
  "chainwork": "00000000000000000000000000000000000000000000000000001cc81cc81cc8",
  "nTx": 1,
  "previousblockhash": "000000008d960b45211d81f009f329534e81df80066556c614f0088226f0782e",
  "nextblockhash": "00000000dc83b7cb494a538f1524c387fb4bba7946af422bd383dffc62c7229a",
  "strippedsize": 216,
  "size": 216,
  "weight": 864,
  "tx": [
    {
      "txid": "8e9006cf278dc9c0065c9c8666a71ce9a16234ff4efeefa47af434ad059f23a7",
      "hash": "8e9006cf278dc9c0065c9c8666a71ce9a16234ff4efeefa47af434ad059f23a7",
      "version": 1,
      "size": 135,
      "vsize": 135,
      "weight": 540,
      "locktime": 0,
      "vin": [
        {
          "coinbase": "04ffff001d02d308",
          "sequence": 4294967295
        }
      ],
      "vout": [
        {
          "value": 50.0,
          "n": 0,
          "scriptPubKey": {
            "asm": "04d83ff3dc7071364b70df25d56a46f4356aabb0905f2d1a61e1fa96e3c0a8519ef780a5335a515f11e93932fd82a5ffbfff94c2476f9786845b83ced2bdf0f459 OP_CHECKSIG",
            "desc": "pk(04d83ff3dc7071364b70df25d56a46f4356aabb0905f2d1a61e1fa96e3c0a8519ef780a5335a515f11e93932fd82a5ffbfff94c2476f9786845b83ced2bdf0f459)#kurfxlxc",
            "hex": "4104d83ff3dc7071364b70df25d56a46f4356aabb0905f2d1a61e1fa96e3c0a8519ef780a5335a515f11e93932fd82a5ffbfff94c2476f9786845b83ced2bdf0f459ac",
            "type": "pubkey"
          }
        }
      ],
      "hex": "01000000010000000000000000000000000000000000000000000000000000000000000000ffffffff0804ffff001d02d308ffffffff0100f2052a01000000434104d83ff3dc7071364b70df25d56a46f4356aabb0905f2d1a61e1fa96e3c0a8519ef780a5335a515f11e93932fd82a5ffbfff94c2476f9786845b83ced2bdf0f459ac00000000"
    }
  ]
}