{
  "hash": "0000000026dc445d6b8d98b2ec9cd9e79cb3458a75d2b3d4aae55d0650234770",
  "confirmations": 44360,
  "height": 8738,
  "version": 1,
  "versionHex": "00000001",
  "merkleroot": "329cafb8634429102efcf3cfc5c343d61dd96585c6dedc7068a48acb0c6ae55c",
  "time": 1238050084,
  "mediantime": 1238045914,
  "nonce": 738121783,
  "bits": "1d00ffff",
  "difficulty": 1,
  "chainwork": "0000000000000000000000000000000000000000000000000000222322232223",
  "nTx": 1,
  "previousblockhash": "00000000f435608a96087d61c29baa738739b49a384282c9e15c58273fb397af",
  "nextblockhash": "0000000005330057f103f6952ccbf26832f348c8151ed4e0bf6de798c2514a55",
  "strippedsize": 216,
  "size": 216,
  "weight": 864,
  "tx": [
    {
      "txid": "329cafb8634429102efcf3cfc5c343d61dd96585c6dedc7068a48acb0c6ae55c",
      "hash": "329cafb8634429102efcf3cfc5c343d61dd96585c6dedc7068a48acb0c6ae55c",
      "version": 1,
      "size": 135,
      "vsize": 135,
      "weight": 540,
      "locktime": 0,
      "vin": [
        {
          "coinbase": "04ffff001d029101",
          "sequence": 4294967295
        }
      ],
      "vout": [
        {
          "value": 50.0,
          "n": 0,
          "scriptPubKey": {
            "asm": "04f96efeaf82dea690197b29b2ecc0fa28ffd85a6dc0f15cf09194ae89c71386503b9d76e3b506dad2af6427ebe044d7f5c89ab9e753c720f6778e0d605976b918 OP_CHECKSIG",
            "desc": "pk(04f96efeaf82dea690197b29b2ecc0fa28ffd85a6dc0f15cf09194ae89c71386503b9d76e3b506dad2af6427ebe044d7f5c89ab9e753c720f6778e0d605976b918)#x4tq465d",
            "hex": "4104f96efeaf82dea690197b29b2ecc0fa28ffd85a6dc0f15cf09194ae89c71386503b9d76e3b506dad2af6427ebe044d7f5c89ab9e753c720f6778e0d605976b918ac",
            "type": "pubkey"
          }
        }
      ],
      "hex": "01000000010000000000000000000000000000000000000000000000000000000000000000ffffffff0804ffff001d029101ffffffff0100f2052a01000000434104f96efeaf82dea690197b29b2ecc0fa28ffd85a6dc0f15cf09194ae89c71386503b9d76e3b506dad2af6427ebe044d7f5c89ab9e753c720f6778e0d605976b918ac00000000"
    }
  ]
}