{
  "hash": "0000000074da83bbe5295d0bcf0b14f98b74272619b381545179f6655c54f363",
  "confirmations": 50657,
  "height": 2441,
  "version": 1,
  "versionHex": "00000001",
  "merkleroot": "adf4bd16ea752a06c230c3a5fbb31811bd9304d4ba1670fdcf251cf6fd3b15c7",
  "time": 1233386287,
  "mediantime": 1233381760,
  "nonce": 3362902553,
  "bits": "1d00ffff",
  "difficulty": 1,
  "chainwork": "0000000000000000000000000000000000000000000000000000098a098a098a",
  "nTx": 1,
  "previousblockhash": "0000000075bd3a19133a1805c5881d6efb95115c470629d2a1c872cd7111d987",
  "nextblockhash": "00000000ef4330252e7d461a200c5a2208571b75e8645d18e4ebaa9ffc0c5ccd",
  "strippedsize": 215,
  "size": 215,
  "weight": 860,
  "tx": [
    {
      "txid": "adf4bd16ea752a06c230c3a5fbb31811bd9304d4ba1670fdcf251cf6fd3b15c7",
      "hash": "adf4bd16ea752a06c230c3a5fbb31811bd9304d4ba1670fdcf251cf6fd3b15c7",
      "version": 1,
      "size": 134,
      "vsize": 134,
      "weight": 536,
      "locktime": 0,
      "vin": [
        {
          "coinbase": "04ffff001d0161",
          "sequence": 4294967295
        }
      ],
      "vout": [
        {
          "value": 50.0,
          "n": 0,
          "scriptPubKey": {
            "asm": "04491d45dac92a0768cf8840900c2c0417af26f715e5f1dad2bcd423bc055d4a88d556e1d279c992f5173c949622d15f8cdf2c7b0c338f29090e8e182b4b8dc84f OP_CHECKSIG",
            "desc": "pk(04491d45dac92a0768cf8840900c2c0417af26f715e5f1dad2bcd423bc055d4a88d556e1d279c992f5173c949622d15f8cdf2c7b0c338f29090e8e182b4b8dc84f)#lusenfyx",
            "hex": "4104491d45dac92a0768cf8840900c2c0417af26f715e5f1dad2bcd423bc055d4a88d556e1d279c992f5173c949622d15f8cdf2c7b0c338f29090e8e182b4b8dc84fac",
            "type": "pubkey"
          }
        }
      ],
      "hex": "01000000010000000000000000000000000000000000000000000000000000000000000000ffffffff0704ffff001d0161ffffffff0100f2052a01000000434104491d45dac92a0768cf8840900c2c0417af26f715e5f1dad2bcd423bc055d4a88d556e1d279c992f5173c949622d15f8cdf2c7b0c338f29090e8e182b4b8dc84fac00000000"
    }
  ]
}