{
  "hash": "000000005d5ba30075901d8663229e15d4241ea1685a2a73d682b2569eccaa63",
  "confirmations": 49531,
  "height": 3567,
  "version": 1,
  "versionHex": "00000001",
  "merkleroot": "6841c3c58fb60ad1082b57ddd5fdf8e90f0bd4f084ac5351d70f1e8268bf377d",
  "time": 1234147856,
  "mediantime": 1234146067,
  "nonce": 1520902664,
  "bits": "1d00ffff",
  "difficulty": 1,
  "chainwork": "00000000000000000000000000000000000000000000000000000df00df00df0",
  "nTx": 1,
  "previousblockhash": "00000000ec957dd67696e7695e9d50bdbbe7521dd22c46a3273bc2190961d246",
  "nextblockhash": "0000000027193cac961c3bbf9cbf47f5d2069a7c66dfe3df5a5db160f78d6d3a",
  "strippedsize": 216,
  "size": 216,
  "weight": 864,
  "tx": [
    {
      "txid": "6841c3c58fb60ad1082b57ddd5fdf8e90f0bd4f084ac5351d70f1e8268bf377d",
      "hash": "6841c3c58fb60ad1082b57ddd5fdf8e90f0bd4f084ac5351d70f1e8268bf377d",
      "version": 1,
      "size": 135,
      "vsize": 135,
      "weight": 540,
      "locktime": 0,
      "vin": [
        {
          "coinbase": "04ffff001d022f08",
          "sequence": 4294967295
        }
      ],
      "vout": [
        {
          "value": 50.0,
          "n": 0,
          "scriptPubKey": {
            "asm": "046a96393cb5bebeb0ef1f18bf7be46ae6496d5097327731ea2e71f9f6c36cd01b36e9a5b7e7aa7b01c11a8869a68f02394a1a5dea54316d7fe2e9793e5812bddb OP_CHECKSIG",
            "desc": "pk(046a96393cb5bebeb0ef1f18bf7be46ae6496d5097327731ea2e71f9f6c36cd01b36e9a5b7e7aa7b01c11a8869a68f02394a1a5dea54316d7fe2e9793e5812bddb)#u555y5xg",
            "hex": "41046a96393cb5bebeb0ef1f18bf7be46ae6496d5097327731ea2e71f9f6c36cd01b36e9a5b7e7aa7b01c11a8869a68f02394a1a5dea54316d7fe2e9793e5812bddbac",
            "type": "pubkey"
          }
        }
      ],
      "hex": "01000000010000000000000000000000000000000000000000000000000000000000000000ffffffff0804ffff001d022f08ffffffff0100f2052a010000004341046a96393cb5bebeb0ef1f18bf7be46ae6496d5097327731ea2e71f9f6c36cd01b36e9a5b7e7aa7b01c11a8869a68f02394a1a5dea54316d7fe2e9793e5812bddbac00000000"
    }
  ]
}