{
  "hash": "000000006c9bb0c118496752862d318f356af7d1f0a751c4bd85c5786ff44e95",
  "confirmations": 45614,
  "height": 7484,
  "version": 1,
  "versionHex": "00000001",
  "merkleroot": "e9f357b21db7f9f3d6ad718d92d20e7b4f4e0e27d8a678a012ac151041664a86",
  "time": 1237084438,
  "mediantime": 1237081690,
  "nonce": 2706567980,
  "bits": "1d00ffff",
  "difficulty": 1,
  "chainwork": "00000000000000000000000000000000000000000000000000001d3d1d3d1d3d",
  "nTx": 1,
  "previousblockhash": "000000005bd5de0744ae93f48e99e41a00f18cfcdc85205c70e02e92defc9759",
  "nextblockhash": "000000000a5bd621b698d946db9efde3bd5813a261a34d03213307bfa86ad341",
  "strippedsize": 216,
  "size": 216,
  "weight": 864,
  "tx": [
    {
      "txid": "e9f357b21db7f9f3d6ad718d92d20e7b4f4e0e27d8a678a012ac151041664a86",
      "hash": "e9f357b21db7f9f3d6ad718d92d20e7b4f4e0e27d8a678a012ac151041664a86",
      "version": 1,
      "size": 135,
      "vsize": 135,
      "weight": 540,
      "locktime": 0,
      "vin": [
        {
          "coinbase": "04ffff001d02ab00",
          "sequence": 4294967295
        }
      ],
      "vout": [
        {
          "value": 50.0,
          "n": 0,
          "scriptPubKey": {
            "asm": "04e812762c7eec5dbf92db9868c0f7928d954991026939646ba2cf0efbc27b554b67a4e56ce95b35f4ddcccee51cc884e72d79413dc5e6d96386f9a5af268eaaba OP_CHECKSIG",
            "desc": "pk(04e812762c7eec5dbf92db9868c0f7928d954991026939646ba2cf0efbc27b554b67a4e56ce95b35f4ddcccee51cc884e72d79413dc5e6d96386f9a5af268eaaba)#v83x8dw5",
            "hex": "4104e812762c7eec5dbf92db9868c0f7928d954991026939646ba2cf0efbc27b554b67a4e56ce95b35f4ddcccee51cc884e72d79413dc5e6d96386f9a5af268eaabaac",
            "type": "pubkey"
          }
        }
      ],
      "hex": "01000000010000000000000000000000000000000000000000000000000000000000000000ffffffff0804ffff001d02ab00ffffffff0100f2052a01000000434104e812762c7eec5dbf92db9868c0f7928d954991026939646ba2cf0efbc27b554b67a4e56ce95b35f4ddcccee51cc884e72d79413dc5e6d96386f9a5af268eaabaac00000000"
    }
  ]
}