{
  "hash": "00000000a68383a3d0b8047ddf0de19a9a3329c4e3fd137b4e012ef491611376",
  "confirmations": 48757,
  "height": 4341,
  "version": 1,
  "versionHex": "00000001",
  "merkleroot": "be8001335318dad7015ae847d507b4e043a4d2960c1509011fe926a5e6fd34e7",
  "time": 1234672196,
  "mediantime": 1234669397,
  "nonce": 409819081,
  "bits": "1d00ffff",
  "difficulty": 1,
  "chainwork": "000000000000000000000000000000000000000000000000000010f610f610f6",
  "nTx": 1,
  "previousblockhash": "00000000c91ce6a11cb5c08289ae8b8f6e31b414613f0a2378c2accf06471e2d",
  "nextblockhash": "00000000f2a7a14a4e969c118db43111a594e526fdaac7b7fbbc2de268d0daee",
  "strippedsize": 216,
  "size": 216,
  "weight": 864,
  "tx": [
    {
      "txid": "be8001335318dad7015ae847d507b4e043a4d2960c1509011fe926a5e6fd34e7",
      "hash": "be8001335318dad7015ae847d507b4e043a4d2960c1509011fe926a5e6fd34e7",
      "version": 1,
      "size": 135,
      "vsize": 135,
      "weight": 540,
      "locktime": 0,
      "vin": [
        {
          "coinbase": "04ffff001d028909",
          "sequence": 4294967295
        }
      ],
      "vout": [
        {
          "value": 50.0,
          "n": 0,
          "scriptPubKey": {
            "asm": "04aa994aac18fcc3a4d09b8424a2ef2453b8d9dd7f60a3ddc78e3a1a171b51f6b545e3cfc7974f6d357c1c83877fda1caec83d159f091d685632acffbf90e8f562 OP_CHECKSIG",
            "desc": "pk(04aa994aac18fcc3a4d09b8424a2ef2453b8d9dd7f60a3ddc78e3a1a171b51f6b545e3cfc7974f6d357c1c83877fda1caec83d159f091d685632acffbf90e8f562)#x2ynfnlm",
            "hex": "4104aa994aac18fcc3a4d09b8424a2ef2453b8d9dd7f60a3ddc78e3a1a171b51f6b545e3cfc7974f6d357c1c83877fda1caec83d159f091d685632acffbf90e8f562ac",
            "type": "pubkey"
          }
        }
      ],
      "hex": "01000000010000000000000000000000000000000000000000000000000000000000000000ffffffff0804ffff001d028909ffffffff0100f2052a01000000434104aa994aac18fcc3a4d09b8424a2ef2453b8d9dd7f60a3ddc78e3a1a171b51f6b545e3cfc7974f6d357c1c83877fda1caec83d159f091d685632acffbf90e8f562ac00000000"
    }
  ]
}