{
  "hash": "00000000212493fbc194d3ad6b4919eb1e5d12de5fda10b792df87d6181dbd83",
  "confirmations": 43924,
  "height": 9174,
  "version": 1,
  "versionHex": "00000001",
  "merkleroot": "e58c70913b6c075b6b06c59ba9bc0a2d6b62471f96af477687656931877be2a9",
  "time": 1238382736,
  "mediantime": 1238378997,
  "nonce": 4021197061,
  "bits": "1d00ffff",
  "difficulty": 1,
  "chainwork": "000000000000000000000000000000000000000000000000000023d723d723d7",
  "nTx": 1,
  "previousblockhash": "000000008725c2ef27dc2a293c97bb446586d4aeeb1f9b62eb9f94c347bd1a76",
  "nextblockhash": "0000000082635ed303ee7abe0a3f33e4d129463b073d2c2d74001920581542cd",
  "strippedsize": 216,
  "size": 216,
  "weight": 864,
  "tx": [
    {
      "txid": "e58c70913b6c075b6b06c59ba9bc0a2d6b62471f96af477687656931877be2a9",
      "hash": "e58c70913b6c075b6b06c59ba9bc0a2d6b62471f96af477687656931877be2a9",
      "version": 1,
      "size": 135,
      "vsize": 135,
      "weight": 540,
      "locktime": 0,
      "vin": [
        {
          "coinbase": "04ffff001d02c109",
          "sequence": 4294967295
        }
      ],
      "vout": [
        {
          "value": 50.0,
          "n": 0,
          "scriptPubKey": {
            "asm": "04bbaad4fcb875443a829f9c9b9a678e1d6600deda120d63ae809ef7b48da02066ccc9b8179deb00fa6d2d3c53524b6876b7ce0568c1047820c64faa705e3f74a0 OP_CHECKSIG",
            "desc": "pk(04bbaad4fcb875443a829f9c9b9a678e1d6600deda120d63ae809ef7b48da02066ccc9b8179deb00fa6d2d3c53524b6876b7ce0568c1047820c64faa705e3f74a0)#p2ut3pfd",
            "hex": "4104bbaad4fcb875443a829f9c9b9a678e1d6600deda120d63ae809ef7b48da02066ccc9b8179deb00fa6d2d3c53524b6876b7ce0568c1047820c64faa705e3f74a0ac",
            "type": "pubkey"
          }
        }
      ],
      "hex": "01000000010000000000000000000000000000000000000000000000000000000000000000ffffffff0804ffff001d02c109ffffffff0100f2052a01000000434104bbaad4fcb875443a829f9c9b9a678e1d6600deda120d63ae809ef7b48da02066ccc9b8179deb00fa6d2d3c53524b6876b7ce0568c1047820c64faa705e3f74a0ac00000000"
    }
  ]
}