{
  "hash": "0000000002a794feccd0b5653dd3825141c8012b14a456acb20dd867750f7588",
  "confirmations": 49348,
  "height": 3750,
  "version": 1,
  "versionHex": "00000001",
  "merkleroot": "6e86658c76519f0bcb87db35f7dbc4e676ec47e162612632b2a703d1eeaf5ff3",
  "time": 1234271230,
  "mediantime": 1234266213,
  "nonce": 1601583923,
  "bits": "1d00ffff",
  "difficulty": 1,
  "chainwork": "00000000000000000000000000000000000000000000000000000ea70ea70ea7",
  "nTx": 1,
  "previousblockhash": "00000000c5fc512b11b322694c4f8056b44cbee05e039515f0a6844e6c731c73",
  "nextblockhash": "000000004029d5aab9ce4056467eb4747e7fe8152d2db2506ac7b216004868e9",
  "strippedsize": 216,
  "size": 216,
  "weight": 864,
  "tx": [
    {
      "txid": "6e86658c76519f0bcb87db35f7dbc4e676ec47e162612632b2a703d1eeaf5ff3",
      "hash": "6e86658c76519f0bcb87db35f7dbc4e676ec47e162612632b2a703d1eeaf5ff3",
      "version": 1,
      "size": 135,
      "vsize": 135,
      "weight": 540,
      "locktime": 0,
      "vin": [
        {
          "coinbase": "04ffff001d02a500",
          "sequence": 4294967295
        }
      ],
      "vout": [
        {
          "value": 50.0,
          "n": 0,
          "scriptPubKey": {
            "asm": "0426dc90326a7a9fca95f61ab7a4c4a9ca70b8088e702db1d14682d6f5851e98d72f2b4f9b6f1348ccc17cb9c32e443fc199867a8f2f8005a106a3d7e2958fe6e9 OP_CHECKSIG",
            "desc": "pk(0426dc90326a7a9fca95f61ab7a4c4a9ca70b8088e702db1d14682d6f5851e98d72f2b4f9b6f1348ccc17cb9c32e443fc199867a8f2f8005a106a3d7e2958fe6e9)#t747g52h",
            "hex": "410426dc90326a7a9fca95f61ab7a4c4a9ca70b8088e702db1d14682d6f5851e98d72f2b4f9b6f1348ccc17cb9c32e443fc199867a8f2f8005a106a3d7e2958fe6e9ac",
            "type": "pubkey"
          }
        }
      ],
      "hex": "01000000010000000000000000000000000000000000000000000000000000000000000000ffffffff0804ffff001d02a500ffffffff0100f2052a0100000043410426dc90326a7a9fca95f61ab7a4c4a9ca70b8088e702db1d14682d6f5851e98d72f2b4f9b6f1348ccc17cb9c32e443fc199867a8f2f8005a106a3d7e2958fe6e9ac00000000"
    }
  ]
}