{
  "hash": "00000000d0da55d1721b8e76de181c49834b857e16abec4b616abf174fbd94f1",
  "confirmations": 44003,
  "height": 9095,
  "version": 1,
  "versionHex": "00000001",
  "merkleroot": "78f08034862b38bb0579622a90e2843adc6b2ffdc9118fe3574d511056fd502b",
  "time": 1238327396,
  "mediantime": 1238325148,
  "nonce": 1364007962,
  "bits": "1d00ffff",
  "difficulty": 1,
  "chainwork": "0000000000000000000000000000000000000000000000000000238823882388",
  "nTx": 1,
  "previousblockhash": "00000000adf64eca1b6e2ee5620bbc1718de99f796bab29dd4dc8fde15390f29",
  "nextblockhash": "000000000a19c798c579dede01a40639ad01dc5235ba4a7a6df354279257daf4",
  "strippedsize": 216,
  "size": 216,
  "weight": 864,
  "tx": [
    {
      "txid": "78f08034862b38bb0579622a90e2843adc6b2ffdc9118fe3574d511056fd502b",
      "hash": "78f08034862b38bb0579622a90e2843adc6b2ffdc9118fe3574d511056fd502b",
      "version": 1,
      "size": 135,
      "vsize": 135,
      "weight": 540,
      "locktime": 0,
      "vin": [
        {
          "coinbase": "04ffff001d023b08",
          "sequence": 4294967295
        }
      ],
      "vout": [
        {
          "value": 50.0,
          "n": 0,
          "scriptPubKey": {
            "asm": "04124b61c3f1d42f6121049a7e90cf4f6f9ba3c41294423e92fe3e89443badd7cec31550bd89ddb1a08a8b1285a86d13a33923d3e42d16de33b3a6443a94ab0d73 OP_CHECKSIG",
            "desc": "pk(04124b61c3f1d42f6121049a7e90cf4f6f9ba3c41294423e92fe3e89443badd7cec31550bd89ddb1a08a8b1285a86d13a33923d3e42d16de33b3a6443a94ab0d73)#706apakl",
            "hex": "4104124b61c3f1d42f6121049a7e90cf4f6f9ba3c41294423e92fe3e89443badd7cec31550bd89ddb1a08a8b1285a86d13a33923d3e42d16de33b3a6443a94ab0d73ac",
            "type": "pubkey"
          }
        }
      ],
      "hex": "01000000010000000000000000000000000000000000000000000000000000000000000000ffffffff0804ffff001d023b08ffffffff0100f2052a01000000434104124b61c3f1d42f6121049a7e90cf4f6f9ba3c41294423e92fe3e89443badd7cec31550bd89ddb1a08a8b1285a86d13a33923d3e42d16de33b3a6443a94ab0d73ac00000000"
    }
  ]
}