{
  "hash": "000000005d26a37e9d1b0f0582a58906b945c27cfd0bb7b8873cb336b98cbcd5",
  "confirmations": 44869,
  "height": 8229,
  "version": 1,
  "versionHex": "00000001",
  "merkleroot": "616f754150081dc225078d250555ee91d5884427f8455b77af38f58f08a125b7",
  "time": 1237669430,
  "mediantime": 1237646887,
  "nonce": 886930999,
  "bits": "1d00ffff",
  "difficulty": 1,
  "chainwork": "0000000000000000000000000000000000000000000000000000202620262026",
  "nTx": 1,
  "previousblockhash": "00000000da7e782dea38b21a6df77376601e6d15662496736187bb4984147d07",
  "nextblockhash": "00000000ace02fba9eb2b25bd11b8c632343111cdac17b25071557b5c788cb47",
  "strippedsize": 216,
  "size": 216,
  "weight": 864,
  "tx": [
    {
      "txid": "616f754150081dc225078d250555ee91d5884427f8455b77af38f58f08a125b7",
      "hash": "616f754150081dc225078d250555ee91d5884427f8455b77af38f58f08a125b7",
      "version": 1,
      "size": 135,
      "vsize": 135,
      "weight": 540,
      "locktime": 0,
      "vin": [
        {
          "coinbase": "04ffff001d028c04",
          "sequence": 4294967295
        }
      ],
      "vout": [
        {
          "value": 50.0,
          "n": 0,
          "scriptPubKey": {
            "asm": "0421e5edb50a1105e15adf79e576c8d0e9083b6cd0b61dcd7a051bb3b94b944c0eb0b443a9c9d07a0beb2e983ba0ab9b9cfdbc806f1a48d11ba9f2e1f072bfbfd7 OP_CHECKSIG",
            "desc": "pk(0421e5edb50a1105e15adf79e576c8d0e9083b6cd0b61dcd7a051bb3b94b944c0eb0b443a9c9d07a0beb2e983ba0ab9b9cfdbc806f1a48d11ba9f2e1f072bfbfd7)#et4v75z5",
            "hex": "410421e5edb50a1105e15adf79e576c8d0e9083b6cd0b61dcd7a051bb3b94b944c0eb0b443a9c9d07a0beb2e983ba0ab9b9cfdbc806f1a48d11ba9f2e1f072bfbfd7ac",
            "type": "pubkey"
          }
        }
      ],
      "hex": "01000000010000000000000000000000000000000000000000000000000000000000000000ffffffff0804ffff001d028c04ffffffff0100f2052a0100000043410421e5edb50a1105e15adf79e576c8d0e9083b6cd0b61dcd7a051bb3b94b944c0eb0b443a9c9d07a0beb2e983ba0ab9b9cfdbc806f1a48d11ba9f2e1f072bfbfd7ac00000000"
    }
  ]
}