{
  "hash": "000000008cdc52b3a942de8939ac5b23d7d4ebc8cffe3e57aefc0b1abd22da59",
  "confirmations": 48002,
  "height": 5096,
  "version": 1,
  "versionHex": "00000001",
  "merkleroot": "2f7ed5059ef87af0edbb99266f739acda9cbdb59e257db1f1ef9aee2cf75a6e5",
  "time": 1235213899,
  "mediantime": 1235209929,
  "nonce": 302268743,
  "bits": "1d00ffff",
  "difficulty": 1,
  "chainwork": "000000000000000000000000000000000000000000000000000013e913e913e9",
  "nTx": 1,
  "previousblockhash": "00000000c53755573f641113a404aad6f3766d6f7925eef27ded88a22f52dae8",
  "nextblockhash": "00000000a31782e3a3bb3ff479cf345eb827b72a65462fb5cbadc9147a09e840",
  "strippedsize": 216,
  "size": 216,
  "weight": 864,
  "tx": [
    {
      "txid": "2f7ed5059ef87af0edbb99266f739acda9cbdb59e257db1f1ef9aee2cf75a6e5",
      "hash": "2f7ed5059ef87af0edbb99266f739acda9cbdb59e257db1f1ef9aee2cf75a6e5",
      "version": 1,
      "size": 135,
      "vsize": 135,
      "weight": 540,
      "locktime": 0,
      "vin": [
        {
          "coinbase": "04ffff001d02af00",
          "sequence": 4294967295
        }
      ],
      "vout": [
        {
          "value": 50.0,
          "n": 0,
          "scriptPubKey": {
            "asm": "04b225fb96cdab631689ad5c7efcb3e9ad32b2f9d9f073d93165b8fcb9e80ffadc90810e436ce7302491be9aebb2660214d3b51a9059aab9b361f2f72bad637d31 OP_CHECKSIG",
            "desc": "pk(04b225fb96cdab631689ad5c7efcb3e9ad32b2f9d9f073d93165b8fcb9e80ffadc90810e436ce7302491be9aebb2660214d3b51a9059aab9b361f2f72bad637d31)#nu2q5e7q",
            "hex": "4104b225fb96cdab631689ad5c7efcb3e9ad32b2f9d9f073d93165b8fcb9e80ffadc90810e436ce7302491be9aebb2660214d3b51a9059aab9b361f2f72bad637d31ac",
            "type": "pubkey"
          }
        }
      ],
      "hex": "01000000010000000000000000000000000000000000000000000000000000000000000000ffffffff0804ffff001d02af00ffffffff0100f2052a01000000434104b225fb96cdab631689ad5c7efcb3e9ad32b2f9d9f073d93165b8fcb9e80ffadc90810e436ce7302491be9aebb2660214d3b51a9059aab9b361f2f72bad637d31ac00000000"
    }
  ]
}