{
  "hash": "00000000d0a5fc7e786da1d1f16bbf40204ca38200e6d9212e43cbb50fdd0bf5",
  "confirmations": 47611,
  "height": 5487,
  "version": 1,
  "versionHex": "00000001",
  "merkleroot": "1d1df9d12bb709983ec0b1ccbbbe1714e0b7b7a0dd75bba1a992c1f436bb3b93",
  "time": 1235509447,
  "mediantime": 1235504628,
  "nonce": 3340289838,
  "bits": "1d00ffff",
  "difficulty": 1,
  "chainwork": "0000000000000000000000000000000000000000000000000000157015701570",
  "nTx": 1,
  "previousblockhash": "000000009c34fcc049fc268d8928fc07d36896ffff4c97a285f479301aaf9473",
  "nextblockhash": "00000000de6548be719b8c1c974b369d018d9595d80b009edf4cdd29fb0e3175",
  "strippedsize": 216,
  "size": 216,
  "weight": 864,
  "tx": [
    {
      "txid": "1d1df9d12bb709983ec0b1ccbbbe1714e0b7b7a0dd75bba1a992c1f436bb3b93",
      "hash": "1d1df9d12bb709983ec0b1ccbbbe1714e0b7b7a0dd75bba1a992c1f436bb3b93",
      "version": 1,
      "size": 135,
      "vsize": 135,
      "weight": 540,
      "locktime": 0,
      "vin": [
        {
          "coinbase": "04ffff001d025a05",
          "sequence": 4294967295
        }
      ],
      "vout": [
        {
          "value": 50.0,
          "n": 0,
          "scriptPubKey": {
            "asm": "04f35bf5dab6da6578b1a0fcef539cd9144b8484255cbbe81e40ffd2e7bbc6e08a04f38fdd11d5a20cb9aa436719e9920d107dcd06e448952a2f01e30bd88e7113 OP_CHECKSIG",
            "desc": "pk(04f35bf5dab6da6578b1a0fcef539cd9144b8484255cbbe81e40ffd2e7bbc6e08a04f38fdd11d5a20cb9aa436719e9920d107dcd06e448952a2f01e30bd88e7113)#vecsds80",
            "hex": "4104f35bf5dab6da6578b1a0fcef539cd9144b8484255cbbe81e40ffd2e7bbc6e08a04f38fdd11d5a20cb9aa436719e9920d107dcd06e448952a2f01e30bd88e7113ac",
            "type": "pubkey"
          }
        }
      ],
      "hex": "01000000010000000000000000000000000000000000000000000000000000000000000000ffffffff0804ffff001d025a05ffffffff0100f2052a01000000434104f35bf5dab6da6578b1a0fcef539cd9144b8484255cbbe81e40ffd2e7bbc6e08a04f38fdd11d5a20cb9aa436719e9920d107dcd06e448952a2f01e30bd88e7113ac00000000"
    }
  ]
}