{
  "hash": "000000006d47c68cd89311254e5a4ab94a3786761e9b95aa08c493c6b3198b7f",
  "confirmations": 43243,
  "height": 9855,
  "version": 1,
  "versionHex": "00000001",
  "merkleroot": "2178bc1a0ea0570e92ea7e8c9f13bc34321aee2ae55f538c1737a283ddb6d398",
  "time": 1238896046,
  "mediantime": 1238892029,
  "nonce": 273556738,
  "bits": "1d00ffff",
  "difficulty": 1,
  "chainwork": "0000000000000000000000000000000000000000000000000000268026802680",
  "nTx": 1,
  "previousblockhash": "0000000048ce42951e8af4797031ac2a47772191baf7f7f2df5b57936c53be57",
  "nextblockhash": "00000000a821453227c850a97c9cffe12d358a894901bc46d8140662caf491ff",
  "strippedsize": 216,
  "size": 216,
  "weight": 864,
  "tx": [
    {
      "txid": "2178bc1a0ea0570e92ea7e8c9f13bc34321aee2ae55f538c1737a283ddb6d398",
      "hash": "2178bc1a0ea0570e92ea7e8c9f13bc34321aee2ae55f538c1737a283ddb6d398",
      "version": 1,
      "size": 135,
      "vsize": 135,
      "weight": 540,
      "locktime": 0,
      "vin": [
        {
          "coinbase": "04ffff001d026001",
          "sequence": 4294967295
        }
      ],
      "vout": [
        {
          "value": 50.0,
          "n": 0,
          "scriptPubKey": {
            "asm": "04874e64f77ddadcdf21a3103a4e406097a54c52700f177f998582b484812591083082d3e13e9a935aa9bf75a21aa811286dd5bb6e4436db1c3587161b6b991409 OP_CHECKSIG",
            "desc": "pk(04874e64f77ddadcdf21a3103a4e406097a54c52700f177f998582b484812591083082d3e13e9a935aa9bf75a21aa811286dd5bb6e4436db1c3587161b6b991409)#ghghxt3q",
            "hex": "4104874e64f77ddadcdf21a3103a4e406097a54c52700f177f998582b484812591083082d3e13e9a935aa9bf75a21aa811286dd5bb6e4436db1c3587161b6b991409ac",
            "type": "pubkey"
          }
        }
      ],
      "hex": "01000000010000000000000000000000000000000000000000000000000000000000000000ffffffff0804ffff001d026001ffffffff0100f2052a01000000434104874e64f77ddadcdf21a3103a4e406097a54c52700f177f998582b484812591083082d3e13e9a935aa9bf75a21aa811286dd5bb6e4436db1c3587161b6b991409ac00000000"
    }
  ]
}