{
  "hash": "0000000097f8cc004ec6223f882678fe354bb73895e5fd92b1e997bcb5a3dc0b",
  "confirmations": 47063,
  "height": 6035,
  "version": 1,
  "versionHex": "00000001",
  "merkleroot": "4d6c8fccab7dd1fa2e03333530651a80c659b226a8073d7ac980b613822028aa",
  "time": 1235957365,
  "mediantime": 1235953638,
  "nonce": 3351393302,
  "bits": "1d00ffff",
  "difficulty": 1,
  "chainwork": "0000000000000000000000000000000000000000000000000000179417941794",
  "nTx": 1,
  "previousblockhash": "000000001383f9f8bbf03a0f4f80e18575c6cbfd3d91f6fb75de275ecbe3159e",
  "nextblockhash": "00000000f8a3dc320d2d25b3af077a137df315e1144f08be3cd68460906b2c0b",
  "strippedsize": 216,
  "size": 216,
  "weight": 864,
  "tx": [
    {
      "txid": "4d6c8fccab7dd1fa2e03333530651a80c659b226a8073d7ac980b613822028aa",
      "hash": "4d6c8fccab7dd1fa2e03333530651a80c659b226a8073d7ac980b613822028aa",
      "version": 1,
      "size": 135,
      "vsize": 135,
      "weight": 540,
      "locktime": 0,
      "vin": [
        {
          "coinbase": "04ffff001d029e05",
          "sequence": 4294967295
        }
      ],
      "vout": [
        {
          "value": 50.0,
          "n": 0,
          "scriptPubKey": {
            "asm": "043764daf07a11f5d028b17d45063771ddc599883cca0730730cc3cba42355ba29ebe36b1db49c5b0461ea9c291826164e3626697d0b3094fabfa8bb3ea2890488 OP_CHECKSIG",
            "desc": "pk(043764daf07a11f5d028b17d45063771ddc599883cca0730730cc3cba42355ba29ebe36b1db49c5b0461ea9c291826164e3626697d0b3094fabfa8bb3ea2890488)#qewzg0gw",
            "hex": "41043764daf07a11f5d028b17d45063771ddc599883cca0730730cc3cba42355ba29ebe36b1db49c5b0461ea9c291826164e3626697d0b3094fabfa8bb3ea2890488ac",
            "type": "pubkey"
          }
        }
      ],
      "hex": "01000000010000000000000000000000000000000000000000000000000000000000000000ffffffff0804ffff001d029e05ffffffff0100f2052a010000004341043764daf07a11f5d028b17d45063771ddc599883cca0730730cc3cba42355ba29ebe36b1db49c5b0461ea9c291826164e3626697d0b3094fabfa8bb3ea2890488ac00000000"
    }
  ]
}