{
  "hash": "000000005282b3bae8fe27fbae5e19473ff1ee6932e1997b139d933ae76fce6f",
  "confirmations": 52048,
  "height": 1050,
  "version": 1,
  "versionHex": "00000001",
  "merkleroot": "315ce3f2245f80bd7244a6c941c0a693f107d4fe52e832d5c2beb1f5737e5b1c",
  "time": 1232387586,
  "mediantime": 1232383834,
  "nonce": 3470596394,
  "bits": "1d00ffff",
  "difficulty": 1,
  "chainwork": "0000000000000000000000000000000000000000000000000000041b041b041b",
  "nTx": 1,
  "previousblockhash": "00000000adcaab3694464b4964c187048235e3548a7a4c9fbfcfdc2379f38823",
  "nextblockhash": "000000003409ded9db68c486f8a296192c76eb810579bbcb1cf07bfbd4c03e20",
  "strippedsize": 216,
  "size": 216,
  "weight": 864,
  "tx": [
    {
      "txid": "315ce3f2245f80bd7244a6c941c0a693f107d4fe52e832d5c2beb1f5737e5b1c",
      "hash": "315ce3f2245f80bd7244a6c941c0a693f107d4fe52e832d5c2beb1f5737e5b1c",
      "version": 1,
      "size": 135,
      "vsize": 135,
      "weight": 540,
      "locktime": 0,
      "vin": [
        {
          "coinbase": "04ffff001d020206",
          "sequence": 4294967295
        }
      ],
      "vout": [
        {
          "value": 50.0,
          "n": 0,
          "scriptPubKey": {
            "asm": "0400a7ba016baf3571f66a4d464a02788f46c7b41d77e16823803945acb3419028645bff76cfc33be02c4247c13f89740e949a5b75a5c6613495522117e50f7493 OP_CHECKSIG",
            "desc": "pk(0400a7ba016baf3571f66a4d464a02788f46c7b41d77e16823803945acb3419028645bff76cfc33be02c4247c13f89740e949a5b75a5c6613495522117e50f7493)#n2erxwf3",
            "hex": "410400a7ba016baf3571f66a4d464a02788f46c7b41d77e16823803945acb3419028645bff76cfc33be02c4247c13f89740e949a5b75a5c6613495522117e50f7493ac",
            "type": "pubkey"
          }
        }
      ],
      "hex": "01000000010000000000000000000000000000000000000000000000000000000000000000ffffffff0804ffff001d020206ffffffff0100f2052a0100000043410400a7ba016baf3571f66a4d464a02788f46c7b41d77e16823803945acb3419028645bff76cfc33be02c4247c13f89740e949a5b75a5c6613495522117e50f7493ac00000000"
    }
  ]
}