{
  "hash": "000000004f2c68e1f64dda76adef1e474a3ae54c4b1ecad3b94012a58f328f9c",
  "confirmations": 49850,
  "height": 3248,
  "version": 1,
  "versionHex": "00000001",
  "merkleroot": "4204e6eb25a3cf6dca0dd818a48e0258c73926bbf5994684c1003a44aae23fad",
  "time": 1233936064,
  "mediantime": 1233931849,
  "nonce": 177206266,
  "bits": "1d00ffff",
  "difficulty": 1,
  "chainwork": "00000000000000000000000000000000000000000000000000000cb10cb10cb1",
  "nTx": 1,
  "previousblockhash": "00000000b479b500d05a1f3d5cd3b3ea631bc0c0ca23a38812c08abe33eb8d3c",
  "nextblockhash": "00000000d5cd813b5b739ed8de059e5ad40553711455b068fdc456552353a8ec",
  "strippedsize": 215,
  "size": 215,
  "weight": 860,
  "tx": [
    {
      "txid": "4204e6eb25a3cf6dca0dd818a48e0258c73926bbf5994684c1003a44aae23fad",
      "hash": "4204e6eb25a3cf6dca0dd818a48e0258c73926bbf5994684c1003a44aae23fad",
      "version": 1,
      "size": 134,
      "vsize": 134,
      "weight": 536,
      "locktime": 0,
      "vin": [
        {
          "coinbase": "04ffff001d010d",
          "sequence": 4294967295
        }
      ],
      "vout": [
        {
          "value": 50.0,
          "n": 0,
          "scriptPubKey": {
            "asm": "04cdf61f3230204c0ddaf67377ef3a47a1c0eceac545f1837bac0a4f9e5d0be231e1ba6eb8e27259cb8892e472561eea5950990420bfd832ab7e172a46ace946a3 OP_CHECKSIG",
            "desc": "pk(04cdf61f3230204c0ddaf67377ef3a47a1c0eceac545f1837bac0a4f9e5d0be231e1ba6eb8e27259cb8892e472561eea5950990420bfd832ab7e172a46ace946a3)#nskxc30g",
            "hex": "4104cdf61f3230204c0ddaf67377ef3a47a1c0eceac545f1837bac0a4f9e5d0be231e1ba6eb8e27259cb8892e472561eea5950990420bfd832ab7e172a46ace946a3ac",
            "type": "pubkey"
          }
        }
      ],
      "hex": "01000000010000000000000000000000000000000000000000000000000000000000000000ffffffff0704ffff001d010dffffffff0100f2052a01000000434104cdf61f3230204c0ddaf67377ef3a47a1c0eceac545f1837bac0a4f9e5d0be231e1ba6eb8e27259cb8892e472561eea5950990420bfd832ab7e172a46ace946a3ac00000000"
    }
  ]
}