{
  "hash": "00000000cfaf10860f83364520541f536e50fa35cc0907592caf8e322e0fa7b3",
  "confirmations": 47248,
  "height": 5850,
  "version": 1,
  "versionHex": "00000001",
  "merkleroot": "bb19598112744d92c6a0ed023c1f4d046f9998104453b4ecf1d92b3d628b1107",
  "time": 1235802204,
  "mediantime": 1235795615,
  "nonce": 246353974,
  "bits": "1d00ffff",
  "difficulty": 1,
  "chainwork": "000000000000000000000000000000000000000000000000000016db16db16db",
  "nTx": 1,
  "previousblockhash": "000000004e0681c56296ec7b351243e40d17e7bcd90f4a1664266a95c5a1442a",
  "nextblockhash": "0000000021393cb4a7395ebe6827733c6241971244dcbca4f263edc469202ded",
  "strippedsize": 216,
  "size": 216,
  "weight": 864,
  "tx": [
    {
      "txid": "bb19598112744d92c6a0ed023c1f4d046f9998104453b4ecf1d92b3d628b1107",
      "hash": "bb19598112744d92c6a0ed023c1f4d046f9998104453b4ecf1d92b3d628b1107",
      "version": 1,
      "size": 135,
      "vsize": 135,
      "weight": 540,
      "locktime": 0,
      "vin": [
        {
          "coinbase": "04ffff001d02e101",
          "sequence": 4294967295
        }
      ],
      "vout": [
        {
          "value": 50.0,
          "n": 0,
          "scriptPubKey": {
            "asm": "04ab8b8beec6ccfa2dcc512d97b819ab82e70b4f06c383ef227faf40b0dbf19b01243d5686cd039143eed7b8211d29d52c46cdfe8f23e996d28f8c56a2e21c64c0 OP_CHECKSIG",
            "desc": "pk(04ab8b8beec6ccfa2dcc512d97b819ab82e70b4f06c383ef227faf40b0dbf19b01243d5686cd039143eed7b8211d29d52c46cdfe8f23e996d28f8c56a2e21c64c0)#hkt7awwf",
            "hex": "4104ab8b8beec6ccfa2dcc512d97b819ab82e70b4f06c383ef227faf40b0dbf19b01243d5686cd039143eed7b8211d29d52c46cdfe8f23e996d28f8c56a2e21c64c0ac",
            "type": "pubkey"
          }
        }
      ],
      "hex": "01000000010000000000000000000000000000000000000000000000000000000000000000ffffffff0804ffff001d02e101ffffffff0100f2052a01000000434104ab8b8beec6ccfa2dcc512d97b819ab82e70b4f06c383ef227faf40b0dbf19b01243d5686cd039143eed7b8211d29d52c46cdfe8f23e996d28f8c56a2e21c64c0ac00000000"
    }
  ]
}