{
  "hash": "00000000348a6c03161a7b7c036f52689d07552bb6dd4c2b3ccf018f2a76627e",
  "confirmations": 43994,
  "height": 9104,
  "version": 1,
  "versionHex": "00000001",
  "merkleroot": "6185ae9f1f39b26de8d7bd9be49553f398ef8b18f6ddb02180572db38c1bca15",
  "time": 1238333332,
  "mediantime": 1238329077,
  "nonce": 3642607388,
  "bits": "1d00ffff",
  "difficulty": 1,
  "chainwork": "0000000000000000000000000000000000000000000000000000239123912391",
  "nTx": 1,
  "previousblockhash": "00000000c8df594d03f06d5adf5125cec94332150dfb80ba7faa2526e13cdd42",
  "nextblockhash": "00000000eb5d25e4d3dbf0ccb3867c2b34a6e3931d143b7d750503ed506b3832",
  "strippedsize": 216,
  "size": 216,
  "weight": 864,
  "tx": [
    {
      "txid": "6185ae9f1f39b26de8d7bd9be49553f398ef8b18f6ddb02180572db38c1bca15",
      "hash": "6185ae9f1f39b26de8d7bd9be49553f398ef8b18f6ddb02180572db38c1bca15",
      "version": 1,
      "size": 135,
      "vsize": 135,
      "weight": 540,
      "locktime": 0,
      "vin": [
        {
          "coinbase": "04ffff001d027108",
          "sequence": 4294967295
        }
      ],
      "vout": [
        {
          "value": 50.0,
          "n": 0,
          "scriptPubKey": {
            "asm": "0440c8462f226dee5bb3488aa57e0e4da531ccd51d8631babb15d4312463d3e543b5dba0726ab9c408b4da09aba84c0fbf480bffe7933c484d5d5c8d5220a30966 OP_CHECKSIG",
            "desc": "pk(0440c8462f226dee5bb3488aa57e0e4da531ccd51d8631babb15d4312463d3e543b5dba0726ab9c408b4da09aba84c0fbf480bffe7933c484d5d5c8d5220a30966)#efx4ypsk",
            "hex": "410440c8462f226dee5bb3488aa57e0e4da531ccd51d8631babb15d4312463d3e543b5dba0726ab9c408b4da09aba84c0fbf480bffe7933c484d5d5c8d5220a30966ac",
            "type": "pubkey"
          }
        }
      ],
      "hex": "01000000010000000000000000000000000000000000000000000000000000000000000000ffffffff0804ffff001d027108ffffffff0100f2052a0100000043410440c8462f226dee5bb3488aa57e0e4da531ccd51d8631babb15d4312463d3e543b5dba0726ab9c408b4da09aba84c0fbf480bffe7933c484d5d5c8d5220a30966ac00000000"
    }
  ]
}