{
  "hash": "00000000e72f88ce6d4dee4e455614eb146a965634ffc16aee5c0483372091de",
  "confirmations": 50063,
  "height": 3035,
  "version": 1,
  "versionHex": "00000001",
  "merkleroot": "bab42f646c436de9673d8e1664b105238c802e29d9be83a216c590adbd7fac9a",
  "time": 1233785999,
  "mediantime": 1233782378,
  "nonce": 265865418,
  "bits": "1d00ffff",
  "difficulty": 1,
  "chainwork": "00000000000000000000000000000000000000000000000000000bdc0bdc0bdc",
  "nTx": 1,
  "previousblockhash": "000000004b52938d0547fc2e74faf023150355592ada03105252c8fc0a46f7b0",
  "nextblockhash": "00000000f3adc6095724c8eee01db807575c1e6b5a7f078d1dc06a16907f3364",
  "strippedsize": 216,
  "size": 216,
  "weight": 864,
  "tx": [
    {
      "txid": "bab42f646c436de9673d8e1664b105238c802e29d9be83a216c590adbd7fac9a",
      "hash": "bab42f646c436de9673d8e1664b105238c802e29d9be83a216c590adbd7fac9a",
      "version": 1,
      "size": 135,
      "vsize": 135,
      "weight": 540,
      "locktime": 0,
      "vin": [
        {
          "coinbase": "04ffff001d027101",
          "sequence": 4294967295
        }
      ],
      "vout": [
        {
          "value": 50.0,
          "n": 0,
          "scriptPubKey": {
            "asm": "04db8668652cf37fca2324eb63bcf6b69725c8cf1a842a779002e62d689491e2d333422b6f0935628d5b6795a9f14d8ba1036956b81c9d678183cd7b2623c5a1e3 OP_CHECKSIG",
            "desc": "pk(04db8668652cf37fca2324eb63bcf6b69725c8cf1a842a779002e62d689491e2d333422b6f0935628d5b6795a9f14d8ba1036956b81c9d678183cd7b2623c5a1e3)#aguhrz80",
            "hex": "4104db8668652cf37fca2324eb63bcf6b69725c8cf1a842a779002e62d689491e2d333422b6f0935628d5b6795a9f14d8ba1036956b81c9d678183cd7b2623c5a1e3ac",
            "type": "pubkey"
          }
        }
      ],
      "hex": "01000000010000000000000000000000000000000000000000000000000000000000000000ffffffff0804ffff001d027101ffffffff0100f2052a01000000434104db8668652cf37fca2324eb63bcf6b69725c8cf1a842a779002e62d689491e2d333422b6f0935628d5b6795a9f14d8ba1036956b81c9d678183cd7b2623c5a1e3ac00000000"
    }
  ]
}