{
  "hash": "00000000b96067602b148cc8dffc397e26bdc93b64a48fdb75854065d88e5726",
  "confirmations": 49163,
  "height": 3935,
  "version": 1,
  "versionHex": "00000001",
  "merkleroot": "64f35a50205012eb583147efc97dc4720c1b7530760542d57426a04c1764964a",
  "time": 1234395040,
  "mediantime": 1234392210,
  "nonce": 112023789,
  "bits": "1d00ffff",
  "difficulty": 1,
  "chainwork": "00000000000000000000000000000000000000000000000000000f600f600f60",
  "nTx": 1,
  "previousblockhash": "00000000c38643b0acebe99612a2b9f2d443874a5cfc26028d55916fdb2f55b2",
  "nextblockhash": "000000004fc6144f97ebfefb30ab69bc608bedd3fdb3781cfe9d7a629f6a01f3",
  "strippedsize": 215,
  "size": 215,
  "weight": 860,
  "tx": [
    {
      "txid": "64f35a50205012eb583147efc97dc4720c1b7530760542d57426a04c1764964a",
      "hash": "64f35a50205012eb583147efc97dc4720c1b7530760542d57426a04c1764964a",
      "version": 1,
      "size": 134,
      "vsize": 134,
      "weight": 536,
      "locktime": 0,
      "vin": [
        {
          "coinbase": "04ffff001d0107",
          "sequence": 4294967295
        }
      ],
      "vout": [
        {
          "value": 50.0,
          "n": 0,
          "scriptPubKey": {
            "asm": "04a91c8a2e9b1e5ab993be72d67d14212b8b60b58b0580f4f134d4714a1ebbe7dbd3edf2a40e862bd9abc57c7c908d3507fd10da3b156369e5a39907db594a78d0 OP_CHECKSIG",
            "desc": "pk(04a91c8a2e9b1e5ab993be72d67d14212b8b60b58b0580f4f134d4714a1ebbe7dbd3edf2a40e862bd9abc57c7c908d3507fd10da3b156369e5a39907db594a78d0)#akt22vx0",
            "hex": "4104a91c8a2e9b1e5ab993be72d67d14212b8b60b58b0580f4f134d4714a1ebbe7dbd3edf2a40e862bd9abc57c7c908d3507fd10da3b156369e5a39907db594a78d0ac",
            "type": "pubkey"
          }
        }
      ],
      "hex": "01000000010000000000000000000000000000000000000000000000000000000000000000ffffffff0704ffff001d0107ffffffff0100f2052a01000000434104a91c8a2e9b1e5ab993be72d67d14212b8b60b58b0580f4f134d4714a1ebbe7dbd3edf2a40e862bd9abc57c7c908d3507fd10da3b156369e5a39907db594a78d0ac00000000"
    }
  ]
}