{
  "hash": "000000009a940db389f3a7cbb8405f4ec14342bed36073b60ee63ed7e117f193",
  "confirmations": 52040,
  "height": 188,
  "version": 1,
  "versionHex": "00000001",
  "merkleroot": "3a6d490a7cf40819cdd826729d921ad5ab4b8347dfbec81179dd09aba0d25b37",
  "time": 1231744937,
  "mediantime": 1231742062,
  "nonce": 3644554265,
  "bits": "1d00ffff",
  "difficulty": 1,
  "chainwork": "000000000000000000000000000000000000000000000000000000bd00bd00bd",
  "nTx": 1,
  "previousblockhash": "00000000b2cde2159116889837ecf300bd77d229d49b138c55366b54626e495d",
  "nextblockhash": "000000008bb30dccc10c56c339c8aaacbe0c71051dc51ee10cc84db945db2978",
  "strippedsize": 215,
  "size": 215,
  "weight": 860,
  "tx": [
    {
      "txid": "3a6d490a7cf40819cdd826729d921ad5ab4b8347dfbec81179dd09aba0d25b37",
      "hash": "3a6d490a7cf40819cdd826729d921ad5ab4b8347dfbec81179dd09aba0d25b37",
      "version": 1,
      "size": 134,
      "vsize": 134,
      "weight": 536,
      "locktime": 0,
      "vin": [
        {
          "coinbase": "04ffff001d0103",
          "sequence": 4294967295
        }
      ],
      "vout": [
        {
          "value": 50.0,
          "n": 0,
          "scriptPubKey": {
            "asm": "0449fff9665bfda43017a27b3d32e986378befdd6fa5d4eb097626701ace807a2b3a43e74375dce4ed9028b3b62ba8485358cd48967e854a857a38ecdbfe5b62f8 OP_CHECKSIG",
            "desc": "pk(0449fff9665bfda43017a27b3d32e986378befdd6fa5d4eb097626701ace807a2b3a43e74375dce4ed9028b3b62ba8485358cd48967e854a857a38ecdbfe5b62f8)#8knuy922",
            "hex": "410449fff9665bfda43017a27b3d32e986378befdd6fa5d4eb097626701ace807a2b3a43e74375dce4ed9028b3b62ba8485358cd48967e854a857a38ecdbfe5b62f8ac",
            "type": "pubkey"
          }
        }
      ],
      "hex": "01000000010000000000000000000000000000000000000000000000000000000000000000ffffffff0704ffff001d0103ffffffff0100f2052a0100000043410449fff9665bfda43017a27b3d32e986378befdd6fa5d4eb097626701ace807a2b3a43e74375dce4ed9028b3b62ba8485358cd48967e854a857a38ecdbfe5b62f8ac00000000"
    }
  ]
}