{
  "hash": "00000000e96c66f3ece9feed66332d45d9260417aa64ed22a5516a5709200b2e",
  "confirmations": 43347,
  "height": 9751,
  "version": 1,
  "versionHex": "00000001",
  "merkleroot": "ecc7db65234e363a3b0f3da485a15f8f8af219a562d69e550c23f8e459629661",
  "time": 1238817144,
  "mediantime": 1238811254,
  "nonce": 1528917802,
  "bits": "1d00ffff",
  "difficulty": 1,
  "chainwork": "0000000000000000000000000000000000000000000000000000261826182618",
  "nTx": 1,
  "previousblockhash": "000000000130e59797893d4f2e5dc951e182ec170d6ba846ad84369529d547ad",
  "nextblockhash": "000000003d4b483ce0f9258b7146fd817c6293bfc0ddf6463d9fa33cd6a612a1",
  "strippedsize": 216,
  "size": 216,
  "weight": 864,
  "tx": [
    {
      "txid": "ecc7db65234e363a3b0f3da485a15f8f8af219a562d69e550c23f8e459629661",
      "hash": "ecc7db65234e363a3b0f3da485a15f8f8af219a562d69e550c23f8e459629661",
      "version": 1,
      "size": 135,
      "vsize": 135,
      "weight": 540,
      "locktime": 0,
      "vin": [
        {
          "coinbase": "04ffff001d02b009",
          "sequence": 4294967295
        }
      ],
      "vout": [
        {
          "value": 50.0,
          "n": 0,
          "scriptPubKey": {
            "asm": "04ed107d4391e023c1a94662650872a8bad94c5b664dddb8561b232546ede7de0082e10c366669ddd6eb3ed6f1d605153b8d972a4de6b4fede482616da36780cf6 OP_CHECKSIG",
            "desc": "pk(04ed107d4391e023c1a94662650872a8bad94c5b664dddb8561b232546ede7de0082e10c366669ddd6eb3ed6f1d605153b8d972a4de6b4fede482616da36780cf6)#af97qu4g",
            "hex": "4104ed107d4391e023c1a94662650872a8bad94c5b664dddb8561b232546ede7de0082e10c366669ddd6eb3ed6f1d605153b8d972a4de6b4fede482616da36780cf6ac",
            "type": "pubkey"
          }
        }
      ],
      "hex": "01000000010000000000000000000000000000000000000000000000000000000000000000ffffffff0804ffff001d02b009ffffffff0100f2052a01000000434104ed107d4391e023c1a94662650872a8bad94c5b664dddb8561b232546ede7de0082e10c366669ddd6eb3ed6f1d605153b8d972a4de6b4fede482616da36780cf6ac00000000"
    }
  ]
}