{
  "hash": "00000000430e26e7e50e4204e74251e3f1281ca26ecef8ae069ddd354a189574",
  "confirmations": 47035,
  "height": 6063,
  "version": 1,
  "versionHex": "00000001",
  "merkleroot": "6cd5167d05232f13dba51e647c53e3b36c9c660cc4091750dce870fdd5ebea48",
  "time": 1235979049,
  "mediantime": 1235975190,
  "nonce": 1967467291,
  "bits": "1d00ffff",
  "difficulty": 1,
  "chainwork": "000000000000000000000000000000000000000000000000000017b017b017b0",
  "nTx": 1,
  "previousblockhash": "00000000c865ca2af3981da880155c9614afa4012e19102d97d8cfa45b6158bc",
  "nextblockhash": "0000000009596ad08b94e1c59361b94a94dc88f17df2dc0a87e4d1648fc331d9",
  "strippedsize": 216,
  "size": 216,
  "weight": 864,
  "tx": [
    {
      "txid": "6cd5167d05232f13dba51e647c53e3b36c9c660cc4091750dce870fdd5ebea48",
      "hash": "6cd5167d05232f13dba51e647c53e3b36c9c660cc4091750dce870fdd5ebea48",
      "version": 1,
      "size": 135,
      "vsize": 135,
      "weight": 540,
      "locktime": 0,
      "vin": [
        {
          "coinbase": "04ffff001d020e06",
          "sequence": 4294967295
        }
      ],
      "vout": [
        {
          "value": 50.0,
          "n": 0,
          "scriptPubKey": {
            "asm": "0484922e1f8d6029cbea443b6578d550cb1ede0f988493dd13e79fd68e86817e4ce1c59b3eebd1d8eeab4e6f5215e2ef84dfdaf33bf48f2fdf23474c8d3f16f529 OP_CHECKSIG",
            "desc": "pk(0484922e1f8d6029cbea443b6578d550cb1ede0f988493dd13e79fd68e86817e4ce1c59b3eebd1d8eeab4e6f5215e2ef84dfdaf33bf48f2fdf23474c8d3f16f529)#euz0mz6t",
            "hex": "410484922e1f8d6029cbea443b6578d550cb1ede0f988493dd13e79fd68e86817e4ce1c59b3eebd1d8eeab4e6f5215e2ef84dfdaf33bf48f2fdf23474c8d3f16f529ac",
            "type": "pubkey"
          }
        }
      ],
      "hex": "01000000010000000000000000000000000000000000000000000000000000000000000000ffffffff0804ffff001d020e06ffffffff0100f2052a0100000043410484922e1f8d6029cbea443b6578d550cb1ede0f988493dd13e79fd68e86817e4ce1c59b3eebd1d8eeab4e6f5215e2ef84dfdaf33bf48f2fdf23474c8d3f16f529ac00000000"
    }
  ]
}