{
  "hash": "00000000d278a052e5ea6fc38e1e32bdc5aecbc1b7ae50bf71270724f4e22576",
  "confirmations": 47139,
  "height": 5959,
  "version": 1,
  "versionHex": "00000001",
  "merkleroot": "fec55806f851c227c278fb2fa9e2c8c50330cd1c141a960115f64c38ef759a0a",
  "time": 1235895803,
  "mediantime": 1235890624,
  "nonce": 2462983981,
  "bits": "1d00ffff",
  "difficulty": 1,
  "chainwork": "0000000000000000000000000000000000000000000000000000174817481748",
  "nTx": 1,
  "previousblockhash": "000000006797a0a0c44c2c46974e627d2fd29ce00f1d5b28dd16a0daa9ebfc7a",
  "nextblockhash": "00000000a70804e462feebaf48f2ccf36c646c84e5de8e589a90c0b703e7c4c7",
  "strippedsize": 216,
  "size": 216,
  "weight": 864,
  "tx": [
    {
      "txid": "fec55806f851c227c278fb2fa9e2c8c50330cd1c141a960115f64c38ef759a0a",
      "hash": "fec55806f851c227c278fb2fa9e2c8c50330cd1c141a960115f64c38ef759a0a",
      "version": 1,
      "size": 135,
      "vsize": 135,
      "weight": 540,
      "locktime": 0,
      "vin": [
        {
          "coinbase": "04ffff001d023104",
          "sequence": 4294967295
        }
      ],
      "vout": [
        {
          "value": 50.0,
          "n": 0,
          "scriptPubKey": {
            "asm": "04ebb675b4e669de5baf635974330ebed0feae20691d850e9dfda3a9c959f0d86a9b060f4d361bfc3a8afb54c74a9ceb0f202121102b64a95fb3d3aab14298b845 OP_CHECKSIG",
            "desc": "pk(04ebb675b4e669de5baf635974330ebed0feae20691d850e9dfda3a9c959f0d86a9b060f4d361bfc3a8afb54c74a9ceb0f202121102b64a95fb3d3aab14298b845)#x3h77y3d",
            "hex": "4104ebb675b4e669de5baf635974330ebed0feae20691d850e9dfda3a9c959f0d86a9b060f4d361bfc3a8afb54c74a9ceb0f202121102b64a95fb3d3aab14298b845ac",
            "type": "pubkey"
          }
        }
      ],
      "hex": "01000000010000000000000000000000000000000000000000000000000000000000000000ffffffff0804ffff001d023104ffffffff0100f2052a01000000434104ebb675b4e669de5baf635974330ebed0feae20691d850e9dfda3a9c959f0d86a9b060f4d361bfc3a8afb54c74a9ceb0f202121102b64a95fb3d3aab14298b845ac00000000"
    }
  ]
}