{
  "hash": "0000000015739f4b8f73bf0a4709cb8776b2a2a0ee8d2993d4d674aa0984b1b3",
  "confirmations": 44178,
  "height": 8920,
  "version": 1,
  "versionHex": "00000001",
  "merkleroot": "2d89cf6b1a23a215f48d0cb569c96bd11991093c4c3f46212f3b7cfdd04e07a5",
  "time": 1238195552,
  "mediantime": 1238191632,
  "nonce": 14885561,
  "bits": "1d00ffff",
  "difficulty": 1,
  "chainwork": "000000000000000000000000000000000000000000000000000022d922d922d9",
  "nTx": 1,
  "previousblockhash": "0000000060073db6bbc93adcd3e1bbfcf668d530b969d99aa34a6ff744effafd",
  "nextblockhash": "000000000e243d7fab6c3a4d4cf416813cacef5be2d46f821b3ac26475f0c7da",
  "strippedsize": 216,
  "size": 216,
  "weight": 864,
  "tx": [
    {
      "txid": "2d89cf6b1a23a215f48d0cb569c96bd11991093c4c3f46212f3b7cfdd04e07a5",
      "hash": "2d89cf6b1a23a215f48d0cb569c96bd11991093c4c3f46212f3b7cfdd04e07a5",
      "version": 1,
      "size": 135,
      "vsize": 135,
      "weight": 540,
      "locktime": 0,
      "vin": [
        {
          "coinbase": "04ffff001d02d507",
          "sequence": 4294967295
        }
      ],
      "vout": [
        {
          "value": 50.0,
          "n": 0,
          "scriptPubKey": {
            "asm": "04a5663cb24a21a0bb65493d2d6c9ad31f2a3de9d4ea9f27b622ecb9b66121edefc45e7d8781dae9338f89a548582dc4214002126448b5d490a6ac49b2b2d624cd OP_CHECKSIG",
            "desc": "pk(04a5663cb24a21a0bb65493d2d6c9ad31f2a3de9d4ea9f27b622ecb9b66121edefc45e7d8781dae9338f89a548582dc4214002126448b5d490a6ac49b2b2d624cd)#ylljjmmg",
            "hex": "4104a5663cb24a21a0bb65493d2d6c9ad31f2a3de9d4ea9f27b622ecb9b66121edefc45e7d8781dae9338f89a548582dc4214002126448b5d490a6ac49b2b2d624cdac",
            "type": "pubkey"
          }
        }
      ],
      "hex": "01000000010000000000000000000000000000000000000000000000000000000000000000ffffffff0804ffff001d02d507ffffffff0100f2052a01000000434104a5663cb24a21a0bb65493d2d6c9ad31f2a3de9d4ea9f27b622ecb9b66121edefc45e7d8781dae9338f89a548582dc4214002126448b5d490a6ac49b2b2d624cdac00000000"
    }
  ]
}