{
  "hash": "000000007f47b4ef1a99f9a961199a5878852e7695ef07820de4b7fa45bda802",
  "confirmations": 52076,
  "height": 144,
  "version": 1,
  "versionHex": "00000001",
  "merkleroot": "70b8b6b9f6b4989ad63a19001c311c141dbb6ecdd060c56ae4f05bb507f95836",
  "time": 1231693144,
  "mediantime": 1231688158,
  "nonce": 412551206,
  "bits": "1d00ffff",
  "difficulty": 1,
  "chainwork": "0000000000000000000000000000000000000000000000000000009100910091",
  "nTx": 1,
  "previousblockhash": "0000000049ec23bf6bfc47b5c8560b15dd52fb57db15ef185d78d4af12871861",
  "nextblockhash": "000000002e76e88e6ca526f324505fae2cc8245af31e92279f031a6019270512",
  "strippedsize": 215,
  "size": 215,
  "weight": 860,
  "tx": [
    {
      "txid": "70b8b6b9f6b4989ad63a19001c311c141dbb6ecdd060c56ae4f05bb507f95836",
      "hash": "70b8b6b9f6b4989ad63a19001c311c141dbb6ecdd060c56ae4f05bb507f95836",
      "version": 1,
      "size": 134,
      "vsize": 134,
      "weight": 536,
      "locktime": 0,
      "vin": [
        {
          "coinbase": "04ffff001d0172",
          "sequence": 4294967295
        }
      ],
      "vout": [
        {
          "value": 50.0,
          "n": 0,
          "scriptPubKey": {
            "asm": "0440a92015df9284b2ce38644cd761abd99566af0d998c3f67b760b1c1534f17cc44602abe879eb01fe19f01c42e8d49047bf112bf122b35fab1f16255f93fe87c OP_CHECKSIG",
            "desc": "pk(0440a92015df9284b2ce38644cd761abd99566af0d998c3f67b760b1c1534f17cc44602abe879eb01fe19f01c42e8d49047bf112bf122b35fab1f16255f93fe87c)#3zetd6na",
            "hex": "410440a92015df9284b2ce38644cd761abd99566af0d998c3f67b760b1c1534f17cc44602abe879eb01fe19f01c42e8d49047bf112bf122b35fab1f16255f93fe87cac",
            "type": "pubkey"
          }
        }
      ],
      "hex": "01000000010000000000000000000000000000000000000000000000000000000000000000ffffffff0704ffff001d0172ffffffff0100f2052a0100000043410440a92015df9284b2ce38644cd761abd99566af0d998c3f67b760b1c1534f17cc44602abe879eb01fe19f01c42e8d49047bf112bf122b35fab1f16255f93fe87cac00000000"
    }
  ]
}