{
  "hash": "00000000bd06bd94afbc5a18d207e06e6c7236782db0f6bc466fd32cb98e3534",
  "confirmations": 44472,
  "height": 8626,
  "version": 1,
  "versionHex": "00000001",
  "merkleroot": "7fc64eba56551499b02976bf773546b384bc010265c52aab9080c445758bcce3",
  "time": 1237966807,
  "mediantime": 1237964234,
  "nonce": 6255641,
  "bits": "1d00ffff",
  "difficulty": 1,
  "chainwork": "000000000000000000000000000000000000000000000000000021b321b321b3",
  "nTx": 1,
  "previousblockhash": "00000000b1b293d82e4d00be6ab2e0c106c9d15ee26f4289e572f4209d27c86e",
  "nextblockhash": "000000000f5e969b70e454cf7dcf9a5c33ff68614a309650fd7e16408c10995a",
  "strippedsize": 216,
  "size": 216,
  "weight": 864,
  "tx": [
    {
      "txid": "7fc64eba56551499b02976bf773546b384bc010265c52aab9080c445758bcce3",
      "hash": "7fc64eba56551499b02976bf773546b384bc010265c52aab9080c445758bcce3",
      "version": 1,
      "size": 135,
      "vsize": 135,
      "weight": 540,
      "locktime": 0,
      "vin": [
        {
          "coinbase": "04ffff001d023801",
          "sequence": 4294967295
        }
      ],
      "vout": [
        {
          "value": 50.0,
          "n": 0,
          "scriptPubKey": {
            "asm": "04d3d528d4039d5910832805944045f1e21996b2c441e843dc13f976ae5c294acc6bd36d150b5ae932b6a4dd2167807e8814057a75ac1ab7178ed77bf6c46e9577 OP_CHECKSIG",
            "desc": "pk(04d3d528d4039d5910832805944045f1e21996b2c441e843dc13f976ae5c294acc6bd36d150b5ae932b6a4dd2167807e8814057a75ac1ab7178ed77bf6c46e9577)#ngt2x3ay",
            "hex": "4104d3d528d4039d5910832805944045f1e21996b2c441e843dc13f976ae5c294acc6bd36d150b5ae932b6a4dd2167807e8814057a75ac1ab7178ed77bf6c46e9577ac",
            "type": "pubkey"
          }
        }
      ],
      "hex": "01000000010000000000000000000000000000000000000000000000000000000000000000ffffffff0804ffff001d023801ffffffff0100f2052a01000000434104d3d528d4039d5910832805944045f1e21996b2c441e843dc13f976ae5c294acc6bd36d150b5ae932b6a4dd2167807e8814057a75ac1ab7178ed77bf6c46e9577ac00000000"
    }
  ]
}