{
  "hash": "000000000c6426c4056160cbc92d0d1cdecf1b6684c4eecefedeec1d25c03a24",
  "confirmations": 45759,
  "height": 7339,
  "version": 1,
  "versionHex": "00000001",
  "merkleroot": "630356d7e9c984bf9f09673afc24a9c3ce3cde20bcc95d5694d807c2a83f529a",
  "time": 1236976882,
  "mediantime": 1236973699,
  "nonce": 3013433094,
  "bits": "1d00ffff",
  "difficulty": 1,
  "chainwork": "00000000000000000000000000000000000000000000000000001cac1cac1cac",
  "nTx": 1,
  "previousblockhash": "00000000c87118e10550898d7bb5fa84ad898e0572198b8eeefbb05a05f39ec0",
  "nextblockhash": "0000000002f68be966d73de0212c2b7b0f1184c99d700b076dcfda31edb88d0c",
  "strippedsize": 216,
  "size": 216,
  "weight": 864,
  "tx": [
    {
      "txid": "630356d7e9c984bf9f09673afc24a9c3ce3cde20bcc95d5694d807c2a83f529a",
      "hash": "630356d7e9c984bf9f09673afc24a9c3ce3cde20bcc95d5694d807c2a83f529a",
      "version": 1,
      "size": 135,
      "vsize": 135,
      "weight": 540,
      "locktime": 0,
      "vin": [
        {
          "coinbase": "04ffff001d025108",
          "sequence": 4294967295
        }
      ],
      "vout": [
        {
          "value": 50.0,
          "n": 0,
          "scriptPubKey": {
            "asm": "044b6bb82574d3f248840da474adb4446d9d6508de44868addd9cb07d0d3e0d03e4d43bfb554b0d4b2d16315360ad4a8256033fedee5dc3f3d4c0469b6069829e2 OP_CHECKSIG",
            "desc": "pk(044b6bb82574d3f248840da474adb4446d9d6508de44868addd9cb07d0d3e0d03e4d43bfb554b0d4b2d16315360ad4a8256033fedee5dc3f3d4c0469b6069829e2)#pkz2t5z5",
            "hex": "41044b6bb82574d3f248840da474adb4446d9d6508de44868addd9cb07d0d3e0d03e4d43bfb554b0d4b2d16315360ad4a8256033fedee5dc3f3d4c0469b6069829e2ac",
            "type": "pubkey"
          }
        }
      ],
      "hex": "01000000010000000000000000000000000000000000000000000000000000000000000000ffffffff0804ffff001d025108ffffffff0100f2052a010000004341044b6bb82574d3f248840da474adb4446d9d6508de44868addd9cb07d0d3e0d03e4d43bfb554b0d4b2d16315360ad4a8256033fedee5dc3f3d4c0469b6069829e2ac00000000"
    }
  ]
}