{
  "hash": "000000004135e9bcc2ce23326ca43eb91f92f6021699ca8e89088a2a097c4d48",
  "confirmations": 44127,
  "height": 8971,
  "version": 1,
  "versionHex": "00000001",
  "merkleroot": "5a866093f9da001b027035fd0dfa10bb30fcef6087a59d44a96bd74e4f050aa4",
  "time": 1238231786,
  "mediantime": 1238229581,
  "nonce": 850690342,
  "bits": "1d00ffff",
  "difficulty": 1,
  "chainwork": "0000000000000000000000000000000000000000000000000000230c230c230c",
  "nTx": 1,
  "previousblockhash": "00000000315878324d2ac843c44ff83f1b9846120e7cfee816eca240d191e981",
  "nextblockhash": "000000000c52354ba07004839e93b43a90d17fdff43732ed32267ef07e887137",
  "strippedsize": 216,
  "size": 216,
  "weight": 864,
  "tx": [
    {
      "txid": "5a866093f9da001b027035fd0dfa10bb30fcef6087a59d44a96bd74e4f050aa4",
      "hash": "5a866093f9da001b027035fd0dfa10bb30fcef6087a59d44a96bd74e4f050aa4",
      "version": 1,
      "size": 135,
      "vsize": 135,
      "weight": 540,
      "locktime": 0,
      "vin": [
        {
          "coinbase": "04ffff001d02f505",
          "sequence": 4294967295
        }
      ],
      "vout": [
        {
          "value": 50.0,
          "n": 0,
          "scriptPubKey": {
            "asm": "045ee997068d9ef3acc66380d5ad4ea19f1ad19422701a2f841d80a4a3194dd665f0506f5e835020b9eb798f41df574583d732269a5c079fd59f15ac3215d67346 OP_CHECKSIG",
            "desc": "pk(045ee997068d9ef3acc66380d5ad4ea19f1ad19422701a2f841d80a4a3194dd665f0506f5e835020b9eb798f41df574583d732269a5c079fd59f15ac3215d67346)#0lw8hwtq",
            "hex": "41045ee997068d9ef3acc66380d5ad4ea19f1ad19422701a2f841d80a4a3194dd665f0506f5e835020b9eb798f41df574583d732269a5c079fd59f15ac3215d67346ac",
            "type": "pubkey"
          }
        }
      ],
      "hex": "01000000010000000000000000000000000000000000000000000000000000000000000000ffffffff0804ffff001d02f505ffffffff0100f2052a010000004341045ee997068d9ef3acc66380d5ad4ea19f1ad19422701a2f841d80a4a3194dd665f0506f5e835020b9eb798f41df574583d732269a5c079fd59f15ac3215d67346ac00000000"
    }
  ]
}