{
  "hash": "000000008c758cfdd7fdad6c13c6d7bdc0fcf56919a476a752c8cef0bf131af4",
  "confirmations": 48320,
  "height": 4778,
  "version": 1,
  "versionHex": "00000001",
  "merkleroot": "1854e009a66f3d6faf804b0b53290e037e4a9ea7ff06062891b83952b7d172e6",
  "time": 1234980166,
  "mediantime": 1234977362,
  "nonce": 3257989405,
  "bits": "1d00ffff",
  "difficulty": 1,
  "chainwork": "000000000000000000000000000000000000000000000000000012ab12ab12ab",
  "nTx": 1,
  "previousblockhash": "000000009e9b5df42e49a2cbf49259cb298c664de7887e2e94d5c4a7885f5cf3",
  "nextblockhash": "0000000083292e55898a418aec0d6c5265abdd39512cb8465e34db7e968ec9a9",
  "strippedsize": 216,
  "size": 216,
  "weight": 864,
  "tx": [
    {
      "txid": "1854e009a66f3d6faf804b0b53290e037e4a9ea7ff06062891b83952b7d172e6",
      "hash": "1854e009a66f3d6faf804b0b53290e037e4a9ea7ff06062891b83952b7d172e6",
      "version": 1,
      "size": 135,
      "vsize": 135,
      "weight": 540,
      "locktime": 0,
      "vin": [
        {
          "coinbase": "04ffff001d02a003",
          "sequence": 4294967295
        }
      ],
      "vout": [
        {
          "value": 50.0,
          "n": 0,
          "scriptPubKey": {
            "asm": "04c280dbe54eeeb9f815c583ee0222ab576ea69001ad598c8d89e44ccb2cc7468e62b7f03f18bc8ac44f6a9e878a27ada7ba1d118e383ce2ef7875c341ba1f8305 OP_CHECKSIG",
            "desc": "pk(04c280dbe54eeeb9f815c583ee0222ab576ea69001ad598c8d89e44ccb2cc7468e62b7f03f18bc8ac44f6a9e878a27ada7ba1d118e383ce2ef7875c341ba1f8305)#8gashvjz",
            "hex": "4104c280dbe54eeeb9f815c583ee0222ab576ea69001ad598c8d89e44ccb2cc7468e62b7f03f18bc8ac44f6a9e878a27ada7ba1d118e383ce2ef7875c341ba1f8305ac",
            "type": "pubkey"
          }
        }
      ],
      "hex": "01000000010000000000000000000000000000000000000000000000000000000000000000ffffffff0804ffff001d02a003ffffffff0100f2052a01000000434104c280dbe54eeeb9f815c583ee0222ab576ea69001ad598c8d89e44ccb2cc7468e62b7f03f18bc8ac44f6a9e878a27ada7ba1d118e383ce2ef7875c341ba1f8305ac00000000"
    }
  ]
}