{
  "hash": "00000000c321b9e5f79ab15effb6aaeb533a14de0ad16d0bd946bb5f57d694ec",
  "confirmations": 44176,
  "height": 8922,
  "version": 1,
  "versionHex": "00000001",
  "merkleroot": "e1e7cc78eca572ab4e3aeb5fba402f8ac658c5c752404a03b8406134bbc7eb77",
  "time": 1238196451,
  "mediantime": 1238194093,
  "nonce": 24767442,
  "bits": "1d00ffff",
  "difficulty": 1,
  "chainwork": "000000000000000000000000000000000000000000000000000022db22db22db",
  "nTx": 1,
  "previousblockhash": "000000000e243d7fab6c3a4d4cf416813cacef5be2d46f821b3ac26475f0c7da",
  "nextblockhash": "00000000476eb44a1d215dc310bce95ab5e889d77201cf2160ff2ba0482eaddf",
  "strippedsize": 216,
  "size": 216,
  "weight": 864,
  "tx": [
    {
      "txid": "e1e7cc78eca572ab4e3aeb5fba402f8ac658c5c752404a03b8406134bbc7eb77",
      "hash": "e1e7cc78eca572ab4e3aeb5fba402f8ac658c5c752404a03b8406134bbc7eb77",
      "version": 1,
      "size": 135,
      "vsize": 135,
      "weight": 540,
      "locktime": 0,
      "vin": [
        {
          "coinbase": "04ffff001d028e0d",
          "sequence": 4294967295
        }
      ],
      "vout": [
        {
          "value": 50.0,
          "n": 0,
          "scriptPubKey": {
            "asm": "04bf780b34d2bef0bd7cb225a0511c1498fb433e95c0b1c6a41df59748ee46ab7bce86d24b7667fea925ed3f380d9674cbf4a1ca7ae356a7bff860617bf3591a89 OP_CHECKSIG",
            "desc": "pk(04bf780b34d2bef0bd7cb225a0511c1498fb433e95c0b1c6a41df59748ee46ab7bce86d24b7667fea925ed3f380d9674cbf4a1ca7ae356a7bff860617bf3591a89)#0uf2j7u2",
            "hex": "4104bf780b34d2bef0bd7cb225a0511c1498fb433e95c0b1c6a41df59748ee46ab7bce86d24b7667fea925ed3f380d9674cbf4a1ca7ae356a7bff860617bf3591a89ac",
            "type": "pubkey"
          }
        }
      ],
      "hex": "01000000010000000000000000000000000000000000000000000000000000000000000000ffffffff0804ffff001d028e0dffffffff0100f2052a01000000434104bf780b34d2bef0bd7cb225a0511c1498fb433e95c0b1c6a41df59748ee46ab7bce86d24b7667fea925ed3f380d9674cbf4a1ca7ae356a7bff860617bf3591a89ac00000000"
    }
  ]
}