{
  "hash": "00000000fce66f517da7e77003f45e5844e4cb00ded20e165b168a8c8aa59fa1",
  "confirmations": 44307,
  "height": 8791,
  "version": 1,
  "versionHex": "00000001",
  "merkleroot": "736a3260b6e322bb664d34f605d30114f59cbdbccce4b14e0f18adcffa7143c6",
  "time": 1238095245,
  "mediantime": 1238089519,
  "nonce": 1114930458,
  "bits": "1d00ffff",
  "difficulty": 1,
  "chainwork": "0000000000000000000000000000000000000000000000000000225822582258",
  "nTx": 1,
  "previousblockhash": "000000005f2f4063102005cb8a9f940a12f771e6947e3157c77f77ec00de9507",
  "nextblockhash": "0000000065c6b8e8013a87f447703a98e5857a264fd6b4c3216d12e74c69cd07",
  "strippedsize": 216,
  "size": 216,
  "weight": 864,
  "tx": [
    {
      "txid": "736a3260b6e322bb664d34f605d30114f59cbdbccce4b14e0f18adcffa7143c6",
      "hash": "736a3260b6e322bb664d34f605d30114f59cbdbccce4b14e0f18adcffa7143c6",
      "version": 1,
      "size": 135,
      "vsize": 135,
      "weight": 540,
      "locktime": 0,
      "vin": [
        {
          "coinbase": "04ffff001d028302",
          "sequence": 4294967295
        }
      ],
      "vout": [
        {
          "value": 50.0,
          "n": 0,
          "scriptPubKey": {
            "asm": "0494fbac6e0d000054bec604f0f06161b2d8675e727f58742beb3591a32cfd8e91cf5d6bcf3f3eaf3759e1831046923b636de14b9a6f836bf4445131f696456b5b OP_CHECKSIG",
            "desc": "pk(0494fbac6e0d000054bec604f0f06161b2d8675e727f58742beb3591a32cfd8e91cf5d6bcf3f3eaf3759e1831046923b636de14b9a6f836bf4445131f696456b5b)#up0wy4cl",
            "hex": "410494fbac6e0d000054bec604f0f06161b2d8675e727f58742beb3591a32cfd8e91cf5d6bcf3f3eaf3759e1831046923b636de14b9a6f836bf4445131f696456b5bac",
            "type": "pubkey"
          }
        }
      ],
      "hex": "01000000010000000000000000000000000000000000000000000000000000000000000000ffffffff0804ffff001d028302ffffffff0100f2052a0100000043410494fbac6e0d000054bec604f0f06161b2d8675e727f58742beb3591a32cfd8e91cf5d6bcf3f3eaf3759e1831046923b636de14b9a6f836bf4445131f696456b5bac00000000"
    }
  ]
}