{
  "hash": "00000000a45be7b90f33fa3ef9c2e5b842da5e021b4ce7434668dde286496946",
  "confirmations": 52215,
  "height": 883,
  "version": 1,
  "versionHex": "00000001",
  "merkleroot": "3cc7f0c7b1a85f9ce1781dd76cd4880275ae739baec539474f14f876b47a648e",
  "time": 1232261425,
  "mediantime": 1232256159,
  "nonce": 3657863190,
  "bits": "1d00ffff",
  "difficulty": 1,
  "chainwork": "0000000000000000000000000000000000000000000000000000037403740374",
  "nTx": 1,
  "previousblockhash": "000000009efd98f417a034d1b38cbf06a6026766cdba84dc1357ba6259610576",
  "nextblockhash": "000000006879ca957a25003148ef00058597c1f09d0099ac51a8ed3b268e72ef",
  "strippedsize": 216,
  "size": 216,
  "weight": 864,
  "tx": [
    {
      "txid": "3cc7f0c7b1a85f9ce1781dd76cd4880275ae739baec539474f14f876b47a648e",
      "hash": "3cc7f0c7b1a85f9ce1781dd76cd4880275ae739baec539474f14f876b47a648e",
      "version": 1,
      "size": 135,
      "vsize": 135,
      "weight": 540,
      "locktime": 0,
      "vin": [
        {
          "coinbase": "04ffff001d025803",
          "sequence": 4294967295
        }
      ],
      "vout": [
        {
          "value": 50.0,
          "n": 0,
          "scriptPubKey": {
            "asm": "04d50835a2f3e4aa3ae8fe471c6a4d74597f8028f9cf6499377f384439cef746a0665ad4a930328c8757c038e5928b8398cfd9417b3293a2e6defa85aab856d791 OP_CHECKSIG",
            "desc": "pk(04d50835a2f3e4aa3ae8fe471c6a4d74597f8028f9cf6499377f384439cef746a0665ad4a930328c8757c038e5928b8398cfd9417b3293a2e6defa85aab856d791)#a6xsztys",
            "hex": "4104d50835a2f3e4aa3ae8fe471c6a4d74597f8028f9cf6499377f384439cef746a0665ad4a930328c8757c038e5928b8398cfd9417b3293a2e6defa85aab856d791ac",
            "type": "pubkey"
          }
        }
      ],
      "hex": "01000000010000000000000000000000000000000000000000000000000000000000000000ffffffff0804ffff001d025803ffffffff0100f2052a01000000434104d50835a2f3e4aa3ae8fe471c6a4d74597f8028f9cf6499377f384439cef746a0665ad4a930328c8757c038e5928b8398cfd9417b3293a2e6defa85aab856d791ac00000000"
    }
  ]
}