{
  "hash": "00000000e04688c27adbe825370d6156d58089c984defa2773a9ee3996906d5a",
  "confirmations": 44786,
  "height": 8312,
  "version": 1,
  "versionHex": "00000001",
  "merkleroot": "ed78d2c10542f474501e1aa8a82360054af7470648cb60371a574dc1d9eb4ba1",
  "time": 1237737805,
  "mediantime": 1237735421,
  "nonce": 3891296022,
  "bits": "1d00ffff",
  "difficulty": 1,
  "chainwork": "0000000000000000000000000000000000000000000000000000207920792079",
  "nTx": 1,
  "previousblockhash": "00000000a30f9861415541ec81f08a7817d1ec670719788049a62532db8d2ac0",
  "nextblockhash": "0000000085d1bb02b81459e42cd4f790ff2d4fa319316f28386602b8d1f385c1",
  "strippedsize": 216,
  "size": 216,
  "weight": 864,
  "tx": [
    {
      "txid": "ed78d2c10542f474501e1aa8a82360054af7470648cb60371a574dc1d9eb4ba1",
      "hash": "ed78d2c10542f474501e1aa8a82360054af7470648cb60371a574dc1d9eb4ba1",
      "version": 1,
      "size": 135,
      "vsize": 135,
      "weight": 540,
      "locktime": 0,
      "vin": [
        {
          "coinbase": "04ffff001d024e04",
          "sequence": 4294967295
        }
      ],
      "vout": [
        {
          "value": 50.0,
          "n": 0,
          "scriptPubKey": {
            "asm": "0439cc05ea77b389e2deb7009453a03994a2e91924c36630a98fcab1aab7aaf3b3cc01e9901629f6fae923fbdc4984921731b94f0cb1a033ca6e8d00898a4bb2fa OP_CHECKSIG",
            "desc": "pk(0439cc05ea77b389e2deb7009453a03994a2e91924c36630a98fcab1aab7aaf3b3cc01e9901629f6fae923fbdc4984921731b94f0cb1a033ca6e8d00898a4bb2fa)#rllxurlm",
            "hex": "410439cc05ea77b389e2deb7009453a03994a2e91924c36630a98fcab1aab7aaf3b3cc01e9901629f6fae923fbdc4984921731b94f0cb1a033ca6e8d00898a4bb2faac",
            "type": "pubkey"
          }
        }
      ],
      "hex": "01000000010000000000000000000000000000000000000000000000000000000000000000ffffffff0804ffff001d024e04ffffffff0100f2052a0100000043410439cc05ea77b389e2deb7009453a03994a2e91924c36630a98fcab1aab7aaf3b3cc01e9901629f6fae923fbdc4984921731b94f0cb1a033ca6e8d00898a4bb2faac00000000"
    }
  ]
}