{
  "hash": "00000000f987d459a18c8c1b46fc1ab96d85a1e9f94e8273a2fc93cf0060e1e5",
  "confirmations": 45691,
  "height": 7407,
  "version": 1,
  "versionHex": "00000001",
  "merkleroot": "7201d974bdd1578723d915bcc8c09a7c6f9f1d3b0578ea37be829daf3da10a3a",
  "time": 1237029282,
  "mediantime": 1237025058,
  "nonce": 3486862088,
  "bits": "1d00ffff",
  "difficulty": 1,
  "chainwork": "00000000000000000000000000000000000000000000000000001cf01cf01cf0",
  "nTx": 1,
  "previousblockhash": "00000000ccc4a77183aba7a1908236a8e93890fb2e69e74d67344262b18583eb",
  "nextblockhash": "00000000ce6813da013d842373094bab6d605c902cbc120739c9b017ce5d02c4",
  "strippedsize": 216,
  "size": 216,
  "weight": 864,
  "tx": [
    {
      "txid": "7201d974bdd1578723d915bcc8c09a7c6f9f1d3b0578ea37be829daf3da10a3a",
      "hash": "7201d974bdd1578723d915bcc8c09a7c6f9f1d3b0578ea37be829daf3da10a3a",
      "version": 1,
      "size": 135,
      "vsize": 135,
      "weight": 540,
      "locktime": 0,
      "vin": [
        {
          "coinbase": "04ffff001d029509",
          "sequence": 4294967295
        }
      ],
      "vout": [
        {
          "value": 50.0,
          "n": 0,
          "scriptPubKey": {
            "asm": "04710b425d99e8d8994a2cb622e5eb544a087987e48bebd573fda53c1f3500472d14c45a59babc4017b164d256b40c8ed8bee020d3aa5d923f2b26db497ea9f769 OP_CHECKSIG",
            "desc": "pk(04710b425d99e8d8994a2cb622e5eb544a087987e48bebd573fda53c1f3500472d14c45a59babc4017b164d256b40c8ed8bee020d3aa5d923f2b26db497ea9f769)#7996unj0",
            "hex": "4104710b425d99e8d8994a2cb622e5eb544a087987e48bebd573fda53c1f3500472d14c45a59babc4017b164d256b40c8ed8bee020d3aa5d923f2b26db497ea9f769ac",
            "type": "pubkey"
          }
        }
      ],
      "hex": "01000000010000000000000000000000000000000000000000000000000000000000000000ffffffff0804ffff001d029509ffffffff0100f2052a01000000434104710b425d99e8d8994a2cb622e5eb544a087987e48bebd573fda53c1f3500472d14c45a59babc4017b164d256b40c8ed8bee020d3aa5d923f2b26db497ea9f769ac00000000"
    }
  ]
}