{
  "hash": "000000003fc64c60236d6a8921e7d9dffb536e78321ab37f1136667cc39a04c0",
  "confirmations": 46049,
  "height": 7049,
  "version": 1,
  "versionHex": "00000001",
  "merkleroot": "11b22dc7fc6f8ba619ea72fb3e1a10b3b3fd9c2b26e5a117ff97a666f807860d",
  "time": 1236757094,
  "mediantime": 1236752455,
  "nonce": 1374176026,
  "bits": "1d00ffff",
  "difficulty": 1,
  "chainwork": "00000000000000000000000000000000000000000000000000001b8a1b8a1b8a",
  "nTx": 1,
  "previousblockhash": "00000000cf0e9000778f9af0929ab6410aa02904e078ffe9eb14610ec8b4b2ea",
  "nextblockhash": "000000009ceba0463e092013c13f67b899e2beecaab0a557115ec9aa12a9900b",
  "strippedsize": 216,
  "size": 216,
  "weight": 864,
  "tx": [
    {
      "txid": "11b22dc7fc6f8ba619ea72fb3e1a10b3b3fd9c2b26e5a117ff97a666f807860d",
      "hash": "11b22dc7fc6f8ba619ea72fb3e1a10b3b3fd9c2b26e5a117ff97a666f807860d",
      "version": 1,
      "size": 135,
      "vsize": 135,
      "weight": 540,
      "locktime": 0,
      "vin": [
        {
          "coinbase": "04ffff001d022103",
          "sequence": 4294967295
        }
      ],
      "vout": [
        {
          "value": 50.0,
          "n": 0,
          "scriptPubKey": {
            "asm": "044619964e025bdc520e9d4847e5a8ec16f5f558b178b1291601b5941b0558aac545964eeeeaf5a4b14440bdf5134de95b83986e766338917a0d542e158ce342d4 OP_CHECKSIG",
            "desc": "pk(044619964e025bdc520e9d4847e5a8ec16f5f558b178b1291601b5941b0558aac545964eeeeaf5a4b14440bdf5134de95b83986e766338917a0d542e158ce342d4)#gjmax9h4",
            "hex": "41044619964e025bdc520e9d4847e5a8ec16f5f558b178b1291601b5941b0558aac545964eeeeaf5a4b14440bdf5134de95b83986e766338917a0d542e158ce342d4ac",
            "type": "pubkey"
          }
        }
      ],
      "hex": "01000000010000000000000000000000000000000000000000000000000000000000000000ffffffff0804ffff001d022103ffffffff0100f2052a010000004341044619964e025bdc520e9d4847e5a8ec16f5f558b178b1291601b5941b0558aac545964eeeeaf5a4b14440bdf5134de95b83986e766338917a0d542e158ce342d4ac00000000"
    }
  ]
}