{
  "hash": "00000000b20bce8ebc89a6e530d113f6959b858976bdc69031f35719a25ea9bc",
  "confirmations": 43823,
  "height": 9275,
  "version": 1,
  "versionHex": "00000001",
  "merkleroot": "78277bcfa64ff67c9546303420d9c7194403592547ad1057c67021ceeeffab1b",
  "time": 1238454106,
  "mediantime": 1238450478,
  "nonce": 2699119654,
  "bits": "1d00ffff",
  "difficulty": 1,
  "chainwork": "0000000000000000000000000000000000000000000000000000243c243c243c",
  "nTx": 1,
  "previousblockhash": "000000003723f661fb259c91c61c1f6d63deffa7af8d90b11efacd6505a9c4cb",
  "nextblockhash": "000000006f69d67a88c3b3333613ab0ac0f07a81eb983fdf48982cd89d7f88c1",
  "strippedsize": 216,
  "size": 216,
  "weight": 864,
  "tx": [
    {
      "txid": "78277bcfa64ff67c9546303420d9c7194403592547ad1057c67021ceeeffab1b",
      "hash": "78277bcfa64ff67c9546303420d9c7194403592547ad1057c67021ceeeffab1b",
      "version": 1,
      "size": 135,
      "vsize": 135,
      "weight": 540,
      "locktime": 0,
      "vin": [
        {
          "coinbase": "04ffff001d024e01",
          "sequence": 4294967295
        }
      ],
      "vout": [
        {
          "value": 50.0,
          "n": 0,
          "scriptPubKey": {
            "asm": "0413897c1f93c8b22bd0fcf75d086e9469734c354f97adcb795f391f84712ada58c79b43ab91391a1767604983ccba7b4de874e9b5223391a218abe424098af67f OP_CHECKSIG",
            "desc": "pk(0413897c1f93c8b22bd0fcf75d086e9469734c354f97adcb795f391f84712ada58c79b43ab91391a1767604983ccba7b4de874e9b5223391a218abe424098af67f)#4xnnfud0",
            "hex": "410413897c1f93c8b22bd0fcf75d086e9469734c354f97adcb795f391f84712ada58c79b43ab91391a1767604983ccba7b4de874e9b5223391a218abe424098af67fac",
            "type": "pubkey"
          }
        }
      ],
      "hex": "01000000010000000000000000000000000000000000000000000000000000000000000000ffffffff0804ffff001d024e01ffffffff0100f2052a0100000043410413897c1f93c8b22bd0fcf75d086e9469734c354f97adcb795f391f84712ada58c79b43ab91391a1767604983ccba7b4de874e9b5223391a218abe424098af67fac00000000"
    }
  ]
}