{
  "hash": "00000000e509664c7f625d7e7d67ac8d10a15997198753aef1b42d918590cc7a",
  "confirmations": 48963,
  "height": 4135,
  "version": 1,
  "versionHex": "00000001",
  "merkleroot": "e5b7a04d193c72f4c13109eeceb8f7afdbfe4a23f90b71eb65d4189a0772fa76",
  "time": 1234537511,
  "mediantime": 1234533935,
  "nonce": 1179523862,
  "bits": "1d00ffff",
  "difficulty": 1,
  "chainwork": "0000000000000000000000000000000000000000000000000000102810281028",
  "nTx": 1,
  "previousblockhash": "00000000d79d0dddda3752ba98951f58bee4340b20ab51bd903cda75849f34ca",
  "nextblockhash": "0000000063ea2e3ce28c3b9e502491af8da703ae41980c39b6be0ee383239179",
  "strippedsize": 216,
  "size": 216,
  "weight": 864,
  "tx": [
    {
      "txid": "e5b7a04d193c72f4c13109eeceb8f7afdbfe4a23f90b71eb65d4189a0772fa76",
      "hash": "e5b7a04d193c72f4c13109eeceb8f7afdbfe4a23f90b71eb65d4189a0772fa76",
      "version": 1,
      "size": 135,
      "vsize": 135,
      "weight": 540,
      "locktime": 0,
      "vin": [
        {
          "coinbase": "04ffff001d026006",
          "sequence": 4294967295
        }
      ],
      "vout": [
        {
          "value": 50.0,
          "n": 0,
          "scriptPubKey": {
            "asm": "04f5bd7d7a983529f06ec04b6b7333a06f04292ec1cec71656c36209997889e3b0b9787eebce9065a018a8f64ae11bf97b89b77f02cea07a2d4090a434f0753995 OP_CHECKSIG",
            "desc": "pk(04f5bd7d7a983529f06ec04b6b7333a06f04292ec1cec71656c36209997889e3b0b9787eebce9065a018a8f64ae11bf97b89b77f02cea07a2d4090a434f0753995)#fuasrkhc",
            "hex": "4104f5bd7d7a983529f06ec04b6b7333a06f04292ec1cec71656c36209997889e3b0b9787eebce9065a018a8f64ae11bf97b89b77f02cea07a2d4090a434f0753995ac",
            "type": "pubkey"
          }
        }
      ],
      "hex": "01000000010000000000000000000000000000000000000000000000000000000000000000ffffffff0804ffff001d026006ffffffff0100f2052a01000000434104f5bd7d7a983529f06ec04b6b7333a06f04292ec1cec71656c36209997889e3b0b9787eebce9065a018a8f64ae11bf97b89b77f02cea07a2d4090a434f0753995ac00000000"
    }
  ]
}