{
  "hash": "00000000f16ab972bdac5ac28f7ab9a003ab37496e9a05f5e0a5bb018e842d91",
  "confirmations": 50522,
  "height": 2576,
  "version": 1,
  "versionHex": "00000001",
  "merkleroot": "e408cf633be715c9ef2360172e2f247cc64081bf55998cfb6f562378afcca6b0",
  "time": 1233474131,
  "mediantime": 1233470463,
  "nonce": 94453377,
  "bits": "1d00ffff",
  "difficulty": 1,
  "chainwork": "00000000000000000000000000000000000000000000000000000a110a110a11",
  "nTx": 1,
  "previousblockhash": "000000008c43c7d8ea8870a3f8c3bd16819f7204e5e498a5242f630d72c8ad25",
  "nextblockhash": "0000000059a2c5a4ad7fef720ad0a6ff9eb83122ac6595c75881dd48a4f91238",
  "strippedsize": 215,
  "size": 215,
  "weight": 860,
  "tx": [
    {
      "txid": "e408cf633be715c9ef2360172e2f247cc64081bf55998cfb6f562378afcca6b0",
      "hash": "e408cf633be715c9ef2360172e2f247cc64081bf55998cfb6f562378afcca6b0",
      "version": 1,
      "size": 134,
      "vsize": 134,
      "weight": 536,
      "locktime": 0,
      "vin": [
        {
          "coinbase": "04ffff001d0155",
          "sequence": 4294967295
        }
      ],
      "vout": [
        {
          "value": 50.0,
          "n": 0,
          "scriptPubKey": {
            "asm": "045645b741a905961309c12c99cf246abf09bd7ac9c2522cbcfa851622e5e8f2c11a11f52d7a9570f86f2496091d556c12fa121af49c71301c4006e35623000163 OP_CHECKSIG",
            "desc": "pk(045645b741a905961309c12c99cf246abf09bd7ac9c2522cbcfa851622e5e8f2c11a11f52d7a9570f86f2496091d556c12fa121af49c71301c4006e35623000163)#aludshxf",
            "hex": "41045645b741a905961309c12c99cf246abf09bd7ac9c2522cbcfa851622e5e8f2c11a11f52d7a9570f86f2496091d556c12fa121af49c71301c4006e35623000163ac",
            "type": "pubkey"
          }
        }
      ],
      "hex": "01000000010000000000000000000000000000000000000000000000000000000000000000ffffffff0704ffff001d0155ffffffff0100f2052a010000004341045645b741a905961309c12c99cf246abf09bd7ac9c2522cbcfa851622e5e8f2c11a11f52d7a9570f86f2496091d556c12fa121af49c71301c4006e35623000163ac00000000"
    }
  ]
}