{
  "hash": "00000000a39327e9baae92f3b3f3c6ea55ee2f287d29a7094da8c6529847d462",
  "confirmations": 45041,
  "height": 8057,
  "version": 1,
  "versionHex": "00000001",
  "merkleroot": "14f028d55eb3ff2dd8710332afed3578ecf2a21b8668e611462800377b1cb01d",
  "time": 1237503789,
  "mediantime": 1237498836,
  "nonce": 1538330157,
  "bits": "1d00ffff",
  "difficulty": 1,
  "chainwork": "00000000000000000000000000000000000000000000000000001f7a1f7a1f7a",
  "nTx": 1,
  "previousblockhash": "00000000b6f8b037b52be17b71a60fbd893f843f7c2f7f43b28f3319c8363a61",
  "nextblockhash": "000000002b1e0cef4a1b58f3f4b5f742e0c6908f15c5e19e460fe909dc239275",
  "strippedsize": 215,
  "size": 215,
  "weight": 860,
  "tx": [
    {
      "txid": "14f028d55eb3ff2dd8710332afed3578ecf2a21b8668e611462800377b1cb01d",
      "hash": "14f028d55eb3ff2dd8710332afed3578ecf2a21b8668e611462800377b1cb01d",
      "version": 1,
      "size": 134,
      "vsize": 134,
      "weight": 536,
      "locktime": 0,
      "vin": [
        {
          "coinbase": "04ffff001d0158",
          "sequence": 4294967295
        }
      ],
      "vout": [
        {
          "value": 50.0,
          "n": 0,
          "scriptPubKey": {
            "asm": "0449007e0f3ba7d35907fae6db67d369ffef314ce57ac714a98352d8280bd16cd20b555b803b606f28a9706883ef0faaf97bdf6d9941da8e6014333ac67a129ebd OP_CHECKSIG",
            "desc": "pk(0449007e0f3ba7d35907fae6db67d369ffef314ce57ac714a98352d8280bd16cd20b555b803b606f28a9706883ef0faaf97bdf6d9941da8e6014333ac67a129ebd)#gvxm5xe5",
            "hex": "410449007e0f3ba7d35907fae6db67d369ffef314ce57ac714a98352d8280bd16cd20b555b803b606f28a9706883ef0faaf97bdf6d9941da8e6014333ac67a129ebdac",
            "type": "pubkey"
          }
        }
      ],
      "hex": "01000000010000000000000000000000000000000000000000000000000000000000000000ffffffff0704ffff001d0158ffffffff0100f2052a0100000043410449007e0f3ba7d35907fae6db67d369ffef314ce57ac714a98352d8280bd16cd20b555b803b606f28a9706883ef0faaf97bdf6d9941da8e6014333ac67a129ebdac00000000"
    }
  ]
}