{
  "hash": "00000000f7b6ea92bd64f943a327f6b19ed7799c42a7e284ba6ec1888289a87e",
  "confirmations": 52184,
  "height": 914,
  "version": 1,
  "versionHex": "00000001",
  "merkleroot": "3ca77265fc69a1d21dff015b8fc253bee9efeab77e8d3f511edd4cd584dd9562",
  "time": 1232287750,
  "mediantime": 1232282850,
  "nonce": 2300418580,
  "bits": "1d00ffff",
  "difficulty": 1,
  "chainwork": "0000000000000000000000000000000000000000000000000000039303930393",
  "nTx": 1,
  "previousblockhash": "00000000eec9714483685a04a58d487d758eadf0b0b15d9db38dd632ccb106f8",
  "nextblockhash": "00000000170dacd25631952163cce7b2fbffcb7e0b63aacea2a1b16d52dac3a8",
  "strippedsize": 216,
  "size": 216,
  "weight": 864,
  "tx": [
    {
      "txid": "3ca77265fc69a1d21dff015b8fc253bee9efeab77e8d3f511edd4cd584dd9562",
      "hash": "3ca77265fc69a1d21dff015b8fc253bee9efeab77e8d3f511edd4cd584dd9562",
      "version": 1,
      "size": 135,
      "vsize": 135,
      "weight": 540,
      "locktime": 0,
      "vin": [
        {
          "coinbase": "04ffff001d02d903",
          "sequence": 4294967295
        }
      ],
      "vout": [
        {
          "value": 50.0,
          "n": 0,
          "scriptPubKey": {
            "asm": "0455a575ab9294d1aa1e5f9d2fdfb2e6f5a55429c0534148464d60dd5c09eb0e216e8bf93ba55e025bd460283fae9f5b00a093a6926c1cd1d9b3e2c41e2f4fbb1d OP_CHECKSIG",
            "desc": "pk(0455a575ab9294d1aa1e5f9d2fdfb2e6f5a55429c0534148464d60dd5c09eb0e216e8bf93ba55e025bd460283fae9f5b00a093a6926c1cd1d9b3e2c41e2f4fbb1d)#lq2c32hs",
            "hex": "410455a575ab9294d1aa1e5f9d2fdfb2e6f5a55429c0534148464d60dd5c09eb0e216e8bf93ba55e025bd460283fae9f5b00a093a6926c1cd1d9b3e2c41e2f4fbb1dac",
            "type": "pubkey"
          }
        }
      ],
      "hex": "01000000010000000000000000000000000000000000000000000000000000000000000000ffffffff0804ffff001d02d903ffffffff0100f2052a0100000043410455a575ab9294d1aa1e5f9d2fdfb2e6f5a55429c0534148464d60dd5c09eb0e216e8bf93ba55e025bd460283fae9f5b00a093a6926c1cd1d9b3e2c41e2f4fbb1dac00000000"
    }
  ]
}