{
  "hash": "0000000009a6af2f8248f9661fd0e3381d812e83ef036e382620b64d79dffc0e",
  "confirmations": 47191,
  "height": 5907,
  "version": 1,
  "versionHex": "00000001",
  "merkleroot": "57d16e211431e22d9fcaa4652e233e98c377fb638978a9c93371e266d6a97c97",
  "time": 1235849287,
  "mediantime": 1235845930,
  "nonce": 2086900506,
  "bits": "1d00ffff",
  "difficulty": 1,
  "chainwork": "0000000000000000000000000000000000000000000000000000171417141714",
  "nTx": 1,
  "previousblockhash": "00000000b163e32224f8b5c801883b7e30cf56f80be0cfcc8e5372361cad929c",
  "nextblockhash": "00000000f66306644008245fffa7504cc56d8aebdcbe27cf34787dffd00be0b3",
  "strippedsize": 216,
  "size": 216,
  "weight": 864,
  "tx": [
    {
      "txid": "57d16e211431e22d9fcaa4652e233e98c377fb638978a9c93371e266d6a97c97",
      "hash": "57d16e211431e22d9fcaa4652e233e98c377fb638978a9c93371e266d6a97c97",
      "version": 1,
      "size": 135,
      "vsize": 135,
      "weight": 540,
      "locktime": 0,
      "vin": [
        {
          "coinbase": "04ffff001d021a03",
          "sequence": 4294967295
        }
      ],
      "vout": [
        {
          "value": 50.0,
          "n": 0,
          "scriptPubKey": {
            "asm": "042065988bdd8c016d1773f8ca612460c9b79328764ab0e610a4953363646c22902521ae34abd8df2fadd5d032e87f4d7bdf9f633aad5596ea3983d803d0a575cf OP_CHECKSIG",
            "desc": "pk(042065988bdd8c016d1773f8ca612460c9b79328764ab0e610a4953363646c22902521ae34abd8df2fadd5d032e87f4d7bdf9f633aad5596ea3983d803d0a575cf)#4uteczta",
            "hex": "41042065988bdd8c016d1773f8ca612460c9b79328764ab0e610a4953363646c22902521ae34abd8df2fadd5d032e87f4d7bdf9f633aad5596ea3983d803d0a575cfac",
            "type": "pubkey"
          }
        }
      ],
      "hex": "01000000010000000000000000000000000000000000000000000000000000000000000000ffffffff0804ffff001d021a03ffffffff0100f2052a010000004341042065988bdd8c016d1773f8ca612460c9b79328764ab0e610a4953363646c22902521ae34abd8df2fadd5d032e87f4d7bdf9f633aad5596ea3983d803d0a575cfac00000000"
    }
  ]
}