{
  "hash": "00000000004eda0d6c9fd39ad61fa535efb4bb1a33f656185536c256c31a3d8d",
  "confirmations": 46922,
  "height": 6176,
  "version": 1,
  "versionHex": "00000001",
  "merkleroot": "ab217178e830fd6eb9c47c9b3279099642195c4156bfb24f57e61216885f2be5",
  "time": 1236071791,
  "mediantime": 1236068688,
  "nonce": 2876863022,
  "bits": "1d00ffff",
  "difficulty": 1,
  "chainwork": "0000000000000000000000000000000000000000000000000000182118211821",
  "nTx": 1,
  "previousblockhash": "00000000aad507218b583f4962b53ee1fcd9e7a0f10e736cf7f07c8342b90507",
  "nextblockhash": "00000000ef9d1e0a109a086bc200241955bcb53c00eb15c8987d147f7cf4daae",
  "strippedsize": 216,
  "size": 216,
  "weight": 864,
  "tx": [
    {
      "txid": "ab217178e830fd6eb9c47c9b3279099642195c4156bfb24f57e61216885f2be5",
      "hash": "ab217178e830fd6eb9c47c9b3279099642195c4156bfb24f57e61216885f2be5",
      "version": 1,
      "size": 135,
      "vsize": 135,
      "weight": 540,
      "locktime": 0,
      "vin": [
        {
          "coinbase": "04ffff001d021108",
          "sequence": 4294967295
        }
      ],
      "vout": [
        {
          "value": 50.0,
          "n": 0,
          "scriptPubKey": {
            "asm": "048bc487cf29fdfd1c3d0b267bb7d1c0b402cceb91e9efab2246d4282af7fda5c9229b31edbe32075bb35e79e13bd75b74a92204011160b4700cdb18af86f76621 OP_CHECKSIG",
            "desc": "pk(048bc487cf29fdfd1c3d0b267bb7d1c0b402cceb91e9efab2246d4282af7fda5c9229b31edbe32075bb35e79e13bd75b74a92204011160b4700cdb18af86f76621)#93vjuu6w",
            "hex": "41048bc487cf29fdfd1c3d0b267bb7d1c0b402cceb91e9efab2246d4282af7fda5c9229b31edbe32075bb35e79e13bd75b74a92204011160b4700cdb18af86f76621ac",
            "type": "pubkey"
          }
        }
      ],
      "hex": "01000000010000000000000000000000000000000000000000000000000000000000000000ffffffff0804ffff001d021108ffffffff0100f2052a010000004341048bc487cf29fdfd1c3d0b267bb7d1c0b402cceb91e9efab2246d4282af7fda5c9229b31edbe32075bb35e79e13bd75b74a92204011160b4700cdb18af86f76621ac00000000"
    }
  ]
}