{
  "hash": "00000000efd06192ee4bef48bd5b88b42c5ddfab8081c6470e10ea5187ce316d",
  "confirmations": 51466,
  "height": 1632,
  "version": 1,
  "versionHex": "00000001",
  "merkleroot": "56d406b2ffc310588ecda50cdaa31d0bd009a1baace6b21c15c51694bd1fd05e",
  "time": 1232824705,
  "mediantime": 1232822428,
  "nonce": 1702078254,
  "bits": "1d00ffff",
  "difficulty": 1,
  "chainwork": "0000000000000000000000000000000000000000000000000000066106610661",
  "nTx": 1,
  "previousblockhash": "00000000b4bc9a4a22ad0e1c6ae73634968bd04eb5ea50737cbaf78039fcc5b1",
  "nextblockhash": "000000009c20a2575989ac67bccf3f4aa91d6291bffe8ededd1b9552b372dfd1",
  "strippedsize": 216,
  "size": 216,
  "weight": 864,
  "tx": [
    {
      "txid": "56d406b2ffc310588ecda50cdaa31d0bd009a1baace6b21c15c51694bd1fd05e",
      "hash": "56d406b2ffc310588ecda50cdaa31d0bd009a1baace6b21c15c51694bd1fd05e",
      "version": 1,
      "size": 135,
      "vsize": 135,
      "weight": 540,
      "locktime": 0,
      "vin": [
        {
          "coinbase": "04ffff001d024f02",
          "sequence": 4294967295
        }
      ],
      "vout": [
        {
          "value": 50.0,
          "n": 0,
          "scriptPubKey": {
            "asm": "045e1067e8e2aa8f25b36ad438b7740cf63c1e6c60367c7dbd01f46c0cfcea0efb13193f7bcefc6f2b03017511b410135c190b2f7659d9cbff7d22d577b2d25ab0 OP_CHECKSIG",
            "desc": "pk(045e1067e8e2aa8f25b36ad438b7740cf63c1e6c60367c7dbd01f46c0cfcea0efb13193f7bcefc6f2b03017511b410135c190b2f7659d9cbff7d22d577b2d25ab0)#n7d0atpv",
            "hex": "41045e1067e8e2aa8f25b36ad438b7740cf63c1e6c60367c7dbd01f46c0cfcea0efb13193f7bcefc6f2b03017511b410135c190b2f7659d9cbff7d22d577b2d25ab0ac",
            "type": "pubkey"
          }
        }
      ],
      "hex": "01000000010000000000000000000000000000000000000000000000000000000000000000ffffffff0804ffff001d024f02ffffffff0100f2052a010000004341045e1067e8e2aa8f25b36ad438b7740cf63c1e6c60367c7dbd01f46c0cfcea0efb13193f7bcefc6f2b03017511b410135c190b2f7659d9cbff7d22d577b2d25ab0ac00000000"
    }
  ]
}