{
  "hash": "000000004e77aa6cc95fb1b775671d07b1fed4f470c66e86f1b9b39770f5fa71",
  "confirmations": 49751,
  "height": 3347,
  "version": 1,
  "versionHex": "00000001",
  "merkleroot": "071bc7b93140f31d4ba7c7834e87cd47d95c4a144a34855a84164994ff6f0e19",
  "time": 1234002336,
  "mediantime": 1233997155,
  "nonce": 1909136136,
  "bits": "1d00ffff",
  "difficulty": 1,
  "chainwork": "00000000000000000000000000000000000000000000000000000d140d140d14",
  "nTx": 1,
  "previousblockhash": "000000006be552db28deaa17365da062c1c82d22b03ef060d58b27464c868a2e",
  "nextblockhash": "00000000e631ecab0838f8b18766013337eeeb0004cfe718483777f50f062cc0",
  "strippedsize": 216,
  "size": 216,
  "weight": 864,
  "tx": [
    {
      "txid": "071bc7b93140f31d4ba7c7834e87cd47d95c4a144a34855a84164994ff6f0e19",
      "hash": "071bc7b93140f31d4ba7c7834e87cd47d95c4a144a34855a84164994ff6f0e19",
      "version": 1,
      "size": 135,
      "vsize": 135,
      "weight": 540,
      "locktime": 0,
      "vin": [
        {
          "coinbase": "04ffff001d020605",
          "sequence": 4294967295
        }
      ],
      "vout": [
        {
          "value": 50.0,
          "n": 0,
          "scriptPubKey": {
            "asm": "040ee1b27d414ae1b63075204e23e35ac8ead1d96c488c9ed4dae3c4e0bc5cc79057b4fbb5b4f6d7deea1522daebf6f155b6bc5b3f2f4cf5b8bb76b8a5b9d27d15 OP_CHECKSIG",
            "desc": "pk(040ee1b27d414ae1b63075204e23e35ac8ead1d96c488c9ed4dae3c4e0bc5cc79057b4fbb5b4f6d7deea1522daebf6f155b6bc5b3f2f4cf5b8bb76b8a5b9d27d15)#np0nq9mj",
            "hex": "41040ee1b27d414ae1b63075204e23e35ac8ead1d96c488c9ed4dae3c4e0bc5cc79057b4fbb5b4f6d7deea1522daebf6f155b6bc5b3f2f4cf5b8bb76b8a5b9d27d15ac",
            "type": "pubkey"
          }
        }
      ],
      "hex": "01000000010000000000000000000000000000000000000000000000000000000000000000ffffffff0804ffff001d020605ffffffff0100f2052a010000004341040ee1b27d414ae1b63075204e23e35ac8ead1d96c488c9ed4dae3c4e0bc5cc79057b4fbb5b4f6d7deea1522daebf6f155b6bc5b3f2f4cf5b8bb76b8a5b9d27d15ac00000000"
    }
  ]
}