{
  "hash": "000000005ed7ac20fab32cfcc5640605a94bac1820d059cfd5103e55ad87f266",
  "confirmations": 46901,
  "height": 6197,
  "version": 1,
  "versionHex": "00000001",
  "merkleroot": "88d7193f1565a016027da2e9482dae450364b1cc243f49dfc592df31a46a18ab",
  "time": 1236088518,
  "mediantime": 1236084449,
  "nonce": 1048048695,
  "bits": "1d00ffff",
  "difficulty": 1,
  "chainwork": "0000000000000000000000000000000000000000000000000000183618361836",
  "nTx": 1,
  "previousblockhash": "00000000e4c24c8da149d97dcc84164563c4be3ba5842a15a8e3b737c63273e9",
  "nextblockhash": "000000001294a1a6e85d6fa25d7e23bbd498e757e5dd8c1fbd00f877466e0879",
  "strippedsize": 216,
  "size": 216,
  "weight": 864,
  "tx": [
    {
      "txid": "88d7193f1565a016027da2e9482dae450364b1cc243f49dfc592df31a46a18ab",
      "hash": "88d7193f1565a016027da2e9482dae450364b1cc243f49dfc592df31a46a18ab",
      "version": 1,
      "size": 135,
      "vsize": 135,
      "weight": 540,
      "locktime": 0,
      "vin": [
        {
          "coinbase": "04ffff001d025f08",
          "sequence": 4294967295
        }
      ],
      "vout": [
        {
          "value": 50.0,
          "n": 0,
          "scriptPubKey": {
            "asm": "0411a8b14f04d73190211d07c170a92b9d7b2cf482a28ab38012b47322a1f6f2083d2527692c724f8f153941f1b2a4935082e0679d662735de5d243f3bab8c85cb OP_CHECKSIG",
            "desc": "pk(0411a8b14f04d73190211d07c170a92b9d7b2cf482a28ab38012b47322a1f6f2083d2527692c724f8f153941f1b2a4935082e0679d662735de5d243f3bab8c85cb)#6m3fggqq",
            "hex": "410411a8b14f04d73190211d07c170a92b9d7b2cf482a28ab38012b47322a1f6f2083d2527692c724f8f153941f1b2a4935082e0679d662735de5d243f3bab8c85cbac",
            "type": "pubkey"
          }
        }
      ],
      "hex": "01000000010000000000000000000000000000000000000000000000000000000000000000ffffffff0804ffff001d025f08ffffffff0100f2052a0100000043410411a8b14f04d73190211d07c170a92b9d7b2cf482a28ab38012b47322a1f6f2083d2527692c724f8f153941f1b2a4935082e0679d662735de5d243f3bab8c85cbac00000000"
    }
  ]
}