{
  "hash": "00000000823f9efd22a02134efd1137c26e7be49be127ac1750e5ae3dc976a5c",
  "confirmations": 45080,
  "height": 8018,
  "version": 1,
  "versionHex": "00000001",
  "merkleroot": "d408ebbc11f75b4be815bbbf72b6f7d3c7bb120187dcf07c229ec9de51ee346c",
  "time": 1237475633,
  "mediantime": 1237471985,
  "nonce": 3270380055,
  "bits": "1d00ffff",
  "difficulty": 1,
  "chainwork": "00000000000000000000000000000000000000000000000000001f531f531f53",
  "nTx": 1,
  "previousblockhash": "000000007adb415a2043547344723e0e1f802c0371229903c13312817d94d1b2",
  "nextblockhash": "000000004d5ca107f6dbbad71dc433f132fbe8c935002dab3df03e910c1b7411",
  "strippedsize": 216,
  "size": 216,
  "weight": 864,
  "tx": [
    {
      "txid": "d408ebbc11f75b4be815bbbf72b6f7d3c7bb120187dcf07c229ec9de51ee346c",
      "hash": "d408ebbc11f75b4be815bbbf72b6f7d3c7bb120187dcf07c229ec9de51ee346c",
      "version": 1,
      "size": 135,
      "vsize": 135,
      "weight": 540,
      "locktime": 0,
      "vin": [
        {
          "coinbase": "04ffff001d02cf09",
          "sequence": 4294967295
        }
      ],
      "vout": [
        {
          "value": 50.0,
          "n": 0,
          "scriptPubKey": {
            "asm": "043c83c55434695d82726ed2228e942befa6aba07cc834ee6c45ee45d3067b1765778295a1dc469eed765cc38fc36e207f4485ec80c9156d035699f6376b2fcbb9 OP_CHECKSIG",
            "desc": "pk(043c83c55434695d82726ed2228e942befa6aba07cc834ee6c45ee45d3067b1765778295a1dc469eed765cc38fc36e207f4485ec80c9156d035699f6376b2fcbb9)#7m25czwk",
            "hex": "41043c83c55434695d82726ed2228e942befa6aba07cc834ee6c45ee45d3067b1765778295a1dc469eed765cc38fc36e207f4485ec80c9156d035699f6376b2fcbb9ac",
            "type": "pubkey"
          }
        }
      ],
      "hex": "01000000010000000000000000000000000000000000000000000000000000000000000000ffffffff0804ffff001d02cf09ffffffff0100f2052a010000004341043c83c55434695d82726ed2228e942befa6aba07cc834ee6c45ee45d3067b1765778295a1dc469eed765cc38fc36e207f4485ec80c9156d035699f6376b2fcbb9ac00000000"
    }
  ]
}