{
  "hash": "00000000d96167cac0bbeac6a34b49adf15e22902692945254e8dec6d1d8415c",
  "confirmations": 44778,
  "height": 8320,
  "version": 1,
  "versionHex": "00000001",
  "merkleroot": "91a8fd26b7f69a633cf38c7bededa26fa66e6398e18faa31a5020e17f4dc08f8",
  "time": 1237743597,
  "mediantime": 1237739482,
  "nonce": 899909671,
  "bits": "1d00ffff",
  "difficulty": 1,
  "chainwork": "0000000000000000000000000000000000000000000000000000208120812081",
  "nTx": 1,
  "previousblockhash": "0000000017c3df0860aefc8245f8f272ce33aaee4b69e61a475a24862d3fdbc2",
  "nextblockhash": "00000000fa60124bc1a57f4eec7b1cdae1148ea86fbb40c35ead58d218585f63",
  "strippedsize": 216,
  "size": 216,
  "weight": 864,
  "tx": [
    {
      "txid": "91a8fd26b7f69a633cf38c7bededa26fa66e6398e18faa31a5020e17f4dc08f8",
      "hash": "91a8fd26b7f69a633cf38c7bededa26fa66e6398e18faa31a5020e17f4dc08f8",
      "version": 1,
      "size": 135,
      "vsize": 135,
      "weight": 540,
      "locktime": 0,
      "vin": [
        {
          "coinbase": "04ffff001d026304",
          "sequence": 4294967295
        }
      ],
      "vout": [
        {
          "value": 50.0,
          "n": 0,
          "scriptPubKey": {
            "asm": "04b0e475069900b98ef341af40e9f23b2cdb1c9fb5b0609f225cd2825a5e1ec69684a3d60eaee02f4edaf9cb5696ee91258652e211e0755de590276ab3f100dd7b OP_CHECKSIG",
            "desc": "pk(04b0e475069900b98ef341af40e9f23b2cdb1c9fb5b0609f225cd2825a5e1ec69684a3d60eaee02f4edaf9cb5696ee91258652e211e0755de590276ab3f100dd7b)#ezrt954s",
            "hex": "4104b0e475069900b98ef341af40e9f23b2cdb1c9fb5b0609f225cd2825a5e1ec69684a3d60eaee02f4edaf9cb5696ee91258652e211e0755de590276ab3f100dd7bac",
            "type": "pubkey"
          }
        }
      ],
      "hex": "01000000010000000000000000000000000000000000000000000000000000000000000000ffffffff0804ffff001d026304ffffffff0100f2052a01000000434104b0e475069900b98ef341af40e9f23b2cdb1c9fb5b0609f225cd2825a5e1ec69684a3d60eaee02f4edaf9cb5696ee91258652e211e0755de590276ab3f100dd7bac00000000"
    }
  ]
}