{
  "hash": "00000000a6d82049de926fae94a37758bbb5c6ad8a301015b95b05cc096f0de4",
  "confirmations": 46888,
  "height": 6210,
  "version": 1,
  "versionHex": "00000001",
  "merkleroot": "1a1fa81c5c875b11eda72a0550cb212533b9f6541e38704695c48da28c3bc863",
  "time": 1236099755,
  "mediantime": 1236095564,
  "nonce": 3768074757,
  "bits": "1d00ffff",
  "difficulty": 1,
  "chainwork": "0000000000000000000000000000000000000000000000000000184318431843",
  "nTx": 1,
  "previousblockhash": "00000000b78bd41246d3bef0b842a8880f7f5c9913fc0efe24fe9a1609cd0e17",
  "nextblockhash": "000000006b282401107dde85409af86b2bea8e9dce3d824edb6e3bdd9429cd29",
  "strippedsize": 216,
  "size": 216,
  "weight": 864,
  "tx": [
    {
      "txid": "1a1fa81c5c875b11eda72a0550cb212533b9f6541e38704695c48da28c3bc863",
      "hash": "1a1fa81c5c875b11eda72a0550cb212533b9f6541e38704695c48da28c3bc863",
      "version": 1,
      "size": 135,
      "vsize": 135,
      "weight": 540,
      "locktime": 0,
      "vin": [
        {
          "coinbase": "04ffff001d02a608",
          "sequence": 4294967295
        }
      ],
      "vout": [
        {
          "value": 50.0,
          "n": 0,
          "scriptPubKey": {
            "asm": "04b021b66be744ee22780b67c8afc7b5f786c05326c7b4f7dca5eb1385fd1bb2752ae2f6523c47bce7869df97737808226fca807f426f69b01fa4a4b1956395301 OP_CHECKSIG",
            "desc": "pk(04b021b66be744ee22780b67c8afc7b5f786c05326c7b4f7dca5eb1385fd1bb2752ae2f6523c47bce7869df97737808226fca807f426f69b01fa4a4b1956395301)#zqxyy2ah",
            "hex": "4104b021b66be744ee22780b67c8afc7b5f786c05326c7b4f7dca5eb1385fd1bb2752ae2f6523c47bce7869df97737808226fca807f426f69b01fa4a4b1956395301ac",
            "type": "pubkey"
          }
        }
      ],
      "hex": "01000000010000000000000000000000000000000000000000000000000000000000000000ffffffff0804ffff001d02a608ffffffff0100f2052a01000000434104b021b66be744ee22780b67c8afc7b5f786c05326c7b4f7dca5eb1385fd1bb2752ae2f6523c47bce7869df97737808226fca807f426f69b01fa4a4b1956395301ac00000000"
    }
  ]
}