{
  "hash": "00000000db629e4d40902dc756ee9e3ebb87a76d2750e0846849f3d5e93bb4d6",
  "confirmations": 51989,
  "height": 351,
  "version": 1,
  "versionHex": "00000001",
  "merkleroot": "7bb7e39b2db8ca464db731ab5ce9cf8da82c57f85a97b1469646512ea120e736",
  "time": 1231866358,
  "mediantime": 1231862299,
  "nonce": 3624880917,
  "bits": "1d00ffff",
  "difficulty": 1,
  "chainwork": "0000000000000000000000000000000000000000000000000000016001600160",
  "nTx": 1,
  "previousblockhash": "00000000e286ad94972e44b0532f2823bcda3977661a5136ff4d9d7db107d944",
  "nextblockhash": "0000000090e31ebfb5734092b91f0d8b1dc5f40cd7ff9c18b3f0e999278c7c91",
  "strippedsize": 216,
  "size": 216,
  "weight": 864,
  "tx": [
    {
      "txid": "7bb7e39b2db8ca464db731ab5ce9cf8da82c57f85a97b1469646512ea120e736",
      "hash": "7bb7e39b2db8ca464db731ab5ce9cf8da82c57f85a97b1469646512ea120e736",
      "version": 1,
      "size": 135,
      "vsize": 135,
      "weight": 540,
      "locktime": 0,
      "vin": [
        {
          "coinbase": "04ffff001d029101",
          "sequence": 4294967295
        }
      ],
      "vout": [
        {
          "value": 50.0,
          "n": 0,
          "scriptPubKey": {
            "asm": "044e548abe660b672f494f32dd58c84be584d6d64a7886af924bb32ffee2c156c00c605a2c5cc5be5c7d59bd96ed8220d82673700df0f2d03a434fb318f68ddc1f OP_CHECKSIG",
            "desc": "pk(044e548abe660b672f494f32dd58c84be584d6d64a7886af924bb32ffee2c156c00c605a2c5cc5be5c7d59bd96ed8220d82673700df0f2d03a434fb318f68ddc1f)#nawng708",
            "hex": "41044e548abe660b672f494f32dd58c84be584d6d64a7886af924bb32ffee2c156c00c605a2c5cc5be5c7d59bd96ed8220d82673700df0f2d03a434fb318f68ddc1fac",
            "type": "pubkey"
          }
        }
      ],
      "hex": "01000000010000000000000000000000000000000000000000000000000000000000000000ffffffff0804ffff001d029101ffffffff0100f2052a010000004341044e548abe660b672f494f32dd58c84be584d6d64a7886af924bb32ffee2c156c00c605a2c5cc5be5c7d59bd96ed8220d82673700df0f2d03a434fb318f68ddc1fac00000000"
    }
  ]
}