{
  "hash": "00000000b7b96842342b709b4b41c25140b35bba339cbf4b325b723f2559ba04",
  "confirmations": 52227,
  "height": 391,
  "version": 1,
  "versionHex": "00000001",
  "merkleroot": "10c712c4ccd418e1c1684cd1b4cbb83d972d33c9da873436a5632fc92c45b4c1",
  "time": 1231896614,
  "mediantime": 1231891966,
  "nonce": 1078613789,
  "bits": "1d00ffff",
  "difficulty": 1,
  "chainwork": "0000000000000000000000000000000000000000000000000000018801880188",
  "nTx": 1,
  "previousblockhash": "00000000cfe2c153bac08324be181717740ababbfc912840a80be7b7ba1970ca",
  "nextblockhash": "00000000817225a719e142178240823283cb53ca9e5e79d88fd5ee70e64fe406",
  "strippedsize": 216,
  "size": 216,
  "weight": 864,
  "tx": [
    {
      "txid": "10c712c4ccd418e1c1684cd1b4cbb83d972d33c9da873436a5632fc92c45b4c1",
      "hash": "10c712c4ccd418e1c1684cd1b4cbb83d972d33c9da873436a5632fc92c45b4c1",
      "version": 1,
      "size": 135,
      "vsize": 135,
      "weight": 540,
      "locktime": 0,
      "vin": [
        {
          "coinbase": "04ffff001d025702",
          "sequence": 4294967295
        }
      ],
      "vout": [
        {
          "value": 50.0,
          "n": 0,
          "scriptPubKey": {
            "asm": "044cd990e187a941721fad28014e405fbb7f0794223158706da8c75e79e4895f8e99eee8c7bd504991159a4d17cb95b1fcb89f2c9b1ace2ed6153862973cb59639 OP_CHECKSIG",
            "desc": "pk(044cd990e187a941721fad28014e405fbb7f0794223158706da8c75e79e4895f8e99eee8c7bd504991159a4d17cb95b1fcb89f2c9b1ace2ed6153862973cb59639)#0xg8dsg7",
            "hex": "41044cd990e187a941721fad28014e405fbb7f0794223158706da8c75e79e4895f8e99eee8c7bd504991159a4d17cb95b1fcb89f2c9b1ace2ed6153862973cb59639ac",
            "type": "pubkey"
          }
        }
      ],
      "hex": "01000000010000000000000000000000000000000000000000000000000000000000000000ffffffff0804ffff001d025702ffffffff0100f2052a010000004341044cd990e187a941721fad28014e405fbb7f0794223158706da8c75e79e4895f8e99eee8c7bd504991159a4d17cb95b1fcb89f2c9b1ace2ed6153862973cb59639ac00000000"
    }
  ]
}