{
  "hash": "0000000040c6b1f9f568a56c3b3838916f0cbb2c3ecfe0f49fa14e9c537483ff",
  "confirmations": 48389,
  "height": 4709,
  "version": 1,
  "versionHex": "00000001",
  "merkleroot": "5faf683ebd1e28c1484feec6a22d6fe08dc0bff680535e9382cb93ddb586faee",
  "time": 1234933711,
  "mediantime": 1234932202,
  "nonce": 657392917,
  "bits": "1d00ffff",
  "difficulty": 1,
  "chainwork": "0000000000000000000000000000000000000000000000000000126612661266",
  "nTx": 1,
  "previousblockhash": "0000000044b3121de12d1bbf5b5a6b1b78ade1373c01cc44b064e6552fc24491",
  "nextblockhash": "00000000f26d5ffd03f51adb5e1e592fa8d66a5e10c83ad5d4614f351abdb1f8",
  "strippedsize": 216,
  "size": 216,
  "weight": 864,
  "tx": [
    {
      "txid": "5faf683ebd1e28c1484feec6a22d6fe08dc0bff680535e9382cb93ddb586faee",
      "hash": "5faf683ebd1e28c1484feec6a22d6fe08dc0bff680535e9382cb93ddb586faee",
      "version": 1,
      "size": 135,
      "vsize": 135,
      "weight": 540,
      "locktime": 0,
      "vin": [
        {
          "coinbase": "04ffff001d02a202",
          "sequence": 4294967295
        }
      ],
      "vout": [
        {
          "value": 50.0,
          "n": 0,
          "scriptPubKey": {
            "asm": "04cd76874edd3817d3d8d93d3ca604636ac2c2b5ce6032c1b14494d8ddba77e662e47f296e79a5671e71d6a408cb984af81d94836a7359e91bbfb316dd28c329ae OP_CHECKSIG",
            "desc": "pk(04cd76874edd3817d3d8d93d3ca604636ac2c2b5ce6032c1b14494d8ddba77e662e47f296e79a5671e71d6a408cb984af81d94836a7359e91bbfb316dd28c329ae)#u7gkg4nv",
            "hex": "4104cd76874edd3817d3d8d93d3ca604636ac2c2b5ce6032c1b14494d8ddba77e662e47f296e79a5671e71d6a408cb984af81d94836a7359e91bbfb316dd28c329aeac",
            "type": "pubkey"
          }
        }
      ],
      "hex": "01000000010000000000000000000000000000000000000000000000000000000000000000ffffffff0804ffff001d02a202ffffffff0100f2052a01000000434104cd76874edd3817d3d8d93d3ca604636ac2c2b5ce6032c1b14494d8ddba77e662e47f296e79a5671e71d6a408cb984af81d94836a7359e91bbfb316dd28c329aeac00000000"
    }
  ]
}