{
  "hash": "00000000d9ae185cf149ea6615f846a216dafd8aa4d5c613564a9bc5e1e0f0ab",
  "confirmations": 47546,
  "height": 5552,
  "version": 1,
  "versionHex": "00000001",
  "merkleroot": "8d2d2625c1ccfb7a0a888be7949f4f7771e90fdef342d941e8e1134d9a9b3868",
  "time": 1235564138,
  "mediantime": 1235559779,
  "nonce": 831997989,
  "bits": "1d00ffff",
  "difficulty": 1,
  "chainwork": "000000000000000000000000000000000000000000000000000015b115b115b1",
  "nTx": 1,
  "previousblockhash": "0000000007ab003805c9a0a86d856788bd90ae79d7ddf712fc75a751a98652c9",
  "nextblockhash": "00000000d8110237beb297b474cbece88a9e87158e50dc963d4c711331d699d5",
  "strippedsize": 216,
  "size": 216,
  "weight": 864,
  "tx": [
    {
      "txid": "8d2d2625c1ccfb7a0a888be7949f4f7771e90fdef342d941e8e1134d9a9b3868",
      "hash": "8d2d2625c1ccfb7a0a888be7949f4f7771e90fdef342d941e8e1134d9a9b3868",
      "version": 1,
      "size": 135,
      "vsize": 135,
      "weight": 540,
      "locktime": 0,
      "vin": [
        {
          "coinbase": "04ffff001d029906",
          "sequence": 4294967295
        }
      ],
      "vout": [
        {
          "value": 50.0,
          "n": 0,
          "scriptPubKey": {
            "asm": "04882323f6deccb52e48ba9ca20625920ba8bfb3793eeaaa7f881e279fed68929f5514dcaa372104000b3803842b669aae8f6028cb415cace4d247a881618c8e24 OP_CHECKSIG",
            "desc": "pk(04882323f6deccb52e48ba9ca20625920ba8bfb3793eeaaa7f881e279fed68929f5514dcaa372104000b3803842b669aae8f6028cb415cace4d247a881618c8e24)#payw376f",
            "hex": "4104882323f6deccb52e48ba9ca20625920ba8bfb3793eeaaa7f881e279fed68929f5514dcaa372104000b3803842b669aae8f6028cb415cace4d247a881618c8e24ac",
            "type": "pubkey"
          }
        }
      ],
      "hex": "01000000010000000000000000000000000000000000000000000000000000000000000000ffffffff0804ffff001d029906ffffffff0100f2052a01000000434104882323f6deccb52e48ba9ca20625920ba8bfb3793eeaaa7f881e279fed68929f5514dcaa372104000b3803842b669aae8f6028cb415cace4d247a881618c8e24ac00000000"
    }
  ]
}