{
  "hash": "00000000fad7da7fcd6c4fba6c9af640e6c62066109a9bf7e0d8c0724a1011d2",
  "confirmations": 46038,
  "height": 7060,
  "version": 1,
  "versionHex": "00000001",
  "merkleroot": "1910cbe28c2fad3a0eb758873d78bbbc780f32dd38b7db89926ee9e354a2374d",
  "time": 1236764338,
  "mediantime": 1236760767,
  "nonce": 2932559142,
  "bits": "1d00ffff",
  "difficulty": 1,
  "chainwork": "00000000000000000000000000000000000000000000000000001b951b951b95",
  "nTx": 1,
  "previousblockhash": "000000005923cc03a2f16a6b0522ac290deb290cc13822598968159492c9d669",
  "nextblockhash": "0000000072403eb89511c869539ccdd2178a4318bac184b7ac1c4a12d814a504",
  "strippedsize": 216,
  "size": 216,
  "weight": 864,
  "tx": [
    {
      "txid": "1910cbe28c2fad3a0eb758873d78bbbc780f32dd38b7db89926ee9e354a2374d",
      "hash": "1910cbe28c2fad3a0eb758873d78bbbc780f32dd38b7db89926ee9e354a2374d",
      "version": 1,
      "size": 135,
      "vsize": 135,
      "weight": 540,
      "locktime": 0,
      "vin": [
        {
          "coinbase": "04ffff001d023d03",
          "sequence": 4294967295
        }
      ],
      "vout": [
        {
          "value": 50.0,
          "n": 0,
          "scriptPubKey": {
            "asm": "04fb9f4c6323e17286ee0e36df58be9334fcd184c67fa223fc9f979e9e283d5dfbaa35a5f69827eb2b66112a298df5158f25d7a90807b2260ac55153e6b2051d85 OP_CHECKSIG",
            "desc": "pk(04fb9f4c6323e17286ee0e36df58be9334fcd184c67fa223fc9f979e9e283d5dfbaa35a5f69827eb2b66112a298df5158f25d7a90807b2260ac55153e6b2051d85)#0v5a2kmh",
            "hex": "4104fb9f4c6323e17286ee0e36df58be9334fcd184c67fa223fc9f979e9e283d5dfbaa35a5f69827eb2b66112a298df5158f25d7a90807b2260ac55153e6b2051d85ac",
            "type": "pubkey"
          }
        }
      ],
      "hex": "01000000010000000000000000000000000000000000000000000000000000000000000000ffffffff0804ffff001d023d03ffffffff0100f2052a01000000434104fb9f4c6323e17286ee0e36df58be9334fcd184c67fa223fc9f979e9e283d5dfbaa35a5f69827eb2b66112a298df5158f25d7a90807b2260ac55153e6b2051d85ac00000000"
    }
  ]
}