{
  "hash": "000000005a4e3d0a0d7c4374759f6fd17e95f99bcd6d16d43d3c0358ddd04816",
  "confirmations": 45105,
  "height": 7993,
  "version": 1,
  "versionHex": "00000001",
  "merkleroot": "0809ac31356e03a7f250de03b8ada2a5b43e1db3a8ac0c8bf7e3b20bac05995a",
  "time": 1237458590,
  "mediantime": 1237454309,
  "nonce": 146658613,
  "bits": "1d00ffff",
  "difficulty": 1,
  "chainwork": "00000000000000000000000000000000000000000000000000001f3a1f3a1f3a",
  "nTx": 1,
  "previousblockhash": "00000000f9be3ef6b7c1dabb77ed79d195fe16865a64d331e9ccee6d3c05cd76",
  "nextblockhash": "00000000ebbb247235e07381bad04d008cf3cab6ac377f9607e09616261df944",
  "strippedsize": 216,
  "size": 216,
  "weight": 864,
  "tx": [
    {
      "txid": "0809ac31356e03a7f250de03b8ada2a5b43e1db3a8ac0c8bf7e3b20bac05995a",
      "hash": "0809ac31356e03a7f250de03b8ada2a5b43e1db3a8ac0c8bf7e3b20bac05995a",
      "version": 1,
      "size": 135,
      "vsize": 135,
      "weight": 540,
      "locktime": 0,
      "vin": [
        {
          "coinbase": "04ffff001d026109",
          "sequence": 4294967295
        }
      ],
      "vout": [
        {
          "value": 50.0,
          "n": 0,
          "scriptPubKey": {
            "asm": "047e0ba5ada9ea87496b487255297affdf69c05f713267ce34286c90db69d3bf74d82c79047d85ca22c60a6684c8eafcc832d7fa9f56e1afa3f7bd561066a163ee OP_CHECKSIG",
            "desc": "pk(047e0ba5ada9ea87496b487255297affdf69c05f713267ce34286c90db69d3bf74d82c79047d85ca22c60a6684c8eafcc832d7fa9f56e1afa3f7bd561066a163ee)#6dcp0xtp",
            "hex": "41047e0ba5ada9ea87496b487255297affdf69c05f713267ce34286c90db69d3bf74d82c79047d85ca22c60a6684c8eafcc832d7fa9f56e1afa3f7bd561066a163eeac",
            "type": "pubkey"
          }
        }
      ],
      "hex": "01000000010000000000000000000000000000000000000000000000000000000000000000ffffffff0804ffff001d026109ffffffff0100f2052a010000004341047e0ba5ada9ea87496b487255297affdf69c05f713267ce34286c90db69d3bf74d82c79047d85ca22c60a6684c8eafcc832d7fa9f56e1afa3f7bd561066a163eeac00000000"
    }
  ]
}