{
  "hash": "000000001247f067f39b80d4f0ebc77bd6e44ad520d48dcae476c791b190117b",
  "confirmations": 44050,
  "height": 9048,
  "version": 1,
  "versionHex": "00000001",
  "merkleroot": "732a1d92cf21061afe3e09f37f767e8bb75ba98910c4ba9264e4585cdeda05ed",
  "time": 1238287373,
  "mediantime": 1238283999,
  "nonce": 165255956,
  "bits": "1d00ffff",
  "difficulty": 1,
  "chainwork": "0000000000000000000000000000000000000000000000000000235923592359",
  "nTx": 1,
  "previousblockhash": "00000000652518bcaeb45faa6379068d5ed34caa0fe046498b974d8acc265a1d",
  "nextblockhash": "00000000c76b0b67575a8735b8321399bc61c492b3b894150e751ea25205fc1a",
  "strippedsize": 216,
  "size": 216,
  "weight": 864,
  "tx": [
    {
      "txid": "732a1d92cf21061afe3e09f37f767e8bb75ba98910c4ba9264e4585cdeda05ed",
      "hash": "732a1d92cf21061afe3e09f37f767e8bb75ba98910c4ba9264e4585cdeda05ed",
      "version": 1,
      "size": 135,
      "vsize": 135,
      "weight": 540,
      "locktime": 0,
      "vin": [
        {
          "coinbase": "04ffff001d023807",
          "sequence": 4294967295
        }
      ],
      "vout": [
        {
          "value": 50.0,
          "n": 0,
          "scriptPubKey": {
            "asm": "04edb2f920b9bc1a98f3c8c22fc9582284898cd489d30e4b8d45ac756059b7ec9d957c77d8b74c8639df0517b3100d9fdf511456ce3832076359913ebee0b8e2e2 OP_CHECKSIG",
            "desc": "pk(04edb2f920b9bc1a98f3c8c22fc9582284898cd489d30e4b8d45ac756059b7ec9d957c77d8b74c8639df0517b3100d9fdf511456ce3832076359913ebee0b8e2e2)#wklg2hys",
            "hex": "4104edb2f920b9bc1a98f3c8c22fc9582284898cd489d30e4b8d45ac756059b7ec9d957c77d8b74c8639df0517b3100d9fdf511456ce3832076359913ebee0b8e2e2ac",
            "type": "pubkey"
          }
        }
      ],
      "hex": "01000000010000000000000000000000000000000000000000000000000000000000000000ffffffff0804ffff001d023807ffffffff0100f2052a01000000434104edb2f920b9bc1a98f3c8c22fc9582284898cd489d30e4b8d45ac756059b7ec9d957c77d8b74c8639df0517b3100d9fdf511456ce3832076359913ebee0b8e2e2ac00000000"
    }
  ]
}