{
  "hash": "0000000040d9e6d28ab52d7998b4cf33ab98e149a9ee0c07caea1b74bafd0f51",
  "confirmations": 51300,
  "height": 1798,
  "version": 1,
  "versionHex": "00000001",
  "merkleroot": "585221761063f2d8147373fe6eb5cc17b1f142d33f39bdd93821a5ecc4d31502",
  "time": 1232897146,
  "mediantime": 1232894461,
  "nonce": 1751567142,
  "bits": "1d00ffff",
  "difficulty": 1,
  "chainwork": "0000000000000000000000000000000000000000000000000000070707070707",
  "nTx": 1,
  "previousblockhash": "0000000077a1b71cb25955f6f73aa3fb9860df1f98f7f16d295fbd843c61cd77",
  "nextblockhash": "000000006a88eef081b653d0bc7cbc7296c7bcf0bf60c0c92586fd4d6a0c9fae",
  "strippedsize": 216,
  "size": 216,
  "weight": 864,
  "tx": [
    {
      "txid": "585221761063f2d8147373fe6eb5cc17b1f142d33f39bdd93821a5ecc4d31502",
      "hash": "585221761063f2d8147373fe6eb5cc17b1f142d33f39bdd93821a5ecc4d31502",
      "version": 1,
      "size": 135,
      "vsize": 135,
      "weight": 540,
      "locktime": 0,
      "vin": [
        {
          "coinbase": "04ffff001d021904",
          "sequence": 4294967295
        }
      ],
      "vout": [
        {
          "value": 50.0,
          "n": 0,
          "scriptPubKey": {
            "asm": "0493083e5c1969cbfb9da7ce2bc0b2d36b3e136297817346d06f64b55fafd99f6b8ffaf417591f70d2f6895bc5e0c2c0645dcc8bcd74c8cadfbf513fc54710c5f3 OP_CHECKSIG",
            "desc": "pk(0493083e5c1969cbfb9da7ce2bc0b2d36b3e136297817346d06f64b55fafd99f6b8ffaf417591f70d2f6895bc5e0c2c0645dcc8bcd74c8cadfbf513fc54710c5f3)#d4snfgmj",
            "hex": "410493083e5c1969cbfb9da7ce2bc0b2d36b3e136297817346d06f64b55fafd99f6b8ffaf417591f70d2f6895bc5e0c2c0645dcc8bcd74c8cadfbf513fc54710c5f3ac",
            "type": "pubkey"
          }
        }
      ],
      "hex": "01000000010000000000000000000000000000000000000000000000000000000000000000ffffffff0804ffff001d021904ffffffff0100f2052a0100000043410493083e5c1969cbfb9da7ce2bc0b2d36b3e136297817346d06f64b55fafd99f6b8ffaf417591f70d2f6895bc5e0c2c0645dcc8bcd74c8cadfbf513fc54710c5f3ac00000000"
    }
  ]
}