{
  "hash": "0000000091a5fdf4b5f5fe07ed869bf82049b3d61a403f2771b5cbd1937dad09",
  "confirmations": 50798,
  "height": 2300,
  "version": 1,
  "versionHex": "00000001",
  "merkleroot": "2c8e87226737f9a782e568bf744cf6757cd0f593184df80a61ab0e08c6d86733",
  "time": 1233279118,
  "mediantime": 1233277239,
  "nonce": 176132732,
  "bits": "1d00ffff",
  "difficulty": 1,
  "chainwork": "000000000000000000000000000000000000000000000000000008fd08fd08fd",
  "nTx": 1,
  "previousblockhash": "000000005845885b0f3e66a5a7377c408c7c42bad7528f44862f7b7e741bdb9e",
  "nextblockhash": "0000000005293c54b44c3ae0230ebe9efab661dd7b3068fa44ad33e872282363",
  "strippedsize": 215,
  "size": 215,
  "weight": 860,
  "tx": [
    {
      "txid": "2c8e87226737f9a782e568bf744cf6757cd0f593184df80a61ab0e08c6d86733",
      "hash": "2c8e87226737f9a782e568bf744cf6757cd0f593184df80a61ab0e08c6d86733",
      "version": 1,
      "size": 134,
      "vsize": 134,
      "weight": 536,
      "locktime": 0,
      "vin": [
        {
          "coinbase": "04ffff001d0153",
          "sequence": 4294967295
        }
      ],
      "vout": [
        {
          "value": 50.0,
          "n": 0,
          "scriptPubKey": {
            "asm": "042de7fde63ac230f02d518217725bd7319bf0ef88b3b282255c2eebabd5d65223e3d95fbf358d92cc05084f36240569552c51bd3e1e3611f7dea43681b61a70e8 OP_CHECKSIG",
            "desc": "pk(042de7fde63ac230f02d518217725bd7319bf0ef88b3b282255c2eebabd5d65223e3d95fbf358d92cc05084f36240569552c51bd3e1e3611f7dea43681b61a70e8)#revy07fs",
            "hex": "41042de7fde63ac230f02d518217725bd7319bf0ef88b3b282255c2eebabd5d65223e3d95fbf358d92cc05084f36240569552c51bd3e1e3611f7dea43681b61a70e8ac",
            "type": "pubkey"
          }
        }
      ],
      "hex": "01000000010000000000000000000000000000000000000000000000000000000000000000ffffffff0704ffff001d0153ffffffff0100f2052a010000004341042de7fde63ac230f02d518217725bd7319bf0ef88b3b282255c2eebabd5d65223e3d95fbf358d92cc05084f36240569552c51bd3e1e3611f7dea43681b61a70e8ac00000000"
    }
  ]
}