{
  "hash": "000000009921191d67470d126d1e4957849aa909b4f14c9ddd228b35db08e2b4",
  "confirmations": 48176,
  "height": 4922,
  "version": 1,
  "versionHex": "00000001",
  "merkleroot": "d41ef4f2372becebc781d0d28dcf8fdec10d3b3c0f5c29ea6d7bd29342cfd4a6",
  "time": 1235085011,
  "mediantime": 1235082403,
  "nonce": 3287826709,
  "bits": "1d00ffff",
  "difficulty": 1,
  "chainwork": "0000000000000000000000000000000000000000000000000000133b133b133b",
  "nTx": 1,
  "previousblockhash": "00000000bd8f46dbdec0d53e9587f240ac60eb01473663e9526d21692172c8d3",
  "nextblockhash": "000000009417874accc99f06451effdbf7378093fd6fc85d726fff584fca013a",
  "strippedsize": 216,
  "size": 216,
  "weight": 864,
  "tx": [
    {
      "txid": "d41ef4f2372becebc781d0d28dcf8fdec10d3b3c0f5c29ea6d7bd29342cfd4a6",
      "hash": "d41ef4f2372becebc781d0d28dcf8fdec10d3b3c0f5c29ea6d7bd29342cfd4a6",
      "version": 1,
      "size": 135,
      "vsize": 135,
      "weight": 540,
      "locktime": 0,
      "vin": [
        {
          "coinbase": "04ffff001d02fd05",
          "sequence": 4294967295
        }
      ],
      "vout": [
        {
          "value": 50.0,
          "n": 0,
          "scriptPubKey": {
            "asm": "04236ff414371c8a789096abd51e2cbbf7f332eebee9fad50202ab473364b1df5834d84655ac7c1bace39f139615e6ac6658a18c358167d919d4f8bfdd0764204d OP_CHECKSIG",
            "desc": "pk(04236ff414371c8a789096abd51e2cbbf7f332eebee9fad50202ab473364b1df5834d84655ac7c1bace39f139615e6ac6658a18c358167d919d4f8bfdd0764204d)#p4m6wfqq",
            "hex": "4104236ff414371c8a789096abd51e2cbbf7f332eebee9fad50202ab473364b1df5834d84655ac7c1bace39f139615e6ac6658a18c358167d919d4f8bfdd0764204dac",
            "type": "pubkey"
          }
        }
      ],
      "hex": "01000000010000000000000000000000000000000000000000000000000000000000000000ffffffff0804ffff001d02fd05ffffffff0100f2052a01000000434104236ff414371c8a789096abd51e2cbbf7f332eebee9fad50202ab473364b1df5834d84655ac7c1bace39f139615e6ac6658a18c358167d919d4f8bfdd0764204dac00000000"
    }
  ]
}