{
  "hash": "00000000835a6f420cf1f0d6465e5a3d90a4a6707bb2e9357505b44abf510583",
  "confirmations": 44931,
  "height": 8167,
  "version": 1,
  "versionHex": "00000001",
  "merkleroot": "8413a17495a93322a4c2c4cca5892ef8a8248ea4656b5341ead368667d89b804",
  "time": 1237584291,
  "mediantime": 1237580446,
  "nonce": 2055376163,
  "bits": "1d00ffff",
  "difficulty": 1,
  "chainwork": "00000000000000000000000000000000000000000000000000001fe81fe81fe8",
  "nTx": 1,
  "previousblockhash": "00000000ba79f798c4ed1ec3ff1dfa86a70856fa6ab83cb6d67f16e6f9de4e62",
  "nextblockhash": "00000000d2f7e13ffc5353bc62dcff9655ae55ac5dd2863a9f71a7bf2a3f70dd",
  "strippedsize": 216,
  "size": 216,
  "weight": 864,
  "tx": [
    {
      "txid": "8413a17495a93322a4c2c4cca5892ef8a8248ea4656b5341ead368667d89b804",
      "hash": "8413a17495a93322a4c2c4cca5892ef8a8248ea4656b5341ead368667d89b804",
      "version": 1,
      "size": 135,
      "vsize": 135,
      "weight": 540,
      "locktime": 0,
      "vin": [
        {
          "coinbase": "04ffff001d025302",
          "sequence": 4294967295
        }
      ],
      "vout": [
        {
          "value": 50.0,
          "n": 0,
          "scriptPubKey": {
            "asm": "049f66e0ba8bdecd682589bef1fe828a216766b810104a720d2f42328287d562e6d5f07ebb7be5580cb091b6afe299f17a9591e1fed264f10cd1914798a3ca8eba OP_CHECKSIG",
            "desc": "pk(049f66e0ba8bdecd682589bef1fe828a216766b810104a720d2f42328287d562e6d5f07ebb7be5580cb091b6afe299f17a9591e1fed264f10cd1914798a3ca8eba)#aa5mj69t",
            "hex": "41049f66e0ba8bdecd682589bef1fe828a216766b810104a720d2f42328287d562e6d5f07ebb7be5580cb091b6afe299f17a9591e1fed264f10cd1914798a3ca8ebaac",
            "type": "pubkey"
          }
        }
      ],
      "hex": "01000000010000000000000000000000000000000000000000000000000000000000000000ffffffff0804ffff001d025302ffffffff0100f2052a010000004341049f66e0ba8bdecd682589bef1fe828a216766b810104a720d2f42328287d562e6d5f07ebb7be5580cb091b6afe299f17a9591e1fed264f10cd1914798a3ca8ebaac00000000"
    }
  ]
}