{
  "hash": "0000000021fcb61d5b3cf66201f3a0efc25b7b7ee5af710c6b686a74bc28edfc",
  "confirmations": 43673,
  "height": 9425,
  "version": 1,
  "versionHex": "00000001",
  "merkleroot": "52dfe25956ad1b952ca665b934d5fd11613765811088720b5cf25f5d59fd23d4",
  "time": 1238571661,
  "mediantime": 1238568641,
  "nonce": 837115908,
  "bits": "1d00ffff",
  "difficulty": 1,
  "chainwork": "000000000000000000000000000000000000000000000000000024d224d224d2",
  "nTx": 1,
  "previousblockhash": "00000000c71e4013d596ab7f2c5bf520d72905690425a4ee35edde7fe4ebe3b0",
  "nextblockhash": "00000000572960eae340d22d2e3a119628896be3e29ab736f55f5f49aae42849",
  "strippedsize": 216,
  "size": 216,
  "weight": 864,
  "tx": [
    {
      "txid": "52dfe25956ad1b952ca665b934d5fd11613765811088720b5cf25f5d59fd23d4",
      "hash": "52dfe25956ad1b952ca665b934d5fd11613765811088720b5cf25f5d59fd23d4",
      "version": 1,
      "size": 135,
      "vsize": 135,
      "weight": 540,
      "locktime": 0,
      "vin": [
        {
          "coinbase": "04ffff001d020504",
          "sequence": 4294967295
        }
      ],
      "vout": [
        {
          "value": 50.0,
          "n": 0,
          "scriptPubKey": {
            "asm": "0430f63717da551245ac1ea5f2b0d8d94f7fd29665f3b0868b6cc4ce9463b2437cf9b1624c11874fc8eb30e40a1e34c6b6c0b5f196bc69566b1412f882ee87c1ee OP_CHECKSIG",
            "desc": "pk(0430f63717da551245ac1ea5f2b0d8d94f7fd29665f3b0868b6cc4ce9463b2437cf9b1624c11874fc8eb30e40a1e34c6b6c0b5f196bc69566b1412f882ee87c1ee)#sx37rsr8",
            "hex": "410430f63717da551245ac1ea5f2b0d8d94f7fd29665f3b0868b6cc4ce9463b2437cf9b1624c11874fc8eb30e40a1e34c6b6c0b5f196bc69566b1412f882ee87c1eeac",
            "type": "pubkey"
          }
        }
      ],
      "hex": "01000000010000000000000000000000000000000000000000000000000000000000000000ffffffff0804ffff001d020504ffffffff0100f2052a0100000043410430f63717da551245ac1ea5f2b0d8d94f7fd29665f3b0868b6cc4ce9463b2437cf9b1624c11874fc8eb30e40a1e34c6b6c0b5f196bc69566b1412f882ee87c1eeac00000000"
    }
  ]
}