{
  "hash": "000000009b7725ad1c7e9b3b2e0d80436d6013d620ce80c94e4d210ee6d75f15",
  "confirmations": 44475,
  "height": 8623,
  "version": 1,
  "versionHex": "00000001",
  "merkleroot": "751ef2707470c939173bdcdd512d0952e8dec17ca8899f870cddcce5848e4265",
  "time": 1237965731,
  "mediantime": 1237961822,
  "nonce": 4783101,
  "bits": "1d00ffff",
  "difficulty": 1,
  "chainwork": "000000000000000000000000000000000000000000000000000021b021b021b0",
  "nTx": 1,
  "previousblockhash": "000000009bf8117c8dba39cb4aeb72a6297286de4cd628481acab45dd645166d",
  "nextblockhash": "00000000aa529a2a6a344eeacf1b9dae8e5e76c8bcc31bb2aad01ecb42a53f75",
  "strippedsize": 215,
  "size": 215,
  "weight": 860,
  "tx": [
    {
      "txid": "751ef2707470c939173bdcdd512d0952e8dec17ca8899f870cddcce5848e4265",
      "hash": "751ef2707470c939173bdcdd512d0952e8dec17ca8899f870cddcce5848e4265",
      "version": 1,
      "size": 134,
      "vsize": 134,
      "weight": 536,
      "locktime": 0,
      "vin": [
        {
          "coinbase": "04ffff001d0119",
          "sequence": 4294967295
        }
      ],
      "vout": [
        {
          "value": 50.0,
          "n": 0,
          "scriptPubKey": {
            "asm": "041a4879ba006747779aa93590429ca8747eb9fc3fd06d01869356b361c5068e6f44cda431c8ac92f1eee534cdd307437cee98ddb9227f61cdfef1c1c7e54f1daa OP_CHECKSIG",
            "desc": "pk(041a4879ba006747779aa93590429ca8747eb9fc3fd06d01869356b361c5068e6f44cda431c8ac92f1eee534cdd307437cee98ddb9227f61cdfef1c1c7e54f1daa)#5gnw70vz",
            "hex": "41041a4879ba006747779aa93590429ca8747eb9fc3fd06d01869356b361c5068e6f44cda431c8ac92f1eee534cdd307437cee98ddb9227f61cdfef1c1c7e54f1daaac",
            "type": "pubkey"
          }
        }
      ],
      "hex": "01000000010000000000000000000000000000000000000000000000000000000000000000ffffffff0704ffff001d0119ffffffff0100f2052a010000004341041a4879ba006747779aa93590429ca8747eb9fc3fd06d01869356b361c5068e6f44cda431c8ac92f1eee534cdd307437cee98ddb9227f61cdfef1c1c7e54f1daaac00000000"
    }
  ]
}