{
  "hash": "00000000ba671ce9b23720a7e9350fdbca314edb2c206b090afddb6464866152",
  "confirmations": 44221,
  "height": 8877,
  "version": 1,
  "versionHex": "00000001",
  "merkleroot": "e6b3b50ab807b27a48e9cece8e3b96d2e669a687d162c2a1bd36a3e24c80062d",
  "time": 1238158611,
  "mediantime": 1238152651,
  "nonce": 2806890293,
  "bits": "1d00ffff",
  "difficulty": 1,
  "chainwork": "000000000000000000000000000000000000000000000000000022ae22ae22ae",
  "nTx": 1,
  "previousblockhash": "00000000e7d3201ca7440a9b084f5c0074a0a3264202d87e1bc796cfda265188",
  "nextblockhash": "00000000ec7c949e12fc0b74c64b8fa8c78f8d53f69868a4b3408450c82d136e",
  "strippedsize": 216,
  "size": 216,
  "weight": 864,
  "tx": [
    {
      "txid": "e6b3b50ab807b27a48e9cece8e3b96d2e669a687d162c2a1bd36a3e24c80062d",
      "hash": "e6b3b50ab807b27a48e9cece8e3b96d2e669a687d162c2a1bd36a3e24c80062d",
      "version": 1,
      "size": 135,
      "vsize": 135,
      "weight": 540,
      "locktime": 0,
      "vin": [
        {
          "coinbase": "04ffff001d021104",
          "sequence": 4294967295
        }
      ],
      "vout": [
        {
          "value": 50.0,
          "n": 0,
          "scriptPubKey": {
            "asm": "04d932dcd3a3be5174b725f7a0f786ff15e0fc45d8bbd3d960c2a8e339a01c5ca3f168288294cbe4a74ec0d8270b5cd4b48dabf8e025cf9d8daff7a8ed2b7f46d7 OP_CHECKSIG",
            "desc": "pk(04d932dcd3a3be5174b725f7a0f786ff15e0fc45d8bbd3d960c2a8e339a01c5ca3f168288294cbe4a74ec0d8270b5cd4b48dabf8e025cf9d8daff7a8ed2b7f46d7)#rssmcg59",
            "hex": "4104d932dcd3a3be5174b725f7a0f786ff15e0fc45d8bbd3d960c2a8e339a01c5ca3f168288294cbe4a74ec0d8270b5cd4b48dabf8e025cf9d8daff7a8ed2b7f46d7ac",
            "type": "pubkey"
          }
        }
      ],
      "hex": "01000000010000000000000000000000000000000000000000000000000000000000000000ffffffff0804ffff001d021104ffffffff0100f2052a01000000434104d932dcd3a3be5174b725f7a0f786ff15e0fc45d8bbd3d960c2a8e339a01c5ca3f168288294cbe4a74ec0d8270b5cd4b48dabf8e025cf9d8daff7a8ed2b7f46d7ac00000000"
    }
  ]
}