{
  "hash": "00000000ccfb50782878123cde5be406678c903803fc8c35d6555dbd9292290f",
  "confirmations": 50328,
  "height": 2770,
  "version": 1,
  "versionHex": "00000001",
  "merkleroot": "2731734b0264aceab24989b79321f391defdcd1802ba57fd57d1424eecab9b31",
  "time": 1233610582,
  "mediantime": 1233605821,
  "nonce": 4129186837,
  "bits": "1d00ffff",
  "difficulty": 1,
  "chainwork": "00000000000000000000000000000000000000000000000000000ad30ad30ad3",
  "nTx": 1,
  "previousblockhash": "00000000b7a16bf1538d8324b9443995ec49935c75008a8a335b34936d5732b0",
  "nextblockhash": "000000001e11045daacc7c62f20e3c8a654f930df35f8bd25d27298274426ea2",
  "strippedsize": 216,
  "size": 216,
  "weight": 864,
  "tx": [
    {
      "txid": "2731734b0264aceab24989b79321f391defdcd1802ba57fd57d1424eecab9b31",
      "hash": "2731734b0264aceab24989b79321f391defdcd1802ba57fd57d1424eecab9b31",
      "version": 1,
      "size": 135,
      "vsize": 135,
      "weight": 540,
      "locktime": 0,
      "vin": [
        {
          "coinbase": "04ffff001d02d105",
          "sequence": 4294967295
        }
      ],
      "vout": [
        {
          "value": 50.0,
          "n": 0,
          "scriptPubKey": {
            "asm": "04bf8fbc16a299e071135cf2b0ba154ec3ba4d0996216958668e5da297c4ebd2021b15146d8b173b7a6d382a96052e0152c487b99da0e24d607546cc541ec97e27 OP_CHECKSIG",
            "desc": "pk(04bf8fbc16a299e071135cf2b0ba154ec3ba4d0996216958668e5da297c4ebd2021b15146d8b173b7a6d382a96052e0152c487b99da0e24d607546cc541ec97e27)#a9uvnl75",
            "hex": "4104bf8fbc16a299e071135cf2b0ba154ec3ba4d0996216958668e5da297c4ebd2021b15146d8b173b7a6d382a96052e0152c487b99da0e24d607546cc541ec97e27ac",
            "type": "pubkey"
          }
        }
      ],
      "hex": "01000000010000000000000000000000000000000000000000000000000000000000000000ffffffff0804ffff001d02d105ffffffff0100f2052a01000000434104bf8fbc16a299e071135cf2b0ba154ec3ba4d0996216958668e5da297c4ebd2021b15146d8b173b7a6d382a96052e0152c487b99da0e24d607546cc541ec97e27ac00000000"
    }
  ]
}