{
  "hash": "00000000abe18f9019c0069f6162b3e21d68e99e864c12e637197931e07182fe",
  "confirmations": 43549,
  "height": 9549,
  "version": 1,
  "versionHex": "00000001",
  "merkleroot": "ac54d2048aaffa6cccc19abe14b8792549aeb70b6f1c19da80ba4c6ade45d1dd",
  "time": 1238662381,
  "mediantime": 1238657024,
  "nonce": 1794821410,
  "bits": "1d00ffff",
  "difficulty": 1,
  "chainwork": "0000000000000000000000000000000000000000000000000000254e254e254e",
  "nTx": 1,
  "previousblockhash": "00000000e16d5dc0f9902480f1897956b02f30c5a2d5b88c4a1064488f09c7c2",
  "nextblockhash": "00000000f46ba71dafc93d21bd76359486c7bcb599ddd2124f4c97e309511407",
  "strippedsize": 216,
  "size": 216,
  "weight": 864,
  "tx": [
    {
      "txid": "ac54d2048aaffa6cccc19abe14b8792549aeb70b6f1c19da80ba4c6ade45d1dd",
      "hash": "ac54d2048aaffa6cccc19abe14b8792549aeb70b6f1c19da80ba4c6ade45d1dd",
      "version": 1,
      "size": 135,
      "vsize": 135,
      "weight": 540,
      "locktime": 0,
      "vin": [
        {
          "coinbase": "04ffff001d020a06",
          "sequence": 4294967295
        }
      ],
      "vout": [
        {
          "value": 50.0,
          "n": 0,
          "scriptPubKey": {
            "asm": "04e6c99b88dddc3a8d4d129d861df72427cc472dab267852c7b966b58f108ad785b87d8e9fe2e87984f5c63c93294c491c1e39e01da2396407c222a6b5344ff471 OP_CHECKSIG",
            "desc": "pk(04e6c99b88dddc3a8d4d129d861df72427cc472dab267852c7b966b58f108ad785b87d8e9fe2e87984f5c63c93294c491c1e39e01da2396407c222a6b5344ff471)#6ya2sdks",
            "hex": "4104e6c99b88dddc3a8d4d129d861df72427cc472dab267852c7b966b58f108ad785b87d8e9fe2e87984f5c63c93294c491c1e39e01da2396407c222a6b5344ff471ac",
            "type": "pubkey"
          }
        }
      ],
      "hex": "01000000010000000000000000000000000000000000000000000000000000000000000000ffffffff0804ffff001d020a06ffffffff0100f2052a01000000434104e6c99b88dddc3a8d4d129d861df72427cc472dab267852c7b966b58f108ad785b87d8e9fe2e87984f5c63c93294c491c1e39e01da2396407c222a6b5344ff471ac00000000"
    }
  ]
}