{
  "hash": "00000000a281b098c057b406e8de544ceb9d6f693c1875501d879532a1c2be72",
  "confirmations": 47381,
  "height": 5717,
  "version": 1,
  "versionHex": "00000001",
  "merkleroot": "c93a2f1d04ce5d65166547f4d8d8f10e339f33d8bab1ee0b96a501aca4ea4707",
  "time": 1235698460,
  "mediantime": 1235694919,
  "nonce": 895193347,
  "bits": "1d00ffff",
  "difficulty": 1,
  "chainwork": "0000000000000000000000000000000000000000000000000000165616561656",
  "nTx": 1,
  "previousblockhash": "0000000054d9dfc9f9577a1f3cf9d2717fee8eac818756e801c34df54838b08d",
  "nextblockhash": "000000004fd3f62c52990111e9f9be4350c25bb978b7680a68d8aa61473100e1",
  "strippedsize": 216,
  "size": 216,
  "weight": 864,
  "tx": [
    {
      "txid": "c93a2f1d04ce5d65166547f4d8d8f10e339f33d8bab1ee0b96a501aca4ea4707",
      "hash": "c93a2f1d04ce5d65166547f4d8d8f10e339f33d8bab1ee0b96a501aca4ea4707",
      "version": 1,
      "size": 135,
      "vsize": 135,
      "weight": 540,
      "locktime": 0,
      "vin": [
        {
          "coinbase": "04ffff001d02c109",
          "sequence": 4294967295
        }
      ],
      "vout": [
        {
          "value": 50.0,
          "n": 0,
          "scriptPubKey": {
            "asm": "0435465deaf7793b7856d27d19636075050a643b812d24d8a165fd8c7424ed6490306906377256ec6f202cf7b8347fe4710decb326c918a3bf5b1f76b9ea9f6bb3 OP_CHECKSIG",
            "desc": "pk(0435465deaf7793b7856d27d19636075050a643b812d24d8a165fd8c7424ed6490306906377256ec6f202cf7b8347fe4710decb326c918a3bf5b1f76b9ea9f6bb3)#f8s209y7",
            "hex": "410435465deaf7793b7856d27d19636075050a643b812d24d8a165fd8c7424ed6490306906377256ec6f202cf7b8347fe4710decb326c918a3bf5b1f76b9ea9f6bb3ac",
            "type": "pubkey"
          }
        }
      ],
      "hex": "01000000010000000000000000000000000000000000000000000000000000000000000000ffffffff0804ffff001d02c109ffffffff0100f2052a0100000043410435465deaf7793b7856d27d19636075050a643b812d24d8a165fd8c7424ed6490306906377256ec6f202cf7b8347fe4710decb326c918a3bf5b1f76b9ea9f6bb3ac00000000"
    }
  ]
}