{
  "hash": "00000000eaeca7cc08894da9fcee0099c1919b82ab34e85727c5d067ab49ca2e",
  "confirmations": 47649,
  "height": 5449,
  "version": 1,
  "versionHex": "00000001",
  "merkleroot": "9ce04b05241f42b7030f980bcd153b6b5efc2c7d52ec92e4be2d101bd3af2a4b",
  "time": 1235483110,
  "mediantime": 1235477553,
  "nonce": 1520309295,
  "bits": "1d00ffff",
  "difficulty": 1,
  "chainwork": "0000000000000000000000000000000000000000000000000000154a154a154a",
  "nTx": 1,
  "previousblockhash": "000000006e2cdfb59cc84c13fddbd10fa679b9e9b31e8f1d3a26d7352a24def9",
  "nextblockhash": "00000000ef6abf5bb17bcf59365ef8b783e18fc7dd5bcb44340b2e710125d9c3",
  "strippedsize": 216,
  "size": 216,
  "weight": 864,
  "tx": [
    {
      "txid": "9ce04b05241f42b7030f980bcd153b6b5efc2c7d52ec92e4be2d101bd3af2a4b",
      "hash": "9ce04b05241f42b7030f980bcd153b6b5efc2c7d52ec92e4be2d101bd3af2a4b",
      "version": 1,
      "size": 135,
      "vsize": 135,
      "weight": 540,
      "locktime": 0,
      "vin": [
        {
          "coinbase": "04ffff001d02ac04",
          "sequence": 4294967295
        }
      ],
      "vout": [
        {
          "value": 50.0,
          "n": 0,
          "scriptPubKey": {
            "asm": "044670af5bb508f18cbf3c0d8c45b3060b22a7898940e519680ada5e547a4118dc6a3a63107aa5e44ee59e5103909faf7ab3b9fa0e52774b7d1e4798b5e377eecb OP_CHECKSIG",
            "desc": "pk(044670af5bb508f18cbf3c0d8c45b3060b22a7898940e519680ada5e547a4118dc6a3a63107aa5e44ee59e5103909faf7ab3b9fa0e52774b7d1e4798b5e377eecb)#7nald986",
            "hex": "41044670af5bb508f18cbf3c0d8c45b3060b22a7898940e519680ada5e547a4118dc6a3a63107aa5e44ee59e5103909faf7ab3b9fa0e52774b7d1e4798b5e377eecbac",
            "type": "pubkey"
          }
        }
      ],
      "hex": "01000000010000000000000000000000000000000000000000000000000000000000000000ffffffff0804ffff001d02ac04ffffffff0100f2052a010000004341044670af5bb508f18cbf3c0d8c45b3060b22a7898940e519680ada5e547a4118dc6a3a63107aa5e44ee59e5103909faf7ab3b9fa0e52774b7d1e4798b5e377eecbac00000000"
    }
  ]
}