{
  "hash": "000000004013f5eba4a7825f8cdb1bbfe8fa9d2b359adc4ad1da086db08227e8",
  "confirmations": 43573,
  "height": 9525,
  "version": 1,
  "versionHex": "00000001",
  "merkleroot": "956896ffb028ac71cff024ba174c49770d78a83e690b37af7d6d15ef2020b376",
  "time": 1238643871,
  "mediantime": 1238642133,
  "nonce": 49821777,
  "bits": "1d00ffff",
  "difficulty": 1,
  "chainwork": "0000000000000000000000000000000000000000000000000000253625362536",
  "nTx": 1,
  "previousblockhash": "000000004a6484386e4f23ce779f7a6ae651c15c64db1ccd927fc633442b9e77",
  "nextblockhash": "0000000026043b432e4c6bd79d827582acb9c72a09e21fadeece7eda2b3729b8",
  "strippedsize": 215,
  "size": 215,
  "weight": 860,
  "tx": [
    {
      "txid": "956896ffb028ac71cff024ba174c49770d78a83e690b37af7d6d15ef2020b376",
      "hash": "956896ffb028ac71cff024ba174c49770d78a83e690b37af7d6d15ef2020b376",
      "version": 1,
      "size": 134,
      "vsize": 134,
      "weight": 536,
      "locktime": 0,
      "vin": [
        {
          "coinbase": "04ffff001d016b",
          "sequence": 4294967295
        }
      ],
      "vout": [
        {
          "value": 50.0,
          "n": 0,
          "scriptPubKey": {
            "asm": "04e640f45378a789fb1f5990401dd5fa03c057498094caafedd619bbc550ea30f8af885534c50697001856301e2b0cad75b03ceb9d0766024b270bc07005997911 OP_CHECKSIG",
            "desc": "pk(04e640f45378a789fb1f5990401dd5fa03c057498094caafedd619bbc550ea30f8af885534c50697001856301e2b0cad75b03ceb9d0766024b270bc07005997911)#n6xjt80q",
            "hex": "4104e640f45378a789fb1f5990401dd5fa03c057498094caafedd619bbc550ea30f8af885534c50697001856301e2b0cad75b03ceb9d0766024b270bc07005997911ac",
            "type": "pubkey"
          }
        }
      ],
      "hex": "01000000010000000000000000000000000000000000000000000000000000000000000000ffffffff0704ffff001d016bffffffff0100f2052a01000000434104e640f45378a789fb1f5990401dd5fa03c057498094caafedd619bbc550ea30f8af885534c50697001856301e2b0cad75b03ceb9d0766024b270bc07005997911ac00000000"
    }
  ]
}