{
  "hash": "000000006786272f2f84e16361158797a4193d0129d7aa13d644762249837e50",
  "confirmations": 50130,
  "height": 2968,
  "version": 1,
  "versionHex": "00000001",
  "merkleroot": "f95c8c709e2228b7581f3abb3a36cd21197426de3bc5ebc519a6a9bc007835e1",
  "time": 1233739643,
  "mediantime": 1233735407,
  "nonce": 2453087764,
  "bits": "1d00ffff",
  "difficulty": 1,
  "chainwork": "00000000000000000000000000000000000000000000000000000b990b990b99",
  "nTx": 1,
  "previousblockhash": "000000004abc190347ad0e28c2f888a4ae1c6b511d7295bbf12b80eded002475",
  "nextblockhash": "00000000113fc1ffd1e47d79786edebea211d22d9dc608850cd980ffc9023da4",
  "strippedsize": 216,
  "size": 216,
  "weight": 864,
  "tx": [
    {
      "txid": "f95c8c709e2228b7581f3abb3a36cd21197426de3bc5ebc519a6a9bc007835e1",
      "hash": "f95c8c709e2228b7581f3abb3a36cd21197426de3bc5ebc519a6a9bc007835e1",
      "version": 1,
      "size": 135,
      "vsize": 135,
      "weight": 540,
      "locktime": 0,
      "vin": [
        {
          "coinbase": "04ffff001d02d400",
          "sequence": 4294967295
        }
      ],
      "vout": [
        {
          "value": 50.0,
          "n": 0,
          "scriptPubKey": {
            "asm": "042c90507f92c277cabafdb585bbcd8624a46a2a3b3acb4cf97aba6acebe6c0960906fa18b97d4f01701d050c0d60968e6cbb297ca41e3b26338df0835e2c6e4eb OP_CHECKSIG",
            "desc": "pk(042c90507f92c277cabafdb585bbcd8624a46a2a3b3acb4cf97aba6acebe6c0960906fa18b97d4f01701d050c0d60968e6cbb297ca41e3b26338df0835e2c6e4eb)#358kypdh",
            "hex": "41042c90507f92c277cabafdb585bbcd8624a46a2a3b3acb4cf97aba6acebe6c0960906fa18b97d4f01701d050c0d60968e6cbb297ca41e3b26338df0835e2c6e4ebac",
            "type": "pubkey"
          }
        }
      ],
      "hex": "01000000010000000000000000000000000000000000000000000000000000000000000000ffffffff0804ffff001d02d400ffffffff0100f2052a010000004341042c90507f92c277cabafdb585bbcd8624a46a2a3b3acb4cf97aba6acebe6c0960906fa18b97d4f01701d050c0d60968e6cbb297ca41e3b26338df0835e2c6e4ebac00000000"
    }
  ]
}