{
  "hash": "00000000e30fe1780fab33e4b59a14b22ecee239eaad03f47a44c43e24cd209f",
  "confirmations": 43386,
  "height": 9712,
  "version": 1,
  "versionHex": "00000001",
  "merkleroot": "3cf390fe56491ac131c2b2884238277c6ca6f5cb3ef15e6108b4ea51d1342387",
  "time": 1238787133,
  "mediantime": 1238782982,
  "nonce": 1624935705,
  "bits": "1d00ffff",
  "difficulty": 1,
  "chainwork": "000000000000000000000000000000000000000000000000000025f125f125f1",
  "nTx": 1,
  "previousblockhash": "00000000688c16310bfb611035249fc40ad3d643df87f3d2b07c5edb9897dbb5",
  "nextblockhash": "0000000007518e9929094ae88ae6787c0576f87806dee2a849d192e718fccf3d",
  "strippedsize": 216,
  "size": 216,
  "weight": 864,
  "tx": [
    {
      "txid": "3cf390fe56491ac131c2b2884238277c6ca6f5cb3ef15e6108b4ea51d1342387",
      "hash": "3cf390fe56491ac131c2b2884238277c6ca6f5cb3ef15e6108b4ea51d1342387",
      "version": 1,
      "size": 135,
      "vsize": 135,
      "weight": 540,
      "locktime": 0,
      "vin": [
        {
          "coinbase": "04ffff001d02b008",
          "sequence": 4294967295
        }
      ],
      "vout": [
        {
          "value": 50.0,
          "n": 0,
          "scriptPubKey": {
            "asm": "04862d4d877f13ff97b84af95a9f6c3d9faf43d98f750c072506aeb1c906928adb054e6557089e4ba21bc647ed0f8061dc318c61fe0771492d3b420d2e0afa3496 OP_CHECKSIG",
            "desc": "pk(04862d4d877f13ff97b84af95a9f6c3d9faf43d98f750c072506aeb1c906928adb054e6557089e4ba21bc647ed0f8061dc318c61fe0771492d3b420d2e0afa3496)#y7ne4kq0",
            "hex": "4104862d4d877f13ff97b84af95a9f6c3d9faf43d98f750c072506aeb1c906928adb054e6557089e4ba21bc647ed0f8061dc318c61fe0771492d3b420d2e0afa3496ac",
            "type": "pubkey"
          }
        }
      ],
      "hex": "01000000010000000000000000000000000000000000000000000000000000000000000000ffffffff0804ffff001d02b008ffffffff0100f2052a01000000434104862d4d877f13ff97b84af95a9f6c3d9faf43d98f750c072506aeb1c906928adb054e6557089e4ba21bc647ed0f8061dc318c61fe0771492d3b420d2e0afa3496ac00000000"
    }
  ]
}