{
  "hash": "00000000d1140c906a48ad5b6adee641f4e00825356bea282266c723a090d86a",
  "confirmations": 50220,
  "height": 2878,
  "version": 1,
  "versionHex": "00000001",
  "merkleroot": "27c11d328b413eca9cd7375f8ef32fcb51809a3ec8fdff9c75073af53a1eb6ff",
  "time": 1233677362,
  "mediantime": 1233673511,
  "nonce": 2127029304,
  "bits": "1d00ffff",
  "difficulty": 1,
  "chainwork": "00000000000000000000000000000000000000000000000000000b3f0b3f0b3f",
  "nTx": 1,
  "previousblockhash": "0000000011e028c880f449e319f60a59da457aaf6e6ec60d5e44c53fbae938b1",
  "nextblockhash": "0000000025b1bc19dcbfa6d0eb41b6f8752ec3a3ae7f077d954b3792b6549f18",
  "strippedsize": 216,
  "size": 216,
  "weight": 864,
  "tx": [
    {
      "txid": "27c11d328b413eca9cd7375f8ef32fcb51809a3ec8fdff9c75073af53a1eb6ff",
      "hash": "27c11d328b413eca9cd7375f8ef32fcb51809a3ec8fdff9c75073af53a1eb6ff",
      "version": 1,
      "size": 135,
      "vsize": 135,
      "weight": 540,
      "locktime": 0,
      "vin": [
        {
          "coinbase": "04ffff001d022107",
          "sequence": 4294967295
        }
      ],
      "vout": [
        {
          "value": 50.0,
          "n": 0,
          "scriptPubKey": {
            "asm": "04eef3214e3d88918fb3da0c7b535d3562469f6dae039b49f45d3284a99f6b94c7f5b7446c4258048969ea6212ac4167805cfb962f7bf9a46af4717e3bd95ff953 OP_CHECKSIG",
            "desc": "pk(04eef3214e3d88918fb3da0c7b535d3562469f6dae039b49f45d3284a99f6b94c7f5b7446c4258048969ea6212ac4167805cfb962f7bf9a46af4717e3bd95ff953)#5xga96x8",
            "hex": "4104eef3214e3d88918fb3da0c7b535d3562469f6dae039b49f45d3284a99f6b94c7f5b7446c4258048969ea6212ac4167805cfb962f7bf9a46af4717e3bd95ff953ac",
            "type": "pubkey"
          }
        }
      ],
      "hex": "01000000010000000000000000000000000000000000000000000000000000000000000000ffffffff0804ffff001d022107ffffffff0100f2052a01000000434104eef3214e3d88918fb3da0c7b535d3562469f6dae039b49f45d3284a99f6b94c7f5b7446c4258048969ea6212ac4167805cfb962f7bf9a46af4717e3bd95ff953ac00000000"
    }
  ]
}