{
  "hash": "00000000e8c1ad1efa24df1abf75d90246f71ede2731f5bbc277b007fbd0d8ac",
  "confirmations": 48007,
  "height": 5091,
  "version": 1,
  "versionHex": "00000001",
  "merkleroot": "0112b5cfb9209d277aab370ad7cc6733f199ce5b41a48e1662caf5e91ca2d08e",
  "time": 1235209929,
  "mediantime": 1235206141,
  "nonce": 246654675,
  "bits": "1d00ffff",
  "difficulty": 1,
  "chainwork": "000000000000000000000000000000000000000000000000000013e413e413e4",
  "nTx": 1,
  "previousblockhash": "00000000ed25b34ed7c71c613b92d7ce43e912993fdf506dbdf81bf759f9a362",
  "nextblockhash": "000000001d13d4bf1518d2afdc48decee30efe8a476ac5ae76c7b597ddef95d7",
  "strippedsize": 216,
  "size": 216,
  "weight": 864,
  "tx": [
    {
      "txid": "0112b5cfb9209d277aab370ad7cc6733f199ce5b41a48e1662caf5e91ca2d08e",
      "hash": "0112b5cfb9209d277aab370ad7cc6733f199ce5b41a48e1662caf5e91ca2d08e",
      "version": 1,
      "size": 135,
      "vsize": 135,
      "weight": 540,
      "locktime": 0,
      "vin": [
        {
          "coinbase": "04ffff001d027c0c",
          "sequence": 4294967295
        }
      ],
      "vout": [
        {
          "value": 50.0,
          "n": 0,
          "scriptPubKey": {
            "asm": "0426c9f8a580745389f04d63ebe65559cf78d7c42dff70e437cadd61829f05ae3a34dcc8d2437998ab57b49bea022d8a2108fecee84c5366b35a2d97fe437d9ef3 OP_CHECKSIG",
            "desc": "pk(0426c9f8a580745389f04d63ebe65559cf78d7c42dff70e437cadd61829f05ae3a34dcc8d2437998ab57b49bea022d8a2108fecee84c5366b35a2d97fe437d9ef3)#pxrfwfqe",
            "hex": "410426c9f8a580745389f04d63ebe65559cf78d7c42dff70e437cadd61829f05ae3a34dcc8d2437998ab57b49bea022d8a2108fecee84c5366b35a2d97fe437d9ef3ac",
            "type": "pubkey"
          }
        }
      ],
      "hex": "01000000010000000000000000000000000000000000000000000000000000000000000000ffffffff0804ffff001d027c0cffffffff0100f2052a0100000043410426c9f8a580745389f04d63ebe65559cf78d7c42dff70e437cadd61829f05ae3a34dcc8d2437998ab57b49bea022d8a2108fecee84c5366b35a2d97fe437d9ef3ac00000000"
    }
  ]
}