{
  "hash": "000000004113dec6af7d43d56b0acf07f230b8fa2d10ea9b8d3fd3209a7bbf30",
  "confirmations": 46371,
  "height": 6727,
  "version": 1,
  "versionHex": "00000001",
  "merkleroot": "1859adb5a28009c2e3f4571c6e1ee819a689ec097334014290482687c148b78a",
  "time": 1236501799,
  "mediantime": 1236498993,
  "nonce": 16203244,
  "bits": "1d00ffff",
  "difficulty": 1,
  "chainwork": "00000000000000000000000000000000000000000000000000001a481a481a48",
  "nTx": 1,
  "previousblockhash": "00000000349ad13e9a2bc3939cc42903df3a3a85eeae4191752a1fa1a1e98b08",
  "nextblockhash": "0000000002a8f6cbc349bfb28cf89c268e11aa9b416c88e0ac7e68a0f99c7935",
  "strippedsize": 215,
  "size": 215,
  "weight": 860,
  "tx": [
    {
      "txid": "1859adb5a28009c2e3f4571c6e1ee819a689ec097334014290482687c148b78a",
      "hash": "1859adb5a28009c2e3f4571c6e1ee819a689ec097334014290482687c148b78a",
      "version": 1,
      "size": 134,
      "vsize": 134,
      "weight": 536,
      "locktime": 0,
      "vin": [
        {
          "coinbase": "04ffff001d010b",
          "sequence": 4294967295
        }
      ],
      "vout": [
        {
          "value": 50.0,
          "n": 0,
          "scriptPubKey": {
            "asm": "0495b091c6a47ccbc77c2af02dd975dcce14c895894df4de90c94066f72144751967058480aa91b33d9d972c13d5605d29ece6a4d1abb355576c988302f0bad2ed OP_CHECKSIG",
            "desc": "pk(0495b091c6a47ccbc77c2af02dd975dcce14c895894df4de90c94066f72144751967058480aa91b33d9d972c13d5605d29ece6a4d1abb355576c988302f0bad2ed)#je06gwe3",
            "hex": "410495b091c6a47ccbc77c2af02dd975dcce14c895894df4de90c94066f72144751967058480aa91b33d9d972c13d5605d29ece6a4d1abb355576c988302f0bad2edac",
            "type": "pubkey"
          }
        }
      ],
      "hex": "01000000010000000000000000000000000000000000000000000000000000000000000000ffffffff0704ffff001d010bffffffff0100f2052a0100000043410495b091c6a47ccbc77c2af02dd975dcce14c895894df4de90c94066f72144751967058480aa91b33d9d972c13d5605d29ece6a4d1abb355576c988302f0bad2edac00000000"
    }
  ]
}