{
  "hash": "000000009fa9ff58fa778ddfc496b1c506e13db845fa1107e112c6321bdb1f24",
  "confirmations": 46000,
  "height": 7098,
  "version": 1,
  "versionHex": "00000001",
  "merkleroot": "a65a13b765d268f3b2f8c5996ff94070a0ac12522336ab3f2674e5f219d75471",
  "time": 1236796379,
  "mediantime": 1236793558,
  "nonce": 29670161,
  "bits": "1d00ffff",
  "difficulty": 1,
  "chainwork": "00000000000000000000000000000000000000000000000000001bbb1bbb1bbb",
  "nTx": 1,
  "previousblockhash": "0000000082c536679fb28b178a7fd2a0907a87d5cd498084c42d1272ba534ba0",
  "nextblockhash": "00000000b6020287497023881010aaad4473c8d34f3287a813da392962a0ef44",
  "strippedsize": 215,
  "size": 215,
  "weight": 860,
  "tx": [
    {
      "txid": "a65a13b765d268f3b2f8c5996ff94070a0ac12522336ab3f2674e5f219d75471",
      "hash": "a65a13b765d268f3b2f8c5996ff94070a0ac12522336ab3f2674e5f219d75471",
      "version": 1,
      "size": 134,
      "vsize": 134,
      "weight": 536,
      "locktime": 0,
      "vin": [
        {
          "coinbase": "04ffff001d0131",
          "sequence": 4294967295
        }
      ],
      "vout": [
        {
          "value": 50.0,
          "n": 0,
          "scriptPubKey": {
            "asm": "047ffbfc938c993de8ee1376177edc3e81b68192d650cb77796c0afbbe864f178037475399f64498149580d1158a941d8aed79f1a40081ce3e0330ed8cf6831112 OP_CHECKSIG",
            "desc": "pk(047ffbfc938c993de8ee1376177edc3e81b68192d650cb77796c0afbbe864f178037475399f64498149580d1158a941d8aed79f1a40081ce3e0330ed8cf6831112)#q53nnkh2",
            "hex": "41047ffbfc938c993de8ee1376177edc3e81b68192d650cb77796c0afbbe864f178037475399f64498149580d1158a941d8aed79f1a40081ce3e0330ed8cf6831112ac",
            "type": "pubkey"
          }
        }
      ],
      "hex": "01000000010000000000000000000000000000000000000000000000000000000000000000ffffffff0704ffff001d0131ffffffff0100f2052a010000004341047ffbfc938c993de8ee1376177edc3e81b68192d650cb77796c0afbbe864f178037475399f64498149580d1158a941d8aed79f1a40081ce3e0330ed8cf6831112ac00000000"
    }
  ]
}