{
  "hash": "00000000c4ceb5911cdb091e7983ba557078c4c9e2b4babb490fa84988e783c0",
  "confirmations": 49586,
  "height": 3512,
  "version": 1,
  "versionHex": "00000001",
  "merkleroot": "8e432f7691de95745cccb327d16f8f5a505c2470bea3cd08b3a0f749f4447479",
  "time": 1234110185,
  "mediantime": 1234106725,
  "nonce": 1265635642,
  "bits": "1d00ffff",
  "difficulty": 1,
  "chainwork": "00000000000000000000000000000000000000000000000000000db90db90db9",
  "nTx": 1,
  "previousblockhash": "00000000731c945178ae9f7fc84908c9d3d9256b7f44b15aa5ea21e3605c8559",
  "nextblockhash": "0000000014393b3a8f53853a4fead53cb8fa5d6002532b9ce108cb7afce4f209",
  "strippedsize": 216,
  "size": 216,
  "weight": 864,
  "tx": [
    {
      "txid": "8e432f7691de95745cccb327d16f8f5a505c2470bea3cd08b3a0f749f4447479",
      "hash": "8e432f7691de95745cccb327d16f8f5a505c2470bea3cd08b3a0f749f4447479",
      "version": 1,
      "size": 135,
      "vsize": 135,
      "weight": 540,
      "locktime": 0,
      "vin": [
        {
          "coinbase": "04ffff001d025107",
          "sequence": 4294967295
        }
      ],
      "vout": [
        {
          "value": 50.0,
          "n": 0,
          "scriptPubKey": {
            "asm": "040fc4ad8a7f8eef17c4c701aa01c8cfbde2bfdd2dc9b6660397e8f5d4a959fecd0db2fdb4261e9934a2b872e54f128080a3da0da1a1bd88dd8c7924223e09022a OP_CHECKSIG",
            "desc": "pk(040fc4ad8a7f8eef17c4c701aa01c8cfbde2bfdd2dc9b6660397e8f5d4a959fecd0db2fdb4261e9934a2b872e54f128080a3da0da1a1bd88dd8c7924223e09022a)#dcwzc4jg",
            "hex": "41040fc4ad8a7f8eef17c4c701aa01c8cfbde2bfdd2dc9b6660397e8f5d4a959fecd0db2fdb4261e9934a2b872e54f128080a3da0da1a1bd88dd8c7924223e09022aac",
            "type": "pubkey"
          }
        }
      ],
      "hex": "01000000010000000000000000000000000000000000000000000000000000000000000000ffffffff0804ffff001d025107ffffffff0100f2052a010000004341040fc4ad8a7f8eef17c4c701aa01c8cfbde2bfdd2dc9b6660397e8f5d4a959fecd0db2fdb4261e9934a2b872e54f128080a3da0da1a1bd88dd8c7924223e09022aac00000000"
    }
  ]
}