{
  "hash": "00000000c302d38b8f6e0144bd9fa64dda7a905ce476f6f49647118f0ab436e6",
  "confirmations": 48141,
  "height": 4957,
  "version": 1,
  "versionHex": "00000001",
  "merkleroot": "956d8b26378beafbfbe2fc4810057d3cd23a320767950c8089c5387a19469d4a",
  "time": 1235109943,
  "mediantime": 1235106182,
  "nonce": 442943278,
  "bits": "1d00ffff",
  "difficulty": 1,
  "chainwork": "0000000000000000000000000000000000000000000000000000135e135e135e",
  "nTx": 1,
  "previousblockhash": "000000007ea90a419346464a23a7f2fe4b2f48f9415192465563c6ca9343e45a",
  "nextblockhash": "00000000abd8c59bd611214cc5cca8a5c679267e43b09aa664eae1caa611a82f",
  "strippedsize": 216,
  "size": 216,
  "weight": 864,
  "tx": [
    {
      "txid": "956d8b26378beafbfbe2fc4810057d3cd23a320767950c8089c5387a19469d4a",
      "hash": "956d8b26378beafbfbe2fc4810057d3cd23a320767950c8089c5387a19469d4a",
      "version": 1,
      "size": 135,
      "vsize": 135,
      "weight": 540,
      "locktime": 0,
      "vin": [
        {
          "coinbase": "04ffff001d028606",
          "sequence": 4294967295
        }
      ],
      "vout": [
        {
          "value": 50.0,
          "n": 0,
          "scriptPubKey": {
            "asm": "046279df1f04184a7e61994a1ff653858a76baaaceed18993e39bf49783fca2337c7d2b43ebc3a6b4aae376f9202927905f0154a3bfa92c4ac20fa69576cda7b36 OP_CHECKSIG",
            "desc": "pk(046279df1f04184a7e61994a1ff653858a76baaaceed18993e39bf49783fca2337c7d2b43ebc3a6b4aae376f9202927905f0154a3bfa92c4ac20fa69576cda7b36)#26csjpeh",
            "hex": "41046279df1f04184a7e61994a1ff653858a76baaaceed18993e39bf49783fca2337c7d2b43ebc3a6b4aae376f9202927905f0154a3bfa92c4ac20fa69576cda7b36ac",
            "type": "pubkey"
          }
        }
      ],
      "hex": "01000000010000000000000000000000000000000000000000000000000000000000000000ffffffff0804ffff001d028606ffffffff0100f2052a010000004341046279df1f04184a7e61994a1ff653858a76baaaceed18993e39bf49783fca2337c7d2b43ebc3a6b4aae376f9202927905f0154a3bfa92c4ac20fa69576cda7b36ac00000000"
    }
  ]
}