{
  "hash": "000000008bf505f49f33af506c8a750ed8ce042f80d0fe8ab43bbc1d04c8f98b",
  "confirmations": 45767,
  "height": 7331,
  "version": 1,
  "versionHex": "00000001",
  "merkleroot": "f1033f560f3e47f600975814437dfba066fab37c8b17feb9fa4170e6c0d6dbf8",
  "time": 1236971189,
  "mediantime": 1236966198,
  "nonce": 679574793,
  "bits": "1d00ffff",
  "difficulty": 1,
  "chainwork": "00000000000000000000000000000000000000000000000000001ca41ca41ca4",
  "nTx": 1,
  "previousblockhash": "00000000ae08d138a4c79e46621c213ae9aa0e495d71b4adefa3b7061d8438f0",
  "nextblockhash": "00000000e1cb38cae3a27e65008e52e85db2ac6740d9a0cd688d3e60c63d3bf4",
  "strippedsize": 216,
  "size": 216,
  "weight": 864,
  "tx": [
    {
      "txid": "f1033f560f3e47f600975814437dfba066fab37c8b17feb9fa4170e6c0d6dbf8",
      "hash": "f1033f560f3e47f600975814437dfba066fab37c8b17feb9fa4170e6c0d6dbf8",
      "version": 1,
      "size": 135,
      "vsize": 135,
      "weight": 540,
      "locktime": 0,
      "vin": [
        {
          "coinbase": "04ffff001d022a08",
          "sequence": 4294967295
        }
      ],
      "vout": [
        {
          "value": 50.0,
          "n": 0,
          "scriptPubKey": {
            "asm": "047dfaa4e6f94e7c7b228c838aa2c73e308be11c0cdf61d5588bf271e629be20eaa858a7d8951713f2cd4bf91028f130cc4872d58e3e67c061c4fc3f874d085f1e OP_CHECKSIG",
            "desc": "pk(047dfaa4e6f94e7c7b228c838aa2c73e308be11c0cdf61d5588bf271e629be20eaa858a7d8951713f2cd4bf91028f130cc4872d58e3e67c061c4fc3f874d085f1e)#vwyq7ugn",
            "hex": "41047dfaa4e6f94e7c7b228c838aa2c73e308be11c0cdf61d5588bf271e629be20eaa858a7d8951713f2cd4bf91028f130cc4872d58e3e67c061c4fc3f874d085f1eac",
            "type": "pubkey"
          }
        }
      ],
      "hex": "01000000010000000000000000000000000000000000000000000000000000000000000000ffffffff0804ffff001d022a08ffffffff0100f2052a010000004341047dfaa4e6f94e7c7b228c838aa2c73e308be11c0cdf61d5588bf271e629be20eaa858a7d8951713f2cd4bf91028f130cc4872d58e3e67c061c4fc3f874d085f1eac00000000"
    }
  ]
}