{
  "hash": "000000005dc16ce13c7671bdaac9aed58ff0078489e578fd34c8bce3b97e15d2",
  "confirmations": 46763,
  "height": 6335,
  "version": 1,
  "versionHex": "00000001",
  "merkleroot": "7cf80a31c4a15f97a992d38835bdad029c2ccc982006112d0c8d27825595a0ee",
  "time": 1236201884,
  "mediantime": 1236197378,
  "nonce": 344922240,
  "bits": "1d00ffff",
  "difficulty": 1,
  "chainwork": "000000000000000000000000000000000000000000000000000018c018c018c0",
  "nTx": 1,
  "previousblockhash": "00000000429f3066e1963c94df6bc5b44c5c5e6dc59861c403c91efc2e6e124f",
  "nextblockhash": "00000000c4f4b5adaa1ff8e32f81d585476c4c068eb142d1a9407b04dbd2d0ad",
  "strippedsize": 216,
  "size": 216,
  "weight": 864,
  "tx": [
    {
      "txid": "7cf80a31c4a15f97a992d38835bdad029c2ccc982006112d0c8d27825595a0ee",
      "hash": "7cf80a31c4a15f97a992d38835bdad029c2ccc982006112d0c8d27825595a0ee",
      "version": 1,
      "size": 135,
      "vsize": 135,
      "weight": 540,
      "locktime": 0,
      "vin": [
        {
          "coinbase": "04ffff001d02ee00",
          "sequence": 4294967295
        }
      ],
      "vout": [
        {
          "value": 50.0,
          "n": 0,
          "scriptPubKey": {
            "asm": "040403f4d6e6880c04ba1619a86f5a548c183c601ecda05a1c840e728eed24d1df2c0a3275d2f3ec308da472bfd862b4ddc435e9c5e3f1b5edc59485aaab428866 OP_CHECKSIG",
            "desc": "pk(040403f4d6e6880c04ba1619a86f5a548c183c601ecda05a1c840e728eed24d1df2c0a3275d2f3ec308da472bfd862b4ddc435e9c5e3f1b5edc59485aaab428866)#e8wsnmyf",
            "hex": "41040403f4d6e6880c04ba1619a86f5a548c183c601ecda05a1c840e728eed24d1df2c0a3275d2f3ec308da472bfd862b4ddc435e9c5e3f1b5edc59485aaab428866ac",
            "type": "pubkey"
          }
        }
      ],
      "hex": "01000000010000000000000000000000000000000000000000000000000000000000000000ffffffff0804ffff001d02ee00ffffffff0100f2052a010000004341040403f4d6e6880c04ba1619a86f5a548c183c601ecda05a1c840e728eed24d1df2c0a3275d2f3ec308da472bfd862b4ddc435e9c5e3f1b5edc59485aaab428866ac00000000"
    }
  ]
}