{
  "hash": "000000005ba013d9607fb586984c48bbb76b931be424abfc5b5be18c33df43aa",
  "confirmations": 50253,
  "height": 2845,
  "version": 1,
  "versionHex": "00000001",
  "merkleroot": "785390b12bbe3431f595b9b0b3c38b85b35a90c0dc617965c9e2a6f6247280c8",
  "time": 1233656267,
  "mediantime": 1233652620,
  "nonce": 135530500,
  "bits": "1d00ffff",
  "difficulty": 1,
  "chainwork": "00000000000000000000000000000000000000000000000000000b1e0b1e0b1e",
  "nTx": 1,
  "previousblockhash": "000000006615ae955110e7f027b2edbaa6ad8beab2dbf06612aa38a9e849ed95",
  "nextblockhash": "000000007b9f43b5e27860a43978f7fcba15828e2bec39588a55626982f458be",
  "strippedsize": 216,
  "size": 216,
  "weight": 864,
  "tx": [
    {
      "txid": "785390b12bbe3431f595b9b0b3c38b85b35a90c0dc617965c9e2a6f6247280c8",
      "hash": "785390b12bbe3431f595b9b0b3c38b85b35a90c0dc617965c9e2a6f6247280c8",
      "version": 1,
      "size": 135,
      "vsize": 135,
      "weight": 540,
      "locktime": 0,
      "vin": [
        {
          "coinbase": "04ffff001d023001",
          "sequence": 4294967295
        }
      ],
      "vout": [
        {
          "value": 50.0,
          "n": 0,
          "scriptPubKey": {
            "asm": "04dbda3b6ed486f6dcc2fbfa8b56471a4407f3b8b517d11c0104aa5e4a310c5cbd9e67b99f44e67690af716cd20f6456b8fad7620750597f061395362b52924fc2 OP_CHECKSIG",
            "desc": "pk(04dbda3b6ed486f6dcc2fbfa8b56471a4407f3b8b517d11c0104aa5e4a310c5cbd9e67b99f44e67690af716cd20f6456b8fad7620750597f061395362b52924fc2)#pnk88mgh",
            "hex": "4104dbda3b6ed486f6dcc2fbfa8b56471a4407f3b8b517d11c0104aa5e4a310c5cbd9e67b99f44e67690af716cd20f6456b8fad7620750597f061395362b52924fc2ac",
            "type": "pubkey"
          }
        }
      ],
      "hex": "01000000010000000000000000000000000000000000000000000000000000000000000000ffffffff0804ffff001d023001ffffffff0100f2052a01000000434104dbda3b6ed486f6dcc2fbfa8b56471a4407f3b8b517d11c0104aa5e4a310c5cbd9e67b99f44e67690af716cd20f6456b8fad7620750597f061395362b52924fc2ac00000000"
    }
  ]
}