{
  "hash": "000000003944d8d27be5a7551be4360817580a9c8a7e24fcd4bd6c1cd3df792c",
  "confirmations": 51322,
  "height": 1776,
  "version": 1,
  "versionHex": "00000001",
  "merkleroot": "e36467b3e85ecf3b9f0604379036047a997ffc3d4c2da4716ee031889440658d",
  "time": 1232886407,
  "mediantime": 1232884310,
  "nonce": 2546884919,
  "bits": "1d00ffff",
  "difficulty": 1,
  "chainwork": "000000000000000000000000000000000000000000000000000006f106f106f1",
  "nTx": 1,
  "previousblockhash": "000000008a21a11c739d3aa4ef2538253f229e196fe07a29a0200f18c6cfebc2",
  "nextblockhash": "00000000963c8d5b2459cccaa6989d10f63eaae0c34366c451f2d9a2953484d3",
  "strippedsize": 216,
  "size": 216,
  "weight": 864,
  "tx": [
    {
      "txid": "e36467b3e85ecf3b9f0604379036047a997ffc3d4c2da4716ee031889440658d",
      "hash": "e36467b3e85ecf3b9f0604379036047a997ffc3d4c2da4716ee031889440658d",
      "version": 1,
      "size": 135,
      "vsize": 135,
      "weight": 540,
      "locktime": 0,
      "vin": [
        {
          "coinbase": "04ffff001d02b003",
          "sequence": 4294967295
        }
      ],
      "vout": [
        {
          "value": 50.0,
          "n": 0,
          "scriptPubKey": {
            "asm": "043ef9f0b0f0c801d8ed400654528431fd7ecb38235202667fff418345bbf8c36b411b12d092d77dba7025e2cc831006a2ddacb84115fba3735928f3d3fb1f5fe8 OP_CHECKSIG",
            "desc": "pk(043ef9f0b0f0c801d8ed400654528431fd7ecb38235202667fff418345bbf8c36b411b12d092d77dba7025e2cc831006a2ddacb84115fba3735928f3d3fb1f5fe8)#x28ztmnw",
            "hex": "41043ef9f0b0f0c801d8ed400654528431fd7ecb38235202667fff418345bbf8c36b411b12d092d77dba7025e2cc831006a2ddacb84115fba3735928f3d3fb1f5fe8ac",
            "type": "pubkey"
          }
        }
      ],
      "hex": "01000000010000000000000000000000000000000000000000000000000000000000000000ffffffff0804ffff001d02b003ffffffff0100f2052a010000004341043ef9f0b0f0c801d8ed400654528431fd7ecb38235202667fff418345bbf8c36b411b12d092d77dba7025e2cc831006a2ddacb84115fba3735928f3d3fb1f5fe8ac00000000"
    }
  ]
}