{
  "hash": "0000000071add5efd47ec95c09f0eb33f488a122dacabcf0fdf6a29eb9d496cc",
  "confirmations": 49539,
  "height": 3559,
  "version": 1,
  "versionHex": "00000001",
  "merkleroot": "2752928e128dfe733294db90d8fe025d657408435c7a30e87a0da8c9522fad23",
  "time": 1234143737,
  "mediantime": 1234139695,
  "nonce": 452356148,
  "bits": "1d00ffff",
  "difficulty": 1,
  "chainwork": "00000000000000000000000000000000000000000000000000000de80de80de8",
  "nTx": 1,
  "previousblockhash": "000000006e432237ce5e8ba21746594215d84e75659ed41fe065c9bf14bc04f8",
  "nextblockhash": "0000000072a28560ea6d957b2966a9cccdaa1846bccd2d07b10509de84f6f270",
  "strippedsize": 216,
  "size": 216,
  "weight": 864,
  "tx": [
    {
      "txid": "2752928e128dfe733294db90d8fe025d657408435c7a30e87a0da8c9522fad23",
      "hash": "2752928e128dfe733294db90d8fe025d657408435c7a30e87a0da8c9522fad23",
      "version": 1,
      "size": 135,
      "vsize": 135,
      "weight": 540,
      "locktime": 0,
      "vin": [
        {
          "coinbase": "04ffff001d021908",
          "sequence": 4294967295
        }
      ],
      "vout": [
        {
          "value": 50.0,
          "n": 0,
          "scriptPubKey": {
            "asm": "045fd6cd3435709b44daa68b1dbd065baeee5fc116782db05acb866e2b07408023b6228bc00402c46eebaeed02406b22efbf781ad965185bc0e32e9e19f1e48fe2 OP_CHECKSIG",
            "desc": "pk(045fd6cd3435709b44daa68b1dbd065baeee5fc116782db05acb866e2b07408023b6228bc00402c46eebaeed02406b22efbf781ad965185bc0e32e9e19f1e48fe2)#2npe2rnk",
            "hex": "41045fd6cd3435709b44daa68b1dbd065baeee5fc116782db05acb866e2b07408023b6228bc00402c46eebaeed02406b22efbf781ad965185bc0e32e9e19f1e48fe2ac",
            "type": "pubkey"
          }
        }
      ],
      "hex": "01000000010000000000000000000000000000000000000000000000000000000000000000ffffffff0804ffff001d021908ffffffff0100f2052a010000004341045fd6cd3435709b44daa68b1dbd065baeee5fc116782db05acb866e2b07408023b6228bc00402c46eebaeed02406b22efbf781ad965185bc0e32e9e19f1e48fe2ac00000000"
    }
  ]
}