{
  "hash": "000000008334c87587ab658302ff35a49a8c91e7104e61f1f1641961add38197",
  "confirmations": 47075,
  "height": 6023,
  "version": 1,
  "versionHex": "00000001",
  "merkleroot": "c5ba52423f5cca2e9d5f804c6c3bccd53b039df40b0a7ff52cec0b41be8e2f14",
  "time": 1235946954,
  "mediantime": 1235941505,
  "nonce": 1529380,
  "bits": "1d00ffff",
  "difficulty": 1,
  "chainwork": "0000000000000000000000000000000000000000000000000000178817881788",
  "nTx": 1,
  "previousblockhash": "000000003e32e0b3451e82be69c7118d337efacf5e58402246b88507b8bf8948",
  "nextblockhash": "00000000f1969a8d7c5bf8aa05dd5395abe392806655b798bd4973322eaa47db",
  "strippedsize": 216,
  "size": 216,
  "weight": 864,
  "tx": [
    {
      "txid": "c5ba52423f5cca2e9d5f804c6c3bccd53b039df40b0a7ff52cec0b41be8e2f14",
      "hash": "c5ba52423f5cca2e9d5f804c6c3bccd53b039df40b0a7ff52cec0b41be8e2f14",
      "version": 1,
      "size": 135,
      "vsize": 135,
      "weight": 540,
      "locktime": 0,
      "vin": [
        {
          "coinbase": "04ffff001d026005",
          "sequence": 4294967295
        }
      ],
      "vout": [
        {
          "value": 50.0,
          "n": 0,
          "scriptPubKey": {
            "asm": "04b9d4ac9dc4e9ed30f1959e6753c49d134b566a5d84fd3a0c59c187acf5a597acfc67de23092b9d85da78188ed699ff37abfcbe87026679e57dfe16bd755c36c0 OP_CHECKSIG",
            "desc": "pk(04b9d4ac9dc4e9ed30f1959e6753c49d134b566a5d84fd3a0c59c187acf5a597acfc67de23092b9d85da78188ed699ff37abfcbe87026679e57dfe16bd755c36c0)#gshcvecs",
            "hex": "4104b9d4ac9dc4e9ed30f1959e6753c49d134b566a5d84fd3a0c59c187acf5a597acfc67de23092b9d85da78188ed699ff37abfcbe87026679e57dfe16bd755c36c0ac",
            "type": "pubkey"
          }
        }
      ],
      "hex": "01000000010000000000000000000000000000000000000000000000000000000000000000ffffffff0804ffff001d026005ffffffff0100f2052a01000000434104b9d4ac9dc4e9ed30f1959e6753c49d134b566a5d84fd3a0c59c187acf5a597acfc67de23092b9d85da78188ed699ff37abfcbe87026679e57dfe16bd755c36c0ac00000000"
    }
  ]
}