{
  "hash": "0000000072ec09be6118d66d07ac61dfb7a2ab0220551fdc7af8d6002d1ee069",
  "confirmations": 52545,
  "height": 553,
  "version": 1,
  "versionHex": "00000001",
  "merkleroot": "ad2aba5436fafbde53bb31735f887120b2f9a03d6121df470f87a4ea44d55bd6",
  "time": 1232005462,
  "mediantime": 1232001087,
  "nonce": 2540592435,
  "bits": "1d00ffff",
  "difficulty": 1,
  "chainwork": "0000000000000000000000000000000000000000000000000000022a022a022a",
  "nTx": 1,
  "previousblockhash": "00000000831221df37f3b36c369bba5af97fd96a8f94648770c40ccb13620aee",
  "nextblockhash": "000000004f59cfa9f6e7238eb92ada0beab8fee7a4ed5f9f1e7a72232c0dc379",
  "strippedsize": 216,
  "size": 216,
  "weight": 864,
  "tx": [
    {
      "txid": "ad2aba5436fafbde53bb31735f887120b2f9a03d6121df470f87a4ea44d55bd6",
      "hash": "ad2aba5436fafbde53bb31735f887120b2f9a03d6121df470f87a4ea44d55bd6",
      "version": 1,
      "size": 135,
      "vsize": 135,
      "weight": 540,
      "locktime": 0,
      "vin": [
        {
          "coinbase": "04ffff001d02c105",
          "sequence": 4294967295
        }
      ],
      "vout": [
        {
          "value": 50.0,
          "n": 0,
          "scriptPubKey": {
            "asm": "0403581959223ec3b36ec87dcf7c3eb9842055b786f4dd8d09b346f0fa61e25736db3948f42b06907770538d2df9a44bc9bf8e3fe3e1f1ecf0316e88bb717ceea0 OP_CHECKSIG",
            "desc": "pk(0403581959223ec3b36ec87dcf7c3eb9842055b786f4dd8d09b346f0fa61e25736db3948f42b06907770538d2df9a44bc9bf8e3fe3e1f1ecf0316e88bb717ceea0)#djfvfu9j",
            "hex": "410403581959223ec3b36ec87dcf7c3eb9842055b786f4dd8d09b346f0fa61e25736db3948f42b06907770538d2df9a44bc9bf8e3fe3e1f1ecf0316e88bb717ceea0ac",
            "type": "pubkey"
          }
        }
      ],
      "hex": "01000000010000000000000000000000000000000000000000000000000000000000000000ffffffff0804ffff001d02c105ffffffff0100f2052a0100000043410403581959223ec3b36ec87dcf7c3eb9842055b786f4dd8d09b346f0fa61e25736db3948f42b06907770538d2df9a44bc9bf8e3fe3e1f1ecf0316e88bb717ceea0ac00000000"
    }
  ]
}