{
  "hash": "00000000f1bb9811fec52b698e65498416cfa52d93eb44c351ae8f54538d4f77",
  "confirmations": 47941,
  "height": 5157,
  "version": 1,
  "versionHex": "00000001",
  "merkleroot": "1f14ef9c48b3bea62b4eef9c0876093e505cf4aee87beb69ede2b23890a10f3e",
  "time": 1235258092,
  "mediantime": 1235254468,
  "nonce": 2419631126,
  "bits": "1d00ffff",
  "difficulty": 1,
  "chainwork": "0000000000000000000000000000000000000000000000000000142614261426",
  "nTx": 1,
  "previousblockhash": "000000006b411f1961e50e71f092217bfac4ec65fc62345db35fc69494db3ad3",
  "nextblockhash": "0000000019865062c94b143bbcdfa77223bf81045373206ed642db588c31c573",
  "strippedsize": 216,
  "size": 216,
  "weight": 864,
  "tx": [
    {
      "txid": "1f14ef9c48b3bea62b4eef9c0876093e505cf4aee87beb69ede2b23890a10f3e",
      "hash": "1f14ef9c48b3bea62b4eef9c0876093e505cf4aee87beb69ede2b23890a10f3e",
      "version": 1,
      "size": 135,
      "vsize": 135,
      "weight": 540,
      "locktime": 0,
      "vin": [
        {
          "coinbase": "04ffff001d020e0a",
          "sequence": 4294967295
        }
      ],
      "vout": [
        {
          "value": 50.0,
          "n": 0,
          "scriptPubKey": {
            "asm": "045ed0ece536e034a1e4ab0ab4a21bdd5f4094a22d56f217fcf1b748248c68e935e634cd957157eba6e67c310a9325e17a3d6789e8e532f288b322aef3f24c0a7b OP_CHECKSIG",
            "desc": "pk(045ed0ece536e034a1e4ab0ab4a21bdd5f4094a22d56f217fcf1b748248c68e935e634cd957157eba6e67c310a9325e17a3d6789e8e532f288b322aef3f24c0a7b)#3qka3wku",
            "hex": "41045ed0ece536e034a1e4ab0ab4a21bdd5f4094a22d56f217fcf1b748248c68e935e634cd957157eba6e67c310a9325e17a3d6789e8e532f288b322aef3f24c0a7bac",
            "type": "pubkey"
          }
        }
      ],
      "hex": "01000000010000000000000000000000000000000000000000000000000000000000000000ffffffff0804ffff001d020e0affffffff0100f2052a010000004341045ed0ece536e034a1e4ab0ab4a21bdd5f4094a22d56f217fcf1b748248c68e935e634cd957157eba6e67c310a9325e17a3d6789e8e532f288b322aef3f24c0a7bac00000000"
    }
  ]
}