{
  "hash": "0000000086980b604dbbb98eb75b8a897d0b7c96389122ac1cea52866a3ef5d8",
  "confirmations": 51122,
  "height": 1976,
  "version": 1,
  "versionHex": "00000001",
  "merkleroot": "208c1b3184560bd98249c6b1cd0b4947944958f5e6996a1e06fdef7aa558bd8a",
  "time": 1233027974,
  "mediantime": 1233024771,
  "nonce": 339072774,
  "bits": "1d00ffff",
  "difficulty": 1,
  "chainwork": "000000000000000000000000000000000000000000000000000007b907b907b9",
  "nTx": 1,
  "previousblockhash": "000000004376743ff349325f3e1d1b919848bde8133f8948fe79978d2233fdda",
  "nextblockhash": "00000000f0655b679fba1aa2d32c0885546e7183667a48a3a1328222d656881e",
  "strippedsize": 216,
  "size": 216,
  "weight": 864,
  "tx": [
    {
      "txid": "208c1b3184560bd98249c6b1cd0b4947944958f5e6996a1e06fdef7aa558bd8a",
      "hash": "208c1b3184560bd98249c6b1cd0b4947944958f5e6996a1e06fdef7aa558bd8a",
      "version": 1,
      "size": 135,
      "vsize": 135,
      "weight": 540,
      "locktime": 0,
      "vin": [
        {
          "coinbase": "04ffff001d021a01",
          "sequence": 4294967295
        }
      ],
      "vout": [
        {
          "value": 50.0,
          "n": 0,
          "scriptPubKey": {
            "asm": "048738f9c4c1c25dffb8c696505636121772f1548ba0e1c95ed76150d3490e7365423a1e6fb5e92decca1b74ce07d6cfc494aa7e99d4fe25df2cc8a0fcd1857b36 OP_CHECKSIG",
            "desc": "pk(048738f9c4c1c25dffb8c696505636121772f1548ba0e1c95ed76150d3490e7365423a1e6fb5e92decca1b74ce07d6cfc494aa7e99d4fe25df2cc8a0fcd1857b36)#2hd5daxw",
            "hex": "41048738f9c4c1c25dffb8c696505636121772f1548ba0e1c95ed76150d3490e7365423a1e6fb5e92decca1b74ce07d6cfc494aa7e99d4fe25df2cc8a0fcd1857b36ac",
            "type": "pubkey"
          }
        }
      ],
      "hex": "01000000010000000000000000000000000000000000000000000000000000000000000000ffffffff0804ffff001d021a01ffffffff0100f2052a010000004341048738f9c4c1c25dffb8c696505636121772f1548ba0e1c95ed76150d3490e7365423a1e6fb5e92decca1b74ce07d6cfc494aa7e99d4fe25df2cc8a0fcd1857b36ac00000000"
    }
  ]
}