{
  "hash": "00000000d2600ad05e61ac036ce2260fc6ffc3fdd1180fcb1dc46a23c3f05eee",
  "confirmations": 43438,
  "height": 9660,
  "version": 1,
  "versionHex": "00000001",
  "merkleroot": "5f0c45f5f7896cb450db198ac72dd1a14c689524ba06130f91e5d41a6c0a5bdd",
  "time": 1238746376,
  "mediantime": 1238745277,
  "nonce": 1862978097,
  "bits": "1d00ffff",
  "difficulty": 1,
  "chainwork": "000000000000000000000000000000000000000000000000000025bd25bd25bd",
  "nTx": 1,
  "previousblockhash": "00000000c949a1cd4ef194f11ec32fc5f5166a94038b9c85598cbb94e9adc0d7",
  "nextblockhash": "0000000075cb04f1f16535d33ad1a5e178e571447bbce2d0778325cc7ab49fbf",
  "strippedsize": 216,
  "size": 216,
  "weight": 864,
  "tx": [
    {
      "txid": "5f0c45f5f7896cb450db198ac72dd1a14c689524ba06130f91e5d41a6c0a5bdd",
      "hash": "5f0c45f5f7896cb450db198ac72dd1a14c689524ba06130f91e5d41a6c0a5bdd",
      "version": 1,
      "size": 135,
      "vsize": 135,
      "weight": 540,
      "locktime": 0,
      "vin": [
        {
          "coinbase": "04ffff001d02cd07",
          "sequence": 4294967295
        }
      ],
      "vout": [
        {
          "value": 50.0,
          "n": 0,
          "scriptPubKey": {
            "asm": "042302007e36b1a7dfad4e338b33945fd0f5a06af18863f26b57967ce065ed45fce635049ecd3647729a13b920e496df97ce568e3955f0594c59e407644d3f0dbe OP_CHECKSIG",
            "desc": "pk(042302007e36b1a7dfad4e338b33945fd0f5a06af18863f26b57967ce065ed45fce635049ecd3647729a13b920e496df97ce568e3955f0594c59e407644d3f0dbe)#5t0m89gd",
            "hex": "41042302007e36b1a7dfad4e338b33945fd0f5a06af18863f26b57967ce065ed45fce635049ecd3647729a13b920e496df97ce568e3955f0594c59e407644d3f0dbeac",
            "type": "pubkey"
          }
        }
      ],
      "hex": "01000000010000000000000000000000000000000000000000000000000000000000000000ffffffff0804ffff001d02cd07ffffffff0100f2052a010000004341042302007e36b1a7dfad4e338b33945fd0f5a06af18863f26b57967ce065ed45fce635049ecd3647729a13b920e496df97ce568e3955f0594c59e407644d3f0dbeac00000000"
    }
  ]
}