{
  "hash": "0000000008089f06ac82cc732939402ac8ecc10402363bf936c3b4a2cd3c60c4",
  "confirmations": 44417,
  "height": 8681,
  "version": 1,
  "versionHex": "00000001",
  "merkleroot": "626949d3aaeacaf773f9a57f3211430517be2d0d95536e1c0c673bdf7bbca6ea",
  "time": 1238012255,
  "mediantime": 1238006918,
  "nonce": 2780032035,
  "bits": "1d00ffff",
  "difficulty": 1,
  "chainwork": "000000000000000000000000000000000000000000000000000021ea21ea21ea",
  "nTx": 1,
  "previousblockhash": "0000000058ff161132d81b301c3699f6f04d87f7f4ae8b5f273c4b4b1f569e40",
  "nextblockhash": "000000007b846c476b4a2f849f237922e5878bf1a90648a0e1d9ffdd5dee62e8",
  "strippedsize": 216,
  "size": 216,
  "weight": 864,
  "tx": [
    {
      "txid": "626949d3aaeacaf773f9a57f3211430517be2d0d95536e1c0c673bdf7bbca6ea",
      "hash": "626949d3aaeacaf773f9a57f3211430517be2d0d95536e1c0c673bdf7bbca6ea",
      "version": 1,
      "size": 135,
      "vsize": 135,
      "weight": 540,
      "locktime": 0,
      "vin": [
        {
          "coinbase": "04ffff001d02a000",
          "sequence": 4294967295
        }
      ],
      "vout": [
        {
          "value": 50.0,
          "n": 0,
          "scriptPubKey": {
            "asm": "0428c02031bd5446f8c6d2505481dd07ebfae146696b2311d3a0ea1ddc136a340aabebc22f8b5b26e4cd805dbdc1d22fc75bb6e247467f4c279341b861837d4c93 OP_CHECKSIG",
            "desc": "pk(0428c02031bd5446f8c6d2505481dd07ebfae146696b2311d3a0ea1ddc136a340aabebc22f8b5b26e4cd805dbdc1d22fc75bb6e247467f4c279341b861837d4c93)#mac2rmsn",
            "hex": "410428c02031bd5446f8c6d2505481dd07ebfae146696b2311d3a0ea1ddc136a340aabebc22f8b5b26e4cd805dbdc1d22fc75bb6e247467f4c279341b861837d4c93ac",
            "type": "pubkey"
          }
        }
      ],
      "hex": "01000000010000000000000000000000000000000000000000000000000000000000000000ffffffff0804ffff001d02a000ffffffff0100f2052a0100000043410428c02031bd5446f8c6d2505481dd07ebfae146696b2311d3a0ea1ddc136a340aabebc22f8b5b26e4cd805dbdc1d22fc75bb6e247467f4c279341b861837d4c93ac00000000"
    }
  ]
}