{
  "hash": "000000002e96d6922386ad02d993fdb358d898b5e71b73cd01b156616e939f20",
  "confirmations": 44679,
  "height": 8419,
  "version": 1,
  "versionHex": "00000001",
  "merkleroot": "8ba997c03ee91f6610d61130d2ef2e8d199a67c0925816f1ac8e1dd733a86386",
  "time": 1237811783,
  "mediantime": 1237809363,
  "nonce": 3079476770,
  "bits": "1d00ffff",
  "difficulty": 1,
  "chainwork": "000000000000000000000000000000000000000000000000000020e420e420e4",
  "nTx": 1,
  "previousblockhash": "00000000fb16ca5d451ee2bfdea82f56498cd3705690d6b1d2cd08fde83cc11a",
  "nextblockhash": "0000000032a60fb0d87555f1db86bf6b12f329e7f1e110b1031cc12c44a57db9",
  "strippedsize": 216,
  "size": 216,
  "weight": 864,
  "tx": [
    {
      "txid": "8ba997c03ee91f6610d61130d2ef2e8d199a67c0925816f1ac8e1dd733a86386",
      "hash": "8ba997c03ee91f6610d61130d2ef2e8d199a67c0925816f1ac8e1dd733a86386",
      "version": 1,
      "size": 135,
      "vsize": 135,
      "weight": 540,
      "locktime": 0,
      "vin": [
        {
          "coinbase": "04ffff001d025906",
          "sequence": 4294967295
        }
      ],
      "vout": [
        {
          "value": 50.0,
          "n": 0,
          "scriptPubKey": {
            "asm": "048c10e474fa0040a87bcf3ee3f0cd78e70c22c50e5d81bbe34741f5087cb482706cb25d83835c2b113ea38265fe794aea776975138f09ea541b26abdd57856bfe OP_CHECKSIG",
            "desc": "pk(048c10e474fa0040a87bcf3ee3f0cd78e70c22c50e5d81bbe34741f5087cb482706cb25d83835c2b113ea38265fe794aea776975138f09ea541b26abdd57856bfe)#h0nk6ryf",
            "hex": "41048c10e474fa0040a87bcf3ee3f0cd78e70c22c50e5d81bbe34741f5087cb482706cb25d83835c2b113ea38265fe794aea776975138f09ea541b26abdd57856bfeac",
            "type": "pubkey"
          }
        }
      ],
      "hex": "01000000010000000000000000000000000000000000000000000000000000000000000000ffffffff0804ffff001d025906ffffffff0100f2052a010000004341048c10e474fa0040a87bcf3ee3f0cd78e70c22c50e5d81bbe34741f5087cb482706cb25d83835c2b113ea38265fe794aea776975138f09ea541b26abdd57856bfeac00000000"
    }
  ]
}