{
  "hash": "00000000ccc62f72d2e8e34c750d9ab72b6f2557d3b249b619d3e7f1860f1a32",
  "confirmations": 52089,
  "height": 246,
  "version": 1,
  "versionHex": "00000001",
  "merkleroot": "6f80ca7441710cf0942cf99e3e8aa59d38d73b124730306afeb1aec8f08fd76b",
  "time": 1231788910,
  "mediantime": 1231784201,
  "nonce": 2553069568,
  "bits": "1d00ffff",
  "difficulty": 1,
  "chainwork": "000000000000000000000000000000000000000000000000000000f700f700f7",
  "nTx": 1,
  "previousblockhash": "0000000031714f49ff442632ef45b0e7148752e7e0a6c373ef6c857093e7036f",
  "nextblockhash": "000000005fae7d3d06fc898ccdc1d9435b917dd2db63ecf0a0bc2b3f4210b831",
  "strippedsize": 216,
  "size": 216,
  "weight": 864,
  "tx": [
    {
      "txid": "6f80ca7441710cf0942cf99e3e8aa59d38d73b124730306afeb1aec8f08fd76b",
      "hash": "6f80ca7441710cf0942cf99e3e8aa59d38d73b124730306afeb1aec8f08fd76b",
      "version": 1,
      "size": 135,
      "vsize": 135,
      "weight": 540,
      "locktime": 0,
      "vin": [
        {
          "coinbase": "04ffff001d020001",
          "sequence": 4294967295
        }
      ],
      "vout": [
        {
          "value": 50.0,
          "n": 0,
          "scriptPubKey": {
            "asm": "049c2e002ba8107d67f7f9c2cad063a4a8a7f23e171c9a6b364b73ceb84ad192e61f09df6b5d073e9f9046c5627669142e4cefa3f186d4aae9f52d6f1709ce41f8 OP_CHECKSIG",
            "desc": "pk(049c2e002ba8107d67f7f9c2cad063a4a8a7f23e171c9a6b364b73ceb84ad192e61f09df6b5d073e9f9046c5627669142e4cefa3f186d4aae9f52d6f1709ce41f8)#4w3yp6pq",
            "hex": "41049c2e002ba8107d67f7f9c2cad063a4a8a7f23e171c9a6b364b73ceb84ad192e61f09df6b5d073e9f9046c5627669142e4cefa3f186d4aae9f52d6f1709ce41f8ac",
            "type": "pubkey"
          }
        }
      ],
      "hex": "01000000010000000000000000000000000000000000000000000000000000000000000000ffffffff0804ffff001d020001ffffffff0100f2052a010000004341049c2e002ba8107d67f7f9c2cad063a4a8a7f23e171c9a6b364b73ceb84ad192e61f09df6b5d073e9f9046c5627669142e4cefa3f186d4aae9f52d6f1709ce41f8ac00000000"
    }
  ]
}