{
  "hash": "00000000d70095be415933e7c2cffc5f37d754dcf9f8ba74a61651d0e0716e38",
  "confirmations": 49701,
  "height": 3397,
  "version": 1,
  "versionHex": "00000001",
  "merkleroot": "0eb5a449b42c77b0d1e47f8a4cad5a9245e0b0e1acfcb5d7ece6a1c85136300e",
  "time": 1234036286,
  "mediantime": 1234032303,
  "nonce": 53455282,
  "bits": "1d00ffff",
  "difficulty": 1,
  "chainwork": "00000000000000000000000000000000000000000000000000000d460d460d46",
  "nTx": 1,
  "previousblockhash": "000000000cb848f8776ac17bd5624aa4d5064e059d46332d113ef2e606990a2b",
  "nextblockhash": "00000000b7837cb6ac84b33fed0fd50b3b49a76baf3d80981960d8c4003bf19c",
  "strippedsize": 216,
  "size": 216,
  "weight": 864,
  "tx": [
    {
      "txid": "0eb5a449b42c77b0d1e47f8a4cad5a9245e0b0e1acfcb5d7ece6a1c85136300e",
      "hash": "0eb5a449b42c77b0d1e47f8a4cad5a9245e0b0e1acfcb5d7ece6a1c85136300e",
      "version": 1,
      "size": 135,
      "vsize": 135,
      "weight": 540,
      "locktime": 0,
      "vin": [
        {
          "coinbase": "04ffff001d02d505",
          "sequence": 4294967295
        }
      ],
      "vout": [
        {
          "value": 50.0,
          "n": 0,
          "scriptPubKey": {
            "asm": "04ff033452c16e8cde9d4d5171d232358705216834677f109f9a381a54958e9a183b1f8ecf157d8030138e6e2af4daf91f1fc69ad4666ee8e4cec13b5addbaeac7 OP_CHECKSIG",
            "desc": "pk(04ff033452c16e8cde9d4d5171d232358705216834677f109f9a381a54958e9a183b1f8ecf157d8030138e6e2af4daf91f1fc69ad4666ee8e4cec13b5addbaeac7)#jcqz5s4e",
            "hex": "4104ff033452c16e8cde9d4d5171d232358705216834677f109f9a381a54958e9a183b1f8ecf157d8030138e6e2af4daf91f1fc69ad4666ee8e4cec13b5addbaeac7ac",
            "type": "pubkey"
          }
        }
      ],
      "hex": "01000000010000000000000000000000000000000000000000000000000000000000000000ffffffff0804ffff001d02d505ffffffff0100f2052a01000000434104ff033452c16e8cde9d4d5171d232358705216834677f109f9a381a54958e9a183b1f8ecf157d8030138e6e2af4daf91f1fc69ad4666ee8e4cec13b5addbaeac7ac00000000"
    }
  ]
}