{
  "hash": "0000000039bad54d526624a26b4d313d1af008cce73af07662b0699ddc1f26ff",
  "confirmations": 47849,
  "height": 5249,
  "version": 1,
  "versionHex": "00000001",
  "merkleroot": "2ac8d487f021365c171dc51555465959d5b0a8c6d220272b02310f39aee02b06",
  "time": 1235321437,
  "mediantime": 1235318527,
  "nonce": 1148676381,
  "bits": "1d00ffff",
  "difficulty": 1,
  "chainwork": "0000000000000000000000000000000000000000000000000000148214821482",
  "nTx": 1,
  "previousblockhash": "000000009244eec08194c796634983e141dfb91ec317bfe20823e322f8b53b85",
  "nextblockhash": "00000000e6e89b27af3ea7484fd5c7e277ce12754bec74c2718bf5fedf5058de",
  "strippedsize": 216,
  "size": 216,
  "weight": 864,
  "tx": [
    {
      "txid": "2ac8d487f021365c171dc51555465959d5b0a8c6d220272b02310f39aee02b06",
      "hash": "2ac8d487f021365c171dc51555465959d5b0a8c6d220272b02310f39aee02b06",
      "version": 1,
      "size": 135,
      "vsize": 135,
      "weight": 540,
      "locktime": 0,
      "vin": [
        {
          "coinbase": "04ffff001d022801",
          "sequence": 4294967295
        }
      ],
      "vout": [
        {
          "value": 50.0,
          "n": 0,
          "scriptPubKey": {
            "asm": "04c0770c8ee3c45778911a2f4a42901ae20b53d13f12851488f7226709e0deaaa55c628ea8691cf93fed5b9cdbf4e02dfbdb111b17e21ff96f19739f947e114912 OP_CHECKSIG",
            "desc": "pk(04c0770c8ee3c45778911a2f4a42901ae20b53d13f12851488f7226709e0deaaa55c628ea8691cf93fed5b9cdbf4e02dfbdb111b17e21ff96f19739f947e114912)#7h6j9hvr",
            "hex": "4104c0770c8ee3c45778911a2f4a42901ae20b53d13f12851488f7226709e0deaaa55c628ea8691cf93fed5b9cdbf4e02dfbdb111b17e21ff96f19739f947e114912ac",
            "type": "pubkey"
          }
        }
      ],
      "hex": "01000000010000000000000000000000000000000000000000000000000000000000000000ffffffff0804ffff001d022801ffffffff0100f2052a01000000434104c0770c8ee3c45778911a2f4a42901ae20b53d13f12851488f7226709e0deaaa55c628ea8691cf93fed5b9cdbf4e02dfbdb111b17e21ff96f19739f947e114912ac00000000"
    }
  ]
}