{
  "hash": "000000007f52c47486c9fa848a14371db3d2698079c75124ea474df9e4eb8cb2",
  "confirmations": 44572,
  "height": 8526,
  "version": 1,
  "versionHex": "00000001",
  "merkleroot": "761482a40689d5d94ff697e53bd7899f8c2d5d231adf5e68fd64559edf24c755",
  "time": 1237893530,
  "mediantime": 1237889576,
  "nonce": 1817832248,
  "bits": "1d00ffff",
  "difficulty": 1,
  "chainwork": "0000000000000000000000000000000000000000000000000000214f214f214f",
  "nTx": 1,
  "previousblockhash": "000000005885e0b90c9529da0eb8b0dea99dbe803dbd58a850f695cbd565301e",
  "nextblockhash": "00000000a4015392c9d042eba109e64e97fc3bb0f6385d7a00f523545004a53f",
  "strippedsize": 216,
  "size": 216,
  "weight": 864,
  "tx": [
    {
      "txid": "761482a40689d5d94ff697e53bd7899f8c2d5d231adf5e68fd64559edf24c755",
      "hash": "761482a40689d5d94ff697e53bd7899f8c2d5d231adf5e68fd64559edf24c755",
      "version": 1,
      "size": 135,
      "vsize": 135,
      "weight": 540,
      "locktime": 0,
      "vin": [
        {
          "coinbase": "04ffff001d022608",
          "sequence": 4294967295
        }
      ],
      "vout": [
        {
          "value": 50.0,
          "n": 0,
          "scriptPubKey": {
            "asm": "04c2265cd5b8935d1ab2fafd72387b0c1545917a14ebc2495f85ca72e185d6ea534c12d72d774f3393c44fd3e4dfb384db8afaddf1ff0d4b9c060ebc50b33b6409 OP_CHECKSIG",
            "desc": "pk(04c2265cd5b8935d1ab2fafd72387b0c1545917a14ebc2495f85ca72e185d6ea534c12d72d774f3393c44fd3e4dfb384db8afaddf1ff0d4b9c060ebc50b33b6409)#ucc8w2p5",
            "hex": "4104c2265cd5b8935d1ab2fafd72387b0c1545917a14ebc2495f85ca72e185d6ea534c12d72d774f3393c44fd3e4dfb384db8afaddf1ff0d4b9c060ebc50b33b6409ac",
            "type": "pubkey"
          }
        }
      ],
      "hex": "01000000010000000000000000000000000000000000000000000000000000000000000000ffffffff0804ffff001d022608ffffffff0100f2052a01000000434104c2265cd5b8935d1ab2fafd72387b0c1545917a14ebc2495f85ca72e185d6ea534c12d72d774f3393c44fd3e4dfb384db8afaddf1ff0d4b9c060ebc50b33b6409ac00000000"
    }
  ]
}