{
  "hash": "0000000071350772f98f84babf35502b33d42ee8466d3dde0f376c4120352081",
  "confirmations": 51803,
  "height": 27,
  "version": 1,
  "versionHex": "00000001",
  "merkleroot": "230cf03a6ce420eaa42e3c64feebb47920f3470efb4323b4574b4b6e5a004f65",
  "time": 1231570573,
  "mediantime": 1231567467,
  "nonce": 3012316214,
  "bits": "1d00ffff",
  "difficulty": 1,
  "chainwork": "0000000000000000000000000000000000000000000000000000001c001c001c",
  "nTx": 1,
  "previousblockhash": "0000000041438e52d25bccab8798a92cabafdaad69a071d3d2a41718faf01098",
  "nextblockhash": "00000000bb0d9430d3d1bab474be5050342161efcca9f7e45b151bff9a700944",
  "strippedsize": 215,
  "size": 215,
  "weight": 860,
  "tx": [
    {
      "txid": "230cf03a6ce420eaa42e3c64feebb47920f3470efb4323b4574b4b6e5a004f65",
      "hash": "230cf03a6ce420eaa42e3c64feebb47920f3470efb4323b4574b4b6e5a004f65",
      "version": 1,
      "size": 134,
      "vsize": 134,
      "weight": 536,
      "locktime": 0,
      "vin": [
        {
          "coinbase": "04ffff001d0110",
          "sequence": 4294967295
        }
      ],
      "vout": [
        {
          "value": 50.0,
          "n": 0,
          "scriptPubKey": {
            "asm": "04a43f4de451f220ee2606ed79883797000e57a17ad8d418eb2de21339a045fd1e399953a0b9474b2e1fa510696c1eb4812dcd0ea4fda1932344bbd914f52e4e2f OP_CHECKSIG",
            "desc": "pk(04a43f4de451f220ee2606ed79883797000e57a17ad8d418eb2de21339a045fd1e399953a0b9474b2e1fa510696c1eb4812dcd0ea4fda1932344bbd914f52e4e2f)#ufmxux7c",
            "hex": "4104a43f4de451f220ee2606ed79883797000e57a17ad8d418eb2de21339a045fd1e399953a0b9474b2e1fa510696c1eb4812dcd0ea4fda1932344bbd914f52e4e2fac",
            "type": "pubkey"
          }
        }
      ],
      "hex": "01000000010000000000000000000000000000000000000000000000000000000000000000ffffffff0704ffff001d0110ffffffff0100f2052a01000000434104a43f4de451f220ee2606ed79883797000e57a17ad8d418eb2de21339a045fd1e399953a0b9474b2e1fa510696c1eb4812dcd0ea4fda1932344bbd914f52e4e2fac00000000"
    }
  ]
}