{
  "hash": "000000002f38afb1f789c456dbb17a86305252aef07fe850f91bc8aeb97163fe",
  "confirmations": 43324,
  "height": 9774,
  "version": 1,
  "versionHex": "00000001",
  "merkleroot": "5879534531d3147987837a75f5970643b5408ce7d5c81fed769ddcf1cb2a312b",
  "time": 1238837447,
  "mediantime": 1238833048,
  "nonce": 1706623233,
  "bits": "1d00ffff",
  "difficulty": 1,
  "chainwork": "0000000000000000000000000000000000000000000000000000262f262f262f",
  "nTx": 1,
  "previousblockhash": "000000001d3b956fdb37433fa326005ca53162f7a9ac1afb26afd09dce24454d",
  "nextblockhash": "00000000772098ea65f8e416b61d0a6961be640e203bc73c8b1a8381280679fe",
  "strippedsize": 216,
  "size": 216,
  "weight": 864,
  "tx": [
    {
      "txid": "5879534531d3147987837a75f5970643b5408ce7d5c81fed769ddcf1cb2a312b",
      "hash": "5879534531d3147987837a75f5970643b5408ce7d5c81fed769ddcf1cb2a312b",
      "version": 1,
      "size": 135,
      "vsize": 135,
      "weight": 540,
      "locktime": 0,
      "vin": [
        {
          "coinbase": "04ffff001d02240a",
          "sequence": 4294967295
        }
      ],
      "vout": [
        {
          "value": 50.0,
          "n": 0,
          "scriptPubKey": {
            "asm": "040fe372781cc154f172773b06cc20fe3443ee0866e16b7e406898982a6a599ebde9e0fecfcaeafdfcf87a10797d3448f517a03567be5e2e204fc73066d8515f91 OP_CHECKSIG",
            "desc": "pk(040fe372781cc154f172773b06cc20fe3443ee0866e16b7e406898982a6a599ebde9e0fecfcaeafdfcf87a10797d3448f517a03567be5e2e204fc73066d8515f91)#kuy6vk4e",
            "hex": "41040fe372781cc154f172773b06cc20fe3443ee0866e16b7e406898982a6a599ebde9e0fecfcaeafdfcf87a10797d3448f517a03567be5e2e204fc73066d8515f91ac",
            "type": "pubkey"
          }
        }
      ],
      "hex": "01000000010000000000000000000000000000000000000000000000000000000000000000ffffffff0804ffff001d02240affffffff0100f2052a010000004341040fe372781cc154f172773b06cc20fe3443ee0866e16b7e406898982a6a599ebde9e0fecfcaeafdfcf87a10797d3448f517a03567be5e2e204fc73066d8515f91ac00000000"
    }
  ]
}