{
  "hash": "00000000aa830f284d61b97fe7eb2ef91b1f0fccae0a5c1ec70e965f98e40f70",
  "confirmations": 45306,
  "height": 7792,
  "version": 1,
  "versionHex": "00000001",
  "merkleroot": "b278e9ca91d4a2836d70c88c01f0ca2ea41dc823f75941acc7919e3f8af23c27",
  "time": 1237306278,
  "mediantime": 1237302684,
  "nonce": 507649818,
  "bits": "1d00ffff",
  "difficulty": 1,
  "chainwork": "00000000000000000000000000000000000000000000000000001e711e711e71",
  "nTx": 1,
  "previousblockhash": "0000000023bff7235b69a00f98b96cd0133ff60527314c777dc98e0ebed3e03b",
  "nextblockhash": "000000003d7356f9f87066345cf9ca69091a0a5a3fd5bb812baf6b032dbbf34b",
  "strippedsize": 216,
  "size": 216,
  "weight": 864,
  "tx": [
    {
      "txid": "b278e9ca91d4a2836d70c88c01f0ca2ea41dc823f75941acc7919e3f8af23c27",
      "hash": "b278e9ca91d4a2836d70c88c01f0ca2ea41dc823f75941acc7919e3f8af23c27",
      "version": 1,
      "size": 135,
      "vsize": 135,
      "weight": 540,
      "locktime": 0,
      "vin": [
        {
          "coinbase": "04ffff001d02a005",
          "sequence": 4294967295
        }
      ],
      "vout": [
        {
          "value": 50.0,
          "n": 0,
          "scriptPubKey": {
            "asm": "044bea0e8ad8ccf49f2797b78088e9118669f3f7cafe429968e08203bf01e4c175b12303d97636393c71ed4107db404616966dc4430c4187c121bb9263efa4f3e7 OP_CHECKSIG",
            "desc": "pk(044bea0e8ad8ccf49f2797b78088e9118669f3f7cafe429968e08203bf01e4c175b12303d97636393c71ed4107db404616966dc4430c4187c121bb9263efa4f3e7)#cj9dyn06",
            "hex": "41044bea0e8ad8ccf49f2797b78088e9118669f3f7cafe429968e08203bf01e4c175b12303d97636393c71ed4107db404616966dc4430c4187c121bb9263efa4f3e7ac",
            "type": "pubkey"
          }
        }
      ],
      "hex": "01000000010000000000000000000000000000000000000000000000000000000000000000ffffffff0804ffff001d02a005ffffffff0100f2052a010000004341044bea0e8ad8ccf49f2797b78088e9118669f3f7cafe429968e08203bf01e4c175b12303d97636393c71ed4107db404616966dc4430c4187c121bb9263efa4f3e7ac00000000"
    }
  ]
}