{
  "hash": "000000001e8e2046288d542c5cc9ae27dbb6b4fefcb1efb658329654a74edc6c",
  "confirmations": 44054,
  "height": 9044,
  "version": 1,
  "versionHex": "00000001",
  "merkleroot": "219f1a360c8cd2ccc8712840dc52631e7e742009e3118580ce33891be74717b1",
  "time": 1238284996,
  "mediantime": 1238281469,
  "nonce": 1298218790,
  "bits": "1d00ffff",
  "difficulty": 1,
  "chainwork": "0000000000000000000000000000000000000000000000000000235523552355",
  "nTx": 1,
  "previousblockhash": "000000000cf3061f468f2160750c6b45f0de38d76fbfe132c735ae851c9996e8",
  "nextblockhash": "000000000f5ec0f4106f0302f9302cad7da39c5bd7a1e0b88c411d730047be2a",
  "strippedsize": 216,
  "size": 216,
  "weight": 864,
  "tx": [
    {
      "txid": "219f1a360c8cd2ccc8712840dc52631e7e742009e3118580ce33891be74717b1",
      "hash": "219f1a360c8cd2ccc8712840dc52631e7e742009e3118580ce33891be74717b1",
      "version": 1,
      "size": 135,
      "vsize": 135,
      "weight": 540,
      "locktime": 0,
      "vin": [
        {
          "coinbase": "04ffff001d023007",
          "sequence": 4294967295
        }
      ],
      "vout": [
        {
          "value": 50.0,
          "n": 0,
          "scriptPubKey": {
            "asm": "0446a1f2fa4e41759dc3c31357b9684c6f43c7a14c5713007e1308c6051ea90734e0c8f7b8ba5c7105406d9bed4c5ca4ad9af94df555f7f147615261d5a9776146 OP_CHECKSIG",
            "desc": "pk(0446a1f2fa4e41759dc3c31357b9684c6f43c7a14c5713007e1308c6051ea90734e0c8f7b8ba5c7105406d9bed4c5ca4ad9af94df555f7f147615261d5a9776146)#vtnvpfqy",
            "hex": "410446a1f2fa4e41759dc3c31357b9684c6f43c7a14c5713007e1308c6051ea90734e0c8f7b8ba5c7105406d9bed4c5ca4ad9af94df555f7f147615261d5a9776146ac",
            "type": "pubkey"
          }
        }
      ],
      "hex": "01000000010000000000000000000000000000000000000000000000000000000000000000ffffffff0804ffff001d023007ffffffff0100f2052a0100000043410446a1f2fa4e41759dc3c31357b9684c6f43c7a14c5713007e1308c6051ea90734e0c8f7b8ba5c7105406d9bed4c5ca4ad9af94df555f7f147615261d5a9776146ac00000000"
    }
  ]
}