{
  "hash": "00000000d13d438d86345ef8e2f72bd5b63007dadbbd6390d6333e33daab14c6",
  "confirmations": 45402,
  "height": 7696,
  "version": 1,
  "versionHex": "00000001",
  "merkleroot": "487600ef3ec73dc0d4cbcf5c5493a104a7e496d5a9f07b5e86265cf07bfe2a75",
  "time": 1237237474,
  "mediantime": 1237233253,
  "nonce": 1123435806,
  "bits": "1d00ffff",
  "difficulty": 1,
  "chainwork": "00000000000000000000000000000000000000000000000000001e111e111e11",
  "nTx": 1,
  "previousblockhash": "00000000ab8187cbc09be260f545b5698f447035e4495e86c82ee38a223fb777",
  "nextblockhash": "000000001c5df40d83ecddc84084e23c1ddc4b9008ebeb18eb62f7da38355402",
  "strippedsize": 216,
  "size": 216,
  "weight": 864,
  "tx": [
    {
      "txid": "487600ef3ec73dc0d4cbcf5c5493a104a7e496d5a9f07b5e86265cf07bfe2a75",
      "hash": "487600ef3ec73dc0d4cbcf5c5493a104a7e496d5a9f07b5e86265cf07bfe2a75",
      "version": 1,
      "size": 135,
      "vsize": 135,
      "weight": 540,
      "locktime": 0,
      "vin": [
        {
          "coinbase": "04ffff001d021a04",
          "sequence": 4294967295
        }
      ],
      "vout": [
        {
          "value": 50.0,
          "n": 0,
          "scriptPubKey": {
            "asm": "042097c7e03e3dfad17f85d9965fef2db4db0d13be5b15afa3720a8659975b0d742645727b5052363350f1a60448f4c5881c2c8db6e1f6437495c2f214fc4e3a16 OP_CHECKSIG",
            "desc": "pk(042097c7e03e3dfad17f85d9965fef2db4db0d13be5b15afa3720a8659975b0d742645727b5052363350f1a60448f4c5881c2c8db6e1f6437495c2f214fc4e3a16)#qlp36cmm",
            "hex": "41042097c7e03e3dfad17f85d9965fef2db4db0d13be5b15afa3720a8659975b0d742645727b5052363350f1a60448f4c5881c2c8db6e1f6437495c2f214fc4e3a16ac",
            "type": "pubkey"
          }
        }
      ],
      "hex": "01000000010000000000000000000000000000000000000000000000000000000000000000ffffffff0804ffff001d021a04ffffffff0100f2052a010000004341042097c7e03e3dfad17f85d9965fef2db4db0d13be5b15afa3720a8659975b0d742645727b5052363350f1a60448f4c5881c2c8db6e1f6437495c2f214fc4e3a16ac00000000"
    }
  ]
}