{
  "hash": "000000009a52745ee21919572ccb5bd32ea6653834301c8426428035986dbfdc",
  "confirmations": 46150,
  "height": 6948,
  "version": 1,
  "versionHex": "00000001",
  "merkleroot": "445676faac63a139d12f6d9350f64f0e4a6a1e986506d2b6b13e687a8525cf6d",
  "time": 1236679263,
  "mediantime": 1236673272,
  "nonce": 239783424,
  "bits": "1d00ffff",
  "difficulty": 1,
  "chainwork": "00000000000000000000000000000000000000000000000000001b251b251b25",
  "nTx": 1,
  "previousblockhash": "000000007bc81d57229b2a115a582b2b439d9d8ca7d0ba6cbde2c3bb1c3079e6",
  "nextblockhash": "00000000c6f2a1a380f2c9e922ab178f3d864d0417a8667ccfea5f4f6760a232",
  "strippedsize": 216,
  "size": 216,
  "weight": 864,
  "tx": [
    {
      "txid": "445676faac63a139d12f6d9350f64f0e4a6a1e986506d2b6b13e687a8525cf6d",
      "hash": "445676faac63a139d12f6d9350f64f0e4a6a1e986506d2b6b13e687a8525cf6d",
      "version": 1,
      "size": 135,
      "vsize": 135,
      "weight": 540,
      "locktime": 0,
      "vin": [
        {
          "coinbase": "04ffff001d024e01",
          "sequence": 4294967295
        }
      ],
      "vout": [
        {
          "value": 50.0,
          "n": 0,
          "scriptPubKey": {
            "asm": "048834913b2e93249f4c88ca7223a27fd8fd8bec4eaa7013b8460a39150d6bfc3511f2df2c75b1989924796fb37f2fce96be9df5180a70b5f6afad7ae10a8dcd5f OP_CHECKSIG",
            "desc": "pk(048834913b2e93249f4c88ca7223a27fd8fd8bec4eaa7013b8460a39150d6bfc3511f2df2c75b1989924796fb37f2fce96be9df5180a70b5f6afad7ae10a8dcd5f)#xkuz0lm6",
            "hex": "41048834913b2e93249f4c88ca7223a27fd8fd8bec4eaa7013b8460a39150d6bfc3511f2df2c75b1989924796fb37f2fce96be9df5180a70b5f6afad7ae10a8dcd5fac",
            "type": "pubkey"
          }
        }
      ],
      "hex": "01000000010000000000000000000000000000000000000000000000000000000000000000ffffffff0804ffff001d024e01ffffffff0100f2052a010000004341048834913b2e93249f4c88ca7223a27fd8fd8bec4eaa7013b8460a39150d6bfc3511f2df2c75b1989924796fb37f2fce96be9df5180a70b5f6afad7ae10a8dcd5fac00000000"
    }
  ]
}