{
  "hash": "00000000acdfcd699a667d7089a912e5fe83d7cf9e465512b8491f51452e5308",
  "confirmations": 51137,
  "height": 1961,
  "version": 1,
  "versionHex": "00000001",
  "merkleroot": "2b6efc0af218de2882edf8300debd396bb1c40e8c85a6f3d4e121d2b5307c9b6",
  "time": 1233018069,
  "mediantime": 1233012526,
  "nonce": 1208482602,
  "bits": "1d00ffff",
  "difficulty": 1,
  "chainwork": "000000000000000000000000000000000000000000000000000007aa07aa07aa",
  "nTx": 1,
  "previousblockhash": "00000000c362f74664af60d2dd1841a9151c81eee7f61fe9efb67d3e4ca15dbc",
  "nextblockhash": "000000000354f5855e16e6079550d4a6ec7338afc03fea201102fea5669f20d3",
  "strippedsize": 216,
  "size": 216,
  "weight": 864,
  "tx": [
    {
      "txid": "2b6efc0af218de2882edf8300debd396bb1c40e8c85a6f3d4e121d2b5307c9b6",
      "hash": "2b6efc0af218de2882edf8300debd396bb1c40e8c85a6f3d4e121d2b5307c9b6",
      "version": 1,
      "size": 135,
      "vsize": 135,
      "weight": 540,
      "locktime": 0,
      "vin": [
        {
          "coinbase": "04ffff001d02c700",
          "sequence": 4294967295
        }
      ],
      "vout": [
        {
          "value": 50.0,
          "n": 0,
          "scriptPubKey": {
            "asm": "045e4394c1bf3983e9699687da35191993dcd6357cfd30dff610b5eb7fb256913d01ce31cf1a98a254021929ec63f5e8aa721c13db1c77781c872e1556fdb87f6b OP_CHECKSIG",
            "desc": "pk(045e4394c1bf3983e9699687da35191993dcd6357cfd30dff610b5eb7fb256913d01ce31cf1a98a254021929ec63f5e8aa721c13db1c77781c872e1556fdb87f6b)#s9hptxnu",
            "hex": "41045e4394c1bf3983e9699687da35191993dcd6357cfd30dff610b5eb7fb256913d01ce31cf1a98a254021929ec63f5e8aa721c13db1c77781c872e1556fdb87f6bac",
            "type": "pubkey"
          }
        }
      ],
      "hex": "01000000010000000000000000000000000000000000000000000000000000000000000000ffffffff0804ffff001d02c700ffffffff0100f2052a010000004341045e4394c1bf3983e9699687da35191993dcd6357cfd30dff610b5eb7fb256913d01ce31cf1a98a254021929ec63f5e8aa721c13db1c77781c872e1556fdb87f6bac00000000"
    }
  ]
}