{
  "hash": "00000000417404b256f7fb76d9b6ec6a8077536369d120ac8ad1aa246b6e9da1",
  "confirmations": 52452,
  "height": 646,
  "version": 1,
  "versionHex": "00000001",
  "merkleroot": "c10bdd9d0599fbe6e36653ec09176cac83c6e499a55592ac62f0153a4f9663d8",
  "time": 1232066137,
  "mediantime": 1232064028,
  "nonce": 1772598833,
  "bits": "1d00ffff",
  "difficulty": 1,
  "chainwork": "0000000000000000000000000000000000000000000000000000028702870287",
  "nTx": 1,
  "previousblockhash": "000000002689f3021912d78bc8d5b046d2828a75dc695905b8743222b9907a8d",
  "nextblockhash": "00000000292b0f6a658cfab5e4d69a7d5753a6fef74ced4ef82e7026042a97de",
  "strippedsize": 216,
  "size": 216,
  "weight": 864,
  "tx": [
    {
      "txid": "c10bdd9d0599fbe6e36653ec09176cac83c6e499a55592ac62f0153a4f9663d8",
      "hash": "c10bdd9d0599fbe6e36653ec09176cac83c6e499a55592ac62f0153a4f9663d8",
      "version": 1,
      "size": 135,
      "vsize": 135,
      "weight": 540,
      "locktime": 0,
      "vin": [
        {
          "coinbase": "04ffff001d025a07",
          "sequence": 4294967295
        }
      ],
      "vout": [
        {
          "value": 50.0,
          "n": 0,
          "scriptPubKey": {
            "asm": "04f3e53764f22e8b0d1e3a006756863278704319e4648b16bbaf48198232fff5320f9dc8d6b3118678c1276e6274e7c1f5f9b2773cc174364a3b500305819b7a87 OP_CHECKSIG",
            "desc": "pk(04f3e53764f22e8b0d1e3a006756863278704319e4648b16bbaf48198232fff5320f9dc8d6b3118678c1276e6274e7c1f5f9b2773cc174364a3b500305819b7a87)#vuffuvt8",
            "hex": "4104f3e53764f22e8b0d1e3a006756863278704319e4648b16bbaf48198232fff5320f9dc8d6b3118678c1276e6274e7c1f5f9b2773cc174364a3b500305819b7a87ac",
            "type": "pubkey"
          }
        }
      ],
      "hex": "01000000010000000000000000000000000000000000000000000000000000000000000000ffffffff0804ffff001d025a07ffffffff0100f2052a01000000434104f3e53764f22e8b0d1e3a006756863278704319e4648b16bbaf48198232fff5320f9dc8d6b3118678c1276e6274e7c1f5f9b2773cc174364a3b500305819b7a87ac00000000"
    }
  ]
}