{
  "hash": "000000003dd32df94cfafd16e0a8300ea14d67dcfee9e1282786c2617b8daa09",
  "confirmations": 43100,
  "height": 9998,
  "version": 1,
  "versionHex": "00000001",
  "merkleroot": "b30d1207fbea814421c8b472461a0f18a525a3b2c489ee935fe84de6714a1ae5",
  "time": 1238987390,
  "mediantime": 1238984550,
  "nonce": 155049271,
  "bits": "1d00ffff",
  "difficulty": 1,
  "chainwork": "0000000000000000000000000000000000000000000000000000270f270f270f",
  "nTx": 1,
  "previousblockhash": "00000000d59da91580f0e568e00a3d56279b78e5786c993543610d7ad692cbcd",
  "nextblockhash": "00000000fbc97cc6c599ce9c24dd4a2243e2bfd518eda56e1d5e47d29e29c3a7",
  "strippedsize": 216,
  "size": 216,
  "weight": 864,
  "tx": [
    {
      "txid": "b30d1207fbea814421c8b472461a0f18a525a3b2c489ee935fe84de6714a1ae5",
      "hash": "b30d1207fbea814421c8b472461a0f18a525a3b2c489ee935fe84de6714a1ae5",
      "version": 1,
      "size": 135,
      "vsize": 135,
      "weight": 540,
      "locktime": 0,
      "vin": [
        {
          "coinbase": "04ffff001d026d01",
          "sequence": 4294967295
        }
      ],
      "vout": [
        {
          "value": 50.0,
          "n": 0,
          "scriptPubKey": {
            "asm": "04e5c018bac29eae023e4cf9af07fac6ec23c27041d5b2dd64ba4089fcaaac8c014c6a37e8752ab2e737074609066fab56b85889733dd5126911557fb9bfddae33 OP_CHECKSIG",
            "desc": "pk(04e5c018bac29eae023e4cf9af07fac6ec23c27041d5b2dd64ba4089fcaaac8c014c6a37e8752ab2e737074609066fab56b85889733dd5126911557fb9bfddae33)#96jn7uvv",
            "hex": "4104e5c018bac29eae023e4cf9af07fac6ec23c27041d5b2dd64ba4089fcaaac8c014c6a37e8752ab2e737074609066fab56b85889733dd5126911557fb9bfddae33ac",
            "type": "pubkey"
          }
        }
      ],
      "hex": "01000000010000000000000000000000000000000000000000000000000000000000000000ffffffff0804ffff001d026d01ffffffff0100f2052a01000000434104e5c018bac29eae023e4cf9af07fac6ec23c27041d5b2dd64ba4089fcaaac8c014c6a37e8752ab2e737074609066fab56b85889733dd5126911557fb9bfddae33ac00000000"
    }
  ]
}