{
  "hash": "0000000078b21f73ec9d79df432ee2f6f4ad981d772af1b0b35842789ccc4d28",
  "confirmations": 50736,
  "height": 2362,
  "version": 1,
  "versionHex": "00000001",
  "merkleroot": "49413cc94a7639d099a218bad2733ffc0cb6a8329b9334c48722f8cdbdbeaf70",
  "time": 1233322797,
  "mediantime": 1233320648,
  "nonce": 101267979,
  "bits": "1d00ffff",
  "difficulty": 1,
  "chainwork": "0000000000000000000000000000000000000000000000000000093b093b093b",
  "nTx": 1,
  "previousblockhash": "00000000aa75397d136edac5de594b722e57ff7635ef97357f392d5383452c57",
  "nextblockhash": "00000000e88527b4966a476e828e7226af310d43288b3a733b15c947053414c9",
  "strippedsize": 215,
  "size": 215,
  "weight": 860,
  "tx": [
    {
      "txid": "49413cc94a7639d099a218bad2733ffc0cb6a8329b9334c48722f8cdbdbeaf70",
      "hash": "49413cc94a7639d099a218bad2733ffc0cb6a8329b9334c48722f8cdbdbeaf70",
      "version": 1,
      "size": 134,
      "vsize": 134,
      "weight": 536,
      "locktime": 0,
      "vin": [
        {
          "coinbase": "04ffff001d0116",
          "sequence": 4294967295
        }
      ],
      "vout": [
        {
          "value": 50.0,
          "n": 0,
          "scriptPubKey": {
            "asm": "04745388f96e74fb257c220a38cc757eeb891f528d9670039da014f756f5b22ecb42e22045e89e2f025ddd2d8a00d8f89e484e1de57ec59b4765fa3477b754980e OP_CHECKSIG",
            "desc": "pk(04745388f96e74fb257c220a38cc757eeb891f528d9670039da014f756f5b22ecb42e22045e89e2f025ddd2d8a00d8f89e484e1de57ec59b4765fa3477b754980e)#dnj7xcr2",
            "hex": "4104745388f96e74fb257c220a38cc757eeb891f528d9670039da014f756f5b22ecb42e22045e89e2f025ddd2d8a00d8f89e484e1de57ec59b4765fa3477b754980eac",
            "type": "pubkey"
          }
        }
      ],
      "hex": "01000000010000000000000000000000000000000000000000000000000000000000000000ffffffff0704ffff001d0116ffffffff0100f2052a01000000434104745388f96e74fb257c220a38cc757eeb891f528d9670039da014f756f5b22ecb42e22045e89e2f025ddd2d8a00d8f89e484e1de57ec59b4765fa3477b754980eac00000000"
    }
  ]
}