{
  "hash": "00000000b8197fbfd62c8f20bfd82408800d7fd172ba0cbfd0111edc45136b3d",
  "confirmations": 46247,
  "height": 6851,
  "version": 1,
  "versionHex": "00000001",
  "merkleroot": "ff97da9a93c021263a42a17751b50c25711aed2e603136c48d29a66a7ba04996",
  "time": 1236595086,
  "mediantime": 1236592051,
  "nonce": 1853587491,
  "bits": "1d00ffff",
  "difficulty": 1,
  "chainwork": "00000000000000000000000000000000000000000000000000001ac41ac41ac4",
  "nTx": 1,
  "previousblockhash": "000000001bdc1ed3d810ff59f3eb7476b5da6327e0233d8abf1158e15de5a701",
  "nextblockhash": "00000000d45502ab04c1adeb0a3c9c2930a880e78f94c4ce0fc707ac52588696",
  "strippedsize": 216,
  "size": 216,
  "weight": 864,
  "tx": [
    {
      "txid": "ff97da9a93c021263a42a17751b50c25711aed2e603136c48d29a66a7ba04996",
      "hash": "ff97da9a93c021263a42a17751b50c25711aed2e603136c48d29a66a7ba04996",
      "version": 1,
      "size": 135,
      "vsize": 135,
      "weight": 540,
      "locktime": 0,
      "vin": [
        {
          "coinbase": "04ffff001d02ad09",
          "sequence": 4294967295
        }
      ],
      "vout": [
        {
          "value": 50.0,
          "n": 0,
          "scriptPubKey": {
            "asm": "04f6e1b58150e3318df254df96e9d9905ee6301c1057d4ed0154557da7143c4af6b3d3efe82b13bee813bb53808ee201d8a7440a6b90118572a1a5da9aa01f88ff OP_CHECKSIG",
            "desc": "pk(04f6e1b58150e3318df254df96e9d9905ee6301c1057d4ed0154557da7143c4af6b3d3efe82b13bee813bb53808ee201d8a7440a6b90118572a1a5da9aa01f88ff)#p8cngncp",
            "hex": "4104f6e1b58150e3318df254df96e9d9905ee6301c1057d4ed0154557da7143c4af6b3d3efe82b13bee813bb53808ee201d8a7440a6b90118572a1a5da9aa01f88ffac",
            "type": "pubkey"
          }
        }
      ],
      "hex": "01000000010000000000000000000000000000000000000000000000000000000000000000ffffffff0804ffff001d02ad09ffffffff0100f2052a01000000434104f6e1b58150e3318df254df96e9d9905ee6301c1057d4ed0154557da7143c4af6b3d3efe82b13bee813bb53808ee201d8a7440a6b90118572a1a5da9aa01f88ffac00000000"
    }
  ]
}