{
  "hash": "0000000013e4b004621f9f0fd3bd4960644f5d641bea7035f308ed1591e49a42",
  "confirmations": 51443,
  "height": 1655,
  "version": 1,
  "versionHex": "00000001",
  "merkleroot": "adeedf7d34069aca1304e954902bdf58be61440752d09d1c09ba34c048059434",
  "time": 1232835381,
  "mediantime": 1232833559,
  "nonce": 861629236,
  "bits": "1d00ffff",
  "difficulty": 1,
  "chainwork": "0000000000000000000000000000000000000000000000000000067806780678",
  "nTx": 1,
  "previousblockhash": "000000004eaa0043cf91a137bb342eb46f87bb4cd1bb8d8e8909ceefb901e048",
  "nextblockhash": "000000007aa473a866d49bbfd76cf24f9bedfdb02ddf3da031ffe6617fe54054",
  "strippedsize": 216,
  "size": 216,
  "weight": 864,
  "tx": [
    {
      "txid": "adeedf7d34069aca1304e954902bdf58be61440752d09d1c09ba34c048059434",
      "hash": "adeedf7d34069aca1304e954902bdf58be61440752d09d1c09ba34c048059434",
      "version": 1,
      "size": 135,
      "vsize": 135,
      "weight": 540,
      "locktime": 0,
      "vin": [
        {
          "coinbase": "04ffff001d02a602",
          "sequence": 4294967295
        }
      ],
      "vout": [
        {
          "value": 50.0,
          "n": 0,
          "scriptPubKey": {
            "asm": "0468ae94104155c8fa1885897a87612bb4281afdac4410ebe3058cbda40d30faa211e7c4d9443ae706ba4a5eab143e266f631bfb783695d1b4179f22eace8f7a66 OP_CHECKSIG",
            "desc": "pk(0468ae94104155c8fa1885897a87612bb4281afdac4410ebe3058cbda40d30faa211e7c4d9443ae706ba4a5eab143e266f631bfb783695d1b4179f22eace8f7a66)#n62ezjes",
            "hex": "410468ae94104155c8fa1885897a87612bb4281afdac4410ebe3058cbda40d30faa211e7c4d9443ae706ba4a5eab143e266f631bfb783695d1b4179f22eace8f7a66ac",
            "type": "pubkey"
          }
        }
      ],
      "hex": "01000000010000000000000000000000000000000000000000000000000000000000000000ffffffff0804ffff001d02a602ffffffff0100f2052a0100000043410468ae94104155c8fa1885897a87612bb4281afdac4410ebe3058cbda40d30faa211e7c4d9443ae706ba4a5eab143e266f631bfb783695d1b4179f22eace8f7a66ac00000000"
    }
  ]
}