{
  "hash": "00000000a77103e5602f83cea9b65a89cde0c19095cbba84e37bfbbac85f9f7b",
  "confirmations": 43813,
  "height": 9285,
  "version": 1,
  "versionHex": "00000001",
  "merkleroot": "a334cf9ef9043e336f9c569aec092bcdfbe15f60bb64ad57f5ad182327aec195",
  "time": 1238462407,
  "mediantime": 1238457673,
  "nonce": 240310239,
  "bits": "1d00ffff",
  "difficulty": 1,
  "chainwork": "0000000000000000000000000000000000000000000000000000244624462446",
  "nTx": 1,
  "previousblockhash": "0000000026d2af72ee7b249d90df440d229c4687fb991e4df51b2817843ffab3",
  "nextblockhash": "00000000516e4909d43e0197116b71173c2e5d1097cfa7bcff2754449c690847",
  "strippedsize": 215,
  "size": 215,
  "weight": 860,
  "tx": [
    {
      "txid": "a334cf9ef9043e336f9c569aec092bcdfbe15f60bb64ad57f5ad182327aec195",
      "hash": "a334cf9ef9043e336f9c569aec092bcdfbe15f60bb64ad57f5ad182327aec195",
      "version": 1,
      "size": 134,
      "vsize": 134,
      "weight": 536,
      "locktime": 0,
      "vin": [
        {
          "coinbase": "04ffff001d013c",
          "sequence": 4294967295
        }
      ],
      "vout": [
        {
          "value": 50.0,
          "n": 0,
          "scriptPubKey": {
            "asm": "041b00c187de66c5ab47d5cd98f0cefe0947ccaece88d404dc27e45fc991d54e48f11be41e5ed40534ad814dec00b687926de425f1e73b757690b0727cdffe9d11 OP_CHECKSIG",
            "desc": "pk(041b00c187de66c5ab47d5cd98f0cefe0947ccaece88d404dc27e45fc991d54e48f11be41e5ed40534ad814dec00b687926de425f1e73b757690b0727cdffe9d11)#zt65tcgj",
            "hex": "41041b00c187de66c5ab47d5cd98f0cefe0947ccaece88d404dc27e45fc991d54e48f11be41e5ed40534ad814dec00b687926de425f1e73b757690b0727cdffe9d11ac",
            "type": "pubkey"
          }
        }
      ],
      "hex": "01000000010000000000000000000000000000000000000000000000000000000000000000ffffffff0704ffff001d013cffffffff0100f2052a010000004341041b00c187de66c5ab47d5cd98f0cefe0947ccaece88d404dc27e45fc991d54e48f11be41e5ed40534ad814dec00b687926de425f1e73b757690b0727cdffe9d11ac00000000"
    }
  ]
}