{
  "hash": "00000000512ca848725a11c84b714fd2b6b2be71d28be2c2e5d5ffd456ddad57",
  "confirmations": 47324,
  "height": 5774,
  "version": 1,
  "versionHex": "00000001",
  "merkleroot": "e97975c5075c73dd584aceb869baacb3f706280c1a84a0c6eb98a65b0e0a4908",
  "time": 1235740137,
  "mediantime": 1235737408,
  "nonce": 3862923573,
  "bits": "1d00ffff",
  "difficulty": 1,
  "chainwork": "0000000000000000000000000000000000000000000000000000168f168f168f",
  "nTx": 1,
  "previousblockhash": "000000004bae4adf43210b0bb648cd6b3e822a13a18470eb58ab067c9fedee9b",
  "nextblockhash": "000000004249479797773a5b8551f3274fc2a8dc4b5c52260e68eb62fd6b4ba3",
  "strippedsize": 215,
  "size": 215,
  "weight": 860,
  "tx": [
    {
      "txid": "e97975c5075c73dd584aceb869baacb3f706280c1a84a0c6eb98a65b0e0a4908",
      "hash": "e97975c5075c73dd584aceb869baacb3f706280c1a84a0c6eb98a65b0e0a4908",
      "version": 1,
      "size": 134,
      "vsize": 134,
      "weight": 536,
      "locktime": 0,
      "vin": [
        {
          "coinbase": "04ffff001d015a",
          "sequence": 4294967295
        }
      ],
      "vout": [
        {
          "value": 50.0,
          "n": 0,
          "scriptPubKey": {
            "asm": "040e33afd85fbcb1ea3c1da51f6f5e717f80d1d727569ddb6d1d7020721c0b2a7c13cf9d1048388de502e0695fb8c4c5a8c920092eac9154ae94c117455fc2e900 OP_CHECKSIG",
            "desc": "pk(040e33afd85fbcb1ea3c1da51f6f5e717f80d1d727569ddb6d1d7020721c0b2a7c13cf9d1048388de502e0695fb8c4c5a8c920092eac9154ae94c117455fc2e900)#9l02fext",
            "hex": "41040e33afd85fbcb1ea3c1da51f6f5e717f80d1d727569ddb6d1d7020721c0b2a7c13cf9d1048388de502e0695fb8c4c5a8c920092eac9154ae94c117455fc2e900ac",
            "type": "pubkey"
          }
        }
      ],
      "hex": "01000000010000000000000000000000000000000000000000000000000000000000000000ffffffff0704ffff001d015affffffff0100f2052a010000004341040e33afd85fbcb1ea3c1da51f6f5e717f80d1d727569ddb6d1d7020721c0b2a7c13cf9d1048388de502e0695fb8c4c5a8c920092eac9154ae94c117455fc2e900ac00000000"
    }
  ]
}