{
  "hash": "000000000588b4c76288c72d8855b588d5e96410cd8cbc62a1109215150b4be5",
  "confirmations": 43928,
  "height": 9170,
  "version": 1,
  "versionHex": "00000001",
  "merkleroot": "e2ab607ac73f023274cd30265de5541e89e11d4c6c1cd6dc0409230766f5f4bf",
  "time": 1238379585,
  "mediantime": 1238375124,
  "nonce": 192076200,
  "bits": "1d00ffff",
  "difficulty": 1,
  "chainwork": "000000000000000000000000000000000000000000000000000023d323d323d3",
  "nTx": 1,
  "previousblockhash": "0000000086eec0b41a46401c0c2ef1058a9ed6a724b621b7ddd79527ace70f67",
  "nextblockhash": "000000006566568c459e2b3b65fffae27ecac3b43b7903a5adb2b94bb5836c33",
  "strippedsize": 216,
  "size": 216,
  "weight": 864,
  "tx": [
    {
      "txid": "e2ab607ac73f023274cd30265de5541e89e11d4c6c1cd6dc0409230766f5f4bf",
      "hash": "e2ab607ac73f023274cd30265de5541e89e11d4c6c1cd6dc0409230766f5f4bf",
      "version": 1,
      "size": 135,
      "vsize": 135,
      "weight": 540,
      "locktime": 0,
      "vin": [
        {
          "coinbase": "04ffff001d027a04",
          "sequence": 4294967295
        }
      ],
      "vout": [
        {
          "value": 50.0,
          "n": 0,
          "scriptPubKey": {
            "asm": "04747e0cfa0cefab8ca74714caa063575eecf0dd93f4d85c8fe780324e245a840d2aec443592fd25d09b333cf6385fb9d0e6505ba8ab9a227d9ff9287d7166ed8e OP_CHECKSIG",
            "desc": "pk(04747e0cfa0cefab8ca74714caa063575eecf0dd93f4d85c8fe780324e245a840d2aec443592fd25d09b333cf6385fb9d0e6505ba8ab9a227d9ff9287d7166ed8e)#s3r3gl56",
            "hex": "4104747e0cfa0cefab8ca74714caa063575eecf0dd93f4d85c8fe780324e245a840d2aec443592fd25d09b333cf6385fb9d0e6505ba8ab9a227d9ff9287d7166ed8eac",
            "type": "pubkey"
          }
        }
      ],
      "hex": "01000000010000000000000000000000000000000000000000000000000000000000000000ffffffff0804ffff001d027a04ffffffff0100f2052a01000000434104747e0cfa0cefab8ca74714caa063575eecf0dd93f4d85c8fe780324e245a840d2aec443592fd25d09b333cf6385fb9d0e6505ba8ab9a227d9ff9287d7166ed8eac00000000"
    }
  ]
}