{
  "hash": "00000000b4dc86bde4f53e35aa10b4657e214fe01e8841740a11f80b7f7bd9c3",
  "confirmations": 51639,
  "height": 1459,
  "version": 1,
  "versionHex": "00000001",
  "merkleroot": "361628f73fff4471b8f433fdbb9f02fe3df155c44fc559bf22ff7f3b505d80d2",
  "time": 1232750857,
  "mediantime": 1232748657,
  "nonce": 95144704,
  "bits": "1d00ffff",
  "difficulty": 1,
  "chainwork": "000000000000000000000000000000000000000000000000000005b405b405b4",
  "nTx": 1,
  "previousblockhash": "00000000d50d3e2b0e9ae8ab263621cd2028199e393bd8e28f7dea983f073f19",
  "nextblockhash": "0000000060d16cce0658fceae1b62a37cc62f9bf09be2e3e52937cb2c3d9524a",
  "strippedsize": 216,
  "size": 216,
  "weight": 864,
  "tx": [
    {
      "txid": "361628f73fff4471b8f433fdbb9f02fe3df155c44fc559bf22ff7f3b505d80d2",
      "hash": "361628f73fff4471b8f433fdbb9f02fe3df155c44fc559bf22ff7f3b505d80d2",
      "version": 1,
      "size": 135,
      "vsize": 135,
      "weight": 540,
      "locktime": 0,
      "vin": [
        {
          "coinbase": "04ffff001d02ae00",
          "sequence": 4294967295
        }
      ],
      "vout": [
        {
          "value": 50.0,
          "n": 0,
          "scriptPubKey": {
            "asm": "041f1a87a225471e0d0ceaf64578441a318ed4a9a7b199915c654c960df55809fc90c7c1cd924b0f8a99eed2f5ed01e97f25ce9e540ae114652d13b092a2b8ef66 OP_CHECKSIG",
            "desc": "pk(041f1a87a225471e0d0ceaf64578441a318ed4a9a7b199915c654c960df55809fc90c7c1cd924b0f8a99eed2f5ed01e97f25ce9e540ae114652d13b092a2b8ef66)#6sxsh8mn",
            "hex": "41041f1a87a225471e0d0ceaf64578441a318ed4a9a7b199915c654c960df55809fc90c7c1cd924b0f8a99eed2f5ed01e97f25ce9e540ae114652d13b092a2b8ef66ac",
            "type": "pubkey"
          }
        }
      ],
      "hex": "01000000010000000000000000000000000000000000000000000000000000000000000000ffffffff0804ffff001d02ae00ffffffff0100f2052a010000004341041f1a87a225471e0d0ceaf64578441a318ed4a9a7b199915c654c960df55809fc90c7c1cd924b0f8a99eed2f5ed01e97f25ce9e540ae114652d13b092a2b8ef66ac00000000"
    }
  ]
}