{
  "hash": "000000001387aa638f0d2b584da63a8f101ac6ee167df801f3f1c685f72a7abc",
  "confirmations": 44835,
  "height": 8263,
  "version": 1,
  "versionHex": "00000001",
  "merkleroot": "4d8e71578db744a3f5fb59ea8d67190722b2edd11e4354d7dead6d41da44247b",
  "time": 1237707037,
  "mediantime": 1237701983,
  "nonce": 3850943508,
  "bits": "1d00ffff",
  "difficulty": 1,
  "chainwork": "0000000000000000000000000000000000000000000000000000204820482048",
  "nTx": 1,
  "previousblockhash": "000000002c3882089940d09fc7600b27f424fe37e7fa87ceb8cbfde2ee4de3c6",
  "nextblockhash": "00000000eb9788be682b8e427ed48cb2a128ffddcb509fa8164108a483a41bdd",
  "strippedsize": 216,
  "size": 216,
  "weight": 864,
  "tx": [
    {
      "txid": "4d8e71578db744a3f5fb59ea8d67190722b2edd11e4354d7dead6d41da44247b",
      "hash": "4d8e71578db744a3f5fb59ea8d67190722b2edd11e4354d7dead6d41da44247b",
      "version": 1,
      "size": 135,
      "vsize": 135,
      "weight": 540,
      "locktime": 0,
      "vin": [
        {
          "coinbase": "04ffff001d02a103",
          "sequence": 4294967295
        }
      ],
      "vout": [
        {
          "value": 50.0,
          "n": 0,
          "scriptPubKey": {
            "asm": "049b8aacbd7394de38ffa7fa4545a37654c7724d0304e1893c562cc0ca43d929bca1af3a110a184fdbbcdeda53790b2934b78813d7663240b13b6a241fd164b259 OP_CHECKSIG",
            "desc": "pk(049b8aacbd7394de38ffa7fa4545a37654c7724d0304e1893c562cc0ca43d929bca1af3a110a184fdbbcdeda53790b2934b78813d7663240b13b6a241fd164b259)#0kucu2ct",
            "hex": "41049b8aacbd7394de38ffa7fa4545a37654c7724d0304e1893c562cc0ca43d929bca1af3a110a184fdbbcdeda53790b2934b78813d7663240b13b6a241fd164b259ac",
            "type": "pubkey"
          }
        }
      ],
      "hex": "01000000010000000000000000000000000000000000000000000000000000000000000000ffffffff0804ffff001d02a103ffffffff0100f2052a010000004341049b8aacbd7394de38ffa7fa4545a37654c7724d0304e1893c562cc0ca43d929bca1af3a110a184fdbbcdeda53790b2934b78813d7663240b13b6a241fd164b259ac00000000"
    }
  ]
}