{
  "hash": "00000000186a60f70d105a1625af4c71d07744f93ed2e1c6589c4217ef4ecd35",
  "confirmations": 43716,
  "height": 9382,
  "version": 1,
  "versionHex": "00000001",
  "merkleroot": "a7181edaacfcab58f05cbb7222c0f8066db6514806c7a68c3b88135872f967b6",
  "time": 1238536462,
  "mediantime": 1238531909,
  "nonce": 3385122067,
  "bits": "1d00ffff",
  "difficulty": 1,
  "chainwork": "000000000000000000000000000000000000000000000000000024a724a724a7",
  "nTx": 1,
  "previousblockhash": "00000000978aa33333a6cc5c74d27ae815c0af65e41fd05c9aec1d22084e7520",
  "nextblockhash": "0000000088537cb5c1e7c1558db0291b7e0d79ade07709021e373579a17e7a25",
  "strippedsize": 216,
  "size": 216,
  "weight": 864,
  "tx": [
    {
      "txid": "a7181edaacfcab58f05cbb7222c0f8066db6514806c7a68c3b88135872f967b6",
      "hash": "a7181edaacfcab58f05cbb7222c0f8066db6514806c7a68c3b88135872f967b6",
      "version": 1,
      "size": 135,
      "vsize": 135,
      "weight": 540,
      "locktime": 0,
      "vin": [
        {
          "coinbase": "04ffff001d025503",
          "sequence": 4294967295
        }
      ],
      "vout": [
        {
          "value": 50.0,
          "n": 0,
          "scriptPubKey": {
            "asm": "048fd2c7e8bd41be90bc83b321cca857c45bb50e39e0eaab00a86bc4ce6fae2c44ae2f8a4a1d6d1ecb60ed63cc28a5d2b29cb9cf47407e515c7a09052612e0ce52 OP_CHECKSIG",
            "desc": "pk(048fd2c7e8bd41be90bc83b321cca857c45bb50e39e0eaab00a86bc4ce6fae2c44ae2f8a4a1d6d1ecb60ed63cc28a5d2b29cb9cf47407e515c7a09052612e0ce52)#8fxlxfx3",
            "hex": "41048fd2c7e8bd41be90bc83b321cca857c45bb50e39e0eaab00a86bc4ce6fae2c44ae2f8a4a1d6d1ecb60ed63cc28a5d2b29cb9cf47407e515c7a09052612e0ce52ac",
            "type": "pubkey"
          }
        }
      ],
      "hex": "01000000010000000000000000000000000000000000000000000000000000000000000000ffffffff0804ffff001d025503ffffffff0100f2052a010000004341048fd2c7e8bd41be90bc83b321cca857c45bb50e39e0eaab00a86bc4ce6fae2c44ae2f8a4a1d6d1ecb60ed63cc28a5d2b29cb9cf47407e515c7a09052612e0ce52ac00000000"
    }
  ]
}