{
  "hash": "0000000016b043cf124f1f179a1040db7c2c5d979b124ad01cb7acc900b4d478",
  "confirmations": 44978,
  "height": 8120,
  "version": 1,
  "versionHex": "00000001",
  "merkleroot": "43391d5047cbb34c08fd70320403b8f2aff3b2aa8a3d73bae3e845be399dde2d",
  "time": 1237547472,
  "mediantime": 1237541235,
  "nonce": 3745786396,
  "bits": "1d00ffff",
  "difficulty": 1,
  "chainwork": "00000000000000000000000000000000000000000000000000001fb91fb91fb9",
  "nTx": 1,
  "previousblockhash": "00000000175498c4349bd4058ad173c25fc3a7014c2324c302fb08ef8b450162",
  "nextblockhash": "0000000090f1b16494d3cac0f6e2d6e9a5cec48a562565ad3ab3ffae7c99868d",
  "strippedsize": 216,
  "size": 216,
  "weight": 864,
  "tx": [
    {
      "txid": "43391d5047cbb34c08fd70320403b8f2aff3b2aa8a3d73bae3e845be399dde2d",
      "hash": "43391d5047cbb34c08fd70320403b8f2aff3b2aa8a3d73bae3e845be399dde2d",
      "version": 1,
      "size": 135,
      "vsize": 135,
      "weight": 540,
      "locktime": 0,
      "vin": [
        {
          "coinbase": "04ffff001d026601",
          "sequence": 4294967295
        }
      ],
      "vout": [
        {
          "value": 50.0,
          "n": 0,
          "scriptPubKey": {
            "asm": "04acc9f6367664f034aa745b25a720d878eef5bd1b374bf23d05c92cf43ab62f88cc1539ca1f8c5a3f5caafc18a4a90718c0bd5e3faa7e539c8491e1cd9fb0ef17 OP_CHECKSIG",
            "desc": "pk(04acc9f6367664f034aa745b25a720d878eef5bd1b374bf23d05c92cf43ab62f88cc1539ca1f8c5a3f5caafc18a4a90718c0bd5e3faa7e539c8491e1cd9fb0ef17)#hvcaf34y",
            "hex": "4104acc9f6367664f034aa745b25a720d878eef5bd1b374bf23d05c92cf43ab62f88cc1539ca1f8c5a3f5caafc18a4a90718c0bd5e3faa7e539c8491e1cd9fb0ef17ac",
            "type": "pubkey"
          }
        }
      ],
      "hex": "01000000010000000000000000000000000000000000000000000000000000000000000000ffffffff0804ffff001d026601ffffffff0100f2052a01000000434104acc9f6367664f034aa745b25a720d878eef5bd1b374bf23d05c92cf43ab62f88cc1539ca1f8c5a3f5caafc18a4a90718c0bd5e3faa7e539c8491e1cd9fb0ef17ac00000000"
    }
  ]
}