{
  "hash": "00000000b0deb59c67e3efb491550cefba0c3cd959af391e5735763e5e62706f",
  "confirmations": 51595,
  "height": 1503,
  "version": 1,
  "versionHex": "00000001",
  "merkleroot": "730702ad7a3df0c2807c5fcf32b9284b0519b0c3a40d68de3b2ed75b812a9059",
  "time": 1232769467,
  "mediantime": 1232767188,
  "nonce": 4164136483,
  "bits": "1d00ffff",
  "difficulty": 1,
  "chainwork": "000000000000000000000000000000000000000000000000000005e005e005e0",
  "nTx": 1,
  "previousblockhash": "00000000b6d776781b8a46d059660e60c67e108fd5a5ed441a7995266186f050",
  "nextblockhash": "00000000f046b243850d710ff764a552c10d8a9018a19bd0108e7a618c5ef2ee",
  "strippedsize": 216,
  "size": 216,
  "weight": 864,
  "tx": [
    {
      "txid": "730702ad7a3df0c2807c5fcf32b9284b0519b0c3a40d68de3b2ed75b812a9059",
      "hash": "730702ad7a3df0c2807c5fcf32b9284b0519b0c3a40d68de3b2ed75b812a9059",
      "version": 1,
      "size": 135,
      "vsize": 135,
      "weight": 540,
      "locktime": 0,
      "vin": [
        {
          "coinbase": "04ffff001d023001",
          "sequence": 4294967295
        }
      ],
      "vout": [
        {
          "value": 50.0,
          "n": 0,
          "scriptPubKey": {
            "asm": "04782c4325f56f655c697a63b6f5cb593b291b775a63b59b556f7bdc04ac371ec710cc1d4decd1ca9651b4e59f31fe0d86e3c07a902c3a3b70baf78e0a80fb23c1 OP_CHECKSIG",
            "desc": "pk(04782c4325f56f655c697a63b6f5cb593b291b775a63b59b556f7bdc04ac371ec710cc1d4decd1ca9651b4e59f31fe0d86e3c07a902c3a3b70baf78e0a80fb23c1)#5rw9v3v2",
            "hex": "4104782c4325f56f655c697a63b6f5cb593b291b775a63b59b556f7bdc04ac371ec710cc1d4decd1ca9651b4e59f31fe0d86e3c07a902c3a3b70baf78e0a80fb23c1ac",
            "type": "pubkey"
          }
        }
      ],
      "hex": "01000000010000000000000000000000000000000000000000000000000000000000000000ffffffff0804ffff001d023001ffffffff0100f2052a01000000434104782c4325f56f655c697a63b6f5cb593b291b775a63b59b556f7bdc04ac371ec710cc1d4decd1ca9651b4e59f31fe0d86e3c07a902c3a3b70baf78e0a80fb23c1ac00000000"
    }
  ]
}