{
  "hash": "00000000b6136fc0046b27f01a980ad6c33a7e39fc071d0ff39f974685a98a7f",
  "confirmations": 44521,
  "height": 8577,
  "version": 1,
  "versionHex": "00000001",
  "merkleroot": "2a36aa1485456d61e725ed2d96c2053e36a97fb08162bcc09d55a06cc0e0a3cc",
  "time": 1237933547,
  "mediantime": 1237928069,
  "nonce": 3733930550,
  "bits": "1d00ffff",
  "difficulty": 1,
  "chainwork": "0000000000000000000000000000000000000000000000000000218221822182",
  "nTx": 1,
  "previousblockhash": "000000004b58591a63574cd8932346e261357f8bbd0a2b95b5e8f10a72c01e0d",
  "nextblockhash": "00000000d532ccd4d6aa232de2b2350680bad8deefd3eaae33a6a0d3de664371",
  "strippedsize": 216,
  "size": 216,
  "weight": 864,
  "tx": [
    {
      "txid": "2a36aa1485456d61e725ed2d96c2053e36a97fb08162bcc09d55a06cc0e0a3cc",
      "hash": "2a36aa1485456d61e725ed2d96c2053e36a97fb08162bcc09d55a06cc0e0a3cc",
      "version": 1,
      "size": 135,
      "vsize": 135,
      "weight": 540,
      "locktime": 0,
      "vin": [
        {
          "coinbase": "04ffff001d023a09",
          "sequence": 4294967295
        }
      ],
      "vout": [
        {
          "value": 50.0,
          "n": 0,
          "scriptPubKey": {
            "asm": "0484b777ceb78303fcae319ae4b421fd2993cdf881afb442e5144e583a709500c5515e8e6483500a52cbcb6d6f6ec3a2ce915a1daa2a18901effc86c0483c42a67 OP_CHECKSIG",
            "desc": "pk(0484b777ceb78303fcae319ae4b421fd2993cdf881afb442e5144e583a709500c5515e8e6483500a52cbcb6d6f6ec3a2ce915a1daa2a18901effc86c0483c42a67)#084vpxzm",
            "hex": "410484b777ceb78303fcae319ae4b421fd2993cdf881afb442e5144e583a709500c5515e8e6483500a52cbcb6d6f6ec3a2ce915a1daa2a18901effc86c0483c42a67ac",
            "type": "pubkey"
          }
        }
      ],
      "hex": "01000000010000000000000000000000000000000000000000000000000000000000000000ffffffff0804ffff001d023a09ffffffff0100f2052a0100000043410484b777ceb78303fcae319ae4b421fd2993cdf881afb442e5144e583a709500c5515e8e6483500a52cbcb6d6f6ec3a2ce915a1daa2a18901effc86c0483c42a67ac00000000"
    }
  ]
}