{
  "hash": "00000000a261e79d42b6b6cb44caf88caa09688b4e945230f725a5d24ef9cdc8",
  "confirmations": 51305,
  "height": 1793,
  "version": 1,
  "versionHex": "00000001",
  "merkleroot": "65f8f302c2e17e16e3a4bc679a587633e1e54579a300264936402ce1d8d00c72",
  "time": 1232894461,
  "mediantime": 1232891596,
  "nonce": 3427533092,
  "bits": "1d00ffff",
  "difficulty": 1,
  "chainwork": "0000000000000000000000000000000000000000000000000000070207020702",
  "nTx": 1,
  "previousblockhash": "00000000b60006aa4228517957f825de73774ef378ecac7aaf794491c0057326",
  "nextblockhash": "00000000d4c2a115266ddb1b20aed4f868efc0b331bc0b912cbf9b833a7074a1",
  "strippedsize": 216,
  "size": 216,
  "weight": 864,
  "tx": [
    {
      "txid": "65f8f302c2e17e16e3a4bc679a587633e1e54579a300264936402ce1d8d00c72",
      "hash": "65f8f302c2e17e16e3a4bc679a587633e1e54579a300264936402ce1d8d00c72",
      "version": 1,
      "size": 135,
      "vsize": 135,
      "weight": 540,
      "locktime": 0,
      "vin": [
        {
          "coinbase": "04ffff001d020e04",
          "sequence": 4294967295
        }
      ],
      "vout": [
        {
          "value": 50.0,
          "n": 0,
          "scriptPubKey": {
            "asm": "04f3f15f5f0dc6631379e78bb96747a7e87fc15010c74fcb5547d6fe90b214e001ebf010dfee001ae8f08ae93b13ecfabe94c4860a8142588be83449e89f7ed57b OP_CHECKSIG",
            "desc": "pk(04f3f15f5f0dc6631379e78bb96747a7e87fc15010c74fcb5547d6fe90b214e001ebf010dfee001ae8f08ae93b13ecfabe94c4860a8142588be83449e89f7ed57b)#5k65dy84",
            "hex": "4104f3f15f5f0dc6631379e78bb96747a7e87fc15010c74fcb5547d6fe90b214e001ebf010dfee001ae8f08ae93b13ecfabe94c4860a8142588be83449e89f7ed57bac",
            "type": "pubkey"
          }
        }
      ],
      "hex": "01000000010000000000000000000000000000000000000000000000000000000000000000ffffffff0804ffff001d020e04ffffffff0100f2052a01000000434104f3f15f5f0dc6631379e78bb96747a7e87fc15010c74fcb5547d6fe90b214e001ebf010dfee001ae8f08ae93b13ecfabe94c4860a8142588be83449e89f7ed57bac00000000"
    }
  ]
}