{
  "hash": "000000000c5331dfa340c5d53f5866adb19f89ab0970cdd2a952f0abbc8491b1",
  "confirmations": 48679,
  "height": 4419,
  "version": 1,
  "versionHex": "00000001",
  "merkleroot": "4a278a6d43e526c8ad0153f31690f412f601e7f332d262f667cd493b87de38f3",
  "time": 1234726396,
  "mediantime": 1234723046,
  "nonce": 3708792346,
  "bits": "1d00ffff",
  "difficulty": 1,
  "chainwork": "0000000000000000000000000000000000000000000000000000114411441144",
  "nTx": 1,
  "previousblockhash": "000000005b29024d38bd43d157c0e89e9d33187c6db4b257f911a43d982ab1fc",
  "nextblockhash": "00000000fc713cb2f96439f80c82d1c7d24f7c0ee6e29466a19acd3665fe0abd",
  "strippedsize": 216,
  "size": 216,
  "weight": 864,
  "tx": [
    {
      "txid": "4a278a6d43e526c8ad0153f31690f412f601e7f332d262f667cd493b87de38f3",
      "hash": "4a278a6d43e526c8ad0153f31690f412f601e7f332d262f667cd493b87de38f3",
      "version": 1,
      "size": 135,
      "vsize": 135,
      "weight": 540,
      "locktime": 0,
      "vin": [
        {
          "coinbase": "04ffff001d029201",
          "sequence": 4294967295
        }
      ],
      "vout": [
        {
          "value": 50.0,
          "n": 0,
          "scriptPubKey": {
            "asm": "04dfdb6ee9290d7edfa1142989335d92437c93aee0316aa9ec8a5da49101a3303070b169525aa6069d9b13f73ac739975e4a4cf435ed22a740dbe3d83407984623 OP_CHECKSIG",
            "desc": "pk(04dfdb6ee9290d7edfa1142989335d92437c93aee0316aa9ec8a5da49101a3303070b169525aa6069d9b13f73ac739975e4a4cf435ed22a740dbe3d83407984623)#r6vhgxr9",
            "hex": "4104dfdb6ee9290d7edfa1142989335d92437c93aee0316aa9ec8a5da49101a3303070b169525aa6069d9b13f73ac739975e4a4cf435ed22a740dbe3d83407984623ac",
            "type": "pubkey"
          }
        }
      ],
      "hex": "01000000010000000000000000000000000000000000000000000000000000000000000000ffffffff0804ffff001d029201ffffffff0100f2052a01000000434104dfdb6ee9290d7edfa1142989335d92437c93aee0316aa9ec8a5da49101a3303070b169525aa6069d9b13f73ac739975e4a4cf435ed22a740dbe3d83407984623ac00000000"
    }
  ]
}