{
  "hash": "000000005ad59963a6e7d72214bad519595fa49cafea64a6e1975d1aa74c02a7",
  "confirmations": 51425,
  "height": 1673,
  "version": 1,
  "versionHex": "00000001",
  "merkleroot": "8b310a566cc0c29224fb823510fc674851d76c4ab724a61f1d1adea182dca3e9",
  "time": 1232841922,
  "mediantime": 1232839574,
  "nonce": 17345347,
  "bits": "1d00ffff",
  "difficulty": 1,
  "chainwork": "0000000000000000000000000000000000000000000000000000068a068a068a",
  "nTx": 1,
  "previousblockhash": "00000000971f78fd0cc78b8399ba3efdd96334977d4ea1e14800af9d8d89ab37",
  "nextblockhash": "00000000e1652886c38b554715d975ca1b81c01291c93e0434b3d665cbea1896",
  "strippedsize": 215,
  "size": 215,
  "weight": 860,
  "tx": [
    {
      "txid": "8b310a566cc0c29224fb823510fc674851d76c4ab724a61f1d1adea182dca3e9",
      "hash": "8b310a566cc0c29224fb823510fc674851d76c4ab724a61f1d1adea182dca3e9",
      "version": 1,
      "size": 134,
      "vsize": 134,
      "weight": 536,
      "locktime": 0,
      "vin": [
        {
          "coinbase": "04ffff001d0123",
          "sequence": 4294967295
        }
      ],
      "vout": [
        {
          "value": 50.0,
          "n": 0,
          "scriptPubKey": {
            "asm": "04d40f1ac0654f1b9f8fb32f2188654cfd2de8a54092d5e9c95399deba306e998926cda56259a5e166d9eb90e86361e6b1a3d8af6ff62bdcf5cb3e2fb4a600a36c OP_CHECKSIG",
            "desc": "pk(04d40f1ac0654f1b9f8fb32f2188654cfd2de8a54092d5e9c95399deba306e998926cda56259a5e166d9eb90e86361e6b1a3d8af6ff62bdcf5cb3e2fb4a600a36c)#2e0vqetz",
            "hex": "4104d40f1ac0654f1b9f8fb32f2188654cfd2de8a54092d5e9c95399deba306e998926cda56259a5e166d9eb90e86361e6b1a3d8af6ff62bdcf5cb3e2fb4a600a36cac",
            "type": "pubkey"
          }
        }
      ],
      "hex": "01000000010000000000000000000000000000000000000000000000000000000000000000ffffffff0704ffff001d0123ffffffff0100f2052a01000000434104d40f1ac0654f1b9f8fb32f2188654cfd2de8a54092d5e9c95399deba306e998926cda56259a5e166d9eb90e86361e6b1a3d8af6ff62bdcf5cb3e2fb4a600a36cac00000000"
    }
  ]
}