{
  "hash": "00000000dfe6854b409a89330f557a1ac28d7db8c789a1ebed5a3080219f9646",
  "confirmations": 44355,
  "height": 8743,
  "version": 1,
  "versionHex": "00000001",
  "merkleroot": "16495e5ebb1fa8616bbf48cafdbb5c8ce9578db24b688912eb689e4a28355c7b",
  "time": 1238053765,
  "mediantime": 1238050084,
  "nonce": 1270698504,
  "bits": "1d00ffff",
  "difficulty": 1,
  "chainwork": "0000000000000000000000000000000000000000000000000000222822282228",
  "nTx": 1,
  "previousblockhash": "00000000077c1d80ffdefbdfdd6c2e039d8d9c80030f6cd26e8ba38c575fbe8d",
  "nextblockhash": "000000001e3cfe8fa628a618ae5c2cc83ce0e4011b445a8464855e59fc8494b0",
  "strippedsize": 216,
  "size": 216,
  "weight": 864,
  "tx": [
    {
      "txid": "16495e5ebb1fa8616bbf48cafdbb5c8ce9578db24b688912eb689e4a28355c7b",
      "hash": "16495e5ebb1fa8616bbf48cafdbb5c8ce9578db24b688912eb689e4a28355c7b",
      "version": 1,
      "size": 135,
      "vsize": 135,
      "weight": 540,
      "locktime": 0,
      "vin": [
        {
          "coinbase": "04ffff001d029f01",
          "sequence": 4294967295
        }
      ],
      "vout": [
        {
          "value": 50.0,
          "n": 0,
          "scriptPubKey": {
            "asm": "04baf97165586950f61e359bad528866cb6bd80ccfaeb3940b2918cc1e7269dc01e69f7d24cda3dbeccdf2fc5e946468148145638471df5d32b6165f38af4b90c6 OP_CHECKSIG",
            "desc": "pk(04baf97165586950f61e359bad528866cb6bd80ccfaeb3940b2918cc1e7269dc01e69f7d24cda3dbeccdf2fc5e946468148145638471df5d32b6165f38af4b90c6)#q5djaf9s",
            "hex": "4104baf97165586950f61e359bad528866cb6bd80ccfaeb3940b2918cc1e7269dc01e69f7d24cda3dbeccdf2fc5e946468148145638471df5d32b6165f38af4b90c6ac",
            "type": "pubkey"
          }
        }
      ],
      "hex": "01000000010000000000000000000000000000000000000000000000000000000000000000ffffffff0804ffff001d029f01ffffffff0100f2052a01000000434104baf97165586950f61e359bad528866cb6bd80ccfaeb3940b2918cc1e7269dc01e69f7d24cda3dbeccdf2fc5e946468148145638471df5d32b6165f38af4b90c6ac00000000"
    }
  ]
}