{
  "hash": "00000000c1e4c451d7f0f978f26904d27a578c9efb82f669e39afac8d97fdefa",
  "confirmations": 43512,
  "height": 9586,
  "version": 1,
  "versionHex": "00000001",
  "merkleroot": "5b245d56ac4a9ee0fabf356aecc6daa65c57f432286a335780e6c86ada2e4624",
  "time": 1238689596,
  "mediantime": 1238685363,
  "nonce": 1469334829,
  "bits": "1d00ffff",
  "difficulty": 1,
  "chainwork": "0000000000000000000000000000000000000000000000000000257325732573",
  "nTx": 1,
  "previousblockhash": "000000008ff8524b146510571e54866c99c5d2fe815348089b7da10196fad5c8",
  "nextblockhash": "00000000b089d36f578ad9e419852345cdd87752817b25b39708a8035c4069e6",
  "strippedsize": 216,
  "size": 216,
  "weight": 864,
  "tx": [
    {
      "txid": "5b245d56ac4a9ee0fabf356aecc6daa65c57f432286a335780e6c86ada2e4624",
      "hash": "5b245d56ac4a9ee0fabf356aecc6daa65c57f432286a335780e6c86ada2e4624",
      "version": 1,
      "size": 135,
      "vsize": 135,
      "weight": 540,
      "locktime": 0,
      "vin": [
        {
          "coinbase": "04ffff001d02d006",
          "sequence": 4294967295
        }
      ],
      "vout": [
        {
          "value": 50.0,
          "n": 0,
          "scriptPubKey": {
            "asm": "046e842234d67a330c5e4ec8cdf9f771bbdc294d5dfa6f65b12e3fdd7b7012c369d92c2ccfcfd17d568a54b07dfc9405600b6b665dab369fdf6782304d97a994ef OP_CHECKSIG",
            "desc": "pk(046e842234d67a330c5e4ec8cdf9f771bbdc294d5dfa6f65b12e3fdd7b7012c369d92c2ccfcfd17d568a54b07dfc9405600b6b665dab369fdf6782304d97a994ef)#7wa4sxe5",
            "hex": "41046e842234d67a330c5e4ec8cdf9f771bbdc294d5dfa6f65b12e3fdd7b7012c369d92c2ccfcfd17d568a54b07dfc9405600b6b665dab369fdf6782304d97a994efac",
            "type": "pubkey"
          }
        }
      ],
      "hex": "01000000010000000000000000000000000000000000000000000000000000000000000000ffffffff0804ffff001d02d006ffffffff0100f2052a010000004341046e842234d67a330c5e4ec8cdf9f771bbdc294d5dfa6f65b12e3fdd7b7012c369d92c2ccfcfd17d568a54b07dfc9405600b6b665dab369fdf6782304d97a994efac00000000"
    }
  ]
}