{
  "hash": "000000000d550f4161f2702165fdd782ec72ff9c541f864ebb8256b662b7e51a",
  "confirmations": 52374,
  "height": 508,
  "version": 1,
  "versionHex": "00000001",
  "merkleroot": "887f8213b539413dbf800badd76d0356ed8b2bc2c5d23c8278fe68adfadfdaf5",
  "time": 1231974724,
  "mediantime": 1231970693,
  "nonce": 2674270728,
  "bits": "1d00ffff",
  "difficulty": 1,
  "chainwork": "000000000000000000000000000000000000000000000000000001fd01fd01fd",
  "nTx": 1,
  "previousblockhash": "000000001c6aeec19265e9cc3ded8ba5ef5e63fae7747f30bf9c02c7bc8883f0",
  "nextblockhash": "00000000d9d33aaf1c9dce5bbecaffc917e957e06f336bbace59704a2678e766",
  "strippedsize": 216,
  "size": 216,
  "weight": 864,
  "tx": [
    {
      "txid": "887f8213b539413dbf800badd76d0356ed8b2bc2c5d23c8278fe68adfadfdaf5",
      "hash": "887f8213b539413dbf800badd76d0356ed8b2bc2c5d23c8278fe68adfadfdaf5",
      "version": 1,
      "size": 135,
      "vsize": 135,
      "weight": 540,
      "locktime": 0,
      "vin": [
        {
          "coinbase": "04ffff001d029b04",
          "sequence": 4294967295
        }
      ],
      "vout": [
        {
          "value": 50.0,
          "n": 0,
          "scriptPubKey": {
            "asm": "041e96f6809879335c6771f7d961b6f9516a13aea8970898914b4c1ed2704002c10f1ecd4cd661d241d50e6331d1f92c3457a799e381def9217bef0c7137b96ce2 OP_CHECKSIG",
            "desc": "pk(041e96f6809879335c6771f7d961b6f9516a13aea8970898914b4c1ed2704002c10f1ecd4cd661d241d50e6331d1f92c3457a799e381def9217bef0c7137b96ce2)#0fcclemv",
            "hex": "41041e96f6809879335c6771f7d961b6f9516a13aea8970898914b4c1ed2704002c10f1ecd4cd661d241d50e6331d1f92c3457a799e381def9217bef0c7137b96ce2ac",
            "type": "pubkey"
          }
        }
      ],
      "hex": "01000000010000000000000000000000000000000000000000000000000000000000000000ffffffff0804ffff001d029b04ffffffff0100f2052a010000004341041e96f6809879335c6771f7d961b6f9516a13aea8970898914b4c1ed2704002c10f1ecd4cd661d241d50e6331d1f92c3457a799e381def9217bef0c7137b96ce2ac00000000"
    }
  ]
}