{
  "hash": "00000000380462e5918211a1534e199b6585c139d2bf7ca7cd38b60e650e4600",
  "confirmations": 45298,
  "height": 7800,
  "version": 1,
  "versionHex": "00000001",
  "merkleroot": "5f5e2c4dd304443c98c08d706d6f14fdc927ed8bb4efb680d8fb03cb78be28ee",
  "time": 1237313789,
  "mediantime": 1237309572,
  "nonce": 2717516594,
  "bits": "1d00ffff",
  "difficulty": 1,
  "chainwork": "00000000000000000000000000000000000000000000000000001e791e791e79",
  "nTx": 1,
  "previousblockhash": "000000007dcb08390ceb41de84f0d2afdbbdb073158860d1b07b869817817bdd",
  "nextblockhash": "00000000547c975d1418ba51f5a154c01e7c3be2336db1bb54b911f1a5b0dfd2",
  "strippedsize": 216,
  "size": 216,
  "weight": 864,
  "tx": [
    {
      "txid": "5f5e2c4dd304443c98c08d706d6f14fdc927ed8bb4efb680d8fb03cb78be28ee",
      "hash": "5f5e2c4dd304443c98c08d706d6f14fdc927ed8bb4efb680d8fb03cb78be28ee",
      "version": 1,
      "size": 135,
      "vsize": 135,
      "weight": 540,
      "locktime": 0,
      "vin": [
        {
          "coinbase": "04ffff001d02e205",
          "sequence": 4294967295
        }
      ],
      "vout": [
        {
          "value": 50.0,
          "n": 0,
          "scriptPubKey": {
            "asm": "044755d8ebac8b2d4f6fe7b706eaedf249db2252ef18902b6e371c0d77d689998614a2fb0661193b8bac8a5a998dd4fdfaea146e056890e254033e7d7fd2920699 OP_CHECKSIG",
            "desc": "pk(044755d8ebac8b2d4f6fe7b706eaedf249db2252ef18902b6e371c0d77d689998614a2fb0661193b8bac8a5a998dd4fdfaea146e056890e254033e7d7fd2920699)#ahjm48w2",
            "hex": "41044755d8ebac8b2d4f6fe7b706eaedf249db2252ef18902b6e371c0d77d689998614a2fb0661193b8bac8a5a998dd4fdfaea146e056890e254033e7d7fd2920699ac",
            "type": "pubkey"
          }
        }
      ],
      "hex": "01000000010000000000000000000000000000000000000000000000000000000000000000ffffffff0804ffff001d02e205ffffffff0100f2052a010000004341044755d8ebac8b2d4f6fe7b706eaedf249db2252ef18902b6e371c0d77d689998614a2fb0661193b8bac8a5a998dd4fdfaea146e056890e254033e7d7fd2920699ac00000000"
    }
  ]
}