{
  "hash": "000000002d0648fdbeb50122f8db286c6748d9ec3b2cef903044c89d15c25f89",
  "confirmations": 44580,
  "height": 8518,
  "version": 1,
  "versionHex": "00000001",
  "merkleroot": "1a3f18990e0e2b3a31dd1a8de99e39a860fa670fdc936451dab60b97859f5308",
  "time": 1237885255,
  "mediantime": 1237881518,
  "nonce": 1160822304,
  "bits": "1d00ffff",
  "difficulty": 1,
  "chainwork": "0000000000000000000000000000000000000000000000000000214721472147",
  "nTx": 1,
  "previousblockhash": "0000000075a8cbe4025124942a0b1303bca931025fb733fa7f6203506afcd81f",
  "nextblockhash": "000000002c5e3814ce745ac44738563d426b5d31df54482673ecb9780d49c63c",
  "strippedsize": 216,
  "size": 216,
  "weight": 864,
  "tx": [
    {
      "txid": "1a3f18990e0e2b3a31dd1a8de99e39a860fa670fdc936451dab60b97859f5308",
      "hash": "1a3f18990e0e2b3a31dd1a8de99e39a860fa670fdc936451dab60b97859f5308",
      "version": 1,
      "size": 135,
      "vsize": 135,
      "weight": 540,
      "locktime": 0,
      "vin": [
        {
          "coinbase": "04ffff001d020408",
          "sequence": 4294967295
        }
      ],
      "vout": [
        {
          "value": 50.0,
          "n": 0,
          "scriptPubKey": {
            "asm": "0487346ebb14f04008b7f41bc0613986f9863e8abcd9512a9c7c42bae84a0177d278c13e5cc128e264e6c4a312e49a4bdf5539d264614b5c12fa4bbcbbf9d6d6b2 OP_CHECKSIG",
            "desc": "pk(0487346ebb14f04008b7f41bc0613986f9863e8abcd9512a9c7c42bae84a0177d278c13e5cc128e264e6c4a312e49a4bdf5539d264614b5c12fa4bbcbbf9d6d6b2)#7fvx7vuk",
            "hex": "410487346ebb14f04008b7f41bc0613986f9863e8abcd9512a9c7c42bae84a0177d278c13e5cc128e264e6c4a312e49a4bdf5539d264614b5c12fa4bbcbbf9d6d6b2ac",
            "type": "pubkey"
          }
        }
      ],
      "hex": "01000000010000000000000000000000000000000000000000000000000000000000000000ffffffff0804ffff001d020408ffffffff0100f2052a0100000043410487346ebb14f04008b7f41bc0613986f9863e8abcd9512a9c7c42bae84a0177d278c13e5cc128e264e6c4a312e49a4bdf5539d264614b5c12fa4bbcbbf9d6d6b2ac00000000"
    }
  ]
}