{
  "hash": "00000000ced7d3975574870baba7e634fdc9309a77e5f98e1c37df7b6069a5fb",
  "confirmations": 50283,
  "height": 2815,
  "version": 1,
  "versionHex": "00000001",
  "merkleroot": "1b838931cf5c014d1162f401bf1a187f2caebfcdf4d931f248655125faeaba07",
  "time": 1233637083,
  "mediantime": 1233634893,
  "nonce": 20148166,
  "bits": "1d00ffff",
  "difficulty": 1,
  "chainwork": "00000000000000000000000000000000000000000000000000000b000b000b00",
  "nTx": 1,
  "previousblockhash": "00000000c1ba1063e40a409c05f9c4afc6aeadb9521da748b4cff7debfcc1169",
  "nextblockhash": "000000002233d12daf70aef1e977549f745ada53dd793070bf7a3f382d69b340",
  "strippedsize": 215,
  "size": 215,
  "weight": 860,
  "tx": [
    {
      "txid": "1b838931cf5c014d1162f401bf1a187f2caebfcdf4d931f248655125faeaba07",
      "hash": "1b838931cf5c014d1162f401bf1a187f2caebfcdf4d931f248655125faeaba07",
      "version": 1,
      "size": 134,
      "vsize": 134,
      "weight": 536,
      "locktime": 0,
      "vin": [
        {
          "coinbase": "04ffff001d012b",
          "sequence": 4294967295
        }
      ],
      "vout": [
        {
          "value": 50.0,
          "n": 0,
          "scriptPubKey": {
            "asm": "04a150b686e34170f3759089a2fb4694c5fbd1a066fb95e60461af5090cb51711157876fa61e6981f494b646348567301ccfb0538dd0f5b9b36d52d8ca88dfbb38 OP_CHECKSIG",
            "desc": "pk(04a150b686e34170f3759089a2fb4694c5fbd1a066fb95e60461af5090cb51711157876fa61e6981f494b646348567301ccfb0538dd0f5b9b36d52d8ca88dfbb38)#y7qas9sv",
            "hex": "4104a150b686e34170f3759089a2fb4694c5fbd1a066fb95e60461af5090cb51711157876fa61e6981f494b646348567301ccfb0538dd0f5b9b36d52d8ca88dfbb38ac",
            "type": "pubkey"
          }
        }
      ],
      "hex": "01000000010000000000000000000000000000000000000000000000000000000000000000ffffffff0704ffff001d012bffffffff0100f2052a01000000434104a150b686e34170f3759089a2fb4694c5fbd1a066fb95e60461af5090cb51711157876fa61e6981f494b646348567301ccfb0538dd0f5b9b36d52d8ca88dfbb38ac00000000"
    }
  ]
}