{
  "hash": "000000001657a9969be32abde32d4cd126dd655c3a26f6746adfbd9aa1c69474",
  "confirmations": 47046,
  "height": 6052,
  "version": 1,
  "versionHex": "00000001",
  "merkleroot": "9bd8a8c88dcffebfab88ca3aa6212a36f3b2bfc27e0be22d35d9968048aa2781",
  "time": 1235968946,
  "mediantime": 1235965467,
  "nonce": 648102402,
  "bits": "1d00ffff",
  "difficulty": 1,
  "chainwork": "000000000000000000000000000000000000000000000000000017a517a517a5",
  "nTx": 1,
  "previousblockhash": "00000000792c8b1d78c65a0bf1c8802a32e748965be435207cc034449ce9cadf",
  "nextblockhash": "00000000db65512bc5d055de8bb5c82bdd7a565d10337727dcea86965b64af40",
  "strippedsize": 216,
  "size": 216,
  "weight": 864,
  "tx": [
    {
      "txid": "9bd8a8c88dcffebfab88ca3aa6212a36f3b2bfc27e0be22d35d9968048aa2781",
      "hash": "9bd8a8c88dcffebfab88ca3aa6212a36f3b2bfc27e0be22d35d9968048aa2781",
      "version": 1,
      "size": 135,
      "vsize": 135,
      "weight": 540,
      "locktime": 0,
      "vin": [
        {
          "coinbase": "04ffff001d02dd05",
          "sequence": 4294967295
        }
      ],
      "vout": [
        {
          "value": 50.0,
          "n": 0,
          "scriptPubKey": {
            "asm": "045dab2bdd700b7bae77a3b05445058eef21147773f6c85a88896f19f0a2a42a1093705ea6ecade23b2906bc17e5692964391f8cf46a1813025266ddd2424c8699 OP_CHECKSIG",
            "desc": "pk(045dab2bdd700b7bae77a3b05445058eef21147773f6c85a88896f19f0a2a42a1093705ea6ecade23b2906bc17e5692964391f8cf46a1813025266ddd2424c8699)#kehvh7yf",
            "hex": "41045dab2bdd700b7bae77a3b05445058eef21147773f6c85a88896f19f0a2a42a1093705ea6ecade23b2906bc17e5692964391f8cf46a1813025266ddd2424c8699ac",
            "type": "pubkey"
          }
        }
      ],
      "hex": "01000000010000000000000000000000000000000000000000000000000000000000000000ffffffff0804ffff001d02dd05ffffffff0100f2052a010000004341045dab2bdd700b7bae77a3b05445058eef21147773f6c85a88896f19f0a2a42a1093705ea6ecade23b2906bc17e5692964391f8cf46a1813025266ddd2424c8699ac00000000"
    }
  ]
}