{
  "hash": "0000000000d4325fa7c9e97ac69cdf22a6803e925c5297d925fab14fd53e86a6",
  "confirmations": 51188,
  "height": 1910,
  "version": 1,
  "versionHex": "00000001",
  "merkleroot": "7d4c7bd9b4fa1cf169a43b4d53c6c15d5adaba42087a2d84a4eca50eafe7b7d3",
  "time": 1232949913,
  "mediantime": 1232947277,
  "nonce": 783169836,
  "bits": "1d00ffff",
  "difficulty": 1,
  "chainwork": "0000000000000000000000000000000000000000000000000000077707770777",
  "nTx": 1,
  "previousblockhash": "00000000a5ae2c2c8b85706a041592fd81b9d3f4f56e8e760999003bd1eaed93",
  "nextblockhash": "0000000015099d9ce70a3da3ab91a7c2ebeba085c0513acee6618351414f4b6a",
  "strippedsize": 216,
  "size": 216,
  "weight": 864,
  "tx": [
    {
      "txid": "7d4c7bd9b4fa1cf169a43b4d53c6c15d5adaba42087a2d84a4eca50eafe7b7d3",
      "hash": "7d4c7bd9b4fa1cf169a43b4d53c6c15d5adaba42087a2d84a4eca50eafe7b7d3",
      "version": 1,
      "size": 135,
      "vsize": 135,
      "weight": 540,
      "locktime": 0,
      "vin": [
        {
          "coinbase": "04ffff001d027b05",
          "sequence": 4294967295
        }
      ],
      "vout": [
        {
          "value": 50.0,
          "n": 0,
          "scriptPubKey": {
            "asm": "04e35959748aff17e08d00d5132e4c14039b1915aeed6b7f8cac69a58f2ec2b5f8cbe46ce9650c7d8b4837096f66ca086c5cc978a29bda7ba6a82d60f5ccdffd49 OP_CHECKSIG",
            "desc": "pk(04e35959748aff17e08d00d5132e4c14039b1915aeed6b7f8cac69a58f2ec2b5f8cbe46ce9650c7d8b4837096f66ca086c5cc978a29bda7ba6a82d60f5ccdffd49)#kheeslga",
            "hex": "4104e35959748aff17e08d00d5132e4c14039b1915aeed6b7f8cac69a58f2ec2b5f8cbe46ce9650c7d8b4837096f66ca086c5cc978a29bda7ba6a82d60f5ccdffd49ac",
            "type": "pubkey"
          }
        }
      ],
      "hex": "01000000010000000000000000000000000000000000000000000000000000000000000000ffffffff0804ffff001d027b05ffffffff0100f2052a01000000434104e35959748aff17e08d00d5132e4c14039b1915aeed6b7f8cac69a58f2ec2b5f8cbe46ce9650c7d8b4837096f66ca086c5cc978a29bda7ba6a82d60f5ccdffd49ac00000000"
    }
  ]
}