{
  "hash": "0000000068112a6124280d18d9dca70716b77186b8ad5f0f49b1191ad7af6566",
  "confirmations": 47261,
  "height": 5837,
  "version": 1,
  "versionHex": "00000001",
  "merkleroot": "8d8f63b32000e0723fe470a83d33852cb9eb33b74d2f2e22ee359ff6e899767a",
  "time": 1235790260,
  "mediantime": 1235785207,
  "nonce": 725113651,
  "bits": "1d00ffff",
  "difficulty": 1,
  "chainwork": "000000000000000000000000000000000000000000000000000016ce16ce16ce",
  "nTx": 1,
  "previousblockhash": "00000000ac8864a297d8c07e6e3a9126cb1360bcf47a4620e1c6d1b1e7724f13",
  "nextblockhash": "00000000d188d05f2306af5933485804e8849e5d56d7818f769b7f028e938daf",
  "strippedsize": 216,
  "size": 216,
  "weight": 864,
  "tx": [
    {
      "txid": "8d8f63b32000e0723fe470a83d33852cb9eb33b74d2f2e22ee359ff6e899767a",
      "hash": "8d8f63b32000e0723fe470a83d33852cb9eb33b74d2f2e22ee359ff6e899767a",
      "version": 1,
      "size": 135,
      "vsize": 135,
      "weight": 540,
      "locktime": 0,
      "vin": [
        {
          "coinbase": "04ffff001d027701",
          "sequence": 4294967295
        }
      ],
      "vout": [
        {
          "value": 50.0,
          "n": 0,
          "scriptPubKey": {
            "asm": "049585bd824dc69e597c9de7d7f2e696976cdaf0400da0600ff5380544920a14bb7b5f491bfff291f40b3743edbfadd22a99a41b2eb9feaacc98b8e304cf560830 OP_CHECKSIG",
            "desc": "pk(049585bd824dc69e597c9de7d7f2e696976cdaf0400da0600ff5380544920a14bb7b5f491bfff291f40b3743edbfadd22a99a41b2eb9feaacc98b8e304cf560830)#pgv3nts2",
            "hex": "41049585bd824dc69e597c9de7d7f2e696976cdaf0400da0600ff5380544920a14bb7b5f491bfff291f40b3743edbfadd22a99a41b2eb9feaacc98b8e304cf560830ac",
            "type": "pubkey"
          }
        }
      ],
      "hex": "01000000010000000000000000000000000000000000000000000000000000000000000000ffffffff0804ffff001d027701ffffffff0100f2052a010000004341049585bd824dc69e597c9de7d7f2e696976cdaf0400da0600ff5380544920a14bb7b5f491bfff291f40b3743edbfadd22a99a41b2eb9feaacc98b8e304cf560830ac00000000"
    }
  ]
}