{
  "hash": "0000000021d6651dc8d9efbd9c123934a4e95cb4e788b28d3c6e747ef85d5873",
  "confirmations": 43990,
  "height": 9108,
  "version": 1,
  "versionHex": "00000001",
  "merkleroot": "1a7a56f78b8183441a20fd13237a9df194f87bbe9531e8a09076abf7df3cca0b",
  "time": 1238337136,
  "mediantime": 1238332208,
  "nonce": 2586348037,
  "bits": "1d00ffff",
  "difficulty": 1,
  "chainwork": "0000000000000000000000000000000000000000000000000000239523952395",
  "nTx": 1,
  "previousblockhash": "000000007b187435685ef25ee2e9362229fa73faf0a8ad0638bce02562bdc7a2",
  "nextblockhash": "00000000214185adcb87251b784a387d4fba403de35f6ef14a8d907f13de762f",
  "strippedsize": 216,
  "size": 216,
  "weight": 864,
  "tx": [
    {
      "txid": "1a7a56f78b8183441a20fd13237a9df194f87bbe9531e8a09076abf7df3cca0b",
      "hash": "1a7a56f78b8183441a20fd13237a9df194f87bbe9531e8a09076abf7df3cca0b",
      "version": 1,
      "size": 135,
      "vsize": 135,
      "weight": 540,
      "locktime": 0,
      "vin": [
        {
          "coinbase": "04ffff001d027c08",
          "sequence": 4294967295
        }
      ],
      "vout": [
        {
          "value": 50.0,
          "n": 0,
          "scriptPubKey": {
            "asm": "040102ec9257dbb176ccddb366cf5226e1b747c9336f324f12bf49cd096ecf29c9d4bfad43c6ab97d1d543003c0023aedf62305a5b4413b746f46fc4df059643bb OP_CHECKSIG",
            "desc": "pk(040102ec9257dbb176ccddb366cf5226e1b747c9336f324f12bf49cd096ecf29c9d4bfad43c6ab97d1d543003c0023aedf62305a5b4413b746f46fc4df059643bb)#hacfahjm",
            "hex": "41040102ec9257dbb176ccddb366cf5226e1b747c9336f324f12bf49cd096ecf29c9d4bfad43c6ab97d1d543003c0023aedf62305a5b4413b746f46fc4df059643bbac",
            "type": "pubkey"
          }
        }
      ],
      "hex": "01000000010000000000000000000000000000000000000000000000000000000000000000ffffffff0804ffff001d027c08ffffffff0100f2052a010000004341040102ec9257dbb176ccddb366cf5226e1b747c9336f324f12bf49cd096ecf29c9d4bfad43c6ab97d1d543003c0023aedf62305a5b4413b746f46fc4df059643bbac00000000"
    }
  ]
}