{
  "hash": "00000000058404b3cd08c57cb15574861bf686353ef7e100abe6ca9994133eed",
  "confirmations": 52170,
  "height": 928,
  "version": 1,
  "versionHex": "00000001",
  "merkleroot": "31c50f13eb36730367828d8a917cf2fc79ea27a2bb059bcdd525fb27e42c7ca1",
  "time": 1232298030,
  "mediantime": 1232294096,
  "nonce": 1999748636,
  "bits": "1d00ffff",
  "difficulty": 1,
  "chainwork": "000000000000000000000000000000000000000000000000000003a103a103a1",
  "nTx": 1,
  "previousblockhash": "000000000e959d454587fb93067942e3a18275ca884a6f761475415e9e0048d6",
  "nextblockhash": "00000000901b87d55132395401d2c3786df02654890c9506101c39a918c2730c",
  "strippedsize": 216,
  "size": 216,
  "weight": 864,
  "tx": [
    {
      "txid": "31c50f13eb36730367828d8a917cf2fc79ea27a2bb059bcdd525fb27e42c7ca1",
      "hash": "31c50f13eb36730367828d8a917cf2fc79ea27a2bb059bcdd525fb27e42c7ca1",
      "version": 1,
      "size": 135,
      "vsize": 135,
      "weight": 540,
      "locktime": 0,
      "vin": [
        {
          "coinbase": "04ffff001d020804",
          "sequence": 4294967295
        }
      ],
      "vout": [
        {
          "value": 50.0,
          "n": 0,
          "scriptPubKey": {
            "asm": "0462780cdbb745c5a419a700b49e9e7cafd8a65a961a1e62655c282fccbd0bbd1014c16e45232a81938e32e92783537751acf2f09d2503d2c22e84120df449e977 OP_CHECKSIG",
            "desc": "pk(0462780cdbb745c5a419a700b49e9e7cafd8a65a961a1e62655c282fccbd0bbd1014c16e45232a81938e32e92783537751acf2f09d2503d2c22e84120df449e977)#gqwz4a66",
            "hex": "410462780cdbb745c5a419a700b49e9e7cafd8a65a961a1e62655c282fccbd0bbd1014c16e45232a81938e32e92783537751acf2f09d2503d2c22e84120df449e977ac",
            "type": "pubkey"
          }
        }
      ],
      "hex": "01000000010000000000000000000000000000000000000000000000000000000000000000ffffffff0804ffff001d020804ffffffff0100f2052a0100000043410462780cdbb745c5a419a700b49e9e7cafd8a65a961a1e62655c282fccbd0bbd1014c16e45232a81938e32e92783537751acf2f09d2503d2c22e84120df449e977ac00000000"
    }
  ]
}