{
  "hash": "00000000e626f2ffde2fd0c4a8bd46fcbd5fe62b46c700ac2a4e5debf32e5367",
  "confirmations": 50959,
  "height": 2139,
  "version": 1,
  "versionHex": "00000001",
  "merkleroot": "7d022c11685f71f48501e2ead72177fe75f730fd595cde8f58556c7e63910c01",
  "time": 1233166970,
  "mediantime": 1233162493,
  "nonce": 1822693891,
  "bits": "1d00ffff",
  "difficulty": 1,
  "chainwork": "0000000000000000000000000000000000000000000000000000085c085c085c",
  "nTx": 1,
  "previousblockhash": "00000000066b91b7693f4fd69b0d3b1bb42df76b8e040e01310c086fa234c6a2",
  "nextblockhash": "00000000c3cae15259d830f55cd7683081d30dac174f808dcf6f2bdb57914d3b",
  "strippedsize": 215,
  "size": 215,
  "weight": 860,
  "tx": [
    {
      "txid": "7d022c11685f71f48501e2ead72177fe75f730fd595cde8f58556c7e63910c01",
      "hash": "7d022c11685f71f48501e2ead72177fe75f730fd595cde8f58556c7e63910c01",
      "version": 1,
      "size": 134,
      "vsize": 134,
      "weight": 536,
      "locktime": 0,
      "vin": [
        {
          "coinbase": "04ffff001d011b",
          "sequence": 4294967295
        }
      ],
      "vout": [
        {
          "value": 50.0,
          "n": 0,
          "scriptPubKey": {
            "asm": "04581ca132c7beb57e80b043c647eff20a1c284c12386f00659c6a1e7d9b83fea206b1f2151bf3c819239d3b1a8077fcb57278426e45c889eadd51b48c9b267454 OP_CHECKSIG",
            "desc": "pk(04581ca132c7beb57e80b043c647eff20a1c284c12386f00659c6a1e7d9b83fea206b1f2151bf3c819239d3b1a8077fcb57278426e45c889eadd51b48c9b267454)#2nuc5m99",
            "hex": "4104581ca132c7beb57e80b043c647eff20a1c284c12386f00659c6a1e7d9b83fea206b1f2151bf3c819239d3b1a8077fcb57278426e45c889eadd51b48c9b267454ac",
            "type": "pubkey"
          }
        }
      ],
      "hex": "01000000010000000000000000000000000000000000000000000000000000000000000000ffffffff0704ffff001d011bffffffff0100f2052a01000000434104581ca132c7beb57e80b043c647eff20a1c284c12386f00659c6a1e7d9b83fea206b1f2151bf3c819239d3b1a8077fcb57278426e45c889eadd51b48c9b267454ac00000000"
    }
  ]
}