{
  "hash": "000000000365926090128ede2367cb581efdb5130b957891e8c572fc210c839c",
  "confirmations": 45716,
  "height": 7382,
  "version": 1,
  "versionHex": "00000001",
  "merkleroot": "218e578363b6752c95dbb44208488d94c22a5edcaf7c2e33bffff3c0405c175a",
  "time": 1237007418,
  "mediantime": 1237004352,
  "nonce": 225604231,
  "bits": "1d00ffff",
  "difficulty": 1,
  "chainwork": "00000000000000000000000000000000000000000000000000001cd71cd71cd7",
  "nTx": 1,
  "previousblockhash": "00000000c5e19f534f6c55b14fdb4dec0467e686e50ea6a45342c6754971d689",
  "nextblockhash": "00000000f3e1af7b75e770702c79b4b97d387514ada60e40098dcb07d325dc39",
  "strippedsize": 216,
  "size": 216,
  "weight": 864,
  "tx": [
    {
      "txid": "218e578363b6752c95dbb44208488d94c22a5edcaf7c2e33bffff3c0405c175a",
      "hash": "218e578363b6752c95dbb44208488d94c22a5edcaf7c2e33bffff3c0405c175a",
      "version": 1,
      "size": 135,
      "vsize": 135,
      "weight": 540,
      "locktime": 0,
      "vin": [
        {
          "coinbase": "04ffff001d024d01",
          "sequence": 4294967295
        }
      ],
      "vout": [
        {
          "value": 50.0,
          "n": 0,
          "scriptPubKey": {
            "asm": "04043567a48ca4ad3feedfd90b2393a3569a584e13c19db3a50ed22335f6d6f6f1e60173c9f03164e0f39a08217ee85d0276c1d21ed0f4fcf47eabaeb2a91f10e5 OP_CHECKSIG",
            "desc": "pk(04043567a48ca4ad3feedfd90b2393a3569a584e13c19db3a50ed22335f6d6f6f1e60173c9f03164e0f39a08217ee85d0276c1d21ed0f4fcf47eabaeb2a91f10e5)#ytgau85k",
            "hex": "4104043567a48ca4ad3feedfd90b2393a3569a584e13c19db3a50ed22335f6d6f6f1e60173c9f03164e0f39a08217ee85d0276c1d21ed0f4fcf47eabaeb2a91f10e5ac",
            "type": "pubkey"
          }
        }
      ],
      "hex": "01000000010000000000000000000000000000000000000000000000000000000000000000ffffffff0804ffff001d024d01ffffffff0100f2052a01000000434104043567a48ca4ad3feedfd90b2393a3569a584e13c19db3a50ed22335f6d6f6f1e60173c9f03164e0f39a08217ee85d0276c1d21ed0f4fcf47eabaeb2a91f10e5ac00000000"
    }
  ]
}