{
  "hash": "0000000098f28df657d414aa9d31da4350cad4b3c8046837c0129478be169d41",
  "confirmations": 47472,
  "height": 5626,
  "version": 1,
  "versionHex": "00000001",
  "merkleroot": "e680c923f5fe9e3c9f7603897b198ba26d9480c3f0449e0b372c16663594087b",
  "time": 1235626360,
  "mediantime": 1235622006,
  "nonce": 1182313000,
  "bits": "1d00ffff",
  "difficulty": 1,
  "chainwork": "000000000000000000000000000000000000000000000000000015fb15fb15fb",
  "nTx": 1,
  "previousblockhash": "00000000e8ca9ad4f38bb3bafc5834fc4dfd8b91488c17d8cb8524224141b309",
  "nextblockhash": "0000000058ac557f3f883c264d58f850a8bd1a7650e74f2f567ead10530606a8",
  "strippedsize": 216,
  "size": 216,
  "weight": 864,
  "tx": [
    {
      "txid": "e680c923f5fe9e3c9f7603897b198ba26d9480c3f0449e0b372c16663594087b",
      "hash": "e680c923f5fe9e3c9f7603897b198ba26d9480c3f0449e0b372c16663594087b",
      "version": 1,
      "size": 135,
      "vsize": 135,
      "weight": 540,
      "locktime": 0,
      "vin": [
        {
          "coinbase": "04ffff001d022b08",
          "sequence": 4294967295
        }
      ],
      "vout": [
        {
          "value": 50.0,
          "n": 0,
          "scriptPubKey": {
            "asm": "0456dec7c2fea44539cc24ed228e611a14b5c672318d79b997ea09d7930dbc6d67c9041c8eb559849ec47ecce03d4f961209db3c0430fb7cb174b52da527758e27 OP_CHECKSIG",
            "desc": "pk(0456dec7c2fea44539cc24ed228e611a14b5c672318d79b997ea09d7930dbc6d67c9041c8eb559849ec47ecce03d4f961209db3c0430fb7cb174b52da527758e27)#zylj4gcz",
            "hex": "410456dec7c2fea44539cc24ed228e611a14b5c672318d79b997ea09d7930dbc6d67c9041c8eb559849ec47ecce03d4f961209db3c0430fb7cb174b52da527758e27ac",
            "type": "pubkey"
          }
        }
      ],
      "hex": "01000000010000000000000000000000000000000000000000000000000000000000000000ffffffff0804ffff001d022b08ffffffff0100f2052a0100000043410456dec7c2fea44539cc24ed228e611a14b5c672318d79b997ea09d7930dbc6d67c9041c8eb559849ec47ecce03d4f961209db3c0430fb7cb174b52da527758e27ac00000000"
    }
  ]
}