{
  "hash": "000000007f59c710050c4c76857fd164113222ca67e77e97ae2a06a5de36c535",
  "confirmations": 43268,
  "height": 9830,
  "version": 1,
  "versionHex": "00000001",
  "merkleroot": "47f762299d5ca2f4941029162ddddf64e8ff4ec89a07a39751bb05637549a429",
  "time": 1238876914,
  "mediantime": 1238873375,
  "nonce": 123837992,
  "bits": "1d00ffff",
  "difficulty": 1,
  "chainwork": "0000000000000000000000000000000000000000000000000000266726672667",
  "nTx": 1,
  "previousblockhash": "00000000d40f8fd5a583f3c209ada02ffe8a71cd177e7124d9f658f7a0b3e234",
  "nextblockhash": "00000000cb436394d614a9f287adf06cc481eb1da693ea873da8c139081a0dbc",
  "strippedsize": 216,
  "size": 216,
  "weight": 864,
  "tx": [
    {
      "txid": "47f762299d5ca2f4941029162ddddf64e8ff4ec89a07a39751bb05637549a429",
      "hash": "47f762299d5ca2f4941029162ddddf64e8ff4ec89a07a39751bb05637549a429",
      "version": 1,
      "size": 135,
      "vsize": 135,
      "weight": 540,
      "locktime": 0,
      "vin": [
        {
          "coinbase": "04ffff001d02e600",
          "sequence": 4294967295
        }
      ],
      "vout": [
        {
          "value": 50.0,
          "n": 0,
          "scriptPubKey": {
            "asm": "04a5b028119df97547cff80bc65f1622ca4eb7a01cd62cd50896f43d8a100e4bd8ca591eeb78466234037fdddd1f45bcb17ba8855b6ef29775058c263d64641b43 OP_CHECKSIG",
            "desc": "pk(04a5b028119df97547cff80bc65f1622ca4eb7a01cd62cd50896f43d8a100e4bd8ca591eeb78466234037fdddd1f45bcb17ba8855b6ef29775058c263d64641b43)#tqg4p74n",
            "hex": "4104a5b028119df97547cff80bc65f1622ca4eb7a01cd62cd50896f43d8a100e4bd8ca591eeb78466234037fdddd1f45bcb17ba8855b6ef29775058c263d64641b43ac",
            "type": "pubkey"
          }
        }
      ],
      "hex": "01000000010000000000000000000000000000000000000000000000000000000000000000ffffffff0804ffff001d02e600ffffffff0100f2052a01000000434104a5b028119df97547cff80bc65f1622ca4eb7a01cd62cd50896f43d8a100e4bd8ca591eeb78466234037fdddd1f45bcb17ba8855b6ef29775058c263d64641b43ac00000000"
    }
  ]
}