{
  "hash": "000000007c19ee8e924d3024d58efff50f872aadf256140bb1e3d62fea4fd6dd",
  "confirmations": 51842,
  "height": 38,
  "version": 1,
  "versionHex": "00000001",
  "merkleroot": "e690daeb9f73d29d8a22cb4b5ec29970e9b32283d4376adeaad8691ccb449a68",
  "time": 1231607488,
  "mediantime": 1231603939,
  "nonce": 3941073664,
  "bits": "1d00ffff",
  "difficulty": 1,
  "chainwork": "0000000000000000000000000000000000000000000000000000002700270027",
  "nTx": 1,
  "previousblockhash": "00000000ddd96d128e122d1179034ff66c27dc583eb9e8996a0b1779c60c6f86",
  "nextblockhash": "000000005665d506f6c3ccb5fd98624f9816a8a169f1d2327d1d4d6d3262ad12",
  "strippedsize": 215,
  "size": 215,
  "weight": 860,
  "tx": [
    {
      "txid": "e690daeb9f73d29d8a22cb4b5ec29970e9b32283d4376adeaad8691ccb449a68",
      "hash": "e690daeb9f73d29d8a22cb4b5ec29970e9b32283d4376adeaad8691ccb449a68",
      "version": 1,
      "size": 134,
      "vsize": 134,
      "weight": 536,
      "locktime": 0,
      "vin": [
        {
          "coinbase": "04ffff001d0107",
          "sequence": 4294967295
        }
      ],
      "vout": [
        {
          "value": 50.0,
          "n": 0,
          "scriptPubKey": {
            "asm": "046312c744cb65614769150309590257c89cf5d2ee4f048e5a944fa50c768d205ee6083314a55d8b3f9caff539758c13a8f73be4aac6a6e8c5a917dc670e042f11 OP_CHECKSIG",
            "desc": "pk(046312c744cb65614769150309590257c89cf5d2ee4f048e5a944fa50c768d205ee6083314a55d8b3f9caff539758c13a8f73be4aac6a6e8c5a917dc670e042f11)#85dvq772",
            "hex": "41046312c744cb65614769150309590257c89cf5d2ee4f048e5a944fa50c768d205ee6083314a55d8b3f9caff539758c13a8f73be4aac6a6e8c5a917dc670e042f11ac",
            "type": "pubkey"
          }
        }
      ],
      "hex": "01000000010000000000000000000000000000000000000000000000000000000000000000ffffffff0704ffff001d0107ffffffff0100f2052a010000004341046312c744cb65614769150309590257c89cf5d2ee4f048e5a944fa50c768d205ee6083314a55d8b3f9caff539758c13a8f73be4aac6a6e8c5a917dc670e042f11ac00000000"
    }
  ]
}