{
  "hash": "00000000e5cb7c6c273547b0c9421b01e23310ed83f934b96270f35a4d66f6e3",
  "confirmations": 51810,
  "height": 32,
  "version": 1,
  "versionHex": "00000001",
  "merkleroot": "2b9905f06583c01454f10f720b5709e3b667c9dd3d9efc423c97b7e70afdc0c9",
  "time": 1231603171,
  "mediantime": 1231570573,
  "nonce": 230744328,
  "bits": "1d00ffff",
  "difficulty": 1,
  "chainwork": "0000000000000000000000000000000000000000000000000000002100210021",
  "nTx": 1,
  "previousblockhash": "000000009700ff3494f215c412cd8c0ceabf1deb0df03ce39bcfc223b769d3c4",
  "nextblockhash": "00000000a87073ea3d7af299e02a434598b9c92094afa552e0711afcc0857962",
  "strippedsize": 215,
  "size": 215,
  "weight": 860,
  "tx": [
    {
      "txid": "2b9905f06583c01454f10f720b5709e3b667c9dd3d9efc423c97b7e70afdc0c9",
      "hash": "2b9905f06583c01454f10f720b5709e3b667c9dd3d9efc423c97b7e70afdc0c9",
      "version": 1,
      "size": 134,
      "vsize": 134,
      "weight": 536,
      "locktime": 0,
      "vin": [
        {
          "coinbase": "04ffff001d0136",
          "sequence": 4294967295
        }
      ],
      "vout": [
        {
          "value": 50.0,
          "n": 0,
          "scriptPubKey": {
            "asm": "04b949980bb46aee11510519b4af0dfcc3cc7464b3ede15f184b7c8126a98bf6d6e698eaf16b938814174a002ba24daa03e59a7c0927248517b581c09ec70f216e OP_CHECKSIG",
            "desc": "pk(04b949980bb46aee11510519b4af0dfcc3cc7464b3ede15f184b7c8126a98bf6d6e698eaf16b938814174a002ba24daa03e59a7c0927248517b581c09ec70f216e)#47tuucxv",
            "hex": "4104b949980bb46aee11510519b4af0dfcc3cc7464b3ede15f184b7c8126a98bf6d6e698eaf16b938814174a002ba24daa03e59a7c0927248517b581c09ec70f216eac",
            "type": "pubkey"
          }
        }
      ],
      "hex": "01000000010000000000000000000000000000000000000000000000000000000000000000ffffffff0704ffff001d0136ffffffff0100f2052a01000000434104b949980bb46aee11510519b4af0dfcc3cc7464b3ede15f184b7c8126a98bf6d6e698eaf16b938814174a002ba24daa03e59a7c0927248517b581c09ec70f216eac00000000"
    }
  ]
}