{
  "hash": "00000000afa4394f2bb4ee92d55fa857f7ade86c79257a89c33dba8c4a04006b",
  "confirmations": 52051,
  "height": 285,
  "version": 1,
  "versionHex": "00000001",
  "merkleroot": "d8fe27ce8417be1a3fdad7c5fedbf258413a3cffd2035e9c704a22fab0ac915c",
  "time": 1231821417,
  "mediantime": 1231817139,
  "nonce": 2034375177,
  "bits": "1d00ffff",
  "difficulty": 1,
  "chainwork": "0000000000000000000000000000000000000000000000000000011e011e011e",
  "nTx": 1,
  "previousblockhash": "000000006d9d200789fb91267030be9b46ba351f28090f1c0693fed96be15467",
  "nextblockhash": "00000000bad3f4791d4984e041ec55acf6f7b38a63b220b33f703ec2f6af049a",
  "strippedsize": 215,
  "size": 215,
  "weight": 860,
  "tx": [
    {
      "txid": "d8fe27ce8417be1a3fdad7c5fedbf258413a3cffd2035e9c704a22fab0ac915c",
      "hash": "d8fe27ce8417be1a3fdad7c5fedbf258413a3cffd2035e9c704a22fab0ac915c",
      "version": 1,
      "size": 134,
      "vsize": 134,
      "weight": 536,
      "locktime": 0,
      "vin": [
        {
          "coinbase": "04ffff001d012b",
          "sequence": 4294967295
        }
      ],
      "vout": [
        {
          "value": 50.0,
          "n": 0,
          "scriptPubKey": {
            "asm": "0487136b1a4e2b6e8e815e0931454143fba82e24c23fe98e997c01092abbd542075a8ea072b01b31ff263f2153e8e9151c55a36f72389b4d926e4138bbfef622d3 OP_CHECKSIG",
            "desc": "pk(0487136b1a4e2b6e8e815e0931454143fba82e24c23fe98e997c01092abbd542075a8ea072b01b31ff263f2153e8e9151c55a36f72389b4d926e4138bbfef622d3)#x83yghth",
            "hex": "410487136b1a4e2b6e8e815e0931454143fba82e24c23fe98e997c01092abbd542075a8ea072b01b31ff263f2153e8e9151c55a36f72389b4d926e4138bbfef622d3ac",
            "type": "pubkey"
          }
        }
      ],
      "hex": "01000000010000000000000000000000000000000000000000000000000000000000000000ffffffff0704ffff001d012bffffffff0100f2052a0100000043410487136b1a4e2b6e8e815e0931454143fba82e24c23fe98e997c01092abbd542075a8ea072b01b31ff263f2153e8e9151c55a36f72389b4d926e4138bbfef622d3ac00000000"
    }
  ]
}