{
  "hash": "0000000092456d6b560a6eafcf1e0b2ea9dd1b109e68cb028adf506d014ea6f2",
  "confirmations": 50361,
  "height": 2737,
  "version": 1,
  "versionHex": "00000001",
  "merkleroot": "76271d9004a2f5d5e79c3a0dbd028767823a49eeccc8606d28819a89e04cd4a6",
  "time": 1233588129,
  "mediantime": 1233585579,
  "nonce": 567860770,
  "bits": "1d00ffff",
  "difficulty": 1,
  "chainwork": "00000000000000000000000000000000000000000000000000000ab20ab20ab2",
  "nTx": 1,
  "previousblockhash": "000000002d05816adcfec765c0df902a8f030afddd557e40f827af8a73cac064",
  "nextblockhash": "000000006e92cb9f163c7f9eaf338207c25b3682b410a7352a1c140521a029d4",
  "strippedsize": 216,
  "size": 216,
  "weight": 864,
  "tx": [
    {
      "txid": "76271d9004a2f5d5e79c3a0dbd028767823a49eeccc8606d28819a89e04cd4a6",
      "hash": "76271d9004a2f5d5e79c3a0dbd028767823a49eeccc8606d28819a89e04cd4a6",
      "version": 1,
      "size": 135,
      "vsize": 135,
      "weight": 540,
      "locktime": 0,
      "vin": [
        {
          "coinbase": "04ffff001d024b05",
          "sequence": 4294967295
        }
      ],
      "vout": [
        {
          "value": 50.0,
          "n": 0,
          "scriptPubKey": {
            "asm": "0495c0ef61624a9ef6b36f549a3cdbe61c566e8598d3f7c9fa1275e30f6207319bad98660dbb097f90fd90050deee11ed7d50dccfe4602592f26dcfd8f646bdca9 OP_CHECKSIG",
            "desc": "pk(0495c0ef61624a9ef6b36f549a3cdbe61c566e8598d3f7c9fa1275e30f6207319bad98660dbb097f90fd90050deee11ed7d50dccfe4602592f26dcfd8f646bdca9)#kuml7dlv",
            "hex": "410495c0ef61624a9ef6b36f549a3cdbe61c566e8598d3f7c9fa1275e30f6207319bad98660dbb097f90fd90050deee11ed7d50dccfe4602592f26dcfd8f646bdca9ac",
            "type": "pubkey"
          }
        }
      ],
      "hex": "01000000010000000000000000000000000000000000000000000000000000000000000000ffffffff0804ffff001d024b05ffffffff0100f2052a0100000043410495c0ef61624a9ef6b36f549a3cdbe61c566e8598d3f7c9fa1275e30f6207319bad98660dbb097f90fd90050deee11ed7d50dccfe4602592f26dcfd8f646bdca9ac00000000"
    }
  ]
}