{
  "hash": "00000000ed64dfd40acbbe9393ead18d82c16d82894304e4c36bedec3c1c90f5",
  "confirmations": 44517,
  "height": 8581,
  "version": 1,
  "versionHex": "00000001",
  "merkleroot": "6ab3fc8237eaf8d58ffbaa7473ca0964338720eaa5ef9ef76179aaf2b6112655",
  "time": 1237936057,
  "mediantime": 1237932000,
  "nonce": 45988406,
  "bits": "1d00ffff",
  "difficulty": 1,
  "chainwork": "0000000000000000000000000000000000000000000000000000218621862186",
  "nTx": 1,
  "previousblockhash": "000000004b3ee920cf26d98a05f9fdb481437746313dbb71ebc82a8d2befd92b",
  "nextblockhash": "0000000038485cf43edc17983f88e21db0a1c0230c4295e584bcb8610f2af8c2",
  "strippedsize": 216,
  "size": 216,
  "weight": 864,
  "tx": [
    {
      "txid": "6ab3fc8237eaf8d58ffbaa7473ca0964338720eaa5ef9ef76179aaf2b6112655",
      "hash": "6ab3fc8237eaf8d58ffbaa7473ca0964338720eaa5ef9ef76179aaf2b6112655",
      "version": 1,
      "size": 135,
      "vsize": 135,
      "weight": 540,
      "locktime": 0,
      "vin": [
        {
          "coinbase": "04ffff001d024209",
          "sequence": 4294967295
        }
      ],
      "vout": [
        {
          "value": 50.0,
          "n": 0,
          "scriptPubKey": {
            "asm": "0407204ec065f263cb51ebbf8f65bca008363dccc420c71f03722d26c46bafb962babc7b15695f3d72e99386e286c0180fd2ff4185caf1e8bb1a908462f4a24cf6 OP_CHECKSIG",
            "desc": "pk(0407204ec065f263cb51ebbf8f65bca008363dccc420c71f03722d26c46bafb962babc7b15695f3d72e99386e286c0180fd2ff4185caf1e8bb1a908462f4a24cf6)#dzrzke5r",
            "hex": "410407204ec065f263cb51ebbf8f65bca008363dccc420c71f03722d26c46bafb962babc7b15695f3d72e99386e286c0180fd2ff4185caf1e8bb1a908462f4a24cf6ac",
            "type": "pubkey"
          }
        }
      ],
      "hex": "01000000010000000000000000000000000000000000000000000000000000000000000000ffffffff0804ffff001d024209ffffffff0100f2052a0100000043410407204ec065f263cb51ebbf8f65bca008363dccc420c71f03722d26c46bafb962babc7b15695f3d72e99386e286c0180fd2ff4185caf1e8bb1a908462f4a24cf6ac00000000"
    }
  ]
}