{
  "hash": "00000000671b1e2b5c146ae4a256ab6ae673eb09c8bae09500372fda89a9010f",
  "confirmations": 51816,
  "height": 1282,
  "version": 1,
  "versionHex": "00000001",
  "merkleroot": "64c7c3e4ae3ac1f104307389c1a83cecc60dcf4d810e1cf3860329fc554601e7",
  "time": 1232561773,
  "mediantime": 1232557240,
  "nonce": 2388031237,
  "bits": "1d00ffff",
  "difficulty": 1,
  "chainwork": "0000000000000000000000000000000000000000000000000000050305030503",
  "nTx": 1,
  "previousblockhash": "000000005bcc4c9b9f0fd22ea09985abd17896a063be8ac81390e3d56b5eec71",
  "nextblockhash": "000000005bc20e95e988500042863abf7ccfdc188b69762108dc653947281c58",
  "strippedsize": 216,
  "size": 216,
  "weight": 864,
  "tx": [
    {
      "txid": "64c7c3e4ae3ac1f104307389c1a83cecc60dcf4d810e1cf3860329fc554601e7",
      "hash": "64c7c3e4ae3ac1f104307389c1a83cecc60dcf4d810e1cf3860329fc554601e7",
      "version": 1,
      "size": 135,
      "vsize": 135,
      "weight": 540,
      "locktime": 0,
      "vin": [
        {
          "coinbase": "04ffff001d02030a",
          "sequence": 4294967295
        }
      ],
      "vout": [
        {
          "value": 50.0,
          "n": 0,
          "scriptPubKey": {
            "asm": "046e0f9086d0a9202bff6be49d059d0830335b88cd00f6d04b29171bda8618e26b82466effcf56c5939870fd9d55930e3418b8471c6ee46858d78a7d7457c76486 OP_CHECKSIG",
            "desc": "pk(046e0f9086d0a9202bff6be49d059d0830335b88cd00f6d04b29171bda8618e26b82466effcf56c5939870fd9d55930e3418b8471c6ee46858d78a7d7457c76486)#kzy9yc7q",
            "hex": "41046e0f9086d0a9202bff6be49d059d0830335b88cd00f6d04b29171bda8618e26b82466effcf56c5939870fd9d55930e3418b8471c6ee46858d78a7d7457c76486ac",
            "type": "pubkey"
          }
        }
      ],
      "hex": "01000000010000000000000000000000000000000000000000000000000000000000000000ffffffff0804ffff001d02030affffffff0100f2052a010000004341046e0f9086d0a9202bff6be49d059d0830335b88cd00f6d04b29171bda8618e26b82466effcf56c5939870fd9d55930e3418b8471c6ee46858d78a7d7457c76486ac00000000"
    }
  ]
}