{
  "hash": "00000000f7eee1b588e0acb92963ea2d83c29d964133e379b94489803af89b7d",
  "confirmations": 47818,
  "height": 5280,
  "version": 1,
  "versionHex": "00000001",
  "merkleroot": "465b2793ebf03ade0187921f4f0e11fc28b7b860c3c4bf6eabeb47919d3e652e",
  "time": 1235344964,
  "mediantime": 1235341904,
  "nonce": 2905271585,
  "bits": "1d00ffff",
  "difficulty": 1,
  "chainwork": "000000000000000000000000000000000000000000000000000014a114a114a1",
  "nTx": 1,
  "previousblockhash": "00000000cb2c04f9b7cb34fbc68e839b917d50d28ee129591af4edad6254a8eb",
  "nextblockhash": "000000008e56e943232a31c8c685b1911ceb99f8923dad3f56cf3ca0601a4b94",
  "strippedsize": 216,
  "size": 216,
  "weight": 864,
  "tx": [
    {
      "txid": "465b2793ebf03ade0187921f4f0e11fc28b7b860c3c4bf6eabeb47919d3e652e",
      "hash": "465b2793ebf03ade0187921f4f0e11fc28b7b860c3c4bf6eabeb47919d3e652e",
      "version": 1,
      "size": 135,
      "vsize": 135,
      "weight": 540,
      "locktime": 0,
      "vin": [
        {
          "coinbase": "04ffff001d02c201",
          "sequence": 4294967295
        }
      ],
      "vout": [
        {
          "value": 50.0,
          "n": 0,
          "scriptPubKey": {
            "asm": "0484b6895e8ceec75177f7b1a38b6089c4c7bb7c7634624e06763124d2ff0b79bc2781c2f8f771121038205621a096b0ef4fe03f952bad4fb8f60c1002700f8df5 OP_CHECKSIG",
            "desc": "pk(0484b6895e8ceec75177f7b1a38b6089c4c7bb7c7634624e06763124d2ff0b79bc2781c2f8f771121038205621a096b0ef4fe03f952bad4fb8f60c1002700f8df5)#0ax4t2m0",
            "hex": "410484b6895e8ceec75177f7b1a38b6089c4c7bb7c7634624e06763124d2ff0b79bc2781c2f8f771121038205621a096b0ef4fe03f952bad4fb8f60c1002700f8df5ac",
            "type": "pubkey"
          }
        }
      ],
      "hex": "01000000010000000000000000000000000000000000000000000000000000000000000000ffffffff0804ffff001d02c201ffffffff0100f2052a0100000043410484b6895e8ceec75177f7b1a38b6089c4c7bb7c7634624e06763124d2ff0b79bc2781c2f8f771121038205621a096b0ef4fe03f952bad4fb8f60c1002700f8df5ac00000000"
    }
  ]
}