{
  "hash": "000000006c6d02760d64950b1ef3565fc9195fd758c4f9b3cf1037c055c95dcc",
  "confirmations": 52041,
  "height": 296,
  "version": 1,
  "versionHex": "00000001",
  "merkleroot": "eda65f77e1d65f6c8f168fcfd7c2187db499f5d077027be9f001d0446a9f73a5",
  "time": 1231829684,
  "mediantime": 1231825707,
  "nonce": 91557334,
  "bits": "1d00ffff",
  "difficulty": 1,
  "chainwork": "0000000000000000000000000000000000000000000000000000012901290129",
  "nTx": 1,
  "previousblockhash": "0000000038b1083b5e97f9fe1d9b18f53bbebcd95dfe4025ae4ebced103a17ba",
  "nextblockhash": "00000000d80530efa37319e4b4508b0759fdab8ea8a81272cbe8986881489507",
  "strippedsize": 215,
  "size": 215,
  "weight": 860,
  "tx": [
    {
      "txid": "eda65f77e1d65f6c8f168fcfd7c2187db499f5d077027be9f001d0446a9f73a5",
      "hash": "eda65f77e1d65f6c8f168fcfd7c2187db499f5d077027be9f001d0446a9f73a5",
      "version": 1,
      "size": 134,
      "vsize": 134,
      "weight": 536,
      "locktime": 0,
      "vin": [
        {
          "coinbase": "04ffff001d0126",
          "sequence": 4294967295
        }
      ],
      "vout": [
        {
          "value": 50.0,
          "n": 0,
          "scriptPubKey": {
            "asm": "044d4d78c0e46abc30e614f31181fbd7ce49b0676662b60996dc0b1a1e19490bf069b67ef7ae17a6f78b07a938d1b475a77b0f1fbe9527db6af51e5a7fbddf4d57 OP_CHECKSIG",
            "desc": "pk(044d4d78c0e46abc30e614f31181fbd7ce49b0676662b60996dc0b1a1e19490bf069b67ef7ae17a6f78b07a938d1b475a77b0f1fbe9527db6af51e5a7fbddf4d57)#ts4dn7s8",
            "hex": "41044d4d78c0e46abc30e614f31181fbd7ce49b0676662b60996dc0b1a1e19490bf069b67ef7ae17a6f78b07a938d1b475a77b0f1fbe9527db6af51e5a7fbddf4d57ac",
            "type": "pubkey"
          }
        }
      ],
      "hex": "01000000010000000000000000000000000000000000000000000000000000000000000000ffffffff0704ffff001d0126ffffffff0100f2052a010000004341044d4d78c0e46abc30e614f31181fbd7ce49b0676662b60996dc0b1a1e19490bf069b67ef7ae17a6f78b07a938d1b475a77b0f1fbe9527db6af51e5a7fbddf4d57ac00000000"
    }
  ]
}