{
  "hash": "00000000ba65dbfff54056ce5454b382dca6c64a15e435ffa8a6d1f119d25371",
  "confirmations": 45982,
  "height": 7116,
  "version": 1,
  "versionHex": "00000001",
  "merkleroot": "c29d220aed1d52aada79ee6d189b68ad0fdede5353b117ad940ccddedf6fdb84",
  "time": 1236809502,
  "mediantime": 1236806079,
  "nonce": 12655620,
  "bits": "1d00ffff",
  "difficulty": 1,
  "chainwork": "00000000000000000000000000000000000000000000000000001bcd1bcd1bcd",
  "nTx": 1,
  "previousblockhash": "0000000044a5854add7cedd006a413cb5fc06e3b6c4ddf6d149f23c6ebe6422a",
  "nextblockhash": "0000000089ee8982ff631530434c1711a2df57503002552c77caafbed3fa9c0f",
  "strippedsize": 215,
  "size": 215,
  "weight": 860,
  "tx": [
    {
      "txid": "c29d220aed1d52aada79ee6d189b68ad0fdede5353b117ad940ccddedf6fdb84",
      "hash": "c29d220aed1d52aada79ee6d189b68ad0fdede5353b117ad940ccddedf6fdb84",
      "version": 1,
      "size": 134,
      "vsize": 134,
      "weight": 536,
      "locktime": 0,
      "vin": [
        {
          "coinbase": "04ffff001d012e",
          "sequence": 4294967295
        }
      ],
      "vout": [
        {
          "value": 50.0,
          "n": 0,
          "scriptPubKey": {
            "asm": "048ae3270bd3cfb22bedba1e553e3a1bfc191187b813bbc213b00b7c16f60746c948a4db4834376db36495ba1debd79880ec373bf9097e9927817544cf554fc207 OP_CHECKSIG",
            "desc": "pk(048ae3270bd3cfb22bedba1e553e3a1bfc191187b813bbc213b00b7c16f60746c948a4db4834376db36495ba1debd79880ec373bf9097e9927817544cf554fc207)#6m7dc79c",
            "hex": "41048ae3270bd3cfb22bedba1e553e3a1bfc191187b813bbc213b00b7c16f60746c948a4db4834376db36495ba1debd79880ec373bf9097e9927817544cf554fc207ac",
            "type": "pubkey"
          }
        }
      ],
      "hex": "01000000010000000000000000000000000000000000000000000000000000000000000000ffffffff0704ffff001d012effffffff0100f2052a010000004341048ae3270bd3cfb22bedba1e553e3a1bfc191187b813bbc213b00b7c16f60746c948a4db4834376db36495ba1debd79880ec373bf9097e9927817544cf554fc207ac00000000"
    }
  ]
}