{
  "hash": "0000000044719eedcaccde32c6bb5c290df4c883f0a76147a232aa64d8170bbc",
  "confirmations": 45756,
  "height": 7342,
  "version": 1,
  "versionHex": "00000001",
  "merkleroot": "e3530eca2a40b4e1d01b88f24466b1e6253a4a6750712cbb540404e70ce82ce6",
  "time": 1236978766,
  "mediantime": 1236975313,
  "nonce": 1685845284,
  "bits": "1d00ffff",
  "difficulty": 1,
  "chainwork": "00000000000000000000000000000000000000000000000000001caf1caf1caf",
  "nTx": 1,
  "previousblockhash": "00000000f9951538ba14b27d91a73a555eb06c0a7ac2c05f6a9eacc0b75565b1",
  "nextblockhash": "000000007b54debc6423a99f922e68b86703ad02e6611c44acc335d50c998925",
  "strippedsize": 216,
  "size": 216,
  "weight": 864,
  "tx": [
    {
      "txid": "e3530eca2a40b4e1d01b88f24466b1e6253a4a6750712cbb540404e70ce82ce6",
      "hash": "e3530eca2a40b4e1d01b88f24466b1e6253a4a6750712cbb540404e70ce82ce6",
      "version": 1,
      "size": 135,
      "vsize": 135,
      "weight": 540,
      "locktime": 0,
      "vin": [
        {
          "coinbase": "04ffff001d025b08",
          "sequence": 4294967295
        }
      ],
      "vout": [
        {
          "value": 50.0,
          "n": 0,
          "scriptPubKey": {
            "asm": "043da906da78d4cea62d5a9262f088a6bddf7c087458582dc98fa3baafb26e07adda83e95f4c4c2da9b4bcfc4c7ab507afa37199cad41fe59e36dcc109e00b0ab7 OP_CHECKSIG",
            "desc": "pk(043da906da78d4cea62d5a9262f088a6bddf7c087458582dc98fa3baafb26e07adda83e95f4c4c2da9b4bcfc4c7ab507afa37199cad41fe59e36dcc109e00b0ab7)#8lcyyet3",
            "hex": "41043da906da78d4cea62d5a9262f088a6bddf7c087458582dc98fa3baafb26e07adda83e95f4c4c2da9b4bcfc4c7ab507afa37199cad41fe59e36dcc109e00b0ab7ac",
            "type": "pubkey"
          }
        }
      ],
      "hex": "01000000010000000000000000000000000000000000000000000000000000000000000000ffffffff0804ffff001d025b08ffffffff0100f2052a010000004341043da906da78d4cea62d5a9262f088a6bddf7c087458582dc98fa3baafb26e07adda83e95f4c4c2da9b4bcfc4c7ab507afa37199cad41fe59e36dcc109e00b0ab7ac00000000"
    }
  ]
}