{
  "hash": "000000002173b0e503a7566754711596b57d5319a9069c8fb4c55089acac0502",
  "confirmations": 44315,
  "height": 8783,
  "version": 1,
  "versionHex": "00000001",
  "merkleroot": "1b776e8dd5de073d733086d6cd77a4ad6f9deb53c884787d6ef775895dc1d174",
  "time": 1238087560,
  "mediantime": 1238084120,
  "nonce": 763632434,
  "bits": "1d00ffff",
  "difficulty": 1,
  "chainwork": "0000000000000000000000000000000000000000000000000000225022502250",
  "nTx": 1,
  "previousblockhash": "00000000dcf1089633847a7371f5b84f20ddee3587884f0f0a96319d965d997e",
  "nextblockhash": "00000000e0e6680b08e83733c47ec49280d36bc4a0362439b9280006c8069c4b",
  "strippedsize": 216,
  "size": 216,
  "weight": 864,
  "tx": [
    {
      "txid": "1b776e8dd5de073d733086d6cd77a4ad6f9deb53c884787d6ef775895dc1d174",
      "hash": "1b776e8dd5de073d733086d6cd77a4ad6f9deb53c884787d6ef775895dc1d174",
      "version": 1,
      "size": 135,
      "vsize": 135,
      "weight": 540,
      "locktime": 0,
      "vin": [
        {
          "coinbase": "04ffff001d025102",
          "sequence": 4294967295
        }
      ],
      "vout": [
        {
          "value": 50.0,
          "n": 0,
          "scriptPubKey": {
            "asm": "04402082134bc5db4f831328efa214b48f06d0a8b459d04a2b5a189f769a29303411ca6c2bf1449f86c4d51a0122eaab6c8889bd4531b38b1ca2f593eca1498e9c OP_CHECKSIG",
            "desc": "pk(04402082134bc5db4f831328efa214b48f06d0a8b459d04a2b5a189f769a29303411ca6c2bf1449f86c4d51a0122eaab6c8889bd4531b38b1ca2f593eca1498e9c)#ywfawe28",
            "hex": "4104402082134bc5db4f831328efa214b48f06d0a8b459d04a2b5a189f769a29303411ca6c2bf1449f86c4d51a0122eaab6c8889bd4531b38b1ca2f593eca1498e9cac",
            "type": "pubkey"
          }
        }
      ],
      "hex": "01000000010000000000000000000000000000000000000000000000000000000000000000ffffffff0804ffff001d025102ffffffff0100f2052a01000000434104402082134bc5db4f831328efa214b48f06d0a8b459d04a2b5a189f769a29303411ca6c2bf1449f86c4d51a0122eaab6c8889bd4531b38b1ca2f593eca1498e9cac00000000"
    }
  ]
}