{
  "hash": "0000000035e94598de6570831e3401cc581c0b2aba1a0bb8af47ddf0b7788c19",
  "confirmations": 43810,
  "height": 9288,
  "version": 1,
  "versionHex": "00000001",
  "merkleroot": "638b071cce5fe584c38d03c67852964fd49a6061ba760bf29419ec4cf051d1a8",
  "time": 1238465212,
  "mediantime": 1238460502,
  "nonce": 3359796997,
  "bits": "1d00ffff",
  "difficulty": 1,
  "chainwork": "0000000000000000000000000000000000000000000000000000244924492449",
  "nTx": 1,
  "previousblockhash": "0000000077b4c660a460efea7a851250eebc5040d9b4759c71b7e896f8dc974f",
  "nextblockhash": "00000000fb5e0e40c617769e563e85ac142332b6a236f1f4acc0cdc45a446c55",
  "strippedsize": 216,
  "size": 216,
  "weight": 864,
  "tx": [
    {
      "txid": "638b071cce5fe584c38d03c67852964fd49a6061ba760bf29419ec4cf051d1a8",
      "hash": "638b071cce5fe584c38d03c67852964fd49a6061ba760bf29419ec4cf051d1a8",
      "version": 1,
      "size": 135,
      "vsize": 135,
      "weight": 540,
      "locktime": 0,
      "vin": [
        {
          "coinbase": "04ffff001d029301",
          "sequence": 4294967295
        }
      ],
      "vout": [
        {
          "value": 50.0,
          "n": 0,
          "scriptPubKey": {
            "asm": "04d93367aad075313135d9f0eee87a8037458e4862b07282590cc0aba859f067a51455bf45ca34b70467614b7674ea5a85cecb7c7fc0e5e537165626d2ed545c19 OP_CHECKSIG",
            "desc": "pk(04d93367aad075313135d9f0eee87a8037458e4862b07282590cc0aba859f067a51455bf45ca34b70467614b7674ea5a85cecb7c7fc0e5e537165626d2ed545c19)#rjsuhd5u",
            "hex": "4104d93367aad075313135d9f0eee87a8037458e4862b07282590cc0aba859f067a51455bf45ca34b70467614b7674ea5a85cecb7c7fc0e5e537165626d2ed545c19ac",
            "type": "pubkey"
          }
        }
      ],
      "hex": "01000000010000000000000000000000000000000000000000000000000000000000000000ffffffff0804ffff001d029301ffffffff0100f2052a01000000434104d93367aad075313135d9f0eee87a8037458e4862b07282590cc0aba859f067a51455bf45ca34b70467614b7674ea5a85cecb7c7fc0e5e537165626d2ed545c19ac00000000"
    }
  ]
}