{
  "hash": "0000000041107cb95f9978f2a7404d2a39f383058f3bab641e59a4952af51396",
  "confirmations": 51387,
  "height": 1711,
  "version": 1,
  "versionHex": "00000001",
  "merkleroot": "8ecc11d0a4e6b26bb8875c64f4fd15e9a08d79e1bf5fe14d263300c8877ca6cd",
  "time": 1232858001,
  "mediantime": 1232855600,
  "nonce": 1576563251,
  "bits": "1d00ffff",
  "difficulty": 1,
  "chainwork": "000000000000000000000000000000000000000000000000000006b006b006b0",
  "nTx": 1,
  "previousblockhash": "0000000028f54de8c6677b1eaf8241804e6d9a6e89fcf326049c8c3bb3495a64",
  "nextblockhash": "00000000a3839a56950197028f59ecc0d1826ffe71b269ad92c0e083edfc26af",
  "strippedsize": 216,
  "size": 216,
  "weight": 864,
  "tx": [
    {
      "txid": "8ecc11d0a4e6b26bb8875c64f4fd15e9a08d79e1bf5fe14d263300c8877ca6cd",
      "hash": "8ecc11d0a4e6b26bb8875c64f4fd15e9a08d79e1bf5fe14d263300c8877ca6cd",
      "version": 1,
      "size": 135,
      "vsize": 135,
      "weight": 540,
      "locktime": 0,
      "vin": [
        {
          "coinbase": "04ffff001d024b03",
          "sequence": 4294967295
        }
      ],
      "vout": [
        {
          "value": 50.0,
          "n": 0,
          "scriptPubKey": {
            "asm": "04e36cbd29570edd7454073d4aac39cd881aa8a42cc5e5fea6a8a004372478b9e705471da25d2455f344806165f2d6d91d0b786d9af7503d3e67010ae7a25b006d OP_CHECKSIG",
            "desc": "pk(04e36cbd29570edd7454073d4aac39cd881aa8a42cc5e5fea6a8a004372478b9e705471da25d2455f344806165f2d6d91d0b786d9af7503d3e67010ae7a25b006d)#6gz9l26k",
            "hex": "4104e36cbd29570edd7454073d4aac39cd881aa8a42cc5e5fea6a8a004372478b9e705471da25d2455f344806165f2d6d91d0b786d9af7503d3e67010ae7a25b006dac",
            "type": "pubkey"
          }
        }
      ],
      "hex": "01000000010000000000000000000000000000000000000000000000000000000000000000ffffffff0804ffff001d024b03ffffffff0100f2052a01000000434104e36cbd29570edd7454073d4aac39cd881aa8a42cc5e5fea6a8a004372478b9e705471da25d2455f344806165f2d6d91d0b786d9af7503d3e67010ae7a25b006dac00000000"
    }
  ]
}