{
  "hash": "000000001b56d9a8c00a289e21ece608739e3804b3459b334abcbff31e8c3f5a",
  "confirmations": 44917,
  "height": 8181,
  "version": 1,
  "versionHex": "00000001",
  "merkleroot": "fc6848391c7a6cbd9cb95d2105d6aea079a1f80a5736f59d9cc6ceaf3f9edfc9",
  "time": 1237593962,
  "mediantime": 1237590312,
  "nonce": 2222466103,
  "bits": "1d00ffff",
  "difficulty": 1,
  "chainwork": "00000000000000000000000000000000000000000000000000001ff61ff61ff6",
  "nTx": 1,
  "previousblockhash": "00000000eefefddda4f86c29ec384785e4dd253f849b007a1f62f9191cc50c9f",
  "nextblockhash": "00000000f985ede57bfb30cf1ab942be3fe040abd6551830f7c7a3bbfed02174",
  "strippedsize": 216,
  "size": 216,
  "weight": 864,
  "tx": [
    {
      "txid": "fc6848391c7a6cbd9cb95d2105d6aea079a1f80a5736f59d9cc6ceaf3f9edfc9",
      "hash": "fc6848391c7a6cbd9cb95d2105d6aea079a1f80a5736f59d9cc6ceaf3f9edfc9",
      "version": 1,
      "size": 135,
      "vsize": 135,
      "weight": 540,
      "locktime": 0,
      "vin": [
        {
          "coinbase": "04ffff001d02a802",
          "sequence": 4294967295
        }
      ],
      "vout": [
        {
          "value": 50.0,
          "n": 0,
          "scriptPubKey": {
            "asm": "040bed1c0c0f9187ae5b29aa756e0db4655017f1b23059c34f31339b5abd5302c9a240bedd60cb0bfc8991ea7eb8fa6e5e03e7ce8d6a9d6e33f7e1db675033706f OP_CHECKSIG",
            "desc": "pk(040bed1c0c0f9187ae5b29aa756e0db4655017f1b23059c34f31339b5abd5302c9a240bedd60cb0bfc8991ea7eb8fa6e5e03e7ce8d6a9d6e33f7e1db675033706f)#yuzukgwa",
            "hex": "41040bed1c0c0f9187ae5b29aa756e0db4655017f1b23059c34f31339b5abd5302c9a240bedd60cb0bfc8991ea7eb8fa6e5e03e7ce8d6a9d6e33f7e1db675033706fac",
            "type": "pubkey"
          }
        }
      ],
      "hex": "01000000010000000000000000000000000000000000000000000000000000000000000000ffffffff0804ffff001d02a802ffffffff0100f2052a010000004341040bed1c0c0f9187ae5b29aa756e0db4655017f1b23059c34f31339b5abd5302c9a240bedd60cb0bfc8991ea7eb8fa6e5e03e7ce8d6a9d6e33f7e1db675033706fac00000000"
    }
  ]
}