{
  "hash": "000000007ba29cd871f3b083f3c742a38b5c23c16756bb9d7b0753d0797104d7",
  "confirmations": 45959,
  "height": 7139,
  "version": 1,
  "versionHex": "00000001",
  "merkleroot": "cfcee92a56a4130c1cee0fbbaffc4234f87f52efea379ae5f3c7ac549bca59aa",
  "time": 1236825290,
  "mediantime": 1236819598,
  "nonce": 151174827,
  "bits": "1d00ffff",
  "difficulty": 1,
  "chainwork": "00000000000000000000000000000000000000000000000000001be41be41be4",
  "nTx": 1,
  "previousblockhash": "00000000de5243c9bae6f197c7762df5dfcd37b2daa2e521cde4691826c81f4f",
  "nextblockhash": "00000000f5b28582ec2c9a0dfda17a1d79b7d3832e135db5d9ca537fa8c471eb",
  "strippedsize": 216,
  "size": 216,
  "weight": 864,
  "tx": [
    {
      "txid": "cfcee92a56a4130c1cee0fbbaffc4234f87f52efea379ae5f3c7ac549bca59aa",
      "hash": "cfcee92a56a4130c1cee0fbbaffc4234f87f52efea379ae5f3c7ac549bca59aa",
      "version": 1,
      "size": 135,
      "vsize": 135,
      "weight": 540,
      "locktime": 0,
      "vin": [
        {
          "coinbase": "04ffff001d029106",
          "sequence": 4294967295
        }
      ],
      "vout": [
        {
          "value": 50.0,
          "n": 0,
          "scriptPubKey": {
            "asm": "04ed5da2026cff54341af94113e19dbdf16300cebaea93a19444072371bf8d50b8e2797d450f975362ec7b34c2123e6b8dcc789bac761d5774abda6e58d42bf27e OP_CHECKSIG",
            "desc": "pk(04ed5da2026cff54341af94113e19dbdf16300cebaea93a19444072371bf8d50b8e2797d450f975362ec7b34c2123e6b8dcc789bac761d5774abda6e58d42bf27e)#smn9cr8l",
            "hex": "4104ed5da2026cff54341af94113e19dbdf16300cebaea93a19444072371bf8d50b8e2797d450f975362ec7b34c2123e6b8dcc789bac761d5774abda6e58d42bf27eac",
            "type": "pubkey"
          }
        }
      ],
      "hex": "01000000010000000000000000000000000000000000000000000000000000000000000000ffffffff0804ffff001d029106ffffffff0100f2052a01000000434104ed5da2026cff54341af94113e19dbdf16300cebaea93a19444072371bf8d50b8e2797d450f975362ec7b34c2123e6b8dcc789bac761d5774abda6e58d42bf27eac00000000"
    }
  ]
}