{
  "hash": "00000000577588f4ff0a77c1a5deced4ba97e4cf753c9a80b4213dac6438f7a7",
  "confirmations": 43892,
  "height": 9206,
  "version": 1,
  "versionHex": "00000001",
  "merkleroot": "e103e5b2b7e9ba59e6f35d8d12f68145da7429239e466960efd500201b9034c0",
  "time": 1238403460,
  "mediantime": 1238399521,
  "nonce": 284776059,
  "bits": "1d00ffff",
  "difficulty": 1,
  "chainwork": "000000000000000000000000000000000000000000000000000023f723f723f7",
  "nTx": 1,
  "previousblockhash": "00000000d8c7462406aecd109949b6acdebe5a60c1c63f97783e5281f331c296",
  "nextblockhash": "00000000714e1649e1aa808b989dc4e38c99bc9597ef7600d5129e499cc87abf",
  "strippedsize": 216,
  "size": 216,
  "weight": 864,
  "tx": [
    {
      "txid": "e103e5b2b7e9ba59e6f35d8d12f68145da7429239e466960efd500201b9034c0",
      "hash": "e103e5b2b7e9ba59e6f35d8d12f68145da7429239e466960efd500201b9034c0",
      "version": 1,
      "size": 135,
      "vsize": 135,
      "weight": 540,
      "locktime": 0,
      "vin": [
        {
          "coinbase": "04ffff001d02e105",
          "sequence": 4294967295
        }
      ],
      "vout": [
        {
          "value": 50.0,
          "n": 0,
          "scriptPubKey": {
            "asm": "04c57b3f01072098b75de3aaf743f88508e8a85f3228708134c8f96ad296ac0f2b3b86d0fd3d1b47855dcddf94e255e96a4d4a1d26c450349e8a8e2737d8d2a364 OP_CHECKSIG",
            "desc": "pk(04c57b3f01072098b75de3aaf743f88508e8a85f3228708134c8f96ad296ac0f2b3b86d0fd3d1b47855dcddf94e255e96a4d4a1d26c450349e8a8e2737d8d2a364)#2dddlnhj",
            "hex": "4104c57b3f01072098b75de3aaf743f88508e8a85f3228708134c8f96ad296ac0f2b3b86d0fd3d1b47855dcddf94e255e96a4d4a1d26c450349e8a8e2737d8d2a364ac",
            "type": "pubkey"
          }
        }
      ],
      "hex": "01000000010000000000000000000000000000000000000000000000000000000000000000ffffffff0804ffff001d02e105ffffffff0100f2052a01000000434104c57b3f01072098b75de3aaf743f88508e8a85f3228708134c8f96ad296ac0f2b3b86d0fd3d1b47855dcddf94e255e96a4d4a1d26c450349e8a8e2737d8d2a364ac00000000"
    }
  ]
}