{
  "hash": "00000000b442dac97577aad8d7530f80664023dd5634e13887563239ffb45f6a",
  "confirmations": 45684,
  "height": 7414,
  "version": 1,
  "versionHex": "00000001",
  "merkleroot": "59a2bcc8c18597d10405431b2aad045ded144a0dd934b34a5767bb574cea5239",
  "time": 1237033702,
  "mediantime": 1237030234,
  "nonce": 53588775,
  "bits": "1d00ffff",
  "difficulty": 1,
  "chainwork": "00000000000000000000000000000000000000000000000000001cf71cf71cf7",
  "nTx": 1,
  "previousblockhash": "00000000b7fc62d6c21633ede9a7c12b31527973bec7b05ef3a7347f115ad8c6",
  "nextblockhash": "00000000f87025fc25b08d602f23a4754d368fe8e3c9fc8505b1a101874dd1eb",
  "strippedsize": 216,
  "size": 216,
  "weight": 864,
  "tx": [
    {
      "txid": "59a2bcc8c18597d10405431b2aad045ded144a0dd934b34a5767bb574cea5239",
      "hash": "59a2bcc8c18597d10405431b2aad045ded144a0dd934b34a5767bb574cea5239",
      "version": 1,
      "size": 135,
      "vsize": 135,
      "weight": 540,
      "locktime": 0,
      "vin": [
        {
          "coinbase": "04ffff001d02ab09",
          "sequence": 4294967295
        }
      ],
      "vout": [
        {
          "value": 50.0,
          "n": 0,
          "scriptPubKey": {
            "asm": "04c58ccd5f779136de485f0e18a5397b1ad3f2dde6c35d27bca395af61a45f71dc4a1756c8a90ed7512ab5f424ad3619277526c89159ead87a91a4fc411497f71f OP_CHECKSIG",
            "desc": "pk(04c58ccd5f779136de485f0e18a5397b1ad3f2dde6c35d27bca395af61a45f71dc4a1756c8a90ed7512ab5f424ad3619277526c89159ead87a91a4fc411497f71f)#n7wayuuv",
            "hex": "4104c58ccd5f779136de485f0e18a5397b1ad3f2dde6c35d27bca395af61a45f71dc4a1756c8a90ed7512ab5f424ad3619277526c89159ead87a91a4fc411497f71fac",
            "type": "pubkey"
          }
        }
      ],
      "hex": "01000000010000000000000000000000000000000000000000000000000000000000000000ffffffff0804ffff001d02ab09ffffffff0100f2052a01000000434104c58ccd5f779136de485f0e18a5397b1ad3f2dde6c35d27bca395af61a45f71dc4a1756c8a90ed7512ab5f424ad3619277526c89159ead87a91a4fc411497f71fac00000000"
    }
  ]
}