{
  "hash": "0000000074c3a098f16c35b3084800a6a799bc59a46fbce5a27c9f4b47c8a9d7",
  "confirmations": 45574,
  "height": 7524,
  "version": 1,
  "versionHex": "00000001",
  "merkleroot": "682e4c320a2391a780e2d58fb6c7cb721105266033271f9a30f7e1d5cbf592e6",
  "time": 1237114633,
  "mediantime": 1237111008,
  "nonce": 3147280185,
  "bits": "1d00ffff",
  "difficulty": 1,
  "chainwork": "00000000000000000000000000000000000000000000000000001d651d651d65",
  "nTx": 1,
  "previousblockhash": "000000009b1e720db75188c7817356f9f1c0752b30f654d480fa4a6a8c3e7ecb",
  "nextblockhash": "0000000014294fe87ec41f84ceb3f2e84c7c1454d8f7512d99a614059d47c4c1",
  "strippedsize": 216,
  "size": 216,
  "weight": 864,
  "tx": [
    {
      "txid": "682e4c320a2391a780e2d58fb6c7cb721105266033271f9a30f7e1d5cbf592e6",
      "hash": "682e4c320a2391a780e2d58fb6c7cb721105266033271f9a30f7e1d5cbf592e6",
      "version": 1,
      "size": 135,
      "vsize": 135,
      "weight": 540,
      "locktime": 0,
      "vin": [
        {
          "coinbase": "04ffff001d025c01",
          "sequence": 4294967295
        }
      ],
      "vout": [
        {
          "value": 50.0,
          "n": 0,
          "scriptPubKey": {
            "asm": "04f191d4a502f68e7f0906ac990c6bd67f1d04d1fb5e79d4bba93c684c736b80b738adc94e747276f967aa0a8006ed59e29a57e5647b4ff4ea2765bb0ca831ec83 OP_CHECKSIG",
            "desc": "pk(04f191d4a502f68e7f0906ac990c6bd67f1d04d1fb5e79d4bba93c684c736b80b738adc94e747276f967aa0a8006ed59e29a57e5647b4ff4ea2765bb0ca831ec83)#3suycp2g",
            "hex": "4104f191d4a502f68e7f0906ac990c6bd67f1d04d1fb5e79d4bba93c684c736b80b738adc94e747276f967aa0a8006ed59e29a57e5647b4ff4ea2765bb0ca831ec83ac",
            "type": "pubkey"
          }
        }
      ],
      "hex": "01000000010000000000000000000000000000000000000000000000000000000000000000ffffffff0804ffff001d025c01ffffffff0100f2052a01000000434104f191d4a502f68e7f0906ac990c6bd67f1d04d1fb5e79d4bba93c684c736b80b738adc94e747276f967aa0a8006ed59e29a57e5647b4ff4ea2765bb0ca831ec83ac00000000"
    }
  ]
}