{
  "hash": "00000000fe6d533b5787262eda06ba7585fd527b5a7ffb39aab2e9cf49fa8205",
  "confirmations": 50893,
  "height": 2205,
  "version": 1,
  "versionHex": "00000001",
  "merkleroot": "5e3102c462101fa9a22ab4dec6947c516a02b3a568b73f85bba3980a208e5767",
  "time": 1233219365,
  "mediantime": 1233215459,
  "nonce": 292464376,
  "bits": "1d00ffff",
  "difficulty": 1,
  "chainwork": "0000000000000000000000000000000000000000000000000000089e089e089e",
  "nTx": 1,
  "previousblockhash": "0000000021fbd71a0e845db9ad31c9a3f31d79e2a8da66f460efeb1ad903c898",
  "nextblockhash": "0000000072f60db6866296490c6a70516b5258b7fce00ae379b6633f22ae0d66",
  "strippedsize": 215,
  "size": 215,
  "weight": 860,
  "tx": [
    {
      "txid": "5e3102c462101fa9a22ab4dec6947c516a02b3a568b73f85bba3980a208e5767",
      "hash": "5e3102c462101fa9a22ab4dec6947c516a02b3a568b73f85bba3980a208e5767",
      "version": 1,
      "size": 134,
      "vsize": 134,
      "weight": 536,
      "locktime": 0,
      "vin": [
        {
          "coinbase": "04ffff001d0160",
          "sequence": 4294967295
        }
      ],
      "vout": [
        {
          "value": 50.0,
          "n": 0,
          "scriptPubKey": {
            "asm": "04fe8d951be8b7b7059e5a53c0bfd5b363de62d25d8e581514eb420c526593d4fe3865fa600a44a4e322e41dbe6e5073ab24819ca8f6dc0ab306d7d53f3860989e OP_CHECKSIG",
            "desc": "pk(04fe8d951be8b7b7059e5a53c0bfd5b363de62d25d8e581514eb420c526593d4fe3865fa600a44a4e322e41dbe6e5073ab24819ca8f6dc0ab306d7d53f3860989e)#gskdpkfv",
            "hex": "4104fe8d951be8b7b7059e5a53c0bfd5b363de62d25d8e581514eb420c526593d4fe3865fa600a44a4e322e41dbe6e5073ab24819ca8f6dc0ab306d7d53f3860989eac",
            "type": "pubkey"
          }
        }
      ],
      "hex": "01000000010000000000000000000000000000000000000000000000000000000000000000ffffffff0704ffff001d0160ffffffff0100f2052a01000000434104fe8d951be8b7b7059e5a53c0bfd5b363de62d25d8e581514eb420c526593d4fe3865fa600a44a4e322e41dbe6e5073ab24819ca8f6dc0ab306d7d53f3860989eac00000000"
    }
  ]
}