{
  "hash": "0000000021b21c276e12d1b68c5f0ec98510702c0645f1d9e82ba157e70809fd",
  "confirmations": 49137,
  "height": 3961,
  "version": 1,
  "versionHex": "00000001",
  "merkleroot": "2712e84fa324ef17c03a8690dd9dc2a73106e8ba05d5e5f49f40d4a880a9de7d",
  "time": 1234413555,
  "mediantime": 1234410175,
  "nonce": 133084965,
  "bits": "1d00ffff",
  "difficulty": 1,
  "chainwork": "00000000000000000000000000000000000000000000000000000f7a0f7a0f7a",
  "nTx": 1,
  "previousblockhash": "00000000d218e41de99b3a609f095c4915d87946ebe92b433fb2b8b160ca768c",
  "nextblockhash": "00000000f5aa35ec827f4eda3fe153261dba3f6ee5956b0fde428f39b39843ea",
  "strippedsize": 216,
  "size": 216,
  "weight": 864,
  "tx": [
    {
      "txid": "2712e84fa324ef17c03a8690dd9dc2a73106e8ba05d5e5f49f40d4a880a9de7d",
      "hash": "2712e84fa324ef17c03a8690dd9dc2a73106e8ba05d5e5f49f40d4a880a9de7d",
      "version": 1,
      "size": 135,
      "vsize": 135,
      "weight": 540,
      "locktime": 0,
      "vin": [
        {
          "coinbase": "04ffff001d023301",
          "sequence": 4294967295
        }
      ],
      "vout": [
        {
          "value": 50.0,
          "n": 0,
          "scriptPubKey": {
            "asm": "04b34c8782dcbd3de0f156b0b9e070906e6bf0c79b09aa593586bf50d4b1639185b60b50962c92d6ce794e9319fd536f245044195f83d01932369364278ed6b5a0 OP_CHECKSIG",
            "desc": "pk(04b34c8782dcbd3de0f156b0b9e070906e6bf0c79b09aa593586bf50d4b1639185b60b50962c92d6ce794e9319fd536f245044195f83d01932369364278ed6b5a0)#5fnpj8de",
            "hex": "4104b34c8782dcbd3de0f156b0b9e070906e6bf0c79b09aa593586bf50d4b1639185b60b50962c92d6ce794e9319fd536f245044195f83d01932369364278ed6b5a0ac",
            "type": "pubkey"
          }
        }
      ],
      "hex": "01000000010000000000000000000000000000000000000000000000000000000000000000ffffffff0804ffff001d023301ffffffff0100f2052a01000000434104b34c8782dcbd3de0f156b0b9e070906e6bf0c79b09aa593586bf50d4b1639185b60b50962c92d6ce794e9319fd536f245044195f83d01932369364278ed6b5a0ac00000000"
    }
  ]
}