{
  "hash": "000000004527a1612412087d1a5ac150bf1df0b96685786fc4c76a844bfa35db",
  "confirmations": 50229,
  "height": 2869,
  "version": 1,
  "versionHex": "00000001",
  "merkleroot": "b77cfbcc4fa0aede0053a860a3d9e7e6ea9ec5a0797d070cf942904b05c7d0c3",
  "time": 1233671315,
  "mediantime": 1233667989,
  "nonce": 3817100826,
  "bits": "1d00ffff",
  "difficulty": 1,
  "chainwork": "00000000000000000000000000000000000000000000000000000b360b360b36",
  "nTx": 1,
  "previousblockhash": "000000001c65bd4a07dd7f2bd18344aa40b92f360f3d73f6deb1444b3501814f",
  "nextblockhash": "00000000be75c9903df78553c2ee4553a1932ca3b91d99d52bea6234dfabb4f7",
  "strippedsize": 216,
  "size": 216,
  "weight": 864,
  "tx": [
    {
      "txid": "b77cfbcc4fa0aede0053a860a3d9e7e6ea9ec5a0797d070cf942904b05c7d0c3",
      "hash": "b77cfbcc4fa0aede0053a860a3d9e7e6ea9ec5a0797d070cf942904b05c7d0c3",
      "version": 1,
      "size": 135,
      "vsize": 135,
      "weight": 540,
      "locktime": 0,
      "vin": [
        {
          "coinbase": "04ffff001d020007",
          "sequence": 4294967295
        }
      ],
      "vout": [
        {
          "value": 50.0,
          "n": 0,
          "scriptPubKey": {
            "asm": "04cf9f0c5f8bcf518945a7ad2216adb9d16a8b54fc7cfb5cb2cbef0c26bbe04295b67a2299dcb37220d383d06a130051bd99f7c6a7993a02df63286fac75c131d8 OP_CHECKSIG",
            "desc": "pk(04cf9f0c5f8bcf518945a7ad2216adb9d16a8b54fc7cfb5cb2cbef0c26bbe04295b67a2299dcb37220d383d06a130051bd99f7c6a7993a02df63286fac75c131d8)#3x6cf2wh",
            "hex": "4104cf9f0c5f8bcf518945a7ad2216adb9d16a8b54fc7cfb5cb2cbef0c26bbe04295b67a2299dcb37220d383d06a130051bd99f7c6a7993a02df63286fac75c131d8ac",
            "type": "pubkey"
          }
        }
      ],
      "hex": "01000000010000000000000000000000000000000000000000000000000000000000000000ffffffff0804ffff001d020007ffffffff0100f2052a01000000434104cf9f0c5f8bcf518945a7ad2216adb9d16a8b54fc7cfb5cb2cbef0c26bbe04295b67a2299dcb37220d383d06a130051bd99f7c6a7993a02df63286fac75c131d8ac00000000"
    }
  ]
}