{
  "hash": "00000000b51d2b9f5faa149787d633d4c257c2c4af5903e07fcd7734683ebf34",
  "confirmations": 44305,
  "height": 8793,
  "version": 1,
  "versionHex": "00000001",
  "merkleroot": "ce5c922c3d287840add7237bb0f0bf5dc745843e613f3b52ca7daee0d84d5ae2",
  "time": 1238096438,
  "mediantime": 1238091315,
  "nonce": 2692623636,
  "bits": "1d00ffff",
  "difficulty": 1,
  "chainwork": "0000000000000000000000000000000000000000000000000000225a225a225a",
  "nTx": 1,
  "previousblockhash": "0000000065c6b8e8013a87f447703a98e5857a264fd6b4c3216d12e74c69cd07",
  "nextblockhash": "00000000bf5e73ae585023f0b2a7a376f086af52744fe3b0fab79028757e6e4d",
  "strippedsize": 216,
  "size": 216,
  "weight": 864,
  "tx": [
    {
      "txid": "ce5c922c3d287840add7237bb0f0bf5dc745843e613f3b52ca7daee0d84d5ae2",
      "hash": "ce5c922c3d287840add7237bb0f0bf5dc745843e613f3b52ca7daee0d84d5ae2",
      "version": 1,
      "size": 135,
      "vsize": 135,
      "weight": 540,
      "locktime": 0,
      "vin": [
        {
          "coinbase": "04ffff001d02a702",
          "sequence": 4294967295
        }
      ],
      "vout": [
        {
          "value": 50.0,
          "n": 0,
          "scriptPubKey": {
            "asm": "04bd2fe7179a43ebd8ff190eaa480df4a2fe9d5a625e2b522909e2f38c72d234183aa782e6fcb266050c7f900eb992f4c65bc340daa4452919a773097aa0282954 OP_CHECKSIG",
            "desc": "pk(04bd2fe7179a43ebd8ff190eaa480df4a2fe9d5a625e2b522909e2f38c72d234183aa782e6fcb266050c7f900eb992f4c65bc340daa4452919a773097aa0282954)#gxml77hr",
            "hex": "4104bd2fe7179a43ebd8ff190eaa480df4a2fe9d5a625e2b522909e2f38c72d234183aa782e6fcb266050c7f900eb992f4c65bc340daa4452919a773097aa0282954ac",
            "type": "pubkey"
          }
        }
      ],
      "hex": "01000000010000000000000000000000000000000000000000000000000000000000000000ffffffff0804ffff001d02a702ffffffff0100f2052a01000000434104bd2fe7179a43ebd8ff190eaa480df4a2fe9d5a625e2b522909e2f38c72d234183aa782e6fcb266050c7f900eb992f4c65bc340daa4452919a773097aa0282954ac00000000"
    }
  ]
}