{
  "hash": "00000000d648126dda6e110d9b04870bcdb4063eff02538d84a1212208feabf3",
  "confirmations": 51289,
  "height": 1809,
  "version": 1,
  "versionHex": "00000001",
  "merkleroot": "abb23470042419e92b1feaa1657464cb456eea842030e8689b5e86963c9f0d70",
  "time": 1232903268,
  "mediantime": 1232900700,
  "nonce": 3171905074,
  "bits": "1d00ffff",
  "difficulty": 1,
  "chainwork": "0000000000000000000000000000000000000000000000000000071207120712",
  "nTx": 1,
  "previousblockhash": "00000000ffd7ae8a525d0083ee8384e13a6cbe1f1218f9ae26a637fbc2093a05",
  "nextblockhash": "0000000047d5a0870320bfe1a147312bc5a042d8e3e25dcf1bb72b5a7f23ac65",
  "strippedsize": 216,
  "size": 216,
  "weight": 864,
  "tx": [
    {
      "txid": "abb23470042419e92b1feaa1657464cb456eea842030e8689b5e86963c9f0d70",
      "hash": "abb23470042419e92b1feaa1657464cb456eea842030e8689b5e86963c9f0d70",
      "version": 1,
      "size": 135,
      "vsize": 135,
      "weight": 540,
      "locktime": 0,
      "vin": [
        {
          "coinbase": "04ffff001d024104",
          "sequence": 4294967295
        }
      ],
      "vout": [
        {
          "value": 50.0,
          "n": 0,
          "scriptPubKey": {
            "asm": "04a634c79fb4c15da4306a16375f68fccdf99e24519fbbf835edad184860ef3b72339daa105b796511a8104be47e947698c9a166401a1a7253acbf8150f1309cef OP_CHECKSIG",
            "desc": "pk(04a634c79fb4c15da4306a16375f68fccdf99e24519fbbf835edad184860ef3b72339daa105b796511a8104be47e947698c9a166401a1a7253acbf8150f1309cef)#p7segxmk",
            "hex": "4104a634c79fb4c15da4306a16375f68fccdf99e24519fbbf835edad184860ef3b72339daa105b796511a8104be47e947698c9a166401a1a7253acbf8150f1309cefac",
            "type": "pubkey"
          }
        }
      ],
      "hex": "01000000010000000000000000000000000000000000000000000000000000000000000000ffffffff0804ffff001d024104ffffffff0100f2052a01000000434104a634c79fb4c15da4306a16375f68fccdf99e24519fbbf835edad184860ef3b72339daa105b796511a8104be47e947698c9a166401a1a7253acbf8150f1309cefac00000000"
    }
  ]
}