{
  "hash": "0000000007ad878503edfe3067070222fe23fb3587f6a23729df9408447cb0f7",
  "confirmations": 44742,
  "height": 8356,
  "version": 1,
  "versionHex": "00000001",
  "merkleroot": "ec3e53039c513afe09a5e08e109dd94b0aa7744733da827c461160c7803a1ff9",
  "time": 1237772179,
  "mediantime": 1237767710,
  "nonce": 62652639,
  "bits": "1d00ffff",
  "difficulty": 1,
  "chainwork": "000000000000000000000000000000000000000000000000000020a520a520a5",
  "nTx": 1,
  "previousblockhash": "0000000079deffd6309fecdbbf5f7420d79a45af747df1ec71d316a02c0640a0",
  "nextblockhash": "0000000040621f33019e2f9d8bb8bd0b666aad435c94df1fb86e64b8146cf86b",
  "strippedsize": 216,
  "size": 216,
  "weight": 864,
  "tx": [
    {
      "txid": "ec3e53039c513afe09a5e08e109dd94b0aa7744733da827c461160c7803a1ff9",
      "hash": "ec3e53039c513afe09a5e08e109dd94b0aa7744733da827c461160c7803a1ff9",
      "version": 1,
      "size": 135,
      "vsize": 135,
      "weight": 540,
      "locktime": 0,
      "vin": [
        {
          "coinbase": "04ffff001d02b802",
          "sequence": 4294967295
        }
      ],
      "vout": [
        {
          "value": 50.0,
          "n": 0,
          "scriptPubKey": {
            "asm": "04856be669edbfda7be51b927b09156833ef31734e621cf6bd577f049c348355591e158f7abee56ef31303497ed8fe3857c4c8664974c714dd35be739f9fd86faa OP_CHECKSIG",
            "desc": "pk(04856be669edbfda7be51b927b09156833ef31734e621cf6bd577f049c348355591e158f7abee56ef31303497ed8fe3857c4c8664974c714dd35be739f9fd86faa)#uzw3as8e",
            "hex": "4104856be669edbfda7be51b927b09156833ef31734e621cf6bd577f049c348355591e158f7abee56ef31303497ed8fe3857c4c8664974c714dd35be739f9fd86faaac",
            "type": "pubkey"
          }
        }
      ],
      "hex": "01000000010000000000000000000000000000000000000000000000000000000000000000ffffffff0804ffff001d02b802ffffffff0100f2052a01000000434104856be669edbfda7be51b927b09156833ef31734e621cf6bd577f049c348355591e158f7abee56ef31303497ed8fe3857c4c8664974c714dd35be739f9fd86faaac00000000"
    }
  ]
}