{
  "hash": "00000000f2c4d9b29a159aea94962590b23485560002754f850b77931a5e075e",
  "confirmations": 43228,
  "height": 9870,
  "version": 1,
  "versionHex": "00000001",
  "merkleroot": "7dd8256502e0140d8450c898406fa3aa5aa6d0f2d2384e4625c11f9e42f5d7bb",
  "time": 1238906032,
  "mediantime": 1238903116,
  "nonce": 70028460,
  "bits": "1d00ffff",
  "difficulty": 1,
  "chainwork": "0000000000000000000000000000000000000000000000000000268f268f268f",
  "nTx": 1,
  "previousblockhash": "00000000e975fdbc72e2f3120a5692299a08d1119f4d31f1f78298f98f3f6b81",
  "nextblockhash": "000000006d3d2980b9c32d15159d096877af85bfae5477556f5609bdfe6f9727",
  "strippedsize": 216,
  "size": 216,
  "weight": 864,
  "tx": [
    {
      "txid": "7dd8256502e0140d8450c898406fa3aa5aa6d0f2d2384e4625c11f9e42f5d7bb",
      "hash": "7dd8256502e0140d8450c898406fa3aa5aa6d0f2d2384e4625c11f9e42f5d7bb",
      "version": 1,
      "size": 135,
      "vsize": 135,
      "weight": 540,
      "locktime": 0,
      "vin": [
        {
          "coinbase": "04ffff001d02eb00",
          "sequence": 4294967295
        }
      ],
      "vout": [
        {
          "value": 50.0,
          "n": 0,
          "scriptPubKey": {
            "asm": "04aeff0efceee99e0b880ec0aaf8694449da99a2fdf6b2b5715ef115aca8890c42ecd7efa5d57ef755cf0df4eaf0ec53109acdbcf09f1a696333dff8ad2d0fe7a7 OP_CHECKSIG",
            "desc": "pk(04aeff0efceee99e0b880ec0aaf8694449da99a2fdf6b2b5715ef115aca8890c42ecd7efa5d57ef755cf0df4eaf0ec53109acdbcf09f1a696333dff8ad2d0fe7a7)#4ql3tlyj",
            "hex": "4104aeff0efceee99e0b880ec0aaf8694449da99a2fdf6b2b5715ef115aca8890c42ecd7efa5d57ef755cf0df4eaf0ec53109acdbcf09f1a696333dff8ad2d0fe7a7ac",
            "type": "pubkey"
          }
        }
      ],
      "hex": "01000000010000000000000000000000000000000000000000000000000000000000000000ffffffff0804ffff001d02eb00ffffffff0100f2052a01000000434104aeff0efceee99e0b880ec0aaf8694449da99a2fdf6b2b5715ef115aca8890c42ecd7efa5d57ef755cf0df4eaf0ec53109acdbcf09f1a696333dff8ad2d0fe7a7ac00000000"
    }
  ]
}