{
  "hash": "000000004b3d9501669152bc65bd56eba1992da6737c8c454662ad7ba7b5e443",
  "confirmations": 52493,
  "height": 605,
  "version": 1,
  "versionHex": "00000001",
  "merkleroot": "b2c6bf5c6a747f3ec83562ad93d60e1c3c3082be8ed59ccf389b9c5199acc0c4",
  "time": 1232041720,
  "mediantime": 1232038747,
  "nonce": 2139073576,
  "bits": "1d00ffff",
  "difficulty": 1,
  "chainwork": "0000000000000000000000000000000000000000000000000000025e025e025e",
  "nTx": 1,
  "previousblockhash": "00000000d8090bee52f17b5b4042b3ccd4f5d018419efaaaf2a8f0cf613f6273",
  "nextblockhash": "000000008aabb7df8289ae5fea5e3a5ddb5ae9725193d6421d5e9abf42a8272c",
  "strippedsize": 216,
  "size": 216,
  "weight": 864,
  "tx": [
    {
      "txid": "b2c6bf5c6a747f3ec83562ad93d60e1c3c3082be8ed59ccf389b9c5199acc0c4",
      "hash": "b2c6bf5c6a747f3ec83562ad93d60e1c3c3082be8ed59ccf389b9c5199acc0c4",
      "version": 1,
      "size": 135,
      "vsize": 135,
      "weight": 540,
      "locktime": 0,
      "vin": [
        {
          "coinbase": "04ffff001d02cb06",
          "sequence": 4294967295
        }
      ],
      "vout": [
        {
          "value": 50.0,
          "n": 0,
          "scriptPubKey": {
            "asm": "04c732d73cf880044cacf20d5d50ebbc26d35574b348f614161735dca191785a3dfb53c12be6dc5cbe9653208b06dae86e5936bd62c94a8001fe3446095e1102c0 OP_CHECKSIG",
            "desc": "pk(04c732d73cf880044cacf20d5d50ebbc26d35574b348f614161735dca191785a3dfb53c12be6dc5cbe9653208b06dae86e5936bd62c94a8001fe3446095e1102c0)#jdfcw76w",
            "hex": "4104c732d73cf880044cacf20d5d50ebbc26d35574b348f614161735dca191785a3dfb53c12be6dc5cbe9653208b06dae86e5936bd62c94a8001fe3446095e1102c0ac",
            "type": "pubkey"
          }
        }
      ],
      "hex": "01000000010000000000000000000000000000000000000000000000000000000000000000ffffffff0804ffff001d02cb06ffffffff0100f2052a01000000434104c732d73cf880044cacf20d5d50ebbc26d35574b348f614161735dca191785a3dfb53c12be6dc5cbe9653208b06dae86e5936bd62c94a8001fe3446095e1102c0ac00000000"
    }
  ]
}