{
  "hash": "00000000d040404ade368aae49e4d4603feacf06ac7beb9777aa0872035b3eef",
  "confirmations": 47337,
  "height": 5761,
  "version": 1,
  "versionHex": "00000001",
  "merkleroot": "4749052582b5589b9fed2fbb6cd392177c61799c24fc156674c69203206abdf5",
  "time": 1235731465,
  "mediantime": 1235728431,
  "nonce": 925875234,
  "bits": "1d00ffff",
  "difficulty": 1,
  "chainwork": "0000000000000000000000000000000000000000000000000000168216821682",
  "nTx": 1,
  "previousblockhash": "00000000cb6837d0f4a6a7e8dc60012b3dbfb741166685b10798f2c5eea2224d",
  "nextblockhash": "00000000507fcfe6138eaf4ebbb1766337d78bbbda1f5e15fba2c822d77ec01c",
  "strippedsize": 215,
  "size": 215,
  "weight": 860,
  "tx": [
    {
      "txid": "4749052582b5589b9fed2fbb6cd392177c61799c24fc156674c69203206abdf5",
      "hash": "4749052582b5589b9fed2fbb6cd392177c61799c24fc156674c69203206abdf5",
      "version": 1,
      "size": 134,
      "vsize": 134,
      "weight": 536,
      "locktime": 0,
      "vin": [
        {
          "coinbase": "04ffff001d012d",
          "sequence": 4294967295
        }
      ],
      "vout": [
        {
          "value": 50.0,
          "n": 0,
          "scriptPubKey": {
            "asm": "04fe8f4892fcd32cbfe9e4332ba40bf6dd1f3e6b6930b962e20f8d23112614ba8e5130533ada1d56e2cf073d077231e8f74704cab079415d9d52861727112a95a7 OP_CHECKSIG",
            "desc": "pk(04fe8f4892fcd32cbfe9e4332ba40bf6dd1f3e6b6930b962e20f8d23112614ba8e5130533ada1d56e2cf073d077231e8f74704cab079415d9d52861727112a95a7)#7tklgdsu",
            "hex": "4104fe8f4892fcd32cbfe9e4332ba40bf6dd1f3e6b6930b962e20f8d23112614ba8e5130533ada1d56e2cf073d077231e8f74704cab079415d9d52861727112a95a7ac",
            "type": "pubkey"
          }
        }
      ],
      "hex": "01000000010000000000000000000000000000000000000000000000000000000000000000ffffffff0704ffff001d012dffffffff0100f2052a01000000434104fe8f4892fcd32cbfe9e4332ba40bf6dd1f3e6b6930b962e20f8d23112614ba8e5130533ada1d56e2cf073d077231e8f74704cab079415d9d52861727112a95a7ac00000000"
    }
  ]
}