{
  "hash": "00000000070e077b416f3fa9be59ae962bc8f1599563b3ad73d022e3b5569d26",
  "confirmations": 45082,
  "height": 8016,
  "version": 1,
  "versionHex": "00000001",
  "merkleroot": "270145f13e08fff0970180f3d15026f3edc8d71678937005041ece44c8b034a7",
  "time": 1237474979,
  "mediantime": 1237469010,
  "nonce": 442884391,
  "bits": "1d00ffff",
  "difficulty": 1,
  "chainwork": "00000000000000000000000000000000000000000000000000001f511f511f51",
  "nTx": 1,
  "previousblockhash": "000000008c4c38b7f1a04cc980b2a4abbc4b2f1ac0f7d03514d779836706bad5",
  "nextblockhash": "000000007adb415a2043547344723e0e1f802c0371229903c13312817d94d1b2",
  "strippedsize": 216,
  "size": 216,
  "weight": 864,
  "tx": [
    {
      "txid": "270145f13e08fff0970180f3d15026f3edc8d71678937005041ece44c8b034a7",
      "hash": "270145f13e08fff0970180f3d15026f3edc8d71678937005041ece44c8b034a7",
      "version": 1,
      "size": 135,
      "vsize": 135,
      "weight": 540,
      "locktime": 0,
      "vin": [
        {
          "coinbase": "04ffff001d02cb09",
          "sequence": 4294967295
        }
      ],
      "vout": [
        {
          "value": 50.0,
          "n": 0,
          "scriptPubKey": {
            "asm": "0438228d00a74b1e6e4559885aec331fe17240c58896b994363af16e5937a8ed5fc06c4bd8e664c8741cf2cfda3044f5b4e7f74bbe847d18e6184df37a7ecccb58 OP_CHECKSIG",
            "desc": "pk(0438228d00a74b1e6e4559885aec331fe17240c58896b994363af16e5937a8ed5fc06c4bd8e664c8741cf2cfda3044f5b4e7f74bbe847d18e6184df37a7ecccb58)#099ks0nt",
            "hex": "410438228d00a74b1e6e4559885aec331fe17240c58896b994363af16e5937a8ed5fc06c4bd8e664c8741cf2cfda3044f5b4e7f74bbe847d18e6184df37a7ecccb58ac",
            "type": "pubkey"
          }
        }
      ],
      "hex": "01000000010000000000000000000000000000000000000000000000000000000000000000ffffffff0804ffff001d02cb09ffffffff0100f2052a0100000043410438228d00a74b1e6e4559885aec331fe17240c58896b994363af16e5937a8ed5fc06c4bd8e664c8741cf2cfda3044f5b4e7f74bbe847d18e6184df37a7ecccb58ac00000000"
    }
  ]
}