{
  "hash": "00000000d85f22d6e6cbaf3588b8b0b31d7d563220d29e15e561b5fbc60b3e4f",
  "confirmations": 46461,
  "height": 6637,
  "version": 1,
  "versionHex": "00000001",
  "merkleroot": "62cb1a9b58e486d76554377db42ce5f4e3233e3c37105ec8d419e92cb6a16d18",
  "time": 1236432808,
  "mediantime": 1236428246,
  "nonce": 3160592665,
  "bits": "1d00ffff",
  "difficulty": 1,
  "chainwork": "000000000000000000000000000000000000000000000000000019ee19ee19ee",
  "nTx": 1,
  "previousblockhash": "000000001a8ba6a0c8a7ffcd81b1611c3d383b1d8d4b58ff48053be236daa789",
  "nextblockhash": "0000000049c16417c7396e9c7ac62a3549d874e86ca17664e8a55664bfc27cc0",
  "strippedsize": 216,
  "size": 216,
  "weight": 864,
  "tx": [
    {
      "txid": "62cb1a9b58e486d76554377db42ce5f4e3233e3c37105ec8d419e92cb6a16d18",
      "hash": "62cb1a9b58e486d76554377db42ce5f4e3233e3c37105ec8d419e92cb6a16d18",
      "version": 1,
      "size": 135,
      "vsize": 135,
      "weight": 540,
      "locktime": 0,
      "vin": [
        {
          "coinbase": "04ffff001d02d405",
          "sequence": 4294967295
        }
      ],
      "vout": [
        {
          "value": 50.0,
          "n": 0,
          "scriptPubKey": {
            "asm": "04cf14a508619eceda43e315af9d82dbbd4b2ded5f0082b45c76279cf522809cf659d2c1f31db141735cf86c4eb60d73aaf58e3e1d033bb875dadb1b8d0edf013d OP_CHECKSIG",
            "desc": "pk(04cf14a508619eceda43e315af9d82dbbd4b2ded5f0082b45c76279cf522809cf659d2c1f31db141735cf86c4eb60d73aaf58e3e1d033bb875dadb1b8d0edf013d)#u29tzf7m",
            "hex": "4104cf14a508619eceda43e315af9d82dbbd4b2ded5f0082b45c76279cf522809cf659d2c1f31db141735cf86c4eb60d73aaf58e3e1d033bb875dadb1b8d0edf013dac",
            "type": "pubkey"
          }
        }
      ],
      "hex": "01000000010000000000000000000000000000000000000000000000000000000000000000ffffffff0804ffff001d02d405ffffffff0100f2052a01000000434104cf14a508619eceda43e315af9d82dbbd4b2ded5f0082b45c76279cf522809cf659d2c1f31db141735cf86c4eb60d73aaf58e3e1d033bb875dadb1b8d0edf013dac00000000"
    }
  ]
}