{
  "hash": "0000000005739b3ef37179a3dad62c474f97c442e834f8566384655c3314dd29",
  "confirmations": 44941,
  "height": 8157,
  "version": 1,
  "versionHex": "00000001",
  "merkleroot": "a5d64927a2da4a0691a65d96515a661bfe46669156e6b7f721224d65a856cab1",
  "time": 1237577090,
  "mediantime": 1237574905,
  "nonce": 1220096314,
  "bits": "1d00ffff",
  "difficulty": 1,
  "chainwork": "00000000000000000000000000000000000000000000000000001fde1fde1fde",
  "nTx": 1,
  "previousblockhash": "000000004a0becb8491740bfce48520ef85de9af29e10fca28f72c4b9b988643",
  "nextblockhash": "00000000a503c2c6344e711fa2780712b49500c0b35a250b92f40c64544c8b69",
  "strippedsize": 216,
  "size": 216,
  "weight": 864,
  "tx": [
    {
      "txid": "a5d64927a2da4a0691a65d96515a661bfe46669156e6b7f721224d65a856cab1",
      "hash": "a5d64927a2da4a0691a65d96515a661bfe46669156e6b7f721224d65a856cab1",
      "version": 1,
      "size": 135,
      "vsize": 135,
      "weight": 540,
      "locktime": 0,
      "vin": [
        {
          "coinbase": "04ffff001d021202",
          "sequence": 4294967295
        }
      ],
      "vout": [
        {
          "value": 50.0,
          "n": 0,
          "scriptPubKey": {
            "asm": "0416fd4dd929695bb0ffbd852b859a4f5d115127b57a8dad76578e0c61099d74cd560c35ede0f376f193867dcf1842583ff52417df9f31bbebdefe3ee8e6746ef1 OP_CHECKSIG",
            "desc": "pk(0416fd4dd929695bb0ffbd852b859a4f5d115127b57a8dad76578e0c61099d74cd560c35ede0f376f193867dcf1842583ff52417df9f31bbebdefe3ee8e6746ef1)#xyafn8e4",
            "hex": "410416fd4dd929695bb0ffbd852b859a4f5d115127b57a8dad76578e0c61099d74cd560c35ede0f376f193867dcf1842583ff52417df9f31bbebdefe3ee8e6746ef1ac",
            "type": "pubkey"
          }
        }
      ],
      "hex": "01000000010000000000000000000000000000000000000000000000000000000000000000ffffffff0804ffff001d021202ffffffff0100f2052a0100000043410416fd4dd929695bb0ffbd852b859a4f5d115127b57a8dad76578e0c61099d74cd560c35ede0f376f193867dcf1842583ff52417df9f31bbebdefe3ee8e6746ef1ac00000000"
    }
  ]
}