{
  "hash": "00000000a057b385ed2d1d7c18715f4d7de083c5ba9f822e494712f0f3e95451",
  "confirmations": 50094,
  "height": 3004,
  "version": 1,
  "versionHex": "00000001",
  "merkleroot": "2b51ba6e7447848e1154599ffda6a844b51806bba54c220e2aa66c3b34223c7b",
  "time": 1233765836,
  "mediantime": 1233760999,
  "nonce": 232100754,
  "bits": "1d00ffff",
  "difficulty": 1,
  "chainwork": "00000000000000000000000000000000000000000000000000000bbd0bbd0bbd",
  "nTx": 1,
  "previousblockhash": "000000003c0189a438845b13551ce64dbf5840c9375495ef0fdad0503de4feac",
  "nextblockhash": "00000000625d1042ec41ebe2215a9bc24fb66efb87301f31db890819f917bf17",
  "strippedsize": 216,
  "size": 216,
  "weight": 864,
  "tx": [
    {
      "txid": "2b51ba6e7447848e1154599ffda6a844b51806bba54c220e2aa66c3b34223c7b",
      "hash": "2b51ba6e7447848e1154599ffda6a844b51806bba54c220e2aa66c3b34223c7b",
      "version": 1,
      "size": 135,
      "vsize": 135,
      "weight": 540,
      "locktime": 0,
      "vin": [
        {
          "coinbase": "04ffff001d020002",
          "sequence": 4294967295
        }
      ],
      "vout": [
        {
          "value": 50.0,
          "n": 0,
          "scriptPubKey": {
            "asm": "0465379aa747aa2964b0ec8c3f8450139e7ecfec039fbc3e1cab0ed1996509be8351b0705a7aa92d40e181f57f7642035b54da422129a7a7d86dbdf3f5e7afa4ab OP_CHECKSIG",
            "desc": "pk(0465379aa747aa2964b0ec8c3f8450139e7ecfec039fbc3e1cab0ed1996509be8351b0705a7aa92d40e181f57f7642035b54da422129a7a7d86dbdf3f5e7afa4ab)#kffsnlcc",
            "hex": "410465379aa747aa2964b0ec8c3f8450139e7ecfec039fbc3e1cab0ed1996509be8351b0705a7aa92d40e181f57f7642035b54da422129a7a7d86dbdf3f5e7afa4abac",
            "type": "pubkey"
          }
        }
      ],
      "hex": "01000000010000000000000000000000000000000000000000000000000000000000000000ffffffff0804ffff001d020002ffffffff0100f2052a0100000043410465379aa747aa2964b0ec8c3f8450139e7ecfec039fbc3e1cab0ed1996509be8351b0705a7aa92d40e181f57f7642035b54da422129a7a7d86dbdf3f5e7afa4abac00000000"
    }
  ]
}