{
  "hash": "000000008537e6e3e13087f759131c1e435a647a0064c3f43815ed3b702b19c2",
  "confirmations": 46910,
  "height": 6188,
  "version": 1,
  "versionHex": "00000001",
  "merkleroot": "485ec7ee20529824a89757a4cb34076bb40b2f6652530cffed0c311cfaf7a59d",
  "time": 1236082934,
  "mediantime": 1236078728,
  "nonce": 3097973035,
  "bits": "1d00ffff",
  "difficulty": 1,
  "chainwork": "0000000000000000000000000000000000000000000000000000182d182d182d",
  "nTx": 1,
  "previousblockhash": "000000008032e2398a53bba8db9a4c60fe5bca798b6f4f77e355b7be20281a4f",
  "nextblockhash": "00000000e01bc2b420a9005f6df58fe070e5227089b6cc7bfbfa34f5ec77c033",
  "strippedsize": 216,
  "size": 216,
  "weight": 864,
  "tx": [
    {
      "txid": "485ec7ee20529824a89757a4cb34076bb40b2f6652530cffed0c311cfaf7a59d",
      "hash": "485ec7ee20529824a89757a4cb34076bb40b2f6652530cffed0c311cfaf7a59d",
      "version": 1,
      "size": 135,
      "vsize": 135,
      "weight": 540,
      "locktime": 0,
      "vin": [
        {
          "coinbase": "04ffff001d024f08",
          "sequence": 4294967295
        }
      ],
      "vout": [
        {
          "value": 50.0,
          "n": 0,
          "scriptPubKey": {
            "asm": "04639b7c9b7849120546a1752a4563751478ecc0f9117251117bb6827cad57597c7e2d9a3373c31f878cb9bb684a4729c3b5baf801ea8879013ba6053c32697f1b OP_CHECKSIG",
            "desc": "pk(04639b7c9b7849120546a1752a4563751478ecc0f9117251117bb6827cad57597c7e2d9a3373c31f878cb9bb684a4729c3b5baf801ea8879013ba6053c32697f1b)#gueyzjr6",
            "hex": "4104639b7c9b7849120546a1752a4563751478ecc0f9117251117bb6827cad57597c7e2d9a3373c31f878cb9bb684a4729c3b5baf801ea8879013ba6053c32697f1bac",
            "type": "pubkey"
          }
        }
      ],
      "hex": "01000000010000000000000000000000000000000000000000000000000000000000000000ffffffff0804ffff001d024f08ffffffff0100f2052a01000000434104639b7c9b7849120546a1752a4563751478ecc0f9117251117bb6827cad57597c7e2d9a3373c31f878cb9bb684a4729c3b5baf801ea8879013ba6053c32697f1bac00000000"
    }
  ]
}