{
  "hash": "000000007feefb009f38a0a5cc4d0a709e34e40668e485c4de41218d9ab58d2f",
  "confirmations": 46322,
  "height": 6776,
  "version": 1,
  "versionHex": "00000001",
  "merkleroot": "212b2687c7c002010617be56ec4ce6781ea419b07494114e90e25a12625d7a2b",
  "time": 1236541444,
  "mediantime": 1236537793,
  "nonce": 94659039,
  "bits": "1d00ffff",
  "difficulty": 1,
  "chainwork": "00000000000000000000000000000000000000000000000000001a791a791a79",
  "nTx": 1,
  "previousblockhash": "000000008ca2f9173c925ab91de3664a09f3b4f3c5b03c9edf62f0bddefe65c1",
  "nextblockhash": "00000000d7ccdee2392ff41869997b48eb74e185fcd3641b8601fdec2836ec1a",
  "strippedsize": 215,
  "size": 215,
  "weight": 860,
  "tx": [
    {
      "txid": "212b2687c7c002010617be56ec4ce6781ea419b07494114e90e25a12625d7a2b",
      "hash": "212b2687c7c002010617be56ec4ce6781ea419b07494114e90e25a12625d7a2b",
      "version": 1,
      "size": 134,
      "vsize": 134,
      "weight": 536,
      "locktime": 0,
      "vin": [
        {
          "coinbase": "04ffff001d0107",
          "sequence": 4294967295
        }
      ],
      "vout": [
        {
          "value": 50.0,
          "n": 0,
          "scriptPubKey": {
            "asm": "045c75eb81953d7f0b05ffd59b9367ab5da148a47e2d7361994af84d26f4568446a3948528558a0d108d962f5400df99afb34c89658dfc8285890972f2717bc3f3 OP_CHECKSIG",
            "desc": "pk(045c75eb81953d7f0b05ffd59b9367ab5da148a47e2d7361994af84d26f4568446a3948528558a0d108d962f5400df99afb34c89658dfc8285890972f2717bc3f3)#prayektu",
            "hex": "41045c75eb81953d7f0b05ffd59b9367ab5da148a47e2d7361994af84d26f4568446a3948528558a0d108d962f5400df99afb34c89658dfc8285890972f2717bc3f3ac",
            "type": "pubkey"
          }
        }
      ],
      "hex": "01000000010000000000000000000000000000000000000000000000000000000000000000ffffffff0704ffff001d0107ffffffff0100f2052a010000004341045c75eb81953d7f0b05ffd59b9367ab5da148a47e2d7361994af84d26f4568446a3948528558a0d108d962f5400df99afb34c89658dfc8285890972f2717bc3f3ac00000000"
    }
  ]
}