{
  "hash": "00000000967f7ac20907833790bbcb4f4736b6a65caa0b17889c6545c73854db",
  "confirmations": 47104,
  "height": 5994,
  "version": 1,
  "versionHex": "00000001",
  "merkleroot": "086fa14e71cf86a71f12c33e2ed1335e91d9af30adadd5bc217001c97c994cba",
  "time": 1235922966,
  "mediantime": 1235920039,
  "nonce": 2670190630,
  "bits": "1d00ffff",
  "difficulty": 1,
  "chainwork": "0000000000000000000000000000000000000000000000000000176b176b176b",
  "nTx": 1,
  "previousblockhash": "00000000008cd551822768cf78bfd9ffdc68471338636ce7cfb5b22822f0aa74",
  "nextblockhash": "00000000de682f326548f8870a0e65f75cd93a04d47d42fdbf300b7dffe6fdeb",
  "strippedsize": 216,
  "size": 216,
  "weight": 864,
  "tx": [
    {
      "txid": "086fa14e71cf86a71f12c33e2ed1335e91d9af30adadd5bc217001c97c994cba",
      "hash": "086fa14e71cf86a71f12c33e2ed1335e91d9af30adadd5bc217001c97c994cba",
      "version": 1,
      "size": 135,
      "vsize": 135,
      "weight": 540,
      "locktime": 0,
      "vin": [
        {
          "coinbase": "04ffff001d02db04",
          "sequence": 4294967295
        }
      ],
      "vout": [
        {
          "value": 50.0,
          "n": 0,
          "scriptPubKey": {
            "asm": "04b67fcdbb9584809332187ed5cfb24c1646c8687ccc8f0002838ec3b69ca406b5ee1b73e2a9e895a295ec3022ef8cd3b27027c65995e3fdf1a16cce20db813af3 OP_CHECKSIG",
            "desc": "pk(04b67fcdbb9584809332187ed5cfb24c1646c8687ccc8f0002838ec3b69ca406b5ee1b73e2a9e895a295ec3022ef8cd3b27027c65995e3fdf1a16cce20db813af3)#0h7ca6vr",
            "hex": "4104b67fcdbb9584809332187ed5cfb24c1646c8687ccc8f0002838ec3b69ca406b5ee1b73e2a9e895a295ec3022ef8cd3b27027c65995e3fdf1a16cce20db813af3ac",
            "type": "pubkey"
          }
        }
      ],
      "hex": "01000000010000000000000000000000000000000000000000000000000000000000000000ffffffff0804ffff001d02db04ffffffff0100f2052a01000000434104b67fcdbb9584809332187ed5cfb24c1646c8687ccc8f0002838ec3b69ca406b5ee1b73e2a9e895a295ec3022ef8cd3b27027c65995e3fdf1a16cce20db813af3ac00000000"
    }
  ]
}