{
  "hash": "0000000031efc90242beb35a21301b7e2ff68d6fcee9bf0ac0a769dff96e6f7b",
  "confirmations": 51853,
  "height": 1245,
  "version": 1,
  "versionHex": "00000001",
  "merkleroot": "434aa6beb3213905410b3e538bfca104e680e9380fe4df4e8a442a2da654ff1d",
  "time": 1232534559,
  "mediantime": 1232531092,
  "nonce": 49057138,
  "bits": "1d00ffff",
  "difficulty": 1,
  "chainwork": "000000000000000000000000000000000000000000000000000004de04de04de",
  "nTx": 1,
  "previousblockhash": "000000004662421a8c32ca813a5ed9198cc98c93de7c31b902344917ba41294c",
  "nextblockhash": "0000000040974ccb3370e53c9b10814d3ab23b613f9bf261982b16285348c4ed",
  "strippedsize": 216,
  "size": 216,
  "weight": 864,
  "tx": [
    {
      "txid": "434aa6beb3213905410b3e538bfca104e680e9380fe4df4e8a442a2da654ff1d",
      "hash": "434aa6beb3213905410b3e538bfca104e680e9380fe4df4e8a442a2da654ff1d",
      "version": 1,
      "size": 135,
      "vsize": 135,
      "weight": 540,
      "locktime": 0,
      "vin": [
        {
          "coinbase": "04ffff001d025502",
          "sequence": 4294967295
        }
      ],
      "vout": [
        {
          "value": 50.0,
          "n": 0,
          "scriptPubKey": {
            "asm": "04df3869092c57064e41c5dcb7f7cb26b754e8d9835fcda5d033392a716c26dff4611ff110461fe2d5b1de337b510899917f8b02c38d88daf34e76625aa324ce4d OP_CHECKSIG",
            "desc": "pk(04df3869092c57064e41c5dcb7f7cb26b754e8d9835fcda5d033392a716c26dff4611ff110461fe2d5b1de337b510899917f8b02c38d88daf34e76625aa324ce4d)#mejp8u9l",
            "hex": "4104df3869092c57064e41c5dcb7f7cb26b754e8d9835fcda5d033392a716c26dff4611ff110461fe2d5b1de337b510899917f8b02c38d88daf34e76625aa324ce4dac",
            "type": "pubkey"
          }
        }
      ],
      "hex": "01000000010000000000000000000000000000000000000000000000000000000000000000ffffffff0804ffff001d025502ffffffff0100f2052a01000000434104df3869092c57064e41c5dcb7f7cb26b754e8d9835fcda5d033392a716c26dff4611ff110461fe2d5b1de337b510899917f8b02c38d88daf34e76625aa324ce4dac00000000"
    }
  ]
}