{
  "hash": "0000000088f568959bc898e3af5325a67a27d5a4380fa41c5f6b7a204708d63d",
  "confirmations": 48452,
  "height": 4646,
  "version": 1,
  "versionHex": "00000001",
  "merkleroot": "1b7cb74700a007249bbb30dc81d8f3f58281eb8833883987d78f3bf7e941d50b",
  "time": 1234888445,
  "mediantime": 1234884626,
  "nonce": 1244702749,
  "bits": "1d00ffff",
  "difficulty": 1,
  "chainwork": "0000000000000000000000000000000000000000000000000000122712271227",
  "nTx": 1,
  "previousblockhash": "00000000420f32435818595072953be954315431b17128715872c66542474740",
  "nextblockhash": "0000000065f9598f72c43c9b5fa99ba145d9734b75854ed1c2038cf9ca51fedd",
  "strippedsize": 216,
  "size": 216,
  "weight": 864,
  "tx": [
    {
      "txid": "1b7cb74700a007249bbb30dc81d8f3f58281eb8833883987d78f3bf7e941d50b",
      "hash": "1b7cb74700a007249bbb30dc81d8f3f58281eb8833883987d78f3bf7e941d50b",
      "version": 1,
      "size": 135,
      "vsize": 135,
      "weight": 540,
      "locktime": 0,
      "vin": [
        {
          "coinbase": "04ffff001d029a01",
          "sequence": 4294967295
        }
      ],
      "vout": [
        {
          "value": 50.0,
          "n": 0,
          "scriptPubKey": {
            "asm": "04e0194ff322e749a5ed5c02b128b682fe333f4f51d0b08e406e4bbb16b93c3d59a29a93f72b95e8a65b6dd3bce8084e0d6676e31ca27f01ad7c79f884c58f8a8a OP_CHECKSIG",
            "desc": "pk(04e0194ff322e749a5ed5c02b128b682fe333f4f51d0b08e406e4bbb16b93c3d59a29a93f72b95e8a65b6dd3bce8084e0d6676e31ca27f01ad7c79f884c58f8a8a)#armuefqe",
            "hex": "4104e0194ff322e749a5ed5c02b128b682fe333f4f51d0b08e406e4bbb16b93c3d59a29a93f72b95e8a65b6dd3bce8084e0d6676e31ca27f01ad7c79f884c58f8a8aac",
            "type": "pubkey"
          }
        }
      ],
      "hex": "01000000010000000000000000000000000000000000000000000000000000000000000000ffffffff0804ffff001d029a01ffffffff0100f2052a01000000434104e0194ff322e749a5ed5c02b128b682fe333f4f51d0b08e406e4bbb16b93c3d59a29a93f72b95e8a65b6dd3bce8084e0d6676e31ca27f01ad7c79f884c58f8a8aac00000000"
    }
  ]
}