{
  "hash": "0000000045cc047eac436ffc773d8668499d01607beba2a3a1ffec8d02662e9b",
  "confirmations": 49978,
  "height": 3120,
  "version": 1,
  "versionHex": "00000001",
  "merkleroot": "1657f65d02518296efaffbcea6e4dee0aa6b94923091e51b4c208a42f6739ba3",
  "time": 1233848837,
  "mediantime": 1233846524,
  "nonce": 1254166294,
  "bits": "1d00ffff",
  "difficulty": 1,
  "chainwork": "00000000000000000000000000000000000000000000000000000c310c310c31",
  "nTx": 1,
  "previousblockhash": "000000005e2c51decc88e4d8e3147eb7573bd5e168648fe06c18e9f3e9a8f2cb",
  "nextblockhash": "000000008ba54981a987f9c562a2ac1d653c4c7c3375448718d04190c74df213",
  "strippedsize": 216,
  "size": 216,
  "weight": 864,
  "tx": [
    {
      "txid": "1657f65d02518296efaffbcea6e4dee0aa6b94923091e51b4c208a42f6739ba3",
      "hash": "1657f65d02518296efaffbcea6e4dee0aa6b94923091e51b4c208a42f6739ba3",
      "version": 1,
      "size": 135,
      "vsize": 135,
      "weight": 540,
      "locktime": 0,
      "vin": [
        {
          "coinbase": "04ffff001d027c01",
          "sequence": 4294967295
        }
      ],
      "vout": [
        {
          "value": 50.0,
          "n": 0,
          "scriptPubKey": {
            "asm": "04de303f5077804b46d45b52b751f1a5fc79699553942980f2294c84ea8ccb3f9527f9b4d2476ab52ece7451d20f4c22d26762f2d422ee51303f3d8e9006d4b348 OP_CHECKSIG",
            "desc": "pk(04de303f5077804b46d45b52b751f1a5fc79699553942980f2294c84ea8ccb3f9527f9b4d2476ab52ece7451d20f4c22d26762f2d422ee51303f3d8e9006d4b348)#ffajwq9k",
            "hex": "4104de303f5077804b46d45b52b751f1a5fc79699553942980f2294c84ea8ccb3f9527f9b4d2476ab52ece7451d20f4c22d26762f2d422ee51303f3d8e9006d4b348ac",
            "type": "pubkey"
          }
        }
      ],
      "hex": "01000000010000000000000000000000000000000000000000000000000000000000000000ffffffff0804ffff001d027c01ffffffff0100f2052a01000000434104de303f5077804b46d45b52b751f1a5fc79699553942980f2294c84ea8ccb3f9527f9b4d2476ab52ece7451d20f4c22d26762f2d422ee51303f3d8e9006d4b348ac00000000"
    }
  ]
}