{
  "hash": "000000009bfa84517289deee15509534073aec4d2f44f7be0e58fae9fa9165d8",
  "confirmations": 47559,
  "height": 5539,
  "version": 1,
  "versionHex": "00000001",
  "merkleroot": "95e2c1e0590a8c56ed3cbbbccfabce504fd98465e25d1c2d34379b34daafc380",
  "time": 1235552472,
  "mediantime": 1235547230,
  "nonce": 1750855944,
  "bits": "1d00ffff",
  "difficulty": 1,
  "chainwork": "000000000000000000000000000000000000000000000000000015a415a415a4",
  "nTx": 1,
  "previousblockhash": "0000000093cad29af9f1a453c1788d661e1f03973b3de7a5d9895b5089b3560c",
  "nextblockhash": "000000003762accfac345c2d5a99bd95010015eeab1376dafd5910bd9fe0bde3",
  "strippedsize": 216,
  "size": 216,
  "weight": 864,
  "tx": [
    {
      "txid": "95e2c1e0590a8c56ed3cbbbccfabce504fd98465e25d1c2d34379b34daafc380",
      "hash": "95e2c1e0590a8c56ed3cbbbccfabce504fd98465e25d1c2d34379b34daafc380",
      "version": 1,
      "size": 135,
      "vsize": 135,
      "weight": 540,
      "locktime": 0,
      "vin": [
        {
          "coinbase": "04ffff001d026306",
          "sequence": 4294967295
        }
      ],
      "vout": [
        {
          "value": 50.0,
          "n": 0,
          "scriptPubKey": {
            "asm": "04897f74e5c19f67c0f6dd6ab0858bca37692dad5f22ed25d8dc1ef3c451ccf39a0f3d3ac426d714820c85ac32bb2dddbd19d4b917e8702f6d9af9ef269981180b OP_CHECKSIG",
            "desc": "pk(04897f74e5c19f67c0f6dd6ab0858bca37692dad5f22ed25d8dc1ef3c451ccf39a0f3d3ac426d714820c85ac32bb2dddbd19d4b917e8702f6d9af9ef269981180b)#fmqguyj8",
            "hex": "4104897f74e5c19f67c0f6dd6ab0858bca37692dad5f22ed25d8dc1ef3c451ccf39a0f3d3ac426d714820c85ac32bb2dddbd19d4b917e8702f6d9af9ef269981180bac",
            "type": "pubkey"
          }
        }
      ],
      "hex": "01000000010000000000000000000000000000000000000000000000000000000000000000ffffffff0804ffff001d026306ffffffff0100f2052a01000000434104897f74e5c19f67c0f6dd6ab0858bca37692dad5f22ed25d8dc1ef3c451ccf39a0f3d3ac426d714820c85ac32bb2dddbd19d4b917e8702f6d9af9ef269981180bac00000000"
    }
  ]
}