{
  "hash": "000000007e8d96fa8cb1477d84cc550c0057de2dd77649f9b9cfc018ff84fc6a",
  "confirmations": 51236,
  "height": 1862,
  "version": 1,
  "versionHex": "00000001",
  "merkleroot": "00a8c30978a96596a634835854383b24663d0fb5151d6e6ebe98ce59c50396dc",
  "time": 1232927475,
  "mediantime": 1232924933,
  "nonce": 772536875,
  "bits": "1d00ffff",
  "difficulty": 1,
  "chainwork": "0000000000000000000000000000000000000000000000000000074707470747",
  "nTx": 1,
  "previousblockhash": "00000000f6033a344df6851d86ea1d78f03912ee5c82a042559fac51a330a06b",
  "nextblockhash": "00000000728d8e5b68328b0357af3b1591f4cfa7e074e1c6d5bc900461863606",
  "strippedsize": 216,
  "size": 216,
  "weight": 864,
  "tx": [
    {
      "txid": "00a8c30978a96596a634835854383b24663d0fb5151d6e6ebe98ce59c50396dc",
      "hash": "00a8c30978a96596a634835854383b24663d0fb5151d6e6ebe98ce59c50396dc",
      "version": 1,
      "size": 135,
      "vsize": 135,
      "weight": 540,
      "locktime": 0,
      "vin": [
        {
          "coinbase": "04ffff001d02bd04",
          "sequence": 4294967295
        }
      ],
      "vout": [
        {
          "value": 50.0,
          "n": 0,
          "scriptPubKey": {
            "asm": "0413ffef8cb35fa6f01fff0d7ac2fafae84e6d36f9738665ad9f69f50ca05c58485920ee7126d9ff834dbedeea0c793c8440b5637a57024d0cbfb83ba66b05f09e OP_CHECKSIG",
            "desc": "pk(0413ffef8cb35fa6f01fff0d7ac2fafae84e6d36f9738665ad9f69f50ca05c58485920ee7126d9ff834dbedeea0c793c8440b5637a57024d0cbfb83ba66b05f09e)#mvpd9p5l",
            "hex": "410413ffef8cb35fa6f01fff0d7ac2fafae84e6d36f9738665ad9f69f50ca05c58485920ee7126d9ff834dbedeea0c793c8440b5637a57024d0cbfb83ba66b05f09eac",
            "type": "pubkey"
          }
        }
      ],
      "hex": "01000000010000000000000000000000000000000000000000000000000000000000000000ffffffff0804ffff001d02bd04ffffffff0100f2052a0100000043410413ffef8cb35fa6f01fff0d7ac2fafae84e6d36f9738665ad9f69f50ca05c58485920ee7126d9ff834dbedeea0c793c8440b5637a57024d0cbfb83ba66b05f09eac00000000"
    }
  ]
}