{
  "hash": "00000000229d2373f7b69198cb09cd32f4ccfa81076d5f36d630b10962217823",
  "confirmations": 45121,
  "height": 7977,
  "version": 1,
  "versionHex": "00000001",
  "merkleroot": "120d9b27c83dc6e2ed48742165d38de2e58963433827b5e04901eebf6e38e11f",
  "time": 1237445941,
  "mediantime": 1237443203,
  "nonce": 121525711,
  "bits": "1d00ffff",
  "difficulty": 1,
  "chainwork": "00000000000000000000000000000000000000000000000000001f2a1f2a1f2a",
  "nTx": 1,
  "previousblockhash": "000000007d8eb6a31643d9e47f437b2a777b5696508fa78f8781ae656c06dc2b",
  "nextblockhash": "00000000a7d9641747cef5e2cd084a5298f5997f5a30cbf1bda142efcf789c42",
  "strippedsize": 216,
  "size": 216,
  "weight": 864,
  "tx": [
    {
      "txid": "120d9b27c83dc6e2ed48742165d38de2e58963433827b5e04901eebf6e38e11f",
      "hash": "120d9b27c83dc6e2ed48742165d38de2e58963433827b5e04901eebf6e38e11f",
      "version": 1,
      "size": 135,
      "vsize": 135,
      "weight": 540,
      "locktime": 0,
      "vin": [
        {
          "coinbase": "04ffff001d029103",
          "sequence": 4294967295
        }
      ],
      "vout": [
        {
          "value": 50.0,
          "n": 0,
          "scriptPubKey": {
            "asm": "04a4ed3126c1998eeb647dd073b2dc897ab190a4662eca3391b84efe0799697750f9817511378d9366a7ba0992a37e2fdc487ab8b82062f615076dbb0381d7622c OP_CHECKSIG",
            "desc": "pk(04a4ed3126c1998eeb647dd073b2dc897ab190a4662eca3391b84efe0799697750f9817511378d9366a7ba0992a37e2fdc487ab8b82062f615076dbb0381d7622c)#c4kswl4d",
            "hex": "4104a4ed3126c1998eeb647dd073b2dc897ab190a4662eca3391b84efe0799697750f9817511378d9366a7ba0992a37e2fdc487ab8b82062f615076dbb0381d7622cac",
            "type": "pubkey"
          }
        }
      ],
      "hex": "01000000010000000000000000000000000000000000000000000000000000000000000000ffffffff0804ffff001d029103ffffffff0100f2052a01000000434104a4ed3126c1998eeb647dd073b2dc897ab190a4662eca3391b84efe0799697750f9817511378d9366a7ba0992a37e2fdc487ab8b82062f615076dbb0381d7622cac00000000"
    }
  ]
}