{
  "hash": "000000002a656240dcd2cbbf5bd9d1ac87b6c7a513577852b048f1f412008d21",
  "confirmations": 51601,
  "height": 1497,
  "version": 1,
  "versionHex": "00000001",
  "merkleroot": "c3daf50e9c22afba5b5e7337e7df7233a07d2c8b8ea7214faf655882619d0577",
  "time": 1232766818,
  "mediantime": 1232763992,
  "nonce": 764929071,
  "bits": "1d00ffff",
  "difficulty": 1,
  "chainwork": "000000000000000000000000000000000000000000000000000005da05da05da",
  "nTx": 1,
  "previousblockhash": "00000000ac1b67360d0372804da6a0db00d1d9587dbb2087367fbd3d0d4bad50",
  "nextblockhash": "000000000a20cbe365611f74cd93f91ad2f037b465cd67bb09ba1a43fbdfc278",
  "strippedsize": 216,
  "size": 216,
  "weight": 864,
  "tx": [
    {
      "txid": "c3daf50e9c22afba5b5e7337e7df7233a07d2c8b8ea7214faf655882619d0577",
      "hash": "c3daf50e9c22afba5b5e7337e7df7233a07d2c8b8ea7214faf655882619d0577",
      "version": 1,
      "size": 135,
      "vsize": 135,
      "weight": 540,
      "locktime": 0,
      "vin": [
        {
          "coinbase": "04ffff001d022201",
          "sequence": 4294967295
        }
      ],
      "vout": [
        {
          "value": 50.0,
          "n": 0,
          "scriptPubKey": {
            "asm": "04f3400f43d75889fc4ac5e219a796c162fe4a1b528d3693884f1db83607cdb3092efe62be7e8e4ca4abcfed92fe3b34fd74237f05fcaeafdba9a6ab8524050723 OP_CHECKSIG",
            "desc": "pk(04f3400f43d75889fc4ac5e219a796c162fe4a1b528d3693884f1db83607cdb3092efe62be7e8e4ca4abcfed92fe3b34fd74237f05fcaeafdba9a6ab8524050723)#2ptdm98p",
            "hex": "4104f3400f43d75889fc4ac5e219a796c162fe4a1b528d3693884f1db83607cdb3092efe62be7e8e4ca4abcfed92fe3b34fd74237f05fcaeafdba9a6ab8524050723ac",
            "type": "pubkey"
          }
        }
      ],
      "hex": "01000000010000000000000000000000000000000000000000000000000000000000000000ffffffff0804ffff001d022201ffffffff0100f2052a01000000434104f3400f43d75889fc4ac5e219a796c162fe4a1b528d3693884f1db83607cdb3092efe62be7e8e4ca4abcfed92fe3b34fd74237f05fcaeafdba9a6ab8524050723ac00000000"
    }
  ]
}