{
  "hash": "0000000056867a9a01b46242f15e891d94531ac53caa8bc73eeac3e1c440bc41",
  "confirmations": 47761,
  "height": 5337,
  "version": 1,
  "versionHex": "00000001",
  "merkleroot": "91e43fe93ff22d8fddb94765fdbe3cecdc7c766a58958dc5d1a40a6250ace621",
  "time": 1235394187,
  "mediantime": 1235388675,
  "nonce": 2169966394,
  "bits": "1d00ffff",
  "difficulty": 1,
  "chainwork": "000000000000000000000000000000000000000000000000000014da14da14da",
  "nTx": 1,
  "previousblockhash": "0000000072774caac272e804392873e6c575b91b14ab83de83fa27b57773020a",
  "nextblockhash": "00000000d057dbfef14efa6bd5f7d1e2a180c9b40c0ee4f71cfe1afd87debc61",
  "strippedsize": 216,
  "size": 216,
  "weight": 864,
  "tx": [
    {
      "txid": "91e43fe93ff22d8fddb94765fdbe3cecdc7c766a58958dc5d1a40a6250ace621",
      "hash": "91e43fe93ff22d8fddb94765fdbe3cecdc7c766a58958dc5d1a40a6250ace621",
      "version": 1,
      "size": 135,
      "vsize": 135,
      "weight": 540,
      "locktime": 0,
      "vin": [
        {
          "coinbase": "04ffff001d029d02",
          "sequence": 4294967295
        }
      ],
      "vout": [
        {
          "value": 50.0,
          "n": 0,
          "scriptPubKey": {
            "asm": "046a70e9e95355a4d6a723adb19336d341653d659a1628ef55e9f28ed14f144d1f24798b9c44703a9e2506f2d6c42a1ace8c0aad5e387e1818084d21aefdca6c76 OP_CHECKSIG",
            "desc": "pk(046a70e9e95355a4d6a723adb19336d341653d659a1628ef55e9f28ed14f144d1f24798b9c44703a9e2506f2d6c42a1ace8c0aad5e387e1818084d21aefdca6c76)#8qpkcd6z",
            "hex": "41046a70e9e95355a4d6a723adb19336d341653d659a1628ef55e9f28ed14f144d1f24798b9c44703a9e2506f2d6c42a1ace8c0aad5e387e1818084d21aefdca6c76ac",
            "type": "pubkey"
          }
        }
      ],
      "hex": "01000000010000000000000000000000000000000000000000000000000000000000000000ffffffff0804ffff001d029d02ffffffff0100f2052a010000004341046a70e9e95355a4d6a723adb19336d341653d659a1628ef55e9f28ed14f144d1f24798b9c44703a9e2506f2d6c42a1ace8c0aad5e387e1818084d21aefdca6c76ac00000000"
    }
  ]
}