{
  "hash": "00000000ec49de6efe6fd20ca6a3b2e5f342f1cc9a1167919678541a6c8b4270",
  "confirmations": 44772,
  "height": 8326,
  "version": 1,
  "versionHex": "00000001",
  "merkleroot": "5b064f1c82ed8eb19834671a10eba99a465e44655534524bb9c09ff876083d5f",
  "time": 1237749091,
  "mediantime": 1237744453,
  "nonce": 169015107,
  "bits": "1d00ffff",
  "difficulty": 1,
  "chainwork": "0000000000000000000000000000000000000000000000000000208720872087",
  "nTx": 1,
  "previousblockhash": "00000000fd8a1a1b278b884734831005736ec5287feb99025677d481530ee3ba",
  "nextblockhash": "0000000014a53caabd74159f6cd702b21bdd09961cc3f4456777cbe64c5862c0",
  "strippedsize": 215,
  "size": 215,
  "weight": 860,
  "tx": [
    {
      "txid": "5b064f1c82ed8eb19834671a10eba99a465e44655534524bb9c09ff876083d5f",
      "hash": "5b064f1c82ed8eb19834671a10eba99a465e44655534524bb9c09ff876083d5f",
      "version": 1,
      "size": 134,
      "vsize": 134,
      "weight": 536,
      "locktime": 0,
      "vin": [
        {
          "coinbase": "04ffff001d0102",
          "sequence": 4294967295
        }
      ],
      "vout": [
        {
          "value": 50.0,
          "n": 0,
          "scriptPubKey": {
            "asm": "04a7e9782cbc4f6c6ea09dd9cb0a5f0f212f9eec3c162445efb00b2f2e3377e7fa4a77e12710b20b70e1ab2d8a05984358c36573aafd60f9f14320318a267b6b3f OP_CHECKSIG",
            "desc": "pk(04a7e9782cbc4f6c6ea09dd9cb0a5f0f212f9eec3c162445efb00b2f2e3377e7fa4a77e12710b20b70e1ab2d8a05984358c36573aafd60f9f14320318a267b6b3f)#546maytq",
            "hex": "4104a7e9782cbc4f6c6ea09dd9cb0a5f0f212f9eec3c162445efb00b2f2e3377e7fa4a77e12710b20b70e1ab2d8a05984358c36573aafd60f9f14320318a267b6b3fac",
            "type": "pubkey"
          }
        }
      ],
      "hex": "01000000010000000000000000000000000000000000000000000000000000000000000000ffffffff0704ffff001d0102ffffffff0100f2052a01000000434104a7e9782cbc4f6c6ea09dd9cb0a5f0f212f9eec3c162445efb00b2f2e3377e7fa4a77e12710b20b70e1ab2d8a05984358c36573aafd60f9f14320318a267b6b3fac00000000"
    }
  ]
}