{
  "hash": "00000000bb35826c0a9294ae63c59e8b906bfa6e7801ecd9b26d75021131df66",
  "confirmations": 46146,
  "height": 6952,
  "version": 1,
  "versionHex": "00000001",
  "merkleroot": "f6f45c29e70c904830376c383a238e95ebd07f351409a4d9fbc1733821231098",
  "time": 1236681251,
  "mediantime": 1236678060,
  "nonce": 3968479518,
  "bits": "1d00ffff",
  "difficulty": 1,
  "chainwork": "00000000000000000000000000000000000000000000000000001b291b291b29",
  "nTx": 1,
  "previousblockhash": "000000006ac271cc372f307d969abc97356c7eb21174439f36d2a79817667ad3",
  "nextblockhash": "000000009528e65fa55b5dfdfbb9662aececf54169bc5e2a7379128ec4345765",
  "strippedsize": 216,
  "size": 216,
  "weight": 864,
  "tx": [
    {
      "txid": "f6f45c29e70c904830376c383a238e95ebd07f351409a4d9fbc1733821231098",
      "hash": "f6f45c29e70c904830376c383a238e95ebd07f351409a4d9fbc1733821231098",
      "version": 1,
      "size": 135,
      "vsize": 135,
      "weight": 540,
      "locktime": 0,
      "vin": [
        {
          "coinbase": "04ffff001d026201",
          "sequence": 4294967295
        }
      ],
      "vout": [
        {
          "value": 50.0,
          "n": 0,
          "scriptPubKey": {
            "asm": "0477c66f98f865267fc189de434d29f6d6f2a0efda66f881dac6305d32744a2366e944950bee9dcf29f58c045e1abc4942545e06801cdc3e411b9a43e253243399 OP_CHECKSIG",
            "desc": "pk(0477c66f98f865267fc189de434d29f6d6f2a0efda66f881dac6305d32744a2366e944950bee9dcf29f58c045e1abc4942545e06801cdc3e411b9a43e253243399)#6ny00mj2",
            "hex": "410477c66f98f865267fc189de434d29f6d6f2a0efda66f881dac6305d32744a2366e944950bee9dcf29f58c045e1abc4942545e06801cdc3e411b9a43e253243399ac",
            "type": "pubkey"
          }
        }
      ],
      "hex": "01000000010000000000000000000000000000000000000000000000000000000000000000ffffffff0804ffff001d026201ffffffff0100f2052a0100000043410477c66f98f865267fc189de434d29f6d6f2a0efda66f881dac6305d32744a2366e944950bee9dcf29f58c045e1abc4942545e06801cdc3e411b9a43e253243399ac00000000"
    }
  ]
}