{
  "hash": "00000000db8341a7a6e4917f8b1f53153c4a6138334bb15fccffb841e02cbbe0",
  "confirmations": 46018,
  "height": 7080,
  "version": 1,
  "versionHex": "00000001",
  "merkleroot": "64f0c0dc91bdf7a4d157da6b3dcc025a665629c0a485cfe50f562572bb8a4308",
  "time": 1236780229,
  "mediantime": 1236775243,
  "nonce": 3882766636,
  "bits": "1d00ffff",
  "difficulty": 1,
  "chainwork": "00000000000000000000000000000000000000000000000000001ba91ba91ba9",
  "nTx": 1,
  "previousblockhash": "00000000022ab21405c00b0f6705786ea686db3e060ce60c84015c1db63e3df1",
  "nextblockhash": "00000000487c1dc00849fd069a73009c4f1086c153585b40a30d925ad705cdb8",
  "strippedsize": 216,
  "size": 216,
  "weight": 864,
  "tx": [
    {
      "txid": "64f0c0dc91bdf7a4d157da6b3dcc025a665629c0a485cfe50f562572bb8a4308",
      "hash": "64f0c0dc91bdf7a4d157da6b3dcc025a665629c0a485cfe50f562572bb8a4308",
      "version": 1,
      "size": 135,
      "vsize": 135,
      "weight": 540,
      "locktime": 0,
      "vin": [
        {
          "coinbase": "04ffff001d02ad03",
          "sequence": 4294967295
        }
      ],
      "vout": [
        {
          "value": 50.0,
          "n": 0,
          "scriptPubKey": {
            "asm": "046c7b62d3e08164af25957175c817078359d0b439a328d95f7fe10302a23b947361a39b6216ea031a89827580386d7977749647655abc737f69a66f18b7a57d8e OP_CHECKSIG",
            "desc": "pk(046c7b62d3e08164af25957175c817078359d0b439a328d95f7fe10302a23b947361a39b6216ea031a89827580386d7977749647655abc737f69a66f18b7a57d8e)#8fwhqeuf",
            "hex": "41046c7b62d3e08164af25957175c817078359d0b439a328d95f7fe10302a23b947361a39b6216ea031a89827580386d7977749647655abc737f69a66f18b7a57d8eac",
            "type": "pubkey"
          }
        }
      ],
      "hex": "01000000010000000000000000000000000000000000000000000000000000000000000000ffffffff0804ffff001d02ad03ffffffff0100f2052a010000004341046c7b62d3e08164af25957175c817078359d0b439a328d95f7fe10302a23b947361a39b6216ea031a89827580386d7977749647655abc737f69a66f18b7a57d8eac00000000"
    }
  ]
}