{
  "hash": "000000001f12696b387ea4b5485c1c27392e2c75718d1dcadc44e055105ce190",
  "confirmations": 47017,
  "height": 6081,
  "version": 1,
  "versionHex": "00000001",
  "merkleroot": "32558078ab261b2ef25e3a96c9ab103ebab44f4d36aa9cbefb5d16ea64950be6",
  "time": 1235993958,
  "mediantime": 1235989773,
  "nonce": 108476932,
  "bits": "1d00ffff",
  "difficulty": 1,
  "chainwork": "000000000000000000000000000000000000000000000000000017c217c217c2",
  "nTx": 1,
  "previousblockhash": "00000000ecfbfde100399cde481b82f28d041e50655e7524efaebbae8b69ba5d",
  "nextblockhash": "000000006d30b804fed339990eaa5651ad7633bed1a626473e46c3d148fe4227",
  "strippedsize": 216,
  "size": 216,
  "weight": 864,
  "tx": [
    {
      "txid": "32558078ab261b2ef25e3a96c9ab103ebab44f4d36aa9cbefb5d16ea64950be6",
      "hash": "32558078ab261b2ef25e3a96c9ab103ebab44f4d36aa9cbefb5d16ea64950be6",
      "version": 1,
      "size": 135,
      "vsize": 135,
      "weight": 540,
      "locktime": 0,
      "vin": [
        {
          "coinbase": "04ffff001d026e02",
          "sequence": 4294967295
        }
      ],
      "vout": [
        {
          "value": 50.0,
          "n": 0,
          "scriptPubKey": {
            "asm": "04867e24bbec53f0c2b205db40a9ce8dfeaba082917d50b0361891a831893ca7f2d2a19eb9b7ea33fb5db610d1d2cc99cc0a2c3aaaf48ef65e3c4af85c54e4fd86 OP_CHECKSIG",
            "desc": "pk(04867e24bbec53f0c2b205db40a9ce8dfeaba082917d50b0361891a831893ca7f2d2a19eb9b7ea33fb5db610d1d2cc99cc0a2c3aaaf48ef65e3c4af85c54e4fd86)#rq9kx3x3",
            "hex": "4104867e24bbec53f0c2b205db40a9ce8dfeaba082917d50b0361891a831893ca7f2d2a19eb9b7ea33fb5db610d1d2cc99cc0a2c3aaaf48ef65e3c4af85c54e4fd86ac",
            "type": "pubkey"
          }
        }
      ],
      "hex": "01000000010000000000000000000000000000000000000000000000000000000000000000ffffffff0804ffff001d026e02ffffffff0100f2052a01000000434104867e24bbec53f0c2b205db40a9ce8dfeaba082917d50b0361891a831893ca7f2d2a19eb9b7ea33fb5db610d1d2cc99cc0a2c3aaaf48ef65e3c4af85c54e4fd86ac00000000"
    }
  ]
}