{
  "hash": "00000000bd9844ad2b844fbb019788034a20a484448c54c06e9ed6c5db8e7624",
  "confirmations": 50524,
  "height": 2574,
  "version": 1,
  "versionHex": "00000001",
  "merkleroot": "324578547c6f86e1aad58f93c7f689dd6789754753ff48749de5662a2d19fbba",
  "time": 1233473263,
  "mediantime": 1233468945,
  "nonce": 35450419,
  "bits": "1d00ffff",
  "difficulty": 1,
  "chainwork": "00000000000000000000000000000000000000000000000000000a0f0a0f0a0f",
  "nTx": 1,
  "previousblockhash": "000000001e4311a635821c79fef6238a0d4a523454fde0846a0547785c7f721c",
  "nextblockhash": "000000008c43c7d8ea8870a3f8c3bd16819f7204e5e498a5242f630d72c8ad25",
  "strippedsize": 216,
  "size": 216,
  "weight": 864,
  "tx": [
    {
      "txid": "324578547c6f86e1aad58f93c7f689dd6789754753ff48749de5662a2d19fbba",
      "hash": "324578547c6f86e1aad58f93c7f689dd6789754753ff48749de5662a2d19fbba",
      "version": 1,
      "size": 135,
      "vsize": 135,
      "weight": 540,
      "locktime": 0,
      "vin": [
        {
          "coinbase": "04ffff001d027b02",
          "sequence": 4294967295
        }
      ],
      "vout": [
        {
          "value": 50.0,
          "n": 0,
          "scriptPubKey": {
            "asm": "04684ea8a3ee59cf3dfde5f150970dd1aefea42ad1fb6c66311e4c0aded02912f716ecc360c5080f50719eed5066fe9429d6585147d55b7fbb6074501740663403 OP_CHECKSIG",
            "desc": "pk(04684ea8a3ee59cf3dfde5f150970dd1aefea42ad1fb6c66311e4c0aded02912f716ecc360c5080f50719eed5066fe9429d6585147d55b7fbb6074501740663403)#f2uyl2e6",
            "hex": "4104684ea8a3ee59cf3dfde5f150970dd1aefea42ad1fb6c66311e4c0aded02912f716ecc360c5080f50719eed5066fe9429d6585147d55b7fbb6074501740663403ac",
            "type": "pubkey"
          }
        }
      ],
      "hex": "01000000010000000000000000000000000000000000000000000000000000000000000000ffffffff0804ffff001d027b02ffffffff0100f2052a01000000434104684ea8a3ee59cf3dfde5f150970dd1aefea42ad1fb6c66311e4c0aded02912f716ecc360c5080f50719eed5066fe9429d6585147d55b7fbb6074501740663403ac00000000"
    }
  ]
}