{
  "hash": "0000000054dfed74457e592658485bb93f60e7e608c815f093e1d59106ab74e4",
  "confirmations": 52566,
  "height": 532,
  "version": 1,
  "versionHex": "00000001",
  "merkleroot": "54a88c0fb7e8879452acdbf9318120361189ca36154f14322a4b6dc127018906",
  "time": 1231989398,
  "mediantime": 1231986079,
  "nonce": 3493202998,
  "bits": "1d00ffff",
  "difficulty": 1,
  "chainwork": "0000000000000000000000000000000000000000000000000000021502150215",
  "nTx": 1,
  "previousblockhash": "00000000a8eb67a3850b2a212994caf169bd08e56841d1777ed40e3057818fff",
  "nextblockhash": "00000000dd86f3873dfdc4e2f5f18f40575d14b20696406511815f1b97e67eea",
  "strippedsize": 216,
  "size": 216,
  "weight": 864,
  "tx": [
    {
      "txid": "54a88c0fb7e8879452acdbf9318120361189ca36154f14322a4b6dc127018906",
      "hash": "54a88c0fb7e8879452acdbf9318120361189ca36154f14322a4b6dc127018906",
      "version": 1,
      "size": 135,
      "vsize": 135,
      "weight": 540,
      "locktime": 0,
      "vin": [
        {
          "coinbase": "04ffff001d022705",
          "sequence": 4294967295
        }
      ],
      "vout": [
        {
          "value": 50.0,
          "n": 0,
          "scriptPubKey": {
            "asm": "049bb8030fea2e5f3123bf5dbd0d11545f379f5de1c589a9dbc24f26a691ac83d73d7ace174f692843cec39782d0054e76c8d24382e5132e8bdb6d36ccf781b192 OP_CHECKSIG",
            "desc": "pk(049bb8030fea2e5f3123bf5dbd0d11545f379f5de1c589a9dbc24f26a691ac83d73d7ace174f692843cec39782d0054e76c8d24382e5132e8bdb6d36ccf781b192)#w8hrrq5v",
            "hex": "41049bb8030fea2e5f3123bf5dbd0d11545f379f5de1c589a9dbc24f26a691ac83d73d7ace174f692843cec39782d0054e76c8d24382e5132e8bdb6d36ccf781b192ac",
            "type": "pubkey"
          }
        }
      ],
      "hex": "01000000010000000000000000000000000000000000000000000000000000000000000000ffffffff0804ffff001d022705ffffffff0100f2052a010000004341049bb8030fea2e5f3123bf5dbd0d11545f379f5de1c589a9dbc24f26a691ac83d73d7ace174f692843cec39782d0054e76c8d24382e5132e8bdb6d36ccf781b192ac00000000"
    }
  ]
}