{
  "hash": "00000000b1ad16f150df83eb4f2a9c22eed1619b85b6aa5ba99ca039d322a98c",
  "confirmations": 43642,
  "height": 9456,
  "version": 1,
  "versionHex": "00000001",
  "merkleroot": "adf53f0d7b69e9ec77d64727671a6e3ff119bec4f2aecc162ab66d1bbe9e33dc",
  "time": 1238597497,
  "mediantime": 1238593723,
  "nonce": 1156024878,
  "bits": "1d00ffff",
  "difficulty": 1,
  "chainwork": "000000000000000000000000000000000000000000000000000024f124f124f1",
  "nTx": 1,
  "previousblockhash": "000000003b0b946d5ec4398fe6a98126563aa0ac52b5cbd0bdf1397c6a3b38af",
  "nextblockhash": "00000000d5dde2b1403c05b8546073aaab6b1c599fa86cf32751dc32d027e712",
  "strippedsize": 216,
  "size": 216,
  "weight": 864,
  "tx": [
    {
      "txid": "adf53f0d7b69e9ec77d64727671a6e3ff119bec4f2aecc162ab66d1bbe9e33dc",
      "hash": "adf53f0d7b69e9ec77d64727671a6e3ff119bec4f2aecc162ab66d1bbe9e33dc",
      "version": 1,
      "size": 135,
      "vsize": 135,
      "weight": 540,
      "locktime": 0,
      "vin": [
        {
          "coinbase": "04ffff001d02b004",
          "sequence": 4294967295
        }
      ],
      "vout": [
        {
          "value": 50.0,
          "n": 0,
          "scriptPubKey": {
            "asm": "04d0c4f9805af3d45589e89c631a942ce92d896a4e67079d865ca9b4aad26475c1512267e3a503a02c0e4fa4c256372b7a02c0710f5e965198e4332d1bad7d222f OP_CHECKSIG",
            "desc": "pk(04d0c4f9805af3d45589e89c631a942ce92d896a4e67079d865ca9b4aad26475c1512267e3a503a02c0e4fa4c256372b7a02c0710f5e965198e4332d1bad7d222f)#0za0lpyc",
            "hex": "4104d0c4f9805af3d45589e89c631a942ce92d896a4e67079d865ca9b4aad26475c1512267e3a503a02c0e4fa4c256372b7a02c0710f5e965198e4332d1bad7d222fac",
            "type": "pubkey"
          }
        }
      ],
      "hex": "01000000010000000000000000000000000000000000000000000000000000000000000000ffffffff0804ffff001d02b004ffffffff0100f2052a01000000434104d0c4f9805af3d45589e89c631a942ce92d896a4e67079d865ca9b4aad26475c1512267e3a503a02c0e4fa4c256372b7a02c0710f5e965198e4332d1bad7d222fac00000000"
    }
  ]
}