{
  "hash": "0000000019af276cc6bf7a2da83cd7d71e6cdbf8d166d1a26805189e76e45199",
  "confirmations": 45620,
  "height": 7478,
  "version": 1,
  "versionHex": "00000001",
  "merkleroot": "ebb1b10efbd2c6f666ed76b62051c5990bae6777b7520d0477f45a475fbf023f",
  "time": 1237080722,
  "mediantime": 1237078112,
  "nonce": 3392967220,
  "bits": "1d00ffff",
  "difficulty": 1,
  "chainwork": "00000000000000000000000000000000000000000000000000001d371d371d37",
  "nTx": 1,
  "previousblockhash": "000000007487fef682d8798cde55ca4cec1304c5b242330ce1491fd88c811921",
  "nextblockhash": "000000002552d84f58d6f064bd78324f960ac7697291de25acca5cc451d23fd2",
  "strippedsize": 216,
  "size": 216,
  "weight": 864,
  "tx": [
    {
      "txid": "ebb1b10efbd2c6f666ed76b62051c5990bae6777b7520d0477f45a475fbf023f",
      "hash": "ebb1b10efbd2c6f666ed76b62051c5990bae6777b7520d0477f45a475fbf023f",
      "version": 1,
      "size": 135,
      "vsize": 135,
      "weight": 540,
      "locktime": 0,
      "vin": [
        {
          "coinbase": "04ffff001d029c00",
          "sequence": 4294967295
        }
      ],
      "vout": [
        {
          "value": 50.0,
          "n": 0,
          "scriptPubKey": {
            "asm": "044baf1084ff9909f6fd09c16a4512feb6f2d70449cfb12f088c92b1c3d98d2caf780258e2bef53d966faed5eaf3ea5b98b97cabebf84bc17c795cafa09b3c3a5f OP_CHECKSIG",
            "desc": "pk(044baf1084ff9909f6fd09c16a4512feb6f2d70449cfb12f088c92b1c3d98d2caf780258e2bef53d966faed5eaf3ea5b98b97cabebf84bc17c795cafa09b3c3a5f)#2ugwkss7",
            "hex": "41044baf1084ff9909f6fd09c16a4512feb6f2d70449cfb12f088c92b1c3d98d2caf780258e2bef53d966faed5eaf3ea5b98b97cabebf84bc17c795cafa09b3c3a5fac",
            "type": "pubkey"
          }
        }
      ],
      "hex": "01000000010000000000000000000000000000000000000000000000000000000000000000ffffffff0804ffff001d029c00ffffffff0100f2052a010000004341044baf1084ff9909f6fd09c16a4512feb6f2d70449cfb12f088c92b1c3d98d2caf780258e2bef53d966faed5eaf3ea5b98b97cabebf84bc17c795cafa09b3c3a5fac00000000"
    }
  ]
}