{
  "hash": "000000006c354dbdf9335c68073941e5d7a7a223f5de5200bdcc4957a7b374dc",
  "confirmations": 48166,
  "height": 4932,
  "version": 1,
  "versionHex": "00000001",
  "merkleroot": "f58d5f9fdfa25e2f729eb134cdc51fea715a17427d1435d580ab7ab69c5a6cd7",
  "time": 1235092302,
  "mediantime": 1235088162,
  "nonce": 263646516,
  "bits": "1d00ffff",
  "difficulty": 1,
  "chainwork": "0000000000000000000000000000000000000000000000000000134513451345",
  "nTx": 1,
  "previousblockhash": "00000000641e79528630c80390c83e2a9d70b0ae8c7d3d4c4091f73754eee564",
  "nextblockhash": "00000000e3e9f616676fc2d12c188eed257f5300593723445a3c551fb57787a0",
  "strippedsize": 215,
  "size": 215,
  "weight": 860,
  "tx": [
    {
      "txid": "f58d5f9fdfa25e2f729eb134cdc51fea715a17427d1435d580ab7ab69c5a6cd7",
      "hash": "f58d5f9fdfa25e2f729eb134cdc51fea715a17427d1435d580ab7ab69c5a6cd7",
      "version": 1,
      "size": 134,
      "vsize": 134,
      "weight": 536,
      "locktime": 0,
      "vin": [
        {
          "coinbase": "04ffff001d0162",
          "sequence": 4294967295
        }
      ],
      "vout": [
        {
          "value": 50.0,
          "n": 0,
          "scriptPubKey": {
            "asm": "046d678cd1db531bb11502906d80b970a38c4a43a3356679b1971a1e367795d286c8d691f2e9c857a2782591e19c9907c28cb62ae961fb73df7622b5ef4fcb5209 OP_CHECKSIG",
            "desc": "pk(046d678cd1db531bb11502906d80b970a38c4a43a3356679b1971a1e367795d286c8d691f2e9c857a2782591e19c9907c28cb62ae961fb73df7622b5ef4fcb5209)#9wgkamu7",
            "hex": "41046d678cd1db531bb11502906d80b970a38c4a43a3356679b1971a1e367795d286c8d691f2e9c857a2782591e19c9907c28cb62ae961fb73df7622b5ef4fcb5209ac",
            "type": "pubkey"
          }
        }
      ],
      "hex": "01000000010000000000000000000000000000000000000000000000000000000000000000ffffffff0704ffff001d0162ffffffff0100f2052a010000004341046d678cd1db531bb11502906d80b970a38c4a43a3356679b1971a1e367795d286c8d691f2e9c857a2782591e19c9907c28cb62ae961fb73df7622b5ef4fcb5209ac00000000"
    }
  ]
}