{
  "hash": "000000006ee9fdd942b1357e5c480465caf5389123b631f9d5710a9b6dc75e2e",
  "confirmations": 51015,
  "height": 2083,
  "version": 1,
  "versionHex": "00000001",
  "merkleroot": "f691c0bf89278c11543c041ee194e24efa97d0612d5671d0813fab55aab196a4",
  "time": 1233126722,
  "mediantime": 1233122293,
  "nonce": 1119468315,
  "bits": "1d00ffff",
  "difficulty": 1,
  "chainwork": "0000000000000000000000000000000000000000000000000000082408240824",
  "nTx": 1,
  "previousblockhash": "0000000014c3bd382e733796a88b7e811f67e305bd9afe6733ceca8bd43e47b1",
  "nextblockhash": "00000000444dd3fa2b3604a8b9059656122387679b1aede0c43e1c3efdb41a60",
  "strippedsize": 216,
  "size": 216,
  "weight": 864,
  "tx": [
    {
      "txid": "f691c0bf89278c11543c041ee194e24efa97d0612d5671d0813fab55aab196a4",
      "hash": "f691c0bf89278c11543c041ee194e24efa97d0612d5671d0813fab55aab196a4",
      "version": 1,
      "size": 135,
      "vsize": 135,
      "weight": 540,
      "locktime": 0,
      "vin": [
        {
          "coinbase": "04ffff001d027303",
          "sequence": 4294967295
        }
      ],
      "vout": [
        {
          "value": 50.0,
          "n": 0,
          "scriptPubKey": {
            "asm": "045a2316c8b12feaabfb5c04f09980a6f431fa92bb66d68795336ea6fd6072320ae625bc46140eff823ee82d34dba14122c5f3117765567ac5be0564dacac7d22c OP_CHECKSIG",
            "desc": "pk(045a2316c8b12feaabfb5c04f09980a6f431fa92bb66d68795336ea6fd6072320ae625bc46140eff823ee82d34dba14122c5f3117765567ac5be0564dacac7d22c)#t2vpcnsn",
            "hex": "41045a2316c8b12feaabfb5c04f09980a6f431fa92bb66d68795336ea6fd6072320ae625bc46140eff823ee82d34dba14122c5f3117765567ac5be0564dacac7d22cac",
            "type": "pubkey"
          }
        }
      ],
      "hex": "01000000010000000000000000000000000000000000000000000000000000000000000000ffffffff0804ffff001d027303ffffffff0100f2052a010000004341045a2316c8b12feaabfb5c04f09980a6f431fa92bb66d68795336ea6fd6072320ae625bc46140eff823ee82d34dba14122c5f3117765567ac5be0564dacac7d22cac00000000"
    }
  ]
}