{
  "hash": "000000007a9b083588cd854095aa433fb010ddd0de02bd49c04d597b22729c05",
  "confirmations": 45743,
  "height": 7355,
  "version": 1,
  "versionHex": "00000001",
  "merkleroot": "a73e554105a964f97f4d496d4688d0881aaa0ddbb56b35c12c3a53d299c2045d",
  "time": 1236986867,
  "mediantime": 1236983795,
  "nonce": 2510904322,
  "bits": "1d00ffff",
  "difficulty": 1,
  "chainwork": "00000000000000000000000000000000000000000000000000001cbc1cbc1cbc",
  "nTx": 1,
  "previousblockhash": "00000000332c9dfada6f01425a00ff28960c0278ad37dd588e2cace2099943a7",
  "nextblockhash": "00000000bf1c8ee6cfc810011106196a128d0fff981d87ac343a129ef37c771d",
  "strippedsize": 216,
  "size": 216,
  "weight": 864,
  "tx": [
    {
      "txid": "a73e554105a964f97f4d496d4688d0881aaa0ddbb56b35c12c3a53d299c2045d",
      "hash": "a73e554105a964f97f4d496d4688d0881aaa0ddbb56b35c12c3a53d299c2045d",
      "version": 1,
      "size": 135,
      "vsize": 135,
      "weight": 540,
      "locktime": 0,
      "vin": [
        {
          "coinbase": "04ffff001d028d08",
          "sequence": 4294967295
        }
      ],
      "vout": [
        {
          "value": 50.0,
          "n": 0,
          "scriptPubKey": {
            "asm": "04255a3af375bcac58d846695e672f005171afaceca3317f1d4eecbbddb596e26880bd5aa2c9ea4de402935b84dd3e375fd8ac0887f558cb368e64fb7b3a52c9cc OP_CHECKSIG",
            "desc": "pk(04255a3af375bcac58d846695e672f005171afaceca3317f1d4eecbbddb596e26880bd5aa2c9ea4de402935b84dd3e375fd8ac0887f558cb368e64fb7b3a52c9cc)#ehxjjw95",
            "hex": "4104255a3af375bcac58d846695e672f005171afaceca3317f1d4eecbbddb596e26880bd5aa2c9ea4de402935b84dd3e375fd8ac0887f558cb368e64fb7b3a52c9ccac",
            "type": "pubkey"
          }
        }
      ],
      "hex": "01000000010000000000000000000000000000000000000000000000000000000000000000ffffffff0804ffff001d028d08ffffffff0100f2052a01000000434104255a3af375bcac58d846695e672f005171afaceca3317f1d4eecbbddb596e26880bd5aa2c9ea4de402935b84dd3e375fd8ac0887f558cb368e64fb7b3a52c9ccac00000000"
    }
  ]
}