{
  "hash": "000000008be0adfe9b6bd5925ead94276b68a15467c4547e0ba532f5994ca574",
  "confirmations": 52019,
  "height": 215,
  "version": 1,
  "versionHex": "00000001",
  "merkleroot": "dc97de0dc82410ad3d32fe6f4f82ecc17ab544893830f6c802f9e31e0050a0f8",
  "time": 1231763114,
  "mediantime": 1231759513,
  "nonce": 204154117,
  "bits": "1d00ffff",
  "difficulty": 1,
  "chainwork": "000000000000000000000000000000000000000000000000000000d800d800d8",
  "nTx": 1,
  "previousblockhash": "00000000ce6a645a076668ffee89c52a85834cb8b30dff55c76418230601d42a",
  "nextblockhash": "00000000faa2c21da83bb2a3151964f03e381cba49db5a0edf83dc834de8c90c",
  "strippedsize": 215,
  "size": 215,
  "weight": 860,
  "tx": [
    {
      "txid": "dc97de0dc82410ad3d32fe6f4f82ecc17ab544893830f6c802f9e31e0050a0f8",
      "hash": "dc97de0dc82410ad3d32fe6f4f82ecc17ab544893830f6c802f9e31e0050a0f8",
      "version": 1,
      "size": 134,
      "vsize": 134,
      "weight": 536,
      "locktime": 0,
      "vin": [
        {
          "coinbase": "04ffff001d0176",
          "sequence": 4294967295
        }
      ],
      "vout": [
        {
          "value": 50.0,
          "n": 0,
          "scriptPubKey": {
            "asm": "04c14600860eaf9960cdbc72fa9d9cba31ddc26481399ab2981d631d90d03f2b6593978fe06d618a97f7873560e7ad52b3c96946b3464ac1900b501bdb8cb6e9b3 OP_CHECKSIG",
            "desc": "pk(04c14600860eaf9960cdbc72fa9d9cba31ddc26481399ab2981d631d90d03f2b6593978fe06d618a97f7873560e7ad52b3c96946b3464ac1900b501bdb8cb6e9b3)#2fjww73j",
            "hex": "4104c14600860eaf9960cdbc72fa9d9cba31ddc26481399ab2981d631d90d03f2b6593978fe06d618a97f7873560e7ad52b3c96946b3464ac1900b501bdb8cb6e9b3ac",
            "type": "pubkey"
          }
        }
      ],
      "hex": "01000000010000000000000000000000000000000000000000000000000000000000000000ffffffff0704ffff001d0176ffffffff0100f2052a01000000434104c14600860eaf9960cdbc72fa9d9cba31ddc26481399ab2981d631d90d03f2b6593978fe06d618a97f7873560e7ad52b3c96946b3464ac1900b501bdb8cb6e9b3ac00000000"
    }
  ]
}