{
  "hash": "00000000ba6e6134d72a12c5c3253823f3a8428d2bee15f3dbb1b530223b3170",
  "confirmations": 47656,
  "height": 5442,
  "version": 1,
  "versionHex": "00000001",
  "merkleroot": "7d434cf8f85a6fb9d0d66c421e47e1899d6ad9e0992b3b60886a603065342b06",
  "time": 1235475523,
  "mediantime": 1235470761,
  "nonce": 2390422280,
  "bits": "1d00ffff",
  "difficulty": 1,
  "chainwork": "0000000000000000000000000000000000000000000000000000154315431543",
  "nTx": 1,
  "previousblockhash": "00000000ed6673488f06a571ff3a22352bc6e713f88958bc178d3766f067862e",
  "nextblockhash": "000000000ca7ece795e557a276b5fba01e25f6072025289d90a1d381fff8d261",
  "strippedsize": 216,
  "size": 216,
  "weight": 864,
  "tx": [
    {
      "txid": "7d434cf8f85a6fb9d0d66c421e47e1899d6ad9e0992b3b60886a603065342b06",
      "hash": "7d434cf8f85a6fb9d0d66c421e47e1899d6ad9e0992b3b60886a603065342b06",
      "version": 1,
      "size": 135,
      "vsize": 135,
      "weight": 540,
      "locktime": 0,
      "vin": [
        {
          "coinbase": "04ffff001d027c04",
          "sequence": 4294967295
        }
      ],
      "vout": [
        {
          "value": 50.0,
          "n": 0,
          "scriptPubKey": {
            "asm": "040b3866af37e40ed2e08d5261e0ddbc2a2295cb9e244fa5f7049e02b1ccef05faf891d63a27dbc56268002e05cc29ee49fadc33b392048d13a04377c9f9488f93 OP_CHECKSIG",
            "desc": "pk(040b3866af37e40ed2e08d5261e0ddbc2a2295cb9e244fa5f7049e02b1ccef05faf891d63a27dbc56268002e05cc29ee49fadc33b392048d13a04377c9f9488f93)#dejt46hs",
            "hex": "41040b3866af37e40ed2e08d5261e0ddbc2a2295cb9e244fa5f7049e02b1ccef05faf891d63a27dbc56268002e05cc29ee49fadc33b392048d13a04377c9f9488f93ac",
            "type": "pubkey"
          }
        }
      ],
      "hex": "01000000010000000000000000000000000000000000000000000000000000000000000000ffffffff0804ffff001d027c04ffffffff0100f2052a010000004341040b3866af37e40ed2e08d5261e0ddbc2a2295cb9e244fa5f7049e02b1ccef05faf891d63a27dbc56268002e05cc29ee49fadc33b392048d13a04377c9f9488f93ac00000000"
    }
  ]
}