{
  "hash": "00000000eabdf33ebb1a8f1793e02fd1291ff1b6b246f1806a820f4908999e1e",
  "confirmations": 51787,
  "height": 1311,
  "version": 1,
  "versionHex": "00000001",
  "merkleroot": "a27b5a6a91582b5b71019843130010fc69de5a4453675557a9a6c6285ae43cec",
  "time": 1232604290,
  "mediantime": 1232599853,
  "nonce": 2766454291,
  "bits": "1d00ffff",
  "difficulty": 1,
  "chainwork": "0000000000000000000000000000000000000000000000000000052005200520",
  "nTx": 1,
  "previousblockhash": "00000000af65d8750ebd67da9421b8054e5bac2a8b25dac3b0f4ce86dcde252d",
  "nextblockhash": "00000000d328947cdbc1fa7392351a1667120f918c38bd12174d872f7382c1e7",
  "strippedsize": 215,
  "size": 215,
  "weight": 860,
  "tx": [
    {
      "txid": "a27b5a6a91582b5b71019843130010fc69de5a4453675557a9a6c6285ae43cec",
      "hash": "a27b5a6a91582b5b71019843130010fc69de5a4453675557a9a6c6285ae43cec",
      "version": 1,
      "size": 134,
      "vsize": 134,
      "weight": 536,
      "locktime": 0,
      "vin": [
        {
          "coinbase": "04ffff001d014f",
          "sequence": 4294967295
        }
      ],
      "vout": [
        {
          "value": 50.0,
          "n": 0,
          "scriptPubKey": {
            "asm": "04ca3709ef54cc248c97e0fb9c51e873744267fafcf8efa3728de15d19262d94f35bcb9ec279eca53e30522b7e855e3f98ea6befc80d5a109772c649db05c49eb1 OP_CHECKSIG",
            "desc": "pk(04ca3709ef54cc248c97e0fb9c51e873744267fafcf8efa3728de15d19262d94f35bcb9ec279eca53e30522b7e855e3f98ea6befc80d5a109772c649db05c49eb1)#huxajtpj",
            "hex": "4104ca3709ef54cc248c97e0fb9c51e873744267fafcf8efa3728de15d19262d94f35bcb9ec279eca53e30522b7e855e3f98ea6befc80d5a109772c649db05c49eb1ac",
            "type": "pubkey"
          }
        }
      ],
      "hex": "01000000010000000000000000000000000000000000000000000000000000000000000000ffffffff0704ffff001d014fffffffff0100f2052a01000000434104ca3709ef54cc248c97e0fb9c51e873744267fafcf8efa3728de15d19262d94f35bcb9ec279eca53e30522b7e855e3f98ea6befc80d5a109772c649db05c49eb1ac00000000"
    }
  ]
}