{
  "hash": "00000000f021c6092044c58a0b4d398fddcc9eca3ad36c8621ac7337231db4a6",
  "confirmations": 50564,
  "height": 2534,
  "version": 1,
  "versionHex": "00000001",
  "merkleroot": "5abb29048bc4be4d40608c113e213f17cc3f1b68db545aa937b392c0d36f2c32",
  "time": 1233440429,
  "mediantime": 1233436290,
  "nonce": 2222691382,
  "bits": "1d00ffff",
  "difficulty": 1,
  "chainwork": "000000000000000000000000000000000000000000000000000009e709e709e7",
  "nTx": 1,
  "previousblockhash": "000000004d092f3b5f821106ec5aa6aee923e5900418f31d8083f65e72ae8ffa",
  "nextblockhash": "00000000bb0ce082a9c12a10d4bf003e64d2d3de464a7b7011588660426fe145",
  "strippedsize": 216,
  "size": 216,
  "weight": 864,
  "tx": [
    {
      "txid": "5abb29048bc4be4d40608c113e213f17cc3f1b68db545aa937b392c0d36f2c32",
      "hash": "5abb29048bc4be4d40608c113e213f17cc3f1b68db545aa937b392c0d36f2c32",
      "version": 1,
      "size": 135,
      "vsize": 135,
      "weight": 540,
      "locktime": 0,
      "vin": [
        {
          "coinbase": "04ffff001d029101",
          "sequence": 4294967295
        }
      ],
      "vout": [
        {
          "value": 50.0,
          "n": 0,
          "scriptPubKey": {
            "asm": "04abee7d11af865365163adebfb3b69892f7d156d5b2554a42297c5f761a7f8d2c71f3cf32d1ab5f5307071bf4d2a2dc929c5cd349b1bd52799d387697142b9ed4 OP_CHECKSIG",
            "desc": "pk(04abee7d11af865365163adebfb3b69892f7d156d5b2554a42297c5f761a7f8d2c71f3cf32d1ab5f5307071bf4d2a2dc929c5cd349b1bd52799d387697142b9ed4)#qqglmnzx",
            "hex": "4104abee7d11af865365163adebfb3b69892f7d156d5b2554a42297c5f761a7f8d2c71f3cf32d1ab5f5307071bf4d2a2dc929c5cd349b1bd52799d387697142b9ed4ac",
            "type": "pubkey"
          }
        }
      ],
      "hex": "01000000010000000000000000000000000000000000000000000000000000000000000000ffffffff0804ffff001d029101ffffffff0100f2052a01000000434104abee7d11af865365163adebfb3b69892f7d156d5b2554a42297c5f761a7f8d2c71f3cf32d1ab5f5307071bf4d2a2dc929c5cd349b1bd52799d387697142b9ed4ac00000000"
    }
  ]
}