{
  "hash": "0000000032eab475075339226b84483c73a38a16e0397dfb5541bdc8d068216f",
  "confirmations": 44082,
  "height": 9016,
  "version": 1,
  "versionHex": "00000001",
  "merkleroot": "8165e4702b1a5939dbdff61f7d1dc58963e3f4319f4f03e94f2779e37bed6e72",
  "time": 1238263697,
  "mediantime": 1238258740,
  "nonce": 1338195732,
  "bits": "1d00ffff",
  "difficulty": 1,
  "chainwork": "0000000000000000000000000000000000000000000000000000233923392339",
  "nTx": 1,
  "previousblockhash": "0000000014ae472605c2919345c6c8e7f87213455218ed44b319f405725a3168",
  "nextblockhash": "00000000e9572df5611fe04e290d9cfecc23794f1200c59efc9330312a324833",
  "strippedsize": 216,
  "size": 216,
  "weight": 864,
  "tx": [
    {
      "txid": "8165e4702b1a5939dbdff61f7d1dc58963e3f4319f4f03e94f2779e37bed6e72",
      "hash": "8165e4702b1a5939dbdff61f7d1dc58963e3f4319f4f03e94f2779e37bed6e72",
      "version": 1,
      "size": 135,
      "vsize": 135,
      "weight": 540,
      "locktime": 0,
      "vin": [
        {
          "coinbase": "04ffff001d02a306",
          "sequence": 4294967295
        }
      ],
      "vout": [
        {
          "value": 50.0,
          "n": 0,
          "scriptPubKey": {
            "asm": "0456fec64ca76fb6d538fa31475d12150a14d5f4b34af82dd9485be46ba0e2b76fc75fdc3c939783e77179394277284dcaf45f77ba31af245f39beaa59b1389ff2 OP_CHECKSIG",
            "desc": "pk(0456fec64ca76fb6d538fa31475d12150a14d5f4b34af82dd9485be46ba0e2b76fc75fdc3c939783e77179394277284dcaf45f77ba31af245f39beaa59b1389ff2)#6qe67g34",
            "hex": "410456fec64ca76fb6d538fa31475d12150a14d5f4b34af82dd9485be46ba0e2b76fc75fdc3c939783e77179394277284dcaf45f77ba31af245f39beaa59b1389ff2ac",
            "type": "pubkey"
          }
        }
      ],
      "hex": "01000000010000000000000000000000000000000000000000000000000000000000000000ffffffff0804ffff001d02a306ffffffff0100f2052a0100000043410456fec64ca76fb6d538fa31475d12150a14d5f4b34af82dd9485be46ba0e2b76fc75fdc3c939783e77179394277284dcaf45f77ba31af245f39beaa59b1389ff2ac00000000"
    }
  ]
}