{
  "hash": "0000000087926ee7063cdbcce1d4a428ebac78488db0d4ec9ff0c1905ea8ef8f",
  "confirmations": 44788,
  "height": 8310,
  "version": 1,
  "versionHex": "00000001",
  "merkleroot": "60063df7aeaada032a0a15cd1bdc934f91f0dfe32d96ac27bff081d59b54bf74",
  "time": 1237736630,
  "mediantime": 1237733282,
  "nonce": 2336702518,
  "bits": "1d00ffff",
  "difficulty": 1,
  "chainwork": "0000000000000000000000000000000000000000000000000000207720772077",
  "nTx": 1,
  "previousblockhash": "0000000056d5a0d1e1776015a450e3fa8a214d05cedb0747d0db32e4f4c27e6e",
  "nextblockhash": "00000000a30f9861415541ec81f08a7817d1ec670719788049a62532db8d2ac0",
  "strippedsize": 216,
  "size": 216,
  "weight": 864,
  "tx": [
    {
      "txid": "60063df7aeaada032a0a15cd1bdc934f91f0dfe32d96ac27bff081d59b54bf74",
      "hash": "60063df7aeaada032a0a15cd1bdc934f91f0dfe32d96ac27bff081d59b54bf74",
      "version": 1,
      "size": 135,
      "vsize": 135,
      "weight": 540,
      "locktime": 0,
      "vin": [
        {
          "coinbase": "04ffff001d024704",
          "sequence": 4294967295
        }
      ],
      "vout": [
        {
          "value": 50.0,
          "n": 0,
          "scriptPubKey": {
            "asm": "04941b0ada1674c73f16a7970783e49054cca31e2503c2ded2ceb5e914ef65e5af44507ec6040b1274f4050c098b0bcaf8d7e9025ee8bb05be6e1365b58ea233fc OP_CHECKSIG",
            "desc": "pk(04941b0ada1674c73f16a7970783e49054cca31e2503c2ded2ceb5e914ef65e5af44507ec6040b1274f4050c098b0bcaf8d7e9025ee8bb05be6e1365b58ea233fc)#35emx0dp",
            "hex": "4104941b0ada1674c73f16a7970783e49054cca31e2503c2ded2ceb5e914ef65e5af44507ec6040b1274f4050c098b0bcaf8d7e9025ee8bb05be6e1365b58ea233fcac",
            "type": "pubkey"
          }
        }
      ],
      "hex": "01000000010000000000000000000000000000000000000000000000000000000000000000ffffffff0804ffff001d024704ffffffff0100f2052a01000000434104941b0ada1674c73f16a7970783e49054cca31e2503c2ded2ceb5e914ef65e5af44507ec6040b1274f4050c098b0bcaf8d7e9025ee8bb05be6e1365b58ea233fcac00000000"
    }
  ]
}