{
  "hash": "000000008787f54e90e3b15e55ee664fdedd2a5c2bd37d51cb52324c6a41cc40",
  "confirmations": 44484,
  "height": 8614,
  "version": 1,
  "versionHex": "00000001",
  "merkleroot": "61788253d6db1c70680a77ec5f69bf186a3964ee533680551c76e40b90712d9e",
  "time": 1237959374,
  "mediantime": 1237956321,
  "nonce": 1646962737,
  "bits": "1d00ffff",
  "difficulty": 1,
  "chainwork": "000000000000000000000000000000000000000000000000000021a721a721a7",
  "nTx": 1,
  "previousblockhash": "00000000b2cf993521124863c5f2223ab6b25914dbb79abf8a70ff8ca516f70d",
  "nextblockhash": "000000009d640b0a5751d997cffade8a7e2e1e91c0c0bf6b395581c2801de0d1",
  "strippedsize": 216,
  "size": 216,
  "weight": 864,
  "tx": [
    {
      "txid": "61788253d6db1c70680a77ec5f69bf186a3964ee533680551c76e40b90712d9e",
      "hash": "61788253d6db1c70680a77ec5f69bf186a3964ee533680551c76e40b90712d9e",
      "version": 1,
      "size": 135,
      "vsize": 135,
      "weight": 540,
      "locktime": 0,
      "vin": [
        {
          "coinbase": "04ffff001d02ae09",
          "sequence": 4294967295
        }
      ],
      "vout": [
        {
          "value": 50.0,
          "n": 0,
          "scriptPubKey": {
            "asm": "0468d408311bfca845f8e6d40fc4fa67950031087c7fa660857ed53f6924d2523efefcd4bbccb51120fd66b98edff928610ea912a9535bff425c004ea6d9fdc93b OP_CHECKSIG",
            "desc": "pk(0468d408311bfca845f8e6d40fc4fa67950031087c7fa660857ed53f6924d2523efefcd4bbccb51120fd66b98edff928610ea912a9535bff425c004ea6d9fdc93b)#7l2ctu90",
            "hex": "410468d408311bfca845f8e6d40fc4fa67950031087c7fa660857ed53f6924d2523efefcd4bbccb51120fd66b98edff928610ea912a9535bff425c004ea6d9fdc93bac",
            "type": "pubkey"
          }
        }
      ],
      "hex": "01000000010000000000000000000000000000000000000000000000000000000000000000ffffffff0804ffff001d02ae09ffffffff0100f2052a0100000043410468d408311bfca845f8e6d40fc4fa67950031087c7fa660857ed53f6924d2523efefcd4bbccb51120fd66b98edff928610ea912a9535bff425c004ea6d9fdc93bac00000000"
    }
  ]
}