{
  "hash": "00000000589999eb514dc14d0a4bdd5b3c6f69b8077ce63909862fc4782f9897",
  "confirmations": 45155,
  "height": 7943,
  "version": 1,
  "versionHex": "00000001",
  "merkleroot": "808cd6ebfb9afbdfac385f6ac75c4a133f89dd19c437c6a4b133dac11f350913",
  "time": 1237422408,
  "mediantime": 1237419019,
  "nonce": 39335445,
  "bits": "1d00ffff",
  "difficulty": 1,
  "chainwork": "00000000000000000000000000000000000000000000000000001f081f081f08",
  "nTx": 1,
  "previousblockhash": "00000000ecb825f6f220dcbc0b1e39355ebe2354cc0cf63ce40546b51bb7c437",
  "nextblockhash": "0000000021d3b1decac58027e42da53c9540d3568a8c12f4f03d2e2a5c752814",
  "strippedsize": 215,
  "size": 215,
  "weight": 860,
  "tx": [
    {
      "txid": "808cd6ebfb9afbdfac385f6ac75c4a133f89dd19c437c6a4b133dac11f350913",
      "hash": "808cd6ebfb9afbdfac385f6ac75c4a133f89dd19c437c6a4b133dac11f350913",
      "version": 1,
      "size": 134,
      "vsize": 134,
      "weight": 536,
      "locktime": 0,
      "vin": [
        {
          "coinbase": "04ffff001d0105",
          "sequence": 4294967295
        }
      ],
      "vout": [
        {
          "value": 50.0,
          "n": 0,
          "scriptPubKey": {
            "asm": "04a7fb3e6e435d5d1c6d4536bad10e19ca1da72de50933a6b8b4507f39e0bdb74a14f279fd117ff58c6c5adb0c291355b8047af2c018d1c00fc10128fb17e82099 OP_CHECKSIG",
            "desc": "pk(04a7fb3e6e435d5d1c6d4536bad10e19ca1da72de50933a6b8b4507f39e0bdb74a14f279fd117ff58c6c5adb0c291355b8047af2c018d1c00fc10128fb17e82099)#779f9qc9",
            "hex": "4104a7fb3e6e435d5d1c6d4536bad10e19ca1da72de50933a6b8b4507f39e0bdb74a14f279fd117ff58c6c5adb0c291355b8047af2c018d1c00fc10128fb17e82099ac",
            "type": "pubkey"
          }
        }
      ],
      "hex": "01000000010000000000000000000000000000000000000000000000000000000000000000ffffffff0704ffff001d0105ffffffff0100f2052a01000000434104a7fb3e6e435d5d1c6d4536bad10e19ca1da72de50933a6b8b4507f39e0bdb74a14f279fd117ff58c6c5adb0c291355b8047af2c018d1c00fc10128fb17e82099ac00000000"
    }
  ]
}