{
  "hash": "000000003b00bf0720292e4cbf4a9b90b9b793db6d047532afe3c69784e9c34e",
  "confirmations": 47240,
  "height": 5858,
  "version": 1,
  "versionHex": "00000001",
  "merkleroot": "ba6bdd2a06eb0a01cbd6fe31b1229d7fe70391f17eb38d7a449a31be8aceda02",
  "time": 1235808195,
  "mediantime": 1235803935,
  "nonce": 1306254380,
  "bits": "1d00ffff",
  "difficulty": 1,
  "chainwork": "000000000000000000000000000000000000000000000000000016e316e316e3",
  "nTx": 1,
  "previousblockhash": "000000003bcb083b87ad79fe333e3aa90e29c3ac417d26ac99324ffdba260a90",
  "nextblockhash": "000000002301e5593a516241fa2a884f334c1f1b5883c7109aad1b7f3e168c34",
  "strippedsize": 216,
  "size": 216,
  "weight": 864,
  "tx": [
    {
      "txid": "ba6bdd2a06eb0a01cbd6fe31b1229d7fe70391f17eb38d7a449a31be8aceda02",
      "hash": "ba6bdd2a06eb0a01cbd6fe31b1229d7fe70391f17eb38d7a449a31be8aceda02",
      "version": 1,
      "size": 135,
      "vsize": 135,
      "weight": 540,
      "locktime": 0,
      "vin": [
        {
          "coinbase": "04ffff001d021602",
          "sequence": 4294967295
        }
      ],
      "vout": [
        {
          "value": 50.0,
          "n": 0,
          "scriptPubKey": {
            "asm": "046d007f3b291d309949b68d7fa0363432e601f226fd1c44cc7099dd6f9fa034a3acfb8fafde0aae33580a94f9278d68d353a665a0f615c20590efd8d47da45aff OP_CHECKSIG",
            "desc": "pk(046d007f3b291d309949b68d7fa0363432e601f226fd1c44cc7099dd6f9fa034a3acfb8fafde0aae33580a94f9278d68d353a665a0f615c20590efd8d47da45aff)#qhsm9xml",
            "hex": "41046d007f3b291d309949b68d7fa0363432e601f226fd1c44cc7099dd6f9fa034a3acfb8fafde0aae33580a94f9278d68d353a665a0f615c20590efd8d47da45affac",
            "type": "pubkey"
          }
        }
      ],
      "hex": "01000000010000000000000000000000000000000000000000000000000000000000000000ffffffff0804ffff001d021602ffffffff0100f2052a010000004341046d007f3b291d309949b68d7fa0363432e601f226fd1c44cc7099dd6f9fa034a3acfb8fafde0aae33580a94f9278d68d353a665a0f615c20590efd8d47da45affac00000000"
    }
  ]
}