{
  "hash": "00000000b05f46cf39a85dcb3743c437f17d920b286412a8d5339de8f5b82872",
  "confirmations": 46593,
  "height": 6505,
  "version": 1,
  "versionHex": "00000001",
  "merkleroot": "6e238e383d80d16e07dbf67712e44f76b8e6a96bcdecc81a847f25357e35062e",
  "time": 1236334938,
  "mediantime": 1236330950,
  "nonce": 110534741,
  "bits": "1d00ffff",
  "difficulty": 1,
  "chainwork": "0000000000000000000000000000000000000000000000000000196a196a196a",
  "nTx": 1,
  "previousblockhash": "0000000092c065597fb404109ba891cdd509879774bf7dea5e3d9abafe888db2",
  "nextblockhash": "000000008a6ab5d76aabfda0a7d31df792b5fc68789895ecc5fa0dbd39143eeb",
  "strippedsize": 216,
  "size": 216,
  "weight": 864,
  "tx": [
    {
      "txid": "6e238e383d80d16e07dbf67712e44f76b8e6a96bcdecc81a847f25357e35062e",
      "hash": "6e238e383d80d16e07dbf67712e44f76b8e6a96bcdecc81a847f25357e35062e",
      "version": 1,
      "size": 135,
      "vsize": 135,
      "weight": 540,
      "locktime": 0,
      "vin": [
        {
          "coinbase": "04ffff001d02330b",
          "sequence": 4294967295
        }
      ],
      "vout": [
        {
          "value": 50.0,
          "n": 0,
          "scriptPubKey": {
            "asm": "0495a3d488e7c6eebcf71c6e57049d15e74ddda61c884fc00cfc58ddc3b7571a7700192ab82cd864606bd72559c9aa9caaf529d77254fb60214a6203e719c8cdb9 OP_CHECKSIG",
            "desc": "pk(0495a3d488e7c6eebcf71c6e57049d15e74ddda61c884fc00cfc58ddc3b7571a7700192ab82cd864606bd72559c9aa9caaf529d77254fb60214a6203e719c8cdb9)#0wx69u8h",
            "hex": "410495a3d488e7c6eebcf71c6e57049d15e74ddda61c884fc00cfc58ddc3b7571a7700192ab82cd864606bd72559c9aa9caaf529d77254fb60214a6203e719c8cdb9ac",
            "type": "pubkey"
          }
        }
      ],
      "hex": "01000000010000000000000000000000000000000000000000000000000000000000000000ffffffff0804ffff001d02330bffffffff0100f2052a0100000043410495a3d488e7c6eebcf71c6e57049d15e74ddda61c884fc00cfc58ddc3b7571a7700192ab82cd864606bd72559c9aa9caaf529d77254fb60214a6203e719c8cdb9ac00000000"
    }
  ]
}