{
  "hash": "000000000cf3061f468f2160750c6b45f0de38d76fbfe132c735ae851c9996e8",
  "confirmations": 44055,
  "height": 9043,
  "version": 1,
  "versionHex": "00000001",
  "merkleroot": "4b6d5806b19741541ceaff95ce1d4761b7f8c1dd0c53b5fe421d5309034560b4",
  "time": 1238283999,
  "mediantime": 1238280592,
  "nonce": 2290779433,
  "bits": "1d00ffff",
  "difficulty": 1,
  "chainwork": "0000000000000000000000000000000000000000000000000000235423542354",
  "nTx": 1,
  "previousblockhash": "00000000723dc61eff2d9e4fa6f20fc298a012c52f8ab76a139a796e2c7a52fa",
  "nextblockhash": "000000001e8e2046288d542c5cc9ae27dbb6b4fefcb1efb658329654a74edc6c",
  "strippedsize": 216,
  "size": 216,
  "weight": 864,
  "tx": [
    {
      "txid": "4b6d5806b19741541ceaff95ce1d4761b7f8c1dd0c53b5fe421d5309034560b4",
      "hash": "4b6d5806b19741541ceaff95ce1d4761b7f8c1dd0c53b5fe421d5309034560b4",
      "version": 1,
      "size": 135,
      "vsize": 135,
      "weight": 540,
      "locktime": 0,
      "vin": [
        {
          "coinbase": "04ffff001d022407",
          "sequence": 4294967295
        }
      ],
      "vout": [
        {
          "value": 50.0,
          "n": 0,
          "scriptPubKey": {
            "asm": "040612b82c3288dd732b05cae0717243843fcb95b7732b0dcfaec4d7b757fcf0ffbaa6425f8d4e7e0d9ea8e1537e89ce6cc9ee6d735ee3866504fbe64a6815d965 OP_CHECKSIG",
            "desc": "pk(040612b82c3288dd732b05cae0717243843fcb95b7732b0dcfaec4d7b757fcf0ffbaa6425f8d4e7e0d9ea8e1537e89ce6cc9ee6d735ee3866504fbe64a6815d965)#qkduvlyf",
            "hex": "41040612b82c3288dd732b05cae0717243843fcb95b7732b0dcfaec4d7b757fcf0ffbaa6425f8d4e7e0d9ea8e1537e89ce6cc9ee6d735ee3866504fbe64a6815d965ac",
            "type": "pubkey"
          }
        }
      ],
      "hex": "01000000010000000000000000000000000000000000000000000000000000000000000000ffffffff0804ffff001d022407ffffffff0100f2052a010000004341040612b82c3288dd732b05cae0717243843fcb95b7732b0dcfaec4d7b757fcf0ffbaa6425f8d4e7e0d9ea8e1537e89ce6cc9ee6d735ee3866504fbe64a6815d965ac00000000"
    }
  ]
}