{
  "hash": "000000006ba84c4373f6c8372932e76e51da59ee24fdfa01afdc337f7f8d978d",
  "confirmations": 46627,
  "height": 6471,
  "version": 1,
  "versionHex": "00000001",
  "merkleroot": "5adf02818fcb7d020cf1cbab8328f63965f0f1c9bd1854df4f470f2bdb30f56f",
  "time": 1236308258,
  "mediantime": 1236303344,
  "nonce": 480554517,
  "bits": "1d00ffff",
  "difficulty": 1,
  "chainwork": "0000000000000000000000000000000000000000000000000000194819481948",
  "nTx": 1,
  "previousblockhash": "0000000032428f2545047f6e32b40ad6df7a96b2feb287467aa20013b2790f8d",
  "nextblockhash": "000000004b31f69d6676aa052619829f331b4f226c37fa956bddd7aef5201bb4",
  "strippedsize": 216,
  "size": 216,
  "weight": 864,
  "tx": [
    {
      "txid": "5adf02818fcb7d020cf1cbab8328f63965f0f1c9bd1854df4f470f2bdb30f56f",
      "hash": "5adf02818fcb7d020cf1cbab8328f63965f0f1c9bd1854df4f470f2bdb30f56f",
      "version": 1,
      "size": 135,
      "vsize": 135,
      "weight": 540,
      "locktime": 0,
      "vin": [
        {
          "coinbase": "04ffff001d02d802",
          "sequence": 4294967295
        }
      ],
      "vout": [
        {
          "value": 50.0,
          "n": 0,
          "scriptPubKey": {
            "asm": "04704ff1ca325520785ada332f1611802f2334ebdbc3268bc6e01f9d3b4985282975ba179ef66a41f7776468fbee30544469f1be9fc9080dc61bc21fa97a5e0dd3 OP_CHECKSIG",
            "desc": "pk(04704ff1ca325520785ada332f1611802f2334ebdbc3268bc6e01f9d3b4985282975ba179ef66a41f7776468fbee30544469f1be9fc9080dc61bc21fa97a5e0dd3)#u0faj3rx",
            "hex": "4104704ff1ca325520785ada332f1611802f2334ebdbc3268bc6e01f9d3b4985282975ba179ef66a41f7776468fbee30544469f1be9fc9080dc61bc21fa97a5e0dd3ac",
            "type": "pubkey"
          }
        }
      ],
      "hex": "01000000010000000000000000000000000000000000000000000000000000000000000000ffffffff0804ffff001d02d802ffffffff0100f2052a01000000434104704ff1ca325520785ada332f1611802f2334ebdbc3268bc6e01f9d3b4985282975ba179ef66a41f7776468fbee30544469f1be9fc9080dc61bc21fa97a5e0dd3ac00000000"
    }
  ]
}