{
  "hash": "000000006d0dab5b68864a4efd945d04860b9d7a227ad02ebde903eaacc8d8dc",
  "confirmations": 47949,
  "height": 5149,
  "version": 1,
  "versionHex": "00000001",
  "merkleroot": "94ea29f9d07b2ab96b85c60316c09b580f0af9bf50bc3d46f1c83788b03f3adb",
  "time": 1235252633,
  "mediantime": 1235248338,
  "nonce": 271129589,
  "bits": "1d00ffff",
  "difficulty": 1,
  "chainwork": "0000000000000000000000000000000000000000000000000000141e141e141e",
  "nTx": 1,
  "previousblockhash": "000000009713cdd4b0b1e88ba44fdcb0e9baae9ba534cd4d1689121a0d3934e8",
  "nextblockhash": "00000000d359dd3280b18846242abe55db3ec6c60b04d70a0e6461592102bf41",
  "strippedsize": 216,
  "size": 216,
  "weight": 864,
  "tx": [
    {
      "txid": "94ea29f9d07b2ab96b85c60316c09b580f0af9bf50bc3d46f1c83788b03f3adb",
      "hash": "94ea29f9d07b2ab96b85c60316c09b580f0af9bf50bc3d46f1c83788b03f3adb",
      "version": 1,
      "size": 135,
      "vsize": 135,
      "weight": 540,
      "locktime": 0,
      "vin": [
        {
          "coinbase": "04ffff001d02b60c",
          "sequence": 4294967295
        }
      ],
      "vout": [
        {
          "value": 50.0,
          "n": 0,
          "scriptPubKey": {
            "asm": "04b109fecedb05c55fe6705d56a9023e3118c82a212e0c891dfa4025bb60a9e728caa3df9b8159cf96aea718cefd70c97727253ee53f82bac8e7cb1ebe0b04772a OP_CHECKSIG",
            "desc": "pk(04b109fecedb05c55fe6705d56a9023e3118c82a212e0c891dfa4025bb60a9e728caa3df9b8159cf96aea718cefd70c97727253ee53f82bac8e7cb1ebe0b04772a)#sun7nmtm",
            "hex": "4104b109fecedb05c55fe6705d56a9023e3118c82a212e0c891dfa4025bb60a9e728caa3df9b8159cf96aea718cefd70c97727253ee53f82bac8e7cb1ebe0b04772aac",
            "type": "pubkey"
          }
        }
      ],
      "hex": "01000000010000000000000000000000000000000000000000000000000000000000000000ffffffff0804ffff001d02b60cffffffff0100f2052a01000000434104b109fecedb05c55fe6705d56a9023e3118c82a212e0c891dfa4025bb60a9e728caa3df9b8159cf96aea718cefd70c97727253ee53f82bac8e7cb1ebe0b04772aac00000000"
    }
  ]
}