{
  "hash": "0000000017eb5e1cdb2d28bab5703122ffce6b3c00f53f12dbbe997eb94ca487",
  "confirmations": 46135,
  "height": 6963,
  "version": 1,
  "versionHex": "00000001",
  "merkleroot": "3c86cac995117ab381537b6494b6ecd28599f3fb42b8221dc56096df17078b33",
  "time": 1236689439,
  "mediantime": 1236686272,
  "nonce": 110986500,
  "bits": "1d00ffff",
  "difficulty": 1,
  "chainwork": "00000000000000000000000000000000000000000000000000001b341b341b34",
  "nTx": 1,
  "previousblockhash": "000000006455617bb6eda83a5bfbe4aa5e4c8227dcb2956aea903e36041135b6",
  "nextblockhash": "00000000da00b8154b4ade8c1d36147fc61b6c5973a99a562ce5213f8ea7979f",
  "strippedsize": 216,
  "size": 216,
  "weight": 864,
  "tx": [
    {
      "txid": "3c86cac995117ab381537b6494b6ecd28599f3fb42b8221dc56096df17078b33",
      "hash": "3c86cac995117ab381537b6494b6ecd28599f3fb42b8221dc56096df17078b33",
      "version": 1,
      "size": 135,
      "vsize": 135,
      "weight": 540,
      "locktime": 0,
      "vin": [
        {
          "coinbase": "04ffff001d025601",
          "sequence": 4294967295
        }
      ],
      "vout": [
        {
          "value": 50.0,
          "n": 0,
          "scriptPubKey": {
            "asm": "040cfb473af4833be82018d95cf4ef85ecb9657cda7fa4849387737e998b30644faf230ab9e61aac4043580f0144da28eac128368b4eb9b474fb1b98c92afa02da OP_CHECKSIG",
            "desc": "pk(040cfb473af4833be82018d95cf4ef85ecb9657cda7fa4849387737e998b30644faf230ab9e61aac4043580f0144da28eac128368b4eb9b474fb1b98c92afa02da)#zy46qm2w",
            "hex": "41040cfb473af4833be82018d95cf4ef85ecb9657cda7fa4849387737e998b30644faf230ab9e61aac4043580f0144da28eac128368b4eb9b474fb1b98c92afa02daac",
            "type": "pubkey"
          }
        }
      ],
      "hex": "01000000010000000000000000000000000000000000000000000000000000000000000000ffffffff0804ffff001d025601ffffffff0100f2052a010000004341040cfb473af4833be82018d95cf4ef85ecb9657cda7fa4849387737e998b30644faf230ab9e61aac4043580f0144da28eac128368b4eb9b474fb1b98c92afa02daac00000000"
    }
  ]
}