{
  "hash": "00000000f60fd4df2c29b076d9879f45e1bfd42951034d06498b28a1eab67da2",
  "confirmations": 47037,
  "height": 6061,
  "version": 1,
  "versionHex": "00000001",
  "merkleroot": "93a6354bde0caecda45ff07c196a7ad9297a2fa00c864fa42ada60bbf02a6657",
  "time": 1235977772,
  "mediantime": 1235974015,
  "nonce": 1294306054,
  "bits": "1d00ffff",
  "difficulty": 1,
  "chainwork": "000000000000000000000000000000000000000000000000000017ae17ae17ae",
  "nTx": 1,
  "previousblockhash": "00000000731b601cea4acf3f15a530eef752e5530849b9a5b565f4aed006df25",
  "nextblockhash": "00000000c865ca2af3981da880155c9614afa4012e19102d97d8cfa45b6158bc",
  "strippedsize": 216,
  "size": 216,
  "weight": 864,
  "tx": [
    {
      "txid": "93a6354bde0caecda45ff07c196a7ad9297a2fa00c864fa42ada60bbf02a6657",
      "hash": "93a6354bde0caecda45ff07c196a7ad9297a2fa00c864fa42ada60bbf02a6657",
      "version": 1,
      "size": 135,
      "vsize": 135,
      "weight": 540,
      "locktime": 0,
      "vin": [
        {
          "coinbase": "04ffff001d020a06",
          "sequence": 4294967295
        }
      ],
      "vout": [
        {
          "value": 50.0,
          "n": 0,
          "scriptPubKey": {
            "asm": "04491e5d507e942724a50d84279010fc5c94aff4a136b2640922648cf4d47b74011ce945e38e3a89965dbc4e0c6fc27bbaedc1a368d4bee956b13142871faaca7f OP_CHECKSIG",
            "desc": "pk(04491e5d507e942724a50d84279010fc5c94aff4a136b2640922648cf4d47b74011ce945e38e3a89965dbc4e0c6fc27bbaedc1a368d4bee956b13142871faaca7f)#4u5qhdwf",
            "hex": "4104491e5d507e942724a50d84279010fc5c94aff4a136b2640922648cf4d47b74011ce945e38e3a89965dbc4e0c6fc27bbaedc1a368d4bee956b13142871faaca7fac",
            "type": "pubkey"
          }
        }
      ],
      "hex": "01000000010000000000000000000000000000000000000000000000000000000000000000ffffffff0804ffff001d020a06ffffffff0100f2052a01000000434104491e5d507e942724a50d84279010fc5c94aff4a136b2640922648cf4d47b74011ce945e38e3a89965dbc4e0c6fc27bbaedc1a368d4bee956b13142871faaca7fac00000000"
    }
  ]
}