{
  "hash": "000000002cc7aa44265bc9802bdb2aae0fd16493a861779838ed65ee1627351a",
  "confirmations": 49897,
  "height": 3201,
  "version": 1,
  "versionHex": "00000001",
  "merkleroot": "624bc70fb224a900cfd9abae16dfc0afe61e04b85940a3fdf75ffdadf8a039bf",
  "time": 1233902189,
  "mediantime": 1233896460,
  "nonce": 3838556981,
  "bits": "1d00ffff",
  "difficulty": 1,
  "chainwork": "00000000000000000000000000000000000000000000000000000c820c820c82",
  "nTx": 1,
  "previousblockhash": "00000000bccaab487030fe7c0d8d66a80fefc157bd75f0de40b6b8d61ea1d287",
  "nextblockhash": "000000002468fc7e0c243e0eef9049a90617baca0cf17186aa5df9d1f15a5f60",
  "strippedsize": 216,
  "size": 216,
  "weight": 864,
  "tx": [
    {
      "txid": "624bc70fb224a900cfd9abae16dfc0afe61e04b85940a3fdf75ffdadf8a039bf",
      "hash": "624bc70fb224a900cfd9abae16dfc0afe61e04b85940a3fdf75ffdadf8a039bf",
      "version": 1,
      "size": 135,
      "vsize": 135,
      "weight": 540,
      "locktime": 0,
      "vin": [
        {
          "coinbase": "04ffff001d02c002",
          "sequence": 4294967295
        }
      ],
      "vout": [
        {
          "value": 50.0,
          "n": 0,
          "scriptPubKey": {
            "asm": "04a64195460ee7719ffcc2a92c522b7904304a9569d5a65dbb523ef7931c1b02c1980b5741602498d6d4c7a551e50b418d1f1f9c74d99e875845b2fa070d2355e7 OP_CHECKSIG",
            "desc": "pk(04a64195460ee7719ffcc2a92c522b7904304a9569d5a65dbb523ef7931c1b02c1980b5741602498d6d4c7a551e50b418d1f1f9c74d99e875845b2fa070d2355e7)#tz5hewj0",
            "hex": "4104a64195460ee7719ffcc2a92c522b7904304a9569d5a65dbb523ef7931c1b02c1980b5741602498d6d4c7a551e50b418d1f1f9c74d99e875845b2fa070d2355e7ac",
            "type": "pubkey"
          }
        }
      ],
      "hex": "01000000010000000000000000000000000000000000000000000000000000000000000000ffffffff0804ffff001d02c002ffffffff0100f2052a01000000434104a64195460ee7719ffcc2a92c522b7904304a9569d5a65dbb523ef7931c1b02c1980b5741602498d6d4c7a551e50b418d1f1f9c74d99e875845b2fa070d2355e7ac00000000"
    }
  ]
}