{
  "hash": "00000000ae748666ef62e384a02ce2568a59e80349f2c9ce250e48dbcb77ce6c",
  "confirmations": 47601,
  "height": 5497,
  "version": 1,
  "versionHex": "00000001",
  "merkleroot": "4ff3091b8d6487210e5962e9e685ceaadd52cd07739e9dcb7e95e677bc21b205",
  "time": 1235519551,
  "mediantime": 1235514970,
  "nonce": 2861180424,
  "bits": "1d00ffff",
  "difficulty": 1,
  "chainwork": "0000000000000000000000000000000000000000000000000000157a157a157a",
  "nTx": 1,
  "previousblockhash": "00000000a62a159fc96d465e76da1d1e503b0f226e7feaf815196b690480e303",
  "nextblockhash": "0000000015a65a0dc19b34aedfe8c450254c226ed879fc93ade23f770d6e9df9",
  "strippedsize": 216,
  "size": 216,
  "weight": 864,
  "tx": [
    {
      "txid": "4ff3091b8d6487210e5962e9e685ceaadd52cd07739e9dcb7e95e677bc21b205",
      "hash": "4ff3091b8d6487210e5962e9e685ceaadd52cd07739e9dcb7e95e677bc21b205",
      "version": 1,
      "size": 135,
      "vsize": 135,
      "weight": 540,
      "locktime": 0,
      "vin": [
        {
          "coinbase": "04ffff001d029005",
          "sequence": 4294967295
        }
      ],
      "vout": [
        {
          "value": 50.0,
          "n": 0,
          "scriptPubKey": {
            "asm": "04fc0eca308e2ffdf9faf347734e943e5ed4ae8f8e2b00026e5aadcc87a4133be21e4752cec67e9e2e739bd5d82539cb4210c3d572bc00406aaa4a38588f5ace70 OP_CHECKSIG",
            "desc": "pk(04fc0eca308e2ffdf9faf347734e943e5ed4ae8f8e2b00026e5aadcc87a4133be21e4752cec67e9e2e739bd5d82539cb4210c3d572bc00406aaa4a38588f5ace70)#nd47kk9h",
            "hex": "4104fc0eca308e2ffdf9faf347734e943e5ed4ae8f8e2b00026e5aadcc87a4133be21e4752cec67e9e2e739bd5d82539cb4210c3d572bc00406aaa4a38588f5ace70ac",
            "type": "pubkey"
          }
        }
      ],
      "hex": "01000000010000000000000000000000000000000000000000000000000000000000000000ffffffff0804ffff001d029005ffffffff0100f2052a01000000434104fc0eca308e2ffdf9faf347734e943e5ed4ae8f8e2b00026e5aadcc87a4133be21e4752cec67e9e2e739bd5d82539cb4210c3d572bc00406aaa4a38588f5ace70ac00000000"
    }
  ]
}