{
  "hash": "00000000b974e0a66bd2dd1973758c7dfdf74d1be1077c2e413c5f8d7bdf0aae",
  "confirmations": 51269,
  "height": 1829,
  "version": 1,
  "versionHex": "00000001",
  "merkleroot": "ab384adbb710c9b8bef321cea225b203150bd5216344ea4406829d9c2c5d7b1b",
  "time": 1232912933,
  "mediantime": 1232909862,
  "nonce": 1567802666,
  "bits": "1d00ffff",
  "difficulty": 1,
  "chainwork": "0000000000000000000000000000000000000000000000000000072607260726",
  "nTx": 1,
  "previousblockhash": "0000000028455cf2ba62501997535a626de2593fa518ebe6f16a1ca1b4152506",
  "nextblockhash": "000000009e6a05d053409236953adae0e74b2cb63ac35fe5a2938503a6216fcb",
  "strippedsize": 216,
  "size": 216,
  "weight": 864,
  "tx": [
    {
      "txid": "ab384adbb710c9b8bef321cea225b203150bd5216344ea4406829d9c2c5d7b1b",
      "hash": "ab384adbb710c9b8bef321cea225b203150bd5216344ea4406829d9c2c5d7b1b",
      "version": 1,
      "size": 135,
      "vsize": 135,
      "weight": 540,
      "locktime": 0,
      "vin": [
        {
          "coinbase": "04ffff001d027204",
          "sequence": 4294967295
        }
      ],
      "vout": [
        {
          "value": 50.0,
          "n": 0,
          "scriptPubKey": {
            "asm": "04d9dfc4908408f4bafa06979eed1b54812bfbd974f8abdb78de4d92cafba4f784f03e4904131d453716f3b03e2d294768fd78eaf8537507eaa35cfc243dbf18a9 OP_CHECKSIG",
            "desc": "pk(04d9dfc4908408f4bafa06979eed1b54812bfbd974f8abdb78de4d92cafba4f784f03e4904131d453716f3b03e2d294768fd78eaf8537507eaa35cfc243dbf18a9)#h8cnuptt",
            "hex": "4104d9dfc4908408f4bafa06979eed1b54812bfbd974f8abdb78de4d92cafba4f784f03e4904131d453716f3b03e2d294768fd78eaf8537507eaa35cfc243dbf18a9ac",
            "type": "pubkey"
          }
        }
      ],
      "hex": "01000000010000000000000000000000000000000000000000000000000000000000000000ffffffff0804ffff001d027204ffffffff0100f2052a01000000434104d9dfc4908408f4bafa06979eed1b54812bfbd974f8abdb78de4d92cafba4f784f03e4904131d453716f3b03e2d294768fd78eaf8537507eaa35cfc243dbf18a9ac00000000"
    }
  ]
}