{
  "hash": "00000000127c54aaa91faa3c9a2b9d9c2526936703122b5b6fd38d2ef21735bf",
  "confirmations": 45986,
  "height": 7112,
  "version": 1,
  "versionHex": "00000001",
  "merkleroot": "086153436e6ca2e6ebe403f8b5666da5684d5f9adba0e3eb5502a5199c7daa20",
  "time": 1236807549,
  "mediantime": 1236802826,
  "nonce": 1703558422,
  "bits": "1d00ffff",
  "difficulty": 1,
  "chainwork": "00000000000000000000000000000000000000000000000000001bc91bc91bc9",
  "nTx": 1,
  "previousblockhash": "00000000fa07bb9eca2ba3e614471ed6cec04fb1e3d5d4c8ba6b90587a8ed7ab",
  "nextblockhash": "00000000696871adf5dcc1f96a07267c950875fa86edf9a0734678ca50812646",
  "strippedsize": 216,
  "size": 216,
  "weight": 864,
  "tx": [
    {
      "txid": "086153436e6ca2e6ebe403f8b5666da5684d5f9adba0e3eb5502a5199c7daa20",
      "hash": "086153436e6ca2e6ebe403f8b5666da5684d5f9adba0e3eb5502a5199c7daa20",
      "version": 1,
      "size": 135,
      "vsize": 135,
      "weight": 540,
      "locktime": 0,
      "vin": [
        {
          "coinbase": "04ffff001d022c04",
          "sequence": 4294967295
        }
      ],
      "vout": [
        {
          "value": 50.0,
          "n": 0,
          "scriptPubKey": {
            "asm": "042a964f45a3e8e9c5f198b414583de90c34e75d970f65a7a7e0a6531acb5669520266475693437b992e6a3ce5854368db5a368893216f5f75372cc5c382c37ff0 OP_CHECKSIG",
            "desc": "pk(042a964f45a3e8e9c5f198b414583de90c34e75d970f65a7a7e0a6531acb5669520266475693437b992e6a3ce5854368db5a368893216f5f75372cc5c382c37ff0)#uhqxc226",
            "hex": "41042a964f45a3e8e9c5f198b414583de90c34e75d970f65a7a7e0a6531acb5669520266475693437b992e6a3ce5854368db5a368893216f5f75372cc5c382c37ff0ac",
            "type": "pubkey"
          }
        }
      ],
      "hex": "01000000010000000000000000000000000000000000000000000000000000000000000000ffffffff0804ffff001d022c04ffffffff0100f2052a010000004341042a964f45a3e8e9c5f198b414583de90c34e75d970f65a7a7e0a6531acb5669520266475693437b992e6a3ce5854368db5a368893216f5f75372cc5c382c37ff0ac00000000"
    }
  ]
}