{
  "hash": "00000000a2eeaf89e9e077bc8908e1501cdebbe7187fc498906bc1d156a6ec64",
  "confirmations": 45093,
  "height": 8005,
  "version": 1,
  "versionHex": "00000001",
  "merkleroot": "b17dcef5cb964617b047cd13a613445cebb47f4a88590746a72dee790a2f9d73",
  "time": 1237464535,
  "mediantime": 1237461258,
  "nonce": 1622504998,
  "bits": "1d00ffff",
  "difficulty": 1,
  "chainwork": "00000000000000000000000000000000000000000000000000001f461f461f46",
  "nTx": 1,
  "previousblockhash": "00000000670e58778b6861f17514c8ffdf786cb2ad2d1c7d77281c1e861c43e9",
  "nextblockhash": "0000000038a4260870c405792244cc5d17fdb4ab1131f71d6a8c4d7c74fd7d8c",
  "strippedsize": 216,
  "size": 216,
  "weight": 864,
  "tx": [
    {
      "txid": "b17dcef5cb964617b047cd13a613445cebb47f4a88590746a72dee790a2f9d73",
      "hash": "b17dcef5cb964617b047cd13a613445cebb47f4a88590746a72dee790a2f9d73",
      "version": 1,
      "size": 135,
      "vsize": 135,
      "weight": 540,
      "locktime": 0,
      "vin": [
        {
          "coinbase": "04ffff001d028009",
          "sequence": 4294967295
        }
      ],
      "vout": [
        {
          "value": 50.0,
          "n": 0,
          "scriptPubKey": {
            "asm": "040d96ae09ecca0fdcdc5f2985d036755e58f73a3e8a013138cd2514232401a48ed5dc905094bce1a1f69f905e8e704068ecce57fd8e8ffe8a5d89ec728c979874 OP_CHECKSIG",
            "desc": "pk(040d96ae09ecca0fdcdc5f2985d036755e58f73a3e8a013138cd2514232401a48ed5dc905094bce1a1f69f905e8e704068ecce57fd8e8ffe8a5d89ec728c979874)#fmz9e0py",
            "hex": "41040d96ae09ecca0fdcdc5f2985d036755e58f73a3e8a013138cd2514232401a48ed5dc905094bce1a1f69f905e8e704068ecce57fd8e8ffe8a5d89ec728c979874ac",
            "type": "pubkey"
          }
        }
      ],
      "hex": "01000000010000000000000000000000000000000000000000000000000000000000000000ffffffff0804ffff001d028009ffffffff0100f2052a010000004341040d96ae09ecca0fdcdc5f2985d036755e58f73a3e8a013138cd2514232401a48ed5dc905094bce1a1f69f905e8e704068ecce57fd8e8ffe8a5d89ec728c979874ac00000000"
    }
  ]
}