{
  "hash": "000000004f59cfa9f6e7238eb92ada0beab8fee7a4ed5f9f1e7a72232c0dc379",
  "confirmations": 52544,
  "height": 554,
  "version": 1,
  "versionHex": "00000001",
  "merkleroot": "f7818861e4e525fc3d19e54441c9ba6283cef3bb801ed9884641763cead55935",
  "time": 1232006385,
  "mediantime": 1232002235,
  "nonce": 2864320536,
  "bits": "1d00ffff",
  "difficulty": 1,
  "chainwork": "0000000000000000000000000000000000000000000000000000022b022b022b",
  "nTx": 1,
  "previousblockhash": "0000000072ec09be6118d66d07ac61dfb7a2ab0220551fdc7af8d6002d1ee069",
  "nextblockhash": "00000000edade40797e3c4bf27edeb65733d1884beaa8c502a89d50a54111e1c",
  "strippedsize": 216,
  "size": 216,
  "weight": 864,
  "tx": [
    {
      "txid": "f7818861e4e525fc3d19e54441c9ba6283cef3bb801ed9884641763cead55935",
      "hash": "f7818861e4e525fc3d19e54441c9ba6283cef3bb801ed9884641763cead55935",
      "version": 1,
      "size": 135,
      "vsize": 135,
      "weight": 540,
      "locktime": 0,
      "vin": [
        {
          "coinbase": "04ffff001d02c205",
          "sequence": 4294967295
        }
      ],
      "vout": [
        {
          "value": 50.0,
          "n": 0,
          "scriptPubKey": {
            "asm": "04e8dd55ccffab2551a9563fc298b464525129b84ab036a36c92e8d1017185280d239db08eead652f6e75c7834021e435c00d0758e0f322dc46116508325dc43a6 OP_CHECKSIG",
            "desc": "pk(04e8dd55ccffab2551a9563fc298b464525129b84ab036a36c92e8d1017185280d239db08eead652f6e75c7834021e435c00d0758e0f322dc46116508325dc43a6)#7rc4tchr",
            "hex": "4104e8dd55ccffab2551a9563fc298b464525129b84ab036a36c92e8d1017185280d239db08eead652f6e75c7834021e435c00d0758e0f322dc46116508325dc43a6ac",
            "type": "pubkey"
          }
        }
      ],
      "hex": "01000000010000000000000000000000000000000000000000000000000000000000000000ffffffff0804ffff001d02c205ffffffff0100f2052a01000000434104e8dd55ccffab2551a9563fc298b464525129b84ab036a36c92e8d1017185280d239db08eead652f6e75c7834021e435c00d0758e0f322dc46116508325dc43a6ac00000000"
    }
  ]
}