{
  "hash": "00000000a2a59182a50b4f9e1b2f0f966933feea493939d429707c1389956a9d",
  "confirmations": 49668,
  "height": 3430,
  "version": 1,
  "versionHex": "00000001",
  "merkleroot": "c01fcee27ea54b90e589fff08a180a9ed42ade6787d0d51c0c98da6ed6cc0543",
  "time": 1234058155,
  "mediantime": 1234055792,
  "nonce": 2446362140,
  "bits": "1d00ffff",
  "difficulty": 1,
  "chainwork": "00000000000000000000000000000000000000000000000000000d670d670d67",
  "nTx": 1,
  "previousblockhash": "00000000af22adca5a00ea77b26e222efad29ab9915ffb2fb26db80783b33a25",
  "nextblockhash": "000000000150d645c43690bc7ba1caaa7add0a25bd32c21f67ea1cdd594e1cc4",
  "strippedsize": 216,
  "size": 216,
  "weight": 864,
  "tx": [
    {
      "txid": "c01fcee27ea54b90e589fff08a180a9ed42ade6787d0d51c0c98da6ed6cc0543",
      "hash": "c01fcee27ea54b90e589fff08a180a9ed42ade6787d0d51c0c98da6ed6cc0543",
      "version": 1,
      "size": 135,
      "vsize": 135,
      "weight": 540,
      "locktime": 0,
      "vin": [
        {
          "coinbase": "04ffff001d020a06",
          "sequence": 4294967295
        }
      ],
      "vout": [
        {
          "value": 50.0,
          "n": 0,
          "scriptPubKey": {
            "asm": "041546356c28bdb8decae1a1c7e341467fbe006055e72c99bc6b23ae47a1f5e18a17e257e1cb03774258f4c40cf00b8fa48ef5bf01c8fc4d8da3d22d527daca71e OP_CHECKSIG",
            "desc": "pk(041546356c28bdb8decae1a1c7e341467fbe006055e72c99bc6b23ae47a1f5e18a17e257e1cb03774258f4c40cf00b8fa48ef5bf01c8fc4d8da3d22d527daca71e)#e5rty0mv",
            "hex": "41041546356c28bdb8decae1a1c7e341467fbe006055e72c99bc6b23ae47a1f5e18a17e257e1cb03774258f4c40cf00b8fa48ef5bf01c8fc4d8da3d22d527daca71eac",
            "type": "pubkey"
          }
        }
      ],
      "hex": "01000000010000000000000000000000000000000000000000000000000000000000000000ffffffff0804ffff001d020a06ffffffff0100f2052a010000004341041546356c28bdb8decae1a1c7e341467fbe006055e72c99bc6b23ae47a1f5e18a17e257e1cb03774258f4c40cf00b8fa48ef5bf01c8fc4d8da3d22d527daca71eac00000000"
    }
  ]
}