{
  "hash": "000000003e44e5a6bea6457d62997d9d7d643dee0a119d8942c26dcda90b454e",
  "confirmations": 44344,
  "height": 8754,
  "version": 1,
  "versionHex": "00000001",
  "merkleroot": "086764c2d35282cbb31c8c9bfeb6ff2fde516f3c3aef32f25602080be68abad1",
  "time": 1238063567,
  "mediantime": 1238059420,
  "nonce": 4196454949,
  "bits": "1d00ffff",
  "difficulty": 1,
  "chainwork": "0000000000000000000000000000000000000000000000000000223322332233",
  "nTx": 1,
  "previousblockhash": "00000000a7de40c4159e249184d3988905f735fc55fcc97b3a9e7cbecb53611c",
  "nextblockhash": "00000000b69587e814b378d834d53cc5c11a488b9d3a4dceaef877677d6e8c8c",
  "strippedsize": 216,
  "size": 216,
  "weight": 864,
  "tx": [
    {
      "txid": "086764c2d35282cbb31c8c9bfeb6ff2fde516f3c3aef32f25602080be68abad1",
      "hash": "086764c2d35282cbb31c8c9bfeb6ff2fde516f3c3aef32f25602080be68abad1",
      "version": 1,
      "size": 135,
      "vsize": 135,
      "weight": 540,
      "locktime": 0,
      "vin": [
        {
          "coinbase": "04ffff001d02c901",
          "sequence": 4294967295
        }
      ],
      "vout": [
        {
          "value": 50.0,
          "n": 0,
          "scriptPubKey": {
            "asm": "04693741608442e52f6521f0f4b3d8d138703167f3cd32fcb285d2d711bbda079d18ce5ccb29364db1c526daa17fc4b4969e9bbfdc701b9bd3e9f64251ae9d0b31 OP_CHECKSIG",
            "desc": "pk(04693741608442e52f6521f0f4b3d8d138703167f3cd32fcb285d2d711bbda079d18ce5ccb29364db1c526daa17fc4b4969e9bbfdc701b9bd3e9f64251ae9d0b31)#gdpzj3r0",
            "hex": "4104693741608442e52f6521f0f4b3d8d138703167f3cd32fcb285d2d711bbda079d18ce5ccb29364db1c526daa17fc4b4969e9bbfdc701b9bd3e9f64251ae9d0b31ac",
            "type": "pubkey"
          }
        }
      ],
      "hex": "01000000010000000000000000000000000000000000000000000000000000000000000000ffffffff0804ffff001d02c901ffffffff0100f2052a01000000434104693741608442e52f6521f0f4b3d8d138703167f3cd32fcb285d2d711bbda079d18ce5ccb29364db1c526daa17fc4b4969e9bbfdc701b9bd3e9f64251ae9d0b31ac00000000"
    }
  ]
}