{
  "hash": "00000000a4015392c9d042eba109e64e97fc3bb0f6385d7a00f523545004a53f",
  "confirmations": 44571,
  "height": 8527,
  "version": 1,
  "versionHex": "00000001",
  "merkleroot": "971111c799cf00c0335c2086ed4164ccd43c07e0708b132aa800a85f62455dc0",
  "time": 1237894457,
  "mediantime": 1237890311,
  "nonce": 91055413,
  "bits": "1d00ffff",
  "difficulty": 1,
  "chainwork": "0000000000000000000000000000000000000000000000000000215021502150",
  "nTx": 1,
  "previousblockhash": "000000007f52c47486c9fa848a14371db3d2698079c75124ea474df9e4eb8cb2",
  "nextblockhash": "00000000e8ef29ff44603ced8534398e1b5d9ff169e5f21d0036bbda3542e24a",
  "strippedsize": 216,
  "size": 216,
  "weight": 864,
  "tx": [
    {
      "txid": "971111c799cf00c0335c2086ed4164ccd43c07e0708b132aa800a85f62455dc0",
      "hash": "971111c799cf00c0335c2086ed4164ccd43c07e0708b132aa800a85f62455dc0",
      "version": 1,
      "size": 135,
      "vsize": 135,
      "weight": 540,
      "locktime": 0,
      "vin": [
        {
          "coinbase": "04ffff001d022908",
          "sequence": 4294967295
        }
      ],
      "vout": [
        {
          "value": 50.0,
          "n": 0,
          "scriptPubKey": {
            "asm": "0431452c831943e9b48648732a5bfc16b010a7ca4504569d8cfd006544cac09334d49c82cdee344b24e127cf39c003171a15eee348a9d9467a8a7591dd55fddcf3 OP_CHECKSIG",
            "desc": "pk(0431452c831943e9b48648732a5bfc16b010a7ca4504569d8cfd006544cac09334d49c82cdee344b24e127cf39c003171a15eee348a9d9467a8a7591dd55fddcf3)#ltnqtwht",
            "hex": "410431452c831943e9b48648732a5bfc16b010a7ca4504569d8cfd006544cac09334d49c82cdee344b24e127cf39c003171a15eee348a9d9467a8a7591dd55fddcf3ac",
            "type": "pubkey"
          }
        }
      ],
      "hex": "01000000010000000000000000000000000000000000000000000000000000000000000000ffffffff0804ffff001d022908ffffffff0100f2052a0100000043410431452c831943e9b48648732a5bfc16b010a7ca4504569d8cfd006544cac09334d49c82cdee344b24e127cf39c003171a15eee348a9d9467a8a7591dd55fddcf3ac00000000"
    }
  ]
}