{
  "hash": "000000001d23b45acd60027e66c01031768d472dc5a7cd279678cfe4216ce37a",
  "confirmations": 43208,
  "height": 9890,
  "version": 1,
  "versionHex": "00000001",
  "merkleroot": "3cf7400c27097d309c5f647ddd8d5bbb55e3cf013ca2a851b94490183005675e",
  "time": 1238917710,
  "mediantime": 1238915375,
  "nonce": 135182175,
  "bits": "1d00ffff",
  "difficulty": 1,
  "chainwork": "000000000000000000000000000000000000000000000000000026a326a326a3",
  "nTx": 1,
  "previousblockhash": "00000000fd523232a2811f1458f217b56fb37050e4f7db1280696849cff3388d",
  "nextblockhash": "000000006e5c5d9785de23ac829266f819b36c0bf77beda9d418781c1e163a89",
  "strippedsize": 216,
  "size": 216,
  "weight": 864,
  "tx": [
    {
      "txid": "3cf7400c27097d309c5f647ddd8d5bbb55e3cf013ca2a851b94490183005675e",
      "hash": "3cf7400c27097d309c5f647ddd8d5bbb55e3cf013ca2a851b94490183005675e",
      "version": 1,
      "size": 135,
      "vsize": 135,
      "weight": 540,
      "locktime": 0,
      "vin": [
        {
          "coinbase": "04ffff001d02ff00",
          "sequence": 4294967295
        }
      ],
      "vout": [
        {
          "value": 50.0,
          "n": 0,
          "scriptPubKey": {
            "asm": "04567b3303a0f8dce9ca16d55dc6644a180349504a99e4efea1318fd67f3778386b14d498a5003317fd6dc9e65beccd59000edd85adb25fe39717bfba361b60195 OP_CHECKSIG",
            "desc": "pk(04567b3303a0f8dce9ca16d55dc6644a180349504a99e4efea1318fd67f3778386b14d498a5003317fd6dc9e65beccd59000edd85adb25fe39717bfba361b60195)#gjkjsgtx",
            "hex": "4104567b3303a0f8dce9ca16d55dc6644a180349504a99e4efea1318fd67f3778386b14d498a5003317fd6dc9e65beccd59000edd85adb25fe39717bfba361b60195ac",
            "type": "pubkey"
          }
        }
      ],
      "hex": "01000000010000000000000000000000000000000000000000000000000000000000000000ffffffff0804ffff001d02ff00ffffffff0100f2052a01000000434104567b3303a0f8dce9ca16d55dc6644a180349504a99e4efea1318fd67f3778386b14d498a5003317fd6dc9e65beccd59000edd85adb25fe39717bfba361b60195ac00000000"
    }
  ]
}