{
  "hash": "000000004d0fd467c9c464f1805333ddd87a9f438ee21bd00515b5f57e597fc8",
  "confirmations": 44832,
  "height": 8266,
  "version": 1,
  "versionHex": "00000001",
  "merkleroot": "db7a3b6ce34d2b82d1139cda1923cf1a8bf6720f32f5a1541212144abc3bf355",
  "time": 1237709596,
  "mediantime": 1237704882,
  "nonce": 1935776279,
  "bits": "1d00ffff",
  "difficulty": 1,
  "chainwork": "0000000000000000000000000000000000000000000000000000204b204b204b",
  "nTx": 1,
  "previousblockhash": "000000006ebcdb80c7c2e27af3f3dd6e54efd5094328a319a8cb9024a64fe4a7",
  "nextblockhash": "00000000eabd6b5488e55bd5e1b8309bbabde7405beb8c967e3b3bf8ceadd5c5",
  "strippedsize": 216,
  "size": 216,
  "weight": 864,
  "tx": [
    {
      "txid": "db7a3b6ce34d2b82d1139cda1923cf1a8bf6720f32f5a1541212144abc3bf355",
      "hash": "db7a3b6ce34d2b82d1139cda1923cf1a8bf6720f32f5a1541212144abc3bf355",
      "version": 1,
      "size": 135,
      "vsize": 135,
      "weight": 540,
      "locktime": 0,
      "vin": [
        {
          "coinbase": "04ffff001d02ac03",
          "sequence": 4294967295
        }
      ],
      "vout": [
        {
          "value": 50.0,
          "n": 0,
          "scriptPubKey": {
            "asm": "04be05db093abc65d43af4c88051690a4df13a849bc7635d2608e34f2cd90e15ca6483aca6de504b5c1187e60b7b651243d1f2f82fe7b1faca6b70225f4441e44b OP_CHECKSIG",
            "desc": "pk(04be05db093abc65d43af4c88051690a4df13a849bc7635d2608e34f2cd90e15ca6483aca6de504b5c1187e60b7b651243d1f2f82fe7b1faca6b70225f4441e44b)#6hpcyxmv",
            "hex": "4104be05db093abc65d43af4c88051690a4df13a849bc7635d2608e34f2cd90e15ca6483aca6de504b5c1187e60b7b651243d1f2f82fe7b1faca6b70225f4441e44bac",
            "type": "pubkey"
          }
        }
      ],
      "hex": "01000000010000000000000000000000000000000000000000000000000000000000000000ffffffff0804ffff001d02ac03ffffffff0100f2052a01000000434104be05db093abc65d43af4c88051690a4df13a849bc7635d2608e34f2cd90e15ca6483aca6de504b5c1187e60b7b651243d1f2f82fe7b1faca6b70225f4441e44bac00000000"
    }
  ]
}