{
  "hash": "00000000162e6210296363f147ab51bffcb993e3d4adf2ff6b94ccd437cd72ea",
  "confirmations": 43830,
  "height": 9268,
  "version": 1,
  "versionHex": "00000001",
  "merkleroot": "fa9a843569942ac63174ab61bca2186e6cde80b97cb82db130e64e5f09fa991d",
  "time": 1238449248,
  "mediantime": 1238444034,
  "nonce": 2688957746,
  "bits": "1d00ffff",
  "difficulty": 1,
  "chainwork": "0000000000000000000000000000000000000000000000000000243524352435",
  "nTx": 1,
  "previousblockhash": "0000000031521ce8f33cf9d5e90b30bde2d62c6cdaf6f44a591c56e8d3288801",
  "nextblockhash": "00000000f26dc0abcf26f103471831cf37ef77e3487d167498f3cfadeeaaea7d",
  "strippedsize": 216,
  "size": 216,
  "weight": 864,
  "tx": [
    {
      "txid": "fa9a843569942ac63174ab61bca2186e6cde80b97cb82db130e64e5f09fa991d",
      "hash": "fa9a843569942ac63174ab61bca2186e6cde80b97cb82db130e64e5f09fa991d",
      "version": 1,
      "size": 135,
      "vsize": 135,
      "weight": 540,
      "locktime": 0,
      "vin": [
        {
          "coinbase": "04ffff001d023e01",
          "sequence": 4294967295
        }
      ],
      "vout": [
        {
          "value": 50.0,
          "n": 0,
          "scriptPubKey": {
            "asm": "04778db8756e39443753a010194c3fa2280cd825664aec711a28826a5e4a7612cf6a6a1da1fd1f6acb082a99ebefe20f1ddf1a0620bb37831532ca888d6d351f2a OP_CHECKSIG",
            "desc": "pk(04778db8756e39443753a010194c3fa2280cd825664aec711a28826a5e4a7612cf6a6a1da1fd1f6acb082a99ebefe20f1ddf1a0620bb37831532ca888d6d351f2a)#kupv9t5l",
            "hex": "4104778db8756e39443753a010194c3fa2280cd825664aec711a28826a5e4a7612cf6a6a1da1fd1f6acb082a99ebefe20f1ddf1a0620bb37831532ca888d6d351f2aac",
            "type": "pubkey"
          }
        }
      ],
      "hex": "01000000010000000000000000000000000000000000000000000000000000000000000000ffffffff0804ffff001d023e01ffffffff0100f2052a01000000434104778db8756e39443753a010194c3fa2280cd825664aec711a28826a5e4a7612cf6a6a1da1fd1f6acb082a99ebefe20f1ddf1a0620bb37831532ca888d6d351f2aac00000000"
    }
  ]
}