{
  "hash": "00000000cb143287bdfdc286751f8d967aeb93a011b776c036f04bc10ed81c91",
  "confirmations": 46957,
  "height": 6141,
  "version": 1,
  "versionHex": "00000001",
  "merkleroot": "83d0c7da9fbf0e8855f101ed07199ec8738bfa41afdddde196d70f3d86fdbe91",
  "time": 1236043318,
  "mediantime": 1236037669,
  "nonce": 2426304055,
  "bits": "1d00ffff",
  "difficulty": 1,
  "chainwork": "000000000000000000000000000000000000000000000000000017fe17fe17fe",
  "nTx": 1,
  "previousblockhash": "00000000d39fb19e2d805d2603a5ee371464f8a4cced6ab327d54811887b8483",
  "nextblockhash": "000000004697d4cffdfb10743b360a681972be122d058f01bf3eea56a47e25eb",
  "strippedsize": 216,
  "size": 216,
  "weight": 864,
  "tx": [
    {
      "txid": "83d0c7da9fbf0e8855f101ed07199ec8738bfa41afdddde196d70f3d86fdbe91",
      "hash": "83d0c7da9fbf0e8855f101ed07199ec8738bfa41afdddde196d70f3d86fdbe91",
      "version": 1,
      "size": 135,
      "vsize": 135,
      "weight": 540,
      "locktime": 0,
      "vin": [
        {
          "coinbase": "04ffff001d029707",
          "sequence": 4294967295
        }
      ],
      "vout": [
        {
          "value": 50.0,
          "n": 0,
          "scriptPubKey": {
            "asm": "044b051e561fe3a1132a9156f9ff9f625caba5f47fe9a4cd929217931dda62db3529e59bd3de2d6372206c92c226d0106511b7a846f84684cedcfd36a51d5f1e97 OP_CHECKSIG",
            "desc": "pk(044b051e561fe3a1132a9156f9ff9f625caba5f47fe9a4cd929217931dda62db3529e59bd3de2d6372206c92c226d0106511b7a846f84684cedcfd36a51d5f1e97)#l2hssn8a",
            "hex": "41044b051e561fe3a1132a9156f9ff9f625caba5f47fe9a4cd929217931dda62db3529e59bd3de2d6372206c92c226d0106511b7a846f84684cedcfd36a51d5f1e97ac",
            "type": "pubkey"
          }
        }
      ],
      "hex": "01000000010000000000000000000000000000000000000000000000000000000000000000ffffffff0804ffff001d029707ffffffff0100f2052a010000004341044b051e561fe3a1132a9156f9ff9f625caba5f47fe9a4cd929217931dda62db3529e59bd3de2d6372206c92c226d0106511b7a846f84684cedcfd36a51d5f1e97ac00000000"
    }
  ]
}