{
  "hash": "0000000048bb414dabe36b4d47bbc9abb9a35ebd871906df4841b731d8b3797d",
  "confirmations": 43752,
  "height": 9346,
  "version": 1,
  "versionHex": "00000001",
  "merkleroot": "f60491301ca54e6159bb83a729bb3c97d663914c72ee94540ef6cf7b14092295",
  "time": 1238508100,
  "mediantime": 1238505623,
  "nonce": 1031373855,
  "bits": "1d00ffff",
  "difficulty": 1,
  "chainwork": "0000000000000000000000000000000000000000000000000000248324832483",
  "nTx": 1,
  "previousblockhash": "00000000019858736be027ddd1628b76883e8ee232b3edc0ca8b4a64c9f54b5b",
  "nextblockhash": "00000000622a1d4b2f9791040a829a78b914f52cc6e48ad4386895a88a9b19b0",
  "strippedsize": 216,
  "size": 216,
  "weight": 864,
  "tx": [
    {
      "txid": "f60491301ca54e6159bb83a729bb3c97d663914c72ee94540ef6cf7b14092295",
      "hash": "f60491301ca54e6159bb83a729bb3c97d663914c72ee94540ef6cf7b14092295",
      "version": 1,
      "size": 135,
      "vsize": 135,
      "weight": 540,
      "locktime": 0,
      "vin": [
        {
          "coinbase": "04ffff001d029602",
          "sequence": 4294967295
        }
      ],
      "vout": [
        {
          "value": 50.0,
          "n": 0,
          "scriptPubKey": {
            "asm": "04297d622efcec11310d9307a121525bbffdcc38e3dd59e8cb04ca565e826c4388ca112457afbb7337113b56640c06f1f43577dceadd43dbeab59a8a413a1190d2 OP_CHECKSIG",
            "desc": "pk(04297d622efcec11310d9307a121525bbffdcc38e3dd59e8cb04ca565e826c4388ca112457afbb7337113b56640c06f1f43577dceadd43dbeab59a8a413a1190d2)#ynnfnm72",
            "hex": "4104297d622efcec11310d9307a121525bbffdcc38e3dd59e8cb04ca565e826c4388ca112457afbb7337113b56640c06f1f43577dceadd43dbeab59a8a413a1190d2ac",
            "type": "pubkey"
          }
        }
      ],
      "hex": "01000000010000000000000000000000000000000000000000000000000000000000000000ffffffff0804ffff001d029602ffffffff0100f2052a01000000434104297d622efcec11310d9307a121525bbffdcc38e3dd59e8cb04ca565e826c4388ca112457afbb7337113b56640c06f1f43577dceadd43dbeab59a8a413a1190d2ac00000000"
    }
  ]
}