{
  "hash": "00000000a33e8edf4d2fea75ac94487f3140d36ce8110048dd928e63370f4f44",
  "confirmations": 52253,
  "height": 845,
  "version": 1,
  "versionHex": "00000001",
  "merkleroot": "e0c0bff8c446bea53766341ade4025003eb77299b8c3da2fa82cd06c9d7799fe",
  "time": 1232224643,
  "mediantime": 1232222636,
  "nonce": 339120389,
  "bits": "1d00ffff",
  "difficulty": 1,
  "chainwork": "0000000000000000000000000000000000000000000000000000034e034e034e",
  "nTx": 1,
  "previousblockhash": "0000000091072446161b75b86354fac4270de72c0beb1281135892364b030931",
  "nextblockhash": "00000000860c6496748e13bf192d9a183d43e624be095b0843aa7fcac6eee317",
  "strippedsize": 216,
  "size": 216,
  "weight": 864,
  "tx": [
    {
      "txid": "e0c0bff8c446bea53766341ade4025003eb77299b8c3da2fa82cd06c9d7799fe",
      "hash": "e0c0bff8c446bea53766341ade4025003eb77299b8c3da2fa82cd06c9d7799fe",
      "version": 1,
      "size": 135,
      "vsize": 135,
      "weight": 540,
      "locktime": 0,
      "vin": [
        {
          "coinbase": "04ffff001d024c02",
          "sequence": 4294967295
        }
      ],
      "vout": [
        {
          "value": 50.0,
          "n": 0,
          "scriptPubKey": {
            "asm": "04d6192aafb8045ffc9cabb7faf56bed70a354afdd35fb3a1efdb1e713dc95cb56f89249a37d0a97c7c1dbe614e044731fa8175517835e951d84190dd41742f71a OP_CHECKSIG",
            "desc": "pk(04d6192aafb8045ffc9cabb7faf56bed70a354afdd35fb3a1efdb1e713dc95cb56f89249a37d0a97c7c1dbe614e044731fa8175517835e951d84190dd41742f71a)#g2vn3eyj",
            "hex": "4104d6192aafb8045ffc9cabb7faf56bed70a354afdd35fb3a1efdb1e713dc95cb56f89249a37d0a97c7c1dbe614e044731fa8175517835e951d84190dd41742f71aac",
            "type": "pubkey"
          }
        }
      ],
      "hex": "01000000010000000000000000000000000000000000000000000000000000000000000000ffffffff0804ffff001d024c02ffffffff0100f2052a01000000434104d6192aafb8045ffc9cabb7faf56bed70a354afdd35fb3a1efdb1e713dc95cb56f89249a37d0a97c7c1dbe614e044731fa8175517835e951d84190dd41742f71aac00000000"
    }
  ]
}