{
  "hash": "000000001979ca78bede4c240bc903db3c4893be5db8b6fcc09c9077cc820082",
  "confirmations": 44998,
  "height": 8100,
  "version": 1,
  "versionHex": "00000001",
  "merkleroot": "773aa5c7d7b1fce48e5dcf163bfbf04f43031c47bb234589cb41b78c4797f192",
  "time": 1237531841,
  "mediantime": 1237528388,
  "nonce": 1188561669,
  "bits": "1d00ffff",
  "difficulty": 1,
  "chainwork": "00000000000000000000000000000000000000000000000000001fa51fa51fa5",
  "nTx": 1,
  "previousblockhash": "0000000017508e1aa2ab0c166c3d5e01cd2d62703cf0a7f7cb9227d9bfdcdbb0",
  "nextblockhash": "00000000b8dc5f844239cdf2a13a5e4a71b3e767c13004d310a5042696a0517b",
  "strippedsize": 216,
  "size": 216,
  "weight": 864,
  "tx": [
    {
      "txid": "773aa5c7d7b1fce48e5dcf163bfbf04f43031c47bb234589cb41b78c4797f192",
      "hash": "773aa5c7d7b1fce48e5dcf163bfbf04f43031c47bb234589cb41b78c4797f192",
      "version": 1,
      "size": 135,
      "vsize": 135,
      "weight": 540,
      "locktime": 0,
      "vin": [
        {
          "coinbase": "04ffff001d021b01",
          "sequence": 4294967295
        }
      ],
      "vout": [
        {
          "value": 50.0,
          "n": 0,
          "scriptPubKey": {
            "asm": "0486c6230a02ed005e3e295af2351290d122fe56b9eeba667378c2d9a98885691e64a3a340a14dca98362f6c50ef464268631ec878d3cb56f581d22b15f19fdf53 OP_CHECKSIG",
            "desc": "pk(0486c6230a02ed005e3e295af2351290d122fe56b9eeba667378c2d9a98885691e64a3a340a14dca98362f6c50ef464268631ec878d3cb56f581d22b15f19fdf53)#2krcvhqz",
            "hex": "410486c6230a02ed005e3e295af2351290d122fe56b9eeba667378c2d9a98885691e64a3a340a14dca98362f6c50ef464268631ec878d3cb56f581d22b15f19fdf53ac",
            "type": "pubkey"
          }
        }
      ],
      "hex": "01000000010000000000000000000000000000000000000000000000000000000000000000ffffffff0804ffff001d021b01ffffffff0100f2052a0100000043410486c6230a02ed005e3e295af2351290d122fe56b9eeba667378c2d9a98885691e64a3a340a14dca98362f6c50ef464268631ec878d3cb56f581d22b15f19fdf53ac00000000"
    }
  ]
}