{
  "hash": "0000000020822aaabd94ac716372a51535f72471141b896ed328c323e26b3fc9",
  "confirmations": 51257,
  "height": 1841,
  "version": 1,
  "versionHex": "00000001",
  "merkleroot": "6529487bc425b775ee7275799a4fc8da03748bfbbdf46258e56e53c25e7cdaed",
  "time": 1232917716,
  "mediantime": 1232916282,
  "nonce": 10850972,
  "bits": "1d00ffff",
  "difficulty": 1,
  "chainwork": "0000000000000000000000000000000000000000000000000000073207320732",
  "nTx": 1,
  "previousblockhash": "00000000d84f0a18e6563db3149a266515eb6c23810e19c714f8ac6e037f108f",
  "nextblockhash": "0000000019011bfe67ef7cd47a5ed0fd9f4ef7b5b653a83675fbb3e354e490d1",
  "strippedsize": 215,
  "size": 215,
  "weight": 860,
  "tx": [
    {
      "txid": "6529487bc425b775ee7275799a4fc8da03748bfbbdf46258e56e53c25e7cdaed",
      "hash": "6529487bc425b775ee7275799a4fc8da03748bfbbdf46258e56e53c25e7cdaed",
      "version": 1,
      "size": 134,
      "vsize": 134,
      "weight": 536,
      "locktime": 0,
      "vin": [
        {
          "coinbase": "04ffff001d010c",
          "sequence": 4294967295
        }
      ],
      "vout": [
        {
          "value": 50.0,
          "n": 0,
          "scriptPubKey": {
            "asm": "042668702f6257f7e643a0988bfaa2285754d7d4aa35d52685e6b387f404f88705fe27235c6b81d7d75372e16dc17ad0a45a7d126cd43ec3cad52fef084027b74b OP_CHECKSIG",
            "desc": "pk(042668702f6257f7e643a0988bfaa2285754d7d4aa35d52685e6b387f404f88705fe27235c6b81d7d75372e16dc17ad0a45a7d126cd43ec3cad52fef084027b74b)#5zfmlk75",
            "hex": "41042668702f6257f7e643a0988bfaa2285754d7d4aa35d52685e6b387f404f88705fe27235c6b81d7d75372e16dc17ad0a45a7d126cd43ec3cad52fef084027b74bac",
            "type": "pubkey"
          }
        }
      ],
      "hex": "01000000010000000000000000000000000000000000000000000000000000000000000000ffffffff0704ffff001d010cffffffff0100f2052a010000004341042668702f6257f7e643a0988bfaa2285754d7d4aa35d52685e6b387f404f88705fe27235c6b81d7d75372e16dc17ad0a45a7d126cd43ec3cad52fef084027b74bac00000000"
    }
  ]
}