{
  "hash": "00000000789b7c79122b9b5270eea6bfed7b527e6e5ea0fd78a77f3143610e21",
  "confirmations": 50858,
  "height": 2240,
  "version": 1,
  "versionHex": "00000001",
  "merkleroot": "d003b211131339b9a6858864f1d9480f847489669db84ea09e81154dd5ab5cb2",
  "time": 1233240494,
  "mediantime": 1233237180,
  "nonce": 2073409056,
  "bits": "1d00ffff",
  "difficulty": 1,
  "chainwork": "000000000000000000000000000000000000000000000000000008c108c108c1",
  "nTx": 1,
  "previousblockhash": "0000000066ae0d91024fabd8d88174f338b0749477a9d6ba68b5c4afa0bd2ccb",
  "nextblockhash": "00000000c7d2f053e0b0fa46ae1984b6eff0f63776f88d55979105181e67addf",
  "strippedsize": 216,
  "size": 216,
  "weight": 864,
  "tx": [
    {
      "txid": "d003b211131339b9a6858864f1d9480f847489669db84ea09e81154dd5ab5cb2",
      "hash": "d003b211131339b9a6858864f1d9480f847489669db84ea09e81154dd5ab5cb2",
      "version": 1,
      "size": 135,
      "vsize": 135,
      "weight": 540,
      "locktime": 0,
      "vin": [
        {
          "coinbase": "04ffff001d02e800",
          "sequence": 4294967295
        }
      ],
      "vout": [
        {
          "value": 50.0,
          "n": 0,
          "scriptPubKey": {
            "asm": "040a711b7663cf45f803470a9316a578a110e5134363b40c2de3b9716652e6bd8662eb38e99d828bd72196db19f04b0e1203118ec954888716df0b4deff9094142 OP_CHECKSIG",
            "desc": "pk(040a711b7663cf45f803470a9316a578a110e5134363b40c2de3b9716652e6bd8662eb38e99d828bd72196db19f04b0e1203118ec954888716df0b4deff9094142)#m65vd9z3",
            "hex": "41040a711b7663cf45f803470a9316a578a110e5134363b40c2de3b9716652e6bd8662eb38e99d828bd72196db19f04b0e1203118ec954888716df0b4deff9094142ac",
            "type": "pubkey"
          }
        }
      ],
      "hex": "01000000010000000000000000000000000000000000000000000000000000000000000000ffffffff0804ffff001d02e800ffffffff0100f2052a010000004341040a711b7663cf45f803470a9316a578a110e5134363b40c2de3b9716652e6bd8662eb38e99d828bd72196db19f04b0e1203118ec954888716df0b4deff9094142ac00000000"
    }
  ]
}