{
  "hash": "00000000e67f39a80dbba80e5bf130294ef460b89022c7a56c3df76ab2df2e71",
  "confirmations": 51198,
  "height": 1900,
  "version": 1,
  "versionHex": "00000001",
  "merkleroot": "8af29c0eeeb9ff3ec1572aec5baab0f50f9d67eb5bd160bb8d09f50df381dcf9",
  "time": 1232944937,
  "mediantime": 1232942668,
  "nonce": 55795203,
  "bits": "1d00ffff",
  "difficulty": 1,
  "chainwork": "0000000000000000000000000000000000000000000000000000076d076d076d",
  "nTx": 1,
  "previousblockhash": "00000000f85bd4976e11ba96191cbcc0538e3dc6d094f38c052880edbd8058f8",
  "nextblockhash": "00000000d77df12843c43e959cf8afbb1b20e3625f698602639bec1635c7eb96",
  "strippedsize": 216,
  "size": 216,
  "weight": 864,
  "tx": [
    {
      "txid": "8af29c0eeeb9ff3ec1572aec5baab0f50f9d67eb5bd160bb8d09f50df381dcf9",
      "hash": "8af29c0eeeb9ff3ec1572aec5baab0f50f9d67eb5bd160bb8d09f50df381dcf9",
      "version": 1,
      "size": 135,
      "vsize": 135,
      "weight": 540,
      "locktime": 0,
      "vin": [
        {
          "coinbase": "04ffff001d02d702",
          "sequence": 4294967295
        }
      ],
      "vout": [
        {
          "value": 50.0,
          "n": 0,
          "scriptPubKey": {
            "asm": "044b9a28b9bd81b8ced667f2c29e490e7f2bff4b07576303da6b6ff46634ccb5ec583ec1d0ab5281c1bb24d54ab7e927a7794ae7eae92c5bf02f17578ed788d00d OP_CHECKSIG",
            "desc": "pk(044b9a28b9bd81b8ced667f2c29e490e7f2bff4b07576303da6b6ff46634ccb5ec583ec1d0ab5281c1bb24d54ab7e927a7794ae7eae92c5bf02f17578ed788d00d)#fuj3r8al",
            "hex": "41044b9a28b9bd81b8ced667f2c29e490e7f2bff4b07576303da6b6ff46634ccb5ec583ec1d0ab5281c1bb24d54ab7e927a7794ae7eae92c5bf02f17578ed788d00dac",
            "type": "pubkey"
          }
        }
      ],
      "hex": "01000000010000000000000000000000000000000000000000000000000000000000000000ffffffff0804ffff001d02d702ffffffff0100f2052a010000004341044b9a28b9bd81b8ced667f2c29e490e7f2bff4b07576303da6b6ff46634ccb5ec583ec1d0ab5281c1bb24d54ab7e927a7794ae7eae92c5bf02f17578ed788d00dac00000000"
    }
  ]
}