{
  "hash": "0000000034fc7458d2bb49e46e719ea47559ea30c20d8c5efade5990bb62e7f7",
  "confirmations": 51919,
  "height": 1179,
  "version": 1,
  "versionHex": "00000001",
  "merkleroot": "29c7b76bc8baac679c981ad6b1bcdc9720cb07f7864d4d3e209725fc53ff429a",
  "time": 1232484296,
  "mediantime": 1232480358,
  "nonce": 108216181,
  "bits": "1d00ffff",
  "difficulty": 1,
  "chainwork": "0000000000000000000000000000000000000000000000000000049c049c049c",
  "nTx": 1,
  "previousblockhash": "000000001dadba6436fa436499143753ccaa635dbb3da592e11907be63f6af8b",
  "nextblockhash": "00000000592ac01ba4e9d4daec3da2b6fac63f0faefa0222c715b660c18ddcaa",
  "strippedsize": 216,
  "size": 216,
  "weight": 864,
  "tx": [
    {
      "txid": "29c7b76bc8baac679c981ad6b1bcdc9720cb07f7864d4d3e209725fc53ff429a",
      "hash": "29c7b76bc8baac679c981ad6b1bcdc9720cb07f7864d4d3e209725fc53ff429a",
      "version": 1,
      "size": 135,
      "vsize": 135,
      "weight": 540,
      "locktime": 0,
      "vin": [
        {
          "coinbase": "04ffff001d02e901",
          "sequence": 4294967295
        }
      ],
      "vout": [
        {
          "value": 50.0,
          "n": 0,
          "scriptPubKey": {
            "asm": "0426122424439fbf4131f7cd82197d11bd44c4407586623de4f2d617fe4eda624330cfd149d28a1fdd3e282d9c112c66c0fdd71f52319f1bdea29f3ded9ddfed2a OP_CHECKSIG",
            "desc": "pk(0426122424439fbf4131f7cd82197d11bd44c4407586623de4f2d617fe4eda624330cfd149d28a1fdd3e282d9c112c66c0fdd71f52319f1bdea29f3ded9ddfed2a)#gwvg529m",
            "hex": "410426122424439fbf4131f7cd82197d11bd44c4407586623de4f2d617fe4eda624330cfd149d28a1fdd3e282d9c112c66c0fdd71f52319f1bdea29f3ded9ddfed2aac",
            "type": "pubkey"
          }
        }
      ],
      "hex": "01000000010000000000000000000000000000000000000000000000000000000000000000ffffffff0804ffff001d02e901ffffffff0100f2052a0100000043410426122424439fbf4131f7cd82197d11bd44c4407586623de4f2d617fe4eda624330cfd149d28a1fdd3e282d9c112c66c0fdd71f52319f1bdea29f3ded9ddfed2aac00000000"
    }
  ]
}