{
  "hash": "000000006072b820e5b460fb9761dfd497e901097c06b7ba34170f0200616072",
  "confirmations": 45068,
  "height": 8030,
  "version": 1,
  "versionHex": "00000001",
  "merkleroot": "96297214daa6fe68e647a27ee33148258f1fc10c0ff9b91a7630e5241f542ce0",
  "time": 1237484890,
  "mediantime": 1237480753,
  "nonce": 3040379425,
  "bits": "1d00ffff",
  "difficulty": 1,
  "chainwork": "00000000000000000000000000000000000000000000000000001f5f1f5f1f5f",
  "nTx": 1,
  "previousblockhash": "00000000b6686887356870d3dd48ec3a4053cd96cc6d45344e3b9a2ec34837d7",
  "nextblockhash": "00000000c9688e6f53f7514179cab0c6483453a7218e9737a0f6340abc3b1a9b",
  "strippedsize": 216,
  "size": 216,
  "weight": 864,
  "tx": [
    {
      "txid": "96297214daa6fe68e647a27ee33148258f1fc10c0ff9b91a7630e5241f542ce0",
      "hash": "96297214daa6fe68e647a27ee33148258f1fc10c0ff9b91a7630e5241f542ce0",
      "version": 1,
      "size": 135,
      "vsize": 135,
      "weight": 540,
      "locktime": 0,
      "vin": [
        {
          "coinbase": "04ffff001d02f709",
          "sequence": 4294967295
        }
      ],
      "vout": [
        {
          "value": 50.0,
          "n": 0,
          "scriptPubKey": {
            "asm": "048f777aa1b0184eae8bf91222064e5e5b83e109d25745b7feca8c9443be76ba83892d3a4581649665623db65ee91cb018531f1798c45c2ff443f47bc3e1326581 OP_CHECKSIG",
            "desc": "pk(048f777aa1b0184eae8bf91222064e5e5b83e109d25745b7feca8c9443be76ba83892d3a4581649665623db65ee91cb018531f1798c45c2ff443f47bc3e1326581)#k5ups394",
            "hex": "41048f777aa1b0184eae8bf91222064e5e5b83e109d25745b7feca8c9443be76ba83892d3a4581649665623db65ee91cb018531f1798c45c2ff443f47bc3e1326581ac",
            "type": "pubkey"
          }
        }
      ],
      "hex": "01000000010000000000000000000000000000000000000000000000000000000000000000ffffffff0804ffff001d02f709ffffffff0100f2052a010000004341048f777aa1b0184eae8bf91222064e5e5b83e109d25745b7feca8c9443be76ba83892d3a4581649665623db65ee91cb018531f1798c45c2ff443f47bc3e1326581ac00000000"
    }
  ]
}