{
  "hash": "000000004d30f3f58abd9c4da01b39d57b8e5ec9121e2783306780c7279f98b7",
  "confirmations": 45206,
  "height": 7892,
  "version": 1,
  "versionHex": "00000001",
  "merkleroot": "f9dd449173d9752d36a066fa0b31e4894b6491fb05594f2144a96390c8facc41",
  "time": 1237384854,
  "mediantime": 1237381881,
  "nonce": 1083420695,
  "bits": "1d00ffff",
  "difficulty": 1,
  "chainwork": "00000000000000000000000000000000000000000000000000001ed51ed51ed5",
  "nTx": 1,
  "previousblockhash": "00000000ecaa563e4407b0cdde043391f83f07cc7dcb026fb2c01ff62f3b2b16",
  "nextblockhash": "00000000207b5cdca1ad044414be49db9536b607628e8a2bcd05f6645fd688ff",
  "strippedsize": 216,
  "size": 216,
  "weight": 864,
  "tx": [
    {
      "txid": "f9dd449173d9752d36a066fa0b31e4894b6491fb05594f2144a96390c8facc41",
      "hash": "f9dd449173d9752d36a066fa0b31e4894b6491fb05594f2144a96390c8facc41",
      "version": 1,
      "size": 135,
      "vsize": 135,
      "weight": 540,
      "locktime": 0,
      "vin": [
        {
          "coinbase": "04ffff001d024707",
          "sequence": 4294967295
        }
      ],
      "vout": [
        {
          "value": 50.0,
          "n": 0,
          "scriptPubKey": {
            "asm": "042dbfa74a4df49e37bd385390831c9bb63add434f69ea50064463f6e084d332810916d38a2927349be7979b7e26293a6227dd3a1806d7928132fe1012715fe75a OP_CHECKSIG",
            "desc": "pk(042dbfa74a4df49e37bd385390831c9bb63add434f69ea50064463f6e084d332810916d38a2927349be7979b7e26293a6227dd3a1806d7928132fe1012715fe75a)#9fyxqq2l",
            "hex": "41042dbfa74a4df49e37bd385390831c9bb63add434f69ea50064463f6e084d332810916d38a2927349be7979b7e26293a6227dd3a1806d7928132fe1012715fe75aac",
            "type": "pubkey"
          }
        }
      ],
      "hex": "01000000010000000000000000000000000000000000000000000000000000000000000000ffffffff0804ffff001d024707ffffffff0100f2052a010000004341042dbfa74a4df49e37bd385390831c9bb63add434f69ea50064463f6e084d332810916d38a2927349be7979b7e26293a6227dd3a1806d7928132fe1012715fe75aac00000000"
    }
  ]
}