{
  "hash": "00000000dbca65030a7fbf1a50240671919b99ebfc3d75c77970935d47de70d2",
  "confirmations": 45191,
  "height": 7907,
  "version": 1,
  "versionHex": "00000001",
  "merkleroot": "396b29010ff0988ce4df3bf07cd7f1e6291712bb7b3e653f3d28af1dd7a4c6be",
  "time": 1237399063,
  "mediantime": 1237393451,
  "nonce": 929662768,
  "bits": "1d00ffff",
  "difficulty": 1,
  "chainwork": "00000000000000000000000000000000000000000000000000001ee41ee41ee4",
  "nTx": 1,
  "previousblockhash": "00000000a2a3bdeafdd8714c6f9d5204d5511f18543fa356f814e5cfffc86ad7",
  "nextblockhash": "00000000be07dfebeb8dd17c87e24e756b1e160b73e96b4c7754f6264116d966",
  "strippedsize": 216,
  "size": 216,
  "weight": 864,
  "tx": [
    {
      "txid": "396b29010ff0988ce4df3bf07cd7f1e6291712bb7b3e653f3d28af1dd7a4c6be",
      "hash": "396b29010ff0988ce4df3bf07cd7f1e6291712bb7b3e653f3d28af1dd7a4c6be",
      "version": 1,
      "size": 135,
      "vsize": 135,
      "weight": 540,
      "locktime": 0,
      "vin": [
        {
          "coinbase": "04ffff001d029c07",
          "sequence": 4294967295
        }
      ],
      "vout": [
        {
          "value": 50.0,
          "n": 0,
          "scriptPubKey": {
            "asm": "04214498a219530cf12eae333cbdb6fd01a5ba3a3aeab58bd211fe516b085a62a1b46255e3073adb4ef34641bafab2459e3c6646efe6de20f7f863e8d62b905ee0 OP_CHECKSIG",
            "desc": "pk(04214498a219530cf12eae333cbdb6fd01a5ba3a3aeab58bd211fe516b085a62a1b46255e3073adb4ef34641bafab2459e3c6646efe6de20f7f863e8d62b905ee0)#569cjqsn",
            "hex": "4104214498a219530cf12eae333cbdb6fd01a5ba3a3aeab58bd211fe516b085a62a1b46255e3073adb4ef34641bafab2459e3c6646efe6de20f7f863e8d62b905ee0ac",
            "type": "pubkey"
          }
        }
      ],
      "hex": "01000000010000000000000000000000000000000000000000000000000000000000000000ffffffff0804ffff001d029c07ffffffff0100f2052a01000000434104214498a219530cf12eae333cbdb6fd01a5ba3a3aeab58bd211fe516b085a62a1b46255e3073adb4ef34641bafab2459e3c6646efe6de20f7f863e8d62b905ee0ac00000000"
    }
  ]
}