{
  "hash": "0000000090ef5f25329620ca0c5b3c1871b80821ff74d246a0104afb1d1b1b29",
  "confirmations": 46344,
  "height": 6754,
  "version": 1,
  "versionHex": "00000001",
  "merkleroot": "b15d3d61e7da1c60777cf17b8ca77236ecbb6e21af34a32888644e65218a77e3",
  "time": 1236523469,
  "mediantime": 1236518990,
  "nonce": 13610579,
  "bits": "1d00ffff",
  "difficulty": 1,
  "chainwork": "00000000000000000000000000000000000000000000000000001a631a631a63",
  "nTx": 1,
  "previousblockhash": "00000000fbcd7bd80181c94a9d15984fd6b5a0cd9d933c42b1f278c4b5bb76cb",
  "nextblockhash": "00000000d3a93d99e3b9fa20b7dbd07ef19f25d32268d82ec3510b16726961eb",
  "strippedsize": 215,
  "size": 215,
  "weight": 860,
  "tx": [
    {
      "txid": "b15d3d61e7da1c60777cf17b8ca77236ecbb6e21af34a32888644e65218a77e3",
      "hash": "b15d3d61e7da1c60777cf17b8ca77236ecbb6e21af34a32888644e65218a77e3",
      "version": 1,
      "size": 134,
      "vsize": 134,
      "weight": 536,
      "locktime": 0,
      "vin": [
        {
          "coinbase": "04ffff001d0112",
          "sequence": 4294967295
        }
      ],
      "vout": [
        {
          "value": 50.0,
          "n": 0,
          "scriptPubKey": {
            "asm": "0452024bf1dbb230e92287df194703e421e344681a18c561457fd5ad0ed94d93c5e6d1bbb4a5ed13c570986e0f8160bfbeabbc0a38fb9e0d65bb166e0157177698 OP_CHECKSIG",
            "desc": "pk(0452024bf1dbb230e92287df194703e421e344681a18c561457fd5ad0ed94d93c5e6d1bbb4a5ed13c570986e0f8160bfbeabbc0a38fb9e0d65bb166e0157177698)#9kzwhuey",
            "hex": "410452024bf1dbb230e92287df194703e421e344681a18c561457fd5ad0ed94d93c5e6d1bbb4a5ed13c570986e0f8160bfbeabbc0a38fb9e0d65bb166e0157177698ac",
            "type": "pubkey"
          }
        }
      ],
      "hex": "01000000010000000000000000000000000000000000000000000000000000000000000000ffffffff0704ffff001d0112ffffffff0100f2052a0100000043410452024bf1dbb230e92287df194703e421e344681a18c561457fd5ad0ed94d93c5e6d1bbb4a5ed13c570986e0f8160bfbeabbc0a38fb9e0d65bb166e0157177698ac00000000"
    }
  ]
}