{
  "hash": "000000006850420a1b636ebaf72c9c722521704fd1a67dee1c81ccfd252dbaee",
  "confirmations": 51769,
  "height": 1329,
  "version": 1,
  "versionHex": "00000001",
  "merkleroot": "a017bf71d20e910c7663639600b7a34303d41aceb8fb16a1bb84ae8d35da6159",
  "time": 1232621997,
  "mediantime": 1232617333,
  "nonce": 1273204023,
  "bits": "1d00ffff",
  "difficulty": 1,
  "chainwork": "0000000000000000000000000000000000000000000000000000053205320532",
  "nTx": 1,
  "previousblockhash": "0000000073ce30b0cc83da73ccff5a3bb2ccf7986a6dd16e7c6bfdffba178fb5",
  "nextblockhash": "000000003d244449bbd0f01087271506e9e19b8f7df9dceb121df70f6ba4b141",
  "strippedsize": 216,
  "size": 216,
  "weight": 864,
  "tx": [
    {
      "txid": "a017bf71d20e910c7663639600b7a34303d41aceb8fb16a1bb84ae8d35da6159",
      "hash": "a017bf71d20e910c7663639600b7a34303d41aceb8fb16a1bb84ae8d35da6159",
      "version": 1,
      "size": 135,
      "vsize": 135,
      "weight": 540,
      "locktime": 0,
      "vin": [
        {
          "coinbase": "04ffff001d02b900",
          "sequence": 4294967295
        }
      ],
      "vout": [
        {
          "value": 50.0,
          "n": 0,
          "scriptPubKey": {
            "asm": "041064a69fc07c3f5e3e07601513772182ad535808964a9a4fe6c901ae83c4f25eedebc17d7564cc6b746fc35e736be5d2d9da2962a55bbccb7ca6820fddd9198f OP_CHECKSIG",
            "desc": "pk(041064a69fc07c3f5e3e07601513772182ad535808964a9a4fe6c901ae83c4f25eedebc17d7564cc6b746fc35e736be5d2d9da2962a55bbccb7ca6820fddd9198f)#wm6p02dl",
            "hex": "41041064a69fc07c3f5e3e07601513772182ad535808964a9a4fe6c901ae83c4f25eedebc17d7564cc6b746fc35e736be5d2d9da2962a55bbccb7ca6820fddd9198fac",
            "type": "pubkey"
          }
        }
      ],
      "hex": "01000000010000000000000000000000000000000000000000000000000000000000000000ffffffff0804ffff001d02b900ffffffff0100f2052a010000004341041064a69fc07c3f5e3e07601513772182ad535808964a9a4fe6c901ae83c4f25eedebc17d7564cc6b746fc35e736be5d2d9da2962a55bbccb7ca6820fddd9198fac00000000"
    }
  ]
}