{
  "hash": "00000000553d224a74bdc6718ab1659b68df8c761f86c4a4a16006b0b4b59bd0",
  "confirmations": 47008,
  "height": 6090,
  "version": 1,
  "versionHex": "00000001",
  "merkleroot": "3731bca6d86734fb009c0fe82b71a32af2453e2f821d1990f63c8c5ee2c04a18",
  "time": 1236000063,
  "mediantime": 1235997210,
  "nonce": 30651946,
  "bits": "1d00ffff",
  "difficulty": 1,
  "chainwork": "000000000000000000000000000000000000000000000000000017cb17cb17cb",
  "nTx": 1,
  "previousblockhash": "0000000053546be7a5a27a2f352732622e5ebb27bd2210cbbe0f4338747aae75",
  "nextblockhash": "0000000038ff8c0d624e4170f4d465544de9acc743bd8f6bcd286d85b4d6f342",
  "strippedsize": 216,
  "size": 216,
  "weight": 864,
  "tx": [
    {
      "txid": "3731bca6d86734fb009c0fe82b71a32af2453e2f821d1990f63c8c5ee2c04a18",
      "hash": "3731bca6d86734fb009c0fe82b71a32af2453e2f821d1990f63c8c5ee2c04a18",
      "version": 1,
      "size": 135,
      "vsize": 135,
      "weight": 540,
      "locktime": 0,
      "vin": [
        {
          "coinbase": "04ffff001d028f09",
          "sequence": 4294967295
        }
      ],
      "vout": [
        {
          "value": 50.0,
          "n": 0,
          "scriptPubKey": {
            "asm": "04b9fd25df5a514ef8ac5f58fe8c1daf94d7fe35767c2f308623223b3f4e98ca03d5cac98cddc44d3fc458a245a6b212bc76f2dc34a95dc742cfdbec4ef8af5c44 OP_CHECKSIG",
            "desc": "pk(04b9fd25df5a514ef8ac5f58fe8c1daf94d7fe35767c2f308623223b3f4e98ca03d5cac98cddc44d3fc458a245a6b212bc76f2dc34a95dc742cfdbec4ef8af5c44)#3k6py233",
            "hex": "4104b9fd25df5a514ef8ac5f58fe8c1daf94d7fe35767c2f308623223b3f4e98ca03d5cac98cddc44d3fc458a245a6b212bc76f2dc34a95dc742cfdbec4ef8af5c44ac",
            "type": "pubkey"
          }
        }
      ],
      "hex": "01000000010000000000000000000000000000000000000000000000000000000000000000ffffffff0804ffff001d028f09ffffffff0100f2052a01000000434104b9fd25df5a514ef8ac5f58fe8c1daf94d7fe35767c2f308623223b3f4e98ca03d5cac98cddc44d3fc458a245a6b212bc76f2dc34a95dc742cfdbec4ef8af5c44ac00000000"
    }
  ]
}