{
  "hash": "00000000bd7a659da73ba4bbeb4dfd8c9326463fe4e243f45cdb905bfe0daa1c",
  "confirmations": 51474,
  "height": 1624,
  "version": 1,
  "versionHex": "00000001",
  "merkleroot": "9f68790f4fac520d0bc3813afbe539ead5e830f5d3fc5ce5e82dda6133ea6bcc",
  "time": 1232821124,
  "mediantime": 1232819555,
  "nonce": 4253642539,
  "bits": "1d00ffff",
  "difficulty": 1,
  "chainwork": "0000000000000000000000000000000000000000000000000000065906590659",
  "nTx": 1,
  "previousblockhash": "00000000dd6dd4852c465daec9d045abf836107dae2c7bf711692d62b96a00cd",
  "nextblockhash": "00000000b3483281759f10027c5664aba7bbcba1afc95a0f30a7679b90e5ae1e",
  "strippedsize": 216,
  "size": 216,
  "weight": 864,
  "tx": [
    {
      "txid": "9f68790f4fac520d0bc3813afbe539ead5e830f5d3fc5ce5e82dda6133ea6bcc",
      "hash": "9f68790f4fac520d0bc3813afbe539ead5e830f5d3fc5ce5e82dda6133ea6bcc",
      "version": 1,
      "size": 135,
      "vsize": 135,
      "weight": 540,
      "locktime": 0,
      "vin": [
        {
          "coinbase": "04ffff001d026602",
          "sequence": 4294967295
        }
      ],
      "vout": [
        {
          "value": 50.0,
          "n": 0,
          "scriptPubKey": {
            "asm": "04fe1517846f2307ea980991dee7e8faa99d14d7c49de0084042bd0e499ba2df04a6d0bf4dae2d668a0ef0efcc72bbad07ff3a8ba6c523b99395a305fa04217d58 OP_CHECKSIG",
            "desc": "pk(04fe1517846f2307ea980991dee7e8faa99d14d7c49de0084042bd0e499ba2df04a6d0bf4dae2d668a0ef0efcc72bbad07ff3a8ba6c523b99395a305fa04217d58)#k9yqppmn",
            "hex": "4104fe1517846f2307ea980991dee7e8faa99d14d7c49de0084042bd0e499ba2df04a6d0bf4dae2d668a0ef0efcc72bbad07ff3a8ba6c523b99395a305fa04217d58ac",
            "type": "pubkey"
          }
        }
      ],
      "hex": "01000000010000000000000000000000000000000000000000000000000000000000000000ffffffff0804ffff001d026602ffffffff0100f2052a01000000434104fe1517846f2307ea980991dee7e8faa99d14d7c49de0084042bd0e499ba2df04a6d0bf4dae2d668a0ef0efcc72bbad07ff3a8ba6c523b99395a305fa04217d58ac00000000"
    }
  ]
}