{
  "hash": "0000000016613f2f0281f882469648926139ff524fd68f4f18063f1728ccf35f",
  "confirmations": 45514,
  "height": 7584,
  "version": 1,
  "versionHex": "00000001",
  "merkleroot": "e70d9296eae872cc359d05d86604eb7a03bf6d13babe7ea576e67f2d88a5e0ea",
  "time": 1237155166,
  "mediantime": 1237153512,
  "nonce": 178826006,
  "bits": "1d00ffff",
  "difficulty": 1,
  "chainwork": "00000000000000000000000000000000000000000000000000001da11da11da1",
  "nTx": 1,
  "previousblockhash": "00000000a3d6ab01bcc82ebef71d85bb9e56788f7ccbb6478ebbd76d477e1f6e",
  "nextblockhash": "00000000de308fe825bc6157bf9766bcd3b10b610aa8243ffad6fe26261c4c2f",
  "strippedsize": 216,
  "size": 216,
  "weight": 864,
  "tx": [
    {
      "txid": "e70d9296eae872cc359d05d86604eb7a03bf6d13babe7ea576e67f2d88a5e0ea",
      "hash": "e70d9296eae872cc359d05d86604eb7a03bf6d13babe7ea576e67f2d88a5e0ea",
      "version": 1,
      "size": 135,
      "vsize": 135,
      "weight": 540,
      "locktime": 0,
      "vin": [
        {
          "coinbase": "04ffff001d025d02",
          "sequence": 4294967295
        }
      ],
      "vout": [
        {
          "value": 50.0,
          "n": 0,
          "scriptPubKey": {
            "asm": "04690c56b8d78a3992a5a34ab68fe6eb73198c8a378cf0671b1dcc31bca4bfeeab57c7f6d3a17c44823f20308b3e3b01fafa4bb3e3cfcb3a22c883635e3415edd2 OP_CHECKSIG",
            "desc": "pk(04690c56b8d78a3992a5a34ab68fe6eb73198c8a378cf0671b1dcc31bca4bfeeab57c7f6d3a17c44823f20308b3e3b01fafa4bb3e3cfcb3a22c883635e3415edd2)#dgaen2dm",
            "hex": "4104690c56b8d78a3992a5a34ab68fe6eb73198c8a378cf0671b1dcc31bca4bfeeab57c7f6d3a17c44823f20308b3e3b01fafa4bb3e3cfcb3a22c883635e3415edd2ac",
            "type": "pubkey"
          }
        }
      ],
      "hex": "01000000010000000000000000000000000000000000000000000000000000000000000000ffffffff0804ffff001d025d02ffffffff0100f2052a01000000434104690c56b8d78a3992a5a34ab68fe6eb73198c8a378cf0671b1dcc31bca4bfeeab57c7f6d3a17c44823f20308b3e3b01fafa4bb3e3cfcb3a22c883635e3415edd2ac00000000"
    }
  ]
}