{
  "hash": "0000000070fc5453f6b820a1cdec8dfd51a6a0c229c2ac16f0b2807221ec39f7",
  "confirmations": 44812,
  "height": 8286,
  "version": 1,
  "versionHex": "00000001",
  "merkleroot": "7f712ca6778aa27ae35ada3051e9d5ea70877cb5b043dc64e916ed9612c2d867",
  "time": 1237722132,
  "mediantime": 1237719811,
  "nonce": 572622853,
  "bits": "1d00ffff",
  "difficulty": 1,
  "chainwork": "0000000000000000000000000000000000000000000000000000205f205f205f",
  "nTx": 1,
  "previousblockhash": "000000006b4b456cd16c91821653c4c252afd9d085f28c804ea7aa54daa90a8c",
  "nextblockhash": "00000000f146640b532605b24eaa612e8096842605dbd3abd81f0cf226bdb88f",
  "strippedsize": 216,
  "size": 216,
  "weight": 864,
  "tx": [
    {
      "txid": "7f712ca6778aa27ae35ada3051e9d5ea70877cb5b043dc64e916ed9612c2d867",
      "hash": "7f712ca6778aa27ae35ada3051e9d5ea70877cb5b043dc64e916ed9612c2d867",
      "version": 1,
      "size": 135,
      "vsize": 135,
      "weight": 540,
      "locktime": 0,
      "vin": [
        {
          "coinbase": "04ffff001d02ff03",
          "sequence": 4294967295
        }
      ],
      "vout": [
        {
          "value": 50.0,
          "n": 0,
          "scriptPubKey": {
            "asm": "04eaad7b2485df7f94f9ac21e76c6b987461717e0c0ea67b7c8f58c7da51335821a746a417c8bb3976856ce9f31192be52e85e5d86edb32a43f95edf1e54ee0631 OP_CHECKSIG",
            "desc": "pk(04eaad7b2485df7f94f9ac21e76c6b987461717e0c0ea67b7c8f58c7da51335821a746a417c8bb3976856ce9f31192be52e85e5d86edb32a43f95edf1e54ee0631)#s4ggx8nf",
            "hex": "4104eaad7b2485df7f94f9ac21e76c6b987461717e0c0ea67b7c8f58c7da51335821a746a417c8bb3976856ce9f31192be52e85e5d86edb32a43f95edf1e54ee0631ac",
            "type": "pubkey"
          }
        }
      ],
      "hex": "01000000010000000000000000000000000000000000000000000000000000000000000000ffffffff0804ffff001d02ff03ffffffff0100f2052a01000000434104eaad7b2485df7f94f9ac21e76c6b987461717e0c0ea67b7c8f58c7da51335821a746a417c8bb3976856ce9f31192be52e85e5d86edb32a43f95edf1e54ee0631ac00000000"
    }
  ]
}