{
  "hash": "00000000ce57e50f981f1ce85249ede1f6011bbee6aa3426011e16d6737555f9",
  "confirmations": 49785,
  "height": 3313,
  "version": 1,
  "versionHex": "00000001",
  "merkleroot": "770a94188cd9537ff2e9b3f1e5b8bbcc603b5e6fd95ec80e19504b6012bcab52",
  "time": 1233977534,
  "mediantime": 1233973980,
  "nonce": 1649776664,
  "bits": "1d00ffff",
  "difficulty": 1,
  "chainwork": "00000000000000000000000000000000000000000000000000000cf20cf20cf2",
  "nTx": 1,
  "previousblockhash": "0000000038ec1a8b75e443e71fd9f74da1e61d7a4137cc8cdec234c6fa4b6b24",
  "nextblockhash": "00000000dffde08e66b4a083ff2a66c75d30d986b0a218973b8592b8287aad32",
  "strippedsize": 216,
  "size": 216,
  "weight": 864,
  "tx": [
    {
      "txid": "770a94188cd9537ff2e9b3f1e5b8bbcc603b5e6fd95ec80e19504b6012bcab52",
      "hash": "770a94188cd9537ff2e9b3f1e5b8bbcc603b5e6fd95ec80e19504b6012bcab52",
      "version": 1,
      "size": 135,
      "vsize": 135,
      "weight": 540,
      "locktime": 0,
      "vin": [
        {
          "coinbase": "04ffff001d027b04",
          "sequence": 4294967295
        }
      ],
      "vout": [
        {
          "value": 50.0,
          "n": 0,
          "scriptPubKey": {
            "asm": "04303a8f15f8787e7a8307369c3171d248ba972da2133097df6e24dfeb6adef01dfd596d94257c3b4f2b8fcb7098095b8505e08c262d05b941325f76a514c5c8d1 OP_CHECKSIG",
            "desc": "pk(04303a8f15f8787e7a8307369c3171d248ba972da2133097df6e24dfeb6adef01dfd596d94257c3b4f2b8fcb7098095b8505e08c262d05b941325f76a514c5c8d1)#3q2rgyw3",
            "hex": "4104303a8f15f8787e7a8307369c3171d248ba972da2133097df6e24dfeb6adef01dfd596d94257c3b4f2b8fcb7098095b8505e08c262d05b941325f76a514c5c8d1ac",
            "type": "pubkey"
          }
        }
      ],
      "hex": "01000000010000000000000000000000000000000000000000000000000000000000000000ffffffff0804ffff001d027b04ffffffff0100f2052a01000000434104303a8f15f8787e7a8307369c3171d248ba972da2133097df6e24dfeb6adef01dfd596d94257c3b4f2b8fcb7098095b8505e08c262d05b941325f76a514c5c8d1ac00000000"
    }
  ]
}