{
  "hash": "00000000e2c7a3ddc1f2cb885bc41cd2c8cc701006f6f85a337cdd96db9778a7",
  "confirmations": 43309,
  "height": 9789,
  "version": 1,
  "versionHex": "00000001",
  "merkleroot": "660ec37b1f5c1fb1b2eb7cf9941da9c9261e6453621dd63b18a0e49a4a89e921",
  "time": 1238849363,
  "mediantime": 1238846554,
  "nonce": 63867863,
  "bits": "1d00ffff",
  "difficulty": 1,
  "chainwork": "0000000000000000000000000000000000000000000000000000263e263e263e",
  "nTx": 1,
  "previousblockhash": "00000000d704e101720a1f3e58b0d96ab456b72964aef734b82a323f80ac5df4",
  "nextblockhash": "000000002e45eea4df9758f40d06a52cc05e34e9a7cf2384fb19b5fed1512a75",
  "strippedsize": 216,
  "size": 216,
  "weight": 864,
  "tx": [
    {
      "txid": "660ec37b1f5c1fb1b2eb7cf9941da9c9261e6453621dd63b18a0e49a4a89e921",
      "hash": "660ec37b1f5c1fb1b2eb7cf9941da9c9261e6453621dd63b18a0e49a4a89e921",
      "version": 1,
      "size": 135,
      "vsize": 135,
      "weight": 540,
      "locktime": 0,
      "vin": [
        {
          "coinbase": "04ffff001d02f510",
          "sequence": 4294967295
        }
      ],
      "vout": [
        {
          "value": 50.0,
          "n": 0,
          "scriptPubKey": {
            "asm": "04acc1f5676c7d3e7167e47e14f2f58144a3b2815a810a939031cacbfac694574faff80ef9e196ba164b17fd96aee5ff6523387d0ed4e57f30cd213f90c4f22af2 OP_CHECKSIG",
            "desc": "pk(04acc1f5676c7d3e7167e47e14f2f58144a3b2815a810a939031cacbfac694574faff80ef9e196ba164b17fd96aee5ff6523387d0ed4e57f30cd213f90c4f22af2)#p980wm59",
            "hex": "4104acc1f5676c7d3e7167e47e14f2f58144a3b2815a810a939031cacbfac694574faff80ef9e196ba164b17fd96aee5ff6523387d0ed4e57f30cd213f90c4f22af2ac",
            "type": "pubkey"
          }
        }
      ],
      "hex": "01000000010000000000000000000000000000000000000000000000000000000000000000ffffffff0804ffff001d02f510ffffffff0100f2052a01000000434104acc1f5676c7d3e7167e47e14f2f58144a3b2815a810a939031cacbfac694574faff80ef9e196ba164b17fd96aee5ff6523387d0ed4e57f30cd213f90c4f22af2ac00000000"
    }
  ]
}