{
  "hash": "000000008e6d8a7b7ae77ab2647459e3e1300d0adfa7f6cd6576fc9ec38378b3",
  "confirmations": 50650,
  "height": 2448,
  "version": 1,
  "versionHex": "00000001",
  "merkleroot": "175b0029f6cd4701dc89ee1765512f323a9a867c84606dfe5925cb4a8f944bc3",
  "time": 1233391238,
  "mediantime": 1233387696,
  "nonce": 3368177450,
  "bits": "1d00ffff",
  "difficulty": 1,
  "chainwork": "0000000000000000000000000000000000000000000000000000099109910991",
  "nTx": 1,
  "previousblockhash": "000000002d6c37d83b3f6e005cb84fbc33cfff96b0fe3e33a462e370017957c5",
  "nextblockhash": "000000008fde5983d3ac6db5c744e37fc2da2be557443186056469437f274578",
  "strippedsize": 215,
  "size": 215,
  "weight": 860,
  "tx": [
    {
      "txid": "175b0029f6cd4701dc89ee1765512f323a9a867c84606dfe5925cb4a8f944bc3",
      "hash": "175b0029f6cd4701dc89ee1765512f323a9a867c84606dfe5925cb4a8f944bc3",
      "version": 1,
      "size": 134,
      "vsize": 134,
      "weight": 536,
      "locktime": 0,
      "vin": [
        {
          "coinbase": "04ffff001d0177",
          "sequence": 4294967295
        }
      ],
      "vout": [
        {
          "value": 50.0,
          "n": 0,
          "scriptPubKey": {
            "asm": "0421921a506b935b3977235cf10776e6c782ed69b00b549ba645430145667c6c54c9b4504be629a6f8e671b2c0bed4f6e02b81645957fb610d6f999f0459a6ea9a OP_CHECKSIG",
            "desc": "pk(0421921a506b935b3977235cf10776e6c782ed69b00b549ba645430145667c6c54c9b4504be629a6f8e671b2c0bed4f6e02b81645957fb610d6f999f0459a6ea9a)#9w2hqfsq",
            "hex": "410421921a506b935b3977235cf10776e6c782ed69b00b549ba645430145667c6c54c9b4504be629a6f8e671b2c0bed4f6e02b81645957fb610d6f999f0459a6ea9aac",
            "type": "pubkey"
          }
        }
      ],
      "hex": "01000000010000000000000000000000000000000000000000000000000000000000000000ffffffff0704ffff001d0177ffffffff0100f2052a0100000043410421921a506b935b3977235cf10776e6c782ed69b00b549ba645430145667c6c54c9b4504be629a6f8e671b2c0bed4f6e02b81645957fb610d6f999f0459a6ea9aac00000000"
    }
  ]
}