{
  "hash": "0000000083628102aac819522005c48a92a5a7856ac9f136358a2e299a7db659",
  "confirmations": 44585,
  "height": 8513,
  "version": 1,
  "versionHex": "00000001",
  "merkleroot": "c5e8633098025786465026a278e37c95439fbb3542a803319fd90943929ad8b9",
  "time": 1237881518,
  "mediantime": 1237878633,
  "nonce": 253783354,
  "bits": "1d00ffff",
  "difficulty": 1,
  "chainwork": "0000000000000000000000000000000000000000000000000000214221422142",
  "nTx": 1,
  "previousblockhash": "000000007fa7a60972684f5ceba4e6cdba6026f32c7a7b72871872d12b835123",
  "nextblockhash": "00000000b84eef52e467604650fd32a06464448072c35c49d9b91490f0e4878f",
  "strippedsize": 216,
  "size": 216,
  "weight": 864,
  "tx": [
    {
      "txid": "c5e8633098025786465026a278e37c95439fbb3542a803319fd90943929ad8b9",
      "hash": "c5e8633098025786465026a278e37c95439fbb3542a803319fd90943929ad8b9",
      "version": 1,
      "size": 135,
      "vsize": 135,
      "weight": 540,
      "locktime": 0,
      "vin": [
        {
          "coinbase": "04ffff001d02f307",
          "sequence": 4294967295
        }
      ],
      "vout": [
        {
          "value": 50.0,
          "n": 0,
          "scriptPubKey": {
            "asm": "04e172c0488a8bba7b1a2e72e9a16d2b2443827510eddf77bfec54406a4f7516c08f505c6b928b56d719a5ebffff3d9cdc93872cd517110fbc7afed2a341a69b77 OP_CHECKSIG",
            "desc": "pk(04e172c0488a8bba7b1a2e72e9a16d2b2443827510eddf77bfec54406a4f7516c08f505c6b928b56d719a5ebffff3d9cdc93872cd517110fbc7afed2a341a69b77)#p4w2uueu",
            "hex": "4104e172c0488a8bba7b1a2e72e9a16d2b2443827510eddf77bfec54406a4f7516c08f505c6b928b56d719a5ebffff3d9cdc93872cd517110fbc7afed2a341a69b77ac",
            "type": "pubkey"
          }
        }
      ],
      "hex": "01000000010000000000000000000000000000000000000000000000000000000000000000ffffffff0804ffff001d02f307ffffffff0100f2052a01000000434104e172c0488a8bba7b1a2e72e9a16d2b2443827510eddf77bfec54406a4f7516c08f505c6b928b56d719a5ebffff3d9cdc93872cd517110fbc7afed2a341a69b77ac00000000"
    }
  ]
}