{
  "hash": "00000000038ba6aef61ecafa4361db063b2b86f24202b0ac857253f13461eb5a",
  "confirmations": 52420,
  "height": 678,
  "version": 1,
  "versionHex": "00000001",
  "merkleroot": "09548672c43aa25def69fc7a7a0e1463ea7b671209ab1c0918e9fff9e1a2b4af",
  "time": 1232091328,
  "mediantime": 1232086216,
  "nonce": 2528983846,
  "bits": "1d00ffff",
  "difficulty": 1,
  "chainwork": "000000000000000000000000000000000000000000000000000002a702a702a7",
  "nTx": 1,
  "previousblockhash": "00000000ff1f5a558c320074a15d59eaa0f05e98f7258075f69ad3303eb9c759",
  "nextblockhash": "00000000144cf235e3c011e236d261bf535720eebf6ead83ceb1e9fc1e5e4c16",
  "strippedsize": 215,
  "size": 215,
  "weight": 860,
  "tx": [
    {
      "txid": "09548672c43aa25def69fc7a7a0e1463ea7b671209ab1c0918e9fff9e1a2b4af",
      "hash": "09548672c43aa25def69fc7a7a0e1463ea7b671209ab1c0918e9fff9e1a2b4af",
      "version": 1,
      "size": 134,
      "vsize": 134,
      "weight": 536,
      "locktime": 0,
      "vin": [
        {
          "coinbase": "04ffff001d0162",
          "sequence": 4294967295
        }
      ],
      "vout": [
        {
          "value": 50.0,
          "n": 0,
          "scriptPubKey": {
            "asm": "04b4478b7e07b3d7f1058f321366f0766d74ad1dd3a87814a744fa5c2a197072f849cfb0d4608079277d704174aeaf97b4eaa5f5b2484f5b56adf828e2893572ae OP_CHECKSIG",
            "desc": "pk(04b4478b7e07b3d7f1058f321366f0766d74ad1dd3a87814a744fa5c2a197072f849cfb0d4608079277d704174aeaf97b4eaa5f5b2484f5b56adf828e2893572ae)#nem7wgpt",
            "hex": "4104b4478b7e07b3d7f1058f321366f0766d74ad1dd3a87814a744fa5c2a197072f849cfb0d4608079277d704174aeaf97b4eaa5f5b2484f5b56adf828e2893572aeac",
            "type": "pubkey"
          }
        }
      ],
      "hex": "01000000010000000000000000000000000000000000000000000000000000000000000000ffffffff0704ffff001d0162ffffffff0100f2052a01000000434104b4478b7e07b3d7f1058f321366f0766d74ad1dd3a87814a744fa5c2a197072f849cfb0d4608079277d704174aeaf97b4eaa5f5b2484f5b56adf828e2893572aeac00000000"
    }
  ]
}