{
  "hash": "00000000e6671c8e142a9782009c7962049a5fda8cc46c39156541fc8157b78e",
  "confirmations": 51793,
  "height": 1305,
  "version": 1,
  "versionHex": "00000001",
  "merkleroot": "f51ff0a099e169385c2014c7330adb9463f2cd96e8cfee4ef32cdbf2251f13d2",
  "time": 1232598859,
  "mediantime": 1232594123,
  "nonce": 3678550822,
  "bits": "1d00ffff",
  "difficulty": 1,
  "chainwork": "0000000000000000000000000000000000000000000000000000051a051a051a",
  "nTx": 1,
  "previousblockhash": "00000000fff0728c5da1548b4f15576aa272f0f4952031ae56a5be355310ba0a",
  "nextblockhash": "00000000eeacdce37f856438d78a587e9b60058998116f3201cb817b78d702e5",
  "strippedsize": 215,
  "size": 215,
  "weight": 860,
  "tx": [
    {
      "txid": "f51ff0a099e169385c2014c7330adb9463f2cd96e8cfee4ef32cdbf2251f13d2",
      "hash": "f51ff0a099e169385c2014c7330adb9463f2cd96e8cfee4ef32cdbf2251f13d2",
      "version": 1,
      "size": 134,
      "vsize": 134,
      "weight": 536,
      "locktime": 0,
      "vin": [
        {
          "coinbase": "04ffff001d0138",
          "sequence": 4294967295
        }
      ],
      "vout": [
        {
          "value": 50.0,
          "n": 0,
          "scriptPubKey": {
            "asm": "04f692e2b89cebad6f4b0ea37d3c614366aac26aaa018834dd48e0599c53a64ac73f55f43ebebc9eed437749d143c5c1a6e0d94a17f70fe98279466569e0d40538 OP_CHECKSIG",
            "desc": "pk(04f692e2b89cebad6f4b0ea37d3c614366aac26aaa018834dd48e0599c53a64ac73f55f43ebebc9eed437749d143c5c1a6e0d94a17f70fe98279466569e0d40538)#n8dyyr7w",
            "hex": "4104f692e2b89cebad6f4b0ea37d3c614366aac26aaa018834dd48e0599c53a64ac73f55f43ebebc9eed437749d143c5c1a6e0d94a17f70fe98279466569e0d40538ac",
            "type": "pubkey"
          }
        }
      ],
      "hex": "01000000010000000000000000000000000000000000000000000000000000000000000000ffffffff0704ffff001d0138ffffffff0100f2052a01000000434104f692e2b89cebad6f4b0ea37d3c614366aac26aaa018834dd48e0599c53a64ac73f55f43ebebc9eed437749d143c5c1a6e0d94a17f70fe98279466569e0d40538ac00000000"
    }
  ]
}