{
  "hash": "000000003272a21b70414d8683a810a9474dec208f5bee443a0c81ed094f71d3",
  "confirmations": 44283,
  "height": 8815,
  "version": 1,
  "versionHex": "00000001",
  "merkleroot": "7632fc97fc56b60bf6da0bc57bffbbaff2a6a481a916b829705819f3527921cd",
  "time": 1238110476,
  "mediantime": 1238107107,
  "nonce": 1924162354,
  "bits": "1d00ffff",
  "difficulty": 1,
  "chainwork": "0000000000000000000000000000000000000000000000000000227022702270",
  "nTx": 1,
  "previousblockhash": "00000000bbdf2c879ae84da6d38f018bf29f4e08732f5a817069165ad484d024",
  "nextblockhash": "0000000064de54caff83e8ea00f3cd162c72c436f0233d9745351d2c4f2a432d",
  "strippedsize": 216,
  "size": 216,
  "weight": 864,
  "tx": [
    {
      "txid": "7632fc97fc56b60bf6da0bc57bffbbaff2a6a481a916b829705819f3527921cd",
      "hash": "7632fc97fc56b60bf6da0bc57bffbbaff2a6a481a916b829705819f3527921cd",
      "version": 1,
      "size": 135,
      "vsize": 135,
      "weight": 540,
      "locktime": 0,
      "vin": [
        {
          "coinbase": "04ffff001d020703",
          "sequence": 4294967295
        }
      ],
      "vout": [
        {
          "value": 50.0,
          "n": 0,
          "scriptPubKey": {
            "asm": "04c96b756f4a341f56501adfc1c4b1d93da7763cd3db66ec1fe876b51d66f8ac8054830f0d357d7e16de80eb21ffa532b5265945965cfada47c9f7546e399236e4 OP_CHECKSIG",
            "desc": "pk(04c96b756f4a341f56501adfc1c4b1d93da7763cd3db66ec1fe876b51d66f8ac8054830f0d357d7e16de80eb21ffa532b5265945965cfada47c9f7546e399236e4)#m8x3g7ul",
            "hex": "4104c96b756f4a341f56501adfc1c4b1d93da7763cd3db66ec1fe876b51d66f8ac8054830f0d357d7e16de80eb21ffa532b5265945965cfada47c9f7546e399236e4ac",
            "type": "pubkey"
          }
        }
      ],
      "hex": "01000000010000000000000000000000000000000000000000000000000000000000000000ffffffff0804ffff001d020703ffffffff0100f2052a01000000434104c96b756f4a341f56501adfc1c4b1d93da7763cd3db66ec1fe876b51d66f8ac8054830f0d357d7e16de80eb21ffa532b5265945965cfada47c9f7546e399236e4ac00000000"
    }
  ]
}