{
  "hash": "000000004942d8437d2177b1551779d7d7b403f5c2b2fb0c6f62f2151a1df89c",
  "confirmations": 43863,
  "height": 9235,
  "version": 1,
  "versionHex": "00000001",
  "merkleroot": "0813aada0ae499ec9ecfbc1c5c9b50de75d5214d982c589706681ecb0a1ccdb8",
  "time": 1238422747,
  "mediantime": 1238420478,
  "nonce": 7484797,
  "bits": "1d00ffff",
  "difficulty": 1,
  "chainwork": "0000000000000000000000000000000000000000000000000000241424142414",
  "nTx": 1,
  "previousblockhash": "0000000085fddddf6b35d22b4882da1dc1aa623c168626b73754942450b9193b",
  "nextblockhash": "000000004a2f243aa49778369cd9c6d1027d9c4609b9b75f1b2fe54c3e19974d",
  "strippedsize": 216,
  "size": 216,
  "weight": 864,
  "tx": [
    {
      "txid": "0813aada0ae499ec9ecfbc1c5c9b50de75d5214d982c589706681ecb0a1ccdb8",
      "hash": "0813aada0ae499ec9ecfbc1c5c9b50de75d5214d982c589706681ecb0a1ccdb8",
      "version": 1,
      "size": 135,
      "vsize": 135,
      "weight": 540,
      "locktime": 0,
      "vin": [
        {
          "coinbase": "04ffff001d02ca0e",
          "sequence": 4294967295
        }
      ],
      "vout": [
        {
          "value": 50.0,
          "n": 0,
          "scriptPubKey": {
            "asm": "0453cc3a9e1c6d19f234e38f790a0111b2b341cea2e5e89223a140aed24d4612dd632b26ddcef73a95e135cfcfa12e71139581365e81d4aa4ae93923af2cc8c9b8 OP_CHECKSIG",
            "desc": "pk(0453cc3a9e1c6d19f234e38f790a0111b2b341cea2e5e89223a140aed24d4612dd632b26ddcef73a95e135cfcfa12e71139581365e81d4aa4ae93923af2cc8c9b8)#pjkzzcuj",
            "hex": "410453cc3a9e1c6d19f234e38f790a0111b2b341cea2e5e89223a140aed24d4612dd632b26ddcef73a95e135cfcfa12e71139581365e81d4aa4ae93923af2cc8c9b8ac",
            "type": "pubkey"
          }
        }
      ],
      "hex": "01000000010000000000000000000000000000000000000000000000000000000000000000ffffffff0804ffff001d02ca0effffffff0100f2052a0100000043410453cc3a9e1c6d19f234e38f790a0111b2b341cea2e5e89223a140aed24d4612dd632b26ddcef73a95e135cfcfa12e71139581365e81d4aa4ae93923af2cc8c9b8ac00000000"
    }
  ]
}