{
  "hash": "00000000fe37ad71656b4d9038de26a234982550e3c867422b2e7fb918b457d9",
  "confirmations": 44632,
  "height": 8466,
  "version": 1,
  "versionHex": "00000001",
  "merkleroot": "a6ae4acffbe6e4edee0d358f97ffc02b8a0ab0810903b589dfa57e0010a68d29",
  "time": 1237842233,
  "mediantime": 1237838182,
  "nonce": 447255048,
  "bits": "1d00ffff",
  "difficulty": 1,
  "chainwork": "0000000000000000000000000000000000000000000000000000211321132113",
  "nTx": 1,
  "previousblockhash": "000000004eca954c4a657354cbdff294b4c09807607dd468aedbfd1f638a7631",
  "nextblockhash": "00000000ea4bee90153cf8ec446427110d978bcb3b157b6199dacac92e8b9858",
  "strippedsize": 216,
  "size": 216,
  "weight": 864,
  "tx": [
    {
      "txid": "a6ae4acffbe6e4edee0d358f97ffc02b8a0ab0810903b589dfa57e0010a68d29",
      "hash": "a6ae4acffbe6e4edee0d358f97ffc02b8a0ab0810903b589dfa57e0010a68d29",
      "version": 1,
      "size": 135,
      "vsize": 135,
      "weight": 540,
      "locktime": 0,
      "vin": [
        {
          "coinbase": "04ffff001d020d07",
          "sequence": 4294967295
        }
      ],
      "vout": [
        {
          "value": 50.0,
          "n": 0,
          "scriptPubKey": {
            "asm": "040a6fa71ee7b6a09fc63f63b325e74c531e923411e2e86ce9f64028dc8fccb242bb233887d3066f7303c595635ce4e88899ece3911384c40bcaff292b38b0d013 OP_CHECKSIG",
            "desc": "pk(040a6fa71ee7b6a09fc63f63b325e74c531e923411e2e86ce9f64028dc8fccb242bb233887d3066f7303c595635ce4e88899ece3911384c40bcaff292b38b0d013)#hylwk7z8",
            "hex": "41040a6fa71ee7b6a09fc63f63b325e74c531e923411e2e86ce9f64028dc8fccb242bb233887d3066f7303c595635ce4e88899ece3911384c40bcaff292b38b0d013ac",
            "type": "pubkey"
          }
        }
      ],
      "hex": "01000000010000000000000000000000000000000000000000000000000000000000000000ffffffff0804ffff001d020d07ffffffff0100f2052a010000004341040a6fa71ee7b6a09fc63f63b325e74c531e923411e2e86ce9f64028dc8fccb242bb233887d3066f7303c595635ce4e88899ece3911384c40bcaff292b38b0d013ac00000000"
    }
  ]
}