{
  "hash": "000000009c8a2d74b55b8c0f70ec24c37ec1e939f5da8d04e8bd4fedbff1fa3a",
  "confirmations": 46933,
  "height": 6165,
  "version": 1,
  "versionHex": "00000001",
  "merkleroot": "c2b8c9321df15e5a4f03f7ee5093325a92853c149d8eaf232585b0347435d71b",
  "time": 1236063344,
  "mediantime": 1236058735,
  "nonce": 2199044100,
  "bits": "1d00ffff",
  "difficulty": 1,
  "chainwork": "0000000000000000000000000000000000000000000000000000181618161816",
  "nTx": 1,
  "previousblockhash": "0000000083284da1de8c05ec05b7a88ac4da5331ca6ea1f08edf24dd7711348c",
  "nextblockhash": "000000000f1e4726f266da7a438c62bdf73212869981f18a96c5e8c552e2fb9f",
  "strippedsize": 216,
  "size": 216,
  "weight": 864,
  "tx": [
    {
      "txid": "c2b8c9321df15e5a4f03f7ee5093325a92853c149d8eaf232585b0347435d71b",
      "hash": "c2b8c9321df15e5a4f03f7ee5093325a92853c149d8eaf232585b0347435d71b",
      "version": 1,
      "size": 135,
      "vsize": 135,
      "weight": 540,
      "locktime": 0,
      "vin": [
        {
          "coinbase": "04ffff001d02d307",
          "sequence": 4294967295
        }
      ],
      "vout": [
        {
          "value": 50.0,
          "n": 0,
          "scriptPubKey": {
            "asm": "0499b244fd80166c50e183f007b7b1627d71acb45a13272bcada34e59d5b3d6054163e96ccc93326e993c5d3cbc4d1e741daec7d4beaae16f9c040704e1a558985 OP_CHECKSIG",
            "desc": "pk(0499b244fd80166c50e183f007b7b1627d71acb45a13272bcada34e59d5b3d6054163e96ccc93326e993c5d3cbc4d1e741daec7d4beaae16f9c040704e1a558985)#w3a0qkgx",
            "hex": "410499b244fd80166c50e183f007b7b1627d71acb45a13272bcada34e59d5b3d6054163e96ccc93326e993c5d3cbc4d1e741daec7d4beaae16f9c040704e1a558985ac",
            "type": "pubkey"
          }
        }
      ],
      "hex": "01000000010000000000000000000000000000000000000000000000000000000000000000ffffffff0804ffff001d02d307ffffffff0100f2052a0100000043410499b244fd80166c50e183f007b7b1627d71acb45a13272bcada34e59d5b3d6054163e96ccc93326e993c5d3cbc4d1e741daec7d4beaae16f9c040704e1a558985ac00000000"
    }
  ]
}