{
  "hash": "000000001f37b9a6b9d25df2fd1d6f936fdbeaae256527c54fe3bbade8f5d248",
  "confirmations": 50152,
  "height": 2946,
  "version": 1,
  "versionHex": "00000001",
  "merkleroot": "b23d586b5a200612a296a09e7235f0c3148749302706174c23afaa7267039758",
  "time": 1233721812,
  "mediantime": 1233718562,
  "nonce": 86371402,
  "bits": "1d00ffff",
  "difficulty": 1,
  "chainwork": "00000000000000000000000000000000000000000000000000000b830b830b83",
  "nTx": 1,
  "previousblockhash": "000000003b2a80798e683ba42297379bb50383165b3e33f77ff37a6953472bcf",
  "nextblockhash": "0000000003e906ad154d2b10f27253a6235228fb16566f96d45bbae382f3b81e",
  "strippedsize": 215,
  "size": 215,
  "weight": 860,
  "tx": [
    {
      "txid": "b23d586b5a200612a296a09e7235f0c3148749302706174c23afaa7267039758",
      "hash": "b23d586b5a200612a296a09e7235f0c3148749302706174c23afaa7267039758",
      "version": 1,
      "size": 134,
      "vsize": 134,
      "weight": 536,
      "locktime": 0,
      "vin": [
        {
          "coinbase": "04ffff001d012b",
          "sequence": 4294967295
        }
      ],
      "vout": [
        {
          "value": 50.0,
          "n": 0,
          "scriptPubKey": {
            "asm": "041addf8eecc0bb0f765302cae48f55d9ef39818689655418c9ea2bb2f02f1de5e628ddf3b962a43681900d3090b3308dd7f538c2b547e5e2f09f492822c974f95 OP_CHECKSIG",
            "desc": "pk(041addf8eecc0bb0f765302cae48f55d9ef39818689655418c9ea2bb2f02f1de5e628ddf3b962a43681900d3090b3308dd7f538c2b547e5e2f09f492822c974f95)#kxsl8mkg",
            "hex": "41041addf8eecc0bb0f765302cae48f55d9ef39818689655418c9ea2bb2f02f1de5e628ddf3b962a43681900d3090b3308dd7f538c2b547e5e2f09f492822c974f95ac",
            "type": "pubkey"
          }
        }
      ],
      "hex": "01000000010000000000000000000000000000000000000000000000000000000000000000ffffffff0704ffff001d012bffffffff0100f2052a010000004341041addf8eecc0bb0f765302cae48f55d9ef39818689655418c9ea2bb2f02f1de5e628ddf3b962a43681900d3090b3308dd7f538c2b547e5e2f09f492822c974f95ac00000000"
    }
  ]
}