{
  "hash": "000000003b2cfccabec62b1f874ee8e8e3c481a7e78d5188d7777fbbb948f1a0",
  "confirmations": 52100,
  "height": 998,
  "version": 1,
  "versionHex": "00000001",
  "merkleroot": "c573fa0b836556ef379c91f937df4b898f1f8ce67bb45e5f0697bdc0b02f2442",
  "time": 1232345881,
  "mediantime": 1232344227,
  "nonce": 46562091,
  "bits": "1d00ffff",
  "difficulty": 1,
  "chainwork": "000000000000000000000000000000000000000000000000000003e703e703e7",
  "nTx": 1,
  "previousblockhash": "00000000a231f8c4eb3e7abd317d52964002854596956660a678e4d11537e73e",
  "nextblockhash": "0000000008e647742775a230787d66fdf92c46a48c896bfbc85cdc8acc67e87d",
  "strippedsize": 215,
  "size": 215,
  "weight": 860,
  "tx": [
    {
      "txid": "c573fa0b836556ef379c91f937df4b898f1f8ce67bb45e5f0697bdc0b02f2442",
      "hash": "c573fa0b836556ef379c91f937df4b898f1f8ce67bb45e5f0697bdc0b02f2442",
      "version": 1,
      "size": 134,
      "vsize": 134,
      "weight": 536,
      "locktime": 0,
      "vin": [
        {
          "coinbase": "04ffff001d0138",
          "sequence": 4294967295
        }
      ],
      "vout": [
        {
          "value": 50.0,
          "n": 0,
          "scriptPubKey": {
            "asm": "0431bf236158cea4c85c8182795e2c32cfc84714b2d2c323d4ce30458fab8a569df57175b667365d681a5bb45fa50ed750135f5a08b5c818b34dc5cd6f9c2afe4d OP_CHECKSIG",
            "desc": "pk(0431bf236158cea4c85c8182795e2c32cfc84714b2d2c323d4ce30458fab8a569df57175b667365d681a5bb45fa50ed750135f5a08b5c818b34dc5cd6f9c2afe4d)#l0wpgryg",
            "hex": "410431bf236158cea4c85c8182795e2c32cfc84714b2d2c323d4ce30458fab8a569df57175b667365d681a5bb45fa50ed750135f5a08b5c818b34dc5cd6f9c2afe4dac",
            "type": "pubkey"
          }
        }
      ],
      "hex": "01000000010000000000000000000000000000000000000000000000000000000000000000ffffffff0704ffff001d0138ffffffff0100f2052a0100000043410431bf236158cea4c85c8182795e2c32cfc84714b2d2c323d4ce30458fab8a569df57175b667365d681a5bb45fa50ed750135f5a08b5c818b34dc5cd6f9c2afe4dac00000000"
    }
  ]
}