{
  "hash": "00000000822428dbfc0d8a46ac268909fd5bcf47057a386bab613336a5f6f6f9",
  "confirmations": 45810,
  "height": 7288,
  "version": 1,
  "versionHex": "00000001",
  "merkleroot": "61f74565ed069f13a6140f008237fea5912863a7832d8c0700cc91bddf519ce8",
  "time": 1236939172,
  "mediantime": 1236934646,
  "nonce": 2001886486,
  "bits": "1d00ffff",
  "difficulty": 1,
  "chainwork": "00000000000000000000000000000000000000000000000000001c791c791c79",
  "nTx": 1,
  "previousblockhash": "0000000072d663f7274a6232b84e45bbc9272d52e1a88901749b6f79531092ac",
  "nextblockhash": "00000000d74790381c24c4a617921091bd225a48c6a7145e7600b52ac0db32ec",
  "strippedsize": 216,
  "size": 216,
  "weight": 864,
  "tx": [
    {
      "txid": "61f74565ed069f13a6140f008237fea5912863a7832d8c0700cc91bddf519ce8",
      "hash": "61f74565ed069f13a6140f008237fea5912863a7832d8c0700cc91bddf519ce8",
      "version": 1,
      "size": 135,
      "vsize": 135,
      "weight": 540,
      "locktime": 0,
      "vin": [
        {
          "coinbase": "04ffff001d023207",
          "sequence": 4294967295
        }
      ],
      "vout": [
        {
          "value": 50.0,
          "n": 0,
          "scriptPubKey": {
            "asm": "043f69673ec6e347e42364bd2d14950d014f1389bee81244dfe465f8976b74760f9e20686ca234ccea45b2bbe9dc523f1a58d741a17c5e7fea02c0f2049485454f OP_CHECKSIG",
            "desc": "pk(043f69673ec6e347e42364bd2d14950d014f1389bee81244dfe465f8976b74760f9e20686ca234ccea45b2bbe9dc523f1a58d741a17c5e7fea02c0f2049485454f)#gsl49t5c",
            "hex": "41043f69673ec6e347e42364bd2d14950d014f1389bee81244dfe465f8976b74760f9e20686ca234ccea45b2bbe9dc523f1a58d741a17c5e7fea02c0f2049485454fac",
            "type": "pubkey"
          }
        }
      ],
      "hex": "01000000010000000000000000000000000000000000000000000000000000000000000000ffffffff0804ffff001d023207ffffffff0100f2052a010000004341043f69673ec6e347e42364bd2d14950d014f1389bee81244dfe465f8976b74760f9e20686ca234ccea45b2bbe9dc523f1a58d741a17c5e7fea02c0f2049485454fac00000000"
    }
  ]
}