{
  "hash": "00000000b4e50cb9b4a679c672ebdc5022fffbe0849f85356ca0e2bdacea5087",
  "confirmations": 47356,
  "height": 5742,
  "version": 1,
  "versionHex": "00000001",
  "merkleroot": "81a2143f223b51dfc47286ec7c2fd26059c8028a0c019aca961ac1af8c8eda13",
  "time": 1235715720,
  "mediantime": 1235711462,
  "nonce": 43099449,
  "bits": "1d00ffff",
  "difficulty": 1,
  "chainwork": "0000000000000000000000000000000000000000000000000000166f166f166f",
  "nTx": 1,
  "previousblockhash": "0000000007bbb10a32beb11f9659fd246cbe09b9b3c933e2f4fd3dde9aff2aed",
  "nextblockhash": "00000000b9398f1b4ed08d3288f187239644e534184051835a02a0eca0400575",
  "strippedsize": 216,
  "size": 216,
  "weight": 864,
  "tx": [
    {
      "txid": "81a2143f223b51dfc47286ec7c2fd26059c8028a0c019aca961ac1af8c8eda13",
      "hash": "81a2143f223b51dfc47286ec7c2fd26059c8028a0c019aca961ac1af8c8eda13",
      "version": 1,
      "size": 135,
      "vsize": 135,
      "weight": 540,
      "locktime": 0,
      "vin": [
        {
          "coinbase": "04ffff001d02270a",
          "sequence": 4294967295
        }
      ],
      "vout": [
        {
          "value": 50.0,
          "n": 0,
          "scriptPubKey": {
            "asm": "04689b8cca6c74cecee6d52cefa53ec733a80bfe45c25c2e437bb0d7b925d676bfeab09039a31bdc1ab49762546981bd8443727d00bdddfdb8e405df497d02fa7b OP_CHECKSIG",
            "desc": "pk(04689b8cca6c74cecee6d52cefa53ec733a80bfe45c25c2e437bb0d7b925d676bfeab09039a31bdc1ab49762546981bd8443727d00bdddfdb8e405df497d02fa7b)#6ax9fqyg",
            "hex": "4104689b8cca6c74cecee6d52cefa53ec733a80bfe45c25c2e437bb0d7b925d676bfeab09039a31bdc1ab49762546981bd8443727d00bdddfdb8e405df497d02fa7bac",
            "type": "pubkey"
          }
        }
      ],
      "hex": "01000000010000000000000000000000000000000000000000000000000000000000000000ffffffff0804ffff001d02270affffffff0100f2052a01000000434104689b8cca6c74cecee6d52cefa53ec733a80bfe45c25c2e437bb0d7b925d676bfeab09039a31bdc1ab49762546981bd8443727d00bdddfdb8e405df497d02fa7bac00000000"
    }
  ]
}