{
  "hash": "000000002cbf3c190a7a7008dfbb5f719f9276b547971632d0eb452a5dda0e4f",
  "confirmations": 50184,
  "height": 2914,
  "version": 1,
  "versionHex": "00000001",
  "merkleroot": "e970947f45a7980b07f59e57a96b7a1fba54cad43c7baea890bef2673c712629",
  "time": 1233701758,
  "mediantime": 1233697905,
  "nonce": 1547585080,
  "bits": "1d00ffff",
  "difficulty": 1,
  "chainwork": "00000000000000000000000000000000000000000000000000000b630b630b63",
  "nTx": 2,
  "previousblockhash": "000000006c2890a86b30cf93d369b407a67a2731600464ae7b2da7c79ec4d40e",
  "nextblockhash": "00000000865cdde8819dab3ebfd65b67f2dada2df3f7a575a2083c490b1c470e",
  "strippedsize": 449,
  "size": 449,
  "weight": 1796,
  "tx": [
    {
      "txid": "70162c76c9b463e770ea962443e0704b4a6f8ea0d6ba379fc0013abeae213ae8",
      "hash": "70162c76c9b463e770ea962443e0704b4a6f8ea0d6ba379fc0013abeae213ae8",
      "version": 1,
      "size": 135,
      "vsize": 135,
      "weight": 540,
      "locktime": 0,
      "vin": [
        {
          "coinbase": "04ffff001d029307",
          "sequence": 4294967295
        }
      ],
      "vout": [
        {
          "value": 50.0,
          "n": 0,
          "scriptPubKey": {
            "asm": "04797f1d3d1b47fb0e31fec25de59138c325c0c7e131490b94e022f28bf03e85792cc5cd077a8cafb0d5400b6d178ac478c796bbbb2ce7d30d082b2898c7f5713b OP_CHECKSIG",
            "desc": "pk(04797f1d3d1b47fb0e31fec25de59138c325c0c7e131490b94e022f28bf03e85792cc5cd077a8cafb0d5400b6d178ac478c796bbbb2ce7d30d082b2898c7f5713b)#f3vdyum5",
            "hex": "4104797f1d3d1b47fb0e31fec25de59138c325c0c7e131490b94e022f28bf03e85792cc5cd077a8cafb0d5400b6d178ac478c796bbbb2ce7d30d082b2898c7f5713bac",
            "type": "pubkey"
          }
        }
      ],
      "hex": "01000000010000000000000000000000000000000000000000000000000000000000000000ffffffff0804ffff001d029307ffffffff0100f2052a01000000434104797f1d3d1b47fb0e31fec25de59138c325c0c7e131490b94e022f28bf03e85792cc5cd077a8cafb0d5400b6d178ac478c796bbbb2ce7d30d082b2898c7f5713bac00000000"
    },
    {
      "txid": "d85a3b216f8d8fb27c83d340649966e0b1ae3124bcd8373ffb6284dd775c49e8",
      "hash": "d85a3b216f8d8fb27c83d340649966e0b1ae3124bcd8373ffb6284dd775c49e8",
      "version": 1,
      "size": 233,
      "vsize": 233,
      "weight": 932,
      "locktime": 0,
      "vin": [
        {
          "txid": "0346da4634e1d9a66f9cd107f05f828285455c3bfba72b223f808ef01ecaabb3",
          "vout": 0,
          "scriptSig": {
            "asm": "304402203cb5086f76c19f4120523550f063808e8e8b8e22455b65079d7fc373b01c85fe0220128389fd174bba0b035e916c65ff59ff6ed46b7720dded11b86e06f918330d5e[ALL]",
            "hex": "47304402203cb5086f76c19f4120523550f063808e8e8b8e22455b65079d7fc373b01c85fe0220128389fd174bba0b035e916c65ff59ff6ed46b7720dded11b86e06f918330d5e01"
          },
          "sequence": 4294967295
        }
      ],
      "vout": [
        {
          "value": 19.0,
          "n": 0,
          "scriptPubKey": {
            "asm": "OP_DUP OP_HASH160 ae5348c31e7154d26d29da3ab03383534647919e OP_EQUALVERIFY OP_CHECKSIG",
            "desc": "addr(1GtkM4wviwohP192tec9g83hd9X5qtbk9j)#utyxygkt",
            "hex": "76a914ae5348c31e7154d26d29da3ab03383534647919e88ac",
            "address": "1GtkM4wviwohP192tec9g83hd9X5qtbk9j",
            "type": "pubkeyhash"
          }
        },
        {
          "value": 31.0,
          "n": 1,
          "scriptPubKey": {
            "asm": "04e7218ae15f02b6a93dad227137f184b4e7834ff7a37c43e254395b60856d229aaeb57325f52bddd832d577ef22218264d942f4aa9451f459a2f0259c93fbf77a OP_CHECKSIG",
            "desc": "pk(04e7218ae15f02b6a93dad227137f184b4e7834ff7a37c43e254395b60856d229aaeb57325f52bddd832d577ef22218264d942f4aa9451f459a2f0259c93fbf77a)#04nrrqq9",
            "hex": "4104e7218ae15f02b6a93dad227137f184b4e7834ff7a37c43e254395b60856d229aaeb57325f52bddd832d577ef22218264d942f4aa9451f459a2f0259c93fbf77aac",
            "type": "pubkey"
          }
        }
      ],
      "fee": 0.0,
      "hex": "0100000001b3abca1ef08e803f222ba7fb3b5c458582825ff007d19c6fa6d9e13446da4603000000004847304402203cb5086f76c19f4120523550f063808e8e8b8e22455b65079d7fc373b01c85fe0220128389fd174bba0b035e916c65ff59ff6ed46b7720dded11b86e06f918330d5e01ffffffff0200b33f71000000001976a914ae5348c31e7154d26d29da3ab03383534647919e88ac003fc6b800000000434104e7218ae15f02b6a93dad227137f184b4e7834ff7a37c43e254395b60856d229aaeb57325f52bddd832d577ef22218264d942f4aa9451f459a2f0259c93fbf77aac00000000"
    }
  ]
}