{
  "hash": "0000000077e87b894506363f643f8cba6ea01438107e8925042c357b4f0a6c62",
  "confirmations": 51953,
  "height": 1145,
  "version": 1,
  "versionHex": "00000001",
  "merkleroot": "a7cdb5364507f54bb0438df34e068a2aa8c25c0174709325db95da1a8054c106",
  "time": 1232455240,
  "mediantime": 1232452108,
  "nonce": 1297562662,
  "bits": "1d00ffff",
  "difficulty": 1,
  "chainwork": "0000000000000000000000000000000000000000000000000000047a047a047a",
  "nTx": 1,
  "previousblockhash": "0000000031002d56e1c4676ae7999e8e0968708225bb1063c6a738f882f4498d",
  "nextblockhash": "00000000d464ed4937d46a928f991fb80a807b8a7fd3ac641d7db2edda27d197",
  "strippedsize": 216,
  "size": 216,
  "weight": 864,
  "tx": [
    {
      "txid": "a7cdb5364507f54bb0438df34e068a2aa8c25c0174709325db95da1a8054c106",
      "hash": "a7cdb5364507f54bb0438df34e068a2aa8c25c0174709325db95da1a8054c106",
      "version": 1,
      "size": 135,
      "vsize": 135,
      "weight": 540,
      "locktime": 0,
      "vin": [
        {
          "coinbase": "04ffff001d02b607",
          "sequence": 4294967295
        }
      ],
      "vout": [
        {
          "value": 50.0,
          "n": 0,
          "scriptPubKey": {
            "asm": "04eb18f5a93abcd9ef78c50fc62239cf4e6944bca5ba24edfc373aade83af8062779191c22a4e59f18591d4c39ecb8153a52ed7af78f7969b9d1330550bc59ba3f OP_CHECKSIG",
            "desc": "pk(04eb18f5a93abcd9ef78c50fc62239cf4e6944bca5ba24edfc373aade83af8062779191c22a4e59f18591d4c39ecb8153a52ed7af78f7969b9d1330550bc59ba3f)#mjhdr2ev",
            "hex": "4104eb18f5a93abcd9ef78c50fc62239cf4e6944bca5ba24edfc373aade83af8062779191c22a4e59f18591d4c39ecb8153a52ed7af78f7969b9d1330550bc59ba3fac",
            "type": "pubkey"
          }
        }
      ],
      "hex": "01000000010000000000000000000000000000000000000000000000000000000000000000ffffffff0804ffff001d02b607ffffffff0100f2052a01000000434104eb18f5a93abcd9ef78c50fc62239cf4e6944bca5ba24edfc373aade83af8062779191c22a4e59f18591d4c39ecb8153a52ed7af78f7969b9d1330550bc59ba3fac00000000"
    }
  ]
}