{
  "hash": "00000000b552e1e2d2998cc49619d1138cea9ff5ead9f8dcc8febb4e60d73f76",
  "confirmations": 49794,
  "height": 3304,
  "version": 1,
  "versionHex": "00000001",
  "merkleroot": "280111e42a83898dd2509d63bf6d641d69a65885ce4ff53e4f982f7c512b76d7",
  "time": 1233971360,
  "mediantime": 1233968260,
  "nonce": 1023570966,
  "bits": "1d00ffff",
  "difficulty": 1,
  "chainwork": "00000000000000000000000000000000000000000000000000000ce90ce90ce9",
  "nTx": 1,
  "previousblockhash": "00000000bf21321019b9096553f1ccb1e1bab346dcb7b9c023eadc32ca84493d",
  "nextblockhash": "0000000008b139799229859fb817bb24663467d3509916d013dd79574204bbad",
  "strippedsize": 216,
  "size": 216,
  "weight": 864,
  "tx": [
    {
      "txid": "280111e42a83898dd2509d63bf6d641d69a65885ce4ff53e4f982f7c512b76d7",
      "hash": "280111e42a83898dd2509d63bf6d641d69a65885ce4ff53e4f982f7c512b76d7",
      "version": 1,
      "size": 135,
      "vsize": 135,
      "weight": 540,
      "locktime": 0,
      "vin": [
        {
          "coinbase": "04ffff001d024604",
          "sequence": 4294967295
        }
      ],
      "vout": [
        {
          "value": 50.0,
          "n": 0,
          "scriptPubKey": {
            "asm": "0492806cba2cfdc9404310e2324624c103bb74f64d2c8a020da83ecfa1c7b4ef1fb7e02262eb5173f056d84a725428baf7987cc6f47176cc93b584559fb14b1852 OP_CHECKSIG",
            "desc": "pk(0492806cba2cfdc9404310e2324624c103bb74f64d2c8a020da83ecfa1c7b4ef1fb7e02262eb5173f056d84a725428baf7987cc6f47176cc93b584559fb14b1852)#egvcgtuc",
            "hex": "410492806cba2cfdc9404310e2324624c103bb74f64d2c8a020da83ecfa1c7b4ef1fb7e02262eb5173f056d84a725428baf7987cc6f47176cc93b584559fb14b1852ac",
            "type": "pubkey"
          }
        }
      ],
      "hex": "01000000010000000000000000000000000000000000000000000000000000000000000000ffffffff0804ffff001d024604ffffffff0100f2052a0100000043410492806cba2cfdc9404310e2324624c103bb74f64d2c8a020da83ecfa1c7b4ef1fb7e02262eb5173f056d84a725428baf7987cc6f47176cc93b584559fb14b1852ac00000000"
    }
  ]
}