{
  "hash": "000000001912e096fc05e39250b509c3a7f296f009a9d094e063092a5d57e315",
  "confirmations": 47289,
  "height": 5809,
  "version": 1,
  "versionHex": "00000001",
  "merkleroot": "e8a12f1d88aac09343bff96269ccc7c5f80116853095337f9a4155d50ec3ea77",
  "time": 1235765624,
  "mediantime": 1235761274,
  "nonce": 3659132182,
  "bits": "1d00ffff",
  "difficulty": 1,
  "chainwork": "000000000000000000000000000000000000000000000000000016b216b216b2",
  "nTx": 1,
  "previousblockhash": "00000000baecb2e8f0acf8c9632a4df9d2605beadeeaac78f57decd2310c8013",
  "nextblockhash": "000000002b2a480b297c264ed72b6bdd5a50d6e2d767dbed63aac4aae29f4503",
  "strippedsize": 216,
  "size": 216,
  "weight": 864,
  "tx": [
    {
      "txid": "e8a12f1d88aac09343bff96269ccc7c5f80116853095337f9a4155d50ec3ea77",
      "hash": "e8a12f1d88aac09343bff96269ccc7c5f80116853095337f9a4155d50ec3ea77",
      "version": 1,
      "size": 135,
      "vsize": 135,
      "weight": 540,
      "locktime": 0,
      "vin": [
        {
          "coinbase": "04ffff001d02e600",
          "sequence": 4294967295
        }
      ],
      "vout": [
        {
          "value": 50.0,
          "n": 0,
          "scriptPubKey": {
            "asm": "04bf49f1010b39a3aa08fefb223d4eef7dae44ad5436ab1d15333bf0fd9b26bc55f91e6d9935915ddfdf50a987c67f15f3401dd1078531e764c275a6b81fda8d3d OP_CHECKSIG",
            "desc": "pk(04bf49f1010b39a3aa08fefb223d4eef7dae44ad5436ab1d15333bf0fd9b26bc55f91e6d9935915ddfdf50a987c67f15f3401dd1078531e764c275a6b81fda8d3d)#nh9sly0z",
            "hex": "4104bf49f1010b39a3aa08fefb223d4eef7dae44ad5436ab1d15333bf0fd9b26bc55f91e6d9935915ddfdf50a987c67f15f3401dd1078531e764c275a6b81fda8d3dac",
            "type": "pubkey"
          }
        }
      ],
      "hex": "01000000010000000000000000000000000000000000000000000000000000000000000000ffffffff0804ffff001d02e600ffffffff0100f2052a01000000434104bf49f1010b39a3aa08fefb223d4eef7dae44ad5436ab1d15333bf0fd9b26bc55f91e6d9935915ddfdf50a987c67f15f3401dd1078531e764c275a6b81fda8d3dac00000000"
    }
  ]
}