{
  "hash": "00000000fd1224e16cf1e52aecd12cb5ccfa26ef61fd8421c487e1de2b141749",
  "confirmations": 47130,
  "height": 5968,
  "version": 1,
  "versionHex": "00000001",
  "merkleroot": "70bc5df93ca362d8747fef8eacd7672827670e4d534b0a75db6980bb4504d791",
  "time": 1235903055,
  "mediantime": 1235898554,
  "nonce": 1118136597,
  "bits": "1d00ffff",
  "difficulty": 1,
  "chainwork": "0000000000000000000000000000000000000000000000000000175117511751",
  "nTx": 1,
  "previousblockhash": "0000000037edc632cc7e27c03edd92e2b155e9e04ddd32e30e45a5db32a4934c",
  "nextblockhash": "0000000069d30d02057843289750ed3e2a6a19c394125de570d3405cfb623c95",
  "strippedsize": 216,
  "size": 216,
  "weight": 864,
  "tx": [
    {
      "txid": "70bc5df93ca362d8747fef8eacd7672827670e4d534b0a75db6980bb4504d791",
      "hash": "70bc5df93ca362d8747fef8eacd7672827670e4d534b0a75db6980bb4504d791",
      "version": 1,
      "size": 135,
      "vsize": 135,
      "weight": 540,
      "locktime": 0,
      "vin": [
        {
          "coinbase": "04ffff001d025c04",
          "sequence": 4294967295
        }
      ],
      "vout": [
        {
          "value": 50.0,
          "n": 0,
          "scriptPubKey": {
            "asm": "045de6b66f02c3a340cac7deb6576f5e829b20cce5fb93092181a0a5e40944468aa0b45d6ca0faa5d44458f8b96c3aa9bbb41abd619f8e3ec3762d755b1a77ca58 OP_CHECKSIG",
            "desc": "pk(045de6b66f02c3a340cac7deb6576f5e829b20cce5fb93092181a0a5e40944468aa0b45d6ca0faa5d44458f8b96c3aa9bbb41abd619f8e3ec3762d755b1a77ca58)#335etx4m",
            "hex": "41045de6b66f02c3a340cac7deb6576f5e829b20cce5fb93092181a0a5e40944468aa0b45d6ca0faa5d44458f8b96c3aa9bbb41abd619f8e3ec3762d755b1a77ca58ac",
            "type": "pubkey"
          }
        }
      ],
      "hex": "01000000010000000000000000000000000000000000000000000000000000000000000000ffffffff0804ffff001d025c04ffffffff0100f2052a010000004341045de6b66f02c3a340cac7deb6576f5e829b20cce5fb93092181a0a5e40944468aa0b45d6ca0faa5d44458f8b96c3aa9bbb41abd619f8e3ec3762d755b1a77ca58ac00000000"
    }
  ]
}