{
  "hash": "00000000e669ced399cdee6d98e1438cebd0bdaf35b277780153e3eb2d0a6e64",
  "confirmations": 45791,
  "height": 7307,
  "version": 1,
  "versionHex": "00000001",
  "merkleroot": "149ac2011a0a08aa1bff472063d1f5ee80b6953efd3de6624c3d072b1f086179",
  "time": 1236952181,
  "mediantime": 1236950297,
  "nonce": 3618613531,
  "bits": "1d00ffff",
  "difficulty": 1,
  "chainwork": "00000000000000000000000000000000000000000000000000001c8c1c8c1c8c",
  "nTx": 1,
  "previousblockhash": "000000001a9c1eac0359894c6412fcd8148f1c57186b4fcd414c5f777d18c9d1",
  "nextblockhash": "0000000001d7e012d5f8cb107bbea5a4620772adb4c3d3043958b93df4c29cc1",
  "strippedsize": 216,
  "size": 216,
  "weight": 864,
  "tx": [
    {
      "txid": "149ac2011a0a08aa1bff472063d1f5ee80b6953efd3de6624c3d072b1f086179",
      "hash": "149ac2011a0a08aa1bff472063d1f5ee80b6953efd3de6624c3d072b1f086179",
      "version": 1,
      "size": 135,
      "vsize": 135,
      "weight": 540,
      "locktime": 0,
      "vin": [
        {
          "coinbase": "04ffff001d02a807",
          "sequence": 4294967295
        }
      ],
      "vout": [
        {
          "value": 50.0,
          "n": 0,
          "scriptPubKey": {
            "asm": "049c69dfe741fe97e674ac6c7c429583f2d05dc40d966406910e89af7935096d217cbf2af8cd0c36ad6811db2784455ca5dab6b5d8c2b7e8c2b0848cc1c72f4146 OP_CHECKSIG",
            "desc": "pk(049c69dfe741fe97e674ac6c7c429583f2d05dc40d966406910e89af7935096d217cbf2af8cd0c36ad6811db2784455ca5dab6b5d8c2b7e8c2b0848cc1c72f4146)#9d6233wg",
            "hex": "41049c69dfe741fe97e674ac6c7c429583f2d05dc40d966406910e89af7935096d217cbf2af8cd0c36ad6811db2784455ca5dab6b5d8c2b7e8c2b0848cc1c72f4146ac",
            "type": "pubkey"
          }
        }
      ],
      "hex": "01000000010000000000000000000000000000000000000000000000000000000000000000ffffffff0804ffff001d02a807ffffffff0100f2052a010000004341049c69dfe741fe97e674ac6c7c429583f2d05dc40d966406910e89af7935096d217cbf2af8cd0c36ad6811db2784455ca5dab6b5d8c2b7e8c2b0848cc1c72f4146ac00000000"
    }
  ]
}