{
  "hash": "0000000019351928bfd8bcb76287ef80e8a5b3571ef5db9b76fc28bc3b27e9ba",
  "confirmations": 44443,
  "height": 8655,
  "version": 1,
  "versionHex": "00000001",
  "merkleroot": "4e92b3d85db42892e772a5590ecd822f114aae2b09fd058d162df092eaa63cd9",
  "time": 1237989227,
  "mediantime": 1237986732,
  "nonce": 1629023273,
  "bits": "1d00ffff",
  "difficulty": 1,
  "chainwork": "000000000000000000000000000000000000000000000000000021d021d021d0",
  "nTx": 1,
  "previousblockhash": "00000000fd2887deb85e1410acf3043e2079638c17083c179beb96dcde6ee013",
  "nextblockhash": "00000000e135705408a52b677d6bf64555dd605338c6e15e61bec0685c6c59e9",
  "strippedsize": 215,
  "size": 215,
  "weight": 860,
  "tx": [
    {
      "txid": "4e92b3d85db42892e772a5590ecd822f114aae2b09fd058d162df092eaa63cd9",
      "hash": "4e92b3d85db42892e772a5590ecd822f114aae2b09fd058d162df092eaa63cd9",
      "version": 1,
      "size": 134,
      "vsize": 134,
      "weight": 536,
      "locktime": 0,
      "vin": [
        {
          "coinbase": "04ffff001d0116",
          "sequence": 4294967295
        }
      ],
      "vout": [
        {
          "value": 50.0,
          "n": 0,
          "scriptPubKey": {
            "asm": "045052f2ca87cbdd2c454f00e685525a03a20f7acf42ebbdcc3a3f1d69f2a8dee7265a3e765635a347e4f67b3194713ff50ea7f349bab39fdae2c782d9082bb54c OP_CHECKSIG",
            "desc": "pk(045052f2ca87cbdd2c454f00e685525a03a20f7acf42ebbdcc3a3f1d69f2a8dee7265a3e765635a347e4f67b3194713ff50ea7f349bab39fdae2c782d9082bb54c)#kh7v97jj",
            "hex": "41045052f2ca87cbdd2c454f00e685525a03a20f7acf42ebbdcc3a3f1d69f2a8dee7265a3e765635a347e4f67b3194713ff50ea7f349bab39fdae2c782d9082bb54cac",
            "type": "pubkey"
          }
        }
      ],
      "hex": "01000000010000000000000000000000000000000000000000000000000000000000000000ffffffff0704ffff001d0116ffffffff0100f2052a010000004341045052f2ca87cbdd2c454f00e685525a03a20f7acf42ebbdcc3a3f1d69f2a8dee7265a3e765635a347e4f67b3194713ff50ea7f349bab39fdae2c782d9082bb54cac00000000"
    }
  ]
}