{
  "hash": "00000000cc78ad610206892e7be4d37adf3f7b4a5ac7b5c13a5d5a046f8d7daa",
  "confirmations": 45061,
  "height": 8037,
  "version": 1,
  "versionHex": "00000001",
  "merkleroot": "cae14935cb2614076e80cbf33e66c0880e4209ca9139dc7fe15cdae85f714b1e",
  "time": 1237489443,
  "mediantime": 1237486650,
  "nonce": 112451733,
  "bits": "1d00ffff",
  "difficulty": 1,
  "chainwork": "00000000000000000000000000000000000000000000000000001f661f661f66",
  "nTx": 1,
  "previousblockhash": "00000000b673799a339623c2c04cc9ed5feac0a1280925e2ff3ed759eefa3330",
  "nextblockhash": "0000000084badb4cbcdfce3581ade61c0178b9626d888c14596394ec5f1d8ae0",
  "strippedsize": 215,
  "size": 215,
  "weight": 860,
  "tx": [
    {
      "txid": "cae14935cb2614076e80cbf33e66c0880e4209ca9139dc7fe15cdae85f714b1e",
      "hash": "cae14935cb2614076e80cbf33e66c0880e4209ca9139dc7fe15cdae85f714b1e",
      "version": 1,
      "size": 134,
      "vsize": 134,
      "weight": 536,
      "locktime": 0,
      "vin": [
        {
          "coinbase": "04ffff001d012e",
          "sequence": 4294967295
        }
      ],
      "vout": [
        {
          "value": 50.0,
          "n": 0,
          "scriptPubKey": {
            "asm": "04dee925bdbb46bfa1f90e9229a724468e1290779e55c2685e2f82d406d81848a2b0f51bd75c7ac4b8c673db64a6474fe4b67e8861b9f2dcd07ee189ee5712cf51 OP_CHECKSIG",
            "desc": "pk(04dee925bdbb46bfa1f90e9229a724468e1290779e55c2685e2f82d406d81848a2b0f51bd75c7ac4b8c673db64a6474fe4b67e8861b9f2dcd07ee189ee5712cf51)#45g9qd05",
            "hex": "4104dee925bdbb46bfa1f90e9229a724468e1290779e55c2685e2f82d406d81848a2b0f51bd75c7ac4b8c673db64a6474fe4b67e8861b9f2dcd07ee189ee5712cf51ac",
            "type": "pubkey"
          }
        }
      ],
      "hex": "01000000010000000000000000000000000000000000000000000000000000000000000000ffffffff0704ffff001d012effffffff0100f2052a01000000434104dee925bdbb46bfa1f90e9229a724468e1290779e55c2685e2f82d406d81848a2b0f51bd75c7ac4b8c673db64a6474fe4b67e8861b9f2dcd07ee189ee5712cf51ac00000000"
    }
  ]
}