{
  "hash": "000000006a8259db8a37a442fd42fc8a15b901ddec52ed8dd3a604510220524b",
  "confirmations": 47254,
  "height": 5844,
  "version": 1,
  "versionHex": "00000001",
  "merkleroot": "92192b95f42c0ffb3375cbf0b59b0b9285fd5d31ffe7f67681133ff8c1b8231f",
  "time": 1235795282,
  "mediantime": 1235792371,
  "nonce": 2603174695,
  "bits": "1d00ffff",
  "difficulty": 1,
  "chainwork": "000000000000000000000000000000000000000000000000000016d516d516d5",
  "nTx": 1,
  "previousblockhash": "000000007f7066100aecbe79f3e0ff7c705a3c910656730e03f101d1b3645ec1",
  "nextblockhash": "0000000072f360fa7244f7703039f42363a52f0e698ae3247f577f37c4d2e508",
  "strippedsize": 216,
  "size": 216,
  "weight": 864,
  "tx": [
    {
      "txid": "92192b95f42c0ffb3375cbf0b59b0b9285fd5d31ffe7f67681133ff8c1b8231f",
      "hash": "92192b95f42c0ffb3375cbf0b59b0b9285fd5d31ffe7f67681133ff8c1b8231f",
      "version": 1,
      "size": 135,
      "vsize": 135,
      "weight": 540,
      "locktime": 0,
      "vin": [
        {
          "coinbase": "04ffff001d028f01",
          "sequence": 4294967295
        }
      ],
      "vout": [
        {
          "value": 50.0,
          "n": 0,
          "scriptPubKey": {
            "asm": "04082f69e5f8ebc172799119a3beaefac15063db27aed9b3c47c247108f595a8960276efee04040b3c1a6316032a0fd7225a99f0dfe03966ce22de4b77a07e4c1c OP_CHECKSIG",
            "desc": "pk(04082f69e5f8ebc172799119a3beaefac15063db27aed9b3c47c247108f595a8960276efee04040b3c1a6316032a0fd7225a99f0dfe03966ce22de4b77a07e4c1c)#katetlcv",
            "hex": "4104082f69e5f8ebc172799119a3beaefac15063db27aed9b3c47c247108f595a8960276efee04040b3c1a6316032a0fd7225a99f0dfe03966ce22de4b77a07e4c1cac",
            "type": "pubkey"
          }
        }
      ],
      "hex": "01000000010000000000000000000000000000000000000000000000000000000000000000ffffffff0804ffff001d028f01ffffffff0100f2052a01000000434104082f69e5f8ebc172799119a3beaefac15063db27aed9b3c47c247108f595a8960276efee04040b3c1a6316032a0fd7225a99f0dfe03966ce22de4b77a07e4c1cac00000000"
    }
  ]
}