{
  "hash": "00000000add261f56fcd9beef3c02f29235ab5ba6547403baa0849d160edac69",
  "confirmations": 47505,
  "height": 5593,
  "version": 1,
  "versionHex": "00000001",
  "merkleroot": "1e9ab8f4dc01fd9ab8bb8b2bf70d4c8cc40a3d59669ebeb1c66b94bfeb8d2ad2",
  "time": 1235595390,
  "mediantime": 1235590557,
  "nonce": 4051758341,
  "bits": "1d00ffff",
  "difficulty": 1,
  "chainwork": "000000000000000000000000000000000000000000000000000015da15da15da",
  "nTx": 1,
  "previousblockhash": "00000000d85dc3f8c82fcdf97ad768a7f1ed70bebdf0d79a3dc243d4583ad905",
  "nextblockhash": "00000000f70e7488c538fe667e2aef73aa5a8c4748be06ed6bcd6dcf2c4ac7dc",
  "strippedsize": 216,
  "size": 216,
  "weight": 864,
  "tx": [
    {
      "txid": "1e9ab8f4dc01fd9ab8bb8b2bf70d4c8cc40a3d59669ebeb1c66b94bfeb8d2ad2",
      "hash": "1e9ab8f4dc01fd9ab8bb8b2bf70d4c8cc40a3d59669ebeb1c66b94bfeb8d2ad2",
      "version": 1,
      "size": 135,
      "vsize": 135,
      "weight": 540,
      "locktime": 0,
      "vin": [
        {
          "coinbase": "04ffff001d028507",
          "sequence": 4294967295
        }
      ],
      "vout": [
        {
          "value": 50.0,
          "n": 0,
          "scriptPubKey": {
            "asm": "0493872551312e91fb77580fc51606eeec51fe01ed6c86c69211e95aedf8c4b3f792b09a29af55ac927d6bb6bd1b5037bb196560f9ae2b7ac668af82dc8e08f541 OP_CHECKSIG",
            "desc": "pk(0493872551312e91fb77580fc51606eeec51fe01ed6c86c69211e95aedf8c4b3f792b09a29af55ac927d6bb6bd1b5037bb196560f9ae2b7ac668af82dc8e08f541)#lwxzg6tp",
            "hex": "410493872551312e91fb77580fc51606eeec51fe01ed6c86c69211e95aedf8c4b3f792b09a29af55ac927d6bb6bd1b5037bb196560f9ae2b7ac668af82dc8e08f541ac",
            "type": "pubkey"
          }
        }
      ],
      "hex": "01000000010000000000000000000000000000000000000000000000000000000000000000ffffffff0804ffff001d028507ffffffff0100f2052a0100000043410493872551312e91fb77580fc51606eeec51fe01ed6c86c69211e95aedf8c4b3f792b09a29af55ac927d6bb6bd1b5037bb196560f9ae2b7ac668af82dc8e08f541ac00000000"
    }
  ]
}