{
  "hash": "000000004d91e40fc5fbb5be48f2a11e5ef393d914623636a330817a4e809cba",
  "confirmations": 46614,
  "height": 6484,
  "version": 1,
  "versionHex": "00000001",
  "merkleroot": "8f86219a129647b66998c5a3666a2b32892e97f4d3d9d52f4cf12b5e4df9c885",
  "time": 1236318955,
  "mediantime": 1236314911,
  "nonce": 87423409,
  "bits": "1d00ffff",
  "difficulty": 1,
  "chainwork": "0000000000000000000000000000000000000000000000000000195519551955",
  "nTx": 1,
  "previousblockhash": "00000000ccfe932c3a2a2129b5eb7415dc6775643c4bdb9fa58f9117cc8eaad6",
  "nextblockhash": "00000000bd6efd0419df2abe501946d4a90c24571c5f44fb176a7155292db3a6",
  "strippedsize": 216,
  "size": 216,
  "weight": 864,
  "tx": [
    {
      "txid": "8f86219a129647b66998c5a3666a2b32892e97f4d3d9d52f4cf12b5e4df9c885",
      "hash": "8f86219a129647b66998c5a3666a2b32892e97f4d3d9d52f4cf12b5e4df9c885",
      "version": 1,
      "size": 135,
      "vsize": 135,
      "weight": 540,
      "locktime": 0,
      "vin": [
        {
          "coinbase": "04ffff001d020604",
          "sequence": 4294967295
        }
      ],
      "vout": [
        {
          "value": 50.0,
          "n": 0,
          "scriptPubKey": {
            "asm": "04149610d8e4492ffe01cfa50f9f1a7cbb008305af458a51a971494a4e015ca8a12f7d3464a669b89978b6999573a747440155d38732c89ae4bb4a22255379aae8 OP_CHECKSIG",
            "desc": "pk(04149610d8e4492ffe01cfa50f9f1a7cbb008305af458a51a971494a4e015ca8a12f7d3464a669b89978b6999573a747440155d38732c89ae4bb4a22255379aae8)#vry364pe",
            "hex": "4104149610d8e4492ffe01cfa50f9f1a7cbb008305af458a51a971494a4e015ca8a12f7d3464a669b89978b6999573a747440155d38732c89ae4bb4a22255379aae8ac",
            "type": "pubkey"
          }
        }
      ],
      "hex": "01000000010000000000000000000000000000000000000000000000000000000000000000ffffffff0804ffff001d020604ffffffff0100f2052a01000000434104149610d8e4492ffe01cfa50f9f1a7cbb008305af458a51a971494a4e015ca8a12f7d3464a669b89978b6999573a747440155d38732c89ae4bb4a22255379aae8ac00000000"
    }
  ]
}