{
  "hash": "000000001117ac12d7d84f4ba7331c2e7d1d1f38eda45f63ba726f30c54f5bdc",
  "confirmations": 44145,
  "height": 8953,
  "version": 1,
  "versionHex": "00000001",
  "merkleroot": "da80a91b8080a80e4bd99d0fc5315f28fe3b7d27ca6f898fa468391475bac189",
  "time": 1238219385,
  "mediantime": 1238216178,
  "nonce": 1541727785,
  "bits": "1d00ffff",
  "difficulty": 1,
  "chainwork": "000000000000000000000000000000000000000000000000000022fa22fa22fa",
  "nTx": 1,
  "previousblockhash": "00000000ed514c1e342eb1e74e0e2fbc529fc37d0a1758404ba66225c927f0d5",
  "nextblockhash": "0000000044df1612302205e2d6bffbbdffb370456a3adebaf1fe0a7e8e312ccf",
  "strippedsize": 216,
  "size": 216,
  "weight": 864,
  "tx": [
    {
      "txid": "da80a91b8080a80e4bd99d0fc5315f28fe3b7d27ca6f898fa468391475bac189",
      "hash": "da80a91b8080a80e4bd99d0fc5315f28fe3b7d27ca6f898fa468391475bac189",
      "version": 1,
      "size": 135,
      "vsize": 135,
      "weight": 540,
      "locktime": 0,
      "vin": [
        {
          "coinbase": "04ffff001d028205",
          "sequence": 4294967295
        }
      ],
      "vout": [
        {
          "value": 50.0,
          "n": 0,
          "scriptPubKey": {
            "asm": "043cea84a6f2e83645e9c45aa00044a8505e0746cccbdb9013490c77f1710929487b253f4facdd2f5304ba78735b758aed791ba074a7e639ce8092799d174ad66f OP_CHECKSIG",
            "desc": "pk(043cea84a6f2e83645e9c45aa00044a8505e0746cccbdb9013490c77f1710929487b253f4facdd2f5304ba78735b758aed791ba074a7e639ce8092799d174ad66f)#2wdqcsdl",
            "hex": "41043cea84a6f2e83645e9c45aa00044a8505e0746cccbdb9013490c77f1710929487b253f4facdd2f5304ba78735b758aed791ba074a7e639ce8092799d174ad66fac",
            "type": "pubkey"
          }
        }
      ],
      "hex": "01000000010000000000000000000000000000000000000000000000000000000000000000ffffffff0804ffff001d028205ffffffff0100f2052a010000004341043cea84a6f2e83645e9c45aa00044a8505e0746cccbdb9013490c77f1710929487b253f4facdd2f5304ba78735b758aed791ba074a7e639ce8092799d174ad66fac00000000"
    }
  ]
}