{
  "hash": "000000002352d625810ae3828c2e051b453e9cf73fbac54707e18d9a3127e670",
  "confirmations": 46841,
  "height": 6257,
  "version": 1,
  "versionHex": "00000001",
  "merkleroot": "66772898e2a8afee3a8bc310186ea0faf7fff7c19e27a43a9cb4ab19a8340b7c",
  "time": 1236138988,
  "mediantime": 1236133345,
  "nonce": 3012133159,
  "bits": "1d00ffff",
  "difficulty": 1,
  "chainwork": "0000000000000000000000000000000000000000000000000000187218721872",
  "nTx": 1,
  "previousblockhash": "00000000484f3bae55c16d61a0b40f355de3da86026348ef4edf1a32c24dc6c8",
  "nextblockhash": "000000001978dacbef3f057db050b68d683ba1fb63bf8ee58556b136bc95d798",
  "strippedsize": 216,
  "size": 216,
  "weight": 864,
  "tx": [
    {
      "txid": "66772898e2a8afee3a8bc310186ea0faf7fff7c19e27a43a9cb4ab19a8340b7c",
      "hash": "66772898e2a8afee3a8bc310186ea0faf7fff7c19e27a43a9cb4ab19a8340b7c",
      "version": 1,
      "size": 135,
      "vsize": 135,
      "weight": 540,
      "locktime": 0,
      "vin": [
        {
          "coinbase": "04ffff001d02b809",
          "sequence": 4294967295
        }
      ],
      "vout": [
        {
          "value": 50.0,
          "n": 0,
          "scriptPubKey": {
            "asm": "04aa347acdbef88811e58d3144e0d201d54c46256a013d860c1b40fd1c8b35bda2963e15f17fce5b8b06d7cb565df7e733f7c7d0989a64ddecbc909e8729e1de29 OP_CHECKSIG",
            "desc": "pk(04aa347acdbef88811e58d3144e0d201d54c46256a013d860c1b40fd1c8b35bda2963e15f17fce5b8b06d7cb565df7e733f7c7d0989a64ddecbc909e8729e1de29)#506df722",
            "hex": "4104aa347acdbef88811e58d3144e0d201d54c46256a013d860c1b40fd1c8b35bda2963e15f17fce5b8b06d7cb565df7e733f7c7d0989a64ddecbc909e8729e1de29ac",
            "type": "pubkey"
          }
        }
      ],
      "hex": "01000000010000000000000000000000000000000000000000000000000000000000000000ffffffff0804ffff001d02b809ffffffff0100f2052a01000000434104aa347acdbef88811e58d3144e0d201d54c46256a013d860c1b40fd1c8b35bda2963e15f17fce5b8b06d7cb565df7e733f7c7d0989a64ddecbc909e8729e1de29ac00000000"
    }
  ]
}