{
  "hash": "00000000310d5e79478ba4c6277b389e0cecf11e2dada61b23b106a8084bddb5",
  "confirmations": 45276,
  "height": 7822,
  "version": 1,
  "versionHex": "00000001",
  "merkleroot": "91a35353a88c40e87f3b21cd27917eb64d45a5f7ebfc8dc20aaa0afd064ef7e3",
  "time": 1237330489,
  "mediantime": 1237326560,
  "nonce": 1427478053,
  "bits": "1d00ffff",
  "difficulty": 1,
  "chainwork": "00000000000000000000000000000000000000000000000000001e8f1e8f1e8f",
  "nTx": 1,
  "previousblockhash": "0000000070594ab7669a36f0e6471f744847fc3d4e52a544d8d72bfe0daa5862",
  "nextblockhash": "00000000490bada37171a9c7e02118421760208dd34822d9abc7521b527d31cf",
  "strippedsize": 216,
  "size": 216,
  "weight": 864,
  "tx": [
    {
      "txid": "91a35353a88c40e87f3b21cd27917eb64d45a5f7ebfc8dc20aaa0afd064ef7e3",
      "hash": "91a35353a88c40e87f3b21cd27917eb64d45a5f7ebfc8dc20aaa0afd064ef7e3",
      "version": 1,
      "size": 135,
      "vsize": 135,
      "weight": 540,
      "locktime": 0,
      "vin": [
        {
          "coinbase": "04ffff001d024706",
          "sequence": 4294967295
        }
      ],
      "vout": [
        {
          "value": 50.0,
          "n": 0,
          "scriptPubKey": {
            "asm": "0432029f867e4633d5816aab651fe39a401ddb0ee653a4b82343b9fa29c40ad561e2fc3f328df57a38fc92ece32df5859aaa3367b4638d5607aba2075b552de714 OP_CHECKSIG",
            "desc": "pk(0432029f867e4633d5816aab651fe39a401ddb0ee653a4b82343b9fa29c40ad561e2fc3f328df57a38fc92ece32df5859aaa3367b4638d5607aba2075b552de714)#qxxpmsja",
            "hex": "410432029f867e4633d5816aab651fe39a401ddb0ee653a4b82343b9fa29c40ad561e2fc3f328df57a38fc92ece32df5859aaa3367b4638d5607aba2075b552de714ac",
            "type": "pubkey"
          }
        }
      ],
      "hex": "01000000010000000000000000000000000000000000000000000000000000000000000000ffffffff0804ffff001d024706ffffffff0100f2052a0100000043410432029f867e4633d5816aab651fe39a401ddb0ee653a4b82343b9fa29c40ad561e2fc3f328df57a38fc92ece32df5859aaa3367b4638d5607aba2075b552de714ac00000000"
    }
  ]
}