{
  "hash": "00000000f557e10424ce91bffe1d0ca46ff134dbd5fb2447690bfc9d3842cb3b",
  "confirmations": 52267,
  "height": 831,
  "version": 1,
  "versionHex": "00000001",
  "merkleroot": "49be42084d61986fa0a325f0406162a97eb8f2e395a4f24383b883fc0508ccb1",
  "time": 1232214634,
  "mediantime": 1232211605,
  "nonce": 1307515396,
  "bits": "1d00ffff",
  "difficulty": 1,
  "chainwork": "0000000000000000000000000000000000000000000000000000034003400340",
  "nTx": 1,
  "previousblockhash": "000000004e5c0c526e86ed66dc93ebb866e3b7b9b1f40aa520ae251cd19dd399",
  "nextblockhash": "00000000de9fa40b4107faaeaa6f05fcf9592b9475dd1b9a8b47110089e9ba0f",
  "strippedsize": 216,
  "size": 216,
  "weight": 864,
  "tx": [
    {
      "txid": "49be42084d61986fa0a325f0406162a97eb8f2e395a4f24383b883fc0508ccb1",
      "hash": "49be42084d61986fa0a325f0406162a97eb8f2e395a4f24383b883fc0508ccb1",
      "version": 1,
      "size": 135,
      "vsize": 135,
      "weight": 540,
      "locktime": 0,
      "vin": [
        {
          "coinbase": "04ffff001d02ee01",
          "sequence": 4294967295
        }
      ],
      "vout": [
        {
          "value": 50.0,
          "n": 0,
          "scriptPubKey": {
            "asm": "04181a82736d6787ece0ca5c8992ca2c86d92d566db525149cf8e194c1efe43215c0234c3671b0bb4ab3c77b7745f58bb056cd07e8fec36f26b1d6d18c8adb71b1 OP_CHECKSIG",
            "desc": "pk(04181a82736d6787ece0ca5c8992ca2c86d92d566db525149cf8e194c1efe43215c0234c3671b0bb4ab3c77b7745f58bb056cd07e8fec36f26b1d6d18c8adb71b1)#lxs4pwj9",
            "hex": "4104181a82736d6787ece0ca5c8992ca2c86d92d566db525149cf8e194c1efe43215c0234c3671b0bb4ab3c77b7745f58bb056cd07e8fec36f26b1d6d18c8adb71b1ac",
            "type": "pubkey"
          }
        }
      ],
      "hex": "01000000010000000000000000000000000000000000000000000000000000000000000000ffffffff0804ffff001d02ee01ffffffff0100f2052a01000000434104181a82736d6787ece0ca5c8992ca2c86d92d566db525149cf8e194c1efe43215c0234c3671b0bb4ab3c77b7745f58bb056cd07e8fec36f26b1d6d18c8adb71b1ac00000000"
    }
  ]
}