{
  "hash": "00000000aedf74a7cad22401e6776a99bb24c88480c10252f21845ae8d609695",
  "confirmations": 48201,
  "height": 4897,
  "version": 1,
  "versionHex": "00000001",
  "merkleroot": "396f4a24c2d622b8aad2bc74dc30607a37d1c5108e88ccfdba3aaf265d1708ba",
  "time": 1235068741,
  "mediantime": 1235065108,
  "nonce": 24966414,
  "bits": "1d00ffff",
  "difficulty": 1,
  "chainwork": "0000000000000000000000000000000000000000000000000000132213221322",
  "nTx": 1,
  "previousblockhash": "000000000de025f43ce2d03f6c2d7cc406f8956ea273e10fc6266def7ffe308a",
  "nextblockhash": "00000000cf70fce7e95a5fae16afa3ee46723c24f2b6d10de21f0b2460390d9c",
  "strippedsize": 216,
  "size": 216,
  "weight": 864,
  "tx": [
    {
      "txid": "396f4a24c2d622b8aad2bc74dc30607a37d1c5108e88ccfdba3aaf265d1708ba",
      "hash": "396f4a24c2d622b8aad2bc74dc30607a37d1c5108e88ccfdba3aaf265d1708ba",
      "version": 1,
      "size": 135,
      "vsize": 135,
      "weight": 540,
      "locktime": 0,
      "vin": [
        {
          "coinbase": "04ffff001d029c03",
          "sequence": 4294967295
        }
      ],
      "vout": [
        {
          "value": 50.0,
          "n": 0,
          "scriptPubKey": {
            "asm": "044646591c5e6b19a47cc6d101250fd6f93200c0023303dc0bab9384b613e5378f9fba5d33416c7d1a89dd6a3555364505e50b68ca2c3443c1a34644125a658132 OP_CHECKSIG",
            "desc": "pk(044646591c5e6b19a47cc6d101250fd6f93200c0023303dc0bab9384b613e5378f9fba5d33416c7d1a89dd6a3555364505e50b68ca2c3443c1a34644125a658132)#479n04ac",
            "hex": "41044646591c5e6b19a47cc6d101250fd6f93200c0023303dc0bab9384b613e5378f9fba5d33416c7d1a89dd6a3555364505e50b68ca2c3443c1a34644125a658132ac",
            "type": "pubkey"
          }
        }
      ],
      "hex": "01000000010000000000000000000000000000000000000000000000000000000000000000ffffffff0804ffff001d029c03ffffffff0100f2052a010000004341044646591c5e6b19a47cc6d101250fd6f93200c0023303dc0bab9384b613e5378f9fba5d33416c7d1a89dd6a3555364505e50b68ca2c3443c1a34644125a658132ac00000000"
    }
  ]
}