{
  "hash": "00000000260d3161f60c4d23b6f8b2f7d19c4f9eae2c354003c74c6e19a2bdf1",
  "confirmations": 49052,
  "height": 4046,
  "version": 1,
  "versionHex": "00000001",
  "merkleroot": "86ee038fa1c64c981545df68d4afa0f554f4d9a119c96e9ac478734b5ef93fcf",
  "time": 1234474703,
  "mediantime": 1234471535,
  "nonce": 103253474,
  "bits": "1d00ffff",
  "difficulty": 1,
  "chainwork": "00000000000000000000000000000000000000000000000000000fcf0fcf0fcf",
  "nTx": 1,
  "previousblockhash": "00000000f54ae42492abbdc195dcf041ac89e7c522272ae1d28e95caaa5e6b0c",
  "nextblockhash": "000000003f3af7c360e772dea533bd6be905db241c3a2aa8edb5d353cf932d17",
  "strippedsize": 215,
  "size": 215,
  "weight": 860,
  "tx": [
    {
      "txid": "86ee038fa1c64c981545df68d4afa0f554f4d9a119c96e9ac478734b5ef93fcf",
      "hash": "86ee038fa1c64c981545df68d4afa0f554f4d9a119c96e9ac478734b5ef93fcf",
      "version": 1,
      "size": 134,
      "vsize": 134,
      "weight": 536,
      "locktime": 0,
      "vin": [
        {
          "coinbase": "04ffff001d013d",
          "sequence": 4294967295
        }
      ],
      "vout": [
        {
          "value": 50.0,
          "n": 0,
          "scriptPubKey": {
            "asm": "0460a8b7f26339852b92fef99203620e4d3c841e69b03515f068e5dd64289504f060ff57fb4fb2ce572a992bad100d3241b77c2dc0e8f4a03d9f41b5c3531ba732 OP_CHECKSIG",
            "desc": "pk(0460a8b7f26339852b92fef99203620e4d3c841e69b03515f068e5dd64289504f060ff57fb4fb2ce572a992bad100d3241b77c2dc0e8f4a03d9f41b5c3531ba732)#pwvh2u2d",
            "hex": "410460a8b7f26339852b92fef99203620e4d3c841e69b03515f068e5dd64289504f060ff57fb4fb2ce572a992bad100d3241b77c2dc0e8f4a03d9f41b5c3531ba732ac",
            "type": "pubkey"
          }
        }
      ],
      "hex": "01000000010000000000000000000000000000000000000000000000000000000000000000ffffffff0704ffff001d013dffffffff0100f2052a0100000043410460a8b7f26339852b92fef99203620e4d3c841e69b03515f068e5dd64289504f060ff57fb4fb2ce572a992bad100d3241b77c2dc0e8f4a03d9f41b5c3531ba732ac00000000"
    }
  ]
}