{
  "hash": "00000000d3d4c3b9014bd51bd891d1161d7ead2dbe8597561eb17b1b9c6465c3",
  "confirmations": 52514,
  "height": 584,
  "version": 1,
  "versionHex": "00000001",
  "merkleroot": "d44e1778b8229c6aa8425ad8f4ee2e5f6a45836d0b6184893d98426cce55ee90",
  "time": 1232027566,
  "mediantime": 1232023318,
  "nonce": 3717775660,
  "bits": "1d00ffff",
  "difficulty": 1,
  "chainwork": "0000000000000000000000000000000000000000000000000000024902490249",
  "nTx": 1,
  "previousblockhash": "000000005b30f48ef450de8ebdb8829a931e8cd86e2f11f48f381c61c845379b",
  "nextblockhash": "0000000046ff6c4f9a7224aa331c407c7e37f49434571307d6fca58695bcba38",
  "strippedsize": 216,
  "size": 216,
  "weight": 864,
  "tx": [
    {
      "txid": "d44e1778b8229c6aa8425ad8f4ee2e5f6a45836d0b6184893d98426cce55ee90",
      "hash": "d44e1778b8229c6aa8425ad8f4ee2e5f6a45836d0b6184893d98426cce55ee90",
      "version": 1,
      "size": 135,
      "vsize": 135,
      "weight": 540,
      "locktime": 0,
      "vin": [
        {
          "coinbase": "04ffff001d024c06",
          "sequence": 4294967295
        }
      ],
      "vout": [
        {
          "value": 50.0,
          "n": 0,
          "scriptPubKey": {
            "asm": "0458bc954d310817a6c254478f9b171dbe70c47c313018a05bf61e6ae8decaf8b621af3a47ece38d1d4f92d5e6470a27d6ccbdbb31750dacc5e38308922d62d97c OP_CHECKSIG",
            "desc": "pk(0458bc954d310817a6c254478f9b171dbe70c47c313018a05bf61e6ae8decaf8b621af3a47ece38d1d4f92d5e6470a27d6ccbdbb31750dacc5e38308922d62d97c)#u43xpky8",
            "hex": "410458bc954d310817a6c254478f9b171dbe70c47c313018a05bf61e6ae8decaf8b621af3a47ece38d1d4f92d5e6470a27d6ccbdbb31750dacc5e38308922d62d97cac",
            "type": "pubkey"
          }
        }
      ],
      "hex": "01000000010000000000000000000000000000000000000000000000000000000000000000ffffffff0804ffff001d024c06ffffffff0100f2052a0100000043410458bc954d310817a6c254478f9b171dbe70c47c313018a05bf61e6ae8decaf8b621af3a47ece38d1d4f92d5e6470a27d6ccbdbb31750dacc5e38308922d62d97cac00000000"
    }
  ]
}