{
  "hash": "00000000703fba258cf11ad0704c0156cabd2e962f6c0c8218996ba791388dff",
  "confirmations": 46407,
  "height": 6691,
  "version": 1,
  "versionHex": "00000001",
  "merkleroot": "58189494edd2336f54310d3ac8d84f7529057e97f9707513229c3f0f0a911be2",
  "time": 1236477505,
  "mediantime": 1236472653,
  "nonce": 205000245,
  "bits": "1d00ffff",
  "difficulty": 1,
  "chainwork": "00000000000000000000000000000000000000000000000000001a241a241a24",
  "nTx": 1,
  "previousblockhash": "0000000050947d271497480d525e1f0349467646e774e1184a83aa8e7736683b",
  "nextblockhash": "00000000da496f41eda284f0f77c700b26fa05414ac83c1dd6e8d506df3771d3",
  "strippedsize": 216,
  "size": 216,
  "weight": 864,
  "tx": [
    {
      "txid": "58189494edd2336f54310d3ac8d84f7529057e97f9707513229c3f0f0a911be2",
      "hash": "58189494edd2336f54310d3ac8d84f7529057e97f9707513229c3f0f0a911be2",
      "version": 1,
      "size": 135,
      "vsize": 135,
      "weight": 540,
      "locktime": 0,
      "vin": [
        {
          "coinbase": "04ffff001d02cf06",
          "sequence": 4294967295
        }
      ],
      "vout": [
        {
          "value": 50.0,
          "n": 0,
          "scriptPubKey": {
            "asm": "04025731f9cf1244deb1942864b1c12df1e6c19486cdf5ccffb1f637ca1c052d238d61f6313ece08642a4fcf9082890644db2f94ef588e67ca24f5c1f1bee50006 OP_CHECKSIG",
            "desc": "pk(04025731f9cf1244deb1942864b1c12df1e6c19486cdf5ccffb1f637ca1c052d238d61f6313ece08642a4fcf9082890644db2f94ef588e67ca24f5c1f1bee50006)#mu8md28r",
            "hex": "4104025731f9cf1244deb1942864b1c12df1e6c19486cdf5ccffb1f637ca1c052d238d61f6313ece08642a4fcf9082890644db2f94ef588e67ca24f5c1f1bee50006ac",
            "type": "pubkey"
          }
        }
      ],
      "hex": "01000000010000000000000000000000000000000000000000000000000000000000000000ffffffff0804ffff001d02cf06ffffffff0100f2052a01000000434104025731f9cf1244deb1942864b1c12df1e6c19486cdf5ccffb1f637ca1c052d238d61f6313ece08642a4fcf9082890644db2f94ef588e67ca24f5c1f1bee50006ac00000000"
    }
  ]
}