{
  "hash": "00000000b9e3515f421c7cf05022323515f2d084c171da4556ce0a92b2fab388",
  "confirmations": 50582,
  "height": 2516,
  "version": 1,
  "versionHex": "00000001",
  "merkleroot": "e1dcbd4ed47146e1f3ffd3fe13553af5e3bca3762fa360c856ac6776db990197",
  "time": 1233428244,
  "mediantime": 1233426718,
  "nonce": 2383796993,
  "bits": "1d00ffff",
  "difficulty": 1,
  "chainwork": "000000000000000000000000000000000000000000000000000009d509d509d5",
  "nTx": 1,
  "previousblockhash": "00000000211ed6ff8805fbc536ee7b5a9ed76512c54205214c3d1387de3b6962",
  "nextblockhash": "000000001b055aa23e9c432e2d68b129ebbeaad36b953405df9a382ba74ae0d9",
  "strippedsize": 216,
  "size": 216,
  "weight": 864,
  "tx": [
    {
      "txid": "e1dcbd4ed47146e1f3ffd3fe13553af5e3bca3762fa360c856ac6776db990197",
      "hash": "e1dcbd4ed47146e1f3ffd3fe13553af5e3bca3762fa360c856ac6776db990197",
      "version": 1,
      "size": 135,
      "vsize": 135,
      "weight": 540,
      "locktime": 0,
      "vin": [
        {
          "coinbase": "04ffff001d024801",
          "sequence": 4294967295
        }
      ],
      "vout": [
        {
          "value": 50.0,
          "n": 0,
          "scriptPubKey": {
            "asm": "04d92ab0e56ad3249091f76a8736d82829d56408b230939933472616ca9be0a4bce8d35010783e982469a4b42d3faae48c6ac7be8f09a76c56bff06c276383e54d OP_CHECKSIG",
            "desc": "pk(04d92ab0e56ad3249091f76a8736d82829d56408b230939933472616ca9be0a4bce8d35010783e982469a4b42d3faae48c6ac7be8f09a76c56bff06c276383e54d)#ksh8xngm",
            "hex": "4104d92ab0e56ad3249091f76a8736d82829d56408b230939933472616ca9be0a4bce8d35010783e982469a4b42d3faae48c6ac7be8f09a76c56bff06c276383e54dac",
            "type": "pubkey"
          }
        }
      ],
      "hex": "01000000010000000000000000000000000000000000000000000000000000000000000000ffffffff0804ffff001d024801ffffffff0100f2052a01000000434104d92ab0e56ad3249091f76a8736d82829d56408b230939933472616ca9be0a4bce8d35010783e982469a4b42d3faae48c6ac7be8f09a76c56bff06c276383e54dac00000000"
    }
  ]
}