{
  "hash": "0000000004d361a7193cb5044ebfcb1115ec868ea368a758cc8e8c8f6685e6da",
  "confirmations": 48750,
  "height": 4348,
  "version": 1,
  "versionHex": "00000001",
  "merkleroot": "e92cbfcb43d35876ee779c048b530d0c90a6baf2a883a15cf10e26a428974e2e",
  "time": 1234676539,
  "mediantime": 1234673061,
  "nonce": 2610434070,
  "bits": "1d00ffff",
  "difficulty": 1,
  "chainwork": "000000000000000000000000000000000000000000000000000010fd10fd10fd",
  "nTx": 1,
  "previousblockhash": "00000000d248184366c7aea879f521db5560da313e9b66d7bfc96aaff18d27be",
  "nextblockhash": "00000000c4d74a7b3b077c5d037cd1631899091981d7d61ccc45e6c272a9e735",
  "strippedsize": 215,
  "size": 215,
  "weight": 860,
  "tx": [
    {
      "txid": "e92cbfcb43d35876ee779c048b530d0c90a6baf2a883a15cf10e26a428974e2e",
      "hash": "e92cbfcb43d35876ee779c048b530d0c90a6baf2a883a15cf10e26a428974e2e",
      "version": 1,
      "size": 134,
      "vsize": 134,
      "weight": 536,
      "locktime": 0,
      "vin": [
        {
          "coinbase": "04ffff001d017b",
          "sequence": 4294967295
        }
      ],
      "vout": [
        {
          "value": 50.0,
          "n": 0,
          "scriptPubKey": {
            "asm": "04900870b8d754844dc15cefe9a2f24902d0b7f451c3ce5d19c0431b6ba0f8b219d24417e8eb521e4764ef883e4706675f7b5b8ace75a67a9fb7dbebb2569f51fa OP_CHECKSIG",
            "desc": "pk(04900870b8d754844dc15cefe9a2f24902d0b7f451c3ce5d19c0431b6ba0f8b219d24417e8eb521e4764ef883e4706675f7b5b8ace75a67a9fb7dbebb2569f51fa)#p6m847nm",
            "hex": "4104900870b8d754844dc15cefe9a2f24902d0b7f451c3ce5d19c0431b6ba0f8b219d24417e8eb521e4764ef883e4706675f7b5b8ace75a67a9fb7dbebb2569f51faac",
            "type": "pubkey"
          }
        }
      ],
      "hex": "01000000010000000000000000000000000000000000000000000000000000000000000000ffffffff0704ffff001d017bffffffff0100f2052a01000000434104900870b8d754844dc15cefe9a2f24902d0b7f451c3ce5d19c0431b6ba0f8b219d24417e8eb521e4764ef883e4706675f7b5b8ace75a67a9fb7dbebb2569f51faac00000000"
    }
  ]
}