{
  "hash": "00000000d32bc5ec519824ce94f22577e79e067a5e1cde93c9f6325a2cdac198",
  "confirmations": 43782,
  "height": 9316,
  "version": 1,
  "versionHex": "00000001",
  "merkleroot": "59d78da0ab78fd9e2e18878a0ee6f07c21722270fc9ec435e7495216fa3e6d76",
  "time": 1238486235,
  "mediantime": 1238483644,
  "nonce": 161479616,
  "bits": "1d00ffff",
  "difficulty": 1,
  "chainwork": "0000000000000000000000000000000000000000000000000000246524652465",
  "nTx": 1,
  "previousblockhash": "000000006f0fca19456e2824feaae5ba4be5f2542c63c786bbd19dd5a1229271",
  "nextblockhash": "0000000040ee86ddeadce4fbc458d37e6acae8cf4f220354a186d79a0c7a8b15",
  "strippedsize": 215,
  "size": 215,
  "weight": 860,
  "tx": [
    {
      "txid": "59d78da0ab78fd9e2e18878a0ee6f07c21722270fc9ec435e7495216fa3e6d76",
      "hash": "59d78da0ab78fd9e2e18878a0ee6f07c21722270fc9ec435e7495216fa3e6d76",
      "version": 1,
      "size": 134,
      "vsize": 134,
      "weight": 536,
      "locktime": 0,
      "vin": [
        {
          "coinbase": "04ffff001d015b",
          "sequence": 4294967295
        }
      ],
      "vout": [
        {
          "value": 50.0,
          "n": 0,
          "scriptPubKey": {
            "asm": "044111781d63709171838ec8e253431c4eaef6efd0a55cac52b2d73c51ca03fc7cd31a55297cfd4532187c4051a93135ec0e53ed36f62b16aba5c6e6b4f4cde994 OP_CHECKSIG",
            "desc": "pk(044111781d63709171838ec8e253431c4eaef6efd0a55cac52b2d73c51ca03fc7cd31a55297cfd4532187c4051a93135ec0e53ed36f62b16aba5c6e6b4f4cde994)#nktljjw8",
            "hex": "41044111781d63709171838ec8e253431c4eaef6efd0a55cac52b2d73c51ca03fc7cd31a55297cfd4532187c4051a93135ec0e53ed36f62b16aba5c6e6b4f4cde994ac",
            "type": "pubkey"
          }
        }
      ],
      "hex": "01000000010000000000000000000000000000000000000000000000000000000000000000ffffffff0704ffff001d015bffffffff0100f2052a010000004341044111781d63709171838ec8e253431c4eaef6efd0a55cac52b2d73c51ca03fc7cd31a55297cfd4532187c4051a93135ec0e53ed36f62b16aba5c6e6b4f4cde994ac00000000"
    }
  ]
}