{
  "hash": "000000000702c9148edf6d12eed46b9171ae8da4820399465efc021166179ed3",
  "confirmations": 45848,
  "height": 7250,
  "version": 1,
  "versionHex": "00000001",
  "merkleroot": "90066a0bda5389ae1eef0d55409e9bb5d19c214d8f8ca2d0039d05cb7ad6220b",
  "time": 1236906620,
  "mediantime": 1236901849,
  "nonce": 377811743,
  "bits": "1d00ffff",
  "difficulty": 1,
  "chainwork": "00000000000000000000000000000000000000000000000000001c531c531c53",
  "nTx": 1,
  "previousblockhash": "00000000e62c067cfa3571b2cd4ee383567acc81778cc53254b65ddd9af389db",
  "nextblockhash": "000000001cf82724a71aa902376b610e59d1cf7e62e126a03cd4987dcb30fada",
  "strippedsize": 216,
  "size": 216,
  "weight": 864,
  "tx": [
    {
      "txid": "90066a0bda5389ae1eef0d55409e9bb5d19c214d8f8ca2d0039d05cb7ad6220b",
      "hash": "90066a0bda5389ae1eef0d55409e9bb5d19c214d8f8ca2d0039d05cb7ad6220b",
      "version": 1,
      "size": 135,
      "vsize": 135,
      "weight": 540,
      "locktime": 0,
      "vin": [
        {
          "coinbase": "04ffff001d027506",
          "sequence": 4294967295
        }
      ],
      "vout": [
        {
          "value": 50.0,
          "n": 0,
          "scriptPubKey": {
            "asm": "0466cd72071994f12f8ffbf680b2ef432cbbcaedfddd59cd240a3fa053b0dcb92ffe21594fc69d1dc7d77ae73b321f0421df97b4d8fdc6cdb8bd9b3e78eba68107 OP_CHECKSIG",
            "desc": "pk(0466cd72071994f12f8ffbf680b2ef432cbbcaedfddd59cd240a3fa053b0dcb92ffe21594fc69d1dc7d77ae73b321f0421df97b4d8fdc6cdb8bd9b3e78eba68107)#7mvpskxz",
            "hex": "410466cd72071994f12f8ffbf680b2ef432cbbcaedfddd59cd240a3fa053b0dcb92ffe21594fc69d1dc7d77ae73b321f0421df97b4d8fdc6cdb8bd9b3e78eba68107ac",
            "type": "pubkey"
          }
        }
      ],
      "hex": "01000000010000000000000000000000000000000000000000000000000000000000000000ffffffff0804ffff001d027506ffffffff0100f2052a0100000043410466cd72071994f12f8ffbf680b2ef432cbbcaedfddd59cd240a3fa053b0dcb92ffe21594fc69d1dc7d77ae73b321f0421df97b4d8fdc6cdb8bd9b3e78eba68107ac00000000"
    }
  ]
}