{
  "hash": "00000000fe5020fa736e81aa601b61c4c8007c171a92fdc802649970b81f82ff",
  "confirmations": 52024,
  "height": 208,
  "version": 1,
  "versionHex": "00000001",
  "merkleroot": "3e0700022ee439f07d77033161449339f46a90e408290af3f65259ad5e724977",
  "time": 1231758547,
  "mediantime": 1231756296,
  "nonce": 3675638062,
  "bits": "1d00ffff",
  "difficulty": 1,
  "chainwork": "000000000000000000000000000000000000000000000000000000d100d100d1",
  "nTx": 1,
  "previousblockhash": "00000000f5714fa64e1f16186d5afe7100ca4393320cef8298e0f59e64c3b008",
  "nextblockhash": "000000000e478132f5d6451cdb061aa1b639b7a375d566a68702984124ae6b03",
  "strippedsize": 215,
  "size": 215,
  "weight": 860,
  "tx": [
    {
      "txid": "3e0700022ee439f07d77033161449339f46a90e408290af3f65259ad5e724977",
      "hash": "3e0700022ee439f07d77033161449339f46a90e408290af3f65259ad5e724977",
      "version": 1,
      "size": 134,
      "vsize": 134,
      "weight": 536,
      "locktime": 0,
      "vin": [
        {
          "coinbase": "04ffff001d0158",
          "sequence": 4294967295
        }
      ],
      "vout": [
        {
          "value": 50.0,
          "n": 0,
          "scriptPubKey": {
            "asm": "04369afb5ed5869f1ba368edf61759668bf454abbc1e2ea3494e99e3c68dd7263f3f1a8176304c5b3b3865ef3c497e3a3548a97c275aaf48bd10417b605a9ded65 OP_CHECKSIG",
            "desc": "pk(04369afb5ed5869f1ba368edf61759668bf454abbc1e2ea3494e99e3c68dd7263f3f1a8176304c5b3b3865ef3c497e3a3548a97c275aaf48bd10417b605a9ded65)#4548vtrz",
            "hex": "4104369afb5ed5869f1ba368edf61759668bf454abbc1e2ea3494e99e3c68dd7263f3f1a8176304c5b3b3865ef3c497e3a3548a97c275aaf48bd10417b605a9ded65ac",
            "type": "pubkey"
          }
        }
      ],
      "hex": "01000000010000000000000000000000000000000000000000000000000000000000000000ffffffff0704ffff001d0158ffffffff0100f2052a01000000434104369afb5ed5869f1ba368edf61759668bf454abbc1e2ea3494e99e3c68dd7263f3f1a8176304c5b3b3865ef3c497e3a3548a97c275aaf48bd10417b605a9ded65ac00000000"
    }
  ]
}