{
  "hash": "00000000eaeeff813cc2ef15fd33a82d26c44830304a8667472d4d3dcd53d7dd",
  "confirmations": 43778,
  "height": 9320,
  "version": 1,
  "versionHex": "00000001",
  "merkleroot": "6c34ae985502c55326e45f04c8186f22ad9dcbca589c5f0abbbdd620ee004076",
  "time": 1238489102,
  "mediantime": 1238485629,
  "nonce": 4262618418,
  "bits": "1d00ffff",
  "difficulty": 1,
  "chainwork": "0000000000000000000000000000000000000000000000000000246924692469",
  "nTx": 1,
  "previousblockhash": "00000000f46b55a0ecc3fa92b34fa4b1b646710e51181ffdf93a8a630721cdf6",
  "nextblockhash": "0000000069e4461ea0adb0e3e9d9e71ed022d14e27ad8a309417b3b742c16f4f",
  "strippedsize": 216,
  "size": 216,
  "weight": 864,
  "tx": [
    {
      "txid": "6c34ae985502c55326e45f04c8186f22ad9dcbca589c5f0abbbdd620ee004076",
      "hash": "6c34ae985502c55326e45f04c8186f22ad9dcbca589c5f0abbbdd620ee004076",
      "version": 1,
      "size": 135,
      "vsize": 135,
      "weight": 540,
      "locktime": 0,
      "vin": [
        {
          "coinbase": "04ffff001d022502",
          "sequence": 4294967295
        }
      ],
      "vout": [
        {
          "value": 50.0,
          "n": 0,
          "scriptPubKey": {
            "asm": "04bf106baf34000d4251f82e7805c37536b41f2426787467822fd7036704ce6c2281e7575d1626e1c0555e6d7ea2177caa3b1bb947393dd82a09d99e005ef3510c OP_CHECKSIG",
            "desc": "pk(04bf106baf34000d4251f82e7805c37536b41f2426787467822fd7036704ce6c2281e7575d1626e1c0555e6d7ea2177caa3b1bb947393dd82a09d99e005ef3510c)#30tpsnry",
            "hex": "4104bf106baf34000d4251f82e7805c37536b41f2426787467822fd7036704ce6c2281e7575d1626e1c0555e6d7ea2177caa3b1bb947393dd82a09d99e005ef3510cac",
            "type": "pubkey"
          }
        }
      ],
      "hex": "01000000010000000000000000000000000000000000000000000000000000000000000000ffffffff0804ffff001d022502ffffffff0100f2052a01000000434104bf106baf34000d4251f82e7805c37536b41f2426787467822fd7036704ce6c2281e7575d1626e1c0555e6d7ea2177caa3b1bb947393dd82a09d99e005ef3510cac00000000"
    }
  ]
}