{
  "hash": "000000009953925f26893de421307f9917fdb5e74473a8d6779facacf2d6180d",
  "confirmations": 45070,
  "height": 8028,
  "version": 1,
  "versionHex": "00000001",
  "merkleroot": "35ddfa3ceb59b744b7ae93eedfb3638aeca7fb775bda834d4a6f1296bd8d3054",
  "time": 1237483905,
  "mediantime": 1237479360,
  "nonce": 157886207,
  "bits": "1d00ffff",
  "difficulty": 1,
  "chainwork": "00000000000000000000000000000000000000000000000000001f5d1f5d1f5d",
  "nTx": 1,
  "previousblockhash": "00000000b4031742b28cdc8fe0e635ec01094d35d2ca2bf8e3c5f7f28d505acc",
  "nextblockhash": "00000000b6686887356870d3dd48ec3a4053cd96cc6d45344e3b9a2ec34837d7",
  "strippedsize": 216,
  "size": 216,
  "weight": 864,
  "tx": [
    {
      "txid": "35ddfa3ceb59b744b7ae93eedfb3638aeca7fb775bda834d4a6f1296bd8d3054",
      "hash": "35ddfa3ceb59b744b7ae93eedfb3638aeca7fb775bda834d4a6f1296bd8d3054",
      "version": 1,
      "size": 135,
      "vsize": 135,
      "weight": 540,
      "locktime": 0,
      "vin": [
        {
          "coinbase": "04ffff001d02b000",
          "sequence": 4294967295
        }
      ],
      "vout": [
        {
          "value": 50.0,
          "n": 0,
          "scriptPubKey": {
            "asm": "0455e96923db2563718a70fcce63831e77db186b5e86e3f396b48ab945e5f403dd3d8155cdf816407cb84f1c0f3df9faaddd8da54c8daad1bdf7c9e8c91762c716 OP_CHECKSIG",
            "desc": "pk(0455e96923db2563718a70fcce63831e77db186b5e86e3f396b48ab945e5f403dd3d8155cdf816407cb84f1c0f3df9faaddd8da54c8daad1bdf7c9e8c91762c716)#pqz5rftc",
            "hex": "410455e96923db2563718a70fcce63831e77db186b5e86e3f396b48ab945e5f403dd3d8155cdf816407cb84f1c0f3df9faaddd8da54c8daad1bdf7c9e8c91762c716ac",
            "type": "pubkey"
          }
        }
      ],
      "hex": "01000000010000000000000000000000000000000000000000000000000000000000000000ffffffff0804ffff001d02b000ffffffff0100f2052a0100000043410455e96923db2563718a70fcce63831e77db186b5e86e3f396b48ab945e5f403dd3d8155cdf816407cb84f1c0f3df9faaddd8da54c8daad1bdf7c9e8c91762c716ac00000000"
    }
  ]
}