{
  "hash": "0000000011904919835ba1c5568b33b59ccb2016e494e4e43a46dbfadce59796",
  "confirmations": 48206,
  "height": 4892,
  "version": 1,
  "versionHex": "00000001",
  "merkleroot": "8691b30fe990a34a6f8c67508be3f2d5ef92185d775f9816c0b2fa612982f4bc",
  "time": 1235065108,
  "mediantime": 1235062197,
  "nonce": 178569690,
  "bits": "1d00ffff",
  "difficulty": 1,
  "chainwork": "0000000000000000000000000000000000000000000000000000131d131d131d",
  "nTx": 1,
  "previousblockhash": "000000003131fa71fe82b976a976c05559e98978d57f87649c730bd935e0bb60",
  "nextblockhash": "000000006ffee545991ce2eb1169a9654d689945febb9d3eb455950a6ae80f8d",
  "strippedsize": 215,
  "size": 215,
  "weight": 860,
  "tx": [
    {
      "txid": "8691b30fe990a34a6f8c67508be3f2d5ef92185d775f9816c0b2fa612982f4bc",
      "hash": "8691b30fe990a34a6f8c67508be3f2d5ef92185d775f9816c0b2fa612982f4bc",
      "version": 1,
      "size": 134,
      "vsize": 134,
      "weight": 536,
      "locktime": 0,
      "vin": [
        {
          "coinbase": "04ffff001d0110",
          "sequence": 4294967295
        }
      ],
      "vout": [
        {
          "value": 50.0,
          "n": 0,
          "scriptPubKey": {
            "asm": "04c76fd8a9d87daa45baf9ca2b56b6f213809ffec7c68e6735e58b38925158d34b44fae4ffa0ae6042673a2e1f84a95ab6f9f5c5dde16ae3e623077471ee323039 OP_CHECKSIG",
            "desc": "pk(04c76fd8a9d87daa45baf9ca2b56b6f213809ffec7c68e6735e58b38925158d34b44fae4ffa0ae6042673a2e1f84a95ab6f9f5c5dde16ae3e623077471ee323039)#9pnd8ua7",
            "hex": "4104c76fd8a9d87daa45baf9ca2b56b6f213809ffec7c68e6735e58b38925158d34b44fae4ffa0ae6042673a2e1f84a95ab6f9f5c5dde16ae3e623077471ee323039ac",
            "type": "pubkey"
          }
        }
      ],
      "hex": "01000000010000000000000000000000000000000000000000000000000000000000000000ffffffff0704ffff001d0110ffffffff0100f2052a01000000434104c76fd8a9d87daa45baf9ca2b56b6f213809ffec7c68e6735e58b38925158d34b44fae4ffa0ae6042673a2e1f84a95ab6f9f5c5dde16ae3e623077471ee323039ac00000000"
    }
  ]
}