{
  "hash": "00000000874d2d7346e90547a739390e5be3e7cfd367d0ee5f4ab515f89428d3",
  "confirmations": 50015,
  "height": 3083,
  "version": 1,
  "versionHex": "00000001",
  "merkleroot": "3a491ac788effc48b8e6fc8c8a28de6810ebec50d1c9a2c4b52df36352033cf8",
  "time": 1233820392,
  "mediantime": 1233816972,
  "nonce": 508532002,
  "bits": "1d00ffff",
  "difficulty": 1,
  "chainwork": "00000000000000000000000000000000000000000000000000000c0c0c0c0c0c",
  "nTx": 1,
  "previousblockhash": "00000000a0a3ceb93d4e40056addafae7fe7682ab61f78ba65b2c9a76fe02b78",
  "nextblockhash": "0000000097ae206cfe8db5a04816e5803bbfe58e3d400d4d1bb8994deac61707",
  "strippedsize": 216,
  "size": 216,
  "weight": 864,
  "tx": [
    {
      "txid": "3a491ac788effc48b8e6fc8c8a28de6810ebec50d1c9a2c4b52df36352033cf8",
      "hash": "3a491ac788effc48b8e6fc8c8a28de6810ebec50d1c9a2c4b52df36352033cf8",
      "version": 1,
      "size": 135,
      "vsize": 135,
      "weight": 540,
      "locktime": 0,
      "vin": [
        {
          "coinbase": "04ffff001d02f000",
          "sequence": 4294967295
        }
      ],
      "vout": [
        {
          "value": 50.0,
          "n": 0,
          "scriptPubKey": {
            "asm": "045a792ad068fd18e363ae4f2aa2f0d8570c604ad05fcae88f49bcb53afda8b5e942539afdc571a85b98d0bab3898bd8c3bcb8ba36c2932b4cd612da10275add59 OP_CHECKSIG",
            "desc": "pk(045a792ad068fd18e363ae4f2aa2f0d8570c604ad05fcae88f49bcb53afda8b5e942539afdc571a85b98d0bab3898bd8c3bcb8ba36c2932b4cd612da10275add59)#429f8rqm",
            "hex": "41045a792ad068fd18e363ae4f2aa2f0d8570c604ad05fcae88f49bcb53afda8b5e942539afdc571a85b98d0bab3898bd8c3bcb8ba36c2932b4cd612da10275add59ac",
            "type": "pubkey"
          }
        }
      ],
      "hex": "01000000010000000000000000000000000000000000000000000000000000000000000000ffffffff0804ffff001d02f000ffffffff0100f2052a010000004341045a792ad068fd18e363ae4f2aa2f0d8570c604ad05fcae88f49bcb53afda8b5e942539afdc571a85b98d0bab3898bd8c3bcb8ba36c2932b4cd612da10275add59ac00000000"
    }
  ]
}