{
  "hash": "00000000e6aa546c5c2d133d0a70924c5c903a1763848d515eaae55db60b71a2",
  "confirmations": 43827,
  "height": 9271,
  "version": 1,
  "versionHex": "00000001",
  "merkleroot": "20a96c4d00443d1b0af3189bcf063f729f814549ab37a03ac04e5feac0ee72b2",
  "time": 1238451697,
  "mediantime": 1238446980,
  "nonce": 1430449459,
  "bits": "1d00ffff",
  "difficulty": 1,
  "chainwork": "0000000000000000000000000000000000000000000000000000243824382438",
  "nTx": 1,
  "previousblockhash": "00000000a118e4a28b9aaca70cca6195f0ce0a5092325dbf32060c5c53d6ec33",
  "nextblockhash": "0000000011caa6252cffb17440512eac9fd127351cfeb0b5c73cc9919ba854ae",
  "strippedsize": 216,
  "size": 216,
  "weight": 864,
  "tx": [
    {
      "txid": "20a96c4d00443d1b0af3189bcf063f729f814549ab37a03ac04e5feac0ee72b2",
      "hash": "20a96c4d00443d1b0af3189bcf063f729f814549ab37a03ac04e5feac0ee72b2",
      "version": 1,
      "size": 135,
      "vsize": 135,
      "weight": 540,
      "locktime": 0,
      "vin": [
        {
          "coinbase": "04ffff001d024b01",
          "sequence": 4294967295
        }
      ],
      "vout": [
        {
          "value": 50.0,
          "n": 0,
          "scriptPubKey": {
            "asm": "04f79e1cfe2695cdda96900131332c95901eabf8e38e55c69f31292d66dbaf5edb52cedd2c925106c362029fcf1c5dcc60412d1f00dae4651067f28aa028c8bfc8 OP_CHECKSIG",
            "desc": "pk(04f79e1cfe2695cdda96900131332c95901eabf8e38e55c69f31292d66dbaf5edb52cedd2c925106c362029fcf1c5dcc60412d1f00dae4651067f28aa028c8bfc8)#x7cslu5w",
            "hex": "4104f79e1cfe2695cdda96900131332c95901eabf8e38e55c69f31292d66dbaf5edb52cedd2c925106c362029fcf1c5dcc60412d1f00dae4651067f28aa028c8bfc8ac",
            "type": "pubkey"
          }
        }
      ],
      "hex": "01000000010000000000000000000000000000000000000000000000000000000000000000ffffffff0804ffff001d024b01ffffffff0100f2052a01000000434104f79e1cfe2695cdda96900131332c95901eabf8e38e55c69f31292d66dbaf5edb52cedd2c925106c362029fcf1c5dcc60412d1f00dae4651067f28aa028c8bfc8ac00000000"
    }
  ]
}