{
  "hash": "00000000a1496d802a4a4074590ec34074b76a8ea6b81c1c9ad4192d3c2ea226",
  "confirmations": 51099,
  "height": 1999,
  "version": 1,
  "versionHex": "00000001",
  "merkleroot": "6f2b21a0d327f23462c5ef2aa0eaf916e4bc6e2730f5ae05e8492d1fe05f57c6",
  "time": 1233046339,
  "mediantime": 1233041720,
  "nonce": 2202629433,
  "bits": "1d00ffff",
  "difficulty": 1,
  "chainwork": "000000000000000000000000000000000000000000000000000007d007d007d0",
  "nTx": 1,
  "previousblockhash": "0000000062436dec026b8c8fcf9aea8554312de16d35888f05d2b41710850477",
  "nextblockhash": "00000000dfd5d65c9d8561b4b8f60a63018fe3933ecb131fb37f905f87da951a",
  "strippedsize": 216,
  "size": 216,
  "weight": 864,
  "tx": [
    {
      "txid": "6f2b21a0d327f23462c5ef2aa0eaf916e4bc6e2730f5ae05e8492d1fe05f57c6",
      "hash": "6f2b21a0d327f23462c5ef2aa0eaf916e4bc6e2730f5ae05e8492d1fe05f57c6",
      "version": 1,
      "size": 135,
      "vsize": 135,
      "weight": 540,
      "locktime": 0,
      "vin": [
        {
          "coinbase": "04ffff001d029701",
          "sequence": 4294967295
        }
      ],
      "vout": [
        {
          "value": 50.0,
          "n": 0,
          "scriptPubKey": {
            "asm": "04fb79c0e5893eed7801ad7c77be9dee532cf93c0f5753e9b51cd0758de648c0a70cae27f7ef0dd6284ef222647ae9820cabf12937342f5d6d62a3e542e464ac5a OP_CHECKSIG",
            "desc": "pk(04fb79c0e5893eed7801ad7c77be9dee532cf93c0f5753e9b51cd0758de648c0a70cae27f7ef0dd6284ef222647ae9820cabf12937342f5d6d62a3e542e464ac5a)#np7qwnuu",
            "hex": "4104fb79c0e5893eed7801ad7c77be9dee532cf93c0f5753e9b51cd0758de648c0a70cae27f7ef0dd6284ef222647ae9820cabf12937342f5d6d62a3e542e464ac5aac",
            "type": "pubkey"
          }
        }
      ],
      "hex": "01000000010000000000000000000000000000000000000000000000000000000000000000ffffffff0804ffff001d029701ffffffff0100f2052a01000000434104fb79c0e5893eed7801ad7c77be9dee532cf93c0f5753e9b51cd0758de648c0a70cae27f7ef0dd6284ef222647ae9820cabf12937342f5d6d62a3e542e464ac5aac00000000"
    }
  ]
}