{
  "hash": "0000000002dbc4c9438932dd99fc1ccc00868af1a864f4ec41766edd3fdad38a",
  "confirmations": 52198,
  "height": 423,
  "version": 1,
  "versionHex": "00000001",
  "merkleroot": "c46f7272714cc9b84d99795871b3a40e04fe0fcbca4ca1cc890c1724df965252",
  "time": 1231916533,
  "mediantime": 1231914025,
  "nonce": 1415531301,
  "bits": "1d00ffff",
  "difficulty": 1,
  "chainwork": "000000000000000000000000000000000000000000000000000001a801a801a8",
  "nTx": 1,
  "previousblockhash": "00000000e5712502949a46acaddb05b85428ea87f6756c67f6e99d4ee8ecb274",
  "nextblockhash": "00000000fbeefb043c0f27fc4a978e6a3600e90bed2f4c2de756c2a1c65cf544",
  "strippedsize": 216,
  "size": 216,
  "weight": 864,
  "tx": [
    {
      "txid": "c46f7272714cc9b84d99795871b3a40e04fe0fcbca4ca1cc890c1724df965252",
      "hash": "c46f7272714cc9b84d99795871b3a40e04fe0fcbca4ca1cc890c1724df965252",
      "version": 1,
      "size": 135,
      "vsize": 135,
      "weight": 540,
      "locktime": 0,
      "vin": [
        {
          "coinbase": "04ffff001d02f802",
          "sequence": 4294967295
        }
      ],
      "vout": [
        {
          "value": 50.0,
          "n": 0,
          "scriptPubKey": {
            "asm": "0465a8888630c7d6e5e3862d0fb7d74b00f67c28737b46a587cbc15b3fc3d28fd021af499e0f1bc4b0af408861aebf92566668b6d2c0c4966c26d6ef90e309a562 OP_CHECKSIG",
            "desc": "pk(0465a8888630c7d6e5e3862d0fb7d74b00f67c28737b46a587cbc15b3fc3d28fd021af499e0f1bc4b0af408861aebf92566668b6d2c0c4966c26d6ef90e309a562)#pdql9s6g",
            "hex": "410465a8888630c7d6e5e3862d0fb7d74b00f67c28737b46a587cbc15b3fc3d28fd021af499e0f1bc4b0af408861aebf92566668b6d2c0c4966c26d6ef90e309a562ac",
            "type": "pubkey"
          }
        }
      ],
      "hex": "01000000010000000000000000000000000000000000000000000000000000000000000000ffffffff0804ffff001d02f802ffffffff0100f2052a0100000043410465a8888630c7d6e5e3862d0fb7d74b00f67c28737b46a587cbc15b3fc3d28fd021af499e0f1bc4b0af408861aebf92566668b6d2c0c4966c26d6ef90e309a562ac00000000"
    }
  ]
}