{
  "hash": "00000000f79c2cfa2a60e4730626f58719a6aea20729cca0bcb09b720cfac6ad",
  "confirmations": 50670,
  "height": 2428,
  "version": 1,
  "versionHex": "00000001",
  "merkleroot": "c067b806a75e2d1f61b21bf6110088a6a0542431dd830ecbd31316d0c039526b",
  "time": 1233375387,
  "mediantime": 1233371264,
  "nonce": 935590709,
  "bits": "1d00ffff",
  "difficulty": 1,
  "chainwork": "0000000000000000000000000000000000000000000000000000097d097d097d",
  "nTx": 1,
  "previousblockhash": "0000000074772e648f80fcdfebe2d0b3ffc367881b1343127d22506f69d37a5f",
  "nextblockhash": "00000000080472b72cbbd0756553927e2260fa48c580ff4c011282974e74bf3d",
  "strippedsize": 215,
  "size": 215,
  "weight": 860,
  "tx": [
    {
      "txid": "c067b806a75e2d1f61b21bf6110088a6a0542431dd830ecbd31316d0c039526b",
      "hash": "c067b806a75e2d1f61b21bf6110088a6a0542431dd830ecbd31316d0c039526b",
      "version": 1,
      "size": 134,
      "vsize": 134,
      "weight": 536,
      "locktime": 0,
      "vin": [
        {
          "coinbase": "04ffff001d0132",
          "sequence": 4294967295
        }
      ],
      "vout": [
        {
          "value": 50.0,
          "n": 0,
          "scriptPubKey": {
            "asm": "0491da6891fbd6315f877a5ab851155938994c5982df8c974b3f4f8c6e5c099ffe2bd45b47ec458c4b667549e99e49c1b48dfdfe01557e5f1fbc9b0ad21fd37b33 OP_CHECKSIG",
            "desc": "pk(0491da6891fbd6315f877a5ab851155938994c5982df8c974b3f4f8c6e5c099ffe2bd45b47ec458c4b667549e99e49c1b48dfdfe01557e5f1fbc9b0ad21fd37b33)#ccnchy2n",
            "hex": "410491da6891fbd6315f877a5ab851155938994c5982df8c974b3f4f8c6e5c099ffe2bd45b47ec458c4b667549e99e49c1b48dfdfe01557e5f1fbc9b0ad21fd37b33ac",
            "type": "pubkey"
          }
        }
      ],
      "hex": "01000000010000000000000000000000000000000000000000000000000000000000000000ffffffff0704ffff001d0132ffffffff0100f2052a0100000043410491da6891fbd6315f877a5ab851155938994c5982df8c974b3f4f8c6e5c099ffe2bd45b47ec458c4b667549e99e49c1b48dfdfe01557e5f1fbc9b0ad21fd37b33ac00000000"
    }
  ]
}