{
  "hash": "00000000ebb275f3b11535da741eb34b8aa406bd9c0f18beb34108df58ac1d47",
  "confirmations": 44384,
  "height": 8714,
  "version": 1,
  "versionHex": "00000001",
  "merkleroot": "3e042120eb29dcfefd3c75d30083a8a94d05da0fd42096508774f74b478b98e9",
  "time": 1238032558,
  "mediantime": 1238029866,
  "nonce": 143663156,
  "bits": "1d00ffff",
  "difficulty": 1,
  "chainwork": "0000000000000000000000000000000000000000000000000000220b220b220b",
  "nTx": 1,
  "previousblockhash": "000000006d49cccf1a2e84eace24eb5096741fc6147e307d49a888077d6d5cb6",
  "nextblockhash": "00000000fe863e496bd8e05064ce2a35c01516b3bef59fa2f443343df51a7cda",
  "strippedsize": 216,
  "size": 216,
  "weight": 864,
  "tx": [
    {
      "txid": "3e042120eb29dcfefd3c75d30083a8a94d05da0fd42096508774f74b478b98e9",
      "hash": "3e042120eb29dcfefd3c75d30083a8a94d05da0fd42096508774f74b478b98e9",
      "version": 1,
      "size": 135,
      "vsize": 135,
      "weight": 540,
      "locktime": 0,
      "vin": [
        {
          "coinbase": "04ffff001d020e04",
          "sequence": 4294967295
        }
      ],
      "vout": [
        {
          "value": 50.0,
          "n": 0,
          "scriptPubKey": {
            "asm": "042e199621e835b4af6edf34e4f2b423495f21218815f3f793e12a3dd8a5e50910c27744e67ba0577b17c34b159a76b9db93af193271f17bdc97f6274ca57c0e43 OP_CHECKSIG",
            "desc": "pk(042e199621e835b4af6edf34e4f2b423495f21218815f3f793e12a3dd8a5e50910c27744e67ba0577b17c34b159a76b9db93af193271f17bdc97f6274ca57c0e43)#glusqj6w",
            "hex": "41042e199621e835b4af6edf34e4f2b423495f21218815f3f793e12a3dd8a5e50910c27744e67ba0577b17c34b159a76b9db93af193271f17bdc97f6274ca57c0e43ac",
            "type": "pubkey"
          }
        }
      ],
      "hex": "01000000010000000000000000000000000000000000000000000000000000000000000000ffffffff0804ffff001d020e04ffffffff0100f2052a010000004341042e199621e835b4af6edf34e4f2b423495f21218815f3f793e12a3dd8a5e50910c27744e67ba0577b17c34b159a76b9db93af193271f17bdc97f6274ca57c0e43ac00000000"
    }
  ]
}