{
  "hash": "000000007d429f95f1101da62d4513a0dca14d303a2a2c0957bd74a7efca8464",
  "confirmations": 45793,
  "height": 7305,
  "version": 1,
  "versionHex": "00000001",
  "merkleroot": "2ac4364033645f31d00fcec709c5626eaeedbd6afe8ebd29bc164efe5473c361",
  "time": 1236951761,
  "mediantime": 1236948776,
  "nonce": 2490095623,
  "bits": "1d00ffff",
  "difficulty": 1,
  "chainwork": "00000000000000000000000000000000000000000000000000001c8a1c8a1c8a",
  "nTx": 1,
  "previousblockhash": "00000000e22730660ba64d3c3f561082a159ec44f44a8057a37e20214379a163",
  "nextblockhash": "000000001a9c1eac0359894c6412fcd8148f1c57186b4fcd414c5f777d18c9d1",
  "strippedsize": 216,
  "size": 216,
  "weight": 864,
  "tx": [
    {
      "txid": "2ac4364033645f31d00fcec709c5626eaeedbd6afe8ebd29bc164efe5473c361",
      "hash": "2ac4364033645f31d00fcec709c5626eaeedbd6afe8ebd29bc164efe5473c361",
      "version": 1,
      "size": 135,
      "vsize": 135,
      "weight": 540,
      "locktime": 0,
      "vin": [
        {
          "coinbase": "04ffff001d02a707",
          "sequence": 4294967295
        }
      ],
      "vout": [
        {
          "value": 50.0,
          "n": 0,
          "scriptPubKey": {
            "asm": "041b67004bc1cda925521e2dff0fc252721e285d2d2e024fcd68bb5270fd16b973a7c4e163632a1798e1caa32dabd87a1a94b0435ecd730e3198126c3571beee5a OP_CHECKSIG",
            "desc": "pk(041b67004bc1cda925521e2dff0fc252721e285d2d2e024fcd68bb5270fd16b973a7c4e163632a1798e1caa32dabd87a1a94b0435ecd730e3198126c3571beee5a)#ygelq406",
            "hex": "41041b67004bc1cda925521e2dff0fc252721e285d2d2e024fcd68bb5270fd16b973a7c4e163632a1798e1caa32dabd87a1a94b0435ecd730e3198126c3571beee5aac",
            "type": "pubkey"
          }
        }
      ],
      "hex": "01000000010000000000000000000000000000000000000000000000000000000000000000ffffffff0804ffff001d02a707ffffffff0100f2052a010000004341041b67004bc1cda925521e2dff0fc252721e285d2d2e024fcd68bb5270fd16b973a7c4e163632a1798e1caa32dabd87a1a94b0435ecd730e3198126c3571beee5aac00000000"
    }
  ]
}