{
  "hash": "00000000dbf58781d0fdd7038ff072f3de382a4b31ccd24d88ab49d229931369",
  "confirmations": 47591,
  "height": 5507,
  "version": 1,
  "versionHex": "00000001",
  "merkleroot": "643e6dfc1096bfbe314e9aad6bb60642b6ea2bdc5c8292ef06a4219ae3102e4f",
  "time": 1235526867,
  "mediantime": 1235523922,
  "nonce": 1977033502,
  "bits": "1d00ffff",
  "difficulty": 1,
  "chainwork": "0000000000000000000000000000000000000000000000000000158415841584",
  "nTx": 1,
  "previousblockhash": "00000000a1ff4ad8ed1218089c0cac53b3c4061cf29adf760cf303c77622560b",
  "nextblockhash": "000000000b83cb62913e9a1fe957d8eaa2135c83cabb41abe781f4a89ef8bd43",
  "strippedsize": 216,
  "size": 216,
  "weight": 864,
  "tx": [
    {
      "txid": "643e6dfc1096bfbe314e9aad6bb60642b6ea2bdc5c8292ef06a4219ae3102e4f",
      "hash": "643e6dfc1096bfbe314e9aad6bb60642b6ea2bdc5c8292ef06a4219ae3102e4f",
      "version": 1,
      "size": 135,
      "vsize": 135,
      "weight": 540,
      "locktime": 0,
      "vin": [
        {
          "coinbase": "04ffff001d02b605",
          "sequence": 4294967295
        }
      ],
      "vout": [
        {
          "value": 50.0,
          "n": 0,
          "scriptPubKey": {
            "asm": "0405a179bbbcb5a49db3d57b73fb9e69484552103e851e123e1e78e64e45a674d350139c5525936aabcbbb2bd3c940e4a24994d5d3c9527f92e12e96a2285bc063 OP_CHECKSIG",
            "desc": "pk(0405a179bbbcb5a49db3d57b73fb9e69484552103e851e123e1e78e64e45a674d350139c5525936aabcbbb2bd3c940e4a24994d5d3c9527f92e12e96a2285bc063)#chzhv8qf",
            "hex": "410405a179bbbcb5a49db3d57b73fb9e69484552103e851e123e1e78e64e45a674d350139c5525936aabcbbb2bd3c940e4a24994d5d3c9527f92e12e96a2285bc063ac",
            "type": "pubkey"
          }
        }
      ],
      "hex": "01000000010000000000000000000000000000000000000000000000000000000000000000ffffffff0804ffff001d02b605ffffffff0100f2052a0100000043410405a179bbbcb5a49db3d57b73fb9e69484552103e851e123e1e78e64e45a674d350139c5525936aabcbbb2bd3c940e4a24994d5d3c9527f92e12e96a2285bc063ac00000000"
    }
  ]
}