{
  "hash": "0000000082c536679fb28b178a7fd2a0907a87d5cd498084c42d1272ba534ba0",
  "confirmations": 46001,
  "height": 7097,
  "version": 1,
  "versionHex": "00000001",
  "merkleroot": "92fd00fd0aa29d2441d01dfc2f1c8bfd76c90f3f16b571ef60e7caf5c81c9536",
  "time": 1236796286,
  "mediantime": 1236792275,
  "nonce": 29526804,
  "bits": "1d00ffff",
  "difficulty": 1,
  "chainwork": "00000000000000000000000000000000000000000000000000001bba1bba1bba",
  "nTx": 1,
  "previousblockhash": "000000009c14813e90cd2d44f5bc14995ce115a51d606709aaa70965e716a46b",
  "nextblockhash": "000000009fa9ff58fa778ddfc496b1c506e13db845fa1107e112c6321bdb1f24",
  "strippedsize": 215,
  "size": 215,
  "weight": 860,
  "tx": [
    {
      "txid": "92fd00fd0aa29d2441d01dfc2f1c8bfd76c90f3f16b571ef60e7caf5c81c9536",
      "hash": "92fd00fd0aa29d2441d01dfc2f1c8bfd76c90f3f16b571ef60e7caf5c81c9536",
      "version": 1,
      "size": 134,
      "vsize": 134,
      "weight": 536,
      "locktime": 0,
      "vin": [
        {
          "coinbase": "04ffff001d0130",
          "sequence": 4294967295
        }
      ],
      "vout": [
        {
          "value": 50.0,
          "n": 0,
          "scriptPubKey": {
            "asm": "0418ed603703acad103f7d6e111f8d66cb681a0eac3d29a9753caf89c0458f3afa01fd7ab8d7ebad907da7e19ce89354a01418b4f5c95529feb9486d53b856e34c OP_CHECKSIG",
            "desc": "pk(0418ed603703acad103f7d6e111f8d66cb681a0eac3d29a9753caf89c0458f3afa01fd7ab8d7ebad907da7e19ce89354a01418b4f5c95529feb9486d53b856e34c)#36jp9qy2",
            "hex": "410418ed603703acad103f7d6e111f8d66cb681a0eac3d29a9753caf89c0458f3afa01fd7ab8d7ebad907da7e19ce89354a01418b4f5c95529feb9486d53b856e34cac",
            "type": "pubkey"
          }
        }
      ],
      "hex": "01000000010000000000000000000000000000000000000000000000000000000000000000ffffffff0704ffff001d0130ffffffff0100f2052a0100000043410418ed603703acad103f7d6e111f8d66cb681a0eac3d29a9753caf89c0458f3afa01fd7ab8d7ebad907da7e19ce89354a01418b4f5c95529feb9486d53b856e34cac00000000"
    }
  ]
}