{
  "hash": "00000000ddaccd89104a83b0a28e1987a88d8f51829029cb7e18630e2575e939",
  "confirmations": 51905,
  "height": 69,
  "version": 1,
  "versionHex": "00000001",
  "merkleroot": "807822a80b4ed7b7dfbe560a79705c62a71e48be9dbcce152ab70f94b1eb4307",
  "time": 1231626979,
  "mediantime": 1231624107,
  "nonce": 3006540568,
  "bits": "1d00ffff",
  "difficulty": 1,
  "chainwork": "0000000000000000000000000000000000000000000000000000004600460046",
  "nTx": 1,
  "previousblockhash": "00000000bfafa874eff9ea7ec32c26499bd2580718daa33fb5dd7710db2c814c",
  "nextblockhash": "00000000ba63ae2eeb3d2371708291b90507c3317ef957f6fcba3811cc4fe0cc",
  "strippedsize": 216,
  "size": 216,
  "weight": 864,
  "tx": [
    {
      "txid": "807822a80b4ed7b7dfbe560a79705c62a71e48be9dbcce152ab70f94b1eb4307",
      "hash": "807822a80b4ed7b7dfbe560a79705c62a71e48be9dbcce152ab70f94b1eb4307",
      "version": 1,
      "size": 135,
      "vsize": 135,
      "weight": 540,
      "locktime": 0,
      "vin": [
        {
          "coinbase": "04ffff001d02b500",
          "sequence": 4294967295
        }
      ],
      "vout": [
        {
          "value": 50.0,
          "n": 0,
          "scriptPubKey": {
            "asm": "0443e7444ce6d177ed64331242f38feb451362b84f4ad5a0337b40022ade0fe1e5dbc923c6a5965fbf25a58561c5a28edec98d06e26c5c3c39000fe41a1325d004 OP_CHECKSIG",
            "desc": "pk(0443e7444ce6d177ed64331242f38feb451362b84f4ad5a0337b40022ade0fe1e5dbc923c6a5965fbf25a58561c5a28edec98d06e26c5c3c39000fe41a1325d004)#vnxaqw9c",
            "hex": "410443e7444ce6d177ed64331242f38feb451362b84f4ad5a0337b40022ade0fe1e5dbc923c6a5965fbf25a58561c5a28edec98d06e26c5c3c39000fe41a1325d004ac",
            "type": "pubkey"
          }
        }
      ],
      "hex": "01000000010000000000000000000000000000000000000000000000000000000000000000ffffffff0804ffff001d02b500ffffffff0100f2052a0100000043410443e7444ce6d177ed64331242f38feb451362b84f4ad5a0337b40022ade0fe1e5dbc923c6a5965fbf25a58561c5a28edec98d06e26c5c3c39000fe41a1325d004ac00000000"
    }
  ]
}