{
  "hash": "000000003446fc0e980057b14fdf1e4861a1508338e797eabaeaa04f31f6237d",
  "confirmations": 45362,
  "height": 7736,
  "version": 1,
  "versionHex": "00000001",
  "merkleroot": "016ef7ad14caff2afcd1add3c6be36cdd18ac7d5f3ce577cbd8cdccd565fa282",
  "time": 1237266141,
  "mediantime": 1237262497,
  "nonce": 11992932,
  "bits": "1d00ffff",
  "difficulty": 1,
  "chainwork": "00000000000000000000000000000000000000000000000000001e391e391e39",
  "nTx": 1,
  "previousblockhash": "00000000077aacf66d52b356e57edbcb25f9b8054bacf61324d83b0a34e83d1b",
  "nextblockhash": "0000000049c895affa3e39418d96ada14dd0852535efd9f2a49fa5c4a4067777",
  "strippedsize": 215,
  "size": 215,
  "weight": 860,
  "tx": [
    {
      "txid": "016ef7ad14caff2afcd1add3c6be36cdd18ac7d5f3ce577cbd8cdccd565fa282",
      "hash": "016ef7ad14caff2afcd1add3c6be36cdd18ac7d5f3ce577cbd8cdccd565fa282",
      "version": 1,
      "size": 134,
      "vsize": 134,
      "weight": 536,
      "locktime": 0,
      "vin": [
        {
          "coinbase": "04ffff001d0147",
          "sequence": 4294967295
        }
      ],
      "vout": [
        {
          "value": 50.0,
          "n": 0,
          "scriptPubKey": {
            "asm": "0454dfcc17bf73daeb4a01e900fed60c8a3041577d2cb37976362c3979e6d67da18a132cf2d31d7935484f57b44aef2e7c11deec6bc9d8969fca9fb9429ceeed6e OP_CHECKSIG",
            "desc": "pk(0454dfcc17bf73daeb4a01e900fed60c8a3041577d2cb37976362c3979e6d67da18a132cf2d31d7935484f57b44aef2e7c11deec6bc9d8969fca9fb9429ceeed6e)#czhrzr09",
            "hex": "410454dfcc17bf73daeb4a01e900fed60c8a3041577d2cb37976362c3979e6d67da18a132cf2d31d7935484f57b44aef2e7c11deec6bc9d8969fca9fb9429ceeed6eac",
            "type": "pubkey"
          }
        }
      ],
      "hex": "01000000010000000000000000000000000000000000000000000000000000000000000000ffffffff0704ffff001d0147ffffffff0100f2052a0100000043410454dfcc17bf73daeb4a01e900fed60c8a3041577d2cb37976362c3979e6d67da18a132cf2d31d7935484f57b44aef2e7c11deec6bc9d8969fca9fb9429ceeed6eac00000000"
    }
  ]
}