{
  "hash": "000000001eb87d7338980be3e902bcd13393cbe50d43dec5ed601c14c9bebdba",
  "confirmations": 50496,
  "height": 2602,
  "version": 1,
  "versionHex": "00000001",
  "merkleroot": "f2346b8411619512bdc196330f09cb0e90b97702cb845e8e3e7ba5c69c8f1ed1",
  "time": 1233496388,
  "mediantime": 1233493514,
  "nonce": 39628682,
  "bits": "1d00ffff",
  "difficulty": 1,
  "chainwork": "00000000000000000000000000000000000000000000000000000a2b0a2b0a2b",
  "nTx": 1,
  "previousblockhash": "000000001ef2ee83e0a9e851bae4530566ba9353e89a7f814cef7bb36fc99641",
  "nextblockhash": "000000005e1701c2667bb986891b280c9c1a6ac15d978a8ce2059a3155c97a76",
  "strippedsize": 216,
  "size": 216,
  "weight": 864,
  "tx": [
    {
      "txid": "f2346b8411619512bdc196330f09cb0e90b97702cb845e8e3e7ba5c69c8f1ed1",
      "hash": "f2346b8411619512bdc196330f09cb0e90b97702cb845e8e3e7ba5c69c8f1ed1",
      "version": 1,
      "size": 135,
      "vsize": 135,
      "weight": 540,
      "locktime": 0,
      "vin": [
        {
          "coinbase": "04ffff001d02a402",
          "sequence": 4294967295
        }
      ],
      "vout": [
        {
          "value": 50.0,
          "n": 0,
          "scriptPubKey": {
            "asm": "047a6c50e34facf9589448b7e8c224095ac137d1ca5cfc3c2f95c5e7eab3bc2d748da98a79b6aab0a4f3622542f76d18112ac8c80bfbb7ecd76cb1057f05c5a76b OP_CHECKSIG",
            "desc": "pk(047a6c50e34facf9589448b7e8c224095ac137d1ca5cfc3c2f95c5e7eab3bc2d748da98a79b6aab0a4f3622542f76d18112ac8c80bfbb7ecd76cb1057f05c5a76b)#ahv5msg7",
            "hex": "41047a6c50e34facf9589448b7e8c224095ac137d1ca5cfc3c2f95c5e7eab3bc2d748da98a79b6aab0a4f3622542f76d18112ac8c80bfbb7ecd76cb1057f05c5a76bac",
            "type": "pubkey"
          }
        }
      ],
      "hex": "01000000010000000000000000000000000000000000000000000000000000000000000000ffffffff0804ffff001d02a402ffffffff0100f2052a010000004341047a6c50e34facf9589448b7e8c224095ac137d1ca5cfc3c2f95c5e7eab3bc2d748da98a79b6aab0a4f3622542f76d18112ac8c80bfbb7ecd76cb1057f05c5a76bac00000000"
    }
  ]
}