{
  "hash": "00000000eefefddda4f86c29ec384785e4dd253f849b007a1f62f9191cc50c9f",
  "confirmations": 44918,
  "height": 8180,
  "version": 1,
  "versionHex": "00000001",
  "merkleroot": "44fd6ae032852697872a9608ec95f991a18801f190dab063641bbc473d14cce1",
  "time": 1237592618,
  "mediantime": 1237588855,
  "nonce": 1783878700,
  "bits": "1d00ffff",
  "difficulty": 1,
  "chainwork": "00000000000000000000000000000000000000000000000000001ff51ff51ff5",
  "nTx": 1,
  "previousblockhash": "00000000f351863005e8f240791c68ee047da2ff39be926ca5602e6daaef1368",
  "nextblockhash": "000000001b56d9a8c00a289e21ece608739e3804b3459b334abcbff31e8c3f5a",
  "strippedsize": 216,
  "size": 216,
  "weight": 864,
  "tx": [
    {
      "txid": "44fd6ae032852697872a9608ec95f991a18801f190dab063641bbc473d14cce1",
      "hash": "44fd6ae032852697872a9608ec95f991a18801f190dab063641bbc473d14cce1",
      "version": 1,
      "size": 135,
      "vsize": 135,
      "weight": 540,
      "locktime": 0,
      "vin": [
        {
          "coinbase": "04ffff001d02a502",
          "sequence": 4294967295
        }
      ],
      "vout": [
        {
          "value": 50.0,
          "n": 0,
          "scriptPubKey": {
            "asm": "047142f6d55f63286cb9c7056f3486a6953350ae3149e3e77a95b42dc703c3e65f3b496067ee396f83acaa20ad064728f74ab4bd1dc9cc816b91573444dd0fcf97 OP_CHECKSIG",
            "desc": "pk(047142f6d55f63286cb9c7056f3486a6953350ae3149e3e77a95b42dc703c3e65f3b496067ee396f83acaa20ad064728f74ab4bd1dc9cc816b91573444dd0fcf97)#n3vvv4ea",
            "hex": "41047142f6d55f63286cb9c7056f3486a6953350ae3149e3e77a95b42dc703c3e65f3b496067ee396f83acaa20ad064728f74ab4bd1dc9cc816b91573444dd0fcf97ac",
            "type": "pubkey"
          }
        }
      ],
      "hex": "01000000010000000000000000000000000000000000000000000000000000000000000000ffffffff0804ffff001d02a502ffffffff0100f2052a010000004341047142f6d55f63286cb9c7056f3486a6953350ae3149e3e77a95b42dc703c3e65f3b496067ee396f83acaa20ad064728f74ab4bd1dc9cc816b91573444dd0fcf97ac00000000"
    }
  ]
}