{
  "hash": "000000003881d7b41d383c4aff6ba9ac7770c20035277ce2f6c041d65eaa1595",
  "confirmations": 46820,
  "height": 6278,
  "version": 1,
  "versionHex": "00000001",
  "merkleroot": "57054dfb81e7bc3ba28d9ac08b7c93d6eb1d055b470a1c9cb30776beebd43d2e",
  "time": 1236153248,
  "mediantime": 1236149917,
  "nonce": 4008218912,
  "bits": "1d00ffff",
  "difficulty": 1,
  "chainwork": "0000000000000000000000000000000000000000000000000000188718871887",
  "nTx": 1,
  "previousblockhash": "000000001aa61392e330496cbc1a637e9254571f665ef6997ec35e8702a81e27",
  "nextblockhash": "00000000ecc53ceded013c7b0f7e0590b45d7a886bcdb98c53902af4ac888974",
  "strippedsize": 216,
  "size": 216,
  "weight": 864,
  "tx": [
    {
      "txid": "57054dfb81e7bc3ba28d9ac08b7c93d6eb1d055b470a1c9cb30776beebd43d2e",
      "hash": "57054dfb81e7bc3ba28d9ac08b7c93d6eb1d055b470a1c9cb30776beebd43d2e",
      "version": 1,
      "size": 135,
      "vsize": 135,
      "weight": 540,
      "locktime": 0,
      "vin": [
        {
          "coinbase": "04ffff001d02fb09",
          "sequence": 4294967295
        }
      ],
      "vout": [
        {
          "value": 50.0,
          "n": 0,
          "scriptPubKey": {
            "asm": "0431edd848f7d028f147f1764dce6b1932856f566943ca2327768128da53375fbc57ec55c47e76e007811df18d72b6346b50e28848b16a67367150bf35a7b55b43 OP_CHECKSIG",
            "desc": "pk(0431edd848f7d028f147f1764dce6b1932856f566943ca2327768128da53375fbc57ec55c47e76e007811df18d72b6346b50e28848b16a67367150bf35a7b55b43)#7y7pwvrq",
            "hex": "410431edd848f7d028f147f1764dce6b1932856f566943ca2327768128da53375fbc57ec55c47e76e007811df18d72b6346b50e28848b16a67367150bf35a7b55b43ac",
            "type": "pubkey"
          }
        }
      ],
      "hex": "01000000010000000000000000000000000000000000000000000000000000000000000000ffffffff0804ffff001d02fb09ffffffff0100f2052a0100000043410431edd848f7d028f147f1764dce6b1932856f566943ca2327768128da53375fbc57ec55c47e76e007811df18d72b6346b50e28848b16a67367150bf35a7b55b43ac00000000"
    }
  ]
}