{
  "hash": "00000000fe2e1eaa58d615582450869bc1b6dd5133a02d9323927dc925ce0a70",
  "confirmations": 46274,
  "height": 6824,
  "version": 1,
  "versionHex": "00000001",
  "merkleroot": "f0f418b0018d06461f7d89fb048bc4d06580c730dc2580372be138bc7d1236d1",
  "time": 1236575145,
  "mediantime": 1236570224,
  "nonce": 2318617601,
  "bits": "1d00ffff",
  "difficulty": 1,
  "chainwork": "00000000000000000000000000000000000000000000000000001aa91aa91aa9",
  "nTx": 1,
  "previousblockhash": "00000000830b0031a58f8460a73f0dfabcced1bdc0460133bbfed1cc69b7d731",
  "nextblockhash": "000000004298278bd4280f82e6118fa21d419c00de75578973f85a18ca0abbb7",
  "strippedsize": 216,
  "size": 216,
  "weight": 864,
  "tx": [
    {
      "txid": "f0f418b0018d06461f7d89fb048bc4d06580c730dc2580372be138bc7d1236d1",
      "hash": "f0f418b0018d06461f7d89fb048bc4d06580c730dc2580372be138bc7d1236d1",
      "version": 1,
      "size": 135,
      "vsize": 135,
      "weight": 540,
      "locktime": 0,
      "vin": [
        {
          "coinbase": "04ffff001d025909",
          "sequence": 4294967295
        }
      ],
      "vout": [
        {
          "value": 50.0,
          "n": 0,
          "scriptPubKey": {
            "asm": "04d640247ef07a9f5226829c881691003c4d144ec1dd27d5d2c7801913a2236228ddd76e2b638156a406a8a12195dd250ea761956c87c27eece54b6376ffeb241a OP_CHECKSIG",
            "desc": "pk(04d640247ef07a9f5226829c881691003c4d144ec1dd27d5d2c7801913a2236228ddd76e2b638156a406a8a12195dd250ea761956c87c27eece54b6376ffeb241a)#m9htnpah",
            "hex": "4104d640247ef07a9f5226829c881691003c4d144ec1dd27d5d2c7801913a2236228ddd76e2b638156a406a8a12195dd250ea761956c87c27eece54b6376ffeb241aac",
            "type": "pubkey"
          }
        }
      ],
      "hex": "01000000010000000000000000000000000000000000000000000000000000000000000000ffffffff0804ffff001d025909ffffffff0100f2052a01000000434104d640247ef07a9f5226829c881691003c4d144ec1dd27d5d2c7801913a2236228ddd76e2b638156a406a8a12195dd250ea761956c87c27eece54b6376ffeb241aac00000000"
    }
  ]
}