{
  "hash": "00000000a97fdbff5d06cd5625c809ff234baad1f2183d78122bb7272cbeeb5f",
  "confirmations": 48707,
  "height": 4391,
  "version": 1,
  "versionHex": "00000001",
  "merkleroot": "df0baa19bcdff364011212af52d303572b76b0a04bf071882e2f84d41f742944",
  "time": 1234705646,
  "mediantime": 1234701993,
  "nonce": 230206978,
  "bits": "1d00ffff",
  "difficulty": 1,
  "chainwork": "0000000000000000000000000000000000000000000000000000112811281128",
  "nTx": 1,
  "previousblockhash": "0000000030b563f66e16d5c2732e3f5bdfb097bcfba1c751718e3662893d5eee",
  "nextblockhash": "00000000a002486c05e5400e8c7806081fd384708a51fbbe8a1527c0aae872c0",
  "strippedsize": 216,
  "size": 216,
  "weight": 864,
  "tx": [
    {
      "txid": "df0baa19bcdff364011212af52d303572b76b0a04bf071882e2f84d41f742944",
      "hash": "df0baa19bcdff364011212af52d303572b76b0a04bf071882e2f84d41f742944",
      "version": 1,
      "size": 135,
      "vsize": 135,
      "weight": 540,
      "locktime": 0,
      "vin": [
        {
          "coinbase": "04ffff001d02bb09",
          "sequence": 4294967295
        }
      ],
      "vout": [
        {
          "value": 50.0,
          "n": 0,
          "scriptPubKey": {
            "asm": "04a2fc232fc1900de4c3a299e9deaf2fa5d83311a647aa6289c7b46cf0797292b571a1f6701ad487832062f6f556d498e3cd43d8bc4d09550929e22c958066472c OP_CHECKSIG",
            "desc": "pk(04a2fc232fc1900de4c3a299e9deaf2fa5d83311a647aa6289c7b46cf0797292b571a1f6701ad487832062f6f556d498e3cd43d8bc4d09550929e22c958066472c)#2rttat3a",
            "hex": "4104a2fc232fc1900de4c3a299e9deaf2fa5d83311a647aa6289c7b46cf0797292b571a1f6701ad487832062f6f556d498e3cd43d8bc4d09550929e22c958066472cac",
            "type": "pubkey"
          }
        }
      ],
      "hex": "01000000010000000000000000000000000000000000000000000000000000000000000000ffffffff0804ffff001d02bb09ffffffff0100f2052a01000000434104a2fc232fc1900de4c3a299e9deaf2fa5d83311a647aa6289c7b46cf0797292b571a1f6701ad487832062f6f556d498e3cd43d8bc4d09550929e22c958066472cac00000000"
    }
  ]
}