{
  "hash": "0000000046a4798ecce0245d7cadb0cf857639461582a7cebaffb064f7897012",
  "confirmations": 50024,
  "height": 3074,
  "version": 1,
  "versionHex": "00000001",
  "merkleroot": "8a44447762d2fe4b11e59f51798506da5281a3e381d684dd5c006fd80070de4f",
  "time": 1233813718,
  "mediantime": 1233808712,
  "nonce": 2039251242,
  "bits": "1d00ffff",
  "difficulty": 1,
  "chainwork": "00000000000000000000000000000000000000000000000000000c030c030c03",
  "nTx": 1,
  "previousblockhash": "0000000012f193e7e068070ffa7f2f8bc2262ca9db0c115a2bd210ad152e9f3f",
  "nextblockhash": "00000000135d526c5e8aaf9925bc6f523195862e18de359c4db66e39f01fbed0",
  "strippedsize": 216,
  "size": 216,
  "weight": 864,
  "tx": [
    {
      "txid": "8a44447762d2fe4b11e59f51798506da5281a3e381d684dd5c006fd80070de4f",
      "hash": "8a44447762d2fe4b11e59f51798506da5281a3e381d684dd5c006fd80070de4f",
      "version": 1,
      "size": 135,
      "vsize": 135,
      "weight": 540,
      "locktime": 0,
      "vin": [
        {
          "coinbase": "04ffff001d02c100",
          "sequence": 4294967295
        }
      ],
      "vout": [
        {
          "value": 50.0,
          "n": 0,
          "scriptPubKey": {
            "asm": "0491810c7e59098fb19333aea599b6b3fee27117a6fde6abdf123733bf7f1e85e227221a859a5c96f18b20ed2b2fac99379b7567d160db94ac4a9311c52d55881f OP_CHECKSIG",
            "desc": "pk(0491810c7e59098fb19333aea599b6b3fee27117a6fde6abdf123733bf7f1e85e227221a859a5c96f18b20ed2b2fac99379b7567d160db94ac4a9311c52d55881f)#96kgvceh",
            "hex": "410491810c7e59098fb19333aea599b6b3fee27117a6fde6abdf123733bf7f1e85e227221a859a5c96f18b20ed2b2fac99379b7567d160db94ac4a9311c52d55881fac",
            "type": "pubkey"
          }
        }
      ],
      "hex": "01000000010000000000000000000000000000000000000000000000000000000000000000ffffffff0804ffff001d02c100ffffffff0100f2052a0100000043410491810c7e59098fb19333aea599b6b3fee27117a6fde6abdf123733bf7f1e85e227221a859a5c96f18b20ed2b2fac99379b7567d160db94ac4a9311c52d55881fac00000000"
    }
  ]
}