{
  "hash": "0000000040073d53f6a78dd20709a045a2cc448a428f235740744e5b36bb8571",
  "confirmations": 47332,
  "height": 5766,
  "version": 1,
  "versionHex": "00000001",
  "merkleroot": "2fc6c241b6e4c30381db71d0a31c32c76a724affed4ba37d3e05d7ace999cd87",
  "time": 1235734827,
  "mediantime": 1235731465,
  "nonce": 1144655638,
  "bits": "1d00ffff",
  "difficulty": 1,
  "chainwork": "0000000000000000000000000000000000000000000000000000168716871687",
  "nTx": 1,
  "previousblockhash": "00000000d9de57f2fbf4bf5ce092006d73995586d89c45197752fcc4c1f07526",
  "nextblockhash": "000000001c5e1c8d9368ad6d4d7101a6176525856fd6aa81ca6b8b6ce25782a8",
  "strippedsize": 215,
  "size": 215,
  "weight": 860,
  "tx": [
    {
      "txid": "2fc6c241b6e4c30381db71d0a31c32c76a724affed4ba37d3e05d7ace999cd87",
      "hash": "2fc6c241b6e4c30381db71d0a31c32c76a724affed4ba37d3e05d7ace999cd87",
      "version": 1,
      "size": 134,
      "vsize": 134,
      "weight": 536,
      "locktime": 0,
      "vin": [
        {
          "coinbase": "04ffff001d013b",
          "sequence": 4294967295
        }
      ],
      "vout": [
        {
          "value": 50.0,
          "n": 0,
          "scriptPubKey": {
            "asm": "04ee4ac41b1a1dae77f9c8ff71bc723e40351035094507d737b7b0ba382cf79e034d5d6255c84a6ceb0bf286436f8f9b4258d6f48cb36a1a0e9965b025c9b25252 OP_CHECKSIG",
            "desc": "pk(04ee4ac41b1a1dae77f9c8ff71bc723e40351035094507d737b7b0ba382cf79e034d5d6255c84a6ceb0bf286436f8f9b4258d6f48cb36a1a0e9965b025c9b25252)#6fq7vr79",
            "hex": "4104ee4ac41b1a1dae77f9c8ff71bc723e40351035094507d737b7b0ba382cf79e034d5d6255c84a6ceb0bf286436f8f9b4258d6f48cb36a1a0e9965b025c9b25252ac",
            "type": "pubkey"
          }
        }
      ],
      "hex": "01000000010000000000000000000000000000000000000000000000000000000000000000ffffffff0704ffff001d013bffffffff0100f2052a01000000434104ee4ac41b1a1dae77f9c8ff71bc723e40351035094507d737b7b0ba382cf79e034d5d6255c84a6ceb0bf286436f8f9b4258d6f48cb36a1a0e9965b025c9b25252ac00000000"
    }
  ]
}