{
  "hash": "00000000174707e83cc0d60c0878037d536f67678e5d545995665de6403ccd92",
  "confirmations": 43774,
  "height": 9324,
  "version": 1,
  "versionHex": "00000001",
  "merkleroot": "b2fb0fde8b1a5c6ccbe79f3089336799b9319046d1fa52faf1716592724cf7f7",
  "time": 1238492099,
  "mediantime": 1238487917,
  "nonce": 1565784602,
  "bits": "1d00ffff",
  "difficulty": 1,
  "chainwork": "0000000000000000000000000000000000000000000000000000246d246d246d",
  "nTx": 1,
  "previousblockhash": "00000000a88719e11a80c259ccb094d96baed3c97bce37a9520831884a1b1db7",
  "nextblockhash": "000000007e0311199389a24ea5f110872900737957520ebd543cdbb0d27b85ea",
  "strippedsize": 216,
  "size": 216,
  "weight": 864,
  "tx": [
    {
      "txid": "b2fb0fde8b1a5c6ccbe79f3089336799b9319046d1fa52faf1716592724cf7f7",
      "hash": "b2fb0fde8b1a5c6ccbe79f3089336799b9319046d1fa52faf1716592724cf7f7",
      "version": 1,
      "size": 135,
      "vsize": 135,
      "weight": 540,
      "locktime": 0,
      "vin": [
        {
          "coinbase": "04ffff001d023602",
          "sequence": 4294967295
        }
      ],
      "vout": [
        {
          "value": 50.0,
          "n": 0,
          "scriptPubKey": {
            "asm": "04f19189f2da53dd93dfb37d4f69e9628d3432fe2fb47ebc2556f69ea23b3a3acd4dbf4524da5267c8733000e58f87335e62b33d67e72bbe9616cfd239e21db52c OP_CHECKSIG",
            "desc": "pk(04f19189f2da53dd93dfb37d4f69e9628d3432fe2fb47ebc2556f69ea23b3a3acd4dbf4524da5267c8733000e58f87335e62b33d67e72bbe9616cfd239e21db52c)#86fgqwkh",
            "hex": "4104f19189f2da53dd93dfb37d4f69e9628d3432fe2fb47ebc2556f69ea23b3a3acd4dbf4524da5267c8733000e58f87335e62b33d67e72bbe9616cfd239e21db52cac",
            "type": "pubkey"
          }
        }
      ],
      "hex": "01000000010000000000000000000000000000000000000000000000000000000000000000ffffffff0804ffff001d023602ffffffff0100f2052a01000000434104f19189f2da53dd93dfb37d4f69e9628d3432fe2fb47ebc2556f69ea23b3a3acd4dbf4524da5267c8733000e58f87335e62b33d67e72bbe9616cfd239e21db52cac00000000"
    }
  ]
}