{
  "hash": "00000000e5712502949a46acaddb05b85428ea87f6756c67f6e99d4ee8ecb274",
  "confirmations": 52199,
  "height": 422,
  "version": 1,
  "versionHex": "00000001",
  "merkleroot": "28b48a417b03e297982e310534950cd2c82e67703cd0040855df9b7902ea2689",
  "time": 1231915840,
  "mediantime": 1231913658,
  "nonce": 3852415008,
  "bits": "1d00ffff",
  "difficulty": 1,
  "chainwork": "000000000000000000000000000000000000000000000000000001a701a701a7",
  "nTx": 1,
  "previousblockhash": "00000000ae162df19a3451cefa33bc09a4a91b53e9bf103d57386158b798c71a",
  "nextblockhash": "0000000002dbc4c9438932dd99fc1ccc00868af1a864f4ec41766edd3fdad38a",
  "strippedsize": 216,
  "size": 216,
  "weight": 864,
  "tx": [
    {
      "txid": "28b48a417b03e297982e310534950cd2c82e67703cd0040855df9b7902ea2689",
      "hash": "28b48a417b03e297982e310534950cd2c82e67703cd0040855df9b7902ea2689",
      "version": 1,
      "size": 135,
      "vsize": 135,
      "weight": 540,
      "locktime": 0,
      "vin": [
        {
          "coinbase": "04ffff001d02ee02",
          "sequence": 4294967295
        }
      ],
      "vout": [
        {
          "value": 50.0,
          "n": 0,
          "scriptPubKey": {
            "asm": "0430b0a863d6f4bcc7825cfa723507a692f7462e4e5cb06c95903c958a10003f90252eef30cb527598267df1116ee3886f61e9b095d2f47f66e8d4d3212b8dab63 OP_CHECKSIG",
            "desc": "pk(0430b0a863d6f4bcc7825cfa723507a692f7462e4e5cb06c95903c958a10003f90252eef30cb527598267df1116ee3886f61e9b095d2f47f66e8d4d3212b8dab63)#q8yqlvmk",
            "hex": "410430b0a863d6f4bcc7825cfa723507a692f7462e4e5cb06c95903c958a10003f90252eef30cb527598267df1116ee3886f61e9b095d2f47f66e8d4d3212b8dab63ac",
            "type": "pubkey"
          }
        }
      ],
      "hex": "01000000010000000000000000000000000000000000000000000000000000000000000000ffffffff0804ffff001d02ee02ffffffff0100f2052a0100000043410430b0a863d6f4bcc7825cfa723507a692f7462e4e5cb06c95903c958a10003f90252eef30cb527598267df1116ee3886f61e9b095d2f47f66e8d4d3212b8dab63ac00000000"
    }
  ]
}