{
  "hash": "000000004af6b0d366a2c43803fd78afc3030c92b289dbd5d6adc90dd8a5cb6d",
  "confirmations": 51921,
  "height": 1177,
  "version": 1,
  "versionHex": "00000001",
  "merkleroot": "3ba33197791c3c6ead25af6ad8b82d72f69ba15ac778404d2f556a9a7f774c82",
  "time": 1232483653,
  "mediantime": 1232478569,
  "nonce": 2376995867,
  "bits": "1d00ffff",
  "difficulty": 1,
  "chainwork": "0000000000000000000000000000000000000000000000000000049a049a049a",
  "nTx": 1,
  "previousblockhash": "000000006cac1e42db9bf5d95270e2c6d6295acd34613fd90b963acb270dfbf4",
  "nextblockhash": "000000001dadba6436fa436499143753ccaa635dbb3da592e11907be63f6af8b",
  "strippedsize": 216,
  "size": 216,
  "weight": 864,
  "tx": [
    {
      "txid": "3ba33197791c3c6ead25af6ad8b82d72f69ba15ac778404d2f556a9a7f774c82",
      "hash": "3ba33197791c3c6ead25af6ad8b82d72f69ba15ac778404d2f556a9a7f774c82",
      "version": 1,
      "size": 135,
      "vsize": 135,
      "weight": 540,
      "locktime": 0,
      "vin": [
        {
          "coinbase": "04ffff001d024808",
          "sequence": 4294967295
        }
      ],
      "vout": [
        {
          "value": 50.0,
          "n": 0,
          "scriptPubKey": {
            "asm": "04b4bcb11219a5a25cd7cc9f7a741831c315c876d803275f573c6147df51702e34fbf0730a37f72e61d9474877cad3b453767e7f88b61a70df22c368824213a3a3 OP_CHECKSIG",
            "desc": "pk(04b4bcb11219a5a25cd7cc9f7a741831c315c876d803275f573c6147df51702e34fbf0730a37f72e61d9474877cad3b453767e7f88b61a70df22c368824213a3a3)#x3zgth5r",
            "hex": "4104b4bcb11219a5a25cd7cc9f7a741831c315c876d803275f573c6147df51702e34fbf0730a37f72e61d9474877cad3b453767e7f88b61a70df22c368824213a3a3ac",
            "type": "pubkey"
          }
        }
      ],
      "hex": "01000000010000000000000000000000000000000000000000000000000000000000000000ffffffff0804ffff001d024808ffffffff0100f2052a01000000434104b4bcb11219a5a25cd7cc9f7a741831c315c876d803275f573c6147df51702e34fbf0730a37f72e61d9474877cad3b453767e7f88b61a70df22c368824213a3a3ac00000000"
    }
  ]
}