{
  "hash": "00000000fbbbd10e3360054637a55889bb0ba3b7a966d6b3c4c4879c30fc6f48",
  "confirmations": 44712,
  "height": 8386,
  "version": 1,
  "versionHex": "00000001",
  "merkleroot": "a8d05212255a2f1120129f0480f46da7f98f069bb80746cd8a7e0a59f626043a",
  "time": 1237791134,
  "mediantime": 1237787540,
  "nonce": 764588849,
  "bits": "1d00ffff",
  "difficulty": 1,
  "chainwork": "000000000000000000000000000000000000000000000000000020c320c320c3",
  "nTx": 1,
  "previousblockhash": "00000000a14f239cdc6a14fb064456fc7d6795201d7d3527909183540a19a530",
  "nextblockhash": "000000000c31c5502da4986ba32ad1958064a92f53b2b02d27f3d262e22e64d9",
  "strippedsize": 216,
  "size": 216,
  "weight": 864,
  "tx": [
    {
      "txid": "a8d05212255a2f1120129f0480f46da7f98f069bb80746cd8a7e0a59f626043a",
      "hash": "a8d05212255a2f1120129f0480f46da7f98f069bb80746cd8a7e0a59f626043a",
      "version": 1,
      "size": 135,
      "vsize": 135,
      "weight": 540,
      "locktime": 0,
      "vin": [
        {
          "coinbase": "04ffff001d02a705",
          "sequence": 4294967295
        }
      ],
      "vout": [
        {
          "value": 50.0,
          "n": 0,
          "scriptPubKey": {
            "asm": "04f3227ccbbca54e961ae417ef0aca7598cebd22db57f5f68256edf98840f3f7e497864fe31520979cc8b64e145ec74d2890b2b2c399c4a383d5189a1d397d84d3 OP_CHECKSIG",
            "desc": "pk(04f3227ccbbca54e961ae417ef0aca7598cebd22db57f5f68256edf98840f3f7e497864fe31520979cc8b64e145ec74d2890b2b2c399c4a383d5189a1d397d84d3)#zzwy5szm",
            "hex": "4104f3227ccbbca54e961ae417ef0aca7598cebd22db57f5f68256edf98840f3f7e497864fe31520979cc8b64e145ec74d2890b2b2c399c4a383d5189a1d397d84d3ac",
            "type": "pubkey"
          }
        }
      ],
      "hex": "01000000010000000000000000000000000000000000000000000000000000000000000000ffffffff0804ffff001d02a705ffffffff0100f2052a01000000434104f3227ccbbca54e961ae417ef0aca7598cebd22db57f5f68256edf98840f3f7e497864fe31520979cc8b64e145ec74d2890b2b2c399c4a383d5189a1d397d84d3ac00000000"
    }
  ]
}