{
  "hash": "00000000e7f89d2ee842c8be0fabdcfb16fd633a27d2033c1e8afde8251f1381",
  "confirmations": 51886,
  "height": 1212,
  "version": 1,
  "versionHex": "00000001",
  "merkleroot": "eb9e16e63d83fd7d8735a64ff8e72eda3571c709a6d772f72b71e4e6254e5050",
  "time": 1232510363,
  "mediantime": 1232505800,
  "nonce": 3920928003,
  "bits": "1d00ffff",
  "difficulty": 1,
  "chainwork": "000000000000000000000000000000000000000000000000000004bd04bd04bd",
  "nTx": 1,
  "previousblockhash": "00000000780466fcb330e60ac640806c8db5a9fce4f16b8ec04b774347a15117",
  "nextblockhash": "00000000b14eba5b24c1319db46116b447984fccb0ae5409ad42839dd8cb6a73",
  "strippedsize": 216,
  "size": 216,
  "weight": 864,
  "tx": [
    {
      "txid": "eb9e16e63d83fd7d8735a64ff8e72eda3571c709a6d772f72b71e4e6254e5050",
      "hash": "eb9e16e63d83fd7d8735a64ff8e72eda3571c709a6d772f72b71e4e6254e5050",
      "version": 1,
      "size": 135,
      "vsize": 135,
      "weight": 540,
      "locktime": 0,
      "vin": [
        {
          "coinbase": "04ffff001d02d608",
          "sequence": 4294967295
        }
      ],
      "vout": [
        {
          "value": 50.0,
          "n": 0,
          "scriptPubKey": {
            "asm": "049952bf66b19aad8aeda7bdfb469b667c06b474af06c2d9ea4fbe532b879ff660fc3611e28926e2c4491557e61800b4531b2fe86156d50a4656f276d18272c067 OP_CHECKSIG",
            "desc": "pk(049952bf66b19aad8aeda7bdfb469b667c06b474af06c2d9ea4fbe532b879ff660fc3611e28926e2c4491557e61800b4531b2fe86156d50a4656f276d18272c067)#dj0sqexr",
            "hex": "41049952bf66b19aad8aeda7bdfb469b667c06b474af06c2d9ea4fbe532b879ff660fc3611e28926e2c4491557e61800b4531b2fe86156d50a4656f276d18272c067ac",
            "type": "pubkey"
          }
        }
      ],
      "hex": "01000000010000000000000000000000000000000000000000000000000000000000000000ffffffff0804ffff001d02d608ffffffff0100f2052a010000004341049952bf66b19aad8aeda7bdfb469b667c06b474af06c2d9ea4fbe532b879ff660fc3611e28926e2c4491557e61800b4531b2fe86156d50a4656f276d18272c067ac00000000"
    }
  ]
}