{
  "hash": "000000009d4bbe1d70cd2b29800236b8cfa5d042ff46a83b0fb1549931c215fc",
  "confirmations": 43456,
  "height": 9642,
  "version": 1,
  "versionHex": "00000001",
  "merkleroot": "2e2736087b6971e0dea95856ece4f0f3829a4cedf8109f78853c10e8d086810f",
  "time": 1238733267,
  "mediantime": 1238730366,
  "nonce": 2516277280,
  "bits": "1d00ffff",
  "difficulty": 1,
  "chainwork": "000000000000000000000000000000000000000000000000000025ab25ab25ab",
  "nTx": 1,
  "previousblockhash": "00000000cab9c4794d97a881216c8c23035bb594b31aa9061e57a6c37877d60b",
  "nextblockhash": "000000003b2609ae9985061b1d703b9fa1e9bb21e3ae9a73c893a5b8e42223a2",
  "strippedsize": 216,
  "size": 216,
  "weight": 864,
  "tx": [
    {
      "txid": "2e2736087b6971e0dea95856ece4f0f3829a4cedf8109f78853c10e8d086810f",
      "hash": "2e2736087b6971e0dea95856ece4f0f3829a4cedf8109f78853c10e8d086810f",
      "version": 1,
      "size": 135,
      "vsize": 135,
      "weight": 540,
      "locktime": 0,
      "vin": [
        {
          "coinbase": "04ffff001d029907",
          "sequence": 4294967295
        }
      ],
      "vout": [
        {
          "value": 50.0,
          "n": 0,
          "scriptPubKey": {
            "asm": "048442d9399b6b8c5be05c35978930e32129c82cd2124fab8368ec78d44ef7621371db2eb8d82b9190f38366220cfa2d1f0175a0e85950233845c4010b39370ae9 OP_CHECKSIG",
            "desc": "pk(048442d9399b6b8c5be05c35978930e32129c82cd2124fab8368ec78d44ef7621371db2eb8d82b9190f38366220cfa2d1f0175a0e85950233845c4010b39370ae9)#hkf27dqs",
            "hex": "41048442d9399b6b8c5be05c35978930e32129c82cd2124fab8368ec78d44ef7621371db2eb8d82b9190f38366220cfa2d1f0175a0e85950233845c4010b39370ae9ac",
            "type": "pubkey"
          }
        }
      ],
      "hex": "01000000010000000000000000000000000000000000000000000000000000000000000000ffffffff0804ffff001d029907ffffffff0100f2052a010000004341048442d9399b6b8c5be05c35978930e32129c82cd2124fab8368ec78d44ef7621371db2eb8d82b9190f38366220cfa2d1f0175a0e85950233845c4010b39370ae9ac00000000"
    }
  ]
}