{
  "hash": "00000000199e6a13bd80b16f0b889cb8a19a0b379f3f0827cca43694fe689b8f",
  "confirmations": 48459,
  "height": 4639,
  "version": 1,
  "versionHex": "00000001",
  "merkleroot": "4bf7209b7f6a091ae517ce9747d190ea193a331ced6aff4cb9a1c2fb5894b77b",
  "time": 1234883155,
  "mediantime": 1234879329,
  "nonce": 1431791657,
  "bits": "1d00ffff",
  "difficulty": 1,
  "chainwork": "0000000000000000000000000000000000000000000000000000122012201220",
  "nTx": 1,
  "previousblockhash": "000000004247d8088fd1d7c393982cfd579c44a19cd54464be2dea09f9ee3d6d",
  "nextblockhash": "0000000066df0453a5339026e5a01e34ee92bf9a59ad784669e2da00e685c293",
  "strippedsize": 216,
  "size": 216,
  "weight": 864,
  "tx": [
    {
      "txid": "4bf7209b7f6a091ae517ce9747d190ea193a331ced6aff4cb9a1c2fb5894b77b",
      "hash": "4bf7209b7f6a091ae517ce9747d190ea193a331ced6aff4cb9a1c2fb5894b77b",
      "version": 1,
      "size": 135,
      "vsize": 135,
      "weight": 540,
      "locktime": 0,
      "vin": [
        {
          "coinbase": "04ffff001d027001",
          "sequence": 4294967295
        }
      ],
      "vout": [
        {
          "value": 50.0,
          "n": 0,
          "scriptPubKey": {
            "asm": "0421594682f4db1ad8688a47bca13cfa63b68f616821efc90ff7aa640e315bebda4c9d87d0bd3f98e3d34a12b15ab59b3b917ec548f9e7f110d17b04b18a017deb OP_CHECKSIG",
            "desc": "pk(0421594682f4db1ad8688a47bca13cfa63b68f616821efc90ff7aa640e315bebda4c9d87d0bd3f98e3d34a12b15ab59b3b917ec548f9e7f110d17b04b18a017deb)#dxfhgzfn",
            "hex": "410421594682f4db1ad8688a47bca13cfa63b68f616821efc90ff7aa640e315bebda4c9d87d0bd3f98e3d34a12b15ab59b3b917ec548f9e7f110d17b04b18a017debac",
            "type": "pubkey"
          }
        }
      ],
      "hex": "01000000010000000000000000000000000000000000000000000000000000000000000000ffffffff0804ffff001d027001ffffffff0100f2052a0100000043410421594682f4db1ad8688a47bca13cfa63b68f616821efc90ff7aa640e315bebda4c9d87d0bd3f98e3d34a12b15ab59b3b917ec548f9e7f110d17b04b18a017debac00000000"
    }
  ]
}