{
  "hash": "00000000943ba7339120b1825aac5f04c1d3b353841168b3fe9c2bd088416a21",
  "confirmations": 47903,
  "height": 5195,
  "version": 1,
  "versionHex": "00000001",
  "merkleroot": "bec148c1374d4f1e388ba485670c66224641e70dd9f55dc0279c3e31ee3b1299",
  "time": 1235283713,
  "mediantime": 1235279913,
  "nonce": 1706694656,
  "bits": "1d00ffff",
  "difficulty": 1,
  "chainwork": "0000000000000000000000000000000000000000000000000000144c144c144c",
  "nTx": 1,
  "previousblockhash": "00000000979acfde1a0429e84cc740ffe1ff9881c7bed2bc5ca886faa7368e07",
  "nextblockhash": "00000000b2a680fb402a48739d1ed3e729cae7e391595ab6750546ec76bafa3c",
  "strippedsize": 216,
  "size": 216,
  "weight": 864,
  "tx": [
    {
      "txid": "bec148c1374d4f1e388ba485670c66224641e70dd9f55dc0279c3e31ee3b1299",
      "hash": "bec148c1374d4f1e388ba485670c66224641e70dd9f55dc0279c3e31ee3b1299",
      "version": 1,
      "size": 135,
      "vsize": 135,
      "weight": 540,
      "locktime": 0,
      "vin": [
        {
          "coinbase": "04ffff001d028300",
          "sequence": 4294967295
        }
      ],
      "vout": [
        {
          "value": 50.0,
          "n": 0,
          "scriptPubKey": {
            "asm": "044828842ab0d44815f8a412124ef771d56e5c341b1f4d8977704b00485cdb0a03e2c0b5da35b4431c69102560832928f021cda04b8eb6f8336a040885fc09a73d OP_CHECKSIG",
            "desc": "pk(044828842ab0d44815f8a412124ef771d56e5c341b1f4d8977704b00485cdb0a03e2c0b5da35b4431c69102560832928f021cda04b8eb6f8336a040885fc09a73d)#4nkqrqzr",
            "hex": "41044828842ab0d44815f8a412124ef771d56e5c341b1f4d8977704b00485cdb0a03e2c0b5da35b4431c69102560832928f021cda04b8eb6f8336a040885fc09a73dac",
            "type": "pubkey"
          }
        }
      ],
      "hex": "01000000010000000000000000000000000000000000000000000000000000000000000000ffffffff0804ffff001d028300ffffffff0100f2052a010000004341044828842ab0d44815f8a412124ef771d56e5c341b1f4d8977704b00485cdb0a03e2c0b5da35b4431c69102560832928f021cda04b8eb6f8336a040885fc09a73dac00000000"
    }
  ]
}