{
  "hash": "00000000d17eb0d926689a019cc34c8590505655d3e64a5b9a4b58143decf183",
  "confirmations": 51059,
  "height": 2039,
  "version": 1,
  "versionHex": "00000001",
  "merkleroot": "4b46ca82e1e5d156f505a7003478c29d3fdf90ec0e1e7e9019e545087fe10900",
  "time": 1233082787,
  "mediantime": 1233079177,
  "nonce": 2529986093,
  "bits": "1d00ffff",
  "difficulty": 1,
  "chainwork": "000000000000000000000000000000000000000000000000000007f807f807f8",
  "nTx": 1,
  "previousblockhash": "000000003ba309b2c952b348063e6238f6a867727baae6951a6fd87bf363a5a5",
  "nextblockhash": "00000000d4df6eb7089e80d84e4b22d144a901dd63162af435f742c319b025bb",
  "strippedsize": 216,
  "size": 216,
  "weight": 864,
  "tx": [
    {
      "txid": "4b46ca82e1e5d156f505a7003478c29d3fdf90ec0e1e7e9019e545087fe10900",
      "hash": "4b46ca82e1e5d156f505a7003478c29d3fdf90ec0e1e7e9019e545087fe10900",
      "version": 1,
      "size": 135,
      "vsize": 135,
      "weight": 540,
      "locktime": 0,
      "vin": [
        {
          "coinbase": "04ffff001d028002",
          "sequence": 4294967295
        }
      ],
      "vout": [
        {
          "value": 50.0,
          "n": 0,
          "scriptPubKey": {
            "asm": "04ba3f89b5b9a9d3e8ccc43a0cf45a8dcb4664d84433763a3d968e79d7f98d33de184bcef90b02dd0ead7e863e6a2d4c29970d90623f05f7008e468bb0750252c6 OP_CHECKSIG",
            "desc": "pk(04ba3f89b5b9a9d3e8ccc43a0cf45a8dcb4664d84433763a3d968e79d7f98d33de184bcef90b02dd0ead7e863e6a2d4c29970d90623f05f7008e468bb0750252c6)#c02v8rpu",
            "hex": "4104ba3f89b5b9a9d3e8ccc43a0cf45a8dcb4664d84433763a3d968e79d7f98d33de184bcef90b02dd0ead7e863e6a2d4c29970d90623f05f7008e468bb0750252c6ac",
            "type": "pubkey"
          }
        }
      ],
      "hex": "01000000010000000000000000000000000000000000000000000000000000000000000000ffffffff0804ffff001d028002ffffffff0100f2052a01000000434104ba3f89b5b9a9d3e8ccc43a0cf45a8dcb4664d84433763a3d968e79d7f98d33de184bcef90b02dd0ead7e863e6a2d4c29970d90623f05f7008e468bb0750252c6ac00000000"
    }
  ]
}