{
  "hash": "00000000df15291171af022473586e7b54cf9f7939b2ddd7b2d3b41a45fdbda3",
  "confirmations": 44349,
  "height": 8749,
  "version": 1,
  "versionHex": "00000001",
  "merkleroot": "40132eed7554cb4f5b447b196ebc58bc624f86deb71efa419c21f0e389f7fe52",
  "time": 1238059420,
  "mediantime": 1238055095,
  "nonce": 1769266220,
  "bits": "1d00ffff",
  "difficulty": 1,
  "chainwork": "0000000000000000000000000000000000000000000000000000222e222e222e",
  "nTx": 1,
  "previousblockhash": "0000000059eed08422d7b33151fb4fe2a9fbe2f5d7d1f46cf34413aa1f774225",
  "nextblockhash": "00000000ffcb592e42740b24ff659f3f2e5d938175fe918e7ef46efa6b86e36d",
  "strippedsize": 216,
  "size": 216,
  "weight": 864,
  "tx": [
    {
      "txid": "40132eed7554cb4f5b447b196ebc58bc624f86deb71efa419c21f0e389f7fe52",
      "hash": "40132eed7554cb4f5b447b196ebc58bc624f86deb71efa419c21f0e389f7fe52",
      "version": 1,
      "size": 135,
      "vsize": 135,
      "weight": 540,
      "locktime": 0,
      "vin": [
        {
          "coinbase": "04ffff001d02be01",
          "sequence": 4294967295
        }
      ],
      "vout": [
        {
          "value": 50.0,
          "n": 0,
          "scriptPubKey": {
            "asm": "04a2796583161abf1f195551fb6aff48808c9c1eb904fde23252ef1b96cbb55dd5e6fcdd2726eebec853a7d5ac9ea777b41dc11fb5a1e482ee9db14d8845ec315b OP_CHECKSIG",
            "desc": "pk(04a2796583161abf1f195551fb6aff48808c9c1eb904fde23252ef1b96cbb55dd5e6fcdd2726eebec853a7d5ac9ea777b41dc11fb5a1e482ee9db14d8845ec315b)#8qh6dgyl",
            "hex": "4104a2796583161abf1f195551fb6aff48808c9c1eb904fde23252ef1b96cbb55dd5e6fcdd2726eebec853a7d5ac9ea777b41dc11fb5a1e482ee9db14d8845ec315bac",
            "type": "pubkey"
          }
        }
      ],
      "hex": "01000000010000000000000000000000000000000000000000000000000000000000000000ffffffff0804ffff001d02be01ffffffff0100f2052a01000000434104a2796583161abf1f195551fb6aff48808c9c1eb904fde23252ef1b96cbb55dd5e6fcdd2726eebec853a7d5ac9ea777b41dc11fb5a1e482ee9db14d8845ec315bac00000000"
    }
  ]
}