{
  "hash": "00000000aabde39b81be3d18ddb1e925e3990f6c0f011e6ee6bdccf52ba32531",
  "confirmations": 47997,
  "height": 5101,
  "version": 1,
  "versionHex": "00000001",
  "merkleroot": "bd621dbcb01c34f49f50e4ef1059a8b0e79a662a4736f15348d4d4a721703b38",
  "time": 1235217470,
  "mediantime": 1235213899,
  "nonce": 133242647,
  "bits": "1d00ffff",
  "difficulty": 1,
  "chainwork": "000000000000000000000000000000000000000000000000000013ee13ee13ee",
  "nTx": 1,
  "previousblockhash": "000000006280c0aba2c1776df0eee0b1f6a773e4d47ae78ee134bcb6ed21bbb4",
  "nextblockhash": "00000000ce1821664f777cd39b9bb5ca4a56746740df26342344c052fec8ca6a",
  "strippedsize": 216,
  "size": 216,
  "weight": 864,
  "tx": [
    {
      "txid": "bd621dbcb01c34f49f50e4ef1059a8b0e79a662a4736f15348d4d4a721703b38",
      "hash": "bd621dbcb01c34f49f50e4ef1059a8b0e79a662a4736f15348d4d4a721703b38",
      "version": 1,
      "size": 135,
      "vsize": 135,
      "weight": 540,
      "locktime": 0,
      "vin": [
        {
          "coinbase": "04ffff001d02fd08",
          "sequence": 4294967295
        }
      ],
      "vout": [
        {
          "value": 50.0,
          "n": 0,
          "scriptPubKey": {
            "asm": "043f66477167160863272ddb5fe1d44ef9dc0a1c4368d05001ee094998086e6a712a3c732c52314d11964c629e34352f83572532cb4796e80487e8b10fa20ecaf3 OP_CHECKSIG",
            "desc": "pk(043f66477167160863272ddb5fe1d44ef9dc0a1c4368d05001ee094998086e6a712a3c732c52314d11964c629e34352f83572532cb4796e80487e8b10fa20ecaf3)#n8ppc7pr",
            "hex": "41043f66477167160863272ddb5fe1d44ef9dc0a1c4368d05001ee094998086e6a712a3c732c52314d11964c629e34352f83572532cb4796e80487e8b10fa20ecaf3ac",
            "type": "pubkey"
          }
        }
      ],
      "hex": "01000000010000000000000000000000000000000000000000000000000000000000000000ffffffff0804ffff001d02fd08ffffffff0100f2052a010000004341043f66477167160863272ddb5fe1d44ef9dc0a1c4368d05001ee094998086e6a712a3c732c52314d11964c629e34352f83572532cb4796e80487e8b10fa20ecaf3ac00000000"
    }
  ]
}