{
  "hash": "000000001ee5a7a841a87b59245aa36f03b5d7d3d43963d0f2bf76f3d1fc2172",
  "confirmations": 52028,
  "height": 203,
  "version": 1,
  "versionHex": "00000001",
  "merkleroot": "1c3b9c8a47f3f6f29a1580df8478cfc692c5a2f6ba3bcbe0f9251f32170fd665",
  "time": 1231756296,
  "mediantime": 1231752161,
  "nonce": 1469397546,
  "bits": "1d00ffff",
  "difficulty": 1,
  "chainwork": "000000000000000000000000000000000000000000000000000000cc00cc00cc",
  "nTx": 1,
  "previousblockhash": "0000000009c730652f9bacbf750723245979b5978dd8332fb3581a90c3a5bda8",
  "nextblockhash": "000000009e50091c12aa8dc002a193522a5781a1a526ea96c77fb14f75aac9cf",
  "strippedsize": 215,
  "size": 215,
  "weight": 860,
  "tx": [
    {
      "txid": "1c3b9c8a47f3f6f29a1580df8478cfc692c5a2f6ba3bcbe0f9251f32170fd665",
      "hash": "1c3b9c8a47f3f6f29a1580df8478cfc692c5a2f6ba3bcbe0f9251f32170fd665",
      "version": 1,
      "size": 134,
      "vsize": 134,
      "weight": 536,
      "locktime": 0,
      "vin": [
        {
          "coinbase": "04ffff001d0144",
          "sequence": 4294967295
        }
      ],
      "vout": [
        {
          "value": 50.0,
          "n": 0,
          "scriptPubKey": {
            "asm": "046a48e797022dbf0a9222fe72fee2e19e99af1c5023a9e773df3703450aae5a45ab7087283d58930b3a34c68ca9e95793ff3e41bf47131d7b80753119cb0186bb OP_CHECKSIG",
            "desc": "pk(046a48e797022dbf0a9222fe72fee2e19e99af1c5023a9e773df3703450aae5a45ab7087283d58930b3a34c68ca9e95793ff3e41bf47131d7b80753119cb0186bb)#e53n398y",
            "hex": "41046a48e797022dbf0a9222fe72fee2e19e99af1c5023a9e773df3703450aae5a45ab7087283d58930b3a34c68ca9e95793ff3e41bf47131d7b80753119cb0186bbac",
            "type": "pubkey"
          }
        }
      ],
      "hex": "01000000010000000000000000000000000000000000000000000000000000000000000000ffffffff0704ffff001d0144ffffffff0100f2052a010000004341046a48e797022dbf0a9222fe72fee2e19e99af1c5023a9e773df3703450aae5a45ab7087283d58930b3a34c68ca9e95793ff3e41bf47131d7b80753119cb0186bbac00000000"
    }
  ]
}