{
  "hash": "0000000037853fd38712b66711771ecc5960c612e151007d6765e71af0f515bb",
  "confirmations": 43746,
  "height": 9352,
  "version": 1,
  "versionHex": "00000001",
  "merkleroot": "d43bdb88a3edfbeb4fb26795645f9fbaefb1ce9aba32892a3f659ab5621dac96",
  "time": 1238513344,
  "mediantime": 1238508675,
  "nonce": 3644714015,
  "bits": "1d00ffff",
  "difficulty": 1,
  "chainwork": "0000000000000000000000000000000000000000000000000000248924892489",
  "nTx": 1,
  "previousblockhash": "0000000063b8e6166e70911584686416790fa849e581a076a280937b37aee2b8",
  "nextblockhash": "00000000161be3fc2bf2789f7cb9da58d59c3d63d8a480526ec1ddd16ae75b9f",
  "strippedsize": 216,
  "size": 216,
  "weight": 864,
  "tx": [
    {
      "txid": "d43bdb88a3edfbeb4fb26795645f9fbaefb1ce9aba32892a3f659ab5621dac96",
      "hash": "d43bdb88a3edfbeb4fb26795645f9fbaefb1ce9aba32892a3f659ab5621dac96",
      "version": 1,
      "size": 135,
      "vsize": 135,
      "weight": 540,
      "locktime": 0,
      "vin": [
        {
          "coinbase": "04ffff001d02a902",
          "sequence": 4294967295
        }
      ],
      "vout": [
        {
          "value": 50.0,
          "n": 0,
          "scriptPubKey": {
            "asm": "047f5101eda2d2de04c09c0968f75e68bd8784a3aeacbaf04187a74b6aeb83c1d7d62ad916b85c582d5fd4ae53852d51481f36f737f3557398281b8988d787787d OP_CHECKSIG",
            "desc": "pk(047f5101eda2d2de04c09c0968f75e68bd8784a3aeacbaf04187a74b6aeb83c1d7d62ad916b85c582d5fd4ae53852d51481f36f737f3557398281b8988d787787d)#w88yd94m",
            "hex": "41047f5101eda2d2de04c09c0968f75e68bd8784a3aeacbaf04187a74b6aeb83c1d7d62ad916b85c582d5fd4ae53852d51481f36f737f3557398281b8988d787787dac",
            "type": "pubkey"
          }
        }
      ],
      "hex": "01000000010000000000000000000000000000000000000000000000000000000000000000ffffffff0804ffff001d02a902ffffffff0100f2052a010000004341047f5101eda2d2de04c09c0968f75e68bd8784a3aeacbaf04187a74b6aeb83c1d7d62ad916b85c582d5fd4ae53852d51481f36f737f3557398281b8988d787787dac00000000"
    }
  ]
}