{
  "hash": "000000001c9a6bbe76159eedc2a94c514ec7e8e2d98202c699cfc095c39daab1",
  "confirmations": 50157,
  "height": 2941,
  "version": 1,
  "versionHex": "00000001",
  "merkleroot": "1dcab5293597fa6338a8c43ede80d77ce771b7160481de393b669523a969ed1d",
  "time": 1233718562,
  "mediantime": 1233715064,
  "nonce": 2791825439,
  "bits": "1d00ffff",
  "difficulty": 1,
  "chainwork": "00000000000000000000000000000000000000000000000000000b7e0b7e0b7e",
  "nTx": 1,
  "previousblockhash": "00000000c03c0de143abe860076d2a0ffa92f9f1dc08eb0c94c6bc3b8998e27a",
  "nextblockhash": "000000005c9813a94061e4cd2c831cb47bad634c8b2995b3e9ed976a43df9087",
  "strippedsize": 215,
  "size": 215,
  "weight": 860,
  "tx": [
    {
      "txid": "1dcab5293597fa6338a8c43ede80d77ce771b7160481de393b669523a969ed1d",
      "hash": "1dcab5293597fa6338a8c43ede80d77ce771b7160481de393b669523a969ed1d",
      "version": 1,
      "size": 134,
      "vsize": 134,
      "weight": 536,
      "locktime": 0,
      "vin": [
        {
          "coinbase": "04ffff001d016d",
          "sequence": 4294967295
        }
      ],
      "vout": [
        {
          "value": 50.0,
          "n": 0,
          "scriptPubKey": {
            "asm": "0415372321fc6bd75d4033f493ea5c5b87c0ee8600711cb8552474e365694ecf35a599d4b5ded4cadc12636a163dbfcc5de4ead5b4f99f85a69f06875e4d721910 OP_CHECKSIG",
            "desc": "pk(0415372321fc6bd75d4033f493ea5c5b87c0ee8600711cb8552474e365694ecf35a599d4b5ded4cadc12636a163dbfcc5de4ead5b4f99f85a69f06875e4d721910)#pp2fzs27",
            "hex": "410415372321fc6bd75d4033f493ea5c5b87c0ee8600711cb8552474e365694ecf35a599d4b5ded4cadc12636a163dbfcc5de4ead5b4f99f85a69f06875e4d721910ac",
            "type": "pubkey"
          }
        }
      ],
      "hex": "01000000010000000000000000000000000000000000000000000000000000000000000000ffffffff0704ffff001d016dffffffff0100f2052a0100000043410415372321fc6bd75d4033f493ea5c5b87c0ee8600711cb8552474e365694ecf35a599d4b5ded4cadc12636a163dbfcc5de4ead5b4f99f85a69f06875e4d721910ac00000000"
    }
  ]
}