{
  "hash": "000000003bcc5b1f2a131239b7d1eaea3f63031c09247d25c2a30801a3564a1b",
  "confirmations": 43965,
  "height": 9133,
  "version": 1,
  "versionHex": "00000001",
  "merkleroot": "f1732e03c6c4924808fb3a7a0a2dfecb7fbbb3675e7d55a53c5a0b47924e256a",
  "time": 1238355375,
  "mediantime": 1238350279,
  "nonce": 1070357761,
  "bits": "1d00ffff",
  "difficulty": 1,
  "chainwork": "000000000000000000000000000000000000000000000000000023ae23ae23ae",
  "nTx": 1,
  "previousblockhash": "000000006f67edbc36f5104d05fc0db8f2bde9a804d7a9e814afa561a658b7af",
  "nextblockhash": "00000000346fda022def808ec9e0ca283c87545a204e3a2753165e886afbba86",
  "strippedsize": 216,
  "size": 216,
  "weight": 864,
  "tx": [
    {
      "txid": "f1732e03c6c4924808fb3a7a0a2dfecb7fbbb3675e7d55a53c5a0b47924e256a",
      "hash": "f1732e03c6c4924808fb3a7a0a2dfecb7fbbb3675e7d55a53c5a0b47924e256a",
      "version": 1,
      "size": 135,
      "vsize": 135,
      "weight": 540,
      "locktime": 0,
      "vin": [
        {
          "coinbase": "04ffff001d020609",
          "sequence": 4294967295
        }
      ],
      "vout": [
        {
          "value": 50.0,
          "n": 0,
          "scriptPubKey": {
            "asm": "048d42409f82fcbc7185a7c36005580fe6aa29d3a822a84358a0b65c1dc276c5a1a831ad59c014c07a1467f237485946b0f5fa8e59aa6356d7ba36c7e04bc08d10 OP_CHECKSIG",
            "desc": "pk(048d42409f82fcbc7185a7c36005580fe6aa29d3a822a84358a0b65c1dc276c5a1a831ad59c014c07a1467f237485946b0f5fa8e59aa6356d7ba36c7e04bc08d10)#l2qny8w5",
            "hex": "41048d42409f82fcbc7185a7c36005580fe6aa29d3a822a84358a0b65c1dc276c5a1a831ad59c014c07a1467f237485946b0f5fa8e59aa6356d7ba36c7e04bc08d10ac",
            "type": "pubkey"
          }
        }
      ],
      "hex": "01000000010000000000000000000000000000000000000000000000000000000000000000ffffffff0804ffff001d020609ffffffff0100f2052a010000004341048d42409f82fcbc7185a7c36005580fe6aa29d3a822a84358a0b65c1dc276c5a1a831ad59c014c07a1467f237485946b0f5fa8e59aa6356d7ba36c7e04bc08d10ac00000000"
    }
  ]
}