{
  "hash": "00000000a4b1f2b591ca1d9d907e70342f5a980d384917d02603aaea71ff9d63",
  "confirmations": 44952,
  "height": 8146,
  "version": 1,
  "versionHex": "00000001",
  "merkleroot": "b07d9bdb4afcba4a3cf68e5a7a5893ce2b902ec3e9fae043e0064b2b20299e63",
  "time": 1237569631,
  "mediantime": 1237565193,
  "nonce": 514632991,
  "bits": "1d00ffff",
  "difficulty": 1,
  "chainwork": "00000000000000000000000000000000000000000000000000001fd31fd31fd3",
  "nTx": 1,
  "previousblockhash": "00000000a5e1609452246c1621e6e57bb109462a668fd4514e3a4a7a7ef4612b",
  "nextblockhash": "000000006d612c22097029b0d89928102b10241e5bb588efef20e6476bdc9ee7",
  "strippedsize": 216,
  "size": 216,
  "weight": 864,
  "tx": [
    {
      "txid": "b07d9bdb4afcba4a3cf68e5a7a5893ce2b902ec3e9fae043e0064b2b20299e63",
      "hash": "b07d9bdb4afcba4a3cf68e5a7a5893ce2b902ec3e9fae043e0064b2b20299e63",
      "version": 1,
      "size": 135,
      "vsize": 135,
      "weight": 540,
      "locktime": 0,
      "vin": [
        {
          "coinbase": "04ffff001d02e301",
          "sequence": 4294967295
        }
      ],
      "vout": [
        {
          "value": 50.0,
          "n": 0,
          "scriptPubKey": {
            "asm": "048129289a0886e96258a54c547ba440cefa8ad86ebd4aabb2edf8f0ff75170f6fd9b116fce1106dfe084774fa02e90c2ab0c0fd75c99c91b0b2a89d7b441360aa OP_CHECKSIG",
            "desc": "pk(048129289a0886e96258a54c547ba440cefa8ad86ebd4aabb2edf8f0ff75170f6fd9b116fce1106dfe084774fa02e90c2ab0c0fd75c99c91b0b2a89d7b441360aa)#twrffcsd",
            "hex": "41048129289a0886e96258a54c547ba440cefa8ad86ebd4aabb2edf8f0ff75170f6fd9b116fce1106dfe084774fa02e90c2ab0c0fd75c99c91b0b2a89d7b441360aaac",
            "type": "pubkey"
          }
        }
      ],
      "hex": "01000000010000000000000000000000000000000000000000000000000000000000000000ffffffff0804ffff001d02e301ffffffff0100f2052a010000004341048129289a0886e96258a54c547ba440cefa8ad86ebd4aabb2edf8f0ff75170f6fd9b116fce1106dfe084774fa02e90c2ab0c0fd75c99c91b0b2a89d7b441360aaac00000000"
    }
  ]
}