{
  "hash": "00000000cf9f32807a51004165e3a5a63d265de3cfd1dfb5068c29acff74634b",
  "confirmations": 50633,
  "height": 2465,
  "version": 1,
  "versionHex": "00000001",
  "merkleroot": "aa24707223275e84d6f93a8b45be3bba90889a8fa010c5a751c5cc4e7e205895",
  "time": 1233401748,
  "mediantime": 1233399182,
  "nonce": 2187922724,
  "bits": "1d00ffff",
  "difficulty": 1,
  "chainwork": "000000000000000000000000000000000000000000000000000009a209a209a2",
  "nTx": 1,
  "previousblockhash": "000000005fade21217d1212ec5a4a60ae18aaf6f4f90138d2332fc8bcd25ff0d",
  "nextblockhash": "00000000dd41eafae6a1c14065eb3215f1cab7a1733f5b3e7f4240051d66786f",
  "strippedsize": 216,
  "size": 216,
  "weight": 864,
  "tx": [
    {
      "txid": "aa24707223275e84d6f93a8b45be3bba90889a8fa010c5a751c5cc4e7e205895",
      "hash": "aa24707223275e84d6f93a8b45be3bba90889a8fa010c5a751c5cc4e7e205895",
      "version": 1,
      "size": 135,
      "vsize": 135,
      "weight": 540,
      "locktime": 0,
      "vin": [
        {
          "coinbase": "04ffff001d02ae00",
          "sequence": 4294967295
        }
      ],
      "vout": [
        {
          "value": 50.0,
          "n": 0,
          "scriptPubKey": {
            "asm": "04bc071d47ce51db92abf1cfcd3b28a475a7a804f826759c4486ef387fed3eadf688aec59ca3880b676a1c5f3c07af1fa6a2e94cd5aefae1f78f7f3ad63cb95146 OP_CHECKSIG",
            "desc": "pk(04bc071d47ce51db92abf1cfcd3b28a475a7a804f826759c4486ef387fed3eadf688aec59ca3880b676a1c5f3c07af1fa6a2e94cd5aefae1f78f7f3ad63cb95146)#066mgtct",
            "hex": "4104bc071d47ce51db92abf1cfcd3b28a475a7a804f826759c4486ef387fed3eadf688aec59ca3880b676a1c5f3c07af1fa6a2e94cd5aefae1f78f7f3ad63cb95146ac",
            "type": "pubkey"
          }
        }
      ],
      "hex": "01000000010000000000000000000000000000000000000000000000000000000000000000ffffffff0804ffff001d02ae00ffffffff0100f2052a01000000434104bc071d47ce51db92abf1cfcd3b28a475a7a804f826759c4486ef387fed3eadf688aec59ca3880b676a1c5f3c07af1fa6a2e94cd5aefae1f78f7f3ad63cb95146ac00000000"
    }
  ]
}