{
  "hash": "000000004ba46e857e930313ddca29e1b30336f3e3cf26c3584c91ca93ee2bac",
  "confirmations": 52181,
  "height": 448,
  "version": 1,
  "versionHex": "00000001",
  "merkleroot": "e24e056b0d537404157a885d24606d0e6d130d1dd7b5d85dab6603cc7010cdd5",
  "time": 1231934513,
  "mediantime": 1231930862,
  "nonce": 137042950,
  "bits": "1d00ffff",
  "difficulty": 1,
  "chainwork": "000000000000000000000000000000000000000000000000000001c101c101c1",
  "nTx": 1,
  "previousblockhash": "00000000e1798bc5da65746383737a855f94dd9cc73edd26eb4ec0dc3fe8d505",
  "nextblockhash": "0000000016245606f39a8b3ba658065afd77c3e722031d3da6913646e5e7e5f6",
  "strippedsize": 216,
  "size": 216,
  "weight": 864,
  "tx": [
    {
      "txid": "e24e056b0d537404157a885d24606d0e6d130d1dd7b5d85dab6603cc7010cdd5",
      "hash": "e24e056b0d537404157a885d24606d0e6d130d1dd7b5d85dab6603cc7010cdd5",
      "version": 1,
      "size": 135,
      "vsize": 135,
      "weight": 540,
      "locktime": 0,
      "vin": [
        {
          "coinbase": "04ffff001d028c03",
          "sequence": 4294967295
        }
      ],
      "vout": [
        {
          "value": 50.0,
          "n": 0,
          "scriptPubKey": {
            "asm": "04233a256cd55c4ab659c7843a795d156de209bfb8fdb4ef4c8379937a0774060aac8bced69bfa618776cb939e322762ac77620a0a40f8d562fa41c7af9ed486ae OP_CHECKSIG",
            "desc": "pk(04233a256cd55c4ab659c7843a795d156de209bfb8fdb4ef4c8379937a0774060aac8bced69bfa618776cb939e322762ac77620a0a40f8d562fa41c7af9ed486ae)#nm6wkxrq",
            "hex": "4104233a256cd55c4ab659c7843a795d156de209bfb8fdb4ef4c8379937a0774060aac8bced69bfa618776cb939e322762ac77620a0a40f8d562fa41c7af9ed486aeac",
            "type": "pubkey"
          }
        }
      ],
      "hex": "01000000010000000000000000000000000000000000000000000000000000000000000000ffffffff0804ffff001d028c03ffffffff0100f2052a01000000434104233a256cd55c4ab659c7843a795d156de209bfb8fdb4ef4c8379937a0774060aac8bced69bfa618776cb939e322762ac77620a0a40f8d562fa41c7af9ed486aeac00000000"
    }
  ]
}