{
  "hash": "00000000710be1ed303b2a2b13af371682ad41cbe9d6281a780af53756b27766",
  "confirmations": 50946,
  "height": 2152,
  "version": 1,
  "versionHex": "00000001",
  "merkleroot": "4089d2da062c535e6d8ce040518c34fd46a62c471b77a7b6a4170e597a993609",
  "time": 1233177534,
  "mediantime": 1233174154,
  "nonce": 416795238,
  "bits": "1d00ffff",
  "difficulty": 1,
  "chainwork": "0000000000000000000000000000000000000000000000000000086908690869",
  "nTx": 1,
  "previousblockhash": "0000000060853d68d5905f6d2c670d36d71b248fa1fa09c74cc89d11dbfc78d8",
  "nextblockhash": "00000000d1dc5228b3684b92435b2e22b1ef1b8bf3b139f6ef9c73fc3153cca6",
  "strippedsize": 215,
  "size": 215,
  "weight": 860,
  "tx": [
    {
      "txid": "4089d2da062c535e6d8ce040518c34fd46a62c471b77a7b6a4170e597a993609",
      "hash": "4089d2da062c535e6d8ce040518c34fd46a62c471b77a7b6a4170e597a993609",
      "version": 1,
      "size": 134,
      "vsize": 134,
      "weight": 536,
      "locktime": 0,
      "vin": [
        {
          "coinbase": "04ffff001d012e",
          "sequence": 4294967295
        }
      ],
      "vout": [
        {
          "value": 50.0,
          "n": 0,
          "scriptPubKey": {
            "asm": "0467a94abcd91a636df96cb1dc71028c529dd8a11d7faa7efa0e7e1c2831199259822a918a902c4a9fad0486f0a14366a1647d7e84a8a430ca59a18ab1c6ee7fd7 OP_CHECKSIG",
            "desc": "pk(0467a94abcd91a636df96cb1dc71028c529dd8a11d7faa7efa0e7e1c2831199259822a918a902c4a9fad0486f0a14366a1647d7e84a8a430ca59a18ab1c6ee7fd7)#7x0xk3ah",
            "hex": "410467a94abcd91a636df96cb1dc71028c529dd8a11d7faa7efa0e7e1c2831199259822a918a902c4a9fad0486f0a14366a1647d7e84a8a430ca59a18ab1c6ee7fd7ac",
            "type": "pubkey"
          }
        }
      ],
      "hex": "01000000010000000000000000000000000000000000000000000000000000000000000000ffffffff0704ffff001d012effffffff0100f2052a0100000043410467a94abcd91a636df96cb1dc71028c529dd8a11d7faa7efa0e7e1c2831199259822a918a902c4a9fad0486f0a14366a1647d7e84a8a430ca59a18ab1c6ee7fd7ac00000000"
    }
  ]
}