{
  "hash": "000000007dcbd6505710437090b76273870914ffea29ee61958f6f06240b1590",
  "confirmations": 47128,
  "height": 5970,
  "version": 1,
  "versionHex": "00000001",
  "merkleroot": "7c9cf5c8fc092ae1c3b690417771fcb1ffd3519cd100673d2703468e0257147c",
  "time": 1235904684,
  "mediantime": 1235900722,
  "nonce": 2285139495,
  "bits": "1d00ffff",
  "difficulty": 1,
  "chainwork": "0000000000000000000000000000000000000000000000000000175317531753",
  "nTx": 1,
  "previousblockhash": "0000000069d30d02057843289750ed3e2a6a19c394125de570d3405cfb623c95",
  "nextblockhash": "000000008e50d4fcb8e8dfa0d9f5679882a730f90d88be2580f2763a199b985e",
  "strippedsize": 216,
  "size": 216,
  "weight": 864,
  "tx": [
    {
      "txid": "7c9cf5c8fc092ae1c3b690417771fcb1ffd3519cd100673d2703468e0257147c",
      "hash": "7c9cf5c8fc092ae1c3b690417771fcb1ffd3519cd100673d2703468e0257147c",
      "version": 1,
      "size": 135,
      "vsize": 135,
      "weight": 540,
      "locktime": 0,
      "vin": [
        {
          "coinbase": "04ffff001d025e04",
          "sequence": 4294967295
        }
      ],
      "vout": [
        {
          "value": 50.0,
          "n": 0,
          "scriptPubKey": {
            "asm": "04b31c17f54ebc085855031273dd0a86561916e69ce96499c3d92891407cbfe6a1130ee2211cc8ad42a44d6a0030c0d930dad8414530146cdee5c71bebbcd87fe3 OP_CHECKSIG",
            "desc": "pk(04b31c17f54ebc085855031273dd0a86561916e69ce96499c3d92891407cbfe6a1130ee2211cc8ad42a44d6a0030c0d930dad8414530146cdee5c71bebbcd87fe3)#jdpycy6f",
            "hex": "4104b31c17f54ebc085855031273dd0a86561916e69ce96499c3d92891407cbfe6a1130ee2211cc8ad42a44d6a0030c0d930dad8414530146cdee5c71bebbcd87fe3ac",
            "type": "pubkey"
          }
        }
      ],
      "hex": "01000000010000000000000000000000000000000000000000000000000000000000000000ffffffff0804ffff001d025e04ffffffff0100f2052a01000000434104b31c17f54ebc085855031273dd0a86561916e69ce96499c3d92891407cbfe6a1130ee2211cc8ad42a44d6a0030c0d930dad8414530146cdee5c71bebbcd87fe3ac00000000"
    }
  ]
}