{
  "hash": "00000000dd74d572772cafdb8c9f7a7ce14209605db76747843d811c91e61475",
  "confirmations": 51986,
  "height": 1112,
  "version": 1,
  "versionHex": "00000001",
  "merkleroot": "cacdb6ac92fdebff41d4d342d5c02f75f4ac300c91ba7b35b6c217497bfd823a",
  "time": 1232431779,
  "mediantime": 1232427447,
  "nonce": 1083262981,
  "bits": "1d00ffff",
  "difficulty": 1,
  "chainwork": "0000000000000000000000000000000000000000000000000000045904590459",
  "nTx": 1,
  "previousblockhash": "00000000ca59764b4ff11d88ea67e641dba94a17520ebd10f1631b21a18d5805",
  "nextblockhash": "00000000d1ba8570c7da8d9cb11df7ecaad7b9850a1b72a0eb15eb7c9c0b50d2",
  "strippedsize": 216,
  "size": 216,
  "weight": 864,
  "tx": [
    {
      "txid": "cacdb6ac92fdebff41d4d342d5c02f75f4ac300c91ba7b35b6c217497bfd823a",
      "hash": "cacdb6ac92fdebff41d4d342d5c02f75f4ac300c91ba7b35b6c217497bfd823a",
      "version": 1,
      "size": 135,
      "vsize": 135,
      "weight": 540,
      "locktime": 0,
      "vin": [
        {
          "coinbase": "04ffff001d023b07",
          "sequence": 4294967295
        }
      ],
      "vout": [
        {
          "value": 50.0,
          "n": 0,
          "scriptPubKey": {
            "asm": "04a26ff01cc9e2f2e2608a35c256580dc191f559b61733eb2721ab7c1afd17c6c743c0ebb6738f47258b66d758248edd943a3e3bf48416e0922136c9a64e6e1480 OP_CHECKSIG",
            "desc": "pk(04a26ff01cc9e2f2e2608a35c256580dc191f559b61733eb2721ab7c1afd17c6c743c0ebb6738f47258b66d758248edd943a3e3bf48416e0922136c9a64e6e1480)#xflur6ux",
            "hex": "4104a26ff01cc9e2f2e2608a35c256580dc191f559b61733eb2721ab7c1afd17c6c743c0ebb6738f47258b66d758248edd943a3e3bf48416e0922136c9a64e6e1480ac",
            "type": "pubkey"
          }
        }
      ],
      "hex": "01000000010000000000000000000000000000000000000000000000000000000000000000ffffffff0804ffff001d023b07ffffffff0100f2052a01000000434104a26ff01cc9e2f2e2608a35c256580dc191f559b61733eb2721ab7c1afd17c6c743c0ebb6738f47258b66d758248edd943a3e3bf48416e0922136c9a64e6e1480ac00000000"
    }
  ]
}