{
  "hash": "0000000090eb010c9944710e54cb525b6e1c062603a2f935c6c758b5209b4ff4",
  "confirmations": 43428,
  "height": 9670,
  "version": 1,
  "versionHex": "00000001",
  "merkleroot": "cafa794be400056b3351a36ca55e44d6e1a080ca1a12a857fbfcabcb050aa159",
  "time": 1238754660,
  "mediantime": 1238751058,
  "nonce": 73283212,
  "bits": "1d00ffff",
  "difficulty": 1,
  "chainwork": "000000000000000000000000000000000000000000000000000025c725c725c7",
  "nTx": 1,
  "previousblockhash": "00000000d55d8453b7ee461a86125a9612f42f52b39c253e76ae760b9712b283",
  "nextblockhash": "0000000011773ce20390281d0e25ded70385b40bd16983ed72339daa696238f6",
  "strippedsize": 216,
  "size": 216,
  "weight": 864,
  "tx": [
    {
      "txid": "cafa794be400056b3351a36ca55e44d6e1a080ca1a12a857fbfcabcb050aa159",
      "hash": "cafa794be400056b3351a36ca55e44d6e1a080ca1a12a857fbfcabcb050aa159",
      "version": 1,
      "size": 135,
      "vsize": 135,
      "weight": 540,
      "locktime": 0,
      "vin": [
        {
          "coinbase": "04ffff001d021401",
          "sequence": 4294967295
        }
      ],
      "vout": [
        {
          "value": 50.0,
          "n": 0,
          "scriptPubKey": {
            "asm": "04a87209a834dec9726e393c6e697e7bf361e15734ce2feffd7dc96c2454aa7a233da8f2b2313f9b9b60ca5a224ab44243950403e38bdc44c73c67a1930aad8e74 OP_CHECKSIG",
            "desc": "pk(04a87209a834dec9726e393c6e697e7bf361e15734ce2feffd7dc96c2454aa7a233da8f2b2313f9b9b60ca5a224ab44243950403e38bdc44c73c67a1930aad8e74)#sq3mp9gt",
            "hex": "4104a87209a834dec9726e393c6e697e7bf361e15734ce2feffd7dc96c2454aa7a233da8f2b2313f9b9b60ca5a224ab44243950403e38bdc44c73c67a1930aad8e74ac",
            "type": "pubkey"
          }
        }
      ],
      "hex": "01000000010000000000000000000000000000000000000000000000000000000000000000ffffffff0804ffff001d021401ffffffff0100f2052a01000000434104a87209a834dec9726e393c6e697e7bf361e15734ce2feffd7dc96c2454aa7a233da8f2b2313f9b9b60ca5a224ab44243950403e38bdc44c73c67a1930aad8e74ac00000000"
    }
  ]
}