{
  "hash": "00000000ea6a5e7037089d4e27da786459d7d306dbfea2b271a7c9dee4523e01",
  "confirmations": 47978,
  "height": 5120,
  "version": 1,
  "versionHex": "00000001",
  "merkleroot": "12e922f6d63a8939e0e2133a2340273bf61318e5e7916c3fd5af8ed4a1ae065a",
  "time": 1235232137,
  "mediantime": 1235227359,
  "nonce": 43069918,
  "bits": "1d00ffff",
  "difficulty": 1,
  "chainwork": "0000000000000000000000000000000000000000000000000000140114011401",
  "nTx": 1,
  "previousblockhash": "00000000439281fa1ef824c31692ded5f7df39ee529d3a534f41ec934265baa9",
  "nextblockhash": "000000005f06a26ca39a014696145d9f3db0358afbc3cc82ec456b0653f57825",
  "strippedsize": 215,
  "size": 215,
  "weight": 860,
  "tx": [
    {
      "txid": "12e922f6d63a8939e0e2133a2340273bf61318e5e7916c3fd5af8ed4a1ae065a",
      "hash": "12e922f6d63a8939e0e2133a2340273bf61318e5e7916c3fd5af8ed4a1ae065a",
      "version": 1,
      "size": 134,
      "vsize": 134,
      "weight": 536,
      "locktime": 0,
      "vin": [
        {
          "coinbase": "04ffff001d0107",
          "sequence": 4294967295
        }
      ],
      "vout": [
        {
          "value": 50.0,
          "n": 0,
          "scriptPubKey": {
            "asm": "04431d21115ed39341eb76a15d7f9aacec0a619b6fe8f60013c3c4e4e008222c9296b3866966aa3c1af45958264e7f4c9bebf3d126a9a407e38d2ba79dd187c77a OP_CHECKSIG",
            "desc": "pk(04431d21115ed39341eb76a15d7f9aacec0a619b6fe8f60013c3c4e4e008222c9296b3866966aa3c1af45958264e7f4c9bebf3d126a9a407e38d2ba79dd187c77a)#d2gtensn",
            "hex": "4104431d21115ed39341eb76a15d7f9aacec0a619b6fe8f60013c3c4e4e008222c9296b3866966aa3c1af45958264e7f4c9bebf3d126a9a407e38d2ba79dd187c77aac",
            "type": "pubkey"
          }
        }
      ],
      "hex": "01000000010000000000000000000000000000000000000000000000000000000000000000ffffffff0704ffff001d0107ffffffff0100f2052a01000000434104431d21115ed39341eb76a15d7f9aacec0a619b6fe8f60013c3c4e4e008222c9296b3866966aa3c1af45958264e7f4c9bebf3d126a9a407e38d2ba79dd187c77aac00000000"
    }
  ]
}