{
  "hash": "0000000030aa3590bd74cece671d2ec922e2b01e2623f2d177fac8b20384251c",
  "confirmations": 50637,
  "height": 2461,
  "version": 1,
  "versionHex": "00000001",
  "merkleroot": "0164ed044e32fff9c87d2ad07c95186ece557c82bab17f2190260deb8e15a80e",
  "time": 1233399927,
  "mediantime": 1233396663,
  "nonce": 3150930972,
  "bits": "1d00ffff",
  "difficulty": 1,
  "chainwork": "0000000000000000000000000000000000000000000000000000099e099e099e",
  "nTx": 1,
  "previousblockhash": "0000000067095df2a66d4e3dab6633ba3dbe3073e01b473ae3684bb117b34e54",
  "nextblockhash": "0000000023b94549ea5df42a85941bbaabe19051f802af60e1998974dad1ed3a",
  "strippedsize": 216,
  "size": 216,
  "weight": 864,
  "tx": [
    {
      "txid": "0164ed044e32fff9c87d2ad07c95186ece557c82bab17f2190260deb8e15a80e",
      "hash": "0164ed044e32fff9c87d2ad07c95186ece557c82bab17f2190260deb8e15a80e",
      "version": 1,
      "size": 135,
      "vsize": 135,
      "weight": 540,
      "locktime": 0,
      "vin": [
        {
          "coinbase": "04ffff001d02a900",
          "sequence": 4294967295
        }
      ],
      "vout": [
        {
          "value": 50.0,
          "n": 0,
          "scriptPubKey": {
            "asm": "043163f0dbd2c51c31706017d1e9740724bc9e2f1adcd387f0a9712551fb2fda96ce5971c789d748042674f7536b4829e7ce4873a66b9a98bc7f3b231120f4a85a OP_CHECKSIG",
            "desc": "pk(043163f0dbd2c51c31706017d1e9740724bc9e2f1adcd387f0a9712551fb2fda96ce5971c789d748042674f7536b4829e7ce4873a66b9a98bc7f3b231120f4a85a)#afascr7z",
            "hex": "41043163f0dbd2c51c31706017d1e9740724bc9e2f1adcd387f0a9712551fb2fda96ce5971c789d748042674f7536b4829e7ce4873a66b9a98bc7f3b231120f4a85aac",
            "type": "pubkey"
          }
        }
      ],
      "hex": "01000000010000000000000000000000000000000000000000000000000000000000000000ffffffff0804ffff001d02a900ffffffff0100f2052a010000004341043163f0dbd2c51c31706017d1e9740724bc9e2f1adcd387f0a9712551fb2fda96ce5971c789d748042674f7536b4829e7ce4873a66b9a98bc7f3b231120f4a85aac00000000"
    }
  ]
}