{
  "hash": "00000000cc6ddabd562993839c89fd9d89b4f43191ba6a03c9b8aa997eef6009",
  "confirmations": 47619,
  "height": 5479,
  "version": 1,
  "versionHex": "00000001",
  "merkleroot": "07a0750123ed155df5806c494ac5a89c290c52f47df1365c6fb4b47a24eff1a7",
  "time": 1235503543,
  "mediantime": 1235501126,
  "nonce": 3928125959,
  "bits": "1d00ffff",
  "difficulty": 1,
  "chainwork": "0000000000000000000000000000000000000000000000000000156815681568",
  "nTx": 1,
  "previousblockhash": "00000000e6e8e61bfcf9702db23056966c62536890ad0b4bba6864ad915efa5d",
  "nextblockhash": "00000000cf6889141ad6ef8cf20a7e13f96facf26ae0c23bcdb182c497598f7a",
  "strippedsize": 216,
  "size": 216,
  "weight": 864,
  "tx": [
    {
      "txid": "07a0750123ed155df5806c494ac5a89c290c52f47df1365c6fb4b47a24eff1a7",
      "hash": "07a0750123ed155df5806c494ac5a89c290c52f47df1365c6fb4b47a24eff1a7",
      "version": 1,
      "size": 135,
      "vsize": 135,
      "weight": 540,
      "locktime": 0,
      "vin": [
        {
          "coinbase": "04ffff001d023405",
          "sequence": 4294967295
        }
      ],
      "vout": [
        {
          "value": 50.0,
          "n": 0,
          "scriptPubKey": {
            "asm": "04d04d144e12042511bbaf9292637459f50b9e1547c0769e46f726456c1f50bc6a5dd1bcf6da7ab31bb3b3bc02233cd2231a7abc2d561ab9aa20091a462af647ff OP_CHECKSIG",
            "desc": "pk(04d04d144e12042511bbaf9292637459f50b9e1547c0769e46f726456c1f50bc6a5dd1bcf6da7ab31bb3b3bc02233cd2231a7abc2d561ab9aa20091a462af647ff)#a9yphfky",
            "hex": "4104d04d144e12042511bbaf9292637459f50b9e1547c0769e46f726456c1f50bc6a5dd1bcf6da7ab31bb3b3bc02233cd2231a7abc2d561ab9aa20091a462af647ffac",
            "type": "pubkey"
          }
        }
      ],
      "hex": "01000000010000000000000000000000000000000000000000000000000000000000000000ffffffff0804ffff001d023405ffffffff0100f2052a01000000434104d04d144e12042511bbaf9292637459f50b9e1547c0769e46f726456c1f50bc6a5dd1bcf6da7ab31bb3b3bc02233cd2231a7abc2d561ab9aa20091a462af647ffac00000000"
    }
  ]
}