{
  "hash": "0000000047d5a0870320bfe1a147312bc5a042d8e3e25dcf1bb72b5a7f23ac65",
  "confirmations": 51288,
  "height": 1810,
  "version": 1,
  "versionHex": "00000001",
  "merkleroot": "a17fbf35bc78baf4d2a73ee2e8e1ab21167c6eb8c7686ca9446fadc67406aeb9",
  "time": 1232903973,
  "mediantime": 1232901704,
  "nonce": 1108214063,
  "bits": "1d00ffff",
  "difficulty": 1,
  "chainwork": "0000000000000000000000000000000000000000000000000000071307130713",
  "nTx": 1,
  "previousblockhash": "00000000d648126dda6e110d9b04870bcdb4063eff02538d84a1212208feabf3",
  "nextblockhash": "00000000e04fb2b1746560fe55b178949972bcccd10d40474138d00f67592115",
  "strippedsize": 216,
  "size": 216,
  "weight": 864,
  "tx": [
    {
      "txid": "a17fbf35bc78baf4d2a73ee2e8e1ab21167c6eb8c7686ca9446fadc67406aeb9",
      "hash": "a17fbf35bc78baf4d2a73ee2e8e1ab21167c6eb8c7686ca9446fadc67406aeb9",
      "version": 1,
      "size": 135,
      "vsize": 135,
      "weight": 540,
      "locktime": 0,
      "vin": [
        {
          "coinbase": "04ffff001d023804",
          "sequence": 4294967295
        }
      ],
      "vout": [
        {
          "value": 50.0,
          "n": 0,
          "scriptPubKey": {
            "asm": "04916702287d798bfe6f842f8a05b72b0cf5eee909bebe3d1930f3baeb5a1753dfadc0fe014d18e31e7f9e0c415a99683b81e1ed717d91f326dfb3fb0bb362b303 OP_CHECKSIG",
            "desc": "pk(04916702287d798bfe6f842f8a05b72b0cf5eee909bebe3d1930f3baeb5a1753dfadc0fe014d18e31e7f9e0c415a99683b81e1ed717d91f326dfb3fb0bb362b303)#9z8mkdj6",
            "hex": "4104916702287d798bfe6f842f8a05b72b0cf5eee909bebe3d1930f3baeb5a1753dfadc0fe014d18e31e7f9e0c415a99683b81e1ed717d91f326dfb3fb0bb362b303ac",
            "type": "pubkey"
          }
        }
      ],
      "hex": "01000000010000000000000000000000000000000000000000000000000000000000000000ffffffff0804ffff001d023804ffffffff0100f2052a01000000434104916702287d798bfe6f842f8a05b72b0cf5eee909bebe3d1930f3baeb5a1753dfadc0fe014d18e31e7f9e0c415a99683b81e1ed717d91f326dfb3fb0bb362b303ac00000000"
    }
  ]
}