{
  "hash": "000000009f216b350d06272f3b77d06d064607bf7d1ecdd2e017a76ea98a5381",
  "confirmations": 46421,
  "height": 6677,
  "version": 1,
  "versionHex": "00000001",
  "merkleroot": "8e3619a34db9a4f335583a6c11577b7ce446fde69e47222066615a0968b5b63c",
  "time": 1236465167,
  "mediantime": 1236462468,
  "nonce": 956696347,
  "bits": "1d00ffff",
  "difficulty": 1,
  "chainwork": "00000000000000000000000000000000000000000000000000001a161a161a16",
  "nTx": 1,
  "previousblockhash": "00000000722e47123b89782ef1d94a8b02866ac07c7c80a96560d35abe0c063e",
  "nextblockhash": "00000000a801774477a798a67ac390efcdf4a1345a22d7911fd5484c95479a8b",
  "strippedsize": 216,
  "size": 216,
  "weight": 864,
  "tx": [
    {
      "txid": "8e3619a34db9a4f335583a6c11577b7ce446fde69e47222066615a0968b5b63c",
      "hash": "8e3619a34db9a4f335583a6c11577b7ce446fde69e47222066615a0968b5b63c",
      "version": 1,
      "size": 135,
      "vsize": 135,
      "weight": 540,
      "locktime": 0,
      "vin": [
        {
          "coinbase": "04ffff001d028006",
          "sequence": 4294967295
        }
      ],
      "vout": [
        {
          "value": 50.0,
          "n": 0,
          "scriptPubKey": {
            "asm": "041dcfa172ee2c9e69480436dff64875569b79db97a9991ed369f5db84816106a8bc82dc62d17cf946a10854b69e4bcaa2b5d7a9650f746f78f0e7abf34214a8c8 OP_CHECKSIG",
            "desc": "pk(041dcfa172ee2c9e69480436dff64875569b79db97a9991ed369f5db84816106a8bc82dc62d17cf946a10854b69e4bcaa2b5d7a9650f746f78f0e7abf34214a8c8)#pxzs84ku",
            "hex": "41041dcfa172ee2c9e69480436dff64875569b79db97a9991ed369f5db84816106a8bc82dc62d17cf946a10854b69e4bcaa2b5d7a9650f746f78f0e7abf34214a8c8ac",
            "type": "pubkey"
          }
        }
      ],
      "hex": "01000000010000000000000000000000000000000000000000000000000000000000000000ffffffff0804ffff001d028006ffffffff0100f2052a010000004341041dcfa172ee2c9e69480436dff64875569b79db97a9991ed369f5db84816106a8bc82dc62d17cf946a10854b69e4bcaa2b5d7a9650f746f78f0e7abf34214a8c8ac00000000"
    }
  ]
}