{
  "hash": "000000001a25cdaad9a9a306da9186c20179e85f5e8f27891733711cbd604717",
  "confirmations": 52269,
  "height": 829,
  "version": 1,
  "versionHex": "00000001",
  "merkleroot": "16ce2f4b6ea02f6638d037815c195f216f9600724460a3f1f4c153a2e392e190",
  "time": 1232213194,
  "mediantime": 1232210734,
  "nonce": 2786569011,
  "bits": "1d00ffff",
  "difficulty": 1,
  "chainwork": "0000000000000000000000000000000000000000000000000000033e033e033e",
  "nTx": 1,
  "previousblockhash": "00000000d5cd9765da3f24520faf0bc019938e218fff554631a5fcb4eb3d5726",
  "nextblockhash": "000000004e5c0c526e86ed66dc93ebb866e3b7b9b1f40aa520ae251cd19dd399",
  "strippedsize": 216,
  "size": 216,
  "weight": 864,
  "tx": [
    {
      "txid": "16ce2f4b6ea02f6638d037815c195f216f9600724460a3f1f4c153a2e392e190",
      "hash": "16ce2f4b6ea02f6638d037815c195f216f9600724460a3f1f4c153a2e392e190",
      "version": 1,
      "size": 135,
      "vsize": 135,
      "weight": 540,
      "locktime": 0,
      "vin": [
        {
          "coinbase": "04ffff001d02eb01",
          "sequence": 4294967295
        }
      ],
      "vout": [
        {
          "value": 50.0,
          "n": 0,
          "scriptPubKey": {
            "asm": "04d15410b6281d4fd861ecca4da9958d3e73664d5110c13aa763dc3aa9d96c3a6af343919c30329d5c19e8e16bd0ec3eea36c086a6b36dce5ee62752aa852496d2 OP_CHECKSIG",
            "desc": "pk(04d15410b6281d4fd861ecca4da9958d3e73664d5110c13aa763dc3aa9d96c3a6af343919c30329d5c19e8e16bd0ec3eea36c086a6b36dce5ee62752aa852496d2)#udhr8sps",
            "hex": "4104d15410b6281d4fd861ecca4da9958d3e73664d5110c13aa763dc3aa9d96c3a6af343919c30329d5c19e8e16bd0ec3eea36c086a6b36dce5ee62752aa852496d2ac",
            "type": "pubkey"
          }
        }
      ],
      "hex": "01000000010000000000000000000000000000000000000000000000000000000000000000ffffffff0804ffff001d02eb01ffffffff0100f2052a01000000434104d15410b6281d4fd861ecca4da9958d3e73664d5110c13aa763dc3aa9d96c3a6af343919c30329d5c19e8e16bd0ec3eea36c086a6b36dce5ee62752aa852496d2ac00000000"
    }
  ]
}