{
  "hash": "000000001f4cdaea20f65d5535fc9f5d7468bd07a63385be6b3949b551f6eeb6",
  "confirmations": 44137,
  "height": 8961,
  "version": 1,
  "versionHex": "00000001",
  "merkleroot": "7c9da639b1b9804c45eb2d666d2391db7c8e87fa0f4f51cf05dfec19b456d2b1",
  "time": 1238225332,
  "mediantime": 1238221901,
  "nonce": 1134993444,
  "bits": "1d00ffff",
  "difficulty": 1,
  "chainwork": "0000000000000000000000000000000000000000000000000000230223022302",
  "nTx": 1,
  "previousblockhash": "00000000c2253ed36167903b09d3f2189d0ff81e3190ddca8a17a721de88cfb6",
  "nextblockhash": "00000000c80e08817fa6bf175f9594788a85f655645a2db9aeb6c1ce1d176473",
  "strippedsize": 216,
  "size": 216,
  "weight": 864,
  "tx": [
    {
      "txid": "7c9da639b1b9804c45eb2d666d2391db7c8e87fa0f4f51cf05dfec19b456d2b1",
      "hash": "7c9da639b1b9804c45eb2d666d2391db7c8e87fa0f4f51cf05dfec19b456d2b1",
      "version": 1,
      "size": 135,
      "vsize": 135,
      "weight": 540,
      "locktime": 0,
      "vin": [
        {
          "coinbase": "04ffff001d02b205",
          "sequence": 4294967295
        }
      ],
      "vout": [
        {
          "value": 50.0,
          "n": 0,
          "scriptPubKey": {
            "asm": "04d3609e2ad55a0034a18159357210bd388577acfcd5cb89a7151fbd150f9fed9642159589c6db91133d4e6f1b6ce59dff754d00033fb97405e0eab7e6ca46e3bc OP_CHECKSIG",
            "desc": "pk(04d3609e2ad55a0034a18159357210bd388577acfcd5cb89a7151fbd150f9fed9642159589c6db91133d4e6f1b6ce59dff754d00033fb97405e0eab7e6ca46e3bc)#c6rnhfmy",
            "hex": "4104d3609e2ad55a0034a18159357210bd388577acfcd5cb89a7151fbd150f9fed9642159589c6db91133d4e6f1b6ce59dff754d00033fb97405e0eab7e6ca46e3bcac",
            "type": "pubkey"
          }
        }
      ],
      "hex": "01000000010000000000000000000000000000000000000000000000000000000000000000ffffffff0804ffff001d02b205ffffffff0100f2052a01000000434104d3609e2ad55a0034a18159357210bd388577acfcd5cb89a7151fbd150f9fed9642159589c6db91133d4e6f1b6ce59dff754d00033fb97405e0eab7e6ca46e3bcac00000000"
    }
  ]
}