{
  "hash": "000000003f6478724271336ead5e709616b066e0190f1d04ec944c899b880ebc",
  "confirmations": 46942,
  "height": 6156,
  "version": 1,
  "versionHex": "00000001",
  "merkleroot": "b1d9f13b198409fa13d2562f9023f052ffee1b53353e3a8b179db47e5cf78430",
  "time": 1236054265,
  "mediantime": 1236048510,
  "nonce": 679638821,
  "bits": "1d00ffff",
  "difficulty": 1,
  "chainwork": "0000000000000000000000000000000000000000000000000000180d180d180d",
  "nTx": 3,
  "previousblockhash": "00000000b9d7199aa393e2b13b6b1b516f0a24932169d325ea9be89048180545",
  "nextblockhash": "00000000a8b2e10ddb8996b9abf88a6f421a1c5eb961396e7b79a08ab648078c",
  "strippedsize": 1214,
  "size": 1214,
  "weight": 4856,
  "tx": [
    {
      "txid": "07227b69fa2915d14377c341316c92a3c8326674b098c937e63c22f32ca04683",
      "hash": "07227b69fa2915d14377c341316c92a3c8326674b098c937e63c22f32ca04683",
      "version": 1,
      "size": 135,
      "vsize": 135,
      "weight": 540,
      "locktime": 0,
      "vin": [
        {
          "coinbase": "04ffff001d02c107",
          "sequence": 4294967295
        }
      ],
      "vout": [
        {
          "value": 50.0,
          "n": 0,
          "scriptPubKey": {
            "asm": "04d12d96bda280245b466e09dcac7dcce5ec5f785742d451b406d5c10d1859ea6e20dd06bda0ce3ac7a2cbce84eb55ba3f2e53710e8721f4b3a70cbf8256530186 OP_CHECKSIG",
            "desc": "pk(04d12d96bda280245b466e09dcac7dcce5ec5f785742d451b406d5c10d1859ea6e20dd06bda0ce3ac7a2cbce84eb55ba3f2e53710e8721f4b3a70cbf8256530186)#a6uqaj7z",
            "hex": "4104d12d96bda280245b466e09dcac7dcce5ec5f785742d451b406d5c10d1859ea6e20dd06bda0ce3ac7a2cbce84eb55ba3f2e53710e8721f4b3a70cbf8256530186ac",
            "type": "pubkey"
          }
        }
      ],
      "hex": "01000000010000000000000000000000000000000000000000000000000000000000000000ffffffff0804ffff001d02c107ffffffff0100f2052a01000000434104d12d96bda280245b466e09dcac7dcce5ec5f785742d451b406d5c10d1859ea6e20dd06bda0ce3ac7a2cbce84eb55ba3f2e53710e8721f4b3a70cbf8256530186ac00000000"
    },
    {
      "txid": "2d7d4385db1b1c5f809931ccea31c76fdcbcc82ba81d15713b30e8aa03de82b5",
      "hash": "2d7d4385db1b1c5f809931ccea31c76fdcbcc82ba81d15713b30e8aa03de82b5",
      "version": 1,
      "size": 612,
      "vsize": 612,
      "weight": 2448,
      "locktime": 0,
      "vin": [
        {
          "txid": "34c8bded0256738d673c4b3274001a7f29b3cdec2440deaef41533da659b4206",
          "vout": 0,
          "scriptSig": {
            "asm": "3045022100822176fbc813160f270d967d7eab3d0db2c06394fb17c8c76cb1cb3a14ab24e2022074b3dd23dbcc6f430d0475af7dea9b50e359fc205f210e86b7b4eab251d9b347[ALL]",
            "hex": "483045022100822176fbc813160f270d967d7eab3d0db2c06394fb17c8c76cb1cb3a14ab24e2022074b3dd23dbcc6f430d0475af7dea9b50e359fc205f210e86b7b4eab251d9b34701"
          },
          "sequence": 4294967295
        },
        {
          "txid": "64e4b60e058a1e8c813f92a48d2685c77e3ecfff92e686ea3578a83be08ed224",
          "vout": 0,
          "scriptSig": {
            "asm": "3045022100adde8c0d6cfe76d5cd727b0677a6cd5513e407c48f50da8d1f34a56ac83775c202201878ce459b1199b96a7e0d3aa403ff12480c6d2749a207d3ac5cd945beb2031c[ALL]",
            "hex": "483045022100adde8c0d6cfe76d5cd727b0677a6cd5513e407c48f50da8d1f34a56ac83775c202201878ce459b1199b96a7e0d3aa403ff12480c6d2749a207d3ac5cd945beb2031c01"
          },
          "sequence": 4294967295
        },
        {
          "txid": "12e922f6d63a8939e0e2133a2340273bf61318e5e7916c3fd5af8ed4a1ae065a",
          "vout": 0,
          "scriptSig": {
            "asm": "304402206f7884689115a1dc02a3ca9ab5ce6558518139af2097e3d8c51278b7f16b43f4022025c7505f9d73121b7243600746aaec8b2639981507340e3bd94b78296b65804e[ALL]",
            "hex": "47304402206f7884689115a1dc02a3ca9ab5ce6558518139af2097e3d8c51278b7f16b43f4022025c7505f9d73121b7243600746aaec8b2639981507340e3bd94b78296b65804e01"
          },
          "sequence": 4294967295
        },
        {
          "txid": "27584604e0d9f16b3fac2646e6c02bf060387621e3118d2ce5811ae4ba873167",
          "vout": 0,
          "scriptSig": {
            "asm": "30440220590359571a680f57385e3cdb573d9fb46c8ea393b1ee66bd733571e7db2101310220717e872f87fc12bb904138af2223783f7b4e6da8a0c5e66595ec6ce7f6341a1b[ALL]",
            "hex": "4730440220590359571a680f57385e3cdb573d9fb46c8ea393b1ee66bd733571e7db2101310220717e872f87fc12bb904138af2223783f7b4e6da8a0c5e66595ec6ce7f6341a1b01"
          },
          "sequence": 4294967295
        },
        {
          "txid": "585be5169a24a853f5cd095ef8abd4a7bb00f156e8d17249de6a8fddef8fa273",
          "vout": 0,
          "scriptSig": {
            "asm": "304502203055fa5e02f3e690b10b3172547e45dbfdab763bcf7eed764db87b893c6f4418022100cffad12f702c2d41e7e42a35235e9a341d66b62f7f5200b5ca5f44f7a4ee18f9[ALL]",
            "hex": "48304502203055fa5e02f3e690b10b3172547e45dbfdab763bcf7eed764db87b893c6f4418022100cffad12f702c2d41e7e42a35235e9a341d66b62f7f5200b5ca5f44f7a4ee18f901"
          },
          "sequence": 4294967295
        }
      ],
      "vout": [
        {
          "value": 250.0,
          "n": 0,
          "scriptPubKey": {
            "asm": "OP_DUP OP_HASH160 592fc3990026334c8c6fb2b9da457179cdb5c688 OP_EQUALVERIFY OP_CHECKSIG",
            "desc": "addr(198aMn6ZYAczwrE5NvNTUMyJ5qkfy4g3Hi)#k9ndhvwd",
            "hex": "76a914592fc3990026334c8c6fb2b9da457179cdb5c68888ac",
            "address": "198aMn6ZYAczwrE5NvNTUMyJ5qkfy4g3Hi",
            "type": "pubkeyhash"
          }
        }
      ],
      "fee": 0.0,
      "hex": "010000000506429b65da3315f4aede4024eccdb3297f1a0074324b3c678d735602edbdc8340000000049483045022100822176fbc813160f270d967d7eab3d0db2c06394fb17c8c76cb1cb3a14ab24e2022074b3dd23dbcc6f430d0475af7dea9b50e359fc205f210e86b7b4eab251d9b34701ffffffff24d28ee03ba87835ea86e692ffcf3e7ec785268da4923f818c1e8a050eb6e4640000000049483045022100adde8c0d6cfe76d5cd727b0677a6cd5513e407c48f50da8d1f34a56ac83775c202201878ce459b1199b96a7e0d3aa403ff12480c6d2749a207d3ac5cd945beb2031c01ffffffff5a06aea1d48eafd53f6c91e7e51813f63b2740233a13e2e039893ad6f622e912000000004847304402206f7884689115a1dc02a3ca9ab5ce6558518139af2097e3d8c51278b7f16b43f4022025c7505f9d73121b7243600746aaec8b2639981507340e3bd94b78296b65804e01ffffffff673187bae41a81e52c8d11e321763860f02bc0e64626ac3f6bf1d9e00446582700000000484730440220590359571a680f57385e3cdb573d9fb46c8ea393b1ee66bd733571e7db2101310220717e872f87fc12bb904138af2223783f7b4e6da8a0c5e66595ec6ce7f6341a1b01ffffffff73a28fefdd8f6ade4972d1e856f100bba7d4abf85e09cdf553a8249a16e55b58000000004948304502203055fa5e02f3e690b10b3172547e45dbfdab763bcf7eed764db87b893c6f4418022100cffad12f702c2d41e7e42a35235e9a341d66b62f7f5200b5ca5f44f7a4ee18f901ffffffff0100ba1dd2050000001976a914592fc3990026334c8c6fb2b9da457179cdb5c68888ac00000000"
    },
    {
      "txid": "2e8fa683ff6777b929d38d119dc7c1e15b6a6e78629487775c659fa53765498f",
      "hash": "2e8fa683ff6777b929d38d119dc7c1e15b6a6e78629487775c659fa53765498f",
      "version": 1,
      "size": 386,
      "vsize": 386,
      "weight": 1544,
      "locktime": 0,
      "vin": [
        {
          "txid": "99442173fd7cae05c4469966fc9870c99b94d6c9784be2a80ddbb5bfd247bc0c",
          "vout": 0,
          "scriptSig": {
            "asm": "304402205d263ac23e4bfedb6ad20aec358645d209b06888b72d255298e3d4a6f7afe51a02203b9a159ef9b4545dceac6de609cebd395971c0b1ba587af7e372501983319905[ALL]",
            "hex": "47304402205d263ac23e4bfedb6ad20aec358645d209b06888b72d255298e3d4a6f7afe51a02203b9a159ef9b4545dceac6de609cebd395971c0b1ba587af7e37250198331990501"
          },
          "sequence": 4294967295
        },
        {
          "txid": "eb33de9afb823e5c99248fda80f348af96d69524811bede0f1a52f7021806885",
          "vout": 0,
          "scriptSig": {
            "asm": "30450220423a4ce5781096c654848dd946232b4eb4a042c10cee38cb32dce5439a03a8fb0221009083e662f8f244e45b4c60d90853380670f097860b9977b38f9e7aef9485de8d[ALL]",
            "hex": "4830450220423a4ce5781096c654848dd946232b4eb4a042c10cee38cb32dce5439a03a8fb0221009083e662f8f244e45b4c60d90853380670f097860b9977b38f9e7aef9485de8d01"
          },
          "sequence": 4294967295
        },
        {
          "txid": "aff9e6e35f3f45c05b4c125f2926c772d846ac4f6514e02968916a2313686eaa",
          "vout": 0,
          "scriptSig": {
            "asm": "3046022100dbe8d0b26de44eb4af6b5c34ce696d3ec35d90b091bce01d31a639c66ca61eac022100c92b4213161e99f558f4753b97d27fb67575c955296c9dbeb716ec5d930f9ba8[ALL]",
            "hex": "493046022100dbe8d0b26de44eb4af6b5c34ce696d3ec35d90b091bce01d31a639c66ca61eac022100c92b4213161e99f558f4753b97d27fb67575c955296c9dbeb716ec5d930f9ba801"
          },
          "sequence": 4294967295
        }
      ],
      "vout": [
        {
          "value": 150.0,
          "n": 0,
          "scriptPubKey": {
            "asm": "OP_DUP OP_HASH160 592fc3990026334c8c6fb2b9da457179cdb5c688 OP_EQUALVERIFY OP_CHECKSIG",
            "desc": "addr(198aMn6ZYAczwrE5NvNTUMyJ5qkfy4g3Hi)#k9ndhvwd",
            "hex": "76a914592fc3990026334c8c6fb2b9da457179cdb5c68888ac",
            "address": "198aMn6ZYAczwrE5NvNTUMyJ5qkfy4g3Hi",
            "type": "pubkeyhash"
          }
        }
      ],
      "fee": 0.0,
      "hex": "01000000030cbc47d2bfb5db0da8e24b78c9d6949bc97098fc669946c405ae7cfd73214499000000004847304402205d263ac23e4bfedb6ad20aec358645d209b06888b72d255298e3d4a6f7afe51a02203b9a159ef9b4545dceac6de609cebd395971c0b1ba587af7e37250198331990501ffffffff85688021702fa5f1e0ed1b812495d696af48f380da8f24995c3e82fb9ade33eb00000000494830450220423a4ce5781096c654848dd946232b4eb4a042c10cee38cb32dce5439a03a8fb0221009083e662f8f244e45b4c60d90853380670f097860b9977b38f9e7aef9485de8d01ffffffffaa6e6813236a916829e014654fac46d872c726295f124c5bc0453f5fe3e6f9af000000004a493046022100dbe8d0b26de44eb4af6b5c34ce696d3ec35d90b091bce01d31a639c66ca61eac022100c92b4213161e99f558f4753b97d27fb67575c955296c9dbeb716ec5d930f9ba801ffffffff0100d6117e030000001976a914592fc3990026334c8c6fb2b9da457179cdb5c68888ac00000000"
    }
  ]
}