{
  "hash": "00000000dd897971ba52271c7e007449accd23ac6be635c5c43f90dc81f1f99b",
  "confirmations": 52226,
  "height": 872,
  "version": 1,
  "versionHex": "00000001",
  "merkleroot": "07444389d2c5d91451b42926116023871e0e6f90e910215a4a468a100330ea5d",
  "time": 1232250005,
  "mediantime": 1232244991,
  "nonce": 2872043295,
  "bits": "1d00ffff",
  "difficulty": 1,
  "chainwork": "0000000000000000000000000000000000000000000000000000036903690369",
  "nTx": 1,
  "previousblockhash": "00000000a2708e0112d83a00106dfcd39a4b56f0895c8e083b030cf2897c67b7",
  "nextblockhash": "000000000ce9445d0ebebabc8342070ab85414fe926a8f30286c1e14bcb4b687",
  "strippedsize": 216,
  "size": 216,
  "weight": 864,
  "tx": [
    {
      "txid": "07444389d2c5d91451b42926116023871e0e6f90e910215a4a468a100330ea5d",
      "hash": "07444389d2c5d91451b42926116023871e0e6f90e910215a4a468a100330ea5d",
      "version": 1,
      "size": 135,
      "vsize": 135,
      "weight": 540,
      "locktime": 0,
      "vin": [
        {
          "coinbase": "04ffff001d020303",
          "sequence": 4294967295
        }
      ],
      "vout": [
        {
          "value": 50.0,
          "n": 0,
          "scriptPubKey": {
            "asm": "0479889afb0e7f62cdd4b05aafe6e66bb4211d05751271f03a842e44bc0149d15a53e904ab1a5fa797feb39bbbbdebdb6a91735105f91091c5309c68483bf5aa38 OP_CHECKSIG",
            "desc": "pk(0479889afb0e7f62cdd4b05aafe6e66bb4211d05751271f03a842e44bc0149d15a53e904ab1a5fa797feb39bbbbdebdb6a91735105f91091c5309c68483bf5aa38)#nr0xydlk",
            "hex": "410479889afb0e7f62cdd4b05aafe6e66bb4211d05751271f03a842e44bc0149d15a53e904ab1a5fa797feb39bbbbdebdb6a91735105f91091c5309c68483bf5aa38ac",
            "type": "pubkey"
          }
        }
      ],
      "hex": "01000000010000000000000000000000000000000000000000000000000000000000000000ffffffff0804ffff001d020303ffffffff0100f2052a0100000043410479889afb0e7f62cdd4b05aafe6e66bb4211d05751271f03a842e44bc0149d15a53e904ab1a5fa797feb39bbbbdebdb6a91735105f91091c5309c68483bf5aa38ac00000000"
    }
  ]
}