{
  "hash": "00000000c6b9b7f26dbd5427b2f74750cefd1401f0eba633d1eef175fc49b2cb",
  "confirmations": 45488,
  "height": 7610,
  "version": 1,
  "versionHex": "00000001",
  "merkleroot": "729db730aabfcb9e87deecdb7587771a3d650d00a82805ef1cb694fe9812abd4",
  "time": 1237174891,
  "mediantime": 1237172486,
  "nonce": 39075599,
  "bits": "1d00ffff",
  "difficulty": 1,
  "chainwork": "00000000000000000000000000000000000000000000000000001dbb1dbb1dbb",
  "nTx": 1,
  "previousblockhash": "00000000e6455a87a189166001ecd142b621227c7e54788ca23ec0a332fc3a41",
  "nextblockhash": "00000000a2aab69ec44620e839e713326eb8f8ce4a87ec6d1d2bccee72f5e2fe",
  "strippedsize": 216,
  "size": 216,
  "weight": 864,
  "tx": [
    {
      "txid": "729db730aabfcb9e87deecdb7587771a3d650d00a82805ef1cb694fe9812abd4",
      "hash": "729db730aabfcb9e87deecdb7587771a3d650d00a82805ef1cb694fe9812abd4",
      "version": 1,
      "size": 135,
      "vsize": 135,
      "weight": 540,
      "locktime": 0,
      "vin": [
        {
          "coinbase": "04ffff001d025803",
          "sequence": 4294967295
        }
      ],
      "vout": [
        {
          "value": 50.0,
          "n": 0,
          "scriptPubKey": {
            "asm": "04bcd8e9c44de6a0d0f9e9c22e9470d0ebd3f2289388441c87ce6e1b7f2a1d3b804d582826401132b111c88288c55dfa6579ccaa64899086b7634bff80a540095c OP_CHECKSIG",
            "desc": "pk(04bcd8e9c44de6a0d0f9e9c22e9470d0ebd3f2289388441c87ce6e1b7f2a1d3b804d582826401132b111c88288c55dfa6579ccaa64899086b7634bff80a540095c)#vw8l4fpm",
            "hex": "4104bcd8e9c44de6a0d0f9e9c22e9470d0ebd3f2289388441c87ce6e1b7f2a1d3b804d582826401132b111c88288c55dfa6579ccaa64899086b7634bff80a540095cac",
            "type": "pubkey"
          }
        }
      ],
      "hex": "01000000010000000000000000000000000000000000000000000000000000000000000000ffffffff0804ffff001d025803ffffffff0100f2052a01000000434104bcd8e9c44de6a0d0f9e9c22e9470d0ebd3f2289388441c87ce6e1b7f2a1d3b804d582826401132b111c88288c55dfa6579ccaa64899086b7634bff80a540095cac00000000"
    }
  ]
}