{
  "hash": "00000000df0a3616840fe1bbddac5c78ee54fb39e123655d864dad77deccb249",
  "confirmations": 49787,
  "height": 3311,
  "version": 1,
  "versionHex": "00000001",
  "merkleroot": "090f588d689a40d5c4c5349d3244e74469f202415d7490ba0897a65ee59e515b",
  "time": 1233976337,
  "mediantime": 1233972824,
  "nonce": 552711683,
  "bits": "1d00ffff",
  "difficulty": 1,
  "chainwork": "00000000000000000000000000000000000000000000000000000cf00cf00cf0",
  "nTx": 1,
  "previousblockhash": "000000009b086764feb26634176677c819d122a4c706a0cb1af68767edaa59d7",
  "nextblockhash": "0000000038ec1a8b75e443e71fd9f74da1e61d7a4137cc8cdec234c6fa4b6b24",
  "strippedsize": 216,
  "size": 216,
  "weight": 864,
  "tx": [
    {
      "txid": "090f588d689a40d5c4c5349d3244e74469f202415d7490ba0897a65ee59e515b",
      "hash": "090f588d689a40d5c4c5349d3244e74469f202415d7490ba0897a65ee59e515b",
      "version": 1,
      "size": 135,
      "vsize": 135,
      "weight": 540,
      "locktime": 0,
      "vin": [
        {
          "coinbase": "04ffff001d027204",
          "sequence": 4294967295
        }
      ],
      "vout": [
        {
          "value": 50.0,
          "n": 0,
          "scriptPubKey": {
            "asm": "04f3c226b4e1fffbaafa4b55bf5df40a7a0fbaac258a7f22721b555ee437af68a39f0c0d8c828a137fe449fc53bfc396eddb19fa75addb6950f23602873e8ef51f OP_CHECKSIG",
            "desc": "pk(04f3c226b4e1fffbaafa4b55bf5df40a7a0fbaac258a7f22721b555ee437af68a39f0c0d8c828a137fe449fc53bfc396eddb19fa75addb6950f23602873e8ef51f)#z9tfe884",
            "hex": "4104f3c226b4e1fffbaafa4b55bf5df40a7a0fbaac258a7f22721b555ee437af68a39f0c0d8c828a137fe449fc53bfc396eddb19fa75addb6950f23602873e8ef51fac",
            "type": "pubkey"
          }
        }
      ],
      "hex": "01000000010000000000000000000000000000000000000000000000000000000000000000ffffffff0804ffff001d027204ffffffff0100f2052a01000000434104f3c226b4e1fffbaafa4b55bf5df40a7a0fbaac258a7f22721b555ee437af68a39f0c0d8c828a137fe449fc53bfc396eddb19fa75addb6950f23602873e8ef51fac00000000"
    }
  ]
}