{
  "hash": "00000000e975fdbc72e2f3120a5692299a08d1119f4d31f1f78298f98f3f6b81",
  "confirmations": 43229,
  "height": 9869,
  "version": 1,
  "versionHex": "00000001",
  "merkleroot": "6251cb543af9ad9a7f69299f86212a9b67b7968a1bb2ffd5b23fd3a3c05d2d05",
  "time": 1238905734,
  "mediantime": 1238902634,
  "nonce": 4190875414,
  "bits": "1d00ffff",
  "difficulty": 1,
  "chainwork": "0000000000000000000000000000000000000000000000000000268e268e268e",
  "nTx": 1,
  "previousblockhash": "00000000dcab851d8c02e5bf448c9c3e778ed197739979713d12ba7447ba8005",
  "nextblockhash": "00000000f2c4d9b29a159aea94962590b23485560002754f850b77931a5e075e",
  "strippedsize": 216,
  "size": 216,
  "weight": 864,
  "tx": [
    {
      "txid": "6251cb543af9ad9a7f69299f86212a9b67b7968a1bb2ffd5b23fd3a3c05d2d05",
      "hash": "6251cb543af9ad9a7f69299f86212a9b67b7968a1bb2ffd5b23fd3a3c05d2d05",
      "version": 1,
      "size": 135,
      "vsize": 135,
      "weight": 540,
      "locktime": 0,
      "vin": [
        {
          "coinbase": "04ffff001d02a401",
          "sequence": 4294967295
        }
      ],
      "vout": [
        {
          "value": 50.0,
          "n": 0,
          "scriptPubKey": {
            "asm": "04652ee29fe51ce1ad79544af04e23df05328ba3e9be15f318b655c81ebca0aa172fffef056391c4de066938380c7b15cf41960649dcba726bf6ef402806ef831d OP_CHECKSIG",
            "desc": "pk(04652ee29fe51ce1ad79544af04e23df05328ba3e9be15f318b655c81ebca0aa172fffef056391c4de066938380c7b15cf41960649dcba726bf6ef402806ef831d)#mgukk3qy",
            "hex": "4104652ee29fe51ce1ad79544af04e23df05328ba3e9be15f318b655c81ebca0aa172fffef056391c4de066938380c7b15cf41960649dcba726bf6ef402806ef831dac",
            "type": "pubkey"
          }
        }
      ],
      "hex": "01000000010000000000000000000000000000000000000000000000000000000000000000ffffffff0804ffff001d02a401ffffffff0100f2052a01000000434104652ee29fe51ce1ad79544af04e23df05328ba3e9be15f318b655c81ebca0aa172fffef056391c4de066938380c7b15cf41960649dcba726bf6ef402806ef831dac00000000"
    }
  ]
}