{
  "hash": "0000000015559531952fa7908718ede81c33efad510e8b18c4ffe8ded5764b85",
  "confirmations": 46083,
  "height": 7015,
  "version": 1,
  "versionHex": "00000001",
  "merkleroot": "0d6ef32e6b753ef140531b3ca0d5b0ed67dc37c0ae146a8d22efb0a004912c53",
  "time": 1236729825,
  "mediantime": 1236726582,
  "nonce": 48275570,
  "bits": "1d00ffff",
  "difficulty": 1,
  "chainwork": "00000000000000000000000000000000000000000000000000001b681b681b68",
  "nTx": 1,
  "previousblockhash": "00000000c02cea79e7a14c92a7ebdc0a3ce377088df5bab6ce84d4ef871be01f",
  "nextblockhash": "000000009eec68dffd9349e4df77d9573f103795be393558f331051be1523671",
  "strippedsize": 216,
  "size": 216,
  "weight": 864,
  "tx": [
    {
      "txid": "0d6ef32e6b753ef140531b3ca0d5b0ed67dc37c0ae146a8d22efb0a004912c53",
      "hash": "0d6ef32e6b753ef140531b3ca0d5b0ed67dc37c0ae146a8d22efb0a004912c53",
      "version": 1,
      "size": 135,
      "vsize": 135,
      "weight": 540,
      "locktime": 0,
      "vin": [
        {
          "coinbase": "04ffff001d02b100",
          "sequence": 4294967295
        }
      ],
      "vout": [
        {
          "value": 50.0,
          "n": 0,
          "scriptPubKey": {
            "asm": "04eb0a6d8f7ab3123a091c1f9c88a6d19bb800a786cc73cec4b4a0c733e80bfcb92c1c41b4223ee2189ead4a0f0da1c633da2550439acb5f680c666be7eb3933fd OP_CHECKSIG",
            "desc": "pk(04eb0a6d8f7ab3123a091c1f9c88a6d19bb800a786cc73cec4b4a0c733e80bfcb92c1c41b4223ee2189ead4a0f0da1c633da2550439acb5f680c666be7eb3933fd)#evjevnum",
            "hex": "4104eb0a6d8f7ab3123a091c1f9c88a6d19bb800a786cc73cec4b4a0c733e80bfcb92c1c41b4223ee2189ead4a0f0da1c633da2550439acb5f680c666be7eb3933fdac",
            "type": "pubkey"
          }
        }
      ],
      "hex": "01000000010000000000000000000000000000000000000000000000000000000000000000ffffffff0804ffff001d02b100ffffffff0100f2052a01000000434104eb0a6d8f7ab3123a091c1f9c88a6d19bb800a786cc73cec4b4a0c733e80bfcb92c1c41b4223ee2189ead4a0f0da1c633da2550439acb5f680c666be7eb3933fdac00000000"
    }
  ]
}