{
  "hash": "00000000b7116161c85d3b8cbbc147f5fa841a6506a7da03e9173fb4c04deae4",
  "confirmations": 51633,
  "height": 1465,
  "version": 1,
  "versionHex": "00000001",
  "merkleroot": "c72d7d7c93c6d0070e4a1310ddf993e0f909e33a16c91c437a8f71ea40ec06ff",
  "time": 1232753217,
  "mediantime": 1232751181,
  "nonce": 4050106406,
  "bits": "1d00ffff",
  "difficulty": 1,
  "chainwork": "000000000000000000000000000000000000000000000000000005ba05ba05ba",
  "nTx": 1,
  "previousblockhash": "00000000ce8c52b0de848862ffbb838d8f6786072cc2a52289cb75b9809e73f8",
  "nextblockhash": "000000002a3be77c2d13aaa76aa74f8c6a0395230c0664b932b3790305f2214f",
  "strippedsize": 216,
  "size": 216,
  "weight": 864,
  "tx": [
    {
      "txid": "c72d7d7c93c6d0070e4a1310ddf993e0f909e33a16c91c437a8f71ea40ec06ff",
      "hash": "c72d7d7c93c6d0070e4a1310ddf993e0f909e33a16c91c437a8f71ea40ec06ff",
      "version": 1,
      "size": 135,
      "vsize": 135,
      "weight": 540,
      "locktime": 0,
      "vin": [
        {
          "coinbase": "04ffff001d02e600",
          "sequence": 4294967295
        }
      ],
      "vout": [
        {
          "value": 50.0,
          "n": 0,
          "scriptPubKey": {
            "asm": "0475b6948f586024be62ffffcdad95acc2557aba2fbc7c40901b4396467d8ee8ffbef5a0ba9830e982b836312a5084771e6fd2b9beba327fba740f0c1865bca98a OP_CHECKSIG",
            "desc": "pk(0475b6948f586024be62ffffcdad95acc2557aba2fbc7c40901b4396467d8ee8ffbef5a0ba9830e982b836312a5084771e6fd2b9beba327fba740f0c1865bca98a)#pka58yec",
            "hex": "410475b6948f586024be62ffffcdad95acc2557aba2fbc7c40901b4396467d8ee8ffbef5a0ba9830e982b836312a5084771e6fd2b9beba327fba740f0c1865bca98aac",
            "type": "pubkey"
          }
        }
      ],
      "hex": "01000000010000000000000000000000000000000000000000000000000000000000000000ffffffff0804ffff001d02e600ffffffff0100f2052a0100000043410475b6948f586024be62ffffcdad95acc2557aba2fbc7c40901b4396467d8ee8ffbef5a0ba9830e982b836312a5084771e6fd2b9beba327fba740f0c1865bca98aac00000000"
    }
  ]
}