{
  "hash": "00000000d8329d19dc2c16ef9f2c6b060e52d363c3d7f41c77632f6765b87859",
  "confirmations": 50771,
  "height": 2327,
  "version": 1,
  "versionHex": "00000001",
  "merkleroot": "47e8e623788ef854f0600bf94baf0afe35d8248e806c3e11be460df5733e234a",
  "time": 1233300285,
  "mediantime": 1233296767,
  "nonce": 317358518,
  "bits": "1d00ffff",
  "difficulty": 1,
  "chainwork": "0000000000000000000000000000000000000000000000000000091809180918",
  "nTx": 1,
  "previousblockhash": "0000000014a9f7ae544cbb2bd87caa15abd342687c0a70e125cf4e65a48a79c2",
  "nextblockhash": "0000000091a3058f4ac09246f2fafcefd2502ed6fa2182a5b7d5ed59f12cc4a3",
  "strippedsize": 216,
  "size": 216,
  "weight": 864,
  "tx": [
    {
      "txid": "47e8e623788ef854f0600bf94baf0afe35d8248e806c3e11be460df5733e234a",
      "hash": "47e8e623788ef854f0600bf94baf0afe35d8248e806c3e11be460df5733e234a",
      "version": 1,
      "size": 135,
      "vsize": 135,
      "weight": 540,
      "locktime": 0,
      "vin": [
        {
          "coinbase": "04ffff001d029001",
          "sequence": 4294967295
        }
      ],
      "vout": [
        {
          "value": 50.0,
          "n": 0,
          "scriptPubKey": {
            "asm": "04924bade96878bd6241a5200e5a68711e6b475384999cc72aebb88721ab771f58c464152e6906f10908837dd853cf9b36ce6c07d42e138b8d790301767c1490fe OP_CHECKSIG",
            "desc": "pk(04924bade96878bd6241a5200e5a68711e6b475384999cc72aebb88721ab771f58c464152e6906f10908837dd853cf9b36ce6c07d42e138b8d790301767c1490fe)#2vhncddx",
            "hex": "4104924bade96878bd6241a5200e5a68711e6b475384999cc72aebb88721ab771f58c464152e6906f10908837dd853cf9b36ce6c07d42e138b8d790301767c1490feac",
            "type": "pubkey"
          }
        }
      ],
      "hex": "01000000010000000000000000000000000000000000000000000000000000000000000000ffffffff0804ffff001d029001ffffffff0100f2052a01000000434104924bade96878bd6241a5200e5a68711e6b475384999cc72aebb88721ab771f58c464152e6906f10908837dd853cf9b36ce6c07d42e138b8d790301767c1490feac00000000"
    }
  ]
}