{
  "hash": "00000000238e8850d1e9cfc702e5ca08e8ad95500bc811f1103a70c61d8cc26c",
  "confirmations": 45231,
  "height": 7867,
  "version": 1,
  "versionHex": "00000001",
  "merkleroot": "f8b7d6abbf6c4080eb8db75078ebe7b00efacbaeabea6db9565cefb5aa1e3f35",
  "time": 1237365547,
  "mediantime": 1237360568,
  "nonce": 3548594179,
  "bits": "1d00ffff",
  "difficulty": 1,
  "chainwork": "00000000000000000000000000000000000000000000000000001ebc1ebc1ebc",
  "nTx": 1,
  "previousblockhash": "00000000af9ecd4de95e6f92a55106c7b2a78161fdb71531497f0328b42cc14b",
  "nextblockhash": "000000003e31f902e3512f075ff97c5ffb9bfd1fd9dbe560b08f37214a89e705",
  "strippedsize": 216,
  "size": 216,
  "weight": 864,
  "tx": [
    {
      "txid": "f8b7d6abbf6c4080eb8db75078ebe7b00efacbaeabea6db9565cefb5aa1e3f35",
      "hash": "f8b7d6abbf6c4080eb8db75078ebe7b00efacbaeabea6db9565cefb5aa1e3f35",
      "version": 1,
      "size": 135,
      "vsize": 135,
      "weight": 540,
      "locktime": 0,
      "vin": [
        {
          "coinbase": "04ffff001d020507",
          "sequence": 4294967295
        }
      ],
      "vout": [
        {
          "value": 50.0,
          "n": 0,
          "scriptPubKey": {
            "asm": "046f159b133bc75e8d00775f72b60968668b9ea0025bae47b0e511061fe4c42b6a1431f68dac1302d7b4014896975371225cfe588b250fa7e38651fd1af85c6e79 OP_CHECKSIG",
            "desc": "pk(046f159b133bc75e8d00775f72b60968668b9ea0025bae47b0e511061fe4c42b6a1431f68dac1302d7b4014896975371225cfe588b250fa7e38651fd1af85c6e79)#h75vcu8y",
            "hex": "41046f159b133bc75e8d00775f72b60968668b9ea0025bae47b0e511061fe4c42b6a1431f68dac1302d7b4014896975371225cfe588b250fa7e38651fd1af85c6e79ac",
            "type": "pubkey"
          }
        }
      ],
      "hex": "01000000010000000000000000000000000000000000000000000000000000000000000000ffffffff0804ffff001d020507ffffffff0100f2052a010000004341046f159b133bc75e8d00775f72b60968668b9ea0025bae47b0e511061fe4c42b6a1431f68dac1302d7b4014896975371225cfe588b250fa7e38651fd1af85c6e79ac00000000"
    }
  ]
}