{
  "hash": "00000000a99f42c001b1f548f97d17865ca930426dfa034d2ccb569ff029f0dd",
  "confirmations": 44801,
  "height": 8297,
  "version": 1,
  "versionHex": "00000001",
  "merkleroot": "1c365c60d9936a91e16c2da8d540d0b18f7517930ecc99ed6c9cc33adb36774e",
  "time": 1237728629,
  "mediantime": 1237724839,
  "nonce": 340009229,
  "bits": "1d00ffff",
  "difficulty": 1,
  "chainwork": "0000000000000000000000000000000000000000000000000000206a206a206a",
  "nTx": 1,
  "previousblockhash": "00000000f4d669b83791d914f8d23fac895f1e248da856082078bcad41669b0e",
  "nextblockhash": "00000000814a9380e070a26c717b5611bfbd0c5e3e91fc3b4424d5af9c3e8bae",
  "strippedsize": 216,
  "size": 216,
  "weight": 864,
  "tx": [
    {
      "txid": "1c365c60d9936a91e16c2da8d540d0b18f7517930ecc99ed6c9cc33adb36774e",
      "hash": "1c365c60d9936a91e16c2da8d540d0b18f7517930ecc99ed6c9cc33adb36774e",
      "version": 1,
      "size": 135,
      "vsize": 135,
      "weight": 540,
      "locktime": 0,
      "vin": [
        {
          "coinbase": "04ffff001d023001",
          "sequence": 4294967295
        }
      ],
      "vout": [
        {
          "value": 50.0,
          "n": 0,
          "scriptPubKey": {
            "asm": "040b3c1fc93b410b32e0d47e75bacb17188ad61ab969341ddbf0287345df6e701178bf305a7baf03e4db9b99fcfd7b4b19de9ac69e1306174fcae89cc9c5a0cd3d OP_CHECKSIG",
            "desc": "pk(040b3c1fc93b410b32e0d47e75bacb17188ad61ab969341ddbf0287345df6e701178bf305a7baf03e4db9b99fcfd7b4b19de9ac69e1306174fcae89cc9c5a0cd3d)#u2yhkgcc",
            "hex": "41040b3c1fc93b410b32e0d47e75bacb17188ad61ab969341ddbf0287345df6e701178bf305a7baf03e4db9b99fcfd7b4b19de9ac69e1306174fcae89cc9c5a0cd3dac",
            "type": "pubkey"
          }
        }
      ],
      "hex": "01000000010000000000000000000000000000000000000000000000000000000000000000ffffffff0804ffff001d023001ffffffff0100f2052a010000004341040b3c1fc93b410b32e0d47e75bacb17188ad61ab969341ddbf0287345df6e701178bf305a7baf03e4db9b99fcfd7b4b19de9ac69e1306174fcae89cc9c5a0cd3dac00000000"
    }
  ]
}