{
  "hash": "00000000d764cad472fd749956c02ee590068f3c97a40dc251f728e39459ea14",
  "confirmations": 50409,
  "height": 2689,
  "version": 1,
  "versionHex": "00000001",
  "merkleroot": "d1b3281151eb9505605979cd1ad06617939052468f9537a6df2f33539f5eb5c9",
  "time": 1233554542,
  "mediantime": 1233552221,
  "nonce": 1023655187,
  "bits": "1d00ffff",
  "difficulty": 1,
  "chainwork": "00000000000000000000000000000000000000000000000000000a820a820a82",
  "nTx": 1,
  "previousblockhash": "000000003c03dd141b4192065af0a504c78504c0fdf4998321c884982de35ac1",
  "nextblockhash": "000000008f0480e98ef05c47c0f7acf37501caf8e07a961c2c0e30add9778236",
  "strippedsize": 216,
  "size": 216,
  "weight": 864,
  "tx": [
    {
      "txid": "d1b3281151eb9505605979cd1ad06617939052468f9537a6df2f33539f5eb5c9",
      "hash": "d1b3281151eb9505605979cd1ad06617939052468f9537a6df2f33539f5eb5c9",
      "version": 1,
      "size": 135,
      "vsize": 135,
      "weight": 540,
      "locktime": 0,
      "vin": [
        {
          "coinbase": "04ffff001d028e04",
          "sequence": 4294967295
        }
      ],
      "vout": [
        {
          "value": 50.0,
          "n": 0,
          "scriptPubKey": {
            "asm": "043ddac7af875da6a2babc23b6b8d757b6ca96157c5cbb9102e1fe1f1187854e827144f8d7bea324d2e8e504f35f97b1bb28ac65b7a6a25d65cfba1b5a9a699828 OP_CHECKSIG",
            "desc": "pk(043ddac7af875da6a2babc23b6b8d757b6ca96157c5cbb9102e1fe1f1187854e827144f8d7bea324d2e8e504f35f97b1bb28ac65b7a6a25d65cfba1b5a9a699828)#nj40w5ym",
            "hex": "41043ddac7af875da6a2babc23b6b8d757b6ca96157c5cbb9102e1fe1f1187854e827144f8d7bea324d2e8e504f35f97b1bb28ac65b7a6a25d65cfba1b5a9a699828ac",
            "type": "pubkey"
          }
        }
      ],
      "hex": "01000000010000000000000000000000000000000000000000000000000000000000000000ffffffff0804ffff001d028e04ffffffff0100f2052a010000004341043ddac7af875da6a2babc23b6b8d757b6ca96157c5cbb9102e1fe1f1187854e827144f8d7bea324d2e8e504f35f97b1bb28ac65b7a6a25d65cfba1b5a9a699828ac00000000"
    }
  ]
}