{
  "hash": "00000000ce994756d3a4f36c998fe95f58bda4f196fbf90b7990079f103e7b76",
  "confirmations": 48325,
  "height": 4773,
  "version": 1,
  "versionHex": "00000001",
  "merkleroot": "d3232cb99d4221b9dbe034a64a8fbe69bb8dd82ce288d9b6f9670fb458515f18",
  "time": 1234977362,
  "mediantime": 1234974736,
  "nonce": 153597619,
  "bits": "1d00ffff",
  "difficulty": 1,
  "chainwork": "000000000000000000000000000000000000000000000000000012a612a612a6",
  "nTx": 1,
  "previousblockhash": "00000000d3774a7e7996feb4710590057f04ead5e3f41d901961f8c0d7d91b60",
  "nextblockhash": "00000000f1cae4de7db10b9ab37548ff588c5a369e4b65d4e0d140bec2094910",
  "strippedsize": 216,
  "size": 216,
  "weight": 864,
  "tx": [
    {
      "txid": "d3232cb99d4221b9dbe034a64a8fbe69bb8dd82ce288d9b6f9670fb458515f18",
      "hash": "d3232cb99d4221b9dbe034a64a8fbe69bb8dd82ce288d9b6f9670fb458515f18",
      "version": 1,
      "size": 135,
      "vsize": 135,
      "weight": 540,
      "locktime": 0,
      "vin": [
        {
          "coinbase": "04ffff001d02f100",
          "sequence": 4294967295
        }
      ],
      "vout": [
        {
          "value": 50.0,
          "n": 0,
          "scriptPubKey": {
            "asm": "04a90baca65f9cc427a46e4f1da0e099d0a7d5466ecfabe63bca87cde227fbec708ade1e534a132df4b7629a3a1c6fe99867aaeb560e22b92ab8b2b2697efd8f57 OP_CHECKSIG",
            "desc": "pk(04a90baca65f9cc427a46e4f1da0e099d0a7d5466ecfabe63bca87cde227fbec708ade1e534a132df4b7629a3a1c6fe99867aaeb560e22b92ab8b2b2697efd8f57)#t4h0mpff",
            "hex": "4104a90baca65f9cc427a46e4f1da0e099d0a7d5466ecfabe63bca87cde227fbec708ade1e534a132df4b7629a3a1c6fe99867aaeb560e22b92ab8b2b2697efd8f57ac",
            "type": "pubkey"
          }
        }
      ],
      "hex": "01000000010000000000000000000000000000000000000000000000000000000000000000ffffffff0804ffff001d02f100ffffffff0100f2052a01000000434104a90baca65f9cc427a46e4f1da0e099d0a7d5466ecfabe63bca87cde227fbec708ade1e534a132df4b7629a3a1c6fe99867aaeb560e22b92ab8b2b2697efd8f57ac00000000"
    }
  ]
}