{
  "hash": "00000000901b87d55132395401d2c3786df02654890c9506101c39a918c2730c",
  "confirmations": 52169,
  "height": 929,
  "version": 1,
  "versionHex": "00000001",
  "merkleroot": "56895ea1f357bd7d71e000e547218eed488ea4f2ed2e1a97a1baa826e18f33a5",
  "time": 1232298650,
  "mediantime": 1232294687,
  "nonce": 4034268937,
  "bits": "1d00ffff",
  "difficulty": 1,
  "chainwork": "000000000000000000000000000000000000000000000000000003a203a203a2",
  "nTx": 1,
  "previousblockhash": "00000000058404b3cd08c57cb15574861bf686353ef7e100abe6ca9994133eed",
  "nextblockhash": "0000000042e0f3fb820bbb0eb033d0e3ea6ac8a22244100442b47b421c15eafb",
  "strippedsize": 216,
  "size": 216,
  "weight": 864,
  "tx": [
    {
      "txid": "56895ea1f357bd7d71e000e547218eed488ea4f2ed2e1a97a1baa826e18f33a5",
      "hash": "56895ea1f357bd7d71e000e547218eed488ea4f2ed2e1a97a1baa826e18f33a5",
      "version": 1,
      "size": 135,
      "vsize": 135,
      "weight": 540,
      "locktime": 0,
      "vin": [
        {
          "coinbase": "04ffff001d021004",
          "sequence": 4294967295
        }
      ],
      "vout": [
        {
          "value": 50.0,
          "n": 0,
          "scriptPubKey": {
            "asm": "0433df8401f762469bd50ab4a9862633053ff2806fd275562fb71bbe5de11ce445a685ffc950b277ae0929867b88d63ba43c6bc2bd730290acc11713a5b132e932 OP_CHECKSIG",
            "desc": "pk(0433df8401f762469bd50ab4a9862633053ff2806fd275562fb71bbe5de11ce445a685ffc950b277ae0929867b88d63ba43c6bc2bd730290acc11713a5b132e932)#4ugj74et",
            "hex": "410433df8401f762469bd50ab4a9862633053ff2806fd275562fb71bbe5de11ce445a685ffc950b277ae0929867b88d63ba43c6bc2bd730290acc11713a5b132e932ac",
            "type": "pubkey"
          }
        }
      ],
      "hex": "01000000010000000000000000000000000000000000000000000000000000000000000000ffffffff0804ffff001d021004ffffffff0100f2052a0100000043410433df8401f762469bd50ab4a9862633053ff2806fd275562fb71bbe5de11ce445a685ffc950b277ae0929867b88d63ba43c6bc2bd730290acc11713a5b132e932ac00000000"
    }
  ]
}