{
  "hash": "0000000047e2deb17c9084a5940152048a485c04e7b85145eb58d001c641c89b",
  "confirmations": 51878,
  "height": 1220,
  "version": 1,
  "versionHex": "00000001",
  "merkleroot": "f72efe6c9cd27fc0f2fc2a2d6f7e2808d345f3bde42ff63d6de83c7addc412c3",
  "time": 1232515122,
  "mediantime": 1232512266,
  "nonce": 341910064,
  "bits": "1d00ffff",
  "difficulty": 1,
  "chainwork": "000000000000000000000000000000000000000000000000000004c504c504c5",
  "nTx": 1,
  "previousblockhash": "00000000924e36aed155fe03fdfb5e351ab618c7815815350cd21c0bf5a05693",
  "nextblockhash": "0000000073996a70dcbd4dff31d247bf4e5d2639bd7f7b417b131114ae0c9c9b",
  "strippedsize": 216,
  "size": 216,
  "weight": 864,
  "tx": [
    {
      "txid": "f72efe6c9cd27fc0f2fc2a2d6f7e2808d345f3bde42ff63d6de83c7addc412c3",
      "hash": "f72efe6c9cd27fc0f2fc2a2d6f7e2808d345f3bde42ff63d6de83c7addc412c3",
      "version": 1,
      "size": 135,
      "vsize": 135,
      "weight": 540,
      "locktime": 0,
      "vin": [
        {
          "coinbase": "04ffff001d02ef08",
          "sequence": 4294967295
        }
      ],
      "vout": [
        {
          "value": 50.0,
          "n": 0,
          "scriptPubKey": {
            "asm": "04aa747aaf1ed370c18e37a507103f22657f3180c36175dd499ed7391b04ea5aa9a0e0c53649fec5c4d397103cc552e6a197d1ee1a6c870b924eccec9b3cd84c2d OP_CHECKSIG",
            "desc": "pk(04aa747aaf1ed370c18e37a507103f22657f3180c36175dd499ed7391b04ea5aa9a0e0c53649fec5c4d397103cc552e6a197d1ee1a6c870b924eccec9b3cd84c2d)#p8y3sdgn",
            "hex": "4104aa747aaf1ed370c18e37a507103f22657f3180c36175dd499ed7391b04ea5aa9a0e0c53649fec5c4d397103cc552e6a197d1ee1a6c870b924eccec9b3cd84c2dac",
            "type": "pubkey"
          }
        }
      ],
      "hex": "01000000010000000000000000000000000000000000000000000000000000000000000000ffffffff0804ffff001d02ef08ffffffff0100f2052a01000000434104aa747aaf1ed370c18e37a507103f22657f3180c36175dd499ed7391b04ea5aa9a0e0c53649fec5c4d397103cc552e6a197d1ee1a6c870b924eccec9b3cd84c2dac00000000"
    }
  ]
}