{
  "hash": "0000000054584932c3ac880b5dab1d76043eeb5df437ef468f627791cb1541f3",
  "confirmations": 52020,
  "height": 118,
  "version": 1,
  "versionHex": "00000001",
  "merkleroot": "4451cf99a232a9f43f7726989789a4fa62e4ab14af507cbe864bf9bac64281c2",
  "time": 1231673484,
  "mediantime": 1231670975,
  "nonce": 819593243,
  "bits": "1d00ffff",
  "difficulty": 1,
  "chainwork": "0000000000000000000000000000000000000000000000000000007700770077",
  "nTx": 1,
  "previousblockhash": "0000000099bf32f17e8d5103e990c108c6f2caa6bd17283a77ca026a8c3bc4c8",
  "nextblockhash": "00000000874690df6c40179f473fbe73aca69963823cc6b886e250bae690466a",
  "strippedsize": 216,
  "size": 216,
  "weight": 864,
  "tx": [
    {
      "txid": "4451cf99a232a9f43f7726989789a4fa62e4ab14af507cbe864bf9bac64281c2",
      "hash": "4451cf99a232a9f43f7726989789a4fa62e4ab14af507cbe864bf9bac64281c2",
      "version": 1,
      "size": 135,
      "vsize": 135,
      "weight": 540,
      "locktime": 0,
      "vin": [
        {
          "coinbase": "04ffff001d02bf00",
          "sequence": 4294967295
        }
      ],
      "vout": [
        {
          "value": 50.0,
          "n": 0,
          "scriptPubKey": {
            "asm": "04e6ee7fdd0e774bd612f713f46383da9a6a9d101f5a2c0f3fd7b370e0bbf016265466e06e0f9339882b6ef217e3f0cc319cbbddc604fbd70da4fb17f1ece3de85 OP_CHECKSIG",
            "desc": "pk(04e6ee7fdd0e774bd612f713f46383da9a6a9d101f5a2c0f3fd7b370e0bbf016265466e06e0f9339882b6ef217e3f0cc319cbbddc604fbd70da4fb17f1ece3de85)#f6cx9ksl",
            "hex": "4104e6ee7fdd0e774bd612f713f46383da9a6a9d101f5a2c0f3fd7b370e0bbf016265466e06e0f9339882b6ef217e3f0cc319cbbddc604fbd70da4fb17f1ece3de85ac",
            "type": "pubkey"
          }
        }
      ],
      "hex": "01000000010000000000000000000000000000000000000000000000000000000000000000ffffffff0804ffff001d02bf00ffffffff0100f2052a01000000434104e6ee7fdd0e774bd612f713f46383da9a6a9d101f5a2c0f3fd7b370e0bbf016265466e06e0f9339882b6ef217e3f0cc319cbbddc604fbd70da4fb17f1ece3de85ac00000000"
    }
  ]
}