{
  "hash": "00000000a271dfb84bc49f55e82fe20430551b0d87a3e6da78503eb1377c1049",
  "confirmations": 48561,
  "height": 4537,
  "version": 1,
  "versionHex": "00000001",
  "merkleroot": "3d19188c85cb41033a57d46b030f959f92049904e5be4bca7d9e24b106a0a075",
  "time": 1234808158,
  "mediantime": 1234805559,
  "nonce": 1301916200,
  "bits": "1d00ffff",
  "difficulty": 1,
  "chainwork": "000000000000000000000000000000000000000000000000000011ba11ba11ba",
  "nTx": 1,
  "previousblockhash": "00000000381e36e5e3949bac6c7c767413d34f295b9f88f8503cec52835b96b9",
  "nextblockhash": "00000000537a6d01c06340cf6ed680d684654753cceb01407bd2b74240718958",
  "strippedsize": 216,
  "size": 216,
  "weight": 864,
  "tx": [
    {
      "txid": "3d19188c85cb41033a57d46b030f959f92049904e5be4bca7d9e24b106a0a075",
      "hash": "3d19188c85cb41033a57d46b030f959f92049904e5be4bca7d9e24b106a0a075",
      "version": 1,
      "size": 135,
      "vsize": 135,
      "weight": 540,
      "locktime": 0,
      "vin": [
        {
          "coinbase": "04ffff001d025f03",
          "sequence": 4294967295
        }
      ],
      "vout": [
        {
          "value": 50.0,
          "n": 0,
          "scriptPubKey": {
            "asm": "045559a34e6a04c2f14812ba37d598c2682273b321bc3c7d474e4110694ddfb6ea3a964bdfe50d7607837554401c4441b96cac4b2ea58f7ad495453f6e73bf5b9a OP_CHECKSIG",
            "desc": "pk(045559a34e6a04c2f14812ba37d598c2682273b321bc3c7d474e4110694ddfb6ea3a964bdfe50d7607837554401c4441b96cac4b2ea58f7ad495453f6e73bf5b9a)#gv345a3r",
            "hex": "41045559a34e6a04c2f14812ba37d598c2682273b321bc3c7d474e4110694ddfb6ea3a964bdfe50d7607837554401c4441b96cac4b2ea58f7ad495453f6e73bf5b9aac",
            "type": "pubkey"
          }
        }
      ],
      "hex": "01000000010000000000000000000000000000000000000000000000000000000000000000ffffffff0804ffff001d025f03ffffffff0100f2052a010000004341045559a34e6a04c2f14812ba37d598c2682273b321bc3c7d474e4110694ddfb6ea3a964bdfe50d7607837554401c4441b96cac4b2ea58f7ad495453f6e73bf5b9aac00000000"
    }
  ]
}