{
  "hash": "00000000132fdc7b2f097e38cb7dda2f09009c29c07589bff06552234008e2ae",
  "confirmations": 45085,
  "height": 8013,
  "version": 1,
  "versionHex": "00000001",
  "merkleroot": "2145885e54609c6d6d360135a58ca9019124b5c9720453bb20245b2fee8204ef",
  "time": 1237471985,
  "mediantime": 1237466350,
  "nonce": 2044646430,
  "bits": "1d00ffff",
  "difficulty": 1,
  "chainwork": "00000000000000000000000000000000000000000000000000001f4e1f4e1f4e",
  "nTx": 1,
  "previousblockhash": "00000000389992a4f3d04b294470e22d45677c8ea45acb95cbfa71ffb468d779",
  "nextblockhash": "000000008c8cca37b7e89e304e16581689df87c9a6440f132dacfb08086036b3",
  "strippedsize": 216,
  "size": 216,
  "weight": 864,
  "tx": [
    {
      "txid": "2145885e54609c6d6d360135a58ca9019124b5c9720453bb20245b2fee8204ef",
      "hash": "2145885e54609c6d6d360135a58ca9019124b5c9720453bb20245b2fee8204ef",
      "version": 1,
      "size": 135,
      "vsize": 135,
      "weight": 540,
      "locktime": 0,
      "vin": [
        {
          "coinbase": "04ffff001d02be09",
          "sequence": 4294967295
        }
      ],
      "vout": [
        {
          "value": 50.0,
          "n": 0,
          "scriptPubKey": {
            "asm": "04e8ceb5e80e7582a61307233e33892f8e7a562a476ad1e3f46d10e3e1e1cf9ff74d6e43c541f7b8f7f94fa62ceb2f793cbe7ffbac42b53f50148e7524d09e0aef OP_CHECKSIG",
            "desc": "pk(04e8ceb5e80e7582a61307233e33892f8e7a562a476ad1e3f46d10e3e1e1cf9ff74d6e43c541f7b8f7f94fa62ceb2f793cbe7ffbac42b53f50148e7524d09e0aef)#cc04qd7z",
            "hex": "4104e8ceb5e80e7582a61307233e33892f8e7a562a476ad1e3f46d10e3e1e1cf9ff74d6e43c541f7b8f7f94fa62ceb2f793cbe7ffbac42b53f50148e7524d09e0aefac",
            "type": "pubkey"
          }
        }
      ],
      "hex": "01000000010000000000000000000000000000000000000000000000000000000000000000ffffffff0804ffff001d02be09ffffffff0100f2052a01000000434104e8ceb5e80e7582a61307233e33892f8e7a562a476ad1e3f46d10e3e1e1cf9ff74d6e43c541f7b8f7f94fa62ceb2f793cbe7ffbac42b53f50148e7524d09e0aefac00000000"
    }
  ]
}