{
  "hash": "00000000710587f7287724069f6e9c0266cac0fd334435efe8af228b7d9269a2",
  "confirmations": 44029,
  "height": 9069,
  "version": 1,
  "versionHex": "00000001",
  "merkleroot": "250df25fdf7ec75205343910f25f54e39d87c41526c9091d23b992357394525d",
  "time": 1238310477,
  "mediantime": 1238305670,
  "nonce": 470093313,
  "bits": "1d00ffff",
  "difficulty": 1,
  "chainwork": "0000000000000000000000000000000000000000000000000000236e236e236e",
  "nTx": 1,
  "previousblockhash": "000000002dd130f8c71b6daaf45d330e9fee8b0b48bd35d8400f17de41769313",
  "nextblockhash": "000000008a7dce4e8860ea16a68932b492dacadf2f093a066e535c581b7ee402",
  "strippedsize": 216,
  "size": 216,
  "weight": 864,
  "tx": [
    {
      "txid": "250df25fdf7ec75205343910f25f54e39d87c41526c9091d23b992357394525d",
      "hash": "250df25fdf7ec75205343910f25f54e39d87c41526c9091d23b992357394525d",
      "version": 1,
      "size": 135,
      "vsize": 135,
      "weight": 540,
      "locktime": 0,
      "vin": [
        {
          "coinbase": "04ffff001d02b407",
          "sequence": 4294967295
        }
      ],
      "vout": [
        {
          "value": 50.0,
          "n": 0,
          "scriptPubKey": {
            "asm": "044520e87a8acd70fc852119aa5d29cb661e42561d4c3d3c5f904759a1911500a1bfdb9d194b061d3b03205250882fd8819d8f40f5c9afd18488202c81100c3781 OP_CHECKSIG",
            "desc": "pk(044520e87a8acd70fc852119aa5d29cb661e42561d4c3d3c5f904759a1911500a1bfdb9d194b061d3b03205250882fd8819d8f40f5c9afd18488202c81100c3781)#64fz2dgq",
            "hex": "41044520e87a8acd70fc852119aa5d29cb661e42561d4c3d3c5f904759a1911500a1bfdb9d194b061d3b03205250882fd8819d8f40f5c9afd18488202c81100c3781ac",
            "type": "pubkey"
          }
        }
      ],
      "hex": "01000000010000000000000000000000000000000000000000000000000000000000000000ffffffff0804ffff001d02b407ffffffff0100f2052a010000004341044520e87a8acd70fc852119aa5d29cb661e42561d4c3d3c5f904759a1911500a1bfdb9d194b061d3b03205250882fd8819d8f40f5c9afd18488202c81100c3781ac00000000"
    }
  ]
}