{
  "hash": "00000000ce16d4c34cde797cebdca5e499dc20526eb066db402f14bccc1e42cf",
  "confirmations": 49341,
  "height": 3757,
  "version": 1,
  "versionHex": "00000001",
  "merkleroot": "7146560df9dcf9386f9af625c365a5c9a1b201498088948ee9e77f3529d450f8",
  "time": 1234277044,
  "mediantime": 1234273347,
  "nonce": 290791966,
  "bits": "1d00ffff",
  "difficulty": 1,
  "chainwork": "00000000000000000000000000000000000000000000000000000eae0eae0eae",
  "nTx": 1,
  "previousblockhash": "0000000003037afa6325b8dc63f67d61b8d0803348b7ec6401a3d49c552c7a6f",
  "nextblockhash": "00000000429ef09d41cc04d732007565fb6664a5664bf7dcc09715c990810ecd",
  "strippedsize": 216,
  "size": 216,
  "weight": 864,
  "tx": [
    {
      "txid": "7146560df9dcf9386f9af625c365a5c9a1b201498088948ee9e77f3529d450f8",
      "hash": "7146560df9dcf9386f9af625c365a5c9a1b201498088948ee9e77f3529d450f8",
      "version": 1,
      "size": 135,
      "vsize": 135,
      "weight": 540,
      "locktime": 0,
      "vin": [
        {
          "coinbase": "04ffff001d02c600",
          "sequence": 4294967295
        }
      ],
      "vout": [
        {
          "value": 50.0,
          "n": 0,
          "scriptPubKey": {
            "asm": "04d4245db27a4d4299e8a4fa53804bf307a6f2e656355bfe368902cfca308b70f729027ecd2ee5a79d87fb5fb777996d10d50fee1c302f035295fa989e3cf65bec OP_CHECKSIG",
            "desc": "pk(04d4245db27a4d4299e8a4fa53804bf307a6f2e656355bfe368902cfca308b70f729027ecd2ee5a79d87fb5fb777996d10d50fee1c302f035295fa989e3cf65bec)#68vdhq98",
            "hex": "4104d4245db27a4d4299e8a4fa53804bf307a6f2e656355bfe368902cfca308b70f729027ecd2ee5a79d87fb5fb777996d10d50fee1c302f035295fa989e3cf65becac",
            "type": "pubkey"
          }
        }
      ],
      "hex": "01000000010000000000000000000000000000000000000000000000000000000000000000ffffffff0804ffff001d02c600ffffffff0100f2052a01000000434104d4245db27a4d4299e8a4fa53804bf307a6f2e656355bfe368902cfca308b70f729027ecd2ee5a79d87fb5fb777996d10d50fee1c302f035295fa989e3cf65becac00000000"
    }
  ]
}