{
  "hash": "0000000080c1f3e776e94b1ebf991c912f1c3374c3377b43d14933ca5eef4dbd",
  "confirmations": 45016,
  "height": 8082,
  "version": 1,
  "versionHex": "00000001",
  "merkleroot": "07eb12b7fd85d5304a999fe4bdc65391ae6e9ef7611aa0bc69e1516dc23e9959",
  "time": 1237518329,
  "mediantime": 1237515179,
  "nonce": 574603303,
  "bits": "1d00ffff",
  "difficulty": 1,
  "chainwork": "00000000000000000000000000000000000000000000000000001f931f931f93",
  "nTx": 1,
  "previousblockhash": "00000000acd26a3de6e921e93e6977f61ac353f75ec137b11513af5fd6624b17",
  "nextblockhash": "0000000081ca2fde084c7a0d8b14d0385f3d39d78870019e36e2c36195b30879",
  "strippedsize": 216,
  "size": 216,
  "weight": 864,
  "tx": [
    {
      "txid": "07eb12b7fd85d5304a999fe4bdc65391ae6e9ef7611aa0bc69e1516dc23e9959",
      "hash": "07eb12b7fd85d5304a999fe4bdc65391ae6e9ef7611aa0bc69e1516dc23e9959",
      "version": 1,
      "size": 135,
      "vsize": 135,
      "weight": 540,
      "locktime": 0,
      "vin": [
        {
          "coinbase": "04ffff001d02ce00",
          "sequence": 4294967295
        }
      ],
      "vout": [
        {
          "value": 50.0,
          "n": 0,
          "scriptPubKey": {
            "asm": "04a373e768a771d079cf959739cf4a697622a9b71e4756e93c5d700d1d21424d7b1b10c962f6a56a663ca7a0e91f61b1967ece4bf8dde2d690a3fc6e4abaad06ef OP_CHECKSIG",
            "desc": "pk(04a373e768a771d079cf959739cf4a697622a9b71e4756e93c5d700d1d21424d7b1b10c962f6a56a663ca7a0e91f61b1967ece4bf8dde2d690a3fc6e4abaad06ef)#dan4d2wg",
            "hex": "4104a373e768a771d079cf959739cf4a697622a9b71e4756e93c5d700d1d21424d7b1b10c962f6a56a663ca7a0e91f61b1967ece4bf8dde2d690a3fc6e4abaad06efac",
            "type": "pubkey"
          }
        }
      ],
      "hex": "01000000010000000000000000000000000000000000000000000000000000000000000000ffffffff0804ffff001d02ce00ffffffff0100f2052a01000000434104a373e768a771d079cf959739cf4a697622a9b71e4756e93c5d700d1d21424d7b1b10c962f6a56a663ca7a0e91f61b1967ece4bf8dde2d690a3fc6e4abaad06efac00000000"
    }
  ]
}