{
  "hash": "00000000e98eb630ca32444cb0621dea8818feea9039296ab322fc6f283f296e",
  "confirmations": 51337,
  "height": 1761,
  "version": 1,
  "versionHex": "00000001",
  "merkleroot": "a9f7c368e35ddca8fa529fd467475716899164162fa1b9ed9820d8e12cea8817",
  "time": 1232879365,
  "mediantime": 1232877332,
  "nonce": 161499851,
  "bits": "1d00ffff",
  "difficulty": 1,
  "chainwork": "000000000000000000000000000000000000000000000000000006e206e206e2",
  "nTx": 1,
  "previousblockhash": "000000003e029e3e141af6aa26bc2a7a212dc66af32434a7ca82bf2890183fc8",
  "nextblockhash": "000000007d95532530049dbbb1aea78bc0d0a71b8b9f07ec8871ff3faca8c28c",
  "strippedsize": 215,
  "size": 215,
  "weight": 860,
  "tx": [
    {
      "txid": "a9f7c368e35ddca8fa529fd467475716899164162fa1b9ed9820d8e12cea8817",
      "hash": "a9f7c368e35ddca8fa529fd467475716899164162fa1b9ed9820d8e12cea8817",
      "version": 1,
      "size": 134,
      "vsize": 134,
      "weight": 536,
      "locktime": 0,
      "vin": [
        {
          "coinbase": "04ffff001d016d",
          "sequence": 4294967295
        }
      ],
      "vout": [
        {
          "value": 50.0,
          "n": 0,
          "scriptPubKey": {
            "asm": "040c6e8e281ecfe2a865441437cbc106dd89804eed9927397448b7ca8d3ace0a062fac961205b38176db9db4320d92210ec5cb2b17a2e0c5f982bc75b0f5791956 OP_CHECKSIG",
            "desc": "pk(040c6e8e281ecfe2a865441437cbc106dd89804eed9927397448b7ca8d3ace0a062fac961205b38176db9db4320d92210ec5cb2b17a2e0c5f982bc75b0f5791956)#usk5nfyz",
            "hex": "41040c6e8e281ecfe2a865441437cbc106dd89804eed9927397448b7ca8d3ace0a062fac961205b38176db9db4320d92210ec5cb2b17a2e0c5f982bc75b0f5791956ac",
            "type": "pubkey"
          }
        }
      ],
      "hex": "01000000010000000000000000000000000000000000000000000000000000000000000000ffffffff0704ffff001d016dffffffff0100f2052a010000004341040c6e8e281ecfe2a865441437cbc106dd89804eed9927397448b7ca8d3ace0a062fac961205b38176db9db4320d92210ec5cb2b17a2e0c5f982bc75b0f5791956ac00000000"
    }
  ]
}