{
  "hash": "000000005bef32962166bb02025ce41132d5cbe5a80c5d53c45b3fb45814fd06",
  "confirmations": 47825,
  "height": 5273,
  "version": 1,
  "versionHex": "00000001",
  "merkleroot": "fd97c132980b916c39458fedf567606fb80f42687dce2d04114c7bd0fbf49c94",
  "time": 1235340607,
  "mediantime": 1235336540,
  "nonce": 19089759,
  "bits": "1d00ffff",
  "difficulty": 1,
  "chainwork": "0000000000000000000000000000000000000000000000000000149a149a149a",
  "nTx": 1,
  "previousblockhash": "0000000036f75ba422b327c6cf6dc8e649f66f4c0bbde53df199bb9b1b717998",
  "nextblockhash": "00000000f2eafaea8cd71855ad7ca21ada8c0e881cf16d9cd505fbd826655ace",
  "strippedsize": 215,
  "size": 215,
  "weight": 860,
  "tx": [
    {
      "txid": "fd97c132980b916c39458fedf567606fb80f42687dce2d04114c7bd0fbf49c94",
      "hash": "fd97c132980b916c39458fedf567606fb80f42687dce2d04114c7bd0fbf49c94",
      "version": 1,
      "size": 134,
      "vsize": 134,
      "weight": 536,
      "locktime": 0,
      "vin": [
        {
          "coinbase": "04ffff001d0116",
          "sequence": 4294967295
        }
      ],
      "vout": [
        {
          "value": 50.0,
          "n": 0,
          "scriptPubKey": {
            "asm": "045ecf922998cdd4e0d10ee2aba9a994e2aa4d54bedec0f63e94b1dcabee94cecca91a837dbfa05b16ccb323142c4df9ac3f584c5d6b64cec2d0c1d57c06a55af1 OP_CHECKSIG",
            "desc": "pk(045ecf922998cdd4e0d10ee2aba9a994e2aa4d54bedec0f63e94b1dcabee94cecca91a837dbfa05b16ccb323142c4df9ac3f584c5d6b64cec2d0c1d57c06a55af1)#va25mle3",
            "hex": "41045ecf922998cdd4e0d10ee2aba9a994e2aa4d54bedec0f63e94b1dcabee94cecca91a837dbfa05b16ccb323142c4df9ac3f584c5d6b64cec2d0c1d57c06a55af1ac",
            "type": "pubkey"
          }
        }
      ],
      "hex": "01000000010000000000000000000000000000000000000000000000000000000000000000ffffffff0704ffff001d0116ffffffff0100f2052a010000004341045ecf922998cdd4e0d10ee2aba9a994e2aa4d54bedec0f63e94b1dcabee94cecca91a837dbfa05b16ccb323142c4df9ac3f584c5d6b64cec2d0c1d57c06a55af1ac00000000"
    }
  ]
}