{
  "hash": "00000000370dde69574594d54c8881a95f42884b389bb1c373374cff00c1f5eb",
  "confirmations": 50926,
  "height": 2172,
  "version": 1,
  "versionHex": "00000001",
  "merkleroot": "f1e0510cd757d8ef8729ec600db19ec9a3a24ef70be3c6cccd710eba00930bdc",
  "time": 1233192518,
  "mediantime": 1233187130,
  "nonce": 2699047713,
  "bits": "1d00ffff",
  "difficulty": 1,
  "chainwork": "0000000000000000000000000000000000000000000000000000087d087d087d",
  "nTx": 1,
  "previousblockhash": "000000006eeb5d7c42df514952b7d0967e9e9715920e1203f5af7fe5413379ea",
  "nextblockhash": "00000000f9987ab7340cd2f131c213e651b22a94d96d5b001bf76b6eb0d6042a",
  "strippedsize": 215,
  "size": 215,
  "weight": 860,
  "tx": [
    {
      "txid": "f1e0510cd757d8ef8729ec600db19ec9a3a24ef70be3c6cccd710eba00930bdc",
      "hash": "f1e0510cd757d8ef8729ec600db19ec9a3a24ef70be3c6cccd710eba00930bdc",
      "version": 1,
      "size": 134,
      "vsize": 134,
      "weight": 536,
      "locktime": 0,
      "vin": [
        {
          "coinbase": "04ffff001d010b",
          "sequence": 4294967295
        }
      ],
      "vout": [
        {
          "value": 50.0,
          "n": 0,
          "scriptPubKey": {
            "asm": "04ecdee894e9a6e2ede30b409a51ae512264ad439a4fea454976b34b0f1cfcc47171a55f3f3e571d11f80d9c11293cbd7117ff9b41015cd73eb13ecebbe14fa03f OP_CHECKSIG",
            "desc": "pk(04ecdee894e9a6e2ede30b409a51ae512264ad439a4fea454976b34b0f1cfcc47171a55f3f3e571d11f80d9c11293cbd7117ff9b41015cd73eb13ecebbe14fa03f)#usd9ctcp",
            "hex": "4104ecdee894e9a6e2ede30b409a51ae512264ad439a4fea454976b34b0f1cfcc47171a55f3f3e571d11f80d9c11293cbd7117ff9b41015cd73eb13ecebbe14fa03fac",
            "type": "pubkey"
          }
        }
      ],
      "hex": "01000000010000000000000000000000000000000000000000000000000000000000000000ffffffff0704ffff001d010bffffffff0100f2052a01000000434104ecdee894e9a6e2ede30b409a51ae512264ad439a4fea454976b34b0f1cfcc47171a55f3f3e571d11f80d9c11293cbd7117ff9b41015cd73eb13ecebbe14fa03fac00000000"
    }
  ]
}