{
  "hash": "00000000ada888a1cd4f3742d5801405939193c5cbe34d4b8c39a99e2039a466",
  "confirmations": 50017,
  "height": 3081,
  "version": 1,
  "versionHex": "00000001",
  "merkleroot": "cd4a9c00afbf541fda108cacbec8db3399460775c6216bfde170f8a763e80466",
  "time": 1233818492,
  "mediantime": 1233815252,
  "nonce": 489051686,
  "bits": "1d00ffff",
  "difficulty": 1,
  "chainwork": "00000000000000000000000000000000000000000000000000000c0a0c0a0c0a",
  "nTx": 1,
  "previousblockhash": "00000000ea07f354aaf01517b170749d7f8e70732d1f5edf0299232532f04932",
  "nextblockhash": "00000000a0a3ceb93d4e40056addafae7fe7682ab61f78ba65b2c9a76fe02b78",
  "strippedsize": 216,
  "size": 216,
  "weight": 864,
  "tx": [
    {
      "txid": "cd4a9c00afbf541fda108cacbec8db3399460775c6216bfde170f8a763e80466",
      "hash": "cd4a9c00afbf541fda108cacbec8db3399460775c6216bfde170f8a763e80466",
      "version": 1,
      "size": 135,
      "vsize": 135,
      "weight": 540,
      "locktime": 0,
      "vin": [
        {
          "coinbase": "04ffff001d02e700",
          "sequence": 4294967295
        }
      ],
      "vout": [
        {
          "value": 50.0,
          "n": 0,
          "scriptPubKey": {
            "asm": "048f4618dec2d1cb0b2d8f9b89645b615f5e18aec74622d72a060690a1f55306fab26089e8a2c70ae268060cd1f480927a3a76ff24b54b4793803cd36c545c8a4e OP_CHECKSIG",
            "desc": "pk(048f4618dec2d1cb0b2d8f9b89645b615f5e18aec74622d72a060690a1f55306fab26089e8a2c70ae268060cd1f480927a3a76ff24b54b4793803cd36c545c8a4e)#7nc0nugt",
            "hex": "41048f4618dec2d1cb0b2d8f9b89645b615f5e18aec74622d72a060690a1f55306fab26089e8a2c70ae268060cd1f480927a3a76ff24b54b4793803cd36c545c8a4eac",
            "type": "pubkey"
          }
        }
      ],
      "hex": "01000000010000000000000000000000000000000000000000000000000000000000000000ffffffff0804ffff001d02e700ffffffff0100f2052a010000004341048f4618dec2d1cb0b2d8f9b89645b615f5e18aec74622d72a060690a1f55306fab26089e8a2c70ae268060cd1f480927a3a76ff24b54b4793803cd36c545c8a4eac00000000"
    }
  ]
}