{
  "hash": "000000001d484e67debe5dca7d3bfc2742108e08eeda38cd65841016a102a3bf",
  "confirmations": 45974,
  "height": 7124,
  "version": 1,
  "versionHex": "00000001",
  "merkleroot": "e4329734abe7886943f77e7e131a99ab0a3ccb24b56a6a3475cff8a3bdfa1bee",
  "time": 1236814295,
  "mediantime": 1236810552,
  "nonce": 1093694763,
  "bits": "1d00ffff",
  "difficulty": 1,
  "chainwork": "00000000000000000000000000000000000000000000000000001bd51bd51bd5",
  "nTx": 1,
  "previousblockhash": "00000000405b229075e2387c98d634269db3a4bbd970069a9a8bde25c510760a",
  "nextblockhash": "00000000b911b77f7f75c1f784167b18522d42d798a4c2e381185ea975f49bb9",
  "strippedsize": 216,
  "size": 216,
  "weight": 864,
  "tx": [
    {
      "txid": "e4329734abe7886943f77e7e131a99ab0a3ccb24b56a6a3475cff8a3bdfa1bee",
      "hash": "e4329734abe7886943f77e7e131a99ab0a3ccb24b56a6a3475cff8a3bdfa1bee",
      "version": 1,
      "size": 135,
      "vsize": 135,
      "weight": 540,
      "locktime": 0,
      "vin": [
        {
          "coinbase": "04ffff001d024504",
          "sequence": 4294967295
        }
      ],
      "vout": [
        {
          "value": 50.0,
          "n": 0,
          "scriptPubKey": {
            "asm": "04df406590efd5f9b929d566290e006401fd557ecfce5fd044bf2fc1dd24e1c8de5b0355d16978da24d4885cb3fa1d220634165affeeaea3a59766fa3833c3bb5d OP_CHECKSIG",
            "desc": "pk(04df406590efd5f9b929d566290e006401fd557ecfce5fd044bf2fc1dd24e1c8de5b0355d16978da24d4885cb3fa1d220634165affeeaea3a59766fa3833c3bb5d)#s3tz9ew5",
            "hex": "4104df406590efd5f9b929d566290e006401fd557ecfce5fd044bf2fc1dd24e1c8de5b0355d16978da24d4885cb3fa1d220634165affeeaea3a59766fa3833c3bb5dac",
            "type": "pubkey"
          }
        }
      ],
      "hex": "01000000010000000000000000000000000000000000000000000000000000000000000000ffffffff0804ffff001d024504ffffffff0100f2052a01000000434104df406590efd5f9b929d566290e006401fd557ecfce5fd044bf2fc1dd24e1c8de5b0355d16978da24d4885cb3fa1d220634165affeeaea3a59766fa3833c3bb5dac00000000"
    }
  ]
}