{
  "hash": "0000000004c43b1ba070fd83c0f34673d6b166c608b0ec733357b75b4c65fc1f",
  "confirmations": 52045,
  "height": 291,
  "version": 1,
  "versionHex": "00000001",
  "merkleroot": "eb82621de40f57f1d30612da0054f05e0ea5eb632951a6447098d0de02f7d721",
  "time": 1231825707,
  "mediantime": 1231822498,
  "nonce": 4217167624,
  "bits": "1d00ffff",
  "difficulty": 1,
  "chainwork": "0000000000000000000000000000000000000000000000000000012401240124",
  "nTx": 1,
  "previousblockhash": "00000000d3e87c5021f142864817c02b5fd52b8f271d26740f1fe629b13b5333",
  "nextblockhash": "000000007716a1f58c0ac514031e7657a7cdbee9188545495558d3078375ee76",
  "strippedsize": 215,
  "size": 215,
  "weight": 860,
  "tx": [
    {
      "txid": "eb82621de40f57f1d30612da0054f05e0ea5eb632951a6447098d0de02f7d721",
      "hash": "eb82621de40f57f1d30612da0054f05e0ea5eb632951a6447098d0de02f7d721",
      "version": 1,
      "size": 134,
      "vsize": 134,
      "weight": 536,
      "locktime": 0,
      "vin": [
        {
          "coinbase": "04ffff001d0149",
          "sequence": 4294967295
        }
      ],
      "vout": [
        {
          "value": 50.0,
          "n": 0,
          "scriptPubKey": {
            "asm": "04e4f9036d570bcfc3a0de4ebe15f39fa6cac3aa3437261586be41c814747aed85744edfe681623a38a64c64c5782c4cd461346683ab8fade075a40357385b452a OP_CHECKSIG",
            "desc": "pk(04e4f9036d570bcfc3a0de4ebe15f39fa6cac3aa3437261586be41c814747aed85744edfe681623a38a64c64c5782c4cd461346683ab8fade075a40357385b452a)#e9cqnug9",
            "hex": "4104e4f9036d570bcfc3a0de4ebe15f39fa6cac3aa3437261586be41c814747aed85744edfe681623a38a64c64c5782c4cd461346683ab8fade075a40357385b452aac",
            "type": "pubkey"
          }
        }
      ],
      "hex": "01000000010000000000000000000000000000000000000000000000000000000000000000ffffffff0704ffff001d0149ffffffff0100f2052a01000000434104e4f9036d570bcfc3a0de4ebe15f39fa6cac3aa3437261586be41c814747aed85744edfe681623a38a64c64c5782c4cd461346683ab8fade075a40357385b452aac00000000"
    }
  ]
}