{
  "hash": "00000000bb36847fdbe8d6afe7e91db9f756352585e19ca2a916228ded217e89",
  "confirmations": 48051,
  "height": 5047,
  "version": 1,
  "versionHex": "00000001",
  "merkleroot": "51fd6a0a8d23b1a1f66dbddaac0b919060370c451a0fe5dc669ccd525135e5a7",
  "time": 1235173714,
  "mediantime": 1235168994,
  "nonce": 1174509624,
  "bits": "1d00ffff",
  "difficulty": 1,
  "chainwork": "000000000000000000000000000000000000000000000000000013b813b813b8",
  "nTx": 1,
  "previousblockhash": "000000005265d22a7f5676ec1fd450cd10085497482439630530abec39c5d2d6",
  "nextblockhash": "000000009e8637cca72b76a2483107c59edf293ede8b0f7d01bbd293ad10cab6",
  "strippedsize": 216,
  "size": 216,
  "weight": 864,
  "tx": [
    {
      "txid": "51fd6a0a8d23b1a1f66dbddaac0b919060370c451a0fe5dc669ccd525135e5a7",
      "hash": "51fd6a0a8d23b1a1f66dbddaac0b919060370c451a0fe5dc669ccd525135e5a7",
      "version": 1,
      "size": 135,
      "vsize": 135,
      "weight": 540,
      "locktime": 0,
      "vin": [
        {
          "coinbase": "04ffff001d02d307",
          "sequence": 4294967295
        }
      ],
      "vout": [
        {
          "value": 50.0,
          "n": 0,
          "scriptPubKey": {
            "asm": "04f84ed9582ffe95d070748c9049edd1b1325217f492184d415dd5d1eb43d29d464efc4289d756be9432e8df6ce445ed7d8b2ac9e0d96bbeec6a6a4a581c18b246 OP_CHECKSIG",
            "desc": "pk(04f84ed9582ffe95d070748c9049edd1b1325217f492184d415dd5d1eb43d29d464efc4289d756be9432e8df6ce445ed7d8b2ac9e0d96bbeec6a6a4a581c18b246)#tfmqpjx7",
            "hex": "4104f84ed9582ffe95d070748c9049edd1b1325217f492184d415dd5d1eb43d29d464efc4289d756be9432e8df6ce445ed7d8b2ac9e0d96bbeec6a6a4a581c18b246ac",
            "type": "pubkey"
          }
        }
      ],
      "hex": "01000000010000000000000000000000000000000000000000000000000000000000000000ffffffff0804ffff001d02d307ffffffff0100f2052a01000000434104f84ed9582ffe95d070748c9049edd1b1325217f492184d415dd5d1eb43d29d464efc4289d756be9432e8df6ce445ed7d8b2ac9e0d96bbeec6a6a4a581c18b246ac00000000"
    }
  ]
}