{
  "hash": "000000002fe2be87ebc31bbea82b4e735de13cb6337fb80dc3baddc01fc89205",
  "confirmations": 45371,
  "height": 7727,
  "version": 1,
  "versionHex": "00000001",
  "merkleroot": "b55e4044b07b4ae6541a0f7503235e2b98b1f44b443bd2c40b21b7ca23df728f",
  "time": 1237258695,
  "mediantime": 1237255550,
  "nonce": 75712167,
  "bits": "1d00ffff",
  "difficulty": 1,
  "chainwork": "00000000000000000000000000000000000000000000000000001e301e301e30",
  "nTx": 1,
  "previousblockhash": "0000000024a5462b56ce978327e365015ee6efd754c1d8b51070fdeaea129f04",
  "nextblockhash": "0000000066cbbcb55f6023be629a23bef0583627b3bbf54865fbc31d83f91560",
  "strippedsize": 216,
  "size": 216,
  "weight": 864,
  "tx": [
    {
      "txid": "b55e4044b07b4ae6541a0f7503235e2b98b1f44b443bd2c40b21b7ca23df728f",
      "hash": "b55e4044b07b4ae6541a0f7503235e2b98b1f44b443bd2c40b21b7ca23df728f",
      "version": 1,
      "size": 135,
      "vsize": 135,
      "weight": 540,
      "locktime": 0,
      "vin": [
        {
          "coinbase": "04ffff001d02e008",
          "sequence": 4294967295
        }
      ],
      "vout": [
        {
          "value": 50.0,
          "n": 0,
          "scriptPubKey": {
            "asm": "04b9770ce23097510320dda4b7659b5bbf3e1f7f4f3b4c954cd3b32127b9b2c5bd745fd607f32304813647671c6a81de0fc0be85308bce592672194f6f54dd24d4 OP_CHECKSIG",
            "desc": "pk(04b9770ce23097510320dda4b7659b5bbf3e1f7f4f3b4c954cd3b32127b9b2c5bd745fd607f32304813647671c6a81de0fc0be85308bce592672194f6f54dd24d4)#d2dj4fat",
            "hex": "4104b9770ce23097510320dda4b7659b5bbf3e1f7f4f3b4c954cd3b32127b9b2c5bd745fd607f32304813647671c6a81de0fc0be85308bce592672194f6f54dd24d4ac",
            "type": "pubkey"
          }
        }
      ],
      "hex": "01000000010000000000000000000000000000000000000000000000000000000000000000ffffffff0804ffff001d02e008ffffffff0100f2052a01000000434104b9770ce23097510320dda4b7659b5bbf3e1f7f4f3b4c954cd3b32127b9b2c5bd745fd607f32304813647671c6a81de0fc0be85308bce592672194f6f54dd24d4ac00000000"
    }
  ]
}