{
  "hash": "00000000c18cd3547c7e848abdb4b42966970abb1e8cfb4857bbc13e0e8dae06",
  "confirmations": 52209,
  "height": 889,
  "version": 1,
  "versionHex": "00000001",
  "merkleroot": "7a71f571df4e043071244a7b49ad3e6321a74995a62338e1e27d12a70cb0ad09",
  "time": 1232264942,
  "mediantime": 1232261799,
  "nonce": 3422729222,
  "bits": "1d00ffff",
  "difficulty": 1,
  "chainwork": "0000000000000000000000000000000000000000000000000000037a037a037a",
  "nTx": 1,
  "previousblockhash": "0000000071dc739913e6c9c1189f92ecbc457b680a3d448c21bd1a2710a06a3e",
  "nextblockhash": "00000000b6a6c5d987b928a698cdf797baa7e2c1e8d4be0421f704bbc0fde5a5",
  "strippedsize": 216,
  "size": 216,
  "weight": 864,
  "tx": [
    {
      "txid": "7a71f571df4e043071244a7b49ad3e6321a74995a62338e1e27d12a70cb0ad09",
      "hash": "7a71f571df4e043071244a7b49ad3e6321a74995a62338e1e27d12a70cb0ad09",
      "version": 1,
      "size": 135,
      "vsize": 135,
      "weight": 540,
      "locktime": 0,
      "vin": [
        {
          "coinbase": "04ffff001d026203",
          "sequence": 4294967295
        }
      ],
      "vout": [
        {
          "value": 50.0,
          "n": 0,
          "scriptPubKey": {
            "asm": "045900bbdd6fd956c6f3c9b67b596a6b7810a9f45b7dc0bd4265d39341de18af754d05a03da8f50cd6a22dfd4959f7a42308c7294921818cf8ab1746fafd711252 OP_CHECKSIG",
            "desc": "pk(045900bbdd6fd956c6f3c9b67b596a6b7810a9f45b7dc0bd4265d39341de18af754d05a03da8f50cd6a22dfd4959f7a42308c7294921818cf8ab1746fafd711252)#pfla7yaf",
            "hex": "41045900bbdd6fd956c6f3c9b67b596a6b7810a9f45b7dc0bd4265d39341de18af754d05a03da8f50cd6a22dfd4959f7a42308c7294921818cf8ab1746fafd711252ac",
            "type": "pubkey"
          }
        }
      ],
      "hex": "01000000010000000000000000000000000000000000000000000000000000000000000000ffffffff0804ffff001d026203ffffffff0100f2052a010000004341045900bbdd6fd956c6f3c9b67b596a6b7810a9f45b7dc0bd4265d39341de18af754d05a03da8f50cd6a22dfd4959f7a42308c7294921818cf8ab1746fafd711252ac00000000"
    }
  ]
}