{
  "hash": "00000000c0aba4339f7db7148c87ef284fcf580183252c797f89cbaa339ec661",
  "confirmations": 44038,
  "height": 9060,
  "version": 1,
  "versionHex": "00000001",
  "merkleroot": "cadd9b89d8ca41170da3bbe3521c4c2f9cbbb32c788a0f803cf65e8e00937a2c",
  "time": 1238302492,
  "mediantime": 1238297948,
  "nonce": 70408200,
  "bits": "1d00ffff",
  "difficulty": 1,
  "chainwork": "0000000000000000000000000000000000000000000000000000236523652365",
  "nTx": 1,
  "previousblockhash": "00000000eb8c12cc256bf23dc6cf4769463757e65db3683277513fe5a3597a63",
  "nextblockhash": "000000001a8eabe6211605a4c827f215acb3dcdfd00c66874d4358b9ec30a748",
  "strippedsize": 215,
  "size": 215,
  "weight": 860,
  "tx": [
    {
      "txid": "cadd9b89d8ca41170da3bbe3521c4c2f9cbbb32c788a0f803cf65e8e00937a2c",
      "hash": "cadd9b89d8ca41170da3bbe3521c4c2f9cbbb32c788a0f803cf65e8e00937a2c",
      "version": 1,
      "size": 134,
      "vsize": 134,
      "weight": 536,
      "locktime": 0,
      "vin": [
        {
          "coinbase": "04ffff001d0137",
          "sequence": 4294967295
        }
      ],
      "vout": [
        {
          "value": 50.0,
          "n": 0,
          "scriptPubKey": {
            "asm": "04a079dda84a8fbb71cb0ca035276eef9edf6196d313d54dabe4a2af76f0b68e5fa19757751b0b974de063d7a7bf3146c56d45c7c609ae0dd9aa5c1fcd1497cec7 OP_CHECKSIG",
            "desc": "pk(04a079dda84a8fbb71cb0ca035276eef9edf6196d313d54dabe4a2af76f0b68e5fa19757751b0b974de063d7a7bf3146c56d45c7c609ae0dd9aa5c1fcd1497cec7)#jy763jyh",
            "hex": "4104a079dda84a8fbb71cb0ca035276eef9edf6196d313d54dabe4a2af76f0b68e5fa19757751b0b974de063d7a7bf3146c56d45c7c609ae0dd9aa5c1fcd1497cec7ac",
            "type": "pubkey"
          }
        }
      ],
      "hex": "01000000010000000000000000000000000000000000000000000000000000000000000000ffffffff0704ffff001d0137ffffffff0100f2052a01000000434104a079dda84a8fbb71cb0ca035276eef9edf6196d313d54dabe4a2af76f0b68e5fa19757751b0b974de063d7a7bf3146c56d45c7c609ae0dd9aa5c1fcd1497cec7ac00000000"
    }
  ]
}