{
  "hash": "0000000096a80b51b920852ee9dfc4e721a46d10622c0fc41aebba16928e13e7",
  "confirmations": 47874,
  "height": 5224,
  "version": 1,
  "versionHex": "00000001",
  "merkleroot": "f969f03dcba2bbe85e405cf060257e79524d0b6886d9ab5b6e51f60e08090a30",
  "time": 1235304172,
  "mediantime": 1235299853,
  "nonce": 3789873153,
  "bits": "1d00ffff",
  "difficulty": 1,
  "chainwork": "0000000000000000000000000000000000000000000000000000146914691469",
  "nTx": 1,
  "previousblockhash": "00000000ac875a3840c83257ecba20fd9393b19666dff3bc2b2461da99a6a88e",
  "nextblockhash": "00000000abe4c28ece0280696df0b1800409d4d5e212c3d5a1f21f3549abf0b9",
  "strippedsize": 216,
  "size": 216,
  "weight": 864,
  "tx": [
    {
      "txid": "f969f03dcba2bbe85e405cf060257e79524d0b6886d9ab5b6e51f60e08090a30",
      "hash": "f969f03dcba2bbe85e405cf060257e79524d0b6886d9ab5b6e51f60e08090a30",
      "version": 1,
      "size": 135,
      "vsize": 135,
      "weight": 540,
      "locktime": 0,
      "vin": [
        {
          "coinbase": "04ffff001d02d400",
          "sequence": 4294967295
        }
      ],
      "vout": [
        {
          "value": 50.0,
          "n": 0,
          "scriptPubKey": {
            "asm": "044ca6a53d4679f9c8c5553c79e1f88232e4ce2913a21987317d9149c4a2026e6349bf9262f8e578b9217e9a515a601b5ed7f9d5ef98f9d5d3db3cd78d0a9932b2 OP_CHECKSIG",
            "desc": "pk(044ca6a53d4679f9c8c5553c79e1f88232e4ce2913a21987317d9149c4a2026e6349bf9262f8e578b9217e9a515a601b5ed7f9d5ef98f9d5d3db3cd78d0a9932b2)#ptznfjdr",
            "hex": "41044ca6a53d4679f9c8c5553c79e1f88232e4ce2913a21987317d9149c4a2026e6349bf9262f8e578b9217e9a515a601b5ed7f9d5ef98f9d5d3db3cd78d0a9932b2ac",
            "type": "pubkey"
          }
        }
      ],
      "hex": "01000000010000000000000000000000000000000000000000000000000000000000000000ffffffff0804ffff001d02d400ffffffff0100f2052a010000004341044ca6a53d4679f9c8c5553c79e1f88232e4ce2913a21987317d9149c4a2026e6349bf9262f8e578b9217e9a515a601b5ed7f9d5ef98f9d5d3db3cd78d0a9932b2ac00000000"
    }
  ]
}