{
  "hash": "00000000107ee739e87b77fb9bab399165e4dd751dfc6c53fc9e5278c4d851dc",
  "confirmations": 44768,
  "height": 8330,
  "version": 1,
  "versionHex": "00000001",
  "merkleroot": "ce0dee279c1a6731c6688d00a3eb10e974ac919b7d99dc7e758954c737007569",
  "time": 1237752696,
  "mediantime": 1237748530,
  "nonce": 2207392034,
  "bits": "1d00ffff",
  "difficulty": 1,
  "chainwork": "0000000000000000000000000000000000000000000000000000208b208b208b",
  "nTx": 1,
  "previousblockhash": "000000002069040e1667d2c6d78c69d286e5ffea8cd97287cca8cfba3514b653",
  "nextblockhash": "000000006dce3c435514d287e457be7a845a6b67d3f3267cf6504731f2b7b0bf",
  "strippedsize": 216,
  "size": 216,
  "weight": 864,
  "tx": [
    {
      "txid": "ce0dee279c1a6731c6688d00a3eb10e974ac919b7d99dc7e758954c737007569",
      "hash": "ce0dee279c1a6731c6688d00a3eb10e974ac919b7d99dc7e758954c737007569",
      "version": 1,
      "size": 135,
      "vsize": 135,
      "weight": 540,
      "locktime": 0,
      "vin": [
        {
          "coinbase": "04ffff001d02a904",
          "sequence": 4294967295
        }
      ],
      "vout": [
        {
          "value": 50.0,
          "n": 0,
          "scriptPubKey": {
            "asm": "0436d827b2031107d1a9b39b0663ac0f895013e5ac7290ce7e1b76f8bad8f245373f1131607c0cdce026d4a6b30446f755e308ee53ab998971f2b3f74453babf1e OP_CHECKSIG",
            "desc": "pk(0436d827b2031107d1a9b39b0663ac0f895013e5ac7290ce7e1b76f8bad8f245373f1131607c0cdce026d4a6b30446f755e308ee53ab998971f2b3f74453babf1e)#khx928ql",
            "hex": "410436d827b2031107d1a9b39b0663ac0f895013e5ac7290ce7e1b76f8bad8f245373f1131607c0cdce026d4a6b30446f755e308ee53ab998971f2b3f74453babf1eac",
            "type": "pubkey"
          }
        }
      ],
      "hex": "01000000010000000000000000000000000000000000000000000000000000000000000000ffffffff0804ffff001d02a904ffffffff0100f2052a0100000043410436d827b2031107d1a9b39b0663ac0f895013e5ac7290ce7e1b76f8bad8f245373f1131607c0cdce026d4a6b30446f755e308ee53ab998971f2b3f74453babf1eac00000000"
    }
  ]
}