{
  "hash": "0000000008ebdc73be1bdf161f7e73a75f1fd3a8d2cad1ab83b8387ff902350b",
  "confirmations": 43686,
  "height": 9412,
  "version": 1,
  "versionHex": "00000001",
  "merkleroot": "f0a5867e39702dbab8c1f059eec45c60d3939779180420e8e6ac0f91319cffd1",
  "time": 1238562698,
  "mediantime": 1238559851,
  "nonce": 175271392,
  "bits": "1d00ffff",
  "difficulty": 1,
  "chainwork": "000000000000000000000000000000000000000000000000000024c524c524c5",
  "nTx": 1,
  "previousblockhash": "00000000b06a73da217e95186d72673c36fa4529498a44ca7c3c3f41904c76d3",
  "nextblockhash": "000000009491cb21761959d228b175416333b66d557d8391214607a7e1cec045",
  "strippedsize": 215,
  "size": 215,
  "weight": 860,
  "tx": [
    {
      "txid": "f0a5867e39702dbab8c1f059eec45c60d3939779180420e8e6ac0f91319cffd1",
      "hash": "f0a5867e39702dbab8c1f059eec45c60d3939779180420e8e6ac0f91319cffd1",
      "version": 1,
      "size": 134,
      "vsize": 134,
      "weight": 536,
      "locktime": 0,
      "vin": [
        {
          "coinbase": "04ffff001d0131",
          "sequence": 4294967295
        }
      ],
      "vout": [
        {
          "value": 50.0,
          "n": 0,
          "scriptPubKey": {
            "asm": "04a5fe8d9dd4151c045428695ad001cab1606733f565f05a71a3a1cbd8a77c61376882425def271ed41769e01f385c908a8831dc7de567243c5525e1f0522935d4 OP_CHECKSIG",
            "desc": "pk(04a5fe8d9dd4151c045428695ad001cab1606733f565f05a71a3a1cbd8a77c61376882425def271ed41769e01f385c908a8831dc7de567243c5525e1f0522935d4)#83h4kqc3",
            "hex": "4104a5fe8d9dd4151c045428695ad001cab1606733f565f05a71a3a1cbd8a77c61376882425def271ed41769e01f385c908a8831dc7de567243c5525e1f0522935d4ac",
            "type": "pubkey"
          }
        }
      ],
      "hex": "01000000010000000000000000000000000000000000000000000000000000000000000000ffffffff0704ffff001d0131ffffffff0100f2052a01000000434104a5fe8d9dd4151c045428695ad001cab1606733f565f05a71a3a1cbd8a77c61376882425def271ed41769e01f385c908a8831dc7de567243c5525e1f0522935d4ac00000000"
    }
  ]
}