{
  "hash": "00000000ab798ba558d898672adf688356cd75fde67f5a02342b196ba915fcc3",
  "confirmations": 51318,
  "height": 1780,
  "version": 1,
  "versionHex": "00000001",
  "merkleroot": "577d06c9b92ec1e196e65a0189b2ab9e383e616360bacd2a3e23ab8652f6a189",
  "time": 1232888092,
  "mediantime": 1232885768,
  "nonce": 61615658,
  "bits": "1d00ffff",
  "difficulty": 1,
  "chainwork": "000000000000000000000000000000000000000000000000000006f506f506f5",
  "nTx": 1,
  "previousblockhash": "00000000fd01351b7f07599e682c570bcf3f369249084e43a2603da1e6aefe77",
  "nextblockhash": "0000000026c7079d0d3839cc1071227ae16a55ee2c52a2360bdd39c0774f0ee0",
  "strippedsize": 215,
  "size": 215,
  "weight": 860,
  "tx": [
    {
      "txid": "577d06c9b92ec1e196e65a0189b2ab9e383e616360bacd2a3e23ab8652f6a189",
      "hash": "577d06c9b92ec1e196e65a0189b2ab9e383e616360bacd2a3e23ab8652f6a189",
      "version": 1,
      "size": 134,
      "vsize": 134,
      "weight": 536,
      "locktime": 0,
      "vin": [
        {
          "coinbase": "04ffff001d0111",
          "sequence": 4294967295
        }
      ],
      "vout": [
        {
          "value": 50.0,
          "n": 0,
          "scriptPubKey": {
            "asm": "04a9288b5f4bc51ed4e65dc5043167c5ee4588c7b924e82111504345dbc211e4048ed831ee45dc4be5884b9e284dfb1d3cb1b4caaef7d3c7f42c3ba91441906fdb OP_CHECKSIG",
            "desc": "pk(04a9288b5f4bc51ed4e65dc5043167c5ee4588c7b924e82111504345dbc211e4048ed831ee45dc4be5884b9e284dfb1d3cb1b4caaef7d3c7f42c3ba91441906fdb)#nkj7pcky",
            "hex": "4104a9288b5f4bc51ed4e65dc5043167c5ee4588c7b924e82111504345dbc211e4048ed831ee45dc4be5884b9e284dfb1d3cb1b4caaef7d3c7f42c3ba91441906fdbac",
            "type": "pubkey"
          }
        }
      ],
      "hex": "01000000010000000000000000000000000000000000000000000000000000000000000000ffffffff0704ffff001d0111ffffffff0100f2052a01000000434104a9288b5f4bc51ed4e65dc5043167c5ee4588c7b924e82111504345dbc211e4048ed831ee45dc4be5884b9e284dfb1d3cb1b4caaef7d3c7f42c3ba91441906fdbac00000000"
    }
  ]
}