{
  "hash": "0000000016f4735551894f42756a4197f8603dd15b2956a36b67ab67162904e2",
  "confirmations": 46339,
  "height": 6759,
  "version": 1,
  "versionHex": "00000001",
  "merkleroot": "0a1d761fcb962adaf1b1a3d062ff4513b8377dc0c275a21e21f377f67607e19b",
  "time": 1236528077,
  "mediantime": 1236523469,
  "nonce": 581079576,
  "bits": "1d00ffff",
  "difficulty": 1,
  "chainwork": "00000000000000000000000000000000000000000000000000001a681a681a68",
  "nTx": 1,
  "previousblockhash": "000000004f5b1c434e7cd1995c7c187a5dad98a471f29f86829a34e6ebeed6ea",
  "nextblockhash": "000000007991e021ac8acba795b98456eb34c205423d873640cd5ef8a84b4a1d",
  "strippedsize": 216,
  "size": 216,
  "weight": 864,
  "tx": [
    {
      "txid": "0a1d761fcb962adaf1b1a3d062ff4513b8377dc0c275a21e21f377f67607e19b",
      "hash": "0a1d761fcb962adaf1b1a3d062ff4513b8377dc0c275a21e21f377f67607e19b",
      "version": 1,
      "size": 135,
      "vsize": 135,
      "weight": 540,
      "locktime": 0,
      "vin": [
        {
          "coinbase": "04ffff001d024008",
          "sequence": 4294967295
        }
      ],
      "vout": [
        {
          "value": 50.0,
          "n": 0,
          "scriptPubKey": {
            "asm": "0402345c76c4f4478be2ee58bfa6b4c376878655486570bb360a38a2d413a382f13b579c184a81e9858b63438ff079f584c71671014cc7862a6f7f20d0ebd832c4 OP_CHECKSIG",
            "desc": "pk(0402345c76c4f4478be2ee58bfa6b4c376878655486570bb360a38a2d413a382f13b579c184a81e9858b63438ff079f584c71671014cc7862a6f7f20d0ebd832c4)#kvsrgvmg",
            "hex": "410402345c76c4f4478be2ee58bfa6b4c376878655486570bb360a38a2d413a382f13b579c184a81e9858b63438ff079f584c71671014cc7862a6f7f20d0ebd832c4ac",
            "type": "pubkey"
          }
        }
      ],
      "hex": "01000000010000000000000000000000000000000000000000000000000000000000000000ffffffff0804ffff001d024008ffffffff0100f2052a0100000043410402345c76c4f4478be2ee58bfa6b4c376878655486570bb360a38a2d413a382f13b579c184a81e9858b63438ff079f584c71671014cc7862a6f7f20d0ebd832c4ac00000000"
    }
  ]
}