{
  "hash": "00000000d34199387862c42561031f5b25cc35bb9895e53dd07e30508748ced8",
  "confirmations": 51036,
  "height": 2062,
  "version": 1,
  "versionHex": "00000001",
  "merkleroot": "93c0fbb1c0e2cd03e3c64a2d26faf2b83318f4ca02bbd5eb7bfee6c14d405984",
  "time": 1233106632,
  "mediantime": 1233101789,
  "nonce": 40236225,
  "bits": "1d00ffff",
  "difficulty": 1,
  "chainwork": "0000000000000000000000000000000000000000000000000000080f080f080f",
  "nTx": 1,
  "previousblockhash": "00000000cd2ae5e37f774026a30f6880fb5de6e73f0c6f27cb0e119e607e4b6d",
  "nextblockhash": "000000003024fcc0de00e9af302c8bf69b0c625eea0ac3502fb25adb935b652c",
  "strippedsize": 215,
  "size": 215,
  "weight": 860,
  "tx": [
    {
      "txid": "93c0fbb1c0e2cd03e3c64a2d26faf2b83318f4ca02bbd5eb7bfee6c14d405984",
      "hash": "93c0fbb1c0e2cd03e3c64a2d26faf2b83318f4ca02bbd5eb7bfee6c14d405984",
      "version": 1,
      "size": 134,
      "vsize": 134,
      "weight": 536,
      "locktime": 0,
      "vin": [
        {
          "coinbase": "04ffff001d010d",
          "sequence": 4294967295
        }
      ],
      "vout": [
        {
          "value": 50.0,
          "n": 0,
          "scriptPubKey": {
            "asm": "04c069320754e64906603e0886ef322c5a430366e028a91c9760ea3739a9d365029d60f57d12281bfc8904bf7bd9cf03b5e1959e2df8ef3a5c2f895668de175af9 OP_CHECKSIG",
            "desc": "pk(04c069320754e64906603e0886ef322c5a430366e028a91c9760ea3739a9d365029d60f57d12281bfc8904bf7bd9cf03b5e1959e2df8ef3a5c2f895668de175af9)#my9g7txh",
            "hex": "4104c069320754e64906603e0886ef322c5a430366e028a91c9760ea3739a9d365029d60f57d12281bfc8904bf7bd9cf03b5e1959e2df8ef3a5c2f895668de175af9ac",
            "type": "pubkey"
          }
        }
      ],
      "hex": "01000000010000000000000000000000000000000000000000000000000000000000000000ffffffff0704ffff001d010dffffffff0100f2052a01000000434104c069320754e64906603e0886ef322c5a430366e028a91c9760ea3739a9d365029d60f57d12281bfc8904bf7bd9cf03b5e1959e2df8ef3a5c2f895668de175af9ac00000000"
    }
  ]
}