{
  "hash": "000000004d46a24e850882dfc0f3397636f7785c388f28a5e910effa29e070a8",
  "confirmations": 52406,
  "height": 692,
  "version": 1,
  "versionHex": "00000001",
  "merkleroot": "3e9b07de0da9f464829ea870439b931357dfbaa34dbb8a4ce6ecdead77ae9bc1",
  "time": 1232101972,
  "mediantime": 1232098386,
  "nonce": 3458428952,
  "bits": "1d00ffff",
  "difficulty": 1,
  "chainwork": "000000000000000000000000000000000000000000000000000002b502b502b5",
  "nTx": 1,
  "previousblockhash": "0000000074440db626bad7f813b59e6a0e1328ae4205a2c5209e031b42c31ab7",
  "nextblockhash": "000000005a81537218894c7ee88ecfefd73344d006bbe5efbf4f18808e97af38",
  "strippedsize": 216,
  "size": 216,
  "weight": 864,
  "tx": [
    {
      "txid": "3e9b07de0da9f464829ea870439b931357dfbaa34dbb8a4ce6ecdead77ae9bc1",
      "hash": "3e9b07de0da9f464829ea870439b931357dfbaa34dbb8a4ce6ecdead77ae9bc1",
      "version": 1,
      "size": 135,
      "vsize": 135,
      "weight": 540,
      "locktime": 0,
      "vin": [
        {
          "coinbase": "04ffff001d02b500",
          "sequence": 4294967295
        }
      ],
      "vout": [
        {
          "value": 50.0,
          "n": 0,
          "scriptPubKey": {
            "asm": "047799f64d3805c267d3d30c1303bdefbed780bc141ed6e033068d90fba706b7f4dd7536d9fd3a7246d4386ce2d27ccda80dbf2369b59e227edc67c2ed0b51d0f7 OP_CHECKSIG",
            "desc": "pk(047799f64d3805c267d3d30c1303bdefbed780bc141ed6e033068d90fba706b7f4dd7536d9fd3a7246d4386ce2d27ccda80dbf2369b59e227edc67c2ed0b51d0f7)#tg02dpmr",
            "hex": "41047799f64d3805c267d3d30c1303bdefbed780bc141ed6e033068d90fba706b7f4dd7536d9fd3a7246d4386ce2d27ccda80dbf2369b59e227edc67c2ed0b51d0f7ac",
            "type": "pubkey"
          }
        }
      ],
      "hex": "01000000010000000000000000000000000000000000000000000000000000000000000000ffffffff0804ffff001d02b500ffffffff0100f2052a010000004341047799f64d3805c267d3d30c1303bdefbed780bc141ed6e033068d90fba706b7f4dd7536d9fd3a7246d4386ce2d27ccda80dbf2369b59e227edc67c2ed0b51d0f7ac00000000"
    }
  ]
}