{
  "hash": "0000000039d64ce3bb6f073707a6ba831e6e2fbc7d9fae40709d162012b1253e",
  "confirmations": 51228,
  "height": 1870,
  "version": 1,
  "versionHex": "00000001",
  "merkleroot": "5b7ab6b51cfaa24cfb92ea9a30bc6e539a684786a6ae71e72d9d897ed8e95657",
  "time": 1232930957,
  "mediantime": 1232928841,
  "nonce": 2674180394,
  "bits": "1d00ffff",
  "difficulty": 1,
  "chainwork": "0000000000000000000000000000000000000000000000000000074f074f074f",
  "nTx": 1,
  "previousblockhash": "00000000a76a1ab5f25b55e9d47ea902fd6039cb30806276d7b25460841cd9c3",
  "nextblockhash": "000000009b258aba4631bcd3e763667edd28ca4960da6cfedf98f42e2631314c",
  "strippedsize": 216,
  "size": 216,
  "weight": 864,
  "tx": [
    {
      "txid": "5b7ab6b51cfaa24cfb92ea9a30bc6e539a684786a6ae71e72d9d897ed8e95657",
      "hash": "5b7ab6b51cfaa24cfb92ea9a30bc6e539a684786a6ae71e72d9d897ed8e95657",
      "version": 1,
      "size": 135,
      "vsize": 135,
      "weight": 540,
      "locktime": 0,
      "vin": [
        {
          "coinbase": "04ffff001d02d604",
          "sequence": 4294967295
        }
      ],
      "vout": [
        {
          "value": 50.0,
          "n": 0,
          "scriptPubKey": {
            "asm": "04f54a3850f4cf598909b9a3548ef4ef10d0c8891cafbcec37438d6b797146312319ff6f1471f29465d4bb3853255fa3a9d2d75be985bd4da5b463ee02bb2a1855 OP_CHECKSIG",
            "desc": "pk(04f54a3850f4cf598909b9a3548ef4ef10d0c8891cafbcec37438d6b797146312319ff6f1471f29465d4bb3853255fa3a9d2d75be985bd4da5b463ee02bb2a1855)#d2w7ys9j",
            "hex": "4104f54a3850f4cf598909b9a3548ef4ef10d0c8891cafbcec37438d6b797146312319ff6f1471f29465d4bb3853255fa3a9d2d75be985bd4da5b463ee02bb2a1855ac",
            "type": "pubkey"
          }
        }
      ],
      "hex": "01000000010000000000000000000000000000000000000000000000000000000000000000ffffffff0804ffff001d02d604ffffffff0100f2052a01000000434104f54a3850f4cf598909b9a3548ef4ef10d0c8891cafbcec37438d6b797146312319ff6f1471f29465d4bb3853255fa3a9d2d75be985bd4da5b463ee02bb2a1855ac00000000"
    }
  ]
}