{
  "hash": "00000000e3691de8b867864819eb3a97965e196f5f28f3ea18556af720845db3",
  "confirmations": 50558,
  "height": 2540,
  "version": 1,
  "versionHex": "00000001",
  "merkleroot": "1e3081a2053144d1f19ea19dd7294a183b34fa334f09a649c30bd77bc50dcc0b",
  "time": 1233444755,
  "mediantime": 1233441464,
  "nonce": 217213879,
  "bits": "1d00ffff",
  "difficulty": 1,
  "chainwork": "000000000000000000000000000000000000000000000000000009ed09ed09ed",
  "nTx": 1,
  "previousblockhash": "000000008efa1b463e936907b292aba8ec65a84c4b1e0978763b3e3dd9305b11",
  "nextblockhash": "0000000099531766ee9897533ea3fdecefa07109234dd0a52973b55f681b7c69",
  "strippedsize": 216,
  "size": 216,
  "weight": 864,
  "tx": [
    {
      "txid": "1e3081a2053144d1f19ea19dd7294a183b34fa334f09a649c30bd77bc50dcc0b",
      "hash": "1e3081a2053144d1f19ea19dd7294a183b34fa334f09a649c30bd77bc50dcc0b",
      "version": 1,
      "size": 135,
      "vsize": 135,
      "weight": 540,
      "locktime": 0,
      "vin": [
        {
          "coinbase": "04ffff001d026602",
          "sequence": 4294967295
        }
      ],
      "vout": [
        {
          "value": 50.0,
          "n": 0,
          "scriptPubKey": {
            "asm": "04c819824c3edc153dfb5e3d7635ec6f779f93136bb2228c25be31a1a69f5dbf542802d43776f35704385bd4055e63c694c32a638a9da23e397346990dc473d34b OP_CHECKSIG",
            "desc": "pk(04c819824c3edc153dfb5e3d7635ec6f779f93136bb2228c25be31a1a69f5dbf542802d43776f35704385bd4055e63c694c32a638a9da23e397346990dc473d34b)#quar5xw6",
            "hex": "4104c819824c3edc153dfb5e3d7635ec6f779f93136bb2228c25be31a1a69f5dbf542802d43776f35704385bd4055e63c694c32a638a9da23e397346990dc473d34bac",
            "type": "pubkey"
          }
        }
      ],
      "hex": "01000000010000000000000000000000000000000000000000000000000000000000000000ffffffff0804ffff001d026602ffffffff0100f2052a01000000434104c819824c3edc153dfb5e3d7635ec6f779f93136bb2228c25be31a1a69f5dbf542802d43776f35704385bd4055e63c694c32a638a9da23e397346990dc473d34bac00000000"
    }
  ]
}