{
  "hash": "0000000042c15539de289697b27c7ee35089d7187896d2ab2d66e8fadc61e3a3",
  "confirmations": 52069,
  "height": 1029,
  "version": 1,
  "versionHex": "00000001",
  "merkleroot": "913f0110ff044e6c7c94faef03621a34ef040983268d432160aa441028184fdb",
  "time": 1232369217,
  "mediantime": 1232367378,
  "nonce": 3559290146,
  "bits": "1d00ffff",
  "difficulty": 1,
  "chainwork": "0000000000000000000000000000000000000000000000000000040604060406",
  "nTx": 1,
  "previousblockhash": "000000001bac8da2b747fc932bc14d168e25be8088adc164fe859f9acf8c5d16",
  "nextblockhash": "00000000f10051ec4605c41b0ce790793b794d490aadf9c9a5a2c09f717737b5",
  "strippedsize": 216,
  "size": 216,
  "weight": 864,
  "tx": [
    {
      "txid": "913f0110ff044e6c7c94faef03621a34ef040983268d432160aa441028184fdb",
      "hash": "913f0110ff044e6c7c94faef03621a34ef040983268d432160aa441028184fdb",
      "version": 1,
      "size": 135,
      "vsize": 135,
      "weight": 540,
      "locktime": 0,
      "vin": [
        {
          "coinbase": "04ffff001d02a105",
          "sequence": 4294967295
        }
      ],
      "vout": [
        {
          "value": 50.0,
          "n": 0,
          "scriptPubKey": {
            "asm": "045390cfd719cff2dae111472d65510fb49070a9b1d5c4530e2b84cb457c97b8108d96c1d317c787cbcb99060ed01f5f12289f8bf746e36abcefee7426db7d345c OP_CHECKSIG",
            "desc": "pk(045390cfd719cff2dae111472d65510fb49070a9b1d5c4530e2b84cb457c97b8108d96c1d317c787cbcb99060ed01f5f12289f8bf746e36abcefee7426db7d345c)#6l2fp274",
            "hex": "41045390cfd719cff2dae111472d65510fb49070a9b1d5c4530e2b84cb457c97b8108d96c1d317c787cbcb99060ed01f5f12289f8bf746e36abcefee7426db7d345cac",
            "type": "pubkey"
          }
        }
      ],
      "hex": "01000000010000000000000000000000000000000000000000000000000000000000000000ffffffff0804ffff001d02a105ffffffff0100f2052a010000004341045390cfd719cff2dae111472d65510fb49070a9b1d5c4530e2b84cb457c97b8108d96c1d317c787cbcb99060ed01f5f12289f8bf746e36abcefee7426db7d345cac00000000"
    }
  ]
}