{
  "hash": "00000000b087de26aec482f9bdf5910d81fda1ecd21946da96fec77078b690dc",
  "confirmations": 48511,
  "height": 4587,
  "version": 1,
  "versionHex": "00000001",
  "merkleroot": "ccb8be5a3b9d82e52b0cbf069beef64ca4fca068b90cf157e52795229922c58a",
  "time": 1234846312,
  "mediantime": 1234843273,
  "nonce": 126202678,
  "bits": "1d00ffff",
  "difficulty": 1,
  "chainwork": "000000000000000000000000000000000000000000000000000011ec11ec11ec",
  "nTx": 1,
  "previousblockhash": "0000000057211ff1df8c40aa2d06511a4269b6ad2d435c253194548ae7167827",
  "nextblockhash": "000000004f5bac3d27d71d8e227acedb2808bae47e40028bf70ba3a8e9418bdc",
  "strippedsize": 216,
  "size": 216,
  "weight": 864,
  "tx": [
    {
      "txid": "ccb8be5a3b9d82e52b0cbf069beef64ca4fca068b90cf157e52795229922c58a",
      "hash": "ccb8be5a3b9d82e52b0cbf069beef64ca4fca068b90cf157e52795229922c58a",
      "version": 1,
      "size": 135,
      "vsize": 135,
      "weight": 540,
      "locktime": 0,
      "vin": [
        {
          "coinbase": "04ffff001d02a903",
          "sequence": 4294967295
        }
      ],
      "vout": [
        {
          "value": 50.0,
          "n": 0,
          "scriptPubKey": {
            "asm": "04f9f7b62dc3e81913bbcfb1078d69767d592212d076b64cf3c215878d64936a2df7e2283887b4736fc6c4267b3a4c5ef326bc042119ea087fa75bb32fbf821edc OP_CHECKSIG",
            "desc": "pk(04f9f7b62dc3e81913bbcfb1078d69767d592212d076b64cf3c215878d64936a2df7e2283887b4736fc6c4267b3a4c5ef326bc042119ea087fa75bb32fbf821edc)#mt2jf4z9",
            "hex": "4104f9f7b62dc3e81913bbcfb1078d69767d592212d076b64cf3c215878d64936a2df7e2283887b4736fc6c4267b3a4c5ef326bc042119ea087fa75bb32fbf821edcac",
            "type": "pubkey"
          }
        }
      ],
      "hex": "01000000010000000000000000000000000000000000000000000000000000000000000000ffffffff0804ffff001d02a903ffffffff0100f2052a01000000434104f9f7b62dc3e81913bbcfb1078d69767d592212d076b64cf3c215878d64936a2df7e2283887b4736fc6c4267b3a4c5ef326bc042119ea087fa75bb32fbf821edcac00000000"
    }
  ]
}