{
  "hash": "000000000690f09d47a1b20d08342d819daba7faea8abe7ea7110c045883cbd6",
  "confirmations": 51536,
  "height": 1562,
  "version": 1,
  "versionHex": "00000001",
  "merkleroot": "79fbd94a0d2a3cac5a4316429143d20570b0cdee52dd8a3565bea32c5dd3d426",
  "time": 1232795437,
  "mediantime": 1232792285,
  "nonce": 1010136864,
  "bits": "1d00ffff",
  "difficulty": 1,
  "chainwork": "0000000000000000000000000000000000000000000000000000061b061b061b",
  "nTx": 1,
  "previousblockhash": "0000000069c73469660e9571f822e085c3314b3c32e1fe2a2977a257412509e4",
  "nextblockhash": "000000000674ff0ad49b195652ef85d01eb574790cb4331e711f7c1b5191363d",
  "strippedsize": 216,
  "size": 216,
  "weight": 864,
  "tx": [
    {
      "txid": "79fbd94a0d2a3cac5a4316429143d20570b0cdee52dd8a3565bea32c5dd3d426",
      "hash": "79fbd94a0d2a3cac5a4316429143d20570b0cdee52dd8a3565bea32c5dd3d426",
      "version": 1,
      "size": 135,
      "vsize": 135,
      "weight": 540,
      "locktime": 0,
      "vin": [
        {
          "coinbase": "04ffff001d02bc01",
          "sequence": 4294967295
        }
      ],
      "vout": [
        {
          "value": 50.0,
          "n": 0,
          "scriptPubKey": {
            "asm": "04d494c7db03fa5b5f53c4b2277947ad6ed88767524db0f87369158efa8248b8b5bd330101308ab85dda71a9abe7821ff3a3361b5bca72362154297b4d61d801f2 OP_CHECKSIG",
            "desc": "pk(04d494c7db03fa5b5f53c4b2277947ad6ed88767524db0f87369158efa8248b8b5bd330101308ab85dda71a9abe7821ff3a3361b5bca72362154297b4d61d801f2)#l7r6n0mq",
            "hex": "4104d494c7db03fa5b5f53c4b2277947ad6ed88767524db0f87369158efa8248b8b5bd330101308ab85dda71a9abe7821ff3a3361b5bca72362154297b4d61d801f2ac",
            "type": "pubkey"
          }
        }
      ],
      "hex": "01000000010000000000000000000000000000000000000000000000000000000000000000ffffffff0804ffff001d02bc01ffffffff0100f2052a01000000434104d494c7db03fa5b5f53c4b2277947ad6ed88767524db0f87369158efa8248b8b5bd330101308ab85dda71a9abe7821ff3a3361b5bca72362154297b4d61d801f2ac00000000"
    }
  ]
}