{
  "hash": "0000000030758b5a93041fdfcae3c10de124013f0a6133bf2efd61872eaf622b",
  "confirmations": 47116,
  "height": 5982,
  "version": 1,
  "versionHex": "00000001",
  "merkleroot": "b29afb5ae31e09b85f80e3ac8e8bac3a213c705c98f337d94135d5db568bcf89",
  "time": 1235913200,
  "mediantime": 1235909597,
  "nonce": 748548609,
  "bits": "1d00ffff",
  "difficulty": 1,
  "chainwork": "0000000000000000000000000000000000000000000000000000175f175f175f",
  "nTx": 1,
  "previousblockhash": "00000000074e3037bb19046e7afc5f88418e6d188477615dbce76877b2e639b8",
  "nextblockhash": "0000000007a3d4e82bab6dd5c48f6be01b0b80ac5134a3d87629a6fc26c48dbc",
  "strippedsize": 216,
  "size": 216,
  "weight": 864,
  "tx": [
    {
      "txid": "b29afb5ae31e09b85f80e3ac8e8bac3a213c705c98f337d94135d5db568bcf89",
      "hash": "b29afb5ae31e09b85f80e3ac8e8bac3a213c705c98f337d94135d5db568bcf89",
      "version": 1,
      "size": 135,
      "vsize": 135,
      "weight": 540,
      "locktime": 0,
      "vin": [
        {
          "coinbase": "04ffff001d029704",
          "sequence": 4294967295
        }
      ],
      "vout": [
        {
          "value": 50.0,
          "n": 0,
          "scriptPubKey": {
            "asm": "04a36a83f689d3378fbbe0125ce8b1ad8dd8599a73059421dc19739d0e254385395b58cd33df028128a1930fccaf1ad90ba37e84ece4e79639a13f932bb9be519a OP_CHECKSIG",
            "desc": "pk(04a36a83f689d3378fbbe0125ce8b1ad8dd8599a73059421dc19739d0e254385395b58cd33df028128a1930fccaf1ad90ba37e84ece4e79639a13f932bb9be519a)#u60fllc7",
            "hex": "4104a36a83f689d3378fbbe0125ce8b1ad8dd8599a73059421dc19739d0e254385395b58cd33df028128a1930fccaf1ad90ba37e84ece4e79639a13f932bb9be519aac",
            "type": "pubkey"
          }
        }
      ],
      "hex": "01000000010000000000000000000000000000000000000000000000000000000000000000ffffffff0804ffff001d029704ffffffff0100f2052a01000000434104a36a83f689d3378fbbe0125ce8b1ad8dd8599a73059421dc19739d0e254385395b58cd33df028128a1930fccaf1ad90ba37e84ece4e79639a13f932bb9be519aac00000000"
    }
  ]
}