{
  "hash": "00000000426241707fe4345ca202d374086142a03f216cf09be6850b4a155692",
  "confirmations": 50070,
  "height": 3028,
  "version": 1,
  "versionHex": "00000001",
  "merkleroot": "3a796c07584dbe6e0017fcd05eefcb72b705c9890a61fdae06945e5cbc65e4c5",
  "time": 1233781219,
  "mediantime": 1233777957,
  "nonce": 171617694,
  "bits": "1d00ffff",
  "difficulty": 1,
  "chainwork": "00000000000000000000000000000000000000000000000000000bd50bd50bd5",
  "nTx": 1,
  "previousblockhash": "0000000097a84662b678aa8767613c4b3f13003d0e0bcf0819c2fe1a79eb1974",
  "nextblockhash": "00000000ebb5c787dc062f35b25915e00b89ee2f499767592828c9fdb11c092e",
  "strippedsize": 215,
  "size": 215,
  "weight": 860,
  "tx": [
    {
      "txid": "3a796c07584dbe6e0017fcd05eefcb72b705c9890a61fdae06945e5cbc65e4c5",
      "hash": "3a796c07584dbe6e0017fcd05eefcb72b705c9890a61fdae06945e5cbc65e4c5",
      "version": 1,
      "size": 134,
      "vsize": 134,
      "weight": 536,
      "locktime": 0,
      "vin": [
        {
          "coinbase": "04ffff001d0138",
          "sequence": 4294967295
        }
      ],
      "vout": [
        {
          "value": 50.0,
          "n": 0,
          "scriptPubKey": {
            "asm": "04c40f2f318894bdccc3bd3caba7eec4e08af9bcd1f0b6ae90311b36dbb8a238026555cd730a588914006362b252f43f9c887bbdd4efab50960ac7cbc4acb0444b OP_CHECKSIG",
            "desc": "pk(04c40f2f318894bdccc3bd3caba7eec4e08af9bcd1f0b6ae90311b36dbb8a238026555cd730a588914006362b252f43f9c887bbdd4efab50960ac7cbc4acb0444b)#h05fltc6",
            "hex": "4104c40f2f318894bdccc3bd3caba7eec4e08af9bcd1f0b6ae90311b36dbb8a238026555cd730a588914006362b252f43f9c887bbdd4efab50960ac7cbc4acb0444bac",
            "type": "pubkey"
          }
        }
      ],
      "hex": "01000000010000000000000000000000000000000000000000000000000000000000000000ffffffff0704ffff001d0138ffffffff0100f2052a01000000434104c40f2f318894bdccc3bd3caba7eec4e08af9bcd1f0b6ae90311b36dbb8a238026555cd730a588914006362b252f43f9c887bbdd4efab50960ac7cbc4acb0444bac00000000"
    }
  ]
}