{
  "hash": "00000000310390cfdbbc551e34176c9149fd1966ca6c6d15ebb9e15d26d01684",
  "confirmations": 44010,
  "height": 9088,
  "version": 1,
  "versionHex": "00000001",
  "merkleroot": "794b1cc1cd1fda586ce15ad14fb5d68a2468df2b0c15b2620950f9c62c294394",
  "time": 1238323449,
  "mediantime": 1238319297,
  "nonce": 204555575,
  "bits": "1d00ffff",
  "difficulty": 1,
  "chainwork": "0000000000000000000000000000000000000000000000000000238123812381",
  "nTx": 1,
  "previousblockhash": "000000002c639cf314da2cd627f37349e7139841fc034eab6eeaa7c6732e3d53",
  "nextblockhash": "00000000ef2a79f17cf6627f0d7fef905e83bf6f6a64fc03b31dd5151c88852a",
  "strippedsize": 216,
  "size": 216,
  "weight": 864,
  "tx": [
    {
      "txid": "794b1cc1cd1fda586ce15ad14fb5d68a2468df2b0c15b2620950f9c62c294394",
      "hash": "794b1cc1cd1fda586ce15ad14fb5d68a2468df2b0c15b2620950f9c62c294394",
      "version": 1,
      "size": 135,
      "vsize": 135,
      "weight": 540,
      "locktime": 0,
      "vin": [
        {
          "coinbase": "04ffff001d021908",
          "sequence": 4294967295
        }
      ],
      "vout": [
        {
          "value": 50.0,
          "n": 0,
          "scriptPubKey": {
            "asm": "04bf0aa9b11c51475e1d44c43308b1f9775091671989a39e2a02ad0df0250b7844b172800e496a9512d550d5313a6e3b8f0dd2671e5397701523c11db1dc67cc1c OP_CHECKSIG",
            "desc": "pk(04bf0aa9b11c51475e1d44c43308b1f9775091671989a39e2a02ad0df0250b7844b172800e496a9512d550d5313a6e3b8f0dd2671e5397701523c11db1dc67cc1c)#jjtcp2s8",
            "hex": "4104bf0aa9b11c51475e1d44c43308b1f9775091671989a39e2a02ad0df0250b7844b172800e496a9512d550d5313a6e3b8f0dd2671e5397701523c11db1dc67cc1cac",
            "type": "pubkey"
          }
        }
      ],
      "hex": "01000000010000000000000000000000000000000000000000000000000000000000000000ffffffff0804ffff001d021908ffffffff0100f2052a01000000434104bf0aa9b11c51475e1d44c43308b1f9775091671989a39e2a02ad0df0250b7844b172800e496a9512d550d5313a6e3b8f0dd2671e5397701523c11db1dc67cc1cac00000000"
    }
  ]
}