{
  "hash": "0000000024b3acf0171e950d780d3db90f339aa3357252d375378e9427111c08",
  "confirmations": 51161,
  "height": 1937,
  "version": 1,
  "versionHex": "00000001",
  "merkleroot": "705a1ef8f78d94143c2c577b5cd3f9b00dcf556f5e87faf45296de5d73f3cf82",
  "time": 1232996999,
  "mediantime": 1232993005,
  "nonce": 4160016182,
  "bits": "1d00ffff",
  "difficulty": 1,
  "chainwork": "0000000000000000000000000000000000000000000000000000079207920792",
  "nTx": 1,
  "previousblockhash": "00000000b8ac4d358fa0a7d32a2c7a0dbf0cf7e6c369a009c3535e496c0b6b3a",
  "nextblockhash": "0000000073c361ad66b65532aec5cc99e4b7fcdd4896e8579c25dfc7ddba89a6",
  "strippedsize": 215,
  "size": 215,
  "weight": 860,
  "tx": [
    {
      "txid": "705a1ef8f78d94143c2c577b5cd3f9b00dcf556f5e87faf45296de5d73f3cf82",
      "hash": "705a1ef8f78d94143c2c577b5cd3f9b00dcf556f5e87faf45296de5d73f3cf82",
      "version": 1,
      "size": 134,
      "vsize": 134,
      "weight": 536,
      "locktime": 0,
      "vin": [
        {
          "coinbase": "04ffff001d0164",
          "sequence": 4294967295
        }
      ],
      "vout": [
        {
          "value": 50.0,
          "n": 0,
          "scriptPubKey": {
            "asm": "04ce2d5cdf6a3825912d3d9da0e4606ffc85a7f8b48e23fd29384ae6a7d9704386f2c4e9eeed8c0fc17ff3cb5e01d2d11e544e50503c8113882754c7b19a2db599 OP_CHECKSIG",
            "desc": "pk(04ce2d5cdf6a3825912d3d9da0e4606ffc85a7f8b48e23fd29384ae6a7d9704386f2c4e9eeed8c0fc17ff3cb5e01d2d11e544e50503c8113882754c7b19a2db599)#sf2yzhcr",
            "hex": "4104ce2d5cdf6a3825912d3d9da0e4606ffc85a7f8b48e23fd29384ae6a7d9704386f2c4e9eeed8c0fc17ff3cb5e01d2d11e544e50503c8113882754c7b19a2db599ac",
            "type": "pubkey"
          }
        }
      ],
      "hex": "01000000010000000000000000000000000000000000000000000000000000000000000000ffffffff0704ffff001d0164ffffffff0100f2052a01000000434104ce2d5cdf6a3825912d3d9da0e4606ffc85a7f8b48e23fd29384ae6a7d9704386f2c4e9eeed8c0fc17ff3cb5e01d2d11e544e50503c8113882754c7b19a2db599ac00000000"
    }
  ]
}