{
  "hash": "000000006ebcdb80c7c2e27af3f3dd6e54efd5094328a319a8cb9024a64fe4a7",
  "confirmations": 44833,
  "height": 8265,
  "version": 1,
  "versionHex": "00000001",
  "merkleroot": "2e0e72e8b5ba70855a855d880ee8e778e94c6248be68b401bfee8c03c16f05bf",
  "time": 1237708652,
  "mediantime": 1237704472,
  "nonce": 114945049,
  "bits": "1d00ffff",
  "difficulty": 1,
  "chainwork": "0000000000000000000000000000000000000000000000000000204a204a204a",
  "nTx": 1,
  "previousblockhash": "00000000eb9788be682b8e427ed48cb2a128ffddcb509fa8164108a483a41bdd",
  "nextblockhash": "000000004d0fd467c9c464f1805333ddd87a9f438ee21bd00515b5f57e597fc8",
  "strippedsize": 216,
  "size": 216,
  "weight": 864,
  "tx": [
    {
      "txid": "2e0e72e8b5ba70855a855d880ee8e778e94c6248be68b401bfee8c03c16f05bf",
      "hash": "2e0e72e8b5ba70855a855d880ee8e778e94c6248be68b401bfee8c03c16f05bf",
      "version": 1,
      "size": 135,
      "vsize": 135,
      "weight": 540,
      "locktime": 0,
      "vin": [
        {
          "coinbase": "04ffff001d02ab03",
          "sequence": 4294967295
        }
      ],
      "vout": [
        {
          "value": 50.0,
          "n": 0,
          "scriptPubKey": {
            "asm": "047c3bccfb8b801a7b864281bf90e11c98059523b6f725207931f599b2c859cfc3251dc0a26f5651fbc4d53231839886bd5c58ea27eb87a794fb793ce033ea38e4 OP_CHECKSIG",
            "desc": "pk(047c3bccfb8b801a7b864281bf90e11c98059523b6f725207931f599b2c859cfc3251dc0a26f5651fbc4d53231839886bd5c58ea27eb87a794fb793ce033ea38e4)#rm29rytp",
            "hex": "41047c3bccfb8b801a7b864281bf90e11c98059523b6f725207931f599b2c859cfc3251dc0a26f5651fbc4d53231839886bd5c58ea27eb87a794fb793ce033ea38e4ac",
            "type": "pubkey"
          }
        }
      ],
      "hex": "01000000010000000000000000000000000000000000000000000000000000000000000000ffffffff0804ffff001d02ab03ffffffff0100f2052a010000004341047c3bccfb8b801a7b864281bf90e11c98059523b6f725207931f599b2c859cfc3251dc0a26f5651fbc4d53231839886bd5c58ea27eb87a794fb793ce033ea38e4ac00000000"
    }
  ]
}