{
  "hash": "0000000037da02c4c4cf3236c65aee9856fc3771c62c8ffff1ba4c2a2f870887",
  "confirmations": 45562,
  "height": 7536,
  "version": 1,
  "versionHex": "00000001",
  "merkleroot": "484625987be4e276b9d5d87fc191f98be9f5d5d95dde59326c00c3eb73148553",
  "time": 1237126026,
  "mediantime": 1237122907,
  "nonce": 2593094664,
  "bits": "1d00ffff",
  "difficulty": 1,
  "chainwork": "00000000000000000000000000000000000000000000000000001d711d711d71",
  "nTx": 1,
  "previousblockhash": "00000000bee1692a9104248b9dadcaaf0c45b358572c60f2824cbf2a30e9de25",
  "nextblockhash": "000000009080921cf08df2e9cc4f8fa0f450481ff00db4bc217b88e8d1e58b7f",
  "strippedsize": 216,
  "size": 216,
  "weight": 864,
  "tx": [
    {
      "txid": "484625987be4e276b9d5d87fc191f98be9f5d5d95dde59326c00c3eb73148553",
      "hash": "484625987be4e276b9d5d87fc191f98be9f5d5d95dde59326c00c3eb73148553",
      "version": 1,
      "size": 135,
      "vsize": 135,
      "weight": 540,
      "locktime": 0,
      "vin": [
        {
          "coinbase": "04ffff001d029d01",
          "sequence": 4294967295
        }
      ],
      "vout": [
        {
          "value": 50.0,
          "n": 0,
          "scriptPubKey": {
            "asm": "0456bbe25b493514ab1d164c78a241174832014f6e838b3bc19e8c163b902722b2ff5161590deccb044c5d786c1bb83cd0185d65def3779b0afde0e28f54b6a0c0 OP_CHECKSIG",
            "desc": "pk(0456bbe25b493514ab1d164c78a241174832014f6e838b3bc19e8c163b902722b2ff5161590deccb044c5d786c1bb83cd0185d65def3779b0afde0e28f54b6a0c0)#t285glzc",
            "hex": "410456bbe25b493514ab1d164c78a241174832014f6e838b3bc19e8c163b902722b2ff5161590deccb044c5d786c1bb83cd0185d65def3779b0afde0e28f54b6a0c0ac",
            "type": "pubkey"
          }
        }
      ],
      "hex": "01000000010000000000000000000000000000000000000000000000000000000000000000ffffffff0804ffff001d029d01ffffffff0100f2052a0100000043410456bbe25b493514ab1d164c78a241174832014f6e838b3bc19e8c163b902722b2ff5161590deccb044c5d786c1bb83cd0185d65def3779b0afde0e28f54b6a0c0ac00000000"
    }
  ]
}