{
  "hash": "0000000011b6a8aab82d7be7642ea9c909b2a6e783e5b96de4a77b9de04f5c02",
  "confirmations": 50174,
  "height": 2924,
  "version": 1,
  "versionHex": "00000001",
  "merkleroot": "fbe57d60d62660a4aa9c502227b5dd20035fbd9659c9e22fadb6baa6694b702a",
  "time": 1233706586,
  "mediantime": 1233704592,
  "nonce": 2020757791,
  "bits": "1d00ffff",
  "difficulty": 1,
  "chainwork": "00000000000000000000000000000000000000000000000000000b6d0b6d0b6d",
  "nTx": 1,
  "previousblockhash": "0000000026489f015f397719b8b0431ce91a3f40f4f2c9dce3bf4081d61bfc46",
  "nextblockhash": "00000000d50a6a8bd41991340a80b0c01402d5fb1bda31ec62d1c768bcfde542",
  "strippedsize": 215,
  "size": 215,
  "weight": 860,
  "tx": [
    {
      "txid": "fbe57d60d62660a4aa9c502227b5dd20035fbd9659c9e22fadb6baa6694b702a",
      "hash": "fbe57d60d62660a4aa9c502227b5dd20035fbd9659c9e22fadb6baa6694b702a",
      "version": 1,
      "size": 134,
      "vsize": 134,
      "weight": 536,
      "locktime": 0,
      "vin": [
        {
          "coinbase": "04ffff001d0108",
          "sequence": 4294967295
        }
      ],
      "vout": [
        {
          "value": 50.0,
          "n": 0,
          "scriptPubKey": {
            "asm": "047abedfe35e618a2da966b947953269c2078d7ca0be0dda47d654b9919984bff7784c3cb3e317a05b5d56cbef46b37c14eae84f33cfc66ddbed95f1c9fb028965 OP_CHECKSIG",
            "desc": "pk(047abedfe35e618a2da966b947953269c2078d7ca0be0dda47d654b9919984bff7784c3cb3e317a05b5d56cbef46b37c14eae84f33cfc66ddbed95f1c9fb028965)#qhuzfuu5",
            "hex": "41047abedfe35e618a2da966b947953269c2078d7ca0be0dda47d654b9919984bff7784c3cb3e317a05b5d56cbef46b37c14eae84f33cfc66ddbed95f1c9fb028965ac",
            "type": "pubkey"
          }
        }
      ],
      "hex": "01000000010000000000000000000000000000000000000000000000000000000000000000ffffffff0704ffff001d0108ffffffff0100f2052a010000004341047abedfe35e618a2da966b947953269c2078d7ca0be0dda47d654b9919984bff7784c3cb3e317a05b5d56cbef46b37c14eae84f33cfc66ddbed95f1c9fb028965ac00000000"
    }
  ]
}