{
  "hash": "00000000b619e0d2de2553e632d75814cba8b95af7132d173c23ca8a0dbda690",
  "confirmations": 50204,
  "height": 2894,
  "version": 1,
  "versionHex": "00000001",
  "merkleroot": "db7fe562b03bbf4bf10fed30eecc56d2eabf2c0b60013bc6a6e21e675373b9a8",
  "time": 1233687668,
  "mediantime": 1233684700,
  "nonce": 836981765,
  "bits": "1d00ffff",
  "difficulty": 1,
  "chainwork": "00000000000000000000000000000000000000000000000000000b4f0b4f0b4f",
  "nTx": 1,
  "previousblockhash": "0000000044c429d722e2586f2ece255f6252fa9c8b8e2796d365fa5f8a21bf5c",
  "nextblockhash": "00000000ad220a413041f6c50c396ff9522f4e5dcc6c955e4e99ae7bbda2f575",
  "strippedsize": 216,
  "size": 216,
  "weight": 864,
  "tx": [
    {
      "txid": "db7fe562b03bbf4bf10fed30eecc56d2eabf2c0b60013bc6a6e21e675373b9a8",
      "hash": "db7fe562b03bbf4bf10fed30eecc56d2eabf2c0b60013bc6a6e21e675373b9a8",
      "version": 1,
      "size": 135,
      "vsize": 135,
      "weight": 540,
      "locktime": 0,
      "vin": [
        {
          "coinbase": "04ffff001d025607",
          "sequence": 4294967295
        }
      ],
      "vout": [
        {
          "value": 50.0,
          "n": 0,
          "scriptPubKey": {
            "asm": "04d5536fc5f9b015a2bbc4aef465fcc1adee881b4392fab3d9c4b2df60cbd06f60ba57e3d2a93887b261beece282abd78f7ca18eabf8c499a28057f24147db7c8c OP_CHECKSIG",
            "desc": "pk(04d5536fc5f9b015a2bbc4aef465fcc1adee881b4392fab3d9c4b2df60cbd06f60ba57e3d2a93887b261beece282abd78f7ca18eabf8c499a28057f24147db7c8c)#9pxxerqx",
            "hex": "4104d5536fc5f9b015a2bbc4aef465fcc1adee881b4392fab3d9c4b2df60cbd06f60ba57e3d2a93887b261beece282abd78f7ca18eabf8c499a28057f24147db7c8cac",
            "type": "pubkey"
          }
        }
      ],
      "hex": "01000000010000000000000000000000000000000000000000000000000000000000000000ffffffff0804ffff001d025607ffffffff0100f2052a01000000434104d5536fc5f9b015a2bbc4aef465fcc1adee881b4392fab3d9c4b2df60cbd06f60ba57e3d2a93887b261beece282abd78f7ca18eabf8c499a28057f24147db7c8cac00000000"
    }
  ]
}