{
  "hash": "00000000c987e02ccad0264c844cdd8b93bd4e8a21339b0335ea0a14c33ffd1e",
  "confirmations": 51679,
  "height": 1419,
  "version": 1,
  "versionHex": "00000001",
  "merkleroot": "5e660eac15932dc23bcd5a7f46a32e128e77ca8a27d148c9fd6420bdab0e4fe1",
  "time": 1232732834,
  "mediantime": 1232731121,
  "nonce": 98586927,
  "bits": "1d00ffff",
  "difficulty": 1,
  "chainwork": "0000000000000000000000000000000000000000000000000000058c058c058c",
  "nTx": 1,
  "previousblockhash": "0000000003e0d27d803c20957f34bd5f12758f7c4bf2e9db2a399338439f27ba",
  "nextblockhash": "00000000070b5a4ba16f846d325fa4ffc4144dbcfec4e6ae3a19fe9272eb8e5b",
  "strippedsize": 215,
  "size": 215,
  "weight": 860,
  "tx": [
    {
      "txid": "5e660eac15932dc23bcd5a7f46a32e128e77ca8a27d148c9fd6420bdab0e4fe1",
      "hash": "5e660eac15932dc23bcd5a7f46a32e128e77ca8a27d148c9fd6420bdab0e4fe1",
      "version": 1,
      "size": 134,
      "vsize": 134,
      "weight": 536,
      "locktime": 0,
      "vin": [
        {
          "coinbase": "04ffff001d0157",
          "sequence": 4294967295
        }
      ],
      "vout": [
        {
          "value": 50.0,
          "n": 0,
          "scriptPubKey": {
            "asm": "04df3bb416ed0ec7fcd19e16cafdd2d28e5188427ad49a1c57d6b9fb563e0cceda9612c1f138c6f9cf70c1b0fd7f5d04148cdbf43abc4a9a5422cc5d0900e35a15 OP_CHECKSIG",
            "desc": "pk(04df3bb416ed0ec7fcd19e16cafdd2d28e5188427ad49a1c57d6b9fb563e0cceda9612c1f138c6f9cf70c1b0fd7f5d04148cdbf43abc4a9a5422cc5d0900e35a15)#q6yfmnhy",
            "hex": "4104df3bb416ed0ec7fcd19e16cafdd2d28e5188427ad49a1c57d6b9fb563e0cceda9612c1f138c6f9cf70c1b0fd7f5d04148cdbf43abc4a9a5422cc5d0900e35a15ac",
            "type": "pubkey"
          }
        }
      ],
      "hex": "01000000010000000000000000000000000000000000000000000000000000000000000000ffffffff0704ffff001d0157ffffffff0100f2052a01000000434104df3bb416ed0ec7fcd19e16cafdd2d28e5188427ad49a1c57d6b9fb563e0cceda9612c1f138c6f9cf70c1b0fd7f5d04148cdbf43abc4a9a5422cc5d0900e35a15ac00000000"
    }
  ]
}