{
  "hash": "000000000ed039a379b37c9ef322845925eeb290ed65d1776bfac008e406aca3",
  "confirmations": 48755,
  "height": 4343,
  "version": 1,
  "versionHex": "00000001",
  "merkleroot": "77caea217a6ca5329bc112c8759dc4d4858f0c3e6e996477db7c2dd6758bdd48",
  "time": 1234673061,
  "mediantime": 1234670528,
  "nonce": 682265132,
  "bits": "1d00ffff",
  "difficulty": 1,
  "chainwork": "000000000000000000000000000000000000000000000000000010f810f810f8",
  "nTx": 1,
  "previousblockhash": "00000000f2a7a14a4e969c118db43111a594e526fdaac7b7fbbc2de268d0daee",
  "nextblockhash": "00000000671a2d3f5a7f097e90cde88fcd874bcc99f34b216e1c9e543823603d",
  "strippedsize": 215,
  "size": 215,
  "weight": 860,
  "tx": [
    {
      "txid": "77caea217a6ca5329bc112c8759dc4d4858f0c3e6e996477db7c2dd6758bdd48",
      "hash": "77caea217a6ca5329bc112c8759dc4d4858f0c3e6e996477db7c2dd6758bdd48",
      "version": 1,
      "size": 134,
      "vsize": 134,
      "weight": 536,
      "locktime": 0,
      "vin": [
        {
          "coinbase": "04ffff001d016b",
          "sequence": 4294967295
        }
      ],
      "vout": [
        {
          "value": 50.0,
          "n": 0,
          "scriptPubKey": {
            "asm": "04c9ce0ffc94493e85c54ca2972ec79102eb4aec62d14f07f0778cf0ceae426fdccf2c8efb216b723fac3fc08bb1a8c7cf3745736fc141a7154fcf56426fac3e33 OP_CHECKSIG",
            "desc": "pk(04c9ce0ffc94493e85c54ca2972ec79102eb4aec62d14f07f0778cf0ceae426fdccf2c8efb216b723fac3fc08bb1a8c7cf3745736fc141a7154fcf56426fac3e33)#yqdvp3sw",
            "hex": "4104c9ce0ffc94493e85c54ca2972ec79102eb4aec62d14f07f0778cf0ceae426fdccf2c8efb216b723fac3fc08bb1a8c7cf3745736fc141a7154fcf56426fac3e33ac",
            "type": "pubkey"
          }
        }
      ],
      "hex": "01000000010000000000000000000000000000000000000000000000000000000000000000ffffffff0704ffff001d016bffffffff0100f2052a01000000434104c9ce0ffc94493e85c54ca2972ec79102eb4aec62d14f07f0778cf0ceae426fdccf2c8efb216b723fac3fc08bb1a8c7cf3745736fc141a7154fcf56426fac3e33ac00000000"
    }
  ]
}