{
  "hash": "00000000d9934c6ea6d0ab6c209227622bab36973bf2f8519d56de8e490c5381",
  "confirmations": 52488,
  "height": 520,
  "version": 1,
  "versionHex": "00000001",
  "merkleroot": "156513330d84f34e4d45a5059872cf1b842bc7c42693e4e13daf0763b9c02e57",
  "time": 1231982359,
  "mediantime": 1231978202,
  "nonce": 892411671,
  "bits": "1d00ffff",
  "difficulty": 1,
  "chainwork": "0000000000000000000000000000000000000000000000000000020902090209",
  "nTx": 1,
  "previousblockhash": "00000000c82dee467b576139731f6197775ba9ff3bb57f0fde638b9a89d00423",
  "nextblockhash": "00000000df876b240d833725492cff229b57ce6cd27f23e55eb972c992fb099f",
  "strippedsize": 216,
  "size": 216,
  "weight": 864,
  "tx": [
    {
      "txid": "156513330d84f34e4d45a5059872cf1b842bc7c42693e4e13daf0763b9c02e57",
      "hash": "156513330d84f34e4d45a5059872cf1b842bc7c42693e4e13daf0763b9c02e57",
      "version": 1,
      "size": 135,
      "vsize": 135,
      "weight": 540,
      "locktime": 0,
      "vin": [
        {
          "coinbase": "04ffff001d02da04",
          "sequence": 4294967295
        }
      ],
      "vout": [
        {
          "value": 50.0,
          "n": 0,
          "scriptPubKey": {
            "asm": "04c9d92f7cff7d3c5a99f7008383362cca4a94285a1a1e8b428d15da9fe7c91fde3e3bbfdafda80c71497d036181680e5651f66ecdc5fe1de707735cf83e93bba2 OP_CHECKSIG",
            "desc": "pk(04c9d92f7cff7d3c5a99f7008383362cca4a94285a1a1e8b428d15da9fe7c91fde3e3bbfdafda80c71497d036181680e5651f66ecdc5fe1de707735cf83e93bba2)#9sg3rj9q",
            "hex": "4104c9d92f7cff7d3c5a99f7008383362cca4a94285a1a1e8b428d15da9fe7c91fde3e3bbfdafda80c71497d036181680e5651f66ecdc5fe1de707735cf83e93bba2ac",
            "type": "pubkey"
          }
        }
      ],
      "hex": "01000000010000000000000000000000000000000000000000000000000000000000000000ffffffff0804ffff001d02da04ffffffff0100f2052a01000000434104c9d92f7cff7d3c5a99f7008383362cca4a94285a1a1e8b428d15da9fe7c91fde3e3bbfdafda80c71497d036181680e5651f66ecdc5fe1de707735cf83e93bba2ac00000000"
    }
  ]
}