{
  "hash": "000000008f8eea4d988b36f4dac1eb2ca51b1ef1800e9747a3ce5e2271bda43c",
  "confirmations": 47467,
  "height": 5631,
  "version": 1,
  "versionHex": "00000001",
  "merkleroot": "fd46851043208aa1434533a22284565a46563afd6337c64afb0499db379c6aa2",
  "time": 1235630670,
  "mediantime": 1235626360,
  "nonce": 1156629271,
  "bits": "1d00ffff",
  "difficulty": 1,
  "chainwork": "0000000000000000000000000000000000000000000000000000160016001600",
  "nTx": 1,
  "previousblockhash": "0000000009e9cdbe92d53b0b9fe6bebeded78146fc57db033f58d10dd6a24d28",
  "nextblockhash": "000000002a98484f5fa940d1f5e7c1340d354438d9842b974afdafe56dd773e1",
  "strippedsize": 216,
  "size": 216,
  "weight": 864,
  "tx": [
    {
      "txid": "fd46851043208aa1434533a22284565a46563afd6337c64afb0499db379c6aa2",
      "hash": "fd46851043208aa1434533a22284565a46563afd6337c64afb0499db379c6aa2",
      "version": 1,
      "size": 135,
      "vsize": 135,
      "weight": 540,
      "locktime": 0,
      "vin": [
        {
          "coinbase": "04ffff001d024208",
          "sequence": 4294967295
        }
      ],
      "vout": [
        {
          "value": 50.0,
          "n": 0,
          "scriptPubKey": {
            "asm": "04749a95dd7a46937cb3e88df12cbff6d8e281aff2cb6a6ac695ba6738669094d1abdad37f36a15dfefc397f98e165f798a653b85c3631e35a4f2c3f1e137f3036 OP_CHECKSIG",
            "desc": "pk(04749a95dd7a46937cb3e88df12cbff6d8e281aff2cb6a6ac695ba6738669094d1abdad37f36a15dfefc397f98e165f798a653b85c3631e35a4f2c3f1e137f3036)#5x8fcn0m",
            "hex": "4104749a95dd7a46937cb3e88df12cbff6d8e281aff2cb6a6ac695ba6738669094d1abdad37f36a15dfefc397f98e165f798a653b85c3631e35a4f2c3f1e137f3036ac",
            "type": "pubkey"
          }
        }
      ],
      "hex": "01000000010000000000000000000000000000000000000000000000000000000000000000ffffffff0804ffff001d024208ffffffff0100f2052a01000000434104749a95dd7a46937cb3e88df12cbff6d8e281aff2cb6a6ac695ba6738669094d1abdad37f36a15dfefc397f98e165f798a653b85c3631e35a4f2c3f1e137f3036ac00000000"
    }
  ]
}