{
  "hash": "00000000b3561c638ab2c907ba3cd3833a11df44b2626990f63a6817a6aa54c5",
  "confirmations": 46137,
  "height": 6961,
  "version": 1,
  "versionHex": "00000001",
  "merkleroot": "13395adcae209aec506f12bf73333405d0eab1ea5605c718e9baf154e95d2138",
  "time": 1236688340,
  "mediantime": 1236684586,
  "nonce": 3181568549,
  "bits": "1d00ffff",
  "difficulty": 1,
  "chainwork": "00000000000000000000000000000000000000000000000000001b321b321b32",
  "nTx": 1,
  "previousblockhash": "000000009122abec0ff964ce5fd87322f621aa8d02a5f501b29c74ef66dfa178",
  "nextblockhash": "000000006455617bb6eda83a5bfbe4aa5e4c8227dcb2956aea903e36041135b6",
  "strippedsize": 216,
  "size": 216,
  "weight": 864,
  "tx": [
    {
      "txid": "13395adcae209aec506f12bf73333405d0eab1ea5605c718e9baf154e95d2138",
      "hash": "13395adcae209aec506f12bf73333405d0eab1ea5605c718e9baf154e95d2138",
      "version": 1,
      "size": 135,
      "vsize": 135,
      "weight": 540,
      "locktime": 0,
      "vin": [
        {
          "coinbase": "04ffff001d028e01",
          "sequence": 4294967295
        }
      ],
      "vout": [
        {
          "value": 50.0,
          "n": 0,
          "scriptPubKey": {
            "asm": "04eb4440d5628f7f63710b059eced57bf50c550f71e66d0a673efef1ee06f9802ecb27f261287e31be39ccc40ff041ff12903221141f15c4d626aea89435fe5974 OP_CHECKSIG",
            "desc": "pk(04eb4440d5628f7f63710b059eced57bf50c550f71e66d0a673efef1ee06f9802ecb27f261287e31be39ccc40ff041ff12903221141f15c4d626aea89435fe5974)#fz9gae7r",
            "hex": "4104eb4440d5628f7f63710b059eced57bf50c550f71e66d0a673efef1ee06f9802ecb27f261287e31be39ccc40ff041ff12903221141f15c4d626aea89435fe5974ac",
            "type": "pubkey"
          }
        }
      ],
      "hex": "01000000010000000000000000000000000000000000000000000000000000000000000000ffffffff0804ffff001d028e01ffffffff0100f2052a01000000434104eb4440d5628f7f63710b059eced57bf50c550f71e66d0a673efef1ee06f9802ecb27f261287e31be39ccc40ff041ff12903221141f15c4d626aea89435fe5974ac00000000"
    }
  ]
}