{
  "hash": "0000000094b37d49514f3cb37c56dc0f54dbbae4b50172a8bc0b1265ef74701a",
  "confirmations": 46288,
  "height": 6810,
  "version": 1,
  "versionHex": "00000001",
  "merkleroot": "62c3eacf020af45b7cb3d2dcbb3d2c96f26cfbe6a47566ed800f60d126e81c82",
  "time": 1236564434,
  "mediantime": 1236561500,
  "nonce": 2782225956,
  "bits": "1d00ffff",
  "difficulty": 1,
  "chainwork": "00000000000000000000000000000000000000000000000000001a9b1a9b1a9b",
  "nTx": 1,
  "previousblockhash": "000000003c9c8d0185102c53eb1811fd8dd975706e9d748d5660cf9006e65374",
  "nextblockhash": "000000003a307b43839268cda17218fa04b2c2c98fc7fc916ffe2165d0b3a136",
  "strippedsize": 216,
  "size": 216,
  "weight": 864,
  "tx": [
    {
      "txid": "62c3eacf020af45b7cb3d2dcbb3d2c96f26cfbe6a47566ed800f60d126e81c82",
      "hash": "62c3eacf020af45b7cb3d2dcbb3d2c96f26cfbe6a47566ed800f60d126e81c82",
      "version": 1,
      "size": 135,
      "vsize": 135,
      "weight": 540,
      "locktime": 0,
      "vin": [
        {
          "coinbase": "04ffff001d022909",
          "sequence": 4294967295
        }
      ],
      "vout": [
        {
          "value": 50.0,
          "n": 0,
          "scriptPubKey": {
            "asm": "042af763b57ccb89e97ffe6e55c419e1facda6c13e6ed96b1197240bad3677363dce96b8123b7375f732b3ae43fb970a265442bfda22881c2c3b5276fa0bbeb400 OP_CHECKSIG",
            "desc": "pk(042af763b57ccb89e97ffe6e55c419e1facda6c13e6ed96b1197240bad3677363dce96b8123b7375f732b3ae43fb970a265442bfda22881c2c3b5276fa0bbeb400)#4l4ywt40",
            "hex": "41042af763b57ccb89e97ffe6e55c419e1facda6c13e6ed96b1197240bad3677363dce96b8123b7375f732b3ae43fb970a265442bfda22881c2c3b5276fa0bbeb400ac",
            "type": "pubkey"
          }
        }
      ],
      "hex": "01000000010000000000000000000000000000000000000000000000000000000000000000ffffffff0804ffff001d022909ffffffff0100f2052a010000004341042af763b57ccb89e97ffe6e55c419e1facda6c13e6ed96b1197240bad3677363dce96b8123b7375f732b3ae43fb970a265442bfda22881c2c3b5276fa0bbeb400ac00000000"
    }
  ]
}