{
  "hash": "00000000fa54966eeddec2ee763473e6ea3d7c1de237a301bca3c17ae8084542",
  "confirmations": 46451,
  "height": 6647,
  "version": 1,
  "versionHex": "00000001",
  "merkleroot": "34b074801aee8896426a9f45894d20095c4089451ccf6019690270f854fe4491",
  "time": 1236442646,
  "mediantime": 1236438519,
  "nonce": 19571599,
  "bits": "1d00ffff",
  "difficulty": 1,
  "chainwork": "000000000000000000000000000000000000000000000000000019f819f819f8",
  "nTx": 1,
  "previousblockhash": "00000000767f0254e57279f9029ef950cc3b3ca424ff765194de98674fcec901",
  "nextblockhash": "000000002792abad08ff528fd71821b23c2c87b2ebb49034e36a4aa8e78f66fb",
  "strippedsize": 215,
  "size": 215,
  "weight": 860,
  "tx": [
    {
      "txid": "34b074801aee8896426a9f45894d20095c4089451ccf6019690270f854fe4491",
      "hash": "34b074801aee8896426a9f45894d20095c4089451ccf6019690270f854fe4491",
      "version": 1,
      "size": 134,
      "vsize": 134,
      "weight": 536,
      "locktime": 0,
      "vin": [
        {
          "coinbase": "04ffff001d0144",
          "sequence": 4294967295
        }
      ],
      "vout": [
        {
          "value": 50.0,
          "n": 0,
          "scriptPubKey": {
            "asm": "04f86a79a17c454c86bc031b4e928a02f17ec57fc90d0c0dbfeaed8f54635a17031b9df768296f56300c4cf4611290f27eba884a2fc769723dd3bfb130f49eadf4 OP_CHECKSIG",
            "desc": "pk(04f86a79a17c454c86bc031b4e928a02f17ec57fc90d0c0dbfeaed8f54635a17031b9df768296f56300c4cf4611290f27eba884a2fc769723dd3bfb130f49eadf4)#m0njtr73",
            "hex": "4104f86a79a17c454c86bc031b4e928a02f17ec57fc90d0c0dbfeaed8f54635a17031b9df768296f56300c4cf4611290f27eba884a2fc769723dd3bfb130f49eadf4ac",
            "type": "pubkey"
          }
        }
      ],
      "hex": "01000000010000000000000000000000000000000000000000000000000000000000000000ffffffff0704ffff001d0144ffffffff0100f2052a01000000434104f86a79a17c454c86bc031b4e928a02f17ec57fc90d0c0dbfeaed8f54635a17031b9df768296f56300c4cf4611290f27eba884a2fc769723dd3bfb130f49eadf4ac00000000"
    }
  ]
}