{
  "hash": "000000004461f7c3d567d2d658ee66317859bc922f270438df621a0e851571fc",
  "confirmations": 50880,
  "height": 2218,
  "version": 1,
  "versionHex": "00000001",
  "merkleroot": "4ebe3f8b63ca942e5a94eb14b067b6398aac97c2b73d7eabf8c2f4281f54dd92",
  "time": 1233227044,
  "mediantime": 1233223216,
  "nonce": 1010710046,
  "bits": "1d00ffff",
  "difficulty": 1,
  "chainwork": "000000000000000000000000000000000000000000000000000008ab08ab08ab",
  "nTx": 1,
  "previousblockhash": "0000000068f0ffcd5493d706ced42fd21407d9e2cd2c90eedbb53430fb7df297",
  "nextblockhash": "00000000d89c882e1921531b16721a8449d59e81e9f0cdb9490fc058607b1cfd",
  "strippedsize": 216,
  "size": 216,
  "weight": 864,
  "tx": [
    {
      "txid": "4ebe3f8b63ca942e5a94eb14b067b6398aac97c2b73d7eabf8c2f4281f54dd92",
      "hash": "4ebe3f8b63ca942e5a94eb14b067b6398aac97c2b73d7eabf8c2f4281f54dd92",
      "version": 1,
      "size": 135,
      "vsize": 135,
      "weight": 540,
      "locktime": 0,
      "vin": [
        {
          "coinbase": "04ffff001d029c00",
          "sequence": 4294967295
        }
      ],
      "vout": [
        {
          "value": 50.0,
          "n": 0,
          "scriptPubKey": {
            "asm": "04f2062335962d7164ec3adf46c0a2ae97741bf2b68d314548ce79fc8ab871f347a68d0c9be661487fec469a9f6a11c127e475fc9ac294daf915915d87bd2c1b0b OP_CHECKSIG",
            "desc": "pk(04f2062335962d7164ec3adf46c0a2ae97741bf2b68d314548ce79fc8ab871f347a68d0c9be661487fec469a9f6a11c127e475fc9ac294daf915915d87bd2c1b0b)#4dgn0nl5",
            "hex": "4104f2062335962d7164ec3adf46c0a2ae97741bf2b68d314548ce79fc8ab871f347a68d0c9be661487fec469a9f6a11c127e475fc9ac294daf915915d87bd2c1b0bac",
            "type": "pubkey"
          }
        }
      ],
      "hex": "01000000010000000000000000000000000000000000000000000000000000000000000000ffffffff0804ffff001d029c00ffffffff0100f2052a01000000434104f2062335962d7164ec3adf46c0a2ae97741bf2b68d314548ce79fc8ab871f347a68d0c9be661487fec469a9f6a11c127e475fc9ac294daf915915d87bd2c1b0bac00000000"
    }
  ]
}