{
  "hash": "000000001fed6c39cc446c996957c0ef84815ef8cbfc8a8b7456ea6b306fe843",
  "confirmations": 45860,
  "height": 7238,
  "version": 1,
  "versionHex": "00000001",
  "merkleroot": "37abd54cefb77e9bcb0e05eee2859ba7ceb29f6c97ee39b4d8bb69b06662d95c",
  "time": 1236896885,
  "mediantime": 1236893955,
  "nonce": 1896065288,
  "bits": "1d00ffff",
  "difficulty": 1,
  "chainwork": "00000000000000000000000000000000000000000000000000001c471c471c47",
  "nTx": 1,
  "previousblockhash": "00000000f13295efafe1a7c5498a889d542604af98a705fee95bd2feb6cda2e3",
  "nextblockhash": "00000000b1ea7ccb6e077387e1ad2f74c14be3ec6e18df2e4bd5a8e499a68869",
  "strippedsize": 216,
  "size": 216,
  "weight": 864,
  "tx": [
    {
      "txid": "37abd54cefb77e9bcb0e05eee2859ba7ceb29f6c97ee39b4d8bb69b06662d95c",
      "hash": "37abd54cefb77e9bcb0e05eee2859ba7ceb29f6c97ee39b4d8bb69b06662d95c",
      "version": 1,
      "size": 135,
      "vsize": 135,
      "weight": 540,
      "locktime": 0,
      "vin": [
        {
          "coinbase": "04ffff001d023406",
          "sequence": 4294967295
        }
      ],
      "vout": [
        {
          "value": 50.0,
          "n": 0,
          "scriptPubKey": {
            "asm": "046445354e99437181b8c1fe38af9d35ff1c593f0323de0f19eabdcd1a6f9f80e027e22cb09a08e96a9227dfecffdd9ebd040ca095903d58fd9d6e9ba5fd5d45c4 OP_CHECKSIG",
            "desc": "pk(046445354e99437181b8c1fe38af9d35ff1c593f0323de0f19eabdcd1a6f9f80e027e22cb09a08e96a9227dfecffdd9ebd040ca095903d58fd9d6e9ba5fd5d45c4)#5897k9mf",
            "hex": "41046445354e99437181b8c1fe38af9d35ff1c593f0323de0f19eabdcd1a6f9f80e027e22cb09a08e96a9227dfecffdd9ebd040ca095903d58fd9d6e9ba5fd5d45c4ac",
            "type": "pubkey"
          }
        }
      ],
      "hex": "01000000010000000000000000000000000000000000000000000000000000000000000000ffffffff0804ffff001d023406ffffffff0100f2052a010000004341046445354e99437181b8c1fe38af9d35ff1c593f0323de0f19eabdcd1a6f9f80e027e22cb09a08e96a9227dfecffdd9ebd040ca095903d58fd9d6e9ba5fd5d45c4ac00000000"
    }
  ]
}