{
  "hash": "00000000427c706b1dc49235b057115f17cc762726739e7c4777a2b66fc480f1",
  "confirmations": 44823,
  "height": 8275,
  "version": 1,
  "versionHex": "00000001",
  "merkleroot": "76ebdfd1be2023dd0cb9ab11a0564d62fb8989bebd300f13305d4af456242e10",
  "time": 1237716347,
  "mediantime": 1237713823,
  "nonce": 2993724699,
  "bits": "1d00ffff",
  "difficulty": 1,
  "chainwork": "0000000000000000000000000000000000000000000000000000205420542054",
  "nTx": 1,
  "previousblockhash": "00000000522cb4cd482ce40f8014cb519990ddb89a47f5cd4b58e9cee1f4c586",
  "nextblockhash": "000000008f05edfb0fbbde763d148df2841f634cf1667488f9606cbb2df33063",
  "strippedsize": 216,
  "size": 216,
  "weight": 864,
  "tx": [
    {
      "txid": "76ebdfd1be2023dd0cb9ab11a0564d62fb8989bebd300f13305d4af456242e10",
      "hash": "76ebdfd1be2023dd0cb9ab11a0564d62fb8989bebd300f13305d4af456242e10",
      "version": 1,
      "size": 135,
      "vsize": 135,
      "weight": 540,
      "locktime": 0,
      "vin": [
        {
          "coinbase": "04ffff001d02dd03",
          "sequence": 4294967295
        }
      ],
      "vout": [
        {
          "value": 50.0,
          "n": 0,
          "scriptPubKey": {
            "asm": "04cc2b390ad2c5cf9582db731f6731963350e0e2b0f20b7a35f7b4bc6554d82facbab9652ddc97e5193c65a93d82f9bdceba28484bf3ecfc227f86c429104a7094 OP_CHECKSIG",
            "desc": "pk(04cc2b390ad2c5cf9582db731f6731963350e0e2b0f20b7a35f7b4bc6554d82facbab9652ddc97e5193c65a93d82f9bdceba28484bf3ecfc227f86c429104a7094)#dvlthgla",
            "hex": "4104cc2b390ad2c5cf9582db731f6731963350e0e2b0f20b7a35f7b4bc6554d82facbab9652ddc97e5193c65a93d82f9bdceba28484bf3ecfc227f86c429104a7094ac",
            "type": "pubkey"
          }
        }
      ],
      "hex": "01000000010000000000000000000000000000000000000000000000000000000000000000ffffffff0804ffff001d02dd03ffffffff0100f2052a01000000434104cc2b390ad2c5cf9582db731f6731963350e0e2b0f20b7a35f7b4bc6554d82facbab9652ddc97e5193c65a93d82f9bdceba28484bf3ecfc227f86c429104a7094ac00000000"
    }
  ]
}