{
  "hash": "000000002658852ddf8110ed5ae8b42b0089f0c2a318727d2b56885d458ce907",
  "confirmations": 47861,
  "height": 5237,
  "version": 1,
  "versionHex": "00000001",
  "merkleroot": "456a174676651bf957842f963005e071a1e1383f0dbb550630c4475929f09c3b",
  "time": 1235313666,
  "mediantime": 1235310993,
  "nonce": 3635451143,
  "bits": "1d00ffff",
  "difficulty": 1,
  "chainwork": "0000000000000000000000000000000000000000000000000000147614761476",
  "nTx": 1,
  "previousblockhash": "0000000072f3e99e7d129f44f9679ae08da4598460679748a75c1111f08f4207",
  "nextblockhash": "00000000bebf5faa7be0cff8f3f60ee171f69ff250add9e1dd580308688bd321",
  "strippedsize": 216,
  "size": 216,
  "weight": 864,
  "tx": [
    {
      "txid": "456a174676651bf957842f963005e071a1e1383f0dbb550630c4475929f09c3b",
      "hash": "456a174676651bf957842f963005e071a1e1383f0dbb550630c4475929f09c3b",
      "version": 1,
      "size": 135,
      "vsize": 135,
      "weight": 540,
      "locktime": 0,
      "vin": [
        {
          "coinbase": "04ffff001d020901",
          "sequence": 4294967295
        }
      ],
      "vout": [
        {
          "value": 50.0,
          "n": 0,
          "scriptPubKey": {
            "asm": "04d49769518490f502c77578f6af282d138547afd228d540b17e8256f7e23ccdbc989b8f712d25d97215f083221807da445918760d514cf0abfabd8c66d9ca4294 OP_CHECKSIG",
            "desc": "pk(04d49769518490f502c77578f6af282d138547afd228d540b17e8256f7e23ccdbc989b8f712d25d97215f083221807da445918760d514cf0abfabd8c66d9ca4294)#urhhr937",
            "hex": "4104d49769518490f502c77578f6af282d138547afd228d540b17e8256f7e23ccdbc989b8f712d25d97215f083221807da445918760d514cf0abfabd8c66d9ca4294ac",
            "type": "pubkey"
          }
        }
      ],
      "hex": "01000000010000000000000000000000000000000000000000000000000000000000000000ffffffff0804ffff001d020901ffffffff0100f2052a01000000434104d49769518490f502c77578f6af282d138547afd228d540b17e8256f7e23ccdbc989b8f712d25d97215f083221807da445918760d514cf0abfabd8c66d9ca4294ac00000000"
    }
  ]
}