{
  "hash": "00000000df89927ab39d47256afa9a7de0a7c4a15b32f920456c057467eed7dc",
  "confirmations": 51249,
  "height": 1849,
  "version": 1,
  "versionHex": "00000001",
  "merkleroot": "dd063f3e27b73ea65399d55a6968cab62f5e0b451ff05e8a41bc52f4d099e4e5",
  "time": 1232921243,
  "mediantime": 1232919338,
  "nonce": 3839838755,
  "bits": "1d00ffff",
  "difficulty": 1,
  "chainwork": "0000000000000000000000000000000000000000000000000000073a073a073a",
  "nTx": 1,
  "previousblockhash": "00000000845a1a4a029bc2a33d5eb51ef53502e314e5ba19ebd835c4bd353b3a",
  "nextblockhash": "000000001b5bcdc869f9be859cd3f7cd500c718ffe3d4ad3e941bef111593078",
  "strippedsize": 216,
  "size": 216,
  "weight": 864,
  "tx": [
    {
      "txid": "dd063f3e27b73ea65399d55a6968cab62f5e0b451ff05e8a41bc52f4d099e4e5",
      "hash": "dd063f3e27b73ea65399d55a6968cab62f5e0b451ff05e8a41bc52f4d099e4e5",
      "version": 1,
      "size": 135,
      "vsize": 135,
      "weight": 540,
      "locktime": 0,
      "vin": [
        {
          "coinbase": "04ffff001d02a404",
          "sequence": 4294967295
        }
      ],
      "vout": [
        {
          "value": 50.0,
          "n": 0,
          "scriptPubKey": {
            "asm": "040ee0fbb696e65b5c434b9cdbdd76b9b67f85b3fed94406da1b88adc22d325e60ed98155599fdc89daf0f03f9af658e9cbc54c267680975d6a07a9c9f19029b7b OP_CHECKSIG",
            "desc": "pk(040ee0fbb696e65b5c434b9cdbdd76b9b67f85b3fed94406da1b88adc22d325e60ed98155599fdc89daf0f03f9af658e9cbc54c267680975d6a07a9c9f19029b7b)#mzap68q5",
            "hex": "41040ee0fbb696e65b5c434b9cdbdd76b9b67f85b3fed94406da1b88adc22d325e60ed98155599fdc89daf0f03f9af658e9cbc54c267680975d6a07a9c9f19029b7bac",
            "type": "pubkey"
          }
        }
      ],
      "hex": "01000000010000000000000000000000000000000000000000000000000000000000000000ffffffff0804ffff001d02a404ffffffff0100f2052a010000004341040ee0fbb696e65b5c434b9cdbdd76b9b67f85b3fed94406da1b88adc22d325e60ed98155599fdc89daf0f03f9af658e9cbc54c267680975d6a07a9c9f19029b7bac00000000"
    }
  ]
}