{
  "hash": "00000000970066c6d43d0afa42d130dd8dfb87df978943270a41a8a8e9ccb757",
  "confirmations": 45404,
  "height": 7694,
  "version": 1,
  "versionHex": "00000001",
  "merkleroot": "ce110565c1cff5dda2abbd9685dca607f9f8ff48df1b47a98d2d156b00a04219",
  "time": 1237236218,
  "mediantime": 1237230876,
  "nonce": 1678630435,
  "bits": "1d00ffff",
  "difficulty": 1,
  "chainwork": "00000000000000000000000000000000000000000000000000001e0f1e0f1e0f",
  "nTx": 1,
  "previousblockhash": "000000008eecc1a8f452c12ee9c1df88ebb3689a0bc63afc82e323a812ef3be4",
  "nextblockhash": "00000000ab8187cbc09be260f545b5698f447035e4495e86c82ee38a223fb777",
  "strippedsize": 216,
  "size": 216,
  "weight": 864,
  "tx": [
    {
      "txid": "ce110565c1cff5dda2abbd9685dca607f9f8ff48df1b47a98d2d156b00a04219",
      "hash": "ce110565c1cff5dda2abbd9685dca607f9f8ff48df1b47a98d2d156b00a04219",
      "version": 1,
      "size": 135,
      "vsize": 135,
      "weight": 540,
      "locktime": 0,
      "vin": [
        {
          "coinbase": "04ffff001d021904",
          "sequence": 4294967295
        }
      ],
      "vout": [
        {
          "value": 50.0,
          "n": 0,
          "scriptPubKey": {
            "asm": "04da19732167ae5127ccb495cf61849a1494f4d617a7f173332c2c2d8b4d205ab1650296241f4fb45732208e12cfd595794a36b82b44c59da5882008afe352e40e OP_CHECKSIG",
            "desc": "pk(04da19732167ae5127ccb495cf61849a1494f4d617a7f173332c2c2d8b4d205ab1650296241f4fb45732208e12cfd595794a36b82b44c59da5882008afe352e40e)#rjvyt3qp",
            "hex": "4104da19732167ae5127ccb495cf61849a1494f4d617a7f173332c2c2d8b4d205ab1650296241f4fb45732208e12cfd595794a36b82b44c59da5882008afe352e40eac",
            "type": "pubkey"
          }
        }
      ],
      "hex": "01000000010000000000000000000000000000000000000000000000000000000000000000ffffffff0804ffff001d021904ffffffff0100f2052a01000000434104da19732167ae5127ccb495cf61849a1494f4d617a7f173332c2c2d8b4d205ab1650296241f4fb45732208e12cfd595794a36b82b44c59da5882008afe352e40eac00000000"
    }
  ]
}