{
  "hash": "00000000ee01f2591da756d1045ae3bd04341279842dddba8a7d002b7c170f94",
  "confirmations": 46116,
  "height": 6982,
  "version": 1,
  "versionHex": "00000001",
  "merkleroot": "7f540b4c08ba62e46c7ec35da7368eda87e84a8fb43ec1b3bf4b9088a24eeda0",
  "time": 1236702428,
  "mediantime": 1236698142,
  "nonce": 4215846189,
  "bits": "1d00ffff",
  "difficulty": 1,
  "chainwork": "00000000000000000000000000000000000000000000000000001b471b471b47",
  "nTx": 1,
  "previousblockhash": "000000006d76d82e9a144722fe2cbc9365fa2ed246cf47ff2a7b488b8c6bc1a7",
  "nextblockhash": "000000009b35c1ca52988212e39430925c5f11f9f679a233e08daf2fb7baa744",
  "strippedsize": 216,
  "size": 216,
  "weight": 864,
  "tx": [
    {
      "txid": "7f540b4c08ba62e46c7ec35da7368eda87e84a8fb43ec1b3bf4b9088a24eeda0",
      "hash": "7f540b4c08ba62e46c7ec35da7368eda87e84a8fb43ec1b3bf4b9088a24eeda0",
      "version": 1,
      "size": 135,
      "vsize": 135,
      "weight": 540,
      "locktime": 0,
      "vin": [
        {
          "coinbase": "04ffff001d02f101",
          "sequence": 4294967295
        }
      ],
      "vout": [
        {
          "value": 50.0,
          "n": 0,
          "scriptPubKey": {
            "asm": "041ef2863747cc7b882772b4985a987464cd2f0559df0b8d3347af6679d8dcc78e7840d49cc6a1fee09b242aecfcf83695e9803b154340601996cc8a2fa527ac91 OP_CHECKSIG",
            "desc": "pk(041ef2863747cc7b882772b4985a987464cd2f0559df0b8d3347af6679d8dcc78e7840d49cc6a1fee09b242aecfcf83695e9803b154340601996cc8a2fa527ac91)#5c2xr7fz",
            "hex": "41041ef2863747cc7b882772b4985a987464cd2f0559df0b8d3347af6679d8dcc78e7840d49cc6a1fee09b242aecfcf83695e9803b154340601996cc8a2fa527ac91ac",
            "type": "pubkey"
          }
        }
      ],
      "hex": "01000000010000000000000000000000000000000000000000000000000000000000000000ffffffff0804ffff001d02f101ffffffff0100f2052a010000004341041ef2863747cc7b882772b4985a987464cd2f0559df0b8d3347af6679d8dcc78e7840d49cc6a1fee09b242aecfcf83695e9803b154340601996cc8a2fa527ac91ac00000000"
    }
  ]
}