{
  "hash": "00000000ab8331a09dd577856abffbfad3b65d66652d1ad6a1a8802f1346d5aa",
  "confirmations": 45238,
  "height": 7860,
  "version": 1,
  "versionHex": "00000001",
  "merkleroot": "553dc945b42a08ec86e509aaafee4694bda6d0b512523906ffaab0d9fbca72f7",
  "time": 1237358782,
  "mediantime": 1237354767,
  "nonce": 1282205473,
  "bits": "1d00ffff",
  "difficulty": 1,
  "chainwork": "00000000000000000000000000000000000000000000000000001eb51eb51eb5",
  "nTx": 1,
  "previousblockhash": "00000000993d6ee47240bfee4ce320a54fef8b7091334e92ef713bb3e7590034",
  "nextblockhash": "0000000026e64b5b6ef0594d272e81ad05ad19fc949446348b0b5e15dd75be16",
  "strippedsize": 216,
  "size": 216,
  "weight": 864,
  "tx": [
    {
      "txid": "553dc945b42a08ec86e509aaafee4694bda6d0b512523906ffaab0d9fbca72f7",
      "hash": "553dc945b42a08ec86e509aaafee4694bda6d0b512523906ffaab0d9fbca72f7",
      "version": 1,
      "size": 135,
      "vsize": 135,
      "weight": 540,
      "locktime": 0,
      "vin": [
        {
          "coinbase": "04ffff001d02e706",
          "sequence": 4294967295
        }
      ],
      "vout": [
        {
          "value": 50.0,
          "n": 0,
          "scriptPubKey": {
            "asm": "0484801819688e04b3f25495d7950cf920f3e6ba5af0dff849636ddff35f8b85b9e312047e7725ed69f5f6f6823c8d6d788fb627218995a5157fc7d1584cf84369 OP_CHECKSIG",
            "desc": "pk(0484801819688e04b3f25495d7950cf920f3e6ba5af0dff849636ddff35f8b85b9e312047e7725ed69f5f6f6823c8d6d788fb627218995a5157fc7d1584cf84369)#nzpek8lj",
            "hex": "410484801819688e04b3f25495d7950cf920f3e6ba5af0dff849636ddff35f8b85b9e312047e7725ed69f5f6f6823c8d6d788fb627218995a5157fc7d1584cf84369ac",
            "type": "pubkey"
          }
        }
      ],
      "hex": "01000000010000000000000000000000000000000000000000000000000000000000000000ffffffff0804ffff001d02e706ffffffff0100f2052a0100000043410484801819688e04b3f25495d7950cf920f3e6ba5af0dff849636ddff35f8b85b9e312047e7725ed69f5f6f6823c8d6d788fb627218995a5157fc7d1584cf84369ac00000000"
    }
  ]
}