{
  "hash": "00000000b58332786a49b6b2f1b7be930503914a6ff762d2f42ce600fc546951",
  "confirmations": 44268,
  "height": 8830,
  "version": 1,
  "versionHex": "00000001",
  "merkleroot": "d2f2adf9c07d17240c0c22cd592025738cc120dc7a180f82c0771b0cd2eed0b4",
  "time": 1238119417,
  "mediantime": 1238116822,
  "nonce": 2229665280,
  "bits": "1d00ffff",
  "difficulty": 1,
  "chainwork": "0000000000000000000000000000000000000000000000000000227f227f227f",
  "nTx": 1,
  "previousblockhash": "00000000775e3fc84079c869924535ec2d706a86534377d14820d793c8f9e15e",
  "nextblockhash": "00000000b12f5de820deb4065df2c250b33b4b85205ebd1964f655154d112d9d",
  "strippedsize": 216,
  "size": 216,
  "weight": 864,
  "tx": [
    {
      "txid": "d2f2adf9c07d17240c0c22cd592025738cc120dc7a180f82c0771b0cd2eed0b4",
      "hash": "d2f2adf9c07d17240c0c22cd592025738cc120dc7a180f82c0771b0cd2eed0b4",
      "version": 1,
      "size": 135,
      "vsize": 135,
      "weight": 540,
      "locktime": 0,
      "vin": [
        {
          "coinbase": "04ffff001d024903",
          "sequence": 4294967295
        }
      ],
      "vout": [
        {
          "value": 50.0,
          "n": 0,
          "scriptPubKey": {
            "asm": "04f159a8114e82c66756dfc015a1233303aa4c1675b2d2a21f7edb13f7b87ef5f3449bc25f8ede1b815d3043a03d9b9980f8abcc128668bc3abc6c62cfbfdbe906 OP_CHECKSIG",
            "desc": "pk(04f159a8114e82c66756dfc015a1233303aa4c1675b2d2a21f7edb13f7b87ef5f3449bc25f8ede1b815d3043a03d9b9980f8abcc128668bc3abc6c62cfbfdbe906)#k3nvcqtu",
            "hex": "4104f159a8114e82c66756dfc015a1233303aa4c1675b2d2a21f7edb13f7b87ef5f3449bc25f8ede1b815d3043a03d9b9980f8abcc128668bc3abc6c62cfbfdbe906ac",
            "type": "pubkey"
          }
        }
      ],
      "hex": "01000000010000000000000000000000000000000000000000000000000000000000000000ffffffff0804ffff001d024903ffffffff0100f2052a01000000434104f159a8114e82c66756dfc015a1233303aa4c1675b2d2a21f7edb13f7b87ef5f3449bc25f8ede1b815d3043a03d9b9980f8abcc128668bc3abc6c62cfbfdbe906ac00000000"
    }
  ]
}