{
  "hash": "0000000038b1083b5e97f9fe1d9b18f53bbebcd95dfe4025ae4ebced103a17ba",
  "confirmations": 52042,
  "height": 295,
  "version": 1,
  "versionHex": "00000001",
  "merkleroot": "7e0112d69dcf86bdbb0fc74243751d7ba7c1984e898685994054c17fb156688e",
  "time": 1231829183,
  "mediantime": 1231825046,
  "nonce": 266405687,
  "bits": "1d00ffff",
  "difficulty": 1,
  "chainwork": "0000000000000000000000000000000000000000000000000000012801280128",
  "nTx": 1,
  "previousblockhash": "0000000036b2f63a6f2e070dafbb6e47259d3ae00d4d2d0c7df4ec6a2271a7bc",
  "nextblockhash": "000000006c6d02760d64950b1ef3565fc9195fd758c4f9b3cf1037c055c95dcc",
  "strippedsize": 215,
  "size": 215,
  "weight": 860,
  "tx": [
    {
      "txid": "7e0112d69dcf86bdbb0fc74243751d7ba7c1984e898685994054c17fb156688e",
      "hash": "7e0112d69dcf86bdbb0fc74243751d7ba7c1984e898685994054c17fb156688e",
      "version": 1,
      "size": 134,
      "vsize": 134,
      "weight": 536,
      "locktime": 0,
      "vin": [
        {
          "coinbase": "04ffff001d015d",
          "sequence": 4294967295
        }
      ],
      "vout": [
        {
          "value": 50.0,
          "n": 0,
          "scriptPubKey": {
            "asm": "04a75011f22ef038bc437ba8c30c4deaf7ba4c8b105f54419a302f1b4e650b5d76db4d9dee5cb2701c10dda613e722183b7b157617e1032b9eb5f2a407695c82b2 OP_CHECKSIG",
            "desc": "pk(04a75011f22ef038bc437ba8c30c4deaf7ba4c8b105f54419a302f1b4e650b5d76db4d9dee5cb2701c10dda613e722183b7b157617e1032b9eb5f2a407695c82b2)#t4sty7ch",
            "hex": "4104a75011f22ef038bc437ba8c30c4deaf7ba4c8b105f54419a302f1b4e650b5d76db4d9dee5cb2701c10dda613e722183b7b157617e1032b9eb5f2a407695c82b2ac",
            "type": "pubkey"
          }
        }
      ],
      "hex": "01000000010000000000000000000000000000000000000000000000000000000000000000ffffffff0704ffff001d015dffffffff0100f2052a01000000434104a75011f22ef038bc437ba8c30c4deaf7ba4c8b105f54419a302f1b4e650b5d76db4d9dee5cb2701c10dda613e722183b7b157617e1032b9eb5f2a407695c82b2ac00000000"
    }
  ]
}