{
  "hash": "00000000398efa1cbb530ceecd7db424d2151cf86c867ed2921c162a428c55c2",
  "confirmations": 49690,
  "height": 3408,
  "version": 1,
  "versionHex": "00000001",
  "merkleroot": "663da3c1ea5c254a4f4cfdafb4e018eaa08c1850708e37cf8f3cf3924c82d61a",
  "time": 1234043250,
  "mediantime": 1234041211,
  "nonce": 2970516264,
  "bits": "1d00ffff",
  "difficulty": 1,
  "chainwork": "00000000000000000000000000000000000000000000000000000d510d510d51",
  "nTx": 1,
  "previousblockhash": "0000000054be2898306eef190f51321b39122c9157bcc1dc214b1ae1b6d58ce4",
  "nextblockhash": "000000006aa3f5478fb1f417734a322f020ba4447042d04c439c11dc437a7836",
  "strippedsize": 216,
  "size": 216,
  "weight": 864,
  "tx": [
    {
      "txid": "663da3c1ea5c254a4f4cfdafb4e018eaa08c1850708e37cf8f3cf3924c82d61a",
      "hash": "663da3c1ea5c254a4f4cfdafb4e018eaa08c1850708e37cf8f3cf3924c82d61a",
      "version": 1,
      "size": 135,
      "vsize": 135,
      "weight": 540,
      "locktime": 0,
      "vin": [
        {
          "coinbase": "04ffff001d02c705",
          "sequence": 4294967295
        }
      ],
      "vout": [
        {
          "value": 50.0,
          "n": 0,
          "scriptPubKey": {
            "asm": "0414ded81e7a78852328f66b1c61ce0b5e7138cdec7aae7ea477bea9481f528a9de701eb0fbc526c50b8ca4036b594a21b5906cb0024dbb27c8c1b87a013ea73e4 OP_CHECKSIG",
            "desc": "pk(0414ded81e7a78852328f66b1c61ce0b5e7138cdec7aae7ea477bea9481f528a9de701eb0fbc526c50b8ca4036b594a21b5906cb0024dbb27c8c1b87a013ea73e4)#pppg2vte",
            "hex": "410414ded81e7a78852328f66b1c61ce0b5e7138cdec7aae7ea477bea9481f528a9de701eb0fbc526c50b8ca4036b594a21b5906cb0024dbb27c8c1b87a013ea73e4ac",
            "type": "pubkey"
          }
        }
      ],
      "hex": "01000000010000000000000000000000000000000000000000000000000000000000000000ffffffff0804ffff001d02c705ffffffff0100f2052a0100000043410414ded81e7a78852328f66b1c61ce0b5e7138cdec7aae7ea477bea9481f528a9de701eb0fbc526c50b8ca4036b594a21b5906cb0024dbb27c8c1b87a013ea73e4ac00000000"
    }
  ]
}