{
  "hash": "000000008c49fe2a8cb83021565d77846d9e5776c0a492c1189b580fab7f3b2f",
  "confirmations": 49952,
  "height": 3146,
  "version": 1,
  "versionHex": "00000001",
  "merkleroot": "b6135f81a3f580d98ccd17dd9e30d29dc249ca34d73ef5723835e321af36fe28",
  "time": 1233865417,
  "mediantime": 1233862550,
  "nonce": 267539551,
  "bits": "1d00ffff",
  "difficulty": 1,
  "chainwork": "00000000000000000000000000000000000000000000000000000c4b0c4b0c4b",
  "nTx": 1,
  "previousblockhash": "000000004054a6f0c361133d75d87810c11d6386b53454696037689824060cee",
  "nextblockhash": "0000000013e04165771b8944c41e88935c7b25222af1c6e9115dd33a6f16f8c3",
  "strippedsize": 215,
  "size": 215,
  "weight": 860,
  "tx": [
    {
      "txid": "b6135f81a3f580d98ccd17dd9e30d29dc249ca34d73ef5723835e321af36fe28",
      "hash": "b6135f81a3f580d98ccd17dd9e30d29dc249ca34d73ef5723835e321af36fe28",
      "version": 1,
      "size": 134,
      "vsize": 134,
      "weight": 536,
      "locktime": 0,
      "vin": [
        {
          "coinbase": "04ffff001d0136",
          "sequence": 4294967295
        }
      ],
      "vout": [
        {
          "value": 50.0,
          "n": 0,
          "scriptPubKey": {
            "asm": "04acdad898127b65ed127368482522db7ca2804f474d4adf7e8654696a8cfc1bcac0024f9adb7b721bf6529bb86e948568ade565c341648033b0bddedcf03ebc55 OP_CHECKSIG",
            "desc": "pk(04acdad898127b65ed127368482522db7ca2804f474d4adf7e8654696a8cfc1bcac0024f9adb7b721bf6529bb86e948568ade565c341648033b0bddedcf03ebc55)#u8mc6vd2",
            "hex": "4104acdad898127b65ed127368482522db7ca2804f474d4adf7e8654696a8cfc1bcac0024f9adb7b721bf6529bb86e948568ade565c341648033b0bddedcf03ebc55ac",
            "type": "pubkey"
          }
        }
      ],
      "hex": "01000000010000000000000000000000000000000000000000000000000000000000000000ffffffff0704ffff001d0136ffffffff0100f2052a01000000434104acdad898127b65ed127368482522db7ca2804f474d4adf7e8654696a8cfc1bcac0024f9adb7b721bf6529bb86e948568ade565c341648033b0bddedcf03ebc55ac00000000"
    }
  ]
}