{
  "hash": "00000000eeacdce37f856438d78a587e9b60058998116f3201cb817b78d702e5",
  "confirmations": 51792,
  "height": 1306,
  "version": 1,
  "versionHex": "00000001",
  "merkleroot": "6ce8646afb57e9bd1e373d9beb31e15e4f2d967c9380febed81f91d909d3aae5",
  "time": 1232599853,
  "mediantime": 1232594915,
  "nonce": 2064677677,
  "bits": "1d00ffff",
  "difficulty": 1,
  "chainwork": "0000000000000000000000000000000000000000000000000000051b051b051b",
  "nTx": 1,
  "previousblockhash": "00000000e6671c8e142a9782009c7962049a5fda8cc46c39156541fc8157b78e",
  "nextblockhash": "00000000f74ecc436b0bc320697f99ce120f604bf91eeef3f0e3500b034d9235",
  "strippedsize": 215,
  "size": 215,
  "weight": 860,
  "tx": [
    {
      "txid": "6ce8646afb57e9bd1e373d9beb31e15e4f2d967c9380febed81f91d909d3aae5",
      "hash": "6ce8646afb57e9bd1e373d9beb31e15e4f2d967c9380febed81f91d909d3aae5",
      "version": 1,
      "size": 134,
      "vsize": 134,
      "weight": 536,
      "locktime": 0,
      "vin": [
        {
          "coinbase": "04ffff001d013b",
          "sequence": 4294967295
        }
      ],
      "vout": [
        {
          "value": 50.0,
          "n": 0,
          "scriptPubKey": {
            "asm": "043ad74f13a61a25a5544e7ca41dccf3bdb3a1aa6adbb91eccfb4af790a0098fae361339680e7e819da1a0dccb1f6fc3c3e64b9c86b481da88c2403a0fc59fac02 OP_CHECKSIG",
            "desc": "pk(043ad74f13a61a25a5544e7ca41dccf3bdb3a1aa6adbb91eccfb4af790a0098fae361339680e7e819da1a0dccb1f6fc3c3e64b9c86b481da88c2403a0fc59fac02)#nd9kpvn2",
            "hex": "41043ad74f13a61a25a5544e7ca41dccf3bdb3a1aa6adbb91eccfb4af790a0098fae361339680e7e819da1a0dccb1f6fc3c3e64b9c86b481da88c2403a0fc59fac02ac",
            "type": "pubkey"
          }
        }
      ],
      "hex": "01000000010000000000000000000000000000000000000000000000000000000000000000ffffffff0704ffff001d013bffffffff0100f2052a010000004341043ad74f13a61a25a5544e7ca41dccf3bdb3a1aa6adbb91eccfb4af790a0098fae361339680e7e819da1a0dccb1f6fc3c3e64b9c86b481da88c2403a0fc59fac02ac00000000"
    }
  ]
}