{
  "hash": "00000000ebe7361ef6ded54587e1840e15e41146ce8101e38c78b86a9980ab54",
  "confirmations": 46771,
  "height": 6327,
  "version": 1,
  "versionHex": "00000001",
  "merkleroot": "03c9391b81719de3beda07fa1045416a9d919c1fd46b92737910c12543d39513",
  "time": 1236194891,
  "mediantime": 1236190429,
  "nonce": 1282752547,
  "bits": "1d00ffff",
  "difficulty": 1,
  "chainwork": "000000000000000000000000000000000000000000000000000018b818b818b8",
  "nTx": 2,
  "previousblockhash": "00000000a3f1415f4802b510db478857a3ab6e0e27419f852de00c11074cb2bb",
  "nextblockhash": "00000000006c56e2d190e509e63bd9fe6e8789d9ad33727d31754aa76f1f97f7",
  "strippedsize": 3000,
  "size": 3000,
  "weight": 12000,
  "tx": [
    {
      "txid": "4d498b9416469b1e1f224ae541ae2418674b81b856a71166836cf47972443f3a",
      "hash": "4d498b9416469b1e1f224ae541ae2418674b81b856a71166836cf47972443f3a",
      "version": 1,
      "size": 135,
      "vsize": 135,
      "weight": 540,
      "locktime": 0,
      "vin": [
        {
          "coinbase": "04ffff001d028000",
          "sequence": 4294967295
        }
      ],
      "vout": [
        {
          "value": 50.0,
          "n": 0,
          "scriptPubKey": {
            "asm": "04be7a267b32602f41282164ac1dce8719f4a7bd602cd4d03a5072526249d74b481e36c2bae145c471760746d172e661ce8fd3e552c8bbf5619427eff34da41e6c OP_CHECKSIG",
            "desc": "pk(04be7a267b32602f41282164ac1dce8719f4a7bd602cd4d03a5072526249d74b481e36c2bae145c471760746d172e661ce8fd3e552c8bbf5619427eff34da41e6c)#4lef8gzg",
            "hex": "4104be7a267b32602f41282164ac1dce8719f4a7bd602cd4d03a5072526249d74b481e36c2bae145c471760746d172e661ce8fd3e552c8bbf5619427eff34da41e6cac",
            "type": "pubkey"
          }
        }
      ],
      "hex": "01000000010000000000000000000000000000000000000000000000000000000000000000ffffffff0804ffff001d028000ffffffff0100f2052a01000000434104be7a267b32602f41282164ac1dce8719f4a7bd602cd4d03a5072526249d74b481e36c2bae145c471760746d172e661ce8fd3e552c8bbf5619427eff34da41e6cac00000000"
    },
    {
      "txid": "93010741e990f05723f4667a3ae7adcbdb220537dc6909580b1443c34c4bf3df",
      "hash": "93010741e990f05723f4667a3ae7adcbdb220537dc6909580b1443c34c4bf3df",
      "version": 1,
      "size": 2784,
      "vsize": 2784,
      "weight": 11136,
      "locktime": 0,
      "vin": [
        {
          "txid": "936ed21eae7ade9d51aaa52c8e73dddbba5f44c61b6736701fbf7db72b216b23",
          "vout": 0,
          "scriptSig": {
            "asm": "3046022100833bd3aa6602f0cc49badf16c3c45641e3a0bc60fc1f0139decd73dab8c06e88022100ff4ccce3b90f02cf868a8962ff6eb4dfb534fd13c52b5d17e87d32ea9c332a36[ALL]",
            "hex": "493046022100833bd3aa6602f0cc49badf16c3c45641e3a0bc60fc1f0139decd73dab8c06e88022100ff4ccce3b90f02cf868a8962ff6eb4dfb534fd13c52b5d17e87d32ea9c332a3601"
          },
          "sequence": 4294967295
        },
        {
          "txid": "f6dfe07bc21fb823e4c759f93418c4e4cf58a1ca88079070794f95748f2b1e77",
          "vout": 0,
          "scriptSig": {
            "asm": "304602210097d9079a38a5d97a59954d2fc91dac9787049e775c4d8f73005a162b14d15eef022100fd566ea9197e5edd98b15827d6849bf35574f7e30db833e5e677d111ce8651ab[ALL]",
            "hex": "49304602210097d9079a38a5d97a59954d2fc91dac9787049e775c4d8f73005a162b14d15eef022100fd566ea9197e5edd98b15827d6849bf35574f7e30db833e5e677d111ce8651ab01"
          },
          "sequence": 4294967295
        },
        {
          "txid": "9ddff08d48f634ab0f837a52bd1faac985d3a840d6f2042b11af20ac07472d72",
          "vout": 0,
          "scriptSig": {
            "asm": "304502207f508fbea6af2111517147c044569864bf462d52f247433f1a75a28c5dca5979022100e2fd20260b307a69b477b7cb4bf1e550c4b4267cdf67c4a6a98181004aa9f314[ALL]",
            "hex": "48304502207f508fbea6af2111517147c044569864bf462d52f247433f1a75a28c5dca5979022100e2fd20260b307a69b477b7cb4bf1e550c4b4267cdf67c4a6a98181004aa9f31401"
          },
          "sequence": 4294967295
        },
        {
          "txid": "d7a87ea33d7a208ebff8bfd22ac68532f4180f43633a743a7400cbdeb7276a41",
          "vout": 0,
          "scriptSig": {
            "asm": "3046022100dc7a0a812de14acc479d98ae209402cc9b5e0692bc74b9fe0a2f083e2f9964b002210087caf04a711bebe5339fd7554c4f7940dc37be216a3ae082424a5e164faf5494[ALL]",
            "hex": "493046022100dc7a0a812de14acc479d98ae209402cc9b5e0692bc74b9fe0a2f083e2f9964b002210087caf04a711bebe5339fd7554c4f7940dc37be216a3ae082424a5e164faf549401"
          },
          "sequence": 4294967295
        },
        {
          "txid": "35b83eee867af5389c3eaa0b8a3519c577ca5d5ebe8838d422174c87168fa69b",
          "vout": 0,
          "scriptSig": {
            "asm": "3046022100fee6b20a10f94a2959ebc26e0bf22902820a5456689ddadf8bd99a5fe02a6300022100a8122029e7caf0d89be99a72ce756b1ab96b1e2cf5b36d4a01236072f24f1017[ALL]",
            "hex": "493046022100fee6b20a10f94a2959ebc26e0bf22902820a5456689ddadf8bd99a5fe02a6300022100a8122029e7caf0d89be99a72ce756b1ab96b1e2cf5b36d4a01236072f24f101701"
          },
          "sequence": 4294967295
        },
        {
          "txid": "009aa3387486b6c9d3fec76031c67442c2866b6eec8b823bc480020ecd088f9b",
          "vout": 0,
          "scriptSig": {
            "asm": "3045022072fc266390b6f11525109f77c649e76255fd278ce773a8afe82359bfaa66d13502210099e9019521bb058f923ee12bdcb533bc6936f700215fd888659d7e9ce4232b9a[ALL]",
            "hex": "483045022072fc266390b6f11525109f77c649e76255fd278ce773a8afe82359bfaa66d13502210099e9019521bb058f923ee12bdcb533bc6936f700215fd888659d7e9ce4232b9a01"
          },
          "sequence": 4294967295
        },
        {
          "txid": "f8bb9579093476b9e103a5f6c78dcc2917a2453395cb0776b0c3a3a5f621d1a9",
          "vout": 0,
          "scriptSig": {
            "asm": "3045022100ad944d70513b1f6564d7058ac1e829e6ecdca40f907df2c5cddd4979c392465102201fa0fc6de6071cf6562d878096064f69f19d003a02d621c5f83c1eb7792ed497[ALL]",
            "hex": "483045022100ad944d70513b1f6564d7058ac1e829e6ecdca40f907df2c5cddd4979c392465102201fa0fc6de6071cf6562d878096064f69f19d003a02d621c5f83c1eb7792ed49701"
          },
          "sequence": 4294967295
        },
        {
          "txid": "a8ad56b5814dd546f3765c919125c3939d91b856a082b4d5439030b29b7c9fc7",
          "vout": 0,
          "scriptSig": {
            "asm": "304502207dab2f7e9a4ccc8258d5da7891a0d2a2194db8e8205198edbb3d66ba328310040221008664ab391e6d75163a9be874fe4f734cab771169047c364d258bce59d043c8df[ALL]",
            "hex": "48304502207dab2f7e9a4ccc8258d5da7891a0d2a2194db8e8205198edbb3d66ba328310040221008664ab391e6d75163a9be874fe4f734cab771169047c364d258bce59d043c8df01"
          },
          "sequence": 4294967295
        },
        {
          "txid": "a8dfb0ec1c8f0c455277c2b138361e66205fe05cda7c6359b3ced2aeb662f3f2",
          "vout": 0,
          "scriptSig": {
            "asm": "3046022100ced7110b30aef3522537cd5b207e46a52313615bbbf4b33ed063fa16dc4c3f25022100da6183dc0d99b11f9bc5f399a8dca6f8e511aea028bebbd9dbbfce60ec99faf8[ALL]",
            "hex": "493046022100ced7110b30aef3522537cd5b207e46a52313615bbbf4b33ed063fa16dc4c3f25022100da6183dc0d99b11f9bc5f399a8dca6f8e511aea028bebbd9dbbfce60ec99faf801"
          },
          "sequence": 4294967295
        },
        {
          "txid": "57377044b8003b6d458e42d0d9abe95c214236feedcbfa0fd46bb9acd685aae2",
          "vout": 0,
          "scriptSig": {
            "asm": "3045022100d4a4d9b5dc6e59494dfd57159f9d86b928b8838aba5e721daf0f3e0e7494bdc9022078892667e0af0566207ef6347edd33bc184dd6273497b34788bc0d37ea8edad6[ALL]",
            "hex": "483045022100d4a4d9b5dc6e59494dfd57159f9d86b928b8838aba5e721daf0f3e0e7494bdc9022078892667e0af0566207ef6347edd33bc184dd6273497b34788bc0d37ea8edad601"
          },
          "sequence": 4294967295
        },
        {
          "txid": "e988c3f066f577cadb3d4fafd2ff3f9fe7a10649440aa58dea04940e15d06ed9",
          "vout": 0,
          "scriptSig": {
            "asm": "304402205fb44e312ef2d17497fb565fbde0618a62d65e6fd4dc9502dfb13cdb0fd0cc1602206fea3e7fdae4c777e1664299712bfdbacee6bcab4a08962ea2284b4316d1430a[ALL]",
            "hex": "47304402205fb44e312ef2d17497fb565fbde0618a62d65e6fd4dc9502dfb13cdb0fd0cc1602206fea3e7fdae4c777e1664299712bfdbacee6bcab4a08962ea2284b4316d1430a01"
          },
          "sequence": 4294967295
        },
        {
          "txid": "a0f11f31ea1361e32ecc11af30e5a55532deb6ce5c5e8c547bdab7729f1c1a4f",
          "vout": 0,
          "scriptSig": {
            "asm": "3045022100af26be3bf3fe2caf0872a4e2257bd5764a7c977ac00d537d0d9d8db9ceeba35c0220372adcf1bf80a36610db773957b8852ac10992152262a9e2a8eddfc31464d65a[ALL]",
            "hex": "483045022100af26be3bf3fe2caf0872a4e2257bd5764a7c977ac00d537d0d9d8db9ceeba35c0220372adcf1bf80a36610db773957b8852ac10992152262a9e2a8eddfc31464d65a01"
          },
          "sequence": 4294967295
        },
        {
          "txid": "871041621f26cfa55c6eac65415839d43ae695adc3a6751d2e597c8950a267bd",
          "vout": 0,
          "scriptSig": {
            "asm": "3045022100ebce752b970934c0b97f002e0a0b1d9e90a0d0f5da9e91866c54de25c7b5fa86022004ddb1a60809d58738dd328882941f809ee083331494ee059fd7dc611afb6cd3[ALL]",
            "hex": "483045022100ebce752b970934c0b97f002e0a0b1d9e90a0d0f5da9e91866c54de25c7b5fa86022004ddb1a60809d58738dd328882941f809ee083331494ee059fd7dc611afb6cd301"
          },
          "sequence": 4294967295
        },
        {
          "txid": "8389eaae9e1e137f97ac2e106a421bff1537bfef7f36c384d94a87050839ed29",
          "vout": 0,
          "scriptSig": {
            "asm": "304402210098765266db7513965142cc67575a710f5fedbf60ee33ad2e670cda4116307484021f6a3c5c6c5f69a2a79dec10e836c54b0d0d90f9847210d1fb5ffe8c53d748cf[ALL]",
            "hex": "47304402210098765266db7513965142cc67575a710f5fedbf60ee33ad2e670cda4116307484021f6a3c5c6c5f69a2a79dec10e836c54b0d0d90f9847210d1fb5ffe8c53d748cf01"
          },
          "sequence": 4294967295
        },
        {
          "txid": "67764d42e417fe4ff00c80ac85cdc98b86a47e3c408276466e3c015857646740",
          "vout": 0,
          "scriptSig": {
            "asm": "3045022028b75efbb094e774536217e28fb6e7d141b7f8c9de396780b5b07e783dbf4b9d0221008b0a09ea12d25d2efdc7fc5a2d5b4c53745272fb426a777b69bd9329808c2570[ALL]",
            "hex": "483045022028b75efbb094e774536217e28fb6e7d141b7f8c9de396780b5b07e783dbf4b9d0221008b0a09ea12d25d2efdc7fc5a2d5b4c53745272fb426a777b69bd9329808c257001"
          },
          "sequence": 4294967295
        },
        {
          "txid": "b928048f5f5b43ed66d8932b41b687a829a9533f3a504ae75bf1002ef431c1a1",
          "vout": 0,
          "scriptSig": {
            "asm": "3045022034bb9b082b26e001c2f9b7836d65c0daaac509b1645f375a9d727b94db41f118022100fda690b08e4b5cee349e21814f1f598cffb85c14efb73efc3226d9d4bd6f1c04[ALL]",
            "hex": "483045022034bb9b082b26e001c2f9b7836d65c0daaac509b1645f375a9d727b94db41f118022100fda690b08e4b5cee349e21814f1f598cffb85c14efb73efc3226d9d4bd6f1c0401"
          },
          "sequence": 4294967295
        },
        {
          "txid": "625512141b138b1374b4ce60025e25021f0f124cf42268475cf88fab7a15c6ba",
          "vout": 0,
          "scriptSig": {
            "asm": "30450220280cae24a41eff7417906b5e681a0bc4c5b9e47f8f9ec377b04045df6f055804022100b12c42d572b6b9c02234ad0e3ebd264cc3811d3d1b58384d0881b4d14f84dd9e[ALL]",
            "hex": "4830450220280cae24a41eff7417906b5e681a0bc4c5b9e47f8f9ec377b04045df6f055804022100b12c42d572b6b9c02234ad0e3ebd264cc3811d3d1b58384d0881b4d14f84dd9e01"
          },
          "sequence": 4294967295
        },
        {
          "txid": "3731bca6d86734fb009c0fe82b71a32af2453e2f821d1990f63c8c5ee2c04a18",
          "vout": 0,
          "scriptSig": {
            "asm": "3046022100901d32819829be9763762d020f817684c1542cbb379f9efaf0ba9d40d4e2b9f4022100c79473190f6999c9586d063754c27fecb8ae093390986b7211d3803169a2cf04[ALL]",
            "hex": "493046022100901d32819829be9763762d020f817684c1542cbb379f9efaf0ba9d40d4e2b9f4022100c79473190f6999c9586d063754c27fecb8ae093390986b7211d3803169a2cf0401"
          },
          "sequence": 4294967295
        },
        {
          "txid": "928880cb918ea949b841ef8ec5d9b688590a41ff55b3c232856f34cec8b74768",
          "vout": 0,
          "scriptSig": {
            "asm": "30450220623a40f85c0a80d0d35a32d7d43df013448268131f51aab98eb398651a89781f0221009bd83a5905b71274fd104109888a05e8e3c1505a74237a6f59d4d9725b35b47c[ALL]",
            "hex": "4830450220623a40f85c0a80d0d35a32d7d43df013448268131f51aab98eb398651a89781f0221009bd83a5905b71274fd104109888a05e8e3c1505a74237a6f59d4d9725b35b47c01"
          },
          "sequence": 4294967295
        },
        {
          "txid": "6ac00aeba78c1f15331961ff980f3fe361955f6beada8371ebd0f20175f8bc18",
          "vout": 0,
          "scriptSig": {
            "asm": "3046022100a3edb07d27f5982adb2fbb5e25a3910602e41bd77783039d4c5e787572ae6c8d022100971e41bd305c469ac3509b0a34b30761ebebce80802c543c1f6f02dd33c01baa[ALL]",
            "hex": "493046022100a3edb07d27f5982adb2fbb5e25a3910602e41bd77783039d4c5e787572ae6c8d022100971e41bd305c469ac3509b0a34b30761ebebce80802c543c1f6f02dd33c01baa01"
          },
          "sequence": 4294967295
        },
        {
          "txid": "c88b9dac90d8fa44b8fda3b79058b6a2ec1648d1e5280c1c572a3345180c005f",
          "vout": 0,
          "scriptSig": {
            "asm": "304502203b918997b598ed1f5c073ab39cd5af7ea16b0287b726dda554f3b40b20d0adac0221009fd16bdc4ba59a152370c5f62b2298ae86bbb3c8b6792e389c52944d891f9118[ALL]",
            "hex": "48304502203b918997b598ed1f5c073ab39cd5af7ea16b0287b726dda554f3b40b20d0adac0221009fd16bdc4ba59a152370c5f62b2298ae86bbb3c8b6792e389c52944d891f911801"
          },
          "sequence": 4294967295
        },
        {
          "txid": "3e25e9362f65ab9ac629046bfb57f33c48d6ba8d9ceddb8ff5969d815a810883",
          "vout": 0,
          "scriptSig": {
            "asm": "30450220136cfb5e652129b564eacc1ef7e56177001a10dd843eacc034e04afdd82e6944022100bdd1a9fe553adf4655fa6d98ca1609e3ae05b79e552f5fc76001a72e253bf580[ALL]",
            "hex": "4830450220136cfb5e652129b564eacc1ef7e56177001a10dd843eacc034e04afdd82e6944022100bdd1a9fe553adf4655fa6d98ca1609e3ae05b79e552f5fc76001a72e253bf58001"
          },
          "sequence": 4294967295
        },
        {
          "txid": "3c616d9d59b8596af0760a8b2e021e238ef499cac14864a0e275732c6edf1186",
          "vout": 0,
          "scriptSig": {
            "asm": "30450221009c7d623f7f959ce98064d47aeb88844af193c6219ddc27a36a09dd700f9605a702205238e55faad6a52d7d9ae0dcaa75ee374e07e228d0ae6791b27c0824e7cc4f62[ALL]",
            "hex": "4830450221009c7d623f7f959ce98064d47aeb88844af193c6219ddc27a36a09dd700f9605a702205238e55faad6a52d7d9ae0dcaa75ee374e07e228d0ae6791b27c0824e7cc4f6201"
          },
          "sequence": 4294967295
        },
        {
          "txid": "d4e5641d899a9f0654c346198792b111de46eb6e5b8fe21866ed822e97fec429",
          "vout": 0,
          "scriptSig": {
            "asm": "3044022069e4b4ad54525295aea0257e25751e3bd57924deb2fef92a955506ceaecbf2cd02203a11b80002ef42ea4e2ec0e955046eda21ba2057b405fa6931e13f4f92e23469[ALL]",
            "hex": "473044022069e4b4ad54525295aea0257e25751e3bd57924deb2fef92a955506ceaecbf2cd02203a11b80002ef42ea4e2ec0e955046eda21ba2057b405fa6931e13f4f92e2346901"
          },
          "sequence": 4294967295
        }
      ],
      "vout": [
        {
          "value": 1200.0,
          "n": 0,
          "scriptPubKey": {
            "asm": "OP_DUP OP_HASH160 12ab8dc588ca9d5787dde7eb29569da63c3a238c OP_EQUALVERIFY OP_CHECKSIG",
            "desc": "addr(12higDjoCCNXSA95xZMWUdPvXNmkAduhWv)#zn56zju2",
            "hex": "76a91412ab8dc588ca9d5787dde7eb29569da63c3a238c88ac",
            "address": "12higDjoCCNXSA95xZMWUdPvXNmkAduhWv",
            "type": "pubkeyhash"
          }
        }
      ],
      "fee": 0.0,
      "hex": "0100000018236b212bb77dbf1f7036671bc6445fbadbdd738e2ca5aa519dde7aae1ed26e93000000004a493046022100833bd3aa6602f0cc49badf16c3c45641e3a0bc60fc1f0139decd73dab8c06e88022100ff4ccce3b90f02cf868a8962ff6eb4dfb534fd13c52b5d17e87d32ea9c332a3601ffffffff771e2b8f74954f7970900788caa158cfe4c41834f959c7e423b81fc27be0dff6000000004a49304602210097d9079a38a5d97a59954d2fc91dac9787049e775c4d8f73005a162b14d15eef022100fd566ea9197e5edd98b15827d6849bf35574f7e30db833e5e677d111ce8651ab01ffffffff722d4707ac20af112b04f2d640a8d385c9aa1fbd527a830fab34f6488df0df9d000000004948304502207f508fbea6af2111517147c044569864bf462d52f247433f1a75a28c5dca5979022100e2fd20260b307a69b477b7cb4bf1e550c4b4267cdf67c4a6a98181004aa9f31401ffffffff416a27b7decb00743a743a63430f18f43285c62ad2bff8bf8e207a3da37ea8d7000000004a493046022100dc7a0a812de14acc479d98ae209402cc9b5e0692bc74b9fe0a2f083e2f9964b002210087caf04a711bebe5339fd7554c4f7940dc37be216a3ae082424a5e164faf549401ffffffff9ba68f16874c1722d43888be5e5dca77c519358a0baa3e9c38f57a86ee3eb835000000004a493046022100fee6b20a10f94a2959ebc26e0bf22902820a5456689ddadf8bd99a5fe02a6300022100a8122029e7caf0d89be99a72ce756b1ab96b1e2cf5b36d4a01236072f24f101701ffffffff9b8f08cd0e0280c43b828bec6e6b86c24274c63160c7fed3c9b6867438a39a000000000049483045022072fc266390b6f11525109f77c649e76255fd278ce773a8afe82359bfaa66d13502210099e9019521bb058f923ee12bdcb533bc6936f700215fd888659d7e9ce4232b9a01ffffffffa9d121f6a5a3c3b07607cb953345a21729cc8dc7f6a503e1b97634097995bbf80000000049483045022100ad944d70513b1f6564d7058ac1e829e6ecdca40f907df2c5cddd4979c392465102201fa0fc6de6071cf6562d878096064f69f19d003a02d621c5f83c1eb7792ed49701ffffffffc79f7c9bb2309043d5b482a056b8919d93c32591915c76f346d54d81b556ada8000000004948304502207dab2f7e9a4ccc8258d5da7891a0d2a2194db8e8205198edbb3d66ba328310040221008664ab391e6d75163a9be874fe4f734cab771169047c364d258bce59d043c8df01fffffffff2f362b6aed2ceb359637cda5ce05f20661e3638b1c27752450c8f1cecb0dfa8000000004a493046022100ced7110b30aef3522537cd5b207e46a52313615bbbf4b33ed063fa16dc4c3f25022100da6183dc0d99b11f9bc5f399a8dca6f8e511aea028bebbd9dbbfce60ec99faf801ffffffffe2aa85d6acb96bd40ffacbedfe3642215ce9abd9d0428e456d3b00b8447037570000000049483045022100d4a4d9b5dc6e59494dfd57159f9d86b928b8838aba5e721daf0f3e0e7494bdc9022078892667e0af0566207ef6347edd33bc184dd6273497b34788bc0d37ea8edad601ffffffffd96ed0150e9404ea8da50a444906a1e79f3fffd2af4f3ddbca77f566f0c388e9000000004847304402205fb44e312ef2d17497fb565fbde0618a62d65e6fd4dc9502dfb13cdb0fd0cc1602206fea3e7fdae4c777e1664299712bfdbacee6bcab4a08962ea2284b4316d1430a01ffffffff4f1a1c9f72b7da7b548c5e5cceb6de3255a5e530af11cc2ee36113ea311ff1a00000000049483045022100af26be3bf3fe2caf0872a4e2257bd5764a7c977ac00d537d0d9d8db9ceeba35c0220372adcf1bf80a36610db773957b8852ac10992152262a9e2a8eddfc31464d65a01ffffffffbd67a250897c592e1d75a6c3ad95e63ad439584165ac6e5ca5cf261f624110870000000049483045022100ebce752b970934c0b97f002e0a0b1d9e90a0d0f5da9e91866c54de25c7b5fa86022004ddb1a60809d58738dd328882941f809ee083331494ee059fd7dc611afb6cd301ffffffff29ed390805874ad984c3367fefbf3715ff1b426a102eac977f131e9eaeea8983000000004847304402210098765266db7513965142cc67575a710f5fedbf60ee33ad2e670cda4116307484021f6a3c5c6c5f69a2a79dec10e836c54b0d0d90f9847210d1fb5ffe8c53d748cf01ffffffff4067645758013c6e467682403c7ea4868bc9cd85ac800cf04ffe17e4424d76670000000049483045022028b75efbb094e774536217e28fb6e7d141b7f8c9de396780b5b07e783dbf4b9d0221008b0a09ea12d25d2efdc7fc5a2d5b4c53745272fb426a777b69bd9329808c257001ffffffffa1c131f42e00f15be74a503a3f53a929a887b6412b93d866ed435b5f8f0428b90000000049483045022034bb9b082b26e001c2f9b7836d65c0daaac509b1645f375a9d727b94db41f118022100fda690b08e4b5cee349e21814f1f598cffb85c14efb73efc3226d9d4bd6f1c0401ffffffffbac6157aab8ff85c476822f44c120f1f02255e0260ceb474138b131b1412556200000000494830450220280cae24a41eff7417906b5e681a0bc4c5b9e47f8f9ec377b04045df6f055804022100b12c42d572b6b9c02234ad0e3ebd264cc3811d3d1b58384d0881b4d14f84dd9e01ffffffff184ac0e25e8c3cf690191d822f3e45f22aa3712be80f9c00fb3467d8a6bc3137000000004a493046022100901d32819829be9763762d020f817684c1542cbb379f9efaf0ba9d40d4e2b9f4022100c79473190f6999c9586d063754c27fecb8ae093390986b7211d3803169a2cf0401ffffffff6847b7c8ce346f8532c2b355ff410a5988b6d9c58eef41b849a98e91cb80889200000000494830450220623a40f85c0a80d0d35a32d7d43df013448268131f51aab98eb398651a89781f0221009bd83a5905b71274fd104109888a05e8e3c1505a74237a6f59d4d9725b35b47c01ffffffff18bcf87501f2d0eb7183daea6b5f9561e33f0f98ff611933151f8ca7eb0ac06a000000004a493046022100a3edb07d27f5982adb2fbb5e25a3910602e41bd77783039d4c5e787572ae6c8d022100971e41bd305c469ac3509b0a34b30761ebebce80802c543c1f6f02dd33c01baa01ffffffff5f000c1845332a571c0c28e5d14816eca2b65890b7a3fdb844fad890ac9d8bc8000000004948304502203b918997b598ed1f5c073ab39cd5af7ea16b0287b726dda554f3b40b20d0adac0221009fd16bdc4ba59a152370c5f62b2298ae86bbb3c8b6792e389c52944d891f911801ffffffff8308815a819d96f58fdbed9c8dbad6483cf357fb6b0429c69aab652f36e9253e00000000494830450220136cfb5e652129b564eacc1ef7e56177001a10dd843eacc034e04afdd82e6944022100bdd1a9fe553adf4655fa6d98ca1609e3ae05b79e552f5fc76001a72e253bf58001ffffffff8611df6e2c7375e2a06448c1ca99f48e231e022e8b0a76f06a59b8599d6d613c00000000494830450221009c7d623f7f959ce98064d47aeb88844af193c6219ddc27a36a09dd700f9605a702205238e55faad6a52d7d9ae0dcaa75ee374e07e228d0ae6791b27c0824e7cc4f6201ffffffff29c4fe972e82ed6618e28f5b6eeb46de11b192871946c354069f9a891d64e5d40000000048473044022069e4b4ad54525295aea0257e25751e3bd57924deb2fef92a955506ceaecbf2cd02203a11b80002ef42ea4e2ec0e955046eda21ba2057b405fa6931e13f4f92e2346901ffffffff0100b08ef01b0000001976a91412ab8dc588ca9d5787dde7eb29569da63c3a238c88ac00000000"
    }
  ]
}