{
  "hash": "00000000f9dc03c47f0e89c002134d1fbfd9b3e6c3011b74f1ab6a23823cb2d0",
  "confirmations": 51645,
  "height": 1453,
  "version": 1,
  "versionHex": "00000001",
  "merkleroot": "ae700b6ac476abc286912b406d2faa99721301d58497d7e75a33b7d38553d58b",
  "time": 1232748088,
  "mediantime": 1232745880,
  "nonce": 4016638778,
  "bits": "1d00ffff",
  "difficulty": 1,
  "chainwork": "000000000000000000000000000000000000000000000000000005ae05ae05ae",
  "nTx": 1,
  "previousblockhash": "000000006f2f3682ed2b5d209f26d9123bb9de156c6e9efcab1388923de9ac0a",
  "nextblockhash": "0000000012dbeac0d7d34f7198002b6e231518e1024a416fc4e4525de20efb18",
  "strippedsize": 216,
  "size": 216,
  "weight": 864,
  "tx": [
    {
      "txid": "ae700b6ac476abc286912b406d2faa99721301d58497d7e75a33b7d38553d58b",
      "hash": "ae700b6ac476abc286912b406d2faa99721301d58497d7e75a33b7d38553d58b",
      "version": 1,
      "size": 135,
      "vsize": 135,
      "weight": 540,
      "locktime": 0,
      "vin": [
        {
          "coinbase": "04ffff001d029e00",
          "sequence": 4294967295
        }
      ],
      "vout": [
        {
          "value": 50.0,
          "n": 0,
          "scriptPubKey": {
            "asm": "04710e2915edd8b93b4cc14cd403949f54fbd6da8b708fa20d08b7341b0afea9abd2fa7ac09b4718c220127c0064bcb9d24de0c170aa38df9c89ed1f6d85a01b9a OP_CHECKSIG",
            "desc": "pk(04710e2915edd8b93b4cc14cd403949f54fbd6da8b708fa20d08b7341b0afea9abd2fa7ac09b4718c220127c0064bcb9d24de0c170aa38df9c89ed1f6d85a01b9a)#4fk94anm",
            "hex": "4104710e2915edd8b93b4cc14cd403949f54fbd6da8b708fa20d08b7341b0afea9abd2fa7ac09b4718c220127c0064bcb9d24de0c170aa38df9c89ed1f6d85a01b9aac",
            "type": "pubkey"
          }
        }
      ],
      "hex": "01000000010000000000000000000000000000000000000000000000000000000000000000ffffffff0804ffff001d029e00ffffffff0100f2052a01000000434104710e2915edd8b93b4cc14cd403949f54fbd6da8b708fa20d08b7341b0afea9abd2fa7ac09b4718c220127c0064bcb9d24de0c170aa38df9c89ed1f6d85a01b9aac00000000"
    }
  ]
}