{
  "hash": "00000000147696b36a9746072c377cd42c82df4f787b88fe4fa37ac8375f96f4",
  "confirmations": 50725,
  "height": 2373,
  "version": 1,
  "versionHex": "00000001",
  "merkleroot": "b6fa68ecc1d827e7af0c57b9b2ddc0b5dc781497bd41a5c51f4a8a8a50f05d52",
  "time": 1233332825,
  "mediantime": 1233326806,
  "nonce": 2268210215,
  "bits": "1d00ffff",
  "difficulty": 1,
  "chainwork": "0000000000000000000000000000000000000000000000000000094609460946",
  "nTx": 1,
  "previousblockhash": "00000000e254e4720474a5b607a52e09af1fc743bea6d449756a49f1e9a00dec",
  "nextblockhash": "00000000c5266fd4d8f1e6fc28dd24aa0306477a2faa084cfe189ed9f3d312c1",
  "strippedsize": 216,
  "size": 216,
  "weight": 864,
  "tx": [
    {
      "txid": "b6fa68ecc1d827e7af0c57b9b2ddc0b5dc781497bd41a5c51f4a8a8a50f05d52",
      "hash": "b6fa68ecc1d827e7af0c57b9b2ddc0b5dc781497bd41a5c51f4a8a8a50f05d52",
      "version": 1,
      "size": 135,
      "vsize": 135,
      "weight": 540,
      "locktime": 0,
      "vin": [
        {
          "coinbase": "04ffff001d020703",
          "sequence": 4294967295
        }
      ],
      "vout": [
        {
          "value": 50.0,
          "n": 0,
          "scriptPubKey": {
            "asm": "04ca982bac106a6e537c84e44a848e47124651d6d85c99b3c60e970e6e70873e10e368d64d29b16b44542e60b2cf0c9e5a4ea52fdb0c36362c949f2ff31057573b OP_CHECKSIG",
            "desc": "pk(04ca982bac106a6e537c84e44a848e47124651d6d85c99b3c60e970e6e70873e10e368d64d29b16b44542e60b2cf0c9e5a4ea52fdb0c36362c949f2ff31057573b)#jj7vfdsz",
            "hex": "4104ca982bac106a6e537c84e44a848e47124651d6d85c99b3c60e970e6e70873e10e368d64d29b16b44542e60b2cf0c9e5a4ea52fdb0c36362c949f2ff31057573bac",
            "type": "pubkey"
          }
        }
      ],
      "hex": "01000000010000000000000000000000000000000000000000000000000000000000000000ffffffff0804ffff001d020703ffffffff0100f2052a01000000434104ca982bac106a6e537c84e44a848e47124651d6d85c99b3c60e970e6e70873e10e368d64d29b16b44542e60b2cf0c9e5a4ea52fdb0c36362c949f2ff31057573bac00000000"
    }
  ]
}