{
  "hash": "0000000073b299db8411568f97b9b87ad9e78e0fbf2019bc649439f76b2c87b6",
  "confirmations": 43706,
  "height": 9392,
  "version": 1,
  "versionHex": "00000001",
  "merkleroot": "e8917b09d9fcbf043595fc535a5f8efdb073e8b2df96f2bcd4edcb19333ae912",
  "time": 1238545400,
  "mediantime": 1238541218,
  "nonce": 2685496597,
  "bits": "1d00ffff",
  "difficulty": 1,
  "chainwork": "000000000000000000000000000000000000000000000000000024b124b124b1",
  "nTx": 1,
  "previousblockhash": "00000000d7cd4bef4ee6491a622be5e5da311b6036ec4bfa0c5a534891d0b03d",
  "nextblockhash": "0000000048d20048d2efa27669d42ee54da6be9eaab6010da9b89f7ed592f273",
  "strippedsize": 216,
  "size": 216,
  "weight": 864,
  "tx": [
    {
      "txid": "e8917b09d9fcbf043595fc535a5f8efdb073e8b2df96f2bcd4edcb19333ae912",
      "hash": "e8917b09d9fcbf043595fc535a5f8efdb073e8b2df96f2bcd4edcb19333ae912",
      "version": 1,
      "size": 135,
      "vsize": 135,
      "weight": 540,
      "locktime": 0,
      "vin": [
        {
          "coinbase": "04ffff001d027703",
          "sequence": 4294967295
        }
      ],
      "vout": [
        {
          "value": 50.0,
          "n": 0,
          "scriptPubKey": {
            "asm": "04f08a51d271f741384f144cb6aa1e248249921320d7c62d1ee8bfb9bbb4a09c06adfe7327c0c9f1994253d39e635002535b7e2d934d57b5e0fd65b0f9eb91a77f OP_CHECKSIG",
            "desc": "pk(04f08a51d271f741384f144cb6aa1e248249921320d7c62d1ee8bfb9bbb4a09c06adfe7327c0c9f1994253d39e635002535b7e2d934d57b5e0fd65b0f9eb91a77f)#5uc6h2gf",
            "hex": "4104f08a51d271f741384f144cb6aa1e248249921320d7c62d1ee8bfb9bbb4a09c06adfe7327c0c9f1994253d39e635002535b7e2d934d57b5e0fd65b0f9eb91a77fac",
            "type": "pubkey"
          }
        }
      ],
      "hex": "01000000010000000000000000000000000000000000000000000000000000000000000000ffffffff0804ffff001d027703ffffffff0100f2052a01000000434104f08a51d271f741384f144cb6aa1e248249921320d7c62d1ee8bfb9bbb4a09c06adfe7327c0c9f1994253d39e635002535b7e2d934d57b5e0fd65b0f9eb91a77fac00000000"
    }
  ]
}