{
  "hash": "000000007c7699978fc025e5b6b2b68f23523c08f8f6e70900133836992ecd27",
  "confirmations": 45296,
  "height": 7802,
  "version": 1,
  "versionHex": "00000001",
  "merkleroot": "d76f0a939b93c67b9eb59fd831c0803fc99e9f90cc7d23e7dcc2bc6ae1df0d1f",
  "time": 1237315289,
  "mediantime": 1237311113,
  "nonce": 718403361,
  "bits": "1d00ffff",
  "difficulty": 1,
  "chainwork": "00000000000000000000000000000000000000000000000000001e7b1e7b1e7b",
  "nTx": 1,
  "previousblockhash": "00000000547c975d1418ba51f5a154c01e7c3be2336db1bb54b911f1a5b0dfd2",
  "nextblockhash": "00000000a783b17791529c67bc7c7398ef0fd86a5747d27920dab5583f903a1c",
  "strippedsize": 216,
  "size": 216,
  "weight": 864,
  "tx": [
    {
      "txid": "d76f0a939b93c67b9eb59fd831c0803fc99e9f90cc7d23e7dcc2bc6ae1df0d1f",
      "hash": "d76f0a939b93c67b9eb59fd831c0803fc99e9f90cc7d23e7dcc2bc6ae1df0d1f",
      "version": 1,
      "size": 135,
      "vsize": 135,
      "weight": 540,
      "locktime": 0,
      "vin": [
        {
          "coinbase": "04ffff001d02e405",
          "sequence": 4294967295
        }
      ],
      "vout": [
        {
          "value": 50.0,
          "n": 0,
          "scriptPubKey": {
            "asm": "045d3b19d09e5d80ff3e2f54f1ff59dc945ed5537082c269d449df8d36aedf8966a40e2d247e88e12c5d7b17b2f34b1fd8aaa4bd04d502e6e570c9c547796b717e OP_CHECKSIG",
            "desc": "pk(045d3b19d09e5d80ff3e2f54f1ff59dc945ed5537082c269d449df8d36aedf8966a40e2d247e88e12c5d7b17b2f34b1fd8aaa4bd04d502e6e570c9c547796b717e)#82ya5364",
            "hex": "41045d3b19d09e5d80ff3e2f54f1ff59dc945ed5537082c269d449df8d36aedf8966a40e2d247e88e12c5d7b17b2f34b1fd8aaa4bd04d502e6e570c9c547796b717eac",
            "type": "pubkey"
          }
        }
      ],
      "hex": "01000000010000000000000000000000000000000000000000000000000000000000000000ffffffff0804ffff001d02e405ffffffff0100f2052a010000004341045d3b19d09e5d80ff3e2f54f1ff59dc945ed5537082c269d449df8d36aedf8966a40e2d247e88e12c5d7b17b2f34b1fd8aaa4bd04d502e6e570c9c547796b717eac00000000"
    }
  ]
}