{
  "hash": "00000000e7050ca0479ee3a47bc5b028bba56d4a1bed2e52e9317cd1fd633c08",
  "confirmations": 51701,
  "height": 1397,
  "version": 1,
  "versionHex": "00000001",
  "merkleroot": "fbec1c21ca91d4e5baf55f305b05d294755b4fd069d149344b2104b708e42873",
  "time": 1232709019,
  "mediantime": 1232697911,
  "nonce": 70860281,
  "bits": "1d00ffff",
  "difficulty": 1,
  "chainwork": "0000000000000000000000000000000000000000000000000000057605760576",
  "nTx": 1,
  "previousblockhash": "00000000613c16fe1873a17c7663fcc4d462f0b63e761e45805aa8f14aa7877e",
  "nextblockhash": "00000000a8df21790d4785b6b2b9625f452ded9a3cec75b3160377aba5edceeb",
  "strippedsize": 216,
  "size": 216,
  "weight": 864,
  "tx": [
    {
      "txid": "fbec1c21ca91d4e5baf55f305b05d294755b4fd069d149344b2104b708e42873",
      "hash": "fbec1c21ca91d4e5baf55f305b05d294755b4fd069d149344b2104b708e42873",
      "version": 1,
      "size": 135,
      "vsize": 135,
      "weight": 540,
      "locktime": 0,
      "vin": [
        {
          "coinbase": "04ffff001d02dd00",
          "sequence": 4294967295
        }
      ],
      "vout": [
        {
          "value": 50.0,
          "n": 0,
          "scriptPubKey": {
            "asm": "046c7c61f28c49a11872024f9b5d53f17b34a3ef01e0db7ec971a286b1a4e37b88766f49daf1f922e7284508e102045b302be8c2b0c64e1d1122704e3aff3b98d2 OP_CHECKSIG",
            "desc": "pk(046c7c61f28c49a11872024f9b5d53f17b34a3ef01e0db7ec971a286b1a4e37b88766f49daf1f922e7284508e102045b302be8c2b0c64e1d1122704e3aff3b98d2)#tyr7l7td",
            "hex": "41046c7c61f28c49a11872024f9b5d53f17b34a3ef01e0db7ec971a286b1a4e37b88766f49daf1f922e7284508e102045b302be8c2b0c64e1d1122704e3aff3b98d2ac",
            "type": "pubkey"
          }
        }
      ],
      "hex": "01000000010000000000000000000000000000000000000000000000000000000000000000ffffffff0804ffff001d02dd00ffffffff0100f2052a010000004341046c7c61f28c49a11872024f9b5d53f17b34a3ef01e0db7ec971a286b1a4e37b88766f49daf1f922e7284508e102045b302be8c2b0c64e1d1122704e3aff3b98d2ac00000000"
    }
  ]
}