{
  "hash": "00000000fa041c4905c4eca1cc0c75204c2cd118da3ffd129c41840152038d20",
  "confirmations": 52511,
  "height": 587,
  "version": 1,
  "versionHex": "00000001",
  "merkleroot": "c67b72006b0f663c53f3355fd420ad96cffcb72896e9115edc6f7c1b38174c9e",
  "time": 1232030354,
  "mediantime": 1232025374,
  "nonce": 3938922540,
  "bits": "1d00ffff",
  "difficulty": 1,
  "chainwork": "0000000000000000000000000000000000000000000000000000024c024c024c",
  "nTx": 1,
  "previousblockhash": "000000000d0d23516c5efd3af4eb951603bb30b2c93884b522a318b30e918ee7",
  "nextblockhash": "00000000b9d2de60c26ad0ff1289bb6c97529cac7c5a37571900a0e6be77dca8",
  "strippedsize": 216,
  "size": 216,
  "weight": 864,
  "tx": [
    {
      "txid": "c67b72006b0f663c53f3355fd420ad96cffcb72896e9115edc6f7c1b38174c9e",
      "hash": "c67b72006b0f663c53f3355fd420ad96cffcb72896e9115edc6f7c1b38174c9e",
      "version": 1,
      "size": 135,
      "vsize": 135,
      "weight": 540,
      "locktime": 0,
      "vin": [
        {
          "coinbase": "04ffff001d027b06",
          "sequence": 4294967295
        }
      ],
      "vout": [
        {
          "value": 50.0,
          "n": 0,
          "scriptPubKey": {
            "asm": "04cc6e6829a377a3308b24d3ed1cbe62f3e8e345c20ddd2ad5c3fdf3d9be11de41994308dc937109912db43ae88d97ea0018c29b3f4994aa162156f582578f0d03 OP_CHECKSIG",
            "desc": "pk(04cc6e6829a377a3308b24d3ed1cbe62f3e8e345c20ddd2ad5c3fdf3d9be11de41994308dc937109912db43ae88d97ea0018c29b3f4994aa162156f582578f0d03)#vxxjd00u",
            "hex": "4104cc6e6829a377a3308b24d3ed1cbe62f3e8e345c20ddd2ad5c3fdf3d9be11de41994308dc937109912db43ae88d97ea0018c29b3f4994aa162156f582578f0d03ac",
            "type": "pubkey"
          }
        }
      ],
      "hex": "01000000010000000000000000000000000000000000000000000000000000000000000000ffffffff0804ffff001d027b06ffffffff0100f2052a01000000434104cc6e6829a377a3308b24d3ed1cbe62f3e8e345c20ddd2ad5c3fdf3d9be11de41994308dc937109912db43ae88d97ea0018c29b3f4994aa162156f582578f0d03ac00000000"
    }
  ]
}