{
  "hash": "00000000ac7255079662cfc025a1b7c185dcd99e085f31c4c2f00e6a3e35d240",
  "confirmations": 46413,
  "height": 6685,
  "version": 1,
  "versionHex": "00000001",
  "merkleroot": "6863fe9572109ee218a854401f5bef93b87df8f96014802f447e5b359a8bfd57",
  "time": 1236471618,
  "mediantime": 1236467988,
  "nonce": 3160266294,
  "bits": "1d00ffff",
  "difficulty": 1,
  "chainwork": "00000000000000000000000000000000000000000000000000001a1e1a1e1a1e",
  "nTx": 1,
  "previousblockhash": "00000000181b4b6c7932fa9d7eabab8922cfe7bf6562d8074becf20fdf58d41d",
  "nextblockhash": "00000000a641cad738e8ec59f0599d5b9d7e463e45d194ea021a1ace23b63e92",
  "strippedsize": 216,
  "size": 216,
  "weight": 864,
  "tx": [
    {
      "txid": "6863fe9572109ee218a854401f5bef93b87df8f96014802f447e5b359a8bfd57",
      "hash": "6863fe9572109ee218a854401f5bef93b87df8f96014802f447e5b359a8bfd57",
      "version": 1,
      "size": 135,
      "vsize": 135,
      "weight": 540,
      "locktime": 0,
      "vin": [
        {
          "coinbase": "04ffff001d02b106",
          "sequence": 4294967295
        }
      ],
      "vout": [
        {
          "value": 50.0,
          "n": 0,
          "scriptPubKey": {
            "asm": "04b32bf5bba91288abaff3ebcd8a89485c16fa7e6f182a50966522e012e2694ce0f9ace6aa140b45badc0eeb5354c514939505b43b7873756f75caef515f357374 OP_CHECKSIG",
            "desc": "pk(04b32bf5bba91288abaff3ebcd8a89485c16fa7e6f182a50966522e012e2694ce0f9ace6aa140b45badc0eeb5354c514939505b43b7873756f75caef515f357374)#ssdmy9kt",
            "hex": "4104b32bf5bba91288abaff3ebcd8a89485c16fa7e6f182a50966522e012e2694ce0f9ace6aa140b45badc0eeb5354c514939505b43b7873756f75caef515f357374ac",
            "type": "pubkey"
          }
        }
      ],
      "hex": "01000000010000000000000000000000000000000000000000000000000000000000000000ffffffff0804ffff001d02b106ffffffff0100f2052a01000000434104b32bf5bba91288abaff3ebcd8a89485c16fa7e6f182a50966522e012e2694ce0f9ace6aa140b45badc0eeb5354c514939505b43b7873756f75caef515f357374ac00000000"
    }
  ]
}