{
  "hash": "000000006ee697af79c396760f2725a7f25ac2265bae2a6f622f81c89d47d083",
  "confirmations": 51202,
  "height": 1896,
  "version": 1,
  "versionHex": "00000001",
  "merkleroot": "0b16f41e043556578d91438655dfcf2cd3975c38c2b221d7c138f37d995c01ed",
  "time": 1232943270,
  "mediantime": 1232940769,
  "nonce": 3914592285,
  "bits": "1d00ffff",
  "difficulty": 1,
  "chainwork": "0000000000000000000000000000000000000000000000000000076907690769",
  "nTx": 1,
  "previousblockhash": "000000009c8947d18a2f8bf459d370150add628984b5274d729790f1950ab1dc",
  "nextblockhash": "00000000a9c424b6dbd856f62c4a92754b3a1d8e0e2ab397d1c56b1b46e10b69",
  "strippedsize": 216,
  "size": 216,
  "weight": 864,
  "tx": [
    {
      "txid": "0b16f41e043556578d91438655dfcf2cd3975c38c2b221d7c138f37d995c01ed",
      "hash": "0b16f41e043556578d91438655dfcf2cd3975c38c2b221d7c138f37d995c01ed",
      "version": 1,
      "size": 135,
      "vsize": 135,
      "weight": 540,
      "locktime": 0,
      "vin": [
        {
          "coinbase": "04ffff001d021f05",
          "sequence": 4294967295
        }
      ],
      "vout": [
        {
          "value": 50.0,
          "n": 0,
          "scriptPubKey": {
            "asm": "047cf446c85702c8c649ec53720d54e2ebc9feb9a8ae86b8a1c76881ca02e282a9322ac034674534aaa0dd75792ead95057b483b52490fc039c465200784822000 OP_CHECKSIG",
            "desc": "pk(047cf446c85702c8c649ec53720d54e2ebc9feb9a8ae86b8a1c76881ca02e282a9322ac034674534aaa0dd75792ead95057b483b52490fc039c465200784822000)#7h0vjx2x",
            "hex": "41047cf446c85702c8c649ec53720d54e2ebc9feb9a8ae86b8a1c76881ca02e282a9322ac034674534aaa0dd75792ead95057b483b52490fc039c465200784822000ac",
            "type": "pubkey"
          }
        }
      ],
      "hex": "01000000010000000000000000000000000000000000000000000000000000000000000000ffffffff0804ffff001d021f05ffffffff0100f2052a010000004341047cf446c85702c8c649ec53720d54e2ebc9feb9a8ae86b8a1c76881ca02e282a9322ac034674534aaa0dd75792ead95057b483b52490fc039c465200784822000ac00000000"
    }
  ]
}