{
  "hash": "00000000d328947cdbc1fa7392351a1667120f918c38bd12174d872f7382c1e7",
  "confirmations": 51786,
  "height": 1312,
  "version": 1,
  "versionHex": "00000001",
  "merkleroot": "9ff2453da2effc15fa0502b1096c05b9f5072a5288f4ea83fc0a95449f3f2cad",
  "time": 1232605860,
  "mediantime": 1232600439,
  "nonce": 72148021,
  "bits": "1d00ffff",
  "difficulty": 1,
  "chainwork": "0000000000000000000000000000000000000000000000000000052105210521",
  "nTx": 1,
  "previousblockhash": "00000000eabdf33ebb1a8f1793e02fd1291ff1b6b246f1806a820f4908999e1e",
  "nextblockhash": "00000000b1686525e1ad4669ee2cb8fd28d375af983853727a80015778df47b5",
  "strippedsize": 215,
  "size": 215,
  "weight": 860,
  "tx": [
    {
      "txid": "9ff2453da2effc15fa0502b1096c05b9f5072a5288f4ea83fc0a95449f3f2cad",
      "hash": "9ff2453da2effc15fa0502b1096c05b9f5072a5288f4ea83fc0a95449f3f2cad",
      "version": 1,
      "size": 134,
      "vsize": 134,
      "weight": 536,
      "locktime": 0,
      "vin": [
        {
          "coinbase": "04ffff001d0156",
          "sequence": 4294967295
        }
      ],
      "vout": [
        {
          "value": 50.0,
          "n": 0,
          "scriptPubKey": {
            "asm": "04007299115ffc67ad3a7c971ffd86b962834c9801a1b6ae68a6943d6b99385fed6049e041e8ee9b3353c4e79d0ee4c5cdb87cd9544212398be70c0912d2889a97 OP_CHECKSIG",
            "desc": "pk(04007299115ffc67ad3a7c971ffd86b962834c9801a1b6ae68a6943d6b99385fed6049e041e8ee9b3353c4e79d0ee4c5cdb87cd9544212398be70c0912d2889a97)#4a2t3sd0",
            "hex": "4104007299115ffc67ad3a7c971ffd86b962834c9801a1b6ae68a6943d6b99385fed6049e041e8ee9b3353c4e79d0ee4c5cdb87cd9544212398be70c0912d2889a97ac",
            "type": "pubkey"
          }
        }
      ],
      "hex": "01000000010000000000000000000000000000000000000000000000000000000000000000ffffffff0704ffff001d0156ffffffff0100f2052a01000000434104007299115ffc67ad3a7c971ffd86b962834c9801a1b6ae68a6943d6b99385fed6049e041e8ee9b3353c4e79d0ee4c5cdb87cd9544212398be70c0912d2889a97ac00000000"
    }
  ]
}