{
  "hash": "00000000976ea48290f62762637a1c9a1d6abe361d9f96dfe72dfee44abde5e9",
  "confirmations": 50604,
  "height": 2494,
  "version": 1,
  "versionHex": "00000001",
  "merkleroot": "d37dc1584c909e2270185c4f4b8b53330638426e5f228b889bc66c19a74fe787",
  "time": 1233418441,
  "mediantime": 1233415407,
  "nonce": 3931903542,
  "bits": "1d00ffff",
  "difficulty": 1,
  "chainwork": "000000000000000000000000000000000000000000000000000009bf09bf09bf",
  "nTx": 1,
  "previousblockhash": "000000002f6bb1ffc918e4d12ab9cf0107fc3866ec09360efc5a67fa20494682",
  "nextblockhash": "00000000bffb7cc82f9914185fbc5b7afe25f4282db8d3228fea67da7b23e3d1",
  "strippedsize": 216,
  "size": 216,
  "weight": 864,
  "tx": [
    {
      "txid": "d37dc1584c909e2270185c4f4b8b53330638426e5f228b889bc66c19a74fe787",
      "hash": "d37dc1584c909e2270185c4f4b8b53330638426e5f228b889bc66c19a74fe787",
      "version": 1,
      "size": 135,
      "vsize": 135,
      "weight": 540,
      "locktime": 0,
      "vin": [
        {
          "coinbase": "04ffff001d02fc00",
          "sequence": 4294967295
        }
      ],
      "vout": [
        {
          "value": 50.0,
          "n": 0,
          "scriptPubKey": {
            "asm": "040727316d6fbe4d75ee1e1b7a42eb716eb6661ea5b2ad7a3a0b11e506c84583a2d087f121feca0ef8cec9f9357e80e7ba7a853a7f113ed33a8cdc819cbbd8e271 OP_CHECKSIG",
            "desc": "pk(040727316d6fbe4d75ee1e1b7a42eb716eb6661ea5b2ad7a3a0b11e506c84583a2d087f121feca0ef8cec9f9357e80e7ba7a853a7f113ed33a8cdc819cbbd8e271)#rk4mglhh",
            "hex": "41040727316d6fbe4d75ee1e1b7a42eb716eb6661ea5b2ad7a3a0b11e506c84583a2d087f121feca0ef8cec9f9357e80e7ba7a853a7f113ed33a8cdc819cbbd8e271ac",
            "type": "pubkey"
          }
        }
      ],
      "hex": "01000000010000000000000000000000000000000000000000000000000000000000000000ffffffff0804ffff001d02fc00ffffffff0100f2052a010000004341040727316d6fbe4d75ee1e1b7a42eb716eb6661ea5b2ad7a3a0b11e506c84583a2d087f121feca0ef8cec9f9357e80e7ba7a853a7f113ed33a8cdc819cbbd8e271ac00000000"
    }
  ]
}