{
  "hash": "00000000f66306644008245fffa7504cc56d8aebdcbe27cf34787dffd00be0b3",
  "confirmations": 47190,
  "height": 5908,
  "version": 1,
  "versionHex": "00000001",
  "merkleroot": "51785c2a724b606210b080d6aa7378afb0dc97c9b6a322526dcd8fcd242a2973",
  "time": 1235849838,
  "mediantime": 1235847397,
  "nonce": 1467890717,
  "bits": "1d00ffff",
  "difficulty": 1,
  "chainwork": "0000000000000000000000000000000000000000000000000000171517151715",
  "nTx": 1,
  "previousblockhash": "0000000009a6af2f8248f9661fd0e3381d812e83ef036e382620b64d79dffc0e",
  "nextblockhash": "00000000577e05b71bf9959a8061cfa13c0880d9c491479189c362de93a9ca44",
  "strippedsize": 216,
  "size": 216,
  "weight": 864,
  "tx": [
    {
      "txid": "51785c2a724b606210b080d6aa7378afb0dc97c9b6a322526dcd8fcd242a2973",
      "hash": "51785c2a724b606210b080d6aa7378afb0dc97c9b6a322526dcd8fcd242a2973",
      "version": 1,
      "size": 135,
      "vsize": 135,
      "weight": 540,
      "locktime": 0,
      "vin": [
        {
          "coinbase": "04ffff001d022003",
          "sequence": 4294967295
        }
      ],
      "vout": [
        {
          "value": 50.0,
          "n": 0,
          "scriptPubKey": {
            "asm": "046bed687c9b090828a08ed5f4fe255a0079fb7a34513f7af3500ab7879a7118e5185ee341e309571936d57b283b51493c945fd2e8192b8355d54c57b804a9dd75 OP_CHECKSIG",
            "desc": "pk(046bed687c9b090828a08ed5f4fe255a0079fb7a34513f7af3500ab7879a7118e5185ee341e309571936d57b283b51493c945fd2e8192b8355d54c57b804a9dd75)#t29mgz9h",
            "hex": "41046bed687c9b090828a08ed5f4fe255a0079fb7a34513f7af3500ab7879a7118e5185ee341e309571936d57b283b51493c945fd2e8192b8355d54c57b804a9dd75ac",
            "type": "pubkey"
          }
        }
      ],
      "hex": "01000000010000000000000000000000000000000000000000000000000000000000000000ffffffff0804ffff001d022003ffffffff0100f2052a010000004341046bed687c9b090828a08ed5f4fe255a0079fb7a34513f7af3500ab7879a7118e5185ee341e309571936d57b283b51493c945fd2e8192b8355d54c57b804a9dd75ac00000000"
    }
  ]
}