{
  "hash": "00000000716ec65a3944e4282b67d65a91e42271ec199270ab782c80ac182704",
  "confirmations": 50659,
  "height": 2439,
  "version": 1,
  "versionHex": "00000001",
  "merkleroot": "4733bceb887a2a42a2560bd1fc517ca2e33ee03867e6e7ed0bcb2f68066b3725",
  "time": 1233385305,
  "mediantime": 1233380497,
  "nonce": 193643042,
  "bits": "1d00ffff",
  "difficulty": 1,
  "chainwork": "0000000000000000000000000000000000000000000000000000098809880988",
  "nTx": 1,
  "previousblockhash": "00000000951f6f6673daf5146e2b0d64a9056faa598afadec03cc09664a21297",
  "nextblockhash": "0000000075bd3a19133a1805c5881d6efb95115c470629d2a1c872cd7111d987",
  "strippedsize": 215,
  "size": 215,
  "weight": 860,
  "tx": [
    {
      "txid": "4733bceb887a2a42a2560bd1fc517ca2e33ee03867e6e7ed0bcb2f68066b3725",
      "hash": "4733bceb887a2a42a2560bd1fc517ca2e33ee03867e6e7ed0bcb2f68066b3725",
      "version": 1,
      "size": 134,
      "vsize": 134,
      "weight": 536,
      "locktime": 0,
      "vin": [
        {
          "coinbase": "04ffff001d015b",
          "sequence": 4294967295
        }
      ],
      "vout": [
        {
          "value": 50.0,
          "n": 0,
          "scriptPubKey": {
            "asm": "044c6abc402a4e12c127e174b530d8d941c431aa1b59b792e3cb65720e8f81be2c27ef4ee591e5dcc75cf7c83572e3bd56c8314ff9a9d589bfd3ab6c649fe6172e OP_CHECKSIG",
            "desc": "pk(044c6abc402a4e12c127e174b530d8d941c431aa1b59b792e3cb65720e8f81be2c27ef4ee591e5dcc75cf7c83572e3bd56c8314ff9a9d589bfd3ab6c649fe6172e)#495t34w7",
            "hex": "41044c6abc402a4e12c127e174b530d8d941c431aa1b59b792e3cb65720e8f81be2c27ef4ee591e5dcc75cf7c83572e3bd56c8314ff9a9d589bfd3ab6c649fe6172eac",
            "type": "pubkey"
          }
        }
      ],
      "hex": "01000000010000000000000000000000000000000000000000000000000000000000000000ffffffff0704ffff001d015bffffffff0100f2052a010000004341044c6abc402a4e12c127e174b530d8d941c431aa1b59b792e3cb65720e8f81be2c27ef4ee591e5dcc75cf7c83572e3bd56c8314ff9a9d589bfd3ab6c649fe6172eac00000000"
    }
  ]
}