{
  "hash": "00000000aa252ddbaa157a655a6d6258a33f6cc907a41ac147f8a1fe7682eecb",
  "confirmations": 47607,
  "height": 5491,
  "version": 1,
  "versionHex": "00000001",
  "merkleroot": "b15506200e5032ff72ef67f9bf822c476a52cd7c283a12c043bd3596c6748d20",
  "time": 1235514250,
  "mediantime": 1235508500,
  "nonce": 2987654917,
  "bits": "1d00ffff",
  "difficulty": 1,
  "chainwork": "0000000000000000000000000000000000000000000000000000157415741574",
  "nTx": 1,
  "previousblockhash": "0000000097eaae862cc361fc29a60db85d4761187da3365d32afc6ca556bac99",
  "nextblockhash": "000000009e33a46937f8244cd1faf4a18792e8ff3bd0f2370bd94c0c96ecfaed",
  "strippedsize": 216,
  "size": 216,
  "weight": 864,
  "tx": [
    {
      "txid": "b15506200e5032ff72ef67f9bf822c476a52cd7c283a12c043bd3596c6748d20",
      "hash": "b15506200e5032ff72ef67f9bf822c476a52cd7c283a12c043bd3596c6748d20",
      "version": 1,
      "size": 135,
      "vsize": 135,
      "weight": 540,
      "locktime": 0,
      "vin": [
        {
          "coinbase": "04ffff001d026605",
          "sequence": 4294967295
        }
      ],
      "vout": [
        {
          "value": 50.0,
          "n": 0,
          "scriptPubKey": {
            "asm": "0438ea344805ea8f6aadac9e9c337e0582ab9c65a20befe34306252b20aeca9a97d081fd162a5605156ab3ffc5e9970c430582fe38a47c732587c3cdc15eeb9a19 OP_CHECKSIG",
            "desc": "pk(0438ea344805ea8f6aadac9e9c337e0582ab9c65a20befe34306252b20aeca9a97d081fd162a5605156ab3ffc5e9970c430582fe38a47c732587c3cdc15eeb9a19)#c9m26m8a",
            "hex": "410438ea344805ea8f6aadac9e9c337e0582ab9c65a20befe34306252b20aeca9a97d081fd162a5605156ab3ffc5e9970c430582fe38a47c732587c3cdc15eeb9a19ac",
            "type": "pubkey"
          }
        }
      ],
      "hex": "01000000010000000000000000000000000000000000000000000000000000000000000000ffffffff0804ffff001d026605ffffffff0100f2052a0100000043410438ea344805ea8f6aadac9e9c337e0582ab9c65a20befe34306252b20aeca9a97d081fd162a5605156ab3ffc5e9970c430582fe38a47c732587c3cdc15eeb9a19ac00000000"
    }
  ]
}