{
  "hash": "00000000ec6faad2613354c3b252afee19ed570f623870a04025653966e269ee",
  "confirmations": 43872,
  "height": 9226,
  "version": 1,
  "versionHex": "00000001",
  "merkleroot": "6ae4b6b893a32712b9cd98a31b5c1c2b17abbe8b074064b87f2b12e269d954d0",
  "time": 1238418355,
  "mediantime": 1238416292,
  "nonce": 41551636,
  "bits": "1d00ffff",
  "difficulty": 1,
  "chainwork": "0000000000000000000000000000000000000000000000000000240b240b240b",
  "nTx": 1,
  "previousblockhash": "0000000048d94d7593faa1ced189bb2ebc83a5b4220566ab05b399b93aefee88",
  "nextblockhash": "00000000be4c26329d295c97db1aa1739221116996295bcfd802972d596400ef",
  "strippedsize": 215,
  "size": 215,
  "weight": 860,
  "tx": [
    {
      "txid": "6ae4b6b893a32712b9cd98a31b5c1c2b17abbe8b074064b87f2b12e269d954d0",
      "hash": "6ae4b6b893a32712b9cd98a31b5c1c2b17abbe8b074064b87f2b12e269d954d0",
      "version": 1,
      "size": 134,
      "vsize": 134,
      "weight": 536,
      "locktime": 0,
      "vin": [
        {
          "coinbase": "04ffff001d0171",
          "sequence": 4294967295
        }
      ],
      "vout": [
        {
          "value": 50.0,
          "n": 0,
          "scriptPubKey": {
            "asm": "04e9a2807cd75b9e1b148b4d4e41f9c08b5f53ce546e38eaf269ba21702deff2054e13fc62cb7290399b0ae361ca24aaeffcb05a3a4473f6cd8192a06353007b3e OP_CHECKSIG",
            "desc": "pk(04e9a2807cd75b9e1b148b4d4e41f9c08b5f53ce546e38eaf269ba21702deff2054e13fc62cb7290399b0ae361ca24aaeffcb05a3a4473f6cd8192a06353007b3e)#tyxpy6n9",
            "hex": "4104e9a2807cd75b9e1b148b4d4e41f9c08b5f53ce546e38eaf269ba21702deff2054e13fc62cb7290399b0ae361ca24aaeffcb05a3a4473f6cd8192a06353007b3eac",
            "type": "pubkey"
          }
        }
      ],
      "hex": "01000000010000000000000000000000000000000000000000000000000000000000000000ffffffff0704ffff001d0171ffffffff0100f2052a01000000434104e9a2807cd75b9e1b148b4d4e41f9c08b5f53ce546e38eaf269ba21702deff2054e13fc62cb7290399b0ae361ca24aaeffcb05a3a4473f6cd8192a06353007b3eac00000000"
    }
  ]
}