{
  "hash": "000000008a4287df2039938d49b04c5d32941018c6c48e34553b0fd404f540ac",
  "confirmations": 52237,
  "height": 861,
  "version": 1,
  "versionHex": "00000001",
  "merkleroot": "86fb2190ec4c8c988724db96feaa2bc55b373b0c2c86286b0626fd92264d29a2",
  "time": 1232240418,
  "mediantime": 1232235821,
  "nonce": 3071552262,
  "bits": "1d00ffff",
  "difficulty": 1,
  "chainwork": "0000000000000000000000000000000000000000000000000000035e035e035e",
  "nTx": 1,
  "previousblockhash": "000000006e46dc98b8ce7175ae7bff4c2ecbad3182bd563c690e9cb98583ce9c",
  "nextblockhash": "00000000fabd6dee2258f91f3a57e541cd02aa2fe8927c521f16db186206330d",
  "strippedsize": 216,
  "size": 216,
  "weight": 864,
  "tx": [
    {
      "txid": "86fb2190ec4c8c988724db96feaa2bc55b373b0c2c86286b0626fd92264d29a2",
      "hash": "86fb2190ec4c8c988724db96feaa2bc55b373b0c2c86286b0626fd92264d29a2",
      "version": 1,
      "size": 135,
      "vsize": 135,
      "weight": 540,
      "locktime": 0,
      "vin": [
        {
          "coinbase": "04ffff001d02ac02",
          "sequence": 4294967295
        }
      ],
      "vout": [
        {
          "value": 50.0,
          "n": 0,
          "scriptPubKey": {
            "asm": "04b0db59592289864233ce40cf1dc7420e8b5e290b4402bd203545d330ece6ba841ffef40fa62b76596688a46e70b284f57566766b7d8bf75274b343164bafc8a3 OP_CHECKSIG",
            "desc": "pk(04b0db59592289864233ce40cf1dc7420e8b5e290b4402bd203545d330ece6ba841ffef40fa62b76596688a46e70b284f57566766b7d8bf75274b343164bafc8a3)#ef9sgeu5",
            "hex": "4104b0db59592289864233ce40cf1dc7420e8b5e290b4402bd203545d330ece6ba841ffef40fa62b76596688a46e70b284f57566766b7d8bf75274b343164bafc8a3ac",
            "type": "pubkey"
          }
        }
      ],
      "hex": "01000000010000000000000000000000000000000000000000000000000000000000000000ffffffff0804ffff001d02ac02ffffffff0100f2052a01000000434104b0db59592289864233ce40cf1dc7420e8b5e290b4402bd203545d330ece6ba841ffef40fa62b76596688a46e70b284f57566766b7d8bf75274b343164bafc8a3ac00000000"
    }
  ]
}