{
  "hash": "00000000156fd2cf2dd0589f39c323f99b934d0b08fd1188976c69b53842390d",
  "confirmations": 44125,
  "height": 8973,
  "version": 1,
  "versionHex": "00000001",
  "merkleroot": "0457befa1a5a598d3700bd501beb07916f2efcf1c88296d0b01b6e38c9cd3455",
  "time": 1238233272,
  "mediantime": 1238231005,
  "nonce": 1488655918,
  "bits": "1d00ffff",
  "difficulty": 1,
  "chainwork": "0000000000000000000000000000000000000000000000000000230e230e230e",
  "nTx": 1,
  "previousblockhash": "000000000c52354ba07004839e93b43a90d17fdff43732ed32267ef07e887137",
  "nextblockhash": "00000000770b9deaf4fbe2bc6f47a80373786a5b8ec6c699079f21ae0beb7ff1",
  "strippedsize": 216,
  "size": 216,
  "weight": 864,
  "tx": [
    {
      "txid": "0457befa1a5a598d3700bd501beb07916f2efcf1c88296d0b01b6e38c9cd3455",
      "hash": "0457befa1a5a598d3700bd501beb07916f2efcf1c88296d0b01b6e38c9cd3455",
      "version": 1,
      "size": 135,
      "vsize": 135,
      "weight": 540,
      "locktime": 0,
      "vin": [
        {
          "coinbase": "04ffff001d020706",
          "sequence": 4294967295
        }
      ],
      "vout": [
        {
          "value": 50.0,
          "n": 0,
          "scriptPubKey": {
            "asm": "04b1faa9e84ae517246506e5be4f5355f9407a39a7be873f52f2d657cfdaf06626cd8c367051775013411130a17362cb595ecc02f231788ff99352435c77a7e835 OP_CHECKSIG",
            "desc": "pk(04b1faa9e84ae517246506e5be4f5355f9407a39a7be873f52f2d657cfdaf06626cd8c367051775013411130a17362cb595ecc02f231788ff99352435c77a7e835)#jjhd9pdu",
            "hex": "4104b1faa9e84ae517246506e5be4f5355f9407a39a7be873f52f2d657cfdaf06626cd8c367051775013411130a17362cb595ecc02f231788ff99352435c77a7e835ac",
            "type": "pubkey"
          }
        }
      ],
      "hex": "01000000010000000000000000000000000000000000000000000000000000000000000000ffffffff0804ffff001d020706ffffffff0100f2052a01000000434104b1faa9e84ae517246506e5be4f5355f9407a39a7be873f52f2d657cfdaf06626cd8c367051775013411130a17362cb595ecc02f231788ff99352435c77a7e835ac00000000"
    }
  ]
}