{
  "hash": "00000000d7e6c1c27ea335a4014b54f51b2805cae5d4f1c19ce59a4a27e607e3",
  "confirmations": 50241,
  "height": 2857,
  "version": 1,
  "versionHex": "00000001",
  "merkleroot": "0b57eca8cbb06ba4d0804fb996386b3d48723f7c25919fb0dedb76c153f69a2a",
  "time": 1233661964,
  "mediantime": 1233659353,
  "nonce": 191967714,
  "bits": "1d00ffff",
  "difficulty": 1,
  "chainwork": "00000000000000000000000000000000000000000000000000000b2a0b2a0b2a",
  "nTx": 1,
  "previousblockhash": "000000004c1085c45f772ff34d4e894e74290c25435103786e7355e4799e61ee",
  "nextblockhash": "00000000f26567b514e19d504b4ab552193273bb96cc8e4fef34ec5e4c970a47",
  "strippedsize": 216,
  "size": 216,
  "weight": 864,
  "tx": [
    {
      "txid": "0b57eca8cbb06ba4d0804fb996386b3d48723f7c25919fb0dedb76c153f69a2a",
      "hash": "0b57eca8cbb06ba4d0804fb996386b3d48723f7c25919fb0dedb76c153f69a2a",
      "version": 1,
      "size": 135,
      "vsize": 135,
      "weight": 540,
      "locktime": 0,
      "vin": [
        {
          "coinbase": "04ffff001d02b203",
          "sequence": 4294967295
        }
      ],
      "vout": [
        {
          "value": 50.0,
          "n": 0,
          "scriptPubKey": {
            "asm": "04398c2b5c6e36e8926624c15cd0df5ca1db3b3968801f8c4c079b456a7036e413bbf7db882f6bba7a5457b09eadb39b03162e46440e43201390277d9265426a9f OP_CHECKSIG",
            "desc": "pk(04398c2b5c6e36e8926624c15cd0df5ca1db3b3968801f8c4c079b456a7036e413bbf7db882f6bba7a5457b09eadb39b03162e46440e43201390277d9265426a9f)#n5dyrz5p",
            "hex": "4104398c2b5c6e36e8926624c15cd0df5ca1db3b3968801f8c4c079b456a7036e413bbf7db882f6bba7a5457b09eadb39b03162e46440e43201390277d9265426a9fac",
            "type": "pubkey"
          }
        }
      ],
      "hex": "01000000010000000000000000000000000000000000000000000000000000000000000000ffffffff0804ffff001d02b203ffffffff0100f2052a01000000434104398c2b5c6e36e8926624c15cd0df5ca1db3b3968801f8c4c079b456a7036e413bbf7db882f6bba7a5457b09eadb39b03162e46440e43201390277d9265426a9fac00000000"
    }
  ]
}