{
  "hash": "00000000de5243c9bae6f197c7762df5dfcd37b2daa2e521cde4691826c81f4f",
  "confirmations": 45960,
  "height": 7138,
  "version": 1,
  "versionHex": "00000001",
  "merkleroot": "a8e560c765997f1e3ab9ebdce4fc8941f39cfd42bd7ec7078d4db589c59e56f0",
  "time": 1236824275,
  "mediantime": 1236819393,
  "nonce": 4040595754,
  "bits": "1d00ffff",
  "difficulty": 1,
  "chainwork": "00000000000000000000000000000000000000000000000000001be31be31be3",
  "nTx": 1,
  "previousblockhash": "000000008b998999ce67ab3c8431408d289d3c057c6db389c41093fe91b46afa",
  "nextblockhash": "000000007ba29cd871f3b083f3c742a38b5c23c16756bb9d7b0753d0797104d7",
  "strippedsize": 216,
  "size": 216,
  "weight": 864,
  "tx": [
    {
      "txid": "a8e560c765997f1e3ab9ebdce4fc8941f39cfd42bd7ec7078d4db589c59e56f0",
      "hash": "a8e560c765997f1e3ab9ebdce4fc8941f39cfd42bd7ec7078d4db589c59e56f0",
      "version": 1,
      "size": 135,
      "vsize": 135,
      "weight": 540,
      "locktime": 0,
      "vin": [
        {
          "coinbase": "04ffff001d02b904",
          "sequence": 4294967295
        }
      ],
      "vout": [
        {
          "value": 50.0,
          "n": 0,
          "scriptPubKey": {
            "asm": "04d26ba9d7dadd06710bdfb5acc89a5331781e1cb394452de0c0438be1559fd6f28a13d4a3c1f02310eecb3bf50508625da0ddaa19e6c27e104b09858ac19bce49 OP_CHECKSIG",
            "desc": "pk(04d26ba9d7dadd06710bdfb5acc89a5331781e1cb394452de0c0438be1559fd6f28a13d4a3c1f02310eecb3bf50508625da0ddaa19e6c27e104b09858ac19bce49)#fvcrdfz6",
            "hex": "4104d26ba9d7dadd06710bdfb5acc89a5331781e1cb394452de0c0438be1559fd6f28a13d4a3c1f02310eecb3bf50508625da0ddaa19e6c27e104b09858ac19bce49ac",
            "type": "pubkey"
          }
        }
      ],
      "hex": "01000000010000000000000000000000000000000000000000000000000000000000000000ffffffff0804ffff001d02b904ffffffff0100f2052a01000000434104d26ba9d7dadd06710bdfb5acc89a5331781e1cb394452de0c0438be1559fd6f28a13d4a3c1f02310eecb3bf50508625da0ddaa19e6c27e104b09858ac19bce49ac00000000"
    }
  ]
}