{
  "hash": "00000000beedef81f6ac28e034c64a09bb3accbab36bb08a446ee12589cdaeb0",
  "confirmations": 45783,
  "height": 7315,
  "version": 1,
  "versionHex": "00000001",
  "merkleroot": "d70f9aede614dac7448400bd5c6365436d5c672d5305a5e5cbe6005555833ba8",
  "time": 1236959851,
  "mediantime": 1236954555,
  "nonce": 1499459896,
  "bits": "1d00ffff",
  "difficulty": 1,
  "chainwork": "00000000000000000000000000000000000000000000000000001c941c941c94",
  "nTx": 1,
  "previousblockhash": "000000005ab4b742680dcb3f9d3be40b219f3e8c57b0bc286bb50378b6450f8b",
  "nextblockhash": "000000003632eaf7db30127b94b030dd558e8a903eac8f66c8407113d97ceb84",
  "strippedsize": 216,
  "size": 216,
  "weight": 864,
  "tx": [
    {
      "txid": "d70f9aede614dac7448400bd5c6365436d5c672d5305a5e5cbe6005555833ba8",
      "hash": "d70f9aede614dac7448400bd5c6365436d5c672d5305a5e5cbe6005555833ba8",
      "version": 1,
      "size": 135,
      "vsize": 135,
      "weight": 540,
      "locktime": 0,
      "vin": [
        {
          "coinbase": "04ffff001d02d107",
          "sequence": 4294967295
        }
      ],
      "vout": [
        {
          "value": 50.0,
          "n": 0,
          "scriptPubKey": {
            "asm": "046edc492ce3ad8c210f0d0e5ffa978e91178444f340c933476cb51fcf6fbd23c66f05eaea1b8fcbbff67eeca752aa0cb9c62e15207ec52bbaf0cc7637fe0f77ec OP_CHECKSIG",
            "desc": "pk(046edc492ce3ad8c210f0d0e5ffa978e91178444f340c933476cb51fcf6fbd23c66f05eaea1b8fcbbff67eeca752aa0cb9c62e15207ec52bbaf0cc7637fe0f77ec)#yq0xspyl",
            "hex": "41046edc492ce3ad8c210f0d0e5ffa978e91178444f340c933476cb51fcf6fbd23c66f05eaea1b8fcbbff67eeca752aa0cb9c62e15207ec52bbaf0cc7637fe0f77ecac",
            "type": "pubkey"
          }
        }
      ],
      "hex": "01000000010000000000000000000000000000000000000000000000000000000000000000ffffffff0804ffff001d02d107ffffffff0100f2052a010000004341046edc492ce3ad8c210f0d0e5ffa978e91178444f340c933476cb51fcf6fbd23c66f05eaea1b8fcbbff67eeca752aa0cb9c62e15207ec52bbaf0cc7637fe0f77ecac00000000"
    }
  ]
}