{
  "hash": "00000000018003d284fc8a7fe5ee31f3c4b12b107714829b29ed57dccbdfbab7",
  "confirmations": 43289,
  "height": 9809,
  "version": 1,
  "versionHex": "00000001",
  "merkleroot": "63b1a70ae9dd99f75fd36b6c8bcd19b64f1aeff7bdcc26bd2d54e412e412a817",
  "time": 1238860923,
  "mediantime": 1238859976,
  "nonce": 1998757,
  "bits": "1d00ffff",
  "difficulty": 1,
  "chainwork": "0000000000000000000000000000000000000000000000000000265226522652",
  "nTx": 1,
  "previousblockhash": "00000000c21b72384593efd6850c5e1327c4f4cf1cebe56af3b870024c4e32a4",
  "nextblockhash": "00000000277fe7c8ed7c09df84178baebe06c01c6c364c79428e6c8e1923b4e8",
  "strippedsize": 216,
  "size": 216,
  "weight": 864,
  "tx": [
    {
      "txid": "63b1a70ae9dd99f75fd36b6c8bcd19b64f1aeff7bdcc26bd2d54e412e412a817",
      "hash": "63b1a70ae9dd99f75fd36b6c8bcd19b64f1aeff7bdcc26bd2d54e412e412a817",
      "version": 1,
      "size": 135,
      "vsize": 135,
      "weight": 540,
      "locktime": 0,
      "vin": [
        {
          "coinbase": "04ffff001d02c300",
          "sequence": 4294967295
        }
      ],
      "vout": [
        {
          "value": 50.0,
          "n": 0,
          "scriptPubKey": {
            "asm": "0427e458e8df8b2eec27af73b49ba727d6d6453e8cffd5c6d87d9f56d04d077ed87ab00eb04f474815c15e85bff439ad563034f4203017b509c2be7b8a6c6d046b OP_CHECKSIG",
            "desc": "pk(0427e458e8df8b2eec27af73b49ba727d6d6453e8cffd5c6d87d9f56d04d077ed87ab00eb04f474815c15e85bff439ad563034f4203017b509c2be7b8a6c6d046b)#7lydy4un",
            "hex": "410427e458e8df8b2eec27af73b49ba727d6d6453e8cffd5c6d87d9f56d04d077ed87ab00eb04f474815c15e85bff439ad563034f4203017b509c2be7b8a6c6d046bac",
            "type": "pubkey"
          }
        }
      ],
      "hex": "01000000010000000000000000000000000000000000000000000000000000000000000000ffffffff0804ffff001d02c300ffffffff0100f2052a0100000043410427e458e8df8b2eec27af73b49ba727d6d6453e8cffd5c6d87d9f56d04d077ed87ab00eb04f474815c15e85bff439ad563034f4203017b509c2be7b8a6c6d046bac00000000"
    }
  ]
}