{
  "hash": "00000000435237ec511b7921fbacd58e6362586ee6ed114525873e156bebe671",
  "confirmations": 51310,
  "height": 1788,
  "version": 1,
  "versionHex": "00000001",
  "merkleroot": "7b7393bd8778df3f51ba189a8ec140a17d6bad23a29e3772a8366b950321161e",
  "time": 1232891596,
  "mediantime": 1232889417,
  "nonce": 3603529770,
  "bits": "1d00ffff",
  "difficulty": 1,
  "chainwork": "000000000000000000000000000000000000000000000000000006fd06fd06fd",
  "nTx": 1,
  "previousblockhash": "0000000087bfb8261dc2f2d7b780d339455653078ce4adac50eb7cc5f4f4abd8",
  "nextblockhash": "0000000009b35360c2046d14e4d5972fc1c41bc2c67f963bbb3497623c15f651",
  "strippedsize": 216,
  "size": 216,
  "weight": 864,
  "tx": [
    {
      "txid": "7b7393bd8778df3f51ba189a8ec140a17d6bad23a29e3772a8366b950321161e",
      "hash": "7b7393bd8778df3f51ba189a8ec140a17d6bad23a29e3772a8366b950321161e",
      "version": 1,
      "size": 135,
      "vsize": 135,
      "weight": 540,
      "locktime": 0,
      "vin": [
        {
          "coinbase": "04ffff001d02f303",
          "sequence": 4294967295
        }
      ],
      "vout": [
        {
          "value": 50.0,
          "n": 0,
          "scriptPubKey": {
            "asm": "0452ad929594ddc978043956785cb42bab8c723fe9d05cdc8045f18f519abf1a50ae6929fc60e9d6ca3ec722892e36ec55299a6887f90187d8f868a6d907a8df74 OP_CHECKSIG",
            "desc": "pk(0452ad929594ddc978043956785cb42bab8c723fe9d05cdc8045f18f519abf1a50ae6929fc60e9d6ca3ec722892e36ec55299a6887f90187d8f868a6d907a8df74)#9usc73yk",
            "hex": "410452ad929594ddc978043956785cb42bab8c723fe9d05cdc8045f18f519abf1a50ae6929fc60e9d6ca3ec722892e36ec55299a6887f90187d8f868a6d907a8df74ac",
            "type": "pubkey"
          }
        }
      ],
      "hex": "01000000010000000000000000000000000000000000000000000000000000000000000000ffffffff0804ffff001d02f303ffffffff0100f2052a0100000043410452ad929594ddc978043956785cb42bab8c723fe9d05cdc8045f18f519abf1a50ae6929fc60e9d6ca3ec722892e36ec55299a6887f90187d8f868a6d907a8df74ac00000000"
    }
  ]
}