{
  "hash": "00000000e2257ecd0bc0f88328f98442e6ef7bf9424e7bf503f7aeb77727f5a5",
  "confirmations": 45937,
  "height": 7161,
  "version": 1,
  "versionHex": "00000001",
  "merkleroot": "a371945878a49e8ecd204c94f62dbc24b057676130cf950d5404242b4c064733",
  "time": 1236842310,
  "mediantime": 1236838922,
  "nonce": 112906194,
  "bits": "1d00ffff",
  "difficulty": 1,
  "chainwork": "00000000000000000000000000000000000000000000000000001bfa1bfa1bfa",
  "nTx": 1,
  "previousblockhash": "000000005e38bed10b2e89cb6511eeb6626e36b31f0cff3e6013daa485cf7191",
  "nextblockhash": "000000000f760314179c351107625b24288d28d5e0e364b8abb4bea2923820b4",
  "strippedsize": 216,
  "size": 216,
  "weight": 864,
  "tx": [
    {
      "txid": "a371945878a49e8ecd204c94f62dbc24b057676130cf950d5404242b4c064733",
      "hash": "a371945878a49e8ecd204c94f62dbc24b057676130cf950d5404242b4c064733",
      "version": 1,
      "size": 135,
      "vsize": 135,
      "weight": 540,
      "locktime": 0,
      "vin": [
        {
          "coinbase": "04ffff001d029501",
          "sequence": 4294967295
        }
      ],
      "vout": [
        {
          "value": 50.0,
          "n": 0,
          "scriptPubKey": {
            "asm": "04adb3edbf497f6b2fa0eca07e0fb8ee65e1e99d717803f9e6ba13495904dd67f1a8ac3e742886fd5bc801ece91e6c008285158e6536c12877e5c6edec7c2d9876 OP_CHECKSIG",
            "desc": "pk(04adb3edbf497f6b2fa0eca07e0fb8ee65e1e99d717803f9e6ba13495904dd67f1a8ac3e742886fd5bc801ece91e6c008285158e6536c12877e5c6edec7c2d9876)#l5hglndz",
            "hex": "4104adb3edbf497f6b2fa0eca07e0fb8ee65e1e99d717803f9e6ba13495904dd67f1a8ac3e742886fd5bc801ece91e6c008285158e6536c12877e5c6edec7c2d9876ac",
            "type": "pubkey"
          }
        }
      ],
      "hex": "01000000010000000000000000000000000000000000000000000000000000000000000000ffffffff0804ffff001d029501ffffffff0100f2052a01000000434104adb3edbf497f6b2fa0eca07e0fb8ee65e1e99d717803f9e6ba13495904dd67f1a8ac3e742886fd5bc801ece91e6c008285158e6536c12877e5c6edec7c2d9876ac00000000"
    }
  ]
}