{
  "hash": "00000000162222fadd114245e16d25f6d02acbf67865575dc6f64b57634b5153",
  "confirmations": 51934,
  "height": 82,
  "version": 1,
  "versionHex": "00000001",
  "merkleroot": "81fb4b1430e5c2cdee38be1a147c45fe23b38bbad0375ff67dc64450844445be",
  "time": 1231647491,
  "mediantime": 1231633184,
  "nonce": 2519696689,
  "bits": "1d00ffff",
  "difficulty": 1,
  "chainwork": "0000000000000000000000000000000000000000000000000000005300530053",
  "nTx": 1,
  "previousblockhash": "000000007d076a5289751e363ecb01604355730e69de270f04f79d969ff1cf86",
  "nextblockhash": "00000000ca15c30122dc65c33e8ec1f7ff2631ef9e2a1c36d8a399ca1705122b",
  "strippedsize": 215,
  "size": 215,
  "weight": 860,
  "tx": [
    {
      "txid": "81fb4b1430e5c2cdee38be1a147c45fe23b38bbad0375ff67dc64450844445be",
      "hash": "81fb4b1430e5c2cdee38be1a147c45fe23b38bbad0375ff67dc64450844445be",
      "version": 1,
      "size": 134,
      "vsize": 134,
      "weight": 536,
      "locktime": 0,
      "vin": [
        {
          "coinbase": "04ffff001d010b",
          "sequence": 4294967295
        }
      ],
      "vout": [
        {
          "value": 50.0,
          "n": 0,
          "scriptPubKey": {
            "asm": "04916315e2bfc2affe420b84b949e53134d996af10a6f6e6a4ffb0158d00ba7433ead8bdd024517e2ec650965ffdf8f6eaf2a5046c0889b3532206f65be6e76a95 OP_CHECKSIG",
            "desc": "pk(04916315e2bfc2affe420b84b949e53134d996af10a6f6e6a4ffb0158d00ba7433ead8bdd024517e2ec650965ffdf8f6eaf2a5046c0889b3532206f65be6e76a95)#zhyvsnga",
            "hex": "4104916315e2bfc2affe420b84b949e53134d996af10a6f6e6a4ffb0158d00ba7433ead8bdd024517e2ec650965ffdf8f6eaf2a5046c0889b3532206f65be6e76a95ac",
            "type": "pubkey"
          }
        }
      ],
      "hex": "01000000010000000000000000000000000000000000000000000000000000000000000000ffffffff0704ffff001d010bffffffff0100f2052a01000000434104916315e2bfc2affe420b84b949e53134d996af10a6f6e6a4ffb0158d00ba7433ead8bdd024517e2ec650965ffdf8f6eaf2a5046c0889b3532206f65be6e76a95ac00000000"
    }
  ]
}