{
  "hash": "00000000eb281f4ededcf2f8570fdf048b13364578d32c31478f34be5378619f",
  "confirmations": 46105,
  "height": 6993,
  "version": 1,
  "versionHex": "00000001",
  "merkleroot": "ee70e9405673ffe63b707e355f676d27b0fec1570854e136e7e15d74916bd61f",
  "time": 1236712617,
  "mediantime": 1236709150,
  "nonce": 3879305239,
  "bits": "1d00ffff",
  "difficulty": 1,
  "chainwork": "00000000000000000000000000000000000000000000000000001b521b521b52",
  "nTx": 1,
  "previousblockhash": "00000000f77aeaddcf83c8c3d9a5aa98008db87438bd47b1a7b04898c70eb7a6",
  "nextblockhash": "0000000095dfcb632667b03b58caf97ad7282da99d1fa00f22d292cca036cf30",
  "strippedsize": 216,
  "size": 216,
  "weight": 864,
  "tx": [
    {
      "txid": "ee70e9405673ffe63b707e355f676d27b0fec1570854e136e7e15d74916bd61f",
      "hash": "ee70e9405673ffe63b707e355f676d27b0fec1570854e136e7e15d74916bd61f",
      "version": 1,
      "size": 135,
      "vsize": 135,
      "weight": 540,
      "locktime": 0,
      "vin": [
        {
          "coinbase": "04ffff001d022102",
          "sequence": 4294967295
        }
      ],
      "vout": [
        {
          "value": 50.0,
          "n": 0,
          "scriptPubKey": {
            "asm": "044c504d330e4265a874fa5efe9106569976df26a3e6ef2c95460b8c816f8f7a6b6eef0703cfd65332099b72433e7ac4b2889e07726d4d5c528b1446253a1bbca8 OP_CHECKSIG",
            "desc": "pk(044c504d330e4265a874fa5efe9106569976df26a3e6ef2c95460b8c816f8f7a6b6eef0703cfd65332099b72433e7ac4b2889e07726d4d5c528b1446253a1bbca8)#3q6wrknx",
            "hex": "41044c504d330e4265a874fa5efe9106569976df26a3e6ef2c95460b8c816f8f7a6b6eef0703cfd65332099b72433e7ac4b2889e07726d4d5c528b1446253a1bbca8ac",
            "type": "pubkey"
          }
        }
      ],
      "hex": "01000000010000000000000000000000000000000000000000000000000000000000000000ffffffff0804ffff001d022102ffffffff0100f2052a010000004341044c504d330e4265a874fa5efe9106569976df26a3e6ef2c95460b8c816f8f7a6b6eef0703cfd65332099b72433e7ac4b2889e07726d4d5c528b1446253a1bbca8ac00000000"
    }
  ]
}