{
  "hash": "00000000bf18ebdf567923d3ff3575c676de07ca7715e10f3504b0f59f0335f3",
  "confirmations": 44494,
  "height": 8604,
  "version": 1,
  "versionHex": "00000001",
  "merkleroot": "52f94b10600eeac185b23a7cba67de159a12bf187d31afe8ded3e14d5f601fc5",
  "time": 1237953285,
  "mediantime": 1237949538,
  "nonce": 109386671,
  "bits": "1d00ffff",
  "difficulty": 1,
  "chainwork": "0000000000000000000000000000000000000000000000000000219d219d219d",
  "nTx": 1,
  "previousblockhash": "0000000033eec992f7774e9c2ab683a08df795bcd06d8f9e913936d7900dd6a8",
  "nextblockhash": "00000000483926d6830a47c25bb16f0b1c33739dd708306c7abba3f2b9906bad",
  "strippedsize": 216,
  "size": 216,
  "weight": 864,
  "tx": [
    {
      "txid": "52f94b10600eeac185b23a7cba67de159a12bf187d31afe8ded3e14d5f601fc5",
      "hash": "52f94b10600eeac185b23a7cba67de159a12bf187d31afe8ded3e14d5f601fc5",
      "version": 1,
      "size": 135,
      "vsize": 135,
      "weight": 540,
      "locktime": 0,
      "vin": [
        {
          "coinbase": "04ffff001d026202",
          "sequence": 4294967295
        }
      ],
      "vout": [
        {
          "value": 50.0,
          "n": 0,
          "scriptPubKey": {
            "asm": "04f871add5a06ad49ce1c063df036e98c023da98d8a722ce484042b1e902811f23c9a5ad7852b5b4c63903b24ea1e6619e7021ab093e4774dc25e032f0b224305a OP_CHECKSIG",
            "desc": "pk(04f871add5a06ad49ce1c063df036e98c023da98d8a722ce484042b1e902811f23c9a5ad7852b5b4c63903b24ea1e6619e7021ab093e4774dc25e032f0b224305a)#u5xe3vaq",
            "hex": "4104f871add5a06ad49ce1c063df036e98c023da98d8a722ce484042b1e902811f23c9a5ad7852b5b4c63903b24ea1e6619e7021ab093e4774dc25e032f0b224305aac",
            "type": "pubkey"
          }
        }
      ],
      "hex": "01000000010000000000000000000000000000000000000000000000000000000000000000ffffffff0804ffff001d026202ffffffff0100f2052a01000000434104f871add5a06ad49ce1c063df036e98c023da98d8a722ce484042b1e902811f23c9a5ad7852b5b4c63903b24ea1e6619e7021ab093e4774dc25e032f0b224305aac00000000"
    }
  ]
}