{
  "hash": "00000000f2e759f2c1f39d4f45c0f3fbb4ad0c79c380823f3e38ed8572c09bad",
  "confirmations": 47738,
  "height": 5360,
  "version": 1,
  "versionHex": "00000001",
  "merkleroot": "e60cbe727522f7c59d61e7a07bc607fa86a4d9544fe8a9dda0649f7df846e9c5",
  "time": 1235411583,
  "mediantime": 1235407886,
  "nonce": 45644292,
  "bits": "1d00ffff",
  "difficulty": 1,
  "chainwork": "000000000000000000000000000000000000000000000000000014f114f114f1",
  "nTx": 1,
  "previousblockhash": "000000000e2eac523b558633f6c2cd01de71c7fd67e44b84e564bb49f00007eb",
  "nextblockhash": "000000001324b900fa5d71ae666b9a0fbfcd4cee9be901c27341c8c86765916c",
  "strippedsize": 216,
  "size": 216,
  "weight": 864,
  "tx": [
    {
      "txid": "e60cbe727522f7c59d61e7a07bc607fa86a4d9544fe8a9dda0649f7df846e9c5",
      "hash": "e60cbe727522f7c59d61e7a07bc607fa86a4d9544fe8a9dda0649f7df846e9c5",
      "version": 1,
      "size": 135,
      "vsize": 135,
      "weight": 540,
      "locktime": 0,
      "vin": [
        {
          "coinbase": "04ffff001d020b03",
          "sequence": 4294967295
        }
      ],
      "vout": [
        {
          "value": 50.0,
          "n": 0,
          "scriptPubKey": {
            "asm": "0467789c22c47e4ccfbaab7583322c0e443296d703b8009f212075f78ce3765f6f27e0f4c3a6cf28987956376dc8dc1ce2491293dd73207517d5264a17392868d1 OP_CHECKSIG",
            "desc": "pk(0467789c22c47e4ccfbaab7583322c0e443296d703b8009f212075f78ce3765f6f27e0f4c3a6cf28987956376dc8dc1ce2491293dd73207517d5264a17392868d1)#jtfa0g0r",
            "hex": "410467789c22c47e4ccfbaab7583322c0e443296d703b8009f212075f78ce3765f6f27e0f4c3a6cf28987956376dc8dc1ce2491293dd73207517d5264a17392868d1ac",
            "type": "pubkey"
          }
        }
      ],
      "hex": "01000000010000000000000000000000000000000000000000000000000000000000000000ffffffff0804ffff001d020b03ffffffff0100f2052a0100000043410467789c22c47e4ccfbaab7583322c0e443296d703b8009f212075f78ce3765f6f27e0f4c3a6cf28987956376dc8dc1ce2491293dd73207517d5264a17392868d1ac00000000"
    }
  ]
}