{
  "hash": "000000009fb14d3650b8a6ac331ab55d2b7f64b58afac0dc5df5a4bc00622a74",
  "confirmations": 43212,
  "height": 9886,
  "version": 1,
  "versionHex": "00000001",
  "merkleroot": "33019521c3213965cff1f720310a4240bea13898f722cca5eac5c7dea917e029",
  "time": 1238915745,
  "mediantime": 1238912705,
  "nonce": 2632367880,
  "bits": "1d00ffff",
  "difficulty": 1,
  "chainwork": "0000000000000000000000000000000000000000000000000000269f269f269f",
  "nTx": 1,
  "previousblockhash": "00000000dcd9113fe48054aacf9f23cf40200bd8f24a1f25bad60f842d86f75b",
  "nextblockhash": "000000002d00ebefbac23a5958ed1a5a4d6b2528c6054cbb187f9040eac8128d",
  "strippedsize": 216,
  "size": 216,
  "weight": 864,
  "tx": [
    {
      "txid": "33019521c3213965cff1f720310a4240bea13898f722cca5eac5c7dea917e029",
      "hash": "33019521c3213965cff1f720310a4240bea13898f722cca5eac5c7dea917e029",
      "version": 1,
      "size": 135,
      "vsize": 135,
      "weight": 540,
      "locktime": 0,
      "vin": [
        {
          "coinbase": "04ffff001d02d901",
          "sequence": 4294967295
        }
      ],
      "vout": [
        {
          "value": 50.0,
          "n": 0,
          "scriptPubKey": {
            "asm": "04d4d4c9316aa9ae4217b8b52f618c99858ae17daf1e1d82dd302c6f79adce0d7c050a74090890dee41ef57f2a6c57fad0a70281520c154145bf78c625ce13a8a1 OP_CHECKSIG",
            "desc": "pk(04d4d4c9316aa9ae4217b8b52f618c99858ae17daf1e1d82dd302c6f79adce0d7c050a74090890dee41ef57f2a6c57fad0a70281520c154145bf78c625ce13a8a1)#gpcqyzlz",
            "hex": "4104d4d4c9316aa9ae4217b8b52f618c99858ae17daf1e1d82dd302c6f79adce0d7c050a74090890dee41ef57f2a6c57fad0a70281520c154145bf78c625ce13a8a1ac",
            "type": "pubkey"
          }
        }
      ],
      "hex": "01000000010000000000000000000000000000000000000000000000000000000000000000ffffffff0804ffff001d02d901ffffffff0100f2052a01000000434104d4d4c9316aa9ae4217b8b52f618c99858ae17daf1e1d82dd302c6f79adce0d7c050a74090890dee41ef57f2a6c57fad0a70281520c154145bf78c625ce13a8a1ac00000000"
    }
  ]
}