{
  "hash": "00000000dea58ba8cb1a8d6840d32c0f23061a842f055f26c980eed9a9d2d950",
  "confirmations": 52503,
  "height": 595,
  "version": 1,
  "versionHex": "00000001",
  "merkleroot": "4df3768c2441a3d1e21e7243ca170d9b5b6084de9c122f72cc3854ea62988310",
  "time": 1232036324,
  "mediantime": 1232032931,
  "nonce": 3223417352,
  "bits": "1d00ffff",
  "difficulty": 1,
  "chainwork": "0000000000000000000000000000000000000000000000000000025402540254",
  "nTx": 1,
  "previousblockhash": "00000000a3fb5d9b782814d661a6927d42e5e2c48a445d20d625bce577178f9a",
  "nextblockhash": "00000000bbea178c08435c3f672489992abaf070f0c15cef40002c399f4cece0",
  "strippedsize": 216,
  "size": 216,
  "weight": 864,
  "tx": [
    {
      "txid": "4df3768c2441a3d1e21e7243ca170d9b5b6084de9c122f72cc3854ea62988310",
      "hash": "4df3768c2441a3d1e21e7243ca170d9b5b6084de9c122f72cc3854ea62988310",
      "version": 1,
      "size": 135,
      "vsize": 135,
      "weight": 540,
      "locktime": 0,
      "vin": [
        {
          "coinbase": "04ffff001d029f06",
          "sequence": 4294967295
        }
      ],
      "vout": [
        {
          "value": 50.0,
          "n": 0,
          "scriptPubKey": {
            "asm": "0486152c0639e672d816eb8f4b783505a88a1619536a92ea9d21fc8248c66eb66a43de52833342253f5d1e7298d61f6f4ecdaef7924ba65f920bc5156c86c3215b OP_CHECKSIG",
            "desc": "pk(0486152c0639e672d816eb8f4b783505a88a1619536a92ea9d21fc8248c66eb66a43de52833342253f5d1e7298d61f6f4ecdaef7924ba65f920bc5156c86c3215b)#e5gsx6yy",
            "hex": "410486152c0639e672d816eb8f4b783505a88a1619536a92ea9d21fc8248c66eb66a43de52833342253f5d1e7298d61f6f4ecdaef7924ba65f920bc5156c86c3215bac",
            "type": "pubkey"
          }
        }
      ],
      "hex": "01000000010000000000000000000000000000000000000000000000000000000000000000ffffffff0804ffff001d029f06ffffffff0100f2052a0100000043410486152c0639e672d816eb8f4b783505a88a1619536a92ea9d21fc8248c66eb66a43de52833342253f5d1e7298d61f6f4ecdaef7924ba65f920bc5156c86c3215bac00000000"
    }
  ]
}