{
  "hash": "00000000692efff77c79410ae0715c121a6cd4f6c69b04acadcb1b5991c8054b",
  "confirmations": 49391,
  "height": 3707,
  "version": 1,
  "versionHex": "00000001",
  "merkleroot": "10fad99f111b5ee58b94d7c9bda666b10891d731753ccf4f91290f5fdb22ebe0",
  "time": 1234237551,
  "mediantime": 1234233649,
  "nonce": 448060460,
  "bits": "1d00ffff",
  "difficulty": 1,
  "chainwork": "00000000000000000000000000000000000000000000000000000e7c0e7c0e7c",
  "nTx": 1,
  "previousblockhash": "00000000702e7b69c325bea462f7190738615f60d5c9531896d5deb3cfec5c9b",
  "nextblockhash": "0000000097bc83678a53348e4908e2dd6822828971f3de8bd011f6d19fd97120",
  "strippedsize": 216,
  "size": 216,
  "weight": 864,
  "tx": [
    {
      "txid": "10fad99f111b5ee58b94d7c9bda666b10891d731753ccf4f91290f5fdb22ebe0",
      "hash": "10fad99f111b5ee58b94d7c9bda666b10891d731753ccf4f91290f5fdb22ebe0",
      "version": 1,
      "size": 135,
      "vsize": 135,
      "weight": 540,
      "locktime": 0,
      "vin": [
        {
          "coinbase": "04ffff001d02170a",
          "sequence": 4294967295
        }
      ],
      "vout": [
        {
          "value": 50.0,
          "n": 0,
          "scriptPubKey": {
            "asm": "04bcb4d8931cc5e7c4dd148c84305592477cad499f59c7207c582a8414d7c3ee31042168d9c5e5c2d26e7734893336c20cc5aa7e083c1ae37ae229d4b21c1d26a3 OP_CHECKSIG",
            "desc": "pk(04bcb4d8931cc5e7c4dd148c84305592477cad499f59c7207c582a8414d7c3ee31042168d9c5e5c2d26e7734893336c20cc5aa7e083c1ae37ae229d4b21c1d26a3)#y7syjgvx",
            "hex": "4104bcb4d8931cc5e7c4dd148c84305592477cad499f59c7207c582a8414d7c3ee31042168d9c5e5c2d26e7734893336c20cc5aa7e083c1ae37ae229d4b21c1d26a3ac",
            "type": "pubkey"
          }
        }
      ],
      "hex": "01000000010000000000000000000000000000000000000000000000000000000000000000ffffffff0804ffff001d02170affffffff0100f2052a01000000434104bcb4d8931cc5e7c4dd148c84305592477cad499f59c7207c582a8414d7c3ee31042168d9c5e5c2d26e7734893336c20cc5aa7e083c1ae37ae229d4b21c1d26a3ac00000000"
    }
  ]
}