{
  "hash": "00000000ace0b517af92fdcf78ac71bf4c297205cef79b9854433df7dace6f0f",
  "confirmations": 48272,
  "height": 4826,
  "version": 1,
  "versionHex": "00000001",
  "merkleroot": "c2c251842340ff50babad1dd37ae7009339cf9381fe8678f2b05938ffc164a11",
  "time": 1235016844,
  "mediantime": 1235014015,
  "nonce": 1099284512,
  "bits": "1d00ffff",
  "difficulty": 1,
  "chainwork": "000000000000000000000000000000000000000000000000000012db12db12db",
  "nTx": 1,
  "previousblockhash": "00000000a572f68848d819c0d35906b0905ea98f184e5e33e85832b7e46884f2",
  "nextblockhash": "000000004a898a49dc00e66790b40784f86b4a3b20937c9aaa35af8be6a45a09",
  "strippedsize": 216,
  "size": 216,
  "weight": 864,
  "tx": [
    {
      "txid": "c2c251842340ff50babad1dd37ae7009339cf9381fe8678f2b05938ffc164a11",
      "hash": "c2c251842340ff50babad1dd37ae7009339cf9381fe8678f2b05938ffc164a11",
      "version": 1,
      "size": 135,
      "vsize": 135,
      "weight": 540,
      "locktime": 0,
      "vin": [
        {
          "coinbase": "04ffff001d02ac04",
          "sequence": 4294967295
        }
      ],
      "vout": [
        {
          "value": 50.0,
          "n": 0,
          "scriptPubKey": {
            "asm": "04ca5c92992e00f3390c7afcd804fe77e36fc8ef707e881827e8704dfa1371c9d88f4c26b03ddd335e249d09403cd69c35246e45dc1ac7631cfcb2e84078b1f294 OP_CHECKSIG",
            "desc": "pk(04ca5c92992e00f3390c7afcd804fe77e36fc8ef707e881827e8704dfa1371c9d88f4c26b03ddd335e249d09403cd69c35246e45dc1ac7631cfcb2e84078b1f294)#wslt6x7g",
            "hex": "4104ca5c92992e00f3390c7afcd804fe77e36fc8ef707e881827e8704dfa1371c9d88f4c26b03ddd335e249d09403cd69c35246e45dc1ac7631cfcb2e84078b1f294ac",
            "type": "pubkey"
          }
        }
      ],
      "hex": "01000000010000000000000000000000000000000000000000000000000000000000000000ffffffff0804ffff001d02ac04ffffffff0100f2052a01000000434104ca5c92992e00f3390c7afcd804fe77e36fc8ef707e881827e8704dfa1371c9d88f4c26b03ddd335e249d09403cd69c35246e45dc1ac7631cfcb2e84078b1f294ac00000000"
    }
  ]
}