{
  "hash": "00000000b889b91e5a6c043366f29e31e9e9cf64b4e771dd4cab87562c2306d8",
  "confirmations": 47114,
  "height": 5984,
  "version": 1,
  "versionHex": "00000001",
  "merkleroot": "936e01245f8d72fbf72a7de45dd1e72c1691954f5fb3e8a6acdde11d537ff5fa",
  "time": 1235915612,
  "mediantime": 1235910696,
  "nonce": 2703071524,
  "bits": "1d00ffff",
  "difficulty": 1,
  "chainwork": "0000000000000000000000000000000000000000000000000000176117611761",
  "nTx": 1,
  "previousblockhash": "0000000007a3d4e82bab6dd5c48f6be01b0b80ac5134a3d87629a6fc26c48dbc",
  "nextblockhash": "00000000009b4b024ee5b5a011fa3a8c1d6d2155eb1822d2d3673f28160c943d",
  "strippedsize": 216,
  "size": 216,
  "weight": 864,
  "tx": [
    {
      "txid": "936e01245f8d72fbf72a7de45dd1e72c1691954f5fb3e8a6acdde11d537ff5fa",
      "hash": "936e01245f8d72fbf72a7de45dd1e72c1691954f5fb3e8a6acdde11d537ff5fa",
      "version": 1,
      "size": 135,
      "vsize": 135,
      "weight": 540,
      "locktime": 0,
      "vin": [
        {
          "coinbase": "04ffff001d029b04",
          "sequence": 4294967295
        }
      ],
      "vout": [
        {
          "value": 50.0,
          "n": 0,
          "scriptPubKey": {
            "asm": "047b6c28d4399e678189c1dfba07f94e275f45f229e559288ecd7851ba45894318f89766221b84a43691c417446a237a9277eff20ca8365dc565ad5ffb29aab576 OP_CHECKSIG",
            "desc": "pk(047b6c28d4399e678189c1dfba07f94e275f45f229e559288ecd7851ba45894318f89766221b84a43691c417446a237a9277eff20ca8365dc565ad5ffb29aab576)#2j0gjgzu",
            "hex": "41047b6c28d4399e678189c1dfba07f94e275f45f229e559288ecd7851ba45894318f89766221b84a43691c417446a237a9277eff20ca8365dc565ad5ffb29aab576ac",
            "type": "pubkey"
          }
        }
      ],
      "hex": "01000000010000000000000000000000000000000000000000000000000000000000000000ffffffff0804ffff001d029b04ffffffff0100f2052a010000004341047b6c28d4399e678189c1dfba07f94e275f45f229e559288ecd7851ba45894318f89766221b84a43691c417446a237a9277eff20ca8365dc565ad5ffb29aab576ac00000000"
    }
  ]
}