{
  "hash": "0000000066f9e170c5e8c33be66566562e044aba689af05a853c8784d2876823",
  "confirmations": 44371,
  "height": 8727,
  "version": 1,
  "versionHex": "00000001",
  "merkleroot": "6ea107e8ca920b185ebd6870cf619ef82d49dfe94679fcf28abb8ac375f00acd",
  "time": 1238040875,
  "mediantime": 1238038021,
  "nonce": 141881841,
  "bits": "1d00ffff",
  "difficulty": 1,
  "chainwork": "0000000000000000000000000000000000000000000000000000221822182218",
  "nTx": 1,
  "previousblockhash": "000000001c3bfddc96a2e9e6e1854f40da42b3fe9b512d2bd92c487e583f291f",
  "nextblockhash": "00000000f7ca78dbae424e00b972afc986664b99ca163ce0738dd5f7af71e9dc",
  "strippedsize": 216,
  "size": 216,
  "weight": 864,
  "tx": [
    {
      "txid": "6ea107e8ca920b185ebd6870cf619ef82d49dfe94679fcf28abb8ac375f00acd",
      "hash": "6ea107e8ca920b185ebd6870cf619ef82d49dfe94679fcf28abb8ac375f00acd",
      "version": 1,
      "size": 135,
      "vsize": 135,
      "weight": 540,
      "locktime": 0,
      "vin": [
        {
          "coinbase": "04ffff001d02db02",
          "sequence": 4294967295
        }
      ],
      "vout": [
        {
          "value": 50.0,
          "n": 0,
          "scriptPubKey": {
            "asm": "04cba4ec814d2a69bfe92826eedaf1d6d119422e54e979992d377493f4f489e3080ce9bf37e23b9f2a32ba72b8da370ee6f828323c44c8c1b9f05ac67d35c88884 OP_CHECKSIG",
            "desc": "pk(04cba4ec814d2a69bfe92826eedaf1d6d119422e54e979992d377493f4f489e3080ce9bf37e23b9f2a32ba72b8da370ee6f828323c44c8c1b9f05ac67d35c88884)#zfe4rx68",
            "hex": "4104cba4ec814d2a69bfe92826eedaf1d6d119422e54e979992d377493f4f489e3080ce9bf37e23b9f2a32ba72b8da370ee6f828323c44c8c1b9f05ac67d35c88884ac",
            "type": "pubkey"
          }
        }
      ],
      "hex": "01000000010000000000000000000000000000000000000000000000000000000000000000ffffffff0804ffff001d02db02ffffffff0100f2052a01000000434104cba4ec814d2a69bfe92826eedaf1d6d119422e54e979992d377493f4f489e3080ce9bf37e23b9f2a32ba72b8da370ee6f828323c44c8c1b9f05ac67d35c88884ac00000000"
    }
  ]
}