{
  "hash": "000000007dcb08390ceb41de84f0d2afdbbdb073158860d1b07b869817817bdd",
  "confirmations": 45299,
  "height": 7799,
  "version": 1,
  "versionHex": "00000001",
  "merkleroot": "3bf00e7cd2d23bf9c4777dede811605ac4c646ae4f83dad2b804ac2080bd5692",
  "time": 1237313260,
  "mediantime": 1237309062,
  "nonce": 2480394753,
  "bits": "1d00ffff",
  "difficulty": 1,
  "chainwork": "00000000000000000000000000000000000000000000000000001e781e781e78",
  "nTx": 1,
  "previousblockhash": "00000000a96bdf4e502b7d85a83d49210c87c078b6660db63223c18b80ed1e01",
  "nextblockhash": "00000000380462e5918211a1534e199b6585c139d2bf7ca7cd38b60e650e4600",
  "strippedsize": 216,
  "size": 216,
  "weight": 864,
  "tx": [
    {
      "txid": "3bf00e7cd2d23bf9c4777dede811605ac4c646ae4f83dad2b804ac2080bd5692",
      "hash": "3bf00e7cd2d23bf9c4777dede811605ac4c646ae4f83dad2b804ac2080bd5692",
      "version": 1,
      "size": 135,
      "vsize": 135,
      "weight": 540,
      "locktime": 0,
      "vin": [
        {
          "coinbase": "04ffff001d02e105",
          "sequence": 4294967295
        }
      ],
      "vout": [
        {
          "value": 50.0,
          "n": 0,
          "scriptPubKey": {
            "asm": "041b0ed527266097e0e612ce0860336b65f0be8020d5f71538b78a2bf39f715a9f4dec554d278ce390181f5ac0d655365a849aa1544464d97799cf41641036efd0 OP_CHECKSIG",
            "desc": "pk(041b0ed527266097e0e612ce0860336b65f0be8020d5f71538b78a2bf39f715a9f4dec554d278ce390181f5ac0d655365a849aa1544464d97799cf41641036efd0)#ehuy854j",
            "hex": "41041b0ed527266097e0e612ce0860336b65f0be8020d5f71538b78a2bf39f715a9f4dec554d278ce390181f5ac0d655365a849aa1544464d97799cf41641036efd0ac",
            "type": "pubkey"
          }
        }
      ],
      "hex": "01000000010000000000000000000000000000000000000000000000000000000000000000ffffffff0804ffff001d02e105ffffffff0100f2052a010000004341041b0ed527266097e0e612ce0860336b65f0be8020d5f71538b78a2bf39f715a9f4dec554d278ce390181f5ac0d655365a849aa1544464d97799cf41641036efd0ac00000000"
    }
  ]
}