{
  "hash": "00000000c0a9a3069cb1445b36f1afad1e491688aeeb15eebff44e8b0529a6f8",
  "confirmations": 50443,
  "height": 2655,
  "version": 1,
  "versionHex": "00000001",
  "merkleroot": "3fe0ecca2fab16d130e2f980575d35a9ecf8a1a7bd413bea299ac8ba7118447d",
  "time": 1233531399,
  "mediantime": 1233528344,
  "nonce": 2156114946,
  "bits": "1d00ffff",
  "difficulty": 1,
  "chainwork": "00000000000000000000000000000000000000000000000000000a600a600a60",
  "nTx": 1,
  "previousblockhash": "0000000072a7160a7f11dfa4e1906f44fbd4cd11527a8d4553a77022808c3ce9",
  "nextblockhash": "0000000094e02a704fd219dcb50b118152fc188b53de29768653ed0becd460f6",
  "strippedsize": 216,
  "size": 216,
  "weight": 864,
  "tx": [
    {
      "txid": "3fe0ecca2fab16d130e2f980575d35a9ecf8a1a7bd413bea299ac8ba7118447d",
      "hash": "3fe0ecca2fab16d130e2f980575d35a9ecf8a1a7bd413bea299ac8ba7118447d",
      "version": 1,
      "size": 135,
      "vsize": 135,
      "weight": 540,
      "locktime": 0,
      "vin": [
        {
          "coinbase": "04ffff001d020c04",
          "sequence": 4294967295
        }
      ],
      "vout": [
        {
          "value": 50.0,
          "n": 0,
          "scriptPubKey": {
            "asm": "04f6800587a561586d78aeef9a884137e787c4b28dfeb753537b99e4ef7d6fe2ebd5b64e81ebe3ba8287a0760b9550c35f7e37035daa473fed204a7bcd28fa34bc OP_CHECKSIG",
            "desc": "pk(04f6800587a561586d78aeef9a884137e787c4b28dfeb753537b99e4ef7d6fe2ebd5b64e81ebe3ba8287a0760b9550c35f7e37035daa473fed204a7bcd28fa34bc)#fezxuah0",
            "hex": "4104f6800587a561586d78aeef9a884137e787c4b28dfeb753537b99e4ef7d6fe2ebd5b64e81ebe3ba8287a0760b9550c35f7e37035daa473fed204a7bcd28fa34bcac",
            "type": "pubkey"
          }
        }
      ],
      "hex": "01000000010000000000000000000000000000000000000000000000000000000000000000ffffffff0804ffff001d020c04ffffffff0100f2052a01000000434104f6800587a561586d78aeef9a884137e787c4b28dfeb753537b99e4ef7d6fe2ebd5b64e81ebe3ba8287a0760b9550c35f7e37035daa473fed204a7bcd28fa34bcac00000000"
    }
  ]
}