{
  "hash": "000000006eb930c17bd898fa602fe8e76a3084456baffad70199c3997d32ca2e",
  "confirmations": 52173,
  "height": 925,
  "version": 1,
  "versionHex": "00000001",
  "merkleroot": "4c332bbef46df9b9a0bb8119d5e5aec7af836e7f3c9e920b0564c12bb3614cbc",
  "time": 1232295430,
  "mediantime": 1232291413,
  "nonce": 263143994,
  "bits": "1d00ffff",
  "difficulty": 1,
  "chainwork": "0000000000000000000000000000000000000000000000000000039e039e039e",
  "nTx": 1,
  "previousblockhash": "000000009b1a5822fee94f2f3dbf32b404169d88d9afb5e9b6735070a3a00d86",
  "nextblockhash": "000000007da822264487e89357fb3be68ceac179430d9cbda4c24358b681c175",
  "strippedsize": 216,
  "size": 216,
  "weight": 864,
  "tx": [
    {
      "txid": "4c332bbef46df9b9a0bb8119d5e5aec7af836e7f3c9e920b0564c12bb3614cbc",
      "hash": "4c332bbef46df9b9a0bb8119d5e5aec7af836e7f3c9e920b0564c12bb3614cbc",
      "version": 1,
      "size": 135,
      "vsize": 135,
      "weight": 540,
      "locktime": 0,
      "vin": [
        {
          "coinbase": "04ffff001d020004",
          "sequence": 4294967295
        }
      ],
      "vout": [
        {
          "value": 50.0,
          "n": 0,
          "scriptPubKey": {
            "asm": "04cc1f2272c3ac046e5c43e3a5a2fc433abc8735d97076f533edbc3e6d25f50105d0fc9bf29623e698a5a106ce98e734a4112a6911e5d687992f17147d1a69798c OP_CHECKSIG",
            "desc": "pk(04cc1f2272c3ac046e5c43e3a5a2fc433abc8735d97076f533edbc3e6d25f50105d0fc9bf29623e698a5a106ce98e734a4112a6911e5d687992f17147d1a69798c)#vzq947s8",
            "hex": "4104cc1f2272c3ac046e5c43e3a5a2fc433abc8735d97076f533edbc3e6d25f50105d0fc9bf29623e698a5a106ce98e734a4112a6911e5d687992f17147d1a69798cac",
            "type": "pubkey"
          }
        }
      ],
      "hex": "01000000010000000000000000000000000000000000000000000000000000000000000000ffffffff0804ffff001d020004ffffffff0100f2052a01000000434104cc1f2272c3ac046e5c43e3a5a2fc433abc8735d97076f533edbc3e6d25f50105d0fc9bf29623e698a5a106ce98e734a4112a6911e5d687992f17147d1a69798cac00000000"
    }
  ]
}