{
  "hash": "00000000f791b7968f56df4d214cbd6089dbab8d475d5e85d118334060df0fca",
  "confirmations": 46335,
  "height": 6763,
  "version": 1,
  "versionHex": "00000001",
  "merkleroot": "fcc65a1ee00cd9611a3882c55d6a0075db5cfad60673010da64dcce58a2b47a6",
  "time": 1236531994,
  "mediantime": 1236526828,
  "nonce": 2594508069,
  "bits": "1d00ffff",
  "difficulty": 1,
  "chainwork": "00000000000000000000000000000000000000000000000000001a6c1a6c1a6c",
  "nTx": 1,
  "previousblockhash": "000000006d3205179f1c3cf5da9da2b503aedf20c0cefb7c91c0293ab61113b8",
  "nextblockhash": "000000008f0cff462388ae7ef7e93faea01fb6d8be13f1a5fcf823e067dd4777",
  "strippedsize": 216,
  "size": 216,
  "weight": 864,
  "tx": [
    {
      "txid": "fcc65a1ee00cd9611a3882c55d6a0075db5cfad60673010da64dcce58a2b47a6",
      "hash": "fcc65a1ee00cd9611a3882c55d6a0075db5cfad60673010da64dcce58a2b47a6",
      "version": 1,
      "size": 135,
      "vsize": 135,
      "weight": 540,
      "locktime": 0,
      "vin": [
        {
          "coinbase": "04ffff001d025108",
          "sequence": 4294967295
        }
      ],
      "vout": [
        {
          "value": 50.0,
          "n": 0,
          "scriptPubKey": {
            "asm": "04b1a470c0d1d500f91122c1f32154ac08632f904d4d38209db462c3a489da59a010b0b87f039683f937c2e6e569d97a936c7708dc83cfb7fdfead696f7476184a OP_CHECKSIG",
            "desc": "pk(04b1a470c0d1d500f91122c1f32154ac08632f904d4d38209db462c3a489da59a010b0b87f039683f937c2e6e569d97a936c7708dc83cfb7fdfead696f7476184a)#m07qfmvh",
            "hex": "4104b1a470c0d1d500f91122c1f32154ac08632f904d4d38209db462c3a489da59a010b0b87f039683f937c2e6e569d97a936c7708dc83cfb7fdfead696f7476184aac",
            "type": "pubkey"
          }
        }
      ],
      "hex": "01000000010000000000000000000000000000000000000000000000000000000000000000ffffffff0804ffff001d025108ffffffff0100f2052a01000000434104b1a470c0d1d500f91122c1f32154ac08632f904d4d38209db462c3a489da59a010b0b87f039683f937c2e6e569d97a936c7708dc83cfb7fdfead696f7476184aac00000000"
    }
  ]
}