{
  "hash": "00000000cf99e30fc5ddc4854d4f51bbf8091fa774a28d80c48e70a3bf4c4854",
  "confirmations": 45858,
  "height": 7240,
  "version": 1,
  "versionHex": "00000001",
  "merkleroot": "6e0e751a5a3f4d66e85357b15fe9210615cca5111d588c16fbb075857c76d157",
  "time": 1236898533,
  "mediantime": 1236895515,
  "nonce": 2491203641,
  "bits": "1d00ffff",
  "difficulty": 1,
  "chainwork": "00000000000000000000000000000000000000000000000000001c491c491c49",
  "nTx": 1,
  "previousblockhash": "00000000b1ea7ccb6e077387e1ad2f74c14be3ec6e18df2e4bd5a8e499a68869",
  "nextblockhash": "00000000c3882d892a7c8a51e4069b096a645c82dabe7f48c8275faa5f369a2f",
  "strippedsize": 216,
  "size": 216,
  "weight": 864,
  "tx": [
    {
      "txid": "6e0e751a5a3f4d66e85357b15fe9210615cca5111d588c16fbb075857c76d157",
      "hash": "6e0e751a5a3f4d66e85357b15fe9210615cca5111d588c16fbb075857c76d157",
      "version": 1,
      "size": 135,
      "vsize": 135,
      "weight": 540,
      "locktime": 0,
      "vin": [
        {
          "coinbase": "04ffff001d023e06",
          "sequence": 4294967295
        }
      ],
      "vout": [
        {
          "value": 50.0,
          "n": 0,
          "scriptPubKey": {
            "asm": "042427039a13152bf0844b85b45876fe41f8fb9f32ae2f297736a9a51d520e361b14a5b6a8285fb8b4f0f0195040e7d4683f998086806ba8b8cd2606db69180f0b OP_CHECKSIG",
            "desc": "pk(042427039a13152bf0844b85b45876fe41f8fb9f32ae2f297736a9a51d520e361b14a5b6a8285fb8b4f0f0195040e7d4683f998086806ba8b8cd2606db69180f0b)#lp6ezuuh",
            "hex": "41042427039a13152bf0844b85b45876fe41f8fb9f32ae2f297736a9a51d520e361b14a5b6a8285fb8b4f0f0195040e7d4683f998086806ba8b8cd2606db69180f0bac",
            "type": "pubkey"
          }
        }
      ],
      "hex": "01000000010000000000000000000000000000000000000000000000000000000000000000ffffffff0804ffff001d023e06ffffffff0100f2052a010000004341042427039a13152bf0844b85b45876fe41f8fb9f32ae2f297736a9a51d520e361b14a5b6a8285fb8b4f0f0195040e7d4683f998086806ba8b8cd2606db69180f0bac00000000"
    }
  ]
}