{
  "hash": "000000006e2cdfb59cc84c13fddbd10fa679b9e9b31e8f1d3a26d7352a24def9",
  "confirmations": 47650,
  "height": 5448,
  "version": 1,
  "versionHex": "00000001",
  "merkleroot": "860ca7c06f31f3bd2bfbca28e5bf0bf14ea1412971503d3297cec8386fddf846",
  "time": 1235481916,
  "mediantime": 1235476889,
  "nonce": 1836296213,
  "bits": "1d00ffff",
  "difficulty": 1,
  "chainwork": "0000000000000000000000000000000000000000000000000000154915491549",
  "nTx": 1,
  "previousblockhash": "000000007e76d84300c766bea55f3e03cfcb31778a0a254a25768ee515ad4e88",
  "nextblockhash": "00000000eaeca7cc08894da9fcee0099c1919b82ab34e85727c5d067ab49ca2e",
  "strippedsize": 216,
  "size": 216,
  "weight": 864,
  "tx": [
    {
      "txid": "860ca7c06f31f3bd2bfbca28e5bf0bf14ea1412971503d3297cec8386fddf846",
      "hash": "860ca7c06f31f3bd2bfbca28e5bf0bf14ea1412971503d3297cec8386fddf846",
      "version": 1,
      "size": 135,
      "vsize": 135,
      "weight": 540,
      "locktime": 0,
      "vin": [
        {
          "coinbase": "04ffff001d02a204",
          "sequence": 4294967295
        }
      ],
      "vout": [
        {
          "value": 50.0,
          "n": 0,
          "scriptPubKey": {
            "asm": "04eada302630ce70123a646a7e0575dce2048d6b186900a6d6e8570e052698ba907f6185fe24f553c41531fa7af4a0a539bfc50a0bf813257a3877081ff2f357a3 OP_CHECKSIG",
            "desc": "pk(04eada302630ce70123a646a7e0575dce2048d6b186900a6d6e8570e052698ba907f6185fe24f553c41531fa7af4a0a539bfc50a0bf813257a3877081ff2f357a3)#l9h78qjm",
            "hex": "4104eada302630ce70123a646a7e0575dce2048d6b186900a6d6e8570e052698ba907f6185fe24f553c41531fa7af4a0a539bfc50a0bf813257a3877081ff2f357a3ac",
            "type": "pubkey"
          }
        }
      ],
      "hex": "01000000010000000000000000000000000000000000000000000000000000000000000000ffffffff0804ffff001d02a204ffffffff0100f2052a01000000434104eada302630ce70123a646a7e0575dce2048d6b186900a6d6e8570e052698ba907f6185fe24f553c41531fa7af4a0a539bfc50a0bf813257a3877081ff2f357a3ac00000000"
    }
  ]
}