{
  "hash": "00000000515e2d36a0b202ecfe4c8d72750c47f8dff761272097ab2a8d6a24db",
  "confirmations": 51528,
  "height": 1570,
  "version": 1,
  "versionHex": "00000001",
  "merkleroot": "90fa28e5354a3b436e2f9482225034a2e9c41eaf2444ac26c85e80f14b391ee6",
  "time": 1232797921,
  "mediantime": 1232796353,
  "nonce": 570446359,
  "bits": "1d00ffff",
  "difficulty": 1,
  "chainwork": "0000000000000000000000000000000000000000000000000000062306230623",
  "nTx": 1,
  "previousblockhash": "00000000903d5d9237c26b3fec535f33683f0fe9be9900340515a0de2197aac5",
  "nextblockhash": "00000000250daf82bdfe1771f7fecc1f59a50ce35d4723b9a369243733e6b4ba",
  "strippedsize": 216,
  "size": 216,
  "weight": 864,
  "tx": [
    {
      "txid": "90fa28e5354a3b436e2f9482225034a2e9c41eaf2444ac26c85e80f14b391ee6",
      "hash": "90fa28e5354a3b436e2f9482225034a2e9c41eaf2444ac26c85e80f14b391ee6",
      "version": 1,
      "size": 135,
      "vsize": 135,
      "weight": 540,
      "locktime": 0,
      "vin": [
        {
          "coinbase": "04ffff001d02d201",
          "sequence": 4294967295
        }
      ],
      "vout": [
        {
          "value": 50.0,
          "n": 0,
          "scriptPubKey": {
            "asm": "0458d628b3e157eadf76039b0961a99909ea101a5492bb0210aedcc0e92ee9c669fc51b05cbe6a8f6fefc2a31d7c52299322ede745dd15e2506694408340b50162 OP_CHECKSIG",
            "desc": "pk(0458d628b3e157eadf76039b0961a99909ea101a5492bb0210aedcc0e92ee9c669fc51b05cbe6a8f6fefc2a31d7c52299322ede745dd15e2506694408340b50162)#7tdfxz9j",
            "hex": "410458d628b3e157eadf76039b0961a99909ea101a5492bb0210aedcc0e92ee9c669fc51b05cbe6a8f6fefc2a31d7c52299322ede745dd15e2506694408340b50162ac",
            "type": "pubkey"
          }
        }
      ],
      "hex": "01000000010000000000000000000000000000000000000000000000000000000000000000ffffffff0804ffff001d02d201ffffffff0100f2052a0100000043410458d628b3e157eadf76039b0961a99909ea101a5492bb0210aedcc0e92ee9c669fc51b05cbe6a8f6fefc2a31d7c52299322ede745dd15e2506694408340b50162ac00000000"
    }
  ]
}