{
  "hash": "00000000b5542facdffbc50fa60a7061610740257707991ef2f0e0402545e36f",
  "confirmations": 49495,
  "height": 3603,
  "version": 1,
  "versionHex": "00000001",
  "merkleroot": "ade74602b8e8f37bdb2242165a9cf0a77ebd3a2a8c4ed26f45062cd9a6349d71",
  "time": 1234174030,
  "mediantime": 1234171099,
  "nonce": 2038170417,
  "bits": "1d00ffff",
  "difficulty": 1,
  "chainwork": "00000000000000000000000000000000000000000000000000000e140e140e14",
  "nTx": 1,
  "previousblockhash": "000000000d300ed08e606437670d6cbf648ca74ae215e3171a2bfb62314648a9",
  "nextblockhash": "00000000183e1c9ac836aad5a5ee4013709ad415b6639ad1eff3f7db71dc0d66",
  "strippedsize": 216,
  "size": 216,
  "weight": 864,
  "tx": [
    {
      "txid": "ade74602b8e8f37bdb2242165a9cf0a77ebd3a2a8c4ed26f45062cd9a6349d71",
      "hash": "ade74602b8e8f37bdb2242165a9cf0a77ebd3a2a8c4ed26f45062cd9a6349d71",
      "version": 1,
      "size": 135,
      "vsize": 135,
      "weight": 540,
      "locktime": 0,
      "vin": [
        {
          "coinbase": "04ffff001d02b708",
          "sequence": 4294967295
        }
      ],
      "vout": [
        {
          "value": 50.0,
          "n": 0,
          "scriptPubKey": {
            "asm": "0407d0fc819dc894113eb4cdd9bbfc389c5fda73b3551dc276dc7e6cafa44d06031aad9a7753f3d902840e33bc82f1a911d03729faf4b622aeecf68270df50b316 OP_CHECKSIG",
            "desc": "pk(0407d0fc819dc894113eb4cdd9bbfc389c5fda73b3551dc276dc7e6cafa44d06031aad9a7753f3d902840e33bc82f1a911d03729faf4b622aeecf68270df50b316)#fk5xlm6e",
            "hex": "410407d0fc819dc894113eb4cdd9bbfc389c5fda73b3551dc276dc7e6cafa44d06031aad9a7753f3d902840e33bc82f1a911d03729faf4b622aeecf68270df50b316ac",
            "type": "pubkey"
          }
        }
      ],
      "hex": "01000000010000000000000000000000000000000000000000000000000000000000000000ffffffff0804ffff001d02b708ffffffff0100f2052a0100000043410407d0fc819dc894113eb4cdd9bbfc389c5fda73b3551dc276dc7e6cafa44d06031aad9a7753f3d902840e33bc82f1a911d03729faf4b622aeecf68270df50b316ac00000000"
    }
  ]
}