{
  "hash": "00000000f34b30fb06e1a3a9af5421f762f9ebde42b3e030927a1e3ab9e4bef6",
  "confirmations": 45374,
  "height": 7724,
  "version": 1,
  "versionHex": "00000001",
  "merkleroot": "8264bf7c3f2c98066eae411495154a0d99f3add24a5e819dec64b0dab22b3905",
  "time": 1237256036,
  "mediantime": 1237253459,
  "nonce": 11992595,
  "bits": "1d00ffff",
  "difficulty": 1,
  "chainwork": "00000000000000000000000000000000000000000000000000001e2d1e2d1e2d",
  "nTx": 1,
  "previousblockhash": "00000000d6d9b957b87e7bea266f78bd2f549f512eb315e25d084448044c2582",
  "nextblockhash": "00000000b67f02c870135e1295b98394f753bc4a3b11c2ff2d5647ec39735366",
  "strippedsize": 216,
  "size": 216,
  "weight": 864,
  "tx": [
    {
      "txid": "8264bf7c3f2c98066eae411495154a0d99f3add24a5e819dec64b0dab22b3905",
      "hash": "8264bf7c3f2c98066eae411495154a0d99f3add24a5e819dec64b0dab22b3905",
      "version": 1,
      "size": 135,
      "vsize": 135,
      "weight": 540,
      "locktime": 0,
      "vin": [
        {
          "coinbase": "04ffff001d02dd08",
          "sequence": 4294967295
        }
      ],
      "vout": [
        {
          "value": 50.0,
          "n": 0,
          "scriptPubKey": {
            "asm": "049d97a742048f5404e8903a3c951651efc0103cee85ee3cf108d848e57eb65d51fa09585f832a01b486b4b1a7287a9e522c4f71f7ad336d669dcc50291064425c OP_CHECKSIG",
            "desc": "pk(049d97a742048f5404e8903a3c951651efc0103cee85ee3cf108d848e57eb65d51fa09585f832a01b486b4b1a7287a9e522c4f71f7ad336d669dcc50291064425c)#203qqq9m",
            "hex": "41049d97a742048f5404e8903a3c951651efc0103cee85ee3cf108d848e57eb65d51fa09585f832a01b486b4b1a7287a9e522c4f71f7ad336d669dcc50291064425cac",
            "type": "pubkey"
          }
        }
      ],
      "hex": "01000000010000000000000000000000000000000000000000000000000000000000000000ffffffff0804ffff001d02dd08ffffffff0100f2052a010000004341049d97a742048f5404e8903a3c951651efc0103cee85ee3cf108d848e57eb65d51fa09585f832a01b486b4b1a7287a9e522c4f71f7ad336d669dcc50291064425cac00000000"
    }
  ]
}