{
  "hash": "00000000be3148cc4f4f92ffbead5508a50e85befeeadc63933fc55f2aeb8183",
  "confirmations": 45565,
  "height": 7533,
  "version": 1,
  "versionHex": "00000001",
  "merkleroot": "0738ece978ecdbfcfead45c54acf498de7e3c44aca97e3d8bfdeaac3a0fb80ed",
  "time": 1237124941,
  "mediantime": 1237119287,
  "nonce": 167610786,
  "bits": "1d00ffff",
  "difficulty": 1,
  "chainwork": "00000000000000000000000000000000000000000000000000001d6e1d6e1d6e",
  "nTx": 1,
  "previousblockhash": "00000000fbbf71a941e231a3f85b95ba4c06758f54fbcbd97c7ea37883d400d2",
  "nextblockhash": "00000000e72c58e764934572712f7313cd9482a79452ebb1293c4e6ca06b0304",
  "strippedsize": 216,
  "size": 216,
  "weight": 864,
  "tx": [
    {
      "txid": "0738ece978ecdbfcfead45c54acf498de7e3c44aca97e3d8bfdeaac3a0fb80ed",
      "hash": "0738ece978ecdbfcfead45c54acf498de7e3c44aca97e3d8bfdeaac3a0fb80ed",
      "version": 1,
      "size": 135,
      "vsize": 135,
      "weight": 540,
      "locktime": 0,
      "vin": [
        {
          "coinbase": "04ffff001d02d001",
          "sequence": 4294967295
        }
      ],
      "vout": [
        {
          "value": 50.0,
          "n": 0,
          "scriptPubKey": {
            "asm": "04911a27969def644ae1f1f184d41a409cf21b60279c3db051bac2ed75f7d5ece66847982547998dc9748923c15f53c5286469508c092e4c3b565415c6ce4caf1d OP_CHECKSIG",
            "desc": "pk(04911a27969def644ae1f1f184d41a409cf21b60279c3db051bac2ed75f7d5ece66847982547998dc9748923c15f53c5286469508c092e4c3b565415c6ce4caf1d)#t70607rp",
            "hex": "4104911a27969def644ae1f1f184d41a409cf21b60279c3db051bac2ed75f7d5ece66847982547998dc9748923c15f53c5286469508c092e4c3b565415c6ce4caf1dac",
            "type": "pubkey"
          }
        }
      ],
      "hex": "01000000010000000000000000000000000000000000000000000000000000000000000000ffffffff0804ffff001d02d001ffffffff0100f2052a01000000434104911a27969def644ae1f1f184d41a409cf21b60279c3db051bac2ed75f7d5ece66847982547998dc9748923c15f53c5286469508c092e4c3b565415c6ce4caf1dac00000000"
    }
  ]
}