{
  "hash": "00000000279454a36be308b8643fa0a0f9c7785b402efcf7ac42d165d402cc94",
  "confirmations": 52014,
  "height": 1084,
  "version": 1,
  "versionHex": "00000001",
  "merkleroot": "32be56d26589084d26c6688efb12b325e455f15cf90b7a43295378d28eeaef9a",
  "time": 1232411662,
  "mediantime": 1232408570,
  "nonce": 285767682,
  "bits": "1d00ffff",
  "difficulty": 1,
  "chainwork": "0000000000000000000000000000000000000000000000000000043d043d043d",
  "nTx": 1,
  "previousblockhash": "0000000080531d52d3c5d4b517a81ae1a10b958b93c0c17f10754da0c638e362",
  "nextblockhash": "000000005aad239f1a26ff4c7557d7412b6037b81e81f55de75b1d3347a73be4",
  "strippedsize": 216,
  "size": 216,
  "weight": 864,
  "tx": [
    {
      "txid": "32be56d26589084d26c6688efb12b325e455f15cf90b7a43295378d28eeaef9a",
      "hash": "32be56d26589084d26c6688efb12b325e455f15cf90b7a43295378d28eeaef9a",
      "version": 1,
      "size": 135,
      "vsize": 135,
      "weight": 540,
      "locktime": 0,
      "vin": [
        {
          "coinbase": "04ffff001d02c806",
          "sequence": 4294967295
        }
      ],
      "vout": [
        {
          "value": 50.0,
          "n": 0,
          "scriptPubKey": {
            "asm": "04719e351befb8cfdc2dcd219dedacb2b93830f2df34491547ffca34d92fa01c71e7902e8a5700039349a2abe025acda85e93b392968026734475416ef7f7ab97b OP_CHECKSIG",
            "desc": "pk(04719e351befb8cfdc2dcd219dedacb2b93830f2df34491547ffca34d92fa01c71e7902e8a5700039349a2abe025acda85e93b392968026734475416ef7f7ab97b)#m3yqjlz8",
            "hex": "4104719e351befb8cfdc2dcd219dedacb2b93830f2df34491547ffca34d92fa01c71e7902e8a5700039349a2abe025acda85e93b392968026734475416ef7f7ab97bac",
            "type": "pubkey"
          }
        }
      ],
      "hex": "01000000010000000000000000000000000000000000000000000000000000000000000000ffffffff0804ffff001d02c806ffffffff0100f2052a01000000434104719e351befb8cfdc2dcd219dedacb2b93830f2df34491547ffca34d92fa01c71e7902e8a5700039349a2abe025acda85e93b392968026734475416ef7f7ab97bac00000000"
    }
  ]
}