{
  "hash": "0000000018920212d4d4dcddb6e24f37d23b35a0078d270227c83051bb350049",
  "confirmations": 47213,
  "height": 5885,
  "version": 1,
  "versionHex": "00000001",
  "merkleroot": "1857b83776aea3ef26f00ed19a50c083b1d369be01b805d50255bef34814928f",
  "time": 1235832520,
  "mediantime": 1235828355,
  "nonce": 1404506670,
  "bits": "1d00ffff",
  "difficulty": 1,
  "chainwork": "000000000000000000000000000000000000000000000000000016fe16fe16fe",
  "nTx": 1,
  "previousblockhash": "00000000812963426223eeaf85f9a79511f363a529c822095fa77d3b48cec829",
  "nextblockhash": "00000000678d8ee647ae8c11ff55ea54458aa0905b2ce7b7303248473f58216b",
  "strippedsize": 216,
  "size": 216,
  "weight": 864,
  "tx": [
    {
      "txid": "1857b83776aea3ef26f00ed19a50c083b1d369be01b805d50255bef34814928f",
      "hash": "1857b83776aea3ef26f00ed19a50c083b1d369be01b805d50255bef34814928f",
      "version": 1,
      "size": 135,
      "vsize": 135,
      "weight": 540,
      "locktime": 0,
      "vin": [
        {
          "coinbase": "04ffff001d02b802",
          "sequence": 4294967295
        }
      ],
      "vout": [
        {
          "value": 50.0,
          "n": 0,
          "scriptPubKey": {
            "asm": "04e27c0d554af17c149be33433234fb9b62827acaa2c2d180f15683a092b70d4d0bd620cf127d9da465d8d8061aa38d6a604fa2b5735edf903d384cc372fb6f569 OP_CHECKSIG",
            "desc": "pk(04e27c0d554af17c149be33433234fb9b62827acaa2c2d180f15683a092b70d4d0bd620cf127d9da465d8d8061aa38d6a604fa2b5735edf903d384cc372fb6f569)#ue9eu4hr",
            "hex": "4104e27c0d554af17c149be33433234fb9b62827acaa2c2d180f15683a092b70d4d0bd620cf127d9da465d8d8061aa38d6a604fa2b5735edf903d384cc372fb6f569ac",
            "type": "pubkey"
          }
        }
      ],
      "hex": "01000000010000000000000000000000000000000000000000000000000000000000000000ffffffff0804ffff001d02b802ffffffff0100f2052a01000000434104e27c0d554af17c149be33433234fb9b62827acaa2c2d180f15683a092b70d4d0bd620cf127d9da465d8d8061aa38d6a604fa2b5735edf903d384cc372fb6f569ac00000000"
    }
  ]
}