{
  "hash": "00000000e2468860edf9b2d10dd231c4e02ef10e6b5deb4585f273b16046e293",
  "confirmations": 46803,
  "height": 6295,
  "version": 1,
  "versionHex": "00000001",
  "merkleroot": "03e04e69642fc44e96a9fd557288d3888ac1f79abdb190a9cf086165e3540b1b",
  "time": 1236169278,
  "mediantime": 1236162323,
  "nonce": 199416107,
  "bits": "1d00ffff",
  "difficulty": 1,
  "chainwork": "0000000000000000000000000000000000000000000000000000189818981898",
  "nTx": 1,
  "previousblockhash": "000000002b68408d0d116d315169faf670018b1eac25aea8442ae943de9482a4",
  "nextblockhash": "000000004dc7e0fd5f7b7e694df8a2ada39f5263b0facdb37c5d6027eca50ef3",
  "strippedsize": 215,
  "size": 215,
  "weight": 860,
  "tx": [
    {
      "txid": "03e04e69642fc44e96a9fd557288d3888ac1f79abdb190a9cf086165e3540b1b",
      "hash": "03e04e69642fc44e96a9fd557288d3888ac1f79abdb190a9cf086165e3540b1b",
      "version": 1,
      "size": 134,
      "vsize": 134,
      "weight": 536,
      "locktime": 0,
      "vin": [
        {
          "coinbase": "04ffff001d010a",
          "sequence": 4294967295
        }
      ],
      "vout": [
        {
          "value": 50.0,
          "n": 0,
          "scriptPubKey": {
            "asm": "0416fbd529af852c954f592c64b7ecd3671a59b5f733e9231c58857caf471cb4d136c702c18f6fd60f93c3573d154101e155d0eaa82afb4b00acdc24416643db72 OP_CHECKSIG",
            "desc": "pk(0416fbd529af852c954f592c64b7ecd3671a59b5f733e9231c58857caf471cb4d136c702c18f6fd60f93c3573d154101e155d0eaa82afb4b00acdc24416643db72)#jupwd9j0",
            "hex": "410416fbd529af852c954f592c64b7ecd3671a59b5f733e9231c58857caf471cb4d136c702c18f6fd60f93c3573d154101e155d0eaa82afb4b00acdc24416643db72ac",
            "type": "pubkey"
          }
        }
      ],
      "hex": "01000000010000000000000000000000000000000000000000000000000000000000000000ffffffff0704ffff001d010affffffff0100f2052a0100000043410416fbd529af852c954f592c64b7ecd3671a59b5f733e9231c58857caf471cb4d136c702c18f6fd60f93c3573d154101e155d0eaa82afb4b00acdc24416643db72ac00000000"
    }
  ]
}