{
  "hash": "00000000e0d9aafea15349436e44e9d256531d1db3d99d78b7c15c8655085d19",
  "confirmations": 46551,
  "height": 6547,
  "version": 1,
  "versionHex": "00000001",
  "merkleroot": "0b2260c054133f17aa70e348421abe335ba692b33f6372c70cde6ee3ab837acb",
  "time": 1236363377,
  "mediantime": 1236360057,
  "nonce": 2160990245,
  "bits": "1d00ffff",
  "difficulty": 1,
  "chainwork": "0000000000000000000000000000000000000000000000000000199419941994",
  "nTx": 1,
  "previousblockhash": "0000000042ec50926bc6e547e89a2bcc339fa4104a321437dbb79d58cbe19da8",
  "nextblockhash": "0000000086f96f6089236b0f59b2964df110455539f79e1354e537125ef24f11",
  "strippedsize": 216,
  "size": 216,
  "weight": 864,
  "tx": [
    {
      "txid": "0b2260c054133f17aa70e348421abe335ba692b33f6372c70cde6ee3ab837acb",
      "hash": "0b2260c054133f17aa70e348421abe335ba692b33f6372c70cde6ee3ab837acb",
      "version": 1,
      "size": 135,
      "vsize": 135,
      "weight": 540,
      "locktime": 0,
      "vin": [
        {
          "coinbase": "04ffff001d024c04",
          "sequence": 4294967295
        }
      ],
      "vout": [
        {
          "value": 50.0,
          "n": 0,
          "scriptPubKey": {
            "asm": "04062677f8473a9c78cb971d89753ce31963c9ca7e97fa9d6392443ce20a9e268649239382ef862a5d46a17c27d81965f7fabdc9988985e1773a7ffe1b66b80e9d OP_CHECKSIG",
            "desc": "pk(04062677f8473a9c78cb971d89753ce31963c9ca7e97fa9d6392443ce20a9e268649239382ef862a5d46a17c27d81965f7fabdc9988985e1773a7ffe1b66b80e9d)#cw95fexh",
            "hex": "4104062677f8473a9c78cb971d89753ce31963c9ca7e97fa9d6392443ce20a9e268649239382ef862a5d46a17c27d81965f7fabdc9988985e1773a7ffe1b66b80e9dac",
            "type": "pubkey"
          }
        }
      ],
      "hex": "01000000010000000000000000000000000000000000000000000000000000000000000000ffffffff0804ffff001d024c04ffffffff0100f2052a01000000434104062677f8473a9c78cb971d89753ce31963c9ca7e97fa9d6392443ce20a9e268649239382ef862a5d46a17c27d81965f7fabdc9988985e1773a7ffe1b66b80e9dac00000000"
    }
  ]
}