{
  "hash": "0000000046438b8d5beb6c9efc503dfec538927d2584d2447538276e687a5283",
  "confirmations": 51878,
  "height": 55,
  "version": 1,
  "versionHex": "00000001",
  "merkleroot": "19521c62482ac299b37c8ae4eab67abd150e3c21dc66b7e2b0919444769ee2ed",
  "time": 1231618509,
  "mediantime": 1231614698,
  "nonce": 3277292827,
  "bits": "1d00ffff",
  "difficulty": 1,
  "chainwork": "0000000000000000000000000000000000000000000000000000003800380038",
  "nTx": 1,
  "previousblockhash": "000000004ee00fc37a68592cf22415b37e6618227249fe308d0703cca1dd745b",
  "nextblockhash": "00000000f093cf2c5865f2bb851d5fa65ff1794b02fea4b0d90ff451e6e5d1c0",
  "strippedsize": 215,
  "size": 215,
  "weight": 860,
  "tx": [
    {
      "txid": "19521c62482ac299b37c8ae4eab67abd150e3c21dc66b7e2b0919444769ee2ed",
      "hash": "19521c62482ac299b37c8ae4eab67abd150e3c21dc66b7e2b0919444769ee2ed",
      "version": 1,
      "size": 134,
      "vsize": 134,
      "weight": 536,
      "locktime": 0,
      "vin": [
        {
          "coinbase": "04ffff001d0173",
          "sequence": 4294967295
        }
      ],
      "vout": [
        {
          "value": 50.0,
          "n": 0,
          "scriptPubKey": {
            "asm": "04ea258025b3a5fa9352ab84951c1141affb5d7e0364ab18ed65d7f970b9af1cd7f9550cb69a016480d825e4e112ba9f16c717ec3a421c02155de4425a2066d208 OP_CHECKSIG",
            "desc": "pk(04ea258025b3a5fa9352ab84951c1141affb5d7e0364ab18ed65d7f970b9af1cd7f9550cb69a016480d825e4e112ba9f16c717ec3a421c02155de4425a2066d208)#z4wxxqaz",
            "hex": "4104ea258025b3a5fa9352ab84951c1141affb5d7e0364ab18ed65d7f970b9af1cd7f9550cb69a016480d825e4e112ba9f16c717ec3a421c02155de4425a2066d208ac",
            "type": "pubkey"
          }
        }
      ],
      "hex": "01000000010000000000000000000000000000000000000000000000000000000000000000ffffffff0704ffff001d0173ffffffff0100f2052a01000000434104ea258025b3a5fa9352ab84951c1141affb5d7e0364ab18ed65d7f970b9af1cd7f9550cb69a016480d825e4e112ba9f16c717ec3a421c02155de4425a2066d208ac00000000"
    }
  ]
}