{
  "hash": "000000005dee8df90bc9e65889739718ba4a62ee30aedf034d50404823a440e7",
  "confirmations": 50612,
  "height": 2486,
  "version": 1,
  "versionHex": "00000001",
  "merkleroot": "93a301a7a4d560c2640f3f635c4f8779abd045e5f908c761e5254de0030891b7",
  "time": 1233413882,
  "mediantime": 1233411180,
  "nonce": 47609538,
  "bits": "1d00ffff",
  "difficulty": 1,
  "chainwork": "000000000000000000000000000000000000000000000000000009b709b709b7",
  "nTx": 1,
  "previousblockhash": "00000000500be0568fa9e2b97d88cdbe728f68c51228350bd4ee6deb10d563c1",
  "nextblockhash": "00000000bd6fa884554428530dd33f1a9aa593554cadda89f4cf8264e50ba3c9",
  "strippedsize": 216,
  "size": 216,
  "weight": 864,
  "tx": [
    {
      "txid": "93a301a7a4d560c2640f3f635c4f8779abd045e5f908c761e5254de0030891b7",
      "hash": "93a301a7a4d560c2640f3f635c4f8779abd045e5f908c761e5254de0030891b7",
      "version": 1,
      "size": 135,
      "vsize": 135,
      "weight": 540,
      "locktime": 0,
      "vin": [
        {
          "coinbase": "04ffff001d024e01",
          "sequence": 4294967295
        }
      ],
      "vout": [
        {
          "value": 50.0,
          "n": 0,
          "scriptPubKey": {
            "asm": "04c59f7a049e8a2e2703028f802a47c55c687477801fe7b6fa81771bb0118398b904eb0623ab765d5720dec0ad92545a267153dee76044847cf4e7a7d8ef91b29c OP_CHECKSIG",
            "desc": "pk(04c59f7a049e8a2e2703028f802a47c55c687477801fe7b6fa81771bb0118398b904eb0623ab765d5720dec0ad92545a267153dee76044847cf4e7a7d8ef91b29c)#0zvgxpsc",
            "hex": "4104c59f7a049e8a2e2703028f802a47c55c687477801fe7b6fa81771bb0118398b904eb0623ab765d5720dec0ad92545a267153dee76044847cf4e7a7d8ef91b29cac",
            "type": "pubkey"
          }
        }
      ],
      "hex": "01000000010000000000000000000000000000000000000000000000000000000000000000ffffffff0804ffff001d024e01ffffffff0100f2052a01000000434104c59f7a049e8a2e2703028f802a47c55c687477801fe7b6fa81771bb0118398b904eb0623ab765d5720dec0ad92545a267153dee76044847cf4e7a7d8ef91b29cac00000000"
    }
  ]
}