{
  "hash": "0000000040b8a0289483f4e6efb6cf3660d244566d0ca6cd0ea4da5d332f1bff",
  "confirmations": 43431,
  "height": 9667,
  "version": 1,
  "versionHex": "00000001",
  "merkleroot": "ff5d59b2c009edaaff2e62c8d560dbb38c74be5414fb93ff8c7e4586634b222f",
  "time": 1238752208,
  "mediantime": 1238748219,
  "nonce": 2177876502,
  "bits": "1d00ffff",
  "difficulty": 1,
  "chainwork": "000000000000000000000000000000000000000000000000000025c425c425c4",
  "nTx": 1,
  "previousblockhash": "000000006e895e5f34b824521e4f712f3f3b5a035ea7c6467f110d427ca3e957",
  "nextblockhash": "0000000067bd9714807dede7f1dd893b220b10f4b367a0e5b7e96b1f3b82080a",
  "strippedsize": 216,
  "size": 216,
  "weight": 864,
  "tx": [
    {
      "txid": "ff5d59b2c009edaaff2e62c8d560dbb38c74be5414fb93ff8c7e4586634b222f",
      "hash": "ff5d59b2c009edaaff2e62c8d560dbb38c74be5414fb93ff8c7e4586634b222f",
      "version": 1,
      "size": 135,
      "vsize": 135,
      "weight": 540,
      "locktime": 0,
      "vin": [
        {
          "coinbase": "04ffff001d02dc07",
          "sequence": 4294967295
        }
      ],
      "vout": [
        {
          "value": 50.0,
          "n": 0,
          "scriptPubKey": {
            "asm": "040de7fd5ff4f2bc12dc5a1f34184c745c4daad2f2eec6b77f011e6465a8baf05fa7dbf277ad428c906d1f4e1b04466d5d6b5ab0209d98632ddd13da8d962f9ad1 OP_CHECKSIG",
            "desc": "pk(040de7fd5ff4f2bc12dc5a1f34184c745c4daad2f2eec6b77f011e6465a8baf05fa7dbf277ad428c906d1f4e1b04466d5d6b5ab0209d98632ddd13da8d962f9ad1)#n33cwwel",
            "hex": "41040de7fd5ff4f2bc12dc5a1f34184c745c4daad2f2eec6b77f011e6465a8baf05fa7dbf277ad428c906d1f4e1b04466d5d6b5ab0209d98632ddd13da8d962f9ad1ac",
            "type": "pubkey"
          }
        }
      ],
      "hex": "01000000010000000000000000000000000000000000000000000000000000000000000000ffffffff0804ffff001d02dc07ffffffff0100f2052a010000004341040de7fd5ff4f2bc12dc5a1f34184c745c4daad2f2eec6b77f011e6465a8baf05fa7dbf277ad428c906d1f4e1b04466d5d6b5ab0209d98632ddd13da8d962f9ad1ac00000000"
    }
  ]
}