{
  "hash": "00000000797b0ba8f3b9ba14fd1bf7f8d28b31e098516c6b2506d8aadd479ecc",
  "confirmations": 43903,
  "height": 9195,
  "version": 1,
  "versionHex": "00000001",
  "merkleroot": "9b36f9266a7839703288455e0d22e73e5301f33ea2d9a14703852a16dfef9082",
  "time": 1238396211,
  "mediantime": 1238393476,
  "nonce": 1985755175,
  "bits": "1d00ffff",
  "difficulty": 1,
  "chainwork": "000000000000000000000000000000000000000000000000000023ec23ec23ec",
  "nTx": 1,
  "previousblockhash": "00000000b321faa4f176f89f83955fa5ec84cb0ad1476e6bd076b106a9d29fba",
  "nextblockhash": "0000000070e3f1d88cbbcee507d5a04027904aa61118bcd2cabd91a0f059275c",
  "strippedsize": 216,
  "size": 216,
  "weight": 864,
  "tx": [
    {
      "txid": "9b36f9266a7839703288455e0d22e73e5301f33ea2d9a14703852a16dfef9082",
      "hash": "9b36f9266a7839703288455e0d22e73e5301f33ea2d9a14703852a16dfef9082",
      "version": 1,
      "size": 135,
      "vsize": 135,
      "weight": 540,
      "locktime": 0,
      "vin": [
        {
          "coinbase": "04ffff001d02220a",
          "sequence": 4294967295
        }
      ],
      "vout": [
        {
          "value": 50.0,
          "n": 0,
          "scriptPubKey": {
            "asm": "046da335de22d8be8af835e464dd85c517051c9920be8e902904ec19ca385a326198cacdd9a9aec5bffde7aca2194d17b6dbab568b3720883d6c3677f6303043d2 OP_CHECKSIG",
            "desc": "pk(046da335de22d8be8af835e464dd85c517051c9920be8e902904ec19ca385a326198cacdd9a9aec5bffde7aca2194d17b6dbab568b3720883d6c3677f6303043d2)#tfjh88at",
            "hex": "41046da335de22d8be8af835e464dd85c517051c9920be8e902904ec19ca385a326198cacdd9a9aec5bffde7aca2194d17b6dbab568b3720883d6c3677f6303043d2ac",
            "type": "pubkey"
          }
        }
      ],
      "hex": "01000000010000000000000000000000000000000000000000000000000000000000000000ffffffff0804ffff001d02220affffffff0100f2052a010000004341046da335de22d8be8af835e464dd85c517051c9920be8e902904ec19ca385a326198cacdd9a9aec5bffde7aca2194d17b6dbab568b3720883d6c3677f6303043d2ac00000000"
    }
  ]
}