{
  "hash": "000000000f5ec0f4106f0302f9302cad7da39c5bd7a1e0b88c411d730047be2a",
  "confirmations": 44053,
  "height": 9045,
  "version": 1,
  "versionHex": "00000001",
  "merkleroot": "66f51de91d565bb6e607f4e5f7241f40a6c1a6c777043b3769828ee55bc8d900",
  "time": 1238285073,
  "mediantime": 1238282396,
  "nonce": 24788004,
  "bits": "1d00ffff",
  "difficulty": 1,
  "chainwork": "0000000000000000000000000000000000000000000000000000235623562356",
  "nTx": 1,
  "previousblockhash": "000000001e8e2046288d542c5cc9ae27dbb6b4fefcb1efb658329654a74edc6c",
  "nextblockhash": "00000000a9f7951b94c788d7e5b96e1f606bae29cb7439b3b2f357411b2f7cd6",
  "strippedsize": 216,
  "size": 216,
  "weight": 864,
  "tx": [
    {
      "txid": "66f51de91d565bb6e607f4e5f7241f40a6c1a6c777043b3769828ee55bc8d900",
      "hash": "66f51de91d565bb6e607f4e5f7241f40a6c1a6c777043b3769828ee55bc8d900",
      "version": 1,
      "size": 135,
      "vsize": 135,
      "weight": 540,
      "locktime": 0,
      "vin": [
        {
          "coinbase": "04ffff001d021b04",
          "sequence": 4294967295
        }
      ],
      "vout": [
        {
          "value": 50.0,
          "n": 0,
          "scriptPubKey": {
            "asm": "04b83ca7c7468e13a031105230ad2a1d0edf819b9f4cd82d0d625e5436502d1f495715b0f4bf6e6820202485fed00b2e2fb04407ba003bf003bf38be02524168d5 OP_CHECKSIG",
            "desc": "pk(04b83ca7c7468e13a031105230ad2a1d0edf819b9f4cd82d0d625e5436502d1f495715b0f4bf6e6820202485fed00b2e2fb04407ba003bf003bf38be02524168d5)#kyl6cmz5",
            "hex": "4104b83ca7c7468e13a031105230ad2a1d0edf819b9f4cd82d0d625e5436502d1f495715b0f4bf6e6820202485fed00b2e2fb04407ba003bf003bf38be02524168d5ac",
            "type": "pubkey"
          }
        }
      ],
      "hex": "01000000010000000000000000000000000000000000000000000000000000000000000000ffffffff0804ffff001d021b04ffffffff0100f2052a01000000434104b83ca7c7468e13a031105230ad2a1d0edf819b9f4cd82d0d625e5436502d1f495715b0f4bf6e6820202485fed00b2e2fb04407ba003bf003bf38be02524168d5ac00000000"
    }
  ]
}