{
  "hash": "00000000faabb1739a9780e0e6f36f06f83724f28a8766f1a2c9120a4d5e8b47",
  "confirmations": 47438,
  "height": 5660,
  "version": 1,
  "versionHex": "00000001",
  "merkleroot": "0e3a158ac090af7a8eaf4cba66a0da54a59147c41c304a3906c9acd882385700",
  "time": 1235657709,
  "mediantime": 1235652423,
  "nonce": 999901462,
  "bits": "1d00ffff",
  "difficulty": 1,
  "chainwork": "0000000000000000000000000000000000000000000000000000161d161d161d",
  "nTx": 1,
  "previousblockhash": "00000000693d5ae1e426c5dd6a1582c60ce6f85d09884921d5fbbfca5f329632",
  "nextblockhash": "00000000acf2fb91966651ef64da2807f589a0f93c124a04ee8cba86e3220473",
  "strippedsize": 216,
  "size": 216,
  "weight": 864,
  "tx": [
    {
      "txid": "0e3a158ac090af7a8eaf4cba66a0da54a59147c41c304a3906c9acd882385700",
      "hash": "0e3a158ac090af7a8eaf4cba66a0da54a59147c41c304a3906c9acd882385700",
      "version": 1,
      "size": 135,
      "vsize": 135,
      "weight": 540,
      "locktime": 0,
      "vin": [
        {
          "coinbase": "04ffff001d02da08",
          "sequence": 4294967295
        }
      ],
      "vout": [
        {
          "value": 50.0,
          "n": 0,
          "scriptPubKey": {
            "asm": "04950124a07fc98503480c685d6340c6921cdd7ba7ca56c58b7c3ea2c8e415b5e7804cc40bb90c46ed925750bb75cb056b10e0ee95da3df1028767bbff25368559 OP_CHECKSIG",
            "desc": "pk(04950124a07fc98503480c685d6340c6921cdd7ba7ca56c58b7c3ea2c8e415b5e7804cc40bb90c46ed925750bb75cb056b10e0ee95da3df1028767bbff25368559)#shc0jstm",
            "hex": "4104950124a07fc98503480c685d6340c6921cdd7ba7ca56c58b7c3ea2c8e415b5e7804cc40bb90c46ed925750bb75cb056b10e0ee95da3df1028767bbff25368559ac",
            "type": "pubkey"
          }
        }
      ],
      "hex": "01000000010000000000000000000000000000000000000000000000000000000000000000ffffffff0804ffff001d02da08ffffffff0100f2052a01000000434104950124a07fc98503480c685d6340c6921cdd7ba7ca56c58b7c3ea2c8e415b5e7804cc40bb90c46ed925750bb75cb056b10e0ee95da3df1028767bbff25368559ac00000000"
    }
  ]
}