{
  "hash": "000000004fdc363a128276c9acbf4e4e9217a9a88852b6682d71a637d029c21f",
  "confirmations": 51039,
  "height": 2059,
  "version": 1,
  "versionHex": "00000001",
  "merkleroot": "b624666805920a692fca0e3dd7d6b88c3034a16c882ba8ee31d84fd429a1b045",
  "time": 1233104457,
  "mediantime": 1233099762,
  "nonce": 2532295979,
  "bits": "1d00ffff",
  "difficulty": 1,
  "chainwork": "0000000000000000000000000000000000000000000000000000080c080c080c",
  "nTx": 1,
  "previousblockhash": "00000000c5d078e6198193ec872d5400ce78257db3c4298f060344f86fe1fefa",
  "nextblockhash": "000000005a2d6394da35269c09425f59f4d76c5b486b2d6b617f30bbd4fb79dd",
  "strippedsize": 216,
  "size": 216,
  "weight": 864,
  "tx": [
    {
      "txid": "b624666805920a692fca0e3dd7d6b88c3034a16c882ba8ee31d84fd429a1b045",
      "hash": "b624666805920a692fca0e3dd7d6b88c3034a16c882ba8ee31d84fd429a1b045",
      "version": 1,
      "size": 135,
      "vsize": 135,
      "weight": 540,
      "locktime": 0,
      "vin": [
        {
          "coinbase": "04ffff001d02f702",
          "sequence": 4294967295
        }
      ],
      "vout": [
        {
          "value": 50.0,
          "n": 0,
          "scriptPubKey": {
            "asm": "04e641d9929700a685e01ec2f5967f0391f1cc5268a41ab1269c65be241a0266b6805f4bacdd4f3cc9b715c433865a70d8355754532a4e0533b8d8df480452faf4 OP_CHECKSIG",
            "desc": "pk(04e641d9929700a685e01ec2f5967f0391f1cc5268a41ab1269c65be241a0266b6805f4bacdd4f3cc9b715c433865a70d8355754532a4e0533b8d8df480452faf4)#4z75cw6s",
            "hex": "4104e641d9929700a685e01ec2f5967f0391f1cc5268a41ab1269c65be241a0266b6805f4bacdd4f3cc9b715c433865a70d8355754532a4e0533b8d8df480452faf4ac",
            "type": "pubkey"
          }
        }
      ],
      "hex": "01000000010000000000000000000000000000000000000000000000000000000000000000ffffffff0804ffff001d02f702ffffffff0100f2052a01000000434104e641d9929700a685e01ec2f5967f0391f1cc5268a41ab1269c65be241a0266b6805f4bacdd4f3cc9b715c433865a70d8355754532a4e0533b8d8df480452faf4ac00000000"
    }
  ]
}