{
  "hash": "0000000026cb5f5f1a5482e8a3fccd8328053f01d84765966b61c3b8468f9872",
  "confirmations": 44794,
  "height": 8304,
  "version": 1,
  "versionHex": "00000001",
  "merkleroot": "3561c138ff95c6177bb2803d92f265376d53afbefdeaca51c83108dd3e84d2e3",
  "time": 1237733245,
  "mediantime": 1237729841,
  "nonce": 1407381801,
  "bits": "1d00ffff",
  "difficulty": 1,
  "chainwork": "0000000000000000000000000000000000000000000000000000207120712071",
  "nTx": 1,
  "previousblockhash": "000000003a69e0aab7081522505c924d77e2df59c44c7d72bfd303ef3f159869",
  "nextblockhash": "000000008748157cc4a9d11adf210412878a20d64b4e2a4fb08bc252fbde2199",
  "strippedsize": 216,
  "size": 216,
  "weight": 864,
  "tx": [
    {
      "txid": "3561c138ff95c6177bb2803d92f265376d53afbefdeaca51c83108dd3e84d2e3",
      "hash": "3561c138ff95c6177bb2803d92f265376d53afbefdeaca51c83108dd3e84d2e3",
      "version": 1,
      "size": 135,
      "vsize": 135,
      "weight": 540,
      "locktime": 0,
      "vin": [
        {
          "coinbase": "04ffff001d023504",
          "sequence": 4294967295
        }
      ],
      "vout": [
        {
          "value": 50.0,
          "n": 0,
          "scriptPubKey": {
            "asm": "04368efcd8dcf4964fa39d11a65d01ddc21182bec4d98913b5ded5abd3d2426c191ba9bbf9314470792b993170a6f276fada1ad5a648e3d4953b340ac671028017 OP_CHECKSIG",
            "desc": "pk(04368efcd8dcf4964fa39d11a65d01ddc21182bec4d98913b5ded5abd3d2426c191ba9bbf9314470792b993170a6f276fada1ad5a648e3d4953b340ac671028017)#ch3l6yzd",
            "hex": "4104368efcd8dcf4964fa39d11a65d01ddc21182bec4d98913b5ded5abd3d2426c191ba9bbf9314470792b993170a6f276fada1ad5a648e3d4953b340ac671028017ac",
            "type": "pubkey"
          }
        }
      ],
      "hex": "01000000010000000000000000000000000000000000000000000000000000000000000000ffffffff0804ffff001d023504ffffffff0100f2052a01000000434104368efcd8dcf4964fa39d11a65d01ddc21182bec4d98913b5ded5abd3d2426c191ba9bbf9314470792b993170a6f276fada1ad5a648e3d4953b340ac671028017ac00000000"
    }
  ]
}