{
  "hash": "00000000bdc6a035a608cc5e03e7e35fd39d520eb1003b1a4c937ad30baafa94",
  "confirmations": 52112,
  "height": 986,
  "version": 1,
  "versionHex": "00000001",
  "merkleroot": "bb033d031a5072a0cdf023b7aef0d307c87ad3ecb0f2b0ca9d35b0c7589dd0d1",
  "time": 1232339501,
  "mediantime": 1232335733,
  "nonce": 13811166,
  "bits": "1d00ffff",
  "difficulty": 1,
  "chainwork": "000000000000000000000000000000000000000000000000000003db03db03db",
  "nTx": 1,
  "previousblockhash": "00000000b7c1c85a20a8912759dbf358891ac723c1bd74200107fe01278f7535",
  "nextblockhash": "0000000046e6482b90633bb69bf904b904ca955e275fbe93cbdd5c9dd78dd3f4",
  "strippedsize": 216,
  "size": 216,
  "weight": 864,
  "tx": [
    {
      "txid": "bb033d031a5072a0cdf023b7aef0d307c87ad3ecb0f2b0ca9d35b0c7589dd0d1",
      "hash": "bb033d031a5072a0cdf023b7aef0d307c87ad3ecb0f2b0ca9d35b0c7589dd0d1",
      "version": 1,
      "size": 135,
      "vsize": 135,
      "weight": 540,
      "locktime": 0,
      "vin": [
        {
          "coinbase": "04ffff001d02b000",
          "sequence": 4294967295
        }
      ],
      "vout": [
        {
          "value": 50.0,
          "n": 0,
          "scriptPubKey": {
            "asm": "04c99ff5cd053f151469ea2ca7a323d8502d8041c4d2bcee77d1c3293f168812eb58051cf66d31bbf70fd7b6399e1052b02e15526adc005f747c7486d08511bd33 OP_CHECKSIG",
            "desc": "pk(04c99ff5cd053f151469ea2ca7a323d8502d8041c4d2bcee77d1c3293f168812eb58051cf66d31bbf70fd7b6399e1052b02e15526adc005f747c7486d08511bd33)#8708savp",
            "hex": "4104c99ff5cd053f151469ea2ca7a323d8502d8041c4d2bcee77d1c3293f168812eb58051cf66d31bbf70fd7b6399e1052b02e15526adc005f747c7486d08511bd33ac",
            "type": "pubkey"
          }
        }
      ],
      "hex": "01000000010000000000000000000000000000000000000000000000000000000000000000ffffffff0804ffff001d02b000ffffffff0100f2052a01000000434104c99ff5cd053f151469ea2ca7a323d8502d8041c4d2bcee77d1c3293f168812eb58051cf66d31bbf70fd7b6399e1052b02e15526adc005f747c7486d08511bd33ac00000000"
    }
  ]
}