{
  "hash": "0000000077ef0a8af7749037a92165605c627cae835cf2d5cc1b4f81dd7756bd",
  "confirmations": 43644,
  "height": 9454,
  "version": 1,
  "versionHex": "00000001",
  "merkleroot": "efc2abfcbef5e36c87e5af2ee8aade6897c19c01e51520071f6050d237d2f478",
  "time": 1238595886,
  "mediantime": 1238591143,
  "nonce": 3897912122,
  "bits": "1d00ffff",
  "difficulty": 1,
  "chainwork": "000000000000000000000000000000000000000000000000000024ef24ef24ef",
  "nTx": 1,
  "previousblockhash": "0000000061b042eb33ee8cced80427818b74e69a7239c3291d452e993f008534",
  "nextblockhash": "000000003b0b946d5ec4398fe6a98126563aa0ac52b5cbd0bdf1397c6a3b38af",
  "strippedsize": 216,
  "size": 216,
  "weight": 864,
  "tx": [
    {
      "txid": "efc2abfcbef5e36c87e5af2ee8aade6897c19c01e51520071f6050d237d2f478",
      "hash": "efc2abfcbef5e36c87e5af2ee8aade6897c19c01e51520071f6050d237d2f478",
      "version": 1,
      "size": 135,
      "vsize": 135,
      "weight": 540,
      "locktime": 0,
      "vin": [
        {
          "coinbase": "04ffff001d02a504",
          "sequence": 4294967295
        }
      ],
      "vout": [
        {
          "value": 50.0,
          "n": 0,
          "scriptPubKey": {
            "asm": "04cf2ac4fd402ecf54059c59f40a8319a49d4114d4e497ce8d24e4e66ce3336fc464e9b7c66b80cb68256e554968787234068afcf44933703f4791832f2dd71595 OP_CHECKSIG",
            "desc": "pk(04cf2ac4fd402ecf54059c59f40a8319a49d4114d4e497ce8d24e4e66ce3336fc464e9b7c66b80cb68256e554968787234068afcf44933703f4791832f2dd71595)#tjkxsm3g",
            "hex": "4104cf2ac4fd402ecf54059c59f40a8319a49d4114d4e497ce8d24e4e66ce3336fc464e9b7c66b80cb68256e554968787234068afcf44933703f4791832f2dd71595ac",
            "type": "pubkey"
          }
        }
      ],
      "hex": "01000000010000000000000000000000000000000000000000000000000000000000000000ffffffff0804ffff001d02a504ffffffff0100f2052a01000000434104cf2ac4fd402ecf54059c59f40a8319a49d4114d4e497ce8d24e4e66ce3336fc464e9b7c66b80cb68256e554968787234068afcf44933703f4791832f2dd71595ac00000000"
    }
  ]
}