{
  "hash": "00000000fc5b3c76f27f810ee775e480ae7fd604fd196b2d8da4257fcd39f4f9",
  "confirmations": 52432,
  "height": 666,
  "version": 1,
  "versionHex": "00000001",
  "merkleroot": "a32363cff5c5663ee7625ec038d78fedd2060a25782f67d0608b9558dce43963",
  "time": 1232079036,
  "mediantime": 1232075360,
  "nonce": 146363053,
  "bits": "1d00ffff",
  "difficulty": 1,
  "chainwork": "0000000000000000000000000000000000000000000000000000029b029b029b",
  "nTx": 1,
  "previousblockhash": "000000008b3292ededf3a3a675c44bb2a2ac378878fad1c10cef4219f2d95100",
  "nextblockhash": "000000002c366a1d494cfe69187059aa125ba410b9779ac6dcda38d7e6711fbe",
  "strippedsize": 215,
  "size": 215,
  "weight": 860,
  "tx": [
    {
      "txid": "a32363cff5c5663ee7625ec038d78fedd2060a25782f67d0608b9558dce43963",
      "hash": "a32363cff5c5663ee7625ec038d78fedd2060a25782f67d0608b9558dce43963",
      "version": 1,
      "size": 134,
      "vsize": 134,
      "weight": 536,
      "locktime": 0,
      "vin": [
        {
          "coinbase": "04ffff001d012b",
          "sequence": 4294967295
        }
      ],
      "vout": [
        {
          "value": 50.0,
          "n": 0,
          "scriptPubKey": {
            "asm": "0488867e03051f2948aa6ad8f331cd095c9ae6ed2f8d5d605e8130de3480bd3cd1a790c6ccc97168d23ed4580055557fe046cc7e520937e4fd610122688d3066a9 OP_CHECKSIG",
            "desc": "pk(0488867e03051f2948aa6ad8f331cd095c9ae6ed2f8d5d605e8130de3480bd3cd1a790c6ccc97168d23ed4580055557fe046cc7e520937e4fd610122688d3066a9)#4xgfd5uq",
            "hex": "410488867e03051f2948aa6ad8f331cd095c9ae6ed2f8d5d605e8130de3480bd3cd1a790c6ccc97168d23ed4580055557fe046cc7e520937e4fd610122688d3066a9ac",
            "type": "pubkey"
          }
        }
      ],
      "hex": "01000000010000000000000000000000000000000000000000000000000000000000000000ffffffff0704ffff001d012bffffffff0100f2052a0100000043410488867e03051f2948aa6ad8f331cd095c9ae6ed2f8d5d605e8130de3480bd3cd1a790c6ccc97168d23ed4580055557fe046cc7e520937e4fd610122688d3066a9ac00000000"
    }
  ]
}