{
  "hash": "00000000f46e513f038baf6f2d9a95b2a28d8a6c985bcf24b9e07f0f63a29888",
  "confirmations": 52044,
  "height": 183,
  "version": 1,
  "versionHex": "00000001",
  "merkleroot": "df25983b51d84d40b4efcb5556cdd6d524ac2d21bca49037494e413ae0712529",
  "time": 1231742062,
  "mediantime": 1231737131,
  "nonce": 3235118355,
  "bits": "1d00ffff",
  "difficulty": 1,
  "chainwork": "000000000000000000000000000000000000000000000000000000b800b800b8",
  "nTx": 2,
  "previousblockhash": "0000000054487811fc4ff7a95be738aa5ad9320c394c482b27c0da28b227ad5d",
  "nextblockhash": "00000000ff862f4e3c760fee9666defe2ac0ff026171953558b14421840a2446",
  "strippedsize": 491,
  "size": 491,
  "weight": 1964,
  "tx": [
    {
      "txid": "b2e561eb278f5aba7a2c78d46422f496f4998003635cc65807e230407190a355",
      "hash": "b2e561eb278f5aba7a2c78d46422f496f4998003635cc65807e230407190a355",
      "version": 1,
      "size": 134,
      "vsize": 134,
      "weight": 536,
      "locktime": 0,
      "vin": [
        {
          "coinbase": "04ffff001d012a",
          "sequence": 4294967295
        }
      ],
      "vout": [
        {
          "value": 50.0,
          "n": 0,
          "scriptPubKey": {
            "asm": "041915d670aa55621ed1c438477c5da654344e10eecea90ede3a048103fc3cf4beccda70ddf71ce55a5083b7bade4319d159b44374234590e9296cbe08c67774b2 OP_CHECKSIG",
            "desc": "pk(041915d670aa55621ed1c438477c5da654344e10eecea90ede3a048103fc3cf4beccda70ddf71ce55a5083b7bade4319d159b44374234590e9296cbe08c67774b2)#tckgx0gl",
            "hex": "41041915d670aa55621ed1c438477c5da654344e10eecea90ede3a048103fc3cf4beccda70ddf71ce55a5083b7bade4319d159b44374234590e9296cbe08c67774b2ac",
            "type": "pubkey"
          }
        }
      ],
      "hex": "01000000010000000000000000000000000000000000000000000000000000000000000000ffffffff0704ffff001d012affffffff0100f2052a010000004341041915d670aa55621ed1c438477c5da654344e10eecea90ede3a048103fc3cf4beccda70ddf71ce55a5083b7bade4319d159b44374234590e9296cbe08c67774b2ac00000000"
    },
    {
      "txid": "12b5633bad1f9c167d523ad1aa1947b2732a865bf5414eab2f9e5ae5d5c191ba",
      "hash": "12b5633bad1f9c167d523ad1aa1947b2732a865bf5414eab2f9e5ae5d5c191ba",
      "version": 1,
      "size": 276,
      "vsize": 276,
      "weight": 1104,
      "locktime": 0,
      "vin": [
        {
          "txid": "591e91f809d716912ca1d4a9295e70c3e78bab077683f79350f101da64588073",
          "vout": 1,
          "scriptSig": {
            "asm": "3045022052ffc1929a2d8bd365c6a2a4e3421711b4b1e1b8781698ca9075807b4227abcb0221009984107ddb9e3813782b095d0d84361ed4c76e5edaf6561d252ae162c2341cfb[ALL]",
            "hex": "483045022052ffc1929a2d8bd365c6a2a4e3421711b4b1e1b8781698ca9075807b4227abcb0221009984107ddb9e3813782b095d0d84361ed4c76e5edaf6561d252ae162c2341cfb01"
          },
          "sequence": 4294967295
        }
      ],
      "vout": [
        {
          "value": 1.0,
          "n": 0,
          "scriptPubKey": {
            "asm": "04baa9d36653155627c740b3409a734d4eaf5dcca9fb4f736622ee18efcf0aec2b758b2ec40db18fbae708f691edb2d4a2a3775eb413d16e2e3c0f8d4c69119fd1 OP_CHECKSIG",
            "desc": "pk(04baa9d36653155627c740b3409a734d4eaf5dcca9fb4f736622ee18efcf0aec2b758b2ec40db18fbae708f691edb2d4a2a3775eb413d16e2e3c0f8d4c69119fd1)#h9nu6585",
            "hex": "4104baa9d36653155627c740b3409a734d4eaf5dcca9fb4f736622ee18efcf0aec2b758b2ec40db18fbae708f691edb2d4a2a3775eb413d16e2e3c0f8d4c69119fd1ac",
            "type": "pubkey"
          }
        },
        {
          "value": 28.0,
          "n": 1,
          "scriptPubKey": {
            "asm": "0411db93e1dcdb8a016b49840f8c53bc1eb68a382e97b1482ecad7b148a6909a5cb2e0eaddfb84ccf9744464f82e160bfa9b8b64f9d4c03f999b8643f656b412a3 OP_CHECKSIG",
            "desc": "pk(0411db93e1dcdb8a016b49840f8c53bc1eb68a382e97b1482ecad7b148a6909a5cb2e0eaddfb84ccf9744464f82e160bfa9b8b64f9d4c03f999b8643f656b412a3)#u7qfa49l",
            "hex": "410411db93e1dcdb8a016b49840f8c53bc1eb68a382e97b1482ecad7b148a6909a5cb2e0eaddfb84ccf9744464f82e160bfa9b8b64f9d4c03f999b8643f656b412a3ac",
            "type": "pubkey"
          }
        }
      ],
      "fee": 0.0,
      "hex": "010000000173805864da01f15093f7837607ab8be7c3705e29a9d4a12c9116d709f8911e590100000049483045022052ffc1929a2d8bd365c6a2a4e3421711b4b1e1b8781698ca9075807b4227abcb0221009984107ddb9e3813782b095d0d84361ed4c76e5edaf6561d252ae162c2341cfb01ffffffff0200e1f50500000000434104baa9d36653155627c740b3409a734d4eaf5dcca9fb4f736622ee18efcf0aec2b758b2ec40db18fbae708f691edb2d4a2a3775eb413d16e2e3c0f8d4c69119fd1ac009ce4a60000000043410411db93e1dcdb8a016b49840f8c53bc1eb68a382e97b1482ecad7b148a6909a5cb2e0eaddfb84ccf9744464f82e160bfa9b8b64f9d4c03f999b8643f656b412a3ac00000000"
    }
  ]
}