{
  "hash": "000000006850617955d4768569384e0a5dd88dc1c15ba559b0b231cba6bd63e8",
  "confirmations": 45724,
  "height": 7374,
  "version": 1,
  "versionHex": "00000001",
  "merkleroot": "7fa1ee9094c06de2382b27b5118c991b35089998ed00f5ef7cb20aec3022aa45",
  "time": 1237001087,
  "mediantime": 1236997673,
  "nonce": 2494930970,
  "bits": "1d00ffff",
  "difficulty": 1,
  "chainwork": "00000000000000000000000000000000000000000000000000001ccf1ccf1ccf",
  "nTx": 1,
  "previousblockhash": "000000006af17237f0814f3270b5aec62fb0960e1f8a556f7506be9eb808f5d8",
  "nextblockhash": "00000000d2e92d19faa5930749bfa2bca22ebe7c9bf9677b915db3e3f11f9bdc",
  "strippedsize": 216,
  "size": 216,
  "weight": 864,
  "tx": [
    {
      "txid": "7fa1ee9094c06de2382b27b5118c991b35089998ed00f5ef7cb20aec3022aa45",
      "hash": "7fa1ee9094c06de2382b27b5118c991b35089998ed00f5ef7cb20aec3022aa45",
      "version": 1,
      "size": 135,
      "vsize": 135,
      "weight": 540,
      "locktime": 0,
      "vin": [
        {
          "coinbase": "04ffff001d02e108",
          "sequence": 4294967295
        }
      ],
      "vout": [
        {
          "value": 50.0,
          "n": 0,
          "scriptPubKey": {
            "asm": "0414e7da244030a9a29ae9cf6b939502ad45f64d7e1ac51015a3db27d1be84fd9e655e99204e4a19def73611e1a737a87d74e8f9a8217847bbb920c1a3e2462717 OP_CHECKSIG",
            "desc": "pk(0414e7da244030a9a29ae9cf6b939502ad45f64d7e1ac51015a3db27d1be84fd9e655e99204e4a19def73611e1a737a87d74e8f9a8217847bbb920c1a3e2462717)#cvun04as",
            "hex": "410414e7da244030a9a29ae9cf6b939502ad45f64d7e1ac51015a3db27d1be84fd9e655e99204e4a19def73611e1a737a87d74e8f9a8217847bbb920c1a3e2462717ac",
            "type": "pubkey"
          }
        }
      ],
      "hex": "01000000010000000000000000000000000000000000000000000000000000000000000000ffffffff0804ffff001d02e108ffffffff0100f2052a0100000043410414e7da244030a9a29ae9cf6b939502ad45f64d7e1ac51015a3db27d1be84fd9e655e99204e4a19def73611e1a737a87d74e8f9a8217847bbb920c1a3e2462717ac00000000"
    }
  ]
}