{
  "hash": "000000006720156f198eb201126c4647d59513bf77b49d069afe3c2964ecddf4",
  "confirmations": 45113,
  "height": 7985,
  "version": 1,
  "versionHex": "00000001",
  "merkleroot": "3b8b22b7929c29255cdc73044d77c8e8d330be34367824173119a7c1c309af13",
  "time": 1237451454,
  "mediantime": 1237447605,
  "nonce": 2917035560,
  "bits": "1d00ffff",
  "difficulty": 1,
  "chainwork": "00000000000000000000000000000000000000000000000000001f321f321f32",
  "nTx": 1,
  "previousblockhash": "0000000029a25588618ee55531cedba277f2492ae7b03dea245e4da86d6819c5",
  "nextblockhash": "000000004b43bb912032a4074a99e0b158d622198e140235950f9d0b732a37d6",
  "strippedsize": 216,
  "size": 216,
  "weight": 864,
  "tx": [
    {
      "txid": "3b8b22b7929c29255cdc73044d77c8e8d330be34367824173119a7c1c309af13",
      "hash": "3b8b22b7929c29255cdc73044d77c8e8d330be34367824173119a7c1c309af13",
      "version": 1,
      "size": 135,
      "vsize": 135,
      "weight": 540,
      "locktime": 0,
      "vin": [
        {
          "coinbase": "04ffff001d022909",
          "sequence": 4294967295
        }
      ],
      "vout": [
        {
          "value": 50.0,
          "n": 0,
          "scriptPubKey": {
            "asm": "04a6f255b493a8fe022b983452748de3ed8ed3a1b42306322bbcd9c1d597c34887e0e9522732b9a4df40dab693da25068f55220252e95453fc64b87e20989584f3 OP_CHECKSIG",
            "desc": "pk(04a6f255b493a8fe022b983452748de3ed8ed3a1b42306322bbcd9c1d597c34887e0e9522732b9a4df40dab693da25068f55220252e95453fc64b87e20989584f3)#vdus6s3v",
            "hex": "4104a6f255b493a8fe022b983452748de3ed8ed3a1b42306322bbcd9c1d597c34887e0e9522732b9a4df40dab693da25068f55220252e95453fc64b87e20989584f3ac",
            "type": "pubkey"
          }
        }
      ],
      "hex": "01000000010000000000000000000000000000000000000000000000000000000000000000ffffffff0804ffff001d022909ffffffff0100f2052a01000000434104a6f255b493a8fe022b983452748de3ed8ed3a1b42306322bbcd9c1d597c34887e0e9522732b9a4df40dab693da25068f55220252e95453fc64b87e20989584f3ac00000000"
    }
  ]
}