{
  "hash": "000000009632edab3bad8322e22a52709c05d9257f0ea0c3649cf3b725f090d3",
  "confirmations": 44171,
  "height": 8927,
  "version": 1,
  "versionHex": "00000001",
  "merkleroot": "e4135c8963be370f4774840a2c35d0b3cc0e72cac675b82c25ea85577eecad2e",
  "time": 1238200285,
  "mediantime": 1238196451,
  "nonce": 1956336390,
  "bits": "1d00ffff",
  "difficulty": 1,
  "chainwork": "000000000000000000000000000000000000000000000000000022e022e022e0",
  "nTx": 1,
  "previousblockhash": "000000009693162dda45657adb691d84c66f42d2cc21075212a8695d243b9f5d",
  "nextblockhash": "000000001e12f35b5ad35f5d00d2ebe8cf317b9bf43bc36058c224b2e85d613a",
  "strippedsize": 216,
  "size": 216,
  "weight": 864,
  "tx": [
    {
      "txid": "e4135c8963be370f4774840a2c35d0b3cc0e72cac675b82c25ea85577eecad2e",
      "hash": "e4135c8963be370f4774840a2c35d0b3cc0e72cac675b82c25ea85577eecad2e",
      "version": 1,
      "size": 135,
      "vsize": 135,
      "weight": 540,
      "locktime": 0,
      "vin": [
        {
          "coinbase": "04ffff001d021e05",
          "sequence": 4294967295
        }
      ],
      "vout": [
        {
          "value": 50.0,
          "n": 0,
          "scriptPubKey": {
            "asm": "04083f3a417b97cd05830521c4a420196509e2e8eadc02a8baf63bdb85133f35dd9983d0a4dae11d0e0a9399a8330b87701f8f7771b6f56b9ba806fc29265de610 OP_CHECKSIG",
            "desc": "pk(04083f3a417b97cd05830521c4a420196509e2e8eadc02a8baf63bdb85133f35dd9983d0a4dae11d0e0a9399a8330b87701f8f7771b6f56b9ba806fc29265de610)#h9ykk9nu",
            "hex": "4104083f3a417b97cd05830521c4a420196509e2e8eadc02a8baf63bdb85133f35dd9983d0a4dae11d0e0a9399a8330b87701f8f7771b6f56b9ba806fc29265de610ac",
            "type": "pubkey"
          }
        }
      ],
      "hex": "01000000010000000000000000000000000000000000000000000000000000000000000000ffffffff0804ffff001d021e05ffffffff0100f2052a01000000434104083f3a417b97cd05830521c4a420196509e2e8eadc02a8baf63bdb85133f35dd9983d0a4dae11d0e0a9399a8330b87701f8f7771b6f56b9ba806fc29265de610ac00000000"
    }
  ]
}