{
  "hash": "0000000025f2bb2ee58597083e13079899ecc6f2bb7e8bfd57e66b324b05d654",
  "confirmations": 52054,
  "height": 282,
  "version": 1,
  "versionHex": "00000001",
  "merkleroot": "bed934e8ab0ce624c5ad6fb57cb71a41546b4098b2feec8faa75944d65cc3586",
  "time": 1231818395,
  "mediantime": 1231815025,
  "nonce": 1312046121,
  "bits": "1d00ffff",
  "difficulty": 1,
  "chainwork": "0000000000000000000000000000000000000000000000000000011b011b011b",
  "nTx": 1,
  "previousblockhash": "000000007964a0e8b97bbea93e937c63d4097c42ccb4db464b1ab3047c62869c",
  "nextblockhash": "000000001a6017f168bfbe3ef01807bec73ce61a72216d90381871e56bbcb386",
  "strippedsize": 215,
  "size": 215,
  "weight": 860,
  "tx": [
    {
      "txid": "bed934e8ab0ce624c5ad6fb57cb71a41546b4098b2feec8faa75944d65cc3586",
      "hash": "bed934e8ab0ce624c5ad6fb57cb71a41546b4098b2feec8faa75944d65cc3586",
      "version": 1,
      "size": 134,
      "vsize": 134,
      "weight": 536,
      "locktime": 0,
      "vin": [
        {
          "coinbase": "04ffff001d0111",
          "sequence": 4294967295
        }
      ],
      "vout": [
        {
          "value": 50.0,
          "n": 0,
          "scriptPubKey": {
            "asm": "04c5b5ec75d0916de9cb52c69e68e991381468be26a780752f48a789009560970c9f62a18237dc963c74bf24b7ef0a65e5383c866afd3351092f2d8d828ac7948f OP_CHECKSIG",
            "desc": "pk(04c5b5ec75d0916de9cb52c69e68e991381468be26a780752f48a789009560970c9f62a18237dc963c74bf24b7ef0a65e5383c866afd3351092f2d8d828ac7948f)#0t3xls90",
            "hex": "4104c5b5ec75d0916de9cb52c69e68e991381468be26a780752f48a789009560970c9f62a18237dc963c74bf24b7ef0a65e5383c866afd3351092f2d8d828ac7948fac",
            "type": "pubkey"
          }
        }
      ],
      "hex": "01000000010000000000000000000000000000000000000000000000000000000000000000ffffffff0704ffff001d0111ffffffff0100f2052a01000000434104c5b5ec75d0916de9cb52c69e68e991381468be26a780752f48a789009560970c9f62a18237dc963c74bf24b7ef0a65e5383c866afd3351092f2d8d828ac7948fac00000000"
    }
  ]
}