{
  "hash": "00000000d604ed18f352964ba0e60a4dd510f168b727feec6f52325a4f8ee31e",
  "confirmations": 47995,
  "height": 5103,
  "version": 1,
  "versionHex": "00000001",
  "merkleroot": "208c43fcdeb79263604f0ce57183209543e9cf0e68b20005eee10ad75647a4de",
  "time": 1235219818,
  "mediantime": 1235215214,
  "nonce": 4080451620,
  "bits": "1d00ffff",
  "difficulty": 1,
  "chainwork": "000000000000000000000000000000000000000000000000000013f013f013f0",
  "nTx": 1,
  "previousblockhash": "00000000ce1821664f777cd39b9bb5ca4a56746740df26342344c052fec8ca6a",
  "nextblockhash": "00000000ce09bb03abbb48b1a6ea4a6af2ed8a248881a2d8e01fa37b0093a17e",
  "strippedsize": 216,
  "size": 216,
  "weight": 864,
  "tx": [
    {
      "txid": "208c43fcdeb79263604f0ce57183209543e9cf0e68b20005eee10ad75647a4de",
      "hash": "208c43fcdeb79263604f0ce57183209543e9cf0e68b20005eee10ad75647a4de",
      "version": 1,
      "size": 135,
      "vsize": 135,
      "weight": 540,
      "locktime": 0,
      "vin": [
        {
          "coinbase": "04ffff001d021e09",
          "sequence": 4294967295
        }
      ],
      "vout": [
        {
          "value": 50.0,
          "n": 0,
          "scriptPubKey": {
            "asm": "04916c2953821cdeddfe32882596c167537bd23bd6a18d2d1d5923ccfeee848ba82cbd1ca3859ee90ed32d6e11a3f3e83b1c92f8c5be84fb4d10a444900b9254d0 OP_CHECKSIG",
            "desc": "pk(04916c2953821cdeddfe32882596c167537bd23bd6a18d2d1d5923ccfeee848ba82cbd1ca3859ee90ed32d6e11a3f3e83b1c92f8c5be84fb4d10a444900b9254d0)#hul7d50j",
            "hex": "4104916c2953821cdeddfe32882596c167537bd23bd6a18d2d1d5923ccfeee848ba82cbd1ca3859ee90ed32d6e11a3f3e83b1c92f8c5be84fb4d10a444900b9254d0ac",
            "type": "pubkey"
          }
        }
      ],
      "hex": "01000000010000000000000000000000000000000000000000000000000000000000000000ffffffff0804ffff001d021e09ffffffff0100f2052a01000000434104916c2953821cdeddfe32882596c167537bd23bd6a18d2d1d5923ccfeee848ba82cbd1ca3859ee90ed32d6e11a3f3e83b1c92f8c5be84fb4d10a444900b9254d0ac00000000"
    }
  ]
}