{
  "hash": "00000000e0c974daa5c778099828f0227849b35ecaa2b6d165ce0a8d9e9118c6",
  "confirmations": 50446,
  "height": 2652,
  "version": 1,
  "versionHex": "00000001",
  "merkleroot": "54f3e71d43f71e4d794da5521cd6df853b8249a03ff7affb28e9b7d5252eae09",
  "time": 1233529795,
  "mediantime": 1233523978,
  "nonce": 3250491173,
  "bits": "1d00ffff",
  "difficulty": 1,
  "chainwork": "00000000000000000000000000000000000000000000000000000a5d0a5d0a5d",
  "nTx": 1,
  "previousblockhash": "000000002da2e132194661b3ea5ebe2d85c99a8af33565a3eb34c3bb3351b0a6",
  "nextblockhash": "00000000a3621a4520dbf44e5d406ac70c4c5c3002dc14b5fc6cd5768b5fd9c5",
  "strippedsize": 216,
  "size": 216,
  "weight": 864,
  "tx": [
    {
      "txid": "54f3e71d43f71e4d794da5521cd6df853b8249a03ff7affb28e9b7d5252eae09",
      "hash": "54f3e71d43f71e4d794da5521cd6df853b8249a03ff7affb28e9b7d5252eae09",
      "version": 1,
      "size": 135,
      "vsize": 135,
      "weight": 540,
      "locktime": 0,
      "vin": [
        {
          "coinbase": "04ffff001d02f403",
          "sequence": 4294967295
        }
      ],
      "vout": [
        {
          "value": 50.0,
          "n": 0,
          "scriptPubKey": {
            "asm": "04e3d478965aacc7fc3cf5e5cc9566efe21c48661837aae8eb13f4647b29b02b363d882997b48dfa5d65eaa494333ada247188bd7db957d57692626885423823cf OP_CHECKSIG",
            "desc": "pk(04e3d478965aacc7fc3cf5e5cc9566efe21c48661837aae8eb13f4647b29b02b363d882997b48dfa5d65eaa494333ada247188bd7db957d57692626885423823cf)#96hu9wy4",
            "hex": "4104e3d478965aacc7fc3cf5e5cc9566efe21c48661837aae8eb13f4647b29b02b363d882997b48dfa5d65eaa494333ada247188bd7db957d57692626885423823cfac",
            "type": "pubkey"
          }
        }
      ],
      "hex": "01000000010000000000000000000000000000000000000000000000000000000000000000ffffffff0804ffff001d02f403ffffffff0100f2052a01000000434104e3d478965aacc7fc3cf5e5cc9566efe21c48661837aae8eb13f4647b29b02b363d882997b48dfa5d65eaa494333ada247188bd7db957d57692626885423823cfac00000000"
    }
  ]
}