{
  "hash": "000000000a7500e6d85b71ebdc936820644b2dbb1152c026fc5969f3d6942059",
  "confirmations": 49954,
  "height": 3144,
  "version": 1,
  "versionHex": "00000001",
  "merkleroot": "8ab77d5e83a0f987be56815a04fe91998954a12ad8af29ad7bae990118295b54",
  "time": 1233863795,
  "mediantime": 1233860653,
  "nonce": 1697063459,
  "bits": "1d00ffff",
  "difficulty": 1,
  "chainwork": "00000000000000000000000000000000000000000000000000000c490c490c49",
  "nTx": 1,
  "previousblockhash": "0000000023b460fe30e798acb6e84814c8672e277305498f563c1eb213587b70",
  "nextblockhash": "000000004054a6f0c361133d75d87810c11d6386b53454696037689824060cee",
  "strippedsize": 216,
  "size": 216,
  "weight": 864,
  "tx": [
    {
      "txid": "8ab77d5e83a0f987be56815a04fe91998954a12ad8af29ad7bae990118295b54",
      "hash": "8ab77d5e83a0f987be56815a04fe91998954a12ad8af29ad7bae990118295b54",
      "version": 1,
      "size": 135,
      "vsize": 135,
      "weight": 540,
      "locktime": 0,
      "vin": [
        {
          "coinbase": "04ffff001d02d401",
          "sequence": 4294967295
        }
      ],
      "vout": [
        {
          "value": 50.0,
          "n": 0,
          "scriptPubKey": {
            "asm": "04ba459ea8355a263443caa79b99bf14919050ee6590c85941f8ae2a638dea3523dcb8eacc343de527aeaf58f349c6cc56945c79709cffe42aac0baf7b6e5f7cb2 OP_CHECKSIG",
            "desc": "pk(04ba459ea8355a263443caa79b99bf14919050ee6590c85941f8ae2a638dea3523dcb8eacc343de527aeaf58f349c6cc56945c79709cffe42aac0baf7b6e5f7cb2)#dyhv8wqr",
            "hex": "4104ba459ea8355a263443caa79b99bf14919050ee6590c85941f8ae2a638dea3523dcb8eacc343de527aeaf58f349c6cc56945c79709cffe42aac0baf7b6e5f7cb2ac",
            "type": "pubkey"
          }
        }
      ],
      "hex": "01000000010000000000000000000000000000000000000000000000000000000000000000ffffffff0804ffff001d02d401ffffffff0100f2052a01000000434104ba459ea8355a263443caa79b99bf14919050ee6590c85941f8ae2a638dea3523dcb8eacc343de527aeaf58f349c6cc56945c79709cffe42aac0baf7b6e5f7cb2ac00000000"
    }
  ]
}