{
  "hash": "00000000220fe55388d2f9369fc9a71a464fe4ad7f681adddd70aafbf231342f",
  "confirmations": 46649,
  "height": 6449,
  "version": 1,
  "versionHex": "00000001",
  "merkleroot": "8122d48d5f31aebc4d9897b0be0766dd44c7679745b7ca33cf419612dea18855",
  "time": 1236292807,
  "mediantime": 1236288526,
  "nonce": 3545962032,
  "bits": "1d00ffff",
  "difficulty": 1,
  "chainwork": "0000000000000000000000000000000000000000000000000000193219321932",
  "nTx": 1,
  "previousblockhash": "0000000098bfd61780bc4f6eabc8807fde1fba85acc9f4c2fd27a680ff51d36c",
  "nextblockhash": "00000000e061bce5df4c77b549ea1daa962e5fcf714dbd7b42e6c897c3c06cef",
  "strippedsize": 216,
  "size": 216,
  "weight": 864,
  "tx": [
    {
      "txid": "8122d48d5f31aebc4d9897b0be0766dd44c7679745b7ca33cf419612dea18855",
      "hash": "8122d48d5f31aebc4d9897b0be0766dd44c7679745b7ca33cf419612dea18855",
      "version": 1,
      "size": 135,
      "vsize": 135,
      "weight": 540,
      "locktime": 0,
      "vin": [
        {
          "coinbase": "04ffff001d029702",
          "sequence": 4294967295
        }
      ],
      "vout": [
        {
          "value": 50.0,
          "n": 0,
          "scriptPubKey": {
            "asm": "04a04c6eb8d6e8954f77ac490b785ce06fffddefebb582575272e4abaa8ee32804db61ae63a72c534bee48661b6415255dbc0f1526cf4a97848f03b5e2f117ab6c OP_CHECKSIG",
            "desc": "pk(04a04c6eb8d6e8954f77ac490b785ce06fffddefebb582575272e4abaa8ee32804db61ae63a72c534bee48661b6415255dbc0f1526cf4a97848f03b5e2f117ab6c)#zw6vaqzw",
            "hex": "4104a04c6eb8d6e8954f77ac490b785ce06fffddefebb582575272e4abaa8ee32804db61ae63a72c534bee48661b6415255dbc0f1526cf4a97848f03b5e2f117ab6cac",
            "type": "pubkey"
          }
        }
      ],
      "hex": "01000000010000000000000000000000000000000000000000000000000000000000000000ffffffff0804ffff001d029702ffffffff0100f2052a01000000434104a04c6eb8d6e8954f77ac490b785ce06fffddefebb582575272e4abaa8ee32804db61ae63a72c534bee48661b6415255dbc0f1526cf4a97848f03b5e2f117ab6cac00000000"
    }
  ]
}