{
  "hash": "000000006d76d82e9a144722fe2cbc9365fa2ed246cf47ff2a7b488b8c6bc1a7",
  "confirmations": 46117,
  "height": 6981,
  "version": 1,
  "versionHex": "00000001",
  "merkleroot": "f7b530cd3ce6a45f29bcb09f46d119e739026641b99fe7cc4c29d27c5cd2d4f3",
  "time": 1236701974,
  "mediantime": 1236697614,
  "nonce": 2199587843,
  "bits": "1d00ffff",
  "difficulty": 1,
  "chainwork": "00000000000000000000000000000000000000000000000000001b461b461b46",
  "nTx": 1,
  "previousblockhash": "00000000c31f7f76a2a9b722603d7419bdc53f13c9a12bc250c2e6af3c60ed53",
  "nextblockhash": "00000000ee01f2591da756d1045ae3bd04341279842dddba8a7d002b7c170f94",
  "strippedsize": 216,
  "size": 216,
  "weight": 864,
  "tx": [
    {
      "txid": "f7b530cd3ce6a45f29bcb09f46d119e739026641b99fe7cc4c29d27c5cd2d4f3",
      "hash": "f7b530cd3ce6a45f29bcb09f46d119e739026641b99fe7cc4c29d27c5cd2d4f3",
      "version": 1,
      "size": 135,
      "vsize": 135,
      "weight": 540,
      "locktime": 0,
      "vin": [
        {
          "coinbase": "04ffff001d02e901",
          "sequence": 4294967295
        }
      ],
      "vout": [
        {
          "value": 50.0,
          "n": 0,
          "scriptPubKey": {
            "asm": "048c7e26684aea5a650d0e4fe01466c5cd4eaf213e618c1fe196c05acb989c2a1b3ec2095674088d1bf22fc937c8b17a725a9ef51ae282fe071f7cf94c2a0942c7 OP_CHECKSIG",
            "desc": "pk(048c7e26684aea5a650d0e4fe01466c5cd4eaf213e618c1fe196c05acb989c2a1b3ec2095674088d1bf22fc937c8b17a725a9ef51ae282fe071f7cf94c2a0942c7)#uuclw502",
            "hex": "41048c7e26684aea5a650d0e4fe01466c5cd4eaf213e618c1fe196c05acb989c2a1b3ec2095674088d1bf22fc937c8b17a725a9ef51ae282fe071f7cf94c2a0942c7ac",
            "type": "pubkey"
          }
        }
      ],
      "hex": "01000000010000000000000000000000000000000000000000000000000000000000000000ffffffff0804ffff001d02e901ffffffff0100f2052a010000004341048c7e26684aea5a650d0e4fe01466c5cd4eaf213e618c1fe196c05acb989c2a1b3ec2095674088d1bf22fc937c8b17a725a9ef51ae282fe071f7cf94c2a0942c7ac00000000"
    }
  ]
}