{
  "hash": "000000004c7d1e71ab125cff19bec48a3b21f60063fdad6a44d8399d08b238cf",
  "confirmations": 45293,
  "height": 7805,
  "version": 1,
  "versionHex": "00000001",
  "merkleroot": "81832d0630b06e29e08aff3fb0bc1d5eec36447f3ca43a915c575655896d0cd5",
  "time": 1237316368,
  "mediantime": 1237313789,
  "nonce": 156162091,
  "bits": "1d00ffff",
  "difficulty": 1,
  "chainwork": "00000000000000000000000000000000000000000000000000001e7e1e7e1e7e",
  "nTx": 1,
  "previousblockhash": "0000000098b558c90ae999a09ebe7fb61b23d01e3a2d6fa9e204cab89d02df60",
  "nextblockhash": "00000000d7fefd2d5b9880c21848ee752dc407322a7d74752b670069575b52be",
  "strippedsize": 216,
  "size": 216,
  "weight": 864,
  "tx": [
    {
      "txid": "81832d0630b06e29e08aff3fb0bc1d5eec36447f3ca43a915c575655896d0cd5",
      "hash": "81832d0630b06e29e08aff3fb0bc1d5eec36447f3ca43a915c575655896d0cd5",
      "version": 1,
      "size": 135,
      "vsize": 135,
      "weight": 540,
      "locktime": 0,
      "vin": [
        {
          "coinbase": "04ffff001d02f705",
          "sequence": 4294967295
        }
      ],
      "vout": [
        {
          "value": 50.0,
          "n": 0,
          "scriptPubKey": {
            "asm": "0402453ef0e2718300de73f2d5a1edf78cb8c262425fb9ac70149999da1b260ea0d9418c5ea622ff1b414d0e084a41ec1e0446a504992f6bfe32d12c062238e1e9 OP_CHECKSIG",
            "desc": "pk(0402453ef0e2718300de73f2d5a1edf78cb8c262425fb9ac70149999da1b260ea0d9418c5ea622ff1b414d0e084a41ec1e0446a504992f6bfe32d12c062238e1e9)#8n0a92m5",
            "hex": "410402453ef0e2718300de73f2d5a1edf78cb8c262425fb9ac70149999da1b260ea0d9418c5ea622ff1b414d0e084a41ec1e0446a504992f6bfe32d12c062238e1e9ac",
            "type": "pubkey"
          }
        }
      ],
      "hex": "01000000010000000000000000000000000000000000000000000000000000000000000000ffffffff0804ffff001d02f705ffffffff0100f2052a0100000043410402453ef0e2718300de73f2d5a1edf78cb8c262425fb9ac70149999da1b260ea0d9418c5ea622ff1b414d0e084a41ec1e0446a504992f6bfe32d12c062238e1e9ac00000000"
    }
  ]
}