{
  "hash": "000000004ed1690d9de9afc1a4b3aa95101655ffb7c84513b5a91dc5f26537c0",
  "confirmations": 44405,
  "height": 8693,
  "version": 1,
  "versionHex": "00000001",
  "merkleroot": "d1ce74c6d6a06d8703a605721205cf3578e23649dd5d206be262d3a8117850ea",
  "time": 1238019699,
  "mediantime": 1238016947,
  "nonce": 2350286893,
  "bits": "1d00ffff",
  "difficulty": 1,
  "chainwork": "000000000000000000000000000000000000000000000000000021f621f621f6",
  "nTx": 1,
  "previousblockhash": "000000004656bf7bc13ea617b3c472bc2ddb226a3cc4109b4bf2844f7929ba35",
  "nextblockhash": "0000000048a9e61a5c47c60d9cda6594ca9798f040b4a6a7e73ad28b7f227cee",
  "strippedsize": 216,
  "size": 216,
  "weight": 864,
  "tx": [
    {
      "txid": "d1ce74c6d6a06d8703a605721205cf3578e23649dd5d206be262d3a8117850ea",
      "hash": "d1ce74c6d6a06d8703a605721205cf3578e23649dd5d206be262d3a8117850ea",
      "version": 1,
      "size": 135,
      "vsize": 135,
      "weight": 540,
      "locktime": 0,
      "vin": [
        {
          "coinbase": "04ffff001d02be00",
          "sequence": 4294967295
        }
      ],
      "vout": [
        {
          "value": 50.0,
          "n": 0,
          "scriptPubKey": {
            "asm": "04c4d5649f545a811d8b820394a75af0a46c7d586668fe12985a0043965fa6c4d88da584c67c26052baa418c9df9c215fbe457a3788ae10a3e45e08390a2525240 OP_CHECKSIG",
            "desc": "pk(04c4d5649f545a811d8b820394a75af0a46c7d586668fe12985a0043965fa6c4d88da584c67c26052baa418c9df9c215fbe457a3788ae10a3e45e08390a2525240)#7j5079q5",
            "hex": "4104c4d5649f545a811d8b820394a75af0a46c7d586668fe12985a0043965fa6c4d88da584c67c26052baa418c9df9c215fbe457a3788ae10a3e45e08390a2525240ac",
            "type": "pubkey"
          }
        }
      ],
      "hex": "01000000010000000000000000000000000000000000000000000000000000000000000000ffffffff0804ffff001d02be00ffffffff0100f2052a01000000434104c4d5649f545a811d8b820394a75af0a46c7d586668fe12985a0043965fa6c4d88da584c67c26052baa418c9df9c215fbe457a3788ae10a3e45e08390a2525240ac00000000"
    }
  ]
}