{
  "hash": "00000000b81a499a58a1c13ca64f6f2bd072bab8146e3067b29dcc1eab71e926",
  "confirmations": 47198,
  "height": 5900,
  "version": 1,
  "versionHex": "00000001",
  "merkleroot": "8cb9deb19eabaaad1e3e7e09a0576779ed7dcc53112fe9984730cc9c0e3a20e3",
  "time": 1235844652,
  "mediantime": 1235839181,
  "nonce": 1617216052,
  "bits": "1d00ffff",
  "difficulty": 1,
  "chainwork": "0000000000000000000000000000000000000000000000000000170d170d170d",
  "nTx": 1,
  "previousblockhash": "000000009525cb6d461036fcbb40ec7ffd427f581569441c1395a5deedd765a9",
  "nextblockhash": "00000000e2ce26991d2fac07c4600b4881e91819d186aaff6f530ec237725747",
  "strippedsize": 216,
  "size": 216,
  "weight": 864,
  "tx": [
    {
      "txid": "8cb9deb19eabaaad1e3e7e09a0576779ed7dcc53112fe9984730cc9c0e3a20e3",
      "hash": "8cb9deb19eabaaad1e3e7e09a0576779ed7dcc53112fe9984730cc9c0e3a20e3",
      "version": 1,
      "size": 135,
      "vsize": 135,
      "weight": 540,
      "locktime": 0,
      "vin": [
        {
          "coinbase": "04ffff001d020603",
          "sequence": 4294967295
        }
      ],
      "vout": [
        {
          "value": 50.0,
          "n": 0,
          "scriptPubKey": {
            "asm": "043f39f4bf924e79a2c0dd766cb5249e7c8e44db1c924f050df4c6561541705d5418959b149ae25ea340e32a3a2b6fa5150c94cac8f3be93606dc37bf9a468ed5a OP_CHECKSIG",
            "desc": "pk(043f39f4bf924e79a2c0dd766cb5249e7c8e44db1c924f050df4c6561541705d5418959b149ae25ea340e32a3a2b6fa5150c94cac8f3be93606dc37bf9a468ed5a)#5esnxuqp",
            "hex": "41043f39f4bf924e79a2c0dd766cb5249e7c8e44db1c924f050df4c6561541705d5418959b149ae25ea340e32a3a2b6fa5150c94cac8f3be93606dc37bf9a468ed5aac",
            "type": "pubkey"
          }
        }
      ],
      "hex": "01000000010000000000000000000000000000000000000000000000000000000000000000ffffffff0804ffff001d020603ffffffff0100f2052a010000004341043f39f4bf924e79a2c0dd766cb5249e7c8e44db1c924f050df4c6561541705d5418959b149ae25ea340e32a3a2b6fa5150c94cac8f3be93606dc37bf9a468ed5aac00000000"
    }
  ]
}