{
  "hash": "00000000fd1e812fa64ecb5bf83c061d632432bddfbfb0675074d6d06267a5a1",
  "confirmations": 46643,
  "height": 6455,
  "version": 1,
  "versionHex": "00000001",
  "merkleroot": "38e56b79bd4d5033c48658fdd93ec939cf154157345e37eab4e640473ba75002",
  "time": 1236296339,
  "mediantime": 1236293857,
  "nonce": 40788643,
  "bits": "1d00ffff",
  "difficulty": 1,
  "chainwork": "0000000000000000000000000000000000000000000000000000193819381938",
  "nTx": 1,
  "previousblockhash": "00000000e3b9afe6d09b959e337f8aad6e73a74afb10dca0a6f79abb65fa5a91",
  "nextblockhash": "00000000de73e06a0aba72009d81c96b55b470400b4bbe784df0286f4ee29e96",
  "strippedsize": 216,
  "size": 216,
  "weight": 864,
  "tx": [
    {
      "txid": "38e56b79bd4d5033c48658fdd93ec939cf154157345e37eab4e640473ba75002",
      "hash": "38e56b79bd4d5033c48658fdd93ec939cf154157345e37eab4e640473ba75002",
      "version": 1,
      "size": 135,
      "vsize": 135,
      "weight": 540,
      "locktime": 0,
      "vin": [
        {
          "coinbase": "04ffff001d02e803",
          "sequence": 4294967295
        }
      ],
      "vout": [
        {
          "value": 50.0,
          "n": 0,
          "scriptPubKey": {
            "asm": "04c978ef6d3e93e5ffe175a0bccd0b123c17f0b103153b7cbd8da10af1cc612478719fef9a2bff6ebce85eea34ecf8baa36d0d9ce5a35e2cf724fa0481a3dacce6 OP_CHECKSIG",
            "desc": "pk(04c978ef6d3e93e5ffe175a0bccd0b123c17f0b103153b7cbd8da10af1cc612478719fef9a2bff6ebce85eea34ecf8baa36d0d9ce5a35e2cf724fa0481a3dacce6)#yzftw436",
            "hex": "4104c978ef6d3e93e5ffe175a0bccd0b123c17f0b103153b7cbd8da10af1cc612478719fef9a2bff6ebce85eea34ecf8baa36d0d9ce5a35e2cf724fa0481a3dacce6ac",
            "type": "pubkey"
          }
        }
      ],
      "hex": "01000000010000000000000000000000000000000000000000000000000000000000000000ffffffff0804ffff001d02e803ffffffff0100f2052a01000000434104c978ef6d3e93e5ffe175a0bccd0b123c17f0b103153b7cbd8da10af1cc612478719fef9a2bff6ebce85eea34ecf8baa36d0d9ce5a35e2cf724fa0481a3dacce6ac00000000"
    }
  ]
}