{
  "hash": "00000000e4f0ff6c0defc41f1b44db9519708cb667e8d07ca982f8ab473e6786",
  "confirmations": 52390,
  "height": 708,
  "version": 1,
  "versionHex": "00000001",
  "merkleroot": "3e47dc1bbca28fcf4290fa824d8c402773e0465811e8b0eb33a13f9a904f7edb",
  "time": 1232114037,
  "mediantime": 1232110280,
  "nonce": 3002732035,
  "bits": "1d00ffff",
  "difficulty": 1,
  "chainwork": "000000000000000000000000000000000000000000000000000002c502c502c5",
  "nTx": 1,
  "previousblockhash": "00000000bf9c7f7b8b72d82164a9328e331581e68885d1f5003da874f23fa474",
  "nextblockhash": "0000000060b5d78901f42d7caafa58a3a65050302180313f4f8ff30face3d066",
  "strippedsize": 216,
  "size": 216,
  "weight": 864,
  "tx": [
    {
      "txid": "3e47dc1bbca28fcf4290fa824d8c402773e0465811e8b0eb33a13f9a904f7edb",
      "hash": "3e47dc1bbca28fcf4290fa824d8c402773e0465811e8b0eb33a13f9a904f7edb",
      "version": 1,
      "size": 135,
      "vsize": 135,
      "weight": 540,
      "locktime": 0,
      "vin": [
        {
          "coinbase": "04ffff001d022401",
          "sequence": 4294967295
        }
      ],
      "vout": [
        {
          "value": 50.0,
          "n": 0,
          "scriptPubKey": {
            "asm": "040c59a3d93d794025d8fd9351c75cfb02df6ce2792a544cbca8de5a79a75ddc47f358d6d1bf540ce956b17f7283aa19bc35ad97c9799becef19f7a3af6b83fed9 OP_CHECKSIG",
            "desc": "pk(040c59a3d93d794025d8fd9351c75cfb02df6ce2792a544cbca8de5a79a75ddc47f358d6d1bf540ce956b17f7283aa19bc35ad97c9799becef19f7a3af6b83fed9)#v2wm2kaq",
            "hex": "41040c59a3d93d794025d8fd9351c75cfb02df6ce2792a544cbca8de5a79a75ddc47f358d6d1bf540ce956b17f7283aa19bc35ad97c9799becef19f7a3af6b83fed9ac",
            "type": "pubkey"
          }
        }
      ],
      "hex": "01000000010000000000000000000000000000000000000000000000000000000000000000ffffffff0804ffff001d022401ffffffff0100f2052a010000004341040c59a3d93d794025d8fd9351c75cfb02df6ce2792a544cbca8de5a79a75ddc47f358d6d1bf540ce956b17f7283aa19bc35ad97c9799becef19f7a3af6b83fed9ac00000000"
    }
  ]
}