{
  "hash": "000000005e007f176975230d68510149ef9d80b5180cf9110099b09d7a23e80b",
  "confirmations": 50955,
  "height": 2143,
  "version": 1,
  "versionHex": "00000001",
  "merkleroot": "2ffb1c51c1837edf59ed571239f899c2afb352188db5db7067df75b4e4d5c38f",
  "time": 1233171142,
  "mediantime": 1233166253,
  "nonce": 1011961639,
  "bits": "1d00ffff",
  "difficulty": 1,
  "chainwork": "0000000000000000000000000000000000000000000000000000086008600860",
  "nTx": 1,
  "previousblockhash": "000000005d4a5902a4b909926739a348f7789b6d7b24a9623c3364ea7e5ceeed",
  "nextblockhash": "0000000080af307a7f9f2edc93a9a8846886a1a6f7031a009132d04b1691bc74",
  "strippedsize": 215,
  "size": 215,
  "weight": 860,
  "tx": [
    {
      "txid": "2ffb1c51c1837edf59ed571239f899c2afb352188db5db7067df75b4e4d5c38f",
      "hash": "2ffb1c51c1837edf59ed571239f899c2afb352188db5db7067df75b4e4d5c38f",
      "version": 1,
      "size": 134,
      "vsize": 134,
      "weight": 536,
      "locktime": 0,
      "vin": [
        {
          "coinbase": "04ffff001d0136",
          "sequence": 4294967295
        }
      ],
      "vout": [
        {
          "value": 50.0,
          "n": 0,
          "scriptPubKey": {
            "asm": "04b4ef2ed776b88c35f2b1cb374a8ba631bf9bd183ae75a8d24fb8a510453e9e219e95aef83d0f08981f4395bb27e34d25cbfba662ea3f2988fe049680d3eabe0e OP_CHECKSIG",
            "desc": "pk(04b4ef2ed776b88c35f2b1cb374a8ba631bf9bd183ae75a8d24fb8a510453e9e219e95aef83d0f08981f4395bb27e34d25cbfba662ea3f2988fe049680d3eabe0e)#9fqw9qjw",
            "hex": "4104b4ef2ed776b88c35f2b1cb374a8ba631bf9bd183ae75a8d24fb8a510453e9e219e95aef83d0f08981f4395bb27e34d25cbfba662ea3f2988fe049680d3eabe0eac",
            "type": "pubkey"
          }
        }
      ],
      "hex": "01000000010000000000000000000000000000000000000000000000000000000000000000ffffffff0704ffff001d0136ffffffff0100f2052a01000000434104b4ef2ed776b88c35f2b1cb374a8ba631bf9bd183ae75a8d24fb8a510453e9e219e95aef83d0f08981f4395bb27e34d25cbfba662ea3f2988fe049680d3eabe0eac00000000"
    }
  ]
}