{
  "hash": "00000000e1890040f7ae27ee86da324af47712fec7e8c5d4614509238536b96c",
  "confirmations": 44465,
  "height": 8633,
  "version": 1,
  "versionHex": "00000001",
  "merkleroot": "a595da4a369918d620ece3968529c3b786e5b3726feed17c1f68632c73dd695e",
  "time": 1237970877,
  "mediantime": 1237967600,
  "nonce": 155238668,
  "bits": "1d00ffff",
  "difficulty": 1,
  "chainwork": "000000000000000000000000000000000000000000000000000021ba21ba21ba",
  "nTx": 1,
  "previousblockhash": "000000005f5e2da1c33bc6d86e8a06412b662aad01d3b931b3d3e1948092d447",
  "nextblockhash": "00000000fb25fb790b1e890b86d656f509c3a55e83ba5705d654602cff2f7607",
  "strippedsize": 216,
  "size": 216,
  "weight": 864,
  "tx": [
    {
      "txid": "a595da4a369918d620ece3968529c3b786e5b3726feed17c1f68632c73dd695e",
      "hash": "a595da4a369918d620ece3968529c3b786e5b3726feed17c1f68632c73dd695e",
      "version": 1,
      "size": 135,
      "vsize": 135,
      "weight": 540,
      "locktime": 0,
      "vin": [
        {
          "coinbase": "04ffff001d027e02",
          "sequence": 4294967295
        }
      ],
      "vout": [
        {
          "value": 50.0,
          "n": 0,
          "scriptPubKey": {
            "asm": "04bd619c7680360381f030c207b233ef275b430478845344415bae7ce26cb521e8b62e9678a5498a57cfd8c9c822ac470b3bdcabfe4be24dd7af76de807ce8cc04 OP_CHECKSIG",
            "desc": "pk(04bd619c7680360381f030c207b233ef275b430478845344415bae7ce26cb521e8b62e9678a5498a57cfd8c9c822ac470b3bdcabfe4be24dd7af76de807ce8cc04)#gc3ammah",
            "hex": "4104bd619c7680360381f030c207b233ef275b430478845344415bae7ce26cb521e8b62e9678a5498a57cfd8c9c822ac470b3bdcabfe4be24dd7af76de807ce8cc04ac",
            "type": "pubkey"
          }
        }
      ],
      "hex": "01000000010000000000000000000000000000000000000000000000000000000000000000ffffffff0804ffff001d027e02ffffffff0100f2052a01000000434104bd619c7680360381f030c207b233ef275b430478845344415bae7ce26cb521e8b62e9678a5498a57cfd8c9c822ac470b3bdcabfe4be24dd7af76de807ce8cc04ac00000000"
    }
  ]
}