{
  "hash": "0000000039c9ee6476f7ff947201bcab7167916dba9754fb5b446bab0cf8ef28",
  "confirmations": 51397,
  "height": 1701,
  "version": 1,
  "versionHex": "00000001",
  "merkleroot": "2753f54af3c7cb1dd2a141f246082bb72fd2346843189649175b5eee8d954132",
  "time": 1232853740,
  "mediantime": 1232851095,
  "nonce": 31790303,
  "bits": "1d00ffff",
  "difficulty": 1,
  "chainwork": "000000000000000000000000000000000000000000000000000006a606a606a6",
  "nTx": 1,
  "previousblockhash": "000000009bf03aa138b1bb31491261221f8d4562941c1022a798acda7e3158d4",
  "nextblockhash": "000000007dd71ae3fff47a7c60552dfd33b33250882f0d5d1751d7695681ba40",
  "strippedsize": 215,
  "size": 215,
  "weight": 860,
  "tx": [
    {
      "txid": "2753f54af3c7cb1dd2a141f246082bb72fd2346843189649175b5eee8d954132",
      "hash": "2753f54af3c7cb1dd2a141f246082bb72fd2346843189649175b5eee8d954132",
      "version": 1,
      "size": 134,
      "vsize": 134,
      "weight": 536,
      "locktime": 0,
      "vin": [
        {
          "coinbase": "04ffff001d0111",
          "sequence": 4294967295
        }
      ],
      "vout": [
        {
          "value": 50.0,
          "n": 0,
          "scriptPubKey": {
            "asm": "048f6fe355b750b01ffdce89ca28814a13b4bfbc9476631157cbaef23f7aba8118114126ad4d95b4326926e103d3129b67d8a9a521777953175e47d9c9b856d9f7 OP_CHECKSIG",
            "desc": "pk(048f6fe355b750b01ffdce89ca28814a13b4bfbc9476631157cbaef23f7aba8118114126ad4d95b4326926e103d3129b67d8a9a521777953175e47d9c9b856d9f7)#2umw5rnv",
            "hex": "41048f6fe355b750b01ffdce89ca28814a13b4bfbc9476631157cbaef23f7aba8118114126ad4d95b4326926e103d3129b67d8a9a521777953175e47d9c9b856d9f7ac",
            "type": "pubkey"
          }
        }
      ],
      "hex": "01000000010000000000000000000000000000000000000000000000000000000000000000ffffffff0704ffff001d0111ffffffff0100f2052a010000004341048f6fe355b750b01ffdce89ca28814a13b4bfbc9476631157cbaef23f7aba8118114126ad4d95b4326926e103d3129b67d8a9a521777953175e47d9c9b856d9f7ac00000000"
    }
  ]
}