{
  "hash": "00000000763b46e83b0cbcd99e679fc01840d5e804ac3df3181b40dd80036646",
  "confirmations": 45558,
  "height": 7540,
  "version": 1,
  "versionHex": "00000001",
  "merkleroot": "b1cdf836397fb152d90f5d86af2a8eeb5677f9645e5137acbf6f4982c03d2131",
  "time": 1237127842,
  "mediantime": 1237125391,
  "nonce": 3052381238,
  "bits": "1d00ffff",
  "difficulty": 1,
  "chainwork": "00000000000000000000000000000000000000000000000000001d751d751d75",
  "nTx": 1,
  "previousblockhash": "000000003b04f1b0a58347fbe06b5cc312c1a7a69ecbc4b0ee0725e7eb233164",
  "nextblockhash": "00000000d70d009d4d07f21abfaea48654e63e28f38fe0685e3b0dea50f536de",
  "strippedsize": 216,
  "size": 216,
  "weight": 864,
  "tx": [
    {
      "txid": "b1cdf836397fb152d90f5d86af2a8eeb5677f9645e5137acbf6f4982c03d2131",
      "hash": "b1cdf836397fb152d90f5d86af2a8eeb5677f9645e5137acbf6f4982c03d2131",
      "version": 1,
      "size": 135,
      "vsize": 135,
      "weight": 540,
      "locktime": 0,
      "vin": [
        {
          "coinbase": "04ffff001d02ab01",
          "sequence": 4294967295
        }
      ],
      "vout": [
        {
          "value": 50.0,
          "n": 0,
          "scriptPubKey": {
            "asm": "047555f39a7af5488da8228214f6cb8342a470ab49b9cea8b8ba09ce040cce229eef7455bd9a236ba5146ff6b1f47f2fad87f771d97e3dd91fb7f6e2b393f1f617 OP_CHECKSIG",
            "desc": "pk(047555f39a7af5488da8228214f6cb8342a470ab49b9cea8b8ba09ce040cce229eef7455bd9a236ba5146ff6b1f47f2fad87f771d97e3dd91fb7f6e2b393f1f617)#23f8dm9s",
            "hex": "41047555f39a7af5488da8228214f6cb8342a470ab49b9cea8b8ba09ce040cce229eef7455bd9a236ba5146ff6b1f47f2fad87f771d97e3dd91fb7f6e2b393f1f617ac",
            "type": "pubkey"
          }
        }
      ],
      "hex": "01000000010000000000000000000000000000000000000000000000000000000000000000ffffffff0804ffff001d02ab01ffffffff0100f2052a010000004341047555f39a7af5488da8228214f6cb8342a470ab49b9cea8b8ba09ce040cce229eef7455bd9a236ba5146ff6b1f47f2fad87f771d97e3dd91fb7f6e2b393f1f617ac00000000"
    }
  ]
}