{
  "hash": "00000000c6bdeda56c538ca9a63a2f0e46c5e3df8c0eac955300f1964f5cb1a8",
  "confirmations": 51662,
  "height": 1436,
  "version": 1,
  "versionHex": "00000001",
  "merkleroot": "3db445c1fbce899ea4286b8e80afaf5dd932393a39c55652a20e9a8fe3c79a35",
  "time": 1232741127,
  "mediantime": 1232738035,
  "nonce": 2609396514,
  "bits": "1d00ffff",
  "difficulty": 1,
  "chainwork": "0000000000000000000000000000000000000000000000000000059d059d059d",
  "nTx": 1,
  "previousblockhash": "00000000d90d095ad40666d8ad56af00b8c8b32b39a79301ddd58a35e0176654",
  "nextblockhash": "000000008f346cd97b39692b44d0cfc824c4f19454bbde5f26f5d03434751fbc",
  "strippedsize": 215,
  "size": 215,
  "weight": 860,
  "tx": [
    {
      "txid": "3db445c1fbce899ea4286b8e80afaf5dd932393a39c55652a20e9a8fe3c79a35",
      "hash": "3db445c1fbce899ea4286b8e80afaf5dd932393a39c55652a20e9a8fe3c79a35",
      "version": 1,
      "size": 134,
      "vsize": 134,
      "weight": 536,
      "locktime": 0,
      "vin": [
        {
          "coinbase": "04ffff001d0177",
          "sequence": 4294967295
        }
      ],
      "vout": [
        {
          "value": 50.0,
          "n": 0,
          "scriptPubKey": {
            "asm": "04b0eabd1c248dc40429861f5e6046489665b0e8aedb6afd9c78acab91d0a57a4c7d946cc7c79710c2c49bf1647f0dd1c59455e81208cf5ac84b38e9ac8693b325 OP_CHECKSIG",
            "desc": "pk(04b0eabd1c248dc40429861f5e6046489665b0e8aedb6afd9c78acab91d0a57a4c7d946cc7c79710c2c49bf1647f0dd1c59455e81208cf5ac84b38e9ac8693b325)#v38ptkhf",
            "hex": "4104b0eabd1c248dc40429861f5e6046489665b0e8aedb6afd9c78acab91d0a57a4c7d946cc7c79710c2c49bf1647f0dd1c59455e81208cf5ac84b38e9ac8693b325ac",
            "type": "pubkey"
          }
        }
      ],
      "hex": "01000000010000000000000000000000000000000000000000000000000000000000000000ffffffff0704ffff001d0177ffffffff0100f2052a01000000434104b0eabd1c248dc40429861f5e6046489665b0e8aedb6afd9c78acab91d0a57a4c7d946cc7c79710c2c49bf1647f0dd1c59455e81208cf5ac84b38e9ac8693b325ac00000000"
    }
  ]
}