{
  "hash": "0000000086297b5867c36c29a525c33717be5ccd4ecc1dd85f71dd28b22dfd0c",
  "confirmations": 50006,
  "height": 3092,
  "version": 1,
  "versionHex": "00000001",
  "merkleroot": "77ace1d1201088b56232cac32575b6e34a9a376fcd885758e36d3c19933ce1de",
  "time": 1233828263,
  "mediantime": 1233823926,
  "nonce": 760425252,
  "bits": "1d00ffff",
  "difficulty": 1,
  "chainwork": "00000000000000000000000000000000000000000000000000000c150c150c15",
  "nTx": 1,
  "previousblockhash": "000000009aa083e76b59647fe7b1b73d9ee18470741c59d788b33d9ca9e1b815",
  "nextblockhash": "00000000bd597f760d80147a29f1b59af24971b77431683c1f01ff6b7b1e30bb",
  "strippedsize": 216,
  "size": 216,
  "weight": 864,
  "tx": [
    {
      "txid": "77ace1d1201088b56232cac32575b6e34a9a376fcd885758e36d3c19933ce1de",
      "hash": "77ace1d1201088b56232cac32575b6e34a9a376fcd885758e36d3c19933ce1de",
      "version": 1,
      "size": 135,
      "vsize": 135,
      "weight": 540,
      "locktime": 0,
      "vin": [
        {
          "coinbase": "04ffff001d020a01",
          "sequence": 4294967295
        }
      ],
      "vout": [
        {
          "value": 50.0,
          "n": 0,
          "scriptPubKey": {
            "asm": "04990a14d8f025cd91ca6c43c4a8238a535ff0ffb987b4eec88e2f7d15c7329972508f0d0c71f288e79c3af74aaa14ef2c36541a466ef60e60c3a2bb3346ea04bf OP_CHECKSIG",
            "desc": "pk(04990a14d8f025cd91ca6c43c4a8238a535ff0ffb987b4eec88e2f7d15c7329972508f0d0c71f288e79c3af74aaa14ef2c36541a466ef60e60c3a2bb3346ea04bf)#9hs77pxl",
            "hex": "4104990a14d8f025cd91ca6c43c4a8238a535ff0ffb987b4eec88e2f7d15c7329972508f0d0c71f288e79c3af74aaa14ef2c36541a466ef60e60c3a2bb3346ea04bfac",
            "type": "pubkey"
          }
        }
      ],
      "hex": "01000000010000000000000000000000000000000000000000000000000000000000000000ffffffff0804ffff001d020a01ffffffff0100f2052a01000000434104990a14d8f025cd91ca6c43c4a8238a535ff0ffb987b4eec88e2f7d15c7329972508f0d0c71f288e79c3af74aaa14ef2c36541a466ef60e60c3a2bb3346ea04bfac00000000"
    }
  ]
}