{
  "hash": "000000006f016342d1275be946166cff975c8b27542de70a7113ac6d1ef3294f",
  "confirmations": 51796,
  "height": 21,
  "version": 1,
  "versionHex": "00000001",
  "merkleroot": "e0175970efb4417950921bfcba2a3a1e88c007c21232ff706009cc70b89210b4",
  "time": 1231566553,
  "mediantime": 1231562758,
  "nonce": 3592540203,
  "bits": "1d00ffff",
  "difficulty": 1,
  "chainwork": "0000000000000000000000000000000000000000000000000000001600160016",
  "nTx": 1,
  "previousblockhash": "0000000067a97a2a37b8f190a17f0221e9c3f4fa824ddffdc2e205eae834c8d7",
  "nextblockhash": "0000000098b58d427a10c860335a21c1a9a7639e96c3d6f1a03d8c8c885b5e3b",
  "strippedsize": 215,
  "size": 215,
  "weight": 860,
  "tx": [
    {
      "txid": "e0175970efb4417950921bfcba2a3a1e88c007c21232ff706009cc70b89210b4",
      "hash": "e0175970efb4417950921bfcba2a3a1e88c007c21232ff706009cc70b89210b4",
      "version": 1,
      "size": 134,
      "vsize": 134,
      "weight": 536,
      "locktime": 0,
      "vin": [
        {
          "coinbase": "04ffff001d0125",
          "sequence": 4294967295
        }
      ],
      "vout": [
        {
          "value": 50.0,
          "n": 0,
          "scriptPubKey": {
            "asm": "042b08ebb6ada0057e47a125d0a2e99dd2b86c201d41aaf7aa295c625c2c2f1997a8bc6cb9dbda889669989b8d12804c400168e54b093ad05d1170c516abca7d28 OP_CHECKSIG",
            "desc": "pk(042b08ebb6ada0057e47a125d0a2e99dd2b86c201d41aaf7aa295c625c2c2f1997a8bc6cb9dbda889669989b8d12804c400168e54b093ad05d1170c516abca7d28)#z0c3acxy",
            "hex": "41042b08ebb6ada0057e47a125d0a2e99dd2b86c201d41aaf7aa295c625c2c2f1997a8bc6cb9dbda889669989b8d12804c400168e54b093ad05d1170c516abca7d28ac",
            "type": "pubkey"
          }
        }
      ],
      "hex": "01000000010000000000000000000000000000000000000000000000000000000000000000ffffffff0704ffff001d0125ffffffff0100f2052a010000004341042b08ebb6ada0057e47a125d0a2e99dd2b86c201d41aaf7aa295c625c2c2f1997a8bc6cb9dbda889669989b8d12804c400168e54b093ad05d1170c516abca7d28ac00000000"
    }
  ]
}