{
  "hash": "0000000009c730652f9bacbf750723245979b5978dd8332fb3581a90c3a5bda8",
  "confirmations": 52029,
  "height": 202,
  "version": 1,
  "versionHex": "00000001",
  "merkleroot": "3eb409c61a3314558d8355a9f2e5ab4470cd12cac3d3eb48c1f76282e8fee468",
  "time": 1231754944,
  "mediantime": 1231751312,
  "nonce": 2320706856,
  "bits": "1d00ffff",
  "difficulty": 1,
  "chainwork": "000000000000000000000000000000000000000000000000000000cb00cb00cb",
  "nTx": 1,
  "previousblockhash": "000000002b50d5963806b024fa09d296a3d8762713536eba9e5bdfa7596f814a",
  "nextblockhash": "000000001ee5a7a841a87b59245aa36f03b5d7d3d43963d0f2bf76f3d1fc2172",
  "strippedsize": 215,
  "size": 215,
  "weight": 860,
  "tx": [
    {
      "txid": "3eb409c61a3314558d8355a9f2e5ab4470cd12cac3d3eb48c1f76282e8fee468",
      "hash": "3eb409c61a3314558d8355a9f2e5ab4470cd12cac3d3eb48c1f76282e8fee468",
      "version": 1,
      "size": 134,
      "vsize": 134,
      "weight": 536,
      "locktime": 0,
      "vin": [
        {
          "coinbase": "04ffff001d013c",
          "sequence": 4294967295
        }
      ],
      "vout": [
        {
          "value": 50.0,
          "n": 0,
          "scriptPubKey": {
            "asm": "04bc2a9a9b73e3bc77c70a4dee07899eb65923e7535cd615e962ce7691f7d22733c50859b5d75bc58d9d0774c7a8c4f8c43fadc6a150c690ec7dd42e28f05d35a1 OP_CHECKSIG",
            "desc": "pk(04bc2a9a9b73e3bc77c70a4dee07899eb65923e7535cd615e962ce7691f7d22733c50859b5d75bc58d9d0774c7a8c4f8c43fadc6a150c690ec7dd42e28f05d35a1)#2nnls77t",
            "hex": "4104bc2a9a9b73e3bc77c70a4dee07899eb65923e7535cd615e962ce7691f7d22733c50859b5d75bc58d9d0774c7a8c4f8c43fadc6a150c690ec7dd42e28f05d35a1ac",
            "type": "pubkey"
          }
        }
      ],
      "hex": "01000000010000000000000000000000000000000000000000000000000000000000000000ffffffff0704ffff001d013cffffffff0100f2052a01000000434104bc2a9a9b73e3bc77c70a4dee07899eb65923e7535cd615e962ce7691f7d22733c50859b5d75bc58d9d0774c7a8c4f8c43fadc6a150c690ec7dd42e28f05d35a1ac00000000"
    }
  ]
}