{
  "hash": "00000000f7e3f660f4169fc14fc53f9b848d8c091cc7a573cbfd8dec6dd04ee3",
  "confirmations": 45327,
  "height": 7771,
  "version": 1,
  "versionHex": "00000001",
  "merkleroot": "85a901c29ad869f7078a8e34cc6300468dd1246aaac35d5712c64724b66fa04b",
  "time": 1237294335,
  "mediantime": 1237289885,
  "nonce": 440392519,
  "bits": "1d00ffff",
  "difficulty": 1,
  "chainwork": "00000000000000000000000000000000000000000000000000001e5c1e5c1e5c",
  "nTx": 1,
  "previousblockhash": "00000000d0f016b5d0f7a74996da46b26b60bcb44b51f351674c5bd1db05f3e1",
  "nextblockhash": "00000000eec7489e37434253d87f78af46c0aff353e1495a92ea414497161500",
  "strippedsize": 216,
  "size": 216,
  "weight": 864,
  "tx": [
    {
      "txid": "85a901c29ad869f7078a8e34cc6300468dd1246aaac35d5712c64724b66fa04b",
      "hash": "85a901c29ad869f7078a8e34cc6300468dd1246aaac35d5712c64724b66fa04b",
      "version": 1,
      "size": 135,
      "vsize": 135,
      "weight": 540,
      "locktime": 0,
      "vin": [
        {
          "coinbase": "04ffff001d02fa03",
          "sequence": 4294967295
        }
      ],
      "vout": [
        {
          "value": 50.0,
          "n": 0,
          "scriptPubKey": {
            "asm": "046e8a11efc8431b9237f1edb8c11a7efd53bee171be0fb9ecb61cc3ee4ffc2fcca42699ed3041d96f0e3dfea2ef5ae4048cdfa20813dace9ff56f04daa3c00b3d OP_CHECKSIG",
            "desc": "pk(046e8a11efc8431b9237f1edb8c11a7efd53bee171be0fb9ecb61cc3ee4ffc2fcca42699ed3041d96f0e3dfea2ef5ae4048cdfa20813dace9ff56f04daa3c00b3d)#55f0m25n",
            "hex": "41046e8a11efc8431b9237f1edb8c11a7efd53bee171be0fb9ecb61cc3ee4ffc2fcca42699ed3041d96f0e3dfea2ef5ae4048cdfa20813dace9ff56f04daa3c00b3dac",
            "type": "pubkey"
          }
        }
      ],
      "hex": "01000000010000000000000000000000000000000000000000000000000000000000000000ffffffff0804ffff001d02fa03ffffffff0100f2052a010000004341046e8a11efc8431b9237f1edb8c11a7efd53bee171be0fb9ecb61cc3ee4ffc2fcca42699ed3041d96f0e3dfea2ef5ae4048cdfa20813dace9ff56f04daa3c00b3dac00000000"
    }
  ]
}