{
  "hash": "0000000081ca2fde084c7a0d8b14d0385f3d39d78870019e36e2c36195b30879",
  "confirmations": 45015,
  "height": 8083,
  "version": 1,
  "versionHex": "00000001",
  "merkleroot": "01f94d9b9160e6a502e45eaccedde7bff5ca26cbb04c254733faf2f0e19749f1",
  "time": 1237519789,
  "mediantime": 1237515828,
  "nonce": 134551345,
  "bits": "1d00ffff",
  "difficulty": 1,
  "chainwork": "00000000000000000000000000000000000000000000000000001f941f941f94",
  "nTx": 1,
  "previousblockhash": "0000000080c1f3e776e94b1ebf991c912f1c3374c3377b43d14933ca5eef4dbd",
  "nextblockhash": "00000000f9bd06e9019e31de128ad309640bb7621f87329d8c8755712bfbbc3d",
  "strippedsize": 216,
  "size": 216,
  "weight": 864,
  "tx": [
    {
      "txid": "01f94d9b9160e6a502e45eaccedde7bff5ca26cbb04c254733faf2f0e19749f1",
      "hash": "01f94d9b9160e6a502e45eaccedde7bff5ca26cbb04c254733faf2f0e19749f1",
      "version": 1,
      "size": 135,
      "vsize": 135,
      "weight": 540,
      "locktime": 0,
      "vin": [
        {
          "coinbase": "04ffff001d02d400",
          "sequence": 4294967295
        }
      ],
      "vout": [
        {
          "value": 50.0,
          "n": 0,
          "scriptPubKey": {
            "asm": "0492008eae0981e28402c0baa7f6491f0e4de7a05bc203b578a2d8a01658128027d6a7a2d48f12ad16a4bff2f11f17a8a9ab15f684a12a42ebb88388ef296e6c5e OP_CHECKSIG",
            "desc": "pk(0492008eae0981e28402c0baa7f6491f0e4de7a05bc203b578a2d8a01658128027d6a7a2d48f12ad16a4bff2f11f17a8a9ab15f684a12a42ebb88388ef296e6c5e)#3xzj84zr",
            "hex": "410492008eae0981e28402c0baa7f6491f0e4de7a05bc203b578a2d8a01658128027d6a7a2d48f12ad16a4bff2f11f17a8a9ab15f684a12a42ebb88388ef296e6c5eac",
            "type": "pubkey"
          }
        }
      ],
      "hex": "01000000010000000000000000000000000000000000000000000000000000000000000000ffffffff0804ffff001d02d400ffffffff0100f2052a0100000043410492008eae0981e28402c0baa7f6491f0e4de7a05bc203b578a2d8a01658128027d6a7a2d48f12ad16a4bff2f11f17a8a9ab15f684a12a42ebb88388ef296e6c5eac00000000"
    }
  ]
}