{
  "hash": "000000002468fc7e0c243e0eef9049a90617baca0cf17186aa5df9d1f15a5f60",
  "confirmations": 49896,
  "height": 3202,
  "version": 1,
  "versionHex": "00000001",
  "merkleroot": "284f44d41267a97a0f7c2eeccb23cb3e28d6f8b8e3f95fbbd23977b965d9afc8",
  "time": 1233902612,
  "mediantime": 1233897351,
  "nonce": 73428678,
  "bits": "1d00ffff",
  "difficulty": 1,
  "chainwork": "00000000000000000000000000000000000000000000000000000c830c830c83",
  "nTx": 1,
  "previousblockhash": "000000002cc7aa44265bc9802bdb2aae0fd16493a861779838ed65ee1627351a",
  "nextblockhash": "00000000a7ef095b4e52e6a684eddc6916aaab53ac32c6378408233c8b70ff9f",
  "strippedsize": 215,
  "size": 215,
  "weight": 860,
  "tx": [
    {
      "txid": "284f44d41267a97a0f7c2eeccb23cb3e28d6f8b8e3f95fbbd23977b965d9afc8",
      "hash": "284f44d41267a97a0f7c2eeccb23cb3e28d6f8b8e3f95fbbd23977b965d9afc8",
      "version": 1,
      "size": 134,
      "vsize": 134,
      "weight": 536,
      "locktime": 0,
      "vin": [
        {
          "coinbase": "04ffff001d0149",
          "sequence": 4294967295
        }
      ],
      "vout": [
        {
          "value": 50.0,
          "n": 0,
          "scriptPubKey": {
            "asm": "04e07a12c962ccf48f29ec1ea0e981e09261a3c99e717071c54c62226824719ac07410a62108e01da2c527b4bed2546c4e1f138f4bc7983077df3005827600ac31 OP_CHECKSIG",
            "desc": "pk(04e07a12c962ccf48f29ec1ea0e981e09261a3c99e717071c54c62226824719ac07410a62108e01da2c527b4bed2546c4e1f138f4bc7983077df3005827600ac31)#85zwyz0j",
            "hex": "4104e07a12c962ccf48f29ec1ea0e981e09261a3c99e717071c54c62226824719ac07410a62108e01da2c527b4bed2546c4e1f138f4bc7983077df3005827600ac31ac",
            "type": "pubkey"
          }
        }
      ],
      "hex": "01000000010000000000000000000000000000000000000000000000000000000000000000ffffffff0704ffff001d0149ffffffff0100f2052a01000000434104e07a12c962ccf48f29ec1ea0e981e09261a3c99e717071c54c62226824719ac07410a62108e01da2c527b4bed2546c4e1f138f4bc7983077df3005827600ac31ac00000000"
    }
  ]
}