{
  "hash": "000000001a2b99010ab59e07281c075ffdde342a1564ba1419036c30e4dff0f5",
  "confirmations": 49797,
  "height": 3301,
  "version": 1,
  "versionHex": "00000001",
  "merkleroot": "480f0b58c8639c6fbe6a15fc468502934d20f81a2807c62c8b96b8dfb36fc405",
  "time": 1233970379,
  "mediantime": 1233966740,
  "nonce": 2417083427,
  "bits": "1d00ffff",
  "difficulty": 1,
  "chainwork": "00000000000000000000000000000000000000000000000000000ce60ce60ce6",
  "nTx": 1,
  "previousblockhash": "00000000e5a427932794530bbadc6a9a6c354f030da4cd9b5765d866b51502fd",
  "nextblockhash": "00000000522607f1c46c1cc2f537863f0cf2ba7af30a6fe52c56b274d64f6390",
  "strippedsize": 216,
  "size": 216,
  "weight": 864,
  "tx": [
    {
      "txid": "480f0b58c8639c6fbe6a15fc468502934d20f81a2807c62c8b96b8dfb36fc405",
      "hash": "480f0b58c8639c6fbe6a15fc468502934d20f81a2807c62c8b96b8dfb36fc405",
      "version": 1,
      "size": 135,
      "vsize": 135,
      "weight": 540,
      "locktime": 0,
      "vin": [
        {
          "coinbase": "04ffff001d023f04",
          "sequence": 4294967295
        }
      ],
      "vout": [
        {
          "value": 50.0,
          "n": 0,
          "scriptPubKey": {
            "asm": "04b13bfebbec29035676ac6aadbbbef3ff7431510237dcc3639905c405293f6e56e9faa5baab3d20a68bd846c4c4f58597e1788bbbd2e4883c5caaab3b4cef0b04 OP_CHECKSIG",
            "desc": "pk(04b13bfebbec29035676ac6aadbbbef3ff7431510237dcc3639905c405293f6e56e9faa5baab3d20a68bd846c4c4f58597e1788bbbd2e4883c5caaab3b4cef0b04)#yh5y8yys",
            "hex": "4104b13bfebbec29035676ac6aadbbbef3ff7431510237dcc3639905c405293f6e56e9faa5baab3d20a68bd846c4c4f58597e1788bbbd2e4883c5caaab3b4cef0b04ac",
            "type": "pubkey"
          }
        }
      ],
      "hex": "01000000010000000000000000000000000000000000000000000000000000000000000000ffffffff0804ffff001d023f04ffffffff0100f2052a01000000434104b13bfebbec29035676ac6aadbbbef3ff7431510237dcc3639905c405293f6e56e9faa5baab3d20a68bd846c4c4f58597e1788bbbd2e4883c5caaab3b4cef0b04ac00000000"
    }
  ]
}