{
  "hash": "0000000022fcfe5272c4a161a8bab8a3a83916f4112f447d247a5a7a0d4ec493",
  "confirmations": 51167,
  "height": 1931,
  "version": 1,
  "versionHex": "00000001",
  "merkleroot": "d4468b355b92df2de457ffc29e0be649d13a2b681ca66bfa62931479b06c3976",
  "time": 1232991559,
  "mediantime": 1232986974,
  "nonce": 3505807625,
  "bits": "1d00ffff",
  "difficulty": 1,
  "chainwork": "0000000000000000000000000000000000000000000000000000078c078c078c",
  "nTx": 1,
  "previousblockhash": "000000007b7657a7d2ad592b5103ca326d9eccb9fb4a4fa838522d80fec99b68",
  "nextblockhash": "000000009bb7b47ddffa6ca1e28f110914d54e9cbf912e2d366f30016932b9d9",
  "strippedsize": 215,
  "size": 215,
  "weight": 860,
  "tx": [
    {
      "txid": "d4468b355b92df2de457ffc29e0be649d13a2b681ca66bfa62931479b06c3976",
      "hash": "d4468b355b92df2de457ffc29e0be649d13a2b681ca66bfa62931479b06c3976",
      "version": 1,
      "size": 134,
      "vsize": 134,
      "weight": 536,
      "locktime": 0,
      "vin": [
        {
          "coinbase": "04ffff001d0142",
          "sequence": 4294967295
        }
      ],
      "vout": [
        {
          "value": 50.0,
          "n": 0,
          "scriptPubKey": {
            "asm": "043588076635cb7bbc11af738d05a719b4dbc356a3bec99acc9642432c16ebf9f39491ddb2864f5c88994af9fc86421e73d2aa000af7dddf1078e9876c88c81a0d OP_CHECKSIG",
            "desc": "pk(043588076635cb7bbc11af738d05a719b4dbc356a3bec99acc9642432c16ebf9f39491ddb2864f5c88994af9fc86421e73d2aa000af7dddf1078e9876c88c81a0d)#drm9vypc",
            "hex": "41043588076635cb7bbc11af738d05a719b4dbc356a3bec99acc9642432c16ebf9f39491ddb2864f5c88994af9fc86421e73d2aa000af7dddf1078e9876c88c81a0dac",
            "type": "pubkey"
          }
        }
      ],
      "hex": "01000000010000000000000000000000000000000000000000000000000000000000000000ffffffff0704ffff001d0142ffffffff0100f2052a010000004341043588076635cb7bbc11af738d05a719b4dbc356a3bec99acc9642432c16ebf9f39491ddb2864f5c88994af9fc86421e73d2aa000af7dddf1078e9876c88c81a0dac00000000"
    }
  ]
}