{
  "hash": "0000000080a79cd6eb65fe147f655d0f17a00e2629dba2800a1563982cf91f12",
  "confirmations": 44740,
  "height": 8358,
  "version": 1,
  "versionHex": "00000001",
  "merkleroot": "a8be76d1e7e84b481ca1d7701320fd4a4d6aeefefa8836812984e0b4733ec3f7",
  "time": 1237772159,
  "mediantime": 1237769887,
  "nonce": 4350514,
  "bits": "1d00ffff",
  "difficulty": 1,
  "chainwork": "000000000000000000000000000000000000000000000000000020a720a720a7",
  "nTx": 1,
  "previousblockhash": "0000000040621f33019e2f9d8bb8bd0b666aad435c94df1fb86e64b8146cf86b",
  "nextblockhash": "0000000057921684b09457cbaba3b5c7809b40b1e37f71dc54e3b86b5bfaec7e",
  "strippedsize": 216,
  "size": 216,
  "weight": 864,
  "tx": [
    {
      "txid": "a8be76d1e7e84b481ca1d7701320fd4a4d6aeefefa8836812984e0b4733ec3f7",
      "hash": "a8be76d1e7e84b481ca1d7701320fd4a4d6aeefefa8836812984e0b4733ec3f7",
      "version": 1,
      "size": 135,
      "vsize": 135,
      "weight": 540,
      "locktime": 0,
      "vin": [
        {
          "coinbase": "04ffff001d026e01",
          "sequence": 4294967295
        }
      ],
      "vout": [
        {
          "value": 50.0,
          "n": 0,
          "scriptPubKey": {
            "asm": "046f8c3dd5000755f20c26a4b127ad3738a3a78980339409810892cd4090f8f007020988c40bb3c25f2751210028f706380ecbf260a189da0bef4037a2e13c2060 OP_CHECKSIG",
            "desc": "pk(046f8c3dd5000755f20c26a4b127ad3738a3a78980339409810892cd4090f8f007020988c40bb3c25f2751210028f706380ecbf260a189da0bef4037a2e13c2060)#2a5tjygk",
            "hex": "41046f8c3dd5000755f20c26a4b127ad3738a3a78980339409810892cd4090f8f007020988c40bb3c25f2751210028f706380ecbf260a189da0bef4037a2e13c2060ac",
            "type": "pubkey"
          }
        }
      ],
      "hex": "01000000010000000000000000000000000000000000000000000000000000000000000000ffffffff0804ffff001d026e01ffffffff0100f2052a010000004341046f8c3dd5000755f20c26a4b127ad3738a3a78980339409810892cd4090f8f007020988c40bb3c25f2751210028f706380ecbf260a189da0bef4037a2e13c2060ac00000000"
    }
  ]
}