{
  "hash": "00000000163e0be930c1049da5864c0e6b38a68df9938539e32fd57b2e14ba12",
  "confirmations": 52159,
  "height": 939,
  "version": 1,
  "versionHex": "00000001",
  "merkleroot": "37b1cdf50109c5a5cf6a4eae97f370e033e17ac6cea1abb0e38ed130c2d7df34",
  "time": 1232306686,
  "mediantime": 1232303074,
  "nonce": 3859462918,
  "bits": "1d00ffff",
  "difficulty": 1,
  "chainwork": "000000000000000000000000000000000000000000000000000003ac03ac03ac",
  "nTx": 1,
  "previousblockhash": "0000000065f9ca25c3ea505c3913a71ccf0cfe9476c6ed643ad63dd22c074fd2",
  "nextblockhash": "00000000b9583a2efab8ac0f1f19d2f1d737e1e2b1c6672c88778099afd5a15f",
  "strippedsize": 216,
  "size": 216,
  "weight": 864,
  "tx": [
    {
      "txid": "37b1cdf50109c5a5cf6a4eae97f370e033e17ac6cea1abb0e38ed130c2d7df34",
      "hash": "37b1cdf50109c5a5cf6a4eae97f370e033e17ac6cea1abb0e38ed130c2d7df34",
      "version": 1,
      "size": 135,
      "vsize": 135,
      "weight": 540,
      "locktime": 0,
      "vin": [
        {
          "coinbase": "04ffff001d023c04",
          "sequence": 4294967295
        }
      ],
      "vout": [
        {
          "value": 50.0,
          "n": 0,
          "scriptPubKey": {
            "asm": "04a7d7f20c69474be7ee2a9332dc69715cb3f14e9b58e73d380298604377adb795165a02f2b6dd91bf374834d29c39067cff64259af7cfcc0f59ebe64d118a2f47 OP_CHECKSIG",
            "desc": "pk(04a7d7f20c69474be7ee2a9332dc69715cb3f14e9b58e73d380298604377adb795165a02f2b6dd91bf374834d29c39067cff64259af7cfcc0f59ebe64d118a2f47)#0zfz0jz8",
            "hex": "4104a7d7f20c69474be7ee2a9332dc69715cb3f14e9b58e73d380298604377adb795165a02f2b6dd91bf374834d29c39067cff64259af7cfcc0f59ebe64d118a2f47ac",
            "type": "pubkey"
          }
        }
      ],
      "hex": "01000000010000000000000000000000000000000000000000000000000000000000000000ffffffff0804ffff001d023c04ffffffff0100f2052a01000000434104a7d7f20c69474be7ee2a9332dc69715cb3f14e9b58e73d380298604377adb795165a02f2b6dd91bf374834d29c39067cff64259af7cfcc0f59ebe64d118a2f47ac00000000"
    }
  ]
}