{
  "hash": "0000000083f3b6ff05d6994814b2e9aba74f294635fd68a3155587c2a003a045",
  "confirmations": 47162,
  "height": 5936,
  "version": 1,
  "versionHex": "00000001",
  "merkleroot": "a8ad56b5814dd546f3765c919125c3939d91b856a082b4d5439030b29b7c9fc7",
  "time": 1235877474,
  "mediantime": 1235871926,
  "nonce": 252666841,
  "bits": "1d00ffff",
  "difficulty": 1,
  "chainwork": "0000000000000000000000000000000000000000000000000000173117311731",
  "nTx": 1,
  "previousblockhash": "000000007dc81a43d78ac2a6b7a21b99670e7cef083609a29098c181e97d06ae",
  "nextblockhash": "00000000a439be94e901c6b16149f25f549c72ee0c8aea08ff9f41f1734e2270",
  "strippedsize": 216,
  "size": 216,
  "weight": 864,
  "tx": [
    {
      "txid": "a8ad56b5814dd546f3765c919125c3939d91b856a082b4d5439030b29b7c9fc7",
      "hash": "a8ad56b5814dd546f3765c919125c3939d91b856a082b4d5439030b29b7c9fc7",
      "version": 1,
      "size": 135,
      "vsize": 135,
      "weight": 540,
      "locktime": 0,
      "vin": [
        {
          "coinbase": "04ffff001d02f508",
          "sequence": 4294967295
        }
      ],
      "vout": [
        {
          "value": 50.0,
          "n": 0,
          "scriptPubKey": {
            "asm": "04881650d30b9e0a725469b46a50b0b8c0f2792cd73c1085f5cc3036eb7a572a9ee9803086af711577e16e66f3e9746da032f0376801627606775572d4190eb986 OP_CHECKSIG",
            "desc": "pk(04881650d30b9e0a725469b46a50b0b8c0f2792cd73c1085f5cc3036eb7a572a9ee9803086af711577e16e66f3e9746da032f0376801627606775572d4190eb986)#dtu4dkmj",
            "hex": "4104881650d30b9e0a725469b46a50b0b8c0f2792cd73c1085f5cc3036eb7a572a9ee9803086af711577e16e66f3e9746da032f0376801627606775572d4190eb986ac",
            "type": "pubkey"
          }
        }
      ],
      "hex": "01000000010000000000000000000000000000000000000000000000000000000000000000ffffffff0804ffff001d02f508ffffffff0100f2052a01000000434104881650d30b9e0a725469b46a50b0b8c0f2792cd73c1085f5cc3036eb7a572a9ee9803086af711577e16e66f3e9746da032f0376801627606775572d4190eb986ac00000000"
    }
  ]
}