{
  "hash": "00000000734ab21f150418f24e54223ca0ee470a8472137931eb586b79a0c9ca",
  "confirmations": 48019,
  "height": 5079,
  "version": 1,
  "versionHex": "00000001",
  "merkleroot": "d4de0600f0ebb4c27e5f242f1795b513a61b59effeac9477da79ab84f00ab1db",
  "time": 1235200832,
  "mediantime": 1235195999,
  "nonce": 2217525029,
  "bits": "1d00ffff",
  "difficulty": 1,
  "chainwork": "000000000000000000000000000000000000000000000000000013d813d813d8",
  "nTx": 1,
  "previousblockhash": "00000000138212fdb5ad5c0d5be7962d7c76df0ae360473f2f81837e89014b78",
  "nextblockhash": "00000000b2a8a9fb671be4ea3e7d06acc927289aca57de843abceb67c9e7947e",
  "strippedsize": 216,
  "size": 216,
  "weight": 864,
  "tx": [
    {
      "txid": "d4de0600f0ebb4c27e5f242f1795b513a61b59effeac9477da79ab84f00ab1db",
      "hash": "d4de0600f0ebb4c27e5f242f1795b513a61b59effeac9477da79ab84f00ab1db",
      "version": 1,
      "size": 135,
      "vsize": 135,
      "weight": 540,
      "locktime": 0,
      "vin": [
        {
          "coinbase": "04ffff001d027d08",
          "sequence": 4294967295
        }
      ],
      "vout": [
        {
          "value": 50.0,
          "n": 0,
          "scriptPubKey": {
            "asm": "0442827ec6a87c37a1d12010dd00b4c382e1b581e6887a096aabfcfaacaa15482bc2f19f92cf243bf7ff65a597ee2d77e47d70b72b33532e53876bbaa2f11373f3 OP_CHECKSIG",
            "desc": "pk(0442827ec6a87c37a1d12010dd00b4c382e1b581e6887a096aabfcfaacaa15482bc2f19f92cf243bf7ff65a597ee2d77e47d70b72b33532e53876bbaa2f11373f3)#rde2pw3m",
            "hex": "410442827ec6a87c37a1d12010dd00b4c382e1b581e6887a096aabfcfaacaa15482bc2f19f92cf243bf7ff65a597ee2d77e47d70b72b33532e53876bbaa2f11373f3ac",
            "type": "pubkey"
          }
        }
      ],
      "hex": "01000000010000000000000000000000000000000000000000000000000000000000000000ffffffff0804ffff001d027d08ffffffff0100f2052a0100000043410442827ec6a87c37a1d12010dd00b4c382e1b581e6887a096aabfcfaacaa15482bc2f19f92cf243bf7ff65a597ee2d77e47d70b72b33532e53876bbaa2f11373f3ac00000000"
    }
  ]
}