{
  "hash": "0000000020bb707c700651de0154778daa43d211c910fa0553aa9dc360c3f513",
  "confirmations": 44489,
  "height": 8609,
  "version": 1,
  "versionHex": "00000001",
  "merkleroot": "dffc5b6371a2ec0cea4a98c70ad3dde23934907505eeec11eeef8b388df82513",
  "time": 1237956321,
  "mediantime": 1237953285,
  "nonce": 614351159,
  "bits": "1d00ffff",
  "difficulty": 1,
  "chainwork": "000000000000000000000000000000000000000000000000000021a221a221a2",
  "nTx": 1,
  "previousblockhash": "00000000be4d15eecaf3c7317c2e9858b2f432cfe679c6404543ec64a5ed4760",
  "nextblockhash": "00000000822d2e65cad013384fc0d73e8ab9fa39c5dcd3b6f16f6cfd46724bd9",
  "strippedsize": 216,
  "size": 216,
  "weight": 864,
  "tx": [
    {
      "txid": "dffc5b6371a2ec0cea4a98c70ad3dde23934907505eeec11eeef8b388df82513",
      "hash": "dffc5b6371a2ec0cea4a98c70ad3dde23934907505eeec11eeef8b388df82513",
      "version": 1,
      "size": 135,
      "vsize": 135,
      "weight": 540,
      "locktime": 0,
      "vin": [
        {
          "coinbase": "04ffff001d02a009",
          "sequence": 4294967295
        }
      ],
      "vout": [
        {
          "value": 50.0,
          "n": 0,
          "scriptPubKey": {
            "asm": "04b2b4bcd87296e0873de849a61eb5b498dbb25f06d67e4d5dabbc2e9694b08a9fd5c1c2396fa59675d4c06a169de3105b9693685a71abf6943e78ffbfc0955605 OP_CHECKSIG",
            "desc": "pk(04b2b4bcd87296e0873de849a61eb5b498dbb25f06d67e4d5dabbc2e9694b08a9fd5c1c2396fa59675d4c06a169de3105b9693685a71abf6943e78ffbfc0955605)#xkkyjht8",
            "hex": "4104b2b4bcd87296e0873de849a61eb5b498dbb25f06d67e4d5dabbc2e9694b08a9fd5c1c2396fa59675d4c06a169de3105b9693685a71abf6943e78ffbfc0955605ac",
            "type": "pubkey"
          }
        }
      ],
      "hex": "01000000010000000000000000000000000000000000000000000000000000000000000000ffffffff0804ffff001d02a009ffffffff0100f2052a01000000434104b2b4bcd87296e0873de849a61eb5b498dbb25f06d67e4d5dabbc2e9694b08a9fd5c1c2396fa59675d4c06a169de3105b9693685a71abf6943e78ffbfc0955605ac00000000"
    }
  ]
}