{
  "hash": "000000004c2a22b369556e823dfe3c54e57f21044af3ddc00949d5b7268a33fa",
  "confirmations": 51173,
  "height": 1925,
  "version": 1,
  "versionHex": "00000001",
  "merkleroot": "a419eddff28e3eb3ae0074e5881cce2762644507c540f409926a8e7b0c11b93f",
  "time": 1232986001,
  "mediantime": 1232979519,
  "nonce": 660849186,
  "bits": "1d00ffff",
  "difficulty": 1,
  "chainwork": "0000000000000000000000000000000000000000000000000000078607860786",
  "nTx": 1,
  "previousblockhash": "000000004a24f3f9059dab115d7358b7e9b19bef4cf64f86280ef7d38ae5964d",
  "nextblockhash": "00000000e90092af9098f9b26543d36431cd10799b6ef669e938b28b9ef83da6",
  "strippedsize": 215,
  "size": 215,
  "weight": 860,
  "tx": [
    {
      "txid": "a419eddff28e3eb3ae0074e5881cce2762644507c540f409926a8e7b0c11b93f",
      "hash": "a419eddff28e3eb3ae0074e5881cce2762644507c540f409926a8e7b0c11b93f",
      "version": 1,
      "size": 134,
      "vsize": 134,
      "weight": 536,
      "locktime": 0,
      "vin": [
        {
          "coinbase": "04ffff001d010f",
          "sequence": 4294967295
        }
      ],
      "vout": [
        {
          "value": 50.0,
          "n": 0,
          "scriptPubKey": {
            "asm": "04d48475177f6031bdc3384af43882b1ec1d936d5b11170079c219ea62bbdae680cb705f4e817882d0239d0b3ce91e90422ec39e928dc843aaf8725e347b90efd2 OP_CHECKSIG",
            "desc": "pk(04d48475177f6031bdc3384af43882b1ec1d936d5b11170079c219ea62bbdae680cb705f4e817882d0239d0b3ce91e90422ec39e928dc843aaf8725e347b90efd2)#j5xp5rk6",
            "hex": "4104d48475177f6031bdc3384af43882b1ec1d936d5b11170079c219ea62bbdae680cb705f4e817882d0239d0b3ce91e90422ec39e928dc843aaf8725e347b90efd2ac",
            "type": "pubkey"
          }
        }
      ],
      "hex": "01000000010000000000000000000000000000000000000000000000000000000000000000ffffffff0704ffff001d010fffffffff0100f2052a01000000434104d48475177f6031bdc3384af43882b1ec1d936d5b11170079c219ea62bbdae680cb705f4e817882d0239d0b3ce91e90422ec39e928dc843aaf8725e347b90efd2ac00000000"
    }
  ]
}