{
  "hash": "000000009c14fcf25accc008b8e411fbdc7cad3ac899e5f7150de1fca3a7c913",
  "confirmations": 46128,
  "height": 6970,
  "version": 1,
  "versionHex": "00000001",
  "merkleroot": "3aef657630399f8207b9fa0e6bc933a56b5c5cfd12828d96b2db02eda109d57d",
  "time": 1236694141,
  "mediantime": 1236690721,
  "nonce": 345495637,
  "bits": "1d00ffff",
  "difficulty": 1,
  "chainwork": "00000000000000000000000000000000000000000000000000001b3b1b3b1b3b",
  "nTx": 1,
  "previousblockhash": "00000000545b95108c138019753166d1357acbd15766c791eb0ad63ebea6eb42",
  "nextblockhash": "0000000099b9897953e0ce9ff781acde095228557b9fa095e5a51b7d2804ac16",
  "strippedsize": 215,
  "size": 215,
  "weight": 860,
  "tx": [
    {
      "txid": "3aef657630399f8207b9fa0e6bc933a56b5c5cfd12828d96b2db02eda109d57d",
      "hash": "3aef657630399f8207b9fa0e6bc933a56b5c5cfd12828d96b2db02eda109d57d",
      "version": 1,
      "size": 134,
      "vsize": 134,
      "weight": 536,
      "locktime": 0,
      "vin": [
        {
          "coinbase": "04ffff001d0151",
          "sequence": 4294967295
        }
      ],
      "vout": [
        {
          "value": 50.0,
          "n": 0,
          "scriptPubKey": {
            "asm": "0416ddf5e95cd7847381d4d3568bf3f1cc818e157c9c7708649a7b9194fdf18b00542d208b88466905c623f83375df6960ff5313e07c2f226099c965a3c39ee4c1 OP_CHECKSIG",
            "desc": "pk(0416ddf5e95cd7847381d4d3568bf3f1cc818e157c9c7708649a7b9194fdf18b00542d208b88466905c623f83375df6960ff5313e07c2f226099c965a3c39ee4c1)#g7fnkh3n",
            "hex": "410416ddf5e95cd7847381d4d3568bf3f1cc818e157c9c7708649a7b9194fdf18b00542d208b88466905c623f83375df6960ff5313e07c2f226099c965a3c39ee4c1ac",
            "type": "pubkey"
          }
        }
      ],
      "hex": "01000000010000000000000000000000000000000000000000000000000000000000000000ffffffff0704ffff001d0151ffffffff0100f2052a0100000043410416ddf5e95cd7847381d4d3568bf3f1cc818e157c9c7708649a7b9194fdf18b00542d208b88466905c623f83375df6960ff5313e07c2f226099c965a3c39ee4c1ac00000000"
    }
  ]
}