{
  "hash": "000000002d878e299ee9592fa673e49c36fc1b38a5a8021eb3daf19cf85aec07",
  "confirmations": 52035,
  "height": 1063,
  "version": 1,
  "versionHex": "00000001",
  "merkleroot": "2bfdafdd814d7059794b87672cce91dda9960b8225de85e731d2ef0ca5a7c3a0",
  "time": 1232397012,
  "mediantime": 1232394221,
  "nonce": 27928414,
  "bits": "1d00ffff",
  "difficulty": 1,
  "chainwork": "0000000000000000000000000000000000000000000000000000042804280428",
  "nTx": 1,
  "previousblockhash": "00000000813a89c779e6d6649c4e8f3ccfd4bfd188d7608f8f652f6b4f28d1f3",
  "nextblockhash": "000000005e122b0170381a09ecb22a7bb188a4a20fed31eb7ae5f498872a7d28",
  "strippedsize": 216,
  "size": 216,
  "weight": 864,
  "tx": [
    {
      "txid": "2bfdafdd814d7059794b87672cce91dda9960b8225de85e731d2ef0ca5a7c3a0",
      "hash": "2bfdafdd814d7059794b87672cce91dda9960b8225de85e731d2ef0ca5a7c3a0",
      "version": 1,
      "size": 135,
      "vsize": 135,
      "weight": 540,
      "locktime": 0,
      "vin": [
        {
          "coinbase": "04ffff001d029d01",
          "sequence": 4294967295
        }
      ],
      "vout": [
        {
          "value": 50.0,
          "n": 0,
          "scriptPubKey": {
            "asm": "043cd9103769af3a86ab0720f1ea90ad3c3cd97877f09dbbfb8d19351d10d0dd83aa5ca5651a8ffc9dbf95be1dae41da99f7afe03f0df475b3e032c9f82b55dba0 OP_CHECKSIG",
            "desc": "pk(043cd9103769af3a86ab0720f1ea90ad3c3cd97877f09dbbfb8d19351d10d0dd83aa5ca5651a8ffc9dbf95be1dae41da99f7afe03f0df475b3e032c9f82b55dba0)#uy5qgacy",
            "hex": "41043cd9103769af3a86ab0720f1ea90ad3c3cd97877f09dbbfb8d19351d10d0dd83aa5ca5651a8ffc9dbf95be1dae41da99f7afe03f0df475b3e032c9f82b55dba0ac",
            "type": "pubkey"
          }
        }
      ],
      "hex": "01000000010000000000000000000000000000000000000000000000000000000000000000ffffffff0804ffff001d029d01ffffffff0100f2052a010000004341043cd9103769af3a86ab0720f1ea90ad3c3cd97877f09dbbfb8d19351d10d0dd83aa5ca5651a8ffc9dbf95be1dae41da99f7afe03f0df475b3e032c9f82b55dba0ac00000000"
    }
  ]
}