{
  "hash": "000000001d1cca193a7055038fae6e5eb81b8cf60b600767f85d0fc87d9086d8",
  "confirmations": 46859,
  "height": 6239,
  "version": 1,
  "versionHex": "00000001",
  "merkleroot": "237ae656c8db9881e779aaf4884927779ccdb9cc5f89991db9cd72e712bc802b",
  "time": 1236123657,
  "mediantime": 1236119645,
  "nonce": 2498197507,
  "bits": "1d00ffff",
  "difficulty": 1,
  "chainwork": "0000000000000000000000000000000000000000000000000000186018601860",
  "nTx": 1,
  "previousblockhash": "000000000049d528e1ff957e93e089491752d69a924e4de2b5a6ad2f2c05f446",
  "nextblockhash": "000000001c3aa07efadd82e5e49117a01ccaa50634522c93f20c4479b6785558",
  "strippedsize": 216,
  "size": 216,
  "weight": 864,
  "tx": [
    {
      "txid": "237ae656c8db9881e779aaf4884927779ccdb9cc5f89991db9cd72e712bc802b",
      "hash": "237ae656c8db9881e779aaf4884927779ccdb9cc5f89991db9cd72e712bc802b",
      "version": 1,
      "size": 135,
      "vsize": 135,
      "weight": 540,
      "locktime": 0,
      "vin": [
        {
          "coinbase": "04ffff001d024f09",
          "sequence": 4294967295
        }
      ],
      "vout": [
        {
          "value": 50.0,
          "n": 0,
          "scriptPubKey": {
            "asm": "047c12d27b14e24c5a73d9fb093fb947361cf16da521fdf62317531da5521ed7f4092f15109dcf3f557639b023c32d1a28e87bc1e1f8b808c4da3e6db9edf2f39e OP_CHECKSIG",
            "desc": "pk(047c12d27b14e24c5a73d9fb093fb947361cf16da521fdf62317531da5521ed7f4092f15109dcf3f557639b023c32d1a28e87bc1e1f8b808c4da3e6db9edf2f39e)#7gyrwdr4",
            "hex": "41047c12d27b14e24c5a73d9fb093fb947361cf16da521fdf62317531da5521ed7f4092f15109dcf3f557639b023c32d1a28e87bc1e1f8b808c4da3e6db9edf2f39eac",
            "type": "pubkey"
          }
        }
      ],
      "hex": "01000000010000000000000000000000000000000000000000000000000000000000000000ffffffff0804ffff001d024f09ffffffff0100f2052a010000004341047c12d27b14e24c5a73d9fb093fb947361cf16da521fdf62317531da5521ed7f4092f15109dcf3f557639b023c32d1a28e87bc1e1f8b808c4da3e6db9edf2f39eac00000000"
    }
  ]
}