{
  "hash": "000000001bac8da2b747fc932bc14d168e25be8088adc164fe859f9acf8c5d16",
  "confirmations": 52070,
  "height": 1028,
  "version": 1,
  "versionHex": "00000001",
  "merkleroot": "65448a8d5d5da1d68e6f71dc90119f77d212963e4022890f18f820ba8f16a1dc",
  "time": 1232369020,
  "mediantime": 1232366096,
  "nonce": 93298347,
  "bits": "1d00ffff",
  "difficulty": 1,
  "chainwork": "0000000000000000000000000000000000000000000000000000040504050405",
  "nTx": 1,
  "previousblockhash": "00000000445badc24fc82d137c552d7f013d0d0f55be4dac1dc61b92e4a27a40",
  "nextblockhash": "0000000042c15539de289697b27c7ee35089d7187896d2ab2d66e8fadc61e3a3",
  "strippedsize": 216,
  "size": 216,
  "weight": 864,
  "tx": [
    {
      "txid": "65448a8d5d5da1d68e6f71dc90119f77d212963e4022890f18f820ba8f16a1dc",
      "hash": "65448a8d5d5da1d68e6f71dc90119f77d212963e4022890f18f820ba8f16a1dc",
      "version": 1,
      "size": 135,
      "vsize": 135,
      "weight": 540,
      "locktime": 0,
      "vin": [
        {
          "coinbase": "04ffff001d027f01",
          "sequence": 4294967295
        }
      ],
      "vout": [
        {
          "value": 50.0,
          "n": 0,
          "scriptPubKey": {
            "asm": "04243aa1ccb105a0e880f239b7ebbbd2bce889ab20ffc83dd750ed451a792fbd0a54a8d03c04eabe9eae61500bb64f011a0f8b64975db9a1c7fc408082766f82c2 OP_CHECKSIG",
            "desc": "pk(04243aa1ccb105a0e880f239b7ebbbd2bce889ab20ffc83dd750ed451a792fbd0a54a8d03c04eabe9eae61500bb64f011a0f8b64975db9a1c7fc408082766f82c2)#fswut3m9",
            "hex": "4104243aa1ccb105a0e880f239b7ebbbd2bce889ab20ffc83dd750ed451a792fbd0a54a8d03c04eabe9eae61500bb64f011a0f8b64975db9a1c7fc408082766f82c2ac",
            "type": "pubkey"
          }
        }
      ],
      "hex": "01000000010000000000000000000000000000000000000000000000000000000000000000ffffffff0804ffff001d027f01ffffffff0100f2052a01000000434104243aa1ccb105a0e880f239b7ebbbd2bce889ab20ffc83dd750ed451a792fbd0a54a8d03c04eabe9eae61500bb64f011a0f8b64975db9a1c7fc408082766f82c2ac00000000"
    }
  ]
}