{
  "hash": "00000000d8110237beb297b474cbece88a9e87158e50dc963d4c711331d699d5",
  "confirmations": 47545,
  "height": 5553,
  "version": 1,
  "versionHex": "00000001",
  "merkleroot": "be0a438f247b613252cc62b3468c59e3d06adfcd6544653e3c365e69796b3d50",
  "time": 1235565297,
  "mediantime": 1235560270,
  "nonce": 2429750281,
  "bits": "1d00ffff",
  "difficulty": 1,
  "chainwork": "000000000000000000000000000000000000000000000000000015b215b215b2",
  "nTx": 1,
  "previousblockhash": "00000000d9ae185cf149ea6615f846a216dafd8aa4d5c613564a9bc5e1e0f0ab",
  "nextblockhash": "000000001ef10065ed17286819f135fcdab3c63dfd6be5857465ef89304fadf7",
  "strippedsize": 216,
  "size": 216,
  "weight": 864,
  "tx": [
    {
      "txid": "be0a438f247b613252cc62b3468c59e3d06adfcd6544653e3c365e69796b3d50",
      "hash": "be0a438f247b613252cc62b3468c59e3d06adfcd6544653e3c365e69796b3d50",
      "version": 1,
      "size": 135,
      "vsize": 135,
      "weight": 540,
      "locktime": 0,
      "vin": [
        {
          "coinbase": "04ffff001d029b06",
          "sequence": 4294967295
        }
      ],
      "vout": [
        {
          "value": 50.0,
          "n": 0,
          "scriptPubKey": {
            "asm": "04681178d04de6b8026e57c6b8569b1a4a0c3a10aed9f194719e8fb6b948c7158b6cf2f9adb2643c4f37d3e410a32d99ee7166c4977b1b3f409bb8d6d375211188 OP_CHECKSIG",
            "desc": "pk(04681178d04de6b8026e57c6b8569b1a4a0c3a10aed9f194719e8fb6b948c7158b6cf2f9adb2643c4f37d3e410a32d99ee7166c4977b1b3f409bb8d6d375211188)#hxngt8lp",
            "hex": "4104681178d04de6b8026e57c6b8569b1a4a0c3a10aed9f194719e8fb6b948c7158b6cf2f9adb2643c4f37d3e410a32d99ee7166c4977b1b3f409bb8d6d375211188ac",
            "type": "pubkey"
          }
        }
      ],
      "hex": "01000000010000000000000000000000000000000000000000000000000000000000000000ffffffff0804ffff001d029b06ffffffff0100f2052a01000000434104681178d04de6b8026e57c6b8569b1a4a0c3a10aed9f194719e8fb6b948c7158b6cf2f9adb2643c4f37d3e410a32d99ee7166c4977b1b3f409bb8d6d375211188ac00000000"
    }
  ]
}