{
  "hash": "00000000e9442450d3f43bde529cfadc488a105152d6b607fc332b3a13d497e8",
  "confirmations": 51464,
  "height": 1634,
  "version": 1,
  "versionHex": "00000001",
  "merkleroot": "6e0dc8bac6f20e8a18aa1a13081ba30fe2d3137e7b4a4f3eda9e8dd56cde1ac1",
  "time": 1232825531,
  "mediantime": 1232823489,
  "nonce": 4039950108,
  "bits": "1d00ffff",
  "difficulty": 1,
  "chainwork": "0000000000000000000000000000000000000000000000000000066306630663",
  "nTx": 1,
  "previousblockhash": "000000009c20a2575989ac67bccf3f4aa91d6291bffe8ededd1b9552b372dfd1",
  "nextblockhash": "0000000094f739836057b24bcdec3a532bba8b5f7b903a530d3a29bc422c45eb",
  "strippedsize": 216,
  "size": 216,
  "weight": 864,
  "tx": [
    {
      "txid": "6e0dc8bac6f20e8a18aa1a13081ba30fe2d3137e7b4a4f3eda9e8dd56cde1ac1",
      "hash": "6e0dc8bac6f20e8a18aa1a13081ba30fe2d3137e7b4a4f3eda9e8dd56cde1ac1",
      "version": 1,
      "size": 135,
      "vsize": 135,
      "weight": 540,
      "locktime": 0,
      "vin": [
        {
          "coinbase": "04ffff001d025402",
          "sequence": 4294967295
        }
      ],
      "vout": [
        {
          "value": 50.0,
          "n": 0,
          "scriptPubKey": {
            "asm": "04f7619d234707ffcb42b8cae75c4ef221d7df62b5ad0292be46add41bc6f703df4c4c3c67e9a4327f1af9e6a3108e81fdef5d7829b0ad063a9fc179adcaa594b2 OP_CHECKSIG",
            "desc": "pk(04f7619d234707ffcb42b8cae75c4ef221d7df62b5ad0292be46add41bc6f703df4c4c3c67e9a4327f1af9e6a3108e81fdef5d7829b0ad063a9fc179adcaa594b2)#2g0jxe4c",
            "hex": "4104f7619d234707ffcb42b8cae75c4ef221d7df62b5ad0292be46add41bc6f703df4c4c3c67e9a4327f1af9e6a3108e81fdef5d7829b0ad063a9fc179adcaa594b2ac",
            "type": "pubkey"
          }
        }
      ],
      "hex": "01000000010000000000000000000000000000000000000000000000000000000000000000ffffffff0804ffff001d025402ffffffff0100f2052a01000000434104f7619d234707ffcb42b8cae75c4ef221d7df62b5ad0292be46add41bc6f703df4c4c3c67e9a4327f1af9e6a3108e81fdef5d7829b0ad063a9fc179adcaa594b2ac00000000"
    }
  ]
}