{
  "hash": "0000000060375e12a4181dadca9dbd5058a632885dfbb74478e8f549c0ecefd3",
  "confirmations": 47705,
  "height": 5393,
  "version": 1,
  "versionHex": "00000001",
  "merkleroot": "b9e210d6d550728a2b1a02c712fd8029b75b19b80f0784c60175d9624c5ef375",
  "time": 1235435963,
  "mediantime": 1235430749,
  "nonce": 318349572,
  "bits": "1d00ffff",
  "difficulty": 1,
  "chainwork": "0000000000000000000000000000000000000000000000000000151215121512",
  "nTx": 1,
  "previousblockhash": "000000009071cc47c91bb79252981fe5aae10d67d1f2c3cefe3e6d7669e54e8d",
  "nextblockhash": "00000000776099d8664f85b33208f9af14d271e2552ce812a4b83e0164c9366c",
  "strippedsize": 216,
  "size": 216,
  "weight": 864,
  "tx": [
    {
      "txid": "b9e210d6d550728a2b1a02c712fd8029b75b19b80f0784c60175d9624c5ef375",
      "hash": "b9e210d6d550728a2b1a02c712fd8029b75b19b80f0784c60175d9624c5ef375",
      "version": 1,
      "size": 135,
      "vsize": 135,
      "weight": 540,
      "locktime": 0,
      "vin": [
        {
          "coinbase": "04ffff001d029103",
          "sequence": 4294967295
        }
      ],
      "vout": [
        {
          "value": 50.0,
          "n": 0,
          "scriptPubKey": {
            "asm": "046ad566e15936a667f6e7eb82d1841d9cd1466dbe8cac3291d01a724438d21376da8b434f4218bc0d1a4598a030a9fe5c2e3d1c4415043d384a31eee0b8138f86 OP_CHECKSIG",
            "desc": "pk(046ad566e15936a667f6e7eb82d1841d9cd1466dbe8cac3291d01a724438d21376da8b434f4218bc0d1a4598a030a9fe5c2e3d1c4415043d384a31eee0b8138f86)#phh7pr0g",
            "hex": "41046ad566e15936a667f6e7eb82d1841d9cd1466dbe8cac3291d01a724438d21376da8b434f4218bc0d1a4598a030a9fe5c2e3d1c4415043d384a31eee0b8138f86ac",
            "type": "pubkey"
          }
        }
      ],
      "hex": "01000000010000000000000000000000000000000000000000000000000000000000000000ffffffff0804ffff001d029103ffffffff0100f2052a010000004341046ad566e15936a667f6e7eb82d1841d9cd1466dbe8cac3291d01a724438d21376da8b434f4218bc0d1a4598a030a9fe5c2e3d1c4415043d384a31eee0b8138f86ac00000000"
    }
  ]
}