{
  "hash": "00000000c01e9863cca2d4240bab413192cd5644036cfa613f0d9504d8c8de97",
  "confirmations": 52259,
  "height": 839,
  "version": 1,
  "versionHex": "00000001",
  "merkleroot": "d38501417cd959d1fead3bfa81b2cddcf68b5a35e610e802d4ce21efdfdb0a55",
  "time": 1232221146,
  "mediantime": 1232217508,
  "nonce": 3327938343,
  "bits": "1d00ffff",
  "difficulty": 1,
  "chainwork": "0000000000000000000000000000000000000000000000000000034803480348",
  "nTx": 1,
  "previousblockhash": "0000000078eecd2a8f456ed336fe4ecd7c84d0bdc18cc609fc34b02ad9b4ee40",
  "nextblockhash": "00000000b03cda0b68d1da2dadf83e41ab3bd27c63dbc06d9f0fdb3636472f76",
  "strippedsize": 216,
  "size": 216,
  "weight": 864,
  "tx": [
    {
      "txid": "d38501417cd959d1fead3bfa81b2cddcf68b5a35e610e802d4ce21efdfdb0a55",
      "hash": "d38501417cd959d1fead3bfa81b2cddcf68b5a35e610e802d4ce21efdfdb0a55",
      "version": 1,
      "size": 135,
      "vsize": 135,
      "weight": 540,
      "locktime": 0,
      "vin": [
        {
          "coinbase": "04ffff001d022d02",
          "sequence": 4294967295
        }
      ],
      "vout": [
        {
          "value": 50.0,
          "n": 0,
          "scriptPubKey": {
            "asm": "04124d609f5efed44543f53fb6b417f96ddd6f4ca67d8ce4671b8eff978761415217c94d1fcbc9762bcb602a88cbcd5748715363d40bd97c212a47a6b70add9aef OP_CHECKSIG",
            "desc": "pk(04124d609f5efed44543f53fb6b417f96ddd6f4ca67d8ce4671b8eff978761415217c94d1fcbc9762bcb602a88cbcd5748715363d40bd97c212a47a6b70add9aef)#d6qglmpa",
            "hex": "4104124d609f5efed44543f53fb6b417f96ddd6f4ca67d8ce4671b8eff978761415217c94d1fcbc9762bcb602a88cbcd5748715363d40bd97c212a47a6b70add9aefac",
            "type": "pubkey"
          }
        }
      ],
      "hex": "01000000010000000000000000000000000000000000000000000000000000000000000000ffffffff0804ffff001d022d02ffffffff0100f2052a01000000434104124d609f5efed44543f53fb6b417f96ddd6f4ca67d8ce4671b8eff978761415217c94d1fcbc9762bcb602a88cbcd5748715363d40bd97c212a47a6b70add9aefac00000000"
    }
  ]
}