{
  "hash": "0000000060da2754fe44bc0eb64e5e8bb54b93bd64e183bb35731bfd8babc525",
  "confirmations": 52309,
  "height": 789,
  "version": 1,
  "versionHex": "00000001",
  "merkleroot": "8ba53ea7e5a2c1824cafef16d6dbeac4c62713e1147108de03afcc7464a383f3",
  "time": 1232181334,
  "mediantime": 1232179003,
  "nonce": 494387762,
  "bits": "1d00ffff",
  "difficulty": 1,
  "chainwork": "0000000000000000000000000000000000000000000000000000031603160316",
  "nTx": 1,
  "previousblockhash": "000000006361e8cb18ad62a2bce6f71080e3c149c07c9f5df84dd947e5d864f7",
  "nextblockhash": "000000007dc74ef3358ad4bec22f9b3a46ad7596b66ab5eb71e72ae562b47f83",
  "strippedsize": 216,
  "size": 216,
  "weight": 864,
  "tx": [
    {
      "txid": "8ba53ea7e5a2c1824cafef16d6dbeac4c62713e1147108de03afcc7464a383f3",
      "hash": "8ba53ea7e5a2c1824cafef16d6dbeac4c62713e1147108de03afcc7464a383f3",
      "version": 1,
      "size": 135,
      "vsize": 135,
      "weight": 540,
      "locktime": 0,
      "vin": [
        {
          "coinbase": "04ffff001d024301",
          "sequence": 4294967295
        }
      ],
      "vout": [
        {
          "value": 50.0,
          "n": 0,
          "scriptPubKey": {
            "asm": "04e4321016332b41b8db67dd0c3de8669660fa8ed6aef836c7752d58263dc63e122370bd694fdfa205e9dd74e92e300418cf66a3e369fbd5cf13374d2552e2ae10 OP_CHECKSIG",
            "desc": "pk(04e4321016332b41b8db67dd0c3de8669660fa8ed6aef836c7752d58263dc63e122370bd694fdfa205e9dd74e92e300418cf66a3e369fbd5cf13374d2552e2ae10)#rzy2ljuw",
            "hex": "4104e4321016332b41b8db67dd0c3de8669660fa8ed6aef836c7752d58263dc63e122370bd694fdfa205e9dd74e92e300418cf66a3e369fbd5cf13374d2552e2ae10ac",
            "type": "pubkey"
          }
        }
      ],
      "hex": "01000000010000000000000000000000000000000000000000000000000000000000000000ffffffff0804ffff001d024301ffffffff0100f2052a01000000434104e4321016332b41b8db67dd0c3de8669660fa8ed6aef836c7752d58263dc63e122370bd694fdfa205e9dd74e92e300418cf66a3e369fbd5cf13374d2552e2ae10ac00000000"
    }
  ]
}