{
  "hash": "0000000049d65f49caa5f7e9eaa8c2f7aa405c21f744afebf17337b81452691d",
  "confirmations": 43914,
  "height": 9184,
  "version": 1,
  "versionHex": "00000001",
  "merkleroot": "d994c6f0675acbb525f0e6976e1e0b7ecc796d942cedc15ad8a2886c816ac4d9",
  "time": 1238389504,
  "mediantime": 1238385017,
  "nonce": 3913662255,
  "bits": "1d00ffff",
  "difficulty": 1,
  "chainwork": "000000000000000000000000000000000000000000000000000023e123e123e1",
  "nTx": 1,
  "previousblockhash": "00000000969d282687ef375d72be4042b9ee819bad53632164d406f16f0cd4bc",
  "nextblockhash": "0000000092cfcd02dfb69c6b137fe1c864dea27cc09734ed766bfb9df84ee8b1",
  "strippedsize": 216,
  "size": 216,
  "weight": 864,
  "tx": [
    {
      "txid": "d994c6f0675acbb525f0e6976e1e0b7ecc796d942cedc15ad8a2886c816ac4d9",
      "hash": "d994c6f0675acbb525f0e6976e1e0b7ecc796d942cedc15ad8a2886c816ac4d9",
      "version": 1,
      "size": 135,
      "vsize": 135,
      "weight": 540,
      "locktime": 0,
      "vin": [
        {
          "coinbase": "04ffff001d02f309",
          "sequence": 4294967295
        }
      ],
      "vout": [
        {
          "value": 50.0,
          "n": 0,
          "scriptPubKey": {
            "asm": "047d6868e38728725a18584911c0b432d5c7938eb6f7639d4f23bd7bbde6066637d509be73d0a900f7299cfc038a7e8d03dbd214e1a68daa7b4d45f1229848c700 OP_CHECKSIG",
            "desc": "pk(047d6868e38728725a18584911c0b432d5c7938eb6f7639d4f23bd7bbde6066637d509be73d0a900f7299cfc038a7e8d03dbd214e1a68daa7b4d45f1229848c700)#0katl26l",
            "hex": "41047d6868e38728725a18584911c0b432d5c7938eb6f7639d4f23bd7bbde6066637d509be73d0a900f7299cfc038a7e8d03dbd214e1a68daa7b4d45f1229848c700ac",
            "type": "pubkey"
          }
        }
      ],
      "hex": "01000000010000000000000000000000000000000000000000000000000000000000000000ffffffff0804ffff001d02f309ffffffff0100f2052a010000004341047d6868e38728725a18584911c0b432d5c7938eb6f7639d4f23bd7bbde6066637d509be73d0a900f7299cfc038a7e8d03dbd214e1a68daa7b4d45f1229848c700ac00000000"
    }
  ]
}