{
  "hash": "000000003cb957c9fdd08737db34b496c5240b50872b8527c660804c35fb6ee5",
  "confirmations": 51194,
  "height": 1904,
  "version": 1,
  "versionHex": "00000001",
  "merkleroot": "1e6b8fb9ace8e230a6842071ae6831ab09e69bb5c2730c2e77f98e8b17264577",
  "time": 1232946143,
  "mediantime": 1232944679,
  "nonce": 10295443,
  "bits": "1d00ffff",
  "difficulty": 1,
  "chainwork": "0000000000000000000000000000000000000000000000000000077107710771",
  "nTx": 1,
  "previousblockhash": "00000000a281b04becaff7e9d2509afb83861a5b027f814df9d0bda54ce1aa56",
  "nextblockhash": "00000000424fc94a50bc0390944cb4a73146b5d63be28de97ba901e311f34c9a",
  "strippedsize": 216,
  "size": 216,
  "weight": 864,
  "tx": [
    {
      "txid": "1e6b8fb9ace8e230a6842071ae6831ab09e69bb5c2730c2e77f98e8b17264577",
      "hash": "1e6b8fb9ace8e230a6842071ae6831ab09e69bb5c2730c2e77f98e8b17264577",
      "version": 1,
      "size": 135,
      "vsize": 135,
      "weight": 540,
      "locktime": 0,
      "vin": [
        {
          "coinbase": "04ffff001d02db02",
          "sequence": 4294967295
        }
      ],
      "vout": [
        {
          "value": 50.0,
          "n": 0,
          "scriptPubKey": {
            "asm": "04ba52443427070f8c37d1cae7c832d6c6c07363cecbf6392ab1fcaef96727b015d2ebe9de7bb530589da2b2d0dc4bb1da1396295f6cdd184f3e128b0c0ac7b954 OP_CHECKSIG",
            "desc": "pk(04ba52443427070f8c37d1cae7c832d6c6c07363cecbf6392ab1fcaef96727b015d2ebe9de7bb530589da2b2d0dc4bb1da1396295f6cdd184f3e128b0c0ac7b954)#ctqsg545",
            "hex": "4104ba52443427070f8c37d1cae7c832d6c6c07363cecbf6392ab1fcaef96727b015d2ebe9de7bb530589da2b2d0dc4bb1da1396295f6cdd184f3e128b0c0ac7b954ac",
            "type": "pubkey"
          }
        }
      ],
      "hex": "01000000010000000000000000000000000000000000000000000000000000000000000000ffffffff0804ffff001d02db02ffffffff0100f2052a01000000434104ba52443427070f8c37d1cae7c832d6c6c07363cecbf6392ab1fcaef96727b015d2ebe9de7bb530589da2b2d0dc4bb1da1396295f6cdd184f3e128b0c0ac7b954ac00000000"
    }
  ]
}