{
  "hash": "00000000ca15c30122dc65c33e8ec1f7ff2631ef9e2a1c36d8a399ca1705122b",
  "confirmations": 51937,
  "height": 83,
  "version": 1,
  "versionHex": "00000001",
  "merkleroot": "561eebc615218a12a9588ac78dde63aa56f3b1b43eb17174d2f093d1e2d1ca73",
  "time": 1231648583,
  "mediantime": 1231635654,
  "nonce": 2632256788,
  "bits": "1d00ffff",
  "difficulty": 1,
  "chainwork": "0000000000000000000000000000000000000000000000000000005400540054",
  "nTx": 1,
  "previousblockhash": "00000000162222fadd114245e16d25f6d02acbf67865575dc6f64b57634b5153",
  "nextblockhash": "0000000095f5ee67aaade1dfa150b7ae38b3ff068936c9c95a7bb114b6ce8d4f",
  "strippedsize": 215,
  "size": 215,
  "weight": 860,
  "tx": [
    {
      "txid": "561eebc615218a12a9588ac78dde63aa56f3b1b43eb17174d2f093d1e2d1ca73",
      "hash": "561eebc615218a12a9588ac78dde63aa56f3b1b43eb17174d2f093d1e2d1ca73",
      "version": 1,
      "size": 134,
      "vsize": 134,
      "weight": 536,
      "locktime": 0,
      "vin": [
        {
          "coinbase": "04ffff001d0110",
          "sequence": 4294967295
        }
      ],
      "vout": [
        {
          "value": 50.0,
          "n": 0,
          "scriptPubKey": {
            "asm": "0426f1f79f707063f225a9d48097d0fe6923afb3f8c210b536c93b8465e8a5d937a90806c0e2861b92a91d050f81c61e837e638aecd53584205bfd521bc9a14aa6 OP_CHECKSIG",
            "desc": "pk(0426f1f79f707063f225a9d48097d0fe6923afb3f8c210b536c93b8465e8a5d937a90806c0e2861b92a91d050f81c61e837e638aecd53584205bfd521bc9a14aa6)#mmdnyfvx",
            "hex": "410426f1f79f707063f225a9d48097d0fe6923afb3f8c210b536c93b8465e8a5d937a90806c0e2861b92a91d050f81c61e837e638aecd53584205bfd521bc9a14aa6ac",
            "type": "pubkey"
          }
        }
      ],
      "hex": "01000000010000000000000000000000000000000000000000000000000000000000000000ffffffff0704ffff001d0110ffffffff0100f2052a0100000043410426f1f79f707063f225a9d48097d0fe6923afb3f8c210b536c93b8465e8a5d937a90806c0e2861b92a91d050f81c61e837e638aecd53584205bfd521bc9a14aa6ac00000000"
    }
  ]
}