{
  "hash": "000000006ae24426eb2cd7384fdc364d01b52ae2d6153bb2ea6b766a398f3fdf",
  "confirmations": 47299,
  "height": 5799,
  "version": 1,
  "versionHex": "00000001",
  "merkleroot": "5536876aeae13532557b621a6855da9de2882e5d806056a5c945d2cc680b4d05",
  "time": 1235759017,
  "mediantime": 1235755317,
  "nonce": 2197963272,
  "bits": "1d00ffff",
  "difficulty": 1,
  "chainwork": "000000000000000000000000000000000000000000000000000016a816a816a8",
  "nTx": 1,
  "previousblockhash": "00000000f4dc7e3ccbcd4edfe0eb2d5dd3443d0b1daad84cabc7080d3ae6b8eb",
  "nextblockhash": "00000000c93c9874db8d899f8409a98980d3cf2b0d776aa8e18e82a961d7eafc",
  "strippedsize": 216,
  "size": 216,
  "weight": 864,
  "tx": [
    {
      "txid": "5536876aeae13532557b621a6855da9de2882e5d806056a5c945d2cc680b4d05",
      "hash": "5536876aeae13532557b621a6855da9de2882e5d806056a5c945d2cc680b4d05",
      "version": 1,
      "size": 135,
      "vsize": 135,
      "weight": 540,
      "locktime": 0,
      "vin": [
        {
          "coinbase": "04ffff001d02a900",
          "sequence": 4294967295
        }
      ],
      "vout": [
        {
          "value": 50.0,
          "n": 0,
          "scriptPubKey": {
            "asm": "04404bd0d3d861a4a90474f87be2a538a68ff62c48bcb630642e034b0e7beb3c52de6f555daec5efdf109873b4a9259ab93dbbc8eb2cbb0a8ea2774ae71e9e4c9c OP_CHECKSIG",
            "desc": "pk(04404bd0d3d861a4a90474f87be2a538a68ff62c48bcb630642e034b0e7beb3c52de6f555daec5efdf109873b4a9259ab93dbbc8eb2cbb0a8ea2774ae71e9e4c9c)#g457uw5n",
            "hex": "4104404bd0d3d861a4a90474f87be2a538a68ff62c48bcb630642e034b0e7beb3c52de6f555daec5efdf109873b4a9259ab93dbbc8eb2cbb0a8ea2774ae71e9e4c9cac",
            "type": "pubkey"
          }
        }
      ],
      "hex": "01000000010000000000000000000000000000000000000000000000000000000000000000ffffffff0804ffff001d02a900ffffffff0100f2052a01000000434104404bd0d3d861a4a90474f87be2a538a68ff62c48bcb630642e034b0e7beb3c52de6f555daec5efdf109873b4a9259ab93dbbc8eb2cbb0a8ea2774ae71e9e4c9cac00000000"
    }
  ]
}