{
  "hash": "00000000c628d5357e37a0971d37f884d29b653404c76884a6e493e50253b222",
  "confirmations": 44293,
  "height": 8805,
  "version": 1,
  "versionHex": "00000001",
  "merkleroot": "92fab3396388427bec4ba2be65993fddedcd617de4ad642294bb106963888fc7",
  "time": 1238103928,
  "mediantime": 1238100809,
  "nonce": 91325065,
  "bits": "1d00ffff",
  "difficulty": 1,
  "chainwork": "0000000000000000000000000000000000000000000000000000226622662266",
  "nTx": 1,
  "previousblockhash": "00000000a94e1945863d7eef8f7585da1305541c62527f5c3340ee056ee19e00",
  "nextblockhash": "00000000ea1f4e21fc336b5552e712d12a660b28baf8458b4bba1cf2187da1b0",
  "strippedsize": 216,
  "size": 216,
  "weight": 864,
  "tx": [
    {
      "txid": "92fab3396388427bec4ba2be65993fddedcd617de4ad642294bb106963888fc7",
      "hash": "92fab3396388427bec4ba2be65993fddedcd617de4ad642294bb106963888fc7",
      "version": 1,
      "size": 135,
      "vsize": 135,
      "weight": 540,
      "locktime": 0,
      "vin": [
        {
          "coinbase": "04ffff001d022803",
          "sequence": 4294967295
        }
      ],
      "vout": [
        {
          "value": 50.0,
          "n": 0,
          "scriptPubKey": {
            "asm": "043ea583f5e4233d0390ddfc510f7e1371961c582ed1b0a053b9ff1f8e907ad89e03760af1eb34f68b28a3d7c55a4bdfa1c2a3061faa49c06110035d42339966c6 OP_CHECKSIG",
            "desc": "pk(043ea583f5e4233d0390ddfc510f7e1371961c582ed1b0a053b9ff1f8e907ad89e03760af1eb34f68b28a3d7c55a4bdfa1c2a3061faa49c06110035d42339966c6)#52tsspes",
            "hex": "41043ea583f5e4233d0390ddfc510f7e1371961c582ed1b0a053b9ff1f8e907ad89e03760af1eb34f68b28a3d7c55a4bdfa1c2a3061faa49c06110035d42339966c6ac",
            "type": "pubkey"
          }
        }
      ],
      "hex": "01000000010000000000000000000000000000000000000000000000000000000000000000ffffffff0804ffff001d022803ffffffff0100f2052a010000004341043ea583f5e4233d0390ddfc510f7e1371961c582ed1b0a053b9ff1f8e907ad89e03760af1eb34f68b28a3d7c55a4bdfa1c2a3061faa49c06110035d42339966c6ac00000000"
    }
  ]
}