{
  "hash": "000000002da2e132194661b3ea5ebe2d85c99a8af33565a3eb34c3bb3351b0a6",
  "confirmations": 50447,
  "height": 2651,
  "version": 1,
  "versionHex": "00000001",
  "merkleroot": "89e50b37b67d4037b5ee59265e9f8dfac6a9cbcbb5b72d21a8e08ff5090ff374",
  "time": 1233529248,
  "mediantime": 1233523407,
  "nonce": 284256056,
  "bits": "1d00ffff",
  "difficulty": 1,
  "chainwork": "00000000000000000000000000000000000000000000000000000a5c0a5c0a5c",
  "nTx": 1,
  "previousblockhash": "0000000019cc588e4e3b530372ee1d91c85b50948f9f23de09f1320fbfd9cb36",
  "nextblockhash": "00000000e0c974daa5c778099828f0227849b35ecaa2b6d165ce0a8d9e9118c6",
  "strippedsize": 215,
  "size": 215,
  "weight": 860,
  "tx": [
    {
      "txid": "89e50b37b67d4037b5ee59265e9f8dfac6a9cbcbb5b72d21a8e08ff5090ff374",
      "hash": "89e50b37b67d4037b5ee59265e9f8dfac6a9cbcbb5b72d21a8e08ff5090ff374",
      "version": 1,
      "size": 134,
      "vsize": 134,
      "weight": 536,
      "locktime": 0,
      "vin": [
        {
          "coinbase": "04ffff001d013f",
          "sequence": 4294967295
        }
      ],
      "vout": [
        {
          "value": 50.0,
          "n": 0,
          "scriptPubKey": {
            "asm": "04d15290455ab5bece0bfa1f545699ca262391690903c26c4f74d30ff61cff8b88781a6616f79b4c6fdd37945e5028dd3d10db2271a6607d4dfa9fbafe73db914d OP_CHECKSIG",
            "desc": "pk(04d15290455ab5bece0bfa1f545699ca262391690903c26c4f74d30ff61cff8b88781a6616f79b4c6fdd37945e5028dd3d10db2271a6607d4dfa9fbafe73db914d)#d7p2a87u",
            "hex": "4104d15290455ab5bece0bfa1f545699ca262391690903c26c4f74d30ff61cff8b88781a6616f79b4c6fdd37945e5028dd3d10db2271a6607d4dfa9fbafe73db914dac",
            "type": "pubkey"
          }
        }
      ],
      "hex": "01000000010000000000000000000000000000000000000000000000000000000000000000ffffffff0704ffff001d013fffffffff0100f2052a01000000434104d15290455ab5bece0bfa1f545699ca262391690903c26c4f74d30ff61cff8b88781a6616f79b4c6fdd37945e5028dd3d10db2271a6607d4dfa9fbafe73db914dac00000000"
    }
  ]
}