{
  "hash": "000000009a352dd35b8cd81bd5de1b7a1595eb12581023e3a33ac43180e7dc46",
  "confirmations": 43422,
  "height": 9676,
  "version": 1,
  "versionHex": "00000001",
  "merkleroot": "8504cbb32aec89349ca02e27bc4d92c8d15beaaf4fbd45f9c4f7f3ff37b7352b",
  "time": 1238759915,
  "mediantime": 1238755503,
  "nonce": 56587029,
  "bits": "1d00ffff",
  "difficulty": 1,
  "chainwork": "000000000000000000000000000000000000000000000000000025cd25cd25cd",
  "nTx": 1,
  "previousblockhash": "00000000e3890212014b23a883ad08c756141c551eca4e10ee6c771b060e1f89",
  "nextblockhash": "00000000940ec38d0c44e3158a2781107a1b1259167516fd32b96d5f4db3e175",
  "strippedsize": 216,
  "size": 216,
  "weight": 864,
  "tx": [
    {
      "txid": "8504cbb32aec89349ca02e27bc4d92c8d15beaaf4fbd45f9c4f7f3ff37b7352b",
      "hash": "8504cbb32aec89349ca02e27bc4d92c8d15beaaf4fbd45f9c4f7f3ff37b7352b",
      "version": 1,
      "size": 135,
      "vsize": 135,
      "weight": 540,
      "locktime": 0,
      "vin": [
        {
          "coinbase": "04ffff001d028410",
          "sequence": 4294967295
        }
      ],
      "vout": [
        {
          "value": 50.0,
          "n": 0,
          "scriptPubKey": {
            "asm": "04c7b0475c9d8a14bd89a4558ec59715d7acf07af85a172ce5dba089a847290a9f1fca42a7c891a94d2ec03854600305315c69191703bee7fdc3dea036b867360b OP_CHECKSIG",
            "desc": "pk(04c7b0475c9d8a14bd89a4558ec59715d7acf07af85a172ce5dba089a847290a9f1fca42a7c891a94d2ec03854600305315c69191703bee7fdc3dea036b867360b)#uggplvcz",
            "hex": "4104c7b0475c9d8a14bd89a4558ec59715d7acf07af85a172ce5dba089a847290a9f1fca42a7c891a94d2ec03854600305315c69191703bee7fdc3dea036b867360bac",
            "type": "pubkey"
          }
        }
      ],
      "hex": "01000000010000000000000000000000000000000000000000000000000000000000000000ffffffff0804ffff001d028410ffffffff0100f2052a01000000434104c7b0475c9d8a14bd89a4558ec59715d7acf07af85a172ce5dba089a847290a9f1fca42a7c891a94d2ec03854600305315c69191703bee7fdc3dea036b867360bac00000000"
    }
  ]
}