{
  "hash": "00000000519517e8d7c408a7a819a990bd639ff70ebbd23d27d8c8eb355303e7",
  "confirmations": 49779,
  "height": 3319,
  "version": 1,
  "versionHex": "00000001",
  "merkleroot": "46b6d9bb19f1e84dd14aed65160959be8f2f77cd935924e60d9fc3967dde3ede",
  "time": 1233980997,
  "mediantime": 1233977962,
  "nonce": 3968626217,
  "bits": "1d00ffff",
  "difficulty": 1,
  "chainwork": "00000000000000000000000000000000000000000000000000000cf80cf80cf8",
  "nTx": 1,
  "previousblockhash": "000000008699bd59e1bfa04e989745eaf231d3e63fd4792dced3a6b0f4b7cea7",
  "nextblockhash": "0000000005b5a5457c73250d3d17d18f1146f002ea7f2b5ba193e760902c0b88",
  "strippedsize": 216,
  "size": 216,
  "weight": 864,
  "tx": [
    {
      "txid": "46b6d9bb19f1e84dd14aed65160959be8f2f77cd935924e60d9fc3967dde3ede",
      "hash": "46b6d9bb19f1e84dd14aed65160959be8f2f77cd935924e60d9fc3967dde3ede",
      "version": 1,
      "size": 135,
      "vsize": 135,
      "weight": 540,
      "locktime": 0,
      "vin": [
        {
          "coinbase": "04ffff001d029804",
          "sequence": 4294967295
        }
      ],
      "vout": [
        {
          "value": 50.0,
          "n": 0,
          "scriptPubKey": {
            "asm": "04b67ac4ee2840cf51bb5a30488472d609d1c9a08cad02a805de27d6eef1c13301e4e1c87e570ec451d728239acc3262820b09a9e35f123a1fd6decfa72803bbe7 OP_CHECKSIG",
            "desc": "pk(04b67ac4ee2840cf51bb5a30488472d609d1c9a08cad02a805de27d6eef1c13301e4e1c87e570ec451d728239acc3262820b09a9e35f123a1fd6decfa72803bbe7)#jaxhkrpn",
            "hex": "4104b67ac4ee2840cf51bb5a30488472d609d1c9a08cad02a805de27d6eef1c13301e4e1c87e570ec451d728239acc3262820b09a9e35f123a1fd6decfa72803bbe7ac",
            "type": "pubkey"
          }
        }
      ],
      "hex": "01000000010000000000000000000000000000000000000000000000000000000000000000ffffffff0804ffff001d029804ffffffff0100f2052a01000000434104b67ac4ee2840cf51bb5a30488472d609d1c9a08cad02a805de27d6eef1c13301e4e1c87e570ec451d728239acc3262820b09a9e35f123a1fd6decfa72803bbe7ac00000000"
    }
  ]
}