{
  "hash": "00000000425a4ad21d99ec0a32e1a5b5d0db2229c37ad433f8976db6c4397a66",
  "confirmations": 52072,
  "height": 1026,
  "version": 1,
  "versionHex": "00000001",
  "merkleroot": "c8615d76cba3600bba8680533e2f7f3eeb5ee0e94afbe2d6ee0755ea8272043a",
  "time": 1232368368,
  "mediantime": 1232365709,
  "nonce": 2260173879,
  "bits": "1d00ffff",
  "difficulty": 1,
  "chainwork": "0000000000000000000000000000000000000000000000000000040304030403",
  "nTx": 1,
  "previousblockhash": "000000001546f288e1540d55b0a6b70f86c3fe0b29ca39ec7878c41f1f16ec5d",
  "nextblockhash": "00000000445badc24fc82d137c552d7f013d0d0f55be4dac1dc61b92e4a27a40",
  "strippedsize": 216,
  "size": 216,
  "weight": 864,
  "tx": [
    {
      "txid": "c8615d76cba3600bba8680533e2f7f3eeb5ee0e94afbe2d6ee0755ea8272043a",
      "hash": "c8615d76cba3600bba8680533e2f7f3eeb5ee0e94afbe2d6ee0755ea8272043a",
      "version": 1,
      "size": 135,
      "vsize": 135,
      "weight": 540,
      "locktime": 0,
      "vin": [
        {
          "coinbase": "04ffff001d02a005",
          "sequence": 4294967295
        }
      ],
      "vout": [
        {
          "value": 50.0,
          "n": 0,
          "scriptPubKey": {
            "asm": "046475416b985b58ed97453a196c2f48fc0d8ed631898f364c6d76e3fce8b35847fac344b22d08536a394205ddc5c5056469d5e2092dece07ff55b25cd16fe6db5 OP_CHECKSIG",
            "desc": "pk(046475416b985b58ed97453a196c2f48fc0d8ed631898f364c6d76e3fce8b35847fac344b22d08536a394205ddc5c5056469d5e2092dece07ff55b25cd16fe6db5)#x9dax97y",
            "hex": "41046475416b985b58ed97453a196c2f48fc0d8ed631898f364c6d76e3fce8b35847fac344b22d08536a394205ddc5c5056469d5e2092dece07ff55b25cd16fe6db5ac",
            "type": "pubkey"
          }
        }
      ],
      "hex": "01000000010000000000000000000000000000000000000000000000000000000000000000ffffffff0804ffff001d02a005ffffffff0100f2052a010000004341046475416b985b58ed97453a196c2f48fc0d8ed631898f364c6d76e3fce8b35847fac344b22d08536a394205ddc5c5056469d5e2092dece07ff55b25cd16fe6db5ac00000000"
    }
  ]
}