{
  "hash": "0000000074b5bae4abdc95e88f7e12e68987856cbb384d61c3355bc2b9be4b9b",
  "confirmations": 44297,
  "height": 8801,
  "version": 1,
  "versionHex": "00000001",
  "merkleroot": "7295663929fe46eab8c24e5710040e86efa1ab1dfd61bad64fa7a17078227f1c",
  "time": 1238101726,
  "mediantime": 1238097650,
  "nonce": 1684536854,
  "bits": "1d00ffff",
  "difficulty": 1,
  "chainwork": "0000000000000000000000000000000000000000000000000000226222622262",
  "nTx": 1,
  "previousblockhash": "00000000a6b938f2407fa173d034c9da999e8f82ff27503edca069b88dd9b1c0",
  "nextblockhash": "00000000cd741d8b0f40301c7fdc028883816ce467e13e0325e4f8ced3d4b19f",
  "strippedsize": 216,
  "size": 216,
  "weight": 864,
  "tx": [
    {
      "txid": "7295663929fe46eab8c24e5710040e86efa1ab1dfd61bad64fa7a17078227f1c",
      "hash": "7295663929fe46eab8c24e5710040e86efa1ab1dfd61bad64fa7a17078227f1c",
      "version": 1,
      "size": 135,
      "vsize": 135,
      "weight": 540,
      "locktime": 0,
      "vin": [
        {
          "coinbase": "04ffff001d02d002",
          "sequence": 4294967295
        }
      ],
      "vout": [
        {
          "value": 50.0,
          "n": 0,
          "scriptPubKey": {
            "asm": "049e9b860551bbb6b6540f17ef7e8dc600da16bb848d0f510e009cc2512b8a502adb57cb8e3177b838fa701874b7042db2cac133336836ca4bf1dd1da35b2d653e OP_CHECKSIG",
            "desc": "pk(049e9b860551bbb6b6540f17ef7e8dc600da16bb848d0f510e009cc2512b8a502adb57cb8e3177b838fa701874b7042db2cac133336836ca4bf1dd1da35b2d653e)#xkuvadzk",
            "hex": "41049e9b860551bbb6b6540f17ef7e8dc600da16bb848d0f510e009cc2512b8a502adb57cb8e3177b838fa701874b7042db2cac133336836ca4bf1dd1da35b2d653eac",
            "type": "pubkey"
          }
        }
      ],
      "hex": "01000000010000000000000000000000000000000000000000000000000000000000000000ffffffff0804ffff001d02d002ffffffff0100f2052a010000004341049e9b860551bbb6b6540f17ef7e8dc600da16bb848d0f510e009cc2512b8a502adb57cb8e3177b838fa701874b7042db2cac133336836ca4bf1dd1da35b2d653eac00000000"
    }
  ]
}