{
  "hash": "000000009d7be8b29e2c9da1828b9b8503efb73d647f86371dce553d15888677",
  "confirmations": 45968,
  "height": 7130,
  "version": 1,
  "versionHex": "00000001",
  "merkleroot": "ef721ea4537907eb5c46441df1e54cc2a0ff6b8c88bef6268d9029560af82dcc",
  "time": 1236817091,
  "mediantime": 1236814684,
  "nonce": 1808804911,
  "bits": "1d00ffff",
  "difficulty": 1,
  "chainwork": "00000000000000000000000000000000000000000000000000001bdb1bdb1bdb",
  "nTx": 1,
  "previousblockhash": "00000000219876fb06a0201a237403ad49ff78eaa0ee9fff4471ea5b207a5c99",
  "nextblockhash": "000000003531ef6f6f09805c59bd25d089fc225838df2b80a3441c48165e58d2",
  "strippedsize": 216,
  "size": 216,
  "weight": 864,
  "tx": [
    {
      "txid": "ef721ea4537907eb5c46441df1e54cc2a0ff6b8c88bef6268d9029560af82dcc",
      "hash": "ef721ea4537907eb5c46441df1e54cc2a0ff6b8c88bef6268d9029560af82dcc",
      "version": 1,
      "size": 135,
      "vsize": 135,
      "weight": 540,
      "locktime": 0,
      "vin": [
        {
          "coinbase": "04ffff001d026e04",
          "sequence": 4294967295
        }
      ],
      "vout": [
        {
          "value": 50.0,
          "n": 0,
          "scriptPubKey": {
            "asm": "04c06b9fc240ec7d7b08a01bfe3a238d18985b7426fe1078bfeefd012efe435157a341a78a60940c13c72232e31bae4a94aeadba7abc3b91195f859ad8e9a9bb2d OP_CHECKSIG",
            "desc": "pk(04c06b9fc240ec7d7b08a01bfe3a238d18985b7426fe1078bfeefd012efe435157a341a78a60940c13c72232e31bae4a94aeadba7abc3b91195f859ad8e9a9bb2d)#44jqe62d",
            "hex": "4104c06b9fc240ec7d7b08a01bfe3a238d18985b7426fe1078bfeefd012efe435157a341a78a60940c13c72232e31bae4a94aeadba7abc3b91195f859ad8e9a9bb2dac",
            "type": "pubkey"
          }
        }
      ],
      "hex": "01000000010000000000000000000000000000000000000000000000000000000000000000ffffffff0804ffff001d026e04ffffffff0100f2052a01000000434104c06b9fc240ec7d7b08a01bfe3a238d18985b7426fe1078bfeefd012efe435157a341a78a60940c13c72232e31bae4a94aeadba7abc3b91195f859ad8e9a9bb2dac00000000"
    }
  ]
}