{
  "hash": "00000000c50b4d0ca3f17f20f96190262dc7f7ce23241f0bf81976d5008ac110",
  "confirmations": 52271,
  "height": 827,
  "version": 1,
  "versionHex": "00000001",
  "merkleroot": "fdd6c3c3cb3de7e8a68e920541befe5469084a68c68127f4ff595f67e05d7942",
  "time": 1232212551,
  "mediantime": 1232208484,
  "nonce": 1650806808,
  "bits": "1d00ffff",
  "difficulty": 1,
  "chainwork": "0000000000000000000000000000000000000000000000000000033c033c033c",
  "nTx": 1,
  "previousblockhash": "0000000085778072ebee2f72ee90c7b6b0aeffe60c2e225848adbc6311fca93a",
  "nextblockhash": "00000000d5cd9765da3f24520faf0bc019938e218fff554631a5fcb4eb3d5726",
  "strippedsize": 216,
  "size": 216,
  "weight": 864,
  "tx": [
    {
      "txid": "fdd6c3c3cb3de7e8a68e920541befe5469084a68c68127f4ff595f67e05d7942",
      "hash": "fdd6c3c3cb3de7e8a68e920541befe5469084a68c68127f4ff595f67e05d7942",
      "version": 1,
      "size": 135,
      "vsize": 135,
      "weight": 540,
      "locktime": 0,
      "vin": [
        {
          "coinbase": "04ffff001d02e701",
          "sequence": 4294967295
        }
      ],
      "vout": [
        {
          "value": 50.0,
          "n": 0,
          "scriptPubKey": {
            "asm": "046d430bef0e0d4d0e70be095593798d68919c8d0c362153c6737e2f9b17022cd37b60909cc20fa5e55feb0001c3867909753d924662bec724d63017baa7aa1899 OP_CHECKSIG",
            "desc": "pk(046d430bef0e0d4d0e70be095593798d68919c8d0c362153c6737e2f9b17022cd37b60909cc20fa5e55feb0001c3867909753d924662bec724d63017baa7aa1899)#kv3wl3p4",
            "hex": "41046d430bef0e0d4d0e70be095593798d68919c8d0c362153c6737e2f9b17022cd37b60909cc20fa5e55feb0001c3867909753d924662bec724d63017baa7aa1899ac",
            "type": "pubkey"
          }
        }
      ],
      "hex": "01000000010000000000000000000000000000000000000000000000000000000000000000ffffffff0804ffff001d02e701ffffffff0100f2052a010000004341046d430bef0e0d4d0e70be095593798d68919c8d0c362153c6737e2f9b17022cd37b60909cc20fa5e55feb0001c3867909753d924662bec724d63017baa7aa1899ac00000000"
    }
  ]
}