{
  "hash": "000000002a871d6e5cd6d89b551dbc96d992637000bb02ba10140e41bf06ae19",
  "confirmations": 50026,
  "height": 3072,
  "version": 1,
  "versionHex": "00000001",
  "merkleroot": "a1e6417e97cec2c097217258156aa20226ab89ac71fbab9e5b0b69f60acc118a",
  "time": 1233810799,
  "mediantime": 1233807443,
  "nonce": 1448634920,
  "bits": "1d00ffff",
  "difficulty": 1,
  "chainwork": "00000000000000000000000000000000000000000000000000000c010c010c01",
  "nTx": 1,
  "previousblockhash": "000000002fe533f8072b16630474527667d8b8b6c7ab1b9add74ab68250f623c",
  "nextblockhash": "0000000012f193e7e068070ffa7f2f8bc2262ca9db0c115a2bd210ad152e9f3f",
  "strippedsize": 216,
  "size": 216,
  "weight": 864,
  "tx": [
    {
      "txid": "a1e6417e97cec2c097217258156aa20226ab89ac71fbab9e5b0b69f60acc118a",
      "hash": "a1e6417e97cec2c097217258156aa20226ab89ac71fbab9e5b0b69f60acc118a",
      "version": 1,
      "size": 135,
      "vsize": 135,
      "weight": 540,
      "locktime": 0,
      "vin": [
        {
          "coinbase": "04ffff001d02a100",
          "sequence": 4294967295
        }
      ],
      "vout": [
        {
          "value": 50.0,
          "n": 0,
          "scriptPubKey": {
            "asm": "04f79249aadeebc0fe32101b9636be4f9abcdb18460baec74fa63166bb3e9fa0835928045b3edefa77a42cd7229d7993a6af27049882d406509a82ebf0db1ca5bb OP_CHECKSIG",
            "desc": "pk(04f79249aadeebc0fe32101b9636be4f9abcdb18460baec74fa63166bb3e9fa0835928045b3edefa77a42cd7229d7993a6af27049882d406509a82ebf0db1ca5bb)#6aswsvgl",
            "hex": "4104f79249aadeebc0fe32101b9636be4f9abcdb18460baec74fa63166bb3e9fa0835928045b3edefa77a42cd7229d7993a6af27049882d406509a82ebf0db1ca5bbac",
            "type": "pubkey"
          }
        }
      ],
      "hex": "01000000010000000000000000000000000000000000000000000000000000000000000000ffffffff0804ffff001d02a100ffffffff0100f2052a01000000434104f79249aadeebc0fe32101b9636be4f9abcdb18460baec74fa63166bb3e9fa0835928045b3edefa77a42cd7229d7993a6af27049882d406509a82ebf0db1ca5bbac00000000"
    }
  ]
}