{
  "hash": "00000000b0878d57ff6d6ddd319ad193b7675ce577c38a4d75a368cc63f51176",
  "confirmations": 46141,
  "height": 6957,
  "version": 1,
  "versionHex": "00000001",
  "merkleroot": "ab3b3518071af2a98f4ba287f7621307af374bbabf530e94d318daf1ecb13a89",
  "time": 1236685925,
  "mediantime": 1236681251,
  "nonce": 2657699840,
  "bits": "1d00ffff",
  "difficulty": 1,
  "chainwork": "00000000000000000000000000000000000000000000000000001b2e1b2e1b2e",
  "nTx": 1,
  "previousblockhash": "00000000e29b4934eb46ea3a9a4a14af2e80019a25b6eb3549db9dfe1dc229d8",
  "nextblockhash": "00000000dbc35f72e6cd66cef162d287a04552019dfeebb9b859d4637daa12d1",
  "strippedsize": 216,
  "size": 216,
  "weight": 864,
  "tx": [
    {
      "txid": "ab3b3518071af2a98f4ba287f7621307af374bbabf530e94d318daf1ecb13a89",
      "hash": "ab3b3518071af2a98f4ba287f7621307af374bbabf530e94d318daf1ecb13a89",
      "version": 1,
      "size": 135,
      "vsize": 135,
      "weight": 540,
      "locktime": 0,
      "vin": [
        {
          "coinbase": "04ffff001d027a01",
          "sequence": 4294967295
        }
      ],
      "vout": [
        {
          "value": 50.0,
          "n": 0,
          "scriptPubKey": {
            "asm": "0467e9467e4bc8c802d8820de0121a801e7f8a65414548065fb82893543d2f4d054ecd493209355c2ed7d6d8295617bafd2a4777ad3b794725ed26199bc322c01a OP_CHECKSIG",
            "desc": "pk(0467e9467e4bc8c802d8820de0121a801e7f8a65414548065fb82893543d2f4d054ecd493209355c2ed7d6d8295617bafd2a4777ad3b794725ed26199bc322c01a)#ezentvhd",
            "hex": "410467e9467e4bc8c802d8820de0121a801e7f8a65414548065fb82893543d2f4d054ecd493209355c2ed7d6d8295617bafd2a4777ad3b794725ed26199bc322c01aac",
            "type": "pubkey"
          }
        }
      ],
      "hex": "01000000010000000000000000000000000000000000000000000000000000000000000000ffffffff0804ffff001d027a01ffffffff0100f2052a0100000043410467e9467e4bc8c802d8820de0121a801e7f8a65414548065fb82893543d2f4d054ecd493209355c2ed7d6d8295617bafd2a4777ad3b794725ed26199bc322c01aac00000000"
    }
  ]
}