{
  "hash": "00000000e26d60bb1c8bfc938d480c7b37113a25b4efb27db836d61f83515885",
  "confirmations": 48221,
  "height": 4877,
  "version": 1,
  "versionHex": "00000001",
  "merkleroot": "5798757e22b8f2b2b2de5bdbf9d070cee6616a49561ebdc5631b13193558e090",
  "time": 1235056471,
  "mediantime": 1235052589,
  "nonce": 1465868552,
  "bits": "1d00ffff",
  "difficulty": 1,
  "chainwork": "0000000000000000000000000000000000000000000000000000130e130e130e",
  "nTx": 1,
  "previousblockhash": "00000000819994c054cc1edce2edef7a2fecc0142578699d2e7c20ec57062d0e",
  "nextblockhash": "000000002f7d0b151aa73fdc5c0359e2d31bbe26d22a7450d1df9d863b9ab54d",
  "strippedsize": 216,
  "size": 216,
  "weight": 864,
  "tx": [
    {
      "txid": "5798757e22b8f2b2b2de5bdbf9d070cee6616a49561ebdc5631b13193558e090",
      "hash": "5798757e22b8f2b2b2de5bdbf9d070cee6616a49561ebdc5631b13193558e090",
      "version": 1,
      "size": 135,
      "vsize": 135,
      "weight": 540,
      "locktime": 0,
      "vin": [
        {
          "coinbase": "04ffff001d026c05",
          "sequence": 4294967295
        }
      ],
      "vout": [
        {
          "value": 50.0,
          "n": 0,
          "scriptPubKey": {
            "asm": "044e8a63ce092cb5a71e7ec452e414ae46300f07a02d29f17ffa826340f589dd4cc164dae0795d72f2717f72c5e29577218f5c9be4269f8a4a7a62ea59050a03a4 OP_CHECKSIG",
            "desc": "pk(044e8a63ce092cb5a71e7ec452e414ae46300f07a02d29f17ffa826340f589dd4cc164dae0795d72f2717f72c5e29577218f5c9be4269f8a4a7a62ea59050a03a4)#4zeksauw",
            "hex": "41044e8a63ce092cb5a71e7ec452e414ae46300f07a02d29f17ffa826340f589dd4cc164dae0795d72f2717f72c5e29577218f5c9be4269f8a4a7a62ea59050a03a4ac",
            "type": "pubkey"
          }
        }
      ],
      "hex": "01000000010000000000000000000000000000000000000000000000000000000000000000ffffffff0804ffff001d026c05ffffffff0100f2052a010000004341044e8a63ce092cb5a71e7ec452e414ae46300f07a02d29f17ffa826340f589dd4cc164dae0795d72f2717f72c5e29577218f5c9be4269f8a4a7a62ea59050a03a4ac00000000"
    }
  ]
}