{
  "hash": "0000000088b781801ae07ed459fe1581a4cb039e2b72aea274ee83fea7d77875",
  "confirmations": 51501,
  "height": 1597,
  "version": 1,
  "versionHex": "00000001",
  "merkleroot": "033e85deb32eb960d9d40630abe7885e5ac6e0488bdca3c5f8c806164d2c7ae6",
  "time": 1232810554,
  "mediantime": 1232808014,
  "nonce": 1365037338,
  "bits": "1d00ffff",
  "difficulty": 1,
  "chainwork": "0000000000000000000000000000000000000000000000000000063e063e063e",
  "nTx": 1,
  "previousblockhash": "000000008674fc83c749fa228fdfb5ab407da28f2467228fdc6411c1c76ca955",
  "nextblockhash": "0000000001467bde2b707083757a9a5929d34bfb79b958e6b739c44e34cbf9d9",
  "strippedsize": 216,
  "size": 216,
  "weight": 864,
  "tx": [
    {
      "txid": "033e85deb32eb960d9d40630abe7885e5ac6e0488bdca3c5f8c806164d2c7ae6",
      "hash": "033e85deb32eb960d9d40630abe7885e5ac6e0488bdca3c5f8c806164d2c7ae6",
      "version": 1,
      "size": 135,
      "vsize": 135,
      "weight": 540,
      "locktime": 0,
      "vin": [
        {
          "coinbase": "04ffff001d020d02",
          "sequence": 4294967295
        }
      ],
      "vout": [
        {
          "value": 50.0,
          "n": 0,
          "scriptPubKey": {
            "asm": "042138d39d6bb95f44631cd2098913cfc78d22f81b56fae31877b692f72229ff2097d2325886b62bc51147a2b174db51b282de2633a7293e6ff8cb0eb45b377c75 OP_CHECKSIG",
            "desc": "pk(042138d39d6bb95f44631cd2098913cfc78d22f81b56fae31877b692f72229ff2097d2325886b62bc51147a2b174db51b282de2633a7293e6ff8cb0eb45b377c75)#z8a5ayef",
            "hex": "41042138d39d6bb95f44631cd2098913cfc78d22f81b56fae31877b692f72229ff2097d2325886b62bc51147a2b174db51b282de2633a7293e6ff8cb0eb45b377c75ac",
            "type": "pubkey"
          }
        }
      ],
      "hex": "01000000010000000000000000000000000000000000000000000000000000000000000000ffffffff0804ffff001d020d02ffffffff0100f2052a010000004341042138d39d6bb95f44631cd2098913cfc78d22f81b56fae31877b692f72229ff2097d2325886b62bc51147a2b174db51b282de2633a7293e6ff8cb0eb45b377c75ac00000000"
    }
  ]
}