{
  "hash": "00000000bce85f66d15636312105bb2e4f8a25122690a2667dfa3330a21da065",
  "confirmations": 43114,
  "height": 9984,
  "version": 1,
  "versionHex": "00000001",
  "merkleroot": "500e0842b874f0ead25d104b286e762df7d46effd782b9356c2a332d63c75846",
  "time": 1238977292,
  "mediantime": 1238976226,
  "nonce": 3089676851,
  "bits": "1d00ffff",
  "difficulty": 1,
  "chainwork": "0000000000000000000000000000000000000000000000000000270127012701",
  "nTx": 1,
  "previousblockhash": "000000009773d904b7757de228872b799112cce5de8cbede02e7591143bd8f5e",
  "nextblockhash": "0000000028b5a0355daaec03a326df3c9118c35ca86dfdde7500d59e2af6a91a",
  "strippedsize": 216,
  "size": 216,
  "weight": 864,
  "tx": [
    {
      "txid": "500e0842b874f0ead25d104b286e762df7d46effd782b9356c2a332d63c75846",
      "hash": "500e0842b874f0ead25d104b286e762df7d46effd782b9356c2a332d63c75846",
      "version": 1,
      "size": 135,
      "vsize": 135,
      "weight": 540,
      "locktime": 0,
      "vin": [
        {
          "coinbase": "04ffff001d021d03",
          "sequence": 4294967295
        }
      ],
      "vout": [
        {
          "value": 50.0,
          "n": 0,
          "scriptPubKey": {
            "asm": "04eb323a2d1c7306172c5da0b6f6494544436f8761438273179ee8e4e4f6549cf960a6438b96ba2a057cfcabdbf568f14fcb09b776159702132e376f570513d7a6 OP_CHECKSIG",
            "desc": "pk(04eb323a2d1c7306172c5da0b6f6494544436f8761438273179ee8e4e4f6549cf960a6438b96ba2a057cfcabdbf568f14fcb09b776159702132e376f570513d7a6)#dy5vdaqa",
            "hex": "4104eb323a2d1c7306172c5da0b6f6494544436f8761438273179ee8e4e4f6549cf960a6438b96ba2a057cfcabdbf568f14fcb09b776159702132e376f570513d7a6ac",
            "type": "pubkey"
          }
        }
      ],
      "hex": "01000000010000000000000000000000000000000000000000000000000000000000000000ffffffff0804ffff001d021d03ffffffff0100f2052a01000000434104eb323a2d1c7306172c5da0b6f6494544436f8761438273179ee8e4e4f6549cf960a6438b96ba2a057cfcabdbf568f14fcb09b776159702132e376f570513d7a6ac00000000"
    }
  ]
}