{
  "hash": "0000000074772e648f80fcdfebe2d0b3ffc367881b1343127d22506f69d37a5f",
  "confirmations": 50671,
  "height": 2427,
  "version": 1,
  "versionHex": "00000001",
  "merkleroot": "deff29ba30aab83f11d0d56cc2f7d27678b214956d6571acd08601a2e744c3e3",
  "time": 1233374826,
  "mediantime": 1233370992,
  "nonce": 1010018355,
  "bits": "1d00ffff",
  "difficulty": 1,
  "chainwork": "0000000000000000000000000000000000000000000000000000097c097c097c",
  "nTx": 1,
  "previousblockhash": "0000000022ab27da26bf5857c4b9e744573a75f848a46eb91db3f006f3e08f25",
  "nextblockhash": "00000000f79c2cfa2a60e4730626f58719a6aea20729cca0bcb09b720cfac6ad",
  "strippedsize": 215,
  "size": 215,
  "weight": 860,
  "tx": [
    {
      "txid": "deff29ba30aab83f11d0d56cc2f7d27678b214956d6571acd08601a2e744c3e3",
      "hash": "deff29ba30aab83f11d0d56cc2f7d27678b214956d6571acd08601a2e744c3e3",
      "version": 1,
      "size": 134,
      "vsize": 134,
      "weight": 536,
      "locktime": 0,
      "vin": [
        {
          "coinbase": "04ffff001d0128",
          "sequence": 4294967295
        }
      ],
      "vout": [
        {
          "value": 50.0,
          "n": 0,
          "scriptPubKey": {
            "asm": "0485178d9a00e069a1f7e203f38dbf8fe673e024450b9bb83718d3ff2223493bc4875677867d4973fd558cb743f892ab8bb65cacb32f644836993bf2f108359007 OP_CHECKSIG",
            "desc": "pk(0485178d9a00e069a1f7e203f38dbf8fe673e024450b9bb83718d3ff2223493bc4875677867d4973fd558cb743f892ab8bb65cacb32f644836993bf2f108359007)#mu5jq342",
            "hex": "410485178d9a00e069a1f7e203f38dbf8fe673e024450b9bb83718d3ff2223493bc4875677867d4973fd558cb743f892ab8bb65cacb32f644836993bf2f108359007ac",
            "type": "pubkey"
          }
        }
      ],
      "hex": "01000000010000000000000000000000000000000000000000000000000000000000000000ffffffff0704ffff001d0128ffffffff0100f2052a0100000043410485178d9a00e069a1f7e203f38dbf8fe673e024450b9bb83718d3ff2223493bc4875677867d4973fd558cb743f892ab8bb65cacb32f644836993bf2f108359007ac00000000"
    }
  ]
}