{
  "hash": "000000008c8d5c9265bc740fc8f539797332b9c2d19bab4e9b215a9a0a9d2e95",
  "confirmations": 43583,
  "height": 9515,
  "version": 1,
  "versionHex": "00000001",
  "merkleroot": "955737219cf9b01b89df10c403f0c6e7b396b6139a1b1c942d213bf640f054c7",
  "time": 1238638628,
  "mediantime": 1238635044,
  "nonce": 1528286977,
  "bits": "1d00ffff",
  "difficulty": 1,
  "chainwork": "0000000000000000000000000000000000000000000000000000252c252c252c",
  "nTx": 1,
  "previousblockhash": "0000000052ab68c20deabfd537a4f40ce88bbd29bdc91b86fb791a701a7af723",
  "nextblockhash": "00000000559e947f8b14b23a3270fd3c222164b797d90269dfc2efe59e7d5183",
  "strippedsize": 216,
  "size": 216,
  "weight": 864,
  "tx": [
    {
      "txid": "955737219cf9b01b89df10c403f0c6e7b396b6139a1b1c942d213bf640f054c7",
      "hash": "955737219cf9b01b89df10c403f0c6e7b396b6139a1b1c942d213bf640f054c7",
      "version": 1,
      "size": 135,
      "vsize": 135,
      "weight": 540,
      "locktime": 0,
      "vin": [
        {
          "coinbase": "04ffff001d029005",
          "sequence": 4294967295
        }
      ],
      "vout": [
        {
          "value": 50.0,
          "n": 0,
          "scriptPubKey": {
            "asm": "04c6a87efe9b33eebdadf13c05531ce96166b7f792a64dcb45835bbecdcf20dc1e687a3eaa6d68d37584a7c9feba15de8725a4a43a6b33808a61b61ee08f4d0bf8 OP_CHECKSIG",
            "desc": "pk(04c6a87efe9b33eebdadf13c05531ce96166b7f792a64dcb45835bbecdcf20dc1e687a3eaa6d68d37584a7c9feba15de8725a4a43a6b33808a61b61ee08f4d0bf8)#63zxphhn",
            "hex": "4104c6a87efe9b33eebdadf13c05531ce96166b7f792a64dcb45835bbecdcf20dc1e687a3eaa6d68d37584a7c9feba15de8725a4a43a6b33808a61b61ee08f4d0bf8ac",
            "type": "pubkey"
          }
        }
      ],
      "hex": "01000000010000000000000000000000000000000000000000000000000000000000000000ffffffff0804ffff001d029005ffffffff0100f2052a01000000434104c6a87efe9b33eebdadf13c05531ce96166b7f792a64dcb45835bbecdcf20dc1e687a3eaa6d68d37584a7c9feba15de8725a4a43a6b33808a61b61ee08f4d0bf8ac00000000"
    }
  ]
}