{
  "hash": "00000000cee5f1ed8a5cfe0fbc2a938443a9c0a45ab8fa2e2db056d776a9e37c",
  "confirmations": 48049,
  "height": 5049,
  "version": 1,
  "versionHex": "00000001",
  "merkleroot": "d682111877d29b1e077a6614f31ff71d8f0926253d801ac5e9053b8e9a02b133",
  "time": 1235174875,
  "mediantime": 1235170733,
  "nonce": 3421115679,
  "bits": "1d00ffff",
  "difficulty": 1,
  "chainwork": "000000000000000000000000000000000000000000000000000013ba13ba13ba",
  "nTx": 1,
  "previousblockhash": "000000009e8637cca72b76a2483107c59edf293ede8b0f7d01bbd293ad10cab6",
  "nextblockhash": "00000000059b30fe09e885a6c7364f26d7549fc050fc2326de899e77819a1c25",
  "strippedsize": 216,
  "size": 216,
  "weight": 864,
  "tx": [
    {
      "txid": "d682111877d29b1e077a6614f31ff71d8f0926253d801ac5e9053b8e9a02b133",
      "hash": "d682111877d29b1e077a6614f31ff71d8f0926253d801ac5e9053b8e9a02b133",
      "version": 1,
      "size": 135,
      "vsize": 135,
      "weight": 540,
      "locktime": 0,
      "vin": [
        {
          "coinbase": "04ffff001d02d907",
          "sequence": 4294967295
        }
      ],
      "vout": [
        {
          "value": 50.0,
          "n": 0,
          "scriptPubKey": {
            "asm": "043a9f4c42d53f8c07e3ce0c91f949d10cb9de1d1a28f0b367e7b99a28743bd135e5aae9d4d5a2ff81d43585faa278a550bee9413e7230dce56c8d5169e2bb34a3 OP_CHECKSIG",
            "desc": "pk(043a9f4c42d53f8c07e3ce0c91f949d10cb9de1d1a28f0b367e7b99a28743bd135e5aae9d4d5a2ff81d43585faa278a550bee9413e7230dce56c8d5169e2bb34a3)#d2d2p3w0",
            "hex": "41043a9f4c42d53f8c07e3ce0c91f949d10cb9de1d1a28f0b367e7b99a28743bd135e5aae9d4d5a2ff81d43585faa278a550bee9413e7230dce56c8d5169e2bb34a3ac",
            "type": "pubkey"
          }
        }
      ],
      "hex": "01000000010000000000000000000000000000000000000000000000000000000000000000ffffffff0804ffff001d02d907ffffffff0100f2052a010000004341043a9f4c42d53f8c07e3ce0c91f949d10cb9de1d1a28f0b367e7b99a28743bd135e5aae9d4d5a2ff81d43585faa278a550bee9413e7230dce56c8d5169e2bb34a3ac00000000"
    }
  ]
}