{
  "hash": "0000000093ca739f386f6ce9687e5849aaadf3600d037e01bf92a7a8183dd313",
  "confirmations": 46973,
  "height": 6125,
  "version": 1,
  "versionHex": "00000001",
  "merkleroot": "dde62b1e02090ed5ad3c33f2ce1b40967113fce6534cbb55bbbfa40fe125cf9c",
  "time": 1236029189,
  "mediantime": 1236025662,
  "nonce": 2874738711,
  "bits": "1d00ffff",
  "difficulty": 1,
  "chainwork": "000000000000000000000000000000000000000000000000000017ee17ee17ee",
  "nTx": 1,
  "previousblockhash": "000000002b7f6e55aab66535f20baac45b59440da8f82733eb5dfdb814988cb2",
  "nextblockhash": "00000000e02dd6d27f0ee3727b97f9fe72da33f0a1f06dba8cd4fb887fa1f646",
  "strippedsize": 216,
  "size": 216,
  "weight": 864,
  "tx": [
    {
      "txid": "dde62b1e02090ed5ad3c33f2ce1b40967113fce6534cbb55bbbfa40fe125cf9c",
      "hash": "dde62b1e02090ed5ad3c33f2ce1b40967113fce6534cbb55bbbfa40fe125cf9c",
      "version": 1,
      "size": 135,
      "vsize": 135,
      "weight": 540,
      "locktime": 0,
      "vin": [
        {
          "coinbase": "04ffff001d023e07",
          "sequence": 4294967295
        }
      ],
      "vout": [
        {
          "value": 50.0,
          "n": 0,
          "scriptPubKey": {
            "asm": "0464127b06dc37eff2363a6004aa10f4157aa4d8cdbf5b866116a662846f359eac63abf46677f47708b6aebe7a26ad0819df2a8aada578193293ccc7057873884b OP_CHECKSIG",
            "desc": "pk(0464127b06dc37eff2363a6004aa10f4157aa4d8cdbf5b866116a662846f359eac63abf46677f47708b6aebe7a26ad0819df2a8aada578193293ccc7057873884b)#yy2yu9e4",
            "hex": "410464127b06dc37eff2363a6004aa10f4157aa4d8cdbf5b866116a662846f359eac63abf46677f47708b6aebe7a26ad0819df2a8aada578193293ccc7057873884bac",
            "type": "pubkey"
          }
        }
      ],
      "hex": "01000000010000000000000000000000000000000000000000000000000000000000000000ffffffff0804ffff001d023e07ffffffff0100f2052a0100000043410464127b06dc37eff2363a6004aa10f4157aa4d8cdbf5b866116a662846f359eac63abf46677f47708b6aebe7a26ad0819df2a8aada578193293ccc7057873884bac00000000"
    }
  ]
}