{
  "hash": "00000000a0b3bccdae1b2c61a97981a3d7b4893395862b37e043f694586c2276",
  "confirmations": 50196,
  "height": 2902,
  "version": 1,
  "versionHex": "00000001",
  "merkleroot": "036d60dd7e91cb9acb99c6d6cf00e02010dcbf72489d50008123f3baa4bd6ba5",
  "time": 1233693905,
  "mediantime": 1233690629,
  "nonce": 3612220215,
  "bits": "1d00ffff",
  "difficulty": 1,
  "chainwork": "00000000000000000000000000000000000000000000000000000b570b570b57",
  "nTx": 1,
  "previousblockhash": "00000000f903ce68d137addc7b21a4a8951ccf768e1fb0aa870311788f8fa22c",
  "nextblockhash": "00000000a962d56237dd73fa26ac7c998d156421e8e2d803d2b97787baca79d7",
  "strippedsize": 216,
  "size": 216,
  "weight": 864,
  "tx": [
    {
      "txid": "036d60dd7e91cb9acb99c6d6cf00e02010dcbf72489d50008123f3baa4bd6ba5",
      "hash": "036d60dd7e91cb9acb99c6d6cf00e02010dcbf72489d50008123f3baa4bd6ba5",
      "version": 1,
      "size": 135,
      "vsize": 135,
      "weight": 540,
      "locktime": 0,
      "vin": [
        {
          "coinbase": "04ffff001d025e07",
          "sequence": 4294967295
        }
      ],
      "vout": [
        {
          "value": 50.0,
          "n": 0,
          "scriptPubKey": {
            "asm": "04dbda4683e2644dae3c7d4b1fa5609f87fb9c53dcdb38a37a96df74bc408cec83a5a738f48335295e1a2d226967836f99736d4eedc3a033adbca4b8d90698d2d4 OP_CHECKSIG",
            "desc": "pk(04dbda4683e2644dae3c7d4b1fa5609f87fb9c53dcdb38a37a96df74bc408cec83a5a738f48335295e1a2d226967836f99736d4eedc3a033adbca4b8d90698d2d4)#j478nwmv",
            "hex": "4104dbda4683e2644dae3c7d4b1fa5609f87fb9c53dcdb38a37a96df74bc408cec83a5a738f48335295e1a2d226967836f99736d4eedc3a033adbca4b8d90698d2d4ac",
            "type": "pubkey"
          }
        }
      ],
      "hex": "01000000010000000000000000000000000000000000000000000000000000000000000000ffffffff0804ffff001d025e07ffffffff0100f2052a01000000434104dbda4683e2644dae3c7d4b1fa5609f87fb9c53dcdb38a37a96df74bc408cec83a5a738f48335295e1a2d226967836f99736d4eedc3a033adbca4b8d90698d2d4ac00000000"
    }
  ]
}