{
  "hash": "00000000384cc6240e3c6c25d4fe1a8fda50e17d40aacd54c921de954fc0b9db",
  "confirmations": 44504,
  "height": 8594,
  "version": 1,
  "versionHex": "00000001",
  "merkleroot": "995dc7b98dccef912844f48deb6c453473748412369fbe6cbf1b9fa3f7c3a473",
  "time": 1237946957,
  "mediantime": 1237941598,
  "nonce": 13565870,
  "bits": "1d00ffff",
  "difficulty": 1,
  "chainwork": "0000000000000000000000000000000000000000000000000000219321932193",
  "nTx": 1,
  "previousblockhash": "00000000a1d2b05f887259a17753eea6915bcd20c83dbb1ade3d757c89fd7ac0",
  "nextblockhash": "0000000023b5d3df1c7cc06794b0a5a1389559d720112a26cc41b792ef024006",
  "strippedsize": 216,
  "size": 216,
  "weight": 864,
  "tx": [
    {
      "txid": "995dc7b98dccef912844f48deb6c453473748412369fbe6cbf1b9fa3f7c3a473",
      "hash": "995dc7b98dccef912844f48deb6c453473748412369fbe6cbf1b9fa3f7c3a473",
      "version": 1,
      "size": 135,
      "vsize": 135,
      "weight": 540,
      "locktime": 0,
      "vin": [
        {
          "coinbase": "04ffff001d025802",
          "sequence": 4294967295
        }
      ],
      "vout": [
        {
          "value": 50.0,
          "n": 0,
          "scriptPubKey": {
            "asm": "04312a3c1492bc416eec452390885515e010acf2fc1098d4c3dda470222c295da2088365b8d9ff43b623f87b709114f5560895bfd7b578965928e2ef60f6ac8d95 OP_CHECKSIG",
            "desc": "pk(04312a3c1492bc416eec452390885515e010acf2fc1098d4c3dda470222c295da2088365b8d9ff43b623f87b709114f5560895bfd7b578965928e2ef60f6ac8d95)#shgqjr4m",
            "hex": "4104312a3c1492bc416eec452390885515e010acf2fc1098d4c3dda470222c295da2088365b8d9ff43b623f87b709114f5560895bfd7b578965928e2ef60f6ac8d95ac",
            "type": "pubkey"
          }
        }
      ],
      "hex": "01000000010000000000000000000000000000000000000000000000000000000000000000ffffffff0804ffff001d025802ffffffff0100f2052a01000000434104312a3c1492bc416eec452390885515e010acf2fc1098d4c3dda470222c295da2088365b8d9ff43b623f87b709114f5560895bfd7b578965928e2ef60f6ac8d95ac00000000"
    }
  ]
}