{
  "hash": "0000000076825dbf5a525d8fab9a7477b76c062ecd2aa9b35fbe3b987a4890e0",
  "confirmations": 45747,
  "height": 7351,
  "version": 1,
  "versionHex": "00000001",
  "merkleroot": "130b5c0a6a7621d6474aae26abdbaecf514d864eb5c468fb547cecf4dc40a32d",
  "time": 1236984156,
  "mediantime": 1236980400,
  "nonce": 318421811,
  "bits": "1d00ffff",
  "difficulty": 1,
  "chainwork": "00000000000000000000000000000000000000000000000000001cb81cb81cb8",
  "nTx": 1,
  "previousblockhash": "00000000bed974f3058cf13c37ac33cc0d7eadee687304536e9d1422cb697db5",
  "nextblockhash": "00000000894b02b664866d8499e159ed4cbf3f03480dd53e6f4fef3350115329",
  "strippedsize": 216,
  "size": 216,
  "weight": 864,
  "tx": [
    {
      "txid": "130b5c0a6a7621d6474aae26abdbaecf514d864eb5c468fb547cecf4dc40a32d",
      "hash": "130b5c0a6a7621d6474aae26abdbaecf514d864eb5c468fb547cecf4dc40a32d",
      "version": 1,
      "size": 135,
      "vsize": 135,
      "weight": 540,
      "locktime": 0,
      "vin": [
        {
          "coinbase": "04ffff001d028108",
          "sequence": 4294967295
        }
      ],
      "vout": [
        {
          "value": 50.0,
          "n": 0,
          "scriptPubKey": {
            "asm": "04732d642890d1d736ef1804ff7c25910a2ab4d8c4099e635a430236c5e42ec72fe4c98412c83af8e265294cf8840f8717d289943a55fb7dd73b693127f1c0c031 OP_CHECKSIG",
            "desc": "pk(04732d642890d1d736ef1804ff7c25910a2ab4d8c4099e635a430236c5e42ec72fe4c98412c83af8e265294cf8840f8717d289943a55fb7dd73b693127f1c0c031)#r9vdnmxv",
            "hex": "4104732d642890d1d736ef1804ff7c25910a2ab4d8c4099e635a430236c5e42ec72fe4c98412c83af8e265294cf8840f8717d289943a55fb7dd73b693127f1c0c031ac",
            "type": "pubkey"
          }
        }
      ],
      "hex": "01000000010000000000000000000000000000000000000000000000000000000000000000ffffffff0804ffff001d028108ffffffff0100f2052a01000000434104732d642890d1d736ef1804ff7c25910a2ab4d8c4099e635a430236c5e42ec72fe4c98412c83af8e265294cf8840f8717d289943a55fb7dd73b693127f1c0c031ac00000000"
    }
  ]
}