{
  "hash": "00000000f29255c1d36b5424c56d7c5f1572f0c5372db097bbdb7a21170fe5bd",
  "confirmations": 43166,
  "height": 9932,
  "version": 1,
  "versionHex": "00000001",
  "merkleroot": "ce8231ba86f7ae9eb9a1c04bcb1d74a0c4c516e298180248ff72644ec80fe3eb",
  "time": 1238943188,
  "mediantime": 1238940017,
  "nonce": 2912311342,
  "bits": "1d00ffff",
  "difficulty": 1,
  "chainwork": "000000000000000000000000000000000000000000000000000026cd26cd26cd",
  "nTx": 1,
  "previousblockhash": "00000000f6768d862ab79a5964fcbc5bdc0cf67982941d4a61de4cf057fae436",
  "nextblockhash": "000000001c5756324833a7815c2da322277df3fac240489d9f81fa632eb5d94a",
  "strippedsize": 216,
  "size": 216,
  "weight": 864,
  "tx": [
    {
      "txid": "ce8231ba86f7ae9eb9a1c04bcb1d74a0c4c516e298180248ff72644ec80fe3eb",
      "hash": "ce8231ba86f7ae9eb9a1c04bcb1d74a0c4c516e298180248ff72644ec80fe3eb",
      "version": 1,
      "size": 135,
      "vsize": 135,
      "weight": 540,
      "locktime": 0,
      "vin": [
        {
          "coinbase": "04ffff001d028502",
          "sequence": 4294967295
        }
      ],
      "vout": [
        {
          "value": 50.0,
          "n": 0,
          "scriptPubKey": {
            "asm": "04f24049d7b76d4f558944b0c1ab9b5fb34d525e66984f36504ecd17cbed3c421256674d14a93b5bdbbb392a870c601d1a2a9dd1cccae2269dbe24dff53109e4a6 OP_CHECKSIG",
            "desc": "pk(04f24049d7b76d4f558944b0c1ab9b5fb34d525e66984f36504ecd17cbed3c421256674d14a93b5bdbbb392a870c601d1a2a9dd1cccae2269dbe24dff53109e4a6)#4d0exyrx",
            "hex": "4104f24049d7b76d4f558944b0c1ab9b5fb34d525e66984f36504ecd17cbed3c421256674d14a93b5bdbbb392a870c601d1a2a9dd1cccae2269dbe24dff53109e4a6ac",
            "type": "pubkey"
          }
        }
      ],
      "hex": "01000000010000000000000000000000000000000000000000000000000000000000000000ffffffff0804ffff001d028502ffffffff0100f2052a01000000434104f24049d7b76d4f558944b0c1ab9b5fb34d525e66984f36504ecd17cbed3c421256674d14a93b5bdbbb392a870c601d1a2a9dd1cccae2269dbe24dff53109e4a6ac00000000"
    }
  ]
}