{
  "hash": "0000000085fddddf6b35d22b4882da1dc1aa623c168626b73754942450b9193b",
  "confirmations": 43864,
  "height": 9234,
  "version": 1,
  "versionHex": "00000001",
  "merkleroot": "33556a0fa0b5a44313c1cf5c3381baa912bae37d379948f47353878dbf3bf7ff",
  "time": 1238422701,
  "mediantime": 1238420111,
  "nonce": 168025910,
  "bits": "1d00ffff",
  "difficulty": 1,
  "chainwork": "0000000000000000000000000000000000000000000000000000241324132413",
  "nTx": 1,
  "previousblockhash": "000000001d3201277b4cc4f31e23db0b5aea7b3140c939476d5cff98b0c0ed77",
  "nextblockhash": "000000004942d8437d2177b1551779d7d7b403f5c2b2fb0c6f62f2151a1df89c",
  "strippedsize": 216,
  "size": 216,
  "weight": 864,
  "tx": [
    {
      "txid": "33556a0fa0b5a44313c1cf5c3381baa912bae37d379948f47353878dbf3bf7ff",
      "hash": "33556a0fa0b5a44313c1cf5c3381baa912bae37d379948f47353878dbf3bf7ff",
      "version": 1,
      "size": 135,
      "vsize": 135,
      "weight": 540,
      "locktime": 0,
      "vin": [
        {
          "coinbase": "04ffff001d02fd05",
          "sequence": 4294967295
        }
      ],
      "vout": [
        {
          "value": 50.0,
          "n": 0,
          "scriptPubKey": {
            "asm": "04ac4832ba2e99037cec35ab757d93cc064feac11bd62beb370f9329209ec3005cd931175d20159501acaa77ae2f4a4091eb39bcd12e5581551d1c88086cb4c3fb OP_CHECKSIG",
            "desc": "pk(04ac4832ba2e99037cec35ab757d93cc064feac11bd62beb370f9329209ec3005cd931175d20159501acaa77ae2f4a4091eb39bcd12e5581551d1c88086cb4c3fb)#v7zmx7mf",
            "hex": "4104ac4832ba2e99037cec35ab757d93cc064feac11bd62beb370f9329209ec3005cd931175d20159501acaa77ae2f4a4091eb39bcd12e5581551d1c88086cb4c3fbac",
            "type": "pubkey"
          }
        }
      ],
      "hex": "01000000010000000000000000000000000000000000000000000000000000000000000000ffffffff0804ffff001d02fd05ffffffff0100f2052a01000000434104ac4832ba2e99037cec35ab757d93cc064feac11bd62beb370f9329209ec3005cd931175d20159501acaa77ae2f4a4091eb39bcd12e5581551d1c88086cb4c3fbac00000000"
    }
  ]
}