{
  "hash": "00000000a15e23a0455d0453a6216857db4f1920308eea8b7f21b2ef9698ed75",
  "confirmations": 51223,
  "height": 1875,
  "version": 1,
  "versionHex": "00000001",
  "merkleroot": "3462b77e0f97483bca3f42b3390593c3e77682b51e8860ca1aaa90e045175777",
  "time": 1232932913,
  "mediantime": 1232930957,
  "nonce": 2835702292,
  "bits": "1d00ffff",
  "difficulty": 1,
  "chainwork": "0000000000000000000000000000000000000000000000000000075407540754",
  "nTx": 1,
  "previousblockhash": "00000000963d1bf30564d1807ab3e156f991e3b0b0967fefe27b7b2a90bce6ec",
  "nextblockhash": "00000000c997904ae560a37450d81ebf44414e6c29d43e24be0e9c3285e00734",
  "strippedsize": 216,
  "size": 216,
  "weight": 864,
  "tx": [
    {
      "txid": "3462b77e0f97483bca3f42b3390593c3e77682b51e8860ca1aaa90e045175777",
      "hash": "3462b77e0f97483bca3f42b3390593c3e77682b51e8860ca1aaa90e045175777",
      "version": 1,
      "size": 135,
      "vsize": 135,
      "weight": 540,
      "locktime": 0,
      "vin": [
        {
          "coinbase": "04ffff001d02df04",
          "sequence": 4294967295
        }
      ],
      "vout": [
        {
          "value": 50.0,
          "n": 0,
          "scriptPubKey": {
            "asm": "04dce4dc7d86d3fe1b4bf77e937cf0f88f3c9441f110d29a85938f5dd11eabb1646822e6ad0b4ed186515144e090b9a50c4cd65f2ffe8c080b859980eee184b645 OP_CHECKSIG",
            "desc": "pk(04dce4dc7d86d3fe1b4bf77e937cf0f88f3c9441f110d29a85938f5dd11eabb1646822e6ad0b4ed186515144e090b9a50c4cd65f2ffe8c080b859980eee184b645)#azjw20s0",
            "hex": "4104dce4dc7d86d3fe1b4bf77e937cf0f88f3c9441f110d29a85938f5dd11eabb1646822e6ad0b4ed186515144e090b9a50c4cd65f2ffe8c080b859980eee184b645ac",
            "type": "pubkey"
          }
        }
      ],
      "hex": "01000000010000000000000000000000000000000000000000000000000000000000000000ffffffff0804ffff001d02df04ffffffff0100f2052a01000000434104dce4dc7d86d3fe1b4bf77e937cf0f88f3c9441f110d29a85938f5dd11eabb1646822e6ad0b4ed186515144e090b9a50c4cd65f2ffe8c080b859980eee184b645ac00000000"
    }
  ]
}