{
  "hash": "000000002e6cdb76ffae78a57f7b7cf8f74868fe6788bcd0b19f4165d31ac524",
  "confirmations": 46177,
  "height": 6921,
  "version": 1,
  "versionHex": "00000001",
  "merkleroot": "c29361da799d4f7707c03f77d1ab9480cd787005d7a71613ff0a7d961b19881a",
  "time": 1236653242,
  "mediantime": 1236650200,
  "nonce": 151910777,
  "bits": "1d00ffff",
  "difficulty": 1,
  "chainwork": "00000000000000000000000000000000000000000000000000001b0a1b0a1b0a",
  "nTx": 1,
  "previousblockhash": "000000006cc01055572ce6042273622b26dd05993e3a45f39b48ddaa57a171fe",
  "nextblockhash": "000000004fa16ed5632c76e1d5f038c1fdddb38b6c5ef4640e6e04a49e14259a",
  "strippedsize": 216,
  "size": 216,
  "weight": 864,
  "tx": [
    {
      "txid": "c29361da799d4f7707c03f77d1ab9480cd787005d7a71613ff0a7d961b19881a",
      "hash": "c29361da799d4f7707c03f77d1ab9480cd787005d7a71613ff0a7d961b19881a",
      "version": 1,
      "size": 135,
      "vsize": 135,
      "weight": 540,
      "locktime": 0,
      "vin": [
        {
          "coinbase": "04ffff001d02bb05",
          "sequence": 4294967295
        }
      ],
      "vout": [
        {
          "value": 50.0,
          "n": 0,
          "scriptPubKey": {
            "asm": "04d52d40483a55e0fa7e8fec0f9ff496805d4c43eb3a82a8d2035adc2c64a0e27b6135c2b9634e8f509b8617317d7bc93aac3d5ca600caa3898ea9cfe8ada1fcd5 OP_CHECKSIG",
            "desc": "pk(04d52d40483a55e0fa7e8fec0f9ff496805d4c43eb3a82a8d2035adc2c64a0e27b6135c2b9634e8f509b8617317d7bc93aac3d5ca600caa3898ea9cfe8ada1fcd5)#5rch2fhf",
            "hex": "4104d52d40483a55e0fa7e8fec0f9ff496805d4c43eb3a82a8d2035adc2c64a0e27b6135c2b9634e8f509b8617317d7bc93aac3d5ca600caa3898ea9cfe8ada1fcd5ac",
            "type": "pubkey"
          }
        }
      ],
      "hex": "01000000010000000000000000000000000000000000000000000000000000000000000000ffffffff0804ffff001d02bb05ffffffff0100f2052a01000000434104d52d40483a55e0fa7e8fec0f9ff496805d4c43eb3a82a8d2035adc2c64a0e27b6135c2b9634e8f509b8617317d7bc93aac3d5ca600caa3898ea9cfe8ada1fcd5ac00000000"
    }
  ]
}