{
  "hash": "000000004b42b3b378dc13f41346bf3875d01a58ea4ad026ec5ad00b147a5a83",
  "confirmations": 51044,
  "height": 2054,
  "version": 1,
  "versionHex": "00000001",
  "merkleroot": "4da86709e41247b6e59599eedb13776c212e3aa3d0398858bb08b16dc6c1be67",
  "time": 1233099762,
  "mediantime": 1233094197,
  "nonce": 3407471385,
  "bits": "1d00ffff",
  "difficulty": 1,
  "chainwork": "0000000000000000000000000000000000000000000000000000080708070807",
  "nTx": 1,
  "previousblockhash": "00000000565024cff14075df118e0b0e4ac28df91b4c3ec110dfd748c4b90056",
  "nextblockhash": "00000000fdffd873ef1ab43725f9822482015191da3b87e706d742ef983f9356",
  "strippedsize": 216,
  "size": 216,
  "weight": 864,
  "tx": [
    {
      "txid": "4da86709e41247b6e59599eedb13776c212e3aa3d0398858bb08b16dc6c1be67",
      "hash": "4da86709e41247b6e59599eedb13776c212e3aa3d0398858bb08b16dc6c1be67",
      "version": 1,
      "size": 135,
      "vsize": 135,
      "weight": 540,
      "locktime": 0,
      "vin": [
        {
          "coinbase": "04ffff001d02d802",
          "sequence": 4294967295
        }
      ],
      "vout": [
        {
          "value": 50.0,
          "n": 0,
          "scriptPubKey": {
            "asm": "0451718cf03aa8fd6ec70ec63041f22a728782fdde4ecfaa79426a3cd56981b049bbad36a25ea245e9ebd45ee9aa67865cb8080c89a6c99bb5370ce533ced36819 OP_CHECKSIG",
            "desc": "pk(0451718cf03aa8fd6ec70ec63041f22a728782fdde4ecfaa79426a3cd56981b049bbad36a25ea245e9ebd45ee9aa67865cb8080c89a6c99bb5370ce533ced36819)#8ujzfkvv",
            "hex": "410451718cf03aa8fd6ec70ec63041f22a728782fdde4ecfaa79426a3cd56981b049bbad36a25ea245e9ebd45ee9aa67865cb8080c89a6c99bb5370ce533ced36819ac",
            "type": "pubkey"
          }
        }
      ],
      "hex": "01000000010000000000000000000000000000000000000000000000000000000000000000ffffffff0804ffff001d02d802ffffffff0100f2052a0100000043410451718cf03aa8fd6ec70ec63041f22a728782fdde4ecfaa79426a3cd56981b049bbad36a25ea245e9ebd45ee9aa67865cb8080c89a6c99bb5370ce533ced36819ac00000000"
    }
  ]
}