{
  "hash": "0000000055e06ca8b6fcdb26b4541cbd9b495d7dfbc5a4a0d24ba15254f0f45f",
  "confirmations": 51696,
  "height": 1402,
  "version": 1,
  "versionHex": "00000001",
  "merkleroot": "48ea1bd73ad9f07381d9c9637fbb6e2d858384c118d20a9e01e64b119723a9c7",
  "time": 1232726853,
  "mediantime": 1232709019,
  "nonce": 3407427383,
  "bits": "1d00ffff",
  "difficulty": 1,
  "chainwork": "0000000000000000000000000000000000000000000000000000057b057b057b",
  "nTx": 1,
  "previousblockhash": "00000000c7a7852c997de77ca70c5788d2e49417142398b245c5d257a2d96075",
  "nextblockhash": "000000005e2b0076ca0f6454bcd3f2444712c66865cf7d8ec7cb3a87e2e48471",
  "strippedsize": 215,
  "size": 215,
  "weight": 860,
  "tx": [
    {
      "txid": "48ea1bd73ad9f07381d9c9637fbb6e2d858384c118d20a9e01e64b119723a9c7",
      "hash": "48ea1bd73ad9f07381d9c9637fbb6e2d858384c118d20a9e01e64b119723a9c7",
      "version": 1,
      "size": 134,
      "vsize": 134,
      "weight": 536,
      "locktime": 0,
      "vin": [
        {
          "coinbase": "04ffff001d0115",
          "sequence": 4294967295
        }
      ],
      "vout": [
        {
          "value": 50.0,
          "n": 0,
          "scriptPubKey": {
            "asm": "04db5dbafb725c86ee46a6b5ad27b2a41cc82efbc6902366c6efd3d392d4268d69212f96ae5ec2720dc9d2237088ce260d53b26d29cdda548219a3a8ce37fdfd31 OP_CHECKSIG",
            "desc": "pk(04db5dbafb725c86ee46a6b5ad27b2a41cc82efbc6902366c6efd3d392d4268d69212f96ae5ec2720dc9d2237088ce260d53b26d29cdda548219a3a8ce37fdfd31)#gf682784",
            "hex": "4104db5dbafb725c86ee46a6b5ad27b2a41cc82efbc6902366c6efd3d392d4268d69212f96ae5ec2720dc9d2237088ce260d53b26d29cdda548219a3a8ce37fdfd31ac",
            "type": "pubkey"
          }
        }
      ],
      "hex": "01000000010000000000000000000000000000000000000000000000000000000000000000ffffffff0704ffff001d0115ffffffff0100f2052a01000000434104db5dbafb725c86ee46a6b5ad27b2a41cc82efbc6902366c6efd3d392d4268d69212f96ae5ec2720dc9d2237088ce260d53b26d29cdda548219a3a8ce37fdfd31ac00000000"
    }
  ]
}