{
  "hash": "00000000156b3896b33dd7c76f41cfd32187c877665be9371d3a8d20281fa9f1",
  "confirmations": 47816,
  "height": 5282,
  "version": 1,
  "versionHex": "00000001",
  "merkleroot": "7c7f737862dada5067bf08af128047b08fa19ec27d9e0a671ed9658b92b3168f",
  "time": 1235346031,
  "mediantime": 1235343403,
  "nonce": 94375837,
  "bits": "1d00ffff",
  "difficulty": 1,
  "chainwork": "000000000000000000000000000000000000000000000000000014a314a314a3",
  "nTx": 1,
  "previousblockhash": "000000008e56e943232a31c8c685b1911ceb99f8923dad3f56cf3ca0601a4b94",
  "nextblockhash": "00000000b049cef6b1ebe0d1ecdd2465d6907a68d35e9c086a0974b73c2afef9",
  "strippedsize": 216,
  "size": 216,
  "weight": 864,
  "tx": [
    {
      "txid": "7c7f737862dada5067bf08af128047b08fa19ec27d9e0a671ed9658b92b3168f",
      "hash": "7c7f737862dada5067bf08af128047b08fa19ec27d9e0a671ed9658b92b3168f",
      "version": 1,
      "size": 135,
      "vsize": 135,
      "weight": 540,
      "locktime": 0,
      "vin": [
        {
          "coinbase": "04ffff001d028100",
          "sequence": 4294967295
        }
      ],
      "vout": [
        {
          "value": 50.0,
          "n": 0,
          "scriptPubKey": {
            "asm": "046e448923d188035472409e6edf4c6f35d4aa176635b914257cb8e4487606e55d62a85a3765092208068b8843b00c7482636c1df0c35b028b33ecfcc4c547b2b5 OP_CHECKSIG",
            "desc": "pk(046e448923d188035472409e6edf4c6f35d4aa176635b914257cb8e4487606e55d62a85a3765092208068b8843b00c7482636c1df0c35b028b33ecfcc4c547b2b5)#t7dz40sd",
            "hex": "41046e448923d188035472409e6edf4c6f35d4aa176635b914257cb8e4487606e55d62a85a3765092208068b8843b00c7482636c1df0c35b028b33ecfcc4c547b2b5ac",
            "type": "pubkey"
          }
        }
      ],
      "hex": "01000000010000000000000000000000000000000000000000000000000000000000000000ffffffff0804ffff001d028100ffffffff0100f2052a010000004341046e448923d188035472409e6edf4c6f35d4aa176635b914257cb8e4487606e55d62a85a3765092208068b8843b00c7482636c1df0c35b028b33ecfcc4c547b2b5ac00000000"
    }
  ]
}