{
  "hash": "000000006d47f373c1e896a8d9b77469245ab532ce356b2e89133de7d9347a03",
  "confirmations": 46661,
  "height": 6437,
  "version": 1,
  "versionHex": "00000001",
  "merkleroot": "1de0d6a5b2d1621179132ec3a55dba76df6911f75a13f07688ab6b96b1528b1e",
  "time": 1236284217,
  "mediantime": 1236280071,
  "nonce": 37114473,
  "bits": "1d00ffff",
  "difficulty": 1,
  "chainwork": "0000000000000000000000000000000000000000000000000000192619261926",
  "nTx": 1,
  "previousblockhash": "000000008dd41ffb464614945fd529665f8581179d84383bd121024988cce9d8",
  "nextblockhash": "00000000fd3a9cde68ee4f2593374d4a9cd4d0d2269e29e8a47c08ad0bfa6241",
  "strippedsize": 215,
  "size": 215,
  "weight": 860,
  "tx": [
    {
      "txid": "1de0d6a5b2d1621179132ec3a55dba76df6911f75a13f07688ab6b96b1528b1e",
      "hash": "1de0d6a5b2d1621179132ec3a55dba76df6911f75a13f07688ab6b96b1528b1e",
      "version": 1,
      "size": 134,
      "vsize": 134,
      "weight": 536,
      "locktime": 0,
      "vin": [
        {
          "coinbase": "04ffff001d0147",
          "sequence": 4294967295
        }
      ],
      "vout": [
        {
          "value": 50.0,
          "n": 0,
          "scriptPubKey": {
            "asm": "044542113d794ce2a7591d42490d7dbd29ca8257d86aacc54bf5f3bbdfc4f54d42c5e597d8501a064ce884dcbcf3a417929aaeabba83fcf7a93a6738f4caf1dc06 OP_CHECKSIG",
            "desc": "pk(044542113d794ce2a7591d42490d7dbd29ca8257d86aacc54bf5f3bbdfc4f54d42c5e597d8501a064ce884dcbcf3a417929aaeabba83fcf7a93a6738f4caf1dc06)#8pxcl8w7",
            "hex": "41044542113d794ce2a7591d42490d7dbd29ca8257d86aacc54bf5f3bbdfc4f54d42c5e597d8501a064ce884dcbcf3a417929aaeabba83fcf7a93a6738f4caf1dc06ac",
            "type": "pubkey"
          }
        }
      ],
      "hex": "01000000010000000000000000000000000000000000000000000000000000000000000000ffffffff0704ffff001d0147ffffffff0100f2052a010000004341044542113d794ce2a7591d42490d7dbd29ca8257d86aacc54bf5f3bbdfc4f54d42c5e597d8501a064ce884dcbcf3a417929aaeabba83fcf7a93a6738f4caf1dc06ac00000000"
    }
  ]
}