{
  "hash": "000000002a18e023fd07151a80d14b5920af4621149f56b3ee9b8ad9801b1c4d",
  "confirmations": 43921,
  "height": 9177,
  "version": 1,
  "versionHex": "00000001",
  "merkleroot": "6ab7c22eb3d2766fc921dbf8390479be26b450e4039dce7d918bd611517c95a2",
  "time": 1238384840,
  "mediantime": 1238380586,
  "nonce": 278418502,
  "bits": "1d00ffff",
  "difficulty": 1,
  "chainwork": "000000000000000000000000000000000000000000000000000023da23da23da",
  "nTx": 1,
  "previousblockhash": "00000000a339f72d1190f919b401f8f199ec85224fd8921977a40c35b4496dcc",
  "nextblockhash": "000000007ac01c82eae9bf66761bb315bc29c72517d3b024033b5223d821ae2a",
  "strippedsize": 216,
  "size": 216,
  "weight": 864,
  "tx": [
    {
      "txid": "6ab7c22eb3d2766fc921dbf8390479be26b450e4039dce7d918bd611517c95a2",
      "hash": "6ab7c22eb3d2766fc921dbf8390479be26b450e4039dce7d918bd611517c95a2",
      "version": 1,
      "size": 135,
      "vsize": 135,
      "weight": 540,
      "locktime": 0,
      "vin": [
        {
          "coinbase": "04ffff001d028104",
          "sequence": 4294967295
        }
      ],
      "vout": [
        {
          "value": 50.0,
          "n": 0,
          "scriptPubKey": {
            "asm": "048479bd6d5d9a5b881c75586b62066db02b0a1cb95bf4afa4a862a90790a4ec0e0aea581049e38b858a5a5a0ad070e90c5300c208af77186d5bf8c46bb6c5205f OP_CHECKSIG",
            "desc": "pk(048479bd6d5d9a5b881c75586b62066db02b0a1cb95bf4afa4a862a90790a4ec0e0aea581049e38b858a5a5a0ad070e90c5300c208af77186d5bf8c46bb6c5205f)#gdast0re",
            "hex": "41048479bd6d5d9a5b881c75586b62066db02b0a1cb95bf4afa4a862a90790a4ec0e0aea581049e38b858a5a5a0ad070e90c5300c208af77186d5bf8c46bb6c5205fac",
            "type": "pubkey"
          }
        }
      ],
      "hex": "01000000010000000000000000000000000000000000000000000000000000000000000000ffffffff0804ffff001d028104ffffffff0100f2052a010000004341048479bd6d5d9a5b881c75586b62066db02b0a1cb95bf4afa4a862a90790a4ec0e0aea581049e38b858a5a5a0ad070e90c5300c208af77186d5bf8c46bb6c5205fac00000000"
    }
  ]
}