{
  "hash": "00000000d3c23d217f8c90d7a7dc037e71cd425a2fd1f4184b97a96f45b8b52c",
  "confirmations": 52186,
  "height": 435,
  "version": 1,
  "versionHex": "00000001",
  "merkleroot": "fd0e8bcfdb6deeca808864c6531e172a777ba0beb10a23265b1b2db089415089",
  "time": 1231925298,
  "mediantime": 1231922852,
  "nonce": 2988810291,
  "bits": "1d00ffff",
  "difficulty": 1,
  "chainwork": "000000000000000000000000000000000000000000000000000001b401b401b4",
  "nTx": 1,
  "previousblockhash": "00000000f102043c1c58e47b6e91e6804f7ae356fed25c456c6f8359e737da6d",
  "nextblockhash": "000000007f7ce860da89da06f2c78d489a21d61557bf89549d016afcb6c31d54",
  "strippedsize": 216,
  "size": 216,
  "weight": 864,
  "tx": [
    {
      "txid": "fd0e8bcfdb6deeca808864c6531e172a777ba0beb10a23265b1b2db089415089",
      "hash": "fd0e8bcfdb6deeca808864c6531e172a777ba0beb10a23265b1b2db089415089",
      "version": 1,
      "size": 135,
      "vsize": 135,
      "weight": 540,
      "locktime": 0,
      "vin": [
        {
          "coinbase": "04ffff001d025903",
          "sequence": 4294967295
        }
      ],
      "vout": [
        {
          "value": 50.0,
          "n": 0,
          "scriptPubKey": {
            "asm": "04cae86f2b9c8bb385a5232fe1fbf3c48304f10e36eb68d9b24afb720317acfd620b04c44b5f455ed61eb9fd0bdb3a923e858b9a24fe3a17399adf288b4c6a61c2 OP_CHECKSIG",
            "desc": "pk(04cae86f2b9c8bb385a5232fe1fbf3c48304f10e36eb68d9b24afb720317acfd620b04c44b5f455ed61eb9fd0bdb3a923e858b9a24fe3a17399adf288b4c6a61c2)#kk9khh8e",
            "hex": "4104cae86f2b9c8bb385a5232fe1fbf3c48304f10e36eb68d9b24afb720317acfd620b04c44b5f455ed61eb9fd0bdb3a923e858b9a24fe3a17399adf288b4c6a61c2ac",
            "type": "pubkey"
          }
        }
      ],
      "hex": "01000000010000000000000000000000000000000000000000000000000000000000000000ffffffff0804ffff001d025903ffffffff0100f2052a01000000434104cae86f2b9c8bb385a5232fe1fbf3c48304f10e36eb68d9b24afb720317acfd620b04c44b5f455ed61eb9fd0bdb3a923e858b9a24fe3a17399adf288b4c6a61c2ac00000000"
    }
  ]
}