{
  "hash": "00000000c1408749bfd1d2c8f5c4a95f7671bd209b5a1e2b2c7fcef37afa7bb2",
  "confirmations": 47829,
  "height": 5269,
  "version": 1,
  "versionHex": "00000001",
  "merkleroot": "f0baf8f51487ed8fb413c0d656f99a29ca11bbcc877432e55d7d1abc3a4fb683",
  "time": 1235337419,
  "mediantime": 1235333254,
  "nonce": 2484286511,
  "bits": "1d00ffff",
  "difficulty": 1,
  "chainwork": "0000000000000000000000000000000000000000000000000000149614961496",
  "nTx": 1,
  "previousblockhash": "000000009972e6730c5f971f0b88a2a7702d240ebe1042f4cc77d65ab16bb47c",
  "nextblockhash": "00000000982341293a508a7c464f238fd8a6a9187dec0531cb9aabbe2f2a3118",
  "strippedsize": 216,
  "size": 216,
  "weight": 864,
  "tx": [
    {
      "txid": "f0baf8f51487ed8fb413c0d656f99a29ca11bbcc877432e55d7d1abc3a4fb683",
      "hash": "f0baf8f51487ed8fb413c0d656f99a29ca11bbcc877432e55d7d1abc3a4fb683",
      "version": 1,
      "size": 135,
      "vsize": 135,
      "weight": 540,
      "locktime": 0,
      "vin": [
        {
          "coinbase": "04ffff001d028b01",
          "sequence": 4294967295
        }
      ],
      "vout": [
        {
          "value": 50.0,
          "n": 0,
          "scriptPubKey": {
            "asm": "042e72c6c6cebf9846c3e7b21d211e7626d4fd63d760ef508acb2b121cd55a2e758fca345aff776f97fb352cba8afd9dca84f3ae938cfc0fd6e66faa51728bd745 OP_CHECKSIG",
            "desc": "pk(042e72c6c6cebf9846c3e7b21d211e7626d4fd63d760ef508acb2b121cd55a2e758fca345aff776f97fb352cba8afd9dca84f3ae938cfc0fd6e66faa51728bd745)#5mwtk02w",
            "hex": "41042e72c6c6cebf9846c3e7b21d211e7626d4fd63d760ef508acb2b121cd55a2e758fca345aff776f97fb352cba8afd9dca84f3ae938cfc0fd6e66faa51728bd745ac",
            "type": "pubkey"
          }
        }
      ],
      "hex": "01000000010000000000000000000000000000000000000000000000000000000000000000ffffffff0804ffff001d028b01ffffffff0100f2052a010000004341042e72c6c6cebf9846c3e7b21d211e7626d4fd63d760ef508acb2b121cd55a2e758fca345aff776f97fb352cba8afd9dca84f3ae938cfc0fd6e66faa51728bd745ac00000000"
    }
  ]
}