{
  "hash": "00000000f13295efafe1a7c5498a889d542604af98a705fee95bd2feb6cda2e3",
  "confirmations": 45861,
  "height": 7237,
  "version": 1,
  "versionHex": "00000001",
  "merkleroot": "bff9c69588707b2860f06ea72577699761bd357daf1613c4d357c5162037e8e0",
  "time": 1236896156,
  "mediantime": 1236893569,
  "nonce": 2382039346,
  "bits": "1d00ffff",
  "difficulty": 1,
  "chainwork": "00000000000000000000000000000000000000000000000000001c461c461c46",
  "nTx": 1,
  "previousblockhash": "000000008773bccf8a80a86b91cebf36a59cee12b2d5934bec88e1c6d8e3cfc5",
  "nextblockhash": "000000001fed6c39cc446c996957c0ef84815ef8cbfc8a8b7456ea6b306fe843",
  "strippedsize": 216,
  "size": 216,
  "weight": 864,
  "tx": [
    {
      "txid": "bff9c69588707b2860f06ea72577699761bd357daf1613c4d357c5162037e8e0",
      "hash": "bff9c69588707b2860f06ea72577699761bd357daf1613c4d357c5162037e8e0",
      "version": 1,
      "size": 135,
      "vsize": 135,
      "weight": 540,
      "locktime": 0,
      "vin": [
        {
          "coinbase": "04ffff001d023106",
          "sequence": 4294967295
        }
      ],
      "vout": [
        {
          "value": 50.0,
          "n": 0,
          "scriptPubKey": {
            "asm": "04ff72da568c7a85a2701840d738d82169a9466e0c5ba8b7960456832690ed9b7494e0a9664cb72ce6b31f53bec250309150103d7aecaab0dad3bea8aab11bd69a OP_CHECKSIG",
            "desc": "pk(04ff72da568c7a85a2701840d738d82169a9466e0c5ba8b7960456832690ed9b7494e0a9664cb72ce6b31f53bec250309150103d7aecaab0dad3bea8aab11bd69a)#kawy6lwm",
            "hex": "4104ff72da568c7a85a2701840d738d82169a9466e0c5ba8b7960456832690ed9b7494e0a9664cb72ce6b31f53bec250309150103d7aecaab0dad3bea8aab11bd69aac",
            "type": "pubkey"
          }
        }
      ],
      "hex": "01000000010000000000000000000000000000000000000000000000000000000000000000ffffffff0804ffff001d023106ffffffff0100f2052a01000000434104ff72da568c7a85a2701840d738d82169a9466e0c5ba8b7960456832690ed9b7494e0a9664cb72ce6b31f53bec250309150103d7aecaab0dad3bea8aab11bd69aac00000000"
    }
  ]
}