{
  "hash": "00000000469051cee0bd7a50d086371524494b377fc40b30664bcf503860d548",
  "confirmations": 46533,
  "height": 6565,
  "version": 1,
  "versionHex": "00000001",
  "merkleroot": "4077cbcb85e02f6e628c952626e2709dd8a4a3aee94c715f6eaaaeeed55b4a11",
  "time": 1236376530,
  "mediantime": 1236374181,
  "nonce": 67038891,
  "bits": "1d00ffff",
  "difficulty": 1,
  "chainwork": "000000000000000000000000000000000000000000000000000019a619a619a6",
  "nTx": 1,
  "previousblockhash": "000000004caef4968b3c0adb8056c8a5e53573431c23079e529bc83a0f2bf1ca",
  "nextblockhash": "00000000f3a96763eb7e4bf1e7753bfda0641d65ae0ccc2b25ae4dfc1bd83f39",
  "strippedsize": 216,
  "size": 216,
  "weight": 864,
  "tx": [
    {
      "txid": "4077cbcb85e02f6e628c952626e2709dd8a4a3aee94c715f6eaaaeeed55b4a11",
      "hash": "4077cbcb85e02f6e628c952626e2709dd8a4a3aee94c715f6eaaaeeed55b4a11",
      "version": 1,
      "size": 135,
      "vsize": 135,
      "weight": 540,
      "locktime": 0,
      "vin": [
        {
          "coinbase": "04ffff001d026f0b",
          "sequence": 4294967295
        }
      ],
      "vout": [
        {
          "value": 50.0,
          "n": 0,
          "scriptPubKey": {
            "asm": "04527bf0be37b04664e2948655e27c8133ecf79c99b735cd5364bac0e5f38d574859f09aa3b41a78b2e3b4f9af7f5ff4e19f903c13e4ad9f757ba94519e51a0f50 OP_CHECKSIG",
            "desc": "pk(04527bf0be37b04664e2948655e27c8133ecf79c99b735cd5364bac0e5f38d574859f09aa3b41a78b2e3b4f9af7f5ff4e19f903c13e4ad9f757ba94519e51a0f50)#qujfgcnp",
            "hex": "4104527bf0be37b04664e2948655e27c8133ecf79c99b735cd5364bac0e5f38d574859f09aa3b41a78b2e3b4f9af7f5ff4e19f903c13e4ad9f757ba94519e51a0f50ac",
            "type": "pubkey"
          }
        }
      ],
      "hex": "01000000010000000000000000000000000000000000000000000000000000000000000000ffffffff0804ffff001d026f0bffffffff0100f2052a01000000434104527bf0be37b04664e2948655e27c8133ecf79c99b735cd5364bac0e5f38d574859f09aa3b41a78b2e3b4f9af7f5ff4e19f903c13e4ad9f757ba94519e51a0f50ac00000000"
    }
  ]
}