{
  "hash": "000000005bf129772a6ad06016b514fa89ee7a4ba333a657055bf709d3017c5c",
  "confirmations": 47394,
  "height": 5704,
  "version": 1,
  "versionHex": "00000001",
  "merkleroot": "0501757928d031ede724a392889bc9f8f33886e0054ba1b51a92bb3ee63d3096",
  "time": 1235688872,
  "mediantime": 1235684594,
  "nonce": 1849707817,
  "bits": "1d00ffff",
  "difficulty": 1,
  "chainwork": "0000000000000000000000000000000000000000000000000000164916491649",
  "nTx": 1,
  "previousblockhash": "00000000b1b83eefd9c54cce943557976252d43d68ab28a0ce7021f15a55ec0e",
  "nextblockhash": "0000000042908edf3f36befc516476b3f94db81051c5fc5ae6084f0c4eafa6f8",
  "strippedsize": 216,
  "size": 216,
  "weight": 864,
  "tx": [
    {
      "txid": "0501757928d031ede724a392889bc9f8f33886e0054ba1b51a92bb3ee63d3096",
      "hash": "0501757928d031ede724a392889bc9f8f33886e0054ba1b51a92bb3ee63d3096",
      "version": 1,
      "size": 135,
      "vsize": 135,
      "weight": 540,
      "locktime": 0,
      "vin": [
        {
          "coinbase": "04ffff001d028809",
          "sequence": 4294967295
        }
      ],
      "vout": [
        {
          "value": 50.0,
          "n": 0,
          "scriptPubKey": {
            "asm": "04a4bb2db8e5d50af0a8276df441aa25006e5a8a3364278bffba3df3450593fc7ac64944d787924d84e2d9ab44d53b6f1cdb811e4f41fabf5b3aa35f99c974a87a OP_CHECKSIG",
            "desc": "pk(04a4bb2db8e5d50af0a8276df441aa25006e5a8a3364278bffba3df3450593fc7ac64944d787924d84e2d9ab44d53b6f1cdb811e4f41fabf5b3aa35f99c974a87a)#m2kkn7th",
            "hex": "4104a4bb2db8e5d50af0a8276df441aa25006e5a8a3364278bffba3df3450593fc7ac64944d787924d84e2d9ab44d53b6f1cdb811e4f41fabf5b3aa35f99c974a87aac",
            "type": "pubkey"
          }
        }
      ],
      "hex": "01000000010000000000000000000000000000000000000000000000000000000000000000ffffffff0804ffff001d028809ffffffff0100f2052a01000000434104a4bb2db8e5d50af0a8276df441aa25006e5a8a3364278bffba3df3450593fc7ac64944d787924d84e2d9ab44d53b6f1cdb811e4f41fabf5b3aa35f99c974a87aac00000000"
    }
  ]
}