{
  "hash": "000000000e10be0713aaea675fb71a9481e6468fd9206833b6be100af33baeab",
  "confirmations": 44683,
  "height": 8415,
  "version": 1,
  "versionHex": "00000001",
  "merkleroot": "c83c6a6954e4024995dc9c05f85a8234275a953a56755ac889f53453b333cc44",
  "time": 1237810435,
  "mediantime": 1237806749,
  "nonce": 190271322,
  "bits": "1d00ffff",
  "difficulty": 1,
  "chainwork": "000000000000000000000000000000000000000000000000000020e020e020e0",
  "nTx": 1,
  "previousblockhash": "00000000fc468e1375ee4aa26db6b6053ee5979c54e341094ba3b591f3fb75e4",
  "nextblockhash": "000000007673ce35038f0e1ff8d7a265a97f854d7a5b8b7518334ed0e7626b74",
  "strippedsize": 216,
  "size": 216,
  "weight": 864,
  "tx": [
    {
      "txid": "c83c6a6954e4024995dc9c05f85a8234275a953a56755ac889f53453b333cc44",
      "hash": "c83c6a6954e4024995dc9c05f85a8234275a953a56755ac889f53453b333cc44",
      "version": 1,
      "size": 135,
      "vsize": 135,
      "weight": 540,
      "locktime": 0,
      "vin": [
        {
          "coinbase": "04ffff001d024805",
          "sequence": 4294967295
        }
      ],
      "vout": [
        {
          "value": 50.0,
          "n": 0,
          "scriptPubKey": {
            "asm": "040cb8c468ccbbd4aef4973c867cb8616fe751aa532d6df4a4d52bbb3864b62b9a0cd9c30e959da9bb43e47d3f8e608a3afca02cb7b3df3108644583388ee0ce39 OP_CHECKSIG",
            "desc": "pk(040cb8c468ccbbd4aef4973c867cb8616fe751aa532d6df4a4d52bbb3864b62b9a0cd9c30e959da9bb43e47d3f8e608a3afca02cb7b3df3108644583388ee0ce39)#rwhqwlzq",
            "hex": "41040cb8c468ccbbd4aef4973c867cb8616fe751aa532d6df4a4d52bbb3864b62b9a0cd9c30e959da9bb43e47d3f8e608a3afca02cb7b3df3108644583388ee0ce39ac",
            "type": "pubkey"
          }
        }
      ],
      "hex": "01000000010000000000000000000000000000000000000000000000000000000000000000ffffffff0804ffff001d024805ffffffff0100f2052a010000004341040cb8c468ccbbd4aef4973c867cb8616fe751aa532d6df4a4d52bbb3864b62b9a0cd9c30e959da9bb43e47d3f8e608a3afca02cb7b3df3108644583388ee0ce39ac00000000"
    }
  ]
}