{
  "hash": "000000000f95bcb1b522c533da5084cfaa8132b9f8014a4b64b811ca6ec379a4",
  "confirmations": 45536,
  "height": 7562,
  "version": 1,
  "versionHex": "00000001",
  "merkleroot": "17e21352c42ca7589b6f896fad7532cac167a3f0b682c3cc896f4411e668abb1",
  "time": 1237145314,
  "mediantime": 1237142619,
  "nonce": 4210167349,
  "bits": "1d00ffff",
  "difficulty": 1,
  "chainwork": "00000000000000000000000000000000000000000000000000001d8b1d8b1d8b",
  "nTx": 1,
  "previousblockhash": "00000000a8be7f2f4853219fc467223edbf7dc1aaa0d8a35791bda3afbf29914",
  "nextblockhash": "00000000fd759a966080ea6a163e702740501a6e0745f639056a689eb3e94263",
  "strippedsize": 216,
  "size": 216,
  "weight": 864,
  "tx": [
    {
      "txid": "17e21352c42ca7589b6f896fad7532cac167a3f0b682c3cc896f4411e668abb1",
      "hash": "17e21352c42ca7589b6f896fad7532cac167a3f0b682c3cc896f4411e668abb1",
      "version": 1,
      "size": 135,
      "vsize": 135,
      "weight": 540,
      "locktime": 0,
      "vin": [
        {
          "coinbase": "04ffff001d021102",
          "sequence": 4294967295
        }
      ],
      "vout": [
        {
          "value": 50.0,
          "n": 0,
          "scriptPubKey": {
            "asm": "04f0f29266ea6332bd4aab040f48f36d0c0a493a7a78167dc8294bfb60b3781f0ee09d12fa3db6a42efe364eee86346c115929d828242ceae9bc7b8c8885894528 OP_CHECKSIG",
            "desc": "pk(04f0f29266ea6332bd4aab040f48f36d0c0a493a7a78167dc8294bfb60b3781f0ee09d12fa3db6a42efe364eee86346c115929d828242ceae9bc7b8c8885894528)#np387nd8",
            "hex": "4104f0f29266ea6332bd4aab040f48f36d0c0a493a7a78167dc8294bfb60b3781f0ee09d12fa3db6a42efe364eee86346c115929d828242ceae9bc7b8c8885894528ac",
            "type": "pubkey"
          }
        }
      ],
      "hex": "01000000010000000000000000000000000000000000000000000000000000000000000000ffffffff0804ffff001d021102ffffffff0100f2052a01000000434104f0f29266ea6332bd4aab040f48f36d0c0a493a7a78167dc8294bfb60b3781f0ee09d12fa3db6a42efe364eee86346c115929d828242ceae9bc7b8c8885894528ac00000000"
    }
  ]
}