{
  "hash": "0000000047643027ae09b94967a01b33960a45fbda04f06afbfa158974dff321",
  "confirmations": 51247,
  "height": 1851,
  "version": 1,
  "versionHex": "00000001",
  "merkleroot": "73c31449bc52c42f3534f8e8759eeacc98bf67f2dc4a72f7434fb4254a9b6cbd",
  "time": 1232922677,
  "mediantime": 1232920337,
  "nonce": 898669350,
  "bits": "1d00ffff",
  "difficulty": 1,
  "chainwork": "0000000000000000000000000000000000000000000000000000073c073c073c",
  "nTx": 1,
  "previousblockhash": "000000001b5bcdc869f9be859cd3f7cd500c718ffe3d4ad3e941bef111593078",
  "nextblockhash": "000000001344959fad0372d099b7c038d2a68369d72f8d589905d67282db47e8",
  "strippedsize": 216,
  "size": 216,
  "weight": 864,
  "tx": [
    {
      "txid": "73c31449bc52c42f3534f8e8759eeacc98bf67f2dc4a72f7434fb4254a9b6cbd",
      "hash": "73c31449bc52c42f3534f8e8759eeacc98bf67f2dc4a72f7434fb4254a9b6cbd",
      "version": 1,
      "size": 135,
      "vsize": 135,
      "weight": 540,
      "locktime": 0,
      "vin": [
        {
          "coinbase": "04ffff001d02ab04",
          "sequence": 4294967295
        }
      ],
      "vout": [
        {
          "value": 50.0,
          "n": 0,
          "scriptPubKey": {
            "asm": "0428c2f664e8d0fd2041a0623d6915eb91abf544a9ec71c7403fd5b3c9cfc9c59488e5c97431b01e6035cf547ac6ba98d5d77d5ff07597cca5785e326406bed9c3 OP_CHECKSIG",
            "desc": "pk(0428c2f664e8d0fd2041a0623d6915eb91abf544a9ec71c7403fd5b3c9cfc9c59488e5c97431b01e6035cf547ac6ba98d5d77d5ff07597cca5785e326406bed9c3)#5s8znvam",
            "hex": "410428c2f664e8d0fd2041a0623d6915eb91abf544a9ec71c7403fd5b3c9cfc9c59488e5c97431b01e6035cf547ac6ba98d5d77d5ff07597cca5785e326406bed9c3ac",
            "type": "pubkey"
          }
        }
      ],
      "hex": "01000000010000000000000000000000000000000000000000000000000000000000000000ffffffff0804ffff001d02ab04ffffffff0100f2052a0100000043410428c2f664e8d0fd2041a0623d6915eb91abf544a9ec71c7403fd5b3c9cfc9c59488e5c97431b01e6035cf547ac6ba98d5d77d5ff07597cca5785e326406bed9c3ac00000000"
    }
  ]
}