{
  "hash": "000000008c9da40f51b0ea34315f03ba7f367a69c71f1654ecf42d9fec355960",
  "confirmations": 46916,
  "height": 6182,
  "version": 1,
  "versionHex": "00000001",
  "merkleroot": "8a21f5f95eaca66995d9fdf0741be814741d15d37c7ad2fbf954050cbd8be192",
  "time": 1236077670,
  "mediantime": 1236072198,
  "nonce": 77636660,
  "bits": "1d00ffff",
  "difficulty": 1,
  "chainwork": "0000000000000000000000000000000000000000000000000000182718271827",
  "nTx": 1,
  "previousblockhash": "000000000324a4d2067b0d0d42a7ffd0d63a203e9a961672b39bd14f1dfcbf67",
  "nextblockhash": "000000008db36ba3c95a5780c247cf049570bc1b3ae1e7155db166e6f5eb89fe",
  "strippedsize": 216,
  "size": 216,
  "weight": 864,
  "tx": [
    {
      "txid": "8a21f5f95eaca66995d9fdf0741be814741d15d37c7ad2fbf954050cbd8be192",
      "hash": "8a21f5f95eaca66995d9fdf0741be814741d15d37c7ad2fbf954050cbd8be192",
      "version": 1,
      "size": 135,
      "vsize": 135,
      "weight": 540,
      "locktime": 0,
      "vin": [
        {
          "coinbase": "04ffff001d023408",
          "sequence": 4294967295
        }
      ],
      "vout": [
        {
          "value": 50.0,
          "n": 0,
          "scriptPubKey": {
            "asm": "04a6fb38489808300e789efe96258be59cf158bd6c020d5e8c747ebbdc3c5ab4b39d4bd4322a6f847567edafd3cec84e06a1e9f5fc15f2ed7eea2e6cbb92d9833b OP_CHECKSIG",
            "desc": "pk(04a6fb38489808300e789efe96258be59cf158bd6c020d5e8c747ebbdc3c5ab4b39d4bd4322a6f847567edafd3cec84e06a1e9f5fc15f2ed7eea2e6cbb92d9833b)#frh0pq49",
            "hex": "4104a6fb38489808300e789efe96258be59cf158bd6c020d5e8c747ebbdc3c5ab4b39d4bd4322a6f847567edafd3cec84e06a1e9f5fc15f2ed7eea2e6cbb92d9833bac",
            "type": "pubkey"
          }
        }
      ],
      "hex": "01000000010000000000000000000000000000000000000000000000000000000000000000ffffffff0804ffff001d023408ffffffff0100f2052a01000000434104a6fb38489808300e789efe96258be59cf158bd6c020d5e8c747ebbdc3c5ab4b39d4bd4322a6f847567edafd3cec84e06a1e9f5fc15f2ed7eea2e6cbb92d9833bac00000000"
    }
  ]
}