{
  "hash": "000000005edc36efc96b639fc1b4af4161322ab858ada9639cc90ffe4ddd168a",
  "confirmations": 46203,
  "height": 6895,
  "version": 1,
  "versionHex": "00000001",
  "merkleroot": "f6cb2a4d0452173dfbee1b7fd5e1e33cb43a26cb2a4a5fe3447db6d667f15b7d",
  "time": 1236633071,
  "mediantime": 1236629162,
  "nonce": 165090519,
  "bits": "1d00ffff",
  "difficulty": 1,
  "chainwork": "00000000000000000000000000000000000000000000000000001af01af01af0",
  "nTx": 1,
  "previousblockhash": "000000006a07f51a21bf370586daeaf651a5ff29bcf1d53dad55582762f9f4b0",
  "nextblockhash": "00000000f41cdea74d54ba0783469e09b6f34ceab6542260f6428c890059b57f",
  "strippedsize": 216,
  "size": 216,
  "weight": 864,
  "tx": [
    {
      "txid": "f6cb2a4d0452173dfbee1b7fd5e1e33cb43a26cb2a4a5fe3447db6d667f15b7d",
      "hash": "f6cb2a4d0452173dfbee1b7fd5e1e33cb43a26cb2a4a5fe3447db6d667f15b7d",
      "version": 1,
      "size": 135,
      "vsize": 135,
      "weight": 540,
      "locktime": 0,
      "vin": [
        {
          "coinbase": "04ffff001d02ba0c",
          "sequence": 4294967295
        }
      ],
      "vout": [
        {
          "value": 50.0,
          "n": 0,
          "scriptPubKey": {
            "asm": "0450e22204ca4273543078575de6d4c07b04b915be91c165f8f44578cb0784b45d3bfee67d68e8a8a7480dfb5eee0a780d71a75eeb5ff69f2a816b113983b3c299 OP_CHECKSIG",
            "desc": "pk(0450e22204ca4273543078575de6d4c07b04b915be91c165f8f44578cb0784b45d3bfee67d68e8a8a7480dfb5eee0a780d71a75eeb5ff69f2a816b113983b3c299)#9d3f8k8q",
            "hex": "410450e22204ca4273543078575de6d4c07b04b915be91c165f8f44578cb0784b45d3bfee67d68e8a8a7480dfb5eee0a780d71a75eeb5ff69f2a816b113983b3c299ac",
            "type": "pubkey"
          }
        }
      ],
      "hex": "01000000010000000000000000000000000000000000000000000000000000000000000000ffffffff0804ffff001d02ba0cffffffff0100f2052a0100000043410450e22204ca4273543078575de6d4c07b04b915be91c165f8f44578cb0784b45d3bfee67d68e8a8a7480dfb5eee0a780d71a75eeb5ff69f2a816b113983b3c299ac00000000"
    }
  ]
}