{
  "hash": "00000000a23e5952c979ef6f8e1f90fd2bf52943c4a3e172613dc0b770e7cb31",
  "confirmations": 43997,
  "height": 9101,
  "version": 1,
  "versionHex": "00000001",
  "merkleroot": "c87235d085df1bf1369b7fffd86c073f01f0f99d230b2788ac96621171be764a",
  "time": 1238330801,
  "mediantime": 1238328150,
  "nonce": 3690226733,
  "bits": "1d00ffff",
  "difficulty": 1,
  "chainwork": "0000000000000000000000000000000000000000000000000000238e238e238e",
  "nTx": 1,
  "previousblockhash": "0000000071a164101778a4098e1b550a885fbafcf6b208291529e8386786a4c6",
  "nextblockhash": "0000000002970357b555144ee840b0bdcd0a1279e1baa839a97ad7fc59ece030",
  "strippedsize": 216,
  "size": 216,
  "weight": 864,
  "tx": [
    {
      "txid": "c87235d085df1bf1369b7fffd86c073f01f0f99d230b2788ac96621171be764a",
      "hash": "c87235d085df1bf1369b7fffd86c073f01f0f99d230b2788ac96621171be764a",
      "version": 1,
      "size": 135,
      "vsize": 135,
      "weight": 540,
      "locktime": 0,
      "vin": [
        {
          "coinbase": "04ffff001d024f08",
          "sequence": 4294967295
        }
      ],
      "vout": [
        {
          "value": 50.0,
          "n": 0,
          "scriptPubKey": {
            "asm": "041c4c363ccd9ec877e45f11db5d5c1ff6644fd104fe55750bb6c5555cae484e0505742740f5f54be3549d6ac559f9c6f1eced68980e5bf5fe131d0d05eb332685 OP_CHECKSIG",
            "desc": "pk(041c4c363ccd9ec877e45f11db5d5c1ff6644fd104fe55750bb6c5555cae484e0505742740f5f54be3549d6ac559f9c6f1eced68980e5bf5fe131d0d05eb332685)#g02wm9r5",
            "hex": "41041c4c363ccd9ec877e45f11db5d5c1ff6644fd104fe55750bb6c5555cae484e0505742740f5f54be3549d6ac559f9c6f1eced68980e5bf5fe131d0d05eb332685ac",
            "type": "pubkey"
          }
        }
      ],
      "hex": "01000000010000000000000000000000000000000000000000000000000000000000000000ffffffff0804ffff001d024f08ffffffff0100f2052a010000004341041c4c363ccd9ec877e45f11db5d5c1ff6644fd104fe55750bb6c5555cae484e0505742740f5f54be3549d6ac559f9c6f1eced68980e5bf5fe131d0d05eb332685ac00000000"
    }
  ]
}