{
  "hash": "00000000da6e80599108dbb4d23ede0fc8fb45adc3d974ada0742786ad5008a9",
  "confirmations": 52167,
  "height": 931,
  "version": 1,
  "versionHex": "00000001",
  "merkleroot": "66433e2e8c839048849f59c6d17035c37dfb8a4d8d0a007de09257c63c293ca4",
  "time": 1232301208,
  "mediantime": 1232296490,
  "nonce": 2445924388,
  "bits": "1d00ffff",
  "difficulty": 1,
  "chainwork": "000000000000000000000000000000000000000000000000000003a403a403a4",
  "nTx": 1,
  "previousblockhash": "0000000042e0f3fb820bbb0eb033d0e3ea6ac8a22244100442b47b421c15eafb",
  "nextblockhash": "0000000021de9e08a94972464e8b4203c69c88e98b0279ad11ce81afd4c54c1f",
  "strippedsize": 216,
  "size": 216,
  "weight": 864,
  "tx": [
    {
      "txid": "66433e2e8c839048849f59c6d17035c37dfb8a4d8d0a007de09257c63c293ca4",
      "hash": "66433e2e8c839048849f59c6d17035c37dfb8a4d8d0a007de09257c63c293ca4",
      "version": 1,
      "size": 135,
      "vsize": 135,
      "weight": 540,
      "locktime": 0,
      "vin": [
        {
          "coinbase": "04ffff001d021904",
          "sequence": 4294967295
        }
      ],
      "vout": [
        {
          "value": 50.0,
          "n": 0,
          "scriptPubKey": {
            "asm": "043b6fefb5c9c98e959225982d0151740b7be8bf92984650a11aa809ad97d80a31e63b9855413aa53977f2a28d2ad23426a25c810263b5c7c3ee342deea2c92bd6 OP_CHECKSIG",
            "desc": "pk(043b6fefb5c9c98e959225982d0151740b7be8bf92984650a11aa809ad97d80a31e63b9855413aa53977f2a28d2ad23426a25c810263b5c7c3ee342deea2c92bd6)#vw4s9lqv",
            "hex": "41043b6fefb5c9c98e959225982d0151740b7be8bf92984650a11aa809ad97d80a31e63b9855413aa53977f2a28d2ad23426a25c810263b5c7c3ee342deea2c92bd6ac",
            "type": "pubkey"
          }
        }
      ],
      "hex": "01000000010000000000000000000000000000000000000000000000000000000000000000ffffffff0804ffff001d021904ffffffff0100f2052a010000004341043b6fefb5c9c98e959225982d0151740b7be8bf92984650a11aa809ad97d80a31e63b9855413aa53977f2a28d2ad23426a25c810263b5c7c3ee342deea2c92bd6ac00000000"
    }
  ]
}