{
  "hash": "00000000ecc49a43057d125f00c0d3f55473edafbdec2ed55fdec8c04cca9efb",
  "confirmations": 46621,
  "height": 6477,
  "version": 1,
  "versionHex": "00000001",
  "merkleroot": "9f8aec3cd1a1ba8bb42fc5f7ea7e2e97e10f368ebdfbda95f4473049b7e99844",
  "time": 1236313198,
  "mediantime": 1236309290,
  "nonce": 3594034213,
  "bits": "1d00ffff",
  "difficulty": 1,
  "chainwork": "0000000000000000000000000000000000000000000000000000194e194e194e",
  "nTx": 1,
  "previousblockhash": "000000000010b24a122163f2037132d767e6c5bd4c0642d9669fd94845e93289",
  "nextblockhash": "00000000de826db313b89675d3c87abd4fa1226bb16b1605d57d53cdbf818abb",
  "strippedsize": 216,
  "size": 216,
  "weight": 864,
  "tx": [
    {
      "txid": "9f8aec3cd1a1ba8bb42fc5f7ea7e2e97e10f368ebdfbda95f4473049b7e99844",
      "hash": "9f8aec3cd1a1ba8bb42fc5f7ea7e2e97e10f368ebdfbda95f4473049b7e99844",
      "version": 1,
      "size": 135,
      "vsize": 135,
      "weight": 540,
      "locktime": 0,
      "vin": [
        {
          "coinbase": "04ffff001d02f102",
          "sequence": 4294967295
        }
      ],
      "vout": [
        {
          "value": 50.0,
          "n": 0,
          "scriptPubKey": {
            "asm": "046ce79e2ed7d8817cc9496cdfcaf9d834100fa218ab2c9b889df2a464533f55494741d98c153f25c0afd8fdb63d23b70f05bf61a45fb0bb39c2b9e3b513702320 OP_CHECKSIG",
            "desc": "pk(046ce79e2ed7d8817cc9496cdfcaf9d834100fa218ab2c9b889df2a464533f55494741d98c153f25c0afd8fdb63d23b70f05bf61a45fb0bb39c2b9e3b513702320)#jekvlqq9",
            "hex": "41046ce79e2ed7d8817cc9496cdfcaf9d834100fa218ab2c9b889df2a464533f55494741d98c153f25c0afd8fdb63d23b70f05bf61a45fb0bb39c2b9e3b513702320ac",
            "type": "pubkey"
          }
        }
      ],
      "hex": "01000000010000000000000000000000000000000000000000000000000000000000000000ffffffff0804ffff001d02f102ffffffff0100f2052a010000004341046ce79e2ed7d8817cc9496cdfcaf9d834100fa218ab2c9b889df2a464533f55494741d98c153f25c0afd8fdb63d23b70f05bf61a45fb0bb39c2b9e3b513702320ac00000000"
    }
  ]
}