{
  "hash": "00000000904dc5e49999f9da6536e941a754111261a9b1ac06284be8e48eb7d3",
  "confirmations": 46306,
  "height": 6792,
  "version": 1,
  "versionHex": "00000001",
  "merkleroot": "4c3dec595e3076fd5368a8fbe2f57dfc06cf20bb029286f468f3fe529f96542f",
  "time": 1236552348,
  "mediantime": 1236550334,
  "nonce": 2288310329,
  "bits": "1d00ffff",
  "difficulty": 1,
  "chainwork": "00000000000000000000000000000000000000000000000000001a891a891a89",
  "nTx": 1,
  "previousblockhash": "000000005228ece0026fd6d775ca17dbd74fcd7dfe061b0b4072cfe2c58c577b",
  "nextblockhash": "00000000a8724b8bb407df756f81b9fdafa99110179f37d845e7358a7628b02c",
  "strippedsize": 216,
  "size": 216,
  "weight": 864,
  "tx": [
    {
      "txid": "4c3dec595e3076fd5368a8fbe2f57dfc06cf20bb029286f468f3fe529f96542f",
      "hash": "4c3dec595e3076fd5368a8fbe2f57dfc06cf20bb029286f468f3fe529f96542f",
      "version": 1,
      "size": 135,
      "vsize": 135,
      "weight": 540,
      "locktime": 0,
      "vin": [
        {
          "coinbase": "04ffff001d02bf08",
          "sequence": 4294967295
        }
      ],
      "vout": [
        {
          "value": 50.0,
          "n": 0,
          "scriptPubKey": {
            "asm": "0469e29d7fac458a522d954e33a1f3f2dd42a7ba0a1d6f296b8db0f1688ffe2ee98b98d0cd66d864a35eb323bf1abdff604b685022ccb33e08911ca6f8f4e576e5 OP_CHECKSIG",
            "desc": "pk(0469e29d7fac458a522d954e33a1f3f2dd42a7ba0a1d6f296b8db0f1688ffe2ee98b98d0cd66d864a35eb323bf1abdff604b685022ccb33e08911ca6f8f4e576e5)#aumzzu94",
            "hex": "410469e29d7fac458a522d954e33a1f3f2dd42a7ba0a1d6f296b8db0f1688ffe2ee98b98d0cd66d864a35eb323bf1abdff604b685022ccb33e08911ca6f8f4e576e5ac",
            "type": "pubkey"
          }
        }
      ],
      "hex": "01000000010000000000000000000000000000000000000000000000000000000000000000ffffffff0804ffff001d02bf08ffffffff0100f2052a0100000043410469e29d7fac458a522d954e33a1f3f2dd42a7ba0a1d6f296b8db0f1688ffe2ee98b98d0cd66d864a35eb323bf1abdff604b685022ccb33e08911ca6f8f4e576e5ac00000000"
    }
  ]
}