{
  "hash": "000000002c05cc2e78923c34df87fd108b22221ac6076c18f3ade378a4d915e9",
  "confirmations": 51778,
  "height": 10,
  "version": 1,
  "versionHex": "00000001",
  "merkleroot": "d3ad39fa52a89997ac7381c95eeffeaf40b66af7a57e9eba144be0a175a12b11",
  "time": 1231473952,
  "mediantime": 1231471428,
  "nonce": 1709518110,
  "bits": "1d00ffff",
  "difficulty": 1,
  "chainwork": "0000000000000000000000000000000000000000000000000000000b000b000b",
  "nTx": 1,
  "previousblockhash": "000000008d9dc510f23c2657fc4f67bea30078cc05a90eb89e84cc475c080805",
  "nextblockhash": "0000000097be56d606cdd9c54b04d4747e957d3608abe69198c661f2add73073",
  "strippedsize": 215,
  "size": 215,
  "weight": 860,
  "tx": [
    {
      "txid": "d3ad39fa52a89997ac7381c95eeffeaf40b66af7a57e9eba144be0a175a12b11",
      "hash": "d3ad39fa52a89997ac7381c95eeffeaf40b66af7a57e9eba144be0a175a12b11",
      "version": 1,
      "size": 134,
      "vsize": 134,
      "weight": 536,
      "locktime": 0,
      "vin": [
        {
          "coinbase": "04ffff001d0136",
          "sequence": 4294967295
        }
      ],
      "vout": [
        {
          "value": 50.0,
          "n": 0,
          "scriptPubKey": {
            "asm": "04fcc2888ca91cf0103d8c5797c256bf976e81f280205d002d85b9b622ed1a6f820866c7b5fe12285cfa78c035355d752fc94a398b67597dc4fbb5b386816425dd OP_CHECKSIG",
            "desc": "pk(04fcc2888ca91cf0103d8c5797c256bf976e81f280205d002d85b9b622ed1a6f820866c7b5fe12285cfa78c035355d752fc94a398b67597dc4fbb5b386816425dd)#kxjms30h",
            "hex": "4104fcc2888ca91cf0103d8c5797c256bf976e81f280205d002d85b9b622ed1a6f820866c7b5fe12285cfa78c035355d752fc94a398b67597dc4fbb5b386816425ddac",
            "type": "pubkey"
          }
        }
      ],
      "hex": "01000000010000000000000000000000000000000000000000000000000000000000000000ffffffff0704ffff001d0136ffffffff0100f2052a01000000434104fcc2888ca91cf0103d8c5797c256bf976e81f280205d002d85b9b622ed1a6f820866c7b5fe12285cfa78c035355d752fc94a398b67597dc4fbb5b386816425ddac00000000"
    }
  ]
}