{
  "hash": "0000000077ee8bb8e91ef9657695c874239b0060b4bd2bf95839a7d118b5edd6",
  "confirmations": 46687,
  "height": 6411,
  "version": 1,
  "versionHex": "00000001",
  "merkleroot": "eef6b47d5a85a407cebcd4cd8caa136f42516f02498d11966ed3592513a48037",
  "time": 1236264997,
  "mediantime": 1236259405,
  "nonce": 1986918965,
  "bits": "1d00ffff",
  "difficulty": 1,
  "chainwork": "0000000000000000000000000000000000000000000000000000190c190c190c",
  "nTx": 1,
  "previousblockhash": "000000009ec2ee43f67a560de84d578baca51447d83edcafb93311dc2255b1eb",
  "nextblockhash": "000000008f785cc65342a71e68383e38c63b077ae2f4f7b5a3a3894fc5fa1b44",
  "strippedsize": 216,
  "size": 216,
  "weight": 864,
  "tx": [
    {
      "txid": "eef6b47d5a85a407cebcd4cd8caa136f42516f02498d11966ed3592513a48037",
      "hash": "eef6b47d5a85a407cebcd4cd8caa136f42516f02498d11966ed3592513a48037",
      "version": 1,
      "size": 135,
      "vsize": 135,
      "weight": 540,
      "locktime": 0,
      "vin": [
        {
          "coinbase": "04ffff001d021002",
          "sequence": 4294967295
        }
      ],
      "vout": [
        {
          "value": 50.0,
          "n": 0,
          "scriptPubKey": {
            "asm": "043fedf5b93bc6112f619e48e8176b64e9304d503c22ba6520b1b911c0608cf583311cf6884c012c7e06da0003a7346ba97a97583ce51d4c516b82af98f76e8abc OP_CHECKSIG",
            "desc": "pk(043fedf5b93bc6112f619e48e8176b64e9304d503c22ba6520b1b911c0608cf583311cf6884c012c7e06da0003a7346ba97a97583ce51d4c516b82af98f76e8abc)#7ylwwd9u",
            "hex": "41043fedf5b93bc6112f619e48e8176b64e9304d503c22ba6520b1b911c0608cf583311cf6884c012c7e06da0003a7346ba97a97583ce51d4c516b82af98f76e8abcac",
            "type": "pubkey"
          }
        }
      ],
      "hex": "01000000010000000000000000000000000000000000000000000000000000000000000000ffffffff0804ffff001d021002ffffffff0100f2052a010000004341043fedf5b93bc6112f619e48e8176b64e9304d503c22ba6520b1b911c0608cf583311cf6884c012c7e06da0003a7346ba97a97583ce51d4c516b82af98f76e8abcac00000000"
    }
  ]
}