{
  "hash": "000000005ced5b0d6721ad74e4a08bc1b5a04c6005f155058db682f379c5d9c9",
  "confirmations": 48610,
  "height": 4488,
  "version": 1,
  "versionHex": "00000001",
  "merkleroot": "22037d5e7df482201b8cfc2f50182bbc6805fb88f683577a1797f47e77bf0954",
  "time": 1234771206,
  "mediantime": 1234768043,
  "nonce": 1633456417,
  "bits": "1d00ffff",
  "difficulty": 1,
  "chainwork": "0000000000000000000000000000000000000000000000000000118911891189",
  "nTx": 1,
  "previousblockhash": "00000000b9ce40954d6fb6eb107bf4184198de4418a05540e564a7c0261ba24a",
  "nextblockhash": "0000000089e399d12c0104c1601b84166a7b2ecf163a3d1f7e6372d0d6265d5e",
  "strippedsize": 216,
  "size": 216,
  "weight": 864,
  "tx": [
    {
      "txid": "22037d5e7df482201b8cfc2f50182bbc6805fb88f683577a1797f47e77bf0954",
      "hash": "22037d5e7df482201b8cfc2f50182bbc6805fb88f683577a1797f47e77bf0954",
      "version": 1,
      "size": 135,
      "vsize": 135,
      "weight": 540,
      "locktime": 0,
      "vin": [
        {
          "coinbase": "04ffff001d029d02",
          "sequence": 4294967295
        }
      ],
      "vout": [
        {
          "value": 50.0,
          "n": 0,
          "scriptPubKey": {
            "asm": "04526f4272400a015725b666bcfe95e69ba89607e22ef2e34c2bd3a4291e1563a4ba69bb1b4bfb2b0b74f1bcddd347e03442a4bdbccbd71a6c2ec721b8b02e346d OP_CHECKSIG",
            "desc": "pk(04526f4272400a015725b666bcfe95e69ba89607e22ef2e34c2bd3a4291e1563a4ba69bb1b4bfb2b0b74f1bcddd347e03442a4bdbccbd71a6c2ec721b8b02e346d)#9dnhgv9d",
            "hex": "4104526f4272400a015725b666bcfe95e69ba89607e22ef2e34c2bd3a4291e1563a4ba69bb1b4bfb2b0b74f1bcddd347e03442a4bdbccbd71a6c2ec721b8b02e346dac",
            "type": "pubkey"
          }
        }
      ],
      "hex": "01000000010000000000000000000000000000000000000000000000000000000000000000ffffffff0804ffff001d029d02ffffffff0100f2052a01000000434104526f4272400a015725b666bcfe95e69ba89607e22ef2e34c2bd3a4291e1563a4ba69bb1b4bfb2b0b74f1bcddd347e03442a4bdbccbd71a6c2ec721b8b02e346dac00000000"
    }
  ]
}