{
  "hash": "00000000b0584849a2d5df998c8cb640333a1841cce54dd0ac207d339735907d",
  "confirmations": 46285,
  "height": 6813,
  "version": 1,
  "versionHex": "00000001",
  "merkleroot": "98ff8b6a1c6db61daad183b185ff2b5cfb6fadf8d964518ded2cff24dfbfcce8",
  "time": 1236564981,
  "mediantime": 1236562946,
  "nonce": 3198384419,
  "bits": "1d00ffff",
  "difficulty": 1,
  "chainwork": "00000000000000000000000000000000000000000000000000001a9e1a9e1a9e",
  "nTx": 1,
  "previousblockhash": "000000006871c85a9b37ed343d5d22f60fe188d69831e61e8123264507a577bb",
  "nextblockhash": "000000008e316e5d1e71a6c2d2d9812ad71736a28eb4d76fd7f933ed7b02a52a",
  "strippedsize": 216,
  "size": 216,
  "weight": 864,
  "tx": [
    {
      "txid": "98ff8b6a1c6db61daad183b185ff2b5cfb6fadf8d964518ded2cff24dfbfcce8",
      "hash": "98ff8b6a1c6db61daad183b185ff2b5cfb6fadf8d964518ded2cff24dfbfcce8",
      "version": 1,
      "size": 135,
      "vsize": 135,
      "weight": 540,
      "locktime": 0,
      "vin": [
        {
          "coinbase": "04ffff001d023809",
          "sequence": 4294967295
        }
      ],
      "vout": [
        {
          "value": 50.0,
          "n": 0,
          "scriptPubKey": {
            "asm": "04e1735431d7b90a98c334a86c1252bd1d4d6d773bb0d04911877b5222a3c72f77646a06b7cbb6296fa8475508ff9ff80c11d9829fbf15b30209746cc9e09b8a6d OP_CHECKSIG",
            "desc": "pk(04e1735431d7b90a98c334a86c1252bd1d4d6d773bb0d04911877b5222a3c72f77646a06b7cbb6296fa8475508ff9ff80c11d9829fbf15b30209746cc9e09b8a6d)#hkkc4822",
            "hex": "4104e1735431d7b90a98c334a86c1252bd1d4d6d773bb0d04911877b5222a3c72f77646a06b7cbb6296fa8475508ff9ff80c11d9829fbf15b30209746cc9e09b8a6dac",
            "type": "pubkey"
          }
        }
      ],
      "hex": "01000000010000000000000000000000000000000000000000000000000000000000000000ffffffff0804ffff001d023809ffffffff0100f2052a01000000434104e1735431d7b90a98c334a86c1252bd1d4d6d773bb0d04911877b5222a3c72f77646a06b7cbb6296fa8475508ff9ff80c11d9829fbf15b30209746cc9e09b8a6dac00000000"
    }
  ]
}