{
  "hash": "00000000d4b475b93aa2e16aa32bb0d4967f4a5ede8235de7b7b3f4b2105c185",
  "confirmations": 46278,
  "height": 6820,
  "version": 1,
  "versionHex": "00000001",
  "merkleroot": "daf286ee53549a49330c296025bbcc9c52c8ace850f415255ee25832958802e6",
  "time": 1236571591,
  "mediantime": 1236566557,
  "nonce": 2212421411,
  "bits": "1d00ffff",
  "difficulty": 1,
  "chainwork": "00000000000000000000000000000000000000000000000000001aa51aa51aa5",
  "nTx": 1,
  "previousblockhash": "00000000ff2ed20ea31ca87c034d0ce0c3624572ad84f1025d41b070b599c7b5",
  "nextblockhash": "00000000e098ca34e9f3f5db8747ef86ecaf2ef37c5c2e2c1efc16471ac9d6d8",
  "strippedsize": 216,
  "size": 216,
  "weight": 864,
  "tx": [
    {
      "txid": "daf286ee53549a49330c296025bbcc9c52c8ace850f415255ee25832958802e6",
      "hash": "daf286ee53549a49330c296025bbcc9c52c8ace850f415255ee25832958802e6",
      "version": 1,
      "size": 135,
      "vsize": 135,
      "weight": 540,
      "locktime": 0,
      "vin": [
        {
          "coinbase": "04ffff001d024d09",
          "sequence": 4294967295
        }
      ],
      "vout": [
        {
          "value": 50.0,
          "n": 0,
          "scriptPubKey": {
            "asm": "04d9bff26a09c3f94485a4c8cab28ca812e7fac7bf1931da49559b8f57972119e371ca5dfa504ec89d2ce6abd64b22a14442ef657a6f999079f96942caa67780be OP_CHECKSIG",
            "desc": "pk(04d9bff26a09c3f94485a4c8cab28ca812e7fac7bf1931da49559b8f57972119e371ca5dfa504ec89d2ce6abd64b22a14442ef657a6f999079f96942caa67780be)#aysftjkj",
            "hex": "4104d9bff26a09c3f94485a4c8cab28ca812e7fac7bf1931da49559b8f57972119e371ca5dfa504ec89d2ce6abd64b22a14442ef657a6f999079f96942caa67780beac",
            "type": "pubkey"
          }
        }
      ],
      "hex": "01000000010000000000000000000000000000000000000000000000000000000000000000ffffffff0804ffff001d024d09ffffffff0100f2052a01000000434104d9bff26a09c3f94485a4c8cab28ca812e7fac7bf1931da49559b8f57972119e371ca5dfa504ec89d2ce6abd64b22a14442ef657a6f999079f96942caa67780beac00000000"
    }
  ]
}