{
  "hash": "000000009da10f71d6baa3c6e3494b7fdadf5ffaf5ac49bd95b5398816c45c11",
  "confirmations": 46458,
  "height": 6640,
  "version": 1,
  "versionHex": "00000001",
  "merkleroot": "8de63a4c470da65b571ffd05fc63075ec1b3d5f6f6b171b2bb3ea6cb1f870a4d",
  "time": 1236436485,
  "mediantime": 1236430918,
  "nonce": 2423184412,
  "bits": "1d00ffff",
  "difficulty": 1,
  "chainwork": "000000000000000000000000000000000000000000000000000019f119f119f1",
  "nTx": 1,
  "previousblockhash": "00000000df2d3bba4f1531073725ce32de73945c1838c7f4d6483e6488ef6062",
  "nextblockhash": "000000006a76a78e12fc1c91d67c7712a25a74d3bb93f2baa4694f414a7d46c6",
  "strippedsize": 216,
  "size": 216,
  "weight": 864,
  "tx": [
    {
      "txid": "8de63a4c470da65b571ffd05fc63075ec1b3d5f6f6b171b2bb3ea6cb1f870a4d",
      "hash": "8de63a4c470da65b571ffd05fc63075ec1b3d5f6f6b171b2bb3ea6cb1f870a4d",
      "version": 1,
      "size": 135,
      "vsize": 135,
      "weight": 540,
      "locktime": 0,
      "vin": [
        {
          "coinbase": "04ffff001d02e905",
          "sequence": 4294967295
        }
      ],
      "vout": [
        {
          "value": 50.0,
          "n": 0,
          "scriptPubKey": {
            "asm": "04cf7c12968f0b5fde5db01f7b501f3fec639dd03dcc41378a100b0611e57e3674d65d7e5e55ee16c68dcbd466e3e8485f7a86c853758bad2f344c98d9da4d1b15 OP_CHECKSIG",
            "desc": "pk(04cf7c12968f0b5fde5db01f7b501f3fec639dd03dcc41378a100b0611e57e3674d65d7e5e55ee16c68dcbd466e3e8485f7a86c853758bad2f344c98d9da4d1b15)#y3tr58lh",
            "hex": "4104cf7c12968f0b5fde5db01f7b501f3fec639dd03dcc41378a100b0611e57e3674d65d7e5e55ee16c68dcbd466e3e8485f7a86c853758bad2f344c98d9da4d1b15ac",
            "type": "pubkey"
          }
        }
      ],
      "hex": "01000000010000000000000000000000000000000000000000000000000000000000000000ffffffff0804ffff001d02e905ffffffff0100f2052a01000000434104cf7c12968f0b5fde5db01f7b501f3fec639dd03dcc41378a100b0611e57e3674d65d7e5e55ee16c68dcbd466e3e8485f7a86c853758bad2f344c98d9da4d1b15ac00000000"
    }
  ]
}