{
  "hash": "00000000e2b2970fec6399f09d668cf8806c62a50a1be3d1b0dc17cef08173f3",
  "confirmations": 47513,
  "height": 5585,
  "version": 1,
  "versionHex": "00000001",
  "merkleroot": "eb6b8312d7a3d800acd24293a83edbd62bab8e355c3563a680417c92a92b15d5",
  "time": 1235588877,
  "mediantime": 1235585841,
  "nonce": 4230254133,
  "bits": "1d00ffff",
  "difficulty": 1,
  "chainwork": "000000000000000000000000000000000000000000000000000015d215d215d2",
  "nTx": 1,
  "previousblockhash": "000000004e10ed42c184cc5e04d636c6ee59bdcdf6cba65864a0b971f0f91238",
  "nextblockhash": "00000000e4994b7328ab08b81a8c9f8653718d74bc5b0b107faa4533eaf6346a",
  "strippedsize": 216,
  "size": 216,
  "weight": 864,
  "tx": [
    {
      "txid": "eb6b8312d7a3d800acd24293a83edbd62bab8e355c3563a680417c92a92b15d5",
      "hash": "eb6b8312d7a3d800acd24293a83edbd62bab8e355c3563a680417c92a92b15d5",
      "version": 1,
      "size": 135,
      "vsize": 135,
      "weight": 540,
      "locktime": 0,
      "vin": [
        {
          "coinbase": "04ffff001d025d07",
          "sequence": 4294967295
        }
      ],
      "vout": [
        {
          "value": 50.0,
          "n": 0,
          "scriptPubKey": {
            "asm": "04a1a5af9bf719a01326ca7de3f5591a16f575d58bc7a49843c70f230423e13e997c713cf2291b9fdf23e2842dffca1381ce8cf1d7dbe8d68c9e34c5977c378737 OP_CHECKSIG",
            "desc": "pk(04a1a5af9bf719a01326ca7de3f5591a16f575d58bc7a49843c70f230423e13e997c713cf2291b9fdf23e2842dffca1381ce8cf1d7dbe8d68c9e34c5977c378737)#s3p46szy",
            "hex": "4104a1a5af9bf719a01326ca7de3f5591a16f575d58bc7a49843c70f230423e13e997c713cf2291b9fdf23e2842dffca1381ce8cf1d7dbe8d68c9e34c5977c378737ac",
            "type": "pubkey"
          }
        }
      ],
      "hex": "01000000010000000000000000000000000000000000000000000000000000000000000000ffffffff0804ffff001d025d07ffffffff0100f2052a01000000434104a1a5af9bf719a01326ca7de3f5591a16f575d58bc7a49843c70f230423e13e997c713cf2291b9fdf23e2842dffca1381ce8cf1d7dbe8d68c9e34c5977c378737ac00000000"
    }
  ]
}