{
  "hash": "000000002acdb9945df308b8c0e51b9ff0df75b3cb25196985a2ca817df4868b",
  "confirmations": 46355,
  "height": 6743,
  "version": 1,
  "versionHex": "00000001",
  "merkleroot": "ba90e90a76b77d7497e953d0f94fa3846dd0ccaf663863aba15645fab2b55498",
  "time": 1236513876,
  "mediantime": 1236510098,
  "nonce": 3090099765,
  "bits": "1d00ffff",
  "difficulty": 1,
  "chainwork": "00000000000000000000000000000000000000000000000000001a581a581a58",
  "nTx": 1,
  "previousblockhash": "00000000d0859da1e40cb5522219d4689c0071444a237c3818d724470ba7f6e8",
  "nextblockhash": "00000000c0c06a428289ab6f5447027c67562ff91213fd06bf5df4bf050c69a1",
  "strippedsize": 216,
  "size": 216,
  "weight": 864,
  "tx": [
    {
      "txid": "ba90e90a76b77d7497e953d0f94fa3846dd0ccaf663863aba15645fab2b55498",
      "hash": "ba90e90a76b77d7497e953d0f94fa3846dd0ccaf663863aba15645fab2b55498",
      "version": 1,
      "size": 135,
      "vsize": 135,
      "weight": 540,
      "locktime": 0,
      "vin": [
        {
          "coinbase": "04ffff001d020008",
          "sequence": 4294967295
        }
      ],
      "vout": [
        {
          "value": 50.0,
          "n": 0,
          "scriptPubKey": {
            "asm": "04ead75f068c78e978554c68d94f22539600923e32e012de5d73c47e919a51fe8ac33e9362a1d295d71712fd3ce9baa863ec85118687fc470d6b0d3a737f216296 OP_CHECKSIG",
            "desc": "pk(04ead75f068c78e978554c68d94f22539600923e32e012de5d73c47e919a51fe8ac33e9362a1d295d71712fd3ce9baa863ec85118687fc470d6b0d3a737f216296)#azwsghpl",
            "hex": "4104ead75f068c78e978554c68d94f22539600923e32e012de5d73c47e919a51fe8ac33e9362a1d295d71712fd3ce9baa863ec85118687fc470d6b0d3a737f216296ac",
            "type": "pubkey"
          }
        }
      ],
      "hex": "01000000010000000000000000000000000000000000000000000000000000000000000000ffffffff0804ffff001d020008ffffffff0100f2052a01000000434104ead75f068c78e978554c68d94f22539600923e32e012de5d73c47e919a51fe8ac33e9362a1d295d71712fd3ce9baa863ec85118687fc470d6b0d3a737f216296ac00000000"
    }
  ]
}