{
  "hash": "00000000693a6d6b068cab3e207d570764f6bad293e3e98920246eeda81c496a",
  "confirmations": 52304,
  "height": 498,
  "version": 1,
  "versionHex": "00000001",
  "merkleroot": "354fba7bef9a8ff42a99b3b5776ba2970bd04efc4c3ec9796b1aaddf485c7808",
  "time": 1231966976,
  "mediantime": 1231963103,
  "nonce": 2814320897,
  "bits": "1d00ffff",
  "difficulty": 1,
  "chainwork": "000000000000000000000000000000000000000000000000000001f301f301f3",
  "nTx": 1,
  "previousblockhash": "00000000c39ea29ad310c1f80409e24b3fbfd671c0b3599198b7cfdebf790bde",
  "nextblockhash": "00000000806df68baab17e49e567d4211177fef4849ffd8242d095c6a1169f45",
  "strippedsize": 216,
  "size": 216,
  "weight": 864,
  "tx": [
    {
      "txid": "354fba7bef9a8ff42a99b3b5776ba2970bd04efc4c3ec9796b1aaddf485c7808",
      "hash": "354fba7bef9a8ff42a99b3b5776ba2970bd04efc4c3ec9796b1aaddf485c7808",
      "version": 1,
      "size": 135,
      "vsize": 135,
      "weight": 540,
      "locktime": 0,
      "vin": [
        {
          "coinbase": "04ffff001d027204",
          "sequence": 4294967295
        }
      ],
      "vout": [
        {
          "value": 50.0,
          "n": 0,
          "scriptPubKey": {
            "asm": "04219b978954ff9ad528f1f2142aa178aecb0307d617df0ac68bd9521284cbe5357c7dba0414848cda0f72a90df65cc4c063b20bd976b67b56d975a8ee2d2bff48 OP_CHECKSIG",
            "desc": "pk(04219b978954ff9ad528f1f2142aa178aecb0307d617df0ac68bd9521284cbe5357c7dba0414848cda0f72a90df65cc4c063b20bd976b67b56d975a8ee2d2bff48)#lnarrvgy",
            "hex": "4104219b978954ff9ad528f1f2142aa178aecb0307d617df0ac68bd9521284cbe5357c7dba0414848cda0f72a90df65cc4c063b20bd976b67b56d975a8ee2d2bff48ac",
            "type": "pubkey"
          }
        }
      ],
      "hex": "01000000010000000000000000000000000000000000000000000000000000000000000000ffffffff0804ffff001d027204ffffffff0100f2052a01000000434104219b978954ff9ad528f1f2142aa178aecb0307d617df0ac68bd9521284cbe5357c7dba0414848cda0f72a90df65cc4c063b20bd976b67b56d975a8ee2d2bff48ac00000000"
    }
  ]
}