{
  "hash": "00000000b005d169de586881ca9d11d8cf998c76284887996ae5d98ebe7778ee",
  "confirmations": 49042,
  "height": 4056,
  "version": 1,
  "versionHex": "00000001",
  "merkleroot": "28790edfc064a5a54833b0f594859e68b8b20372c8bb1decf50d56d6e16a3d9c",
  "time": 1234481879,
  "mediantime": 1234478208,
  "nonce": 4220019486,
  "bits": "1d00ffff",
  "difficulty": 1,
  "chainwork": "00000000000000000000000000000000000000000000000000000fd90fd90fd9",
  "nTx": 1,
  "previousblockhash": "000000006f2d7fce759451566e4d3ee7b118d126cbb2749725e35d222e4a8bed",
  "nextblockhash": "00000000d12a0e207d618ea3d25f4d63d8c9dd818cb0f79576b64c8f756d151c",
  "strippedsize": 216,
  "size": 216,
  "weight": 864,
  "tx": [
    {
      "txid": "28790edfc064a5a54833b0f594859e68b8b20372c8bb1decf50d56d6e16a3d9c",
      "hash": "28790edfc064a5a54833b0f594859e68b8b20372c8bb1decf50d56d6e16a3d9c",
      "version": 1,
      "size": 135,
      "vsize": 135,
      "weight": 540,
      "locktime": 0,
      "vin": [
        {
          "coinbase": "04ffff001d024605",
          "sequence": 4294967295
        }
      ],
      "vout": [
        {
          "value": 50.0,
          "n": 0,
          "scriptPubKey": {
            "asm": "0407bf3e85c81bfbb60753d6c1bc23cfc422affd5800be79d02cda414cf6c3836374ce47c7a5171f097b5c67f1e2111c8cb0b36396b0ba176142d5411755132b73 OP_CHECKSIG",
            "desc": "pk(0407bf3e85c81bfbb60753d6c1bc23cfc422affd5800be79d02cda414cf6c3836374ce47c7a5171f097b5c67f1e2111c8cb0b36396b0ba176142d5411755132b73)#vpracljc",
            "hex": "410407bf3e85c81bfbb60753d6c1bc23cfc422affd5800be79d02cda414cf6c3836374ce47c7a5171f097b5c67f1e2111c8cb0b36396b0ba176142d5411755132b73ac",
            "type": "pubkey"
          }
        }
      ],
      "hex": "01000000010000000000000000000000000000000000000000000000000000000000000000ffffffff0804ffff001d024605ffffffff0100f2052a0100000043410407bf3e85c81bfbb60753d6c1bc23cfc422affd5800be79d02cda414cf6c3836374ce47c7a5171f097b5c67f1e2111c8cb0b36396b0ba176142d5411755132b73ac00000000"
    }
  ]
}