{
  "hash": "00000000dca775aa1c5ef1a109e885b77e7c4005771732c0ae40ea5a780e037c",
  "confirmations": 44982,
  "height": 8116,
  "version": 1,
  "versionHex": "00000001",
  "merkleroot": "85f2ce0d0a51514aab1eeb722774fe29863b91e3e41f6c448c3dd39e16830b5f",
  "time": 1237542025,
  "mediantime": 1237539463,
  "nonce": 2150484771,
  "bits": "1d00ffff",
  "difficulty": 1,
  "chainwork": "00000000000000000000000000000000000000000000000000001fb51fb51fb5",
  "nTx": 1,
  "previousblockhash": "00000000d906193b4927614860b2096ec2dce4c39b68fe5918bdc246f873b58e",
  "nextblockhash": "000000009e190568432a5fb158ee404cac8d0707be8a91de9b4ee7b5729b2080",
  "strippedsize": 216,
  "size": 216,
  "weight": 864,
  "tx": [
    {
      "txid": "85f2ce0d0a51514aab1eeb722774fe29863b91e3e41f6c448c3dd39e16830b5f",
      "hash": "85f2ce0d0a51514aab1eeb722774fe29863b91e3e41f6c448c3dd39e16830b5f",
      "version": 1,
      "size": 135,
      "vsize": 135,
      "weight": 540,
      "locktime": 0,
      "vin": [
        {
          "coinbase": "04ffff001d025601",
          "sequence": 4294967295
        }
      ],
      "vout": [
        {
          "value": 50.0,
          "n": 0,
          "scriptPubKey": {
            "asm": "047737a6f66c7e50b0a3fb39e7499920ecea237d4875a71db3d8aa0b81db7cea62f8a3be1af927fba8afac4496de4d16169e1952a23c29e9c448048069124c13e8 OP_CHECKSIG",
            "desc": "pk(047737a6f66c7e50b0a3fb39e7499920ecea237d4875a71db3d8aa0b81db7cea62f8a3be1af927fba8afac4496de4d16169e1952a23c29e9c448048069124c13e8)#69ugk58t",
            "hex": "41047737a6f66c7e50b0a3fb39e7499920ecea237d4875a71db3d8aa0b81db7cea62f8a3be1af927fba8afac4496de4d16169e1952a23c29e9c448048069124c13e8ac",
            "type": "pubkey"
          }
        }
      ],
      "hex": "01000000010000000000000000000000000000000000000000000000000000000000000000ffffffff0804ffff001d025601ffffffff0100f2052a010000004341047737a6f66c7e50b0a3fb39e7499920ecea237d4875a71db3d8aa0b81db7cea62f8a3be1af927fba8afac4496de4d16169e1952a23c29e9c448048069124c13e8ac00000000"
    }
  ]
}