{
  "hash": "00000000fd46082d454dfaaec6d33608e0d5ab5e23d9312be6f354071752b9a1",
  "confirmations": 47869,
  "height": 5229,
  "version": 1,
  "versionHex": "00000001",
  "merkleroot": "e7af40d8d29c3b93a207700f43a3d00f44096ecec85fd26a6bb19557b17b4c55",
  "time": 1235308480,
  "mediantime": 1235304172,
  "nonce": 1668338992,
  "bits": "1d00ffff",
  "difficulty": 1,
  "chainwork": "0000000000000000000000000000000000000000000000000000146e146e146e",
  "nTx": 1,
  "previousblockhash": "000000000b34c8f671d5578392dbf957b15a7af94cb5b7308934636e9055eed3",
  "nextblockhash": "00000000b532e7eb8df7df568a936746a2a703cbe5833eb51681fbdf18e07835",
  "strippedsize": 216,
  "size": 216,
  "weight": 864,
  "tx": [
    {
      "txid": "e7af40d8d29c3b93a207700f43a3d00f44096ecec85fd26a6bb19557b17b4c55",
      "hash": "e7af40d8d29c3b93a207700f43a3d00f44096ecec85fd26a6bb19557b17b4c55",
      "version": 1,
      "size": 135,
      "vsize": 135,
      "weight": 540,
      "locktime": 0,
      "vin": [
        {
          "coinbase": "04ffff001d02ec00",
          "sequence": 4294967295
        }
      ],
      "vout": [
        {
          "value": 50.0,
          "n": 0,
          "scriptPubKey": {
            "asm": "047018ec60121140c9b4f2679573cf22e25714138787468c1b93a59389664aba908394f4964aa89037b8eac4b533b2dd8580a3f650938c6cd87dc9811b21bd94c7 OP_CHECKSIG",
            "desc": "pk(047018ec60121140c9b4f2679573cf22e25714138787468c1b93a59389664aba908394f4964aa89037b8eac4b533b2dd8580a3f650938c6cd87dc9811b21bd94c7)#92knxwet",
            "hex": "41047018ec60121140c9b4f2679573cf22e25714138787468c1b93a59389664aba908394f4964aa89037b8eac4b533b2dd8580a3f650938c6cd87dc9811b21bd94c7ac",
            "type": "pubkey"
          }
        }
      ],
      "hex": "01000000010000000000000000000000000000000000000000000000000000000000000000ffffffff0804ffff001d02ec00ffffffff0100f2052a010000004341047018ec60121140c9b4f2679573cf22e25714138787468c1b93a59389664aba908394f4964aa89037b8eac4b533b2dd8580a3f650938c6cd87dc9811b21bd94c7ac00000000"
    }
  ]
}