{
  "hash": "00000000970de9b79c0e4f91652dd43ca9b779257fb57759f80e36e2c0835330",
  "confirmations": 51481,
  "height": 1617,
  "version": 1,
  "versionHex": "00000001",
  "merkleroot": "5f8e4850f978be78a5ededa3efc9a1202afcedab068f8306aba356a737dcbdab",
  "time": 1232818591,
  "mediantime": 1232816384,
  "nonce": 3176486713,
  "bits": "1d00ffff",
  "difficulty": 1,
  "chainwork": "0000000000000000000000000000000000000000000000000000065206520652",
  "nTx": 1,
  "previousblockhash": "000000007caa0b0b5926322a85cc521e6dd04b8b01474ea13044e530910e6e9d",
  "nextblockhash": "00000000b52ea769a94d61147fc8dbd9c36afb0bf10499a179d14cde80cb46bc",
  "strippedsize": 216,
  "size": 216,
  "weight": 864,
  "tx": [
    {
      "txid": "5f8e4850f978be78a5ededa3efc9a1202afcedab068f8306aba356a737dcbdab",
      "hash": "5f8e4850f978be78a5ededa3efc9a1202afcedab068f8306aba356a737dcbdab",
      "version": 1,
      "size": 135,
      "vsize": 135,
      "weight": 540,
      "locktime": 0,
      "vin": [
        {
          "coinbase": "04ffff001d024b02",
          "sequence": 4294967295
        }
      ],
      "vout": [
        {
          "value": 50.0,
          "n": 0,
          "scriptPubKey": {
            "asm": "0471a9809600f3f7d59de6a5994c422188fec83dc0a98ec950c20ae3c42408d0f9b38358a127ceaf60bd05f8b5cc4f56e9d7cd788cc431e402c7a006c91d3b2e42 OP_CHECKSIG",
            "desc": "pk(0471a9809600f3f7d59de6a5994c422188fec83dc0a98ec950c20ae3c42408d0f9b38358a127ceaf60bd05f8b5cc4f56e9d7cd788cc431e402c7a006c91d3b2e42)#ef6rvzf6",
            "hex": "410471a9809600f3f7d59de6a5994c422188fec83dc0a98ec950c20ae3c42408d0f9b38358a127ceaf60bd05f8b5cc4f56e9d7cd788cc431e402c7a006c91d3b2e42ac",
            "type": "pubkey"
          }
        }
      ],
      "hex": "01000000010000000000000000000000000000000000000000000000000000000000000000ffffffff0804ffff001d024b02ffffffff0100f2052a0100000043410471a9809600f3f7d59de6a5994c422188fec83dc0a98ec950c20ae3c42408d0f9b38358a127ceaf60bd05f8b5cc4f56e9d7cd788cc431e402c7a006c91d3b2e42ac00000000"
    }
  ]
}