{
  "hash": "00000000b157251c1d86aff6db0b460595b98ed577fd4765f2e918977cf09644",
  "confirmations": 46925,
  "height": 6173,
  "version": 1,
  "versionHex": "00000001",
  "merkleroot": "db175a4e3ad1b0b268f8353bfd50598bbc7c965dfb0e90324f0a7884c0488377",
  "time": 1236070137,
  "mediantime": 1236066356,
  "nonce": 3667520309,
  "bits": "1d00ffff",
  "difficulty": 1,
  "chainwork": "0000000000000000000000000000000000000000000000000000181e181e181e",
  "nTx": 1,
  "previousblockhash": "00000000076000759d847424be8a8028ce532ee34850b06ab00495ddd39b40a1",
  "nextblockhash": "00000000954bf1ee6550097e46165b37ec2f93c4e49c1b8446e3c2e94139a3ab",
  "strippedsize": 216,
  "size": 216,
  "weight": 864,
  "tx": [
    {
      "txid": "db175a4e3ad1b0b268f8353bfd50598bbc7c965dfb0e90324f0a7884c0488377",
      "hash": "db175a4e3ad1b0b268f8353bfd50598bbc7c965dfb0e90324f0a7884c0488377",
      "version": 1,
      "size": 135,
      "vsize": 135,
      "weight": 540,
      "locktime": 0,
      "vin": [
        {
          "coinbase": "04ffff001d020108",
          "sequence": 4294967295
        }
      ],
      "vout": [
        {
          "value": 50.0,
          "n": 0,
          "scriptPubKey": {
            "asm": "047b9a4317c1767b55e998c090f07d23161a75f3a288bfba6e30248ba1bd212d0a7c562d81b6952aa68ff6fad31428820fc7ab287c3460e5e7ce52e80e2e478b19 OP_CHECKSIG",
            "desc": "pk(047b9a4317c1767b55e998c090f07d23161a75f3a288bfba6e30248ba1bd212d0a7c562d81b6952aa68ff6fad31428820fc7ab287c3460e5e7ce52e80e2e478b19)#xt0rvnuy",
            "hex": "41047b9a4317c1767b55e998c090f07d23161a75f3a288bfba6e30248ba1bd212d0a7c562d81b6952aa68ff6fad31428820fc7ab287c3460e5e7ce52e80e2e478b19ac",
            "type": "pubkey"
          }
        }
      ],
      "hex": "01000000010000000000000000000000000000000000000000000000000000000000000000ffffffff0804ffff001d020108ffffffff0100f2052a010000004341047b9a4317c1767b55e998c090f07d23161a75f3a288bfba6e30248ba1bd212d0a7c562d81b6952aa68ff6fad31428820fc7ab287c3460e5e7ce52e80e2e478b19ac00000000"
    }
  ]
}