{
  "hash": "00000000a383976c25e2877bfd93117cf1df074c9f16a9d687dfb2aa55bac1c3",
  "confirmations": 48384,
  "height": 4714,
  "version": 1,
  "versionHex": "00000001",
  "merkleroot": "116142d6f63cd7adf6afbe843e851a06bb441f5230309ac600774643cf131541",
  "time": 1234936778,
  "mediantime": 1234933711,
  "nonce": 369328643,
  "bits": "1d00ffff",
  "difficulty": 1,
  "chainwork": "0000000000000000000000000000000000000000000000000000126b126b126b",
  "nTx": 1,
  "previousblockhash": "00000000997e91910e76da16f8207862bdad141504816c81e66c5df0bce1f24d",
  "nextblockhash": "000000002a05ba76ab6d662d62679bc3b04effd6f3c3345ebb9e5331f8053473",
  "strippedsize": 216,
  "size": 216,
  "weight": 864,
  "tx": [
    {
      "txid": "116142d6f63cd7adf6afbe843e851a06bb441f5230309ac600774643cf131541",
      "hash": "116142d6f63cd7adf6afbe843e851a06bb441f5230309ac600774643cf131541",
      "version": 1,
      "size": 135,
      "vsize": 135,
      "weight": 540,
      "locktime": 0,
      "vin": [
        {
          "coinbase": "04ffff001d02b902",
          "sequence": 4294967295
        }
      ],
      "vout": [
        {
          "value": 50.0,
          "n": 0,
          "scriptPubKey": {
            "asm": "0413d4acd38c81657d4a61051f47af2f84cf8582d838deb42d1d3d9edf660f53be6721f795af8b7d40b615aa455dab557ae57bb43f7b606fe604bb469250091340 OP_CHECKSIG",
            "desc": "pk(0413d4acd38c81657d4a61051f47af2f84cf8582d838deb42d1d3d9edf660f53be6721f795af8b7d40b615aa455dab557ae57bb43f7b606fe604bb469250091340)#rue3pycq",
            "hex": "410413d4acd38c81657d4a61051f47af2f84cf8582d838deb42d1d3d9edf660f53be6721f795af8b7d40b615aa455dab557ae57bb43f7b606fe604bb469250091340ac",
            "type": "pubkey"
          }
        }
      ],
      "hex": "01000000010000000000000000000000000000000000000000000000000000000000000000ffffffff0804ffff001d02b902ffffffff0100f2052a0100000043410413d4acd38c81657d4a61051f47af2f84cf8582d838deb42d1d3d9edf660f53be6721f795af8b7d40b615aa455dab557ae57bb43f7b606fe604bb469250091340ac00000000"
    }
  ]
}