{
  "hash": "0000000091206177d68fee7a5a6b4a0747c39061c2eb82f800b447a077bfe310",
  "confirmations": 52033,
  "height": 196,
  "version": 1,
  "versionHex": "00000001",
  "merkleroot": "3f3c3521288c32c85172217f6dc0275740425e28d517f4b6638d7b282c409221",
  "time": 1231750046,
  "mediantime": 1231745534,
  "nonce": 806943026,
  "bits": "1d00ffff",
  "difficulty": 1,
  "chainwork": "000000000000000000000000000000000000000000000000000000c500c500c5",
  "nTx": 1,
  "previousblockhash": "0000000068b997ae9d5c9c63ecf643bb4cff3c4e4cf765ec2479ecd8b1cfc8fe",
  "nextblockhash": "00000000ef271937f59286dc81d6b28196ff099bf266e12a3442c4b82c9db814",
  "strippedsize": 215,
  "size": 215,
  "weight": 860,
  "tx": [
    {
      "txid": "3f3c3521288c32c85172217f6dc0275740425e28d517f4b6638d7b282c409221",
      "hash": "3f3c3521288c32c85172217f6dc0275740425e28d517f4b6638d7b282c409221",
      "version": 1,
      "size": 134,
      "vsize": 134,
      "weight": 536,
      "locktime": 0,
      "vin": [
        {
          "coinbase": "04ffff001d011c",
          "sequence": 4294967295
        }
      ],
      "vout": [
        {
          "value": 50.0,
          "n": 0,
          "scriptPubKey": {
            "asm": "045111f442ff6e4a80d31a127a77e9bfa33652bb719d1df7a59cdbae51de312d1a80ddd343f579ca4b2146a47b492ce6600ec53a9e5a7936e9af16ccf1dd7072ff OP_CHECKSIG",
            "desc": "pk(045111f442ff6e4a80d31a127a77e9bfa33652bb719d1df7a59cdbae51de312d1a80ddd343f579ca4b2146a47b492ce6600ec53a9e5a7936e9af16ccf1dd7072ff)#atudmzd7",
            "hex": "41045111f442ff6e4a80d31a127a77e9bfa33652bb719d1df7a59cdbae51de312d1a80ddd343f579ca4b2146a47b492ce6600ec53a9e5a7936e9af16ccf1dd7072ffac",
            "type": "pubkey"
          }
        }
      ],
      "hex": "01000000010000000000000000000000000000000000000000000000000000000000000000ffffffff0704ffff001d011cffffffff0100f2052a010000004341045111f442ff6e4a80d31a127a77e9bfa33652bb719d1df7a59cdbae51de312d1a80ddd343f579ca4b2146a47b492ce6600ec53a9e5a7936e9af16ccf1dd7072ffac00000000"
    }
  ]
}