{
  "hash": "000000007849dc16023dfb9a6b60cf73e13d507ca7de65697f32f9917aa91925",
  "confirmations": 44424,
  "height": 8674,
  "version": 1,
  "versionHex": "00000001",
  "merkleroot": "d16e0266f17d2b784cc270988bba79dd08edbd085901120cb633bd6d5fa352ca",
  "time": 1238004216,
  "mediantime": 1237999477,
  "nonce": 890161717,
  "bits": "1d00ffff",
  "difficulty": 1,
  "chainwork": "000000000000000000000000000000000000000000000000000021e321e321e3",
  "nTx": 1,
  "previousblockhash": "00000000ddfdd23a02d2ddea4b8b2fae6e9c87eb90a8661f7abfd14951e2ea36",
  "nextblockhash": "00000000a5840431b42ef82d18c90046fafba4735a4f7957f59e8dd5fa3d4b85",
  "strippedsize": 215,
  "size": 215,
  "weight": 860,
  "tx": [
    {
      "txid": "d16e0266f17d2b784cc270988bba79dd08edbd085901120cb633bd6d5fa352ca",
      "hash": "d16e0266f17d2b784cc270988bba79dd08edbd085901120cb633bd6d5fa352ca",
      "version": 1,
      "size": 134,
      "vsize": 134,
      "weight": 536,
      "locktime": 0,
      "vin": [
        {
          "coinbase": "04ffff001d0173",
          "sequence": 4294967295
        }
      ],
      "vout": [
        {
          "value": 50.0,
          "n": 0,
          "scriptPubKey": {
            "asm": "04d93946bf220eaecd9a18d0073c4d9d62febf67a207389851831a835c7b914f96b5eb9527de2a5d839276aca1bb5e33701c232e1414b5bd1db3ec0f5968549f15 OP_CHECKSIG",
            "desc": "pk(04d93946bf220eaecd9a18d0073c4d9d62febf67a207389851831a835c7b914f96b5eb9527de2a5d839276aca1bb5e33701c232e1414b5bd1db3ec0f5968549f15)#ltkz2j6e",
            "hex": "4104d93946bf220eaecd9a18d0073c4d9d62febf67a207389851831a835c7b914f96b5eb9527de2a5d839276aca1bb5e33701c232e1414b5bd1db3ec0f5968549f15ac",
            "type": "pubkey"
          }
        }
      ],
      "hex": "01000000010000000000000000000000000000000000000000000000000000000000000000ffffffff0704ffff001d0173ffffffff0100f2052a01000000434104d93946bf220eaecd9a18d0073c4d9d62febf67a207389851831a835c7b914f96b5eb9527de2a5d839276aca1bb5e33701c232e1414b5bd1db3ec0f5968549f15ac00000000"
    }
  ]
}