{
  "hash": "000000003bde7050ee6fbd219f93e2192f03897d9f49103e4ad383c8ad8e395d",
  "confirmations": 51410,
  "height": 1688,
  "version": 1,
  "versionHex": "00000001",
  "merkleroot": "cacd4e31b49706a017b1a86dff3aab6a8be6417ee92fa3bc3a063bbe60ee26a8",
  "time": 1232847539,
  "mediantime": 1232845577,
  "nonce": 3180087343,
  "bits": "1d00ffff",
  "difficulty": 1,
  "chainwork": "0000000000000000000000000000000000000000000000000000069906990699",
  "nTx": 1,
  "previousblockhash": "00000000aa195e03989d7a4c5dc4b58ed4b1ef55e460a780a2dd7bbfffc51398",
  "nextblockhash": "00000000d30fb8670693d4ac551134110e54bc13dbac82b58332f054ffa97192",
  "strippedsize": 216,
  "size": 216,
  "weight": 864,
  "tx": [
    {
      "txid": "cacd4e31b49706a017b1a86dff3aab6a8be6417ee92fa3bc3a063bbe60ee26a8",
      "hash": "cacd4e31b49706a017b1a86dff3aab6a8be6417ee92fa3bc3a063bbe60ee26a8",
      "version": 1,
      "size": 135,
      "vsize": 135,
      "weight": 540,
      "locktime": 0,
      "vin": [
        {
          "coinbase": "04ffff001d02fd02",
          "sequence": 4294967295
        }
      ],
      "vout": [
        {
          "value": 50.0,
          "n": 0,
          "scriptPubKey": {
            "asm": "04037971afabdda925079c9e77da4fcd6cc893ed1717abc1a29ee2e97db002739d2d3429016bc52a90fcfe6b9e74b1335403a10859b2b955b1e3c9fcdf14f98979 OP_CHECKSIG",
            "desc": "pk(04037971afabdda925079c9e77da4fcd6cc893ed1717abc1a29ee2e97db002739d2d3429016bc52a90fcfe6b9e74b1335403a10859b2b955b1e3c9fcdf14f98979)#ljn0m8q4",
            "hex": "4104037971afabdda925079c9e77da4fcd6cc893ed1717abc1a29ee2e97db002739d2d3429016bc52a90fcfe6b9e74b1335403a10859b2b955b1e3c9fcdf14f98979ac",
            "type": "pubkey"
          }
        }
      ],
      "hex": "01000000010000000000000000000000000000000000000000000000000000000000000000ffffffff0804ffff001d02fd02ffffffff0100f2052a01000000434104037971afabdda925079c9e77da4fcd6cc893ed1717abc1a29ee2e97db002739d2d3429016bc52a90fcfe6b9e74b1335403a10859b2b955b1e3c9fcdf14f98979ac00000000"
    }
  ]
}