{
  "hash": "000000006e2da81cbf5954bf848a0716d640c0c9a178af86f3c4f62ebf888f9a",
  "confirmations": 51763,
  "height": 1335,
  "version": 1,
  "versionHex": "00000001",
  "merkleroot": "d45e525deec4c8317507b1d11cc1c83f62f9242a495eb1280b187cbd0d38284e",
  "time": 1232627210,
  "mediantime": 1232623267,
  "nonce": 1911736615,
  "bits": "1d00ffff",
  "difficulty": 1,
  "chainwork": "0000000000000000000000000000000000000000000000000000053805380538",
  "nTx": 1,
  "previousblockhash": "000000005d2b548da26c517588c77bc11e157ff666fef91ad10ef32be07a3933",
  "nextblockhash": "0000000073b4019fc436e5a38368f24418eb773fb7d142644a47238e2ac423ce",
  "strippedsize": 216,
  "size": 216,
  "weight": 864,
  "tx": [
    {
      "txid": "d45e525deec4c8317507b1d11cc1c83f62f9242a495eb1280b187cbd0d38284e",
      "hash": "d45e525deec4c8317507b1d11cc1c83f62f9242a495eb1280b187cbd0d38284e",
      "version": 1,
      "size": 135,
      "vsize": 135,
      "weight": 540,
      "locktime": 0,
      "vin": [
        {
          "coinbase": "04ffff001d02d600",
          "sequence": 4294967295
        }
      ],
      "vout": [
        {
          "value": 50.0,
          "n": 0,
          "scriptPubKey": {
            "asm": "0421113d4a12375f2c50de08b9246e13c4037d1e22865057edabd8c9786fa3ac95d3f0b31b88e8af75871de1013c92d9525bc2352ac9a36ba7de9aa9bec9bc204e OP_CHECKSIG",
            "desc": "pk(0421113d4a12375f2c50de08b9246e13c4037d1e22865057edabd8c9786fa3ac95d3f0b31b88e8af75871de1013c92d9525bc2352ac9a36ba7de9aa9bec9bc204e)#09ykscn9",
            "hex": "410421113d4a12375f2c50de08b9246e13c4037d1e22865057edabd8c9786fa3ac95d3f0b31b88e8af75871de1013c92d9525bc2352ac9a36ba7de9aa9bec9bc204eac",
            "type": "pubkey"
          }
        }
      ],
      "hex": "01000000010000000000000000000000000000000000000000000000000000000000000000ffffffff0804ffff001d02d600ffffffff0100f2052a0100000043410421113d4a12375f2c50de08b9246e13c4037d1e22865057edabd8c9786fa3ac95d3f0b31b88e8af75871de1013c92d9525bc2352ac9a36ba7de9aa9bec9bc204eac00000000"
    }
  ]
}