{
  "hash": "00000000ff7c514b53d455a10416fd00577efa1284e413e16dcdcb13419ecf0a",
  "confirmations": 47999,
  "height": 5099,
  "version": 1,
  "versionHex": "00000001",
  "merkleroot": "10f959954b87ac5c2b8bc47f9ca3116aed2fa04a0e32fc08244bbc06af50414a",
  "time": 1235215413,
  "mediantime": 1235211658,
  "nonce": 53635115,
  "bits": "1d00ffff",
  "difficulty": 1,
  "chainwork": "000000000000000000000000000000000000000000000000000013ec13ec13ec",
  "nTx": 1,
  "previousblockhash": "00000000bf76e75b9323269e3060d562c68d0da260514a716814f403f52f8cbe",
  "nextblockhash": "000000006280c0aba2c1776df0eee0b1f6a773e4d47ae78ee134bcb6ed21bbb4",
  "strippedsize": 216,
  "size": 216,
  "weight": 864,
  "tx": [
    {
      "txid": "10f959954b87ac5c2b8bc47f9ca3116aed2fa04a0e32fc08244bbc06af50414a",
      "hash": "10f959954b87ac5c2b8bc47f9ca3116aed2fa04a0e32fc08244bbc06af50414a",
      "version": 1,
      "size": 135,
      "vsize": 135,
      "weight": 540,
      "locktime": 0,
      "vin": [
        {
          "coinbase": "04ffff001d02840c",
          "sequence": 4294967295
        }
      ],
      "vout": [
        {
          "value": 50.0,
          "n": 0,
          "scriptPubKey": {
            "asm": "044b0b4c78922160624630f2e0201f2ef11e6430391ce25d5c7decdd9fa20d62e06c7446fb1163737d3c20cadce7dfde83f33c01287f638057d5dff07427d3c14b OP_CHECKSIG",
            "desc": "pk(044b0b4c78922160624630f2e0201f2ef11e6430391ce25d5c7decdd9fa20d62e06c7446fb1163737d3c20cadce7dfde83f33c01287f638057d5dff07427d3c14b)#fejc4xg5",
            "hex": "41044b0b4c78922160624630f2e0201f2ef11e6430391ce25d5c7decdd9fa20d62e06c7446fb1163737d3c20cadce7dfde83f33c01287f638057d5dff07427d3c14bac",
            "type": "pubkey"
          }
        }
      ],
      "hex": "01000000010000000000000000000000000000000000000000000000000000000000000000ffffffff0804ffff001d02840cffffffff0100f2052a010000004341044b0b4c78922160624630f2e0201f2ef11e6430391ce25d5c7decdd9fa20d62e06c7446fb1163737d3c20cadce7dfde83f33c01287f638057d5dff07427d3c14bac00000000"
    }
  ]
}