{
  "hash": "00000000babe08e0d513f9af0541fb24498b1b1349195580f648c1dee9f38c8f",
  "confirmations": 45556,
  "height": 7542,
  "version": 1,
  "versionHex": "00000001",
  "merkleroot": "4e1e0a16aa7ab837a5442f400a3b7886385ba027d07f6a59a9ae0d687bea23a0",
  "time": 1237130411,
  "mediantime": 1237126612,
  "nonce": 3308202776,
  "bits": "1d00ffff",
  "difficulty": 1,
  "chainwork": "00000000000000000000000000000000000000000000000000001d771d771d77",
  "nTx": 1,
  "previousblockhash": "00000000d70d009d4d07f21abfaea48654e63e28f38fe0685e3b0dea50f536de",
  "nextblockhash": "000000008316bcaa2c49435c8b4f1367f240941eb58202c7fae7765be088fe76",
  "strippedsize": 216,
  "size": 216,
  "weight": 864,
  "tx": [
    {
      "txid": "4e1e0a16aa7ab837a5442f400a3b7886385ba027d07f6a59a9ae0d687bea23a0",
      "hash": "4e1e0a16aa7ab837a5442f400a3b7886385ba027d07f6a59a9ae0d687bea23a0",
      "version": 1,
      "size": 135,
      "vsize": 135,
      "weight": 540,
      "locktime": 0,
      "vin": [
        {
          "coinbase": "04ffff001d02b401",
          "sequence": 4294967295
        }
      ],
      "vout": [
        {
          "value": 50.0,
          "n": 0,
          "scriptPubKey": {
            "asm": "0467c573eaf0e562ee5b69d02b4c1a9510043d4edf78457834e3c4c023ff6215060560e3bb9c043cf99c1cfcd32dbee23e7e8401edba926202d0b25b92da8252e2 OP_CHECKSIG",
            "desc": "pk(0467c573eaf0e562ee5b69d02b4c1a9510043d4edf78457834e3c4c023ff6215060560e3bb9c043cf99c1cfcd32dbee23e7e8401edba926202d0b25b92da8252e2)#me9vak8j",
            "hex": "410467c573eaf0e562ee5b69d02b4c1a9510043d4edf78457834e3c4c023ff6215060560e3bb9c043cf99c1cfcd32dbee23e7e8401edba926202d0b25b92da8252e2ac",
            "type": "pubkey"
          }
        }
      ],
      "hex": "01000000010000000000000000000000000000000000000000000000000000000000000000ffffffff0804ffff001d02b401ffffffff0100f2052a0100000043410467c573eaf0e562ee5b69d02b4c1a9510043d4edf78457834e3c4c023ff6215060560e3bb9c043cf99c1cfcd32dbee23e7e8401edba926202d0b25b92da8252e2ac00000000"
    }
  ]
}