{
  "hash": "000000002f9a0690fe60aa6111258c49c9ea48ccc3ca7f3d9684a35677ebfd9a",
  "confirmations": 45807,
  "height": 7291,
  "version": 1,
  "versionHex": "00000001",
  "merkleroot": "b1091e576fe0074d942fc201c36c00439efaaaece981bf75518d3f2f6b3245ec",
  "time": 1236942562,
  "mediantime": 1236937834,
  "nonce": 1907908406,
  "bits": "1d00ffff",
  "difficulty": 1,
  "chainwork": "00000000000000000000000000000000000000000000000000001c7c1c7c1c7c",
  "nTx": 1,
  "previousblockhash": "000000002a328821dc9296af7ee9c723cdd44a5a58dbd0ca2a032efc52712c48",
  "nextblockhash": "00000000d1de2a3f2dbdafb4695675917ef357570d2a79be1e3c37818a38f034",
  "strippedsize": 216,
  "size": 216,
  "weight": 864,
  "tx": [
    {
      "txid": "b1091e576fe0074d942fc201c36c00439efaaaece981bf75518d3f2f6b3245ec",
      "hash": "b1091e576fe0074d942fc201c36c00439efaaaece981bf75518d3f2f6b3245ec",
      "version": 1,
      "size": 135,
      "vsize": 135,
      "weight": 540,
      "locktime": 0,
      "vin": [
        {
          "coinbase": "04ffff001d024807",
          "sequence": 4294967295
        }
      ],
      "vout": [
        {
          "value": 50.0,
          "n": 0,
          "scriptPubKey": {
            "asm": "04231d1e7ab7bf34a568840e3f5f4bcee9085abc26228e4654bbab4134704f54a3e8707b9378b91e81b7abd3e77dfa7e89d006fab2d30213f630138605b8bccfe0 OP_CHECKSIG",
            "desc": "pk(04231d1e7ab7bf34a568840e3f5f4bcee9085abc26228e4654bbab4134704f54a3e8707b9378b91e81b7abd3e77dfa7e89d006fab2d30213f630138605b8bccfe0)#eawy5prn",
            "hex": "4104231d1e7ab7bf34a568840e3f5f4bcee9085abc26228e4654bbab4134704f54a3e8707b9378b91e81b7abd3e77dfa7e89d006fab2d30213f630138605b8bccfe0ac",
            "type": "pubkey"
          }
        }
      ],
      "hex": "01000000010000000000000000000000000000000000000000000000000000000000000000ffffffff0804ffff001d024807ffffffff0100f2052a01000000434104231d1e7ab7bf34a568840e3f5f4bcee9085abc26228e4654bbab4134704f54a3e8707b9378b91e81b7abd3e77dfa7e89d006fab2d30213f630138605b8bccfe0ac00000000"
    }
  ]
}