{
  "hash": "00000000211ed6ff8805fbc536ee7b5a9ed76512c54205214c3d1387de3b6962",
  "confirmations": 50583,
  "height": 2515,
  "version": 1,
  "versionHex": "00000001",
  "merkleroot": "0b176f11d409fb373f4fb62e0707df219c734f929687a0e6ff5fa9ee8770778d",
  "time": 1233427791,
  "mediantime": 1233425571,
  "nonce": 2628712232,
  "bits": "1d00ffff",
  "difficulty": 1,
  "chainwork": "000000000000000000000000000000000000000000000000000009d409d409d4",
  "nTx": 1,
  "previousblockhash": "000000002cb941cf510cbda749caefc7b511680a7bba47ef49b7d8d470cea8b6",
  "nextblockhash": "00000000b9e3515f421c7cf05022323515f2d084c171da4556ce0a92b2fab388",
  "strippedsize": 216,
  "size": 216,
  "weight": 864,
  "tx": [
    {
      "txid": "0b176f11d409fb373f4fb62e0707df219c734f929687a0e6ff5fa9ee8770778d",
      "hash": "0b176f11d409fb373f4fb62e0707df219c734f929687a0e6ff5fa9ee8770778d",
      "version": 1,
      "size": 135,
      "vsize": 135,
      "weight": 540,
      "locktime": 0,
      "vin": [
        {
          "coinbase": "04ffff001d024501",
          "sequence": 4294967295
        }
      ],
      "vout": [
        {
          "value": 50.0,
          "n": 0,
          "scriptPubKey": {
            "asm": "0449d39ead0bd6b7bdbda9cba43b7213a74c5ec73cffc297ef00ec9d8ae0569bf9b5b3541f90045001906e8551be2e0e11cf991f4490759fd48c641df3800f638d OP_CHECKSIG",
            "desc": "pk(0449d39ead0bd6b7bdbda9cba43b7213a74c5ec73cffc297ef00ec9d8ae0569bf9b5b3541f90045001906e8551be2e0e11cf991f4490759fd48c641df3800f638d)#0l7wu6as",
            "hex": "410449d39ead0bd6b7bdbda9cba43b7213a74c5ec73cffc297ef00ec9d8ae0569bf9b5b3541f90045001906e8551be2e0e11cf991f4490759fd48c641df3800f638dac",
            "type": "pubkey"
          }
        }
      ],
      "hex": "01000000010000000000000000000000000000000000000000000000000000000000000000ffffffff0804ffff001d024501ffffffff0100f2052a0100000043410449d39ead0bd6b7bdbda9cba43b7213a74c5ec73cffc297ef00ec9d8ae0569bf9b5b3541f90045001906e8551be2e0e11cf991f4490759fd48c641df3800f638dac00000000"
    }
  ]
}