{
  "hash": "000000008cdfaf5111efc7d95cd524aaf23d1f62ec41482cd1234fb019c898aa",
  "confirmations": 44062,
  "height": 9036,
  "version": 1,
  "versionHex": "00000001",
  "merkleroot": "70ecf88e3ca93f8369bc9bb11f213af072af70ed0b35b36c7082f79810d295fa",
  "time": 1238278245,
  "mediantime": 1238274964,
  "nonce": 1987892792,
  "bits": "1d00ffff",
  "difficulty": 1,
  "chainwork": "0000000000000000000000000000000000000000000000000000234d234d234d",
  "nTx": 1,
  "previousblockhash": "000000005aa3c1eeadbe8f57e0688f31c19309d17ad649a1e8ea2243895ce565",
  "nextblockhash": "0000000093506413d42170caa97d0624b7fd36b5fd672f4e88a9a9d2e283f81c",
  "strippedsize": 216,
  "size": 216,
  "weight": 864,
  "tx": [
    {
      "txid": "70ecf88e3ca93f8369bc9bb11f213af072af70ed0b35b36c7082f79810d295fa",
      "hash": "70ecf88e3ca93f8369bc9bb11f213af072af70ed0b35b36c7082f79810d295fa",
      "version": 1,
      "size": 135,
      "vsize": 135,
      "weight": 540,
      "locktime": 0,
      "vin": [
        {
          "coinbase": "04ffff001d02fc06",
          "sequence": 4294967295
        }
      ],
      "vout": [
        {
          "value": 50.0,
          "n": 0,
          "scriptPubKey": {
            "asm": "047cea9b5cdd6ac3961f21925023c94e53dccfbad5114b249d1f3874a9088825be65aeb5bfd26f112802efbd751eb1732348f794be3cf8c4c6560c7ede58c6ddf3 OP_CHECKSIG",
            "desc": "pk(047cea9b5cdd6ac3961f21925023c94e53dccfbad5114b249d1f3874a9088825be65aeb5bfd26f112802efbd751eb1732348f794be3cf8c4c6560c7ede58c6ddf3)#gpqm62zy",
            "hex": "41047cea9b5cdd6ac3961f21925023c94e53dccfbad5114b249d1f3874a9088825be65aeb5bfd26f112802efbd751eb1732348f794be3cf8c4c6560c7ede58c6ddf3ac",
            "type": "pubkey"
          }
        }
      ],
      "hex": "01000000010000000000000000000000000000000000000000000000000000000000000000ffffffff0804ffff001d02fc06ffffffff0100f2052a010000004341047cea9b5cdd6ac3961f21925023c94e53dccfbad5114b249d1f3874a9088825be65aeb5bfd26f112802efbd751eb1732348f794be3cf8c4c6560c7ede58c6ddf3ac00000000"
    }
  ]
}