{
  "hash": "000000007125b454ad0de5f49af86a855c7f1eab526fc6f1473394a5945af9cc",
  "confirmations": 49741,
  "height": 3357,
  "version": 1,
  "versionHex": "00000001",
  "merkleroot": "5ef8fa1d313bf5d265258f982a4b6ddb6d5f1798c8eebb27aea72f9bc1a80867",
  "time": 1234008261,
  "mediantime": 1234005680,
  "nonce": 22552376,
  "bits": "1d00ffff",
  "difficulty": 1,
  "chainwork": "00000000000000000000000000000000000000000000000000000d1e0d1e0d1e",
  "nTx": 1,
  "previousblockhash": "0000000063bfc93167f025a0c76c8a7c1f7f068580e8bde8a1a3d2979a3cbbc8",
  "nextblockhash": "00000000c703af56e73df3ab5c8ece424b3c3d9faabf759da0a75403097496f0",
  "strippedsize": 216,
  "size": 216,
  "weight": 864,
  "tx": [
    {
      "txid": "5ef8fa1d313bf5d265258f982a4b6ddb6d5f1798c8eebb27aea72f9bc1a80867",
      "hash": "5ef8fa1d313bf5d265258f982a4b6ddb6d5f1798c8eebb27aea72f9bc1a80867",
      "version": 1,
      "size": 135,
      "vsize": 135,
      "weight": 540,
      "locktime": 0,
      "vin": [
        {
          "coinbase": "04ffff001d02b200",
          "sequence": 4294967295
        }
      ],
      "vout": [
        {
          "value": 50.0,
          "n": 0,
          "scriptPubKey": {
            "asm": "048d6f0692a6b9ad588b58d0acf2824ab57872a7cdabcd770cd6cfe6b4613b5d0349c7cb9a96aae95e5a7eda8e574f459f328ec9f838aef08ffe9ffeb6067c20cf OP_CHECKSIG",
            "desc": "pk(048d6f0692a6b9ad588b58d0acf2824ab57872a7cdabcd770cd6cfe6b4613b5d0349c7cb9a96aae95e5a7eda8e574f459f328ec9f838aef08ffe9ffeb6067c20cf)#levsxyu0",
            "hex": "41048d6f0692a6b9ad588b58d0acf2824ab57872a7cdabcd770cd6cfe6b4613b5d0349c7cb9a96aae95e5a7eda8e574f459f328ec9f838aef08ffe9ffeb6067c20cfac",
            "type": "pubkey"
          }
        }
      ],
      "hex": "01000000010000000000000000000000000000000000000000000000000000000000000000ffffffff0804ffff001d02b200ffffffff0100f2052a010000004341048d6f0692a6b9ad588b58d0acf2824ab57872a7cdabcd770cd6cfe6b4613b5d0349c7cb9a96aae95e5a7eda8e574f459f328ec9f838aef08ffe9ffeb6067c20cfac00000000"
    }
  ]
}