{
  "hash": "00000000ee40bc360a3865ef053df21861ad1217b6f95c10069f445ed652bcc3",
  "confirmations": 43618,
  "height": 9480,
  "version": 1,
  "versionHex": "00000001",
  "merkleroot": "c1d7e09e55ae6a88c1f8aeea11c59a4815c205c6524229c0099b86a12b7055e7",
  "time": 1238614620,
  "mediantime": 1238610109,
  "nonce": 3640859447,
  "bits": "1d00ffff",
  "difficulty": 1,
  "chainwork": "0000000000000000000000000000000000000000000000000000250925092509",
  "nTx": 1,
  "previousblockhash": "000000004415a908414ea6c4149a01f39d401693aa29ef15e72717574e3aa8b2",
  "nextblockhash": "00000000a95af4f120a33be882959c7f7cde1ff5ca4080c99295c38998e7acb7",
  "strippedsize": 216,
  "size": 216,
  "weight": 864,
  "tx": [
    {
      "txid": "c1d7e09e55ae6a88c1f8aeea11c59a4815c205c6524229c0099b86a12b7055e7",
      "hash": "c1d7e09e55ae6a88c1f8aeea11c59a4815c205c6524229c0099b86a12b7055e7",
      "version": 1,
      "size": 135,
      "vsize": 135,
      "weight": 540,
      "locktime": 0,
      "vin": [
        {
          "coinbase": "04ffff001d021205",
          "sequence": 4294967295
        }
      ],
      "vout": [
        {
          "value": 50.0,
          "n": 0,
          "scriptPubKey": {
            "asm": "04ea84c4a08ebc71d55b78e1c69f9fcb4833a75d550f494dde3d654e06409ac4ff5814accb7cf112b67d793a7d44238b0b320507e5149122028db8f4c0e27a6554 OP_CHECKSIG",
            "desc": "pk(04ea84c4a08ebc71d55b78e1c69f9fcb4833a75d550f494dde3d654e06409ac4ff5814accb7cf112b67d793a7d44238b0b320507e5149122028db8f4c0e27a6554)#xjjpw95q",
            "hex": "4104ea84c4a08ebc71d55b78e1c69f9fcb4833a75d550f494dde3d654e06409ac4ff5814accb7cf112b67d793a7d44238b0b320507e5149122028db8f4c0e27a6554ac",
            "type": "pubkey"
          }
        }
      ],
      "hex": "01000000010000000000000000000000000000000000000000000000000000000000000000ffffffff0804ffff001d021205ffffffff0100f2052a01000000434104ea84c4a08ebc71d55b78e1c69f9fcb4833a75d550f494dde3d654e06409ac4ff5814accb7cf112b67d793a7d44238b0b320507e5149122028db8f4c0e27a6554ac00000000"
    }
  ]
}