{
  "hash": "00000000641e79528630c80390c83e2a9d70b0ae8c7d3d4c4091f73754eee564",
  "confirmations": 48167,
  "height": 4931,
  "version": 1,
  "versionHex": "00000001",
  "merkleroot": "b794eb2662c6623c3cc265eaaa047b05b0d5617c101d485b6a6ed3c4fec00121",
  "time": 1235091313,
  "mediantime": 1235087435,
  "nonce": 3322595609,
  "bits": "1d00ffff",
  "difficulty": 1,
  "chainwork": "0000000000000000000000000000000000000000000000000000134413441344",
  "nTx": 1,
  "previousblockhash": "00000000696b0f25ca63595ee901c059ca94ebb99ce16a84c421a8565f86c77a",
  "nextblockhash": "000000006c354dbdf9335c68073941e5d7a7a223f5de5200bdcc4957a7b374dc",
  "strippedsize": 216,
  "size": 216,
  "weight": 864,
  "tx": [
    {
      "txid": "b794eb2662c6623c3cc265eaaa047b05b0d5617c101d485b6a6ed3c4fec00121",
      "hash": "b794eb2662c6623c3cc265eaaa047b05b0d5617c101d485b6a6ed3c4fec00121",
      "version": 1,
      "size": 135,
      "vsize": 135,
      "weight": 540,
      "locktime": 0,
      "vin": [
        {
          "coinbase": "04ffff001d021e06",
          "sequence": 4294967295
        }
      ],
      "vout": [
        {
          "value": 50.0,
          "n": 0,
          "scriptPubKey": {
            "asm": "0421f6d8dc8075b6019f8f0585d0945bac92034382dab4093ab9f761a3adb93471bf40bc0a58f2c51bb5a937be52e33cacd9c5fbe2429ea6042aea095740ba1ab5 OP_CHECKSIG",
            "desc": "pk(0421f6d8dc8075b6019f8f0585d0945bac92034382dab4093ab9f761a3adb93471bf40bc0a58f2c51bb5a937be52e33cacd9c5fbe2429ea6042aea095740ba1ab5)#dcazxg90",
            "hex": "410421f6d8dc8075b6019f8f0585d0945bac92034382dab4093ab9f761a3adb93471bf40bc0a58f2c51bb5a937be52e33cacd9c5fbe2429ea6042aea095740ba1ab5ac",
            "type": "pubkey"
          }
        }
      ],
      "hex": "01000000010000000000000000000000000000000000000000000000000000000000000000ffffffff0804ffff001d021e06ffffffff0100f2052a0100000043410421f6d8dc8075b6019f8f0585d0945bac92034382dab4093ab9f761a3adb93471bf40bc0a58f2c51bb5a937be52e33cacd9c5fbe2429ea6042aea095740ba1ab5ac00000000"
    }
  ]
}