{
  "hash": "00000000fdfa6c237d959076bb37ff2826d176641395fee32b917c66bae09375",
  "confirmations": 46302,
  "height": 6796,
  "version": 1,
  "versionHex": "00000001",
  "merkleroot": "9d91f513fd3d9bb6a243d5a3fb0ea5452983faa9714c0d2f6b2a43d4e81b7d7a",
  "time": 1236555030,
  "mediantime": 1236551979,
  "nonce": 1824510232,
  "bits": "1d00ffff",
  "difficulty": 1,
  "chainwork": "00000000000000000000000000000000000000000000000000001a8d1a8d1a8d",
  "nTx": 1,
  "previousblockhash": "0000000029aa1d7049524001c25b11e188f1a4b873790b2cee7b87cce3f49b96",
  "nextblockhash": "000000008d0c0a890bbdc4cc9fa5810e5245f8d413805e799d4a323096c1e5c8",
  "strippedsize": 216,
  "size": 216,
  "weight": 864,
  "tx": [
    {
      "txid": "9d91f513fd3d9bb6a243d5a3fb0ea5452983faa9714c0d2f6b2a43d4e81b7d7a",
      "hash": "9d91f513fd3d9bb6a243d5a3fb0ea5452983faa9714c0d2f6b2a43d4e81b7d7a",
      "version": 1,
      "size": 135,
      "vsize": 135,
      "weight": 540,
      "locktime": 0,
      "vin": [
        {
          "coinbase": "04ffff001d02ff08",
          "sequence": 4294967295
        }
      ],
      "vout": [
        {
          "value": 50.0,
          "n": 0,
          "scriptPubKey": {
            "asm": "0434a1cc8dc15a38fc24a4f8bec5903c0e491a99f0d1ce72a041fd4c7790bcb3464617abbba77c198ff4a945b82e3ef836681b821ed6efb5db3d701091e6ca43da OP_CHECKSIG",
            "desc": "pk(0434a1cc8dc15a38fc24a4f8bec5903c0e491a99f0d1ce72a041fd4c7790bcb3464617abbba77c198ff4a945b82e3ef836681b821ed6efb5db3d701091e6ca43da)#cpv7psx8",
            "hex": "410434a1cc8dc15a38fc24a4f8bec5903c0e491a99f0d1ce72a041fd4c7790bcb3464617abbba77c198ff4a945b82e3ef836681b821ed6efb5db3d701091e6ca43daac",
            "type": "pubkey"
          }
        }
      ],
      "hex": "01000000010000000000000000000000000000000000000000000000000000000000000000ffffffff0804ffff001d02ff08ffffffff0100f2052a0100000043410434a1cc8dc15a38fc24a4f8bec5903c0e491a99f0d1ce72a041fd4c7790bcb3464617abbba77c198ff4a945b82e3ef836681b821ed6efb5db3d701091e6ca43daac00000000"
    }
  ]
}