{
  "hash": "00000000e9e87b0295fc0b953f70dd7a4cf96b2f44b02a92f5673065d92336d6",
  "confirmations": 43398,
  "height": 9700,
  "version": 1,
  "versionHex": "00000001",
  "merkleroot": "eb395c0727b6ffbc48eb4adeda20c63c0684e0b19bbab1a557f62a8f6014704c",
  "time": 1238777920,
  "mediantime": 1238773811,
  "nonce": 694636825,
  "bits": "1d00ffff",
  "difficulty": 1,
  "chainwork": "000000000000000000000000000000000000000000000000000025e525e525e5",
  "nTx": 1,
  "previousblockhash": "00000000132ba96301789fd490f26e5f0f0b849877f0c3a7e2d2df09dace892d",
  "nextblockhash": "00000000d88851f4dedcff7b938afedb0de4723f32ccb96b0222bdf4b8e057a9",
  "strippedsize": 216,
  "size": 216,
  "weight": 864,
  "tx": [
    {
      "txid": "eb395c0727b6ffbc48eb4adeda20c63c0684e0b19bbab1a557f62a8f6014704c",
      "hash": "eb395c0727b6ffbc48eb4adeda20c63c0684e0b19bbab1a557f62a8f6014704c",
      "version": 1,
      "size": 135,
      "vsize": 135,
      "weight": 540,
      "locktime": 0,
      "vin": [
        {
          "coinbase": "04ffff001d025f08",
          "sequence": 4294967295
        }
      ],
      "vout": [
        {
          "value": 50.0,
          "n": 0,
          "scriptPubKey": {
            "asm": "04655334f44b421ba9f07c7958cfbbd9902c875096cc174e77235b54dc0e12559d9da2226cec935c19d5fdd79971b8484be3210d8c34b93ba97de3042672144eb5 OP_CHECKSIG",
            "desc": "pk(04655334f44b421ba9f07c7958cfbbd9902c875096cc174e77235b54dc0e12559d9da2226cec935c19d5fdd79971b8484be3210d8c34b93ba97de3042672144eb5)#h7sjugdg",
            "hex": "4104655334f44b421ba9f07c7958cfbbd9902c875096cc174e77235b54dc0e12559d9da2226cec935c19d5fdd79971b8484be3210d8c34b93ba97de3042672144eb5ac",
            "type": "pubkey"
          }
        }
      ],
      "hex": "01000000010000000000000000000000000000000000000000000000000000000000000000ffffffff0804ffff001d025f08ffffffff0100f2052a01000000434104655334f44b421ba9f07c7958cfbbd9902c875096cc174e77235b54dc0e12559d9da2226cec935c19d5fdd79971b8484be3210d8c34b93ba97de3042672144eb5ac00000000"
    }
  ]
}