{
  "hash": "0000000073313ad7936a139e97851b826f778737c572919ea5deba76eacdc41b",
  "confirmations": 45841,
  "height": 7257,
  "version": 1,
  "versionHex": "00000001",
  "merkleroot": "158f805547769e6ef79fa1e2caf0fec53b433ed4d7bdda697ee554541216ac62",
  "time": 1236914139,
  "mediantime": 1236909268,
  "nonce": 30843689,
  "bits": "1d00ffff",
  "difficulty": 1,
  "chainwork": "00000000000000000000000000000000000000000000000000001c5a1c5a1c5a",
  "nTx": 1,
  "previousblockhash": "0000000056db6a4454e23ac6b37e36d355c3b767b7e16711e5680fa47cd67056",
  "nextblockhash": "000000001904fbf0b1dd2d14c1bb713d5a7f7ae2fc921a516e8f2f4dff592437",
  "strippedsize": 216,
  "size": 216,
  "weight": 864,
  "tx": [
    {
      "txid": "158f805547769e6ef79fa1e2caf0fec53b433ed4d7bdda697ee554541216ac62",
      "hash": "158f805547769e6ef79fa1e2caf0fec53b433ed4d7bdda697ee554541216ac62",
      "version": 1,
      "size": 135,
      "vsize": 135,
      "weight": 540,
      "locktime": 0,
      "vin": [
        {
          "coinbase": "04ffff001d02a106",
          "sequence": 4294967295
        }
      ],
      "vout": [
        {
          "value": 50.0,
          "n": 0,
          "scriptPubKey": {
            "asm": "04dcc9c0f5807476b7a4a51d00653f5cb19fbe70eb312cabbe71eb56ba5156f2e5a4c9c82a726ca2556b5eebd2b3b6a594751a0680738524ad1a1057fad1c9b624 OP_CHECKSIG",
            "desc": "pk(04dcc9c0f5807476b7a4a51d00653f5cb19fbe70eb312cabbe71eb56ba5156f2e5a4c9c82a726ca2556b5eebd2b3b6a594751a0680738524ad1a1057fad1c9b624)#vkmka63x",
            "hex": "4104dcc9c0f5807476b7a4a51d00653f5cb19fbe70eb312cabbe71eb56ba5156f2e5a4c9c82a726ca2556b5eebd2b3b6a594751a0680738524ad1a1057fad1c9b624ac",
            "type": "pubkey"
          }
        }
      ],
      "hex": "01000000010000000000000000000000000000000000000000000000000000000000000000ffffffff0804ffff001d02a106ffffffff0100f2052a01000000434104dcc9c0f5807476b7a4a51d00653f5cb19fbe70eb312cabbe71eb56ba5156f2e5a4c9c82a726ca2556b5eebd2b3b6a594751a0680738524ad1a1057fad1c9b624ac00000000"
    }
  ]
}