{
  "hash": "00000000cd1f08cb3f60082bfa90c63ffa3b90218b3b9d7719279283a68fd84e",
  "confirmations": 48744,
  "height": 4354,
  "version": 1,
  "versionHex": "00000001",
  "merkleroot": "a25376721a7bbf1e70a2ac5b06657b22aeccf38c24bee7abd68b825a3355e8fa",
  "time": 1234680426,
  "mediantime": 1234676902,
  "nonce": 450758189,
  "bits": "1d00ffff",
  "difficulty": 1,
  "chainwork": "0000000000000000000000000000000000000000000000000000110311031103",
  "nTx": 1,
  "previousblockhash": "00000000dec7c8ed9640ccfb3679553bdd2f95946e459cc262022189b7431136",
  "nextblockhash": "000000008402372eb75f2d028213f46437f00f9a72ded4f337e5a51605a9ada0",
  "strippedsize": 216,
  "size": 216,
  "weight": 864,
  "tx": [
    {
      "txid": "a25376721a7bbf1e70a2ac5b06657b22aeccf38c24bee7abd68b825a3355e8fa",
      "hash": "a25376721a7bbf1e70a2ac5b06657b22aeccf38c24bee7abd68b825a3355e8fa",
      "version": 1,
      "size": 135,
      "vsize": 135,
      "weight": 540,
      "locktime": 0,
      "vin": [
        {
          "coinbase": "04ffff001d028c00",
          "sequence": 4294967295
        }
      ],
      "vout": [
        {
          "value": 50.0,
          "n": 0,
          "scriptPubKey": {
            "asm": "043166cf2b99fb7e51018015611ebdfcf0c6f84dade0eb28758068d29568706838eee76799f3cb85823ed5bcb583502c2bbae3f48425dbf070740d6ec9ebd5842d OP_CHECKSIG",
            "desc": "pk(043166cf2b99fb7e51018015611ebdfcf0c6f84dade0eb28758068d29568706838eee76799f3cb85823ed5bcb583502c2bbae3f48425dbf070740d6ec9ebd5842d)#l6l3ksjw",
            "hex": "41043166cf2b99fb7e51018015611ebdfcf0c6f84dade0eb28758068d29568706838eee76799f3cb85823ed5bcb583502c2bbae3f48425dbf070740d6ec9ebd5842dac",
            "type": "pubkey"
          }
        }
      ],
      "hex": "01000000010000000000000000000000000000000000000000000000000000000000000000ffffffff0804ffff001d028c00ffffffff0100f2052a010000004341043166cf2b99fb7e51018015611ebdfcf0c6f84dade0eb28758068d29568706838eee76799f3cb85823ed5bcb583502c2bbae3f48425dbf070740d6ec9ebd5842dac00000000"
    }
  ]
}