{
  "hash": "00000000976df3c85530c4a7e7545405289688896dc75026c1c9c3d5d63d76df",
  "confirmations": 45498,
  "height": 7600,
  "version": 1,
  "versionHex": "00000001",
  "merkleroot": "a1de08f03c416172edf51b3259d92aaa135144edde0c0526961edf45876ae3f9",
  "time": 1237169025,
  "mediantime": 1237164464,
  "nonce": 854094121,
  "bits": "1d00ffff",
  "difficulty": 1,
  "chainwork": "00000000000000000000000000000000000000000000000000001db11db11db1",
  "nTx": 1,
  "previousblockhash": "00000000e34cad6133eadc8921bb32303f5bee8610a806311dd19c646c62a3b1",
  "nextblockhash": "00000000c8891dd7682afc1be593d084b2ac3f0d43427b307df172ba50bef104",
  "strippedsize": 216,
  "size": 216,
  "weight": 864,
  "tx": [
    {
      "txid": "a1de08f03c416172edf51b3259d92aaa135144edde0c0526961edf45876ae3f9",
      "hash": "a1de08f03c416172edf51b3259d92aaa135144edde0c0526961edf45876ae3f9",
      "version": 1,
      "size": 135,
      "vsize": 135,
      "weight": 540,
      "locktime": 0,
      "vin": [
        {
          "coinbase": "04ffff001d02a402",
          "sequence": 4294967295
        }
      ],
      "vout": [
        {
          "value": 50.0,
          "n": 0,
          "scriptPubKey": {
            "asm": "04808c45314de40fdce2eff98c8ecae0abd8cf017bd0354fede2835315124711b16d3e6ad00555b0b6d923056e1b0a74bd2be5ebacc23585f1b50fe2706f25c6a0 OP_CHECKSIG",
            "desc": "pk(04808c45314de40fdce2eff98c8ecae0abd8cf017bd0354fede2835315124711b16d3e6ad00555b0b6d923056e1b0a74bd2be5ebacc23585f1b50fe2706f25c6a0)#j33k22zy",
            "hex": "4104808c45314de40fdce2eff98c8ecae0abd8cf017bd0354fede2835315124711b16d3e6ad00555b0b6d923056e1b0a74bd2be5ebacc23585f1b50fe2706f25c6a0ac",
            "type": "pubkey"
          }
        }
      ],
      "hex": "01000000010000000000000000000000000000000000000000000000000000000000000000ffffffff0804ffff001d02a402ffffffff0100f2052a01000000434104808c45314de40fdce2eff98c8ecae0abd8cf017bd0354fede2835315124711b16d3e6ad00555b0b6d923056e1b0a74bd2be5ebacc23585f1b50fe2706f25c6a0ac00000000"
    }
  ]
}