{
  "hash": "0000000054c0a4d5ccaab1f63ce125c2d68119a13389f10f9ce62e5501b60fff",
  "confirmations": 48285,
  "height": 4813,
  "version": 1,
  "versionHex": "00000001",
  "merkleroot": "a3bee01ff1d3b5c9b4e0dd0adda2e42726adb0eca959fba565999ee19666414a",
  "time": 1235007916,
  "mediantime": 1235005096,
  "nonce": 1533331513,
  "bits": "1d00ffff",
  "difficulty": 1,
  "chainwork": "000000000000000000000000000000000000000000000000000012ce12ce12ce",
  "nTx": 1,
  "previousblockhash": "00000000ff2f292114bada4009503a5e8351e9587c82289c4d51499b79e0b80c",
  "nextblockhash": "00000000ddd01b6d8cc64c7cf2f2ef40a2a71d44114696ae5214c8d874b325ff",
  "strippedsize": 216,
  "size": 216,
  "weight": 864,
  "tx": [
    {
      "txid": "a3bee01ff1d3b5c9b4e0dd0adda2e42726adb0eca959fba565999ee19666414a",
      "hash": "a3bee01ff1d3b5c9b4e0dd0adda2e42726adb0eca959fba565999ee19666414a",
      "version": 1,
      "size": 135,
      "vsize": 135,
      "weight": 540,
      "locktime": 0,
      "vin": [
        {
          "coinbase": "04ffff001d029204",
          "sequence": 4294967295
        }
      ],
      "vout": [
        {
          "value": 50.0,
          "n": 0,
          "scriptPubKey": {
            "asm": "040ace7b366aac2aa5bea7c4f6d5e66a076d180e720b770442b4ee56fedcbfa95ebac8a9dbff1c357b957ceabf59aff65da42ff6035994f89f58cda6fd2b7b171d OP_CHECKSIG",
            "desc": "pk(040ace7b366aac2aa5bea7c4f6d5e66a076d180e720b770442b4ee56fedcbfa95ebac8a9dbff1c357b957ceabf59aff65da42ff6035994f89f58cda6fd2b7b171d)#h877u0nj",
            "hex": "41040ace7b366aac2aa5bea7c4f6d5e66a076d180e720b770442b4ee56fedcbfa95ebac8a9dbff1c357b957ceabf59aff65da42ff6035994f89f58cda6fd2b7b171dac",
            "type": "pubkey"
          }
        }
      ],
      "hex": "01000000010000000000000000000000000000000000000000000000000000000000000000ffffffff0804ffff001d029204ffffffff0100f2052a010000004341040ace7b366aac2aa5bea7c4f6d5e66a076d180e720b770442b4ee56fedcbfa95ebac8a9dbff1c357b957ceabf59aff65da42ff6035994f89f58cda6fd2b7b171dac00000000"
    }
  ]
}