{
  "hash": "0000000000a4d1bff90f29495e4c45d96609dcdc278264511d90e5f1602034d5",
  "confirmations": 51617,
  "height": 1481,
  "version": 1,
  "versionHex": "00000001",
  "merkleroot": "8c020d7a8fa29791b991ca0d3d11986835107e686484aaba3e7cf84b0566dc91",
  "time": 1232759294,
  "mediantime": 1232757937,
  "nonce": 189995311,
  "bits": "1d00ffff",
  "difficulty": 1,
  "chainwork": "000000000000000000000000000000000000000000000000000005ca05ca05ca",
  "nTx": 1,
  "previousblockhash": "000000009d0fa2b877d57be5825026b4c2a570fab8f8bccf9aa718f9090d5747",
  "nextblockhash": "00000000fa1547e48cef5ec9988b7c847805dffe71d3c282392c72835e4f8300",
  "strippedsize": 216,
  "size": 216,
  "weight": 864,
  "tx": [
    {
      "txid": "8c020d7a8fa29791b991ca0d3d11986835107e686484aaba3e7cf84b0566dc91",
      "hash": "8c020d7a8fa29791b991ca0d3d11986835107e686484aaba3e7cf84b0566dc91",
      "version": 1,
      "size": 135,
      "vsize": 135,
      "weight": 540,
      "locktime": 0,
      "vin": [
        {
          "coinbase": "04ffff001d02ed00",
          "sequence": 4294967295
        }
      ],
      "vout": [
        {
          "value": 50.0,
          "n": 0,
          "scriptPubKey": {
            "asm": "04de8a0e2a6cb5ebacbe2daa43bc361c0dfcc05a36359c3726e4a39bf47bd093e29724af59cdd055c530408b1cd48317f599b8f4a62ac180baf7156dee5238ee9a OP_CHECKSIG",
            "desc": "pk(04de8a0e2a6cb5ebacbe2daa43bc361c0dfcc05a36359c3726e4a39bf47bd093e29724af59cdd055c530408b1cd48317f599b8f4a62ac180baf7156dee5238ee9a)#shckwh29",
            "hex": "4104de8a0e2a6cb5ebacbe2daa43bc361c0dfcc05a36359c3726e4a39bf47bd093e29724af59cdd055c530408b1cd48317f599b8f4a62ac180baf7156dee5238ee9aac",
            "type": "pubkey"
          }
        }
      ],
      "hex": "01000000010000000000000000000000000000000000000000000000000000000000000000ffffffff0804ffff001d02ed00ffffffff0100f2052a01000000434104de8a0e2a6cb5ebacbe2daa43bc361c0dfcc05a36359c3726e4a39bf47bd093e29724af59cdd055c530408b1cd48317f599b8f4a62ac180baf7156dee5238ee9aac00000000"
    }
  ]
}