{
  "hash": "00000000e6a38b6f334f7c43e4e17dff29226d894be3eff2782f82e73598a0a5",
  "confirmations": 51994,
  "height": 1104,
  "version": 1,
  "versionHex": "00000001",
  "merkleroot": "46c55522a162e8a1303f4668a44b7882f213b2dbe11c95836b79ec1865f819ba",
  "time": 1232426395,
  "mediantime": 1232423197,
  "nonce": 3874996482,
  "bits": "1d00ffff",
  "difficulty": 1,
  "chainwork": "0000000000000000000000000000000000000000000000000000045104510451",
  "nTx": 1,
  "previousblockhash": "00000000a46280322a5e34342d7cbe4c9709e1e99ddc522da0713459e5045c3c",
  "nextblockhash": "000000003c8ec78460726c22b802a30ce7a8c0c5030a1dd2f1e39e25a3a015ea",
  "strippedsize": 216,
  "size": 216,
  "weight": 864,
  "tx": [
    {
      "txid": "46c55522a162e8a1303f4668a44b7882f213b2dbe11c95836b79ec1865f819ba",
      "hash": "46c55522a162e8a1303f4668a44b7882f213b2dbe11c95836b79ec1865f819ba",
      "version": 1,
      "size": 135,
      "vsize": 135,
      "weight": 540,
      "locktime": 0,
      "vin": [
        {
          "coinbase": "04ffff001d022907",
          "sequence": 4294967295
        }
      ],
      "vout": [
        {
          "value": 50.0,
          "n": 0,
          "scriptPubKey": {
            "asm": "04df7b4f089a9a6a47ba5a7a0fe75a7afdfc2f8366badf19f338f3371413677131344465546b00900d278e6110e2d98635edeca01d56fc69ddba275b95fbe8bdbb OP_CHECKSIG",
            "desc": "pk(04df7b4f089a9a6a47ba5a7a0fe75a7afdfc2f8366badf19f338f3371413677131344465546b00900d278e6110e2d98635edeca01d56fc69ddba275b95fbe8bdbb)#39jxg7eg",
            "hex": "4104df7b4f089a9a6a47ba5a7a0fe75a7afdfc2f8366badf19f338f3371413677131344465546b00900d278e6110e2d98635edeca01d56fc69ddba275b95fbe8bdbbac",
            "type": "pubkey"
          }
        }
      ],
      "hex": "01000000010000000000000000000000000000000000000000000000000000000000000000ffffffff0804ffff001d022907ffffffff0100f2052a01000000434104df7b4f089a9a6a47ba5a7a0fe75a7afdfc2f8366badf19f338f3371413677131344465546b00900d278e6110e2d98635edeca01d56fc69ddba275b95fbe8bdbbac00000000"
    }
  ]
}