{
  "hash": "00000000083465d97c0b52a0045c2cffaf0749c8220a952929aa46510bcf8e02",
  "confirmations": 47169,
  "height": 5929,
  "version": 1,
  "versionHex": "00000001",
  "merkleroot": "987b66e49021832c9cb32cd8d6ba470177dd1d769c7ddac99e68a4d9383e54c6",
  "time": 1235870027,
  "mediantime": 1235866515,
  "nonce": 694523140,
  "bits": "1d00ffff",
  "difficulty": 1,
  "chainwork": "0000000000000000000000000000000000000000000000000000172a172a172a",
  "nTx": 1,
  "previousblockhash": "0000000032f2da95534b162bf1168fb7e69921fcd03e241488698045a2f27e7e",
  "nextblockhash": "000000009c8e1a859cba27443d5945a7f15553bd9f3067357695dad0850f88c4",
  "strippedsize": 216,
  "size": 216,
  "weight": 864,
  "tx": [
    {
      "txid": "987b66e49021832c9cb32cd8d6ba470177dd1d769c7ddac99e68a4d9383e54c6",
      "hash": "987b66e49021832c9cb32cd8d6ba470177dd1d769c7ddac99e68a4d9383e54c6",
      "version": 1,
      "size": 135,
      "vsize": 135,
      "weight": 540,
      "locktime": 0,
      "vin": [
        {
          "coinbase": "04ffff001d02a503",
          "sequence": 4294967295
        }
      ],
      "vout": [
        {
          "value": 50.0,
          "n": 0,
          "scriptPubKey": {
            "asm": "04af9a793558392b4e7c0dfdca425e631b42908f4ac3c9996e2599fcb179a310cdbe753d7fcdc090047ae7ab4f1e857d4af2f207d1e7f7e1c1d0f211d478120255 OP_CHECKSIG",
            "desc": "pk(04af9a793558392b4e7c0dfdca425e631b42908f4ac3c9996e2599fcb179a310cdbe753d7fcdc090047ae7ab4f1e857d4af2f207d1e7f7e1c1d0f211d478120255)#4erj9x96",
            "hex": "4104af9a793558392b4e7c0dfdca425e631b42908f4ac3c9996e2599fcb179a310cdbe753d7fcdc090047ae7ab4f1e857d4af2f207d1e7f7e1c1d0f211d478120255ac",
            "type": "pubkey"
          }
        }
      ],
      "hex": "01000000010000000000000000000000000000000000000000000000000000000000000000ffffffff0804ffff001d02a503ffffffff0100f2052a01000000434104af9a793558392b4e7c0dfdca425e631b42908f4ac3c9996e2599fcb179a310cdbe753d7fcdc090047ae7ab4f1e857d4af2f207d1e7f7e1c1d0f211d478120255ac00000000"
    }
  ]
}