{
  "hash": "000000002d9af58ffb34e9f64fd800380506a575c53476fe65b806acee7d5e9c",
  "confirmations": 50813,
  "height": 2285,
  "version": 1,
  "versionHex": "00000001",
  "merkleroot": "926ea7c24b207728d612adb72c1416e18e0b7209e1dfcceeab81aa08af4a26f1",
  "time": 1233270775,
  "mediantime": 1233266962,
  "nonce": 1029171494,
  "bits": "1d00ffff",
  "difficulty": 1,
  "chainwork": "000000000000000000000000000000000000000000000000000008ee08ee08ee",
  "nTx": 1,
  "previousblockhash": "000000007f4d5878b1965c46df374dc15b6f002a1f84a3d1aeaddf119b39fef6",
  "nextblockhash": "000000001e77447f842ce3058379840fcff6a670567eda1a8f88186ef018b753",
  "strippedsize": 216,
  "size": 216,
  "weight": 864,
  "tx": [
    {
      "txid": "926ea7c24b207728d612adb72c1416e18e0b7209e1dfcceeab81aa08af4a26f1",
      "hash": "926ea7c24b207728d612adb72c1416e18e0b7209e1dfcceeab81aa08af4a26f1",
      "version": 1,
      "size": 135,
      "vsize": 135,
      "weight": 540,
      "locktime": 0,
      "vin": [
        {
          "coinbase": "04ffff001d027e01",
          "sequence": 4294967295
        }
      ],
      "vout": [
        {
          "value": 50.0,
          "n": 0,
          "scriptPubKey": {
            "asm": "04a5a7acdb4f035e7c6cedb13c98c193540fda3fd5d9ba7d409e998d52da09b26b0caf5b15612473f9534f7d68f1e497c3ea2b227e0224d033eda1a0008467ee49 OP_CHECKSIG",
            "desc": "pk(04a5a7acdb4f035e7c6cedb13c98c193540fda3fd5d9ba7d409e998d52da09b26b0caf5b15612473f9534f7d68f1e497c3ea2b227e0224d033eda1a0008467ee49)#y964khwt",
            "hex": "4104a5a7acdb4f035e7c6cedb13c98c193540fda3fd5d9ba7d409e998d52da09b26b0caf5b15612473f9534f7d68f1e497c3ea2b227e0224d033eda1a0008467ee49ac",
            "type": "pubkey"
          }
        }
      ],
      "hex": "01000000010000000000000000000000000000000000000000000000000000000000000000ffffffff0804ffff001d027e01ffffffff0100f2052a01000000434104a5a7acdb4f035e7c6cedb13c98c193540fda3fd5d9ba7d409e998d52da09b26b0caf5b15612473f9534f7d68f1e497c3ea2b227e0224d033eda1a0008467ee49ac00000000"
    }
  ]
}