{
  "hash": "00000000b611152167c88d65f482667580c64041ef92b8224811260f70f42fb1",
  "confirmations": 44943,
  "height": 8155,
  "version": 1,
  "versionHex": "00000001",
  "merkleroot": "26a4931967cd37adc947b511d8ac2d66fda676ebd01edcbba942c61ed233ab73",
  "time": 1237576178,
  "mediantime": 1237574048,
  "nonce": 1564452656,
  "bits": "1d00ffff",
  "difficulty": 1,
  "chainwork": "00000000000000000000000000000000000000000000000000001fdc1fdc1fdc",
  "nTx": 1,
  "previousblockhash": "0000000052f267644d3dc38d7f066b8aec0823062211ab1e2e22ea61849adace",
  "nextblockhash": "000000004a0becb8491740bfce48520ef85de9af29e10fca28f72c4b9b988643",
  "strippedsize": 216,
  "size": 216,
  "weight": 864,
  "tx": [
    {
      "txid": "26a4931967cd37adc947b511d8ac2d66fda676ebd01edcbba942c61ed233ab73",
      "hash": "26a4931967cd37adc947b511d8ac2d66fda676ebd01edcbba942c61ed233ab73",
      "version": 1,
      "size": 135,
      "vsize": 135,
      "weight": 540,
      "locktime": 0,
      "vin": [
        {
          "coinbase": "04ffff001d020b02",
          "sequence": 4294967295
        }
      ],
      "vout": [
        {
          "value": 50.0,
          "n": 0,
          "scriptPubKey": {
            "asm": "04b551c0b570a4fda1e9dc213a9bc1b5bbe090750e7fea6307f7bf7f2fc16d4227c81426756f1d748b8b53caa82131b6ce47e5f6a11b74736d629d519934f1f796 OP_CHECKSIG",
            "desc": "pk(04b551c0b570a4fda1e9dc213a9bc1b5bbe090750e7fea6307f7bf7f2fc16d4227c81426756f1d748b8b53caa82131b6ce47e5f6a11b74736d629d519934f1f796)#e5fd5pax",
            "hex": "4104b551c0b570a4fda1e9dc213a9bc1b5bbe090750e7fea6307f7bf7f2fc16d4227c81426756f1d748b8b53caa82131b6ce47e5f6a11b74736d629d519934f1f796ac",
            "type": "pubkey"
          }
        }
      ],
      "hex": "01000000010000000000000000000000000000000000000000000000000000000000000000ffffffff0804ffff001d020b02ffffffff0100f2052a01000000434104b551c0b570a4fda1e9dc213a9bc1b5bbe090750e7fea6307f7bf7f2fc16d4227c81426756f1d748b8b53caa82131b6ce47e5f6a11b74736d629d519934f1f796ac00000000"
    }
  ]
}