{
  "hash": "000000007a2d56a9d355b09fa261bfa1d61fda45556cecf0754e524c0eede832",
  "confirmations": 50531,
  "height": 2567,
  "version": 1,
  "versionHex": "00000001",
  "merkleroot": "9659f10f282484a93d38657ec17e6743c77e460904a640cf38f0b78baa5cc11a",
  "time": 1233467474,
  "mediantime": 1233463596,
  "nonce": 1341724725,
  "bits": "1d00ffff",
  "difficulty": 1,
  "chainwork": "00000000000000000000000000000000000000000000000000000a080a080a08",
  "nTx": 1,
  "previousblockhash": "00000000e0698902e81680ce3a1d4de8c1092c6e270fe78ed182f668ffcb7033",
  "nextblockhash": "00000000c646ac3bad5d736d63a0bb4b7b07323414a0aa2f7ed4da48448c6bc1",
  "strippedsize": 216,
  "size": 216,
  "weight": 864,
  "tx": [
    {
      "txid": "9659f10f282484a93d38657ec17e6743c77e460904a640cf38f0b78baa5cc11a",
      "hash": "9659f10f282484a93d38657ec17e6743c77e460904a640cf38f0b78baa5cc11a",
      "version": 1,
      "size": 135,
      "vsize": 135,
      "weight": 540,
      "locktime": 0,
      "vin": [
        {
          "coinbase": "04ffff001d025002",
          "sequence": 4294967295
        }
      ],
      "vout": [
        {
          "value": 50.0,
          "n": 0,
          "scriptPubKey": {
            "asm": "04a1a8098fd3458a35289ed581beab7dd97054fb80fd4571bcb910fcbdeba24e18ccf2c6ff74f8ed4dfe9da68c487cfc1ef0170a69b01a5f011afb0c56121c68be OP_CHECKSIG",
            "desc": "pk(04a1a8098fd3458a35289ed581beab7dd97054fb80fd4571bcb910fcbdeba24e18ccf2c6ff74f8ed4dfe9da68c487cfc1ef0170a69b01a5f011afb0c56121c68be)#gs4qzf2t",
            "hex": "4104a1a8098fd3458a35289ed581beab7dd97054fb80fd4571bcb910fcbdeba24e18ccf2c6ff74f8ed4dfe9da68c487cfc1ef0170a69b01a5f011afb0c56121c68beac",
            "type": "pubkey"
          }
        }
      ],
      "hex": "01000000010000000000000000000000000000000000000000000000000000000000000000ffffffff0804ffff001d025002ffffffff0100f2052a01000000434104a1a8098fd3458a35289ed581beab7dd97054fb80fd4571bcb910fcbdeba24e18ccf2c6ff74f8ed4dfe9da68c487cfc1ef0170a69b01a5f011afb0c56121c68beac00000000"
    }
  ]
}