{
  "hash": "000000002b4467a597c262e404848237c9a7aa92d59ab9d2ba9568e537cf60f0",
  "confirmations": 45550,
  "height": 7548,
  "version": 1,
  "versionHex": "00000001",
  "merkleroot": "6d44ac7945f70e7dce12b905a96784b9966c04144c4cdd35b5d28a39b5e6be3b",
  "time": 1237134444,
  "mediantime": 1237131407,
  "nonce": 4045021989,
  "bits": "1d00ffff",
  "difficulty": 1,
  "chainwork": "00000000000000000000000000000000000000000000000000001d7d1d7d1d7d",
  "nTx": 1,
  "previousblockhash": "000000009984e4307136cbe38d1fbb6ff078f63e7269d9bd0bc73309be3cd202",
  "nextblockhash": "0000000057842005e176a8bef2bd36adcf8429afd370194d23736d192467ba0f",
  "strippedsize": 216,
  "size": 216,
  "weight": 864,
  "tx": [
    {
      "txid": "6d44ac7945f70e7dce12b905a96784b9966c04144c4cdd35b5d28a39b5e6be3b",
      "hash": "6d44ac7945f70e7dce12b905a96784b9966c04144c4cdd35b5d28a39b5e6be3b",
      "version": 1,
      "size": 135,
      "vsize": 135,
      "weight": 540,
      "locktime": 0,
      "vin": [
        {
          "coinbase": "04ffff001d02e301",
          "sequence": 4294967295
        }
      ],
      "vout": [
        {
          "value": 50.0,
          "n": 0,
          "scriptPubKey": {
            "asm": "046cbe0ca106ab3e27e61c7d0593703d75b41864f97a3cb29ee9d94638d7da13941b7e57e5ef6ba251c384db88b6d69a39d1eb789f647729f62df6a426c286be69 OP_CHECKSIG",
            "desc": "pk(046cbe0ca106ab3e27e61c7d0593703d75b41864f97a3cb29ee9d94638d7da13941b7e57e5ef6ba251c384db88b6d69a39d1eb789f647729f62df6a426c286be69)#aquaw7ww",
            "hex": "41046cbe0ca106ab3e27e61c7d0593703d75b41864f97a3cb29ee9d94638d7da13941b7e57e5ef6ba251c384db88b6d69a39d1eb789f647729f62df6a426c286be69ac",
            "type": "pubkey"
          }
        }
      ],
      "hex": "01000000010000000000000000000000000000000000000000000000000000000000000000ffffffff0804ffff001d02e301ffffffff0100f2052a010000004341046cbe0ca106ab3e27e61c7d0593703d75b41864f97a3cb29ee9d94638d7da13941b7e57e5ef6ba251c384db88b6d69a39d1eb789f647729f62df6a426c286be69ac00000000"
    }
  ]
}