{
  "hash": "00000000b9843963d096355d50d6f0cf0d04b56ee92d34cd1d3daf7c1943b2c8",
  "confirmations": 43742,
  "height": 9356,
  "version": 1,
  "versionHex": "00000001",
  "merkleroot": "915db6166e2448babda1cb702d7507555d9e73014554212b6be495585b1eb7ff",
  "time": 1238516480,
  "mediantime": 1238512551,
  "nonce": 280708136,
  "bits": "1d00ffff",
  "difficulty": 1,
  "chainwork": "0000000000000000000000000000000000000000000000000000248d248d248d",
  "nTx": 1,
  "previousblockhash": "0000000019bd4f2e72c7e4316eba628ed6b1ec2ab6fba718030518fc8969ed99",
  "nextblockhash": "00000000b7c37ebcca8672e12da0dfaebbc6f8808ce57e5fff7123259d51d644",
  "strippedsize": 216,
  "size": 216,
  "weight": 864,
  "tx": [
    {
      "txid": "915db6166e2448babda1cb702d7507555d9e73014554212b6be495585b1eb7ff",
      "hash": "915db6166e2448babda1cb702d7507555d9e73014554212b6be495585b1eb7ff",
      "version": 1,
      "size": 135,
      "vsize": 135,
      "weight": 540,
      "locktime": 0,
      "vin": [
        {
          "coinbase": "04ffff001d02b102",
          "sequence": 4294967295
        }
      ],
      "vout": [
        {
          "value": 50.0,
          "n": 0,
          "scriptPubKey": {
            "asm": "04b5484cb3dc59573d37e6b9eb1c5f449d5d44116db9a5392188fe71bdbda0926a016b241e58159ab4922a0eb5315a565163de09f8073cff27e16931af4a4c34fc OP_CHECKSIG",
            "desc": "pk(04b5484cb3dc59573d37e6b9eb1c5f449d5d44116db9a5392188fe71bdbda0926a016b241e58159ab4922a0eb5315a565163de09f8073cff27e16931af4a4c34fc)#dqzdg34e",
            "hex": "4104b5484cb3dc59573d37e6b9eb1c5f449d5d44116db9a5392188fe71bdbda0926a016b241e58159ab4922a0eb5315a565163de09f8073cff27e16931af4a4c34fcac",
            "type": "pubkey"
          }
        }
      ],
      "hex": "01000000010000000000000000000000000000000000000000000000000000000000000000ffffffff0804ffff001d02b102ffffffff0100f2052a01000000434104b5484cb3dc59573d37e6b9eb1c5f449d5d44116db9a5392188fe71bdbda0926a016b241e58159ab4922a0eb5315a565163de09f8073cff27e16931af4a4c34fcac00000000"
    }
  ]
}