{
  "hash": "000000002baa152b060801b0a83905815ff991d60ae1c0faaf48f0f8ca5ff40f",
  "confirmations": 51805,
  "height": 1293,
  "version": 1,
  "versionHex": "00000001",
  "merkleroot": "80d53751d0b56e0f92b47f3e012237ce27abf2101c812c2d668cdce52068d70f",
  "time": 1232569600,
  "mediantime": 1232566050,
  "nonce": 2649444396,
  "bits": "1d00ffff",
  "difficulty": 1,
  "chainwork": "0000000000000000000000000000000000000000000000000000050e050e050e",
  "nTx": 1,
  "previousblockhash": "00000000ecd009c870b313e354ca121ca8dacd96c2921f218822a9909d32690e",
  "nextblockhash": "00000000f6cb6b1aa75b3edd4d9eabd6866bff3442e25473280c334f238a57cf",
  "strippedsize": 216,
  "size": 216,
  "weight": 864,
  "tx": [
    {
      "txid": "80d53751d0b56e0f92b47f3e012237ce27abf2101c812c2d668cdce52068d70f",
      "hash": "80d53751d0b56e0f92b47f3e012237ce27abf2101c812c2d668cdce52068d70f",
      "version": 1,
      "size": 135,
      "vsize": 135,
      "weight": 540,
      "locktime": 0,
      "vin": [
        {
          "coinbase": "04ffff001d02320a",
          "sequence": 4294967295
        }
      ],
      "vout": [
        {
          "value": 50.0,
          "n": 0,
          "scriptPubKey": {
            "asm": "044f59be9ca20a7402e6f60f35594d8a34545b824ae48b03f1dde34fcf4759059acf2cc2802b1fd95b2fede521eb753105f05d8ea3850bce64a7a4e31c2c4b65d6 OP_CHECKSIG",
            "desc": "pk(044f59be9ca20a7402e6f60f35594d8a34545b824ae48b03f1dde34fcf4759059acf2cc2802b1fd95b2fede521eb753105f05d8ea3850bce64a7a4e31c2c4b65d6)#yzdz05ya",
            "hex": "41044f59be9ca20a7402e6f60f35594d8a34545b824ae48b03f1dde34fcf4759059acf2cc2802b1fd95b2fede521eb753105f05d8ea3850bce64a7a4e31c2c4b65d6ac",
            "type": "pubkey"
          }
        }
      ],
      "hex": "01000000010000000000000000000000000000000000000000000000000000000000000000ffffffff0804ffff001d02320affffffff0100f2052a010000004341044f59be9ca20a7402e6f60f35594d8a34545b824ae48b03f1dde34fcf4759059acf2cc2802b1fd95b2fede521eb753105f05d8ea3850bce64a7a4e31c2c4b65d6ac00000000"
    }
  ]
}