{
  "hash": "0000000026877aca2e4a930e8a232865f1f4259b4e6305b24ff9af3e187ae0ba",
  "confirmations": 44071,
  "height": 9027,
  "version": 1,
  "versionHex": "00000001",
  "merkleroot": "43f39b19e23cdbb5f01902f446d5600a85a5d9bb7c34af8daa85d64ddb131097",
  "time": 1238271705,
  "mediantime": 1238268366,
  "nonce": 1578217759,
  "bits": "1d00ffff",
  "difficulty": 1,
  "chainwork": "0000000000000000000000000000000000000000000000000000234423442344",
  "nTx": 1,
  "previousblockhash": "0000000078e21b4a78a238207f0994ce13f7678448aa10e55a47a6529391ecfd",
  "nextblockhash": "00000000b9fb4b453338bcfe77c0ab3cd342bd24ea0c6f38724c755e8479a525",
  "strippedsize": 216,
  "size": 216,
  "weight": 864,
  "tx": [
    {
      "txid": "43f39b19e23cdbb5f01902f446d5600a85a5d9bb7c34af8daa85d64ddb131097",
      "hash": "43f39b19e23cdbb5f01902f446d5600a85a5d9bb7c34af8daa85d64ddb131097",
      "version": 1,
      "size": 135,
      "vsize": 135,
      "weight": 540,
      "locktime": 0,
      "vin": [
        {
          "coinbase": "04ffff001d02d106",
          "sequence": 4294967295
        }
      ],
      "vout": [
        {
          "value": 50.0,
          "n": 0,
          "scriptPubKey": {
            "asm": "0457aeb9ca1188b20154168c68f0fec5d6e716efaf15940395883b360e1ae5bc6101edccda961ceef5ef8fb3db469bfaa8a3a199b8787a2dd057e8a85c66a36d50 OP_CHECKSIG",
            "desc": "pk(0457aeb9ca1188b20154168c68f0fec5d6e716efaf15940395883b360e1ae5bc6101edccda961ceef5ef8fb3db469bfaa8a3a199b8787a2dd057e8a85c66a36d50)#2d7fpqmu",
            "hex": "410457aeb9ca1188b20154168c68f0fec5d6e716efaf15940395883b360e1ae5bc6101edccda961ceef5ef8fb3db469bfaa8a3a199b8787a2dd057e8a85c66a36d50ac",
            "type": "pubkey"
          }
        }
      ],
      "hex": "01000000010000000000000000000000000000000000000000000000000000000000000000ffffffff0804ffff001d02d106ffffffff0100f2052a0100000043410457aeb9ca1188b20154168c68f0fec5d6e716efaf15940395883b360e1ae5bc6101edccda961ceef5ef8fb3db469bfaa8a3a199b8787a2dd057e8a85c66a36d50ac00000000"
    }
  ]
}