{
  "hash": "000000000fb6035db81d019f7ffbc2e6fdc308a2c9c428e62b8d90fd7d3ac2c3",
  "confirmations": 46268,
  "height": 6830,
  "version": 1,
  "versionHex": "00000001",
  "merkleroot": "4346a1bf2168ee57ada4d0c1d70a96ec108c25d058fea1be58f40aeb8c2493ea",
  "time": 1236579930,
  "mediantime": 1236576426,
  "nonce": 3409003829,
  "bits": "1d00ffff",
  "difficulty": 1,
  "chainwork": "00000000000000000000000000000000000000000000000000001aaf1aaf1aaf",
  "nTx": 1,
  "previousblockhash": "00000000697c65060180ec39d4035e4a6740e78eded04c7f140e09832f91510a",
  "nextblockhash": "0000000045a2fc575bc2bcfc864763f5906e2024702b840ddc63713b3db28178",
  "strippedsize": 216,
  "size": 216,
  "weight": 864,
  "tx": [
    {
      "txid": "4346a1bf2168ee57ada4d0c1d70a96ec108c25d058fea1be58f40aeb8c2493ea",
      "hash": "4346a1bf2168ee57ada4d0c1d70a96ec108c25d058fea1be58f40aeb8c2493ea",
      "version": 1,
      "size": 135,
      "vsize": 135,
      "weight": 540,
      "locktime": 0,
      "vin": [
        {
          "coinbase": "04ffff001d026b09",
          "sequence": 4294967295
        }
      ],
      "vout": [
        {
          "value": 50.0,
          "n": 0,
          "scriptPubKey": {
            "asm": "047da7121c0da8bc4fda5522ede1397d9632f319d548a40e8aad8ff4e152290763503e0c46799dbd2bd7ffb1acd92b8e3afa7c49a392f4501262c60d7f6d720be3 OP_CHECKSIG",
            "desc": "pk(047da7121c0da8bc4fda5522ede1397d9632f319d548a40e8aad8ff4e152290763503e0c46799dbd2bd7ffb1acd92b8e3afa7c49a392f4501262c60d7f6d720be3)#0ppljcy3",
            "hex": "41047da7121c0da8bc4fda5522ede1397d9632f319d548a40e8aad8ff4e152290763503e0c46799dbd2bd7ffb1acd92b8e3afa7c49a392f4501262c60d7f6d720be3ac",
            "type": "pubkey"
          }
        }
      ],
      "hex": "01000000010000000000000000000000000000000000000000000000000000000000000000ffffffff0804ffff001d026b09ffffffff0100f2052a010000004341047da7121c0da8bc4fda5522ede1397d9632f319d548a40e8aad8ff4e152290763503e0c46799dbd2bd7ffb1acd92b8e3afa7c49a392f4501262c60d7f6d720be3ac00000000"
    }
  ]
}