{
  "hash": "0000000020b23d4bcb733afc7c28ad9eff58e1f8108a15bfd8477cbdcb9bf3a0",
  "confirmations": 52203,
  "height": 490,
  "version": 1,
  "versionHex": "00000001",
  "merkleroot": "54d5c9c1d183a33f02d77f7a3c92a640d1721227c8ca476489bdd0b9b81ea3ae",
  "time": 1231962298,
  "mediantime": 1231958995,
  "nonce": 12258726,
  "bits": "1d00ffff",
  "difficulty": 1,
  "chainwork": "000000000000000000000000000000000000000000000000000001eb01eb01eb",
  "nTx": 1,
  "previousblockhash": "000000007f20688b2b5c654489c4d3b69196eba0129a364f89b97ae8e4cb0e33",
  "nextblockhash": "00000000244c1b0da1196b989d7557168c5e1b4253f253f2aa8bffd05c7f67b4",
  "strippedsize": 216,
  "size": 216,
  "weight": 864,
  "tx": [
    {
      "txid": "54d5c9c1d183a33f02d77f7a3c92a640d1721227c8ca476489bdd0b9b81ea3ae",
      "hash": "54d5c9c1d183a33f02d77f7a3c92a640d1721227c8ca476489bdd0b9b81ea3ae",
      "version": 1,
      "size": 135,
      "vsize": 135,
      "weight": 540,
      "locktime": 0,
      "vin": [
        {
          "coinbase": "04ffff001d028500",
          "sequence": 4294967295
        }
      ],
      "vout": [
        {
          "value": 50.0,
          "n": 0,
          "scriptPubKey": {
            "asm": "04474286499a8e856b36ad2f397d4dd2ebddc94ceb49c9d80515c747aa46e592378acfbfb6ebde508c8958542d5510e3c8e55e3c4cf0536b2722235d1238951b2d OP_CHECKSIG",
            "desc": "pk(04474286499a8e856b36ad2f397d4dd2ebddc94ceb49c9d80515c747aa46e592378acfbfb6ebde508c8958542d5510e3c8e55e3c4cf0536b2722235d1238951b2d)#6jmn5f74",
            "hex": "4104474286499a8e856b36ad2f397d4dd2ebddc94ceb49c9d80515c747aa46e592378acfbfb6ebde508c8958542d5510e3c8e55e3c4cf0536b2722235d1238951b2dac",
            "type": "pubkey"
          }
        }
      ],
      "hex": "01000000010000000000000000000000000000000000000000000000000000000000000000ffffffff0804ffff001d028500ffffffff0100f2052a01000000434104474286499a8e856b36ad2f397d4dd2ebddc94ceb49c9d80515c747aa46e592378acfbfb6ebde508c8958542d5510e3c8e55e3c4cf0536b2722235d1238951b2dac00000000"
    }
  ]
}