{
  "hash": "00000000ef796e6b802f79520d9d13ba41987733459d5fca01e9ed70ff2c1e72",
  "confirmations": 50957,
  "height": 2141,
  "version": 1,
  "versionHex": "00000001",
  "merkleroot": "7b59d3ccb7390101add6aabaf0c81f44b9efa3416d16d2f05e96aa39693b99a4",
  "time": 1233169885,
  "mediantime": 1233164141,
  "nonce": 1675654447,
  "bits": "1d00ffff",
  "difficulty": 1,
  "chainwork": "0000000000000000000000000000000000000000000000000000085e085e085e",
  "nTx": 1,
  "previousblockhash": "00000000c3cae15259d830f55cd7683081d30dac174f808dcf6f2bdb57914d3b",
  "nextblockhash": "000000005d4a5902a4b909926739a348f7789b6d7b24a9623c3364ea7e5ceeed",
  "strippedsize": 215,
  "size": 215,
  "weight": 860,
  "tx": [
    {
      "txid": "7b59d3ccb7390101add6aabaf0c81f44b9efa3416d16d2f05e96aa39693b99a4",
      "hash": "7b59d3ccb7390101add6aabaf0c81f44b9efa3416d16d2f05e96aa39693b99a4",
      "version": 1,
      "size": 134,
      "vsize": 134,
      "weight": 536,
      "locktime": 0,
      "vin": [
        {
          "coinbase": "04ffff001d0128",
          "sequence": 4294967295
        }
      ],
      "vout": [
        {
          "value": 50.0,
          "n": 0,
          "scriptPubKey": {
            "asm": "0414ef0c43e075c892abd7919e732ad674db51e42a3fce48432c7f65d8ce45cb44fe7f09fa851178e211007ba18d3ab5a31c3ee194af0b8c0bca5a7b8953fe4042 OP_CHECKSIG",
            "desc": "pk(0414ef0c43e075c892abd7919e732ad674db51e42a3fce48432c7f65d8ce45cb44fe7f09fa851178e211007ba18d3ab5a31c3ee194af0b8c0bca5a7b8953fe4042)#vmxld64y",
            "hex": "410414ef0c43e075c892abd7919e732ad674db51e42a3fce48432c7f65d8ce45cb44fe7f09fa851178e211007ba18d3ab5a31c3ee194af0b8c0bca5a7b8953fe4042ac",
            "type": "pubkey"
          }
        }
      ],
      "hex": "01000000010000000000000000000000000000000000000000000000000000000000000000ffffffff0704ffff001d0128ffffffff0100f2052a0100000043410414ef0c43e075c892abd7919e732ad674db51e42a3fce48432c7f65d8ce45cb44fe7f09fa851178e211007ba18d3ab5a31c3ee194af0b8c0bca5a7b8953fe4042ac00000000"
    }
  ]
}