{
  "hash": "00000000f74ecc436b0bc320697f99ce120f604bf91eeef3f0e3500b034d9235",
  "confirmations": 51791,
  "height": 1307,
  "version": 1,
  "versionHex": "00000001",
  "merkleroot": "b44ebe26d0290d53d58a40a83711731734f5392e3e5b4e1e1ea26469a107fd42",
  "time": 1232600439,
  "mediantime": 1232595648,
  "nonce": 698065707,
  "bits": "1d00ffff",
  "difficulty": 1,
  "chainwork": "0000000000000000000000000000000000000000000000000000051c051c051c",
  "nTx": 1,
  "previousblockhash": "00000000eeacdce37f856438d78a587e9b60058998116f3201cb817b78d702e5",
  "nextblockhash": "00000000379d51e5d7d42d63830cec26e61b18261f10943c5447bfa92b596e5a",
  "strippedsize": 215,
  "size": 215,
  "weight": 860,
  "tx": [
    {
      "txid": "b44ebe26d0290d53d58a40a83711731734f5392e3e5b4e1e1ea26469a107fd42",
      "hash": "b44ebe26d0290d53d58a40a83711731734f5392e3e5b4e1e1ea26469a107fd42",
      "version": 1,
      "size": 134,
      "vsize": 134,
      "weight": 536,
      "locktime": 0,
      "vin": [
        {
          "coinbase": "04ffff001d0146",
          "sequence": 4294967295
        }
      ],
      "vout": [
        {
          "value": 50.0,
          "n": 0,
          "scriptPubKey": {
            "asm": "04b0d7a11fdba9962ed1a49dd17e7cac8921e9bebbd068d63e6df93a0176ae693429f4e04115c27e88d91453d94d76050755d5c69cd9eb1c951bd105f88d0afa2e OP_CHECKSIG",
            "desc": "pk(04b0d7a11fdba9962ed1a49dd17e7cac8921e9bebbd068d63e6df93a0176ae693429f4e04115c27e88d91453d94d76050755d5c69cd9eb1c951bd105f88d0afa2e)#72zvyq4w",
            "hex": "4104b0d7a11fdba9962ed1a49dd17e7cac8921e9bebbd068d63e6df93a0176ae693429f4e04115c27e88d91453d94d76050755d5c69cd9eb1c951bd105f88d0afa2eac",
            "type": "pubkey"
          }
        }
      ],
      "hex": "01000000010000000000000000000000000000000000000000000000000000000000000000ffffffff0704ffff001d0146ffffffff0100f2052a01000000434104b0d7a11fdba9962ed1a49dd17e7cac8921e9bebbd068d63e6df93a0176ae693429f4e04115c27e88d91453d94d76050755d5c69cd9eb1c951bd105f88d0afa2eac00000000"
    }
  ]
}