{
  "hash": "00000000902b0863fcd5a38d99062a41dc18fe1403dab66eccf5a41acb331cbb",
  "confirmations": 46031,
  "height": 7067,
  "version": 1,
  "versionHex": "00000001",
  "merkleroot": "f41a6df9ecd96d89b43b096108680284c50922ea15d115d043ffae130b261a8a",
  "time": 1236771534,
  "mediantime": 1236766367,
  "nonce": 222911986,
  "bits": "1d00ffff",
  "difficulty": 1,
  "chainwork": "00000000000000000000000000000000000000000000000000001b9c1b9c1b9c",
  "nTx": 1,
  "previousblockhash": "00000000251d86a572ec8b8d42c0514e9391e3e4f68fce32a85c329d5c43ee2f",
  "nextblockhash": "00000000a29fcd97d0214eccf8da39927b2aeb9b416cc4d7b95e01d8bfb07601",
  "strippedsize": 216,
  "size": 216,
  "weight": 864,
  "tx": [
    {
      "txid": "f41a6df9ecd96d89b43b096108680284c50922ea15d115d043ffae130b261a8a",
      "hash": "f41a6df9ecd96d89b43b096108680284c50922ea15d115d043ffae130b261a8a",
      "version": 1,
      "size": 135,
      "vsize": 135,
      "weight": 540,
      "locktime": 0,
      "vin": [
        {
          "coinbase": "04ffff001d023801",
          "sequence": 4294967295
        }
      ],
      "vout": [
        {
          "value": 50.0,
          "n": 0,
          "scriptPubKey": {
            "asm": "04b4703d224a85e79eab886fbbafbb37208057c6934632143dbfcc37eab948c2cd2e272f22ec0883204820bd899b62f6db6bd04869cb929cfd0ec272f31b84e340 OP_CHECKSIG",
            "desc": "pk(04b4703d224a85e79eab886fbbafbb37208057c6934632143dbfcc37eab948c2cd2e272f22ec0883204820bd899b62f6db6bd04869cb929cfd0ec272f31b84e340)#jwkmrn9j",
            "hex": "4104b4703d224a85e79eab886fbbafbb37208057c6934632143dbfcc37eab948c2cd2e272f22ec0883204820bd899b62f6db6bd04869cb929cfd0ec272f31b84e340ac",
            "type": "pubkey"
          }
        }
      ],
      "hex": "01000000010000000000000000000000000000000000000000000000000000000000000000ffffffff0804ffff001d023801ffffffff0100f2052a01000000434104b4703d224a85e79eab886fbbafbb37208057c6934632143dbfcc37eab948c2cd2e272f22ec0883204820bd899b62f6db6bd04869cb929cfd0ec272f31b84e340ac00000000"
    }
  ]
}