{
  "hash": "00000000ac8864a297d8c07e6e3a9126cb1360bcf47a4620e1c6d1b1e7724f13",
  "confirmations": 47262,
  "height": 5836,
  "version": 1,
  "versionHex": "00000001",
  "merkleroot": "b2bcf864aad5d118070c7533e124dd4a97346bc7d46f06b629258c923c70fc7c",
  "time": 1235788769,
  "mediantime": 1235784519,
  "nonce": 825183288,
  "bits": "1d00ffff",
  "difficulty": 1,
  "chainwork": "000000000000000000000000000000000000000000000000000016cd16cd16cd",
  "nTx": 1,
  "previousblockhash": "0000000016f8d64bc2e4a9d74fbd145f2578c8a872ffaa623b9291468263d2ab",
  "nextblockhash": "0000000068112a6124280d18d9dca70716b77186b8ad5f0f49b1191ad7af6566",
  "strippedsize": 216,
  "size": 216,
  "weight": 864,
  "tx": [
    {
      "txid": "b2bcf864aad5d118070c7533e124dd4a97346bc7d46f06b629258c923c70fc7c",
      "hash": "b2bcf864aad5d118070c7533e124dd4a97346bc7d46f06b629258c923c70fc7c",
      "version": 1,
      "size": 135,
      "vsize": 135,
      "weight": 540,
      "locktime": 0,
      "vin": [
        {
          "coinbase": "04ffff001d027401",
          "sequence": 4294967295
        }
      ],
      "vout": [
        {
          "value": 50.0,
          "n": 0,
          "scriptPubKey": {
            "asm": "04b2b22d39a5bd60a72effa5eab9f9a3ef69a52f1b8c46b68a32ae798bb2d7aaf8600bb97cf1ad43cdbcad42369ead156bb2c9c9a317abb0c83e95b94dd81a5de2 OP_CHECKSIG",
            "desc": "pk(04b2b22d39a5bd60a72effa5eab9f9a3ef69a52f1b8c46b68a32ae798bb2d7aaf8600bb97cf1ad43cdbcad42369ead156bb2c9c9a317abb0c83e95b94dd81a5de2)#cqv6glq7",
            "hex": "4104b2b22d39a5bd60a72effa5eab9f9a3ef69a52f1b8c46b68a32ae798bb2d7aaf8600bb97cf1ad43cdbcad42369ead156bb2c9c9a317abb0c83e95b94dd81a5de2ac",
            "type": "pubkey"
          }
        }
      ],
      "hex": "01000000010000000000000000000000000000000000000000000000000000000000000000ffffffff0804ffff001d027401ffffffff0100f2052a01000000434104b2b22d39a5bd60a72effa5eab9f9a3ef69a52f1b8c46b68a32ae798bb2d7aaf8600bb97cf1ad43cdbcad42369ead156bb2c9c9a317abb0c83e95b94dd81a5de2ac00000000"
    }
  ]
}