{
  "hash": "0000000028b5a0355daaec03a326df3c9118c35ca86dfdde7500d59e2af6a91a",
  "confirmations": 43113,
  "height": 9985,
  "version": 1,
  "versionHex": "00000001",
  "merkleroot": "19da3db48459c0fcf4e39b8f6869ab745baddeef38f05e863b55bc0933aecaa3",
  "time": 1238978169,
  "mediantime": 1238976377,
  "nonce": 3580740355,
  "bits": "1d00ffff",
  "difficulty": 1,
  "chainwork": "0000000000000000000000000000000000000000000000000000270227022702",
  "nTx": 1,
  "previousblockhash": "00000000bce85f66d15636312105bb2e4f8a25122690a2667dfa3330a21da065",
  "nextblockhash": "00000000d03697646ccb60f11e360d5bfb0416885db1fe89b42921af7557df49",
  "strippedsize": 216,
  "size": 216,
  "weight": 864,
  "tx": [
    {
      "txid": "19da3db48459c0fcf4e39b8f6869ab745baddeef38f05e863b55bc0933aecaa3",
      "hash": "19da3db48459c0fcf4e39b8f6869ab745baddeef38f05e863b55bc0933aecaa3",
      "version": 1,
      "size": 135,
      "vsize": 135,
      "weight": 540,
      "locktime": 0,
      "vin": [
        {
          "coinbase": "04ffff001d022a03",
          "sequence": 4294967295
        }
      ],
      "vout": [
        {
          "value": 50.0,
          "n": 0,
          "scriptPubKey": {
            "asm": "046c492ba277a8bec659765496e80b2ce22082393063a67ef6636407ff83f9d0095b40899a828db44a611c6e7c03c2e0bfada285527d839ab3de36eedb6b948dbe OP_CHECKSIG",
            "desc": "pk(046c492ba277a8bec659765496e80b2ce22082393063a67ef6636407ff83f9d0095b40899a828db44a611c6e7c03c2e0bfada285527d839ab3de36eedb6b948dbe)#xgsfdzl7",
            "hex": "41046c492ba277a8bec659765496e80b2ce22082393063a67ef6636407ff83f9d0095b40899a828db44a611c6e7c03c2e0bfada285527d839ab3de36eedb6b948dbeac",
            "type": "pubkey"
          }
        }
      ],
      "hex": "01000000010000000000000000000000000000000000000000000000000000000000000000ffffffff0804ffff001d022a03ffffffff0100f2052a010000004341046c492ba277a8bec659765496e80b2ce22082393063a67ef6636407ff83f9d0095b40899a828db44a611c6e7c03c2e0bfada285527d839ab3de36eedb6b948dbeac00000000"
    }
  ]
}