{
  "hash": "000000002e088ac667dc013c89e656b8337b85a3ebac8404633d7e058b87a096",
  "confirmations": 49370,
  "height": 3728,
  "version": 1,
  "versionHex": "00000001",
  "merkleroot": "1e0597e3665fc7243149a86f3be595d1dd3e8c9d9128ca028d2bf5fa6564efe9",
  "time": 1234253118,
  "mediantime": 1234249578,
  "nonce": 4127804970,
  "bits": "1d00ffff",
  "difficulty": 1,
  "chainwork": "00000000000000000000000000000000000000000000000000000e910e910e91",
  "nTx": 1,
  "previousblockhash": "00000000ae65a8c73b2bf0ef6a648e40dde7586ee6d0aed6f141b8c1b6e2c63f",
  "nextblockhash": "00000000d74a42e428e2d21e464cd9d6e72e74fac48a8389881b1cbd1932b564",
  "strippedsize": 215,
  "size": 215,
  "weight": 860,
  "tx": [
    {
      "txid": "1e0597e3665fc7243149a86f3be595d1dd3e8c9d9128ca028d2bf5fa6564efe9",
      "hash": "1e0597e3665fc7243149a86f3be595d1dd3e8c9d9128ca028d2bf5fa6564efe9",
      "version": 1,
      "size": 134,
      "vsize": 134,
      "weight": 536,
      "locktime": 0,
      "vin": [
        {
          "coinbase": "04ffff001d0136",
          "sequence": 4294967295
        }
      ],
      "vout": [
        {
          "value": 50.0,
          "n": 0,
          "scriptPubKey": {
            "asm": "04799a32c0e348df9a6276a4c8db490fb0d8461893587da74d6a0d1e0376770c2fe0453bb57d29606693e09e269c35019f6c94b88900943fc508cd0f09103575c0 OP_CHECKSIG",
            "desc": "pk(04799a32c0e348df9a6276a4c8db490fb0d8461893587da74d6a0d1e0376770c2fe0453bb57d29606693e09e269c35019f6c94b88900943fc508cd0f09103575c0)#xs8c5c9v",
            "hex": "4104799a32c0e348df9a6276a4c8db490fb0d8461893587da74d6a0d1e0376770c2fe0453bb57d29606693e09e269c35019f6c94b88900943fc508cd0f09103575c0ac",
            "type": "pubkey"
          }
        }
      ],
      "hex": "01000000010000000000000000000000000000000000000000000000000000000000000000ffffffff0704ffff001d0136ffffffff0100f2052a01000000434104799a32c0e348df9a6276a4c8db490fb0d8461893587da74d6a0d1e0376770c2fe0453bb57d29606693e09e269c35019f6c94b88900943fc508cd0f09103575c0ac00000000"
    }
  ]
}