{
  "hash": "0000000036649e2e83334c72daf01e4445807ba927e4efaeb50c19dba1076e48",
  "confirmations": 49963,
  "height": 3135,
  "version": 1,
  "versionHex": "00000001",
  "merkleroot": "9d15e00f15df19ad2215a4d31c891cc8f4f0feeb0947b9e115835eb98268da3c",
  "time": 1233859128,
  "mediantime": 1233854290,
  "nonce": 1425933601,
  "bits": "1d00ffff",
  "difficulty": 1,
  "chainwork": "00000000000000000000000000000000000000000000000000000c400c400c40",
  "nTx": 1,
  "previousblockhash": "000000001ee955645635bf9569c048ca034efef0bb5877f24767c310ea33fd23",
  "nextblockhash": "00000000497d6267bbbee407a2cc502b6295190cd783a9b95054b228e4bd7874",
  "strippedsize": 216,
  "size": 216,
  "weight": 864,
  "tx": [
    {
      "txid": "9d15e00f15df19ad2215a4d31c891cc8f4f0feeb0947b9e115835eb98268da3c",
      "hash": "9d15e00f15df19ad2215a4d31c891cc8f4f0feeb0947b9e115835eb98268da3c",
      "version": 1,
      "size": 135,
      "vsize": 135,
      "weight": 540,
      "locktime": 0,
      "vin": [
        {
          "coinbase": "04ffff001d02b701",
          "sequence": 4294967295
        }
      ],
      "vout": [
        {
          "value": 50.0,
          "n": 0,
          "scriptPubKey": {
            "asm": "04f180c09789fe8a5f74a7b1a84dd933e90e7c278d4ca09f583bd3f20ffec892fa5730ba2aa7034c05b065304c69a64f37e76ad34c0113dd211787de162457ed0a OP_CHECKSIG",
            "desc": "pk(04f180c09789fe8a5f74a7b1a84dd933e90e7c278d4ca09f583bd3f20ffec892fa5730ba2aa7034c05b065304c69a64f37e76ad34c0113dd211787de162457ed0a)#fu8pftp5",
            "hex": "4104f180c09789fe8a5f74a7b1a84dd933e90e7c278d4ca09f583bd3f20ffec892fa5730ba2aa7034c05b065304c69a64f37e76ad34c0113dd211787de162457ed0aac",
            "type": "pubkey"
          }
        }
      ],
      "hex": "01000000010000000000000000000000000000000000000000000000000000000000000000ffffffff0804ffff001d02b701ffffffff0100f2052a01000000434104f180c09789fe8a5f74a7b1a84dd933e90e7c278d4ca09f583bd3f20ffec892fa5730ba2aa7034c05b065304c69a64f37e76ad34c0113dd211787de162457ed0aac00000000"
    }
  ]
}