{
  "hash": "00000000ded0a3a301999ea452d2618bcfc875556f3516fa01772b9ba3f47c9f",
  "confirmations": 43594,
  "height": 9504,
  "version": 1,
  "versionHex": "00000001",
  "merkleroot": "0d968d9dffbb314555e1f4532750e11b00f0c1a2291ea591ef154b2ce3ffb315",
  "time": 1238631827,
  "mediantime": 1238627566,
  "nonce": 3862972964,
  "bits": "1d00ffff",
  "difficulty": 1,
  "chainwork": "0000000000000000000000000000000000000000000000000000252125212521",
  "nTx": 1,
  "previousblockhash": "00000000b9ce11097e53e17a5ba46f8b46d086e1b1df167c8ebfc4df79348a70",
  "nextblockhash": "000000003c07449ea96a504f5ea2d61107673fa5e4ed9d7add56ab9b8bbf7cc0",
  "strippedsize": 216,
  "size": 216,
  "weight": 864,
  "tx": [
    {
      "txid": "0d968d9dffbb314555e1f4532750e11b00f0c1a2291ea591ef154b2ce3ffb315",
      "hash": "0d968d9dffbb314555e1f4532750e11b00f0c1a2291ea591ef154b2ce3ffb315",
      "version": 1,
      "size": 135,
      "vsize": 135,
      "weight": 540,
      "locktime": 0,
      "vin": [
        {
          "coinbase": "04ffff001d027505",
          "sequence": 4294967295
        }
      ],
      "vout": [
        {
          "value": 50.0,
          "n": 0,
          "scriptPubKey": {
            "asm": "04f1833e365e43a975488bf4c18d7d5bdc9951b97f82649e5dde6b2cfeb449b46339ed79a04e3acb0c62dfedd4240f48c1a93da5872c652f47b4844a2c508e8347 OP_CHECKSIG",
            "desc": "pk(04f1833e365e43a975488bf4c18d7d5bdc9951b97f82649e5dde6b2cfeb449b46339ed79a04e3acb0c62dfedd4240f48c1a93da5872c652f47b4844a2c508e8347)#8jschqz7",
            "hex": "4104f1833e365e43a975488bf4c18d7d5bdc9951b97f82649e5dde6b2cfeb449b46339ed79a04e3acb0c62dfedd4240f48c1a93da5872c652f47b4844a2c508e8347ac",
            "type": "pubkey"
          }
        }
      ],
      "hex": "01000000010000000000000000000000000000000000000000000000000000000000000000ffffffff0804ffff001d027505ffffffff0100f2052a01000000434104f1833e365e43a975488bf4c18d7d5bdc9951b97f82649e5dde6b2cfeb449b46339ed79a04e3acb0c62dfedd4240f48c1a93da5872c652f47b4844a2c508e8347ac00000000"
    }
  ]
}