{
  "hash": "000000005160a17e0c299c5646de80a210e6aac12bf4e2ad9796967d22b4e547",
  "confirmations": 51518,
  "height": 1580,
  "version": 1,
  "versionHex": "00000001",
  "merkleroot": "6a4542c9b26a330eaabfe02929c50163cbca470c0a21985e8aa2ad8a498e649e",
  "time": 1232801868,
  "mediantime": 1232800033,
  "nonce": 3601614850,
  "bits": "1d00ffff",
  "difficulty": 1,
  "chainwork": "0000000000000000000000000000000000000000000000000000062d062d062d",
  "nTx": 1,
  "previousblockhash": "00000000685b26841f98298b275f9b886db67f63c1e7c7aae8a22c8bb8dce8cb",
  "nextblockhash": "00000000941031648fa40f9d00bb7bea3667d59fa5fd2ffd8d6a362362a61c0f",
  "strippedsize": 216,
  "size": 216,
  "weight": 864,
  "tx": [
    {
      "txid": "6a4542c9b26a330eaabfe02929c50163cbca470c0a21985e8aa2ad8a498e649e",
      "hash": "6a4542c9b26a330eaabfe02929c50163cbca470c0a21985e8aa2ad8a498e649e",
      "version": 1,
      "size": 135,
      "vsize": 135,
      "weight": 540,
      "locktime": 0,
      "vin": [
        {
          "coinbase": "04ffff001d02fb01",
          "sequence": 4294967295
        }
      ],
      "vout": [
        {
          "value": 50.0,
          "n": 0,
          "scriptPubKey": {
            "asm": "042528f6c3742ed418c19b722fef94fd19e1222011a27069e37f4937844277537fd6fd8e3df2106d0f77b917933c8191ba98eb892fffb94c67a2bee1624d124a86 OP_CHECKSIG",
            "desc": "pk(042528f6c3742ed418c19b722fef94fd19e1222011a27069e37f4937844277537fd6fd8e3df2106d0f77b917933c8191ba98eb892fffb94c67a2bee1624d124a86)#7gdlwy9v",
            "hex": "41042528f6c3742ed418c19b722fef94fd19e1222011a27069e37f4937844277537fd6fd8e3df2106d0f77b917933c8191ba98eb892fffb94c67a2bee1624d124a86ac",
            "type": "pubkey"
          }
        }
      ],
      "hex": "01000000010000000000000000000000000000000000000000000000000000000000000000ffffffff0804ffff001d02fb01ffffffff0100f2052a010000004341042528f6c3742ed418c19b722fef94fd19e1222011a27069e37f4937844277537fd6fd8e3df2106d0f77b917933c8191ba98eb892fffb94c67a2bee1624d124a86ac00000000"
    }
  ]
}