{
  "hash": "000000006e7138111f1e1426d943a1ba2c37b2c0f5bb4a9f132416081d465dad",
  "confirmations": 43616,
  "height": 9482,
  "version": 1,
  "versionHex": "00000001",
  "merkleroot": "e7cd4a90bbef54c2426b59685cb57b35ae4dd05470fd6ca84dd5e3d132546079",
  "time": 1238616469,
  "mediantime": 1238612818,
  "nonce": 760468228,
  "bits": "1d00ffff",
  "difficulty": 1,
  "chainwork": "0000000000000000000000000000000000000000000000000000250b250b250b",
  "nTx": 1,
  "previousblockhash": "00000000a95af4f120a33be882959c7f7cde1ff5ca4080c99295c38998e7acb7",
  "nextblockhash": "00000000cb0356066b1f8d2482c4747e8da716bf355b71f88fad0b3c3bdd62d8",
  "strippedsize": 216,
  "size": 216,
  "weight": 864,
  "tx": [
    {
      "txid": "e7cd4a90bbef54c2426b59685cb57b35ae4dd05470fd6ca84dd5e3d132546079",
      "hash": "e7cd4a90bbef54c2426b59685cb57b35ae4dd05470fd6ca84dd5e3d132546079",
      "version": 1,
      "size": 135,
      "vsize": 135,
      "weight": 540,
      "locktime": 0,
      "vin": [
        {
          "coinbase": "04ffff001d021f05",
          "sequence": 4294967295
        }
      ],
      "vout": [
        {
          "value": 50.0,
          "n": 0,
          "scriptPubKey": {
            "asm": "04cc9e9f3883f3c8283e753fe21bd7bb6ccec2a38c5d8ec7435b7393888c2793e1023845cb3bbd5e0a72ef31649cbc047085a1eb5961e8f65f55cfcd95a7b220b8 OP_CHECKSIG",
            "desc": "pk(04cc9e9f3883f3c8283e753fe21bd7bb6ccec2a38c5d8ec7435b7393888c2793e1023845cb3bbd5e0a72ef31649cbc047085a1eb5961e8f65f55cfcd95a7b220b8)#kmg20t4y",
            "hex": "4104cc9e9f3883f3c8283e753fe21bd7bb6ccec2a38c5d8ec7435b7393888c2793e1023845cb3bbd5e0a72ef31649cbc047085a1eb5961e8f65f55cfcd95a7b220b8ac",
            "type": "pubkey"
          }
        }
      ],
      "hex": "01000000010000000000000000000000000000000000000000000000000000000000000000ffffffff0804ffff001d021f05ffffffff0100f2052a01000000434104cc9e9f3883f3c8283e753fe21bd7bb6ccec2a38c5d8ec7435b7393888c2793e1023845cb3bbd5e0a72ef31649cbc047085a1eb5961e8f65f55cfcd95a7b220b8ac00000000"
    }
  ]
}