{
  "hash": "00000000819994c054cc1edce2edef7a2fecc0142578699d2e7c20ec57062d0e",
  "confirmations": 48222,
  "height": 4876,
  "version": 1,
  "versionHex": "00000001",
  "merkleroot": "8701d533b2081c015c94ff11c17b4f337efd3fd87f94c2dd6c01494748da9ed4",
  "time": 1235055858,
  "mediantime": 1235051751,
  "nonce": 2709382151,
  "bits": "1d00ffff",
  "difficulty": 1,
  "chainwork": "0000000000000000000000000000000000000000000000000000130d130d130d",
  "nTx": 1,
  "previousblockhash": "00000000e36bfca3bfca06cc29b3cbc3999c7f9a91eaa3513befa74e4f9e8725",
  "nextblockhash": "00000000e26d60bb1c8bfc938d480c7b37113a25b4efb27db836d61f83515885",
  "strippedsize": 216,
  "size": 216,
  "weight": 864,
  "tx": [
    {
      "txid": "8701d533b2081c015c94ff11c17b4f337efd3fd87f94c2dd6c01494748da9ed4",
      "hash": "8701d533b2081c015c94ff11c17b4f337efd3fd87f94c2dd6c01494748da9ed4",
      "version": 1,
      "size": 135,
      "vsize": 135,
      "weight": 540,
      "locktime": 0,
      "vin": [
        {
          "coinbase": "04ffff001d026605",
          "sequence": 4294967295
        }
      ],
      "vout": [
        {
          "value": 50.0,
          "n": 0,
          "scriptPubKey": {
            "asm": "04e0de5c68a00dea4058588008d56f8cf392e2ed8329b6b13aeff5b0c8c6cd7b0567f206a335dc2759e228ff874733b8d5f4824abbd8aadaad0774937b63e94199 OP_CHECKSIG",
            "desc": "pk(04e0de5c68a00dea4058588008d56f8cf392e2ed8329b6b13aeff5b0c8c6cd7b0567f206a335dc2759e228ff874733b8d5f4824abbd8aadaad0774937b63e94199)#ansk6h0p",
            "hex": "4104e0de5c68a00dea4058588008d56f8cf392e2ed8329b6b13aeff5b0c8c6cd7b0567f206a335dc2759e228ff874733b8d5f4824abbd8aadaad0774937b63e94199ac",
            "type": "pubkey"
          }
        }
      ],
      "hex": "01000000010000000000000000000000000000000000000000000000000000000000000000ffffffff0804ffff001d026605ffffffff0100f2052a01000000434104e0de5c68a00dea4058588008d56f8cf392e2ed8329b6b13aeff5b0c8c6cd7b0567f206a335dc2759e228ff874733b8d5f4824abbd8aadaad0774937b63e94199ac00000000"
    }
  ]
}