{
  "hash": "000000003e3f906f35b88dcf209aa9678511c09ddfbf966b32603d46fb8ebad1",
  "confirmations": 50028,
  "height": 3070,
  "version": 1,
  "versionHex": "00000001",
  "merkleroot": "b40778b8d61394d635b7fd8005ad7554437861816d4d520b326d4e8a5ec25fa8",
  "time": 1233809130,
  "mediantime": 1233804863,
  "nonce": 3983894025,
  "bits": "1d00ffff",
  "difficulty": 1,
  "chainwork": "00000000000000000000000000000000000000000000000000000bff0bff0bff",
  "nTx": 1,
  "previousblockhash": "00000000b3e6909a46f5bc05bf13d417bb049cdbd95f2842072651c91cd31ce0",
  "nextblockhash": "000000002fe533f8072b16630474527667d8b8b6c7ab1b9add74ab68250f623c",
  "strippedsize": 216,
  "size": 216,
  "weight": 864,
  "tx": [
    {
      "txid": "b40778b8d61394d635b7fd8005ad7554437861816d4d520b326d4e8a5ec25fa8",
      "hash": "b40778b8d61394d635b7fd8005ad7554437861816d4d520b326d4e8a5ec25fa8",
      "version": 1,
      "size": 135,
      "vsize": 135,
      "weight": 540,
      "locktime": 0,
      "vin": [
        {
          "coinbase": "04ffff001d028900",
          "sequence": 4294967295
        }
      ],
      "vout": [
        {
          "value": 50.0,
          "n": 0,
          "scriptPubKey": {
            "asm": "0453463b350d4d6183312d3067e0d15ede03bb223286188ee804eb14d8cb94e3b336cce65a7b8cfe2062db53114077e4cab0c51214b5878c9b4dbe660942bc0893 OP_CHECKSIG",
            "desc": "pk(0453463b350d4d6183312d3067e0d15ede03bb223286188ee804eb14d8cb94e3b336cce65a7b8cfe2062db53114077e4cab0c51214b5878c9b4dbe660942bc0893)#k4w70flx",
            "hex": "410453463b350d4d6183312d3067e0d15ede03bb223286188ee804eb14d8cb94e3b336cce65a7b8cfe2062db53114077e4cab0c51214b5878c9b4dbe660942bc0893ac",
            "type": "pubkey"
          }
        }
      ],
      "hex": "01000000010000000000000000000000000000000000000000000000000000000000000000ffffffff0804ffff001d028900ffffffff0100f2052a0100000043410453463b350d4d6183312d3067e0d15ede03bb223286188ee804eb14d8cb94e3b336cce65a7b8cfe2062db53114077e4cab0c51214b5878c9b4dbe660942bc0893ac00000000"
    }
  ]
}