{
  "hash": "000000001e1910f660a1264bbdeb70bb6416f674453dd0bf5e650da2c0256c27",
  "confirmations": 48260,
  "height": 4838,
  "version": 1,
  "versionHex": "00000001",
  "merkleroot": "89c8311d9c08747084f5e29cbaa5d2345903b18f95e13f8b4101eca398ff4ec2",
  "time": 1235028025,
  "mediantime": 1235020944,
  "nonce": 1953036296,
  "bits": "1d00ffff",
  "difficulty": 1,
  "chainwork": "000000000000000000000000000000000000000000000000000012e712e712e7",
  "nTx": 1,
  "previousblockhash": "0000000059741366a15a6a72686abe949aeda79bcfbad732088a04c31c34d81e",
  "nextblockhash": "0000000082189e843992c00893ababb1c4fc1af7b3ee3f6ab71df2938dae5467",
  "strippedsize": 216,
  "size": 216,
  "weight": 864,
  "tx": [
    {
      "txid": "89c8311d9c08747084f5e29cbaa5d2345903b18f95e13f8b4101eca398ff4ec2",
      "hash": "89c8311d9c08747084f5e29cbaa5d2345903b18f95e13f8b4101eca398ff4ec2",
      "version": 1,
      "size": 135,
      "vsize": 135,
      "weight": 540,
      "locktime": 0,
      "vin": [
        {
          "coinbase": "04ffff001d02f604",
          "sequence": 4294967295
        }
      ],
      "vout": [
        {
          "value": 50.0,
          "n": 0,
          "scriptPubKey": {
            "asm": "04464fe4d8a062af542369c8ad34df164418f7611ad90123c191f09523d1013522b6a859a8a3f430054cde217e2e4022b044f35abda5792c5b551cae53e15170b7 OP_CHECKSIG",
            "desc": "pk(04464fe4d8a062af542369c8ad34df164418f7611ad90123c191f09523d1013522b6a859a8a3f430054cde217e2e4022b044f35abda5792c5b551cae53e15170b7)#6uzdd96f",
            "hex": "4104464fe4d8a062af542369c8ad34df164418f7611ad90123c191f09523d1013522b6a859a8a3f430054cde217e2e4022b044f35abda5792c5b551cae53e15170b7ac",
            "type": "pubkey"
          }
        }
      ],
      "hex": "01000000010000000000000000000000000000000000000000000000000000000000000000ffffffff0804ffff001d02f604ffffffff0100f2052a01000000434104464fe4d8a062af542369c8ad34df164418f7611ad90123c191f09523d1013522b6a859a8a3f430054cde217e2e4022b044f35abda5792c5b551cae53e15170b7ac00000000"
    }
  ]
}