{
  "hash": "000000001604181f13f19fd3cc89366ec95ce1dd64b776784ef8855210622f19",
  "confirmations": 51979,
  "height": 102,
  "version": 1,
  "versionHex": "00000001",
  "merkleroot": "3b44b5ce02d36db604f0d6b7cc761685484c370a235c54539700b1ad23afefce",
  "time": 1231662670,
  "mediantime": 1231658068,
  "nonce": 1906126361,
  "bits": "1d00ffff",
  "difficulty": 1,
  "chainwork": "0000000000000000000000000000000000000000000000000000006700670067",
  "nTx": 1,
  "previousblockhash": "00000000b69bd8e4dc60580117617a466d5c76ada85fb7b87e9baea01f9d9984",
  "nextblockhash": "000000002109057cb846ff7d1d96bc77f9f65cb547938efe1961760a8bbb3f75",
  "strippedsize": 215,
  "size": 215,
  "weight": 860,
  "tx": [
    {
      "txid": "3b44b5ce02d36db604f0d6b7cc761685484c370a235c54539700b1ad23afefce",
      "hash": "3b44b5ce02d36db604f0d6b7cc761685484c370a235c54539700b1ad23afefce",
      "version": 1,
      "size": 134,
      "vsize": 134,
      "weight": 536,
      "locktime": 0,
      "vin": [
        {
          "coinbase": "04ffff001d0154",
          "sequence": 4294967295
        }
      ],
      "vout": [
        {
          "value": 50.0,
          "n": 0,
          "scriptPubKey": {
            "asm": "04003e8f977a0f6e276bf8160b0a8eabaa7a45ca4f664f201fec4f8c95fba55cd9698ea8fafec47cf3f008e75ae02769ce550d25fe024a0fc08cdbae2a08651b1e OP_CHECKSIG",
            "desc": "pk(04003e8f977a0f6e276bf8160b0a8eabaa7a45ca4f664f201fec4f8c95fba55cd9698ea8fafec47cf3f008e75ae02769ce550d25fe024a0fc08cdbae2a08651b1e)#r7gtfevc",
            "hex": "4104003e8f977a0f6e276bf8160b0a8eabaa7a45ca4f664f201fec4f8c95fba55cd9698ea8fafec47cf3f008e75ae02769ce550d25fe024a0fc08cdbae2a08651b1eac",
            "type": "pubkey"
          }
        }
      ],
      "hex": "01000000010000000000000000000000000000000000000000000000000000000000000000ffffffff0704ffff001d0154ffffffff0100f2052a01000000434104003e8f977a0f6e276bf8160b0a8eabaa7a45ca4f664f201fec4f8c95fba55cd9698ea8fafec47cf3f008e75ae02769ce550d25fe024a0fc08cdbae2a08651b1eac00000000"
    }
  ]
}