{
  "hash": "0000000078eecd2a8f456ed336fe4ecd7c84d0bdc18cc609fc34b02ad9b4ee40",
  "confirmations": 52260,
  "height": 838,
  "version": 1,
  "versionHex": "00000001",
  "merkleroot": "b80c03e4b42c692281ed25ac616b2628210021746d0afe83af213bd072f04de7",
  "time": 1232220551,
  "mediantime": 1232216501,
  "nonce": 2842479891,
  "bits": "1d00ffff",
  "difficulty": 1,
  "chainwork": "0000000000000000000000000000000000000000000000000000034703470347",
  "nTx": 1,
  "previousblockhash": "0000000064ce70558fb016627685f36a7a5ef46cd818e850baa21ce5fe4ea041",
  "nextblockhash": "00000000c01e9863cca2d4240bab413192cd5644036cfa613f0d9504d8c8de97",
  "strippedsize": 216,
  "size": 216,
  "weight": 864,
  "tx": [
    {
      "txid": "b80c03e4b42c692281ed25ac616b2628210021746d0afe83af213bd072f04de7",
      "hash": "b80c03e4b42c692281ed25ac616b2628210021746d0afe83af213bd072f04de7",
      "version": 1,
      "size": 135,
      "vsize": 135,
      "weight": 540,
      "locktime": 0,
      "vin": [
        {
          "coinbase": "04ffff001d022a02",
          "sequence": 4294967295
        }
      ],
      "vout": [
        {
          "value": 50.0,
          "n": 0,
          "scriptPubKey": {
            "asm": "04a0cd7a3e6d98d55c26a44ac2090ae93ff3ae9d504924bb9ae17c037f92344fcd363fe91dc561e981a742c94933a394c754a088f6f7ce749ace1c4dcceda9c0e0 OP_CHECKSIG",
            "desc": "pk(04a0cd7a3e6d98d55c26a44ac2090ae93ff3ae9d504924bb9ae17c037f92344fcd363fe91dc561e981a742c94933a394c754a088f6f7ce749ace1c4dcceda9c0e0)#z7q7d67r",
            "hex": "4104a0cd7a3e6d98d55c26a44ac2090ae93ff3ae9d504924bb9ae17c037f92344fcd363fe91dc561e981a742c94933a394c754a088f6f7ce749ace1c4dcceda9c0e0ac",
            "type": "pubkey"
          }
        }
      ],
      "hex": "01000000010000000000000000000000000000000000000000000000000000000000000000ffffffff0804ffff001d022a02ffffffff0100f2052a01000000434104a0cd7a3e6d98d55c26a44ac2090ae93ff3ae9d504924bb9ae17c037f92344fcd363fe91dc561e981a742c94933a394c754a088f6f7ce749ace1c4dcceda9c0e0ac00000000"
    }
  ]
}