{
  "hash": "0000000001d7e012d5f8cb107bbea5a4620772adb4c3d3043958b93df4c29cc1",
  "confirmations": 45790,
  "height": 7308,
  "version": 1,
  "versionHex": "00000001",
  "merkleroot": "222dcdd076b66419bbca0e4bf8306b411b3b991700943e035ba9da97021d86c7",
  "time": 1236953016,
  "mediantime": 1236950397,
  "nonce": 2982783514,
  "bits": "1d00ffff",
  "difficulty": 1,
  "chainwork": "00000000000000000000000000000000000000000000000000001c8d1c8d1c8d",
  "nTx": 1,
  "previousblockhash": "00000000e669ced399cdee6d98e1438cebd0bdaf35b277780153e3eb2d0a6e64",
  "nextblockhash": "00000000e43cec48ecf4f3eff99257f9bbbad40cb358a1370140226ddc728542",
  "strippedsize": 216,
  "size": 216,
  "weight": 864,
  "tx": [
    {
      "txid": "222dcdd076b66419bbca0e4bf8306b411b3b991700943e035ba9da97021d86c7",
      "hash": "222dcdd076b66419bbca0e4bf8306b411b3b991700943e035ba9da97021d86c7",
      "version": 1,
      "size": 135,
      "vsize": 135,
      "weight": 540,
      "locktime": 0,
      "vin": [
        {
          "coinbase": "04ffff001d02a907",
          "sequence": 4294967295
        }
      ],
      "vout": [
        {
          "value": 50.0,
          "n": 0,
          "scriptPubKey": {
            "asm": "049d8fdc8d352ac135840ace4d100cbc1b8f532c9bd32a47cffabff7b22e1001e876811746dc76592d6ed9e84865680ba35aa3c9810b7012511d9e43e38e9fa2e2 OP_CHECKSIG",
            "desc": "pk(049d8fdc8d352ac135840ace4d100cbc1b8f532c9bd32a47cffabff7b22e1001e876811746dc76592d6ed9e84865680ba35aa3c9810b7012511d9e43e38e9fa2e2)#4x6z7lwg",
            "hex": "41049d8fdc8d352ac135840ace4d100cbc1b8f532c9bd32a47cffabff7b22e1001e876811746dc76592d6ed9e84865680ba35aa3c9810b7012511d9e43e38e9fa2e2ac",
            "type": "pubkey"
          }
        }
      ],
      "hex": "01000000010000000000000000000000000000000000000000000000000000000000000000ffffffff0804ffff001d02a907ffffffff0100f2052a010000004341049d8fdc8d352ac135840ace4d100cbc1b8f532c9bd32a47cffabff7b22e1001e876811746dc76592d6ed9e84865680ba35aa3c9810b7012511d9e43e38e9fa2e2ac00000000"
    }
  ]
}