{
  "hash": "0000000024bf107e716056fa59bc1ea7d61d531504a2d487e14fbfd139c1f000",
  "confirmations": 50162,
  "height": 2936,
  "version": 1,
  "versionHex": "00000001",
  "merkleroot": "25866b9421e7006d844fc49e1ee467f6dce7dbb0965b249f224079e07822e266",
  "time": 1233715064,
  "mediantime": 1233711440,
  "nonce": 2240076332,
  "bits": "1d00ffff",
  "difficulty": 1,
  "chainwork": "00000000000000000000000000000000000000000000000000000b790b790b79",
  "nTx": 1,
  "previousblockhash": "00000000a5815d732899aad3fe8c69348707e022dec60cad4f92b27e1de8ff18",
  "nextblockhash": "00000000c75abddb0e530cf708779071caa59bbc036b6135f12c929c40f5015f",
  "strippedsize": 215,
  "size": 215,
  "weight": 860,
  "tx": [
    {
      "txid": "25866b9421e7006d844fc49e1ee467f6dce7dbb0965b249f224079e07822e266",
      "hash": "25866b9421e7006d844fc49e1ee467f6dce7dbb0965b249f224079e07822e266",
      "version": 1,
      "size": 134,
      "vsize": 134,
      "weight": 536,
      "locktime": 0,
      "vin": [
        {
          "coinbase": "04ffff001d0153",
          "sequence": 4294967295
        }
      ],
      "vout": [
        {
          "value": 50.0,
          "n": 0,
          "scriptPubKey": {
            "asm": "04b834ef9d938908ef72148f8b816fd3bef4f7b4ed45907e8dbf862b0263381e7873d03c87b66fcc5f087084647c46a1f7fdfd7afa407ff2bd8403fd588d03d84f OP_CHECKSIG",
            "desc": "pk(04b834ef9d938908ef72148f8b816fd3bef4f7b4ed45907e8dbf862b0263381e7873d03c87b66fcc5f087084647c46a1f7fdfd7afa407ff2bd8403fd588d03d84f)#kyls728d",
            "hex": "4104b834ef9d938908ef72148f8b816fd3bef4f7b4ed45907e8dbf862b0263381e7873d03c87b66fcc5f087084647c46a1f7fdfd7afa407ff2bd8403fd588d03d84fac",
            "type": "pubkey"
          }
        }
      ],
      "hex": "01000000010000000000000000000000000000000000000000000000000000000000000000ffffffff0704ffff001d0153ffffffff0100f2052a01000000434104b834ef9d938908ef72148f8b816fd3bef4f7b4ed45907e8dbf862b0263381e7873d03c87b66fcc5f087084647c46a1f7fdfd7afa407ff2bd8403fd588d03d84fac00000000"
    }
  ]
}