{
  "hash": "00000000c38e2807c90c9c1a3fd5034e69d1f2710217ab0683a62a1bde438645",
  "confirmations": 46189,
  "height": 6909,
  "version": 1,
  "versionHex": "00000001",
  "merkleroot": "164fc09f0e72997c739e256672ba971ea014d5d09a9ca605ef41bc8f5970941d",
  "time": 1236645592,
  "mediantime": 1236640874,
  "nonce": 1792200450,
  "bits": "1d00ffff",
  "difficulty": 1,
  "chainwork": "00000000000000000000000000000000000000000000000000001afe1afe1afe",
  "nTx": 1,
  "previousblockhash": "00000000859e983115a123473dd3bd2fc85a2d190013a9214aefb416f2179d87",
  "nextblockhash": "00000000328493f88635f27acead8943a955a4aae184a7c3ef28e025deeb88f6",
  "strippedsize": 216,
  "size": 216,
  "weight": 864,
  "tx": [
    {
      "txid": "164fc09f0e72997c739e256672ba971ea014d5d09a9ca605ef41bc8f5970941d",
      "hash": "164fc09f0e72997c739e256672ba971ea014d5d09a9ca605ef41bc8f5970941d",
      "version": 1,
      "size": 135,
      "vsize": 135,
      "weight": 540,
      "locktime": 0,
      "vin": [
        {
          "coinbase": "04ffff001d02a200",
          "sequence": 4294967295
        }
      ],
      "vout": [
        {
          "value": 50.0,
          "n": 0,
          "scriptPubKey": {
            "asm": "04cdf9f07c1ab7a7571ffe42090ec661ff5c14f6293740876c64f35b42c0d92c5d6aa2a2a6c93d7a53a20636c4eb25865eb96f8d7bc7fbc2992fc52ac6fd8880e3 OP_CHECKSIG",
            "desc": "pk(04cdf9f07c1ab7a7571ffe42090ec661ff5c14f6293740876c64f35b42c0d92c5d6aa2a2a6c93d7a53a20636c4eb25865eb96f8d7bc7fbc2992fc52ac6fd8880e3)#pckrzdzv",
            "hex": "4104cdf9f07c1ab7a7571ffe42090ec661ff5c14f6293740876c64f35b42c0d92c5d6aa2a2a6c93d7a53a20636c4eb25865eb96f8d7bc7fbc2992fc52ac6fd8880e3ac",
            "type": "pubkey"
          }
        }
      ],
      "hex": "01000000010000000000000000000000000000000000000000000000000000000000000000ffffffff0804ffff001d02a200ffffffff0100f2052a01000000434104cdf9f07c1ab7a7571ffe42090ec661ff5c14f6293740876c64f35b42c0d92c5d6aa2a2a6c93d7a53a20636c4eb25865eb96f8d7bc7fbc2992fc52ac6fd8880e3ac00000000"
    }
  ]
}