{
  "hash": "0000000015d7594fd18fff8fe61b933f47993da6f7bbe9b192ee0a9652fa9b21",
  "confirmations": 44879,
  "height": 8219,
  "version": 1,
  "versionHex": "00000001",
  "merkleroot": "8173999aa8bcb4cd31513ca9e3a03d6fb839ded676999e53e9da15bbf5460cef",
  "time": 1237636847,
  "mediantime": 1237627594,
  "nonce": 124892765,
  "bits": "1d00ffff",
  "difficulty": 1,
  "chainwork": "0000000000000000000000000000000000000000000000000000201c201c201c",
  "nTx": 1,
  "previousblockhash": "00000000366b28cc9e15a4d58d2984b4e86bd11a860ff7533a74a69b0891c722",
  "nextblockhash": "00000000981ca0dc378f6a82d52e1f9dbbc8bd6886c6207f2c4d9a92ffe37f93",
  "strippedsize": 215,
  "size": 215,
  "weight": 860,
  "tx": [
    {
      "txid": "8173999aa8bcb4cd31513ca9e3a03d6fb839ded676999e53e9da15bbf5460cef",
      "hash": "8173999aa8bcb4cd31513ca9e3a03d6fb839ded676999e53e9da15bbf5460cef",
      "version": 1,
      "size": 134,
      "vsize": 134,
      "weight": 536,
      "locktime": 0,
      "vin": [
        {
          "coinbase": "04ffff001d011c",
          "sequence": 4294967295
        }
      ],
      "vout": [
        {
          "value": 50.0,
          "n": 0,
          "scriptPubKey": {
            "asm": "047827acbf5d27e3c42a5404a3d3eb723e8fc06329a98ba43c767ab0bd3ccf763f0ccb8ca37b935e5ed76c9f30f34425c5b10c1ac72dc0a4a568da14c5e04cc2a9 OP_CHECKSIG",
            "desc": "pk(047827acbf5d27e3c42a5404a3d3eb723e8fc06329a98ba43c767ab0bd3ccf763f0ccb8ca37b935e5ed76c9f30f34425c5b10c1ac72dc0a4a568da14c5e04cc2a9)#x5y3cewx",
            "hex": "41047827acbf5d27e3c42a5404a3d3eb723e8fc06329a98ba43c767ab0bd3ccf763f0ccb8ca37b935e5ed76c9f30f34425c5b10c1ac72dc0a4a568da14c5e04cc2a9ac",
            "type": "pubkey"
          }
        }
      ],
      "hex": "01000000010000000000000000000000000000000000000000000000000000000000000000ffffffff0704ffff001d011cffffffff0100f2052a010000004341047827acbf5d27e3c42a5404a3d3eb723e8fc06329a98ba43c767ab0bd3ccf763f0ccb8ca37b935e5ed76c9f30f34425c5b10c1ac72dc0a4a568da14c5e04cc2a9ac00000000"
    }
  ]
}