{
  "hash": "0000000057463cd166551836e83b001d8046cf2863631a45896d0440d9bb0b74",
  "confirmations": 52023,
  "height": 1075,
  "version": 1,
  "versionHex": "00000001",
  "merkleroot": "b85a30be9b65f3e4b37e8b1f00a01419828ea8f4b52eb011f5cb52c770ef93fb",
  "time": 1232404884,
  "mediantime": 1232401220,
  "nonce": 28054731,
  "bits": "1d00ffff",
  "difficulty": 1,
  "chainwork": "0000000000000000000000000000000000000000000000000000043404340434",
  "nTx": 1,
  "previousblockhash": "0000000022a6e7d05ed7bbbfb7cf21c9a8fbb4d9e8deea84ae4147662b3a5815",
  "nextblockhash": "00000000adf54d02a4f99f8dda409b1165e927c09dfc6242f36d2055c6b6c817",
  "strippedsize": 216,
  "size": 216,
  "weight": 864,
  "tx": [
    {
      "txid": "b85a30be9b65f3e4b37e8b1f00a01419828ea8f4b52eb011f5cb52c770ef93fb",
      "hash": "b85a30be9b65f3e4b37e8b1f00a01419828ea8f4b52eb011f5cb52c770ef93fb",
      "version": 1,
      "size": 135,
      "vsize": 135,
      "weight": 540,
      "locktime": 0,
      "vin": [
        {
          "coinbase": "04ffff001d021d01",
          "sequence": 4294967295
        }
      ],
      "vout": [
        {
          "value": 50.0,
          "n": 0,
          "scriptPubKey": {
            "asm": "0400584362876bd3445b2f04edcdc4d5f28e2a95bda537dc4fd3bd0e672de5252718c86f0ac82fd187a2b453710134a6aeb37c638233268184fd4864ccd3b958b9 OP_CHECKSIG",
            "desc": "pk(0400584362876bd3445b2f04edcdc4d5f28e2a95bda537dc4fd3bd0e672de5252718c86f0ac82fd187a2b453710134a6aeb37c638233268184fd4864ccd3b958b9)#v8zdrclp",
            "hex": "410400584362876bd3445b2f04edcdc4d5f28e2a95bda537dc4fd3bd0e672de5252718c86f0ac82fd187a2b453710134a6aeb37c638233268184fd4864ccd3b958b9ac",
            "type": "pubkey"
          }
        }
      ],
      "hex": "01000000010000000000000000000000000000000000000000000000000000000000000000ffffffff0804ffff001d021d01ffffffff0100f2052a0100000043410400584362876bd3445b2f04edcdc4d5f28e2a95bda537dc4fd3bd0e672de5252718c86f0ac82fd187a2b453710134a6aeb37c638233268184fd4864ccd3b958b9ac00000000"
    }
  ]
}