{
  "hash": "00000000f40693b2d6f621092e62fe108d93893dce7589609e316b0288ca8e69",
  "confirmations": 45584,
  "height": 7514,
  "version": 1,
  "versionHex": "00000001",
  "merkleroot": "2e0d3b43ab81a7ad1abf0be9ba42df2a488af5c53bf96e82da5742d666ac6849",
  "time": 1237106440,
  "mediantime": 1237102817,
  "nonce": 8319610,
  "bits": "1d00ffff",
  "difficulty": 1,
  "chainwork": "00000000000000000000000000000000000000000000000000001d5b1d5b1d5b",
  "nTx": 1,
  "previousblockhash": "00000000c1c4b4f6b017224e8c0592225036327896d9c08f7ec90cc68d034e6d",
  "nextblockhash": "000000009644cb78cc9e69845adb7bcb6840f5077f259854dda255f722576cc8",
  "strippedsize": 216,
  "size": 216,
  "weight": 864,
  "tx": [
    {
      "txid": "2e0d3b43ab81a7ad1abf0be9ba42df2a488af5c53bf96e82da5742d666ac6849",
      "hash": "2e0d3b43ab81a7ad1abf0be9ba42df2a488af5c53bf96e82da5742d666ac6849",
      "version": 1,
      "size": 135,
      "vsize": 135,
      "weight": 540,
      "locktime": 0,
      "vin": [
        {
          "coinbase": "04ffff001d02f802",
          "sequence": 4294967295
        }
      ],
      "vout": [
        {
          "value": 50.0,
          "n": 0,
          "scriptPubKey": {
            "asm": "048dda05d2256a2e45f1ff0838ac50f7ae48aba1dfe2ce245c50fdb4d70c09e9fe487be9297afe9006ab6923fb6992d2805ed46be89c689fbc030ba008dd54facc OP_CHECKSIG",
            "desc": "pk(048dda05d2256a2e45f1ff0838ac50f7ae48aba1dfe2ce245c50fdb4d70c09e9fe487be9297afe9006ab6923fb6992d2805ed46be89c689fbc030ba008dd54facc)#eye2270h",
            "hex": "41048dda05d2256a2e45f1ff0838ac50f7ae48aba1dfe2ce245c50fdb4d70c09e9fe487be9297afe9006ab6923fb6992d2805ed46be89c689fbc030ba008dd54faccac",
            "type": "pubkey"
          }
        }
      ],
      "hex": "01000000010000000000000000000000000000000000000000000000000000000000000000ffffffff0804ffff001d02f802ffffffff0100f2052a010000004341048dda05d2256a2e45f1ff0838ac50f7ae48aba1dfe2ce245c50fdb4d70c09e9fe487be9297afe9006ab6923fb6992d2805ed46be89c689fbc030ba008dd54faccac00000000"
    }
  ]
}