{
  "hash": "00000000e7e14180e1bcd82aff7fba4a4874a4028c4beb1e9de18ed2404b4d30",
  "confirmations": 51808,
  "height": 1290,
  "version": 1,
  "versionHex": "00000001",
  "merkleroot": "db7429f445e8b7acfcb40367872f80d193a87a36a0dd94cda607b29d5b196764",
  "time": 1232566708,
  "mediantime": 1232563860,
  "nonce": 2355082295,
  "bits": "1d00ffff",
  "difficulty": 1,
  "chainwork": "0000000000000000000000000000000000000000000000000000050b050b050b",
  "nTx": 1,
  "previousblockhash": "000000003a6b3441232f2091256865b88a73eb913728bf8c06a1c3c212bece8c",
  "nextblockhash": "000000000e62271197b63b2ead7af125aa9668b6d412133736f18d90b72c183e",
  "strippedsize": 216,
  "size": 216,
  "weight": 864,
  "tx": [
    {
      "txid": "db7429f445e8b7acfcb40367872f80d193a87a36a0dd94cda607b29d5b196764",
      "hash": "db7429f445e8b7acfcb40367872f80d193a87a36a0dd94cda607b29d5b196764",
      "version": 1,
      "size": 135,
      "vsize": 135,
      "weight": 540,
      "locktime": 0,
      "vin": [
        {
          "coinbase": "04ffff001d021f0a",
          "sequence": 4294967295
        }
      ],
      "vout": [
        {
          "value": 50.0,
          "n": 0,
          "scriptPubKey": {
            "asm": "0439355e233ae2bab1116adc8fd093b451a83f6ea3a137bafb801475ed42dfbc50250955614e99dfb0e1c77d822f14e3f76af2c054abfcd4b38f6ad38d3806e847 OP_CHECKSIG",
            "desc": "pk(0439355e233ae2bab1116adc8fd093b451a83f6ea3a137bafb801475ed42dfbc50250955614e99dfb0e1c77d822f14e3f76af2c054abfcd4b38f6ad38d3806e847)#2fhe0sa2",
            "hex": "410439355e233ae2bab1116adc8fd093b451a83f6ea3a137bafb801475ed42dfbc50250955614e99dfb0e1c77d822f14e3f76af2c054abfcd4b38f6ad38d3806e847ac",
            "type": "pubkey"
          }
        }
      ],
      "hex": "01000000010000000000000000000000000000000000000000000000000000000000000000ffffffff0804ffff001d021f0affffffff0100f2052a0100000043410439355e233ae2bab1116adc8fd093b451a83f6ea3a137bafb801475ed42dfbc50250955614e99dfb0e1c77d822f14e3f76af2c054abfcd4b38f6ad38d3806e847ac00000000"
    }
  ]
}