{
  "hash": "00000000885246c633ede610ff5837b77e50bc15143db185d956a89dd20db945",
  "confirmations": 48939,
  "height": 4159,
  "version": 1,
  "versionHex": "00000001",
  "merkleroot": "0c3d1311f43074675c7506e6e40d8115df39502782c455332bd7aae66f0d0d21",
  "time": 1234554027,
  "mediantime": 1234551737,
  "nonce": 78612682,
  "bits": "1d00ffff",
  "difficulty": 1,
  "chainwork": "0000000000000000000000000000000000000000000000000000104010401040",
  "nTx": 1,
  "previousblockhash": "0000000056098e866a30a6ab016229703b4ba631c3c95389cae1b21aeb789586",
  "nextblockhash": "00000000632eb42f520db5b639ef966aa5df61b2a196b70134e2f6ea0db234af",
  "strippedsize": 215,
  "size": 215,
  "weight": 860,
  "tx": [
    {
      "txid": "0c3d1311f43074675c7506e6e40d8115df39502782c455332bd7aae66f0d0d21",
      "hash": "0c3d1311f43074675c7506e6e40d8115df39502782c455332bd7aae66f0d0d21",
      "version": 1,
      "size": 134,
      "vsize": 134,
      "weight": 536,
      "locktime": 0,
      "vin": [
        {
          "coinbase": "04ffff001d0128",
          "sequence": 4294967295
        }
      ],
      "vout": [
        {
          "value": 50.0,
          "n": 0,
          "scriptPubKey": {
            "asm": "04ff58f44264a2e504630eef55e2f56b515f5f54ddb1c6d756413fdae3516685fb1b1494807af758a84b99487a50f734cbf91a905b2aae42a82303647abac346db OP_CHECKSIG",
            "desc": "pk(04ff58f44264a2e504630eef55e2f56b515f5f54ddb1c6d756413fdae3516685fb1b1494807af758a84b99487a50f734cbf91a905b2aae42a82303647abac346db)#8myzl5jm",
            "hex": "4104ff58f44264a2e504630eef55e2f56b515f5f54ddb1c6d756413fdae3516685fb1b1494807af758a84b99487a50f734cbf91a905b2aae42a82303647abac346dbac",
            "type": "pubkey"
          }
        }
      ],
      "hex": "01000000010000000000000000000000000000000000000000000000000000000000000000ffffffff0704ffff001d0128ffffffff0100f2052a01000000434104ff58f44264a2e504630eef55e2f56b515f5f54ddb1c6d756413fdae3516685fb1b1494807af758a84b99487a50f734cbf91a905b2aae42a82303647abac346dbac00000000"
    }
  ]
}