{
  "hash": "00000000e21e0a8b165db2ab777088ac1e8872870751f7e9f66bcac95e4d0bbc",
  "confirmations": 52277,
  "height": 821,
  "version": 1,
  "versionHex": "00000001",
  "merkleroot": "6700d2bae7901897a00fae25044fb19c1f3c2dac07deac8a7ff5bff4efbb51d4",
  "time": 1232208241,
  "mediantime": 1232204591,
  "nonce": 20190514,
  "bits": "1d00ffff",
  "difficulty": 1,
  "chainwork": "0000000000000000000000000000000000000000000000000000033603360336",
  "nTx": 1,
  "previousblockhash": "00000000887d1fe5c13d7f73e8a449dafd2b2748bb55e4510526c9dbb9eebf09",
  "nextblockhash": "0000000073164bbac990536ee07ec634a5c847ddeb92f3bc415f6edef69c959d",
  "strippedsize": 215,
  "size": 215,
  "weight": 860,
  "tx": [
    {
      "txid": "6700d2bae7901897a00fae25044fb19c1f3c2dac07deac8a7ff5bff4efbb51d4",
      "hash": "6700d2bae7901897a00fae25044fb19c1f3c2dac07deac8a7ff5bff4efbb51d4",
      "version": 1,
      "size": 134,
      "vsize": 134,
      "weight": 536,
      "locktime": 0,
      "vin": [
        {
          "coinbase": "04ffff001d010a",
          "sequence": 4294967295
        }
      ],
      "vout": [
        {
          "value": 50.0,
          "n": 0,
          "scriptPubKey": {
            "asm": "04c6d71555d302f78bb392191892e61c1dfd877a0c15aa4963701b669eed6a6dd342c7afa1e8ca0e43dbc2d14a36a19387d07f270d7bbe4bafbb6cb626b6725773 OP_CHECKSIG",
            "desc": "pk(04c6d71555d302f78bb392191892e61c1dfd877a0c15aa4963701b669eed6a6dd342c7afa1e8ca0e43dbc2d14a36a19387d07f270d7bbe4bafbb6cb626b6725773)#qgd46wc0",
            "hex": "4104c6d71555d302f78bb392191892e61c1dfd877a0c15aa4963701b669eed6a6dd342c7afa1e8ca0e43dbc2d14a36a19387d07f270d7bbe4bafbb6cb626b6725773ac",
            "type": "pubkey"
          }
        }
      ],
      "hex": "01000000010000000000000000000000000000000000000000000000000000000000000000ffffffff0704ffff001d010affffffff0100f2052a01000000434104c6d71555d302f78bb392191892e61c1dfd877a0c15aa4963701b669eed6a6dd342c7afa1e8ca0e43dbc2d14a36a19387d07f270d7bbe4bafbb6cb626b6725773ac00000000"
    }
  ]
}