{
  "hash": "000000000f2b003e482894378076f61d678811cd9206333f80da3482884c66c1",
  "confirmations": 47757,
  "height": 5341,
  "version": 1,
  "versionHex": "00000001",
  "merkleroot": "10b70db087b4314bb5a66768336104891c47c205b56846fa53f4cf2360082e7e",
  "time": 1235396655,
  "mediantime": 1235392961,
  "nonce": 142419921,
  "bits": "1d00ffff",
  "difficulty": 1,
  "chainwork": "000000000000000000000000000000000000000000000000000014de14de14de",
  "nTx": 1,
  "previousblockhash": "000000001b6ba78b9f23da0a6154a006d63e13e81e5cae8dc3d43f2db64b74a6",
  "nextblockhash": "0000000011c6402717798fd7fd4ac1c92d615e301ed313ceb37b57543b53bf5e",
  "strippedsize": 216,
  "size": 216,
  "weight": 864,
  "tx": [
    {
      "txid": "10b70db087b4314bb5a66768336104891c47c205b56846fa53f4cf2360082e7e",
      "hash": "10b70db087b4314bb5a66768336104891c47c205b56846fa53f4cf2360082e7e",
      "version": 1,
      "size": 135,
      "vsize": 135,
      "weight": 540,
      "locktime": 0,
      "vin": [
        {
          "coinbase": "04ffff001d02bb00",
          "sequence": 4294967295
        }
      ],
      "vout": [
        {
          "value": 50.0,
          "n": 0,
          "scriptPubKey": {
            "asm": "04468ba125b78634b9abb6d93c2e52ad2bd89ed1437261f9d0566bbeae793fd560e25574b46d86c975d5ed2864ef913568f681ccf98a7211c99022335e2ee10fd3 OP_CHECKSIG",
            "desc": "pk(04468ba125b78634b9abb6d93c2e52ad2bd89ed1437261f9d0566bbeae793fd560e25574b46d86c975d5ed2864ef913568f681ccf98a7211c99022335e2ee10fd3)#f2529qpk",
            "hex": "4104468ba125b78634b9abb6d93c2e52ad2bd89ed1437261f9d0566bbeae793fd560e25574b46d86c975d5ed2864ef913568f681ccf98a7211c99022335e2ee10fd3ac",
            "type": "pubkey"
          }
        }
      ],
      "hex": "01000000010000000000000000000000000000000000000000000000000000000000000000ffffffff0804ffff001d02bb00ffffffff0100f2052a01000000434104468ba125b78634b9abb6d93c2e52ad2bd89ed1437261f9d0566bbeae793fd560e25574b46d86c975d5ed2864ef913568f681ccf98a7211c99022335e2ee10fd3ac00000000"
    }
  ]
}