{
  "hash": "00000000f882479c6dde4f383a80754b7c95a9587374ca0dc80a95b45ffabc7d",
  "confirmations": 43933,
  "height": 9165,
  "version": 1,
  "versionHex": "00000001",
  "merkleroot": "52d72b83a3f765dfab3fbcb6d88b8510834e0b454931aa10ae54fa26ce0a4391",
  "time": 1238375124,
  "mediantime": 1238371353,
  "nonce": 938465848,
  "bits": "1d00ffff",
  "difficulty": 1,
  "chainwork": "000000000000000000000000000000000000000000000000000023ce23ce23ce",
  "nTx": 1,
  "previousblockhash": "00000000b9c5ea6944de09d7ce8fced015ecc0784884743ec09ecaae17cd7220",
  "nextblockhash": "0000000019778aeb88ca3218c0c400a9ec8941071d4c441ac3ee57954b3025e4",
  "strippedsize": 216,
  "size": 216,
  "weight": 864,
  "tx": [
    {
      "txid": "52d72b83a3f765dfab3fbcb6d88b8510834e0b454931aa10ae54fa26ce0a4391",
      "hash": "52d72b83a3f765dfab3fbcb6d88b8510834e0b454931aa10ae54fa26ce0a4391",
      "version": 1,
      "size": 135,
      "vsize": 135,
      "weight": 540,
      "locktime": 0,
      "vin": [
        {
          "coinbase": "04ffff001d02a909",
          "sequence": 4294967295
        }
      ],
      "vout": [
        {
          "value": 50.0,
          "n": 0,
          "scriptPubKey": {
            "asm": "0497677dd8218773a8537a56175630a0b60e0d78a2b1945d9889b31797b04f5f03fc8b75861d10e6f4c31f5f54fdb61b1c29fc93642c1058f751b3cf1ccb6adf5d OP_CHECKSIG",
            "desc": "pk(0497677dd8218773a8537a56175630a0b60e0d78a2b1945d9889b31797b04f5f03fc8b75861d10e6f4c31f5f54fdb61b1c29fc93642c1058f751b3cf1ccb6adf5d)#62jhu5cd",
            "hex": "410497677dd8218773a8537a56175630a0b60e0d78a2b1945d9889b31797b04f5f03fc8b75861d10e6f4c31f5f54fdb61b1c29fc93642c1058f751b3cf1ccb6adf5dac",
            "type": "pubkey"
          }
        }
      ],
      "hex": "01000000010000000000000000000000000000000000000000000000000000000000000000ffffffff0804ffff001d02a909ffffffff0100f2052a0100000043410497677dd8218773a8537a56175630a0b60e0d78a2b1945d9889b31797b04f5f03fc8b75861d10e6f4c31f5f54fdb61b1c29fc93642c1058f751b3cf1ccb6adf5dac00000000"
    }
  ]
}