{
  "hash": "00000000b583e20926b44097182e857a95f2127b3e8fab626364b1fb4e9453c2",
  "confirmations": 45102,
  "height": 7996,
  "version": 1,
  "versionHex": "00000001",
  "merkleroot": "7357f4bb2900b9769377e04a5a75d5070db9e60169f5329e6f67e38130f961a8",
  "time": 1237460784,
  "mediantime": 1237457185,
  "nonce": 241943221,
  "bits": "1d00ffff",
  "difficulty": 1,
  "chainwork": "00000000000000000000000000000000000000000000000000001f3d1f3d1f3d",
  "nTx": 1,
  "previousblockhash": "000000002a8ab9346f438588ff09c25a4b12e632cbae4ad54164ba5ea121cbe5",
  "nextblockhash": "00000000e5179e553f69a7a8eb44fb186518d98ea6e14dc7f5797087f3f60a92",
  "strippedsize": 216,
  "size": 216,
  "weight": 864,
  "tx": [
    {
      "txid": "7357f4bb2900b9769377e04a5a75d5070db9e60169f5329e6f67e38130f961a8",
      "hash": "7357f4bb2900b9769377e04a5a75d5070db9e60169f5329e6f67e38130f961a8",
      "version": 1,
      "size": 135,
      "vsize": 135,
      "weight": 540,
      "locktime": 0,
      "vin": [
        {
          "coinbase": "04ffff001d029200",
          "sequence": 4294967295
        }
      ],
      "vout": [
        {
          "value": 50.0,
          "n": 0,
          "scriptPubKey": {
            "asm": "04c9fbe79c86d097fbd647a812043cc714a639df169cc3a52e89c9343d9fd59b88c2eb81ad9bc43fe3135c9eff0932eea1ac7c1711b578c1327f609b3210bcbdef OP_CHECKSIG",
            "desc": "pk(04c9fbe79c86d097fbd647a812043cc714a639df169cc3a52e89c9343d9fd59b88c2eb81ad9bc43fe3135c9eff0932eea1ac7c1711b578c1327f609b3210bcbdef)#gvpms2a3",
            "hex": "4104c9fbe79c86d097fbd647a812043cc714a639df169cc3a52e89c9343d9fd59b88c2eb81ad9bc43fe3135c9eff0932eea1ac7c1711b578c1327f609b3210bcbdefac",
            "type": "pubkey"
          }
        }
      ],
      "hex": "01000000010000000000000000000000000000000000000000000000000000000000000000ffffffff0804ffff001d029200ffffffff0100f2052a01000000434104c9fbe79c86d097fbd647a812043cc714a639df169cc3a52e89c9343d9fd59b88c2eb81ad9bc43fe3135c9eff0932eea1ac7c1711b578c1327f609b3210bcbdefac00000000"
    }
  ]
}