{
  "hash": "0000000091d29877d6403e3aa31282cbd39952661ad99ecbbb484f937b387b97",
  "confirmations": 44507,
  "height": 8591,
  "version": 1,
  "versionHex": "00000001",
  "merkleroot": "52e11489376e446a233f90f0c444cb3cf848acfafe026dd1a597e50d1a8dafa6",
  "time": 1237944511,
  "mediantime": 1237939764,
  "nonce": 1959903276,
  "bits": "1d00ffff",
  "difficulty": 1,
  "chainwork": "0000000000000000000000000000000000000000000000000000219021902190",
  "nTx": 1,
  "previousblockhash": "000000007be7f961cd64a241a97063a57c4c5ff89a8684433c3fb581d942c604",
  "nextblockhash": "0000000091a5658316c76291966d496f1ac3ace20ac937ccf02459f896806031",
  "strippedsize": 216,
  "size": 216,
  "weight": 864,
  "tx": [
    {
      "txid": "52e11489376e446a233f90f0c444cb3cf848acfafe026dd1a597e50d1a8dafa6",
      "hash": "52e11489376e446a233f90f0c444cb3cf848acfafe026dd1a597e50d1a8dafa6",
      "version": 1,
      "size": 135,
      "vsize": 135,
      "weight": 540,
      "locktime": 0,
      "vin": [
        {
          "coinbase": "04ffff001d026d09",
          "sequence": 4294967295
        }
      ],
      "vout": [
        {
          "value": 50.0,
          "n": 0,
          "scriptPubKey": {
            "asm": "040947e8f7210002260ed0d5b2a72b62e2b992eb71e2ba3351ac2eb133bdaff57c368c07e826cf2190e25e9b8eebf67d0b28991b4bf42e02f1e12992a9c2f9f96f OP_CHECKSIG",
            "desc": "pk(040947e8f7210002260ed0d5b2a72b62e2b992eb71e2ba3351ac2eb133bdaff57c368c07e826cf2190e25e9b8eebf67d0b28991b4bf42e02f1e12992a9c2f9f96f)#lm9j2g7d",
            "hex": "41040947e8f7210002260ed0d5b2a72b62e2b992eb71e2ba3351ac2eb133bdaff57c368c07e826cf2190e25e9b8eebf67d0b28991b4bf42e02f1e12992a9c2f9f96fac",
            "type": "pubkey"
          }
        }
      ],
      "hex": "01000000010000000000000000000000000000000000000000000000000000000000000000ffffffff0804ffff001d026d09ffffffff0100f2052a010000004341040947e8f7210002260ed0d5b2a72b62e2b992eb71e2ba3351ac2eb133bdaff57c368c07e826cf2190e25e9b8eebf67d0b28991b4bf42e02f1e12992a9c2f9f96fac00000000"
    }
  ]
}