{
  "hash": "00000000d057dbfef14efa6bd5f7d1e2a180c9b40c0ee4f71cfe1afd87debc61",
  "confirmations": 47760,
  "height": 5338,
  "version": 1,
  "versionHex": "00000001",
  "merkleroot": "71417e70961fab7f58310c57250686cab6f9d18bbdd1af558b4ea02221b80c24",
  "time": 1235395389,
  "mediantime": 1235390071,
  "nonce": 514902822,
  "bits": "1d00ffff",
  "difficulty": 1,
  "chainwork": "000000000000000000000000000000000000000000000000000014db14db14db",
  "nTx": 1,
  "previousblockhash": "0000000056867a9a01b46242f15e891d94531ac53caa8bc73eeac3e1c440bc41",
  "nextblockhash": "00000000c1699a2d6d7ed42822b2a831bec0a3746fc842497562b1b59d7f6075",
  "strippedsize": 216,
  "size": 216,
  "weight": 864,
  "tx": [
    {
      "txid": "71417e70961fab7f58310c57250686cab6f9d18bbdd1af558b4ea02221b80c24",
      "hash": "71417e70961fab7f58310c57250686cab6f9d18bbdd1af558b4ea02221b80c24",
      "version": 1,
      "size": 135,
      "vsize": 135,
      "weight": 540,
      "locktime": 0,
      "vin": [
        {
          "coinbase": "04ffff001d029e02",
          "sequence": 4294967295
        }
      ],
      "vout": [
        {
          "value": 50.0,
          "n": 0,
          "scriptPubKey": {
            "asm": "04a9c50dff947c9c00f04bc6a3b7cdc7b6b59c81c27bf74dddf858bebc51f1a0b19168ba3a615e2c9ffacbe8fb08f4225af7b773cb2c7f8e238a19856c6ee8e833 OP_CHECKSIG",
            "desc": "pk(04a9c50dff947c9c00f04bc6a3b7cdc7b6b59c81c27bf74dddf858bebc51f1a0b19168ba3a615e2c9ffacbe8fb08f4225af7b773cb2c7f8e238a19856c6ee8e833)#e6plr9lw",
            "hex": "4104a9c50dff947c9c00f04bc6a3b7cdc7b6b59c81c27bf74dddf858bebc51f1a0b19168ba3a615e2c9ffacbe8fb08f4225af7b773cb2c7f8e238a19856c6ee8e833ac",
            "type": "pubkey"
          }
        }
      ],
      "hex": "01000000010000000000000000000000000000000000000000000000000000000000000000ffffffff0804ffff001d029e02ffffffff0100f2052a01000000434104a9c50dff947c9c00f04bc6a3b7cdc7b6b59c81c27bf74dddf858bebc51f1a0b19168ba3a615e2c9ffacbe8fb08f4225af7b773cb2c7f8e238a19856c6ee8e833ac00000000"
    }
  ]
}