{
  "hash": "0000000079f9e79fd7c741bf261b712379495dc62d06eca38884e7aaf3887884",
  "confirmations": 48275,
  "height": 4823,
  "version": 1,
  "versionHex": "00000001",
  "merkleroot": "9f2ffeda17d782b37952456f074662e16cb4639574962efd484cfe6145aa6ac3",
  "time": 1235015146,
  "mediantime": 1235011847,
  "nonce": 1666342177,
  "bits": "1d00ffff",
  "difficulty": 1,
  "chainwork": "000000000000000000000000000000000000000000000000000012d812d812d8",
  "nTx": 1,
  "previousblockhash": "0000000067d925aef445c31994026ba9b6d4d2d4022fd04f4111a3fa7e2b2627",
  "nextblockhash": "000000008a49bf503cbdf8c5016927183ab252673dcde3b552a2441f6c4b5829",
  "strippedsize": 216,
  "size": 216,
  "weight": 864,
  "tx": [
    {
      "txid": "9f2ffeda17d782b37952456f074662e16cb4639574962efd484cfe6145aa6ac3",
      "hash": "9f2ffeda17d782b37952456f074662e16cb4639574962efd484cfe6145aa6ac3",
      "version": 1,
      "size": 135,
      "vsize": 135,
      "weight": 540,
      "locktime": 0,
      "vin": [
        {
          "coinbase": "04ffff001d02a104",
          "sequence": 4294967295
        }
      ],
      "vout": [
        {
          "value": 50.0,
          "n": 0,
          "scriptPubKey": {
            "asm": "045e5e0b9a80b66b5e80bd49bc7951ac2c97298672649bd51db4a35463802718287bbb240105f906282d9e868d0e238af7271d088d2abcd95d4b9a51deabf4d56a OP_CHECKSIG",
            "desc": "pk(045e5e0b9a80b66b5e80bd49bc7951ac2c97298672649bd51db4a35463802718287bbb240105f906282d9e868d0e238af7271d088d2abcd95d4b9a51deabf4d56a)#ymhlf664",
            "hex": "41045e5e0b9a80b66b5e80bd49bc7951ac2c97298672649bd51db4a35463802718287bbb240105f906282d9e868d0e238af7271d088d2abcd95d4b9a51deabf4d56aac",
            "type": "pubkey"
          }
        }
      ],
      "hex": "01000000010000000000000000000000000000000000000000000000000000000000000000ffffffff0804ffff001d02a104ffffffff0100f2052a010000004341045e5e0b9a80b66b5e80bd49bc7951ac2c97298672649bd51db4a35463802718287bbb240105f906282d9e868d0e238af7271d088d2abcd95d4b9a51deabf4d56aac00000000"
    }
  ]
}