{
  "hash": "0000000042e0f3fb820bbb0eb033d0e3ea6ac8a22244100442b47b421c15eafb",
  "confirmations": 52168,
  "height": 930,
  "version": 1,
  "versionHex": "00000001",
  "merkleroot": "4cbab81837d6d51fdcf68f4c447a8ddfdcd31b8cde7bbe480815a3479b6e987b",
  "time": 1232299798,
  "mediantime": 1232295430,
  "nonce": 2004129284,
  "bits": "1d00ffff",
  "difficulty": 1,
  "chainwork": "000000000000000000000000000000000000000000000000000003a303a303a3",
  "nTx": 1,
  "previousblockhash": "00000000901b87d55132395401d2c3786df02654890c9506101c39a918c2730c",
  "nextblockhash": "00000000da6e80599108dbb4d23ede0fc8fb45adc3d974ada0742786ad5008a9",
  "strippedsize": 216,
  "size": 216,
  "weight": 864,
  "tx": [
    {
      "txid": "4cbab81837d6d51fdcf68f4c447a8ddfdcd31b8cde7bbe480815a3479b6e987b",
      "hash": "4cbab81837d6d51fdcf68f4c447a8ddfdcd31b8cde7bbe480815a3479b6e987b",
      "version": 1,
      "size": 135,
      "vsize": 135,
      "weight": 540,
      "locktime": 0,
      "vin": [
        {
          "coinbase": "04ffff001d021404",
          "sequence": 4294967295
        }
      ],
      "vout": [
        {
          "value": 50.0,
          "n": 0,
          "scriptPubKey": {
            "asm": "04f3fc72ed16af7c9cb173fc0c9965117736dc98a4fc36513f09523003384ca976ebd5cafd81ddc85e6a018bc0c3b4530df9bf3b0829c3ea22f495f82020529a41 OP_CHECKSIG",
            "desc": "pk(04f3fc72ed16af7c9cb173fc0c9965117736dc98a4fc36513f09523003384ca976ebd5cafd81ddc85e6a018bc0c3b4530df9bf3b0829c3ea22f495f82020529a41)#xqsze5w8",
            "hex": "4104f3fc72ed16af7c9cb173fc0c9965117736dc98a4fc36513f09523003384ca976ebd5cafd81ddc85e6a018bc0c3b4530df9bf3b0829c3ea22f495f82020529a41ac",
            "type": "pubkey"
          }
        }
      ],
      "hex": "01000000010000000000000000000000000000000000000000000000000000000000000000ffffffff0804ffff001d021404ffffffff0100f2052a01000000434104f3fc72ed16af7c9cb173fc0c9965117736dc98a4fc36513f09523003384ca976ebd5cafd81ddc85e6a018bc0c3b4530df9bf3b0829c3ea22f495f82020529a41ac00000000"
    }
  ]
}