{
  "hash": "0000000085cc80ed72c5f995a58c0008e4c3c3ca8b41052aa7aecde8729202e6",
  "confirmations": 43661,
  "height": 9437,
  "version": 1,
  "versionHex": "00000001",
  "merkleroot": "fa20800b2bb4c2aa56a78d5d8734f5cf7c2562e65f4f5c19bebd5994ea6aaef9",
  "time": 1238582347,
  "mediantime": 1238578470,
  "nonce": 2415514649,
  "bits": "1d00ffff",
  "difficulty": 1,
  "chainwork": "000000000000000000000000000000000000000000000000000024de24de24de",
  "nTx": 1,
  "previousblockhash": "00000000f7ff777cab5df46c0c7121b09254aa85f10e92fac0472e12f92487ee",
  "nextblockhash": "000000007679597eb5c88ab61ea36dbbdbe94516d3778ab6ae289822345e8403",
  "strippedsize": 216,
  "size": 216,
  "weight": 864,
  "tx": [
    {
      "txid": "fa20800b2bb4c2aa56a78d5d8734f5cf7c2562e65f4f5c19bebd5994ea6aaef9",
      "hash": "fa20800b2bb4c2aa56a78d5d8734f5cf7c2562e65f4f5c19bebd5994ea6aaef9",
      "version": 1,
      "size": 135,
      "vsize": 135,
      "weight": 540,
      "locktime": 0,
      "vin": [
        {
          "coinbase": "04ffff001d025c04",
          "sequence": 4294967295
        }
      ],
      "vout": [
        {
          "value": 50.0,
          "n": 0,
          "scriptPubKey": {
            "asm": "04456452a54abcbdd27540251f3713d48788848cd6e471a55bc580360371b10880223316f8403e9324b8bdec07ec2c5e7383c4bd267915a5f94735dc7569b47ec3 OP_CHECKSIG",
            "desc": "pk(04456452a54abcbdd27540251f3713d48788848cd6e471a55bc580360371b10880223316f8403e9324b8bdec07ec2c5e7383c4bd267915a5f94735dc7569b47ec3)#6e9rx62k",
            "hex": "4104456452a54abcbdd27540251f3713d48788848cd6e471a55bc580360371b10880223316f8403e9324b8bdec07ec2c5e7383c4bd267915a5f94735dc7569b47ec3ac",
            "type": "pubkey"
          }
        }
      ],
      "hex": "01000000010000000000000000000000000000000000000000000000000000000000000000ffffffff0804ffff001d025c04ffffffff0100f2052a01000000434104456452a54abcbdd27540251f3713d48788848cd6e471a55bc580360371b10880223316f8403e9324b8bdec07ec2c5e7383c4bd267915a5f94735dc7569b47ec3ac00000000"
    }
  ]
}