{
  "hash": "00000000a99525c043fd7e323414b60add43c254c44860094048f9c01e9a5fdd",
  "confirmations": 52366,
  "height": 506,
  "version": 1,
  "versionHex": "00000001",
  "merkleroot": "282b861e411dc3b61aa06e9e13abf49bce5c571e21a19c37f738244cee33b778",
  "time": 1231973609,
  "mediantime": 1231969111,
  "nonce": 74941666,
  "bits": "1d00ffff",
  "difficulty": 1,
  "chainwork": "000000000000000000000000000000000000000000000000000001fb01fb01fb",
  "nTx": 1,
  "previousblockhash": "0000000047f69498e89dac1ceb3fc1b0cbfdfbd0e463aeec97ab8ddaf7103c87",
  "nextblockhash": "000000001c6aeec19265e9cc3ded8ba5ef5e63fae7747f30bf9c02c7bc8883f0",
  "strippedsize": 215,
  "size": 215,
  "weight": 860,
  "tx": [
    {
      "txid": "282b861e411dc3b61aa06e9e13abf49bce5c571e21a19c37f738244cee33b778",
      "hash": "282b861e411dc3b61aa06e9e13abf49bce5c571e21a19c37f738244cee33b778",
      "version": 1,
      "size": 134,
      "vsize": 134,
      "weight": 536,
      "locktime": 0,
      "vin": [
        {
          "coinbase": "04ffff001d010b",
          "sequence": 4294967295
        }
      ],
      "vout": [
        {
          "value": 50.0,
          "n": 0,
          "scriptPubKey": {
            "asm": "0480b412face904ee2993e5846328fa538411accaf20961ae0ca2880077802158b9df38f7c11bf78b0bca275035165c2b2889315ffefa05ea7b4b405c4e6d22244 OP_CHECKSIG",
            "desc": "pk(0480b412face904ee2993e5846328fa538411accaf20961ae0ca2880077802158b9df38f7c11bf78b0bca275035165c2b2889315ffefa05ea7b4b405c4e6d22244)#dd8ewj42",
            "hex": "410480b412face904ee2993e5846328fa538411accaf20961ae0ca2880077802158b9df38f7c11bf78b0bca275035165c2b2889315ffefa05ea7b4b405c4e6d22244ac",
            "type": "pubkey"
          }
        }
      ],
      "hex": "01000000010000000000000000000000000000000000000000000000000000000000000000ffffffff0704ffff001d010bffffffff0100f2052a0100000043410480b412face904ee2993e5846328fa538411accaf20961ae0ca2880077802158b9df38f7c11bf78b0bca275035165c2b2889315ffefa05ea7b4b405c4e6d22244ac00000000"
    }
  ]
}