{
  "hash": "0000000013562603b4aadfcce524747ca80ba40b2ec18ab533b4ad697819e760",
  "confirmations": 52174,
  "height": 455,
  "version": 1,
  "versionHex": "00000001",
  "merkleroot": "cf2cb5e3b40ff2440afc5b6be6b16e180376dc2434c1bb651cc024db1488d1b5",
  "time": 1231940169,
  "mediantime": 1231936030,
  "nonce": 4230999596,
  "bits": "1d00ffff",
  "difficulty": 1,
  "chainwork": "000000000000000000000000000000000000000000000000000001c801c801c8",
  "nTx": 1,
  "previousblockhash": "00000000b0448e22fa4a6ff9f9b29c66c4934e1ccb0620bcdf2689453626933e",
  "nextblockhash": "000000008356bc1b035b437792093959059a7ca312a576313bdaf2610b3124c5",
  "strippedsize": 216,
  "size": 216,
  "weight": 864,
  "tx": [
    {
      "txid": "cf2cb5e3b40ff2440afc5b6be6b16e180376dc2434c1bb651cc024db1488d1b5",
      "hash": "cf2cb5e3b40ff2440afc5b6be6b16e180376dc2434c1bb651cc024db1488d1b5",
      "version": 1,
      "size": 135,
      "vsize": 135,
      "weight": 540,
      "locktime": 0,
      "vin": [
        {
          "coinbase": "04ffff001d02bb03",
          "sequence": 4294967295
        }
      ],
      "vout": [
        {
          "value": 50.0,
          "n": 0,
          "scriptPubKey": {
            "asm": "04254c95c029dc240bb165c9ef2359c357125edcdd5011ae319f592fc0c882f1446aed60eff65775c04cc555546b8ee4f00fee8249aca01cd5993d00edeec3e89f OP_CHECKSIG",
            "desc": "pk(04254c95c029dc240bb165c9ef2359c357125edcdd5011ae319f592fc0c882f1446aed60eff65775c04cc555546b8ee4f00fee8249aca01cd5993d00edeec3e89f)#6hdfw28w",
            "hex": "4104254c95c029dc240bb165c9ef2359c357125edcdd5011ae319f592fc0c882f1446aed60eff65775c04cc555546b8ee4f00fee8249aca01cd5993d00edeec3e89fac",
            "type": "pubkey"
          }
        }
      ],
      "hex": "01000000010000000000000000000000000000000000000000000000000000000000000000ffffffff0804ffff001d02bb03ffffffff0100f2052a01000000434104254c95c029dc240bb165c9ef2359c357125edcdd5011ae319f592fc0c882f1446aed60eff65775c04cc555546b8ee4f00fee8249aca01cd5993d00edeec3e89fac00000000"
    }
  ]
}