{
  "hash": "000000007bec27af36b7288c899fdb6c390bd522e5644b1a1e0aeb480f820ebe",
  "confirmations": 47321,
  "height": 5777,
  "version": 1,
  "versionHex": "00000001",
  "merkleroot": "009aa3387486b6c9d3fec76031c67442c2866b6eec8b823bc480020ecd088f9b",
  "time": 1235742608,
  "mediantime": 1235739268,
  "nonce": 111244008,
  "bits": "1d00ffff",
  "difficulty": 1,
  "chainwork": "0000000000000000000000000000000000000000000000000000169216921692",
  "nTx": 1,
  "previousblockhash": "00000000056b9bb9760b7f3323c4e8699394b24f83dbb22eacf7759bba704eec",
  "nextblockhash": "00000000a9b50f6d9227a6b68dd7cf918316330ce775439992777c148bab00c3",
  "strippedsize": 216,
  "size": 216,
  "weight": 864,
  "tx": [
    {
      "txid": "009aa3387486b6c9d3fec76031c67442c2866b6eec8b823bc480020ecd088f9b",
      "hash": "009aa3387486b6c9d3fec76031c67442c2866b6eec8b823bc480020ecd088f9b",
      "version": 1,
      "size": 135,
      "vsize": 135,
      "weight": 540,
      "locktime": 0,
      "vin": [
        {
          "coinbase": "04ffff001d025408",
          "sequence": 4294967295
        }
      ],
      "vout": [
        {
          "value": 50.0,
          "n": 0,
          "scriptPubKey": {
            "asm": "0411cc4582337081cb559214db395eaf1f00c30d5a4f9b23f2af0b7471efdb8f448e93de49d023fb77dd9a288a4a2108b2bb9d0bed6e9694aaa541f3002d2228db OP_CHECKSIG",
            "desc": "pk(0411cc4582337081cb559214db395eaf1f00c30d5a4f9b23f2af0b7471efdb8f448e93de49d023fb77dd9a288a4a2108b2bb9d0bed6e9694aaa541f3002d2228db)#9m2y7z87",
            "hex": "410411cc4582337081cb559214db395eaf1f00c30d5a4f9b23f2af0b7471efdb8f448e93de49d023fb77dd9a288a4a2108b2bb9d0bed6e9694aaa541f3002d2228dbac",
            "type": "pubkey"
          }
        }
      ],
      "hex": "01000000010000000000000000000000000000000000000000000000000000000000000000ffffffff0804ffff001d025408ffffffff0100f2052a0100000043410411cc4582337081cb559214db395eaf1f00c30d5a4f9b23f2af0b7471efdb8f448e93de49d023fb77dd9a288a4a2108b2bb9d0bed6e9694aaa541f3002d2228dbac00000000"
    }
  ]
}