{
  "hash": "000000001c931571df64f8c2efb3a7f12e82fae99d2bdbf02c2262f6e5fe5bb5",
  "confirmations": 50004,
  "height": 3094,
  "version": 1,
  "versionHex": "00000001",
  "merkleroot": "f97e6d29e313cfe69859a03e944e4f5bec448e1d5e72f57d8e2637bf0a68fe29",
  "time": 1233830101,
  "mediantime": 1233826570,
  "nonce": 2065468194,
  "bits": "1d00ffff",
  "difficulty": 1,
  "chainwork": "00000000000000000000000000000000000000000000000000000c170c170c17",
  "nTx": 1,
  "previousblockhash": "00000000bd597f760d80147a29f1b59af24971b77431683c1f01ff6b7b1e30bb",
  "nextblockhash": "000000000214eb36bf98bd04284bfe1648029a63547a1bd52d5df90e5cc6f0f4",
  "strippedsize": 216,
  "size": 216,
  "weight": 864,
  "tx": [
    {
      "txid": "f97e6d29e313cfe69859a03e944e4f5bec448e1d5e72f57d8e2637bf0a68fe29",
      "hash": "f97e6d29e313cfe69859a03e944e4f5bec448e1d5e72f57d8e2637bf0a68fe29",
      "version": 1,
      "size": 135,
      "vsize": 135,
      "weight": 540,
      "locktime": 0,
      "vin": [
        {
          "coinbase": "04ffff001d021f01",
          "sequence": 4294967295
        }
      ],
      "vout": [
        {
          "value": 50.0,
          "n": 0,
          "scriptPubKey": {
            "asm": "0498be853064cb1930f9009bdca50cf1fedd9018b5de7eac67521e96c2c3fcc5e80daeba4f14a6d6e2e79a72c57a86d5290f3e277b142080bc689531bac764634b OP_CHECKSIG",
            "desc": "pk(0498be853064cb1930f9009bdca50cf1fedd9018b5de7eac67521e96c2c3fcc5e80daeba4f14a6d6e2e79a72c57a86d5290f3e277b142080bc689531bac764634b)#w8trvzpq",
            "hex": "410498be853064cb1930f9009bdca50cf1fedd9018b5de7eac67521e96c2c3fcc5e80daeba4f14a6d6e2e79a72c57a86d5290f3e277b142080bc689531bac764634bac",
            "type": "pubkey"
          }
        }
      ],
      "hex": "01000000010000000000000000000000000000000000000000000000000000000000000000ffffffff0804ffff001d021f01ffffffff0100f2052a0100000043410498be853064cb1930f9009bdca50cf1fedd9018b5de7eac67521e96c2c3fcc5e80daeba4f14a6d6e2e79a72c57a86d5290f3e277b142080bc689531bac764634bac00000000"
    }
  ]
}