{
  "hash": "00000000421d29a21be4046f75dcc1b9177886c7f230184fc9af919e81f85fb6",
  "confirmations": 47930,
  "height": 5168,
  "version": 1,
  "versionHex": "00000001",
  "merkleroot": "efd5726755382078e5b96cc28501a908e2c3a67d5fa1e2a301f23b32af6136ee",
  "time": 1235264083,
  "mediantime": 1235261103,
  "nonce": 79062046,
  "bits": "1d00ffff",
  "difficulty": 1,
  "chainwork": "0000000000000000000000000000000000000000000000000000143114311431",
  "nTx": 1,
  "previousblockhash": "00000000fc5780be430113cb160a5ea51efa6a66e62663a69621aadbb9036060",
  "nextblockhash": "0000000052546a7e00a7cd61ce068576f4ce8cfb41b32f8f73ad4d8210e1119f",
  "strippedsize": 216,
  "size": 216,
  "weight": 864,
  "tx": [
    {
      "txid": "efd5726755382078e5b96cc28501a908e2c3a67d5fa1e2a301f23b32af6136ee",
      "hash": "efd5726755382078e5b96cc28501a908e2c3a67d5fa1e2a301f23b32af6136ee",
      "version": 1,
      "size": 135,
      "vsize": 135,
      "weight": 540,
      "locktime": 0,
      "vin": [
        {
          "coinbase": "04ffff001d02360a",
          "sequence": 4294967295
        }
      ],
      "vout": [
        {
          "value": 50.0,
          "n": 0,
          "scriptPubKey": {
            "asm": "04994c86805cb63d321e56e295b4114a7c48905c687275baa06fd16291f6730ac0ceb094c77608b06d5cb1c37c94f2dfdb90f7d51174f46624b4c67122aafe8075 OP_CHECKSIG",
            "desc": "pk(04994c86805cb63d321e56e295b4114a7c48905c687275baa06fd16291f6730ac0ceb094c77608b06d5cb1c37c94f2dfdb90f7d51174f46624b4c67122aafe8075)#fazawhls",
            "hex": "4104994c86805cb63d321e56e295b4114a7c48905c687275baa06fd16291f6730ac0ceb094c77608b06d5cb1c37c94f2dfdb90f7d51174f46624b4c67122aafe8075ac",
            "type": "pubkey"
          }
        }
      ],
      "hex": "01000000010000000000000000000000000000000000000000000000000000000000000000ffffffff0804ffff001d02360affffffff0100f2052a01000000434104994c86805cb63d321e56e295b4114a7c48905c687275baa06fd16291f6730ac0ceb094c77608b06d5cb1c37c94f2dfdb90f7d51174f46624b4c67122aafe8075ac00000000"
    }
  ]
}