{
  "hash": "000000007a662cad3436e863e7906ede734d346d1a7a21b1b1d1875f7ca01212",
  "confirmations": 47111,
  "height": 5987,
  "version": 1,
  "versionHex": "00000001",
  "merkleroot": "9614d43a56f2d68b09764fefeba58c066efcaebe5ddffb7bb1425a1547922c96",
  "time": 1235917907,
  "mediantime": 1235913200,
  "nonce": 2470791973,
  "bits": "1d00ffff",
  "difficulty": 1,
  "chainwork": "0000000000000000000000000000000000000000000000000000176417641764",
  "nTx": 1,
  "previousblockhash": "00000000484cd82435395659547029931a6cc76d9947055ddd817bdad8ffab02",
  "nextblockhash": "00000000922b9826d019a1e19edb02b9b63138f8a213ffd88449e94cd0618e6b",
  "strippedsize": 216,
  "size": 216,
  "weight": 864,
  "tx": [
    {
      "txid": "9614d43a56f2d68b09764fefeba58c066efcaebe5ddffb7bb1425a1547922c96",
      "hash": "9614d43a56f2d68b09764fefeba58c066efcaebe5ddffb7bb1425a1547922c96",
      "version": 1,
      "size": 135,
      "vsize": 135,
      "weight": 540,
      "locktime": 0,
      "vin": [
        {
          "coinbase": "04ffff001d02b304",
          "sequence": 4294967295
        }
      ],
      "vout": [
        {
          "value": 50.0,
          "n": 0,
          "scriptPubKey": {
            "asm": "0493139aef473404325b88b480a5a367718d9bf67e05aed3aa16c959208d7a077a5f84a51d3f6cb7b966228e9d5711978a4a01986c30d3fda3dc247bcd19560b33 OP_CHECKSIG",
            "desc": "pk(0493139aef473404325b88b480a5a367718d9bf67e05aed3aa16c959208d7a077a5f84a51d3f6cb7b966228e9d5711978a4a01986c30d3fda3dc247bcd19560b33)#eswm494d",
            "hex": "410493139aef473404325b88b480a5a367718d9bf67e05aed3aa16c959208d7a077a5f84a51d3f6cb7b966228e9d5711978a4a01986c30d3fda3dc247bcd19560b33ac",
            "type": "pubkey"
          }
        }
      ],
      "hex": "01000000010000000000000000000000000000000000000000000000000000000000000000ffffffff0804ffff001d02b304ffffffff0100f2052a0100000043410493139aef473404325b88b480a5a367718d9bf67e05aed3aa16c959208d7a077a5f84a51d3f6cb7b966228e9d5711978a4a01986c30d3fda3dc247bcd19560b33ac00000000"
    }
  ]
}