{
  "hash": "0000000033e356b6859da65f5684cd709ff39bf3db4fcdf84731e8c5e2117b53",
  "confirmations": 43124,
  "height": 9974,
  "version": 1,
  "versionHex": "00000001",
  "merkleroot": "6d1f1cc84205277824483b507f6938b1d6013c642a28e4a4e6f968f0abe26727",
  "time": 1238973164,
  "mediantime": 1238970203,
  "nonce": 871021063,
  "bits": "1d00ffff",
  "difficulty": 1,
  "chainwork": "000000000000000000000000000000000000000000000000000026f726f726f7",
  "nTx": 1,
  "previousblockhash": "00000000eda492f8b3a2e5b5394426654bc783fed48ed7dcb79805f1da1c8198",
  "nextblockhash": "00000000d65dded3f5e0588a708525a23e4b6158b6348fe1b002513ccd2c6672",
  "strippedsize": 216,
  "size": 216,
  "weight": 864,
  "tx": [
    {
      "txid": "6d1f1cc84205277824483b507f6938b1d6013c642a28e4a4e6f968f0abe26727",
      "hash": "6d1f1cc84205277824483b507f6938b1d6013c642a28e4a4e6f968f0abe26727",
      "version": 1,
      "size": 135,
      "vsize": 135,
      "weight": 540,
      "locktime": 0,
      "vin": [
        {
          "coinbase": "04ffff001d020603",
          "sequence": 4294967295
        }
      ],
      "vout": [
        {
          "value": 50.0,
          "n": 0,
          "scriptPubKey": {
            "asm": "04659a3b0676216a596930950a43c7d59a7f8e6f2d7a574ce13bd083ce58b029e3c91a634e2c7603cdbf01f5faba2ae437ed7607e9af9a7ff0300253606776adbb OP_CHECKSIG",
            "desc": "pk(04659a3b0676216a596930950a43c7d59a7f8e6f2d7a574ce13bd083ce58b029e3c91a634e2c7603cdbf01f5faba2ae437ed7607e9af9a7ff0300253606776adbb)#rwvmqa2y",
            "hex": "4104659a3b0676216a596930950a43c7d59a7f8e6f2d7a574ce13bd083ce58b029e3c91a634e2c7603cdbf01f5faba2ae437ed7607e9af9a7ff0300253606776adbbac",
            "type": "pubkey"
          }
        }
      ],
      "hex": "01000000010000000000000000000000000000000000000000000000000000000000000000ffffffff0804ffff001d020603ffffffff0100f2052a01000000434104659a3b0676216a596930950a43c7d59a7f8e6f2d7a574ce13bd083ce58b029e3c91a634e2c7603cdbf01f5faba2ae437ed7607e9af9a7ff0300253606776adbbac00000000"
    }
  ]
}