{
  "hash": "000000003dc1c00b7d364fbdaf620be15e6d6d9f2ef6129e9569075460902f10",
  "confirmations": 47935,
  "height": 5163,
  "version": 1,
  "versionHex": "00000001",
  "merkleroot": "326d2a34ff8a56d9b2b7a6806b60040595a4c06ccb81873476d9951fab8743f8",
  "time": 1235261103,
  "mediantime": 1235258639,
  "nonce": 1981338665,
  "bits": "1d00ffff",
  "difficulty": 1,
  "chainwork": "0000000000000000000000000000000000000000000000000000142c142c142c",
  "nTx": 1,
  "previousblockhash": "000000008eb7d03e7f61712b56a5b21b258150d4334a488f4ba9aadd3250b780",
  "nextblockhash": "00000000a62347cd09208a6683da1b735df581544384eecfdbcb4a0ba4f13488",
  "strippedsize": 216,
  "size": 216,
  "weight": 864,
  "tx": [
    {
      "txid": "326d2a34ff8a56d9b2b7a6806b60040595a4c06ccb81873476d9951fab8743f8",
      "hash": "326d2a34ff8a56d9b2b7a6806b60040595a4c06ccb81873476d9951fab8743f8",
      "version": 1,
      "size": 135,
      "vsize": 135,
      "weight": 540,
      "locktime": 0,
      "vin": [
        {
          "coinbase": "04ffff001d022a0a",
          "sequence": 4294967295
        }
      ],
      "vout": [
        {
          "value": 50.0,
          "n": 0,
          "scriptPubKey": {
            "asm": "04f86db5087f37c72e8434aeab0b12f1bd31a5ed2910119954cbfe6ac8fe6438a45cfb10f070385a0019cb724353092ec8e2d5673530eb044784e7dfa136f7691f OP_CHECKSIG",
            "desc": "pk(04f86db5087f37c72e8434aeab0b12f1bd31a5ed2910119954cbfe6ac8fe6438a45cfb10f070385a0019cb724353092ec8e2d5673530eb044784e7dfa136f7691f)#9m0u05d3",
            "hex": "4104f86db5087f37c72e8434aeab0b12f1bd31a5ed2910119954cbfe6ac8fe6438a45cfb10f070385a0019cb724353092ec8e2d5673530eb044784e7dfa136f7691fac",
            "type": "pubkey"
          }
        }
      ],
      "hex": "01000000010000000000000000000000000000000000000000000000000000000000000000ffffffff0804ffff001d022a0affffffff0100f2052a01000000434104f86db5087f37c72e8434aeab0b12f1bd31a5ed2910119954cbfe6ac8fe6438a45cfb10f070385a0019cb724353092ec8e2d5673530eb044784e7dfa136f7691fac00000000"
    }
  ]
}