{
  "hash": "00000000395ea999e12411a0ba0c98c84010117b5fec5b3fa395a66114bb53f8",
  "confirmations": 44776,
  "height": 8322,
  "version": 1,
  "versionHex": "00000001",
  "merkleroot": "5b73d17c3fac6c639c1c9e006f0d1f64ed1074d17a1e3d7a8b3fec0b4436b288",
  "time": 1237745716,
  "mediantime": 1237740266,
  "nonce": 3976654339,
  "bits": "1d00ffff",
  "difficulty": 1,
  "chainwork": "0000000000000000000000000000000000000000000000000000208320832083",
  "nTx": 1,
  "previousblockhash": "00000000fa60124bc1a57f4eec7b1cdae1148ea86fbb40c35ead58d218585f63",
  "nextblockhash": "00000000cea67f5c847ab2ad693003deb9fe8044d179c1c60fd2b607d890d8c3",
  "strippedsize": 216,
  "size": 216,
  "weight": 864,
  "tx": [
    {
      "txid": "5b73d17c3fac6c639c1c9e006f0d1f64ed1074d17a1e3d7a8b3fec0b4436b288",
      "hash": "5b73d17c3fac6c639c1c9e006f0d1f64ed1074d17a1e3d7a8b3fec0b4436b288",
      "version": 1,
      "size": 135,
      "vsize": 135,
      "weight": 540,
      "locktime": 0,
      "vin": [
        {
          "coinbase": "04ffff001d026a04",
          "sequence": 4294967295
        }
      ],
      "vout": [
        {
          "value": 50.0,
          "n": 0,
          "scriptPubKey": {
            "asm": "040d5e658a1eee943df8aaffa3dcac922e2121ca18ecc1374022278479f03900766519e23a556237e895b0ce2ed61d58c9026393937c399be0f1699f77439f24d5 OP_CHECKSIG",
            "desc": "pk(040d5e658a1eee943df8aaffa3dcac922e2121ca18ecc1374022278479f03900766519e23a556237e895b0ce2ed61d58c9026393937c399be0f1699f77439f24d5)#s9qw2ygh",
            "hex": "41040d5e658a1eee943df8aaffa3dcac922e2121ca18ecc1374022278479f03900766519e23a556237e895b0ce2ed61d58c9026393937c399be0f1699f77439f24d5ac",
            "type": "pubkey"
          }
        }
      ],
      "hex": "01000000010000000000000000000000000000000000000000000000000000000000000000ffffffff0804ffff001d026a04ffffffff0100f2052a010000004341040d5e658a1eee943df8aaffa3dcac922e2121ca18ecc1374022278479f03900766519e23a556237e895b0ce2ed61d58c9026393937c399be0f1699f77439f24d5ac00000000"
    }
  ]
}