{
  "hash": "00000000f5805c3ed1c24ecddba78c6a6f2a671ba6b2d3c89cddc7c8e0c16a2f",
  "confirmations": 52482,
  "height": 616,
  "version": 1,
  "versionHex": "00000001",
  "merkleroot": "787a0ed2a93932c5a30687b50d9d1b4a5de011cb23b5eb2194a642a1506c8119",
  "time": 1232046839,
  "mediantime": 1232044594,
  "nonce": 3501890817,
  "bits": "1d00ffff",
  "difficulty": 1,
  "chainwork": "0000000000000000000000000000000000000000000000000000026902690269",
  "nTx": 1,
  "previousblockhash": "00000000882cfb02e7b8ae59353c0fa2e7b7a0d030128fd81a21a77f756959c8",
  "nextblockhash": "000000005eaaf15c3e3291f1d8aac5ab817e828e6de8925985225dc97f247bd0",
  "strippedsize": 216,
  "size": 216,
  "weight": 864,
  "tx": [
    {
      "txid": "787a0ed2a93932c5a30687b50d9d1b4a5de011cb23b5eb2194a642a1506c8119",
      "hash": "787a0ed2a93932c5a30687b50d9d1b4a5de011cb23b5eb2194a642a1506c8119",
      "version": 1,
      "size": 135,
      "vsize": 135,
      "weight": 540,
      "locktime": 0,
      "vin": [
        {
          "coinbase": "04ffff001d02e706",
          "sequence": 4294967295
        }
      ],
      "vout": [
        {
          "value": 50.0,
          "n": 0,
          "scriptPubKey": {
            "asm": "0488ac3041f92a3e02415e89726d1f4451cf79b5d2464d4a03b3a523060d9ac4f7f03509f27a191f07548e9147cf6c4a6abd7e36069e18253e89ba98547dd7980a OP_CHECKSIG",
            "desc": "pk(0488ac3041f92a3e02415e89726d1f4451cf79b5d2464d4a03b3a523060d9ac4f7f03509f27a191f07548e9147cf6c4a6abd7e36069e18253e89ba98547dd7980a)#rrdurwq0",
            "hex": "410488ac3041f92a3e02415e89726d1f4451cf79b5d2464d4a03b3a523060d9ac4f7f03509f27a191f07548e9147cf6c4a6abd7e36069e18253e89ba98547dd7980aac",
            "type": "pubkey"
          }
        }
      ],
      "hex": "01000000010000000000000000000000000000000000000000000000000000000000000000ffffffff0804ffff001d02e706ffffffff0100f2052a0100000043410488ac3041f92a3e02415e89726d1f4451cf79b5d2464d4a03b3a523060d9ac4f7f03509f27a191f07548e9147cf6c4a6abd7e36069e18253e89ba98547dd7980aac00000000"
    }
  ]
}