{
  "hash": "0000000041438e52d25bccab8798a92cabafdaad69a071d3d2a41718faf01098",
  "confirmations": 51801,
  "height": 26,
  "version": 1,
  "versionHex": "00000001",
  "merkleroot": "67c1e8143bb6ad221a4ce77d6c8be68f2e25e0743f51b2db1a7b22bab59014dc",
  "time": 1231570450,
  "mediantime": 1231566553,
  "nonce": 1555516980,
  "bits": "1d00ffff",
  "difficulty": 1,
  "chainwork": "0000000000000000000000000000000000000000000000000000001b001b001b",
  "nTx": 1,
  "previousblockhash": "000000008e35a1d59ea1be8d76683662f47fd13c62a9e347ad5845a26f762026",
  "nextblockhash": "0000000071350772f98f84babf35502b33d42ee8466d3dde0f376c4120352081",
  "strippedsize": 215,
  "size": 215,
  "weight": 860,
  "tx": [
    {
      "txid": "67c1e8143bb6ad221a4ce77d6c8be68f2e25e0743f51b2db1a7b22bab59014dc",
      "hash": "67c1e8143bb6ad221a4ce77d6c8be68f2e25e0743f51b2db1a7b22bab59014dc",
      "version": 1,
      "size": 134,
      "vsize": 134,
      "weight": 536,
      "locktime": 0,
      "vin": [
        {
          "coinbase": "04ffff001d0105",
          "sequence": 4294967295
        }
      ],
      "vout": [
        {
          "value": 50.0,
          "n": 0,
          "scriptPubKey": {
            "asm": "040baf81984793a57324f886d6a9a040513258dc310fd95e66955f9890d51a4efcc9d5bf69da30be69e16e426770b9927c18d0a06c610c6d7ebfbc6a59023a4ad0 OP_CHECKSIG",
            "desc": "pk(040baf81984793a57324f886d6a9a040513258dc310fd95e66955f9890d51a4efcc9d5bf69da30be69e16e426770b9927c18d0a06c610c6d7ebfbc6a59023a4ad0)#rllgtxpw",
            "hex": "41040baf81984793a57324f886d6a9a040513258dc310fd95e66955f9890d51a4efcc9d5bf69da30be69e16e426770b9927c18d0a06c610c6d7ebfbc6a59023a4ad0ac",
            "type": "pubkey"
          }
        }
      ],
      "hex": "01000000010000000000000000000000000000000000000000000000000000000000000000ffffffff0704ffff001d0105ffffffff0100f2052a010000004341040baf81984793a57324f886d6a9a040513258dc310fd95e66955f9890d51a4efcc9d5bf69da30be69e16e426770b9927c18d0a06c610c6d7ebfbc6a59023a4ad0ac00000000"
    }
  ]
}