{
  "hash": "00000000066b91b7693f4fd69b0d3b1bb42df76b8e040e01310c086fa234c6a2",
  "confirmations": 50960,
  "height": 2138,
  "version": 1,
  "versionHex": "00000001",
  "merkleroot": "cdb045bc74345456f4938cd6e8f41bb0aed611d753bd58802c304e37a7d0c52e",
  "time": 1233166253,
  "mediantime": 1233161650,
  "nonce": 316622085,
  "bits": "1d00ffff",
  "difficulty": 1,
  "chainwork": "0000000000000000000000000000000000000000000000000000085b085b085b",
  "nTx": 1,
  "previousblockhash": "00000000c45c54342d8846b07f5c75b188871a9c31b3495aa682b8c0f193712c",
  "nextblockhash": "00000000e626f2ffde2fd0c4a8bd46fcbd5fe62b46c700ac2a4e5debf32e5367",
  "strippedsize": 215,
  "size": 215,
  "weight": 860,
  "tx": [
    {
      "txid": "cdb045bc74345456f4938cd6e8f41bb0aed611d753bd58802c304e37a7d0c52e",
      "hash": "cdb045bc74345456f4938cd6e8f41bb0aed611d753bd58802c304e37a7d0c52e",
      "version": 1,
      "size": 134,
      "vsize": 134,
      "weight": 536,
      "locktime": 0,
      "vin": [
        {
          "coinbase": "04ffff001d0117",
          "sequence": 4294967295
        }
      ],
      "vout": [
        {
          "value": 50.0,
          "n": 0,
          "scriptPubKey": {
            "asm": "04a6ba979d07a39f95004156b1ca88c1d26399f35d582e80d7d0b9a78ea8101790e25e9327296e2e3643a440a607af49e0daac2b76cba0d7bdc87b28131ff52e1d OP_CHECKSIG",
            "desc": "pk(04a6ba979d07a39f95004156b1ca88c1d26399f35d582e80d7d0b9a78ea8101790e25e9327296e2e3643a440a607af49e0daac2b76cba0d7bdc87b28131ff52e1d)#36ucw26x",
            "hex": "4104a6ba979d07a39f95004156b1ca88c1d26399f35d582e80d7d0b9a78ea8101790e25e9327296e2e3643a440a607af49e0daac2b76cba0d7bdc87b28131ff52e1dac",
            "type": "pubkey"
          }
        }
      ],
      "hex": "01000000010000000000000000000000000000000000000000000000000000000000000000ffffffff0704ffff001d0117ffffffff0100f2052a01000000434104a6ba979d07a39f95004156b1ca88c1d26399f35d582e80d7d0b9a78ea8101790e25e9327296e2e3643a440a607af49e0daac2b76cba0d7bdc87b28131ff52e1dac00000000"
    }
  ]
}