{
  "hash": "000000006fca06f668fe9f7c5056ffcdffe0a95fe3bd86eb5ef1f8125b0c7cb1",
  "confirmations": 47236,
  "height": 5862,
  "version": 1,
  "versionHex": "00000001",
  "merkleroot": "3138dae07241a016d3d2d4f0c4d79575e7172df28d39484b9db774b49dd37681",
  "time": 1235810816,
  "mediantime": 1235807663,
  "nonce": 3027499574,
  "bits": "1d00ffff",
  "difficulty": 1,
  "chainwork": "000000000000000000000000000000000000000000000000000016e716e716e7",
  "nTx": 1,
  "previousblockhash": "0000000010a3730834656b9c3a6bc67e733eaa8750a97d8270626a24c62b4f78",
  "nextblockhash": "000000006b26e14a10398ef0ed0401873422bfd65c013a3eb752056c79bbf067",
  "strippedsize": 216,
  "size": 216,
  "weight": 864,
  "tx": [
    {
      "txid": "3138dae07241a016d3d2d4f0c4d79575e7172df28d39484b9db774b49dd37681",
      "hash": "3138dae07241a016d3d2d4f0c4d79575e7172df28d39484b9db774b49dd37681",
      "version": 1,
      "size": 135,
      "vsize": 135,
      "weight": 540,
      "locktime": 0,
      "vin": [
        {
          "coinbase": "04ffff001d022f02",
          "sequence": 4294967295
        }
      ],
      "vout": [
        {
          "value": 50.0,
          "n": 0,
          "scriptPubKey": {
            "asm": "045e3983f16a1064672354cac4748442c65f6da32b8b645aa80ff6f5dbfd4ba87097225f40906f884b57f56db50a8a17000d88a2b2fe70b3cdf7703ef0c8c6fa32 OP_CHECKSIG",
            "desc": "pk(045e3983f16a1064672354cac4748442c65f6da32b8b645aa80ff6f5dbfd4ba87097225f40906f884b57f56db50a8a17000d88a2b2fe70b3cdf7703ef0c8c6fa32)#27k6f0c7",
            "hex": "41045e3983f16a1064672354cac4748442c65f6da32b8b645aa80ff6f5dbfd4ba87097225f40906f884b57f56db50a8a17000d88a2b2fe70b3cdf7703ef0c8c6fa32ac",
            "type": "pubkey"
          }
        }
      ],
      "hex": "01000000010000000000000000000000000000000000000000000000000000000000000000ffffffff0804ffff001d022f02ffffffff0100f2052a010000004341045e3983f16a1064672354cac4748442c65f6da32b8b645aa80ff6f5dbfd4ba87097225f40906f884b57f56db50a8a17000d88a2b2fe70b3cdf7703ef0c8c6fa32ac00000000"
    }
  ]
}