{
  "hash": "00000000a04a6f1046fc1e5d6c64efa3588ce0b876307f7feb8a2ded024f8def",
  "confirmations": 45274,
  "height": 7824,
  "version": 1,
  "versionHex": "00000001",
  "merkleroot": "7df6ccd3a13cd73676182cbe291b887ab8ccd26108bc3aae1b69de8420ab2646",
  "time": 1237332658,
  "mediantime": 1237328880,
  "nonce": 2421907203,
  "bits": "1d00ffff",
  "difficulty": 1,
  "chainwork": "00000000000000000000000000000000000000000000000000001e911e911e91",
  "nTx": 1,
  "previousblockhash": "00000000490bada37171a9c7e02118421760208dd34822d9abc7521b527d31cf",
  "nextblockhash": "0000000072f39782b9ae0982ee78f9965adfd9a5b0bd55a22d797bc01d5c4731",
  "strippedsize": 216,
  "size": 216,
  "weight": 864,
  "tx": [
    {
      "txid": "7df6ccd3a13cd73676182cbe291b887ab8ccd26108bc3aae1b69de8420ab2646",
      "hash": "7df6ccd3a13cd73676182cbe291b887ab8ccd26108bc3aae1b69de8420ab2646",
      "version": 1,
      "size": 135,
      "vsize": 135,
      "weight": 540,
      "locktime": 0,
      "vin": [
        {
          "coinbase": "04ffff001d024f06",
          "sequence": 4294967295
        }
      ],
      "vout": [
        {
          "value": 50.0,
          "n": 0,
          "scriptPubKey": {
            "asm": "04c6f5dc4ab80f6bd90f5ee9c5fc0e79f585ed3c33857b2f4f1f4733982c42a4aea4875bb0609946d9d664f8577ac1c5266d5675bc3e0888d65ddb949d0857fa2a OP_CHECKSIG",
            "desc": "pk(04c6f5dc4ab80f6bd90f5ee9c5fc0e79f585ed3c33857b2f4f1f4733982c42a4aea4875bb0609946d9d664f8577ac1c5266d5675bc3e0888d65ddb949d0857fa2a)#vz58he4p",
            "hex": "4104c6f5dc4ab80f6bd90f5ee9c5fc0e79f585ed3c33857b2f4f1f4733982c42a4aea4875bb0609946d9d664f8577ac1c5266d5675bc3e0888d65ddb949d0857fa2aac",
            "type": "pubkey"
          }
        }
      ],
      "hex": "01000000010000000000000000000000000000000000000000000000000000000000000000ffffffff0804ffff001d024f06ffffffff0100f2052a01000000434104c6f5dc4ab80f6bd90f5ee9c5fc0e79f585ed3c33857b2f4f1f4733982c42a4aea4875bb0609946d9d664f8577ac1c5266d5675bc3e0888d65ddb949d0857fa2aac00000000"
    }
  ]
}