{
  "hash": "0000000058ea26e4263178f3bbe49f200d291c104e757340dd145daa1faa1d10",
  "confirmations": 47154,
  "height": 5944,
  "version": 1,
  "versionHex": "00000001",
  "merkleroot": "a8dfb0ec1c8f0c455277c2b138361e66205fe05cda7c6359b3ced2aeb662f3f2",
  "time": 1235883950,
  "mediantime": 1235879740,
  "nonce": 94248073,
  "bits": "1d00ffff",
  "difficulty": 1,
  "chainwork": "0000000000000000000000000000000000000000000000000000173917391739",
  "nTx": 1,
  "previousblockhash": "00000000cdf2d26cf41ed165002a30ef49d9e8071dd8335607f19c6080e79bc6",
  "nextblockhash": "000000004b66f1288f8c9a705ee1793e0616369190b3dd4acbef4ddf9e57a06e",
  "strippedsize": 216,
  "size": 216,
  "weight": 864,
  "tx": [
    {
      "txid": "a8dfb0ec1c8f0c455277c2b138361e66205fe05cda7c6359b3ced2aeb662f3f2",
      "hash": "a8dfb0ec1c8f0c455277c2b138361e66205fe05cda7c6359b3ced2aeb662f3f2",
      "version": 1,
      "size": 135,
      "vsize": 135,
      "weight": 540,
      "locktime": 0,
      "vin": [
        {
          "coinbase": "04ffff001d02fd08",
          "sequence": 4294967295
        }
      ],
      "vout": [
        {
          "value": 50.0,
          "n": 0,
          "scriptPubKey": {
            "asm": "045d324edb5aa295ec7f59c2cbbd2841a9c9241f64a97d66c843a4e8a4b00a664df3590350cc99966ebd82bfbc2fdb969d07f6ee3a03631f32acacf8558d265f1c OP_CHECKSIG",
            "desc": "pk(045d324edb5aa295ec7f59c2cbbd2841a9c9241f64a97d66c843a4e8a4b00a664df3590350cc99966ebd82bfbc2fdb969d07f6ee3a03631f32acacf8558d265f1c)#zrpwd4we",
            "hex": "41045d324edb5aa295ec7f59c2cbbd2841a9c9241f64a97d66c843a4e8a4b00a664df3590350cc99966ebd82bfbc2fdb969d07f6ee3a03631f32acacf8558d265f1cac",
            "type": "pubkey"
          }
        }
      ],
      "hex": "01000000010000000000000000000000000000000000000000000000000000000000000000ffffffff0804ffff001d02fd08ffffffff0100f2052a010000004341045d324edb5aa295ec7f59c2cbbd2841a9c9241f64a97d66c843a4e8a4b00a664df3590350cc99966ebd82bfbc2fdb969d07f6ee3a03631f32acacf8558d265f1cac00000000"
    }
  ]
}