{
  "hash": "0000000077a1b71cb25955f6f73aa3fb9860df1f98f7f16d295fbd843c61cd77",
  "confirmations": 51301,
  "height": 1797,
  "version": 1,
  "versionHex": "00000001",
  "merkleroot": "460b1094ab146a20e7c667be957b682cdb550df6f0a242f30b17de4ef89091bd",
  "time": 1232896695,
  "mediantime": 1232893362,
  "nonce": 1749860901,
  "bits": "1d00ffff",
  "difficulty": 1,
  "chainwork": "0000000000000000000000000000000000000000000000000000070607060706",
  "nTx": 1,
  "previousblockhash": "00000000e655a6b283f0b716725fd5681aa41b08a679d65b1564ec8515ef45f0",
  "nextblockhash": "0000000040d9e6d28ab52d7998b4cf33ab98e149a9ee0c07caea1b74bafd0f51",
  "strippedsize": 216,
  "size": 216,
  "weight": 864,
  "tx": [
    {
      "txid": "460b1094ab146a20e7c667be957b682cdb550df6f0a242f30b17de4ef89091bd",
      "hash": "460b1094ab146a20e7c667be957b682cdb550df6f0a242f30b17de4ef89091bd",
      "version": 1,
      "size": 135,
      "vsize": 135,
      "weight": 540,
      "locktime": 0,
      "vin": [
        {
          "coinbase": "04ffff001d02f903",
          "sequence": 4294967295
        }
      ],
      "vout": [
        {
          "value": 50.0,
          "n": 0,
          "scriptPubKey": {
            "asm": "046e4c7f9a78c0ea6b20a3accbb0aee7d41f9e2777244f38600b3f2067272f281e7ba7c7470362bbc09e2f92e73f733525563c34fd79a1a5d462dee5e837045cee OP_CHECKSIG",
            "desc": "pk(046e4c7f9a78c0ea6b20a3accbb0aee7d41f9e2777244f38600b3f2067272f281e7ba7c7470362bbc09e2f92e73f733525563c34fd79a1a5d462dee5e837045cee)#hmf3en28",
            "hex": "41046e4c7f9a78c0ea6b20a3accbb0aee7d41f9e2777244f38600b3f2067272f281e7ba7c7470362bbc09e2f92e73f733525563c34fd79a1a5d462dee5e837045ceeac",
            "type": "pubkey"
          }
        }
      ],
      "hex": "01000000010000000000000000000000000000000000000000000000000000000000000000ffffffff0804ffff001d02f903ffffffff0100f2052a010000004341046e4c7f9a78c0ea6b20a3accbb0aee7d41f9e2777244f38600b3f2067272f281e7ba7c7470362bbc09e2f92e73f733525563c34fd79a1a5d462dee5e837045ceeac00000000"
    }
  ]
}