{
  "hash": "00000000ad2ac1c66306f65080200104623cb0c32f7e52c23886f2909e298e06",
  "confirmations": 52466,
  "height": 632,
  "version": 1,
  "versionHex": "00000001",
  "merkleroot": "6e56c9b6db17927e5965e36e1e61252a4e393555886ed747b96401f1fec4a53f",
  "time": 1232057835,
  "mediantime": 1232054174,
  "nonce": 2259509277,
  "bits": "1d00ffff",
  "difficulty": 1,
  "chainwork": "0000000000000000000000000000000000000000000000000000027902790279",
  "nTx": 1,
  "previousblockhash": "000000002c72cdf747e4fa6ad34a4bf6159cc65ab462e069c15d23eb5a688107",
  "nextblockhash": "00000000188807140be26e081e596a8212ba14495158f13c8dce03a4d7315fa1",
  "strippedsize": 216,
  "size": 216,
  "weight": 864,
  "tx": [
    {
      "txid": "6e56c9b6db17927e5965e36e1e61252a4e393555886ed747b96401f1fec4a53f",
      "hash": "6e56c9b6db17927e5965e36e1e61252a4e393555886ed747b96401f1fec4a53f",
      "version": 1,
      "size": 135,
      "vsize": 135,
      "weight": 540,
      "locktime": 0,
      "vin": [
        {
          "coinbase": "04ffff001d022507",
          "sequence": 4294967295
        }
      ],
      "vout": [
        {
          "value": 50.0,
          "n": 0,
          "scriptPubKey": {
            "asm": "04d80f60b4a2c953e079283c169608752df6b74dca836d628092d4ff3a85331466d2efb1204d2547e9bd011aa69e5bff555f0101f01c743226fdd0f77f16667565 OP_CHECKSIG",
            "desc": "pk(04d80f60b4a2c953e079283c169608752df6b74dca836d628092d4ff3a85331466d2efb1204d2547e9bd011aa69e5bff555f0101f01c743226fdd0f77f16667565)#6a8dlhcz",
            "hex": "4104d80f60b4a2c953e079283c169608752df6b74dca836d628092d4ff3a85331466d2efb1204d2547e9bd011aa69e5bff555f0101f01c743226fdd0f77f16667565ac",
            "type": "pubkey"
          }
        }
      ],
      "hex": "01000000010000000000000000000000000000000000000000000000000000000000000000ffffffff0804ffff001d022507ffffffff0100f2052a01000000434104d80f60b4a2c953e079283c169608752df6b74dca836d628092d4ff3a85331466d2efb1204d2547e9bd011aa69e5bff555f0101f01c743226fdd0f77f16667565ac00000000"
    }
  ]
}