{
  "hash": "000000002feb5d88964e58ace2ca025968febc52ba0e9249b452a741c3d619f5",
  "confirmations": 51935,
  "height": 1163,
  "version": 1,
  "versionHex": "00000001",
  "merkleroot": "7a91a3f31a1322c67930540a5d4e52555c14ff28e0dec35a118ce360f3f2ca79",
  "time": 1232469804,
  "mediantime": 1232466915,
  "nonce": 3661816621,
  "bits": "1d00ffff",
  "difficulty": 1,
  "chainwork": "0000000000000000000000000000000000000000000000000000048c048c048c",
  "nTx": 1,
  "previousblockhash": "000000005ef21d4d4f403af302b3f855335e85a0e7ead44c2cb5ec1bb3be30d1",
  "nextblockhash": "0000000055c07c7afc4614c6eb8135233fbededd3560163c4f68ed2f7635a924",
  "strippedsize": 216,
  "size": 216,
  "weight": 864,
  "tx": [
    {
      "txid": "7a91a3f31a1322c67930540a5d4e52555c14ff28e0dec35a118ce360f3f2ca79",
      "hash": "7a91a3f31a1322c67930540a5d4e52555c14ff28e0dec35a118ce360f3f2ca79",
      "version": 1,
      "size": 135,
      "vsize": 135,
      "weight": 540,
      "locktime": 0,
      "vin": [
        {
          "coinbase": "04ffff001d02fe07",
          "sequence": 4294967295
        }
      ],
      "vout": [
        {
          "value": 50.0,
          "n": 0,
          "scriptPubKey": {
            "asm": "04c9ab4d9726f24dc2f5c64b26524f44cd0ec850696ab404e9eed74ffee00070e24d04b4b84ed67b37226591c4723321cad792f90ce1d82b9b83e28f4c2ac28fa4 OP_CHECKSIG",
            "desc": "pk(04c9ab4d9726f24dc2f5c64b26524f44cd0ec850696ab404e9eed74ffee00070e24d04b4b84ed67b37226591c4723321cad792f90ce1d82b9b83e28f4c2ac28fa4)#2tf63e84",
            "hex": "4104c9ab4d9726f24dc2f5c64b26524f44cd0ec850696ab404e9eed74ffee00070e24d04b4b84ed67b37226591c4723321cad792f90ce1d82b9b83e28f4c2ac28fa4ac",
            "type": "pubkey"
          }
        }
      ],
      "hex": "01000000010000000000000000000000000000000000000000000000000000000000000000ffffffff0804ffff001d02fe07ffffffff0100f2052a01000000434104c9ab4d9726f24dc2f5c64b26524f44cd0ec850696ab404e9eed74ffee00070e24d04b4b84ed67b37226591c4723321cad792f90ce1d82b9b83e28f4c2ac28fa4ac00000000"
    }
  ]
}