{
  "hash": "0000000001412f797668fc9e713e629149e026594a74d1e7ecb85ea6ffda0813",
  "confirmations": 44745,
  "height": 8353,
  "version": 1,
  "versionHex": "00000001",
  "merkleroot": "c82af0790c28e200e20c0d4ccc90da53d57cad8f131cb957c00d512632862623",
  "time": 1237769887,
  "mediantime": 1237764203,
  "nonce": 3588356634,
  "bits": "1d00ffff",
  "difficulty": 1,
  "chainwork": "000000000000000000000000000000000000000000000000000020a220a220a2",
  "nTx": 1,
  "previousblockhash": "0000000005e15c0a03e58a7496226eef9445c086915b56893319e550557081bd",
  "nextblockhash": "000000004e2896658fbded0f1bbe87e79ae046d35e1710ef66eba237da456f41",
  "strippedsize": 216,
  "size": 216,
  "weight": 864,
  "tx": [
    {
      "txid": "c82af0790c28e200e20c0d4ccc90da53d57cad8f131cb957c00d512632862623",
      "hash": "c82af0790c28e200e20c0d4ccc90da53d57cad8f131cb957c00d512632862623",
      "version": 1,
      "size": 135,
      "vsize": 135,
      "weight": 540,
      "locktime": 0,
      "vin": [
        {
          "coinbase": "04ffff001d021b05",
          "sequence": 4294967295
        }
      ],
      "vout": [
        {
          "value": 50.0,
          "n": 0,
          "scriptPubKey": {
            "asm": "04b3f609a0042fb5e55d18a3dda6396798a354a633bd41ca4474a9086e4af895e52fd363fd6afcb3b3bc097948717fcc93384fe76448fd9fd3813af36c657454f1 OP_CHECKSIG",
            "desc": "pk(04b3f609a0042fb5e55d18a3dda6396798a354a633bd41ca4474a9086e4af895e52fd363fd6afcb3b3bc097948717fcc93384fe76448fd9fd3813af36c657454f1)#ly6t9e4n",
            "hex": "4104b3f609a0042fb5e55d18a3dda6396798a354a633bd41ca4474a9086e4af895e52fd363fd6afcb3b3bc097948717fcc93384fe76448fd9fd3813af36c657454f1ac",
            "type": "pubkey"
          }
        }
      ],
      "hex": "01000000010000000000000000000000000000000000000000000000000000000000000000ffffffff0804ffff001d021b05ffffffff0100f2052a01000000434104b3f609a0042fb5e55d18a3dda6396798a354a633bd41ca4474a9086e4af895e52fd363fd6afcb3b3bc097948717fcc93384fe76448fd9fd3813af36c657454f1ac00000000"
    }
  ]
}