{
  "hash": "00000000b5a5c14a73568884ce80b485a41fc3830efb88f32cbee576b89f6d3f",
  "confirmations": 51576,
  "height": 1522,
  "version": 1,
  "versionHex": "00000001",
  "merkleroot": "8aa44c99f055df18c2bc80787055dab4edcf66ee8435cd75e666df0ef5eaef67",
  "time": 1232776178,
  "mediantime": 1232774634,
  "nonce": 5998589,
  "bits": "1d00ffff",
  "difficulty": 1,
  "chainwork": "000000000000000000000000000000000000000000000000000005f305f305f3",
  "nTx": 1,
  "previousblockhash": "00000000165c553e0e47ae3f14f2d9b2edb87674e29f356b2372559ff99baa9e",
  "nextblockhash": "0000000069101f877f3f3aa014a4b7fa0ce8c80abac7d029fbf34dfa461c66bd",
  "strippedsize": 215,
  "size": 215,
  "weight": 860,
  "tx": [
    {
      "txid": "8aa44c99f055df18c2bc80787055dab4edcf66ee8435cd75e666df0ef5eaef67",
      "hash": "8aa44c99f055df18c2bc80787055dab4edcf66ee8435cd75e666df0ef5eaef67",
      "version": 1,
      "size": 134,
      "vsize": 134,
      "weight": 536,
      "locktime": 0,
      "vin": [
        {
          "coinbase": "04ffff001d012a",
          "sequence": 4294967295
        }
      ],
      "vout": [
        {
          "value": 50.0,
          "n": 0,
          "scriptPubKey": {
            "asm": "043e3c7f85dd08460cd5238da2f6d8b1f9ac3b67c0f29242e554c4e42e7942ab367df68b19eeca38b6663334ec542fbb65426c16ccaca83a6e8df1c6cc323af6b3 OP_CHECKSIG",
            "desc": "pk(043e3c7f85dd08460cd5238da2f6d8b1f9ac3b67c0f29242e554c4e42e7942ab367df68b19eeca38b6663334ec542fbb65426c16ccaca83a6e8df1c6cc323af6b3)#psray48n",
            "hex": "41043e3c7f85dd08460cd5238da2f6d8b1f9ac3b67c0f29242e554c4e42e7942ab367df68b19eeca38b6663334ec542fbb65426c16ccaca83a6e8df1c6cc323af6b3ac",
            "type": "pubkey"
          }
        }
      ],
      "hex": "01000000010000000000000000000000000000000000000000000000000000000000000000ffffffff0704ffff001d012affffffff0100f2052a010000004341043e3c7f85dd08460cd5238da2f6d8b1f9ac3b67c0f29242e554c4e42e7942ab367df68b19eeca38b6663334ec542fbb65426c16ccaca83a6e8df1c6cc323af6b3ac00000000"
    }
  ]
}