{
  "hash": "00000000266f48b65050bd91fd8584a2e5b3225c64af4b8f2321a24a1d7b62cc",
  "confirmations": 50993,
  "height": 2105,
  "version": 1,
  "versionHex": "00000001",
  "merkleroot": "77f634b0d6a4501c20cf756d0a98467fada7e4f736c4dbdba9b2055a6ab1fe86",
  "time": 1233139393,
  "mediantime": 1233136967,
  "nonce": 1276319281,
  "bits": "1d00ffff",
  "difficulty": 1,
  "chainwork": "0000000000000000000000000000000000000000000000000000083a083a083a",
  "nTx": 1,
  "previousblockhash": "0000000074d8bfd85b5c211a7ddc38bb62e84078e1778e90635855a992910d8b",
  "nextblockhash": "00000000125bd7848efc28349f2f8a45aa2412e25fb0c9a63ab989db66ba910d",
  "strippedsize": 216,
  "size": 216,
  "weight": 864,
  "tx": [
    {
      "txid": "77f634b0d6a4501c20cf756d0a98467fada7e4f736c4dbdba9b2055a6ab1fe86",
      "hash": "77f634b0d6a4501c20cf756d0a98467fada7e4f736c4dbdba9b2055a6ab1fe86",
      "version": 1,
      "size": 135,
      "vsize": 135,
      "weight": 540,
      "locktime": 0,
      "vin": [
        {
          "coinbase": "04ffff001d02b103",
          "sequence": 4294967295
        }
      ],
      "vout": [
        {
          "value": 50.0,
          "n": 0,
          "scriptPubKey": {
            "asm": "0468b3bb09493cff1595ae99e781779422542858f376338896e4a530ce64e8e3c8e1ab177f4f62b7a67fefac5dc5158040cfe60d35595d4907cc7625df7374f647 OP_CHECKSIG",
            "desc": "pk(0468b3bb09493cff1595ae99e781779422542858f376338896e4a530ce64e8e3c8e1ab177f4f62b7a67fefac5dc5158040cfe60d35595d4907cc7625df7374f647)#s9khma7r",
            "hex": "410468b3bb09493cff1595ae99e781779422542858f376338896e4a530ce64e8e3c8e1ab177f4f62b7a67fefac5dc5158040cfe60d35595d4907cc7625df7374f647ac",
            "type": "pubkey"
          }
        }
      ],
      "hex": "01000000010000000000000000000000000000000000000000000000000000000000000000ffffffff0804ffff001d02b103ffffffff0100f2052a0100000043410468b3bb09493cff1595ae99e781779422542858f376338896e4a530ce64e8e3c8e1ab177f4f62b7a67fefac5dc5158040cfe60d35595d4907cc7625df7374f647ac00000000"
    }
  ]
}