{
  "hash": "000000005da33104778dcaad5053597a631924f5dcb245f21fa486f62ad48b42",
  "confirmations": 43879,
  "height": 9219,
  "version": 1,
  "versionHex": "00000001",
  "merkleroot": "43b7abe11fb864b380933109e6cdfd67c389b778b2fc34ad1ca2fb7ba0399906",
  "time": 1238415697,
  "mediantime": 1238411720,
  "nonce": 1680966450,
  "bits": "1d00ffff",
  "difficulty": 1,
  "chainwork": "0000000000000000000000000000000000000000000000000000240424042404",
  "nTx": 1,
  "previousblockhash": "00000000188c2430e645a76ab00cbaa925f993476fe8cf75088b9fdf84e63709",
  "nextblockhash": "0000000008340b5a9ed7616e9d0db0a1fdc08775690874fb190c01bff7bc164f",
  "strippedsize": 215,
  "size": 215,
  "weight": 860,
  "tx": [
    {
      "txid": "43b7abe11fb864b380933109e6cdfd67c389b778b2fc34ad1ca2fb7ba0399906",
      "hash": "43b7abe11fb864b380933109e6cdfd67c389b778b2fc34ad1ca2fb7ba0399906",
      "version": 1,
      "size": 134,
      "vsize": 134,
      "weight": 536,
      "locktime": 0,
      "vin": [
        {
          "coinbase": "04ffff001d0148",
          "sequence": 4294967295
        }
      ],
      "vout": [
        {
          "value": 50.0,
          "n": 0,
          "scriptPubKey": {
            "asm": "0460c666f0fb061d682c29167eee7131790a9d52f75bf3e1661ecabf7d0673efddbf88dac74740490ddb376993f44bcdc37f720f392ec5f532928539cda1c0419b OP_CHECKSIG",
            "desc": "pk(0460c666f0fb061d682c29167eee7131790a9d52f75bf3e1661ecabf7d0673efddbf88dac74740490ddb376993f44bcdc37f720f392ec5f532928539cda1c0419b)#wzlne028",
            "hex": "410460c666f0fb061d682c29167eee7131790a9d52f75bf3e1661ecabf7d0673efddbf88dac74740490ddb376993f44bcdc37f720f392ec5f532928539cda1c0419bac",
            "type": "pubkey"
          }
        }
      ],
      "hex": "01000000010000000000000000000000000000000000000000000000000000000000000000ffffffff0704ffff001d0148ffffffff0100f2052a0100000043410460c666f0fb061d682c29167eee7131790a9d52f75bf3e1661ecabf7d0673efddbf88dac74740490ddb376993f44bcdc37f720f392ec5f532928539cda1c0419bac00000000"
    }
  ]
}