{
  "hash": "00000000117fa16d56de2cf7c3ae8184b4b1bce4dcea74294f711afd539c1341",
  "confirmations": 44271,
  "height": 8827,
  "version": 1,
  "versionHex": "00000001",
  "merkleroot": "19366e898535913133ff4205153e826e21c8fb38c6a91779a6031ac848335447",
  "time": 1238117281,
  "mediantime": 1238114272,
  "nonce": 6756483,
  "bits": "1d00ffff",
  "difficulty": 1,
  "chainwork": "0000000000000000000000000000000000000000000000000000227c227c227c",
  "nTx": 1,
  "previousblockhash": "000000009e9dd06f63d361bb5fd473750633d924bd367945189b1b8277d85507",
  "nextblockhash": "000000006f84c39f60dbbd7c09a45a8f4c5da4a68202ef7097643de38134fb2b",
  "strippedsize": 216,
  "size": 216,
  "weight": 864,
  "tx": [
    {
      "txid": "19366e898535913133ff4205153e826e21c8fb38c6a91779a6031ac848335447",
      "hash": "19366e898535913133ff4205153e826e21c8fb38c6a91779a6031ac848335447",
      "version": 1,
      "size": 135,
      "vsize": 135,
      "weight": 540,
      "locktime": 0,
      "vin": [
        {
          "coinbase": "04ffff001d029300",
          "sequence": 4294967295
        }
      ],
      "vout": [
        {
          "value": 50.0,
          "n": 0,
          "scriptPubKey": {
            "asm": "04b24ae775689fe8ca6e5afc7bf63820726f4fdb16d9cda8793a452da6ecf4800e3e71114557630a601642362390996f3dc56daa2f4db8aa3b596830e56cc29837 OP_CHECKSIG",
            "desc": "pk(04b24ae775689fe8ca6e5afc7bf63820726f4fdb16d9cda8793a452da6ecf4800e3e71114557630a601642362390996f3dc56daa2f4db8aa3b596830e56cc29837)#zpauq3f3",
            "hex": "4104b24ae775689fe8ca6e5afc7bf63820726f4fdb16d9cda8793a452da6ecf4800e3e71114557630a601642362390996f3dc56daa2f4db8aa3b596830e56cc29837ac",
            "type": "pubkey"
          }
        }
      ],
      "hex": "01000000010000000000000000000000000000000000000000000000000000000000000000ffffffff0804ffff001d029300ffffffff0100f2052a01000000434104b24ae775689fe8ca6e5afc7bf63820726f4fdb16d9cda8793a452da6ecf4800e3e71114557630a601642362390996f3dc56daa2f4db8aa3b596830e56cc29837ac00000000"
    }
  ]
}