{
  "hash": "0000000094e02a704fd219dcb50b118152fc188b53de29768653ed0becd460f6",
  "confirmations": 50442,
  "height": 2656,
  "version": 1,
  "versionHex": "00000001",
  "merkleroot": "29c4c8b97e8465c3a3b99f2e08ba60987552c7dcc1dc031f4c7721a5564a85ff",
  "time": 1233532287,
  "mediantime": 1233529248,
  "nonce": 36012404,
  "bits": "1d00ffff",
  "difficulty": 1,
  "chainwork": "00000000000000000000000000000000000000000000000000000a610a610a61",
  "nTx": 1,
  "previousblockhash": "00000000c0a9a3069cb1445b36f1afad1e491688aeeb15eebff44e8b0529a6f8",
  "nextblockhash": "00000000ce172c65c3d534ea66f719fb4d4a0c9066220375e50c169a0b0c8ada",
  "strippedsize": 216,
  "size": 216,
  "weight": 864,
  "tx": [
    {
      "txid": "29c4c8b97e8465c3a3b99f2e08ba60987552c7dcc1dc031f4c7721a5564a85ff",
      "hash": "29c4c8b97e8465c3a3b99f2e08ba60987552c7dcc1dc031f4c7721a5564a85ff",
      "version": 1,
      "size": 135,
      "vsize": 135,
      "weight": 540,
      "locktime": 0,
      "vin": [
        {
          "coinbase": "04ffff001d02ad00",
          "sequence": 4294967295
        }
      ],
      "vout": [
        {
          "value": 50.0,
          "n": 0,
          "scriptPubKey": {
            "asm": "04dd379669d1e1adb02bd1fe471daa8c26d7d9cba4911ffdce2500cff5676b47c214605365353a8b5290a880b9e1393049a50ff93eeed4b40b26db6c680969179e OP_CHECKSIG",
            "desc": "pk(04dd379669d1e1adb02bd1fe471daa8c26d7d9cba4911ffdce2500cff5676b47c214605365353a8b5290a880b9e1393049a50ff93eeed4b40b26db6c680969179e)#up4uc8f5",
            "hex": "4104dd379669d1e1adb02bd1fe471daa8c26d7d9cba4911ffdce2500cff5676b47c214605365353a8b5290a880b9e1393049a50ff93eeed4b40b26db6c680969179eac",
            "type": "pubkey"
          }
        }
      ],
      "hex": "01000000010000000000000000000000000000000000000000000000000000000000000000ffffffff0804ffff001d02ad00ffffffff0100f2052a01000000434104dd379669d1e1adb02bd1fe471daa8c26d7d9cba4911ffdce2500cff5676b47c214605365353a8b5290a880b9e1393049a50ff93eeed4b40b26db6c680969179eac00000000"
    }
  ]
}