{
  "hash": "00000000c14e61b3119b529b1a97ab7d8cde929ade02ac8ebdf1b44ea1c92f7c",
  "confirmations": 44454,
  "height": 8644,
  "version": 1,
  "versionHex": "00000001",
  "merkleroot": "83f72152feaab5cf3cb3f044559611c3081ed894c21bff9cbf73f7eeffbf1fff",
  "time": 1237980377,
  "mediantime": 1237975364,
  "nonce": 4052803880,
  "bits": "1d00ffff",
  "difficulty": 1,
  "chainwork": "000000000000000000000000000000000000000000000000000021c521c521c5",
  "nTx": 1,
  "previousblockhash": "00000000281a0691c3a787107eb706b38173657935576e16373db912c36ce62d",
  "nextblockhash": "000000007c7f3e6a937d1fdb6124550f92f6a1e0ee4642ba830ea83ebe727872",
  "strippedsize": 216,
  "size": 216,
  "weight": 864,
  "tx": [
    {
      "txid": "83f72152feaab5cf3cb3f044559611c3081ed894c21bff9cbf73f7eeffbf1fff",
      "hash": "83f72152feaab5cf3cb3f044559611c3081ed894c21bff9cbf73f7eeffbf1fff",
      "version": 1,
      "size": 135,
      "vsize": 135,
      "weight": 540,
      "locktime": 0,
      "vin": [
        {
          "coinbase": "04ffff001d02380a",
          "sequence": 4294967295
        }
      ],
      "vout": [
        {
          "value": 50.0,
          "n": 0,
          "scriptPubKey": {
            "asm": "04bd1f0f665271a67f9747ac6186814be1fb833bea2f1179564c979cfea4aeabcfebd4fcb603038dcad909561adb3968f745f587951c1c785307d73fefdbc5e615 OP_CHECKSIG",
            "desc": "pk(04bd1f0f665271a67f9747ac6186814be1fb833bea2f1179564c979cfea4aeabcfebd4fcb603038dcad909561adb3968f745f587951c1c785307d73fefdbc5e615)#8qywzmkk",
            "hex": "4104bd1f0f665271a67f9747ac6186814be1fb833bea2f1179564c979cfea4aeabcfebd4fcb603038dcad909561adb3968f745f587951c1c785307d73fefdbc5e615ac",
            "type": "pubkey"
          }
        }
      ],
      "hex": "01000000010000000000000000000000000000000000000000000000000000000000000000ffffffff0804ffff001d02380affffffff0100f2052a01000000434104bd1f0f665271a67f9747ac6186814be1fb833bea2f1179564c979cfea4aeabcfebd4fcb603038dcad909561adb3968f745f587951c1c785307d73fefdbc5e615ac00000000"
    }
  ]
}