{
  "hash": "0000000026b19c784491f37573fc9f23370abf0188f819b3254030a7452d9a96",
  "confirmations": 45952,
  "height": 7146,
  "version": 1,
  "versionHex": "00000001",
  "merkleroot": "8bbc21a93cc7b182ba8784f1164be59522604aa4d65c8d1277b2a022d3ab7a3b",
  "time": 1236833065,
  "mediantime": 1236827200,
  "nonce": 3447747379,
  "bits": "1d00ffff",
  "difficulty": 1,
  "chainwork": "00000000000000000000000000000000000000000000000000001beb1beb1beb",
  "nTx": 1,
  "previousblockhash": "00000000197e908be9fe98cc0a77e7578be2c575db0033ba7fb8e5e277a35149",
  "nextblockhash": "000000000532dccc9b9b4892a0729da25846d1f31060cddb95aac68aacb0b24d",
  "strippedsize": 216,
  "size": 216,
  "weight": 864,
  "tx": [
    {
      "txid": "8bbc21a93cc7b182ba8784f1164be59522604aa4d65c8d1277b2a022d3ab7a3b",
      "hash": "8bbc21a93cc7b182ba8784f1164be59522604aa4d65c8d1277b2a022d3ab7a3b",
      "version": 1,
      "size": 135,
      "vsize": 135,
      "weight": 540,
      "locktime": 0,
      "vin": [
        {
          "coinbase": "04ffff001d02e304",
          "sequence": 4294967295
        }
      ],
      "vout": [
        {
          "value": 50.0,
          "n": 0,
          "scriptPubKey": {
            "asm": "0435327e79f9f14ece508eb978dd6508491ed56d979ac40fcdff5baaf5ffd0f033d54b192855d3cc77b881e5f5874f5ec10b3361476fd4eca2765a340200692a0c OP_CHECKSIG",
            "desc": "pk(0435327e79f9f14ece508eb978dd6508491ed56d979ac40fcdff5baaf5ffd0f033d54b192855d3cc77b881e5f5874f5ec10b3361476fd4eca2765a340200692a0c)#y58al9sk",
            "hex": "410435327e79f9f14ece508eb978dd6508491ed56d979ac40fcdff5baaf5ffd0f033d54b192855d3cc77b881e5f5874f5ec10b3361476fd4eca2765a340200692a0cac",
            "type": "pubkey"
          }
        }
      ],
      "hex": "01000000010000000000000000000000000000000000000000000000000000000000000000ffffffff0804ffff001d02e304ffffffff0100f2052a0100000043410435327e79f9f14ece508eb978dd6508491ed56d979ac40fcdff5baaf5ffd0f033d54b192855d3cc77b881e5f5874f5ec10b3361476fd4eca2765a340200692a0cac00000000"
    }
  ]
}