{
  "hash": "00000000a9375e4682c7639f8901b8bf8a31f9709a69209bd2fac63e62f1b270",
  "confirmations": 44487,
  "height": 8611,
  "version": 1,
  "versionHex": "00000001",
  "merkleroot": "40f3547c93aea94fb0daa1c93c40ef560a10f2c807c67df1f86caa4c99690d3e",
  "time": 1237957434,
  "mediantime": 1237953842,
  "nonce": 214592989,
  "bits": "1d00ffff",
  "difficulty": 1,
  "chainwork": "000000000000000000000000000000000000000000000000000021a421a421a4",
  "nTx": 1,
  "previousblockhash": "00000000822d2e65cad013384fc0d73e8ab9fa39c5dcd3b6f16f6cfd46724bd9",
  "nextblockhash": "0000000022fd7997791ea0ca7a3d67015af26e1a60614270b182c2ef7b3916f6",
  "strippedsize": 216,
  "size": 216,
  "weight": 864,
  "tx": [
    {
      "txid": "40f3547c93aea94fb0daa1c93c40ef560a10f2c807c67df1f86caa4c99690d3e",
      "hash": "40f3547c93aea94fb0daa1c93c40ef560a10f2c807c67df1f86caa4c99690d3e",
      "version": 1,
      "size": 135,
      "vsize": 135,
      "weight": 540,
      "locktime": 0,
      "vin": [
        {
          "coinbase": "04ffff001d02a703",
          "sequence": 4294967295
        }
      ],
      "vout": [
        {
          "value": 50.0,
          "n": 0,
          "scriptPubKey": {
            "asm": "04554bab79a9b1f2153e4e5bd40e32e7d1c00199bf789d94c03d596de5242120ed7706f4ab04f0bfae625e546ad7d17bdd4051361b6d20a3ad1307bb709de07ec6 OP_CHECKSIG",
            "desc": "pk(04554bab79a9b1f2153e4e5bd40e32e7d1c00199bf789d94c03d596de5242120ed7706f4ab04f0bfae625e546ad7d17bdd4051361b6d20a3ad1307bb709de07ec6)#g0tmms69",
            "hex": "4104554bab79a9b1f2153e4e5bd40e32e7d1c00199bf789d94c03d596de5242120ed7706f4ab04f0bfae625e546ad7d17bdd4051361b6d20a3ad1307bb709de07ec6ac",
            "type": "pubkey"
          }
        }
      ],
      "hex": "01000000010000000000000000000000000000000000000000000000000000000000000000ffffffff0804ffff001d02a703ffffffff0100f2052a01000000434104554bab79a9b1f2153e4e5bd40e32e7d1c00199bf789d94c03d596de5242120ed7706f4ab04f0bfae625e546ad7d17bdd4051361b6d20a3ad1307bb709de07ec6ac00000000"
    }
  ]
}