{
  "hash": "000000005953ab66fcade75efe5ace5e81b5b05529eef7933ff8103a0e35e668",
  "confirmations": 49595,
  "height": 3503,
  "version": 1,
  "versionHex": "00000001",
  "merkleroot": "c3ce4bc435dfcaf97c16f9f76cd07059628ba5630919184155706c1507eabd4c",
  "time": 1234104943,
  "mediantime": 1234101893,
  "nonce": 16848020,
  "bits": "1d00ffff",
  "difficulty": 1,
  "chainwork": "00000000000000000000000000000000000000000000000000000db00db00db0",
  "nTx": 1,
  "previousblockhash": "000000002e6b8a9c11c0816f65784ce63000622b9cdbf37af0e9ca4b64ddbf06",
  "nextblockhash": "00000000e67274b76b18b7cca97c9be3aa3da97da4b2118a069931c07438df14",
  "strippedsize": 216,
  "size": 216,
  "weight": 864,
  "tx": [
    {
      "txid": "c3ce4bc435dfcaf97c16f9f76cd07059628ba5630919184155706c1507eabd4c",
      "hash": "c3ce4bc435dfcaf97c16f9f76cd07059628ba5630919184155706c1507eabd4c",
      "version": 1,
      "size": 135,
      "vsize": 135,
      "weight": 540,
      "locktime": 0,
      "vin": [
        {
          "coinbase": "04ffff001d022609",
          "sequence": 4294967295
        }
      ],
      "vout": [
        {
          "value": 50.0,
          "n": 0,
          "scriptPubKey": {
            "asm": "0488163d84f98d86b3986965d43898027a10eac7993778fecf2af495702284e8f3aa37257e7ea87f60603ed6341f0c03abea34119aaed51ae60615efb4baa758bb OP_CHECKSIG",
            "desc": "pk(0488163d84f98d86b3986965d43898027a10eac7993778fecf2af495702284e8f3aa37257e7ea87f60603ed6341f0c03abea34119aaed51ae60615efb4baa758bb)#lguse2yw",
            "hex": "410488163d84f98d86b3986965d43898027a10eac7993778fecf2af495702284e8f3aa37257e7ea87f60603ed6341f0c03abea34119aaed51ae60615efb4baa758bbac",
            "type": "pubkey"
          }
        }
      ],
      "hex": "01000000010000000000000000000000000000000000000000000000000000000000000000ffffffff0804ffff001d022609ffffffff0100f2052a0100000043410488163d84f98d86b3986965d43898027a10eac7993778fecf2af495702284e8f3aa37257e7ea87f60603ed6341f0c03abea34119aaed51ae60615efb4baa758bbac00000000"
    }
  ]
}