{
  "hash": "000000003a37a28a42eaeee36c324678728a966538a26757c146cfe10daf1184",
  "confirmations": 43889,
  "height": 9209,
  "version": 1,
  "versionHex": "00000001",
  "merkleroot": "f13ed4305ee8686070cf9b9a44d7940a345c2e924e7ac6d9666517373eb02c44",
  "time": 1238408754,
  "mediantime": 1238402224,
  "nonce": 3987497,
  "bits": "1d00ffff",
  "difficulty": 1,
  "chainwork": "000000000000000000000000000000000000000000000000000023fa23fa23fa",
  "nTx": 1,
  "previousblockhash": "00000000ac88f13fb81c5847092057c360e8236a2191f5dfbf35097ae63fb08a",
  "nextblockhash": "00000000cad0c80fe23f256177706c34ded711a048a1be847ef089d4456de671",
  "strippedsize": 215,
  "size": 215,
  "weight": 860,
  "tx": [
    {
      "txid": "f13ed4305ee8686070cf9b9a44d7940a345c2e924e7ac6d9666517373eb02c44",
      "hash": "f13ed4305ee8686070cf9b9a44d7940a345c2e924e7ac6d9666517373eb02c44",
      "version": 1,
      "size": 134,
      "vsize": 134,
      "weight": 536,
      "locktime": 0,
      "vin": [
        {
          "coinbase": "04ffff001d0112",
          "sequence": 4294967295
        }
      ],
      "vout": [
        {
          "value": 50.0,
          "n": 0,
          "scriptPubKey": {
            "asm": "043c390d3c5297044d9bd588ddf27dee5e13532f28071df867e25c8aef5ff07806f6505a2ee1d2751a394997fc1de196460c49485eb4a0f51726b64cd7e9d7af69 OP_CHECKSIG",
            "desc": "pk(043c390d3c5297044d9bd588ddf27dee5e13532f28071df867e25c8aef5ff07806f6505a2ee1d2751a394997fc1de196460c49485eb4a0f51726b64cd7e9d7af69)#szdj0ftq",
            "hex": "41043c390d3c5297044d9bd588ddf27dee5e13532f28071df867e25c8aef5ff07806f6505a2ee1d2751a394997fc1de196460c49485eb4a0f51726b64cd7e9d7af69ac",
            "type": "pubkey"
          }
        }
      ],
      "hex": "01000000010000000000000000000000000000000000000000000000000000000000000000ffffffff0704ffff001d0112ffffffff0100f2052a010000004341043c390d3c5297044d9bd588ddf27dee5e13532f28071df867e25c8aef5ff07806f6505a2ee1d2751a394997fc1de196460c49485eb4a0f51726b64cd7e9d7af69ac00000000"
    }
  ]
}