{
  "hash": "00000000c2603f07ad141c6539dad67ec9afc62ffe29853f7da077aa80505dde",
  "confirmations": 48172,
  "height": 4926,
  "version": 1,
  "versionHex": "00000001",
  "merkleroot": "92f506e93f18db474f8f93c07ed924ece803cdb8f462ea580e5464fe6874da94",
  "time": 1235087435,
  "mediantime": 1235084892,
  "nonce": 494410803,
  "bits": "1d00ffff",
  "difficulty": 1,
  "chainwork": "0000000000000000000000000000000000000000000000000000133f133f133f",
  "nTx": 2,
  "previousblockhash": "00000000f8dc3d57135d86bd5e82957e07ab709eab5dc965fb4385714c77a182",
  "nextblockhash": "000000000c9a17ee88c2f75e0327150ef799177df050d55d12ba4bfb536b83b3",
  "strippedsize": 2087,
  "size": 2087,
  "weight": 8348,
  "tx": [
    {
      "txid": "3b94a2a54cb93a015ce8e572ce3e994613c243562bb7720c39ddee789ddd2783",
      "hash": "3b94a2a54cb93a015ce8e572ce3e994613c243562bb7720c39ddee789ddd2783",
      "version": 1,
      "size": 135,
      "vsize": 135,
      "weight": 540,
      "locktime": 0,
      "vin": [
        {
          "coinbase": "04ffff001d020706",
          "sequence": 4294967295
        }
      ],
      "vout": [
        {
          "value": 50.0,
          "n": 0,
          "scriptPubKey": {
            "asm": "045684b154d2832ea1e2daeecf64cbcbfbc58857e99352a701e0ec64abfed403aa0ab597e956657d27e72ab0788dee2fcd5c6752bb2184ee3cbf4e73326505f07c OP_CHECKSIG",
            "desc": "pk(045684b154d2832ea1e2daeecf64cbcbfbc58857e99352a701e0ec64abfed403aa0ab597e956657d27e72ab0788dee2fcd5c6752bb2184ee3cbf4e73326505f07c)#san8x077",
            "hex": "41045684b154d2832ea1e2daeecf64cbcbfbc58857e99352a701e0ec64abfed403aa0ab597e956657d27e72ab0788dee2fcd5c6752bb2184ee3cbf4e73326505f07cac",
            "type": "pubkey"
          }
        }
      ],
      "hex": "01000000010000000000000000000000000000000000000000000000000000000000000000ffffffff0804ffff001d020706ffffffff0100f2052a010000004341045684b154d2832ea1e2daeecf64cbcbfbc58857e99352a701e0ec64abfed403aa0ab597e956657d27e72ab0788dee2fcd5c6752bb2184ee3cbf4e73326505f07cac00000000"
    },
    {
      "txid": "b52953f7104aa6ffab9391578fc34279ce221700acb2257859657b2901987c63",
      "hash": "b52953f7104aa6ffab9391578fc34279ce221700acb2257859657b2901987c63",
      "version": 1,
      "size": 1871,
      "vsize": 1871,
      "weight": 7484,
      "locktime": 0,
      "vin": [
        {
          "txid": "30f3a6f6991bfdb2825360e676798fdb6958238ccec2a6c8cc8488eca68694bb",
          "vout": 0,
          "scriptSig": {
            "asm": "3046022100b72f9810952e3c21687b9255ae4a35e497d2dca922d7dbc096002a16babb0f29022100c3b71e4b1ef75562e995843f6e3fcd66928b5b272a874ee6ee017ae35d14cd8d[ALL]",
            "hex": "493046022100b72f9810952e3c21687b9255ae4a35e497d2dca922d7dbc096002a16babb0f29022100c3b71e4b1ef75562e995843f6e3fcd66928b5b272a874ee6ee017ae35d14cd8d01"
          },
          "sequence": 4294967295
        },
        {
          "txid": "9a0d369c0124bb38b1a7e685e45631a0433a1f1b0a9ef548739beb7fd5d3177d",
          "vout": 0,
          "scriptSig": {
            "asm": "30440220666071e4b0106af3f37979d488c7e6a5ef25da1d67e6d6892cd6763ad850d7fe02204f2cb98806c0a32ea6e69cfe6eb57893e8c640ec18bb087ae2c9ba136893fd47[ALL]",
            "hex": "4730440220666071e4b0106af3f37979d488c7e6a5ef25da1d67e6d6892cd6763ad850d7fe02204f2cb98806c0a32ea6e69cfe6eb57893e8c640ec18bb087ae2c9ba136893fd4701"
          },
          "sequence": 4294967295
        },
        {
          "txid": "ccb8be5a3b9d82e52b0cbf069beef64ca4fca068b90cf157e52795229922c58a",
          "vout": 0,
          "scriptSig": {
            "asm": "3045022073816dd7fba84f29bbf842506cba55f53d86898613b50cbf4913c5fec21a8f8e022100a8f78cb765c44073d729a530e526d49bfc525b7ee966f73bfc783b9c2dfbbff7[ALL]",
            "hex": "483045022073816dd7fba84f29bbf842506cba55f53d86898613b50cbf4913c5fec21a8f8e022100a8f78cb765c44073d729a530e526d49bfc525b7ee966f73bfc783b9c2dfbbff701"
          },
          "sequence": 4294967295
        },
        {
          "txid": "950cafdcd7f9c493fda41b29037ba7e250061505ed34e5a87658d4e1d2201019",
          "vout": 0,
          "scriptSig": {
            "asm": "30460221008d0c1b6ff27ba01ca0d66c9b27f867ac20379ce7848a9789fb756e3dd2e9afb7022100eded565fde4f2817f8cf08485514fb72ca054385280cb2eb35eedd09d18081b4[ALL]",
            "hex": "4930460221008d0c1b6ff27ba01ca0d66c9b27f867ac20379ce7848a9789fb756e3dd2e9afb7022100eded565fde4f2817f8cf08485514fb72ca054385280cb2eb35eedd09d18081b401"
          },
          "sequence": 4294967295
        },
        {
          "txid": "8e157ea7794a1d56ebe678117bef1d6049f6a2d9736233377978126601ad5606",
          "vout": 0,
          "scriptSig": {
            "asm": "3046022100c0a8d7f5660e7732d1ee445ebecd8e6280a637bb1dd2c52234da71d64bbf038e0221008b1aebc1da93d18945ec4db3c26201ee397a52deeccaff4578b8e667004478ed[ALL]",
            "hex": "493046022100c0a8d7f5660e7732d1ee445ebecd8e6280a637bb1dd2c52234da71d64bbf038e0221008b1aebc1da93d18945ec4db3c26201ee397a52deeccaff4578b8e667004478ed01"
          },
          "sequence": 4294967295
        },
        {
          "txid": "9b85ec2ed3fe535b0bb42bcbe43462b6b596be4123352b7ba5ce62de00e3c7f1",
          "vout": 0,
          "scriptSig": {
            "asm": "304502203c24e87dd020350dcba26b9c1df66a2fc402615c86052144af27b12464ad2ac5022100cebb6ae4140f5b22e124a918b2fade0297644e5af57951579d39743b236216db[ALL]",
            "hex": "48304502203c24e87dd020350dcba26b9c1df66a2fc402615c86052144af27b12464ad2ac5022100cebb6ae4140f5b22e124a918b2fade0297644e5af57951579d39743b236216db01"
          },
          "sequence": 4294967295
        },
        {
          "txid": "fc598dfb07a26e979fb3a36239ec81bae2b58fd1535c285beb4bc16541763f13",
          "vout": 0,
          "scriptSig": {
            "asm": "3046022100802c264659ea55c6405edd52170d99795b426d87ad808e51c8d228890b8d7656022100da040802157749a54c06e47163cb414b5d876ad8c870915ec2b35191c45b3de7[ALL]",
            "hex": "493046022100802c264659ea55c6405edd52170d99795b426d87ad808e51c8d228890b8d7656022100da040802157749a54c06e47163cb414b5d876ad8c870915ec2b35191c45b3de701"
          },
          "sequence": 4294967295
        },
        {
          "txid": "85c1103de829fa20385b113b89a5bd6a090b85405a8d755ff426e1371a51e47a",
          "vout": 0,
          "scriptSig": {
            "asm": "304402205d54758112b4516ccc18c1794722a5dd93ca22d6350e1445dcf336641ea49200022079c6afa3f2716f07a3df9f06c5f4e6dd97006076c84afb9eca487efe48562f4e[ALL]",
            "hex": "47304402205d54758112b4516ccc18c1794722a5dd93ca22d6350e1445dcf336641ea49200022079c6afa3f2716f07a3df9f06c5f4e6dd97006076c84afb9eca487efe48562f4e01"
          },
          "sequence": 4294967295
        },
        {
          "txid": "2a1f696b72d98fcd5ab5b7f2cab275ddbf8806f170035ded447f4af40f095811",
          "vout": 0,
          "scriptSig": {
            "asm": "3046022100ed5198a5d384a3dbf0355ad3b7e29aa0213fb63914f6ae131ac5d6182e24df500221009c940f949d037c936633b232db41b12fc793eda89ab1f0bde20389cd7ab597ae[ALL]",
            "hex": "493046022100ed5198a5d384a3dbf0355ad3b7e29aa0213fb63914f6ae131ac5d6182e24df500221009c940f949d037c936633b232db41b12fc793eda89ab1f0bde20389cd7ab597ae01"
          },
          "sequence": 4294967295
        },
        {
          "txid": "4e753cee854fa260c8958894c16bf7ded63978b97a9637a8b1e8364cbe47b095",
          "vout": 0,
          "scriptSig": {
            "asm": "3046022100e9637d7b4030dab7c220d2f2ccc241765cebce93b1f2d68fa970e85193b576aa022100f5b1fa5c99f9700e5c494b467eb8f9881ca7b9d61d428bbfcaf47bb931821cd2[ALL]",
            "hex": "493046022100e9637d7b4030dab7c220d2f2ccc241765cebce93b1f2d68fa970e85193b576aa022100f5b1fa5c99f9700e5c494b467eb8f9881ca7b9d61d428bbfcaf47bb931821cd201"
          },
          "sequence": 4294967295
        },
        {
          "txid": "5f96d0181adf2040d57f15d6761f96c54411417e26df31fbfb8a5708e2e1a615",
          "vout": 0,
          "scriptSig": {
            "asm": "30460221008cd0d6f5f672d777e9dec5a03c825cadc8b06e842655fc19fc55de3fd5303a42022100b7c5f211656e2449fce510220aa600ca965bf9ec0400791c93b40702396f83fd[ALL]",
            "hex": "4930460221008cd0d6f5f672d777e9dec5a03c825cadc8b06e842655fc19fc55de3fd5303a42022100b7c5f211656e2449fce510220aa600ca965bf9ec0400791c93b40702396f83fd01"
          },
          "sequence": 4294967295
        },
        {
          "txid": "b93c5cd66979d138a12474912b93acc075da93e1f979067cb39f81fcc5a4a042",
          "vout": 0,
          "scriptSig": {
            "asm": "3045022031e351ab551b2b79991147e666042a600666a8c01bcf8faf7491e294d11b7c24022100d8567e5c89de02ef3508b144bf57751627add4f27c4fa9a3e6ec1ac74b84b5cd[ALL]",
            "hex": "483045022031e351ab551b2b79991147e666042a600666a8c01bcf8faf7491e294d11b7c24022100d8567e5c89de02ef3508b144bf57751627add4f27c4fa9a3e6ec1ac74b84b5cd01"
          },
          "sequence": 4294967295
        },
        {
          "txid": "19f17a3f8afced92b84fedae64488f587ddc3bc3f35c35a54fa4c00efd091cdf",
          "vout": 0,
          "scriptSig": {
            "asm": "304402202d159bc312cb31b9b71bc40cc4746c4c345b3f4c4ee15b4ce1df855e01d6b9e402204f7785c59c2543654a9e3420bb250b7751388adef0b82dbd32dc50a8f96b7714[ALL]",
            "hex": "47304402202d159bc312cb31b9b71bc40cc4746c4c345b3f4c4ee15b4ce1df855e01d6b9e402204f7785c59c2543654a9e3420bb250b7751388adef0b82dbd32dc50a8f96b771401"
          },
          "sequence": 4294967295
        },
        {
          "txid": "e76a0be5407bca02384a487b7a9b4b393279a2ebfcd227220d7fd9e529a52693",
          "vout": 0,
          "scriptSig": {
            "asm": "3045022100de97e4e5852b0060772b18680dc53781df6953d306f5f22de1c541575c1f0d55022061ee6584b8248cac6adeb230ddea7a54bba45acbcfdf1391e286c64e24b51a9a[ALL]",
            "hex": "483045022100de97e4e5852b0060772b18680dc53781df6953d306f5f22de1c541575c1f0d55022061ee6584b8248cac6adeb230ddea7a54bba45acbcfdf1391e286c64e24b51a9a01"
          },
          "sequence": 4294967295
        },
        {
          "txid": "db68b2543026b724f768b74830ae8f10ea6b1977a938587e00f45f817fed4aa9",
          "vout": 0,
          "scriptSig": {
            "asm": "3044022019dfe41bf38e5969152170ea4555a9690b7c7e94730d7888d63d35aa048f22b902200f8933c8650a04dbd19d316e587df7c54a686d575bd0f09e94b5712205f6ab74[ALL]",
            "hex": "473044022019dfe41bf38e5969152170ea4555a9690b7c7e94730d7888d63d35aa048f22b902200f8933c8650a04dbd19d316e587df7c54a686d575bd0f09e94b5712205f6ab7401"
          },
          "sequence": 4294967295
        },
        {
          "txid": "df8317be4e3c8e6e17d544521f294d8611877a166f8d53f8472d80819001c0db",
          "vout": 0,
          "scriptSig": {
            "asm": "3045022100fcf271e20e818b4ac91560300053cd27de3c3ea14e3378c6bffe1d2b2ab08455022074a526bad8a4f5077d3e50891fa59499ad4141202ec5b536cb1a747f99c76d93[ALL]",
            "hex": "483045022100fcf271e20e818b4ac91560300053cd27de3c3ea14e3378c6bffe1d2b2ab08455022074a526bad8a4f5077d3e50891fa59499ad4141202ec5b536cb1a747f99c76d9301"
          },
          "sequence": 4294967295
        }
      ],
      "vout": [
        {
          "value": 800.0,
          "n": 0,
          "scriptPubKey": {
            "asm": "OP_DUP OP_HASH160 12ab8dc588ca9d5787dde7eb29569da63c3a238c OP_EQUALVERIFY OP_CHECKSIG",
            "desc": "addr(12higDjoCCNXSA95xZMWUdPvXNmkAduhWv)#zn56zju2",
            "hex": "76a91412ab8dc588ca9d5787dde7eb29569da63c3a238c88ac",
            "address": "12higDjoCCNXSA95xZMWUdPvXNmkAduhWv",
            "type": "pubkeyhash"
          }
        }
      ],
      "fee": 0.0,
      "hex": "0100000010bb9486a6ec8884ccc8a6c2ce8c235869db8f7976e6605382b2fd1b99f6a6f330000000004a493046022100b72f9810952e3c21687b9255ae4a35e497d2dca922d7dbc096002a16babb0f29022100c3b71e4b1ef75562e995843f6e3fcd66928b5b272a874ee6ee017ae35d14cd8d01ffffffff7d17d3d57feb9b7348f59e0a1b1f3a43a03156e485e6a7b138bb24019c360d9a00000000484730440220666071e4b0106af3f37979d488c7e6a5ef25da1d67e6d6892cd6763ad850d7fe02204f2cb98806c0a32ea6e69cfe6eb57893e8c640ec18bb087ae2c9ba136893fd4701ffffffff8ac52299229527e557f10cb968a0fca44cf6ee9b06bf0c2be5829d3b5abeb8cc0000000049483045022073816dd7fba84f29bbf842506cba55f53d86898613b50cbf4913c5fec21a8f8e022100a8f78cb765c44073d729a530e526d49bfc525b7ee966f73bfc783b9c2dfbbff701ffffffff191020d2e1d45876a8e534ed05150650e2a77b03291ba4fd93c4f9d7dcaf0c95000000004a4930460221008d0c1b6ff27ba01ca0d66c9b27f867ac20379ce7848a9789fb756e3dd2e9afb7022100eded565fde4f2817f8cf08485514fb72ca054385280cb2eb35eedd09d18081b401ffffffff0656ad016612787937336273d9a2f649601def7b1178e6eb561d4a79a77e158e000000004a493046022100c0a8d7f5660e7732d1ee445ebecd8e6280a637bb1dd2c52234da71d64bbf038e0221008b1aebc1da93d18945ec4db3c26201ee397a52deeccaff4578b8e667004478ed01fffffffff1c7e300de62cea57b2b352341be96b5b66234e4cb2bb40b5b53fed32eec859b000000004948304502203c24e87dd020350dcba26b9c1df66a2fc402615c86052144af27b12464ad2ac5022100cebb6ae4140f5b22e124a918b2fade0297644e5af57951579d39743b236216db01ffffffff133f764165c14beb5b285c53d18fb5e2ba81ec3962a3b39f976ea207fb8d59fc000000004a493046022100802c264659ea55c6405edd52170d99795b426d87ad808e51c8d228890b8d7656022100da040802157749a54c06e47163cb414b5d876ad8c870915ec2b35191c45b3de701ffffffff7ae4511a37e126f45f758d5a40850b096abda5893b115b3820fa29e83d10c185000000004847304402205d54758112b4516ccc18c1794722a5dd93ca22d6350e1445dcf336641ea49200022079c6afa3f2716f07a3df9f06c5f4e6dd97006076c84afb9eca487efe48562f4e01ffffffff1158090ff44a7f44ed5d0370f10688bfdd75b2caf2b7b55acd8fd9726b691f2a000000004a493046022100ed5198a5d384a3dbf0355ad3b7e29aa0213fb63914f6ae131ac5d6182e24df500221009c940f949d037c936633b232db41b12fc793eda89ab1f0bde20389cd7ab597ae01ffffffff95b047be4c36e8b1a837967ab97839d6def76bc1948895c860a24f85ee3c754e000000004a493046022100e9637d7b4030dab7c220d2f2ccc241765cebce93b1f2d68fa970e85193b576aa022100f5b1fa5c99f9700e5c494b467eb8f9881ca7b9d61d428bbfcaf47bb931821cd201ffffffff15a6e1e208578afbfb31df267e411144c5961f76d6157fd54020df1a18d0965f000000004a4930460221008cd0d6f5f672d777e9dec5a03c825cadc8b06e842655fc19fc55de3fd5303a42022100b7c5f211656e2449fce510220aa600ca965bf9ec0400791c93b40702396f83fd01ffffffff42a0a4c5fc819fb37c0679f9e193da75c0ac932b917424a138d17969d65c3cb90000000049483045022031e351ab551b2b79991147e666042a600666a8c01bcf8faf7491e294d11b7c24022100d8567e5c89de02ef3508b144bf57751627add4f27c4fa9a3e6ec1ac74b84b5cd01ffffffffdf1c09fd0ec0a44fa5355cf3c33bdc7d588f4864aeed4fb892edfc8a3f7af119000000004847304402202d159bc312cb31b9b71bc40cc4746c4c345b3f4c4ee15b4ce1df855e01d6b9e402204f7785c59c2543654a9e3420bb250b7751388adef0b82dbd32dc50a8f96b771401ffffffff9326a529e5d97f0d2227d2fceba27932394b9b7a7b484a3802ca7b40e50b6ae70000000049483045022100de97e4e5852b0060772b18680dc53781df6953d306f5f22de1c541575c1f0d55022061ee6584b8248cac6adeb230ddea7a54bba45acbcfdf1391e286c64e24b51a9a01ffffffffa94aed7f815ff4007e5838a977196bea108fae3048b768f724b7263054b268db0000000048473044022019dfe41bf38e5969152170ea4555a9690b7c7e94730d7888d63d35aa048f22b902200f8933c8650a04dbd19d316e587df7c54a686d575bd0f09e94b5712205f6ab7401ffffffffdbc0019081802d47f8538d6f167a8711864d291f5244d5176e8e3c4ebe1783df0000000049483045022100fcf271e20e818b4ac91560300053cd27de3c3ea14e3378c6bffe1d2b2ab08455022074a526bad8a4f5077d3e50891fa59499ad4141202ec5b536cb1a747f99c76d9301ffffffff0100205fa0120000001976a91412ab8dc588ca9d5787dde7eb29569da63c3a238c88ac00000000"
    }
  ]
}