{
  "hash": "000000005bbced8d14a6ec258a8ab28ae980616e9820437cc3b6d3daff3b7d14",
  "confirmations": 52217,
  "height": 401,
  "version": 1,
  "versionHex": "00000001",
  "merkleroot": "fd6953adbacc06f9465fea4812ba82ddfcfb1a0254f4e63619f54cf2d60db0f4",
  "time": 1231902868,
  "mediantime": 1231898751,
  "nonce": 2895021357,
  "bits": "1d00ffff",
  "difficulty": 1,
  "chainwork": "0000000000000000000000000000000000000000000000000000019201920192",
  "nTx": 1,
  "previousblockhash": "000000002dd9919f0a67590bb7c945cb57270a060ce39e85d8d37536a71928c3",
  "nextblockhash": "000000005265c5afb97e91a7961ea9861612d965e7714df0c9d38da02b59d8f8",
  "strippedsize": 216,
  "size": 216,
  "weight": 864,
  "tx": [
    {
      "txid": "fd6953adbacc06f9465fea4812ba82ddfcfb1a0254f4e63619f54cf2d60db0f4",
      "hash": "fd6953adbacc06f9465fea4812ba82ddfcfb1a0254f4e63619f54cf2d60db0f4",
      "version": 1,
      "size": 135,
      "vsize": 135,
      "weight": 540,
      "locktime": 0,
      "vin": [
        {
          "coinbase": "04ffff001d027c02",
          "sequence": 4294967295
        }
      ],
      "vout": [
        {
          "value": 50.0,
          "n": 0,
          "scriptPubKey": {
            "asm": "04fee0b2a460546db1488e33a8cfab12b4fc97f1598076bbf21ba6e3873d0a4f48133857ddd62deba2289a112e104206b9597701f480bdfe8452ede94883d34f20 OP_CHECKSIG",
            "desc": "pk(04fee0b2a460546db1488e33a8cfab12b4fc97f1598076bbf21ba6e3873d0a4f48133857ddd62deba2289a112e104206b9597701f480bdfe8452ede94883d34f20)#dzwe7q5v",
            "hex": "4104fee0b2a460546db1488e33a8cfab12b4fc97f1598076bbf21ba6e3873d0a4f48133857ddd62deba2289a112e104206b9597701f480bdfe8452ede94883d34f20ac",
            "type": "pubkey"
          }
        }
      ],
      "hex": "01000000010000000000000000000000000000000000000000000000000000000000000000ffffffff0804ffff001d027c02ffffffff0100f2052a01000000434104fee0b2a460546db1488e33a8cfab12b4fc97f1598076bbf21ba6e3873d0a4f48133857ddd62deba2289a112e104206b9597701f480bdfe8452ede94883d34f20ac00000000"
    }
  ]
}