{
  "hash": "00000000a99927e355bb8699c583c2214cc796c42aa28b82337979b60ef3af1d",
  "confirmations": 52449,
  "height": 649,
  "version": 1,
  "versionHex": "00000001",
  "merkleroot": "ea6195b5f73da179261ff356536dcf8db78096bc5c1e048d071e52121d49c57b",
  "time": 1232068634,
  "mediantime": 1232065311,
  "nonce": 3335042323,
  "bits": "1d00ffff",
  "difficulty": 1,
  "chainwork": "0000000000000000000000000000000000000000000000000000028a028a028a",
  "nTx": 1,
  "previousblockhash": "0000000055f9514359114a754ab74471f39a5fe6034ca6d05ec14e2d03dbd626",
  "nextblockhash": "00000000d3ebca0f1cf140987959ba9231e9da43f3f76aed02d0cfe9d88b71d7",
  "strippedsize": 216,
  "size": 216,
  "weight": 864,
  "tx": [
    {
      "txid": "ea6195b5f73da179261ff356536dcf8db78096bc5c1e048d071e52121d49c57b",
      "hash": "ea6195b5f73da179261ff356536dcf8db78096bc5c1e048d071e52121d49c57b",
      "version": 1,
      "size": 135,
      "vsize": 135,
      "weight": 540,
      "locktime": 0,
      "vin": [
        {
          "coinbase": "04ffff001d027107",
          "sequence": 4294967295
        }
      ],
      "vout": [
        {
          "value": 50.0,
          "n": 0,
          "scriptPubKey": {
            "asm": "044fa0faa06b1ac7edb5e845bf9891144488bad8d5d523aa3c8e176e105b456e9a062d4ab80f1446bd9dae69421948d124493bc0b9f4ff8240062f119759aa197a OP_CHECKSIG",
            "desc": "pk(044fa0faa06b1ac7edb5e845bf9891144488bad8d5d523aa3c8e176e105b456e9a062d4ab80f1446bd9dae69421948d124493bc0b9f4ff8240062f119759aa197a)#sp6kas3g",
            "hex": "41044fa0faa06b1ac7edb5e845bf9891144488bad8d5d523aa3c8e176e105b456e9a062d4ab80f1446bd9dae69421948d124493bc0b9f4ff8240062f119759aa197aac",
            "type": "pubkey"
          }
        }
      ],
      "hex": "01000000010000000000000000000000000000000000000000000000000000000000000000ffffffff0804ffff001d027107ffffffff0100f2052a010000004341044fa0faa06b1ac7edb5e845bf9891144488bad8d5d523aa3c8e176e105b456e9a062d4ab80f1446bd9dae69421948d124493bc0b9f4ff8240062f119759aa197aac00000000"
    }
  ]
}