{
  "hash": "00000000ef6abf5bb17bcf59365ef8b783e18fc7dd5bcb44340b2e710125d9c3",
  "confirmations": 47648,
  "height": 5450,
  "version": 1,
  "versionHex": "00000001",
  "merkleroot": "11a549b502b9552c2473053ccde7e0cda072cb04229ced1f7e1000d6ee5f91cb",
  "time": 1235483873,
  "mediantime": 1235479070,
  "nonce": 360508960,
  "bits": "1d00ffff",
  "difficulty": 1,
  "chainwork": "0000000000000000000000000000000000000000000000000000154b154b154b",
  "nTx": 1,
  "previousblockhash": "00000000eaeca7cc08894da9fcee0099c1919b82ab34e85727c5d067ab49ca2e",
  "nextblockhash": "00000000e6b85123ef8a72c3001c72a9b003d858acca502f66c0fee3e3f4cccd",
  "strippedsize": 216,
  "size": 216,
  "weight": 864,
  "tx": [
    {
      "txid": "11a549b502b9552c2473053ccde7e0cda072cb04229ced1f7e1000d6ee5f91cb",
      "hash": "11a549b502b9552c2473053ccde7e0cda072cb04229ced1f7e1000d6ee5f91cb",
      "version": 1,
      "size": 135,
      "vsize": 135,
      "weight": 540,
      "locktime": 0,
      "vin": [
        {
          "coinbase": "04ffff001d02af04",
          "sequence": 4294967295
        }
      ],
      "vout": [
        {
          "value": 50.0,
          "n": 0,
          "scriptPubKey": {
            "asm": "0403e723fd4eed69b88651d2677fb5c0e37f1468f2f5db38989609faa3f6997c5c7e560201a29b8ab71e59c6be27f3c8b76613152fd56475befeef80f0754d77c8 OP_CHECKSIG",
            "desc": "pk(0403e723fd4eed69b88651d2677fb5c0e37f1468f2f5db38989609faa3f6997c5c7e560201a29b8ab71e59c6be27f3c8b76613152fd56475befeef80f0754d77c8)#3f826fz5",
            "hex": "410403e723fd4eed69b88651d2677fb5c0e37f1468f2f5db38989609faa3f6997c5c7e560201a29b8ab71e59c6be27f3c8b76613152fd56475befeef80f0754d77c8ac",
            "type": "pubkey"
          }
        }
      ],
      "hex": "01000000010000000000000000000000000000000000000000000000000000000000000000ffffffff0804ffff001d02af04ffffffff0100f2052a0100000043410403e723fd4eed69b88651d2677fb5c0e37f1468f2f5db38989609faa3f6997c5c7e560201a29b8ab71e59c6be27f3c8b76613152fd56475befeef80f0754d77c8ac00000000"
    }
  ]
}