{
  "hash": "0000000055e1bfe86b760726149ede44d6e4e1557de44a5c3c01fa6a711834de",
  "confirmations": 44714,
  "height": 8384,
  "version": 1,
  "versionHex": "00000001",
  "merkleroot": "82c03fc0cb995e1f255353ae53dbeec319e6f88e417f58e9739ac1f8ef851617",
  "time": 1237790027,
  "mediantime": 1237786183,
  "nonce": 477427480,
  "bits": "1d00ffff",
  "difficulty": 1,
  "chainwork": "000000000000000000000000000000000000000000000000000020c120c120c1",
  "nTx": 1,
  "previousblockhash": "0000000064fce990466181c0ea20c9b98a71a8a5b285a1b0ab8ca7bb185ee799",
  "nextblockhash": "00000000a14f239cdc6a14fb064456fc7d6795201d7d3527909183540a19a530",
  "strippedsize": 216,
  "size": 216,
  "weight": 864,
  "tx": [
    {
      "txid": "82c03fc0cb995e1f255353ae53dbeec319e6f88e417f58e9739ac1f8ef851617",
      "hash": "82c03fc0cb995e1f255353ae53dbeec319e6f88e417f58e9739ac1f8ef851617",
      "version": 1,
      "size": 135,
      "vsize": 135,
      "weight": 540,
      "locktime": 0,
      "vin": [
        {
          "coinbase": "04ffff001d028b05",
          "sequence": 4294967295
        }
      ],
      "vout": [
        {
          "value": 50.0,
          "n": 0,
          "scriptPubKey": {
            "asm": "041d11c8e7223f2a98504d6fd5e808e66862c3103bf952f84729d4f5fee85165562ac9cf9e2ce246149a485612afddefa81afcfbd34473d4b69679670ff620756e OP_CHECKSIG",
            "desc": "pk(041d11c8e7223f2a98504d6fd5e808e66862c3103bf952f84729d4f5fee85165562ac9cf9e2ce246149a485612afddefa81afcfbd34473d4b69679670ff620756e)#wthjqp20",
            "hex": "41041d11c8e7223f2a98504d6fd5e808e66862c3103bf952f84729d4f5fee85165562ac9cf9e2ce246149a485612afddefa81afcfbd34473d4b69679670ff620756eac",
            "type": "pubkey"
          }
        }
      ],
      "hex": "01000000010000000000000000000000000000000000000000000000000000000000000000ffffffff0804ffff001d028b05ffffffff0100f2052a010000004341041d11c8e7223f2a98504d6fd5e808e66862c3103bf952f84729d4f5fee85165562ac9cf9e2ce246149a485612afddefa81afcfbd34473d4b69679670ff620756eac00000000"
    }
  ]
}