{
  "hash": "00000000659f3dabb63b2c492b466867ca8838e7e3272e72b090bb05c7e8e7f6",
  "confirmations": 45949,
  "height": 7149,
  "version": 1,
  "versionHex": "00000001",
  "merkleroot": "eb492e0b56b7a09de2dfeb3dfbfc943326641cc662fbb0d4631edd756ccfa792",
  "time": 1236835826,
  "mediantime": 1236830336,
  "nonce": 1703688250,
  "bits": "1d00ffff",
  "difficulty": 1,
  "chainwork": "00000000000000000000000000000000000000000000000000001bee1bee1bee",
  "nTx": 1,
  "previousblockhash": "00000000a842cb9481ae4f8612cec3a71f96c79c7921e378f41586ab8d0fa022",
  "nextblockhash": "00000000a3a74b99b0ae09e50c7f317c03be3482bf752390b30adc67b12f23bf",
  "strippedsize": 216,
  "size": 216,
  "weight": 864,
  "tx": [
    {
      "txid": "eb492e0b56b7a09de2dfeb3dfbfc943326641cc662fbb0d4631edd756ccfa792",
      "hash": "eb492e0b56b7a09de2dfeb3dfbfc943326641cc662fbb0d4631edd756ccfa792",
      "version": 1,
      "size": 135,
      "vsize": 135,
      "weight": 540,
      "locktime": 0,
      "vin": [
        {
          "coinbase": "04ffff001d02ec04",
          "sequence": 4294967295
        }
      ],
      "vout": [
        {
          "value": 50.0,
          "n": 0,
          "scriptPubKey": {
            "asm": "04a8a15007f51b5377cd51519c83bf6f7615d413a507dddbb285591f144b8ef9a501c1a321440b1e6bb791b0493883f2b69eeaa5bc9962b29c71e3a21cdf4d3949 OP_CHECKSIG",
            "desc": "pk(04a8a15007f51b5377cd51519c83bf6f7615d413a507dddbb285591f144b8ef9a501c1a321440b1e6bb791b0493883f2b69eeaa5bc9962b29c71e3a21cdf4d3949)#7gjvc0c8",
            "hex": "4104a8a15007f51b5377cd51519c83bf6f7615d413a507dddbb285591f144b8ef9a501c1a321440b1e6bb791b0493883f2b69eeaa5bc9962b29c71e3a21cdf4d3949ac",
            "type": "pubkey"
          }
        }
      ],
      "hex": "01000000010000000000000000000000000000000000000000000000000000000000000000ffffffff0804ffff001d02ec04ffffffff0100f2052a01000000434104a8a15007f51b5377cd51519c83bf6f7615d413a507dddbb285591f144b8ef9a501c1a321440b1e6bb791b0493883f2b69eeaa5bc9962b29c71e3a21cdf4d3949ac00000000"
    }
  ]
}