{
  "hash": "00000000b2ff1d0b976c244900e87f7434c26699e31c1ac5bcd7a3453f926fbd",
  "confirmations": 43804,
  "height": 9294,
  "version": 1,
  "versionHex": "00000001",
  "merkleroot": "801bb106368258042e6151d8c7d550c2776b8a23dc5b6cada23762dcb3d4e3b8",
  "time": 1238470452,
  "mediantime": 1238466235,
  "nonce": 3217820709,
  "bits": "1d00ffff",
  "difficulty": 1,
  "chainwork": "0000000000000000000000000000000000000000000000000000244f244f244f",
  "nTx": 1,
  "previousblockhash": "000000002c9d378f8e2d1ce7ecbf23fcae0db52433af7926cf5bba44094c2e98",
  "nextblockhash": "00000000ee7cb461956c7fc73133ddf14c7592395f7063df1656bf62425bb8f6",
  "strippedsize": 216,
  "size": 216,
  "weight": 864,
  "tx": [
    {
      "txid": "801bb106368258042e6151d8c7d550c2776b8a23dc5b6cada23762dcb3d4e3b8",
      "hash": "801bb106368258042e6151d8c7d550c2776b8a23dc5b6cada23762dcb3d4e3b8",
      "version": 1,
      "size": 135,
      "vsize": 135,
      "weight": 540,
      "locktime": 0,
      "vin": [
        {
          "coinbase": "04ffff001d02a301",
          "sequence": 4294967295
        }
      ],
      "vout": [
        {
          "value": 50.0,
          "n": 0,
          "scriptPubKey": {
            "asm": "04df9aa1a32a979a76fbcc95bb558bd47527b01a84b004c941ff2bdb91f0b901ee7b22d06f619633e7e56ab83787822bc6f37bea2266c9aa3c028dbfdc4db9584c OP_CHECKSIG",
            "desc": "pk(04df9aa1a32a979a76fbcc95bb558bd47527b01a84b004c941ff2bdb91f0b901ee7b22d06f619633e7e56ab83787822bc6f37bea2266c9aa3c028dbfdc4db9584c)#xjdupuza",
            "hex": "4104df9aa1a32a979a76fbcc95bb558bd47527b01a84b004c941ff2bdb91f0b901ee7b22d06f619633e7e56ab83787822bc6f37bea2266c9aa3c028dbfdc4db9584cac",
            "type": "pubkey"
          }
        }
      ],
      "hex": "01000000010000000000000000000000000000000000000000000000000000000000000000ffffffff0804ffff001d02a301ffffffff0100f2052a01000000434104df9aa1a32a979a76fbcc95bb558bd47527b01a84b004c941ff2bdb91f0b901ee7b22d06f619633e7e56ab83787822bc6f37bea2266c9aa3c028dbfdc4db9584cac00000000"
    }
  ]
}