{
  "hash": "00000000ccd826ff77e291e889257fb4834603f97f79a9a29a7f878b2b53a189",
  "confirmations": 48695,
  "height": 4403,
  "version": 1,
  "versionHex": "00000001",
  "merkleroot": "b14f21e8f3d5bfd939def030fdd4edab3753be66b1c59f3a880e939ba2bff096",
  "time": 1234715751,
  "mediantime": 1234711085,
  "nonce": 1343053347,
  "bits": "1d00ffff",
  "difficulty": 1,
  "chainwork": "0000000000000000000000000000000000000000000000000000113411341134",
  "nTx": 1,
  "previousblockhash": "000000008e48f92403a332a50fe2b306c15f3cf54dd704f648ef9a3711b449ef",
  "nextblockhash": "0000000029f34cca9f18d2b4cac7c29982730646e10e028848ade71a43454ca9",
  "strippedsize": 216,
  "size": 216,
  "weight": 864,
  "tx": [
    {
      "txid": "b14f21e8f3d5bfd939def030fdd4edab3753be66b1c59f3a880e939ba2bff096",
      "hash": "b14f21e8f3d5bfd939def030fdd4edab3753be66b1c59f3a880e939ba2bff096",
      "version": 1,
      "size": 135,
      "vsize": 135,
      "weight": 540,
      "locktime": 0,
      "vin": [
        {
          "coinbase": "04ffff001d026701",
          "sequence": 4294967295
        }
      ],
      "vout": [
        {
          "value": 50.0,
          "n": 0,
          "scriptPubKey": {
            "asm": "04e923a5604c095c8736a708f59eeef3cc016ae2b458e881928bf6e86a0242cdf5ee3bc7446644c3c127cf32a9fba7631b828f293df1b0bd7c15b85c5863399165 OP_CHECKSIG",
            "desc": "pk(04e923a5604c095c8736a708f59eeef3cc016ae2b458e881928bf6e86a0242cdf5ee3bc7446644c3c127cf32a9fba7631b828f293df1b0bd7c15b85c5863399165)#seycfahn",
            "hex": "4104e923a5604c095c8736a708f59eeef3cc016ae2b458e881928bf6e86a0242cdf5ee3bc7446644c3c127cf32a9fba7631b828f293df1b0bd7c15b85c5863399165ac",
            "type": "pubkey"
          }
        }
      ],
      "hex": "01000000010000000000000000000000000000000000000000000000000000000000000000ffffffff0804ffff001d026701ffffffff0100f2052a01000000434104e923a5604c095c8736a708f59eeef3cc016ae2b458e881928bf6e86a0242cdf5ee3bc7446644c3c127cf32a9fba7631b828f293df1b0bd7c15b85c5863399165ac00000000"
    }
  ]
}