{
  "hash": "00000000c5c3b1bc0d890199113420a367920b20ab98ed8f6a3d31c932241789",
  "confirmations": 50115,
  "height": 2983,
  "version": 1,
  "versionHex": "00000001",
  "merkleroot": "3794f9fdcf8ea78174c85b3d945de9ccfb85b90b8caebe32dcc1ec203e8ab2fa",
  "time": 1233750202,
  "mediantime": 1233747450,
  "nonce": 3336475141,
  "bits": "1d00ffff",
  "difficulty": 1,
  "chainwork": "00000000000000000000000000000000000000000000000000000ba80ba80ba8",
  "nTx": 1,
  "previousblockhash": "00000000b5726567b9bd085a532889faaaa0baa8c269746353f2a484a1fde927",
  "nextblockhash": "00000000df3afd79d626891075799dc5f771ffa6993d743a9fbdcd43528f366f",
  "strippedsize": 216,
  "size": 216,
  "weight": 864,
  "tx": [
    {
      "txid": "3794f9fdcf8ea78174c85b3d945de9ccfb85b90b8caebe32dcc1ec203e8ab2fa",
      "hash": "3794f9fdcf8ea78174c85b3d945de9ccfb85b90b8caebe32dcc1ec203e8ab2fa",
      "version": 1,
      "size": 135,
      "vsize": 135,
      "weight": 540,
      "locktime": 0,
      "vin": [
        {
          "coinbase": "04ffff001d022101",
          "sequence": 4294967295
        }
      ],
      "vout": [
        {
          "value": 50.0,
          "n": 0,
          "scriptPubKey": {
            "asm": "0409a0ca0f927714ea67c26b5d8a382666d6cd2b69c5340390dd81d6007648cb4f9f2652f4e1e755dfbc887ef84f423906f921465eb564fe4c3df5bb6de2bd5bbd OP_CHECKSIG",
            "desc": "pk(0409a0ca0f927714ea67c26b5d8a382666d6cd2b69c5340390dd81d6007648cb4f9f2652f4e1e755dfbc887ef84f423906f921465eb564fe4c3df5bb6de2bd5bbd)#9wc7p95h",
            "hex": "410409a0ca0f927714ea67c26b5d8a382666d6cd2b69c5340390dd81d6007648cb4f9f2652f4e1e755dfbc887ef84f423906f921465eb564fe4c3df5bb6de2bd5bbdac",
            "type": "pubkey"
          }
        }
      ],
      "hex": "01000000010000000000000000000000000000000000000000000000000000000000000000ffffffff0804ffff001d022101ffffffff0100f2052a0100000043410409a0ca0f927714ea67c26b5d8a382666d6cd2b69c5340390dd81d6007648cb4f9f2652f4e1e755dfbc887ef84f423906f921465eb564fe4c3df5bb6de2bd5bbdac00000000"
    }
  ]
}