{
  "hash": "000000001326764b4bc72d992b3361606326b201ed99fc42609afec79c18ae28",
  "confirmations": 45779,
  "height": 7319,
  "version": 1,
  "versionHex": "00000001",
  "merkleroot": "8af483401ccbba46a39b359b23e44f1cac1d82f8745b0d19cde82952aac4e195",
  "time": 1236961662,
  "mediantime": 1236958532,
  "nonce": 40294291,
  "bits": "1d00ffff",
  "difficulty": 1,
  "chainwork": "00000000000000000000000000000000000000000000000000001c981c981c98",
  "nTx": 1,
  "previousblockhash": "00000000e0bbdd572a72c9c8b5498e93354bba77e83ab0b345596845d706ea51",
  "nextblockhash": "00000000316a89cc10bd7218f681b36ca5b9e761c0438e2617dc4fb8a1c65c8b",
  "strippedsize": 215,
  "size": 215,
  "weight": 860,
  "tx": [
    {
      "txid": "8af483401ccbba46a39b359b23e44f1cac1d82f8745b0d19cde82952aac4e195",
      "hash": "8af483401ccbba46a39b359b23e44f1cac1d82f8745b0d19cde82952aac4e195",
      "version": 1,
      "size": 134,
      "vsize": 134,
      "weight": 536,
      "locktime": 0,
      "vin": [
        {
          "coinbase": "04ffff001d010b",
          "sequence": 4294967295
        }
      ],
      "vout": [
        {
          "value": 50.0,
          "n": 0,
          "scriptPubKey": {
            "asm": "044cbf47e43297d7cda9e34e627df500a8bcb5daa421f837e274a5806e33b39fb366ab45bb985890da7964c75544a7a52f320493b9b2d1096ef2469c5f332aec71 OP_CHECKSIG",
            "desc": "pk(044cbf47e43297d7cda9e34e627df500a8bcb5daa421f837e274a5806e33b39fb366ab45bb985890da7964c75544a7a52f320493b9b2d1096ef2469c5f332aec71)#c5ep0pj6",
            "hex": "41044cbf47e43297d7cda9e34e627df500a8bcb5daa421f837e274a5806e33b39fb366ab45bb985890da7964c75544a7a52f320493b9b2d1096ef2469c5f332aec71ac",
            "type": "pubkey"
          }
        }
      ],
      "hex": "01000000010000000000000000000000000000000000000000000000000000000000000000ffffffff0704ffff001d010bffffffff0100f2052a010000004341044cbf47e43297d7cda9e34e627df500a8bcb5daa421f837e274a5806e33b39fb366ab45bb985890da7964c75544a7a52f320493b9b2d1096ef2469c5f332aec71ac00000000"
    }
  ]
}