{
  "hash": "00000000704779006e444bbfb928cd324da7c62685e7b4f120301e3ad59be0da",
  "confirmations": 52011,
  "height": 327,
  "version": 1,
  "versionHex": "00000001",
  "merkleroot": "58becca2c848749afc28feba09088b6dc2968a95be41f2109ded23be0fb8ad75",
  "time": 1231851531,
  "mediantime": 1231847669,
  "nonce": 3320722200,
  "bits": "1d00ffff",
  "difficulty": 1,
  "chainwork": "0000000000000000000000000000000000000000000000000000014801480148",
  "nTx": 1,
  "previousblockhash": "00000000197fab9874dc712a61ca3a9544c9919e299d030851c978bab2dcb4e3",
  "nextblockhash": "00000000a3ea820f0c258b8379b6f6c2ef0260e19aa78f60aae160caf2a8abd5",
  "strippedsize": 216,
  "size": 216,
  "weight": 864,
  "tx": [
    {
      "txid": "58becca2c848749afc28feba09088b6dc2968a95be41f2109ded23be0fb8ad75",
      "hash": "58becca2c848749afc28feba09088b6dc2968a95be41f2109ded23be0fb8ad75",
      "version": 1,
      "size": 135,
      "vsize": 135,
      "weight": 540,
      "locktime": 0,
      "vin": [
        {
          "coinbase": "04ffff001d021b01",
          "sequence": 4294967295
        }
      ],
      "vout": [
        {
          "value": 50.0,
          "n": 0,
          "scriptPubKey": {
            "asm": "04a38bd1fdc62676ba92c7d3d1326ebcc305e9eec6888c91c5df1588916fb4555be6bc128787f59c14504471b0c23d2cc6f4c5b25b516868de8e07e051b65174d2 OP_CHECKSIG",
            "desc": "pk(04a38bd1fdc62676ba92c7d3d1326ebcc305e9eec6888c91c5df1588916fb4555be6bc128787f59c14504471b0c23d2cc6f4c5b25b516868de8e07e051b65174d2)#nd0aav6m",
            "hex": "4104a38bd1fdc62676ba92c7d3d1326ebcc305e9eec6888c91c5df1588916fb4555be6bc128787f59c14504471b0c23d2cc6f4c5b25b516868de8e07e051b65174d2ac",
            "type": "pubkey"
          }
        }
      ],
      "hex": "01000000010000000000000000000000000000000000000000000000000000000000000000ffffffff0804ffff001d021b01ffffffff0100f2052a01000000434104a38bd1fdc62676ba92c7d3d1326ebcc305e9eec6888c91c5df1588916fb4555be6bc128787f59c14504471b0c23d2cc6f4c5b25b516868de8e07e051b65174d2ac00000000"
    }
  ]
}