{
  "hash": "00000000858aa3785d1874097feee96e35aa9e80804207d1af28f2ba251ea9bd",
  "confirmations": 50990,
  "height": 2108,
  "version": 1,
  "versionHex": "00000001",
  "merkleroot": "45c1ee26b751a205ab95bb7c68f2496c90b19a86ffdb0faa337114513d75de09",
  "time": 1233142955,
  "mediantime": 1233138860,
  "nonce": 158241282,
  "bits": "1d00ffff",
  "difficulty": 1,
  "chainwork": "0000000000000000000000000000000000000000000000000000083d083d083d",
  "nTx": 1,
  "previousblockhash": "000000004e9312de3e91560422cfc38f37d6e96f836169d3cbef6284df27c0da",
  "nextblockhash": "00000000ea7f9f046ae440a6d6b3e42f67b20c9d51d300cd5d757f309beaf883",
  "strippedsize": 216,
  "size": 216,
  "weight": 864,
  "tx": [
    {
      "txid": "45c1ee26b751a205ab95bb7c68f2496c90b19a86ffdb0faa337114513d75de09",
      "hash": "45c1ee26b751a205ab95bb7c68f2496c90b19a86ffdb0faa337114513d75de09",
      "version": 1,
      "size": 135,
      "vsize": 135,
      "weight": 540,
      "locktime": 0,
      "vin": [
        {
          "coinbase": "04ffff001d02a803",
          "sequence": 4294967295
        }
      ],
      "vout": [
        {
          "value": 50.0,
          "n": 0,
          "scriptPubKey": {
            "asm": "0485838928ccdeadbaec7a3b639bbfff08edd937f69a01630a39918a9f68e0106f7855654be72e36a5079f6e4f973b670fe4415265552af439f68457a2aadf287f OP_CHECKSIG",
            "desc": "pk(0485838928ccdeadbaec7a3b639bbfff08edd937f69a01630a39918a9f68e0106f7855654be72e36a5079f6e4f973b670fe4415265552af439f68457a2aadf287f)#xrtd4s9a",
            "hex": "410485838928ccdeadbaec7a3b639bbfff08edd937f69a01630a39918a9f68e0106f7855654be72e36a5079f6e4f973b670fe4415265552af439f68457a2aadf287fac",
            "type": "pubkey"
          }
        }
      ],
      "hex": "01000000010000000000000000000000000000000000000000000000000000000000000000ffffffff0804ffff001d02a803ffffffff0100f2052a0100000043410485838928ccdeadbaec7a3b639bbfff08edd937f69a01630a39918a9f68e0106f7855654be72e36a5079f6e4f973b670fe4415265552af439f68457a2aadf287fac00000000"
    }
  ]
}