{
  "hash": "000000002d598c3ddbc6950d1d6e6214c00a480423f45994b65f3673b40b0b07",
  "confirmations": 47269,
  "height": 5829,
  "version": 1,
  "versionHex": "00000001",
  "merkleroot": "f2d7e5e8b4e4d36e8054b6617c88773c2e44b4174d886d01fab5b82e48a49c54",
  "time": 1235783381,
  "mediantime": 1235778671,
  "nonce": 3288025636,
  "bits": "1d00ffff",
  "difficulty": 1,
  "chainwork": "000000000000000000000000000000000000000000000000000016c616c616c6",
  "nTx": 1,
  "previousblockhash": "000000009aa258286ef2b93b9e9f435db70027bb8c67af64709500da5eeac52b",
  "nextblockhash": "00000000cdeb81c95c5e4bf2a5afd6d63cc07a2e00bf09ff93363fe2351fcac6",
  "strippedsize": 216,
  "size": 216,
  "weight": 864,
  "tx": [
    {
      "txid": "f2d7e5e8b4e4d36e8054b6617c88773c2e44b4174d886d01fab5b82e48a49c54",
      "hash": "f2d7e5e8b4e4d36e8054b6617c88773c2e44b4174d886d01fab5b82e48a49c54",
      "version": 1,
      "size": 135,
      "vsize": 135,
      "weight": 540,
      "locktime": 0,
      "vin": [
        {
          "coinbase": "04ffff001d026001",
          "sequence": 4294967295
        }
      ],
      "vout": [
        {
          "value": 50.0,
          "n": 0,
          "scriptPubKey": {
            "asm": "044f94b6a2730ff0c673bf2fb90d5d7049d590b25bf453730b124ef56604ffd385a36570dfe8f4942a58742ef621bbd5d9eefc664c117d7e12893bf6936642a893 OP_CHECKSIG",
            "desc": "pk(044f94b6a2730ff0c673bf2fb90d5d7049d590b25bf453730b124ef56604ffd385a36570dfe8f4942a58742ef621bbd5d9eefc664c117d7e12893bf6936642a893)#szs8nehp",
            "hex": "41044f94b6a2730ff0c673bf2fb90d5d7049d590b25bf453730b124ef56604ffd385a36570dfe8f4942a58742ef621bbd5d9eefc664c117d7e12893bf6936642a893ac",
            "type": "pubkey"
          }
        }
      ],
      "hex": "01000000010000000000000000000000000000000000000000000000000000000000000000ffffffff0804ffff001d026001ffffffff0100f2052a010000004341044f94b6a2730ff0c673bf2fb90d5d7049d590b25bf453730b124ef56604ffd385a36570dfe8f4942a58742ef621bbd5d9eefc664c117d7e12893bf6936642a893ac00000000"
    }
  ]
}