{
  "hash": "0000000062f7c49b1b1fd14cac362c40affbf322e40c9f2603148e62ae95ac9f",
  "confirmations": 52429,
  "height": 669,
  "version": 1,
  "versionHex": "00000001",
  "merkleroot": "1415e98024ffc168fa4d78cc82534e96ce473adaae18134782a0a82984954975",
  "time": 1232081542,
  "mediantime": 1232078396,
  "nonce": 2686500654,
  "bits": "1d00ffff",
  "difficulty": 1,
  "chainwork": "0000000000000000000000000000000000000000000000000000029e029e029e",
  "nTx": 1,
  "previousblockhash": "0000000049caf505993a97999aaae3865ad632f413c1f7465b5629fd77153beb",
  "nextblockhash": "00000000bb7f77903d7ebcd8849cc4c6570bbd52e623f6ee341e8e67241251fc",
  "strippedsize": 215,
  "size": 215,
  "weight": 860,
  "tx": [
    {
      "txid": "1415e98024ffc168fa4d78cc82534e96ce473adaae18134782a0a82984954975",
      "hash": "1415e98024ffc168fa4d78cc82534e96ce473adaae18134782a0a82984954975",
      "version": 1,
      "size": 134,
      "vsize": 134,
      "weight": 536,
      "locktime": 0,
      "vin": [
        {
          "coinbase": "04ffff001d0129",
          "sequence": 4294967295
        }
      ],
      "vout": [
        {
          "value": 50.0,
          "n": 0,
          "scriptPubKey": {
            "asm": "040c5edd45f14597bb2560a7ea62de3a0e311bee36e5ab4fb73fc998e9f6cf0a9f4f6cfa7aed0573a94aedd653d9ab0fce8c7ab3fc09bb1e4920a7aa9334285ba9 OP_CHECKSIG",
            "desc": "pk(040c5edd45f14597bb2560a7ea62de3a0e311bee36e5ab4fb73fc998e9f6cf0a9f4f6cfa7aed0573a94aedd653d9ab0fce8c7ab3fc09bb1e4920a7aa9334285ba9)#aej590h4",
            "hex": "41040c5edd45f14597bb2560a7ea62de3a0e311bee36e5ab4fb73fc998e9f6cf0a9f4f6cfa7aed0573a94aedd653d9ab0fce8c7ab3fc09bb1e4920a7aa9334285ba9ac",
            "type": "pubkey"
          }
        }
      ],
      "hex": "01000000010000000000000000000000000000000000000000000000000000000000000000ffffffff0704ffff001d0129ffffffff0100f2052a010000004341040c5edd45f14597bb2560a7ea62de3a0e311bee36e5ab4fb73fc998e9f6cf0a9f4f6cfa7aed0573a94aedd653d9ab0fce8c7ab3fc09bb1e4920a7aa9334285ba9ac00000000"
    }
  ]
}