{
  "hash": "0000000034c2e9a10fa013104bd7e20ee50a6fb2e1ee4445b5cb1958c13cabec",
  "confirmations": 52221,
  "height": 877,
  "version": 1,
  "versionHex": "00000001",
  "merkleroot": "3b4fa5050b6c63831ae924805a3247ce5ec640523a70ad9d6da0a36a51c0fdff",
  "time": 1232254751,
  "mediantime": 1232250005,
  "nonce": 4182088199,
  "bits": "1d00ffff",
  "difficulty": 1,
  "chainwork": "0000000000000000000000000000000000000000000000000000036e036e036e",
  "nTx": 1,
  "previousblockhash": "00000000f8a387a6c5e6f093d97339ed517f2ee6592168556f761a758b82a983",
  "nextblockhash": "00000000ee13abb6a7b843cd46d0a5318e27139585832922a4a2dd16096eca50",
  "strippedsize": 216,
  "size": 216,
  "weight": 864,
  "tx": [
    {
      "txid": "3b4fa5050b6c63831ae924805a3247ce5ec640523a70ad9d6da0a36a51c0fdff",
      "hash": "3b4fa5050b6c63831ae924805a3247ce5ec640523a70ad9d6da0a36a51c0fdff",
      "version": 1,
      "size": 135,
      "vsize": 135,
      "weight": 540,
      "locktime": 0,
      "vin": [
        {
          "coinbase": "04ffff001d021e03",
          "sequence": 4294967295
        }
      ],
      "vout": [
        {
          "value": 50.0,
          "n": 0,
          "scriptPubKey": {
            "asm": "04cb3ad6e3e2435fd622aa709697bc2ebb47f9f92b86eb5bc425baf5493720c7a940eb93915b3932a50fbbc2819fe402e491e4ec99587d9114f35d841da7e86a23 OP_CHECKSIG",
            "desc": "pk(04cb3ad6e3e2435fd622aa709697bc2ebb47f9f92b86eb5bc425baf5493720c7a940eb93915b3932a50fbbc2819fe402e491e4ec99587d9114f35d841da7e86a23)#4hfngeqm",
            "hex": "4104cb3ad6e3e2435fd622aa709697bc2ebb47f9f92b86eb5bc425baf5493720c7a940eb93915b3932a50fbbc2819fe402e491e4ec99587d9114f35d841da7e86a23ac",
            "type": "pubkey"
          }
        }
      ],
      "hex": "01000000010000000000000000000000000000000000000000000000000000000000000000ffffffff0804ffff001d021e03ffffffff0100f2052a01000000434104cb3ad6e3e2435fd622aa709697bc2ebb47f9f92b86eb5bc425baf5493720c7a940eb93915b3932a50fbbc2819fe402e491e4ec99587d9114f35d841da7e86a23ac00000000"
    }
  ]
}