{
  "hash": "000000007aa0bd7ea8a357ebefe146618e6fc470640430185e580df485354d63",
  "confirmations": 49195,
  "height": 3903,
  "version": 1,
  "versionHex": "00000001",
  "merkleroot": "7ef8234a1798522a9a4f248080287e00c8db6d7e0276305b77f3b067c0dd1083",
  "time": 1234371537,
  "mediantime": 1234367805,
  "nonce": 221845848,
  "bits": "1d00ffff",
  "difficulty": 1,
  "chainwork": "00000000000000000000000000000000000000000000000000000f400f400f40",
  "nTx": 1,
  "previousblockhash": "000000006d6915857ac924ae6be19ad161952abf693f2ee4494a4abaa158b880",
  "nextblockhash": "00000000756c9be39d5ce204f928ce4539c364659ac91dacd34e88b848e6008c",
  "strippedsize": 215,
  "size": 215,
  "weight": 860,
  "tx": [
    {
      "txid": "7ef8234a1798522a9a4f248080287e00c8db6d7e0276305b77f3b067c0dd1083",
      "hash": "7ef8234a1798522a9a4f248080287e00c8db6d7e0276305b77f3b067c0dd1083",
      "version": 1,
      "size": 134,
      "vsize": 134,
      "weight": 536,
      "locktime": 0,
      "vin": [
        {
          "coinbase": "04ffff001d0121",
          "sequence": 4294967295
        }
      ],
      "vout": [
        {
          "value": 50.0,
          "n": 0,
          "scriptPubKey": {
            "asm": "04fc5ee8322074490342e3f014b14b545ce02042a0505a2d5515b5123e844ec364410f4fc17e1630866882cd03a9cf48d0644f40929e60e92589fcdc310f6a4d3a OP_CHECKSIG",
            "desc": "pk(04fc5ee8322074490342e3f014b14b545ce02042a0505a2d5515b5123e844ec364410f4fc17e1630866882cd03a9cf48d0644f40929e60e92589fcdc310f6a4d3a)#qc3s2ke0",
            "hex": "4104fc5ee8322074490342e3f014b14b545ce02042a0505a2d5515b5123e844ec364410f4fc17e1630866882cd03a9cf48d0644f40929e60e92589fcdc310f6a4d3aac",
            "type": "pubkey"
          }
        }
      ],
      "hex": "01000000010000000000000000000000000000000000000000000000000000000000000000ffffffff0704ffff001d0121ffffffff0100f2052a01000000434104fc5ee8322074490342e3f014b14b545ce02042a0505a2d5515b5123e844ec364410f4fc17e1630866882cd03a9cf48d0644f40929e60e92589fcdc310f6a4d3aac00000000"
    }
  ]
}