{
  "hash": "0000000072f60db6866296490c6a70516b5258b7fce00ae379b6633f22ae0d66",
  "confirmations": 50892,
  "height": 2206,
  "version": 1,
  "versionHex": "00000001",
  "merkleroot": "08b35e504f2c0cea6609aeb365e4b546f8e60bd66e7ffdffc3c102f49e1d7b73",
  "time": 1233219428,
  "mediantime": 1233216865,
  "nonce": 2475115315,
  "bits": "1d00ffff",
  "difficulty": 1,
  "chainwork": "0000000000000000000000000000000000000000000000000000089f089f089f",
  "nTx": 1,
  "previousblockhash": "00000000fe6d533b5787262eda06ba7585fd527b5a7ffb39aab2e9cf49fa8205",
  "nextblockhash": "00000000960a29c869fc09bae1f2475f2b85710b2070479e1a6c133768916921",
  "strippedsize": 215,
  "size": 215,
  "weight": 860,
  "tx": [
    {
      "txid": "08b35e504f2c0cea6609aeb365e4b546f8e60bd66e7ffdffc3c102f49e1d7b73",
      "hash": "08b35e504f2c0cea6609aeb365e4b546f8e60bd66e7ffdffc3c102f49e1d7b73",
      "version": 1,
      "size": 134,
      "vsize": 134,
      "weight": 536,
      "locktime": 0,
      "vin": [
        {
          "coinbase": "04ffff001d0177",
          "sequence": 4294967295
        }
      ],
      "vout": [
        {
          "value": 50.0,
          "n": 0,
          "scriptPubKey": {
            "asm": "04a3ee5ef07d0530bd0c2253034c358a41b6e0325e9b8a00799ae5b5f48d8cebbbe03a856894266fb06c5bd10fd55db59219f15abe8ad739e846a0234c7cd20922 OP_CHECKSIG",
            "desc": "pk(04a3ee5ef07d0530bd0c2253034c358a41b6e0325e9b8a00799ae5b5f48d8cebbbe03a856894266fb06c5bd10fd55db59219f15abe8ad739e846a0234c7cd20922)#gt30eh2p",
            "hex": "4104a3ee5ef07d0530bd0c2253034c358a41b6e0325e9b8a00799ae5b5f48d8cebbbe03a856894266fb06c5bd10fd55db59219f15abe8ad739e846a0234c7cd20922ac",
            "type": "pubkey"
          }
        }
      ],
      "hex": "01000000010000000000000000000000000000000000000000000000000000000000000000ffffffff0704ffff001d0177ffffffff0100f2052a01000000434104a3ee5ef07d0530bd0c2253034c358a41b6e0325e9b8a00799ae5b5f48d8cebbbe03a856894266fb06c5bd10fd55db59219f15abe8ad739e846a0234c7cd20922ac00000000"
    }
  ]
}