{
  "hash": "00000000994224fb25bdb3642854d2c03137272675b05516e478dac3323873be",
  "confirmations": 47888,
  "height": 5210,
  "version": 1,
  "versionHex": "00000001",
  "merkleroot": "ccdec17001c40a0f3bfd0f70c210b655547ba51a1f324ceabf1dba2ff68343c7",
  "time": 1235292748,
  "mediantime": 1235289320,
  "nonce": 2636577321,
  "bits": "1d00ffff",
  "difficulty": 1,
  "chainwork": "0000000000000000000000000000000000000000000000000000145b145b145b",
  "nTx": 1,
  "previousblockhash": "00000000386e3d6a8e6bd289519e5aafb9c7216d173e9621465931dfe321d2ee",
  "nextblockhash": "000000003ee04ee60071265a1b483c7a127aa3c1d64373e89f3a1ab4330e6af7",
  "strippedsize": 216,
  "size": 216,
  "weight": 864,
  "tx": [
    {
      "txid": "ccdec17001c40a0f3bfd0f70c210b655547ba51a1f324ceabf1dba2ff68343c7",
      "hash": "ccdec17001c40a0f3bfd0f70c210b655547ba51a1f324ceabf1dba2ff68343c7",
      "version": 1,
      "size": 135,
      "vsize": 135,
      "weight": 540,
      "locktime": 0,
      "vin": [
        {
          "coinbase": "04ffff001d02b800",
          "sequence": 4294967295
        }
      ],
      "vout": [
        {
          "value": 50.0,
          "n": 0,
          "scriptPubKey": {
            "asm": "0470045605710947d081c34a993db08115485b9e2b6e6a269ea6593b496219da1f0e463222842e0b44c17b2b80cd57f9917b0c9aac95a06dd0b3e12c394c67ce2b OP_CHECKSIG",
            "desc": "pk(0470045605710947d081c34a993db08115485b9e2b6e6a269ea6593b496219da1f0e463222842e0b44c17b2b80cd57f9917b0c9aac95a06dd0b3e12c394c67ce2b)#nt0jp2z5",
            "hex": "410470045605710947d081c34a993db08115485b9e2b6e6a269ea6593b496219da1f0e463222842e0b44c17b2b80cd57f9917b0c9aac95a06dd0b3e12c394c67ce2bac",
            "type": "pubkey"
          }
        }
      ],
      "hex": "01000000010000000000000000000000000000000000000000000000000000000000000000ffffffff0804ffff001d02b800ffffffff0100f2052a0100000043410470045605710947d081c34a993db08115485b9e2b6e6a269ea6593b496219da1f0e463222842e0b44c17b2b80cd57f9917b0c9aac95a06dd0b3e12c394c67ce2bac00000000"
    }
  ]
}