{
  "hash": "000000002f62790a7d68267a5175c6a6a32a34e13c3b8491002e40f95bd03539",
  "confirmations": 51691,
  "height": 1407,
  "version": 1,
  "versionHex": "00000001",
  "merkleroot": "d40798ed67eb1e1cb372d596242478b8fff2a8907c96a80545312bae2cd41fda",
  "time": 1232728843,
  "mediantime": 1232726853,
  "nonce": 1985848099,
  "bits": "1d00ffff",
  "difficulty": 1,
  "chainwork": "0000000000000000000000000000000000000000000000000000058005800580",
  "nTx": 1,
  "previousblockhash": "00000000aeb12f1156bd7d568d39a9db82f70e093aeec472cff510af553b7c7c",
  "nextblockhash": "000000005c6574a59fc3992c3609187a06df3e5bcdb065c054e73f35d0f29ab0",
  "strippedsize": 215,
  "size": 215,
  "weight": 860,
  "tx": [
    {
      "txid": "d40798ed67eb1e1cb372d596242478b8fff2a8907c96a80545312bae2cd41fda",
      "hash": "d40798ed67eb1e1cb372d596242478b8fff2a8907c96a80545312bae2cd41fda",
      "version": 1,
      "size": 134,
      "vsize": 134,
      "weight": 536,
      "locktime": 0,
      "vin": [
        {
          "coinbase": "04ffff001d0128",
          "sequence": 4294967295
        }
      ],
      "vout": [
        {
          "value": 50.0,
          "n": 0,
          "scriptPubKey": {
            "asm": "04f5f4fbb9ebff4666f28d20338708bceb56501e3f72c0509cd9a87976c99bfffe5e9cd98c481954ed668cc1997af09b3deca114309fc09f15de4b76ca12bfca11 OP_CHECKSIG",
            "desc": "pk(04f5f4fbb9ebff4666f28d20338708bceb56501e3f72c0509cd9a87976c99bfffe5e9cd98c481954ed668cc1997af09b3deca114309fc09f15de4b76ca12bfca11)#x8s0naam",
            "hex": "4104f5f4fbb9ebff4666f28d20338708bceb56501e3f72c0509cd9a87976c99bfffe5e9cd98c481954ed668cc1997af09b3deca114309fc09f15de4b76ca12bfca11ac",
            "type": "pubkey"
          }
        }
      ],
      "hex": "01000000010000000000000000000000000000000000000000000000000000000000000000ffffffff0704ffff001d0128ffffffff0100f2052a01000000434104f5f4fbb9ebff4666f28d20338708bceb56501e3f72c0509cd9a87976c99bfffe5e9cd98c481954ed668cc1997af09b3deca114309fc09f15de4b76ca12bfca11ac00000000"
    }
  ]
}