{
  "hash": "000000008efa1b463e936907b292aba8ec65a84c4b1e0978763b3e3dd9305b11",
  "confirmations": 50559,
  "height": 2539,
  "version": 1,
  "versionHex": "00000001",
  "merkleroot": "325fdd477b9c02b8f3e1f56ace888915268464b6f934651be0e44e666ff069ed",
  "time": 1233444068,
  "mediantime": 1233440429,
  "nonce": 1981759515,
  "bits": "1d00ffff",
  "difficulty": 1,
  "chainwork": "000000000000000000000000000000000000000000000000000009ec09ec09ec",
  "nTx": 1,
  "previousblockhash": "0000000044521f3387f0d64467c2abd615f9c8ce3547542d4af7de426cb553b8",
  "nextblockhash": "00000000e3691de8b867864819eb3a97965e196f5f28f3ea18556af720845db3",
  "strippedsize": 216,
  "size": 216,
  "weight": 864,
  "tx": [
    {
      "txid": "325fdd477b9c02b8f3e1f56ace888915268464b6f934651be0e44e666ff069ed",
      "hash": "325fdd477b9c02b8f3e1f56ace888915268464b6f934651be0e44e666ff069ed",
      "version": 1,
      "size": 135,
      "vsize": 135,
      "weight": 540,
      "locktime": 0,
      "vin": [
        {
          "coinbase": "04ffff001d029801",
          "sequence": 4294967295
        }
      ],
      "vout": [
        {
          "value": 50.0,
          "n": 0,
          "scriptPubKey": {
            "asm": "0406eb143502ddb4b2edfcbfac2b4d9ecbc824dcc39516ba23a18811bdcc413a24e04a17ac06f8dc84d912f900ca50b478c80f1fde05d52bd72fb08ee9db75115c OP_CHECKSIG",
            "desc": "pk(0406eb143502ddb4b2edfcbfac2b4d9ecbc824dcc39516ba23a18811bdcc413a24e04a17ac06f8dc84d912f900ca50b478c80f1fde05d52bd72fb08ee9db75115c)#zru8eta8",
            "hex": "410406eb143502ddb4b2edfcbfac2b4d9ecbc824dcc39516ba23a18811bdcc413a24e04a17ac06f8dc84d912f900ca50b478c80f1fde05d52bd72fb08ee9db75115cac",
            "type": "pubkey"
          }
        }
      ],
      "hex": "01000000010000000000000000000000000000000000000000000000000000000000000000ffffffff0804ffff001d029801ffffffff0100f2052a0100000043410406eb143502ddb4b2edfcbfac2b4d9ecbc824dcc39516ba23a18811bdcc413a24e04a17ac06f8dc84d912f900ca50b478c80f1fde05d52bd72fb08ee9db75115cac00000000"
    }
  ]
}