{
  "hash": "0000000062ae6360470475642d32e20fea058d523b9eb55f8eef54d77a4aad52",
  "confirmations": 51355,
  "height": 1743,
  "version": 1,
  "versionHex": "00000001",
  "merkleroot": "d925eebb456176b4ba7b677ce923b1c0caa25d48700ce22e9d4da4db4cc2a96f",
  "time": 1232871155,
  "mediantime": 1232868076,
  "nonce": 9694215,
  "bits": "1d00ffff",
  "difficulty": 1,
  "chainwork": "000000000000000000000000000000000000000000000000000006d006d006d0",
  "nTx": 1,
  "previousblockhash": "000000004963669f3b1276e3222d0a6539fad4ca5b1bb5e7150af49f5c6751f1",
  "nextblockhash": "00000000fcb88e7c9e4300f89c53c2c1bf547335e2edc1d88b226717dd2c618e",
  "strippedsize": 216,
  "size": 216,
  "weight": 864,
  "tx": [
    {
      "txid": "d925eebb456176b4ba7b677ce923b1c0caa25d48700ce22e9d4da4db4cc2a96f",
      "hash": "d925eebb456176b4ba7b677ce923b1c0caa25d48700ce22e9d4da4db4cc2a96f",
      "version": 1,
      "size": 135,
      "vsize": 135,
      "weight": 540,
      "locktime": 0,
      "vin": [
        {
          "coinbase": "04ffff001d023902",
          "sequence": 4294967295
        }
      ],
      "vout": [
        {
          "value": 50.0,
          "n": 0,
          "scriptPubKey": {
            "asm": "044d640062b9921ff9b80e677be4e2543f6839738ef907205d4f7c72732ce32db798ff156e9dbe4cf81dd99e7e5dbd5aab377864aed8e04a2667a18ca3e4bd4678 OP_CHECKSIG",
            "desc": "pk(044d640062b9921ff9b80e677be4e2543f6839738ef907205d4f7c72732ce32db798ff156e9dbe4cf81dd99e7e5dbd5aab377864aed8e04a2667a18ca3e4bd4678)#talad8pp",
            "hex": "41044d640062b9921ff9b80e677be4e2543f6839738ef907205d4f7c72732ce32db798ff156e9dbe4cf81dd99e7e5dbd5aab377864aed8e04a2667a18ca3e4bd4678ac",
            "type": "pubkey"
          }
        }
      ],
      "hex": "01000000010000000000000000000000000000000000000000000000000000000000000000ffffffff0804ffff001d023902ffffffff0100f2052a010000004341044d640062b9921ff9b80e677be4e2543f6839738ef907205d4f7c72732ce32db798ff156e9dbe4cf81dd99e7e5dbd5aab377864aed8e04a2667a18ca3e4bd4678ac00000000"
    }
  ]
}