{
  "hash": "0000000029a7476b452e3cbb70b34d2166b718d5934ecc69417047f035f6b268",
  "confirmations": 50108,
  "height": 2990,
  "version": 1,
  "versionHex": "00000001",
  "merkleroot": "b24e56fd35b1345d3d455a5bea94834c2af09756b90ec0480bb2bc355f23d28d",
  "time": 1233753984,
  "mediantime": 1233751572,
  "nonce": 142518632,
  "bits": "1d00ffff",
  "difficulty": 1,
  "chainwork": "00000000000000000000000000000000000000000000000000000baf0baf0baf",
  "nTx": 1,
  "previousblockhash": "00000000255db9eba93d22c7b4beefe19c08289501ed42a1cfe3c470507f3139",
  "nextblockhash": "00000000c6cb8dd2ab0f9a04b67feb0a177f88d427ca780a945a4954c54fd4e7",
  "strippedsize": 215,
  "size": 215,
  "weight": 860,
  "tx": [
    {
      "txid": "b24e56fd35b1345d3d455a5bea94834c2af09756b90ec0480bb2bc355f23d28d",
      "hash": "b24e56fd35b1345d3d455a5bea94834c2af09756b90ec0480bb2bc355f23d28d",
      "version": 1,
      "size": 134,
      "vsize": 134,
      "weight": 536,
      "locktime": 0,
      "vin": [
        {
          "coinbase": "04ffff001d0113",
          "sequence": 4294967295
        }
      ],
      "vout": [
        {
          "value": 50.0,
          "n": 0,
          "scriptPubKey": {
            "asm": "046972c23303848d237ed68a4325259a8f1bdb679ce94498986505183c429e7d318a6824361fa57e30f5e9cc7d27c27bbc79abc4f512c5206bea571b0368cb1af5 OP_CHECKSIG",
            "desc": "pk(046972c23303848d237ed68a4325259a8f1bdb679ce94498986505183c429e7d318a6824361fa57e30f5e9cc7d27c27bbc79abc4f512c5206bea571b0368cb1af5)#0g665kzp",
            "hex": "41046972c23303848d237ed68a4325259a8f1bdb679ce94498986505183c429e7d318a6824361fa57e30f5e9cc7d27c27bbc79abc4f512c5206bea571b0368cb1af5ac",
            "type": "pubkey"
          }
        }
      ],
      "hex": "01000000010000000000000000000000000000000000000000000000000000000000000000ffffffff0704ffff001d0113ffffffff0100f2052a010000004341046972c23303848d237ed68a4325259a8f1bdb679ce94498986505183c429e7d318a6824361fa57e30f5e9cc7d27c27bbc79abc4f512c5206bea571b0368cb1af5ac00000000"
    }
  ]
}