{
  "hash": "000000007ba45c0524f5e967947892c696890127fb4c9826c4240569907aa704",
  "confirmations": 43199,
  "height": 9899,
  "version": 1,
  "versionHex": "00000001",
  "merkleroot": "114177fb447069db0a5d24a12252ad8b94af64ad537f6c0e2239931bce28253d",
  "time": 1238922266,
  "mediantime": 1238919646,
  "nonce": 1501561379,
  "bits": "1d00ffff",
  "difficulty": 1,
  "chainwork": "000000000000000000000000000000000000000000000000000026ac26ac26ac",
  "nTx": 1,
  "previousblockhash": "0000000000da30f96e392bc421c7e25bd8cf67013a0f5d740ace7206f2e144c6",
  "nextblockhash": "00000000aaba6f091b5f8a356dcaee98fe8c5ea8bc915cc4516dd9da528c0724",
  "strippedsize": 216,
  "size": 216,
  "weight": 864,
  "tx": [
    {
      "txid": "114177fb447069db0a5d24a12252ad8b94af64ad537f6c0e2239931bce28253d",
      "hash": "114177fb447069db0a5d24a12252ad8b94af64ad537f6c0e2239931bce28253d",
      "version": 1,
      "size": 135,
      "vsize": 135,
      "weight": 540,
      "locktime": 0,
      "vin": [
        {
          "coinbase": "04ffff001d020702",
          "sequence": 4294967295
        }
      ],
      "vout": [
        {
          "value": 50.0,
          "n": 0,
          "scriptPubKey": {
            "asm": "040398a288ed7d9b7ad28df624810dba05f835f6d5f8448b12638056acff65e1c1f9eaf88418d6b910d253cb7a8195e3da846b6cdc33ea333635430636136f53a7 OP_CHECKSIG",
            "desc": "pk(040398a288ed7d9b7ad28df624810dba05f835f6d5f8448b12638056acff65e1c1f9eaf88418d6b910d253cb7a8195e3da846b6cdc33ea333635430636136f53a7)#pqaskk03",
            "hex": "41040398a288ed7d9b7ad28df624810dba05f835f6d5f8448b12638056acff65e1c1f9eaf88418d6b910d253cb7a8195e3da846b6cdc33ea333635430636136f53a7ac",
            "type": "pubkey"
          }
        }
      ],
      "hex": "01000000010000000000000000000000000000000000000000000000000000000000000000ffffffff0804ffff001d020702ffffffff0100f2052a010000004341040398a288ed7d9b7ad28df624810dba05f835f6d5f8448b12638056acff65e1c1f9eaf88418d6b910d253cb7a8195e3da846b6cdc33ea333635430636136f53a7ac00000000"
    }
  ]
}