{
  "hash": "00000000174a25bb399b009cc8deff1c4b3ea84df7e93affaaf60dc3416cc4f5",
  "confirmations": 51787,
  "height": 16,
  "version": 1,
  "versionHex": "00000001",
  "merkleroot": "e79fc1dad370e628614702f048edc8e98829cf8ea8f6615db19f992b1be92e44",
  "time": 1231562758,
  "mediantime": 1231474360,
  "nonce": 3591544324,
  "bits": "1d00ffff",
  "difficulty": 1,
  "chainwork": "0000000000000000000000000000000000000000000000000000001100110011",
  "nTx": 1,
  "previousblockhash": "00000000b3322c8c3ef7d2cf6da009a776e6a99ee65ec5a32f3f345712238473",
  "nextblockhash": "000000003ff1d0d70147acfbef5d6a87460ff5bcfce807c2d5b6f0a66bfdf809",
  "strippedsize": 215,
  "size": 215,
  "weight": 860,
  "tx": [
    {
      "txid": "e79fc1dad370e628614702f048edc8e98829cf8ea8f6615db19f992b1be92e44",
      "hash": "e79fc1dad370e628614702f048edc8e98829cf8ea8f6615db19f992b1be92e44",
      "version": 1,
      "size": 134,
      "vsize": 134,
      "weight": 536,
      "locktime": 0,
      "vin": [
        {
          "coinbase": "04ffff001d010b",
          "sequence": 4294967295
        }
      ],
      "vout": [
        {
          "value": 50.0,
          "n": 0,
          "scriptPubKey": {
            "asm": "04977367164ca24f1f2de2e2cfb9e5c3f22d510d3f33683de200283100af0c8667dba7e4e389fa9953c6cb83d6ea72990e139f529b58cfbbac27607a28207b2a37 OP_CHECKSIG",
            "desc": "pk(04977367164ca24f1f2de2e2cfb9e5c3f22d510d3f33683de200283100af0c8667dba7e4e389fa9953c6cb83d6ea72990e139f529b58cfbbac27607a28207b2a37)#eqsvsark",
            "hex": "4104977367164ca24f1f2de2e2cfb9e5c3f22d510d3f33683de200283100af0c8667dba7e4e389fa9953c6cb83d6ea72990e139f529b58cfbbac27607a28207b2a37ac",
            "type": "pubkey"
          }
        }
      ],
      "hex": "01000000010000000000000000000000000000000000000000000000000000000000000000ffffffff0704ffff001d010bffffffff0100f2052a01000000434104977367164ca24f1f2de2e2cfb9e5c3f22d510d3f33683de200283100af0c8667dba7e4e389fa9953c6cb83d6ea72990e139f529b58cfbbac27607a28207b2a37ac00000000"
    }
  ]
}