{
  "hash": "00000000ca844600025aa239105586f08b88f3c384f318918c01b3f7865689fe",
  "confirmations": 45993,
  "height": 7105,
  "version": 1,
  "versionHex": "00000001",
  "merkleroot": "794f9795141adff62e7d518ff5d302e5596ea6323f3e5b29300d1c3070fb6c14",
  "time": 1236800760,
  "mediantime": 1236797719,
  "nonce": 175086066,
  "bits": "1d00ffff",
  "difficulty": 1,
  "chainwork": "00000000000000000000000000000000000000000000000000001bc21bc21bc2",
  "nTx": 1,
  "previousblockhash": "00000000e56221fe739b4293f144e3e3345f729599a5ac97d35cf26ca38c8950",
  "nextblockhash": "000000006fc251fff0970e90d49897132adfe8cfb32e7e998d05fe42bf17b151",
  "strippedsize": 215,
  "size": 215,
  "weight": 860,
  "tx": [
    {
      "txid": "794f9795141adff62e7d518ff5d302e5596ea6323f3e5b29300d1c3070fb6c14",
      "hash": "794f9795141adff62e7d518ff5d302e5596ea6323f3e5b29300d1c3070fb6c14",
      "version": 1,
      "size": 134,
      "vsize": 134,
      "weight": 536,
      "locktime": 0,
      "vin": [
        {
          "coinbase": "04ffff001d0138",
          "sequence": 4294967295
        }
      ],
      "vout": [
        {
          "value": 50.0,
          "n": 0,
          "scriptPubKey": {
            "asm": "0466263f894175e8bcc8d822e7723147a716fd7d532aa9f95e17a0e783735f03374cdf38de04f9b54c8028e78c6376e4c80c457f8ea70cd501a6bd1e1253661ead OP_CHECKSIG",
            "desc": "pk(0466263f894175e8bcc8d822e7723147a716fd7d532aa9f95e17a0e783735f03374cdf38de04f9b54c8028e78c6376e4c80c457f8ea70cd501a6bd1e1253661ead)#d0u29kt2",
            "hex": "410466263f894175e8bcc8d822e7723147a716fd7d532aa9f95e17a0e783735f03374cdf38de04f9b54c8028e78c6376e4c80c457f8ea70cd501a6bd1e1253661eadac",
            "type": "pubkey"
          }
        }
      ],
      "hex": "01000000010000000000000000000000000000000000000000000000000000000000000000ffffffff0704ffff001d0138ffffffff0100f2052a0100000043410466263f894175e8bcc8d822e7723147a716fd7d532aa9f95e17a0e783735f03374cdf38de04f9b54c8028e78c6376e4c80c457f8ea70cd501a6bd1e1253661eadac00000000"
    }
  ]
}