{
  "hash": "0000000088df66fc4e4d47c146e721b526b8bbfd0816997e3a04dc56558f6cc8",
  "confirmations": 43521,
  "height": 9577,
  "version": 1,
  "versionHex": "00000001",
  "merkleroot": "244fc5af57516cfcb78686b81ad04362d751734654dccdc96072fb1a8def998e",
  "time": 1238682029,
  "mediantime": 1238679887,
  "nonce": 2835147815,
  "bits": "1d00ffff",
  "difficulty": 1,
  "chainwork": "0000000000000000000000000000000000000000000000000000256a256a256a",
  "nTx": 1,
  "previousblockhash": "0000000098e3770b1ae304350692cdfc809035b2077627cbcbd664cf5171a5a2",
  "nextblockhash": "000000006bb1deadd4d2a845520333048b39248281579a718649a1bdb4eb5ab2",
  "strippedsize": 216,
  "size": 216,
  "weight": 864,
  "tx": [
    {
      "txid": "244fc5af57516cfcb78686b81ad04362d751734654dccdc96072fb1a8def998e",
      "hash": "244fc5af57516cfcb78686b81ad04362d751734654dccdc96072fb1a8def998e",
      "version": 1,
      "size": 135,
      "vsize": 135,
      "weight": 540,
      "locktime": 0,
      "vin": [
        {
          "coinbase": "04ffff001d029d06",
          "sequence": 4294967295
        }
      ],
      "vout": [
        {
          "value": 50.0,
          "n": 0,
          "scriptPubKey": {
            "asm": "04127e3ca14bcd4ba0bf957a89d2e63f8697506bc86b5555c2daa53d16fd71d3fb372d218cc790cdf60fe81e86cca550715598636c7fb371742fe9d069d99edb4c OP_CHECKSIG",
            "desc": "pk(04127e3ca14bcd4ba0bf957a89d2e63f8697506bc86b5555c2daa53d16fd71d3fb372d218cc790cdf60fe81e86cca550715598636c7fb371742fe9d069d99edb4c)#n9mmm5vt",
            "hex": "4104127e3ca14bcd4ba0bf957a89d2e63f8697506bc86b5555c2daa53d16fd71d3fb372d218cc790cdf60fe81e86cca550715598636c7fb371742fe9d069d99edb4cac",
            "type": "pubkey"
          }
        }
      ],
      "hex": "01000000010000000000000000000000000000000000000000000000000000000000000000ffffffff0804ffff001d029d06ffffffff0100f2052a01000000434104127e3ca14bcd4ba0bf957a89d2e63f8697506bc86b5555c2daa53d16fd71d3fb372d218cc790cdf60fe81e86cca550715598636c7fb371742fe9d069d99edb4cac00000000"
    }
  ]
}