{
  "hash": "00000000741591462cc354e1d44ae3cd997c2d49e23227722b1ac5c663400328",
  "confirmations": 49835,
  "height": 3263,
  "version": 1,
  "versionHex": "00000001",
  "merkleroot": "18f2b25291bfc8496334595d154c81a87a59aabc2fdb162d41470c40cf970ac4",
  "time": 1233944227,
  "mediantime": 1233940354,
  "nonce": 2473799444,
  "bits": "1d00ffff",
  "difficulty": 1,
  "chainwork": "00000000000000000000000000000000000000000000000000000cc00cc00cc0",
  "nTx": 1,
  "previousblockhash": "000000001f7d36376d55585e6f69f1f7b4403cf94f30f7d5d523605420a30032",
  "nextblockhash": "00000000cc8e8997eed18bf23dca4f237b62366dec8bfb285009c8f2f3237517",
  "strippedsize": 216,
  "size": 216,
  "weight": 864,
  "tx": [
    {
      "txid": "18f2b25291bfc8496334595d154c81a87a59aabc2fdb162d41470c40cf970ac4",
      "hash": "18f2b25291bfc8496334595d154c81a87a59aabc2fdb162d41470c40cf970ac4",
      "version": 1,
      "size": 135,
      "vsize": 135,
      "weight": 540,
      "locktime": 0,
      "vin": [
        {
          "coinbase": "04ffff001d02ac03",
          "sequence": 4294967295
        }
      ],
      "vout": [
        {
          "value": 50.0,
          "n": 0,
          "scriptPubKey": {
            "asm": "04f86d4a531ae154ec04fdd5afdd3cb55c1038cacb4d58265835a17e919e5c11e063611a73e51e481f4b740e164961ac736c488a52634d42d5a281af5a051f0e7b OP_CHECKSIG",
            "desc": "pk(04f86d4a531ae154ec04fdd5afdd3cb55c1038cacb4d58265835a17e919e5c11e063611a73e51e481f4b740e164961ac736c488a52634d42d5a281af5a051f0e7b)#y9evfetc",
            "hex": "4104f86d4a531ae154ec04fdd5afdd3cb55c1038cacb4d58265835a17e919e5c11e063611a73e51e481f4b740e164961ac736c488a52634d42d5a281af5a051f0e7bac",
            "type": "pubkey"
          }
        }
      ],
      "hex": "01000000010000000000000000000000000000000000000000000000000000000000000000ffffffff0804ffff001d02ac03ffffffff0100f2052a01000000434104f86d4a531ae154ec04fdd5afdd3cb55c1038cacb4d58265835a17e919e5c11e063611a73e51e481f4b740e164961ac736c488a52634d42d5a281af5a051f0e7bac00000000"
    }
  ]
}