{
  "hash": "000000003409ded9db68c486f8a296192c76eb810579bbcb1cf07bfbd4c03e20",
  "confirmations": 52047,
  "height": 1051,
  "version": 1,
  "versionHex": "00000001",
  "merkleroot": "49f199f8a361e791650c3dfec11592d87a0ab72379e36d8956b9165b1d5b9249",
  "time": 1232388432,
  "mediantime": 1232384317,
  "nonce": 861782321,
  "bits": "1d00ffff",
  "difficulty": 1,
  "chainwork": "0000000000000000000000000000000000000000000000000000041c041c041c",
  "nTx": 1,
  "previousblockhash": "000000005282b3bae8fe27fbae5e19473ff1ee6932e1997b139d933ae76fce6f",
  "nextblockhash": "00000000dc5cc02c005e9ca3d4d605099ddde5a28c7a091a8384f67e3362b88f",
  "strippedsize": 216,
  "size": 216,
  "weight": 864,
  "tx": [
    {
      "txid": "49f199f8a361e791650c3dfec11592d87a0ab72379e36d8956b9165b1d5b9249",
      "hash": "49f199f8a361e791650c3dfec11592d87a0ab72379e36d8956b9165b1d5b9249",
      "version": 1,
      "size": 135,
      "vsize": 135,
      "weight": 540,
      "locktime": 0,
      "vin": [
        {
          "coinbase": "04ffff001d020a06",
          "sequence": 4294967295
        }
      ],
      "vout": [
        {
          "value": 50.0,
          "n": 0,
          "scriptPubKey": {
            "asm": "04c8d30ca87461e54de9e45c6f232cc39390b4a6d109c54f0f0ab4ea1b3681ac3858c6f5a8e909218c8b19153723b83ed8394e73b68805dd231f152c8869fe0ce9 OP_CHECKSIG",
            "desc": "pk(04c8d30ca87461e54de9e45c6f232cc39390b4a6d109c54f0f0ab4ea1b3681ac3858c6f5a8e909218c8b19153723b83ed8394e73b68805dd231f152c8869fe0ce9)#t4u8uanf",
            "hex": "4104c8d30ca87461e54de9e45c6f232cc39390b4a6d109c54f0f0ab4ea1b3681ac3858c6f5a8e909218c8b19153723b83ed8394e73b68805dd231f152c8869fe0ce9ac",
            "type": "pubkey"
          }
        }
      ],
      "hex": "01000000010000000000000000000000000000000000000000000000000000000000000000ffffffff0804ffff001d020a06ffffffff0100f2052a01000000434104c8d30ca87461e54de9e45c6f232cc39390b4a6d109c54f0f0ab4ea1b3681ac3858c6f5a8e909218c8b19153723b83ed8394e73b68805dd231f152c8869fe0ce9ac00000000"
    }
  ]
}