{
  "hash": "00000000500be0568fa9e2b97d88cdbe728f68c51228350bd4ee6deb10d563c1",
  "confirmations": 50613,
  "height": 2485,
  "version": 1,
  "versionHex": "00000001",
  "merkleroot": "f3bac26d501476d6e29a5048866b4653b9ae79f2b6cc29c3312ca0b8ac2b7896",
  "time": 1233413501,
  "mediantime": 1233410203,
  "nonce": 2214067256,
  "bits": "1d00ffff",
  "difficulty": 1,
  "chainwork": "000000000000000000000000000000000000000000000000000009b609b609b6",
  "nTx": 1,
  "previousblockhash": "00000000351e0c7b39324667b4e61689a023c202a23a868beb40f8fb75b32be5",
  "nextblockhash": "000000005dee8df90bc9e65889739718ba4a62ee30aedf034d50404823a440e7",
  "strippedsize": 216,
  "size": 216,
  "weight": 864,
  "tx": [
    {
      "txid": "f3bac26d501476d6e29a5048866b4653b9ae79f2b6cc29c3312ca0b8ac2b7896",
      "hash": "f3bac26d501476d6e29a5048866b4653b9ae79f2b6cc29c3312ca0b8ac2b7896",
      "version": 1,
      "size": 135,
      "vsize": 135,
      "weight": 540,
      "locktime": 0,
      "vin": [
        {
          "coinbase": "04ffff001d02ee00",
          "sequence": 4294967295
        }
      ],
      "vout": [
        {
          "value": 50.0,
          "n": 0,
          "scriptPubKey": {
            "asm": "0449beba546b46a5b6832c4a6b93476a750c637c457b646303a7fa9d1ec7a9239b6f51035361ad14fc1e12464b21e682812ff82531b847d7c24b6ec65ddbb0c00b OP_CHECKSIG",
            "desc": "pk(0449beba546b46a5b6832c4a6b93476a750c637c457b646303a7fa9d1ec7a9239b6f51035361ad14fc1e12464b21e682812ff82531b847d7c24b6ec65ddbb0c00b)#q9xy485a",
            "hex": "410449beba546b46a5b6832c4a6b93476a750c637c457b646303a7fa9d1ec7a9239b6f51035361ad14fc1e12464b21e682812ff82531b847d7c24b6ec65ddbb0c00bac",
            "type": "pubkey"
          }
        }
      ],
      "hex": "01000000010000000000000000000000000000000000000000000000000000000000000000ffffffff0804ffff001d02ee00ffffffff0100f2052a0100000043410449beba546b46a5b6832c4a6b93476a750c637c457b646303a7fa9d1ec7a9239b6f51035361ad14fc1e12464b21e682812ff82531b847d7c24b6ec65ddbb0c00bac00000000"
    }
  ]
}