{
  "hash": "00000000641089c958685df21d0ac747441faf8c2c67cb0ac7060e9c1979030f",
  "confirmations": 46469,
  "height": 6629,
  "version": 1,
  "versionHex": "00000001",
  "merkleroot": "9da4cd132d68de00ef6bbe72918fc8e579913cb6d6fb1eb7eeb092d11ab770b3",
  "time": 1236425322,
  "mediantime": 1236421103,
  "nonce": 3591866168,
  "bits": "1d00ffff",
  "difficulty": 1,
  "chainwork": "000000000000000000000000000000000000000000000000000019e619e619e6",
  "nTx": 1,
  "previousblockhash": "000000000f724595d732e7bfdf59303b9bdf7666deb0ad79e7b5875ec181afc1",
  "nextblockhash": "000000006aaf40fd3d8ec376557c446d56be3048e3e50e80270da1f88f1671cc",
  "strippedsize": 216,
  "size": 216,
  "weight": 864,
  "tx": [
    {
      "txid": "9da4cd132d68de00ef6bbe72918fc8e579913cb6d6fb1eb7eeb092d11ab770b3",
      "hash": "9da4cd132d68de00ef6bbe72918fc8e579913cb6d6fb1eb7eeb092d11ab770b3",
      "version": 1,
      "size": 135,
      "vsize": 135,
      "weight": 540,
      "locktime": 0,
      "vin": [
        {
          "coinbase": "04ffff001d02a805",
          "sequence": 4294967295
        }
      ],
      "vout": [
        {
          "value": 50.0,
          "n": 0,
          "scriptPubKey": {
            "asm": "04d285c703648887f226137be3f3868a95ca562f70fa1654f19d530d134cbc00edf6f5827b367d9b358b4ea00f32486b19e630603f5f8708d068c2ba759dec9665 OP_CHECKSIG",
            "desc": "pk(04d285c703648887f226137be3f3868a95ca562f70fa1654f19d530d134cbc00edf6f5827b367d9b358b4ea00f32486b19e630603f5f8708d068c2ba759dec9665)#uus9wqgt",
            "hex": "4104d285c703648887f226137be3f3868a95ca562f70fa1654f19d530d134cbc00edf6f5827b367d9b358b4ea00f32486b19e630603f5f8708d068c2ba759dec9665ac",
            "type": "pubkey"
          }
        }
      ],
      "hex": "01000000010000000000000000000000000000000000000000000000000000000000000000ffffffff0804ffff001d02a805ffffffff0100f2052a01000000434104d285c703648887f226137be3f3868a95ca562f70fa1654f19d530d134cbc00edf6f5827b367d9b358b4ea00f32486b19e630603f5f8708d068c2ba759dec9665ac00000000"
    }
  ]
}