{
  "hash": "0000000013c1c955d8d14f7900f038967ed33183fb6dcd951e7c25447500e535",
  "confirmations": 43936,
  "height": 9162,
  "version": 1,
  "versionHex": "00000001",
  "merkleroot": "65566b2b6e6204e4ffb05295284224ee64231ccbcf3031876de2cfabda4d3423",
  "time": 1238372495,
  "mediantime": 1238369825,
  "nonce": 4172888832,
  "bits": "1d00ffff",
  "difficulty": 1,
  "chainwork": "000000000000000000000000000000000000000000000000000023cb23cb23cb",
  "nTx": 1,
  "previousblockhash": "000000006714b9228d28fec96bff6f515ad2a7e5749a0d05976c9f7636bffaee",
  "nextblockhash": "000000006ece34627639ed4f61f50271c1728d7054aebc4125e94323d478de5e",
  "strippedsize": 216,
  "size": 216,
  "weight": 864,
  "tx": [
    {
      "txid": "65566b2b6e6204e4ffb05295284224ee64231ccbcf3031876de2cfabda4d3423",
      "hash": "65566b2b6e6204e4ffb05295284224ee64231ccbcf3031876de2cfabda4d3423",
      "version": 1,
      "size": 135,
      "vsize": 135,
      "weight": 540,
      "locktime": 0,
      "vin": [
        {
          "coinbase": "04ffff001d028e09",
          "sequence": 4294967295
        }
      ],
      "vout": [
        {
          "value": 50.0,
          "n": 0,
          "scriptPubKey": {
            "asm": "0451c3c9eb44fd97bd66262e6dae06b832cca98177e61d411f12ebcdbf2d7425703543fc3b2770460eb33cc260a1e9fb42cad375e6d308e0c423f39d8cd92899f2 OP_CHECKSIG",
            "desc": "pk(0451c3c9eb44fd97bd66262e6dae06b832cca98177e61d411f12ebcdbf2d7425703543fc3b2770460eb33cc260a1e9fb42cad375e6d308e0c423f39d8cd92899f2)#ulwl0hdx",
            "hex": "410451c3c9eb44fd97bd66262e6dae06b832cca98177e61d411f12ebcdbf2d7425703543fc3b2770460eb33cc260a1e9fb42cad375e6d308e0c423f39d8cd92899f2ac",
            "type": "pubkey"
          }
        }
      ],
      "hex": "01000000010000000000000000000000000000000000000000000000000000000000000000ffffffff0804ffff001d028e09ffffffff0100f2052a0100000043410451c3c9eb44fd97bd66262e6dae06b832cca98177e61d411f12ebcdbf2d7425703543fc3b2770460eb33cc260a1e9fb42cad375e6d308e0c423f39d8cd92899f2ac00000000"
    }
  ]
}