{
  "hash": "00000000dee0460b86b56b79ec96ec6d2477c05bc61d669653c5a172683f7c94",
  "confirmations": 46007,
  "height": 7091,
  "version": 1,
  "versionHex": "00000001",
  "merkleroot": "3570159741d5a461ab39e909e5476c28af82eee6a0840c8f9b00424340b150e0",
  "time": 1236791239,
  "mediantime": 1236785941,
  "nonce": 878667299,
  "bits": "1d00ffff",
  "difficulty": 1,
  "chainwork": "00000000000000000000000000000000000000000000000000001bb41bb41bb4",
  "nTx": 1,
  "previousblockhash": "00000000709a5bd4108d01c035bcd5b73360ead3c107b52fc92a5438f08a0398",
  "nextblockhash": "00000000021df86d6a30dae7cde5561371426a030840af9c6fee2343be63a613",
  "strippedsize": 216,
  "size": 216,
  "weight": 864,
  "tx": [
    {
      "txid": "3570159741d5a461ab39e909e5476c28af82eee6a0840c8f9b00424340b150e0",
      "hash": "3570159741d5a461ab39e909e5476c28af82eee6a0840c8f9b00424340b150e0",
      "version": 1,
      "size": 135,
      "vsize": 135,
      "weight": 540,
      "locktime": 0,
      "vin": [
        {
          "coinbase": "04ffff001d02df03",
          "sequence": 4294967295
        }
      ],
      "vout": [
        {
          "value": 50.0,
          "n": 0,
          "scriptPubKey": {
            "asm": "04fbbadd52037139567481cc91294ff786ce82ebb2cdf2ebc71bcce0d31eb8ff7474d937d009abd73f8649077890f6aa3ceb8e233da4d069da6f387be8db89f713 OP_CHECKSIG",
            "desc": "pk(04fbbadd52037139567481cc91294ff786ce82ebb2cdf2ebc71bcce0d31eb8ff7474d937d009abd73f8649077890f6aa3ceb8e233da4d069da6f387be8db89f713)#n6p0gnak",
            "hex": "4104fbbadd52037139567481cc91294ff786ce82ebb2cdf2ebc71bcce0d31eb8ff7474d937d009abd73f8649077890f6aa3ceb8e233da4d069da6f387be8db89f713ac",
            "type": "pubkey"
          }
        }
      ],
      "hex": "01000000010000000000000000000000000000000000000000000000000000000000000000ffffffff0804ffff001d02df03ffffffff0100f2052a01000000434104fbbadd52037139567481cc91294ff786ce82ebb2cdf2ebc71bcce0d31eb8ff7474d937d009abd73f8649077890f6aa3ceb8e233da4d069da6f387be8db89f713ac00000000"
    }
  ]
}