{
  "hash": "0000000028a1d7efcb39397fe3ec2842c283f2673bf3aa71a15ae846c761716d",
  "confirmations": 47774,
  "height": 5324,
  "version": 1,
  "versionHex": "00000001",
  "merkleroot": "2d989890a93d938acff40efc43b81c8c58f0606809c3391b1c0109e834e341ca",
  "time": 1235381428,
  "mediantime": 1235379073,
  "nonce": 2930747704,
  "bits": "1d00ffff",
  "difficulty": 1,
  "chainwork": "000000000000000000000000000000000000000000000000000014cd14cd14cd",
  "nTx": 1,
  "previousblockhash": "000000007707e148d1e11ef8da96c0974a63937e893242256447316e58d6b98e",
  "nextblockhash": "00000000523bb635c3a4a4a289ea466db478470819de1e06e875b54b5f2b0f6c",
  "strippedsize": 216,
  "size": 216,
  "weight": 864,
  "tx": [
    {
      "txid": "2d989890a93d938acff40efc43b81c8c58f0606809c3391b1c0109e834e341ca",
      "hash": "2d989890a93d938acff40efc43b81c8c58f0606809c3391b1c0109e834e341ca",
      "version": 1,
      "size": 135,
      "vsize": 135,
      "weight": 540,
      "locktime": 0,
      "vin": [
        {
          "coinbase": "04ffff001d026402",
          "sequence": 4294967295
        }
      ],
      "vout": [
        {
          "value": 50.0,
          "n": 0,
          "scriptPubKey": {
            "asm": "04b6ac07af93fc83e7b94b281526040a199bf5dd1bf6260d57896c2bd905933f61469627922bb95a4f8d911a350236df42f3f19e3e5487b0cec330213db5045682 OP_CHECKSIG",
            "desc": "pk(04b6ac07af93fc83e7b94b281526040a199bf5dd1bf6260d57896c2bd905933f61469627922bb95a4f8d911a350236df42f3f19e3e5487b0cec330213db5045682)#w5pky66j",
            "hex": "4104b6ac07af93fc83e7b94b281526040a199bf5dd1bf6260d57896c2bd905933f61469627922bb95a4f8d911a350236df42f3f19e3e5487b0cec330213db5045682ac",
            "type": "pubkey"
          }
        }
      ],
      "hex": "01000000010000000000000000000000000000000000000000000000000000000000000000ffffffff0804ffff001d026402ffffffff0100f2052a01000000434104b6ac07af93fc83e7b94b281526040a199bf5dd1bf6260d57896c2bd905933f61469627922bb95a4f8d911a350236df42f3f19e3e5487b0cec330213db5045682ac00000000"
    }
  ]
}