{
  "hash": "000000000b2b5c4032c9c9b96e7048ccfb1673ba6f445ac76bad8f6ba1b62fc6",
  "confirmations": 47905,
  "height": 5193,
  "version": 1,
  "versionHex": "00000001",
  "merkleroot": "583ab71cc17a273233bd3db622226edd9675201644fe9d7150d85c24f3a2aa08",
  "time": 1235282195,
  "mediantime": 1235278434,
  "nonce": 3917397291,
  "bits": "1d00ffff",
  "difficulty": 1,
  "chainwork": "0000000000000000000000000000000000000000000000000000144a144a144a",
  "nTx": 1,
  "previousblockhash": "00000000a6a591abb20891a698480583a76b4313eb5d6f6dcda282755aecbf36",
  "nextblockhash": "00000000979acfde1a0429e84cc740ffe1ff9881c7bed2bc5ca886faa7368e07",
  "strippedsize": 215,
  "size": 215,
  "weight": 860,
  "tx": [
    {
      "txid": "583ab71cc17a273233bd3db622226edd9675201644fe9d7150d85c24f3a2aa08",
      "hash": "583ab71cc17a273233bd3db622226edd9675201644fe9d7150d85c24f3a2aa08",
      "version": 1,
      "size": 134,
      "vsize": 134,
      "weight": 536,
      "locktime": 0,
      "vin": [
        {
          "coinbase": "04ffff001d017f",
          "sequence": 4294967295
        }
      ],
      "vout": [
        {
          "value": 50.0,
          "n": 0,
          "scriptPubKey": {
            "asm": "0471ebfaa70f819c0ee2226dc4bed61f3d7768553e65f4dfcb08635b13f6e691732c49819d1d6b4e19ef0681ed9c6119d9ba4a4bd4a7296a49275af19a105c99b0 OP_CHECKSIG",
            "desc": "pk(0471ebfaa70f819c0ee2226dc4bed61f3d7768553e65f4dfcb08635b13f6e691732c49819d1d6b4e19ef0681ed9c6119d9ba4a4bd4a7296a49275af19a105c99b0)#ls9r3yrx",
            "hex": "410471ebfaa70f819c0ee2226dc4bed61f3d7768553e65f4dfcb08635b13f6e691732c49819d1d6b4e19ef0681ed9c6119d9ba4a4bd4a7296a49275af19a105c99b0ac",
            "type": "pubkey"
          }
        }
      ],
      "hex": "01000000010000000000000000000000000000000000000000000000000000000000000000ffffffff0704ffff001d017fffffffff0100f2052a0100000043410471ebfaa70f819c0ee2226dc4bed61f3d7768553e65f4dfcb08635b13f6e691732c49819d1d6b4e19ef0681ed9c6119d9ba4a4bd4a7296a49275af19a105c99b0ac00000000"
    }
  ]
}