{
  "hash": "0000000071bb4b4fe561191c7ab823d06b5186e00f89fa919ab938757b57a224",
  "confirmations": 43807,
  "height": 9291,
  "version": 1,
  "versionHex": "00000001",
  "merkleroot": "a4e93116e3a8d24e3772fd602e4e02a13d145c6fe7c41301af3a3a496cd403e0",
  "time": 1238468022,
  "mediantime": 1238463188,
  "nonce": 1562537003,
  "bits": "1d00ffff",
  "difficulty": 1,
  "chainwork": "0000000000000000000000000000000000000000000000000000244c244c244c",
  "nTx": 1,
  "previousblockhash": "000000002d4a48f6027b3fa3a00994dfb36be703ee13a743f13e80bdcfe78b15",
  "nextblockhash": "000000009ca120fa05033f741deff9ab96ddc48ceecfe5e1c38ed6fbc2bc7eb8",
  "strippedsize": 216,
  "size": 216,
  "weight": 864,
  "tx": [
    {
      "txid": "a4e93116e3a8d24e3772fd602e4e02a13d145c6fe7c41301af3a3a496cd403e0",
      "hash": "a4e93116e3a8d24e3772fd602e4e02a13d145c6fe7c41301af3a3a496cd403e0",
      "version": 1,
      "size": 135,
      "vsize": 135,
      "weight": 540,
      "locktime": 0,
      "vin": [
        {
          "coinbase": "04ffff001d029b01",
          "sequence": 4294967295
        }
      ],
      "vout": [
        {
          "value": 50.0,
          "n": 0,
          "scriptPubKey": {
            "asm": "049de444c60995ec7546f84fb48d11dd378a2871ec9fe0b7f69660d2376efe46d2ffb2d96364c008b770e270ef7dfd3c45f8680414f5e7f10630bde2b1a75f8185 OP_CHECKSIG",
            "desc": "pk(049de444c60995ec7546f84fb48d11dd378a2871ec9fe0b7f69660d2376efe46d2ffb2d96364c008b770e270ef7dfd3c45f8680414f5e7f10630bde2b1a75f8185)#whrh94es",
            "hex": "41049de444c60995ec7546f84fb48d11dd378a2871ec9fe0b7f69660d2376efe46d2ffb2d96364c008b770e270ef7dfd3c45f8680414f5e7f10630bde2b1a75f8185ac",
            "type": "pubkey"
          }
        }
      ],
      "hex": "01000000010000000000000000000000000000000000000000000000000000000000000000ffffffff0804ffff001d029b01ffffffff0100f2052a010000004341049de444c60995ec7546f84fb48d11dd378a2871ec9fe0b7f69660d2376efe46d2ffb2d96364c008b770e270ef7dfd3c45f8680414f5e7f10630bde2b1a75f8185ac00000000"
    }
  ]
}