{
  "hash": "00000000b8ca3931632b20657f1d6064a3ec4066d5f2bb4b716cc06671a9014d",
  "confirmations": 50381,
  "height": 2717,
  "version": 1,
  "versionHex": "00000001",
  "merkleroot": "28902b3ee74d18089804237d75ae617c122cbf96d3d741fd65631f4974b31ad4",
  "time": 1233574954,
  "mediantime": 1233572031,
  "nonce": 15379324,
  "bits": "1d00ffff",
  "difficulty": 1,
  "chainwork": "00000000000000000000000000000000000000000000000000000a9e0a9e0a9e",
  "nTx": 1,
  "previousblockhash": "000000003306f2059ee41b485afd73b10175a8821f6d3733fa34f7eaa482e35a",
  "nextblockhash": "00000000c7bde0d880a138cd7740026b9b7e18436951ffb12c992541c5ba3a73",
  "strippedsize": 216,
  "size": 216,
  "weight": 864,
  "tx": [
    {
      "txid": "28902b3ee74d18089804237d75ae617c122cbf96d3d741fd65631f4974b31ad4",
      "hash": "28902b3ee74d18089804237d75ae617c122cbf96d3d741fd65631f4974b31ad4",
      "version": 1,
      "size": 135,
      "vsize": 135,
      "weight": 540,
      "locktime": 0,
      "vin": [
        {
          "coinbase": "04ffff001d02d000",
          "sequence": 4294967295
        }
      ],
      "vout": [
        {
          "value": 50.0,
          "n": 0,
          "scriptPubKey": {
            "asm": "04cb3db4d209c8a23fe8c8af5b57598858b13d3ddbc4434057ee2b8d261a76e8d63d4ff70af5b04a2d01ea19a4bf45eb278654960044e58ce193f0f445b4417950 OP_CHECKSIG",
            "desc": "pk(04cb3db4d209c8a23fe8c8af5b57598858b13d3ddbc4434057ee2b8d261a76e8d63d4ff70af5b04a2d01ea19a4bf45eb278654960044e58ce193f0f445b4417950)#e6gqcnxf",
            "hex": "4104cb3db4d209c8a23fe8c8af5b57598858b13d3ddbc4434057ee2b8d261a76e8d63d4ff70af5b04a2d01ea19a4bf45eb278654960044e58ce193f0f445b4417950ac",
            "type": "pubkey"
          }
        }
      ],
      "hex": "01000000010000000000000000000000000000000000000000000000000000000000000000ffffffff0804ffff001d02d000ffffffff0100f2052a01000000434104cb3db4d209c8a23fe8c8af5b57598858b13d3ddbc4434057ee2b8d261a76e8d63d4ff70af5b04a2d01ea19a4bf45eb278654960044e58ce193f0f445b4417950ac00000000"
    }
  ]
}