{
  "hash": "00000000332f23add6bf08f8d6aa46acbdfd3fd238bafa3640084eb20511bcfe",
  "confirmations": 48083,
  "height": 5015,
  "version": 1,
  "versionHex": "00000001",
  "merkleroot": "2ef3c423dd175976c4d47282efed7ed39007adebdfa0a8feaadb4b356230cc84",
  "time": 1235146361,
  "mediantime": 1235142354,
  "nonce": 103870708,
  "bits": "1d00ffff",
  "difficulty": 1,
  "chainwork": "0000000000000000000000000000000000000000000000000000139813981398",
  "nTx": 1,
  "previousblockhash": "00000000299ded291db48445b2642a0ffd02ac51aee52e494e024fd3dcae9bdc",
  "nextblockhash": "00000000dcef08d7694a92a9cbb2b90a4e66dc9299df51d7296aed972af369c3",
  "strippedsize": 215,
  "size": 215,
  "weight": 860,
  "tx": [
    {
      "txid": "2ef3c423dd175976c4d47282efed7ed39007adebdfa0a8feaadb4b356230cc84",
      "hash": "2ef3c423dd175976c4d47282efed7ed39007adebdfa0a8feaadb4b356230cc84",
      "version": 1,
      "size": 134,
      "vsize": 134,
      "weight": 536,
      "locktime": 0,
      "vin": [
        {
          "coinbase": "04ffff001d0118",
          "sequence": 4294967295
        }
      ],
      "vout": [
        {
          "value": 50.0,
          "n": 0,
          "scriptPubKey": {
            "asm": "04b7de9a8ccf775f775d747ac9bc4a223ffe61687c2cdd542344033270f7566b716cf957ec97176e900315526311d936b1c87e3c1f3a5ffe0733ed3f47c18604d1 OP_CHECKSIG",
            "desc": "pk(04b7de9a8ccf775f775d747ac9bc4a223ffe61687c2cdd542344033270f7566b716cf957ec97176e900315526311d936b1c87e3c1f3a5ffe0733ed3f47c18604d1)#7r442pk2",
            "hex": "4104b7de9a8ccf775f775d747ac9bc4a223ffe61687c2cdd542344033270f7566b716cf957ec97176e900315526311d936b1c87e3c1f3a5ffe0733ed3f47c18604d1ac",
            "type": "pubkey"
          }
        }
      ],
      "hex": "01000000010000000000000000000000000000000000000000000000000000000000000000ffffffff0704ffff001d0118ffffffff0100f2052a01000000434104b7de9a8ccf775f775d747ac9bc4a223ffe61687c2cdd542344033270f7566b716cf957ec97176e900315526311d936b1c87e3c1f3a5ffe0733ed3f47c18604d1ac00000000"
    }
  ]
}