{
  "hash": "0000000060911d1cafd5d115e1a83114626c9fe421b8f9bd5152a347c5238579",
  "confirmations": 46719,
  "height": 6379,
  "version": 1,
  "versionHex": "00000001",
  "merkleroot": "600d256ad79ed3d962a5f7d628d8635684e606f38c76c1734d51b198ef8b3008",
  "time": 1236242030,
  "mediantime": 1236236976,
  "nonce": 2013176376,
  "bits": "1d00ffff",
  "difficulty": 1,
  "chainwork": "000000000000000000000000000000000000000000000000000018ec18ec18ec",
  "nTx": 1,
  "previousblockhash": "000000005fb69b9bec712a7f91f9fec73e942eeb08c808585afeba0aef29db6d",
  "nextblockhash": "0000000087200ccff758617644f012bb91af2c0f690b7262fa1e756d38abbe8f",
  "strippedsize": 216,
  "size": 216,
  "weight": 864,
  "tx": [
    {
      "txid": "600d256ad79ed3d962a5f7d628d8635684e606f38c76c1734d51b198ef8b3008",
      "hash": "600d256ad79ed3d962a5f7d628d8635684e606f38c76c1734d51b198ef8b3008",
      "version": 1,
      "size": 135,
      "vsize": 135,
      "weight": 540,
      "locktime": 0,
      "vin": [
        {
          "coinbase": "04ffff001d027001",
          "sequence": 4294967295
        }
      ],
      "vout": [
        {
          "value": 50.0,
          "n": 0,
          "scriptPubKey": {
            "asm": "04f0148418535a52551d473955f7918224a0186320552d94bcba5684c282c2678c7568dea25de963c7f9b5a6c6796fed01186f747a4a3fec5d178b2ee219df5f1d OP_CHECKSIG",
            "desc": "pk(04f0148418535a52551d473955f7918224a0186320552d94bcba5684c282c2678c7568dea25de963c7f9b5a6c6796fed01186f747a4a3fec5d178b2ee219df5f1d)#fzhl3esf",
            "hex": "4104f0148418535a52551d473955f7918224a0186320552d94bcba5684c282c2678c7568dea25de963c7f9b5a6c6796fed01186f747a4a3fec5d178b2ee219df5f1dac",
            "type": "pubkey"
          }
        }
      ],
      "hex": "01000000010000000000000000000000000000000000000000000000000000000000000000ffffffff0804ffff001d027001ffffffff0100f2052a01000000434104f0148418535a52551d473955f7918224a0186320552d94bcba5684c282c2678c7568dea25de963c7f9b5a6c6796fed01186f747a4a3fec5d178b2ee219df5f1dac00000000"
    }
  ]
}