{
  "hash": "0000000037372e0730345c9991f9f4426428afd462329d9d61a3e626dc6ac015",
  "confirmations": 47883,
  "height": 5215,
  "version": 1,
  "versionHex": "00000001",
  "merkleroot": "d3cff5a9108999eaa9e94c4a24f9779dd8f8c1a52488f02e711401411c9e6412",
  "time": 1235295357,
  "mediantime": 1235292748,
  "nonce": 198655803,
  "bits": "1d00ffff",
  "difficulty": 1,
  "chainwork": "0000000000000000000000000000000000000000000000000000146014601460",
  "nTx": 1,
  "previousblockhash": "00000000fc0835127379eaa4c4592084e5b99b50eef43c96a140a2930fdee654",
  "nextblockhash": "000000002d98b5f04bfec834842873d9a8dcaf92f25817d5a3dd04c601b84b94",
  "strippedsize": 215,
  "size": 215,
  "weight": 860,
  "tx": [
    {
      "txid": "d3cff5a9108999eaa9e94c4a24f9779dd8f8c1a52488f02e711401411c9e6412",
      "hash": "d3cff5a9108999eaa9e94c4a24f9779dd8f8c1a52488f02e711401411c9e6412",
      "version": 1,
      "size": 134,
      "vsize": 134,
      "weight": 536,
      "locktime": 0,
      "vin": [
        {
          "coinbase": "04ffff001d013a",
          "sequence": 4294967295
        }
      ],
      "vout": [
        {
          "value": 50.0,
          "n": 0,
          "scriptPubKey": {
            "asm": "044e6afc13cc4b93fdcee7777a14661ecc364461c0e4d970102b539ea0b7d2b3bdbc303e7e973e533b5d71400f30a8f6c440726f74f37d60298216a395d2df2b9e OP_CHECKSIG",
            "desc": "pk(044e6afc13cc4b93fdcee7777a14661ecc364461c0e4d970102b539ea0b7d2b3bdbc303e7e973e533b5d71400f30a8f6c440726f74f37d60298216a395d2df2b9e)#mul832rp",
            "hex": "41044e6afc13cc4b93fdcee7777a14661ecc364461c0e4d970102b539ea0b7d2b3bdbc303e7e973e533b5d71400f30a8f6c440726f74f37d60298216a395d2df2b9eac",
            "type": "pubkey"
          }
        }
      ],
      "hex": "01000000010000000000000000000000000000000000000000000000000000000000000000ffffffff0704ffff001d013affffffff0100f2052a010000004341044e6afc13cc4b93fdcee7777a14661ecc364461c0e4d970102b539ea0b7d2b3bdbc303e7e973e533b5d71400f30a8f6c440726f74f37d60298216a395d2df2b9eac00000000"
    }
  ]
}