{
  "hash": "00000000d77149f69074b1e70233b2ed29f9d5579229ba03f6daaa290d2fd227",
  "confirmations": 45337,
  "height": 7761,
  "version": 1,
  "versionHex": "00000001",
  "merkleroot": "40905685c2d77445849b4f841ec1928ceac42bec30bba88d03bdd046e2df1a7c",
  "time": 1237285075,
  "mediantime": 1237280570,
  "nonce": 316275763,
  "bits": "1d00ffff",
  "difficulty": 1,
  "chainwork": "00000000000000000000000000000000000000000000000000001e521e521e52",
  "nTx": 1,
  "previousblockhash": "00000000645bb1a8754dff8a6eb838ad4fe55391315c2e22f741129f84d6072c",
  "nextblockhash": "0000000058197df434945471366440107c15798d71519d1133736d949ccdf3a0",
  "strippedsize": 216,
  "size": 216,
  "weight": 864,
  "tx": [
    {
      "txid": "40905685c2d77445849b4f841ec1928ceac42bec30bba88d03bdd046e2df1a7c",
      "hash": "40905685c2d77445849b4f841ec1928ceac42bec30bba88d03bdd046e2df1a7c",
      "version": 1,
      "size": 135,
      "vsize": 135,
      "weight": 540,
      "locktime": 0,
      "vin": [
        {
          "coinbase": "04ffff001d022705",
          "sequence": 4294967295
        }
      ],
      "vout": [
        {
          "value": 50.0,
          "n": 0,
          "scriptPubKey": {
            "asm": "046ab1a7306cc589a7f03b1db96dcfea7f56d2431e22c71eaebee0203be4d6ac1bbe4f7dd27ffea18c7da24b7f81c2df95e411b2a8a5cf4f5334ffee8ea1b924ce OP_CHECKSIG",
            "desc": "pk(046ab1a7306cc589a7f03b1db96dcfea7f56d2431e22c71eaebee0203be4d6ac1bbe4f7dd27ffea18c7da24b7f81c2df95e411b2a8a5cf4f5334ffee8ea1b924ce)#l95unels",
            "hex": "41046ab1a7306cc589a7f03b1db96dcfea7f56d2431e22c71eaebee0203be4d6ac1bbe4f7dd27ffea18c7da24b7f81c2df95e411b2a8a5cf4f5334ffee8ea1b924ceac",
            "type": "pubkey"
          }
        }
      ],
      "hex": "01000000010000000000000000000000000000000000000000000000000000000000000000ffffffff0804ffff001d022705ffffffff0100f2052a010000004341046ab1a7306cc589a7f03b1db96dcfea7f56d2431e22c71eaebee0203be4d6ac1bbe4f7dd27ffea18c7da24b7f81c2df95e411b2a8a5cf4f5334ffee8ea1b924ceac00000000"
    }
  ]
}