{
  "hash": "000000007ac01c82eae9bf66761bb315bc29c72517d3b024033b5223d821ae2a",
  "confirmations": 43920,
  "height": 9178,
  "version": 1,
  "versionHex": "00000001",
  "merkleroot": "7adad4c29c6d4ddb197996881b7d7ee1955a643ffaaf1935dbe64699b3274d71",
  "time": 1238384959,
  "mediantime": 1238381604,
  "nonce": 38703871,
  "bits": "1d00ffff",
  "difficulty": 1,
  "chainwork": "000000000000000000000000000000000000000000000000000023db23db23db",
  "nTx": 1,
  "previousblockhash": "000000002a18e023fd07151a80d14b5920af4621149f56b3ee9b8ad9801b1c4d",
  "nextblockhash": "00000000f526ef6d614f818127852c5a09f69942e9bbb04a7b15cb6f68af64e9",
  "strippedsize": 216,
  "size": 216,
  "weight": 864,
  "tx": [
    {
      "txid": "7adad4c29c6d4ddb197996881b7d7ee1955a643ffaaf1935dbe64699b3274d71",
      "hash": "7adad4c29c6d4ddb197996881b7d7ee1955a643ffaaf1935dbe64699b3274d71",
      "version": 1,
      "size": 135,
      "vsize": 135,
      "weight": 540,
      "locktime": 0,
      "vin": [
        {
          "coinbase": "04ffff001d028204",
          "sequence": 4294967295
        }
      ],
      "vout": [
        {
          "value": 50.0,
          "n": 0,
          "scriptPubKey": {
            "asm": "042835592fcfd674cf7889eab3ded967847d3ee4a8c431d8fa98e9803aa227a05aaed7c397e2c637fdee5e87791ef85afc81b90124232e1827c0bacf13eb3024fe OP_CHECKSIG",
            "desc": "pk(042835592fcfd674cf7889eab3ded967847d3ee4a8c431d8fa98e9803aa227a05aaed7c397e2c637fdee5e87791ef85afc81b90124232e1827c0bacf13eb3024fe)#47uqs5n7",
            "hex": "41042835592fcfd674cf7889eab3ded967847d3ee4a8c431d8fa98e9803aa227a05aaed7c397e2c637fdee5e87791ef85afc81b90124232e1827c0bacf13eb3024feac",
            "type": "pubkey"
          }
        }
      ],
      "hex": "01000000010000000000000000000000000000000000000000000000000000000000000000ffffffff0804ffff001d028204ffffffff0100f2052a010000004341042835592fcfd674cf7889eab3ded967847d3ee4a8c431d8fa98e9803aa227a05aaed7c397e2c637fdee5e87791ef85afc81b90124232e1827c0bacf13eb3024feac00000000"
    }
  ]
}