{
  "hash": "000000006ded0e621cfacfcbab228781c8fb768d632a41503f8ed3a26ff58d8b",
  "confirmations": 52455,
  "height": 643,
  "version": 1,
  "versionHex": "00000001",
  "merkleroot": "a0ede25bc0c0ca5ebc51f69d554782e57238d9915b27f82bec804da789bcafd9",
  "time": 1232064985,
  "mediantime": 1232061462,
  "nonce": 2263374896,
  "bits": "1d00ffff",
  "difficulty": 1,
  "chainwork": "0000000000000000000000000000000000000000000000000000028402840284",
  "nTx": 1,
  "previousblockhash": "00000000dc33f1794f744e76099e89015bb9de186004867bf8f09d4bbac0930b",
  "nextblockhash": "00000000b98fcbc3ffa5735bca2dddb8ae01b75c01a1f055ba48b515eebef020",
  "strippedsize": 216,
  "size": 216,
  "weight": 864,
  "tx": [
    {
      "txid": "a0ede25bc0c0ca5ebc51f69d554782e57238d9915b27f82bec804da789bcafd9",
      "hash": "a0ede25bc0c0ca5ebc51f69d554782e57238d9915b27f82bec804da789bcafd9",
      "version": 1,
      "size": 135,
      "vsize": 135,
      "weight": 540,
      "locktime": 0,
      "vin": [
        {
          "coinbase": "04ffff001d024b07",
          "sequence": 4294967295
        }
      ],
      "vout": [
        {
          "value": 50.0,
          "n": 0,
          "scriptPubKey": {
            "asm": "049001a745c93571fe9d4e6f8a190cbb4ba57908413c89e38ad38afe443b7d3ffd5ddb0a0fceb38a27b1061aa4f3f0e88eaf8325316d95eb4f577c2fa33d70dc36 OP_CHECKSIG",
            "desc": "pk(049001a745c93571fe9d4e6f8a190cbb4ba57908413c89e38ad38afe443b7d3ffd5ddb0a0fceb38a27b1061aa4f3f0e88eaf8325316d95eb4f577c2fa33d70dc36)#cm355sju",
            "hex": "41049001a745c93571fe9d4e6f8a190cbb4ba57908413c89e38ad38afe443b7d3ffd5ddb0a0fceb38a27b1061aa4f3f0e88eaf8325316d95eb4f577c2fa33d70dc36ac",
            "type": "pubkey"
          }
        }
      ],
      "hex": "01000000010000000000000000000000000000000000000000000000000000000000000000ffffffff0804ffff001d024b07ffffffff0100f2052a010000004341049001a745c93571fe9d4e6f8a190cbb4ba57908413c89e38ad38afe443b7d3ffd5ddb0a0fceb38a27b1061aa4f3f0e88eaf8325316d95eb4f577c2fa33d70dc36ac00000000"
    }
  ]
}