{
  "hash": "00000000e758d6db2b6d4fbe5733d28740a97ef2a10d71cdcd12060a6b2cae66",
  "confirmations": 47012,
  "height": 6086,
  "version": 1,
  "versionHex": "00000001",
  "merkleroot": "9a70736993d37dfdeaa57b68d219c3097a7ebb85fc6f519a5920b815a2747d67",
  "time": 1235997629,
  "mediantime": 1235993958,
  "nonce": 3512781871,
  "bits": "1d00ffff",
  "difficulty": 1,
  "chainwork": "000000000000000000000000000000000000000000000000000017c717c717c7",
  "nTx": 1,
  "previousblockhash": "0000000070c52a8c799a04da60306c2aa890dafa2d19ba090a616c27d972ebd7",
  "nextblockhash": "000000004eda6096f1224f4643bf7fd12bc7c058f863d378da470f15efc14b43",
  "strippedsize": 216,
  "size": 216,
  "weight": 864,
  "tx": [
    {
      "txid": "9a70736993d37dfdeaa57b68d219c3097a7ebb85fc6f519a5920b815a2747d67",
      "hash": "9a70736993d37dfdeaa57b68d219c3097a7ebb85fc6f519a5920b815a2747d67",
      "version": 1,
      "size": 135,
      "vsize": 135,
      "weight": 540,
      "locktime": 0,
      "vin": [
        {
          "coinbase": "04ffff001d028506",
          "sequence": 4294967295
        }
      ],
      "vout": [
        {
          "value": 50.0,
          "n": 0,
          "scriptPubKey": {
            "asm": "04ff2755ac0924b6fb25f4cbdb8ddcc926dc88a5452a18476c6fadd61f0ab487e7209b79f5cd02e1223eaa181e6f79f70d53de028504744b29e6cefb1a70e31863 OP_CHECKSIG",
            "desc": "pk(04ff2755ac0924b6fb25f4cbdb8ddcc926dc88a5452a18476c6fadd61f0ab487e7209b79f5cd02e1223eaa181e6f79f70d53de028504744b29e6cefb1a70e31863)#q28sv3h7",
            "hex": "4104ff2755ac0924b6fb25f4cbdb8ddcc926dc88a5452a18476c6fadd61f0ab487e7209b79f5cd02e1223eaa181e6f79f70d53de028504744b29e6cefb1a70e31863ac",
            "type": "pubkey"
          }
        }
      ],
      "hex": "01000000010000000000000000000000000000000000000000000000000000000000000000ffffffff0804ffff001d028506ffffffff0100f2052a01000000434104ff2755ac0924b6fb25f4cbdb8ddcc926dc88a5452a18476c6fadd61f0ab487e7209b79f5cd02e1223eaa181e6f79f70d53de028504744b29e6cefb1a70e31863ac00000000"
    }
  ]
}