{
  "hash": "00000000956918d60ba336d469e04e79113091f0c9bb465101c4c7e5d03d7d6c",
  "confirmations": 50074,
  "height": 3024,
  "version": 1,
  "versionHex": "00000001",
  "merkleroot": "3cc15a186fd047f9191559c8fd3ec6f041ca0811cc4512631482895ff999096a",
  "time": 1233778857,
  "mediantime": 1233775785,
  "nonce": 2529728291,
  "bits": "1d00ffff",
  "difficulty": 1,
  "chainwork": "00000000000000000000000000000000000000000000000000000bd10bd10bd1",
  "nTx": 1,
  "previousblockhash": "0000000040250d7fff7b1e37fcd7122ea690494f3d5f47e8d311c126d09a21de",
  "nextblockhash": "00000000963ac3e467d8d41ab5525a2c57f21b79977e1380d01dfd1652a5d5d4",
  "strippedsize": 216,
  "size": 216,
  "weight": 864,
  "tx": [
    {
      "txid": "3cc15a186fd047f9191559c8fd3ec6f041ca0811cc4512631482895ff999096a",
      "hash": "3cc15a186fd047f9191559c8fd3ec6f041ca0811cc4512631482895ff999096a",
      "version": 1,
      "size": 135,
      "vsize": 135,
      "weight": 540,
      "locktime": 0,
      "vin": [
        {
          "coinbase": "04ffff001d02bd01",
          "sequence": 4294967295
        }
      ],
      "vout": [
        {
          "value": 50.0,
          "n": 0,
          "scriptPubKey": {
            "asm": "04a39d2c525a9bc8dc984d5d5ee9423af84f21d8eb2a0d58633c786f0291b715b1e5f6fcf79d1e1a0d39dd1c5185269b211f356b5fe3af33af158a62720be8dcf8 OP_CHECKSIG",
            "desc": "pk(04a39d2c525a9bc8dc984d5d5ee9423af84f21d8eb2a0d58633c786f0291b715b1e5f6fcf79d1e1a0d39dd1c5185269b211f356b5fe3af33af158a62720be8dcf8)#0kmd53cl",
            "hex": "4104a39d2c525a9bc8dc984d5d5ee9423af84f21d8eb2a0d58633c786f0291b715b1e5f6fcf79d1e1a0d39dd1c5185269b211f356b5fe3af33af158a62720be8dcf8ac",
            "type": "pubkey"
          }
        }
      ],
      "hex": "01000000010000000000000000000000000000000000000000000000000000000000000000ffffffff0804ffff001d02bd01ffffffff0100f2052a01000000434104a39d2c525a9bc8dc984d5d5ee9423af84f21d8eb2a0d58633c786f0291b715b1e5f6fcf79d1e1a0d39dd1c5185269b211f356b5fe3af33af158a62720be8dcf8ac00000000"
    }
  ]
}