{
  "hash": "00000000d3f1c76de6682f0bc9ee10ceed0e76094b3f48237a1083255d18d9b1",
  "confirmations": 45004,
  "height": 8094,
  "version": 1,
  "versionHex": "00000001",
  "merkleroot": "f66b62bf717e8d24806a510940a28e40f5ee052e55d1e6adc5446bc9768b7e40",
  "time": 1237527524,
  "mediantime": 1237522927,
  "nonce": 3327527970,
  "bits": "1d00ffff",
  "difficulty": 1,
  "chainwork": "00000000000000000000000000000000000000000000000000001f9f1f9f1f9f",
  "nTx": 1,
  "previousblockhash": "00000000e979a834d18ef3fe6e502ca498e5091add917085ad632a7b9d4a9ed0",
  "nextblockhash": "00000000a898211f2bcb6baed8a7d42a67ab44949987c7e9e286e5ebbb992942",
  "strippedsize": 216,
  "size": 216,
  "weight": 864,
  "tx": [
    {
      "txid": "f66b62bf717e8d24806a510940a28e40f5ee052e55d1e6adc5446bc9768b7e40",
      "hash": "f66b62bf717e8d24806a510940a28e40f5ee052e55d1e6adc5446bc9768b7e40",
      "version": 1,
      "size": 135,
      "vsize": 135,
      "weight": 540,
      "locktime": 0,
      "vin": [
        {
          "coinbase": "04ffff001d020101",
          "sequence": 4294967295
        }
      ],
      "vout": [
        {
          "value": 50.0,
          "n": 0,
          "scriptPubKey": {
            "asm": "04901ee2f5fcc729e8a695b86a3ce01de8df9cec768f0246ad7add778710176e4ff13ad2286a9a8b517f1483881d5086f394b65911903604c043c50bee6b0ae05b OP_CHECKSIG",
            "desc": "pk(04901ee2f5fcc729e8a695b86a3ce01de8df9cec768f0246ad7add778710176e4ff13ad2286a9a8b517f1483881d5086f394b65911903604c043c50bee6b0ae05b)#8gz7p5tm",
            "hex": "4104901ee2f5fcc729e8a695b86a3ce01de8df9cec768f0246ad7add778710176e4ff13ad2286a9a8b517f1483881d5086f394b65911903604c043c50bee6b0ae05bac",
            "type": "pubkey"
          }
        }
      ],
      "hex": "01000000010000000000000000000000000000000000000000000000000000000000000000ffffffff0804ffff001d020101ffffffff0100f2052a01000000434104901ee2f5fcc729e8a695b86a3ce01de8df9cec768f0246ad7add778710176e4ff13ad2286a9a8b517f1483881d5086f394b65911903604c043c50bee6b0ae05bac00000000"
    }
  ]
}