{
  "hash": "00000000514ddec4a6b0d55c28feca01a393c2818d2a42b37c5943552af08274",
  "confirmations": 50740,
  "height": 2358,
  "version": 1,
  "versionHex": "00000001",
  "merkleroot": "8920b57aab2c1f1dc08e062de4953c31a2ca296a096c7aeb657a01e0bedac0f1",
  "time": 1233321007,
  "mediantime": 1233318546,
  "nonce": 16098568,
  "bits": "1d00ffff",
  "difficulty": 1,
  "chainwork": "0000000000000000000000000000000000000000000000000000093709370937",
  "nTx": 1,
  "previousblockhash": "0000000086636f9001c6f9c506a53ee13eda80655c3e55bb8afb824cdae7c507",
  "nextblockhash": "0000000041cbfb172d013707146f30a9111906dc0a1af654b133aa6a285e12ec",
  "strippedsize": 216,
  "size": 216,
  "weight": 864,
  "tx": [
    {
      "txid": "8920b57aab2c1f1dc08e062de4953c31a2ca296a096c7aeb657a01e0bedac0f1",
      "hash": "8920b57aab2c1f1dc08e062de4953c31a2ca296a096c7aeb657a01e0bedac0f1",
      "version": 1,
      "size": 135,
      "vsize": 135,
      "weight": 540,
      "locktime": 0,
      "vin": [
        {
          "coinbase": "04ffff001d02c702",
          "sequence": 4294967295
        }
      ],
      "vout": [
        {
          "value": 50.0,
          "n": 0,
          "scriptPubKey": {
            "asm": "04e2c22a83667669e6d62ea7e478e9a291cb34c433baeef8244559d523f3115c7d05702a72db7ef2a0979621df3e521388941b677bbc4874a33b323011946da0e3 OP_CHECKSIG",
            "desc": "pk(04e2c22a83667669e6d62ea7e478e9a291cb34c433baeef8244559d523f3115c7d05702a72db7ef2a0979621df3e521388941b677bbc4874a33b323011946da0e3)#tkwtvvy8",
            "hex": "4104e2c22a83667669e6d62ea7e478e9a291cb34c433baeef8244559d523f3115c7d05702a72db7ef2a0979621df3e521388941b677bbc4874a33b323011946da0e3ac",
            "type": "pubkey"
          }
        }
      ],
      "hex": "01000000010000000000000000000000000000000000000000000000000000000000000000ffffffff0804ffff001d02c702ffffffff0100f2052a01000000434104e2c22a83667669e6d62ea7e478e9a291cb34c433baeef8244559d523f3115c7d05702a72db7ef2a0979621df3e521388941b677bbc4874a33b323011946da0e3ac00000000"
    }
  ]
}