{
  "hash": "000000006b4bd9d8addd0f0f5cd2d1b543850e20f01fc8fb24e8085bbce23bc9",
  "confirmations": 45733,
  "height": 7365,
  "version": 1,
  "versionHex": "00000001",
  "merkleroot": "1e77643b2f4223a47ade3e3aa70b8d8865a76bbb1befab4fc02dde5e93c82189",
  "time": 1236995020,
  "mediantime": 1236989963,
  "nonce": 3534940468,
  "bits": "1d00ffff",
  "difficulty": 1,
  "chainwork": "00000000000000000000000000000000000000000000000000001cc61cc61cc6",
  "nTx": 1,
  "previousblockhash": "000000005a9d73a27f13622e673d8dc5f1d8d1683f124f03c88bd54dbac2ce6e",
  "nextblockhash": "000000008d960b45211d81f009f329534e81df80066556c614f0088226f0782e",
  "strippedsize": 216,
  "size": 216,
  "weight": 864,
  "tx": [
    {
      "txid": "1e77643b2f4223a47ade3e3aa70b8d8865a76bbb1befab4fc02dde5e93c82189",
      "hash": "1e77643b2f4223a47ade3e3aa70b8d8865a76bbb1befab4fc02dde5e93c82189",
      "version": 1,
      "size": 135,
      "vsize": 135,
      "weight": 540,
      "locktime": 0,
      "vin": [
        {
          "coinbase": "04ffff001d02d208",
          "sequence": 4294967295
        }
      ],
      "vout": [
        {
          "value": 50.0,
          "n": 0,
          "scriptPubKey": {
            "asm": "046465dc47b6971e3c00fe5a04079edd94a57c45c3d5fecca472cbf022a5f083f352acc9fdbb6173ffd9686e06f999e1ab343eea35bea228db49e53ec612d62112 OP_CHECKSIG",
            "desc": "pk(046465dc47b6971e3c00fe5a04079edd94a57c45c3d5fecca472cbf022a5f083f352acc9fdbb6173ffd9686e06f999e1ab343eea35bea228db49e53ec612d62112)#hjnke4eu",
            "hex": "41046465dc47b6971e3c00fe5a04079edd94a57c45c3d5fecca472cbf022a5f083f352acc9fdbb6173ffd9686e06f999e1ab343eea35bea228db49e53ec612d62112ac",
            "type": "pubkey"
          }
        }
      ],
      "hex": "01000000010000000000000000000000000000000000000000000000000000000000000000ffffffff0804ffff001d02d208ffffffff0100f2052a010000004341046465dc47b6971e3c00fe5a04079edd94a57c45c3d5fecca472cbf022a5f083f352acc9fdbb6173ffd9686e06f999e1ab343eea35bea228db49e53ec612d62112ac00000000"
    }
  ]
}