{
  "hash": "00000000f1fabea7162c2ef951fc96c6eac554d1b81327681de02ce91d6b6870",
  "confirmations": 47361,
  "height": 5737,
  "version": 1,
  "versionHex": "00000001",
  "merkleroot": "f4c17c6e8232cd0dfc68bfe8b4c9c066271c673b0cab6399b4333f11b25b941c",
  "time": 1235711462,
  "mediantime": 1235708949,
  "nonce": 2337853485,
  "bits": "1d00ffff",
  "difficulty": 1,
  "chainwork": "0000000000000000000000000000000000000000000000000000166a166a166a",
  "nTx": 1,
  "previousblockhash": "00000000cdb0330da16925b7d3f3940a63e9be16325920edac597912801301b5",
  "nextblockhash": "00000000cfafc98e75705e6fc693f0f54fdae4dd304586b1474743b1f383b381",
  "strippedsize": 216,
  "size": 216,
  "weight": 864,
  "tx": [
    {
      "txid": "f4c17c6e8232cd0dfc68bfe8b4c9c066271c673b0cab6399b4333f11b25b941c",
      "hash": "f4c17c6e8232cd0dfc68bfe8b4c9c066271c673b0cab6399b4333f11b25b941c",
      "version": 1,
      "size": 135,
      "vsize": 135,
      "weight": 540,
      "locktime": 0,
      "vin": [
        {
          "coinbase": "04ffff001d020b0a",
          "sequence": 4294967295
        }
      ],
      "vout": [
        {
          "value": 50.0,
          "n": 0,
          "scriptPubKey": {
            "asm": "04dbdb54cc95765d5c0c409095ffc3d5ebd095c828894b8de3a0a22cef431908de40b41d4270b04c78384b308d651e322b1e0f2ce154b3ff6693720110e7110e92 OP_CHECKSIG",
            "desc": "pk(04dbdb54cc95765d5c0c409095ffc3d5ebd095c828894b8de3a0a22cef431908de40b41d4270b04c78384b308d651e322b1e0f2ce154b3ff6693720110e7110e92)#7vktge9x",
            "hex": "4104dbdb54cc95765d5c0c409095ffc3d5ebd095c828894b8de3a0a22cef431908de40b41d4270b04c78384b308d651e322b1e0f2ce154b3ff6693720110e7110e92ac",
            "type": "pubkey"
          }
        }
      ],
      "hex": "01000000010000000000000000000000000000000000000000000000000000000000000000ffffffff0804ffff001d020b0affffffff0100f2052a01000000434104dbdb54cc95765d5c0c409095ffc3d5ebd095c828894b8de3a0a22cef431908de40b41d4270b04c78384b308d651e322b1e0f2ce154b3ff6693720110e7110e92ac00000000"
    }
  ]
}