{
  "hash": "00000000d1fcee238fcae561f10203826653a7192adff3a8ebb8a7617ffce7d8",
  "confirmations": 44470,
  "height": 8628,
  "version": 1,
  "versionHex": "00000001",
  "merkleroot": "6225fd48b14eb72a0f66ecc5b35d3b850812c3358610839b7aeb9ae6ec497a08",
  "time": 1237967600,
  "mediantime": 1237965731,
  "nonce": 3981671957,
  "bits": "1d00ffff",
  "difficulty": 1,
  "chainwork": "000000000000000000000000000000000000000000000000000021b521b521b5",
  "nTx": 1,
  "previousblockhash": "000000000f5e969b70e454cf7dcf9a5c33ff68614a309650fd7e16408c10995a",
  "nextblockhash": "0000000027c5b3cf68cd0dc05922fa2bcef175ec4964810141e220acfe2dd9ab",
  "strippedsize": 216,
  "size": 216,
  "weight": 864,
  "tx": [
    {
      "txid": "6225fd48b14eb72a0f66ecc5b35d3b850812c3358610839b7aeb9ae6ec497a08",
      "hash": "6225fd48b14eb72a0f66ecc5b35d3b850812c3358610839b7aeb9ae6ec497a08",
      "version": 1,
      "size": 135,
      "vsize": 135,
      "weight": 540,
      "locktime": 0,
      "vin": [
        {
          "coinbase": "04ffff001d02f909",
          "sequence": 4294967295
        }
      ],
      "vout": [
        {
          "value": 50.0,
          "n": 0,
          "scriptPubKey": {
            "asm": "04e7c3c9f19563745f3fdb7388dbb2582d548cf898fa811348a450eac52c88964f7ba6dc333ce9bcf02f583bb9313e4ea1b4d9bed7073f9c408e80c04f83bda1ea OP_CHECKSIG",
            "desc": "pk(04e7c3c9f19563745f3fdb7388dbb2582d548cf898fa811348a450eac52c88964f7ba6dc333ce9bcf02f583bb9313e4ea1b4d9bed7073f9c408e80c04f83bda1ea)#wdurck9v",
            "hex": "4104e7c3c9f19563745f3fdb7388dbb2582d548cf898fa811348a450eac52c88964f7ba6dc333ce9bcf02f583bb9313e4ea1b4d9bed7073f9c408e80c04f83bda1eaac",
            "type": "pubkey"
          }
        }
      ],
      "hex": "01000000010000000000000000000000000000000000000000000000000000000000000000ffffffff0804ffff001d02f909ffffffff0100f2052a01000000434104e7c3c9f19563745f3fdb7388dbb2582d548cf898fa811348a450eac52c88964f7ba6dc333ce9bcf02f583bb9313e4ea1b4d9bed7073f9c408e80c04f83bda1eaac00000000"
    }
  ]
}