{
  "hash": "00000000180884d496bf422717a1af045153b0a100500b6f627bb3252c74f8d9",
  "confirmations": 45877,
  "height": 7221,
  "version": 1,
  "versionHex": "00000001",
  "merkleroot": "24c17a24cfb22322102178196032f37a061dd92a0d89330f00fc1cdb7b3b9b5e",
  "time": 1236886482,
  "mediantime": 1236882878,
  "nonce": 3903981868,
  "bits": "1d00ffff",
  "difficulty": 1,
  "chainwork": "00000000000000000000000000000000000000000000000000001c361c361c36",
  "nTx": 1,
  "previousblockhash": "0000000060327d757e6926273a0e2ba1feecfdf0c784680934de2dea737810b1",
  "nextblockhash": "00000000c23368c1235d7f96c4612d63a574816848d7d872fd415c111fbf9895",
  "strippedsize": 216,
  "size": 216,
  "weight": 864,
  "tx": [
    {
      "txid": "24c17a24cfb22322102178196032f37a061dd92a0d89330f00fc1cdb7b3b9b5e",
      "hash": "24c17a24cfb22322102178196032f37a061dd92a0d89330f00fc1cdb7b3b9b5e",
      "version": 1,
      "size": 135,
      "vsize": 135,
      "weight": 540,
      "locktime": 0,
      "vin": [
        {
          "coinbase": "04ffff001d02f905",
          "sequence": 4294967295
        }
      ],
      "vout": [
        {
          "value": 50.0,
          "n": 0,
          "scriptPubKey": {
            "asm": "047d7857cadfc6e78b6a69db3eac6242211f23339cf004bfbcb412385a50688f390ff67e7a202b164d01ffaf9b9738c5b9f035fc27644895a28ae1fac87742b041 OP_CHECKSIG",
            "desc": "pk(047d7857cadfc6e78b6a69db3eac6242211f23339cf004bfbcb412385a50688f390ff67e7a202b164d01ffaf9b9738c5b9f035fc27644895a28ae1fac87742b041)#ka9jhwv8",
            "hex": "41047d7857cadfc6e78b6a69db3eac6242211f23339cf004bfbcb412385a50688f390ff67e7a202b164d01ffaf9b9738c5b9f035fc27644895a28ae1fac87742b041ac",
            "type": "pubkey"
          }
        }
      ],
      "hex": "01000000010000000000000000000000000000000000000000000000000000000000000000ffffffff0804ffff001d02f905ffffffff0100f2052a010000004341047d7857cadfc6e78b6a69db3eac6242211f23339cf004bfbcb412385a50688f390ff67e7a202b164d01ffaf9b9738c5b9f035fc27644895a28ae1fac87742b041ac00000000"
    }
  ]
}