{
  "hash": "00000000aaaf7a0014102a2cd47fff390d94a36f25ac70c5d5f5b0a3e988f978",
  "confirmations": 50647,
  "height": 2451,
  "version": 1,
  "versionHex": "00000001",
  "merkleroot": "93d0902652b39637dc85c09a9f174588d4d9ba886377608cef3e2f664bb054e6",
  "time": 1233393762,
  "mediantime": 1233389946,
  "nonce": 221093920,
  "bits": "1d00ffff",
  "difficulty": 1,
  "chainwork": "0000000000000000000000000000000000000000000000000000099409940994",
  "nTx": 1,
  "previousblockhash": "000000007bd0cc68f33f022f9d73889fa3e2bc58820e30d21567475633c40e99",
  "nextblockhash": "00000000af6ebfe2a16e85d5c9f8a842a79a7e1ee1edf60986b08182cba66fad",
  "strippedsize": 216,
  "size": 216,
  "weight": 864,
  "tx": [
    {
      "txid": "93d0902652b39637dc85c09a9f174588d4d9ba886377608cef3e2f664bb054e6",
      "hash": "93d0902652b39637dc85c09a9f174588d4d9ba886377608cef3e2f664bb054e6",
      "version": 1,
      "size": 135,
      "vsize": 135,
      "weight": 540,
      "locktime": 0,
      "vin": [
        {
          "coinbase": "04ffff001d028600",
          "sequence": 4294967295
        }
      ],
      "vout": [
        {
          "value": 50.0,
          "n": 0,
          "scriptPubKey": {
            "asm": "040ccc152992eac87d0f982b1eac57bd7b7de08e887afc7b0f17e0998edecacbad8124f216c3a1ff40ed395e98e5d078c04131629b8d35a533fa0dd823e9fbd3c8 OP_CHECKSIG",
            "desc": "pk(040ccc152992eac87d0f982b1eac57bd7b7de08e887afc7b0f17e0998edecacbad8124f216c3a1ff40ed395e98e5d078c04131629b8d35a533fa0dd823e9fbd3c8)#xspalp8q",
            "hex": "41040ccc152992eac87d0f982b1eac57bd7b7de08e887afc7b0f17e0998edecacbad8124f216c3a1ff40ed395e98e5d078c04131629b8d35a533fa0dd823e9fbd3c8ac",
            "type": "pubkey"
          }
        }
      ],
      "hex": "01000000010000000000000000000000000000000000000000000000000000000000000000ffffffff0804ffff001d028600ffffffff0100f2052a010000004341040ccc152992eac87d0f982b1eac57bd7b7de08e887afc7b0f17e0998edecacbad8124f216c3a1ff40ed395e98e5d078c04131629b8d35a533fa0dd823e9fbd3c8ac00000000"
    }
  ]
}