{
  "hash": "0000000019609f139be32f2e339a6864af9cf0e259bde27e193fa90d333e2e9c",
  "confirmations": 46744,
  "height": 6354,
  "version": 1,
  "versionHex": "00000001",
  "merkleroot": "baa07be709d7d5189161474670e408f8813d7cbf8b92a6a800af1cf9f472e23d",
  "time": 1236221453,
  "mediantime": 1236216362,
  "nonce": 15711529,
  "bits": "1d00ffff",
  "difficulty": 1,
  "chainwork": "000000000000000000000000000000000000000000000000000018d318d318d3",
  "nTx": 1,
  "previousblockhash": "000000005763adc8fedd2c39384fee4d016cb843f129ac6256d90a95a0ed1b7f",
  "nextblockhash": "00000000b06b148c98d937cd4ef4dcf0aac695a60ca50472746979b59862d038",
  "strippedsize": 216,
  "size": 216,
  "weight": 864,
  "tx": [
    {
      "txid": "baa07be709d7d5189161474670e408f8813d7cbf8b92a6a800af1cf9f472e23d",
      "hash": "baa07be709d7d5189161474670e408f8813d7cbf8b92a6a800af1cf9f472e23d",
      "version": 1,
      "size": 135,
      "vsize": 135,
      "weight": 540,
      "locktime": 0,
      "vin": [
        {
          "coinbase": "04ffff001d02fc00",
          "sequence": 4294967295
        }
      ],
      "vout": [
        {
          "value": 50.0,
          "n": 0,
          "scriptPubKey": {
            "asm": "04b5a87abca72eb2d44a72a42bbe6f4b13c84a642aa0379a52f82e07a6f3c6832cb535d9e15074732296c7a842cb596672f137bce126cc0a871f4d3acce4949f92 OP_CHECKSIG",
            "desc": "pk(04b5a87abca72eb2d44a72a42bbe6f4b13c84a642aa0379a52f82e07a6f3c6832cb535d9e15074732296c7a842cb596672f137bce126cc0a871f4d3acce4949f92)#5cvdpnj7",
            "hex": "4104b5a87abca72eb2d44a72a42bbe6f4b13c84a642aa0379a52f82e07a6f3c6832cb535d9e15074732296c7a842cb596672f137bce126cc0a871f4d3acce4949f92ac",
            "type": "pubkey"
          }
        }
      ],
      "hex": "01000000010000000000000000000000000000000000000000000000000000000000000000ffffffff0804ffff001d02fc00ffffffff0100f2052a01000000434104b5a87abca72eb2d44a72a42bbe6f4b13c84a642aa0379a52f82e07a6f3c6832cb535d9e15074732296c7a842cb596672f137bce126cc0a871f4d3acce4949f92ac00000000"
    }
  ]
}