{
  "hash": "000000006aea5ee991100b4a3d9b926aa1813d9b995342d4fba6484bc51d76b5",
  "confirmations": 50674,
  "height": 2424,
  "version": 1,
  "versionHex": "00000001",
  "merkleroot": "31bddc35ada94564402781c18a7270290ec8205bc085d9961c1b468aebe4496a",
  "time": 1233372587,
  "mediantime": 1233369789,
  "nonce": 3520495895,
  "bits": "1d00ffff",
  "difficulty": 1,
  "chainwork": "0000000000000000000000000000000000000000000000000000097909790979",
  "nTx": 1,
  "previousblockhash": "00000000dd622ce79e7ba9ac8a58ad8ec10cc5a94cc1711e99b96b9ed98083fe",
  "nextblockhash": "000000004b15656c6ea361efd97cb97c86f2cc8b0766784054d5251df835c736",
  "strippedsize": 215,
  "size": 215,
  "weight": 860,
  "tx": [
    {
      "txid": "31bddc35ada94564402781c18a7270290ec8205bc085d9961c1b468aebe4496a",
      "hash": "31bddc35ada94564402781c18a7270290ec8205bc085d9961c1b468aebe4496a",
      "version": 1,
      "size": 134,
      "vsize": 134,
      "weight": 536,
      "locktime": 0,
      "vin": [
        {
          "coinbase": "04ffff001d011d",
          "sequence": 4294967295
        }
      ],
      "vout": [
        {
          "value": 50.0,
          "n": 0,
          "scriptPubKey": {
            "asm": "048f691c79a0e45267a494906749055184741371baa3a473c99156a0d63f03502957cbb4753da0ef7668086b3c6ef610c2c9389b3eaccbf0c0d0378c5fca4a8767 OP_CHECKSIG",
            "desc": "pk(048f691c79a0e45267a494906749055184741371baa3a473c99156a0d63f03502957cbb4753da0ef7668086b3c6ef610c2c9389b3eaccbf0c0d0378c5fca4a8767)#jfhgj4wu",
            "hex": "41048f691c79a0e45267a494906749055184741371baa3a473c99156a0d63f03502957cbb4753da0ef7668086b3c6ef610c2c9389b3eaccbf0c0d0378c5fca4a8767ac",
            "type": "pubkey"
          }
        }
      ],
      "hex": "01000000010000000000000000000000000000000000000000000000000000000000000000ffffffff0704ffff001d011dffffffff0100f2052a010000004341048f691c79a0e45267a494906749055184741371baa3a473c99156a0d63f03502957cbb4753da0ef7668086b3c6ef610c2c9389b3eaccbf0c0d0378c5fca4a8767ac00000000"
    }
  ]
}