{
  "hash": "00000000838f0bfcf42b11be09ad50111df5e838e7f58b1616fe121ba5bd330a",
  "confirmations": 47065,
  "height": 6033,
  "version": 1,
  "versionHex": "00000001",
  "merkleroot": "6a1e019a6d4a0f3b46101f7fd116ed70507cefab99752a20b4a831e1d09d29e6",
  "time": 1235956132,
  "mediantime": 1235951359,
  "nonce": 1457289504,
  "bits": "1d00ffff",
  "difficulty": 1,
  "chainwork": "0000000000000000000000000000000000000000000000000000179217921792",
  "nTx": 1,
  "previousblockhash": "00000000e53b89b483821ae404e64476692089be8f9ef5338bbdd5d0519872cc",
  "nextblockhash": "000000001383f9f8bbf03a0f4f80e18575c6cbfd3d91f6fb75de275ecbe3159e",
  "strippedsize": 216,
  "size": 216,
  "weight": 864,
  "tx": [
    {
      "txid": "6a1e019a6d4a0f3b46101f7fd116ed70507cefab99752a20b4a831e1d09d29e6",
      "hash": "6a1e019a6d4a0f3b46101f7fd116ed70507cefab99752a20b4a831e1d09d29e6",
      "version": 1,
      "size": 135,
      "vsize": 135,
      "weight": 540,
      "locktime": 0,
      "vin": [
        {
          "coinbase": "04ffff001d029c05",
          "sequence": 4294967295
        }
      ],
      "vout": [
        {
          "value": 50.0,
          "n": 0,
          "scriptPubKey": {
            "asm": "043978b49e84583a8ba590ee059f547f06522aa9a195b771b517e8acff0bcb12397e7199bfd5045aab5e71ea48cb20f549bb21b165e0ff910ee4d6972b78850076 OP_CHECKSIG",
            "desc": "pk(043978b49e84583a8ba590ee059f547f06522aa9a195b771b517e8acff0bcb12397e7199bfd5045aab5e71ea48cb20f549bb21b165e0ff910ee4d6972b78850076)#6pq0sfp9",
            "hex": "41043978b49e84583a8ba590ee059f547f06522aa9a195b771b517e8acff0bcb12397e7199bfd5045aab5e71ea48cb20f549bb21b165e0ff910ee4d6972b78850076ac",
            "type": "pubkey"
          }
        }
      ],
      "hex": "01000000010000000000000000000000000000000000000000000000000000000000000000ffffffff0804ffff001d029c05ffffffff0100f2052a010000004341043978b49e84583a8ba590ee059f547f06522aa9a195b771b517e8acff0bcb12397e7199bfd5045aab5e71ea48cb20f549bb21b165e0ff910ee4d6972b78850076ac00000000"
    }
  ]
}