{
  "hash": "000000004b8ac7b1d1dc61bbe0dfa958b832d03fc167e2f277b53801536822a1",
  "confirmations": 44792,
  "height": 8306,
  "version": 1,
  "versionHex": "00000001",
  "merkleroot": "98211192411e0ca517410a6fff5628a3c3836f3cd206af123725b921b871e924",
  "time": 1237734285,
  "mediantime": 1237730902,
  "nonce": 1471050014,
  "bits": "1d00ffff",
  "difficulty": 1,
  "chainwork": "0000000000000000000000000000000000000000000000000000207320732073",
  "nTx": 1,
  "previousblockhash": "000000008748157cc4a9d11adf210412878a20d64b4e2a4fb08bc252fbde2199",
  "nextblockhash": "0000000003174c27f277888db092888a6d4d413eed2ef579663b48628a477a0a",
  "strippedsize": 216,
  "size": 216,
  "weight": 864,
  "tx": [
    {
      "txid": "98211192411e0ca517410a6fff5628a3c3836f3cd206af123725b921b871e924",
      "hash": "98211192411e0ca517410a6fff5628a3c3836f3cd206af123725b921b871e924",
      "version": 1,
      "size": 135,
      "vsize": 135,
      "weight": 540,
      "locktime": 0,
      "vin": [
        {
          "coinbase": "04ffff001d023604",
          "sequence": 4294967295
        }
      ],
      "vout": [
        {
          "value": 50.0,
          "n": 0,
          "scriptPubKey": {
            "asm": "04536f94c042fe5fa6a7b8567fd1bc5f6aa1773aa09386bff9c0b34c267dc911052f58cecf524ac67e7c246bc31a12060984f5fe530d14243e54fa853e3d9adb42 OP_CHECKSIG",
            "desc": "pk(04536f94c042fe5fa6a7b8567fd1bc5f6aa1773aa09386bff9c0b34c267dc911052f58cecf524ac67e7c246bc31a12060984f5fe530d14243e54fa853e3d9adb42)#07lq6498",
            "hex": "4104536f94c042fe5fa6a7b8567fd1bc5f6aa1773aa09386bff9c0b34c267dc911052f58cecf524ac67e7c246bc31a12060984f5fe530d14243e54fa853e3d9adb42ac",
            "type": "pubkey"
          }
        }
      ],
      "hex": "01000000010000000000000000000000000000000000000000000000000000000000000000ffffffff0804ffff001d023604ffffffff0100f2052a01000000434104536f94c042fe5fa6a7b8567fd1bc5f6aa1773aa09386bff9c0b34c267dc911052f58cecf524ac67e7c246bc31a12060984f5fe530d14243e54fa853e3d9adb42ac00000000"
    }
  ]
}