{
  "hash": "000000008801d8554b3e7470ffb511ca0664ecf07098b14be09dd036664328d0",
  "confirmations": 50615,
  "height": 2483,
  "version": 1,
  "versionHex": "00000001",
  "merkleroot": "4cd3e05335d41107ba3337a65f71e3d9e61ccba861b4b7e43af394c0d7db7858",
  "time": 1233412537,
  "mediantime": 1233409151,
  "nonce": 3724578312,
  "bits": "1d00ffff",
  "difficulty": 1,
  "chainwork": "000000000000000000000000000000000000000000000000000009b409b409b4",
  "nTx": 1,
  "previousblockhash": "00000000471916db33ca96f0927d0c0cfaf7df62a88807f009a688db0bcfc132",
  "nextblockhash": "00000000351e0c7b39324667b4e61689a023c202a23a868beb40f8fb75b32be5",
  "strippedsize": 216,
  "size": 216,
  "weight": 864,
  "tx": [
    {
      "txid": "4cd3e05335d41107ba3337a65f71e3d9e61ccba861b4b7e43af394c0d7db7858",
      "hash": "4cd3e05335d41107ba3337a65f71e3d9e61ccba861b4b7e43af394c0d7db7858",
      "version": 1,
      "size": 135,
      "vsize": 135,
      "weight": 540,
      "locktime": 0,
      "vin": [
        {
          "coinbase": "04ffff001d02e900",
          "sequence": 4294967295
        }
      ],
      "vout": [
        {
          "value": 50.0,
          "n": 0,
          "scriptPubKey": {
            "asm": "042ea866ec951e3253dd1988b14910443b83c126a75ad88c012df47ef01bfe749b0727ae9285d6d62d3f38eb9f2d1051c4474347b2ec4ef563053b891763b71678 OP_CHECKSIG",
            "desc": "pk(042ea866ec951e3253dd1988b14910443b83c126a75ad88c012df47ef01bfe749b0727ae9285d6d62d3f38eb9f2d1051c4474347b2ec4ef563053b891763b71678)#p8ml4wus",
            "hex": "41042ea866ec951e3253dd1988b14910443b83c126a75ad88c012df47ef01bfe749b0727ae9285d6d62d3f38eb9f2d1051c4474347b2ec4ef563053b891763b71678ac",
            "type": "pubkey"
          }
        }
      ],
      "hex": "01000000010000000000000000000000000000000000000000000000000000000000000000ffffffff0804ffff001d02e900ffffffff0100f2052a010000004341042ea866ec951e3253dd1988b14910443b83c126a75ad88c012df47ef01bfe749b0727ae9285d6d62d3f38eb9f2d1051c4474347b2ec4ef563053b891763b71678ac00000000"
    }
  ]
}