{
  "hash": "0000000067651305205a78f27820c114c89115966c2fbe62ea20d2b571088c2d",
  "confirmations": 47908,
  "height": 5190,
  "version": 1,
  "versionHex": "00000001",
  "merkleroot": "4504a9903e543231640df46d2ca5c893780ccdc72100e98f0a7c8bcf94e55767",
  "time": 1235279913,
  "mediantime": 1235276036,
  "nonce": 2486190110,
  "bits": "1d00ffff",
  "difficulty": 1,
  "chainwork": "0000000000000000000000000000000000000000000000000000144714471447",
  "nTx": 1,
  "previousblockhash": "0000000021d01cc4f26d3763abc14e6bae5e9961fb89723e692ee7dacb39cb47",
  "nextblockhash": "00000000706322bbe5698eb5833f6a9ecc1f77154e5cb4efcb87b696cbb4ef89",
  "strippedsize": 215,
  "size": 215,
  "weight": 860,
  "tx": [
    {
      "txid": "4504a9903e543231640df46d2ca5c893780ccdc72100e98f0a7c8bcf94e55767",
      "hash": "4504a9903e543231640df46d2ca5c893780ccdc72100e98f0a7c8bcf94e55767",
      "version": 1,
      "size": 134,
      "vsize": 134,
      "weight": 536,
      "locktime": 0,
      "vin": [
        {
          "coinbase": "04ffff001d0160",
          "sequence": 4294967295
        }
      ],
      "vout": [
        {
          "value": 50.0,
          "n": 0,
          "scriptPubKey": {
            "asm": "0429060b3f2447c3e78609a7ed2bc2d9f19680d72073211a1b0cbe37af4cd52d64b494f453fa88c0a7032eb2b9cb900d6a585b7f3607641cfdb954ae06c5cb3fed OP_CHECKSIG",
            "desc": "pk(0429060b3f2447c3e78609a7ed2bc2d9f19680d72073211a1b0cbe37af4cd52d64b494f453fa88c0a7032eb2b9cb900d6a585b7f3607641cfdb954ae06c5cb3fed)#zft2032m",
            "hex": "410429060b3f2447c3e78609a7ed2bc2d9f19680d72073211a1b0cbe37af4cd52d64b494f453fa88c0a7032eb2b9cb900d6a585b7f3607641cfdb954ae06c5cb3fedac",
            "type": "pubkey"
          }
        }
      ],
      "hex": "01000000010000000000000000000000000000000000000000000000000000000000000000ffffffff0704ffff001d0160ffffffff0100f2052a0100000043410429060b3f2447c3e78609a7ed2bc2d9f19680d72073211a1b0cbe37af4cd52d64b494f453fa88c0a7032eb2b9cb900d6a585b7f3607641cfdb954ae06c5cb3fedac00000000"
    }
  ]
}