{
  "hash": "00000000fc279333515e70df38ed11fc97d049722009b103146a042e40689f69",
  "confirmations": 48375,
  "height": 4723,
  "version": 1,
  "versionHex": "00000001",
  "merkleroot": "ffe8c2320270262db7eb11f3f532d20aa9ed141023b9f356da0b831004cdbafc",
  "time": 1234943330,
  "mediantime": 1234939718,
  "nonce": 2625588258,
  "bits": "1d00ffff",
  "difficulty": 1,
  "chainwork": "0000000000000000000000000000000000000000000000000000127412741274",
  "nTx": 1,
  "previousblockhash": "00000000ead758e5bbad4e5c0da409d8600669c4b0a7fcbb4fb1ab4d8df0971f",
  "nextblockhash": "0000000095cae1e8c3ce41d03392f145dd908f84e8b15b940414d5dcf416ee6e",
  "strippedsize": 216,
  "size": 216,
  "weight": 864,
  "tx": [
    {
      "txid": "ffe8c2320270262db7eb11f3f532d20aa9ed141023b9f356da0b831004cdbafc",
      "hash": "ffe8c2320270262db7eb11f3f532d20aa9ed141023b9f356da0b831004cdbafc",
      "version": 1,
      "size": 135,
      "vsize": 135,
      "weight": 540,
      "locktime": 0,
      "vin": [
        {
          "coinbase": "04ffff001d02d202",
          "sequence": 4294967295
        }
      ],
      "vout": [
        {
          "value": 50.0,
          "n": 0,
          "scriptPubKey": {
            "asm": "040b6af2f720888ebdc0f6b51a934718ff8009018e002d8eacfbd3045717cad8ef505ebc64c2412b974d10058064592652c4008591e6a6c85cfe210edb19e727ce OP_CHECKSIG",
            "desc": "pk(040b6af2f720888ebdc0f6b51a934718ff8009018e002d8eacfbd3045717cad8ef505ebc64c2412b974d10058064592652c4008591e6a6c85cfe210edb19e727ce)#fep80ej5",
            "hex": "41040b6af2f720888ebdc0f6b51a934718ff8009018e002d8eacfbd3045717cad8ef505ebc64c2412b974d10058064592652c4008591e6a6c85cfe210edb19e727ceac",
            "type": "pubkey"
          }
        }
      ],
      "hex": "01000000010000000000000000000000000000000000000000000000000000000000000000ffffffff0804ffff001d02d202ffffffff0100f2052a010000004341040b6af2f720888ebdc0f6b51a934718ff8009018e002d8eacfbd3045717cad8ef505ebc64c2412b974d10058064592652c4008591e6a6c85cfe210edb19e727ceac00000000"
    }
  ]
}