{
  "hash": "000000008b998999ce67ab3c8431408d289d3c057c6db389c41093fe91b46afa",
  "confirmations": 45961,
  "height": 7137,
  "version": 1,
  "versionHex": "00000001",
  "merkleroot": "a9eeac82eb18a12d26a9e429c79126e5c4fd2375b50a8a26114471ff7d9e9593",
  "time": 1236823103,
  "mediantime": 1236819294,
  "nonce": 1976089386,
  "bits": "1d00ffff",
  "difficulty": 1,
  "chainwork": "00000000000000000000000000000000000000000000000000001be21be21be2",
  "nTx": 1,
  "previousblockhash": "00000000cab5562be91a7b14c914e4363e209ff4c9140f8d1bf21be79f889395",
  "nextblockhash": "00000000de5243c9bae6f197c7762df5dfcd37b2daa2e521cde4691826c81f4f",
  "strippedsize": 216,
  "size": 216,
  "weight": 864,
  "tx": [
    {
      "txid": "a9eeac82eb18a12d26a9e429c79126e5c4fd2375b50a8a26114471ff7d9e9593",
      "hash": "a9eeac82eb18a12d26a9e429c79126e5c4fd2375b50a8a26114471ff7d9e9593",
      "version": 1,
      "size": 135,
      "vsize": 135,
      "weight": 540,
      "locktime": 0,
      "vin": [
        {
          "coinbase": "04ffff001d02ab04",
          "sequence": 4294967295
        }
      ],
      "vout": [
        {
          "value": 50.0,
          "n": 0,
          "scriptPubKey": {
            "asm": "04a521b7d733438d8e8ae05ef6a0ca847542e0795932a80c42e8f1a4e755253ee1025d1c2efc87b998a6f8e814c0e2439f7dddf2bcaaf537232f3e9a4fdfd66436 OP_CHECKSIG",
            "desc": "pk(04a521b7d733438d8e8ae05ef6a0ca847542e0795932a80c42e8f1a4e755253ee1025d1c2efc87b998a6f8e814c0e2439f7dddf2bcaaf537232f3e9a4fdfd66436)#43hegykl",
            "hex": "4104a521b7d733438d8e8ae05ef6a0ca847542e0795932a80c42e8f1a4e755253ee1025d1c2efc87b998a6f8e814c0e2439f7dddf2bcaaf537232f3e9a4fdfd66436ac",
            "type": "pubkey"
          }
        }
      ],
      "hex": "01000000010000000000000000000000000000000000000000000000000000000000000000ffffffff0804ffff001d02ab04ffffffff0100f2052a01000000434104a521b7d733438d8e8ae05ef6a0ca847542e0795932a80c42e8f1a4e755253ee1025d1c2efc87b998a6f8e814c0e2439f7dddf2bcaaf537232f3e9a4fdfd66436ac00000000"
    }
  ]
}