{
  "hash": "000000000a19c798c579dede01a40639ad01dc5235ba4a7a6df354279257daf4",
  "confirmations": 44002,
  "height": 9096,
  "version": 1,
  "versionHex": "00000001",
  "merkleroot": "8cc922ec21d04c2f25cd777ebf02ca7caae7adb8f97ea70c1208e2cb85cc9f29",
  "time": 1238328150,
  "mediantime": 1238325255,
  "nonce": 1712706854,
  "bits": "1d00ffff",
  "difficulty": 1,
  "chainwork": "0000000000000000000000000000000000000000000000000000238923892389",
  "nTx": 1,
  "previousblockhash": "00000000d0da55d1721b8e76de181c49834b857e16abec4b616abf174fbd94f1",
  "nextblockhash": "00000000941c213fe9c2e0144ab9ef19068acdbba8b394e77407e779b5728138",
  "strippedsize": 216,
  "size": 216,
  "weight": 864,
  "tx": [
    {
      "txid": "8cc922ec21d04c2f25cd777ebf02ca7caae7adb8f97ea70c1208e2cb85cc9f29",
      "hash": "8cc922ec21d04c2f25cd777ebf02ca7caae7adb8f97ea70c1208e2cb85cc9f29",
      "version": 1,
      "size": 135,
      "vsize": 135,
      "weight": 540,
      "locktime": 0,
      "vin": [
        {
          "coinbase": "04ffff001d023c08",
          "sequence": 4294967295
        }
      ],
      "vout": [
        {
          "value": 50.0,
          "n": 0,
          "scriptPubKey": {
            "asm": "04be02a5dd6da8aab49b21f6c0f0714406d0f2d11f8dbf107d0c0541f83ccc00f5ae61dd403a32a56d854c1ab7455ede968e2f62a6c96c6750b0f5802ded8ecb24 OP_CHECKSIG",
            "desc": "pk(04be02a5dd6da8aab49b21f6c0f0714406d0f2d11f8dbf107d0c0541f83ccc00f5ae61dd403a32a56d854c1ab7455ede968e2f62a6c96c6750b0f5802ded8ecb24)#3jquwasz",
            "hex": "4104be02a5dd6da8aab49b21f6c0f0714406d0f2d11f8dbf107d0c0541f83ccc00f5ae61dd403a32a56d854c1ab7455ede968e2f62a6c96c6750b0f5802ded8ecb24ac",
            "type": "pubkey"
          }
        }
      ],
      "hex": "01000000010000000000000000000000000000000000000000000000000000000000000000ffffffff0804ffff001d023c08ffffffff0100f2052a01000000434104be02a5dd6da8aab49b21f6c0f0714406d0f2d11f8dbf107d0c0541f83ccc00f5ae61dd403a32a56d854c1ab7455ede968e2f62a6c96c6750b0f5802ded8ecb24ac00000000"
    }
  ]
}