{
  "hash": "000000007dfa532e04282f23e6a275e9b43139ed93102023e87729ce753aaa85",
  "confirmations": 46930,
  "height": 6168,
  "version": 1,
  "versionHex": "00000001",
  "merkleroot": "2890a0bc1d70364eae526689062b85b6ece0e83a59e194fdc88dbd0823bc751c",
  "time": 1236066356,
  "mediantime": 1236061464,
  "nonce": 1934939945,
  "bits": "1d00ffff",
  "difficulty": 1,
  "chainwork": "0000000000000000000000000000000000000000000000000000181918191819",
  "nTx": 1,
  "previousblockhash": "0000000046aa0f0f8aa64b8573f550c7a5093d53545b19ab65c79bb7b232b400",
  "nextblockhash": "00000000207f82482acd5234af357c2646a304c5fef2e41473d051cc89438cec",
  "strippedsize": 216,
  "size": 216,
  "weight": 864,
  "tx": [
    {
      "txid": "2890a0bc1d70364eae526689062b85b6ece0e83a59e194fdc88dbd0823bc751c",
      "hash": "2890a0bc1d70364eae526689062b85b6ece0e83a59e194fdc88dbd0823bc751c",
      "version": 1,
      "size": 135,
      "vsize": 135,
      "weight": 540,
      "locktime": 0,
      "vin": [
        {
          "coinbase": "04ffff001d02da07",
          "sequence": 4294967295
        }
      ],
      "vout": [
        {
          "value": 50.0,
          "n": 0,
          "scriptPubKey": {
            "asm": "049284c4f5c1d17aac196e102a60ce8f35b54be4c9990efe30d8ec1915a254d5e4841f8edc3321fdd68662956a5fb5e94eada7d6ca29b5368e165a431777307afa OP_CHECKSIG",
            "desc": "pk(049284c4f5c1d17aac196e102a60ce8f35b54be4c9990efe30d8ec1915a254d5e4841f8edc3321fdd68662956a5fb5e94eada7d6ca29b5368e165a431777307afa)#7rqt4vce",
            "hex": "41049284c4f5c1d17aac196e102a60ce8f35b54be4c9990efe30d8ec1915a254d5e4841f8edc3321fdd68662956a5fb5e94eada7d6ca29b5368e165a431777307afaac",
            "type": "pubkey"
          }
        }
      ],
      "hex": "01000000010000000000000000000000000000000000000000000000000000000000000000ffffffff0804ffff001d02da07ffffffff0100f2052a010000004341049284c4f5c1d17aac196e102a60ce8f35b54be4c9990efe30d8ec1915a254d5e4841f8edc3321fdd68662956a5fb5e94eada7d6ca29b5368e165a431777307afaac00000000"
    }
  ]
}