{
  "hash": "000000008500b119a761cef8c6ceebf56332f6ea403b0d43bbec74ddf53e4016",
  "confirmations": 49180,
  "height": 3918,
  "version": 1,
  "versionHex": "00000001",
  "merkleroot": "60f5a9cdb6046ccc8fcc8c0b87dd525093374820ab19e25ff4cb39b284641f3b",
  "time": 1234384953,
  "mediantime": 1234380035,
  "nonce": 207987984,
  "bits": "1d00ffff",
  "difficulty": 1,
  "chainwork": "00000000000000000000000000000000000000000000000000000f4f0f4f0f4f",
  "nTx": 1,
  "previousblockhash": "000000009d54d0c7f7c2a96a988cf35988a5adae1897daa7e23ae4cbf4d452aa",
  "nextblockhash": "000000002e7fe626ecfd4dd73982aa8902992d7751bd7ce332fcc3a8b524bba2",
  "strippedsize": 216,
  "size": 216,
  "weight": 864,
  "tx": [
    {
      "txid": "60f5a9cdb6046ccc8fcc8c0b87dd525093374820ab19e25ff4cb39b284641f3b",
      "hash": "60f5a9cdb6046ccc8fcc8c0b87dd525093374820ab19e25ff4cb39b284641f3b",
      "version": 1,
      "size": 135,
      "vsize": 135,
      "weight": 540,
      "locktime": 0,
      "vin": [
        {
          "coinbase": "04ffff001d02e107",
          "sequence": 4294967295
        }
      ],
      "vout": [
        {
          "value": 50.0,
          "n": 0,
          "scriptPubKey": {
            "asm": "04cbaca6c5a8070e70bf617d238ca421304294adc88c04ed662520ab577b47724260a2e03bb97a02745e751b1adadb6b40ae5f3657fb0f53d1b4c5e6f09bce8260 OP_CHECKSIG",
            "desc": "pk(04cbaca6c5a8070e70bf617d238ca421304294adc88c04ed662520ab577b47724260a2e03bb97a02745e751b1adadb6b40ae5f3657fb0f53d1b4c5e6f09bce8260)#xzu7aszp",
            "hex": "4104cbaca6c5a8070e70bf617d238ca421304294adc88c04ed662520ab577b47724260a2e03bb97a02745e751b1adadb6b40ae5f3657fb0f53d1b4c5e6f09bce8260ac",
            "type": "pubkey"
          }
        }
      ],
      "hex": "01000000010000000000000000000000000000000000000000000000000000000000000000ffffffff0804ffff001d02e107ffffffff0100f2052a01000000434104cbaca6c5a8070e70bf617d238ca421304294adc88c04ed662520ab577b47724260a2e03bb97a02745e751b1adadb6b40ae5f3657fb0f53d1b4c5e6f09bce8260ac00000000"
    }
  ]
}