{
  "hash": "0000000026f2aa7e311092d5a040290e5070a877b0013300acceb4c72ab1d9e6",
  "confirmations": 45680,
  "height": 7418,
  "version": 1,
  "versionHex": "00000001",
  "merkleroot": "02f8969590d68b870ad2ebaed602ded963f1d1fbb13a2cea219552548abc8ee9",
  "time": 1237036522,
  "mediantime": 1237032659,
  "nonce": 679590178,
  "bits": "1d00ffff",
  "difficulty": 1,
  "chainwork": "00000000000000000000000000000000000000000000000000001cfb1cfb1cfb",
  "nTx": 1,
  "previousblockhash": "00000000e6d396093b92c68e18af6ac367fd7111280711b1c73cb661ca5ddfc9",
  "nextblockhash": "0000000097efb8a7f8ac976ed6820b251b745d78d67f425151f6e089bf724cb0",
  "strippedsize": 216,
  "size": 216,
  "weight": 864,
  "tx": [
    {
      "txid": "02f8969590d68b870ad2ebaed602ded963f1d1fbb13a2cea219552548abc8ee9",
      "hash": "02f8969590d68b870ad2ebaed602ded963f1d1fbb13a2cea219552548abc8ee9",
      "version": 1,
      "size": 135,
      "vsize": 135,
      "weight": 540,
      "locktime": 0,
      "vin": [
        {
          "coinbase": "04ffff001d02c409",
          "sequence": 4294967295
        }
      ],
      "vout": [
        {
          "value": 50.0,
          "n": 0,
          "scriptPubKey": {
            "asm": "043074ed0cf71581e631f34c075e31c3c0bd3f21ce74ba98835db28df6e82b05f521b813a24e0641c4c476aa8b90ae5d5b9b317f1ee1b37e7726a617c8829d8b1e OP_CHECKSIG",
            "desc": "pk(043074ed0cf71581e631f34c075e31c3c0bd3f21ce74ba98835db28df6e82b05f521b813a24e0641c4c476aa8b90ae5d5b9b317f1ee1b37e7726a617c8829d8b1e)#hsd5tpl8",
            "hex": "41043074ed0cf71581e631f34c075e31c3c0bd3f21ce74ba98835db28df6e82b05f521b813a24e0641c4c476aa8b90ae5d5b9b317f1ee1b37e7726a617c8829d8b1eac",
            "type": "pubkey"
          }
        }
      ],
      "hex": "01000000010000000000000000000000000000000000000000000000000000000000000000ffffffff0804ffff001d02c409ffffffff0100f2052a010000004341043074ed0cf71581e631f34c075e31c3c0bd3f21ce74ba98835db28df6e82b05f521b813a24e0641c4c476aa8b90ae5d5b9b317f1ee1b37e7726a617c8829d8b1eac00000000"
    }
  ]
}