{
  "hash": "000000007b3b7755df1dcffaf3d8db55c69750d6e8a82fdd2ba64969f38c4282",
  "confirmations": 47152,
  "height": 5946,
  "version": 1,
  "versionHex": "00000001",
  "merkleroot": "db1073e7e06542fa1c6bf710167df47a5fe424ed239a4698157ec42961fe1283",
  "time": 1235885082,
  "mediantime": 1235881670,
  "nonce": 2819997991,
  "bits": "1d00ffff",
  "difficulty": 1,
  "chainwork": "0000000000000000000000000000000000000000000000000000173b173b173b",
  "nTx": 1,
  "previousblockhash": "000000004b66f1288f8c9a705ee1793e0616369190b3dd4acbef4ddf9e57a06e",
  "nextblockhash": "000000005c215aea3901227d55e7e9957b0e79fc49d4c70d5b75846a8667d403",
  "strippedsize": 216,
  "size": 216,
  "weight": 864,
  "tx": [
    {
      "txid": "db1073e7e06542fa1c6bf710167df47a5fe424ed239a4698157ec42961fe1283",
      "hash": "db1073e7e06542fa1c6bf710167df47a5fe424ed239a4698157ec42961fe1283",
      "version": 1,
      "size": 135,
      "vsize": 135,
      "weight": 540,
      "locktime": 0,
      "vin": [
        {
          "coinbase": "04ffff001d02e903",
          "sequence": 4294967295
        }
      ],
      "vout": [
        {
          "value": 50.0,
          "n": 0,
          "scriptPubKey": {
            "asm": "047d2c7cc0af23115b1a4a7b5a65ffb339bddbf066f193ac06beb3cda9718305103070d0f6f7a2df2958d51776dc289d5f19fb773723477aabd037a158dc29a9ad OP_CHECKSIG",
            "desc": "pk(047d2c7cc0af23115b1a4a7b5a65ffb339bddbf066f193ac06beb3cda9718305103070d0f6f7a2df2958d51776dc289d5f19fb773723477aabd037a158dc29a9ad)#vvdqqd2q",
            "hex": "41047d2c7cc0af23115b1a4a7b5a65ffb339bddbf066f193ac06beb3cda9718305103070d0f6f7a2df2958d51776dc289d5f19fb773723477aabd037a158dc29a9adac",
            "type": "pubkey"
          }
        }
      ],
      "hex": "01000000010000000000000000000000000000000000000000000000000000000000000000ffffffff0804ffff001d02e903ffffffff0100f2052a010000004341047d2c7cc0af23115b1a4a7b5a65ffb339bddbf066f193ac06beb3cda9718305103070d0f6f7a2df2958d51776dc289d5f19fb773723477aabd037a158dc29a9adac00000000"
    }
  ]
}