{
  "hash": "00000000677656fad39aa16dccde62544df254962ca5ebb74ba27654d0467e78",
  "confirmations": 45045,
  "height": 8053,
  "version": 1,
  "versionHex": "00000001",
  "merkleroot": "eb5b57d324a01f8f22b239f3f5c942b34ccf3c9bc54ac4ff5da4890f4c78cc24",
  "time": 1237500524,
  "mediantime": 1237496715,
  "nonce": 2416043060,
  "bits": "1d00ffff",
  "difficulty": 1,
  "chainwork": "00000000000000000000000000000000000000000000000000001f761f761f76",
  "nTx": 1,
  "previousblockhash": "000000000a27fe6e830188657d3e6952640dc4e5645d10587aa39a96c465ea01",
  "nextblockhash": "00000000f827639ada1b65cf1c85b92408862252ce39152b4da44ab806cc1421",
  "strippedsize": 215,
  "size": 215,
  "weight": 860,
  "tx": [
    {
      "txid": "eb5b57d324a01f8f22b239f3f5c942b34ccf3c9bc54ac4ff5da4890f4c78cc24",
      "hash": "eb5b57d324a01f8f22b239f3f5c942b34ccf3c9bc54ac4ff5da4890f4c78cc24",
      "version": 1,
      "size": 134,
      "vsize": 134,
      "weight": 536,
      "locktime": 0,
      "vin": [
        {
          "coinbase": "04ffff001d0141",
          "sequence": 4294967295
        }
      ],
      "vout": [
        {
          "value": 50.0,
          "n": 0,
          "scriptPubKey": {
            "asm": "0465303420fdcfd04edac07dd1a91a0c4f43ea08723813abe167e4630cb6ac1ec418fcbd5a2a12113e8b4ae6a204b0cadffc53d206f1f0709a4a6d81893b8b1fc9 OP_CHECKSIG",
            "desc": "pk(0465303420fdcfd04edac07dd1a91a0c4f43ea08723813abe167e4630cb6ac1ec418fcbd5a2a12113e8b4ae6a204b0cadffc53d206f1f0709a4a6d81893b8b1fc9)#zw2sra0x",
            "hex": "410465303420fdcfd04edac07dd1a91a0c4f43ea08723813abe167e4630cb6ac1ec418fcbd5a2a12113e8b4ae6a204b0cadffc53d206f1f0709a4a6d81893b8b1fc9ac",
            "type": "pubkey"
          }
        }
      ],
      "hex": "01000000010000000000000000000000000000000000000000000000000000000000000000ffffffff0704ffff001d0141ffffffff0100f2052a0100000043410465303420fdcfd04edac07dd1a91a0c4f43ea08723813abe167e4630cb6ac1ec418fcbd5a2a12113e8b4ae6a204b0cadffc53d206f1f0709a4a6d81893b8b1fc9ac00000000"
    }
  ]
}