{
  "hash": "000000008d9e2a8a1f67c18dfe6b33e69b9bf682a6f4a9f8ccef70a6a30e9bc2",
  "confirmations": 49724,
  "height": 3374,
  "version": 1,
  "versionHex": "00000001",
  "merkleroot": "3614a7fe707135fea7d9b646e0fcc3a4f7b6a42929df4fecdc972f5bb22b0ef8",
  "time": 1234019250,
  "mediantime": 1234016153,
  "nonce": 8883636,
  "bits": "1d00ffff",
  "difficulty": 1,
  "chainwork": "00000000000000000000000000000000000000000000000000000d2f0d2f0d2f",
  "nTx": 1,
  "previousblockhash": "00000000f0ede191e805b52f64c5ebf41adee41a823c8ccda52449d84d49610c",
  "nextblockhash": "0000000014626f271bf6cc8eeb388013362d8a64316b373fe348be51502a13af",
  "strippedsize": 215,
  "size": 215,
  "weight": 860,
  "tx": [
    {
      "txid": "3614a7fe707135fea7d9b646e0fcc3a4f7b6a42929df4fecdc972f5bb22b0ef8",
      "hash": "3614a7fe707135fea7d9b646e0fcc3a4f7b6a42929df4fecdc972f5bb22b0ef8",
      "version": 1,
      "size": 134,
      "vsize": 134,
      "weight": 536,
      "locktime": 0,
      "vin": [
        {
          "coinbase": "04ffff001d0147",
          "sequence": 4294967295
        }
      ],
      "vout": [
        {
          "value": 50.0,
          "n": 0,
          "scriptPubKey": {
            "asm": "04fdf8425e0fb99003b9100067f121b6eaee78684b3af5929c67e15e862cfbf9212f535246b44bb69744e2d51e37d8fcf85ef7750b8f9fc8dde892eced0d8c3029 OP_CHECKSIG",
            "desc": "pk(04fdf8425e0fb99003b9100067f121b6eaee78684b3af5929c67e15e862cfbf9212f535246b44bb69744e2d51e37d8fcf85ef7750b8f9fc8dde892eced0d8c3029)#rtcpgkuu",
            "hex": "4104fdf8425e0fb99003b9100067f121b6eaee78684b3af5929c67e15e862cfbf9212f535246b44bb69744e2d51e37d8fcf85ef7750b8f9fc8dde892eced0d8c3029ac",
            "type": "pubkey"
          }
        }
      ],
      "hex": "01000000010000000000000000000000000000000000000000000000000000000000000000ffffffff0704ffff001d0147ffffffff0100f2052a01000000434104fdf8425e0fb99003b9100067f121b6eaee78684b3af5929c67e15e862cfbf9212f535246b44bb69744e2d51e37d8fcf85ef7750b8f9fc8dde892eced0d8c3029ac00000000"
    }
  ]
}