{
  "hash": "0000000037df988a406d3f2eb1f486b720f05e3b9b66dfece0aaaba8c14699bc",
  "confirmations": 45309,
  "height": 7789,
  "version": 1,
  "versionHex": "00000001",
  "merkleroot": "91b8223522d1a4c0f7d011cdac6972b31fd50657849ecb83b960ea1ca897020d",
  "time": 1237303328,
  "mediantime": 1237301536,
  "nonce": 3861027349,
  "bits": "1d00ffff",
  "difficulty": 1,
  "chainwork": "00000000000000000000000000000000000000000000000000001e6e1e6e1e6e",
  "nTx": 1,
  "previousblockhash": "000000001e84c18f8ca6f08264e7099bc123d41b52e0442a893bb3f008b177c1",
  "nextblockhash": "00000000ec24cd43708330cd0158beb38ef337cf7ae2b5ae39bcaf5d0e16ee91",
  "strippedsize": 216,
  "size": 216,
  "weight": 864,
  "tx": [
    {
      "txid": "91b8223522d1a4c0f7d011cdac6972b31fd50657849ecb83b960ea1ca897020d",
      "hash": "91b8223522d1a4c0f7d011cdac6972b31fd50657849ecb83b960ea1ca897020d",
      "version": 1,
      "size": 135,
      "vsize": 135,
      "weight": 540,
      "locktime": 0,
      "vin": [
        {
          "coinbase": "04ffff001d029a05",
          "sequence": 4294967295
        }
      ],
      "vout": [
        {
          "value": 50.0,
          "n": 0,
          "scriptPubKey": {
            "asm": "049dc1ab925fe7ac1632a309a5e808ed7710082a13ad94fd4f1c6bae9f9d7a45f5ec14c08c69b6198c7ce7f92dddda8f70170491a80982109d00346635242853c4 OP_CHECKSIG",
            "desc": "pk(049dc1ab925fe7ac1632a309a5e808ed7710082a13ad94fd4f1c6bae9f9d7a45f5ec14c08c69b6198c7ce7f92dddda8f70170491a80982109d00346635242853c4)#em6vl0f0",
            "hex": "41049dc1ab925fe7ac1632a309a5e808ed7710082a13ad94fd4f1c6bae9f9d7a45f5ec14c08c69b6198c7ce7f92dddda8f70170491a80982109d00346635242853c4ac",
            "type": "pubkey"
          }
        }
      ],
      "hex": "01000000010000000000000000000000000000000000000000000000000000000000000000ffffffff0804ffff001d029a05ffffffff0100f2052a010000004341049dc1ab925fe7ac1632a309a5e808ed7710082a13ad94fd4f1c6bae9f9d7a45f5ec14c08c69b6198c7ce7f92dddda8f70170491a80982109d00346635242853c4ac00000000"
    }
  ]
}