{
  "hash": "00000000c4ab6fb1e089574673cda7ef0c322ef9b2f17ebca593215b55074bc7",
  "confirmations": 46735,
  "height": 6363,
  "version": 1,
  "versionHex": "00000001",
  "merkleroot": "08e10ef21d823d67e2e93705bb958d1206f5fd50e649deaf8592726c1be0a5e2",
  "time": 1236228468,
  "mediantime": 1236225823,
  "nonce": 2719344951,
  "bits": "1d00ffff",
  "difficulty": 1,
  "chainwork": "000000000000000000000000000000000000000000000000000018dc18dc18dc",
  "nTx": 1,
  "previousblockhash": "00000000c6f922e9348292a92f734e07a905e00da502772962d7458f3c2378d3",
  "nextblockhash": "000000004f27086ab1e6a6f04c4268a4658545cf2b9976d022fbd88514443f4e",
  "strippedsize": 216,
  "size": 216,
  "weight": 864,
  "tx": [
    {
      "txid": "08e10ef21d823d67e2e93705bb958d1206f5fd50e649deaf8592726c1be0a5e2",
      "hash": "08e10ef21d823d67e2e93705bb958d1206f5fd50e649deaf8592726c1be0a5e2",
      "version": 1,
      "size": 135,
      "vsize": 135,
      "weight": 540,
      "locktime": 0,
      "vin": [
        {
          "coinbase": "04ffff001d021901",
          "sequence": 4294967295
        }
      ],
      "vout": [
        {
          "value": 50.0,
          "n": 0,
          "scriptPubKey": {
            "asm": "049dee7bd14e3fc2d086611c10aad190b4c8e302901dc9c3a7dd57d4c4cd863bcc4225fdd63f4361d9f74365a0fa936029a14bd2a6f38b5c45e6a3ba9d719781fe OP_CHECKSIG",
            "desc": "pk(049dee7bd14e3fc2d086611c10aad190b4c8e302901dc9c3a7dd57d4c4cd863bcc4225fdd63f4361d9f74365a0fa936029a14bd2a6f38b5c45e6a3ba9d719781fe)#7v56tx4l",
            "hex": "41049dee7bd14e3fc2d086611c10aad190b4c8e302901dc9c3a7dd57d4c4cd863bcc4225fdd63f4361d9f74365a0fa936029a14bd2a6f38b5c45e6a3ba9d719781feac",
            "type": "pubkey"
          }
        }
      ],
      "hex": "01000000010000000000000000000000000000000000000000000000000000000000000000ffffffff0804ffff001d021901ffffffff0100f2052a010000004341049dee7bd14e3fc2d086611c10aad190b4c8e302901dc9c3a7dd57d4c4cd863bcc4225fdd63f4361d9f74365a0fa936029a14bd2a6f38b5c45e6a3ba9d719781feac00000000"
    }
  ]
}