{
  "hash": "00000000a43c17070ebec363cdcd028e957ff98dfedfa7c1ab9023450b879afb",
  "confirmations": 49928,
  "height": 3170,
  "version": 1,
  "versionHex": "00000001",
  "merkleroot": "f16f667ecafc45b7f935d8cf3951e4c020ceea4144a84132e5eda3bb30937501",
  "time": 1233880255,
  "mediantime": 1233876388,
  "nonce": 165427292,
  "bits": "1d00ffff",
  "difficulty": 1,
  "chainwork": "00000000000000000000000000000000000000000000000000000c630c630c63",
  "nTx": 1,
  "previousblockhash": "000000002d60abe7d9e7f40e34b718559c81ea130b09e808d2badfec8df56fb1",
  "nextblockhash": "00000000a288b596d38e26514d3b5824953338c17824a84d1380bfe6c1e1b0a8",
  "strippedsize": 216,
  "size": 216,
  "weight": 864,
  "tx": [
    {
      "txid": "f16f667ecafc45b7f935d8cf3951e4c020ceea4144a84132e5eda3bb30937501",
      "hash": "f16f667ecafc45b7f935d8cf3951e4c020ceea4144a84132e5eda3bb30937501",
      "version": 1,
      "size": 135,
      "vsize": 135,
      "weight": 540,
      "locktime": 0,
      "vin": [
        {
          "coinbase": "04ffff001d02e207",
          "sequence": 4294967295
        }
      ],
      "vout": [
        {
          "value": 50.0,
          "n": 0,
          "scriptPubKey": {
            "asm": "0436611197704ca30c6b34f55470e409014256f257ba7c3e363d311fa48143966556bdaa5e04858f7e36f91f576170bbd14fe52384d80bb24ccb833e7308ff27f3 OP_CHECKSIG",
            "desc": "pk(0436611197704ca30c6b34f55470e409014256f257ba7c3e363d311fa48143966556bdaa5e04858f7e36f91f576170bbd14fe52384d80bb24ccb833e7308ff27f3)#a40xa6g7",
            "hex": "410436611197704ca30c6b34f55470e409014256f257ba7c3e363d311fa48143966556bdaa5e04858f7e36f91f576170bbd14fe52384d80bb24ccb833e7308ff27f3ac",
            "type": "pubkey"
          }
        }
      ],
      "hex": "01000000010000000000000000000000000000000000000000000000000000000000000000ffffffff0804ffff001d02e207ffffffff0100f2052a0100000043410436611197704ca30c6b34f55470e409014256f257ba7c3e363d311fa48143966556bdaa5e04858f7e36f91f576170bbd14fe52384d80bb24ccb833e7308ff27f3ac00000000"
    }
  ]
}