{
  "hash": "0000000072a7160a7f11dfa4e1906f44fbd4cd11527a8d4553a77022808c3ce9",
  "confirmations": 50444,
  "height": 2654,
  "version": 1,
  "versionHex": "00000001",
  "merkleroot": "084e2775866f82485d01fad5f9dcdff9a2e88dae1b9ea55148ae617d6a00127e",
  "time": 1233530640,
  "mediantime": 1233526817,
  "nonce": 7509061,
  "bits": "1d00ffff",
  "difficulty": 1,
  "chainwork": "00000000000000000000000000000000000000000000000000000a5f0a5f0a5f",
  "nTx": 1,
  "previousblockhash": "00000000a3621a4520dbf44e5d406ac70c4c5c3002dc14b5fc6cd5768b5fd9c5",
  "nextblockhash": "00000000c0a9a3069cb1445b36f1afad1e491688aeeb15eebff44e8b0529a6f8",
  "strippedsize": 215,
  "size": 215,
  "weight": 860,
  "tx": [
    {
      "txid": "084e2775866f82485d01fad5f9dcdff9a2e88dae1b9ea55148ae617d6a00127e",
      "hash": "084e2775866f82485d01fad5f9dcdff9a2e88dae1b9ea55148ae617d6a00127e",
      "version": 1,
      "size": 134,
      "vsize": 134,
      "weight": 536,
      "locktime": 0,
      "vin": [
        {
          "coinbase": "04ffff001d0172",
          "sequence": 4294967295
        }
      ],
      "vout": [
        {
          "value": 50.0,
          "n": 0,
          "scriptPubKey": {
            "asm": "0456612ddd450b62ffcd659e78f55a6c297babceb1d84435f3d452e7e5a4f77e0cb9005b02393f8570780e348350b5c875dea0d4bcd089b367d62a1819f5cd302d OP_CHECKSIG",
            "desc": "pk(0456612ddd450b62ffcd659e78f55a6c297babceb1d84435f3d452e7e5a4f77e0cb9005b02393f8570780e348350b5c875dea0d4bcd089b367d62a1819f5cd302d)#nvgcqe0j",
            "hex": "410456612ddd450b62ffcd659e78f55a6c297babceb1d84435f3d452e7e5a4f77e0cb9005b02393f8570780e348350b5c875dea0d4bcd089b367d62a1819f5cd302dac",
            "type": "pubkey"
          }
        }
      ],
      "hex": "01000000010000000000000000000000000000000000000000000000000000000000000000ffffffff0704ffff001d0172ffffffff0100f2052a0100000043410456612ddd450b62ffcd659e78f55a6c297babceb1d84435f3d452e7e5a4f77e0cb9005b02393f8570780e348350b5c875dea0d4bcd089b367d62a1819f5cd302dac00000000"
    }
  ]
}