{
  "hash": "000000006eeb5d7c42df514952b7d0967e9e9715920e1203f5af7fe5413379ea",
  "confirmations": 50927,
  "height": 2171,
  "version": 1,
  "versionHex": "00000001",
  "merkleroot": "9bd181fbc86e4ad8ac52d5986779ec2be960402a4770508aeac02e74d19799d1",
  "time": 1233190781,
  "mediantime": 1233185499,
  "nonce": 1727844902,
  "bits": "1d00ffff",
  "difficulty": 1,
  "chainwork": "0000000000000000000000000000000000000000000000000000087c087c087c",
  "nTx": 1,
  "previousblockhash": "00000000c5c4c42dfef8001bee355aa6f94fc865eeae3d4c880316e55a8d7f88",
  "nextblockhash": "00000000370dde69574594d54c8881a95f42884b389bb1c373374cff00c1f5eb",
  "strippedsize": 216,
  "size": 216,
  "weight": 864,
  "tx": [
    {
      "txid": "9bd181fbc86e4ad8ac52d5986779ec2be960402a4770508aeac02e74d19799d1",
      "hash": "9bd181fbc86e4ad8ac52d5986779ec2be960402a4770508aeac02e74d19799d1",
      "version": 1,
      "size": 135,
      "vsize": 135,
      "weight": 540,
      "locktime": 0,
      "vin": [
        {
          "coinbase": "04ffff001d02e400",
          "sequence": 4294967295
        }
      ],
      "vout": [
        {
          "value": 50.0,
          "n": 0,
          "scriptPubKey": {
            "asm": "04fc015d8de57eb0573d9ce00066ccaf99762f49829a3aca8ea64435f79f355faed9f3bf533e272df4574622a5df9fc92b1fab1e14f4e045188657b54384da1864 OP_CHECKSIG",
            "desc": "pk(04fc015d8de57eb0573d9ce00066ccaf99762f49829a3aca8ea64435f79f355faed9f3bf533e272df4574622a5df9fc92b1fab1e14f4e045188657b54384da1864)#3c6apnw0",
            "hex": "4104fc015d8de57eb0573d9ce00066ccaf99762f49829a3aca8ea64435f79f355faed9f3bf533e272df4574622a5df9fc92b1fab1e14f4e045188657b54384da1864ac",
            "type": "pubkey"
          }
        }
      ],
      "hex": "01000000010000000000000000000000000000000000000000000000000000000000000000ffffffff0804ffff001d02e400ffffffff0100f2052a01000000434104fc015d8de57eb0573d9ce00066ccaf99762f49829a3aca8ea64435f79f355faed9f3bf533e272df4574622a5df9fc92b1fab1e14f4e045188657b54384da1864ac00000000"
    }
  ]
}