{
  "hash": "00000000ad2153c0d4e27a6de15c204a3bd790a4c239e234b5b689795598d6ea",
  "confirmations": 49447,
  "height": 3651,
  "version": 1,
  "versionHex": "00000001",
  "merkleroot": "16d35c2cc739b2f44915b89c940a0f04dead9afec463b37b8e7603d72e1e6031",
  "time": 1234203989,
  "mediantime": 1234201024,
  "nonce": 322167549,
  "bits": "1d00ffff",
  "difficulty": 1,
  "chainwork": "00000000000000000000000000000000000000000000000000000e440e440e44",
  "nTx": 1,
  "previousblockhash": "00000000c749e9a485d741a64f1684454e39524961b4f548cdbe77fc28634bef",
  "nextblockhash": "00000000f2c6077f28bf62372d84492b111795213ac32713bc91e6a72d7b7fd6",
  "strippedsize": 215,
  "size": 215,
  "weight": 860,
  "tx": [
    {
      "txid": "16d35c2cc739b2f44915b89c940a0f04dead9afec463b37b8e7603d72e1e6031",
      "hash": "16d35c2cc739b2f44915b89c940a0f04dead9afec463b37b8e7603d72e1e6031",
      "version": 1,
      "size": 134,
      "vsize": 134,
      "weight": 536,
      "locktime": 0,
      "vin": [
        {
          "coinbase": "04ffff001d0126",
          "sequence": 4294967295
        }
      ],
      "vout": [
        {
          "value": 50.0,
          "n": 0,
          "scriptPubKey": {
            "asm": "04f8193cd358fe801bb86fdee8b0451b568a69ed5afa57279f1432e32e47de6128eb0bb5f59e593aa2b3a461321cedc1601d0272b0a5ecca78b8fba848a20146cb OP_CHECKSIG",
            "desc": "pk(04f8193cd358fe801bb86fdee8b0451b568a69ed5afa57279f1432e32e47de6128eb0bb5f59e593aa2b3a461321cedc1601d0272b0a5ecca78b8fba848a20146cb)#3cy8fsdr",
            "hex": "4104f8193cd358fe801bb86fdee8b0451b568a69ed5afa57279f1432e32e47de6128eb0bb5f59e593aa2b3a461321cedc1601d0272b0a5ecca78b8fba848a20146cbac",
            "type": "pubkey"
          }
        }
      ],
      "hex": "01000000010000000000000000000000000000000000000000000000000000000000000000ffffffff0704ffff001d0126ffffffff0100f2052a01000000434104f8193cd358fe801bb86fdee8b0451b568a69ed5afa57279f1432e32e47de6128eb0bb5f59e593aa2b3a461321cedc1601d0272b0a5ecca78b8fba848a20146cbac00000000"
    }
  ]
}