{
  "hash": "00000000fd2c5d1d81693ff9c30987f42c4b4d9e62de13009075c11f05b6bdb9",
  "confirmations": 43440,
  "height": 9658,
  "version": 1,
  "versionHex": "00000001",
  "merkleroot": "79eda05d18bcf30d914372ac8e809eff2dc31a63331f2746da4b3793ba0437b1",
  "time": 1238746026,
  "mediantime": 1238743789,
  "nonce": 2786753590,
  "bits": "1d00ffff",
  "difficulty": 1,
  "chainwork": "000000000000000000000000000000000000000000000000000025bb25bb25bb",
  "nTx": 1,
  "previousblockhash": "00000000fea351a9fe1a3dcd4e8e7899856ebc7f66b60998ff780f67fdadb9ab",
  "nextblockhash": "00000000c949a1cd4ef194f11ec32fc5f5166a94038b9c85598cbb94e9adc0d7",
  "strippedsize": 216,
  "size": 216,
  "weight": 864,
  "tx": [
    {
      "txid": "79eda05d18bcf30d914372ac8e809eff2dc31a63331f2746da4b3793ba0437b1",
      "hash": "79eda05d18bcf30d914372ac8e809eff2dc31a63331f2746da4b3793ba0437b1",
      "version": 1,
      "size": 135,
      "vsize": 135,
      "weight": 540,
      "locktime": 0,
      "vin": [
        {
          "coinbase": "04ffff001d02cb07",
          "sequence": 4294967295
        }
      ],
      "vout": [
        {
          "value": 50.0,
          "n": 0,
          "scriptPubKey": {
            "asm": "048ba4c9825e9f53b4dc659e579ad348e2a64f757d36ee19d4fb7bbae79c6829f4659fc06f7ead480d1b05892d58f25f2a58fd0d3e8dbb15c9cb5ef74f3f8393e8 OP_CHECKSIG",
            "desc": "pk(048ba4c9825e9f53b4dc659e579ad348e2a64f757d36ee19d4fb7bbae79c6829f4659fc06f7ead480d1b05892d58f25f2a58fd0d3e8dbb15c9cb5ef74f3f8393e8)#q7slfcaj",
            "hex": "41048ba4c9825e9f53b4dc659e579ad348e2a64f757d36ee19d4fb7bbae79c6829f4659fc06f7ead480d1b05892d58f25f2a58fd0d3e8dbb15c9cb5ef74f3f8393e8ac",
            "type": "pubkey"
          }
        }
      ],
      "hex": "01000000010000000000000000000000000000000000000000000000000000000000000000ffffffff0804ffff001d02cb07ffffffff0100f2052a010000004341048ba4c9825e9f53b4dc659e579ad348e2a64f757d36ee19d4fb7bbae79c6829f4659fc06f7ead480d1b05892d58f25f2a58fd0d3e8dbb15c9cb5ef74f3f8393e8ac00000000"
    }
  ]
}