{
  "hash": "0000000026c7079d0d3839cc1071227ae16a55ee2c52a2360bdd39c0774f0ee0",
  "confirmations": 51317,
  "height": 1781,
  "version": 1,
  "versionHex": "00000001",
  "merkleroot": "b9dda9b54e397403adac04d6a3185d9cac8e3dbb4185dda3346b0c9913b1a73f",
  "time": 1232888375,
  "mediantime": 1232886407,
  "nonce": 2408049954,
  "bits": "1d00ffff",
  "difficulty": 1,
  "chainwork": "000000000000000000000000000000000000000000000000000006f606f606f6",
  "nTx": 1,
  "previousblockhash": "00000000ab798ba558d898672adf688356cd75fde67f5a02342b196ba915fcc3",
  "nextblockhash": "000000003fe5373a8e99ba134df067f55f44cfdd29904fb71b6d86f69c209a0a",
  "strippedsize": 216,
  "size": 216,
  "weight": 864,
  "tx": [
    {
      "txid": "b9dda9b54e397403adac04d6a3185d9cac8e3dbb4185dda3346b0c9913b1a73f",
      "hash": "b9dda9b54e397403adac04d6a3185d9cac8e3dbb4185dda3346b0c9913b1a73f",
      "version": 1,
      "size": 135,
      "vsize": 135,
      "weight": 540,
      "locktime": 0,
      "vin": [
        {
          "coinbase": "04ffff001d02c103",
          "sequence": 4294967295
        }
      ],
      "vout": [
        {
          "value": 50.0,
          "n": 0,
          "scriptPubKey": {
            "asm": "044a666422733f9efe9545ca1aa2705fbc861b176e741ff2940e9bdf851448ff4bfaa29a5289b5b59d55b77fd0af2682b316dac26244ba6de7d4b396ffb235cbb9 OP_CHECKSIG",
            "desc": "pk(044a666422733f9efe9545ca1aa2705fbc861b176e741ff2940e9bdf851448ff4bfaa29a5289b5b59d55b77fd0af2682b316dac26244ba6de7d4b396ffb235cbb9)#ha3s6hnu",
            "hex": "41044a666422733f9efe9545ca1aa2705fbc861b176e741ff2940e9bdf851448ff4bfaa29a5289b5b59d55b77fd0af2682b316dac26244ba6de7d4b396ffb235cbb9ac",
            "type": "pubkey"
          }
        }
      ],
      "hex": "01000000010000000000000000000000000000000000000000000000000000000000000000ffffffff0804ffff001d02c103ffffffff0100f2052a010000004341044a666422733f9efe9545ca1aa2705fbc861b176e741ff2940e9bdf851448ff4bfaa29a5289b5b59d55b77fd0af2682b316dac26244ba6de7d4b396ffb235cbb9ac00000000"
    }
  ]
}