{
  "hash": "000000001cc02184e0e7d46bd04d36916b9193cc676bb0377f836e56dd354d23",
  "confirmations": 43281,
  "height": 9817,
  "version": 1,
  "versionHex": "00000001",
  "merkleroot": "e80da37aa7d77eb4e3f785a10b4d2fb3faa7aca579958284ab0b463db9231267",
  "time": 1238867160,
  "mediantime": 1238862092,
  "nonce": 152252109,
  "bits": "1d00ffff",
  "difficulty": 1,
  "chainwork": "0000000000000000000000000000000000000000000000000000265a265a265a",
  "nTx": 1,
  "previousblockhash": "000000004bdaff9104c05a421be7dcaff6d2a818711f11d20f73d8c55f3cd372",
  "nextblockhash": "000000008947233a63940abf57629522f5c9bce91fbe4e26f1dca3ade627173c",
  "strippedsize": 215,
  "size": 215,
  "weight": 860,
  "tx": [
    {
      "txid": "e80da37aa7d77eb4e3f785a10b4d2fb3faa7aca579958284ab0b463db9231267",
      "hash": "e80da37aa7d77eb4e3f785a10b4d2fb3faa7aca579958284ab0b463db9231267",
      "version": 1,
      "size": 134,
      "vsize": 134,
      "weight": 536,
      "locktime": 0,
      "vin": [
        {
          "coinbase": "04ffff001d0113",
          "sequence": 4294967295
        }
      ],
      "vout": [
        {
          "value": 50.0,
          "n": 0,
          "scriptPubKey": {
            "asm": "0440a92645e99f102df3eb157aa4a813ef90562b2836eef19d16b7a6d3695a607dec6cbc2a838c265d856eae2255eed65b341c85ea2d3b21fc4c71d7cc0c85fcbd OP_CHECKSIG",
            "desc": "pk(0440a92645e99f102df3eb157aa4a813ef90562b2836eef19d16b7a6d3695a607dec6cbc2a838c265d856eae2255eed65b341c85ea2d3b21fc4c71d7cc0c85fcbd)#5smll5he",
            "hex": "410440a92645e99f102df3eb157aa4a813ef90562b2836eef19d16b7a6d3695a607dec6cbc2a838c265d856eae2255eed65b341c85ea2d3b21fc4c71d7cc0c85fcbdac",
            "type": "pubkey"
          }
        }
      ],
      "hex": "01000000010000000000000000000000000000000000000000000000000000000000000000ffffffff0704ffff001d0113ffffffff0100f2052a0100000043410440a92645e99f102df3eb157aa4a813ef90562b2836eef19d16b7a6d3695a607dec6cbc2a838c265d856eae2255eed65b341c85ea2d3b21fc4c71d7cc0c85fcbdac00000000"
    }
  ]
}