{
  "hash": "0000000038a3627bbc86c1fff0cd34c115ad81289d6588ccd035bd573c0e4a59",
  "confirmations": 51673,
  "height": 1425,
  "version": 1,
  "versionHex": "00000001",
  "merkleroot": "78a27889b621a44e09ab4607dc49431584846650a928f282bc6b8204504a2c3c",
  "time": 1232735260,
  "mediantime": 1232733269,
  "nonce": 38033462,
  "bits": "1d00ffff",
  "difficulty": 1,
  "chainwork": "0000000000000000000000000000000000000000000000000000059205920592",
  "nTx": 1,
  "previousblockhash": "00000000eeef8d291c715483e9e0016056a68d5d692ee12db6973bbdd42c8fa7",
  "nextblockhash": "00000000f486da4e0156bd6f2bc2c1238339aab925c6eb3095af32d61b955b58",
  "strippedsize": 216,
  "size": 216,
  "weight": 864,
  "tx": [
    {
      "txid": "78a27889b621a44e09ab4607dc49431584846650a928f282bc6b8204504a2c3c",
      "hash": "78a27889b621a44e09ab4607dc49431584846650a928f282bc6b8204504a2c3c",
      "version": 1,
      "size": 135,
      "vsize": 135,
      "weight": 540,
      "locktime": 0,
      "vin": [
        {
          "coinbase": "04ffff001d020b03",
          "sequence": 4294967295
        }
      ],
      "vout": [
        {
          "value": 50.0,
          "n": 0,
          "scriptPubKey": {
            "asm": "04319a42f07f328c5bf5aad30673460fa94fbe79ed31d94706d2927365b3dcde02d6d66dde9937575ffe1e2ff7f26a76d5bd51127f73389350804b641ba34529f1 OP_CHECKSIG",
            "desc": "pk(04319a42f07f328c5bf5aad30673460fa94fbe79ed31d94706d2927365b3dcde02d6d66dde9937575ffe1e2ff7f26a76d5bd51127f73389350804b641ba34529f1)#z5redexz",
            "hex": "4104319a42f07f328c5bf5aad30673460fa94fbe79ed31d94706d2927365b3dcde02d6d66dde9937575ffe1e2ff7f26a76d5bd51127f73389350804b641ba34529f1ac",
            "type": "pubkey"
          }
        }
      ],
      "hex": "01000000010000000000000000000000000000000000000000000000000000000000000000ffffffff0804ffff001d020b03ffffffff0100f2052a01000000434104319a42f07f328c5bf5aad30673460fa94fbe79ed31d94706d2927365b3dcde02d6d66dde9937575ffe1e2ff7f26a76d5bd51127f73389350804b641ba34529f1ac00000000"
    }
  ]
}