{
  "hash": "00000000e564ea9b6c2bb13079ce8011b631aae8bb984a7f05c761140b9280ce",
  "confirmations": 49556,
  "height": 3542,
  "version": 1,
  "versionHex": "00000001",
  "merkleroot": "28d1b721bf1931ad403670d8f140d8e9fc94eaaa401affa6a728c238ceec9f47",
  "time": 1234130741,
  "mediantime": 1234126921,
  "nonce": 1234253824,
  "bits": "1d00ffff",
  "difficulty": 1,
  "chainwork": "00000000000000000000000000000000000000000000000000000dd70dd70dd7",
  "nTx": 1,
  "previousblockhash": "000000002744f7879f5c746f05cdca2bf82a36b85853257cadc86df28fadda97",
  "nextblockhash": "0000000004fffd10a7bc971ddebb56a21fe322d6776db779dbcd323c555e4f4d",
  "strippedsize": 216,
  "size": 216,
  "weight": 864,
  "tx": [
    {
      "txid": "28d1b721bf1931ad403670d8f140d8e9fc94eaaa401affa6a728c238ceec9f47",
      "hash": "28d1b721bf1931ad403670d8f140d8e9fc94eaaa401affa6a728c238ceec9f47",
      "version": 1,
      "size": 135,
      "vsize": 135,
      "weight": 540,
      "locktime": 0,
      "vin": [
        {
          "coinbase": "04ffff001d02e807",
          "sequence": 4294967295
        }
      ],
      "vout": [
        {
          "value": 50.0,
          "n": 0,
          "scriptPubKey": {
            "asm": "0421a2f66d6e9a9aad1cfc5641de1c7da23af83c956e737bfac3a040254fcb80e60975b1e2bc178df9aef2c56cd3447a048819e04e7a9c3bec4aae31ed5b1c0d58 OP_CHECKSIG",
            "desc": "pk(0421a2f66d6e9a9aad1cfc5641de1c7da23af83c956e737bfac3a040254fcb80e60975b1e2bc178df9aef2c56cd3447a048819e04e7a9c3bec4aae31ed5b1c0d58)#e9sreuna",
            "hex": "410421a2f66d6e9a9aad1cfc5641de1c7da23af83c956e737bfac3a040254fcb80e60975b1e2bc178df9aef2c56cd3447a048819e04e7a9c3bec4aae31ed5b1c0d58ac",
            "type": "pubkey"
          }
        }
      ],
      "hex": "01000000010000000000000000000000000000000000000000000000000000000000000000ffffffff0804ffff001d02e807ffffffff0100f2052a0100000043410421a2f66d6e9a9aad1cfc5641de1c7da23af83c956e737bfac3a040254fcb80e60975b1e2bc178df9aef2c56cd3447a048819e04e7a9c3bec4aae31ed5b1c0d58ac00000000"
    }
  ]
}