{
  "hash": "0000000060e2f2653b379638732f7624de0e7c66f604ed2e62de6033f007a2d3",
  "confirmations": 52055,
  "height": 1043,
  "version": 1,
  "versionHex": "00000001",
  "merkleroot": "ee8095a0bb7eaec4e5915d39a398d7b3bfeb154dcd976ffd677c9889c47b3b4c",
  "time": 1232381185,
  "mediantime": 1232377504,
  "nonce": 42279964,
  "bits": "1d00ffff",
  "difficulty": 1,
  "chainwork": "0000000000000000000000000000000000000000000000000000041404140414",
  "nTx": 1,
  "previousblockhash": "0000000062775645272a8d8785577c8f237fd83a07de643c775d7f9f27de48ee",
  "nextblockhash": "000000003f5df7ac48dcf4ca000cc976aa2c73ff0e6b4286d265ff5793a8a3f6",
  "strippedsize": 216,
  "size": 216,
  "weight": 864,
  "tx": [
    {
      "txid": "ee8095a0bb7eaec4e5915d39a398d7b3bfeb154dcd976ffd677c9889c47b3b4c",
      "hash": "ee8095a0bb7eaec4e5915d39a398d7b3bfeb154dcd976ffd677c9889c47b3b4c",
      "version": 1,
      "size": 135,
      "vsize": 135,
      "weight": 540,
      "locktime": 0,
      "vin": [
        {
          "coinbase": "04ffff001d02ea05",
          "sequence": 4294967295
        }
      ],
      "vout": [
        {
          "value": 50.0,
          "n": 0,
          "scriptPubKey": {
            "asm": "04ca1f0ae4aa5a4a6e8ca90d2bb2d229a6929491061555dc8cb587b9fa981c49777a743dbd7879e7b9bdaf9fd272d3ff365d406cffc58d7831e629128ef5a6d761 OP_CHECKSIG",
            "desc": "pk(04ca1f0ae4aa5a4a6e8ca90d2bb2d229a6929491061555dc8cb587b9fa981c49777a743dbd7879e7b9bdaf9fd272d3ff365d406cffc58d7831e629128ef5a6d761)#p6xuyuxs",
            "hex": "4104ca1f0ae4aa5a4a6e8ca90d2bb2d229a6929491061555dc8cb587b9fa981c49777a743dbd7879e7b9bdaf9fd272d3ff365d406cffc58d7831e629128ef5a6d761ac",
            "type": "pubkey"
          }
        }
      ],
      "hex": "01000000010000000000000000000000000000000000000000000000000000000000000000ffffffff0804ffff001d02ea05ffffffff0100f2052a01000000434104ca1f0ae4aa5a4a6e8ca90d2bb2d229a6929491061555dc8cb587b9fa981c49777a743dbd7879e7b9bdaf9fd272d3ff365d406cffc58d7831e629128ef5a6d761ac00000000"
    }
  ]
}