{
  "hash": "000000007dad2b881db96066bd40c89aa1a79af74cc3f9cd4c9cc5273bb2cd40",
  "confirmations": 51676,
  "height": 1422,
  "version": 1,
  "versionHex": "00000001",
  "merkleroot": "35ee0ef1d40ec7217d5a9431eda5d263eaa90f14085a98e01c040780134b4b21",
  "time": 1232734008,
  "mediantime": 1232732444,
  "nonce": 3702616854,
  "bits": "1d00ffff",
  "difficulty": 1,
  "chainwork": "0000000000000000000000000000000000000000000000000000058f058f058f",
  "nTx": 1,
  "previousblockhash": "00000000cf780d7418f2b1ef9a413ad8d8d85d9b2830240911bd488fc9af1464",
  "nextblockhash": "0000000042d2a80affc893529225ee3af68f8272ce66a988e2b746574eaddb6b",
  "strippedsize": 215,
  "size": 215,
  "weight": 860,
  "tx": [
    {
      "txid": "35ee0ef1d40ec7217d5a9431eda5d263eaa90f14085a98e01c040780134b4b21",
      "hash": "35ee0ef1d40ec7217d5a9431eda5d263eaa90f14085a98e01c040780134b4b21",
      "version": 1,
      "size": 134,
      "vsize": 134,
      "weight": 536,
      "locktime": 0,
      "vin": [
        {
          "coinbase": "04ffff001d0157",
          "sequence": 4294967295
        }
      ],
      "vout": [
        {
          "value": 50.0,
          "n": 0,
          "scriptPubKey": {
            "asm": "04cf427fcfea5263a41cbd08b9a9577999298f71b3285edba32867a0e067752dd6debfe6f74cbc4d78ff64607039e3cac0a8a4048e9fe7a6fd4a5794d1e3412728 OP_CHECKSIG",
            "desc": "pk(04cf427fcfea5263a41cbd08b9a9577999298f71b3285edba32867a0e067752dd6debfe6f74cbc4d78ff64607039e3cac0a8a4048e9fe7a6fd4a5794d1e3412728)#3va2ytde",
            "hex": "4104cf427fcfea5263a41cbd08b9a9577999298f71b3285edba32867a0e067752dd6debfe6f74cbc4d78ff64607039e3cac0a8a4048e9fe7a6fd4a5794d1e3412728ac",
            "type": "pubkey"
          }
        }
      ],
      "hex": "01000000010000000000000000000000000000000000000000000000000000000000000000ffffffff0704ffff001d0157ffffffff0100f2052a01000000434104cf427fcfea5263a41cbd08b9a9577999298f71b3285edba32867a0e067752dd6debfe6f74cbc4d78ff64607039e3cac0a8a4048e9fe7a6fd4a5794d1e3412728ac00000000"
    }
  ]
}