{
  "hash": "00000000a7571070a1f69887523caeda62228f27159fc2e6fbedd6faef6772ec",
  "confirmations": 46975,
  "height": 6123,
  "version": 1,
  "versionHex": "00000001",
  "merkleroot": "b03224d1d59ba72c339e718b77cb5e9428317d7c7d7b0e6abad3d3fc99d6a834",
  "time": 1236027483,
  "mediantime": 1236023389,
  "nonce": 23322974,
  "bits": "1d00ffff",
  "difficulty": 1,
  "chainwork": "000000000000000000000000000000000000000000000000000017ec17ec17ec",
  "nTx": 1,
  "previousblockhash": "00000000d3345fcfc24da95c516c19b95b7aa4e6482e755b2ba271210002cec8",
  "nextblockhash": "000000002b7f6e55aab66535f20baac45b59440da8f82733eb5dfdb814988cb2",
  "strippedsize": 216,
  "size": 216,
  "weight": 864,
  "tx": [
    {
      "txid": "b03224d1d59ba72c339e718b77cb5e9428317d7c7d7b0e6abad3d3fc99d6a834",
      "hash": "b03224d1d59ba72c339e718b77cb5e9428317d7c7d7b0e6abad3d3fc99d6a834",
      "version": 1,
      "size": 135,
      "vsize": 135,
      "weight": 540,
      "locktime": 0,
      "vin": [
        {
          "coinbase": "04ffff001d02cf00",
          "sequence": 4294967295
        }
      ],
      "vout": [
        {
          "value": 50.0,
          "n": 0,
          "scriptPubKey": {
            "asm": "04dd0a3b1004ca9255a7cef05205e1e104800bc11f70f5415eb10fa23e9777f3ddcdf767b85ed4251f47b4eef27513ae21f9ab1d43fa80276f2b186afb4220dda6 OP_CHECKSIG",
            "desc": "pk(04dd0a3b1004ca9255a7cef05205e1e104800bc11f70f5415eb10fa23e9777f3ddcdf767b85ed4251f47b4eef27513ae21f9ab1d43fa80276f2b186afb4220dda6)#fdujdtm3",
            "hex": "4104dd0a3b1004ca9255a7cef05205e1e104800bc11f70f5415eb10fa23e9777f3ddcdf767b85ed4251f47b4eef27513ae21f9ab1d43fa80276f2b186afb4220dda6ac",
            "type": "pubkey"
          }
        }
      ],
      "hex": "01000000010000000000000000000000000000000000000000000000000000000000000000ffffffff0804ffff001d02cf00ffffffff0100f2052a01000000434104dd0a3b1004ca9255a7cef05205e1e104800bc11f70f5415eb10fa23e9777f3ddcdf767b85ed4251f47b4eef27513ae21f9ab1d43fa80276f2b186afb4220dda6ac00000000"
    }
  ]
}