{
  "hash": "00000000b7760d4446a926b260bdb7adbde19f6aeb2ac84a460d52ed791034f8",
  "confirmations": 51967,
  "height": 1131,
  "version": 1,
  "versionHex": "00000001",
  "merkleroot": "b9d077feede4c1290901296f87a7c26db9393e7f12a6d2b50c4da4b2179d92f4",
  "time": 1232444353,
  "mediantime": 1232439599,
  "nonce": 227654164,
  "bits": "1d00ffff",
  "difficulty": 1,
  "chainwork": "0000000000000000000000000000000000000000000000000000046c046c046c",
  "nTx": 1,
  "previousblockhash": "000000001785e36e4037082e8b803f5fe274eaa161f9c96c41da5af4b44e1fa0",
  "nextblockhash": "00000000d02f8a6f352ba7a55b6ba9d32a346eaca6ecfd8d14534d7a2399bf08",
  "strippedsize": 216,
  "size": 216,
  "weight": 864,
  "tx": [
    {
      "txid": "b9d077feede4c1290901296f87a7c26db9393e7f12a6d2b50c4da4b2179d92f4",
      "hash": "b9d077feede4c1290901296f87a7c26db9393e7f12a6d2b50c4da4b2179d92f4",
      "version": 1,
      "size": 135,
      "vsize": 135,
      "weight": 540,
      "locktime": 0,
      "vin": [
        {
          "coinbase": "04ffff001d027707",
          "sequence": 4294967295
        }
      ],
      "vout": [
        {
          "value": 50.0,
          "n": 0,
          "scriptPubKey": {
            "asm": "0401f7972f451ce461f4cd8ddd630d08717f95bc1c7a4d5370d5f0e376d222564e6537b65c60efe47797ff96fb6f5fb7fcb22ccc1ee7985d31aa4c7f55864d1fb7 OP_CHECKSIG",
            "desc": "pk(0401f7972f451ce461f4cd8ddd630d08717f95bc1c7a4d5370d5f0e376d222564e6537b65c60efe47797ff96fb6f5fb7fcb22ccc1ee7985d31aa4c7f55864d1fb7)#4swcpexe",
            "hex": "410401f7972f451ce461f4cd8ddd630d08717f95bc1c7a4d5370d5f0e376d222564e6537b65c60efe47797ff96fb6f5fb7fcb22ccc1ee7985d31aa4c7f55864d1fb7ac",
            "type": "pubkey"
          }
        }
      ],
      "hex": "01000000010000000000000000000000000000000000000000000000000000000000000000ffffffff0804ffff001d027707ffffffff0100f2052a0100000043410401f7972f451ce461f4cd8ddd630d08717f95bc1c7a4d5370d5f0e376d222564e6537b65c60efe47797ff96fb6f5fb7fcb22ccc1ee7985d31aa4c7f55864d1fb7ac00000000"
    }
  ]
}