{
  "hash": "000000008699bd59e1bfa04e989745eaf231d3e63fd4792dced3a6b0f4b7cea7",
  "confirmations": 49780,
  "height": 3318,
  "version": 1,
  "versionHex": "00000001",
  "merkleroot": "fe037b68877ee1d616bdc0c356f703f70698385df498bb80361458bcbea0c3a3",
  "time": 1233980753,
  "mediantime": 1233977534,
  "nonce": 188629164,
  "bits": "1d00ffff",
  "difficulty": 1,
  "chainwork": "00000000000000000000000000000000000000000000000000000cf70cf70cf7",
  "nTx": 1,
  "previousblockhash": "0000000017b70297ac871d4abe618a3e5f1aa65910cc650ecacf25c7903222bc",
  "nextblockhash": "00000000519517e8d7c408a7a819a990bd639ff70ebbd23d27d8c8eb355303e7",
  "strippedsize": 215,
  "size": 215,
  "weight": 860,
  "tx": [
    {
      "txid": "fe037b68877ee1d616bdc0c356f703f70698385df498bb80361458bcbea0c3a3",
      "hash": "fe037b68877ee1d616bdc0c356f703f70698385df498bb80361458bcbea0c3a3",
      "version": 1,
      "size": 134,
      "vsize": 134,
      "weight": 536,
      "locktime": 0,
      "vin": [
        {
          "coinbase": "04ffff001d0104",
          "sequence": 4294967295
        }
      ],
      "vout": [
        {
          "value": 50.0,
          "n": 0,
          "scriptPubKey": {
            "asm": "04ab13e93922307d6c0146205a0401fc6dc72c500eca36f2a471525d85e232cf1de386462dcfc38b68ee6c3ffc15f54c7599450f688ae511bea544405638835d72 OP_CHECKSIG",
            "desc": "pk(04ab13e93922307d6c0146205a0401fc6dc72c500eca36f2a471525d85e232cf1de386462dcfc38b68ee6c3ffc15f54c7599450f688ae511bea544405638835d72)#zahde8c6",
            "hex": "4104ab13e93922307d6c0146205a0401fc6dc72c500eca36f2a471525d85e232cf1de386462dcfc38b68ee6c3ffc15f54c7599450f688ae511bea544405638835d72ac",
            "type": "pubkey"
          }
        }
      ],
      "hex": "01000000010000000000000000000000000000000000000000000000000000000000000000ffffffff0704ffff001d0104ffffffff0100f2052a01000000434104ab13e93922307d6c0146205a0401fc6dc72c500eca36f2a471525d85e232cf1de386462dcfc38b68ee6c3ffc15f54c7599450f688ae511bea544405638835d72ac00000000"
    }
  ]
}