{
  "hash": "000000003fb1302addd7e4e2a041b834c601bcce32b06cec44ffda08bdc6807f",
  "confirmations": 43836,
  "height": 9262,
  "version": 1,
  "versionHex": "00000001",
  "merkleroot": "3974c465dfba501f40ad6324a2ce9d9b6ac00800426aefa38f5ed30c9fbf34c4",
  "time": 1238443030,
  "mediantime": 1238439140,
  "nonce": 697398300,
  "bits": "1d00ffff",
  "difficulty": 1,
  "chainwork": "0000000000000000000000000000000000000000000000000000242f242f242f",
  "nTx": 1,
  "previousblockhash": "000000004cec09af8306b1ae5cc4367f860e9c959629f21e5154791eb5832040",
  "nextblockhash": "000000005d1fc8c58989690282c5e913a216323d5c2f87bfb2085fcc6061c753",
  "strippedsize": 216,
  "size": 216,
  "weight": 864,
  "tx": [
    {
      "txid": "3974c465dfba501f40ad6324a2ce9d9b6ac00800426aefa38f5ed30c9fbf34c4",
      "hash": "3974c465dfba501f40ad6324a2ce9d9b6ac00800426aefa38f5ed30c9fbf34c4",
      "version": 1,
      "size": 135,
      "vsize": 135,
      "weight": 540,
      "locktime": 0,
      "vin": [
        {
          "coinbase": "04ffff001d021201",
          "sequence": 4294967295
        }
      ],
      "vout": [
        {
          "value": 50.0,
          "n": 0,
          "scriptPubKey": {
            "asm": "04bf5a03c4a6bf71930f99a581f07b82d6b585dde12fee4d68b6e902f71da9dd0cc3e8688fa480146eeb725af8a2e6da1d63ca4ff64e48b7d7a8a0d0196aef89a5 OP_CHECKSIG",
            "desc": "pk(04bf5a03c4a6bf71930f99a581f07b82d6b585dde12fee4d68b6e902f71da9dd0cc3e8688fa480146eeb725af8a2e6da1d63ca4ff64e48b7d7a8a0d0196aef89a5)#hzjfckmw",
            "hex": "4104bf5a03c4a6bf71930f99a581f07b82d6b585dde12fee4d68b6e902f71da9dd0cc3e8688fa480146eeb725af8a2e6da1d63ca4ff64e48b7d7a8a0d0196aef89a5ac",
            "type": "pubkey"
          }
        }
      ],
      "hex": "01000000010000000000000000000000000000000000000000000000000000000000000000ffffffff0804ffff001d021201ffffffff0100f2052a01000000434104bf5a03c4a6bf71930f99a581f07b82d6b585dde12fee4d68b6e902f71da9dd0cc3e8688fa480146eeb725af8a2e6da1d63ca4ff64e48b7d7a8a0d0196aef89a5ac00000000"
    }
  ]
}