{
  "hash": "000000002868c874224fd349976e95aede2c8a5819d417e485ecfbc5db89b056",
  "confirmations": 44596,
  "height": 8502,
  "version": 1,
  "versionHex": "00000001",
  "merkleroot": "926a3d6c263aca8abb6e7b0b411704a5d6e5070e189268a50b653dab9690bea6",
  "time": 1237874197,
  "mediantime": 1237870514,
  "nonce": 2948401409,
  "bits": "1d00ffff",
  "difficulty": 1,
  "chainwork": "0000000000000000000000000000000000000000000000000000213721372137",
  "nTx": 1,
  "previousblockhash": "00000000e6608bf9e2f018f1534a0e9ba82ba0c40eefebc144312fcd8e3e0abd",
  "nextblockhash": "00000000881b47f9fd9724712169f8902e0f8ed27a554fc0f7f627fdc7572a36",
  "strippedsize": 216,
  "size": 216,
  "weight": 864,
  "tx": [
    {
      "txid": "926a3d6c263aca8abb6e7b0b411704a5d6e5070e189268a50b653dab9690bea6",
      "hash": "926a3d6c263aca8abb6e7b0b411704a5d6e5070e189268a50b653dab9690bea6",
      "version": 1,
      "size": 135,
      "vsize": 135,
      "weight": 540,
      "locktime": 0,
      "vin": [
        {
          "coinbase": "04ffff001d02d807",
          "sequence": 4294967295
        }
      ],
      "vout": [
        {
          "value": 50.0,
          "n": 0,
          "scriptPubKey": {
            "asm": "0465e69516386f2ca8988ea85e13a4488a7cfec638600f2319d398ce8eb05022d8b51fba9022ab54b20634224e1428e89eeb8b2931e10a788a90a85faf2b948ad3 OP_CHECKSIG",
            "desc": "pk(0465e69516386f2ca8988ea85e13a4488a7cfec638600f2319d398ce8eb05022d8b51fba9022ab54b20634224e1428e89eeb8b2931e10a788a90a85faf2b948ad3)#f36x8w5l",
            "hex": "410465e69516386f2ca8988ea85e13a4488a7cfec638600f2319d398ce8eb05022d8b51fba9022ab54b20634224e1428e89eeb8b2931e10a788a90a85faf2b948ad3ac",
            "type": "pubkey"
          }
        }
      ],
      "hex": "01000000010000000000000000000000000000000000000000000000000000000000000000ffffffff0804ffff001d02d807ffffffff0100f2052a0100000043410465e69516386f2ca8988ea85e13a4488a7cfec638600f2319d398ce8eb05022d8b51fba9022ab54b20634224e1428e89eeb8b2931e10a788a90a85faf2b948ad3ac00000000"
    }
  ]
}