{
  "hash": "000000000de025f43ce2d03f6c2d7cc406f8956ea273e10fc6266def7ffe308a",
  "confirmations": 48202,
  "height": 4896,
  "version": 1,
  "versionHex": "00000001",
  "merkleroot": "b5ccb4e504feffba875f816555d8da2af55d51684012de21370c5ac16615611e",
  "time": 1235068585,
  "mediantime": 1235064423,
  "nonce": 815837740,
  "bits": "1d00ffff",
  "difficulty": 1,
  "chainwork": "0000000000000000000000000000000000000000000000000000132113211321",
  "nTx": 1,
  "previousblockhash": "0000000018a71b22d226ea6e365546a3f13dd1c617fece6e9fa1438e243f4799",
  "nextblockhash": "00000000aedf74a7cad22401e6776a99bb24c88480c10252f21845ae8d609695",
  "strippedsize": 216,
  "size": 216,
  "weight": 864,
  "tx": [
    {
      "txid": "b5ccb4e504feffba875f816555d8da2af55d51684012de21370c5ac16615611e",
      "hash": "b5ccb4e504feffba875f816555d8da2af55d51684012de21370c5ac16615611e",
      "version": 1,
      "size": 135,
      "vsize": 135,
      "weight": 540,
      "locktime": 0,
      "vin": [
        {
          "coinbase": "04ffff001d029605",
          "sequence": 4294967295
        }
      ],
      "vout": [
        {
          "value": 50.0,
          "n": 0,
          "scriptPubKey": {
            "asm": "047b89430e49aa2c28f280a8f7e85fec1de3808e6ad75a9bdb83aad627663d9dd13b54f182d85fa4d37c99e462daedf666a90114c061b4619ad52b7d6198b9642f OP_CHECKSIG",
            "desc": "pk(047b89430e49aa2c28f280a8f7e85fec1de3808e6ad75a9bdb83aad627663d9dd13b54f182d85fa4d37c99e462daedf666a90114c061b4619ad52b7d6198b9642f)#7azsurwq",
            "hex": "41047b89430e49aa2c28f280a8f7e85fec1de3808e6ad75a9bdb83aad627663d9dd13b54f182d85fa4d37c99e462daedf666a90114c061b4619ad52b7d6198b9642fac",
            "type": "pubkey"
          }
        }
      ],
      "hex": "01000000010000000000000000000000000000000000000000000000000000000000000000ffffffff0804ffff001d029605ffffffff0100f2052a010000004341047b89430e49aa2c28f280a8f7e85fec1de3808e6ad75a9bdb83aad627663d9dd13b54f182d85fa4d37c99e462daedf666a90114c061b4619ad52b7d6198b9642fac00000000"
    }
  ]
}