{
  "hash": "00000000a66d01b8f6ad9769ce667488815102c78e056bfc94ae431109933631",
  "confirmations": 46540,
  "height": 6558,
  "version": 1,
  "versionHex": "00000001",
  "merkleroot": "5db0efd9cf19ddd6459f2885f979ea531548f7dfcb900d9e4b58ad4704ddf8f5",
  "time": 1236372425,
  "mediantime": 1236367404,
  "nonce": 2433979667,
  "bits": "1d00ffff",
  "difficulty": 1,
  "chainwork": "0000000000000000000000000000000000000000000000000000199f199f199f",
  "nTx": 1,
  "previousblockhash": "00000000b0cd5f70892b121097c1d34bec061ef951d0ff1effabb2bf33a2cd9a",
  "nextblockhash": "000000005fb2e00bae94eaa99f1715fd433f96dbb6714ce06f4b36250e898905",
  "strippedsize": 216,
  "size": 216,
  "weight": 864,
  "tx": [
    {
      "txid": "5db0efd9cf19ddd6459f2885f979ea531548f7dfcb900d9e4b58ad4704ddf8f5",
      "hash": "5db0efd9cf19ddd6459f2885f979ea531548f7dfcb900d9e4b58ad4704ddf8f5",
      "version": 1,
      "size": 135,
      "vsize": 135,
      "weight": 540,
      "locktime": 0,
      "vin": [
        {
          "coinbase": "04ffff001d028204",
          "sequence": 4294967295
        }
      ],
      "vout": [
        {
          "value": 50.0,
          "n": 0,
          "scriptPubKey": {
            "asm": "04275ccb5b8e369a3560426faf2495e9e974dfbd68270aa5e5ad29c6f6df3803bae2795a3dccf8f957f3a217d59561de9bfe7c6631eb00f148eb8ec201d1764029 OP_CHECKSIG",
            "desc": "pk(04275ccb5b8e369a3560426faf2495e9e974dfbd68270aa5e5ad29c6f6df3803bae2795a3dccf8f957f3a217d59561de9bfe7c6631eb00f148eb8ec201d1764029)#sq73zaux",
            "hex": "4104275ccb5b8e369a3560426faf2495e9e974dfbd68270aa5e5ad29c6f6df3803bae2795a3dccf8f957f3a217d59561de9bfe7c6631eb00f148eb8ec201d1764029ac",
            "type": "pubkey"
          }
        }
      ],
      "hex": "01000000010000000000000000000000000000000000000000000000000000000000000000ffffffff0804ffff001d028204ffffffff0100f2052a01000000434104275ccb5b8e369a3560426faf2495e9e974dfbd68270aa5e5ad29c6f6df3803bae2795a3dccf8f957f3a217d59561de9bfe7c6631eb00f148eb8ec201d1764029ac00000000"
    }
  ]
}