{
  "hash": "0000000067a97a2a37b8f190a17f0221e9c3f4fa824ddffdc2e205eae834c8d7",
  "confirmations": 51796,
  "height": 20,
  "version": 1,
  "versionHex": "00000001",
  "merkleroot": "ee1afca2d1130676503a6db5d6a77075b2bf71382cfdf99231f89717b5257b5b",
  "time": 1231565995,
  "mediantime": 1231562746,
  "nonce": 1901123894,
  "bits": "1d00ffff",
  "difficulty": 1,
  "chainwork": "0000000000000000000000000000000000000000000000000000001500150015",
  "nTx": 1,
  "previousblockhash": "00000000841cb802ca97cf20fb9470480cae9e5daa5d06b4a18ae2d5dd7f186f",
  "nextblockhash": "000000006f016342d1275be946166cff975c8b27542de70a7113ac6d1ef3294f",
  "strippedsize": 215,
  "size": 215,
  "weight": 860,
  "tx": [
    {
      "txid": "ee1afca2d1130676503a6db5d6a77075b2bf71382cfdf99231f89717b5257b5b",
      "hash": "ee1afca2d1130676503a6db5d6a77075b2bf71382cfdf99231f89717b5257b5b",
      "version": 1,
      "size": 134,
      "vsize": 134,
      "weight": 536,
      "locktime": 0,
      "vin": [
        {
          "coinbase": "04ffff001d0120",
          "sequence": 4294967295
        }
      ],
      "vout": [
        {
          "value": 50.0,
          "n": 0,
          "scriptPubKey": {
            "asm": "0408ab2f56361f83064e4ce51acc291fb57c2cbcdb1d6562f6278c43a1406b548fd6cefc11bcc29eb620d5861cb9ed69dc39f2422f54b06a8af4f78c8276cfdc6b OP_CHECKSIG",
            "desc": "pk(0408ab2f56361f83064e4ce51acc291fb57c2cbcdb1d6562f6278c43a1406b548fd6cefc11bcc29eb620d5861cb9ed69dc39f2422f54b06a8af4f78c8276cfdc6b)#wuuzxxyc",
            "hex": "410408ab2f56361f83064e4ce51acc291fb57c2cbcdb1d6562f6278c43a1406b548fd6cefc11bcc29eb620d5861cb9ed69dc39f2422f54b06a8af4f78c8276cfdc6bac",
            "type": "pubkey"
          }
        }
      ],
      "hex": "01000000010000000000000000000000000000000000000000000000000000000000000000ffffffff0704ffff001d0120ffffffff0100f2052a0100000043410408ab2f56361f83064e4ce51acc291fb57c2cbcdb1d6562f6278c43a1406b548fd6cefc11bcc29eb620d5861cb9ed69dc39f2422f54b06a8af4f78c8276cfdc6bac00000000"
    }
  ]
}