{
  "hash": "00000000851624ac180d0f9a3a177284acef027c12821b0905c8b5c2e50e4e34",
  "confirmations": 44629,
  "height": 8469,
  "version": 1,
  "versionHex": "00000001",
  "merkleroot": "d42dfb47b120bd8d0410c96d9ee564dad421854cec8b15b8c8ce9ba522d53215",
  "time": 1237845109,
  "mediantime": 1237840768,
  "nonce": 867950622,
  "bits": "1d00ffff",
  "difficulty": 1,
  "chainwork": "0000000000000000000000000000000000000000000000000000211621162116",
  "nTx": 1,
  "previousblockhash": "00000000c30fa668881fa6feac36d66ded25a322e0ddc3304d60472b41d4bedb",
  "nextblockhash": "00000000a1c399b788ce10f273b62831ba6ba63b799a3079aa2c886414f4bbb4",
  "strippedsize": 216,
  "size": 216,
  "weight": 864,
  "tx": [
    {
      "txid": "d42dfb47b120bd8d0410c96d9ee564dad421854cec8b15b8c8ce9ba522d53215",
      "hash": "d42dfb47b120bd8d0410c96d9ee564dad421854cec8b15b8c8ce9ba522d53215",
      "version": 1,
      "size": 135,
      "vsize": 135,
      "weight": 540,
      "locktime": 0,
      "vin": [
        {
          "coinbase": "04ffff001d022107",
          "sequence": 4294967295
        }
      ],
      "vout": [
        {
          "value": 50.0,
          "n": 0,
          "scriptPubKey": {
            "asm": "0470747eb0553183740e15dd0de4daa970a572e4d420855f5b66a9471a0b8ca1637653e7a4e37d0d89561af6a41d4173983a8c4bcb4c8355c81adc05cef308e357 OP_CHECKSIG",
            "desc": "pk(0470747eb0553183740e15dd0de4daa970a572e4d420855f5b66a9471a0b8ca1637653e7a4e37d0d89561af6a41d4173983a8c4bcb4c8355c81adc05cef308e357)#59hgw3pk",
            "hex": "410470747eb0553183740e15dd0de4daa970a572e4d420855f5b66a9471a0b8ca1637653e7a4e37d0d89561af6a41d4173983a8c4bcb4c8355c81adc05cef308e357ac",
            "type": "pubkey"
          }
        }
      ],
      "hex": "01000000010000000000000000000000000000000000000000000000000000000000000000ffffffff0804ffff001d022107ffffffff0100f2052a0100000043410470747eb0553183740e15dd0de4daa970a572e4d420855f5b66a9471a0b8ca1637653e7a4e37d0d89561af6a41d4173983a8c4bcb4c8355c81adc05cef308e357ac00000000"
    }
  ]
}