{
  "hash": "0000000051e427e6708a57d6e64565bb1dafe4d2c716ed5c1812f2adcd9c3826",
  "confirmations": 48703,
  "height": 4395,
  "version": 1,
  "versionHex": "00000001",
  "merkleroot": "4b6446ccfd777749fc481096f68201e785548f7f4dc55eb7aceb31a639df294e",
  "time": 1234707931,
  "mediantime": 1234704883,
  "nonce": 2818984990,
  "bits": "1d00ffff",
  "difficulty": 1,
  "chainwork": "0000000000000000000000000000000000000000000000000000112c112c112c",
  "nTx": 1,
  "previousblockhash": "000000009f94d4d4fd277f70b20f5294a9757a7f9620cd947923fa9384949220",
  "nextblockhash": "00000000856aa6a1092a95dce827025856f1e1a01dec076953f50b9cca182f64",
  "strippedsize": 216,
  "size": 216,
  "weight": 864,
  "tx": [
    {
      "txid": "4b6446ccfd777749fc481096f68201e785548f7f4dc55eb7aceb31a639df294e",
      "hash": "4b6446ccfd777749fc481096f68201e785548f7f4dc55eb7aceb31a639df294e",
      "version": 1,
      "size": 135,
      "vsize": 135,
      "weight": 540,
      "locktime": 0,
      "vin": [
        {
          "coinbase": "04ffff001d024801",
          "sequence": 4294967295
        }
      ],
      "vout": [
        {
          "value": 50.0,
          "n": 0,
          "scriptPubKey": {
            "asm": "04d048d9526875b0bc5df1652afbd9c0a0fcb3499e67d697c4a37f21bef65296246466c972c9af757b1e95726af254b655036f5f924caf398bde302aa9aba74818 OP_CHECKSIG",
            "desc": "pk(04d048d9526875b0bc5df1652afbd9c0a0fcb3499e67d697c4a37f21bef65296246466c972c9af757b1e95726af254b655036f5f924caf398bde302aa9aba74818)#crteyyp7",
            "hex": "4104d048d9526875b0bc5df1652afbd9c0a0fcb3499e67d697c4a37f21bef65296246466c972c9af757b1e95726af254b655036f5f924caf398bde302aa9aba74818ac",
            "type": "pubkey"
          }
        }
      ],
      "hex": "01000000010000000000000000000000000000000000000000000000000000000000000000ffffffff0804ffff001d024801ffffffff0100f2052a01000000434104d048d9526875b0bc5df1652afbd9c0a0fcb3499e67d697c4a37f21bef65296246466c972c9af757b1e95726af254b655036f5f924caf398bde302aa9aba74818ac00000000"
    }
  ]
}