{
  "hash": "00000000bb012e27be51fa0f564112682689c023690125d160d93da8cf1f18ff",
  "confirmations": 46463,
  "height": 6635,
  "version": 1,
  "versionHex": "00000001",
  "merkleroot": "930226f65d7823bdc67b9bec1075ef86feb532789c0135ea5991d8ec0f7ea74e",
  "time": 1236430918,
  "mediantime": 1236426440,
  "nonce": 238880523,
  "bits": "1d00ffff",
  "difficulty": 1,
  "chainwork": "000000000000000000000000000000000000000000000000000019ec19ec19ec",
  "nTx": 1,
  "previousblockhash": "00000000ad4de69521187e7030317d1ae7afec0a16ef85aee761e25cf376e3c6",
  "nextblockhash": "000000001a8ba6a0c8a7ffcd81b1611c3d383b1d8d4b58ff48053be236daa789",
  "strippedsize": 216,
  "size": 216,
  "weight": 864,
  "tx": [
    {
      "txid": "930226f65d7823bdc67b9bec1075ef86feb532789c0135ea5991d8ec0f7ea74e",
      "hash": "930226f65d7823bdc67b9bec1075ef86feb532789c0135ea5991d8ec0f7ea74e",
      "version": 1,
      "size": 135,
      "vsize": 135,
      "weight": 540,
      "locktime": 0,
      "vin": [
        {
          "coinbase": "04ffff001d02b50b",
          "sequence": 4294967295
        }
      ],
      "vout": [
        {
          "value": 50.0,
          "n": 0,
          "scriptPubKey": {
            "asm": "0421bbb4574f1cbfaea0afbc147f058387354d4a0998ac91c9ea4c1482c02fbe2d29ddbccb4a8f418837fea4ae6ae7c92abe62f4c92872dbd2a7afd988d29a4d67 OP_CHECKSIG",
            "desc": "pk(0421bbb4574f1cbfaea0afbc147f058387354d4a0998ac91c9ea4c1482c02fbe2d29ddbccb4a8f418837fea4ae6ae7c92abe62f4c92872dbd2a7afd988d29a4d67)#s2pqn6ev",
            "hex": "410421bbb4574f1cbfaea0afbc147f058387354d4a0998ac91c9ea4c1482c02fbe2d29ddbccb4a8f418837fea4ae6ae7c92abe62f4c92872dbd2a7afd988d29a4d67ac",
            "type": "pubkey"
          }
        }
      ],
      "hex": "01000000010000000000000000000000000000000000000000000000000000000000000000ffffffff0804ffff001d02b50bffffffff0100f2052a0100000043410421bbb4574f1cbfaea0afbc147f058387354d4a0998ac91c9ea4c1482c02fbe2d29ddbccb4a8f418837fea4ae6ae7c92abe62f4c92872dbd2a7afd988d29a4d67ac00000000"
    }
  ]
}