{
  "hash": "00000000cea67f5c847ab2ad693003deb9fe8044d179c1c60fd2b607d890d8c3",
  "confirmations": 44775,
  "height": 8323,
  "version": 1,
  "versionHex": "00000001",
  "merkleroot": "52b0c03fd4ecf3aca07d9347e36262a664f88ee0ccfbe8878a9b5839878fe373",
  "time": 1237746756,
  "mediantime": 1237741179,
  "nonce": 362415527,
  "bits": "1d00ffff",
  "difficulty": 1,
  "chainwork": "0000000000000000000000000000000000000000000000000000208420842084",
  "nTx": 1,
  "previousblockhash": "00000000395ea999e12411a0ba0c98c84010117b5fec5b3fa395a66114bb53f8",
  "nextblockhash": "000000008ba44b9d82ce27fd1303a589bde9e93ca4e01bea5e18a3848521fb89",
  "strippedsize": 216,
  "size": 216,
  "weight": 864,
  "tx": [
    {
      "txid": "52b0c03fd4ecf3aca07d9347e36262a664f88ee0ccfbe8878a9b5839878fe373",
      "hash": "52b0c03fd4ecf3aca07d9347e36262a664f88ee0ccfbe8878a9b5839878fe373",
      "version": 1,
      "size": 135,
      "vsize": 135,
      "weight": 540,
      "locktime": 0,
      "vin": [
        {
          "coinbase": "04ffff001d024b01",
          "sequence": 4294967295
        }
      ],
      "vout": [
        {
          "value": 50.0,
          "n": 0,
          "scriptPubKey": {
            "asm": "04938c7c89a8817b1b18c45525f8279da83ce800aa632d144acbc32c76145b6598ee3d08aed63dba30cb52ee54ba4004320a2d146f5e50474ab8215fba82300e5e OP_CHECKSIG",
            "desc": "pk(04938c7c89a8817b1b18c45525f8279da83ce800aa632d144acbc32c76145b6598ee3d08aed63dba30cb52ee54ba4004320a2d146f5e50474ab8215fba82300e5e)#vvh6ktf9",
            "hex": "4104938c7c89a8817b1b18c45525f8279da83ce800aa632d144acbc32c76145b6598ee3d08aed63dba30cb52ee54ba4004320a2d146f5e50474ab8215fba82300e5eac",
            "type": "pubkey"
          }
        }
      ],
      "hex": "01000000010000000000000000000000000000000000000000000000000000000000000000ffffffff0804ffff001d024b01ffffffff0100f2052a01000000434104938c7c89a8817b1b18c45525f8279da83ce800aa632d144acbc32c76145b6598ee3d08aed63dba30cb52ee54ba4004320a2d146f5e50474ab8215fba82300e5eac00000000"
    }
  ]
}