{
  "hash": "00000000e9653d89013ce7e2051c794af796f366083b0832f1d55b91647866df",
  "confirmations": 45964,
  "height": 7134,
  "version": 1,
  "versionHex": "00000001",
  "merkleroot": "9a93ed1c6de49233d2c9ff9fb56376c69833d599b5232c4502cdb8ebda81e99e",
  "time": 1236819598,
  "mediantime": 1236816971,
  "nonce": 64591948,
  "bits": "1d00ffff",
  "difficulty": 1,
  "chainwork": "00000000000000000000000000000000000000000000000000001bdf1bdf1bdf",
  "nTx": 1,
  "previousblockhash": "0000000070398cf8b7e35d5708b43beefdf2324dd9fa59cf3b596cc1d6ea94b2",
  "nextblockhash": "00000000427e8425bb4358f01c712a09cc9bf815933fb5d9f6c1a4d24d0b88f5",
  "strippedsize": 216,
  "size": 216,
  "weight": 864,
  "tx": [
    {
      "txid": "9a93ed1c6de49233d2c9ff9fb56376c69833d599b5232c4502cdb8ebda81e99e",
      "hash": "9a93ed1c6de49233d2c9ff9fb56376c69833d599b5232c4502cdb8ebda81e99e",
      "version": 1,
      "size": 135,
      "vsize": 135,
      "weight": 540,
      "locktime": 0,
      "vin": [
        {
          "coinbase": "04ffff001d027a01",
          "sequence": 4294967295
        }
      ],
      "vout": [
        {
          "value": 50.0,
          "n": 0,
          "scriptPubKey": {
            "asm": "04feb7a97b0d2d45e108e8b8c8c6a6f043592a05d12782695f2e6d47206fbd6d0589b5aacbd46832a8aecba3c735f7d435ad8421386cba32cce52ccebc0e5cf6ca OP_CHECKSIG",
            "desc": "pk(04feb7a97b0d2d45e108e8b8c8c6a6f043592a05d12782695f2e6d47206fbd6d0589b5aacbd46832a8aecba3c735f7d435ad8421386cba32cce52ccebc0e5cf6ca)#w9syt8wp",
            "hex": "4104feb7a97b0d2d45e108e8b8c8c6a6f043592a05d12782695f2e6d47206fbd6d0589b5aacbd46832a8aecba3c735f7d435ad8421386cba32cce52ccebc0e5cf6caac",
            "type": "pubkey"
          }
        }
      ],
      "hex": "01000000010000000000000000000000000000000000000000000000000000000000000000ffffffff0804ffff001d027a01ffffffff0100f2052a01000000434104feb7a97b0d2d45e108e8b8c8c6a6f043592a05d12782695f2e6d47206fbd6d0589b5aacbd46832a8aecba3c735f7d435ad8421386cba32cce52ccebc0e5cf6caac00000000"
    }
  ]
}