{
  "hash": "000000000ca0574736201b901abdb4f9dd2b9a6515e3e9a93fcea95670f38dba",
  "confirmations": 45804,
  "height": 7294,
  "version": 1,
  "versionHex": "00000001",
  "merkleroot": "58eed104020001316d4f09cee6ca7eeb5db48b242421c3e5543c70020bf69be7",
  "time": 1236944258,
  "mediantime": 1236940529,
  "nonce": 736533001,
  "bits": "1d00ffff",
  "difficulty": 1,
  "chainwork": "00000000000000000000000000000000000000000000000000001c7f1c7f1c7f",
  "nTx": 1,
  "previousblockhash": "00000000c65b458c612958d1ada83f086cc1c0bd9a75dc15630857e842609432",
  "nextblockhash": "00000000927db1eace275472e2c24d3ef7975758069dbac93f3e452bff4075f8",
  "strippedsize": 216,
  "size": 216,
  "weight": 864,
  "tx": [
    {
      "txid": "58eed104020001316d4f09cee6ca7eeb5db48b242421c3e5543c70020bf69be7",
      "hash": "58eed104020001316d4f09cee6ca7eeb5db48b242421c3e5543c70020bf69be7",
      "version": 1,
      "size": 135,
      "vsize": 135,
      "weight": 540,
      "locktime": 0,
      "vin": [
        {
          "coinbase": "04ffff001d026507",
          "sequence": 4294967295
        }
      ],
      "vout": [
        {
          "value": 50.0,
          "n": 0,
          "scriptPubKey": {
            "asm": "04ce0cd7f1faa4e2bad9bc3668cc33dc1c71a758d67e7d051d89d2728ab748dc2465c60992dbd84a1156924cd01c08f52265d333a0a7eff014b78ff57a7caf8210 OP_CHECKSIG",
            "desc": "pk(04ce0cd7f1faa4e2bad9bc3668cc33dc1c71a758d67e7d051d89d2728ab748dc2465c60992dbd84a1156924cd01c08f52265d333a0a7eff014b78ff57a7caf8210)#jfr43sau",
            "hex": "4104ce0cd7f1faa4e2bad9bc3668cc33dc1c71a758d67e7d051d89d2728ab748dc2465c60992dbd84a1156924cd01c08f52265d333a0a7eff014b78ff57a7caf8210ac",
            "type": "pubkey"
          }
        }
      ],
      "hex": "01000000010000000000000000000000000000000000000000000000000000000000000000ffffffff0804ffff001d026507ffffffff0100f2052a01000000434104ce0cd7f1faa4e2bad9bc3668cc33dc1c71a758d67e7d051d89d2728ab748dc2465c60992dbd84a1156924cd01c08f52265d333a0a7eff014b78ff57a7caf8210ac00000000"
    }
  ]
}