{
  "hash": "00000000fce4189472e39f5ddb9d08d00b9f4004e2d1e962b93e0e4bdc4e3d7b",
  "confirmations": 50762,
  "height": 2336,
  "version": 1,
  "versionHex": "00000001",
  "merkleroot": "2fa75b44386b06ab1a2b15d238940a587fa7df7ce053a206db4880244ecddf4e",
  "time": 1233306504,
  "mediantime": 1233302359,
  "nonce": 3684160554,
  "bits": "1d00ffff",
  "difficulty": 1,
  "chainwork": "0000000000000000000000000000000000000000000000000000092109210921",
  "nTx": 1,
  "previousblockhash": "00000000f63adf93c21fde4b58eeb6e1b605e763b542641209563c6f53f18db2",
  "nextblockhash": "00000000621d217b83af87dcb7814936aa60bebaa1af67f6434944bf78a0fbf0",
  "strippedsize": 216,
  "size": 216,
  "weight": 864,
  "tx": [
    {
      "txid": "2fa75b44386b06ab1a2b15d238940a587fa7df7ce053a206db4880244ecddf4e",
      "hash": "2fa75b44386b06ab1a2b15d238940a587fa7df7ce053a206db4880244ecddf4e",
      "version": 1,
      "size": 135,
      "vsize": 135,
      "weight": 540,
      "locktime": 0,
      "vin": [
        {
          "coinbase": "04ffff001d026802",
          "sequence": 4294967295
        }
      ],
      "vout": [
        {
          "value": 50.0,
          "n": 0,
          "scriptPubKey": {
            "asm": "0409590f45cab51f80c679b18bc25b56d67e535df344d0996cf5868ed420665ec1079ce19fa8ee5c6fabde0483e9b297ce5a886ec5d61f3c88a5e8532951654367 OP_CHECKSIG",
            "desc": "pk(0409590f45cab51f80c679b18bc25b56d67e535df344d0996cf5868ed420665ec1079ce19fa8ee5c6fabde0483e9b297ce5a886ec5d61f3c88a5e8532951654367)#w7h88w5e",
            "hex": "410409590f45cab51f80c679b18bc25b56d67e535df344d0996cf5868ed420665ec1079ce19fa8ee5c6fabde0483e9b297ce5a886ec5d61f3c88a5e8532951654367ac",
            "type": "pubkey"
          }
        }
      ],
      "hex": "01000000010000000000000000000000000000000000000000000000000000000000000000ffffffff0804ffff001d026802ffffffff0100f2052a0100000043410409590f45cab51f80c679b18bc25b56d67e535df344d0996cf5868ed420665ec1079ce19fa8ee5c6fabde0483e9b297ce5a886ec5d61f3c88a5e8532951654367ac00000000"
    }
  ]
}