{
  "hash": "00000000f4dc946a7d82cb1686970b4300d118c132513794426fffaa6e1e7623",
  "confirmations": 51452,
  "height": 1646,
  "version": 1,
  "versionHex": "00000001",
  "merkleroot": "e6609713a6f18b63c54d335fdf96a1435eceb95e577c50de0b15361cdbaa9690",
  "time": 1232831854,
  "mediantime": 1232829764,
  "nonce": 1813804841,
  "bits": "1d00ffff",
  "difficulty": 1,
  "chainwork": "0000000000000000000000000000000000000000000000000000066f066f066f",
  "nTx": 1,
  "previousblockhash": "00000000804859b11bfb634ab5922c38aae5b07e1ef221c9f9ea1a0336141a76",
  "nextblockhash": "000000007e40d9bf46f137a213b51e51e11f40ed4e038f8b1c4837b569d2318c",
  "strippedsize": 216,
  "size": 216,
  "weight": 864,
  "tx": [
    {
      "txid": "e6609713a6f18b63c54d335fdf96a1435eceb95e577c50de0b15361cdbaa9690",
      "hash": "e6609713a6f18b63c54d335fdf96a1435eceb95e577c50de0b15361cdbaa9690",
      "version": 1,
      "size": 135,
      "vsize": 135,
      "weight": 540,
      "locktime": 0,
      "vin": [
        {
          "coinbase": "04ffff001d029a02",
          "sequence": 4294967295
        }
      ],
      "vout": [
        {
          "value": 50.0,
          "n": 0,
          "scriptPubKey": {
            "asm": "04c487f40b0daa5bdea989077b56bf23c923655f0f0f4e41c663f4c98a2ab6b2ce6eeb3ddf79374c5349a50e307a94967faf595838af9b68e12f8060206400b52c OP_CHECKSIG",
            "desc": "pk(04c487f40b0daa5bdea989077b56bf23c923655f0f0f4e41c663f4c98a2ab6b2ce6eeb3ddf79374c5349a50e307a94967faf595838af9b68e12f8060206400b52c)#l0rea8nr",
            "hex": "4104c487f40b0daa5bdea989077b56bf23c923655f0f0f4e41c663f4c98a2ab6b2ce6eeb3ddf79374c5349a50e307a94967faf595838af9b68e12f8060206400b52cac",
            "type": "pubkey"
          }
        }
      ],
      "hex": "01000000010000000000000000000000000000000000000000000000000000000000000000ffffffff0804ffff001d029a02ffffffff0100f2052a01000000434104c487f40b0daa5bdea989077b56bf23c923655f0f0f4e41c663f4c98a2ab6b2ce6eeb3ddf79374c5349a50e307a94967faf595838af9b68e12f8060206400b52cac00000000"
    }
  ]
}