{
  "hash": "0000000059eed08422d7b33151fb4fe2a9fbe2f5d7d1f46cf34413aa1f774225",
  "confirmations": 44350,
  "height": 8748,
  "version": 1,
  "versionHex": "00000001",
  "merkleroot": "06e0332612e114612b83d2a1eae61fa0dd6e16214413f394a6a4608ea1c719f5",
  "time": 1238058573,
  "mediantime": 1238053765,
  "nonce": 994123826,
  "bits": "1d00ffff",
  "difficulty": 1,
  "chainwork": "0000000000000000000000000000000000000000000000000000222d222d222d",
  "nTx": 1,
  "previousblockhash": "000000003c8c9523444786c2cace831aeacabb5d1302d20c68a5f6835b8aaf24",
  "nextblockhash": "00000000df15291171af022473586e7b54cf9f7939b2ddd7b2d3b41a45fdbda3",
  "strippedsize": 216,
  "size": 216,
  "weight": 864,
  "tx": [
    {
      "txid": "06e0332612e114612b83d2a1eae61fa0dd6e16214413f394a6a4608ea1c719f5",
      "hash": "06e0332612e114612b83d2a1eae61fa0dd6e16214413f394a6a4608ea1c719f5",
      "version": 1,
      "size": 135,
      "vsize": 135,
      "weight": 540,
      "locktime": 0,
      "vin": [
        {
          "coinbase": "04ffff001d02bd01",
          "sequence": 4294967295
        }
      ],
      "vout": [
        {
          "value": 50.0,
          "n": 0,
          "scriptPubKey": {
            "asm": "0453b5a593ad3a609d9dec8cf044604583c50dcdaca46a098ea23f291f78125d23fb9582804e3d577ff75c8af3a3992d484576212a90615470ad7ffa35def91e56 OP_CHECKSIG",
            "desc": "pk(0453b5a593ad3a609d9dec8cf044604583c50dcdaca46a098ea23f291f78125d23fb9582804e3d577ff75c8af3a3992d484576212a90615470ad7ffa35def91e56)#cgjzkjw8",
            "hex": "410453b5a593ad3a609d9dec8cf044604583c50dcdaca46a098ea23f291f78125d23fb9582804e3d577ff75c8af3a3992d484576212a90615470ad7ffa35def91e56ac",
            "type": "pubkey"
          }
        }
      ],
      "hex": "01000000010000000000000000000000000000000000000000000000000000000000000000ffffffff0804ffff001d02bd01ffffffff0100f2052a0100000043410453b5a593ad3a609d9dec8cf044604583c50dcdaca46a098ea23f291f78125d23fb9582804e3d577ff75c8af3a3992d484576212a90615470ad7ffa35def91e56ac00000000"
    }
  ]
}