{
  "hash": "000000007687ab163b55f4c5e8ea7dc2579d8bf89653574e5a1a17c1987c3108",
  "confirmations": 45171,
  "height": 7927,
  "version": 1,
  "versionHex": "00000001",
  "merkleroot": "15a47892af0927e281f280ff01dba6671b5a08788d637a66b9bd69aef44ce79b",
  "time": 1237413491,
  "mediantime": 1237409243,
  "nonce": 1645677569,
  "bits": "1d00ffff",
  "difficulty": 1,
  "chainwork": "00000000000000000000000000000000000000000000000000001ef81ef81ef8",
  "nTx": 1,
  "previousblockhash": "0000000094a2d84cf38014d6daefa13165aa5f5d737c51f99982c5b41824dfbd",
  "nextblockhash": "000000008521df4a69ad1c9414d2ed701256b52568a8078b44466e6f01ddc56b",
  "strippedsize": 216,
  "size": 216,
  "weight": 864,
  "tx": [
    {
      "txid": "15a47892af0927e281f280ff01dba6671b5a08788d637a66b9bd69aef44ce79b",
      "hash": "15a47892af0927e281f280ff01dba6671b5a08788d637a66b9bd69aef44ce79b",
      "version": 1,
      "size": 135,
      "vsize": 135,
      "weight": 540,
      "locktime": 0,
      "vin": [
        {
          "coinbase": "04ffff001d020a08",
          "sequence": 4294967295
        }
      ],
      "vout": [
        {
          "value": 50.0,
          "n": 0,
          "scriptPubKey": {
            "asm": "049f9c77a1f14c8d17bb55c30c7c5ee5628feea162dbe8a2e6fa495d9900f3278fa1ba2990891cfd0b80c11aa398ff0ba1bfdafd894dd4f1b4249b1b816d5cf0a4 OP_CHECKSIG",
            "desc": "pk(049f9c77a1f14c8d17bb55c30c7c5ee5628feea162dbe8a2e6fa495d9900f3278fa1ba2990891cfd0b80c11aa398ff0ba1bfdafd894dd4f1b4249b1b816d5cf0a4)#ekldrm3a",
            "hex": "41049f9c77a1f14c8d17bb55c30c7c5ee5628feea162dbe8a2e6fa495d9900f3278fa1ba2990891cfd0b80c11aa398ff0ba1bfdafd894dd4f1b4249b1b816d5cf0a4ac",
            "type": "pubkey"
          }
        }
      ],
      "hex": "01000000010000000000000000000000000000000000000000000000000000000000000000ffffffff0804ffff001d020a08ffffffff0100f2052a010000004341049f9c77a1f14c8d17bb55c30c7c5ee5628feea162dbe8a2e6fa495d9900f3278fa1ba2990891cfd0b80c11aa398ff0ba1bfdafd894dd4f1b4249b1b816d5cf0a4ac00000000"
    }
  ]
}