{
  "hash": "000000000fdc44b234de1c64e328ee140979491c556c019604d1e05139163535",
  "confirmations": 46349,
  "height": 6749,
  "version": 1,
  "versionHex": "00000001",
  "merkleroot": "bf3a01ea5f270742c8914141ecf8aad88743ed6ad95c96464bc442da555d988f",
  "time": 1236518990,
  "mediantime": 1236514681,
  "nonce": 1721741570,
  "bits": "1d00ffff",
  "difficulty": 1,
  "chainwork": "00000000000000000000000000000000000000000000000000001a5e1a5e1a5e",
  "nTx": 1,
  "previousblockhash": "00000000a4b2ad5591c6de2f743742935cfde0adb4b590de1520abe7c0cefd68",
  "nextblockhash": "0000000033db164200689cb657cfd86a66ee6ff38679c388517948fef79b7423",
  "strippedsize": 216,
  "size": 216,
  "weight": 864,
  "tx": [
    {
      "txid": "bf3a01ea5f270742c8914141ecf8aad88743ed6ad95c96464bc442da555d988f",
      "hash": "bf3a01ea5f270742c8914141ecf8aad88743ed6ad95c96464bc442da555d988f",
      "version": 1,
      "size": 135,
      "vsize": 135,
      "weight": 540,
      "locktime": 0,
      "vin": [
        {
          "coinbase": "04ffff001d021708",
          "sequence": 4294967295
        }
      ],
      "vout": [
        {
          "value": 50.0,
          "n": 0,
          "scriptPubKey": {
            "asm": "0445d32960747ab68013890a4b709bd3345d01764c518f772ed3cfd7bdb458ba9c2c744743a1b08489644a2481690cb559d7dd8d3896829925a48bd4fa1a699986 OP_CHECKSIG",
            "desc": "pk(0445d32960747ab68013890a4b709bd3345d01764c518f772ed3cfd7bdb458ba9c2c744743a1b08489644a2481690cb559d7dd8d3896829925a48bd4fa1a699986)#k6ahdm62",
            "hex": "410445d32960747ab68013890a4b709bd3345d01764c518f772ed3cfd7bdb458ba9c2c744743a1b08489644a2481690cb559d7dd8d3896829925a48bd4fa1a699986ac",
            "type": "pubkey"
          }
        }
      ],
      "hex": "01000000010000000000000000000000000000000000000000000000000000000000000000ffffffff0804ffff001d021708ffffffff0100f2052a0100000043410445d32960747ab68013890a4b709bd3345d01764c518f772ed3cfd7bdb458ba9c2c744743a1b08489644a2481690cb559d7dd8d3896829925a48bd4fa1a699986ac00000000"
    }
  ]
}