{
  "hash": "000000005f919738051b00a5d428f0c8074629dc634e1947f28dbeab8bdd2ba2",
  "confirmations": 52163,
  "height": 466,
  "version": 1,
  "versionHex": "00000001",
  "merkleroot": "86d0a48fc8aa2e15e761f41193f4be24fccb7527744ef70c2dcf23e7115cc413",
  "time": 1231945725,
  "mediantime": 1231943876,
  "nonce": 4185047602,
  "bits": "1d00ffff",
  "difficulty": 1,
  "chainwork": "000000000000000000000000000000000000000000000000000001d301d301d3",
  "nTx": 1,
  "previousblockhash": "00000000d210725e12df9669ee4d5e9bfff357dc08670264f733d47ce4cce9db",
  "nextblockhash": "000000007e09159f8c9a2f19a3c859f3ced1e0b2f83d85b9f63670c67a627b20",
  "strippedsize": 216,
  "size": 216,
  "weight": 864,
  "tx": [
    {
      "txid": "86d0a48fc8aa2e15e761f41193f4be24fccb7527744ef70c2dcf23e7115cc413",
      "hash": "86d0a48fc8aa2e15e761f41193f4be24fccb7527744ef70c2dcf23e7115cc413",
      "version": 1,
      "size": 135,
      "vsize": 135,
      "weight": 540,
      "locktime": 0,
      "vin": [
        {
          "coinbase": "04ffff001d02de03",
          "sequence": 4294967295
        }
      ],
      "vout": [
        {
          "value": 50.0,
          "n": 0,
          "scriptPubKey": {
            "asm": "04dcf588b5c06703279898a9be17e489e8898d6177316031e5f029d0133a83cc4b5b2117454560481e166d080e22791f26e8b201199e80716720f9586a9d916fa2 OP_CHECKSIG",
            "desc": "pk(04dcf588b5c06703279898a9be17e489e8898d6177316031e5f029d0133a83cc4b5b2117454560481e166d080e22791f26e8b201199e80716720f9586a9d916fa2)#jkdrfhg3",
            "hex": "4104dcf588b5c06703279898a9be17e489e8898d6177316031e5f029d0133a83cc4b5b2117454560481e166d080e22791f26e8b201199e80716720f9586a9d916fa2ac",
            "type": "pubkey"
          }
        }
      ],
      "hex": "01000000010000000000000000000000000000000000000000000000000000000000000000ffffffff0804ffff001d02de03ffffffff0100f2052a01000000434104dcf588b5c06703279898a9be17e489e8898d6177316031e5f029d0133a83cc4b5b2117454560481e166d080e22791f26e8b201199e80716720f9586a9d916fa2ac00000000"
    }
  ]
}