{
  "hash": "00000000de774ee17f88201bd17e4a1cfd028dfc01a13d39729d02afebfa73d8",
  "confirmations": 46810,
  "height": 6288,
  "version": 1,
  "versionHex": "00000001",
  "merkleroot": "dd88ae73af0efac997e9a58379d5841e9a654aad98bc0dbc27b2f1fa835e6649",
  "time": 1236161226,
  "mediantime": 1236156578,
  "nonce": 2422115331,
  "bits": "1d00ffff",
  "difficulty": 1,
  "chainwork": "0000000000000000000000000000000000000000000000000000189118911891",
  "nTx": 1,
  "previousblockhash": "00000000a56ca23f24f2abe452198a521e40bde5fe35f094119a0d922511fc5c",
  "nextblockhash": "00000000b19e3b536ba8550b0be093ebe29d5e1f313cd50999951fe9974e76a8",
  "strippedsize": 216,
  "size": 216,
  "weight": 864,
  "tx": [
    {
      "txid": "dd88ae73af0efac997e9a58379d5841e9a654aad98bc0dbc27b2f1fa835e6649",
      "hash": "dd88ae73af0efac997e9a58379d5841e9a654aad98bc0dbc27b2f1fa835e6649",
      "version": 1,
      "size": 135,
      "vsize": 135,
      "weight": 540,
      "locktime": 0,
      "vin": [
        {
          "coinbase": "04ffff001d02240a",
          "sequence": 4294967295
        }
      ],
      "vout": [
        {
          "value": 50.0,
          "n": 0,
          "scriptPubKey": {
            "asm": "0450df828e7d4db33ee45162d90207b8ff2e38a006c719c9fbbb8ed87cdf41f9f6bc45e2e78bd87feeecf6dcec9b476be7960a49e37b5b6b40feffec61e3203d07 OP_CHECKSIG",
            "desc": "pk(0450df828e7d4db33ee45162d90207b8ff2e38a006c719c9fbbb8ed87cdf41f9f6bc45e2e78bd87feeecf6dcec9b476be7960a49e37b5b6b40feffec61e3203d07)#azwk8cj2",
            "hex": "410450df828e7d4db33ee45162d90207b8ff2e38a006c719c9fbbb8ed87cdf41f9f6bc45e2e78bd87feeecf6dcec9b476be7960a49e37b5b6b40feffec61e3203d07ac",
            "type": "pubkey"
          }
        }
      ],
      "hex": "01000000010000000000000000000000000000000000000000000000000000000000000000ffffffff0804ffff001d02240affffffff0100f2052a0100000043410450df828e7d4db33ee45162d90207b8ff2e38a006c719c9fbbb8ed87cdf41f9f6bc45e2e78bd87feeecf6dcec9b476be7960a49e37b5b6b40feffec61e3203d07ac00000000"
    }
  ]
}