{
  "hash": "00000000a411b5574b9c9c5a2a8418244fc0506ea48c8aa6415218a7a44b98c9",
  "confirmations": 50217,
  "height": 2881,
  "version": 1,
  "versionHex": "00000001",
  "merkleroot": "05312eadd97f2a6585b144d56ca1fdf6cb1099ff50dc24ceb08d7a5c8c9c5d93",
  "time": 1233679751,
  "mediantime": 1233675786,
  "nonce": 314156217,
  "bits": "1d00ffff",
  "difficulty": 1,
  "chainwork": "00000000000000000000000000000000000000000000000000000b420b420b42",
  "nTx": 1,
  "previousblockhash": "0000000077b3da96845a404a4ac3e27ccdb1972e238b0deae857c32a432f9c79",
  "nextblockhash": "00000000c7a90f69f3edd1bc0bbf1391decc8367519b61fbbf81a05b43e04a6c",
  "strippedsize": 216,
  "size": 216,
  "weight": 864,
  "tx": [
    {
      "txid": "05312eadd97f2a6585b144d56ca1fdf6cb1099ff50dc24ceb08d7a5c8c9c5d93",
      "hash": "05312eadd97f2a6585b144d56ca1fdf6cb1099ff50dc24ceb08d7a5c8c9c5d93",
      "version": 1,
      "size": 135,
      "vsize": 135,
      "weight": 540,
      "locktime": 0,
      "vin": [
        {
          "coinbase": "04ffff001d028900",
          "sequence": 4294967295
        }
      ],
      "vout": [
        {
          "value": 50.0,
          "n": 0,
          "scriptPubKey": {
            "asm": "04bfadd96a16dfff16259d7c86dc1233ff8ab48c6c666241afaaba710a96f71383f9fe04717f9b56f6d9a2f98d4e866e213b63cadb9a65b1e667c750290cd38aa9 OP_CHECKSIG",
            "desc": "pk(04bfadd96a16dfff16259d7c86dc1233ff8ab48c6c666241afaaba710a96f71383f9fe04717f9b56f6d9a2f98d4e866e213b63cadb9a65b1e667c750290cd38aa9)#5j752juv",
            "hex": "4104bfadd96a16dfff16259d7c86dc1233ff8ab48c6c666241afaaba710a96f71383f9fe04717f9b56f6d9a2f98d4e866e213b63cadb9a65b1e667c750290cd38aa9ac",
            "type": "pubkey"
          }
        }
      ],
      "hex": "01000000010000000000000000000000000000000000000000000000000000000000000000ffffffff0804ffff001d028900ffffffff0100f2052a01000000434104bfadd96a16dfff16259d7c86dc1233ff8ab48c6c666241afaaba710a96f71383f9fe04717f9b56f6d9a2f98d4e866e213b63cadb9a65b1e667c750290cd38aa9ac00000000"
    }
  ]
}