{
  "hash": "000000004a48edeb998d77a0ec1c558230878ad0fe24ba7f255d5bbc344570e0",
  "confirmations": 51331,
  "height": 1767,
  "version": 1,
  "versionHex": "00000001",
  "merkleroot": "3004380cb3e3100f03de020b7a4abd0c47d2f7b8449fd999bca1f9c4ecf52393",
  "time": 1232882841,
  "mediantime": 1232879731,
  "nonce": 3538872631,
  "bits": "1d00ffff",
  "difficulty": 1,
  "chainwork": "000000000000000000000000000000000000000000000000000006e806e806e8",
  "nTx": 2,
  "previousblockhash": "000000008bff18478663187c769ea567d1e366b5b693b820f5a195e1f851521a",
  "nextblockhash": "000000002b55f8cb48deb8d6b7dc0817df9849a7e2080d9648979f0fe45d2853",
  "strippedsize": 416,
  "size": 416,
  "weight": 1664,
  "tx": [
    {
      "txid": "ee21f6c43e07b43fdf21c82c06c1cd2fb9702d6100daa2c744c1135a12f3ba62",
      "hash": "ee21f6c43e07b43fdf21c82c06c1cd2fb9702d6100daa2c744c1135a12f3ba62",
      "version": 1,
      "size": 135,
      "vsize": 135,
      "weight": 540,
      "locktime": 0,
      "vin": [
        {
          "coinbase": "04ffff001d02cb03",
          "sequence": 4294967295
        }
      ],
      "vout": [
        {
          "value": 50.0,
          "n": 0,
          "scriptPubKey": {
            "asm": "04713720254c828204b6687a7ffd40254cd72120c8c3ad761ac2d20d90250c7bd66fe5c3ed8c0454db9ac0eb9f3149d63b722ef0264f875da747eb688de8642fcd OP_CHECKSIG",
            "desc": "pk(04713720254c828204b6687a7ffd40254cd72120c8c3ad761ac2d20d90250c7bd66fe5c3ed8c0454db9ac0eb9f3149d63b722ef0264f875da747eb688de8642fcd)#90xts4xn",
            "hex": "4104713720254c828204b6687a7ffd40254cd72120c8c3ad761ac2d20d90250c7bd66fe5c3ed8c0454db9ac0eb9f3149d63b722ef0264f875da747eb688de8642fcdac",
            "type": "pubkey"
          }
        }
      ],
      "hex": "01000000010000000000000000000000000000000000000000000000000000000000000000ffffffff0804ffff001d02cb03ffffffff0100f2052a01000000434104713720254c828204b6687a7ffd40254cd72120c8c3ad761ac2d20d90250c7bd66fe5c3ed8c0454db9ac0eb9f3149d63b722ef0264f875da747eb688de8642fcdac00000000"
    },
    {
      "txid": "1c6861aa429c0c8b3a5be978160a2b5671c5cbb1d8194bc8d54fa2da154f3d8c",
      "hash": "1c6861aa429c0c8b3a5be978160a2b5671c5cbb1d8194bc8d54fa2da154f3d8c",
      "version": 1,
      "size": 200,
      "vsize": 200,
      "weight": 800,
      "locktime": 0,
      "vin": [
        {
          "txid": "d2c517572953d1ff9749843809237f76b11d2cf2e6937280e3bb53a779ae446b",
          "vout": 0,
          "scriptSig": {
            "asm": "3045022100ae5eb1fd253a6024b3d75e87b8768a4e7c80e30415c24099f0c320e555efb92102203527fc5d9de1819da74e8a7679c86d17165204e105dc16ba761005599880851c[ALL]",
            "hex": "483045022100ae5eb1fd253a6024b3d75e87b8768a4e7c80e30415c24099f0c320e555efb92102203527fc5d9de1819da74e8a7679c86d17165204e105dc16ba761005599880851c01"
          },
          "sequence": 4294967295
        }
      ],
      "vout": [
        {
          "value": 50.0,
          "n": 0,
          "scriptPubKey": {
            "asm": "04364534e8db175dc05f84ea3ca97989abf57f8d8b6671cccce1c12ef935d18c1287c29a35c2f0a518d709044aae89a344284f330c2d11649aa4da08a813251712 OP_CHECKSIG",
            "desc": "pk(04364534e8db175dc05f84ea3ca97989abf57f8d8b6671cccce1c12ef935d18c1287c29a35c2f0a518d709044aae89a344284f330c2d11649aa4da08a813251712)#9l0zt0rg",
            "hex": "4104364534e8db175dc05f84ea3ca97989abf57f8d8b6671cccce1c12ef935d18c1287c29a35c2f0a518d709044aae89a344284f330c2d11649aa4da08a813251712ac",
            "type": "pubkey"
          }
        }
      ],
      "fee": 0.0,
      "hex": "01000000016b44ae79a753bbe3807293e6f22c1db1767f230938844997ffd153295717c5d20000000049483045022100ae5eb1fd253a6024b3d75e87b8768a4e7c80e30415c24099f0c320e555efb92102203527fc5d9de1819da74e8a7679c86d17165204e105dc16ba761005599880851c01ffffffff0100f2052a01000000434104364534e8db175dc05f84ea3ca97989abf57f8d8b6671cccce1c12ef935d18c1287c29a35c2f0a518d709044aae89a344284f330c2d11649aa4da08a813251712ac00000000"
    }
  ]
}