{
  "hash": "0000000086540541efbc04369ac58ccde00a83eded7155f62b40230da6774010",
  "confirmations": 43626,
  "height": 9472,
  "version": 1,
  "versionHex": "00000001",
  "merkleroot": "0f8097cffdc83fbbc10ded74bfa35c627ac38643c40b10a9eb332aad87fa91bd",
  "time": 1238607745,
  "mediantime": 1238603782,
  "nonce": 446796,
  "bits": "1d00ffff",
  "difficulty": 1,
  "chainwork": "0000000000000000000000000000000000000000000000000000250125012501",
  "nTx": 1,
  "previousblockhash": "000000008d8d39fdb99089b013d9fb527af43763f77411fad9c682c755a9ab89",
  "nextblockhash": "000000006c6fc6a9889ec49f9468ec720b693881a62376ae61c9206cca4c79aa",
  "strippedsize": 215,
  "size": 215,
  "weight": 860,
  "tx": [
    {
      "txid": "0f8097cffdc83fbbc10ded74bfa35c627ac38643c40b10a9eb332aad87fa91bd",
      "hash": "0f8097cffdc83fbbc10ded74bfa35c627ac38643c40b10a9eb332aad87fa91bd",
      "version": 1,
      "size": 134,
      "vsize": 134,
      "weight": 536,
      "locktime": 0,
      "vin": [
        {
          "coinbase": "04ffff001d0156",
          "sequence": 4294967295
        }
      ],
      "vout": [
        {
          "value": 50.0,
          "n": 0,
          "scriptPubKey": {
            "asm": "0424472953243f91967e1b7b0f985efeb1eae86fd5ef36035c99a7bdef86d0a4e52519f2943e73feff36e61297220f5bb80f9461b28dfd8a8cd9334685dcd8a77d OP_CHECKSIG",
            "desc": "pk(0424472953243f91967e1b7b0f985efeb1eae86fd5ef36035c99a7bdef86d0a4e52519f2943e73feff36e61297220f5bb80f9461b28dfd8a8cd9334685dcd8a77d)#v2y527vn",
            "hex": "410424472953243f91967e1b7b0f985efeb1eae86fd5ef36035c99a7bdef86d0a4e52519f2943e73feff36e61297220f5bb80f9461b28dfd8a8cd9334685dcd8a77dac",
            "type": "pubkey"
          }
        }
      ],
      "hex": "01000000010000000000000000000000000000000000000000000000000000000000000000ffffffff0704ffff001d0156ffffffff0100f2052a0100000043410424472953243f91967e1b7b0f985efeb1eae86fd5ef36035c99a7bdef86d0a4e52519f2943e73feff36e61297220f5bb80f9461b28dfd8a8cd9334685dcd8a77dac00000000"
    }
  ]
}