{
  "hash": "00000000f4892fe38a0410bb3d10c5a2781c3c99c34980e0b2c822164525ddc1",
  "confirmations": 47723,
  "height": 5375,
  "version": 1,
  "versionHex": "00000001",
  "merkleroot": "fd858bc8a1c34fc7273e94528adc1593f03fcb375786aaedb12d58971a9f5046",
  "time": 1235420195,
  "mediantime": 1235417179,
  "nonce": 99067737,
  "bits": "1d00ffff",
  "difficulty": 1,
  "chainwork": "0000000000000000000000000000000000000000000000000000150015001500",
  "nTx": 1,
  "previousblockhash": "00000000c534ed7b5a33633e2481928211755b6fc1aa34a3594b8050c85227cf",
  "nextblockhash": "00000000ceffe58b53f20d14bec6c194968983ddab9504e187f88c0b5aea8d7e",
  "strippedsize": 216,
  "size": 216,
  "weight": 864,
  "tx": [
    {
      "txid": "fd858bc8a1c34fc7273e94528adc1593f03fcb375786aaedb12d58971a9f5046",
      "hash": "fd858bc8a1c34fc7273e94528adc1593f03fcb375786aaedb12d58971a9f5046",
      "version": 1,
      "size": 135,
      "vsize": 135,
      "weight": 540,
      "locktime": 0,
      "vin": [
        {
          "coinbase": "04ffff001d02dd00",
          "sequence": 4294967295
        }
      ],
      "vout": [
        {
          "value": 50.0,
          "n": 0,
          "scriptPubKey": {
            "asm": "04d138eb2994572bd8a4cf34456c1b09493151ac80aa043f8ef03caf4d4a24e36dd8063f08c8bf41e2f19b8dfb6792d0d59eeefe71babd987b2d2279205f7b8ae9 OP_CHECKSIG",
            "desc": "pk(04d138eb2994572bd8a4cf34456c1b09493151ac80aa043f8ef03caf4d4a24e36dd8063f08c8bf41e2f19b8dfb6792d0d59eeefe71babd987b2d2279205f7b8ae9)#dwjcv6dd",
            "hex": "4104d138eb2994572bd8a4cf34456c1b09493151ac80aa043f8ef03caf4d4a24e36dd8063f08c8bf41e2f19b8dfb6792d0d59eeefe71babd987b2d2279205f7b8ae9ac",
            "type": "pubkey"
          }
        }
      ],
      "hex": "01000000010000000000000000000000000000000000000000000000000000000000000000ffffffff0804ffff001d02dd00ffffffff0100f2052a01000000434104d138eb2994572bd8a4cf34456c1b09493151ac80aa043f8ef03caf4d4a24e36dd8063f08c8bf41e2f19b8dfb6792d0d59eeefe71babd987b2d2279205f7b8ae9ac00000000"
    }
  ]
}