{
  "hash": "000000004a7c386863b0f68ed98667aa7199f93e53daf51aa82c273881b60729",
  "confirmations": 52471,
  "height": 627,
  "version": 1,
  "versionHex": "00000001",
  "merkleroot": "7e802533ced473ab6379393e99efeddffe2b932bb2b126624083e8a7c8de4d6b",
  "time": 1232054174,
  "mediantime": 1232051001,
  "nonce": 2881327895,
  "bits": "1d00ffff",
  "difficulty": 1,
  "chainwork": "0000000000000000000000000000000000000000000000000000027402740274",
  "nTx": 1,
  "previousblockhash": "0000000033818256a49ccc2a2a689f680aa67df17b6de2bef62858a41ba20bbf",
  "nextblockhash": "00000000b5e779143dcc5052a30298bc54026a55089ee7c54d9a84df56b1857d",
  "strippedsize": 216,
  "size": 216,
  "weight": 864,
  "tx": [
    {
      "txid": "7e802533ced473ab6379393e99efeddffe2b932bb2b126624083e8a7c8de4d6b",
      "hash": "7e802533ced473ab6379393e99efeddffe2b932bb2b126624083e8a7c8de4d6b",
      "version": 1,
      "size": 135,
      "vsize": 135,
      "weight": 540,
      "locktime": 0,
      "vin": [
        {
          "coinbase": "04ffff001d021607",
          "sequence": 4294967295
        }
      ],
      "vout": [
        {
          "value": 50.0,
          "n": 0,
          "scriptPubKey": {
            "asm": "048d9ce4558989db84bc11e155ae47d335730bffbba225fbc7b6ae76849a6512892a0375dcc570cf03cf05a303173747d01d3219b462c0c7ec4c3efc37120970c4 OP_CHECKSIG",
            "desc": "pk(048d9ce4558989db84bc11e155ae47d335730bffbba225fbc7b6ae76849a6512892a0375dcc570cf03cf05a303173747d01d3219b462c0c7ec4c3efc37120970c4)#nzt94suz",
            "hex": "41048d9ce4558989db84bc11e155ae47d335730bffbba225fbc7b6ae76849a6512892a0375dcc570cf03cf05a303173747d01d3219b462c0c7ec4c3efc37120970c4ac",
            "type": "pubkey"
          }
        }
      ],
      "hex": "01000000010000000000000000000000000000000000000000000000000000000000000000ffffffff0804ffff001d021607ffffffff0100f2052a010000004341048d9ce4558989db84bc11e155ae47d335730bffbba225fbc7b6ae76849a6512892a0375dcc570cf03cf05a303173747d01d3219b462c0c7ec4c3efc37120970c4ac00000000"
    }
  ]
}