{
  "hash": "000000003bf1f8df98f0e5f2cfaaf8cae43811f6a297335e7e08245331d8ed99",
  "confirmations": 51238,
  "height": 1860,
  "version": 1,
  "versionHex": "00000001",
  "merkleroot": "55e3186cce21df26e19939ebe598abd46a4abc713149a2ce76844bfbbf0a8ba5",
  "time": 1232925868,
  "mediantime": 1232924068,
  "nonce": 780999467,
  "bits": "1d00ffff",
  "difficulty": 1,
  "chainwork": "0000000000000000000000000000000000000000000000000000074507450745",
  "nTx": 1,
  "previousblockhash": "00000000f4479ff07f658f4763092a95822792d7ae3c2ed7c3f381a7d84b52ff",
  "nextblockhash": "00000000f6033a344df6851d86ea1d78f03912ee5c82a042559fac51a330a06b",
  "strippedsize": 216,
  "size": 216,
  "weight": 864,
  "tx": [
    {
      "txid": "55e3186cce21df26e19939ebe598abd46a4abc713149a2ce76844bfbbf0a8ba5",
      "hash": "55e3186cce21df26e19939ebe598abd46a4abc713149a2ce76844bfbbf0a8ba5",
      "version": 1,
      "size": 135,
      "vsize": 135,
      "weight": 540,
      "locktime": 0,
      "vin": [
        {
          "coinbase": "04ffff001d02bb04",
          "sequence": 4294967295
        }
      ],
      "vout": [
        {
          "value": 50.0,
          "n": 0,
          "scriptPubKey": {
            "asm": "04b4e8dd02ec0cef8d350df394ae668d0fea6bb7c4af77baa01387cf6a220b3735bf24466b5a4b8ffee903b0a112a2e3a5ed9e292c79be3dfa85f34f3dcd7b8197 OP_CHECKSIG",
            "desc": "pk(04b4e8dd02ec0cef8d350df394ae668d0fea6bb7c4af77baa01387cf6a220b3735bf24466b5a4b8ffee903b0a112a2e3a5ed9e292c79be3dfa85f34f3dcd7b8197)#llvy7m6n",
            "hex": "4104b4e8dd02ec0cef8d350df394ae668d0fea6bb7c4af77baa01387cf6a220b3735bf24466b5a4b8ffee903b0a112a2e3a5ed9e292c79be3dfa85f34f3dcd7b8197ac",
            "type": "pubkey"
          }
        }
      ],
      "hex": "01000000010000000000000000000000000000000000000000000000000000000000000000ffffffff0804ffff001d02bb04ffffffff0100f2052a01000000434104b4e8dd02ec0cef8d350df394ae668d0fea6bb7c4af77baa01387cf6a220b3735bf24466b5a4b8ffee903b0a112a2e3a5ed9e292c79be3dfa85f34f3dcd7b8197ac00000000"
    }
  ]
}