{
  "hash": "00000000046d4e2de13c9a31dec05fafcae393ae7de773242abd4db47e9e747f",
  "confirmations": 51298,
  "height": 1800,
  "version": 1,
  "versionHex": "00000001",
  "merkleroot": "70f2708d62f2d664d28fd840be6019df3163239defdd0c7622e050bc75118965",
  "time": 1232898170,
  "mediantime": 1232895832,
  "nonce": 1752590631,
  "bits": "1d00ffff",
  "difficulty": 1,
  "chainwork": "0000000000000000000000000000000000000000000000000000070907090709",
  "nTx": 1,
  "previousblockhash": "000000006a88eef081b653d0bc7cbc7296c7bcf0bf60c0c92586fd4d6a0c9fae",
  "nextblockhash": "00000000c9ccddfd2f3e45036a8d04fcc3263a83b82b4a9fe134dc1d8c7ef295",
  "strippedsize": 216,
  "size": 216,
  "weight": 864,
  "tx": [
    {
      "txid": "70f2708d62f2d664d28fd840be6019df3163239defdd0c7622e050bc75118965",
      "hash": "70f2708d62f2d664d28fd840be6019df3163239defdd0c7622e050bc75118965",
      "version": 1,
      "size": 135,
      "vsize": 135,
      "weight": 540,
      "locktime": 0,
      "vin": [
        {
          "coinbase": "04ffff001d02fc03",
          "sequence": 4294967295
        }
      ],
      "vout": [
        {
          "value": 50.0,
          "n": 0,
          "scriptPubKey": {
            "asm": "04afb7fb27c1aefa2ab1b4e3a0ebcf734c9234de732aebdb19985901afcbecf9184fcaf2d24656581da88ec59eb22c0ea814e23b16178395e84c20b412eb900616 OP_CHECKSIG",
            "desc": "pk(04afb7fb27c1aefa2ab1b4e3a0ebcf734c9234de732aebdb19985901afcbecf9184fcaf2d24656581da88ec59eb22c0ea814e23b16178395e84c20b412eb900616)#kgw4zlx4",
            "hex": "4104afb7fb27c1aefa2ab1b4e3a0ebcf734c9234de732aebdb19985901afcbecf9184fcaf2d24656581da88ec59eb22c0ea814e23b16178395e84c20b412eb900616ac",
            "type": "pubkey"
          }
        }
      ],
      "hex": "01000000010000000000000000000000000000000000000000000000000000000000000000ffffffff0804ffff001d02fc03ffffffff0100f2052a01000000434104afb7fb27c1aefa2ab1b4e3a0ebcf734c9234de732aebdb19985901afcbecf9184fcaf2d24656581da88ec59eb22c0ea814e23b16178395e84c20b412eb900616ac00000000"
    }
  ]
}