{
  "hash": "000000000d3146efd2e47e27f519a4d224d83cfd3156b6fe751ec83a9027393e",
  "confirmations": 45826,
  "height": 7272,
  "version": 1,
  "versionHex": "00000001",
  "merkleroot": "3831d904c23eea3e9ec8b8fe8a00900d3f4f193735696f5a03ba960868b64858",
  "time": 1236924771,
  "mediantime": 1236922459,
  "nonce": 2241890845,
  "bits": "1d00ffff",
  "difficulty": 1,
  "chainwork": "00000000000000000000000000000000000000000000000000001c691c691c69",
  "nTx": 1,
  "previousblockhash": "00000000939868fbee66bac335b18ee928f431d0751b9ab37a2fbb4a2ce13fba",
  "nextblockhash": "0000000052fef4716fe4c23a5625a6a2a5b0b6b93cc1b0a51eef1421b121a07b",
  "strippedsize": 216,
  "size": 216,
  "weight": 864,
  "tx": [
    {
      "txid": "3831d904c23eea3e9ec8b8fe8a00900d3f4f193735696f5a03ba960868b64858",
      "hash": "3831d904c23eea3e9ec8b8fe8a00900d3f4f193735696f5a03ba960868b64858",
      "version": 1,
      "size": 135,
      "vsize": 135,
      "weight": 540,
      "locktime": 0,
      "vin": [
        {
          "coinbase": "04ffff001d02e106",
          "sequence": 4294967295
        }
      ],
      "vout": [
        {
          "value": 50.0,
          "n": 0,
          "scriptPubKey": {
            "asm": "041729be8ae6bab0bb90eb6ba7bc5091b1fb348e27b8eba23fca9fa8e3799434be8274bc52b3452bd1783f47bbdccb8fb3fce4a0b3ebf001f15302ce976780c9d2 OP_CHECKSIG",
            "desc": "pk(041729be8ae6bab0bb90eb6ba7bc5091b1fb348e27b8eba23fca9fa8e3799434be8274bc52b3452bd1783f47bbdccb8fb3fce4a0b3ebf001f15302ce976780c9d2)#dqpuugc9",
            "hex": "41041729be8ae6bab0bb90eb6ba7bc5091b1fb348e27b8eba23fca9fa8e3799434be8274bc52b3452bd1783f47bbdccb8fb3fce4a0b3ebf001f15302ce976780c9d2ac",
            "type": "pubkey"
          }
        }
      ],
      "hex": "01000000010000000000000000000000000000000000000000000000000000000000000000ffffffff0804ffff001d02e106ffffffff0100f2052a010000004341041729be8ae6bab0bb90eb6ba7bc5091b1fb348e27b8eba23fca9fa8e3799434be8274bc52b3452bd1783f47bbdccb8fb3fce4a0b3ebf001f15302ce976780c9d2ac00000000"
    }
  ]
}