{
  "hash": "0000000049b941e3ebd794c6d406890f0b707b2f93984123f9c58471f40ff981",
  "confirmations": 43852,
  "height": 9246,
  "version": 1,
  "versionHex": "00000001",
  "merkleroot": "de89dac9c0303f66ee32843540f5ad66efe3bce87690e2640ad01e9451d3dab9",
  "time": 1238432180,
  "mediantime": 1238427010,
  "nonce": 3811991601,
  "bits": "1d00ffff",
  "difficulty": 1,
  "chainwork": "0000000000000000000000000000000000000000000000000000241f241f241f",
  "nTx": 1,
  "previousblockhash": "000000000f37c66fc10d0119c2b80230679db880a9514e80f82dd757a4eabb4c",
  "nextblockhash": "00000000382fe8d455a16c7dfc9d8ac31ed6fb6347ad0e4bea4c9faa78abde65",
  "strippedsize": 216,
  "size": 216,
  "weight": 864,
  "tx": [
    {
      "txid": "de89dac9c0303f66ee32843540f5ad66efe3bce87690e2640ad01e9451d3dab9",
      "hash": "de89dac9c0303f66ee32843540f5ad66efe3bce87690e2640ad01e9451d3dab9",
      "version": 1,
      "size": 135,
      "vsize": 135,
      "weight": 540,
      "locktime": 0,
      "vin": [
        {
          "coinbase": "04ffff001d02e800",
          "sequence": 4294967295
        }
      ],
      "vout": [
        {
          "value": 50.0,
          "n": 0,
          "scriptPubKey": {
            "asm": "0438c8047ab48b49b17d74b930bb033daa2712acacd17b9ca02398e4d15955ce8a2e3941ede08abc596fbf0dbfeb75869e43ff3e5a18bd0e136bc878e4beb4547f OP_CHECKSIG",
            "desc": "pk(0438c8047ab48b49b17d74b930bb033daa2712acacd17b9ca02398e4d15955ce8a2e3941ede08abc596fbf0dbfeb75869e43ff3e5a18bd0e136bc878e4beb4547f)#drj5pp2d",
            "hex": "410438c8047ab48b49b17d74b930bb033daa2712acacd17b9ca02398e4d15955ce8a2e3941ede08abc596fbf0dbfeb75869e43ff3e5a18bd0e136bc878e4beb4547fac",
            "type": "pubkey"
          }
        }
      ],
      "hex": "01000000010000000000000000000000000000000000000000000000000000000000000000ffffffff0804ffff001d02e800ffffffff0100f2052a0100000043410438c8047ab48b49b17d74b930bb033daa2712acacd17b9ca02398e4d15955ce8a2e3941ede08abc596fbf0dbfeb75869e43ff3e5a18bd0e136bc878e4beb4547fac00000000"
    }
  ]
}