{
  "hash": "00000000fa0f9d275d9d0f963cd44cd811b5d73c611b25d2e49f096f92cf6c4b",
  "confirmations": 49902,
  "height": 3196,
  "version": 1,
  "versionHex": "00000001",
  "merkleroot": "fd6847576e9803a170468932b42af9a9e136e02200d5600b01f0eb4f4b6a932c",
  "time": 1233896460,
  "mediantime": 1233892781,
  "nonce": 2363506728,
  "bits": "1d00ffff",
  "difficulty": 1,
  "chainwork": "00000000000000000000000000000000000000000000000000000c7d0c7d0c7d",
  "nTx": 1,
  "previousblockhash": "00000000a2f6bf1b6180f8f5fe088c265bf506f9c6e2ef1c85d8e398c7604d66",
  "nextblockhash": "000000009dd977c7dcf8eddb9562f7ad4da7486fbb4ed5dd871e8732e5e49f32",
  "strippedsize": 216,
  "size": 216,
  "weight": 864,
  "tx": [
    {
      "txid": "fd6847576e9803a170468932b42af9a9e136e02200d5600b01f0eb4f4b6a932c",
      "hash": "fd6847576e9803a170468932b42af9a9e136e02200d5600b01f0eb4f4b6a932c",
      "version": 1,
      "size": 135,
      "vsize": 135,
      "weight": 540,
      "locktime": 0,
      "vin": [
        {
          "coinbase": "04ffff001d02a402",
          "sequence": 4294967295
        }
      ],
      "vout": [
        {
          "value": 50.0,
          "n": 0,
          "scriptPubKey": {
            "asm": "042e1c4f30bec40b302ccec846ce11247408f3b20dc341fc8feb1bd6ffd0914f0fbc0e62e06fda87cdee58861de0c2dce348826dd24ce38cbe606a01034cc6cde9 OP_CHECKSIG",
            "desc": "pk(042e1c4f30bec40b302ccec846ce11247408f3b20dc341fc8feb1bd6ffd0914f0fbc0e62e06fda87cdee58861de0c2dce348826dd24ce38cbe606a01034cc6cde9)#x2td0plm",
            "hex": "41042e1c4f30bec40b302ccec846ce11247408f3b20dc341fc8feb1bd6ffd0914f0fbc0e62e06fda87cdee58861de0c2dce348826dd24ce38cbe606a01034cc6cde9ac",
            "type": "pubkey"
          }
        }
      ],
      "hex": "01000000010000000000000000000000000000000000000000000000000000000000000000ffffffff0804ffff001d02a402ffffffff0100f2052a010000004341042e1c4f30bec40b302ccec846ce11247408f3b20dc341fc8feb1bd6ffd0914f0fbc0e62e06fda87cdee58861de0c2dce348826dd24ce38cbe606a01034cc6cde9ac00000000"
    }
  ]
}