{
  "hash": "0000000080af307a7f9f2edc93a9a8846886a1a6f7031a009132d04b1691bc74",
  "confirmations": 50954,
  "height": 2144,
  "version": 1,
  "versionHex": "00000001",
  "merkleroot": "c68906033d5087e4cc94ab9672236943f3a2b36c23b4e1c9b19b5453702a832e",
  "time": 1233171952,
  "mediantime": 1233166970,
  "nonce": 1851975480,
  "bits": "1d00ffff",
  "difficulty": 1,
  "chainwork": "0000000000000000000000000000000000000000000000000000086108610861",
  "nTx": 1,
  "previousblockhash": "000000005e007f176975230d68510149ef9d80b5180cf9110099b09d7a23e80b",
  "nextblockhash": "000000000108aaf29957b945ae48abf9419b7b23c265d81493eae01ca7472cb8",
  "strippedsize": 215,
  "size": 215,
  "weight": 860,
  "tx": [
    {
      "txid": "c68906033d5087e4cc94ab9672236943f3a2b36c23b4e1c9b19b5453702a832e",
      "hash": "c68906033d5087e4cc94ab9672236943f3a2b36c23b4e1c9b19b5453702a832e",
      "version": 1,
      "size": 134,
      "vsize": 134,
      "weight": 536,
      "locktime": 0,
      "vin": [
        {
          "coinbase": "04ffff001d0158",
          "sequence": 4294967295
        }
      ],
      "vout": [
        {
          "value": 50.0,
          "n": 0,
          "scriptPubKey": {
            "asm": "04514bb3bcda39169dd531a7306ea31f3a490b9559784bec6841deb447831d9a8967f93a673ab28dde7f7c3b62903f87a72528911044f573efe64a7ef5560e0059 OP_CHECKSIG",
            "desc": "pk(04514bb3bcda39169dd531a7306ea31f3a490b9559784bec6841deb447831d9a8967f93a673ab28dde7f7c3b62903f87a72528911044f573efe64a7ef5560e0059)#c795dewk",
            "hex": "4104514bb3bcda39169dd531a7306ea31f3a490b9559784bec6841deb447831d9a8967f93a673ab28dde7f7c3b62903f87a72528911044f573efe64a7ef5560e0059ac",
            "type": "pubkey"
          }
        }
      ],
      "hex": "01000000010000000000000000000000000000000000000000000000000000000000000000ffffffff0704ffff001d0158ffffffff0100f2052a01000000434104514bb3bcda39169dd531a7306ea31f3a490b9559784bec6841deb447831d9a8967f93a673ab28dde7f7c3b62903f87a72528911044f573efe64a7ef5560e0059ac00000000"
    }
  ]
}