{
  "hash": "00000000fa8389c2f8f9701b81b4fdb7c382da4ce4b964cd0792068d1acf3acb",
  "confirmations": 46217,
  "height": 6881,
  "version": 1,
  "versionHex": "00000001",
  "merkleroot": "37af47e5190e8f01350d6e1b5fdd13d343b7393cdb50fd2f87307a1016ee3991",
  "time": 1236619432,
  "mediantime": 1236615217,
  "nonce": 4236564250,
  "bits": "1d00ffff",
  "difficulty": 1,
  "chainwork": "00000000000000000000000000000000000000000000000000001ae21ae21ae2",
  "nTx": 1,
  "previousblockhash": "00000000cf47f975184db0b4df92c9f798f61aa8143ffb0ce1c48746a8bd63aa",
  "nextblockhash": "0000000030c4ac4baed7725a572f65e1392391669bc199ab793b565d30b2b810",
  "strippedsize": 216,
  "size": 216,
  "weight": 864,
  "tx": [
    {
      "txid": "37af47e5190e8f01350d6e1b5fdd13d343b7393cdb50fd2f87307a1016ee3991",
      "hash": "37af47e5190e8f01350d6e1b5fdd13d343b7393cdb50fd2f87307a1016ee3991",
      "version": 1,
      "size": 135,
      "vsize": 135,
      "weight": 540,
      "locktime": 0,
      "vin": [
        {
          "coinbase": "04ffff001d02370a",
          "sequence": 4294967295
        }
      ],
      "vout": [
        {
          "value": 50.0,
          "n": 0,
          "scriptPubKey": {
            "asm": "04f06c59ab9bb4dbf51eede22dde6718bc7ed8554a0c988f47b18d5b0eab7a81a0baca05a375ccd929473421dbf36cade130ab0c40716fa5e66b0bafcbc382162e OP_CHECKSIG",
            "desc": "pk(04f06c59ab9bb4dbf51eede22dde6718bc7ed8554a0c988f47b18d5b0eab7a81a0baca05a375ccd929473421dbf36cade130ab0c40716fa5e66b0bafcbc382162e)#uuqwsckg",
            "hex": "4104f06c59ab9bb4dbf51eede22dde6718bc7ed8554a0c988f47b18d5b0eab7a81a0baca05a375ccd929473421dbf36cade130ab0c40716fa5e66b0bafcbc382162eac",
            "type": "pubkey"
          }
        }
      ],
      "hex": "01000000010000000000000000000000000000000000000000000000000000000000000000ffffffff0804ffff001d02370affffffff0100f2052a01000000434104f06c59ab9bb4dbf51eede22dde6718bc7ed8554a0c988f47b18d5b0eab7a81a0baca05a375ccd929473421dbf36cade130ab0c40716fa5e66b0bafcbc382162eac00000000"
    }
  ]
}