{
  "hash": "000000007f1d30edd6c0d64956a2f4af691dfb60bf71a32591153e4f9efa871f",
  "confirmations": 45741,
  "height": 7357,
  "version": 1,
  "versionHex": "00000001",
  "merkleroot": "604862e96153002a31556d4b5314cc9f355cbcebf805bfcee19dc9751ca6ea7e",
  "time": 1236988151,
  "mediantime": 1236984961,
  "nonce": 996085275,
  "bits": "1d00ffff",
  "difficulty": 1,
  "chainwork": "00000000000000000000000000000000000000000000000000001cbe1cbe1cbe",
  "nTx": 1,
  "previousblockhash": "00000000bf1c8ee6cfc810011106196a128d0fff981d87ac343a129ef37c771d",
  "nextblockhash": "000000002de29197d5cb96c1a3ec08a2265923f8933dbcb491a0c5254c18f7f7",
  "strippedsize": 216,
  "size": 216,
  "weight": 864,
  "tx": [
    {
      "txid": "604862e96153002a31556d4b5314cc9f355cbcebf805bfcee19dc9751ca6ea7e",
      "hash": "604862e96153002a31556d4b5314cc9f355cbcebf805bfcee19dc9751ca6ea7e",
      "version": 1,
      "size": 135,
      "vsize": 135,
      "weight": 540,
      "locktime": 0,
      "vin": [
        {
          "coinbase": "04ffff001d029908",
          "sequence": 4294967295
        }
      ],
      "vout": [
        {
          "value": 50.0,
          "n": 0,
          "scriptPubKey": {
            "asm": "04cb4556c6eb9e5d3be67fe92d8ae1c2cff025bff58731e4ef2e0a614441b0314060b7e6632765b0867cf707bf624b3220ea33e86fb9438404927c9c6b45aa8ad0 OP_CHECKSIG",
            "desc": "pk(04cb4556c6eb9e5d3be67fe92d8ae1c2cff025bff58731e4ef2e0a614441b0314060b7e6632765b0867cf707bf624b3220ea33e86fb9438404927c9c6b45aa8ad0)#xxc86x8y",
            "hex": "4104cb4556c6eb9e5d3be67fe92d8ae1c2cff025bff58731e4ef2e0a614441b0314060b7e6632765b0867cf707bf624b3220ea33e86fb9438404927c9c6b45aa8ad0ac",
            "type": "pubkey"
          }
        }
      ],
      "hex": "01000000010000000000000000000000000000000000000000000000000000000000000000ffffffff0804ffff001d029908ffffffff0100f2052a01000000434104cb4556c6eb9e5d3be67fe92d8ae1c2cff025bff58731e4ef2e0a614441b0314060b7e6632765b0867cf707bf624b3220ea33e86fb9438404927c9c6b45aa8ad0ac00000000"
    }
  ]
}