{
  "hash": "000000009f02fc0ad2cbbc173f83b9db831a6a0956754784020b31e336d91081",
  "confirmations": 52165,
  "height": 464,
  "version": 1,
  "versionHex": "00000001",
  "merkleroot": "3745d12ead875f761697c23f8571ad8e74b065349864317fece3f96512b160e5",
  "time": 1231944640,
  "mediantime": 1231943274,
  "nonce": 1985181463,
  "bits": "1d00ffff",
  "difficulty": 1,
  "chainwork": "000000000000000000000000000000000000000000000000000001d101d101d1",
  "nTx": 1,
  "previousblockhash": "000000007796883846053d0be8621d0fe1d88987da1d627a1cba650cd4efebfc",
  "nextblockhash": "00000000d210725e12df9669ee4d5e9bfff357dc08670264f733d47ce4cce9db",
  "strippedsize": 216,
  "size": 216,
  "weight": 864,
  "tx": [
    {
      "txid": "3745d12ead875f761697c23f8571ad8e74b065349864317fece3f96512b160e5",
      "hash": "3745d12ead875f761697c23f8571ad8e74b065349864317fece3f96512b160e5",
      "version": 1,
      "size": 135,
      "vsize": 135,
      "weight": 540,
      "locktime": 0,
      "vin": [
        {
          "coinbase": "04ffff001d02d803",
          "sequence": 4294967295
        }
      ],
      "vout": [
        {
          "value": 50.0,
          "n": 0,
          "scriptPubKey": {
            "asm": "046a68281e5668420d9a6d0093b8f3a3217f615a409c191f265b431834a619a3728e1fd3c65f21c812d77e5c87bccd2b72bfbae0e568eaf78a558d0fd173769f1f OP_CHECKSIG",
            "desc": "pk(046a68281e5668420d9a6d0093b8f3a3217f615a409c191f265b431834a619a3728e1fd3c65f21c812d77e5c87bccd2b72bfbae0e568eaf78a558d0fd173769f1f)#p7y5eund",
            "hex": "41046a68281e5668420d9a6d0093b8f3a3217f615a409c191f265b431834a619a3728e1fd3c65f21c812d77e5c87bccd2b72bfbae0e568eaf78a558d0fd173769f1fac",
            "type": "pubkey"
          }
        }
      ],
      "hex": "01000000010000000000000000000000000000000000000000000000000000000000000000ffffffff0804ffff001d02d803ffffffff0100f2052a010000004341046a68281e5668420d9a6d0093b8f3a3217f615a409c191f265b431834a619a3728e1fd3c65f21c812d77e5c87bccd2b72bfbae0e568eaf78a558d0fd173769f1fac00000000"
    }
  ]
}