{
  "hash": "00000000567e95797f93675ac23683ae3787b183bb36859c18d9220f3fa66a69",
  "confirmations": 52056,
  "height": 168,
  "version": 1,
  "versionHex": "00000001",
  "merkleroot": "6a8226ad9980693ffbf41a15a1118fb73a9f68cda9c0b9951490bd03cb70d1d8",
  "time": 1231717181,
  "mediantime": 1231714917,
  "nonce": 1647037482,
  "bits": "1d00ffff",
  "difficulty": 1,
  "chainwork": "000000000000000000000000000000000000000000000000000000a900a900a9",
  "nTx": 1,
  "previousblockhash": "0000000019735037752be2927084cf026224254e01e4b1223a37c18bd92561de",
  "nextblockhash": "000000002a22cfee1f2c846adbd12b3e183d4f97683f85dad08a79780a84bd55",
  "strippedsize": 215,
  "size": 215,
  "weight": 860,
  "tx": [
    {
      "txid": "6a8226ad9980693ffbf41a15a1118fb73a9f68cda9c0b9951490bd03cb70d1d8",
      "hash": "6a8226ad9980693ffbf41a15a1118fb73a9f68cda9c0b9951490bd03cb70d1d8",
      "version": 1,
      "size": 134,
      "vsize": 134,
      "weight": 536,
      "locktime": 0,
      "vin": [
        {
          "coinbase": "04ffff001d0103",
          "sequence": 4294967295
        }
      ],
      "vout": [
        {
          "value": 50.0,
          "n": 0,
          "scriptPubKey": {
            "asm": "040c5e37183d6161304c00a1bdf933822f8f0e7a219e70b931fc28cf3bc41e24c86133041f29f1d90dcdfceeaaacb7a203f5fc2bda7149e58c88de66adbe87c69f OP_CHECKSIG",
            "desc": "pk(040c5e37183d6161304c00a1bdf933822f8f0e7a219e70b931fc28cf3bc41e24c86133041f29f1d90dcdfceeaaacb7a203f5fc2bda7149e58c88de66adbe87c69f)#rfhufl92",
            "hex": "41040c5e37183d6161304c00a1bdf933822f8f0e7a219e70b931fc28cf3bc41e24c86133041f29f1d90dcdfceeaaacb7a203f5fc2bda7149e58c88de66adbe87c69fac",
            "type": "pubkey"
          }
        }
      ],
      "hex": "01000000010000000000000000000000000000000000000000000000000000000000000000ffffffff0704ffff001d0103ffffffff0100f2052a010000004341040c5e37183d6161304c00a1bdf933822f8f0e7a219e70b931fc28cf3bc41e24c86133041f29f1d90dcdfceeaaacb7a203f5fc2bda7149e58c88de66adbe87c69fac00000000"
    }
  ]
}