{
  "hash": "00000000ddff5bc44604c75c4b0115d6fd3da3ef3adf0addd773fb8b40673e8b",
  "confirmations": 48302,
  "height": 4796,
  "version": 1,
  "versionHex": "00000001",
  "merkleroot": "e6c169045a24e093d7928e2a99622ff718f481b5d5e3254cfbe9fee8b7cd753f",
  "time": 1234996105,
  "mediantime": 1234994203,
  "nonce": 617952795,
  "bits": "1d00ffff",
  "difficulty": 1,
  "chainwork": "000000000000000000000000000000000000000000000000000012bd12bd12bd",
  "nTx": 1,
  "previousblockhash": "00000000c8de245ab0abf11ccf933ca8d909d30738615094892d279271b8a851",
  "nextblockhash": "00000000c5e03b4b285b0bb006a4c4b45f3297b9a3034974dcd90899ae13df0c",
  "strippedsize": 216,
  "size": 216,
  "weight": 864,
  "tx": [
    {
      "txid": "e6c169045a24e093d7928e2a99622ff718f481b5d5e3254cfbe9fee8b7cd753f",
      "hash": "e6c169045a24e093d7928e2a99622ff718f481b5d5e3254cfbe9fee8b7cd753f",
      "version": 1,
      "size": 135,
      "vsize": 135,
      "weight": 540,
      "locktime": 0,
      "vin": [
        {
          "coinbase": "04ffff001d023404",
          "sequence": 4294967295
        }
      ],
      "vout": [
        {
          "value": 50.0,
          "n": 0,
          "scriptPubKey": {
            "asm": "04c37bc58a23294a710f4fa842d1b38a825c8680ff071bbee55c4eb5558600d83e7c99067deb0db3e7d6d6938de60a16e5fd47302f6e348f602cae29d99281742d OP_CHECKSIG",
            "desc": "pk(04c37bc58a23294a710f4fa842d1b38a825c8680ff071bbee55c4eb5558600d83e7c99067deb0db3e7d6d6938de60a16e5fd47302f6e348f602cae29d99281742d)#ghcpgv9m",
            "hex": "4104c37bc58a23294a710f4fa842d1b38a825c8680ff071bbee55c4eb5558600d83e7c99067deb0db3e7d6d6938de60a16e5fd47302f6e348f602cae29d99281742dac",
            "type": "pubkey"
          }
        }
      ],
      "hex": "01000000010000000000000000000000000000000000000000000000000000000000000000ffffffff0804ffff001d023404ffffffff0100f2052a01000000434104c37bc58a23294a710f4fa842d1b38a825c8680ff071bbee55c4eb5558600d83e7c99067deb0db3e7d6d6938de60a16e5fd47302f6e348f602cae29d99281742dac00000000"
    }
  ]
}