{
  "hash": "00000000281a804ca083851928c377764120ebb9d9a0d6f7058b5018486b4ce7",
  "confirmations": 51789,
  "height": 1309,
  "version": 1,
  "versionHex": "00000001",
  "merkleroot": "589db05d2cee98572714a5ab32c415499d2102f19ff89f3f5a4ecf9c85f1003f",
  "time": 1232602728,
  "mediantime": 1232597716,
  "nonce": 125943662,
  "bits": "1d00ffff",
  "difficulty": 1,
  "chainwork": "0000000000000000000000000000000000000000000000000000051e051e051e",
  "nTx": 1,
  "previousblockhash": "00000000379d51e5d7d42d63830cec26e61b18261f10943c5447bfa92b596e5a",
  "nextblockhash": "00000000af65d8750ebd67da9421b8054e5bac2a8b25dac3b0f4ce86dcde252d",
  "strippedsize": 216,
  "size": 216,
  "weight": 864,
  "tx": [
    {
      "txid": "589db05d2cee98572714a5ab32c415499d2102f19ff89f3f5a4ecf9c85f1003f",
      "hash": "589db05d2cee98572714a5ab32c415499d2102f19ff89f3f5a4ecf9c85f1003f",
      "version": 1,
      "size": 135,
      "vsize": 135,
      "weight": 540,
      "locktime": 0,
      "vin": [
        {
          "coinbase": "04ffff001d020902",
          "sequence": 4294967295
        }
      ],
      "vout": [
        {
          "value": 50.0,
          "n": 0,
          "scriptPubKey": {
            "asm": "041e27ce8e25123af87ad7a1e0c3903357e81ec890ad4eddf398bedc0b10a996d79a9ea1e301754d541d0f07ee4bb30bee2306ccab3241c8e25ee74ffa44e9355e OP_CHECKSIG",
            "desc": "pk(041e27ce8e25123af87ad7a1e0c3903357e81ec890ad4eddf398bedc0b10a996d79a9ea1e301754d541d0f07ee4bb30bee2306ccab3241c8e25ee74ffa44e9355e)#tl8g50w4",
            "hex": "41041e27ce8e25123af87ad7a1e0c3903357e81ec890ad4eddf398bedc0b10a996d79a9ea1e301754d541d0f07ee4bb30bee2306ccab3241c8e25ee74ffa44e9355eac",
            "type": "pubkey"
          }
        }
      ],
      "hex": "01000000010000000000000000000000000000000000000000000000000000000000000000ffffffff0804ffff001d020902ffffffff0100f2052a010000004341041e27ce8e25123af87ad7a1e0c3903357e81ec890ad4eddf398bedc0b10a996d79a9ea1e301754d541d0f07ee4bb30bee2306ccab3241c8e25ee74ffa44e9355eac00000000"
    }
  ]
}