{
  "hash": "00000000ff7249c52e99c96c400b26e71c6d406d65a6da82e1efaa43603d9527",
  "confirmations": 44828,
  "height": 8270,
  "version": 1,
  "versionHex": "00000001",
  "merkleroot": "dd9f14658d1188aaa92182dc4a0259830c203772545efc4925ee5182aba63289",
  "time": 1237713823,
  "mediantime": 1237708652,
  "nonce": 759084571,
  "bits": "1d00ffff",
  "difficulty": 1,
  "chainwork": "0000000000000000000000000000000000000000000000000000204f204f204f",
  "nTx": 1,
  "previousblockhash": "00000000dffd00f4d40f620e2efdabff6f3b539da8aab8f7147bbb75717c14cc",
  "nextblockhash": "00000000cdef22c0d89e140279d58000e440a8f3d6dfc44fd3840f9eaaf58e49",
  "strippedsize": 216,
  "size": 216,
  "weight": 864,
  "tx": [
    {
      "txid": "dd9f14658d1188aaa92182dc4a0259830c203772545efc4925ee5182aba63289",
      "hash": "dd9f14658d1188aaa92182dc4a0259830c203772545efc4925ee5182aba63289",
      "version": 1,
      "size": 135,
      "vsize": 135,
      "weight": 540,
      "locktime": 0,
      "vin": [
        {
          "coinbase": "04ffff001d02d203",
          "sequence": 4294967295
        }
      ],
      "vout": [
        {
          "value": 50.0,
          "n": 0,
          "scriptPubKey": {
            "asm": "04af0a60240f151fce3f3acb50755dbc0c5153fd4c742755618fc04c5c2b891f780c297348e1864109b42287871f37dbcd3dabfa3ea9e63546ceddf254c1a60975 OP_CHECKSIG",
            "desc": "pk(04af0a60240f151fce3f3acb50755dbc0c5153fd4c742755618fc04c5c2b891f780c297348e1864109b42287871f37dbcd3dabfa3ea9e63546ceddf254c1a60975)#3r69wp90",
            "hex": "4104af0a60240f151fce3f3acb50755dbc0c5153fd4c742755618fc04c5c2b891f780c297348e1864109b42287871f37dbcd3dabfa3ea9e63546ceddf254c1a60975ac",
            "type": "pubkey"
          }
        }
      ],
      "hex": "01000000010000000000000000000000000000000000000000000000000000000000000000ffffffff0804ffff001d02d203ffffffff0100f2052a01000000434104af0a60240f151fce3f3acb50755dbc0c5153fd4c742755618fc04c5c2b891f780c297348e1864109b42287871f37dbcd3dabfa3ea9e63546ceddf254c1a60975ac00000000"
    }
  ]
}