{
  "hash": "0000000023173119b46962ddaa22d7ae8ef98cf6e338be74755e4075e2920edf",
  "confirmations": 43567,
  "height": 9531,
  "version": 1,
  "versionHex": "00000001",
  "merkleroot": "dc571f762da8640ea6f1e273247bcec0a724b925ac8a05bf7eae33425a18b6e3",
  "time": 1238647020,
  "mediantime": 1238645454,
  "nonce": 2272293405,
  "bits": "1d00ffff",
  "difficulty": 1,
  "chainwork": "0000000000000000000000000000000000000000000000000000253c253c253c",
  "nTx": 1,
  "previousblockhash": "0000000090a96913e004b8f0d667acb422ee1f968c70a82c57f049e6c0ffdfca",
  "nextblockhash": "0000000084433079d0ab1d1201fed36c8116799aed2ae1d080eaf16d7b7296d2",
  "strippedsize": 216,
  "size": 216,
  "weight": 864,
  "tx": [
    {
      "txid": "dc571f762da8640ea6f1e273247bcec0a724b925ac8a05bf7eae33425a18b6e3",
      "hash": "dc571f762da8640ea6f1e273247bcec0a724b925ac8a05bf7eae33425a18b6e3",
      "version": 1,
      "size": 135,
      "vsize": 135,
      "weight": 540,
      "locktime": 0,
      "vin": [
        {
          "coinbase": "04ffff001d02c905",
          "sequence": 4294967295
        }
      ],
      "vout": [
        {
          "value": 50.0,
          "n": 0,
          "scriptPubKey": {
            "asm": "04455c7b97f53814a711046358d3cc9c352427c3e60bc120bdb5360b3efbf199e0f132001866d8e2a433bbe87614360c905a64cf2fdfbb8963f0c58e8f8913897b OP_CHECKSIG",
            "desc": "pk(04455c7b97f53814a711046358d3cc9c352427c3e60bc120bdb5360b3efbf199e0f132001866d8e2a433bbe87614360c905a64cf2fdfbb8963f0c58e8f8913897b)#zxg9t5yg",
            "hex": "4104455c7b97f53814a711046358d3cc9c352427c3e60bc120bdb5360b3efbf199e0f132001866d8e2a433bbe87614360c905a64cf2fdfbb8963f0c58e8f8913897bac",
            "type": "pubkey"
          }
        }
      ],
      "hex": "01000000010000000000000000000000000000000000000000000000000000000000000000ffffffff0804ffff001d02c905ffffffff0100f2052a01000000434104455c7b97f53814a711046358d3cc9c352427c3e60bc120bdb5360b3efbf199e0f132001866d8e2a433bbe87614360c905a64cf2fdfbb8963f0c58e8f8913897bac00000000"
    }
  ]
}