{
  "hash": "000000001420514c99839a2b4d8c7eb6686591dd0a18157deae56f1b9ff832c6",
  "confirmations": 46912,
  "height": 6186,
  "version": 1,
  "versionHex": "00000001",
  "merkleroot": "579231701c60a201daa4cfef1fd5298703cbce2844ccf78db999ec0ee127159f",
  "time": 1236080990,
  "mediantime": 1236076196,
  "nonce": 2341530910,
  "bits": "1d00ffff",
  "difficulty": 1,
  "chainwork": "0000000000000000000000000000000000000000000000000000182b182b182b",
  "nTx": 1,
  "previousblockhash": "000000000108391e7d064ad376d734d6080de67409adf46ca64b8f7d338ff7be",
  "nextblockhash": "000000008032e2398a53bba8db9a4c60fe5bca798b6f4f77e355b7be20281a4f",
  "strippedsize": 216,
  "size": 216,
  "weight": 864,
  "tx": [
    {
      "txid": "579231701c60a201daa4cfef1fd5298703cbce2844ccf78db999ec0ee127159f",
      "hash": "579231701c60a201daa4cfef1fd5298703cbce2844ccf78db999ec0ee127159f",
      "version": 1,
      "size": 135,
      "vsize": 135,
      "weight": 540,
      "locktime": 0,
      "vin": [
        {
          "coinbase": "04ffff001d024408",
          "sequence": 4294967295
        }
      ],
      "vout": [
        {
          "value": 50.0,
          "n": 0,
          "scriptPubKey": {
            "asm": "04aa9c77c95bb4d7134668682f380fb750f381b03380070a529d2912a79fc7bc81b5f3b1c02ce63f8e5140d4257d389a81578ee42db7d0816a099619aa6e89c227 OP_CHECKSIG",
            "desc": "pk(04aa9c77c95bb4d7134668682f380fb750f381b03380070a529d2912a79fc7bc81b5f3b1c02ce63f8e5140d4257d389a81578ee42db7d0816a099619aa6e89c227)#ll3j7elz",
            "hex": "4104aa9c77c95bb4d7134668682f380fb750f381b03380070a529d2912a79fc7bc81b5f3b1c02ce63f8e5140d4257d389a81578ee42db7d0816a099619aa6e89c227ac",
            "type": "pubkey"
          }
        }
      ],
      "hex": "01000000010000000000000000000000000000000000000000000000000000000000000000ffffffff0804ffff001d024408ffffffff0100f2052a01000000434104aa9c77c95bb4d7134668682f380fb750f381b03380070a529d2912a79fc7bc81b5f3b1c02ce63f8e5140d4257d389a81578ee42db7d0816a099619aa6e89c227ac00000000"
    }
  ]
}