{
  "hash": "0000000035d378f569eaac0e92e4a6133e4518dba47e4aaf3d86541a76c7c943",
  "confirmations": 46838,
  "height": 6260,
  "version": 1,
  "versionHex": "00000001",
  "merkleroot": "3fd483b0ee386f760833ffad206e86dcdfd01dc52c21dd7a48dcc256ae2d2e07",
  "time": 1236141814,
  "mediantime": 1236136347,
  "nonce": 3908249393,
  "bits": "1d00ffff",
  "difficulty": 1,
  "chainwork": "0000000000000000000000000000000000000000000000000000187518751875",
  "nTx": 1,
  "previousblockhash": "000000007f2da7d13ad58e8fcef5026c90b7c6cd9cdf31d74dfd296138e27eca",
  "nextblockhash": "000000004cc909a4fd8b26c905109985f5894b5e88a0137b0978d2ed55eff1e0",
  "strippedsize": 216,
  "size": 216,
  "weight": 864,
  "tx": [
    {
      "txid": "3fd483b0ee386f760833ffad206e86dcdfd01dc52c21dd7a48dcc256ae2d2e07",
      "hash": "3fd483b0ee386f760833ffad206e86dcdfd01dc52c21dd7a48dcc256ae2d2e07",
      "version": 1,
      "size": 135,
      "vsize": 135,
      "weight": 540,
      "locktime": 0,
      "vin": [
        {
          "coinbase": "04ffff001d02c509",
          "sequence": 4294967295
        }
      ],
      "vout": [
        {
          "value": 50.0,
          "n": 0,
          "scriptPubKey": {
            "asm": "046baa0803c8adb9019b5bf547a50c9b435f90d44ef5992ccb208b5d260b2f49d0a035346123b472a5bd34ae3c4e9d1c701e90a5ef8752ef17c160e2b6150eaee3 OP_CHECKSIG",
            "desc": "pk(046baa0803c8adb9019b5bf547a50c9b435f90d44ef5992ccb208b5d260b2f49d0a035346123b472a5bd34ae3c4e9d1c701e90a5ef8752ef17c160e2b6150eaee3)#mmcq6zvf",
            "hex": "41046baa0803c8adb9019b5bf547a50c9b435f90d44ef5992ccb208b5d260b2f49d0a035346123b472a5bd34ae3c4e9d1c701e90a5ef8752ef17c160e2b6150eaee3ac",
            "type": "pubkey"
          }
        }
      ],
      "hex": "01000000010000000000000000000000000000000000000000000000000000000000000000ffffffff0804ffff001d02c509ffffffff0100f2052a010000004341046baa0803c8adb9019b5bf547a50c9b435f90d44ef5992ccb208b5d260b2f49d0a035346123b472a5bd34ae3c4e9d1c701e90a5ef8752ef17c160e2b6150eaee3ac00000000"
    }
  ]
}