{
  "hash": "00000000d472029c58d8dd094b90f2be6ec2737bc62e9a1cabf79256af42384a",
  "confirmations": 44277,
  "height": 8821,
  "version": 1,
  "versionHex": "00000001",
  "merkleroot": "3c4770943bda1d4a695cdde7e5bd3d455af6023c69e769ef1f8de03f7b614b08",
  "time": 1238113739,
  "mediantime": 1238111209,
  "nonce": 805330441,
  "bits": "1d00ffff",
  "difficulty": 1,
  "chainwork": "0000000000000000000000000000000000000000000000000000227622762276",
  "nTx": 1,
  "previousblockhash": "00000000b4bf10a5470dad6a1f3f0dd290fb4e676fa17987908e6c0d3985bde5",
  "nextblockhash": "000000005366043b4f636d93f08b504e0217a68a1f77f849a635ec9287c1c8f0",
  "strippedsize": 216,
  "size": 216,
  "weight": 864,
  "tx": [
    {
      "txid": "3c4770943bda1d4a695cdde7e5bd3d455af6023c69e769ef1f8de03f7b614b08",
      "hash": "3c4770943bda1d4a695cdde7e5bd3d455af6023c69e769ef1f8de03f7b614b08",
      "version": 1,
      "size": 135,
      "vsize": 135,
      "weight": 540,
      "locktime": 0,
      "vin": [
        {
          "coinbase": "04ffff001d021703",
          "sequence": 4294967295
        }
      ],
      "vout": [
        {
          "value": 50.0,
          "n": 0,
          "scriptPubKey": {
            "asm": "045b7a0be8e70adccb038563ecf6efee701bf1f3887ca2d86f4b2810cd11f6108f35bf035dfe753f8d52a2984ac5e01aaec9499258d284a6359ba35b1892f0092c OP_CHECKSIG",
            "desc": "pk(045b7a0be8e70adccb038563ecf6efee701bf1f3887ca2d86f4b2810cd11f6108f35bf035dfe753f8d52a2984ac5e01aaec9499258d284a6359ba35b1892f0092c)#epyuhce4",
            "hex": "41045b7a0be8e70adccb038563ecf6efee701bf1f3887ca2d86f4b2810cd11f6108f35bf035dfe753f8d52a2984ac5e01aaec9499258d284a6359ba35b1892f0092cac",
            "type": "pubkey"
          }
        }
      ],
      "hex": "01000000010000000000000000000000000000000000000000000000000000000000000000ffffffff0804ffff001d021703ffffffff0100f2052a010000004341045b7a0be8e70adccb038563ecf6efee701bf1f3887ca2d86f4b2810cd11f6108f35bf035dfe753f8d52a2984ac5e01aaec9499258d284a6359ba35b1892f0092cac00000000"
    }
  ]
}