{
  "hash": "000000004c1c619de034b362b803027e8e0f2dafcab0ab6b8fc9913f59d9e8dc",
  "confirmations": 44167,
  "height": 8931,
  "version": 1,
  "versionHex": "00000001",
  "merkleroot": "70bf649acf77cf82d7421932d118a5d404a8244d6ad719e7bdb261f6ac1426af",
  "time": 1238202929,
  "mediantime": 1238198988,
  "nonce": 3308725274,
  "bits": "1d00ffff",
  "difficulty": 1,
  "chainwork": "000000000000000000000000000000000000000000000000000022e422e422e4",
  "nTx": 1,
  "previousblockhash": "00000000708b7636f212f961e7cba2690180d94a465f6638434294945f96560d",
  "nextblockhash": "00000000e90ca9bd8807f5dbf163877b8841aa4b69be0b3988a1f8075db9af35",
  "strippedsize": 216,
  "size": 216,
  "weight": 864,
  "tx": [
    {
      "txid": "70bf649acf77cf82d7421932d118a5d404a8244d6ad719e7bdb261f6ac1426af",
      "hash": "70bf649acf77cf82d7421932d118a5d404a8244d6ad719e7bdb261f6ac1426af",
      "version": 1,
      "size": 135,
      "vsize": 135,
      "weight": 540,
      "locktime": 0,
      "vin": [
        {
          "coinbase": "04ffff001d022e05",
          "sequence": 4294967295
        }
      ],
      "vout": [
        {
          "value": 50.0,
          "n": 0,
          "scriptPubKey": {
            "asm": "048d23699afa6fbf486c460516f3c7cb8c7c22cb4fc357ec5ef1cf6d56a71e6055265392af604425ea8b0a08fcf7a677586b3687728ce3406e362cf4cafe50d82a OP_CHECKSIG",
            "desc": "pk(048d23699afa6fbf486c460516f3c7cb8c7c22cb4fc357ec5ef1cf6d56a71e6055265392af604425ea8b0a08fcf7a677586b3687728ce3406e362cf4cafe50d82a)#crscyvk8",
            "hex": "41048d23699afa6fbf486c460516f3c7cb8c7c22cb4fc357ec5ef1cf6d56a71e6055265392af604425ea8b0a08fcf7a677586b3687728ce3406e362cf4cafe50d82aac",
            "type": "pubkey"
          }
        }
      ],
      "hex": "01000000010000000000000000000000000000000000000000000000000000000000000000ffffffff0804ffff001d022e05ffffffff0100f2052a010000004341048d23699afa6fbf486c460516f3c7cb8c7c22cb4fc357ec5ef1cf6d56a71e6055265392af604425ea8b0a08fcf7a677586b3687728ce3406e362cf4cafe50d82aac00000000"
    }
  ]
}