{
  "hash": "00000000390f30d60559c178ceaee9a3962a12918c301fd515bd1afd7e9adc07",
  "confirmations": 46325,
  "height": 6773,
  "version": 1,
  "versionHex": "00000001",
  "merkleroot": "be9d1ae033b0b003c2b63ec72b9429ee6641e6fe11724a4afcdb9f1c2ef1bdf7",
  "time": 1236539162,
  "mediantime": 1236535670,
  "nonce": 768795442,
  "bits": "1d00ffff",
  "difficulty": 1,
  "chainwork": "00000000000000000000000000000000000000000000000000001a761a761a76",
  "nTx": 1,
  "previousblockhash": "00000000f03dc0954fa8b920fca34258c1f84c5b4bb89b5c1198ad23a1332cd7",
  "nextblockhash": "00000000e3d54bc8d811f23952e3544a33e3de7713cd31120ed743938edc78a6",
  "strippedsize": 216,
  "size": 216,
  "weight": 864,
  "tx": [
    {
      "txid": "be9d1ae033b0b003c2b63ec72b9429ee6641e6fe11724a4afcdb9f1c2ef1bdf7",
      "hash": "be9d1ae033b0b003c2b63ec72b9429ee6641e6fe11724a4afcdb9f1c2ef1bdf7",
      "version": 1,
      "size": 135,
      "vsize": 135,
      "weight": 540,
      "locktime": 0,
      "vin": [
        {
          "coinbase": "04ffff001d026d08",
          "sequence": 4294967295
        }
      ],
      "vout": [
        {
          "value": 50.0,
          "n": 0,
          "scriptPubKey": {
            "asm": "047eb299692566471903bb1445b0d61b2338edb480809ae0c4bf30a6a4f9f19ffef2fb3e03c0c66c658f6fc0bfd1edce75f0a64e1412174323d12c97eaffee20b0 OP_CHECKSIG",
            "desc": "pk(047eb299692566471903bb1445b0d61b2338edb480809ae0c4bf30a6a4f9f19ffef2fb3e03c0c66c658f6fc0bfd1edce75f0a64e1412174323d12c97eaffee20b0)#ls78u0h6",
            "hex": "41047eb299692566471903bb1445b0d61b2338edb480809ae0c4bf30a6a4f9f19ffef2fb3e03c0c66c658f6fc0bfd1edce75f0a64e1412174323d12c97eaffee20b0ac",
            "type": "pubkey"
          }
        }
      ],
      "hex": "01000000010000000000000000000000000000000000000000000000000000000000000000ffffffff0804ffff001d026d08ffffffff0100f2052a010000004341047eb299692566471903bb1445b0d61b2338edb480809ae0c4bf30a6a4f9f19ffef2fb3e03c0c66c658f6fc0bfd1edce75f0a64e1412174323d12c97eaffee20b0ac00000000"
    }
  ]
}