{
  "hash": "00000000a46280322a5e34342d7cbe4c9709e1e99ddc522da0713459e5045c3c",
  "confirmations": 51995,
  "height": 1103,
  "version": 1,
  "versionHex": "00000001",
  "merkleroot": "1235dfad49b7a7f50492e7ef1ba8d4cf1652ee8e3c2ff88fc827acde3e251533",
  "time": 1232425891,
  "mediantime": 1232421724,
  "nonce": 2348851201,
  "bits": "1d00ffff",
  "difficulty": 1,
  "chainwork": "0000000000000000000000000000000000000000000000000000045004500450",
  "nTx": 1,
  "previousblockhash": "00000000e642f04d2f57d1d8fb6ff0c1814c5f65e6d72de5c3dd2d7319e9beb0",
  "nextblockhash": "00000000e6a38b6f334f7c43e4e17dff29226d894be3eff2782f82e73598a0a5",
  "strippedsize": 216,
  "size": 216,
  "weight": 864,
  "tx": [
    {
      "txid": "1235dfad49b7a7f50492e7ef1ba8d4cf1652ee8e3c2ff88fc827acde3e251533",
      "hash": "1235dfad49b7a7f50492e7ef1ba8d4cf1652ee8e3c2ff88fc827acde3e251533",
      "version": 1,
      "size": 135,
      "vsize": 135,
      "weight": 540,
      "locktime": 0,
      "vin": [
        {
          "coinbase": "04ffff001d022807",
          "sequence": 4294967295
        }
      ],
      "vout": [
        {
          "value": 50.0,
          "n": 0,
          "scriptPubKey": {
            "asm": "0428ef006f817591d553ff5581b38a6443a7d87376f78198f8ea360eec0ffc79bc947c61217c5d3d60a872e1514bafb8011f62aba8bc3b6860c4e5daa5769ae9a9 OP_CHECKSIG",
            "desc": "pk(0428ef006f817591d553ff5581b38a6443a7d87376f78198f8ea360eec0ffc79bc947c61217c5d3d60a872e1514bafb8011f62aba8bc3b6860c4e5daa5769ae9a9)#eqhs2nrp",
            "hex": "410428ef006f817591d553ff5581b38a6443a7d87376f78198f8ea360eec0ffc79bc947c61217c5d3d60a872e1514bafb8011f62aba8bc3b6860c4e5daa5769ae9a9ac",
            "type": "pubkey"
          }
        }
      ],
      "hex": "01000000010000000000000000000000000000000000000000000000000000000000000000ffffffff0804ffff001d022807ffffffff0100f2052a0100000043410428ef006f817591d553ff5581b38a6443a7d87376f78198f8ea360eec0ffc79bc947c61217c5d3d60a872e1514bafb8011f62aba8bc3b6860c4e5daa5769ae9a9ac00000000"
    }
  ]
}