{
  "hash": "000000008e5da1aa58d17da1bbc95e9b032714e7ea7831e82f2830bf97dc38e7",
  "confirmations": 52192,
  "height": 429,
  "version": 1,
  "versionHex": "00000001",
  "merkleroot": "d4742a2b7d439bdcf69b447f21b1eb7d5a4fe7d4581fbbb7374fb435e1360808",
  "time": 1231922041,
  "mediantime": 1231917703,
  "nonce": 1675013635,
  "bits": "1d00ffff",
  "difficulty": 1,
  "chainwork": "000000000000000000000000000000000000000000000000000001ae01ae01ae",
  "nTx": 1,
  "previousblockhash": "00000000ee39e13fe7c693ada69c543501a6dabd5ef2f72d56a43c1e906f795f",
  "nextblockhash": "00000000f57b8d9a6585b22868e8729515a4ce7c466a4b8713317a90fefdcd59",
  "strippedsize": 216,
  "size": 216,
  "weight": 864,
  "tx": [
    {
      "txid": "d4742a2b7d439bdcf69b447f21b1eb7d5a4fe7d4581fbbb7374fb435e1360808",
      "hash": "d4742a2b7d439bdcf69b447f21b1eb7d5a4fe7d4581fbbb7374fb435e1360808",
      "version": 1,
      "size": 135,
      "vsize": 135,
      "weight": 540,
      "locktime": 0,
      "vin": [
        {
          "coinbase": "04ffff001d023403",
          "sequence": 4294967295
        }
      ],
      "vout": [
        {
          "value": 50.0,
          "n": 0,
          "scriptPubKey": {
            "asm": "0445f05d741aa05fd580ba8483cfaa7d4d6b3ae48082e386e685c9ec027d3eedab195d95a32daa7acad29831c6bfc02f5ce30a20e94aeab3f118f53ccf1cd68e94 OP_CHECKSIG",
            "desc": "pk(0445f05d741aa05fd580ba8483cfaa7d4d6b3ae48082e386e685c9ec027d3eedab195d95a32daa7acad29831c6bfc02f5ce30a20e94aeab3f118f53ccf1cd68e94)#6qzxqt6j",
            "hex": "410445f05d741aa05fd580ba8483cfaa7d4d6b3ae48082e386e685c9ec027d3eedab195d95a32daa7acad29831c6bfc02f5ce30a20e94aeab3f118f53ccf1cd68e94ac",
            "type": "pubkey"
          }
        }
      ],
      "hex": "01000000010000000000000000000000000000000000000000000000000000000000000000ffffffff0804ffff001d023403ffffffff0100f2052a0100000043410445f05d741aa05fd580ba8483cfaa7d4d6b3ae48082e386e685c9ec027d3eedab195d95a32daa7acad29831c6bfc02f5ce30a20e94aeab3f118f53ccf1cd68e94ac00000000"
    }
  ]
}