{
  "hash": "0000000033007eebe850fce87336cb64f5a8452462336837a99e020eb356b87a",
  "confirmations": 44568,
  "height": 8530,
  "version": 1,
  "versionHex": "00000001",
  "merkleroot": "dee0bf608e9604e08769a8011d699b09153902a2cebb139037a595adeb93bb8d",
  "time": 1237896909,
  "mediantime": 1237892636,
  "nonce": 67030540,
  "bits": "1d00ffff",
  "difficulty": 1,
  "chainwork": "0000000000000000000000000000000000000000000000000000215321532153",
  "nTx": 1,
  "previousblockhash": "00000000f9f4a155d9b911c01b3ae6f10a02ce3a0aa16946be72dfd5acbb6192",
  "nextblockhash": "000000000c171e4cf4db44ee5c88f7a6f767bf4db349e90c53d4c2ea26fbe796",
  "strippedsize": 216,
  "size": 216,
  "weight": 864,
  "tx": [
    {
      "txid": "dee0bf608e9604e08769a8011d699b09153902a2cebb139037a595adeb93bb8d",
      "hash": "dee0bf608e9604e08769a8011d699b09153902a2cebb139037a595adeb93bb8d",
      "version": 1,
      "size": 135,
      "vsize": 135,
      "weight": 540,
      "locktime": 0,
      "vin": [
        {
          "coinbase": "04ffff001d02d800",
          "sequence": 4294967295
        }
      ],
      "vout": [
        {
          "value": 50.0,
          "n": 0,
          "scriptPubKey": {
            "asm": "047071d0cb315dc05e33a8db8fd4d4920b126da9f794b8a60f14141b0b690a3b083add02d5db3c6ae28be945ef655eeaec42bb28af4cea8991f7ea44f8afce77a5 OP_CHECKSIG",
            "desc": "pk(047071d0cb315dc05e33a8db8fd4d4920b126da9f794b8a60f14141b0b690a3b083add02d5db3c6ae28be945ef655eeaec42bb28af4cea8991f7ea44f8afce77a5)#uj4gtzw5",
            "hex": "41047071d0cb315dc05e33a8db8fd4d4920b126da9f794b8a60f14141b0b690a3b083add02d5db3c6ae28be945ef655eeaec42bb28af4cea8991f7ea44f8afce77a5ac",
            "type": "pubkey"
          }
        }
      ],
      "hex": "01000000010000000000000000000000000000000000000000000000000000000000000000ffffffff0804ffff001d02d800ffffffff0100f2052a010000004341047071d0cb315dc05e33a8db8fd4d4920b126da9f794b8a60f14141b0b690a3b083add02d5db3c6ae28be945ef655eeaec42bb28af4cea8991f7ea44f8afce77a5ac00000000"
    }
  ]
}