{
  "hash": "0000000075bd3a19133a1805c5881d6efb95115c470629d2a1c872cd7111d987",
  "confirmations": 50658,
  "height": 2440,
  "version": 1,
  "versionHex": "00000001",
  "merkleroot": "15f74420d690ea9e199581c305f8a7156a0554c940773581c2cee5d1bbd9c648",
  "time": 1233385844,
  "mediantime": 1233381091,
  "nonce": 110886885,
  "bits": "1d00ffff",
  "difficulty": 1,
  "chainwork": "0000000000000000000000000000000000000000000000000000098909890989",
  "nTx": 1,
  "previousblockhash": "00000000716ec65a3944e4282b67d65a91e42271ec199270ab782c80ac182704",
  "nextblockhash": "0000000074da83bbe5295d0bcf0b14f98b74272619b381545179f6655c54f363",
  "strippedsize": 216,
  "size": 216,
  "weight": 864,
  "tx": [
    {
      "txid": "15f74420d690ea9e199581c305f8a7156a0554c940773581c2cee5d1bbd9c648",
      "hash": "15f74420d690ea9e199581c305f8a7156a0554c940773581c2cee5d1bbd9c648",
      "version": 1,
      "size": 135,
      "vsize": 135,
      "weight": 540,
      "locktime": 0,
      "vin": [
        {
          "coinbase": "04ffff001d02f504",
          "sequence": 4294967295
        }
      ],
      "vout": [
        {
          "value": 50.0,
          "n": 0,
          "scriptPubKey": {
            "asm": "04918b1868f0acf219f3d74c44f0ec27896e89092b510bc343fe792700fe0f98059518b0be1507a57288a119a1e590c674da6704ceda41554c21a3827962950cc0 OP_CHECKSIG",
            "desc": "pk(04918b1868f0acf219f3d74c44f0ec27896e89092b510bc343fe792700fe0f98059518b0be1507a57288a119a1e590c674da6704ceda41554c21a3827962950cc0)#3ydkzfg3",
            "hex": "4104918b1868f0acf219f3d74c44f0ec27896e89092b510bc343fe792700fe0f98059518b0be1507a57288a119a1e590c674da6704ceda41554c21a3827962950cc0ac",
            "type": "pubkey"
          }
        }
      ],
      "hex": "01000000010000000000000000000000000000000000000000000000000000000000000000ffffffff0804ffff001d02f504ffffffff0100f2052a01000000434104918b1868f0acf219f3d74c44f0ec27896e89092b510bc343fe792700fe0f98059518b0be1507a57288a119a1e590c674da6704ceda41554c21a3827962950cc0ac00000000"
    }
  ]
}