{
  "hash": "000000003efb05c7162004191c14b1586054b7628bcc6992fb8415fafb17242c",
  "confirmations": 45528,
  "height": 7570,
  "version": 1,
  "versionHex": "00000001",
  "merkleroot": "1887d0ad38ddde9e404a8a5dd8b947ad6e517f287fdc4b43afacda61e34df19c",
  "time": 1237149068,
  "mediantime": 1237147711,
  "nonce": 323928884,
  "bits": "1d00ffff",
  "difficulty": 1,
  "chainwork": "00000000000000000000000000000000000000000000000000001d931d931d93",
  "nTx": 1,
  "previousblockhash": "000000003f6477514d77ea3f1b068f4aa7f310631a9bad490d9c6fdcd1322f4b",
  "nextblockhash": "00000000c24b5993eb0426eb291351037788c32543276f2a8c22c370d4a87bb9",
  "strippedsize": 216,
  "size": 216,
  "weight": 864,
  "tx": [
    {
      "txid": "1887d0ad38ddde9e404a8a5dd8b947ad6e517f287fdc4b43afacda61e34df19c",
      "hash": "1887d0ad38ddde9e404a8a5dd8b947ad6e517f287fdc4b43afacda61e34df19c",
      "version": 1,
      "size": 135,
      "vsize": 135,
      "weight": 540,
      "locktime": 0,
      "vin": [
        {
          "coinbase": "04ffff001d022e02",
          "sequence": 4294967295
        }
      ],
      "vout": [
        {
          "value": 50.0,
          "n": 0,
          "scriptPubKey": {
            "asm": "0469f8324922f9a8139e6472d7e0bbd2a78c8b4e2c707ceb42b995d91ee5462e27903cdb21dbd465924c47d126fde79e31cff00125c0ed98d0ccb8a905cc668e74 OP_CHECKSIG",
            "desc": "pk(0469f8324922f9a8139e6472d7e0bbd2a78c8b4e2c707ceb42b995d91ee5462e27903cdb21dbd465924c47d126fde79e31cff00125c0ed98d0ccb8a905cc668e74)#c7my6wqc",
            "hex": "410469f8324922f9a8139e6472d7e0bbd2a78c8b4e2c707ceb42b995d91ee5462e27903cdb21dbd465924c47d126fde79e31cff00125c0ed98d0ccb8a905cc668e74ac",
            "type": "pubkey"
          }
        }
      ],
      "hex": "01000000010000000000000000000000000000000000000000000000000000000000000000ffffffff0804ffff001d022e02ffffffff0100f2052a0100000043410469f8324922f9a8139e6472d7e0bbd2a78c8b4e2c707ceb42b995d91ee5462e27903cdb21dbd465924c47d126fde79e31cff00125c0ed98d0ccb8a905cc668e74ac00000000"
    }
  ]
}