{
  "hash": "0000000060b58697f3a10a67d94f7437b734cbc761c80c79516c314ceca2811d",
  "confirmations": 44807,
  "height": 8291,
  "version": 1,
  "versionHex": "00000001",
  "merkleroot": "f5045f741ebae621bb76db51238eda6e87c78b462d6474d51ba1f17ce0333b99",
  "time": 1237724458,
  "mediantime": 1237722132,
  "nonce": 80380276,
  "bits": "1d00ffff",
  "difficulty": 1,
  "chainwork": "0000000000000000000000000000000000000000000000000000206420642064",
  "nTx": 1,
  "previousblockhash": "00000000caa0e60be223d5b7cfe335d6742ddb3f4006a2cb5a81d02e2d2884de",
  "nextblockhash": "000000002d6177898bde5832f2e6cad7d0f31511dd84a021b8b26ae1e546df1e",
  "strippedsize": 216,
  "size": 216,
  "weight": 864,
  "tx": [
    {
      "txid": "f5045f741ebae621bb76db51238eda6e87c78b462d6474d51ba1f17ce0333b99",
      "hash": "f5045f741ebae621bb76db51238eda6e87c78b462d6474d51ba1f17ce0333b99",
      "version": 1,
      "size": 135,
      "vsize": 135,
      "weight": 540,
      "locktime": 0,
      "vin": [
        {
          "coinbase": "04ffff001d022a01",
          "sequence": 4294967295
        }
      ],
      "vout": [
        {
          "value": 50.0,
          "n": 0,
          "scriptPubKey": {
            "asm": "0421a6549d36ae759b8314bf7288a498432145d86fd48a2300c0880101df9272332836115910d5941625c3026a1738a05f4043678124cf100e1655fe4ae4bc606b OP_CHECKSIG",
            "desc": "pk(0421a6549d36ae759b8314bf7288a498432145d86fd48a2300c0880101df9272332836115910d5941625c3026a1738a05f4043678124cf100e1655fe4ae4bc606b)#xnrvr8zg",
            "hex": "410421a6549d36ae759b8314bf7288a498432145d86fd48a2300c0880101df9272332836115910d5941625c3026a1738a05f4043678124cf100e1655fe4ae4bc606bac",
            "type": "pubkey"
          }
        }
      ],
      "hex": "01000000010000000000000000000000000000000000000000000000000000000000000000ffffffff0804ffff001d022a01ffffffff0100f2052a0100000043410421a6549d36ae759b8314bf7288a498432145d86fd48a2300c0880101df9272332836115910d5941625c3026a1738a05f4043678124cf100e1655fe4ae4bc606bac00000000"
    }
  ]
}