{
  "hash": "00000000181b4b6c7932fa9d7eabab8922cfe7bf6562d8074becf20fdf58d41d",
  "confirmations": 46414,
  "height": 6684,
  "version": 1,
  "versionHex": "00000001",
  "merkleroot": "248603b71b4556112be217363cb6d7914cbbed3847710bf4fe5f474eff282913",
  "time": 1236470846,
  "mediantime": 1236466648,
  "nonce": 1349162552,
  "bits": "1d00ffff",
  "difficulty": 1,
  "chainwork": "00000000000000000000000000000000000000000000000000001a1d1a1d1a1d",
  "nTx": 1,
  "previousblockhash": "0000000081b33893a9c9bfad1c8cc1d86194501000482a02f30523620eb096d5",
  "nextblockhash": "00000000ac7255079662cfc025a1b7c185dcd99e085f31c4c2f00e6a3e35d240",
  "strippedsize": 216,
  "size": 216,
  "weight": 864,
  "tx": [
    {
      "txid": "248603b71b4556112be217363cb6d7914cbbed3847710bf4fe5f474eff282913",
      "hash": "248603b71b4556112be217363cb6d7914cbbed3847710bf4fe5f474eff282913",
      "version": 1,
      "size": 135,
      "vsize": 135,
      "weight": 540,
      "locktime": 0,
      "vin": [
        {
          "coinbase": "04ffff001d02ac06",
          "sequence": 4294967295
        }
      ],
      "vout": [
        {
          "value": 50.0,
          "n": 0,
          "scriptPubKey": {
            "asm": "04acf66d19211667033ad4c146b05de53466f289f498b8cbe5a9bdcde5388408177bf8208b01cabe2834923409349742c6b03361914fe260224b238010458cc4a2 OP_CHECKSIG",
            "desc": "pk(04acf66d19211667033ad4c146b05de53466f289f498b8cbe5a9bdcde5388408177bf8208b01cabe2834923409349742c6b03361914fe260224b238010458cc4a2)#8pnheuqq",
            "hex": "4104acf66d19211667033ad4c146b05de53466f289f498b8cbe5a9bdcde5388408177bf8208b01cabe2834923409349742c6b03361914fe260224b238010458cc4a2ac",
            "type": "pubkey"
          }
        }
      ],
      "hex": "01000000010000000000000000000000000000000000000000000000000000000000000000ffffffff0804ffff001d02ac06ffffffff0100f2052a01000000434104acf66d19211667033ad4c146b05de53466f289f498b8cbe5a9bdcde5388408177bf8208b01cabe2834923409349742c6b03361914fe260224b238010458cc4a2ac00000000"
    }
  ]
}