{
  "hash": "0000000000d3f53438446e9b4d4d1856f563667fb1e17730b7c1e4b9dcc00b30",
  "confirmations": 50308,
  "height": 2790,
  "version": 1,
  "versionHex": "00000001",
  "merkleroot": "9b4156ceddfd64145b604c5cad60d06b5236d13d322b7988cdd815b6032e185e",
  "time": 1233622188,
  "mediantime": 1233620088,
  "nonce": 20057199,
  "bits": "1d00ffff",
  "difficulty": 1,
  "chainwork": "00000000000000000000000000000000000000000000000000000ae70ae70ae7",
  "nTx": 1,
  "previousblockhash": "0000000049bfe5a11e376a59f062e59282c8068a70edf1c82088f3aa3e4b6aef",
  "nextblockhash": "00000000323adbc5d0bb84492f56f1096dbd22eedb7a8cb535fd8ad69b3ecfa0",
  "strippedsize": 215,
  "size": 215,
  "weight": 860,
  "tx": [
    {
      "txid": "9b4156ceddfd64145b604c5cad60d06b5236d13d322b7988cdd815b6032e185e",
      "hash": "9b4156ceddfd64145b604c5cad60d06b5236d13d322b7988cdd815b6032e185e",
      "version": 1,
      "size": 134,
      "vsize": 134,
      "weight": 536,
      "locktime": 0,
      "vin": [
        {
          "coinbase": "04ffff001d0121",
          "sequence": 4294967295
        }
      ],
      "vout": [
        {
          "value": 50.0,
          "n": 0,
          "scriptPubKey": {
            "asm": "048fed25836ca6e0c3031b2e2835c20505cf53c339faa6fcca918539fef557d0da0ee96c0555d25dc6a20016aa01559cfa582087adfb949a6f4c40ed489b142a27 OP_CHECKSIG",
            "desc": "pk(048fed25836ca6e0c3031b2e2835c20505cf53c339faa6fcca918539fef557d0da0ee96c0555d25dc6a20016aa01559cfa582087adfb949a6f4c40ed489b142a27)#gknamvk3",
            "hex": "41048fed25836ca6e0c3031b2e2835c20505cf53c339faa6fcca918539fef557d0da0ee96c0555d25dc6a20016aa01559cfa582087adfb949a6f4c40ed489b142a27ac",
            "type": "pubkey"
          }
        }
      ],
      "hex": "01000000010000000000000000000000000000000000000000000000000000000000000000ffffffff0704ffff001d0121ffffffff0100f2052a010000004341048fed25836ca6e0c3031b2e2835c20505cf53c339faa6fcca918539fef557d0da0ee96c0555d25dc6a20016aa01559cfa582087adfb949a6f4c40ed489b142a27ac00000000"
    }
  ]
}