{
  "hash": "00000000ff6a75efa096d7040538a5944eb0ef351b01f6a8871d92de5a9a1dc4",
  "confirmations": 45129,
  "height": 7969,
  "version": 1,
  "versionHex": "00000001",
  "merkleroot": "79954db78423ecfcf30ede96077293517d49dfa9b1a229681a035499a987d767",
  "time": 1237441615,
  "mediantime": 1237437011,
  "nonce": 2052381975,
  "bits": "1d00ffff",
  "difficulty": 1,
  "chainwork": "00000000000000000000000000000000000000000000000000001f221f221f22",
  "nTx": 1,
  "previousblockhash": "00000000ef518f0c1cfa351a02ad267f83a1165d959ce1d757b138e1cfea4f0f",
  "nextblockhash": "000000001e91f3ce43e11e87e7764f442b617d502b8526f5ffe3bb6a573f68f9",
  "strippedsize": 216,
  "size": 216,
  "weight": 864,
  "tx": [
    {
      "txid": "79954db78423ecfcf30ede96077293517d49dfa9b1a229681a035499a987d767",
      "hash": "79954db78423ecfcf30ede96077293517d49dfa9b1a229681a035499a987d767",
      "version": 1,
      "size": 135,
      "vsize": 135,
      "weight": 540,
      "locktime": 0,
      "vin": [
        {
          "coinbase": "04ffff001d02ce08",
          "sequence": 4294967295
        }
      ],
      "vout": [
        {
          "value": 50.0,
          "n": 0,
          "scriptPubKey": {
            "asm": "044b5e42021cae5351b92bbf03cf825b191bba232410adb6d18fb708930a00ff1d37590fb878e593d440f56a63bb2d5e939a0df02e38daa1c15a65ad9df6907ad9 OP_CHECKSIG",
            "desc": "pk(044b5e42021cae5351b92bbf03cf825b191bba232410adb6d18fb708930a00ff1d37590fb878e593d440f56a63bb2d5e939a0df02e38daa1c15a65ad9df6907ad9)#k6u7y6m5",
            "hex": "41044b5e42021cae5351b92bbf03cf825b191bba232410adb6d18fb708930a00ff1d37590fb878e593d440f56a63bb2d5e939a0df02e38daa1c15a65ad9df6907ad9ac",
            "type": "pubkey"
          }
        }
      ],
      "hex": "01000000010000000000000000000000000000000000000000000000000000000000000000ffffffff0804ffff001d02ce08ffffffff0100f2052a010000004341044b5e42021cae5351b92bbf03cf825b191bba232410adb6d18fb708930a00ff1d37590fb878e593d440f56a63bb2d5e939a0df02e38daa1c15a65ad9df6907ad9ac00000000"
    }
  ]
}