{
  "hash": "00000000fd9f9cbf5adbd0bce44f491720d8052a37895fa72e0773bd0f196970",
  "confirmations": 43733,
  "height": 9365,
  "version": 1,
  "versionHex": "00000001",
  "merkleroot": "9a97d76b13ff0f72624afea6907cd2f67f81b5559313aba6af0efa3a94486c8f",
  "time": 1238522020,
  "mediantime": 1238518093,
  "nonce": 2645150753,
  "bits": "1d00ffff",
  "difficulty": 1,
  "chainwork": "0000000000000000000000000000000000000000000000000000249624962496",
  "nTx": 1,
  "previousblockhash": "00000000b81fc0db6199e9bc6f05284a660ad54c19e2b4edabdf45567b33b844",
  "nextblockhash": "00000000d369b00038746b0d8c11eede8effb6577b5be268bfdcbd96e23f00f8",
  "strippedsize": 216,
  "size": 216,
  "weight": 864,
  "tx": [
    {
      "txid": "9a97d76b13ff0f72624afea6907cd2f67f81b5559313aba6af0efa3a94486c8f",
      "hash": "9a97d76b13ff0f72624afea6907cd2f67f81b5559313aba6af0efa3a94486c8f",
      "version": 1,
      "size": 135,
      "vsize": 135,
      "weight": 540,
      "locktime": 0,
      "vin": [
        {
          "coinbase": "04ffff001d02d402",
          "sequence": 4294967295
        }
      ],
      "vout": [
        {
          "value": 50.0,
          "n": 0,
          "scriptPubKey": {
            "asm": "0466d4f61d512f5db61caffc0eef61361631556fb998c92be93123d72500df3ba39d3b785925e84f4b4217d5f4323f602ee6cdc1ae1b7b537238801570fc0962d5 OP_CHECKSIG",
            "desc": "pk(0466d4f61d512f5db61caffc0eef61361631556fb998c92be93123d72500df3ba39d3b785925e84f4b4217d5f4323f602ee6cdc1ae1b7b537238801570fc0962d5)#mfd8am9p",
            "hex": "410466d4f61d512f5db61caffc0eef61361631556fb998c92be93123d72500df3ba39d3b785925e84f4b4217d5f4323f602ee6cdc1ae1b7b537238801570fc0962d5ac",
            "type": "pubkey"
          }
        }
      ],
      "hex": "01000000010000000000000000000000000000000000000000000000000000000000000000ffffffff0804ffff001d02d402ffffffff0100f2052a0100000043410466d4f61d512f5db61caffc0eef61361631556fb998c92be93123d72500df3ba39d3b785925e84f4b4217d5f4323f602ee6cdc1ae1b7b537238801570fc0962d5ac00000000"
    }
  ]
}