{
  "hash": "000000003f6477514d77ea3f1b068f4aa7f310631a9bad490d9c6fdcd1322f4b",
  "confirmations": 45529,
  "height": 7569,
  "version": 1,
  "versionHex": "00000001",
  "merkleroot": "7a244b55583afa08ce3240aa6111116e1bb8c8a3f72ab31ea1f7c109e12ec129",
  "time": 1237148700,
  "mediantime": 1237147530,
  "nonce": 15108946,
  "bits": "1d00ffff",
  "difficulty": 1,
  "chainwork": "00000000000000000000000000000000000000000000000000001d921d921d92",
  "nTx": 1,
  "previousblockhash": "00000000fc24d06bcf81dbc9a4e24c612bb7535c340260c152e0d854e97ea82b",
  "nextblockhash": "000000003efb05c7162004191c14b1586054b7628bcc6992fb8415fafb17242c",
  "strippedsize": 216,
  "size": 216,
  "weight": 864,
  "tx": [
    {
      "txid": "7a244b55583afa08ce3240aa6111116e1bb8c8a3f72ab31ea1f7c109e12ec129",
      "hash": "7a244b55583afa08ce3240aa6111116e1bb8c8a3f72ab31ea1f7c109e12ec129",
      "version": 1,
      "size": 135,
      "vsize": 135,
      "weight": 540,
      "locktime": 0,
      "vin": [
        {
          "coinbase": "04ffff001d02f401",
          "sequence": 4294967295
        }
      ],
      "vout": [
        {
          "value": 50.0,
          "n": 0,
          "scriptPubKey": {
            "asm": "044d7008b5902533a022a7b4f3a636e97d911a1f19d57f53407345f3ae3fcd7ace3a4b4919e988d951d3c019f05923de670054532708714e69d243fb75a4aab58e OP_CHECKSIG",
            "desc": "pk(044d7008b5902533a022a7b4f3a636e97d911a1f19d57f53407345f3ae3fcd7ace3a4b4919e988d951d3c019f05923de670054532708714e69d243fb75a4aab58e)#ulya703r",
            "hex": "41044d7008b5902533a022a7b4f3a636e97d911a1f19d57f53407345f3ae3fcd7ace3a4b4919e988d951d3c019f05923de670054532708714e69d243fb75a4aab58eac",
            "type": "pubkey"
          }
        }
      ],
      "hex": "01000000010000000000000000000000000000000000000000000000000000000000000000ffffffff0804ffff001d02f401ffffffff0100f2052a010000004341044d7008b5902533a022a7b4f3a636e97d911a1f19d57f53407345f3ae3fcd7ace3a4b4919e988d951d3c019f05923de670054532708714e69d243fb75a4aab58eac00000000"
    }
  ]
}