{
  "hash": "000000008a12b1df85d2a7549a789e9ffb47d74e5a513c20db7424a7662e9071",
  "confirmations": 50386,
  "height": 2712,
  "version": 1,
  "versionHex": "00000001",
  "merkleroot": "91fe04f180e9b5ad32d2a8508247a9b55fb69c1f499f4dfec374b5d2c8136015",
  "time": 1233572031,
  "mediantime": 1233565865,
  "nonce": 667371287,
  "bits": "1d00ffff",
  "difficulty": 1,
  "chainwork": "00000000000000000000000000000000000000000000000000000a990a990a99",
  "nTx": 1,
  "previousblockhash": "00000000799e1ddaa6d0f89314128d23c07cff013f90180f425e6c6ca21cb0c3",
  "nextblockhash": "00000000ff96cede2dbfdf69a0a88c800f3ed9c1130201777090103de9afa7e6",
  "strippedsize": 216,
  "size": 216,
  "weight": 864,
  "tx": [
    {
      "txid": "91fe04f180e9b5ad32d2a8508247a9b55fb69c1f499f4dfec374b5d2c8136015",
      "hash": "91fe04f180e9b5ad32d2a8508247a9b55fb69c1f499f4dfec374b5d2c8136015",
      "version": 1,
      "size": 135,
      "vsize": 135,
      "weight": 540,
      "locktime": 0,
      "vin": [
        {
          "coinbase": "04ffff001d02e504",
          "sequence": 4294967295
        }
      ],
      "vout": [
        {
          "value": 50.0,
          "n": 0,
          "scriptPubKey": {
            "asm": "04692ef7ad45bfeb83a02796c4377105a2981a7c959c4c1a8fdb6a31b9731fc5d5993a47fb1d18c0072347225a290f395f8d94110dd065f4d2024b9e72f08b8320 OP_CHECKSIG",
            "desc": "pk(04692ef7ad45bfeb83a02796c4377105a2981a7c959c4c1a8fdb6a31b9731fc5d5993a47fb1d18c0072347225a290f395f8d94110dd065f4d2024b9e72f08b8320)#qfnl06t6",
            "hex": "4104692ef7ad45bfeb83a02796c4377105a2981a7c959c4c1a8fdb6a31b9731fc5d5993a47fb1d18c0072347225a290f395f8d94110dd065f4d2024b9e72f08b8320ac",
            "type": "pubkey"
          }
        }
      ],
      "hex": "01000000010000000000000000000000000000000000000000000000000000000000000000ffffffff0804ffff001d02e504ffffffff0100f2052a01000000434104692ef7ad45bfeb83a02796c4377105a2981a7c959c4c1a8fdb6a31b9731fc5d5993a47fb1d18c0072347225a290f395f8d94110dd065f4d2024b9e72f08b8320ac00000000"
    }
  ]
}