{
  "hash": "000000007baf5b168d8911a7c0154b7d39bb6ccfb82adc90fc6491fd56d1df26",
  "confirmations": 45162,
  "height": 7936,
  "version": 1,
  "versionHex": "00000001",
  "merkleroot": "d1bddec7c34cab02c8656e031041615c63a474b7edfc399ace61cc0e609d965e",
  "time": 1237417527,
  "mediantime": 1237414851,
  "nonce": 2626665253,
  "bits": "1d00ffff",
  "difficulty": 1,
  "chainwork": "00000000000000000000000000000000000000000000000000001f011f011f01",
  "nTx": 1,
  "previousblockhash": "00000000073051578e1080651be449b2bcc60132e004d6e4e739b12852b4306e",
  "nextblockhash": "00000000248dab90b33164a7f22f5c1cfc93da5d8e43ea86d1b888f4707c6baf",
  "strippedsize": 216,
  "size": 216,
  "weight": 864,
  "tx": [
    {
      "txid": "d1bddec7c34cab02c8656e031041615c63a474b7edfc399ace61cc0e609d965e",
      "hash": "d1bddec7c34cab02c8656e031041615c63a474b7edfc399ace61cc0e609d965e",
      "version": 1,
      "size": 135,
      "vsize": 135,
      "weight": 540,
      "locktime": 0,
      "vin": [
        {
          "coinbase": "04ffff001d024908",
          "sequence": 4294967295
        }
      ],
      "vout": [
        {
          "value": 50.0,
          "n": 0,
          "scriptPubKey": {
            "asm": "04b78f4060e7630a4e71ab7f1d468cff128bda49a401640c36046d1d18fe413a4988c793555ccf498dd4415a561efb94ca2e7ef8688cbf8bfd3c0a2303fc1321f2 OP_CHECKSIG",
            "desc": "pk(04b78f4060e7630a4e71ab7f1d468cff128bda49a401640c36046d1d18fe413a4988c793555ccf498dd4415a561efb94ca2e7ef8688cbf8bfd3c0a2303fc1321f2)#xsy6svp0",
            "hex": "4104b78f4060e7630a4e71ab7f1d468cff128bda49a401640c36046d1d18fe413a4988c793555ccf498dd4415a561efb94ca2e7ef8688cbf8bfd3c0a2303fc1321f2ac",
            "type": "pubkey"
          }
        }
      ],
      "hex": "01000000010000000000000000000000000000000000000000000000000000000000000000ffffffff0804ffff001d024908ffffffff0100f2052a01000000434104b78f4060e7630a4e71ab7f1d468cff128bda49a401640c36046d1d18fe413a4988c793555ccf498dd4415a561efb94ca2e7ef8688cbf8bfd3c0a2303fc1321f2ac00000000"
    }
  ]
}