{
  "hash": "000000004e71854ee6867086bc5870c4d88b7ea470fc0a46b2f3091a6b490e25",
  "confirmations": 51610,
  "height": 1488,
  "version": 1,
  "versionHex": "00000001",
  "merkleroot": "ef53d8df12cad01a1e64dc4ccfe9c622b31e5eff44dbd20f21dabc9db320b503",
  "time": 1232762360,
  "mediantime": 1232760541,
  "nonce": 2535765806,
  "bits": "1d00ffff",
  "difficulty": 1,
  "chainwork": "000000000000000000000000000000000000000000000000000005d105d105d1",
  "nTx": 1,
  "previousblockhash": "0000000067ee90b45db11656beafa2968a4caaf966fd6fecfca909495a63a47f",
  "nextblockhash": "000000006b1f5dc15511fafc195ed3397c191ef1298a8255c9e99d877a5ffd26",
  "strippedsize": 216,
  "size": 216,
  "weight": 864,
  "tx": [
    {
      "txid": "ef53d8df12cad01a1e64dc4ccfe9c622b31e5eff44dbd20f21dabc9db320b503",
      "hash": "ef53d8df12cad01a1e64dc4ccfe9c622b31e5eff44dbd20f21dabc9db320b503",
      "version": 1,
      "size": 135,
      "vsize": 135,
      "weight": 540,
      "locktime": 0,
      "vin": [
        {
          "coinbase": "04ffff001d020e01",
          "sequence": 4294967295
        }
      ],
      "vout": [
        {
          "value": 50.0,
          "n": 0,
          "scriptPubKey": {
            "asm": "043c3909b16a8fc5ade346077cd18ffc365d42fc74623e1cbaff9918f1d84ed78494c2b4a904d8fb4aa7fe6d3c097e78eb2dcdc9e97245d9382627a65a665077d6 OP_CHECKSIG",
            "desc": "pk(043c3909b16a8fc5ade346077cd18ffc365d42fc74623e1cbaff9918f1d84ed78494c2b4a904d8fb4aa7fe6d3c097e78eb2dcdc9e97245d9382627a65a665077d6)#d2awn3rg",
            "hex": "41043c3909b16a8fc5ade346077cd18ffc365d42fc74623e1cbaff9918f1d84ed78494c2b4a904d8fb4aa7fe6d3c097e78eb2dcdc9e97245d9382627a65a665077d6ac",
            "type": "pubkey"
          }
        }
      ],
      "hex": "01000000010000000000000000000000000000000000000000000000000000000000000000ffffffff0804ffff001d020e01ffffffff0100f2052a010000004341043c3909b16a8fc5ade346077cd18ffc365d42fc74623e1cbaff9918f1d84ed78494c2b4a904d8fb4aa7fe6d3c097e78eb2dcdc9e97245d9382627a65a665077d6ac00000000"
    }
  ]
}