{
  "hash": "00000000fe93604e9dd2edd781e444655366e3cb7ddc64ce5fef2b26ffa96cc6",
  "confirmations": 48041,
  "height": 5057,
  "version": 1,
  "versionHex": "00000001",
  "merkleroot": "9dd0264b2d29d2fc2ba433d32b9fdd4b0c3c227a5c49cde2ffa467377519dc1b",
  "time": 1235182686,
  "mediantime": 1235177785,
  "nonce": 1113870636,
  "bits": "1d00ffff",
  "difficulty": 1,
  "chainwork": "000000000000000000000000000000000000000000000000000013c213c213c2",
  "nTx": 1,
  "previousblockhash": "000000004e662fff04b3ce1c3674050ebd8d26b8578e2bca1cdccc83643eaea2",
  "nextblockhash": "00000000b3a1512e402bcfa350c42147e08aa8d6450699015bbd69e76f99a8ae",
  "strippedsize": 216,
  "size": 216,
  "weight": 864,
  "tx": [
    {
      "txid": "9dd0264b2d29d2fc2ba433d32b9fdd4b0c3c227a5c49cde2ffa467377519dc1b",
      "hash": "9dd0264b2d29d2fc2ba433d32b9fdd4b0c3c227a5c49cde2ffa467377519dc1b",
      "version": 1,
      "size": 135,
      "vsize": 135,
      "weight": 540,
      "locktime": 0,
      "vin": [
        {
          "coinbase": "04ffff001d02fe07",
          "sequence": 4294967295
        }
      ],
      "vout": [
        {
          "value": 50.0,
          "n": 0,
          "scriptPubKey": {
            "asm": "049ae6628cea2a7c99f6a2b3f09379ce5c4088d3a4d632d9daa1640b6d489dede286ca71b818f8ffd2e28c25bb010745dd0fa23e8399ab5cf45d9273e21e45be5d OP_CHECKSIG",
            "desc": "pk(049ae6628cea2a7c99f6a2b3f09379ce5c4088d3a4d632d9daa1640b6d489dede286ca71b818f8ffd2e28c25bb010745dd0fa23e8399ab5cf45d9273e21e45be5d)#mvrw4end",
            "hex": "41049ae6628cea2a7c99f6a2b3f09379ce5c4088d3a4d632d9daa1640b6d489dede286ca71b818f8ffd2e28c25bb010745dd0fa23e8399ab5cf45d9273e21e45be5dac",
            "type": "pubkey"
          }
        }
      ],
      "hex": "01000000010000000000000000000000000000000000000000000000000000000000000000ffffffff0804ffff001d02fe07ffffffff0100f2052a010000004341049ae6628cea2a7c99f6a2b3f09379ce5c4088d3a4d632d9daa1640b6d489dede286ca71b818f8ffd2e28c25bb010745dd0fa23e8399ab5cf45d9273e21e45be5dac00000000"
    }
  ]
}