{
  "hash": "000000009f2a2293a7b6bb25d61bebe0973d58126588228daa530a0a3f99aea9",
  "confirmations": 48153,
  "height": 4945,
  "version": 1,
  "versionHex": "00000001",
  "merkleroot": "df3d73c1a78f17f05935b46ed5373ded3085ca77eb19b0d3739e3572865ecf4e",
  "time": 1235100232,
  "mediantime": 1235097416,
  "nonce": 22610753,
  "bits": "1d00ffff",
  "difficulty": 1,
  "chainwork": "0000000000000000000000000000000000000000000000000000135213521352",
  "nTx": 1,
  "previousblockhash": "00000000cab62442761a1de73baa2851da45fdac2e5f87c0dfebfe632631e22e",
  "nextblockhash": "0000000043acdce0a5ab1b6e35881aa02a18c519fb814fe6f3ea033ce68c3a92",
  "strippedsize": 216,
  "size": 216,
  "weight": 864,
  "tx": [
    {
      "txid": "df3d73c1a78f17f05935b46ed5373ded3085ca77eb19b0d3739e3572865ecf4e",
      "hash": "df3d73c1a78f17f05935b46ed5373ded3085ca77eb19b0d3739e3572865ecf4e",
      "version": 1,
      "size": 135,
      "vsize": 135,
      "weight": 540,
      "locktime": 0,
      "vin": [
        {
          "coinbase": "04ffff001d021005",
          "sequence": 4294967295
        }
      ],
      "vout": [
        {
          "value": 50.0,
          "n": 0,
          "scriptPubKey": {
            "asm": "04135ac80b7d3afeecea2d788990e83f1d7ecb729884f0113dce03f552eb899b43fca6e13efb0fb670723441c99efde1dcb2183b81c45653b94fa452ed600052ff OP_CHECKSIG",
            "desc": "pk(04135ac80b7d3afeecea2d788990e83f1d7ecb729884f0113dce03f552eb899b43fca6e13efb0fb670723441c99efde1dcb2183b81c45653b94fa452ed600052ff)#nd6wlv08",
            "hex": "4104135ac80b7d3afeecea2d788990e83f1d7ecb729884f0113dce03f552eb899b43fca6e13efb0fb670723441c99efde1dcb2183b81c45653b94fa452ed600052ffac",
            "type": "pubkey"
          }
        }
      ],
      "hex": "01000000010000000000000000000000000000000000000000000000000000000000000000ffffffff0804ffff001d021005ffffffff0100f2052a01000000434104135ac80b7d3afeecea2d788990e83f1d7ecb729884f0113dce03f552eb899b43fca6e13efb0fb670723441c99efde1dcb2183b81c45653b94fa452ed600052ffac00000000"
    }
  ]
}