{
  "hash": "000000000992f083d79cdd428b664ce97105c57fdc63049371bfa98c28dbbc79",
  "confirmations": 52380,
  "height": 718,
  "version": 1,
  "versionHex": "00000001",
  "merkleroot": "4ac8452db8815b56bb37f14b1251d52d14a9cef1e0519c16a5a67cb9507bca94",
  "time": 1232124164,
  "mediantime": 1232119341,
  "nonce": 2777901625,
  "bits": "1d00ffff",
  "difficulty": 1,
  "chainwork": "000000000000000000000000000000000000000000000000000002cf02cf02cf",
  "nTx": 1,
  "previousblockhash": "00000000cf9274eb4bc9d220d00c348a3955b3f6ab76e423bca412c7bfd288f1",
  "nextblockhash": "0000000090fd8059294d0cf84fd0278e8c618ca0ad09f712c0ec6c22fc216df0",
  "strippedsize": 215,
  "size": 215,
  "weight": 860,
  "tx": [
    {
      "txid": "4ac8452db8815b56bb37f14b1251d52d14a9cef1e0519c16a5a67cb9507bca94",
      "hash": "4ac8452db8815b56bb37f14b1251d52d14a9cef1e0519c16a5a67cb9507bca94",
      "version": 1,
      "size": 134,
      "vsize": 134,
      "weight": 536,
      "locktime": 0,
      "vin": [
        {
          "coinbase": "04ffff001d0110",
          "sequence": 4294967295
        }
      ],
      "vout": [
        {
          "value": 50.0,
          "n": 0,
          "scriptPubKey": {
            "asm": "0430ca7769c20345510f83de88fed87690e6fe1ef114ba17579d61b5943a17bb1cf55ecbb16d5ad232c22ebad9f503548c62125cbe24e5b9de899ca9126b85748f OP_CHECKSIG",
            "desc": "pk(0430ca7769c20345510f83de88fed87690e6fe1ef114ba17579d61b5943a17bb1cf55ecbb16d5ad232c22ebad9f503548c62125cbe24e5b9de899ca9126b85748f)#wznsc4aw",
            "hex": "410430ca7769c20345510f83de88fed87690e6fe1ef114ba17579d61b5943a17bb1cf55ecbb16d5ad232c22ebad9f503548c62125cbe24e5b9de899ca9126b85748fac",
            "type": "pubkey"
          }
        }
      ],
      "hex": "01000000010000000000000000000000000000000000000000000000000000000000000000ffffffff0704ffff001d0110ffffffff0100f2052a0100000043410430ca7769c20345510f83de88fed87690e6fe1ef114ba17579d61b5943a17bb1cf55ecbb16d5ad232c22ebad9f503548c62125cbe24e5b9de899ca9126b85748fac00000000"
    }
  ]
}