{
  "hash": "00000000ef0252b53d373088b548ac267b1e2c7c2332a0e058bd0158a06310cc",
  "confirmations": 46903,
  "height": 6195,
  "version": 1,
  "versionHex": "00000001",
  "merkleroot": "99c6b9b7257097e0657c85d00af3d7d664f20d1d1ae2f1cb11351ee63cd82a75",
  "time": 1236085472,
  "mediantime": 1236083606,
  "nonce": 3409860373,
  "bits": "1d00ffff",
  "difficulty": 1,
  "chainwork": "0000000000000000000000000000000000000000000000000000183418341834",
  "nTx": 1,
  "previousblockhash": "00000000bab04bff69b3da55677057033dc24032a154e3062ff626deeac5901d",
  "nextblockhash": "00000000e4c24c8da149d97dcc84164563c4be3ba5842a15a8e3b737c63273e9",
  "strippedsize": 216,
  "size": 216,
  "weight": 864,
  "tx": [
    {
      "txid": "99c6b9b7257097e0657c85d00af3d7d664f20d1d1ae2f1cb11351ee63cd82a75",
      "hash": "99c6b9b7257097e0657c85d00af3d7d664f20d1d1ae2f1cb11351ee63cd82a75",
      "version": 1,
      "size": 135,
      "vsize": 135,
      "weight": 540,
      "locktime": 0,
      "vin": [
        {
          "coinbase": "04ffff001d025608",
          "sequence": 4294967295
        }
      ],
      "vout": [
        {
          "value": 50.0,
          "n": 0,
          "scriptPubKey": {
            "asm": "04a3f486212f17b8e905d9c85bd50872102f90b188e5127a0ca96e7eeaf6d05eab0329e17f662eb7ca1e80cab5d3842291c5334eaecb6a2175cbcd5120b75471fb OP_CHECKSIG",
            "desc": "pk(04a3f486212f17b8e905d9c85bd50872102f90b188e5127a0ca96e7eeaf6d05eab0329e17f662eb7ca1e80cab5d3842291c5334eaecb6a2175cbcd5120b75471fb)#53zjxte0",
            "hex": "4104a3f486212f17b8e905d9c85bd50872102f90b188e5127a0ca96e7eeaf6d05eab0329e17f662eb7ca1e80cab5d3842291c5334eaecb6a2175cbcd5120b75471fbac",
            "type": "pubkey"
          }
        }
      ],
      "hex": "01000000010000000000000000000000000000000000000000000000000000000000000000ffffffff0804ffff001d025608ffffffff0100f2052a01000000434104a3f486212f17b8e905d9c85bd50872102f90b188e5127a0ca96e7eeaf6d05eab0329e17f662eb7ca1e80cab5d3842291c5334eaecb6a2175cbcd5120b75471fbac00000000"
    }
  ]
}