{
  "hash": "00000000c36ab229697cc2732c16bed1d9e731ddc641efb33a5bbceff046847b",
  "confirmations": 50142,
  "height": 2956,
  "version": 1,
  "versionHex": "00000001",
  "merkleroot": "11859ded6828a0ee059fbe6420538918183be4e92a93f0d5050890ea9d992dd8",
  "time": 1233730047,
  "mediantime": 1233726421,
  "nonce": 21039823,
  "bits": "1d00ffff",
  "difficulty": 1,
  "chainwork": "00000000000000000000000000000000000000000000000000000b8d0b8d0b8d",
  "nTx": 1,
  "previousblockhash": "000000009eabf8d88547aa7101656e7517fb67461e73c148440b2c3d878bd02f",
  "nextblockhash": "00000000e1c6c4fec8e18026b3f96f8f7a7d289aeb8e8d99e16caef2a580281a",
  "strippedsize": 216,
  "size": 216,
  "weight": 864,
  "tx": [
    {
      "txid": "11859ded6828a0ee059fbe6420538918183be4e92a93f0d5050890ea9d992dd8",
      "hash": "11859ded6828a0ee059fbe6420538918183be4e92a93f0d5050890ea9d992dd8",
      "version": 1,
      "size": 135,
      "vsize": 135,
      "weight": 540,
      "locktime": 0,
      "vin": [
        {
          "coinbase": "04ffff001d020c07",
          "sequence": 4294967295
        }
      ],
      "vout": [
        {
          "value": 50.0,
          "n": 0,
          "scriptPubKey": {
            "asm": "049b21e075bb8b93afa6e952700643aef7084f25e82e557caf1151bf21fafb9730c942c925c5e331bed3e22b402defc7c3f9e08100b02bf8e3f138c74efed3062d OP_CHECKSIG",
            "desc": "pk(049b21e075bb8b93afa6e952700643aef7084f25e82e557caf1151bf21fafb9730c942c925c5e331bed3e22b402defc7c3f9e08100b02bf8e3f138c74efed3062d)#w6pjukes",
            "hex": "41049b21e075bb8b93afa6e952700643aef7084f25e82e557caf1151bf21fafb9730c942c925c5e331bed3e22b402defc7c3f9e08100b02bf8e3f138c74efed3062dac",
            "type": "pubkey"
          }
        }
      ],
      "hex": "01000000010000000000000000000000000000000000000000000000000000000000000000ffffffff0804ffff001d020c07ffffffff0100f2052a010000004341049b21e075bb8b93afa6e952700643aef7084f25e82e557caf1151bf21fafb9730c942c925c5e331bed3e22b402defc7c3f9e08100b02bf8e3f138c74efed3062dac00000000"
    }
  ]
}