{
  "hash": "000000005623fbd1794f76361227229cefbc21def8bb8bdd3aa204d64d9f6f66",
  "confirmations": 44258,
  "height": 8840,
  "version": 1,
  "versionHex": "00000001",
  "merkleroot": "f4f72a4f1a85ac9cf015c5ad177e33627c3a232603ae24dfd5f95f39d3992f44",
  "time": 1238130228,
  "mediantime": 1238125654,
  "nonce": 4033436713,
  "bits": "1d00ffff",
  "difficulty": 1,
  "chainwork": "0000000000000000000000000000000000000000000000000000228922892289",
  "nTx": 1,
  "previousblockhash": "0000000018da6af9bb475577186c56b5de3ce354c5287b03bfe00e85b665b08d",
  "nextblockhash": "000000004b4e31f878a529a93d75b856355532f41100e66405f9744426fae781",
  "strippedsize": 216,
  "size": 216,
  "weight": 864,
  "tx": [
    {
      "txid": "f4f72a4f1a85ac9cf015c5ad177e33627c3a232603ae24dfd5f95f39d3992f44",
      "hash": "f4f72a4f1a85ac9cf015c5ad177e33627c3a232603ae24dfd5f95f39d3992f44",
      "version": 1,
      "size": 135,
      "vsize": 135,
      "weight": 540,
      "locktime": 0,
      "vin": [
        {
          "coinbase": "04ffff001d027f03",
          "sequence": 4294967295
        }
      ],
      "vout": [
        {
          "value": 50.0,
          "n": 0,
          "scriptPubKey": {
            "asm": "0405f5bd0e0aab563c05d2e78073767c2021c5b3af1b93682774be8eba7e90cb9d3787c073c386130aca7098aa9d261750a32a7c9ffb13214c77f1b4f7784cb28b OP_CHECKSIG",
            "desc": "pk(0405f5bd0e0aab563c05d2e78073767c2021c5b3af1b93682774be8eba7e90cb9d3787c073c386130aca7098aa9d261750a32a7c9ffb13214c77f1b4f7784cb28b)#5fufjjrk",
            "hex": "410405f5bd0e0aab563c05d2e78073767c2021c5b3af1b93682774be8eba7e90cb9d3787c073c386130aca7098aa9d261750a32a7c9ffb13214c77f1b4f7784cb28bac",
            "type": "pubkey"
          }
        }
      ],
      "hex": "01000000010000000000000000000000000000000000000000000000000000000000000000ffffffff0804ffff001d027f03ffffffff0100f2052a0100000043410405f5bd0e0aab563c05d2e78073767c2021c5b3af1b93682774be8eba7e90cb9d3787c073c386130aca7098aa9d261750a32a7c9ffb13214c77f1b4f7784cb28bac00000000"
    }
  ]
}