{
  "hash": "000000005b6abccbbf6253cdefbcdf5a19b5a166b8f4c730ad8ce1bd7fa519d1",
  "confirmations": 44449,
  "height": 8649,
  "version": 1,
  "versionHex": "00000001",
  "merkleroot": "2b6cd0ed0eda409f94bf97358066f815f84ed640af8aee4cfcff90a93bc87220",
  "time": 1237985293,
  "mediantime": 1237980377,
  "nonce": 1790460470,
  "bits": "1d00ffff",
  "difficulty": 1,
  "chainwork": "000000000000000000000000000000000000000000000000000021ca21ca21ca",
  "nTx": 1,
  "previousblockhash": "000000007657a18a75c64b29fded5a0dd0471dcbadcde48e7df423886bc8a291",
  "nextblockhash": "00000000a0105b1f82c00525f8c881ff1ce768df7ebbb86e72e8ed402b8211fc",
  "strippedsize": 215,
  "size": 215,
  "weight": 860,
  "tx": [
    {
      "txid": "2b6cd0ed0eda409f94bf97358066f815f84ed640af8aee4cfcff90a93bc87220",
      "hash": "2b6cd0ed0eda409f94bf97358066f815f84ed640af8aee4cfcff90a93bc87220",
      "version": 1,
      "size": 134,
      "vsize": 134,
      "weight": 536,
      "locktime": 0,
      "vin": [
        {
          "coinbase": "04ffff001d0108",
          "sequence": 4294967295
        }
      ],
      "vout": [
        {
          "value": 50.0,
          "n": 0,
          "scriptPubKey": {
            "asm": "04a5406ca59f9b979b326532d63e2719f861d6f54618fcf2bf785933826a82e9b4dae986a1e02acac7e32ba629d8caa11f892859c4831efcc5ec6b1d08f22b07f4 OP_CHECKSIG",
            "desc": "pk(04a5406ca59f9b979b326532d63e2719f861d6f54618fcf2bf785933826a82e9b4dae986a1e02acac7e32ba629d8caa11f892859c4831efcc5ec6b1d08f22b07f4)#n0vg23qm",
            "hex": "4104a5406ca59f9b979b326532d63e2719f861d6f54618fcf2bf785933826a82e9b4dae986a1e02acac7e32ba629d8caa11f892859c4831efcc5ec6b1d08f22b07f4ac",
            "type": "pubkey"
          }
        }
      ],
      "hex": "01000000010000000000000000000000000000000000000000000000000000000000000000ffffffff0704ffff001d0108ffffffff0100f2052a01000000434104a5406ca59f9b979b326532d63e2719f861d6f54618fcf2bf785933826a82e9b4dae986a1e02acac7e32ba629d8caa11f892859c4831efcc5ec6b1d08f22b07f4ac00000000"
    }
  ]
}