{
  "hash": "00000000a8d4130e02dc53426f7f87a6f4ec829e5d44d87a284bdfdba50fd2c5",
  "confirmations": 50590,
  "height": 2508,
  "version": 1,
  "versionHex": "00000001",
  "merkleroot": "8db5b70e9f8c2c22e4c0986e159c1bf282af875bdbb16af82e8bd657c78c124d",
  "time": 1233424184,
  "mediantime": 1233421975,
  "nonce": 1619116835,
  "bits": "1d00ffff",
  "difficulty": 1,
  "chainwork": "000000000000000000000000000000000000000000000000000009cd09cd09cd",
  "nTx": 1,
  "previousblockhash": "00000000ffbc5bf0a1427c2542e9ae43ede6fe888582702f50c5719f67873ca3",
  "nextblockhash": "000000008368414feae8318b8a1f71b6467a96f0d0ccd47b8df9142f1ad2da48",
  "strippedsize": 216,
  "size": 216,
  "weight": 864,
  "tx": [
    {
      "txid": "8db5b70e9f8c2c22e4c0986e159c1bf282af875bdbb16af82e8bd657c78c124d",
      "hash": "8db5b70e9f8c2c22e4c0986e159c1bf282af875bdbb16af82e8bd657c78c124d",
      "version": 1,
      "size": 135,
      "vsize": 135,
      "weight": 540,
      "locktime": 0,
      "vin": [
        {
          "coinbase": "04ffff001d023301",
          "sequence": 4294967295
        }
      ],
      "vout": [
        {
          "value": 50.0,
          "n": 0,
          "scriptPubKey": {
            "asm": "0436b2f946de9225b25b46878d7ee1fb6ebb62551c6094eb21ca872bdccace3e04e7440eb3f632f15d9309b43d9dce87b30cd0c8e6ef981b68849a2f6c0f9d1cb7 OP_CHECKSIG",
            "desc": "pk(0436b2f946de9225b25b46878d7ee1fb6ebb62551c6094eb21ca872bdccace3e04e7440eb3f632f15d9309b43d9dce87b30cd0c8e6ef981b68849a2f6c0f9d1cb7)#hdks735y",
            "hex": "410436b2f946de9225b25b46878d7ee1fb6ebb62551c6094eb21ca872bdccace3e04e7440eb3f632f15d9309b43d9dce87b30cd0c8e6ef981b68849a2f6c0f9d1cb7ac",
            "type": "pubkey"
          }
        }
      ],
      "hex": "01000000010000000000000000000000000000000000000000000000000000000000000000ffffffff0804ffff001d023301ffffffff0100f2052a0100000043410436b2f946de9225b25b46878d7ee1fb6ebb62551c6094eb21ca872bdccace3e04e7440eb3f632f15d9309b43d9dce87b30cd0c8e6ef981b68849a2f6c0f9d1cb7ac00000000"
    }
  ]
}