{
  "hash": "00000000117e3a3826c3cf742f8bf5230053109093b9c9b40f8bce6b9b34b05d",
  "confirmations": 44993,
  "height": 8105,
  "version": 1,
  "versionHex": "00000001",
  "merkleroot": "38d2a93a1e4ff4e72b5047f605a85c73fe0d18649a264c6f26edafcf5f47385b",
  "time": 1237535743,
  "mediantime": 1237531841,
  "nonce": 2081170202,
  "bits": "1d00ffff",
  "difficulty": 1,
  "chainwork": "00000000000000000000000000000000000000000000000000001faa1faa1faa",
  "nTx": 1,
  "previousblockhash": "000000009cf1442932004bdc400c080db72157649003d2630f85674caf8dd342",
  "nextblockhash": "000000001294f7b72e127eca32547dbee91cd78a4ba73be0a4285b2739ffdbdc",
  "strippedsize": 216,
  "size": 216,
  "weight": 864,
  "tx": [
    {
      "txid": "38d2a93a1e4ff4e72b5047f605a85c73fe0d18649a264c6f26edafcf5f47385b",
      "hash": "38d2a93a1e4ff4e72b5047f605a85c73fe0d18649a264c6f26edafcf5f47385b",
      "version": 1,
      "size": 135,
      "vsize": 135,
      "weight": 540,
      "locktime": 0,
      "vin": [
        {
          "coinbase": "04ffff001d023d01",
          "sequence": 4294967295
        }
      ],
      "vout": [
        {
          "value": 50.0,
          "n": 0,
          "scriptPubKey": {
            "asm": "042f7028b27d15da7fb51a3e8941bfd47fe086b59b05366fb1c79a8c5329323c5bfe9ae5b959805e5aebbd850c7d29746acfcee367e1f072e9557802e8e8b0b640 OP_CHECKSIG",
            "desc": "pk(042f7028b27d15da7fb51a3e8941bfd47fe086b59b05366fb1c79a8c5329323c5bfe9ae5b959805e5aebbd850c7d29746acfcee367e1f072e9557802e8e8b0b640)#hj3s9j97",
            "hex": "41042f7028b27d15da7fb51a3e8941bfd47fe086b59b05366fb1c79a8c5329323c5bfe9ae5b959805e5aebbd850c7d29746acfcee367e1f072e9557802e8e8b0b640ac",
            "type": "pubkey"
          }
        }
      ],
      "hex": "01000000010000000000000000000000000000000000000000000000000000000000000000ffffffff0804ffff001d023d01ffffffff0100f2052a010000004341042f7028b27d15da7fb51a3e8941bfd47fe086b59b05366fb1c79a8c5329323c5bfe9ae5b959805e5aebbd850c7d29746acfcee367e1f072e9557802e8e8b0b640ac00000000"
    }
  ]
}