{
  "hash": "000000002d947997dc957cdf075dd32390f5f754d2656208d5dd82a6620179f5",
  "confirmations": 52554,
  "height": 544,
  "version": 1,
  "versionHex": "00000001",
  "merkleroot": "d41f1bcc2abb66d3e2fe055df8064ccf36f07efa1d574de1427cc8751a3398e3",
  "time": 1231997349,
  "mediantime": 1231994794,
  "nonce": 3244667906,
  "bits": "1d00ffff",
  "difficulty": 1,
  "chainwork": "0000000000000000000000000000000000000000000000000000022102210221",
  "nTx": 1,
  "previousblockhash": "0000000009b905f3db4990848b9b14fe39582147fcf6a6cb8d73bd227d75369e",
  "nextblockhash": "00000000689051c09ff2cd091cc4c22c10b965eb8db3ad5f032621cc36626175",
  "strippedsize": 216,
  "size": 216,
  "weight": 864,
  "tx": [
    {
      "txid": "d41f1bcc2abb66d3e2fe055df8064ccf36f07efa1d574de1427cc8751a3398e3",
      "hash": "d41f1bcc2abb66d3e2fe055df8064ccf36f07efa1d574de1427cc8751a3398e3",
      "version": 1,
      "size": 135,
      "vsize": 135,
      "weight": 540,
      "locktime": 0,
      "vin": [
        {
          "coinbase": "04ffff001d027705",
          "sequence": 4294967295
        }
      ],
      "vout": [
        {
          "value": 50.0,
          "n": 0,
          "scriptPubKey": {
            "asm": "04ba8220a0cde503ee7f923ab223b07c22e705fb5215e1a3f5e6dfb37cf8a714d0d6d9f2a7a00a61675cf20aba71233973d1dea913c130f0af380ed4a9c2116045 OP_CHECKSIG",
            "desc": "pk(04ba8220a0cde503ee7f923ab223b07c22e705fb5215e1a3f5e6dfb37cf8a714d0d6d9f2a7a00a61675cf20aba71233973d1dea913c130f0af380ed4a9c2116045)#d0ykqafm",
            "hex": "4104ba8220a0cde503ee7f923ab223b07c22e705fb5215e1a3f5e6dfb37cf8a714d0d6d9f2a7a00a61675cf20aba71233973d1dea913c130f0af380ed4a9c2116045ac",
            "type": "pubkey"
          }
        }
      ],
      "hex": "01000000010000000000000000000000000000000000000000000000000000000000000000ffffffff0804ffff001d027705ffffffff0100f2052a01000000434104ba8220a0cde503ee7f923ab223b07c22e705fb5215e1a3f5e6dfb37cf8a714d0d6d9f2a7a00a61675cf20aba71233973d1dea913c130f0af380ed4a9c2116045ac00000000"
    }
  ]
}