{
  "hash": "00000000c24b5993eb0426eb291351037788c32543276f2a8c22c370d4a87bb9",
  "confirmations": 45527,
  "height": 7571,
  "version": 1,
  "versionHex": "00000001",
  "merkleroot": "cbb0b11dc4efa20e61dae86f48dce657d7e067e45ce6c60327bae590c152f438",
  "time": 1237149230,
  "mediantime": 1237147764,
  "nonce": 72130998,
  "bits": "1d00ffff",
  "difficulty": 1,
  "chainwork": "00000000000000000000000000000000000000000000000000001d941d941d94",
  "nTx": 1,
  "previousblockhash": "000000003efb05c7162004191c14b1586054b7628bcc6992fb8415fafb17242c",
  "nextblockhash": "000000007682077f8453fc346491e6eba69684b2641012aadcd3f2c49b581d77",
  "strippedsize": 216,
  "size": 216,
  "weight": 864,
  "tx": [
    {
      "txid": "cbb0b11dc4efa20e61dae86f48dce657d7e067e45ce6c60327bae590c152f438",
      "hash": "cbb0b11dc4efa20e61dae86f48dce657d7e067e45ce6c60327bae590c152f438",
      "version": 1,
      "size": 135,
      "vsize": 135,
      "weight": 540,
      "locktime": 0,
      "vin": [
        {
          "coinbase": "04ffff001d023103",
          "sequence": 4294967295
        }
      ],
      "vout": [
        {
          "value": 50.0,
          "n": 0,
          "scriptPubKey": {
            "asm": "0414c2f08ca03d0dafe448de8477af336c7a6730c205124b24e1665a95a4db65193c2a857e74ad6c8a33ec20028242acbd31d6c7affcde8be2040f30ac33cdb528 OP_CHECKSIG",
            "desc": "pk(0414c2f08ca03d0dafe448de8477af336c7a6730c205124b24e1665a95a4db65193c2a857e74ad6c8a33ec20028242acbd31d6c7affcde8be2040f30ac33cdb528)#d5a5hdul",
            "hex": "410414c2f08ca03d0dafe448de8477af336c7a6730c205124b24e1665a95a4db65193c2a857e74ad6c8a33ec20028242acbd31d6c7affcde8be2040f30ac33cdb528ac",
            "type": "pubkey"
          }
        }
      ],
      "hex": "01000000010000000000000000000000000000000000000000000000000000000000000000ffffffff0804ffff001d023103ffffffff0100f2052a0100000043410414c2f08ca03d0dafe448de8477af336c7a6730c205124b24e1665a95a4db65193c2a857e74ad6c8a33ec20028242acbd31d6c7affcde8be2040f30ac33cdb528ac00000000"
    }
  ]
}