{
  "hash": "000000007b1e802ce144540363a4ba736f619a0294c8b3e603758edef3d3dfc8",
  "confirmations": 47654,
  "height": 5444,
  "version": 1,
  "versionHex": "00000001",
  "merkleroot": "fbb0e081db673c0a90e5d856e18135ab76daf43f78936b4b44de9214d8487257",
  "time": 1235477553,
  "mediantime": 1235473346,
  "nonce": 1387133696,
  "bits": "1d00ffff",
  "difficulty": 1,
  "chainwork": "0000000000000000000000000000000000000000000000000000154515451545",
  "nTx": 1,
  "previousblockhash": "000000000ca7ece795e557a276b5fba01e25f6072025289d90a1d381fff8d261",
  "nextblockhash": "000000003c8d8cb307a03bdf650d2a59ed936acc392a4043eaa9a1a01d459c78",
  "strippedsize": 216,
  "size": 216,
  "weight": 864,
  "tx": [
    {
      "txid": "fbb0e081db673c0a90e5d856e18135ab76daf43f78936b4b44de9214d8487257",
      "hash": "fbb0e081db673c0a90e5d856e18135ab76daf43f78936b4b44de9214d8487257",
      "version": 1,
      "size": 135,
      "vsize": 135,
      "weight": 540,
      "locktime": 0,
      "vin": [
        {
          "coinbase": "04ffff001d028604",
          "sequence": 4294967295
        }
      ],
      "vout": [
        {
          "value": 50.0,
          "n": 0,
          "scriptPubKey": {
            "asm": "046391b16c65482a3964ca6d581038ce4c65b5ed9398deed7821e373e6a6c6e864f901f1d83d03684e037bc1d601e2636f644d8e35286621fc75950cc12e2dfac6 OP_CHECKSIG",
            "desc": "pk(046391b16c65482a3964ca6d581038ce4c65b5ed9398deed7821e373e6a6c6e864f901f1d83d03684e037bc1d601e2636f644d8e35286621fc75950cc12e2dfac6)#sv74a25t",
            "hex": "41046391b16c65482a3964ca6d581038ce4c65b5ed9398deed7821e373e6a6c6e864f901f1d83d03684e037bc1d601e2636f644d8e35286621fc75950cc12e2dfac6ac",
            "type": "pubkey"
          }
        }
      ],
      "hex": "01000000010000000000000000000000000000000000000000000000000000000000000000ffffffff0804ffff001d028604ffffffff0100f2052a010000004341046391b16c65482a3964ca6d581038ce4c65b5ed9398deed7821e373e6a6c6e864f901f1d83d03684e037bc1d601e2636f644d8e35286621fc75950cc12e2dfac6ac00000000"
    }
  ]
}