{
  "hash": "00000000fe6a2acee44d83d445191a33b55fb3cad06cafa8f904682940719279",
  "confirmations": 44188,
  "height": 8910,
  "version": 1,
  "versionHex": "00000001",
  "merkleroot": "3e388c6a29c8d41fe43d2a009a37fabca885fc2aca00d5c75c71e644720c4a9d",
  "time": 1238186807,
  "mediantime": 1238183033,
  "nonce": 119921444,
  "bits": "1d00ffff",
  "difficulty": 1,
  "chainwork": "000000000000000000000000000000000000000000000000000022cf22cf22cf",
  "nTx": 1,
  "previousblockhash": "00000000232389c4fa4e69686e7a4c4d54a4d96149fbc496baf1dafc739ad2ce",
  "nextblockhash": "00000000e3d48ce58765479cc92d1c9e5bbf5210ec94949f60f8d42f402a0a45",
  "strippedsize": 216,
  "size": 216,
  "weight": 864,
  "tx": [
    {
      "txid": "3e388c6a29c8d41fe43d2a009a37fabca885fc2aca00d5c75c71e644720c4a9d",
      "hash": "3e388c6a29c8d41fe43d2a009a37fabca885fc2aca00d5c75c71e644720c4a9d",
      "version": 1,
      "size": 135,
      "vsize": 135,
      "weight": 540,
      "locktime": 0,
      "vin": [
        {
          "coinbase": "04ffff001d02b904",
          "sequence": 4294967295
        }
      ],
      "vout": [
        {
          "value": 50.0,
          "n": 0,
          "scriptPubKey": {
            "asm": "04c4b78f63dbdcdfb57a94c62bd137a375a19b5bfb79e36000d9c7a004743f3dd4ab29002b95326a54c357fde08806f48b9cce981331977897227cd4bfb4722009 OP_CHECKSIG",
            "desc": "pk(04c4b78f63dbdcdfb57a94c62bd137a375a19b5bfb79e36000d9c7a004743f3dd4ab29002b95326a54c357fde08806f48b9cce981331977897227cd4bfb4722009)#xudfyv0e",
            "hex": "4104c4b78f63dbdcdfb57a94c62bd137a375a19b5bfb79e36000d9c7a004743f3dd4ab29002b95326a54c357fde08806f48b9cce981331977897227cd4bfb4722009ac",
            "type": "pubkey"
          }
        }
      ],
      "hex": "01000000010000000000000000000000000000000000000000000000000000000000000000ffffffff0804ffff001d02b904ffffffff0100f2052a01000000434104c4b78f63dbdcdfb57a94c62bd137a375a19b5bfb79e36000d9c7a004743f3dd4ab29002b95326a54c357fde08806f48b9cce981331977897227cd4bfb4722009ac00000000"
    }
  ]
}