{
  "hash": "0000000035acca84ef491b90f5b5c78e1528b998960cccf0224a487bf93f9d11",
  "confirmations": 49976,
  "height": 3122,
  "version": 1,
  "versionHex": "00000001",
  "merkleroot": "cd8f632f5427f472450f2ff8a1830e5726164b27054f9d683ae7ec4c2361bca6",
  "time": 1233849949,
  "mediantime": 1233847151,
  "nonce": 3696322049,
  "bits": "1d00ffff",
  "difficulty": 1,
  "chainwork": "00000000000000000000000000000000000000000000000000000c330c330c33",
  "nTx": 1,
  "previousblockhash": "000000008ba54981a987f9c562a2ac1d653c4c7c3375448718d04190c74df213",
  "nextblockhash": "0000000029a1e642fb3e9952470057572f98bc4fee579fd78aef3e5c01cfce96",
  "strippedsize": 216,
  "size": 216,
  "weight": 864,
  "tx": [
    {
      "txid": "cd8f632f5427f472450f2ff8a1830e5726164b27054f9d683ae7ec4c2361bca6",
      "hash": "cd8f632f5427f472450f2ff8a1830e5726164b27054f9d683ae7ec4c2361bca6",
      "version": 1,
      "size": 135,
      "vsize": 135,
      "weight": 540,
      "locktime": 0,
      "vin": [
        {
          "coinbase": "04ffff001d027e01",
          "sequence": 4294967295
        }
      ],
      "vout": [
        {
          "value": 50.0,
          "n": 0,
          "scriptPubKey": {
            "asm": "044665921b0a8f761106f8437ee38d6eced7aa59e1597f849544940132151f98f0a2be233beb19bfb66e179474154f1981f6fecb7534d62fc6f61333fa1ec8a90b OP_CHECKSIG",
            "desc": "pk(044665921b0a8f761106f8437ee38d6eced7aa59e1597f849544940132151f98f0a2be233beb19bfb66e179474154f1981f6fecb7534d62fc6f61333fa1ec8a90b)#j0fjd9f8",
            "hex": "41044665921b0a8f761106f8437ee38d6eced7aa59e1597f849544940132151f98f0a2be233beb19bfb66e179474154f1981f6fecb7534d62fc6f61333fa1ec8a90bac",
            "type": "pubkey"
          }
        }
      ],
      "hex": "01000000010000000000000000000000000000000000000000000000000000000000000000ffffffff0804ffff001d027e01ffffffff0100f2052a010000004341044665921b0a8f761106f8437ee38d6eced7aa59e1597f849544940132151f98f0a2be233beb19bfb66e179474154f1981f6fecb7534d62fc6f61333fa1ec8a90bac00000000"
    }
  ]
}