{
  "hash": "00000000f102043c1c58e47b6e91e6804f7ae356fed25c456c6f8359e737da6d",
  "confirmations": 52187,
  "height": 434,
  "version": 1,
  "versionHex": "00000001",
  "merkleroot": "2c84f9d7ace7f1a0b635226a0c2954ecf89cbaf5743f188f69b90082730293af",
  "time": 1231924394,
  "mediantime": 1231922041,
  "nonce": 3180905505,
  "bits": "1d00ffff",
  "difficulty": 1,
  "chainwork": "000000000000000000000000000000000000000000000000000001b301b301b3",
  "nTx": 1,
  "previousblockhash": "000000005f1a9e236f32bcfbdb8ccd951e120858070d459d048ccf9577c462fd",
  "nextblockhash": "00000000d3c23d217f8c90d7a7dc037e71cd425a2fd1f4184b97a96f45b8b52c",
  "strippedsize": 216,
  "size": 216,
  "weight": 864,
  "tx": [
    {
      "txid": "2c84f9d7ace7f1a0b635226a0c2954ecf89cbaf5743f188f69b90082730293af",
      "hash": "2c84f9d7ace7f1a0b635226a0c2954ecf89cbaf5743f188f69b90082730293af",
      "version": 1,
      "size": 135,
      "vsize": 135,
      "weight": 540,
      "locktime": 0,
      "vin": [
        {
          "coinbase": "04ffff001d024f03",
          "sequence": 4294967295
        }
      ],
      "vout": [
        {
          "value": 50.0,
          "n": 0,
          "scriptPubKey": {
            "asm": "045962c18863fac5c9410fff5d06b12e3c7b23fa8d83d58c810690d84856c60b886adb413bfa14c1911091aef713b0bb4849f458718bfd89914c8774e1657f0dee OP_CHECKSIG",
            "desc": "pk(045962c18863fac5c9410fff5d06b12e3c7b23fa8d83d58c810690d84856c60b886adb413bfa14c1911091aef713b0bb4849f458718bfd89914c8774e1657f0dee)#sf5zv3pz",
            "hex": "41045962c18863fac5c9410fff5d06b12e3c7b23fa8d83d58c810690d84856c60b886adb413bfa14c1911091aef713b0bb4849f458718bfd89914c8774e1657f0deeac",
            "type": "pubkey"
          }
        }
      ],
      "hex": "01000000010000000000000000000000000000000000000000000000000000000000000000ffffffff0804ffff001d024f03ffffffff0100f2052a010000004341045962c18863fac5c9410fff5d06b12e3c7b23fa8d83d58c810690d84856c60b886adb413bfa14c1911091aef713b0bb4849f458718bfd89914c8774e1657f0deeac00000000"
    }
  ]
}