{
  "hash": "000000007e95b1d5a9603874ddbae14c6eacf7dcf86429efb91947ea27ca402e",
  "confirmations": 51106,
  "height": 1992,
  "version": 1,
  "versionHex": "00000001",
  "merkleroot": "cdb8e7a0af6d3b05768f6ea1f874d2434c20e883a098b7c5e123f56208847b60",
  "time": 1233040087,
  "mediantime": 1233036022,
  "nonce": 1891517959,
  "bits": "1d00ffff",
  "difficulty": 1,
  "chainwork": "000000000000000000000000000000000000000000000000000007c907c907c9",
  "nTx": 1,
  "previousblockhash": "000000002a90502d96e8baa75b749b2fb4fa6491e115314bf7674f1e26ff726e",
  "nextblockhash": "00000000bfebb625430b6483c7f19d2886d1970cda683971fcccca292cc9b7f6",
  "strippedsize": 216,
  "size": 216,
  "weight": 864,
  "tx": [
    {
      "txid": "cdb8e7a0af6d3b05768f6ea1f874d2434c20e883a098b7c5e123f56208847b60",
      "hash": "cdb8e7a0af6d3b05768f6ea1f874d2434c20e883a098b7c5e123f56208847b60",
      "version": 1,
      "size": 135,
      "vsize": 135,
      "weight": 540,
      "locktime": 0,
      "vin": [
        {
          "coinbase": "04ffff001d026d01",
          "sequence": 4294967295
        }
      ],
      "vout": [
        {
          "value": 50.0,
          "n": 0,
          "scriptPubKey": {
            "asm": "0458997d5993f7e4af762db0ac0e011959e67fd209d02fa5531616632d4be6a40f3da94ca79a42daf414d954ade887d6d7b87b7b8838b31d79e2fa951a3632a6f4 OP_CHECKSIG",
            "desc": "pk(0458997d5993f7e4af762db0ac0e011959e67fd209d02fa5531616632d4be6a40f3da94ca79a42daf414d954ade887d6d7b87b7b8838b31d79e2fa951a3632a6f4)#23wdd5zh",
            "hex": "410458997d5993f7e4af762db0ac0e011959e67fd209d02fa5531616632d4be6a40f3da94ca79a42daf414d954ade887d6d7b87b7b8838b31d79e2fa951a3632a6f4ac",
            "type": "pubkey"
          }
        }
      ],
      "hex": "01000000010000000000000000000000000000000000000000000000000000000000000000ffffffff0804ffff001d026d01ffffffff0100f2052a0100000043410458997d5993f7e4af762db0ac0e011959e67fd209d02fa5531616632d4be6a40f3da94ca79a42daf414d954ade887d6d7b87b7b8838b31d79e2fa951a3632a6f4ac00000000"
    }
  ]
}