{
  "hash": "00000000cf760c950cd4733f117727628d87cff2b05ac8956e53381b908fd6e2",
  "confirmations": 50514,
  "height": 2584,
  "version": 1,
  "versionHex": "00000001",
  "merkleroot": "58f20ec3486e232c0836126402014b56c48fb6334383832e9850dd4437abdb11",
  "time": 1233481390,
  "mediantime": 1233477316,
  "nonce": 4280101414,
  "bits": "1d00ffff",
  "difficulty": 1,
  "chainwork": "00000000000000000000000000000000000000000000000000000a190a190a19",
  "nTx": 1,
  "previousblockhash": "00000000fef31a0a1273eda2985413155755ad82e4d9ea4cfdc0bccc4df83351",
  "nextblockhash": "00000000741db1bbc2a0707960b309608c9da020ea96f1c15fa65e646cdfe80f",
  "strippedsize": 216,
  "size": 216,
  "weight": 864,
  "tx": [
    {
      "txid": "58f20ec3486e232c0836126402014b56c48fb6334383832e9850dd4437abdb11",
      "hash": "58f20ec3486e232c0836126402014b56c48fb6334383832e9850dd4437abdb11",
      "version": 1,
      "size": 135,
      "vsize": 135,
      "weight": 540,
      "locktime": 0,
      "vin": [
        {
          "coinbase": "04ffff001d02b002",
          "sequence": 4294967295
        }
      ],
      "vout": [
        {
          "value": 50.0,
          "n": 0,
          "scriptPubKey": {
            "asm": "04f7f5f6c465fbf219292726a6f7cba45cb460d93ca790e8f35aa5ccf124a69e55af499275d85ea90c4a940ee75244c92d9b7584a130fba8f7e44eb304406c0eb7 OP_CHECKSIG",
            "desc": "pk(04f7f5f6c465fbf219292726a6f7cba45cb460d93ca790e8f35aa5ccf124a69e55af499275d85ea90c4a940ee75244c92d9b7584a130fba8f7e44eb304406c0eb7)#snrhy609",
            "hex": "4104f7f5f6c465fbf219292726a6f7cba45cb460d93ca790e8f35aa5ccf124a69e55af499275d85ea90c4a940ee75244c92d9b7584a130fba8f7e44eb304406c0eb7ac",
            "type": "pubkey"
          }
        }
      ],
      "hex": "01000000010000000000000000000000000000000000000000000000000000000000000000ffffffff0804ffff001d02b002ffffffff0100f2052a01000000434104f7f5f6c465fbf219292726a6f7cba45cb460d93ca790e8f35aa5ccf124a69e55af499275d85ea90c4a940ee75244c92d9b7584a130fba8f7e44eb304406c0eb7ac00000000"
    }
  ]
}