{
  "hash": "000000009da7847f369b41a097529cdb499668d28a6df3e85d0470fe405560ba",
  "confirmations": 47010,
  "height": 6088,
  "version": 1,
  "versionHex": "00000001",
  "merkleroot": "edeb40776d06a2bf98caba77c05703351f5955593e2e50bd9dc70e559a96a002",
  "time": 1235999179,
  "mediantime": 1235995280,
  "nonce": 2794846774,
  "bits": "1d00ffff",
  "difficulty": 1,
  "chainwork": "000000000000000000000000000000000000000000000000000017c917c917c9",
  "nTx": 1,
  "previousblockhash": "000000004eda6096f1224f4643bf7fd12bc7c058f863d378da470f15efc14b43",
  "nextblockhash": "0000000053546be7a5a27a2f352732622e5ebb27bd2210cbbe0f4338747aae75",
  "strippedsize": 216,
  "size": 216,
  "weight": 864,
  "tx": [
    {
      "txid": "edeb40776d06a2bf98caba77c05703351f5955593e2e50bd9dc70e559a96a002",
      "hash": "edeb40776d06a2bf98caba77c05703351f5955593e2e50bd9dc70e559a96a002",
      "version": 1,
      "size": 135,
      "vsize": 135,
      "weight": 540,
      "locktime": 0,
      "vin": [
        {
          "coinbase": "04ffff001d028b06",
          "sequence": 4294967295
        }
      ],
      "vout": [
        {
          "value": 50.0,
          "n": 0,
          "scriptPubKey": {
            "asm": "048769f38c7ec7b449acbd0f08bcc5aa7e35e1fa4142437a0bfb662ce134eeb3766c80caac0d2ad551b4a279c20ade5e083aac817d42ba333a042b6d6a8e037935 OP_CHECKSIG",
            "desc": "pk(048769f38c7ec7b449acbd0f08bcc5aa7e35e1fa4142437a0bfb662ce134eeb3766c80caac0d2ad551b4a279c20ade5e083aac817d42ba333a042b6d6a8e037935)#zyuynde0",
            "hex": "41048769f38c7ec7b449acbd0f08bcc5aa7e35e1fa4142437a0bfb662ce134eeb3766c80caac0d2ad551b4a279c20ade5e083aac817d42ba333a042b6d6a8e037935ac",
            "type": "pubkey"
          }
        }
      ],
      "hex": "01000000010000000000000000000000000000000000000000000000000000000000000000ffffffff0804ffff001d028b06ffffffff0100f2052a010000004341048769f38c7ec7b449acbd0f08bcc5aa7e35e1fa4142437a0bfb662ce134eeb3766c80caac0d2ad551b4a279c20ade5e083aac817d42ba333a042b6d6a8e037935ac00000000"
    }
  ]
}