{
  "hash": "000000006490882d27c8666a6b72b4955d96e1664ff68de4631220e53c390238",
  "confirmations": 51951,
  "height": 1147,
  "version": 1,
  "versionHex": "00000001",
  "merkleroot": "a1ea571ab5b71ed8bfb65af0c7e01dad15b6a0c49d4410683f879f136ccec9d8",
  "time": 1232457025,
  "mediantime": 1232454225,
  "nonce": 4270094882,
  "bits": "1d00ffff",
  "difficulty": 1,
  "chainwork": "0000000000000000000000000000000000000000000000000000047c047c047c",
  "nTx": 1,
  "previousblockhash": "00000000d464ed4937d46a928f991fb80a807b8a7fd3ac641d7db2edda27d197",
  "nextblockhash": "00000000daacbdc1415b33e4f2ea96c8ef99cb518bd234b34a2b28f5d9362a42",
  "strippedsize": 216,
  "size": 216,
  "weight": 864,
  "tx": [
    {
      "txid": "a1ea571ab5b71ed8bfb65af0c7e01dad15b6a0c49d4410683f879f136ccec9d8",
      "hash": "a1ea571ab5b71ed8bfb65af0c7e01dad15b6a0c49d4410683f879f136ccec9d8",
      "version": 1,
      "size": 135,
      "vsize": 135,
      "weight": 540,
      "locktime": 0,
      "vin": [
        {
          "coinbase": "04ffff001d02c307",
          "sequence": 4294967295
        }
      ],
      "vout": [
        {
          "value": 50.0,
          "n": 0,
          "scriptPubKey": {
            "asm": "04361a5aeee93f7e45cdcbeead32add13bbab8947e87c33a063c125f361ff5b952b0d6c975eff727753be5b4c445b9c871aa2d7caf0caf122c24c57042c3127c8f OP_CHECKSIG",
            "desc": "pk(04361a5aeee93f7e45cdcbeead32add13bbab8947e87c33a063c125f361ff5b952b0d6c975eff727753be5b4c445b9c871aa2d7caf0caf122c24c57042c3127c8f)#ggderked",
            "hex": "4104361a5aeee93f7e45cdcbeead32add13bbab8947e87c33a063c125f361ff5b952b0d6c975eff727753be5b4c445b9c871aa2d7caf0caf122c24c57042c3127c8fac",
            "type": "pubkey"
          }
        }
      ],
      "hex": "01000000010000000000000000000000000000000000000000000000000000000000000000ffffffff0804ffff001d02c307ffffffff0100f2052a01000000434104361a5aeee93f7e45cdcbeead32add13bbab8947e87c33a063c125f361ff5b952b0d6c975eff727753be5b4c445b9c871aa2d7caf0caf122c24c57042c3127c8fac00000000"
    }
  ]
}