{
  "hash": "000000009ddb5beb6c28abf326ae872b111f3a9baeb1a8eea5a231caeaa3145d",
  "confirmations": 50179,
  "height": 2919,
  "version": 1,
  "versionHex": "00000001",
  "merkleroot": "a695670a3ba30572c1c4cc150ae18a934c669528f29371c28abc6e50ce4c5dd2",
  "time": 1233704592,
  "mediantime": 1233701758,
  "nonce": 19930002,
  "bits": "1d00ffff",
  "difficulty": 1,
  "chainwork": "00000000000000000000000000000000000000000000000000000b680b680b68",
  "nTx": 1,
  "previousblockhash": "00000000e580752830a7430c1315dddc83628b48520a83147cfb5477b90267b1",
  "nextblockhash": "000000007746a642cbd31c0b1d79008ff3bcd20e9a12cb146b063c714f76b168",
  "strippedsize": 216,
  "size": 216,
  "weight": 864,
  "tx": [
    {
      "txid": "a695670a3ba30572c1c4cc150ae18a934c669528f29371c28abc6e50ce4c5dd2",
      "hash": "a695670a3ba30572c1c4cc150ae18a934c669528f29371c28abc6e50ce4c5dd2",
      "version": 1,
      "size": 135,
      "vsize": 135,
      "weight": 540,
      "locktime": 0,
      "vin": [
        {
          "coinbase": "04ffff001d02e606",
          "sequence": 4294967295
        }
      ],
      "vout": [
        {
          "value": 50.0,
          "n": 0,
          "scriptPubKey": {
            "asm": "04a3bcb94dd6cf25eee1fe715f09519cba8e66eea0c1ed74a5cd99c0150456d5d48ac9d2c36ed020119f10889af076632a042f929a32e102177929d17ecb006e41 OP_CHECKSIG",
            "desc": "pk(04a3bcb94dd6cf25eee1fe715f09519cba8e66eea0c1ed74a5cd99c0150456d5d48ac9d2c36ed020119f10889af076632a042f929a32e102177929d17ecb006e41)#kjhlnug4",
            "hex": "4104a3bcb94dd6cf25eee1fe715f09519cba8e66eea0c1ed74a5cd99c0150456d5d48ac9d2c36ed020119f10889af076632a042f929a32e102177929d17ecb006e41ac",
            "type": "pubkey"
          }
        }
      ],
      "hex": "01000000010000000000000000000000000000000000000000000000000000000000000000ffffffff0804ffff001d02e606ffffffff0100f2052a01000000434104a3bcb94dd6cf25eee1fe715f09519cba8e66eea0c1ed74a5cd99c0150456d5d48ac9d2c36ed020119f10889af076632a042f929a32e102177929d17ecb006e41ac00000000"
    }
  ]
}