{
  "hash": "00000000a2696fcc7e4db264b594b481759b692ebaff7cff61145ea11d983593",
  "confirmations": 50418,
  "height": 2680,
  "version": 1,
  "versionHex": "00000001",
  "merkleroot": "4379b1c98a66633aa58ff7d2129300d7a805747dec4086e465eb987a1fe9c8a4",
  "time": 1233549163,
  "mediantime": 1233545310,
  "nonce": 2636879905,
  "bits": "1d00ffff",
  "difficulty": 1,
  "chainwork": "00000000000000000000000000000000000000000000000000000a790a790a79",
  "nTx": 1,
  "previousblockhash": "00000000e15e3f9f5237c4d268c20f23ddbb78c2787fe3c1453ce625414cf656",
  "nextblockhash": "00000000a6c5fbddc973517a87e614bcfe39d053109dd357492e1c114a57c32a",
  "strippedsize": 216,
  "size": 216,
  "weight": 864,
  "tx": [
    {
      "txid": "4379b1c98a66633aa58ff7d2129300d7a805747dec4086e465eb987a1fe9c8a4",
      "hash": "4379b1c98a66633aa58ff7d2129300d7a805747dec4086e465eb987a1fe9c8a4",
      "version": 1,
      "size": 135,
      "vsize": 135,
      "weight": 540,
      "locktime": 0,
      "vin": [
        {
          "coinbase": "04ffff001d027504",
          "sequence": 4294967295
        }
      ],
      "vout": [
        {
          "value": 50.0,
          "n": 0,
          "scriptPubKey": {
            "asm": "0431a4c6006f9d5b9f26437d41b85b5142291880d78a01b8d91b3c6d61a7e5b46c58c16ae3659b61ab6523ccf86d3a8b02cfb0834090c2b6ca97be7f30ce67288c OP_CHECKSIG",
            "desc": "pk(0431a4c6006f9d5b9f26437d41b85b5142291880d78a01b8d91b3c6d61a7e5b46c58c16ae3659b61ab6523ccf86d3a8b02cfb0834090c2b6ca97be7f30ce67288c)#9yy7wet0",
            "hex": "410431a4c6006f9d5b9f26437d41b85b5142291880d78a01b8d91b3c6d61a7e5b46c58c16ae3659b61ab6523ccf86d3a8b02cfb0834090c2b6ca97be7f30ce67288cac",
            "type": "pubkey"
          }
        }
      ],
      "hex": "01000000010000000000000000000000000000000000000000000000000000000000000000ffffffff0804ffff001d027504ffffffff0100f2052a0100000043410431a4c6006f9d5b9f26437d41b85b5142291880d78a01b8d91b3c6d61a7e5b46c58c16ae3659b61ab6523ccf86d3a8b02cfb0834090c2b6ca97be7f30ce67288cac00000000"
    }
  ]
}