{
  "hash": "0000000083d7354495f32cedf2c906d176b085561786f46e7e9e161d04c0b628",
  "confirmations": 46124,
  "height": 6974,
  "version": 1,
  "versionHex": "00000001",
  "merkleroot": "0448f0a9fed5f31d225053c4f353aafbb9c767fe5d07d627b6c61a8479b3f3a6",
  "time": 1236696394,
  "mediantime": 1236693063,
  "nonce": 138863049,
  "bits": "1d00ffff",
  "difficulty": 1,
  "chainwork": "00000000000000000000000000000000000000000000000000001b3f1b3f1b3f",
  "nTx": 1,
  "previousblockhash": "000000001704a08b0fc9d108a6f2b2cad455e5615fd3f0ed9e827093764ff8cc",
  "nextblockhash": "00000000395cf80fdfcb67aa69779a02a7d6d21562f74d4b53238d542248acae",
  "strippedsize": 216,
  "size": 216,
  "weight": 864,
  "tx": [
    {
      "txid": "0448f0a9fed5f31d225053c4f353aafbb9c767fe5d07d627b6c61a8479b3f3a6",
      "hash": "0448f0a9fed5f31d225053c4f353aafbb9c767fe5d07d627b6c61a8479b3f3a6",
      "version": 1,
      "size": 135,
      "vsize": 135,
      "weight": 540,
      "locktime": 0,
      "vin": [
        {
          "coinbase": "04ffff001d02f005",
          "sequence": 4294967295
        }
      ],
      "vout": [
        {
          "value": 50.0,
          "n": 0,
          "scriptPubKey": {
            "asm": "04c645ffc4ed4ed65f369053a93a48930d22fce10f20052e4c91782e9627fdeb725c8b4de373bee597d9f93371b0f9a6bca325f61acf4f2e0aa87905a27491e834 OP_CHECKSIG",
            "desc": "pk(04c645ffc4ed4ed65f369053a93a48930d22fce10f20052e4c91782e9627fdeb725c8b4de373bee597d9f93371b0f9a6bca325f61acf4f2e0aa87905a27491e834)#5var4r57",
            "hex": "4104c645ffc4ed4ed65f369053a93a48930d22fce10f20052e4c91782e9627fdeb725c8b4de373bee597d9f93371b0f9a6bca325f61acf4f2e0aa87905a27491e834ac",
            "type": "pubkey"
          }
        }
      ],
      "hex": "01000000010000000000000000000000000000000000000000000000000000000000000000ffffffff0804ffff001d02f005ffffffff0100f2052a01000000434104c645ffc4ed4ed65f369053a93a48930d22fce10f20052e4c91782e9627fdeb725c8b4de373bee597d9f93371b0f9a6bca325f61acf4f2e0aa87905a27491e834ac00000000"
    }
  ]
}