{
  "hash": "00000000d9db93f719d49cbca051513dc0fee615fe97e38dc3652a6bf90d218f",
  "confirmations": 48122,
  "height": 4976,
  "version": 1,
  "versionHex": "00000001",
  "merkleroot": "03e77d74aabd5a12e0ecfe8a5abf224d8d620c6a9e8c5898eac10707314a2c04",
  "time": 1235123709,
  "mediantime": 1235119462,
  "nonce": 3655215365,
  "bits": "1d00ffff",
  "difficulty": 1,
  "chainwork": "0000000000000000000000000000000000000000000000000000137113711371",
  "nTx": 1,
  "previousblockhash": "00000000a4899a52e166b3da8be35c41dc700ac52661cb7c75e0f6045ff88b28",
  "nextblockhash": "00000000d3e2fc199bb16003c721247afb95908c0fd5783b7d889a47fe913f2c",
  "strippedsize": 216,
  "size": 216,
  "weight": 864,
  "tx": [
    {
      "txid": "03e77d74aabd5a12e0ecfe8a5abf224d8d620c6a9e8c5898eac10707314a2c04",
      "hash": "03e77d74aabd5a12e0ecfe8a5abf224d8d620c6a9e8c5898eac10707314a2c04",
      "version": 1,
      "size": 135,
      "vsize": 135,
      "weight": 540,
      "locktime": 0,
      "vin": [
        {
          "coinbase": "04ffff001d02b206",
          "sequence": 4294967295
        }
      ],
      "vout": [
        {
          "value": 50.0,
          "n": 0,
          "scriptPubKey": {
            "asm": "04b42b76e07e353e1b298af253a6069208a4252ad701467befacf285aac0442c56008d42b20c54d3279bbd13ca366a93609a450c6d8029b34d53fa50b2a2192ab1 OP_CHECKSIG",
            "desc": "pk(04b42b76e07e353e1b298af253a6069208a4252ad701467befacf285aac0442c56008d42b20c54d3279bbd13ca366a93609a450c6d8029b34d53fa50b2a2192ab1)#awwz36ym",
            "hex": "4104b42b76e07e353e1b298af253a6069208a4252ad701467befacf285aac0442c56008d42b20c54d3279bbd13ca366a93609a450c6d8029b34d53fa50b2a2192ab1ac",
            "type": "pubkey"
          }
        }
      ],
      "hex": "01000000010000000000000000000000000000000000000000000000000000000000000000ffffffff0804ffff001d02b206ffffffff0100f2052a01000000434104b42b76e07e353e1b298af253a6069208a4252ad701467befacf285aac0442c56008d42b20c54d3279bbd13ca366a93609a450c6d8029b34d53fa50b2a2192ab1ac00000000"
    }
  ]
}