{
  "hash": "00000000ff2f292114bada4009503a5e8351e9587c82289c4d51499b79e0b80c",
  "confirmations": 48286,
  "height": 4812,
  "version": 1,
  "versionHex": "00000001",
  "merkleroot": "e40f8e7e21dd159860183d133e1de45a1d439dd5b61d4410c679a175da392c9f",
  "time": 1235007431,
  "mediantime": 1235004874,
  "nonce": 3756862246,
  "bits": "1d00ffff",
  "difficulty": 1,
  "chainwork": "000000000000000000000000000000000000000000000000000012cd12cd12cd",
  "nTx": 1,
  "previousblockhash": "00000000d5230b6ad7b254cfe03b8af8ca676b02b42375ddee00491be16c407a",
  "nextblockhash": "0000000054c0a4d5ccaab1f63ce125c2d68119a13389f10f9ce62e5501b60fff",
  "strippedsize": 216,
  "size": 216,
  "weight": 864,
  "tx": [
    {
      "txid": "e40f8e7e21dd159860183d133e1de45a1d439dd5b61d4410c679a175da392c9f",
      "hash": "e40f8e7e21dd159860183d133e1de45a1d439dd5b61d4410c679a175da392c9f",
      "version": 1,
      "size": 135,
      "vsize": 135,
      "weight": 540,
      "locktime": 0,
      "vin": [
        {
          "coinbase": "04ffff001d029104",
          "sequence": 4294967295
        }
      ],
      "vout": [
        {
          "value": 50.0,
          "n": 0,
          "scriptPubKey": {
            "asm": "04e0ceb42050b2b4aa72f575efbbed8e9bb9277bd9c2a00e0520f95f200bb79939d62c498fc5eafa80bb03c831e6d2645b403e5387a6732b1ede567260abf5df6f OP_CHECKSIG",
            "desc": "pk(04e0ceb42050b2b4aa72f575efbbed8e9bb9277bd9c2a00e0520f95f200bb79939d62c498fc5eafa80bb03c831e6d2645b403e5387a6732b1ede567260abf5df6f)#9lfdr93d",
            "hex": "4104e0ceb42050b2b4aa72f575efbbed8e9bb9277bd9c2a00e0520f95f200bb79939d62c498fc5eafa80bb03c831e6d2645b403e5387a6732b1ede567260abf5df6fac",
            "type": "pubkey"
          }
        }
      ],
      "hex": "01000000010000000000000000000000000000000000000000000000000000000000000000ffffffff0804ffff001d029104ffffffff0100f2052a01000000434104e0ceb42050b2b4aa72f575efbbed8e9bb9277bd9c2a00e0520f95f200bb79939d62c498fc5eafa80bb03c831e6d2645b403e5387a6732b1ede567260abf5df6fac00000000"
    }
  ]
}