{
  "hash": "000000005785d33c4ebe225528532e2fe7d1f545f01b486f16261afa3359ba8f",
  "confirmations": 45321,
  "height": 7777,
  "version": 1,
  "versionHex": "00000001",
  "merkleroot": "8a940f44b09744533577ba4605049d90c2e4964ef863aa396be2df0d40d8e85a",
  "time": 1237296120,
  "mediantime": 1237294395,
  "nonce": 722295813,
  "bits": "1d00ffff",
  "difficulty": 1,
  "chainwork": "00000000000000000000000000000000000000000000000000001e621e621e62",
  "nTx": 1,
  "previousblockhash": "00000000b1b9a989dbf3e63e0232ed2114453d9b708c4de71008386850d72f97",
  "nextblockhash": "0000000074b3e5c7c97e10be14edc49589e469eef0c3109e5f5a6041383ba409",
  "strippedsize": 216,
  "size": 216,
  "weight": 864,
  "tx": [
    {
      "txid": "8a940f44b09744533577ba4605049d90c2e4964ef863aa396be2df0d40d8e85a",
      "hash": "8a940f44b09744533577ba4605049d90c2e4964ef863aa396be2df0d40d8e85a",
      "version": 1,
      "size": 135,
      "vsize": 135,
      "weight": 540,
      "locktime": 0,
      "vin": [
        {
          "coinbase": "04ffff001d025e05",
          "sequence": 4294967295
        }
      ],
      "vout": [
        {
          "value": 50.0,
          "n": 0,
          "scriptPubKey": {
            "asm": "048a83fc8c9c15df94be66739e4c212997f294190e7802881c458693c6c48ed2200f6548c47363db83361635c06f27d33731d4a9830ee767cd322f2da251031396 OP_CHECKSIG",
            "desc": "pk(048a83fc8c9c15df94be66739e4c212997f294190e7802881c458693c6c48ed2200f6548c47363db83361635c06f27d33731d4a9830ee767cd322f2da251031396)#nhrgtm75",
            "hex": "41048a83fc8c9c15df94be66739e4c212997f294190e7802881c458693c6c48ed2200f6548c47363db83361635c06f27d33731d4a9830ee767cd322f2da251031396ac",
            "type": "pubkey"
          }
        }
      ],
      "hex": "01000000010000000000000000000000000000000000000000000000000000000000000000ffffffff0804ffff001d025e05ffffffff0100f2052a010000004341048a83fc8c9c15df94be66739e4c212997f294190e7802881c458693c6c48ed2200f6548c47363db83361635c06f27d33731d4a9830ee767cd322f2da251031396ac00000000"
    }
  ]
}