{
  "hash": "000000002855bc26b205524b86a8c5440a1fb7f05b136d840310308716c3a3cf",
  "confirmations": 46198,
  "height": 6900,
  "version": 1,
  "versionHex": "00000001",
  "merkleroot": "b4aa9e5438f6b2157c523275ebd81011d025cfdc95105296312482b71cac50ff",
  "time": 1236637017,
  "mediantime": 1236633071,
  "nonce": 3217060099,
  "bits": "1d00ffff",
  "difficulty": 1,
  "chainwork": "00000000000000000000000000000000000000000000000000001af51af51af5",
  "nTx": 1,
  "previousblockhash": "0000000046f671b1a1a53fb5d2d63086b9023348c6e7829a76f0a4375d405804",
  "nextblockhash": "000000002bb02e73ed4eef388e4c4f738b688cc02da3265fe0a57fb8c951feab",
  "strippedsize": 215,
  "size": 215,
  "weight": 860,
  "tx": [
    {
      "txid": "b4aa9e5438f6b2157c523275ebd81011d025cfdc95105296312482b71cac50ff",
      "hash": "b4aa9e5438f6b2157c523275ebd81011d025cfdc95105296312482b71cac50ff",
      "version": 1,
      "size": 134,
      "vsize": 134,
      "weight": 536,
      "locktime": 0,
      "vin": [
        {
          "coinbase": "04ffff001d015a",
          "sequence": 4294967295
        }
      ],
      "vout": [
        {
          "value": 50.0,
          "n": 0,
          "scriptPubKey": {
            "asm": "04c6bf757cf07dec3252a0602d585b454125c2a49965a3167834937d35a62e04d042d64602a194915acf1839329499063b2cbeea854260cc358a544f92ac95f422 OP_CHECKSIG",
            "desc": "pk(04c6bf757cf07dec3252a0602d585b454125c2a49965a3167834937d35a62e04d042d64602a194915acf1839329499063b2cbeea854260cc358a544f92ac95f422)#xsxxk2hz",
            "hex": "4104c6bf757cf07dec3252a0602d585b454125c2a49965a3167834937d35a62e04d042d64602a194915acf1839329499063b2cbeea854260cc358a544f92ac95f422ac",
            "type": "pubkey"
          }
        }
      ],
      "hex": "01000000010000000000000000000000000000000000000000000000000000000000000000ffffffff0704ffff001d015affffffff0100f2052a01000000434104c6bf757cf07dec3252a0602d585b454125c2a49965a3167834937d35a62e04d042d64602a194915acf1839329499063b2cbeea854260cc358a544f92ac95f422ac00000000"
    }
  ]
}