{
  "hash": "00000000083731ec88716c2b972bcd3333ce941b4425df7c7d95a60c733f5427",
  "confirmations": 45253,
  "height": 7845,
  "version": 1,
  "versionHex": "00000001",
  "merkleroot": "c79ba95ca7d6567d4ded209cf17c8e8c10d7ec49585c10f77cf59f759a7311e1",
  "time": 1237348102,
  "mediantime": 1237343952,
  "nonce": 3286031161,
  "bits": "1d00ffff",
  "difficulty": 1,
  "chainwork": "00000000000000000000000000000000000000000000000000001ea61ea61ea6",
  "nTx": 1,
  "previousblockhash": "0000000042ce3fa08a008cce1f6127c55505a56c2adf03296a5b9253e4c43ab5",
  "nextblockhash": "00000000f50ecd7a0b35076021c957d6df5b1f045ad24cfeb271c278bafe030c",
  "strippedsize": 216,
  "size": 216,
  "weight": 864,
  "tx": [
    {
      "txid": "c79ba95ca7d6567d4ded209cf17c8e8c10d7ec49585c10f77cf59f759a7311e1",
      "hash": "c79ba95ca7d6567d4ded209cf17c8e8c10d7ec49585c10f77cf59f759a7311e1",
      "version": 1,
      "size": 135,
      "vsize": 135,
      "weight": 540,
      "locktime": 0,
      "vin": [
        {
          "coinbase": "04ffff001d029f06",
          "sequence": 4294967295
        }
      ],
      "vout": [
        {
          "value": 50.0,
          "n": 0,
          "scriptPubKey": {
            "asm": "04430704a3974c0a234bab95a80bc784be05b5e0cd6fc5dcdd928bf423d5014549f63066bf8aba8e17a4a9414d074a90803725c0cb5f696483ff3250016e240789 OP_CHECKSIG",
            "desc": "pk(04430704a3974c0a234bab95a80bc784be05b5e0cd6fc5dcdd928bf423d5014549f63066bf8aba8e17a4a9414d074a90803725c0cb5f696483ff3250016e240789)#lk9a0yp9",
            "hex": "4104430704a3974c0a234bab95a80bc784be05b5e0cd6fc5dcdd928bf423d5014549f63066bf8aba8e17a4a9414d074a90803725c0cb5f696483ff3250016e240789ac",
            "type": "pubkey"
          }
        }
      ],
      "hex": "01000000010000000000000000000000000000000000000000000000000000000000000000ffffffff0804ffff001d029f06ffffffff0100f2052a01000000434104430704a3974c0a234bab95a80bc784be05b5e0cd6fc5dcdd928bf423d5014549f63066bf8aba8e17a4a9414d074a90803725c0cb5f696483ff3250016e240789ac00000000"
    }
  ]
}