{
  "hash": "00000000f26567b514e19d504b4ab552193273bb96cc8e4fef34ec5e4c970a47",
  "confirmations": 50240,
  "height": 2858,
  "version": 1,
  "versionHex": "00000001",
  "merkleroot": "1626db14f5c661aa146411596dc815585c18a3ce1a58ba5fe5b9935b30eda04c",
  "time": 1233662516,
  "mediantime": 1233659437,
  "nonce": 3023019779,
  "bits": "1d00ffff",
  "difficulty": 1,
  "chainwork": "00000000000000000000000000000000000000000000000000000b2b0b2b0b2b",
  "nTx": 1,
  "previousblockhash": "00000000d7e6c1c27ea335a4014b54f51b2805cae5d4f1c19ce59a4a27e607e3",
  "nextblockhash": "000000008f7acf8bcd700f8e96e31a2d6a7b2e002f9fa9fbf559b520b1bd5e00",
  "strippedsize": 216,
  "size": 216,
  "weight": 864,
  "tx": [
    {
      "txid": "1626db14f5c661aa146411596dc815585c18a3ce1a58ba5fe5b9935b30eda04c",
      "hash": "1626db14f5c661aa146411596dc815585c18a3ce1a58ba5fe5b9935b30eda04c",
      "version": 1,
      "size": 135,
      "vsize": 135,
      "weight": 540,
      "locktime": 0,
      "vin": [
        {
          "coinbase": "04ffff001d02dd06",
          "sequence": 4294967295
        }
      ],
      "vout": [
        {
          "value": 50.0,
          "n": 0,
          "scriptPubKey": {
            "asm": "04866d5b4fc0eb38f67031b782c953363c19fc2d46c196699c7d14c746aa02535179611b530c09afa47c7b0bdcade1e3d1e8edcb1c99507d8105f8ecdbdf89d2bb OP_CHECKSIG",
            "desc": "pk(04866d5b4fc0eb38f67031b782c953363c19fc2d46c196699c7d14c746aa02535179611b530c09afa47c7b0bdcade1e3d1e8edcb1c99507d8105f8ecdbdf89d2bb)#0z2lppup",
            "hex": "4104866d5b4fc0eb38f67031b782c953363c19fc2d46c196699c7d14c746aa02535179611b530c09afa47c7b0bdcade1e3d1e8edcb1c99507d8105f8ecdbdf89d2bbac",
            "type": "pubkey"
          }
        }
      ],
      "hex": "01000000010000000000000000000000000000000000000000000000000000000000000000ffffffff0804ffff001d02dd06ffffffff0100f2052a01000000434104866d5b4fc0eb38f67031b782c953363c19fc2d46c196699c7d14c746aa02535179611b530c09afa47c7b0bdcade1e3d1e8edcb1c99507d8105f8ecdbdf89d2bbac00000000"
    }
  ]
}