{
  "hash": "000000004fa16ed5632c76e1d5f038c1fdddb38b6c5ef4640e6e04a49e14259a",
  "confirmations": 46176,
  "height": 6922,
  "version": 1,
  "versionHex": "00000001",
  "merkleroot": "06504f1bd9c5ff0395381b4de0ef79c56ff70959f3691549f4e44377b3475fea",
  "time": 1236653482,
  "mediantime": 1236650442,
  "nonce": 658657059,
  "bits": "1d00ffff",
  "difficulty": 1,
  "chainwork": "00000000000000000000000000000000000000000000000000001b0b1b0b1b0b",
  "nTx": 1,
  "previousblockhash": "000000002e6cdb76ffae78a57f7b7cf8f74868fe6788bcd0b19f4165d31ac524",
  "nextblockhash": "00000000fcdec9bd76882d76697b6fa477aec7df646272958d557b366765159f",
  "strippedsize": 216,
  "size": 216,
  "weight": 864,
  "tx": [
    {
      "txid": "06504f1bd9c5ff0395381b4de0ef79c56ff70959f3691549f4e44377b3475fea",
      "hash": "06504f1bd9c5ff0395381b4de0ef79c56ff70959f3691549f4e44377b3475fea",
      "version": 1,
      "size": 135,
      "vsize": 135,
      "weight": 540,
      "locktime": 0,
      "vin": [
        {
          "coinbase": "04ffff001d02cd00",
          "sequence": 4294967295
        }
      ],
      "vout": [
        {
          "value": 50.0,
          "n": 0,
          "scriptPubKey": {
            "asm": "04d5c84410ad308eec41bccce2488c695a2da26641918b078c64de8710ce683c761373d8029ed219428d49716c2d2916c90cbd390b87a8b5a7575649279995b7bd OP_CHECKSIG",
            "desc": "pk(04d5c84410ad308eec41bccce2488c695a2da26641918b078c64de8710ce683c761373d8029ed219428d49716c2d2916c90cbd390b87a8b5a7575649279995b7bd)#56u78r58",
            "hex": "4104d5c84410ad308eec41bccce2488c695a2da26641918b078c64de8710ce683c761373d8029ed219428d49716c2d2916c90cbd390b87a8b5a7575649279995b7bdac",
            "type": "pubkey"
          }
        }
      ],
      "hex": "01000000010000000000000000000000000000000000000000000000000000000000000000ffffffff0804ffff001d02cd00ffffffff0100f2052a01000000434104d5c84410ad308eec41bccce2488c695a2da26641918b078c64de8710ce683c761373d8029ed219428d49716c2d2916c90cbd390b87a8b5a7575649279995b7bdac00000000"
    }
  ]
}