{
  "hash": "00000000ff6956311d1122294f29e862f2b9429133ebb66e7b7237102f481df4",
  "confirmations": 51244,
  "height": 1854,
  "version": 1,
  "versionHex": "00000001",
  "merkleroot": "c5061f16b431f5e45d6b5d0e30874a8b9096e36aa151448ce420f7335cf37551",
  "time": 1232923798,
  "mediantime": 1232921243,
  "nonce": 582695478,
  "bits": "1d00ffff",
  "difficulty": 1,
  "chainwork": "0000000000000000000000000000000000000000000000000000073f073f073f",
  "nTx": 1,
  "previousblockhash": "00000000a40a9d672c54ab44bcf8d4826087253203a88f2f7ee51d59a3c97bb8",
  "nextblockhash": "000000003de1ee229e167223897b679e43b43f9a57df1195472e4b2f74cc2ad3",
  "strippedsize": 216,
  "size": 216,
  "weight": 864,
  "tx": [
    {
      "txid": "c5061f16b431f5e45d6b5d0e30874a8b9096e36aa151448ce420f7335cf37551",
      "hash": "c5061f16b431f5e45d6b5d0e30874a8b9096e36aa151448ce420f7335cf37551",
      "version": 1,
      "size": 135,
      "vsize": 135,
      "weight": 540,
      "locktime": 0,
      "vin": [
        {
          "coinbase": "04ffff001d029b04",
          "sequence": 4294967295
        }
      ],
      "vout": [
        {
          "value": 50.0,
          "n": 0,
          "scriptPubKey": {
            "asm": "04cfa9270d84a8264b142ff6d6d0ce899b4f225bf53d3ab87d64bf8d79474e4d3bc96f5d82fd684925c5ac04305bc889052a723905f79e6f2c0898ff4406d3346b OP_CHECKSIG",
            "desc": "pk(04cfa9270d84a8264b142ff6d6d0ce899b4f225bf53d3ab87d64bf8d79474e4d3bc96f5d82fd684925c5ac04305bc889052a723905f79e6f2c0898ff4406d3346b)#xs5hs82g",
            "hex": "4104cfa9270d84a8264b142ff6d6d0ce899b4f225bf53d3ab87d64bf8d79474e4d3bc96f5d82fd684925c5ac04305bc889052a723905f79e6f2c0898ff4406d3346bac",
            "type": "pubkey"
          }
        }
      ],
      "hex": "01000000010000000000000000000000000000000000000000000000000000000000000000ffffffff0804ffff001d029b04ffffffff0100f2052a01000000434104cfa9270d84a8264b142ff6d6d0ce899b4f225bf53d3ab87d64bf8d79474e4d3bc96f5d82fd684925c5ac04305bc889052a723905f79e6f2c0898ff4406d3346bac00000000"
    }
  ]
}