{
  "hash": "000000003764082701ec20cff0d916e2085f0416b289e77aacea65d4f30247f2",
  "confirmations": 43516,
  "height": 9582,
  "version": 1,
  "versionHex": "00000001",
  "merkleroot": "a6d3160e16910b3afd59407edb6518bf1373b4540d59c25365556ca47c6f2d2b",
  "time": 1238686051,
  "mediantime": 1238682384,
  "nonce": 1842003487,
  "bits": "1d00ffff",
  "difficulty": 1,
  "chainwork": "0000000000000000000000000000000000000000000000000000256f256f256f",
  "nTx": 1,
  "previousblockhash": "0000000002aedc1b39bb1d25095100c193813b5344d79273347089259468ece0",
  "nextblockhash": "00000000769bdd49485a3885587411b2e2a0fef7efc38f9df7a9845e67724765",
  "strippedsize": 216,
  "size": 216,
  "weight": 864,
  "tx": [
    {
      "txid": "a6d3160e16910b3afd59407edb6518bf1373b4540d59c25365556ca47c6f2d2b",
      "hash": "a6d3160e16910b3afd59407edb6518bf1373b4540d59c25365556ca47c6f2d2b",
      "version": 1,
      "size": 135,
      "vsize": 135,
      "weight": 540,
      "locktime": 0,
      "vin": [
        {
          "coinbase": "04ffff001d02ad06",
          "sequence": 4294967295
        }
      ],
      "vout": [
        {
          "value": 50.0,
          "n": 0,
          "scriptPubKey": {
            "asm": "04a35f94b7d00cd6bb65e2cb5003b5147106c038ff204d7dc9166ded97a5e3719c1c08d58a38711370136e6f3718cde7dfe631fb799e13bf1455a16be18c7ef0ca OP_CHECKSIG",
            "desc": "pk(04a35f94b7d00cd6bb65e2cb5003b5147106c038ff204d7dc9166ded97a5e3719c1c08d58a38711370136e6f3718cde7dfe631fb799e13bf1455a16be18c7ef0ca)#6q6mx4ug",
            "hex": "4104a35f94b7d00cd6bb65e2cb5003b5147106c038ff204d7dc9166ded97a5e3719c1c08d58a38711370136e6f3718cde7dfe631fb799e13bf1455a16be18c7ef0caac",
            "type": "pubkey"
          }
        }
      ],
      "hex": "01000000010000000000000000000000000000000000000000000000000000000000000000ffffffff0804ffff001d02ad06ffffffff0100f2052a01000000434104a35f94b7d00cd6bb65e2cb5003b5147106c038ff204d7dc9166ded97a5e3719c1c08d58a38711370136e6f3718cde7dfe631fb799e13bf1455a16be18c7ef0caac00000000"
    }
  ]
}