{
  "hash": "00000000c195cde16f3dbf9f7c65976e9225e500a92d285b052d027556253519",
  "confirmations": 47643,
  "height": 5455,
  "version": 1,
  "versionHex": "00000001",
  "merkleroot": "e6168d120718919b332efd40d667dd9a9ecbfa949479b69f5350a43801fb2a83",
  "time": 1235487324,
  "mediantime": 1235483873,
  "nonce": 3465315883,
  "bits": "1d00ffff",
  "difficulty": 1,
  "chainwork": "0000000000000000000000000000000000000000000000000000155015501550",
  "nTx": 1,
  "previousblockhash": "000000002e4f27548475b3bd6dc3542ac929d369f453181bcdf0035b11cae813",
  "nextblockhash": "00000000a41d7cd90863e72b25cb473115c90bdc839059c24d4b9418aeeb2238",
  "strippedsize": 216,
  "size": 216,
  "weight": 864,
  "tx": [
    {
      "txid": "e6168d120718919b332efd40d667dd9a9ecbfa949479b69f5350a43801fb2a83",
      "hash": "e6168d120718919b332efd40d667dd9a9ecbfa949479b69f5350a43801fb2a83",
      "version": 1,
      "size": 135,
      "vsize": 135,
      "weight": 540,
      "locktime": 0,
      "vin": [
        {
          "coinbase": "04ffff001d02d104",
          "sequence": 4294967295
        }
      ],
      "vout": [
        {
          "value": 50.0,
          "n": 0,
          "scriptPubKey": {
            "asm": "049a78bb1112c5879bb5f87c35567d51f71a4f297b02b5a5197f89908a9c5acffa59b737b883d4938dbe209de319036ba6a35647cd1dd4334e644660e4a3bdf7ee OP_CHECKSIG",
            "desc": "pk(049a78bb1112c5879bb5f87c35567d51f71a4f297b02b5a5197f89908a9c5acffa59b737b883d4938dbe209de319036ba6a35647cd1dd4334e644660e4a3bdf7ee)#qn04nfx8",
            "hex": "41049a78bb1112c5879bb5f87c35567d51f71a4f297b02b5a5197f89908a9c5acffa59b737b883d4938dbe209de319036ba6a35647cd1dd4334e644660e4a3bdf7eeac",
            "type": "pubkey"
          }
        }
      ],
      "hex": "01000000010000000000000000000000000000000000000000000000000000000000000000ffffffff0804ffff001d02d104ffffffff0100f2052a010000004341049a78bb1112c5879bb5f87c35567d51f71a4f297b02b5a5197f89908a9c5acffa59b737b883d4938dbe209de319036ba6a35647cd1dd4334e644660e4a3bdf7eeac00000000"
    }
  ]
}