{
  "hash": "00000000c7862910c4b517ee31e53c4d7c387442a6403e281719c20bf667d607",
  "confirmations": 51413,
  "height": 1685,
  "version": 1,
  "versionHex": "00000001",
  "merkleroot": "803fd048a1bd52d4e36bb7bfe5805f1fbda6b7d280e2600b7e3a4a24b4f7a41d",
  "time": 1232846597,
  "mediantime": 1232844161,
  "nonce": 2076309561,
  "bits": "1d00ffff",
  "difficulty": 1,
  "chainwork": "0000000000000000000000000000000000000000000000000000069606960696",
  "nTx": 1,
  "previousblockhash": "000000007c85c85c1f2e9d277206d87343cf47703b8b01cd6efd56d1df85df18",
  "nextblockhash": "0000000007123c244126c38e1c702e49b136905581f43070f0b58f2bbdb1cbfc",
  "strippedsize": 216,
  "size": 216,
  "weight": 864,
  "tx": [
    {
      "txid": "803fd048a1bd52d4e36bb7bfe5805f1fbda6b7d280e2600b7e3a4a24b4f7a41d",
      "hash": "803fd048a1bd52d4e36bb7bfe5805f1fbda6b7d280e2600b7e3a4a24b4f7a41d",
      "version": 1,
      "size": 135,
      "vsize": 135,
      "weight": 540,
      "locktime": 0,
      "vin": [
        {
          "coinbase": "04ffff001d02f002",
          "sequence": 4294967295
        }
      ],
      "vout": [
        {
          "value": 50.0,
          "n": 0,
          "scriptPubKey": {
            "asm": "044561e48661addf38d6c8fa6a0e71e9a96a6b3b44f04ae1452c83308cead99b7d0c0c21f2899daafb7de5ba022329cae6335575d5fcc7d7a10e74baa0736bbffa OP_CHECKSIG",
            "desc": "pk(044561e48661addf38d6c8fa6a0e71e9a96a6b3b44f04ae1452c83308cead99b7d0c0c21f2899daafb7de5ba022329cae6335575d5fcc7d7a10e74baa0736bbffa)#3u2hpj0a",
            "hex": "41044561e48661addf38d6c8fa6a0e71e9a96a6b3b44f04ae1452c83308cead99b7d0c0c21f2899daafb7de5ba022329cae6335575d5fcc7d7a10e74baa0736bbffaac",
            "type": "pubkey"
          }
        }
      ],
      "hex": "01000000010000000000000000000000000000000000000000000000000000000000000000ffffffff0804ffff001d02f002ffffffff0100f2052a010000004341044561e48661addf38d6c8fa6a0e71e9a96a6b3b44f04ae1452c83308cead99b7d0c0c21f2899daafb7de5ba022329cae6335575d5fcc7d7a10e74baa0736bbffaac00000000"
    }
  ]
}