{
  "hash": "000000001a748e1c97226c59b9ddf79a54e0857116808a1b5610a52aef4ed5b5",
  "confirmations": 52077,
  "height": 258,
  "version": 1,
  "versionHex": "00000001",
  "merkleroot": "b8bcf3466dca324bca7f3a81e992a14afcce310adc290e786aa7ec78b89b8f19",
  "time": 1231800349,
  "mediantime": 1231795882,
  "nonce": 320395568,
  "bits": "1d00ffff",
  "difficulty": 1,
  "chainwork": "0000000000000000000000000000000000000000000000000000010301030103",
  "nTx": 1,
  "previousblockhash": "00000000613da6433c0f6c61d8bcb17c39603dd4a8595142359905b18b84edcd",
  "nextblockhash": "00000000054c9ef1411c5a90efe18651625620737bd73e61e33ca5046907efd1",
  "strippedsize": 216,
  "size": 216,
  "weight": 864,
  "tx": [
    {
      "txid": "b8bcf3466dca324bca7f3a81e992a14afcce310adc290e786aa7ec78b89b8f19",
      "hash": "b8bcf3466dca324bca7f3a81e992a14afcce310adc290e786aa7ec78b89b8f19",
      "version": 1,
      "size": 135,
      "vsize": 135,
      "weight": 540,
      "locktime": 0,
      "vin": [
        {
          "coinbase": "04ffff001d023d01",
          "sequence": 4294967295
        }
      ],
      "vout": [
        {
          "value": 50.0,
          "n": 0,
          "scriptPubKey": {
            "asm": "0405e30c26088b6f8ad6f45773646b4cdc5cc2dc26dcab9aa436286e9547b9127cd436f8a81116d6033397f266761f66ebfa7b532e95142389f00c430cc533e1e6 OP_CHECKSIG",
            "desc": "pk(0405e30c26088b6f8ad6f45773646b4cdc5cc2dc26dcab9aa436286e9547b9127cd436f8a81116d6033397f266761f66ebfa7b532e95142389f00c430cc533e1e6)#pzu6xydu",
            "hex": "410405e30c26088b6f8ad6f45773646b4cdc5cc2dc26dcab9aa436286e9547b9127cd436f8a81116d6033397f266761f66ebfa7b532e95142389f00c430cc533e1e6ac",
            "type": "pubkey"
          }
        }
      ],
      "hex": "01000000010000000000000000000000000000000000000000000000000000000000000000ffffffff0804ffff001d023d01ffffffff0100f2052a0100000043410405e30c26088b6f8ad6f45773646b4cdc5cc2dc26dcab9aa436286e9547b9127cd436f8a81116d6033397f266761f66ebfa7b532e95142389f00c430cc533e1e6ac00000000"
    }
  ]
}