{
  "hash": "0000000057ea5c6679b78b415069daa707cca2a39ffd93a7e170482c4af65884",
  "confirmations": 50742,
  "height": 2356,
  "version": 1,
  "versionHex": "00000001",
  "merkleroot": "3b3a7dc44520973202539023cf2fd25e3559354510bee6a657b0fa87f27d8000",
  "time": 1233320510,
  "mediantime": 1233318079,
  "nonce": 3920572936,
  "bits": "1d00ffff",
  "difficulty": 1,
  "chainwork": "0000000000000000000000000000000000000000000000000000093509350935",
  "nTx": 1,
  "previousblockhash": "0000000067569a97b5224ad24058e62f1c1efbb75a6266f4ce2291a9dd9d201d",
  "nextblockhash": "0000000086636f9001c6f9c506a53ee13eda80655c3e55bb8afb824cdae7c507",
  "strippedsize": 216,
  "size": 216,
  "weight": 864,
  "tx": [
    {
      "txid": "3b3a7dc44520973202539023cf2fd25e3559354510bee6a657b0fa87f27d8000",
      "hash": "3b3a7dc44520973202539023cf2fd25e3559354510bee6a657b0fa87f27d8000",
      "version": 1,
      "size": 135,
      "vsize": 135,
      "weight": 540,
      "locktime": 0,
      "vin": [
        {
          "coinbase": "04ffff001d02c602",
          "sequence": 4294967295
        }
      ],
      "vout": [
        {
          "value": 50.0,
          "n": 0,
          "scriptPubKey": {
            "asm": "04600110e8969949cc79bd6d788de6a4759ff44a8ebdd1676e1fc2f5bd3e281b44af0301cb837412616618e399a8da7033dd7d393ed127ba18d61ca3bae1782be7 OP_CHECKSIG",
            "desc": "pk(04600110e8969949cc79bd6d788de6a4759ff44a8ebdd1676e1fc2f5bd3e281b44af0301cb837412616618e399a8da7033dd7d393ed127ba18d61ca3bae1782be7)#5w0g9xgk",
            "hex": "4104600110e8969949cc79bd6d788de6a4759ff44a8ebdd1676e1fc2f5bd3e281b44af0301cb837412616618e399a8da7033dd7d393ed127ba18d61ca3bae1782be7ac",
            "type": "pubkey"
          }
        }
      ],
      "hex": "01000000010000000000000000000000000000000000000000000000000000000000000000ffffffff0804ffff001d02c602ffffffff0100f2052a01000000434104600110e8969949cc79bd6d788de6a4759ff44a8ebdd1676e1fc2f5bd3e281b44af0301cb837412616618e399a8da7033dd7d393ed127ba18d61ca3bae1782be7ac00000000"
    }
  ]
}