{
  "hash": "00000000422b3acec93f5327c7b8735e3a14ad5a56ee6087596af5b489935458",
  "confirmations": 50508,
  "height": 2590,
  "version": 1,
  "versionHex": "00000001",
  "merkleroot": "02e05358d958f66f3981f85e9b0a46f333c1028ec3dba748d92fc932853eec73",
  "time": 1233487968,
  "mediantime": 1233482482,
  "nonce": 3739197223,
  "bits": "1d00ffff",
  "difficulty": 1,
  "chainwork": "00000000000000000000000000000000000000000000000000000a1f0a1f0a1f",
  "nTx": 1,
  "previousblockhash": "000000009bfffe757ad0a672c91bbd920f0c6bcb0dbc9915f1684eb5050f8c47",
  "nextblockhash": "00000000d44042e4c6cd061b8bc642eec5a159d1473531161672a1bcab531934",
  "strippedsize": 216,
  "size": 216,
  "weight": 864,
  "tx": [
    {
      "txid": "02e05358d958f66f3981f85e9b0a46f333c1028ec3dba748d92fc932853eec73",
      "hash": "02e05358d958f66f3981f85e9b0a46f333c1028ec3dba748d92fc932853eec73",
      "version": 1,
      "size": 135,
      "vsize": 135,
      "weight": 540,
      "locktime": 0,
      "vin": [
        {
          "coinbase": "04ffff001d02ce02",
          "sequence": 4294967295
        }
      ],
      "vout": [
        {
          "value": 50.0,
          "n": 0,
          "scriptPubKey": {
            "asm": "049834f2eb03caa8ad9a4b921efba45289e17dfc446c42f60a54d6efb70df0352549773b131550019055cb6be663e190cba3f76bd44052b6fb8c8031465867527f OP_CHECKSIG",
            "desc": "pk(049834f2eb03caa8ad9a4b921efba45289e17dfc446c42f60a54d6efb70df0352549773b131550019055cb6be663e190cba3f76bd44052b6fb8c8031465867527f)#du6pf5cc",
            "hex": "41049834f2eb03caa8ad9a4b921efba45289e17dfc446c42f60a54d6efb70df0352549773b131550019055cb6be663e190cba3f76bd44052b6fb8c8031465867527fac",
            "type": "pubkey"
          }
        }
      ],
      "hex": "01000000010000000000000000000000000000000000000000000000000000000000000000ffffffff0804ffff001d02ce02ffffffff0100f2052a010000004341049834f2eb03caa8ad9a4b921efba45289e17dfc446c42f60a54d6efb70df0352549773b131550019055cb6be663e190cba3f76bd44052b6fb8c8031465867527fac00000000"
    }
  ]
}