{
  "hash": "00000000ba74726f506303ea0c13a12f0638fc09f8dc1009c2ebc5a20b2f91ee",
  "confirmations": 51745,
  "height": 1353,
  "version": 1,
  "versionHex": "00000001",
  "merkleroot": "4f6132622944ad21bb5647ba19efa3da685420ed4fc68a7849b5feb1cf50d2ef",
  "time": 1232643990,
  "mediantime": 1232640471,
  "nonce": 3898512128,
  "bits": "1d00ffff",
  "difficulty": 1,
  "chainwork": "0000000000000000000000000000000000000000000000000000054a054a054a",
  "nTx": 1,
  "previousblockhash": "000000003ffac539550a3fb1a63b28f2a3e3a4f47f71ff01bc3535a293ffaaf0",
  "nextblockhash": "00000000daf4096c5bc5b11e5f6d0e1f835525d658333c791f11d573c9295f79",
  "strippedsize": 216,
  "size": 216,
  "weight": 864,
  "tx": [
    {
      "txid": "4f6132622944ad21bb5647ba19efa3da685420ed4fc68a7849b5feb1cf50d2ef",
      "hash": "4f6132622944ad21bb5647ba19efa3da685420ed4fc68a7849b5feb1cf50d2ef",
      "version": 1,
      "size": 135,
      "vsize": 135,
      "weight": 540,
      "locktime": 0,
      "vin": [
        {
          "coinbase": "04ffff001d023c01",
          "sequence": 4294967295
        }
      ],
      "vout": [
        {
          "value": 50.0,
          "n": 0,
          "scriptPubKey": {
            "asm": "043346af930ed1108ebbc91403987d4ff41c43f7fa42ae2909f436b74407a1038d4092ac0ab1412dc4f157bb0e64974ac1327ee9a45f1338c2c50a48bf73cfd650 OP_CHECKSIG",
            "desc": "pk(043346af930ed1108ebbc91403987d4ff41c43f7fa42ae2909f436b74407a1038d4092ac0ab1412dc4f157bb0e64974ac1327ee9a45f1338c2c50a48bf73cfd650)#f9afchad",
            "hex": "41043346af930ed1108ebbc91403987d4ff41c43f7fa42ae2909f436b74407a1038d4092ac0ab1412dc4f157bb0e64974ac1327ee9a45f1338c2c50a48bf73cfd650ac",
            "type": "pubkey"
          }
        }
      ],
      "hex": "01000000010000000000000000000000000000000000000000000000000000000000000000ffffffff0804ffff001d023c01ffffffff0100f2052a010000004341043346af930ed1108ebbc91403987d4ff41c43f7fa42ae2909f436b74407a1038d4092ac0ab1412dc4f157bb0e64974ac1327ee9a45f1338c2c50a48bf73cfd650ac00000000"
    }
  ]
}