{
  "hash": "000000006a34e9e653e8512808515679814f86f0674d9a60ba3cb9d8c6edd475",
  "confirmations": 45520,
  "height": 7578,
  "version": 1,
  "versionHex": "00000001",
  "merkleroot": "d7775f4213d3ee59401d897c16f18b248780debd588e34848a7607296b89d2c1",
  "time": 1237153366,
  "mediantime": 1237149849,
  "nonce": 242783752,
  "bits": "1d00ffff",
  "difficulty": 1,
  "chainwork": "00000000000000000000000000000000000000000000000000001d9b1d9b1d9b",
  "nTx": 1,
  "previousblockhash": "0000000095f150c1c42e80c0fc1c76e15263db5622ba58e44c4816d3ecf2bc28",
  "nextblockhash": "000000004bc858764b741d6f795a2e4c50b313a8e62d574064d2a0890c5e0476",
  "strippedsize": 216,
  "size": 216,
  "weight": 864,
  "tx": [
    {
      "txid": "d7775f4213d3ee59401d897c16f18b248780debd588e34848a7607296b89d2c1",
      "hash": "d7775f4213d3ee59401d897c16f18b248780debd588e34848a7607296b89d2c1",
      "version": 1,
      "size": 135,
      "vsize": 135,
      "weight": 540,
      "locktime": 0,
      "vin": [
        {
          "coinbase": "04ffff001d02fd01",
          "sequence": 4294967295
        }
      ],
      "vout": [
        {
          "value": 50.0,
          "n": 0,
          "scriptPubKey": {
            "asm": "043e8a1372b908bf340be685e723d156778b230fb50d271105fe1964a33a41a4b0aeb620ee99bc455e7b1393b3017586240282af0147325ae8a901673a07294b83 OP_CHECKSIG",
            "desc": "pk(043e8a1372b908bf340be685e723d156778b230fb50d271105fe1964a33a41a4b0aeb620ee99bc455e7b1393b3017586240282af0147325ae8a901673a07294b83)#k8u9t95r",
            "hex": "41043e8a1372b908bf340be685e723d156778b230fb50d271105fe1964a33a41a4b0aeb620ee99bc455e7b1393b3017586240282af0147325ae8a901673a07294b83ac",
            "type": "pubkey"
          }
        }
      ],
      "hex": "01000000010000000000000000000000000000000000000000000000000000000000000000ffffffff0804ffff001d02fd01ffffffff0100f2052a010000004341043e8a1372b908bf340be685e723d156778b230fb50d271105fe1964a33a41a4b0aeb620ee99bc455e7b1393b3017586240282af0147325ae8a901673a07294b83ac00000000"
    }
  ]
}