{
  "hash": "00000000a8523a2e8b5b7b3c95049b513756a4d8ca4ad4b6b7208093a83e3b22",
  "confirmations": 44893,
  "height": 8205,
  "version": 1,
  "versionHex": "00000001",
  "merkleroot": "b8376e1f297867d7649199db22927e58835c0ec56f7bcfcf35445eb246085f58",
  "time": 1237608936,
  "mediantime": 1237606174,
  "nonce": 43234940,
  "bits": "1d00ffff",
  "difficulty": 1,
  "chainwork": "0000000000000000000000000000000000000000000000000000200e200e200e",
  "nTx": 1,
  "previousblockhash": "00000000eb861b5b31f7d3cc12d2ab03a9c3896ee3102361db41d426cd23f183",
  "nextblockhash": "000000005c250eb18e199f4b94d256ef7348941399dd756413d8b035a596f91c",
  "strippedsize": 216,
  "size": 216,
  "weight": 864,
  "tx": [
    {
      "txid": "b8376e1f297867d7649199db22927e58835c0ec56f7bcfcf35445eb246085f58",
      "hash": "b8376e1f297867d7649199db22927e58835c0ec56f7bcfcf35445eb246085f58",
      "version": 1,
      "size": 135,
      "vsize": 135,
      "weight": 540,
      "locktime": 0,
      "vin": [
        {
          "coinbase": "04ffff001d020c01",
          "sequence": 4294967295
        }
      ],
      "vout": [
        {
          "value": 50.0,
          "n": 0,
          "scriptPubKey": {
            "asm": "04eab53b03c03f8ee03ee271a40962adcb9d7300420572114fad6f1899c7327638f666d94b8070e27230a5773625b3e264d548f72d84545348a65ae914324790b0 OP_CHECKSIG",
            "desc": "pk(04eab53b03c03f8ee03ee271a40962adcb9d7300420572114fad6f1899c7327638f666d94b8070e27230a5773625b3e264d548f72d84545348a65ae914324790b0)#t5c43uk8",
            "hex": "4104eab53b03c03f8ee03ee271a40962adcb9d7300420572114fad6f1899c7327638f666d94b8070e27230a5773625b3e264d548f72d84545348a65ae914324790b0ac",
            "type": "pubkey"
          }
        }
      ],
      "hex": "01000000010000000000000000000000000000000000000000000000000000000000000000ffffffff0804ffff001d020c01ffffffff0100f2052a01000000434104eab53b03c03f8ee03ee271a40962adcb9d7300420572114fad6f1899c7327638f666d94b8070e27230a5773625b3e264d548f72d84545348a65ae914324790b0ac00000000"
    }
  ]
}