{
  "hash": "00000000121d44b620340776446d40875d4874643013dc1a3ff72d7090d16331",
  "confirmations": 44250,
  "height": 8848,
  "version": 1,
  "versionHex": "00000001",
  "merkleroot": "f8db4b29ee7589c8fb2a3c9b2801c4075e5699f71ad2bbd12680d6928094820c",
  "time": 1238136892,
  "mediantime": 1238132730,
  "nonce": 248934145,
  "bits": "1d00ffff",
  "difficulty": 1,
  "chainwork": "0000000000000000000000000000000000000000000000000000229122912291",
  "nTx": 1,
  "previousblockhash": "00000000b3a76f808acd2cbacce2616e383b6ae2b513078cc8da91bf9aa17411",
  "nextblockhash": "00000000687ca9214565a6c72ef64eb18e4f8409f5fe1c8c8d512793272abf48",
  "strippedsize": 216,
  "size": 216,
  "weight": 864,
  "tx": [
    {
      "txid": "f8db4b29ee7589c8fb2a3c9b2801c4075e5699f71ad2bbd12680d6928094820c",
      "hash": "f8db4b29ee7589c8fb2a3c9b2801c4075e5699f71ad2bbd12680d6928094820c",
      "version": 1,
      "size": 135,
      "vsize": 135,
      "weight": 540,
      "locktime": 0,
      "vin": [
        {
          "coinbase": "04ffff001d029403",
          "sequence": 4294967295
        }
      ],
      "vout": [
        {
          "value": 50.0,
          "n": 0,
          "scriptPubKey": {
            "asm": "04514b9b6f040cd82cfa59794bea0f39f38fdfd08ed8cf19281c2564b9dd1aeb39f211bb7b93440694621c435ac8f896436e51ec18bad0338d384366bdda864cf2 OP_CHECKSIG",
            "desc": "pk(04514b9b6f040cd82cfa59794bea0f39f38fdfd08ed8cf19281c2564b9dd1aeb39f211bb7b93440694621c435ac8f896436e51ec18bad0338d384366bdda864cf2)#jq5fjs28",
            "hex": "4104514b9b6f040cd82cfa59794bea0f39f38fdfd08ed8cf19281c2564b9dd1aeb39f211bb7b93440694621c435ac8f896436e51ec18bad0338d384366bdda864cf2ac",
            "type": "pubkey"
          }
        }
      ],
      "hex": "01000000010000000000000000000000000000000000000000000000000000000000000000ffffffff0804ffff001d029403ffffffff0100f2052a01000000434104514b9b6f040cd82cfa59794bea0f39f38fdfd08ed8cf19281c2564b9dd1aeb39f211bb7b93440694621c435ac8f896436e51ec18bad0338d384366bdda864cf2ac00000000"
    }
  ]
}