{
  "hash": "00000000bf6d26fb6d73d9473701ad8452bc39e0c2e98a5a4007bdcea01c23dc",
  "confirmations": 52115,
  "height": 983,
  "version": 1,
  "versionHex": "00000001",
  "merkleroot": "405d3ee9b1dd0b9dc751e839ee2559c379649314fdde8fea40224d4eca763502",
  "time": 1232338277,
  "mediantime": 1232333325,
  "nonce": 1778514741,
  "bits": "1d00ffff",
  "difficulty": 1,
  "chainwork": "000000000000000000000000000000000000000000000000000003d803d803d8",
  "nTx": 1,
  "previousblockhash": "000000000bdef3b2f2cf98e7dfbbf1d2c2301f6174797c80fe447218e138364d",
  "nextblockhash": "000000003182f3b9579afb0a93a01e40c86eed120dfe45579e37c89874c372f5",
  "strippedsize": 216,
  "size": 216,
  "weight": 864,
  "tx": [
    {
      "txid": "405d3ee9b1dd0b9dc751e839ee2559c379649314fdde8fea40224d4eca763502",
      "hash": "405d3ee9b1dd0b9dc751e839ee2559c379649314fdde8fea40224d4eca763502",
      "version": 1,
      "size": 135,
      "vsize": 135,
      "weight": 540,
      "locktime": 0,
      "vin": [
        {
          "coinbase": "04ffff001d02df04",
          "sequence": 4294967295
        }
      ],
      "vout": [
        {
          "value": 50.0,
          "n": 0,
          "scriptPubKey": {
            "asm": "04f00eed7d74c3c3db67570dab33a2c121fde4960156eb7e430a2637c5b034e0f5b137990958d07e3e15a883d42f66eb1126aaed30f9e49f13a8ea27c72d7a7910 OP_CHECKSIG",
            "desc": "pk(04f00eed7d74c3c3db67570dab33a2c121fde4960156eb7e430a2637c5b034e0f5b137990958d07e3e15a883d42f66eb1126aaed30f9e49f13a8ea27c72d7a7910)#j68sxzk2",
            "hex": "4104f00eed7d74c3c3db67570dab33a2c121fde4960156eb7e430a2637c5b034e0f5b137990958d07e3e15a883d42f66eb1126aaed30f9e49f13a8ea27c72d7a7910ac",
            "type": "pubkey"
          }
        }
      ],
      "hex": "01000000010000000000000000000000000000000000000000000000000000000000000000ffffffff0804ffff001d02df04ffffffff0100f2052a01000000434104f00eed7d74c3c3db67570dab33a2c121fde4960156eb7e430a2637c5b034e0f5b137990958d07e3e15a883d42f66eb1126aaed30f9e49f13a8ea27c72d7a7910ac00000000"
    }
  ]
}