{
  "hash": "00000000748edc031f6bb63cb9c800551f818367604347e1c20c2da1128ac6fb",
  "confirmations": 44730,
  "height": 8368,
  "version": 1,
  "versionHex": "00000001",
  "merkleroot": "d7c0025e11be9b878585bf01c279cc83336f4d7e109a8a2b33ae9024219e381e",
  "time": 1237779385,
  "mediantime": 1237775444,
  "nonce": 187687567,
  "bits": "1d00ffff",
  "difficulty": 1,
  "chainwork": "000000000000000000000000000000000000000000000000000020b120b120b1",
  "nTx": 1,
  "previousblockhash": "00000000dd6b035a3923661961d3cbf16e793ab324a32f21b57b02afbf7697cc",
  "nextblockhash": "00000000060b5a18ae89add85fe374150f8ffbf9d2022080505aefb5d4feadd2",
  "strippedsize": 216,
  "size": 216,
  "weight": 864,
  "tx": [
    {
      "txid": "d7c0025e11be9b878585bf01c279cc83336f4d7e109a8a2b33ae9024219e381e",
      "hash": "d7c0025e11be9b878585bf01c279cc83336f4d7e109a8a2b33ae9024219e381e",
      "version": 1,
      "size": 135,
      "vsize": 135,
      "weight": 540,
      "locktime": 0,
      "vin": [
        {
          "coinbase": "04ffff001d027801",
          "sequence": 4294967295
        }
      ],
      "vout": [
        {
          "value": 50.0,
          "n": 0,
          "scriptPubKey": {
            "asm": "04358709fb2dcedd5abeb1dd553a8c6dc90865167dced289f29f6d16293e78a1fa26b06a8dd1f4d176ff4bbee7f14f3abcfdd6cc6188e16026f236bb7fc1d87409 OP_CHECKSIG",
            "desc": "pk(04358709fb2dcedd5abeb1dd553a8c6dc90865167dced289f29f6d16293e78a1fa26b06a8dd1f4d176ff4bbee7f14f3abcfdd6cc6188e16026f236bb7fc1d87409)#urfqu3t4",
            "hex": "4104358709fb2dcedd5abeb1dd553a8c6dc90865167dced289f29f6d16293e78a1fa26b06a8dd1f4d176ff4bbee7f14f3abcfdd6cc6188e16026f236bb7fc1d87409ac",
            "type": "pubkey"
          }
        }
      ],
      "hex": "01000000010000000000000000000000000000000000000000000000000000000000000000ffffffff0804ffff001d027801ffffffff0100f2052a01000000434104358709fb2dcedd5abeb1dd553a8c6dc90865167dced289f29f6d16293e78a1fa26b06a8dd1f4d176ff4bbee7f14f3abcfdd6cc6188e16026f236bb7fc1d87409ac00000000"
    }
  ]
}