{
  "hash": "00000000017d85a68d3c4340d396c0e91c8c691c49e7b0563232f23a39dca6f2",
  "confirmations": 49852,
  "height": 3246,
  "version": 1,
  "versionHex": "00000001",
  "merkleroot": "ba437d4ce87a8f4a6f786e4311e2d7fec2f33801245b17585a95d82dc8fddfac",
  "time": 1233934521,
  "mediantime": 1233929188,
  "nonce": 3572533510,
  "bits": "1d00ffff",
  "difficulty": 1,
  "chainwork": "00000000000000000000000000000000000000000000000000000caf0caf0caf",
  "nTx": 1,
  "previousblockhash": "00000000ccedf7fbd87f8fe96dd1dcd7f200c071622d08c0ffebbb8cdf96f40a",
  "nextblockhash": "00000000b479b500d05a1f3d5cd3b3ea631bc0c0ca23a38812c08abe33eb8d3c",
  "strippedsize": 216,
  "size": 216,
  "weight": 864,
  "tx": [
    {
      "txid": "ba437d4ce87a8f4a6f786e4311e2d7fec2f33801245b17585a95d82dc8fddfac",
      "hash": "ba437d4ce87a8f4a6f786e4311e2d7fec2f33801245b17585a95d82dc8fddfac",
      "version": 1,
      "size": 135,
      "vsize": 135,
      "weight": 540,
      "locktime": 0,
      "vin": [
        {
          "coinbase": "04ffff001d025103",
          "sequence": 4294967295
        }
      ],
      "vout": [
        {
          "value": 50.0,
          "n": 0,
          "scriptPubKey": {
            "asm": "040ad0d812372002feca89f574d29a73e7bb98aebc75ca0189fab17730ab91fc3d819b9dccd01931663a0d782526d8383059271e447442912c1253bbf797682454 OP_CHECKSIG",
            "desc": "pk(040ad0d812372002feca89f574d29a73e7bb98aebc75ca0189fab17730ab91fc3d819b9dccd01931663a0d782526d8383059271e447442912c1253bbf797682454)#ktpnf258",
            "hex": "41040ad0d812372002feca89f574d29a73e7bb98aebc75ca0189fab17730ab91fc3d819b9dccd01931663a0d782526d8383059271e447442912c1253bbf797682454ac",
            "type": "pubkey"
          }
        }
      ],
      "hex": "01000000010000000000000000000000000000000000000000000000000000000000000000ffffffff0804ffff001d025103ffffffff0100f2052a010000004341040ad0d812372002feca89f574d29a73e7bb98aebc75ca0189fab17730ab91fc3d819b9dccd01931663a0d782526d8383059271e447442912c1253bbf797682454ac00000000"
    }
  ]
}