{
  "hash": "0000000068cb3469799c49a8cbac21aed190309a4adffc89036a527dbf512a46",
  "confirmations": 43735,
  "height": 9363,
  "version": 1,
  "versionHex": "00000001",
  "merkleroot": "e6964133b480533aaf08d8754beb2a6d1b2856cd9777f9bfdd0a19efc9eab361",
  "time": 1238520354,
  "mediantime": 1238517203,
  "nonce": 1943317035,
  "bits": "1d00ffff",
  "difficulty": 1,
  "chainwork": "0000000000000000000000000000000000000000000000000000249424942494",
  "nTx": 1,
  "previousblockhash": "00000000d4801c7f40fa1210fbf7bcbcff6f7fbf27d5f643e781e48971550fb4",
  "nextblockhash": "00000000b81fc0db6199e9bc6f05284a660ad54c19e2b4edabdf45567b33b844",
  "strippedsize": 216,
  "size": 216,
  "weight": 864,
  "tx": [
    {
      "txid": "e6964133b480533aaf08d8754beb2a6d1b2856cd9777f9bfdd0a19efc9eab361",
      "hash": "e6964133b480533aaf08d8754beb2a6d1b2856cd9777f9bfdd0a19efc9eab361",
      "version": 1,
      "size": 135,
      "vsize": 135,
      "weight": 540,
      "locktime": 0,
      "vin": [
        {
          "coinbase": "04ffff001d02d002",
          "sequence": 4294967295
        }
      ],
      "vout": [
        {
          "value": 50.0,
          "n": 0,
          "scriptPubKey": {
            "asm": "0477d5a70e044442c873861955e5a283359e3d429e9fecc1170a28ffdc6258d2e6594258197b85fc6fcc221c3395a971753963ecb2f74a476734bf484611d5d686 OP_CHECKSIG",
            "desc": "pk(0477d5a70e044442c873861955e5a283359e3d429e9fecc1170a28ffdc6258d2e6594258197b85fc6fcc221c3395a971753963ecb2f74a476734bf484611d5d686)#pt5ukl55",
            "hex": "410477d5a70e044442c873861955e5a283359e3d429e9fecc1170a28ffdc6258d2e6594258197b85fc6fcc221c3395a971753963ecb2f74a476734bf484611d5d686ac",
            "type": "pubkey"
          }
        }
      ],
      "hex": "01000000010000000000000000000000000000000000000000000000000000000000000000ffffffff0804ffff001d02d002ffffffff0100f2052a0100000043410477d5a70e044442c873861955e5a283359e3d429e9fecc1170a28ffdc6258d2e6594258197b85fc6fcc221c3395a971753963ecb2f74a476734bf484611d5d686ac00000000"
    }
  ]
}