{
  "hash": "00000000d47ee447e9c7b04828803f14fc1a86bf67163b3e3a641e8ecf57ed6e",
  "confirmations": 47837,
  "height": 5261,
  "version": 1,
  "versionHex": "00000001",
  "merkleroot": "9a4a0db44ef5f759deb561e8459ef6a73af8614c62ac5dcbfeacaa93952b6036",
  "time": 1235331058,
  "mediantime": 1235327608,
  "nonce": 2742472222,
  "bits": "1d00ffff",
  "difficulty": 1,
  "chainwork": "0000000000000000000000000000000000000000000000000000148e148e148e",
  "nTx": 1,
  "previousblockhash": "000000002622aa01985953101c787b85f2c9fc10b6fb50f3723588fca6beeba3",
  "nextblockhash": "00000000934e21f27256b447a256208b8f8e0c59a0a1d6193e2c996be33dca6f",
  "strippedsize": 216,
  "size": 216,
  "weight": 864,
  "tx": [
    {
      "txid": "9a4a0db44ef5f759deb561e8459ef6a73af8614c62ac5dcbfeacaa93952b6036",
      "hash": "9a4a0db44ef5f759deb561e8459ef6a73af8614c62ac5dcbfeacaa93952b6036",
      "version": 1,
      "size": 135,
      "vsize": 135,
      "weight": 540,
      "locktime": 0,
      "vin": [
        {
          "coinbase": "04ffff001d027001",
          "sequence": 4294967295
        }
      ],
      "vout": [
        {
          "value": 50.0,
          "n": 0,
          "scriptPubKey": {
            "asm": "04b7b7a53abfd25c21f59c0558a9dc7f358d43c3abfb048906952fa43ef805be2dea44c3432c04f53cfd1f8703e3c74f97bd9cd9ff3c34971f828e7e83b26f3d4a OP_CHECKSIG",
            "desc": "pk(04b7b7a53abfd25c21f59c0558a9dc7f358d43c3abfb048906952fa43ef805be2dea44c3432c04f53cfd1f8703e3c74f97bd9cd9ff3c34971f828e7e83b26f3d4a)#9sg36c2g",
            "hex": "4104b7b7a53abfd25c21f59c0558a9dc7f358d43c3abfb048906952fa43ef805be2dea44c3432c04f53cfd1f8703e3c74f97bd9cd9ff3c34971f828e7e83b26f3d4aac",
            "type": "pubkey"
          }
        }
      ],
      "hex": "01000000010000000000000000000000000000000000000000000000000000000000000000ffffffff0804ffff001d027001ffffffff0100f2052a01000000434104b7b7a53abfd25c21f59c0558a9dc7f358d43c3abfb048906952fa43ef805be2dea44c3432c04f53cfd1f8703e3c74f97bd9cd9ff3c34971f828e7e83b26f3d4aac00000000"
    }
  ]
}