{
  "hash": "0000000005e9519fba6e06d401e872c45d1f79e621e6f2a18a4923da1d3be42d",
  "confirmations": 51795,
  "height": 1303,
  "version": 1,
  "versionHex": "00000001",
  "merkleroot": "ac7f520d6cce1929831d0c25e576add82f5884ca65109ad3fc2894792f861e76",
  "time": 1232596362,
  "mediantime": 1232591800,
  "nonce": 3952724513,
  "bits": "1d00ffff",
  "difficulty": 1,
  "chainwork": "0000000000000000000000000000000000000000000000000000051805180518",
  "nTx": 1,
  "previousblockhash": "000000004fbf34b9179c42c44c29c2117a658f12bb6d4d467e9b5fc4759a5b20",
  "nextblockhash": "00000000fff0728c5da1548b4f15576aa272f0f4952031ae56a5be355310ba0a",
  "strippedsize": 215,
  "size": 215,
  "weight": 860,
  "tx": [
    {
      "txid": "ac7f520d6cce1929831d0c25e576add82f5884ca65109ad3fc2894792f861e76",
      "hash": "ac7f520d6cce1929831d0c25e576add82f5884ca65109ad3fc2894792f861e76",
      "version": 1,
      "size": 134,
      "vsize": 134,
      "weight": 536,
      "locktime": 0,
      "vin": [
        {
          "coinbase": "04ffff001d012b",
          "sequence": 4294967295
        }
      ],
      "vout": [
        {
          "value": 50.0,
          "n": 0,
          "scriptPubKey": {
            "asm": "04e441ab505fa5ecdbb0f663d7384d9b4ad2a9e4026ccfa50e3ac5137c0b8e01884a61a7dd03f5264c3d5bc9d834529e974bc3e7647e0ab0b00a1938e8d34eaf7f OP_CHECKSIG",
            "desc": "pk(04e441ab505fa5ecdbb0f663d7384d9b4ad2a9e4026ccfa50e3ac5137c0b8e01884a61a7dd03f5264c3d5bc9d834529e974bc3e7647e0ab0b00a1938e8d34eaf7f)#a3lhz539",
            "hex": "4104e441ab505fa5ecdbb0f663d7384d9b4ad2a9e4026ccfa50e3ac5137c0b8e01884a61a7dd03f5264c3d5bc9d834529e974bc3e7647e0ab0b00a1938e8d34eaf7fac",
            "type": "pubkey"
          }
        }
      ],
      "hex": "01000000010000000000000000000000000000000000000000000000000000000000000000ffffffff0704ffff001d012bffffffff0100f2052a01000000434104e441ab505fa5ecdbb0f663d7384d9b4ad2a9e4026ccfa50e3ac5137c0b8e01884a61a7dd03f5264c3d5bc9d834529e974bc3e7647e0ab0b00a1938e8d34eaf7fac00000000"
    }
  ]
}