{
  "hash": "00000000105fb7538b2bea90c38e9286580e213abf8b5c2fed13466f547a390c",
  "confirmations": 45947,
  "height": 7151,
  "version": 1,
  "versionHex": "00000001",
  "merkleroot": "8b896bdb8939afb1190159e778f102d8b8acf583f4a9ce204f05bffb283da1d7",
  "time": 1236837019,
  "mediantime": 1236833065,
  "nonce": 3892534024,
  "bits": "1d00ffff",
  "difficulty": 1,
  "chainwork": "00000000000000000000000000000000000000000000000000001bf01bf01bf0",
  "nTx": 1,
  "previousblockhash": "00000000a3a74b99b0ae09e50c7f317c03be3482bf752390b30adc67b12f23bf",
  "nextblockhash": "00000000e3826f75b1b9239d8a0b6f36dbfbe119cecee4a4aa5684047fba6b3c",
  "strippedsize": 216,
  "size": 216,
  "weight": 864,
  "tx": [
    {
      "txid": "8b896bdb8939afb1190159e778f102d8b8acf583f4a9ce204f05bffb283da1d7",
      "hash": "8b896bdb8939afb1190159e778f102d8b8acf583f4a9ce204f05bffb283da1d7",
      "version": 1,
      "size": 135,
      "vsize": 135,
      "weight": 540,
      "locktime": 0,
      "vin": [
        {
          "coinbase": "04ffff001d02f004",
          "sequence": 4294967295
        }
      ],
      "vout": [
        {
          "value": 50.0,
          "n": 0,
          "scriptPubKey": {
            "asm": "04bb444abad323d7b65b3c6760964a96b8521d76162903a2b853c57758bb0464528fd60859a3be4379f0d7084b39e30f15c8daae71209a8b925f93e51f6b0e61ef OP_CHECKSIG",
            "desc": "pk(04bb444abad323d7b65b3c6760964a96b8521d76162903a2b853c57758bb0464528fd60859a3be4379f0d7084b39e30f15c8daae71209a8b925f93e51f6b0e61ef)#xd8c5m3c",
            "hex": "4104bb444abad323d7b65b3c6760964a96b8521d76162903a2b853c57758bb0464528fd60859a3be4379f0d7084b39e30f15c8daae71209a8b925f93e51f6b0e61efac",
            "type": "pubkey"
          }
        }
      ],
      "hex": "01000000010000000000000000000000000000000000000000000000000000000000000000ffffffff0804ffff001d02f004ffffffff0100f2052a01000000434104bb444abad323d7b65b3c6760964a96b8521d76162903a2b853c57758bb0464528fd60859a3be4379f0d7084b39e30f15c8daae71209a8b925f93e51f6b0e61efac00000000"
    }
  ]
}