{
  "hash": "00000000cbfae8784536a97d45ae3422b3ec0bb76d480ad3e5db394f8a0b797d",
  "confirmations": 52547,
  "height": 551,
  "version": 1,
  "versionHex": "00000001",
  "merkleroot": "75d2e46a7ad72b09e5dfb4c445411c2b445fb65f05907800871682188387b135",
  "time": 1232003453,
  "mediantime": 1231999700,
  "nonce": 4229948702,
  "bits": "1d00ffff",
  "difficulty": 1,
  "chainwork": "0000000000000000000000000000000000000000000000000000022802280228",
  "nTx": 1,
  "previousblockhash": "00000000314ff43c77573a3b8094951ce4b0f86aceee65e226914eb737ada575",
  "nextblockhash": "00000000831221df37f3b36c369bba5af97fd96a8f94648770c40ccb13620aee",
  "strippedsize": 216,
  "size": 216,
  "weight": 864,
  "tx": [
    {
      "txid": "75d2e46a7ad72b09e5dfb4c445411c2b445fb65f05907800871682188387b135",
      "hash": "75d2e46a7ad72b09e5dfb4c445411c2b445fb65f05907800871682188387b135",
      "version": 1,
      "size": 135,
      "vsize": 135,
      "weight": 540,
      "locktime": 0,
      "vin": [
        {
          "coinbase": "04ffff001d02a405",
          "sequence": 4294967295
        }
      ],
      "vout": [
        {
          "value": 50.0,
          "n": 0,
          "scriptPubKey": {
            "asm": "04a382410dec04ab12fed2e5364704f1f8acc60dd1a1b8d479ea062472bc8a9b864e7d0d74ed81a9e3ca44fd90ee9640293e73de2526c2a20399b4aa6ee1e6b6a9 OP_CHECKSIG",
            "desc": "pk(04a382410dec04ab12fed2e5364704f1f8acc60dd1a1b8d479ea062472bc8a9b864e7d0d74ed81a9e3ca44fd90ee9640293e73de2526c2a20399b4aa6ee1e6b6a9)#6ew8grpk",
            "hex": "4104a382410dec04ab12fed2e5364704f1f8acc60dd1a1b8d479ea062472bc8a9b864e7d0d74ed81a9e3ca44fd90ee9640293e73de2526c2a20399b4aa6ee1e6b6a9ac",
            "type": "pubkey"
          }
        }
      ],
      "hex": "01000000010000000000000000000000000000000000000000000000000000000000000000ffffffff0804ffff001d02a405ffffffff0100f2052a01000000434104a382410dec04ab12fed2e5364704f1f8acc60dd1a1b8d479ea062472bc8a9b864e7d0d74ed81a9e3ca44fd90ee9640293e73de2526c2a20399b4aa6ee1e6b6a9ac00000000"
    }
  ]
}