{
  "hash": "00000000fe1e50a2bd550116932ff1e9193a38594c15fd6b2936102b7cecdbf9",
  "confirmations": 49918,
  "height": 3180,
  "version": 1,
  "versionHex": "00000001",
  "merkleroot": "e92e5775c2d701add92580df5f79c6d2e0609626044f4a373fdc38c321cecd6d",
  "time": 1233886267,
  "mediantime": 1233882832,
  "nonce": 1237233443,
  "bits": "1d00ffff",
  "difficulty": 1,
  "chainwork": "00000000000000000000000000000000000000000000000000000c6d0c6d0c6d",
  "nTx": 1,
  "previousblockhash": "0000000005376fb93f3cf203375d6bbd2b498ad78563ef15ec4b9c0455e1a8a6",
  "nextblockhash": "0000000001872c838e03a9cb5ead26df64328a0986161f493e157a53e449f00a",
  "strippedsize": 216,
  "size": 216,
  "weight": 864,
  "tx": [
    {
      "txid": "e92e5775c2d701add92580df5f79c6d2e0609626044f4a373fdc38c321cecd6d",
      "hash": "e92e5775c2d701add92580df5f79c6d2e0609626044f4a373fdc38c321cecd6d",
      "version": 1,
      "size": 135,
      "vsize": 135,
      "weight": 540,
      "locktime": 0,
      "vin": [
        {
          "coinbase": "04ffff001d025c02",
          "sequence": 4294967295
        }
      ],
      "vout": [
        {
          "value": 50.0,
          "n": 0,
          "scriptPubKey": {
            "asm": "0463c9287a425f7c4dd2a4deb3729adb571df0e1752690710893efbbcb1e33966fed94dda8397f754a45d388ffa300ac59d871edadce130df51fe1915b64fa7c0c OP_CHECKSIG",
            "desc": "pk(0463c9287a425f7c4dd2a4deb3729adb571df0e1752690710893efbbcb1e33966fed94dda8397f754a45d388ffa300ac59d871edadce130df51fe1915b64fa7c0c)#7jx8e86f",
            "hex": "410463c9287a425f7c4dd2a4deb3729adb571df0e1752690710893efbbcb1e33966fed94dda8397f754a45d388ffa300ac59d871edadce130df51fe1915b64fa7c0cac",
            "type": "pubkey"
          }
        }
      ],
      "hex": "01000000010000000000000000000000000000000000000000000000000000000000000000ffffffff0804ffff001d025c02ffffffff0100f2052a0100000043410463c9287a425f7c4dd2a4deb3729adb571df0e1752690710893efbbcb1e33966fed94dda8397f754a45d388ffa300ac59d871edadce130df51fe1915b64fa7c0cac00000000"
    }
  ]
}