{
  "hash": "000000004a2ed49fca14f2a937747a307110a8da0a5052dd9065548c36aaaf17",
  "confirmations": 43471,
  "height": 9627,
  "version": 1,
  "versionHex": "00000001",
  "merkleroot": "da051e632fb4576990c3a1e1cc4bf899b5d23e1f96b0695fe1d527b10151c52e",
  "time": 1238722717,
  "mediantime": 1238719576,
  "nonce": 2615476787,
  "bits": "1d00ffff",
  "difficulty": 1,
  "chainwork": "0000000000000000000000000000000000000000000000000000259c259c259c",
  "nTx": 1,
  "previousblockhash": "00000000a6b6f1b2e7526a8c26043a01ce7098cbc5d95896b4dc24836b908411",
  "nextblockhash": "0000000019bee828395d1d6a283362222991a5bcfa37604b381ca0db25b1c191",
  "strippedsize": 216,
  "size": 216,
  "weight": 864,
  "tx": [
    {
      "txid": "da051e632fb4576990c3a1e1cc4bf899b5d23e1f96b0695fe1d527b10151c52e",
      "hash": "da051e632fb4576990c3a1e1cc4bf899b5d23e1f96b0695fe1d527b10151c52e",
      "version": 1,
      "size": 135,
      "vsize": 135,
      "weight": 540,
      "locktime": 0,
      "vin": [
        {
          "coinbase": "04ffff001d027407",
          "sequence": 4294967295
        }
      ],
      "vout": [
        {
          "value": 50.0,
          "n": 0,
          "scriptPubKey": {
            "asm": "043b6c2d3c2ed2e8598976925b72b63ab697c7495c2700518d2b4e87054066399acefb74db00f68d6635498ebf121ac28d0a38d947ce51ba4ffb7cf0bf79ff8559 OP_CHECKSIG",
            "desc": "pk(043b6c2d3c2ed2e8598976925b72b63ab697c7495c2700518d2b4e87054066399acefb74db00f68d6635498ebf121ac28d0a38d947ce51ba4ffb7cf0bf79ff8559)#dzqurdd0",
            "hex": "41043b6c2d3c2ed2e8598976925b72b63ab697c7495c2700518d2b4e87054066399acefb74db00f68d6635498ebf121ac28d0a38d947ce51ba4ffb7cf0bf79ff8559ac",
            "type": "pubkey"
          }
        }
      ],
      "hex": "01000000010000000000000000000000000000000000000000000000000000000000000000ffffffff0804ffff001d027407ffffffff0100f2052a010000004341043b6c2d3c2ed2e8598976925b72b63ab697c7495c2700518d2b4e87054066399acefb74db00f68d6635498ebf121ac28d0a38d947ce51ba4ffb7cf0bf79ff8559ac00000000"
    }
  ]
}