{
  "hash": "0000000043a6beca9339f823e92f50e857d45398a98483785090f8246c07d0ff",
  "confirmations": 45924,
  "height": 7174,
  "version": 1,
  "versionHex": "00000001",
  "merkleroot": "1c166e3544afbfa0a4e694ebff4fd9c5a7e2555a602040090b49042aaf9b4fd8",
  "time": 1236852016,
  "mediantime": 1236847894,
  "nonce": 135879735,
  "bits": "1d00ffff",
  "difficulty": 1,
  "chainwork": "00000000000000000000000000000000000000000000000000001c071c071c07",
  "nTx": 1,
  "previousblockhash": "0000000010d6771ec0c8675cc55bcaeebf7af18df3fd4dc38858fc9a115112dd",
  "nextblockhash": "00000000665e84b1b59fcba37cc7674a4591e40c8a89bc0fdab40f70f845039c",
  "strippedsize": 216,
  "size": 216,
  "weight": 864,
  "tx": [
    {
      "txid": "1c166e3544afbfa0a4e694ebff4fd9c5a7e2555a602040090b49042aaf9b4fd8",
      "hash": "1c166e3544afbfa0a4e694ebff4fd9c5a7e2555a602040090b49042aaf9b4fd8",
      "version": 1,
      "size": 135,
      "vsize": 135,
      "weight": 540,
      "locktime": 0,
      "vin": [
        {
          "coinbase": "04ffff001d025305",
          "sequence": 4294967295
        }
      ],
      "vout": [
        {
          "value": 50.0,
          "n": 0,
          "scriptPubKey": {
            "asm": "047e6307c0273a14cef5c80e0aa8d561fcbc76cd3256b05a347c8e7133b2ae1c0847205a81b7764a0217c7f670140ef50dccdf42ff1c06651c425d1960da3689f2 OP_CHECKSIG",
            "desc": "pk(047e6307c0273a14cef5c80e0aa8d561fcbc76cd3256b05a347c8e7133b2ae1c0847205a81b7764a0217c7f670140ef50dccdf42ff1c06651c425d1960da3689f2)#ldnjjhf5",
            "hex": "41047e6307c0273a14cef5c80e0aa8d561fcbc76cd3256b05a347c8e7133b2ae1c0847205a81b7764a0217c7f670140ef50dccdf42ff1c06651c425d1960da3689f2ac",
            "type": "pubkey"
          }
        }
      ],
      "hex": "01000000010000000000000000000000000000000000000000000000000000000000000000ffffffff0804ffff001d025305ffffffff0100f2052a010000004341047e6307c0273a14cef5c80e0aa8d561fcbc76cd3256b05a347c8e7133b2ae1c0847205a81b7764a0217c7f670140ef50dccdf42ff1c06651c425d1960da3689f2ac00000000"
    }
  ]
}