{
  "hash": "00000000a1d70e7b236bb9b06557f15e1ddc2fe0b67a4a3e54049601fc27b255",
  "confirmations": 51945,
  "height": 1153,
  "version": 1,
  "versionHex": "00000001",
  "merkleroot": "22f9b1eb6d0eb792ee9d6ab046ade46134ee4d5f2a77a99d8914877fc072e09a",
  "time": 1232462603,
  "mediantime": 1232458200,
  "nonce": 119023591,
  "bits": "1d00ffff",
  "difficulty": 1,
  "chainwork": "0000000000000000000000000000000000000000000000000000048204820482",
  "nTx": 1,
  "previousblockhash": "000000000453e2b64d5a6f8fb5416136a8fb10d4bbee3425ff20857e1859eaf0",
  "nextblockhash": "00000000259e1bc251ed1341c5c905ac3497ba8cb8a6669cacf14fc396e02313",
  "strippedsize": 216,
  "size": 216,
  "weight": 864,
  "tx": [
    {
      "txid": "22f9b1eb6d0eb792ee9d6ab046ade46134ee4d5f2a77a99d8914877fc072e09a",
      "hash": "22f9b1eb6d0eb792ee9d6ab046ade46134ee4d5f2a77a99d8914877fc072e09a",
      "version": 1,
      "size": 135,
      "vsize": 135,
      "weight": 540,
      "locktime": 0,
      "vin": [
        {
          "coinbase": "04ffff001d02f701",
          "sequence": 4294967295
        }
      ],
      "vout": [
        {
          "value": 50.0,
          "n": 0,
          "scriptPubKey": {
            "asm": "049be3dbeffa468e071d0d09c50d4b2873f18eb682b14f7c482c096790835719e1c91cad9f4bc3c15ce908296aaecf72d847dab576e42cee3670fd97ff8708dce5 OP_CHECKSIG",
            "desc": "pk(049be3dbeffa468e071d0d09c50d4b2873f18eb682b14f7c482c096790835719e1c91cad9f4bc3c15ce908296aaecf72d847dab576e42cee3670fd97ff8708dce5)#ky62gugr",
            "hex": "41049be3dbeffa468e071d0d09c50d4b2873f18eb682b14f7c482c096790835719e1c91cad9f4bc3c15ce908296aaecf72d847dab576e42cee3670fd97ff8708dce5ac",
            "type": "pubkey"
          }
        }
      ],
      "hex": "01000000010000000000000000000000000000000000000000000000000000000000000000ffffffff0804ffff001d02f701ffffffff0100f2052a010000004341049be3dbeffa468e071d0d09c50d4b2873f18eb682b14f7c482c096790835719e1c91cad9f4bc3c15ce908296aaecf72d847dab576e42cee3670fd97ff8708dce5ac00000000"
    }
  ]
}