{
  "hash": "0000000050a2e77663cd575999a6a3950fcd2691ed3211787b941fa11f348cc3",
  "confirmations": 46236,
  "height": 6862,
  "version": 1,
  "versionHex": "00000001",
  "merkleroot": "4d8bb6d9413cbf9b94c8d1e813e4a430135b6586366d5f0aa74eb9d625b9b3a8",
  "time": 1236603463,
  "mediantime": 1236600600,
  "nonce": 4380097,
  "bits": "1d00ffff",
  "difficulty": 1,
  "chainwork": "00000000000000000000000000000000000000000000000000001acf1acf1acf",
  "nTx": 1,
  "previousblockhash": "00000000621f3cb0d94e1661ef5662903ca878cb1788db2d80223e75aea2275d",
  "nextblockhash": "000000001bc2484049552d3302ff29bae5b3b110772c97e4a4edf9efd82320b0",
  "strippedsize": 215,
  "size": 215,
  "weight": 860,
  "tx": [
    {
      "txid": "4d8bb6d9413cbf9b94c8d1e813e4a430135b6586366d5f0aa74eb9d625b9b3a8",
      "hash": "4d8bb6d9413cbf9b94c8d1e813e4a430135b6586366d5f0aa74eb9d625b9b3a8",
      "version": 1,
      "size": 134,
      "vsize": 134,
      "weight": 536,
      "locktime": 0,
      "vin": [
        {
          "coinbase": "04ffff001d0161",
          "sequence": 4294967295
        }
      ],
      "vout": [
        {
          "value": 50.0,
          "n": 0,
          "scriptPubKey": {
            "asm": "046ed51a9d298c48c9c0a92c4439808a5f918d074102cc4f142f76dd2044db5ae2e7a8b2714dece66e478288a768165e901592bc9eac80d9ed60762331f03c136d OP_CHECKSIG",
            "desc": "pk(046ed51a9d298c48c9c0a92c4439808a5f918d074102cc4f142f76dd2044db5ae2e7a8b2714dece66e478288a768165e901592bc9eac80d9ed60762331f03c136d)#uzmmq7y9",
            "hex": "41046ed51a9d298c48c9c0a92c4439808a5f918d074102cc4f142f76dd2044db5ae2e7a8b2714dece66e478288a768165e901592bc9eac80d9ed60762331f03c136dac",
            "type": "pubkey"
          }
        }
      ],
      "hex": "01000000010000000000000000000000000000000000000000000000000000000000000000ffffffff0704ffff001d0161ffffffff0100f2052a010000004341046ed51a9d298c48c9c0a92c4439808a5f918d074102cc4f142f76dd2044db5ae2e7a8b2714dece66e478288a768165e901592bc9eac80d9ed60762331f03c136dac00000000"
    }
  ]
}