{
  "hash": "00000000e2ee3a4cfb71d44b57407a78199f51ce2f6124d06549e291b032ef8e",
  "confirmations": 45616,
  "height": 7482,
  "version": 1,
  "versionHex": "00000001",
  "merkleroot": "b72f9fa21d7b4b303dbb6f1c5d51e37d2cc7083adc4139dff347105795433466",
  "time": 1237083327,
  "mediantime": 1237080364,
  "nonce": 119261230,
  "bits": "1d00ffff",
  "difficulty": 1,
  "chainwork": "00000000000000000000000000000000000000000000000000001d3b1d3b1d3b",
  "nTx": 1,
  "previousblockhash": "000000007e2e3408008ede8c63dd2ec864403af22561c82332053dab811c8326",
  "nextblockhash": "000000005bd5de0744ae93f48e99e41a00f18cfcdc85205c70e02e92defc9759",
  "strippedsize": 216,
  "size": 216,
  "weight": 864,
  "tx": [
    {
      "txid": "b72f9fa21d7b4b303dbb6f1c5d51e37d2cc7083adc4139dff347105795433466",
      "hash": "b72f9fa21d7b4b303dbb6f1c5d51e37d2cc7083adc4139dff347105795433466",
      "version": 1,
      "size": 135,
      "vsize": 135,
      "weight": 540,
      "locktime": 0,
      "vin": [
        {
          "coinbase": "04ffff001d02a300",
          "sequence": 4294967295
        }
      ],
      "vout": [
        {
          "value": 50.0,
          "n": 0,
          "scriptPubKey": {
            "asm": "04ba14039f7f1fb7e7b577bdcde783cd6e1fca0404b4089cfdee17e08bfb9b43ae6ac016854471594d5ac53c543e7856556f05bb55d0566e7d17ee8e087fda2d77 OP_CHECKSIG",
            "desc": "pk(04ba14039f7f1fb7e7b577bdcde783cd6e1fca0404b4089cfdee17e08bfb9b43ae6ac016854471594d5ac53c543e7856556f05bb55d0566e7d17ee8e087fda2d77)#vpc8gmyn",
            "hex": "4104ba14039f7f1fb7e7b577bdcde783cd6e1fca0404b4089cfdee17e08bfb9b43ae6ac016854471594d5ac53c543e7856556f05bb55d0566e7d17ee8e087fda2d77ac",
            "type": "pubkey"
          }
        }
      ],
      "hex": "01000000010000000000000000000000000000000000000000000000000000000000000000ffffffff0804ffff001d02a300ffffffff0100f2052a01000000434104ba14039f7f1fb7e7b577bdcde783cd6e1fca0404b4089cfdee17e08bfb9b43ae6ac016854471594d5ac53c543e7856556f05bb55d0566e7d17ee8e087fda2d77ac00000000"
    }
  ]
}