{
  "hash": "000000000d46964118e4bebaff4f332290e1620f0296391fa90a42ca18d89878",
  "confirmations": 44414,
  "height": 8684,
  "version": 1,
  "versionHex": "00000001",
  "merkleroot": "24ed68cc1793f31620eb3cafbad84ad646a27db94d12d80eeca5d48632fe0971",
  "time": 1238014449,
  "mediantime": 1238009668,
  "nonce": 31357098,
  "bits": "1d00ffff",
  "difficulty": 1,
  "chainwork": "000000000000000000000000000000000000000000000000000021ed21ed21ed",
  "nTx": 1,
  "previousblockhash": "000000001c2911089b4bd7719e2607fa24c7e92f77f0ee909c6d511af52cbf4a",
  "nextblockhash": "000000008820476d20779d81d2ed114aa22577b61e1e40e299d91bf70988cef2",
  "strippedsize": 216,
  "size": 216,
  "weight": 864,
  "tx": [
    {
      "txid": "24ed68cc1793f31620eb3cafbad84ad646a27db94d12d80eeca5d48632fe0971",
      "hash": "24ed68cc1793f31620eb3cafbad84ad646a27db94d12d80eeca5d48632fe0971",
      "version": 1,
      "size": 135,
      "vsize": 135,
      "weight": 540,
      "locktime": 0,
      "vin": [
        {
          "coinbase": "04ffff001d02e906",
          "sequence": 4294967295
        }
      ],
      "vout": [
        {
          "value": 50.0,
          "n": 0,
          "scriptPubKey": {
            "asm": "042ae870b1cdfcafbc0edef6ede6d4fc481f1cbf9b3d916ee7c187145d2b142e13394d9710e404bbe557be9918ced910d92cbe62819cc4395bbeaacd7512107029 OP_CHECKSIG",
            "desc": "pk(042ae870b1cdfcafbc0edef6ede6d4fc481f1cbf9b3d916ee7c187145d2b142e13394d9710e404bbe557be9918ced910d92cbe62819cc4395bbeaacd7512107029)#fldp49hr",
            "hex": "41042ae870b1cdfcafbc0edef6ede6d4fc481f1cbf9b3d916ee7c187145d2b142e13394d9710e404bbe557be9918ced910d92cbe62819cc4395bbeaacd7512107029ac",
            "type": "pubkey"
          }
        }
      ],
      "hex": "01000000010000000000000000000000000000000000000000000000000000000000000000ffffffff0804ffff001d02e906ffffffff0100f2052a010000004341042ae870b1cdfcafbc0edef6ede6d4fc481f1cbf9b3d916ee7c187145d2b142e13394d9710e404bbe557be9918ced910d92cbe62819cc4395bbeaacd7512107029ac00000000"
    }
  ]
}