{
  "hash": "0000000085d1bb02b81459e42cd4f790ff2d4fa319316f28386602b8d1f385c1",
  "confirmations": 44785,
  "height": 8313,
  "version": 1,
  "versionHex": "00000001",
  "merkleroot": "6d855b1a3cb76a4fa4c5864d87c68d0de4393075264fcb932383de12743d93e8",
  "time": 1237737936,
  "mediantime": 1237735545,
  "nonce": 36483518,
  "bits": "1d00ffff",
  "difficulty": 1,
  "chainwork": "0000000000000000000000000000000000000000000000000000207a207a207a",
  "nTx": 1,
  "previousblockhash": "00000000e04688c27adbe825370d6156d58089c984defa2773a9ee3996906d5a",
  "nextblockhash": "00000000919b014bc75f44102663634638acf4ef6b2f914982d01172ca244667",
  "strippedsize": 216,
  "size": 216,
  "weight": 864,
  "tx": [
    {
      "txid": "6d855b1a3cb76a4fa4c5864d87c68d0de4393075264fcb932383de12743d93e8",
      "hash": "6d855b1a3cb76a4fa4c5864d87c68d0de4393075264fcb932383de12743d93e8",
      "version": 1,
      "size": 135,
      "vsize": 135,
      "weight": 540,
      "locktime": 0,
      "vin": [
        {
          "coinbase": "04ffff001d028b02",
          "sequence": 4294967295
        }
      ],
      "vout": [
        {
          "value": 50.0,
          "n": 0,
          "scriptPubKey": {
            "asm": "044ea8a0ba23a02aed167d79bb13523ba722b223abf8dcd42c0fe91a7b56690069c5c18de0f429616dd7240b5217df760a44e74a00a174e60d0e6952323dda054c OP_CHECKSIG",
            "desc": "pk(044ea8a0ba23a02aed167d79bb13523ba722b223abf8dcd42c0fe91a7b56690069c5c18de0f429616dd7240b5217df760a44e74a00a174e60d0e6952323dda054c)#cvafxmd3",
            "hex": "41044ea8a0ba23a02aed167d79bb13523ba722b223abf8dcd42c0fe91a7b56690069c5c18de0f429616dd7240b5217df760a44e74a00a174e60d0e6952323dda054cac",
            "type": "pubkey"
          }
        }
      ],
      "hex": "01000000010000000000000000000000000000000000000000000000000000000000000000ffffffff0804ffff001d028b02ffffffff0100f2052a010000004341044ea8a0ba23a02aed167d79bb13523ba722b223abf8dcd42c0fe91a7b56690069c5c18de0f429616dd7240b5217df760a44e74a00a174e60d0e6952323dda054cac00000000"
    }
  ]
}