{
  "hash": "00000000864f198de6c67a8ea0a6497bddf32260f1ef38ed2199262b7deb0ff9",
  "confirmations": 49254,
  "height": 3844,
  "version": 1,
  "versionHex": "00000001",
  "merkleroot": "62a4a6ca8f7903069ba93fadd7887a61b5173082121ac6bdd1eae2b6aa350397",
  "time": 1234330803,
  "mediantime": 1234328155,
  "nonce": 27125155,
  "bits": "1d00ffff",
  "difficulty": 1,
  "chainwork": "00000000000000000000000000000000000000000000000000000f050f050f05",
  "nTx": 1,
  "previousblockhash": "00000000e3973f284a3d33f15f7c9ac30c10b5a6df9513a8d8ef7a3a7e1610cf",
  "nextblockhash": "000000006a84e1a4de11a647ec02ec0497d6efc09397cd6e89082efd1ec6f7d5",
  "strippedsize": 215,
  "size": 215,
  "weight": 860,
  "tx": [
    {
      "txid": "62a4a6ca8f7903069ba93fadd7887a61b5173082121ac6bdd1eae2b6aa350397",
      "hash": "62a4a6ca8f7903069ba93fadd7887a61b5173082121ac6bdd1eae2b6aa350397",
      "version": 1,
      "size": 134,
      "vsize": 134,
      "weight": 536,
      "locktime": 0,
      "vin": [
        {
          "coinbase": "04ffff001d0115",
          "sequence": 4294967295
        }
      ],
      "vout": [
        {
          "value": 50.0,
          "n": 0,
          "scriptPubKey": {
            "asm": "044dc9a07109009977e431771f168185ba7a6893b41874f03c60aa01978b3cef18dc3eaabadfca9b04e61019217ad5083d039f3cbed2a33128dfc0e82e9212aec1 OP_CHECKSIG",
            "desc": "pk(044dc9a07109009977e431771f168185ba7a6893b41874f03c60aa01978b3cef18dc3eaabadfca9b04e61019217ad5083d039f3cbed2a33128dfc0e82e9212aec1)#p8xy7yyu",
            "hex": "41044dc9a07109009977e431771f168185ba7a6893b41874f03c60aa01978b3cef18dc3eaabadfca9b04e61019217ad5083d039f3cbed2a33128dfc0e82e9212aec1ac",
            "type": "pubkey"
          }
        }
      ],
      "hex": "01000000010000000000000000000000000000000000000000000000000000000000000000ffffffff0704ffff001d0115ffffffff0100f2052a010000004341044dc9a07109009977e431771f168185ba7a6893b41874f03c60aa01978b3cef18dc3eaabadfca9b04e61019217ad5083d039f3cbed2a33128dfc0e82e9212aec1ac00000000"
    }
  ]
}