{
  "hash": "00000000841a4a0ed073bac16b8293717282e61a02bd6b8ffb38fe32d0f29e57",
  "confirmations": 51765,
  "height": 1333,
  "version": 1,
  "versionHex": "00000001",
  "merkleroot": "a00b47a483616c7b6a843292bd4e7b1daf2d4d99b5528ee1b1dedacfa4f2cd1a",
  "time": 1232626023,
  "mediantime": 1232620874,
  "nonce": 181194228,
  "bits": "1d00ffff",
  "difficulty": 1,
  "chainwork": "0000000000000000000000000000000000000000000000000000053605360536",
  "nTx": 1,
  "previousblockhash": "000000007a885902364f016043460b19e0295dc331307c9323bad4d68be7290e",
  "nextblockhash": "000000005d2b548da26c517588c77bc11e157ff666fef91ad10ef32be07a3933",
  "strippedsize": 216,
  "size": 216,
  "weight": 864,
  "tx": [
    {
      "txid": "a00b47a483616c7b6a843292bd4e7b1daf2d4d99b5528ee1b1dedacfa4f2cd1a",
      "hash": "a00b47a483616c7b6a843292bd4e7b1daf2d4d99b5528ee1b1dedacfa4f2cd1a",
      "version": 1,
      "size": 135,
      "vsize": 135,
      "weight": 540,
      "locktime": 0,
      "vin": [
        {
          "coinbase": "04ffff001d029c00",
          "sequence": 4294967295
        }
      ],
      "vout": [
        {
          "value": 50.0,
          "n": 0,
          "scriptPubKey": {
            "asm": "0478e163e9064b49cc242022a25e98b506805fde9e8bd061f439d84ebe340d7184b4bfb6946f656a848b822ceaa0332651433311c8899cccf6b3c8715eb3decabb OP_CHECKSIG",
            "desc": "pk(0478e163e9064b49cc242022a25e98b506805fde9e8bd061f439d84ebe340d7184b4bfb6946f656a848b822ceaa0332651433311c8899cccf6b3c8715eb3decabb)#yjx0v5ay",
            "hex": "410478e163e9064b49cc242022a25e98b506805fde9e8bd061f439d84ebe340d7184b4bfb6946f656a848b822ceaa0332651433311c8899cccf6b3c8715eb3decabbac",
            "type": "pubkey"
          }
        }
      ],
      "hex": "01000000010000000000000000000000000000000000000000000000000000000000000000ffffffff0804ffff001d029c00ffffffff0100f2052a0100000043410478e163e9064b49cc242022a25e98b506805fde9e8bd061f439d84ebe340d7184b4bfb6946f656a848b822ceaa0332651433311c8899cccf6b3c8715eb3decabbac00000000"
    }
  ]
}