{
  "hash": "00000000fd09b9bde2042508551ba03266daf362e8e2029332c2d93d0c947033",
  "confirmations": 50780,
  "height": 2318,
  "version": 1,
  "versionHex": "00000001",
  "merkleroot": "1830c7cf40ff1d1f6c644399d9ec2feac95b85b49e53ff5286411483f45a02fd",
  "time": 1233294034,
  "mediantime": 1233290104,
  "nonce": 55594042,
  "bits": "1d00ffff",
  "difficulty": 1,
  "chainwork": "0000000000000000000000000000000000000000000000000000090f090f090f",
  "nTx": 1,
  "previousblockhash": "00000000e0fb65763a98dd44af4150924c3be965b545c625f8999821cf7bf37b",
  "nextblockhash": "00000000303a4583fd6758b31198cb8bae8427dbf62f879a0848539a6a5376f0",
  "strippedsize": 216,
  "size": 216,
  "weight": 864,
  "tx": [
    {
      "txid": "1830c7cf40ff1d1f6c644399d9ec2feac95b85b49e53ff5286411483f45a02fd",
      "hash": "1830c7cf40ff1d1f6c644399d9ec2feac95b85b49e53ff5286411483f45a02fd",
      "version": 1,
      "size": 135,
      "vsize": 135,
      "weight": 540,
      "locktime": 0,
      "vin": [
        {
          "coinbase": "04ffff001d021602",
          "sequence": 4294967295
        }
      ],
      "vout": [
        {
          "value": 50.0,
          "n": 0,
          "scriptPubKey": {
            "asm": "043421e319e72fa9ec83ca38edb49c57e8e8415851f8c1afd33a7220b131d69a1197000086e44b421665f64c2cc73bb2e5644757bcf0909a7ce1bd6ef4fa195e69 OP_CHECKSIG",
            "desc": "pk(043421e319e72fa9ec83ca38edb49c57e8e8415851f8c1afd33a7220b131d69a1197000086e44b421665f64c2cc73bb2e5644757bcf0909a7ce1bd6ef4fa195e69)#tw0yqz6u",
            "hex": "41043421e319e72fa9ec83ca38edb49c57e8e8415851f8c1afd33a7220b131d69a1197000086e44b421665f64c2cc73bb2e5644757bcf0909a7ce1bd6ef4fa195e69ac",
            "type": "pubkey"
          }
        }
      ],
      "hex": "01000000010000000000000000000000000000000000000000000000000000000000000000ffffffff0804ffff001d021602ffffffff0100f2052a010000004341043421e319e72fa9ec83ca38edb49c57e8e8415851f8c1afd33a7220b131d69a1197000086e44b421665f64c2cc73bb2e5644757bcf0909a7ce1bd6ef4fa195e69ac00000000"
    }
  ]
}