{
  "hash": "00000000a2a3bdeafdd8714c6f9d5204d5511f18543fa356f814e5cfffc86ad7",
  "confirmations": 45192,
  "height": 7906,
  "version": 1,
  "versionHex": "00000001",
  "merkleroot": "208d6bb7f5f97419ee86a9b98192fa7ee10afbe12ff926088462bcf8f543f8d7",
  "time": 1237397432,
  "mediantime": 1237392124,
  "nonce": 1590077480,
  "bits": "1d00ffff",
  "difficulty": 1,
  "chainwork": "00000000000000000000000000000000000000000000000000001ee31ee31ee3",
  "nTx": 1,
  "previousblockhash": "00000000e862c1f3aa6d72c1ac1631d7628e82f6096585d92880f8804ed6a7d3",
  "nextblockhash": "00000000dbca65030a7fbf1a50240671919b99ebfc3d75c77970935d47de70d2",
  "strippedsize": 216,
  "size": 216,
  "weight": 864,
  "tx": [
    {
      "txid": "208d6bb7f5f97419ee86a9b98192fa7ee10afbe12ff926088462bcf8f543f8d7",
      "hash": "208d6bb7f5f97419ee86a9b98192fa7ee10afbe12ff926088462bcf8f543f8d7",
      "version": 1,
      "size": 135,
      "vsize": 135,
      "weight": 540,
      "locktime": 0,
      "vin": [
        {
          "coinbase": "04ffff001d028d07",
          "sequence": 4294967295
        }
      ],
      "vout": [
        {
          "value": 50.0,
          "n": 0,
          "scriptPubKey": {
            "asm": "046539efa30cef6074914b4f5f49a40d19df1dc7c37f75b60aa58a114b21158aba9d4bb1ff0e6e78f668be6cfdca209c69c90fd0ef7f4817149907f2793b252b72 OP_CHECKSIG",
            "desc": "pk(046539efa30cef6074914b4f5f49a40d19df1dc7c37f75b60aa58a114b21158aba9d4bb1ff0e6e78f668be6cfdca209c69c90fd0ef7f4817149907f2793b252b72)#ajpg0wc9",
            "hex": "41046539efa30cef6074914b4f5f49a40d19df1dc7c37f75b60aa58a114b21158aba9d4bb1ff0e6e78f668be6cfdca209c69c90fd0ef7f4817149907f2793b252b72ac",
            "type": "pubkey"
          }
        }
      ],
      "hex": "01000000010000000000000000000000000000000000000000000000000000000000000000ffffffff0804ffff001d028d07ffffffff0100f2052a010000004341046539efa30cef6074914b4f5f49a40d19df1dc7c37f75b60aa58a114b21158aba9d4bb1ff0e6e78f668be6cfdca209c69c90fd0ef7f4817149907f2793b252b72ac00000000"
    }
  ]
}