{
  "hash": "00000000b3732246d1584953e73cb0f8f5134191f475aa02ab07ac3bf755126d",
  "confirmations": 44491,
  "height": 8607,
  "version": 1,
  "versionHex": "00000001",
  "merkleroot": "70d55a1abc0167c91928b40ff50846bf5090d0888b441c93032fa9816fe51d79",
  "time": 1237954727,
  "mediantime": 1237951980,
  "nonce": 812304390,
  "bits": "1d00ffff",
  "difficulty": 1,
  "chainwork": "000000000000000000000000000000000000000000000000000021a021a021a0",
  "nTx": 1,
  "previousblockhash": "00000000e94d9bf5d7a758b2ebf9857a31864cd6948f772e94299ef9f65c7e63",
  "nextblockhash": "00000000be4d15eecaf3c7317c2e9858b2f432cfe679c6404543ec64a5ed4760",
  "strippedsize": 216,
  "size": 216,
  "weight": 864,
  "tx": [
    {
      "txid": "70d55a1abc0167c91928b40ff50846bf5090d0888b441c93032fa9816fe51d79",
      "hash": "70d55a1abc0167c91928b40ff50846bf5090d0888b441c93032fa9816fe51d79",
      "version": 1,
      "size": 135,
      "vsize": 135,
      "weight": 540,
      "locktime": 0,
      "vin": [
        {
          "coinbase": "04ffff001d029309",
          "sequence": 4294967295
        }
      ],
      "vout": [
        {
          "value": 50.0,
          "n": 0,
          "scriptPubKey": {
            "asm": "04d640016e631b159c268b741182ff0494c322f8b6ffbe3368853001a2518bd9e682e073ba9fecfb94ccbe87abb2df99eced8d0fd223ab4e07235db58a6b97633e OP_CHECKSIG",
            "desc": "pk(04d640016e631b159c268b741182ff0494c322f8b6ffbe3368853001a2518bd9e682e073ba9fecfb94ccbe87abb2df99eced8d0fd223ab4e07235db58a6b97633e)#cday7hrc",
            "hex": "4104d640016e631b159c268b741182ff0494c322f8b6ffbe3368853001a2518bd9e682e073ba9fecfb94ccbe87abb2df99eced8d0fd223ab4e07235db58a6b97633eac",
            "type": "pubkey"
          }
        }
      ],
      "hex": "01000000010000000000000000000000000000000000000000000000000000000000000000ffffffff0804ffff001d029309ffffffff0100f2052a01000000434104d640016e631b159c268b741182ff0494c322f8b6ffbe3368853001a2518bd9e682e073ba9fecfb94ccbe87abb2df99eced8d0fd223ab4e07235db58a6b97633eac00000000"
    }
  ]
}