{
  "hash": "000000007583506b911ea93c3dc6ccad6351cc50cbab124e67441194d4a3d30f",
  "confirmations": 52549,
  "height": 549,
  "version": 1,
  "versionHex": "00000001",
  "merkleroot": "ae77be691d4ebd8d5f1d70242b25b38d4f1ebfdd192d7eb09886601242124969",
  "time": 1232002235,
  "mediantime": 1231997349,
  "nonce": 219319610,
  "bits": "1d00ffff",
  "difficulty": 1,
  "chainwork": "0000000000000000000000000000000000000000000000000000022602260226",
  "nTx": 1,
  "previousblockhash": "00000000c2deb1dd86cbc700380541d6d7cebd18a6a7642849bc57919732d705",
  "nextblockhash": "00000000314ff43c77573a3b8094951ce4b0f86aceee65e226914eb737ada575",
  "strippedsize": 216,
  "size": 216,
  "weight": 864,
  "tx": [
    {
      "txid": "ae77be691d4ebd8d5f1d70242b25b38d4f1ebfdd192d7eb09886601242124969",
      "hash": "ae77be691d4ebd8d5f1d70242b25b38d4f1ebfdd192d7eb09886601242124969",
      "version": 1,
      "size": 135,
      "vsize": 135,
      "weight": 540,
      "locktime": 0,
      "vin": [
        {
          "coinbase": "04ffff001d029b05",
          "sequence": 4294967295
        }
      ],
      "vout": [
        {
          "value": 50.0,
          "n": 0,
          "scriptPubKey": {
            "asm": "047705bbf18d39b8ccbb82e91060861e77789284b53af5b36a87f0fed3e576aea56c778e59b17299d24646b0994e2254b452765d86f363a65df3c00dbc151f3c20 OP_CHECKSIG",
            "desc": "pk(047705bbf18d39b8ccbb82e91060861e77789284b53af5b36a87f0fed3e576aea56c778e59b17299d24646b0994e2254b452765d86f363a65df3c00dbc151f3c20)#ran7g0ff",
            "hex": "41047705bbf18d39b8ccbb82e91060861e77789284b53af5b36a87f0fed3e576aea56c778e59b17299d24646b0994e2254b452765d86f363a65df3c00dbc151f3c20ac",
            "type": "pubkey"
          }
        }
      ],
      "hex": "01000000010000000000000000000000000000000000000000000000000000000000000000ffffffff0804ffff001d029b05ffffffff0100f2052a010000004341047705bbf18d39b8ccbb82e91060861e77789284b53af5b36a87f0fed3e576aea56c778e59b17299d24646b0994e2254b452765d86f363a65df3c00dbc151f3c20ac00000000"
    }
  ]
}