{
  "hash": "0000000033c76a8c0d9993f5e1b8e6e18aceb6abaa9fb128bdbc26d1c97e128d",
  "confirmations": 50192,
  "height": 2906,
  "version": 1,
  "versionHex": "00000001",
  "merkleroot": "0f0d8a1305bdafee6cd5e4c4be7dd34b71f8dee90ab3950b636e3e938aca8469",
  "time": 1233695486,
  "mediantime": 1233693445,
  "nonce": 18241912,
  "bits": "1d00ffff",
  "difficulty": 1,
  "chainwork": "00000000000000000000000000000000000000000000000000000b5b0b5b0b5b",
  "nTx": 1,
  "previousblockhash": "000000007875598239139c9fdf90f25a6d3c013cb0f370aa3f5fe5a5d731bb00",
  "nextblockhash": "000000008e584a759087402814d0a2a66f9ddcd052f9f971be8dc405acfef8a0",
  "strippedsize": 216,
  "size": 216,
  "weight": 864,
  "tx": [
    {
      "txid": "0f0d8a1305bdafee6cd5e4c4be7dd34b71f8dee90ab3950b636e3e938aca8469",
      "hash": "0f0d8a1305bdafee6cd5e4c4be7dd34b71f8dee90ab3950b636e3e938aca8469",
      "version": 1,
      "size": 135,
      "vsize": 135,
      "weight": 540,
      "locktime": 0,
      "vin": [
        {
          "coinbase": "04ffff001d02ed00",
          "sequence": 4294967295
        }
      ],
      "vout": [
        {
          "value": 50.0,
          "n": 0,
          "scriptPubKey": {
            "asm": "04b2c5ebf875397dcad12be33296e499a2a16192d69c145ebbf7904e40f1e6a450f7de42bb95a4439f6dece32b4db752461fdeea65126a80b7e0fe235bd1d12873 OP_CHECKSIG",
            "desc": "pk(04b2c5ebf875397dcad12be33296e499a2a16192d69c145ebbf7904e40f1e6a450f7de42bb95a4439f6dece32b4db752461fdeea65126a80b7e0fe235bd1d12873)#388u4c0y",
            "hex": "4104b2c5ebf875397dcad12be33296e499a2a16192d69c145ebbf7904e40f1e6a450f7de42bb95a4439f6dece32b4db752461fdeea65126a80b7e0fe235bd1d12873ac",
            "type": "pubkey"
          }
        }
      ],
      "hex": "01000000010000000000000000000000000000000000000000000000000000000000000000ffffffff0804ffff001d02ed00ffffffff0100f2052a01000000434104b2c5ebf875397dcad12be33296e499a2a16192d69c145ebbf7904e40f1e6a450f7de42bb95a4439f6dece32b4db752461fdeea65126a80b7e0fe235bd1d12873ac00000000"
    }
  ]
}