{
  "hash": "00000000fc5780be430113cb160a5ea51efa6a66e62663a69621aadbb9036060",
  "confirmations": 47931,
  "height": 5167,
  "version": 1,
  "versionHex": "00000001",
  "merkleroot": "8e16c7affa47f0c9a6f1f296e4e743caf629f3ba264b94e98ac3471b58c2a602",
  "time": 1235263336,
  "mediantime": 1235260453,
  "nonce": 3060356391,
  "bits": "1d00ffff",
  "difficulty": 1,
  "chainwork": "0000000000000000000000000000000000000000000000000000143014301430",
  "nTx": 1,
  "previousblockhash": "00000000df039632706f1fae438e4fddc0f42b92d5778348a53413e577180553",
  "nextblockhash": "00000000421d29a21be4046f75dcc1b9177886c7f230184fc9af919e81f85fb6",
  "strippedsize": 216,
  "size": 216,
  "weight": 864,
  "tx": [
    {
      "txid": "8e16c7affa47f0c9a6f1f296e4e743caf629f3ba264b94e98ac3471b58c2a602",
      "hash": "8e16c7affa47f0c9a6f1f296e4e743caf629f3ba264b94e98ac3471b58c2a602",
      "version": 1,
      "size": 135,
      "vsize": 135,
      "weight": 540,
      "locktime": 0,
      "vin": [
        {
          "coinbase": "04ffff001d02310a",
          "sequence": 4294967295
        }
      ],
      "vout": [
        {
          "value": 50.0,
          "n": 0,
          "scriptPubKey": {
            "asm": "042a341e59fb8749a4aae08f63bab0304fad17e23d8f0ead88923df7a1325e0a057e0ee3cdf677e91599145c792908f898ba8376504663dbeb7812931b306636be OP_CHECKSIG",
            "desc": "pk(042a341e59fb8749a4aae08f63bab0304fad17e23d8f0ead88923df7a1325e0a057e0ee3cdf677e91599145c792908f898ba8376504663dbeb7812931b306636be)#838kjrmj",
            "hex": "41042a341e59fb8749a4aae08f63bab0304fad17e23d8f0ead88923df7a1325e0a057e0ee3cdf677e91599145c792908f898ba8376504663dbeb7812931b306636beac",
            "type": "pubkey"
          }
        }
      ],
      "hex": "01000000010000000000000000000000000000000000000000000000000000000000000000ffffffff0804ffff001d02310affffffff0100f2052a010000004341042a341e59fb8749a4aae08f63bab0304fad17e23d8f0ead88923df7a1325e0a057e0ee3cdf677e91599145c792908f898ba8376504663dbeb7812931b306636beac00000000"
    }
  ]
}