{
  "hash": "0000000031002d56e1c4676ae7999e8e0968708225bb1063c6a738f882f4498d",
  "confirmations": 51954,
  "height": 1144,
  "version": 1,
  "versionHex": "00000001",
  "merkleroot": "5bb5df544ad5976ea1c1e9fe17d27137e144bf0f823c90b09759deca07d23809",
  "time": 1232455094,
  "mediantime": 1232451465,
  "nonce": 60801141,
  "bits": "1d00ffff",
  "difficulty": 1,
  "chainwork": "0000000000000000000000000000000000000000000000000000047904790479",
  "nTx": 1,
  "previousblockhash": "000000007f36e13704298d9d7075ff829d969f0c4a1cadb46e85542760737573",
  "nextblockhash": "0000000077e87b894506363f643f8cba6ea01438107e8925042c357b4f0a6c62",
  "strippedsize": 216,
  "size": 216,
  "weight": 864,
  "tx": [
    {
      "txid": "5bb5df544ad5976ea1c1e9fe17d27137e144bf0f823c90b09759deca07d23809",
      "hash": "5bb5df544ad5976ea1c1e9fe17d27137e144bf0f823c90b09759deca07d23809",
      "version": 1,
      "size": 135,
      "vsize": 135,
      "weight": 540,
      "locktime": 0,
      "vin": [
        {
          "coinbase": "04ffff001d02b101",
          "sequence": 4294967295
        }
      ],
      "vout": [
        {
          "value": 50.0,
          "n": 0,
          "scriptPubKey": {
            "asm": "04c2844e9687957267686167d2b11c79e99086be92be0f9421c361d104d198f36e5b3a2530ed432d3f1b21fa6a93d2184035f43cc2f339290bf28bcf5bc19627fd OP_CHECKSIG",
            "desc": "pk(04c2844e9687957267686167d2b11c79e99086be92be0f9421c361d104d198f36e5b3a2530ed432d3f1b21fa6a93d2184035f43cc2f339290bf28bcf5bc19627fd)#wdrex0nk",
            "hex": "4104c2844e9687957267686167d2b11c79e99086be92be0f9421c361d104d198f36e5b3a2530ed432d3f1b21fa6a93d2184035f43cc2f339290bf28bcf5bc19627fdac",
            "type": "pubkey"
          }
        }
      ],
      "hex": "01000000010000000000000000000000000000000000000000000000000000000000000000ffffffff0804ffff001d02b101ffffffff0100f2052a01000000434104c2844e9687957267686167d2b11c79e99086be92be0f9421c361d104d198f36e5b3a2530ed432d3f1b21fa6a93d2184035f43cc2f339290bf28bcf5bc19627fdac00000000"
    }
  ]
}