{
  "hash": "00000000e0698902e81680ce3a1d4de8c1092c6e270fe78ed182f668ffcb7033",
  "confirmations": 50532,
  "height": 2566,
  "version": 1,
  "versionHex": "00000001",
  "merkleroot": "02aa38b246b9bc5fc8262b9b2503c099675a53b28a0229fc705b1891cf375a52",
  "time": 1233466796,
  "mediantime": 1233462555,
  "nonce": 3994513719,
  "bits": "1d00ffff",
  "difficulty": 1,
  "chainwork": "00000000000000000000000000000000000000000000000000000a070a070a07",
  "nTx": 1,
  "previousblockhash": "00000000b82c85cc9b41aa0d565e6379d4e0f4ec660caadacda994da7f72995e",
  "nextblockhash": "000000007a2d56a9d355b09fa261bfa1d61fda45556cecf0754e524c0eede832",
  "strippedsize": 216,
  "size": 216,
  "weight": 864,
  "tx": [
    {
      "txid": "02aa38b246b9bc5fc8262b9b2503c099675a53b28a0229fc705b1891cf375a52",
      "hash": "02aa38b246b9bc5fc8262b9b2503c099675a53b28a0229fc705b1891cf375a52",
      "version": 1,
      "size": 135,
      "vsize": 135,
      "weight": 540,
      "locktime": 0,
      "vin": [
        {
          "coinbase": "04ffff001d024c02",
          "sequence": 4294967295
        }
      ],
      "vout": [
        {
          "value": 50.0,
          "n": 0,
          "scriptPubKey": {
            "asm": "0459f03891eceaa8b171d9d1a8de7346882ec07993e620a18a80a764ecb03cb0b2234beaae46570b92df52aa7dda5a573a5c71e968a51d557c0b107ec10fc607a1 OP_CHECKSIG",
            "desc": "pk(0459f03891eceaa8b171d9d1a8de7346882ec07993e620a18a80a764ecb03cb0b2234beaae46570b92df52aa7dda5a573a5c71e968a51d557c0b107ec10fc607a1)#ym6nvhmx",
            "hex": "410459f03891eceaa8b171d9d1a8de7346882ec07993e620a18a80a764ecb03cb0b2234beaae46570b92df52aa7dda5a573a5c71e968a51d557c0b107ec10fc607a1ac",
            "type": "pubkey"
          }
        }
      ],
      "hex": "01000000010000000000000000000000000000000000000000000000000000000000000000ffffffff0804ffff001d024c02ffffffff0100f2052a0100000043410459f03891eceaa8b171d9d1a8de7346882ec07993e620a18a80a764ecb03cb0b2234beaae46570b92df52aa7dda5a573a5c71e968a51d557c0b107ec10fc607a1ac00000000"
    }
  ]
}