{
  "hash": "00000000b82c85cc9b41aa0d565e6379d4e0f4ec660caadacda994da7f72995e",
  "confirmations": 50533,
  "height": 2565,
  "version": 1,
  "versionHex": "00000001",
  "merkleroot": "899e2b41c238837de261fc1a17afc969ace79c88fd482b2b8c34ab51db40e53c",
  "time": 1233465512,
  "mediantime": 1233461378,
  "nonce": 1599597,
  "bits": "1d00ffff",
  "difficulty": 1,
  "chainwork": "00000000000000000000000000000000000000000000000000000a060a060a06",
  "nTx": 1,
  "previousblockhash": "0000000016dd8dad06f66f1ac4d0af1a1d5e685dfbef53282af34f9b0b714031",
  "nextblockhash": "00000000e0698902e81680ce3a1d4de8c1092c6e270fe78ed182f668ffcb7033",
  "strippedsize": 215,
  "size": 215,
  "weight": 860,
  "tx": [
    {
      "txid": "899e2b41c238837de261fc1a17afc969ace79c88fd482b2b8c34ab51db40e53c",
      "hash": "899e2b41c238837de261fc1a17afc969ace79c88fd482b2b8c34ab51db40e53c",
      "version": 1,
      "size": 134,
      "vsize": 134,
      "weight": 536,
      "locktime": 0,
      "vin": [
        {
          "coinbase": "04ffff001d0108",
          "sequence": 4294967295
        }
      ],
      "vout": [
        {
          "value": 50.0,
          "n": 0,
          "scriptPubKey": {
            "asm": "042031b3630362383c3a225da7699045d0bf56837cca2be66237892ec5d94fa8fc2d137dad21463e0c193907b2ecfbf251cca1229f15c2840c99f9255c5f8d5e3a OP_CHECKSIG",
            "desc": "pk(042031b3630362383c3a225da7699045d0bf56837cca2be66237892ec5d94fa8fc2d137dad21463e0c193907b2ecfbf251cca1229f15c2840c99f9255c5f8d5e3a)#hd4hfmy4",
            "hex": "41042031b3630362383c3a225da7699045d0bf56837cca2be66237892ec5d94fa8fc2d137dad21463e0c193907b2ecfbf251cca1229f15c2840c99f9255c5f8d5e3aac",
            "type": "pubkey"
          }
        }
      ],
      "hex": "01000000010000000000000000000000000000000000000000000000000000000000000000ffffffff0704ffff001d0108ffffffff0100f2052a010000004341042031b3630362383c3a225da7699045d0bf56837cca2be66237892ec5d94fa8fc2d137dad21463e0c193907b2ecfbf251cca1229f15c2840c99f9255c5f8d5e3aac00000000"
    }
  ]
}