{
  "hash": "000000000f3e94b228bd4e233396f402bd1f715ab046eab6b44ed9ab89ae7ed7",
  "confirmations": 52060,
  "height": 164,
  "version": 1,
  "versionHex": "00000001",
  "merkleroot": "053664b11b14df95e7e183450cb594fe6c3348e3981c183a0e5fb93da0da24fa",
  "time": 1231715347,
  "mediantime": 1231702618,
  "nonce": 672269844,
  "bits": "1d00ffff",
  "difficulty": 1,
  "chainwork": "000000000000000000000000000000000000000000000000000000a500a500a5",
  "nTx": 1,
  "previousblockhash": "0000000066fd802a02909e8918fb85943836ce5d99000bdcd8128a06070d140a",
  "nextblockhash": "000000006f6977de3707ea42c892677d9f841f4c2fc449814f45ed2cec7f618f",
  "strippedsize": 215,
  "size": 215,
  "weight": 860,
  "tx": [
    {
      "txid": "053664b11b14df95e7e183450cb594fe6c3348e3981c183a0e5fb93da0da24fa",
      "hash": "053664b11b14df95e7e183450cb594fe6c3348e3981c183a0e5fb93da0da24fa",
      "version": 1,
      "size": 134,
      "vsize": 134,
      "weight": 536,
      "locktime": 0,
      "vin": [
        {
          "coinbase": "04ffff001d0108",
          "sequence": 4294967295
        }
      ],
      "vout": [
        {
          "value": 50.0,
          "n": 0,
          "scriptPubKey": {
            "asm": "042bd821d9a4e5338eb1298173d75302f3403e778051419dacea3017702ee0d8b9386077b9ac64e36d9e55313c2c2485a5eb2832f9e84a80ca3a3630d717d8ce31 OP_CHECKSIG",
            "desc": "pk(042bd821d9a4e5338eb1298173d75302f3403e778051419dacea3017702ee0d8b9386077b9ac64e36d9e55313c2c2485a5eb2832f9e84a80ca3a3630d717d8ce31)#ylm5jhp2",
            "hex": "41042bd821d9a4e5338eb1298173d75302f3403e778051419dacea3017702ee0d8b9386077b9ac64e36d9e55313c2c2485a5eb2832f9e84a80ca3a3630d717d8ce31ac",
            "type": "pubkey"
          }
        }
      ],
      "hex": "01000000010000000000000000000000000000000000000000000000000000000000000000ffffffff0704ffff001d0108ffffffff0100f2052a010000004341042bd821d9a4e5338eb1298173d75302f3403e778051419dacea3017702ee0d8b9386077b9ac64e36d9e55313c2c2485a5eb2832f9e84a80ca3a3630d717d8ce31ac00000000"
    }
  ]
}