{
  "hash": "00000000f977441badb36a6bbac2057f7c6464dea83fabde00636803ae536534",
  "confirmations": 52444,
  "height": 654,
  "version": 1,
  "versionHex": "00000001",
  "merkleroot": "5889a7f8bbdaaad6bef9d568a27a430d4eb60750f9ef94fcffbba49581578b77",
  "time": 1232071761,
  "mediantime": 1232068634,
  "nonce": 2431659805,
  "bits": "1d00ffff",
  "difficulty": 1,
  "chainwork": "0000000000000000000000000000000000000000000000000000028f028f028f",
  "nTx": 1,
  "previousblockhash": "00000000563679ac0304f948a6a515b06077b3b6ef118036d9dbe4ef32122597",
  "nextblockhash": "00000000180b5bdbeb61d547a04adf658f7c9be695cd2c5d8fdf3e27e022d833",
  "strippedsize": 216,
  "size": 216,
  "weight": 864,
  "tx": [
    {
      "txid": "5889a7f8bbdaaad6bef9d568a27a430d4eb60750f9ef94fcffbba49581578b77",
      "hash": "5889a7f8bbdaaad6bef9d568a27a430d4eb60750f9ef94fcffbba49581578b77",
      "version": 1,
      "size": 135,
      "vsize": 135,
      "weight": 540,
      "locktime": 0,
      "vin": [
        {
          "coinbase": "04ffff001d029a07",
          "sequence": 4294967295
        }
      ],
      "vout": [
        {
          "value": 50.0,
          "n": 0,
          "scriptPubKey": {
            "asm": "040ef30ae3a5d624fa25d881744ecc63a8d1793e9f0c119a6de5bf0c25d08dc489fae80edbeefed4d4b152e0507d30d240c67398c42ae4aaa6e53b39e1120fc2db OP_CHECKSIG",
            "desc": "pk(040ef30ae3a5d624fa25d881744ecc63a8d1793e9f0c119a6de5bf0c25d08dc489fae80edbeefed4d4b152e0507d30d240c67398c42ae4aaa6e53b39e1120fc2db)#x24mml0m",
            "hex": "41040ef30ae3a5d624fa25d881744ecc63a8d1793e9f0c119a6de5bf0c25d08dc489fae80edbeefed4d4b152e0507d30d240c67398c42ae4aaa6e53b39e1120fc2dbac",
            "type": "pubkey"
          }
        }
      ],
      "hex": "01000000010000000000000000000000000000000000000000000000000000000000000000ffffffff0804ffff001d029a07ffffffff0100f2052a010000004341040ef30ae3a5d624fa25d881744ecc63a8d1793e9f0c119a6de5bf0c25d08dc489fae80edbeefed4d4b152e0507d30d240c67398c42ae4aaa6e53b39e1120fc2dbac00000000"
    }
  ]
}