{
  "hash": "00000000015ef6fddf58dab1ebad3012a77b970631d3054f769e078e383b9aea",
  "confirmations": 46036,
  "height": 7062,
  "version": 1,
  "versionHex": "00000001",
  "merkleroot": "4cf13160ee28284633370451cb21a00b4f95127eaa0bbb9160a861f35827afc6",
  "time": 1236766367,
  "mediantime": 1236762053,
  "nonce": 3465367062,
  "bits": "1d00ffff",
  "difficulty": 1,
  "chainwork": "00000000000000000000000000000000000000000000000000001b971b971b97",
  "nTx": 1,
  "previousblockhash": "0000000072403eb89511c869539ccdd2178a4318bac184b7ac1c4a12d814a504",
  "nextblockhash": "00000000094c3f49eb98790a1f8ad16458dc0784ba55479f117a64a23af44c23",
  "strippedsize": 216,
  "size": 216,
  "weight": 864,
  "tx": [
    {
      "txid": "4cf13160ee28284633370451cb21a00b4f95127eaa0bbb9160a861f35827afc6",
      "hash": "4cf13160ee28284633370451cb21a00b4f95127eaa0bbb9160a861f35827afc6",
      "version": 1,
      "size": 135,
      "vsize": 135,
      "weight": 540,
      "locktime": 0,
      "vin": [
        {
          "coinbase": "04ffff001d024603",
          "sequence": 4294967295
        }
      ],
      "vout": [
        {
          "value": 50.0,
          "n": 0,
          "scriptPubKey": {
            "asm": "0468a4326b3690b7c96a7af7e6d47ede3c0b75f6b0ee24115c66b54977894b11c1e5eff32342c3570798503cd4c0d4222a3594891e9492f39955d6976e97717c7f OP_CHECKSIG",
            "desc": "pk(0468a4326b3690b7c96a7af7e6d47ede3c0b75f6b0ee24115c66b54977894b11c1e5eff32342c3570798503cd4c0d4222a3594891e9492f39955d6976e97717c7f)#nf8gx6lr",
            "hex": "410468a4326b3690b7c96a7af7e6d47ede3c0b75f6b0ee24115c66b54977894b11c1e5eff32342c3570798503cd4c0d4222a3594891e9492f39955d6976e97717c7fac",
            "type": "pubkey"
          }
        }
      ],
      "hex": "01000000010000000000000000000000000000000000000000000000000000000000000000ffffffff0804ffff001d024603ffffffff0100f2052a0100000043410468a4326b3690b7c96a7af7e6d47ede3c0b75f6b0ee24115c66b54977894b11c1e5eff32342c3570798503cd4c0d4222a3594891e9492f39955d6976e97717c7fac00000000"
    }
  ]
}