{
  "hash": "00000000af34d9b405132cc1d292ff58b1ce0d4b4949a86fdc7c99491f55e340",
  "confirmations": 49351,
  "height": 3747,
  "version": 1,
  "versionHex": "00000001",
  "merkleroot": "fe9b7a6d5f68b87ceefe780635cb392183726aca5a149f2e0a9d86e9227302b2",
  "time": 1234268012,
  "mediantime": 1234263314,
  "nonce": 1914242086,
  "bits": "1d00ffff",
  "difficulty": 1,
  "chainwork": "00000000000000000000000000000000000000000000000000000ea40ea40ea4",
  "nTx": 1,
  "previousblockhash": "00000000bf6295c210fc5815095173d91ea3320e2cbb77c1a481118b3bf6fa35",
  "nextblockhash": "0000000010b78ea41601bf75d5326b7aadef42a7dbfac83cae239280ad26802d",
  "strippedsize": 216,
  "size": 216,
  "weight": 864,
  "tx": [
    {
      "txid": "fe9b7a6d5f68b87ceefe780635cb392183726aca5a149f2e0a9d86e9227302b2",
      "hash": "fe9b7a6d5f68b87ceefe780635cb392183726aca5a149f2e0a9d86e9227302b2",
      "version": 1,
      "size": 135,
      "vsize": 135,
      "weight": 540,
      "locktime": 0,
      "vin": [
        {
          "coinbase": "04ffff001d029400",
          "sequence": 4294967295
        }
      ],
      "vout": [
        {
          "value": 50.0,
          "n": 0,
          "scriptPubKey": {
            "asm": "04b41832570000829ce92fde7f7af467a256cc30511a55f0d88df7903853ec59db8eb1e32f1561562e66d5fafb1951d30768a3e3d0477d732c4bf0a9d9db5edbfe OP_CHECKSIG",
            "desc": "pk(04b41832570000829ce92fde7f7af467a256cc30511a55f0d88df7903853ec59db8eb1e32f1561562e66d5fafb1951d30768a3e3d0477d732c4bf0a9d9db5edbfe)#q3w5e2kn",
            "hex": "4104b41832570000829ce92fde7f7af467a256cc30511a55f0d88df7903853ec59db8eb1e32f1561562e66d5fafb1951d30768a3e3d0477d732c4bf0a9d9db5edbfeac",
            "type": "pubkey"
          }
        }
      ],
      "hex": "01000000010000000000000000000000000000000000000000000000000000000000000000ffffffff0804ffff001d029400ffffffff0100f2052a01000000434104b41832570000829ce92fde7f7af467a256cc30511a55f0d88df7903853ec59db8eb1e32f1561562e66d5fafb1951d30768a3e3d0477d732c4bf0a9d9db5edbfeac00000000"
    }
  ]
}