{
  "hash": "000000004d01cf13e444c7e3e6d79b7ac75a8712985de947710d2e5b2b99527f",
  "confirmations": 46788,
  "height": 6310,
  "version": 1,
  "versionHex": "00000001",
  "merkleroot": "d70d18f4281c03e9fee81acb7215feee09f8e53c1fc2bda9342f1bbfd93c361f",
  "time": 1236179691,
  "mediantime": 1236176352,
  "nonce": 2463052566,
  "bits": "1d00ffff",
  "difficulty": 1,
  "chainwork": "000000000000000000000000000000000000000000000000000018a718a718a7",
  "nTx": 1,
  "previousblockhash": "00000000bb40a23fb280ea5366272d4b6b2f60c80bda840e5517e34f4a797eab",
  "nextblockhash": "00000000f878c7445b66af5c25c426fe2882c9f015f4e26c6a6b44608bc661d6",
  "strippedsize": 215,
  "size": 215,
  "weight": 860,
  "tx": [
    {
      "txid": "d70d18f4281c03e9fee81acb7215feee09f8e53c1fc2bda9342f1bbfd93c361f",
      "hash": "d70d18f4281c03e9fee81acb7215feee09f8e53c1fc2bda9342f1bbfd93c361f",
      "version": 1,
      "size": 134,
      "vsize": 134,
      "weight": 536,
      "locktime": 0,
      "vin": [
        {
          "coinbase": "04ffff001d014d",
          "sequence": 4294967295
        }
      ],
      "vout": [
        {
          "value": 50.0,
          "n": 0,
          "scriptPubKey": {
            "asm": "046d5fb32a950e953b8a77d764664725005c2ca25d08ec3336f5c1230df7e0612863341451b070e654320c59376145e7dfcf6bfd870faf862a0704f73028e1ec55 OP_CHECKSIG",
            "desc": "pk(046d5fb32a950e953b8a77d764664725005c2ca25d08ec3336f5c1230df7e0612863341451b070e654320c59376145e7dfcf6bfd870faf862a0704f73028e1ec55)#mvdznuaa",
            "hex": "41046d5fb32a950e953b8a77d764664725005c2ca25d08ec3336f5c1230df7e0612863341451b070e654320c59376145e7dfcf6bfd870faf862a0704f73028e1ec55ac",
            "type": "pubkey"
          }
        }
      ],
      "hex": "01000000010000000000000000000000000000000000000000000000000000000000000000ffffffff0704ffff001d014dffffffff0100f2052a010000004341046d5fb32a950e953b8a77d764664725005c2ca25d08ec3336f5c1230df7e0612863341451b070e654320c59376145e7dfcf6bfd870faf862a0704f73028e1ec55ac00000000"
    }
  ]
}