{
  "hash": "00000000f188d02691f222df3b8f748c034b8d3fab81a1fd1f7631aacd2dafa4",
  "confirmations": 48216,
  "height": 4882,
  "version": 1,
  "versionHex": "00000001",
  "merkleroot": "a0e7c5456d4cb8a25bb7aa3460102e3fda5fce23f309d4869f0806d998ded540",
  "time": 1235059309,
  "mediantime": 1235056471,
  "nonce": 3052077608,
  "bits": "1d00ffff",
  "difficulty": 1,
  "chainwork": "0000000000000000000000000000000000000000000000000000131313131313",
  "nTx": 1,
  "previousblockhash": "00000000267ce7ff5ead38e833db937890c794cbf663c38fa3eafdb2c3453de6",
  "nextblockhash": "00000000f822d57849aa0b9c19575c425c37b2f8d97c5111b0d60b069bf9b8a4",
  "strippedsize": 216,
  "size": 216,
  "weight": 864,
  "tx": [
    {
      "txid": "a0e7c5456d4cb8a25bb7aa3460102e3fda5fce23f309d4869f0806d998ded540",
      "hash": "a0e7c5456d4cb8a25bb7aa3460102e3fda5fce23f309d4869f0806d998ded540",
      "version": 1,
      "size": 135,
      "vsize": 135,
      "weight": 540,
      "locktime": 0,
      "vin": [
        {
          "coinbase": "04ffff001d027805",
          "sequence": 4294967295
        }
      ],
      "vout": [
        {
          "value": 50.0,
          "n": 0,
          "scriptPubKey": {
            "asm": "04c74f8c5c2b1aacc22f360a401dc0aee2b34a9c8b737d14b2d82201a58f7acd7680f1017c6ad98db01de51d2bd7eeb08177261f86da65fa1823bdcdba59c20df4 OP_CHECKSIG",
            "desc": "pk(04c74f8c5c2b1aacc22f360a401dc0aee2b34a9c8b737d14b2d82201a58f7acd7680f1017c6ad98db01de51d2bd7eeb08177261f86da65fa1823bdcdba59c20df4)#qy82cr0q",
            "hex": "4104c74f8c5c2b1aacc22f360a401dc0aee2b34a9c8b737d14b2d82201a58f7acd7680f1017c6ad98db01de51d2bd7eeb08177261f86da65fa1823bdcdba59c20df4ac",
            "type": "pubkey"
          }
        }
      ],
      "hex": "01000000010000000000000000000000000000000000000000000000000000000000000000ffffffff0804ffff001d027805ffffffff0100f2052a01000000434104c74f8c5c2b1aacc22f360a401dc0aee2b34a9c8b737d14b2d82201a58f7acd7680f1017c6ad98db01de51d2bd7eeb08177261f86da65fa1823bdcdba59c20df4ac00000000"
    }
  ]
}