{
  "hash": "0000000012c720c66528e7309bce4c6a282361d95c83380e296535a891307398",
  "confirmations": 46044,
  "height": 7054,
  "version": 1,
  "versionHex": "00000001",
  "merkleroot": "0942d12699863e58b77c9af29aa7e8d69b61da680329e3c31eda6ed3da4accac",
  "time": 1236760623,
  "mediantime": 1236757094,
  "nonce": 2199951135,
  "bits": "1d00ffff",
  "difficulty": 1,
  "chainwork": "00000000000000000000000000000000000000000000000000001b8f1b8f1b8f",
  "nTx": 1,
  "previousblockhash": "00000000c193474e9bc3bc3c7a38deadec58c5fc45aa3fb605769b942dba0cb4",
  "nextblockhash": "000000001b6ac244a631ce8e23bc0bc3fe4ef889d6f3642e53fb2a80add5169e",
  "strippedsize": 216,
  "size": 216,
  "weight": 864,
  "tx": [
    {
      "txid": "0942d12699863e58b77c9af29aa7e8d69b61da680329e3c31eda6ed3da4accac",
      "hash": "0942d12699863e58b77c9af29aa7e8d69b61da680329e3c31eda6ed3da4accac",
      "version": 1,
      "size": 135,
      "vsize": 135,
      "weight": 540,
      "locktime": 0,
      "vin": [
        {
          "coinbase": "04ffff001d022c03",
          "sequence": 4294967295
        }
      ],
      "vout": [
        {
          "value": 50.0,
          "n": 0,
          "scriptPubKey": {
            "asm": "04c91f71ecf763069eae7e41910f0ee1ed35efa50b3f5dc45188f7f9a67b967dd6d879b3fbce90af3ba120520ba9457a43cceaba0e8f36bb4579d7067c8825fe50 OP_CHECKSIG",
            "desc": "pk(04c91f71ecf763069eae7e41910f0ee1ed35efa50b3f5dc45188f7f9a67b967dd6d879b3fbce90af3ba120520ba9457a43cceaba0e8f36bb4579d7067c8825fe50)#4r72za0p",
            "hex": "4104c91f71ecf763069eae7e41910f0ee1ed35efa50b3f5dc45188f7f9a67b967dd6d879b3fbce90af3ba120520ba9457a43cceaba0e8f36bb4579d7067c8825fe50ac",
            "type": "pubkey"
          }
        }
      ],
      "hex": "01000000010000000000000000000000000000000000000000000000000000000000000000ffffffff0804ffff001d022c03ffffffff0100f2052a01000000434104c91f71ecf763069eae7e41910f0ee1ed35efa50b3f5dc45188f7f9a67b967dd6d879b3fbce90af3ba120520ba9457a43cceaba0e8f36bb4579d7067c8825fe50ac00000000"
    }
  ]
}