{
  "hash": "00000000e2ce26991d2fac07c4600b4881e91819d186aaff6f530ec237725747",
  "confirmations": 47197,
  "height": 5901,
  "version": 1,
  "versionHex": "00000001",
  "merkleroot": "49811b191a4c129a60857ed87f319a4e24dab9c9f1ddad2d0a38b954491149a2",
  "time": 1235844982,
  "mediantime": 1235839933,
  "nonce": 3833416968,
  "bits": "1d00ffff",
  "difficulty": 1,
  "chainwork": "0000000000000000000000000000000000000000000000000000170e170e170e",
  "nTx": 1,
  "previousblockhash": "00000000b81a499a58a1c13ca64f6f2bd072bab8146e3067b29dcc1eab71e926",
  "nextblockhash": "0000000018f13df791e8023b7a51fe22d06a7b9be18723e52431d4795231c816",
  "strippedsize": 216,
  "size": 216,
  "weight": 864,
  "tx": [
    {
      "txid": "49811b191a4c129a60857ed87f319a4e24dab9c9f1ddad2d0a38b954491149a2",
      "hash": "49811b191a4c129a60857ed87f319a4e24dab9c9f1ddad2d0a38b954491149a2",
      "version": 1,
      "size": 135,
      "vsize": 135,
      "weight": 540,
      "locktime": 0,
      "vin": [
        {
          "coinbase": "04ffff001d020703",
          "sequence": 4294967295
        }
      ],
      "vout": [
        {
          "value": 50.0,
          "n": 0,
          "scriptPubKey": {
            "asm": "04b0738d89215ac94bd7e0df576de0c743307c035565abad6cfa3738815deca0a3a311acda62a1538ad414db787c05963f7e97518cb61e152a82f13a9565132395 OP_CHECKSIG",
            "desc": "pk(04b0738d89215ac94bd7e0df576de0c743307c035565abad6cfa3738815deca0a3a311acda62a1538ad414db787c05963f7e97518cb61e152a82f13a9565132395)#0zx5pat3",
            "hex": "4104b0738d89215ac94bd7e0df576de0c743307c035565abad6cfa3738815deca0a3a311acda62a1538ad414db787c05963f7e97518cb61e152a82f13a9565132395ac",
            "type": "pubkey"
          }
        }
      ],
      "hex": "01000000010000000000000000000000000000000000000000000000000000000000000000ffffffff0804ffff001d020703ffffffff0100f2052a01000000434104b0738d89215ac94bd7e0df576de0c743307c035565abad6cfa3738815deca0a3a311acda62a1538ad414db787c05963f7e97518cb61e152a82f13a9565132395ac00000000"
    }
  ]
}