{
  "hash": "000000005ed1735c348257670a302cde2d55b5bdeed2ebdc25626f238c736da3",
  "confirmations": 47960,
  "height": 5138,
  "version": 1,
  "versionHex": "00000001",
  "merkleroot": "756d99e707126a8603e597fc268bf836eba55ca830c0b47ce6cc7689cb6ad304",
  "time": 1235243626,
  "mediantime": 1235238929,
  "nonce": 2818386971,
  "bits": "1d00ffff",
  "difficulty": 1,
  "chainwork": "0000000000000000000000000000000000000000000000000000141314131413",
  "nTx": 1,
  "previousblockhash": "000000009d2fd5533a9775da3723e39226b9658e7f373e41aef7755530ac3f57",
  "nextblockhash": "0000000068f26c789cb331f30ed797beb8a54e5cdb6d47b90b46351c2b1fde09",
  "strippedsize": 216,
  "size": 216,
  "weight": 864,
  "tx": [
    {
      "txid": "756d99e707126a8603e597fc268bf836eba55ca830c0b47ce6cc7689cb6ad304",
      "hash": "756d99e707126a8603e597fc268bf836eba55ca830c0b47ce6cc7689cb6ad304",
      "version": 1,
      "size": 135,
      "vsize": 135,
      "weight": 540,
      "locktime": 0,
      "vin": [
        {
          "coinbase": "04ffff001d02b409",
          "sequence": 4294967295
        }
      ],
      "vout": [
        {
          "value": 50.0,
          "n": 0,
          "scriptPubKey": {
            "asm": "042c737bd0cfc45df4d355121c4ecb3c2f7f2eff51eff12d5c7a47e7035c275570c20b7ace3c81070b1a63eae6b203a68e261ea11f13fa1049c313f297bd336fd5 OP_CHECKSIG",
            "desc": "pk(042c737bd0cfc45df4d355121c4ecb3c2f7f2eff51eff12d5c7a47e7035c275570c20b7ace3c81070b1a63eae6b203a68e261ea11f13fa1049c313f297bd336fd5)#ppst0ave",
            "hex": "41042c737bd0cfc45df4d355121c4ecb3c2f7f2eff51eff12d5c7a47e7035c275570c20b7ace3c81070b1a63eae6b203a68e261ea11f13fa1049c313f297bd336fd5ac",
            "type": "pubkey"
          }
        }
      ],
      "hex": "01000000010000000000000000000000000000000000000000000000000000000000000000ffffffff0804ffff001d02b409ffffffff0100f2052a010000004341042c737bd0cfc45df4d355121c4ecb3c2f7f2eff51eff12d5c7a47e7035c275570c20b7ace3c81070b1a63eae6b203a68e261ea11f13fa1049c313f297bd336fd5ac00000000"
    }
  ]
}