{
  "hash": "00000000b7a2deae3c85fdf5944465bedb6fc297885142cb7e45da9c1ba25305",
  "confirmations": 45548,
  "height": 7550,
  "version": 1,
  "versionHex": "00000001",
  "merkleroot": "609cfe0a38c710450c5527a0293ec67b694429ebbc886fa96a861300adabc081",
  "time": 1237136575,
  "mediantime": 1237132840,
  "nonce": 1427048493,
  "bits": "1d00ffff",
  "difficulty": 1,
  "chainwork": "00000000000000000000000000000000000000000000000000001d7f1d7f1d7f",
  "nTx": 1,
  "previousblockhash": "0000000057842005e176a8bef2bd36adcf8429afd370194d23736d192467ba0f",
  "nextblockhash": "00000000c677e4258af4556188dfa5f1a49339bf380a29ca473428a1d957d934",
  "strippedsize": 216,
  "size": 216,
  "weight": 864,
  "tx": [
    {
      "txid": "609cfe0a38c710450c5527a0293ec67b694429ebbc886fa96a861300adabc081",
      "hash": "609cfe0a38c710450c5527a0293ec67b694429ebbc886fa96a861300adabc081",
      "version": 1,
      "size": 135,
      "vsize": 135,
      "weight": 540,
      "locktime": 0,
      "vin": [
        {
          "coinbase": "04ffff001d02ed01",
          "sequence": 4294967295
        }
      ],
      "vout": [
        {
          "value": 50.0,
          "n": 0,
          "scriptPubKey": {
            "asm": "0421922ac37d43f6abd168d176975a09da6bb9734d4fe0e72e3afca0b3f38c2d414055908c6106c848519985e33a804f2f0a49bbc34525d17bda0fe7f13133b4a8 OP_CHECKSIG",
            "desc": "pk(0421922ac37d43f6abd168d176975a09da6bb9734d4fe0e72e3afca0b3f38c2d414055908c6106c848519985e33a804f2f0a49bbc34525d17bda0fe7f13133b4a8)#w6n9wjrj",
            "hex": "410421922ac37d43f6abd168d176975a09da6bb9734d4fe0e72e3afca0b3f38c2d414055908c6106c848519985e33a804f2f0a49bbc34525d17bda0fe7f13133b4a8ac",
            "type": "pubkey"
          }
        }
      ],
      "hex": "01000000010000000000000000000000000000000000000000000000000000000000000000ffffffff0804ffff001d02ed01ffffffff0100f2052a0100000043410421922ac37d43f6abd168d176975a09da6bb9734d4fe0e72e3afca0b3f38c2d414055908c6106c848519985e33a804f2f0a49bbc34525d17bda0fe7f13133b4a8ac00000000"
    }
  ]
}