{
  "hash": "0000000013232867033d0db619d6c288c41e7d32b2e70987d30c38e34c697f47",
  "confirmations": 44132,
  "height": 8966,
  "version": 1,
  "versionHex": "00000001",
  "merkleroot": "d6ebac24bdb7e70e107d76c1eee88f290b1fdee37fb6f17bceb30a2bdbcc1fcf",
  "time": 1238229581,
  "mediantime": 1238225332,
  "nonce": 1055792421,
  "bits": "1d00ffff",
  "difficulty": 1,
  "chainwork": "0000000000000000000000000000000000000000000000000000230723072307",
  "nTx": 1,
  "previousblockhash": "00000000f4851af7a696729b89e37e09b6939e7cc99614963959a5a51e69de20",
  "nextblockhash": "00000000084a07181b6d3471b4e18d53e9790b83d30c9128eeec862b19271404",
  "strippedsize": 216,
  "size": 216,
  "weight": 864,
  "tx": [
    {
      "txid": "d6ebac24bdb7e70e107d76c1eee88f290b1fdee37fb6f17bceb30a2bdbcc1fcf",
      "hash": "d6ebac24bdb7e70e107d76c1eee88f290b1fdee37fb6f17bceb30a2bdbcc1fcf",
      "version": 1,
      "size": 135,
      "vsize": 135,
      "weight": 540,
      "locktime": 0,
      "vin": [
        {
          "coinbase": "04ffff001d02db05",
          "sequence": 4294967295
        }
      ],
      "vout": [
        {
          "value": 50.0,
          "n": 0,
          "scriptPubKey": {
            "asm": "04e7c860b49147aaf43662dc837f7882a2b5e23b1b29c00912416cb4ed8990c7a1f0a910a39551b434ab6759916647fe3ce376eabced7b81b895c46751bb2542dc OP_CHECKSIG",
            "desc": "pk(04e7c860b49147aaf43662dc837f7882a2b5e23b1b29c00912416cb4ed8990c7a1f0a910a39551b434ab6759916647fe3ce376eabced7b81b895c46751bb2542dc)#tcdphq7y",
            "hex": "4104e7c860b49147aaf43662dc837f7882a2b5e23b1b29c00912416cb4ed8990c7a1f0a910a39551b434ab6759916647fe3ce376eabced7b81b895c46751bb2542dcac",
            "type": "pubkey"
          }
        }
      ],
      "hex": "01000000010000000000000000000000000000000000000000000000000000000000000000ffffffff0804ffff001d02db05ffffffff0100f2052a01000000434104e7c860b49147aaf43662dc837f7882a2b5e23b1b29c00912416cb4ed8990c7a1f0a910a39551b434ab6759916647fe3ce376eabced7b81b895c46751bb2542dcac00000000"
    }
  ]
}