{
  "hash": "00000000afc0a13b32bad499a6447b5e5269e0e075220d286004effbadae62d6",
  "confirmations": 47345,
  "height": 5753,
  "version": 1,
  "versionHex": "00000001",
  "merkleroot": "4ce4058b7ff5b7f6ffd56777b807a9b2f3860081f83c60e0a88c050e9c3f2711",
  "time": 1235726136,
  "mediantime": 1235721203,
  "nonce": 92212859,
  "bits": "1d00ffff",
  "difficulty": 1,
  "chainwork": "0000000000000000000000000000000000000000000000000000167a167a167a",
  "nTx": 1,
  "previousblockhash": "00000000b780134d08081da0e2afb34485a0c2c19196715b65539092a8d5a555",
  "nextblockhash": "0000000059734cc49793a3ccb9b5dbf6a213db50b84537d7493c79c0150bcaaa",
  "strippedsize": 216,
  "size": 216,
  "weight": 864,
  "tx": [
    {
      "txid": "4ce4058b7ff5b7f6ffd56777b807a9b2f3860081f83c60e0a88c050e9c3f2711",
      "hash": "4ce4058b7ff5b7f6ffd56777b807a9b2f3860081f83c60e0a88c050e9c3f2711",
      "version": 1,
      "size": 135,
      "vsize": 135,
      "weight": 540,
      "locktime": 0,
      "vin": [
        {
          "coinbase": "04ffff001d029b00",
          "sequence": 4294967295
        }
      ],
      "vout": [
        {
          "value": 50.0,
          "n": 0,
          "scriptPubKey": {
            "asm": "04e2c42833cc834344665249180bef541d43e328d152579e47bb86186836b163be3a12c22be669c039d1b03d92c5b1e93f9b65caecd71c463ca36246f8d53dc05e OP_CHECKSIG",
            "desc": "pk(04e2c42833cc834344665249180bef541d43e328d152579e47bb86186836b163be3a12c22be669c039d1b03d92c5b1e93f9b65caecd71c463ca36246f8d53dc05e)#xxcu7rln",
            "hex": "4104e2c42833cc834344665249180bef541d43e328d152579e47bb86186836b163be3a12c22be669c039d1b03d92c5b1e93f9b65caecd71c463ca36246f8d53dc05eac",
            "type": "pubkey"
          }
        }
      ],
      "hex": "01000000010000000000000000000000000000000000000000000000000000000000000000ffffffff0804ffff001d029b00ffffffff0100f2052a01000000434104e2c42833cc834344665249180bef541d43e328d152579e47bb86186836b163be3a12c22be669c039d1b03d92c5b1e93f9b65caecd71c463ca36246f8d53dc05eac00000000"
    }
  ]
}