{
  "hash": "000000006950a126ea4be46f40412a2c40c580d075cbc57653fef2167aa5d295",
  "confirmations": 47319,
  "height": 5779,
  "version": 1,
  "versionHex": "00000001",
  "merkleroot": "39b9393b57cb97c6cc7cd3bbdae714d09a96fcb4fa9fb92fe8ffd6e2081c3fda",
  "time": 1235743433,
  "mediantime": 1235740137,
  "nonce": 2407043848,
  "bits": "1d00ffff",
  "difficulty": 1,
  "chainwork": "0000000000000000000000000000000000000000000000000000169416941694",
  "nTx": 1,
  "previousblockhash": "00000000a9b50f6d9227a6b68dd7cf918316330ce775439992777c148bab00c3",
  "nextblockhash": "0000000012650c830b5f7274c1161ac090ab727a457fd25dbe436137ced84363",
  "strippedsize": 215,
  "size": 215,
  "weight": 860,
  "tx": [
    {
      "txid": "39b9393b57cb97c6cc7cd3bbdae714d09a96fcb4fa9fb92fe8ffd6e2081c3fda",
      "hash": "39b9393b57cb97c6cc7cd3bbdae714d09a96fcb4fa9fb92fe8ffd6e2081c3fda",
      "version": 1,
      "size": 134,
      "vsize": 134,
      "weight": 536,
      "locktime": 0,
      "vin": [
        {
          "coinbase": "04ffff001d0176",
          "sequence": 4294967295
        }
      ],
      "vout": [
        {
          "value": 50.0,
          "n": 0,
          "scriptPubKey": {
            "asm": "04c8808d044bc43f17bc8b1a0c332b082029d6e059d12f30b91df9dc844fc6651ad1527e0551b7fceaac302714e63de5677d7427344b958885373a0d82899054c5 OP_CHECKSIG",
            "desc": "pk(04c8808d044bc43f17bc8b1a0c332b082029d6e059d12f30b91df9dc844fc6651ad1527e0551b7fceaac302714e63de5677d7427344b958885373a0d82899054c5)#ag3wv7d0",
            "hex": "4104c8808d044bc43f17bc8b1a0c332b082029d6e059d12f30b91df9dc844fc6651ad1527e0551b7fceaac302714e63de5677d7427344b958885373a0d82899054c5ac",
            "type": "pubkey"
          }
        }
      ],
      "hex": "01000000010000000000000000000000000000000000000000000000000000000000000000ffffffff0704ffff001d0176ffffffff0100f2052a01000000434104c8808d044bc43f17bc8b1a0c332b082029d6e059d12f30b91df9dc844fc6651ad1527e0551b7fceaac302714e63de5677d7427344b958885373a0d82899054c5ac00000000"
    }
  ]
}