{
  "hash": "00000000095b6db047791627424c582acfd3f344767b80d6138fecc4f6d844b1",
  "confirmations": 46310,
  "height": 6788,
  "version": 1,
  "versionHex": "00000001",
  "merkleroot": "f8002993c374cfb652e498c86a424b6e5403280c3f2a05742754e62cfffb27fb",
  "time": 1236550481,
  "mediantime": 1236547622,
  "nonce": 2726810140,
  "bits": "1d00ffff",
  "difficulty": 1,
  "chainwork": "00000000000000000000000000000000000000000000000000001a851a851a85",
  "nTx": 1,
  "previousblockhash": "000000002211ae09d76131041ec98b6834e5ccac370b3ee1b773a571880fd62a",
  "nextblockhash": "0000000036adcbd6314843e3dbba6982acae6d3e44f020ece3130405c84e89f1",
  "strippedsize": 216,
  "size": 216,
  "weight": 864,
  "tx": [
    {
      "txid": "f8002993c374cfb652e498c86a424b6e5403280c3f2a05742754e62cfffb27fb",
      "hash": "f8002993c374cfb652e498c86a424b6e5403280c3f2a05742754e62cfffb27fb",
      "version": 1,
      "size": 135,
      "vsize": 135,
      "weight": 540,
      "locktime": 0,
      "vin": [
        {
          "coinbase": "04ffff001d02af08",
          "sequence": 4294967295
        }
      ],
      "vout": [
        {
          "value": 50.0,
          "n": 0,
          "scriptPubKey": {
            "asm": "04ea15e23ec4e750bfac10e2a36829a4556ef0d7c87279630a53fdf06c392d630e60b9cd39b1d8ff42f69c917832e4523021341eba5b04f3cdca2f591c17be4f36 OP_CHECKSIG",
            "desc": "pk(04ea15e23ec4e750bfac10e2a36829a4556ef0d7c87279630a53fdf06c392d630e60b9cd39b1d8ff42f69c917832e4523021341eba5b04f3cdca2f591c17be4f36)#jxqyrlr4",
            "hex": "4104ea15e23ec4e750bfac10e2a36829a4556ef0d7c87279630a53fdf06c392d630e60b9cd39b1d8ff42f69c917832e4523021341eba5b04f3cdca2f591c17be4f36ac",
            "type": "pubkey"
          }
        }
      ],
      "hex": "01000000010000000000000000000000000000000000000000000000000000000000000000ffffffff0804ffff001d02af08ffffffff0100f2052a01000000434104ea15e23ec4e750bfac10e2a36829a4556ef0d7c87279630a53fdf06c392d630e60b9cd39b1d8ff42f69c917832e4523021341eba5b04f3cdca2f591c17be4f36ac00000000"
    }
  ]
}