{
  "hash": "00000000ede8472749e1543f0ec5d385a38547357c8db6255eb856b28edda4b3",
  "confirmations": 45586,
  "height": 7512,
  "version": 1,
  "versionHex": "00000001",
  "merkleroot": "3ae4f9d10630c5d770d6d36f7731954f9a0420aa48b19b18fd2089a9e38aefb7",
  "time": 1237105265,
  "mediantime": 1237101895,
  "nonce": 84504108,
  "bits": "1d00ffff",
  "difficulty": 1,
  "chainwork": "00000000000000000000000000000000000000000000000000001d591d591d59",
  "nTx": 1,
  "previousblockhash": "0000000032a6ffaf18cdc019bdab40aea1ef3c05a9122abfd6015d48f38af2fe",
  "nextblockhash": "00000000c1c4b4f6b017224e8c0592225036327896d9c08f7ec90cc68d034e6d",
  "strippedsize": 216,
  "size": 216,
  "weight": 864,
  "tx": [
    {
      "txid": "3ae4f9d10630c5d770d6d36f7731954f9a0420aa48b19b18fd2089a9e38aefb7",
      "hash": "3ae4f9d10630c5d770d6d36f7731954f9a0420aa48b19b18fd2089a9e38aefb7",
      "version": 1,
      "size": 135,
      "vsize": 135,
      "weight": 540,
      "locktime": 0,
      "vin": [
        {
          "coinbase": "04ffff001d022701",
          "sequence": 4294967295
        }
      ],
      "vout": [
        {
          "value": 50.0,
          "n": 0,
          "scriptPubKey": {
            "asm": "04e845def04f785979ac6152661f940db45d76ba9052b2f397adf7d24247b2badb3138749be197bf89494c62535151c2500dbac8a8acda9f61e5ac196c65a39c01 OP_CHECKSIG",
            "desc": "pk(04e845def04f785979ac6152661f940db45d76ba9052b2f397adf7d24247b2badb3138749be197bf89494c62535151c2500dbac8a8acda9f61e5ac196c65a39c01)#hekah52n",
            "hex": "4104e845def04f785979ac6152661f940db45d76ba9052b2f397adf7d24247b2badb3138749be197bf89494c62535151c2500dbac8a8acda9f61e5ac196c65a39c01ac",
            "type": "pubkey"
          }
        }
      ],
      "hex": "01000000010000000000000000000000000000000000000000000000000000000000000000ffffffff0804ffff001d022701ffffffff0100f2052a01000000434104e845def04f785979ac6152661f940db45d76ba9052b2f397adf7d24247b2badb3138749be197bf89494c62535151c2500dbac8a8acda9f61e5ac196c65a39c01ac00000000"
    }
  ]
}