{
  "hash": "000000009b21280e899a42b1858cd2305835d548926eb7840653e040a536daf4",
  "confirmations": 51592,
  "height": 1506,
  "version": 1,
  "versionHex": "00000001",
  "merkleroot": "e4c88e32b40b3037e2f56c5be84d323df0496a5d297d8fef1f78328015f23ae4",
  "time": 1232771110,
  "mediantime": 1232768255,
  "nonce": 2533782316,
  "bits": "1d00ffff",
  "difficulty": 1,
  "chainwork": "000000000000000000000000000000000000000000000000000005e305e305e3",
  "nTx": 1,
  "previousblockhash": "00000000477a98f1bd6fe9c20c9a838564d58ae3ce92346b42f771d44a52abc2",
  "nextblockhash": "000000007e1ac8ccd506621e0bff04bc0af3c3aa16b5be64084eb23779c1d166",
  "strippedsize": 216,
  "size": 216,
  "weight": 864,
  "tx": [
    {
      "txid": "e4c88e32b40b3037e2f56c5be84d323df0496a5d297d8fef1f78328015f23ae4",
      "hash": "e4c88e32b40b3037e2f56c5be84d323df0496a5d297d8fef1f78328015f23ae4",
      "version": 1,
      "size": 135,
      "vsize": 135,
      "weight": 540,
      "locktime": 0,
      "vin": [
        {
          "coinbase": "04ffff001d023701",
          "sequence": 4294967295
        }
      ],
      "vout": [
        {
          "value": 50.0,
          "n": 0,
          "scriptPubKey": {
            "asm": "0427babac93480e3463db2f9033a119a42b70d4eaba1a14c8748fb39a227a30ddafc805e7c718dbaac6e2de0f55802f00fd6fcd0d331924454a887230d78e23fce OP_CHECKSIG",
            "desc": "pk(0427babac93480e3463db2f9033a119a42b70d4eaba1a14c8748fb39a227a30ddafc805e7c718dbaac6e2de0f55802f00fd6fcd0d331924454a887230d78e23fce)#0l9d6rre",
            "hex": "410427babac93480e3463db2f9033a119a42b70d4eaba1a14c8748fb39a227a30ddafc805e7c718dbaac6e2de0f55802f00fd6fcd0d331924454a887230d78e23fceac",
            "type": "pubkey"
          }
        }
      ],
      "hex": "01000000010000000000000000000000000000000000000000000000000000000000000000ffffffff0804ffff001d023701ffffffff0100f2052a0100000043410427babac93480e3463db2f9033a119a42b70d4eaba1a14c8748fb39a227a30ddafc805e7c718dbaac6e2de0f55802f00fd6fcd0d331924454a887230d78e23fceac00000000"
    }
  ]
}