{
  "hash": "00000000444d2a7b22babe14afa6a1e7c060ae694615819470cffa78a27b5351",
  "confirmations": 49229,
  "height": 3869,
  "version": 1,
  "versionHex": "00000001",
  "merkleroot": "47b3fb7e2f61432d765c6a97f24a8d2115cc3b6a42222dbdc9e6977201c9f113",
  "time": 1234344997,
  "mediantime": 1234341465,
  "nonce": 83894250,
  "bits": "1d00ffff",
  "difficulty": 1,
  "chainwork": "00000000000000000000000000000000000000000000000000000f1e0f1e0f1e",
  "nTx": 1,
  "previousblockhash": "00000000b5b7eaec257e1ae28bb931db5b14c1578def1bb3cbd74c5ebf8ad1f1",
  "nextblockhash": "000000003c6f8e2b095ffd02010241ded9ef7b798e376dcf55929ea658936b10",
  "strippedsize": 216,
  "size": 216,
  "weight": 864,
  "tx": [
    {
      "txid": "47b3fb7e2f61432d765c6a97f24a8d2115cc3b6a42222dbdc9e6977201c9f113",
      "hash": "47b3fb7e2f61432d765c6a97f24a8d2115cc3b6a42222dbdc9e6977201c9f113",
      "version": 1,
      "size": 135,
      "vsize": 135,
      "weight": 540,
      "locktime": 0,
      "vin": [
        {
          "coinbase": "04ffff001d02b402",
          "sequence": 4294967295
        }
      ],
      "vout": [
        {
          "value": 50.0,
          "n": 0,
          "scriptPubKey": {
            "asm": "04f1bb175486ab0addcafa89e9f405c9b46e59a06b23267bceabeab9edebec18e8de7de034e028f75eb49426840de6c0209e51444de399b495c5d641976d8eaeee OP_CHECKSIG",
            "desc": "pk(04f1bb175486ab0addcafa89e9f405c9b46e59a06b23267bceabeab9edebec18e8de7de034e028f75eb49426840de6c0209e51444de399b495c5d641976d8eaeee)#ypece0lx",
            "hex": "4104f1bb175486ab0addcafa89e9f405c9b46e59a06b23267bceabeab9edebec18e8de7de034e028f75eb49426840de6c0209e51444de399b495c5d641976d8eaeeeac",
            "type": "pubkey"
          }
        }
      ],
      "hex": "01000000010000000000000000000000000000000000000000000000000000000000000000ffffffff0804ffff001d02b402ffffffff0100f2052a01000000434104f1bb175486ab0addcafa89e9f405c9b46e59a06b23267bceabeab9edebec18e8de7de034e028f75eb49426840de6c0209e51444de399b495c5d641976d8eaeeeac00000000"
    }
  ]
}