{
  "hash": "00000000487c1dc00849fd069a73009c4f1086c153585b40a30d925ad705cdb8",
  "confirmations": 46017,
  "height": 7081,
  "version": 1,
  "versionHex": "00000001",
  "merkleroot": "8e18dee72bd82fb08ca5cb655e5b781fbd837b04caafbcc408b28d4b3804252e",
  "time": 1236780894,
  "mediantime": 1236776299,
  "nonce": 964338953,
  "bits": "1d00ffff",
  "difficulty": 1,
  "chainwork": "00000000000000000000000000000000000000000000000000001baa1baa1baa",
  "nTx": 1,
  "previousblockhash": "00000000db8341a7a6e4917f8b1f53153c4a6138334bb15fccffb841e02cbbe0",
  "nextblockhash": "00000000e01c1272124aaaaa8c9ea3d16e16d8f7f0bc7300326da5c21311bed5",
  "strippedsize": 216,
  "size": 216,
  "weight": 864,
  "tx": [
    {
      "txid": "8e18dee72bd82fb08ca5cb655e5b781fbd837b04caafbcc408b28d4b3804252e",
      "hash": "8e18dee72bd82fb08ca5cb655e5b781fbd837b04caafbcc408b28d4b3804252e",
      "version": 1,
      "size": 135,
      "vsize": 135,
      "weight": 540,
      "locktime": 0,
      "vin": [
        {
          "coinbase": "04ffff001d02b003",
          "sequence": 4294967295
        }
      ],
      "vout": [
        {
          "value": 50.0,
          "n": 0,
          "scriptPubKey": {
            "asm": "041814661a61700bf171020ede594bbc69802ed9d8a49c8127c7feb25c82c58ff3b72caa8c9ca2f6867914b33e4a1fb292e9d1215f3c51aa343062b5e452e991a2 OP_CHECKSIG",
            "desc": "pk(041814661a61700bf171020ede594bbc69802ed9d8a49c8127c7feb25c82c58ff3b72caa8c9ca2f6867914b33e4a1fb292e9d1215f3c51aa343062b5e452e991a2)#rk7egnvg",
            "hex": "41041814661a61700bf171020ede594bbc69802ed9d8a49c8127c7feb25c82c58ff3b72caa8c9ca2f6867914b33e4a1fb292e9d1215f3c51aa343062b5e452e991a2ac",
            "type": "pubkey"
          }
        }
      ],
      "hex": "01000000010000000000000000000000000000000000000000000000000000000000000000ffffffff0804ffff001d02b003ffffffff0100f2052a010000004341041814661a61700bf171020ede594bbc69802ed9d8a49c8127c7feb25c82c58ff3b72caa8c9ca2f6867914b33e4a1fb292e9d1215f3c51aa343062b5e452e991a2ac00000000"
    }
  ]
}