{
  "hash": "000000008c9c8237506968afb5fdd89a970bb2a3a149b6234293e054f6c6ef52",
  "confirmations": 52207,
  "height": 891,
  "version": 1,
  "versionHex": "00000001",
  "merkleroot": "9df40b6a26118df069659ba9df132c3171dbbd3cfe88718e859644ec75804c35",
  "time": 1232267105,
  "mediantime": 1232262719,
  "nonce": 2306689056,
  "bits": "1d00ffff",
  "difficulty": 1,
  "chainwork": "0000000000000000000000000000000000000000000000000000037c037c037c",
  "nTx": 1,
  "previousblockhash": "00000000b6a6c5d987b928a698cdf797baa7e2c1e8d4be0421f704bbc0fde5a5",
  "nextblockhash": "0000000063111563901347f960324f320cfa61eb98beb60185a640068ac87f77",
  "strippedsize": 216,
  "size": 216,
  "weight": 864,
  "tx": [
    {
      "txid": "9df40b6a26118df069659ba9df132c3171dbbd3cfe88718e859644ec75804c35",
      "hash": "9df40b6a26118df069659ba9df132c3171dbbd3cfe88718e859644ec75804c35",
      "version": 1,
      "size": 135,
      "vsize": 135,
      "weight": 540,
      "locktime": 0,
      "vin": [
        {
          "coinbase": "04ffff001d027a03",
          "sequence": 4294967295
        }
      ],
      "vout": [
        {
          "value": 50.0,
          "n": 0,
          "scriptPubKey": {
            "asm": "0407f257cb455ad0bd403f8ad2127b46c69bc130b7436706289ff0fda38f9bea891020680dfe6168c49c5475994f99d20d2e6ffddf7799d8846f637a8c72adec1b OP_CHECKSIG",
            "desc": "pk(0407f257cb455ad0bd403f8ad2127b46c69bc130b7436706289ff0fda38f9bea891020680dfe6168c49c5475994f99d20d2e6ffddf7799d8846f637a8c72adec1b)#f4vy8npd",
            "hex": "410407f257cb455ad0bd403f8ad2127b46c69bc130b7436706289ff0fda38f9bea891020680dfe6168c49c5475994f99d20d2e6ffddf7799d8846f637a8c72adec1bac",
            "type": "pubkey"
          }
        }
      ],
      "hex": "01000000010000000000000000000000000000000000000000000000000000000000000000ffffffff0804ffff001d027a03ffffffff0100f2052a0100000043410407f257cb455ad0bd403f8ad2127b46c69bc130b7436706289ff0fda38f9bea891020680dfe6168c49c5475994f99d20d2e6ffddf7799d8846f637a8c72adec1bac00000000"
    }
  ]
}