{
  "hash": "00000000b310aa0dbb70363ae1410d92575d8eaddc91a581391e357ed50b2e42",
  "confirmations": 50236,
  "height": 2862,
  "version": 1,
  "versionHex": "00000001",
  "merkleroot": "fff87f6f9fa73231c8aac626d452750fcd8c6a813bf21252ae3302de432ad5aa",
  "time": 1233666084,
  "mediantime": 1233661964,
  "nonce": 22606621,
  "bits": "1d00ffff",
  "difficulty": 1,
  "chainwork": "00000000000000000000000000000000000000000000000000000b2f0b2f0b2f",
  "nTx": 1,
  "previousblockhash": "00000000ec36c8bedef9062c8ede8ce0141f364dad2204f1d88a63ba94809288",
  "nextblockhash": "000000007c9a0b63a06defb999a89e020ec34c3b6374f042fdf6b3c3e51d13a0",
  "strippedsize": 216,
  "size": 216,
  "weight": 864,
  "tx": [
    {
      "txid": "fff87f6f9fa73231c8aac626d452750fcd8c6a813bf21252ae3302de432ad5aa",
      "hash": "fff87f6f9fa73231c8aac626d452750fcd8c6a813bf21252ae3302de432ad5aa",
      "version": 1,
      "size": 135,
      "vsize": 135,
      "weight": 540,
      "locktime": 0,
      "vin": [
        {
          "coinbase": "04ffff001d026f01",
          "sequence": 4294967295
        }
      ],
      "vout": [
        {
          "value": 50.0,
          "n": 0,
          "scriptPubKey": {
            "asm": "041bdf93da7e470694d3605b2c22e82b2f5810e0815186406ceaa48a14162456ab5b8525a43ca93453dfdc0e9049a667764a51392e2ab5cec72a3bf0a697b1a93c OP_CHECKSIG",
            "desc": "pk(041bdf93da7e470694d3605b2c22e82b2f5810e0815186406ceaa48a14162456ab5b8525a43ca93453dfdc0e9049a667764a51392e2ab5cec72a3bf0a697b1a93c)#xmv4r35l",
            "hex": "41041bdf93da7e470694d3605b2c22e82b2f5810e0815186406ceaa48a14162456ab5b8525a43ca93453dfdc0e9049a667764a51392e2ab5cec72a3bf0a697b1a93cac",
            "type": "pubkey"
          }
        }
      ],
      "hex": "01000000010000000000000000000000000000000000000000000000000000000000000000ffffffff0804ffff001d026f01ffffffff0100f2052a010000004341041bdf93da7e470694d3605b2c22e82b2f5810e0815186406ceaa48a14162456ab5b8525a43ca93453dfdc0e9049a667764a51392e2ab5cec72a3bf0a697b1a93cac00000000"
    }
  ]
}