{
  "hash": "00000000f512066d0e3b2d3599420092efd44976a82cbf4d335beb947031e891",
  "confirmations": 51341,
  "height": 1757,
  "version": 1,
  "versionHex": "00000001",
  "merkleroot": "9a4897038d4bc10f7a941c889feee6be555b551a21b31e4a31a960e06e359dd1",
  "time": 1232877629,
  "mediantime": 1232875621,
  "nonce": 2677773368,
  "bits": "1d00ffff",
  "difficulty": 1,
  "chainwork": "000000000000000000000000000000000000000000000000000006de06de06de",
  "nTx": 1,
  "previousblockhash": "000000005ba792c43083919a3352d96da39563de6553a660b929071f90eff728",
  "nextblockhash": "00000000fe47c494b4ff5393c885888f6e1b134c09ab42e06d40bc795d9d9ed6",
  "strippedsize": 216,
  "size": 216,
  "weight": 864,
  "tx": [
    {
      "txid": "9a4897038d4bc10f7a941c889feee6be555b551a21b31e4a31a960e06e359dd1",
      "hash": "9a4897038d4bc10f7a941c889feee6be555b551a21b31e4a31a960e06e359dd1",
      "version": 1,
      "size": 135,
      "vsize": 135,
      "weight": 540,
      "locktime": 0,
      "vin": [
        {
          "coinbase": "04ffff001d02b403",
          "sequence": 4294967295
        }
      ],
      "vout": [
        {
          "value": 50.0,
          "n": 0,
          "scriptPubKey": {
            "asm": "04b0354f05b6153df8c4eeb6663f4826a7e5bb257f35af16127fc0411c832fca946a1b4dee75fc92c51c107f371b53716b82da5ca7094bfa7875e545722f811999 OP_CHECKSIG",
            "desc": "pk(04b0354f05b6153df8c4eeb6663f4826a7e5bb257f35af16127fc0411c832fca946a1b4dee75fc92c51c107f371b53716b82da5ca7094bfa7875e545722f811999)#urfwa4pt",
            "hex": "4104b0354f05b6153df8c4eeb6663f4826a7e5bb257f35af16127fc0411c832fca946a1b4dee75fc92c51c107f371b53716b82da5ca7094bfa7875e545722f811999ac",
            "type": "pubkey"
          }
        }
      ],
      "hex": "01000000010000000000000000000000000000000000000000000000000000000000000000ffffffff0804ffff001d02b403ffffffff0100f2052a01000000434104b0354f05b6153df8c4eeb6663f4826a7e5bb257f35af16127fc0411c832fca946a1b4dee75fc92c51c107f371b53716b82da5ca7094bfa7875e545722f811999ac00000000"
    }
  ]
}