{
  "hash": "00000000cfa68f53aa8ff725be603f359dff13e3849fc6ec84bc92dde2fd3232",
  "confirmations": 48343,
  "height": 4755,
  "version": 1,
  "versionHex": "00000001",
  "merkleroot": "b49533c4d9b946054d937f0b462087ecbd9acdec8a98ade3c72b63a73c18ea18",
  "time": 1234966937,
  "mediantime": 1234963501,
  "nonce": 3053711651,
  "bits": "1d00ffff",
  "difficulty": 1,
  "chainwork": "0000000000000000000000000000000000000000000000000000129412941294",
  "nTx": 1,
  "previousblockhash": "00000000173774686b3dd817865084b11eec3f6c29a490c4dda13f3ff05c8a5b",
  "nextblockhash": "00000000f7d6eac50de0ec710620edbe20c462cbb2a4fa2f170c8a28909bf0ac",
  "strippedsize": 216,
  "size": 216,
  "weight": 864,
  "tx": [
    {
      "txid": "b49533c4d9b946054d937f0b462087ecbd9acdec8a98ade3c72b63a73c18ea18",
      "hash": "b49533c4d9b946054d937f0b462087ecbd9acdec8a98ade3c72b63a73c18ea18",
      "version": 1,
      "size": 135,
      "vsize": 135,
      "weight": 540,
      "locktime": 0,
      "vin": [
        {
          "coinbase": "04ffff001d025b03",
          "sequence": 4294967295
        }
      ],
      "vout": [
        {
          "value": 50.0,
          "n": 0,
          "scriptPubKey": {
            "asm": "04383de0edf67e8dfecf15ff6ac33c03d8842fec382376539a0f4bdf16f2eccad123f8ac8069903542b8d06992fa1e6224c36323b255bba9dfd8c68dd76bcd2a2b OP_CHECKSIG",
            "desc": "pk(04383de0edf67e8dfecf15ff6ac33c03d8842fec382376539a0f4bdf16f2eccad123f8ac8069903542b8d06992fa1e6224c36323b255bba9dfd8c68dd76bcd2a2b)#tyhnzqry",
            "hex": "4104383de0edf67e8dfecf15ff6ac33c03d8842fec382376539a0f4bdf16f2eccad123f8ac8069903542b8d06992fa1e6224c36323b255bba9dfd8c68dd76bcd2a2bac",
            "type": "pubkey"
          }
        }
      ],
      "hex": "01000000010000000000000000000000000000000000000000000000000000000000000000ffffffff0804ffff001d025b03ffffffff0100f2052a01000000434104383de0edf67e8dfecf15ff6ac33c03d8842fec382376539a0f4bdf16f2eccad123f8ac8069903542b8d06992fa1e6224c36323b255bba9dfd8c68dd76bcd2a2bac00000000"
    }
  ]
}