{
  "hash": "0000000045174a571d0d57c1ebfb23d1bb03bdacfce99448cfa5a528cbe4c324",
  "confirmations": 47079,
  "height": 6019,
  "version": 1,
  "versionHex": "00000001",
  "merkleroot": "f77a6ae2e5c96861f1214aa42bf7d4b9d18db67a5cfccde9eb7f914b7c4eb62a",
  "time": 1235943012,
  "mediantime": 1235937810,
  "nonce": 3821126675,
  "bits": "1d00ffff",
  "difficulty": 1,
  "chainwork": "0000000000000000000000000000000000000000000000000000178417841784",
  "nTx": 1,
  "previousblockhash": "000000009ff42c9f4ae2390e49d20a2bd1db3194df1a7827448ea1dce2b3736c",
  "nextblockhash": "000000003f013115cee88169bc8eadc95cb705f06290e69504d6a98980d89171",
  "strippedsize": 216,
  "size": 216,
  "weight": 864,
  "tx": [
    {
      "txid": "f77a6ae2e5c96861f1214aa42bf7d4b9d18db67a5cfccde9eb7f914b7c4eb62a",
      "hash": "f77a6ae2e5c96861f1214aa42bf7d4b9d18db67a5cfccde9eb7f914b7c4eb62a",
      "version": 1,
      "size": 135,
      "vsize": 135,
      "weight": 540,
      "locktime": 0,
      "vin": [
        {
          "coinbase": "04ffff001d023e05",
          "sequence": 4294967295
        }
      ],
      "vout": [
        {
          "value": 50.0,
          "n": 0,
          "scriptPubKey": {
            "asm": "0480ff0aaf724b1187da275976478842e8ca8645f35131c7e88c630f6d6efaf5bb0b1f07d54c8c6c7153c11c74b1168d1959fbff32e77938efc0f6e5b9fe7bcf7e OP_CHECKSIG",
            "desc": "pk(0480ff0aaf724b1187da275976478842e8ca8645f35131c7e88c630f6d6efaf5bb0b1f07d54c8c6c7153c11c74b1168d1959fbff32e77938efc0f6e5b9fe7bcf7e)#3z782cqz",
            "hex": "410480ff0aaf724b1187da275976478842e8ca8645f35131c7e88c630f6d6efaf5bb0b1f07d54c8c6c7153c11c74b1168d1959fbff32e77938efc0f6e5b9fe7bcf7eac",
            "type": "pubkey"
          }
        }
      ],
      "hex": "01000000010000000000000000000000000000000000000000000000000000000000000000ffffffff0804ffff001d023e05ffffffff0100f2052a0100000043410480ff0aaf724b1187da275976478842e8ca8645f35131c7e88c630f6d6efaf5bb0b1f07d54c8c6c7153c11c74b1168d1959fbff32e77938efc0f6e5b9fe7bcf7eac00000000"
    }
  ]
}