{
  "hash": "00000000a93d04783fbddeaf8e7961597889ea1674a5ba635ed18d6fc1bc9ed0",
  "confirmations": 48111,
  "height": 4987,
  "version": 1,
  "versionHex": "00000001",
  "merkleroot": "3a39803118b3e96b0551bcac292895d0e814b69e04bc03af0ae82d23629b481f",
  "time": 1235130690,
  "mediantime": 1235128382,
  "nonce": 640922659,
  "bits": "1d00ffff",
  "difficulty": 1,
  "chainwork": "0000000000000000000000000000000000000000000000000000137c137c137c",
  "nTx": 1,
  "previousblockhash": "000000009b2bfcd7a02de567370eb623a301530e64b31fb084dc68a47d3f53cf",
  "nextblockhash": "000000007ca8e0774811e5f1ccfd2492a57b6b4196b1b6a932f6768f4574374b",
  "strippedsize": 216,
  "size": 216,
  "weight": 864,
  "tx": [
    {
      "txid": "3a39803118b3e96b0551bcac292895d0e814b69e04bc03af0ae82d23629b481f",
      "hash": "3a39803118b3e96b0551bcac292895d0e814b69e04bc03af0ae82d23629b481f",
      "version": 1,
      "size": 135,
      "vsize": 135,
      "weight": 540,
      "locktime": 0,
      "vin": [
        {
          "coinbase": "04ffff001d02d706",
          "sequence": 4294967295
        }
      ],
      "vout": [
        {
          "value": 50.0,
          "n": 0,
          "scriptPubKey": {
            "asm": "043fa01254162fc4c3fc059a5663d87c85c00611c15846986923a96f5bdc810a2de1a93908150c1d7d7a5efd45f83c057e6d893be9d283cec3c9453ed7104393be OP_CHECKSIG",
            "desc": "pk(043fa01254162fc4c3fc059a5663d87c85c00611c15846986923a96f5bdc810a2de1a93908150c1d7d7a5efd45f83c057e6d893be9d283cec3c9453ed7104393be)#u62x6rvl",
            "hex": "41043fa01254162fc4c3fc059a5663d87c85c00611c15846986923a96f5bdc810a2de1a93908150c1d7d7a5efd45f83c057e6d893be9d283cec3c9453ed7104393beac",
            "type": "pubkey"
          }
        }
      ],
      "hex": "01000000010000000000000000000000000000000000000000000000000000000000000000ffffffff0804ffff001d02d706ffffffff0100f2052a010000004341043fa01254162fc4c3fc059a5663d87c85c00611c15846986923a96f5bdc810a2de1a93908150c1d7d7a5efd45f83c057e6d893be9d283cec3c9453ed7104393beac00000000"
    }
  ]
}