{
  "hash": "00000000ebb5c787dc062f35b25915e00b89ee2f499767592828c9fdb11c092e",
  "confirmations": 50069,
  "height": 3029,
  "version": 1,
  "versionHex": "00000001",
  "merkleroot": "85e62c80cf30a13f3729803029e0e68e170f2321d7a948eec597c4725014547c",
  "time": 1233781644,
  "mediantime": 1233778857,
  "nonce": 1244760116,
  "bits": "1d00ffff",
  "difficulty": 1,
  "chainwork": "00000000000000000000000000000000000000000000000000000bd60bd60bd6",
  "nTx": 1,
  "previousblockhash": "00000000426241707fe4345ca202d374086142a03f216cf09be6850b4a155692",
  "nextblockhash": "00000000b7b927177c9fadc4a393e12a0b05aa71d66cd8db2ade5e86e6e0fc8a",
  "strippedsize": 216,
  "size": 216,
  "weight": 864,
  "tx": [
    {
      "txid": "85e62c80cf30a13f3729803029e0e68e170f2321d7a948eec597c4725014547c",
      "hash": "85e62c80cf30a13f3729803029e0e68e170f2321d7a948eec597c4725014547c",
      "version": 1,
      "size": 135,
      "vsize": 135,
      "weight": 540,
      "locktime": 0,
      "vin": [
        {
          "coinbase": "04ffff001d02cf01",
          "sequence": 4294967295
        }
      ],
      "vout": [
        {
          "value": 50.0,
          "n": 0,
          "scriptPubKey": {
            "asm": "04c90a1e224f09785371b4c294c5f752560df61ae0feec783998ef1b2290f2c987101e7123c3a7f162ea6bc4294a8f4b5eeb00e9a1abe44cc5e4e2af43093488a5 OP_CHECKSIG",
            "desc": "pk(04c90a1e224f09785371b4c294c5f752560df61ae0feec783998ef1b2290f2c987101e7123c3a7f162ea6bc4294a8f4b5eeb00e9a1abe44cc5e4e2af43093488a5)#gtg8l2vj",
            "hex": "4104c90a1e224f09785371b4c294c5f752560df61ae0feec783998ef1b2290f2c987101e7123c3a7f162ea6bc4294a8f4b5eeb00e9a1abe44cc5e4e2af43093488a5ac",
            "type": "pubkey"
          }
        }
      ],
      "hex": "01000000010000000000000000000000000000000000000000000000000000000000000000ffffffff0804ffff001d02cf01ffffffff0100f2052a01000000434104c90a1e224f09785371b4c294c5f752560df61ae0feec783998ef1b2290f2c987101e7123c3a7f162ea6bc4294a8f4b5eeb00e9a1abe44cc5e4e2af43093488a5ac00000000"
    }
  ]
}