{
  "hash": "00000000a996331c70cb7814d126c01e7bea080a5fe2cf5b63d0cc09d41aa2d6",
  "confirmations": 44324,
  "height": 8774,
  "version": 1,
  "versionHex": "00000001",
  "merkleroot": "1fc9021862c064e9cc3b9c68e06b40bd6f2e7038fbe0fd6712b5e00904bd7a42",
  "time": 1238080223,
  "mediantime": 1238076139,
  "nonce": 3132004131,
  "bits": "1d00ffff",
  "difficulty": 1,
  "chainwork": "0000000000000000000000000000000000000000000000000000224722472247",
  "nTx": 1,
  "previousblockhash": "00000000f4f564d85a8df237bde4f269e57b097a13420a91bc4931d01e15dc46",
  "nextblockhash": "000000002c304a01535a30cf525dec0c3bbfa362f6ed4b097913bc0ff15b55d4",
  "strippedsize": 216,
  "size": 216,
  "weight": 864,
  "tx": [
    {
      "txid": "1fc9021862c064e9cc3b9c68e06b40bd6f2e7038fbe0fd6712b5e00904bd7a42",
      "hash": "1fc9021862c064e9cc3b9c68e06b40bd6f2e7038fbe0fd6712b5e00904bd7a42",
      "version": 1,
      "size": 135,
      "vsize": 135,
      "weight": 540,
      "locktime": 0,
      "vin": [
        {
          "coinbase": "04ffff001d022002",
          "sequence": 4294967295
        }
      ],
      "vout": [
        {
          "value": 50.0,
          "n": 0,
          "scriptPubKey": {
            "asm": "043ec4582aa986942bc5fbc9fbf853e6c4f03a67109d31f020f94084062f0f0a43fb79faec87bf9127c211707896a50f7973bd2c15d6c523637de27f459b4ce6ff OP_CHECKSIG",
            "desc": "pk(043ec4582aa986942bc5fbc9fbf853e6c4f03a67109d31f020f94084062f0f0a43fb79faec87bf9127c211707896a50f7973bd2c15d6c523637de27f459b4ce6ff)#jny7nx0c",
            "hex": "41043ec4582aa986942bc5fbc9fbf853e6c4f03a67109d31f020f94084062f0f0a43fb79faec87bf9127c211707896a50f7973bd2c15d6c523637de27f459b4ce6ffac",
            "type": "pubkey"
          }
        }
      ],
      "hex": "01000000010000000000000000000000000000000000000000000000000000000000000000ffffffff0804ffff001d022002ffffffff0100f2052a010000004341043ec4582aa986942bc5fbc9fbf853e6c4f03a67109d31f020f94084062f0f0a43fb79faec87bf9127c211707896a50f7973bd2c15d6c523637de27f459b4ce6ffac00000000"
    }
  ]
}