{
  "hash": "00000000772c87d06808e98d88a78e03cad08198276062da4face95c6bb16e04",
  "confirmations": 51622,
  "height": 1476,
  "version": 1,
  "versionHex": "00000001",
  "merkleroot": "9732922b80839683e5b0c11bf9d4879ceb9d5bc02cd5e55882e716bedcbd2189",
  "time": 1232757937,
  "mediantime": 1232755796,
  "nonce": 552252416,
  "bits": "1d00ffff",
  "difficulty": 1,
  "chainwork": "000000000000000000000000000000000000000000000000000005c505c505c5",
  "nTx": 1,
  "previousblockhash": "0000000010534ec39cb6ebefeb87faaadeb1e38fe1a170350f1b20402ddb0c5d",
  "nextblockhash": "00000000147af18d29249f5c9eed6c2f38c9f8ab4fe48d0e7b84cc9f411def02",
  "strippedsize": 216,
  "size": 216,
  "weight": 864,
  "tx": [
    {
      "txid": "9732922b80839683e5b0c11bf9d4879ceb9d5bc02cd5e55882e716bedcbd2189",
      "hash": "9732922b80839683e5b0c11bf9d4879ceb9d5bc02cd5e55882e716bedcbd2189",
      "version": 1,
      "size": 135,
      "vsize": 135,
      "weight": 540,
      "locktime": 0,
      "vin": [
        {
          "coinbase": "04ffff001d02ea00",
          "sequence": 4294967295
        }
      ],
      "vout": [
        {
          "value": 50.0,
          "n": 0,
          "scriptPubKey": {
            "asm": "049e0159b9505b2bc97d7f021bb4faf78c2fc39c458400cb63c17a23f0f7b3f0c85d7536d6e7097a72012d21f3ab7076a597ff30357ce162fd055ee855f3e759b6 OP_CHECKSIG",
            "desc": "pk(049e0159b9505b2bc97d7f021bb4faf78c2fc39c458400cb63c17a23f0f7b3f0c85d7536d6e7097a72012d21f3ab7076a597ff30357ce162fd055ee855f3e759b6)#d70l3la7",
            "hex": "41049e0159b9505b2bc97d7f021bb4faf78c2fc39c458400cb63c17a23f0f7b3f0c85d7536d6e7097a72012d21f3ab7076a597ff30357ce162fd055ee855f3e759b6ac",
            "type": "pubkey"
          }
        }
      ],
      "hex": "01000000010000000000000000000000000000000000000000000000000000000000000000ffffffff0804ffff001d02ea00ffffffff0100f2052a010000004341049e0159b9505b2bc97d7f021bb4faf78c2fc39c458400cb63c17a23f0f7b3f0c85d7536d6e7097a72012d21f3ab7076a597ff30357ce162fd055ee855f3e759b6ac00000000"
    }
  ]
}