{
  "hash": "000000007d963253c24e06e6730837483accd5ab78549a4a7040e79247d07eb0",
  "confirmations": 44290,
  "height": 8808,
  "version": 1,
  "versionHex": "00000001",
  "merkleroot": "6a02c4d6742f5033e148c80c5ed9b489da7d76f76ca0e79c4d670524c83ad89c",
  "time": 1238106104,
  "mediantime": 1238103017,
  "nonce": 56047021,
  "bits": "1d00ffff",
  "difficulty": 1,
  "chainwork": "0000000000000000000000000000000000000000000000000000226922692269",
  "nTx": 1,
  "previousblockhash": "00000000c7ede4b4d97579ce2ef124526d32a1dc1c4d35b18a9cd3096a4f0cbd",
  "nextblockhash": "0000000097901cf10df46a15283576c23c20e28456949ab9d0131b14e75bf6b2",
  "strippedsize": 216,
  "size": 216,
  "weight": 864,
  "tx": [
    {
      "txid": "6a02c4d6742f5033e148c80c5ed9b489da7d76f76ca0e79c4d670524c83ad89c",
      "hash": "6a02c4d6742f5033e148c80c5ed9b489da7d76f76ca0e79c4d670524c83ad89c",
      "version": 1,
      "size": 135,
      "vsize": 135,
      "weight": 540,
      "locktime": 0,
      "vin": [
        {
          "coinbase": "04ffff001d02cc06",
          "sequence": 4294967295
        }
      ],
      "vout": [
        {
          "value": 50.0,
          "n": 0,
          "scriptPubKey": {
            "asm": "044a7df93769a911c78c3833b5f1334a62db0c95227b06548fa9308f5145441daa3cf32779795a89222a80afde962a26b2639e546750c2e4b9aeb4b3fb2dae1224 OP_CHECKSIG",
            "desc": "pk(044a7df93769a911c78c3833b5f1334a62db0c95227b06548fa9308f5145441daa3cf32779795a89222a80afde962a26b2639e546750c2e4b9aeb4b3fb2dae1224)#td838ntm",
            "hex": "41044a7df93769a911c78c3833b5f1334a62db0c95227b06548fa9308f5145441daa3cf32779795a89222a80afde962a26b2639e546750c2e4b9aeb4b3fb2dae1224ac",
            "type": "pubkey"
          }
        }
      ],
      "hex": "01000000010000000000000000000000000000000000000000000000000000000000000000ffffffff0804ffff001d02cc06ffffffff0100f2052a010000004341044a7df93769a911c78c3833b5f1334a62db0c95227b06548fa9308f5145441daa3cf32779795a89222a80afde962a26b2639e546750c2e4b9aeb4b3fb2dae1224ac00000000"
    }
  ]
}