{
  "hash": "00000000bbea178c08435c3f672489992abaf070f0c15cef40002c399f4cece0",
  "confirmations": 52502,
  "height": 596,
  "version": 1,
  "versionHex": "00000001",
  "merkleroot": "8ba6531767d5a101fdd84a58025bfd1793fd9191e517db4acb0c49df851a957e",
  "time": 1232036500,
  "mediantime": 1232033622,
  "nonce": 17085580,
  "bits": "1d00ffff",
  "difficulty": 1,
  "chainwork": "0000000000000000000000000000000000000000000000000000025502550255",
  "nTx": 1,
  "previousblockhash": "00000000dea58ba8cb1a8d6840d32c0f23061a842f055f26c980eed9a9d2d950",
  "nextblockhash": "0000000072116e126f72947abe4ec7d4d9915640a1c868cdd5fd20ed02c3c55f",
  "strippedsize": 215,
  "size": 215,
  "weight": 860,
  "tx": [
    {
      "txid": "8ba6531767d5a101fdd84a58025bfd1793fd9191e517db4acb0c49df851a957e",
      "hash": "8ba6531767d5a101fdd84a58025bfd1793fd9191e517db4acb0c49df851a957e",
      "version": 1,
      "size": 134,
      "vsize": 134,
      "weight": 536,
      "locktime": 0,
      "vin": [
        {
          "coinbase": "04ffff001d010c",
          "sequence": 4294967295
        }
      ],
      "vout": [
        {
          "value": 50.0,
          "n": 0,
          "scriptPubKey": {
            "asm": "04d0fcb59114786daa15e1cf7c83635621d6302d0d4c303d4330d0bf8420aaa8d0b94cf0dc16644a4ade51c442d0960cc4151000292325aaea776ed899eca1d8e5 OP_CHECKSIG",
            "desc": "pk(04d0fcb59114786daa15e1cf7c83635621d6302d0d4c303d4330d0bf8420aaa8d0b94cf0dc16644a4ade51c442d0960cc4151000292325aaea776ed899eca1d8e5)#cmvuyepq",
            "hex": "4104d0fcb59114786daa15e1cf7c83635621d6302d0d4c303d4330d0bf8420aaa8d0b94cf0dc16644a4ade51c442d0960cc4151000292325aaea776ed899eca1d8e5ac",
            "type": "pubkey"
          }
        }
      ],
      "hex": "01000000010000000000000000000000000000000000000000000000000000000000000000ffffffff0704ffff001d010cffffffff0100f2052a01000000434104d0fcb59114786daa15e1cf7c83635621d6302d0d4c303d4330d0bf8420aaa8d0b94cf0dc16644a4ade51c442d0960cc4151000292325aaea776ed899eca1d8e5ac00000000"
    }
  ]
}