{
  "hash": "000000007d076a5289751e363ecb01604355730e69de270f04f79d969ff1cf86",
  "confirmations": 51933,
  "height": 81,
  "version": 1,
  "versionHex": "00000001",
  "merkleroot": "5c4c653395879f5992949b3e28bb0be7b27d49e9e11d64899c5de30928d4ad99",
  "time": 1231646456,
  "mediantime": 1231632554,
  "nonce": 4017887024,
  "bits": "1d00ffff",
  "difficulty": 1,
  "chainwork": "0000000000000000000000000000000000000000000000000000005200520052",
  "nTx": 1,
  "previousblockhash": "00000000be62325a98e47d3306f275efe45d39d8cd5df28c795c96b8920ad48f",
  "nextblockhash": "00000000162222fadd114245e16d25f6d02acbf67865575dc6f64b57634b5153",
  "strippedsize": 215,
  "size": 215,
  "weight": 860,
  "tx": [
    {
      "txid": "5c4c653395879f5992949b3e28bb0be7b27d49e9e11d64899c5de30928d4ad99",
      "hash": "5c4c653395879f5992949b3e28bb0be7b27d49e9e11d64899c5de30928d4ad99",
      "version": 1,
      "size": 134,
      "vsize": 134,
      "weight": 536,
      "locktime": 0,
      "vin": [
        {
          "coinbase": "04ffff001d0105",
          "sequence": 4294967295
        }
      ],
      "vout": [
        {
          "value": 50.0,
          "n": 0,
          "scriptPubKey": {
            "asm": "04f0d742c83392ae7f885fca7739a1681df9039d9930f4eede9fef7b7c85fb191fad43e584345e8b872c84260b39c2e192512ead631083be327a6825fa0ba561e5 OP_CHECKSIG",
            "desc": "pk(04f0d742c83392ae7f885fca7739a1681df9039d9930f4eede9fef7b7c85fb191fad43e584345e8b872c84260b39c2e192512ead631083be327a6825fa0ba561e5)#wr55ql3k",
            "hex": "4104f0d742c83392ae7f885fca7739a1681df9039d9930f4eede9fef7b7c85fb191fad43e584345e8b872c84260b39c2e192512ead631083be327a6825fa0ba561e5ac",
            "type": "pubkey"
          }
        }
      ],
      "hex": "01000000010000000000000000000000000000000000000000000000000000000000000000ffffffff0704ffff001d0105ffffffff0100f2052a01000000434104f0d742c83392ae7f885fca7739a1681df9039d9930f4eede9fef7b7c85fb191fad43e584345e8b872c84260b39c2e192512ead631083be327a6825fa0ba561e5ac00000000"
    }
  ]
}