{
  "hash": "000000009ac22b564d45d5bce1355b74cf37886df0d4615bebdd783e1a1d3ba0",
  "confirmations": 46158,
  "height": 6940,
  "version": 1,
  "versionHex": "00000001",
  "merkleroot": "685a961a0a0ea3395e1970f4940c8726664144c0a2f19d5fabe851645bace6f6",
  "time": 1236669737,
  "mediantime": 1236666130,
  "nonce": 2335934228,
  "bits": "1d00ffff",
  "difficulty": 1,
  "chainwork": "00000000000000000000000000000000000000000000000000001b1d1b1d1b1d",
  "nTx": 1,
  "previousblockhash": "00000000d71cfeb717c2f16b2409f21a4aa3230a7c8ed25837831a5f52486e3e",
  "nextblockhash": "00000000fcf2e4659eec34c869e25bf12bbabdc15313904c7f83b852886efcc8",
  "strippedsize": 216,
  "size": 216,
  "weight": 864,
  "tx": [
    {
      "txid": "685a961a0a0ea3395e1970f4940c8726664144c0a2f19d5fabe851645bace6f6",
      "hash": "685a961a0a0ea3395e1970f4940c8726664144c0a2f19d5fabe851645bace6f6",
      "version": 1,
      "size": 135,
      "vsize": 135,
      "weight": 540,
      "locktime": 0,
      "vin": [
        {
          "coinbase": "04ffff001d023001",
          "sequence": 4294967295
        }
      ],
      "vout": [
        {
          "value": 50.0,
          "n": 0,
          "scriptPubKey": {
            "asm": "047fc9e4cdcf4994b23d533e6383c40ed50824c882ff8faa52e49ea27994ada2ec0a8649702147ad13708a8851e333ed1e998fc5138e3afcdff9f232a813d96663 OP_CHECKSIG",
            "desc": "pk(047fc9e4cdcf4994b23d533e6383c40ed50824c882ff8faa52e49ea27994ada2ec0a8649702147ad13708a8851e333ed1e998fc5138e3afcdff9f232a813d96663)#dtm7rg9d",
            "hex": "41047fc9e4cdcf4994b23d533e6383c40ed50824c882ff8faa52e49ea27994ada2ec0a8649702147ad13708a8851e333ed1e998fc5138e3afcdff9f232a813d96663ac",
            "type": "pubkey"
          }
        }
      ],
      "hex": "01000000010000000000000000000000000000000000000000000000000000000000000000ffffffff0804ffff001d023001ffffffff0100f2052a010000004341047fc9e4cdcf4994b23d533e6383c40ed50824c882ff8faa52e49ea27994ada2ec0a8649702147ad13708a8851e333ed1e998fc5138e3afcdff9f232a813d96663ac00000000"
    }
  ]
}