{
  "hash": "00000000b0ffc0f6ace673e0e6ad6893546c5c808919e6a15b6b5d51e4d8af70",
  "confirmations": 51032,
  "height": 2066,
  "version": 1,
  "versionHex": "00000001",
  "merkleroot": "1f7339a092b173583886771d9c546d19b5910d82e3e82b5c9069684f5c281d9a",
  "time": 1233111222,
  "mediantime": 1233106479,
  "nonce": 3009935141,
  "bits": "1d00ffff",
  "difficulty": 1,
  "chainwork": "0000000000000000000000000000000000000000000000000000081308130813",
  "nTx": 1,
  "previousblockhash": "000000005d1ee9f633d16642d1bd8af362c3e49e7ce819937ebe6873aaa8c7b7",
  "nextblockhash": "00000000eb952510b6fe05aa6a0fd7730e49ea18d051be315e50f1007f200829",
  "strippedsize": 216,
  "size": 216,
  "weight": 864,
  "tx": [
    {
      "txid": "1f7339a092b173583886771d9c546d19b5910d82e3e82b5c9069684f5c281d9a",
      "hash": "1f7339a092b173583886771d9c546d19b5910d82e3e82b5c9069684f5c281d9a",
      "version": 1,
      "size": 135,
      "vsize": 135,
      "weight": 540,
      "locktime": 0,
      "vin": [
        {
          "coinbase": "04ffff001d021a03",
          "sequence": 4294967295
        }
      ],
      "vout": [
        {
          "value": 50.0,
          "n": 0,
          "scriptPubKey": {
            "asm": "043d724b40ed6ca3265d9208e266822f2b1c3ff0af07056c7f55393818477183b3878214743208c2ea7b0c6abf6a1c4f268b7dec6437ed13cf2110a9d1cd759667 OP_CHECKSIG",
            "desc": "pk(043d724b40ed6ca3265d9208e266822f2b1c3ff0af07056c7f55393818477183b3878214743208c2ea7b0c6abf6a1c4f268b7dec6437ed13cf2110a9d1cd759667)#yjpkwdzp",
            "hex": "41043d724b40ed6ca3265d9208e266822f2b1c3ff0af07056c7f55393818477183b3878214743208c2ea7b0c6abf6a1c4f268b7dec6437ed13cf2110a9d1cd759667ac",
            "type": "pubkey"
          }
        }
      ],
      "hex": "01000000010000000000000000000000000000000000000000000000000000000000000000ffffffff0804ffff001d021a03ffffffff0100f2052a010000004341043d724b40ed6ca3265d9208e266822f2b1c3ff0af07056c7f55393818477183b3878214743208c2ea7b0c6abf6a1c4f268b7dec6437ed13cf2110a9d1cd759667ac00000000"
    }
  ]
}