{
  "hash": "0000000073ac184e60c6f799690cc042a8193c60d71c296c2bdcb96348d8c5f7",
  "confirmations": 50164,
  "height": 2934,
  "version": 1,
  "versionHex": "00000001",
  "merkleroot": "50e68a2f3aa1e58f2b1d3ee8923aaabab28c8750bca0207f1899c370ad0b8474",
  "time": 1233713948,
  "mediantime": 1233710646,
  "nonce": 185752611,
  "bits": "1d00ffff",
  "difficulty": 1,
  "chainwork": "00000000000000000000000000000000000000000000000000000b770b770b77",
  "nTx": 1,
  "previousblockhash": "00000000d6f0d7cee72dd0f0eb7de68e7daf9e00b09b0fc5ed3d07abeba185a1",
  "nextblockhash": "00000000a5815d732899aad3fe8c69348707e022dec60cad4f92b27e1de8ff18",
  "strippedsize": 216,
  "size": 216,
  "weight": 864,
  "tx": [
    {
      "txid": "50e68a2f3aa1e58f2b1d3ee8923aaabab28c8750bca0207f1899c370ad0b8474",
      "hash": "50e68a2f3aa1e58f2b1d3ee8923aaabab28c8750bca0207f1899c370ad0b8474",
      "version": 1,
      "size": 135,
      "vsize": 135,
      "weight": 540,
      "locktime": 0,
      "vin": [
        {
          "coinbase": "04ffff001d02f606",
          "sequence": 4294967295
        }
      ],
      "vout": [
        {
          "value": 50.0,
          "n": 0,
          "scriptPubKey": {
            "asm": "047e305542b4695cc9f21640ea95043ac0924dda60f41a4578054d182899e83ccd086f0c3dc8771d24d441475ef0ce782c739b133fbc707d288e00377af3e3fdc2 OP_CHECKSIG",
            "desc": "pk(047e305542b4695cc9f21640ea95043ac0924dda60f41a4578054d182899e83ccd086f0c3dc8771d24d441475ef0ce782c739b133fbc707d288e00377af3e3fdc2)#r7nfxek5",
            "hex": "41047e305542b4695cc9f21640ea95043ac0924dda60f41a4578054d182899e83ccd086f0c3dc8771d24d441475ef0ce782c739b133fbc707d288e00377af3e3fdc2ac",
            "type": "pubkey"
          }
        }
      ],
      "hex": "01000000010000000000000000000000000000000000000000000000000000000000000000ffffffff0804ffff001d02f606ffffffff0100f2052a010000004341047e305542b4695cc9f21640ea95043ac0924dda60f41a4578054d182899e83ccd086f0c3dc8771d24d441475ef0ce782c739b133fbc707d288e00377af3e3fdc2ac00000000"
    }
  ]
}