{
  "hash": "000000000c31c5502da4986ba32ad1958064a92f53b2b02d27f3d262e22e64d9",
  "confirmations": 44711,
  "height": 8387,
  "version": 1,
  "versionHex": "00000001",
  "merkleroot": "76c39d05767f13fc91514d801f096f23f740acea3cea3e4a18f006564b18a090",
  "time": 1237792410,
  "mediantime": 1237789039,
  "nonce": 436752439,
  "bits": "1d00ffff",
  "difficulty": 1,
  "chainwork": "000000000000000000000000000000000000000000000000000020c420c420c4",
  "nTx": 1,
  "previousblockhash": "00000000fbbbd10e3360054637a55889bb0ba3b7a966d6b3c4c4879c30fc6f48",
  "nextblockhash": "00000000f5e97f5c8b8046930c5efdf7f85e9571eca087508c739ac196974846",
  "strippedsize": 216,
  "size": 216,
  "weight": 864,
  "tx": [
    {
      "txid": "76c39d05767f13fc91514d801f096f23f740acea3cea3e4a18f006564b18a090",
      "hash": "76c39d05767f13fc91514d801f096f23f740acea3cea3e4a18f006564b18a090",
      "version": 1,
      "size": 135,
      "vsize": 135,
      "weight": 540,
      "locktime": 0,
      "vin": [
        {
          "coinbase": "04ffff001d02c405",
          "sequence": 4294967295
        }
      ],
      "vout": [
        {
          "value": 50.0,
          "n": 0,
          "scriptPubKey": {
            "asm": "04597fa540e6537bd57e4e85eeb0f530c492b9cbd509051754a7721e65a3b87282e37949654582765cc8e5f0670cc6de1df6c7f839e050c6b98126ff8f45bb2066 OP_CHECKSIG",
            "desc": "pk(04597fa540e6537bd57e4e85eeb0f530c492b9cbd509051754a7721e65a3b87282e37949654582765cc8e5f0670cc6de1df6c7f839e050c6b98126ff8f45bb2066)#kwzwp309",
            "hex": "4104597fa540e6537bd57e4e85eeb0f530c492b9cbd509051754a7721e65a3b87282e37949654582765cc8e5f0670cc6de1df6c7f839e050c6b98126ff8f45bb2066ac",
            "type": "pubkey"
          }
        }
      ],
      "hex": "01000000010000000000000000000000000000000000000000000000000000000000000000ffffffff0804ffff001d02c405ffffffff0100f2052a01000000434104597fa540e6537bd57e4e85eeb0f530c492b9cbd509051754a7721e65a3b87282e37949654582765cc8e5f0670cc6de1df6c7f839e050c6b98126ff8f45bb2066ac00000000"
    }
  ]
}