{
  "hash": "000000009a5cca2eb53d84dbdb33fbd5fc584e6cb3017bbf3a9a01c96e1fc69e",
  "confirmations": 50520,
  "height": 2578,
  "version": 1,
  "versionHex": "00000001",
  "merkleroot": "9d6ec2e8371837363e55b91587921618f796afc95ae0ceb1756a4156104d4d80",
  "time": 1233476055,
  "mediantime": 1233471972,
  "nonce": 708892213,
  "bits": "1d00ffff",
  "difficulty": 1,
  "chainwork": "00000000000000000000000000000000000000000000000000000a130a130a13",
  "nTx": 1,
  "previousblockhash": "0000000059a2c5a4ad7fef720ad0a6ff9eb83122ac6595c75881dd48a4f91238",
  "nextblockhash": "0000000096a904fbe562c936302421be05856fce88a4722a9333734996b6938b",
  "strippedsize": 216,
  "size": 216,
  "weight": 864,
  "tx": [
    {
      "txid": "9d6ec2e8371837363e55b91587921618f796afc95ae0ceb1756a4156104d4d80",
      "hash": "9d6ec2e8371837363e55b91587921618f796afc95ae0ceb1756a4156104d4d80",
      "version": 1,
      "size": 135,
      "vsize": 135,
      "weight": 540,
      "locktime": 0,
      "vin": [
        {
          "coinbase": "04ffff001d029902",
          "sequence": 4294967295
        }
      ],
      "vout": [
        {
          "value": 50.0,
          "n": 0,
          "scriptPubKey": {
            "asm": "0426d45cc69c6ce79bad05e644b6b10b7ddb617c9ec0297d8128333d5727ba24ea5d671abf4fe13d8aab6fe0dc0294241f2e322437604b313dc32d3bfe1c93c4ba OP_CHECKSIG",
            "desc": "pk(0426d45cc69c6ce79bad05e644b6b10b7ddb617c9ec0297d8128333d5727ba24ea5d671abf4fe13d8aab6fe0dc0294241f2e322437604b313dc32d3bfe1c93c4ba)#9gvsz9d0",
            "hex": "410426d45cc69c6ce79bad05e644b6b10b7ddb617c9ec0297d8128333d5727ba24ea5d671abf4fe13d8aab6fe0dc0294241f2e322437604b313dc32d3bfe1c93c4baac",
            "type": "pubkey"
          }
        }
      ],
      "hex": "01000000010000000000000000000000000000000000000000000000000000000000000000ffffffff0804ffff001d029902ffffffff0100f2052a0100000043410426d45cc69c6ce79bad05e644b6b10b7ddb617c9ec0297d8128333d5727ba24ea5d671abf4fe13d8aab6fe0dc0294241f2e322437604b313dc32d3bfe1c93c4baac00000000"
    }
  ]
}