{
  "hash": "000000007755eb823c04747e00e18de3c3e586208f2a1915f41aac57c9fb84f7",
  "confirmations": 47085,
  "height": 6013,
  "version": 1,
  "versionHex": "00000001",
  "merkleroot": "d340e0bdc7180f1dd35d8bb5af427d8904280450ac0534d57afac06bc505df0f",
  "time": 1235936457,
  "mediantime": 1235931665,
  "nonce": 3728493574,
  "bits": "1d00ffff",
  "difficulty": 1,
  "chainwork": "0000000000000000000000000000000000000000000000000000177e177e177e",
  "nTx": 1,
  "previousblockhash": "00000000443d8d4d473d8275ca2e568501a346eb92a0e20577fcde95dcc2bc86",
  "nextblockhash": "00000000bb4c9b10dc931eaf84e700b355db0a53c38c92113776b6e8ca40a053",
  "strippedsize": 216,
  "size": 216,
  "weight": 864,
  "tx": [
    {
      "txid": "d340e0bdc7180f1dd35d8bb5af427d8904280450ac0534d57afac06bc505df0f",
      "hash": "d340e0bdc7180f1dd35d8bb5af427d8904280450ac0534d57afac06bc505df0f",
      "version": 1,
      "size": 135,
      "vsize": 135,
      "weight": 540,
      "locktime": 0,
      "vin": [
        {
          "coinbase": "04ffff001d022805",
          "sequence": 4294967295
        }
      ],
      "vout": [
        {
          "value": 50.0,
          "n": 0,
          "scriptPubKey": {
            "asm": "04f2cbdbd3234ac1a8057670daccf41716260879039df448802cd714d2d091779aff15f0a7f956d3a2453bdbf7488724ad43382e694a943ce78433412f946674be OP_CHECKSIG",
            "desc": "pk(04f2cbdbd3234ac1a8057670daccf41716260879039df448802cd714d2d091779aff15f0a7f956d3a2453bdbf7488724ad43382e694a943ce78433412f946674be)#vgql7hv4",
            "hex": "4104f2cbdbd3234ac1a8057670daccf41716260879039df448802cd714d2d091779aff15f0a7f956d3a2453bdbf7488724ad43382e694a943ce78433412f946674beac",
            "type": "pubkey"
          }
        }
      ],
      "hex": "01000000010000000000000000000000000000000000000000000000000000000000000000ffffffff0804ffff001d022805ffffffff0100f2052a01000000434104f2cbdbd3234ac1a8057670daccf41716260879039df448802cd714d2d091779aff15f0a7f956d3a2453bdbf7488724ad43382e694a943ce78433412f946674beac00000000"
    }
  ]
}