{
  "hash": "000000008ab337472c11ece22a3ac9c91e95562399604a9b4afe38d532604c19",
  "confirmations": 44736,
  "height": 8362,
  "version": 1,
  "versionHex": "00000001",
  "merkleroot": "3f224ac49832c6fa0830b56dc53ef81923a51738141a797edbb4f51120baf21e",
  "time": 1237775281,
  "mediantime": 1237772159,
  "nonce": 1349340472,
  "bits": "1d00ffff",
  "difficulty": 1,
  "chainwork": "000000000000000000000000000000000000000000000000000020ab20ab20ab",
  "nTx": 1,
  "previousblockhash": "000000009d1eeefa21f3ca68284fd9236e722d6aad7443c2c8f23d124e7fb9df",
  "nextblockhash": "00000000b4aa31e40e5e89d6b2e83b0585f796cbbff2436cde869a8616cc7a19",
  "strippedsize": 216,
  "size": 216,
  "weight": 864,
  "tx": [
    {
      "txid": "3f224ac49832c6fa0830b56dc53ef81923a51738141a797edbb4f51120baf21e",
      "hash": "3f224ac49832c6fa0830b56dc53ef81923a51738141a797edbb4f51120baf21e",
      "version": 1,
      "size": 135,
      "vsize": 135,
      "weight": 540,
      "locktime": 0,
      "vin": [
        {
          "coinbase": "04ffff001d024705",
          "sequence": 4294967295
        }
      ],
      "vout": [
        {
          "value": 50.0,
          "n": 0,
          "scriptPubKey": {
            "asm": "04b3792d5132aa72a80a96d2143e4241e8dd4bb65ce8e55fde058054ff99e5070e70e2801024349e753145a6cd7f61b4669f93c3294d891c2f27e08e30f5764016 OP_CHECKSIG",
            "desc": "pk(04b3792d5132aa72a80a96d2143e4241e8dd4bb65ce8e55fde058054ff99e5070e70e2801024349e753145a6cd7f61b4669f93c3294d891c2f27e08e30f5764016)#jswhc7ks",
            "hex": "4104b3792d5132aa72a80a96d2143e4241e8dd4bb65ce8e55fde058054ff99e5070e70e2801024349e753145a6cd7f61b4669f93c3294d891c2f27e08e30f5764016ac",
            "type": "pubkey"
          }
        }
      ],
      "hex": "01000000010000000000000000000000000000000000000000000000000000000000000000ffffffff0804ffff001d024705ffffffff0100f2052a01000000434104b3792d5132aa72a80a96d2143e4241e8dd4bb65ce8e55fde058054ff99e5070e70e2801024349e753145a6cd7f61b4669f93c3294d891c2f27e08e30f5764016ac00000000"
    }
  ]
}