{
  "hash": "000000003a4e56de0a15339112176f640b865279e6946832c8c7f2fbdb802ef4",
  "confirmations": 45735,
  "height": 7363,
  "version": 1,
  "versionHex": "00000001",
  "merkleroot": "2632135c876af32e4305bbdbe644036fec3d76bd7d78e5081d1ca1f3987d1943",
  "time": 1236992781,
  "mediantime": 1236988640,
  "nonce": 2730525207,
  "bits": "1d00ffff",
  "difficulty": 1,
  "chainwork": "00000000000000000000000000000000000000000000000000001cc41cc41cc4",
  "nTx": 1,
  "previousblockhash": "00000000a92806c80a2797ac6eca1d5da16df4e8deaa35f3d556221871841c46",
  "nextblockhash": "000000005a9d73a27f13622e673d8dc5f1d8d1683f124f03c88bd54dbac2ce6e",
  "strippedsize": 216,
  "size": 216,
  "weight": 864,
  "tx": [
    {
      "txid": "2632135c876af32e4305bbdbe644036fec3d76bd7d78e5081d1ca1f3987d1943",
      "hash": "2632135c876af32e4305bbdbe644036fec3d76bd7d78e5081d1ca1f3987d1943",
      "version": 1,
      "size": 135,
      "vsize": 135,
      "weight": 540,
      "locktime": 0,
      "vin": [
        {
          "coinbase": "04ffff001d02cc08",
          "sequence": 4294967295
        }
      ],
      "vout": [
        {
          "value": 50.0,
          "n": 0,
          "scriptPubKey": {
            "asm": "04fd71c56a467baab78e50bfdee3d57cde204881df6f37ff57e449cf9644185d5412f163dd5e3685d0f60339908edd3da6ab445f11d9e04120d1f07744c437f4e1 OP_CHECKSIG",
            "desc": "pk(04fd71c56a467baab78e50bfdee3d57cde204881df6f37ff57e449cf9644185d5412f163dd5e3685d0f60339908edd3da6ab445f11d9e04120d1f07744c437f4e1)#6ks2k488",
            "hex": "4104fd71c56a467baab78e50bfdee3d57cde204881df6f37ff57e449cf9644185d5412f163dd5e3685d0f60339908edd3da6ab445f11d9e04120d1f07744c437f4e1ac",
            "type": "pubkey"
          }
        }
      ],
      "hex": "01000000010000000000000000000000000000000000000000000000000000000000000000ffffffff0804ffff001d02cc08ffffffff0100f2052a01000000434104fd71c56a467baab78e50bfdee3d57cde204881df6f37ff57e449cf9644185d5412f163dd5e3685d0f60339908edd3da6ab445f11d9e04120d1f07744c437f4e1ac00000000"
    }
  ]
}