{
  "hash": "000000008f3d4381c02a83d069df55b39200d7e8d539ccfcf258f61e07fa5db8",
  "confirmations": 46616,
  "height": 6482,
  "version": 1,
  "versionHex": "00000001",
  "merkleroot": "e70327985d176749ad5419f985c411c93ad218f87ec3beeb39e3b750889f213c",
  "time": 1236317018,
  "mediantime": 1236313198,
  "nonce": 1476035108,
  "bits": "1d00ffff",
  "difficulty": 1,
  "chainwork": "0000000000000000000000000000000000000000000000000000195319531953",
  "nTx": 1,
  "previousblockhash": "00000000e6a02f1b36c1d4a7faec94be737c1fef22df42cc3a33b19e13b3dceb",
  "nextblockhash": "00000000ccfe932c3a2a2129b5eb7415dc6775643c4bdb9fa58f9117cc8eaad6",
  "strippedsize": 216,
  "size": 216,
  "weight": 864,
  "tx": [
    {
      "txid": "e70327985d176749ad5419f985c411c93ad218f87ec3beeb39e3b750889f213c",
      "hash": "e70327985d176749ad5419f985c411c93ad218f87ec3beeb39e3b750889f213c",
      "version": 1,
      "size": 135,
      "vsize": 135,
      "weight": 540,
      "locktime": 0,
      "vin": [
        {
          "coinbase": "04ffff001d022703",
          "sequence": 4294967295
        }
      ],
      "vout": [
        {
          "value": 50.0,
          "n": 0,
          "scriptPubKey": {
            "asm": "04128fadf64541d18bba3997286e673b1c8312e992e19225b0450f2f7e2283214519ecbfcf61e523ed77865a5a7ca368c765dbda5031584f2d696e3d468adcdfcc OP_CHECKSIG",
            "desc": "pk(04128fadf64541d18bba3997286e673b1c8312e992e19225b0450f2f7e2283214519ecbfcf61e523ed77865a5a7ca368c765dbda5031584f2d696e3d468adcdfcc)#addzu437",
            "hex": "4104128fadf64541d18bba3997286e673b1c8312e992e19225b0450f2f7e2283214519ecbfcf61e523ed77865a5a7ca368c765dbda5031584f2d696e3d468adcdfccac",
            "type": "pubkey"
          }
        }
      ],
      "hex": "01000000010000000000000000000000000000000000000000000000000000000000000000ffffffff0804ffff001d022703ffffffff0100f2052a01000000434104128fadf64541d18bba3997286e673b1c8312e992e19225b0450f2f7e2283214519ecbfcf61e523ed77865a5a7ca368c765dbda5031584f2d696e3d468adcdfccac00000000"
    }
  ]
}