{
  "hash": "000000006dac449ebd360fa161069dfd38693762019e978170707db68a2d6e2c",
  "confirmations": 47702,
  "height": 5396,
  "version": 1,
  "versionHex": "00000001",
  "merkleroot": "1e2e352f6210ead2d2b16cdd8ec935a13ff244b6317674b1224d2bdc2960aca5",
  "time": 1235438340,
  "mediantime": 1235432910,
  "nonce": 600514354,
  "bits": "1d00ffff",
  "difficulty": 1,
  "chainwork": "0000000000000000000000000000000000000000000000000000151515151515",
  "nTx": 1,
  "previousblockhash": "00000000f4e134a52dbead82682207886fe7e02f48370952e4cbed7b7386ac46",
  "nextblockhash": "0000000082c123deb4ddb3b5cf8bb3692567ba65b3a165a93376424b90247a99",
  "strippedsize": 216,
  "size": 216,
  "weight": 864,
  "tx": [
    {
      "txid": "1e2e352f6210ead2d2b16cdd8ec935a13ff244b6317674b1224d2bdc2960aca5",
      "hash": "1e2e352f6210ead2d2b16cdd8ec935a13ff244b6317674b1224d2bdc2960aca5",
      "version": 1,
      "size": 135,
      "vsize": 135,
      "weight": 540,
      "locktime": 0,
      "vin": [
        {
          "coinbase": "04ffff001d029703",
          "sequence": 4294967295
        }
      ],
      "vout": [
        {
          "value": 50.0,
          "n": 0,
          "scriptPubKey": {
            "asm": "043d0a7c9690be5a7c5f4754d49834053680ba4e43d6fceab00fb6327d454a5f2bb6654f77d8f59624647eb4c66a476c8a36c90eb1aa194e19a6f0320569a2b0ea OP_CHECKSIG",
            "desc": "pk(043d0a7c9690be5a7c5f4754d49834053680ba4e43d6fceab00fb6327d454a5f2bb6654f77d8f59624647eb4c66a476c8a36c90eb1aa194e19a6f0320569a2b0ea)#jq2yy835",
            "hex": "41043d0a7c9690be5a7c5f4754d49834053680ba4e43d6fceab00fb6327d454a5f2bb6654f77d8f59624647eb4c66a476c8a36c90eb1aa194e19a6f0320569a2b0eaac",
            "type": "pubkey"
          }
        }
      ],
      "hex": "01000000010000000000000000000000000000000000000000000000000000000000000000ffffffff0804ffff001d029703ffffffff0100f2052a010000004341043d0a7c9690be5a7c5f4754d49834053680ba4e43d6fceab00fb6327d454a5f2bb6654f77d8f59624647eb4c66a476c8a36c90eb1aa194e19a6f0320569a2b0eaac00000000"
    }
  ]
}