{
  "hash": "00000000a007bc9cee66fa22462d0a43627e3e93700dbfc4396b05ea1b9a4635",
  "confirmations": 47125,
  "height": 5973,
  "version": 1,
  "versionHex": "00000001",
  "merkleroot": "a2dcf2f15e1650c8cf3d95d0019d41b1b2d11effc84d658c3d40c18e9a522740",
  "time": 1235906670,
  "mediantime": 1235903055,
  "nonce": 1840038183,
  "bits": "1d00ffff",
  "difficulty": 1,
  "chainwork": "0000000000000000000000000000000000000000000000000000175617561756",
  "nTx": 1,
  "previousblockhash": "00000000dcffd6a47d1be3e8a0ed45b50dcb952da7e737d03500d5fcfdc9b8b4",
  "nextblockhash": "000000006b67f1eefedae06fbf6c0c9dba1a74d187110fd063fbc1d76bf670a4",
  "strippedsize": 216,
  "size": 216,
  "weight": 864,
  "tx": [
    {
      "txid": "a2dcf2f15e1650c8cf3d95d0019d41b1b2d11effc84d658c3d40c18e9a522740",
      "hash": "a2dcf2f15e1650c8cf3d95d0019d41b1b2d11effc84d658c3d40c18e9a522740",
      "version": 1,
      "size": 135,
      "vsize": 135,
      "weight": 540,
      "locktime": 0,
      "vin": [
        {
          "coinbase": "04ffff001d026604",
          "sequence": 4294967295
        }
      ],
      "vout": [
        {
          "value": 50.0,
          "n": 0,
          "scriptPubKey": {
            "asm": "04f2c6993a7652fdccf58d83aaeef70e4962c0fcfa928961d3267517ca3bf4ee881bc075f7b4c8f00f4b5e6ec7857ff97cba62c72c1d83750aba15bdfda6528e9f OP_CHECKSIG",
            "desc": "pk(04f2c6993a7652fdccf58d83aaeef70e4962c0fcfa928961d3267517ca3bf4ee881bc075f7b4c8f00f4b5e6ec7857ff97cba62c72c1d83750aba15bdfda6528e9f)#066vzlyz",
            "hex": "4104f2c6993a7652fdccf58d83aaeef70e4962c0fcfa928961d3267517ca3bf4ee881bc075f7b4c8f00f4b5e6ec7857ff97cba62c72c1d83750aba15bdfda6528e9fac",
            "type": "pubkey"
          }
        }
      ],
      "hex": "01000000010000000000000000000000000000000000000000000000000000000000000000ffffffff0804ffff001d026604ffffffff0100f2052a01000000434104f2c6993a7652fdccf58d83aaeef70e4962c0fcfa928961d3267517ca3bf4ee881bc075f7b4c8f00f4b5e6ec7857ff97cba62c72c1d83750aba15bdfda6528e9fac00000000"
    }
  ]
}