{
  "hash": "00000000d4152fb0ba70734d96d473f89576699727b5b8cd008fc7e344bdf3e8",
  "confirmations": 51507,
  "height": 1591,
  "version": 1,
  "versionHex": "00000001",
  "merkleroot": "0d916c9c1805607fa7f25c299fa05bda94bb7937ac5cd2273c919e62657ef8f7",
  "time": 1232807458,
  "mediantime": 1232805403,
  "nonce": 42607244,
  "bits": "1d00ffff",
  "difficulty": 1,
  "chainwork": "0000000000000000000000000000000000000000000000000000063806380638",
  "nTx": 1,
  "previousblockhash": "000000000afe8b5ca393448720e23b588e0f8422852ab872ef704d0852d55ca3",
  "nextblockhash": "0000000059144ee3a0c4f074da3ebad27603e2c204040d6cf8649472db46c66b",
  "strippedsize": 216,
  "size": 216,
  "weight": 864,
  "tx": [
    {
      "txid": "0d916c9c1805607fa7f25c299fa05bda94bb7937ac5cd2273c919e62657ef8f7",
      "hash": "0d916c9c1805607fa7f25c299fa05bda94bb7937ac5cd2273c919e62657ef8f7",
      "version": 1,
      "size": 135,
      "vsize": 135,
      "weight": 540,
      "locktime": 0,
      "vin": [
        {
          "coinbase": "04ffff001d02a101",
          "sequence": 4294967295
        }
      ],
      "vout": [
        {
          "value": 50.0,
          "n": 0,
          "scriptPubKey": {
            "asm": "049a40daaa2bf367c9a354c64d31c741fa3dcbf3fdc422e05bd20bf7018aea214a8479d41daf1046c18e97b9953706e5d8e08ef3b9e4d51c08c69192a3e3fff83d OP_CHECKSIG",
            "desc": "pk(049a40daaa2bf367c9a354c64d31c741fa3dcbf3fdc422e05bd20bf7018aea214a8479d41daf1046c18e97b9953706e5d8e08ef3b9e4d51c08c69192a3e3fff83d)#0uaetphr",
            "hex": "41049a40daaa2bf367c9a354c64d31c741fa3dcbf3fdc422e05bd20bf7018aea214a8479d41daf1046c18e97b9953706e5d8e08ef3b9e4d51c08c69192a3e3fff83dac",
            "type": "pubkey"
          }
        }
      ],
      "hex": "01000000010000000000000000000000000000000000000000000000000000000000000000ffffffff0804ffff001d02a101ffffffff0100f2052a010000004341049a40daaa2bf367c9a354c64d31c741fa3dcbf3fdc422e05bd20bf7018aea214a8479d41daf1046c18e97b9953706e5d8e08ef3b9e4d51c08c69192a3e3fff83dac00000000"
    }
  ]
}