{
  "hash": "000000007937fcdeb96d8c8c099803e08736bdda92a38ed41d9afe54cc4f9aa1",
  "confirmations": 45472,
  "height": 7626,
  "version": 1,
  "versionHex": "00000001",
  "merkleroot": "52b3fdc51aab6f18462d2c4c1af75a37ce83b3721016f6216deb5a282acf889d",
  "time": 1237187426,
  "mediantime": 1237183496,
  "nonce": 57162850,
  "bits": "1d00ffff",
  "difficulty": 1,
  "chainwork": "00000000000000000000000000000000000000000000000000001dcb1dcb1dcb",
  "nTx": 1,
  "previousblockhash": "00000000b22e321e677a4e590700e6264345d160aa30d154813451f756dbf0d0",
  "nextblockhash": "00000000de9f0771ae3f40bbe1758276b521b2a0e5475c32f96d16bd9f8c67e8",
  "strippedsize": 216,
  "size": 216,
  "weight": 864,
  "tx": [
    {
      "txid": "52b3fdc51aab6f18462d2c4c1af75a37ce83b3721016f6216deb5a282acf889d",
      "hash": "52b3fdc51aab6f18462d2c4c1af75a37ce83b3721016f6216deb5a282acf889d",
      "version": 1,
      "size": 135,
      "vsize": 135,
      "weight": 540,
      "locktime": 0,
      "vin": [
        {
          "coinbase": "04ffff001d023d01",
          "sequence": 4294967295
        }
      ],
      "vout": [
        {
          "value": 50.0,
          "n": 0,
          "scriptPubKey": {
            "asm": "043dd9342e2fa3da6853f410e5bd9438798ef04c40389de823cb7e9f39a22d5796894a6d3fe96e226996e7307970c75219ec06fc5e6caa1066608ef5d1b1e661b3 OP_CHECKSIG",
            "desc": "pk(043dd9342e2fa3da6853f410e5bd9438798ef04c40389de823cb7e9f39a22d5796894a6d3fe96e226996e7307970c75219ec06fc5e6caa1066608ef5d1b1e661b3)#5cra8jfz",
            "hex": "41043dd9342e2fa3da6853f410e5bd9438798ef04c40389de823cb7e9f39a22d5796894a6d3fe96e226996e7307970c75219ec06fc5e6caa1066608ef5d1b1e661b3ac",
            "type": "pubkey"
          }
        }
      ],
      "hex": "01000000010000000000000000000000000000000000000000000000000000000000000000ffffffff0804ffff001d023d01ffffffff0100f2052a010000004341043dd9342e2fa3da6853f410e5bd9438798ef04c40389de823cb7e9f39a22d5796894a6d3fe96e226996e7307970c75219ec06fc5e6caa1066608ef5d1b1e661b3ac00000000"
    }
  ]
}