{
  "hash": "000000007f682ac5a58caa156e06a87ef5944a165ee0b33edbfc4cee0cdd5549",
  "confirmations": 50548,
  "height": 2550,
  "version": 1,
  "versionHex": "00000001",
  "merkleroot": "49be11c1bd0036e54caceb8094261f46ead3961a836faeaa058bdef62015e6f5",
  "time": 1233453846,
  "mediantime": 1233448111,
  "nonce": 1832613422,
  "bits": "1d00ffff",
  "difficulty": 1,
  "chainwork": "000000000000000000000000000000000000000000000000000009f709f709f7",
  "nTx": 1,
  "previousblockhash": "00000000594397a29ea81a2a61f94299b6005d26c1ebe942236fb91649fd7929",
  "nextblockhash": "0000000085b25ed759f375678f80ca0dff8ed09f9f7c962f34d3fa21338e77ae",
  "strippedsize": 216,
  "size": 216,
  "weight": 864,
  "tx": [
    {
      "txid": "49be11c1bd0036e54caceb8094261f46ead3961a836faeaa058bdef62015e6f5",
      "hash": "49be11c1bd0036e54caceb8094261f46ead3961a836faeaa058bdef62015e6f5",
      "version": 1,
      "size": 135,
      "vsize": 135,
      "weight": 540,
      "locktime": 0,
      "vin": [
        {
          "coinbase": "04ffff001d02db01",
          "sequence": 4294967295
        }
      ],
      "vout": [
        {
          "value": 50.0,
          "n": 0,
          "scriptPubKey": {
            "asm": "0446982d67f1131470f9e567b7e1089fe9e392ac2c7429b6461f66b90cc8a369a350f60c9c893d4efa9f91d1e710e7baf996a2e2ca638326d6ac9c487efc4953ae OP_CHECKSIG",
            "desc": "pk(0446982d67f1131470f9e567b7e1089fe9e392ac2c7429b6461f66b90cc8a369a350f60c9c893d4efa9f91d1e710e7baf996a2e2ca638326d6ac9c487efc4953ae)#ywl86s00",
            "hex": "410446982d67f1131470f9e567b7e1089fe9e392ac2c7429b6461f66b90cc8a369a350f60c9c893d4efa9f91d1e710e7baf996a2e2ca638326d6ac9c487efc4953aeac",
            "type": "pubkey"
          }
        }
      ],
      "hex": "01000000010000000000000000000000000000000000000000000000000000000000000000ffffffff0804ffff001d02db01ffffffff0100f2052a0100000043410446982d67f1131470f9e567b7e1089fe9e392ac2c7429b6461f66b90cc8a369a350f60c9c893d4efa9f91d1e710e7baf996a2e2ca638326d6ac9c487efc4953aeac00000000"
    }
  ]
}