{
  "hash": "00000000fd3546b2d219faa87a34e1e6593769d753cf86fc647c4ee2a07710d1",
  "confirmations": 52174,
  "height": 470,
  "version": 1,
  "versionHex": "00000001",
  "merkleroot": "8def47739d3cedc44c4cb8fa229f81445888eacd062ce31f28cbdf1aab52cba1",
  "time": 1231948637,
  "mediantime": 1231944968,
  "nonce": 3154583064,
  "bits": "1d00ffff",
  "difficulty": 1,
  "chainwork": "000000000000000000000000000000000000000000000000000001d701d701d7",
  "nTx": 1,
  "previousblockhash": "000000004b5d03a850f59cf1a8e247de501c5052a4fd595b4f1adb605be4d510",
  "nextblockhash": "0000000015484ff1d18afb86c7581eabeaf7146813ce140595e2f136af7a393b",
  "strippedsize": 216,
  "size": 216,
  "weight": 864,
  "tx": [
    {
      "txid": "8def47739d3cedc44c4cb8fa229f81445888eacd062ce31f28cbdf1aab52cba1",
      "hash": "8def47739d3cedc44c4cb8fa229f81445888eacd062ce31f28cbdf1aab52cba1",
      "version": 1,
      "size": 135,
      "vsize": 135,
      "weight": 540,
      "locktime": 0,
      "vin": [
        {
          "coinbase": "04ffff001d02f903",
          "sequence": 4294967295
        }
      ],
      "vout": [
        {
          "value": 50.0,
          "n": 0,
          "scriptPubKey": {
            "asm": "04392f1f24e73577104054e9ca7abd5a8f54b545270beeb61aaf87994240461d97d2cb047bf782089ba4b869146a3d9bdfca72c667ea1797eb67018a7ab61e77d7 OP_CHECKSIG",
            "desc": "pk(04392f1f24e73577104054e9ca7abd5a8f54b545270beeb61aaf87994240461d97d2cb047bf782089ba4b869146a3d9bdfca72c667ea1797eb67018a7ab61e77d7)#6znelh87",
            "hex": "4104392f1f24e73577104054e9ca7abd5a8f54b545270beeb61aaf87994240461d97d2cb047bf782089ba4b869146a3d9bdfca72c667ea1797eb67018a7ab61e77d7ac",
            "type": "pubkey"
          }
        }
      ],
      "hex": "01000000010000000000000000000000000000000000000000000000000000000000000000ffffffff0804ffff001d02f903ffffffff0100f2052a01000000434104392f1f24e73577104054e9ca7abd5a8f54b545270beeb61aaf87994240461d97d2cb047bf782089ba4b869146a3d9bdfca72c667ea1797eb67018a7ab61e77d7ac00000000"
    }
  ]
}