{
  "hash": "000000006401b8f289c114b1c11b97eaab640b06cf977144b34bf0eaa69aee81",
  "confirmations": 43576,
  "height": 9522,
  "version": 1,
  "versionHex": "00000001",
  "merkleroot": "55a5f8b99b646bc1518b350517bdd75d51ad012bffc07c214fe577a204ce6bc4",
  "time": 1238642827,
  "mediantime": 1238639359,
  "nonce": 2053222690,
  "bits": "1d00ffff",
  "difficulty": 1,
  "chainwork": "0000000000000000000000000000000000000000000000000000253325332533",
  "nTx": 1,
  "previousblockhash": "00000000659e1402f1cdf3d2fd94065369e5cde43d6a00b6b5edcff01db50000",
  "nextblockhash": "00000000b5c402362622742217dcbf6488bb7f6cd6f3712eaef85c1734f657d7",
  "strippedsize": 216,
  "size": 216,
  "weight": 864,
  "tx": [
    {
      "txid": "55a5f8b99b646bc1518b350517bdd75d51ad012bffc07c214fe577a204ce6bc4",
      "hash": "55a5f8b99b646bc1518b350517bdd75d51ad012bffc07c214fe577a204ce6bc4",
      "version": 1,
      "size": 135,
      "vsize": 135,
      "weight": 540,
      "locktime": 0,
      "vin": [
        {
          "coinbase": "04ffff001d02a905",
          "sequence": 4294967295
        }
      ],
      "vout": [
        {
          "value": 50.0,
          "n": 0,
          "scriptPubKey": {
            "asm": "0432258994e1b11ba28ee42cea610e137db82774ba981cb41f5d3b27ecfc1198e90f7c92b9cac249cad5ccc8341a37d21fd637d7a4687975eb4070aaf189eda3c1 OP_CHECKSIG",
            "desc": "pk(0432258994e1b11ba28ee42cea610e137db82774ba981cb41f5d3b27ecfc1198e90f7c92b9cac249cad5ccc8341a37d21fd637d7a4687975eb4070aaf189eda3c1)#6gugwn83",
            "hex": "410432258994e1b11ba28ee42cea610e137db82774ba981cb41f5d3b27ecfc1198e90f7c92b9cac249cad5ccc8341a37d21fd637d7a4687975eb4070aaf189eda3c1ac",
            "type": "pubkey"
          }
        }
      ],
      "hex": "01000000010000000000000000000000000000000000000000000000000000000000000000ffffffff0804ffff001d02a905ffffffff0100f2052a0100000043410432258994e1b11ba28ee42cea610e137db82774ba981cb41f5d3b27ecfc1198e90f7c92b9cac249cad5ccc8341a37d21fd637d7a4687975eb4070aaf189eda3c1ac00000000"
    }
  ]
}