{
  "hash": "000000002d099cb0497257d14889b8291cf70642f41d3c4784e15d16b65dd961",
  "confirmations": 47088,
  "height": 6010,
  "version": 1,
  "versionHex": "00000001",
  "merkleroot": "d51504d7bd442c70c1fc1315165e479b7c951b8eea722adbe743f1edbf0d2d8d",
  "time": 1235933574,
  "mediantime": 1235930393,
  "nonce": 2941109530,
  "bits": "1d00ffff",
  "difficulty": 1,
  "chainwork": "0000000000000000000000000000000000000000000000000000177b177b177b",
  "nTx": 1,
  "previousblockhash": "0000000054c76b6f6f5281bec251577475cc500fc2f754a3e58985752e6cee12",
  "nextblockhash": "000000005a9badf2cdd1e57a1dc8ed30ecad795976af5788f4deda3b5b2b632e",
  "strippedsize": 216,
  "size": 216,
  "weight": 864,
  "tx": [
    {
      "txid": "d51504d7bd442c70c1fc1315165e479b7c951b8eea722adbe743f1edbf0d2d8d",
      "hash": "d51504d7bd442c70c1fc1315165e479b7c951b8eea722adbe743f1edbf0d2d8d",
      "version": 1,
      "size": 135,
      "vsize": 135,
      "weight": 540,
      "locktime": 0,
      "vin": [
        {
          "coinbase": "04ffff001d021405",
          "sequence": 4294967295
        }
      ],
      "vout": [
        {
          "value": 50.0,
          "n": 0,
          "scriptPubKey": {
            "asm": "04c20531f16587ffb0b9a82a564ee7e45889f5a187c6c7c55f36b3bad3dd9022e3ea09fb218445c91a1f4453763ff94fdeb2b330942ca481a04043fcf928c16f90 OP_CHECKSIG",
            "desc": "pk(04c20531f16587ffb0b9a82a564ee7e45889f5a187c6c7c55f36b3bad3dd9022e3ea09fb218445c91a1f4453763ff94fdeb2b330942ca481a04043fcf928c16f90)#g6tp09qp",
            "hex": "4104c20531f16587ffb0b9a82a564ee7e45889f5a187c6c7c55f36b3bad3dd9022e3ea09fb218445c91a1f4453763ff94fdeb2b330942ca481a04043fcf928c16f90ac",
            "type": "pubkey"
          }
        }
      ],
      "hex": "01000000010000000000000000000000000000000000000000000000000000000000000000ffffffff0804ffff001d021405ffffffff0100f2052a01000000434104c20531f16587ffb0b9a82a564ee7e45889f5a187c6c7c55f36b3bad3dd9022e3ea09fb218445c91a1f4453763ff94fdeb2b330942ca481a04043fcf928c16f90ac00000000"
    }
  ]
}