{
  "hash": "0000000091a7488531bb1050f24c0f8f90d4da873673eb4dec62bbce56a32910",
  "confirmations": 50498,
  "height": 2600,
  "version": 1,
  "versionHex": "00000001",
  "merkleroot": "070406d6120becc423ed0d079dd03f4294be03f908cb0fa08d6b26cc7c3575c3",
  "time": 1233495650,
  "mediantime": 1233492101,
  "nonce": 51902729,
  "bits": "1d00ffff",
  "difficulty": 1,
  "chainwork": "00000000000000000000000000000000000000000000000000000a290a290a29",
  "nTx": 1,
  "previousblockhash": "00000000d96cd57bf653812f5a3126a14ea39b089e4afa71e67e9a8bbed6a433",
  "nextblockhash": "000000001ef2ee83e0a9e851bae4530566ba9353e89a7f814cef7bb36fc99641",
  "strippedsize": 215,
  "size": 215,
  "weight": 860,
  "tx": [
    {
      "txid": "070406d6120becc423ed0d079dd03f4294be03f908cb0fa08d6b26cc7c3575c3",
      "hash": "070406d6120becc423ed0d079dd03f4294be03f908cb0fa08d6b26cc7c3575c3",
      "version": 1,
      "size": 134,
      "vsize": 134,
      "weight": 536,
      "locktime": 0,
      "vin": [
        {
          "coinbase": "04ffff001d015a",
          "sequence": 4294967295
        }
      ],
      "vout": [
        {
          "value": 50.0,
          "n": 0,
          "scriptPubKey": {
            "asm": "047779b49303421becaaf1aaac4a02c68cb658d638127095e8cfd6436bc48b289e48ee4212e80800c73916e09f655fa5d92c55ccfce9448c9ee32ce8cfb3a7b954 OP_CHECKSIG",
            "desc": "pk(047779b49303421becaaf1aaac4a02c68cb658d638127095e8cfd6436bc48b289e48ee4212e80800c73916e09f655fa5d92c55ccfce9448c9ee32ce8cfb3a7b954)#k298pljk",
            "hex": "41047779b49303421becaaf1aaac4a02c68cb658d638127095e8cfd6436bc48b289e48ee4212e80800c73916e09f655fa5d92c55ccfce9448c9ee32ce8cfb3a7b954ac",
            "type": "pubkey"
          }
        }
      ],
      "hex": "01000000010000000000000000000000000000000000000000000000000000000000000000ffffffff0704ffff001d015affffffff0100f2052a010000004341047779b49303421becaaf1aaac4a02c68cb658d638127095e8cfd6436bc48b289e48ee4212e80800c73916e09f655fa5d92c55ccfce9448c9ee32ce8cfb3a7b954ac00000000"
    }
  ]
}