{
  "hash": "00000000f2362e437c5bc6410cc3c3b57a1dea9550891501f9e009e7779dddb4",
  "confirmations": 45303,
  "height": 7795,
  "version": 1,
  "versionHex": "00000001",
  "merkleroot": "8f9cc16d7babbe4f389108ea92dbe2996b8503f3c0abefba6ea677064a56f519",
  "time": 1237309572,
  "mediantime": 1237303745,
  "nonce": 2328547351,
  "bits": "1d00ffff",
  "difficulty": 1,
  "chainwork": "00000000000000000000000000000000000000000000000000001e741e741e74",
  "nTx": 1,
  "previousblockhash": "000000001ee69e4335116867458b75063b19839bf2465da0c52e844e9b295e03",
  "nextblockhash": "00000000514198be63643dfa4290fcf008a64b4550b08695016802848f872feb",
  "strippedsize": 216,
  "size": 216,
  "weight": 864,
  "tx": [
    {
      "txid": "8f9cc16d7babbe4f389108ea92dbe2996b8503f3c0abefba6ea677064a56f519",
      "hash": "8f9cc16d7babbe4f389108ea92dbe2996b8503f3c0abefba6ea677064a56f519",
      "version": 1,
      "size": 135,
      "vsize": 135,
      "weight": 540,
      "locktime": 0,
      "vin": [
        {
          "coinbase": "04ffff001d02bb05",
          "sequence": 4294967295
        }
      ],
      "vout": [
        {
          "value": 50.0,
          "n": 0,
          "scriptPubKey": {
            "asm": "040223586e118a6894bc3db1d738c5f1bfa5dec0f9bb2fe162b4500f1cfb13495e586c9927173d5a9d4c63541dca115176154c71803c99d4ae5fe764b3d301e689 OP_CHECKSIG",
            "desc": "pk(040223586e118a6894bc3db1d738c5f1bfa5dec0f9bb2fe162b4500f1cfb13495e586c9927173d5a9d4c63541dca115176154c71803c99d4ae5fe764b3d301e689)#at3uepz6",
            "hex": "41040223586e118a6894bc3db1d738c5f1bfa5dec0f9bb2fe162b4500f1cfb13495e586c9927173d5a9d4c63541dca115176154c71803c99d4ae5fe764b3d301e689ac",
            "type": "pubkey"
          }
        }
      ],
      "hex": "01000000010000000000000000000000000000000000000000000000000000000000000000ffffffff0804ffff001d02bb05ffffffff0100f2052a010000004341040223586e118a6894bc3db1d738c5f1bfa5dec0f9bb2fe162b4500f1cfb13495e586c9927173d5a9d4c63541dca115176154c71803c99d4ae5fe764b3d301e689ac00000000"
    }
  ]
}