{
  "hash": "0000000098bfd61780bc4f6eabc8807fde1fba85acc9f4c2fd27a680ff51d36c",
  "confirmations": 46650,
  "height": 6448,
  "version": 1,
  "versionHex": "00000001",
  "merkleroot": "04f559854ea8a71d52ef70cebb5f1d70adb22d71c3de6f68ad4f2db5830e28d7",
  "time": 1236292433,
  "mediantime": 1236288323,
  "nonce": 280170629,
  "bits": "1d00ffff",
  "difficulty": 1,
  "chainwork": "0000000000000000000000000000000000000000000000000000193119311931",
  "nTx": 1,
  "previousblockhash": "000000005b5b539f6ed5b14ad19e716deca5f5dcc4f9863ed0d46cd1a71954ba",
  "nextblockhash": "00000000220fe55388d2f9369fc9a71a464fe4ad7f681adddd70aafbf231342f",
  "strippedsize": 215,
  "size": 215,
  "weight": 860,
  "tx": [
    {
      "txid": "04f559854ea8a71d52ef70cebb5f1d70adb22d71c3de6f68ad4f2db5830e28d7",
      "hash": "04f559854ea8a71d52ef70cebb5f1d70adb22d71c3de6f68ad4f2db5830e28d7",
      "version": 1,
      "size": 134,
      "vsize": 134,
      "weight": 536,
      "locktime": 0,
      "vin": [
        {
          "coinbase": "04ffff001d0102",
          "sequence": 4294967295
        }
      ],
      "vout": [
        {
          "value": 50.0,
          "n": 0,
          "scriptPubKey": {
            "asm": "049d4c1f7a17001285eacceb204d513a8eeb9dfe76abed67baee70abe755b04e6132c5a754361268c1803bd6e549de898284419b9e550f07154caba2b04e1cf106 OP_CHECKSIG",
            "desc": "pk(049d4c1f7a17001285eacceb204d513a8eeb9dfe76abed67baee70abe755b04e6132c5a754361268c1803bd6e549de898284419b9e550f07154caba2b04e1cf106)#ql0zqdd8",
            "hex": "41049d4c1f7a17001285eacceb204d513a8eeb9dfe76abed67baee70abe755b04e6132c5a754361268c1803bd6e549de898284419b9e550f07154caba2b04e1cf106ac",
            "type": "pubkey"
          }
        }
      ],
      "hex": "01000000010000000000000000000000000000000000000000000000000000000000000000ffffffff0704ffff001d0102ffffffff0100f2052a010000004341049d4c1f7a17001285eacceb204d513a8eeb9dfe76abed67baee70abe755b04e6132c5a754361268c1803bd6e549de898284419b9e550f07154caba2b04e1cf106ac00000000"
    }
  ]
}