{
  "hash": "000000005b37df00a1d72b9d508e4ea84e3414af18a7bf559d8c10e05b84f7a7",
  "confirmations": 49441,
  "height": 3657,
  "version": 1,
  "versionHex": "00000001",
  "merkleroot": "2cefdde3c153dca5be9e99939ff2310ff9514b0a1ac667dc7b8bd79e93b4b0c8",
  "time": 1234206417,
  "mediantime": 1234204426,
  "nonce": 87537968,
  "bits": "1d00ffff",
  "difficulty": 1,
  "chainwork": "00000000000000000000000000000000000000000000000000000e4a0e4a0e4a",
  "nTx": 1,
  "previousblockhash": "00000000c215d8733939476265aa55736bbe20081fcec05a9d271ab3f7b7245a",
  "nextblockhash": "000000005be369c9ba2987d4be251b8391aae04f72a49567629cab56b10808a8",
  "strippedsize": 216,
  "size": 216,
  "weight": 864,
  "tx": [
    {
      "txid": "2cefdde3c153dca5be9e99939ff2310ff9514b0a1ac667dc7b8bd79e93b4b0c8",
      "hash": "2cefdde3c153dca5be9e99939ff2310ff9514b0a1ac667dc7b8bd79e93b4b0c8",
      "version": 1,
      "size": 135,
      "vsize": 135,
      "weight": 540,
      "locktime": 0,
      "vin": [
        {
          "coinbase": "04ffff001d02db06",
          "sequence": 4294967295
        }
      ],
      "vout": [
        {
          "value": 50.0,
          "n": 0,
          "scriptPubKey": {
            "asm": "042f4a0e4c54804476d2bc5d422a05de0648208948910a1b3874a9e7d66afe930b4345c2813aaaa34ac3c4a085ca0ae38015d64e78d246dc3e8f80a33904eb8774 OP_CHECKSIG",
            "desc": "pk(042f4a0e4c54804476d2bc5d422a05de0648208948910a1b3874a9e7d66afe930b4345c2813aaaa34ac3c4a085ca0ae38015d64e78d246dc3e8f80a33904eb8774)#tfsg3eyh",
            "hex": "41042f4a0e4c54804476d2bc5d422a05de0648208948910a1b3874a9e7d66afe930b4345c2813aaaa34ac3c4a085ca0ae38015d64e78d246dc3e8f80a33904eb8774ac",
            "type": "pubkey"
          }
        }
      ],
      "hex": "01000000010000000000000000000000000000000000000000000000000000000000000000ffffffff0804ffff001d02db06ffffffff0100f2052a010000004341042f4a0e4c54804476d2bc5d422a05de0648208948910a1b3874a9e7d66afe930b4345c2813aaaa34ac3c4a085ca0ae38015d64e78d246dc3e8f80a33904eb8774ac00000000"
    }
  ]
}