{
  "hash": "00000000ae3db442aef095688e15e2179999112106236e3622458577f2522a5c",
  "confirmations": 49261,
  "height": 3837,
  "version": 1,
  "versionHex": "00000001",
  "merkleroot": "fcf7b07c38f91bdea1c688402b0512386d24438c475add39e0a0c771c23d5b1b",
  "time": 1234327274,
  "mediantime": 1234325106,
  "nonce": 332857121,
  "bits": "1d00ffff",
  "difficulty": 1,
  "chainwork": "00000000000000000000000000000000000000000000000000000efe0efe0efe",
  "nTx": 1,
  "previousblockhash": "00000000e26d786351dd5c6926f1b04a54e8f7fd4a7c81cec40db01505b143ee",
  "nextblockhash": "000000001bfed3b7ec2c1326ce2fb6a932fa2c4a22f1c06c6893b241d75c66b1",
  "strippedsize": 216,
  "size": 216,
  "weight": 864,
  "tx": [
    {
      "txid": "fcf7b07c38f91bdea1c688402b0512386d24438c475add39e0a0c771c23d5b1b",
      "hash": "fcf7b07c38f91bdea1c688402b0512386d24438c475add39e0a0c771c23d5b1b",
      "version": 1,
      "size": 135,
      "vsize": 135,
      "weight": 540,
      "locktime": 0,
      "vin": [
        {
          "coinbase": "04ffff001d02c901",
          "sequence": 4294967295
        }
      ],
      "vout": [
        {
          "value": 50.0,
          "n": 0,
          "scriptPubKey": {
            "asm": "0458d46b395493b8443deafa2b59fedfe0b7fcb7d2c6e1a0c177623c11d14903bb1a3b9668312f1f08e9433d716ccf6903974873b8d8f97f57f95d2c925fa2856c OP_CHECKSIG",
            "desc": "pk(0458d46b395493b8443deafa2b59fedfe0b7fcb7d2c6e1a0c177623c11d14903bb1a3b9668312f1f08e9433d716ccf6903974873b8d8f97f57f95d2c925fa2856c)#ltyrdgkh",
            "hex": "410458d46b395493b8443deafa2b59fedfe0b7fcb7d2c6e1a0c177623c11d14903bb1a3b9668312f1f08e9433d716ccf6903974873b8d8f97f57f95d2c925fa2856cac",
            "type": "pubkey"
          }
        }
      ],
      "hex": "01000000010000000000000000000000000000000000000000000000000000000000000000ffffffff0804ffff001d02c901ffffffff0100f2052a0100000043410458d46b395493b8443deafa2b59fedfe0b7fcb7d2c6e1a0c177623c11d14903bb1a3b9668312f1f08e9433d716ccf6903974873b8d8f97f57f95d2c925fa2856cac00000000"
    }
  ]
}