{
  "hash": "000000009dc6fb77901a725e54e43cd61a5b96b23c60a76ea62ad186daa83c0d",
  "confirmations": 45421,
  "height": 7677,
  "version": 1,
  "versionHex": "00000001",
  "merkleroot": "a4c4180f964c0dbc6052f84cce75651e9d6167f2f69bb8d8336215ae91723857",
  "time": 1237221615,
  "mediantime": 1237218777,
  "nonce": 2156598784,
  "bits": "1d00ffff",
  "difficulty": 1,
  "chainwork": "00000000000000000000000000000000000000000000000000001dfe1dfe1dfe",
  "nTx": 2,
  "previousblockhash": "000000007af9c512fabf297e811f7bc63230e165745fcff33f192f8cdae15a4c",
  "nextblockhash": "0000000054c0a09c2e117a91de7d8ef14622401ce819f8b3311356b3feddb373",
  "strippedsize": 5727,
  "size": 5727,
  "weight": 22908,
  "tx": [
    {
      "txid": "62cdd3bc30b01a44dcbf114d2129f6533967ece7d77e22bfe6ec627c33b11786",
      "hash": "62cdd3bc30b01a44dcbf114d2129f6533967ece7d77e22bfe6ec627c33b11786",
      "version": 1,
      "size": 135,
      "vsize": 135,
      "weight": 540,
      "locktime": 0,
      "vin": [
        {
          "coinbase": "04ffff001d02bd03",
          "sequence": 4294967295
        }
      ],
      "vout": [
        {
          "value": 50.0,
          "n": 0,
          "scriptPubKey": {
            "asm": "04e7b4a061e27a7d399f64660839ffc61db4ad471b7ea6074abf2e78c0f850400958cf24d119ebc5b79755d75092e99f30c2f17536aa152bdc6217748c2b434d9b OP_CHECKSIG",
            "desc": "pk(04e7b4a061e27a7d399f64660839ffc61db4ad471b7ea6074abf2e78c0f850400958cf24d119ebc5b79755d75092e99f30c2f17536aa152bdc6217748c2b434d9b)#6j20k38e",
            "hex": "4104e7b4a061e27a7d399f64660839ffc61db4ad471b7ea6074abf2e78c0f850400958cf24d119ebc5b79755d75092e99f30c2f17536aa152bdc6217748c2b434d9bac",
            "type": "pubkey"
          }
        }
      ],
      "hex": "01000000010000000000000000000000000000000000000000000000000000000000000000ffffffff0804ffff001d02bd03ffffffff0100f2052a01000000434104e7b4a061e27a7d399f64660839ffc61db4ad471b7ea6074abf2e78c0f850400958cf24d119ebc5b79755d75092e99f30c2f17536aa152bdc6217748c2b434d9bac00000000"
    },
    {
      "txid": "e6f00fa63eb6b8e812ac3c591871203cae971d480c1469fc5ce88932cd3ec26c",
      "hash": "e6f00fa63eb6b8e812ac3c591871203cae971d480c1469fc5ce88932cd3ec26c",
      "version": 1,
      "size": 5511,
      "vsize": 5511,
      "weight": 22044,
      "locktime": 0,
      "vin": [
        {
          "txid": "d15b4a2dee21da8652dd375e1ea656fdd133634ba0411ad51e82361d3fd16f05",
          "vout": 0,
          "scriptSig": {
            "asm": "3046022100db8a9b1e6ef9d618c88f1865ba13c3f03ff531bae219dfaee247279680e6d6b3022100f38896003daf8dfc9d7d7d947d2b067e3e9611af92fb918dd5618002e163493f[ALL]",
            "hex": "493046022100db8a9b1e6ef9d618c88f1865ba13c3f03ff531bae219dfaee247279680e6d6b3022100f38896003daf8dfc9d7d7d947d2b067e3e9611af92fb918dd5618002e163493f01"
          },
          "sequence": 4294967295
        },
        {
          "txid": "49ee8b7eca7f2ade90ef1896d1b583bfe23e55e639d02d4b004a742ad6cb2b0c",
          "vout": 0,
          "scriptSig": {
            "asm": "3046022100ad1830c8dbbe9abb06e8fd85921afec97d314b592c9c8c95e01a86b44ee1192e02210088edb4b5826aff49c070bcbbcc46e17e6328f41804438da567e04e06f7425525[ALL]",
            "hex": "493046022100ad1830c8dbbe9abb06e8fd85921afec97d314b592c9c8c95e01a86b44ee1192e02210088edb4b5826aff49c070bcbbcc46e17e6328f41804438da567e04e06f742552501"
          },
          "sequence": 4294967295
        },
        {
          "txid": "df492dbd36dce6fad73c6e9f00602e15c69502daeada4049b5b64d9610fbae0e",
          "vout": 0,
          "scriptSig": {
            "asm": "3045022100d5ff381e3800826f443fe47e18e8b5f73bb22ba0cf882743274cea5edb68c9d602206b4699b130a159cbcc55820f049b7cbade037373c37af34e6842f6fceea9a8a7[ALL]",
            "hex": "483045022100d5ff381e3800826f443fe47e18e8b5f73bb22ba0cf882743274cea5edb68c9d602206b4699b130a159cbcc55820f049b7cbade037373c37af34e6842f6fceea9a8a701"
          },
          "sequence": 4294967295
        },
        {
          "txid": "db24c4baac40570b954baab1a0c5759ba5dbfc660235d7220947fedc961acd10",
          "vout": 0,
          "scriptSig": {
            "asm": "304502204f40f9ce48d45a825c9baf600f8a03900af5763b511fcb659c9e5aba7f7ba9a0022100bf5e1d92c9d810c63101ccbf4a2f0713aa6ab921c7d1bcd6e9b2d505014211e6[ALL]",
            "hex": "48304502204f40f9ce48d45a825c9baf600f8a03900af5763b511fcb659c9e5aba7f7ba9a0022100bf5e1d92c9d810c63101ccbf4a2f0713aa6ab921c7d1bcd6e9b2d505014211e601"
          },
          "sequence": 4294967295
        },
        {
          "txid": "4077cbcb85e02f6e628c952626e2709dd8a4a3aee94c715f6eaaaeeed55b4a11",
          "vout": 0,
          "scriptSig": {
            "asm": "3046022100ea303caad8df7eb5a92ae5b8215a46de9d70df61efaf543e1a59d07025d9b310022100c1722b8b7266e6d02fc6d02f9d916028f8f7564be4fadafc77fa9e73981e643b[ALL]",
            "hex": "493046022100ea303caad8df7eb5a92ae5b8215a46de9d70df61efaf543e1a59d07025d9b310022100c1722b8b7266e6d02fc6d02f9d916028f8f7564be4fadafc77fa9e73981e643b01"
          },
          "sequence": 4294967295
        },
        {
          "txid": "540280ec8fe43a497e24dbc888c967c6d8ab64e8edc7e2e60c4c15bc32a0092a",
          "vout": 0,
          "scriptSig": {
            "asm": "3045022100cfbe5aa1226b112e4d637a6aea516beaf04f2dbd3685031d1daadfdd58a32c1502203318c48816c79d0f4465c04e365deffd1dd45a2c843eb94ea090267df5955bc9[ALL]",
            "hex": "483045022100cfbe5aa1226b112e4d637a6aea516beaf04f2dbd3685031d1daadfdd58a32c1502203318c48816c79d0f4465c04e365deffd1dd45a2c843eb94ea090267df5955bc901"
          },
          "sequence": 4294967295
        },
        {
          "txid": "6e238e383d80d16e07dbf67712e44f76b8e6a96bcdecc81a847f25357e35062e",
          "vout": 0,
          "scriptSig": {
            "asm": "304402205f79886d1bee8434bb652dbba3bc640923f315030625939d8be525aa27a437bb02207dc9b0b5eeafaa002083cb7f5cf09ca584d52e09492d00e60fa0554db90b474b[ALL]",
            "hex": "47304402205f79886d1bee8434bb652dbba3bc640923f315030625939d8be525aa27a437bb02207dc9b0b5eeafaa002083cb7f5cf09ca584d52e09492d00e60fa0554db90b474b01"
          },
          "sequence": 4294967295
        },
        {
          "txid": "58fc93bccb2b1b5078c15e9e3f3dd5ea4156a26362f081f328903059786ee036",
          "vout": 0,
          "scriptSig": {
            "asm": "304502206630dc07a3a890e539f8de1c1cb1aebf17af3f3b20d84b1edcace92241dfe1730221009033dac978a7f2941895dc4fbf9845f05511af3cf2c97aed5d5d3e9df3ab3b19[ALL]",
            "hex": "48304502206630dc07a3a890e539f8de1c1cb1aebf17af3f3b20d84b1edcace92241dfe1730221009033dac978a7f2941895dc4fbf9845f05511af3cf2c97aed5d5d3e9df3ab3b1901"
          },
          "sequence": 4294967295
        },
        {
          "txid": "ebabd8ad0b1135a7dc098f0554d16a4cdc141a925c2b0f14eac4d00bc288c01f",
          "vout": 0,
          "scriptSig": {
            "asm": "304402207c38f0f21f37545801b477f05b439334c4d3d21c5bf5266f98d7c3a24cbff712022074ed9a2fde284d39c49835cd7260432e776fe07ad75e7195c0b60ad7d38311c4[ALL]",
            "hex": "47304402207c38f0f21f37545801b477f05b439334c4d3d21c5bf5266f98d7c3a24cbff712022074ed9a2fde284d39c49835cd7260432e776fe07ad75e7195c0b60ad7d38311c401"
          },
          "sequence": 4294967295
        },
        {
          "txid": "1f9de336cdaa104bb140c9dbc18af951fe97ed3e7dcfff366ce5abb3e4b07423",
          "vout": 0,
          "scriptSig": {
            "asm": "304502203e31d6ac042b856cd7c41dabbd61e449d15910b72a210c9f980ba506252ed270022100c9b52b54e7c9799a2d5fcd16a23d4da96b3caa1dfb329c00ab9ee94c2f31f196[ALL]",
            "hex": "48304502203e31d6ac042b856cd7c41dabbd61e449d15910b72a210c9f980ba506252ed270022100c9b52b54e7c9799a2d5fcd16a23d4da96b3caa1dfb329c00ab9ee94c2f31f19601"
          },
          "sequence": 4294967295
        },
        {
          "txid": "d808d58283dde2b770f667cab105706c58589174281dade6fca94fe1e9b9e525",
          "vout": 0,
          "scriptSig": {
            "asm": "3046022100b5f58d09d9adb9374e409aa5cc25d83b2ee54c1f1a37a9f7f3856f2ea0af7da1022100ae9cb2c68817e5449876ad718f521805bb5a8288603d9dd6333642d6adc4853b[ALL]",
            "hex": "493046022100b5f58d09d9adb9374e409aa5cc25d83b2ee54c1f1a37a9f7f3856f2ea0af7da1022100ae9cb2c68817e5449876ad718f521805bb5a8288603d9dd6333642d6adc4853b01"
          },
          "sequence": 4294967295
        },
        {
          "txid": "de5282eecc9ba810dcc380ed28fb32b8793644b81b0480f490a3ab48f7fc3e3d",
          "vout": 0,
          "scriptSig": {
            "asm": "3045022100baea9a347b83bea63adc10bafc8cd0e87fb2de225915431836bd6fbe65f1d86a02206bb21425ca614a502d220ccc9e2e3850ae59ba8cf1c79a8c56e0ba4fe4edff22[ALL]",
            "hex": "483045022100baea9a347b83bea63adc10bafc8cd0e87fb2de225915431836bd6fbe65f1d86a02206bb21425ca614a502d220ccc9e2e3850ae59ba8cf1c79a8c56e0ba4fe4edff2201"
          },
          "sequence": 4294967295
        },
        {
          "txid": "a286552b4152530c86130e96deaf37da1ec00b685aae583e9ae67d755d52ba46",
          "vout": 0,
          "scriptSig": {
            "asm": "304402201e228fd403effc28892da107e78e009c3456d7e6bdbf66e46735c5d4ad624b3f0220352205af60b89eeca8161cef54c907eb81b00b74d08bdcdc995cc32b139f1acf[ALL]",
            "hex": "47304402201e228fd403effc28892da107e78e009c3456d7e6bdbf66e46735c5d4ad624b3f0220352205af60b89eeca8161cef54c907eb81b00b74d08bdcdc995cc32b139f1acf01"
          },
          "sequence": 4294967295
        },
        {
          "txid": "8fa196979c183f42c8a96e12dedf1547b91c0e393634c2f08f644c9d4d7cd748",
          "vout": 0,
          "scriptSig": {
            "asm": "3045022009e700667a5812cf570efb1a8324ae37f10c57194e886d683d17972587ced471022100c411363b16f50620fe8fc909250af2deb940f5b2c16e989e02551edf8c6b8ae4[ALL]",
            "hex": "483045022009e700667a5812cf570efb1a8324ae37f10c57194e886d683d17972587ced471022100c411363b16f50620fe8fc909250af2deb940f5b2c16e989e02551edf8c6b8ae401"
          },
          "sequence": 4294967295
        },
        {
          "txid": "930226f65d7823bdc67b9bec1075ef86feb532789c0135ea5991d8ec0f7ea74e",
          "vout": 0,
          "scriptSig": {
            "asm": "304402200591324b624eb3673e0cdca344a16014a912373be6689dcfda5555cebcdeb2e802203cb25c0676f3bc45735e847e795e21c1d56e2d4de3ef4b7f0e50692cb10fb331[ALL]",
            "hex": "47304402200591324b624eb3673e0cdca344a16014a912373be6689dcfda5555cebcdeb2e802203cb25c0676f3bc45735e847e795e21c1d56e2d4de3ef4b7f0e50692cb10fb33101"
          },
          "sequence": 4294967295
        },
        {
          "txid": "152b3bfa27e3beb9bcd08c3479eb400a0ac86183693d475324125c39eb1d9657",
          "vout": 0,
          "scriptSig": {
            "asm": "3045022056eb06fbd0f724e82e65145dfd5fde1a4ed6f162a9d97a730a84fe652952d2e6022100e17e1c0c7222f1463e4ee3ae00c0e8f414809d09a24c8a95c0dd30923e2dd609[ALL]",
            "hex": "483045022056eb06fbd0f724e82e65145dfd5fde1a4ed6f162a9d97a730a84fe652952d2e6022100e17e1c0c7222f1463e4ee3ae00c0e8f414809d09a24c8a95c0dd30923e2dd60901"
          },
          "sequence": 4294967295
        },
        {
          "txid": "1ea41a16df0351ee72153e79e14ce5307cb2a85bab7d0da96dbf8925215b8e5b",
          "vout": 0,
          "scriptSig": {
            "asm": "304502205c731ace9507b0efa513a6154ee3d34a24ab2c9c4acac8a47ea2cf25273f9e77022100b123c56a09c270d4c21ecb68b1bb429f8f6416b8062d9013c643d061602787ec[ALL]",
            "hex": "48304502205c731ace9507b0efa513a6154ee3d34a24ab2c9c4acac8a47ea2cf25273f9e77022100b123c56a09c270d4c21ecb68b1bb429f8f6416b8062d9013c643d061602787ec01"
          },
          "sequence": 4294967295
        },
        {
          "txid": "1028a8439d86a7e16fdcad141a407980a6c6fb2b3452e5c628438499dc17ca5b",
          "vout": 0,
          "scriptSig": {
            "asm": "304502201478300a818ad0c9e31c662c7b7e566d2ef5725899a48df3bd4653e7e062410302210097edbd4f2b5e134fcc43b73806694b0602e4e3f83d898c4fd9e1626fb3b0614a[ALL]",
            "hex": "48304502201478300a818ad0c9e31c662c7b7e566d2ef5725899a48df3bd4653e7e062410302210097edbd4f2b5e134fcc43b73806694b0602e4e3f83d898c4fd9e1626fb3b0614a01"
          },
          "sequence": 4294967295
        },
        {
          "txid": "24b16346cfe2d7b95e10c140470b5bd45a507e7e0f8d282368ccb5b4727c255d",
          "vout": 0,
          "scriptSig": {
            "asm": "3045022100d85139d7a1312aab26a2446adc79160b8274e093fcada0d768715ab62df7102e0220770fa2887ef721a79ccf16481e66bdc3fbfbeaec07b91636ed1420489a001125[ALL]",
            "hex": "483045022100d85139d7a1312aab26a2446adc79160b8274e093fcada0d768715ab62df7102e0220770fa2887ef721a79ccf16481e66bdc3fbfbeaec07b91636ed1420489a00112501"
          },
          "sequence": 4294967295
        },
        {
          "txid": "91299e4940e66465ae09da447827740c2f31894ba21451179938c60cda662d5d",
          "vout": 0,
          "scriptSig": {
            "asm": "3044022024ec052817ea7015454bfcf1a4ee72aa18da443995cb64df1cac723ff89e8b280220160b017c1c7ad3c6c7d2d48595d7383f7167b06e94329a48c50600e55eae292e[ALL]",
            "hex": "473044022024ec052817ea7015454bfcf1a4ee72aa18da443995cb64df1cac723ff89e8b280220160b017c1c7ad3c6c7d2d48595d7383f7167b06e94329a48c50600e55eae292e01"
          },
          "sequence": 4294967295
        },
        {
          "txid": "db2f526a2cc0a13501a9e7531dec35b2b169ea010cc5f482681b071da7a1825e",
          "vout": 0,
          "scriptSig": {
            "asm": "304402203dbe5ad986c7067e8e6628b315b56951f1c4809883ade592a1ce93cb7e7975f902203c9c65f69b8bb21d5b0e89b4a79806b087985843553138341809c389f69bbba4[ALL]",
            "hex": "47304402203dbe5ad986c7067e8e6628b315b56951f1c4809883ade592a1ce93cb7e7975f902203c9c65f69b8bb21d5b0e89b4a79806b087985843553138341809c389f69bbba401"
          },
          "sequence": 4294967295
        },
        {
          "txid": "30c45c1ee89c0b620aae272535d277e997b574e37c1e438ed6b79a7183ff1768",
          "vout": 0,
          "scriptSig": {
            "asm": "3045022100dcac07ee17ad467ee849536f76d81e2160ad8ca7e646984f04560a876772781d02200a5e5ece280da5bc1e4f59be4a8ae2e75a29d0ca8ee0ebcfde8023966f74ab5d[ALL]",
            "hex": "483045022100dcac07ee17ad467ee849536f76d81e2160ad8ca7e646984f04560a876772781d02200a5e5ece280da5bc1e4f59be4a8ae2e75a29d0ca8ee0ebcfde8023966f74ab5d01"
          },
          "sequence": 4294967295
        },
        {
          "txid": "3be0156dd59dcc4b52fd3f5ffe9ecee9e73063acb79c15f81d91c7f78c4c376a",
          "vout": 0,
          "scriptSig": {
            "asm": "304502203a18a6c6012a3a8281cbd9f785cb4617f81981b52c3dcbfa7102d918ac166aa8022100e69a36c8dbb61c65776eb579d4f7641a1c45b3765f39ef571bdfd8907906e528[ALL]",
            "hex": "48304502203a18a6c6012a3a8281cbd9f785cb4617f81981b52c3dcbfa7102d918ac166aa8022100e69a36c8dbb61c65776eb579d4f7641a1c45b3765f39ef571bdfd8907906e52801"
          },
          "sequence": 4294967295
        },
        {
          "txid": "e99408e189d80c5221ca740c2ece29eefd43c830a6ef86b07959dafb74c73471",
          "vout": 0,
          "scriptSig": {
            "asm": "304402206e51c0b8cb71fb44b734d9e861b262c4febf38e4d952a1c9b78db5d9ce30f0b602202756daca6f1e613e3c28bf71388d8ad913f1746000606165a8de2e669edc1839[ALL]",
            "hex": "47304402206e51c0b8cb71fb44b734d9e861b262c4febf38e4d952a1c9b78db5d9ce30f0b602202756daca6f1e613e3c28bf71388d8ad913f1746000606165a8de2e669edc183901"
          },
          "sequence": 4294967295
        },
        {
          "txid": "dfadfb6cd2c080a3eb62c1bdbe7e508ee2489a617cda6e32a295f33171e47d71",
          "vout": 0,
          "scriptSig": {
            "asm": "3045022050bfe6f0cd17819db64e2ce00cd53fe080056a5e7539ecc1dddeaa56cfd3e96f022100b13f37b4c7e7999a0e1c48014f6a730f2b7061ba1286319bacdb695ff837a15f[ALL]",
            "hex": "483045022050bfe6f0cd17819db64e2ce00cd53fe080056a5e7539ecc1dddeaa56cfd3e96f022100b13f37b4c7e7999a0e1c48014f6a730f2b7061ba1286319bacdb695ff837a15f01"
          },
          "sequence": 4294967295
        },
        {
          "txid": "a2130555be02b24ae8ed1f83d4e624b46038259e63742a9d1c88d0f00372c275",
          "vout": 0,
          "scriptSig": {
            "asm": "3044021f027ed3cdd3c6aaa6159ed2254218ed97803f8fea20a2455c2097935a7b3b1c022100f0c1ba673de9036939871403d5a6f06caa76d13cb0cf71afaf4b07366c873a24[ALL]",
            "hex": "473044021f027ed3cdd3c6aaa6159ed2254218ed97803f8fea20a2455c2097935a7b3b1c022100f0c1ba673de9036939871403d5a6f06caa76d13cb0cf71afaf4b07366c873a2401"
          },
          "sequence": 4294967295
        },
        {
          "txid": "f6cb2a4d0452173dfbee1b7fd5e1e33cb43a26cb2a4a5fe3447db6d667f15b7d",
          "vout": 0,
          "scriptSig": {
            "asm": "304502204ab2ba9a288ab7a00d61b702f9664669109ab1b5005af4e6523662a73a16d383022100bae93e054a680bd54b0eca3a2ee478ca0de5a0e69cb528a6f7e58d80c9b183eb[ALL]",
            "hex": "48304502204ab2ba9a288ab7a00d61b702f9664669109ab1b5005af4e6523662a73a16d383022100bae93e054a680bd54b0eca3a2ee478ca0de5a0e69cb528a6f7e58d80c9b183eb01"
          },
          "sequence": 4294967295
        },
        {
          "txid": "380d4201754f1f8d2608739e3f5843af42bd6429469ec5c3e79372270d85058f",
          "vout": 0,
          "scriptSig": {
            "asm": "3046022100db5b2542129a4a54b55752f0df8a12e84061ce00f6275579342c774a6252bdb3022100c07696bab38c506851ea16cf7569c057334b112a64dfaec5c1e70731f3502e67[ALL]",
            "hex": "493046022100db5b2542129a4a54b55752f0df8a12e84061ce00f6275579342c774a6252bdb3022100c07696bab38c506851ea16cf7569c057334b112a64dfaec5c1e70731f3502e6701"
          },
          "sequence": 4294967295
        },
        {
          "txid": "20991c6e78295f70fe355b5c419546d2763d302ef4c269bf08d107aae6fff195",
          "vout": 0,
          "scriptSig": {
            "asm": "3044022077b0908fba9c38b2d502d94e589b0d035feda0531636a5bb9c4dc5e8480f813e022016f9f21fd15ade9273ffd8ce8d58c951cb45b070e67fe6e50d6c84668375cafd[ALL]",
            "hex": "473044022077b0908fba9c38b2d502d94e589b0d035feda0531636a5bb9c4dc5e8480f813e022016f9f21fd15ade9273ffd8ce8d58c951cb45b070e67fe6e50d6c84668375cafd01"
          },
          "sequence": 4294967295
        },
        {
          "txid": "977b5718a04adefc06e2a8ccfb4c79900420ea32027df4663124f861dc5016a4",
          "vout": 0,
          "scriptSig": {
            "asm": "3045022100c9de4e68bb8e672453714988291971d6ecbe55ef5e0abedc224bf4228a2341e402204b4e8ac3115ffdf48a8c22b044b21cc116eb94f1949296352f78f801736aeb4f[ALL]",
            "hex": "483045022100c9de4e68bb8e672453714988291971d6ecbe55ef5e0abedc224bf4228a2341e402204b4e8ac3115ffdf48a8c22b044b21cc116eb94f1949296352f78f801736aeb4f01"
          },
          "sequence": 4294967295
        },
        {
          "txid": "a2c7e31f90fce616e10f5494c000e83eab10a29fd23e2ca738ad92cf450da9a7",
          "vout": 0,
          "scriptSig": {
            "asm": "30450220466410ed1dc30af7ac44c6b28780e8e19929e080e236d97cfba320966555da41022100ec135574b54e6c770bf270fdf6e4bbd4a5f59371c970ee02971b55c3d420c18c[ALL]",
            "hex": "4830450220466410ed1dc30af7ac44c6b28780e8e19929e080e236d97cfba320966555da41022100ec135574b54e6c770bf270fdf6e4bbd4a5f59371c970ee02971b55c3d420c18c01"
          },
          "sequence": 4294967295
        },
        {
          "txid": "b5c2b7a558a07d1157996a52bd081dbd8ba0e0e6ea7de8cfcae314d55bd5ada9",
          "vout": 0,
          "scriptSig": {
            "asm": "3046022100b379b7766008fa0184a50d6102827f784a9b3ccf82d1c14cd7d371fe63613a6e0221009e3f293ec756ff865097fc448b9c5939d26f01ccfeb75c951e050a153a52c964[ALL]",
            "hex": "493046022100b379b7766008fa0184a50d6102827f784a9b3ccf82d1c14cd7d371fe63613a6e0221009e3f293ec756ff865097fc448b9c5939d26f01ccfeb75c951e050a153a52c96401"
          },
          "sequence": 4294967295
        },
        {
          "txid": "21d70ddb6960e8389f3a877bc9181235efc8522ff995b60da240052aed4e09ac",
          "vout": 0,
          "scriptSig": {
            "asm": "30450220493117a9735094194c914f9da03badf76e458fc279eaf74aa1b5853213aacd36022100bd9cfbb69209833e5f4ddc35f0e9ffb49ece34905576f212482506756c9811ab[ALL]",
            "hex": "4830450220493117a9735094194c914f9da03badf76e458fc279eaf74aa1b5853213aacd36022100bd9cfbb69209833e5f4ddc35f0e9ffb49ece34905576f212482506756c9811ab01"
          },
          "sequence": 4294967295
        },
        {
          "txid": "63827242715e3b094c9d59a9cb24880da5ad1aff461ad561a0e440a269b2bbbe",
          "vout": 0,
          "scriptSig": {
            "asm": "3045022100e252ec8ca9d4dc975ec1d7ae4672a33f009f32fb6bfa6b02280ca5f833ba022c02201c3893c06fce2542479ff5c9e8233130fccfad95f77c6f633c08828a565da691[ALL]",
            "hex": "483045022100e252ec8ca9d4dc975ec1d7ae4672a33f009f32fb6bfa6b02280ca5f833ba022c02201c3893c06fce2542479ff5c9e8233130fccfad95f77c6f633c08828a565da69101"
          },
          "sequence": 4294967295
        },
        {
          "txid": "694c1d9d6b4bee58bd4d6d9a8657288f89830b15986e592fe13f7042458c00c1",
          "vout": 0,
          "scriptSig": {
            "asm": "304602210096e747116d2df223dded8602a813fcb248b2d1364c8f6cbfd4be76f11a4c9b420221008c1920f913ca464d39d8819bff8c0f0890e29cb597264f53c007f8eb79845ad2[ALL]",
            "hex": "49304602210096e747116d2df223dded8602a813fcb248b2d1364c8f6cbfd4be76f11a4c9b420221008c1920f913ca464d39d8819bff8c0f0890e29cb597264f53c007f8eb79845ad201"
          },
          "sequence": 4294967295
        },
        {
          "txid": "9305a3788e44e2f49b9cc8b3f1a4a4e184191510a236176581c0e2830a2b1fc1",
          "vout": 0,
          "scriptSig": {
            "asm": "30440220649590ae4a0ac91c3149aa91c3b4753ad72dec07f6fe03c7601d610d9d74fe7902206bdae1ca02fe58cb37e9b3e47c61307339c4eea8ec2ff9bd29f181cc9784a2ac[ALL]",
            "hex": "4730440220649590ae4a0ac91c3149aa91c3b4753ad72dec07f6fe03c7601d610d9d74fe7902206bdae1ca02fe58cb37e9b3e47c61307339c4eea8ec2ff9bd29f181cc9784a2ac01"
          },
          "sequence": 4294967295
        },
        {
          "txid": "5f1000811403fa28d155070953afa41748e9394b31aeb2e8e9830956abd708e4",
          "vout": 0,
          "scriptSig": {
            "asm": "304402207d6cb33aa704687dfaf107318d4480d1d11847b2d7ea949880f85e10c6f392b10220244576e921288abe756c93a6d1e91dbd3312906ee7aab9e0705f683f3b6eeb79[ALL]",
            "hex": "47304402207d6cb33aa704687dfaf107318d4480d1d11847b2d7ea949880f85e10c6f392b10220244576e921288abe756c93a6d1e91dbd3312906ee7aab9e0705f683f3b6eeb7901"
          },
          "sequence": 4294967295
        },
        {
          "txid": "1135861855ef9730ab81076b5444c531d7abafbd1c6d6f64009b64a5f6f32be4",
          "vout": 0,
          "scriptSig": {
            "asm": "3046022100f65ef96a0d8fe60285e712c5d173bd314a4ca44da1cd34c05199f2e80059729b022100f26484082114eb8016678d269491eb99d23a94df1afecfb4c885c179a722cb1d[ALL]",
            "hex": "493046022100f65ef96a0d8fe60285e712c5d173bd314a4ca44da1cd34c05199f2e80059729b022100f26484082114eb8016678d269491eb99d23a94df1afecfb4c885c179a722cb1d01"
          },
          "sequence": 4294967295
        },
        {
          "txid": "7fcf6b02f5278da6f44c8379675dd2a766bcdea207affdf34edd89a969fd1fe7",
          "vout": 0,
          "scriptSig": {
            "asm": "30460221008dd1ee647f31db8b7228cfaf2541086544ae4adaeee13e77365177f858336dc0022100aa59bbff25f2d855f26074374e36eb2dc37fb6621dbb0651a2403f303cba36bd[ALL]",
            "hex": "4930460221008dd1ee647f31db8b7228cfaf2541086544ae4adaeee13e77365177f858336dc0022100aa59bbff25f2d855f26074374e36eb2dc37fb6621dbb0651a2403f303cba36bd01"
          },
          "sequence": 4294967295
        },
        {
          "txid": "d0df77fe6ab0311c55124955a80b886dda27678a76f35f6197b8b0cab9d323ee",
          "vout": 0,
          "scriptSig": {
            "asm": "3045022100cd945fe45c5d5636474bb276a8e54915ed5ed4e90b90adcb1088a367104ddca00220566f895758552672d38d5c4c413441ea67b47b7c56687bcbac254cdad76e29e5[ALL]",
            "hex": "483045022100cd945fe45c5d5636474bb276a8e54915ed5ed4e90b90adcb1088a367104ddca00220566f895758552672d38d5c4c413441ea67b47b7c56687bcbac254cdad76e29e501"
          },
          "sequence": 4294967295
        },
        {
          "txid": "0ab1d2adb4ad6ca4dd12552d43068263261bd09b146a29cfec29ac4e090519cb",
          "vout": 0,
          "scriptSig": {
            "asm": "3045022010aea40239fc395ea19d8f4131d9ed88c25f45c9269e16ff47558e67e871d2960221008aeb78d9b87335a3968126570971562254c7b21147210d228c81173b79ae425c[ALL]",
            "hex": "483045022010aea40239fc395ea19d8f4131d9ed88c25f45c9269e16ff47558e67e871d2960221008aeb78d9b87335a3968126570971562254c7b21147210d228c81173b79ae425c01"
          },
          "sequence": 4294967295
        },
        {
          "txid": "0d8dde6c0f3f4b39c76a6cb5cca0375c55c648f79a15dc4ce20fe25cd810f1cc",
          "vout": 0,
          "scriptSig": {
            "asm": "3046022100a4af2abbef2822c7cf4edca8db32b6837b89983e6a7c4c1df9279205fbdb2726022100ece1c075c329a1ed0728bee7799f8fa1c909672191fd4482af4582c27d655cd1[ALL]",
            "hex": "493046022100a4af2abbef2822c7cf4edca8db32b6837b89983e6a7c4c1df9279205fbdb2726022100ece1c075c329a1ed0728bee7799f8fa1c909672191fd4482af4582c27d655cd101"
          },
          "sequence": 4294967295
        },
        {
          "txid": "8e2428cc037545c0c904b7037b9d3e6c19b7ff24c4c775f9a8bb966cb2cf29f0",
          "vout": 0,
          "scriptSig": {
            "asm": "304402205bd0359c2c49efe7ecf84d198ba8f564f28e0b4abcfcd065c87eb9efdbf40a7c0220184f579b49db1fe02582f7185ad27c8bcca4b5841fcee434107910a4216fb8d5[ALL]",
            "hex": "47304402205bd0359c2c49efe7ecf84d198ba8f564f28e0b4abcfcd065c87eb9efdbf40a7c0220184f579b49db1fe02582f7185ad27c8bcca4b5841fcee434107910a4216fb8d501"
          },
          "sequence": 4294967295
        },
        {
          "txid": "10ee1b3fd5ea678751e64518f33c93c6d4bc725f8874019b8ed5709dea0b44f0",
          "vout": 0,
          "scriptSig": {
            "asm": "30440220499941465b440c2d7b4dec05d9c6e2bf2967bc5b0fde30f50f7f32b0153928ee02200786fec019675a70c8b5c93c7bfad297b9afeee10db77832fb6db904b8c594b2[ALL]",
            "hex": "4730440220499941465b440c2d7b4dec05d9c6e2bf2967bc5b0fde30f50f7f32b0153928ee02200786fec019675a70c8b5c93c7bfad297b9afeee10db77832fb6db904b8c594b201"
          },
          "sequence": 4294967295
        },
        {
          "txid": "a810c153b7952218096b8af7e7f509b26edc737541da69aa7387e6e53fc163f1",
          "vout": 0,
          "scriptSig": {
            "asm": "304502201761dde16f50ccf9c8c695dda1fe266bfc818fd2385758743bd316d03e6e2ce9022100f49efda88da794c147cb74c0ea8a39fab2112b6d838e657866784b66d68f75b1[ALL]",
            "hex": "48304502201761dde16f50ccf9c8c695dda1fe266bfc818fd2385758743bd316d03e6e2ce9022100f49efda88da794c147cb74c0ea8a39fab2112b6d838e657866784b66d68f75b101"
          },
          "sequence": 4294967295
        },
        {
          "txid": "c9ed31afa65f92320bb8dba95e8538654b9486482c2b825e39d7a071d38ba8f4",
          "vout": 0,
          "scriptSig": {
            "asm": "30440220067bf36bc1c4916529ea20e8b9a7b6119e8de8d81ef077a67ff2d714fa6cdff602207147b149f1d040c4e7ccbaa97bc57b08b9653a7b49e96fb5bb8411b9de3f69f9[ALL]",
            "hex": "4730440220067bf36bc1c4916529ea20e8b9a7b6119e8de8d81ef077a67ff2d714fa6cdff602207147b149f1d040c4e7ccbaa97bc57b08b9653a7b49e96fb5bb8411b9de3f69f901"
          },
          "sequence": 4294967295
        },
        {
          "txid": "a86369800d32a14d7027f907a19a1ae476b9e461b555e94bf9d6014ebc6a64f5",
          "vout": 0,
          "scriptSig": {
            "asm": "30440220537cce77cde7e1e4f911e5b504f72a33168beb7d8254889f5fbcb1b9c7730eb502203ad49ad8a8ba89efc6a9e2c5da9a23bd5086c9ed9ca2d01dcfc5dfa58b01a39a[ALL]",
            "hex": "4730440220537cce77cde7e1e4f911e5b504f72a33168beb7d8254889f5fbcb1b9c7730eb502203ad49ad8a8ba89efc6a9e2c5da9a23bd5086c9ed9ca2d01dcfc5dfa58b01a39a01"
          },
          "sequence": 4294967295
        },
        {
          "txid": "0180fc7ac2e9cf0ddf8a2a1ff14757c1c96b98a95d8b7806c7161a767fbdcbfe",
          "vout": 0,
          "scriptSig": {
            "asm": "3045022029b3df9f3ac52f78ac3f3ab9dc80570b4a33da9fda74e39177e00b9c794c6744022100f8c2f233ecd9a3a3c69266e8a6d0de0ab0362852ad0c4a475e66c09e2e492f9b[ALL]",
            "hex": "483045022029b3df9f3ac52f78ac3f3ab9dc80570b4a33da9fda74e39177e00b9c794c6744022100f8c2f233ecd9a3a3c69266e8a6d0de0ab0362852ad0c4a475e66c09e2e492f9b01"
          },
          "sequence": 4294967295
        }
      ],
      "vout": [
        {
          "value": 2400.0,
          "n": 0,
          "scriptPubKey": {
            "asm": "OP_DUP OP_HASH160 12ab8dc588ca9d5787dde7eb29569da63c3a238c OP_EQUALVERIFY OP_CHECKSIG",
            "desc": "addr(12higDjoCCNXSA95xZMWUdPvXNmkAduhWv)#zn56zju2",
            "hex": "76a91412ab8dc588ca9d5787dde7eb29569da63c3a238c88ac",
            "address": "12higDjoCCNXSA95xZMWUdPvXNmkAduhWv",
            "type": "pubkeyhash"
          }
        }
      ],
      "fee": 0.0,
      "hex": "0100000030056fd13f1d36821ed51a41a04b6333d1fd56a61e5e37dd5286da21ee2d4a5bd1000000004a493046022100db8a9b1e6ef9d618c88f1865ba13c3f03ff531bae219dfaee247279680e6d6b3022100f38896003daf8dfc9d7d7d947d2b067e3e9611af92fb918dd5618002e163493f01ffffffff0c2bcbd62a744a004b2dd039e6553ee2bf83b5d19618ef90de2a7fca7e8bee49000000004a493046022100ad1830c8dbbe9abb06e8fd85921afec97d314b592c9c8c95e01a86b44ee1192e02210088edb4b5826aff49c070bcbbcc46e17e6328f41804438da567e04e06f742552501ffffffff0eaefb10964db6b54940daeada0295c6152e60009f6e3cd7fae6dc36bd2d49df0000000049483045022100d5ff381e3800826f443fe47e18e8b5f73bb22ba0cf882743274cea5edb68c9d602206b4699b130a159cbcc55820f049b7cbade037373c37af34e6842f6fceea9a8a701ffffffff10cd1a96dcfe470922d7350266fcdba59b75c5a0b1aa4b950b5740acbac424db000000004948304502204f40f9ce48d45a825c9baf600f8a03900af5763b511fcb659c9e5aba7f7ba9a0022100bf5e1d92c9d810c63101ccbf4a2f0713aa6ab921c7d1bcd6e9b2d505014211e601ffffffff114a5bd5eeaeaa6e5f714ce9aea3a4d89d70e22626958c626e2fe085cbcb7740000000004a493046022100ea303caad8df7eb5a92ae5b8215a46de9d70df61efaf543e1a59d07025d9b310022100c1722b8b7266e6d02fc6d02f9d916028f8f7564be4fadafc77fa9e73981e643b01ffffffff2a09a032bc154c0ce6e2c7ede864abd8c667c988c8db247e493ae48fec8002540000000049483045022100cfbe5aa1226b112e4d637a6aea516beaf04f2dbd3685031d1daadfdd58a32c1502203318c48816c79d0f4465c04e365deffd1dd45a2c843eb94ea090267df5955bc901ffffffff2e06357e35257f841ac8eccd6ba9e6b8764fe41277f6db076ed1803d388e236e000000004847304402205f79886d1bee8434bb652dbba3bc640923f315030625939d8be525aa27a437bb02207dc9b0b5eeafaa002083cb7f5cf09ca584d52e09492d00e60fa0554db90b474b01ffffffff36e06e7859309028f381f06263a25641ead53d3f9e5ec178501b2bcbbc93fc58000000004948304502206630dc07a3a890e539f8de1c1cb1aebf17af3f3b20d84b1edcace92241dfe1730221009033dac978a7f2941895dc4fbf9845f05511af3cf2c97aed5d5d3e9df3ab3b1901ffffffff1fc088c20bd0c4ea140f2b5c921a14dc4c6ad154058f09dca735110badd8abeb000000004847304402207c38f0f21f37545801b477f05b439334c4d3d21c5bf5266f98d7c3a24cbff712022074ed9a2fde284d39c49835cd7260432e776fe07ad75e7195c0b60ad7d38311c401ffffffff2374b0e4b3abe56c36ffcf7d3eed97fe51f98ac1dbc940b14b10aacd36e39d1f000000004948304502203e31d6ac042b856cd7c41dabbd61e449d15910b72a210c9f980ba506252ed270022100c9b52b54e7c9799a2d5fcd16a23d4da96b3caa1dfb329c00ab9ee94c2f31f19601ffffffff25e5b9e9e14fa9fce6ad1d28749158586c7005b1ca67f670b7e2dd8382d508d8000000004a493046022100b5f58d09d9adb9374e409aa5cc25d83b2ee54c1f1a37a9f7f3856f2ea0af7da1022100ae9cb2c68817e5449876ad718f521805bb5a8288603d9dd6333642d6adc4853b01ffffffff3d3efcf748aba390f480041bb8443679b832fb28ed80c3dc10a89bccee8252de0000000049483045022100baea9a347b83bea63adc10bafc8cd0e87fb2de225915431836bd6fbe65f1d86a02206bb21425ca614a502d220ccc9e2e3850ae59ba8cf1c79a8c56e0ba4fe4edff2201ffffffff46ba525d757de69a3e58ae5a680bc01eda37afde960e13860c5352412b5586a2000000004847304402201e228fd403effc28892da107e78e009c3456d7e6bdbf66e46735c5d4ad624b3f0220352205af60b89eeca8161cef54c907eb81b00b74d08bdcdc995cc32b139f1acf01ffffffff48d77c4d9d4c648ff0c23436390e1cb94715dfde126ea9c8423f189c9796a18f0000000049483045022009e700667a5812cf570efb1a8324ae37f10c57194e886d683d17972587ced471022100c411363b16f50620fe8fc909250af2deb940f5b2c16e989e02551edf8c6b8ae401ffffffff4ea77e0fecd89159ea35019c7832b5fe86ef7510ec9b7bc6bd23785df6260293000000004847304402200591324b624eb3673e0cdca344a16014a912373be6689dcfda5555cebcdeb2e802203cb25c0676f3bc45735e847e795e21c1d56e2d4de3ef4b7f0e50692cb10fb33101ffffffff57961deb395c122453473d698361c80a0a40eb79348cd0bcb9bee327fa3b2b150000000049483045022056eb06fbd0f724e82e65145dfd5fde1a4ed6f162a9d97a730a84fe652952d2e6022100e17e1c0c7222f1463e4ee3ae00c0e8f414809d09a24c8a95c0dd30923e2dd60901ffffffff5b8e5b212589bf6da90d7dab5ba8b27c30e54ce1793e1572ee5103df161aa41e000000004948304502205c731ace9507b0efa513a6154ee3d34a24ab2c9c4acac8a47ea2cf25273f9e77022100b123c56a09c270d4c21ecb68b1bb429f8f6416b8062d9013c643d061602787ec01ffffffff5bca17dc99844328c6e552342bfbc6a68079401a14addc6fe1a7869d43a82810000000004948304502201478300a818ad0c9e31c662c7b7e566d2ef5725899a48df3bd4653e7e062410302210097edbd4f2b5e134fcc43b73806694b0602e4e3f83d898c4fd9e1626fb3b0614a01ffffffff5d257c72b4b5cc6823288d0f7e7e505ad45b0b4740c1105eb9d7e2cf4663b1240000000049483045022100d85139d7a1312aab26a2446adc79160b8274e093fcada0d768715ab62df7102e0220770fa2887ef721a79ccf16481e66bdc3fbfbeaec07b91636ed1420489a00112501ffffffff5d2d66da0cc63899175114a24b89312f0c74277844da09ae6564e640499e29910000000048473044022024ec052817ea7015454bfcf1a4ee72aa18da443995cb64df1cac723ff89e8b280220160b017c1c7ad3c6c7d2d48595d7383f7167b06e94329a48c50600e55eae292e01ffffffff5e82a1a71d071b6882f4c50c01ea69b1b235ec1d53e7a90135a1c02c6a522fdb000000004847304402203dbe5ad986c7067e8e6628b315b56951f1c4809883ade592a1ce93cb7e7975f902203c9c65f69b8bb21d5b0e89b4a79806b087985843553138341809c389f69bbba401ffffffff6817ff83719ab7d68e431e7ce374b597e977d2352527ae0a620b9ce81e5cc4300000000049483045022100dcac07ee17ad467ee849536f76d81e2160ad8ca7e646984f04560a876772781d02200a5e5ece280da5bc1e4f59be4a8ae2e75a29d0ca8ee0ebcfde8023966f74ab5d01ffffffff6a374c8cf7c7911df8159cb7ac6330e7e9ce9efe5f3ffd524bcc9dd56d15e03b000000004948304502203a18a6c6012a3a8281cbd9f785cb4617f81981b52c3dcbfa7102d918ac166aa8022100e69a36c8dbb61c65776eb579d4f7641a1c45b3765f39ef571bdfd8907906e52801ffffffff7134c774fbda5979b086efa630c843fdee29ce2e0c74ca21520cd889e10894e9000000004847304402206e51c0b8cb71fb44b734d9e861b262c4febf38e4d952a1c9b78db5d9ce30f0b602202756daca6f1e613e3c28bf71388d8ad913f1746000606165a8de2e669edc183901ffffffff717de47131f395a2326eda7c619a48e28e507ebebdc162eba380c0d26cfbaddf0000000049483045022050bfe6f0cd17819db64e2ce00cd53fe080056a5e7539ecc1dddeaa56cfd3e96f022100b13f37b4c7e7999a0e1c48014f6a730f2b7061ba1286319bacdb695ff837a15f01ffffffff75c27203f0d0881c9d2a74639e253860b424e6d4831fede84ab202be550513a20000000048473044021f027ed3cdd3c6aaa6159ed2254218ed97803f8fea20a2455c2097935a7b3b1c022100f0c1ba673de9036939871403d5a6f06caa76d13cb0cf71afaf4b07366c873a2401ffffffff7d5bf167d6b67d44e35f4a2acb263ab43ce3e1d57f1beefb3d1752044d2acbf6000000004948304502204ab2ba9a288ab7a00d61b702f9664669109ab1b5005af4e6523662a73a16d383022100bae93e054a680bd54b0eca3a2ee478ca0de5a0e69cb528a6f7e58d80c9b183eb01ffffffff8f05850d277293e7c3c59e462964bd42af43583f9e7308268d1f4f7501420d38000000004a493046022100db5b2542129a4a54b55752f0df8a12e84061ce00f6275579342c774a6252bdb3022100c07696bab38c506851ea16cf7569c057334b112a64dfaec5c1e70731f3502e6701ffffffff95f1ffe6aa07d108bf69c2f42e303d76d24695415c5b35fe705f29786e1c99200000000048473044022077b0908fba9c38b2d502d94e589b0d035feda0531636a5bb9c4dc5e8480f813e022016f9f21fd15ade9273ffd8ce8d58c951cb45b070e67fe6e50d6c84668375cafd01ffffffffa41650dc61f8243166f47d0232ea200490794cfbcca8e206fcde4aa018577b970000000049483045022100c9de4e68bb8e672453714988291971d6ecbe55ef5e0abedc224bf4228a2341e402204b4e8ac3115ffdf48a8c22b044b21cc116eb94f1949296352f78f801736aeb4f01ffffffffa7a90d45cf92ad38a72c3ed29fa210ab3ee800c094540fe116e6fc901fe3c7a200000000494830450220466410ed1dc30af7ac44c6b28780e8e19929e080e236d97cfba320966555da41022100ec135574b54e6c770bf270fdf6e4bbd4a5f59371c970ee02971b55c3d420c18c01ffffffffa9add55bd514e3cacfe87deae6e0a08bbd1d08bd526a9957117da058a5b7c2b5000000004a493046022100b379b7766008fa0184a50d6102827f784a9b3ccf82d1c14cd7d371fe63613a6e0221009e3f293ec756ff865097fc448b9c5939d26f01ccfeb75c951e050a153a52c96401ffffffffac094eed2a0540a20db695f92f52c8ef351218c97b873a9f38e86069db0dd72100000000494830450220493117a9735094194c914f9da03badf76e458fc279eaf74aa1b5853213aacd36022100bd9cfbb69209833e5f4ddc35f0e9ffb49ece34905576f212482506756c9811ab01ffffffffbebbb269a240e4a061d51a46ff1aada50d8824cba9599d4c093b5e71427282630000000049483045022100e252ec8ca9d4dc975ec1d7ae4672a33f009f32fb6bfa6b02280ca5f833ba022c02201c3893c06fce2542479ff5c9e8233130fccfad95f77c6f633c08828a565da69101ffffffffc1008c4542703fe12f596e98150b83898f2857869a6d4dbd58ee4b6b9d1d4c69000000004a49304602210096e747116d2df223dded8602a813fcb248b2d1364c8f6cbfd4be76f11a4c9b420221008c1920f913ca464d39d8819bff8c0f0890e29cb597264f53c007f8eb79845ad201ffffffffc11f2b0a83e2c081651736a210151984e1a4a4f1b3c89c9bf4e2448e78a3059300000000484730440220649590ae4a0ac91c3149aa91c3b4753ad72dec07f6fe03c7601d610d9d74fe7902206bdae1ca02fe58cb37e9b3e47c61307339c4eea8ec2ff9bd29f181cc9784a2ac01ffffffffe408d7ab560983e9e8b2ae314b39e94817a4af53090755d128fa03148100105f000000004847304402207d6cb33aa704687dfaf107318d4480d1d11847b2d7ea949880f85e10c6f392b10220244576e921288abe756c93a6d1e91dbd3312906ee7aab9e0705f683f3b6eeb7901ffffffffe42bf3f6a5649b00646f6d1cbdafabd731c544546b0781ab3097ef5518863511000000004a493046022100f65ef96a0d8fe60285e712c5d173bd314a4ca44da1cd34c05199f2e80059729b022100f26484082114eb8016678d269491eb99d23a94df1afecfb4c885c179a722cb1d01ffffffffe71ffd69a989dd4ef3fdaf07a2debc66a7d25d6779834cf4a68d27f5026bcf7f000000004a4930460221008dd1ee647f31db8b7228cfaf2541086544ae4adaeee13e77365177f858336dc0022100aa59bbff25f2d855f26074374e36eb2dc37fb6621dbb0651a2403f303cba36bd01ffffffffee23d3b9cab0b897615ff3768a6727da6d880ba8554912551c31b06afe77dfd00000000049483045022100cd945fe45c5d5636474bb276a8e54915ed5ed4e90b90adcb1088a367104ddca00220566f895758552672d38d5c4c413441ea67b47b7c56687bcbac254cdad76e29e501ffffffffcb1905094eac29eccf296a149bd01b26638206432d5512dda46cadb4add2b10a0000000049483045022010aea40239fc395ea19d8f4131d9ed88c25f45c9269e16ff47558e67e871d2960221008aeb78d9b87335a3968126570971562254c7b21147210d228c81173b79ae425c01ffffffffccf110d85ce20fe24cdc159af748c6555c37a0ccb56c6ac7394b3f0f6cde8d0d000000004a493046022100a4af2abbef2822c7cf4edca8db32b6837b89983e6a7c4c1df9279205fbdb2726022100ece1c075c329a1ed0728bee7799f8fa1c909672191fd4482af4582c27d655cd101fffffffff029cfb26c96bba8f975c7c424ffb7196c3e9d7b03b704c9c0457503cc28248e000000004847304402205bd0359c2c49efe7ecf84d198ba8f564f28e0b4abcfcd065c87eb9efdbf40a7c0220184f579b49db1fe02582f7185ad27c8bcca4b5841fcee434107910a4216fb8d501fffffffff0440bea9d70d58e9b0174885f72bcd4c6933cf31845e6518767ead53f1bee1000000000484730440220499941465b440c2d7b4dec05d9c6e2bf2967bc5b0fde30f50f7f32b0153928ee02200786fec019675a70c8b5c93c7bfad297b9afeee10db77832fb6db904b8c594b201fffffffff163c13fe5e68773aa69da417573dc6eb209f5e7f78a6b09182295b753c110a8000000004948304502201761dde16f50ccf9c8c695dda1fe266bfc818fd2385758743bd316d03e6e2ce9022100f49efda88da794c147cb74c0ea8a39fab2112b6d838e657866784b66d68f75b101fffffffff4a88bd371a0d7395e822b2c4886944b6538855ea9dbb80b32925fa6af31edc900000000484730440220067bf36bc1c4916529ea20e8b9a7b6119e8de8d81ef077a67ff2d714fa6cdff602207147b149f1d040c4e7ccbaa97bc57b08b9653a7b49e96fb5bb8411b9de3f69f901fffffffff5646abc4e01d6f94be955b561e4b976e41a9aa107f927704da1320d806963a800000000484730440220537cce77cde7e1e4f911e5b504f72a33168beb7d8254889f5fbcb1b9c7730eb502203ad49ad8a8ba89efc6a9e2c5da9a23bd5086c9ed9ca2d01dcfc5dfa58b01a39a01fffffffffecbbd7f761a16c706788b5da9986bc9c15747f11f2a8adf0dcfe9c27afc80010000000049483045022029b3df9f3ac52f78ac3f3ab9dc80570b4a33da9fda74e39177e00b9c794c6744022100f8c2f233ecd9a3a3c69266e8a6d0de0ab0362852ad0c4a475e66c09e2e492f9b01ffffffff0100601de1370000001976a91412ab8dc588ca9d5787dde7eb29569da63c3a238c88ac00000000"
    }
  ]
}