{
  "hash": "000000006c144faa0127522b218d07d0f6d8918fa39e327540e124d45ccefa0c",
  "confirmations": 49679,
  "height": 3419,
  "version": 1,
  "versionHex": "00000001",
  "merkleroot": "2e0e64593f98bf7f3b00706dcccf87b5daa549bea33fe7a7acfdc769d6483967",
  "time": 1234050787,
  "mediantime": 1234047565,
  "nonce": 55860523,
  "bits": "1d00ffff",
  "difficulty": 1,
  "chainwork": "00000000000000000000000000000000000000000000000000000d5c0d5c0d5c",
  "nTx": 1,
  "previousblockhash": "00000000a2558fe5bf9316e7c289ba6c1ea8b1a229add9d4ffa259c53b8b4185",
  "nextblockhash": "000000007ae51206737ea63360f13e93b0df3d5e86a82f9d6a37ea57c3e4cd77",
  "strippedsize": 215,
  "size": 215,
  "weight": 860,
  "tx": [
    {
      "txid": "2e0e64593f98bf7f3b00706dcccf87b5daa549bea33fe7a7acfdc769d6483967",
      "hash": "2e0e64593f98bf7f3b00706dcccf87b5daa549bea33fe7a7acfdc769d6483967",
      "version": 1,
      "size": 134,
      "vsize": 134,
      "weight": 536,
      "locktime": 0,
      "vin": [
        {
          "coinbase": "04ffff001d0149",
          "sequence": 4294967295
        }
      ],
      "vout": [
        {
          "value": 50.0,
          "n": 0,
          "scriptPubKey": {
            "asm": "04ee83dec072bbedee9b80cf22cc82519298f124b47eeaa5973b32c3e67b5e368e86b2fc3fa844437023a5bd9515a2f187ff4ab05427b51f17879551a9a21b1f7d OP_CHECKSIG",
            "desc": "pk(04ee83dec072bbedee9b80cf22cc82519298f124b47eeaa5973b32c3e67b5e368e86b2fc3fa844437023a5bd9515a2f187ff4ab05427b51f17879551a9a21b1f7d)#4p6gwnu0",
            "hex": "4104ee83dec072bbedee9b80cf22cc82519298f124b47eeaa5973b32c3e67b5e368e86b2fc3fa844437023a5bd9515a2f187ff4ab05427b51f17879551a9a21b1f7dac",
            "type": "pubkey"
          }
        }
      ],
      "hex": "01000000010000000000000000000000000000000000000000000000000000000000000000ffffffff0704ffff001d0149ffffffff0100f2052a01000000434104ee83dec072bbedee9b80cf22cc82519298f124b47eeaa5973b32c3e67b5e368e86b2fc3fa844437023a5bd9515a2f187ff4ab05427b51f17879551a9a21b1f7dac00000000"
    }
  ]
}