{
  "hash": "0000000054c6984b9f469f7404e6974d6dc48e53cca5a383bf5ce2611d84f3ce",
  "confirmations": 43534,
  "height": 9564,
  "version": 1,
  "versionHex": "00000001",
  "merkleroot": "793496dcb1790022807576f2119bec391f7befea2cdee4f9b1d8ecd5a4972e0b",
  "time": 1238673578,
  "mediantime": 1238668674,
  "nonce": 4291513347,
  "bits": "1d00ffff",
  "difficulty": 1,
  "chainwork": "0000000000000000000000000000000000000000000000000000255d255d255d",
  "nTx": 1,
  "previousblockhash": "00000000699b9398a3cb08543068258636ef8e730c0a77617391c49a3cf94d28",
  "nextblockhash": "000000007a8f09aeb266c2f4605e13a2b8046ac7346271cf75f7ca70632839a6",
  "strippedsize": 216,
  "size": 216,
  "weight": 864,
  "tx": [
    {
      "txid": "793496dcb1790022807576f2119bec391f7befea2cdee4f9b1d8ecd5a4972e0b",
      "hash": "793496dcb1790022807576f2119bec391f7befea2cdee4f9b1d8ecd5a4972e0b",
      "version": 1,
      "size": 135,
      "vsize": 135,
      "weight": 540,
      "locktime": 0,
      "vin": [
        {
          "coinbase": "04ffff001d025206",
          "sequence": 4294967295
        }
      ],
      "vout": [
        {
          "value": 50.0,
          "n": 0,
          "scriptPubKey": {
            "asm": "04a372d0300f3ab41d56d8d2102cdcf52d0ac4aa04ab74224c1aae19d0786e0143c63d858c23a6ec2775aa14db388fb3c991fde8485f25e18374cf1a8027dd7572 OP_CHECKSIG",
            "desc": "pk(04a372d0300f3ab41d56d8d2102cdcf52d0ac4aa04ab74224c1aae19d0786e0143c63d858c23a6ec2775aa14db388fb3c991fde8485f25e18374cf1a8027dd7572)#sped8pe0",
            "hex": "4104a372d0300f3ab41d56d8d2102cdcf52d0ac4aa04ab74224c1aae19d0786e0143c63d858c23a6ec2775aa14db388fb3c991fde8485f25e18374cf1a8027dd7572ac",
            "type": "pubkey"
          }
        }
      ],
      "hex": "01000000010000000000000000000000000000000000000000000000000000000000000000ffffffff0804ffff001d025206ffffffff0100f2052a01000000434104a372d0300f3ab41d56d8d2102cdcf52d0ac4aa04ab74224c1aae19d0786e0143c63d858c23a6ec2775aa14db388fb3c991fde8485f25e18374cf1a8027dd7572ac00000000"
    }
  ]
}