{
  "hash": "00000000f592aeacdab3a0b3c68dddd07b0c9e9da387d5954ceb5807f028b51c",
  "confirmations": 46377,
  "height": 6721,
  "version": 1,
  "versionHex": "00000001",
  "merkleroot": "4d2a5110febf7496d1d9c7a38b8d2ce64946986a8dc7e1f95c455202513f87bf",
  "time": 1236498586,
  "mediantime": 1236494683,
  "nonce": 7823280,
  "bits": "1d00ffff",
  "difficulty": 1,
  "chainwork": "00000000000000000000000000000000000000000000000000001a421a421a42",
  "nTx": 1,
  "previousblockhash": "000000005cf02d8195cb19206576d9be36f8858fd5661f5c99441b5d693e3227",
  "nextblockhash": "000000004080abb89db4e7f36b2a2cab5e6fed9b21b14b27eb2acfbc1d48e30a",
  "strippedsize": 216,
  "size": 216,
  "weight": 864,
  "tx": [
    {
      "txid": "4d2a5110febf7496d1d9c7a38b8d2ce64946986a8dc7e1f95c455202513f87bf",
      "hash": "4d2a5110febf7496d1d9c7a38b8d2ce64946986a8dc7e1f95c455202513f87bf",
      "version": 1,
      "size": 135,
      "vsize": 135,
      "weight": 540,
      "locktime": 0,
      "vin": [
        {
          "coinbase": "04ffff001d028f01",
          "sequence": 4294967295
        }
      ],
      "vout": [
        {
          "value": 50.0,
          "n": 0,
          "scriptPubKey": {
            "asm": "045fa178748ddf021632be704ca8a31ab9e7865fe93efb4a2caa86c29c099cffa9a47cfe02839a227b7cef0c765fc823744f155e8fe262770b91a27d767309d1fe OP_CHECKSIG",
            "desc": "pk(045fa178748ddf021632be704ca8a31ab9e7865fe93efb4a2caa86c29c099cffa9a47cfe02839a227b7cef0c765fc823744f155e8fe262770b91a27d767309d1fe)#p9dlj06y",
            "hex": "41045fa178748ddf021632be704ca8a31ab9e7865fe93efb4a2caa86c29c099cffa9a47cfe02839a227b7cef0c765fc823744f155e8fe262770b91a27d767309d1feac",
            "type": "pubkey"
          }
        }
      ],
      "hex": "01000000010000000000000000000000000000000000000000000000000000000000000000ffffffff0804ffff001d028f01ffffffff0100f2052a010000004341045fa178748ddf021632be704ca8a31ab9e7865fe93efb4a2caa86c29c099cffa9a47cfe02839a227b7cef0c765fc823744f155e8fe262770b91a27d767309d1feac00000000"
    }
  ]
}