{
  "hash": "00000000e0e6680b08e83733c47ec49280d36bc4a0362439b9280006c8069c4b",
  "confirmations": 44314,
  "height": 8784,
  "version": 1,
  "versionHex": "00000001",
  "merkleroot": "f4eceb18cd4bc20f6759f60a3362c4d999c51d250df75e631403fb4a59af2a47",
  "time": 1238088263,
  "mediantime": 1238085165,
  "nonce": 202294091,
  "bits": "1d00ffff",
  "difficulty": 1,
  "chainwork": "0000000000000000000000000000000000000000000000000000225122512251",
  "nTx": 1,
  "previousblockhash": "000000002173b0e503a7566754711596b57d5319a9069c8fb4c55089acac0502",
  "nextblockhash": "000000009c3e9474e5ed235cece4c28820c9055d8e92a1d81f3f9c1bc2b9caef",
  "strippedsize": 216,
  "size": 216,
  "weight": 864,
  "tx": [
    {
      "txid": "f4eceb18cd4bc20f6759f60a3362c4d999c51d250df75e631403fb4a59af2a47",
      "hash": "f4eceb18cd4bc20f6759f60a3362c4d999c51d250df75e631403fb4a59af2a47",
      "version": 1,
      "size": 135,
      "vsize": 135,
      "weight": 540,
      "locktime": 0,
      "vin": [
        {
          "coinbase": "04ffff001d025504",
          "sequence": 4294967295
        }
      ],
      "vout": [
        {
          "value": 50.0,
          "n": 0,
          "scriptPubKey": {
            "asm": "041d3a4362f552e211a31a3dbf47ded676edaee5f49dd5b2c6401cfa0f9cac1dc8a72ea105737855f636973b1532bfcdb92a178ad32e55561a450b0e2653711399 OP_CHECKSIG",
            "desc": "pk(041d3a4362f552e211a31a3dbf47ded676edaee5f49dd5b2c6401cfa0f9cac1dc8a72ea105737855f636973b1532bfcdb92a178ad32e55561a450b0e2653711399)#t8zcg4kg",
            "hex": "41041d3a4362f552e211a31a3dbf47ded676edaee5f49dd5b2c6401cfa0f9cac1dc8a72ea105737855f636973b1532bfcdb92a178ad32e55561a450b0e2653711399ac",
            "type": "pubkey"
          }
        }
      ],
      "hex": "01000000010000000000000000000000000000000000000000000000000000000000000000ffffffff0804ffff001d025504ffffffff0100f2052a010000004341041d3a4362f552e211a31a3dbf47ded676edaee5f49dd5b2c6401cfa0f9cac1dc8a72ea105737855f636973b1532bfcdb92a178ad32e55561a450b0e2653711399ac00000000"
    }
  ]
}