{
  "hash": "00000000a8d779d2cfdb8dab67997b995c5ff426d117e6c54a06d785080e66a1",
  "confirmations": 45202,
  "height": 7896,
  "version": 1,
  "versionHex": "00000001",
  "merkleroot": "0e657ccbdb60d2d643770f919511c93b9f01c729eb3a6f866af9a2ca9e2ab5b3",
  "time": 1237388643,
  "mediantime": 1237384458,
  "nonce": 2830692866,
  "bits": "1d00ffff",
  "difficulty": 1,
  "chainwork": "00000000000000000000000000000000000000000000000000001ed91ed91ed9",
  "nTx": 1,
  "previousblockhash": "00000000a90c31d13d61094610003a0b344903d36edb41645edde01cb89c8278",
  "nextblockhash": "000000000280b50dd608624652fd7e42f55b425eaf0f24b38b7816a6fbc65bce",
  "strippedsize": 216,
  "size": 216,
  "weight": 864,
  "tx": [
    {
      "txid": "0e657ccbdb60d2d643770f919511c93b9f01c729eb3a6f866af9a2ca9e2ab5b3",
      "hash": "0e657ccbdb60d2d643770f919511c93b9f01c729eb3a6f866af9a2ca9e2ab5b3",
      "version": 1,
      "size": 135,
      "vsize": 135,
      "weight": 540,
      "locktime": 0,
      "vin": [
        {
          "coinbase": "04ffff001d026107",
          "sequence": 4294967295
        }
      ],
      "vout": [
        {
          "value": 50.0,
          "n": 0,
          "scriptPubKey": {
            "asm": "049b69f9ce2ab1b33bf4a685b0d2656ce9f59fb5ea143394831d14ecaa9fd75a62b3635970e939da81fc7a0f2f46030a0a7b37e586fc7436f8ac1dde3a2e9ad329 OP_CHECKSIG",
            "desc": "pk(049b69f9ce2ab1b33bf4a685b0d2656ce9f59fb5ea143394831d14ecaa9fd75a62b3635970e939da81fc7a0f2f46030a0a7b37e586fc7436f8ac1dde3a2e9ad329)#3d9mw6ce",
            "hex": "41049b69f9ce2ab1b33bf4a685b0d2656ce9f59fb5ea143394831d14ecaa9fd75a62b3635970e939da81fc7a0f2f46030a0a7b37e586fc7436f8ac1dde3a2e9ad329ac",
            "type": "pubkey"
          }
        }
      ],
      "hex": "01000000010000000000000000000000000000000000000000000000000000000000000000ffffffff0804ffff001d026107ffffffff0100f2052a010000004341049b69f9ce2ab1b33bf4a685b0d2656ce9f59fb5ea143394831d14ecaa9fd75a62b3635970e939da81fc7a0f2f46030a0a7b37e586fc7436f8ac1dde3a2e9ad329ac00000000"
    }
  ]
}