{
  "hash": "000000004a9b4f24d57657d817fc2e5bf505020b3017f3fd53a4e5443f5ecc9e",
  "confirmations": 47306,
  "height": 5792,
  "version": 1,
  "versionHex": "00000001",
  "merkleroot": "52485a5696265d1006cb789a74ed7774a8721f20c77bb7d9046a0d43eb5950e0",
  "time": 1235754101,
  "mediantime": 1235751087,
  "nonce": 590643485,
  "bits": "1d00ffff",
  "difficulty": 1,
  "chainwork": "000000000000000000000000000000000000000000000000000016a116a116a1",
  "nTx": 1,
  "previousblockhash": "00000000afd0652cec563478e46e120efa8166379256370e53466c47ce879859",
  "nextblockhash": "00000000ed14252d0ee67d7e8921d0d3d18abd34fc1ee0073aa5949bb2f57596",
  "strippedsize": 216,
  "size": 216,
  "weight": 864,
  "tx": [
    {
      "txid": "52485a5696265d1006cb789a74ed7774a8721f20c77bb7d9046a0d43eb5950e0",
      "hash": "52485a5696265d1006cb789a74ed7774a8721f20c77bb7d9046a0d43eb5950e0",
      "version": 1,
      "size": 135,
      "vsize": 135,
      "weight": 540,
      "locktime": 0,
      "vin": [
        {
          "coinbase": "04ffff001d029600",
          "sequence": 4294967295
        }
      ],
      "vout": [
        {
          "value": 50.0,
          "n": 0,
          "scriptPubKey": {
            "asm": "04f06f5cff5dc646eb23f91361299269281c10577a82daff46ffc400b88637f2913846a1fa52d2b6925a25e4ac073e644abc65bdf4ba0a70c4cd8c75942804b3e5 OP_CHECKSIG",
            "desc": "pk(04f06f5cff5dc646eb23f91361299269281c10577a82daff46ffc400b88637f2913846a1fa52d2b6925a25e4ac073e644abc65bdf4ba0a70c4cd8c75942804b3e5)#cxu8j8r0",
            "hex": "4104f06f5cff5dc646eb23f91361299269281c10577a82daff46ffc400b88637f2913846a1fa52d2b6925a25e4ac073e644abc65bdf4ba0a70c4cd8c75942804b3e5ac",
            "type": "pubkey"
          }
        }
      ],
      "hex": "01000000010000000000000000000000000000000000000000000000000000000000000000ffffffff0804ffff001d029600ffffffff0100f2052a01000000434104f06f5cff5dc646eb23f91361299269281c10577a82daff46ffc400b88637f2913846a1fa52d2b6925a25e4ac073e644abc65bdf4ba0a70c4cd8c75942804b3e5ac00000000"
    }
  ]
}