{
  "hash": "000000007619e5cedd018cf6e66990df5bf1326813e5ea15905e15033fe6e8b9",
  "confirmations": 43332,
  "height": 9766,
  "version": 1,
  "versionHex": "00000001",
  "merkleroot": "7b63d19a55d73b62830ca30256b0e77ee57874a85d6dbb078e124073c733b7eb",
  "time": 1238830671,
  "mediantime": 1238825814,
  "nonce": 4202915349,
  "bits": "1d00ffff",
  "difficulty": 1,
  "chainwork": "0000000000000000000000000000000000000000000000000000262726272627",
  "nTx": 1,
  "previousblockhash": "0000000050feb633e9a51d6720ec2a056632d5e05a36b6f66b651ce0b8a445d5",
  "nextblockhash": "000000000f05d756c81fdd85f43ddea8eee709710427b43dbd6587a4a1c24ac0",
  "strippedsize": 216,
  "size": 216,
  "weight": 864,
  "tx": [
    {
      "txid": "7b63d19a55d73b62830ca30256b0e77ee57874a85d6dbb078e124073c733b7eb",
      "hash": "7b63d19a55d73b62830ca30256b0e77ee57874a85d6dbb078e124073c733b7eb",
      "version": 1,
      "size": 135,
      "vsize": 135,
      "weight": 540,
      "locktime": 0,
      "vin": [
        {
          "coinbase": "04ffff001d020f0a",
          "sequence": 4294967295
        }
      ],
      "vout": [
        {
          "value": 50.0,
          "n": 0,
          "scriptPubKey": {
            "asm": "04e2090fa39a0ffc420dce11a36affb568e8f5891272ca1479573932d5f1d60eb0a2459535e7ad3cc3c0f089a6d1eb851df3ee49c9574e2b05fe7aece8e0b9f986 OP_CHECKSIG",
            "desc": "pk(04e2090fa39a0ffc420dce11a36affb568e8f5891272ca1479573932d5f1d60eb0a2459535e7ad3cc3c0f089a6d1eb851df3ee49c9574e2b05fe7aece8e0b9f986)#rga34fh5",
            "hex": "4104e2090fa39a0ffc420dce11a36affb568e8f5891272ca1479573932d5f1d60eb0a2459535e7ad3cc3c0f089a6d1eb851df3ee49c9574e2b05fe7aece8e0b9f986ac",
            "type": "pubkey"
          }
        }
      ],
      "hex": "01000000010000000000000000000000000000000000000000000000000000000000000000ffffffff0804ffff001d020f0affffffff0100f2052a01000000434104e2090fa39a0ffc420dce11a36affb568e8f5891272ca1479573932d5f1d60eb0a2459535e7ad3cc3c0f089a6d1eb851df3ee49c9574e2b05fe7aece8e0b9f986ac00000000"
    }
  ]
}