{
  "hash": "00000000369c1224472d510f1f62c6a65fa4927b957b84b60b82a8a22296cb01",
  "confirmations": 43601,
  "height": 9497,
  "version": 1,
  "versionHex": "00000001",
  "merkleroot": "036a9c3e1faff6b179ec4ef570f24aae71c7406af6737edd6f9a3eda678e93b6",
  "time": 1238626118,
  "mediantime": 1238623511,
  "nonce": 961057073,
  "bits": "1d00ffff",
  "difficulty": 1,
  "chainwork": "0000000000000000000000000000000000000000000000000000251a251a251a",
  "nTx": 1,
  "previousblockhash": "00000000796bb0f3d5bed9f22a473ea57366647ed904a0f212c29d21e29b49b1",
  "nextblockhash": "00000000736261e46c3a1b5693816353226798a02847ba6c755d5f23ef3bf9bf",
  "strippedsize": 216,
  "size": 216,
  "weight": 864,
  "tx": [
    {
      "txid": "036a9c3e1faff6b179ec4ef570f24aae71c7406af6737edd6f9a3eda678e93b6",
      "hash": "036a9c3e1faff6b179ec4ef570f24aae71c7406af6737edd6f9a3eda678e93b6",
      "version": 1,
      "size": 135,
      "vsize": 135,
      "weight": 540,
      "locktime": 0,
      "vin": [
        {
          "coinbase": "04ffff001d026905",
          "sequence": 4294967295
        }
      ],
      "vout": [
        {
          "value": 50.0,
          "n": 0,
          "scriptPubKey": {
            "asm": "0402365344f610eb5cac14f0d049fe7ae42af6871e10df521a47f808ea5c1f76a6a352975519c15eb9ccd1504352ec91a634dcf9cb2caa32b2b37fdd4fe078b682 OP_CHECKSIG",
            "desc": "pk(0402365344f610eb5cac14f0d049fe7ae42af6871e10df521a47f808ea5c1f76a6a352975519c15eb9ccd1504352ec91a634dcf9cb2caa32b2b37fdd4fe078b682)#0446yls2",
            "hex": "410402365344f610eb5cac14f0d049fe7ae42af6871e10df521a47f808ea5c1f76a6a352975519c15eb9ccd1504352ec91a634dcf9cb2caa32b2b37fdd4fe078b682ac",
            "type": "pubkey"
          }
        }
      ],
      "hex": "01000000010000000000000000000000000000000000000000000000000000000000000000ffffffff0804ffff001d026905ffffffff0100f2052a0100000043410402365344f610eb5cac14f0d049fe7ae42af6871e10df521a47f808ea5c1f76a6a352975519c15eb9ccd1504352ec91a634dcf9cb2caa32b2b37fdd4fe078b682ac00000000"
    }
  ]
}