{
  "hash": "00000000220d009e9e7ad165566fe1792b470ddbb3a48646ffd857cb109e8f37",
  "confirmations": 44162,
  "height": 8936,
  "version": 1,
  "versionHex": "00000001",
  "merkleroot": "b056eb2e0db0420cd85db143a87cc35b61fb741c4e37be8da81c8b12d11244f4",
  "time": 1238204898,
  "mediantime": 1238202929,
  "nonce": 1126575919,
  "bits": "1d00ffff",
  "difficulty": 1,
  "chainwork": "000000000000000000000000000000000000000000000000000022e922e922e9",
  "nTx": 1,
  "previousblockhash": "0000000058793892f5c17ee6b8f0b3e19a5f21ff0088571745e424cb4a121082",
  "nextblockhash": "00000000ee447ae94f067933bd06693246a12e1986d18ca5117364b632878e8b",
  "strippedsize": 216,
  "size": 216,
  "weight": 864,
  "tx": [
    {
      "txid": "b056eb2e0db0420cd85db143a87cc35b61fb741c4e37be8da81c8b12d11244f4",
      "hash": "b056eb2e0db0420cd85db143a87cc35b61fb741c4e37be8da81c8b12d11244f4",
      "version": 1,
      "size": 135,
      "vsize": 135,
      "weight": 540,
      "locktime": 0,
      "vin": [
        {
          "coinbase": "04ffff001d023905",
          "sequence": 4294967295
        }
      ],
      "vout": [
        {
          "value": 50.0,
          "n": 0,
          "scriptPubKey": {
            "asm": "04e54a422631db46c5cb5c24508b9f4f10774740ffea2d15998b478e8661a2c47e5db00b527ff792dc488994e87476b408817dc17004687b2b4eaf54e139312447 OP_CHECKSIG",
            "desc": "pk(04e54a422631db46c5cb5c24508b9f4f10774740ffea2d15998b478e8661a2c47e5db00b527ff792dc488994e87476b408817dc17004687b2b4eaf54e139312447)#dmxx7ukj",
            "hex": "4104e54a422631db46c5cb5c24508b9f4f10774740ffea2d15998b478e8661a2c47e5db00b527ff792dc488994e87476b408817dc17004687b2b4eaf54e139312447ac",
            "type": "pubkey"
          }
        }
      ],
      "hex": "01000000010000000000000000000000000000000000000000000000000000000000000000ffffffff0804ffff001d023905ffffffff0100f2052a01000000434104e54a422631db46c5cb5c24508b9f4f10774740ffea2d15998b478e8661a2c47e5db00b527ff792dc488994e87476b408817dc17004687b2b4eaf54e139312447ac00000000"
    }
  ]
}