{
  "hash": "000000002c366a1d494cfe69187059aa125ba410b9779ac6dcda38d7e6711fbe",
  "confirmations": 52431,
  "height": 667,
  "version": 1,
  "versionHex": "00000001",
  "merkleroot": "f0fd0c7dcd26c837e55d4bb07638a10c1a33bcbf6f968101d909917fc01dc3b0",
  "time": 1232079598,
  "mediantime": 1232076911,
  "nonce": 571919929,
  "bits": "1d00ffff",
  "difficulty": 1,
  "chainwork": "0000000000000000000000000000000000000000000000000000029c029c029c",
  "nTx": 1,
  "previousblockhash": "00000000fc5b3c76f27f810ee775e480ae7fd604fd196b2d8da4257fcd39f4f9",
  "nextblockhash": "0000000049caf505993a97999aaae3865ad632f413c1f7465b5629fd77153beb",
  "strippedsize": 215,
  "size": 215,
  "weight": 860,
  "tx": [
    {
      "txid": "f0fd0c7dcd26c837e55d4bb07638a10c1a33bcbf6f968101d909917fc01dc3b0",
      "hash": "f0fd0c7dcd26c837e55d4bb07638a10c1a33bcbf6f968101d909917fc01dc3b0",
      "version": 1,
      "size": 134,
      "vsize": 134,
      "weight": 536,
      "locktime": 0,
      "vin": [
        {
          "coinbase": "04ffff001d0123",
          "sequence": 4294967295
        }
      ],
      "vout": [
        {
          "value": 50.0,
          "n": 0,
          "scriptPubKey": {
            "asm": "04b7bc21d39d6243a2a85e0d505370c61d2fdac72f3c197498abf0878c2cda1a75a90b57c47f4907564ca865c97d8e34295bfe57f60a3d9e8748cec10755bdf358 OP_CHECKSIG",
            "desc": "pk(04b7bc21d39d6243a2a85e0d505370c61d2fdac72f3c197498abf0878c2cda1a75a90b57c47f4907564ca865c97d8e34295bfe57f60a3d9e8748cec10755bdf358)#7plw9a59",
            "hex": "4104b7bc21d39d6243a2a85e0d505370c61d2fdac72f3c197498abf0878c2cda1a75a90b57c47f4907564ca865c97d8e34295bfe57f60a3d9e8748cec10755bdf358ac",
            "type": "pubkey"
          }
        }
      ],
      "hex": "01000000010000000000000000000000000000000000000000000000000000000000000000ffffffff0704ffff001d0123ffffffff0100f2052a01000000434104b7bc21d39d6243a2a85e0d505370c61d2fdac72f3c197498abf0878c2cda1a75a90b57c47f4907564ca865c97d8e34295bfe57f60a3d9e8748cec10755bdf358ac00000000"
    }
  ]
}