{
  "hash": "000000006bfee7e986540759c8b18085b8f6cdbbae8bdefe8e5bc12086c25777",
  "confirmations": 51760,
  "height": 1338,
  "version": 1,
  "versionHex": "00000001",
  "merkleroot": "17a1f3d8682122a9a7fad26b4bd0da09864a220a05e85a05fea09a49a810ce7c",
  "time": 1232631018,
  "mediantime": 1232626023,
  "nonce": 3929218348,
  "bits": "1d00ffff",
  "difficulty": 1,
  "chainwork": "0000000000000000000000000000000000000000000000000000053b053b053b",
  "nTx": 1,
  "previousblockhash": "000000008bf44a528a09d203203a6a97c165cf53a92ecc27aed0b49b86a19564",
  "nextblockhash": "000000008d2cb17c35fcc238c878883646c6a9797211bd46c5e30076fa7f08d3",
  "strippedsize": 216,
  "size": 216,
  "weight": 864,
  "tx": [
    {
      "txid": "17a1f3d8682122a9a7fad26b4bd0da09864a220a05e85a05fea09a49a810ce7c",
      "hash": "17a1f3d8682122a9a7fad26b4bd0da09864a220a05e85a05fea09a49a810ce7c",
      "version": 1,
      "size": 135,
      "vsize": 135,
      "weight": 540,
      "locktime": 0,
      "vin": [
        {
          "coinbase": "04ffff001d02fe00",
          "sequence": 4294967295
        }
      ],
      "vout": [
        {
          "value": 50.0,
          "n": 0,
          "scriptPubKey": {
            "asm": "0416f871a19c15fedb9d73cbf658339e4754acdf9988ae08ca902146b87d248f2fca00f89188aafd392715bcac6056df62fb9bc795de8182fc8a94c3f0f558173f OP_CHECKSIG",
            "desc": "pk(0416f871a19c15fedb9d73cbf658339e4754acdf9988ae08ca902146b87d248f2fca00f89188aafd392715bcac6056df62fb9bc795de8182fc8a94c3f0f558173f)#cxpyfjaf",
            "hex": "410416f871a19c15fedb9d73cbf658339e4754acdf9988ae08ca902146b87d248f2fca00f89188aafd392715bcac6056df62fb9bc795de8182fc8a94c3f0f558173fac",
            "type": "pubkey"
          }
        }
      ],
      "hex": "01000000010000000000000000000000000000000000000000000000000000000000000000ffffffff0804ffff001d02fe00ffffffff0100f2052a0100000043410416f871a19c15fedb9d73cbf658339e4754acdf9988ae08ca902146b87d248f2fca00f89188aafd392715bcac6056df62fb9bc795de8182fc8a94c3f0f558173fac00000000"
    }
  ]
}