{
  "hash": "00000000d36813aaa6d2e7515029679f142b0a42be684e23e91498648bacb7b9",
  "confirmations": 44638,
  "height": 8460,
  "version": 1,
  "versionHex": "00000001",
  "merkleroot": "a9ce30193748022e47d4fcd0895d43455ac150bc991222d2b9b7f2d9c3172c32",
  "time": 1237837306,
  "mediantime": 1237833660,
  "nonce": 1998772009,
  "bits": "1d00ffff",
  "difficulty": 1,
  "chainwork": "0000000000000000000000000000000000000000000000000000210d210d210d",
  "nTx": 1,
  "previousblockhash": "0000000030c24b159bdf032c24fb14eeb798320e9f4e11d636aeb8eae48b9e71",
  "nextblockhash": "00000000f90147358404dfd986c23e2f9cac57537a7ceab02c350e2c38bb20ae",
  "strippedsize": 216,
  "size": 216,
  "weight": 864,
  "tx": [
    {
      "txid": "a9ce30193748022e47d4fcd0895d43455ac150bc991222d2b9b7f2d9c3172c32",
      "hash": "a9ce30193748022e47d4fcd0895d43455ac150bc991222d2b9b7f2d9c3172c32",
      "version": 1,
      "size": 135,
      "vsize": 135,
      "weight": 540,
      "locktime": 0,
      "vin": [
        {
          "coinbase": "04ffff001d02ea06",
          "sequence": 4294967295
        }
      ],
      "vout": [
        {
          "value": 50.0,
          "n": 0,
          "scriptPubKey": {
            "asm": "04bf815bc918ba23b79c3e86fa4db225ec0c6851e48ddd15d74581333960a93c9cd9561b846354123c421216b0f1e9007c42345b4ddb8469cfa1407b318eac67e5 OP_CHECKSIG",
            "desc": "pk(04bf815bc918ba23b79c3e86fa4db225ec0c6851e48ddd15d74581333960a93c9cd9561b846354123c421216b0f1e9007c42345b4ddb8469cfa1407b318eac67e5)#uuu8vgpc",
            "hex": "4104bf815bc918ba23b79c3e86fa4db225ec0c6851e48ddd15d74581333960a93c9cd9561b846354123c421216b0f1e9007c42345b4ddb8469cfa1407b318eac67e5ac",
            "type": "pubkey"
          }
        }
      ],
      "hex": "01000000010000000000000000000000000000000000000000000000000000000000000000ffffffff0804ffff001d02ea06ffffffff0100f2052a01000000434104bf815bc918ba23b79c3e86fa4db225ec0c6851e48ddd15d74581333960a93c9cd9561b846354123c421216b0f1e9007c42345b4ddb8469cfa1407b318eac67e5ac00000000"
    }
  ]
}