{
  "hash": "00000000b55ffd9fb6287b37c50bb6c82a8bb81d2b67c8294ddc8cdf46e79fce",
  "confirmations": 52195,
  "height": 903,
  "version": 1,
  "versionHex": "00000001",
  "merkleroot": "e41d9c08bef9dc164bd527f3d85f0a2631ff481686b7aacda2eca8f10187aeee",
  "time": 1232279463,
  "mediantime": 1232274205,
  "nonce": 2244816921,
  "bits": "1d00ffff",
  "difficulty": 1,
  "chainwork": "0000000000000000000000000000000000000000000000000000038803880388",
  "nTx": 1,
  "previousblockhash": "000000007e53b7c2305ef1d7cac84e37402675d664884ff9e94c44effd2097c3",
  "nextblockhash": "00000000e971a5014d9f7a70e26b223dbb68a51c4a6340824ef8deca00a30430",
  "strippedsize": 216,
  "size": 216,
  "weight": 864,
  "tx": [
    {
      "txid": "e41d9c08bef9dc164bd527f3d85f0a2631ff481686b7aacda2eca8f10187aeee",
      "hash": "e41d9c08bef9dc164bd527f3d85f0a2631ff481686b7aacda2eca8f10187aeee",
      "version": 1,
      "size": 135,
      "vsize": 135,
      "weight": 540,
      "locktime": 0,
      "vin": [
        {
          "coinbase": "04ffff001d02b903",
          "sequence": 4294967295
        }
      ],
      "vout": [
        {
          "value": 50.0,
          "n": 0,
          "scriptPubKey": {
            "asm": "04d73777d290a91a0dee653020ab305fb6a644f92da402b7894cf7394a5bd69c913ea444ce703bd79b436b52653a93328d45a3ba6b6c4855df8c1368204cfabf6e OP_CHECKSIG",
            "desc": "pk(04d73777d290a91a0dee653020ab305fb6a644f92da402b7894cf7394a5bd69c913ea444ce703bd79b436b52653a93328d45a3ba6b6c4855df8c1368204cfabf6e)#lxhtxz24",
            "hex": "4104d73777d290a91a0dee653020ab305fb6a644f92da402b7894cf7394a5bd69c913ea444ce703bd79b436b52653a93328d45a3ba6b6c4855df8c1368204cfabf6eac",
            "type": "pubkey"
          }
        }
      ],
      "hex": "01000000010000000000000000000000000000000000000000000000000000000000000000ffffffff0804ffff001d02b903ffffffff0100f2052a01000000434104d73777d290a91a0dee653020ab305fb6a644f92da402b7894cf7394a5bd69c913ea444ce703bd79b436b52653a93328d45a3ba6b6c4855df8c1368204cfabf6eac00000000"
    }
  ]
}