{
  "hash": "000000002de29197d5cb96c1a3ec08a2265923f8933dbcb491a0c5254c18f7f7",
  "confirmations": 45740,
  "height": 7358,
  "version": 1,
  "versionHex": "00000001",
  "merkleroot": "d51eaa30e75d2997c340ab43894fa907e00ab3fe7bf4177a08b8728055591b1a",
  "time": 1236988640,
  "mediantime": 1236986151,
  "nonce": 98984577,
  "bits": "1d00ffff",
  "difficulty": 1,
  "chainwork": "00000000000000000000000000000000000000000000000000001cbf1cbf1cbf",
  "nTx": 1,
  "previousblockhash": "000000007f1d30edd6c0d64956a2f4af691dfb60bf71a32591153e4f9efa871f",
  "nextblockhash": "00000000977ae795b3e3eda03f83e3dddf98a294895dc34c94036182d76a16df",
  "strippedsize": 215,
  "size": 215,
  "weight": 860,
  "tx": [
    {
      "txid": "d51eaa30e75d2997c340ab43894fa907e00ab3fe7bf4177a08b8728055591b1a",
      "hash": "d51eaa30e75d2997c340ab43894fa907e00ab3fe7bf4177a08b8728055591b1a",
      "version": 1,
      "size": 134,
      "vsize": 134,
      "weight": 536,
      "locktime": 0,
      "vin": [
        {
          "coinbase": "04ffff001d015b",
          "sequence": 4294967295
        }
      ],
      "vout": [
        {
          "value": 50.0,
          "n": 0,
          "scriptPubKey": {
            "asm": "043df5f8d82a8ae788e4ec5d62f8c54c290724d7f6373cfabd585b03510ae9c2e5335d6b3201b1a741e213157e33c41a0dff0d644eb1cec2efb7b9af25bea6f47b OP_CHECKSIG",
            "desc": "pk(043df5f8d82a8ae788e4ec5d62f8c54c290724d7f6373cfabd585b03510ae9c2e5335d6b3201b1a741e213157e33c41a0dff0d644eb1cec2efb7b9af25bea6f47b)#a44l8s9g",
            "hex": "41043df5f8d82a8ae788e4ec5d62f8c54c290724d7f6373cfabd585b03510ae9c2e5335d6b3201b1a741e213157e33c41a0dff0d644eb1cec2efb7b9af25bea6f47bac",
            "type": "pubkey"
          }
        }
      ],
      "hex": "01000000010000000000000000000000000000000000000000000000000000000000000000ffffffff0704ffff001d015bffffffff0100f2052a010000004341043df5f8d82a8ae788e4ec5d62f8c54c290724d7f6373cfabd585b03510ae9c2e5335d6b3201b1a741e213157e33c41a0dff0d644eb1cec2efb7b9af25bea6f47bac00000000"
    }
  ]
}