{
  "hash": "00000000019176838de40606d70738084f2fbc48a50548eeeac3ceb857677c6d",
  "confirmations": 52010,
  "height": 113,
  "version": 1,
  "versionHex": "00000001",
  "merkleroot": "2190266c257e569eb34062471fd3d2327252ab5bdc6427dbc4531e2c8ac4e5e1",
  "time": 1231670975,
  "mediantime": 1231667222,
  "nonce": 18053892,
  "bits": "1d00ffff",
  "difficulty": 1,
  "chainwork": "0000000000000000000000000000000000000000000000000000007200720072",
  "nTx": 1,
  "previousblockhash": "00000000ce2780c9640fde662ffbb07a10c9e96a226718875225a9a0fe6ac337",
  "nextblockhash": "000000005d7dd40c24c4b6334812f48d4386c7756fb9006d6c74300837c91ebd",
  "strippedsize": 216,
  "size": 216,
  "weight": 864,
  "tx": [
    {
      "txid": "2190266c257e569eb34062471fd3d2327252ab5bdc6427dbc4531e2c8ac4e5e1",
      "hash": "2190266c257e569eb34062471fd3d2327252ab5bdc6427dbc4531e2c8ac4e5e1",
      "version": 1,
      "size": 135,
      "vsize": 135,
      "weight": 540,
      "locktime": 0,
      "vin": [
        {
          "coinbase": "04ffff001d02ab00",
          "sequence": 4294967295
        }
      ],
      "vout": [
        {
          "value": 50.0,
          "n": 0,
          "scriptPubKey": {
            "asm": "04d8fc18bbf716dfdfe6775d83b1b91bdd6ae3fb07093788e96d36c65cff5812f2705e99228bc31e3338011359d96f7419a084d317431ce8a8103dcdc752716d43 OP_CHECKSIG",
            "desc": "pk(04d8fc18bbf716dfdfe6775d83b1b91bdd6ae3fb07093788e96d36c65cff5812f2705e99228bc31e3338011359d96f7419a084d317431ce8a8103dcdc752716d43)#kzkgkwww",
            "hex": "4104d8fc18bbf716dfdfe6775d83b1b91bdd6ae3fb07093788e96d36c65cff5812f2705e99228bc31e3338011359d96f7419a084d317431ce8a8103dcdc752716d43ac",
            "type": "pubkey"
          }
        }
      ],
      "hex": "01000000010000000000000000000000000000000000000000000000000000000000000000ffffffff0804ffff001d02ab00ffffffff0100f2052a01000000434104d8fc18bbf716dfdfe6775d83b1b91bdd6ae3fb07093788e96d36c65cff5812f2705e99228bc31e3338011359d96f7419a084d317431ce8a8103dcdc752716d43ac00000000"
    }
  ]
}