{
  "hash": "00000000c5d078e6198193ec872d5400ce78257db3c4298f060344f86fe1fefa",
  "confirmations": 51040,
  "height": 2058,
  "version": 1,
  "versionHex": "00000001",
  "merkleroot": "69d21c7cf22f9c1900854a1a306b1efcf5990b23e10a847c0a67f57e2bda1d4d",
  "time": 1233103080,
  "mediantime": 1233098300,
  "nonce": 2772962106,
  "bits": "1d00ffff",
  "difficulty": 1,
  "chainwork": "0000000000000000000000000000000000000000000000000000080b080b080b",
  "nTx": 1,
  "previousblockhash": "00000000acd58d5632619a889f751c9f508f7869f05814e6ce4b004258969342",
  "nextblockhash": "000000004fdc363a128276c9acbf4e4e9217a9a88852b6682d71a637d029c21f",
  "strippedsize": 216,
  "size": 216,
  "weight": 864,
  "tx": [
    {
      "txid": "69d21c7cf22f9c1900854a1a306b1efcf5990b23e10a847c0a67f57e2bda1d4d",
      "hash": "69d21c7cf22f9c1900854a1a306b1efcf5990b23e10a847c0a67f57e2bda1d4d",
      "version": 1,
      "size": 135,
      "vsize": 135,
      "weight": 540,
      "locktime": 0,
      "vin": [
        {
          "coinbase": "04ffff001d02f002",
          "sequence": 4294967295
        }
      ],
      "vout": [
        {
          "value": 50.0,
          "n": 0,
          "scriptPubKey": {
            "asm": "04590d513c126e2458c5b43433b72c7da3198111b282cdc3b52ebab6b8194fc36366870073b8598d8e859d73c9365b636d8db127e87b35cf22bb71a0351554d94d OP_CHECKSIG",
            "desc": "pk(04590d513c126e2458c5b43433b72c7da3198111b282cdc3b52ebab6b8194fc36366870073b8598d8e859d73c9365b636d8db127e87b35cf22bb71a0351554d94d)#d5c5mcqe",
            "hex": "4104590d513c126e2458c5b43433b72c7da3198111b282cdc3b52ebab6b8194fc36366870073b8598d8e859d73c9365b636d8db127e87b35cf22bb71a0351554d94dac",
            "type": "pubkey"
          }
        }
      ],
      "hex": "01000000010000000000000000000000000000000000000000000000000000000000000000ffffffff0804ffff001d02f002ffffffff0100f2052a01000000434104590d513c126e2458c5b43433b72c7da3198111b282cdc3b52ebab6b8194fc36366870073b8598d8e859d73c9365b636d8db127e87b35cf22bb71a0351554d94dac00000000"
    }
  ]
}