{
  "hash": "00000000cc3b5b188b3e1d413a52c04f392a9276c5529a05af81393073ba530d",
  "confirmations": 43761,
  "height": 9337,
  "version": 1,
  "versionHex": "00000001",
  "merkleroot": "60b30d9ecaf93d64002f6cc6344acf4c5b386e0adb664b53d0ad2edf2c07b1bf",
  "time": 1238501708,
  "mediantime": 1238499365,
  "nonce": 1968992537,
  "bits": "1d00ffff",
  "difficulty": 1,
  "chainwork": "0000000000000000000000000000000000000000000000000000247a247a247a",
  "nTx": 1,
  "previousblockhash": "000000000494c1e7e3c3b80f24c736542c0a28e24c710d91f9d727fa13dceb21",
  "nextblockhash": "000000005016fdbd61cc2f2d78780512bd5b722c17e92b3fabe822546cda1a89",
  "strippedsize": 216,
  "size": 216,
  "weight": 864,
  "tx": [
    {
      "txid": "60b30d9ecaf93d64002f6cc6344acf4c5b386e0adb664b53d0ad2edf2c07b1bf",
      "hash": "60b30d9ecaf93d64002f6cc6344acf4c5b386e0adb664b53d0ad2edf2c07b1bf",
      "version": 1,
      "size": 135,
      "vsize": 135,
      "weight": 540,
      "locktime": 0,
      "vin": [
        {
          "coinbase": "04ffff001d027802",
          "sequence": 4294967295
        }
      ],
      "vout": [
        {
          "value": 50.0,
          "n": 0,
          "scriptPubKey": {
            "asm": "04d7d2e21c85b3bf5b663c5b29743ffc04fdbc28e7b8f867a34d4555ba50e8744c7fe430dd9b0965f908adccdbc3b7a64b80f32aee4e6ae67f28a333b9c79da95c OP_CHECKSIG",
            "desc": "pk(04d7d2e21c85b3bf5b663c5b29743ffc04fdbc28e7b8f867a34d4555ba50e8744c7fe430dd9b0965f908adccdbc3b7a64b80f32aee4e6ae67f28a333b9c79da95c)#yqh0y2rr",
            "hex": "4104d7d2e21c85b3bf5b663c5b29743ffc04fdbc28e7b8f867a34d4555ba50e8744c7fe430dd9b0965f908adccdbc3b7a64b80f32aee4e6ae67f28a333b9c79da95cac",
            "type": "pubkey"
          }
        }
      ],
      "hex": "01000000010000000000000000000000000000000000000000000000000000000000000000ffffffff0804ffff001d027802ffffffff0100f2052a01000000434104d7d2e21c85b3bf5b663c5b29743ffc04fdbc28e7b8f867a34d4555ba50e8744c7fe430dd9b0965f908adccdbc3b7a64b80f32aee4e6ae67f28a333b9c79da95cac00000000"
    }
  ]
}