{
  "hash": "000000009d524126e78d19290cd9d7fa356ce0c2b58d67fbe8e51142e811bee8",
  "confirmations": 51127,
  "height": 1971,
  "version": 1,
  "versionHex": "00000001",
  "merkleroot": "a9422dbbb7539365b2eef2297a4838c22cd4d95cf7566a8dc32b38f11a4a1540",
  "time": 1233024771,
  "mediantime": 1233021443,
  "nonce": 210198849,
  "bits": "1d00ffff",
  "difficulty": 1,
  "chainwork": "000000000000000000000000000000000000000000000000000007b407b407b4",
  "nTx": 1,
  "previousblockhash": "000000001210de7676a0944eb9a0df4cd4001868be65f0f1b0abb80061521bb4",
  "nextblockhash": "0000000003c11ac3a009b94dccc057555966b994bd1de1f538758bf22b1a2713",
  "strippedsize": 215,
  "size": 215,
  "weight": 860,
  "tx": [
    {
      "txid": "a9422dbbb7539365b2eef2297a4838c22cd4d95cf7566a8dc32b38f11a4a1540",
      "hash": "a9422dbbb7539365b2eef2297a4838c22cd4d95cf7566a8dc32b38f11a4a1540",
      "version": 1,
      "size": 134,
      "vsize": 134,
      "weight": 536,
      "locktime": 0,
      "vin": [
        {
          "coinbase": "04ffff001d0116",
          "sequence": 4294967295
        }
      ],
      "vout": [
        {
          "value": 50.0,
          "n": 0,
          "scriptPubKey": {
            "asm": "04952cc6c1a63084f8f0cd559491cf3e0d169e529292bedf1361f14717fcb45f01c59c7e1089bf06ff010dd1eca67e1bf79ebb90e78ebfabfb4eda43a757b5e0bc OP_CHECKSIG",
            "desc": "pk(04952cc6c1a63084f8f0cd559491cf3e0d169e529292bedf1361f14717fcb45f01c59c7e1089bf06ff010dd1eca67e1bf79ebb90e78ebfabfb4eda43a757b5e0bc)#s9jdct3s",
            "hex": "4104952cc6c1a63084f8f0cd559491cf3e0d169e529292bedf1361f14717fcb45f01c59c7e1089bf06ff010dd1eca67e1bf79ebb90e78ebfabfb4eda43a757b5e0bcac",
            "type": "pubkey"
          }
        }
      ],
      "hex": "01000000010000000000000000000000000000000000000000000000000000000000000000ffffffff0704ffff001d0116ffffffff0100f2052a01000000434104952cc6c1a63084f8f0cd559491cf3e0d169e529292bedf1361f14717fcb45f01c59c7e1089bf06ff010dd1eca67e1bf79ebb90e78ebfabfb4eda43a757b5e0bcac00000000"
    }
  ]
}