{
  "hash": "0000000051654a00514d993e928b21e06c47dc16d4e289bb435ea6f7d55b357b",
  "confirmations": 52495,
  "height": 603,
  "version": 1,
  "versionHex": "00000001",
  "merkleroot": "d490c711a13544f7df1d365f90cce8004413866d8b1e20939a5c572551e54412",
  "time": 1232041314,
  "mediantime": 1232037121,
  "nonce": 1982569012,
  "bits": "1d00ffff",
  "difficulty": 1,
  "chainwork": "0000000000000000000000000000000000000000000000000000025c025c025c",
  "nTx": 1,
  "previousblockhash": "00000000484bd8ea4a2a306a2b5ff8d6a3529df0097237183a9924d1d1a8073b",
  "nextblockhash": "00000000d8090bee52f17b5b4042b3ccd4f5d018419efaaaf2a8f0cf613f6273",
  "strippedsize": 216,
  "size": 216,
  "weight": 864,
  "tx": [
    {
      "txid": "d490c711a13544f7df1d365f90cce8004413866d8b1e20939a5c572551e54412",
      "hash": "d490c711a13544f7df1d365f90cce8004413866d8b1e20939a5c572551e54412",
      "version": 1,
      "size": 135,
      "vsize": 135,
      "weight": 540,
      "locktime": 0,
      "vin": [
        {
          "coinbase": "04ffff001d02c606",
          "sequence": 4294967295
        }
      ],
      "vout": [
        {
          "value": 50.0,
          "n": 0,
          "scriptPubKey": {
            "asm": "047fe25fcdcf84d60a038364e0a7b4a72d11b6aaf2b8ae98bea5a4d7c2db74ee9029a9c88895c0f47256d593efcb2483935dee46e7989c9e6cc4050b9464186aa8 OP_CHECKSIG",
            "desc": "pk(047fe25fcdcf84d60a038364e0a7b4a72d11b6aaf2b8ae98bea5a4d7c2db74ee9029a9c88895c0f47256d593efcb2483935dee46e7989c9e6cc4050b9464186aa8)#fjk7u39j",
            "hex": "41047fe25fcdcf84d60a038364e0a7b4a72d11b6aaf2b8ae98bea5a4d7c2db74ee9029a9c88895c0f47256d593efcb2483935dee46e7989c9e6cc4050b9464186aa8ac",
            "type": "pubkey"
          }
        }
      ],
      "hex": "01000000010000000000000000000000000000000000000000000000000000000000000000ffffffff0804ffff001d02c606ffffffff0100f2052a010000004341047fe25fcdcf84d60a038364e0a7b4a72d11b6aaf2b8ae98bea5a4d7c2db74ee9029a9c88895c0f47256d593efcb2483935dee46e7989c9e6cc4050b9464186aa8ac00000000"
    }
  ]
}