{
  "hash": "000000004b6ade3688cdad7b6f78ba650503cf986d13ae3750ccb44ff2785443",
  "confirmations": 44107,
  "height": 8991,
  "version": 1,
  "versionHex": "00000001",
  "merkleroot": "4780767e626f0a5d00abe79dd0e63b9f88a19e9ea805a1519f79c9c012c34544",
  "time": 1238245931,
  "mediantime": 1238242613,
  "nonce": 814336277,
  "bits": "1d00ffff",
  "difficulty": 1,
  "chainwork": "0000000000000000000000000000000000000000000000000000232023202320",
  "nTx": 1,
  "previousblockhash": "00000000b5f612cfc098368210f90e3aa7252e0fc159b0c221878dc00eb8b318",
  "nextblockhash": "00000000aa5d657e89fa1edf8c21247942d4cbb730188db2990c8abba491615c",
  "strippedsize": 216,
  "size": 216,
  "weight": 864,
  "tx": [
    {
      "txid": "4780767e626f0a5d00abe79dd0e63b9f88a19e9ea805a1519f79c9c012c34544",
      "hash": "4780767e626f0a5d00abe79dd0e63b9f88a19e9ea805a1519f79c9c012c34544",
      "version": 1,
      "size": 135,
      "vsize": 135,
      "weight": 540,
      "locktime": 0,
      "vin": [
        {
          "coinbase": "04ffff001d023506",
          "sequence": 4294967295
        }
      ],
      "vout": [
        {
          "value": 50.0,
          "n": 0,
          "scriptPubKey": {
            "asm": "0412ce060cba66f06c65527d23308e943f2ecd53acd06e4f145a41d0ddd54dd71f8dda780454aabcba1409d202c7f23cb0860cd233b206a2cdf84a978b6eb4ad61 OP_CHECKSIG",
            "desc": "pk(0412ce060cba66f06c65527d23308e943f2ecd53acd06e4f145a41d0ddd54dd71f8dda780454aabcba1409d202c7f23cb0860cd233b206a2cdf84a978b6eb4ad61)#j95g08u6",
            "hex": "410412ce060cba66f06c65527d23308e943f2ecd53acd06e4f145a41d0ddd54dd71f8dda780454aabcba1409d202c7f23cb0860cd233b206a2cdf84a978b6eb4ad61ac",
            "type": "pubkey"
          }
        }
      ],
      "hex": "01000000010000000000000000000000000000000000000000000000000000000000000000ffffffff0804ffff001d023506ffffffff0100f2052a0100000043410412ce060cba66f06c65527d23308e943f2ecd53acd06e4f145a41d0ddd54dd71f8dda780454aabcba1409d202c7f23cb0860cd233b206a2cdf84a978b6eb4ad61ac00000000"
    }
  ]
}