{
  "hash": "000000002c4a061ce273b4b550a28287e19b487f10677e11768d7aed93e533b7",
  "confirmations": 51772,
  "height": 1326,
  "version": 1,
  "versionHex": "00000001",
  "merkleroot": "5a32e2f2655b4fdb51ba91390110918690bf6f3dfbccb75e2277a1d33cf99a3a",
  "time": 1232619577,
  "mediantime": 1232613826,
  "nonce": 1882833971,
  "bits": "1d00ffff",
  "difficulty": 1,
  "chainwork": "0000000000000000000000000000000000000000000000000000052f052f052f",
  "nTx": 1,
  "previousblockhash": "00000000886950f32f0be2c9d48f0c05b5ead3662b360b6c3d5a254e3ce7c81f",
  "nextblockhash": "00000000181f90775d280ecad91c6e7c5f98ef147c952da85069ef2c42c32baf",
  "strippedsize": 216,
  "size": 216,
  "weight": 864,
  "tx": [
    {
      "txid": "5a32e2f2655b4fdb51ba91390110918690bf6f3dfbccb75e2277a1d33cf99a3a",
      "hash": "5a32e2f2655b4fdb51ba91390110918690bf6f3dfbccb75e2277a1d33cf99a3a",
      "version": 1,
      "size": 135,
      "vsize": 135,
      "weight": 540,
      "locktime": 0,
      "vin": [
        {
          "coinbase": "04ffff001d02a400",
          "sequence": 4294967295
        }
      ],
      "vout": [
        {
          "value": 50.0,
          "n": 0,
          "scriptPubKey": {
            "asm": "0491164efa85704bc7740dceb5585edf93854ba03736cedc75ddb5145488db7694e5db4da0d5e45aa0c68d26e51c6cd6d59ce64c32f3ded57c8fc7bd53c0ba4b8f OP_CHECKSIG",
            "desc": "pk(0491164efa85704bc7740dceb5585edf93854ba03736cedc75ddb5145488db7694e5db4da0d5e45aa0c68d26e51c6cd6d59ce64c32f3ded57c8fc7bd53c0ba4b8f)#xj3vemq4",
            "hex": "410491164efa85704bc7740dceb5585edf93854ba03736cedc75ddb5145488db7694e5db4da0d5e45aa0c68d26e51c6cd6d59ce64c32f3ded57c8fc7bd53c0ba4b8fac",
            "type": "pubkey"
          }
        }
      ],
      "hex": "01000000010000000000000000000000000000000000000000000000000000000000000000ffffffff0804ffff001d02a400ffffffff0100f2052a0100000043410491164efa85704bc7740dceb5585edf93854ba03736cedc75ddb5145488db7694e5db4da0d5e45aa0c68d26e51c6cd6d59ce64c32f3ded57c8fc7bd53c0ba4b8fac00000000"
    }
  ]
}