{
  "hash": "00000000a637ff6e13683bce30ea71cdbb508c166b1d0af90a4224da387f5bd7",
  "confirmations": 51242,
  "height": 1856,
  "version": 1,
  "versionHex": "00000001",
  "merkleroot": "f5a0386566806762ebda0492a1a9de72b10986cd1e4df17e5c6fe24c03fff702",
  "time": 1232924487,
  "mediantime": 1232922677,
  "nonce": 1803572762,
  "bits": "1d00ffff",
  "difficulty": 1,
  "chainwork": "0000000000000000000000000000000000000000000000000000074107410741",
  "nTx": 1,
  "previousblockhash": "000000003de1ee229e167223897b679e43b43f9a57df1195472e4b2f74cc2ad3",
  "nextblockhash": "000000000e05bb2ee2b7f083d105e7535aecf1d769cf50444e35257c707ec18d",
  "strippedsize": 216,
  "size": 216,
  "weight": 864,
  "tx": [
    {
      "txid": "f5a0386566806762ebda0492a1a9de72b10986cd1e4df17e5c6fe24c03fff702",
      "hash": "f5a0386566806762ebda0492a1a9de72b10986cd1e4df17e5c6fe24c03fff702",
      "version": 1,
      "size": 135,
      "vsize": 135,
      "weight": 540,
      "locktime": 0,
      "vin": [
        {
          "coinbase": "04ffff001d02a004",
          "sequence": 4294967295
        }
      ],
      "vout": [
        {
          "value": 50.0,
          "n": 0,
          "scriptPubKey": {
            "asm": "04950996dee3086ede8802e8241b4ae6acbe2d696040b6496e2188b4d225eed6ffcb88214b955c610b2096b772a02e510aacf62a3ed0ee00b09de0007f74dac28e OP_CHECKSIG",
            "desc": "pk(04950996dee3086ede8802e8241b4ae6acbe2d696040b6496e2188b4d225eed6ffcb88214b955c610b2096b772a02e510aacf62a3ed0ee00b09de0007f74dac28e)#0dx3hnld",
            "hex": "4104950996dee3086ede8802e8241b4ae6acbe2d696040b6496e2188b4d225eed6ffcb88214b955c610b2096b772a02e510aacf62a3ed0ee00b09de0007f74dac28eac",
            "type": "pubkey"
          }
        }
      ],
      "hex": "01000000010000000000000000000000000000000000000000000000000000000000000000ffffffff0804ffff001d02a004ffffffff0100f2052a01000000434104950996dee3086ede8802e8241b4ae6acbe2d696040b6496e2188b4d225eed6ffcb88214b955c610b2096b772a02e510aacf62a3ed0ee00b09de0007f74dac28eac00000000"
    }
  ]
}