{
  "hash": "000000009fe858ee32bb0b9f98507080ae5938a41769b425e37d0038c4f412f8",
  "confirmations": 47626,
  "height": 5472,
  "version": 1,
  "versionHex": "00000001",
  "merkleroot": "21aeda22f735f6bbfa6f4efa83a960357b52eff41edbe6cb586b08ae97e5b6dd",
  "time": 1235498878,
  "mediantime": 1235495989,
  "nonce": 1769892404,
  "bits": "1d00ffff",
  "difficulty": 1,
  "chainwork": "0000000000000000000000000000000000000000000000000000156115611561",
  "nTx": 1,
  "previousblockhash": "00000000cd67e465a7dc7d6a61165a5920364fb1b4a4219fe9eb7762852ac2de",
  "nextblockhash": "0000000070da89af371ca6cc199981e32dbb3ecff3e887a15f6c228428352101",
  "strippedsize": 216,
  "size": 216,
  "weight": 864,
  "tx": [
    {
      "txid": "21aeda22f735f6bbfa6f4efa83a960357b52eff41edbe6cb586b08ae97e5b6dd",
      "hash": "21aeda22f735f6bbfa6f4efa83a960357b52eff41edbe6cb586b08ae97e5b6dd",
      "version": 1,
      "size": 135,
      "vsize": 135,
      "weight": 540,
      "locktime": 0,
      "vin": [
        {
          "coinbase": "04ffff001d021905",
          "sequence": 4294967295
        }
      ],
      "vout": [
        {
          "value": 50.0,
          "n": 0,
          "scriptPubKey": {
            "asm": "04f45b0ab8c94aee06203ea133c1874d688a1b83684c16338b00429c23f4864ee4ab9ca676d1be8fced61a3f6caec2f9d98cbfd497e9417fb111d16793c2f82f49 OP_CHECKSIG",
            "desc": "pk(04f45b0ab8c94aee06203ea133c1874d688a1b83684c16338b00429c23f4864ee4ab9ca676d1be8fced61a3f6caec2f9d98cbfd497e9417fb111d16793c2f82f49)#mzr6q99u",
            "hex": "4104f45b0ab8c94aee06203ea133c1874d688a1b83684c16338b00429c23f4864ee4ab9ca676d1be8fced61a3f6caec2f9d98cbfd497e9417fb111d16793c2f82f49ac",
            "type": "pubkey"
          }
        }
      ],
      "hex": "01000000010000000000000000000000000000000000000000000000000000000000000000ffffffff0804ffff001d021905ffffffff0100f2052a01000000434104f45b0ab8c94aee06203ea133c1874d688a1b83684c16338b00429c23f4864ee4ab9ca676d1be8fced61a3f6caec2f9d98cbfd497e9417fb111d16793c2f82f49ac00000000"
    }
  ]
}