{
  "hash": "00000000d0ddbb568e13f29531695cdb7dc6a82506268b67bcf8cd12846a29f3",
  "confirmations": 49258,
  "height": 3840,
  "version": 1,
  "versionHex": "00000001",
  "merkleroot": "cb4a6848393c2bfc8ec93b9126358d11554fe0d96aea2abda13a4a519bb1a6a7",
  "time": 1234328425,
  "mediantime": 1234326868,
  "nonce": 3750458671,
  "bits": "1d00ffff",
  "difficulty": 1,
  "chainwork": "00000000000000000000000000000000000000000000000000000f010f010f01",
  "nTx": 1,
  "previousblockhash": "00000000babfe9b1d75d1348d1b271d3f416be8b73481ffbe4c049ac5ba2274d",
  "nextblockhash": "00000000fb3fa6f0d3f8707d41f30e8f6b4cd71027b2ced3e08f37cccd688f69",
  "strippedsize": 216,
  "size": 216,
  "weight": 864,
  "tx": [
    {
      "txid": "cb4a6848393c2bfc8ec93b9126358d11554fe0d96aea2abda13a4a519bb1a6a7",
      "hash": "cb4a6848393c2bfc8ec93b9126358d11554fe0d96aea2abda13a4a519bb1a6a7",
      "version": 1,
      "size": 135,
      "vsize": 135,
      "weight": 540,
      "locktime": 0,
      "vin": [
        {
          "coinbase": "04ffff001d02d001",
          "sequence": 4294967295
        }
      ],
      "vout": [
        {
          "value": 50.0,
          "n": 0,
          "scriptPubKey": {
            "asm": "041e6aa0742c29d04c66aa1341ab2e08e5c4e21b69d936ac1b0301cfd5f27465a43962b6f29e61ba1aa1f258cefa9cd51d5b0926bfa1da35cdc63ef517087f578b OP_CHECKSIG",
            "desc": "pk(041e6aa0742c29d04c66aa1341ab2e08e5c4e21b69d936ac1b0301cfd5f27465a43962b6f29e61ba1aa1f258cefa9cd51d5b0926bfa1da35cdc63ef517087f578b)#s5d5lyp4",
            "hex": "41041e6aa0742c29d04c66aa1341ab2e08e5c4e21b69d936ac1b0301cfd5f27465a43962b6f29e61ba1aa1f258cefa9cd51d5b0926bfa1da35cdc63ef517087f578bac",
            "type": "pubkey"
          }
        }
      ],
      "hex": "01000000010000000000000000000000000000000000000000000000000000000000000000ffffffff0804ffff001d02d001ffffffff0100f2052a010000004341041e6aa0742c29d04c66aa1341ab2e08e5c4e21b69d936ac1b0301cfd5f27465a43962b6f29e61ba1aa1f258cefa9cd51d5b0926bfa1da35cdc63ef517087f578bac00000000"
    }
  ]
}