{
  "hash": "00000000b049cef6b1ebe0d1ecdd2465d6907a68d35e9c086a0974b73c2afef9",
  "confirmations": 47815,
  "height": 5283,
  "version": 1,
  "versionHex": "00000001",
  "merkleroot": "0c3fd0306aa808710136e5dc09454200aafee9f388151be4fc333322f6d2b3b3",
  "time": 1235346823,
  "mediantime": 1235343474,
  "nonce": 71269669,
  "bits": "1d00ffff",
  "difficulty": 1,
  "chainwork": "000000000000000000000000000000000000000000000000000014a414a414a4",
  "nTx": 1,
  "previousblockhash": "00000000156b3896b33dd7c76f41cfd32187c877665be9371d3a8d20281fa9f1",
  "nextblockhash": "000000008d4c1547c65043606c7e22c2630dd66a078e77e1b0e9cf70dfa95ef3",
  "strippedsize": 216,
  "size": 216,
  "weight": 864,
  "tx": [
    {
      "txid": "0c3fd0306aa808710136e5dc09454200aafee9f388151be4fc333322f6d2b3b3",
      "hash": "0c3fd0306aa808710136e5dc09454200aafee9f388151be4fc333322f6d2b3b3",
      "version": 1,
      "size": 135,
      "vsize": 135,
      "weight": 540,
      "locktime": 0,
      "vin": [
        {
          "coinbase": "04ffff001d02cd01",
          "sequence": 4294967295
        }
      ],
      "vout": [
        {
          "value": 50.0,
          "n": 0,
          "scriptPubKey": {
            "asm": "04871283f17906a5e7b0e002e1055af904eb0f48be8056adfbe97f428c655946adc19e4534e7996f5e18369dd6db0e756b8708b5e9d927cf0a7836faf6fcf4486e OP_CHECKSIG",
            "desc": "pk(04871283f17906a5e7b0e002e1055af904eb0f48be8056adfbe97f428c655946adc19e4534e7996f5e18369dd6db0e756b8708b5e9d927cf0a7836faf6fcf4486e)#mm7s9zdc",
            "hex": "4104871283f17906a5e7b0e002e1055af904eb0f48be8056adfbe97f428c655946adc19e4534e7996f5e18369dd6db0e756b8708b5e9d927cf0a7836faf6fcf4486eac",
            "type": "pubkey"
          }
        }
      ],
      "hex": "01000000010000000000000000000000000000000000000000000000000000000000000000ffffffff0804ffff001d02cd01ffffffff0100f2052a01000000434104871283f17906a5e7b0e002e1055af904eb0f48be8056adfbe97f428c655946adc19e4534e7996f5e18369dd6db0e756b8708b5e9d927cf0a7836faf6fcf4486eac00000000"
    }
  ]
}