{
  "hash": "000000004b1b5dc962fb6668d806c335677bd633b702274bc6c7fc3ccd70941d",
  "confirmations": 45630,
  "height": 7468,
  "version": 1,
  "versionHex": "00000001",
  "merkleroot": "595ffc49d27284f5f19bc1e80047da5fd8c8b30bbf023a7875c3848f13851db5",
  "time": 1237074910,
  "mediantime": 1237072290,
  "nonce": 1404024374,
  "bits": "1d00ffff",
  "difficulty": 1,
  "chainwork": "00000000000000000000000000000000000000000000000000001d2d1d2d1d2d",
  "nTx": 1,
  "previousblockhash": "0000000090068d35377714ca3017ada56fcb8815fcb2e88b137ce2b87a1f2a89",
  "nextblockhash": "00000000d3594307e0b09b113898d5431697abaf9e08d614f6262c5bd4ef7715",
  "strippedsize": 215,
  "size": 215,
  "weight": 860,
  "tx": [
    {
      "txid": "595ffc49d27284f5f19bc1e80047da5fd8c8b30bbf023a7875c3848f13851db5",
      "hash": "595ffc49d27284f5f19bc1e80047da5fd8c8b30bbf023a7875c3848f13851db5",
      "version": 1,
      "size": 134,
      "vsize": 134,
      "weight": 536,
      "locktime": 0,
      "vin": [
        {
          "coinbase": "04ffff001d0171",
          "sequence": 4294967295
        }
      ],
      "vout": [
        {
          "value": 50.0,
          "n": 0,
          "scriptPubKey": {
            "asm": "04ca97108f44049903a0fd10099127cbac398468ae3bcee1ba9725faf3877bb782fca958f1f519e5b7c5f718238f8f26d6caba11ec12b2e4360f8b7859c42ff7c3 OP_CHECKSIG",
            "desc": "pk(04ca97108f44049903a0fd10099127cbac398468ae3bcee1ba9725faf3877bb782fca958f1f519e5b7c5f718238f8f26d6caba11ec12b2e4360f8b7859c42ff7c3)#mtujku2m",
            "hex": "4104ca97108f44049903a0fd10099127cbac398468ae3bcee1ba9725faf3877bb782fca958f1f519e5b7c5f718238f8f26d6caba11ec12b2e4360f8b7859c42ff7c3ac",
            "type": "pubkey"
          }
        }
      ],
      "hex": "01000000010000000000000000000000000000000000000000000000000000000000000000ffffffff0704ffff001d0171ffffffff0100f2052a01000000434104ca97108f44049903a0fd10099127cbac398468ae3bcee1ba9725faf3877bb782fca958f1f519e5b7c5f718238f8f26d6caba11ec12b2e4360f8b7859c42ff7c3ac00000000"
    }
  ]
}