{
  "hash": "000000007adb415a2043547344723e0e1f802c0371229903c13312817d94d1b2",
  "confirmations": 45081,
  "height": 8017,
  "version": 1,
  "versionHex": "00000001",
  "merkleroot": "e63b2674b498b6ed1683e67e0ce3e2b66e4dbf16db918e35710e6d00212b5dc5",
  "time": 1237475002,
  "mediantime": 1237470700,
  "nonce": 10317445,
  "bits": "1d00ffff",
  "difficulty": 1,
  "chainwork": "00000000000000000000000000000000000000000000000000001f521f521f52",
  "nTx": 1,
  "previousblockhash": "00000000070e077b416f3fa9be59ae962bc8f1599563b3ad73d022e3b5569d26",
  "nextblockhash": "00000000823f9efd22a02134efd1137c26e7be49be127ac1750e5ae3dc976a5c",
  "strippedsize": 216,
  "size": 216,
  "weight": 864,
  "tx": [
    {
      "txid": "e63b2674b498b6ed1683e67e0ce3e2b66e4dbf16db918e35710e6d00212b5dc5",
      "hash": "e63b2674b498b6ed1683e67e0ce3e2b66e4dbf16db918e35710e6d00212b5dc5",
      "version": 1,
      "size": 135,
      "vsize": 135,
      "weight": 540,
      "locktime": 0,
      "vin": [
        {
          "coinbase": "04ffff001d02040a",
          "sequence": 4294967295
        }
      ],
      "vout": [
        {
          "value": 50.0,
          "n": 0,
          "scriptPubKey": {
            "asm": "04ac0b1d02bd19fcabcbf074b71f8cca42ce03a6606e50ba893cedfbaab1f9b3689b74d075acce5c581e33286237e9b1e89f044341fbe150cd3f063705f116c9b8 OP_CHECKSIG",
            "desc": "pk(04ac0b1d02bd19fcabcbf074b71f8cca42ce03a6606e50ba893cedfbaab1f9b3689b74d075acce5c581e33286237e9b1e89f044341fbe150cd3f063705f116c9b8)#jvjj2grj",
            "hex": "4104ac0b1d02bd19fcabcbf074b71f8cca42ce03a6606e50ba893cedfbaab1f9b3689b74d075acce5c581e33286237e9b1e89f044341fbe150cd3f063705f116c9b8ac",
            "type": "pubkey"
          }
        }
      ],
      "hex": "01000000010000000000000000000000000000000000000000000000000000000000000000ffffffff0804ffff001d02040affffffff0100f2052a01000000434104ac0b1d02bd19fcabcbf074b71f8cca42ce03a6606e50ba893cedfbaab1f9b3689b74d075acce5c581e33286237e9b1e89f044341fbe150cd3f063705f116c9b8ac00000000"
    }
  ]
}