{
  "hash": "00000000cb9259bda1b43bb1bc7ee46f1f04ddea0afe7ab542193b3c8761f918",
  "confirmations": 52061,
  "height": 275,
  "version": 1,
  "versionHex": "00000001",
  "merkleroot": "58bc6146b3977c03d5b89de31d7041b5e52151d36b388c4e55603f5440f45a9b",
  "time": 1231812926,
  "mediantime": 1231808778,
  "nonce": 3038467882,
  "bits": "1d00ffff",
  "difficulty": 1,
  "chainwork": "0000000000000000000000000000000000000000000000000000011401140114",
  "nTx": 1,
  "previousblockhash": "000000003c1432390c69b55b7797cc61d73c1c26b78eaa0d46796b1c6ccaf8c8",
  "nextblockhash": "00000000913eac3ab8630e663e9c9a127a810a27fcac2e19aed6864b3eb349aa",
  "strippedsize": 216,
  "size": 216,
  "weight": 864,
  "tx": [
    {
      "txid": "58bc6146b3977c03d5b89de31d7041b5e52151d36b388c4e55603f5440f45a9b",
      "hash": "58bc6146b3977c03d5b89de31d7041b5e52151d36b388c4e55603f5440f45a9b",
      "version": 1,
      "size": 135,
      "vsize": 135,
      "weight": 540,
      "locktime": 0,
      "vin": [
        {
          "coinbase": "04ffff001d028d01",
          "sequence": 4294967295
        }
      ],
      "vout": [
        {
          "value": 50.0,
          "n": 0,
          "scriptPubKey": {
            "asm": "04853d54822ee27b62c4d7b569edb30418ce79273044fa109cf6c294c932b0a4a80c948d8b4d6aca62f20432ff84de0acdad4a521131160aca5cb9c2e3feb78692 OP_CHECKSIG",
            "desc": "pk(04853d54822ee27b62c4d7b569edb30418ce79273044fa109cf6c294c932b0a4a80c948d8b4d6aca62f20432ff84de0acdad4a521131160aca5cb9c2e3feb78692)#xhdgksy6",
            "hex": "4104853d54822ee27b62c4d7b569edb30418ce79273044fa109cf6c294c932b0a4a80c948d8b4d6aca62f20432ff84de0acdad4a521131160aca5cb9c2e3feb78692ac",
            "type": "pubkey"
          }
        }
      ],
      "hex": "01000000010000000000000000000000000000000000000000000000000000000000000000ffffffff0804ffff001d028d01ffffffff0100f2052a01000000434104853d54822ee27b62c4d7b569edb30418ce79273044fa109cf6c294c932b0a4a80c948d8b4d6aca62f20432ff84de0acdad4a521131160aca5cb9c2e3feb78692ac00000000"
    }
  ]
}