{
  "hash": "000000008189e520a10e1d736866946b03ad58d2fc24f163c7bb068833ad268d",
  "confirmations": 45264,
  "height": 7834,
  "version": 1,
  "versionHex": "00000001",
  "merkleroot": "4d48b094d6bd73dbd0fe11f461892917cb56480f67925dc04fd5ecd5f6c224a5",
  "time": 1237338534,
  "mediantime": 1237335972,
  "nonce": 2070996782,
  "bits": "1d00ffff",
  "difficulty": 1,
  "chainwork": "00000000000000000000000000000000000000000000000000001e9b1e9b1e9b",
  "nTx": 1,
  "previousblockhash": "00000000c70a65dfe94927d26223f5bfe12b3ed5785d7a47e14a33ab318987c1",
  "nextblockhash": "000000001e2aec11362bd8db223b1eaf2e910effe00f08a6a51bb7f93ccf9199",
  "strippedsize": 216,
  "size": 216,
  "weight": 864,
  "tx": [
    {
      "txid": "4d48b094d6bd73dbd0fe11f461892917cb56480f67925dc04fd5ecd5f6c224a5",
      "hash": "4d48b094d6bd73dbd0fe11f461892917cb56480f67925dc04fd5ecd5f6c224a5",
      "version": 1,
      "size": 135,
      "vsize": 135,
      "weight": 540,
      "locktime": 0,
      "vin": [
        {
          "coinbase": "04ffff001d027006",
          "sequence": 4294967295
        }
      ],
      "vout": [
        {
          "value": 50.0,
          "n": 0,
          "scriptPubKey": {
            "asm": "04ed1be7ba193c85931d637efc74514dd1b6e2244c7ad5214410eaaa194e330f209d652608a6e4e116c2b02a005d9d8745b553881ce71639d3ab00801f61a09d1b OP_CHECKSIG",
            "desc": "pk(04ed1be7ba193c85931d637efc74514dd1b6e2244c7ad5214410eaaa194e330f209d652608a6e4e116c2b02a005d9d8745b553881ce71639d3ab00801f61a09d1b)#wftje40l",
            "hex": "4104ed1be7ba193c85931d637efc74514dd1b6e2244c7ad5214410eaaa194e330f209d652608a6e4e116c2b02a005d9d8745b553881ce71639d3ab00801f61a09d1bac",
            "type": "pubkey"
          }
        }
      ],
      "hex": "01000000010000000000000000000000000000000000000000000000000000000000000000ffffffff0804ffff001d027006ffffffff0100f2052a01000000434104ed1be7ba193c85931d637efc74514dd1b6e2244c7ad5214410eaaa194e330f209d652608a6e4e116c2b02a005d9d8745b553881ce71639d3ab00801f61a09d1bac00000000"
    }
  ]
}