{
  "hash": "00000000b951eb76ddea6ee3af646beaf46e6d250ca2e9967e9a0528f44822e7",
  "confirmations": 44427,
  "height": 8671,
  "version": 1,
  "versionHex": "00000001",
  "merkleroot": "e68a1028fcdb8b003e744bbb4a13395e64df298412b32c58a70d41db4a71234b",
  "time": 1238000393,
  "mediantime": 1237997770,
  "nonce": 3665559858,
  "bits": "1d00ffff",
  "difficulty": 1,
  "chainwork": "000000000000000000000000000000000000000000000000000021e021e021e0",
  "nTx": 1,
  "previousblockhash": "00000000dbe57169cf2498176385c693c38becd8a1f0a703a4996307d3ec0b7b",
  "nextblockhash": "000000009233dc3a755c9689af97888d3c798993129f5bb989052151bc26d4a4",
  "strippedsize": 215,
  "size": 215,
  "weight": 860,
  "tx": [
    {
      "txid": "e68a1028fcdb8b003e744bbb4a13395e64df298412b32c58a70d41db4a71234b",
      "hash": "e68a1028fcdb8b003e744bbb4a13395e64df298412b32c58a70d41db4a71234b",
      "version": 1,
      "size": 134,
      "vsize": 134,
      "weight": 536,
      "locktime": 0,
      "vin": [
        {
          "coinbase": "04ffff001d015c",
          "sequence": 4294967295
        }
      ],
      "vout": [
        {
          "value": 50.0,
          "n": 0,
          "scriptPubKey": {
            "asm": "046bbde902f9d954585a06f8dd9ba6d743689d90cc93089786ff853bd69b37444adc69e09d6ff2e1c07a4dc75759542b6b7f569444b2a0cc1aeca137a80d50b410 OP_CHECKSIG",
            "desc": "pk(046bbde902f9d954585a06f8dd9ba6d743689d90cc93089786ff853bd69b37444adc69e09d6ff2e1c07a4dc75759542b6b7f569444b2a0cc1aeca137a80d50b410)#4gt9sfxx",
            "hex": "41046bbde902f9d954585a06f8dd9ba6d743689d90cc93089786ff853bd69b37444adc69e09d6ff2e1c07a4dc75759542b6b7f569444b2a0cc1aeca137a80d50b410ac",
            "type": "pubkey"
          }
        }
      ],
      "hex": "01000000010000000000000000000000000000000000000000000000000000000000000000ffffffff0704ffff001d015cffffffff0100f2052a010000004341046bbde902f9d954585a06f8dd9ba6d743689d90cc93089786ff853bd69b37444adc69e09d6ff2e1c07a4dc75759542b6b7f569444b2a0cc1aeca137a80d50b410ac00000000"
    }
  ]
}