{
  "hash": "0000000062499825b027659fceb5959e09bfb6c2b856533941f6a090a02ce433",
  "confirmations": 52037,
  "height": 1061,
  "version": 1,
  "versionHex": "00000001",
  "merkleroot": "4c4d6c195010e2ccfbd3a10b65bb77a9f4e5e781b51257e2612dc7a869594d81",
  "time": 1232396552,
  "mediantime": 1232392372,
  "nonce": 279119733,
  "bits": "1d00ffff",
  "difficulty": 1,
  "chainwork": "0000000000000000000000000000000000000000000000000000042604260426",
  "nTx": 1,
  "previousblockhash": "00000000a396bda7ddfea736dc41dc1ff82ab99b391da8b8d8a24147bae0fe51",
  "nextblockhash": "00000000813a89c779e6d6649c4e8f3ccfd4bfd188d7608f8f652f6b4f28d1f3",
  "strippedsize": 216,
  "size": 216,
  "weight": 864,
  "tx": [
    {
      "txid": "4c4d6c195010e2ccfbd3a10b65bb77a9f4e5e781b51257e2612dc7a869594d81",
      "hash": "4c4d6c195010e2ccfbd3a10b65bb77a9f4e5e781b51257e2612dc7a869594d81",
      "version": 1,
      "size": 135,
      "vsize": 135,
      "weight": 540,
      "locktime": 0,
      "vin": [
        {
          "coinbase": "04ffff001d029f01",
          "sequence": 4294967295
        }
      ],
      "vout": [
        {
          "value": 50.0,
          "n": 0,
          "scriptPubKey": {
            "asm": "04b07c874ce67a6a711a56248f7c2e22542bb0fa66fcc7c504a41cd9c2314f5a1fb456352cf83e5dba71d46347d6ae868be7cf1d6bebcd353a6e7c5f478ea64a79 OP_CHECKSIG",
            "desc": "pk(04b07c874ce67a6a711a56248f7c2e22542bb0fa66fcc7c504a41cd9c2314f5a1fb456352cf83e5dba71d46347d6ae868be7cf1d6bebcd353a6e7c5f478ea64a79)#u08wr04t",
            "hex": "4104b07c874ce67a6a711a56248f7c2e22542bb0fa66fcc7c504a41cd9c2314f5a1fb456352cf83e5dba71d46347d6ae868be7cf1d6bebcd353a6e7c5f478ea64a79ac",
            "type": "pubkey"
          }
        }
      ],
      "hex": "01000000010000000000000000000000000000000000000000000000000000000000000000ffffffff0804ffff001d029f01ffffffff0100f2052a01000000434104b07c874ce67a6a711a56248f7c2e22542bb0fa66fcc7c504a41cd9c2314f5a1fb456352cf83e5dba71d46347d6ae868be7cf1d6bebcd353a6e7c5f478ea64a79ac00000000"
    }
  ]
}