{
  "hash": "00000000f7036ccdafcc809f415753cd0df2161c71cd3c12157f4fed1a4f9b00",
  "confirmations": 50357,
  "height": 2741,
  "version": 1,
  "versionHex": "00000001",
  "merkleroot": "22aab2b2efbc948c6cd9373fa2aab1f64e2c28c630400a078e610a202caaa3cb",
  "time": 1233589485,
  "mediantime": 1233587742,
  "nonce": 254435355,
  "bits": "1d00ffff",
  "difficulty": 1,
  "chainwork": "00000000000000000000000000000000000000000000000000000ab60ab60ab6",
  "nTx": 1,
  "previousblockhash": "00000000cff5728ada1a3d63a7793cdc3d3509e4123151e0d3227845cbe64e49",
  "nextblockhash": "00000000970d5d17eeaeef63e578db11b0fe0f2002c0050a6fe5d5bea1530de1",
  "strippedsize": 216,
  "size": 216,
  "weight": 864,
  "tx": [
    {
      "txid": "22aab2b2efbc948c6cd9373fa2aab1f64e2c28c630400a078e610a202caaa3cb",
      "hash": "22aab2b2efbc948c6cd9373fa2aab1f64e2c28c630400a078e610a202caaa3cb",
      "version": 1,
      "size": 135,
      "vsize": 135,
      "weight": 540,
      "locktime": 0,
      "vin": [
        {
          "coinbase": "04ffff001d024d05",
          "sequence": 4294967295
        }
      ],
      "vout": [
        {
          "value": 50.0,
          "n": 0,
          "scriptPubKey": {
            "asm": "0441be5e02e5c5d1583e5200e1f95bb87fb76c6f2aa76b23c829cfc2a29e1139241f34d298becf5ecbecca8fbec2531a36b4da09ae2057edc110760a4419c9e6e1 OP_CHECKSIG",
            "desc": "pk(0441be5e02e5c5d1583e5200e1f95bb87fb76c6f2aa76b23c829cfc2a29e1139241f34d298becf5ecbecca8fbec2531a36b4da09ae2057edc110760a4419c9e6e1)#s5ztlgfx",
            "hex": "410441be5e02e5c5d1583e5200e1f95bb87fb76c6f2aa76b23c829cfc2a29e1139241f34d298becf5ecbecca8fbec2531a36b4da09ae2057edc110760a4419c9e6e1ac",
            "type": "pubkey"
          }
        }
      ],
      "hex": "01000000010000000000000000000000000000000000000000000000000000000000000000ffffffff0804ffff001d024d05ffffffff0100f2052a0100000043410441be5e02e5c5d1583e5200e1f95bb87fb76c6f2aa76b23c829cfc2a29e1139241f34d298becf5ecbecca8fbec2531a36b4da09ae2057edc110760a4419c9e6e1ac00000000"
    }
  ]
}