{
  "hash": "00000000dc16c2db339f647ab31cad9d5639ba064272083debddebd2dcfb44ef",
  "confirmations": 52048,
  "height": 288,
  "version": 1,
  "versionHex": "00000001",
  "merkleroot": "254169b806e05b3b2564127c3d6fb1e16d920bfd76a8b7876e0635fea53138ed",
  "time": 1231823695,
  "mediantime": 1231819157,
  "nonce": 3779808798,
  "bits": "1d00ffff",
  "difficulty": 1,
  "chainwork": "0000000000000000000000000000000000000000000000000000012101210121",
  "nTx": 1,
  "previousblockhash": "0000000025f15576bf5734fa2e6b93a00593a969955f210aeae10c7f0733b81b",
  "nextblockhash": "0000000098efe4e81ec5fd517ba429722d776ae5fd04aceae90a2e43bc0572b7",
  "strippedsize": 215,
  "size": 215,
  "weight": 860,
  "tx": [
    {
      "txid": "254169b806e05b3b2564127c3d6fb1e16d920bfd76a8b7876e0635fea53138ed",
      "hash": "254169b806e05b3b2564127c3d6fb1e16d920bfd76a8b7876e0635fea53138ed",
      "version": 1,
      "size": 134,
      "vsize": 134,
      "weight": 536,
      "locktime": 0,
      "vin": [
        {
          "coinbase": "04ffff001d013d",
          "sequence": 4294967295
        }
      ],
      "vout": [
        {
          "value": 50.0,
          "n": 0,
          "scriptPubKey": {
            "asm": "042be595e656979146df0d9206591ea71d33dab5769ea1ff921b0e3659eff0736f01d7281f0cff8c9b834c7f131124bd934c59ece3861b5aedf9d24ed0f63071a3 OP_CHECKSIG",
            "desc": "pk(042be595e656979146df0d9206591ea71d33dab5769ea1ff921b0e3659eff0736f01d7281f0cff8c9b834c7f131124bd934c59ece3861b5aedf9d24ed0f63071a3)#gv52s3uf",
            "hex": "41042be595e656979146df0d9206591ea71d33dab5769ea1ff921b0e3659eff0736f01d7281f0cff8c9b834c7f131124bd934c59ece3861b5aedf9d24ed0f63071a3ac",
            "type": "pubkey"
          }
        }
      ],
      "hex": "01000000010000000000000000000000000000000000000000000000000000000000000000ffffffff0704ffff001d013dffffffff0100f2052a010000004341042be595e656979146df0d9206591ea71d33dab5769ea1ff921b0e3659eff0736f01d7281f0cff8c9b834c7f131124bd934c59ece3861b5aedf9d24ed0f63071a3ac00000000"
    }
  ]
}