{
  "hash": "00000000c309d8f14f7766aaea69dbeba31067beddb87c67d476d59a6c2b9dd7",
  "confirmations": 48989,
  "height": 4109,
  "version": 1,
  "versionHex": "00000001",
  "merkleroot": "f621a312881f36d96fd1dd8ab27653eaccdda9f3d5607bfcb9e608be402b64ed",
  "time": 1234519818,
  "mediantime": 1234517010,
  "nonce": 2212398898,
  "bits": "1d00ffff",
  "difficulty": 1,
  "chainwork": "0000000000000000000000000000000000000000000000000000100e100e100e",
  "nTx": 1,
  "previousblockhash": "0000000035cac3371f550204b8b4986bd39efcfeb08725d66bf5dc21e61e09cb",
  "nextblockhash": "00000000ae352196f35803560130c7b6b19066a41482a2e6fd9f46391d929c3f",
  "strippedsize": 216,
  "size": 216,
  "weight": 864,
  "tx": [
    {
      "txid": "f621a312881f36d96fd1dd8ab27653eaccdda9f3d5607bfcb9e608be402b64ed",
      "hash": "f621a312881f36d96fd1dd8ab27653eaccdda9f3d5607bfcb9e608be402b64ed",
      "version": 1,
      "size": 135,
      "vsize": 135,
      "weight": 540,
      "locktime": 0,
      "vin": [
        {
          "coinbase": "04ffff001d021006",
          "sequence": 4294967295
        }
      ],
      "vout": [
        {
          "value": 50.0,
          "n": 0,
          "scriptPubKey": {
            "asm": "04f921d770e98d88dda88c677f59e3478ed2423e14f74fcecb8046c2009bc8f611ff3d667635626f157b0af117e454e5d2c6323c2fd9a91193f739cebc3698ceb6 OP_CHECKSIG",
            "desc": "pk(04f921d770e98d88dda88c677f59e3478ed2423e14f74fcecb8046c2009bc8f611ff3d667635626f157b0af117e454e5d2c6323c2fd9a91193f739cebc3698ceb6)#903pzv4a",
            "hex": "4104f921d770e98d88dda88c677f59e3478ed2423e14f74fcecb8046c2009bc8f611ff3d667635626f157b0af117e454e5d2c6323c2fd9a91193f739cebc3698ceb6ac",
            "type": "pubkey"
          }
        }
      ],
      "hex": "01000000010000000000000000000000000000000000000000000000000000000000000000ffffffff0804ffff001d021006ffffffff0100f2052a01000000434104f921d770e98d88dda88c677f59e3478ed2423e14f74fcecb8046c2009bc8f611ff3d667635626f157b0af117e454e5d2c6323c2fd9a91193f739cebc3698ceb6ac00000000"
    }
  ]
}