{
  "hash": "00000000b5d55a9931ad2e1d2b12e21de816d0994ab5f94065a402c23674c601",
  "confirmations": 45786,
  "height": 7312,
  "version": 1,
  "versionHex": "00000001",
  "merkleroot": "fddf16b4e67b1c38498dbd9ef4d0e60449ce4e4c4c84db12320174550dbdaea0",
  "time": 1236956707,
  "mediantime": 1236952181,
  "nonce": 111912234,
  "bits": "1d00ffff",
  "difficulty": 1,
  "chainwork": "00000000000000000000000000000000000000000000000000001c911c911c91",
  "nTx": 1,
  "previousblockhash": "00000000ef1d02cf7fdf0667eea606115e0110f4bde999a246fa70055df8dfe7",
  "nextblockhash": "0000000016c0a7394c30e0d7bac93909321fc2b8495715095af59ef92741d9e8",
  "strippedsize": 216,
  "size": 216,
  "weight": 864,
  "tx": [
    {
      "txid": "fddf16b4e67b1c38498dbd9ef4d0e60449ce4e4c4c84db12320174550dbdaea0",
      "hash": "fddf16b4e67b1c38498dbd9ef4d0e60449ce4e4c4c84db12320174550dbdaea0",
      "version": 1,
      "size": 135,
      "vsize": 135,
      "weight": 540,
      "locktime": 0,
      "vin": [
        {
          "coinbase": "04ffff001d02f400",
          "sequence": 4294967295
        }
      ],
      "vout": [
        {
          "value": 50.0,
          "n": 0,
          "scriptPubKey": {
            "asm": "04623ec8937cc0d5043182ee9a21f05f00391bbe54cf681d0ffb55cbe52d19b633c2d44177fcbf30aacb67990de5cb80e3f502556fba7162b253b2dfce0ec8cb3c OP_CHECKSIG",
            "desc": "pk(04623ec8937cc0d5043182ee9a21f05f00391bbe54cf681d0ffb55cbe52d19b633c2d44177fcbf30aacb67990de5cb80e3f502556fba7162b253b2dfce0ec8cb3c)#d3428zcd",
            "hex": "4104623ec8937cc0d5043182ee9a21f05f00391bbe54cf681d0ffb55cbe52d19b633c2d44177fcbf30aacb67990de5cb80e3f502556fba7162b253b2dfce0ec8cb3cac",
            "type": "pubkey"
          }
        }
      ],
      "hex": "01000000010000000000000000000000000000000000000000000000000000000000000000ffffffff0804ffff001d02f400ffffffff0100f2052a01000000434104623ec8937cc0d5043182ee9a21f05f00391bbe54cf681d0ffb55cbe52d19b633c2d44177fcbf30aacb67990de5cb80e3f502556fba7162b253b2dfce0ec8cb3cac00000000"
    }
  ]
}