{
  "hash": "000000005e5637239855db5d7eae501fe0baf795efdbf279d495e12d273bc012",
  "confirmations": 46969,
  "height": 6129,
  "version": 1,
  "versionHex": "00000001",
  "merkleroot": "eabfdb8f711a38d9914a70372edc449bf129bdc04201b10ae186520618e56325",
  "time": 1236031126,
  "mediantime": 1236027979,
  "nonce": 235476521,
  "bits": "1d00ffff",
  "difficulty": 1,
  "chainwork": "000000000000000000000000000000000000000000000000000017f217f217f2",
  "nTx": 1,
  "previousblockhash": "0000000089bc59042b867d7ddb16b6c37765a222e848ecb54d6e84f68c4f7e90",
  "nextblockhash": "000000008393f20762c0fe982f60c125d3c29d549223caddcd30bed2123fed4f",
  "strippedsize": 216,
  "size": 216,
  "weight": 864,
  "tx": [
    {
      "txid": "eabfdb8f711a38d9914a70372edc449bf129bdc04201b10ae186520618e56325",
      "hash": "eabfdb8f711a38d9914a70372edc449bf129bdc04201b10ae186520618e56325",
      "version": 1,
      "size": 135,
      "vsize": 135,
      "weight": 540,
      "locktime": 0,
      "vin": [
        {
          "coinbase": "04ffff001d025907",
          "sequence": 4294967295
        }
      ],
      "vout": [
        {
          "value": 50.0,
          "n": 0,
          "scriptPubKey": {
            "asm": "0496446c451fd5cef50a4714a3014867b2eaf0f25dc42312fd81bfebde8a2a2096a6a1df0c99d8f61849f8cfbd93c8889fe7eb932de6c132d0de0403640a88ba5f OP_CHECKSIG",
            "desc": "pk(0496446c451fd5cef50a4714a3014867b2eaf0f25dc42312fd81bfebde8a2a2096a6a1df0c99d8f61849f8cfbd93c8889fe7eb932de6c132d0de0403640a88ba5f)#3af28wwu",
            "hex": "410496446c451fd5cef50a4714a3014867b2eaf0f25dc42312fd81bfebde8a2a2096a6a1df0c99d8f61849f8cfbd93c8889fe7eb932de6c132d0de0403640a88ba5fac",
            "type": "pubkey"
          }
        }
      ],
      "hex": "01000000010000000000000000000000000000000000000000000000000000000000000000ffffffff0804ffff001d025907ffffffff0100f2052a0100000043410496446c451fd5cef50a4714a3014867b2eaf0f25dc42312fd81bfebde8a2a2096a6a1df0c99d8f61849f8cfbd93c8889fe7eb932de6c132d0de0403640a88ba5fac00000000"
    }
  ]
}