{
  "hash": "000000008fc68a02f26c2041822bb9f569fc8a5878b256a2193514f3c441ea45",
  "confirmations": 46703,
  "height": 6395,
  "version": 1,
  "versionHex": "00000001",
  "merkleroot": "8f67f989bdfce65f0d2696f7fae9ef06f4f494b40fa3864e275f602b32d33253",
  "time": 1236252392,
  "mediantime": 1236248694,
  "nonce": 3194423042,
  "bits": "1d00ffff",
  "difficulty": 1,
  "chainwork": "000000000000000000000000000000000000000000000000000018fc18fc18fc",
  "nTx": 1,
  "previousblockhash": "000000003e52df6a9a68859f54a5fb464de482ff456afd41ef3081054af49e72",
  "nextblockhash": "00000000cb507fcc36bc5f87f902bcd13d548d38005d614672e6813e4f664706",
  "strippedsize": 216,
  "size": 216,
  "weight": 864,
  "tx": [
    {
      "txid": "8f67f989bdfce65f0d2696f7fae9ef06f4f494b40fa3864e275f602b32d33253",
      "hash": "8f67f989bdfce65f0d2696f7fae9ef06f4f494b40fa3864e275f602b32d33253",
      "version": 1,
      "size": 135,
      "vsize": 135,
      "weight": 540,
      "locktime": 0,
      "vin": [
        {
          "coinbase": "04ffff001d02b501",
          "sequence": 4294967295
        }
      ],
      "vout": [
        {
          "value": 50.0,
          "n": 0,
          "scriptPubKey": {
            "asm": "04eb98fcb05c6cb0f9a4b3cedb3377fe9e09dc44035b69c6a6f91f06f3e10fea2d2b48dbd5c0781b79ea97030c01a0c8885e0f31e61d4f1b4600bbeb7581f66c8b OP_CHECKSIG",
            "desc": "pk(04eb98fcb05c6cb0f9a4b3cedb3377fe9e09dc44035b69c6a6f91f06f3e10fea2d2b48dbd5c0781b79ea97030c01a0c8885e0f31e61d4f1b4600bbeb7581f66c8b)#r75rtau2",
            "hex": "4104eb98fcb05c6cb0f9a4b3cedb3377fe9e09dc44035b69c6a6f91f06f3e10fea2d2b48dbd5c0781b79ea97030c01a0c8885e0f31e61d4f1b4600bbeb7581f66c8bac",
            "type": "pubkey"
          }
        }
      ],
      "hex": "01000000010000000000000000000000000000000000000000000000000000000000000000ffffffff0804ffff001d02b501ffffffff0100f2052a01000000434104eb98fcb05c6cb0f9a4b3cedb3377fe9e09dc44035b69c6a6f91f06f3e10fea2d2b48dbd5c0781b79ea97030c01a0c8885e0f31e61d4f1b4600bbeb7581f66c8bac00000000"
    }
  ]
}