{
  "hash": "000000004fb37075fe8f2c9b0f1e51005036de6161a2a28f53486461c97cd966",
  "confirmations": 47370,
  "height": 5728,
  "version": 1,
  "versionHex": "00000001",
  "merkleroot": "1e538d0e3fcf22156dcc5d3a23c39e22b4b8bd70ab6420c2b72818b9b7648c15",
  "time": 1235705453,
  "mediantime": 1235702436,
  "nonce": 3066074415,
  "bits": "1d00ffff",
  "difficulty": 1,
  "chainwork": "0000000000000000000000000000000000000000000000000000166116611661",
  "nTx": 1,
  "previousblockhash": "00000000d23c53595408fb2b5b21e97d816db497c199b662c3ebd1dee708ebee",
  "nextblockhash": "00000000928d6e95db96fe3dfbee33d3ad024d8dce7ee8539b7e8126f452c2bc",
  "strippedsize": 216,
  "size": 216,
  "weight": 864,
  "tx": [
    {
      "txid": "1e538d0e3fcf22156dcc5d3a23c39e22b4b8bd70ab6420c2b72818b9b7648c15",
      "hash": "1e538d0e3fcf22156dcc5d3a23c39e22b4b8bd70ab6420c2b72818b9b7648c15",
      "version": 1,
      "size": 135,
      "vsize": 135,
      "weight": 540,
      "locktime": 0,
      "vin": [
        {
          "coinbase": "04ffff001d02e709",
          "sequence": 4294967295
        }
      ],
      "vout": [
        {
          "value": 50.0,
          "n": 0,
          "scriptPubKey": {
            "asm": "04ef91f88a8a235154e31eab84d74f3372c603db03592eb862d98b1d50d4c4ea6beb53df1de1ad1778c4c802755d6d7912bf736f39e05ffb3d67c45a39278265ee OP_CHECKSIG",
            "desc": "pk(04ef91f88a8a235154e31eab84d74f3372c603db03592eb862d98b1d50d4c4ea6beb53df1de1ad1778c4c802755d6d7912bf736f39e05ffb3d67c45a39278265ee)#aevh6hgd",
            "hex": "4104ef91f88a8a235154e31eab84d74f3372c603db03592eb862d98b1d50d4c4ea6beb53df1de1ad1778c4c802755d6d7912bf736f39e05ffb3d67c45a39278265eeac",
            "type": "pubkey"
          }
        }
      ],
      "hex": "01000000010000000000000000000000000000000000000000000000000000000000000000ffffffff0804ffff001d02e709ffffffff0100f2052a01000000434104ef91f88a8a235154e31eab84d74f3372c603db03592eb862d98b1d50d4c4ea6beb53df1de1ad1778c4c802755d6d7912bf736f39e05ffb3d67c45a39278265eeac00000000"
    }
  ]
}