{
  "hash": "000000006a51d284f0ea70af2bf905863887c908e718fe9bdfb5c1f98e6f0ca7",
  "confirmations": 44889,
  "height": 8209,
  "version": 1,
  "versionHex": "00000001",
  "merkleroot": "8d1effeca76b2a517959e8ef8be5d19fd80dc93389c22e0f4b8f5389d37174f9",
  "time": 1237611598,
  "mediantime": 1237608445,
  "nonce": 3815596288,
  "bits": "1d00ffff",
  "difficulty": 1,
  "chainwork": "0000000000000000000000000000000000000000000000000000201220122012",
  "nTx": 1,
  "previousblockhash": "00000000ed67353a39d14ae8a4991908892cb45b03965ed55330ac41294b5949",
  "nextblockhash": "0000000086410b1e0521711c177bd8975ce0f6f4fb06dd7d2eeb0bfffb2dbbf7",
  "strippedsize": 216,
  "size": 216,
  "weight": 864,
  "tx": [
    {
      "txid": "8d1effeca76b2a517959e8ef8be5d19fd80dc93389c22e0f4b8f5389d37174f9",
      "hash": "8d1effeca76b2a517959e8ef8be5d19fd80dc93389c22e0f4b8f5389d37174f9",
      "version": 1,
      "size": 135,
      "vsize": 135,
      "weight": 540,
      "locktime": 0,
      "vin": [
        {
          "coinbase": "04ffff001d02dc02",
          "sequence": 4294967295
        }
      ],
      "vout": [
        {
          "value": 50.0,
          "n": 0,
          "scriptPubKey": {
            "asm": "049c5abafcea7435a7550850a869f17ff4914bfb9113320ce947b2d35297be68803339c751c17337d198f34c8fd509b8da7d9b38377a28081ee60e2be421e321b7 OP_CHECKSIG",
            "desc": "pk(049c5abafcea7435a7550850a869f17ff4914bfb9113320ce947b2d35297be68803339c751c17337d198f34c8fd509b8da7d9b38377a28081ee60e2be421e321b7)#9ke93xhn",
            "hex": "41049c5abafcea7435a7550850a869f17ff4914bfb9113320ce947b2d35297be68803339c751c17337d198f34c8fd509b8da7d9b38377a28081ee60e2be421e321b7ac",
            "type": "pubkey"
          }
        }
      ],
      "hex": "01000000010000000000000000000000000000000000000000000000000000000000000000ffffffff0804ffff001d02dc02ffffffff0100f2052a010000004341049c5abafcea7435a7550850a869f17ff4914bfb9113320ce947b2d35297be68803339c751c17337d198f34c8fd509b8da7d9b38377a28081ee60e2be421e321b7ac00000000"
    }
  ]
}