{
  "hash": "000000006455617bb6eda83a5bfbe4aa5e4c8227dcb2956aea903e36041135b6",
  "confirmations": 46136,
  "height": 6962,
  "version": 1,
  "versionHex": "00000001",
  "merkleroot": "1135861855ef9730ab81076b5444c531d7abafbd1c6d6f64009b64a5f6f32be4",
  "time": 1236688816,
  "mediantime": 1236685925,
  "nonce": 131795250,
  "bits": "1d00ffff",
  "difficulty": 1,
  "chainwork": "00000000000000000000000000000000000000000000000000001b331b331b33",
  "nTx": 1,
  "previousblockhash": "00000000b3561c638ab2c907ba3cd3833a11df44b2626990f63a6817a6aa54c5",
  "nextblockhash": "0000000017eb5e1cdb2d28bab5703122ffce6b3c00f53f12dbbe997eb94ca487",
  "strippedsize": 216,
  "size": 216,
  "weight": 864,
  "tx": [
    {
      "txid": "1135861855ef9730ab81076b5444c531d7abafbd1c6d6f64009b64a5f6f32be4",
      "hash": "1135861855ef9730ab81076b5444c531d7abafbd1c6d6f64009b64a5f6f32be4",
      "version": 1,
      "size": 135,
      "vsize": 135,
      "weight": 540,
      "locktime": 0,
      "vin": [
        {
          "coinbase": "04ffff001d02fd0c",
          "sequence": 4294967295
        }
      ],
      "vout": [
        {
          "value": 50.0,
          "n": 0,
          "scriptPubKey": {
            "asm": "04a3b4e1205a3b9acb41241c60f1cf6c6261ec278af84caea445665c0636e6eda1b71a3a2c10aae3ad1cf90a485db33f565086c0fac72462a25ca13a7c0ed19c63 OP_CHECKSIG",
            "desc": "pk(04a3b4e1205a3b9acb41241c60f1cf6c6261ec278af84caea445665c0636e6eda1b71a3a2c10aae3ad1cf90a485db33f565086c0fac72462a25ca13a7c0ed19c63)#7zhnkp5u",
            "hex": "4104a3b4e1205a3b9acb41241c60f1cf6c6261ec278af84caea445665c0636e6eda1b71a3a2c10aae3ad1cf90a485db33f565086c0fac72462a25ca13a7c0ed19c63ac",
            "type": "pubkey"
          }
        }
      ],
      "hex": "01000000010000000000000000000000000000000000000000000000000000000000000000ffffffff0804ffff001d02fd0cffffffff0100f2052a01000000434104a3b4e1205a3b9acb41241c60f1cf6c6261ec278af84caea445665c0636e6eda1b71a3a2c10aae3ad1cf90a485db33f565086c0fac72462a25ca13a7c0ed19c63ac00000000"
    }
  ]
}