{
  "hash": "000000002bd3e8bae57ea82ff737d22c88cfae5fd680c97a49fb9ef3a681ad45",
  "confirmations": 48251,
  "height": 4847,
  "version": 1,
  "versionHex": "00000001",
  "merkleroot": "c575c3636150d941025ecfbb394fdb8a14b1951b383585b3cd3896dc81ac8635",
  "time": 1235036187,
  "mediantime": 1235031824,
  "nonce": 2857775400,
  "bits": "1d00ffff",
  "difficulty": 1,
  "chainwork": "000000000000000000000000000000000000000000000000000012f012f012f0",
  "nTx": 1,
  "previousblockhash": "0000000023c350c0f3a2313f97985056510b32c681990acf2fb4e32afa7aabbc",
  "nextblockhash": "00000000a03ed6d3495a73f6a8cb04ae244d1af08fdf60810fecf4bc1730582a",
  "strippedsize": 216,
  "size": 216,
  "weight": 864,
  "tx": [
    {
      "txid": "c575c3636150d941025ecfbb394fdb8a14b1951b383585b3cd3896dc81ac8635",
      "hash": "c575c3636150d941025ecfbb394fdb8a14b1951b383585b3cd3896dc81ac8635",
      "version": 1,
      "size": 135,
      "vsize": 135,
      "weight": 540,
      "locktime": 0,
      "vin": [
        {
          "coinbase": "04ffff001d021105",
          "sequence": 4294967295
        }
      ],
      "vout": [
        {
          "value": 50.0,
          "n": 0,
          "scriptPubKey": {
            "asm": "042ad24908c14eaa6a61a716294e2f22478aa0118443bf510f50d02236a43a5c39b65cc8de1793fa1702ef62b25b53e2ce77b871cd00705b02e872b515711efa95 OP_CHECKSIG",
            "desc": "pk(042ad24908c14eaa6a61a716294e2f22478aa0118443bf510f50d02236a43a5c39b65cc8de1793fa1702ef62b25b53e2ce77b871cd00705b02e872b515711efa95)#z8deu0g7",
            "hex": "41042ad24908c14eaa6a61a716294e2f22478aa0118443bf510f50d02236a43a5c39b65cc8de1793fa1702ef62b25b53e2ce77b871cd00705b02e872b515711efa95ac",
            "type": "pubkey"
          }
        }
      ],
      "hex": "01000000010000000000000000000000000000000000000000000000000000000000000000ffffffff0804ffff001d021105ffffffff0100f2052a010000004341042ad24908c14eaa6a61a716294e2f22478aa0118443bf510f50d02236a43a5c39b65cc8de1793fa1702ef62b25b53e2ce77b871cd00705b02e872b515711efa95ac00000000"
    }
  ]
}