{
  "hash": "000000005ff5517646b998056bd959d654ce58f0c706e74f2505dcc308b31907",
  "confirmations": 51876,
  "height": 1222,
  "version": 1,
  "versionHex": "00000001",
  "merkleroot": "81eb9c56fd548841004147c5a434a402da98e0c28072f084543b694e4bd92a5c",
  "time": 1232517300,
  "mediantime": 1232513029,
  "nonce": 1514544157,
  "bits": "1d00ffff",
  "difficulty": 1,
  "chainwork": "000000000000000000000000000000000000000000000000000004c704c704c7",
  "nTx": 1,
  "previousblockhash": "0000000073996a70dcbd4dff31d247bf4e5d2639bd7f7b417b131114ae0c9c9b",
  "nextblockhash": "0000000050bc0cf1b4f7b3f119247d33e444b46a80b0eaeef71572e4abe970cb",
  "strippedsize": 216,
  "size": 216,
  "weight": 864,
  "tx": [
    {
      "txid": "81eb9c56fd548841004147c5a434a402da98e0c28072f084543b694e4bd92a5c",
      "hash": "81eb9c56fd548841004147c5a434a402da98e0c28072f084543b694e4bd92a5c",
      "version": 1,
      "size": 135,
      "vsize": 135,
      "weight": 540,
      "locktime": 0,
      "vin": [
        {
          "coinbase": "04ffff001d02f308",
          "sequence": 4294967295
        }
      ],
      "vout": [
        {
          "value": 50.0,
          "n": 0,
          "scriptPubKey": {
            "asm": "0452ff43b9a5263b64a6711619d59a1fc718e8c1be48b9ee18f2a261cdddabbd244f7905639425c95cb5d424d58e88c1155461631b6d2bef041dea9a5dc4ceb511 OP_CHECKSIG",
            "desc": "pk(0452ff43b9a5263b64a6711619d59a1fc718e8c1be48b9ee18f2a261cdddabbd244f7905639425c95cb5d424d58e88c1155461631b6d2bef041dea9a5dc4ceb511)#glr4x9gv",
            "hex": "410452ff43b9a5263b64a6711619d59a1fc718e8c1be48b9ee18f2a261cdddabbd244f7905639425c95cb5d424d58e88c1155461631b6d2bef041dea9a5dc4ceb511ac",
            "type": "pubkey"
          }
        }
      ],
      "hex": "01000000010000000000000000000000000000000000000000000000000000000000000000ffffffff0804ffff001d02f308ffffffff0100f2052a0100000043410452ff43b9a5263b64a6711619d59a1fc718e8c1be48b9ee18f2a261cdddabbd244f7905639425c95cb5d424d58e88c1155461631b6d2bef041dea9a5dc4ceb511ac00000000"
    }
  ]
}