{
  "hash": "00000000fec4d1033bc750395d89a151b6c28615218aa1b6d7e519062bcf50b5",
  "confirmations": 49877,
  "height": 3221,
  "version": 1,
  "versionHex": "00000001",
  "merkleroot": "7bd17a76d18abb9a2a57303e1c8d2ab291fd7a09e8cc8abc851125f174ba918f",
  "time": 1233916520,
  "mediantime": 1233912335,
  "nonce": 1595650350,
  "bits": "1d00ffff",
  "difficulty": 1,
  "chainwork": "00000000000000000000000000000000000000000000000000000c960c960c96",
  "nTx": 1,
  "previousblockhash": "000000000bbccfffd24cead315d5975f5c6d1fefebe9b76219f0bd429d841567",
  "nextblockhash": "000000000f8bfdd6bc2b93436abdbe8fa7dcfc86bc40a6ce697efd874d9dd894",
  "strippedsize": 216,
  "size": 216,
  "weight": 864,
  "tx": [
    {
      "txid": "7bd17a76d18abb9a2a57303e1c8d2ab291fd7a09e8cc8abc851125f174ba918f",
      "hash": "7bd17a76d18abb9a2a57303e1c8d2ab291fd7a09e8cc8abc851125f174ba918f",
      "version": 1,
      "size": 135,
      "vsize": 135,
      "weight": 540,
      "locktime": 0,
      "vin": [
        {
          "coinbase": "04ffff001d020c03",
          "sequence": 4294967295
        }
      ],
      "vout": [
        {
          "value": 50.0,
          "n": 0,
          "scriptPubKey": {
            "asm": "041990e1e087797b56387d16174b608496fa1f8cb1f68955175f15910bcdf8b8185422d080048bc4e3298aa31344dc273934b9072ed530779916584a5f3d05a9d9 OP_CHECKSIG",
            "desc": "pk(041990e1e087797b56387d16174b608496fa1f8cb1f68955175f15910bcdf8b8185422d080048bc4e3298aa31344dc273934b9072ed530779916584a5f3d05a9d9)#erfmp47p",
            "hex": "41041990e1e087797b56387d16174b608496fa1f8cb1f68955175f15910bcdf8b8185422d080048bc4e3298aa31344dc273934b9072ed530779916584a5f3d05a9d9ac",
            "type": "pubkey"
          }
        }
      ],
      "hex": "01000000010000000000000000000000000000000000000000000000000000000000000000ffffffff0804ffff001d020c03ffffffff0100f2052a010000004341041990e1e087797b56387d16174b608496fa1f8cb1f68955175f15910bcdf8b8185422d080048bc4e3298aa31344dc273934b9072ed530779916584a5f3d05a9d9ac00000000"
    }
  ]
}