{
  "hash": "00000000911e4a0cbf43b8800354c244ef35c58016db0d767246032c3ac6796f",
  "confirmations": 47185,
  "height": 5913,
  "version": 1,
  "versionHex": "00000001",
  "merkleroot": "1efe52ca7c42e2a1f1ed908b3d0ca21485b97b7293f582e2527ba42f944777c5",
  "time": 1235854694,
  "mediantime": 1235849838,
  "nonce": 404703019,
  "bits": "1d00ffff",
  "difficulty": 1,
  "chainwork": "0000000000000000000000000000000000000000000000000000171a171a171a",
  "nTx": 1,
  "previousblockhash": "0000000065842f62bc7b048e44b9c89480f6431210a8b88dea5ae09de4be4eb9",
  "nextblockhash": "000000002509f053c420965b16ba18df78cf1e707cf8cc4bfbdb70d9a97e29e8",
  "strippedsize": 216,
  "size": 216,
  "weight": 864,
  "tx": [
    {
      "txid": "1efe52ca7c42e2a1f1ed908b3d0ca21485b97b7293f582e2527ba42f944777c5",
      "hash": "1efe52ca7c42e2a1f1ed908b3d0ca21485b97b7293f582e2527ba42f944777c5",
      "version": 1,
      "size": 135,
      "vsize": 135,
      "weight": 540,
      "locktime": 0,
      "vin": [
        {
          "coinbase": "04ffff001d024403",
          "sequence": 4294967295
        }
      ],
      "vout": [
        {
          "value": 50.0,
          "n": 0,
          "scriptPubKey": {
            "asm": "049b0525210a59d83128478a2ca10556f7258ad85c6470adf9d55a3d5b5ebfb2510f3b8da26440693b9a2dfa897ee10442a5ee40c74e2f959642331af1d95907e6 OP_CHECKSIG",
            "desc": "pk(049b0525210a59d83128478a2ca10556f7258ad85c6470adf9d55a3d5b5ebfb2510f3b8da26440693b9a2dfa897ee10442a5ee40c74e2f959642331af1d95907e6)#252jky3s",
            "hex": "41049b0525210a59d83128478a2ca10556f7258ad85c6470adf9d55a3d5b5ebfb2510f3b8da26440693b9a2dfa897ee10442a5ee40c74e2f959642331af1d95907e6ac",
            "type": "pubkey"
          }
        }
      ],
      "hex": "01000000010000000000000000000000000000000000000000000000000000000000000000ffffffff0804ffff001d024403ffffffff0100f2052a010000004341049b0525210a59d83128478a2ca10556f7258ad85c6470adf9d55a3d5b5ebfb2510f3b8da26440693b9a2dfa897ee10442a5ee40c74e2f959642331af1d95907e6ac00000000"
    }
  ]
}