{
  "hash": "00000000d55579d1311c2841fa900531f34df1d543ff52598f2d526c5550cec4",
  "confirmations": 48998,
  "height": 4100,
  "version": 1,
  "versionHex": "00000001",
  "merkleroot": "8f3a1cf5c501e42e3be1675685732b23c8fb416e356e997bb09dcf686d088b2c",
  "time": 1234513398,
  "mediantime": 1234508552,
  "nonce": 4264256803,
  "bits": "1d00ffff",
  "difficulty": 1,
  "chainwork": "0000000000000000000000000000000000000000000000000000100510051005",
  "nTx": 1,
  "previousblockhash": "00000000012ee25b4bf0b18cc161614bb9811f42cd3e2b227bea15253c27bc6a",
  "nextblockhash": "00000000367551c3c80466ccaa7583ea433b57aa1e48b9f312775b32d89beb50",
  "strippedsize": 216,
  "size": 216,
  "weight": 864,
  "tx": [
    {
      "txid": "8f3a1cf5c501e42e3be1675685732b23c8fb416e356e997bb09dcf686d088b2c",
      "hash": "8f3a1cf5c501e42e3be1675685732b23c8fb416e356e997bb09dcf686d088b2c",
      "version": 1,
      "size": 135,
      "vsize": 135,
      "weight": 540,
      "locktime": 0,
      "vin": [
        {
          "coinbase": "04ffff001d02ed05",
          "sequence": 4294967295
        }
      ],
      "vout": [
        {
          "value": 50.0,
          "n": 0,
          "scriptPubKey": {
            "asm": "04021bca130937b721bbbe80f28f6069fc75be786cdf89f2bc3ebd896ede36c5b5856f80e64c1a0ab47f4fcb4d9bb4a40f6317d6c46458b2d3f0e6ce8b94e30721 OP_CHECKSIG",
            "desc": "pk(04021bca130937b721bbbe80f28f6069fc75be786cdf89f2bc3ebd896ede36c5b5856f80e64c1a0ab47f4fcb4d9bb4a40f6317d6c46458b2d3f0e6ce8b94e30721)#ms2xerur",
            "hex": "4104021bca130937b721bbbe80f28f6069fc75be786cdf89f2bc3ebd896ede36c5b5856f80e64c1a0ab47f4fcb4d9bb4a40f6317d6c46458b2d3f0e6ce8b94e30721ac",
            "type": "pubkey"
          }
        }
      ],
      "hex": "01000000010000000000000000000000000000000000000000000000000000000000000000ffffffff0804ffff001d02ed05ffffffff0100f2052a01000000434104021bca130937b721bbbe80f28f6069fc75be786cdf89f2bc3ebd896ede36c5b5856f80e64c1a0ab47f4fcb4d9bb4a40f6317d6c46458b2d3f0e6ce8b94e30721ac00000000"
    }
  ]
}