{
  "hash": "000000001752b2542957c901d683b12cd966372f4f3d576eeada4ceaea6f057f",
  "confirmations": 48244,
  "height": 4854,
  "version": 1,
  "versionHex": "00000001",
  "merkleroot": "f691f7788e89704462ab236e3e75a57293e66e9a72b13446ef019ecee8516a6b",
  "time": 1235040114,
  "mediantime": 1235037231,
  "nonce": 338042920,
  "bits": "1d00ffff",
  "difficulty": 1,
  "chainwork": "000000000000000000000000000000000000000000000000000012f712f712f7",
  "nTx": 1,
  "previousblockhash": "00000000e233f8e7006ab1269ce3f6726f81eda73b86e0e9d67662166a3280b2",
  "nextblockhash": "0000000007671d4cba889f9e90a257e677e94ac7f0017c9f9ab29147ef35e914",
  "strippedsize": 216,
  "size": 216,
  "weight": 864,
  "tx": [
    {
      "txid": "f691f7788e89704462ab236e3e75a57293e66e9a72b13446ef019ecee8516a6b",
      "hash": "f691f7788e89704462ab236e3e75a57293e66e9a72b13446ef019ecee8516a6b",
      "version": 1,
      "size": 135,
      "vsize": 135,
      "weight": 540,
      "locktime": 0,
      "vin": [
        {
          "coinbase": "04ffff001d028e0b",
          "sequence": 4294967295
        }
      ],
      "vout": [
        {
          "value": 50.0,
          "n": 0,
          "scriptPubKey": {
            "asm": "044f67fb62aa025e3d912650457f6f519c16eb828fc7b6e5c56b4ba66f40bb7c636830cdb3de4a54cae5404e97565489e75fdb907808b5f66ecfbda809606baaaa OP_CHECKSIG",
            "desc": "pk(044f67fb62aa025e3d912650457f6f519c16eb828fc7b6e5c56b4ba66f40bb7c636830cdb3de4a54cae5404e97565489e75fdb907808b5f66ecfbda809606baaaa)#ll6q5lcd",
            "hex": "41044f67fb62aa025e3d912650457f6f519c16eb828fc7b6e5c56b4ba66f40bb7c636830cdb3de4a54cae5404e97565489e75fdb907808b5f66ecfbda809606baaaaac",
            "type": "pubkey"
          }
        }
      ],
      "hex": "01000000010000000000000000000000000000000000000000000000000000000000000000ffffffff0804ffff001d028e0bffffffff0100f2052a010000004341044f67fb62aa025e3d912650457f6f519c16eb828fc7b6e5c56b4ba66f40bb7c636830cdb3de4a54cae5404e97565489e75fdb907808b5f66ecfbda809606baaaaac00000000"
    }
  ]
}