{
  "hash": "00000000d0a75c861fabf9ff7b92022f60e4afeed9331fe5aa073d8e4706fe3c",
  "confirmations": 52080,
  "height": 255,
  "version": 1,
  "versionHex": "00000001",
  "merkleroot": "4309bfeed77a70f309da08bcf8948906b9cc26120c0b0ef86e0ac67284bbd79e",
  "time": 1231797290,
  "mediantime": 1231792456,
  "nonce": 1861718836,
  "bits": "1d00ffff",
  "difficulty": 1,
  "chainwork": "0000000000000000000000000000000000000000000000000000010001000100",
  "nTx": 1,
  "previousblockhash": "0000000065c3ca6a832e4dd696185c2e6bf1e982b275ce6fb86df555f71a379c",
  "nextblockhash": "0000000092b1d848c608c64f9f764623432855007593e596258bb40daffa8fe7",
  "strippedsize": 216,
  "size": 216,
  "weight": 864,
  "tx": [
    {
      "txid": "4309bfeed77a70f309da08bcf8948906b9cc26120c0b0ef86e0ac67284bbd79e",
      "hash": "4309bfeed77a70f309da08bcf8948906b9cc26120c0b0ef86e0ac67284bbd79e",
      "version": 1,
      "size": 135,
      "vsize": 135,
      "weight": 540,
      "locktime": 0,
      "vin": [
        {
          "coinbase": "04ffff001d023001",
          "sequence": 4294967295
        }
      ],
      "vout": [
        {
          "value": 50.0,
          "n": 0,
          "scriptPubKey": {
            "asm": "04f5b542d4bf77ee2bc434a031554e73389593406bd44b5e9dfcf440536e00431fa62ffc5b2786777e0d8e50801e1f337776565a16e1ae0c81b6754df6d7cac17b OP_CHECKSIG",
            "desc": "pk(04f5b542d4bf77ee2bc434a031554e73389593406bd44b5e9dfcf440536e00431fa62ffc5b2786777e0d8e50801e1f337776565a16e1ae0c81b6754df6d7cac17b)#vygulqpu",
            "hex": "4104f5b542d4bf77ee2bc434a031554e73389593406bd44b5e9dfcf440536e00431fa62ffc5b2786777e0d8e50801e1f337776565a16e1ae0c81b6754df6d7cac17bac",
            "type": "pubkey"
          }
        }
      ],
      "hex": "01000000010000000000000000000000000000000000000000000000000000000000000000ffffffff0804ffff001d023001ffffffff0100f2052a01000000434104f5b542d4bf77ee2bc434a031554e73389593406bd44b5e9dfcf440536e00431fa62ffc5b2786777e0d8e50801e1f337776565a16e1ae0c81b6754df6d7cac17bac00000000"
    }
  ]
}