{
  "hash": "0000000039dc3dd380933cba192ed683a2c8c80bee7db091b6a0be1c722c7fe8",
  "confirmations": 51151,
  "height": 1947,
  "version": 1,
  "versionHex": "00000001",
  "merkleroot": "aa89db96e318d4414902e7f906187f923a07edfd9414a83a33841af3873263cc",
  "time": 1233005690,
  "mediantime": 1233000704,
  "nonce": 34732359,
  "bits": "1d00ffff",
  "difficulty": 1,
  "chainwork": "0000000000000000000000000000000000000000000000000000079c079c079c",
  "nTx": 1,
  "previousblockhash": "00000000eda3c09a860212d3c94703be7f159d5964d666df9b97c9b97e68f3ad",
  "nextblockhash": "000000004723d31f9674a64bd453ac2eb40ec950fc4429ab80dddc4a875297a4",
  "strippedsize": 216,
  "size": 216,
  "weight": 864,
  "tx": [
    {
      "txid": "aa89db96e318d4414902e7f906187f923a07edfd9414a83a33841af3873263cc",
      "hash": "aa89db96e318d4414902e7f906187f923a07edfd9414a83a33841af3873263cc",
      "version": 1,
      "size": 135,
      "vsize": 135,
      "weight": 540,
      "locktime": 0,
      "vin": [
        {
          "coinbase": "04ffff001d02b500",
          "sequence": 4294967295
        }
      ],
      "vout": [
        {
          "value": 50.0,
          "n": 0,
          "scriptPubKey": {
            "asm": "04a4b54aabf7b37f7db521dbcc4b62b4fa717062caab642a545139f10bf0eea83063ef7b1c87cd795f44474ebfa4b94068450800934ad3c42b1bccc306e6617283 OP_CHECKSIG",
            "desc": "pk(04a4b54aabf7b37f7db521dbcc4b62b4fa717062caab642a545139f10bf0eea83063ef7b1c87cd795f44474ebfa4b94068450800934ad3c42b1bccc306e6617283)#uuee7dxz",
            "hex": "4104a4b54aabf7b37f7db521dbcc4b62b4fa717062caab642a545139f10bf0eea83063ef7b1c87cd795f44474ebfa4b94068450800934ad3c42b1bccc306e6617283ac",
            "type": "pubkey"
          }
        }
      ],
      "hex": "01000000010000000000000000000000000000000000000000000000000000000000000000ffffffff0804ffff001d02b500ffffffff0100f2052a01000000434104a4b54aabf7b37f7db521dbcc4b62b4fa717062caab642a545139f10bf0eea83063ef7b1c87cd795f44474ebfa4b94068450800934ad3c42b1bccc306e6617283ac00000000"
    }
  ]
}