{
  "hash": "00000000cb6837d0f4a6a7e8dc60012b3dbfb741166685b10798f2c5eea2224d",
  "confirmations": 47338,
  "height": 5760,
  "version": 1,
  "versionHex": "00000001",
  "merkleroot": "35b83eee867af5389c3eaa0b8a3519c577ca5d5ebe8838d422174c87168fa69b",
  "time": 1235731249,
  "mediantime": 1235727224,
  "nonce": 201108046,
  "bits": "1d00ffff",
  "difficulty": 1,
  "chainwork": "0000000000000000000000000000000000000000000000000000168116811681",
  "nTx": 1,
  "previousblockhash": "00000000b4c3fa84b36a8e657b430901fcff19205a281f0e8a00e1cbad2f189d",
  "nextblockhash": "00000000d040404ade368aae49e4d4603feacf06ac7beb9777aa0872035b3eef",
  "strippedsize": 216,
  "size": 216,
  "weight": 864,
  "tx": [
    {
      "txid": "35b83eee867af5389c3eaa0b8a3519c577ca5d5ebe8838d422174c87168fa69b",
      "hash": "35b83eee867af5389c3eaa0b8a3519c577ca5d5ebe8838d422174c87168fa69b",
      "version": 1,
      "size": 135,
      "vsize": 135,
      "weight": 540,
      "locktime": 0,
      "vin": [
        {
          "coinbase": "04ffff001d024308",
          "sequence": 4294967295
        }
      ],
      "vout": [
        {
          "value": 50.0,
          "n": 0,
          "scriptPubKey": {
            "asm": "04bbc9d857168713d1d9b09ea49406516f1357564a34d3c3b7005c9a17a452e220b3bd3f053078f2cb09f3a35c14cf072dd6484e99d3d145b44bc2e96a7b5bbcb1 OP_CHECKSIG",
            "desc": "pk(04bbc9d857168713d1d9b09ea49406516f1357564a34d3c3b7005c9a17a452e220b3bd3f053078f2cb09f3a35c14cf072dd6484e99d3d145b44bc2e96a7b5bbcb1)#zsvx0lqw",
            "hex": "4104bbc9d857168713d1d9b09ea49406516f1357564a34d3c3b7005c9a17a452e220b3bd3f053078f2cb09f3a35c14cf072dd6484e99d3d145b44bc2e96a7b5bbcb1ac",
            "type": "pubkey"
          }
        }
      ],
      "hex": "01000000010000000000000000000000000000000000000000000000000000000000000000ffffffff0804ffff001d024308ffffffff0100f2052a01000000434104bbc9d857168713d1d9b09ea49406516f1357564a34d3c3b7005c9a17a452e220b3bd3f053078f2cb09f3a35c14cf072dd6484e99d3d145b44bc2e96a7b5bbcb1ac00000000"
    }
  ]
}