{
  "hash": "0000000010f9ffbf8f2248da958afcb92422f1b98beb747ec96271b7eeb2f023",
  "confirmations": 51844,
  "height": 1254,
  "version": 1,
  "versionHex": "00000001",
  "merkleroot": "f1504038c24246ea81d90aacabf1cc77c44ee6a9c4141b1bccf353b5905f99e3",
  "time": 1232541682,
  "mediantime": 1232537608,
  "nonce": 35534922,
  "bits": "1d00ffff",
  "difficulty": 1,
  "chainwork": "000000000000000000000000000000000000000000000000000004e704e704e7",
  "nTx": 1,
  "previousblockhash": "00000000345a3d81722fe7cf8f76f234d42ee24f935314d534c33f5ed73de998",
  "nextblockhash": "00000000f443b5bd000c5b0683c9aaaf104cb7d8e4cdff2f7e5a1b99c4e0a68a",
  "strippedsize": 216,
  "size": 216,
  "weight": 864,
  "tx": [
    {
      "txid": "f1504038c24246ea81d90aacabf1cc77c44ee6a9c4141b1bccf353b5905f99e3",
      "hash": "f1504038c24246ea81d90aacabf1cc77c44ee6a9c4141b1bccf353b5905f99e3",
      "version": 1,
      "size": 135,
      "vsize": 135,
      "weight": 540,
      "locktime": 0,
      "vin": [
        {
          "coinbase": "04ffff001d02d101",
          "sequence": 4294967295
        }
      ],
      "vout": [
        {
          "value": 50.0,
          "n": 0,
          "scriptPubKey": {
            "asm": "04d7c8b35a374938a311c9c675389e79409728cfef247964fd3cccbe907e04eb733c0f686a5937bde7d57ce791d4537fb32ce0762ecd8b874bde5ff5cf66c014e0 OP_CHECKSIG",
            "desc": "pk(04d7c8b35a374938a311c9c675389e79409728cfef247964fd3cccbe907e04eb733c0f686a5937bde7d57ce791d4537fb32ce0762ecd8b874bde5ff5cf66c014e0)#k8uwf4j9",
            "hex": "4104d7c8b35a374938a311c9c675389e79409728cfef247964fd3cccbe907e04eb733c0f686a5937bde7d57ce791d4537fb32ce0762ecd8b874bde5ff5cf66c014e0ac",
            "type": "pubkey"
          }
        }
      ],
      "hex": "01000000010000000000000000000000000000000000000000000000000000000000000000ffffffff0804ffff001d02d101ffffffff0100f2052a01000000434104d7c8b35a374938a311c9c675389e79409728cfef247964fd3cccbe907e04eb733c0f686a5937bde7d57ce791d4537fb32ce0762ecd8b874bde5ff5cf66c014e0ac00000000"
    }
  ]
}