{
  "hash": "0000000092b75372616c964eb3eac4c914fe79fb48aa9e8264bfecfc6e6aaab7",
  "confirmations": 44935,
  "height": 8163,
  "version": 1,
  "versionHex": "00000001",
  "merkleroot": "61fa3a72499d09eef8ee082d859a53aaf68a07eba5d2158b5b2a3e3bab963ab8",
  "time": 1237580846,
  "mediantime": 1237577592,
  "nonce": 1159450169,
  "bits": "1d00ffff",
  "difficulty": 1,
  "chainwork": "00000000000000000000000000000000000000000000000000001fe41fe41fe4",
  "nTx": 1,
  "previousblockhash": "00000000727061d8b632e2bdcf51984a2731f8ee595b0627e47113856d926810",
  "nextblockhash": "00000000858da1c33337cb05b63b2f6a1897a32d1e8d71e54e6fba72311510e3",
  "strippedsize": 216,
  "size": 216,
  "weight": 864,
  "tx": [
    {
      "txid": "61fa3a72499d09eef8ee082d859a53aaf68a07eba5d2158b5b2a3e3bab963ab8",
      "hash": "61fa3a72499d09eef8ee082d859a53aaf68a07eba5d2158b5b2a3e3bab963ab8",
      "version": 1,
      "size": 135,
      "vsize": 135,
      "weight": 540,
      "locktime": 0,
      "vin": [
        {
          "coinbase": "04ffff001d024302",
          "sequence": 4294967295
        }
      ],
      "vout": [
        {
          "value": 50.0,
          "n": 0,
          "scriptPubKey": {
            "asm": "04959347c809dde76033e49035c4da4543c353ac2de5d936822c11486115cfe3feb57e0db4abc7595bfa4489f99d99b95cf0ba6f9a0f06a13c54dee4c4b710d6b5 OP_CHECKSIG",
            "desc": "pk(04959347c809dde76033e49035c4da4543c353ac2de5d936822c11486115cfe3feb57e0db4abc7595bfa4489f99d99b95cf0ba6f9a0f06a13c54dee4c4b710d6b5)#7kzzltx7",
            "hex": "4104959347c809dde76033e49035c4da4543c353ac2de5d936822c11486115cfe3feb57e0db4abc7595bfa4489f99d99b95cf0ba6f9a0f06a13c54dee4c4b710d6b5ac",
            "type": "pubkey"
          }
        }
      ],
      "hex": "01000000010000000000000000000000000000000000000000000000000000000000000000ffffffff0804ffff001d024302ffffffff0100f2052a01000000434104959347c809dde76033e49035c4da4543c353ac2de5d936822c11486115cfe3feb57e0db4abc7595bfa4489f99d99b95cf0ba6f9a0f06a13c54dee4c4b710d6b5ac00000000"
    }
  ]
}