{
  "hash": "00000000e218d46cb2ebea79906e0052ae1c5bb6b224b0da3bcee63ea53e33d0",
  "confirmations": 52264,
  "height": 834,
  "version": 1,
  "versionHex": "00000001",
  "merkleroot": "aa653511d368baae692060b2554ddbfbf1efbd49167cb25c8213f327d4362d4e",
  "time": 1232217508,
  "mediantime": 1232213194,
  "nonce": 3576558638,
  "bits": "1d00ffff",
  "difficulty": 1,
  "chainwork": "0000000000000000000000000000000000000000000000000000034303430343",
  "nTx": 1,
  "previousblockhash": "00000000b551883cb80c81ec7604a6309fdd65d9f59de7bb9a9ed6b81e1c4446",
  "nextblockhash": "000000000d307eda232d986738cdd01ee4161cb51a3994f8a54f6e67fd1b4554",
  "strippedsize": 216,
  "size": 216,
  "weight": 864,
  "tx": [
    {
      "txid": "aa653511d368baae692060b2554ddbfbf1efbd49167cb25c8213f327d4362d4e",
      "hash": "aa653511d368baae692060b2554ddbfbf1efbd49167cb25c8213f327d4362d4e",
      "version": 1,
      "size": 135,
      "vsize": 135,
      "weight": 540,
      "locktime": 0,
      "vin": [
        {
          "coinbase": "04ffff001d022002",
          "sequence": 4294967295
        }
      ],
      "vout": [
        {
          "value": 50.0,
          "n": 0,
          "scriptPubKey": {
            "asm": "046d8f7d934354fe18806dde9c2362a4693a4c6f55e4e23823419545bf82c39bf6af29e38ce585f570960897bc60a3b616c4028322a891046dcd3c4373a24a1577 OP_CHECKSIG",
            "desc": "pk(046d8f7d934354fe18806dde9c2362a4693a4c6f55e4e23823419545bf82c39bf6af29e38ce585f570960897bc60a3b616c4028322a891046dcd3c4373a24a1577)#eq6nytf8",
            "hex": "41046d8f7d934354fe18806dde9c2362a4693a4c6f55e4e23823419545bf82c39bf6af29e38ce585f570960897bc60a3b616c4028322a891046dcd3c4373a24a1577ac",
            "type": "pubkey"
          }
        }
      ],
      "hex": "01000000010000000000000000000000000000000000000000000000000000000000000000ffffffff0804ffff001d022002ffffffff0100f2052a010000004341046d8f7d934354fe18806dde9c2362a4693a4c6f55e4e23823419545bf82c39bf6af29e38ce585f570960897bc60a3b616c4028322a891046dcd3c4373a24a1577ac00000000"
    }
  ]
}