{
  "hash": "000000007f36e13704298d9d7075ff829d969f0c4a1cadb46e85542760737573",
  "confirmations": 51955,
  "height": 1143,
  "version": 1,
  "versionHex": "00000001",
  "merkleroot": "28975351ae0bd7008272c452b194adc8123e74f8421f9567bf804b7436fa021e",
  "time": 1232454851,
  "mediantime": 1232450639,
  "nonce": 106610646,
  "bits": "1d00ffff",
  "difficulty": 1,
  "chainwork": "0000000000000000000000000000000000000000000000000000047804780478",
  "nTx": 1,
  "previousblockhash": "00000000c7550934ff7d02cdddff93a3ba0904c828d13bae6d844abbb55969e7",
  "nextblockhash": "0000000031002d56e1c4676ae7999e8e0968708225bb1063c6a738f882f4498d",
  "strippedsize": 216,
  "size": 216,
  "weight": 864,
  "tx": [
    {
      "txid": "28975351ae0bd7008272c452b194adc8123e74f8421f9567bf804b7436fa021e",
      "hash": "28975351ae0bd7008272c452b194adc8123e74f8421f9567bf804b7436fa021e",
      "version": 1,
      "size": 135,
      "vsize": 135,
      "weight": 540,
      "locktime": 0,
      "vin": [
        {
          "coinbase": "04ffff001d02ed01",
          "sequence": 4294967295
        }
      ],
      "vout": [
        {
          "value": 50.0,
          "n": 0,
          "scriptPubKey": {
            "asm": "04f69d84c022b9e2d6e6ac0f45e84493fd64d343b399c7afdb43f5b058a99088024ffb35332e994c8323d2c96cd603f16e36bdc6e1152665d6fafb87e6a172592b OP_CHECKSIG",
            "desc": "pk(04f69d84c022b9e2d6e6ac0f45e84493fd64d343b399c7afdb43f5b058a99088024ffb35332e994c8323d2c96cd603f16e36bdc6e1152665d6fafb87e6a172592b)#q2emvhq0",
            "hex": "4104f69d84c022b9e2d6e6ac0f45e84493fd64d343b399c7afdb43f5b058a99088024ffb35332e994c8323d2c96cd603f16e36bdc6e1152665d6fafb87e6a172592bac",
            "type": "pubkey"
          }
        }
      ],
      "hex": "01000000010000000000000000000000000000000000000000000000000000000000000000ffffffff0804ffff001d02ed01ffffffff0100f2052a01000000434104f69d84c022b9e2d6e6ac0f45e84493fd64d343b399c7afdb43f5b058a99088024ffb35332e994c8323d2c96cd603f16e36bdc6e1152665d6fafb87e6a172592bac00000000"
    }
  ]
}