{
  "hash": "000000004a03e2ecfe616677f7e4c8542b748e9a76ef1879d283373cb79c9912",
  "confirmations": 50037,
  "height": 3061,
  "version": 1,
  "versionHex": "00000001",
  "merkleroot": "4140f93b77e2e00a8028624c30cbed1af9be189995519d3206e4388e3a3ae3df",
  "time": 1233802394,
  "mediantime": 1233800403,
  "nonce": 187059946,
  "bits": "1d00ffff",
  "difficulty": 1,
  "chainwork": "00000000000000000000000000000000000000000000000000000bf60bf60bf6",
  "nTx": 1,
  "previousblockhash": "00000000ed8f29434b37d0728fccb20680b739bfa82defb5fabe4a7226e769e4",
  "nextblockhash": "0000000024769204efc5142a8376e14458d923a23cd15bb43b38975617803f6e",
  "strippedsize": 215,
  "size": 215,
  "weight": 860,
  "tx": [
    {
      "txid": "4140f93b77e2e00a8028624c30cbed1af9be189995519d3206e4388e3a3ae3df",
      "hash": "4140f93b77e2e00a8028624c30cbed1af9be189995519d3206e4388e3a3ae3df",
      "version": 1,
      "size": 134,
      "vsize": 134,
      "weight": 536,
      "locktime": 0,
      "vin": [
        {
          "coinbase": "04ffff001d0116",
          "sequence": 4294967295
        }
      ],
      "vout": [
        {
          "value": 50.0,
          "n": 0,
          "scriptPubKey": {
            "asm": "0478d6faee5d4904a5eec2ee6fa5634bbd520ce2b3d7ab2e39cf77716d9fe792117d441c686a9c4a8edf91efc6f6a09ee20ebdb0e4eae2468efd7f2e3eef3940b3 OP_CHECKSIG",
            "desc": "pk(0478d6faee5d4904a5eec2ee6fa5634bbd520ce2b3d7ab2e39cf77716d9fe792117d441c686a9c4a8edf91efc6f6a09ee20ebdb0e4eae2468efd7f2e3eef3940b3)#5k83fm82",
            "hex": "410478d6faee5d4904a5eec2ee6fa5634bbd520ce2b3d7ab2e39cf77716d9fe792117d441c686a9c4a8edf91efc6f6a09ee20ebdb0e4eae2468efd7f2e3eef3940b3ac",
            "type": "pubkey"
          }
        }
      ],
      "hex": "01000000010000000000000000000000000000000000000000000000000000000000000000ffffffff0704ffff001d0116ffffffff0100f2052a0100000043410478d6faee5d4904a5eec2ee6fa5634bbd520ce2b3d7ab2e39cf77716d9fe792117d441c686a9c4a8edf91efc6f6a09ee20ebdb0e4eae2468efd7f2e3eef3940b3ac00000000"
    }
  ]
}