{
  "hash": "000000008d6d1be4e26d9ec16b8f719bc2f7befaeff7b3cc208b100ca7abc982",
  "confirmations": 52091,
  "height": 243,
  "version": 1,
  "versionHex": "00000001",
  "merkleroot": "1bf65bfe16dba06a386e229bb07c8d5e3f36cf8740aa306709a4d7923b2793d7",
  "time": 1231786898,
  "mediantime": 1231782035,
  "nonce": 279254043,
  "bits": "1d00ffff",
  "difficulty": 1,
  "chainwork": "000000000000000000000000000000000000000000000000000000f400f400f4",
  "nTx": 1,
  "previousblockhash": "00000000bd0f11ce95423513cc30ed6990fe8170b9a2edfcc1cbd9b89bbcf0df",
  "nextblockhash": "0000000047ebf1f452225ac287d79dcc8e4a840c2a097efa407679a213f9e5ba",
  "strippedsize": 216,
  "size": 216,
  "weight": 864,
  "tx": [
    {
      "txid": "1bf65bfe16dba06a386e229bb07c8d5e3f36cf8740aa306709a4d7923b2793d7",
      "hash": "1bf65bfe16dba06a386e229bb07c8d5e3f36cf8740aa306709a4d7923b2793d7",
      "version": 1,
      "size": 135,
      "vsize": 135,
      "weight": 540,
      "locktime": 0,
      "vin": [
        {
          "coinbase": "04ffff001d02fc00",
          "sequence": 4294967295
        }
      ],
      "vout": [
        {
          "value": 50.0,
          "n": 0,
          "scriptPubKey": {
            "asm": "047482b2aac014dbebd1fc93842db3175cd34ad7875c5be3ee7b385f913e62fd6c805b9578f0f9feefc9b08aa4fd898c67cb52b4d32f2769d7ce1190367fce6ff1 OP_CHECKSIG",
            "desc": "pk(047482b2aac014dbebd1fc93842db3175cd34ad7875c5be3ee7b385f913e62fd6c805b9578f0f9feefc9b08aa4fd898c67cb52b4d32f2769d7ce1190367fce6ff1)#slcjl99a",
            "hex": "41047482b2aac014dbebd1fc93842db3175cd34ad7875c5be3ee7b385f913e62fd6c805b9578f0f9feefc9b08aa4fd898c67cb52b4d32f2769d7ce1190367fce6ff1ac",
            "type": "pubkey"
          }
        }
      ],
      "hex": "01000000010000000000000000000000000000000000000000000000000000000000000000ffffffff0804ffff001d02fc00ffffffff0100f2052a010000004341047482b2aac014dbebd1fc93842db3175cd34ad7875c5be3ee7b385f913e62fd6c805b9578f0f9feefc9b08aa4fd898c67cb52b4d32f2769d7ce1190367fce6ff1ac00000000"
    }
  ]
}