{
  "hash": "00000000154f3efe2674df0ea0aa37e2ebc269ae6f8422dbdd36fa3dcb8041ba",
  "confirmations": 48867,
  "height": 4231,
  "version": 1,
  "versionHex": "00000001",
  "merkleroot": "98d08c0e00f1b1b267e1bd6a4cd0bfe2ce5c847271516ac46070dc1a8f94aa39",
  "time": 1234599133,
  "mediantime": 1234595512,
  "nonce": 4073704991,
  "bits": "1d00ffff",
  "difficulty": 1,
  "chainwork": "0000000000000000000000000000000000000000000000000000108810881088",
  "nTx": 1,
  "previousblockhash": "00000000291097fcad98cf422b7dc8b04e6d0bdbddffe90c0114c6e09a66e6cb",
  "nextblockhash": "00000000f300d16a9056c30234776c7c1202cc27f1ddcdf63132a0ec425ffbea",
  "strippedsize": 216,
  "size": 216,
  "weight": 864,
  "tx": [
    {
      "txid": "98d08c0e00f1b1b267e1bd6a4cd0bfe2ce5c847271516ac46070dc1a8f94aa39",
      "hash": "98d08c0e00f1b1b267e1bd6a4cd0bfe2ce5c847271516ac46070dc1a8f94aa39",
      "version": 1,
      "size": 135,
      "vsize": 135,
      "weight": 540,
      "locktime": 0,
      "vin": [
        {
          "coinbase": "04ffff001d02b707",
          "sequence": 4294967295
        }
      ],
      "vout": [
        {
          "value": 50.0,
          "n": 0,
          "scriptPubKey": {
            "asm": "04ed17812e718ee8ed47c802d800820af0679e781e423e3ed4790ceafbcb842363cc00c68c42390cb261d64ae80c72713ad0817fc4f156d2ac70a89d6c06814da5 OP_CHECKSIG",
            "desc": "pk(04ed17812e718ee8ed47c802d800820af0679e781e423e3ed4790ceafbcb842363cc00c68c42390cb261d64ae80c72713ad0817fc4f156d2ac70a89d6c06814da5)#jenwsylv",
            "hex": "4104ed17812e718ee8ed47c802d800820af0679e781e423e3ed4790ceafbcb842363cc00c68c42390cb261d64ae80c72713ad0817fc4f156d2ac70a89d6c06814da5ac",
            "type": "pubkey"
          }
        }
      ],
      "hex": "01000000010000000000000000000000000000000000000000000000000000000000000000ffffffff0804ffff001d02b707ffffffff0100f2052a01000000434104ed17812e718ee8ed47c802d800820af0679e781e423e3ed4790ceafbcb842363cc00c68c42390cb261d64ae80c72713ad0817fc4f156d2ac70a89d6c06814da5ac00000000"
    }
  ]
}