{
  "hash": "000000008ef011d801e138c195c44a61d7bfc9623fc860e40615f6fc6eadc763",
  "confirmations": 49278,
  "height": 3820,
  "version": 1,
  "versionHex": "00000001",
  "merkleroot": "94dc175450c61703aab10991200a416d621e19a1c243aaa7e642766547b0a1ac",
  "time": 1234317405,
  "mediantime": 1234314237,
  "nonce": 2522431264,
  "bits": "1d00ffff",
  "difficulty": 1,
  "chainwork": "00000000000000000000000000000000000000000000000000000eed0eed0eed",
  "nTx": 1,
  "previousblockhash": "00000000d4cf6db8224f0f2240b92742529354134e02a6c3781b18985145a8ea",
  "nextblockhash": "0000000030ed2872a8bf721b7ffcf9960324759d1c91eb9fc8bc337db61bc82c",
  "strippedsize": 216,
  "size": 216,
  "weight": 864,
  "tx": [
    {
      "txid": "94dc175450c61703aab10991200a416d621e19a1c243aaa7e642766547b0a1ac",
      "hash": "94dc175450c61703aab10991200a416d621e19a1c243aaa7e642766547b0a1ac",
      "version": 1,
      "size": 135,
      "vsize": 135,
      "weight": 540,
      "locktime": 0,
      "vin": [
        {
          "coinbase": "04ffff001d028701",
          "sequence": 4294967295
        }
      ],
      "vout": [
        {
          "value": 50.0,
          "n": 0,
          "scriptPubKey": {
            "asm": "045a36e4165bb4e3dd8fd7f1435a238df536499c108692a15f01c3bc93a62bd42d540fa5ee4ad7051f377090d3aa6ca73d7aee4f9dfccd9d02929578dbf03b1d8a OP_CHECKSIG",
            "desc": "pk(045a36e4165bb4e3dd8fd7f1435a238df536499c108692a15f01c3bc93a62bd42d540fa5ee4ad7051f377090d3aa6ca73d7aee4f9dfccd9d02929578dbf03b1d8a)#t85ltz0a",
            "hex": "41045a36e4165bb4e3dd8fd7f1435a238df536499c108692a15f01c3bc93a62bd42d540fa5ee4ad7051f377090d3aa6ca73d7aee4f9dfccd9d02929578dbf03b1d8aac",
            "type": "pubkey"
          }
        }
      ],
      "hex": "01000000010000000000000000000000000000000000000000000000000000000000000000ffffffff0804ffff001d028701ffffffff0100f2052a010000004341045a36e4165bb4e3dd8fd7f1435a238df536499c108692a15f01c3bc93a62bd42d540fa5ee4ad7051f377090d3aa6ca73d7aee4f9dfccd9d02929578dbf03b1d8aac00000000"
    }
  ]
}