{
  "hash": "0000000082b427d4f4c3dec9e1df1b9f32b426fa8b12e85384921aa3f59306c3",
  "confirmations": 48085,
  "height": 5013,
  "version": 1,
  "versionHex": "00000001",
  "merkleroot": "00fc935fe5b6af956346c36faa9ea69bb4fd2bb9c841b16151ebb5757ca5d24a",
  "time": 1235144741,
  "mediantime": 1235141516,
  "nonce": 158202854,
  "bits": "1d00ffff",
  "difficulty": 1,
  "chainwork": "0000000000000000000000000000000000000000000000000000139613961396",
  "nTx": 1,
  "previousblockhash": "00000000cc686b75642b77dc7239109ffab8d22f697f6b4425ab4edc8e0c2250",
  "nextblockhash": "00000000299ded291db48445b2642a0ffd02ac51aee52e494e024fd3dcae9bdc",
  "strippedsize": 215,
  "size": 215,
  "weight": 860,
  "tx": [
    {
      "txid": "00fc935fe5b6af956346c36faa9ea69bb4fd2bb9c841b16151ebb5757ca5d24a",
      "hash": "00fc935fe5b6af956346c36faa9ea69bb4fd2bb9c841b16151ebb5757ca5d24a",
      "version": 1,
      "size": 134,
      "vsize": 134,
      "weight": 536,
      "locktime": 0,
      "vin": [
        {
          "coinbase": "04ffff001d015f",
          "sequence": 4294967295
        }
      ],
      "vout": [
        {
          "value": 50.0,
          "n": 0,
          "scriptPubKey": {
            "asm": "046488d576acacce142dd24b6a91f97d5b2fd5d979ddb1020028048d7da9b62e83742077d45ff9bf7a69f45e863667dab06939a3dc3d476c8a53e0cc448ef40de7 OP_CHECKSIG",
            "desc": "pk(046488d576acacce142dd24b6a91f97d5b2fd5d979ddb1020028048d7da9b62e83742077d45ff9bf7a69f45e863667dab06939a3dc3d476c8a53e0cc448ef40de7)#phv0mjst",
            "hex": "41046488d576acacce142dd24b6a91f97d5b2fd5d979ddb1020028048d7da9b62e83742077d45ff9bf7a69f45e863667dab06939a3dc3d476c8a53e0cc448ef40de7ac",
            "type": "pubkey"
          }
        }
      ],
      "hex": "01000000010000000000000000000000000000000000000000000000000000000000000000ffffffff0704ffff001d015fffffffff0100f2052a010000004341046488d576acacce142dd24b6a91f97d5b2fd5d979ddb1020028048d7da9b62e83742077d45ff9bf7a69f45e863667dab06939a3dc3d476c8a53e0cc448ef40de7ac00000000"
    }
  ]
}