{
  "hash": "00000000285e3e8f92b44d5991728c88461091356bf8a7901d6a6907570f04d5",
  "confirmations": 46014,
  "height": 7084,
  "version": 1,
  "versionHex": "00000001",
  "merkleroot": "26e4ffc286c6b269377c58ab7c2df6d64c0d43481c639cbcc24a83857512426e",
  "time": 1236783837,
  "mediantime": 1236779199,
  "nonce": 2338712881,
  "bits": "1d00ffff",
  "difficulty": 1,
  "chainwork": "00000000000000000000000000000000000000000000000000001bad1bad1bad",
  "nTx": 1,
  "previousblockhash": "00000000cbbb4b09e70b5f12c082567597686c6e7d24174e6b1d9f18dbe90bd0",
  "nextblockhash": "00000000a3a89f3a6830991e7afbc71eb8d8d6fa3c57c37e330a248d6ae1b367",
  "strippedsize": 216,
  "size": 216,
  "weight": 864,
  "tx": [
    {
      "txid": "26e4ffc286c6b269377c58ab7c2df6d64c0d43481c639cbcc24a83857512426e",
      "hash": "26e4ffc286c6b269377c58ab7c2df6d64c0d43481c639cbcc24a83857512426e",
      "version": 1,
      "size": 135,
      "vsize": 135,
      "weight": 540,
      "locktime": 0,
      "vin": [
        {
          "coinbase": "04ffff001d02b903",
          "sequence": 4294967295
        }
      ],
      "vout": [
        {
          "value": 50.0,
          "n": 0,
          "scriptPubKey": {
            "asm": "04db5b5b7f2dc49121632e7ee55bf5ca4367731539f3abae9a9b546a5c9a163cfd37a60400be751cdd1876bef854451a9f0381df8cf561a1ea6b74be1261cb15e2 OP_CHECKSIG",
            "desc": "pk(04db5b5b7f2dc49121632e7ee55bf5ca4367731539f3abae9a9b546a5c9a163cfd37a60400be751cdd1876bef854451a9f0381df8cf561a1ea6b74be1261cb15e2)#nrgzfpkf",
            "hex": "4104db5b5b7f2dc49121632e7ee55bf5ca4367731539f3abae9a9b546a5c9a163cfd37a60400be751cdd1876bef854451a9f0381df8cf561a1ea6b74be1261cb15e2ac",
            "type": "pubkey"
          }
        }
      ],
      "hex": "01000000010000000000000000000000000000000000000000000000000000000000000000ffffffff0804ffff001d02b903ffffffff0100f2052a01000000434104db5b5b7f2dc49121632e7ee55bf5ca4367731539f3abae9a9b546a5c9a163cfd37a60400be751cdd1876bef854451a9f0381df8cf561a1ea6b74be1261cb15e2ac00000000"
    }
  ]
}