{
  "hash": "00000000c9c22e90d7a211af907d88630c48381fb7985a83d1cc1bf723f78205",
  "confirmations": 50640,
  "height": 2458,
  "version": 1,
  "versionHex": "00000001",
  "merkleroot": "d3a2082e38f1ca32b7807c48a7ba4326b5ae5660abb934866b893aeac0c6a4bd",
  "time": 1233397432,
  "mediantime": 1233395159,
  "nonce": 601563948,
  "bits": "1d00ffff",
  "difficulty": 1,
  "chainwork": "0000000000000000000000000000000000000000000000000000099b099b099b",
  "nTx": 1,
  "previousblockhash": "00000000d9fd29b707d54702c14547a384c3ed2e8ee0427e994d8901c5186fcd",
  "nextblockhash": "000000008e4370ebb94877d023f6304a8080f3dcd13e8d04999f5d8101b7c30b",
  "strippedsize": 216,
  "size": 216,
  "weight": 864,
  "tx": [
    {
      "txid": "d3a2082e38f1ca32b7807c48a7ba4326b5ae5660abb934866b893aeac0c6a4bd",
      "hash": "d3a2082e38f1ca32b7807c48a7ba4326b5ae5660abb934866b893aeac0c6a4bd",
      "version": 1,
      "size": 135,
      "vsize": 135,
      "weight": 540,
      "locktime": 0,
      "vin": [
        {
          "coinbase": "04ffff001d029f00",
          "sequence": 4294967295
        }
      ],
      "vout": [
        {
          "value": 50.0,
          "n": 0,
          "scriptPubKey": {
            "asm": "04f5ab9d24482bd36a28c19a6f07a2d9751188bcac1ded438be341454e3efee1162f6d5aeca49c93698b870a77f2b220818e412454eddd60b1115e1367dc50f2fd OP_CHECKSIG",
            "desc": "pk(04f5ab9d24482bd36a28c19a6f07a2d9751188bcac1ded438be341454e3efee1162f6d5aeca49c93698b870a77f2b220818e412454eddd60b1115e1367dc50f2fd)#8r4m9wh4",
            "hex": "4104f5ab9d24482bd36a28c19a6f07a2d9751188bcac1ded438be341454e3efee1162f6d5aeca49c93698b870a77f2b220818e412454eddd60b1115e1367dc50f2fdac",
            "type": "pubkey"
          }
        }
      ],
      "hex": "01000000010000000000000000000000000000000000000000000000000000000000000000ffffffff0804ffff001d029f00ffffffff0100f2052a01000000434104f5ab9d24482bd36a28c19a6f07a2d9751188bcac1ded438be341454e3efee1162f6d5aeca49c93698b870a77f2b220818e412454eddd60b1115e1367dc50f2fdac00000000"
    }
  ]
}