{
  "hash": "0000000077d98399e6b17d1e44bc2e3b2527ca10c174b3d736bfa5ff0e4d7e83",
  "confirmations": 44866,
  "height": 8232,
  "version": 1,
  "versionHex": "00000001",
  "merkleroot": "bef2138148178a4809938e527a0d483fbc53b84d87de3d8c553f148679a57d5b",
  "time": 1237684227,
  "mediantime": 1237663763,
  "nonce": 2389502764,
  "bits": "1d00ffff",
  "difficulty": 1,
  "chainwork": "0000000000000000000000000000000000000000000000000000202920292029",
  "nTx": 1,
  "previousblockhash": "0000000081ac433c596a735022c5e1f19afcce061a68da4e8547521f647e5ca4",
  "nextblockhash": "000000001ef602d85268d37d20d3218d272e919201c2effed87e7d1b5bb1b5a9",
  "strippedsize": 216,
  "size": 216,
  "weight": 864,
  "tx": [
    {
      "txid": "bef2138148178a4809938e527a0d483fbc53b84d87de3d8c553f148679a57d5b",
      "hash": "bef2138148178a4809938e527a0d483fbc53b84d87de3d8c553f148679a57d5b",
      "version": 1,
      "size": 135,
      "vsize": 135,
      "weight": 540,
      "locktime": 0,
      "vin": [
        {
          "coinbase": "04ffff001d024003",
          "sequence": 4294967295
        }
      ],
      "vout": [
        {
          "value": 50.0,
          "n": 0,
          "scriptPubKey": {
            "asm": "04a6d3f765ac434169d74c49c991817b2a1cbc6e4626878a5f0d8f82ae30354f401e629c4460e852ed0b075c1902a2aa4213b935ca936d2381106b46522611d758 OP_CHECKSIG",
            "desc": "pk(04a6d3f765ac434169d74c49c991817b2a1cbc6e4626878a5f0d8f82ae30354f401e629c4460e852ed0b075c1902a2aa4213b935ca936d2381106b46522611d758)#vtmd3g44",
            "hex": "4104a6d3f765ac434169d74c49c991817b2a1cbc6e4626878a5f0d8f82ae30354f401e629c4460e852ed0b075c1902a2aa4213b935ca936d2381106b46522611d758ac",
            "type": "pubkey"
          }
        }
      ],
      "hex": "01000000010000000000000000000000000000000000000000000000000000000000000000ffffffff0804ffff001d024003ffffffff0100f2052a01000000434104a6d3f765ac434169d74c49c991817b2a1cbc6e4626878a5f0d8f82ae30354f401e629c4460e852ed0b075c1902a2aa4213b935ca936d2381106b46522611d758ac00000000"
    }
  ]
}