{
  "hash": "0000000084c67b198b88497ccf47fc0d136f72ab463ab25e399502d254f62aa1",
  "confirmations": 50844,
  "height": 2254,
  "version": 1,
  "versionHex": "00000001",
  "merkleroot": "af4c2c888c04335a0e527fd9b45899e35149484d8c6ead92b1bbd858b0d2c910",
  "time": 1233248343,
  "mediantime": 1233246870,
  "nonce": 2446943000,
  "bits": "1d00ffff",
  "difficulty": 1,
  "chainwork": "000000000000000000000000000000000000000000000000000008cf08cf08cf",
  "nTx": 1,
  "previousblockhash": "000000009b2fb1f7423e64170bdc70f65d5a2ff9b51201e87e04d8f93a550b63",
  "nextblockhash": "00000000a2a171ff52ca3c9d046592c8ac623b136b8d6910003728a3d22691cc",
  "strippedsize": 216,
  "size": 216,
  "weight": 864,
  "tx": [
    {
      "txid": "af4c2c888c04335a0e527fd9b45899e35149484d8c6ead92b1bbd858b0d2c910",
      "hash": "af4c2c888c04335a0e527fd9b45899e35149484d8c6ead92b1bbd858b0d2c910",
      "version": 1,
      "size": 135,
      "vsize": 135,
      "weight": 540,
      "locktime": 0,
      "vin": [
        {
          "coinbase": "04ffff001d021401",
          "sequence": 4294967295
        }
      ],
      "vout": [
        {
          "value": 50.0,
          "n": 0,
          "scriptPubKey": {
            "asm": "0409517477a5e256285191ea46e936e5e23be61117d2553df603bf85e024a101a8056929a41d6f091924f4452323e2ffb8913514e0d17890c802f69bc1871b4f7d OP_CHECKSIG",
            "desc": "pk(0409517477a5e256285191ea46e936e5e23be61117d2553df603bf85e024a101a8056929a41d6f091924f4452323e2ffb8913514e0d17890c802f69bc1871b4f7d)#rjf83uwg",
            "hex": "410409517477a5e256285191ea46e936e5e23be61117d2553df603bf85e024a101a8056929a41d6f091924f4452323e2ffb8913514e0d17890c802f69bc1871b4f7dac",
            "type": "pubkey"
          }
        }
      ],
      "hex": "01000000010000000000000000000000000000000000000000000000000000000000000000ffffffff0804ffff001d021401ffffffff0100f2052a0100000043410409517477a5e256285191ea46e936e5e23be61117d2553df603bf85e024a101a8056929a41d6f091924f4452323e2ffb8913514e0d17890c802f69bc1871b4f7dac00000000"
    }
  ]
}