{
  "hash": "0000000007b3d3d27c5e2a41f72a6f8325a8c0bcef7b3816f085c7c3e3f6f8dd",
  "confirmations": 44458,
  "height": 8640,
  "version": 1,
  "versionHex": "00000001",
  "merkleroot": "316587b231c131549846be9ad2d8d99cdd95fbf8ccf283bd3b0046a06cac132c",
  "time": 1237976389,
  "mediantime": 1237972411,
  "nonce": 3781662755,
  "bits": "1d00ffff",
  "difficulty": 1,
  "chainwork": "000000000000000000000000000000000000000000000000000021c121c121c1",
  "nTx": 1,
  "previousblockhash": "00000000377dcac7a06bcca10db790c2fbfe7b670eb9afdf2351e2679f3076da",
  "nextblockhash": "00000000428a416c6536f785c18af1fb6094c653f2e847086eb58755303e2d39",
  "strippedsize": 216,
  "size": 216,
  "weight": 864,
  "tx": [
    {
      "txid": "316587b231c131549846be9ad2d8d99cdd95fbf8ccf283bd3b0046a06cac132c",
      "hash": "316587b231c131549846be9ad2d8d99cdd95fbf8ccf283bd3b0046a06cac132c",
      "version": 1,
      "size": 135,
      "vsize": 135,
      "weight": 540,
      "locktime": 0,
      "vin": [
        {
          "coinbase": "04ffff001d02260a",
          "sequence": 4294967295
        }
      ],
      "vout": [
        {
          "value": 50.0,
          "n": 0,
          "scriptPubKey": {
            "asm": "04aa28fa81d49c52de53c8fd2484f86d75f2f7fecb52080f5e8f1dd405d2ab1701173bedfb076f813963bc9b79e3c907e78e37747e327b09a4a44aa4093012eac9 OP_CHECKSIG",
            "desc": "pk(04aa28fa81d49c52de53c8fd2484f86d75f2f7fecb52080f5e8f1dd405d2ab1701173bedfb076f813963bc9b79e3c907e78e37747e327b09a4a44aa4093012eac9)#sz0hslau",
            "hex": "4104aa28fa81d49c52de53c8fd2484f86d75f2f7fecb52080f5e8f1dd405d2ab1701173bedfb076f813963bc9b79e3c907e78e37747e327b09a4a44aa4093012eac9ac",
            "type": "pubkey"
          }
        }
      ],
      "hex": "01000000010000000000000000000000000000000000000000000000000000000000000000ffffffff0804ffff001d02260affffffff0100f2052a01000000434104aa28fa81d49c52de53c8fd2484f86d75f2f7fecb52080f5e8f1dd405d2ab1701173bedfb076f813963bc9b79e3c907e78e37747e327b09a4a44aa4093012eac9ac00000000"
    }
  ]
}