{
  "hash": "00000000056b9bb9760b7f3323c4e8699394b24f83dbb22eacf7759bba704eec",
  "confirmations": 47322,
  "height": 5776,
  "version": 1,
  "versionHex": "00000001",
  "merkleroot": "3e3e811e2a197d93f9d17d4371a355de656b04d3aa10b6dc5d690160b47f83ec",
  "time": 1235742203,
  "mediantime": 1235739043,
  "nonce": 232060675,
  "bits": "1d00ffff",
  "difficulty": 1,
  "chainwork": "0000000000000000000000000000000000000000000000000000169116911691",
  "nTx": 1,
  "previousblockhash": "000000004249479797773a5b8551f3274fc2a8dc4b5c52260e68eb62fd6b4ba3",
  "nextblockhash": "000000007bec27af36b7288c899fdb6c390bd522e5644b1a1e0aeb480f820ebe",
  "strippedsize": 215,
  "size": 215,
  "weight": 860,
  "tx": [
    {
      "txid": "3e3e811e2a197d93f9d17d4371a355de656b04d3aa10b6dc5d690160b47f83ec",
      "hash": "3e3e811e2a197d93f9d17d4371a355de656b04d3aa10b6dc5d690160b47f83ec",
      "version": 1,
      "size": 134,
      "vsize": 134,
      "weight": 536,
      "locktime": 0,
      "vin": [
        {
          "coinbase": "04ffff001d0169",
          "sequence": 4294967295
        }
      ],
      "vout": [
        {
          "value": 50.0,
          "n": 0,
          "scriptPubKey": {
            "asm": "04fc65d855039ac1cbe5bc70d56c6792c751bbd8eabab92b07dc0c1d0bfe507e8c43edfc15fb16ae4c22225142c70f1c4f5ec61edc43f6be120695c507079aa1de OP_CHECKSIG",
            "desc": "pk(04fc65d855039ac1cbe5bc70d56c6792c751bbd8eabab92b07dc0c1d0bfe507e8c43edfc15fb16ae4c22225142c70f1c4f5ec61edc43f6be120695c507079aa1de)#aq9ahdmt",
            "hex": "4104fc65d855039ac1cbe5bc70d56c6792c751bbd8eabab92b07dc0c1d0bfe507e8c43edfc15fb16ae4c22225142c70f1c4f5ec61edc43f6be120695c507079aa1deac",
            "type": "pubkey"
          }
        }
      ],
      "hex": "01000000010000000000000000000000000000000000000000000000000000000000000000ffffffff0704ffff001d0169ffffffff0100f2052a01000000434104fc65d855039ac1cbe5bc70d56c6792c751bbd8eabab92b07dc0c1d0bfe507e8c43edfc15fb16ae4c22225142c70f1c4f5ec61edc43f6be120695c507079aa1deac00000000"
    }
  ]
}