{
  "hash": "00000000e2269a36ac1e516cdf914d689cf5c8a35876140a9a631f282fef384c",
  "confirmations": 50746,
  "height": 2352,
  "version": 1,
  "versionHex": "00000001",
  "merkleroot": "47c03918820d76420bd010370a33d4423c9eea6b2ada9ec3907eda3613006d30",
  "time": 1233318413,
  "mediantime": 1233315226,
  "nonce": 1924538371,
  "bits": "1d00ffff",
  "difficulty": 1,
  "chainwork": "0000000000000000000000000000000000000000000000000000093109310931",
  "nTx": 1,
  "previousblockhash": "000000009846564229f87d0eb692916c97251d48b5d59b853fb5cad385992b3b",
  "nextblockhash": "000000004ffdd2b70630e2fb08bcc3080e523a3d920bbfd8f7bdc3635f921d7f",
  "strippedsize": 216,
  "size": 216,
  "weight": 864,
  "tx": [
    {
      "txid": "47c03918820d76420bd010370a33d4423c9eea6b2ada9ec3907eda3613006d30",
      "hash": "47c03918820d76420bd010370a33d4423c9eea6b2ada9ec3907eda3613006d30",
      "version": 1,
      "size": 135,
      "vsize": 135,
      "weight": 540,
      "locktime": 0,
      "vin": [
        {
          "coinbase": "04ffff001d02bf02",
          "sequence": 4294967295
        }
      ],
      "vout": [
        {
          "value": 50.0,
          "n": 0,
          "scriptPubKey": {
            "asm": "0476ee5e6ae615bf976be16e165146a3512e8a0bb528260145706d3e133064241d224b1d6796633b66c320511ca8caf943d7f2daae72b5ca4b51d5c1d987a364ba OP_CHECKSIG",
            "desc": "pk(0476ee5e6ae615bf976be16e165146a3512e8a0bb528260145706d3e133064241d224b1d6796633b66c320511ca8caf943d7f2daae72b5ca4b51d5c1d987a364ba)#mqea4mzl",
            "hex": "410476ee5e6ae615bf976be16e165146a3512e8a0bb528260145706d3e133064241d224b1d6796633b66c320511ca8caf943d7f2daae72b5ca4b51d5c1d987a364baac",
            "type": "pubkey"
          }
        }
      ],
      "hex": "01000000010000000000000000000000000000000000000000000000000000000000000000ffffffff0804ffff001d02bf02ffffffff0100f2052a0100000043410476ee5e6ae615bf976be16e165146a3512e8a0bb528260145706d3e133064241d224b1d6796633b66c320511ca8caf943d7f2daae72b5ca4b51d5c1d987a364baac00000000"
    }
  ]
}