{
  "hash": "00000000acf2fb91966651ef64da2807f589a0f93c124a04ee8cba86e3220473",
  "confirmations": 47437,
  "height": 5661,
  "version": 1,
  "versionHex": "00000001",
  "merkleroot": "1e323fba4780e72e8ef9d8eb3d1f5bb49632b4bd4e92f9d830bbd49d5ab93018",
  "time": 1235658945,
  "mediantime": 1235653503,
  "nonce": 650084359,
  "bits": "1d00ffff",
  "difficulty": 1,
  "chainwork": "0000000000000000000000000000000000000000000000000000161e161e161e",
  "nTx": 1,
  "previousblockhash": "00000000faabb1739a9780e0e6f36f06f83724f28a8766f1a2c9120a4d5e8b47",
  "nextblockhash": "0000000039ed3376af265235bfa4e3fef3258f4c717da457623c5ec345bb52f8",
  "strippedsize": 216,
  "size": 216,
  "weight": 864,
  "tx": [
    {
      "txid": "1e323fba4780e72e8ef9d8eb3d1f5bb49632b4bd4e92f9d830bbd49d5ab93018",
      "hash": "1e323fba4780e72e8ef9d8eb3d1f5bb49632b4bd4e92f9d830bbd49d5ab93018",
      "version": 1,
      "size": 135,
      "vsize": 135,
      "weight": 540,
      "locktime": 0,
      "vin": [
        {
          "coinbase": "04ffff001d02dc08",
          "sequence": 4294967295
        }
      ],
      "vout": [
        {
          "value": 50.0,
          "n": 0,
          "scriptPubKey": {
            "asm": "041ecf75796bbde768186043b8e134350b648860be290b2adf7880e2e22e1f6e425b6aa72e771b4311524860a9d2de0a2a682113f202fc5f77c662cdf33e8db3bd OP_CHECKSIG",
            "desc": "pk(041ecf75796bbde768186043b8e134350b648860be290b2adf7880e2e22e1f6e425b6aa72e771b4311524860a9d2de0a2a682113f202fc5f77c662cdf33e8db3bd)#0mqa4sj7",
            "hex": "41041ecf75796bbde768186043b8e134350b648860be290b2adf7880e2e22e1f6e425b6aa72e771b4311524860a9d2de0a2a682113f202fc5f77c662cdf33e8db3bdac",
            "type": "pubkey"
          }
        }
      ],
      "hex": "01000000010000000000000000000000000000000000000000000000000000000000000000ffffffff0804ffff001d02dc08ffffffff0100f2052a010000004341041ecf75796bbde768186043b8e134350b648860be290b2adf7880e2e22e1f6e425b6aa72e771b4311524860a9d2de0a2a682113f202fc5f77c662cdf33e8db3bdac00000000"
    }
  ]
}