{
  "hash": "00000000ee4951a9859cefaa5565b9747d5ed09b2cbd9eaaee23a687cee83e1b",
  "confirmations": 49078,
  "height": 4020,
  "version": 1,
  "versionHex": "00000001",
  "merkleroot": "834d7d940d5143665ec6fad487771a8c3235f431941fa469deb42e5bb42dc4fe",
  "time": 1234455492,
  "mediantime": 1234451809,
  "nonce": 569845306,
  "bits": "1d00ffff",
  "difficulty": 1,
  "chainwork": "00000000000000000000000000000000000000000000000000000fb50fb50fb5",
  "nTx": 1,
  "previousblockhash": "0000000064d2997618779ccd32878a036f4b5711da049e017438b644025115ce",
  "nextblockhash": "00000000fa92a59f4ddf3be43c5ae208935bbe7e81145c8557bb153185885197",
  "strippedsize": 216,
  "size": 216,
  "weight": 864,
  "tx": [
    {
      "txid": "834d7d940d5143665ec6fad487771a8c3235f431941fa469deb42e5bb42dc4fe",
      "hash": "834d7d940d5143665ec6fad487771a8c3235f431941fa469deb42e5bb42dc4fe",
      "version": 1,
      "size": 135,
      "vsize": 135,
      "weight": 540,
      "locktime": 0,
      "vin": [
        {
          "coinbase": "04ffff001d029f04",
          "sequence": 4294967295
        }
      ],
      "vout": [
        {
          "value": 50.0,
          "n": 0,
          "scriptPubKey": {
            "asm": "04424b68d38ae9a6019c17b155c97b7ff4a9828321b3e55e6ee68fed660ff5d85984f64674c224005f629339547f292d532b524c0e28ef7ea4e1830eefb352ca54 OP_CHECKSIG",
            "desc": "pk(04424b68d38ae9a6019c17b155c97b7ff4a9828321b3e55e6ee68fed660ff5d85984f64674c224005f629339547f292d532b524c0e28ef7ea4e1830eefb352ca54)#pr4s7wzq",
            "hex": "4104424b68d38ae9a6019c17b155c97b7ff4a9828321b3e55e6ee68fed660ff5d85984f64674c224005f629339547f292d532b524c0e28ef7ea4e1830eefb352ca54ac",
            "type": "pubkey"
          }
        }
      ],
      "hex": "01000000010000000000000000000000000000000000000000000000000000000000000000ffffffff0804ffff001d029f04ffffffff0100f2052a01000000434104424b68d38ae9a6019c17b155c97b7ff4a9828321b3e55e6ee68fed660ff5d85984f64674c224005f629339547f292d532b524c0e28ef7ea4e1830eefb352ca54ac00000000"
    }
  ]
}