{
  "hash": "00000000939868fbee66bac335b18ee928f431d0751b9ab37a2fbb4a2ce13fba",
  "confirmations": 45827,
  "height": 7271,
  "version": 1,
  "versionHex": "00000001",
  "merkleroot": "af6217e2a8bed596b9cddf123296d6993ecc27705955a07a202d6e5747c20ad5",
  "time": 1236924330,
  "mediantime": 1236921512,
  "nonce": 1624367926,
  "bits": "1d00ffff",
  "difficulty": 1,
  "chainwork": "00000000000000000000000000000000000000000000000000001c681c681c68",
  "nTx": 1,
  "previousblockhash": "00000000ae8862260d6cafec2a633af5fab7bf73487ae8ed07e4751ef772ecd6",
  "nextblockhash": "000000000d3146efd2e47e27f519a4d224d83cfd3156b6fe751ec83a9027393e",
  "strippedsize": 216,
  "size": 216,
  "weight": 864,
  "tx": [
    {
      "txid": "af6217e2a8bed596b9cddf123296d6993ecc27705955a07a202d6e5747c20ad5",
      "hash": "af6217e2a8bed596b9cddf123296d6993ecc27705955a07a202d6e5747c20ad5",
      "version": 1,
      "size": 135,
      "vsize": 135,
      "weight": 540,
      "locktime": 0,
      "vin": [
        {
          "coinbase": "04ffff001d02df06",
          "sequence": 4294967295
        }
      ],
      "vout": [
        {
          "value": 50.0,
          "n": 0,
          "scriptPubKey": {
            "asm": "04897882f53dcce87c52712fa74ff5334f79544fe86c8ad217690d563835730fa6a87a67703ef2c7616ace72bebdf17609e69495cdbce47a60b00614e895d3a257 OP_CHECKSIG",
            "desc": "pk(04897882f53dcce87c52712fa74ff5334f79544fe86c8ad217690d563835730fa6a87a67703ef2c7616ace72bebdf17609e69495cdbce47a60b00614e895d3a257)#4wzpwatd",
            "hex": "4104897882f53dcce87c52712fa74ff5334f79544fe86c8ad217690d563835730fa6a87a67703ef2c7616ace72bebdf17609e69495cdbce47a60b00614e895d3a257ac",
            "type": "pubkey"
          }
        }
      ],
      "hex": "01000000010000000000000000000000000000000000000000000000000000000000000000ffffffff0804ffff001d02df06ffffffff0100f2052a01000000434104897882f53dcce87c52712fa74ff5334f79544fe86c8ad217690d563835730fa6a87a67703ef2c7616ace72bebdf17609e69495cdbce47a60b00614e895d3a257ac00000000"
    }
  ]
}