{
  "hash": "000000002280cc13bf8a16d13f4b2314ce0204a58637c09ceee011ed1e1c0466",
  "confirmations": 46511,
  "height": 6587,
  "version": 1,
  "versionHex": "00000001",
  "merkleroot": "10f22ddc0c5d81db0037cdaa21d1c189f34725f63e0a006d6395b52cff337508",
  "time": 1236394331,
  "mediantime": 1236390715,
  "nonce": 2941573150,
  "bits": "1d00ffff",
  "difficulty": 1,
  "chainwork": "000000000000000000000000000000000000000000000000000019bc19bc19bc",
  "nTx": 1,
  "previousblockhash": "00000000f2a0609babed82ee09155eb88ce1fd8466fe3721d76f13982e29bd00",
  "nextblockhash": "00000000004b536fdc5171605e51357a91b53f1cbdffa59448fa07c5ef07be47",
  "strippedsize": 216,
  "size": 216,
  "weight": 864,
  "tx": [
    {
      "txid": "10f22ddc0c5d81db0037cdaa21d1c189f34725f63e0a006d6395b52cff337508",
      "hash": "10f22ddc0c5d81db0037cdaa21d1c189f34725f63e0a006d6395b52cff337508",
      "version": 1,
      "size": 135,
      "vsize": 135,
      "weight": 540,
      "locktime": 0,
      "vin": [
        {
          "coinbase": "04ffff001d02e004",
          "sequence": 4294967295
        }
      ],
      "vout": [
        {
          "value": 50.0,
          "n": 0,
          "scriptPubKey": {
            "asm": "04dc11cede5a9b5952923af632a1c61a643a1310b4f25108d790d7f2690398e6f79dd54ce1e0904fd8ea178e4a8ad7e68d0712703123dc0a1f9d3d046b56737ba8 OP_CHECKSIG",
            "desc": "pk(04dc11cede5a9b5952923af632a1c61a643a1310b4f25108d790d7f2690398e6f79dd54ce1e0904fd8ea178e4a8ad7e68d0712703123dc0a1f9d3d046b56737ba8)#8cnxnz3p",
            "hex": "4104dc11cede5a9b5952923af632a1c61a643a1310b4f25108d790d7f2690398e6f79dd54ce1e0904fd8ea178e4a8ad7e68d0712703123dc0a1f9d3d046b56737ba8ac",
            "type": "pubkey"
          }
        }
      ],
      "hex": "01000000010000000000000000000000000000000000000000000000000000000000000000ffffffff0804ffff001d02e004ffffffff0100f2052a01000000434104dc11cede5a9b5952923af632a1c61a643a1310b4f25108d790d7f2690398e6f79dd54ce1e0904fd8ea178e4a8ad7e68d0712703123dc0a1f9d3d046b56737ba8ac00000000"
    }
  ]
}