{
  "hash": "00000000adee5d7e2d3fd6b4b2d44f1bea1d1342d1dab9db7441b782383fa3bd",
  "confirmations": 45990,
  "height": 7108,
  "version": 1,
  "versionHex": "00000001",
  "merkleroot": "e7082ef7505d0a19440de8101c6a00c278af482dc2a27f2eefb81c0f36dab36c",
  "time": 1236804211,
  "mediantime": 1236798900,
  "nonce": 1278348580,
  "bits": "1d00ffff",
  "difficulty": 1,
  "chainwork": "00000000000000000000000000000000000000000000000000001bc51bc51bc5",
  "nTx": 1,
  "previousblockhash": "000000006298b2185338010a1ecb305b7197071a1a0ca5c5b31a3f9bb4af4927",
  "nextblockhash": "000000002a555569598406c445badcbcf4af893f20d4c6d2c238802c53436511",
  "strippedsize": 216,
  "size": 216,
  "weight": 864,
  "tx": [
    {
      "txid": "e7082ef7505d0a19440de8101c6a00c278af482dc2a27f2eefb81c0f36dab36c",
      "hash": "e7082ef7505d0a19440de8101c6a00c278af482dc2a27f2eefb81c0f36dab36c",
      "version": 1,
      "size": 135,
      "vsize": 135,
      "weight": 540,
      "locktime": 0,
      "vin": [
        {
          "coinbase": "04ffff001d021104",
          "sequence": 4294967295
        }
      ],
      "vout": [
        {
          "value": 50.0,
          "n": 0,
          "scriptPubKey": {
            "asm": "04ef0b1ac2598931135adadc144d953641122836800fa93e4aeef744464ad0da4aad41ea3422096d557e564a832e4f2b8cd408644ab73697fb75f055bbff18bdfe OP_CHECKSIG",
            "desc": "pk(04ef0b1ac2598931135adadc144d953641122836800fa93e4aeef744464ad0da4aad41ea3422096d557e564a832e4f2b8cd408644ab73697fb75f055bbff18bdfe)#gfaqrhng",
            "hex": "4104ef0b1ac2598931135adadc144d953641122836800fa93e4aeef744464ad0da4aad41ea3422096d557e564a832e4f2b8cd408644ab73697fb75f055bbff18bdfeac",
            "type": "pubkey"
          }
        }
      ],
      "hex": "01000000010000000000000000000000000000000000000000000000000000000000000000ffffffff0804ffff001d021104ffffffff0100f2052a01000000434104ef0b1ac2598931135adadc144d953641122836800fa93e4aeef744464ad0da4aad41ea3422096d557e564a832e4f2b8cd408644ab73697fb75f055bbff18bdfeac00000000"
    }
  ]
}