{
  "hash": "00000000ec450b5fcda1012a7f550b95942a3286b6e417b18bdd90e6e36bf79c",
  "confirmations": 47962,
  "height": 5136,
  "version": 1,
  "versionHex": "00000001",
  "merkleroot": "3c13f2f804738bf12b64c5562f16998d8824e8e37afa7962d217af3a6d14d13a",
  "time": 1235241691,
  "mediantime": 1235237875,
  "nonce": 2807382562,
  "bits": "1d00ffff",
  "difficulty": 1,
  "chainwork": "0000000000000000000000000000000000000000000000000000141114111411",
  "nTx": 1,
  "previousblockhash": "00000000fbeae012f28497609cf08e838a99797c2f151c11ea6af623914d0879",
  "nextblockhash": "000000009d2fd5533a9775da3723e39226b9658e7f373e41aef7755530ac3f57",
  "strippedsize": 216,
  "size": 216,
  "weight": 864,
  "tx": [
    {
      "txid": "3c13f2f804738bf12b64c5562f16998d8824e8e37afa7962d217af3a6d14d13a",
      "hash": "3c13f2f804738bf12b64c5562f16998d8824e8e37afa7962d217af3a6d14d13a",
      "version": 1,
      "size": 135,
      "vsize": 135,
      "weight": 540,
      "locktime": 0,
      "vin": [
        {
          "coinbase": "04ffff001d02a809",
          "sequence": 4294967295
        }
      ],
      "vout": [
        {
          "value": 50.0,
          "n": 0,
          "scriptPubKey": {
            "asm": "0413d5255af4a4d5554114197e3148bb2fdf3b8430558deb81daa8b20f251937ceb76f2c933b6f5895c5d7f8c016162740a817209fffc3bb0f5bfb36e8cc8d5871 OP_CHECKSIG",
            "desc": "pk(0413d5255af4a4d5554114197e3148bb2fdf3b8430558deb81daa8b20f251937ceb76f2c933b6f5895c5d7f8c016162740a817209fffc3bb0f5bfb36e8cc8d5871)#se08n3ex",
            "hex": "410413d5255af4a4d5554114197e3148bb2fdf3b8430558deb81daa8b20f251937ceb76f2c933b6f5895c5d7f8c016162740a817209fffc3bb0f5bfb36e8cc8d5871ac",
            "type": "pubkey"
          }
        }
      ],
      "hex": "01000000010000000000000000000000000000000000000000000000000000000000000000ffffffff0804ffff001d02a809ffffffff0100f2052a0100000043410413d5255af4a4d5554114197e3148bb2fdf3b8430558deb81daa8b20f251937ceb76f2c933b6f5895c5d7f8c016162740a817209fffc3bb0f5bfb36e8cc8d5871ac00000000"
    }
  ]
}