{
  "hash": "00000000c2eb520c2882aecab730a6673f1c7c9180d2a9312f8a8b4bae23b6b1",
  "confirmations": 43246,
  "height": 9852,
  "version": 1,
  "versionHex": "00000001",
  "merkleroot": "dc92fbaece877681c09b94573aa00c8fea8fba78db8a0ad490992bd0ffcda983",
  "time": 1238894197,
  "mediantime": 1238889104,
  "nonce": 2295724838,
  "bits": "1d00ffff",
  "difficulty": 1,
  "chainwork": "0000000000000000000000000000000000000000000000000000267d267d267d",
  "nTx": 1,
  "previousblockhash": "0000000051be16bf62e194368722b6a18063d6183bc4fcd382cf4d3c95604c05",
  "nextblockhash": "00000000d0a62503184328056dce83fb5f11fc41efc2ae6a939399268093502a",
  "strippedsize": 216,
  "size": 216,
  "weight": 864,
  "tx": [
    {
      "txid": "dc92fbaece877681c09b94573aa00c8fea8fba78db8a0ad490992bd0ffcda983",
      "hash": "dc92fbaece877681c09b94573aa00c8fea8fba78db8a0ad490992bd0ffcda983",
      "version": 1,
      "size": 135,
      "vsize": 135,
      "weight": 540,
      "locktime": 0,
      "vin": [
        {
          "coinbase": "04ffff001d024a01",
          "sequence": 4294967295
        }
      ],
      "vout": [
        {
          "value": 50.0,
          "n": 0,
          "scriptPubKey": {
            "asm": "0461f991153ca210f6d1d352041e2070091ae38446bf880e8dda6c3a9c9f49ffe5ae9027d74ba4e34c1f59b40e008aeaa3ea14d20a50a5c237124dab36ad6685d4 OP_CHECKSIG",
            "desc": "pk(0461f991153ca210f6d1d352041e2070091ae38446bf880e8dda6c3a9c9f49ffe5ae9027d74ba4e34c1f59b40e008aeaa3ea14d20a50a5c237124dab36ad6685d4)#gs7c3mgp",
            "hex": "410461f991153ca210f6d1d352041e2070091ae38446bf880e8dda6c3a9c9f49ffe5ae9027d74ba4e34c1f59b40e008aeaa3ea14d20a50a5c237124dab36ad6685d4ac",
            "type": "pubkey"
          }
        }
      ],
      "hex": "01000000010000000000000000000000000000000000000000000000000000000000000000ffffffff0804ffff001d024a01ffffffff0100f2052a0100000043410461f991153ca210f6d1d352041e2070091ae38446bf880e8dda6c3a9c9f49ffe5ae9027d74ba4e34c1f59b40e008aeaa3ea14d20a50a5c237124dab36ad6685d4ac00000000"
    }
  ]
}