{
  "hash": "00000000c8df594d03f06d5adf5125cec94332150dfb80ba7faa2526e13cdd42",
  "confirmations": 43995,
  "height": 9103,
  "version": 1,
  "versionHex": "00000001",
  "merkleroot": "cd3ed9f0a23cecbacd668b6af311c28a27728e8a89897b15a50ed0519f69dd2f",
  "time": 1238332208,
  "mediantime": 1238328753,
  "nonce": 20804318,
  "bits": "1d00ffff",
  "difficulty": 1,
  "chainwork": "0000000000000000000000000000000000000000000000000000239023902390",
  "nTx": 1,
  "previousblockhash": "0000000002970357b555144ee840b0bdcd0a1279e1baa839a97ad7fc59ece030",
  "nextblockhash": "00000000348a6c03161a7b7c036f52689d07552bb6dd4c2b3ccf018f2a76627e",
  "strippedsize": 216,
  "size": 216,
  "weight": 864,
  "tx": [
    {
      "txid": "cd3ed9f0a23cecbacd668b6af311c28a27728e8a89897b15a50ed0519f69dd2f",
      "hash": "cd3ed9f0a23cecbacd668b6af311c28a27728e8a89897b15a50ed0519f69dd2f",
      "version": 1,
      "size": 135,
      "vsize": 135,
      "weight": 540,
      "locktime": 0,
      "vin": [
        {
          "coinbase": "04ffff001d02f607",
          "sequence": 4294967295
        }
      ],
      "vout": [
        {
          "value": 50.0,
          "n": 0,
          "scriptPubKey": {
            "asm": "0448b87adb81437a43b44854d29878271d58457dc919bec92049d9b880b0bfaa4ac10286c2f7e639dc0b4111b98fb21167522e8cd00f33c4f8e1dec1941ca8e849 OP_CHECKSIG",
            "desc": "pk(0448b87adb81437a43b44854d29878271d58457dc919bec92049d9b880b0bfaa4ac10286c2f7e639dc0b4111b98fb21167522e8cd00f33c4f8e1dec1941ca8e849)#u5ae0tye",
            "hex": "410448b87adb81437a43b44854d29878271d58457dc919bec92049d9b880b0bfaa4ac10286c2f7e639dc0b4111b98fb21167522e8cd00f33c4f8e1dec1941ca8e849ac",
            "type": "pubkey"
          }
        }
      ],
      "hex": "01000000010000000000000000000000000000000000000000000000000000000000000000ffffffff0804ffff001d02f607ffffffff0100f2052a0100000043410448b87adb81437a43b44854d29878271d58457dc919bec92049d9b880b0bfaa4ac10286c2f7e639dc0b4111b98fb21167522e8cd00f33c4f8e1dec1941ca8e849ac00000000"
    }
  ]
}