{
  "hash": "00000000509137829bac76e336618e21ab34d34f23d8b73c4699854bcc557afc",
  "confirmations": 52057,
  "height": 279,
  "version": 1,
  "versionHex": "00000001",
  "merkleroot": "5702928a472bcf4818940fb65575c9d2819ab840005ab998fa17b1741ed86357",
  "time": 1231816169,
  "mediantime": 1231811622,
  "nonce": 2547523612,
  "bits": "1d00ffff",
  "difficulty": 1,
  "chainwork": "0000000000000000000000000000000000000000000000000000011801180118",
  "nTx": 1,
  "previousblockhash": "0000000060070572bf6b7516ab5d89dd50168ee7994d960057303e3bb838f08a",
  "nextblockhash": "00000000b7686b0bbdcdbbc233c818e60afd3a62564ec7a672836d609b50c718",
  "strippedsize": 215,
  "size": 215,
  "weight": 860,
  "tx": [
    {
      "txid": "5702928a472bcf4818940fb65575c9d2819ab840005ab998fa17b1741ed86357",
      "hash": "5702928a472bcf4818940fb65575c9d2819ab840005ab998fa17b1741ed86357",
      "version": 1,
      "size": 134,
      "vsize": 134,
      "weight": 536,
      "locktime": 0,
      "vin": [
        {
          "coinbase": "04ffff001d0108",
          "sequence": 4294967295
        }
      ],
      "vout": [
        {
          "value": 50.0,
          "n": 0,
          "scriptPubKey": {
            "asm": "044b5ac75f9e18386270fb4a2fdad1e7f8cefb9a4a2f6e0070e06f230595a78c069390cc3cf13796dc9805f6a41e1103ceb9c667da456b57bf2e322d43524194e3 OP_CHECKSIG",
            "desc": "pk(044b5ac75f9e18386270fb4a2fdad1e7f8cefb9a4a2f6e0070e06f230595a78c069390cc3cf13796dc9805f6a41e1103ceb9c667da456b57bf2e322d43524194e3)#qmae4j7v",
            "hex": "41044b5ac75f9e18386270fb4a2fdad1e7f8cefb9a4a2f6e0070e06f230595a78c069390cc3cf13796dc9805f6a41e1103ceb9c667da456b57bf2e322d43524194e3ac",
            "type": "pubkey"
          }
        }
      ],
      "hex": "01000000010000000000000000000000000000000000000000000000000000000000000000ffffffff0704ffff001d0108ffffffff0100f2052a010000004341044b5ac75f9e18386270fb4a2fdad1e7f8cefb9a4a2f6e0070e06f230595a78c069390cc3cf13796dc9805f6a41e1103ceb9c667da456b57bf2e322d43524194e3ac00000000"
    }
  ]
}