{
  "hash": "00000000147af18d29249f5c9eed6c2f38c9f8ab4fe48d0e7b84cc9f411def02",
  "confirmations": 51621,
  "height": 1477,
  "version": 1,
  "versionHex": "00000001",
  "merkleroot": "6a3d1f03780a43c2e4dea1fed60a540919e6629b60788f0a172c6962d634c666",
  "time": 1232758347,
  "mediantime": 1232755814,
  "nonce": 3094870836,
  "bits": "1d00ffff",
  "difficulty": 1,
  "chainwork": "000000000000000000000000000000000000000000000000000005c605c605c6",
  "nTx": 1,
  "previousblockhash": "00000000772c87d06808e98d88a78e03cad08198276062da4face95c6bb16e04",
  "nextblockhash": "00000000fccc14ebbe230e2bd9f5cfaa0130826c8aeed79aeb530df1c5f4320c",
  "strippedsize": 216,
  "size": 216,
  "weight": 864,
  "tx": [
    {
      "txid": "6a3d1f03780a43c2e4dea1fed60a540919e6629b60788f0a172c6962d634c666",
      "hash": "6a3d1f03780a43c2e4dea1fed60a540919e6629b60788f0a172c6962d634c666",
      "version": 1,
      "size": 135,
      "vsize": 135,
      "weight": 540,
      "locktime": 0,
      "vin": [
        {
          "coinbase": "04ffff001d02f100",
          "sequence": 4294967295
        }
      ],
      "vout": [
        {
          "value": 50.0,
          "n": 0,
          "scriptPubKey": {
            "asm": "046ed5db9e2ec9a1cd73e3c089dd0776d8e785b4bab40dd03228632a87be96c8c441ec985483ad7c16d079a0f97a7034fa984dbd2559decdcf8f63289e9c068f40 OP_CHECKSIG",
            "desc": "pk(046ed5db9e2ec9a1cd73e3c089dd0776d8e785b4bab40dd03228632a87be96c8c441ec985483ad7c16d079a0f97a7034fa984dbd2559decdcf8f63289e9c068f40)#lupcn4wk",
            "hex": "41046ed5db9e2ec9a1cd73e3c089dd0776d8e785b4bab40dd03228632a87be96c8c441ec985483ad7c16d079a0f97a7034fa984dbd2559decdcf8f63289e9c068f40ac",
            "type": "pubkey"
          }
        }
      ],
      "hex": "01000000010000000000000000000000000000000000000000000000000000000000000000ffffffff0804ffff001d02f100ffffffff0100f2052a010000004341046ed5db9e2ec9a1cd73e3c089dd0776d8e785b4bab40dd03228632a87be96c8c441ec985483ad7c16d079a0f97a7034fa984dbd2559decdcf8f63289e9c068f40ac00000000"
    }
  ]
}