{
  "hash": "00000000f66b5cec27ccfd92c190803a556b4c0341622eb8340c13fc62cb6265",
  "confirmations": 46844,
  "height": 6254,
  "version": 1,
  "versionHex": "00000001",
  "merkleroot": "ef943d2d0540990b66404306126cc83f606b64a9a799ecd1f1322eb265283678",
  "time": 1236135322,
  "mediantime": 1236130570,
  "nonce": 3972463410,
  "bits": "1d00ffff",
  "difficulty": 1,
  "chainwork": "0000000000000000000000000000000000000000000000000000186f186f186f",
  "nTx": 1,
  "previousblockhash": "000000001d092804b3398f698a251344220679988fdb0e8ea986343a23897f8b",
  "nextblockhash": "00000000a08c6cbcd6c90029c8130ad54eccf7472f2abd2d3f4312624fc8d40f",
  "strippedsize": 216,
  "size": 216,
  "weight": 864,
  "tx": [
    {
      "txid": "ef943d2d0540990b66404306126cc83f606b64a9a799ecd1f1322eb265283678",
      "hash": "ef943d2d0540990b66404306126cc83f606b64a9a799ecd1f1322eb265283678",
      "version": 1,
      "size": 135,
      "vsize": 135,
      "weight": 540,
      "locktime": 0,
      "vin": [
        {
          "coinbase": "04ffff001d02a209",
          "sequence": 4294967295
        }
      ],
      "vout": [
        {
          "value": 50.0,
          "n": 0,
          "scriptPubKey": {
            "asm": "04b8fd4a34b80faceb74459a41d3c0f5c63ec6d6cb6edda555d324c2a45864c020baa62a53b856ad221663c6359fc0938dd86443cb82750b58b7ca4204523f11a9 OP_CHECKSIG",
            "desc": "pk(04b8fd4a34b80faceb74459a41d3c0f5c63ec6d6cb6edda555d324c2a45864c020baa62a53b856ad221663c6359fc0938dd86443cb82750b58b7ca4204523f11a9)#6csl8nsn",
            "hex": "4104b8fd4a34b80faceb74459a41d3c0f5c63ec6d6cb6edda555d324c2a45864c020baa62a53b856ad221663c6359fc0938dd86443cb82750b58b7ca4204523f11a9ac",
            "type": "pubkey"
          }
        }
      ],
      "hex": "01000000010000000000000000000000000000000000000000000000000000000000000000ffffffff0804ffff001d02a209ffffffff0100f2052a01000000434104b8fd4a34b80faceb74459a41d3c0f5c63ec6d6cb6edda555d324c2a45864c020baa62a53b856ad221663c6359fc0938dd86443cb82750b58b7ca4204523f11a9ac00000000"
    }
  ]
}