{
  "hash": "000000003cc13c075db46335d860d9e7eb559157d0a7696675799979363c7c39",
  "confirmations": 49763,
  "height": 3335,
  "version": 1,
  "versionHex": "00000001",
  "merkleroot": "4087621faf3d364435c6c846980abd820b4a4295dd68e23c576c146f3946e2b5",
  "time": 1233990024,
  "mediantime": 1233987408,
  "nonce": 2689739833,
  "bits": "1d00ffff",
  "difficulty": 1,
  "chainwork": "00000000000000000000000000000000000000000000000000000d080d080d08",
  "nTx": 1,
  "previousblockhash": "0000000012c0d2d7bdb9f16c2fef39bec4b7fc84e117e21d7a8aed23e444fc9e",
  "nextblockhash": "00000000320110c4f08cd2b28ff27d541ef926aaaf2a6a0c08e9b336867da8a2",
  "strippedsize": 216,
  "size": 216,
  "weight": 864,
  "tx": [
    {
      "txid": "4087621faf3d364435c6c846980abd820b4a4295dd68e23c576c146f3946e2b5",
      "hash": "4087621faf3d364435c6c846980abd820b4a4295dd68e23c576c146f3946e2b5",
      "version": 1,
      "size": 135,
      "vsize": 135,
      "weight": 540,
      "locktime": 0,
      "vin": [
        {
          "coinbase": "04ffff001d02d904",
          "sequence": 4294967295
        }
      ],
      "vout": [
        {
          "value": 50.0,
          "n": 0,
          "scriptPubKey": {
            "asm": "048b751bdcf3cef648093c9891e0f56fd6284db047bdc8530d4f1417c83387b365a14f4e7d381c636989a64e7a3e979cdf4f39030c22289650613941d6cccda530 OP_CHECKSIG",
            "desc": "pk(048b751bdcf3cef648093c9891e0f56fd6284db047bdc8530d4f1417c83387b365a14f4e7d381c636989a64e7a3e979cdf4f39030c22289650613941d6cccda530)#zjywmuca",
            "hex": "41048b751bdcf3cef648093c9891e0f56fd6284db047bdc8530d4f1417c83387b365a14f4e7d381c636989a64e7a3e979cdf4f39030c22289650613941d6cccda530ac",
            "type": "pubkey"
          }
        }
      ],
      "hex": "01000000010000000000000000000000000000000000000000000000000000000000000000ffffffff0804ffff001d02d904ffffffff0100f2052a010000004341048b751bdcf3cef648093c9891e0f56fd6284db047bdc8530d4f1417c83387b365a14f4e7d381c636989a64e7a3e979cdf4f39030c22289650613941d6cccda530ac00000000"
    }
  ]
}