{
  "hash": "0000000040ad5982384733ca14e235a6804d310646e0f53e1f9fa9919101eb40",
  "confirmations": 48108,
  "height": 4990,
  "version": 1,
  "versionHex": "00000001",
  "merkleroot": "4642bf891647ce0d0efe4194bfc4bc1f98197b567adc2e96230d7171d68a6a48",
  "time": 1235131840,
  "mediantime": 1235130254,
  "nonce": 1098894382,
  "bits": "1d00ffff",
  "difficulty": 1,
  "chainwork": "0000000000000000000000000000000000000000000000000000137f137f137f",
  "nTx": 1,
  "previousblockhash": "000000005e7b8a93fc0b3a92f6a71382431519a6650b0609c3bf40fb539e8020",
  "nextblockhash": "00000000fa413253e1d30ff687f239b528330c810e3de86e42a538175682599d",
  "strippedsize": 216,
  "size": 216,
  "weight": 864,
  "tx": [
    {
      "txid": "4642bf891647ce0d0efe4194bfc4bc1f98197b567adc2e96230d7171d68a6a48",
      "hash": "4642bf891647ce0d0efe4194bfc4bc1f98197b567adc2e96230d7171d68a6a48",
      "version": 1,
      "size": 135,
      "vsize": 135,
      "weight": 540,
      "locktime": 0,
      "vin": [
        {
          "coinbase": "04ffff001d02e406",
          "sequence": 4294967295
        }
      ],
      "vout": [
        {
          "value": 50.0,
          "n": 0,
          "scriptPubKey": {
            "asm": "04e94f1ad00c0ca5bf2f29cf951904e5588e04e52055b76d040731ca37ee0c8b32383e58f701fabba4289197a75f0628f1f5f0cdeb9f2d6c0b38ad34f96b2ddc18 OP_CHECKSIG",
            "desc": "pk(04e94f1ad00c0ca5bf2f29cf951904e5588e04e52055b76d040731ca37ee0c8b32383e58f701fabba4289197a75f0628f1f5f0cdeb9f2d6c0b38ad34f96b2ddc18)#em8w6amz",
            "hex": "4104e94f1ad00c0ca5bf2f29cf951904e5588e04e52055b76d040731ca37ee0c8b32383e58f701fabba4289197a75f0628f1f5f0cdeb9f2d6c0b38ad34f96b2ddc18ac",
            "type": "pubkey"
          }
        }
      ],
      "hex": "01000000010000000000000000000000000000000000000000000000000000000000000000ffffffff0804ffff001d02e406ffffffff0100f2052a01000000434104e94f1ad00c0ca5bf2f29cf951904e5588e04e52055b76d040731ca37ee0c8b32383e58f701fabba4289197a75f0628f1f5f0cdeb9f2d6c0b38ad34f96b2ddc18ac00000000"
    }
  ]
}