{
  "hash": "00000000fc3a0b1bf610cf5c44b5c21d90e1d2d278eb5bdd46a59c5ae4c3980d",
  "confirmations": 48405,
  "height": 4693,
  "version": 1,
  "versionHex": "00000001",
  "merkleroot": "68de7a2292ab41474c5567da10538286df8385aeea4743b2b71169f3c6f3c4c9",
  "time": 1234922287,
  "mediantime": 1234918409,
  "nonce": 2187158069,
  "bits": "1d00ffff",
  "difficulty": 1,
  "chainwork": "0000000000000000000000000000000000000000000000000000125612561256",
  "nTx": 1,
  "previousblockhash": "0000000094493ae92f6d93f80c7f08357f1e274ae306d7a54d30d84740d0310c",
  "nextblockhash": "000000006b2b6b9681bf01f3151e2cdf0e7bec99d44776564e3a568eee83dc2a",
  "strippedsize": 216,
  "size": 216,
  "weight": 864,
  "tx": [
    {
      "txid": "68de7a2292ab41474c5567da10538286df8385aeea4743b2b71169f3c6f3c4c9",
      "hash": "68de7a2292ab41474c5567da10538286df8385aeea4743b2b71169f3c6f3c4c9",
      "version": 1,
      "size": 135,
      "vsize": 135,
      "weight": 540,
      "locktime": 0,
      "vin": [
        {
          "coinbase": "04ffff001d026602",
          "sequence": 4294967295
        }
      ],
      "vout": [
        {
          "value": 50.0,
          "n": 0,
          "scriptPubKey": {
            "asm": "04dd1f097d12b5468aadd9ff753f202e3030d8b7d1c8bb07a0e1c1c5cea2397984cfbc4cf2d33339426cab65f3cf13fdd62f8426bc8c8707ffc25ff9f65ac1957f OP_CHECKSIG",
            "desc": "pk(04dd1f097d12b5468aadd9ff753f202e3030d8b7d1c8bb07a0e1c1c5cea2397984cfbc4cf2d33339426cab65f3cf13fdd62f8426bc8c8707ffc25ff9f65ac1957f)#tea0fsf6",
            "hex": "4104dd1f097d12b5468aadd9ff753f202e3030d8b7d1c8bb07a0e1c1c5cea2397984cfbc4cf2d33339426cab65f3cf13fdd62f8426bc8c8707ffc25ff9f65ac1957fac",
            "type": "pubkey"
          }
        }
      ],
      "hex": "01000000010000000000000000000000000000000000000000000000000000000000000000ffffffff0804ffff001d026602ffffffff0100f2052a01000000434104dd1f097d12b5468aadd9ff753f202e3030d8b7d1c8bb07a0e1c1c5cea2397984cfbc4cf2d33339426cab65f3cf13fdd62f8426bc8c8707ffc25ff9f65ac1957fac00000000"
    }
  ]
}