{
  "hash": "000000009975020177159ac40e2efdffb50ba7b52d10d2f1ae00b8868bbfa3b9",
  "confirmations": 49024,
  "height": 4074,
  "version": 1,
  "versionHex": "00000001",
  "merkleroot": "2655d62c10476bac986d88b9a730eee227c033dfae1966138792eb58415f300d",
  "time": 1234493759,
  "mediantime": 1234490992,
  "nonce": 267591433,
  "bits": "1d00ffff",
  "difficulty": 1,
  "chainwork": "00000000000000000000000000000000000000000000000000000feb0feb0feb",
  "nTx": 1,
  "previousblockhash": "000000001a17e13f054dc1bcef167f524c01f1c5cf10da513f728a4cfdf697cb",
  "nextblockhash": "00000000e7b1552835a7b26bc8ef39ce021cbf4d3463ab63a636f43eadd839c6",
  "strippedsize": 216,
  "size": 216,
  "weight": 864,
  "tx": [
    {
      "txid": "2655d62c10476bac986d88b9a730eee227c033dfae1966138792eb58415f300d",
      "hash": "2655d62c10476bac986d88b9a730eee227c033dfae1966138792eb58415f300d",
      "version": 1,
      "size": 135,
      "vsize": 135,
      "weight": 540,
      "locktime": 0,
      "vin": [
        {
          "coinbase": "04ffff001d02a401",
          "sequence": 4294967295
        }
      ],
      "vout": [
        {
          "value": 50.0,
          "n": 0,
          "scriptPubKey": {
            "asm": "0442ac82defb2738518f5c74907eb7102897c4065a0f8a0939e4d630ec75353e2febb474e82195e8e6c7301992e63dbcc73cd0b4ea143766fd9d7281aece08a955 OP_CHECKSIG",
            "desc": "pk(0442ac82defb2738518f5c74907eb7102897c4065a0f8a0939e4d630ec75353e2febb474e82195e8e6c7301992e63dbcc73cd0b4ea143766fd9d7281aece08a955)#8nzu649g",
            "hex": "410442ac82defb2738518f5c74907eb7102897c4065a0f8a0939e4d630ec75353e2febb474e82195e8e6c7301992e63dbcc73cd0b4ea143766fd9d7281aece08a955ac",
            "type": "pubkey"
          }
        }
      ],
      "hex": "01000000010000000000000000000000000000000000000000000000000000000000000000ffffffff0804ffff001d02a401ffffffff0100f2052a0100000043410442ac82defb2738518f5c74907eb7102897c4065a0f8a0939e4d630ec75353e2febb474e82195e8e6c7301992e63dbcc73cd0b4ea143766fd9d7281aece08a955ac00000000"
    }
  ]
}