{
  "hash": "000000006b2b6b9681bf01f3151e2cdf0e7bec99d44776564e3a568eee83dc2a",
  "confirmations": 48404,
  "height": 4694,
  "version": 1,
  "versionHex": "00000001",
  "merkleroot": "7c8a73239be8e57a6bbb193a6ad226ee2b2779ba7ebbec404b584418c0fb722f",
  "time": 1234922994,
  "mediantime": 1234919795,
  "nonce": 3723021096,
  "bits": "1d00ffff",
  "difficulty": 1,
  "chainwork": "0000000000000000000000000000000000000000000000000000125712571257",
  "nTx": 1,
  "previousblockhash": "00000000fc3a0b1bf610cf5c44b5c21d90e1d2d278eb5bdd46a59c5ae4c3980d",
  "nextblockhash": "00000000b8314d4d94ad5b613e77aa99f21b515ff64d5c18265e7eb4afa1f4bf",
  "strippedsize": 216,
  "size": 216,
  "weight": 864,
  "tx": [
    {
      "txid": "7c8a73239be8e57a6bbb193a6ad226ee2b2779ba7ebbec404b584418c0fb722f",
      "hash": "7c8a73239be8e57a6bbb193a6ad226ee2b2779ba7ebbec404b584418c0fb722f",
      "version": 1,
      "size": 135,
      "vsize": 135,
      "weight": 540,
      "locktime": 0,
      "vin": [
        {
          "coinbase": "04ffff001d026f02",
          "sequence": 4294967295
        }
      ],
      "vout": [
        {
          "value": 50.0,
          "n": 0,
          "scriptPubKey": {
            "asm": "0412e4ae683fab0e181b4132afef32320d3237145c330c8436edfd3a582107fee2fb6a1f85b7eafff93ff9dffd09db0794db8c778ea605fb1ba1282de6c1ad5a33 OP_CHECKSIG",
            "desc": "pk(0412e4ae683fab0e181b4132afef32320d3237145c330c8436edfd3a582107fee2fb6a1f85b7eafff93ff9dffd09db0794db8c778ea605fb1ba1282de6c1ad5a33)#vsq72eas",
            "hex": "410412e4ae683fab0e181b4132afef32320d3237145c330c8436edfd3a582107fee2fb6a1f85b7eafff93ff9dffd09db0794db8c778ea605fb1ba1282de6c1ad5a33ac",
            "type": "pubkey"
          }
        }
      ],
      "hex": "01000000010000000000000000000000000000000000000000000000000000000000000000ffffffff0804ffff001d026f02ffffffff0100f2052a0100000043410412e4ae683fab0e181b4132afef32320d3237145c330c8436edfd3a582107fee2fb6a1f85b7eafff93ff9dffd09db0794db8c778ea605fb1ba1282de6c1ad5a33ac00000000"
    }
  ]
}