{
  "hash": "0000000054c9c7fa5bde77cf1eb5b0bc398a5de9ab2886838564f1be68ce26e7",
  "confirmations": 47621,
  "height": 5477,
  "version": 1,
  "versionHex": "00000001",
  "merkleroot": "3bf206e8b8cac163771b69bece2ea7b9e4f1cfa62e334ec99c1ae1e0afd16d7a",
  "time": 1235502354,
  "mediantime": 1235498878,
  "nonce": 1312334114,
  "bits": "1d00ffff",
  "difficulty": 1,
  "chainwork": "0000000000000000000000000000000000000000000000000000156615661566",
  "nTx": 1,
  "previousblockhash": "000000004a00af1c6e98a43a9e0d46d21cd5cbbf352ba4fa7b78ddbcc8dfed17",
  "nextblockhash": "00000000e6e8e61bfcf9702db23056966c62536890ad0b4bba6864ad915efa5d",
  "strippedsize": 216,
  "size": 216,
  "weight": 864,
  "tx": [
    {
      "txid": "3bf206e8b8cac163771b69bece2ea7b9e4f1cfa62e334ec99c1ae1e0afd16d7a",
      "hash": "3bf206e8b8cac163771b69bece2ea7b9e4f1cfa62e334ec99c1ae1e0afd16d7a",
      "version": 1,
      "size": 135,
      "vsize": 135,
      "weight": 540,
      "locktime": 0,
      "vin": [
        {
          "coinbase": "04ffff001d022005",
          "sequence": 4294967295
        }
      ],
      "vout": [
        {
          "value": 50.0,
          "n": 0,
          "scriptPubKey": {
            "asm": "0410bc9112a68a74babfb4facfb68f5e6be74d654fa2262f7723f886bb852de3e9f88ff49ff03c4266191ec4e82467554092195358d1846426b3e952a819cedfa0 OP_CHECKSIG",
            "desc": "pk(0410bc9112a68a74babfb4facfb68f5e6be74d654fa2262f7723f886bb852de3e9f88ff49ff03c4266191ec4e82467554092195358d1846426b3e952a819cedfa0)#9zpqzvkg",
            "hex": "410410bc9112a68a74babfb4facfb68f5e6be74d654fa2262f7723f886bb852de3e9f88ff49ff03c4266191ec4e82467554092195358d1846426b3e952a819cedfa0ac",
            "type": "pubkey"
          }
        }
      ],
      "hex": "01000000010000000000000000000000000000000000000000000000000000000000000000ffffffff0804ffff001d022005ffffffff0100f2052a0100000043410410bc9112a68a74babfb4facfb68f5e6be74d654fa2262f7723f886bb852de3e9f88ff49ff03c4266191ec4e82467554092195358d1846426b3e952a819cedfa0ac00000000"
    }
  ]
}