{
  "hash": "000000007dea7650bc2fa9b3da3aca691b286b4227ca4a3cc8d430c988457636",
  "confirmations": 46825,
  "height": 6273,
  "version": 1,
  "versionHex": "00000001",
  "merkleroot": "438a64a611f0cd30613f6366ca19c9bdc40c85e56965d781271c0fb0b78dbd4e",
  "time": 1236149917,
  "mediantime": 1236147476,
  "nonce": 1236186155,
  "bits": "1d00ffff",
  "difficulty": 1,
  "chainwork": "0000000000000000000000000000000000000000000000000000188218821882",
  "nTx": 1,
  "previousblockhash": "0000000042cceee1092a2084d091be35de333b20953e96057ffeaf27ca558aa8",
  "nextblockhash": "000000006f1a159c96cee945b431aa2bb594017d4cbbc20f29768c5018b7f539",
  "strippedsize": 216,
  "size": 216,
  "weight": 864,
  "tx": [
    {
      "txid": "438a64a611f0cd30613f6366ca19c9bdc40c85e56965d781271c0fb0b78dbd4e",
      "hash": "438a64a611f0cd30613f6366ca19c9bdc40c85e56965d781271c0fb0b78dbd4e",
      "version": 1,
      "size": 135,
      "vsize": 135,
      "weight": 540,
      "locktime": 0,
      "vin": [
        {
          "coinbase": "04ffff001d02eb09",
          "sequence": 4294967295
        }
      ],
      "vout": [
        {
          "value": 50.0,
          "n": 0,
          "scriptPubKey": {
            "asm": "04cd5768c4d7f89fc75f02d0d7774f4eb06d5f888a57db26e70db4b1ef3eca9f512331562d5bd87354aba0eb56c1851762e23f19e631b6a3c56ca8700b761e602c OP_CHECKSIG",
            "desc": "pk(04cd5768c4d7f89fc75f02d0d7774f4eb06d5f888a57db26e70db4b1ef3eca9f512331562d5bd87354aba0eb56c1851762e23f19e631b6a3c56ca8700b761e602c)#whg5r2mx",
            "hex": "4104cd5768c4d7f89fc75f02d0d7774f4eb06d5f888a57db26e70db4b1ef3eca9f512331562d5bd87354aba0eb56c1851762e23f19e631b6a3c56ca8700b761e602cac",
            "type": "pubkey"
          }
        }
      ],
      "hex": "01000000010000000000000000000000000000000000000000000000000000000000000000ffffffff0804ffff001d02eb09ffffffff0100f2052a01000000434104cd5768c4d7f89fc75f02d0d7774f4eb06d5f888a57db26e70db4b1ef3eca9f512331562d5bd87354aba0eb56c1851762e23f19e631b6a3c56ca8700b761e602cac00000000"
    }
  ]
}