{
  "hash": "00000000877c1915ebe7d24bee5b81ecafcf1bac5890283124a3d662a50a7714",
  "confirmations": 51991,
  "height": 106,
  "version": 1,
  "versionHex": "00000001",
  "merkleroot": "18883aec5f3e6cec38520df46530f0c6b1ab35973c386922e1c4580fbb9dee80",
  "time": 1231665565,
  "mediantime": 1231661741,
  "nonce": 2687107072,
  "bits": "1d00ffff",
  "difficulty": 1,
  "chainwork": "0000000000000000000000000000000000000000000000000000006b006b006b",
  "nTx": 1,
  "previousblockhash": "00000000854d5c01c377e7ff131dbd4b3af44949c6f3126fb66eab4a3fc6b1ae",
  "nextblockhash": "000000007e16b0176d894bebf52f6ceb5dd8553831e579b50726779633a1f2eb",
  "strippedsize": 215,
  "size": 215,
  "weight": 860,
  "tx": [
    {
      "txid": "18883aec5f3e6cec38520df46530f0c6b1ab35973c386922e1c4580fbb9dee80",
      "hash": "18883aec5f3e6cec38520df46530f0c6b1ab35973c386922e1c4580fbb9dee80",
      "version": 1,
      "size": 134,
      "vsize": 134,
      "weight": 536,
      "locktime": 0,
      "vin": [
        {
          "coinbase": "04ffff001d017a",
          "sequence": 4294967295
        }
      ],
      "vout": [
        {
          "value": 50.0,
          "n": 0,
          "scriptPubKey": {
            "asm": "045695295847de164b8973b15c7e981fc7e6f2ebf224f9b92a6e53b889eb88adb0bcab956b54418c4a5074d3e766f4e887f1593de05179abc0b33c0437504e04b3 OP_CHECKSIG",
            "desc": "pk(045695295847de164b8973b15c7e981fc7e6f2ebf224f9b92a6e53b889eb88adb0bcab956b54418c4a5074d3e766f4e887f1593de05179abc0b33c0437504e04b3)#9dxyngrf",
            "hex": "41045695295847de164b8973b15c7e981fc7e6f2ebf224f9b92a6e53b889eb88adb0bcab956b54418c4a5074d3e766f4e887f1593de05179abc0b33c0437504e04b3ac",
            "type": "pubkey"
          }
        }
      ],
      "hex": "01000000010000000000000000000000000000000000000000000000000000000000000000ffffffff0704ffff001d017affffffff0100f2052a010000004341045695295847de164b8973b15c7e981fc7e6f2ebf224f9b92a6e53b889eb88adb0bcab956b54418c4a5074d3e766f4e887f1593de05179abc0b33c0437504e04b3ac00000000"
    }
  ]
}