{
  "hash": "00000000e665fdd14d417d3f38505e5199fd18000effed5da4ceb4239b46a2d8",
  "confirmations": 44264,
  "height": 8834,
  "version": 1,
  "versionHex": "00000001",
  "merkleroot": "1a7d8c2029718a81bac42a6ab4ade2f7c7272f0a519071faff8e056bdd1d2482",
  "time": 1238124115,
  "mediantime": 1238118587,
  "nonce": 1763357723,
  "bits": "1d00ffff",
  "difficulty": 1,
  "chainwork": "0000000000000000000000000000000000000000000000000000228322832283",
  "nTx": 1,
  "previousblockhash": "00000000530b1a3e3b2cd6caeec1599eb991b928fe0935b35d3acf01b4adef50",
  "nextblockhash": "00000000b31245632f9d27ba0dd4f18536b62d4e91b1590d82c8263764740841",
  "strippedsize": 216,
  "size": 216,
  "weight": 864,
  "tx": [
    {
      "txid": "1a7d8c2029718a81bac42a6ab4ade2f7c7272f0a519071faff8e056bdd1d2482",
      "hash": "1a7d8c2029718a81bac42a6ab4ade2f7c7272f0a519071faff8e056bdd1d2482",
      "version": 1,
      "size": 135,
      "vsize": 135,
      "weight": 540,
      "locktime": 0,
      "vin": [
        {
          "coinbase": "04ffff001d025603",
          "sequence": 4294967295
        }
      ],
      "vout": [
        {
          "value": 50.0,
          "n": 0,
          "scriptPubKey": {
            "asm": "0463aef267db6c302204d828205995d1080664052cae530e5d0b07250970d4794cd2bbfcbed7951e2b08c877ddf02f04eed21676daabf850e80fe9c8225f3d1d00 OP_CHECKSIG",
            "desc": "pk(0463aef267db6c302204d828205995d1080664052cae530e5d0b07250970d4794cd2bbfcbed7951e2b08c877ddf02f04eed21676daabf850e80fe9c8225f3d1d00)#mk207kxu",
            "hex": "410463aef267db6c302204d828205995d1080664052cae530e5d0b07250970d4794cd2bbfcbed7951e2b08c877ddf02f04eed21676daabf850e80fe9c8225f3d1d00ac",
            "type": "pubkey"
          }
        }
      ],
      "hex": "01000000010000000000000000000000000000000000000000000000000000000000000000ffffffff0804ffff001d025603ffffffff0100f2052a0100000043410463aef267db6c302204d828205995d1080664052cae530e5d0b07250970d4794cd2bbfcbed7951e2b08c877ddf02f04eed21676daabf850e80fe9c8225f3d1d00ac00000000"
    }
  ]
}