{
  "hash": "00000000aed372269b6a436579bf7263ca6f3dbdaeca167beb4d6e7bb5f8be48",
  "confirmations": 43317,
  "height": 9781,
  "version": 1,
  "versionHex": "00000001",
  "merkleroot": "496e40d5fd5ab3b060381784a0fa0701a92976b63008942a0702ac85cd8c75a6",
  "time": 1238843909,
  "mediantime": 1238837919,
  "nonce": 2125699102,
  "bits": "1d00ffff",
  "difficulty": 1,
  "chainwork": "0000000000000000000000000000000000000000000000000000263626362636",
  "nTx": 1,
  "previousblockhash": "00000000425264e355281f4eef35bcb7ff586cb4b258c47fd49cf157ff05ceb7",
  "nextblockhash": "00000000f2a17654fc79013aaaa16119685509933ead0c4a986dcf5c4fbc885b",
  "strippedsize": 215,
  "size": 215,
  "weight": 860,
  "tx": [
    {
      "txid": "496e40d5fd5ab3b060381784a0fa0701a92976b63008942a0702ac85cd8c75a6",
      "hash": "496e40d5fd5ab3b060381784a0fa0701a92976b63008942a0702ac85cd8c75a6",
      "version": 1,
      "size": 134,
      "vsize": 134,
      "weight": 536,
      "locktime": 0,
      "vin": [
        {
          "coinbase": "04ffff001d0104",
          "sequence": 4294967295
        }
      ],
      "vout": [
        {
          "value": 50.0,
          "n": 0,
          "scriptPubKey": {
            "asm": "0431d72336253ac7e5a6e4d3ba623f1b5636162070ffd60cf2629e9b3b6a84bebe853254c7dd7fcb398382cc03f2811fd07111049c00e746d9321c1e4fc8ae7aff OP_CHECKSIG",
            "desc": "pk(0431d72336253ac7e5a6e4d3ba623f1b5636162070ffd60cf2629e9b3b6a84bebe853254c7dd7fcb398382cc03f2811fd07111049c00e746d9321c1e4fc8ae7aff)#xzhdxndr",
            "hex": "410431d72336253ac7e5a6e4d3ba623f1b5636162070ffd60cf2629e9b3b6a84bebe853254c7dd7fcb398382cc03f2811fd07111049c00e746d9321c1e4fc8ae7affac",
            "type": "pubkey"
          }
        }
      ],
      "hex": "01000000010000000000000000000000000000000000000000000000000000000000000000ffffffff0704ffff001d0104ffffffff0100f2052a0100000043410431d72336253ac7e5a6e4d3ba623f1b5636162070ffd60cf2629e9b3b6a84bebe853254c7dd7fcb398382cc03f2811fd07111049c00e746d9321c1e4fc8ae7affac00000000"
    }
  ]
}