{
  "hash": "00000000e88527b4966a476e828e7226af310d43288b3a733b15c947053414c9",
  "confirmations": 50735,
  "height": 2363,
  "version": 1,
  "versionHex": "00000001",
  "merkleroot": "ff17520361ff276bda1167d9635a5b3e1e411eef76b2d0eb0735add738f17125",
  "time": 1233323810,
  "mediantime": 1233321007,
  "nonce": 1333766695,
  "bits": "1d00ffff",
  "difficulty": 1,
  "chainwork": "0000000000000000000000000000000000000000000000000000093c093c093c",
  "nTx": 1,
  "previousblockhash": "0000000078b21f73ec9d79df432ee2f6f4ad981d772af1b0b35842789ccc4d28",
  "nextblockhash": "00000000cafedc2f63b9f605bd03dfb7ca612b3f3500d9268a5e61a1fcdbaa96",
  "strippedsize": 216,
  "size": 216,
  "weight": 864,
  "tx": [
    {
      "txid": "ff17520361ff276bda1167d9635a5b3e1e411eef76b2d0eb0735add738f17125",
      "hash": "ff17520361ff276bda1167d9635a5b3e1e411eef76b2d0eb0735add738f17125",
      "version": 1,
      "size": 135,
      "vsize": 135,
      "weight": 540,
      "locktime": 0,
      "vin": [
        {
          "coinbase": "04ffff001d02cb02",
          "sequence": 4294967295
        }
      ],
      "vout": [
        {
          "value": 50.0,
          "n": 0,
          "scriptPubKey": {
            "asm": "04003c29a4b78b7c0d9b7c29ececc7b5e156c611a36aa035de69efb7794241c7c19f68f88f1923f65305309d2e82242eebe85048bc177897310164a043b6abf4a9 OP_CHECKSIG",
            "desc": "pk(04003c29a4b78b7c0d9b7c29ececc7b5e156c611a36aa035de69efb7794241c7c19f68f88f1923f65305309d2e82242eebe85048bc177897310164a043b6abf4a9)#xqu4n8jj",
            "hex": "4104003c29a4b78b7c0d9b7c29ececc7b5e156c611a36aa035de69efb7794241c7c19f68f88f1923f65305309d2e82242eebe85048bc177897310164a043b6abf4a9ac",
            "type": "pubkey"
          }
        }
      ],
      "hex": "01000000010000000000000000000000000000000000000000000000000000000000000000ffffffff0804ffff001d02cb02ffffffff0100f2052a01000000434104003c29a4b78b7c0d9b7c29ececc7b5e156c611a36aa035de69efb7794241c7c19f68f88f1923f65305309d2e82242eebe85048bc177897310164a043b6abf4a9ac00000000"
    }
  ]
}