{
  "hash": "000000003de1ee229e167223897b679e43b43f9a57df1195472e4b2f74cc2ad3",
  "confirmations": 51243,
  "height": 1855,
  "version": 1,
  "versionHex": "00000001",
  "merkleroot": "2abfb823c25528ba0dba392a792a00b8eced1f43ed99ffd63750ed4188588257",
  "time": 1232924068,
  "mediantime": 1232922081,
  "nonce": 1153737522,
  "bits": "1d00ffff",
  "difficulty": 1,
  "chainwork": "0000000000000000000000000000000000000000000000000000074007400740",
  "nTx": 1,
  "previousblockhash": "00000000ff6956311d1122294f29e862f2b9429133ebb66e7b7237102f481df4",
  "nextblockhash": "00000000a637ff6e13683bce30ea71cdbb508c166b1d0af90a4224da387f5bd7",
  "strippedsize": 216,
  "size": 216,
  "weight": 864,
  "tx": [
    {
      "txid": "2abfb823c25528ba0dba392a792a00b8eced1f43ed99ffd63750ed4188588257",
      "hash": "2abfb823c25528ba0dba392a792a00b8eced1f43ed99ffd63750ed4188588257",
      "version": 1,
      "size": 135,
      "vsize": 135,
      "weight": 540,
      "locktime": 0,
      "vin": [
        {
          "coinbase": "04ffff001d02b004",
          "sequence": 4294967295
        }
      ],
      "vout": [
        {
          "value": 50.0,
          "n": 0,
          "scriptPubKey": {
            "asm": "041c1f35f9884eb0efd273e1d61c64913e65cb1d10df10615b45137c4d67c7cd29d7ee01fa448c0736e007029878a9b129d8d5e16d3f6d42e83f00e74827f96cd8 OP_CHECKSIG",
            "desc": "pk(041c1f35f9884eb0efd273e1d61c64913e65cb1d10df10615b45137c4d67c7cd29d7ee01fa448c0736e007029878a9b129d8d5e16d3f6d42e83f00e74827f96cd8)#0eemxalg",
            "hex": "41041c1f35f9884eb0efd273e1d61c64913e65cb1d10df10615b45137c4d67c7cd29d7ee01fa448c0736e007029878a9b129d8d5e16d3f6d42e83f00e74827f96cd8ac",
            "type": "pubkey"
          }
        }
      ],
      "hex": "01000000010000000000000000000000000000000000000000000000000000000000000000ffffffff0804ffff001d02b004ffffffff0100f2052a010000004341041c1f35f9884eb0efd273e1d61c64913e65cb1d10df10615b45137c4d67c7cd29d7ee01fa448c0736e007029878a9b129d8d5e16d3f6d42e83f00e74827f96cd8ac00000000"
    }
  ]
}