{
  "hash": "000000008725c2ef27dc2a293c97bb446586d4aeeb1f9b62eb9f94c347bd1a76",
  "confirmations": 43925,
  "height": 9173,
  "version": 1,
  "versionHex": "00000001",
  "merkleroot": "c07539f92ee59aab8068bac6702a255b45e93968e01be2328b235ce0472b8f4a",
  "time": 1238381604,
  "mediantime": 1238377971,
  "nonce": 1900276508,
  "bits": "1d00ffff",
  "difficulty": 1,
  "chainwork": "000000000000000000000000000000000000000000000000000023d623d623d6",
  "nTx": 1,
  "previousblockhash": "0000000025bc5e1e48fa381ac934cbdf4c59345deb9fcffc7566de29da908317",
  "nextblockhash": "00000000212493fbc194d3ad6b4919eb1e5d12de5fda10b792df87d6181dbd83",
  "strippedsize": 216,
  "size": 216,
  "weight": 864,
  "tx": [
    {
      "txid": "c07539f92ee59aab8068bac6702a255b45e93968e01be2328b235ce0472b8f4a",
      "hash": "c07539f92ee59aab8068bac6702a255b45e93968e01be2328b235ce0472b8f4a",
      "version": 1,
      "size": 135,
      "vsize": 135,
      "weight": 540,
      "locktime": 0,
      "vin": [
        {
          "coinbase": "04ffff001d02be09",
          "sequence": 4294967295
        }
      ],
      "vout": [
        {
          "value": 50.0,
          "n": 0,
          "scriptPubKey": {
            "asm": "04c101319a616976f511153a719323944c1c0e8d2b5a9ab24bf760b883522182ba7d75e033b9c0a2fa20fb1510eecc507217c5dc96e88f3009534669377cc0e087 OP_CHECKSIG",
            "desc": "pk(04c101319a616976f511153a719323944c1c0e8d2b5a9ab24bf760b883522182ba7d75e033b9c0a2fa20fb1510eecc507217c5dc96e88f3009534669377cc0e087)#xjv4ghj6",
            "hex": "4104c101319a616976f511153a719323944c1c0e8d2b5a9ab24bf760b883522182ba7d75e033b9c0a2fa20fb1510eecc507217c5dc96e88f3009534669377cc0e087ac",
            "type": "pubkey"
          }
        }
      ],
      "hex": "01000000010000000000000000000000000000000000000000000000000000000000000000ffffffff0804ffff001d02be09ffffffff0100f2052a01000000434104c101319a616976f511153a719323944c1c0e8d2b5a9ab24bf760b883522182ba7d75e033b9c0a2fa20fb1510eecc507217c5dc96e88f3009534669377cc0e087ac00000000"
    }
  ]
}