{
  "hash": "00000000610283d515367cc9de93f7115af17be043833f0a52e41d2827597e9e",
  "confirmations": 52289,
  "height": 809,
  "version": 1,
  "versionHex": "00000001",
  "merkleroot": "e1b3de1de2b276e51fb7b662efb7131c451c9728a22da9be538e66e801becfb7",
  "time": 1232199992,
  "mediantime": 1232196222,
  "nonce": 136335762,
  "bits": "1d00ffff",
  "difficulty": 1,
  "chainwork": "0000000000000000000000000000000000000000000000000000032a032a032a",
  "nTx": 1,
  "previousblockhash": "000000002414cdffabf5c98a9efc4108833154356594f9121835c702ddc337d2",
  "nextblockhash": "00000000a120b4f04e84e2d2adbb5384a08c490c24b0a134739da6aa2a287b60",
  "strippedsize": 215,
  "size": 215,
  "weight": 860,
  "tx": [
    {
      "txid": "e1b3de1de2b276e51fb7b662efb7131c451c9728a22da9be538e66e801becfb7",
      "hash": "e1b3de1de2b276e51fb7b662efb7131c451c9728a22da9be538e66e801becfb7",
      "version": 1,
      "size": 134,
      "vsize": 134,
      "weight": 536,
      "locktime": 0,
      "vin": [
        {
          "coinbase": "04ffff001d015f",
          "sequence": 4294967295
        }
      ],
      "vout": [
        {
          "value": 50.0,
          "n": 0,
          "scriptPubKey": {
            "asm": "04c91fe95513c85eebe589e5b39ee2c77b13d9e95c5f7592008e094c47b54362c6425be5b84607179aa716b327525a2bc25a1898b6d05b69b40dd532d03e4e9290 OP_CHECKSIG",
            "desc": "pk(04c91fe95513c85eebe589e5b39ee2c77b13d9e95c5f7592008e094c47b54362c6425be5b84607179aa716b327525a2bc25a1898b6d05b69b40dd532d03e4e9290)#vkyefvj5",
            "hex": "4104c91fe95513c85eebe589e5b39ee2c77b13d9e95c5f7592008e094c47b54362c6425be5b84607179aa716b327525a2bc25a1898b6d05b69b40dd532d03e4e9290ac",
            "type": "pubkey"
          }
        }
      ],
      "hex": "01000000010000000000000000000000000000000000000000000000000000000000000000ffffffff0704ffff001d015fffffffff0100f2052a01000000434104c91fe95513c85eebe589e5b39ee2c77b13d9e95c5f7592008e094c47b54362c6425be5b84607179aa716b327525a2bc25a1898b6d05b69b40dd532d03e4e9290ac00000000"
    }
  ]
}