{
  "hash": "00000000c677e4258af4556188dfa5f1a49339bf380a29ca473428a1d957d934",
  "confirmations": 45547,
  "height": 7551,
  "version": 1,
  "versionHex": "00000001",
  "merkleroot": "13dd219f2da09c746c11e9bccf5e487daf5c962b8e15527b20f72f56c35805f7",
  "time": 1237137033,
  "mediantime": 1237133162,
  "nonce": 491559190,
  "bits": "1d00ffff",
  "difficulty": 1,
  "chainwork": "00000000000000000000000000000000000000000000000000001d801d801d80",
  "nTx": 1,
  "previousblockhash": "00000000b7a2deae3c85fdf5944465bedb6fc297885142cb7e45da9c1ba25305",
  "nextblockhash": "0000000009358ca3b9d5cf2e7175001b7e29d1e188a7c039807914fc7d2e1b04",
  "strippedsize": 216,
  "size": 216,
  "weight": 864,
  "tx": [
    {
      "txid": "13dd219f2da09c746c11e9bccf5e487daf5c962b8e15527b20f72f56c35805f7",
      "hash": "13dd219f2da09c746c11e9bccf5e487daf5c962b8e15527b20f72f56c35805f7",
      "version": 1,
      "size": 135,
      "vsize": 135,
      "weight": 540,
      "locktime": 0,
      "vin": [
        {
          "coinbase": "04ffff001d02f601",
          "sequence": 4294967295
        }
      ],
      "vout": [
        {
          "value": 50.0,
          "n": 0,
          "scriptPubKey": {
            "asm": "04e505792b3cf7836e304e80b704de68215db65183e3b3a8e2ed7b1a0b3e55269d29b75953a8cfe6c28c6e19472597ae89fe93378028c7986436b3dd9491139472 OP_CHECKSIG",
            "desc": "pk(04e505792b3cf7836e304e80b704de68215db65183e3b3a8e2ed7b1a0b3e55269d29b75953a8cfe6c28c6e19472597ae89fe93378028c7986436b3dd9491139472)#8j7kczxk",
            "hex": "4104e505792b3cf7836e304e80b704de68215db65183e3b3a8e2ed7b1a0b3e55269d29b75953a8cfe6c28c6e19472597ae89fe93378028c7986436b3dd9491139472ac",
            "type": "pubkey"
          }
        }
      ],
      "hex": "01000000010000000000000000000000000000000000000000000000000000000000000000ffffffff0804ffff001d02f601ffffffff0100f2052a01000000434104e505792b3cf7836e304e80b704de68215db65183e3b3a8e2ed7b1a0b3e55269d29b75953a8cfe6c28c6e19472597ae89fe93378028c7986436b3dd9491139472ac00000000"
    }
  ]
}