{
  "hash": "00000000c8e5e14194fb10f3f4000368b750dde2d1055cc4ffa29be0f875b9cf",
  "confirmations": 50117,
  "height": 2981,
  "version": 1,
  "versionHex": "00000001",
  "merkleroot": "974c75a1329f7463718eaff91f480fe6383a887b9df36dcbad4f8c96f82422d8",
  "time": 1233748790,
  "mediantime": 1233746777,
  "nonce": 1393433365,
  "bits": "1d00ffff",
  "difficulty": 1,
  "chainwork": "00000000000000000000000000000000000000000000000000000ba60ba60ba6",
  "nTx": 1,
  "previousblockhash": "00000000572d35219bf83f85f0d8a3e972df391ff75c000ffff80455ef526abf",
  "nextblockhash": "00000000b5726567b9bd085a532889faaaa0baa8c269746353f2a484a1fde927",
  "strippedsize": 216,
  "size": 216,
  "weight": 864,
  "tx": [
    {
      "txid": "974c75a1329f7463718eaff91f480fe6383a887b9df36dcbad4f8c96f82422d8",
      "hash": "974c75a1329f7463718eaff91f480fe6383a887b9df36dcbad4f8c96f82422d8",
      "version": 1,
      "size": 135,
      "vsize": 135,
      "weight": 540,
      "locktime": 0,
      "vin": [
        {
          "coinbase": "04ffff001d021901",
          "sequence": 4294967295
        }
      ],
      "vout": [
        {
          "value": 50.0,
          "n": 0,
          "scriptPubKey": {
            "asm": "044eaa577ae5a9e93bad347dd30e7f9aee7684e88a1fffe711ed4059379eea3908e2e1d8cc608a24f3666183d8b070fb44e54025c98cb1eecefcbd438df0a7b61f OP_CHECKSIG",
            "desc": "pk(044eaa577ae5a9e93bad347dd30e7f9aee7684e88a1fffe711ed4059379eea3908e2e1d8cc608a24f3666183d8b070fb44e54025c98cb1eecefcbd438df0a7b61f)#7hdmpj9u",
            "hex": "41044eaa577ae5a9e93bad347dd30e7f9aee7684e88a1fffe711ed4059379eea3908e2e1d8cc608a24f3666183d8b070fb44e54025c98cb1eecefcbd438df0a7b61fac",
            "type": "pubkey"
          }
        }
      ],
      "hex": "01000000010000000000000000000000000000000000000000000000000000000000000000ffffffff0804ffff001d021901ffffffff0100f2052a010000004341044eaa577ae5a9e93bad347dd30e7f9aee7684e88a1fffe711ed4059379eea3908e2e1d8cc608a24f3666183d8b070fb44e54025c98cb1eecefcbd438df0a7b61fac00000000"
    }
  ]
}