{
  "hash": "000000001700f2e36768136bdfe7afc1e00eab22d262b0b5b658a0d78efa1f5b",
  "confirmations": 47877,
  "height": 5221,
  "version": 1,
  "versionHex": "00000001",
  "merkleroot": "b863a558386ef0bf19c9c37b8db57587cb795f44311f21154dd6e1333d24522c",
  "time": 1235301940,
  "mediantime": 1235295534,
  "nonce": 4165877028,
  "bits": "1d00ffff",
  "difficulty": 1,
  "chainwork": "0000000000000000000000000000000000000000000000000000146614661466",
  "nTx": 1,
  "previousblockhash": "0000000077a46379120a2d081b212f4f69f9a5d4f153419f7b58bbd9c94f85f7",
  "nextblockhash": "000000004ae563e322b2a2b6cd268695e30c28e1262377cf52382b50edbbf623",
  "strippedsize": 216,
  "size": 216,
  "weight": 864,
  "tx": [
    {
      "txid": "b863a558386ef0bf19c9c37b8db57587cb795f44311f21154dd6e1333d24522c",
      "hash": "b863a558386ef0bf19c9c37b8db57587cb795f44311f21154dd6e1333d24522c",
      "version": 1,
      "size": 135,
      "vsize": 135,
      "weight": 540,
      "locktime": 0,
      "vin": [
        {
          "coinbase": "04ffff001d02d000",
          "sequence": 4294967295
        }
      ],
      "vout": [
        {
          "value": 50.0,
          "n": 0,
          "scriptPubKey": {
            "asm": "040586250750360593babfb0fae163ea5edb8f58ec1066e5377fdf9044ee47dc09b782eaa50061a82de53b282582f38caba15f212f13b4f6380c00ce9b166eb9bb OP_CHECKSIG",
            "desc": "pk(040586250750360593babfb0fae163ea5edb8f58ec1066e5377fdf9044ee47dc09b782eaa50061a82de53b282582f38caba15f212f13b4f6380c00ce9b166eb9bb)#p8q97jh3",
            "hex": "41040586250750360593babfb0fae163ea5edb8f58ec1066e5377fdf9044ee47dc09b782eaa50061a82de53b282582f38caba15f212f13b4f6380c00ce9b166eb9bbac",
            "type": "pubkey"
          }
        }
      ],
      "hex": "01000000010000000000000000000000000000000000000000000000000000000000000000ffffffff0804ffff001d02d000ffffffff0100f2052a010000004341040586250750360593babfb0fae163ea5edb8f58ec1066e5377fdf9044ee47dc09b782eaa50061a82de53b282582f38caba15f212f13b4f6380c00ce9b166eb9bbac00000000"
    }
  ]
}