{
  "hash": "0000000069c8fc1d836a77857fd766dcc6cf913fa2843135931db13cfaf36612",
  "confirmations": 44577,
  "height": 8521,
  "version": 1,
  "versionHex": "00000001",
  "merkleroot": "55d3ce3e0e14a3fb0dc1f8ad82680b84a0f1bbe13fbfb809b0ab5738af3b85d2",
  "time": 1237889576,
  "mediantime": 1237883742,
  "nonce": 693768237,
  "bits": "1d00ffff",
  "difficulty": 1,
  "chainwork": "0000000000000000000000000000000000000000000000000000214a214a214a",
  "nTx": 1,
  "previousblockhash": "00000000a68b9688d726301d01c488831ea4de6469472a447a3a213a3dc1f841",
  "nextblockhash": "00000000d688cf4de5240c8cfcb389f37e55f66a130d4096f5053778f139f43f",
  "strippedsize": 216,
  "size": 216,
  "weight": 864,
  "tx": [
    {
      "txid": "55d3ce3e0e14a3fb0dc1f8ad82680b84a0f1bbe13fbfb809b0ab5738af3b85d2",
      "hash": "55d3ce3e0e14a3fb0dc1f8ad82680b84a0f1bbe13fbfb809b0ab5738af3b85d2",
      "version": 1,
      "size": 135,
      "vsize": 135,
      "weight": 540,
      "locktime": 0,
      "vin": [
        {
          "coinbase": "04ffff001d021808",
          "sequence": 4294967295
        }
      ],
      "vout": [
        {
          "value": 50.0,
          "n": 0,
          "scriptPubKey": {
            "asm": "04f30e37a4a6fc101e179a9fa1105177f921e83da318b92467a5bd147d4283989b390780c6055d1967379574b8ea7434e6b07c60f339c54ddc8b2e5bc09ca60c29 OP_CHECKSIG",
            "desc": "pk(04f30e37a4a6fc101e179a9fa1105177f921e83da318b92467a5bd147d4283989b390780c6055d1967379574b8ea7434e6b07c60f339c54ddc8b2e5bc09ca60c29)#hwhqxffa",
            "hex": "4104f30e37a4a6fc101e179a9fa1105177f921e83da318b92467a5bd147d4283989b390780c6055d1967379574b8ea7434e6b07c60f339c54ddc8b2e5bc09ca60c29ac",
            "type": "pubkey"
          }
        }
      ],
      "hex": "01000000010000000000000000000000000000000000000000000000000000000000000000ffffffff0804ffff001d021808ffffffff0100f2052a01000000434104f30e37a4a6fc101e179a9fa1105177f921e83da318b92467a5bd147d4283989b390780c6055d1967379574b8ea7434e6b07c60f339c54ddc8b2e5bc09ca60c29ac00000000"
    }
  ]
}