{
  "hash": "00000000499c3e522e95be30db6826524905e3bd95910e8011c4f624e35bd0fa",
  "confirmations": 52057,
  "height": 138,
  "version": 1,
  "versionHex": "00000001",
  "merkleroot": "d813666ec8d5d1b7ec5fb99e69b4d669470b43c1ee0218ecec0b2238d8f8a7d9",
  "time": 1231687693,
  "mediantime": 1231685667,
  "nonce": 2099528988,
  "bits": "1d00ffff",
  "difficulty": 1,
  "chainwork": "0000000000000000000000000000000000000000000000000000008b008b008b",
  "nTx": 1,
  "previousblockhash": "0000000064cc28514d6152b3c1c111424ad227fadff41da947a99535a83a824a",
  "nextblockhash": "00000000d8b8cf67b07679b59e46aeaedd7358f0fa70e2ef8ac347fdcb731f1d",
  "strippedsize": 215,
  "size": 215,
  "weight": 860,
  "tx": [
    {
      "txid": "d813666ec8d5d1b7ec5fb99e69b4d669470b43c1ee0218ecec0b2238d8f8a7d9",
      "hash": "d813666ec8d5d1b7ec5fb99e69b4d669470b43c1ee0218ecec0b2238d8f8a7d9",
      "version": 1,
      "size": 134,
      "vsize": 134,
      "weight": 536,
      "locktime": 0,
      "vin": [
        {
          "coinbase": "04ffff001d012c",
          "sequence": 4294967295
        }
      ],
      "vout": [
        {
          "value": 50.0,
          "n": 0,
          "scriptPubKey": {
            "asm": "04313655b2aed748f03cf6e718fa87ce259f35033b5f0933bf990019f5b7a5e1725c5388686186b2bda9512d90d920fdfd998d690622f2e9e43005942f80e205cc OP_CHECKSIG",
            "desc": "pk(04313655b2aed748f03cf6e718fa87ce259f35033b5f0933bf990019f5b7a5e1725c5388686186b2bda9512d90d920fdfd998d690622f2e9e43005942f80e205cc)#7x8f036v",
            "hex": "4104313655b2aed748f03cf6e718fa87ce259f35033b5f0933bf990019f5b7a5e1725c5388686186b2bda9512d90d920fdfd998d690622f2e9e43005942f80e205ccac",
            "type": "pubkey"
          }
        }
      ],
      "hex": "01000000010000000000000000000000000000000000000000000000000000000000000000ffffffff0704ffff001d012cffffffff0100f2052a01000000434104313655b2aed748f03cf6e718fa87ce259f35033b5f0933bf990019f5b7a5e1725c5388686186b2bda9512d90d920fdfd998d690622f2e9e43005942f80e205ccac00000000"
    }
  ]
}