{
  "hash": "00000000a50a8a7b5db2c4556a40d8ef13514104f642c8bddfd9cddbac1eb2fd",
  "confirmations": 46386,
  "height": 6712,
  "version": 1,
  "versionHex": "00000001",
  "merkleroot": "8bd1edaf7893544fa5449c2392a95f7f595d37710128fe9bc9ff77a813521792",
  "time": 1236491531,
  "mediantime": 1236488227,
  "nonce": 2028371224,
  "bits": "1d00ffff",
  "difficulty": 1,
  "chainwork": "00000000000000000000000000000000000000000000000000001a391a391a39",
  "nTx": 1,
  "previousblockhash": "00000000517019985319688c802df181a7a9345f86ef7cc7a1f1b03106c8eae7",
  "nextblockhash": "000000003933b11259a938879479cc743fdee2d71e2f0e3242b7fc7176a87f12",
  "strippedsize": 216,
  "size": 216,
  "weight": 864,
  "tx": [
    {
      "txid": "8bd1edaf7893544fa5449c2392a95f7f595d37710128fe9bc9ff77a813521792",
      "hash": "8bd1edaf7893544fa5449c2392a95f7f595d37710128fe9bc9ff77a813521792",
      "version": 1,
      "size": 135,
      "vsize": 135,
      "weight": 540,
      "locktime": 0,
      "vin": [
        {
          "coinbase": "04ffff001d024107",
          "sequence": 4294967295
        }
      ],
      "vout": [
        {
          "value": 50.0,
          "n": 0,
          "scriptPubKey": {
            "asm": "04440698bbc7a0ba3aa5bada82f3c96fa8a6044b44ecd020aaf6e9aee706a09c36be2e162d7a591ee997e1b2c32972c652e5271c21acdce41c8fab246cf09af42d OP_CHECKSIG",
            "desc": "pk(04440698bbc7a0ba3aa5bada82f3c96fa8a6044b44ecd020aaf6e9aee706a09c36be2e162d7a591ee997e1b2c32972c652e5271c21acdce41c8fab246cf09af42d)#pyym5e6f",
            "hex": "4104440698bbc7a0ba3aa5bada82f3c96fa8a6044b44ecd020aaf6e9aee706a09c36be2e162d7a591ee997e1b2c32972c652e5271c21acdce41c8fab246cf09af42dac",
            "type": "pubkey"
          }
        }
      ],
      "hex": "01000000010000000000000000000000000000000000000000000000000000000000000000ffffffff0804ffff001d024107ffffffff0100f2052a01000000434104440698bbc7a0ba3aa5bada82f3c96fa8a6044b44ecd020aaf6e9aee706a09c36be2e162d7a591ee997e1b2c32972c652e5271c21acdce41c8fab246cf09af42dac00000000"
    }
  ]
}