{
  "hash": "00000000bd25f62a827acd2c93c872ba704c20c5c0b9dc3b5033848934eae810",
  "confirmations": 43869,
  "height": 9229,
  "version": 1,
  "versionHex": "00000001",
  "merkleroot": "b04c5bbe298244302398979d3104a0cc9ecc12d0e3288b9cac3a0368787d677b",
  "time": 1238420111,
  "mediantime": 1238417661,
  "nonce": 268675103,
  "bits": "1d00ffff",
  "difficulty": 1,
  "chainwork": "0000000000000000000000000000000000000000000000000000240e240e240e",
  "nTx": 1,
  "previousblockhash": "000000002700e2f52927b3c3d9d581ba75975610da60d36c7e7fb2140fb4003f",
  "nextblockhash": "00000000539b4dbc93a3a54577cc0745e8b691b18875b40283e1f44fe9bb833e",
  "strippedsize": 216,
  "size": 216,
  "weight": 864,
  "tx": [
    {
      "txid": "b04c5bbe298244302398979d3104a0cc9ecc12d0e3288b9cac3a0368787d677b",
      "hash": "b04c5bbe298244302398979d3104a0cc9ecc12d0e3288b9cac3a0368787d677b",
      "version": 1,
      "size": 135,
      "vsize": 135,
      "weight": 540,
      "locktime": 0,
      "vin": [
        {
          "coinbase": "04ffff001d028b00",
          "sequence": 4294967295
        }
      ],
      "vout": [
        {
          "value": 50.0,
          "n": 0,
          "scriptPubKey": {
            "asm": "04d2c34e16342a3a750f033238eb68eaf853bcefec8e25064310f695c7d81ea82f16cd9dffba44ad4bb69706405cec2a8c05b798b1b7f715dbf8e51a3dd0036629 OP_CHECKSIG",
            "desc": "pk(04d2c34e16342a3a750f033238eb68eaf853bcefec8e25064310f695c7d81ea82f16cd9dffba44ad4bb69706405cec2a8c05b798b1b7f715dbf8e51a3dd0036629)#nnt88h83",
            "hex": "4104d2c34e16342a3a750f033238eb68eaf853bcefec8e25064310f695c7d81ea82f16cd9dffba44ad4bb69706405cec2a8c05b798b1b7f715dbf8e51a3dd0036629ac",
            "type": "pubkey"
          }
        }
      ],
      "hex": "01000000010000000000000000000000000000000000000000000000000000000000000000ffffffff0804ffff001d028b00ffffffff0100f2052a01000000434104d2c34e16342a3a750f033238eb68eaf853bcefec8e25064310f695c7d81ea82f16cd9dffba44ad4bb69706405cec2a8c05b798b1b7f715dbf8e51a3dd0036629ac00000000"
    }
  ]
}