{
  "hash": "00000000927235e53245ffade6c852fa742e51265d4a4657c61d085ad9cafba7",
  "confirmations": 46828,
  "height": 6270,
  "version": 1,
  "versionHex": "00000001",
  "merkleroot": "31d1b12714c9179c1b8c2f9b178da77e37bcfa084ddaeace552af99fe24ff9fa",
  "time": 1236148821,
  "mediantime": 1236146014,
  "nonce": 1470138376,
  "bits": "1d00ffff",
  "difficulty": 1,
  "chainwork": "0000000000000000000000000000000000000000000000000000187f187f187f",
  "nTx": 1,
  "previousblockhash": "000000002178dae529077386d68c48b1660f6168baadbabb6bcbd0a59dc10b17",
  "nextblockhash": "000000003ce99726d00dddc80aa52e7d8f2d4a9d6f531055cae0011637041719",
  "strippedsize": 216,
  "size": 216,
  "weight": 864,
  "tx": [
    {
      "txid": "31d1b12714c9179c1b8c2f9b178da77e37bcfa084ddaeace552af99fe24ff9fa",
      "hash": "31d1b12714c9179c1b8c2f9b178da77e37bcfa084ddaeace552af99fe24ff9fa",
      "version": 1,
      "size": 135,
      "vsize": 135,
      "weight": 540,
      "locktime": 0,
      "vin": [
        {
          "coinbase": "04ffff001d02ea09",
          "sequence": 4294967295
        }
      ],
      "vout": [
        {
          "value": 50.0,
          "n": 0,
          "scriptPubKey": {
            "asm": "040ce72d5aa62fa01af302f99f7b3301456412c2fa7ec3c442cc975626f6884c8674f8f50256bcd21c5deba364ac6b29dc9bdf8616b1cd465557fa3a9c47875b47 OP_CHECKSIG",
            "desc": "pk(040ce72d5aa62fa01af302f99f7b3301456412c2fa7ec3c442cc975626f6884c8674f8f50256bcd21c5deba364ac6b29dc9bdf8616b1cd465557fa3a9c47875b47)#u5hzkyd7",
            "hex": "41040ce72d5aa62fa01af302f99f7b3301456412c2fa7ec3c442cc975626f6884c8674f8f50256bcd21c5deba364ac6b29dc9bdf8616b1cd465557fa3a9c47875b47ac",
            "type": "pubkey"
          }
        }
      ],
      "hex": "01000000010000000000000000000000000000000000000000000000000000000000000000ffffffff0804ffff001d02ea09ffffffff0100f2052a010000004341040ce72d5aa62fa01af302f99f7b3301456412c2fa7ec3c442cc975626f6884c8674f8f50256bcd21c5deba364ac6b29dc9bdf8616b1cd465557fa3a9c47875b47ac00000000"
    }
  ]
}