{
  "hash": "00000000e9a0e6f8f08cc1ac6198e3ea633bce375316c3d593a6654ec7e08b2d",
  "confirmations": 52155,
  "height": 943,
  "version": 1,
  "versionHex": "00000001",
  "merkleroot": "a660e96c749aca24d055bf0754931b0aa036bf9a799836df1e08c0c57e7cc7df",
  "time": 1232308979,
  "mediantime": 1232306174,
  "nonce": 3294000686,
  "bits": "1d00ffff",
  "difficulty": 1,
  "chainwork": "000000000000000000000000000000000000000000000000000003b003b003b0",
  "nTx": 2,
  "previousblockhash": "0000000002edf896a1d087514c37b37680e1e9d93058bd6fab49711169a2a79b",
  "nextblockhash": "00000000121b7be05ecb69f74ade200b8d90f39791865064b1c1bf14c22cade7",
  "strippedsize": 642,
  "size": 642,
  "weight": 2568,
  "tx": [
    {
      "txid": "7fad6c73cf98d9d5d158a918504ec2ab72131bea0dc8b9c5b6ca397b7673bf5e",
      "hash": "7fad6c73cf98d9d5d158a918504ec2ab72131bea0dc8b9c5b6ca397b7673bf5e",
      "version": 1,
      "size": 135,
      "vsize": 135,
      "weight": 540,
      "locktime": 0,
      "vin": [
        {
          "coinbase": "04ffff001d024104",
          "sequence": 4294967295
        }
      ],
      "vout": [
        {
          "value": 50.0,
          "n": 0,
          "scriptPubKey": {
            "asm": "04b67e179bc43a88abaa4020f076d69717f77a71196a104009586d1c030b35733d9693ef5920bb8136684e98f5d4496f448e6ebdda6d2580145dca0833da8a2051 OP_CHECKSIG",
            "desc": "pk(04b67e179bc43a88abaa4020f076d69717f77a71196a104009586d1c030b35733d9693ef5920bb8136684e98f5d4496f448e6ebdda6d2580145dca0833da8a2051)#47c7eyqs",
            "hex": "4104b67e179bc43a88abaa4020f076d69717f77a71196a104009586d1c030b35733d9693ef5920bb8136684e98f5d4496f448e6ebdda6d2580145dca0833da8a2051ac",
            "type": "pubkey"
          }
        }
      ],
      "hex": "01000000010000000000000000000000000000000000000000000000000000000000000000ffffffff0804ffff001d024104ffffffff0100f2052a01000000434104b67e179bc43a88abaa4020f076d69717f77a71196a104009586d1c030b35733d9693ef5920bb8136684e98f5d4496f448e6ebdda6d2580145dca0833da8a2051ac00000000"
    },
    {
      "txid": "3e4cc1f71c998d080528ae305dffcc01419851e0d7b5191edfada9528625bff6",
      "hash": "3e4cc1f71c998d080528ae305dffcc01419851e0d7b5191edfada9528625bff6",
      "version": 1,
      "size": 426,
      "vsize": 426,
      "weight": 1704,
      "locktime": 0,
      "vin": [
        {
          "txid": "8ba6531767d5a101fdd84a58025bfd1793fd9191e517db4acb0c49df851a957e",
          "vout": 0,
          "scriptSig": {
            "asm": "304402200c5094ea5d8cbc1e0041f4683404ddbe220be65919c66f93ce9f927962ee260902205ea9ac93b5c029be554131d7da4223755aef2651aad549011d4830752294ee79[ALL]",
            "hex": "47304402200c5094ea5d8cbc1e0041f4683404ddbe220be65919c66f93ce9f927962ee260902205ea9ac93b5c029be554131d7da4223755aef2651aad549011d4830752294ee7901"
          },
          "sequence": 4294967295
        },
        {
          "txid": "06c465c460692fe059efe40671863885785ea3907704af2b8d893ba5aefd157f",
          "vout": 0,
          "scriptSig": {
            "asm": "304502200374874001b8b6c7fdf779f0badf5c2401b67090e237d00d3710dbe2e2249c0a022100814ba5f7937be2314604d18076501f2d9589b6f304e547685ce8b85f481db826[ALL]",
            "hex": "48304502200374874001b8b6c7fdf779f0badf5c2401b67090e237d00d3710dbe2e2249c0a022100814ba5f7937be2314604d18076501f2d9589b6f304e547685ce8b85f481db82601"
          },
          "sequence": 4294967295
        },
        {
          "txid": "43f440c49de6de50c2d09b459d087828d5115f40d81ccb4119a3119c7ff478f6",
          "vout": 0,
          "scriptSig": {
            "asm": "304402203b21912c0509b021fae41f578cd61a9540de559391214878c2028357453ee04d02202c4ba57b923326fab61688de2f979a67781477275517520bc622bc53368f11d5[ALL]",
            "hex": "47304402203b21912c0509b021fae41f578cd61a9540de559391214878c2028357453ee04d02202c4ba57b923326fab61688de2f979a67781477275517520bc622bc53368f11d501"
          },
          "sequence": 4294967295
        }
      ],
      "vout": [
        {
          "value": 150.0,
          "n": 0,
          "scriptPubKey": {
            "asm": "0445440b3c43352f268bc7630cd1d7c78b947910b8d5514f22d78599bdd9d13cd06f800525bec3a9d6e576e073b08c6e0b794b719adcfba2bada9638b78cbf87d9 OP_CHECKSIG",
            "desc": "pk(0445440b3c43352f268bc7630cd1d7c78b947910b8d5514f22d78599bdd9d13cd06f800525bec3a9d6e576e073b08c6e0b794b719adcfba2bada9638b78cbf87d9)#e2klsfga",
            "hex": "410445440b3c43352f268bc7630cd1d7c78b947910b8d5514f22d78599bdd9d13cd06f800525bec3a9d6e576e073b08c6e0b794b719adcfba2bada9638b78cbf87d9ac",
            "type": "pubkey"
          }
        }
      ],
      "fee": 0.0,
      "hex": "01000000037e951a85df490ccb4adb17e59191fd9317fd5b02584ad8fd01a1d5671753a68b000000004847304402200c5094ea5d8cbc1e0041f4683404ddbe220be65919c66f93ce9f927962ee260902205ea9ac93b5c029be554131d7da4223755aef2651aad549011d4830752294ee7901ffffffff7f15fdaea53b898d2baf047790a35e788538867106e4ef59e02f6960c465c406000000004948304502200374874001b8b6c7fdf779f0badf5c2401b67090e237d00d3710dbe2e2249c0a022100814ba5f7937be2314604d18076501f2d9589b6f304e547685ce8b85f481db82601fffffffff678f47f9c11a31941cb1cd8405f11d52878089d459bd0c250dee69dc440f443000000004847304402203b21912c0509b021fae41f578cd61a9540de559391214878c2028357453ee04d02202c4ba57b923326fab61688de2f979a67781477275517520bc622bc53368f11d501ffffffff0100d6117e0300000043410445440b3c43352f268bc7630cd1d7c78b947910b8d5514f22d78599bdd9d13cd06f800525bec3a9d6e576e073b08c6e0b794b719adcfba2bada9638b78cbf87d9ac00000000"
    }
  ]
}