{
  "hash": "000000006c0b1da5f2d08cbeebc3d76cdb68e2c182f3e019fc89987425ce48aa",
  "confirmations": 49214,
  "height": 3884,
  "version": 1,
  "versionHex": "00000001",
  "merkleroot": "6739c6aee3976e5b8987e601130bb02a55602d1e22f8945e1f805829a28c3f17",
  "time": 1234356537,
  "mediantime": 1234352956,
  "nonce": 582036791,
  "bits": "1d00ffff",
  "difficulty": 1,
  "chainwork": "00000000000000000000000000000000000000000000000000000f2d0f2d0f2d",
  "nTx": 1,
  "previousblockhash": "00000000ea2b48f085f41cd7e00c313c50966070e408246887fe32ba87082482",
  "nextblockhash": "00000000496f16f0100b386a932e03d8692982ff8f85fc6037888fd449f3a4fe",
  "strippedsize": 216,
  "size": 216,
  "weight": 864,
  "tx": [
    {
      "txid": "6739c6aee3976e5b8987e601130bb02a55602d1e22f8945e1f805829a28c3f17",
      "hash": "6739c6aee3976e5b8987e601130bb02a55602d1e22f8945e1f805829a28c3f17",
      "version": 1,
      "size": 135,
      "vsize": 135,
      "weight": 540,
      "locktime": 0,
      "vin": [
        {
          "coinbase": "04ffff001d024c02",
          "sequence": 4294967295
        }
      ],
      "vout": [
        {
          "value": 50.0,
          "n": 0,
          "scriptPubKey": {
            "asm": "047a29b765328036d5e0186a2d07f510549577619f28d125a07e444617f129393415cbe1ba024e227f8b07ba391beb32947a97fa1e82c10fb55a4abdd4b6513da8 OP_CHECKSIG",
            "desc": "pk(047a29b765328036d5e0186a2d07f510549577619f28d125a07e444617f129393415cbe1ba024e227f8b07ba391beb32947a97fa1e82c10fb55a4abdd4b6513da8)#kntjk5hn",
            "hex": "41047a29b765328036d5e0186a2d07f510549577619f28d125a07e444617f129393415cbe1ba024e227f8b07ba391beb32947a97fa1e82c10fb55a4abdd4b6513da8ac",
            "type": "pubkey"
          }
        }
      ],
      "hex": "01000000010000000000000000000000000000000000000000000000000000000000000000ffffffff0804ffff001d024c02ffffffff0100f2052a010000004341047a29b765328036d5e0186a2d07f510549577619f28d125a07e444617f129393415cbe1ba024e227f8b07ba391beb32947a97fa1e82c10fb55a4abdd4b6513da8ac00000000"
    }
  ]
}