{
  "hash": "000000003e32e0b3451e82be69c7118d337efacf5e58402246b88507b8bf8948",
  "confirmations": 47076,
  "height": 6022,
  "version": 1,
  "versionHex": "00000001",
  "merkleroot": "27584604e0d9f16b3fac2646e6c02bf060387621e3118d2ce5811ae4ba873167",
  "time": 1235945882,
  "mediantime": 1235940153,
  "nonce": 19064321,
  "bits": "1d00ffff",
  "difficulty": 1,
  "chainwork": "0000000000000000000000000000000000000000000000000000178717871787",
  "nTx": 1,
  "previousblockhash": "0000000028ea6b7d019dac03b828383a21fd7e4eba5b53cf6ce7fb54157348b4",
  "nextblockhash": "000000008334c87587ab658302ff35a49a8c91e7104e61f1f1641961add38197",
  "strippedsize": 215,
  "size": 215,
  "weight": 860,
  "tx": [
    {
      "txid": "27584604e0d9f16b3fac2646e6c02bf060387621e3118d2ce5811ae4ba873167",
      "hash": "27584604e0d9f16b3fac2646e6c02bf060387621e3118d2ce5811ae4ba873167",
      "version": 1,
      "size": 134,
      "vsize": 134,
      "weight": 536,
      "locktime": 0,
      "vin": [
        {
          "coinbase": "04ffff001d0174",
          "sequence": 4294967295
        }
      ],
      "vout": [
        {
          "value": 50.0,
          "n": 0,
          "scriptPubKey": {
            "asm": "04ec3029aa534a8930e0f3940e5d0d441be3793452c27cb733d455d9930c9f69ecf7c2815174a085ca38c6c4c9c2a171cc214fe187982d0a00a92f0ecdf3660587 OP_CHECKSIG",
            "desc": "pk(04ec3029aa534a8930e0f3940e5d0d441be3793452c27cb733d455d9930c9f69ecf7c2815174a085ca38c6c4c9c2a171cc214fe187982d0a00a92f0ecdf3660587)#0pqh8q9j",
            "hex": "4104ec3029aa534a8930e0f3940e5d0d441be3793452c27cb733d455d9930c9f69ecf7c2815174a085ca38c6c4c9c2a171cc214fe187982d0a00a92f0ecdf3660587ac",
            "type": "pubkey"
          }
        }
      ],
      "hex": "01000000010000000000000000000000000000000000000000000000000000000000000000ffffffff0704ffff001d0174ffffffff0100f2052a01000000434104ec3029aa534a8930e0f3940e5d0d441be3793452c27cb733d455d9930c9f69ecf7c2815174a085ca38c6c4c9c2a171cc214fe187982d0a00a92f0ecdf3660587ac00000000"
    }
  ]
}