{
  "hash": "00000000d375589770b4652369b6cb946209240f3c06dbd7bb91d3d0d4ce7c9e",
  "confirmations": 50967,
  "height": 2131,
  "version": 1,
  "versionHex": "00000001",
  "merkleroot": "99a79c96d48c2ff35374253e6b6153dc7bf02fe14947accf03078ce7c8c91b52",
  "time": 1233159589,
  "mediantime": 1233155676,
  "nonce": 1044952627,
  "bits": "1d00ffff",
  "difficulty": 1,
  "chainwork": "0000000000000000000000000000000000000000000000000000085408540854",
  "nTx": 1,
  "previousblockhash": "000000007f4aa391140e70d0fcd35399fb6fb327ebe838cb22c72de3aee8fe7d",
  "nextblockhash": "00000000907fef6d24dbd9646cc5d27f6836e76a15f1105e250230323dd1c7ed",
  "strippedsize": 215,
  "size": 215,
  "weight": 860,
  "tx": [
    {
      "txid": "99a79c96d48c2ff35374253e6b6153dc7bf02fe14947accf03078ce7c8c91b52",
      "hash": "99a79c96d48c2ff35374253e6b6153dc7bf02fe14947accf03078ce7c8c91b52",
      "version": 1,
      "size": 134,
      "vsize": 134,
      "weight": 536,
      "locktime": 0,
      "vin": [
        {
          "coinbase": "04ffff001d0129",
          "sequence": 4294967295
        }
      ],
      "vout": [
        {
          "value": 50.0,
          "n": 0,
          "scriptPubKey": {
            "asm": "040b985d7a1fc5e850cfba315e16ec0454d3127da2e71a5a612e2b85b0e60e7952c8406877b8bcb4c3b7b3109dc7ccbead1f93dec61f2a90ba7af16b479b42d5ee OP_CHECKSIG",
            "desc": "pk(040b985d7a1fc5e850cfba315e16ec0454d3127da2e71a5a612e2b85b0e60e7952c8406877b8bcb4c3b7b3109dc7ccbead1f93dec61f2a90ba7af16b479b42d5ee)#ye94ga07",
            "hex": "41040b985d7a1fc5e850cfba315e16ec0454d3127da2e71a5a612e2b85b0e60e7952c8406877b8bcb4c3b7b3109dc7ccbead1f93dec61f2a90ba7af16b479b42d5eeac",
            "type": "pubkey"
          }
        }
      ],
      "hex": "01000000010000000000000000000000000000000000000000000000000000000000000000ffffffff0704ffff001d0129ffffffff0100f2052a010000004341040b985d7a1fc5e850cfba315e16ec0454d3127da2e71a5a612e2b85b0e60e7952c8406877b8bcb4c3b7b3109dc7ccbead1f93dec61f2a90ba7af16b479b42d5eeac00000000"
    }
  ]
}