{
  "hash": "00000000c076aa90887730d73d4999d2d888ada30044aacf22534212bb982a50",
  "confirmations": 47278,
  "height": 5820,
  "version": 1,
  "versionHex": "00000001",
  "merkleroot": "3f547bb77a721a1fe6f37143c8f32b0d5589aabb525b86d60d00751d4602a507",
  "time": 1235775083,
  "mediantime": 1235771501,
  "nonce": 208815333,
  "bits": "1d00ffff",
  "difficulty": 1,
  "chainwork": "000000000000000000000000000000000000000000000000000016bd16bd16bd",
  "nTx": 1,
  "previousblockhash": "0000000069c08c4b577d689ed9266757b1f4786f0b9083f092d7c469ec33c0c0",
  "nextblockhash": "00000000e22a461806146e4a1fddfe060198e808c94caf56964fdff4fc8c4f15",
  "strippedsize": 216,
  "size": 216,
  "weight": 864,
  "tx": [
    {
      "txid": "3f547bb77a721a1fe6f37143c8f32b0d5589aabb525b86d60d00751d4602a507",
      "hash": "3f547bb77a721a1fe6f37143c8f32b0d5589aabb525b86d60d00751d4602a507",
      "version": 1,
      "size": 135,
      "vsize": 135,
      "weight": 540,
      "locktime": 0,
      "vin": [
        {
          "coinbase": "04ffff001d023f01",
          "sequence": 4294967295
        }
      ],
      "vout": [
        {
          "value": 50.0,
          "n": 0,
          "scriptPubKey": {
            "asm": "04f4f2d806dda552ea3198bb34dc5eeb9141da3beaea67608985d2a5a34922927750a3dd1179a84543c908039c518b4876accbaa61857cd94ee98bf6f5da269355 OP_CHECKSIG",
            "desc": "pk(04f4f2d806dda552ea3198bb34dc5eeb9141da3beaea67608985d2a5a34922927750a3dd1179a84543c908039c518b4876accbaa61857cd94ee98bf6f5da269355)#dxjpssst",
            "hex": "4104f4f2d806dda552ea3198bb34dc5eeb9141da3beaea67608985d2a5a34922927750a3dd1179a84543c908039c518b4876accbaa61857cd94ee98bf6f5da269355ac",
            "type": "pubkey"
          }
        }
      ],
      "hex": "01000000010000000000000000000000000000000000000000000000000000000000000000ffffffff0804ffff001d023f01ffffffff0100f2052a01000000434104f4f2d806dda552ea3198bb34dc5eeb9141da3beaea67608985d2a5a34922927750a3dd1179a84543c908039c518b4876accbaa61857cd94ee98bf6f5da269355ac00000000"
    }
  ]
}