{
  "hash": "00000000f5df9a9a3e31318ffdc8ea3f01fbca1a673222075e306f9b9da02fe3",
  "confirmations": 46208,
  "height": 6890,
  "version": 1,
  "versionHex": "00000001",
  "merkleroot": "fb88e6e8ea36b426ba58c3ea2c987d2198794a235763a2515de94a24e91b329d",
  "time": 1236629162,
  "mediantime": 1236625184,
  "nonce": 1592727081,
  "bits": "1d00ffff",
  "difficulty": 1,
  "chainwork": "00000000000000000000000000000000000000000000000000001aeb1aeb1aeb",
  "nTx": 1,
  "previousblockhash": "00000000dbe2fe042255163d49fbc3001150528e3e76eb4ebbdc8a304c4c646b",
  "nextblockhash": "00000000edaa8a068b03459d4e3fd1979bb69ae46cd8233d422388385d98e77a",
  "strippedsize": 215,
  "size": 215,
  "weight": 860,
  "tx": [
    {
      "txid": "fb88e6e8ea36b426ba58c3ea2c987d2198794a235763a2515de94a24e91b329d",
      "hash": "fb88e6e8ea36b426ba58c3ea2c987d2198794a235763a2515de94a24e91b329d",
      "version": 1,
      "size": 134,
      "vsize": 134,
      "weight": 536,
      "locktime": 0,
      "vin": [
        {
          "coinbase": "04ffff001d0121",
          "sequence": 4294967295
        }
      ],
      "vout": [
        {
          "value": 50.0,
          "n": 0,
          "scriptPubKey": {
            "asm": "044ef71761572e0f4ef81cee1e1d76634ae36081266e95ff546e839a644a856687bf7633f4e907a40eb815fcf31900b55e0e7d0e7aefca61c849532c5f48179c61 OP_CHECKSIG",
            "desc": "pk(044ef71761572e0f4ef81cee1e1d76634ae36081266e95ff546e839a644a856687bf7633f4e907a40eb815fcf31900b55e0e7d0e7aefca61c849532c5f48179c61)#vweg05dv",
            "hex": "41044ef71761572e0f4ef81cee1e1d76634ae36081266e95ff546e839a644a856687bf7633f4e907a40eb815fcf31900b55e0e7d0e7aefca61c849532c5f48179c61ac",
            "type": "pubkey"
          }
        }
      ],
      "hex": "01000000010000000000000000000000000000000000000000000000000000000000000000ffffffff0704ffff001d0121ffffffff0100f2052a010000004341044ef71761572e0f4ef81cee1e1d76634ae36081266e95ff546e839a644a856687bf7633f4e907a40eb815fcf31900b55e0e7d0e7aefca61c849532c5f48179c61ac00000000"
    }
  ]
}