{
  "hash": "00000000816d44ea23b86ccf0b98736ee06d66e2af72f0f542976f0a92bcea98",
  "confirmations": 52178,
  "height": 451,
  "version": 1,
  "versionHex": "00000001",
  "merkleroot": "641518afe1f3203694a0ded508b5520f924ecc824c4137195fa7d75d1cb517fe",
  "time": 1231936485,
  "mediantime": 1231932921,
  "nonce": 77839671,
  "bits": "1d00ffff",
  "difficulty": 1,
  "chainwork": "000000000000000000000000000000000000000000000000000001c401c401c4",
  "nTx": 1,
  "previousblockhash": "00000000e474895c09bcdaf9261845960b35ea54ed3ecaf60d8a392940f1f3f9",
  "nextblockhash": "000000005009c3864ca16b54b61d09c914ac312e260de44776811287f41ffab2",
  "strippedsize": 216,
  "size": 216,
  "weight": 864,
  "tx": [
    {
      "txid": "641518afe1f3203694a0ded508b5520f924ecc824c4137195fa7d75d1cb517fe",
      "hash": "641518afe1f3203694a0ded508b5520f924ecc824c4137195fa7d75d1cb517fe",
      "version": 1,
      "size": 135,
      "vsize": 135,
      "weight": 540,
      "locktime": 0,
      "vin": [
        {
          "coinbase": "04ffff001d02af03",
          "sequence": 4294967295
        }
      ],
      "vout": [
        {
          "value": 50.0,
          "n": 0,
          "scriptPubKey": {
            "asm": "04296e3c3b64ac62f51cbfb1ca6cfeeb580fb71d0d38079b9f3da14e022bcbf31ff73a82631932955ffee744729a30f7e5541a757156810ceb93a70cbc7e217020 OP_CHECKSIG",
            "desc": "pk(04296e3c3b64ac62f51cbfb1ca6cfeeb580fb71d0d38079b9f3da14e022bcbf31ff73a82631932955ffee744729a30f7e5541a757156810ceb93a70cbc7e217020)#h7lx5rwt",
            "hex": "4104296e3c3b64ac62f51cbfb1ca6cfeeb580fb71d0d38079b9f3da14e022bcbf31ff73a82631932955ffee744729a30f7e5541a757156810ceb93a70cbc7e217020ac",
            "type": "pubkey"
          }
        }
      ],
      "hex": "01000000010000000000000000000000000000000000000000000000000000000000000000ffffffff0804ffff001d02af03ffffffff0100f2052a01000000434104296e3c3b64ac62f51cbfb1ca6cfeeb580fb71d0d38079b9f3da14e022bcbf31ff73a82631932955ffee744729a30f7e5541a757156810ceb93a70cbc7e217020ac00000000"
    }
  ]
}