{
  "hash": "00000000b9583a2efab8ac0f1f19d2f1d737e1e2b1c6672c88778099afd5a15f",
  "confirmations": 52158,
  "height": 940,
  "version": 1,
  "versionHex": "00000001",
  "merkleroot": "3ab4a68cf8813e8ec54958512ffd7ad7e89a81841b1b4cade296eccd1ed49169",
  "time": 1232306853,
  "mediantime": 1232303210,
  "nonce": 41036509,
  "bits": "1d00ffff",
  "difficulty": 1,
  "chainwork": "000000000000000000000000000000000000000000000000000003ad03ad03ad",
  "nTx": 1,
  "previousblockhash": "00000000163e0be930c1049da5864c0e6b38a68df9938539e32fd57b2e14ba12",
  "nextblockhash": "00000000fa3c04695a819bb5ddcbe4b06c0943c659ad2690f6dcd60e2a0e20f3",
  "strippedsize": 216,
  "size": 216,
  "weight": 864,
  "tx": [
    {
      "txid": "3ab4a68cf8813e8ec54958512ffd7ad7e89a81841b1b4cade296eccd1ed49169",
      "hash": "3ab4a68cf8813e8ec54958512ffd7ad7e89a81841b1b4cade296eccd1ed49169",
      "version": 1,
      "size": 135,
      "vsize": 135,
      "weight": 540,
      "locktime": 0,
      "vin": [
        {
          "coinbase": "04ffff001d02e200",
          "sequence": 4294967295
        }
      ],
      "vout": [
        {
          "value": 50.0,
          "n": 0,
          "scriptPubKey": {
            "asm": "04c56e9f64b4f695752ec855d9d88273cae88d2e23f428cceff74074414093f2da3a294ef5716f2c20459d572aef64082758bc3996bc97c1bd5733c38227032408 OP_CHECKSIG",
            "desc": "pk(04c56e9f64b4f695752ec855d9d88273cae88d2e23f428cceff74074414093f2da3a294ef5716f2c20459d572aef64082758bc3996bc97c1bd5733c38227032408)#n4a0clnk",
            "hex": "4104c56e9f64b4f695752ec855d9d88273cae88d2e23f428cceff74074414093f2da3a294ef5716f2c20459d572aef64082758bc3996bc97c1bd5733c38227032408ac",
            "type": "pubkey"
          }
        }
      ],
      "hex": "01000000010000000000000000000000000000000000000000000000000000000000000000ffffffff0804ffff001d02e200ffffffff0100f2052a01000000434104c56e9f64b4f695752ec855d9d88273cae88d2e23f428cceff74074414093f2da3a294ef5716f2c20459d572aef64082758bc3996bc97c1bd5733c38227032408ac00000000"
    }
  ]
}