{
  "hash": "0000000011e36edf0c01ecffe36ac4be9f4674c5438d5bd02f47a59c798f663c",
  "confirmations": 52521,
  "height": 577,
  "version": 1,
  "versionHex": "00000001",
  "merkleroot": "fae34be444ca4f7d1e3c95bff991fc919daf261cf1fad6aae75b5750ca9c208c",
  "time": 1232021565,
  "mediantime": 1232018217,
  "nonce": 3991214126,
  "bits": "1d00ffff",
  "difficulty": 1,
  "chainwork": "0000000000000000000000000000000000000000000000000000024202420242",
  "nTx": 1,
  "previousblockhash": "000000002436274e351576ee5c9d6a96ce64072d02713d20c32c36bf70f9fbb5",
  "nextblockhash": "00000000c3a81d9932edc9a2e3358e631b094d9628178bbf6089b12f75b08815",
  "strippedsize": 216,
  "size": 216,
  "weight": 864,
  "tx": [
    {
      "txid": "fae34be444ca4f7d1e3c95bff991fc919daf261cf1fad6aae75b5750ca9c208c",
      "hash": "fae34be444ca4f7d1e3c95bff991fc919daf261cf1fad6aae75b5750ca9c208c",
      "version": 1,
      "size": 135,
      "vsize": 135,
      "weight": 540,
      "locktime": 0,
      "vin": [
        {
          "coinbase": "04ffff001d023206",
          "sequence": 4294967295
        }
      ],
      "vout": [
        {
          "value": 50.0,
          "n": 0,
          "scriptPubKey": {
            "asm": "046fd47c66a46a5013d180e6b7ee2d141edf64e219ceff7ff2553e9d31a4057823d84022734666c54f22933683fd6c685305de4d8de7b3b31847902bb5a2648663 OP_CHECKSIG",
            "desc": "pk(046fd47c66a46a5013d180e6b7ee2d141edf64e219ceff7ff2553e9d31a4057823d84022734666c54f22933683fd6c685305de4d8de7b3b31847902bb5a2648663)#69r5z7qd",
            "hex": "41046fd47c66a46a5013d180e6b7ee2d141edf64e219ceff7ff2553e9d31a4057823d84022734666c54f22933683fd6c685305de4d8de7b3b31847902bb5a2648663ac",
            "type": "pubkey"
          }
        }
      ],
      "hex": "01000000010000000000000000000000000000000000000000000000000000000000000000ffffffff0804ffff001d023206ffffffff0100f2052a010000004341046fd47c66a46a5013d180e6b7ee2d141edf64e219ceff7ff2553e9d31a4057823d84022734666c54f22933683fd6c685305de4d8de7b3b31847902bb5a2648663ac00000000"
    }
  ]
}