{
  "hash": "0000000067dfa8751fd11068f79075298820192cf137b6c11891e0178029e022",
  "confirmations": 46679,
  "height": 6419,
  "version": 1,
  "versionHex": "00000001",
  "merkleroot": "5a349580280b0aa9810bab5c39cdffb0ca00e39c46c5ccd95b5cd87086cfe302",
  "time": 1236270012,
  "mediantime": 1236267887,
  "nonce": 110960180,
  "bits": "1d00ffff",
  "difficulty": 1,
  "chainwork": "0000000000000000000000000000000000000000000000000000191419141914",
  "nTx": 1,
  "previousblockhash": "0000000031c2ab2d71221cca7415d2746b101d890616b7da15a8059c7f5b1578",
  "nextblockhash": "00000000bccc8a536caf4343d5554dae6e54e97373fbd41f7b0c56cbe3cc54cb",
  "strippedsize": 216,
  "size": 216,
  "weight": 864,
  "tx": [
    {
      "txid": "5a349580280b0aa9810bab5c39cdffb0ca00e39c46c5ccd95b5cd87086cfe302",
      "hash": "5a349580280b0aa9810bab5c39cdffb0ca00e39c46c5ccd95b5cd87086cfe302",
      "version": 1,
      "size": 135,
      "vsize": 135,
      "weight": 540,
      "locktime": 0,
      "vin": [
        {
          "coinbase": "04ffff001d023202",
          "sequence": 4294967295
        }
      ],
      "vout": [
        {
          "value": 50.0,
          "n": 0,
          "scriptPubKey": {
            "asm": "046a0469913bc3a0e8aee318f1ed0dae766253413dbcf836a8d2f7cb3f6e1adfa458ddadf9bf1dad9682d7ab942ea8e8d84684840545354fabf66a4118f288195e OP_CHECKSIG",
            "desc": "pk(046a0469913bc3a0e8aee318f1ed0dae766253413dbcf836a8d2f7cb3f6e1adfa458ddadf9bf1dad9682d7ab942ea8e8d84684840545354fabf66a4118f288195e)#jsqmw7vf",
            "hex": "41046a0469913bc3a0e8aee318f1ed0dae766253413dbcf836a8d2f7cb3f6e1adfa458ddadf9bf1dad9682d7ab942ea8e8d84684840545354fabf66a4118f288195eac",
            "type": "pubkey"
          }
        }
      ],
      "hex": "01000000010000000000000000000000000000000000000000000000000000000000000000ffffffff0804ffff001d023202ffffffff0100f2052a010000004341046a0469913bc3a0e8aee318f1ed0dae766253413dbcf836a8d2f7cb3f6e1adfa458ddadf9bf1dad9682d7ab942ea8e8d84684840545354fabf66a4118f288195eac00000000"
    }
  ]
}