{
  "hash": "00000000fd69a5ef7d33e19d8eeab6e88f9345fdf3faddb650a988deb876e827",
  "confirmations": 52020,
  "height": 213,
  "version": 1,
  "versionHex": "00000001",
  "merkleroot": "f2f1c70f29204fdf71f8f158b5f0e8f56aa6bc9a7978d44a4b481b5622a00c2f",
  "time": 1231762221,
  "mediantime": 1231758547,
  "nonce": 3802708773,
  "bits": "1d00ffff",
  "difficulty": 1,
  "chainwork": "000000000000000000000000000000000000000000000000000000d600d600d6",
  "nTx": 1,
  "previousblockhash": "000000008664fb07a9bcdc7298e0c70ed577f2915d6eb06a934921cb7fbb2aec",
  "nextblockhash": "00000000ce6a645a076668ffee89c52a85834cb8b30dff55c76418230601d42a",
  "strippedsize": 215,
  "size": 215,
  "weight": 860,
  "tx": [
    {
      "txid": "f2f1c70f29204fdf71f8f158b5f0e8f56aa6bc9a7978d44a4b481b5622a00c2f",
      "hash": "f2f1c70f29204fdf71f8f158b5f0e8f56aa6bc9a7978d44a4b481b5622a00c2f",
      "version": 1,
      "size": 134,
      "vsize": 134,
      "weight": 536,
      "locktime": 0,
      "vin": [
        {
          "coinbase": "04ffff001d0167",
          "sequence": 4294967295
        }
      ],
      "vout": [
        {
          "value": 50.0,
          "n": 0,
          "scriptPubKey": {
            "asm": "048df35924b8a32cc839bd46cebf11ed2e341d5692dd39eb681ba4813c3e87710c57405ad6b38b85652a1f024ccf42bc36b2850dabe1a7e7f659ce7a520bd397d9 OP_CHECKSIG",
            "desc": "pk(048df35924b8a32cc839bd46cebf11ed2e341d5692dd39eb681ba4813c3e87710c57405ad6b38b85652a1f024ccf42bc36b2850dabe1a7e7f659ce7a520bd397d9)#u9644d9j",
            "hex": "41048df35924b8a32cc839bd46cebf11ed2e341d5692dd39eb681ba4813c3e87710c57405ad6b38b85652a1f024ccf42bc36b2850dabe1a7e7f659ce7a520bd397d9ac",
            "type": "pubkey"
          }
        }
      ],
      "hex": "01000000010000000000000000000000000000000000000000000000000000000000000000ffffffff0704ffff001d0167ffffffff0100f2052a010000004341048df35924b8a32cc839bd46cebf11ed2e341d5692dd39eb681ba4813c3e87710c57405ad6b38b85652a1f024ccf42bc36b2850dabe1a7e7f659ce7a520bd397d9ac00000000"
    }
  ]
}