{
  "hash": "00000000b438134d05768a01a2e9edcdfa53fd92f1ee3eaf5d9cb2e63cc14cb6",
  "confirmations": 46663,
  "height": 6435,
  "version": 1,
  "versionHex": "00000001",
  "merkleroot": "4f3a5ddfc4b11e3a1a7c580ada2ffbb3bcdc258b74a7aa33eb7794f7c2b8bed5",
  "time": 1236282972,
  "mediantime": 1236277991,
  "nonce": 1957788474,
  "bits": "1d00ffff",
  "difficulty": 1,
  "chainwork": "0000000000000000000000000000000000000000000000000000192419241924",
  "nTx": 1,
  "previousblockhash": "0000000096167d3f681344c10474938f00eadd1f4063395a8c6c559492afc1bb",
  "nextblockhash": "000000008dd41ffb464614945fd529665f8581179d84383bd121024988cce9d8",
  "strippedsize": 216,
  "size": 216,
  "weight": 864,
  "tx": [
    {
      "txid": "4f3a5ddfc4b11e3a1a7c580ada2ffbb3bcdc258b74a7aa33eb7794f7c2b8bed5",
      "hash": "4f3a5ddfc4b11e3a1a7c580ada2ffbb3bcdc258b74a7aa33eb7794f7c2b8bed5",
      "version": 1,
      "size": 135,
      "vsize": 135,
      "weight": 540,
      "locktime": 0,
      "vin": [
        {
          "coinbase": "04ffff001d026b02",
          "sequence": 4294967295
        }
      ],
      "vout": [
        {
          "value": 50.0,
          "n": 0,
          "scriptPubKey": {
            "asm": "047a68b6f326373ad00e1668963cfb0022a9cfc895df7022931102fc900ac63dab094936aacbade4c75b3db6a2ff749c06190b7c336d3f8ab81295592ff8901fa2 OP_CHECKSIG",
            "desc": "pk(047a68b6f326373ad00e1668963cfb0022a9cfc895df7022931102fc900ac63dab094936aacbade4c75b3db6a2ff749c06190b7c336d3f8ab81295592ff8901fa2)#08ef9vv4",
            "hex": "41047a68b6f326373ad00e1668963cfb0022a9cfc895df7022931102fc900ac63dab094936aacbade4c75b3db6a2ff749c06190b7c336d3f8ab81295592ff8901fa2ac",
            "type": "pubkey"
          }
        }
      ],
      "hex": "01000000010000000000000000000000000000000000000000000000000000000000000000ffffffff0804ffff001d026b02ffffffff0100f2052a010000004341047a68b6f326373ad00e1668963cfb0022a9cfc895df7022931102fc900ac63dab094936aacbade4c75b3db6a2ff749c06190b7c336d3f8ab81295592ff8901fa2ac00000000"
    }
  ]
}