{
  "hash": "0000000024c6a84ddf1a85c22e955d6b016cf13611257ad8f634cb4730158157",
  "confirmations": 52342,
  "height": 756,
  "version": 1,
  "versionHex": "00000001",
  "merkleroot": "f45b2c9482d868a6f40c6fda166cea27c3c5e5c4e6eaa1e809a024e2bc5ada4f",
  "time": 1232156539,
  "mediantime": 1232152910,
  "nonce": 2559017728,
  "bits": "1d00ffff",
  "difficulty": 1,
  "chainwork": "000000000000000000000000000000000000000000000000000002f502f502f5",
  "nTx": 1,
  "previousblockhash": "00000000232f4805b3516eb9361c2e0e0cc3fd9ebbdcbb969e2a5b117a8bc28c",
  "nextblockhash": "0000000085dc21acb05334554ee42d3564a9131b589511bb261f026fa99822d2",
  "strippedsize": 216,
  "size": 216,
  "weight": 864,
  "tx": [
    {
      "txid": "f45b2c9482d868a6f40c6fda166cea27c3c5e5c4e6eaa1e809a024e2bc5ada4f",
      "hash": "f45b2c9482d868a6f40c6fda166cea27c3c5e5c4e6eaa1e809a024e2bc5ada4f",
      "version": 1,
      "size": 135,
      "vsize": 135,
      "weight": 540,
      "locktime": 0,
      "vin": [
        {
          "coinbase": "04ffff001d02b600",
          "sequence": 4294967295
        }
      ],
      "vout": [
        {
          "value": 50.0,
          "n": 0,
          "scriptPubKey": {
            "asm": "04dbe4c46a47e33bcb14e01f8a9c62eda840ad2906ad7d7490df744b7d3a1fc15e5869deb810ec88029e79ab89e96a0ba482ccb27335c46f9c357597844769f975 OP_CHECKSIG",
            "desc": "pk(04dbe4c46a47e33bcb14e01f8a9c62eda840ad2906ad7d7490df744b7d3a1fc15e5869deb810ec88029e79ab89e96a0ba482ccb27335c46f9c357597844769f975)#5u22lwr0",
            "hex": "4104dbe4c46a47e33bcb14e01f8a9c62eda840ad2906ad7d7490df744b7d3a1fc15e5869deb810ec88029e79ab89e96a0ba482ccb27335c46f9c357597844769f975ac",
            "type": "pubkey"
          }
        }
      ],
      "hex": "01000000010000000000000000000000000000000000000000000000000000000000000000ffffffff0804ffff001d02b600ffffffff0100f2052a01000000434104dbe4c46a47e33bcb14e01f8a9c62eda840ad2906ad7d7490df744b7d3a1fc15e5869deb810ec88029e79ab89e96a0ba482ccb27335c46f9c357597844769f975ac00000000"
    }
  ]
}