{
  "hash": "0000000024c7c278a590ac887444b6df9b4da6d270956150da1b9523526bf4cf",
  "confirmations": 46589,
  "height": 6509,
  "version": 1,
  "versionHex": "00000001",
  "merkleroot": "b09b9b42deea963f1acef71d025d427f6f3592cf38bf4ac27811cf491672a2e1",
  "time": 1236335700,
  "mediantime": 1236334526,
  "nonce": 17365954,
  "bits": "1d00ffff",
  "difficulty": 1,
  "chainwork": "0000000000000000000000000000000000000000000000000000196e196e196e",
  "nTx": 1,
  "previousblockhash": "00000000c4d13d92a65b63727e8198d2a3b34159e359afa840a4ec248e4b22dc",
  "nextblockhash": "00000000e6dbc27bd2302cb2c2fb05c3b2f358cb3067e7f9bd2860458fabf96e",
  "strippedsize": 216,
  "size": 216,
  "weight": 864,
  "tx": [
    {
      "txid": "b09b9b42deea963f1acef71d025d427f6f3592cf38bf4ac27811cf491672a2e1",
      "hash": "b09b9b42deea963f1acef71d025d427f6f3592cf38bf4ac27811cf491672a2e1",
      "version": 1,
      "size": 135,
      "vsize": 135,
      "weight": 540,
      "locktime": 0,
      "vin": [
        {
          "coinbase": "04ffff001d021f04",
          "sequence": 4294967295
        }
      ],
      "vout": [
        {
          "value": 50.0,
          "n": 0,
          "scriptPubKey": {
            "asm": "0476b98c150d22709ec847ab501baccee903a03e38008be304c64c7cd4902dc0caec5b22251d71ea2f61709587b60154c7e2854b8db82603045ffa0ac1bfbdce6a OP_CHECKSIG",
            "desc": "pk(0476b98c150d22709ec847ab501baccee903a03e38008be304c64c7cd4902dc0caec5b22251d71ea2f61709587b60154c7e2854b8db82603045ffa0ac1bfbdce6a)#98fuxm86",
            "hex": "410476b98c150d22709ec847ab501baccee903a03e38008be304c64c7cd4902dc0caec5b22251d71ea2f61709587b60154c7e2854b8db82603045ffa0ac1bfbdce6aac",
            "type": "pubkey"
          }
        }
      ],
      "hex": "01000000010000000000000000000000000000000000000000000000000000000000000000ffffffff0804ffff001d021f04ffffffff0100f2052a0100000043410476b98c150d22709ec847ab501baccee903a03e38008be304c64c7cd4902dc0caec5b22251d71ea2f61709587b60154c7e2854b8db82603045ffa0ac1bfbdce6aac00000000"
    }
  ]
}