{
  "hash": "000000005648ebad9408c390f96dfae2ab036014ef4ab4001f0def471b83f049",
  "confirmations": 45218,
  "height": 7880,
  "version": 1,
  "versionHex": "00000001",
  "merkleroot": "1bb65fe7f4d4db9634b769703520b8919feedf150c97ab2e484beb3c02d5a6eb",
  "time": 1237378068,
  "mediantime": 1237373359,
  "nonce": 105267512,
  "bits": "1d00ffff",
  "difficulty": 1,
  "chainwork": "00000000000000000000000000000000000000000000000000001ec91ec91ec9",
  "nTx": 1,
  "previousblockhash": "0000000098487e634c1ca371e8ed656336983e8fb1a6836a1bb3e63d174182bf",
  "nextblockhash": "00000000abbdfe0b7f53e2b4749e14076db5b620855bbef3c911a8f095c80daf",
  "strippedsize": 216,
  "size": 216,
  "weight": 864,
  "tx": [
    {
      "txid": "1bb65fe7f4d4db9634b769703520b8919feedf150c97ab2e484beb3c02d5a6eb",
      "hash": "1bb65fe7f4d4db9634b769703520b8919feedf150c97ab2e484beb3c02d5a6eb",
      "version": 1,
      "size": 135,
      "vsize": 135,
      "weight": 540,
      "locktime": 0,
      "vin": [
        {
          "coinbase": "04ffff001d022907",
          "sequence": 4294967295
        }
      ],
      "vout": [
        {
          "value": 50.0,
          "n": 0,
          "scriptPubKey": {
            "asm": "048ddd3c3fead3840926fb8875ac44c3f29fcd61f841feb8f929e0da03a85b3db30100baed407c52333f73176318a5db1f89c3ca6f0af138597e7755021baa9632 OP_CHECKSIG",
            "desc": "pk(048ddd3c3fead3840926fb8875ac44c3f29fcd61f841feb8f929e0da03a85b3db30100baed407c52333f73176318a5db1f89c3ca6f0af138597e7755021baa9632)#amgh9yr6",
            "hex": "41048ddd3c3fead3840926fb8875ac44c3f29fcd61f841feb8f929e0da03a85b3db30100baed407c52333f73176318a5db1f89c3ca6f0af138597e7755021baa9632ac",
            "type": "pubkey"
          }
        }
      ],
      "hex": "01000000010000000000000000000000000000000000000000000000000000000000000000ffffffff0804ffff001d022907ffffffff0100f2052a010000004341048ddd3c3fead3840926fb8875ac44c3f29fcd61f841feb8f929e0da03a85b3db30100baed407c52333f73176318a5db1f89c3ca6f0af138597e7755021baa9632ac00000000"
    }
  ]
}