{
  "hash": "000000003632eaf7db30127b94b030dd558e8a903eac8f66c8407113d97ceb84",
  "confirmations": 45782,
  "height": 7316,
  "version": 1,
  "versionHex": "00000001",
  "merkleroot": "6a46f3acf74605517a414121f805d9ff91ef33f688a85975475997936a210727",
  "time": 1236960287,
  "mediantime": 1236956079,
  "nonce": 2977677825,
  "bits": "1d00ffff",
  "difficulty": 1,
  "chainwork": "00000000000000000000000000000000000000000000000000001c951c951c95",
  "nTx": 1,
  "previousblockhash": "00000000beedef81f6ac28e034c64a09bb3accbab36bb08a446ee12589cdaeb0",
  "nextblockhash": "00000000e6a4ad5af7454931b946d1bf94ea90de5e9edc1ae8cea11688169598",
  "strippedsize": 216,
  "size": 216,
  "weight": 864,
  "tx": [
    {
      "txid": "6a46f3acf74605517a414121f805d9ff91ef33f688a85975475997936a210727",
      "hash": "6a46f3acf74605517a414121f805d9ff91ef33f688a85975475997936a210727",
      "version": 1,
      "size": 135,
      "vsize": 135,
      "weight": 540,
      "locktime": 0,
      "vin": [
        {
          "coinbase": "04ffff001d02d507",
          "sequence": 4294967295
        }
      ],
      "vout": [
        {
          "value": 50.0,
          "n": 0,
          "scriptPubKey": {
            "asm": "047453cdc2737ad81fef1416c10232c417ff4d3280ed320dca6494da0e4233a1d63589f82ae578fd975b33c37ec4d753917246efeae860f42262f605c935285120 OP_CHECKSIG",
            "desc": "pk(047453cdc2737ad81fef1416c10232c417ff4d3280ed320dca6494da0e4233a1d63589f82ae578fd975b33c37ec4d753917246efeae860f42262f605c935285120)#94jexlgz",
            "hex": "41047453cdc2737ad81fef1416c10232c417ff4d3280ed320dca6494da0e4233a1d63589f82ae578fd975b33c37ec4d753917246efeae860f42262f605c935285120ac",
            "type": "pubkey"
          }
        }
      ],
      "hex": "01000000010000000000000000000000000000000000000000000000000000000000000000ffffffff0804ffff001d02d507ffffffff0100f2052a010000004341047453cdc2737ad81fef1416c10232c417ff4d3280ed320dca6494da0e4233a1d63589f82ae578fd975b33c37ec4d753917246efeae860f42262f605c935285120ac00000000"
    }
  ]
}