{
  "hash": "00000000b8e3e02c93d42452ef0cce4b5ca4c91ac776f77de818462aa43c5deb",
  "confirmations": 48124,
  "height": 4974,
  "version": 1,
  "versionHex": "00000001",
  "merkleroot": "b386e856743aff67d39ffd05abedc1d1af7e8aef9647c638daf15b50d384bf34",
  "time": 1235122280,
  "mediantime": 1235118307,
  "nonce": 803666693,
  "bits": "1d00ffff",
  "difficulty": 1,
  "chainwork": "0000000000000000000000000000000000000000000000000000136f136f136f",
  "nTx": 1,
  "previousblockhash": "000000009129b24b6e982af7f065cd4473dd4d73f2a68da05a2b867dd968cc73",
  "nextblockhash": "00000000a4899a52e166b3da8be35c41dc700ac52661cb7c75e0f6045ff88b28",
  "strippedsize": 216,
  "size": 216,
  "weight": 864,
  "tx": [
    {
      "txid": "b386e856743aff67d39ffd05abedc1d1af7e8aef9647c638daf15b50d384bf34",
      "hash": "b386e856743aff67d39ffd05abedc1d1af7e8aef9647c638daf15b50d384bf34",
      "version": 1,
      "size": 135,
      "vsize": 135,
      "weight": 540,
      "locktime": 0,
      "vin": [
        {
          "coinbase": "04ffff001d02b106",
          "sequence": 4294967295
        }
      ],
      "vout": [
        {
          "value": 50.0,
          "n": 0,
          "scriptPubKey": {
            "asm": "04fd520c755055cdbaae8ac30109304bbc464a8e74f3e11acad010ab2bf1cc3f81225df3f17d4f5d5fa814b342093b840ec2a0dade590a17e0c91103d27b2cc91c OP_CHECKSIG",
            "desc": "pk(04fd520c755055cdbaae8ac30109304bbc464a8e74f3e11acad010ab2bf1cc3f81225df3f17d4f5d5fa814b342093b840ec2a0dade590a17e0c91103d27b2cc91c)#j3zfs36f",
            "hex": "4104fd520c755055cdbaae8ac30109304bbc464a8e74f3e11acad010ab2bf1cc3f81225df3f17d4f5d5fa814b342093b840ec2a0dade590a17e0c91103d27b2cc91cac",
            "type": "pubkey"
          }
        }
      ],
      "hex": "01000000010000000000000000000000000000000000000000000000000000000000000000ffffffff0804ffff001d02b106ffffffff0100f2052a01000000434104fd520c755055cdbaae8ac30109304bbc464a8e74f3e11acad010ab2bf1cc3f81225df3f17d4f5d5fa814b342093b840ec2a0dade590a17e0c91103d27b2cc91cac00000000"
    }
  ]
}