{
  "hash": "00000000ca391d792442f1bee1863e4007df4575eb1dc8566cc14755e5b397bb",
  "confirmations": 46481,
  "height": 6617,
  "version": 1,
  "versionHex": "00000001",
  "merkleroot": "2d86b873843aec83fc003805917ea7840c29ef37c9a3ed370898f2cfff68149c",
  "time": 1236416418,
  "mediantime": 1236412845,
  "nonce": 3466243080,
  "bits": "1d00ffff",
  "difficulty": 1,
  "chainwork": "000000000000000000000000000000000000000000000000000019da19da19da",
  "nTx": 1,
  "previousblockhash": "00000000c6d0f26ad10a297481f1af0607bd07b5aa18c0cd3a9124b6e3e5fc7a",
  "nextblockhash": "00000000ea99f0abd8798df94b3d09b0da09c41ef322c8303c4e89e8a7b91c07",
  "strippedsize": 216,
  "size": 216,
  "weight": 864,
  "tx": [
    {
      "txid": "2d86b873843aec83fc003805917ea7840c29ef37c9a3ed370898f2cfff68149c",
      "hash": "2d86b873843aec83fc003805917ea7840c29ef37c9a3ed370898f2cfff68149c",
      "version": 1,
      "size": 135,
      "vsize": 135,
      "weight": 540,
      "locktime": 0,
      "vin": [
        {
          "coinbase": "04ffff001d026405",
          "sequence": 4294967295
        }
      ],
      "vout": [
        {
          "value": 50.0,
          "n": 0,
          "scriptPubKey": {
            "asm": "046803de67e3477aecc88d86384d7985df31d2f30a00999b0889acc1dae26e907459d85026a9bf68787e19e7f2b391e6e2c4711efd6b8464df377de9d816d7c96c OP_CHECKSIG",
            "desc": "pk(046803de67e3477aecc88d86384d7985df31d2f30a00999b0889acc1dae26e907459d85026a9bf68787e19e7f2b391e6e2c4711efd6b8464df377de9d816d7c96c)#rphg2vwk",
            "hex": "41046803de67e3477aecc88d86384d7985df31d2f30a00999b0889acc1dae26e907459d85026a9bf68787e19e7f2b391e6e2c4711efd6b8464df377de9d816d7c96cac",
            "type": "pubkey"
          }
        }
      ],
      "hex": "01000000010000000000000000000000000000000000000000000000000000000000000000ffffffff0804ffff001d026405ffffffff0100f2052a010000004341046803de67e3477aecc88d86384d7985df31d2f30a00999b0889acc1dae26e907459d85026a9bf68787e19e7f2b391e6e2c4711efd6b8464df377de9d816d7c96cac00000000"
    }
  ]
}