{
  "hash": "00000000ac283a2fea309bfcb78e819acd0e17b59dd8d11f69844089f5d96c38",
  "confirmations": 45143,
  "height": 7955,
  "version": 1,
  "versionHex": "00000001",
  "merkleroot": "d39283f7a4982673fd0ff39e6ef1790b8e5670cb249156f3389835eb7d204e8e",
  "time": 1237430903,
  "mediantime": 1237427295,
  "nonce": 3166042679,
  "bits": "1d00ffff",
  "difficulty": 1,
  "chainwork": "00000000000000000000000000000000000000000000000000001f141f141f14",
  "nTx": 1,
  "previousblockhash": "00000000bedd5e3eacd5152622c5b1db0f5293b4a79faf62d92f3ca510995e49",
  "nextblockhash": "000000006f62312d51a2a6ed11fa0fd96e087f1d7f29e6ff047a25bc3bcf739c",
  "strippedsize": 216,
  "size": 216,
  "weight": 864,
  "tx": [
    {
      "txid": "d39283f7a4982673fd0ff39e6ef1790b8e5670cb249156f3389835eb7d204e8e",
      "hash": "d39283f7a4982673fd0ff39e6ef1790b8e5670cb249156f3389835eb7d204e8e",
      "version": 1,
      "size": 135,
      "vsize": 135,
      "weight": 540,
      "locktime": 0,
      "vin": [
        {
          "coinbase": "04ffff001d028208",
          "sequence": 4294967295
        }
      ],
      "vout": [
        {
          "value": 50.0,
          "n": 0,
          "scriptPubKey": {
            "asm": "04c4970f323d0c5df1285b2cfa97d149d8f8d8dd19d22de0206effe29fb7d9d01eb96b2466dafbc1471de8ff6879c1138130c7f33c012619846f841de5e60a5939 OP_CHECKSIG",
            "desc": "pk(04c4970f323d0c5df1285b2cfa97d149d8f8d8dd19d22de0206effe29fb7d9d01eb96b2466dafbc1471de8ff6879c1138130c7f33c012619846f841de5e60a5939)#ejxe2smw",
            "hex": "4104c4970f323d0c5df1285b2cfa97d149d8f8d8dd19d22de0206effe29fb7d9d01eb96b2466dafbc1471de8ff6879c1138130c7f33c012619846f841de5e60a5939ac",
            "type": "pubkey"
          }
        }
      ],
      "hex": "01000000010000000000000000000000000000000000000000000000000000000000000000ffffffff0804ffff001d028208ffffffff0100f2052a01000000434104c4970f323d0c5df1285b2cfa97d149d8f8d8dd19d22de0206effe29fb7d9d01eb96b2466dafbc1471de8ff6879c1138130c7f33c012619846f841de5e60a5939ac00000000"
    }
  ]
}