{
  "hash": "0000000087de57fc9b594b637aa9712042d6ecc17aa605a298a81301f7e9ea22",
  "confirmations": 45662,
  "height": 7436,
  "version": 1,
  "versionHex": "00000001",
  "merkleroot": "254d38e9f1410ba0c4be12f1407b86214bad883f0325f18f5da2257ff4e47b42",
  "time": 1237050772,
  "mediantime": 1237045845,
  "nonce": 2601259034,
  "bits": "1d00ffff",
  "difficulty": 1,
  "chainwork": "00000000000000000000000000000000000000000000000000001d0d1d0d1d0d",
  "nTx": 1,
  "previousblockhash": "00000000348039e8d178858611718957e6f8276875638bce6aff8bd6d8e46aed",
  "nextblockhash": "00000000bb8a6faa139493591e11b6684b6bd920ee420f0f1ad8472c9c7b68ae",
  "strippedsize": 216,
  "size": 216,
  "weight": 864,
  "tx": [
    {
      "txid": "254d38e9f1410ba0c4be12f1407b86214bad883f0325f18f5da2257ff4e47b42",
      "hash": "254d38e9f1410ba0c4be12f1407b86214bad883f0325f18f5da2257ff4e47b42",
      "version": 1,
      "size": 135,
      "vsize": 135,
      "weight": 540,
      "locktime": 0,
      "vin": [
        {
          "coinbase": "04ffff001d021d0a",
          "sequence": 4294967295
        }
      ],
      "vout": [
        {
          "value": 50.0,
          "n": 0,
          "scriptPubKey": {
            "asm": "04bf91daef78b5bfa2d00ca52e4a23fcf8b329e65979e0a9ec3ccb96aed470bbde33f070a11add101d16b5d7791ffc4a09f4fd656b2a8f35fb1287e0b1e2d162dd OP_CHECKSIG",
            "desc": "pk(04bf91daef78b5bfa2d00ca52e4a23fcf8b329e65979e0a9ec3ccb96aed470bbde33f070a11add101d16b5d7791ffc4a09f4fd656b2a8f35fb1287e0b1e2d162dd)#tsh758u8",
            "hex": "4104bf91daef78b5bfa2d00ca52e4a23fcf8b329e65979e0a9ec3ccb96aed470bbde33f070a11add101d16b5d7791ffc4a09f4fd656b2a8f35fb1287e0b1e2d162ddac",
            "type": "pubkey"
          }
        }
      ],
      "hex": "01000000010000000000000000000000000000000000000000000000000000000000000000ffffffff0804ffff001d021d0affffffff0100f2052a01000000434104bf91daef78b5bfa2d00ca52e4a23fcf8b329e65979e0a9ec3ccb96aed470bbde33f070a11add101d16b5d7791ffc4a09f4fd656b2a8f35fb1287e0b1e2d162ddac00000000"
    }
  ]
}