{
  "hash": "000000002143af98b512539f53baa647f3ca851f27dab0076b81fa466b851cc0",
  "confirmations": 49274,
  "height": 3824,
  "version": 1,
  "versionHex": "00000001",
  "merkleroot": "c2852bb17d22cfc2d3c60541f639ba74a9b1e87829f869beb31f17bc3387e07e",
  "time": 1234319719,
  "mediantime": 1234316901,
  "nonce": 2826450715,
  "bits": "1d00ffff",
  "difficulty": 1,
  "chainwork": "00000000000000000000000000000000000000000000000000000ef10ef10ef1",
  "nTx": 1,
  "previousblockhash": "000000003accdd74c6ea69311171170403a757cfa10c9747db772f5034bc55f9",
  "nextblockhash": "0000000085a45ffce476931abfeb6fbdfcb2c940b7c9aaf35124926dae2bc435",
  "strippedsize": 216,
  "size": 216,
  "weight": 864,
  "tx": [
    {
      "txid": "c2852bb17d22cfc2d3c60541f639ba74a9b1e87829f869beb31f17bc3387e07e",
      "hash": "c2852bb17d22cfc2d3c60541f639ba74a9b1e87829f869beb31f17bc3387e07e",
      "version": 1,
      "size": 135,
      "vsize": 135,
      "weight": 540,
      "locktime": 0,
      "vin": [
        {
          "coinbase": "04ffff001d028d01",
          "sequence": 4294967295
        }
      ],
      "vout": [
        {
          "value": 50.0,
          "n": 0,
          "scriptPubKey": {
            "asm": "04da6d873401706f3b7655b2817fab77176bcd7b6cc0295597b76c00d72fac335bcda5142322ebdc646191a43e8ca63d5cea303587fd459a692f5e803fa80381d7 OP_CHECKSIG",
            "desc": "pk(04da6d873401706f3b7655b2817fab77176bcd7b6cc0295597b76c00d72fac335bcda5142322ebdc646191a43e8ca63d5cea303587fd459a692f5e803fa80381d7)#0rgx3ctf",
            "hex": "4104da6d873401706f3b7655b2817fab77176bcd7b6cc0295597b76c00d72fac335bcda5142322ebdc646191a43e8ca63d5cea303587fd459a692f5e803fa80381d7ac",
            "type": "pubkey"
          }
        }
      ],
      "hex": "01000000010000000000000000000000000000000000000000000000000000000000000000ffffffff0804ffff001d028d01ffffffff0100f2052a01000000434104da6d873401706f3b7655b2817fab77176bcd7b6cc0295597b76c00d72fac335bcda5142322ebdc646191a43e8ca63d5cea303587fd459a692f5e803fa80381d7ac00000000"
    }
  ]
}