{
  "hash": "00000000a63dbd1af1c10c89a744f7412bb74d4d4166b3f19e97708d13944b5d",
  "confirmations": 46455,
  "height": 6643,
  "version": 1,
  "versionHex": "00000001",
  "merkleroot": "5ed64276192eabc7aa55753dc8b4e021a6bb0bfa7de366b908d5058bedaafb6b",
  "time": 1236440026,
  "mediantime": 1236433947,
  "nonce": 1499504905,
  "bits": "1d00ffff",
  "difficulty": 1,
  "chainwork": "000000000000000000000000000000000000000000000000000019f419f419f4",
  "nTx": 1,
  "previousblockhash": "000000002287cb732959159d6c02b959040d96f9947c7a08a02f1e2774cd2151",
  "nextblockhash": "000000005aa111ef0160c43e32ec63993adc8d550af23c11d754e83ba1619482",
  "strippedsize": 216,
  "size": 216,
  "weight": 864,
  "tx": [
    {
      "txid": "5ed64276192eabc7aa55753dc8b4e021a6bb0bfa7de366b908d5058bedaafb6b",
      "hash": "5ed64276192eabc7aa55753dc8b4e021a6bb0bfa7de366b908d5058bedaafb6b",
      "version": 1,
      "size": 135,
      "vsize": 135,
      "weight": 540,
      "locktime": 0,
      "vin": [
        {
          "coinbase": "04ffff001d02fb05",
          "sequence": 4294967295
        }
      ],
      "vout": [
        {
          "value": 50.0,
          "n": 0,
          "scriptPubKey": {
            "asm": "04986b12ec4e1fc55c57ac9fa546e5488ec79e40d2c7e5e1f5cbec9adbf945ccf64ef4095289822efda51edbd19f9af457d4a4ed73111077511c8927e375d83546 OP_CHECKSIG",
            "desc": "pk(04986b12ec4e1fc55c57ac9fa546e5488ec79e40d2c7e5e1f5cbec9adbf945ccf64ef4095289822efda51edbd19f9af457d4a4ed73111077511c8927e375d83546)#pajwvu9s",
            "hex": "4104986b12ec4e1fc55c57ac9fa546e5488ec79e40d2c7e5e1f5cbec9adbf945ccf64ef4095289822efda51edbd19f9af457d4a4ed73111077511c8927e375d83546ac",
            "type": "pubkey"
          }
        }
      ],
      "hex": "01000000010000000000000000000000000000000000000000000000000000000000000000ffffffff0804ffff001d02fb05ffffffff0100f2052a01000000434104986b12ec4e1fc55c57ac9fa546e5488ec79e40d2c7e5e1f5cbec9adbf945ccf64ef4095289822efda51edbd19f9af457d4a4ed73111077511c8927e375d83546ac00000000"
    }
  ]
}