{
  "hash": "00000000cd81bc90bb330c6010750be2590b98c434d062dbe9767b0775a623c9",
  "confirmations": 49122,
  "height": 3976,
  "version": 1,
  "versionHex": "00000001",
  "merkleroot": "a5d48fa4025e1acf1e74c5ab5ebc869d7134c75308f4fce936338b9cf522acfe",
  "time": 1234424186,
  "mediantime": 1234420359,
  "nonce": 2056501293,
  "bits": "1d00ffff",
  "difficulty": 1,
  "chainwork": "00000000000000000000000000000000000000000000000000000f890f890f89",
  "nTx": 1,
  "previousblockhash": "000000007dd71351eea076a9ed1918373e6c4834d984c73723dc0162a1b1cc38",
  "nextblockhash": "0000000072cdd67f39f045718208dfc3357cbc18662eeb01742f0b9b1eaf709a",
  "strippedsize": 216,
  "size": 216,
  "weight": 864,
  "tx": [
    {
      "txid": "a5d48fa4025e1acf1e74c5ab5ebc869d7134c75308f4fce936338b9cf522acfe",
      "hash": "a5d48fa4025e1acf1e74c5ab5ebc869d7134c75308f4fce936338b9cf522acfe",
      "version": 1,
      "size": 135,
      "vsize": 135,
      "weight": 540,
      "locktime": 0,
      "vin": [
        {
          "coinbase": "04ffff001d02f603",
          "sequence": 4294967295
        }
      ],
      "vout": [
        {
          "value": 50.0,
          "n": 0,
          "scriptPubKey": {
            "asm": "0418fd83b7e35914cd23cfa98bcd9bf79dd0ffbb241dfff0896e858238b2e744c0507a45b739c8ee90b6b9f2ad715f5f2e5a66839de186a476416b5ebfb1a536a2 OP_CHECKSIG",
            "desc": "pk(0418fd83b7e35914cd23cfa98bcd9bf79dd0ffbb241dfff0896e858238b2e744c0507a45b739c8ee90b6b9f2ad715f5f2e5a66839de186a476416b5ebfb1a536a2)#lwjz9296",
            "hex": "410418fd83b7e35914cd23cfa98bcd9bf79dd0ffbb241dfff0896e858238b2e744c0507a45b739c8ee90b6b9f2ad715f5f2e5a66839de186a476416b5ebfb1a536a2ac",
            "type": "pubkey"
          }
        }
      ],
      "hex": "01000000010000000000000000000000000000000000000000000000000000000000000000ffffffff0804ffff001d02f603ffffffff0100f2052a0100000043410418fd83b7e35914cd23cfa98bcd9bf79dd0ffbb241dfff0896e858238b2e744c0507a45b739c8ee90b6b9f2ad715f5f2e5a66839de186a476416b5ebfb1a536a2ac00000000"
    }
  ]
}