{
  "hash": "00000000c6e8cbdccf6d51b66c59ac4ebd22959060ce1ec55dcff5843160a492",
  "confirmations": 47938,
  "height": 5160,
  "version": 1,
  "versionHex": "00000001",
  "merkleroot": "6e100c2d5ab9df48ace354ff94893bd802e29c98f579901cfe8c37bf433242ce",
  "time": 1235259294,
  "mediantime": 1235256474,
  "nonce": 99427526,
  "bits": "1d00ffff",
  "difficulty": 1,
  "chainwork": "0000000000000000000000000000000000000000000000000000142914291429",
  "nTx": 1,
  "previousblockhash": "0000000001b376dfebd38cd56cf5befa1522eca4ec0b5203d3c9713fadbaaa4c",
  "nextblockhash": "000000009de59ca8e81e609f370b879d5b819b19c42460ff5430ce556282f175",
  "strippedsize": 216,
  "size": 216,
  "weight": 864,
  "tx": [
    {
      "txid": "6e100c2d5ab9df48ace354ff94893bd802e29c98f579901cfe8c37bf433242ce",
      "hash": "6e100c2d5ab9df48ace354ff94893bd802e29c98f579901cfe8c37bf433242ce",
      "version": 1,
      "size": 135,
      "vsize": 135,
      "weight": 540,
      "locktime": 0,
      "vin": [
        {
          "coinbase": "04ffff001d02c10c",
          "sequence": 4294967295
        }
      ],
      "vout": [
        {
          "value": 50.0,
          "n": 0,
          "scriptPubKey": {
            "asm": "04eaad3032ea33996ee18260bacd4171bcb214b8246112827717917153c05e30d38ce4c64e93e240817e6ae8c2e155158c0528b5c3411b595f7a6f71f5e2d206d5 OP_CHECKSIG",
            "desc": "pk(04eaad3032ea33996ee18260bacd4171bcb214b8246112827717917153c05e30d38ce4c64e93e240817e6ae8c2e155158c0528b5c3411b595f7a6f71f5e2d206d5)#szsh3ym0",
            "hex": "4104eaad3032ea33996ee18260bacd4171bcb214b8246112827717917153c05e30d38ce4c64e93e240817e6ae8c2e155158c0528b5c3411b595f7a6f71f5e2d206d5ac",
            "type": "pubkey"
          }
        }
      ],
      "hex": "01000000010000000000000000000000000000000000000000000000000000000000000000ffffffff0804ffff001d02c10cffffffff0100f2052a01000000434104eaad3032ea33996ee18260bacd4171bcb214b8246112827717917153c05e30d38ce4c64e93e240817e6ae8c2e155158c0528b5c3411b595f7a6f71f5e2d206d5ac00000000"
    }
  ]
}