{
  "hash": "00000000aa7ada2a039524c4ad0758d07c67a9104c4d8a35b5a27ed00d0967e7",
  "confirmations": 52530,
  "height": 568,
  "version": 1,
  "versionHex": "00000001",
  "merkleroot": "37f151c4408b422d5e206176c5aac3d2d6521dfe1c11fb1099c440db59e3d679",
  "time": 1232015450,
  "mediantime": 1232012402,
  "nonce": 3428779527,
  "bits": "1d00ffff",
  "difficulty": 1,
  "chainwork": "0000000000000000000000000000000000000000000000000000023902390239",
  "nTx": 1,
  "previousblockhash": "0000000014d1fd4bbd117d952efac678911969dee3640944a830d024b9eb7375",
  "nextblockhash": "00000000e0f7dd0286f1bae123c899d3ff207afddc14a103d2e4ddf995bb9deb",
  "strippedsize": 216,
  "size": 216,
  "weight": 864,
  "tx": [
    {
      "txid": "37f151c4408b422d5e206176c5aac3d2d6521dfe1c11fb1099c440db59e3d679",
      "hash": "37f151c4408b422d5e206176c5aac3d2d6521dfe1c11fb1099c440db59e3d679",
      "version": 1,
      "size": 135,
      "vsize": 135,
      "weight": 540,
      "locktime": 0,
      "vin": [
        {
          "coinbase": "04ffff001d020206",
          "sequence": 4294967295
        }
      ],
      "vout": [
        {
          "value": 50.0,
          "n": 0,
          "scriptPubKey": {
            "asm": "049963432d7cea6bfb4a4731747e7fa74a04c20eb9c014d9e23dbcb4b3205a4d0b36d03e8231e06b32270e28c0f408b4573fe597b1a440510e5b8d19e029705a39 OP_CHECKSIG",
            "desc": "pk(049963432d7cea6bfb4a4731747e7fa74a04c20eb9c014d9e23dbcb4b3205a4d0b36d03e8231e06b32270e28c0f408b4573fe597b1a440510e5b8d19e029705a39)#p0dat6vt",
            "hex": "41049963432d7cea6bfb4a4731747e7fa74a04c20eb9c014d9e23dbcb4b3205a4d0b36d03e8231e06b32270e28c0f408b4573fe597b1a440510e5b8d19e029705a39ac",
            "type": "pubkey"
          }
        }
      ],
      "hex": "01000000010000000000000000000000000000000000000000000000000000000000000000ffffffff0804ffff001d020206ffffffff0100f2052a010000004341049963432d7cea6bfb4a4731747e7fa74a04c20eb9c014d9e23dbcb4b3205a4d0b36d03e8231e06b32270e28c0f408b4573fe597b1a440510e5b8d19e029705a39ac00000000"
    }
  ]
}