{
  "hash": "000000002d942807eaecfd8c7dcd0876ad677ba0cc0324cd8764cbf36ec4a1a3",
  "confirmations": 50567,
  "height": 2531,
  "version": 1,
  "versionHex": "00000001",
  "merkleroot": "0f503e394d14d88ed0b8c8aeb91b2eaac063025f2263813ec6c35d1271f1aedb",
  "time": 1233437971,
  "mediantime": 1233434357,
  "nonce": 2825791493,
  "bits": "1d00ffff",
  "difficulty": 1,
  "chainwork": "000000000000000000000000000000000000000000000000000009e409e409e4",
  "nTx": 1,
  "previousblockhash": "00000000d177b625fedabda6866495f9c1817d65df8c4e06364a7955f4642ef3",
  "nextblockhash": "00000000c3323972d09a12c61078412126e11cc28a73fa6f3e9d3aa63234c4c4",
  "strippedsize": 216,
  "size": 216,
  "weight": 864,
  "tx": [
    {
      "txid": "0f503e394d14d88ed0b8c8aeb91b2eaac063025f2263813ec6c35d1271f1aedb",
      "hash": "0f503e394d14d88ed0b8c8aeb91b2eaac063025f2263813ec6c35d1271f1aedb",
      "version": 1,
      "size": 135,
      "vsize": 135,
      "weight": 540,
      "locktime": 0,
      "vin": [
        {
          "coinbase": "04ffff001d028301",
          "sequence": 4294967295
        }
      ],
      "vout": [
        {
          "value": 50.0,
          "n": 0,
          "scriptPubKey": {
            "asm": "047d3cc206074c4e4f136bcb0e3855a93da864b9dc67377701400eb670b29cf509a5f3ede66a41cc439455c1cc6caf8fc964abae5d0e69a307fe95191e871da656 OP_CHECKSIG",
            "desc": "pk(047d3cc206074c4e4f136bcb0e3855a93da864b9dc67377701400eb670b29cf509a5f3ede66a41cc439455c1cc6caf8fc964abae5d0e69a307fe95191e871da656)#kdq7dvu7",
            "hex": "41047d3cc206074c4e4f136bcb0e3855a93da864b9dc67377701400eb670b29cf509a5f3ede66a41cc439455c1cc6caf8fc964abae5d0e69a307fe95191e871da656ac",
            "type": "pubkey"
          }
        }
      ],
      "hex": "01000000010000000000000000000000000000000000000000000000000000000000000000ffffffff0804ffff001d028301ffffffff0100f2052a010000004341047d3cc206074c4e4f136bcb0e3855a93da864b9dc67377701400eb670b29cf509a5f3ede66a41cc439455c1cc6caf8fc964abae5d0e69a307fe95191e871da656ac00000000"
    }
  ]
}