{
  "hash": "00000000dbe2fe042255163d49fbc3001150528e3e76eb4ebbdc8a304c4c646b",
  "confirmations": 46209,
  "height": 6889,
  "version": 1,
  "versionHex": "00000001",
  "merkleroot": "88bb2bcf720294863352e4c6d9b63534771cdd612cb12f3c0755179c57987fff",
  "time": 1236628238,
  "mediantime": 1236624577,
  "nonce": 1407871284,
  "bits": "1d00ffff",
  "difficulty": 1,
  "chainwork": "00000000000000000000000000000000000000000000000000001aea1aea1aea",
  "nTx": 1,
  "previousblockhash": "00000000e22466aa2189719d6f43cc2ffdd527e18f4a6f0158ac11226aa0fe77",
  "nextblockhash": "00000000f5df9a9a3e31318ffdc8ea3f01fbca1a673222075e306f9b9da02fe3",
  "strippedsize": 215,
  "size": 215,
  "weight": 860,
  "tx": [
    {
      "txid": "88bb2bcf720294863352e4c6d9b63534771cdd612cb12f3c0755179c57987fff",
      "hash": "88bb2bcf720294863352e4c6d9b63534771cdd612cb12f3c0755179c57987fff",
      "version": 1,
      "size": 134,
      "vsize": 134,
      "weight": 536,
      "locktime": 0,
      "vin": [
        {
          "coinbase": "04ffff001d011f",
          "sequence": 4294967295
        }
      ],
      "vout": [
        {
          "value": 50.0,
          "n": 0,
          "scriptPubKey": {
            "asm": "044bd98a6b3572c1dd04f3f1fc5581552b1e339e267c2e676a228d9674886fed86dc7c534a4eafd06fce98c81978c37c700896b26ab3a7506ceccea9cd88ba3005 OP_CHECKSIG",
            "desc": "pk(044bd98a6b3572c1dd04f3f1fc5581552b1e339e267c2e676a228d9674886fed86dc7c534a4eafd06fce98c81978c37c700896b26ab3a7506ceccea9cd88ba3005)#mtl9zsjf",
            "hex": "41044bd98a6b3572c1dd04f3f1fc5581552b1e339e267c2e676a228d9674886fed86dc7c534a4eafd06fce98c81978c37c700896b26ab3a7506ceccea9cd88ba3005ac",
            "type": "pubkey"
          }
        }
      ],
      "hex": "01000000010000000000000000000000000000000000000000000000000000000000000000ffffffff0704ffff001d011fffffffff0100f2052a010000004341044bd98a6b3572c1dd04f3f1fc5581552b1e339e267c2e676a228d9674886fed86dc7c534a4eafd06fce98c81978c37c700896b26ab3a7506ceccea9cd88ba3005ac00000000"
    }
  ]
}