{
  "hash": "00000000ee4c3bfaae7ced8917c27b277b279e681f13bed9005c74e4557b27e5",
  "confirmations": 52477,
  "height": 621,
  "version": 1,
  "versionHex": "00000001",
  "merkleroot": "c22322e177db3d1687ec232688e85448a3ce812a4a5f957822eccbc73088b58a",
  "time": 1232050537,
  "mediantime": 1232046839,
  "nonce": 161715504,
  "bits": "1d00ffff",
  "difficulty": 1,
  "chainwork": "0000000000000000000000000000000000000000000000000000026e026e026e",
  "nTx": 1,
  "previousblockhash": "00000000beecc05104c1cf910a44524f717be71686f339b751824aa0e76ad313",
  "nextblockhash": "0000000045aa7ab90c20cf83d0206c6acdd431b52926962ffd46930ed7a04f5c",
  "strippedsize": 216,
  "size": 216,
  "weight": 864,
  "tx": [
    {
      "txid": "c22322e177db3d1687ec232688e85448a3ce812a4a5f957822eccbc73088b58a",
      "hash": "c22322e177db3d1687ec232688e85448a3ce812a4a5f957822eccbc73088b58a",
      "version": 1,
      "size": 135,
      "vsize": 135,
      "weight": 540,
      "locktime": 0,
      "vin": [
        {
          "coinbase": "04ffff001d02ff06",
          "sequence": 4294967295
        }
      ],
      "vout": [
        {
          "value": 50.0,
          "n": 0,
          "scriptPubKey": {
            "asm": "04c020086915cb3b9a0d80bf6401bd9e718dd2f0659b8e83f5fe92f49b90bff000501a343f2f0ed74b1d98332bff6cc71e6feee2b2fce2daa7f31130bb14209112 OP_CHECKSIG",
            "desc": "pk(04c020086915cb3b9a0d80bf6401bd9e718dd2f0659b8e83f5fe92f49b90bff000501a343f2f0ed74b1d98332bff6cc71e6feee2b2fce2daa7f31130bb14209112)#kdvnrpy8",
            "hex": "4104c020086915cb3b9a0d80bf6401bd9e718dd2f0659b8e83f5fe92f49b90bff000501a343f2f0ed74b1d98332bff6cc71e6feee2b2fce2daa7f31130bb14209112ac",
            "type": "pubkey"
          }
        }
      ],
      "hex": "01000000010000000000000000000000000000000000000000000000000000000000000000ffffffff0804ffff001d02ff06ffffffff0100f2052a01000000434104c020086915cb3b9a0d80bf6401bd9e718dd2f0659b8e83f5fe92f49b90bff000501a343f2f0ed74b1d98332bff6cc71e6feee2b2fce2daa7f31130bb14209112ac00000000"
    }
  ]
}