{
  "hash": "0000000093cd17e2342eed322d209f94ca67eab09b2670ad50715a306662e83f",
  "confirmations": 45250,
  "height": 7848,
  "version": 1,
  "versionHex": "00000001",
  "merkleroot": "daba81f1c885efcad17f332887cd3dfcc3e3567552ae2c033a26669358dc7105",
  "time": 1237349605,
  "mediantime": 1237347241,
  "nonce": 2941192998,
  "bits": "1d00ffff",
  "difficulty": 1,
  "chainwork": "00000000000000000000000000000000000000000000000000001ea91ea91ea9",
  "nTx": 1,
  "previousblockhash": "0000000095f66f5c23feee3647daae12ddf08df9acccac906cfeb34fc9e9e813",
  "nextblockhash": "00000000d9d32fb5c2f98d89cd677b9c1d2316dc29dc2592bc4903825f2183e7",
  "strippedsize": 216,
  "size": 216,
  "weight": 864,
  "tx": [
    {
      "txid": "daba81f1c885efcad17f332887cd3dfcc3e3567552ae2c033a26669358dc7105",
      "hash": "daba81f1c885efcad17f332887cd3dfcc3e3567552ae2c033a26669358dc7105",
      "version": 1,
      "size": 135,
      "vsize": 135,
      "weight": 540,
      "locktime": 0,
      "vin": [
        {
          "coinbase": "04ffff001d02be06",
          "sequence": 4294967295
        }
      ],
      "vout": [
        {
          "value": 50.0,
          "n": 0,
          "scriptPubKey": {
            "asm": "047ccf5755967804e9b82e74eeeb2aea9c6326899fa8417541bd244dd92133792b94ca6f4e62f1c964cd53c7447e684cc954543cfc54bb536a1dd67ada248dde80 OP_CHECKSIG",
            "desc": "pk(047ccf5755967804e9b82e74eeeb2aea9c6326899fa8417541bd244dd92133792b94ca6f4e62f1c964cd53c7447e684cc954543cfc54bb536a1dd67ada248dde80)#8au70tax",
            "hex": "41047ccf5755967804e9b82e74eeeb2aea9c6326899fa8417541bd244dd92133792b94ca6f4e62f1c964cd53c7447e684cc954543cfc54bb536a1dd67ada248dde80ac",
            "type": "pubkey"
          }
        }
      ],
      "hex": "01000000010000000000000000000000000000000000000000000000000000000000000000ffffffff0804ffff001d02be06ffffffff0100f2052a010000004341047ccf5755967804e9b82e74eeeb2aea9c6326899fa8417541bd244dd92133792b94ca6f4e62f1c964cd53c7447e684cc954543cfc54bb536a1dd67ada248dde80ac00000000"
    }
  ]
}