{
  "hash": "000000006046d37c2336f11cbb1d00a17557e003b8f3b93007d5107231db585d",
  "confirmations": 47570,
  "height": 5528,
  "version": 1,
  "versionHex": "00000001",
  "merkleroot": "f5bc76773d712626618f8c10ab2a67ee9a074857e05e207187cde3ff024b4290",
  "time": 1235544101,
  "mediantime": 1235539348,
  "nonce": 3183733030,
  "bits": "1d00ffff",
  "difficulty": 1,
  "chainwork": "0000000000000000000000000000000000000000000000000000159915991599",
  "nTx": 1,
  "previousblockhash": "000000009f7f024e266e044b5ef2e5460f2b8599a7248a13b0eb09b029b50636",
  "nextblockhash": "00000000c4e031a9a9924efd3ff0ab34f5b8f76ae66b3275b80f35d0767fcec3",
  "strippedsize": 216,
  "size": 216,
  "weight": 864,
  "tx": [
    {
      "txid": "f5bc76773d712626618f8c10ab2a67ee9a074857e05e207187cde3ff024b4290",
      "hash": "f5bc76773d712626618f8c10ab2a67ee9a074857e05e207187cde3ff024b4290",
      "version": 1,
      "size": 135,
      "vsize": 135,
      "weight": 540,
      "locktime": 0,
      "vin": [
        {
          "coinbase": "04ffff001d022c06",
          "sequence": 4294967295
        }
      ],
      "vout": [
        {
          "value": 50.0,
          "n": 0,
          "scriptPubKey": {
            "asm": "04ccaf179ca8af89e77fa24a134e34af30388efc5efa961d8dcd233a5db4495663b0309a339b9e60aff802ee689a9b869ea630dcf6ddc75309385c812a3f5b8897 OP_CHECKSIG",
            "desc": "pk(04ccaf179ca8af89e77fa24a134e34af30388efc5efa961d8dcd233a5db4495663b0309a339b9e60aff802ee689a9b869ea630dcf6ddc75309385c812a3f5b8897)#6sgwhen7",
            "hex": "4104ccaf179ca8af89e77fa24a134e34af30388efc5efa961d8dcd233a5db4495663b0309a339b9e60aff802ee689a9b869ea630dcf6ddc75309385c812a3f5b8897ac",
            "type": "pubkey"
          }
        }
      ],
      "hex": "01000000010000000000000000000000000000000000000000000000000000000000000000ffffffff0804ffff001d022c06ffffffff0100f2052a01000000434104ccaf179ca8af89e77fa24a134e34af30388efc5efa961d8dcd233a5db4495663b0309a339b9e60aff802ee689a9b869ea630dcf6ddc75309385c812a3f5b8897ac00000000"
    }
  ]
}