{
  "hash": "00000000ad67cba546e7a036e14ca28e74d1d092218236b8bb6f0b420dc12d59",
  "confirmations": 51658,
  "height": 1440,
  "version": 1,
  "versionHex": "00000001",
  "merkleroot": "96dc958b4f4cbca4065d921fa551f0fac932feb46fe2daba2c1d670c88524999",
  "time": 1232742205,
  "mediantime": 1232740288,
  "nonce": 82375747,
  "bits": "1d00ffff",
  "difficulty": 1,
  "chainwork": "000000000000000000000000000000000000000000000000000005a105a105a1",
  "nTx": 1,
  "previousblockhash": "00000000a37055f99a4c0ba0c418a30d4d27c2c97ecb78211e01f66d34701f59",
  "nextblockhash": "000000009ea40eadbe623ae735d05ed6b57dc821bcd1d871e1b032fe939f5c8b",
  "strippedsize": 216,
  "size": 216,
  "weight": 864,
  "tx": [
    {
      "txid": "96dc958b4f4cbca4065d921fa551f0fac932feb46fe2daba2c1d670c88524999",
      "hash": "96dc958b4f4cbca4065d921fa551f0fac932feb46fe2daba2c1d670c88524999",
      "version": 1,
      "size": 135,
      "vsize": 135,
      "weight": 540,
      "locktime": 0,
      "vin": [
        {
          "coinbase": "04ffff001d021a03",
          "sequence": 4294967295
        }
      ],
      "vout": [
        {
          "value": 50.0,
          "n": 0,
          "scriptPubKey": {
            "asm": "040264a75803e6136a705de2c1b49c0e663057eb725c97ceef4d05e4317bdd9cf0495fa47601bed23be2a6649e11ece580c25b7ac98b5b375faa785b880167d8b9 OP_CHECKSIG",
            "desc": "pk(040264a75803e6136a705de2c1b49c0e663057eb725c97ceef4d05e4317bdd9cf0495fa47601bed23be2a6649e11ece580c25b7ac98b5b375faa785b880167d8b9)#nese558w",
            "hex": "41040264a75803e6136a705de2c1b49c0e663057eb725c97ceef4d05e4317bdd9cf0495fa47601bed23be2a6649e11ece580c25b7ac98b5b375faa785b880167d8b9ac",
            "type": "pubkey"
          }
        }
      ],
      "hex": "01000000010000000000000000000000000000000000000000000000000000000000000000ffffffff0804ffff001d021a03ffffffff0100f2052a010000004341040264a75803e6136a705de2c1b49c0e663057eb725c97ceef4d05e4317bdd9cf0495fa47601bed23be2a6649e11ece580c25b7ac98b5b375faa785b880167d8b9ac00000000"
    }
  ]
}