{
  "hash": "0000000057a7e9fdd3568d83a3055f74d3f38934c5da5acb7924a495223915ad",
  "confirmations": 44238,
  "height": 8860,
  "version": 1,
  "versionHex": "00000001",
  "merkleroot": "46edb4b625e0f74a9a60998e4861792e6d26d4b5bb3b511d0ac969c466f6c704",
  "time": 1238144021,
  "mediantime": 1238140648,
  "nonce": 80321289,
  "bits": "1d00ffff",
  "difficulty": 1,
  "chainwork": "0000000000000000000000000000000000000000000000000000229d229d229d",
  "nTx": 1,
  "previousblockhash": "000000001ba3e0220bbdd8e7e5ad80e28db57c2ccd798346aac2a0114c8207cb",
  "nextblockhash": "00000000341cd13c5f45a36e832f66c2f6692d1aa1e7ef12f61aa326fbab6b42",
  "strippedsize": 216,
  "size": 216,
  "weight": 864,
  "tx": [
    {
      "txid": "46edb4b625e0f74a9a60998e4861792e6d26d4b5bb3b511d0ac969c466f6c704",
      "hash": "46edb4b625e0f74a9a60998e4861792e6d26d4b5bb3b511d0ac969c466f6c704",
      "version": 1,
      "size": 135,
      "vsize": 135,
      "weight": 540,
      "locktime": 0,
      "vin": [
        {
          "coinbase": "04ffff001d02a803",
          "sequence": 4294967295
        }
      ],
      "vout": [
        {
          "value": 50.0,
          "n": 0,
          "scriptPubKey": {
            "asm": "04bbdb001edd75355550b37b127e6b21631346e5b3c2217367cff92737a2b96889340e8faf6e6978d439c3f997454cdaf544b65880eb11a1080d18a8e362fbd823 OP_CHECKSIG",
            "desc": "pk(04bbdb001edd75355550b37b127e6b21631346e5b3c2217367cff92737a2b96889340e8faf6e6978d439c3f997454cdaf544b65880eb11a1080d18a8e362fbd823)#wadnk9ly",
            "hex": "4104bbdb001edd75355550b37b127e6b21631346e5b3c2217367cff92737a2b96889340e8faf6e6978d439c3f997454cdaf544b65880eb11a1080d18a8e362fbd823ac",
            "type": "pubkey"
          }
        }
      ],
      "hex": "01000000010000000000000000000000000000000000000000000000000000000000000000ffffffff0804ffff001d02a803ffffffff0100f2052a01000000434104bbdb001edd75355550b37b127e6b21631346e5b3c2217367cff92737a2b96889340e8faf6e6978d439c3f997454cdaf544b65880eb11a1080d18a8e362fbd823ac00000000"
    }
  ]
}