{
  "hash": "00000000372f1107dde648bf80c4bc629b4fbba581e07686a6f89539e114c0b9",
  "confirmations": 44496,
  "height": 8602,
  "version": 1,
  "versionHex": "00000001",
  "merkleroot": "3b766a77c1ef68d85f3aa6ebd6a7f05e827fbe5689fe51dac78ce29e126aad6a",
  "time": 1237951980,
  "mediantime": 1237948208,
  "nonce": 7966757,
  "bits": "1d00ffff",
  "difficulty": 1,
  "chainwork": "0000000000000000000000000000000000000000000000000000219b219b219b",
  "nTx": 1,
  "previousblockhash": "000000008849986c44878f325590e577febaf1d60c9af9d79411c664264e5c0a",
  "nextblockhash": "0000000033eec992f7774e9c2ab683a08df795bcd06d8f9e913936d7900dd6a8",
  "strippedsize": 216,
  "size": 216,
  "weight": 864,
  "tx": [
    {
      "txid": "3b766a77c1ef68d85f3aa6ebd6a7f05e827fbe5689fe51dac78ce29e126aad6a",
      "hash": "3b766a77c1ef68d85f3aa6ebd6a7f05e827fbe5689fe51dac78ce29e126aad6a",
      "version": 1,
      "size": 135,
      "vsize": 135,
      "weight": 540,
      "locktime": 0,
      "vin": [
        {
          "coinbase": "04ffff001d029906",
          "sequence": 4294967295
        }
      ],
      "vout": [
        {
          "value": 50.0,
          "n": 0,
          "scriptPubKey": {
            "asm": "04d587f065ad06c666cabda9e8ac9005a1fd9b60f5a76b978914df6a0c034c4086988b86700a500c311998d258bba073349629304d2d69964f3462b3f4528633ad OP_CHECKSIG",
            "desc": "pk(04d587f065ad06c666cabda9e8ac9005a1fd9b60f5a76b978914df6a0c034c4086988b86700a500c311998d258bba073349629304d2d69964f3462b3f4528633ad)#rekcyvnz",
            "hex": "4104d587f065ad06c666cabda9e8ac9005a1fd9b60f5a76b978914df6a0c034c4086988b86700a500c311998d258bba073349629304d2d69964f3462b3f4528633adac",
            "type": "pubkey"
          }
        }
      ],
      "hex": "01000000010000000000000000000000000000000000000000000000000000000000000000ffffffff0804ffff001d029906ffffffff0100f2052a01000000434104d587f065ad06c666cabda9e8ac9005a1fd9b60f5a76b978914df6a0c034c4086988b86700a500c311998d258bba073349629304d2d69964f3462b3f4528633adac00000000"
    }
  ]
}