{
  "hash": "00000000122bf27960c83c424190dab429fc725cd68d82132c453d85a212ff61",
  "confirmations": 45181,
  "height": 7917,
  "version": 1,
  "versionHex": "00000001",
  "merkleroot": "7de9a131cdddb43b48a52478af0a86c63e177e45aba260c610bb8308b1bd36a1",
  "time": 1237404317,
  "mediantime": 1237401943,
  "nonce": 203623463,
  "bits": "1d00ffff",
  "difficulty": 1,
  "chainwork": "00000000000000000000000000000000000000000000000000001eee1eee1eee",
  "nTx": 1,
  "previousblockhash": "00000000d77a461587fc03dd21011bedaf43d443bc58ffa444ed3829052942c6",
  "nextblockhash": "00000000f0b285d98b8f742cbaea6edb54d0d34a91bbe5320af47ef1625bbb90",
  "strippedsize": 216,
  "size": 216,
  "weight": 864,
  "tx": [
    {
      "txid": "7de9a131cdddb43b48a52478af0a86c63e177e45aba260c610bb8308b1bd36a1",
      "hash": "7de9a131cdddb43b48a52478af0a86c63e177e45aba260c610bb8308b1bd36a1",
      "version": 1,
      "size": 135,
      "vsize": 135,
      "weight": 540,
      "locktime": 0,
      "vin": [
        {
          "coinbase": "04ffff001d02b207",
          "sequence": 4294967295
        }
      ],
      "vout": [
        {
          "value": 50.0,
          "n": 0,
          "scriptPubKey": {
            "asm": "04aaf745af5bdaeccd05c3c1a823c054204c5ff54baf1b77c6a86cd9ee337d8c8983d171d52e0abc50b78d8e2518a949772fe37259d1c22ddf29c77b3d230280f4 OP_CHECKSIG",
            "desc": "pk(04aaf745af5bdaeccd05c3c1a823c054204c5ff54baf1b77c6a86cd9ee337d8c8983d171d52e0abc50b78d8e2518a949772fe37259d1c22ddf29c77b3d230280f4)#xahc26u2",
            "hex": "4104aaf745af5bdaeccd05c3c1a823c054204c5ff54baf1b77c6a86cd9ee337d8c8983d171d52e0abc50b78d8e2518a949772fe37259d1c22ddf29c77b3d230280f4ac",
            "type": "pubkey"
          }
        }
      ],
      "hex": "01000000010000000000000000000000000000000000000000000000000000000000000000ffffffff0804ffff001d02b207ffffffff0100f2052a01000000434104aaf745af5bdaeccd05c3c1a823c054204c5ff54baf1b77c6a86cd9ee337d8c8983d171d52e0abc50b78d8e2518a949772fe37259d1c22ddf29c77b3d230280f4ac00000000"
    }
  ]
}