{
  "hash": "00000000163b8bd61b369cabbeb3614947b48d99a98758845058d3ad1e0fff48",
  "confirmations": 50621,
  "height": 2477,
  "version": 1,
  "versionHex": "00000001",
  "merkleroot": "d93f315a183b1d29723f56f30bdaf5e19fc7c1d8dbf6f14628a97a2759ecfd0c",
  "time": 1233408365,
  "mediantime": 1233405296,
  "nonce": 3103243544,
  "bits": "1d00ffff",
  "difficulty": 1,
  "chainwork": "000000000000000000000000000000000000000000000000000009ae09ae09ae",
  "nTx": 1,
  "previousblockhash": "00000000905702f51d174de41057cf52ccd2d47c8e5778999384809b7bb8ed9f",
  "nextblockhash": "000000007371ef0e04a8406267e7ed4bd918a294ac4728f0da5a7efdcadc36f6",
  "strippedsize": 216,
  "size": 216,
  "weight": 864,
  "tx": [
    {
      "txid": "d93f315a183b1d29723f56f30bdaf5e19fc7c1d8dbf6f14628a97a2759ecfd0c",
      "hash": "d93f315a183b1d29723f56f30bdaf5e19fc7c1d8dbf6f14628a97a2759ecfd0c",
      "version": 1,
      "size": 135,
      "vsize": 135,
      "weight": 540,
      "locktime": 0,
      "vin": [
        {
          "coinbase": "04ffff001d02cd00",
          "sequence": 4294967295
        }
      ],
      "vout": [
        {
          "value": 50.0,
          "n": 0,
          "scriptPubKey": {
            "asm": "0457facd6f0d271be5e484ae8d7a0823b8798933a0a6ba940a9eea82c71d1a0fd61f9400a7c0659b00a21e46cb9677e230a60986e35974ed8bb5cbcf538bc85e5f OP_CHECKSIG",
            "desc": "pk(0457facd6f0d271be5e484ae8d7a0823b8798933a0a6ba940a9eea82c71d1a0fd61f9400a7c0659b00a21e46cb9677e230a60986e35974ed8bb5cbcf538bc85e5f)#3k65pudt",
            "hex": "410457facd6f0d271be5e484ae8d7a0823b8798933a0a6ba940a9eea82c71d1a0fd61f9400a7c0659b00a21e46cb9677e230a60986e35974ed8bb5cbcf538bc85e5fac",
            "type": "pubkey"
          }
        }
      ],
      "hex": "01000000010000000000000000000000000000000000000000000000000000000000000000ffffffff0804ffff001d02cd00ffffffff0100f2052a0100000043410457facd6f0d271be5e484ae8d7a0823b8798933a0a6ba940a9eea82c71d1a0fd61f9400a7c0659b00a21e46cb9677e230a60986e35974ed8bb5cbcf538bc85e5fac00000000"
    }
  ]
}