{
  "hash": "000000002509f053c420965b16ba18df78cf1e707cf8cc4bfbdb70d9a97e29e8",
  "confirmations": 47184,
  "height": 5914,
  "version": 1,
  "versionHex": "00000001",
  "merkleroot": "906ce263950c6dfc43964240525f6d4fbf56f2cada02ab65b331235df01987f2",
  "time": 1235855382,
  "mediantime": 1235850333,
  "nonce": 4178367539,
  "bits": "1d00ffff",
  "difficulty": 1,
  "chainwork": "0000000000000000000000000000000000000000000000000000171b171b171b",
  "nTx": 1,
  "previousblockhash": "00000000911e4a0cbf43b8800354c244ef35c58016db0d767246032c3ac6796f",
  "nextblockhash": "0000000098f7951febeb6d71c15e5fef937fd5f3813721f8a1ac0f410b1f39e3",
  "strippedsize": 216,
  "size": 216,
  "weight": 864,
  "tx": [
    {
      "txid": "906ce263950c6dfc43964240525f6d4fbf56f2cada02ab65b331235df01987f2",
      "hash": "906ce263950c6dfc43964240525f6d4fbf56f2cada02ab65b331235df01987f2",
      "version": 1,
      "size": 135,
      "vsize": 135,
      "weight": 540,
      "locktime": 0,
      "vin": [
        {
          "coinbase": "04ffff001d024e03",
          "sequence": 4294967295
        }
      ],
      "vout": [
        {
          "value": 50.0,
          "n": 0,
          "scriptPubKey": {
            "asm": "048682d75e222b09378ec7f05582c2a710cd5908bea66627d9e077d22053b67edf1c4e9290fb9df4d7cc1da52a69c6548ef5174241449b824034bb42424f11c912 OP_CHECKSIG",
            "desc": "pk(048682d75e222b09378ec7f05582c2a710cd5908bea66627d9e077d22053b67edf1c4e9290fb9df4d7cc1da52a69c6548ef5174241449b824034bb42424f11c912)#c9snxad3",
            "hex": "41048682d75e222b09378ec7f05582c2a710cd5908bea66627d9e077d22053b67edf1c4e9290fb9df4d7cc1da52a69c6548ef5174241449b824034bb42424f11c912ac",
            "type": "pubkey"
          }
        }
      ],
      "hex": "01000000010000000000000000000000000000000000000000000000000000000000000000ffffffff0804ffff001d024e03ffffffff0100f2052a010000004341048682d75e222b09378ec7f05582c2a710cd5908bea66627d9e077d22053b67edf1c4e9290fb9df4d7cc1da52a69c6548ef5174241449b824034bb42424f11c912ac00000000"
    }
  ]
}