{
  "hash": "00000000056eaac616aceb9389f9a0b4812decf2ae900d328a7262d3da52d041",
  "confirmations": 43320,
  "height": 9778,
  "version": 1,
  "versionHex": "00000001",
  "merkleroot": "d4b5fa66f420aefb5352a2dfa6ea53f6106c6992b630127eecb7abcf51cec305",
  "time": 1238839536,
  "mediantime": 1238836468,
  "nonce": 3076332065,
  "bits": "1d00ffff",
  "difficulty": 1,
  "chainwork": "0000000000000000000000000000000000000000000000000000263326332633",
  "nTx": 1,
  "previousblockhash": "00000000fdaf27ae132f0cf004f7e60befff1df056ef9dd7b3b3ee6b11741609",
  "nextblockhash": "0000000074a2f7b5c956dfdecd4c20cde88cf1596f7ab8b93f28b349966e02b3",
  "strippedsize": 216,
  "size": 216,
  "weight": 864,
  "tx": [
    {
      "txid": "d4b5fa66f420aefb5352a2dfa6ea53f6106c6992b630127eecb7abcf51cec305",
      "hash": "d4b5fa66f420aefb5352a2dfa6ea53f6106c6992b630127eecb7abcf51cec305",
      "version": 1,
      "size": 135,
      "vsize": 135,
      "weight": 540,
      "locktime": 0,
      "vin": [
        {
          "coinbase": "04ffff001d02300a",
          "sequence": 4294967295
        }
      ],
      "vout": [
        {
          "value": 50.0,
          "n": 0,
          "scriptPubKey": {
            "asm": "04d3b4bfd92c4bc8404de4c5637b5d57776c7b29048ac4615158ff1d81f997e73f524b045d8f21ecd8c3ae1cfd374b4fab09f927584f481d1e798b7f5358b0dcbc OP_CHECKSIG",
            "desc": "pk(04d3b4bfd92c4bc8404de4c5637b5d57776c7b29048ac4615158ff1d81f997e73f524b045d8f21ecd8c3ae1cfd374b4fab09f927584f481d1e798b7f5358b0dcbc)#y9dlwqje",
            "hex": "4104d3b4bfd92c4bc8404de4c5637b5d57776c7b29048ac4615158ff1d81f997e73f524b045d8f21ecd8c3ae1cfd374b4fab09f927584f481d1e798b7f5358b0dcbcac",
            "type": "pubkey"
          }
        }
      ],
      "hex": "01000000010000000000000000000000000000000000000000000000000000000000000000ffffffff0804ffff001d02300affffffff0100f2052a01000000434104d3b4bfd92c4bc8404de4c5637b5d57776c7b29048ac4615158ff1d81f997e73f524b045d8f21ecd8c3ae1cfd374b4fab09f927584f481d1e798b7f5358b0dcbcac00000000"
    }
  ]
}