{
  "hash": "00000000ecfbfde100399cde481b82f28d041e50655e7524efaebbae8b69ba5d",
  "confirmations": 47018,
  "height": 6080,
  "version": 1,
  "versionHex": "00000001",
  "merkleroot": "86368dc8b66642726021d74f979810da973e805079e350314e8b9fdab56fd824",
  "time": 1235993189,
  "mediantime": 1235988407,
  "nonce": 328864552,
  "bits": "1d00ffff",
  "difficulty": 1,
  "chainwork": "000000000000000000000000000000000000000000000000000017c117c117c1",
  "nTx": 1,
  "previousblockhash": "0000000026e82d8fea49011794df552bc4b65f6680cd4a40d6bded2d6d536dfc",
  "nextblockhash": "000000001f12696b387ea4b5485c1c27392e2c75718d1dcadc44e055105ce190",
  "strippedsize": 216,
  "size": 216,
  "weight": 864,
  "tx": [
    {
      "txid": "86368dc8b66642726021d74f979810da973e805079e350314e8b9fdab56fd824",
      "hash": "86368dc8b66642726021d74f979810da973e805079e350314e8b9fdab56fd824",
      "version": 1,
      "size": 135,
      "vsize": 135,
      "weight": 540,
      "locktime": 0,
      "vin": [
        {
          "coinbase": "04ffff001d026406",
          "sequence": 4294967295
        }
      ],
      "vout": [
        {
          "value": 50.0,
          "n": 0,
          "scriptPubKey": {
            "asm": "041f3bc77cabbbe1f1f41a1c6a94eab3503438beb456e8795b52f2801d01673e6b6460665a2eb8dad229d5a71cb37c372932c22fb85019d495dad1a2be26737f88 OP_CHECKSIG",
            "desc": "pk(041f3bc77cabbbe1f1f41a1c6a94eab3503438beb456e8795b52f2801d01673e6b6460665a2eb8dad229d5a71cb37c372932c22fb85019d495dad1a2be26737f88)#wf9lwa6x",
            "hex": "41041f3bc77cabbbe1f1f41a1c6a94eab3503438beb456e8795b52f2801d01673e6b6460665a2eb8dad229d5a71cb37c372932c22fb85019d495dad1a2be26737f88ac",
            "type": "pubkey"
          }
        }
      ],
      "hex": "01000000010000000000000000000000000000000000000000000000000000000000000000ffffffff0804ffff001d026406ffffffff0100f2052a010000004341041f3bc77cabbbe1f1f41a1c6a94eab3503438beb456e8795b52f2801d01673e6b6460665a2eb8dad229d5a71cb37c372932c22fb85019d495dad1a2be26737f88ac00000000"
    }
  ]
}