{
  "hash": "0000000052005eff5d4cd698f9f898ad1908395bbb9221f053ea24a4431eb284",
  "confirmations": 48053,
  "height": 5045,
  "version": 1,
  "versionHex": "00000001",
  "merkleroot": "043cb4a01b8108a8e90029bcf9ac53adc094d4deffd1adfe8c11a918941f7585",
  "time": 1235172047,
  "mediantime": 1235167107,
  "nonce": 3333027127,
  "bits": "1d00ffff",
  "difficulty": 1,
  "chainwork": "000000000000000000000000000000000000000000000000000013b613b613b6",
  "nTx": 1,
  "previousblockhash": "0000000023e8ab4c828f2d50fa18ab8e859bbd701a98ce4707f0de56a51ffc7d",
  "nextblockhash": "000000005265d22a7f5676ec1fd450cd10085497482439630530abec39c5d2d6",
  "strippedsize": 216,
  "size": 216,
  "weight": 864,
  "tx": [
    {
      "txid": "043cb4a01b8108a8e90029bcf9ac53adc094d4deffd1adfe8c11a918941f7585",
      "hash": "043cb4a01b8108a8e90029bcf9ac53adc094d4deffd1adfe8c11a918941f7585",
      "version": 1,
      "size": 135,
      "vsize": 135,
      "weight": 540,
      "locktime": 0,
      "vin": [
        {
          "coinbase": "04ffff001d02ca07",
          "sequence": 4294967295
        }
      ],
      "vout": [
        {
          "value": 50.0,
          "n": 0,
          "scriptPubKey": {
            "asm": "04fe5773bb1fd38865a892250fbe79182fe7ac0efb92cd05bd8634370e360c2833740b01679879980d3dd1a0f78fee3138cc7706d0cba827ab7e86e01f2e251671 OP_CHECKSIG",
            "desc": "pk(04fe5773bb1fd38865a892250fbe79182fe7ac0efb92cd05bd8634370e360c2833740b01679879980d3dd1a0f78fee3138cc7706d0cba827ab7e86e01f2e251671)#hgavka9u",
            "hex": "4104fe5773bb1fd38865a892250fbe79182fe7ac0efb92cd05bd8634370e360c2833740b01679879980d3dd1a0f78fee3138cc7706d0cba827ab7e86e01f2e251671ac",
            "type": "pubkey"
          }
        }
      ],
      "hex": "01000000010000000000000000000000000000000000000000000000000000000000000000ffffffff0804ffff001d02ca07ffffffff0100f2052a01000000434104fe5773bb1fd38865a892250fbe79182fe7ac0efb92cd05bd8634370e360c2833740b01679879980d3dd1a0f78fee3138cc7706d0cba827ab7e86e01f2e251671ac00000000"
    }
  ]
}