{
  "hash": "000000007b665dd0aaa9e3c4bda7c0f9e22ba8155ed47ef577349f5415d601ca",
  "confirmations": 44195,
  "height": 8903,
  "version": 1,
  "versionHex": "00000001",
  "merkleroot": "448df5cbcf2e0a9c9b5de6212a8d79a932d499db979d340ce78ad03b19939e18",
  "time": 1238182244,
  "mediantime": 1238178107,
  "nonce": 111364063,
  "bits": "1d00ffff",
  "difficulty": 1,
  "chainwork": "000000000000000000000000000000000000000000000000000022c822c822c8",
  "nTx": 1,
  "previousblockhash": "00000000114f8a140d8dc7a809e4862c71e879af8772013b28ec6fa72bf6d7ac",
  "nextblockhash": "00000000607df3a786ddbe536beabae438e38b282f7bb2ee44facb82e7c331cf",
  "strippedsize": 216,
  "size": 216,
  "weight": 864,
  "tx": [
    {
      "txid": "448df5cbcf2e0a9c9b5de6212a8d79a932d499db979d340ce78ad03b19939e18",
      "hash": "448df5cbcf2e0a9c9b5de6212a8d79a932d499db979d340ce78ad03b19939e18",
      "version": 1,
      "size": 135,
      "vsize": 135,
      "weight": 540,
      "locktime": 0,
      "vin": [
        {
          "coinbase": "04ffff001d022b07",
          "sequence": 4294967295
        }
      ],
      "vout": [
        {
          "value": 50.0,
          "n": 0,
          "scriptPubKey": {
            "asm": "0448f5362261f511081fabc1fa9b09127b8a0b6ae065285a63886703ccc263910b1d1aeddf4fc064ae6a2f3ce6bae4bf72af7a95ef8d365302aa042d4a643cc235 OP_CHECKSIG",
            "desc": "pk(0448f5362261f511081fabc1fa9b09127b8a0b6ae065285a63886703ccc263910b1d1aeddf4fc064ae6a2f3ce6bae4bf72af7a95ef8d365302aa042d4a643cc235)#nc7lf3k3",
            "hex": "410448f5362261f511081fabc1fa9b09127b8a0b6ae065285a63886703ccc263910b1d1aeddf4fc064ae6a2f3ce6bae4bf72af7a95ef8d365302aa042d4a643cc235ac",
            "type": "pubkey"
          }
        }
      ],
      "hex": "01000000010000000000000000000000000000000000000000000000000000000000000000ffffffff0804ffff001d022b07ffffffff0100f2052a0100000043410448f5362261f511081fabc1fa9b09127b8a0b6ae065285a63886703ccc263910b1d1aeddf4fc064ae6a2f3ce6bae4bf72af7a95ef8d365302aa042d4a643cc235ac00000000"
    }
  ]
}