{
  "hash": "000000001be82443485d96eb5595e55eb5400ad7092c4da6e9f65cf10fe9cbc5",
  "confirmations": 45934,
  "height": 7164,
  "version": 1,
  "versionHex": "00000001",
  "merkleroot": "37d8ebf34259fc51986ddeab38d5fe2ffb686ef0cdcb57d46ce77e9711264449",
  "time": 1236844246,
  "mediantime": 1236840630,
  "nonce": 601047578,
  "bits": "1d00ffff",
  "difficulty": 1,
  "chainwork": "00000000000000000000000000000000000000000000000000001bfd1bfd1bfd",
  "nTx": 1,
  "previousblockhash": "000000003d7d63c884916b1b849d0b7338a654bfc3eaef53bdafd65c25a1fc36",
  "nextblockhash": "00000000b536b7237b218ee74226a242d42aad38429e8c84e6b00597750487ae",
  "strippedsize": 216,
  "size": 216,
  "weight": 864,
  "tx": [
    {
      "txid": "37d8ebf34259fc51986ddeab38d5fe2ffb686ef0cdcb57d46ce77e9711264449",
      "hash": "37d8ebf34259fc51986ddeab38d5fe2ffb686ef0cdcb57d46ce77e9711264449",
      "version": 1,
      "size": 135,
      "vsize": 135,
      "weight": 540,
      "locktime": 0,
      "vin": [
        {
          "coinbase": "04ffff001d021905",
          "sequence": 4294967295
        }
      ],
      "vout": [
        {
          "value": 50.0,
          "n": 0,
          "scriptPubKey": {
            "asm": "048066e8bb8a67f8d2a2c3ac7776b1fbb36616745dc508ca5b117e2dffe229691b1abaf50e2d262f20d9d9143b9612c20c6cd255173570aaf9191e238f7cd773c1 OP_CHECKSIG",
            "desc": "pk(048066e8bb8a67f8d2a2c3ac7776b1fbb36616745dc508ca5b117e2dffe229691b1abaf50e2d262f20d9d9143b9612c20c6cd255173570aaf9191e238f7cd773c1)#6sfyk6mk",
            "hex": "41048066e8bb8a67f8d2a2c3ac7776b1fbb36616745dc508ca5b117e2dffe229691b1abaf50e2d262f20d9d9143b9612c20c6cd255173570aaf9191e238f7cd773c1ac",
            "type": "pubkey"
          }
        }
      ],
      "hex": "01000000010000000000000000000000000000000000000000000000000000000000000000ffffffff0804ffff001d021905ffffffff0100f2052a010000004341048066e8bb8a67f8d2a2c3ac7776b1fbb36616745dc508ca5b117e2dffe229691b1abaf50e2d262f20d9d9143b9612c20c6cd255173570aaf9191e238f7cd773c1ac00000000"
    }
  ]
}