{
  "hash": "00000000c8d16cecdd439a975b05154b1714a25761c02694855f82c2526d43d9",
  "confirmations": 51280,
  "height": 1818,
  "version": 1,
  "versionHex": "00000001",
  "merkleroot": "728b80555e5bda8efaef7709bdd9a8d387af80e8ec550f5ed963e6ecb8070290",
  "time": 1232908821,
  "mediantime": 1232905818,
  "nonce": 3752291860,
  "bits": "1d00ffff",
  "difficulty": 1,
  "chainwork": "0000000000000000000000000000000000000000000000000000071b071b071b",
  "nTx": 1,
  "previousblockhash": "000000002da76fb5927a7e9dfe2ad20868164680ae45c8ac9d7a91456979b3da",
  "nextblockhash": "000000000899755362c2f34a721fbab4b09f6a33dc086336f969ec58a5a3c112",
  "strippedsize": 216,
  "size": 216,
  "weight": 864,
  "tx": [
    {
      "txid": "728b80555e5bda8efaef7709bdd9a8d387af80e8ec550f5ed963e6ecb8070290",
      "hash": "728b80555e5bda8efaef7709bdd9a8d387af80e8ec550f5ed963e6ecb8070290",
      "version": 1,
      "size": 135,
      "vsize": 135,
      "weight": 540,
      "locktime": 0,
      "vin": [
        {
          "coinbase": "04ffff001d025404",
          "sequence": 4294967295
        }
      ],
      "vout": [
        {
          "value": 50.0,
          "n": 0,
          "scriptPubKey": {
            "asm": "0444e56eab3d6f4aca5e71f51b3fe389951af2a030e14cc33dc8f665c5af28f65875898b4dc59ab1bb2071e625d8140b4fead2706fd43ad907339aaf0e090315dc OP_CHECKSIG",
            "desc": "pk(0444e56eab3d6f4aca5e71f51b3fe389951af2a030e14cc33dc8f665c5af28f65875898b4dc59ab1bb2071e625d8140b4fead2706fd43ad907339aaf0e090315dc)#wz434udx",
            "hex": "410444e56eab3d6f4aca5e71f51b3fe389951af2a030e14cc33dc8f665c5af28f65875898b4dc59ab1bb2071e625d8140b4fead2706fd43ad907339aaf0e090315dcac",
            "type": "pubkey"
          }
        }
      ],
      "hex": "01000000010000000000000000000000000000000000000000000000000000000000000000ffffffff0804ffff001d025404ffffffff0100f2052a0100000043410444e56eab3d6f4aca5e71f51b3fe389951af2a030e14cc33dc8f665c5af28f65875898b4dc59ab1bb2071e625d8140b4fead2706fd43ad907339aaf0e090315dcac00000000"
    }
  ]
}