{
  "hash": "000000007bdbb5218bae7d92b6501db8d01f13fa60f615b820596c4ff598da78",
  "confirmations": 45281,
  "height": 7817,
  "version": 1,
  "versionHex": "00000001",
  "merkleroot": "5f62101a83ffcd5ac94f53a65af014a3ceedc9a212a88ab35e84b73e9de9a461",
  "time": 1237326560,
  "mediantime": 1237322302,
  "nonce": 1136502568,
  "bits": "1d00ffff",
  "difficulty": 1,
  "chainwork": "00000000000000000000000000000000000000000000000000001e8a1e8a1e8a",
  "nTx": 1,
  "previousblockhash": "00000000185e7b91e06f79023ad63b8429e97cd61857ec7d6c8d29f19bb68a71",
  "nextblockhash": "00000000098e472a1401580c6c70b59a709dc64f248cff7c427e543f8c504f95",
  "strippedsize": 216,
  "size": 216,
  "weight": 864,
  "tx": [
    {
      "txid": "5f62101a83ffcd5ac94f53a65af014a3ceedc9a212a88ab35e84b73e9de9a461",
      "hash": "5f62101a83ffcd5ac94f53a65af014a3ceedc9a212a88ab35e84b73e9de9a461",
      "version": 1,
      "size": 135,
      "vsize": 135,
      "weight": 540,
      "locktime": 0,
      "vin": [
        {
          "coinbase": "04ffff001d023606",
          "sequence": 4294967295
        }
      ],
      "vout": [
        {
          "value": 50.0,
          "n": 0,
          "scriptPubKey": {
            "asm": "04f8f65e5662e0f003d4ebadde0fbc13bac4c830e194b844665f2088a39f2345b940a4e22984ae206b3c541d5d3ca125773eec2b26d603c2850da6f547740f80be OP_CHECKSIG",
            "desc": "pk(04f8f65e5662e0f003d4ebadde0fbc13bac4c830e194b844665f2088a39f2345b940a4e22984ae206b3c541d5d3ca125773eec2b26d603c2850da6f547740f80be)#09t58lwg",
            "hex": "4104f8f65e5662e0f003d4ebadde0fbc13bac4c830e194b844665f2088a39f2345b940a4e22984ae206b3c541d5d3ca125773eec2b26d603c2850da6f547740f80beac",
            "type": "pubkey"
          }
        }
      ],
      "hex": "01000000010000000000000000000000000000000000000000000000000000000000000000ffffffff0804ffff001d023606ffffffff0100f2052a01000000434104f8f65e5662e0f003d4ebadde0fbc13bac4c830e194b844665f2088a39f2345b940a4e22984ae206b3c541d5d3ca125773eec2b26d603c2850da6f547740f80beac00000000"
    }
  ]
}