{
  "hash": "00000000d9edaa8b2912a17d733001a1eac038171ff6ecb2ea9df6e7a0283dba",
  "confirmations": 49398,
  "height": 3700,
  "version": 1,
  "versionHex": "00000001",
  "merkleroot": "bf1e2d997b82fbc07acefff054ff070293479fa3284175462984021f2ce405b4",
  "time": 1234232960,
  "mediantime": 1234230250,
  "nonce": 76897833,
  "bits": "1d00ffff",
  "difficulty": 1,
  "chainwork": "00000000000000000000000000000000000000000000000000000e750e750e75",
  "nTx": 1,
  "previousblockhash": "00000000870030be2b5d991093731b47f5f03e3f0427d3d5af16e34c22d2030a",
  "nextblockhash": "0000000014fe4b2f902e7d3da230590f660b4ed8e3029594ac4c3f851f22b13d",
  "strippedsize": 215,
  "size": 215,
  "weight": 860,
  "tx": [
    {
      "txid": "bf1e2d997b82fbc07acefff054ff070293479fa3284175462984021f2ce405b4",
      "hash": "bf1e2d997b82fbc07acefff054ff070293479fa3284175462984021f2ce405b4",
      "version": 1,
      "size": 134,
      "vsize": 134,
      "weight": 536,
      "locktime": 0,
      "vin": [
        {
          "coinbase": "04ffff001d0115",
          "sequence": 4294967295
        }
      ],
      "vout": [
        {
          "value": 50.0,
          "n": 0,
          "scriptPubKey": {
            "asm": "049158bb083172b827cbcc870c94d7c3cd523a48d4e8d99748f35e58c625d9dc2b64c07d58e0b7c489ffb6138b030a895ef9eb535e5ffbf300e2c87fff50c37ff5 OP_CHECKSIG",
            "desc": "pk(049158bb083172b827cbcc870c94d7c3cd523a48d4e8d99748f35e58c625d9dc2b64c07d58e0b7c489ffb6138b030a895ef9eb535e5ffbf300e2c87fff50c37ff5)#xxhr34ff",
            "hex": "41049158bb083172b827cbcc870c94d7c3cd523a48d4e8d99748f35e58c625d9dc2b64c07d58e0b7c489ffb6138b030a895ef9eb535e5ffbf300e2c87fff50c37ff5ac",
            "type": "pubkey"
          }
        }
      ],
      "hex": "01000000010000000000000000000000000000000000000000000000000000000000000000ffffffff0704ffff001d0115ffffffff0100f2052a010000004341049158bb083172b827cbcc870c94d7c3cd523a48d4e8d99748f35e58c625d9dc2b64c07d58e0b7c489ffb6138b030a895ef9eb535e5ffbf300e2c87fff50c37ff5ac00000000"
    }
  ]
}