{
  "hash": "00000000f15bd8304a0853a8012b92702536736cf655d1573ae37216a1502428",
  "confirmations": 46774,
  "height": 6324,
  "version": 1,
  "versionHex": "00000001",
  "merkleroot": "43a00b4039c8f5a8a6e38d30de62b6e9377c697176fcd54febda24a39ca6ba5c",
  "time": 1236192314,
  "mediantime": 1236187288,
  "nonce": 2256589113,
  "bits": "1d00ffff",
  "difficulty": 1,
  "chainwork": "000000000000000000000000000000000000000000000000000018b518b518b5",
  "nTx": 1,
  "previousblockhash": "0000000055f0e2fdc9e4363c7d47a3126f955f45ff27548811c9a4aaaf8a6d59",
  "nextblockhash": "000000000779d1bbd8e59aa27deef1bfbe46e0070e64f733ff734a051aa9034c",
  "strippedsize": 215,
  "size": 215,
  "weight": 860,
  "tx": [
    {
      "txid": "43a00b4039c8f5a8a6e38d30de62b6e9377c697176fcd54febda24a39ca6ba5c",
      "hash": "43a00b4039c8f5a8a6e38d30de62b6e9377c697176fcd54febda24a39ca6ba5c",
      "version": 1,
      "size": 134,
      "vsize": 134,
      "weight": 536,
      "locktime": 0,
      "vin": [
        {
          "coinbase": "04ffff001d017b",
          "sequence": 4294967295
        }
      ],
      "vout": [
        {
          "value": 50.0,
          "n": 0,
          "scriptPubKey": {
            "asm": "0494f3eaff53131fe4b2d058508e5ac16bad4fe8b449c5abf12adfb5b987f622ff058915a84195ba017c6b88a9c36ebb9d78ba66a0b8c2e034334b2f5b3fb8eb9a OP_CHECKSIG",
            "desc": "pk(0494f3eaff53131fe4b2d058508e5ac16bad4fe8b449c5abf12adfb5b987f622ff058915a84195ba017c6b88a9c36ebb9d78ba66a0b8c2e034334b2f5b3fb8eb9a)#yex4uhqr",
            "hex": "410494f3eaff53131fe4b2d058508e5ac16bad4fe8b449c5abf12adfb5b987f622ff058915a84195ba017c6b88a9c36ebb9d78ba66a0b8c2e034334b2f5b3fb8eb9aac",
            "type": "pubkey"
          }
        }
      ],
      "hex": "01000000010000000000000000000000000000000000000000000000000000000000000000ffffffff0704ffff001d017bffffffff0100f2052a0100000043410494f3eaff53131fe4b2d058508e5ac16bad4fe8b449c5abf12adfb5b987f622ff058915a84195ba017c6b88a9c36ebb9d78ba66a0b8c2e034334b2f5b3fb8eb9aac00000000"
    }
  ]
}