{
  "hash": "000000007c6befb84efe7266c7cd2573f1452573f7d397578b7b67198bb0cbbc",
  "confirmations": 46749,
  "height": 6349,
  "version": 1,
  "versionHex": "00000001",
  "merkleroot": "b842a6f301d373b19d83edef1f760b414956e19c3a160f44faf22040d291ee94",
  "time": 1236216362,
  "mediantime": 1236210099,
  "nonce": 608758570,
  "bits": "1d00ffff",
  "difficulty": 1,
  "chainwork": "000000000000000000000000000000000000000000000000000018ce18ce18ce",
  "nTx": 1,
  "previousblockhash": "00000000709ec29ec2dc71813775b703420a9778dac292d48d28756d7ecdd60f",
  "nextblockhash": "000000006468ac6f353b6619057b3be1e44029731272ea2cf3e6bb7427f226ce",
  "strippedsize": 216,
  "size": 216,
  "weight": 864,
  "tx": [
    {
      "txid": "b842a6f301d373b19d83edef1f760b414956e19c3a160f44faf22040d291ee94",
      "hash": "b842a6f301d373b19d83edef1f760b414956e19c3a160f44faf22040d291ee94",
      "version": 1,
      "size": 135,
      "vsize": 135,
      "weight": 540,
      "locktime": 0,
      "vin": [
        {
          "coinbase": "04ffff001d02d900",
          "sequence": 4294967295
        }
      ],
      "vout": [
        {
          "value": 50.0,
          "n": 0,
          "scriptPubKey": {
            "asm": "046cae63066bafc7d53fdf0df8a5b9ff4f302a5286ad9fbf65f376b63eb7acf825eb0419fb6bdb09af22526c072969063adcc816617b4f2d1ca404898a4c6482c9 OP_CHECKSIG",
            "desc": "pk(046cae63066bafc7d53fdf0df8a5b9ff4f302a5286ad9fbf65f376b63eb7acf825eb0419fb6bdb09af22526c072969063adcc816617b4f2d1ca404898a4c6482c9)#afq0lazm",
            "hex": "41046cae63066bafc7d53fdf0df8a5b9ff4f302a5286ad9fbf65f376b63eb7acf825eb0419fb6bdb09af22526c072969063adcc816617b4f2d1ca404898a4c6482c9ac",
            "type": "pubkey"
          }
        }
      ],
      "hex": "01000000010000000000000000000000000000000000000000000000000000000000000000ffffffff0804ffff001d02d900ffffffff0100f2052a010000004341046cae63066bafc7d53fdf0df8a5b9ff4f302a5286ad9fbf65f376b63eb7acf825eb0419fb6bdb09af22526c072969063adcc816617b4f2d1ca404898a4c6482c9ac00000000"
    }
  ]
}