{
  "hash": "00000000335c3f9e4bf41b2b36f62f182485ebd2db51f226c99f4ba4ddbb801e",
  "confirmations": 46033,
  "height": 7065,
  "version": 1,
  "versionHex": "00000001",
  "merkleroot": "43197748e8b8c1b6302808ba7a7475a878da00dab1353a9e5a929662e561926a",
  "time": 1236769178,
  "mediantime": 1236764338,
  "nonce": 1077872411,
  "bits": "1d00ffff",
  "difficulty": 1,
  "chainwork": "00000000000000000000000000000000000000000000000000001b9a1b9a1b9a",
  "nTx": 1,
  "previousblockhash": "000000006ae6273972ba781ac48c4851215f77869d153517e8790e2c99196f3b",
  "nextblockhash": "00000000251d86a572ec8b8d42c0514e9391e3e4f68fce32a85c329d5c43ee2f",
  "strippedsize": 216,
  "size": 216,
  "weight": 864,
  "tx": [
    {
      "txid": "43197748e8b8c1b6302808ba7a7475a878da00dab1353a9e5a929662e561926a",
      "hash": "43197748e8b8c1b6302808ba7a7475a878da00dab1353a9e5a929662e561926a",
      "version": 1,
      "size": 135,
      "vsize": 135,
      "weight": 540,
      "locktime": 0,
      "vin": [
        {
          "coinbase": "04ffff001d024a03",
          "sequence": 4294967295
        }
      ],
      "vout": [
        {
          "value": 50.0,
          "n": 0,
          "scriptPubKey": {
            "asm": "042388a52cac251c2b6b97cc2d84f516337c4d76913e6efbbd09b10d29201b014ea16831930f227c30106ba5ad3b3b62b1aaf67e023cb87b104d89b2da54988349 OP_CHECKSIG",
            "desc": "pk(042388a52cac251c2b6b97cc2d84f516337c4d76913e6efbbd09b10d29201b014ea16831930f227c30106ba5ad3b3b62b1aaf67e023cb87b104d89b2da54988349)#wdv7nu6a",
            "hex": "41042388a52cac251c2b6b97cc2d84f516337c4d76913e6efbbd09b10d29201b014ea16831930f227c30106ba5ad3b3b62b1aaf67e023cb87b104d89b2da54988349ac",
            "type": "pubkey"
          }
        }
      ],
      "hex": "01000000010000000000000000000000000000000000000000000000000000000000000000ffffffff0804ffff001d024a03ffffffff0100f2052a010000004341042388a52cac251c2b6b97cc2d84f516337c4d76913e6efbbd09b10d29201b014ea16831930f227c30106ba5ad3b3b62b1aaf67e023cb87b104d89b2da54988349ac00000000"
    }
  ]
}