{
  "hash": "00000000cc07f5ed1508f93332c84f983e429e53ce2391792d114578500df442",
  "confirmations": 52184,
  "height": 445,
  "version": 1,
  "versionHex": "00000001",
  "merkleroot": "331ba5665931e132571f1a337407add0f71f200d8644c5a4e8fec0d4490228ac",
  "time": 1231932001,
  "mediantime": 1231928776,
  "nonce": 2663555888,
  "bits": "1d00ffff",
  "difficulty": 1,
  "chainwork": "000000000000000000000000000000000000000000000000000001be01be01be",
  "nTx": 1,
  "previousblockhash": "00000000cff43a64ec00bea11866875c471289b38103f18ab4ee8d0f8f4f8ac7",
  "nextblockhash": "000000003f315849a6af7f1b3d056f8c554c5e0c687dae7b7134fabb7f35d201",
  "strippedsize": 216,
  "size": 216,
  "weight": 864,
  "tx": [
    {
      "txid": "331ba5665931e132571f1a337407add0f71f200d8644c5a4e8fec0d4490228ac",
      "hash": "331ba5665931e132571f1a337407add0f71f200d8644c5a4e8fec0d4490228ac",
      "version": 1,
      "size": 135,
      "vsize": 135,
      "weight": 540,
      "locktime": 0,
      "vin": [
        {
          "coinbase": "04ffff001d028703",
          "sequence": 4294967295
        }
      ],
      "vout": [
        {
          "value": 50.0,
          "n": 0,
          "scriptPubKey": {
            "asm": "047479488c2f767a045c1935f12bec73f01724ec0b34fa66d384d0ae68a0534b06487ad864556ee1abba23a6f74dce76083a3051d48e26a5be93c1628e6daabdc5 OP_CHECKSIG",
            "desc": "pk(047479488c2f767a045c1935f12bec73f01724ec0b34fa66d384d0ae68a0534b06487ad864556ee1abba23a6f74dce76083a3051d48e26a5be93c1628e6daabdc5)#yy7rdacl",
            "hex": "41047479488c2f767a045c1935f12bec73f01724ec0b34fa66d384d0ae68a0534b06487ad864556ee1abba23a6f74dce76083a3051d48e26a5be93c1628e6daabdc5ac",
            "type": "pubkey"
          }
        }
      ],
      "hex": "01000000010000000000000000000000000000000000000000000000000000000000000000ffffffff0804ffff001d028703ffffffff0100f2052a010000004341047479488c2f767a045c1935f12bec73f01724ec0b34fa66d384d0ae68a0534b06487ad864556ee1abba23a6f74dce76083a3051d48e26a5be93c1628e6daabdc5ac00000000"
    }
  ]
}