{
  "hash": "000000002b61d0523ea9c80c7f522aa6fb117ed93f3d2c6aea011267a2c1d973",
  "confirmations": 48115,
  "height": 4983,
  "version": 1,
  "versionHex": "00000001",
  "merkleroot": "753372ac2b110d15bebc4b29c0ac54f063d4bee22a1ef4b995084e00d1659869",
  "time": 1235129423,
  "mediantime": 1235125201,
  "nonce": 1439179577,
  "bits": "1d00ffff",
  "difficulty": 1,
  "chainwork": "0000000000000000000000000000000000000000000000000000137813781378",
  "nTx": 1,
  "previousblockhash": "0000000021b5930bd047ff6d8419ee7e251534a865f42dc5e13b2e1038e8079e",
  "nextblockhash": "000000006ec9015f567e367b1a1537e5313a6c78c9f59277fda0e9a3321589cb",
  "strippedsize": 216,
  "size": 216,
  "weight": 864,
  "tx": [
    {
      "txid": "753372ac2b110d15bebc4b29c0ac54f063d4bee22a1ef4b995084e00d1659869",
      "hash": "753372ac2b110d15bebc4b29c0ac54f063d4bee22a1ef4b995084e00d1659869",
      "version": 1,
      "size": 135,
      "vsize": 135,
      "weight": 540,
      "locktime": 0,
      "vin": [
        {
          "coinbase": "04ffff001d02ce06",
          "sequence": 4294967295
        }
      ],
      "vout": [
        {
          "value": 50.0,
          "n": 0,
          "scriptPubKey": {
            "asm": "04836e8dd68475d35062bc0b18a735a7a19d7998face9f896554dbb4b5e42f09026556ece3ee81d508f2e6c084359549f3ea34157065b52963658102a58bea0f17 OP_CHECKSIG",
            "desc": "pk(04836e8dd68475d35062bc0b18a735a7a19d7998face9f896554dbb4b5e42f09026556ece3ee81d508f2e6c084359549f3ea34157065b52963658102a58bea0f17)#epmgd9fk",
            "hex": "4104836e8dd68475d35062bc0b18a735a7a19d7998face9f896554dbb4b5e42f09026556ece3ee81d508f2e6c084359549f3ea34157065b52963658102a58bea0f17ac",
            "type": "pubkey"
          }
        }
      ],
      "hex": "01000000010000000000000000000000000000000000000000000000000000000000000000ffffffff0804ffff001d02ce06ffffffff0100f2052a01000000434104836e8dd68475d35062bc0b18a735a7a19d7998face9f896554dbb4b5e42f09026556ece3ee81d508f2e6c084359549f3ea34157065b52963658102a58bea0f17ac00000000"
    }
  ]
}