{
  "hash": "000000008a0e04c1dab3a0ebce631587066b76a01ef118d10a73a944d5f65842",
  "confirmations": 51826,
  "height": 1272,
  "version": 1,
  "versionHex": "00000001",
  "merkleroot": "f565804db4887879b379ca83808acc146ab6a8b0aa225a5d81e1833b4e09b0d0",
  "time": 1232553288,
  "mediantime": 1232551290,
  "nonce": 3882739206,
  "bits": "1d00ffff",
  "difficulty": 1,
  "chainwork": "000000000000000000000000000000000000000000000000000004f904f904f9",
  "nTx": 1,
  "previousblockhash": "00000000a51d677a650f458903657e41da551d386ea91a17273c38370ca83f17",
  "nextblockhash": "00000000e698a81d282d9cfd724263e39bb3d98aefc26b561c216cf5ab8cd867",
  "strippedsize": 216,
  "size": 216,
  "weight": 864,
  "tx": [
    {
      "txid": "f565804db4887879b379ca83808acc146ab6a8b0aa225a5d81e1833b4e09b0d0",
      "hash": "f565804db4887879b379ca83808acc146ab6a8b0aa225a5d81e1833b4e09b0d0",
      "version": 1,
      "size": 135,
      "vsize": 135,
      "weight": 540,
      "locktime": 0,
      "vin": [
        {
          "coinbase": "04ffff001d02dc09",
          "sequence": 4294967295
        }
      ],
      "vout": [
        {
          "value": 50.0,
          "n": 0,
          "scriptPubKey": {
            "asm": "047d21964d132f2f5a63652955b5dee0e9e8d27a2925791df7fb3c076b50f7306aa4b174a0c3f968ec37df6622c4f569dc40fe3ee9ed7e557c2f267edfdd893ab3 OP_CHECKSIG",
            "desc": "pk(047d21964d132f2f5a63652955b5dee0e9e8d27a2925791df7fb3c076b50f7306aa4b174a0c3f968ec37df6622c4f569dc40fe3ee9ed7e557c2f267edfdd893ab3)#nlhzctwc",
            "hex": "41047d21964d132f2f5a63652955b5dee0e9e8d27a2925791df7fb3c076b50f7306aa4b174a0c3f968ec37df6622c4f569dc40fe3ee9ed7e557c2f267edfdd893ab3ac",
            "type": "pubkey"
          }
        }
      ],
      "hex": "01000000010000000000000000000000000000000000000000000000000000000000000000ffffffff0804ffff001d02dc09ffffffff0100f2052a010000004341047d21964d132f2f5a63652955b5dee0e9e8d27a2925791df7fb3c076b50f7306aa4b174a0c3f968ec37df6622c4f569dc40fe3ee9ed7e557c2f267edfdd893ab3ac00000000"
    }
  ]
}