{
  "hash": "00000000a9181ba76a9b035cd65682e10bb61f5787cc56a9d59d12a6dd13823a",
  "confirmations": 43876,
  "height": 9222,
  "version": 1,
  "versionHex": "00000001",
  "merkleroot": "f87d2d7299c79a03e82612d0942d0f4814b0b7038ffae83588040cdc5c3901ff",
  "time": 1238416554,
  "mediantime": 1238413539,
  "nonce": 3881204018,
  "bits": "1d00ffff",
  "difficulty": 1,
  "chainwork": "0000000000000000000000000000000000000000000000000000240724072407",
  "nTx": 1,
  "previousblockhash": "000000009943416b6b2f86cbe5b5dcf41e1f95a1257050a3f7f72aea9dd02fef",
  "nextblockhash": "000000004386a66bc18dd4d224e34506c0694a3925e517bd6d18c8db34432873",
  "strippedsize": 215,
  "size": 215,
  "weight": 860,
  "tx": [
    {
      "txid": "f87d2d7299c79a03e82612d0942d0f4814b0b7038ffae83588040cdc5c3901ff",
      "hash": "f87d2d7299c79a03e82612d0942d0f4814b0b7038ffae83588040cdc5c3901ff",
      "version": 1,
      "size": 134,
      "vsize": 134,
      "weight": 536,
      "locktime": 0,
      "vin": [
        {
          "coinbase": "04ffff001d0164",
          "sequence": 4294967295
        }
      ],
      "vout": [
        {
          "value": 50.0,
          "n": 0,
          "scriptPubKey": {
            "asm": "043acd5fe7162c6bac97e9b6c87fea218687e4c48506526a3bc56fe9f931ec39ec5999333dc54edc2ca62f59270a92c414120f913dcfe42fc848113e2235456823 OP_CHECKSIG",
            "desc": "pk(043acd5fe7162c6bac97e9b6c87fea218687e4c48506526a3bc56fe9f931ec39ec5999333dc54edc2ca62f59270a92c414120f913dcfe42fc848113e2235456823)#khhe9c7p",
            "hex": "41043acd5fe7162c6bac97e9b6c87fea218687e4c48506526a3bc56fe9f931ec39ec5999333dc54edc2ca62f59270a92c414120f913dcfe42fc848113e2235456823ac",
            "type": "pubkey"
          }
        }
      ],
      "hex": "01000000010000000000000000000000000000000000000000000000000000000000000000ffffffff0704ffff001d0164ffffffff0100f2052a010000004341043acd5fe7162c6bac97e9b6c87fea218687e4c48506526a3bc56fe9f931ec39ec5999333dc54edc2ca62f59270a92c414120f913dcfe42fc848113e2235456823ac00000000"
    }
  ]
}