{
  "hash": "00000000a08c6cbcd6c90029c8130ad54eccf7472f2abd2d3f4312624fc8d40f",
  "confirmations": 46843,
  "height": 6255,
  "version": 1,
  "versionHex": "00000001",
  "merkleroot": "f257648c7623f4db85f48e1d8c89296dbf29b770ad24a638eea254678d2201ed",
  "time": 1236136347,
  "mediantime": 1236131677,
  "nonce": 514184757,
  "bits": "1d00ffff",
  "difficulty": 1,
  "chainwork": "0000000000000000000000000000000000000000000000000000187018701870",
  "nTx": 1,
  "previousblockhash": "00000000f66b5cec27ccfd92c190803a556b4c0341622eb8340c13fc62cb6265",
  "nextblockhash": "00000000484f3bae55c16d61a0b40f355de3da86026348ef4edf1a32c24dc6c8",
  "strippedsize": 216,
  "size": 216,
  "weight": 864,
  "tx": [
    {
      "txid": "f257648c7623f4db85f48e1d8c89296dbf29b770ad24a638eea254678d2201ed",
      "hash": "f257648c7623f4db85f48e1d8c89296dbf29b770ad24a638eea254678d2201ed",
      "version": 1,
      "size": 135,
      "vsize": 135,
      "weight": 540,
      "locktime": 0,
      "vin": [
        {
          "coinbase": "04ffff001d02ab09",
          "sequence": 4294967295
        }
      ],
      "vout": [
        {
          "value": 50.0,
          "n": 0,
          "scriptPubKey": {
            "asm": "04fcd8e6b7248513062f74ed94717c3e91a3566fd011a50c9e36cac777a8a20fbab43cd2465f2a556655f6139e4215922dff253dbce70f8be017a280b3d5e30a11 OP_CHECKSIG",
            "desc": "pk(04fcd8e6b7248513062f74ed94717c3e91a3566fd011a50c9e36cac777a8a20fbab43cd2465f2a556655f6139e4215922dff253dbce70f8be017a280b3d5e30a11)#m24eqare",
            "hex": "4104fcd8e6b7248513062f74ed94717c3e91a3566fd011a50c9e36cac777a8a20fbab43cd2465f2a556655f6139e4215922dff253dbce70f8be017a280b3d5e30a11ac",
            "type": "pubkey"
          }
        }
      ],
      "hex": "01000000010000000000000000000000000000000000000000000000000000000000000000ffffffff0804ffff001d02ab09ffffffff0100f2052a01000000434104fcd8e6b7248513062f74ed94717c3e91a3566fd011a50c9e36cac777a8a20fbab43cd2465f2a556655f6139e4215922dff253dbce70f8be017a280b3d5e30a11ac00000000"
    }
  ]
}