{
  "hash": "000000008501e69e7fbe028b598f8cbe6652d92b3032ef701671c8c48ff5a57c",
  "confirmations": 48514,
  "height": 4584,
  "version": 1,
  "versionHex": "00000001",
  "merkleroot": "09f62bfcef48e2a3e44ca9e1e250ea9303aeb5dd94acbf2e112165414e281dd9",
  "time": 1234844534,
  "mediantime": 1234839197,
  "nonce": 98025213,
  "bits": "1d00ffff",
  "difficulty": 1,
  "chainwork": "000000000000000000000000000000000000000000000000000011e911e911e9",
  "nTx": 1,
  "previousblockhash": "0000000002ae17e3f77d3df4e8c9cad286a605480b6fc59e09793f51073b429d",
  "nextblockhash": "000000006e74e8941f04a90638127208a729f3dcd77e1f0eb658df9998101b51",
  "strippedsize": 216,
  "size": 216,
  "weight": 864,
  "tx": [
    {
      "txid": "09f62bfcef48e2a3e44ca9e1e250ea9303aeb5dd94acbf2e112165414e281dd9",
      "hash": "09f62bfcef48e2a3e44ca9e1e250ea9303aeb5dd94acbf2e112165414e281dd9",
      "version": 1,
      "size": 135,
      "vsize": 135,
      "weight": 540,
      "locktime": 0,
      "vin": [
        {
          "coinbase": "04ffff001d02a900",
          "sequence": 4294967295
        }
      ],
      "vout": [
        {
          "value": 50.0,
          "n": 0,
          "scriptPubKey": {
            "asm": "04fb1c96c05839d30b807edaee5e354366e2e027228d6be037f5a661b2970cd8e58767a6b4566e37be4a235ac70e61d9f3d7c5d5b1e5486f3386111e90992ea5dc OP_CHECKSIG",
            "desc": "pk(04fb1c96c05839d30b807edaee5e354366e2e027228d6be037f5a661b2970cd8e58767a6b4566e37be4a235ac70e61d9f3d7c5d5b1e5486f3386111e90992ea5dc)#8fmfcmld",
            "hex": "4104fb1c96c05839d30b807edaee5e354366e2e027228d6be037f5a661b2970cd8e58767a6b4566e37be4a235ac70e61d9f3d7c5d5b1e5486f3386111e90992ea5dcac",
            "type": "pubkey"
          }
        }
      ],
      "hex": "01000000010000000000000000000000000000000000000000000000000000000000000000ffffffff0804ffff001d02a900ffffffff0100f2052a01000000434104fb1c96c05839d30b807edaee5e354366e2e027228d6be037f5a661b2970cd8e58767a6b4566e37be4a235ac70e61d9f3d7c5d5b1e5486f3386111e90992ea5dcac00000000"
    }
  ]
}