{
  "hash": "000000009114153329b6acc79c771bf359aa673fc4f1fc227a6c7467eb242ecf",
  "confirmations": 52534,
  "height": 564,
  "version": 1,
  "versionHex": "00000001",
  "merkleroot": "88fd27354b307990dd5faf0ac8d95a62c0f35941856338a6ec93522d33e60384",
  "time": 1232012460,
  "mediantime": 1232010280,
  "nonce": 1134390301,
  "bits": "1d00ffff",
  "difficulty": 1,
  "chainwork": "0000000000000000000000000000000000000000000000000000023502350235",
  "nTx": 1,
  "previousblockhash": "00000000c5c2bb37ed9bf00bc9bd114e4763a40559ba2649bbaf4f4efad00db7",
  "nextblockhash": "00000000d35ef9ae4b7ebdcfb05560bc578ce150508b20fbb1f8d961034b66c1",
  "strippedsize": 216,
  "size": 216,
  "weight": 864,
  "tx": [
    {
      "txid": "88fd27354b307990dd5faf0ac8d95a62c0f35941856338a6ec93522d33e60384",
      "hash": "88fd27354b307990dd5faf0ac8d95a62c0f35941856338a6ec93522d33e60384",
      "version": 1,
      "size": 135,
      "vsize": 135,
      "weight": 540,
      "locktime": 0,
      "vin": [
        {
          "coinbase": "04ffff001d02eb05",
          "sequence": 4294967295
        }
      ],
      "vout": [
        {
          "value": 50.0,
          "n": 0,
          "scriptPubKey": {
            "asm": "04d63ab8087e0f3fe5e8bd5b742021e932e7442a13ba86277d439c2a27d380b47e74e31bf7f7d70114c42eb3372dc2a5e499c23bdb406f1f33d9a8f9f40dbcb66d OP_CHECKSIG",
            "desc": "pk(04d63ab8087e0f3fe5e8bd5b742021e932e7442a13ba86277d439c2a27d380b47e74e31bf7f7d70114c42eb3372dc2a5e499c23bdb406f1f33d9a8f9f40dbcb66d)#tp0f49l0",
            "hex": "4104d63ab8087e0f3fe5e8bd5b742021e932e7442a13ba86277d439c2a27d380b47e74e31bf7f7d70114c42eb3372dc2a5e499c23bdb406f1f33d9a8f9f40dbcb66dac",
            "type": "pubkey"
          }
        }
      ],
      "hex": "01000000010000000000000000000000000000000000000000000000000000000000000000ffffffff0804ffff001d02eb05ffffffff0100f2052a01000000434104d63ab8087e0f3fe5e8bd5b742021e932e7442a13ba86277d439c2a27d380b47e74e31bf7f7d70114c42eb3372dc2a5e499c23bdb406f1f33d9a8f9f40dbcb66dac00000000"
    }
  ]
}