{
  "hash": "0000000036a940c9b689d08f6cfe4a3fff610ed07af0b53d3d81ba97ee717ea0",
  "confirmations": 47165,
  "height": 5933,
  "version": 1,
  "versionHex": "00000001",
  "merkleroot": "fd4310fa33e76b76a9285ac5390174b81695a3b7f5f26950f138a2e6f3caf35c",
  "time": 1235874483,
  "mediantime": 1235868973,
  "nonce": 2721281057,
  "bits": "1d00ffff",
  "difficulty": 1,
  "chainwork": "0000000000000000000000000000000000000000000000000000172e172e172e",
  "nTx": 1,
  "previousblockhash": "00000000a6fc949b6c31948835a2678cfdd38679deb9575ddd9ae34d9db0f258",
  "nextblockhash": "000000009556c08430fc765e27e484a187e728bb01cf1e83cce4c5576b11248d",
  "strippedsize": 216,
  "size": 216,
  "weight": 864,
  "tx": [
    {
      "txid": "fd4310fa33e76b76a9285ac5390174b81695a3b7f5f26950f138a2e6f3caf35c",
      "hash": "fd4310fa33e76b76a9285ac5390174b81695a3b7f5f26950f138a2e6f3caf35c",
      "version": 1,
      "size": 135,
      "vsize": 135,
      "weight": 540,
      "locktime": 0,
      "vin": [
        {
          "coinbase": "04ffff001d02b403",
          "sequence": 4294967295
        }
      ],
      "vout": [
        {
          "value": 50.0,
          "n": 0,
          "scriptPubKey": {
            "asm": "042c4ca0f3cdb4fd91a0bedd39bebc0153614b9b0fa0052b972f6d4ad9d8715f6bd2a5ab1a60a8cbc215bd171fd0b6b695af4547c5d9367d7e46b6af5c9e0d3555 OP_CHECKSIG",
            "desc": "pk(042c4ca0f3cdb4fd91a0bedd39bebc0153614b9b0fa0052b972f6d4ad9d8715f6bd2a5ab1a60a8cbc215bd171fd0b6b695af4547c5d9367d7e46b6af5c9e0d3555)#9mnhkqla",
            "hex": "41042c4ca0f3cdb4fd91a0bedd39bebc0153614b9b0fa0052b972f6d4ad9d8715f6bd2a5ab1a60a8cbc215bd171fd0b6b695af4547c5d9367d7e46b6af5c9e0d3555ac",
            "type": "pubkey"
          }
        }
      ],
      "hex": "01000000010000000000000000000000000000000000000000000000000000000000000000ffffffff0804ffff001d02b403ffffffff0100f2052a010000004341042c4ca0f3cdb4fd91a0bedd39bebc0153614b9b0fa0052b972f6d4ad9d8715f6bd2a5ab1a60a8cbc215bd171fd0b6b695af4547c5d9367d7e46b6af5c9e0d3555ac00000000"
    }
  ]
}