{
  "hash": "000000001904fbf0b1dd2d14c1bb713d5a7f7ae2fc921a516e8f2f4dff592437",
  "confirmations": 45840,
  "height": 7258,
  "version": 1,
  "versionHex": "00000001",
  "merkleroot": "ca2a57326f0941b0bfcbd8ff1882f20dbdd015c2d60abcc3c663ded48a92fa87",
  "time": 1236915211,
  "mediantime": 1236910557,
  "nonce": 129577260,
  "bits": "1d00ffff",
  "difficulty": 1,
  "chainwork": "00000000000000000000000000000000000000000000000000001c5b1c5b1c5b",
  "nTx": 1,
  "previousblockhash": "0000000073313ad7936a139e97851b826f778737c572919ea5deba76eacdc41b",
  "nextblockhash": "0000000093743ded074ee9414c4bd9faca89149f0b35325286de4c9111d2755e",
  "strippedsize": 216,
  "size": 216,
  "weight": 864,
  "tx": [
    {
      "txid": "ca2a57326f0941b0bfcbd8ff1882f20dbdd015c2d60abcc3c663ded48a92fa87",
      "hash": "ca2a57326f0941b0bfcbd8ff1882f20dbdd015c2d60abcc3c663ded48a92fa87",
      "version": 1,
      "size": 135,
      "vsize": 135,
      "weight": 540,
      "locktime": 0,
      "vin": [
        {
          "coinbase": "04ffff001d02a706",
          "sequence": 4294967295
        }
      ],
      "vout": [
        {
          "value": 50.0,
          "n": 0,
          "scriptPubKey": {
            "asm": "044171b30ef3fdb270b09d75b558ae87a12d4b4f0557d1ddcbeb3022fe801aa129b7f727c4027662ddd89f4f85868c8147bc8ed98d9423b768dd4b5b46746d3d9e OP_CHECKSIG",
            "desc": "pk(044171b30ef3fdb270b09d75b558ae87a12d4b4f0557d1ddcbeb3022fe801aa129b7f727c4027662ddd89f4f85868c8147bc8ed98d9423b768dd4b5b46746d3d9e)#drugk3q2",
            "hex": "41044171b30ef3fdb270b09d75b558ae87a12d4b4f0557d1ddcbeb3022fe801aa129b7f727c4027662ddd89f4f85868c8147bc8ed98d9423b768dd4b5b46746d3d9eac",
            "type": "pubkey"
          }
        }
      ],
      "hex": "01000000010000000000000000000000000000000000000000000000000000000000000000ffffffff0804ffff001d02a706ffffffff0100f2052a010000004341044171b30ef3fdb270b09d75b558ae87a12d4b4f0557d1ddcbeb3022fe801aa129b7f727c4027662ddd89f4f85868c8147bc8ed98d9423b768dd4b5b46746d3d9eac00000000"
    }
  ]
}