{
  "hash": "000000008f827ad838ed6caeca6499e157f36c9983b9316bb129afe1b2fdf8f3",
  "confirmations": 44854,
  "height": 8244,
  "version": 1,
  "versionHex": "00000001",
  "merkleroot": "aa1e9353430b925305f6d0c3c63cb19957fcc5f4510e850f84b587613c9d6804",
  "time": 1237692012,
  "mediantime": 1237689723,
  "nonce": 1839660338,
  "bits": "1d00ffff",
  "difficulty": 1,
  "chainwork": "0000000000000000000000000000000000000000000000000000203520352035",
  "nTx": 1,
  "previousblockhash": "00000000ebe174fde0a67963d85aca466125fadb4d993f0f23bddf5cad84f979",
  "nextblockhash": "00000000b604122a84070e34195832917ceeaf40291fb8531c981b5068b43b22",
  "strippedsize": 216,
  "size": 216,
  "weight": 864,
  "tx": [
    {
      "txid": "aa1e9353430b925305f6d0c3c63cb19957fcc5f4510e850f84b587613c9d6804",
      "hash": "aa1e9353430b925305f6d0c3c63cb19957fcc5f4510e850f84b587613c9d6804",
      "version": 1,
      "size": 135,
      "vsize": 135,
      "weight": 540,
      "locktime": 0,
      "vin": [
        {
          "coinbase": "04ffff001d026203",
          "sequence": 4294967295
        }
      ],
      "vout": [
        {
          "value": 50.0,
          "n": 0,
          "scriptPubKey": {
            "asm": "043bd611554cd112ea7c6b622f4f22617a9d4da6a80f17a05ddbd5cd556dd0b6d3069674535ec4e3f48de38c7b51b87e622f27d0c10c4e9f24b43e0c74e443bb89 OP_CHECKSIG",
            "desc": "pk(043bd611554cd112ea7c6b622f4f22617a9d4da6a80f17a05ddbd5cd556dd0b6d3069674535ec4e3f48de38c7b51b87e622f27d0c10c4e9f24b43e0c74e443bb89)#lungj0xr",
            "hex": "41043bd611554cd112ea7c6b622f4f22617a9d4da6a80f17a05ddbd5cd556dd0b6d3069674535ec4e3f48de38c7b51b87e622f27d0c10c4e9f24b43e0c74e443bb89ac",
            "type": "pubkey"
          }
        }
      ],
      "hex": "01000000010000000000000000000000000000000000000000000000000000000000000000ffffffff0804ffff001d026203ffffffff0100f2052a010000004341043bd611554cd112ea7c6b622f4f22617a9d4da6a80f17a05ddbd5cd556dd0b6d3069674535ec4e3f48de38c7b51b87e622f27d0c10c4e9f24b43e0c74e443bb89ac00000000"
    }
  ]
}