{
  "hash": "00000000e2eeb57fc6231266a1b53b65543dc6f1dcd0ee7a91e43c9755d5cc7f",
  "confirmations": 47800,
  "height": 5298,
  "version": 1,
  "versionHex": "00000001",
  "merkleroot": "5f3291d33b84ba1f8378ebc428939d3116d8a12002b182651d0bcccb3862898f",
  "time": 1235361006,
  "mediantime": 1235356303,
  "nonce": 90718214,
  "bits": "1d00ffff",
  "difficulty": 1,
  "chainwork": "000000000000000000000000000000000000000000000000000014b314b314b3",
  "nTx": 1,
  "previousblockhash": "000000002f032e44c72e21f5205f5fe315b7b8abdcdcf0a06cf543b69d4ab3be",
  "nextblockhash": "00000000929fa878ae228c8df06d15f897d2c33e9bafd7932dbe0604c4944ca6",
  "strippedsize": 216,
  "size": 216,
  "weight": 864,
  "tx": [
    {
      "txid": "5f3291d33b84ba1f8378ebc428939d3116d8a12002b182651d0bcccb3862898f",
      "hash": "5f3291d33b84ba1f8378ebc428939d3116d8a12002b182651d0bcccb3862898f",
      "version": 1,
      "size": 135,
      "vsize": 135,
      "weight": 540,
      "locktime": 0,
      "vin": [
        {
          "coinbase": "04ffff001d020902",
          "sequence": 4294967295
        }
      ],
      "vout": [
        {
          "value": 50.0,
          "n": 0,
          "scriptPubKey": {
            "asm": "04375459b2a6df8e221631439343f612043f478d41d52097af0113628f1caa841473d25cefa7838d5754aed1f20f4500045b14c4e4c99f359e62278dd93d675c80 OP_CHECKSIG",
            "desc": "pk(04375459b2a6df8e221631439343f612043f478d41d52097af0113628f1caa841473d25cefa7838d5754aed1f20f4500045b14c4e4c99f359e62278dd93d675c80)#6v8qkaa4",
            "hex": "4104375459b2a6df8e221631439343f612043f478d41d52097af0113628f1caa841473d25cefa7838d5754aed1f20f4500045b14c4e4c99f359e62278dd93d675c80ac",
            "type": "pubkey"
          }
        }
      ],
      "hex": "01000000010000000000000000000000000000000000000000000000000000000000000000ffffffff0804ffff001d020902ffffffff0100f2052a01000000434104375459b2a6df8e221631439343f612043f478d41d52097af0113628f1caa841473d25cefa7838d5754aed1f20f4500045b14c4e4c99f359e62278dd93d675c80ac00000000"
    }
  ]
}