{
  "hash": "00000000959df6e8faf7b28a0e0610574f33856b74a6b9c2888fccdc7e3e6c03",
  "confirmations": 52469,
  "height": 629,
  "version": 1,
  "versionHex": "00000001",
  "merkleroot": "b123e029dfc7ef75f1ee2e673bd294f5f00941af6bcf066db41b30999ddd6e93",
  "time": 1232055703,
  "mediantime": 1232052697,
  "nonce": 2692751393,
  "bits": "1d00ffff",
  "difficulty": 1,
  "chainwork": "0000000000000000000000000000000000000000000000000000027602760276",
  "nTx": 1,
  "previousblockhash": "00000000b5e779143dcc5052a30298bc54026a55089ee7c54d9a84df56b1857d",
  "nextblockhash": "00000000204da74cb20af67449c889b7bbb19f53d5387f999f875d8a1325de57",
  "strippedsize": 216,
  "size": 216,
  "weight": 864,
  "tx": [
    {
      "txid": "b123e029dfc7ef75f1ee2e673bd294f5f00941af6bcf066db41b30999ddd6e93",
      "hash": "b123e029dfc7ef75f1ee2e673bd294f5f00941af6bcf066db41b30999ddd6e93",
      "version": 1,
      "size": 135,
      "vsize": 135,
      "weight": 540,
      "locktime": 0,
      "vin": [
        {
          "coinbase": "04ffff001d021a07",
          "sequence": 4294967295
        }
      ],
      "vout": [
        {
          "value": 50.0,
          "n": 0,
          "scriptPubKey": {
            "asm": "049965ec7bd6981ee7fb3c7b18ef1f78023b12b608dc91632876083ebfa2096351d4e03270ef33b6e5f86e8f7e1bccd6177c277783edc17de4fb06a962e65d1937 OP_CHECKSIG",
            "desc": "pk(049965ec7bd6981ee7fb3c7b18ef1f78023b12b608dc91632876083ebfa2096351d4e03270ef33b6e5f86e8f7e1bccd6177c277783edc17de4fb06a962e65d1937)#yemyaujw",
            "hex": "41049965ec7bd6981ee7fb3c7b18ef1f78023b12b608dc91632876083ebfa2096351d4e03270ef33b6e5f86e8f7e1bccd6177c277783edc17de4fb06a962e65d1937ac",
            "type": "pubkey"
          }
        }
      ],
      "hex": "01000000010000000000000000000000000000000000000000000000000000000000000000ffffffff0804ffff001d021a07ffffffff0100f2052a010000004341049965ec7bd6981ee7fb3c7b18ef1f78023b12b608dc91632876083ebfa2096351d4e03270ef33b6e5f86e8f7e1bccd6177c277783edc17de4fb06a962e65d1937ac00000000"
    }
  ]
}