{
  "hash": "00000000eb14ba643a4fc85369eb4b0e08dfa632d4789d9974e231b2df5ed4a0",
  "confirmations": 50944,
  "height": 2154,
  "version": 1,
  "versionHex": "00000001",
  "merkleroot": "a327e772d25987aaae8176f8bbe2d4d1e546f7d9a6fdc2838c4690167b534c15",
  "time": 1233177935,
  "mediantime": 1233174913,
  "nonce": 40465102,
  "bits": "1d00ffff",
  "difficulty": 1,
  "chainwork": "0000000000000000000000000000000000000000000000000000086b086b086b",
  "nTx": 1,
  "previousblockhash": "00000000d1dc5228b3684b92435b2e22b1ef1b8bf3b139f6ef9c73fc3153cca6",
  "nextblockhash": "00000000d64b54ba52dfa38a5bc37e0f5a709f04a92b776f3ef2e2c5152c2cde",
  "strippedsize": 216,
  "size": 216,
  "weight": 864,
  "tx": [
    {
      "txid": "a327e772d25987aaae8176f8bbe2d4d1e546f7d9a6fdc2838c4690167b534c15",
      "hash": "a327e772d25987aaae8176f8bbe2d4d1e546f7d9a6fdc2838c4690167b534c15",
      "version": 1,
      "size": 135,
      "vsize": 135,
      "weight": 540,
      "locktime": 0,
      "vin": [
        {
          "coinbase": "04ffff001d02d603",
          "sequence": 4294967295
        }
      ],
      "vout": [
        {
          "value": 50.0,
          "n": 0,
          "scriptPubKey": {
            "asm": "04dd46602ec2c9ff1bc383abcb083b7774f8d304763d1d02ccb2b4081ed7944cb8e64debde643bff105260596eda6a9f9fffe169d9a2f6c7178cdfda7db62ab8bc OP_CHECKSIG",
            "desc": "pk(04dd46602ec2c9ff1bc383abcb083b7774f8d304763d1d02ccb2b4081ed7944cb8e64debde643bff105260596eda6a9f9fffe169d9a2f6c7178cdfda7db62ab8bc)#xmn3cvjs",
            "hex": "4104dd46602ec2c9ff1bc383abcb083b7774f8d304763d1d02ccb2b4081ed7944cb8e64debde643bff105260596eda6a9f9fffe169d9a2f6c7178cdfda7db62ab8bcac",
            "type": "pubkey"
          }
        }
      ],
      "hex": "01000000010000000000000000000000000000000000000000000000000000000000000000ffffffff0804ffff001d02d603ffffffff0100f2052a01000000434104dd46602ec2c9ff1bc383abcb083b7774f8d304763d1d02ccb2b4081ed7944cb8e64debde643bff105260596eda6a9f9fffe169d9a2f6c7178cdfda7db62ab8bcac00000000"
    }
  ]
}