{
  "hash": "000000000b25395a2280c0e3fdfb19149d1a0800093df9760e7714f72e40339d",
  "confirmations": 50653,
  "height": 2445,
  "version": 1,
  "versionHex": "00000001",
  "merkleroot": "104766f36bcfaddfe249a7934e0885ab52ffc27151f6b58788b77dbc8dd0f706",
  "time": 1233389217,
  "mediantime": 1233385844,
  "nonce": 682490673,
  "bits": "1d00ffff",
  "difficulty": 1,
  "chainwork": "0000000000000000000000000000000000000000000000000000098e098e098e",
  "nTx": 1,
  "previousblockhash": "0000000012f2ec57a6dfdcd59b36dce7e9e33107a8b809b507b04b7076019a08",
  "nextblockhash": "00000000b9dbc1f3df566792f19e87f3e9ec2b4ee98f1885e53af0b1968788e0",
  "strippedsize": 215,
  "size": 215,
  "weight": 860,
  "tx": [
    {
      "txid": "104766f36bcfaddfe249a7934e0885ab52ffc27151f6b58788b77dbc8dd0f706",
      "hash": "104766f36bcfaddfe249a7934e0885ab52ffc27151f6b58788b77dbc8dd0f706",
      "version": 1,
      "size": 134,
      "vsize": 134,
      "weight": 536,
      "locktime": 0,
      "vin": [
        {
          "coinbase": "04ffff001d016c",
          "sequence": 4294967295
        }
      ],
      "vout": [
        {
          "value": 50.0,
          "n": 0,
          "scriptPubKey": {
            "asm": "04f3559066e24a31d25da9017832b80152e15e94182111da124b80909e43dee6ae2a07e808a34f9e834f4f3e9dff8825e44e6e41522ce85c0d94d3c24b3f3a3b25 OP_CHECKSIG",
            "desc": "pk(04f3559066e24a31d25da9017832b80152e15e94182111da124b80909e43dee6ae2a07e808a34f9e834f4f3e9dff8825e44e6e41522ce85c0d94d3c24b3f3a3b25)#pwuyzxtz",
            "hex": "4104f3559066e24a31d25da9017832b80152e15e94182111da124b80909e43dee6ae2a07e808a34f9e834f4f3e9dff8825e44e6e41522ce85c0d94d3c24b3f3a3b25ac",
            "type": "pubkey"
          }
        }
      ],
      "hex": "01000000010000000000000000000000000000000000000000000000000000000000000000ffffffff0704ffff001d016cffffffff0100f2052a01000000434104f3559066e24a31d25da9017832b80152e15e94182111da124b80909e43dee6ae2a07e808a34f9e834f4f3e9dff8825e44e6e41522ce85c0d94d3c24b3f3a3b25ac00000000"
    }
  ]
}