{
  "hash": "00000000c80e08817fa6bf175f9594788a85f655645a2db9aeb6c1ce1d176473",
  "confirmations": 44136,
  "height": 8962,
  "version": 1,
  "versionHex": "00000001",
  "merkleroot": "836db19431ccc2dbb945a047a1eb0a5478ae1cbd9bd3adad628e2f0342c5c3ae",
  "time": 1238226634,
  "mediantime": 1238222397,
  "nonce": 1683505437,
  "bits": "1d00ffff",
  "difficulty": 1,
  "chainwork": "0000000000000000000000000000000000000000000000000000230323032303",
  "nTx": 1,
  "previousblockhash": "000000001f4cdaea20f65d5535fc9f5d7468bd07a63385be6b3949b551f6eeb6",
  "nextblockhash": "000000004c5f9a511a4287b2be3b2c80ee3da48ab2bcd646d13f83d473419caf",
  "strippedsize": 216,
  "size": 216,
  "weight": 864,
  "tx": [
    {
      "txid": "836db19431ccc2dbb945a047a1eb0a5478ae1cbd9bd3adad628e2f0342c5c3ae",
      "hash": "836db19431ccc2dbb945a047a1eb0a5478ae1cbd9bd3adad628e2f0342c5c3ae",
      "version": 1,
      "size": 135,
      "vsize": 135,
      "weight": 540,
      "locktime": 0,
      "vin": [
        {
          "coinbase": "04ffff001d02c705",
          "sequence": 4294967295
        }
      ],
      "vout": [
        {
          "value": 50.0,
          "n": 0,
          "scriptPubKey": {
            "asm": "0444da9ec8c2cfb60b445b91da8bbd638b8d6f86a0fa9f0b04ac31c7590118b78f3d085ddbd2261d5e65a34590cd3aa9fed163d23e81421ffe5babffc7e57f81d3 OP_CHECKSIG",
            "desc": "pk(0444da9ec8c2cfb60b445b91da8bbd638b8d6f86a0fa9f0b04ac31c7590118b78f3d085ddbd2261d5e65a34590cd3aa9fed163d23e81421ffe5babffc7e57f81d3)#62ms7llt",
            "hex": "410444da9ec8c2cfb60b445b91da8bbd638b8d6f86a0fa9f0b04ac31c7590118b78f3d085ddbd2261d5e65a34590cd3aa9fed163d23e81421ffe5babffc7e57f81d3ac",
            "type": "pubkey"
          }
        }
      ],
      "hex": "01000000010000000000000000000000000000000000000000000000000000000000000000ffffffff0804ffff001d02c705ffffffff0100f2052a0100000043410444da9ec8c2cfb60b445b91da8bbd638b8d6f86a0fa9f0b04ac31c7590118b78f3d085ddbd2261d5e65a34590cd3aa9fed163d23e81421ffe5babffc7e57f81d3ac00000000"
    }
  ]
}