{
  "hash": "000000007e96f9aaf9ffa534df258772228aadf119fecb09b05e942686dde7d4",
  "confirmations": 51004,
  "height": 2094,
  "version": 1,
  "versionHex": "00000001",
  "merkleroot": "8eeac0e17157ef498eeadb47c37705baa6bffe158173932d136e8e98432e5276",
  "time": 1233133172,
  "mediantime": 1233128620,
  "nonce": 1458688036,
  "bits": "1d00ffff",
  "difficulty": 1,
  "chainwork": "0000000000000000000000000000000000000000000000000000082f082f082f",
  "nTx": 1,
  "previousblockhash": "00000000a5c9ae7b0c97436e0bf1111fd421bf3fd9118aeaa8063575cd1bee7e",
  "nextblockhash": "00000000bd56ca2b4b827de4a87fd1e5b4bd0437236cef6cc1cbf32b586e16eb",
  "strippedsize": 216,
  "size": 216,
  "weight": 864,
  "tx": [
    {
      "txid": "8eeac0e17157ef498eeadb47c37705baa6bffe158173932d136e8e98432e5276",
      "hash": "8eeac0e17157ef498eeadb47c37705baa6bffe158173932d136e8e98432e5276",
      "version": 1,
      "size": 135,
      "vsize": 135,
      "weight": 540,
      "locktime": 0,
      "vin": [
        {
          "coinbase": "04ffff001d029503",
          "sequence": 4294967295
        }
      ],
      "vout": [
        {
          "value": 50.0,
          "n": 0,
          "scriptPubKey": {
            "asm": "04c0728c05d576afb95a7f9f781110866a508567b83dec3b7386a5435dcd1c9108a3755294a52d309429d0621e239e800f631a425e8f4cf6762f52c053e1fe2fd5 OP_CHECKSIG",
            "desc": "pk(04c0728c05d576afb95a7f9f781110866a508567b83dec3b7386a5435dcd1c9108a3755294a52d309429d0621e239e800f631a425e8f4cf6762f52c053e1fe2fd5)#3r3e9jft",
            "hex": "4104c0728c05d576afb95a7f9f781110866a508567b83dec3b7386a5435dcd1c9108a3755294a52d309429d0621e239e800f631a425e8f4cf6762f52c053e1fe2fd5ac",
            "type": "pubkey"
          }
        }
      ],
      "hex": "01000000010000000000000000000000000000000000000000000000000000000000000000ffffffff0804ffff001d029503ffffffff0100f2052a01000000434104c0728c05d576afb95a7f9f781110866a508567b83dec3b7386a5435dcd1c9108a3755294a52d309429d0621e239e800f631a425e8f4cf6762f52c053e1fe2fd5ac00000000"
    }
  ]
}