{
  "hash": "00000000ecd04ea471aee3d438940b44fc375b10a3b71cad70abec7ff6b22938",
  "confirmations": 52175,
  "height": 488,
  "version": 1,
  "versionHex": "00000001",
  "merkleroot": "6d5dc1792e1fae2b0a2f51491ae97da30c477fc8eecd0e1b2d977650d74dbb67",
  "time": 1231961090,
  "mediantime": 1231958131,
  "nonce": 2059340803,
  "bits": "1d00ffff",
  "difficulty": 1,
  "chainwork": "000000000000000000000000000000000000000000000000000001e901e901e9",
  "nTx": 1,
  "previousblockhash": "000000009c0f206254fa93fb756b3809c653fcd0a1ebb0caacc5b72e88e29a53",
  "nextblockhash": "000000007f20688b2b5c654489c4d3b69196eba0129a364f89b97ae8e4cb0e33",
  "strippedsize": 216,
  "size": 216,
  "weight": 864,
  "tx": [
    {
      "txid": "6d5dc1792e1fae2b0a2f51491ae97da30c477fc8eecd0e1b2d977650d74dbb67",
      "hash": "6d5dc1792e1fae2b0a2f51491ae97da30c477fc8eecd0e1b2d977650d74dbb67",
      "version": 1,
      "size": 135,
      "vsize": 135,
      "weight": 540,
      "locktime": 0,
      "vin": [
        {
          "coinbase": "04ffff001d024e04",
          "sequence": 4294967295
        }
      ],
      "vout": [
        {
          "value": 50.0,
          "n": 0,
          "scriptPubKey": {
            "asm": "04da6807b38b6c6a96219de346803913225fee2d26244632a648ecec80a6eac1f07e25978260b3edbd7d68362b8019096fe4a61da271429651fa9a5978c582a18e OP_CHECKSIG",
            "desc": "pk(04da6807b38b6c6a96219de346803913225fee2d26244632a648ecec80a6eac1f07e25978260b3edbd7d68362b8019096fe4a61da271429651fa9a5978c582a18e)#l2yw3zdg",
            "hex": "4104da6807b38b6c6a96219de346803913225fee2d26244632a648ecec80a6eac1f07e25978260b3edbd7d68362b8019096fe4a61da271429651fa9a5978c582a18eac",
            "type": "pubkey"
          }
        }
      ],
      "hex": "01000000010000000000000000000000000000000000000000000000000000000000000000ffffffff0804ffff001d024e04ffffffff0100f2052a01000000434104da6807b38b6c6a96219de346803913225fee2d26244632a648ecec80a6eac1f07e25978260b3edbd7d68362b8019096fe4a61da271429651fa9a5978c582a18eac00000000"
    }
  ]
}