{
  "hash": "0000000014a9f7ae544cbb2bd87caa15abd342687c0a70e125cf4e65a48a79c2",
  "confirmations": 50772,
  "height": 2326,
  "version": 1,
  "versionHex": "00000001",
  "merkleroot": "a19248171859df942387ef3a84dc2de7fdad44e2252eb380c55089bf7597dbc8",
  "time": 1233299299,
  "mediantime": 1233295681,
  "nonce": 785287943,
  "bits": "1d00ffff",
  "difficulty": 1,
  "chainwork": "0000000000000000000000000000000000000000000000000000091709170917",
  "nTx": 1,
  "previousblockhash": "0000000068bca7204f5b11298a2e241f12a8ac466aa67865536ce52e928e2e40",
  "nextblockhash": "00000000d8329d19dc2c16ef9f2c6b060e52d363c3d7f41c77632f6765b87859",
  "strippedsize": 216,
  "size": 216,
  "weight": 864,
  "tx": [
    {
      "txid": "a19248171859df942387ef3a84dc2de7fdad44e2252eb380c55089bf7597dbc8",
      "hash": "a19248171859df942387ef3a84dc2de7fdad44e2252eb380c55089bf7597dbc8",
      "version": 1,
      "size": 135,
      "vsize": 135,
      "weight": 540,
      "locktime": 0,
      "vin": [
        {
          "coinbase": "04ffff001d023902",
          "sequence": 4294967295
        }
      ],
      "vout": [
        {
          "value": 50.0,
          "n": 0,
          "scriptPubKey": {
            "asm": "048d6c08830f98760b93ce10bb96eaeb6cb927728779be2363c4940033f96e19a32793c389877f86e83e887068a7ca25884abb99db844c62eee314f2b9bee0f27c OP_CHECKSIG",
            "desc": "pk(048d6c08830f98760b93ce10bb96eaeb6cb927728779be2363c4940033f96e19a32793c389877f86e83e887068a7ca25884abb99db844c62eee314f2b9bee0f27c)#h44u2xqw",
            "hex": "41048d6c08830f98760b93ce10bb96eaeb6cb927728779be2363c4940033f96e19a32793c389877f86e83e887068a7ca25884abb99db844c62eee314f2b9bee0f27cac",
            "type": "pubkey"
          }
        }
      ],
      "hex": "01000000010000000000000000000000000000000000000000000000000000000000000000ffffffff0804ffff001d023902ffffffff0100f2052a010000004341048d6c08830f98760b93ce10bb96eaeb6cb927728779be2363c4940033f96e19a32793c389877f86e83e887068a7ca25884abb99db844c62eee314f2b9bee0f27cac00000000"
    }
  ]
}