{
  "hash": "000000002b222d3291a0225d985af61b45d851aecc6be69854d6b4e73cba6350",
  "confirmations": 47530,
  "height": 5568,
  "version": 1,
  "versionHex": "00000001",
  "merkleroot": "6053ac467872b9d2923a11f6514ae700eb9f49e9fff578c07df630e5643850dd",
  "time": 1235576718,
  "mediantime": 1235572735,
  "nonce": 1556408613,
  "bits": "1d00ffff",
  "difficulty": 1,
  "chainwork": "000000000000000000000000000000000000000000000000000015c115c115c1",
  "nTx": 1,
  "previousblockhash": "00000000e6e73b624655ba4b4713eee94495c6ede081a6f3fd99304d15fca71e",
  "nextblockhash": "00000000a7351b5e447996fe0fd673c63b9fb0480b7d0c9cc4b7b7bf20c9400b",
  "strippedsize": 216,
  "size": 216,
  "weight": 864,
  "tx": [
    {
      "txid": "6053ac467872b9d2923a11f6514ae700eb9f49e9fff578c07df630e5643850dd",
      "hash": "6053ac467872b9d2923a11f6514ae700eb9f49e9fff578c07df630e5643850dd",
      "version": 1,
      "size": 135,
      "vsize": 135,
      "weight": 540,
      "locktime": 0,
      "vin": [
        {
          "coinbase": "04ffff001d02f406",
          "sequence": 4294967295
        }
      ],
      "vout": [
        {
          "value": 50.0,
          "n": 0,
          "scriptPubKey": {
            "asm": "04fbb451548df57c7af97b3b16cdbae217049e0c7c8393a30e84f8107cd09b358466e69deec2472c05ae65d361c9b3c50b80cacfc62e9bc8a0c1d9fb4144fbef68 OP_CHECKSIG",
            "desc": "pk(04fbb451548df57c7af97b3b16cdbae217049e0c7c8393a30e84f8107cd09b358466e69deec2472c05ae65d361c9b3c50b80cacfc62e9bc8a0c1d9fb4144fbef68)#xy6ftu96",
            "hex": "4104fbb451548df57c7af97b3b16cdbae217049e0c7c8393a30e84f8107cd09b358466e69deec2472c05ae65d361c9b3c50b80cacfc62e9bc8a0c1d9fb4144fbef68ac",
            "type": "pubkey"
          }
        }
      ],
      "hex": "01000000010000000000000000000000000000000000000000000000000000000000000000ffffffff0804ffff001d02f406ffffffff0100f2052a01000000434104fbb451548df57c7af97b3b16cdbae217049e0c7c8393a30e84f8107cd09b358466e69deec2472c05ae65d361c9b3c50b80cacfc62e9bc8a0c1d9fb4144fbef68ac00000000"
    }
  ]
}