{
  "hash": "0000000016e9346fefb7e09c9b7d7260e20341e1fb166a0d573f921e58d4c180",
  "confirmations": 44353,
  "height": 8745,
  "version": 1,
  "versionHex": "00000001",
  "merkleroot": "b319cb9ea353d83caa51f9a5c9d09611f927b428a6f2a1a1178679cfd4ab22f7",
  "time": 1238055642,
  "mediantime": 1238051590,
  "nonce": 1632612614,
  "bits": "1d00ffff",
  "difficulty": 1,
  "chainwork": "0000000000000000000000000000000000000000000000000000222a222a222a",
  "nTx": 1,
  "previousblockhash": "000000001e3cfe8fa628a618ae5c2cc83ce0e4011b445a8464855e59fc8494b0",
  "nextblockhash": "00000000305b43b45e877a84345d6ea17382b6087e1e5c3c7e3a280c2e24eb58",
  "strippedsize": 216,
  "size": 216,
  "weight": 864,
  "tx": [
    {
      "txid": "b319cb9ea353d83caa51f9a5c9d09611f927b428a6f2a1a1178679cfd4ab22f7",
      "hash": "b319cb9ea353d83caa51f9a5c9d09611f927b428a6f2a1a1178679cfd4ab22f7",
      "version": 1,
      "size": 135,
      "vsize": 135,
      "weight": 540,
      "locktime": 0,
      "vin": [
        {
          "coinbase": "04ffff001d02a801",
          "sequence": 4294967295
        }
      ],
      "vout": [
        {
          "value": 50.0,
          "n": 0,
          "scriptPubKey": {
            "asm": "0438b6ed52dddf53f115596c42b2c601c272812eff4551d0de8b0c1c3ee946fb7e4bd15423964ad74a3cbb80205d5ceb3b1125bf3676dd48d9ea602f40018c8683 OP_CHECKSIG",
            "desc": "pk(0438b6ed52dddf53f115596c42b2c601c272812eff4551d0de8b0c1c3ee946fb7e4bd15423964ad74a3cbb80205d5ceb3b1125bf3676dd48d9ea602f40018c8683)#6e99es9s",
            "hex": "410438b6ed52dddf53f115596c42b2c601c272812eff4551d0de8b0c1c3ee946fb7e4bd15423964ad74a3cbb80205d5ceb3b1125bf3676dd48d9ea602f40018c8683ac",
            "type": "pubkey"
          }
        }
      ],
      "hex": "01000000010000000000000000000000000000000000000000000000000000000000000000ffffffff0804ffff001d02a801ffffffff0100f2052a0100000043410438b6ed52dddf53f115596c42b2c601c272812eff4551d0de8b0c1c3ee946fb7e4bd15423964ad74a3cbb80205d5ceb3b1125bf3676dd48d9ea602f40018c8683ac00000000"
    }
  ]
}