{
  "hash": "00000000ced2bf7ecdc3e26897d412cd22cdf9d606369f19edc5317d2cade0ca",
  "confirmations": 45599,
  "height": 7499,
  "version": 1,
  "versionHex": "00000001",
  "merkleroot": "7cdfd82728cc6951ad646fcd51013b278ae304353c3118be987ca67be23c6ef3",
  "time": 1237096900,
  "mediantime": 1237092857,
  "nonce": 1101163524,
  "bits": "1d00ffff",
  "difficulty": 1,
  "chainwork": "00000000000000000000000000000000000000000000000000001d4c1d4c1d4c",
  "nTx": 1,
  "previousblockhash": "00000000b120c7089c853f6d0091bd81bcf6051c5b84d32a30811e67e887ed0c",
  "nextblockhash": "000000000ec68b31e49154680704cf194ed415a8d978343a19de657429de095d",
  "strippedsize": 216,
  "size": 216,
  "weight": 864,
  "tx": [
    {
      "txid": "7cdfd82728cc6951ad646fcd51013b278ae304353c3118be987ca67be23c6ef3",
      "hash": "7cdfd82728cc6951ad646fcd51013b278ae304353c3118be987ca67be23c6ef3",
      "version": 1,
      "size": 135,
      "vsize": 135,
      "weight": 540,
      "locktime": 0,
      "vin": [
        {
          "coinbase": "04ffff001d02f300",
          "sequence": 4294967295
        }
      ],
      "vout": [
        {
          "value": 50.0,
          "n": 0,
          "scriptPubKey": {
            "asm": "04b8a33c5b7913a0fc72aca4c2d1e9960744b2576d48ab4981d501d3fb1150cb81ea764d0cd53370f36f053329526d8c917ce9c89a84139afcae1d7121b409bcce OP_CHECKSIG",
            "desc": "pk(04b8a33c5b7913a0fc72aca4c2d1e9960744b2576d48ab4981d501d3fb1150cb81ea764d0cd53370f36f053329526d8c917ce9c89a84139afcae1d7121b409bcce)#xm0etn58",
            "hex": "4104b8a33c5b7913a0fc72aca4c2d1e9960744b2576d48ab4981d501d3fb1150cb81ea764d0cd53370f36f053329526d8c917ce9c89a84139afcae1d7121b409bcceac",
            "type": "pubkey"
          }
        }
      ],
      "hex": "01000000010000000000000000000000000000000000000000000000000000000000000000ffffffff0804ffff001d02f300ffffffff0100f2052a01000000434104b8a33c5b7913a0fc72aca4c2d1e9960744b2576d48ab4981d501d3fb1150cb81ea764d0cd53370f36f053329526d8c917ce9c89a84139afcae1d7121b409bcceac00000000"
    }
  ]
}