{
  "hash": "0000000064ddf1743e850fe5a7ae1f7be47288855b373dc0d1f745fb5d3328ae",
  "confirmations": 47928,
  "height": 5170,
  "version": 1,
  "versionHex": "00000001",
  "merkleroot": "deb13fa882b7000917b5ee53b09c10db9db1fe69a7fb87f9566ada26875e78c7",
  "time": 1235266897,
  "mediantime": 1235262262,
  "nonce": 830711843,
  "bits": "1d00ffff",
  "difficulty": 1,
  "chainwork": "0000000000000000000000000000000000000000000000000000143314331433",
  "nTx": 1,
  "previousblockhash": "0000000052546a7e00a7cd61ce068576f4ce8cfb41b32f8f73ad4d8210e1119f",
  "nextblockhash": "000000000a7ae7a132acdd5a3f29570d100a2685140d3ae0d08ce62d5a810faa",
  "strippedsize": 216,
  "size": 216,
  "weight": 864,
  "tx": [
    {
      "txid": "deb13fa882b7000917b5ee53b09c10db9db1fe69a7fb87f9566ada26875e78c7",
      "hash": "deb13fa882b7000917b5ee53b09c10db9db1fe69a7fb87f9566ada26875e78c7",
      "version": 1,
      "size": 135,
      "vsize": 135,
      "weight": 540,
      "locktime": 0,
      "vin": [
        {
          "coinbase": "04ffff001d02cb0c",
          "sequence": 4294967295
        }
      ],
      "vout": [
        {
          "value": 50.0,
          "n": 0,
          "scriptPubKey": {
            "asm": "04b6e75c7642b8fc71bcf64424f047aceb8c1597ad1e5bda6cd3f80bfd26039327db2005406381c2a9276085678e37a59512a3119787f6d74790050579baeaea8c OP_CHECKSIG",
            "desc": "pk(04b6e75c7642b8fc71bcf64424f047aceb8c1597ad1e5bda6cd3f80bfd26039327db2005406381c2a9276085678e37a59512a3119787f6d74790050579baeaea8c)#6rtapex5",
            "hex": "4104b6e75c7642b8fc71bcf64424f047aceb8c1597ad1e5bda6cd3f80bfd26039327db2005406381c2a9276085678e37a59512a3119787f6d74790050579baeaea8cac",
            "type": "pubkey"
          }
        }
      ],
      "hex": "01000000010000000000000000000000000000000000000000000000000000000000000000ffffffff0804ffff001d02cb0cffffffff0100f2052a01000000434104b6e75c7642b8fc71bcf64424f047aceb8c1597ad1e5bda6cd3f80bfd26039327db2005406381c2a9276085678e37a59512a3119787f6d74790050579baeaea8cac00000000"
    }
  ]
}