{
  "hash": "00000000eba8a666e81792ca1f8b4b9bacf6ff879ad511e830d010e434dcfa85",
  "confirmations": 50738,
  "height": 2360,
  "version": 1,
  "versionHex": "00000001",
  "merkleroot": "fd72587921c8c13dcaf410a0bd500a55f1b49cd7d0000a40d34f09b1f6515c99",
  "time": 1233321795,
  "mediantime": 1233320064,
  "nonce": 35989737,
  "bits": "1d00ffff",
  "difficulty": 1,
  "chainwork": "0000000000000000000000000000000000000000000000000000093909390939",
  "nTx": 1,
  "previousblockhash": "0000000041cbfb172d013707146f30a9111906dc0a1af654b133aa6a285e12ec",
  "nextblockhash": "00000000aa75397d136edac5de594b722e57ff7635ef97357f392d5383452c57",
  "strippedsize": 216,
  "size": 216,
  "weight": 864,
  "tx": [
    {
      "txid": "fd72587921c8c13dcaf410a0bd500a55f1b49cd7d0000a40d34f09b1f6515c99",
      "hash": "fd72587921c8c13dcaf410a0bd500a55f1b49cd7d0000a40d34f09b1f6515c99",
      "version": 1,
      "size": 135,
      "vsize": 135,
      "weight": 540,
      "locktime": 0,
      "vin": [
        {
          "coinbase": "04ffff001d02a504",
          "sequence": 4294967295
        }
      ],
      "vout": [
        {
          "value": 50.0,
          "n": 0,
          "scriptPubKey": {
            "asm": "04597f90e210a9509eec88894cee640a1d77d7312ba4cee160a2a5b528b2f610b310527e3365e4e3ad6f5b7b3153b84a47328db4206110b422ff2bd6f4eef91a9f OP_CHECKSIG",
            "desc": "pk(04597f90e210a9509eec88894cee640a1d77d7312ba4cee160a2a5b528b2f610b310527e3365e4e3ad6f5b7b3153b84a47328db4206110b422ff2bd6f4eef91a9f)#lskc0gge",
            "hex": "4104597f90e210a9509eec88894cee640a1d77d7312ba4cee160a2a5b528b2f610b310527e3365e4e3ad6f5b7b3153b84a47328db4206110b422ff2bd6f4eef91a9fac",
            "type": "pubkey"
          }
        }
      ],
      "hex": "01000000010000000000000000000000000000000000000000000000000000000000000000ffffffff0804ffff001d02a504ffffffff0100f2052a01000000434104597f90e210a9509eec88894cee640a1d77d7312ba4cee160a2a5b528b2f610b310527e3365e4e3ad6f5b7b3153b84a47328db4206110b422ff2bd6f4eef91a9fac00000000"
    }
  ]
}