{
  "hash": "000000003ffac539550a3fb1a63b28f2a3e3a4f47f71ff01bc3535a293ffaaf0",
  "confirmations": 51746,
  "height": 1352,
  "version": 1,
  "versionHex": "00000001",
  "merkleroot": "6cc8062f5256d80d000ca83fd158015c7d1565ee2add0228851f0a1b993034e8",
  "time": 1232643036,
  "mediantime": 1232639155,
  "nonce": 36187965,
  "bits": "1d00ffff",
  "difficulty": 1,
  "chainwork": "0000000000000000000000000000000000000000000000000000054905490549",
  "nTx": 1,
  "previousblockhash": "00000000d557f507f6a0e674f7ebed3df990a341ebbd4d5903d05f8249046c86",
  "nextblockhash": "00000000ba74726f506303ea0c13a12f0638fc09f8dc1009c2ebc5a20b2f91ee",
  "strippedsize": 215,
  "size": 215,
  "weight": 860,
  "tx": [
    {
      "txid": "6cc8062f5256d80d000ca83fd158015c7d1565ee2add0228851f0a1b993034e8",
      "hash": "6cc8062f5256d80d000ca83fd158015c7d1565ee2add0228851f0a1b993034e8",
      "version": 1,
      "size": 134,
      "vsize": 134,
      "weight": 536,
      "locktime": 0,
      "vin": [
        {
          "coinbase": "04ffff001d0155",
          "sequence": 4294967295
        }
      ],
      "vout": [
        {
          "value": 50.0,
          "n": 0,
          "scriptPubKey": {
            "asm": "04c95ad5a261e144312fc97b87fa763c18fc82996aa85416f82804013a0409220f7c2bf1b288cf92f5f2589f757a5312016e53380bd3cea3bebf27994899179424 OP_CHECKSIG",
            "desc": "pk(04c95ad5a261e144312fc97b87fa763c18fc82996aa85416f82804013a0409220f7c2bf1b288cf92f5f2589f757a5312016e53380bd3cea3bebf27994899179424)#7u5zx3ug",
            "hex": "4104c95ad5a261e144312fc97b87fa763c18fc82996aa85416f82804013a0409220f7c2bf1b288cf92f5f2589f757a5312016e53380bd3cea3bebf27994899179424ac",
            "type": "pubkey"
          }
        }
      ],
      "hex": "01000000010000000000000000000000000000000000000000000000000000000000000000ffffffff0704ffff001d0155ffffffff0100f2052a01000000434104c95ad5a261e144312fc97b87fa763c18fc82996aa85416f82804013a0409220f7c2bf1b288cf92f5f2589f757a5312016e53380bd3cea3bebf27994899179424ac00000000"
    }
  ]
}