{
  "hash": "00000000d5230b6ad7b254cfe03b8af8ca676b02b42375ddee00491be16c407a",
  "confirmations": 48287,
  "height": 4811,
  "version": 1,
  "versionHex": "00000001",
  "merkleroot": "41b870d78fd8aef4dff428c3c8753b9c91fd63a481e10d86fafb4c313b8e9363",
  "time": 1235006684,
  "mediantime": 1235004137,
  "nonce": 4209830957,
  "bits": "1d00ffff",
  "difficulty": 1,
  "chainwork": "000000000000000000000000000000000000000000000000000012cc12cc12cc",
  "nTx": 1,
  "previousblockhash": "00000000597bdbf44ada6e1248a46076eb2cd8eebbc7d60afd910bac2bf29985",
  "nextblockhash": "00000000ff2f292114bada4009503a5e8351e9587c82289c4d51499b79e0b80c",
  "strippedsize": 216,
  "size": 216,
  "weight": 864,
  "tx": [
    {
      "txid": "41b870d78fd8aef4dff428c3c8753b9c91fd63a481e10d86fafb4c313b8e9363",
      "hash": "41b870d78fd8aef4dff428c3c8753b9c91fd63a481e10d86fafb4c313b8e9363",
      "version": 1,
      "size": 135,
      "vsize": 135,
      "weight": 540,
      "locktime": 0,
      "vin": [
        {
          "coinbase": "04ffff001d029004",
          "sequence": 4294967295
        }
      ],
      "vout": [
        {
          "value": 50.0,
          "n": 0,
          "scriptPubKey": {
            "asm": "043111be48b1c80bc874c44a149a1662bfdd969388762f491b686dab4399cc3d99839a26b09e15d5f01417616780097dcce06054d240fd4d3c22707e002069eb40 OP_CHECKSIG",
            "desc": "pk(043111be48b1c80bc874c44a149a1662bfdd969388762f491b686dab4399cc3d99839a26b09e15d5f01417616780097dcce06054d240fd4d3c22707e002069eb40)#czp7skru",
            "hex": "41043111be48b1c80bc874c44a149a1662bfdd969388762f491b686dab4399cc3d99839a26b09e15d5f01417616780097dcce06054d240fd4d3c22707e002069eb40ac",
            "type": "pubkey"
          }
        }
      ],
      "hex": "01000000010000000000000000000000000000000000000000000000000000000000000000ffffffff0804ffff001d029004ffffffff0100f2052a010000004341043111be48b1c80bc874c44a149a1662bfdd969388762f491b686dab4399cc3d99839a26b09e15d5f01417616780097dcce06054d240fd4d3c22707e002069eb40ac00000000"
    }
  ]
}