{
  "hash": "000000006c5cfcc268b09c6d379e82dfeb8eb6499ff120b669a9a658fca197bf",
  "confirmations": 47006,
  "height": 6092,
  "version": 1,
  "versionHex": "00000001",
  "merkleroot": "e224c31f70ba0e45d77f8821ebcb80a701e752a9d48c380db93fe5e1df12b88e",
  "time": 1236001063,
  "mediantime": 1235998584,
  "nonce": 1919042083,
  "bits": "1d00ffff",
  "difficulty": 1,
  "chainwork": "000000000000000000000000000000000000000000000000000017cd17cd17cd",
  "nTx": 1,
  "previousblockhash": "0000000038ff8c0d624e4170f4d465544de9acc743bd8f6bcd286d85b4d6f342",
  "nextblockhash": "00000000386eead1eb7ff8d88b13996399a278f23cf17777bb8e434ce9099886",
  "strippedsize": 216,
  "size": 216,
  "weight": 864,
  "tx": [
    {
      "txid": "e224c31f70ba0e45d77f8821ebcb80a701e752a9d48c380db93fe5e1df12b88e",
      "hash": "e224c31f70ba0e45d77f8821ebcb80a701e752a9d48c380db93fe5e1df12b88e",
      "version": 1,
      "size": 135,
      "vsize": 135,
      "weight": 540,
      "locktime": 0,
      "vin": [
        {
          "coinbase": "04ffff001d02a106",
          "sequence": 4294967295
        }
      ],
      "vout": [
        {
          "value": 50.0,
          "n": 0,
          "scriptPubKey": {
            "asm": "044f7d46b48944f07ecb3efb7b420770c32c4b07c666790fd600bffef5f545aa6b9877a58ec58e71f737d8f042e291c331015843ec0b5efcabf0f52face8bdfbab OP_CHECKSIG",
            "desc": "pk(044f7d46b48944f07ecb3efb7b420770c32c4b07c666790fd600bffef5f545aa6b9877a58ec58e71f737d8f042e291c331015843ec0b5efcabf0f52face8bdfbab)#764d05ff",
            "hex": "41044f7d46b48944f07ecb3efb7b420770c32c4b07c666790fd600bffef5f545aa6b9877a58ec58e71f737d8f042e291c331015843ec0b5efcabf0f52face8bdfbabac",
            "type": "pubkey"
          }
        }
      ],
      "hex": "01000000010000000000000000000000000000000000000000000000000000000000000000ffffffff0804ffff001d02a106ffffffff0100f2052a010000004341044f7d46b48944f07ecb3efb7b420770c32c4b07c666790fd600bffef5f545aa6b9877a58ec58e71f737d8f042e291c331015843ec0b5efcabf0f52face8bdfbabac00000000"
    }
  ]
}