{
  "hash": "000000001355edf91f32e2e3068a11062a5b8294ad681210b9b22989c01b507e",
  "confirmations": 44748,
  "height": 8350,
  "version": 1,
  "versionHex": "00000001",
  "merkleroot": "bb9342b0e7ec8004a5191bf40fbe71f925d318d4f551869468d41a8e04853d6d",
  "time": 1237766777,
  "mediantime": 1237762329,
  "nonce": 2812642310,
  "bits": "1d00ffff",
  "difficulty": 1,
  "chainwork": "0000000000000000000000000000000000000000000000000000209f209f209f",
  "nTx": 1,
  "previousblockhash": "000000000ec8b5afc4d461dab3bb7f4885a27997cd29422e69886ab62289828f",
  "nextblockhash": "00000000ba17a02b58a53cf247308a8dfa20c483e007f9a737f136ccd89cb755",
  "strippedsize": 216,
  "size": 216,
  "weight": 864,
  "tx": [
    {
      "txid": "bb9342b0e7ec8004a5191bf40fbe71f925d318d4f551869468d41a8e04853d6d",
      "hash": "bb9342b0e7ec8004a5191bf40fbe71f925d318d4f551869468d41a8e04853d6d",
      "version": 1,
      "size": 135,
      "vsize": 135,
      "weight": 540,
      "locktime": 0,
      "vin": [
        {
          "coinbase": "04ffff001d020c05",
          "sequence": 4294967295
        }
      ],
      "vout": [
        {
          "value": 50.0,
          "n": 0,
          "scriptPubKey": {
            "asm": "047f0312d68bc06066e30414da21a1f2bfc0b45c27a85cac69a14cabce1f4b42498f7e3049c176bf58e5c54863ccc2d9825b002cb85921a54df7e8197ab5872ad0 OP_CHECKSIG",
            "desc": "pk(047f0312d68bc06066e30414da21a1f2bfc0b45c27a85cac69a14cabce1f4b42498f7e3049c176bf58e5c54863ccc2d9825b002cb85921a54df7e8197ab5872ad0)#z25yh2t6",
            "hex": "41047f0312d68bc06066e30414da21a1f2bfc0b45c27a85cac69a14cabce1f4b42498f7e3049c176bf58e5c54863ccc2d9825b002cb85921a54df7e8197ab5872ad0ac",
            "type": "pubkey"
          }
        }
      ],
      "hex": "01000000010000000000000000000000000000000000000000000000000000000000000000ffffffff0804ffff001d020c05ffffffff0100f2052a010000004341047f0312d68bc06066e30414da21a1f2bfc0b45c27a85cac69a14cabce1f4b42498f7e3049c176bf58e5c54863ccc2d9825b002cb85921a54df7e8197ab5872ad0ac00000000"
    }
  ]
}