{
  "hash": "0000000069e4461ea0adb0e3e9d9e71ed022d14e27ad8a309417b3b742c16f4f",
  "confirmations": 43777,
  "height": 9321,
  "version": 1,
  "versionHex": "00000001",
  "merkleroot": "6eeeae9ced037a56f80a7c58ac32199987322de41c62af3fecdaa4b68191ca66",
  "time": 1238489575,
  "mediantime": 1238486235,
  "nonce": 1674967343,
  "bits": "1d00ffff",
  "difficulty": 1,
  "chainwork": "0000000000000000000000000000000000000000000000000000246a246a246a",
  "nTx": 1,
  "previousblockhash": "00000000eaeeff813cc2ef15fd33a82d26c44830304a8667472d4d3dcd53d7dd",
  "nextblockhash": "000000001b1f52515b653e6ea7a852604291031240bf64ea1c61e45f46f6d837",
  "strippedsize": 216,
  "size": 216,
  "weight": 864,
  "tx": [
    {
      "txid": "6eeeae9ced037a56f80a7c58ac32199987322de41c62af3fecdaa4b68191ca66",
      "hash": "6eeeae9ced037a56f80a7c58ac32199987322de41c62af3fecdaa4b68191ca66",
      "version": 1,
      "size": 135,
      "vsize": 135,
      "weight": 540,
      "locktime": 0,
      "vin": [
        {
          "coinbase": "04ffff001d022602",
          "sequence": 4294967295
        }
      ],
      "vout": [
        {
          "value": 50.0,
          "n": 0,
          "scriptPubKey": {
            "asm": "04be62c2b9860654522d801c6fbfa92959cb1779a58a62f94fdc6ef26208d44c9006ab639fe9ff6e206fe2ecea59fa2268b98ca9418708a27ef62c00061cc39c42 OP_CHECKSIG",
            "desc": "pk(04be62c2b9860654522d801c6fbfa92959cb1779a58a62f94fdc6ef26208d44c9006ab639fe9ff6e206fe2ecea59fa2268b98ca9418708a27ef62c00061cc39c42)#32cvnuqq",
            "hex": "4104be62c2b9860654522d801c6fbfa92959cb1779a58a62f94fdc6ef26208d44c9006ab639fe9ff6e206fe2ecea59fa2268b98ca9418708a27ef62c00061cc39c42ac",
            "type": "pubkey"
          }
        }
      ],
      "hex": "01000000010000000000000000000000000000000000000000000000000000000000000000ffffffff0804ffff001d022602ffffffff0100f2052a01000000434104be62c2b9860654522d801c6fbfa92959cb1779a58a62f94fdc6ef26208d44c9006ab639fe9ff6e206fe2ecea59fa2268b98ca9418708a27ef62c00061cc39c42ac00000000"
    }
  ]
}