{
  "hash": "0000000067274eeaa86aebce4bd4146197069635acedb778bb12c109c6e0bc86",
  "confirmations": 51427,
  "height": 1671,
  "version": 1,
  "versionHex": "00000001",
  "merkleroot": "405612c54e299a398b4c39d88544593797af7289aff7136ef8db00f0f679e663",
  "time": 1232841371,
  "mediantime": 1232838737,
  "nonce": 3239302712,
  "bits": "1d00ffff",
  "difficulty": 1,
  "chainwork": "0000000000000000000000000000000000000000000000000000068806880688",
  "nTx": 1,
  "previousblockhash": "000000005b7a58a939b2636f61fa4ddd62258c5fed57667a35d23f2334c4f86d",
  "nextblockhash": "00000000971f78fd0cc78b8399ba3efdd96334977d4ea1e14800af9d8d89ab37",
  "strippedsize": 216,
  "size": 216,
  "weight": 864,
  "tx": [
    {
      "txid": "405612c54e299a398b4c39d88544593797af7289aff7136ef8db00f0f679e663",
      "hash": "405612c54e299a398b4c39d88544593797af7289aff7136ef8db00f0f679e663",
      "version": 1,
      "size": 135,
      "vsize": 135,
      "weight": 540,
      "locktime": 0,
      "vin": [
        {
          "coinbase": "04ffff001d02c602",
          "sequence": 4294967295
        }
      ],
      "vout": [
        {
          "value": 50.0,
          "n": 0,
          "scriptPubKey": {
            "asm": "04c95e0d20055908271d9ffe04332daba2a6b5638b1b42a98ddcd022580cdc6e73577d015287cc71e658f11d755c627db642f313ac20f99f6b0a19bd6af020b585 OP_CHECKSIG",
            "desc": "pk(04c95e0d20055908271d9ffe04332daba2a6b5638b1b42a98ddcd022580cdc6e73577d015287cc71e658f11d755c627db642f313ac20f99f6b0a19bd6af020b585)#3gz0ryar",
            "hex": "4104c95e0d20055908271d9ffe04332daba2a6b5638b1b42a98ddcd022580cdc6e73577d015287cc71e658f11d755c627db642f313ac20f99f6b0a19bd6af020b585ac",
            "type": "pubkey"
          }
        }
      ],
      "hex": "01000000010000000000000000000000000000000000000000000000000000000000000000ffffffff0804ffff001d02c602ffffffff0100f2052a01000000434104c95e0d20055908271d9ffe04332daba2a6b5638b1b42a98ddcd022580cdc6e73577d015287cc71e658f11d755c627db642f313ac20f99f6b0a19bd6af020b585ac00000000"
    }
  ]
}