{
  "hash": "00000000bd6fa884554428530dd33f1a9aa593554cadda89f4cf8264e50ba3c9",
  "confirmations": 50611,
  "height": 2487,
  "version": 1,
  "versionHex": "00000001",
  "merkleroot": "b7bb6f9f34e73f182f99ec57fb7ad570da88a29118e8fdf0e0ebb53b66a9e712",
  "time": 1233414452,
  "mediantime": 1233411304,
  "nonce": 2779684655,
  "bits": "1d00ffff",
  "difficulty": 1,
  "chainwork": "000000000000000000000000000000000000000000000000000009b809b809b8",
  "nTx": 1,
  "previousblockhash": "000000005dee8df90bc9e65889739718ba4a62ee30aedf034d50404823a440e7",
  "nextblockhash": "00000000a0044b90f7600f5f7f094113f213fe963638972d242a400db0d3911f",
  "strippedsize": 216,
  "size": 216,
  "weight": 864,
  "tx": [
    {
      "txid": "b7bb6f9f34e73f182f99ec57fb7ad570da88a29118e8fdf0e0ebb53b66a9e712",
      "hash": "b7bb6f9f34e73f182f99ec57fb7ad570da88a29118e8fdf0e0ebb53b66a9e712",
      "version": 1,
      "size": 135,
      "vsize": 135,
      "weight": 540,
      "locktime": 0,
      "vin": [
        {
          "coinbase": "04ffff001d02ef00",
          "sequence": 4294967295
        }
      ],
      "vout": [
        {
          "value": 50.0,
          "n": 0,
          "scriptPubKey": {
            "asm": "0484f5df9ebaacdd34f0be2377a1ae6a8ff8541290148a12efe04e60057ef06d7a08c9f15d7e7aa4c1f66726e15ea89d5391bb02bacb7618aae9c41d6022b04526 OP_CHECKSIG",
            "desc": "pk(0484f5df9ebaacdd34f0be2377a1ae6a8ff8541290148a12efe04e60057ef06d7a08c9f15d7e7aa4c1f66726e15ea89d5391bb02bacb7618aae9c41d6022b04526)#tdd067rj",
            "hex": "410484f5df9ebaacdd34f0be2377a1ae6a8ff8541290148a12efe04e60057ef06d7a08c9f15d7e7aa4c1f66726e15ea89d5391bb02bacb7618aae9c41d6022b04526ac",
            "type": "pubkey"
          }
        }
      ],
      "hex": "01000000010000000000000000000000000000000000000000000000000000000000000000ffffffff0804ffff001d02ef00ffffffff0100f2052a0100000043410484f5df9ebaacdd34f0be2377a1ae6a8ff8541290148a12efe04e60057ef06d7a08c9f15d7e7aa4c1f66726e15ea89d5391bb02bacb7618aae9c41d6022b04526ac00000000"
    }
  ]
}