{
  "hash": "000000007acfe286492f476652d33298f4989d7f52b01c8cdd5c5c5585f15167",
  "confirmations": 46936,
  "height": 6162,
  "version": 1,
  "versionHex": "00000001",
  "merkleroot": "3e25e9362f65ab9ac629046bfb57f33c48d6ba8d9ceddb8ff5969d815a810883",
  "time": 1236060730,
  "mediantime": 1236055509,
  "nonce": 144208602,
  "bits": "1d00ffff",
  "difficulty": 1,
  "chainwork": "0000000000000000000000000000000000000000000000000000181318131813",
  "nTx": 1,
  "previousblockhash": "00000000ad574610042954c95b3a5434af0dc728385180d44998a97b224825df",
  "nextblockhash": "000000005aee915af4e32659f261f28496ea1b3a9c76fd8d2645e9f29129bf4b",
  "strippedsize": 216,
  "size": 216,
  "weight": 864,
  "tx": [
    {
      "txid": "3e25e9362f65ab9ac629046bfb57f33c48d6ba8d9ceddb8ff5969d815a810883",
      "hash": "3e25e9362f65ab9ac629046bfb57f33c48d6ba8d9ceddb8ff5969d815a810883",
      "version": 1,
      "size": 135,
      "vsize": 135,
      "weight": 540,
      "locktime": 0,
      "vin": [
        {
          "coinbase": "04ffff001d02d909",
          "sequence": 4294967295
        }
      ],
      "vout": [
        {
          "value": 50.0,
          "n": 0,
          "scriptPubKey": {
            "asm": "04a321530298ec2db3e2623209728ad5212a944f768d2a00c82f5b2820d88d9742e5ede487c8ee521b87c5aceb69f8de0565a0f7cd8f308a0e78beb1acb297e8a9 OP_CHECKSIG",
            "desc": "pk(04a321530298ec2db3e2623209728ad5212a944f768d2a00c82f5b2820d88d9742e5ede487c8ee521b87c5aceb69f8de0565a0f7cd8f308a0e78beb1acb297e8a9)#fdh5crw2",
            "hex": "4104a321530298ec2db3e2623209728ad5212a944f768d2a00c82f5b2820d88d9742e5ede487c8ee521b87c5aceb69f8de0565a0f7cd8f308a0e78beb1acb297e8a9ac",
            "type": "pubkey"
          }
        }
      ],
      "hex": "01000000010000000000000000000000000000000000000000000000000000000000000000ffffffff0804ffff001d02d909ffffffff0100f2052a01000000434104a321530298ec2db3e2623209728ad5212a944f768d2a00c82f5b2820d88d9742e5ede487c8ee521b87c5aceb69f8de0565a0f7cd8f308a0e78beb1acb297e8a9ac00000000"
    }
  ]
}