{
  "hash": "000000006cac1e42db9bf5d95270e2c6d6295acd34613fd90b963acb270dfbf4",
  "confirmations": 51922,
  "height": 1176,
  "version": 1,
  "versionHex": "00000001",
  "merkleroot": "f5e3c12440f068536e3dc74c818fef3c63f87fbceb0216fc60a86a7d0505850d",
  "time": 1232482818,
  "mediantime": 1232477955,
  "nonce": 2958058282,
  "bits": "1d00ffff",
  "difficulty": 1,
  "chainwork": "0000000000000000000000000000000000000000000000000000049904990499",
  "nTx": 1,
  "previousblockhash": "000000008ac1737e8278283841daf67b89b0c23b2bbd2337e22144597e9d17ca",
  "nextblockhash": "000000004af6b0d366a2c43803fd78afc3030c92b289dbd5d6adc90dd8a5cb6d",
  "strippedsize": 216,
  "size": 216,
  "weight": 864,
  "tx": [
    {
      "txid": "f5e3c12440f068536e3dc74c818fef3c63f87fbceb0216fc60a86a7d0505850d",
      "hash": "f5e3c12440f068536e3dc74c818fef3c63f87fbceb0216fc60a86a7d0505850d",
      "version": 1,
      "size": 135,
      "vsize": 135,
      "weight": 540,
      "locktime": 0,
      "vin": [
        {
          "coinbase": "04ffff001d024108",
          "sequence": 4294967295
        }
      ],
      "vout": [
        {
          "value": 50.0,
          "n": 0,
          "scriptPubKey": {
            "asm": "0460185fca310d3fdfc8713121b9b0b2d73297eca3ea158c37e6b3fa36e3b6ff315533165ee26b62f4160e1a86692cdf25633937bbb5ec1bcf1b945fb4d847e07d OP_CHECKSIG",
            "desc": "pk(0460185fca310d3fdfc8713121b9b0b2d73297eca3ea158c37e6b3fa36e3b6ff315533165ee26b62f4160e1a86692cdf25633937bbb5ec1bcf1b945fb4d847e07d)#uf4kxxt5",
            "hex": "410460185fca310d3fdfc8713121b9b0b2d73297eca3ea158c37e6b3fa36e3b6ff315533165ee26b62f4160e1a86692cdf25633937bbb5ec1bcf1b945fb4d847e07dac",
            "type": "pubkey"
          }
        }
      ],
      "hex": "01000000010000000000000000000000000000000000000000000000000000000000000000ffffffff0804ffff001d024108ffffffff0100f2052a0100000043410460185fca310d3fdfc8713121b9b0b2d73297eca3ea158c37e6b3fa36e3b6ff315533165ee26b62f4160e1a86692cdf25633937bbb5ec1bcf1b945fb4d847e07dac00000000"
    }
  ]
}