{
  "hash": "000000005aa111ef0160c43e32ec63993adc8d550af23c11d754e83ba1619482",
  "confirmations": 46454,
  "height": 6644,
  "version": 1,
  "versionHex": "00000001",
  "merkleroot": "3e46faaf79ffb562582a2e7e4ddd62b7a49da78f303a1095574aef1e2bd4b7f4",
  "time": 1236440774,
  "mediantime": 1236435116,
  "nonce": 2461372708,
  "bits": "1d00ffff",
  "difficulty": 1,
  "chainwork": "000000000000000000000000000000000000000000000000000019f519f519f5",
  "nTx": 1,
  "previousblockhash": "00000000a63dbd1af1c10c89a744f7412bb74d4d4166b3f19e97708d13944b5d",
  "nextblockhash": "0000000072a3b94d3331263a2a871c56a9f16ca33b7e90f5b1ac58e584e99bef",
  "strippedsize": 216,
  "size": 216,
  "weight": 864,
  "tx": [
    {
      "txid": "3e46faaf79ffb562582a2e7e4ddd62b7a49da78f303a1095574aef1e2bd4b7f4",
      "hash": "3e46faaf79ffb562582a2e7e4ddd62b7a49da78f303a1095574aef1e2bd4b7f4",
      "version": 1,
      "size": 135,
      "vsize": 135,
      "weight": 540,
      "locktime": 0,
      "vin": [
        {
          "coinbase": "04ffff001d020406",
          "sequence": 4294967295
        }
      ],
      "vout": [
        {
          "value": 50.0,
          "n": 0,
          "scriptPubKey": {
            "asm": "04fa160bbfd0ef3c443520a2b6438c0cd711e6d64dafb09242b370eb1c65d980e9057a2446402dec7232bbf53f8bdf0e541a8241465906fbd51184cf4ed5ce4d2e OP_CHECKSIG",
            "desc": "pk(04fa160bbfd0ef3c443520a2b6438c0cd711e6d64dafb09242b370eb1c65d980e9057a2446402dec7232bbf53f8bdf0e541a8241465906fbd51184cf4ed5ce4d2e)#rnddv73y",
            "hex": "4104fa160bbfd0ef3c443520a2b6438c0cd711e6d64dafb09242b370eb1c65d980e9057a2446402dec7232bbf53f8bdf0e541a8241465906fbd51184cf4ed5ce4d2eac",
            "type": "pubkey"
          }
        }
      ],
      "hex": "01000000010000000000000000000000000000000000000000000000000000000000000000ffffffff0804ffff001d020406ffffffff0100f2052a01000000434104fa160bbfd0ef3c443520a2b6438c0cd711e6d64dafb09242b370eb1c65d980e9057a2446402dec7232bbf53f8bdf0e541a8241465906fbd51184cf4ed5ce4d2eac00000000"
    }
  ]
}