{
  "hash": "0000000078ec5c8d0925dc10cacd66af636471fcdafd06166487efc7dbeff623",
  "confirmations": 48076,
  "height": 5022,
  "version": 1,
  "versionHex": "00000001",
  "merkleroot": "371664bcd42d7916079cdd025f9c8cb3a8381f69d4a2175f7d566538773f7731",
  "time": 1235151874,
  "mediantime": 1235148109,
  "nonce": 1646517540,
  "bits": "1d00ffff",
  "difficulty": 1,
  "chainwork": "0000000000000000000000000000000000000000000000000000139f139f139f",
  "nTx": 1,
  "previousblockhash": "0000000002dc07f38ea16f57508dbdb9d26028971bfc6dbe5071f17155e759b3",
  "nextblockhash": "00000000bdf23d97d052042f298c0c7f54b9b58f79736dbb451f4fcae20b0a8f",
  "strippedsize": 216,
  "size": 216,
  "weight": 864,
  "tx": [
    {
      "txid": "371664bcd42d7916079cdd025f9c8cb3a8381f69d4a2175f7d566538773f7731",
      "hash": "371664bcd42d7916079cdd025f9c8cb3a8381f69d4a2175f7d566538773f7731",
      "version": 1,
      "size": 135,
      "vsize": 135,
      "weight": 540,
      "locktime": 0,
      "vin": [
        {
          "coinbase": "04ffff001d024e07",
          "sequence": 4294967295
        }
      ],
      "vout": [
        {
          "value": 50.0,
          "n": 0,
          "scriptPubKey": {
            "asm": "04bd420a00bcce6245629656f1abd59d0f8b7369d91be69277bc4d1db5a5494615a4aa39c1a47dd9951c0a333806e8e956bb389da90587b7202c4d80e0614866d0 OP_CHECKSIG",
            "desc": "pk(04bd420a00bcce6245629656f1abd59d0f8b7369d91be69277bc4d1db5a5494615a4aa39c1a47dd9951c0a333806e8e956bb389da90587b7202c4d80e0614866d0)#xgs4qn4v",
            "hex": "4104bd420a00bcce6245629656f1abd59d0f8b7369d91be69277bc4d1db5a5494615a4aa39c1a47dd9951c0a333806e8e956bb389da90587b7202c4d80e0614866d0ac",
            "type": "pubkey"
          }
        }
      ],
      "hex": "01000000010000000000000000000000000000000000000000000000000000000000000000ffffffff0804ffff001d024e07ffffffff0100f2052a01000000434104bd420a00bcce6245629656f1abd59d0f8b7369d91be69277bc4d1db5a5494615a4aa39c1a47dd9951c0a333806e8e956bb389da90587b7202c4d80e0614866d0ac00000000"
    }
  ]
}