{
  "hash": "0000000021fe55f1272f05be953c251477b579de7228b8289bf3871c44e3c4a4",
  "confirmations": 50287,
  "height": 2811,
  "version": 1,
  "versionHex": "00000001",
  "merkleroot": "09c2de1226e2c8b92fd37dedd505ddb25d899b62ac01aafba8720edfea027b56",
  "time": 1233635951,
  "mediantime": 1233631802,
  "nonce": 2208230178,
  "bits": "1d00ffff",
  "difficulty": 1,
  "chainwork": "00000000000000000000000000000000000000000000000000000afc0afc0afc",
  "nTx": 1,
  "previousblockhash": "00000000cf6ec26ec732d8568cb70877b4799c7e89ebd540fd1661283bd74d28",
  "nextblockhash": "0000000049a63b4dda3a43450c19d085d6c28bfb4cbb2e0576815d7f31919c5d",
  "strippedsize": 216,
  "size": 216,
  "weight": 864,
  "tx": [
    {
      "txid": "09c2de1226e2c8b92fd37dedd505ddb25d899b62ac01aafba8720edfea027b56",
      "hash": "09c2de1226e2c8b92fd37dedd505ddb25d899b62ac01aafba8720edfea027b56",
      "version": 1,
      "size": 135,
      "vsize": 135,
      "weight": 540,
      "locktime": 0,
      "vin": [
        {
          "coinbase": "04ffff001d023f06",
          "sequence": 4294967295
        }
      ],
      "vout": [
        {
          "value": 50.0,
          "n": 0,
          "scriptPubKey": {
            "asm": "04bdaa228a2c6593ae43f37aa45269885e37acb1894b071de304811fe81e61500e8f9c11c100bd1e3d13948c0310732edc293013a64efd89eba63279ff730ec5dd OP_CHECKSIG",
            "desc": "pk(04bdaa228a2c6593ae43f37aa45269885e37acb1894b071de304811fe81e61500e8f9c11c100bd1e3d13948c0310732edc293013a64efd89eba63279ff730ec5dd)#c5r320w9",
            "hex": "4104bdaa228a2c6593ae43f37aa45269885e37acb1894b071de304811fe81e61500e8f9c11c100bd1e3d13948c0310732edc293013a64efd89eba63279ff730ec5ddac",
            "type": "pubkey"
          }
        }
      ],
      "hex": "01000000010000000000000000000000000000000000000000000000000000000000000000ffffffff0804ffff001d023f06ffffffff0100f2052a01000000434104bdaa228a2c6593ae43f37aa45269885e37acb1894b071de304811fe81e61500e8f9c11c100bd1e3d13948c0310732edc293013a64efd89eba63279ff730ec5ddac00000000"
    }
  ]
}