{
  "hash": "00000000b0b1a85adf0d820cb132d663ae799a4c65d3333673f28cda68f7be9c",
  "confirmations": 52394,
  "height": 704,
  "version": 1,
  "versionHex": "00000001",
  "merkleroot": "d70351067d753ce7eb14be7757787abec81cfecee93a20f65ed0cbbafeefd330",
  "time": 1232111152,
  "mediantime": 1232108064,
  "nonce": 3419689756,
  "bits": "1d00ffff",
  "difficulty": 1,
  "chainwork": "000000000000000000000000000000000000000000000000000002c102c102c1",
  "nTx": 1,
  "previousblockhash": "000000004b68c320b5596786d8aec8606695b9a7af378ce587854ac7b6dc4493",
  "nextblockhash": "000000004ebe43b15565f9a42d99481d4a4188059d803d6071906b6804e9d4fe",
  "strippedsize": 216,
  "size": 216,
  "weight": 864,
  "tx": [
    {
      "txid": "d70351067d753ce7eb14be7757787abec81cfecee93a20f65ed0cbbafeefd330",
      "hash": "d70351067d753ce7eb14be7757787abec81cfecee93a20f65ed0cbbafeefd330",
      "version": 1,
      "size": 135,
      "vsize": 135,
      "weight": 540,
      "locktime": 0,
      "vin": [
        {
          "coinbase": "04ffff001d021d01",
          "sequence": 4294967295
        }
      ],
      "vout": [
        {
          "value": 50.0,
          "n": 0,
          "scriptPubKey": {
            "asm": "04068b2e7925ae453c9609323aaacd6f6539603327f1e6581f1d9d3ec99037499b520426094519afed77f887c645ef1d8ea4ba41e4671e247bd5a094ae46a18b20 OP_CHECKSIG",
            "desc": "pk(04068b2e7925ae453c9609323aaacd6f6539603327f1e6581f1d9d3ec99037499b520426094519afed77f887c645ef1d8ea4ba41e4671e247bd5a094ae46a18b20)#5sgt8yrg",
            "hex": "4104068b2e7925ae453c9609323aaacd6f6539603327f1e6581f1d9d3ec99037499b520426094519afed77f887c645ef1d8ea4ba41e4671e247bd5a094ae46a18b20ac",
            "type": "pubkey"
          }
        }
      ],
      "hex": "01000000010000000000000000000000000000000000000000000000000000000000000000ffffffff0804ffff001d021d01ffffffff0100f2052a01000000434104068b2e7925ae453c9609323aaacd6f6539603327f1e6581f1d9d3ec99037499b520426094519afed77f887c645ef1d8ea4ba41e4671e247bd5a094ae46a18b20ac00000000"
    }
  ]
}