{
  "hash": "00000000c8150258cb19b6a22698c759d3ea773574836ee67fe90bb0c9e87e3b",
  "confirmations": 45331,
  "height": 7767,
  "version": 1,
  "versionHex": "00000001",
  "merkleroot": "2be36a94e736738fa09cd12f45ac373ed7df6ca533c5fc23c386529619ebf1ad",
  "time": 1237290571,
  "mediantime": 1237285593,
  "nonce": 2298270494,
  "bits": "1d00ffff",
  "difficulty": 1,
  "chainwork": "00000000000000000000000000000000000000000000000000001e581e581e58",
  "nTx": 1,
  "previousblockhash": "00000000b293631d7242437048e2cd5e2a731d32095bccc9dd59f3279b904dc6",
  "nextblockhash": "00000000fb8adbbfaa3e850103654ef1efa24ff306262f4848a58542c612c114",
  "strippedsize": 216,
  "size": 216,
  "weight": 864,
  "tx": [
    {
      "txid": "2be36a94e736738fa09cd12f45ac373ed7df6ca533c5fc23c386529619ebf1ad",
      "hash": "2be36a94e736738fa09cd12f45ac373ed7df6ca533c5fc23c386529619ebf1ad",
      "version": 1,
      "size": 135,
      "vsize": 135,
      "weight": 540,
      "locktime": 0,
      "vin": [
        {
          "coinbase": "04ffff001d024e05",
          "sequence": 4294967295
        }
      ],
      "vout": [
        {
          "value": 50.0,
          "n": 0,
          "scriptPubKey": {
            "asm": "0491a7267953bdb43431ebd892dec7abf9172e9a4f8158069f2988cdcfa8d3fc522c1ddfc4a0493fd7b90c6408ead3d2e9c4351a3c0da6945c909f09ab6b71a7b8 OP_CHECKSIG",
            "desc": "pk(0491a7267953bdb43431ebd892dec7abf9172e9a4f8158069f2988cdcfa8d3fc522c1ddfc4a0493fd7b90c6408ead3d2e9c4351a3c0da6945c909f09ab6b71a7b8)#tafazc9p",
            "hex": "410491a7267953bdb43431ebd892dec7abf9172e9a4f8158069f2988cdcfa8d3fc522c1ddfc4a0493fd7b90c6408ead3d2e9c4351a3c0da6945c909f09ab6b71a7b8ac",
            "type": "pubkey"
          }
        }
      ],
      "hex": "01000000010000000000000000000000000000000000000000000000000000000000000000ffffffff0804ffff001d024e05ffffffff0100f2052a0100000043410491a7267953bdb43431ebd892dec7abf9172e9a4f8158069f2988cdcfa8d3fc522c1ddfc4a0493fd7b90c6408ead3d2e9c4351a3c0da6945c909f09ab6b71a7b8ac00000000"
    }
  ]
}