{
  "hash": "00000000db56d479773fce0c561ad839f0ee4b97a6646a2597a4aa4d2d9c4190",
  "confirmations": 52012,
  "height": 1086,
  "version": 1,
  "versionHex": "00000001",
  "merkleroot": "417740339e83d596b71df371d2c62f34307bb032d3fa3921e8f0637e2b545908",
  "time": 1232413730,
  "mediantime": 1232410217,
  "nonce": 3757251357,
  "bits": "1d00ffff",
  "difficulty": 1,
  "chainwork": "0000000000000000000000000000000000000000000000000000043f043f043f",
  "nTx": 1,
  "previousblockhash": "000000005aad239f1a26ff4c7557d7412b6037b81e81f55de75b1d3347a73be4",
  "nextblockhash": "0000000098d20ec1ed1fce48c5e055835c0fd2d259dac022254ae8d43e0ac5b5",
  "strippedsize": 216,
  "size": 216,
  "weight": 864,
  "tx": [
    {
      "txid": "417740339e83d596b71df371d2c62f34307bb032d3fa3921e8f0637e2b545908",
      "hash": "417740339e83d596b71df371d2c62f34307bb032d3fa3921e8f0637e2b545908",
      "version": 1,
      "size": 135,
      "vsize": 135,
      "weight": 540,
      "locktime": 0,
      "vin": [
        {
          "coinbase": "04ffff001d02ce06",
          "sequence": 4294967295
        }
      ],
      "vout": [
        {
          "value": 50.0,
          "n": 0,
          "scriptPubKey": {
            "asm": "04e0beec2fe0e1a3fa927fae21b3c5752af4ac01c24c010faafa210ba37c1ced66734d59946b03654c437ec107dce6a43f0fc06f911de7bedf7e8f3071b4d06e62 OP_CHECKSIG",
            "desc": "pk(04e0beec2fe0e1a3fa927fae21b3c5752af4ac01c24c010faafa210ba37c1ced66734d59946b03654c437ec107dce6a43f0fc06f911de7bedf7e8f3071b4d06e62)#7c9gu8l0",
            "hex": "4104e0beec2fe0e1a3fa927fae21b3c5752af4ac01c24c010faafa210ba37c1ced66734d59946b03654c437ec107dce6a43f0fc06f911de7bedf7e8f3071b4d06e62ac",
            "type": "pubkey"
          }
        }
      ],
      "hex": "01000000010000000000000000000000000000000000000000000000000000000000000000ffffffff0804ffff001d02ce06ffffffff0100f2052a01000000434104e0beec2fe0e1a3fa927fae21b3c5752af4ac01c24c010faafa210ba37c1ced66734d59946b03654c437ec107dce6a43f0fc06f911de7bedf7e8f3071b4d06e62ac00000000"
    }
  ]
}