{
  "hash": "000000009365124501ccc3fd99fd9a600d15a02c623851ef583445a2357cf1ae",
  "confirmations": 51686,
  "height": 1412,
  "version": 1,
  "versionHex": "00000001",
  "merkleroot": "a2963f3bf8d476af8f1b655c804e10c2c0dfab6174e323bb45e9590ec9693b1e",
  "time": 1232730677,
  "mediantime": 1232728843,
  "nonce": 325878365,
  "bits": "1d00ffff",
  "difficulty": 1,
  "chainwork": "0000000000000000000000000000000000000000000000000000058505850585",
  "nTx": 1,
  "previousblockhash": "000000008a445c650d29879722e4d37c945310907f74e7d3f2aeccc54a94dc82",
  "nextblockhash": "000000006f7aeefb7422772dab079d9b7d720bacf1e484db7b139c97adafb113",
  "strippedsize": 215,
  "size": 215,
  "weight": 860,
  "tx": [
    {
      "txid": "a2963f3bf8d476af8f1b655c804e10c2c0dfab6174e323bb45e9590ec9693b1e",
      "hash": "a2963f3bf8d476af8f1b655c804e10c2c0dfab6174e323bb45e9590ec9693b1e",
      "version": 1,
      "size": 134,
      "vsize": 134,
      "weight": 536,
      "locktime": 0,
      "vin": [
        {
          "coinbase": "04ffff001d011d",
          "sequence": 4294967295
        }
      ],
      "vout": [
        {
          "value": 50.0,
          "n": 0,
          "scriptPubKey": {
            "asm": "048b6e2284a21102a8d83f59d5346a35527a9a36976b90b068deda73afe0d90ac9eaadc921ce984fdf554c6a25fd710930ed51f975ba20fb674371a5ed340953eb OP_CHECKSIG",
            "desc": "pk(048b6e2284a21102a8d83f59d5346a35527a9a36976b90b068deda73afe0d90ac9eaadc921ce984fdf554c6a25fd710930ed51f975ba20fb674371a5ed340953eb)#7xn6vqkc",
            "hex": "41048b6e2284a21102a8d83f59d5346a35527a9a36976b90b068deda73afe0d90ac9eaadc921ce984fdf554c6a25fd710930ed51f975ba20fb674371a5ed340953ebac",
            "type": "pubkey"
          }
        }
      ],
      "hex": "01000000010000000000000000000000000000000000000000000000000000000000000000ffffffff0704ffff001d011dffffffff0100f2052a010000004341048b6e2284a21102a8d83f59d5346a35527a9a36976b90b068deda73afe0d90ac9eaadc921ce984fdf554c6a25fd710930ed51f975ba20fb674371a5ed340953ebac00000000"
    }
  ]
}