{
  "hash": "00000000fac4c353a6e426c186b9f98e7f600c2f4768af8bae898b738ab58d87",
  "confirmations": 47532,
  "height": 5566,
  "version": 1,
  "versionHex": "00000001",
  "merkleroot": "44c07b78a5a24f550a3a02000a4261d163c1877ddb3cc0bb27f7ff3c7f823b21",
  "time": 1235575711,
  "mediantime": 1235571910,
  "nonce": 1954825269,
  "bits": "1d00ffff",
  "difficulty": 1,
  "chainwork": "000000000000000000000000000000000000000000000000000015bf15bf15bf",
  "nTx": 1,
  "previousblockhash": "00000000042f0f3f54ea856a76160609bfb9cb3551085fa0e9f12771e9bad5e9",
  "nextblockhash": "00000000e6e73b624655ba4b4713eee94495c6ede081a6f3fd99304d15fca71e",
  "strippedsize": 216,
  "size": 216,
  "weight": 864,
  "tx": [
    {
      "txid": "44c07b78a5a24f550a3a02000a4261d163c1877ddb3cc0bb27f7ff3c7f823b21",
      "hash": "44c07b78a5a24f550a3a02000a4261d163c1877ddb3cc0bb27f7ff3c7f823b21",
      "version": 1,
      "size": 135,
      "vsize": 135,
      "weight": 540,
      "locktime": 0,
      "vin": [
        {
          "coinbase": "04ffff001d02ef06",
          "sequence": 4294967295
        }
      ],
      "vout": [
        {
          "value": 50.0,
          "n": 0,
          "scriptPubKey": {
            "asm": "04db42f1e670e5f94547ea9cadf8cc537e61d0433c932be45f80d884c7658a689eabc224920dd0a8433927ff70efde96aa585e566c71d828f51a044f202f6187ec OP_CHECKSIG",
            "desc": "pk(04db42f1e670e5f94547ea9cadf8cc537e61d0433c932be45f80d884c7658a689eabc224920dd0a8433927ff70efde96aa585e566c71d828f51a044f202f6187ec)#g6x08hg0",
            "hex": "4104db42f1e670e5f94547ea9cadf8cc537e61d0433c932be45f80d884c7658a689eabc224920dd0a8433927ff70efde96aa585e566c71d828f51a044f202f6187ecac",
            "type": "pubkey"
          }
        }
      ],
      "hex": "01000000010000000000000000000000000000000000000000000000000000000000000000ffffffff0804ffff001d02ef06ffffffff0100f2052a01000000434104db42f1e670e5f94547ea9cadf8cc537e61d0433c932be45f80d884c7658a689eabc224920dd0a8433927ff70efde96aa585e566c71d828f51a044f202f6187ecac00000000"
    }
  ]
}