{
  "hash": "000000005a7388fdbdddbd2daa6ab2ab9f2e15ab3b7ecfb1d1c010d178198e0a",
  "confirmations": 48914,
  "height": 4184,
  "version": 1,
  "versionHex": "00000001",
  "merkleroot": "2f23c0b76ccad12b944d898ac67f51a389e76f9562b76944ea450de8e16be669",
  "time": 1234570516,
  "mediantime": 1234568661,
  "nonce": 52021110,
  "bits": "1d00ffff",
  "difficulty": 1,
  "chainwork": "0000000000000000000000000000000000000000000000000000105910591059",
  "nTx": 1,
  "previousblockhash": "0000000069ee3699b42e1f4735e6f8baec9d0c2f4dc5b8149828b17971106f50",
  "nextblockhash": "00000000a085db01af8e3c4197c6b3c9b650c756de8c0c5956ab1f43a46bdbfa",
  "strippedsize": 215,
  "size": 215,
  "weight": 860,
  "tx": [
    {
      "txid": "2f23c0b76ccad12b944d898ac67f51a389e76f9562b76944ea450de8e16be669",
      "hash": "2f23c0b76ccad12b944d898ac67f51a389e76f9562b76944ea450de8e16be669",
      "version": 1,
      "size": 134,
      "vsize": 134,
      "weight": 536,
      "locktime": 0,
      "vin": [
        {
          "coinbase": "04ffff001d0108",
          "sequence": 4294967295
        }
      ],
      "vout": [
        {
          "value": 50.0,
          "n": 0,
          "scriptPubKey": {
            "asm": "04b9bee8a2486bb9149c2d64dd089a0543e5e52b46da925e14e8377667860e47f76da2c4a34fcd23ca92e0e0e9b81e8ee5872419a9b19f51fd27d92a5d14ba2f63 OP_CHECKSIG",
            "desc": "pk(04b9bee8a2486bb9149c2d64dd089a0543e5e52b46da925e14e8377667860e47f76da2c4a34fcd23ca92e0e0e9b81e8ee5872419a9b19f51fd27d92a5d14ba2f63)#9n7mrhz5",
            "hex": "4104b9bee8a2486bb9149c2d64dd089a0543e5e52b46da925e14e8377667860e47f76da2c4a34fcd23ca92e0e0e9b81e8ee5872419a9b19f51fd27d92a5d14ba2f63ac",
            "type": "pubkey"
          }
        }
      ],
      "hex": "01000000010000000000000000000000000000000000000000000000000000000000000000ffffffff0704ffff001d0108ffffffff0100f2052a01000000434104b9bee8a2486bb9149c2d64dd089a0543e5e52b46da925e14e8377667860e47f76da2c4a34fcd23ca92e0e0e9b81e8ee5872419a9b19f51fd27d92a5d14ba2f63ac00000000"
    }
  ]
}