{
  "hash": "00000000b6020287497023881010aaad4473c8d34f3287a813da392962a0ef44",
  "confirmations": 45999,
  "height": 7099,
  "version": 1,
  "versionHex": "00000001",
  "merkleroot": "dcd751ea8b88a7c4825b1b4ea04c1a631401074677921484a52469f14d250691",
  "time": 1236796664,
  "mediantime": 1236794785,
  "nonce": 2008775224,
  "bits": "1d00ffff",
  "difficulty": 1,
  "chainwork": "00000000000000000000000000000000000000000000000000001bbc1bbc1bbc",
  "nTx": 1,
  "previousblockhash": "000000009fa9ff58fa778ddfc496b1c506e13db845fa1107e112c6321bdb1f24",
  "nextblockhash": "000000006171874a43a089008ad4dd754d2b9fe0d2340aadf5d2f6602453379f",
  "strippedsize": 216,
  "size": 216,
  "weight": 864,
  "tx": [
    {
      "txid": "dcd751ea8b88a7c4825b1b4ea04c1a631401074677921484a52469f14d250691",
      "hash": "dcd751ea8b88a7c4825b1b4ea04c1a631401074677921484a52469f14d250691",
      "version": 1,
      "size": 135,
      "vsize": 135,
      "weight": 540,
      "locktime": 0,
      "vin": [
        {
          "coinbase": "04ffff001d02ea03",
          "sequence": 4294967295
        }
      ],
      "vout": [
        {
          "value": 50.0,
          "n": 0,
          "scriptPubKey": {
            "asm": "042a8ad516b970ccfd904072c44d141f584615a585f7344a0e023032579208e4897a65ca6b44278992c31fa448af467dafb247433db2cf766c0a2e1d0e718d6faa OP_CHECKSIG",
            "desc": "pk(042a8ad516b970ccfd904072c44d141f584615a585f7344a0e023032579208e4897a65ca6b44278992c31fa448af467dafb247433db2cf766c0a2e1d0e718d6faa)#8euh0mkw",
            "hex": "41042a8ad516b970ccfd904072c44d141f584615a585f7344a0e023032579208e4897a65ca6b44278992c31fa448af467dafb247433db2cf766c0a2e1d0e718d6faaac",
            "type": "pubkey"
          }
        }
      ],
      "hex": "01000000010000000000000000000000000000000000000000000000000000000000000000ffffffff0804ffff001d02ea03ffffffff0100f2052a010000004341042a8ad516b970ccfd904072c44d141f584615a585f7344a0e023032579208e4897a65ca6b44278992c31fa448af467dafb247433db2cf766c0a2e1d0e718d6faaac00000000"
    }
  ]
}