{
  "hash": "0000000072a3b94d3331263a2a871c56a9f16ca33b7e90f5b1ac58e584e99bef",
  "confirmations": 46453,
  "height": 6645,
  "version": 1,
  "versionHex": "00000001",
  "merkleroot": "16beb0783d134f32a122a10b946840f86e9aa4cf31ad641041436443e88faaf7",
  "time": 1236441385,
  "mediantime": 1236436485,
  "nonce": 97801466,
  "bits": "1d00ffff",
  "difficulty": 1,
  "chainwork": "000000000000000000000000000000000000000000000000000019f619f619f6",
  "nTx": 1,
  "previousblockhash": "000000005aa111ef0160c43e32ec63993adc8d550af23c11d754e83ba1619482",
  "nextblockhash": "00000000767f0254e57279f9029ef950cc3b3ca424ff765194de98674fcec901",
  "strippedsize": 216,
  "size": 216,
  "weight": 864,
  "tx": [
    {
      "txid": "16beb0783d134f32a122a10b946840f86e9aa4cf31ad641041436443e88faaf7",
      "hash": "16beb0783d134f32a122a10b946840f86e9aa4cf31ad641041436443e88faaf7",
      "version": 1,
      "size": 135,
      "vsize": 135,
      "weight": 540,
      "locktime": 0,
      "vin": [
        {
          "coinbase": "04ffff001d02a604",
          "sequence": 4294967295
        }
      ],
      "vout": [
        {
          "value": 50.0,
          "n": 0,
          "scriptPubKey": {
            "asm": "046c8f419c0894d9bc84acb45335b14fa0154b05738743dc27ea2f763d5fcd390a575b92dda902397a1ce93a621358f72cf2304a84a63b3e57d02ca722f3dfb8eb OP_CHECKSIG",
            "desc": "pk(046c8f419c0894d9bc84acb45335b14fa0154b05738743dc27ea2f763d5fcd390a575b92dda902397a1ce93a621358f72cf2304a84a63b3e57d02ca722f3dfb8eb)#y7dzl0yp",
            "hex": "41046c8f419c0894d9bc84acb45335b14fa0154b05738743dc27ea2f763d5fcd390a575b92dda902397a1ce93a621358f72cf2304a84a63b3e57d02ca722f3dfb8ebac",
            "type": "pubkey"
          }
        }
      ],
      "hex": "01000000010000000000000000000000000000000000000000000000000000000000000000ffffffff0804ffff001d02a604ffffffff0100f2052a010000004341046c8f419c0894d9bc84acb45335b14fa0154b05738743dc27ea2f763d5fcd390a575b92dda902397a1ce93a621358f72cf2304a84a63b3e57d02ca722f3dfb8ebac00000000"
    }
  ]
}