{
  "hash": "0000000067bd9714807dede7f1dd893b220b10f4b367a0e5b7e96b1f3b82080a",
  "confirmations": 43430,
  "height": 9668,
  "version": 1,
  "versionHex": "00000001",
  "merkleroot": "41c6d3296acd1ed72773907d2abc305fb0493f55f473ceac4e79f7145462d7be",
  "time": 1238752768,
  "mediantime": 1238749456,
  "nonce": 2475000105,
  "bits": "1d00ffff",
  "difficulty": 1,
  "chainwork": "000000000000000000000000000000000000000000000000000025c525c525c5",
  "nTx": 1,
  "previousblockhash": "0000000040b8a0289483f4e6efb6cf3660d244566d0ca6cd0ea4da5d332f1bff",
  "nextblockhash": "00000000d55d8453b7ee461a86125a9612f42f52b39c253e76ae760b9712b283",
  "strippedsize": 216,
  "size": 216,
  "weight": 864,
  "tx": [
    {
      "txid": "41c6d3296acd1ed72773907d2abc305fb0493f55f473ceac4e79f7145462d7be",
      "hash": "41c6d3296acd1ed72773907d2abc305fb0493f55f473ceac4e79f7145462d7be",
      "version": 1,
      "size": 135,
      "vsize": 135,
      "weight": 540,
      "locktime": 0,
      "vin": [
        {
          "coinbase": "04ffff001d02e207",
          "sequence": 4294967295
        }
      ],
      "vout": [
        {
          "value": 50.0,
          "n": 0,
          "scriptPubKey": {
            "asm": "04c4891ceed503f6a14105a337ba15bb55379ad2141aa4a0e0f6b996a014ad1e30375c400498097bacdc276d3bd2bde4eced7b34142c49701ddf2c23d21fa8ac4d OP_CHECKSIG",
            "desc": "pk(04c4891ceed503f6a14105a337ba15bb55379ad2141aa4a0e0f6b996a014ad1e30375c400498097bacdc276d3bd2bde4eced7b34142c49701ddf2c23d21fa8ac4d)#th6wryyh",
            "hex": "4104c4891ceed503f6a14105a337ba15bb55379ad2141aa4a0e0f6b996a014ad1e30375c400498097bacdc276d3bd2bde4eced7b34142c49701ddf2c23d21fa8ac4dac",
            "type": "pubkey"
          }
        }
      ],
      "hex": "01000000010000000000000000000000000000000000000000000000000000000000000000ffffffff0804ffff001d02e207ffffffff0100f2052a01000000434104c4891ceed503f6a14105a337ba15bb55379ad2141aa4a0e0f6b996a014ad1e30375c400498097bacdc276d3bd2bde4eced7b34142c49701ddf2c23d21fa8ac4dac00000000"
    }
  ]
}