{
  "hash": "00000000a8bdd379ebecfbd4b8a14d03ba76db5addf4274eaa427a84932883bd",
  "confirmations": 46747,
  "height": 6351,
  "version": 1,
  "versionHex": "00000001",
  "merkleroot": "0a1ff8ae07ab31dc25307a4f9159f8ec6411bb35859241e0145bd7c6a58c8c03",
  "time": 1236218604,
  "mediantime": 1236212297,
  "nonce": 1916804904,
  "bits": "1d00ffff",
  "difficulty": 1,
  "chainwork": "000000000000000000000000000000000000000000000000000018d018d018d0",
  "nTx": 1,
  "previousblockhash": "000000006468ac6f353b6619057b3be1e44029731272ea2cf3e6bb7427f226ce",
  "nextblockhash": "000000006af63aee2f43a15fd4fb7976da0be07ed90e0fa4feab5763a039eef4",
  "strippedsize": 216,
  "size": 216,
  "weight": 864,
  "tx": [
    {
      "txid": "0a1ff8ae07ab31dc25307a4f9159f8ec6411bb35859241e0145bd7c6a58c8c03",
      "hash": "0a1ff8ae07ab31dc25307a4f9159f8ec6411bb35859241e0145bd7c6a58c8c03",
      "version": 1,
      "size": 135,
      "vsize": 135,
      "weight": 540,
      "locktime": 0,
      "vin": [
        {
          "coinbase": "04ffff001d02e700",
          "sequence": 4294967295
        }
      ],
      "vout": [
        {
          "value": 50.0,
          "n": 0,
          "scriptPubKey": {
            "asm": "04793c03a4e15d7ea46dc0bba82a906c62800a17b90a02d404c57a321f3c683bdc37261a5ff1e0eebab1146ab454aab8730c48e7c23736c9de142f8f8351e0ad1c OP_CHECKSIG",
            "desc": "pk(04793c03a4e15d7ea46dc0bba82a906c62800a17b90a02d404c57a321f3c683bdc37261a5ff1e0eebab1146ab454aab8730c48e7c23736c9de142f8f8351e0ad1c)#wrgatakg",
            "hex": "4104793c03a4e15d7ea46dc0bba82a906c62800a17b90a02d404c57a321f3c683bdc37261a5ff1e0eebab1146ab454aab8730c48e7c23736c9de142f8f8351e0ad1cac",
            "type": "pubkey"
          }
        }
      ],
      "hex": "01000000010000000000000000000000000000000000000000000000000000000000000000ffffffff0804ffff001d02e700ffffffff0100f2052a01000000434104793c03a4e15d7ea46dc0bba82a906c62800a17b90a02d404c57a321f3c683bdc37261a5ff1e0eebab1146ab454aab8730c48e7c23736c9de142f8f8351e0ad1cac00000000"
    }
  ]
}