{
  "hash": "00000000d50a6a8bd41991340a80b0c01402d5fb1bda31ec62d1c768bcfde542",
  "confirmations": 50173,
  "height": 2925,
  "version": 1,
  "versionHex": "00000001",
  "merkleroot": "f6270decae492e19d5903cd1d87f1bb3315116b8bdf80f688980f919d9fd6a05",
  "time": 1233707055,
  "mediantime": 1233704643,
  "nonce": 2662743591,
  "bits": "1d00ffff",
  "difficulty": 1,
  "chainwork": "00000000000000000000000000000000000000000000000000000b6e0b6e0b6e",
  "nTx": 1,
  "previousblockhash": "0000000011b6a8aab82d7be7642ea9c909b2a6e783e5b96de4a77b9de04f5c02",
  "nextblockhash": "000000000d72b52bd0b37eaddabb740f841ef07d949bddb1e464e819c4a8b96d",
  "strippedsize": 215,
  "size": 215,
  "weight": 860,
  "tx": [
    {
      "txid": "f6270decae492e19d5903cd1d87f1bb3315116b8bdf80f688980f919d9fd6a05",
      "hash": "f6270decae492e19d5903cd1d87f1bb3315116b8bdf80f688980f919d9fd6a05",
      "version": 1,
      "size": 134,
      "vsize": 134,
      "weight": 536,
      "locktime": 0,
      "vin": [
        {
          "coinbase": "04ffff001d0109",
          "sequence": 4294967295
        }
      ],
      "vout": [
        {
          "value": 50.0,
          "n": 0,
          "scriptPubKey": {
            "asm": "045058f7b4897b95c2515ca3b7bd4d615a03f38c3903e4b278a473d1438469a7162e33e67282dc56291173252f0e07593aff475b534bb1d559b805241f060eb61e OP_CHECKSIG",
            "desc": "pk(045058f7b4897b95c2515ca3b7bd4d615a03f38c3903e4b278a473d1438469a7162e33e67282dc56291173252f0e07593aff475b534bb1d559b805241f060eb61e)#lnj97xlr",
            "hex": "41045058f7b4897b95c2515ca3b7bd4d615a03f38c3903e4b278a473d1438469a7162e33e67282dc56291173252f0e07593aff475b534bb1d559b805241f060eb61eac",
            "type": "pubkey"
          }
        }
      ],
      "hex": "01000000010000000000000000000000000000000000000000000000000000000000000000ffffffff0704ffff001d0109ffffffff0100f2052a010000004341045058f7b4897b95c2515ca3b7bd4d615a03f38c3903e4b278a473d1438469a7162e33e67282dc56291173252f0e07593aff475b534bb1d559b805241f060eb61eac00000000"
    }
  ]
}