{
  "hash": "00000000748e201e29c8d5e6cc6b5842bd8f7eb3b63893c194a2f4de4b1fb772",
  "confirmations": 49422,
  "height": 3676,
  "version": 1,
  "versionHex": "00000001",
  "merkleroot": "13961446eac84724fb89c35023bf097244ac7bb489952d5fe6c9de686d392caa",
  "time": 1234219423,
  "mediantime": 1234214646,
  "nonce": 2941966615,
  "bits": "1d00ffff",
  "difficulty": 1,
  "chainwork": "00000000000000000000000000000000000000000000000000000e5d0e5d0e5d",
  "nTx": 1,
  "previousblockhash": "000000000759edba4552e80a22a25e679441435ed6244ac41656b786798915f5",
  "nextblockhash": "00000000e8cf7516f691f85c2d9310e4c2472a190ba39815f581ce9a6059bf33",
  "strippedsize": 216,
  "size": 216,
  "weight": 864,
  "tx": [
    {
      "txid": "13961446eac84724fb89c35023bf097244ac7bb489952d5fe6c9de686d392caa",
      "hash": "13961446eac84724fb89c35023bf097244ac7bb489952d5fe6c9de686d392caa",
      "version": 1,
      "size": 135,
      "vsize": 135,
      "weight": 540,
      "locktime": 0,
      "vin": [
        {
          "coinbase": "04ffff001d02a709",
          "sequence": 4294967295
        }
      ],
      "vout": [
        {
          "value": 50.0,
          "n": 0,
          "scriptPubKey": {
            "asm": "04e29426e1419edfbdbf0fe113a0d02992a44c56e1885a838f54b1c0484ccaaa36260e5ba917a43f1aeb720c5bed78bc3e2a3bf821c896db6f14210d305c06ed17 OP_CHECKSIG",
            "desc": "pk(04e29426e1419edfbdbf0fe113a0d02992a44c56e1885a838f54b1c0484ccaaa36260e5ba917a43f1aeb720c5bed78bc3e2a3bf821c896db6f14210d305c06ed17)#8mthar72",
            "hex": "4104e29426e1419edfbdbf0fe113a0d02992a44c56e1885a838f54b1c0484ccaaa36260e5ba917a43f1aeb720c5bed78bc3e2a3bf821c896db6f14210d305c06ed17ac",
            "type": "pubkey"
          }
        }
      ],
      "hex": "01000000010000000000000000000000000000000000000000000000000000000000000000ffffffff0804ffff001d02a709ffffffff0100f2052a01000000434104e29426e1419edfbdbf0fe113a0d02992a44c56e1885a838f54b1c0484ccaaa36260e5ba917a43f1aeb720c5bed78bc3e2a3bf821c896db6f14210d305c06ed17ac00000000"
    }
  ]
}