{
  "hash": "000000008e15745c8ff16c3dacd1ec2e9bb0cd45c4f8d09dcfbcc018a28ef30b",
  "confirmations": 47275,
  "height": 5823,
  "version": 1,
  "versionHex": "00000001",
  "merkleroot": "3fcd966fa82f5e516db67972d632f55884f8448824c3b3e63c70df0c4c4d0e86",
  "time": 1235777384,
  "mediantime": 1235773844,
  "nonce": 2828461063,
  "bits": "1d00ffff",
  "difficulty": 1,
  "chainwork": "000000000000000000000000000000000000000000000000000016c016c016c0",
  "nTx": 1,
  "previousblockhash": "0000000095ce2319d5c3e853b6e3d86d54445bbf16504de3a486da311d0235b7",
  "nextblockhash": "00000000db6f91c65401f84f300112e3c1da0a0f524ab7632026c4f678a31dd0",
  "strippedsize": 216,
  "size": 216,
  "weight": 864,
  "tx": [
    {
      "txid": "3fcd966fa82f5e516db67972d632f55884f8448824c3b3e63c70df0c4c4d0e86",
      "hash": "3fcd966fa82f5e516db67972d632f55884f8448824c3b3e63c70df0c4c4d0e86",
      "version": 1,
      "size": 135,
      "vsize": 135,
      "weight": 540,
      "locktime": 0,
      "vin": [
        {
          "coinbase": "04ffff001d023d01",
          "sequence": 4294967295
        }
      ],
      "vout": [
        {
          "value": 50.0,
          "n": 0,
          "scriptPubKey": {
            "asm": "0446f19fc28b24fe30ecb101ab190be80c743d7b940330ee7904437af5961ae84e253a5237fe1291dc79ab7ff08d438becc88ba4f9f544803bb35f7c044debc374 OP_CHECKSIG",
            "desc": "pk(0446f19fc28b24fe30ecb101ab190be80c743d7b940330ee7904437af5961ae84e253a5237fe1291dc79ab7ff08d438becc88ba4f9f544803bb35f7c044debc374)#2mg99j6c",
            "hex": "410446f19fc28b24fe30ecb101ab190be80c743d7b940330ee7904437af5961ae84e253a5237fe1291dc79ab7ff08d438becc88ba4f9f544803bb35f7c044debc374ac",
            "type": "pubkey"
          }
        }
      ],
      "hex": "01000000010000000000000000000000000000000000000000000000000000000000000000ffffffff0804ffff001d023d01ffffffff0100f2052a0100000043410446f19fc28b24fe30ecb101ab190be80c743d7b940330ee7904437af5961ae84e253a5237fe1291dc79ab7ff08d438becc88ba4f9f544803bb35f7c044debc374ac00000000"
    }
  ]
}