{
  "hash": "00000000af61bb99c804897a63d7babcff6aa2e9b406d3baa291d0f87439b553",
  "confirmations": 47958,
  "height": 5140,
  "version": 1,
  "versionHex": "00000001",
  "merkleroot": "4d796715d1562d56c21d66fe86e2f6c8e9e4fa50438117d9d9b88c06bcec397b",
  "time": 1235245084,
  "mediantime": 1235240793,
  "nonce": 3928336666,
  "bits": "1d00ffff",
  "difficulty": 1,
  "chainwork": "0000000000000000000000000000000000000000000000000000141514151415",
  "nTx": 1,
  "previousblockhash": "0000000068f26c789cb331f30ed797beb8a54e5cdb6d47b90b46351c2b1fde09",
  "nextblockhash": "000000003562ac5b8c41bf0ed09ab126ac1bf5b244b65066df51472267c4d5f8",
  "strippedsize": 216,
  "size": 216,
  "weight": 864,
  "tx": [
    {
      "txid": "4d796715d1562d56c21d66fe86e2f6c8e9e4fa50438117d9d9b88c06bcec397b",
      "hash": "4d796715d1562d56c21d66fe86e2f6c8e9e4fa50438117d9d9b88c06bcec397b",
      "version": 1,
      "size": 135,
      "vsize": 135,
      "weight": 540,
      "locktime": 0,
      "vin": [
        {
          "coinbase": "04ffff001d02c509",
          "sequence": 4294967295
        }
      ],
      "vout": [
        {
          "value": 50.0,
          "n": 0,
          "scriptPubKey": {
            "asm": "04434117b78e6276669e41d8c4007a0095ca1da1953ae85d24d7e5aa7961181d9f043c3afcc7a33c701e5ea5122976c63e57d82a4d3434fecdf915e143ae14460a OP_CHECKSIG",
            "desc": "pk(04434117b78e6276669e41d8c4007a0095ca1da1953ae85d24d7e5aa7961181d9f043c3afcc7a33c701e5ea5122976c63e57d82a4d3434fecdf915e143ae14460a)#u849w5qc",
            "hex": "4104434117b78e6276669e41d8c4007a0095ca1da1953ae85d24d7e5aa7961181d9f043c3afcc7a33c701e5ea5122976c63e57d82a4d3434fecdf915e143ae14460aac",
            "type": "pubkey"
          }
        }
      ],
      "hex": "01000000010000000000000000000000000000000000000000000000000000000000000000ffffffff0804ffff001d02c509ffffffff0100f2052a01000000434104434117b78e6276669e41d8c4007a0095ca1da1953ae85d24d7e5aa7961181d9f043c3afcc7a33c701e5ea5122976c63e57d82a4d3434fecdf915e143ae14460aac00000000"
    }
  ]
}