{
  "hash": "000000006a7e674aa8851c0821d246124b62afcbc224c493a3e898d0618dfa52",
  "confirmations": 51213,
  "height": 1885,
  "version": 1,
  "versionHex": "00000001",
  "merkleroot": "6175b5f9a6f717ea5a51c007424753a8894d41b0a1c96f0df021a78fe6c1c6a3",
  "time": 1232938715,
  "mediantime": 1232935690,
  "nonce": 2519626540,
  "bits": "1d00ffff",
  "difficulty": 1,
  "chainwork": "0000000000000000000000000000000000000000000000000000075e075e075e",
  "nTx": 1,
  "previousblockhash": "00000000be3d49138ffadc146173b21c3b9f4fd3225617a4656873b2ed4a4cdd",
  "nextblockhash": "0000000072d2a9bc066cd767cc7b87f55c2ed6a56f3afa209875fa754e33a9f9",
  "strippedsize": 216,
  "size": 216,
  "weight": 864,
  "tx": [
    {
      "txid": "6175b5f9a6f717ea5a51c007424753a8894d41b0a1c96f0df021a78fe6c1c6a3",
      "hash": "6175b5f9a6f717ea5a51c007424753a8894d41b0a1c96f0df021a78fe6c1c6a3",
      "version": 1,
      "size": 135,
      "vsize": 135,
      "weight": 540,
      "locktime": 0,
      "vin": [
        {
          "coinbase": "04ffff001d02f904",
          "sequence": 4294967295
        }
      ],
      "vout": [
        {
          "value": 50.0,
          "n": 0,
          "scriptPubKey": {
            "asm": "0422fd6769e20c3d9772d6a9c4a5660212f1e2b3e3eb6acdf3e1552412d302811ab67ee48b54fec455ee5595e00b43a711ca84604acd2b75c4bef4ac897537bd1c OP_CHECKSIG",
            "desc": "pk(0422fd6769e20c3d9772d6a9c4a5660212f1e2b3e3eb6acdf3e1552412d302811ab67ee48b54fec455ee5595e00b43a711ca84604acd2b75c4bef4ac897537bd1c)#rvpk43ws",
            "hex": "410422fd6769e20c3d9772d6a9c4a5660212f1e2b3e3eb6acdf3e1552412d302811ab67ee48b54fec455ee5595e00b43a711ca84604acd2b75c4bef4ac897537bd1cac",
            "type": "pubkey"
          }
        }
      ],
      "hex": "01000000010000000000000000000000000000000000000000000000000000000000000000ffffffff0804ffff001d02f904ffffffff0100f2052a0100000043410422fd6769e20c3d9772d6a9c4a5660212f1e2b3e3eb6acdf3e1552412d302811ab67ee48b54fec455ee5595e00b43a711ca84604acd2b75c4bef4ac897537bd1cac00000000"
    }
  ]
}