{
  "hash": "000000007371ef0e04a8406267e7ed4bd918a294ac4728f0da5a7efdcadc36f6",
  "confirmations": 50620,
  "height": 2478,
  "version": 1,
  "versionHex": "00000001",
  "merkleroot": "6a58121b0a4e53c3981fe111ba218d163d837abd3c684fa10a5e16c8b45ab980",
  "time": 1233409151,
  "mediantime": 1233406073,
  "nonce": 1029063976,
  "bits": "1d00ffff",
  "difficulty": 1,
  "chainwork": "000000000000000000000000000000000000000000000000000009af09af09af",
  "nTx": 1,
  "previousblockhash": "00000000163b8bd61b369cabbeb3614947b48d99a98758845058d3ad1e0fff48",
  "nextblockhash": "00000000b47b07272c47c66619e52724ed730c3b7523aa7ea71610167d7cf154",
  "strippedsize": 216,
  "size": 216,
  "weight": 864,
  "tx": [
    {
      "txid": "6a58121b0a4e53c3981fe111ba218d163d837abd3c684fa10a5e16c8b45ab980",
      "hash": "6a58121b0a4e53c3981fe111ba218d163d837abd3c684fa10a5e16c8b45ab980",
      "version": 1,
      "size": 135,
      "vsize": 135,
      "weight": 540,
      "locktime": 0,
      "vin": [
        {
          "coinbase": "04ffff001d02d500",
          "sequence": 4294967295
        }
      ],
      "vout": [
        {
          "value": 50.0,
          "n": 0,
          "scriptPubKey": {
            "asm": "04feb4f90f4de93f28cfc7710cc1b45a6dbb961e74bf095580fe697cd624ddcc99c7487dcc2bb72e701519af7fbf41176097f1f282eb3687587b98ef449acd2a19 OP_CHECKSIG",
            "desc": "pk(04feb4f90f4de93f28cfc7710cc1b45a6dbb961e74bf095580fe697cd624ddcc99c7487dcc2bb72e701519af7fbf41176097f1f282eb3687587b98ef449acd2a19)#2u25fz83",
            "hex": "4104feb4f90f4de93f28cfc7710cc1b45a6dbb961e74bf095580fe697cd624ddcc99c7487dcc2bb72e701519af7fbf41176097f1f282eb3687587b98ef449acd2a19ac",
            "type": "pubkey"
          }
        }
      ],
      "hex": "01000000010000000000000000000000000000000000000000000000000000000000000000ffffffff0804ffff001d02d500ffffffff0100f2052a01000000434104feb4f90f4de93f28cfc7710cc1b45a6dbb961e74bf095580fe697cd624ddcc99c7487dcc2bb72e701519af7fbf41176097f1f282eb3687587b98ef449acd2a19ac00000000"
    }
  ]
}