{
  "hash": "00000000f396ab6b62ba13ef214dfd15b1f17062da8d99742d63bbeeaa5a6a3a",
  "confirmations": 51346,
  "height": 1752,
  "version": 1,
  "versionHex": "00000001",
  "merkleroot": "096cb85a3a14b7d6eae290ec5e912b30b43af90e2867bcfd182728cf6ef60526",
  "time": 1232875621,
  "mediantime": 1232873510,
  "nonce": 154052236,
  "bits": "1d00ffff",
  "difficulty": 1,
  "chainwork": "000000000000000000000000000000000000000000000000000006d906d906d9",
  "nTx": 1,
  "previousblockhash": "000000005b5c1859db198e9f51966a1719e53efb00a3ae7f2d5489bb9e9db1df",
  "nextblockhash": "000000000c6bcf9721175a9eac5fb5ef240d9fa96b1ebb2ac30608788c055c5f",
  "strippedsize": 215,
  "size": 215,
  "weight": 860,
  "tx": [
    {
      "txid": "096cb85a3a14b7d6eae290ec5e912b30b43af90e2867bcfd182728cf6ef60526",
      "hash": "096cb85a3a14b7d6eae290ec5e912b30b43af90e2867bcfd182728cf6ef60526",
      "version": 1,
      "size": 134,
      "vsize": 134,
      "weight": 536,
      "locktime": 0,
      "vin": [
        {
          "coinbase": "04ffff001d0164",
          "sequence": 4294967295
        }
      ],
      "vout": [
        {
          "value": 50.0,
          "n": 0,
          "scriptPubKey": {
            "asm": "0438a04eede65b860fbbdbdb4659e2966c8be8c39e01eb1b813e2022ae6275ac5332b8f010f7f64e3062b1e641e3debc98a24b900c4546485c3fe7abf4d00d42ea OP_CHECKSIG",
            "desc": "pk(0438a04eede65b860fbbdbdb4659e2966c8be8c39e01eb1b813e2022ae6275ac5332b8f010f7f64e3062b1e641e3debc98a24b900c4546485c3fe7abf4d00d42ea)#3dvplnx2",
            "hex": "410438a04eede65b860fbbdbdb4659e2966c8be8c39e01eb1b813e2022ae6275ac5332b8f010f7f64e3062b1e641e3debc98a24b900c4546485c3fe7abf4d00d42eaac",
            "type": "pubkey"
          }
        }
      ],
      "hex": "01000000010000000000000000000000000000000000000000000000000000000000000000ffffffff0704ffff001d0164ffffffff0100f2052a0100000043410438a04eede65b860fbbdbdb4659e2966c8be8c39e01eb1b813e2022ae6275ac5332b8f010f7f64e3062b1e641e3debc98a24b900c4546485c3fe7abf4d00d42eaac00000000"
    }
  ]
}