{
  "hash": "0000000052f10c5b85a01bbc88d5ef8ead684db016561a5914916f5dec73a152",
  "confirmations": 49692,
  "height": 3406,
  "version": 1,
  "versionHex": "00000001",
  "merkleroot": "279e4fb0825cae40bd2b41a08c38437e1e73a1b22844c58857451d2d0f60b219",
  "time": 1234042544,
  "mediantime": 1234039326,
  "nonce": 25896058,
  "bits": "1d00ffff",
  "difficulty": 1,
  "chainwork": "00000000000000000000000000000000000000000000000000000d4f0d4f0d4f",
  "nTx": 1,
  "previousblockhash": "00000000de23a229d2781b11596a19dd81647ddc4fb6c85998bf6a1ea4cf26f0",
  "nextblockhash": "0000000054be2898306eef190f51321b39122c9157bcc1dc214b1ae1b6d58ce4",
  "strippedsize": 216,
  "size": 216,
  "weight": 864,
  "tx": [
    {
      "txid": "279e4fb0825cae40bd2b41a08c38437e1e73a1b22844c58857451d2d0f60b219",
      "hash": "279e4fb0825cae40bd2b41a08c38437e1e73a1b22844c58857451d2d0f60b219",
      "version": 1,
      "size": 135,
      "vsize": 135,
      "weight": 540,
      "locktime": 0,
      "vin": [
        {
          "coinbase": "04ffff001d02e802",
          "sequence": 4294967295
        }
      ],
      "vout": [
        {
          "value": 50.0,
          "n": 0,
          "scriptPubKey": {
            "asm": "04b0f356605ac9b21fccf6e681dd63d4b94bc326a6ad7458b73c0bbd94a53eb16ad12af198d5a85ee9aaf0081723c93b243671778018048d6632412ffe2612b1d1 OP_CHECKSIG",
            "desc": "pk(04b0f356605ac9b21fccf6e681dd63d4b94bc326a6ad7458b73c0bbd94a53eb16ad12af198d5a85ee9aaf0081723c93b243671778018048d6632412ffe2612b1d1)#wynz92zd",
            "hex": "4104b0f356605ac9b21fccf6e681dd63d4b94bc326a6ad7458b73c0bbd94a53eb16ad12af198d5a85ee9aaf0081723c93b243671778018048d6632412ffe2612b1d1ac",
            "type": "pubkey"
          }
        }
      ],
      "hex": "01000000010000000000000000000000000000000000000000000000000000000000000000ffffffff0804ffff001d02e802ffffffff0100f2052a01000000434104b0f356605ac9b21fccf6e681dd63d4b94bc326a6ad7458b73c0bbd94a53eb16ad12af198d5a85ee9aaf0081723c93b243671778018048d6632412ffe2612b1d1ac00000000"
    }
  ]
}