{
  "hash": "000000000e05727f996038fa8b7d8b5826d567c90df934f383c29cb8d9dd5d8f",
  "confirmations": 49681,
  "height": 3417,
  "version": 1,
  "versionHex": "00000001",
  "merkleroot": "109d0dfb6cbe3f66df14e96cf709f8c8de18de287b13daddcca8888f4d3cf42b",
  "time": 1234049963,
  "mediantime": 1234046127,
  "nonce": 2802362644,
  "bits": "1d00ffff",
  "difficulty": 1,
  "chainwork": "00000000000000000000000000000000000000000000000000000d5a0d5a0d5a",
  "nTx": 1,
  "previousblockhash": "000000004ef9f4fa413e3d825463e0faa0a446966a920f39433b7bc348ad9ca7",
  "nextblockhash": "00000000a2558fe5bf9316e7c289ba6c1ea8b1a229add9d4ffa259c53b8b4185",
  "strippedsize": 216,
  "size": 216,
  "weight": 864,
  "tx": [
    {
      "txid": "109d0dfb6cbe3f66df14e96cf709f8c8de18de287b13daddcca8888f4d3cf42b",
      "hash": "109d0dfb6cbe3f66df14e96cf709f8c8de18de287b13daddcca8888f4d3cf42b",
      "version": 1,
      "size": 135,
      "vsize": 135,
      "weight": 540,
      "locktime": 0,
      "vin": [
        {
          "coinbase": "04ffff001d02e505",
          "sequence": 4294967295
        }
      ],
      "vout": [
        {
          "value": 50.0,
          "n": 0,
          "scriptPubKey": {
            "asm": "0435a58b28d8b1b60426d1ec3b94bff3386129a7463b87c0f1f073e3bd19395e9420e5c6759870b489c2a8cd1e80639bffea010c3d85f5e01b1649e31c8de3ac8a OP_CHECKSIG",
            "desc": "pk(0435a58b28d8b1b60426d1ec3b94bff3386129a7463b87c0f1f073e3bd19395e9420e5c6759870b489c2a8cd1e80639bffea010c3d85f5e01b1649e31c8de3ac8a)#x4k5n3ac",
            "hex": "410435a58b28d8b1b60426d1ec3b94bff3386129a7463b87c0f1f073e3bd19395e9420e5c6759870b489c2a8cd1e80639bffea010c3d85f5e01b1649e31c8de3ac8aac",
            "type": "pubkey"
          }
        }
      ],
      "hex": "01000000010000000000000000000000000000000000000000000000000000000000000000ffffffff0804ffff001d02e505ffffffff0100f2052a0100000043410435a58b28d8b1b60426d1ec3b94bff3386129a7463b87c0f1f073e3bd19395e9420e5c6759870b489c2a8cd1e80639bffea010c3d85f5e01b1649e31c8de3ac8aac00000000"
    }
  ]
}