{
  "hash": "000000005f2f2e4c4e8ce832beb63b73cb5ceaaab61527f9b1eaae0221f72dbb",
  "confirmations": 50080,
  "height": 3018,
  "version": 1,
  "versionHex": "00000001",
  "merkleroot": "6d15cbc711b1a499b56292685b08e8e1aeee9b98334ce5a92938c0de29ab76d6",
  "time": 1233774446,
  "mediantime": 1233771533,
  "nonce": 91371011,
  "bits": "1d00ffff",
  "difficulty": 1,
  "chainwork": "00000000000000000000000000000000000000000000000000000bcb0bcb0bcb",
  "nTx": 1,
  "previousblockhash": "000000002301fa46111e812fcff9eecc3be8752f30d96a80bba823663bd08a8e",
  "nextblockhash": "00000000af213faaf56c36784a0a11050d7089c5e06a15940d6a856d108a6b1b",
  "strippedsize": 216,
  "size": 216,
  "weight": 864,
  "tx": [
    {
      "txid": "6d15cbc711b1a499b56292685b08e8e1aeee9b98334ce5a92938c0de29ab76d6",
      "hash": "6d15cbc711b1a499b56292685b08e8e1aeee9b98334ce5a92938c0de29ab76d6",
      "version": 1,
      "size": 135,
      "vsize": 135,
      "weight": 540,
      "locktime": 0,
      "vin": [
        {
          "coinbase": "04ffff001d02b501",
          "sequence": 4294967295
        }
      ],
      "vout": [
        {
          "value": 50.0,
          "n": 0,
          "scriptPubKey": {
            "asm": "04b9053556a9acda4789b0a582bc92b462f76e7d048392363a4489cc74e407ac04db63d381aabc898a15107859d7d989b96fc0356a4ca6a75bebb5c5338143931b OP_CHECKSIG",
            "desc": "pk(04b9053556a9acda4789b0a582bc92b462f76e7d048392363a4489cc74e407ac04db63d381aabc898a15107859d7d989b96fc0356a4ca6a75bebb5c5338143931b)#fr37cc8f",
            "hex": "4104b9053556a9acda4789b0a582bc92b462f76e7d048392363a4489cc74e407ac04db63d381aabc898a15107859d7d989b96fc0356a4ca6a75bebb5c5338143931bac",
            "type": "pubkey"
          }
        }
      ],
      "hex": "01000000010000000000000000000000000000000000000000000000000000000000000000ffffffff0804ffff001d02b501ffffffff0100f2052a01000000434104b9053556a9acda4789b0a582bc92b462f76e7d048392363a4489cc74e407ac04db63d381aabc898a15107859d7d989b96fc0356a4ca6a75bebb5c5338143931bac00000000"
    }
  ]
}