{
  "hash": "000000005eb185e781c9980b7bf3001170c606c7534f4543cc931d1d66a2b205",
  "confirmations": 52179,
  "height": 484,
  "version": 1,
  "versionHex": "00000001",
  "merkleroot": "9701619feba0aa1158c4bf7626a3774a050b5b3d3ce51d5156c6eaadc899ed2f",
  "time": 1231958892,
  "mediantime": 1231954777,
  "nonce": 585998876,
  "bits": "1d00ffff",
  "difficulty": 1,
  "chainwork": "000000000000000000000000000000000000000000000000000001e501e501e5",
  "nTx": 1,
  "previousblockhash": "00000000ecffce6482a68bcd4f82511cbad2afd94d71469432501ca6a5f4811a",
  "nextblockhash": "00000000754312ec7235128b6e6e3539c760f61c1988e4728a5aa1dcd9cbcbde",
  "strippedsize": 216,
  "size": 216,
  "weight": 864,
  "tx": [
    {
      "txid": "9701619feba0aa1158c4bf7626a3774a050b5b3d3ce51d5156c6eaadc899ed2f",
      "hash": "9701619feba0aa1158c4bf7626a3774a050b5b3d3ce51d5156c6eaadc899ed2f",
      "version": 1,
      "size": 135,
      "vsize": 135,
      "weight": 540,
      "locktime": 0,
      "vin": [
        {
          "coinbase": "04ffff001d023504",
          "sequence": 4294967295
        }
      ],
      "vout": [
        {
          "value": 50.0,
          "n": 0,
          "scriptPubKey": {
            "asm": "040c93559baa19247fa92f6c7b9100445d74ff6654f97b1a4cbf794da0679828c7110a07e6133197d8a24f6f7d50738662693754450a0d78cece67d77cf8c1fc83 OP_CHECKSIG",
            "desc": "pk(040c93559baa19247fa92f6c7b9100445d74ff6654f97b1a4cbf794da0679828c7110a07e6133197d8a24f6f7d50738662693754450a0d78cece67d77cf8c1fc83)#mj5qlevz",
            "hex": "41040c93559baa19247fa92f6c7b9100445d74ff6654f97b1a4cbf794da0679828c7110a07e6133197d8a24f6f7d50738662693754450a0d78cece67d77cf8c1fc83ac",
            "type": "pubkey"
          }
        }
      ],
      "hex": "01000000010000000000000000000000000000000000000000000000000000000000000000ffffffff0804ffff001d023504ffffffff0100f2052a010000004341040c93559baa19247fa92f6c7b9100445d74ff6654f97b1a4cbf794da0679828c7110a07e6133197d8a24f6f7d50738662693754450a0d78cece67d77cf8c1fc83ac00000000"
    }
  ]
}