{
  "hash": "0000000030dbdc002ac83181ffa9c85f8376bf69136922e43eab74034dd8788e",
  "confirmations": 44280,
  "height": 8818,
  "version": 1,
  "versionHex": "00000001",
  "merkleroot": "ae5c2cd1ea54dd126dbf6cf53e949a22c953a352320ac9e72d3e002057482c39",
  "time": 1238111852,
  "mediantime": 1238109293,
  "nonce": 606375964,
  "bits": "1d00ffff",
  "difficulty": 1,
  "chainwork": "0000000000000000000000000000000000000000000000000000227322732273",
  "nTx": 1,
  "previousblockhash": "00000000619619ad3f0beb6fbe93e56126fdf1068c813cf8c80e3a60f8803acf",
  "nextblockhash": "00000000dfbb5618e8ee1779951eec919fceb99b88da02dd597c7d948fdf3833",
  "strippedsize": 216,
  "size": 216,
  "weight": 864,
  "tx": [
    {
      "txid": "ae5c2cd1ea54dd126dbf6cf53e949a22c953a352320ac9e72d3e002057482c39",
      "hash": "ae5c2cd1ea54dd126dbf6cf53e949a22c953a352320ac9e72d3e002057482c39",
      "version": 1,
      "size": 135,
      "vsize": 135,
      "weight": 540,
      "locktime": 0,
      "vin": [
        {
          "coinbase": "04ffff001d021403",
          "sequence": 4294967295
        }
      ],
      "vout": [
        {
          "value": 50.0,
          "n": 0,
          "scriptPubKey": {
            "asm": "0437c53ce76a86d66c1cf7c04ae74e60292f788f0363804d6d266cc427e24050a223869e9464c1f03038c15fe83fbd4aa7f0638c2eada34ab2363c3532ae13eecc OP_CHECKSIG",
            "desc": "pk(0437c53ce76a86d66c1cf7c04ae74e60292f788f0363804d6d266cc427e24050a223869e9464c1f03038c15fe83fbd4aa7f0638c2eada34ab2363c3532ae13eecc)#gkkank0v",
            "hex": "410437c53ce76a86d66c1cf7c04ae74e60292f788f0363804d6d266cc427e24050a223869e9464c1f03038c15fe83fbd4aa7f0638c2eada34ab2363c3532ae13eeccac",
            "type": "pubkey"
          }
        }
      ],
      "hex": "01000000010000000000000000000000000000000000000000000000000000000000000000ffffffff0804ffff001d021403ffffffff0100f2052a0100000043410437c53ce76a86d66c1cf7c04ae74e60292f788f0363804d6d266cc427e24050a223869e9464c1f03038c15fe83fbd4aa7f0638c2eada34ab2363c3532ae13eeccac00000000"
    }
  ]
}