{
  "hash": "00000000f85571f33b3ed8eacd52c1a80d70ade909d342c7f8a479dbbd3180fd",
  "confirmations": 50127,
  "height": 2971,
  "version": 1,
  "versionHex": "00000001",
  "merkleroot": "ec79bd287b35fcf1da6123ae04a8370a113a6d6d22d597e93c5a1b754e2be731",
  "time": 1233742063,
  "mediantime": 1233738615,
  "nonce": 2527362313,
  "bits": "1d00ffff",
  "difficulty": 1,
  "chainwork": "00000000000000000000000000000000000000000000000000000b9c0b9c0b9c",
  "nTx": 1,
  "previousblockhash": "000000005b718997744bc4d45b0f5106db14ea7e84ebbb00ed074c4e40094baa",
  "nextblockhash": "00000000d94f1d51a312d293fe4acaea8aae1377eb26ca4c0b8bcb50ae43f743",
  "strippedsize": 216,
  "size": 216,
  "weight": 864,
  "tx": [
    {
      "txid": "ec79bd287b35fcf1da6123ae04a8370a113a6d6d22d597e93c5a1b754e2be731",
      "hash": "ec79bd287b35fcf1da6123ae04a8370a113a6d6d22d597e93c5a1b754e2be731",
      "version": 1,
      "size": 135,
      "vsize": 135,
      "weight": 540,
      "locktime": 0,
      "vin": [
        {
          "coinbase": "04ffff001d02e700",
          "sequence": 4294967295
        }
      ],
      "vout": [
        {
          "value": 50.0,
          "n": 0,
          "scriptPubKey": {
            "asm": "04e4d005fe297156b9e48634a3deca2c9b48341d6c76da3de38d5ee4657b551815f603686209123b0db72ed24153779eefc5b5928aa2ac7589fcd8fd64b9b94bd6 OP_CHECKSIG",
            "desc": "pk(04e4d005fe297156b9e48634a3deca2c9b48341d6c76da3de38d5ee4657b551815f603686209123b0db72ed24153779eefc5b5928aa2ac7589fcd8fd64b9b94bd6)#ytkqs8yv",
            "hex": "4104e4d005fe297156b9e48634a3deca2c9b48341d6c76da3de38d5ee4657b551815f603686209123b0db72ed24153779eefc5b5928aa2ac7589fcd8fd64b9b94bd6ac",
            "type": "pubkey"
          }
        }
      ],
      "hex": "01000000010000000000000000000000000000000000000000000000000000000000000000ffffffff0804ffff001d02e700ffffffff0100f2052a01000000434104e4d005fe297156b9e48634a3deca2c9b48341d6c76da3de38d5ee4657b551815f603686209123b0db72ed24153779eefc5b5928aa2ac7589fcd8fd64b9b94bd6ac00000000"
    }
  ]
}