{
  "hash": "00000000913eac3ab8630e663e9c9a127a810a27fcac2e19aed6864b3eb349aa",
  "confirmations": 52060,
  "height": 276,
  "version": 1,
  "versionHex": "00000001",
  "merkleroot": "5a3280bf1c7027dd9767a87605d8163c975f3ca684d9fc4449515efc67e98111",
  "time": 1231813196,
  "mediantime": 1231809900,
  "nonce": 1592204293,
  "bits": "1d00ffff",
  "difficulty": 1,
  "chainwork": "0000000000000000000000000000000000000000000000000000011501150115",
  "nTx": 1,
  "previousblockhash": "00000000cb9259bda1b43bb1bc7ee46f1f04ddea0afe7ab542193b3c8761f918",
  "nextblockhash": "00000000cc3eeb36e3db7ce323b021abad084efdc7e4de0c5a652cc74ebe2b1d",
  "strippedsize": 215,
  "size": 215,
  "weight": 860,
  "tx": [
    {
      "txid": "5a3280bf1c7027dd9767a87605d8163c975f3ca684d9fc4449515efc67e98111",
      "hash": "5a3280bf1c7027dd9767a87605d8163c975f3ca684d9fc4449515efc67e98111",
      "version": 1,
      "size": 134,
      "vsize": 134,
      "weight": 536,
      "locktime": 0,
      "vin": [
        {
          "coinbase": "04ffff001d0102",
          "sequence": 4294967295
        }
      ],
      "vout": [
        {
          "value": 50.0,
          "n": 0,
          "scriptPubKey": {
            "asm": "04fe0db0c87cf9cf93c4b27aebe0ec82a70435e202e5e2b0eed9bec1a357c23390e06073342747a4a933101761c6ff050b7dfaf380aff4fa98bac7f5af06040e73 OP_CHECKSIG",
            "desc": "pk(04fe0db0c87cf9cf93c4b27aebe0ec82a70435e202e5e2b0eed9bec1a357c23390e06073342747a4a933101761c6ff050b7dfaf380aff4fa98bac7f5af06040e73)#mghkpusj",
            "hex": "4104fe0db0c87cf9cf93c4b27aebe0ec82a70435e202e5e2b0eed9bec1a357c23390e06073342747a4a933101761c6ff050b7dfaf380aff4fa98bac7f5af06040e73ac",
            "type": "pubkey"
          }
        }
      ],
      "hex": "01000000010000000000000000000000000000000000000000000000000000000000000000ffffffff0704ffff001d0102ffffffff0100f2052a01000000434104fe0db0c87cf9cf93c4b27aebe0ec82a70435e202e5e2b0eed9bec1a357c23390e06073342747a4a933101761c6ff050b7dfaf380aff4fa98bac7f5af06040e73ac00000000"
    }
  ]
}