{
  "hash": "00000000cc38146771a93a6025cffbcbdd26e106a9ce76dbe4c8bd8224e0a05d",
  "confirmations": 44610,
  "height": 8488,
  "version": 1,
  "versionHex": "00000001",
  "merkleroot": "96796c7863244fe73246db77e861ec5e1fc01adb9f2f6282a3f448e39e40e229",
  "time": 1237860864,
  "mediantime": 1237857537,
  "nonce": 30740782,
  "bits": "1d00ffff",
  "difficulty": 1,
  "chainwork": "0000000000000000000000000000000000000000000000000000212921292129",
  "nTx": 1,
  "previousblockhash": "000000009b1f8113a6b692738f264a8c2b2615bfc1c68062828d13e3cec82e04",
  "nextblockhash": "000000005c7347e53208461ec227ff3ed52741a1adacb9f6e590e96c34cad900",
  "strippedsize": 216,
  "size": 216,
  "weight": 864,
  "tx": [
    {
      "txid": "96796c7863244fe73246db77e861ec5e1fc01adb9f2f6282a3f448e39e40e229",
      "hash": "96796c7863244fe73246db77e861ec5e1fc01adb9f2f6282a3f448e39e40e229",
      "version": 1,
      "size": 135,
      "vsize": 135,
      "weight": 540,
      "locktime": 0,
      "vin": [
        {
          "coinbase": "04ffff001d02db0b",
          "sequence": 4294967295
        }
      ],
      "vout": [
        {
          "value": 50.0,
          "n": 0,
          "scriptPubKey": {
            "asm": "04a8eb2b4d4e2030bfab3e8f7b9a03eb9c7a9ec45a1cad5aae3dd4d2297e2703434b2f5d9f698e231a81a61f6d2e5f85efcd06fd283d4d4c9bab01910190a5fc51 OP_CHECKSIG",
            "desc": "pk(04a8eb2b4d4e2030bfab3e8f7b9a03eb9c7a9ec45a1cad5aae3dd4d2297e2703434b2f5d9f698e231a81a61f6d2e5f85efcd06fd283d4d4c9bab01910190a5fc51)#kpldd4s2",
            "hex": "4104a8eb2b4d4e2030bfab3e8f7b9a03eb9c7a9ec45a1cad5aae3dd4d2297e2703434b2f5d9f698e231a81a61f6d2e5f85efcd06fd283d4d4c9bab01910190a5fc51ac",
            "type": "pubkey"
          }
        }
      ],
      "hex": "01000000010000000000000000000000000000000000000000000000000000000000000000ffffffff0804ffff001d02db0bffffffff0100f2052a01000000434104a8eb2b4d4e2030bfab3e8f7b9a03eb9c7a9ec45a1cad5aae3dd4d2297e2703434b2f5d9f698e231a81a61f6d2e5f85efcd06fd283d4d4c9bab01910190a5fc51ac00000000"
    }
  ]
}