{
  "hash": "00000000aaac3ee77d69a17116d6014bfe79826c36911317649f99e683fda9cd",
  "confirmations": 48437,
  "height": 4661,
  "version": 1,
  "versionHex": "00000001",
  "merkleroot": "f75de60a761af201a50027b7493fe6b26082300e56f47868781b346fc1bde78a",
  "time": 1234898031,
  "mediantime": 1234895226,
  "nonce": 344677952,
  "bits": "1d00ffff",
  "difficulty": 1,
  "chainwork": "0000000000000000000000000000000000000000000000000000123612361236",
  "nTx": 1,
  "previousblockhash": "00000000846e040901e77af4e5105fbf857097b65f42bdacb8ae01f9f0064807",
  "nextblockhash": "000000006b0354095de16f5cfbcaf00f308a89084037589fb945a4ef661e8691",
  "strippedsize": 215,
  "size": 215,
  "weight": 860,
  "tx": [
    {
      "txid": "f75de60a761af201a50027b7493fe6b26082300e56f47868781b346fc1bde78a",
      "hash": "f75de60a761af201a50027b7493fe6b26082300e56f47868781b346fc1bde78a",
      "version": 1,
      "size": 134,
      "vsize": 134,
      "weight": 536,
      "locktime": 0,
      "vin": [
        {
          "coinbase": "04ffff001d0116",
          "sequence": 4294967295
        }
      ],
      "vout": [
        {
          "value": 50.0,
          "n": 0,
          "scriptPubKey": {
            "asm": "044b8cc779d2abb448d3b158a34753c7f1f73b28334d5bb116890febac86f69ddde1678dbe432729f5a4981ef6e0e6c5af7bace1c7533131b33405ab968782ed5d OP_CHECKSIG",
            "desc": "pk(044b8cc779d2abb448d3b158a34753c7f1f73b28334d5bb116890febac86f69ddde1678dbe432729f5a4981ef6e0e6c5af7bace1c7533131b33405ab968782ed5d)#pxe70efx",
            "hex": "41044b8cc779d2abb448d3b158a34753c7f1f73b28334d5bb116890febac86f69ddde1678dbe432729f5a4981ef6e0e6c5af7bace1c7533131b33405ab968782ed5dac",
            "type": "pubkey"
          }
        }
      ],
      "hex": "01000000010000000000000000000000000000000000000000000000000000000000000000ffffffff0704ffff001d0116ffffffff0100f2052a010000004341044b8cc779d2abb448d3b158a34753c7f1f73b28334d5bb116890febac86f69ddde1678dbe432729f5a4981ef6e0e6c5af7bace1c7533131b33405ab968782ed5dac00000000"
    }
  ]
}