{
  "hash": "0000000002d1a07095a9166b65acc8558b47aeaea0e910fdba81189cbdca5fda",
  "confirmations": 46447,
  "height": 6651,
  "version": 1,
  "versionHex": "00000001",
  "merkleroot": "5c02cd84641f4721d6925ffc248788a3e803fc1f36e2a779738d055e23dd866e",
  "time": 1236446330,
  "mediantime": 1236442200,
  "nonce": 519343142,
  "bits": "1d00ffff",
  "difficulty": 1,
  "chainwork": "000000000000000000000000000000000000000000000000000019fc19fc19fc",
  "nTx": 1,
  "previousblockhash": "000000000e3229b63edd78096bc263bc40cd9a4e184befb475e878c226be7319",
  "nextblockhash": "0000000019972a58c03ff1b4022a79abed8b0425bb9851ece3785044845dd752",
  "strippedsize": 216,
  "size": 216,
  "weight": 864,
  "tx": [
    {
      "txid": "5c02cd84641f4721d6925ffc248788a3e803fc1f36e2a779738d055e23dd866e",
      "hash": "5c02cd84641f4721d6925ffc248788a3e803fc1f36e2a779738d055e23dd866e",
      "version": 1,
      "size": 135,
      "vsize": 135,
      "weight": 540,
      "locktime": 0,
      "vin": [
        {
          "coinbase": "04ffff001d021706",
          "sequence": 4294967295
        }
      ],
      "vout": [
        {
          "value": 50.0,
          "n": 0,
          "scriptPubKey": {
            "asm": "04e679efe76848447052fcb3a0c599289ac527cac48570d094674212f92d6d972d400e2f7d42f61d0dfdf7a9269b97ddee946d610b2d621d22a272ff1963760bdf OP_CHECKSIG",
            "desc": "pk(04e679efe76848447052fcb3a0c599289ac527cac48570d094674212f92d6d972d400e2f7d42f61d0dfdf7a9269b97ddee946d610b2d621d22a272ff1963760bdf)#rzlrstmq",
            "hex": "4104e679efe76848447052fcb3a0c599289ac527cac48570d094674212f92d6d972d400e2f7d42f61d0dfdf7a9269b97ddee946d610b2d621d22a272ff1963760bdfac",
            "type": "pubkey"
          }
        }
      ],
      "hex": "01000000010000000000000000000000000000000000000000000000000000000000000000ffffffff0804ffff001d021706ffffffff0100f2052a01000000434104e679efe76848447052fcb3a0c599289ac527cac48570d094674212f92d6d972d400e2f7d42f61d0dfdf7a9269b97ddee946d610b2d621d22a272ff1963760bdfac00000000"
    }
  ]
}