{
  "hash": "000000009f3eb5525658a59469516d54b74bdb2b6bb6d8e0167c5e614c498186",
  "confirmations": 48363,
  "height": 4735,
  "version": 1,
  "versionHex": "00000001",
  "merkleroot": "5ce550df9d6479aa2f51f11915a4c9cc9ede13b4c7e4a5d42325dd8a9c7fda9c",
  "time": 1234952832,
  "mediantime": 1234948766,
  "nonce": 804966447,
  "bits": "1d00ffff",
  "difficulty": 1,
  "chainwork": "0000000000000000000000000000000000000000000000000000128012801280",
  "nTx": 1,
  "previousblockhash": "000000003c1246491942826bed95189c65c364aecc1ae7d525ec7658b331a328",
  "nextblockhash": "000000001f0a442020ce1a319e364eedab60585b5eb6a8bea141d6560cf1cbdf",
  "strippedsize": 216,
  "size": 216,
  "weight": 864,
  "tx": [
    {
      "txid": "5ce550df9d6479aa2f51f11915a4c9cc9ede13b4c7e4a5d42325dd8a9c7fda9c",
      "hash": "5ce550df9d6479aa2f51f11915a4c9cc9ede13b4c7e4a5d42325dd8a9c7fda9c",
      "version": 1,
      "size": 135,
      "vsize": 135,
      "weight": 540,
      "locktime": 0,
      "vin": [
        {
          "coinbase": "04ffff001d02f802",
          "sequence": 4294967295
        }
      ],
      "vout": [
        {
          "value": 50.0,
          "n": 0,
          "scriptPubKey": {
            "asm": "04fc58a066d3fa2c9af94633fc2444ac08bbb745fcdad19d91c409faf578a65dad24f8187882655111a6830492e9bc7f668a189b80ebf0df81957ad5ade3b5939f OP_CHECKSIG",
            "desc": "pk(04fc58a066d3fa2c9af94633fc2444ac08bbb745fcdad19d91c409faf578a65dad24f8187882655111a6830492e9bc7f668a189b80ebf0df81957ad5ade3b5939f)#7squdp63",
            "hex": "4104fc58a066d3fa2c9af94633fc2444ac08bbb745fcdad19d91c409faf578a65dad24f8187882655111a6830492e9bc7f668a189b80ebf0df81957ad5ade3b5939fac",
            "type": "pubkey"
          }
        }
      ],
      "hex": "01000000010000000000000000000000000000000000000000000000000000000000000000ffffffff0804ffff001d02f802ffffffff0100f2052a01000000434104fc58a066d3fa2c9af94633fc2444ac08bbb745fcdad19d91c409faf578a65dad24f8187882655111a6830492e9bc7f668a189b80ebf0df81957ad5ade3b5939fac00000000"
    }
  ]
}