{
  "hash": "000000006689f4b18ebae9f42d3aa3da53e2e353401b00f38daea70978518a2e",
  "confirmations": 44925,
  "height": 8173,
  "version": 1,
  "versionHex": "00000001",
  "merkleroot": "d01cf24de1a2cffc122b8b28b7f7f28924351b972c148aab98615c4b02b58804",
  "time": 1237587318,
  "mediantime": 1237585578,
  "nonce": 52013493,
  "bits": "1d00ffff",
  "difficulty": 1,
  "chainwork": "00000000000000000000000000000000000000000000000000001fee1fee1fee",
  "nTx": 1,
  "previousblockhash": "000000007503606c5218229b5ed7dec308060951202a32eba433ec53e07a827f",
  "nextblockhash": "00000000abd582d872b2c2e2df95fd35ee849f06e74fe5a7cc715f9a59c68fe3",
  "strippedsize": 215,
  "size": 215,
  "weight": 860,
  "tx": [
    {
      "txid": "d01cf24de1a2cffc122b8b28b7f7f28924351b972c148aab98615c4b02b58804",
      "hash": "d01cf24de1a2cffc122b8b28b7f7f28924351b972c148aab98615c4b02b58804",
      "version": 1,
      "size": 134,
      "vsize": 134,
      "weight": 536,
      "locktime": 0,
      "vin": [
        {
          "coinbase": "04ffff001d012a",
          "sequence": 4294967295
        }
      ],
      "vout": [
        {
          "value": 50.0,
          "n": 0,
          "scriptPubKey": {
            "asm": "044016307b4775f7fbcf570ae058963d9b8499971157a76cf6ea1023e49e34995fa88816f6da66a8cad0aded31df4a34a73ff9aa569a1d040b73fb8e0c910dfbda OP_CHECKSIG",
            "desc": "pk(044016307b4775f7fbcf570ae058963d9b8499971157a76cf6ea1023e49e34995fa88816f6da66a8cad0aded31df4a34a73ff9aa569a1d040b73fb8e0c910dfbda)#2upa9qda",
            "hex": "41044016307b4775f7fbcf570ae058963d9b8499971157a76cf6ea1023e49e34995fa88816f6da66a8cad0aded31df4a34a73ff9aa569a1d040b73fb8e0c910dfbdaac",
            "type": "pubkey"
          }
        }
      ],
      "hex": "01000000010000000000000000000000000000000000000000000000000000000000000000ffffffff0704ffff001d012affffffff0100f2052a010000004341044016307b4775f7fbcf570ae058963d9b8499971157a76cf6ea1023e49e34995fa88816f6da66a8cad0aded31df4a34a73ff9aa569a1d040b73fb8e0c910dfbdaac00000000"
    }
  ]
}