{
  "hash": "0000000086bab1e650c7fe174d5ae7943b39176fc956041d16b240bd8b4d7d2f",
  "confirmations": 52177,
  "height": 921,
  "version": 1,
  "versionHex": "00000001",
  "merkleroot": "3e67f3f4a04b8bd0ac4dd33c2994b7db0a6851f66588e98f0fe8dbd51874b67a",
  "time": 1232292231,
  "mediantime": 1232288674,
  "nonce": 460293669,
  "bits": "1d00ffff",
  "difficulty": 1,
  "chainwork": "0000000000000000000000000000000000000000000000000000039a039a039a",
  "nTx": 1,
  "previousblockhash": "000000008f9c053d69c4a892b23b510571982d381b8d6a43e2c71a3451d23c41",
  "nextblockhash": "00000000962e841023ce2177e1975f029b13a1fb3fc0a1c537e9f2a19ead5d34",
  "strippedsize": 216,
  "size": 216,
  "weight": 864,
  "tx": [
    {
      "txid": "3e67f3f4a04b8bd0ac4dd33c2994b7db0a6851f66588e98f0fe8dbd51874b67a",
      "hash": "3e67f3f4a04b8bd0ac4dd33c2994b7db0a6851f66588e98f0fe8dbd51874b67a",
      "version": 1,
      "size": 135,
      "vsize": 135,
      "weight": 540,
      "locktime": 0,
      "vin": [
        {
          "coinbase": "04ffff001d02ef03",
          "sequence": 4294967295
        }
      ],
      "vout": [
        {
          "value": 50.0,
          "n": 0,
          "scriptPubKey": {
            "asm": "04b16a017f7e0ef3723a18a0c94094db41de65f4c4f4ba43d3a16633b00492839faa0e0779aac5e62dfb7450829840d8cb38ae20207f96c6f56a63a52e629c52d8 OP_CHECKSIG",
            "desc": "pk(04b16a017f7e0ef3723a18a0c94094db41de65f4c4f4ba43d3a16633b00492839faa0e0779aac5e62dfb7450829840d8cb38ae20207f96c6f56a63a52e629c52d8)#f0p6neat",
            "hex": "4104b16a017f7e0ef3723a18a0c94094db41de65f4c4f4ba43d3a16633b00492839faa0e0779aac5e62dfb7450829840d8cb38ae20207f96c6f56a63a52e629c52d8ac",
            "type": "pubkey"
          }
        }
      ],
      "hex": "01000000010000000000000000000000000000000000000000000000000000000000000000ffffffff0804ffff001d02ef03ffffffff0100f2052a01000000434104b16a017f7e0ef3723a18a0c94094db41de65f4c4f4ba43d3a16633b00492839faa0e0779aac5e62dfb7450829840d8cb38ae20207f96c6f56a63a52e629c52d8ac00000000"
    }
  ]
}