{
  "hash": "000000001e46be0459127a37770c88d455485b00d3ea4a4b93dd76dca6055401",
  "confirmations": 43297,
  "height": 9801,
  "version": 1,
  "versionHex": "00000001",
  "merkleroot": "b2489ee14a3be172644419fb18a24d34c3e471aadd7c5817fd8d6ae3bc487270",
  "time": 1238857174,
  "mediantime": 1238854097,
  "nonce": 2205018933,
  "bits": "1d00ffff",
  "difficulty": 1,
  "chainwork": "0000000000000000000000000000000000000000000000000000264a264a264a",
  "nTx": 1,
  "previousblockhash": "000000001eb7936cd07a1a9d2454468f93c0732bd12c2c19433e0510b6df71cc",
  "nextblockhash": "000000002741cb4688dd9fa868f920a1f35e8145615c71b48ae8541ac400004c",
  "strippedsize": 215,
  "size": 215,
  "weight": 860,
  "tx": [
    {
      "txid": "b2489ee14a3be172644419fb18a24d34c3e471aadd7c5817fd8d6ae3bc487270",
      "hash": "b2489ee14a3be172644419fb18a24d34c3e471aadd7c5817fd8d6ae3bc487270",
      "version": 1,
      "size": 134,
      "vsize": 134,
      "weight": 536,
      "locktime": 0,
      "vin": [
        {
          "coinbase": "04ffff001d0143",
          "sequence": 4294967295
        }
      ],
      "vout": [
        {
          "value": 50.0,
          "n": 0,
          "scriptPubKey": {
            "asm": "04eb9b5fe3400175085a7a96368509792043ccaf16123fa010a58532740b8a4d715f7ba18a08a6d3ca3e0dd49dc3cf2d5826ee264b21c0f401f8929ec24b270060 OP_CHECKSIG",
            "desc": "pk(04eb9b5fe3400175085a7a96368509792043ccaf16123fa010a58532740b8a4d715f7ba18a08a6d3ca3e0dd49dc3cf2d5826ee264b21c0f401f8929ec24b270060)#ywh300ym",
            "hex": "4104eb9b5fe3400175085a7a96368509792043ccaf16123fa010a58532740b8a4d715f7ba18a08a6d3ca3e0dd49dc3cf2d5826ee264b21c0f401f8929ec24b270060ac",
            "type": "pubkey"
          }
        }
      ],
      "hex": "01000000010000000000000000000000000000000000000000000000000000000000000000ffffffff0704ffff001d0143ffffffff0100f2052a01000000434104eb9b5fe3400175085a7a96368509792043ccaf16123fa010a58532740b8a4d715f7ba18a08a6d3ca3e0dd49dc3cf2d5826ee264b21c0f401f8929ec24b270060ac00000000"
    }
  ]
}