{
  "hash": "000000001d0d45fbf714cf0679297441051d6c402036136ebeb00e5a8f2af262",
  "confirmations": 47652,
  "height": 5446,
  "version": 1,
  "versionHex": "00000001",
  "merkleroot": "003d3be2916fa188f3b6e81893618a0c078f7ec191f6463f5b0b15a904589a37",
  "time": 1235479615,
  "mediantime": 1235475051,
  "nonce": 3106775337,
  "bits": "1d00ffff",
  "difficulty": 1,
  "chainwork": "0000000000000000000000000000000000000000000000000000154715471547",
  "nTx": 1,
  "previousblockhash": "000000003c8d8cb307a03bdf650d2a59ed936acc392a4043eaa9a1a01d459c78",
  "nextblockhash": "000000007e76d84300c766bea55f3e03cfcb31778a0a254a25768ee515ad4e88",
  "strippedsize": 216,
  "size": 216,
  "weight": 864,
  "tx": [
    {
      "txid": "003d3be2916fa188f3b6e81893618a0c078f7ec191f6463f5b0b15a904589a37",
      "hash": "003d3be2916fa188f3b6e81893618a0c078f7ec191f6463f5b0b15a904589a37",
      "version": 1,
      "size": 135,
      "vsize": 135,
      "weight": 540,
      "locktime": 0,
      "vin": [
        {
          "coinbase": "04ffff001d028c04",
          "sequence": 4294967295
        }
      ],
      "vout": [
        {
          "value": 50.0,
          "n": 0,
          "scriptPubKey": {
            "asm": "04010b7f3f1da84655da431c249b12538e6a6ffa4615513e5d1318878a3cb7b78d8ae1abb9bf49085e6b67bf8fc25338be52d2f565439a778d3d58e1ce32d7a1f1 OP_CHECKSIG",
            "desc": "pk(04010b7f3f1da84655da431c249b12538e6a6ffa4615513e5d1318878a3cb7b78d8ae1abb9bf49085e6b67bf8fc25338be52d2f565439a778d3d58e1ce32d7a1f1)#ny7kws46",
            "hex": "4104010b7f3f1da84655da431c249b12538e6a6ffa4615513e5d1318878a3cb7b78d8ae1abb9bf49085e6b67bf8fc25338be52d2f565439a778d3d58e1ce32d7a1f1ac",
            "type": "pubkey"
          }
        }
      ],
      "hex": "01000000010000000000000000000000000000000000000000000000000000000000000000ffffffff0804ffff001d028c04ffffffff0100f2052a01000000434104010b7f3f1da84655da431c249b12538e6a6ffa4615513e5d1318878a3cb7b78d8ae1abb9bf49085e6b67bf8fc25338be52d2f565439a778d3d58e1ce32d7a1f1ac00000000"
    }
  ]
}