{
  "hash": "00000000a92806c80a2797ac6eca1d5da16df4e8deaa35f3d556221871841c46",
  "confirmations": 45736,
  "height": 7362,
  "version": 1,
  "versionHex": "00000001",
  "merkleroot": "dd57dd40c44c5bea34398b3eebd9df40e58e0affe9b9241217cb182f7aa4c91a",
  "time": 1236991500,
  "mediantime": 1236988151,
  "nonce": 2181457672,
  "bits": "1d00ffff",
  "difficulty": 1,
  "chainwork": "00000000000000000000000000000000000000000000000000001cc31cc31cc3",
  "nTx": 1,
  "previousblockhash": "00000000c5984a2aebec20e2bd30b84255e7cec2aaa5a9bd56fdd2111e0b7723",
  "nextblockhash": "000000003a4e56de0a15339112176f640b865279e6946832c8c7f2fbdb802ef4",
  "strippedsize": 216,
  "size": 216,
  "weight": 864,
  "tx": [
    {
      "txid": "dd57dd40c44c5bea34398b3eebd9df40e58e0affe9b9241217cb182f7aa4c91a",
      "hash": "dd57dd40c44c5bea34398b3eebd9df40e58e0affe9b9241217cb182f7aa4c91a",
      "version": 1,
      "size": 135,
      "vsize": 135,
      "weight": 540,
      "locktime": 0,
      "vin": [
        {
          "coinbase": "04ffff001d02c708",
          "sequence": 4294967295
        }
      ],
      "vout": [
        {
          "value": 50.0,
          "n": 0,
          "scriptPubKey": {
            "asm": "043aea44a1063d577608a879e1804bfd2d01cc200544597b276e9b35866d83898eea7e4cb980b85515ed4088f479afb9a46c96a97fbe7ae1fc8045d0ab3f932a23 OP_CHECKSIG",
            "desc": "pk(043aea44a1063d577608a879e1804bfd2d01cc200544597b276e9b35866d83898eea7e4cb980b85515ed4088f479afb9a46c96a97fbe7ae1fc8045d0ab3f932a23)#6acvmjz3",
            "hex": "41043aea44a1063d577608a879e1804bfd2d01cc200544597b276e9b35866d83898eea7e4cb980b85515ed4088f479afb9a46c96a97fbe7ae1fc8045d0ab3f932a23ac",
            "type": "pubkey"
          }
        }
      ],
      "hex": "01000000010000000000000000000000000000000000000000000000000000000000000000ffffffff0804ffff001d02c708ffffffff0100f2052a010000004341043aea44a1063d577608a879e1804bfd2d01cc200544597b276e9b35866d83898eea7e4cb980b85515ed4088f479afb9a46c96a97fbe7ae1fc8045d0ab3f932a23ac00000000"
    }
  ]
}