{
  "hash": "00000000c23368c1235d7f96c4612d63a574816848d7d872fd415c111fbf9895",
  "confirmations": 45876,
  "height": 7222,
  "version": 1,
  "versionHex": "00000001",
  "merkleroot": "83ff9d161d2bf9ef1241445692ad000173cff835f0ea2f493e27f50201b8cea0",
  "time": 1236887337,
  "mediantime": 1236883381,
  "nonce": 3249042738,
  "bits": "1d00ffff",
  "difficulty": 1,
  "chainwork": "00000000000000000000000000000000000000000000000000001c371c371c37",
  "nTx": 1,
  "previousblockhash": "00000000180884d496bf422717a1af045153b0a100500b6f627bb3252c74f8d9",
  "nextblockhash": "00000000f40b1fe86c9a7238623aaa8f5398831065118ba6d0d27fd430401fd1",
  "strippedsize": 216,
  "size": 216,
  "weight": 864,
  "tx": [
    {
      "txid": "83ff9d161d2bf9ef1241445692ad000173cff835f0ea2f493e27f50201b8cea0",
      "hash": "83ff9d161d2bf9ef1241445692ad000173cff835f0ea2f493e27f50201b8cea0",
      "version": 1,
      "size": 135,
      "vsize": 135,
      "weight": 540,
      "locktime": 0,
      "vin": [
        {
          "coinbase": "04ffff001d020806",
          "sequence": 4294967295
        }
      ],
      "vout": [
        {
          "value": 50.0,
          "n": 0,
          "scriptPubKey": {
            "asm": "04dbcb339263188b3d5c56114a1c681b857a3f3eb29cab2256c089ce37d32397f87dd296485c871bb75f384c979b3ce86233423deba46deb6d0b315b41a8515aa8 OP_CHECKSIG",
            "desc": "pk(04dbcb339263188b3d5c56114a1c681b857a3f3eb29cab2256c089ce37d32397f87dd296485c871bb75f384c979b3ce86233423deba46deb6d0b315b41a8515aa8)#7zcwgr2w",
            "hex": "4104dbcb339263188b3d5c56114a1c681b857a3f3eb29cab2256c089ce37d32397f87dd296485c871bb75f384c979b3ce86233423deba46deb6d0b315b41a8515aa8ac",
            "type": "pubkey"
          }
        }
      ],
      "hex": "01000000010000000000000000000000000000000000000000000000000000000000000000ffffffff0804ffff001d020806ffffffff0100f2052a01000000434104dbcb339263188b3d5c56114a1c681b857a3f3eb29cab2256c089ce37d32397f87dd296485c871bb75f384c979b3ce86233423deba46deb6d0b315b41a8515aa8ac00000000"
    }
  ]
}