{
  "hash": "00000000aefb155d7aed0437259b81c2b20c5905f0f88035f32e857bcfa2faeb",
  "confirmations": 46961,
  "height": 6137,
  "version": 1,
  "versionHex": "00000001",
  "merkleroot": "b02ff43ca130f31609be62cd030410bfaaec4446f3b1d1d54c179b5ea3995279",
  "time": 1236038538,
  "mediantime": 1236033786,
  "nonce": 420138297,
  "bits": "1d00ffff",
  "difficulty": 1,
  "chainwork": "000000000000000000000000000000000000000000000000000017fa17fa17fa",
  "nTx": 1,
  "previousblockhash": "00000000c242f9176c79dafd651ca5a59db13a90a3240ceaebd16798569ef8ab",
  "nextblockhash": "00000000ee1a46427e38ee9e582cb273806cbd7ad7dde48d2ea68e8d6a138f73",
  "strippedsize": 216,
  "size": 216,
  "weight": 864,
  "tx": [
    {
      "txid": "b02ff43ca130f31609be62cd030410bfaaec4446f3b1d1d54c179b5ea3995279",
      "hash": "b02ff43ca130f31609be62cd030410bfaaec4446f3b1d1d54c179b5ea3995279",
      "version": 1,
      "size": 135,
      "vsize": 135,
      "weight": 540,
      "locktime": 0,
      "vin": [
        {
          "coinbase": "04ffff001d027e07",
          "sequence": 4294967295
        }
      ],
      "vout": [
        {
          "value": 50.0,
          "n": 0,
          "scriptPubKey": {
            "asm": "046d025bf5294981a702262357f599221e7fe09691d8e7601283d31ab66fa27fad18584f55c47ce9058ad55a84886f38a2c738e4d4b80eb316834cff018d6afeb3 OP_CHECKSIG",
            "desc": "pk(046d025bf5294981a702262357f599221e7fe09691d8e7601283d31ab66fa27fad18584f55c47ce9058ad55a84886f38a2c738e4d4b80eb316834cff018d6afeb3)#a233pqh9",
            "hex": "41046d025bf5294981a702262357f599221e7fe09691d8e7601283d31ab66fa27fad18584f55c47ce9058ad55a84886f38a2c738e4d4b80eb316834cff018d6afeb3ac",
            "type": "pubkey"
          }
        }
      ],
      "hex": "01000000010000000000000000000000000000000000000000000000000000000000000000ffffffff0804ffff001d027e07ffffffff0100f2052a010000004341046d025bf5294981a702262357f599221e7fe09691d8e7601283d31ab66fa27fad18584f55c47ce9058ad55a84886f38a2c738e4d4b80eb316834cff018d6afeb3ac00000000"
    }
  ]
}