{
  "hash": "000000005d4a4a31dc5d868b2362fc4d474f312c8f9d3ccaaf8c410e6c70557a",
  "confirmations": 50618,
  "height": 2480,
  "version": 1,
  "versionHex": "00000001",
  "merkleroot": "9a71036bb92d5628d1ba46e96a659b975e73ecd1bf9906e3313a52d9065a5568",
  "time": 1233410203,
  "mediantime": 1233407138,
  "nonce": 91238791,
  "bits": "1d00ffff",
  "difficulty": 1,
  "chainwork": "000000000000000000000000000000000000000000000000000009b109b109b1",
  "nTx": 1,
  "previousblockhash": "00000000b47b07272c47c66619e52724ed730c3b7523aa7ea71610167d7cf154",
  "nextblockhash": "0000000023681a59f33999c8d65be2ac85e9987641a79b02bc0531b4a22500bd",
  "strippedsize": 216,
  "size": 216,
  "weight": 864,
  "tx": [
    {
      "txid": "9a71036bb92d5628d1ba46e96a659b975e73ecd1bf9906e3313a52d9065a5568",
      "hash": "9a71036bb92d5628d1ba46e96a659b975e73ecd1bf9906e3313a52d9065a5568",
      "version": 1,
      "size": 135,
      "vsize": 135,
      "weight": 540,
      "locktime": 0,
      "vin": [
        {
          "coinbase": "04ffff001d022902",
          "sequence": 4294967295
        }
      ],
      "vout": [
        {
          "value": 50.0,
          "n": 0,
          "scriptPubKey": {
            "asm": "0401fdec335b4845aafaf8457d295ee3fe79ba5975dba2f3ba695a49749e782160ebf36d518263e2b1038326b0d7f527db36d8fae4592e3a77dd7b1a63571f8615 OP_CHECKSIG",
            "desc": "pk(0401fdec335b4845aafaf8457d295ee3fe79ba5975dba2f3ba695a49749e782160ebf36d518263e2b1038326b0d7f527db36d8fae4592e3a77dd7b1a63571f8615)#zy43mdze",
            "hex": "410401fdec335b4845aafaf8457d295ee3fe79ba5975dba2f3ba695a49749e782160ebf36d518263e2b1038326b0d7f527db36d8fae4592e3a77dd7b1a63571f8615ac",
            "type": "pubkey"
          }
        }
      ],
      "hex": "01000000010000000000000000000000000000000000000000000000000000000000000000ffffffff0804ffff001d022902ffffffff0100f2052a0100000043410401fdec335b4845aafaf8457d295ee3fe79ba5975dba2f3ba695a49749e782160ebf36d518263e2b1038326b0d7f527db36d8fae4592e3a77dd7b1a63571f8615ac00000000"
    }
  ]
}