{
  "hash": "00000000da94ecaa210171c19b4b6c4e98c81d1578795986acd00dbd9007a44b",
  "confirmations": 47755,
  "height": 5343,
  "version": 1,
  "versionHex": "00000001",
  "merkleroot": "18bb18dc6b2d660e3f483f776aae7504cffd78cf82506b2b1beb68ccb9852007",
  "time": 1235397531,
  "mediantime": 1235395389,
  "nonce": 1012982807,
  "bits": "1d00ffff",
  "difficulty": 1,
  "chainwork": "000000000000000000000000000000000000000000000000000014e014e014e0",
  "nTx": 1,
  "previousblockhash": "0000000011c6402717798fd7fd4ac1c92d615e301ed313ceb37b57543b53bf5e",
  "nextblockhash": "00000000224f643a45e8b834471161763adc11851af6a98f3d4753bef4ee289b",
  "strippedsize": 216,
  "size": 216,
  "weight": 864,
  "tx": [
    {
      "txid": "18bb18dc6b2d660e3f483f776aae7504cffd78cf82506b2b1beb68ccb9852007",
      "hash": "18bb18dc6b2d660e3f483f776aae7504cffd78cf82506b2b1beb68ccb9852007",
      "version": 1,
      "size": 135,
      "vsize": 135,
      "weight": 540,
      "locktime": 0,
      "vin": [
        {
          "coinbase": "04ffff001d02bd02",
          "sequence": 4294967295
        }
      ],
      "vout": [
        {
          "value": 50.0,
          "n": 0,
          "scriptPubKey": {
            "asm": "04d5d19bb1c7a4e07be80bbc8e79e02d1da3516dfeeb4bdfb30cd93f1cf16b33283e0f2bc45ab17a91f5477b6124c6a9fa06af892238d43d3c1962ba7d20b13481 OP_CHECKSIG",
            "desc": "pk(04d5d19bb1c7a4e07be80bbc8e79e02d1da3516dfeeb4bdfb30cd93f1cf16b33283e0f2bc45ab17a91f5477b6124c6a9fa06af892238d43d3c1962ba7d20b13481)#ft3yd2yy",
            "hex": "4104d5d19bb1c7a4e07be80bbc8e79e02d1da3516dfeeb4bdfb30cd93f1cf16b33283e0f2bc45ab17a91f5477b6124c6a9fa06af892238d43d3c1962ba7d20b13481ac",
            "type": "pubkey"
          }
        }
      ],
      "hex": "01000000010000000000000000000000000000000000000000000000000000000000000000ffffffff0804ffff001d02bd02ffffffff0100f2052a01000000434104d5d19bb1c7a4e07be80bbc8e79e02d1da3516dfeeb4bdfb30cd93f1cf16b33283e0f2bc45ab17a91f5477b6124c6a9fa06af892238d43d3c1962ba7d20b13481ac00000000"
    }
  ]
}