{
  "hash": "0000000029dd23371637ffe40c2121b5bb246492e3595248f754ea461ac433b5",
  "confirmations": 49766,
  "height": 3332,
  "version": 1,
  "versionHex": "00000001",
  "merkleroot": "3c472a4477e6bb3bb146988bdb9a0eb7a6cda6ebc0854c6b0e8c9bf51efde2ed",
  "time": 1233988038,
  "mediantime": 1233984904,
  "nonce": 1734211608,
  "bits": "1d00ffff",
  "difficulty": 1,
  "chainwork": "00000000000000000000000000000000000000000000000000000d050d050d05",
  "nTx": 1,
  "previousblockhash": "000000008ee77e89497155b486b401f7024a071124905621a04d94cd14274e4e",
  "nextblockhash": "00000000c792e56146dbddad10fd6291486bd905b14992e54319f08196d88da3",
  "strippedsize": 216,
  "size": 216,
  "weight": 864,
  "tx": [
    {
      "txid": "3c472a4477e6bb3bb146988bdb9a0eb7a6cda6ebc0854c6b0e8c9bf51efde2ed",
      "hash": "3c472a4477e6bb3bb146988bdb9a0eb7a6cda6ebc0854c6b0e8c9bf51efde2ed",
      "version": 1,
      "size": 135,
      "vsize": 135,
      "weight": 540,
      "locktime": 0,
      "vin": [
        {
          "coinbase": "04ffff001d02d304",
          "sequence": 4294967295
        }
      ],
      "vout": [
        {
          "value": 50.0,
          "n": 0,
          "scriptPubKey": {
            "asm": "046be958ce8f0436440c6e97eaff6d2f1eb3b71ca9d0f714f894a0d89dff8fc00c1c85509302e6ece6694f3bee16fcd971b6802a6825defa8bbe199b880bfa79e5 OP_CHECKSIG",
            "desc": "pk(046be958ce8f0436440c6e97eaff6d2f1eb3b71ca9d0f714f894a0d89dff8fc00c1c85509302e6ece6694f3bee16fcd971b6802a6825defa8bbe199b880bfa79e5)#xr54zphc",
            "hex": "41046be958ce8f0436440c6e97eaff6d2f1eb3b71ca9d0f714f894a0d89dff8fc00c1c85509302e6ece6694f3bee16fcd971b6802a6825defa8bbe199b880bfa79e5ac",
            "type": "pubkey"
          }
        }
      ],
      "hex": "01000000010000000000000000000000000000000000000000000000000000000000000000ffffffff0804ffff001d02d304ffffffff0100f2052a010000004341046be958ce8f0436440c6e97eaff6d2f1eb3b71ca9d0f714f894a0d89dff8fc00c1c85509302e6ece6694f3bee16fcd971b6802a6825defa8bbe199b880bfa79e5ac00000000"
    }
  ]
}