{
  "hash": "000000002720171a25a22889ee7d4f33538b927a262e8d617523d448fe8ad794",
  "confirmations": 50367,
  "height": 2731,
  "version": 1,
  "versionHex": "00000001",
  "merkleroot": "4eb262597d5c2748b1b58de7f5f2cbff53f8477e5aaa71420faac63c2daff8c6",
  "time": 1233584634,
  "mediantime": 1233582135,
  "nonce": 116797992,
  "bits": "1d00ffff",
  "difficulty": 1,
  "chainwork": "00000000000000000000000000000000000000000000000000000aac0aac0aac",
  "nTx": 1,
  "previousblockhash": "00000000471e58945f3e967d5ae8b6dfd0d6335c11260c2fc6075c005a14ab26",
  "nextblockhash": "00000000cec0b218145a7f68b9a0c50b09b4c6432c7e23e3fe62c9113980fd71",
  "strippedsize": 216,
  "size": 216,
  "weight": 864,
  "tx": [
    {
      "txid": "4eb262597d5c2748b1b58de7f5f2cbff53f8477e5aaa71420faac63c2daff8c6",
      "hash": "4eb262597d5c2748b1b58de7f5f2cbff53f8477e5aaa71420faac63c2daff8c6",
      "version": 1,
      "size": 135,
      "vsize": 135,
      "weight": 540,
      "locktime": 0,
      "vin": [
        {
          "coinbase": "04ffff001d022603",
          "sequence": 4294967295
        }
      ],
      "vout": [
        {
          "value": 50.0,
          "n": 0,
          "scriptPubKey": {
            "asm": "047a7baa25066f925fe1dab24c9e93faf12573686b08b0bb0177c7811d1204e43dd9e96561bfac180ef02d1b653a54bc169e314af0f97dd61d1de4094b674d713f OP_CHECKSIG",
            "desc": "pk(047a7baa25066f925fe1dab24c9e93faf12573686b08b0bb0177c7811d1204e43dd9e96561bfac180ef02d1b653a54bc169e314af0f97dd61d1de4094b674d713f)#seunhqty",
            "hex": "41047a7baa25066f925fe1dab24c9e93faf12573686b08b0bb0177c7811d1204e43dd9e96561bfac180ef02d1b653a54bc169e314af0f97dd61d1de4094b674d713fac",
            "type": "pubkey"
          }
        }
      ],
      "hex": "01000000010000000000000000000000000000000000000000000000000000000000000000ffffffff0804ffff001d022603ffffffff0100f2052a010000004341047a7baa25066f925fe1dab24c9e93faf12573686b08b0bb0177c7811d1204e43dd9e96561bfac180ef02d1b653a54bc169e314af0f97dd61d1de4094b674d713fac00000000"
    }
  ]
}