{
  "hash": "00000000c4e031a9a9924efd3ff0ab34f5b8f76ae66b3275b80f35d0767fcec3",
  "confirmations": 47569,
  "height": 5529,
  "version": 1,
  "versionHex": "00000001",
  "merkleroot": "dd5f8e61ae61e8e4111d928ad6d042e1c05b3e7cb470c795d2cc76d6e17d71ca",
  "time": 1235544441,
  "mediantime": 1235540500,
  "nonce": 470366722,
  "bits": "1d00ffff",
  "difficulty": 1,
  "chainwork": "0000000000000000000000000000000000000000000000000000159a159a159a",
  "nTx": 1,
  "previousblockhash": "000000006046d37c2336f11cbb1d00a17557e003b8f3b93007d5107231db585d",
  "nextblockhash": "000000005310971d1304a456759d9e85e4aad473f5f773a62fb9d08a51e313d9",
  "strippedsize": 216,
  "size": 216,
  "weight": 864,
  "tx": [
    {
      "txid": "dd5f8e61ae61e8e4111d928ad6d042e1c05b3e7cb470c795d2cc76d6e17d71ca",
      "hash": "dd5f8e61ae61e8e4111d928ad6d042e1c05b3e7cb470c795d2cc76d6e17d71ca",
      "version": 1,
      "size": 135,
      "vsize": 135,
      "weight": 540,
      "locktime": 0,
      "vin": [
        {
          "coinbase": "04ffff001d022d06",
          "sequence": 4294967295
        }
      ],
      "vout": [
        {
          "value": 50.0,
          "n": 0,
          "scriptPubKey": {
            "asm": "047e70b6ac049a0d4e545b7001c7d798223fbdd37e018025fd610f9587393567854b1f5552090f2b632cc509a2830c21306ac37f43d785222f8219003553f4d1a3 OP_CHECKSIG",
            "desc": "pk(047e70b6ac049a0d4e545b7001c7d798223fbdd37e018025fd610f9587393567854b1f5552090f2b632cc509a2830c21306ac37f43d785222f8219003553f4d1a3)#q7mlfjx7",
            "hex": "41047e70b6ac049a0d4e545b7001c7d798223fbdd37e018025fd610f9587393567854b1f5552090f2b632cc509a2830c21306ac37f43d785222f8219003553f4d1a3ac",
            "type": "pubkey"
          }
        }
      ],
      "hex": "01000000010000000000000000000000000000000000000000000000000000000000000000ffffffff0804ffff001d022d06ffffffff0100f2052a010000004341047e70b6ac049a0d4e545b7001c7d798223fbdd37e018025fd610f9587393567854b1f5552090f2b632cc509a2830c21306ac37f43d785222f8219003553f4d1a3ac00000000"
    }
  ]
}