{
  "hash": "000000002dd9919f0a67590bb7c945cb57270a060ce39e85d8d37536a71928c3",
  "confirmations": 52218,
  "height": 400,
  "version": 1,
  "versionHex": "00000001",
  "merkleroot": "ec2ba1a3784dacd6962d53e9266d08d6cca40cce60240954bb3448c6acdf568f",
  "time": 1231902179,
  "mediantime": 1231898331,
  "nonce": 2194885122,
  "bits": "1d00ffff",
  "difficulty": 1,
  "chainwork": "0000000000000000000000000000000000000000000000000000019101910191",
  "nTx": 1,
  "previousblockhash": "0000000006a774e00b730eeba018fbca6673c32753fce367a316f5c9be4332bd",
  "nextblockhash": "000000005bbced8d14a6ec258a8ab28ae980616e9820437cc3b6d3daff3b7d14",
  "strippedsize": 216,
  "size": 216,
  "weight": 864,
  "tx": [
    {
      "txid": "ec2ba1a3784dacd6962d53e9266d08d6cca40cce60240954bb3448c6acdf568f",
      "hash": "ec2ba1a3784dacd6962d53e9266d08d6cca40cce60240954bb3448c6acdf568f",
      "version": 1,
      "size": 135,
      "vsize": 135,
      "weight": 540,
      "locktime": 0,
      "vin": [
        {
          "coinbase": "04ffff001d027502",
          "sequence": 4294967295
        }
      ],
      "vout": [
        {
          "value": 50.0,
          "n": 0,
          "scriptPubKey": {
            "asm": "04a165ec80efc0b33577c5c60e8b330fd9e91640c9d56392fc8f96d177fa68555ae41ea11d363fd3395eb0b1dae5d7cee7cc94d8d31d3929475797060def38087d OP_CHECKSIG",
            "desc": "pk(04a165ec80efc0b33577c5c60e8b330fd9e91640c9d56392fc8f96d177fa68555ae41ea11d363fd3395eb0b1dae5d7cee7cc94d8d31d3929475797060def38087d)#cn22nfwg",
            "hex": "4104a165ec80efc0b33577c5c60e8b330fd9e91640c9d56392fc8f96d177fa68555ae41ea11d363fd3395eb0b1dae5d7cee7cc94d8d31d3929475797060def38087dac",
            "type": "pubkey"
          }
        }
      ],
      "hex": "01000000010000000000000000000000000000000000000000000000000000000000000000ffffffff0804ffff001d027502ffffffff0100f2052a01000000434104a165ec80efc0b33577c5c60e8b330fd9e91640c9d56392fc8f96d177fa68555ae41ea11d363fd3395eb0b1dae5d7cee7cc94d8d31d3929475797060def38087dac00000000"
    }
  ]
}