{
  "hash": "00000000de074c075b37c998d32df666bf1a5b57c3a51a70e93af75f6e64d6cc",
  "confirmations": 43519,
  "height": 9579,
  "version": 1,
  "versionHex": "00000001",
  "merkleroot": "1225ce8e6604ea28474e13161a1dffc1f5e974bb6be365e623b580bedc5997e5",
  "time": 1238683823,
  "mediantime": 1238680820,
  "nonce": 2805525018,
  "bits": "1d00ffff",
  "difficulty": 1,
  "chainwork": "0000000000000000000000000000000000000000000000000000256c256c256c",
  "nTx": 1,
  "previousblockhash": "000000006bb1deadd4d2a845520333048b39248281579a718649a1bdb4eb5ab2",
  "nextblockhash": "00000000f9ba9d049dd3925b4e7a5e19a80a29fcc8b74897b82c5a517323a25e",
  "strippedsize": 216,
  "size": 216,
  "weight": 864,
  "tx": [
    {
      "txid": "1225ce8e6604ea28474e13161a1dffc1f5e974bb6be365e623b580bedc5997e5",
      "hash": "1225ce8e6604ea28474e13161a1dffc1f5e974bb6be365e623b580bedc5997e5",
      "version": 1,
      "size": 135,
      "vsize": 135,
      "weight": 540,
      "locktime": 0,
      "vin": [
        {
          "coinbase": "04ffff001d02a206",
          "sequence": 4294967295
        }
      ],
      "vout": [
        {
          "value": 50.0,
          "n": 0,
          "scriptPubKey": {
            "asm": "04b5ccd487f775b2d20529fee40a0ea29f828e705e3d586926bfaf76265c92f6c99b12ae724364a966e3ddb68f9d6488780da9c6cedb067105601e1d15c408be25 OP_CHECKSIG",
            "desc": "pk(04b5ccd487f775b2d20529fee40a0ea29f828e705e3d586926bfaf76265c92f6c99b12ae724364a966e3ddb68f9d6488780da9c6cedb067105601e1d15c408be25)#c3nzhqp3",
            "hex": "4104b5ccd487f775b2d20529fee40a0ea29f828e705e3d586926bfaf76265c92f6c99b12ae724364a966e3ddb68f9d6488780da9c6cedb067105601e1d15c408be25ac",
            "type": "pubkey"
          }
        }
      ],
      "hex": "01000000010000000000000000000000000000000000000000000000000000000000000000ffffffff0804ffff001d02a206ffffffff0100f2052a01000000434104b5ccd487f775b2d20529fee40a0ea29f828e705e3d586926bfaf76265c92f6c99b12ae724364a966e3ddb68f9d6488780da9c6cedb067105601e1d15c408be25ac00000000"
    }
  ]
}