{
  "hash": "00000000184d61d43e667b4aebe6224e0a3265a2be87048b7924d7339de6095d",
  "confirmations": 51034,
  "height": 2064,
  "version": 1,
  "versionHex": "00000001",
  "merkleroot": "a9d1e7da3bf80dcf91cccfd41d1bc82a4da75422cc5f6810d130e17a7ba46ea9",
  "time": 1233108319,
  "mediantime": 1233104457,
  "nonce": 2767260217,
  "bits": "1d00ffff",
  "difficulty": 1,
  "chainwork": "0000000000000000000000000000000000000000000000000000081108110811",
  "nTx": 1,
  "previousblockhash": "000000003024fcc0de00e9af302c8bf69b0c625eea0ac3502fb25adb935b652c",
  "nextblockhash": "000000005d1ee9f633d16642d1bd8af362c3e49e7ce819937ebe6873aaa8c7b7",
  "strippedsize": 216,
  "size": 216,
  "weight": 864,
  "tx": [
    {
      "txid": "a9d1e7da3bf80dcf91cccfd41d1bc82a4da75422cc5f6810d130e17a7ba46ea9",
      "hash": "a9d1e7da3bf80dcf91cccfd41d1bc82a4da75422cc5f6810d130e17a7ba46ea9",
      "version": 1,
      "size": 135,
      "vsize": 135,
      "weight": 540,
      "locktime": 0,
      "vin": [
        {
          "coinbase": "04ffff001d021103",
          "sequence": 4294967295
        }
      ],
      "vout": [
        {
          "value": 50.0,
          "n": 0,
          "scriptPubKey": {
            "asm": "0405745d9ede5f7b58bec566bcb1a879259ca2f7fd385078c355da83abbfc8b1f0bf82d376e445e60b2fbec77b657655b5d97fae44f676923bee399f0d66be2f45 OP_CHECKSIG",
            "desc": "pk(0405745d9ede5f7b58bec566bcb1a879259ca2f7fd385078c355da83abbfc8b1f0bf82d376e445e60b2fbec77b657655b5d97fae44f676923bee399f0d66be2f45)#vxpu99f4",
            "hex": "410405745d9ede5f7b58bec566bcb1a879259ca2f7fd385078c355da83abbfc8b1f0bf82d376e445e60b2fbec77b657655b5d97fae44f676923bee399f0d66be2f45ac",
            "type": "pubkey"
          }
        }
      ],
      "hex": "01000000010000000000000000000000000000000000000000000000000000000000000000ffffffff0804ffff001d021103ffffffff0100f2052a0100000043410405745d9ede5f7b58bec566bcb1a879259ca2f7fd385078c355da83abbfc8b1f0bf82d376e445e60b2fbec77b657655b5d97fae44f676923bee399f0d66be2f45ac00000000"
    }
  ]
}