{
  "hash": "000000001e84c18f8ca6f08264e7099bc123d41b52e0442a893bb3f008b177c1",
  "confirmations": 45310,
  "height": 7788,
  "version": 1,
  "versionHex": "00000001",
  "merkleroot": "356b868acb976850236de35d0a0972e766d0a5813fbe9cde53993a57daa78956",
  "time": 1237302788,
  "mediantime": 1237300745,
  "nonce": 706178591,
  "bits": "1d00ffff",
  "difficulty": 1,
  "chainwork": "00000000000000000000000000000000000000000000000000001e6d1e6d1e6d",
  "nTx": 1,
  "previousblockhash": "00000000675479bfbe00ac5dfc6dbb24dc7680e7ae0cc741063f36216419dbbe",
  "nextblockhash": "0000000037df988a406d3f2eb1f486b720f05e3b9b66dfece0aaaba8c14699bc",
  "strippedsize": 216,
  "size": 216,
  "weight": 864,
  "tx": [
    {
      "txid": "356b868acb976850236de35d0a0972e766d0a5813fbe9cde53993a57daa78956",
      "hash": "356b868acb976850236de35d0a0972e766d0a5813fbe9cde53993a57daa78956",
      "version": 1,
      "size": 135,
      "vsize": 135,
      "weight": 540,
      "locktime": 0,
      "vin": [
        {
          "coinbase": "04ffff001d029705",
          "sequence": 4294967295
        }
      ],
      "vout": [
        {
          "value": 50.0,
          "n": 0,
          "scriptPubKey": {
            "asm": "042072cf994e702357411453d32b20aadbf10b696c1a5e10b2df3b87d42f97a31f755c20a20af558c8630b0b9a0fff9ba6a0da11025ceb18a9ba4623d243a4110e OP_CHECKSIG",
            "desc": "pk(042072cf994e702357411453d32b20aadbf10b696c1a5e10b2df3b87d42f97a31f755c20a20af558c8630b0b9a0fff9ba6a0da11025ceb18a9ba4623d243a4110e)#p72740x5",
            "hex": "41042072cf994e702357411453d32b20aadbf10b696c1a5e10b2df3b87d42f97a31f755c20a20af558c8630b0b9a0fff9ba6a0da11025ceb18a9ba4623d243a4110eac",
            "type": "pubkey"
          }
        }
      ],
      "hex": "01000000010000000000000000000000000000000000000000000000000000000000000000ffffffff0804ffff001d029705ffffffff0100f2052a010000004341042072cf994e702357411453d32b20aadbf10b696c1a5e10b2df3b87d42f97a31f755c20a20af558c8630b0b9a0fff9ba6a0da11025ceb18a9ba4623d243a4110eac00000000"
    }
  ]
}