{
  "hash": "000000003723f661fb259c91c61c1f6d63deffa7af8d90b11efacd6505a9c4cb",
  "confirmations": 43824,
  "height": 9274,
  "version": 1,
  "versionHex": "00000001",
  "merkleroot": "86b44ea76afd9bad6560a92195f57d7e2e9e745d8f10dcff3f0530785b48f77e",
  "time": 1238453652,
  "mediantime": 1238449812,
  "nonce": 242152937,
  "bits": "1d00ffff",
  "difficulty": 1,
  "chainwork": "0000000000000000000000000000000000000000000000000000243b243b243b",
  "nTx": 1,
  "previousblockhash": "000000000bad0ecb8a67a44f11b5ae8c01ba027998cc9dc8138f680ce22a8cf6",
  "nextblockhash": "00000000b20bce8ebc89a6e530d113f6959b858976bdc69031f35719a25ea9bc",
  "strippedsize": 216,
  "size": 216,
  "weight": 864,
  "tx": [
    {
      "txid": "86b44ea76afd9bad6560a92195f57d7e2e9e745d8f10dcff3f0530785b48f77e",
      "hash": "86b44ea76afd9bad6560a92195f57d7e2e9e745d8f10dcff3f0530785b48f77e",
      "version": 1,
      "size": 135,
      "vsize": 135,
      "weight": 540,
      "locktime": 0,
      "vin": [
        {
          "coinbase": "04ffff001d022506",
          "sequence": 4294967295
        }
      ],
      "vout": [
        {
          "value": 50.0,
          "n": 0,
          "scriptPubKey": {
            "asm": "04cb266794d24dbd758c9110b935e542f481486651798504dcdb0373c7e98dc4b54bb6ea0bfe8b9040e16df5c03429a2b21431cef0b78e687693718a4f253704d9 OP_CHECKSIG",
            "desc": "pk(04cb266794d24dbd758c9110b935e542f481486651798504dcdb0373c7e98dc4b54bb6ea0bfe8b9040e16df5c03429a2b21431cef0b78e687693718a4f253704d9)#j39kfh9y",
            "hex": "4104cb266794d24dbd758c9110b935e542f481486651798504dcdb0373c7e98dc4b54bb6ea0bfe8b9040e16df5c03429a2b21431cef0b78e687693718a4f253704d9ac",
            "type": "pubkey"
          }
        }
      ],
      "hex": "01000000010000000000000000000000000000000000000000000000000000000000000000ffffffff0804ffff001d022506ffffffff0100f2052a01000000434104cb266794d24dbd758c9110b935e542f481486651798504dcdb0373c7e98dc4b54bb6ea0bfe8b9040e16df5c03429a2b21431cef0b78e687693718a4f253704d9ac00000000"
    }
  ]
}