{
  "hash": "0000000065f9598f72c43c9b5fa99ba145d9734b75854ed1c2038cf9ca51fedd",
  "confirmations": 48451,
  "height": 4647,
  "version": 1,
  "versionHex": "00000001",
  "merkleroot": "7af912601599bd8f8442676c6a3a0bfe02750012f978dc9da85bf442e9ea8f79",
  "time": 1234889395,
  "mediantime": 1234885265,
  "nonce": 2724034836,
  "bits": "1d00ffff",
  "difficulty": 1,
  "chainwork": "0000000000000000000000000000000000000000000000000000122812281228",
  "nTx": 1,
  "previousblockhash": "0000000088f568959bc898e3af5325a67a27d5a4380fa41c5f6b7a204708d63d",
  "nextblockhash": "00000000bfa7a74708ec82baf0a713e6722eef86b419b4b26e27c45ac25097a1",
  "strippedsize": 216,
  "size": 216,
  "weight": 864,
  "tx": [
    {
      "txid": "7af912601599bd8f8442676c6a3a0bfe02750012f978dc9da85bf442e9ea8f79",
      "hash": "7af912601599bd8f8442676c6a3a0bfe02750012f978dc9da85bf442e9ea8f79",
      "version": 1,
      "size": 135,
      "vsize": 135,
      "weight": 540,
      "locktime": 0,
      "vin": [
        {
          "coinbase": "04ffff001d029e01",
          "sequence": 4294967295
        }
      ],
      "vout": [
        {
          "value": 50.0,
          "n": 0,
          "scriptPubKey": {
            "asm": "0497e87a62a19565fd240e0bcb55b5ff68b10b440850fcd8e366f9ae9d1431286406d1fd8cbf3f2ed9c51f94e501246c84ad5c30fc611921caf0202404e6361311 OP_CHECKSIG",
            "desc": "pk(0497e87a62a19565fd240e0bcb55b5ff68b10b440850fcd8e366f9ae9d1431286406d1fd8cbf3f2ed9c51f94e501246c84ad5c30fc611921caf0202404e6361311)#kfm7e4zf",
            "hex": "410497e87a62a19565fd240e0bcb55b5ff68b10b440850fcd8e366f9ae9d1431286406d1fd8cbf3f2ed9c51f94e501246c84ad5c30fc611921caf0202404e6361311ac",
            "type": "pubkey"
          }
        }
      ],
      "hex": "01000000010000000000000000000000000000000000000000000000000000000000000000ffffffff0804ffff001d029e01ffffffff0100f2052a0100000043410497e87a62a19565fd240e0bcb55b5ff68b10b440850fcd8e366f9ae9d1431286406d1fd8cbf3f2ed9c51f94e501246c84ad5c30fc611921caf0202404e6361311ac00000000"
    }
  ]
}