{
  "hash": "000000006bf60389961c20d43c2404ac9530bd951a94a4e6d6f6ae16a7ae18ff",
  "confirmations": 46638,
  "height": 6460,
  "version": 1,
  "versionHex": "00000001",
  "merkleroot": "3a34d8f32383be644304fd545eab04a523262ff0fe6c292c6b5785b0886047a9",
  "time": 1236300664,
  "mediantime": 1236296339,
  "nonce": 341065247,
  "bits": "1d00ffff",
  "difficulty": 1,
  "chainwork": "0000000000000000000000000000000000000000000000000000193d193d193d",
  "nTx": 1,
  "previousblockhash": "00000000d55d6408ce7d024168e5c0a051fa4892305145e59788a5deb1f6c0cf",
  "nextblockhash": "00000000a7fcecefa39556dfa8d3793d56de48e260d4d549c392dad2d5e77236",
  "strippedsize": 216,
  "size": 216,
  "weight": 864,
  "tx": [
    {
      "txid": "3a34d8f32383be644304fd545eab04a523262ff0fe6c292c6b5785b0886047a9",
      "hash": "3a34d8f32383be644304fd545eab04a523262ff0fe6c292c6b5785b0886047a9",
      "version": 1,
      "size": 135,
      "vsize": 135,
      "weight": 540,
      "locktime": 0,
      "vin": [
        {
          "coinbase": "04ffff001d02ca02",
          "sequence": 4294967295
        }
      ],
      "vout": [
        {
          "value": 50.0,
          "n": 0,
          "scriptPubKey": {
            "asm": "048b570ba602bdeb9513c14cde4d4beee15e2b2215013ccef0018be6c35fd741ac40dd0aeb2d6a6dad852d181226d57ee6df52b25c4182526b93b497d90f176186 OP_CHECKSIG",
            "desc": "pk(048b570ba602bdeb9513c14cde4d4beee15e2b2215013ccef0018be6c35fd741ac40dd0aeb2d6a6dad852d181226d57ee6df52b25c4182526b93b497d90f176186)#pudfgj2z",
            "hex": "41048b570ba602bdeb9513c14cde4d4beee15e2b2215013ccef0018be6c35fd741ac40dd0aeb2d6a6dad852d181226d57ee6df52b25c4182526b93b497d90f176186ac",
            "type": "pubkey"
          }
        }
      ],
      "hex": "01000000010000000000000000000000000000000000000000000000000000000000000000ffffffff0804ffff001d02ca02ffffffff0100f2052a010000004341048b570ba602bdeb9513c14cde4d4beee15e2b2215013ccef0018be6c35fd741ac40dd0aeb2d6a6dad852d181226d57ee6df52b25c4182526b93b497d90f176186ac00000000"
    }
  ]
}