{
  "hash": "00000000332c9dfada6f01425a00ff28960c0278ad37dd588e2cace2099943a7",
  "confirmations": 45744,
  "height": 7354,
  "version": 1,
  "versionHex": "00000001",
  "merkleroot": "2184636f9be6acb6b8a984a87b591a91c4c5aeebe0868857e1002fc2ca135b0a",
  "time": 1236986277,
  "mediantime": 1236983183,
  "nonce": 663295492,
  "bits": "1d00ffff",
  "difficulty": 1,
  "chainwork": "00000000000000000000000000000000000000000000000000001cbb1cbb1cbb",
  "nTx": 1,
  "previousblockhash": "00000000aab2f42ccb56bb0b294168dd1e0cac0edeaabdc05867ccaaf9cd306a",
  "nextblockhash": "000000007a9b083588cd854095aa433fb010ddd0de02bd49c04d597b22729c05",
  "strippedsize": 216,
  "size": 216,
  "weight": 864,
  "tx": [
    {
      "txid": "2184636f9be6acb6b8a984a87b591a91c4c5aeebe0868857e1002fc2ca135b0a",
      "hash": "2184636f9be6acb6b8a984a87b591a91c4c5aeebe0868857e1002fc2ca135b0a",
      "version": 1,
      "size": 135,
      "vsize": 135,
      "weight": 540,
      "locktime": 0,
      "vin": [
        {
          "coinbase": "04ffff001d028608",
          "sequence": 4294967295
        }
      ],
      "vout": [
        {
          "value": 50.0,
          "n": 0,
          "scriptPubKey": {
            "asm": "049f202dd167281bcd523e16bb58ac7282208770defc31d6aa4d566cc632cb095ed4e429ec20ecb87501eccb9574b6b208cd9e34bb09f05f6d0b033119597726c7 OP_CHECKSIG",
            "desc": "pk(049f202dd167281bcd523e16bb58ac7282208770defc31d6aa4d566cc632cb095ed4e429ec20ecb87501eccb9574b6b208cd9e34bb09f05f6d0b033119597726c7)#vkkkzs77",
            "hex": "41049f202dd167281bcd523e16bb58ac7282208770defc31d6aa4d566cc632cb095ed4e429ec20ecb87501eccb9574b6b208cd9e34bb09f05f6d0b033119597726c7ac",
            "type": "pubkey"
          }
        }
      ],
      "hex": "01000000010000000000000000000000000000000000000000000000000000000000000000ffffffff0804ffff001d028608ffffffff0100f2052a010000004341049f202dd167281bcd523e16bb58ac7282208770defc31d6aa4d566cc632cb095ed4e429ec20ecb87501eccb9574b6b208cd9e34bb09f05f6d0b033119597726c7ac00000000"
    }
  ]
}