{
  "hash": "000000004603377411e9fdc039c1f4f293e8b9c0d3c42b14b8eb95591f07cd54",
  "confirmations": 45569,
  "height": 7529,
  "version": 1,
  "versionHex": "00000001",
  "merkleroot": "8f55f82c3efeebad0655aec0ee7b80afc4f9715e75f057963243e4a2e4063fd1",
  "time": 1237120937,
  "mediantime": 1237114633,
  "nonce": 1519399432,
  "bits": "1d00ffff",
  "difficulty": 1,
  "chainwork": "00000000000000000000000000000000000000000000000000001d6a1d6a1d6a",
  "nTx": 1,
  "previousblockhash": "000000004b0e157aa87eac0c56f74f81267a5864eaae05064c0a0bb1e9e5329d",
  "nextblockhash": "00000000745b41c6a19805aebdc478e72b0d7167ff9f5f4743169637c323b9f9",
  "strippedsize": 216,
  "size": 216,
  "weight": 864,
  "tx": [
    {
      "txid": "8f55f82c3efeebad0655aec0ee7b80afc4f9715e75f057963243e4a2e4063fd1",
      "hash": "8f55f82c3efeebad0655aec0ee7b80afc4f9715e75f057963243e4a2e4063fd1",
      "version": 1,
      "size": 135,
      "vsize": 135,
      "weight": 540,
      "locktime": 0,
      "vin": [
        {
          "coinbase": "04ffff001d028501",
          "sequence": 4294967295
        }
      ],
      "vout": [
        {
          "value": 50.0,
          "n": 0,
          "scriptPubKey": {
            "asm": "04d6235f34dda734974ac37a4eed662e319a608d805ae5124d93f82dfb5609f6b5aaa5d49a6ff768f2684a934547b8e20bf335d37e2baaa01f98212e35cdc76cf8 OP_CHECKSIG",
            "desc": "pk(04d6235f34dda734974ac37a4eed662e319a608d805ae5124d93f82dfb5609f6b5aaa5d49a6ff768f2684a934547b8e20bf335d37e2baaa01f98212e35cdc76cf8)#a750y7tg",
            "hex": "4104d6235f34dda734974ac37a4eed662e319a608d805ae5124d93f82dfb5609f6b5aaa5d49a6ff768f2684a934547b8e20bf335d37e2baaa01f98212e35cdc76cf8ac",
            "type": "pubkey"
          }
        }
      ],
      "hex": "01000000010000000000000000000000000000000000000000000000000000000000000000ffffffff0804ffff001d028501ffffffff0100f2052a01000000434104d6235f34dda734974ac37a4eed662e319a608d805ae5124d93f82dfb5609f6b5aaa5d49a6ff768f2684a934547b8e20bf335d37e2baaa01f98212e35cdc76cf8ac00000000"
    }
  ]
}