{
  "hash": "00000000b9703eeaebfcf46c17af5b413b205362be9f3c45201f648119a2ad25",
  "confirmations": 44537,
  "height": 8561,
  "version": 1,
  "versionHex": "00000001",
  "merkleroot": "6f64b1fb436e46b5d73b8084516f4edbe7f5d2730ce1b093fa110baa88a846ee",
  "time": 1237920500,
  "mediantime": 1237917220,
  "nonce": 2835609141,
  "bits": "1d00ffff",
  "difficulty": 1,
  "chainwork": "0000000000000000000000000000000000000000000000000000217221722172",
  "nTx": 1,
  "previousblockhash": "00000000ad51e9525234e9ad796f9e86eed74111967d8fb214041c9e31cca5d6",
  "nextblockhash": "00000000c82f27c2c7f3c053cc8533cba529e8634d617678686266ffd7f05566",
  "strippedsize": 216,
  "size": 216,
  "weight": 864,
  "tx": [
    {
      "txid": "6f64b1fb436e46b5d73b8084516f4edbe7f5d2730ce1b093fa110baa88a846ee",
      "hash": "6f64b1fb436e46b5d73b8084516f4edbe7f5d2730ce1b093fa110baa88a846ee",
      "version": 1,
      "size": 135,
      "vsize": 135,
      "weight": 540,
      "locktime": 0,
      "vin": [
        {
          "coinbase": "04ffff001d02fc08",
          "sequence": 4294967295
        }
      ],
      "vout": [
        {
          "value": 50.0,
          "n": 0,
          "scriptPubKey": {
            "asm": "04d3c1fa2d08c7720337b46a7a61ba29f461e0dd171b817daa86fb522b4e5bc3e852d877897c0e45f3d2a59147fd2b2037e2202234b64a85131c24023887577cf9 OP_CHECKSIG",
            "desc": "pk(04d3c1fa2d08c7720337b46a7a61ba29f461e0dd171b817daa86fb522b4e5bc3e852d877897c0e45f3d2a59147fd2b2037e2202234b64a85131c24023887577cf9)#8fs2cylj",
            "hex": "4104d3c1fa2d08c7720337b46a7a61ba29f461e0dd171b817daa86fb522b4e5bc3e852d877897c0e45f3d2a59147fd2b2037e2202234b64a85131c24023887577cf9ac",
            "type": "pubkey"
          }
        }
      ],
      "hex": "01000000010000000000000000000000000000000000000000000000000000000000000000ffffffff0804ffff001d02fc08ffffffff0100f2052a01000000434104d3c1fa2d08c7720337b46a7a61ba29f461e0dd171b817daa86fb522b4e5bc3e852d877897c0e45f3d2a59147fd2b2037e2202234b64a85131c24023887577cf9ac00000000"
    }
  ]
}