{
  "hash": "000000004929d251b3802ccff6876d044ac68e0bedd37edb2ac735f771ffb04a",
  "confirmations": 52021,
  "height": 317,
  "version": 1,
  "versionHex": "00000001",
  "merkleroot": "e7caf9a784751643f7b71881aaf96e2b3e041950b42638b4fcfe82ff57ba260d",
  "time": 1231844715,
  "mediantime": 1231841124,
  "nonce": 12217557,
  "bits": "1d00ffff",
  "difficulty": 1,
  "chainwork": "0000000000000000000000000000000000000000000000000000013e013e013e",
  "nTx": 1,
  "previousblockhash": "00000000790a957603fc7b301dfca1c8dd93837a6af49c87c85119e9335478ab",
  "nextblockhash": "0000000074072a95ca7158d9f16a349f9b70f5ac67a2b0a5ff3d2753663d3784",
  "strippedsize": 216,
  "size": 216,
  "weight": 864,
  "tx": [
    {
      "txid": "e7caf9a784751643f7b71881aaf96e2b3e041950b42638b4fcfe82ff57ba260d",
      "hash": "e7caf9a784751643f7b71881aaf96e2b3e041950b42638b4fcfe82ff57ba260d",
      "version": 1,
      "size": 135,
      "vsize": 135,
      "weight": 540,
      "locktime": 0,
      "vin": [
        {
          "coinbase": "04ffff001d028000",
          "sequence": 4294967295
        }
      ],
      "vout": [
        {
          "value": 50.0,
          "n": 0,
          "scriptPubKey": {
            "asm": "0445aa26ca9ec2c37b81699317a0ee8c160aacdf7f717b67f1ab98432de1e5a954ffff5af7107ebc20ca11639367318d9f7529945c7efe171280993af7da9798c4 OP_CHECKSIG",
            "desc": "pk(0445aa26ca9ec2c37b81699317a0ee8c160aacdf7f717b67f1ab98432de1e5a954ffff5af7107ebc20ca11639367318d9f7529945c7efe171280993af7da9798c4)#nu85w7cp",
            "hex": "410445aa26ca9ec2c37b81699317a0ee8c160aacdf7f717b67f1ab98432de1e5a954ffff5af7107ebc20ca11639367318d9f7529945c7efe171280993af7da9798c4ac",
            "type": "pubkey"
          }
        }
      ],
      "hex": "01000000010000000000000000000000000000000000000000000000000000000000000000ffffffff0804ffff001d028000ffffffff0100f2052a0100000043410445aa26ca9ec2c37b81699317a0ee8c160aacdf7f717b67f1ab98432de1e5a954ffff5af7107ebc20ca11639367318d9f7529945c7efe171280993af7da9798c4ac00000000"
    }
  ]
}