{
  "hash": "00000000691c26533547345e80f870817f594d996f5bc4ab7ed6c89fdb197131",
  "confirmations": 48909,
  "height": 4189,
  "version": 1,
  "versionHex": "00000001",
  "merkleroot": "3546af29cd35bfe5dbf6c90ee42f3aded6e5b71a9a12b8bf600c7d9c871803e7",
  "time": 1234572699,
  "mediantime": 1234570516,
  "nonce": 197006807,
  "bits": "1d00ffff",
  "difficulty": 1,
  "chainwork": "0000000000000000000000000000000000000000000000000000105e105e105e",
  "nTx": 1,
  "previousblockhash": "00000000e3398c0308ab1d83b216bc25fe0d4c9106e844cf3a9ee3f8946625c7",
  "nextblockhash": "000000006f3270d3817f8571e4f732bfebdacc89d4034650042ec17eab525610",
  "strippedsize": 216,
  "size": 216,
  "weight": 864,
  "tx": [
    {
      "txid": "3546af29cd35bfe5dbf6c90ee42f3aded6e5b71a9a12b8bf600c7d9c871803e7",
      "hash": "3546af29cd35bfe5dbf6c90ee42f3aded6e5b71a9a12b8bf600c7d9c871803e7",
      "version": 1,
      "size": 135,
      "vsize": 135,
      "weight": 540,
      "locktime": 0,
      "vin": [
        {
          "coinbase": "04ffff001d021702",
          "sequence": 4294967295
        }
      ],
      "vout": [
        {
          "value": 50.0,
          "n": 0,
          "scriptPubKey": {
            "asm": "04faba12ce0066df5c355c568f6021361ad8db5442164b8c027e678417a366a0b42d252e9131c69eb517364ef38cb91dc5b11f85fb238538c985a467726862c940 OP_CHECKSIG",
            "desc": "pk(04faba12ce0066df5c355c568f6021361ad8db5442164b8c027e678417a366a0b42d252e9131c69eb517364ef38cb91dc5b11f85fb238538c985a467726862c940)#ajehhflz",
            "hex": "4104faba12ce0066df5c355c568f6021361ad8db5442164b8c027e678417a366a0b42d252e9131c69eb517364ef38cb91dc5b11f85fb238538c985a467726862c940ac",
            "type": "pubkey"
          }
        }
      ],
      "hex": "01000000010000000000000000000000000000000000000000000000000000000000000000ffffffff0804ffff001d021702ffffffff0100f2052a01000000434104faba12ce0066df5c355c568f6021361ad8db5442164b8c027e678417a366a0b42d252e9131c69eb517364ef38cb91dc5b11f85fb238538c985a467726862c940ac00000000"
    }
  ]
}