{
  "hash": "00000000cb08aaaa6c03526aa0d8bda289575622284b66aa5a9aec7cfa97073b",
  "confirmations": 45664,
  "height": 7434,
  "version": 1,
  "versionHex": "00000001",
  "merkleroot": "d5cc21bd23bff8089797f56027dae576b00291e34edfa0f96be9eabe6ce0cba4",
  "time": 1237048776,
  "mediantime": 1237044876,
  "nonce": 3044032280,
  "bits": "1d00ffff",
  "difficulty": 1,
  "chainwork": "00000000000000000000000000000000000000000000000000001d0b1d0b1d0b",
  "nTx": 1,
  "previousblockhash": "00000000e10bbc74e8d27d553d1d2c9b27a024ec3c358401a2e1b2ba8b0ea5bc",
  "nextblockhash": "00000000348039e8d178858611718957e6f8276875638bce6aff8bd6d8e46aed",
  "strippedsize": 216,
  "size": 216,
  "weight": 864,
  "tx": [
    {
      "txid": "d5cc21bd23bff8089797f56027dae576b00291e34edfa0f96be9eabe6ce0cba4",
      "hash": "d5cc21bd23bff8089797f56027dae576b00291e34edfa0f96be9eabe6ce0cba4",
      "version": 1,
      "size": 135,
      "vsize": 135,
      "weight": 540,
      "locktime": 0,
      "vin": [
        {
          "coinbase": "04ffff001d02180a",
          "sequence": 4294967295
        }
      ],
      "vout": [
        {
          "value": 50.0,
          "n": 0,
          "scriptPubKey": {
            "asm": "04c00dfba408e00b79bfc97a25367e37e19bbfca4ba48e510d9abebba8c448af740f072e3a697bad6356c705b66fedf86a7c844ceb02033623a4ce98b7edd51f61 OP_CHECKSIG",
            "desc": "pk(04c00dfba408e00b79bfc97a25367e37e19bbfca4ba48e510d9abebba8c448af740f072e3a697bad6356c705b66fedf86a7c844ceb02033623a4ce98b7edd51f61)#jzr6ltz2",
            "hex": "4104c00dfba408e00b79bfc97a25367e37e19bbfca4ba48e510d9abebba8c448af740f072e3a697bad6356c705b66fedf86a7c844ceb02033623a4ce98b7edd51f61ac",
            "type": "pubkey"
          }
        }
      ],
      "hex": "01000000010000000000000000000000000000000000000000000000000000000000000000ffffffff0804ffff001d02180affffffff0100f2052a01000000434104c00dfba408e00b79bfc97a25367e37e19bbfca4ba48e510d9abebba8c448af740f072e3a697bad6356c705b66fedf86a7c844ceb02033623a4ce98b7edd51f61ac00000000"
    }
  ]
}