{
  "hash": "0000000003fd63629ad16cb7d8f013d280ee732fe4c01b90adae895aa1758202",
  "confirmations": 52007,
  "height": 1091,
  "version": 1,
  "versionHex": "00000001",
  "merkleroot": "2a48d9d94411d7de3cdb35eef55df5a700da994f8ad15676051b415a1b55593e",
  "time": 1232417465,
  "mediantime": 1232413730,
  "nonce": 138337565,
  "bits": "1d00ffff",
  "difficulty": 1,
  "chainwork": "0000000000000000000000000000000000000000000000000000044404440444",
  "nTx": 1,
  "previousblockhash": "00000000d2d3144f44de46844c58f4cca884aa579001b62de4168cb458a5ed35",
  "nextblockhash": "000000002409bdb34102b0aea3532f46b1d645cf71d8ee94aa00e01ac683ccd5",
  "strippedsize": 216,
  "size": 216,
  "weight": 864,
  "tx": [
    {
      "txid": "2a48d9d94411d7de3cdb35eef55df5a700da994f8ad15676051b415a1b55593e",
      "hash": "2a48d9d94411d7de3cdb35eef55df5a700da994f8ad15676051b415a1b55593e",
      "version": 1,
      "size": 135,
      "vsize": 135,
      "weight": 540,
      "locktime": 0,
      "vin": [
        {
          "coinbase": "04ffff001d022d01",
          "sequence": 4294967295
        }
      ],
      "vout": [
        {
          "value": 50.0,
          "n": 0,
          "scriptPubKey": {
            "asm": "044a1fd7734823e1e7d768c32ee87b92b05993663ee44c2524ca5495ee26e4369aecbe609f869a127267b2af67dd9ab3a91828ee0cac7baaae42dd2f8dbd0c37f9 OP_CHECKSIG",
            "desc": "pk(044a1fd7734823e1e7d768c32ee87b92b05993663ee44c2524ca5495ee26e4369aecbe609f869a127267b2af67dd9ab3a91828ee0cac7baaae42dd2f8dbd0c37f9)#cxra4k0c",
            "hex": "41044a1fd7734823e1e7d768c32ee87b92b05993663ee44c2524ca5495ee26e4369aecbe609f869a127267b2af67dd9ab3a91828ee0cac7baaae42dd2f8dbd0c37f9ac",
            "type": "pubkey"
          }
        }
      ],
      "hex": "01000000010000000000000000000000000000000000000000000000000000000000000000ffffffff0804ffff001d022d01ffffffff0100f2052a010000004341044a1fd7734823e1e7d768c32ee87b92b05993663ee44c2524ca5495ee26e4369aecbe609f869a127267b2af67dd9ab3a91828ee0cac7baaae42dd2f8dbd0c37f9ac00000000"
    }
  ]
}