{
  "hash": "000000007cac5313246636b3d09a9327ad265e7fed0ceced58c41d2faf487f3e",
  "confirmations": 45312,
  "height": 7786,
  "version": 1,
  "versionHex": "00000001",
  "merkleroot": "5466976aa56df97fbc993e395e10383ced2509edee96e41f9ea88b08d8333718",
  "time": 1237302231,
  "mediantime": 1237298756,
  "nonce": 535249967,
  "bits": "1d00ffff",
  "difficulty": 1,
  "chainwork": "00000000000000000000000000000000000000000000000000001e6b1e6b1e6b",
  "nTx": 1,
  "previousblockhash": "000000003aa1d186feaad2895dfecc5a4d9eced4c719d6081f4f9109e8e6ff34",
  "nextblockhash": "00000000675479bfbe00ac5dfc6dbb24dc7680e7ae0cc741063f36216419dbbe",
  "strippedsize": 216,
  "size": 216,
  "weight": 864,
  "tx": [
    {
      "txid": "5466976aa56df97fbc993e395e10383ced2509edee96e41f9ea88b08d8333718",
      "hash": "5466976aa56df97fbc993e395e10383ced2509edee96e41f9ea88b08d8333718",
      "version": 1,
      "size": 135,
      "vsize": 135,
      "weight": 540,
      "locktime": 0,
      "vin": [
        {
          "coinbase": "04ffff001d029305",
          "sequence": 4294967295
        }
      ],
      "vout": [
        {
          "value": 50.0,
          "n": 0,
          "scriptPubKey": {
            "asm": "048e26f70bec4a18f48dda56a2ac5e673482d0fe394cb8222006eca6430b6d7f57cd1cc18a391de49b6d86e35f45df583163e71dd50b51be167ab492ff3a4a8ca0 OP_CHECKSIG",
            "desc": "pk(048e26f70bec4a18f48dda56a2ac5e673482d0fe394cb8222006eca6430b6d7f57cd1cc18a391de49b6d86e35f45df583163e71dd50b51be167ab492ff3a4a8ca0)#ggum8lyg",
            "hex": "41048e26f70bec4a18f48dda56a2ac5e673482d0fe394cb8222006eca6430b6d7f57cd1cc18a391de49b6d86e35f45df583163e71dd50b51be167ab492ff3a4a8ca0ac",
            "type": "pubkey"
          }
        }
      ],
      "hex": "01000000010000000000000000000000000000000000000000000000000000000000000000ffffffff0804ffff001d029305ffffffff0100f2052a010000004341048e26f70bec4a18f48dda56a2ac5e673482d0fe394cb8222006eca6430b6d7f57cd1cc18a391de49b6d86e35f45df583163e71dd50b51be167ab492ff3a4a8ca0ac00000000"
    }
  ]
}