{
  "hash": "00000000aad75b2a3c5d572cafc654ba632558e7792bd600617183d170b1a3aa",
  "confirmations": 50527,
  "height": 2571,
  "version": 1,
  "versionHex": "00000001",
  "merkleroot": "0a2893b14f9285289d1ad0fe685f2adc77704309f3c1da8b1b6deb2268e335ee",
  "time": 1233470463,
  "mediantime": 1233466796,
  "nonce": 3224374792,
  "bits": "1d00ffff",
  "difficulty": 1,
  "chainwork": "00000000000000000000000000000000000000000000000000000a0c0a0c0a0c",
  "nTx": 1,
  "previousblockhash": "00000000f1dd7a2c8dbb326f034b579058f5bea36438c2b06b21eb1facaed7e1",
  "nextblockhash": "0000000046757cbe7e2e93f787e4801005b3033e0fd50fe45e6d7082e81361b8",
  "strippedsize": 216,
  "size": 216,
  "weight": 864,
  "tx": [
    {
      "txid": "0a2893b14f9285289d1ad0fe685f2adc77704309f3c1da8b1b6deb2268e335ee",
      "hash": "0a2893b14f9285289d1ad0fe685f2adc77704309f3c1da8b1b6deb2268e335ee",
      "version": 1,
      "size": 135,
      "vsize": 135,
      "weight": 540,
      "locktime": 0,
      "vin": [
        {
          "coinbase": "04ffff001d026902",
          "sequence": 4294967295
        }
      ],
      "vout": [
        {
          "value": 50.0,
          "n": 0,
          "scriptPubKey": {
            "asm": "04232a0ee8fd45c9f8ee5e040a2caf76512ed0782bf488fdd15d4d7f71199c9e3bf60544f1c6bea2ab1086148dc35f18b5187fa790a42ce9b7fff7218d5b4e03f5 OP_CHECKSIG",
            "desc": "pk(04232a0ee8fd45c9f8ee5e040a2caf76512ed0782bf488fdd15d4d7f71199c9e3bf60544f1c6bea2ab1086148dc35f18b5187fa790a42ce9b7fff7218d5b4e03f5)#hejsdyye",
            "hex": "4104232a0ee8fd45c9f8ee5e040a2caf76512ed0782bf488fdd15d4d7f71199c9e3bf60544f1c6bea2ab1086148dc35f18b5187fa790a42ce9b7fff7218d5b4e03f5ac",
            "type": "pubkey"
          }
        }
      ],
      "hex": "01000000010000000000000000000000000000000000000000000000000000000000000000ffffffff0804ffff001d026902ffffffff0100f2052a01000000434104232a0ee8fd45c9f8ee5e040a2caf76512ed0782bf488fdd15d4d7f71199c9e3bf60544f1c6bea2ab1086148dc35f18b5187fa790a42ce9b7fff7218d5b4e03f5ac00000000"
    }
  ]
}