{
  "hash": "00000000c1c4b4f6b017224e8c0592225036327896d9c08f7ec90cc68d034e6d",
  "confirmations": 45585,
  "height": 7513,
  "version": 1,
  "versionHex": "00000001",
  "merkleroot": "367640c468dbe3e2d5d23b64964e878d1ee7fcc137c2c97016c9348668d37962",
  "time": 1237106406,
  "mediantime": 1237102142,
  "nonce": 394110198,
  "bits": "1d00ffff",
  "difficulty": 1,
  "chainwork": "00000000000000000000000000000000000000000000000000001d5a1d5a1d5a",
  "nTx": 1,
  "previousblockhash": "00000000ede8472749e1543f0ec5d385a38547357c8db6255eb856b28edda4b3",
  "nextblockhash": "00000000f40693b2d6f621092e62fe108d93893dce7589609e316b0288ca8e69",
  "strippedsize": 216,
  "size": 216,
  "weight": 864,
  "tx": [
    {
      "txid": "367640c468dbe3e2d5d23b64964e878d1ee7fcc137c2c97016c9348668d37962",
      "hash": "367640c468dbe3e2d5d23b64964e878d1ee7fcc137c2c97016c9348668d37962",
      "version": 1,
      "size": 135,
      "vsize": 135,
      "weight": 540,
      "locktime": 0,
      "vin": [
        {
          "coinbase": "04ffff001d02cc01",
          "sequence": 4294967295
        }
      ],
      "vout": [
        {
          "value": 50.0,
          "n": 0,
          "scriptPubKey": {
            "asm": "04c64eee971c7cd27b6f0b075976d423abb4c829aa2a2598b8981c4b12b7aa958f8ba9858b98d183becd816ef3c79b5c77585628367c3e97a461a111ce49dfb8cd OP_CHECKSIG",
            "desc": "pk(04c64eee971c7cd27b6f0b075976d423abb4c829aa2a2598b8981c4b12b7aa958f8ba9858b98d183becd816ef3c79b5c77585628367c3e97a461a111ce49dfb8cd)#4vqr8kqw",
            "hex": "4104c64eee971c7cd27b6f0b075976d423abb4c829aa2a2598b8981c4b12b7aa958f8ba9858b98d183becd816ef3c79b5c77585628367c3e97a461a111ce49dfb8cdac",
            "type": "pubkey"
          }
        }
      ],
      "hex": "01000000010000000000000000000000000000000000000000000000000000000000000000ffffffff0804ffff001d02cc01ffffffff0100f2052a01000000434104c64eee971c7cd27b6f0b075976d423abb4c829aa2a2598b8981c4b12b7aa958f8ba9858b98d183becd816ef3c79b5c77585628367c3e97a461a111ce49dfb8cdac00000000"
    }
  ]
}