{
  "hash": "0000000052fef4716fe4c23a5625a6a2a5b0b6b93cc1b0a51eef1421b121a07b",
  "confirmations": 45825,
  "height": 7273,
  "version": 1,
  "versionHex": "00000001",
  "merkleroot": "80e141f5808886563dee29d11dad9a865bd0dc12a36f2ab798445f7466d24712",
  "time": 1236925488,
  "mediantime": 1236923060,
  "nonce": 2488729621,
  "bits": "1d00ffff",
  "difficulty": 1,
  "chainwork": "00000000000000000000000000000000000000000000000000001c6a1c6a1c6a",
  "nTx": 1,
  "previousblockhash": "000000000d3146efd2e47e27f519a4d224d83cfd3156b6fe751ec83a9027393e",
  "nextblockhash": "0000000075715d9417a0cd173cd098ec87f22fac267bc91c7666ce096a09eeaa",
  "strippedsize": 216,
  "size": 216,
  "weight": 864,
  "tx": [
    {
      "txid": "80e141f5808886563dee29d11dad9a865bd0dc12a36f2ab798445f7466d24712",
      "hash": "80e141f5808886563dee29d11dad9a865bd0dc12a36f2ab798445f7466d24712",
      "version": 1,
      "size": 135,
      "vsize": 135,
      "weight": 540,
      "locktime": 0,
      "vin": [
        {
          "coinbase": "04ffff001d02e706",
          "sequence": 4294967295
        }
      ],
      "vout": [
        {
          "value": 50.0,
          "n": 0,
          "scriptPubKey": {
            "asm": "043550ad198fd8f1bdcaf0925cbcc676552c560c906188605f44e048f6bdd73387166ace26fdcf0ff9810f043e01ea8442b70de786f311d74a7bc7cf9ade96cc1d OP_CHECKSIG",
            "desc": "pk(043550ad198fd8f1bdcaf0925cbcc676552c560c906188605f44e048f6bdd73387166ace26fdcf0ff9810f043e01ea8442b70de786f311d74a7bc7cf9ade96cc1d)#zv09zhlg",
            "hex": "41043550ad198fd8f1bdcaf0925cbcc676552c560c906188605f44e048f6bdd73387166ace26fdcf0ff9810f043e01ea8442b70de786f311d74a7bc7cf9ade96cc1dac",
            "type": "pubkey"
          }
        }
      ],
      "hex": "01000000010000000000000000000000000000000000000000000000000000000000000000ffffffff0804ffff001d02e706ffffffff0100f2052a010000004341043550ad198fd8f1bdcaf0925cbcc676552c560c906188605f44e048f6bdd73387166ace26fdcf0ff9810f043e01ea8442b70de786f311d74a7bc7cf9ade96cc1dac00000000"
    }
  ]
}