{
  "hash": "0000000033a17623c7ecf0c8700f749916dad22b7a3972a353c39faebf73e995",
  "confirmations": 48191,
  "height": 4907,
  "version": 1,
  "versionHex": "00000001",
  "merkleroot": "55c2cdd35d67a261322f9c5fb5a6a00c281f2082786c25b9e51f4797a1987a98",
  "time": 1235076404,
  "mediantime": 1235071321,
  "nonce": 1649733176,
  "bits": "1d00ffff",
  "difficulty": 1,
  "chainwork": "0000000000000000000000000000000000000000000000000000132c132c132c",
  "nTx": 1,
  "previousblockhash": "00000000cca488c074c4c6164e0c91ac580c42e63f33d3e28d705857abff721d",
  "nextblockhash": "00000000c8eebeaee6336fcc3bcaddbc2549dace57af75b9d80a452291f79bca",
  "strippedsize": 216,
  "size": 216,
  "weight": 864,
  "tx": [
    {
      "txid": "55c2cdd35d67a261322f9c5fb5a6a00c281f2082786c25b9e51f4797a1987a98",
      "hash": "55c2cdd35d67a261322f9c5fb5a6a00c281f2082786c25b9e51f4797a1987a98",
      "version": 1,
      "size": 135,
      "vsize": 135,
      "weight": 540,
      "locktime": 0,
      "vin": [
        {
          "coinbase": "04ffff001d02b805",
          "sequence": 4294967295
        }
      ],
      "vout": [
        {
          "value": 50.0,
          "n": 0,
          "scriptPubKey": {
            "asm": "04c243a9679e75e22db558948cd5ea933acc56afce787b67c4cc15f9e2fe027068f3ccabedf7e3e8c24dea44dd17a0b413d9d5a86fa540eb335bb2d7f020430de7 OP_CHECKSIG",
            "desc": "pk(04c243a9679e75e22db558948cd5ea933acc56afce787b67c4cc15f9e2fe027068f3ccabedf7e3e8c24dea44dd17a0b413d9d5a86fa540eb335bb2d7f020430de7)#35n9rfks",
            "hex": "4104c243a9679e75e22db558948cd5ea933acc56afce787b67c4cc15f9e2fe027068f3ccabedf7e3e8c24dea44dd17a0b413d9d5a86fa540eb335bb2d7f020430de7ac",
            "type": "pubkey"
          }
        }
      ],
      "hex": "01000000010000000000000000000000000000000000000000000000000000000000000000ffffffff0804ffff001d02b805ffffffff0100f2052a01000000434104c243a9679e75e22db558948cd5ea933acc56afce787b67c4cc15f9e2fe027068f3ccabedf7e3e8c24dea44dd17a0b413d9d5a86fa540eb335bb2d7f020430de7ac00000000"
    }
  ]
}