{
  "hash": "00000000427e457ae1d44c88e78ac0685f2dbbc192dc2318728053e8b77a7603",
  "confirmations": 47802,
  "height": 5296,
  "version": 1,
  "versionHex": "00000001",
  "merkleroot": "008566417f65d5db4f7a4ff11398964531da4d1e54f70357ccf72049e65ba9fd",
  "time": 1235358205,
  "mediantime": 1235353976,
  "nonce": 2252532279,
  "bits": "1d00ffff",
  "difficulty": 1,
  "chainwork": "000000000000000000000000000000000000000000000000000014b114b114b1",
  "nTx": 1,
  "previousblockhash": "000000005d3a001979503a78d3b5f446a78b30af64d4b5153febed97a17d881b",
  "nextblockhash": "000000002f032e44c72e21f5205f5fe315b7b8abdcdcf0a06cf543b69d4ab3be",
  "strippedsize": 216,
  "size": 216,
  "weight": 864,
  "tx": [
    {
      "txid": "008566417f65d5db4f7a4ff11398964531da4d1e54f70357ccf72049e65ba9fd",
      "hash": "008566417f65d5db4f7a4ff11398964531da4d1e54f70357ccf72049e65ba9fd",
      "version": 1,
      "size": 135,
      "vsize": 135,
      "weight": 540,
      "locktime": 0,
      "vin": [
        {
          "coinbase": "04ffff001d02fb01",
          "sequence": 4294967295
        }
      ],
      "vout": [
        {
          "value": 50.0,
          "n": 0,
          "scriptPubKey": {
            "asm": "04a2f0b592195e36862b762c717ccef16f444c3975857392a1930c7cc84ed843f31bf1962181cc665baa111393bac6ea813c5d97f54feebda6519bba305d4568ab OP_CHECKSIG",
            "desc": "pk(04a2f0b592195e36862b762c717ccef16f444c3975857392a1930c7cc84ed843f31bf1962181cc665baa111393bac6ea813c5d97f54feebda6519bba305d4568ab)#klm297a8",
            "hex": "4104a2f0b592195e36862b762c717ccef16f444c3975857392a1930c7cc84ed843f31bf1962181cc665baa111393bac6ea813c5d97f54feebda6519bba305d4568abac",
            "type": "pubkey"
          }
        }
      ],
      "hex": "01000000010000000000000000000000000000000000000000000000000000000000000000ffffffff0804ffff001d02fb01ffffffff0100f2052a01000000434104a2f0b592195e36862b762c717ccef16f444c3975857392a1930c7cc84ed843f31bf1962181cc665baa111393bac6ea813c5d97f54feebda6519bba305d4568abac00000000"
    }
  ]
}