{
  "hash": "00000000bf86d3a09a14d502d171947a7408c3779e83b78c100e5ed57fca3be0",
  "confirmations": 52527,
  "height": 571,
  "version": 1,
  "versionHex": "00000001",
  "merkleroot": "f79475666d353611726c4c17090fe6fd883a6860ef0edbc8fceffeea1b8660dc",
  "time": 1232017034,
  "mediantime": 1232014595,
  "nonce": 2920306485,
  "bits": "1d00ffff",
  "difficulty": 1,
  "chainwork": "0000000000000000000000000000000000000000000000000000023c023c023c",
  "nTx": 1,
  "previousblockhash": "00000000bd2f9e06fe89f7ac4edb2c664b069935c7e983cd51d40ea368910a49",
  "nextblockhash": "000000003b3b42e8af3178e581f468b6d83e5acd419b00656d3d5c22b82ff29c",
  "strippedsize": 216,
  "size": 216,
  "weight": 864,
  "tx": [
    {
      "txid": "f79475666d353611726c4c17090fe6fd883a6860ef0edbc8fceffeea1b8660dc",
      "hash": "f79475666d353611726c4c17090fe6fd883a6860ef0edbc8fceffeea1b8660dc",
      "version": 1,
      "size": 135,
      "vsize": 135,
      "weight": 540,
      "locktime": 0,
      "vin": [
        {
          "coinbase": "04ffff001d020706",
          "sequence": 4294967295
        }
      ],
      "vout": [
        {
          "value": 50.0,
          "n": 0,
          "scriptPubKey": {
            "asm": "04c34443bb46fbb788a914d781a9b5697f1bc9c2b3fb7903c723f4436d475f46e900281f7df7b7af0854c60513e1421cc5e46269e4cf38faf2bf2436ef9fe7a595 OP_CHECKSIG",
            "desc": "pk(04c34443bb46fbb788a914d781a9b5697f1bc9c2b3fb7903c723f4436d475f46e900281f7df7b7af0854c60513e1421cc5e46269e4cf38faf2bf2436ef9fe7a595)#pjpu3yj6",
            "hex": "4104c34443bb46fbb788a914d781a9b5697f1bc9c2b3fb7903c723f4436d475f46e900281f7df7b7af0854c60513e1421cc5e46269e4cf38faf2bf2436ef9fe7a595ac",
            "type": "pubkey"
          }
        }
      ],
      "hex": "01000000010000000000000000000000000000000000000000000000000000000000000000ffffffff0804ffff001d020706ffffffff0100f2052a01000000434104c34443bb46fbb788a914d781a9b5697f1bc9c2b3fb7903c723f4436d475f46e900281f7df7b7af0854c60513e1421cc5e46269e4cf38faf2bf2436ef9fe7a595ac00000000"
    }
  ]
}