{
  "hash": "000000006a9a61f62ab4af162ed30272930c2acfc1139d6666455e60569a0a5c",
  "confirmations": 51709,
  "height": 1389,
  "version": 1,
  "versionHex": "00000001",
  "merkleroot": "b1ab6a451691d517ed859d9f2796729916786517fb728514e7225af0c89aec95",
  "time": 1232682580,
  "mediantime": 1232668013,
  "nonce": 385822774,
  "bits": "1d00ffff",
  "difficulty": 1,
  "chainwork": "0000000000000000000000000000000000000000000000000000056e056e056e",
  "nTx": 2,
  "previousblockhash": "00000000f65ec02ed1afe14a10abb94e08ca830ea8c5e47a8207f5e98d7fae65",
  "nextblockhash": "00000000dd431bce4cf36326ee8b51a7136ebcf664976ba7087bf7d8f3ce0f5d",
  "strippedsize": 643,
  "size": 643,
  "weight": 2572,
  "tx": [
    {
      "txid": "146baf9c9a6a968fd5323eef0ecc1b16afa96b6399d480b25533a23b99b812d5",
      "hash": "146baf9c9a6a968fd5323eef0ecc1b16afa96b6399d480b25533a23b99b812d5",
      "version": 1,
      "size": 135,
      "vsize": 135,
      "weight": 540,
      "locktime": 0,
      "vin": [
        {
          "coinbase": "04ffff001d025a02",
          "sequence": 4294967295
        }
      ],
      "vout": [
        {
          "value": 50.0,
          "n": 0,
          "scriptPubKey": {
            "asm": "043924a88e58a56e1edec5e93d0f7788d20bf07403eb0dbe43c26cdb97c92ea88953418dec416e1903bb22a1c5ad59b6c20e473bd7ecb34ea39090d466972f6679 OP_CHECKSIG",
            "desc": "pk(043924a88e58a56e1edec5e93d0f7788d20bf07403eb0dbe43c26cdb97c92ea88953418dec416e1903bb22a1c5ad59b6c20e473bd7ecb34ea39090d466972f6679)#8j69kv43",
            "hex": "41043924a88e58a56e1edec5e93d0f7788d20bf07403eb0dbe43c26cdb97c92ea88953418dec416e1903bb22a1c5ad59b6c20e473bd7ecb34ea39090d466972f6679ac",
            "type": "pubkey"
          }
        }
      ],
      "hex": "01000000010000000000000000000000000000000000000000000000000000000000000000ffffffff0804ffff001d025a02ffffffff0100f2052a010000004341043924a88e58a56e1edec5e93d0f7788d20bf07403eb0dbe43c26cdb97c92ea88953418dec416e1903bb22a1c5ad59b6c20e473bd7ecb34ea39090d466972f6679ac00000000"
    },
    {
      "txid": "1eb6633edc85119d120bce6d484557571ab00b5e538de09fe2e21b58e9986528",
      "hash": "1eb6633edc85119d120bce6d484557571ab00b5e538de09fe2e21b58e9986528",
      "version": 1,
      "size": 427,
      "vsize": 427,
      "weight": 1708,
      "locktime": 0,
      "vin": [
        {
          "txid": "bb033d031a5072a0cdf023b7aef0d307c87ad3ecb0f2b0ca9d35b0c7589dd0d1",
          "vout": 0,
          "scriptSig": {
            "asm": "3045022100ef834ae2a62722c631a7211a87ef7394fa66fc73b6640990743604576b0c12be0220161f372e298e6ad62982132e0c213f31eb19bfa0b8d161b9b94841749f42c5ca[ALL]",
            "hex": "483045022100ef834ae2a62722c631a7211a87ef7394fa66fc73b6640990743604576b0c12be0220161f372e298e6ad62982132e0c213f31eb19bfa0b8d161b9b94841749f42c5ca01"
          },
          "sequence": 4294967295
        },
        {
          "txid": "92e60c428d05c6ab98cee9373f4aafe18538d5d3c8f3319a85feb2575f314923",
          "vout": 0,
          "scriptSig": {
            "asm": "304402207056c048eec242f7ca536c832570d94bf25460288f2b4920c6574e534a7400a102206fa19681a44449cb40aeabbfbe7dcf00d8bbd5838cc066cc096ef3da7c0b1d42[ALL]",
            "hex": "47304402207056c048eec242f7ca536c832570d94bf25460288f2b4920c6574e534a7400a102206fa19681a44449cb40aeabbfbe7dcf00d8bbd5838cc066cc096ef3da7c0b1d4201"
          },
          "sequence": 4294967295
        },
        {
          "txid": "6700d2bae7901897a00fae25044fb19c1f3c2dac07deac8a7ff5bff4efbb51d4",
          "vout": 0,
          "scriptSig": {
            "asm": "30450220218cd108ae2e3a69db9147e0af14b4d715ff9df36b31ef595848914e98a7404e022100c23ced214985633067a7baa0af464a09886790d25500b42ba6465a72ce7b46c6[ALL]",
            "hex": "4830450220218cd108ae2e3a69db9147e0af14b4d715ff9df36b31ef595848914e98a7404e022100c23ced214985633067a7baa0af464a09886790d25500b42ba6465a72ce7b46c601"
          },
          "sequence": 4294967295
        }
      ],
      "vout": [
        {
          "value": 150.0,
          "n": 0,
          "scriptPubKey": {
            "asm": "04e667d2070767a3226b5435409ddcad58740a4b6e720f11a688fe6a6c217d6e2e3d2d8a3bff7ceb129e9736b7c975ca54c32ce25ce96c9a007467b1f9e4490a06 OP_CHECKSIG",
            "desc": "pk(04e667d2070767a3226b5435409ddcad58740a4b6e720f11a688fe6a6c217d6e2e3d2d8a3bff7ceb129e9736b7c975ca54c32ce25ce96c9a007467b1f9e4490a06)#92ssfpze",
            "hex": "4104e667d2070767a3226b5435409ddcad58740a4b6e720f11a688fe6a6c217d6e2e3d2d8a3bff7ceb129e9736b7c975ca54c32ce25ce96c9a007467b1f9e4490a06ac",
            "type": "pubkey"
          }
        }
      ],
      "fee": 0.0,
      "hex": "0100000003d1d09d58c7b0359dcab0f2b0ecd37ac807d3f0aeb723f0cda072501a033d03bb0000000049483045022100ef834ae2a62722c631a7211a87ef7394fa66fc73b6640990743604576b0c12be0220161f372e298e6ad62982132e0c213f31eb19bfa0b8d161b9b94841749f42c5ca01ffffffff2349315f57b2fe859a31f3c8d3d53885e1af4a3f37e9ce98abc6058d420ce692000000004847304402207056c048eec242f7ca536c832570d94bf25460288f2b4920c6574e534a7400a102206fa19681a44449cb40aeabbfbe7dcf00d8bbd5838cc066cc096ef3da7c0b1d4201ffffffffd451bbeff4bff57f8aacde07ac2d3c1f9cb14f0425ae0fa0971890e7bad2006700000000494830450220218cd108ae2e3a69db9147e0af14b4d715ff9df36b31ef595848914e98a7404e022100c23ced214985633067a7baa0af464a09886790d25500b42ba6465a72ce7b46c601ffffffff0100d6117e03000000434104e667d2070767a3226b5435409ddcad58740a4b6e720f11a688fe6a6c217d6e2e3d2d8a3bff7ceb129e9736b7c975ca54c32ce25ce96c9a007467b1f9e4490a06ac00000000"
    }
  ]
}