{
  "hash": "00000000c646ac3bad5d736d63a0bb4b7b07323414a0aa2f7ed4da48448c6bc1",
  "confirmations": 50530,
  "height": 2568,
  "version": 1,
  "versionHex": "00000001",
  "merkleroot": "d9a1f15019a84e1cb89815246a496fae75033448f4dbcc4a5ddaab267eaacaf6",
  "time": 1233467683,
  "mediantime": 1233464326,
  "nonce": 35176289,
  "bits": "1d00ffff",
  "difficulty": 1,
  "chainwork": "00000000000000000000000000000000000000000000000000000a090a090a09",
  "nTx": 1,
  "previousblockhash": "000000007a2d56a9d355b09fa261bfa1d61fda45556cecf0754e524c0eede832",
  "nextblockhash": "00000000ffb05d42c619788bb38636c1e59ec056ad854893cb9fcb6ceabe14dd",
  "strippedsize": 215,
  "size": 215,
  "weight": 860,
  "tx": [
    {
      "txid": "d9a1f15019a84e1cb89815246a496fae75033448f4dbcc4a5ddaab267eaacaf6",
      "hash": "d9a1f15019a84e1cb89815246a496fae75033448f4dbcc4a5ddaab267eaacaf6",
      "version": 1,
      "size": 134,
      "vsize": 134,
      "weight": 536,
      "locktime": 0,
      "vin": [
        {
          "coinbase": "04ffff001d010c",
          "sequence": 4294967295
        }
      ],
      "vout": [
        {
          "value": 50.0,
          "n": 0,
          "scriptPubKey": {
            "asm": "04ef091e819f2dcb26d86d3339088e866b889d1f157f3208eaeec6d9de679855fd2081a10f948ccbf22d04f817dd277e43ce86988a6d116ca78c0aad3f5ae69398 OP_CHECKSIG",
            "desc": "pk(04ef091e819f2dcb26d86d3339088e866b889d1f157f3208eaeec6d9de679855fd2081a10f948ccbf22d04f817dd277e43ce86988a6d116ca78c0aad3f5ae69398)#m96hkn44",
            "hex": "4104ef091e819f2dcb26d86d3339088e866b889d1f157f3208eaeec6d9de679855fd2081a10f948ccbf22d04f817dd277e43ce86988a6d116ca78c0aad3f5ae69398ac",
            "type": "pubkey"
          }
        }
      ],
      "hex": "01000000010000000000000000000000000000000000000000000000000000000000000000ffffffff0704ffff001d010cffffffff0100f2052a01000000434104ef091e819f2dcb26d86d3339088e866b889d1f157f3208eaeec6d9de679855fd2081a10f948ccbf22d04f817dd277e43ce86988a6d116ca78c0aad3f5ae69398ac00000000"
    }
  ]
}