{
  "hash": "00000000842d44ca92a61249883423c2c824f387af268ac1843a6b39bde248d3",
  "confirmations": 43849,
  "height": 9249,
  "version": 1,
  "versionHex": "00000001",
  "merkleroot": "9479a106990ef1ed78d02dfce83da5ec4e53494e794df9eae1dfcac5591f198c",
  "time": 1238433754,
  "mediantime": 1238429655,
  "nonce": 2521755677,
  "bits": "1d00ffff",
  "difficulty": 1,
  "chainwork": "0000000000000000000000000000000000000000000000000000242224222422",
  "nTx": 1,
  "previousblockhash": "00000000541828a90e98b49c55e8aefd9b27140f9d873ca2a7d1237054b659a2",
  "nextblockhash": "00000000f9ba2607cd9bcc7829102ed65f44cc0b6d80a33fe61ec4596571b71b",
  "strippedsize": 216,
  "size": 216,
  "weight": 864,
  "tx": [
    {
      "txid": "9479a106990ef1ed78d02dfce83da5ec4e53494e794df9eae1dfcac5591f198c",
      "hash": "9479a106990ef1ed78d02dfce83da5ec4e53494e794df9eae1dfcac5591f198c",
      "version": 1,
      "size": 135,
      "vsize": 135,
      "weight": 540,
      "locktime": 0,
      "vin": [
        {
          "coinbase": "04ffff001d02f000",
          "sequence": 4294967295
        }
      ],
      "vout": [
        {
          "value": 50.0,
          "n": 0,
          "scriptPubKey": {
            "asm": "042de23b96bdbe7e3436a684f4568f56e084c182f461b5096d0b6fec42ab5800bffcfce2829d2bfe51e54a6a87ab9ac4554e12178661e279d9fe3dfdd4fa9d034b OP_CHECKSIG",
            "desc": "pk(042de23b96bdbe7e3436a684f4568f56e084c182f461b5096d0b6fec42ab5800bffcfce2829d2bfe51e54a6a87ab9ac4554e12178661e279d9fe3dfdd4fa9d034b)#quz74dh0",
            "hex": "41042de23b96bdbe7e3436a684f4568f56e084c182f461b5096d0b6fec42ab5800bffcfce2829d2bfe51e54a6a87ab9ac4554e12178661e279d9fe3dfdd4fa9d034bac",
            "type": "pubkey"
          }
        }
      ],
      "hex": "01000000010000000000000000000000000000000000000000000000000000000000000000ffffffff0804ffff001d02f000ffffffff0100f2052a010000004341042de23b96bdbe7e3436a684f4568f56e084c182f461b5096d0b6fec42ab5800bffcfce2829d2bfe51e54a6a87ab9ac4554e12178661e279d9fe3dfdd4fa9d034bac00000000"
    }
  ]
}