{
  "hash": "00000000228868bd1c5fad818799827c4bbff4cecc5673511a1c594f7ccaff4b",
  "confirmations": 50500,
  "height": 2598,
  "version": 1,
  "versionHex": "00000001",
  "merkleroot": "e165068af64a97ecb67995db66d4b69f8083a29783d4247b5a88e23a490ab040",
  "time": 1233494893,
  "mediantime": 1233489325,
  "nonce": 1773794103,
  "bits": "1d00ffff",
  "difficulty": 1,
  "chainwork": "00000000000000000000000000000000000000000000000000000a270a270a27",
  "nTx": 1,
  "previousblockhash": "00000000fa68b47da2fff1d2a238f09256779c997964fc762c2b5cd6b6fdd842",
  "nextblockhash": "00000000d96cd57bf653812f5a3126a14ea39b089e4afa71e67e9a8bbed6a433",
  "strippedsize": 216,
  "size": 216,
  "weight": 864,
  "tx": [
    {
      "txid": "e165068af64a97ecb67995db66d4b69f8083a29783d4247b5a88e23a490ab040",
      "hash": "e165068af64a97ecb67995db66d4b69f8083a29783d4247b5a88e23a490ab040",
      "version": 1,
      "size": 135,
      "vsize": 135,
      "weight": 540,
      "locktime": 0,
      "vin": [
        {
          "coinbase": "04ffff001d02ef02",
          "sequence": 4294967295
        }
      ],
      "vout": [
        {
          "value": 50.0,
          "n": 0,
          "scriptPubKey": {
            "asm": "04622da6835ff25afc297575f26f96273452296f3a504404b8ebdfe418dce344225e5a366d5f7850baa7b7d36bef3c4883446cd8e16eb2ffe6fe43aa56afe31702 OP_CHECKSIG",
            "desc": "pk(04622da6835ff25afc297575f26f96273452296f3a504404b8ebdfe418dce344225e5a366d5f7850baa7b7d36bef3c4883446cd8e16eb2ffe6fe43aa56afe31702)#pl4474dr",
            "hex": "4104622da6835ff25afc297575f26f96273452296f3a504404b8ebdfe418dce344225e5a366d5f7850baa7b7d36bef3c4883446cd8e16eb2ffe6fe43aa56afe31702ac",
            "type": "pubkey"
          }
        }
      ],
      "hex": "01000000010000000000000000000000000000000000000000000000000000000000000000ffffffff0804ffff001d02ef02ffffffff0100f2052a01000000434104622da6835ff25afc297575f26f96273452296f3a504404b8ebdfe418dce344225e5a366d5f7850baa7b7d36bef3c4883446cd8e16eb2ffe6fe43aa56afe31702ac00000000"
    }
  ]
}