{
  "hash": "000000002f52076a8ed9ddcd28ba05dad9486b303d87dad1fc69a04d379bd8c2",
  "confirmations": 45660,
  "height": 7438,
  "version": 1,
  "versionHex": "00000001",
  "merkleroot": "a3e86026336de0b877f1a07f1956309ce472d6b4f873fb2c18fd5651b0839d17",
  "time": 1237051760,
  "mediantime": 1237048279,
  "nonce": 249211161,
  "bits": "1d00ffff",
  "difficulty": 1,
  "chainwork": "00000000000000000000000000000000000000000000000000001d0f1d0f1d0f",
  "nTx": 1,
  "previousblockhash": "00000000bb8a6faa139493591e11b6684b6bd920ee420f0f1ad8472c9c7b68ae",
  "nextblockhash": "000000008e26a6ca46f3cde4cfaf06b21a6902ecab89953059ca366526c01e30",
  "strippedsize": 216,
  "size": 216,
  "weight": 864,
  "tx": [
    {
      "txid": "a3e86026336de0b877f1a07f1956309ce472d6b4f873fb2c18fd5651b0839d17",
      "hash": "a3e86026336de0b877f1a07f1956309ce472d6b4f873fb2c18fd5651b0839d17",
      "version": 1,
      "size": 135,
      "vsize": 135,
      "weight": 540,
      "locktime": 0,
      "vin": [
        {
          "coinbase": "04ffff001d02ac02",
          "sequence": 4294967295
        }
      ],
      "vout": [
        {
          "value": 50.0,
          "n": 0,
          "scriptPubKey": {
            "asm": "04bcdd2c670cd762ffd551bacee16e33eca689e360adaaaea0b4398697d9f9fa04391217c90368994e1057dcc2f6916b5a34e2f6fc65b9bf3d7631e54f45fb7283 OP_CHECKSIG",
            "desc": "pk(04bcdd2c670cd762ffd551bacee16e33eca689e360adaaaea0b4398697d9f9fa04391217c90368994e1057dcc2f6916b5a34e2f6fc65b9bf3d7631e54f45fb7283)#qzka7egh",
            "hex": "4104bcdd2c670cd762ffd551bacee16e33eca689e360adaaaea0b4398697d9f9fa04391217c90368994e1057dcc2f6916b5a34e2f6fc65b9bf3d7631e54f45fb7283ac",
            "type": "pubkey"
          }
        }
      ],
      "hex": "01000000010000000000000000000000000000000000000000000000000000000000000000ffffffff0804ffff001d02ac02ffffffff0100f2052a01000000434104bcdd2c670cd762ffd551bacee16e33eca689e360adaaaea0b4398697d9f9fa04391217c90368994e1057dcc2f6916b5a34e2f6fc65b9bf3d7631e54f45fb7283ac00000000"
    }
  ]
}