{
  "hash": "00000000e1798bc5da65746383737a855f94dd9cc73edd26eb4ec0dc3fe8d505",
  "confirmations": 52182,
  "height": 447,
  "version": 1,
  "versionHex": "00000001",
  "merkleroot": "4c8093cf8c6e5404bd4448d98d576c93d7ff0bd51a2d9a679a604e731d33df13",
  "time": 1231933666,
  "mediantime": 1231930435,
  "nonce": 992778537,
  "bits": "1d00ffff",
  "difficulty": 1,
  "chainwork": "000000000000000000000000000000000000000000000000000001c001c001c0",
  "nTx": 1,
  "previousblockhash": "000000003f315849a6af7f1b3d056f8c554c5e0c687dae7b7134fabb7f35d201",
  "nextblockhash": "000000004ba46e857e930313ddca29e1b30336f3e3cf26c3584c91ca93ee2bac",
  "strippedsize": 216,
  "size": 216,
  "weight": 864,
  "tx": [
    {
      "txid": "4c8093cf8c6e5404bd4448d98d576c93d7ff0bd51a2d9a679a604e731d33df13",
      "hash": "4c8093cf8c6e5404bd4448d98d576c93d7ff0bd51a2d9a679a604e731d33df13",
      "version": 1,
      "size": 135,
      "vsize": 135,
      "weight": 540,
      "locktime": 0,
      "vin": [
        {
          "coinbase": "04ffff001d028b03",
          "sequence": 4294967295
        }
      ],
      "vout": [
        {
          "value": 50.0,
          "n": 0,
          "scriptPubKey": {
            "asm": "04131b45703a15d66fa96f6af709ced0640359788fd4be4c53dad0475104b2cf3040ebcbe367e5c93471c8e434b7bb3aca208c5833864d2a679bb0f19bdb784c81 OP_CHECKSIG",
            "desc": "pk(04131b45703a15d66fa96f6af709ced0640359788fd4be4c53dad0475104b2cf3040ebcbe367e5c93471c8e434b7bb3aca208c5833864d2a679bb0f19bdb784c81)#7y22qa2y",
            "hex": "4104131b45703a15d66fa96f6af709ced0640359788fd4be4c53dad0475104b2cf3040ebcbe367e5c93471c8e434b7bb3aca208c5833864d2a679bb0f19bdb784c81ac",
            "type": "pubkey"
          }
        }
      ],
      "hex": "01000000010000000000000000000000000000000000000000000000000000000000000000ffffffff0804ffff001d028b03ffffffff0100f2052a01000000434104131b45703a15d66fa96f6af709ced0640359788fd4be4c53dad0475104b2cf3040ebcbe367e5c93471c8e434b7bb3aca208c5833864d2a679bb0f19bdb784c81ac00000000"
    }
  ]
}