{
  "hash": "000000009bce23f4d8c9ae225570da6674fa1ff277233a3c75efb2640b9d22a7",
  "confirmations": 45225,
  "height": 7873,
  "version": 1,
  "versionHex": "00000001",
  "merkleroot": "22589c165ccd9a82ae61197c33468f0124535b1801f0819e9ab3f65ca1144608",
  "time": 1237370853,
  "mediantime": 1237365984,
  "nonce": 3713152304,
  "bits": "1d00ffff",
  "difficulty": 1,
  "chainwork": "00000000000000000000000000000000000000000000000000001ec21ec21ec2",
  "nTx": 1,
  "previousblockhash": "000000005f5c18fb5aacefddaaafbc44535f74d92dd40371e80d06765d4f6324",
  "nextblockhash": "00000000c110e75e7bd5ecd29ecf1d4f60cf556fc5f2d3a3c02b406e85036e9a",
  "strippedsize": 216,
  "size": 216,
  "weight": 864,
  "tx": [
    {
      "txid": "22589c165ccd9a82ae61197c33468f0124535b1801f0819e9ab3f65ca1144608",
      "hash": "22589c165ccd9a82ae61197c33468f0124535b1801f0819e9ab3f65ca1144608",
      "version": 1,
      "size": 135,
      "vsize": 135,
      "weight": 540,
      "locktime": 0,
      "vin": [
        {
          "coinbase": "04ffff001d021307",
          "sequence": 4294967295
        }
      ],
      "vout": [
        {
          "value": 50.0,
          "n": 0,
          "scriptPubKey": {
            "asm": "04eabd9ba6566297a9b1f2276c87c802a67679562f1e20086a47de6c1f8d13bbf917b182056d26c5638da9f78972874d1df3674db6a98e8dfb330feea7c92516c8 OP_CHECKSIG",
            "desc": "pk(04eabd9ba6566297a9b1f2276c87c802a67679562f1e20086a47de6c1f8d13bbf917b182056d26c5638da9f78972874d1df3674db6a98e8dfb330feea7c92516c8)#nu60swqv",
            "hex": "4104eabd9ba6566297a9b1f2276c87c802a67679562f1e20086a47de6c1f8d13bbf917b182056d26c5638da9f78972874d1df3674db6a98e8dfb330feea7c92516c8ac",
            "type": "pubkey"
          }
        }
      ],
      "hex": "01000000010000000000000000000000000000000000000000000000000000000000000000ffffffff0804ffff001d021307ffffffff0100f2052a01000000434104eabd9ba6566297a9b1f2276c87c802a67679562f1e20086a47de6c1f8d13bbf917b182056d26c5638da9f78972874d1df3674db6a98e8dfb330feea7c92516c8ac00000000"
    }
  ]
}