{
  "hash": "00000000b9f66944817ba67b775004d0db2b3590d2babdd53336e71dbc390f58",
  "confirmations": 52016,
  "height": 1082,
  "version": 1,
  "versionHex": "00000001",
  "merkleroot": "aee1252b01c496ea94bb1bca2b3909b49cba32af0794665a60513bb1d576a81d",
  "time": 1232410784,
  "mediantime": 1232406728,
  "nonce": 1063866377,
  "bits": "1d00ffff",
  "difficulty": 1,
  "chainwork": "0000000000000000000000000000000000000000000000000000043b043b043b",
  "nTx": 1,
  "previousblockhash": "00000000a748cbe2ec8fca05e61699e970173ab54dd13737a69a514fce64c3ee",
  "nextblockhash": "0000000080531d52d3c5d4b517a81ae1a10b958b93c0c17f10754da0c638e362",
  "strippedsize": 216,
  "size": 216,
  "weight": 864,
  "tx": [
    {
      "txid": "aee1252b01c496ea94bb1bca2b3909b49cba32af0794665a60513bb1d576a81d",
      "hash": "aee1252b01c496ea94bb1bca2b3909b49cba32af0794665a60513bb1d576a81d",
      "version": 1,
      "size": 135,
      "vsize": 135,
      "weight": 540,
      "locktime": 0,
      "vin": [
        {
          "coinbase": "04ffff001d02c606",
          "sequence": 4294967295
        }
      ],
      "vout": [
        {
          "value": 50.0,
          "n": 0,
          "scriptPubKey": {
            "asm": "04732da76333a2197e9455e3def8ae8cf8f05dfb07db003d104b0e19cc9e3165f5d80c206ee66adc7a292aadd5819a1892599ccf45be81c4dd0322799a437a6834 OP_CHECKSIG",
            "desc": "pk(04732da76333a2197e9455e3def8ae8cf8f05dfb07db003d104b0e19cc9e3165f5d80c206ee66adc7a292aadd5819a1892599ccf45be81c4dd0322799a437a6834)#jf3mp6kg",
            "hex": "4104732da76333a2197e9455e3def8ae8cf8f05dfb07db003d104b0e19cc9e3165f5d80c206ee66adc7a292aadd5819a1892599ccf45be81c4dd0322799a437a6834ac",
            "type": "pubkey"
          }
        }
      ],
      "hex": "01000000010000000000000000000000000000000000000000000000000000000000000000ffffffff0804ffff001d02c606ffffffff0100f2052a01000000434104732da76333a2197e9455e3def8ae8cf8f05dfb07db003d104b0e19cc9e3165f5d80c206ee66adc7a292aadd5819a1892599ccf45be81c4dd0322799a437a6834ac00000000"
    }
  ]
}