{
  "hash": "00000000960863ea6673e2849756218aa5a6a86af26d8992db5c4e83c7ec44da",
  "confirmations": 51019,
  "height": 2079,
  "version": 1,
  "versionHex": "00000001",
  "merkleroot": "5a31ff2cd98c2cb64c660a80aff2d10f062442d3b2a66d59c058af49ea0a02f7",
  "time": 1233122770,
  "mediantime": 1233118271,
  "nonce": 3502655496,
  "bits": "1d00ffff",
  "difficulty": 1,
  "chainwork": "0000000000000000000000000000000000000000000000000000082008200820",
  "nTx": 1,
  "previousblockhash": "00000000da22c6db7dc40587b7f964223547e5291ecaa63274ebff0fc1981e21",
  "nextblockhash": "0000000056776041ebdc54bb829a88d4d6915793be1f08be507c4f7bcaf186d9",
  "strippedsize": 216,
  "size": 216,
  "weight": 864,
  "tx": [
    {
      "txid": "5a31ff2cd98c2cb64c660a80aff2d10f062442d3b2a66d59c058af49ea0a02f7",
      "hash": "5a31ff2cd98c2cb64c660a80aff2d10f062442d3b2a66d59c058af49ea0a02f7",
      "version": 1,
      "size": 135,
      "vsize": 135,
      "weight": 540,
      "locktime": 0,
      "vin": [
        {
          "coinbase": "04ffff001d026203",
          "sequence": 4294967295
        }
      ],
      "vout": [
        {
          "value": 50.0,
          "n": 0,
          "scriptPubKey": {
            "asm": "043d3dec60e1bd4cfd3cbb55c548ebf167c126b6bc066848de9060216dbd84e7e39ed8a91a7abe39e0922dc5f273737b1a442a05d9de88b8c4dc3e72688b2ee3af OP_CHECKSIG",
            "desc": "pk(043d3dec60e1bd4cfd3cbb55c548ebf167c126b6bc066848de9060216dbd84e7e39ed8a91a7abe39e0922dc5f273737b1a442a05d9de88b8c4dc3e72688b2ee3af)#23pknuu4",
            "hex": "41043d3dec60e1bd4cfd3cbb55c548ebf167c126b6bc066848de9060216dbd84e7e39ed8a91a7abe39e0922dc5f273737b1a442a05d9de88b8c4dc3e72688b2ee3afac",
            "type": "pubkey"
          }
        }
      ],
      "hex": "01000000010000000000000000000000000000000000000000000000000000000000000000ffffffff0804ffff001d026203ffffffff0100f2052a010000004341043d3dec60e1bd4cfd3cbb55c548ebf167c126b6bc066848de9060216dbd84e7e39ed8a91a7abe39e0922dc5f273737b1a442a05d9de88b8c4dc3e72688b2ee3afac00000000"
    }
  ]
}