{
  "hash": "0000000060070572bf6b7516ab5d89dd50168ee7994d960057303e3bb838f08a",
  "confirmations": 52058,
  "height": 278,
  "version": 1,
  "versionHex": "00000001",
  "merkleroot": "004ed5d4e3dbb1100299798bac8be35aad6e67035b227fd913e963f4e08c7da4",
  "time": 1231815925,
  "mediantime": 1231811219,
  "nonce": 297380049,
  "bits": "1d00ffff",
  "difficulty": 1,
  "chainwork": "0000000000000000000000000000000000000000000000000000011701170117",
  "nTx": 1,
  "previousblockhash": "00000000cc3eeb36e3db7ce323b021abad084efdc7e4de0c5a652cc74ebe2b1d",
  "nextblockhash": "00000000509137829bac76e336618e21ab34d34f23d8b73c4699854bcc557afc",
  "strippedsize": 215,
  "size": 215,
  "weight": 860,
  "tx": [
    {
      "txid": "004ed5d4e3dbb1100299798bac8be35aad6e67035b227fd913e963f4e08c7da4",
      "hash": "004ed5d4e3dbb1100299798bac8be35aad6e67035b227fd913e963f4e08c7da4",
      "version": 1,
      "size": 134,
      "vsize": 134,
      "weight": 536,
      "locktime": 0,
      "vin": [
        {
          "coinbase": "04ffff001d0130",
          "sequence": 4294967295
        }
      ],
      "vout": [
        {
          "value": 50.0,
          "n": 0,
          "scriptPubKey": {
            "asm": "045f847011433af3535a35a9cd040fe999c4138897ed71cad0d20f9b1306610a14e6aafed07aed95f175ee3cbf8c346a74fc948df8f74eb31c8210c71c01841bd5 OP_CHECKSIG",
            "desc": "pk(045f847011433af3535a35a9cd040fe999c4138897ed71cad0d20f9b1306610a14e6aafed07aed95f175ee3cbf8c346a74fc948df8f74eb31c8210c71c01841bd5)#mz9pcdld",
            "hex": "41045f847011433af3535a35a9cd040fe999c4138897ed71cad0d20f9b1306610a14e6aafed07aed95f175ee3cbf8c346a74fc948df8f74eb31c8210c71c01841bd5ac",
            "type": "pubkey"
          }
        }
      ],
      "hex": "01000000010000000000000000000000000000000000000000000000000000000000000000ffffffff0704ffff001d0130ffffffff0100f2052a010000004341045f847011433af3535a35a9cd040fe999c4138897ed71cad0d20f9b1306610a14e6aafed07aed95f175ee3cbf8c346a74fc948df8f74eb31c8210c71c01841bd5ac00000000"
    }
  ]
}