{
  "hash": "000000004cd188af6ab641ec5260c83ff2007de7d512d3194ad97fb4f1fa7e40",
  "confirmations": 46442,
  "height": 6656,
  "version": 1,
  "versionHex": "00000001",
  "merkleroot": "55c9f1e5fd016545693f7849c06f71f65e8af06d0c792a2ecb66450367803d08",
  "time": 1236449027,
  "mediantime": 1236446330,
  "nonce": 19436882,
  "bits": "1d00ffff",
  "difficulty": 1,
  "chainwork": "00000000000000000000000000000000000000000000000000001a011a011a01",
  "nTx": 1,
  "previousblockhash": "0000000079789b316275f77063322d08b49a123eb48df39e3c2c9b56eff7e942",
  "nextblockhash": "00000000b60450f1bd7d033f185ec885eeb2c49624a09f2142567f3e3a18262e",
  "strippedsize": 216,
  "size": 216,
  "weight": 864,
  "tx": [
    {
      "txid": "55c9f1e5fd016545693f7849c06f71f65e8af06d0c792a2ecb66450367803d08",
      "hash": "55c9f1e5fd016545693f7849c06f71f65e8af06d0c792a2ecb66450367803d08",
      "version": 1,
      "size": 135,
      "vsize": 135,
      "weight": 540,
      "locktime": 0,
      "vin": [
        {
          "coinbase": "04ffff001d02f601",
          "sequence": 4294967295
        }
      ],
      "vout": [
        {
          "value": 50.0,
          "n": 0,
          "scriptPubKey": {
            "asm": "046cefbb705a494df8b7165d088927d4aa2a70e17efb7e70e5b3cea0785ac43877116ad0be999c1c73206da7725541d9eb17dab48ffc72b4bf8563b65cedbfe80e OP_CHECKSIG",
            "desc": "pk(046cefbb705a494df8b7165d088927d4aa2a70e17efb7e70e5b3cea0785ac43877116ad0be999c1c73206da7725541d9eb17dab48ffc72b4bf8563b65cedbfe80e)#xzxlupaz",
            "hex": "41046cefbb705a494df8b7165d088927d4aa2a70e17efb7e70e5b3cea0785ac43877116ad0be999c1c73206da7725541d9eb17dab48ffc72b4bf8563b65cedbfe80eac",
            "type": "pubkey"
          }
        }
      ],
      "hex": "01000000010000000000000000000000000000000000000000000000000000000000000000ffffffff0804ffff001d02f601ffffffff0100f2052a010000004341046cefbb705a494df8b7165d088927d4aa2a70e17efb7e70e5b3cea0785ac43877116ad0be999c1c73206da7725541d9eb17dab48ffc72b4bf8563b65cedbfe80eac00000000"
    }
  ]
}