{
  "hash": "00000000b120c7089c853f6d0091bd81bcf6051c5b84d32a30811e67e887ed0c",
  "confirmations": 45600,
  "height": 7498,
  "version": 1,
  "versionHex": "00000001",
  "merkleroot": "0904f5613b605a676ed103f9f6b73de89e97ef6ace458707619a451217c7ee07",
  "time": 1237096575,
  "mediantime": 1237092317,
  "nonce": 235835505,
  "bits": "1d00ffff",
  "difficulty": 1,
  "chainwork": "00000000000000000000000000000000000000000000000000001d4b1d4b1d4b",
  "nTx": 1,
  "previousblockhash": "000000003b1ad46bdd2e5e919236a34cca51b26eaccd62d2dacec9a2f20a2bf9",
  "nextblockhash": "00000000ced2bf7ecdc3e26897d412cd22cdf9d606369f19edc5317d2cade0ca",
  "strippedsize": 216,
  "size": 216,
  "weight": 864,
  "tx": [
    {
      "txid": "0904f5613b605a676ed103f9f6b73de89e97ef6ace458707619a451217c7ee07",
      "hash": "0904f5613b605a676ed103f9f6b73de89e97ef6ace458707619a451217c7ee07",
      "version": 1,
      "size": 135,
      "vsize": 135,
      "weight": 540,
      "locktime": 0,
      "vin": [
        {
          "coinbase": "04ffff001d02e802",
          "sequence": 4294967295
        }
      ],
      "vout": [
        {
          "value": 50.0,
          "n": 0,
          "scriptPubKey": {
            "asm": "04b8fdbd222a27b54b840de364ed0a0471e831ea22dfaa33785f36134ff920fcedc4346cda7296bfe479aa4b166fb51c11c413cf6a05832776243d2cc002b734cd OP_CHECKSIG",
            "desc": "pk(04b8fdbd222a27b54b840de364ed0a0471e831ea22dfaa33785f36134ff920fcedc4346cda7296bfe479aa4b166fb51c11c413cf6a05832776243d2cc002b734cd)#mjc0jk76",
            "hex": "4104b8fdbd222a27b54b840de364ed0a0471e831ea22dfaa33785f36134ff920fcedc4346cda7296bfe479aa4b166fb51c11c413cf6a05832776243d2cc002b734cdac",
            "type": "pubkey"
          }
        }
      ],
      "hex": "01000000010000000000000000000000000000000000000000000000000000000000000000ffffffff0804ffff001d02e802ffffffff0100f2052a01000000434104b8fdbd222a27b54b840de364ed0a0471e831ea22dfaa33785f36134ff920fcedc4346cda7296bfe479aa4b166fb51c11c413cf6a05832776243d2cc002b734cdac00000000"
    }
  ]
}