{
  "hash": "0000000009df023a09a3b21016a699f89925009e0b12cbf9a30146193c4d2cb7",
  "confirmations": 50492,
  "height": 2606,
  "version": 1,
  "versionHex": "00000001",
  "merkleroot": "5b0c2a692e9bc67a07e2a6a73532c591ab0689803f898092316a8fb9e05a7ccb",
  "time": 1233499099,
  "mediantime": 1233496260,
  "nonce": 1125335087,
  "bits": "1d00ffff",
  "difficulty": 1,
  "chainwork": "00000000000000000000000000000000000000000000000000000a2f0a2f0a2f",
  "nTx": 1,
  "previousblockhash": "000000006e323510e612c2ce2d70cf8a125828e48e9a23d7fb21764c2ac1c43d",
  "nextblockhash": "000000006bf9a1754e0f7c6e1be94734a29d9b476250f910f2c46538ccdf5a42",
  "strippedsize": 216,
  "size": 216,
  "weight": 864,
  "tx": [
    {
      "txid": "5b0c2a692e9bc67a07e2a6a73532c591ab0689803f898092316a8fb9e05a7ccb",
      "hash": "5b0c2a692e9bc67a07e2a6a73532c591ab0689803f898092316a8fb9e05a7ccb",
      "version": 1,
      "size": 135,
      "vsize": 135,
      "weight": 540,
      "locktime": 0,
      "vin": [
        {
          "coinbase": "04ffff001d022303",
          "sequence": 4294967295
        }
      ],
      "vout": [
        {
          "value": 50.0,
          "n": 0,
          "scriptPubKey": {
            "asm": "04f103bc2794e8c6f7a31cf9f27bef0a628efc4f94ce3df86f6e77027fbd07d4287ee1f62ab1e5e094e8e575207c93ba3ba2c5a7b50f457576b0e4820ae941c8f9 OP_CHECKSIG",
            "desc": "pk(04f103bc2794e8c6f7a31cf9f27bef0a628efc4f94ce3df86f6e77027fbd07d4287ee1f62ab1e5e094e8e575207c93ba3ba2c5a7b50f457576b0e4820ae941c8f9)#6zevnjm2",
            "hex": "4104f103bc2794e8c6f7a31cf9f27bef0a628efc4f94ce3df86f6e77027fbd07d4287ee1f62ab1e5e094e8e575207c93ba3ba2c5a7b50f457576b0e4820ae941c8f9ac",
            "type": "pubkey"
          }
        }
      ],
      "hex": "01000000010000000000000000000000000000000000000000000000000000000000000000ffffffff0804ffff001d022303ffffffff0100f2052a01000000434104f103bc2794e8c6f7a31cf9f27bef0a628efc4f94ce3df86f6e77027fbd07d4287ee1f62ab1e5e094e8e575207c93ba3ba2c5a7b50f457576b0e4820ae941c8f9ac00000000"
    }
  ]
}