{
  "hash": "000000004640dd3b6c10b78a610bdb58b7a37108a9b74c50d6440e2b64cb9b44",
  "confirmations": 45799,
  "height": 7299,
  "version": 1,
  "versionHex": "00000001",
  "merkleroot": "292cc8fa60a982b31d989c74c7eb835b66899a107e8bcf8b5228a5eccba11d3c",
  "time": 1236948700,
  "mediantime": 1236944258,
  "nonce": 170803006,
  "bits": "1d00ffff",
  "difficulty": 1,
  "chainwork": "00000000000000000000000000000000000000000000000000001c841c841c84",
  "nTx": 1,
  "previousblockhash": "0000000014e7358b03c1d8d38c74df6ae5bc635a1936ac2779c8e7bbc1260035",
  "nextblockhash": "0000000033ae4665f982447e4907d14478d018a37ad72ad9799cbde30a864410",
  "strippedsize": 215,
  "size": 215,
  "weight": 860,
  "tx": [
    {
      "txid": "292cc8fa60a982b31d989c74c7eb835b66899a107e8bcf8b5228a5eccba11d3c",
      "hash": "292cc8fa60a982b31d989c74c7eb835b66899a107e8bcf8b5228a5eccba11d3c",
      "version": 1,
      "size": 134,
      "vsize": 134,
      "weight": 536,
      "locktime": 0,
      "vin": [
        {
          "coinbase": "04ffff001d0124",
          "sequence": 4294967295
        }
      ],
      "vout": [
        {
          "value": 50.0,
          "n": 0,
          "scriptPubKey": {
            "asm": "045c3c97703d6c16180c5aaa56da44ac1fd306f2f7bb44ddc635230b1fff3aa7f8d4c0e9f7af8fd67367749ae437d7d1825d73492121ef5f9de2c2d40167dbea07 OP_CHECKSIG",
            "desc": "pk(045c3c97703d6c16180c5aaa56da44ac1fd306f2f7bb44ddc635230b1fff3aa7f8d4c0e9f7af8fd67367749ae437d7d1825d73492121ef5f9de2c2d40167dbea07)#s59pg23r",
            "hex": "41045c3c97703d6c16180c5aaa56da44ac1fd306f2f7bb44ddc635230b1fff3aa7f8d4c0e9f7af8fd67367749ae437d7d1825d73492121ef5f9de2c2d40167dbea07ac",
            "type": "pubkey"
          }
        }
      ],
      "hex": "01000000010000000000000000000000000000000000000000000000000000000000000000ffffffff0704ffff001d0124ffffffff0100f2052a010000004341045c3c97703d6c16180c5aaa56da44ac1fd306f2f7bb44ddc635230b1fff3aa7f8d4c0e9f7af8fd67367749ae437d7d1825d73492121ef5f9de2c2d40167dbea07ac00000000"
    }
  ]
}