{
  "hash": "000000002109057cb846ff7d1d96bc77f9f65cb547938efe1961760a8bbb3f75",
  "confirmations": 51981,
  "height": 103,
  "version": 1,
  "versionHex": "00000001",
  "merkleroot": "88d2a4e04a96b45e3ba04637098a92fd0786daf3fc8ff88314f8e739a9918bf3",
  "time": 1231663467,
  "mediantime": 1231659133,
  "nonce": 1334001941,
  "bits": "1d00ffff",
  "difficulty": 1,
  "chainwork": "0000000000000000000000000000000000000000000000000000006800680068",
  "nTx": 1,
  "previousblockhash": "000000001604181f13f19fd3cc89366ec95ce1dd64b776784ef8855210622f19",
  "nextblockhash": "00000000fb11ef25014e02b315285a22f80c8f97689d7e36d723317defaabe5b",
  "strippedsize": 215,
  "size": 215,
  "weight": 860,
  "tx": [
    {
      "txid": "88d2a4e04a96b45e3ba04637098a92fd0786daf3fc8ff88314f8e739a9918bf3",
      "hash": "88d2a4e04a96b45e3ba04637098a92fd0786daf3fc8ff88314f8e739a9918bf3",
      "version": 1,
      "size": 134,
      "vsize": 134,
      "weight": 536,
      "locktime": 0,
      "vin": [
        {
          "coinbase": "04ffff001d0155",
          "sequence": 4294967295
        }
      ],
      "vout": [
        {
          "value": 50.0,
          "n": 0,
          "scriptPubKey": {
            "asm": "044c77009fa2582cb0a28311edf08eb7e3e136e87ed1e6e9cd3a4f755094ca72a77580d9dd4804318201fbf74e34a11ff82eeceb7d4aa9da5b237ae27d08ec8741 OP_CHECKSIG",
            "desc": "pk(044c77009fa2582cb0a28311edf08eb7e3e136e87ed1e6e9cd3a4f755094ca72a77580d9dd4804318201fbf74e34a11ff82eeceb7d4aa9da5b237ae27d08ec8741)#99k3la45",
            "hex": "41044c77009fa2582cb0a28311edf08eb7e3e136e87ed1e6e9cd3a4f755094ca72a77580d9dd4804318201fbf74e34a11ff82eeceb7d4aa9da5b237ae27d08ec8741ac",
            "type": "pubkey"
          }
        }
      ],
      "hex": "01000000010000000000000000000000000000000000000000000000000000000000000000ffffffff0704ffff001d0155ffffffff0100f2052a010000004341044c77009fa2582cb0a28311edf08eb7e3e136e87ed1e6e9cd3a4f755094ca72a77580d9dd4804318201fbf74e34a11ff82eeceb7d4aa9da5b237ae27d08ec8741ac00000000"
    }
  ]
}