{
  "hash": "00000000dbf82ee2e246552dbd1595d345c8f1abc995d3f289a60d6e4ab851b0",
  "confirmations": 50251,
  "height": 2847,
  "version": 1,
  "versionHex": "00000001",
  "merkleroot": "4722d56553942f5e669588e26fb08f25865644dd24fbb4216fa0989fd5565e88",
  "time": 1233657223,
  "mediantime": 1233654999,
  "nonce": 1098422322,
  "bits": "1d00ffff",
  "difficulty": 1,
  "chainwork": "00000000000000000000000000000000000000000000000000000b200b200b20",
  "nTx": 1,
  "previousblockhash": "000000007b9f43b5e27860a43978f7fcba15828e2bec39588a55626982f458be",
  "nextblockhash": "00000000f7542ee63bae3104312e1e5569b7244fd7b3c0d9189df10964110956",
  "strippedsize": 216,
  "size": 216,
  "weight": 864,
  "tx": [
    {
      "txid": "4722d56553942f5e669588e26fb08f25865644dd24fbb4216fa0989fd5565e88",
      "hash": "4722d56553942f5e669588e26fb08f25865644dd24fbb4216fa0989fd5565e88",
      "version": 1,
      "size": 135,
      "vsize": 135,
      "weight": 540,
      "locktime": 0,
      "vin": [
        {
          "coinbase": "04ffff001d02c306",
          "sequence": 4294967295
        }
      ],
      "vout": [
        {
          "value": 50.0,
          "n": 0,
          "scriptPubKey": {
            "asm": "046870034cae29c2678f6260e755008da81c9e3421a02ad85d390b524cc3723109c83a6922708dde996015b840225af288a6a219cd7c3602788ea709afaf903678 OP_CHECKSIG",
            "desc": "pk(046870034cae29c2678f6260e755008da81c9e3421a02ad85d390b524cc3723109c83a6922708dde996015b840225af288a6a219cd7c3602788ea709afaf903678)#yhp5h2sl",
            "hex": "41046870034cae29c2678f6260e755008da81c9e3421a02ad85d390b524cc3723109c83a6922708dde996015b840225af288a6a219cd7c3602788ea709afaf903678ac",
            "type": "pubkey"
          }
        }
      ],
      "hex": "01000000010000000000000000000000000000000000000000000000000000000000000000ffffffff0804ffff001d02c306ffffffff0100f2052a010000004341046870034cae29c2678f6260e755008da81c9e3421a02ad85d390b524cc3723109c83a6922708dde996015b840225af288a6a219cd7c3602788ea709afaf903678ac00000000"
    }
  ]
}