{
  "hash": "00000000bc04ac00ee40d71ceff705a5e56f27e7c09c60320fba0c1da77f6c82",
  "confirmations": 50897,
  "height": 2201,
  "version": 1,
  "versionHex": "00000001",
  "merkleroot": "13dc37b74858e948021babaaf9efbd39807e3f3a3868cc8cca15fd827c8f8b6a",
  "time": 1233216865,
  "mediantime": 1233212106,
  "nonce": 1704903190,
  "bits": "1d00ffff",
  "difficulty": 1,
  "chainwork": "0000000000000000000000000000000000000000000000000000089a089a089a",
  "nTx": 1,
  "previousblockhash": "0000000070118b55e0436a721d4533fc3d09a0238f72a5380e8a694c9dbf948e",
  "nextblockhash": "000000001be95682d66918627de7fab580a6f07f286a72f9c9d365f0e8b325d3",
  "strippedsize": 215,
  "size": 215,
  "weight": 860,
  "tx": [
    {
      "txid": "13dc37b74858e948021babaaf9efbd39807e3f3a3868cc8cca15fd827c8f8b6a",
      "hash": "13dc37b74858e948021babaaf9efbd39807e3f3a3868cc8cca15fd827c8f8b6a",
      "version": 1,
      "size": 134,
      "vsize": 134,
      "weight": 536,
      "locktime": 0,
      "vin": [
        {
          "coinbase": "04ffff001d0163",
          "sequence": 4294967295
        }
      ],
      "vout": [
        {
          "value": 50.0,
          "n": 0,
          "scriptPubKey": {
            "asm": "041569f355eefedab8e901784fc053017becc4fa2a6ff8d5d4ec54e11252d6083ddaee571ed4cb9475c3f013ed49717089fb6233380c57dc680fbcd7ee372adc06 OP_CHECKSIG",
            "desc": "pk(041569f355eefedab8e901784fc053017becc4fa2a6ff8d5d4ec54e11252d6083ddaee571ed4cb9475c3f013ed49717089fb6233380c57dc680fbcd7ee372adc06)#dg2582pe",
            "hex": "41041569f355eefedab8e901784fc053017becc4fa2a6ff8d5d4ec54e11252d6083ddaee571ed4cb9475c3f013ed49717089fb6233380c57dc680fbcd7ee372adc06ac",
            "type": "pubkey"
          }
        }
      ],
      "hex": "01000000010000000000000000000000000000000000000000000000000000000000000000ffffffff0704ffff001d0163ffffffff0100f2052a010000004341041569f355eefedab8e901784fc053017becc4fa2a6ff8d5d4ec54e11252d6083ddaee571ed4cb9475c3f013ed49717089fb6233380c57dc680fbcd7ee372adc06ac00000000"
    }
  ]
}