{
  "hash": "0000000033a27c42a6d51c428de207c78007492be46d5488e636121e84161a18",
  "confirmations": 47851,
  "height": 5247,
  "version": 1,
  "versionHex": "00000001",
  "merkleroot": "022e9ee96077b3e1b5d771af082249c4363e2c7a0823f9761385d836b658a5ab",
  "time": 1235320389,
  "mediantime": 1235317022,
  "nonce": 2690571309,
  "bits": "1d00ffff",
  "difficulty": 1,
  "chainwork": "0000000000000000000000000000000000000000000000000000148014801480",
  "nTx": 1,
  "previousblockhash": "00000000fa31fc7699dfb3672a1cb0a97699724ee06e2b7910f5fd1fb2e61af2",
  "nextblockhash": "000000009244eec08194c796634983e141dfb91ec317bfe20823e322f8b53b85",
  "strippedsize": 216,
  "size": 216,
  "weight": 864,
  "tx": [
    {
      "txid": "022e9ee96077b3e1b5d771af082249c4363e2c7a0823f9761385d836b658a5ab",
      "hash": "022e9ee96077b3e1b5d771af082249c4363e2c7a0823f9761385d836b658a5ab",
      "version": 1,
      "size": 135,
      "vsize": 135,
      "weight": 540,
      "locktime": 0,
      "vin": [
        {
          "coinbase": "04ffff001d022601",
          "sequence": 4294967295
        }
      ],
      "vout": [
        {
          "value": 50.0,
          "n": 0,
          "scriptPubKey": {
            "asm": "049734159fcbdf2d52c86b2495764a1e33a86ff52883f8d52e39e795310674a9d8e447dbc765d13d439968a148ddb472e13f7dbc38001192d849f5852e46a2a71f OP_CHECKSIG",
            "desc": "pk(049734159fcbdf2d52c86b2495764a1e33a86ff52883f8d52e39e795310674a9d8e447dbc765d13d439968a148ddb472e13f7dbc38001192d849f5852e46a2a71f)#vsf3rxlt",
            "hex": "41049734159fcbdf2d52c86b2495764a1e33a86ff52883f8d52e39e795310674a9d8e447dbc765d13d439968a148ddb472e13f7dbc38001192d849f5852e46a2a71fac",
            "type": "pubkey"
          }
        }
      ],
      "hex": "01000000010000000000000000000000000000000000000000000000000000000000000000ffffffff0804ffff001d022601ffffffff0100f2052a010000004341049734159fcbdf2d52c86b2495764a1e33a86ff52883f8d52e39e795310674a9d8e447dbc765d13d439968a148ddb472e13f7dbc38001192d849f5852e46a2a71fac00000000"
    }
  ]
}