{
  "hash": "00000000bad3f4791d4984e041ec55acf6f7b38a63b220b33f703ec2f6af049a",
  "confirmations": 52050,
  "height": 286,
  "version": 1,
  "versionHex": "00000001",
  "merkleroot": "00ff9e64c9a2e7793e6f8c2b04072b4b22648cdedd46cd1c3ae3d6a23c8ec1eb",
  "time": 1231822498,
  "mediantime": 1231817659,
  "nonce": 1429335591,
  "bits": "1d00ffff",
  "difficulty": 1,
  "chainwork": "0000000000000000000000000000000000000000000000000000011f011f011f",
  "nTx": 1,
  "previousblockhash": "00000000afa4394f2bb4ee92d55fa857f7ade86c79257a89c33dba8c4a04006b",
  "nextblockhash": "0000000025f15576bf5734fa2e6b93a00593a969955f210aeae10c7f0733b81b",
  "strippedsize": 215,
  "size": 215,
  "weight": 860,
  "tx": [
    {
      "txid": "00ff9e64c9a2e7793e6f8c2b04072b4b22648cdedd46cd1c3ae3d6a23c8ec1eb",
      "hash": "00ff9e64c9a2e7793e6f8c2b04072b4b22648cdedd46cd1c3ae3d6a23c8ec1eb",
      "version": 1,
      "size": 134,
      "vsize": 134,
      "weight": 536,
      "locktime": 0,
      "vin": [
        {
          "coinbase": "04ffff001d0133",
          "sequence": 4294967295
        }
      ],
      "vout": [
        {
          "value": 50.0,
          "n": 0,
          "scriptPubKey": {
            "asm": "048b48e109f432a490522f8d0e9e833443809f65b8aa2558b94c1c15eb0fd3e24f32d58a088a2b0e5e694d05e7b981e5c9750827646eb81debc816c3c667eea5fd OP_CHECKSIG",
            "desc": "pk(048b48e109f432a490522f8d0e9e833443809f65b8aa2558b94c1c15eb0fd3e24f32d58a088a2b0e5e694d05e7b981e5c9750827646eb81debc816c3c667eea5fd)#ksmwnegm",
            "hex": "41048b48e109f432a490522f8d0e9e833443809f65b8aa2558b94c1c15eb0fd3e24f32d58a088a2b0e5e694d05e7b981e5c9750827646eb81debc816c3c667eea5fdac",
            "type": "pubkey"
          }
        }
      ],
      "hex": "01000000010000000000000000000000000000000000000000000000000000000000000000ffffffff0704ffff001d0133ffffffff0100f2052a010000004341048b48e109f432a490522f8d0e9e833443809f65b8aa2558b94c1c15eb0fd3e24f32d58a088a2b0e5e694d05e7b981e5c9750827646eb81debc816c3c667eea5fdac00000000"
    }
  ]
}