{
  "hash": "00000000df61052e8f43f94592ab2488a5221306f5c7db778694ebba62e1d23a",
  "confirmations": 46312,
  "height": 6786,
  "version": 1,
  "versionHex": "00000001",
  "merkleroot": "59741e8a4117ea3a74626eab1b4cc9d74f1f717939bea1edee49e7d2e1705841",
  "time": 1236549563,
  "mediantime": 1236545144,
  "nonce": 2465384228,
  "bits": "1d00ffff",
  "difficulty": 1,
  "chainwork": "00000000000000000000000000000000000000000000000000001a831a831a83",
  "nTx": 1,
  "previousblockhash": "000000003e9fd14891982889923642c92442f72a612c4f28cebf3fe91c27ca3e",
  "nextblockhash": "000000002211ae09d76131041ec98b6834e5ccac370b3ee1b773a571880fd62a",
  "strippedsize": 216,
  "size": 216,
  "weight": 864,
  "tx": [
    {
      "txid": "59741e8a4117ea3a74626eab1b4cc9d74f1f717939bea1edee49e7d2e1705841",
      "hash": "59741e8a4117ea3a74626eab1b4cc9d74f1f717939bea1edee49e7d2e1705841",
      "version": 1,
      "size": 135,
      "vsize": 135,
      "weight": 540,
      "locktime": 0,
      "vin": [
        {
          "coinbase": "04ffff001d02a408",
          "sequence": 4294967295
        }
      ],
      "vout": [
        {
          "value": 50.0,
          "n": 0,
          "scriptPubKey": {
            "asm": "04e84fcc4e77eaac2331419eb78c68c416c259895d0ef04f8c61dc821c8241deb5e5ac934c5afe95c507ed25fdfb55ecf37c65c72862dc4c9413b902c7177a1cf7 OP_CHECKSIG",
            "desc": "pk(04e84fcc4e77eaac2331419eb78c68c416c259895d0ef04f8c61dc821c8241deb5e5ac934c5afe95c507ed25fdfb55ecf37c65c72862dc4c9413b902c7177a1cf7)#k6zfk9ma",
            "hex": "4104e84fcc4e77eaac2331419eb78c68c416c259895d0ef04f8c61dc821c8241deb5e5ac934c5afe95c507ed25fdfb55ecf37c65c72862dc4c9413b902c7177a1cf7ac",
            "type": "pubkey"
          }
        }
      ],
      "hex": "01000000010000000000000000000000000000000000000000000000000000000000000000ffffffff0804ffff001d02a408ffffffff0100f2052a01000000434104e84fcc4e77eaac2331419eb78c68c416c259895d0ef04f8c61dc821c8241deb5e5ac934c5afe95c507ed25fdfb55ecf37c65c72862dc4c9413b902c7177a1cf7ac00000000"
    }
  ]
}