{
  "hash": "000000000ec68b31e49154680704cf194ed415a8d978343a19de657429de095d",
  "confirmations": 45598,
  "height": 7500,
  "version": 1,
  "versionHex": "00000001",
  "merkleroot": "df116e3fffbbafcbba5ea1af65a094ee1521be26790cc50f7f54f3de8c378c07",
  "time": 1237098418,
  "mediantime": 1237093357,
  "nonce": 2327771674,
  "bits": "1d00ffff",
  "difficulty": 1,
  "chainwork": "00000000000000000000000000000000000000000000000000001d4d1d4d1d4d",
  "nTx": 1,
  "previousblockhash": "00000000ced2bf7ecdc3e26897d412cd22cdf9d606369f19edc5317d2cade0ca",
  "nextblockhash": "000000009142a40196f95eb651fb96ab906f06fad66aafd95bef2e8c341fdf6d",
  "strippedsize": 216,
  "size": 216,
  "weight": 864,
  "tx": [
    {
      "txid": "df116e3fffbbafcbba5ea1af65a094ee1521be26790cc50f7f54f3de8c378c07",
      "hash": "df116e3fffbbafcbba5ea1af65a094ee1521be26790cc50f7f54f3de8c378c07",
      "version": 1,
      "size": 135,
      "vsize": 135,
      "weight": 540,
      "locktime": 0,
      "vin": [
        {
          "coinbase": "04ffff001d02f500",
          "sequence": 4294967295
        }
      ],
      "vout": [
        {
          "value": 50.0,
          "n": 0,
          "scriptPubKey": {
            "asm": "04fa392032e58a21bf6d249cec1c550a3ccdc7b0d6b890ee39f14df5faea5f52bfaada41d730a90af7aff7c27288b0ac384316865e3162863015e6bbdb635672fa OP_CHECKSIG",
            "desc": "pk(04fa392032e58a21bf6d249cec1c550a3ccdc7b0d6b890ee39f14df5faea5f52bfaada41d730a90af7aff7c27288b0ac384316865e3162863015e6bbdb635672fa)#9f6cu5d5",
            "hex": "4104fa392032e58a21bf6d249cec1c550a3ccdc7b0d6b890ee39f14df5faea5f52bfaada41d730a90af7aff7c27288b0ac384316865e3162863015e6bbdb635672faac",
            "type": "pubkey"
          }
        }
      ],
      "hex": "01000000010000000000000000000000000000000000000000000000000000000000000000ffffffff0804ffff001d02f500ffffffff0100f2052a01000000434104fa392032e58a21bf6d249cec1c550a3ccdc7b0d6b890ee39f14df5faea5f52bfaada41d730a90af7aff7c27288b0ac384316865e3162863015e6bbdb635672faac00000000"
    }
  ]
}