{
  "hash": "00000000f4fb71fb3305ff0116389654d24876cc1e03a6a7e9eedd42b4fb5793",
  "confirmations": 48504,
  "height": 4594,
  "version": 1,
  "versionHex": "00000001",
  "merkleroot": "e736f1bc3a63b1585e0a38392fc5871ecfb1cd45596839148d90ded21332ccee",
  "time": 1234849736,
  "mediantime": 1234846853,
  "nonce": 3433566748,
  "bits": "1d00ffff",
  "difficulty": 1,
  "chainwork": "000000000000000000000000000000000000000000000000000011f311f311f3",
  "nTx": 1,
  "previousblockhash": "00000000c0bf5474dd50104e073ebc5c131b4b13c7c9cd9a02fd5a70f028b2f0",
  "nextblockhash": "00000000fe5e7891b571115b1744ee8697014ff8ca6f2f8a5ff5ca99c90b3815",
  "strippedsize": 216,
  "size": 216,
  "weight": 864,
  "tx": [
    {
      "txid": "e736f1bc3a63b1585e0a38392fc5871ecfb1cd45596839148d90ded21332ccee",
      "hash": "e736f1bc3a63b1585e0a38392fc5871ecfb1cd45596839148d90ded21332ccee",
      "version": 1,
      "size": 135,
      "vsize": 135,
      "weight": 540,
      "locktime": 0,
      "vin": [
        {
          "coinbase": "04ffff001d02cb00",
          "sequence": 4294967295
        }
      ],
      "vout": [
        {
          "value": 50.0,
          "n": 0,
          "scriptPubKey": {
            "asm": "042ee4975c381ecd02e8488aa79123eccc83a5f3f5252642ffa7d8549a4d39709d3921da48084df3a5dfb38f6922df8b9b880efddf2707b5b678fc2e1f35961b19 OP_CHECKSIG",
            "desc": "pk(042ee4975c381ecd02e8488aa79123eccc83a5f3f5252642ffa7d8549a4d39709d3921da48084df3a5dfb38f6922df8b9b880efddf2707b5b678fc2e1f35961b19)#jyxl0cp0",
            "hex": "41042ee4975c381ecd02e8488aa79123eccc83a5f3f5252642ffa7d8549a4d39709d3921da48084df3a5dfb38f6922df8b9b880efddf2707b5b678fc2e1f35961b19ac",
            "type": "pubkey"
          }
        }
      ],
      "hex": "01000000010000000000000000000000000000000000000000000000000000000000000000ffffffff0804ffff001d02cb00ffffffff0100f2052a010000004341042ee4975c381ecd02e8488aa79123eccc83a5f3f5252642ffa7d8549a4d39709d3921da48084df3a5dfb38f6922df8b9b880efddf2707b5b678fc2e1f35961b19ac00000000"
    }
  ]
}