{
  "hash": "00000000be1365422b3f7768205f27ffdb4e06170f4c8e6034e0c0927b45b486",
  "confirmations": 51494,
  "height": 1604,
  "version": 1,
  "versionHex": "00000001",
  "merkleroot": "6d968c7b32997d03832f6345c35ab8e30f6c76a0bc57a832d0b7df78e7f14275",
  "time": 1232812933,
  "mediantime": 1232811054,
  "nonce": 2390306587,
  "bits": "1d00ffff",
  "difficulty": 1,
  "chainwork": "0000000000000000000000000000000000000000000000000000064506450645",
  "nTx": 1,
  "previousblockhash": "000000008bd209f87895553ebb1b97ec5fec8082f14492566c343a9b61ecdc8c",
  "nextblockhash": "00000000ba96f7cee624d66be83099df295a1daac50dd99e4315328aa7d43e77",
  "strippedsize": 216,
  "size": 216,
  "weight": 864,
  "tx": [
    {
      "txid": "6d968c7b32997d03832f6345c35ab8e30f6c76a0bc57a832d0b7df78e7f14275",
      "hash": "6d968c7b32997d03832f6345c35ab8e30f6c76a0bc57a832d0b7df78e7f14275",
      "version": 1,
      "size": 135,
      "vsize": 135,
      "weight": 540,
      "locktime": 0,
      "vin": [
        {
          "coinbase": "04ffff001d022002",
          "sequence": 4294967295
        }
      ],
      "vout": [
        {
          "value": 50.0,
          "n": 0,
          "scriptPubKey": {
            "asm": "041d552aed6992d3ce632c7f84a9ca10ba31884962130d530c72ea268b8800516d6f5d6595f9c31c21abdd29968df6d3b326fcd5348478ec355ff66350fcdb55ff OP_CHECKSIG",
            "desc": "pk(041d552aed6992d3ce632c7f84a9ca10ba31884962130d530c72ea268b8800516d6f5d6595f9c31c21abdd29968df6d3b326fcd5348478ec355ff66350fcdb55ff)#tcqq78ql",
            "hex": "41041d552aed6992d3ce632c7f84a9ca10ba31884962130d530c72ea268b8800516d6f5d6595f9c31c21abdd29968df6d3b326fcd5348478ec355ff66350fcdb55ffac",
            "type": "pubkey"
          }
        }
      ],
      "hex": "01000000010000000000000000000000000000000000000000000000000000000000000000ffffffff0804ffff001d022002ffffffff0100f2052a010000004341041d552aed6992d3ce632c7f84a9ca10ba31884962130d530c72ea268b8800516d6f5d6595f9c31c21abdd29968df6d3b326fcd5348478ec355ff66350fcdb55ffac00000000"
    }
  ]
}