{
  "hash": "0000000009b35360c2046d14e4d5972fc1c41bc2c67f963bbb3497623c15f651",
  "confirmations": 51309,
  "height": 1789,
  "version": 1,
  "versionHex": "00000001",
  "merkleroot": "96be72888a40d78b2f7c3cd05736c2139d10976c30c2ff1e0ed7b19521fb6308",
  "time": 1232892359,
  "mediantime": 1232889706,
  "nonce": 2059557176,
  "bits": "1d00ffff",
  "difficulty": 1,
  "chainwork": "000000000000000000000000000000000000000000000000000006fe06fe06fe",
  "nTx": 1,
  "previousblockhash": "00000000435237ec511b7921fbacd58e6362586ee6ed114525873e156bebe671",
  "nextblockhash": "000000008d1094720ae4f22693d7b4226f581ca03a2295dde57bc242a264fe4b",
  "strippedsize": 216,
  "size": 216,
  "weight": 864,
  "tx": [
    {
      "txid": "96be72888a40d78b2f7c3cd05736c2139d10976c30c2ff1e0ed7b19521fb6308",
      "hash": "96be72888a40d78b2f7c3cd05736c2139d10976c30c2ff1e0ed7b19521fb6308",
      "version": 1,
      "size": 135,
      "vsize": 135,
      "weight": 540,
      "locktime": 0,
      "vin": [
        {
          "coinbase": "04ffff001d02d703",
          "sequence": 4294967295
        }
      ],
      "vout": [
        {
          "value": 50.0,
          "n": 0,
          "scriptPubKey": {
            "asm": "049c5f0eb8cda51b67667d7b8b326597e9c18092bd3eb7940c9a2578e1f4209e51c51983b8825aa98b8b00f012adea9c6bee6d0b9b0849d678731112ce55f735f9 OP_CHECKSIG",
            "desc": "pk(049c5f0eb8cda51b67667d7b8b326597e9c18092bd3eb7940c9a2578e1f4209e51c51983b8825aa98b8b00f012adea9c6bee6d0b9b0849d678731112ce55f735f9)#kx457jrh",
            "hex": "41049c5f0eb8cda51b67667d7b8b326597e9c18092bd3eb7940c9a2578e1f4209e51c51983b8825aa98b8b00f012adea9c6bee6d0b9b0849d678731112ce55f735f9ac",
            "type": "pubkey"
          }
        }
      ],
      "hex": "01000000010000000000000000000000000000000000000000000000000000000000000000ffffffff0804ffff001d02d703ffffffff0100f2052a010000004341049c5f0eb8cda51b67667d7b8b326597e9c18092bd3eb7940c9a2578e1f4209e51c51983b8825aa98b8b00f012adea9c6bee6d0b9b0849d678731112ce55f735f9ac00000000"
    }
  ]
}