{
  "hash": "000000003ef1a1b4c1ca5887c90ac1a0d44584e4373f92aa7eddb52a5a582014",
  "confirmations": 43162,
  "height": 9936,
  "version": 1,
  "versionHex": "00000001",
  "merkleroot": "7559aa36cc68b56e389d5d6552633adebe3c8735c06b5fffd26121217928c4f9",
  "time": 1238945548,
  "mediantime": 1238942712,
  "nonce": 711220535,
  "bits": "1d00ffff",
  "difficulty": 1,
  "chainwork": "000000000000000000000000000000000000000000000000000026d126d126d1",
  "nTx": 1,
  "previousblockhash": "0000000034c59968f1bb96647eb16e741d0112c6894c22d9702423250f5ca846",
  "nextblockhash": "0000000037859d141f0e4f14daa08f1d4c0f1c8754adf01908ad14ae239437fe",
  "strippedsize": 216,
  "size": 216,
  "weight": 864,
  "tx": [
    {
      "txid": "7559aa36cc68b56e389d5d6552633adebe3c8735c06b5fffd26121217928c4f9",
      "hash": "7559aa36cc68b56e389d5d6552633adebe3c8735c06b5fffd26121217928c4f9",
      "version": 1,
      "size": 135,
      "vsize": 135,
      "weight": 540,
      "locktime": 0,
      "vin": [
        {
          "coinbase": "04ffff001d028e02",
          "sequence": 4294967295
        }
      ],
      "vout": [
        {
          "value": 50.0,
          "n": 0,
          "scriptPubKey": {
            "asm": "04008edf9e15899b616ca0b51c9b02f129648187ac973e19a6ca60259c50670e2e51e1c3827c33defcaab07e745925f1f7ee429077cf42598085fb4271350b05fc OP_CHECKSIG",
            "desc": "pk(04008edf9e15899b616ca0b51c9b02f129648187ac973e19a6ca60259c50670e2e51e1c3827c33defcaab07e745925f1f7ee429077cf42598085fb4271350b05fc)#8za6h4zm",
            "hex": "4104008edf9e15899b616ca0b51c9b02f129648187ac973e19a6ca60259c50670e2e51e1c3827c33defcaab07e745925f1f7ee429077cf42598085fb4271350b05fcac",
            "type": "pubkey"
          }
        }
      ],
      "hex": "01000000010000000000000000000000000000000000000000000000000000000000000000ffffffff0804ffff001d028e02ffffffff0100f2052a01000000434104008edf9e15899b616ca0b51c9b02f129648187ac973e19a6ca60259c50670e2e51e1c3827c33defcaab07e745925f1f7ee429077cf42598085fb4271350b05fcac00000000"
    }
  ]
}