{
  "hash": "000000006d1fa3ca766ef9fc18a563e2b54de10954ebac43714877d061fbe778",
  "confirmations": 48262,
  "height": 4836,
  "version": 1,
  "versionHex": "00000001",
  "merkleroot": "affcd6b69b8df3a5755418f05d5c9ed99f382294ebeee24a7719d24cde970efb",
  "time": 1235025546,
  "mediantime": 1235019776,
  "nonce": 4281172737,
  "bits": "1d00ffff",
  "difficulty": 1,
  "chainwork": "000000000000000000000000000000000000000000000000000012e512e512e5",
  "nTx": 1,
  "previousblockhash": "000000002c322bef45528e67aac4e4b790d8f9dae02edee3cbbde042cc2d0f5f",
  "nextblockhash": "0000000059741366a15a6a72686abe949aeda79bcfbad732088a04c31c34d81e",
  "strippedsize": 216,
  "size": 216,
  "weight": 864,
  "tx": [
    {
      "txid": "affcd6b69b8df3a5755418f05d5c9ed99f382294ebeee24a7719d24cde970efb",
      "hash": "affcd6b69b8df3a5755418f05d5c9ed99f382294ebeee24a7719d24cde970efb",
      "version": 1,
      "size": 135,
      "vsize": 135,
      "weight": 540,
      "locktime": 0,
      "vin": [
        {
          "coinbase": "04ffff001d02e404",
          "sequence": 4294967295
        }
      ],
      "vout": [
        {
          "value": 50.0,
          "n": 0,
          "scriptPubKey": {
            "asm": "0454ed7e671e7f065985e24ca15aa686280febd822f2dd88ec2de61934245e6f8b3d61c0f30aa6c2ac6cb5a4b10802b27135bc4dc1fb535647eaef17ac2f9a5567 OP_CHECKSIG",
            "desc": "pk(0454ed7e671e7f065985e24ca15aa686280febd822f2dd88ec2de61934245e6f8b3d61c0f30aa6c2ac6cb5a4b10802b27135bc4dc1fb535647eaef17ac2f9a5567)#cyx3wydw",
            "hex": "410454ed7e671e7f065985e24ca15aa686280febd822f2dd88ec2de61934245e6f8b3d61c0f30aa6c2ac6cb5a4b10802b27135bc4dc1fb535647eaef17ac2f9a5567ac",
            "type": "pubkey"
          }
        }
      ],
      "hex": "01000000010000000000000000000000000000000000000000000000000000000000000000ffffffff0804ffff001d02e404ffffffff0100f2052a0100000043410454ed7e671e7f065985e24ca15aa686280febd822f2dd88ec2de61934245e6f8b3d61c0f30aa6c2ac6cb5a4b10802b27135bc4dc1fb535647eaef17ac2f9a5567ac00000000"
    }
  ]
}