{
  "hash": "00000000f3aa1ae6488992a477c94fff9401abdf4be1545fdc004a29569e3e8f",
  "confirmations": 46488,
  "height": 6610,
  "version": 1,
  "versionHex": "00000001",
  "merkleroot": "670900d97b912a7cb651e8005a9be7518431b5b8b6436c8a14effbda477ff32e",
  "time": 1236412283,
  "mediantime": 1236409547,
  "nonce": 23785936,
  "bits": "1d00ffff",
  "difficulty": 1,
  "chainwork": "000000000000000000000000000000000000000000000000000019d319d319d3",
  "nTx": 1,
  "previousblockhash": "0000000058fdb956a96a2b83168e70fb7e48be905765c3bd6dd9ec1de620f65e",
  "nextblockhash": "00000000b02741de5b68e95239d6a183befe737cc32b271b1aca9d11d931b6af",
  "strippedsize": 216,
  "size": 216,
  "weight": 864,
  "tx": [
    {
      "txid": "670900d97b912a7cb651e8005a9be7518431b5b8b6436c8a14effbda477ff32e",
      "hash": "670900d97b912a7cb651e8005a9be7518431b5b8b6436c8a14effbda477ff32e",
      "version": 1,
      "size": 135,
      "vsize": 135,
      "weight": 540,
      "locktime": 0,
      "vin": [
        {
          "coinbase": "04ffff001d022001",
          "sequence": 4294967295
        }
      ],
      "vout": [
        {
          "value": 50.0,
          "n": 0,
          "scriptPubKey": {
            "asm": "04ba44eb63bd045fc77fb9e9202450cafed491c5e2e2bb7b665a56417216f0bc0f0879451402106aa5d62754e03b597037640405964a51201069444054701ea42c OP_CHECKSIG",
            "desc": "pk(04ba44eb63bd045fc77fb9e9202450cafed491c5e2e2bb7b665a56417216f0bc0f0879451402106aa5d62754e03b597037640405964a51201069444054701ea42c)#vcyn08wl",
            "hex": "4104ba44eb63bd045fc77fb9e9202450cafed491c5e2e2bb7b665a56417216f0bc0f0879451402106aa5d62754e03b597037640405964a51201069444054701ea42cac",
            "type": "pubkey"
          }
        }
      ],
      "hex": "01000000010000000000000000000000000000000000000000000000000000000000000000ffffffff0804ffff001d022001ffffffff0100f2052a01000000434104ba44eb63bd045fc77fb9e9202450cafed491c5e2e2bb7b665a56417216f0bc0f0879451402106aa5d62754e03b597037640405964a51201069444054701ea42cac00000000"
    }
  ]
}