{
  "hash": "00000000d464ed4937d46a928f991fb80a807b8a7fd3ac641d7db2edda27d197",
  "confirmations": 51952,
  "height": 1146,
  "version": 1,
  "versionHex": "00000001",
  "merkleroot": "4e80faf4182129d2f97141868594048c9487bb4e49eeb6eda04c73fe07654860",
  "time": 1232456479,
  "mediantime": 1232453184,
  "nonce": 2364652041,
  "bits": "1d00ffff",
  "difficulty": 1,
  "chainwork": "0000000000000000000000000000000000000000000000000000047b047b047b",
  "nTx": 1,
  "previousblockhash": "0000000077e87b894506363f643f8cba6ea01438107e8925042c357b4f0a6c62",
  "nextblockhash": "000000006490882d27c8666a6b72b4955d96e1664ff68de4631220e53c390238",
  "strippedsize": 216,
  "size": 216,
  "weight": 864,
  "tx": [
    {
      "txid": "4e80faf4182129d2f97141868594048c9487bb4e49eeb6eda04c73fe07654860",
      "hash": "4e80faf4182129d2f97141868594048c9487bb4e49eeb6eda04c73fe07654860",
      "version": 1,
      "size": 135,
      "vsize": 135,
      "weight": 540,
      "locktime": 0,
      "vin": [
        {
          "coinbase": "04ffff001d02bf07",
          "sequence": 4294967295
        }
      ],
      "vout": [
        {
          "value": 50.0,
          "n": 0,
          "scriptPubKey": {
            "asm": "0470d5dd2aad5ff996df84778964ce8f85a5b3c20d5c9fc5e3ae1fe753c8e8621100930abd03d0eb861cdf0022bb010e17ce2f7951fd8d74c74d62077a98c1d971 OP_CHECKSIG",
            "desc": "pk(0470d5dd2aad5ff996df84778964ce8f85a5b3c20d5c9fc5e3ae1fe753c8e8621100930abd03d0eb861cdf0022bb010e17ce2f7951fd8d74c74d62077a98c1d971)#0quu2e4a",
            "hex": "410470d5dd2aad5ff996df84778964ce8f85a5b3c20d5c9fc5e3ae1fe753c8e8621100930abd03d0eb861cdf0022bb010e17ce2f7951fd8d74c74d62077a98c1d971ac",
            "type": "pubkey"
          }
        }
      ],
      "hex": "01000000010000000000000000000000000000000000000000000000000000000000000000ffffffff0804ffff001d02bf07ffffffff0100f2052a0100000043410470d5dd2aad5ff996df84778964ce8f85a5b3c20d5c9fc5e3ae1fe753c8e8621100930abd03d0eb861cdf0022bb010e17ce2f7951fd8d74c74d62077a98c1d971ac00000000"
    }
  ]
}