{
  "hash": "00000000d8738058a2623a01712488226f7c2c0f0465b3083ce4f78d42c79635",
  "confirmations": 47480,
  "height": 5618,
  "version": 1,
  "versionHex": "00000001",
  "merkleroot": "884e39e5cd9de3237f93ff9d809eb960447ba8fdb0c1f57c1468b70f352c75a6",
  "time": 1235619134,
  "mediantime": 1235614683,
  "nonce": 1129598757,
  "bits": "1d00ffff",
  "difficulty": 1,
  "chainwork": "000000000000000000000000000000000000000000000000000015f315f315f3",
  "nTx": 1,
  "previousblockhash": "00000000a8d5375fff46726718088c99c77b2ef912fd35db2eb0181a7e2bbc25",
  "nextblockhash": "0000000039f2ad51345de657e8ff16d1d961d7446ee4db55dc9ccf56dfc7f2ff",
  "strippedsize": 216,
  "size": 216,
  "weight": 864,
  "tx": [
    {
      "txid": "884e39e5cd9de3237f93ff9d809eb960447ba8fdb0c1f57c1468b70f352c75a6",
      "hash": "884e39e5cd9de3237f93ff9d809eb960447ba8fdb0c1f57c1468b70f352c75a6",
      "version": 1,
      "size": 135,
      "vsize": 135,
      "weight": 540,
      "locktime": 0,
      "vin": [
        {
          "coinbase": "04ffff001d020e08",
          "sequence": 4294967295
        }
      ],
      "vout": [
        {
          "value": 50.0,
          "n": 0,
          "scriptPubKey": {
            "asm": "04650b12e81d072552552eb35a1accd697421ec466377b1ad0727902bd1aad10a7b9904f9f353cc00cf410e11f472c524867efd9d160b456d2e13ae77c1093ec0b OP_CHECKSIG",
            "desc": "pk(04650b12e81d072552552eb35a1accd697421ec466377b1ad0727902bd1aad10a7b9904f9f353cc00cf410e11f472c524867efd9d160b456d2e13ae77c1093ec0b)#94am4emn",
            "hex": "4104650b12e81d072552552eb35a1accd697421ec466377b1ad0727902bd1aad10a7b9904f9f353cc00cf410e11f472c524867efd9d160b456d2e13ae77c1093ec0bac",
            "type": "pubkey"
          }
        }
      ],
      "hex": "01000000010000000000000000000000000000000000000000000000000000000000000000ffffffff0804ffff001d020e08ffffffff0100f2052a01000000434104650b12e81d072552552eb35a1accd697421ec466377b1ad0727902bd1aad10a7b9904f9f353cc00cf410e11f472c524867efd9d160b456d2e13ae77c1093ec0bac00000000"
    }
  ]
}