{
  "hash": "000000003da58e69eb89e6454a6cb044a8a968fd5f5298b81ecc8ac6614273cf",
  "confirmations": 47349,
  "height": 5749,
  "version": 1,
  "versionHex": "00000001",
  "merkleroot": "d5a447a5c33cbb1bca32af4355a132bc417e165bab840a077b707259bcd3ffa6",
  "time": 1235722810,
  "mediantime": 1235716549,
  "nonce": 599961603,
  "bits": "1d00ffff",
  "difficulty": 1,
  "chainwork": "0000000000000000000000000000000000000000000000000000167616761676",
  "nTx": 1,
  "previousblockhash": "00000000f8c7ad93594450f5986dc7d42e0498466ed09c5948bb90312a206495",
  "nextblockhash": "000000009d9315e82b2936d2a1a2909cd396ada2e25559e9b849963a6caadf4d",
  "strippedsize": 215,
  "size": 215,
  "weight": 860,
  "tx": [
    {
      "txid": "d5a447a5c33cbb1bca32af4355a132bc417e165bab840a077b707259bcd3ffa6",
      "hash": "d5a447a5c33cbb1bca32af4355a132bc417e165bab840a077b707259bcd3ffa6",
      "version": 1,
      "size": 134,
      "vsize": 134,
      "weight": 536,
      "locktime": 0,
      "vin": [
        {
          "coinbase": "04ffff001d0109",
          "sequence": 4294967295
        }
      ],
      "vout": [
        {
          "value": 50.0,
          "n": 0,
          "scriptPubKey": {
            "asm": "047db6a05201eb576823f4b9fa9301461c7d0845cfad2c4899a468acae7ca193e56d4197808a3b48d4cb951a7852713cf639549188aaa5db30d2266fea5c9d8d32 OP_CHECKSIG",
            "desc": "pk(047db6a05201eb576823f4b9fa9301461c7d0845cfad2c4899a468acae7ca193e56d4197808a3b48d4cb951a7852713cf639549188aaa5db30d2266fea5c9d8d32)#uacg3j5z",
            "hex": "41047db6a05201eb576823f4b9fa9301461c7d0845cfad2c4899a468acae7ca193e56d4197808a3b48d4cb951a7852713cf639549188aaa5db30d2266fea5c9d8d32ac",
            "type": "pubkey"
          }
        }
      ],
      "hex": "01000000010000000000000000000000000000000000000000000000000000000000000000ffffffff0704ffff001d0109ffffffff0100f2052a010000004341047db6a05201eb576823f4b9fa9301461c7d0845cfad2c4899a468acae7ca193e56d4197808a3b48d4cb951a7852713cf639549188aaa5db30d2266fea5c9d8d32ac00000000"
    }
  ]
}