{
  "hash": "000000005cb309641e02e6b67486b16629472723b9230ceef9b042a5994cacad",
  "confirmations": 45063,
  "height": 8035,
  "version": 1,
  "versionHex": "00000001",
  "merkleroot": "fd89b23c0b349bafedf69d413823b93f93e9c0fe008255fca8a034c69a1cf92d",
  "time": 1237488527,
  "mediantime": 1237484890,
  "nonce": 3373317913,
  "bits": "1d00ffff",
  "difficulty": 1,
  "chainwork": "00000000000000000000000000000000000000000000000000001f641f641f64",
  "nTx": 1,
  "previousblockhash": "00000000fecaf179143840799eb36d8ca15d3250dcfa615eb87c40927c4dd38d",
  "nextblockhash": "00000000b673799a339623c2c04cc9ed5feac0a1280925e2ff3ed759eefa3330",
  "strippedsize": 216,
  "size": 216,
  "weight": 864,
  "tx": [
    {
      "txid": "fd89b23c0b349bafedf69d413823b93f93e9c0fe008255fca8a034c69a1cf92d",
      "hash": "fd89b23c0b349bafedf69d413823b93f93e9c0fe008255fca8a034c69a1cf92d",
      "version": 1,
      "size": 135,
      "vsize": 135,
      "weight": 540,
      "locktime": 0,
      "vin": [
        {
          "coinbase": "04ffff001d02010a",
          "sequence": 4294967295
        }
      ],
      "vout": [
        {
          "value": 50.0,
          "n": 0,
          "scriptPubKey": {
            "asm": "043c455cc095ac655b7f15db31be32dbd8fb02e67bbbd9193dc55ad90c2402cb975555a1dac7938ddfa554c19ce39d0f3e67533c851560215f48202a99cfc34bb3 OP_CHECKSIG",
            "desc": "pk(043c455cc095ac655b7f15db31be32dbd8fb02e67bbbd9193dc55ad90c2402cb975555a1dac7938ddfa554c19ce39d0f3e67533c851560215f48202a99cfc34bb3)#dnrj0vsq",
            "hex": "41043c455cc095ac655b7f15db31be32dbd8fb02e67bbbd9193dc55ad90c2402cb975555a1dac7938ddfa554c19ce39d0f3e67533c851560215f48202a99cfc34bb3ac",
            "type": "pubkey"
          }
        }
      ],
      "hex": "01000000010000000000000000000000000000000000000000000000000000000000000000ffffffff0804ffff001d02010affffffff0100f2052a010000004341043c455cc095ac655b7f15db31be32dbd8fb02e67bbbd9193dc55ad90c2402cb975555a1dac7938ddfa554c19ce39d0f3e67533c851560215f48202a99cfc34bb3ac00000000"
    }
  ]
}