{
  "hash": "00000000a8df943d013f398fc2fd56a2b3b6407140a8bfc0988d7d590cb6c8b9",
  "confirmations": 48920,
  "height": 4178,
  "version": 1,
  "versionHex": "00000001",
  "merkleroot": "3e03c1c980d7227a797cee267397153675dfc9f5a43ebb8a46a9037b78c7d71e",
  "time": 1234567429,
  "mediantime": 1234562775,
  "nonce": 4145597718,
  "bits": "1d00ffff",
  "difficulty": 1,
  "chainwork": "0000000000000000000000000000000000000000000000000000105310531053",
  "nTx": 1,
  "previousblockhash": "00000000370c26dec84bb83ccb816be1bdf6708f1a321ade1817f0aceb452d89",
  "nextblockhash": "0000000002d74bbf295f514e83b467ca512a1eaf5e4bb82380b42b20cb5e2dcd",
  "strippedsize": 216,
  "size": 216,
  "weight": 864,
  "tx": [
    {
      "txid": "3e03c1c980d7227a797cee267397153675dfc9f5a43ebb8a46a9037b78c7d71e",
      "hash": "3e03c1c980d7227a797cee267397153675dfc9f5a43ebb8a46a9037b78c7d71e",
      "version": 1,
      "size": 135,
      "vsize": 135,
      "weight": 540,
      "locktime": 0,
      "vin": [
        {
          "coinbase": "04ffff001d02de06",
          "sequence": 4294967295
        }
      ],
      "vout": [
        {
          "value": 50.0,
          "n": 0,
          "scriptPubKey": {
            "asm": "04987966c343041c9021a88996fd6fa5dc5a7736e63acfe7aaceed69d3ec8fb0464560ef85f0a9b2b086869fcebf445ff9fa91e11d1515d84b5b27023a05ca86b4 OP_CHECKSIG",
            "desc": "pk(04987966c343041c9021a88996fd6fa5dc5a7736e63acfe7aaceed69d3ec8fb0464560ef85f0a9b2b086869fcebf445ff9fa91e11d1515d84b5b27023a05ca86b4)#5uwa03wu",
            "hex": "4104987966c343041c9021a88996fd6fa5dc5a7736e63acfe7aaceed69d3ec8fb0464560ef85f0a9b2b086869fcebf445ff9fa91e11d1515d84b5b27023a05ca86b4ac",
            "type": "pubkey"
          }
        }
      ],
      "hex": "01000000010000000000000000000000000000000000000000000000000000000000000000ffffffff0804ffff001d02de06ffffffff0100f2052a01000000434104987966c343041c9021a88996fd6fa5dc5a7736e63acfe7aaceed69d3ec8fb0464560ef85f0a9b2b086869fcebf445ff9fa91e11d1515d84b5b27023a05ca86b4ac00000000"
    }
  ]
}