{
  "hash": "00000000096a6e5a2cf06d4bcd1402b8e49db28f8ebd5f0ba31b9b54d9f7000a",
  "confirmations": 43395,
  "height": 9703,
  "version": 1,
  "versionHex": "00000001",
  "merkleroot": "8f9d63433c709de22b8fde93e1ef5f43181c26acd1f3902e590f12212b6e8935",
  "time": 1238779413,
  "mediantime": 1238776423,
  "nonce": 2448628023,
  "bits": "1d00ffff",
  "difficulty": 1,
  "chainwork": "000000000000000000000000000000000000000000000000000025e825e825e8",
  "nTx": 1,
  "previousblockhash": "000000005c11d302080373491238d82117b63ba1e2a5d5f2934b8d1b0c8ff89f",
  "nextblockhash": "00000000aa339ed7cfa279eb35e8ef16fee4f9f328c088f15d648d7ac4ed0a7e",
  "strippedsize": 216,
  "size": 216,
  "weight": 864,
  "tx": [
    {
      "txid": "8f9d63433c709de22b8fde93e1ef5f43181c26acd1f3902e590f12212b6e8935",
      "hash": "8f9d63433c709de22b8fde93e1ef5f43181c26acd1f3902e590f12212b6e8935",
      "version": 1,
      "size": 135,
      "vsize": 135,
      "weight": 540,
      "locktime": 0,
      "vin": [
        {
          "coinbase": "04ffff001d027608",
          "sequence": 4294967295
        }
      ],
      "vout": [
        {
          "value": 50.0,
          "n": 0,
          "scriptPubKey": {
            "asm": "04a7e8e5502923c91fa468a9af6bc0f74a1e5130a849fcf35c20bd9c2e34dbdad852d0fffd0d76c2991952c4b07377d9e6889828284582f33b9b5ffd457a699edb OP_CHECKSIG",
            "desc": "pk(04a7e8e5502923c91fa468a9af6bc0f74a1e5130a849fcf35c20bd9c2e34dbdad852d0fffd0d76c2991952c4b07377d9e6889828284582f33b9b5ffd457a699edb)#c9nd2ksd",
            "hex": "4104a7e8e5502923c91fa468a9af6bc0f74a1e5130a849fcf35c20bd9c2e34dbdad852d0fffd0d76c2991952c4b07377d9e6889828284582f33b9b5ffd457a699edbac",
            "type": "pubkey"
          }
        }
      ],
      "hex": "01000000010000000000000000000000000000000000000000000000000000000000000000ffffffff0804ffff001d027608ffffffff0100f2052a01000000434104a7e8e5502923c91fa468a9af6bc0f74a1e5130a849fcf35c20bd9c2e34dbdad852d0fffd0d76c2991952c4b07377d9e6889828284582f33b9b5ffd457a699edbac00000000"
    }
  ]
}