{
  "hash": "0000000013e04165771b8944c41e88935c7b25222af1c6e9115dd33a6f16f8c3",
  "confirmations": 49951,
  "height": 3147,
  "version": 1,
  "versionHex": "00000001",
  "merkleroot": "a7afcec49bd742de6bdb3a3399b3d08eb80f1d4ff24c53681628850bc6370d52",
  "time": 1233865495,
  "mediantime": 1233862631,
  "nonce": 20709594,
  "bits": "1d00ffff",
  "difficulty": 1,
  "chainwork": "00000000000000000000000000000000000000000000000000000c4c0c4c0c4c",
  "nTx": 1,
  "previousblockhash": "000000008c49fe2a8cb83021565d77846d9e5776c0a492c1189b580fab7f3b2f",
  "nextblockhash": "00000000f6e878a39c360be327ee5409f547f317d3a6fada92923ecdbeac5e6c",
  "strippedsize": 215,
  "size": 215,
  "weight": 860,
  "tx": [
    {
      "txid": "a7afcec49bd742de6bdb3a3399b3d08eb80f1d4ff24c53681628850bc6370d52",
      "hash": "a7afcec49bd742de6bdb3a3399b3d08eb80f1d4ff24c53681628850bc6370d52",
      "version": 1,
      "size": 134,
      "vsize": 134,
      "weight": 536,
      "locktime": 0,
      "vin": [
        {
          "coinbase": "04ffff001d012a",
          "sequence": 4294967295
        }
      ],
      "vout": [
        {
          "value": 50.0,
          "n": 0,
          "scriptPubKey": {
            "asm": "04e5b067a2ae7acd58ccdfa17a6f04388ddec299bf15cc7ebf19c2d8cbe80cc29f7441573f9a2243cb436a083a79550d89325eff5766541e1f9fcf87fed4dc8d69 OP_CHECKSIG",
            "desc": "pk(04e5b067a2ae7acd58ccdfa17a6f04388ddec299bf15cc7ebf19c2d8cbe80cc29f7441573f9a2243cb436a083a79550d89325eff5766541e1f9fcf87fed4dc8d69)#wlpwsdmh",
            "hex": "4104e5b067a2ae7acd58ccdfa17a6f04388ddec299bf15cc7ebf19c2d8cbe80cc29f7441573f9a2243cb436a083a79550d89325eff5766541e1f9fcf87fed4dc8d69ac",
            "type": "pubkey"
          }
        }
      ],
      "hex": "01000000010000000000000000000000000000000000000000000000000000000000000000ffffffff0704ffff001d012affffffff0100f2052a01000000434104e5b067a2ae7acd58ccdfa17a6f04388ddec299bf15cc7ebf19c2d8cbe80cc29f7441573f9a2243cb436a083a79550d89325eff5766541e1f9fcf87fed4dc8d69ac00000000"
    }
  ]
}