{
  "hash": "000000009f72207cffa94789713facfc7eb8c8527b131973db9b38ceaadaa6b2",
  "confirmations": 47921,
  "height": 5177,
  "version": 1,
  "versionHex": "00000001",
  "merkleroot": "871a4e9e8ca04033fb09494f43d20046933570a8950a6c53f18fc336761a5850",
  "time": 1235271178,
  "mediantime": 1235267380,
  "nonce": 2768655894,
  "bits": "1d00ffff",
  "difficulty": 1,
  "chainwork": "0000000000000000000000000000000000000000000000000000143a143a143a",
  "nTx": 1,
  "previousblockhash": "00000000c57da0f07304c040f3d65dc34533b4ade850beaf053ae567f73c954b",
  "nextblockhash": "0000000079991e4f34d867e6fbc96e94397bfe08b1d6acbcb5d631f63765cab2",
  "strippedsize": 215,
  "size": 215,
  "weight": 860,
  "tx": [
    {
      "txid": "871a4e9e8ca04033fb09494f43d20046933570a8950a6c53f18fc336761a5850",
      "hash": "871a4e9e8ca04033fb09494f43d20046933570a8950a6c53f18fc336761a5850",
      "version": 1,
      "size": 134,
      "vsize": 134,
      "weight": 536,
      "locktime": 0,
      "vin": [
        {
          "coinbase": "04ffff001d0112",
          "sequence": 4294967295
        }
      ],
      "vout": [
        {
          "value": 50.0,
          "n": 0,
          "scriptPubKey": {
            "asm": "04da8040f3d8b4d8ec985c1c30fa6f575de27ad99677977366c0ab2ea042a756096d34ac475932767bc45ccccdae697db26722c77872ca772f447c5982ea88514f OP_CHECKSIG",
            "desc": "pk(04da8040f3d8b4d8ec985c1c30fa6f575de27ad99677977366c0ab2ea042a756096d34ac475932767bc45ccccdae697db26722c77872ca772f447c5982ea88514f)#aycpefe9",
            "hex": "4104da8040f3d8b4d8ec985c1c30fa6f575de27ad99677977366c0ab2ea042a756096d34ac475932767bc45ccccdae697db26722c77872ca772f447c5982ea88514fac",
            "type": "pubkey"
          }
        }
      ],
      "hex": "01000000010000000000000000000000000000000000000000000000000000000000000000ffffffff0704ffff001d0112ffffffff0100f2052a01000000434104da8040f3d8b4d8ec985c1c30fa6f575de27ad99677977366c0ab2ea042a756096d34ac475932767bc45ccccdae697db26722c77872ca772f447c5982ea88514fac00000000"
    }
  ]
}