{
  "hash": "000000006e323510e612c2ce2d70cf8a125828e48e9a23d7fb21764c2ac1c43d",
  "confirmations": 50493,
  "height": 2605,
  "version": 1,
  "versionHex": "00000001",
  "merkleroot": "4a4818e32032d058e5684aad6314a1620ef5fb6e2fcc63629ef2c326151e23ea",
  "time": 1233498453,
  "mediantime": 1233495650,
  "nonce": 2652266772,
  "bits": "1d00ffff",
  "difficulty": 1,
  "chainwork": "00000000000000000000000000000000000000000000000000000a2e0a2e0a2e",
  "nTx": 1,
  "previousblockhash": "00000000759140a9f5354dd25da52a259d390227c701483695a6872ac8f92b32",
  "nextblockhash": "0000000009df023a09a3b21016a699f89925009e0b12cbf9a30146193c4d2cb7",
  "strippedsize": 216,
  "size": 216,
  "weight": 864,
  "tx": [
    {
      "txid": "4a4818e32032d058e5684aad6314a1620ef5fb6e2fcc63629ef2c326151e23ea",
      "hash": "4a4818e32032d058e5684aad6314a1620ef5fb6e2fcc63629ef2c326151e23ea",
      "version": 1,
      "size": 135,
      "vsize": 135,
      "weight": 540,
      "locktime": 0,
      "vin": [
        {
          "coinbase": "04ffff001d021c03",
          "sequence": 4294967295
        }
      ],
      "vout": [
        {
          "value": 50.0,
          "n": 0,
          "scriptPubKey": {
            "asm": "04b83631116b605fb01dcab51c1054ad529fbf4dcb5d0ca0fcca233b047fc9e770fb71ad4a38d2d0abed134108a7eab503a21647dbd95e7a1ead52ec40ac7fa935 OP_CHECKSIG",
            "desc": "pk(04b83631116b605fb01dcab51c1054ad529fbf4dcb5d0ca0fcca233b047fc9e770fb71ad4a38d2d0abed134108a7eab503a21647dbd95e7a1ead52ec40ac7fa935)#y0dm6plw",
            "hex": "4104b83631116b605fb01dcab51c1054ad529fbf4dcb5d0ca0fcca233b047fc9e770fb71ad4a38d2d0abed134108a7eab503a21647dbd95e7a1ead52ec40ac7fa935ac",
            "type": "pubkey"
          }
        }
      ],
      "hex": "01000000010000000000000000000000000000000000000000000000000000000000000000ffffffff0804ffff001d021c03ffffffff0100f2052a01000000434104b83631116b605fb01dcab51c1054ad529fbf4dcb5d0ca0fcca233b047fc9e770fb71ad4a38d2d0abed134108a7eab503a21647dbd95e7a1ead52ec40ac7fa935ac00000000"
    }
  ]
}