{
  "hash": "000000001b5ebb8e71cc48a0950bbba9cf94758ebb2e3eb52b5c04c9dfa496fa",
  "confirmations": 50969,
  "height": 2129,
  "version": 1,
  "versionHex": "00000001",
  "merkleroot": "dbc32197cccf9c2e16add485d64c5ccb73b5161d0aeb461d64613b36107c714c",
  "time": 1233158639,
  "mediantime": 1233154299,
  "nonce": 2317186076,
  "bits": "1d00ffff",
  "difficulty": 1,
  "chainwork": "0000000000000000000000000000000000000000000000000000085208520852",
  "nTx": 1,
  "previousblockhash": "00000000a86c9b8c3b5dc9f22798f26bcec6f88e12d6393f4d5c52dce1d2108d",
  "nextblockhash": "000000007f4aa391140e70d0fcd35399fb6fb327ebe838cb22c72de3aee8fe7d",
  "strippedsize": 215,
  "size": 215,
  "weight": 860,
  "tx": [
    {
      "txid": "dbc32197cccf9c2e16add485d64c5ccb73b5161d0aeb461d64613b36107c714c",
      "hash": "dbc32197cccf9c2e16add485d64c5ccb73b5161d0aeb461d64613b36107c714c",
      "version": 1,
      "size": 134,
      "vsize": 134,
      "weight": 536,
      "locktime": 0,
      "vin": [
        {
          "coinbase": "04ffff001d0112",
          "sequence": 4294967295
        }
      ],
      "vout": [
        {
          "value": 50.0,
          "n": 0,
          "scriptPubKey": {
            "asm": "049eee6f1b7fa30478f9640703259ca2ff21dd5f72917fc65756182d397e06965d4b8b715692e7678517427b0b5c0387fefcc8b1703275bbdc01120ec744af475a OP_CHECKSIG",
            "desc": "pk(049eee6f1b7fa30478f9640703259ca2ff21dd5f72917fc65756182d397e06965d4b8b715692e7678517427b0b5c0387fefcc8b1703275bbdc01120ec744af475a)#77ndavvx",
            "hex": "41049eee6f1b7fa30478f9640703259ca2ff21dd5f72917fc65756182d397e06965d4b8b715692e7678517427b0b5c0387fefcc8b1703275bbdc01120ec744af475aac",
            "type": "pubkey"
          }
        }
      ],
      "hex": "01000000010000000000000000000000000000000000000000000000000000000000000000ffffffff0704ffff001d0112ffffffff0100f2052a010000004341049eee6f1b7fa30478f9640703259ca2ff21dd5f72917fc65756182d397e06965d4b8b715692e7678517427b0b5c0387fefcc8b1703275bbdc01120ec744af475aac00000000"
    }
  ]
}