{
  "hash": "00000000beb2d3ca0b4e46a1fa2b2ed679f4bd4b4d36603ea4a7fb8fbf07cc67",
  "confirmations": 50372,
  "height": 2726,
  "version": 1,
  "versionHex": "00000001",
  "merkleroot": "27300eb3d05237f5edd9adbf9e0bbb8e3d972004dcf49d1c2e74d6b637c9dae7",
  "time": 1233582135,
  "mediantime": 1233577502,
  "nonce": 1754829077,
  "bits": "1d00ffff",
  "difficulty": 1,
  "chainwork": "00000000000000000000000000000000000000000000000000000aa70aa70aa7",
  "nTx": 1,
  "previousblockhash": "000000009c8b925bf3883d823c47602f4e304ea665c7dfda9cbc9e7b550f5965",
  "nextblockhash": "00000000dc9149f7231f7295c4045ddf952c6424575afbb8dd07c5e7f0d0567d",
  "strippedsize": 216,
  "size": 216,
  "weight": 864,
  "tx": [
    {
      "txid": "27300eb3d05237f5edd9adbf9e0bbb8e3d972004dcf49d1c2e74d6b637c9dae7",
      "hash": "27300eb3d05237f5edd9adbf9e0bbb8e3d972004dcf49d1c2e74d6b637c9dae7",
      "version": 1,
      "size": 135,
      "vsize": 135,
      "weight": 540,
      "locktime": 0,
      "vin": [
        {
          "coinbase": "04ffff001d022005",
          "sequence": 4294967295
        }
      ],
      "vout": [
        {
          "value": 50.0,
          "n": 0,
          "scriptPubKey": {
            "asm": "04a826b5abc341f4145a0112d73f03dff0b51f0a9ff8a22bf9fd98852c9c50c09efe4eeae526fcaf2cb5c4f7242ad9167f16ec1619f32fac55e8e6b2f4601d83e0 OP_CHECKSIG",
            "desc": "pk(04a826b5abc341f4145a0112d73f03dff0b51f0a9ff8a22bf9fd98852c9c50c09efe4eeae526fcaf2cb5c4f7242ad9167f16ec1619f32fac55e8e6b2f4601d83e0)#ntc65uw7",
            "hex": "4104a826b5abc341f4145a0112d73f03dff0b51f0a9ff8a22bf9fd98852c9c50c09efe4eeae526fcaf2cb5c4f7242ad9167f16ec1619f32fac55e8e6b2f4601d83e0ac",
            "type": "pubkey"
          }
        }
      ],
      "hex": "01000000010000000000000000000000000000000000000000000000000000000000000000ffffffff0804ffff001d022005ffffffff0100f2052a01000000434104a826b5abc341f4145a0112d73f03dff0b51f0a9ff8a22bf9fd98852c9c50c09efe4eeae526fcaf2cb5c4f7242ad9167f16ec1619f32fac55e8e6b2f4601d83e0ac00000000"
    }
  ]
}