{
  "hash": "0000000008e4138ffcfef67b05bfb3d91a3bb6c9b82eff62db0a20fcd34d28f7",
  "confirmations": 47459,
  "height": 5639,
  "version": 1,
  "versionHex": "00000001",
  "merkleroot": "c2fac5bbb5ef76424a8d6405d40730d5fd6be7a7ab82b7df4d7147b5baf00508",
  "time": 1235636915,
  "mediantime": 1235634560,
  "nonce": 3987423278,
  "bits": "1d00ffff",
  "difficulty": 1,
  "chainwork": "0000000000000000000000000000000000000000000000000000160816081608",
  "nTx": 1,
  "previousblockhash": "00000000685c9967b0f497a1358d5116131cdaac75d859a91aaa39baded2772f",
  "nextblockhash": "0000000037b32f32b177ea8d09746c5b05c60005bfcc84c78ca8fb22c5269c10",
  "strippedsize": 216,
  "size": 216,
  "weight": 864,
  "tx": [
    {
      "txid": "c2fac5bbb5ef76424a8d6405d40730d5fd6be7a7ab82b7df4d7147b5baf00508",
      "hash": "c2fac5bbb5ef76424a8d6405d40730d5fd6be7a7ab82b7df4d7147b5baf00508",
      "version": 1,
      "size": 135,
      "vsize": 135,
      "weight": 540,
      "locktime": 0,
      "vin": [
        {
          "coinbase": "04ffff001d026e08",
          "sequence": 4294967295
        }
      ],
      "vout": [
        {
          "value": 50.0,
          "n": 0,
          "scriptPubKey": {
            "asm": "04e9aad7cfb9e53dbe4188a831935f7a45b7df994b3e3cb57efd7ce338989cb6fe63b0d0671d87a3584027351da70a6e42145e301a63e3c791e79c676708809bea OP_CHECKSIG",
            "desc": "pk(04e9aad7cfb9e53dbe4188a831935f7a45b7df994b3e3cb57efd7ce338989cb6fe63b0d0671d87a3584027351da70a6e42145e301a63e3c791e79c676708809bea)#4wu0k2zs",
            "hex": "4104e9aad7cfb9e53dbe4188a831935f7a45b7df994b3e3cb57efd7ce338989cb6fe63b0d0671d87a3584027351da70a6e42145e301a63e3c791e79c676708809beaac",
            "type": "pubkey"
          }
        }
      ],
      "hex": "01000000010000000000000000000000000000000000000000000000000000000000000000ffffffff0804ffff001d026e08ffffffff0100f2052a01000000434104e9aad7cfb9e53dbe4188a831935f7a45b7df994b3e3cb57efd7ce338989cb6fe63b0d0671d87a3584027351da70a6e42145e301a63e3c791e79c676708809beaac00000000"
    }
  ]
}