{
  "hash": "00000000e9470e3bcf702822ecee32a6f686f0dac42b5dcfc4a3b1feffce6128",
  "confirmations": 51683,
  "height": 1415,
  "version": 1,
  "versionHex": "00000001",
  "merkleroot": "e0a5e764f0073226ce21f97a1a57bc6dbfca98c94b122b3452a080e0b0e98594",
  "time": 1232731481,
  "mediantime": 1232729603,
  "nonce": 988454658,
  "bits": "1d00ffff",
  "difficulty": 1,
  "chainwork": "0000000000000000000000000000000000000000000000000000058805880588",
  "nTx": 1,
  "previousblockhash": "000000004d6162db48e96c60539ee73637524ad11e0b401c6bd327a13e3ab865",
  "nextblockhash": "00000000a55bd68777b9412975ad67eaccf5d37259c182a2d7e15aa37a7816b3",
  "strippedsize": 215,
  "size": 215,
  "weight": 860,
  "tx": [
    {
      "txid": "e0a5e764f0073226ce21f97a1a57bc6dbfca98c94b122b3452a080e0b0e98594",
      "hash": "e0a5e764f0073226ce21f97a1a57bc6dbfca98c94b122b3452a080e0b0e98594",
      "version": 1,
      "size": 134,
      "vsize": 134,
      "weight": 536,
      "locktime": 0,
      "vin": [
        {
          "coinbase": "04ffff001d0153",
          "sequence": 4294967295
        }
      ],
      "vout": [
        {
          "value": 50.0,
          "n": 0,
          "scriptPubKey": {
            "asm": "04d8442264ea705bcf3d1e039b8ee707d18dac81f16bca01c8c2dd1c61b16d05a5627446ec07ae02e807e595d688b6457ae2fdd1389b4aa5c11dd50b53de71ef15 OP_CHECKSIG",
            "desc": "pk(04d8442264ea705bcf3d1e039b8ee707d18dac81f16bca01c8c2dd1c61b16d05a5627446ec07ae02e807e595d688b6457ae2fdd1389b4aa5c11dd50b53de71ef15)#7gusnh7v",
            "hex": "4104d8442264ea705bcf3d1e039b8ee707d18dac81f16bca01c8c2dd1c61b16d05a5627446ec07ae02e807e595d688b6457ae2fdd1389b4aa5c11dd50b53de71ef15ac",
            "type": "pubkey"
          }
        }
      ],
      "hex": "01000000010000000000000000000000000000000000000000000000000000000000000000ffffffff0704ffff001d0153ffffffff0100f2052a01000000434104d8442264ea705bcf3d1e039b8ee707d18dac81f16bca01c8c2dd1c61b16d05a5627446ec07ae02e807e595d688b6457ae2fdd1389b4aa5c11dd50b53de71ef15ac00000000"
    }
  ]
}