{
  "hash": "0000000042fe934de30881dcecc5af1c80b5a083030e37d71806e7fc1e8ca02a",
  "confirmations": 51891,
  "height": 62,
  "version": 1,
  "versionHex": "00000001",
  "merkleroot": "701ce76c033e0b03fa79503770a5874840373e30cd9c1eca472ec66617f3a3ee",
  "time": 1231623224,
  "mediantime": 1231619676,
  "nonce": 1810780677,
  "bits": "1d00ffff",
  "difficulty": 1,
  "chainwork": "0000000000000000000000000000000000000000000000000000003f003f003f",
  "nTx": 1,
  "previousblockhash": "000000002973d6cb9371b8db0fe6a16a98dfac07c0aa9207c1cfc967b35290c4",
  "nextblockhash": "00000000ebff91c88984bff39511f544a1c4ef6ec4f33e2ea531e47c2685628e",
  "strippedsize": 216,
  "size": 216,
  "weight": 864,
  "tx": [
    {
      "txid": "701ce76c033e0b03fa79503770a5874840373e30cd9c1eca472ec66617f3a3ee",
      "hash": "701ce76c033e0b03fa79503770a5874840373e30cd9c1eca472ec66617f3a3ee",
      "version": 1,
      "size": 135,
      "vsize": 135,
      "weight": 540,
      "locktime": 0,
      "vin": [
        {
          "coinbase": "04ffff001d029400",
          "sequence": 4294967295
        }
      ],
      "vout": [
        {
          "value": 50.0,
          "n": 0,
          "scriptPubKey": {
            "asm": "043fcbb41d06811e2df06c70dbf78e63c6a4404c28a0c990a837ee54f6c09fe259182f4d18233399262a640ac8c2f8b58b354bcf57ea7bb2dfb6261ceb8ca908fc OP_CHECKSIG",
            "desc": "pk(043fcbb41d06811e2df06c70dbf78e63c6a4404c28a0c990a837ee54f6c09fe259182f4d18233399262a640ac8c2f8b58b354bcf57ea7bb2dfb6261ceb8ca908fc)#8gqr4v7y",
            "hex": "41043fcbb41d06811e2df06c70dbf78e63c6a4404c28a0c990a837ee54f6c09fe259182f4d18233399262a640ac8c2f8b58b354bcf57ea7bb2dfb6261ceb8ca908fcac",
            "type": "pubkey"
          }
        }
      ],
      "hex": "01000000010000000000000000000000000000000000000000000000000000000000000000ffffffff0804ffff001d029400ffffffff0100f2052a010000004341043fcbb41d06811e2df06c70dbf78e63c6a4404c28a0c990a837ee54f6c09fe259182f4d18233399262a640ac8c2f8b58b354bcf57ea7bb2dfb6261ceb8ca908fcac00000000"
    }
  ]
}