{
  "hash": "00000000e31ced05b5d4f71c2737c5d4f4d82b2ed193782faedfbde84eb90d24",
  "confirmations": 43384,
  "height": 9714,
  "version": 1,
  "versionHex": "00000001",
  "merkleroot": "5b08cf67150ca68ce62a0fa51178a3a1fbe7c1ce1ee3b9cb2f4a4ad466e354e3",
  "time": 1238788679,
  "mediantime": 1238784365,
  "nonce": 113986070,
  "bits": "1d00ffff",
  "difficulty": 1,
  "chainwork": "000000000000000000000000000000000000000000000000000025f325f325f3",
  "nTx": 1,
  "previousblockhash": "0000000007518e9929094ae88ae6787c0576f87806dee2a849d192e718fccf3d",
  "nextblockhash": "000000006e1805bc1ea01c633ee6eb4b3773618822569c342306b253f2b0b99f",
  "strippedsize": 216,
  "size": 216,
  "weight": 864,
  "tx": [
    {
      "txid": "5b08cf67150ca68ce62a0fa51178a3a1fbe7c1ce1ee3b9cb2f4a4ad466e354e3",
      "hash": "5b08cf67150ca68ce62a0fa51178a3a1fbe7c1ce1ee3b9cb2f4a4ad466e354e3",
      "version": 1,
      "size": 135,
      "vsize": 135,
      "weight": 540,
      "locktime": 0,
      "vin": [
        {
          "coinbase": "04ffff001d02c600",
          "sequence": 4294967295
        }
      ],
      "vout": [
        {
          "value": 50.0,
          "n": 0,
          "scriptPubKey": {
            "asm": "04515e5c950fc9608bef955edf2712047008c98231ce244586ae7a39470b44be2aafa8ed1a0295dc73c497f85e52023d524615c4024576484c4f75b76e79d925c9 OP_CHECKSIG",
            "desc": "pk(04515e5c950fc9608bef955edf2712047008c98231ce244586ae7a39470b44be2aafa8ed1a0295dc73c497f85e52023d524615c4024576484c4f75b76e79d925c9)#c770ecxn",
            "hex": "4104515e5c950fc9608bef955edf2712047008c98231ce244586ae7a39470b44be2aafa8ed1a0295dc73c497f85e52023d524615c4024576484c4f75b76e79d925c9ac",
            "type": "pubkey"
          }
        }
      ],
      "hex": "01000000010000000000000000000000000000000000000000000000000000000000000000ffffffff0804ffff001d02c600ffffffff0100f2052a01000000434104515e5c950fc9608bef955edf2712047008c98231ce244586ae7a39470b44be2aafa8ed1a0295dc73c497f85e52023d524615c4024576484c4f75b76e79d925c9ac00000000"
    }
  ]
}