{
  "hash": "0000000052bdd6f8ba3d5612fdd8301802b3241cb0140109e5c8b81d99d0a5a6",
  "confirmations": 47858,
  "height": 5240,
  "version": 1,
  "versionHex": "00000001",
  "merkleroot": "66b7892c6b6d314a9a70cecdfa46253b3770bab9c26bbe44737f75f9a6f23a12",
  "time": 1235315745,
  "mediantime": 1235312383,
  "nonce": 148999583,
  "bits": "1d00ffff",
  "difficulty": 1,
  "chainwork": "0000000000000000000000000000000000000000000000000000147914791479",
  "nTx": 1,
  "previousblockhash": "0000000041c1fc4c6b7a54a72c248e136633dd158e2504ec768c0520435aac60",
  "nextblockhash": "00000000870e5a1ab7db09b09b8657da6e938b6871456f12a1dc8ba87bcf7324",
  "strippedsize": 215,
  "size": 215,
  "weight": 860,
  "tx": [
    {
      "txid": "66b7892c6b6d314a9a70cecdfa46253b3770bab9c26bbe44737f75f9a6f23a12",
      "hash": "66b7892c6b6d314a9a70cecdfa46253b3770bab9c26bbe44737f75f9a6f23a12",
      "version": 1,
      "size": 134,
      "vsize": 134,
      "weight": 536,
      "locktime": 0,
      "vin": [
        {
          "coinbase": "04ffff001d0117",
          "sequence": 4294967295
        }
      ],
      "vout": [
        {
          "value": 50.0,
          "n": 0,
          "scriptPubKey": {
            "asm": "04558903493d65b75fe9e1106d24dd98a5cce05380171f5a433ae935a16e906de13b6a26e28782f37535e712f44e286a73174a1264cb8b51a69154f689fb2beae6 OP_CHECKSIG",
            "desc": "pk(04558903493d65b75fe9e1106d24dd98a5cce05380171f5a433ae935a16e906de13b6a26e28782f37535e712f44e286a73174a1264cb8b51a69154f689fb2beae6)#82lme48l",
            "hex": "4104558903493d65b75fe9e1106d24dd98a5cce05380171f5a433ae935a16e906de13b6a26e28782f37535e712f44e286a73174a1264cb8b51a69154f689fb2beae6ac",
            "type": "pubkey"
          }
        }
      ],
      "hex": "01000000010000000000000000000000000000000000000000000000000000000000000000ffffffff0704ffff001d0117ffffffff0100f2052a01000000434104558903493d65b75fe9e1106d24dd98a5cce05380171f5a433ae935a16e906de13b6a26e28782f37535e712f44e286a73174a1264cb8b51a69154f689fb2beae6ac00000000"
    }
  ]
}