{
  "hash": "00000000ce58ddb0014222910ec24be4ce393d4319b58ccf1ea02c74891e8c58",
  "confirmations": 46874,
  "height": 6224,
  "version": 1,
  "versionHex": "00000001",
  "merkleroot": "0e3ed841ab972997412467843041651e02c62175ed46c78292b4cd5b8b3278bc",
  "time": 1236110973,
  "mediantime": 1236106666,
  "nonce": 668550400,
  "bits": "1d00ffff",
  "difficulty": 1,
  "chainwork": "0000000000000000000000000000000000000000000000000000185118511851",
  "nTx": 1,
  "previousblockhash": "0000000005e8f18e86f55c587101ea0234542e505c81e8118ca1ef6e07a7f261",
  "nextblockhash": "00000000ca11e8575b26f7ba2146b171976cb227f2e1193484181ff324226711",
  "strippedsize": 216,
  "size": 216,
  "weight": 864,
  "tx": [
    {
      "txid": "0e3ed841ab972997412467843041651e02c62175ed46c78292b4cd5b8b3278bc",
      "hash": "0e3ed841ab972997412467843041651e02c62175ed46c78292b4cd5b8b3278bc",
      "version": 1,
      "size": 135,
      "vsize": 135,
      "weight": 540,
      "locktime": 0,
      "vin": [
        {
          "coinbase": "04ffff001d02ff08",
          "sequence": 4294967295
        }
      ],
      "vout": [
        {
          "value": 50.0,
          "n": 0,
          "scriptPubKey": {
            "asm": "0461878e080d6cfc4e9e598f4df7dceb048766bf1bea1ae04c4ab1cc6530274bf3caf8c550a7bad6d0db58b353a89af9568f370baa5fe95ae7c43891a301fc202e OP_CHECKSIG",
            "desc": "pk(0461878e080d6cfc4e9e598f4df7dceb048766bf1bea1ae04c4ab1cc6530274bf3caf8c550a7bad6d0db58b353a89af9568f370baa5fe95ae7c43891a301fc202e)#44ars25v",
            "hex": "410461878e080d6cfc4e9e598f4df7dceb048766bf1bea1ae04c4ab1cc6530274bf3caf8c550a7bad6d0db58b353a89af9568f370baa5fe95ae7c43891a301fc202eac",
            "type": "pubkey"
          }
        }
      ],
      "hex": "01000000010000000000000000000000000000000000000000000000000000000000000000ffffffff0804ffff001d02ff08ffffffff0100f2052a0100000043410461878e080d6cfc4e9e598f4df7dceb048766bf1bea1ae04c4ab1cc6530274bf3caf8c550a7bad6d0db58b353a89af9568f370baa5fe95ae7c43891a301fc202eac00000000"
    }
  ]
}