{
  "hash": "00000000d9a4c6e6ede14f7e651987c1778d738b9a99a85e7cead047d3c28b96",
  "confirmations": 47714,
  "height": 5384,
  "version": 1,
  "versionHex": "00000001",
  "merkleroot": "ae20eadb3f4cf8a6c6c42dd7728c6d32fe9f57bd145d1580ca1c82b653b155a9",
  "time": 1235426108,
  "mediantime": 1235423621,
  "nonce": 360536885,
  "bits": "1d00ffff",
  "difficulty": 1,
  "chainwork": "0000000000000000000000000000000000000000000000000000150915091509",
  "nTx": 1,
  "previousblockhash": "00000000d05b89758ca277b9b50d17fcf8f1372a037eed3ed369a508512aed4a",
  "nextblockhash": "000000006b316a2f70da34951fec6f22e2964c86f34e4a196fdf3f4d164569fa",
  "strippedsize": 216,
  "size": 216,
  "weight": 864,
  "tx": [
    {
      "txid": "ae20eadb3f4cf8a6c6c42dd7728c6d32fe9f57bd145d1580ca1c82b653b155a9",
      "hash": "ae20eadb3f4cf8a6c6c42dd7728c6d32fe9f57bd145d1580ca1c82b653b155a9",
      "version": 1,
      "size": 135,
      "vsize": 135,
      "weight": 540,
      "locktime": 0,
      "vin": [
        {
          "coinbase": "04ffff001d026103",
          "sequence": 4294967295
        }
      ],
      "vout": [
        {
          "value": 50.0,
          "n": 0,
          "scriptPubKey": {
            "asm": "04e9de50de5d312eaa805815edce4ebd9756c24be321499a2e3134733cc420ff0a0107425e8110e6c911faf9ed1e2bba6db073ca7309ecb5328d807c88ee50f314 OP_CHECKSIG",
            "desc": "pk(04e9de50de5d312eaa805815edce4ebd9756c24be321499a2e3134733cc420ff0a0107425e8110e6c911faf9ed1e2bba6db073ca7309ecb5328d807c88ee50f314)#kn4l5y22",
            "hex": "4104e9de50de5d312eaa805815edce4ebd9756c24be321499a2e3134733cc420ff0a0107425e8110e6c911faf9ed1e2bba6db073ca7309ecb5328d807c88ee50f314ac",
            "type": "pubkey"
          }
        }
      ],
      "hex": "01000000010000000000000000000000000000000000000000000000000000000000000000ffffffff0804ffff001d026103ffffffff0100f2052a01000000434104e9de50de5d312eaa805815edce4ebd9756c24be321499a2e3134733cc420ff0a0107425e8110e6c911faf9ed1e2bba6db073ca7309ecb5328d807c88ee50f314ac00000000"
    }
  ]
}