{
  "hash": "00000000ecd1c4ba03ded0974b83c6e168479283099bceb68c71b32139be16d2",
  "confirmations": 50545,
  "height": 2553,
  "version": 1,
  "versionHex": "00000001",
  "merkleroot": "aa8e49b3ac98614c7acc178be22a11d34ce2ddd5424b42af6dde6e206bdbd1f3",
  "time": 1233457527,
  "mediantime": 1233451816,
  "nonce": 313609530,
  "bits": "1d00ffff",
  "difficulty": 1,
  "chainwork": "000000000000000000000000000000000000000000000000000009fa09fa09fa",
  "nTx": 1,
  "previousblockhash": "000000006cce0482b0fbfbbfe67429287230a2fa8280116374bb34ae1666fc5e",
  "nextblockhash": "00000000939822ebfdfc460655ac56b1c38cf95a9195d870571436f5c29f3a40",
  "strippedsize": 216,
  "size": 216,
  "weight": 864,
  "tx": [
    {
      "txid": "aa8e49b3ac98614c7acc178be22a11d34ce2ddd5424b42af6dde6e206bdbd1f3",
      "hash": "aa8e49b3ac98614c7acc178be22a11d34ce2ddd5424b42af6dde6e206bdbd1f3",
      "version": 1,
      "size": 135,
      "vsize": 135,
      "weight": 540,
      "locktime": 0,
      "vin": [
        {
          "coinbase": "04ffff001d02f001",
          "sequence": 4294967295
        }
      ],
      "vout": [
        {
          "value": 50.0,
          "n": 0,
          "scriptPubKey": {
            "asm": "04463a6f1a769c890a68a961af262ec4cc5a764703ef5245635f46b39323b93753c9a3ae57421115d4a6e61fd3ae39315db3148cedc06718c7bf9b79539f683f19 OP_CHECKSIG",
            "desc": "pk(04463a6f1a769c890a68a961af262ec4cc5a764703ef5245635f46b39323b93753c9a3ae57421115d4a6e61fd3ae39315db3148cedc06718c7bf9b79539f683f19)#kkxydqe7",
            "hex": "4104463a6f1a769c890a68a961af262ec4cc5a764703ef5245635f46b39323b93753c9a3ae57421115d4a6e61fd3ae39315db3148cedc06718c7bf9b79539f683f19ac",
            "type": "pubkey"
          }
        }
      ],
      "hex": "01000000010000000000000000000000000000000000000000000000000000000000000000ffffffff0804ffff001d02f001ffffffff0100f2052a01000000434104463a6f1a769c890a68a961af262ec4cc5a764703ef5245635f46b39323b93753c9a3ae57421115d4a6e61fd3ae39315db3148cedc06718c7bf9b79539f683f19ac00000000"
    }
  ]
}