{
  "hash": "00000000d129cdc2382cccc1ca6881efb7d3fc3e591e89412f0000220a3c0a9e",
  "confirmations": 48674,
  "height": 4424,
  "version": 1,
  "versionHex": "00000001",
  "merkleroot": "23945fb7ad2a6e5d212d5a20ecbbf686a728fb8060198d8f20d0d3a978ae934d",
  "time": 1234730924,
  "mediantime": 1234726396,
  "nonce": 2034986753,
  "bits": "1d00ffff",
  "difficulty": 1,
  "chainwork": "0000000000000000000000000000000000000000000000000000114911491149",
  "nTx": 1,
  "previousblockhash": "00000000d82db4fa62e1684021477b21116f258cc321aabb90a050f2843cae54",
  "nextblockhash": "00000000e714f4c2d0d62cfcc975ee88cdfbba695ddb0c8efff0e182e8c70857",
  "strippedsize": 216,
  "size": 216,
  "weight": 864,
  "tx": [
    {
      "txid": "23945fb7ad2a6e5d212d5a20ecbbf686a728fb8060198d8f20d0d3a978ae934d",
      "hash": "23945fb7ad2a6e5d212d5a20ecbbf686a728fb8060198d8f20d0d3a978ae934d",
      "version": 1,
      "size": 135,
      "vsize": 135,
      "weight": 540,
      "locktime": 0,
      "vin": [
        {
          "coinbase": "04ffff001d02a801",
          "sequence": 4294967295
        }
      ],
      "vout": [
        {
          "value": 50.0,
          "n": 0,
          "scriptPubKey": {
            "asm": "04708d77bf2c7e4683527455589737a0f849a35e80f986660529e5fe2a2a04741821ba30e1d6abac06b7fe46f3dc85b4eefcda1e7b3587db66fff1d2e5a45dbea8 OP_CHECKSIG",
            "desc": "pk(04708d77bf2c7e4683527455589737a0f849a35e80f986660529e5fe2a2a04741821ba30e1d6abac06b7fe46f3dc85b4eefcda1e7b3587db66fff1d2e5a45dbea8)#9hflfqnz",
            "hex": "4104708d77bf2c7e4683527455589737a0f849a35e80f986660529e5fe2a2a04741821ba30e1d6abac06b7fe46f3dc85b4eefcda1e7b3587db66fff1d2e5a45dbea8ac",
            "type": "pubkey"
          }
        }
      ],
      "hex": "01000000010000000000000000000000000000000000000000000000000000000000000000ffffffff0804ffff001d02a801ffffffff0100f2052a01000000434104708d77bf2c7e4683527455589737a0f849a35e80f986660529e5fe2a2a04741821ba30e1d6abac06b7fe46f3dc85b4eefcda1e7b3587db66fff1d2e5a45dbea8ac00000000"
    }
  ]
}