{
  "hash": "00000000fc83cbb1e767d47abc264cc621604725a1f3ff04d8a52b5b11b453fd",
  "confirmations": 43235,
  "height": 9863,
  "version": 1,
  "versionHex": "00000001",
  "merkleroot": "d1f99aed5904943887ff0c55be3ca42b4ecf82cf54002ff4f3075df4f4d43051",
  "time": 1238901359,
  "mediantime": 1238897423,
  "nonce": 988664084,
  "bits": "1d00ffff",
  "difficulty": 1,
  "chainwork": "0000000000000000000000000000000000000000000000000000268826882688",
  "nTx": 1,
  "previousblockhash": "00000000b982f25db874647197e4614674236f43726e542a9b8ad2a937b50f18",
  "nextblockhash": "000000005429a2999e0951cb13d1d5fcc85c828a10bc610d1762bfae57f19a49",
  "strippedsize": 216,
  "size": 216,
  "weight": 864,
  "tx": [
    {
      "txid": "d1f99aed5904943887ff0c55be3ca42b4ecf82cf54002ff4f3075df4f4d43051",
      "hash": "d1f99aed5904943887ff0c55be3ca42b4ecf82cf54002ff4f3075df4f4d43051",
      "version": 1,
      "size": 135,
      "vsize": 135,
      "weight": 540,
      "locktime": 0,
      "vin": [
        {
          "coinbase": "04ffff001d028201",
          "sequence": 4294967295
        }
      ],
      "vout": [
        {
          "value": 50.0,
          "n": 0,
          "scriptPubKey": {
            "asm": "04f8bd26ff31a345293d3f5299650a32c75038846ea47770dd7dcec4a20a185c25aee57826215eb3537955dbc2260f39bd8f6e59bca49f83ae179ccdff84ce57fb OP_CHECKSIG",
            "desc": "pk(04f8bd26ff31a345293d3f5299650a32c75038846ea47770dd7dcec4a20a185c25aee57826215eb3537955dbc2260f39bd8f6e59bca49f83ae179ccdff84ce57fb)#aufghnne",
            "hex": "4104f8bd26ff31a345293d3f5299650a32c75038846ea47770dd7dcec4a20a185c25aee57826215eb3537955dbc2260f39bd8f6e59bca49f83ae179ccdff84ce57fbac",
            "type": "pubkey"
          }
        }
      ],
      "hex": "01000000010000000000000000000000000000000000000000000000000000000000000000ffffffff0804ffff001d028201ffffffff0100f2052a01000000434104f8bd26ff31a345293d3f5299650a32c75038846ea47770dd7dcec4a20a185c25aee57826215eb3537955dbc2260f39bd8f6e59bca49f83ae179ccdff84ce57fbac00000000"
    }
  ]
}