{
  "hash": "000000009bb7b47ddffa6ca1e28f110914d54e9cbf912e2d366f30016932b9d9",
  "confirmations": 51166,
  "height": 1932,
  "version": 1,
  "versionHex": "00000001",
  "merkleroot": "2834495a47e793b9aa20beab752ce8ff5772c6d1fdfcfc7c3e63e90a7eca880e",
  "time": 1232993005,
  "mediantime": 1232987968,
  "nonce": 10231838,
  "bits": "1d00ffff",
  "difficulty": 1,
  "chainwork": "0000000000000000000000000000000000000000000000000000078d078d078d",
  "nTx": 1,
  "previousblockhash": "0000000022fcfe5272c4a161a8bab8a3a83916f4112f447d247a5a7a0d4ec493",
  "nextblockhash": "00000000cf29a2367f90e4c81e32cf8a00d02f2c824697c4cf473ed1d8adec23",
  "strippedsize": 215,
  "size": 215,
  "weight": 860,
  "tx": [
    {
      "txid": "2834495a47e793b9aa20beab752ce8ff5772c6d1fdfcfc7c3e63e90a7eca880e",
      "hash": "2834495a47e793b9aa20beab752ce8ff5772c6d1fdfcfc7c3e63e90a7eca880e",
      "version": 1,
      "size": 134,
      "vsize": 134,
      "weight": 536,
      "locktime": 0,
      "vin": [
        {
          "coinbase": "04ffff001d0143",
          "sequence": 4294967295
        }
      ],
      "vout": [
        {
          "value": 50.0,
          "n": 0,
          "scriptPubKey": {
            "asm": "0436fb23221f70789a102be08847bd58bccbe6e23094c93546d2661c6049114edd198e7b4cef935addf20d033e3b3d2fc7a21e1b4517f7aea34dd7dde5a9c234d3 OP_CHECKSIG",
            "desc": "pk(0436fb23221f70789a102be08847bd58bccbe6e23094c93546d2661c6049114edd198e7b4cef935addf20d033e3b3d2fc7a21e1b4517f7aea34dd7dde5a9c234d3)#lzywmmek",
            "hex": "410436fb23221f70789a102be08847bd58bccbe6e23094c93546d2661c6049114edd198e7b4cef935addf20d033e3b3d2fc7a21e1b4517f7aea34dd7dde5a9c234d3ac",
            "type": "pubkey"
          }
        }
      ],
      "hex": "01000000010000000000000000000000000000000000000000000000000000000000000000ffffffff0704ffff001d0143ffffffff0100f2052a0100000043410436fb23221f70789a102be08847bd58bccbe6e23094c93546d2661c6049114edd198e7b4cef935addf20d033e3b3d2fc7a21e1b4517f7aea34dd7dde5a9c234d3ac00000000"
    }
  ]
}