{
  "hash": "000000006f62312d51a2a6ed11fa0fd96e087f1d7f29e6ff047a25bc3bcf739c",
  "confirmations": 45142,
  "height": 7956,
  "version": 1,
  "versionHex": "00000001",
  "merkleroot": "77e8c3d9a29914923d5a0256732099843962d5f32f20a53977970125653e4ddc",
  "time": 1237431578,
  "mediantime": 1237428319,
  "nonce": 4106564131,
  "bits": "1d00ffff",
  "difficulty": 1,
  "chainwork": "00000000000000000000000000000000000000000000000000001f151f151f15",
  "nTx": 1,
  "previousblockhash": "00000000ac283a2fea309bfcb78e819acd0e17b59dd8d11f69844089f5d96c38",
  "nextblockhash": "000000008f9123170d2400afbf2210e38006f199cd2cce0771c55a06278b2082",
  "strippedsize": 216,
  "size": 216,
  "weight": 864,
  "tx": [
    {
      "txid": "77e8c3d9a29914923d5a0256732099843962d5f32f20a53977970125653e4ddc",
      "hash": "77e8c3d9a29914923d5a0256732099843962d5f32f20a53977970125653e4ddc",
      "version": 1,
      "size": 135,
      "vsize": 135,
      "weight": 540,
      "locktime": 0,
      "vin": [
        {
          "coinbase": "04ffff001d028608",
          "sequence": 4294967295
        }
      ],
      "vout": [
        {
          "value": 50.0,
          "n": 0,
          "scriptPubKey": {
            "asm": "04375522530bf9d8ef14246f91c7aa4f9cc17f54ad73b1a0da07285e2b6c41b6f89283ce3e4c93532d0b64d146ab5f092fbcf9c914ab383f5ede32f611a506729a OP_CHECKSIG",
            "desc": "pk(04375522530bf9d8ef14246f91c7aa4f9cc17f54ad73b1a0da07285e2b6c41b6f89283ce3e4c93532d0b64d146ab5f092fbcf9c914ab383f5ede32f611a506729a)#s2pmh8gz",
            "hex": "4104375522530bf9d8ef14246f91c7aa4f9cc17f54ad73b1a0da07285e2b6c41b6f89283ce3e4c93532d0b64d146ab5f092fbcf9c914ab383f5ede32f611a506729aac",
            "type": "pubkey"
          }
        }
      ],
      "hex": "01000000010000000000000000000000000000000000000000000000000000000000000000ffffffff0804ffff001d028608ffffffff0100f2052a01000000434104375522530bf9d8ef14246f91c7aa4f9cc17f54ad73b1a0da07285e2b6c41b6f89283ce3e4c93532d0b64d146ab5f092fbcf9c914ab383f5ede32f611a506729aac00000000"
    }
  ]
}