{
  "hash": "000000007487fef682d8798cde55ca4cec1304c5b242330ce1491fd88c811921",
  "confirmations": 45621,
  "height": 7477,
  "version": 1,
  "versionHex": "00000001",
  "merkleroot": "65fea359792987dd5210e1120f11401da52bdeb0cf3506eb5d5c3d7738316343",
  "time": 1237080364,
  "mediantime": 1237077704,
  "nonce": 12328888,
  "bits": "1d00ffff",
  "difficulty": 1,
  "chainwork": "00000000000000000000000000000000000000000000000000001d361d361d36",
  "nTx": 1,
  "previousblockhash": "00000000e491c222438d53078dbfebbe63dfee8c751311d73fa7ccfa29a2824e",
  "nextblockhash": "0000000019af276cc6bf7a2da83cd7d71e6cdbf8d166d1a26805189e76e45199",
  "strippedsize": 216,
  "size": 216,
  "weight": 864,
  "tx": [
    {
      "txid": "65fea359792987dd5210e1120f11401da52bdeb0cf3506eb5d5c3d7738316343",
      "hash": "65fea359792987dd5210e1120f11401da52bdeb0cf3506eb5d5c3d7738316343",
      "version": 1,
      "size": 135,
      "vsize": 135,
      "weight": 540,
      "locktime": 0,
      "vin": [
        {
          "coinbase": "04ffff001d029801",
          "sequence": 4294967295
        }
      ],
      "vout": [
        {
          "value": 50.0,
          "n": 0,
          "scriptPubKey": {
            "asm": "04b6d5505dfa1bc7b2742bcee755fa5da98cf64bd136c3513292b25681c327b3af2eb0ac5295731b0c42a52d34aff0d6b39e5b43911924240bc174537fe294dcd6 OP_CHECKSIG",
            "desc": "pk(04b6d5505dfa1bc7b2742bcee755fa5da98cf64bd136c3513292b25681c327b3af2eb0ac5295731b0c42a52d34aff0d6b39e5b43911924240bc174537fe294dcd6)#yd5eyl82",
            "hex": "4104b6d5505dfa1bc7b2742bcee755fa5da98cf64bd136c3513292b25681c327b3af2eb0ac5295731b0c42a52d34aff0d6b39e5b43911924240bc174537fe294dcd6ac",
            "type": "pubkey"
          }
        }
      ],
      "hex": "01000000010000000000000000000000000000000000000000000000000000000000000000ffffffff0804ffff001d029801ffffffff0100f2052a01000000434104b6d5505dfa1bc7b2742bcee755fa5da98cf64bd136c3513292b25681c327b3af2eb0ac5295731b0c42a52d34aff0d6b39e5b43911924240bc174537fe294dcd6ac00000000"
    }
  ]
}