{
  "hash": "000000008e56e943232a31c8c685b1911ceb99f8923dad3f56cf3ca0601a4b94",
  "confirmations": 47817,
  "height": 5281,
  "version": 1,
  "versionHex": "00000001",
  "merkleroot": "484c2624d4b50130ac9314c2ec5601bf8744146560eb938b3194ac4ca7638e1b",
  "time": 1235345724,
  "mediantime": 1235342636,
  "nonce": 2957692467,
  "bits": "1d00ffff",
  "difficulty": 1,
  "chainwork": "000000000000000000000000000000000000000000000000000014a214a214a2",
  "nTx": 1,
  "previousblockhash": "00000000f7eee1b588e0acb92963ea2d83c29d964133e379b94489803af89b7d",
  "nextblockhash": "00000000156b3896b33dd7c76f41cfd32187c877665be9371d3a8d20281fa9f1",
  "strippedsize": 216,
  "size": 216,
  "weight": 864,
  "tx": [
    {
      "txid": "484c2624d4b50130ac9314c2ec5601bf8744146560eb938b3194ac4ca7638e1b",
      "hash": "484c2624d4b50130ac9314c2ec5601bf8744146560eb938b3194ac4ca7638e1b",
      "version": 1,
      "size": 135,
      "vsize": 135,
      "weight": 540,
      "locktime": 0,
      "vin": [
        {
          "coinbase": "04ffff001d02c501",
          "sequence": 4294967295
        }
      ],
      "vout": [
        {
          "value": 50.0,
          "n": 0,
          "scriptPubKey": {
            "asm": "04a7c3e2b410a5c54f4560f396d357ef7be0665c03b5a20c2f1d9490396b0f0eff4f72f554b736cbcbed87a87be9406cc0644a7df16ec7f17a29a2a339010e64ef OP_CHECKSIG",
            "desc": "pk(04a7c3e2b410a5c54f4560f396d357ef7be0665c03b5a20c2f1d9490396b0f0eff4f72f554b736cbcbed87a87be9406cc0644a7df16ec7f17a29a2a339010e64ef)#8arf3lc5",
            "hex": "4104a7c3e2b410a5c54f4560f396d357ef7be0665c03b5a20c2f1d9490396b0f0eff4f72f554b736cbcbed87a87be9406cc0644a7df16ec7f17a29a2a339010e64efac",
            "type": "pubkey"
          }
        }
      ],
      "hex": "01000000010000000000000000000000000000000000000000000000000000000000000000ffffffff0804ffff001d02c501ffffffff0100f2052a01000000434104a7c3e2b410a5c54f4560f396d357ef7be0665c03b5a20c2f1d9490396b0f0eff4f72f554b736cbcbed87a87be9406cc0644a7df16ec7f17a29a2a339010e64efac00000000"
    }
  ]
}