{
  "hash": "000000000cc48842faf0df1dd7621449ff8b4d28007d56c77a59be45df5b4036",
  "confirmations": 43947,
  "height": 9151,
  "version": 1,
  "versionHex": "00000001",
  "merkleroot": "9f4d2316a85ee0bb7e1911e13d601ad5b6017908d246d95cc8a58c7b704bbfa1",
  "time": 1238368062,
  "mediantime": 1238364705,
  "nonce": 36345383,
  "bits": "1d00ffff",
  "difficulty": 1,
  "chainwork": "000000000000000000000000000000000000000000000000000023c023c023c0",
  "nTx": 1,
  "previousblockhash": "000000009f8717ab59587de3c519d762fe0cc1b9b3e778eed40bac05969f4217",
  "nextblockhash": "00000000ab0236e1656a988050fc919231136e6e3a21d5782a9efac7c8f40e29",
  "strippedsize": 216,
  "size": 216,
  "weight": 864,
  "tx": [
    {
      "txid": "9f4d2316a85ee0bb7e1911e13d601ad5b6017908d246d95cc8a58c7b704bbfa1",
      "hash": "9f4d2316a85ee0bb7e1911e13d601ad5b6017908d246d95cc8a58c7b704bbfa1",
      "version": 1,
      "size": 135,
      "vsize": 135,
      "weight": 540,
      "locktime": 0,
      "vin": [
        {
          "coinbase": "04ffff001d026b09",
          "sequence": 4294967295
        }
      ],
      "vout": [
        {
          "value": 50.0,
          "n": 0,
          "scriptPubKey": {
            "asm": "04f1c9574715aeb4f38c784ec6eb3ff3cd34210ac66c3c9009aa9a071e6b313c6be8b974dfc0a7b0266d28a3e42d5a9a8ca4c4e01ee8a543ab2d27e8278ab09e0b OP_CHECKSIG",
            "desc": "pk(04f1c9574715aeb4f38c784ec6eb3ff3cd34210ac66c3c9009aa9a071e6b313c6be8b974dfc0a7b0266d28a3e42d5a9a8ca4c4e01ee8a543ab2d27e8278ab09e0b)#qua2y3pv",
            "hex": "4104f1c9574715aeb4f38c784ec6eb3ff3cd34210ac66c3c9009aa9a071e6b313c6be8b974dfc0a7b0266d28a3e42d5a9a8ca4c4e01ee8a543ab2d27e8278ab09e0bac",
            "type": "pubkey"
          }
        }
      ],
      "hex": "01000000010000000000000000000000000000000000000000000000000000000000000000ffffffff0804ffff001d026b09ffffffff0100f2052a01000000434104f1c9574715aeb4f38c784ec6eb3ff3cd34210ac66c3c9009aa9a071e6b313c6be8b974dfc0a7b0266d28a3e42d5a9a8ca4c4e01ee8a543ab2d27e8278ab09e0bac00000000"
    }
  ]
}