{
  "hash": "000000002f630be6eb6913a67ad6bccb21daf7e1d4e3697b58ff32564246dc5d",
  "confirmations": 46563,
  "height": 6535,
  "version": 1,
  "versionHex": "00000001",
  "merkleroot": "eec152cf57806950b5d0c33a96e65cc912260dc2f900c55fdda1a6aa811c9b00",
  "time": 1236354780,
  "mediantime": 1236350477,
  "nonce": 2763324202,
  "bits": "1d00ffff",
  "difficulty": 1,
  "chainwork": "0000000000000000000000000000000000000000000000000000198819881988",
  "nTx": 1,
  "previousblockhash": "0000000002a60a8bfb2dd08a0d3e1f58696557da159b223fdbecd591b53ac56b",
  "nextblockhash": "000000007d0185eba9d8d4e3f5d396b6cc793871b16e31f5490f59fa8f7cdf08",
  "strippedsize": 216,
  "size": 216,
  "weight": 864,
  "tx": [
    {
      "txid": "eec152cf57806950b5d0c33a96e65cc912260dc2f900c55fdda1a6aa811c9b00",
      "hash": "eec152cf57806950b5d0c33a96e65cc912260dc2f900c55fdda1a6aa811c9b00",
      "version": 1,
      "size": 135,
      "vsize": 135,
      "weight": 540,
      "locktime": 0,
      "vin": [
        {
          "coinbase": "04ffff001d022c04",
          "sequence": 4294967295
        }
      ],
      "vout": [
        {
          "value": 50.0,
          "n": 0,
          "scriptPubKey": {
            "asm": "04b2fb93ed6d82b6e6e87c743d2d7d671889c270eba848266a18f69a9e70a5383b475e6ee77d2876faa9fb5f07b2cd75bf064e74868b895c6ae4f5f3131bef238b OP_CHECKSIG",
            "desc": "pk(04b2fb93ed6d82b6e6e87c743d2d7d671889c270eba848266a18f69a9e70a5383b475e6ee77d2876faa9fb5f07b2cd75bf064e74868b895c6ae4f5f3131bef238b)#4nn29zk0",
            "hex": "4104b2fb93ed6d82b6e6e87c743d2d7d671889c270eba848266a18f69a9e70a5383b475e6ee77d2876faa9fb5f07b2cd75bf064e74868b895c6ae4f5f3131bef238bac",
            "type": "pubkey"
          }
        }
      ],
      "hex": "01000000010000000000000000000000000000000000000000000000000000000000000000ffffffff0804ffff001d022c04ffffffff0100f2052a01000000434104b2fb93ed6d82b6e6e87c743d2d7d671889c270eba848266a18f69a9e70a5383b475e6ee77d2876faa9fb5f07b2cd75bf064e74868b895c6ae4f5f3131bef238bac00000000"
    }
  ]
}