{
  "hash": "0000000050475e8b0608b84ae592640cd63577af6da96376570cfb5782bc9e5d",
  "confirmations": 52571,
  "height": 527,
  "version": 1,
  "versionHex": "00000001",
  "merkleroot": "93cf438aeeea91177da3736dc9939ed59e73a05b5ebb0ffc5ce326d0336ff5fd",
  "time": 1231986079,
  "mediantime": 1231983047,
  "nonce": 2735023914,
  "bits": "1d00ffff",
  "difficulty": 1,
  "chainwork": "0000000000000000000000000000000000000000000000000000021002100210",
  "nTx": 1,
  "previousblockhash": "00000000be9472e6e4b47acfb67345bd7aba371b41712904e30a1e6e728e910d",
  "nextblockhash": "00000000e49373a26666dda6553bb5f0d74a939a788217829b20e6016a8334d4",
  "strippedsize": 216,
  "size": 216,
  "weight": 864,
  "tx": [
    {
      "txid": "93cf438aeeea91177da3736dc9939ed59e73a05b5ebb0ffc5ce326d0336ff5fd",
      "hash": "93cf438aeeea91177da3736dc9939ed59e73a05b5ebb0ffc5ce326d0336ff5fd",
      "version": 1,
      "size": 135,
      "vsize": 135,
      "weight": 540,
      "locktime": 0,
      "vin": [
        {
          "coinbase": "04ffff001d020405",
          "sequence": 4294967295
        }
      ],
      "vout": [
        {
          "value": 50.0,
          "n": 0,
          "scriptPubKey": {
            "asm": "04dddef64aba9b00b185fa5ed0074939de7b5ad3d803dd160229b04f69dff7ffd901ee084327a0b85d39e0d453beee7b162c476b17cc3a819a5a7a7c5426611191 OP_CHECKSIG",
            "desc": "pk(04dddef64aba9b00b185fa5ed0074939de7b5ad3d803dd160229b04f69dff7ffd901ee084327a0b85d39e0d453beee7b162c476b17cc3a819a5a7a7c5426611191)#wu8z54ez",
            "hex": "4104dddef64aba9b00b185fa5ed0074939de7b5ad3d803dd160229b04f69dff7ffd901ee084327a0b85d39e0d453beee7b162c476b17cc3a819a5a7a7c5426611191ac",
            "type": "pubkey"
          }
        }
      ],
      "hex": "01000000010000000000000000000000000000000000000000000000000000000000000000ffffffff0804ffff001d020405ffffffff0100f2052a01000000434104dddef64aba9b00b185fa5ed0074939de7b5ad3d803dd160229b04f69dff7ffd901ee084327a0b85d39e0d453beee7b162c476b17cc3a819a5a7a7c5426611191ac00000000"
    }
  ]
}