{
  "hash": "000000000f473a759506cf47ee544fe35ef4f9bb4a1946b00aa278e079adfc47",
  "confirmations": 46524,
  "height": 6574,
  "version": 1,
  "versionHex": "00000001",
  "merkleroot": "2a26f6939e15d208f08fd75ac28291d55d8f337f5d7c94818af2f2f80e846ba2",
  "time": 1236383089,
  "mediantime": 1236378722,
  "nonce": 1026738468,
  "bits": "1d00ffff",
  "difficulty": 1,
  "chainwork": "000000000000000000000000000000000000000000000000000019af19af19af",
  "nTx": 1,
  "previousblockhash": "000000008d81ea3ee542e4c42b6199e0ca16b1161e28ef784cf62a1a436151c0",
  "nextblockhash": "0000000050c878a194212cddc468fced5162630acccae8a01778a997c307e347",
  "strippedsize": 216,
  "size": 216,
  "weight": 864,
  "tx": [
    {
      "txid": "2a26f6939e15d208f08fd75ac28291d55d8f337f5d7c94818af2f2f80e846ba2",
      "hash": "2a26f6939e15d208f08fd75ac28291d55d8f337f5d7c94818af2f2f80e846ba2",
      "version": 1,
      "size": 135,
      "vsize": 135,
      "weight": 540,
      "locktime": 0,
      "vin": [
        {
          "coinbase": "04ffff001d02b204",
          "sequence": 4294967295
        }
      ],
      "vout": [
        {
          "value": 50.0,
          "n": 0,
          "scriptPubKey": {
            "asm": "04633ab238cda4f6c54720d6b92ed19c186f68b79ef4f9a9ed0412d9f657c19545856cf83eafdc82b7a0095809e72fa9c82c3222fdf110abdfb929a3998c5b9e1b OP_CHECKSIG",
            "desc": "pk(04633ab238cda4f6c54720d6b92ed19c186f68b79ef4f9a9ed0412d9f657c19545856cf83eafdc82b7a0095809e72fa9c82c3222fdf110abdfb929a3998c5b9e1b)#m0kyz9d4",
            "hex": "4104633ab238cda4f6c54720d6b92ed19c186f68b79ef4f9a9ed0412d9f657c19545856cf83eafdc82b7a0095809e72fa9c82c3222fdf110abdfb929a3998c5b9e1bac",
            "type": "pubkey"
          }
        }
      ],
      "hex": "01000000010000000000000000000000000000000000000000000000000000000000000000ffffffff0804ffff001d02b204ffffffff0100f2052a01000000434104633ab238cda4f6c54720d6b92ed19c186f68b79ef4f9a9ed0412d9f657c19545856cf83eafdc82b7a0095809e72fa9c82c3222fdf110abdfb929a3998c5b9e1bac00000000"
    }
  ]
}