{
  "hash": "000000005472019fbdfd744554f49b43d6fdbd8b17be944c385a4382f4fa563d",
  "confirmations": 47431,
  "height": 5667,
  "version": 1,
  "versionHex": "00000001",
  "merkleroot": "6f6fc7bab5ab52437536fbf562b78646e257ab75375285611d2a3b7f1a6ce7d7",
  "time": 1235664033,
  "mediantime": 1235660454,
  "nonce": 1411198772,
  "bits": "1d00ffff",
  "difficulty": 1,
  "chainwork": "0000000000000000000000000000000000000000000000000000162416241624",
  "nTx": 1,
  "previousblockhash": "000000005c0f56b1ed123e4ca9746f88cf174ab9232aa74dc3ebd954ba02c2aa",
  "nextblockhash": "0000000084054713ad279e29c8f8497ca80405e32aa728c71431ab7c802fcc56",
  "strippedsize": 216,
  "size": 216,
  "weight": 864,
  "tx": [
    {
      "txid": "6f6fc7bab5ab52437536fbf562b78646e257ab75375285611d2a3b7f1a6ce7d7",
      "hash": "6f6fc7bab5ab52437536fbf562b78646e257ab75375285611d2a3b7f1a6ce7d7",
      "version": 1,
      "size": 135,
      "vsize": 135,
      "weight": 540,
      "locktime": 0,
      "vin": [
        {
          "coinbase": "04ffff001d02eb08",
          "sequence": 4294967295
        }
      ],
      "vout": [
        {
          "value": 50.0,
          "n": 0,
          "scriptPubKey": {
            "asm": "0472c576cce8d978407779930418636081f1de88a9c1cb0686e78973462205e200172dff7a4e526ec648935d6cf2bf8f9a71de42937731c59ab0c7ed7604991ca8 OP_CHECKSIG",
            "desc": "pk(0472c576cce8d978407779930418636081f1de88a9c1cb0686e78973462205e200172dff7a4e526ec648935d6cf2bf8f9a71de42937731c59ab0c7ed7604991ca8)#8nx5cm97",
            "hex": "410472c576cce8d978407779930418636081f1de88a9c1cb0686e78973462205e200172dff7a4e526ec648935d6cf2bf8f9a71de42937731c59ab0c7ed7604991ca8ac",
            "type": "pubkey"
          }
        }
      ],
      "hex": "01000000010000000000000000000000000000000000000000000000000000000000000000ffffffff0804ffff001d02eb08ffffffff0100f2052a0100000043410472c576cce8d978407779930418636081f1de88a9c1cb0686e78973462205e200172dff7a4e526ec648935d6cf2bf8f9a71de42937731c59ab0c7ed7604991ca8ac00000000"
    }
  ]
}