{
  "hash": "0000000036adcbd6314843e3dbba6982acae6d3e44f020ece3130405c84e89f1",
  "confirmations": 46309,
  "height": 6789,
  "version": 1,
  "versionHex": "00000001",
  "merkleroot": "a2130555be02b24ae8ed1f83d4e624b46038259e63742a9d1c88d0f00372c275",
  "time": 1236550601,
  "mediantime": 1236547998,
  "nonce": 29547116,
  "bits": "1d00ffff",
  "difficulty": 1,
  "chainwork": "00000000000000000000000000000000000000000000000000001a861a861a86",
  "nTx": 1,
  "previousblockhash": "00000000095b6db047791627424c582acfd3f344767b80d6138fecc4f6d844b1",
  "nextblockhash": "00000000832ac9edd5405a1fd4e417d879d17d8f344813f48f49ed725f9a5690",
  "strippedsize": 216,
  "size": 216,
  "weight": 864,
  "tx": [
    {
      "txid": "a2130555be02b24ae8ed1f83d4e624b46038259e63742a9d1c88d0f00372c275",
      "hash": "a2130555be02b24ae8ed1f83d4e624b46038259e63742a9d1c88d0f00372c275",
      "version": 1,
      "size": 135,
      "vsize": 135,
      "weight": 540,
      "locktime": 0,
      "vin": [
        {
          "coinbase": "04ffff001d02510c",
          "sequence": 4294967295
        }
      ],
      "vout": [
        {
          "value": 50.0,
          "n": 0,
          "scriptPubKey": {
            "asm": "041ea07399d334818261ca81b3eb22feb41f553fefa3194ec7b02d47b6a51f39f96dc387495c56b523a36be930ae6a313e1097f70a712be9d23a4e533ddff29d72 OP_CHECKSIG",
            "desc": "pk(041ea07399d334818261ca81b3eb22feb41f553fefa3194ec7b02d47b6a51f39f96dc387495c56b523a36be930ae6a313e1097f70a712be9d23a4e533ddff29d72)#0sf7y24u",
            "hex": "41041ea07399d334818261ca81b3eb22feb41f553fefa3194ec7b02d47b6a51f39f96dc387495c56b523a36be930ae6a313e1097f70a712be9d23a4e533ddff29d72ac",
            "type": "pubkey"
          }
        }
      ],
      "hex": "01000000010000000000000000000000000000000000000000000000000000000000000000ffffffff0804ffff001d02510cffffffff0100f2052a010000004341041ea07399d334818261ca81b3eb22feb41f553fefa3194ec7b02d47b6a51f39f96dc387495c56b523a36be930ae6a313e1097f70a712be9d23a4e533ddff29d72ac00000000"
    }
  ]
}