{
  "hash": "00000000d6ec0d695a006900ba691dbaeb0f0cc31f7531ceea63eb17f6ab0513",
  "confirmations": 46120,
  "height": 6978,
  "version": 1,
  "versionHex": "00000001",
  "merkleroot": "c9aa15be664a701ffcaba4d3a4ce9b9656a1e2c28ee8a1a04e801f9cc356b7a3",
  "time": 1236698575,
  "mediantime": 1236695576,
  "nonce": 3009947936,
  "bits": "1d00ffff",
  "difficulty": 1,
  "chainwork": "00000000000000000000000000000000000000000000000000001b431b431b43",
  "nTx": 1,
  "previousblockhash": "00000000c0f199ae6994fd526b6b01e175a72c612d1d80acc1e849f6c8a80e60",
  "nextblockhash": "000000002005017cd42078ac81ba7eb579d73d5dd4cd2c8d034a5d3c01f0fc61",
  "strippedsize": 216,
  "size": 216,
  "weight": 864,
  "tx": [
    {
      "txid": "c9aa15be664a701ffcaba4d3a4ce9b9656a1e2c28ee8a1a04e801f9cc356b7a3",
      "hash": "c9aa15be664a701ffcaba4d3a4ce9b9656a1e2c28ee8a1a04e801f9cc356b7a3",
      "version": 1,
      "size": 135,
      "vsize": 135,
      "weight": 540,
      "locktime": 0,
      "vin": [
        {
          "coinbase": "04ffff001d02d701",
          "sequence": 4294967295
        }
      ],
      "vout": [
        {
          "value": 50.0,
          "n": 0,
          "scriptPubKey": {
            "asm": "047cbb9c7bc8fd96227b95c899e592fcfadc8a66e25640b86b6c332506fc4dcc6020556af14cfb7f3022c90f0c7a6dd4003eb8da9d9faa0efc71b2ad9eefdd5768 OP_CHECKSIG",
            "desc": "pk(047cbb9c7bc8fd96227b95c899e592fcfadc8a66e25640b86b6c332506fc4dcc6020556af14cfb7f3022c90f0c7a6dd4003eb8da9d9faa0efc71b2ad9eefdd5768)#k05t5lf7",
            "hex": "41047cbb9c7bc8fd96227b95c899e592fcfadc8a66e25640b86b6c332506fc4dcc6020556af14cfb7f3022c90f0c7a6dd4003eb8da9d9faa0efc71b2ad9eefdd5768ac",
            "type": "pubkey"
          }
        }
      ],
      "hex": "01000000010000000000000000000000000000000000000000000000000000000000000000ffffffff0804ffff001d02d701ffffffff0100f2052a010000004341047cbb9c7bc8fd96227b95c899e592fcfadc8a66e25640b86b6c332506fc4dcc6020556af14cfb7f3022c90f0c7a6dd4003eb8da9d9faa0efc71b2ad9eefdd5768ac00000000"
    }
  ]
}