{
  "hash": "000000008f0480e98ef05c47c0f7acf37501caf8e07a961c2c0e30add9778236",
  "confirmations": 50408,
  "height": 2690,
  "version": 1,
  "versionHex": "00000001",
  "merkleroot": "fa3108c231964979ec028aca6977464c81a7ae605434e1fa6a8cf2ee68a203ae",
  "time": 1233554880,
  "mediantime": 1233552536,
  "nonce": 47917905,
  "bits": "1d00ffff",
  "difficulty": 1,
  "chainwork": "00000000000000000000000000000000000000000000000000000a830a830a83",
  "nTx": 1,
  "previousblockhash": "00000000d764cad472fd749956c02ee590068f3c97a40dc251f728e39459ea14",
  "nextblockhash": "0000000030b9ba1a81913fba03fe1c06b824f9610a5a91c62b7c26ca6b972d96",
  "strippedsize": 216,
  "size": 216,
  "weight": 864,
  "tx": [
    {
      "txid": "fa3108c231964979ec028aca6977464c81a7ae605434e1fa6a8cf2ee68a203ae",
      "hash": "fa3108c231964979ec028aca6977464c81a7ae605434e1fa6a8cf2ee68a203ae",
      "version": 1,
      "size": 135,
      "vsize": 135,
      "weight": 540,
      "locktime": 0,
      "vin": [
        {
          "coinbase": "04ffff001d029600",
          "sequence": 4294967295
        }
      ],
      "vout": [
        {
          "value": 50.0,
          "n": 0,
          "scriptPubKey": {
            "asm": "0484837dd9a3d4344721041d08e0229144138b6615f75c64d2560d221407ba22499a2caf8c96b4547dac5bd468d8ea82e990615d6470fc23d27480c296bf0d6036 OP_CHECKSIG",
            "desc": "pk(0484837dd9a3d4344721041d08e0229144138b6615f75c64d2560d221407ba22499a2caf8c96b4547dac5bd468d8ea82e990615d6470fc23d27480c296bf0d6036)#76h89dzd",
            "hex": "410484837dd9a3d4344721041d08e0229144138b6615f75c64d2560d221407ba22499a2caf8c96b4547dac5bd468d8ea82e990615d6470fc23d27480c296bf0d6036ac",
            "type": "pubkey"
          }
        }
      ],
      "hex": "01000000010000000000000000000000000000000000000000000000000000000000000000ffffffff0804ffff001d029600ffffffff0100f2052a0100000043410484837dd9a3d4344721041d08e0229144138b6615f75c64d2560d221407ba22499a2caf8c96b4547dac5bd468d8ea82e990615d6470fc23d27480c296bf0d6036ac00000000"
    }
  ]
}