{
  "hash": "00000000c5266fd4d8f1e6fc28dd24aa0306477a2faa084cfe189ed9f3d312c1",
  "confirmations": 50724,
  "height": 2374,
  "version": 1,
  "versionHex": "00000001",
  "merkleroot": "82b21388a64b8096a4dc93350294c791e1e80279fa49f664b398c1aa84433da9",
  "time": 1233333720,
  "mediantime": 1233328326,
  "nonce": 769683246,
  "bits": "1d00ffff",
  "difficulty": 1,
  "chainwork": "0000000000000000000000000000000000000000000000000000094709470947",
  "nTx": 1,
  "previousblockhash": "00000000147696b36a9746072c377cd42c82df4f787b88fe4fa37ac8375f96f4",
  "nextblockhash": "00000000d4b71ccc6672d3e1f5a356c8370b69ae80b773b16feeb47516f525b3",
  "strippedsize": 216,
  "size": 216,
  "weight": 864,
  "tx": [
    {
      "txid": "82b21388a64b8096a4dc93350294c791e1e80279fa49f664b398c1aa84433da9",
      "hash": "82b21388a64b8096a4dc93350294c791e1e80279fa49f664b398c1aa84433da9",
      "version": 1,
      "size": 135,
      "vsize": 135,
      "weight": 540,
      "locktime": 0,
      "vin": [
        {
          "coinbase": "04ffff001d020a03",
          "sequence": 4294967295
        }
      ],
      "vout": [
        {
          "value": 50.0,
          "n": 0,
          "scriptPubKey": {
            "asm": "04c69959edd3245464544b787b5bb2ac1378b4bcbeaa8fd6554e94867858a4b3aa47b2099455a577dc8956bfc90c012dcd76cd5a6a1aac2f3740dd819f43e781ab OP_CHECKSIG",
            "desc": "pk(04c69959edd3245464544b787b5bb2ac1378b4bcbeaa8fd6554e94867858a4b3aa47b2099455a577dc8956bfc90c012dcd76cd5a6a1aac2f3740dd819f43e781ab)#7cxz9zt8",
            "hex": "4104c69959edd3245464544b787b5bb2ac1378b4bcbeaa8fd6554e94867858a4b3aa47b2099455a577dc8956bfc90c012dcd76cd5a6a1aac2f3740dd819f43e781abac",
            "type": "pubkey"
          }
        }
      ],
      "hex": "01000000010000000000000000000000000000000000000000000000000000000000000000ffffffff0804ffff001d020a03ffffffff0100f2052a01000000434104c69959edd3245464544b787b5bb2ac1378b4bcbeaa8fd6554e94867858a4b3aa47b2099455a577dc8956bfc90c012dcd76cd5a6a1aac2f3740dd819f43e781abac00000000"
    }
  ]
}