{
  "hash": "00000000eea3e5ed45d24b009087a5870586c0182805fe519a370fc4372a88a3",
  "confirmations": 46411,
  "height": 6687,
  "version": 1,
  "versionHex": "00000001",
  "merkleroot": "01602869b9e1b4018d1885cafc9b3beffd594949c6c5a3997e7982bfac086dd1",
  "time": 1236473337,
  "mediantime": 1236469184,
  "nonce": 3145580564,
  "bits": "1d00ffff",
  "difficulty": 1,
  "chainwork": "00000000000000000000000000000000000000000000000000001a201a201a20",
  "nTx": 1,
  "previousblockhash": "00000000a641cad738e8ec59f0599d5b9d7e463e45d194ea021a1ace23b63e92",
  "nextblockhash": "00000000f2b2004137476fabc5e3b494f82ed655094e32cb45f79cbdd573657b",
  "strippedsize": 216,
  "size": 216,
  "weight": 864,
  "tx": [
    {
      "txid": "01602869b9e1b4018d1885cafc9b3beffd594949c6c5a3997e7982bfac086dd1",
      "hash": "01602869b9e1b4018d1885cafc9b3beffd594949c6c5a3997e7982bfac086dd1",
      "version": 1,
      "size": 135,
      "vsize": 135,
      "weight": 540,
      "locktime": 0,
      "vin": [
        {
          "coinbase": "04ffff001d02c306",
          "sequence": 4294967295
        }
      ],
      "vout": [
        {
          "value": 50.0,
          "n": 0,
          "scriptPubKey": {
            "asm": "0402d2908286e7e480cb2d3a7fdd71cfb861d45e906ab96b4fcfa3fcdad1be9336812c40e8a19a0e78eb3963e9ae707fd160745e37e38b7e94efe839382a47e71c OP_CHECKSIG",
            "desc": "pk(0402d2908286e7e480cb2d3a7fdd71cfb861d45e906ab96b4fcfa3fcdad1be9336812c40e8a19a0e78eb3963e9ae707fd160745e37e38b7e94efe839382a47e71c)#9yemxx2w",
            "hex": "410402d2908286e7e480cb2d3a7fdd71cfb861d45e906ab96b4fcfa3fcdad1be9336812c40e8a19a0e78eb3963e9ae707fd160745e37e38b7e94efe839382a47e71cac",
            "type": "pubkey"
          }
        }
      ],
      "hex": "01000000010000000000000000000000000000000000000000000000000000000000000000ffffffff0804ffff001d02c306ffffffff0100f2052a0100000043410402d2908286e7e480cb2d3a7fdd71cfb861d45e906ab96b4fcfa3fcdad1be9336812c40e8a19a0e78eb3963e9ae707fd160745e37e38b7e94efe839382a47e71cac00000000"
    }
  ]
}