{
  "hash": "000000000fd36aabc5985a9c4c5035dce824de3911ec9f7ac0c59c5653c9a903",
  "confirmations": 47003,
  "height": 6095,
  "version": 1,
  "versionHex": "00000001",
  "merkleroot": "320f87dc321909ddd27af84e6caa327155958c5e0c17f5d630f5305b987ad54e",
  "time": 1236003836,
  "mediantime": 1236000063,
  "nonce": 209691446,
  "bits": "1d00ffff",
  "difficulty": 1,
  "chainwork": "000000000000000000000000000000000000000000000000000017d017d017d0",
  "nTx": 1,
  "previousblockhash": "000000003a41e9d9830013ced42cd835579b1bcd963a928fc781645ef055f78e",
  "nextblockhash": "0000000027d570e238f94d66317c946f5e6faa736c4e6456b989fc5a5f55661e",
  "strippedsize": 216,
  "size": 216,
  "weight": 864,
  "tx": [
    {
      "txid": "320f87dc321909ddd27af84e6caa327155958c5e0c17f5d630f5305b987ad54e",
      "hash": "320f87dc321909ddd27af84e6caa327155958c5e0c17f5d630f5305b987ad54e",
      "version": 1,
      "size": 135,
      "vsize": 135,
      "weight": 540,
      "locktime": 0,
      "vin": [
        {
          "coinbase": "04ffff001d02ae06",
          "sequence": 4294967295
        }
      ],
      "vout": [
        {
          "value": 50.0,
          "n": 0,
          "scriptPubKey": {
            "asm": "04390738994e15747b7536cf73f65ddb8f16f5f9779dd8f19865cbae7793f83b9bb29b0cdd7ccd1355f7fa2b82cf70ad27708105e8640b4517d5ac4d8c0ae520a9 OP_CHECKSIG",
            "desc": "pk(04390738994e15747b7536cf73f65ddb8f16f5f9779dd8f19865cbae7793f83b9bb29b0cdd7ccd1355f7fa2b82cf70ad27708105e8640b4517d5ac4d8c0ae520a9)#cjt2fz0d",
            "hex": "4104390738994e15747b7536cf73f65ddb8f16f5f9779dd8f19865cbae7793f83b9bb29b0cdd7ccd1355f7fa2b82cf70ad27708105e8640b4517d5ac4d8c0ae520a9ac",
            "type": "pubkey"
          }
        }
      ],
      "hex": "01000000010000000000000000000000000000000000000000000000000000000000000000ffffffff0804ffff001d02ae06ffffffff0100f2052a01000000434104390738994e15747b7536cf73f65ddb8f16f5f9779dd8f19865cbae7793f83b9bb29b0cdd7ccd1355f7fa2b82cf70ad27708105e8640b4517d5ac4d8c0ae520a9ac00000000"
    }
  ]
}