{
  "hash": "000000002b5e03ee6029c1f5703b7baaf097630ca55f91d93ddd412eb0d054e5",
  "confirmations": 52447,
  "height": 651,
  "version": 1,
  "versionHex": "00000001",
  "merkleroot": "9d8b1783a0d985a30201406722871eeb48883a4fb3fa80bb55c06038df8d746c",
  "time": 1232070406,
  "mediantime": 1232066137,
  "nonce": 135772446,
  "bits": "1d00ffff",
  "difficulty": 1,
  "chainwork": "0000000000000000000000000000000000000000000000000000028c028c028c",
  "nTx": 1,
  "previousblockhash": "00000000d3ebca0f1cf140987959ba9231e9da43f3f76aed02d0cfe9d88b71d7",
  "nextblockhash": "000000008e1bd9998d126a037a31e20c2be174f6c760ba32d1cfe2498f570cc7",
  "strippedsize": 215,
  "size": 215,
  "weight": 860,
  "tx": [
    {
      "txid": "9d8b1783a0d985a30201406722871eeb48883a4fb3fa80bb55c06038df8d746c",
      "hash": "9d8b1783a0d985a30201406722871eeb48883a4fb3fa80bb55c06038df8d746c",
      "version": 1,
      "size": 134,
      "vsize": 134,
      "weight": 536,
      "locktime": 0,
      "vin": [
        {
          "coinbase": "04ffff001d0115",
          "sequence": 4294967295
        }
      ],
      "vout": [
        {
          "value": 50.0,
          "n": 0,
          "scriptPubKey": {
            "asm": "048e49c5b06c1e39bec4d869c8ed6c43282900efbaa13e7ce13bd3c4db91ef116099e7fbf122c16d94a970b73a447f493aaf4e41f9bec016dea46734fe24652525 OP_CHECKSIG",
            "desc": "pk(048e49c5b06c1e39bec4d869c8ed6c43282900efbaa13e7ce13bd3c4db91ef116099e7fbf122c16d94a970b73a447f493aaf4e41f9bec016dea46734fe24652525)#z5588gtx",
            "hex": "41048e49c5b06c1e39bec4d869c8ed6c43282900efbaa13e7ce13bd3c4db91ef116099e7fbf122c16d94a970b73a447f493aaf4e41f9bec016dea46734fe24652525ac",
            "type": "pubkey"
          }
        }
      ],
      "hex": "01000000010000000000000000000000000000000000000000000000000000000000000000ffffffff0704ffff001d0115ffffffff0100f2052a010000004341048e49c5b06c1e39bec4d869c8ed6c43282900efbaa13e7ce13bd3c4db91ef116099e7fbf122c16d94a970b73a447f493aaf4e41f9bec016dea46734fe24652525ac00000000"
    }
  ]
}