{
  "hash": "00000000f51d5e5cffb6b011adcd8bef6cb92edeefe7a1c86c1d791d95d066ba",
  "confirmations": 43156,
  "height": 9942,
  "version": 1,
  "versionHex": "00000001",
  "merkleroot": "d40703128621ffa5e67d2d0129ea8c0a6bef31441240f13930d091374627a8d6",
  "time": 1238948765,
  "mediantime": 1238945714,
  "nonce": 2551599873,
  "bits": "1d00ffff",
  "difficulty": 1,
  "chainwork": "000000000000000000000000000000000000000000000000000026d726d726d7",
  "nTx": 1,
  "previousblockhash": "00000000a5b941282b2f31dc3bc772244eb8715b5a139113b8bc7315a1d0fb92",
  "nextblockhash": "00000000e1e952781d28b03566fbb8cd894cc93d2e55950b827d35b5e136c231",
  "strippedsize": 216,
  "size": 216,
  "weight": 864,
  "tx": [
    {
      "txid": "d40703128621ffa5e67d2d0129ea8c0a6bef31441240f13930d091374627a8d6",
      "hash": "d40703128621ffa5e67d2d0129ea8c0a6bef31441240f13930d091374627a8d6",
      "version": 1,
      "size": 135,
      "vsize": 135,
      "weight": 540,
      "locktime": 0,
      "vin": [
        {
          "coinbase": "04ffff001d029b02",
          "sequence": 4294967295
        }
      ],
      "vout": [
        {
          "value": 50.0,
          "n": 0,
          "scriptPubKey": {
            "asm": "04e2969393c44f5938f48dcfd5ef8305341e222239611be425cc1ceb1eceac18ef4586cc9de675425d45a1eed92976152cb6ec180a67c0576069900f32356bb15a OP_CHECKSIG",
            "desc": "pk(04e2969393c44f5938f48dcfd5ef8305341e222239611be425cc1ceb1eceac18ef4586cc9de675425d45a1eed92976152cb6ec180a67c0576069900f32356bb15a)#dymc4p00",
            "hex": "4104e2969393c44f5938f48dcfd5ef8305341e222239611be425cc1ceb1eceac18ef4586cc9de675425d45a1eed92976152cb6ec180a67c0576069900f32356bb15aac",
            "type": "pubkey"
          }
        }
      ],
      "hex": "01000000010000000000000000000000000000000000000000000000000000000000000000ffffffff0804ffff001d029b02ffffffff0100f2052a01000000434104e2969393c44f5938f48dcfd5ef8305341e222239611be425cc1ceb1eceac18ef4586cc9de675425d45a1eed92976152cb6ec180a67c0576069900f32356bb15aac00000000"
    }
  ]
}