{
  "hash": "00000000255db9eba93d22c7b4beefe19c08289501ed42a1cfe3c470507f3139",
  "confirmations": 50109,
  "height": 2989,
  "version": 1,
  "versionHex": "00000001",
  "merkleroot": "5f4930a44e5968f7efb0ec7924b775819ce6521152c4ab2ab1239a164951d51d",
  "time": 1233753509,
  "mediantime": 1233750665,
  "nonce": 3673899317,
  "bits": "1d00ffff",
  "difficulty": 1,
  "chainwork": "00000000000000000000000000000000000000000000000000000bae0bae0bae",
  "nTx": 1,
  "previousblockhash": "0000000036bb59b475092498b2acaffb89d4da42940bea65419638e25a37ff07",
  "nextblockhash": "0000000029a7476b452e3cbb70b34d2166b718d5934ecc69417047f035f6b268",
  "strippedsize": 216,
  "size": 216,
  "weight": 864,
  "tx": [
    {
      "txid": "5f4930a44e5968f7efb0ec7924b775819ce6521152c4ab2ab1239a164951d51d",
      "hash": "5f4930a44e5968f7efb0ec7924b775819ce6521152c4ab2ab1239a164951d51d",
      "version": 1,
      "size": 135,
      "vsize": 135,
      "weight": 540,
      "locktime": 0,
      "vin": [
        {
          "coinbase": "04ffff001d023d01",
          "sequence": 4294967295
        }
      ],
      "vout": [
        {
          "value": 50.0,
          "n": 0,
          "scriptPubKey": {
            "asm": "044d33c0fce58b1d00ee94a434c81f6aba945604112635df2654ec45440483ca5fec1fa83f8904b6893fd57b037a5c77d3fb78c88a6392636c54a9289c4a03895c OP_CHECKSIG",
            "desc": "pk(044d33c0fce58b1d00ee94a434c81f6aba945604112635df2654ec45440483ca5fec1fa83f8904b6893fd57b037a5c77d3fb78c88a6392636c54a9289c4a03895c)#44jkdjhv",
            "hex": "41044d33c0fce58b1d00ee94a434c81f6aba945604112635df2654ec45440483ca5fec1fa83f8904b6893fd57b037a5c77d3fb78c88a6392636c54a9289c4a03895cac",
            "type": "pubkey"
          }
        }
      ],
      "hex": "01000000010000000000000000000000000000000000000000000000000000000000000000ffffffff0804ffff001d023d01ffffffff0100f2052a010000004341044d33c0fce58b1d00ee94a434c81f6aba945604112635df2654ec45440483ca5fec1fa83f8904b6893fd57b037a5c77d3fb78c88a6392636c54a9289c4a03895cac00000000"
    }
  ]
}