{
  "hash": "000000004a639e0267d63fbe57f54bbad6fbb10f8b261b66ec1806a1b788fd38",
  "confirmations": 44462,
  "height": 8636,
  "version": 1,
  "versionHex": "00000001",
  "merkleroot": "a91aea82ed738974faec19ee1319445b5636979736d7e3e14d66442f980ea74d",
  "time": 1237973774,
  "mediantime": 1237969934,
  "nonce": 4269734656,
  "bits": "1d00ffff",
  "difficulty": 1,
  "chainwork": "000000000000000000000000000000000000000000000000000021bd21bd21bd",
  "nTx": 1,
  "previousblockhash": "000000007c193af7b3031cfa0280be044abd3b81e3cdc628dd6cb8b58b2ac190",
  "nextblockhash": "00000000aeace44d57a51c231a1b5e9a0edc21b77c32503c0b0c186161ce4e17",
  "strippedsize": 216,
  "size": 216,
  "weight": 864,
  "tx": [
    {
      "txid": "a91aea82ed738974faec19ee1319445b5636979736d7e3e14d66442f980ea74d",
      "hash": "a91aea82ed738974faec19ee1319445b5636979736d7e3e14d66442f980ea74d",
      "version": 1,
      "size": 135,
      "vsize": 135,
      "weight": 540,
      "locktime": 0,
      "vin": [
        {
          "coinbase": "04ffff001d02180a",
          "sequence": 4294967295
        }
      ],
      "vout": [
        {
          "value": 50.0,
          "n": 0,
          "scriptPubKey": {
            "asm": "04301ebcffb920d502110bfa825ccb94e7135f53b4d3ad12bfe95ec37f3becfd80779016af7b4a10f7544cad4bf01943503bcaa3fcc652125b8a8829fed8100a79 OP_CHECKSIG",
            "desc": "pk(04301ebcffb920d502110bfa825ccb94e7135f53b4d3ad12bfe95ec37f3becfd80779016af7b4a10f7544cad4bf01943503bcaa3fcc652125b8a8829fed8100a79)#gude66cm",
            "hex": "4104301ebcffb920d502110bfa825ccb94e7135f53b4d3ad12bfe95ec37f3becfd80779016af7b4a10f7544cad4bf01943503bcaa3fcc652125b8a8829fed8100a79ac",
            "type": "pubkey"
          }
        }
      ],
      "hex": "01000000010000000000000000000000000000000000000000000000000000000000000000ffffffff0804ffff001d02180affffffff0100f2052a01000000434104301ebcffb920d502110bfa825ccb94e7135f53b4d3ad12bfe95ec37f3becfd80779016af7b4a10f7544cad4bf01943503bcaa3fcc652125b8a8829fed8100a79ac00000000"
    }
  ]
}