{
  "hash": "00000000be82eeae362817e100b553d5ceee2437ea28621b1e32aa570898aea0",
  "confirmations": 48195,
  "height": 4903,
  "version": 1,
  "versionHex": "00000001",
  "merkleroot": "2893fce1ed298c8c8f1c5fc1d58d5eb935bcf9a4e13adb8a274ff020c20c2ab8",
  "time": 1235072248,
  "mediantime": 1235068903,
  "nonce": 2158269954,
  "bits": "1d00ffff",
  "difficulty": 1,
  "chainwork": "0000000000000000000000000000000000000000000000000000132813281328",
  "nTx": 1,
  "previousblockhash": "00000000c11cd998d8a5b461a50c0a9f64c537374082ae0c2427dd48724a5623",
  "nextblockhash": "0000000072ff7c38ef0b58e75a42ba81ff969094d57e1f4febb8904bc9a48eda",
  "strippedsize": 216,
  "size": 216,
  "weight": 864,
  "tx": [
    {
      "txid": "2893fce1ed298c8c8f1c5fc1d58d5eb935bcf9a4e13adb8a274ff020c20c2ab8",
      "hash": "2893fce1ed298c8c8f1c5fc1d58d5eb935bcf9a4e13adb8a274ff020c20c2ab8",
      "version": 1,
      "size": 135,
      "vsize": 135,
      "weight": 540,
      "locktime": 0,
      "vin": [
        {
          "coinbase": "04ffff001d02a805",
          "sequence": 4294967295
        }
      ],
      "vout": [
        {
          "value": 50.0,
          "n": 0,
          "scriptPubKey": {
            "asm": "04da3740868f1c2c77089bafbd6b0642ee928e9cd5b7f3dcad971edcfacc8318f47b44f929ac0be8b9609113ddc2ac175ea41f04581d49bb9a3cd1e9e176b11ba8 OP_CHECKSIG",
            "desc": "pk(04da3740868f1c2c77089bafbd6b0642ee928e9cd5b7f3dcad971edcfacc8318f47b44f929ac0be8b9609113ddc2ac175ea41f04581d49bb9a3cd1e9e176b11ba8)#spymxpkx",
            "hex": "4104da3740868f1c2c77089bafbd6b0642ee928e9cd5b7f3dcad971edcfacc8318f47b44f929ac0be8b9609113ddc2ac175ea41f04581d49bb9a3cd1e9e176b11ba8ac",
            "type": "pubkey"
          }
        }
      ],
      "hex": "01000000010000000000000000000000000000000000000000000000000000000000000000ffffffff0804ffff001d02a805ffffffff0100f2052a01000000434104da3740868f1c2c77089bafbd6b0642ee928e9cd5b7f3dcad971edcfacc8318f47b44f929ac0be8b9609113ddc2ac175ea41f04581d49bb9a3cd1e9e176b11ba8ac00000000"
    }
  ]
}