{
  "hash": "00000000677e3263de6e6972545f43c9eec825a1d39acbfc5820a94519f1684a",
  "confirmations": 52142,
  "height": 956,
  "version": 1,
  "versionHex": "00000001",
  "merkleroot": "a13ddfee9849bf8198ed48896a9e725fd8a2e65bfdc77bf9f3520f0c8e92a00b",
  "time": 1232316957,
  "mediantime": 1232313891,
  "nonce": 92968201,
  "bits": "1d00ffff",
  "difficulty": 1,
  "chainwork": "000000000000000000000000000000000000000000000000000003bd03bd03bd",
  "nTx": 1,
  "previousblockhash": "00000000ad13c8f434895ab7d6773e07b7e1110bd4165a2335376d0563a0e735",
  "nextblockhash": "0000000074162224a54140815b571531707bacd94259d5593424f35aad5d35d1",
  "strippedsize": 216,
  "size": 216,
  "weight": 864,
  "tx": [
    {
      "txid": "a13ddfee9849bf8198ed48896a9e725fd8a2e65bfdc77bf9f3520f0c8e92a00b",
      "hash": "a13ddfee9849bf8198ed48896a9e725fd8a2e65bfdc77bf9f3520f0c8e92a00b",
      "version": 1,
      "size": 135,
      "vsize": 135,
      "weight": 540,
      "locktime": 0,
      "vin": [
        {
          "coinbase": "04ffff001d02a400",
          "sequence": 4294967295
        }
      ],
      "vout": [
        {
          "value": 50.0,
          "n": 0,
          "scriptPubKey": {
            "asm": "04946fe4f658ad101126dbe9ca1abbdf9af65caade82862704f8c6e449fe1fb67a24243913502cde52863fe97ffbbc13d3e22eee1a12d4ab6888fa8338c9322e1f OP_CHECKSIG",
            "desc": "pk(04946fe4f658ad101126dbe9ca1abbdf9af65caade82862704f8c6e449fe1fb67a24243913502cde52863fe97ffbbc13d3e22eee1a12d4ab6888fa8338c9322e1f)#t3uf06nl",
            "hex": "4104946fe4f658ad101126dbe9ca1abbdf9af65caade82862704f8c6e449fe1fb67a24243913502cde52863fe97ffbbc13d3e22eee1a12d4ab6888fa8338c9322e1fac",
            "type": "pubkey"
          }
        }
      ],
      "hex": "01000000010000000000000000000000000000000000000000000000000000000000000000ffffffff0804ffff001d02a400ffffffff0100f2052a01000000434104946fe4f658ad101126dbe9ca1abbdf9af65caade82862704f8c6e449fe1fb67a24243913502cde52863fe97ffbbc13d3e22eee1a12d4ab6888fa8338c9322e1fac00000000"
    }
  ]
}