{
  "hash": "000000009b7c5fa97e36106f2c0de5fdb16520f7ba249b67e48aa863a9fe3ac0",
  "confirmations": 47690,
  "height": 5408,
  "version": 1,
  "versionHex": "00000001",
  "merkleroot": "a4dbfd98b5e092d7595e22bcbb06b808165c60acc0f642abce0ac43957b7a112",
  "time": 1235446073,
  "mediantime": 1235443472,
  "nonce": 2809094146,
  "bits": "1d00ffff",
  "difficulty": 1,
  "chainwork": "0000000000000000000000000000000000000000000000000000152115211521",
  "nTx": 1,
  "previousblockhash": "0000000031b4908babc1ec2ab421b0c29b9008f060e84739031836f8ddf30255",
  "nextblockhash": "0000000064b2fede9902af1a7c5de4bd5fcbc15e766bef1792e3c3a63eff0624",
  "strippedsize": 216,
  "size": 216,
  "weight": 864,
  "tx": [
    {
      "txid": "a4dbfd98b5e092d7595e22bcbb06b808165c60acc0f642abce0ac43957b7a112",
      "hash": "a4dbfd98b5e092d7595e22bcbb06b808165c60acc0f642abce0ac43957b7a112",
      "version": 1,
      "size": 135,
      "vsize": 135,
      "weight": 540,
      "locktime": 0,
      "vin": [
        {
          "coinbase": "04ffff001d02c103",
          "sequence": 4294967295
        }
      ],
      "vout": [
        {
          "value": 50.0,
          "n": 0,
          "scriptPubKey": {
            "asm": "043d67587e69a6e87ccb78132600e7d9fe747670dde74c281b3b97eb986ab0680bb40288ba44f6fc922e721c087a15fe8c40de328ee663c47a7a3e5cfd0ea391bd OP_CHECKSIG",
            "desc": "pk(043d67587e69a6e87ccb78132600e7d9fe747670dde74c281b3b97eb986ab0680bb40288ba44f6fc922e721c087a15fe8c40de328ee663c47a7a3e5cfd0ea391bd)#pv6tpcua",
            "hex": "41043d67587e69a6e87ccb78132600e7d9fe747670dde74c281b3b97eb986ab0680bb40288ba44f6fc922e721c087a15fe8c40de328ee663c47a7a3e5cfd0ea391bdac",
            "type": "pubkey"
          }
        }
      ],
      "hex": "01000000010000000000000000000000000000000000000000000000000000000000000000ffffffff0804ffff001d02c103ffffffff0100f2052a010000004341043d67587e69a6e87ccb78132600e7d9fe747670dde74c281b3b97eb986ab0680bb40288ba44f6fc922e721c087a15fe8c40de328ee663c47a7a3e5cfd0ea391bdac00000000"
    }
  ]
}