{
  "hash": "0000000096e0727225066eb269b7a755ae641168f919a1a6d9e2838f641e70d5",
  "confirmations": 43974,
  "height": 9124,
  "version": 1,
  "versionHex": "00000001",
  "merkleroot": "e300c68c6ad84277a1d4ac3fba968c0a2a03dfa34ab5853fb5b82b5051cd1b38",
  "time": 1238346984,
  "mediantime": 1238343795,
  "nonce": 1887325743,
  "bits": "1d00ffff",
  "difficulty": 1,
  "chainwork": "000000000000000000000000000000000000000000000000000023a523a523a5",
  "nTx": 1,
  "previousblockhash": "00000000c12a769238ea24d69091d0bb501cfe00a7fc1d69c8379435a92bb908",
  "nextblockhash": "000000003be9486e499a818564557040a44ef27bc8ac71b9af93c75262ab0b94",
  "strippedsize": 216,
  "size": 216,
  "weight": 864,
  "tx": [
    {
      "txid": "e300c68c6ad84277a1d4ac3fba968c0a2a03dfa34ab5853fb5b82b5051cd1b38",
      "hash": "e300c68c6ad84277a1d4ac3fba968c0a2a03dfa34ab5853fb5b82b5051cd1b38",
      "version": 1,
      "size": 135,
      "vsize": 135,
      "weight": 540,
      "locktime": 0,
      "vin": [
        {
          "coinbase": "04ffff001d02d008",
          "sequence": 4294967295
        }
      ],
      "vout": [
        {
          "value": 50.0,
          "n": 0,
          "scriptPubKey": {
            "asm": "04829e84be2e6395c57d5170fe54255f38cb0ca17a87c2e45080158e2b00d2a6c86220ad93452a9547b1170045be004faf64c9df26029be0184a6d6a104cac6ba2 OP_CHECKSIG",
            "desc": "pk(04829e84be2e6395c57d5170fe54255f38cb0ca17a87c2e45080158e2b00d2a6c86220ad93452a9547b1170045be004faf64c9df26029be0184a6d6a104cac6ba2)#ekg6h6kg",
            "hex": "4104829e84be2e6395c57d5170fe54255f38cb0ca17a87c2e45080158e2b00d2a6c86220ad93452a9547b1170045be004faf64c9df26029be0184a6d6a104cac6ba2ac",
            "type": "pubkey"
          }
        }
      ],
      "hex": "01000000010000000000000000000000000000000000000000000000000000000000000000ffffffff0804ffff001d02d008ffffffff0100f2052a01000000434104829e84be2e6395c57d5170fe54255f38cb0ca17a87c2e45080158e2b00d2a6c86220ad93452a9547b1170045be004faf64c9df26029be0184a6d6a104cac6ba2ac00000000"
    }
  ]
}