{
  "hash": "000000004d6162db48e96c60539ee73637524ad11e0b401c6bd327a13e3ab865",
  "confirmations": 51684,
  "height": 1414,
  "version": 1,
  "versionHex": "00000001",
  "merkleroot": "b3172b472ad35adb9e9db232d58e0d4a5cd0612f9b443a12a23c11e8a673b259",
  "time": 1232731121,
  "mediantime": 1232729315,
  "nonce": 1200350750,
  "bits": "1d00ffff",
  "difficulty": 1,
  "chainwork": "0000000000000000000000000000000000000000000000000000058705870587",
  "nTx": 1,
  "previousblockhash": "000000006f7aeefb7422772dab079d9b7d720bacf1e484db7b139c97adafb113",
  "nextblockhash": "00000000e9470e3bcf702822ecee32a6f686f0dac42b5dcfc4a3b1feffce6128",
  "strippedsize": 215,
  "size": 215,
  "weight": 860,
  "tx": [
    {
      "txid": "b3172b472ad35adb9e9db232d58e0d4a5cd0612f9b443a12a23c11e8a673b259",
      "hash": "b3172b472ad35adb9e9db232d58e0d4a5cd0612f9b443a12a23c11e8a673b259",
      "version": 1,
      "size": 134,
      "vsize": 134,
      "weight": 536,
      "locktime": 0,
      "vin": [
        {
          "coinbase": "04ffff001d014e",
          "sequence": 4294967295
        }
      ],
      "vout": [
        {
          "value": 50.0,
          "n": 0,
          "scriptPubKey": {
            "asm": "049f4f130f0b06a818c23e7c2f867957e50d161be9e4ae708ce81f47072fad36b1d8b0838bb7c71b84f960ac098caf814f9636850ddf1a49e0c10169e5578da868 OP_CHECKSIG",
            "desc": "pk(049f4f130f0b06a818c23e7c2f867957e50d161be9e4ae708ce81f47072fad36b1d8b0838bb7c71b84f960ac098caf814f9636850ddf1a49e0c10169e5578da868)#0q37xgm5",
            "hex": "41049f4f130f0b06a818c23e7c2f867957e50d161be9e4ae708ce81f47072fad36b1d8b0838bb7c71b84f960ac098caf814f9636850ddf1a49e0c10169e5578da868ac",
            "type": "pubkey"
          }
        }
      ],
      "hex": "01000000010000000000000000000000000000000000000000000000000000000000000000ffffffff0704ffff001d014effffffff0100f2052a010000004341049f4f130f0b06a818c23e7c2f867957e50d161be9e4ae708ce81f47072fad36b1d8b0838bb7c71b84f960ac098caf814f9636850ddf1a49e0c10169e5578da868ac00000000"
    }
  ]
}