{
  "hash": "00000000858da1c33337cb05b63b2f6a1897a32d1e8d71e54e6fba72311510e3",
  "confirmations": 44934,
  "height": 8164,
  "version": 1,
  "versionHex": "00000001",
  "merkleroot": "ad4ee49948f0a677e699a3b39d40f939edf5fa4542a10a912b8a26fe102ae609",
  "time": 1237581649,
  "mediantime": 1237578083,
  "nonce": 2185136186,
  "bits": "1d00ffff",
  "difficulty": 1,
  "chainwork": "00000000000000000000000000000000000000000000000000001fe51fe51fe5",
  "nTx": 1,
  "previousblockhash": "0000000092b75372616c964eb3eac4c914fe79fb48aa9e8264bfecfc6e6aaab7",
  "nextblockhash": "000000001de30cff4e1b00c0343aa622db0b2f5a2f61be7beb70344410d00f74",
  "strippedsize": 216,
  "size": 216,
  "weight": 864,
  "tx": [
    {
      "txid": "ad4ee49948f0a677e699a3b39d40f939edf5fa4542a10a912b8a26fe102ae609",
      "hash": "ad4ee49948f0a677e699a3b39d40f939edf5fa4542a10a912b8a26fe102ae609",
      "version": 1,
      "size": 135,
      "vsize": 135,
      "weight": 540,
      "locktime": 0,
      "vin": [
        {
          "coinbase": "04ffff001d024702",
          "sequence": 4294967295
        }
      ],
      "vout": [
        {
          "value": 50.0,
          "n": 0,
          "scriptPubKey": {
            "asm": "04fe986dc99dcbfacf6aa2285ba99a30f6ade0a56560fdcb4d09b32b5f5d93432e92b5ac2e8413ec2d4e06233e3f9e66a4e788372b58d50cae5d8ae54797690d47 OP_CHECKSIG",
            "desc": "pk(04fe986dc99dcbfacf6aa2285ba99a30f6ade0a56560fdcb4d09b32b5f5d93432e92b5ac2e8413ec2d4e06233e3f9e66a4e788372b58d50cae5d8ae54797690d47)#zk9u9c3f",
            "hex": "4104fe986dc99dcbfacf6aa2285ba99a30f6ade0a56560fdcb4d09b32b5f5d93432e92b5ac2e8413ec2d4e06233e3f9e66a4e788372b58d50cae5d8ae54797690d47ac",
            "type": "pubkey"
          }
        }
      ],
      "hex": "01000000010000000000000000000000000000000000000000000000000000000000000000ffffffff0804ffff001d024702ffffffff0100f2052a01000000434104fe986dc99dcbfacf6aa2285ba99a30f6ade0a56560fdcb4d09b32b5f5d93432e92b5ac2e8413ec2d4e06233e3f9e66a4e788372b58d50cae5d8ae54797690d47ac00000000"
    }
  ]
}