{
  "hash": "000000007a6594c38dd63ed6fe9b0954eb0703350ee7a9f98a7fe82bf9abfaac",
  "confirmations": 43462,
  "height": 9636,
  "version": 1,
  "versionHex": "00000001",
  "merkleroot": "f2cde2fa2a5865005dd249c105f35cb4ed30f1bd6e39768a5da65e9344e928d5",
  "time": 1238729130,
  "mediantime": 1238726207,
  "nonce": 1403900453,
  "bits": "1d00ffff",
  "difficulty": 1,
  "chainwork": "000000000000000000000000000000000000000000000000000025a525a525a5",
  "nTx": 1,
  "previousblockhash": "00000000a0fac1ecca01d1eb33ce4981634ee2de5b6ebd944988a5010b147359",
  "nextblockhash": "00000000aa9e3062f3cfa493043c03d8f2b17bd524d93d5cb0116f1366c278bd",
  "strippedsize": 216,
  "size": 216,
  "weight": 864,
  "tx": [
    {
      "txid": "f2cde2fa2a5865005dd249c105f35cb4ed30f1bd6e39768a5da65e9344e928d5",
      "hash": "f2cde2fa2a5865005dd249c105f35cb4ed30f1bd6e39768a5da65e9344e928d5",
      "version": 1,
      "size": 135,
      "vsize": 135,
      "weight": 540,
      "locktime": 0,
      "vin": [
        {
          "coinbase": "04ffff001d029207",
          "sequence": 4294967295
        }
      ],
      "vout": [
        {
          "value": 50.0,
          "n": 0,
          "scriptPubKey": {
            "asm": "046c636aa3bde5d10947bc0756a0ae495d9c1a69e5ff780be33b6e78bc05419f79828051c72526230f31be3d468bed31531a651ba8cecf01f2309d26cbf5d74c4a OP_CHECKSIG",
            "desc": "pk(046c636aa3bde5d10947bc0756a0ae495d9c1a69e5ff780be33b6e78bc05419f79828051c72526230f31be3d468bed31531a651ba8cecf01f2309d26cbf5d74c4a)#gw4h47v3",
            "hex": "41046c636aa3bde5d10947bc0756a0ae495d9c1a69e5ff780be33b6e78bc05419f79828051c72526230f31be3d468bed31531a651ba8cecf01f2309d26cbf5d74c4aac",
            "type": "pubkey"
          }
        }
      ],
      "hex": "01000000010000000000000000000000000000000000000000000000000000000000000000ffffffff0804ffff001d029207ffffffff0100f2052a010000004341046c636aa3bde5d10947bc0756a0ae495d9c1a69e5ff780be33b6e78bc05419f79828051c72526230f31be3d468bed31531a651ba8cecf01f2309d26cbf5d74c4aac00000000"
    }
  ]
}