{
  "hash": "000000001a5c4531f86aa874e711e1882038336e2610f70ce750cdd690c57a81",
  "confirmations": 51863,
  "height": 47,
  "version": 1,
  "versionHex": "00000001",
  "merkleroot": "d17b9c9c609309049dfb9005edd7011f02d7875ca7dab6effddf4648bb70eff6",
  "time": 1231612888,
  "mediantime": 1231609153,
  "nonce": 2957174816,
  "bits": "1d00ffff",
  "difficulty": 1,
  "chainwork": "0000000000000000000000000000000000000000000000000000003000300030",
  "nTx": 1,
  "previousblockhash": "0000000002d5f429a2e3a9d9f82b777469696deb64038803c87833aa8ee9c08e",
  "nextblockhash": "0000000088960278f4060b8747027b2aac0eb443aedbb1b75d1a72cf71826e89",
  "strippedsize": 215,
  "size": 215,
  "weight": 860,
  "tx": [
    {
      "txid": "d17b9c9c609309049dfb9005edd7011f02d7875ca7dab6effddf4648bb70eff6",
      "hash": "d17b9c9c609309049dfb9005edd7011f02d7875ca7dab6effddf4648bb70eff6",
      "version": 1,
      "size": 134,
      "vsize": 134,
      "weight": 536,
      "locktime": 0,
      "vin": [
        {
          "coinbase": "04ffff001d0130",
          "sequence": 4294967295
        }
      ],
      "vout": [
        {
          "value": 50.0,
          "n": 0,
          "scriptPubKey": {
            "asm": "04a4a43c49a491bcad58a1578ddeed00ee13ac58c33a4d50fdb0b06d2ca97b6791097e127f9a4fe2d8f952b2420ef82c669c84d3e65d4fce257d707ec214562c29 OP_CHECKSIG",
            "desc": "pk(04a4a43c49a491bcad58a1578ddeed00ee13ac58c33a4d50fdb0b06d2ca97b6791097e127f9a4fe2d8f952b2420ef82c669c84d3e65d4fce257d707ec214562c29)#5xwptve8",
            "hex": "4104a4a43c49a491bcad58a1578ddeed00ee13ac58c33a4d50fdb0b06d2ca97b6791097e127f9a4fe2d8f952b2420ef82c669c84d3e65d4fce257d707ec214562c29ac",
            "type": "pubkey"
          }
        }
      ],
      "hex": "01000000010000000000000000000000000000000000000000000000000000000000000000ffffffff0704ffff001d0130ffffffff0100f2052a01000000434104a4a43c49a491bcad58a1578ddeed00ee13ac58c33a4d50fdb0b06d2ca97b6791097e127f9a4fe2d8f952b2420ef82c669c84d3e65d4fce257d707ec214562c29ac00000000"
    }
  ]
}