{
  "hash": "00000000342bca0a9b862adc6ac6e699e352a4b83d1cf0036a7a1c20b3de6971",
  "confirmations": 49019,
  "height": 4079,
  "version": 1,
  "versionHex": "00000001",
  "merkleroot": "adecbe143ec673d3efad3bc42386e57514e3e603a8709434584102c431b6958e",
  "time": 1234495974,
  "mediantime": 1234493759,
  "nonce": 1614544182,
  "bits": "1d00ffff",
  "difficulty": 1,
  "chainwork": "00000000000000000000000000000000000000000000000000000ff00ff00ff0",
  "nTx": 1,
  "previousblockhash": "000000004c4ccb7711e392a62bcd356286ed12b94e34d1028530933de77c3145",
  "nextblockhash": "00000000628011027537d168255ede078a0313ed94eeed942645213a6e98c804",
  "strippedsize": 216,
  "size": 216,
  "weight": 864,
  "tx": [
    {
      "txid": "adecbe143ec673d3efad3bc42386e57514e3e603a8709434584102c431b6958e",
      "hash": "adecbe143ec673d3efad3bc42386e57514e3e603a8709434584102c431b6958e",
      "version": 1,
      "size": 135,
      "vsize": 135,
      "weight": 540,
      "locktime": 0,
      "vin": [
        {
          "coinbase": "04ffff001d029b05",
          "sequence": 4294967295
        }
      ],
      "vout": [
        {
          "value": 50.0,
          "n": 0,
          "scriptPubKey": {
            "asm": "0468867976445f292bda00e82b7ed902c82880fa6d53bdaf4dda33bf4e80e5049e1aeb906261d4f6e7f959713809d39c84020c4ca29411de9b9035b8cd129d6f54 OP_CHECKSIG",
            "desc": "pk(0468867976445f292bda00e82b7ed902c82880fa6d53bdaf4dda33bf4e80e5049e1aeb906261d4f6e7f959713809d39c84020c4ca29411de9b9035b8cd129d6f54)#vzyt0p7q",
            "hex": "410468867976445f292bda00e82b7ed902c82880fa6d53bdaf4dda33bf4e80e5049e1aeb906261d4f6e7f959713809d39c84020c4ca29411de9b9035b8cd129d6f54ac",
            "type": "pubkey"
          }
        }
      ],
      "hex": "01000000010000000000000000000000000000000000000000000000000000000000000000ffffffff0804ffff001d029b05ffffffff0100f2052a0100000043410468867976445f292bda00e82b7ed902c82880fa6d53bdaf4dda33bf4e80e5049e1aeb906261d4f6e7f959713809d39c84020c4ca29411de9b9035b8cd129d6f54ac00000000"
    }
  ]
}