{
  "hash": "000000006b3275f11168b473cef0830a354e8e7ee4d4a740c84f0423adc4c54c",
  "confirmations": 47806,
  "height": 5292,
  "version": 1,
  "versionHex": "00000001",
  "merkleroot": "373b6a1aac6e8efbedca7ddb121835b7b02792c299912089bcbc62a6302221c8",
  "time": 1235355102,
  "mediantime": 1235349903,
  "nonce": 1106395705,
  "bits": "1d00ffff",
  "difficulty": 1,
  "chainwork": "000000000000000000000000000000000000000000000000000014ad14ad14ad",
  "nTx": 1,
  "previousblockhash": "00000000442772a606f286ca57d5786f64b3bf1f600d47c413023aca7f1d20ac",
  "nextblockhash": "000000002e1f715b21279b96cce36ca9fce9caf871912b172fe6a10feef3c939",
  "strippedsize": 216,
  "size": 216,
  "weight": 864,
  "tx": [
    {
      "txid": "373b6a1aac6e8efbedca7ddb121835b7b02792c299912089bcbc62a6302221c8",
      "hash": "373b6a1aac6e8efbedca7ddb121835b7b02792c299912089bcbc62a6302221c8",
      "version": 1,
      "size": 135,
      "vsize": 135,
      "weight": 540,
      "locktime": 0,
      "vin": [
        {
          "coinbase": "04ffff001d02f101",
          "sequence": 4294967295
        }
      ],
      "vout": [
        {
          "value": 50.0,
          "n": 0,
          "scriptPubKey": {
            "asm": "04b01f32e334af1c8cbda351349a2521ece5332411837bd3705003ee1d767f7a47a6fa8a18cedaebae34714432ce94cb7f9371935ba3f5eb17eba3eca01053de88 OP_CHECKSIG",
            "desc": "pk(04b01f32e334af1c8cbda351349a2521ece5332411837bd3705003ee1d767f7a47a6fa8a18cedaebae34714432ce94cb7f9371935ba3f5eb17eba3eca01053de88)#atkjdzyj",
            "hex": "4104b01f32e334af1c8cbda351349a2521ece5332411837bd3705003ee1d767f7a47a6fa8a18cedaebae34714432ce94cb7f9371935ba3f5eb17eba3eca01053de88ac",
            "type": "pubkey"
          }
        }
      ],
      "hex": "01000000010000000000000000000000000000000000000000000000000000000000000000ffffffff0804ffff001d02f101ffffffff0100f2052a01000000434104b01f32e334af1c8cbda351349a2521ece5332411837bd3705003ee1d767f7a47a6fa8a18cedaebae34714432ce94cb7f9371935ba3f5eb17eba3eca01053de88ac00000000"
    }
  ]
}