{
  "hash": "00000000e47349de5a0193abc5a2fe0be81cb1d1987e45ab85f3289d54cddc4d",
  "confirmations": 52243,
  "height": 495,
  "version": 1,
  "versionHex": "00000001",
  "merkleroot": "d2a17dd46af545946132b7b6107b93f534483d79460c3dd23a26c68b498fe0c4",
  "time": 1231964596,
  "mediantime": 1231962298,
  "nonce": 883307825,
  "bits": "1d00ffff",
  "difficulty": 1,
  "chainwork": "000000000000000000000000000000000000000000000000000001f001f001f0",
  "nTx": 1,
  "previousblockhash": "000000004fb61ae8e99040c4e1e3b4d333dbe867f97f63ab4238cba80f59204a",
  "nextblockhash": "00000000b0c5a240b2a61d2e75692224efd4cbecdf6eaf4cc2cf477ca7c270e7",
  "strippedsize": 216,
  "size": 216,
  "weight": 864,
  "tx": [
    {
      "txid": "d2a17dd46af545946132b7b6107b93f534483d79460c3dd23a26c68b498fe0c4",
      "hash": "d2a17dd46af545946132b7b6107b93f534483d79460c3dd23a26c68b498fe0c4",
      "version": 1,
      "size": 135,
      "vsize": 135,
      "weight": 540,
      "locktime": 0,
      "vin": [
        {
          "coinbase": "04ffff001d026204",
          "sequence": 4294967295
        }
      ],
      "vout": [
        {
          "value": 50.0,
          "n": 0,
          "scriptPubKey": {
            "asm": "044f66f62f6c3456332a3bdbfa30dda1b87744c25fac83955f995e60d60b53880ae7d3cefbb2e9149a4c099313d09e26b08951a8efc7c079013a2ef47294890477 OP_CHECKSIG",
            "desc": "pk(044f66f62f6c3456332a3bdbfa30dda1b87744c25fac83955f995e60d60b53880ae7d3cefbb2e9149a4c099313d09e26b08951a8efc7c079013a2ef47294890477)#fzpu3t32",
            "hex": "41044f66f62f6c3456332a3bdbfa30dda1b87744c25fac83955f995e60d60b53880ae7d3cefbb2e9149a4c099313d09e26b08951a8efc7c079013a2ef47294890477ac",
            "type": "pubkey"
          }
        }
      ],
      "hex": "01000000010000000000000000000000000000000000000000000000000000000000000000ffffffff0804ffff001d026204ffffffff0100f2052a010000004341044f66f62f6c3456332a3bdbfa30dda1b87744c25fac83955f995e60d60b53880ae7d3cefbb2e9149a4c099313d09e26b08951a8efc7c079013a2ef47294890477ac00000000"
    }
  ]
}