{
  "hash": "000000004418af7fdcb9d1b8adc5332ac5361efb36601344087de0d6f964fa84",
  "confirmations": 44358,
  "height": 8740,
  "version": 1,
  "versionHex": "00000001",
  "merkleroot": "134c705daecddda32511929e4ed6ba6fdfcab1c22bfc4b34cff445d92755a23a",
  "time": 1238051590,
  "mediantime": 1238048027,
  "nonce": 2468607747,
  "bits": "1d00ffff",
  "difficulty": 1,
  "chainwork": "0000000000000000000000000000000000000000000000000000222522252225",
  "nTx": 1,
  "previousblockhash": "0000000005330057f103f6952ccbf26832f348c8151ed4e0bf6de798c2514a55",
  "nextblockhash": "00000000d7e307b6e5058c3aab82f27e5f9705ae8509317a95571e66ac28b5f6",
  "strippedsize": 216,
  "size": 216,
  "weight": 864,
  "tx": [
    {
      "txid": "134c705daecddda32511929e4ed6ba6fdfcab1c22bfc4b34cff445d92755a23a",
      "hash": "134c705daecddda32511929e4ed6ba6fdfcab1c22bfc4b34cff445d92755a23a",
      "version": 1,
      "size": 135,
      "vsize": 135,
      "weight": 540,
      "locktime": 0,
      "vin": [
        {
          "coinbase": "04ffff001d029c01",
          "sequence": 4294967295
        }
      ],
      "vout": [
        {
          "value": 50.0,
          "n": 0,
          "scriptPubKey": {
            "asm": "04d1946b33d2d22d757815714116a9720ce715816145b4b152161e46d5b606c49d76d8538b8abf194854c0a81392ca60d64a41b9850f9aef9df7905bd56e7b1bdb OP_CHECKSIG",
            "desc": "pk(04d1946b33d2d22d757815714116a9720ce715816145b4b152161e46d5b606c49d76d8538b8abf194854c0a81392ca60d64a41b9850f9aef9df7905bd56e7b1bdb)#fpmq96lx",
            "hex": "4104d1946b33d2d22d757815714116a9720ce715816145b4b152161e46d5b606c49d76d8538b8abf194854c0a81392ca60d64a41b9850f9aef9df7905bd56e7b1bdbac",
            "type": "pubkey"
          }
        }
      ],
      "hex": "01000000010000000000000000000000000000000000000000000000000000000000000000ffffffff0804ffff001d029c01ffffffff0100f2052a01000000434104d1946b33d2d22d757815714116a9720ce715816145b4b152161e46d5b606c49d76d8538b8abf194854c0a81392ca60d64a41b9850f9aef9df7905bd56e7b1bdbac00000000"
    }
  ]
}