{
  "hash": "000000004022f29215d660e57f57a9e6875d20f7331ba5bf5b9ba2e85a67dad3",
  "confirmations": 49368,
  "height": 3730,
  "version": 1,
  "versionHex": "00000001",
  "merkleroot": "fe79f9c6f998aa8e6ff1af996853ab4112e5f670084413c8b4b5fec43de37c98",
  "time": 1234254324,
  "mediantime": 1234251356,
  "nonce": 2418407966,
  "bits": "1d00ffff",
  "difficulty": 1,
  "chainwork": "00000000000000000000000000000000000000000000000000000e930e930e93",
  "nTx": 1,
  "previousblockhash": "00000000d74a42e428e2d21e464cd9d6e72e74fac48a8389881b1cbd1932b564",
  "nextblockhash": "00000000c4548fab1772700e7b3bc812238180e39db8e61e4c129610a2e3d0ed",
  "strippedsize": 215,
  "size": 215,
  "weight": 860,
  "tx": [
    {
      "txid": "fe79f9c6f998aa8e6ff1af996853ab4112e5f670084413c8b4b5fec43de37c98",
      "hash": "fe79f9c6f998aa8e6ff1af996853ab4112e5f670084413c8b4b5fec43de37c98",
      "version": 1,
      "size": 134,
      "vsize": 134,
      "weight": 536,
      "locktime": 0,
      "vin": [
        {
          "coinbase": "04ffff001d0140",
          "sequence": 4294967295
        }
      ],
      "vout": [
        {
          "value": 50.0,
          "n": 0,
          "scriptPubKey": {
            "asm": "04b8db1ac80f7a78e17f3ec41c05be1b8dd450b9d2f2b22c4862b2790f22a781af277a27e15a061b794d544a3b8a39a5f819ee082d8e95e4f53a0b249bc7d5d932 OP_CHECKSIG",
            "desc": "pk(04b8db1ac80f7a78e17f3ec41c05be1b8dd450b9d2f2b22c4862b2790f22a781af277a27e15a061b794d544a3b8a39a5f819ee082d8e95e4f53a0b249bc7d5d932)#ra5wmtf5",
            "hex": "4104b8db1ac80f7a78e17f3ec41c05be1b8dd450b9d2f2b22c4862b2790f22a781af277a27e15a061b794d544a3b8a39a5f819ee082d8e95e4f53a0b249bc7d5d932ac",
            "type": "pubkey"
          }
        }
      ],
      "hex": "01000000010000000000000000000000000000000000000000000000000000000000000000ffffffff0704ffff001d0140ffffffff0100f2052a01000000434104b8db1ac80f7a78e17f3ec41c05be1b8dd450b9d2f2b22c4862b2790f22a781af277a27e15a061b794d544a3b8a39a5f819ee082d8e95e4f53a0b249bc7d5d932ac00000000"
    }
  ]
}