{
  "hash": "00000000bf8956b891713a9f303a948d21d2ea5f604d2378ef08b14afc8e9e78",
  "confirmations": 52251,
  "height": 847,
  "version": 1,
  "versionHex": "00000001",
  "merkleroot": "1a959426f24222d539abfd0b2918972f203810cf914d9697b3a815de18141f7c",
  "time": 1232226781,
  "mediantime": 1232223930,
  "nonce": 2094204679,
  "bits": "1d00ffff",
  "difficulty": 1,
  "chainwork": "0000000000000000000000000000000000000000000000000000035003500350",
  "nTx": 1,
  "previousblockhash": "00000000860c6496748e13bf192d9a183d43e624be095b0843aa7fcac6eee317",
  "nextblockhash": "00000000249882bd5f1b31768397d8da9be83b1f6d85433adaa3f7dba16df466",
  "strippedsize": 216,
  "size": 216,
  "weight": 864,
  "tx": [
    {
      "txid": "1a959426f24222d539abfd0b2918972f203810cf914d9697b3a815de18141f7c",
      "hash": "1a959426f24222d539abfd0b2918972f203810cf914d9697b3a815de18141f7c",
      "version": 1,
      "size": 135,
      "vsize": 135,
      "weight": 540,
      "locktime": 0,
      "vin": [
        {
          "coinbase": "04ffff001d025a02",
          "sequence": 4294967295
        }
      ],
      "vout": [
        {
          "value": 50.0,
          "n": 0,
          "scriptPubKey": {
            "asm": "045c9186e1065aaaac4d5ee848ce715f2bd1b4835000f786604163d7fecf597b5c1253a69c18d0275df25c99b93fbcf2ba29702a87a080e98a3b02770a62a82249 OP_CHECKSIG",
            "desc": "pk(045c9186e1065aaaac4d5ee848ce715f2bd1b4835000f786604163d7fecf597b5c1253a69c18d0275df25c99b93fbcf2ba29702a87a080e98a3b02770a62a82249)#e44sl5ev",
            "hex": "41045c9186e1065aaaac4d5ee848ce715f2bd1b4835000f786604163d7fecf597b5c1253a69c18d0275df25c99b93fbcf2ba29702a87a080e98a3b02770a62a82249ac",
            "type": "pubkey"
          }
        }
      ],
      "hex": "01000000010000000000000000000000000000000000000000000000000000000000000000ffffffff0804ffff001d025a02ffffffff0100f2052a010000004341045c9186e1065aaaac4d5ee848ce715f2bd1b4835000f786604163d7fecf597b5c1253a69c18d0275df25c99b93fbcf2ba29702a87a080e98a3b02770a62a82249ac00000000"
    }
  ]
}