{
  "hash": "000000001c3aa07efadd82e5e49117a01ccaa50634522c93f20c4479b6785558",
  "confirmations": 46858,
  "height": 6240,
  "version": 1,
  "versionHex": "00000001",
  "merkleroot": "b69c7eefc6f69b980d6009c09e9c92521012eae2ed09de99e301837d65f0cc8a",
  "time": 1236123672,
  "mediantime": 1236120746,
  "nonce": 336369,
  "bits": "1d00ffff",
  "difficulty": 1,
  "chainwork": "0000000000000000000000000000000000000000000000000000186118611861",
  "nTx": 1,
  "previousblockhash": "000000001d1cca193a7055038fae6e5eb81b8cf60b600767f85d0fc87d9086d8",
  "nextblockhash": "0000000066ab69d5eb23879a8936c198019bba98cc01d58703c2ebfaf1e837bb",
  "strippedsize": 215,
  "size": 215,
  "weight": 860,
  "tx": [
    {
      "txid": "b69c7eefc6f69b980d6009c09e9c92521012eae2ed09de99e301837d65f0cc8a",
      "hash": "b69c7eefc6f69b980d6009c09e9c92521012eae2ed09de99e301837d65f0cc8a",
      "version": 1,
      "size": 134,
      "vsize": 134,
      "weight": 536,
      "locktime": 0,
      "vin": [
        {
          "coinbase": "04ffff001d0154",
          "sequence": 4294967295
        }
      ],
      "vout": [
        {
          "value": 50.0,
          "n": 0,
          "scriptPubKey": {
            "asm": "048c9d43dc7f2daa82c33f586f02e1ab87b53f3e05747f56d5f7f94295e74a0e2776ec4cad9ed847fe1dfb6a32517886095a0baeebda24b41a1c987daf21055882 OP_CHECKSIG",
            "desc": "pk(048c9d43dc7f2daa82c33f586f02e1ab87b53f3e05747f56d5f7f94295e74a0e2776ec4cad9ed847fe1dfb6a32517886095a0baeebda24b41a1c987daf21055882)#a9pw8e2f",
            "hex": "41048c9d43dc7f2daa82c33f586f02e1ab87b53f3e05747f56d5f7f94295e74a0e2776ec4cad9ed847fe1dfb6a32517886095a0baeebda24b41a1c987daf21055882ac",
            "type": "pubkey"
          }
        }
      ],
      "hex": "01000000010000000000000000000000000000000000000000000000000000000000000000ffffffff0704ffff001d0154ffffffff0100f2052a010000004341048c9d43dc7f2daa82c33f586f02e1ab87b53f3e05747f56d5f7f94295e74a0e2776ec4cad9ed847fe1dfb6a32517886095a0baeebda24b41a1c987daf21055882ac00000000"
    }
  ]
}