{
  "hash": "0000000044e8daf74c605bfb540f89f8cdc142eaef160fdf66c1a02b797d326a",
  "confirmations": 45160,
  "height": 7938,
  "version": 1,
  "versionHex": "00000001",
  "merkleroot": "d9b8756f8b6b5f5baf14facea7a27eeeaf7ef313ed118c8b29e43512164b65ef",
  "time": 1237419019,
  "mediantime": 1237415494,
  "nonce": 2163874600,
  "bits": "1d00ffff",
  "difficulty": 1,
  "chainwork": "00000000000000000000000000000000000000000000000000001f031f031f03",
  "nTx": 1,
  "previousblockhash": "00000000248dab90b33164a7f22f5c1cfc93da5d8e43ea86d1b888f4707c6baf",
  "nextblockhash": "00000000d6883b596e44e7d67a5ab159be857877f70604ee394fe95880ab28f9",
  "strippedsize": 216,
  "size": 216,
  "weight": 864,
  "tx": [
    {
      "txid": "d9b8756f8b6b5f5baf14facea7a27eeeaf7ef313ed118c8b29e43512164b65ef",
      "hash": "d9b8756f8b6b5f5baf14facea7a27eeeaf7ef313ed118c8b29e43512164b65ef",
      "version": 1,
      "size": 135,
      "vsize": 135,
      "weight": 540,
      "locktime": 0,
      "vin": [
        {
          "coinbase": "04ffff001d025408",
          "sequence": 4294967295
        }
      ],
      "vout": [
        {
          "value": 50.0,
          "n": 0,
          "scriptPubKey": {
            "asm": "04e31ad8d708a3ab7bf042b3774a753b286e865be5941639ae52b39adbc69f5ae4a93865971330ee98a52e42f420504a45f5cd5a57cda7f9af5ee4252ed203400b OP_CHECKSIG",
            "desc": "pk(04e31ad8d708a3ab7bf042b3774a753b286e865be5941639ae52b39adbc69f5ae4a93865971330ee98a52e42f420504a45f5cd5a57cda7f9af5ee4252ed203400b)#3ghwwswa",
            "hex": "4104e31ad8d708a3ab7bf042b3774a753b286e865be5941639ae52b39adbc69f5ae4a93865971330ee98a52e42f420504a45f5cd5a57cda7f9af5ee4252ed203400bac",
            "type": "pubkey"
          }
        }
      ],
      "hex": "01000000010000000000000000000000000000000000000000000000000000000000000000ffffffff0804ffff001d025408ffffffff0100f2052a01000000434104e31ad8d708a3ab7bf042b3774a753b286e865be5941639ae52b39adbc69f5ae4a93865971330ee98a52e42f420504a45f5cd5a57cda7f9af5ee4252ed203400bac00000000"
    }
  ]
}