{
  "hash": "000000008ad1eabd35cf1c4bf69dbfa3adb92b2ceb663458b1b06ceee7dacca8",
  "confirmations": 46947,
  "height": 6151,
  "version": 1,
  "versionHex": "00000001",
  "merkleroot": "c488864e375e773271ad3b28d00ed7af73b8d9ce5279773994e1d8385be5938e",
  "time": 1236048510,
  "mediantime": 1236046503,
  "nonce": 1506088991,
  "bits": "1d00ffff",
  "difficulty": 1,
  "chainwork": "0000000000000000000000000000000000000000000000000000180818081808",
  "nTx": 1,
  "previousblockhash": "00000000c16d6d41c658e786371d22c808b1fb366408536dcf80398cf38ff9bd",
  "nextblockhash": "0000000055f58d3e2bdbecad9ac3923b2043eaa3b26e4906e5a1d3cd8b9676d6",
  "strippedsize": 216,
  "size": 216,
  "weight": 864,
  "tx": [
    {
      "txid": "c488864e375e773271ad3b28d00ed7af73b8d9ce5279773994e1d8385be5938e",
      "hash": "c488864e375e773271ad3b28d00ed7af73b8d9ce5279773994e1d8385be5938e",
      "version": 1,
      "size": 135,
      "vsize": 135,
      "weight": 540,
      "locktime": 0,
      "vin": [
        {
          "coinbase": "04ffff001d02ab07",
          "sequence": 4294967295
        }
      ],
      "vout": [
        {
          "value": 50.0,
          "n": 0,
          "scriptPubKey": {
            "asm": "04690d76b1d044722fb863eacb2bc4b7c5e9af7a64a731b5691f694e896a6248a94203cade944874a7b5bfe93ea5b1679205ee0a6eb49007a3200c10086009a2c3 OP_CHECKSIG",
            "desc": "pk(04690d76b1d044722fb863eacb2bc4b7c5e9af7a64a731b5691f694e896a6248a94203cade944874a7b5bfe93ea5b1679205ee0a6eb49007a3200c10086009a2c3)#dw3yrde6",
            "hex": "4104690d76b1d044722fb863eacb2bc4b7c5e9af7a64a731b5691f694e896a6248a94203cade944874a7b5bfe93ea5b1679205ee0a6eb49007a3200c10086009a2c3ac",
            "type": "pubkey"
          }
        }
      ],
      "hex": "01000000010000000000000000000000000000000000000000000000000000000000000000ffffffff0804ffff001d02ab07ffffffff0100f2052a01000000434104690d76b1d044722fb863eacb2bc4b7c5e9af7a64a731b5691f694e896a6248a94203cade944874a7b5bfe93ea5b1679205ee0a6eb49007a3200c10086009a2c3ac00000000"
    }
  ]
}