{
  "hash": "00000000ba79f798c4ed1ec3ff1dfa86a70856fa6ab83cb6d67f16e6f9de4e62",
  "confirmations": 44932,
  "height": 8166,
  "version": 1,
  "versionHex": "00000001",
  "merkleroot": "4312280832effc0d4d3ff289cf30658025682bc783823c9a1667ff7550f79ce0",
  "time": 1237583761,
  "mediantime": 1237579124,
  "nonce": 237313722,
  "bits": "1d00ffff",
  "difficulty": 1,
  "chainwork": "00000000000000000000000000000000000000000000000000001fe71fe71fe7",
  "nTx": 1,
  "previousblockhash": "000000001de30cff4e1b00c0343aa622db0b2f5a2f61be7beb70344410d00f74",
  "nextblockhash": "00000000835a6f420cf1f0d6465e5a3d90a4a6707bb2e9357505b44abf510583",
  "strippedsize": 216,
  "size": 216,
  "weight": 864,
  "tx": [
    {
      "txid": "4312280832effc0d4d3ff289cf30658025682bc783823c9a1667ff7550f79ce0",
      "hash": "4312280832effc0d4d3ff289cf30658025682bc783823c9a1667ff7550f79ce0",
      "version": 1,
      "size": 135,
      "vsize": 135,
      "weight": 540,
      "locktime": 0,
      "vin": [
        {
          "coinbase": "04ffff001d02af00",
          "sequence": 4294967295
        }
      ],
      "vout": [
        {
          "value": 50.0,
          "n": 0,
          "scriptPubKey": {
            "asm": "049f2c00f55bcfb82dd4bc8b6c6b4618e0fb1eeb7a11664e6f1274f5e2030e30cd5e54df4f489b039a397c02f46edb39c918688ab9df708cb25af136e2518d9ceb OP_CHECKSIG",
            "desc": "pk(049f2c00f55bcfb82dd4bc8b6c6b4618e0fb1eeb7a11664e6f1274f5e2030e30cd5e54df4f489b039a397c02f46edb39c918688ab9df708cb25af136e2518d9ceb)#f3eetpdc",
            "hex": "41049f2c00f55bcfb82dd4bc8b6c6b4618e0fb1eeb7a11664e6f1274f5e2030e30cd5e54df4f489b039a397c02f46edb39c918688ab9df708cb25af136e2518d9cebac",
            "type": "pubkey"
          }
        }
      ],
      "hex": "01000000010000000000000000000000000000000000000000000000000000000000000000ffffffff0804ffff001d02af00ffffffff0100f2052a010000004341049f2c00f55bcfb82dd4bc8b6c6b4618e0fb1eeb7a11664e6f1274f5e2030e30cd5e54df4f489b039a397c02f46edb39c918688ab9df708cb25af136e2518d9cebac00000000"
    }
  ]
}