{
  "hash": "00000000203d3170c0b22743b45778259d0ebbf9811f76afff256f7cbb0d1ece",
  "confirmations": 43152,
  "height": 9946,
  "version": 1,
  "versionHex": "00000001",
  "merkleroot": "29a97d0058d4ad5f8c02c86b97f782c96a6fe79aaa68a2c371f4e693e63bdbfa",
  "time": 1238951721,
  "mediantime": 1238948143,
  "nonce": 2936598327,
  "bits": "1d00ffff",
  "difficulty": 1,
  "chainwork": "000000000000000000000000000000000000000000000000000026db26db26db",
  "nTx": 1,
  "previousblockhash": "0000000055b1370e339fb0017ecdf886190dfe419e2b9f0a372d7b7fa54df08f",
  "nextblockhash": "000000002a51784919db3733421e9739667fcae3615e9c173c630f21098b05fa",
  "strippedsize": 216,
  "size": 216,
  "weight": 864,
  "tx": [
    {
      "txid": "29a97d0058d4ad5f8c02c86b97f782c96a6fe79aaa68a2c371f4e693e63bdbfa",
      "hash": "29a97d0058d4ad5f8c02c86b97f782c96a6fe79aaa68a2c371f4e693e63bdbfa",
      "version": 1,
      "size": 135,
      "vsize": 135,
      "weight": 540,
      "locktime": 0,
      "vin": [
        {
          "coinbase": "04ffff001d02a202",
          "sequence": 4294967295
        }
      ],
      "vout": [
        {
          "value": 50.0,
          "n": 0,
          "scriptPubKey": {
            "asm": "0404db8a64f57d8bc42250f95dbf6476b2009f966247317a101ad9e909de0f045b13e905188c853fe62237ef61df8e97b3e8ed9ece438e46b1789f04b6c31d44b2 OP_CHECKSIG",
            "desc": "pk(0404db8a64f57d8bc42250f95dbf6476b2009f966247317a101ad9e909de0f045b13e905188c853fe62237ef61df8e97b3e8ed9ece438e46b1789f04b6c31d44b2)#hz6cen7h",
            "hex": "410404db8a64f57d8bc42250f95dbf6476b2009f966247317a101ad9e909de0f045b13e905188c853fe62237ef61df8e97b3e8ed9ece438e46b1789f04b6c31d44b2ac",
            "type": "pubkey"
          }
        }
      ],
      "hex": "01000000010000000000000000000000000000000000000000000000000000000000000000ffffffff0804ffff001d02a202ffffffff0100f2052a0100000043410404db8a64f57d8bc42250f95dbf6476b2009f966247317a101ad9e909de0f045b13e905188c853fe62237ef61df8e97b3e8ed9ece438e46b1789f04b6c31d44b2ac00000000"
    }
  ]
}