{
  "hash": "000000002d887db4fdd897322408e7fe207537801e55ee17fbe498d2dc133a7f",
  "confirmations": 45915,
  "height": 7183,
  "version": 1,
  "versionHex": "00000001",
  "merkleroot": "ebabd8ad0b1135a7dc098f0554d16a4cdc141a925c2b0f14eac4d00bc288c01f",
  "time": 1236858767,
  "mediantime": 1236854934,
  "nonce": 152015118,
  "bits": "1d00ffff",
  "difficulty": 1,
  "chainwork": "00000000000000000000000000000000000000000000000000001c101c101c10",
  "nTx": 1,
  "previousblockhash": "0000000081c4b4acd5cdac45547858be7c09eee0186e8f6e39d94ec89226b8cb",
  "nextblockhash": "000000008acace09dc63456c6fa9c5f143081ece9091abdfb6cfdb309d8df4c6",
  "strippedsize": 216,
  "size": 216,
  "weight": 864,
  "tx": [
    {
      "txid": "ebabd8ad0b1135a7dc098f0554d16a4cdc141a925c2b0f14eac4d00bc288c01f",
      "hash": "ebabd8ad0b1135a7dc098f0554d16a4cdc141a925c2b0f14eac4d00bc288c01f",
      "version": 1,
      "size": 135,
      "vsize": 135,
      "weight": 540,
      "locktime": 0,
      "vin": [
        {
          "coinbase": "04ffff001d02d70d",
          "sequence": 4294967295
        }
      ],
      "vout": [
        {
          "value": 50.0,
          "n": 0,
          "scriptPubKey": {
            "asm": "04ac6bd358d4fa4b16fb6b7133084bb2e0346b6c91f58eafc64a965f8ee1f66b6fe693465b78adcb57dcaf7d28563197fed2088dda5432907faa43f77d5fc830ff OP_CHECKSIG",
            "desc": "pk(04ac6bd358d4fa4b16fb6b7133084bb2e0346b6c91f58eafc64a965f8ee1f66b6fe693465b78adcb57dcaf7d28563197fed2088dda5432907faa43f77d5fc830ff)#tpakk3sv",
            "hex": "4104ac6bd358d4fa4b16fb6b7133084bb2e0346b6c91f58eafc64a965f8ee1f66b6fe693465b78adcb57dcaf7d28563197fed2088dda5432907faa43f77d5fc830ffac",
            "type": "pubkey"
          }
        }
      ],
      "hex": "01000000010000000000000000000000000000000000000000000000000000000000000000ffffffff0804ffff001d02d70dffffffff0100f2052a01000000434104ac6bd358d4fa4b16fb6b7133084bb2e0346b6c91f58eafc64a965f8ee1f66b6fe693465b78adcb57dcaf7d28563197fed2088dda5432907faa43f77d5fc830ffac00000000"
    }
  ]
}