{
  "hash": "000000002456ec49b80bfcec57dc9fb38f0989a3ebed077a12bfd014e87376af",
  "confirmations": 45541,
  "height": 7557,
  "version": 1,
  "versionHex": "00000001",
  "merkleroot": "fc24b8927ad1638e8f289f9af16a8ae313930bacc339d8da235052988892f11e",
  "time": 1237142619,
  "mediantime": 1237138109,
  "nonce": 2965209648,
  "bits": "1d00ffff",
  "difficulty": 1,
  "chainwork": "00000000000000000000000000000000000000000000000000001d861d861d86",
  "nTx": 1,
  "previousblockhash": "000000005e527a6166853b1c058aee21adbd82e652b2bb2017f344ef9db37b54",
  "nextblockhash": "000000004d07a991c3cc217799d90b603d029eb0a7d3d355b02d73a48f4f705e",
  "strippedsize": 216,
  "size": 216,
  "weight": 864,
  "tx": [
    {
      "txid": "fc24b8927ad1638e8f289f9af16a8ae313930bacc339d8da235052988892f11e",
      "hash": "fc24b8927ad1638e8f289f9af16a8ae313930bacc339d8da235052988892f11e",
      "version": 1,
      "size": 135,
      "vsize": 135,
      "weight": 540,
      "locktime": 0,
      "vin": [
        {
          "coinbase": "04ffff001d020302",
          "sequence": 4294967295
        }
      ],
      "vout": [
        {
          "value": 50.0,
          "n": 0,
          "scriptPubKey": {
            "asm": "0419af76a786c39d1796e2dedfd47bdc3bc5199b558058466bfda919a5dc9689cb4b83d8a17551db1ceeb95b3164df6e738b77b1a110928ad5aed52578747e9ac2 OP_CHECKSIG",
            "desc": "pk(0419af76a786c39d1796e2dedfd47bdc3bc5199b558058466bfda919a5dc9689cb4b83d8a17551db1ceeb95b3164df6e738b77b1a110928ad5aed52578747e9ac2)#3yea7hq0",
            "hex": "410419af76a786c39d1796e2dedfd47bdc3bc5199b558058466bfda919a5dc9689cb4b83d8a17551db1ceeb95b3164df6e738b77b1a110928ad5aed52578747e9ac2ac",
            "type": "pubkey"
          }
        }
      ],
      "hex": "01000000010000000000000000000000000000000000000000000000000000000000000000ffffffff0804ffff001d020302ffffffff0100f2052a0100000043410419af76a786c39d1796e2dedfd47bdc3bc5199b558058466bfda919a5dc9689cb4b83d8a17551db1ceeb95b3164df6e738b77b1a110928ad5aed52578747e9ac2ac00000000"
    }
  ]
}