{
  "hash": "0000000087fc0397cf6acaef40d56c9a5427066041e1cde1d1bfcbe12f023991",
  "confirmations": 51145,
  "height": 1953,
  "version": 1,
  "versionHex": "00000001",
  "merkleroot": "666e36d3d875ff617a8612a4b95d5d50bc2c8e20f1966450c5f0cbf4060d2b52",
  "time": 1233010123,
  "mediantime": 1233005789,
  "nonce": 2113948469,
  "bits": "1d00ffff",
  "difficulty": 1,
  "chainwork": "000000000000000000000000000000000000000000000000000007a207a207a2",
  "nTx": 1,
  "previousblockhash": "00000000a76232a750ee00bc46ea28d6fdc59e34487adbe6f985b62cd50ef7d1",
  "nextblockhash": "00000000710bdfefc65fae752b3777f415778049632e37f5ab8e7cf0ebfd9f11",
  "strippedsize": 216,
  "size": 216,
  "weight": 864,
  "tx": [
    {
      "txid": "666e36d3d875ff617a8612a4b95d5d50bc2c8e20f1966450c5f0cbf4060d2b52",
      "hash": "666e36d3d875ff617a8612a4b95d5d50bc2c8e20f1966450c5f0cbf4060d2b52",
      "version": 1,
      "size": 135,
      "vsize": 135,
      "weight": 540,
      "locktime": 0,
      "vin": [
        {
          "coinbase": "04ffff001d02a300",
          "sequence": 4294967295
        }
      ],
      "vout": [
        {
          "value": 50.0,
          "n": 0,
          "scriptPubKey": {
            "asm": "0488adbac7d84c05ee024bf66223da37d2ae3e2ac450be55b3673b2ca95b39c5d44d115c7b0f08b39a1382bd02ac1aa8896cefee5b362d97466263cf4f55866307 OP_CHECKSIG",
            "desc": "pk(0488adbac7d84c05ee024bf66223da37d2ae3e2ac450be55b3673b2ca95b39c5d44d115c7b0f08b39a1382bd02ac1aa8896cefee5b362d97466263cf4f55866307)#urjp23em",
            "hex": "410488adbac7d84c05ee024bf66223da37d2ae3e2ac450be55b3673b2ca95b39c5d44d115c7b0f08b39a1382bd02ac1aa8896cefee5b362d97466263cf4f55866307ac",
            "type": "pubkey"
          }
        }
      ],
      "hex": "01000000010000000000000000000000000000000000000000000000000000000000000000ffffffff0804ffff001d02a300ffffffff0100f2052a0100000043410488adbac7d84c05ee024bf66223da37d2ae3e2ac450be55b3673b2ca95b39c5d44d115c7b0f08b39a1382bd02ac1aa8896cefee5b362d97466263cf4f55866307ac00000000"
    }
  ]
}