{
  "hash": "0000000009dd14542530e896c9990ad2ba3d1027ef5f0bcde0efacda41704b92",
  "confirmations": 46625,
  "height": 6473,
  "version": 1,
  "versionHex": "00000001",
  "merkleroot": "7c8637ee302aa88e09c776663f7663b7829cc48499afe799fe87d24e09bb85e6",
  "time": 1236309333,
  "mediantime": 1236305759,
  "nonce": 7101702,
  "bits": "1d00ffff",
  "difficulty": 1,
  "chainwork": "0000000000000000000000000000000000000000000000000000194a194a194a",
  "nTx": 1,
  "previousblockhash": "000000004b31f69d6676aa052619829f331b4f226c37fa956bddd7aef5201bb4",
  "nextblockhash": "000000004789b808af690cd3e3bef36ca5c40252193b22eebb758bb094df9cb4",
  "strippedsize": 215,
  "size": 215,
  "weight": 860,
  "tx": [
    {
      "txid": "7c8637ee302aa88e09c776663f7663b7829cc48499afe799fe87d24e09bb85e6",
      "hash": "7c8637ee302aa88e09c776663f7663b7829cc48499afe799fe87d24e09bb85e6",
      "version": 1,
      "size": 134,
      "vsize": 134,
      "weight": 536,
      "locktime": 0,
      "vin": [
        {
          "coinbase": "04ffff001d011a",
          "sequence": 4294967295
        }
      ],
      "vout": [
        {
          "value": 50.0,
          "n": 0,
          "scriptPubKey": {
            "asm": "0464cfa01dade6d4bf3cc0d3328697a101e1ff615b5a4c6d3ec1b2587e645f88afbbadb4f3f0533f86f533d493dc14613de4ad45d62c36367d6a7fb6183fed21bd OP_CHECKSIG",
            "desc": "pk(0464cfa01dade6d4bf3cc0d3328697a101e1ff615b5a4c6d3ec1b2587e645f88afbbadb4f3f0533f86f533d493dc14613de4ad45d62c36367d6a7fb6183fed21bd)#84qu4fpc",
            "hex": "410464cfa01dade6d4bf3cc0d3328697a101e1ff615b5a4c6d3ec1b2587e645f88afbbadb4f3f0533f86f533d493dc14613de4ad45d62c36367d6a7fb6183fed21bdac",
            "type": "pubkey"
          }
        }
      ],
      "hex": "01000000010000000000000000000000000000000000000000000000000000000000000000ffffffff0704ffff001d011affffffff0100f2052a0100000043410464cfa01dade6d4bf3cc0d3328697a101e1ff615b5a4c6d3ec1b2587e645f88afbbadb4f3f0533f86f533d493dc14613de4ad45d62c36367d6a7fb6183fed21bdac00000000"
    }
  ]
}