{
  "hash": "0000000018f5849fabd683aa992bea25e2d9c8a7d8744dca5f67176d414d7df6",
  "confirmations": 50804,
  "height": 2294,
  "version": 1,
  "versionHex": "00000001",
  "merkleroot": "d35cfc6f7ba42622ac38d77954bc9dac6c108ba54e188dbb1b620dc291252f45",
  "time": 1233275907,
  "mediantime": 1233273883,
  "nonce": 2255400240,
  "bits": "1d00ffff",
  "difficulty": 1,
  "chainwork": "000000000000000000000000000000000000000000000000000008f708f708f7",
  "nTx": 1,
  "previousblockhash": "0000000099731fe1e5dcc7b7aeb1f00c54abefb676a96f2a08c36117b89c18f8",
  "nextblockhash": "000000000173afcf79614b471d2956e6f6419ea33c6adf8201d7638a2c00ec1f",
  "strippedsize": 216,
  "size": 216,
  "weight": 864,
  "tx": [
    {
      "txid": "d35cfc6f7ba42622ac38d77954bc9dac6c108ba54e188dbb1b620dc291252f45",
      "hash": "d35cfc6f7ba42622ac38d77954bc9dac6c108ba54e188dbb1b620dc291252f45",
      "version": 1,
      "size": 135,
      "vsize": 135,
      "weight": 540,
      "locktime": 0,
      "vin": [
        {
          "coinbase": "04ffff001d029901",
          "sequence": 4294967295
        }
      ],
      "vout": [
        {
          "value": 50.0,
          "n": 0,
          "scriptPubKey": {
            "asm": "0459323e0eb6b1cb3329b080a68c685fe32e0bd9e8b78aad1418adc18b8f757bbf09f7b728bfae952ea1eee4777b3f15f0d95770064607363d899b9dc7798ddfc5 OP_CHECKSIG",
            "desc": "pk(0459323e0eb6b1cb3329b080a68c685fe32e0bd9e8b78aad1418adc18b8f757bbf09f7b728bfae952ea1eee4777b3f15f0d95770064607363d899b9dc7798ddfc5)#mympan8l",
            "hex": "410459323e0eb6b1cb3329b080a68c685fe32e0bd9e8b78aad1418adc18b8f757bbf09f7b728bfae952ea1eee4777b3f15f0d95770064607363d899b9dc7798ddfc5ac",
            "type": "pubkey"
          }
        }
      ],
      "hex": "01000000010000000000000000000000000000000000000000000000000000000000000000ffffffff0804ffff001d029901ffffffff0100f2052a0100000043410459323e0eb6b1cb3329b080a68c685fe32e0bd9e8b78aad1418adc18b8f757bbf09f7b728bfae952ea1eee4777b3f15f0d95770064607363d899b9dc7798ddfc5ac00000000"
    }
  ]
}