{
  "hash": "00000000f49a9d6fa0beaf1f8a8ef2a4c1768e77d2358d2e6064a6f579207e01",
  "confirmations": 46168,
  "height": 6930,
  "version": 1,
  "versionHex": "00000001",
  "merkleroot": "3a3737c5fd63bd7b1ef698000101b7995faec892c646865f9888888e7a2a258c",
  "time": 1236661334,
  "mediantime": 1236656332,
  "nonce": 96982248,
  "bits": "1d00ffff",
  "difficulty": 1,
  "chainwork": "00000000000000000000000000000000000000000000000000001b131b131b13",
  "nTx": 1,
  "previousblockhash": "000000009688c4421c7e422e1739262af03d68a927f3c1b89c52b8058a20f9e2",
  "nextblockhash": "00000000617ab7eee5a5d6567a7d84c65668c845e2040a9fd789e2800838a350",
  "strippedsize": 216,
  "size": 216,
  "weight": 864,
  "tx": [
    {
      "txid": "3a3737c5fd63bd7b1ef698000101b7995faec892c646865f9888888e7a2a258c",
      "hash": "3a3737c5fd63bd7b1ef698000101b7995faec892c646865f9888888e7a2a258c",
      "version": 1,
      "size": 135,
      "vsize": 135,
      "weight": 540,
      "locktime": 0,
      "vin": [
        {
          "coinbase": "04ffff001d023501",
          "sequence": 4294967295
        }
      ],
      "vout": [
        {
          "value": 50.0,
          "n": 0,
          "scriptPubKey": {
            "asm": "0444d35a641da65b46b6ae21304c6bef448dfc1dde98b4fdeffc1c9fc75ff532e340e0e15ee08748ee9d7ecfe43aa2853fb84651deb0ee0eefdac6de698390aa73 OP_CHECKSIG",
            "desc": "pk(0444d35a641da65b46b6ae21304c6bef448dfc1dde98b4fdeffc1c9fc75ff532e340e0e15ee08748ee9d7ecfe43aa2853fb84651deb0ee0eefdac6de698390aa73)#8jntggqx",
            "hex": "410444d35a641da65b46b6ae21304c6bef448dfc1dde98b4fdeffc1c9fc75ff532e340e0e15ee08748ee9d7ecfe43aa2853fb84651deb0ee0eefdac6de698390aa73ac",
            "type": "pubkey"
          }
        }
      ],
      "hex": "01000000010000000000000000000000000000000000000000000000000000000000000000ffffffff0804ffff001d023501ffffffff0100f2052a0100000043410444d35a641da65b46b6ae21304c6bef448dfc1dde98b4fdeffc1c9fc75ff532e340e0e15ee08748ee9d7ecfe43aa2853fb84651deb0ee0eefdac6de698390aa73ac00000000"
    }
  ]
}