{
  "hash": "000000002cb941cf510cbda749caefc7b511680a7bba47ef49b7d8d470cea8b6",
  "confirmations": 50584,
  "height": 2514,
  "version": 1,
  "versionHex": "00000001",
  "merkleroot": "a8aa8d5afb0de5a5cd18358b63b1cecb7e4a70c420e98006d8e43156886e0d99",
  "time": 1233427676,
  "mediantime": 1233424419,
  "nonce": 132138228,
  "bits": "1d00ffff",
  "difficulty": 1,
  "chainwork": "000000000000000000000000000000000000000000000000000009d309d309d3",
  "nTx": 1,
  "previousblockhash": "000000007030a61ba73a6c9e66c84956b9817f5487edd52d2eccc02374e048d9",
  "nextblockhash": "00000000211ed6ff8805fbc536ee7b5a9ed76512c54205214c3d1387de3b6962",
  "strippedsize": 215,
  "size": 215,
  "weight": 860,
  "tx": [
    {
      "txid": "a8aa8d5afb0de5a5cd18358b63b1cecb7e4a70c420e98006d8e43156886e0d99",
      "hash": "a8aa8d5afb0de5a5cd18358b63b1cecb7e4a70c420e98006d8e43156886e0d99",
      "version": 1,
      "size": 134,
      "vsize": 134,
      "weight": 536,
      "locktime": 0,
      "vin": [
        {
          "coinbase": "04ffff001d0103",
          "sequence": 4294967295
        }
      ],
      "vout": [
        {
          "value": 50.0,
          "n": 0,
          "scriptPubKey": {
            "asm": "04ae40592c8a1ec17b0468e40787413a2c8d8a47e2e7c87936922ee8247ea8f365f7fdff6ff2868a75ffc0dc93ac1bf3578a0e381e5bef38e541e0ceed3af9d7a5 OP_CHECKSIG",
            "desc": "pk(04ae40592c8a1ec17b0468e40787413a2c8d8a47e2e7c87936922ee8247ea8f365f7fdff6ff2868a75ffc0dc93ac1bf3578a0e381e5bef38e541e0ceed3af9d7a5)#m45vpkl4",
            "hex": "4104ae40592c8a1ec17b0468e40787413a2c8d8a47e2e7c87936922ee8247ea8f365f7fdff6ff2868a75ffc0dc93ac1bf3578a0e381e5bef38e541e0ceed3af9d7a5ac",
            "type": "pubkey"
          }
        }
      ],
      "hex": "01000000010000000000000000000000000000000000000000000000000000000000000000ffffffff0704ffff001d0103ffffffff0100f2052a01000000434104ae40592c8a1ec17b0468e40787413a2c8d8a47e2e7c87936922ee8247ea8f365f7fdff6ff2868a75ffc0dc93ac1bf3578a0e381e5bef38e541e0ceed3af9d7a5ac00000000"
    }
  ]
}