{
  "hash": "00000000d23c53595408fb2b5b21e97d816db497c199b662c3ebd1dee708ebee",
  "confirmations": 47371,
  "height": 5727,
  "version": 1,
  "versionHex": "00000001",
  "merkleroot": "482065eddfbb33e9dac70f53b93b8c20decb5936b6e16affd9d2bad997185648",
  "time": 1235703902,
  "mediantime": 1235701755,
  "nonce": 2515793438,
  "bits": "1d00ffff",
  "difficulty": 1,
  "chainwork": "0000000000000000000000000000000000000000000000000000166016601660",
  "nTx": 1,
  "previousblockhash": "00000000ead5c4072bb32e58e150f28e520111a1447187976afca31153cfc838",
  "nextblockhash": "000000004fb37075fe8f2c9b0f1e51005036de6161a2a28f53486461c97cd966",
  "strippedsize": 216,
  "size": 216,
  "weight": 864,
  "tx": [
    {
      "txid": "482065eddfbb33e9dac70f53b93b8c20decb5936b6e16affd9d2bad997185648",
      "hash": "482065eddfbb33e9dac70f53b93b8c20decb5936b6e16affd9d2bad997185648",
      "version": 1,
      "size": 135,
      "vsize": 135,
      "weight": 540,
      "locktime": 0,
      "vin": [
        {
          "coinbase": "04ffff001d02dd09",
          "sequence": 4294967295
        }
      ],
      "vout": [
        {
          "value": 50.0,
          "n": 0,
          "scriptPubKey": {
            "asm": "0404a3f1c994d9572f6fed206aa81f28fb870c3aa9e2e8409379e1916d9d45d6790fb4ec60b83b4b2e8a133a0279d3983e2b70e1d70a608cc766af8498a33ad97f OP_CHECKSIG",
            "desc": "pk(0404a3f1c994d9572f6fed206aa81f28fb870c3aa9e2e8409379e1916d9d45d6790fb4ec60b83b4b2e8a133a0279d3983e2b70e1d70a608cc766af8498a33ad97f)#wu2exe6j",
            "hex": "410404a3f1c994d9572f6fed206aa81f28fb870c3aa9e2e8409379e1916d9d45d6790fb4ec60b83b4b2e8a133a0279d3983e2b70e1d70a608cc766af8498a33ad97fac",
            "type": "pubkey"
          }
        }
      ],
      "hex": "01000000010000000000000000000000000000000000000000000000000000000000000000ffffffff0804ffff001d02dd09ffffffff0100f2052a0100000043410404a3f1c994d9572f6fed206aa81f28fb870c3aa9e2e8409379e1916d9d45d6790fb4ec60b83b4b2e8a133a0279d3983e2b70e1d70a608cc766af8498a33ad97fac00000000"
    }
  ]
}