{
  "hash": "000000008ed2ec3c0472d8ee8fe6006203e00aeb19def1e71d03b1ffec214241",
  "confirmations": 45917,
  "height": 7181,
  "version": 1,
  "versionHex": "00000001",
  "merkleroot": "7768d59fef7c9dacad8c6e1c588296aa5b56e7f5fe31136568863951f0d6aa9d",
  "time": 1236856935,
  "mediantime": 1236853973,
  "nonce": 1503345967,
  "bits": "1d00ffff",
  "difficulty": 1,
  "chainwork": "00000000000000000000000000000000000000000000000000001c0e1c0e1c0e",
  "nTx": 1,
  "previousblockhash": "00000000d6c466cb2e74f1c18ea7caf55e410cb58a5971c7b16180ee8bf5f15a",
  "nextblockhash": "0000000081c4b4acd5cdac45547858be7c09eee0186e8f6e39d94ec89226b8cb",
  "strippedsize": 216,
  "size": 216,
  "weight": 864,
  "tx": [
    {
      "txid": "7768d59fef7c9dacad8c6e1c588296aa5b56e7f5fe31136568863951f0d6aa9d",
      "hash": "7768d59fef7c9dacad8c6e1c588296aa5b56e7f5fe31136568863951f0d6aa9d",
      "version": 1,
      "size": 135,
      "vsize": 135,
      "weight": 540,
      "locktime": 0,
      "vin": [
        {
          "coinbase": "04ffff001d026a05",
          "sequence": 4294967295
        }
      ],
      "vout": [
        {
          "value": 50.0,
          "n": 0,
          "scriptPubKey": {
            "asm": "048e02f7765fdf08e5f9768f2b0eec7405050a7332185d6d01eb094a71de96862c2595abb93f3d4d8d339590af0efe093083e51b7bba661d9cf402c6c31f103c23 OP_CHECKSIG",
            "desc": "pk(048e02f7765fdf08e5f9768f2b0eec7405050a7332185d6d01eb094a71de96862c2595abb93f3d4d8d339590af0efe093083e51b7bba661d9cf402c6c31f103c23)#5unhu9xl",
            "hex": "41048e02f7765fdf08e5f9768f2b0eec7405050a7332185d6d01eb094a71de96862c2595abb93f3d4d8d339590af0efe093083e51b7bba661d9cf402c6c31f103c23ac",
            "type": "pubkey"
          }
        }
      ],
      "hex": "01000000010000000000000000000000000000000000000000000000000000000000000000ffffffff0804ffff001d026a05ffffffff0100f2052a010000004341048e02f7765fdf08e5f9768f2b0eec7405050a7332185d6d01eb094a71de96862c2595abb93f3d4d8d339590af0efe093083e51b7bba661d9cf402c6c31f103c23ac00000000"
    }
  ]
}