{
  "hash": "00000000aaaebe6b6bc8887aaeeba7c2c154865bf959f0455d57fadfddb60faa",
  "confirmations": 45272,
  "height": 7826,
  "version": 1,
  "versionHex": "00000001",
  "merkleroot": "d771c35771febe9b96db6e2afd53c9f28eb20be12762e8aa699d15cced74554b",
  "time": 1237334123,
  "mediantime": 1237330157,
  "nonce": 1084151845,
  "bits": "1d00ffff",
  "difficulty": 1,
  "chainwork": "00000000000000000000000000000000000000000000000000001e931e931e93",
  "nTx": 1,
  "previousblockhash": "0000000072f39782b9ae0982ee78f9965adfd9a5b0bd55a22d797bc01d5c4731",
  "nextblockhash": "00000000a2f327e635d538ea0e9105e929a4f29553a5ed30b0ea004bfb41f536",
  "strippedsize": 216,
  "size": 216,
  "weight": 864,
  "tx": [
    {
      "txid": "d771c35771febe9b96db6e2afd53c9f28eb20be12762e8aa699d15cced74554b",
      "hash": "d771c35771febe9b96db6e2afd53c9f28eb20be12762e8aa699d15cced74554b",
      "version": 1,
      "size": 135,
      "vsize": 135,
      "weight": 540,
      "locktime": 0,
      "vin": [
        {
          "coinbase": "04ffff001d025506",
          "sequence": 4294967295
        }
      ],
      "vout": [
        {
          "value": 50.0,
          "n": 0,
          "scriptPubKey": {
            "asm": "0460c645624f5c68d581b4861f1870e3674457ac63488e24ddec366254049f3a177dead9d032f183560d8b5367c641a1322cd175bdbd156d80eadbe355ebd345aa OP_CHECKSIG",
            "desc": "pk(0460c645624f5c68d581b4861f1870e3674457ac63488e24ddec366254049f3a177dead9d032f183560d8b5367c641a1322cd175bdbd156d80eadbe355ebd345aa)#p8e7rqz9",
            "hex": "410460c645624f5c68d581b4861f1870e3674457ac63488e24ddec366254049f3a177dead9d032f183560d8b5367c641a1322cd175bdbd156d80eadbe355ebd345aaac",
            "type": "pubkey"
          }
        }
      ],
      "hex": "01000000010000000000000000000000000000000000000000000000000000000000000000ffffffff0804ffff001d025506ffffffff0100f2052a0100000043410460c645624f5c68d581b4861f1870e3674457ac63488e24ddec366254049f3a177dead9d032f183560d8b5367c641a1322cd175bdbd156d80eadbe355ebd345aaac00000000"
    }
  ]
}