{
  "hash": "00000000077aacf66d52b356e57edbcb25f9b8054bacf61324d83b0a34e83d1b",
  "confirmations": 45363,
  "height": 7735,
  "version": 1,
  "versionHex": "00000001",
  "merkleroot": "549ecea17f714cb0a1d0671b076c1b947e55a7a649f57fce9a431dc497590d33",
  "time": 1237266087,
  "mediantime": 1237260932,
  "nonce": 656098854,
  "bits": "1d00ffff",
  "difficulty": 1,
  "chainwork": "00000000000000000000000000000000000000000000000000001e381e381e38",
  "nTx": 1,
  "previousblockhash": "00000000d9ca6945382bc8f245dfe7156bc94bdf5b96ca2e6d7d09d5555eefc7",
  "nextblockhash": "000000003446fc0e980057b14fdf1e4861a1508338e797eabaeaa04f31f6237d",
  "strippedsize": 216,
  "size": 216,
  "weight": 864,
  "tx": [
    {
      "txid": "549ecea17f714cb0a1d0671b076c1b947e55a7a649f57fce9a431dc497590d33",
      "hash": "549ecea17f714cb0a1d0671b076c1b947e55a7a649f57fce9a431dc497590d33",
      "version": 1,
      "size": 135,
      "vsize": 135,
      "weight": 540,
      "locktime": 0,
      "vin": [
        {
          "coinbase": "04ffff001d02d004",
          "sequence": 4294967295
        }
      ],
      "vout": [
        {
          "value": 50.0,
          "n": 0,
          "scriptPubKey": {
            "asm": "04b5c7df69950e5a4068963ed8a9af0e54ee8e729eff39ce25505b6cd268699cc876127b866273c862f72759e41efd863789e12f22c4ca8b213e99f4e303266987 OP_CHECKSIG",
            "desc": "pk(04b5c7df69950e5a4068963ed8a9af0e54ee8e729eff39ce25505b6cd268699cc876127b866273c862f72759e41efd863789e12f22c4ca8b213e99f4e303266987)#ue4s2rxx",
            "hex": "4104b5c7df69950e5a4068963ed8a9af0e54ee8e729eff39ce25505b6cd268699cc876127b866273c862f72759e41efd863789e12f22c4ca8b213e99f4e303266987ac",
            "type": "pubkey"
          }
        }
      ],
      "hex": "01000000010000000000000000000000000000000000000000000000000000000000000000ffffffff0804ffff001d02d004ffffffff0100f2052a01000000434104b5c7df69950e5a4068963ed8a9af0e54ee8e729eff39ce25505b6cd268699cc876127b866273c862f72759e41efd863789e12f22c4ca8b213e99f4e303266987ac00000000"
    }
  ]
}