{
  "hash": "00000000ea3e23452149ea3529c3488bbbeee869fe6321c10059531fb25bcaf4",
  "confirmations": 44256,
  "height": 8842,
  "version": 1,
  "versionHex": "00000001",
  "merkleroot": "040454ccebd54719bfbc442e0c6a888e2da90ad126c841f0f6ff8976e49e80e8",
  "time": 1238131746,
  "mediantime": 1238127725,
  "nonce": 1378328839,
  "bits": "1d00ffff",
  "difficulty": 1,
  "chainwork": "0000000000000000000000000000000000000000000000000000228b228b228b",
  "nTx": 1,
  "previousblockhash": "000000004b4e31f878a529a93d75b856355532f41100e66405f9744426fae781",
  "nextblockhash": "000000007c95e75e7c10a7bc8cbd2052a7ab406a4b4b804badac953c2e7d7734",
  "strippedsize": 216,
  "size": 216,
  "weight": 864,
  "tx": [
    {
      "txid": "040454ccebd54719bfbc442e0c6a888e2da90ad126c841f0f6ff8976e49e80e8",
      "hash": "040454ccebd54719bfbc442e0c6a888e2da90ad126c841f0f6ff8976e49e80e8",
      "version": 1,
      "size": 135,
      "vsize": 135,
      "weight": 540,
      "locktime": 0,
      "vin": [
        {
          "coinbase": "04ffff001d028603",
          "sequence": 4294967295
        }
      ],
      "vout": [
        {
          "value": 50.0,
          "n": 0,
          "scriptPubKey": {
            "asm": "04e300326c910197cb7ab18d6884ebf6f209f5e79841e8690ce6a62fe8bf765566baba1cfcf8414240533dc7e3712b172220dd419d75af648c91cfab55cbc8f394 OP_CHECKSIG",
            "desc": "pk(04e300326c910197cb7ab18d6884ebf6f209f5e79841e8690ce6a62fe8bf765566baba1cfcf8414240533dc7e3712b172220dd419d75af648c91cfab55cbc8f394)#phttdcr9",
            "hex": "4104e300326c910197cb7ab18d6884ebf6f209f5e79841e8690ce6a62fe8bf765566baba1cfcf8414240533dc7e3712b172220dd419d75af648c91cfab55cbc8f394ac",
            "type": "pubkey"
          }
        }
      ],
      "hex": "01000000010000000000000000000000000000000000000000000000000000000000000000ffffffff0804ffff001d028603ffffffff0100f2052a01000000434104e300326c910197cb7ab18d6884ebf6f209f5e79841e8690ce6a62fe8bf765566baba1cfcf8414240533dc7e3712b172220dd419d75af648c91cfab55cbc8f394ac00000000"
    }
  ]
}