{
  "hash": "00000000be097d93bb0d24301bb4f6e5e8779cb2894d6676fba726a890592dca",
  "confirmations": 45940,
  "height": 7158,
  "version": 1,
  "versionHex": "00000001",
  "merkleroot": "cc7df805b6e32f32bb58a4219a788b6f116797381ded9f5c82de3d85edeec7a1",
  "time": 1236840345,
  "mediantime": 1236837985,
  "nonce": 112564838,
  "bits": "1d00ffff",
  "difficulty": 1,
  "chainwork": "00000000000000000000000000000000000000000000000000001bf71bf71bf7",
  "nTx": 1,
  "previousblockhash": "00000000f6517645fd844cf538a58c126679d2cdf5ca089ae5123153c87722c3",
  "nextblockhash": "000000000fb83bc7fc7af5ddf0ffa8c99d5a810de00c0ffcfd725cef238ee68f",
  "strippedsize": 216,
  "size": 216,
  "weight": 864,
  "tx": [
    {
      "txid": "cc7df805b6e32f32bb58a4219a788b6f116797381ded9f5c82de3d85edeec7a1",
      "hash": "cc7df805b6e32f32bb58a4219a788b6f116797381ded9f5c82de3d85edeec7a1",
      "version": 1,
      "size": 135,
      "vsize": 135,
      "weight": 540,
      "locktime": 0,
      "vin": [
        {
          "coinbase": "04ffff001d02a406",
          "sequence": 4294967295
        }
      ],
      "vout": [
        {
          "value": 50.0,
          "n": 0,
          "scriptPubKey": {
            "asm": "046fd655e08552be9e3e3c2e287f4fd0b0025d98aa9d090a9c4b9d8e01984445fcd6d6698c7764b84609edbb221f2b5f6e4a9d88d2cca55f9b8bfc823287ed120e OP_CHECKSIG",
            "desc": "pk(046fd655e08552be9e3e3c2e287f4fd0b0025d98aa9d090a9c4b9d8e01984445fcd6d6698c7764b84609edbb221f2b5f6e4a9d88d2cca55f9b8bfc823287ed120e)#50dz9jj9",
            "hex": "41046fd655e08552be9e3e3c2e287f4fd0b0025d98aa9d090a9c4b9d8e01984445fcd6d6698c7764b84609edbb221f2b5f6e4a9d88d2cca55f9b8bfc823287ed120eac",
            "type": "pubkey"
          }
        }
      ],
      "hex": "01000000010000000000000000000000000000000000000000000000000000000000000000ffffffff0804ffff001d02a406ffffffff0100f2052a010000004341046fd655e08552be9e3e3c2e287f4fd0b0025d98aa9d090a9c4b9d8e01984445fcd6d6698c7764b84609edbb221f2b5f6e4a9d88d2cca55f9b8bfc823287ed120eac00000000"
    }
  ]
}