{
  "hash": "000000009737fc85becda1878da804a7dd7e393999a356afb9aa49ac612fd838",
  "confirmations": 51042,
  "height": 2056,
  "version": 1,
  "versionHex": "00000001",
  "merkleroot": "79b41359f1a708c0373cff4b2f45eff8d81eb1530b95cbb3c525e88d79498003",
  "time": 1233101195,
  "mediantime": 1233096784,
  "nonce": 180722735,
  "bits": "1d00ffff",
  "difficulty": 1,
  "chainwork": "0000000000000000000000000000000000000000000000000000080908090809",
  "nTx": 1,
  "previousblockhash": "00000000fdffd873ef1ab43725f9822482015191da3b87e706d742ef983f9356",
  "nextblockhash": "00000000acd58d5632619a889f751c9f508f7869f05814e6ce4b004258969342",
  "strippedsize": 216,
  "size": 216,
  "weight": 864,
  "tx": [
    {
      "txid": "79b41359f1a708c0373cff4b2f45eff8d81eb1530b95cbb3c525e88d79498003",
      "hash": "79b41359f1a708c0373cff4b2f45eff8d81eb1530b95cbb3c525e88d79498003",
      "version": 1,
      "size": 135,
      "vsize": 135,
      "weight": 540,
      "locktime": 0,
      "vin": [
        {
          "coinbase": "04ffff001d02e802",
          "sequence": 4294967295
        }
      ],
      "vout": [
        {
          "value": 50.0,
          "n": 0,
          "scriptPubKey": {
            "asm": "0473ae416d66df22dedc440e985bbcc6ef629f6471760c89a305c29d2f28ad93139ea48828fc0ae5285fd3b4d6af0c2044f0a95d0ccef848a55edbe115adb4841f OP_CHECKSIG",
            "desc": "pk(0473ae416d66df22dedc440e985bbcc6ef629f6471760c89a305c29d2f28ad93139ea48828fc0ae5285fd3b4d6af0c2044f0a95d0ccef848a55edbe115adb4841f)#eq3d6sfr",
            "hex": "410473ae416d66df22dedc440e985bbcc6ef629f6471760c89a305c29d2f28ad93139ea48828fc0ae5285fd3b4d6af0c2044f0a95d0ccef848a55edbe115adb4841fac",
            "type": "pubkey"
          }
        }
      ],
      "hex": "01000000010000000000000000000000000000000000000000000000000000000000000000ffffffff0804ffff001d02e802ffffffff0100f2052a0100000043410473ae416d66df22dedc440e985bbcc6ef629f6471760c89a305c29d2f28ad93139ea48828fc0ae5285fd3b4d6af0c2044f0a95d0ccef848a55edbe115adb4841fac00000000"
    }
  ]
}