{
  "hash": "00000000fa61e838f0d494211d874b881877148017221e8f95b7810dc6a6f6d3",
  "confirmations": 51753,
  "height": 1345,
  "version": 1,
  "versionHex": "00000001",
  "merkleroot": "0b4dd29570faa9eb77d51935500abb725040c2ce4d37dd5119623145b8d3b2b0",
  "time": 1232637235,
  "mediantime": 1232632496,
  "nonce": 3359112235,
  "bits": "1d00ffff",
  "difficulty": 1,
  "chainwork": "0000000000000000000000000000000000000000000000000000054205420542",
  "nTx": 1,
  "previousblockhash": "0000000006d5f5fabc6f0a3234a96583cfe534d9dc170067291cbfdad65cb2b1",
  "nextblockhash": "00000000b7d04dea83e90d8a97690740a93cffc19dd978df621d32c4e3b3bfcc",
  "strippedsize": 216,
  "size": 216,
  "weight": 864,
  "tx": [
    {
      "txid": "0b4dd29570faa9eb77d51935500abb725040c2ce4d37dd5119623145b8d3b2b0",
      "hash": "0b4dd29570faa9eb77d51935500abb725040c2ce4d37dd5119623145b8d3b2b0",
      "version": 1,
      "size": 135,
      "vsize": 135,
      "weight": 540,
      "locktime": 0,
      "vin": [
        {
          "coinbase": "04ffff001d021101",
          "sequence": 4294967295
        }
      ],
      "vout": [
        {
          "value": 50.0,
          "n": 0,
          "scriptPubKey": {
            "asm": "042b9a36b080463e5a025a00b3e9dea6d26c7effe8d3ade09937c6bd5aa9e6fa5817cfc8868ff46ed2acc723193459d0568700d46a279f5b26cde318127e26a4f2 OP_CHECKSIG",
            "desc": "pk(042b9a36b080463e5a025a00b3e9dea6d26c7effe8d3ade09937c6bd5aa9e6fa5817cfc8868ff46ed2acc723193459d0568700d46a279f5b26cde318127e26a4f2)#wmwrr8pr",
            "hex": "41042b9a36b080463e5a025a00b3e9dea6d26c7effe8d3ade09937c6bd5aa9e6fa5817cfc8868ff46ed2acc723193459d0568700d46a279f5b26cde318127e26a4f2ac",
            "type": "pubkey"
          }
        }
      ],
      "hex": "01000000010000000000000000000000000000000000000000000000000000000000000000ffffffff0804ffff001d021101ffffffff0100f2052a010000004341042b9a36b080463e5a025a00b3e9dea6d26c7effe8d3ade09937c6bd5aa9e6fa5817cfc8868ff46ed2acc723193459d0568700d46a279f5b26cde318127e26a4f2ac00000000"
    }
  ]
}