{
  "hash": "00000000628f07b12159a10cd428ae5ce3e60ed57c36bf680184c451b62b7aab",
  "confirmations": 43887,
  "height": 9211,
  "version": 1,
  "versionHex": "00000001",
  "merkleroot": "c347d7c9d7c119da4da7f819d3f8861cc3be8ee0a64d0d55d389294e61784a28",
  "time": 1238409957,
  "mediantime": 1238403460,
  "nonce": 8054177,
  "bits": "1d00ffff",
  "difficulty": 1,
  "chainwork": "000000000000000000000000000000000000000000000000000023fc23fc23fc",
  "nTx": 1,
  "previousblockhash": "00000000cad0c80fe23f256177706c34ded711a048a1be847ef089d4456de671",
  "nextblockhash": "00000000802b24d48a01fdfdaffa16c08c269c8df40e34488b29b03b91dc41e6",
  "strippedsize": 216,
  "size": 216,
  "weight": 864,
  "tx": [
    {
      "txid": "c347d7c9d7c119da4da7f819d3f8861cc3be8ee0a64d0d55d389294e61784a28",
      "hash": "c347d7c9d7c119da4da7f819d3f8861cc3be8ee0a64d0d55d389294e61784a28",
      "version": 1,
      "size": 135,
      "vsize": 135,
      "weight": 540,
      "locktime": 0,
      "vin": [
        {
          "coinbase": "04ffff001d02b20e",
          "sequence": 4294967295
        }
      ],
      "vout": [
        {
          "value": 50.0,
          "n": 0,
          "scriptPubKey": {
            "asm": "04bace854c26b9ca181876544bb34a8ad1586d51726da43f95234edf9a296aef06aa81ef314e9b0634600c0b72d37ed0d7c8692ae5b51c3c7e4a1006261f998192 OP_CHECKSIG",
            "desc": "pk(04bace854c26b9ca181876544bb34a8ad1586d51726da43f95234edf9a296aef06aa81ef314e9b0634600c0b72d37ed0d7c8692ae5b51c3c7e4a1006261f998192)#rku8gzle",
            "hex": "4104bace854c26b9ca181876544bb34a8ad1586d51726da43f95234edf9a296aef06aa81ef314e9b0634600c0b72d37ed0d7c8692ae5b51c3c7e4a1006261f998192ac",
            "type": "pubkey"
          }
        }
      ],
      "hex": "01000000010000000000000000000000000000000000000000000000000000000000000000ffffffff0804ffff001d02b20effffffff0100f2052a01000000434104bace854c26b9ca181876544bb34a8ad1586d51726da43f95234edf9a296aef06aa81ef314e9b0634600c0b72d37ed0d7c8692ae5b51c3c7e4a1006261f998192ac00000000"
    }
  ]
}