{
  "hash": "00000000280ed43a87117a1762b9255737a790559deba7fca03171a4d23eab4c",
  "confirmations": 43146,
  "height": 9952,
  "version": 1,
  "versionHex": "00000001",
  "merkleroot": "dfe1e41b916a0fff7a59b6cbd58136d7602286c4d3bf37b0fbd583ddf4a58a94",
  "time": 1238958038,
  "mediantime": 1238952608,
  "nonce": 676363045,
  "bits": "1d00ffff",
  "difficulty": 1,
  "chainwork": "000000000000000000000000000000000000000000000000000026e126e126e1",
  "nTx": 1,
  "previousblockhash": "00000000bc769c786f51010f0c7484fcca83fb8598d89f6031c91a4f3cc131f2",
  "nextblockhash": "00000000dd0a273c4e4bd3ce37ca77b0f1da36422d87d4df102f6e37be20ba29",
  "strippedsize": 216,
  "size": 216,
  "weight": 864,
  "tx": [
    {
      "txid": "dfe1e41b916a0fff7a59b6cbd58136d7602286c4d3bf37b0fbd583ddf4a58a94",
      "hash": "dfe1e41b916a0fff7a59b6cbd58136d7602286c4d3bf37b0fbd583ddf4a58a94",
      "version": 1,
      "size": 135,
      "vsize": 135,
      "weight": 540,
      "locktime": 0,
      "vin": [
        {
          "coinbase": "04ffff001d02b002",
          "sequence": 4294967295
        }
      ],
      "vout": [
        {
          "value": 50.0,
          "n": 0,
          "scriptPubKey": {
            "asm": "04ca552717ce1c22d44eddd2610bfa4c069aa39c6b027d575536ee859d2bdd50144b97e1e48998e263d693d93c8da274d7dbd07c46855ebaeda297b0f0e8c2e3ce OP_CHECKSIG",
            "desc": "pk(04ca552717ce1c22d44eddd2610bfa4c069aa39c6b027d575536ee859d2bdd50144b97e1e48998e263d693d93c8da274d7dbd07c46855ebaeda297b0f0e8c2e3ce)#r7hq7trg",
            "hex": "4104ca552717ce1c22d44eddd2610bfa4c069aa39c6b027d575536ee859d2bdd50144b97e1e48998e263d693d93c8da274d7dbd07c46855ebaeda297b0f0e8c2e3ceac",
            "type": "pubkey"
          }
        }
      ],
      "hex": "01000000010000000000000000000000000000000000000000000000000000000000000000ffffffff0804ffff001d02b002ffffffff0100f2052a01000000434104ca552717ce1c22d44eddd2610bfa4c069aa39c6b027d575536ee859d2bdd50144b97e1e48998e263d693d93c8da274d7dbd07c46855ebaeda297b0f0e8c2e3ceac00000000"
    }
  ]
}