{
  "hash": "00000000251d86a572ec8b8d42c0514e9391e3e4f68fce32a85c329d5c43ee2f",
  "confirmations": 46032,
  "height": 7066,
  "version": 1,
  "versionHex": "00000001",
  "merkleroot": "abfd75d77c27a7778801022805870c2486af495b038ff0699cab8341e2aa9040",
  "time": 1236770779,
  "mediantime": 1236765847,
  "nonce": 3772505141,
  "bits": "1d00ffff",
  "difficulty": 1,
  "chainwork": "00000000000000000000000000000000000000000000000000001b9b1b9b1b9b",
  "nTx": 1,
  "previousblockhash": "00000000335c3f9e4bf41b2b36f62f182485ebd2db51f226c99f4ba4ddbb801e",
  "nextblockhash": "00000000902b0863fcd5a38d99062a41dc18fe1403dab66eccf5a41acb331cbb",
  "strippedsize": 216,
  "size": 216,
  "weight": 864,
  "tx": [
    {
      "txid": "abfd75d77c27a7778801022805870c2486af495b038ff0699cab8341e2aa9040",
      "hash": "abfd75d77c27a7778801022805870c2486af495b038ff0699cab8341e2aa9040",
      "version": 1,
      "size": 135,
      "vsize": 135,
      "weight": 540,
      "locktime": 0,
      "vin": [
        {
          "coinbase": "04ffff001d025703",
          "sequence": 4294967295
        }
      ],
      "vout": [
        {
          "value": 50.0,
          "n": 0,
          "scriptPubKey": {
            "asm": "04e84f494e66fce6e0656e36f5d016298f974f8b5d6ed1940a48d7bdf969d9a1bed9afc781e1db90b52539dfc631cd30848daed97853640500e401b8cbefe4f079 OP_CHECKSIG",
            "desc": "pk(04e84f494e66fce6e0656e36f5d016298f974f8b5d6ed1940a48d7bdf969d9a1bed9afc781e1db90b52539dfc631cd30848daed97853640500e401b8cbefe4f079)#gral3xg8",
            "hex": "4104e84f494e66fce6e0656e36f5d016298f974f8b5d6ed1940a48d7bdf969d9a1bed9afc781e1db90b52539dfc631cd30848daed97853640500e401b8cbefe4f079ac",
            "type": "pubkey"
          }
        }
      ],
      "hex": "01000000010000000000000000000000000000000000000000000000000000000000000000ffffffff0804ffff001d025703ffffffff0100f2052a01000000434104e84f494e66fce6e0656e36f5d016298f974f8b5d6ed1940a48d7bdf969d9a1bed9afc781e1db90b52539dfc631cd30848daed97853640500e401b8cbefe4f079ac00000000"
    }
  ]
}