{
  "hash": "00000000c97387559738150a07f2b07d6031f31f7f0026f4bf3a2728eacd91af",
  "confirmations": 47596,
  "height": 5502,
  "version": 1,
  "versionHex": "00000001",
  "merkleroot": "cefb92e2ec41d86aed9327c6e8d217123014ef851e3a780e9d413953d3646496",
  "time": 1235523922,
  "mediantime": 1235519551,
  "nonce": 1358409248,
  "bits": "1d00ffff",
  "difficulty": 1,
  "chainwork": "0000000000000000000000000000000000000000000000000000157f157f157f",
  "nTx": 1,
  "previousblockhash": "000000000dd21696e382cfc77279cab9a6194280fc602d1ee7a6809fd549534e",
  "nextblockhash": "0000000063f70a539796b75fbdd72df37fbcb28ddc50852e2a32923ceb2a6173",
  "strippedsize": 216,
  "size": 216,
  "weight": 864,
  "tx": [
    {
      "txid": "cefb92e2ec41d86aed9327c6e8d217123014ef851e3a780e9d413953d3646496",
      "hash": "cefb92e2ec41d86aed9327c6e8d217123014ef851e3a780e9d413953d3646496",
      "version": 1,
      "size": 135,
      "vsize": 135,
      "weight": 540,
      "locktime": 0,
      "vin": [
        {
          "coinbase": "04ffff001d02aa05",
          "sequence": 4294967295
        }
      ],
      "vout": [
        {
          "value": 50.0,
          "n": 0,
          "scriptPubKey": {
            "asm": "043d200bcfa48afadbecc6a97f880274c03fd0a074ab8f61216896fbacb27bc07af022fc3097d2046477823f52c9bbaa9c9e3f094c4c13a0c1ab5f315ab741c094 OP_CHECKSIG",
            "desc": "pk(043d200bcfa48afadbecc6a97f880274c03fd0a074ab8f61216896fbacb27bc07af022fc3097d2046477823f52c9bbaa9c9e3f094c4c13a0c1ab5f315ab741c094)#9qkve7rn",
            "hex": "41043d200bcfa48afadbecc6a97f880274c03fd0a074ab8f61216896fbacb27bc07af022fc3097d2046477823f52c9bbaa9c9e3f094c4c13a0c1ab5f315ab741c094ac",
            "type": "pubkey"
          }
        }
      ],
      "hex": "01000000010000000000000000000000000000000000000000000000000000000000000000ffffffff0804ffff001d02aa05ffffffff0100f2052a010000004341043d200bcfa48afadbecc6a97f880274c03fd0a074ab8f61216896fbacb27bc07af022fc3097d2046477823f52c9bbaa9c9e3f094c4c13a0c1ab5f315ab741c094ac00000000"
    }
  ]
}