{
  "hash": "00000000e89befba7f78ae403ff629e4646a3752d79be577aa42a85add22949a",
  "confirmations": 48870,
  "height": 4228,
  "version": 1,
  "versionHex": "00000001",
  "merkleroot": "1ad8ea5a26b2de37bda3c85ca5e78c93a6d3cda39adc86378ffac00f2e2217ab",
  "time": 1234596968,
  "mediantime": 1234594361,
  "nonce": 164994034,
  "bits": "1d00ffff",
  "difficulty": 1,
  "chainwork": "0000000000000000000000000000000000000000000000000000108510851085",
  "nTx": 1,
  "previousblockhash": "000000002e7f4f4f2bf4627c375e9230164cc2d534a80db5a3272346a166b66b",
  "nextblockhash": "00000000812d36a9b8f6314c6e09ec289e62c29334860e035eaa18e7369dda25",
  "strippedsize": 216,
  "size": 216,
  "weight": 864,
  "tx": [
    {
      "txid": "1ad8ea5a26b2de37bda3c85ca5e78c93a6d3cda39adc86378ffac00f2e2217ab",
      "hash": "1ad8ea5a26b2de37bda3c85ca5e78c93a6d3cda39adc86378ffac00f2e2217ab",
      "version": 1,
      "size": 135,
      "vsize": 135,
      "weight": 540,
      "locktime": 0,
      "vin": [
        {
          "coinbase": "04ffff001d02fb00",
          "sequence": 4294967295
        }
      ],
      "vout": [
        {
          "value": 50.0,
          "n": 0,
          "scriptPubKey": {
            "asm": "0433bd6ca7bcb252c8298cf2c1b5a442cdf4f9a518beea38fb092a858df8b84b41007316a301628d1c05f24236bcd10781ecae211d0afba37a4ecc6d8fd3a2a319 OP_CHECKSIG",
            "desc": "pk(0433bd6ca7bcb252c8298cf2c1b5a442cdf4f9a518beea38fb092a858df8b84b41007316a301628d1c05f24236bcd10781ecae211d0afba37a4ecc6d8fd3a2a319)#m52xf7gf",
            "hex": "410433bd6ca7bcb252c8298cf2c1b5a442cdf4f9a518beea38fb092a858df8b84b41007316a301628d1c05f24236bcd10781ecae211d0afba37a4ecc6d8fd3a2a319ac",
            "type": "pubkey"
          }
        }
      ],
      "hex": "01000000010000000000000000000000000000000000000000000000000000000000000000ffffffff0804ffff001d02fb00ffffffff0100f2052a0100000043410433bd6ca7bcb252c8298cf2c1b5a442cdf4f9a518beea38fb092a858df8b84b41007316a301628d1c05f24236bcd10781ecae211d0afba37a4ecc6d8fd3a2a319ac00000000"
    }
  ]
}