{
  "hash": "00000000d74790381c24c4a617921091bd225a48c6a7145e7600b52ac0db32ec",
  "confirmations": 45809,
  "height": 7289,
  "version": 1,
  "versionHex": "00000001",
  "merkleroot": "799fd05438e5fa9cce480e38e915899b4ec1aa41a9f7327f928166c6ffce7ec2",
  "time": 1236940529,
  "mediantime": 1236936183,
  "nonce": 69789229,
  "bits": "1d00ffff",
  "difficulty": 1,
  "chainwork": "00000000000000000000000000000000000000000000000000001c7a1c7a1c7a",
  "nTx": 1,
  "previousblockhash": "00000000822428dbfc0d8a46ac268909fd5bcf47057a386bab613336a5f6f6f9",
  "nextblockhash": "000000002a328821dc9296af7ee9c723cdd44a5a58dbd0ca2a032efc52712c48",
  "strippedsize": 216,
  "size": 216,
  "weight": 864,
  "tx": [
    {
      "txid": "799fd05438e5fa9cce480e38e915899b4ec1aa41a9f7327f928166c6ffce7ec2",
      "hash": "799fd05438e5fa9cce480e38e915899b4ec1aa41a9f7327f928166c6ffce7ec2",
      "version": 1,
      "size": 135,
      "vsize": 135,
      "weight": 540,
      "locktime": 0,
      "vin": [
        {
          "coinbase": "04ffff001d023a07",
          "sequence": 4294967295
        }
      ],
      "vout": [
        {
          "value": 50.0,
          "n": 0,
          "scriptPubKey": {
            "asm": "04fc99bc9ab2c58734340a4a824f4c103063378cf43500efb824421c2c86e278630d80f8461b9c644048369bd6bf066e4ecde90056fca516f2cf3f6dd755271cfd OP_CHECKSIG",
            "desc": "pk(04fc99bc9ab2c58734340a4a824f4c103063378cf43500efb824421c2c86e278630d80f8461b9c644048369bd6bf066e4ecde90056fca516f2cf3f6dd755271cfd)#2fmq5f60",
            "hex": "4104fc99bc9ab2c58734340a4a824f4c103063378cf43500efb824421c2c86e278630d80f8461b9c644048369bd6bf066e4ecde90056fca516f2cf3f6dd755271cfdac",
            "type": "pubkey"
          }
        }
      ],
      "hex": "01000000010000000000000000000000000000000000000000000000000000000000000000ffffffff0804ffff001d023a07ffffffff0100f2052a01000000434104fc99bc9ab2c58734340a4a824f4c103063378cf43500efb824421c2c86e278630d80f8461b9c644048369bd6bf066e4ecde90056fca516f2cf3f6dd755271cfdac00000000"
    }
  ]
}