{
  "hash": "0000000072c277adb4922170496fe2f181fd6b3c66103f8284e01818374aaf34",
  "confirmations": 51665,
  "height": 1433,
  "version": 1,
  "versionHex": "00000001",
  "merkleroot": "f771fdaceee101e5810ebbb6649969411abf58838e232f33737cc64f6ecd13dc",
  "time": 1232739170,
  "mediantime": 1232736460,
  "nonce": 254129692,
  "bits": "1d00ffff",
  "difficulty": 1,
  "chainwork": "0000000000000000000000000000000000000000000000000000059a059a059a",
  "nTx": 1,
  "previousblockhash": "0000000067581e59bebbbca4fbf396f7395cb89e4470d3875fc3d28198b464b8",
  "nextblockhash": "00000000570833758a30d31d67e8e6fd8c56488173e9a71f4fa7be920b93190c",
  "strippedsize": 215,
  "size": 215,
  "weight": 860,
  "tx": [
    {
      "txid": "f771fdaceee101e5810ebbb6649969411abf58838e232f33737cc64f6ecd13dc",
      "hash": "f771fdaceee101e5810ebbb6649969411abf58838e232f33737cc64f6ecd13dc",
      "version": 1,
      "size": 134,
      "vsize": 134,
      "weight": 536,
      "locktime": 0,
      "vin": [
        {
          "coinbase": "04ffff001d0169",
          "sequence": 4294967295
        }
      ],
      "vout": [
        {
          "value": 50.0,
          "n": 0,
          "scriptPubKey": {
            "asm": "04e0bf225f8998c7e3dc99899ce2f08d87969ee1bdc0f0759941134f375fd1e8eecba4db44e3f76dce7fd16262c2ca9e93628eafde3d5a6ffa99ae13e74bbc54f6 OP_CHECKSIG",
            "desc": "pk(04e0bf225f8998c7e3dc99899ce2f08d87969ee1bdc0f0759941134f375fd1e8eecba4db44e3f76dce7fd16262c2ca9e93628eafde3d5a6ffa99ae13e74bbc54f6)#sl7k6d0e",
            "hex": "4104e0bf225f8998c7e3dc99899ce2f08d87969ee1bdc0f0759941134f375fd1e8eecba4db44e3f76dce7fd16262c2ca9e93628eafde3d5a6ffa99ae13e74bbc54f6ac",
            "type": "pubkey"
          }
        }
      ],
      "hex": "01000000010000000000000000000000000000000000000000000000000000000000000000ffffffff0704ffff001d0169ffffffff0100f2052a01000000434104e0bf225f8998c7e3dc99899ce2f08d87969ee1bdc0f0759941134f375fd1e8eecba4db44e3f76dce7fd16262c2ca9e93628eafde3d5a6ffa99ae13e74bbc54f6ac00000000"
    }
  ]
}