{
  "hash": "00000000a89935b4d97faa551d7857e2be7dedce240778a90a992a4add30a7bc",
  "confirmations": 44519,
  "height": 8579,
  "version": 1,
  "versionHex": "00000001",
  "merkleroot": "86b712b7ff284741727a9ddf4f2633893151bf26630cdcb672d676968c78e38b",
  "time": 1237934100,
  "mediantime": 1237930128,
  "nonce": 3014699293,
  "bits": "1d00ffff",
  "difficulty": 1,
  "chainwork": "0000000000000000000000000000000000000000000000000000218421842184",
  "nTx": 1,
  "previousblockhash": "00000000d532ccd4d6aa232de2b2350680bad8deefd3eaae33a6a0d3de664371",
  "nextblockhash": "000000004b3ee920cf26d98a05f9fdb481437746313dbb71ebc82a8d2befd92b",
  "strippedsize": 216,
  "size": 216,
  "weight": 864,
  "tx": [
    {
      "txid": "86b712b7ff284741727a9ddf4f2633893151bf26630cdcb672d676968c78e38b",
      "hash": "86b712b7ff284741727a9ddf4f2633893151bf26630cdcb672d676968c78e38b",
      "version": 1,
      "size": 135,
      "vsize": 135,
      "weight": 540,
      "locktime": 0,
      "vin": [
        {
          "coinbase": "04ffff001d023b09",
          "sequence": 4294967295
        }
      ],
      "vout": [
        {
          "value": 50.0,
          "n": 0,
          "scriptPubKey": {
            "asm": "040c6fb790b96f679e3a34b30e0e7dfb0b3416159ee2ec920a1b2dc0d4daafec7d83aa1fabc60c0183f39a640f74e51725636daffa4fec0ad8f27f208b0a1d46a3 OP_CHECKSIG",
            "desc": "pk(040c6fb790b96f679e3a34b30e0e7dfb0b3416159ee2ec920a1b2dc0d4daafec7d83aa1fabc60c0183f39a640f74e51725636daffa4fec0ad8f27f208b0a1d46a3)#dc66u8ae",
            "hex": "41040c6fb790b96f679e3a34b30e0e7dfb0b3416159ee2ec920a1b2dc0d4daafec7d83aa1fabc60c0183f39a640f74e51725636daffa4fec0ad8f27f208b0a1d46a3ac",
            "type": "pubkey"
          }
        }
      ],
      "hex": "01000000010000000000000000000000000000000000000000000000000000000000000000ffffffff0804ffff001d023b09ffffffff0100f2052a010000004341040c6fb790b96f679e3a34b30e0e7dfb0b3416159ee2ec920a1b2dc0d4daafec7d83aa1fabc60c0183f39a640f74e51725636daffa4fec0ad8f27f208b0a1d46a3ac00000000"
    }
  ]
}