{
  "hash": "000000007e27fe423979067dfffce661e38264081a8b1d56bcf8d60759fdeacb",
  "confirmations": 51949,
  "height": 1149,
  "version": 1,
  "versionHex": "00000001",
  "merkleroot": "5a3e497f715f5841e69552d7081f76d3198646acd771fc5efbacad105aac61ca",
  "time": 1232459287,
  "mediantime": 1232455094,
  "nonce": 597118467,
  "bits": "1d00ffff",
  "difficulty": 1,
  "chainwork": "0000000000000000000000000000000000000000000000000000047e047e047e",
  "nTx": 1,
  "previousblockhash": "00000000daacbdc1415b33e4f2ea96c8ef99cb518bd234b34a2b28f5d9362a42",
  "nextblockhash": "00000000bc63b016e55ce7560e4647f7c8eee0b9edaa46477e6bd800149846b6",
  "strippedsize": 216,
  "size": 216,
  "weight": 864,
  "tx": [
    {
      "txid": "5a3e497f715f5841e69552d7081f76d3198646acd771fc5efbacad105aac61ca",
      "hash": "5a3e497f715f5841e69552d7081f76d3198646acd771fc5efbacad105aac61ca",
      "version": 1,
      "size": 135,
      "vsize": 135,
      "weight": 540,
      "locktime": 0,
      "vin": [
        {
          "coinbase": "04ffff001d02ce07",
          "sequence": 4294967295
        }
      ],
      "vout": [
        {
          "value": 50.0,
          "n": 0,
          "scriptPubKey": {
            "asm": "04b10afb40a9156da5d854bc5dd9cfc6f28b18451b1a5f42c93a97b6a01f456cb5179c486626788dbdc1f4122ee2a9d139eacf857ff5b49469b46f781ee7674a49 OP_CHECKSIG",
            "desc": "pk(04b10afb40a9156da5d854bc5dd9cfc6f28b18451b1a5f42c93a97b6a01f456cb5179c486626788dbdc1f4122ee2a9d139eacf857ff5b49469b46f781ee7674a49)#789qzrmf",
            "hex": "4104b10afb40a9156da5d854bc5dd9cfc6f28b18451b1a5f42c93a97b6a01f456cb5179c486626788dbdc1f4122ee2a9d139eacf857ff5b49469b46f781ee7674a49ac",
            "type": "pubkey"
          }
        }
      ],
      "hex": "01000000010000000000000000000000000000000000000000000000000000000000000000ffffffff0804ffff001d02ce07ffffffff0100f2052a01000000434104b10afb40a9156da5d854bc5dd9cfc6f28b18451b1a5f42c93a97b6a01f456cb5179c486626788dbdc1f4122ee2a9d139eacf857ff5b49469b46f781ee7674a49ac00000000"
    }
  ]
}