{
  "hash": "00000000375803a731edbfabd87ae9ec8500645ffb9a8b3a64fe4d3c6c1635bd",
  "confirmations": 46623,
  "height": 6475,
  "version": 1,
  "versionHex": "00000001",
  "merkleroot": "e2d08e6eccff87bded1c907098c4059f5969e5706b0ad53c2493aad03b2d250c",
  "time": 1236310889,
  "mediantime": 1236307561,
  "nonce": 2167578425,
  "bits": "1d00ffff",
  "difficulty": 1,
  "chainwork": "0000000000000000000000000000000000000000000000000000194c194c194c",
  "nTx": 1,
  "previousblockhash": "000000004789b808af690cd3e3bef36ca5c40252193b22eebb758bb094df9cb4",
  "nextblockhash": "000000000010b24a122163f2037132d767e6c5bd4c0642d9669fd94845e93289",
  "strippedsize": 216,
  "size": 216,
  "weight": 864,
  "tx": [
    {
      "txid": "e2d08e6eccff87bded1c907098c4059f5969e5706b0ad53c2493aad03b2d250c",
      "hash": "e2d08e6eccff87bded1c907098c4059f5969e5706b0ad53c2493aad03b2d250c",
      "version": 1,
      "size": 135,
      "vsize": 135,
      "weight": 540,
      "locktime": 0,
      "vin": [
        {
          "coinbase": "04ffff001d02e402",
          "sequence": 4294967295
        }
      ],
      "vout": [
        {
          "value": 50.0,
          "n": 0,
          "scriptPubKey": {
            "asm": "04f5262bfe9b01934180f3c78bd55bd8347d50b805b1e7dbc358d7ed691c84121117f0aa233f9d5ac4136417661aea5230842dca6804008c74b751f3cd372be364 OP_CHECKSIG",
            "desc": "pk(04f5262bfe9b01934180f3c78bd55bd8347d50b805b1e7dbc358d7ed691c84121117f0aa233f9d5ac4136417661aea5230842dca6804008c74b751f3cd372be364)#ze0wr8qt",
            "hex": "4104f5262bfe9b01934180f3c78bd55bd8347d50b805b1e7dbc358d7ed691c84121117f0aa233f9d5ac4136417661aea5230842dca6804008c74b751f3cd372be364ac",
            "type": "pubkey"
          }
        }
      ],
      "hex": "01000000010000000000000000000000000000000000000000000000000000000000000000ffffffff0804ffff001d02e402ffffffff0100f2052a01000000434104f5262bfe9b01934180f3c78bd55bd8347d50b805b1e7dbc358d7ed691c84121117f0aa233f9d5ac4136417661aea5230842dca6804008c74b751f3cd372be364ac00000000"
    }
  ]
}