{
  "hash": "00000000ac91f00435bdb716d610b2657a2bfccfea305c96253cf4ff4a4e0b72",
  "confirmations": 50850,
  "height": 2248,
  "version": 1,
  "versionHex": "00000001",
  "merkleroot": "9c9abc52db079bb0de06dfa986ef020c647884fa9adb445af8da64e77f73219d",
  "time": 1233246251,
  "mediantime": 1233242933,
  "nonce": 2241995806,
  "bits": "1d00ffff",
  "difficulty": 1,
  "chainwork": "000000000000000000000000000000000000000000000000000008c908c908c9",
  "nTx": 1,
  "previousblockhash": "000000008752513a044502dd2d75009ff847b5703ce1985f3e9fa8647ec50bbb",
  "nextblockhash": "00000000df91191a0541d325be6a89e00c3dd3b86731f6463adda453f887db6d",
  "strippedsize": 216,
  "size": 216,
  "weight": 864,
  "tx": [
    {
      "txid": "9c9abc52db079bb0de06dfa986ef020c647884fa9adb445af8da64e77f73219d",
      "hash": "9c9abc52db079bb0de06dfa986ef020c647884fa9adb445af8da64e77f73219d",
      "version": 1,
      "size": 135,
      "vsize": 135,
      "weight": 540,
      "locktime": 0,
      "vin": [
        {
          "coinbase": "04ffff001d020a01",
          "sequence": 4294967295
        }
      ],
      "vout": [
        {
          "value": 50.0,
          "n": 0,
          "scriptPubKey": {
            "asm": "045c6425cd651d364270ed41271cee5f22107fbb9618033ce8456f8cccbf78cde26444c8f1be590143a94935e4c56e83421fcd0e2faf3e75e787b8fe17374cf332 OP_CHECKSIG",
            "desc": "pk(045c6425cd651d364270ed41271cee5f22107fbb9618033ce8456f8cccbf78cde26444c8f1be590143a94935e4c56e83421fcd0e2faf3e75e787b8fe17374cf332)#zhs2430a",
            "hex": "41045c6425cd651d364270ed41271cee5f22107fbb9618033ce8456f8cccbf78cde26444c8f1be590143a94935e4c56e83421fcd0e2faf3e75e787b8fe17374cf332ac",
            "type": "pubkey"
          }
        }
      ],
      "hex": "01000000010000000000000000000000000000000000000000000000000000000000000000ffffffff0804ffff001d020a01ffffffff0100f2052a010000004341045c6425cd651d364270ed41271cee5f22107fbb9618033ce8456f8cccbf78cde26444c8f1be590143a94935e4c56e83421fcd0e2faf3e75e787b8fe17374cf332ac00000000"
    }
  ]
}