{
  "hash": "00000000625bd7ce59366e8b19859e87e6021fabd2975e2cd4300419c8e1f72d",
  "confirmations": 50810,
  "height": 2288,
  "version": 1,
  "versionHex": "00000001",
  "merkleroot": "5f72e5ffdd76ef5f5d9cef9a7f6d8f6240d6acced42ed4a79fb1c47dfa4d87c4",
  "time": 1233273125,
  "mediantime": 1233269700,
  "nonce": 67618363,
  "bits": "1d00ffff",
  "difficulty": 1,
  "chainwork": "000000000000000000000000000000000000000000000000000008f108f108f1",
  "nTx": 1,
  "previousblockhash": "0000000065aebd2a083094fe89216a6c350e59db077c8b5aae471014c8f54afa",
  "nextblockhash": "00000000c068202bf064552cae1c57b92fee3d24d5040f251f48a03c7217320c",
  "strippedsize": 215,
  "size": 215,
  "weight": 860,
  "tx": [
    {
      "txid": "5f72e5ffdd76ef5f5d9cef9a7f6d8f6240d6acced42ed4a79fb1c47dfa4d87c4",
      "hash": "5f72e5ffdd76ef5f5d9cef9a7f6d8f6240d6acced42ed4a79fb1c47dfa4d87c4",
      "version": 1,
      "size": 134,
      "vsize": 134,
      "weight": 536,
      "locktime": 0,
      "vin": [
        {
          "coinbase": "04ffff001d0115",
          "sequence": 4294967295
        }
      ],
      "vout": [
        {
          "value": 50.0,
          "n": 0,
          "scriptPubKey": {
            "asm": "04115ce97bd2489978f1591c6ead5756e584151384a5382800873eceac3e099e6781192bfeffb8e146e52e6afdb5c3b653cf653ab40c9ff307337cde3493560dae OP_CHECKSIG",
            "desc": "pk(04115ce97bd2489978f1591c6ead5756e584151384a5382800873eceac3e099e6781192bfeffb8e146e52e6afdb5c3b653cf653ab40c9ff307337cde3493560dae)#cvs205a5",
            "hex": "4104115ce97bd2489978f1591c6ead5756e584151384a5382800873eceac3e099e6781192bfeffb8e146e52e6afdb5c3b653cf653ab40c9ff307337cde3493560daeac",
            "type": "pubkey"
          }
        }
      ],
      "hex": "01000000010000000000000000000000000000000000000000000000000000000000000000ffffffff0704ffff001d0115ffffffff0100f2052a01000000434104115ce97bd2489978f1591c6ead5756e584151384a5382800873eceac3e099e6781192bfeffb8e146e52e6afdb5c3b653cf653ab40c9ff307337cde3493560daeac00000000"
    }
  ]
}