{
  "hash": "000000009129b24b6e982af7f065cd4473dd4d73f2a68da05a2b867dd968cc73",
  "confirmations": 48125,
  "height": 4973,
  "version": 1,
  "versionHex": "00000001",
  "merkleroot": "62695d26944d90fdf5f1817b54026e4829e39e2c24dacd4962d36a242f35fb39",
  "time": 1235121487,
  "mediantime": 1235117064,
  "nonce": 3600256283,
  "bits": "1d00ffff",
  "difficulty": 1,
  "chainwork": "0000000000000000000000000000000000000000000000000000136e136e136e",
  "nTx": 1,
  "previousblockhash": "00000000336a20a1040ab496ceb92abe060720646631c1b3a9b76f917f0eb54c",
  "nextblockhash": "00000000b8e3e02c93d42452ef0cce4b5ca4c91ac776f77de818462aa43c5deb",
  "strippedsize": 216,
  "size": 216,
  "weight": 864,
  "tx": [
    {
      "txid": "62695d26944d90fdf5f1817b54026e4829e39e2c24dacd4962d36a242f35fb39",
      "hash": "62695d26944d90fdf5f1817b54026e4829e39e2c24dacd4962d36a242f35fb39",
      "version": 1,
      "size": 135,
      "vsize": 135,
      "weight": 540,
      "locktime": 0,
      "vin": [
        {
          "coinbase": "04ffff001d02af06",
          "sequence": 4294967295
        }
      ],
      "vout": [
        {
          "value": 50.0,
          "n": 0,
          "scriptPubKey": {
            "asm": "04acb00f5dff13044ec16344b9c23100027608016bdfb410704ad4f8ef0cad098526ab6969a4cd8f08a87658afd3c26d5cc910cdd83c7c787769e7fbc21c0c9ac8 OP_CHECKSIG",
            "desc": "pk(04acb00f5dff13044ec16344b9c23100027608016bdfb410704ad4f8ef0cad098526ab6969a4cd8f08a87658afd3c26d5cc910cdd83c7c787769e7fbc21c0c9ac8)#ypcehffy",
            "hex": "4104acb00f5dff13044ec16344b9c23100027608016bdfb410704ad4f8ef0cad098526ab6969a4cd8f08a87658afd3c26d5cc910cdd83c7c787769e7fbc21c0c9ac8ac",
            "type": "pubkey"
          }
        }
      ],
      "hex": "01000000010000000000000000000000000000000000000000000000000000000000000000ffffffff0804ffff001d02af06ffffffff0100f2052a01000000434104acb00f5dff13044ec16344b9c23100027608016bdfb410704ad4f8ef0cad098526ab6969a4cd8f08a87658afd3c26d5cc910cdd83c7c787769e7fbc21c0c9ac8ac00000000"
    }
  ]
}