{
  "hash": "000000002a8ab9346f438588ff09c25a4b12e632cbae4ad54164ba5ea121cbe5",
  "confirmations": 45103,
  "height": 7995,
  "version": 1,
  "versionHex": "00000001",
  "merkleroot": "9155dd403709a5a5839d53ad3e90af8583be825a2063181a66eb9e4ff31a86e3",
  "time": 1237459978,
  "mediantime": 1237455683,
  "nonce": 59208222,
  "bits": "1d00ffff",
  "difficulty": 1,
  "chainwork": "00000000000000000000000000000000000000000000000000001f3c1f3c1f3c",
  "nTx": 1,
  "previousblockhash": "00000000ebbb247235e07381bad04d008cf3cab6ac377f9607e09616261df944",
  "nextblockhash": "00000000b583e20926b44097182e857a95f2127b3e8fab626364b1fb4e9453c2",
  "strippedsize": 215,
  "size": 215,
  "weight": 860,
  "tx": [
    {
      "txid": "9155dd403709a5a5839d53ad3e90af8583be825a2063181a66eb9e4ff31a86e3",
      "hash": "9155dd403709a5a5839d53ad3e90af8583be825a2063181a66eb9e4ff31a86e3",
      "version": 1,
      "size": 134,
      "vsize": 134,
      "weight": 536,
      "locktime": 0,
      "vin": [
        {
          "coinbase": "04ffff001d0105",
          "sequence": 4294967295
        }
      ],
      "vout": [
        {
          "value": 50.0,
          "n": 0,
          "scriptPubKey": {
            "asm": "04dc0836c44aa82a1a0a7ba917e9e442f79e12fd2b8a41c961b9db6c1f4231238e9b005b27b1a8dcaa7546d6629769c60cc5af38765cc6684e01de83ce2b3dcff9 OP_CHECKSIG",
            "desc": "pk(04dc0836c44aa82a1a0a7ba917e9e442f79e12fd2b8a41c961b9db6c1f4231238e9b005b27b1a8dcaa7546d6629769c60cc5af38765cc6684e01de83ce2b3dcff9)#6zlvz6xh",
            "hex": "4104dc0836c44aa82a1a0a7ba917e9e442f79e12fd2b8a41c961b9db6c1f4231238e9b005b27b1a8dcaa7546d6629769c60cc5af38765cc6684e01de83ce2b3dcff9ac",
            "type": "pubkey"
          }
        }
      ],
      "hex": "01000000010000000000000000000000000000000000000000000000000000000000000000ffffffff0704ffff001d0105ffffffff0100f2052a01000000434104dc0836c44aa82a1a0a7ba917e9e442f79e12fd2b8a41c961b9db6c1f4231238e9b005b27b1a8dcaa7546d6629769c60cc5af38765cc6684e01de83ce2b3dcff9ac00000000"
    }
  ]
}