{
  "hash": "0000000002d22a938ca04106547b35996f909f1b8216389f2a97f0ef56b4b838",
  "confirmations": 52387,
  "height": 711,
  "version": 1,
  "versionHex": "00000001",
  "merkleroot": "02d66006ed338fadc068ab4f06af867d6512b8675fb9141d23143ce271052817",
  "time": 1232118179,
  "mediantime": 1232112566,
  "nonce": 587319553,
  "bits": "1d00ffff",
  "difficulty": 1,
  "chainwork": "000000000000000000000000000000000000000000000000000002c802c802c8",
  "nTx": 1,
  "previousblockhash": "00000000791fb1702dd6462b58168d1d93dd26fb6f4755e350c319f17d208645",
  "nextblockhash": "000000001eed32ce8c925d0ce77ce5940c08378f997c67090338e23f956b2668",
  "strippedsize": 216,
  "size": 216,
  "weight": 864,
  "tx": [
    {
      "txid": "02d66006ed338fadc068ab4f06af867d6512b8675fb9141d23143ce271052817",
      "hash": "02d66006ed338fadc068ab4f06af867d6512b8675fb9141d23143ce271052817",
      "version": 1,
      "size": 135,
      "vsize": 135,
      "weight": 540,
      "locktime": 0,
      "vin": [
        {
          "coinbase": "04ffff001d023d01",
          "sequence": 4294967295
        }
      ],
      "vout": [
        {
          "value": 50.0,
          "n": 0,
          "scriptPubKey": {
            "asm": "0479e1f3a7e2fbad94eba64804da8659910a68cba866e03cb1625cc7b0bcc0188294e80661e3012246fc95f225ca7838dd9c2ee3c2cfa7fc3e5d8804781bb481b5 OP_CHECKSIG",
            "desc": "pk(0479e1f3a7e2fbad94eba64804da8659910a68cba866e03cb1625cc7b0bcc0188294e80661e3012246fc95f225ca7838dd9c2ee3c2cfa7fc3e5d8804781bb481b5)#sla84qr2",
            "hex": "410479e1f3a7e2fbad94eba64804da8659910a68cba866e03cb1625cc7b0bcc0188294e80661e3012246fc95f225ca7838dd9c2ee3c2cfa7fc3e5d8804781bb481b5ac",
            "type": "pubkey"
          }
        }
      ],
      "hex": "01000000010000000000000000000000000000000000000000000000000000000000000000ffffffff0804ffff001d023d01ffffffff0100f2052a0100000043410479e1f3a7e2fbad94eba64804da8659910a68cba866e03cb1625cc7b0bcc0188294e80661e3012246fc95f225ca7838dd9c2ee3c2cfa7fc3e5d8804781bb481b5ac00000000"
    }
  ]
}