{
  "hash": "0000000064a6ad218f3abf950d67202a2d610b25638550b2c5f91816a7c8a190",
  "confirmations": 44900,
  "height": 8198,
  "version": 1,
  "versionHex": "00000001",
  "merkleroot": "547c98b8e771276e277683e090e5b6703bfcf0260548977b4cd293b9f56a4195",
  "time": 1237605024,
  "mediantime": 1237601038,
  "nonce": 3394360105,
  "bits": "1d00ffff",
  "difficulty": 1,
  "chainwork": "0000000000000000000000000000000000000000000000000000200720072007",
  "nTx": 1,
  "previousblockhash": "000000003eb064707e0591eb4a83c8fa8f47d18c26ecc34c43649653fd6bf20c",
  "nextblockhash": "000000000576037f0b8ed67b95e45879f5d990281f7183df5a9a9b8f749bf100",
  "strippedsize": 216,
  "size": 216,
  "weight": 864,
  "tx": [
    {
      "txid": "547c98b8e771276e277683e090e5b6703bfcf0260548977b4cd293b9f56a4195",
      "hash": "547c98b8e771276e277683e090e5b6703bfcf0260548977b4cd293b9f56a4195",
      "version": 1,
      "size": 135,
      "vsize": 135,
      "weight": 540,
      "locktime": 0,
      "vin": [
        {
          "coinbase": "04ffff001d02cc02",
          "sequence": 4294967295
        }
      ],
      "vout": [
        {
          "value": 50.0,
          "n": 0,
          "scriptPubKey": {
            "asm": "04838fbd799363c8acf4aab28338a867d301360bd6c3904d4609d9ad76f5e7c27093eaec3eeeca8378b103cefdffca30cae2e3639e89f836678946d312c24a0d48 OP_CHECKSIG",
            "desc": "pk(04838fbd799363c8acf4aab28338a867d301360bd6c3904d4609d9ad76f5e7c27093eaec3eeeca8378b103cefdffca30cae2e3639e89f836678946d312c24a0d48)#zn32xu6m",
            "hex": "4104838fbd799363c8acf4aab28338a867d301360bd6c3904d4609d9ad76f5e7c27093eaec3eeeca8378b103cefdffca30cae2e3639e89f836678946d312c24a0d48ac",
            "type": "pubkey"
          }
        }
      ],
      "hex": "01000000010000000000000000000000000000000000000000000000000000000000000000ffffffff0804ffff001d02cc02ffffffff0100f2052a01000000434104838fbd799363c8acf4aab28338a867d301360bd6c3904d4609d9ad76f5e7c27093eaec3eeeca8378b103cefdffca30cae2e3639e89f836678946d312c24a0d48ac00000000"
    }
  ]
}