{
  "hash": "000000007fbc8d2f5ae7660d256bfa092baf4263696540cbb632fa098619bc9e",
  "confirmations": 44022,
  "height": 9076,
  "version": 1,
  "versionHex": "00000001",
  "merkleroot": "67e2a3e9d56c6aa7fd1be425bdcfdc727dc75fc6e9f7de90f10524a65a21a5d7",
  "time": 1238315240,
  "mediantime": 1238312138,
  "nonce": 3979656249,
  "bits": "1d00ffff",
  "difficulty": 1,
  "chainwork": "0000000000000000000000000000000000000000000000000000237523752375",
  "nTx": 1,
  "previousblockhash": "0000000075d9598bb090706851a29fc74a3cecd6846ec87ac794d7350067babb",
  "nextblockhash": "0000000062cb26abe0587ac88d7416566b2820c5943619764c9929d72c2f0f2d",
  "strippedsize": 216,
  "size": 216,
  "weight": 864,
  "tx": [
    {
      "txid": "67e2a3e9d56c6aa7fd1be425bdcfdc727dc75fc6e9f7de90f10524a65a21a5d7",
      "hash": "67e2a3e9d56c6aa7fd1be425bdcfdc727dc75fc6e9f7de90f10524a65a21a5d7",
      "version": 1,
      "size": 135,
      "vsize": 135,
      "weight": 540,
      "locktime": 0,
      "vin": [
        {
          "coinbase": "04ffff001d02dd07",
          "sequence": 4294967295
        }
      ],
      "vout": [
        {
          "value": 50.0,
          "n": 0,
          "scriptPubKey": {
            "asm": "04e0c920479b2413fa535a2ab2eb0dc457855b291b5effe28461a6cba621e667ebe908ce8c224e6c2c4dfcdb222758c2d2053f296c9046aed5dc47b9d3742e2aee OP_CHECKSIG",
            "desc": "pk(04e0c920479b2413fa535a2ab2eb0dc457855b291b5effe28461a6cba621e667ebe908ce8c224e6c2c4dfcdb222758c2d2053f296c9046aed5dc47b9d3742e2aee)#7w38v8gu",
            "hex": "4104e0c920479b2413fa535a2ab2eb0dc457855b291b5effe28461a6cba621e667ebe908ce8c224e6c2c4dfcdb222758c2d2053f296c9046aed5dc47b9d3742e2aeeac",
            "type": "pubkey"
          }
        }
      ],
      "hex": "01000000010000000000000000000000000000000000000000000000000000000000000000ffffffff0804ffff001d02dd07ffffffff0100f2052a01000000434104e0c920479b2413fa535a2ab2eb0dc457855b291b5effe28461a6cba621e667ebe908ce8c224e6c2c4dfcdb222758c2d2053f296c9046aed5dc47b9d3742e2aeeac00000000"
    }
  ]
}