{
  "hash": "00000000c30dfd2ed5be57055c7b9feb276a7b6771e4b521d6db46f7c19aea4d",
  "confirmations": 43682,
  "height": 9416,
  "version": 1,
  "versionHex": "00000001",
  "merkleroot": "72a36d5929d1184138b23420902e1ad7f585414976e3f78a93c590d4f059053d",
  "time": 1238565354,
  "mediantime": 1238562137,
  "nonce": 941156870,
  "bits": "1d00ffff",
  "difficulty": 1,
  "chainwork": "000000000000000000000000000000000000000000000000000024c924c924c9",
  "nTx": 1,
  "previousblockhash": "000000006c8f8fcdcfb7753b51c27738169f8fba3526f196619fab7520dc0063",
  "nextblockhash": "000000001ae61609f1fc79036377ef6f119363175c8eb152ca1c13d115427da5",
  "strippedsize": 216,
  "size": 216,
  "weight": 864,
  "tx": [
    {
      "txid": "72a36d5929d1184138b23420902e1ad7f585414976e3f78a93c590d4f059053d",
      "hash": "72a36d5929d1184138b23420902e1ad7f585414976e3f78a93c590d4f059053d",
      "version": 1,
      "size": 135,
      "vsize": 135,
      "weight": 540,
      "locktime": 0,
      "vin": [
        {
          "coinbase": "04ffff001d02f203",
          "sequence": 4294967295
        }
      ],
      "vout": [
        {
          "value": 50.0,
          "n": 0,
          "scriptPubKey": {
            "asm": "04df39b8e0861ae15115ba698fac6be36889d5cc02dce095e5160218dff176a1265677373fe616a010af5c96efd07998de30426d086cf82e8b0bb7ff3e4b25e068 OP_CHECKSIG",
            "desc": "pk(04df39b8e0861ae15115ba698fac6be36889d5cc02dce095e5160218dff176a1265677373fe616a010af5c96efd07998de30426d086cf82e8b0bb7ff3e4b25e068)#etk7245c",
            "hex": "4104df39b8e0861ae15115ba698fac6be36889d5cc02dce095e5160218dff176a1265677373fe616a010af5c96efd07998de30426d086cf82e8b0bb7ff3e4b25e068ac",
            "type": "pubkey"
          }
        }
      ],
      "hex": "01000000010000000000000000000000000000000000000000000000000000000000000000ffffffff0804ffff001d02f203ffffffff0100f2052a01000000434104df39b8e0861ae15115ba698fac6be36889d5cc02dce095e5160218dff176a1265677373fe616a010af5c96efd07998de30426d086cf82e8b0bb7ff3e4b25e068ac00000000"
    }
  ]
}