{
  "hash": "000000004b6da5bbb89d6602b47021c817837330c94c92ffdf0fe7a3fc65fa57",
  "confirmations": 52041,
  "height": 1057,
  "version": 1,
  "versionHex": "00000001",
  "merkleroot": "3777569e2072d38d1480e6291275debc68dbfcdd9e2f552995c2d93cb46512e9",
  "time": 1232393819,
  "mediantime": 1232388789,
  "nonce": 991441965,
  "bits": "1d00ffff",
  "difficulty": 1,
  "chainwork": "0000000000000000000000000000000000000000000000000000042204220422",
  "nTx": 1,
  "previousblockhash": "000000008c526b4821b66aa55980dd0c5c40a710fc45b11e4e2509c207cbc64f",
  "nextblockhash": "00000000d357309918e1e2586ca15141650f39b8097169274ccdba05991a87b3",
  "strippedsize": 216,
  "size": 216,
  "weight": 864,
  "tx": [
    {
      "txid": "3777569e2072d38d1480e6291275debc68dbfcdd9e2f552995c2d93cb46512e9",
      "hash": "3777569e2072d38d1480e6291275debc68dbfcdd9e2f552995c2d93cb46512e9",
      "version": 1,
      "size": 135,
      "vsize": 135,
      "weight": 540,
      "locktime": 0,
      "vin": [
        {
          "coinbase": "04ffff001d021c06",
          "sequence": 4294967295
        }
      ],
      "vout": [
        {
          "value": 50.0,
          "n": 0,
          "scriptPubKey": {
            "asm": "045749dea2ad3a28a379b99f0de5e7a25edcf747fbb212d9d5648fb7a48ad11ac1702db199228702cd459c58b9574bd8d67763c8fcb1e60b016b6b53501b282ef9 OP_CHECKSIG",
            "desc": "pk(045749dea2ad3a28a379b99f0de5e7a25edcf747fbb212d9d5648fb7a48ad11ac1702db199228702cd459c58b9574bd8d67763c8fcb1e60b016b6b53501b282ef9)#e5m33eal",
            "hex": "41045749dea2ad3a28a379b99f0de5e7a25edcf747fbb212d9d5648fb7a48ad11ac1702db199228702cd459c58b9574bd8d67763c8fcb1e60b016b6b53501b282ef9ac",
            "type": "pubkey"
          }
        }
      ],
      "hex": "01000000010000000000000000000000000000000000000000000000000000000000000000ffffffff0804ffff001d021c06ffffffff0100f2052a010000004341045749dea2ad3a28a379b99f0de5e7a25edcf747fbb212d9d5648fb7a48ad11ac1702db199228702cd459c58b9574bd8d67763c8fcb1e60b016b6b53501b282ef9ac00000000"
    }
  ]
}