{
  "hash": "00000000f8c7ad93594450f5986dc7d42e0498466ed09c5948bb90312a206495",
  "confirmations": 47350,
  "height": 5748,
  "version": 1,
  "versionHex": "00000001",
  "merkleroot": "d7a87ea33d7a208ebff8bfd22ac68532f4180f43633a743a7400cbdeb7276a41",
  "time": 1235721203,
  "mediantime": 1235716006,
  "nonce": 351730799,
  "bits": "1d00ffff",
  "difficulty": 1,
  "chainwork": "0000000000000000000000000000000000000000000000000000167516751675",
  "nTx": 1,
  "previousblockhash": "00000000f114c2a19b4ce84b9dd7120e6f777f68bafd5da0872f1e2dd61ac71c",
  "nextblockhash": "000000003da58e69eb89e6454a6cb044a8a968fd5f5298b81ecc8ac6614273cf",
  "strippedsize": 216,
  "size": 216,
  "weight": 864,
  "tx": [
    {
      "txid": "d7a87ea33d7a208ebff8bfd22ac68532f4180f43633a743a7400cbdeb7276a41",
      "hash": "d7a87ea33d7a208ebff8bfd22ac68532f4180f43633a743a7400cbdeb7276a41",
      "version": 1,
      "size": 135,
      "vsize": 135,
      "weight": 540,
      "locktime": 0,
      "vin": [
        {
          "coinbase": "04ffff001d023708",
          "sequence": 4294967295
        }
      ],
      "vout": [
        {
          "value": 50.0,
          "n": 0,
          "scriptPubKey": {
            "asm": "04fab2d639e5fa8d6cb178a6e4dfbe720eb194f8080d5eaeb2cf7872f5f11a8652cb346eb956f35adca5d5faa0b2ad79b1ce7b0d8fd033268e5ae24b43c2981ab6 OP_CHECKSIG",
            "desc": "pk(04fab2d639e5fa8d6cb178a6e4dfbe720eb194f8080d5eaeb2cf7872f5f11a8652cb346eb956f35adca5d5faa0b2ad79b1ce7b0d8fd033268e5ae24b43c2981ab6)#7pntyycs",
            "hex": "4104fab2d639e5fa8d6cb178a6e4dfbe720eb194f8080d5eaeb2cf7872f5f11a8652cb346eb956f35adca5d5faa0b2ad79b1ce7b0d8fd033268e5ae24b43c2981ab6ac",
            "type": "pubkey"
          }
        }
      ],
      "hex": "01000000010000000000000000000000000000000000000000000000000000000000000000ffffffff0804ffff001d023708ffffffff0100f2052a01000000434104fab2d639e5fa8d6cb178a6e4dfbe720eb194f8080d5eaeb2cf7872f5f11a8652cb346eb956f35adca5d5faa0b2ad79b1ce7b0d8fd033268e5ae24b43c2981ab6ac00000000"
    }
  ]
}