{
  "hash": "0000000072e011d1731643b13159a274aa0d4e15024d534e1f62804a018d242c",
  "confirmations": 45097,
  "height": 8001,
  "version": 1,
  "versionHex": "00000001",
  "merkleroot": "1b8c499a8d3e952ce0e809a8efa9466ce82d45c3a88df753d173548b6497ffb7",
  "time": 1237461630,
  "mediantime": 1237460784,
  "nonce": 2042654210,
  "bits": "1d00ffff",
  "difficulty": 1,
  "chainwork": "00000000000000000000000000000000000000000000000000001f421f421f42",
  "nTx": 1,
  "previousblockhash": "0000000094fbacdffec05aea9847000522a258c269ae37a74a818afb96fc27d9",
  "nextblockhash": "00000000e47ee7510179985e4f2ef68c7212f3eded5df75af702ba6306bbec5a",
  "strippedsize": 216,
  "size": 216,
  "weight": 864,
  "tx": [
    {
      "txid": "1b8c499a8d3e952ce0e809a8efa9466ce82d45c3a88df753d173548b6497ffb7",
      "hash": "1b8c499a8d3e952ce0e809a8efa9466ce82d45c3a88df753d173548b6497ffb7",
      "version": 1,
      "size": 135,
      "vsize": 135,
      "weight": 540,
      "locktime": 0,
      "vin": [
        {
          "coinbase": "04ffff001d026c09",
          "sequence": 4294967295
        }
      ],
      "vout": [
        {
          "value": 50.0,
          "n": 0,
          "scriptPubKey": {
            "asm": "049249de2d84f49bd6fb3bb9c8872f30b45e64f3a79662c1b476fee526ac5bfe0b11e926062988d557ac720eb1111bfde4820410d556cf2344a52a34b378710f55 OP_CHECKSIG",
            "desc": "pk(049249de2d84f49bd6fb3bb9c8872f30b45e64f3a79662c1b476fee526ac5bfe0b11e926062988d557ac720eb1111bfde4820410d556cf2344a52a34b378710f55)#dlyaftug",
            "hex": "41049249de2d84f49bd6fb3bb9c8872f30b45e64f3a79662c1b476fee526ac5bfe0b11e926062988d557ac720eb1111bfde4820410d556cf2344a52a34b378710f55ac",
            "type": "pubkey"
          }
        }
      ],
      "hex": "01000000010000000000000000000000000000000000000000000000000000000000000000ffffffff0804ffff001d026c09ffffffff0100f2052a010000004341049249de2d84f49bd6fb3bb9c8872f30b45e64f3a79662c1b476fee526ac5bfe0b11e926062988d557ac720eb1111bfde4820410d556cf2344a52a34b378710f55ac00000000"
    }
  ]
}