{
  "hash": "000000000a892e40e7e50def27a70e48445f3ee8d293b71d2e125be3bc4915b2",
  "confirmations": 46944,
  "height": 6154,
  "version": 1,
  "versionHex": "00000001",
  "merkleroot": "452448e788b777f61eff2349a8bab9e6a04b6f0a173e44bf08e3a6dcbe117c9f",
  "time": 1236052447,
  "mediantime": 1236047478,
  "nonce": 3037708834,
  "bits": "1d00ffff",
  "difficulty": 1,
  "chainwork": "0000000000000000000000000000000000000000000000000000180b180b180b",
  "nTx": 1,
  "previousblockhash": "00000000cd03d80e5f2fe3002af88e73962be352356718937edb676e3bf19396",
  "nextblockhash": "00000000b9d7199aa393e2b13b6b1b516f0a24932169d325ea9be89048180545",
  "strippedsize": 216,
  "size": 216,
  "weight": 864,
  "tx": [
    {
      "txid": "452448e788b777f61eff2349a8bab9e6a04b6f0a173e44bf08e3a6dcbe117c9f",
      "hash": "452448e788b777f61eff2349a8bab9e6a04b6f0a173e44bf08e3a6dcbe117c9f",
      "version": 1,
      "size": 135,
      "vsize": 135,
      "weight": 540,
      "locktime": 0,
      "vin": [
        {
          "coinbase": "04ffff001d02bc07",
          "sequence": 4294967295
        }
      ],
      "vout": [
        {
          "value": 50.0,
          "n": 0,
          "scriptPubKey": {
            "asm": "043b2278bac5b48ff5a4792aa3c6feac0daa37bc4c85420ae81db773f52816c0d0822f226be08675117da580fd6e03e84316cd9e089919fbd1e8ec1827acd3a511 OP_CHECKSIG",
            "desc": "pk(043b2278bac5b48ff5a4792aa3c6feac0daa37bc4c85420ae81db773f52816c0d0822f226be08675117da580fd6e03e84316cd9e089919fbd1e8ec1827acd3a511)#8j7ct3cq",
            "hex": "41043b2278bac5b48ff5a4792aa3c6feac0daa37bc4c85420ae81db773f52816c0d0822f226be08675117da580fd6e03e84316cd9e089919fbd1e8ec1827acd3a511ac",
            "type": "pubkey"
          }
        }
      ],
      "hex": "01000000010000000000000000000000000000000000000000000000000000000000000000ffffffff0804ffff001d02bc07ffffffff0100f2052a010000004341043b2278bac5b48ff5a4792aa3c6feac0daa37bc4c85420ae81db773f52816c0d0822f226be08675117da580fd6e03e84316cd9e089919fbd1e8ec1827acd3a511ac00000000"
    }
  ]
}