{
  "hash": "00000000bd5b5e202116da4da9c385e74f74e5a12a06307d1da7c64660e195b4",
  "confirmations": 51291,
  "height": 1807,
  "version": 1,
  "versionHex": "00000001",
  "merkleroot": "c646804b258342ab3ed20b8e9fee5e642c2794e77cbeb68c6f2741a1db52c7ba",
  "time": 1232902463,
  "mediantime": 1232899717,
  "nonce": 445433653,
  "bits": "1d00ffff",
  "difficulty": 1,
  "chainwork": "0000000000000000000000000000000000000000000000000000071007100710",
  "nTx": 1,
  "previousblockhash": "0000000001c93a0932609054f9b74426ce2b83a21609f8bad01b0f0bfb28addc",
  "nextblockhash": "00000000ffd7ae8a525d0083ee8384e13a6cbe1f1218f9ae26a637fbc2093a05",
  "strippedsize": 216,
  "size": 216,
  "weight": 864,
  "tx": [
    {
      "txid": "c646804b258342ab3ed20b8e9fee5e642c2794e77cbeb68c6f2741a1db52c7ba",
      "hash": "c646804b258342ab3ed20b8e9fee5e642c2794e77cbeb68c6f2741a1db52c7ba",
      "version": 1,
      "size": 135,
      "vsize": 135,
      "weight": 540,
      "locktime": 0,
      "vin": [
        {
          "coinbase": "04ffff001d022e04",
          "sequence": 4294967295
        }
      ],
      "vout": [
        {
          "value": 50.0,
          "n": 0,
          "scriptPubKey": {
            "asm": "040337360783ffa5be9baf56a8480c996fc009b79471a92271d7149f7113350eefdbcf169a07e78d1676bc3706ff44d129a0f4742055d12e67032afb2cb35624b2 OP_CHECKSIG",
            "desc": "pk(040337360783ffa5be9baf56a8480c996fc009b79471a92271d7149f7113350eefdbcf169a07e78d1676bc3706ff44d129a0f4742055d12e67032afb2cb35624b2)#hl6w6shr",
            "hex": "41040337360783ffa5be9baf56a8480c996fc009b79471a92271d7149f7113350eefdbcf169a07e78d1676bc3706ff44d129a0f4742055d12e67032afb2cb35624b2ac",
            "type": "pubkey"
          }
        }
      ],
      "hex": "01000000010000000000000000000000000000000000000000000000000000000000000000ffffffff0804ffff001d022e04ffffffff0100f2052a010000004341040337360783ffa5be9baf56a8480c996fc009b79471a92271d7149f7113350eefdbcf169a07e78d1676bc3706ff44d129a0f4742055d12e67032afb2cb35624b2ac00000000"
    }
  ]
}