{
  "hash": "00000000507f2d91edb7d97fd6518e4f8cf624f49c56640bd7c79c811fa5e458",
  "confirmations": 50700,
  "height": 2398,
  "version": 1,
  "versionHex": "00000001",
  "merkleroot": "2a9364b8cba81fcf33acc6694ee574b6c7113ce34d761f15a580d7a1d1a726a2",
  "time": 1233355442,
  "mediantime": 1233348439,
  "nonce": 115691818,
  "bits": "1d00ffff",
  "difficulty": 1,
  "chainwork": "0000000000000000000000000000000000000000000000000000095f095f095f",
  "nTx": 1,
  "previousblockhash": "000000008a2cc8de40740016b39102e38b0e532e3fc7b318e2d23c3ea2c1bd7a",
  "nextblockhash": "00000000887dcf0f1d752603688a0458e5c43eaaea7d0486a6cce2f85b47b468",
  "strippedsize": 215,
  "size": 215,
  "weight": 860,
  "tx": [
    {
      "txid": "2a9364b8cba81fcf33acc6694ee574b6c7113ce34d761f15a580d7a1d1a726a2",
      "hash": "2a9364b8cba81fcf33acc6694ee574b6c7113ce34d761f15a580d7a1d1a726a2",
      "version": 1,
      "size": 134,
      "vsize": 134,
      "weight": 536,
      "locktime": 0,
      "vin": [
        {
          "coinbase": "04ffff001d0106",
          "sequence": 4294967295
        }
      ],
      "vout": [
        {
          "value": 50.0,
          "n": 0,
          "scriptPubKey": {
            "asm": "046785039d84e1e03846a62c9f778149ff6370a30a5e7d1b3ea6a3de540beadbbb3b1f62deb59b36469866d89d824e8645fe3dcddb69ba236a9f746d294da8fa96 OP_CHECKSIG",
            "desc": "pk(046785039d84e1e03846a62c9f778149ff6370a30a5e7d1b3ea6a3de540beadbbb3b1f62deb59b36469866d89d824e8645fe3dcddb69ba236a9f746d294da8fa96)#407k0su9",
            "hex": "41046785039d84e1e03846a62c9f778149ff6370a30a5e7d1b3ea6a3de540beadbbb3b1f62deb59b36469866d89d824e8645fe3dcddb69ba236a9f746d294da8fa96ac",
            "type": "pubkey"
          }
        }
      ],
      "hex": "01000000010000000000000000000000000000000000000000000000000000000000000000ffffffff0704ffff001d0106ffffffff0100f2052a010000004341046785039d84e1e03846a62c9f778149ff6370a30a5e7d1b3ea6a3de540beadbbb3b1f62deb59b36469866d89d824e8645fe3dcddb69ba236a9f746d294da8fa96ac00000000"
    }
  ]
}