{
  "hash": "0000000011e028c880f449e319f60a59da457aaf6e6ec60d5e44c53fbae938b1",
  "confirmations": 50221,
  "height": 2877,
  "version": 1,
  "versionHex": "00000001",
  "merkleroot": "f1d23d9dcb2a550459e372f08523795abd69e11d50c670f125a8767ebc5d995f",
  "time": 1233676732,
  "mediantime": 1233672495,
  "nonce": 3744982064,
  "bits": "1d00ffff",
  "difficulty": 1,
  "chainwork": "00000000000000000000000000000000000000000000000000000b3e0b3e0b3e",
  "nTx": 1,
  "previousblockhash": "0000000049d32ae3139483c40cb413c21b47083f201e1c45988cdc0eaaf581dd",
  "nextblockhash": "00000000d1140c906a48ad5b6adee641f4e00825356bea282266c723a090d86a",
  "strippedsize": 216,
  "size": 216,
  "weight": 864,
  "tx": [
    {
      "txid": "f1d23d9dcb2a550459e372f08523795abd69e11d50c670f125a8767ebc5d995f",
      "hash": "f1d23d9dcb2a550459e372f08523795abd69e11d50c670f125a8767ebc5d995f",
      "version": 1,
      "size": 135,
      "vsize": 135,
      "weight": 540,
      "locktime": 0,
      "vin": [
        {
          "coinbase": "04ffff001d021107",
          "sequence": 4294967295
        }
      ],
      "vout": [
        {
          "value": 50.0,
          "n": 0,
          "scriptPubKey": {
            "asm": "0417d87d860e2ec6d7fb3cfd254b25ed1243dd16b69df3ab92771e0249d7f1d8d5c3c89c93afb84e2e1248041d5a44bf0943fe9bec0830b501a45902b8da51fe9c OP_CHECKSIG",
            "desc": "pk(0417d87d860e2ec6d7fb3cfd254b25ed1243dd16b69df3ab92771e0249d7f1d8d5c3c89c93afb84e2e1248041d5a44bf0943fe9bec0830b501a45902b8da51fe9c)#3efkfajn",
            "hex": "410417d87d860e2ec6d7fb3cfd254b25ed1243dd16b69df3ab92771e0249d7f1d8d5c3c89c93afb84e2e1248041d5a44bf0943fe9bec0830b501a45902b8da51fe9cac",
            "type": "pubkey"
          }
        }
      ],
      "hex": "01000000010000000000000000000000000000000000000000000000000000000000000000ffffffff0804ffff001d021107ffffffff0100f2052a0100000043410417d87d860e2ec6d7fb3cfd254b25ed1243dd16b69df3ab92771e0249d7f1d8d5c3c89c93afb84e2e1248041d5a44bf0943fe9bec0830b501a45902b8da51fe9cac00000000"
    }
  ]
}