{
  "hash": "00000000433a11e2590d8d0fe62fd8a32aafed850584b3fe1f837109ea23df7a",
  "confirmations": 45425,
  "height": 7673,
  "version": 1,
  "versionHex": "00000001",
  "merkleroot": "b7f122ef922eaea3e1db6f59e5c1b7837efab28e7dbd56417bf7a7ede15d59db",
  "time": 1237219829,
  "mediantime": 1237215767,
  "nonce": 852908083,
  "bits": "1d00ffff",
  "difficulty": 1,
  "chainwork": "00000000000000000000000000000000000000000000000000001dfa1dfa1dfa",
  "nTx": 1,
  "previousblockhash": "000000009792577a31d565fba6c9b4ef45ac219c3fb2d8fd76d1189a79885ce5",
  "nextblockhash": "000000003829f9dca9992cb57be455c82332804ea5cb4ebabc316955eb982b56",
  "strippedsize": 216,
  "size": 216,
  "weight": 864,
  "tx": [
    {
      "txid": "b7f122ef922eaea3e1db6f59e5c1b7837efab28e7dbd56417bf7a7ede15d59db",
      "hash": "b7f122ef922eaea3e1db6f59e5c1b7837efab28e7dbd56417bf7a7ede15d59db",
      "version": 1,
      "size": 135,
      "vsize": 135,
      "weight": 540,
      "locktime": 0,
      "vin": [
        {
          "coinbase": "04ffff001d02aa03",
          "sequence": 4294967295
        }
      ],
      "vout": [
        {
          "value": 50.0,
          "n": 0,
          "scriptPubKey": {
            "asm": "04ca3cd9d4251719a3db3b18d2b3a3fd14c80356fc40f8487e0027b875c86839476154051547f31e5bbd03481ff4719526f0c91a53edeab81e7c21a16d145ca12d OP_CHECKSIG",
            "desc": "pk(04ca3cd9d4251719a3db3b18d2b3a3fd14c80356fc40f8487e0027b875c86839476154051547f31e5bbd03481ff4719526f0c91a53edeab81e7c21a16d145ca12d)#vw0m95dp",
            "hex": "4104ca3cd9d4251719a3db3b18d2b3a3fd14c80356fc40f8487e0027b875c86839476154051547f31e5bbd03481ff4719526f0c91a53edeab81e7c21a16d145ca12dac",
            "type": "pubkey"
          }
        }
      ],
      "hex": "01000000010000000000000000000000000000000000000000000000000000000000000000ffffffff0804ffff001d02aa03ffffffff0100f2052a01000000434104ca3cd9d4251719a3db3b18d2b3a3fd14c80356fc40f8487e0027b875c86839476154051547f31e5bbd03481ff4719526f0c91a53edeab81e7c21a16d145ca12dac00000000"
    }
  ]
}