{
  "hash": "0000000080f17a0c5a67f663a9bc9969eb37e81666d9321125f0e293656f8a37",
  "confirmations": 51784,
  "height": 14,
  "version": 1,
  "versionHex": "00000001",
  "merkleroot": "e1afd89295b68bc5247fe0ca2885dd4b8818d7ce430faa615067d7bab8640156",
  "time": 1231475589,
  "mediantime": 1231473279,
  "nonce": 615369513,
  "bits": "1d00ffff",
  "difficulty": 1,
  "chainwork": "0000000000000000000000000000000000000000000000000000000f000f000f",
  "nTx": 1,
  "previousblockhash": "000000005c51de2031a895adc145ee2242e919a01c6d61fb222a54a54b4d3089",
  "nextblockhash": "00000000b3322c8c3ef7d2cf6da009a776e6a99ee65ec5a32f3f345712238473",
  "strippedsize": 215,
  "size": 215,
  "weight": 860,
  "tx": [
    {
      "txid": "e1afd89295b68bc5247fe0ca2885dd4b8818d7ce430faa615067d7bab8640156",
      "hash": "e1afd89295b68bc5247fe0ca2885dd4b8818d7ce430faa615067d7bab8640156",
      "version": 1,
      "size": 134,
      "vsize": 134,
      "weight": 536,
      "locktime": 0,
      "vin": [
        {
          "coinbase": "04ffff001d013e",
          "sequence": 4294967295
        }
      ],
      "vout": [
        {
          "value": 50.0,
          "n": 0,
          "scriptPubKey": {
            "asm": "043e8ac6b8ea64e85928b6469f17db0096de0bcae7d09a4497413d9bba49c00ffdf9cb0ce07c404784928b3976f0beea42fe2691a8f0430bcb2b0daaf5aa02b30e OP_CHECKSIG",
            "desc": "pk(043e8ac6b8ea64e85928b6469f17db0096de0bcae7d09a4497413d9bba49c00ffdf9cb0ce07c404784928b3976f0beea42fe2691a8f0430bcb2b0daaf5aa02b30e)#wmhydrcu",
            "hex": "41043e8ac6b8ea64e85928b6469f17db0096de0bcae7d09a4497413d9bba49c00ffdf9cb0ce07c404784928b3976f0beea42fe2691a8f0430bcb2b0daaf5aa02b30eac",
            "type": "pubkey"
          }
        }
      ],
      "hex": "01000000010000000000000000000000000000000000000000000000000000000000000000ffffffff0704ffff001d013effffffff0100f2052a010000004341043e8ac6b8ea64e85928b6469f17db0096de0bcae7d09a4497413d9bba49c00ffdf9cb0ce07c404784928b3976f0beea42fe2691a8f0430bcb2b0daaf5aa02b30eac00000000"
    }
  ]
}