{
  "hash": "00000000fc7ab2ee2900e9053f4ab643b11a7dff589858f6a7c9b8e7bcfb81d2",
  "confirmations": 43489,
  "height": 9609,
  "version": 1,
  "versionHex": "00000001",
  "merkleroot": "48e9cc87ade9217554fc0abfbee26dc4081a5d083ee1d8e9110ff516465c44da",
  "time": 1238707480,
  "mediantime": 1238704800,
  "nonce": 116588571,
  "bits": "1d00ffff",
  "difficulty": 1,
  "chainwork": "0000000000000000000000000000000000000000000000000000258a258a258a",
  "nTx": 1,
  "previousblockhash": "00000000139581cca425d481f609d8c44bf5e72b9bf1fc0017d9c657eff35521",
  "nextblockhash": "000000006d923baf1f3bcdd7d9fa3e71b81535bd1ce036477fc3ec4a9ebe0387",
  "strippedsize": 216,
  "size": 216,
  "weight": 864,
  "tx": [
    {
      "txid": "48e9cc87ade9217554fc0abfbee26dc4081a5d083ee1d8e9110ff516465c44da",
      "hash": "48e9cc87ade9217554fc0abfbee26dc4081a5d083ee1d8e9110ff516465c44da",
      "version": 1,
      "size": 135,
      "vsize": 135,
      "weight": 540,
      "locktime": 0,
      "vin": [
        {
          "coinbase": "04ffff001d024107",
          "sequence": 4294967295
        }
      ],
      "vout": [
        {
          "value": 50.0,
          "n": 0,
          "scriptPubKey": {
            "asm": "04e8612404c8a7d00e90372cecc9eae449690a9106bc0c52e38c2a33ea55dc20737208980086a8b7149d8ae097b743c21e8f5b16602410d8c7ac2022280a3e8c1d OP_CHECKSIG",
            "desc": "pk(04e8612404c8a7d00e90372cecc9eae449690a9106bc0c52e38c2a33ea55dc20737208980086a8b7149d8ae097b743c21e8f5b16602410d8c7ac2022280a3e8c1d)#27a0s2wu",
            "hex": "4104e8612404c8a7d00e90372cecc9eae449690a9106bc0c52e38c2a33ea55dc20737208980086a8b7149d8ae097b743c21e8f5b16602410d8c7ac2022280a3e8c1dac",
            "type": "pubkey"
          }
        }
      ],
      "hex": "01000000010000000000000000000000000000000000000000000000000000000000000000ffffffff0804ffff001d024107ffffffff0100f2052a01000000434104e8612404c8a7d00e90372cecc9eae449690a9106bc0c52e38c2a33ea55dc20737208980086a8b7149d8ae097b743c21e8f5b16602410d8c7ac2022280a3e8c1dac00000000"
    }
  ]
}