{
  "hash": "000000007566f4492a4ea9c418c88e7e33180e4a09675dbe355e411c8623561d",
  "confirmations": 44019,
  "height": 9079,
  "version": 1,
  "versionHex": "00000001",
  "merkleroot": "cbf3e6e2fc39a681cbebf0713d5e6133779584d1f317d9614931adf406ae8616",
  "time": 1238316178,
  "mediantime": 1238313958,
  "nonce": 3281442596,
  "bits": "1d00ffff",
  "difficulty": 1,
  "chainwork": "0000000000000000000000000000000000000000000000000000237823782378",
  "nTx": 1,
  "previousblockhash": "000000005e92e6fcce1e5f8e94faf41ef887b6ef4ed23723d4897efabcc0afee",
  "nextblockhash": "00000000b1ef17a762edc1afbec6a238fa8113a0d9260a6d9deb256ca62a53eb",
  "strippedsize": 216,
  "size": 216,
  "weight": 864,
  "tx": [
    {
      "txid": "cbf3e6e2fc39a681cbebf0713d5e6133779584d1f317d9614931adf406ae8616",
      "hash": "cbf3e6e2fc39a681cbebf0713d5e6133779584d1f317d9614931adf406ae8616",
      "version": 1,
      "size": 135,
      "vsize": 135,
      "weight": 540,
      "locktime": 0,
      "vin": [
        {
          "coinbase": "04ffff001d02e407",
          "sequence": 4294967295
        }
      ],
      "vout": [
        {
          "value": 50.0,
          "n": 0,
          "scriptPubKey": {
            "asm": "044b99d705f62696fed1c96ee32bb1b56a465b494e88c570975afd00b1f023041dbda412368682c2590d6cea2ec38fccf75a623a1c223d84f7864a7c27840ad0ed OP_CHECKSIG",
            "desc": "pk(044b99d705f62696fed1c96ee32bb1b56a465b494e88c570975afd00b1f023041dbda412368682c2590d6cea2ec38fccf75a623a1c223d84f7864a7c27840ad0ed)#jy9u5gpj",
            "hex": "41044b99d705f62696fed1c96ee32bb1b56a465b494e88c570975afd00b1f023041dbda412368682c2590d6cea2ec38fccf75a623a1c223d84f7864a7c27840ad0edac",
            "type": "pubkey"
          }
        }
      ],
      "hex": "01000000010000000000000000000000000000000000000000000000000000000000000000ffffffff0804ffff001d02e407ffffffff0100f2052a010000004341044b99d705f62696fed1c96ee32bb1b56a465b494e88c570975afd00b1f023041dbda412368682c2590d6cea2ec38fccf75a623a1c223d84f7864a7c27840ad0edac00000000"
    }
  ]
}