{
  "hash": "000000006ae6273972ba781ac48c4851215f77869d153517e8790e2c99196f3b",
  "confirmations": 46034,
  "height": 7064,
  "version": 1,
  "versionHex": "00000001",
  "merkleroot": "467b0afe1b3ab387dabb5508d9b62f1609533d96751b61ea42760985930369f3",
  "time": 1236767840,
  "mediantime": 1236763076,
  "nonce": 13405912,
  "bits": "1d00ffff",
  "difficulty": 1,
  "chainwork": "00000000000000000000000000000000000000000000000000001b991b991b99",
  "nTx": 1,
  "previousblockhash": "00000000094c3f49eb98790a1f8ad16458dc0784ba55479f117a64a23af44c23",
  "nextblockhash": "00000000335c3f9e4bf41b2b36f62f182485ebd2db51f226c99f4ba4ddbb801e",
  "strippedsize": 216,
  "size": 216,
  "weight": 864,
  "tx": [
    {
      "txid": "467b0afe1b3ab387dabb5508d9b62f1609533d96751b61ea42760985930369f3",
      "hash": "467b0afe1b3ab387dabb5508d9b62f1609533d96751b61ea42760985930369f3",
      "version": 1,
      "size": 135,
      "vsize": 135,
      "weight": 540,
      "locktime": 0,
      "vin": [
        {
          "coinbase": "04ffff001d023501",
          "sequence": 4294967295
        }
      ],
      "vout": [
        {
          "value": 50.0,
          "n": 0,
          "scriptPubKey": {
            "asm": "045bcbfa18943270f6e9338d937a18cb2b6a4863fe80cc8957043fec8d6c6faea59c5dc00d263672e59cac6a55c00acc4bd75e0258a12b36f4f737d410383a24a4 OP_CHECKSIG",
            "desc": "pk(045bcbfa18943270f6e9338d937a18cb2b6a4863fe80cc8957043fec8d6c6faea59c5dc00d263672e59cac6a55c00acc4bd75e0258a12b36f4f737d410383a24a4)#3g42edz5",
            "hex": "41045bcbfa18943270f6e9338d937a18cb2b6a4863fe80cc8957043fec8d6c6faea59c5dc00d263672e59cac6a55c00acc4bd75e0258a12b36f4f737d410383a24a4ac",
            "type": "pubkey"
          }
        }
      ],
      "hex": "01000000010000000000000000000000000000000000000000000000000000000000000000ffffffff0804ffff001d023501ffffffff0100f2052a010000004341045bcbfa18943270f6e9338d937a18cb2b6a4863fe80cc8957043fec8d6c6faea59c5dc00d263672e59cac6a55c00acc4bd75e0258a12b36f4f737d410383a24a4ac00000000"
    }
  ]
}