{
  "hash": "00000000d7ccdee2392ff41869997b48eb74e185fcd3641b8601fdec2836ec1a",
  "confirmations": 46321,
  "height": 6777,
  "version": 1,
  "versionHex": "00000001",
  "merkleroot": "f596cee27b916a8c3466dd876354158a1d4c3506be4b7f648426ceb3b583b63a",
  "time": 1236541718,
  "mediantime": 1236538110,
  "nonce": 3963432232,
  "bits": "1d00ffff",
  "difficulty": 1,
  "chainwork": "00000000000000000000000000000000000000000000000000001a7a1a7a1a7a",
  "nTx": 1,
  "previousblockhash": "000000007feefb009f38a0a5cc4d0a709e34e40668e485c4de41218d9ab58d2f",
  "nextblockhash": "000000004ce6c7c1e2316c23c633011889a97354c088a7f4cc4c0d7ae02722aa",
  "strippedsize": 216,
  "size": 216,
  "weight": 864,
  "tx": [
    {
      "txid": "f596cee27b916a8c3466dd876354158a1d4c3506be4b7f648426ceb3b583b63a",
      "hash": "f596cee27b916a8c3466dd876354158a1d4c3506be4b7f648426ceb3b583b63a",
      "version": 1,
      "size": 135,
      "vsize": 135,
      "weight": 540,
      "locktime": 0,
      "vin": [
        {
          "coinbase": "04ffff001d028008",
          "sequence": 4294967295
        }
      ],
      "vout": [
        {
          "value": 50.0,
          "n": 0,
          "scriptPubKey": {
            "asm": "04938a85067d986963ce8023d8c3437abb5382267bd403762be36a8e178bc165cf75c8b27878d28ef3a074fc3f67b33ac7671f2617f5a14250aadc5715bbca2c0a OP_CHECKSIG",
            "desc": "pk(04938a85067d986963ce8023d8c3437abb5382267bd403762be36a8e178bc165cf75c8b27878d28ef3a074fc3f67b33ac7671f2617f5a14250aadc5715bbca2c0a)#yqg5gejw",
            "hex": "4104938a85067d986963ce8023d8c3437abb5382267bd403762be36a8e178bc165cf75c8b27878d28ef3a074fc3f67b33ac7671f2617f5a14250aadc5715bbca2c0aac",
            "type": "pubkey"
          }
        }
      ],
      "hex": "01000000010000000000000000000000000000000000000000000000000000000000000000ffffffff0804ffff001d028008ffffffff0100f2052a01000000434104938a85067d986963ce8023d8c3437abb5382267bd403762be36a8e178bc165cf75c8b27878d28ef3a074fc3f67b33ac7671f2617f5a14250aadc5715bbca2c0aac00000000"
    }
  ]
}