{
  "hash": "0000000087fdbfa68b4fa9c6f27f8bc41352b2eed8bc281c4c74e868bacdfbac",
  "confirmations": 44607,
  "height": 8491,
  "version": 1,
  "versionHex": "00000001",
  "merkleroot": "7f7f4fbae85dcd976131b1c4c2bf870e516b8f73bf12550bba711f9e1bf4b4f4",
  "time": 1237864286,
  "mediantime": 1237860139,
  "nonce": 1622016807,
  "bits": "1d00ffff",
  "difficulty": 1,
  "chainwork": "0000000000000000000000000000000000000000000000000000212c212c212c",
  "nTx": 1,
  "previousblockhash": "0000000006ff36ecbe0777cc448dae54c82182d4cdb3845fb5082289ad6e3626",
  "nextblockhash": "00000000714d217e19d52f46a9073f2cf20adf99f963e91bbcd3c13ca5a170b5",
  "strippedsize": 216,
  "size": 216,
  "weight": 864,
  "tx": [
    {
      "txid": "7f7f4fbae85dcd976131b1c4c2bf870e516b8f73bf12550bba711f9e1bf4b4f4",
      "hash": "7f7f4fbae85dcd976131b1c4c2bf870e516b8f73bf12550bba711f9e1bf4b4f4",
      "version": 1,
      "size": 135,
      "vsize": 135,
      "weight": 540,
      "locktime": 0,
      "vin": [
        {
          "coinbase": "04ffff001d029a07",
          "sequence": 4294967295
        }
      ],
      "vout": [
        {
          "value": 50.0,
          "n": 0,
          "scriptPubKey": {
            "asm": "046b7c9fca04cba22eb2df1f2adbe0f0bb39f15dd03c42a1a479a081974318110b478da164a1f2f02d9a87b3ee8084084e73a5cd3c52f1b3c209d5bd3d9c9b0433 OP_CHECKSIG",
            "desc": "pk(046b7c9fca04cba22eb2df1f2adbe0f0bb39f15dd03c42a1a479a081974318110b478da164a1f2f02d9a87b3ee8084084e73a5cd3c52f1b3c209d5bd3d9c9b0433)#ruvkz0jf",
            "hex": "41046b7c9fca04cba22eb2df1f2adbe0f0bb39f15dd03c42a1a479a081974318110b478da164a1f2f02d9a87b3ee8084084e73a5cd3c52f1b3c209d5bd3d9c9b0433ac",
            "type": "pubkey"
          }
        }
      ],
      "hex": "01000000010000000000000000000000000000000000000000000000000000000000000000ffffffff0804ffff001d029a07ffffffff0100f2052a010000004341046b7c9fca04cba22eb2df1f2adbe0f0bb39f15dd03c42a1a479a081974318110b478da164a1f2f02d9a87b3ee8084084e73a5cd3c52f1b3c209d5bd3d9c9b0433ac00000000"
    }
  ]
}