{
  "hash": "00000000c12782db7d1c20d4f97cef3469da5f9db7c4977e97cefd7e9d0cdf06",
  "confirmations": 52424,
  "height": 674,
  "version": 1,
  "versionHex": "00000001",
  "merkleroot": "b10def82b147c9acff52707a16f878506ed1ec5246a2fee4b50dc73586cba29c",
  "time": 1232087115,
  "mediantime": 1232081542,
  "nonce": 1731044409,
  "bits": "1d00ffff",
  "difficulty": 1,
  "chainwork": "000000000000000000000000000000000000000000000000000002a302a302a3",
  "nTx": 1,
  "previousblockhash": "00000000ea02e80eda7207d0e12b78a99dc94aff6bd2f199ea3a6cfc591a97f6",
  "nextblockhash": "00000000c1c260c8e5913550e4321b0feffb74e19897c4256c57084ec81a2b92",
  "strippedsize": 215,
  "size": 215,
  "weight": 860,
  "tx": [
    {
      "txid": "b10def82b147c9acff52707a16f878506ed1ec5246a2fee4b50dc73586cba29c",
      "hash": "b10def82b147c9acff52707a16f878506ed1ec5246a2fee4b50dc73586cba29c",
      "version": 1,
      "size": 134,
      "vsize": 134,
      "weight": 536,
      "locktime": 0,
      "vin": [
        {
          "coinbase": "04ffff001d014b",
          "sequence": 4294967295
        }
      ],
      "vout": [
        {
          "value": 50.0,
          "n": 0,
          "scriptPubKey": {
            "asm": "04981f547ddd67443a7624c9f8f0afbefa7345d9771b0712c19596b454cd2704d9528776b3897f228aaa4180254174c3da363dcf763baa1b85b3ba081ae4a06c6c OP_CHECKSIG",
            "desc": "pk(04981f547ddd67443a7624c9f8f0afbefa7345d9771b0712c19596b454cd2704d9528776b3897f228aaa4180254174c3da363dcf763baa1b85b3ba081ae4a06c6c)#kq528yhw",
            "hex": "4104981f547ddd67443a7624c9f8f0afbefa7345d9771b0712c19596b454cd2704d9528776b3897f228aaa4180254174c3da363dcf763baa1b85b3ba081ae4a06c6cac",
            "type": "pubkey"
          }
        }
      ],
      "hex": "01000000010000000000000000000000000000000000000000000000000000000000000000ffffffff0704ffff001d014bffffffff0100f2052a01000000434104981f547ddd67443a7624c9f8f0afbefa7345d9771b0712c19596b454cd2704d9528776b3897f228aaa4180254174c3da363dcf763baa1b85b3ba081ae4a06c6cac00000000"
    }
  ]
}