{
  "hash": "0000000027d570e238f94d66317c946f5e6faa736c4e6456b989fc5a5f55661e",
  "confirmations": 47002,
  "height": 6096,
  "version": 1,
  "versionHex": "00000001",
  "merkleroot": "90f450cf2c3803e2faa10e1e6b6702ea23e95d59d5b4cf7b95a56997eab8691e",
  "time": 1236005138,
  "mediantime": 1236000467,
  "nonce": 2717914931,
  "bits": "1d00ffff",
  "difficulty": 1,
  "chainwork": "000000000000000000000000000000000000000000000000000017d117d117d1",
  "nTx": 1,
  "previousblockhash": "000000000fd36aabc5985a9c4c5035dce824de3911ec9f7ac0c59c5653c9a903",
  "nextblockhash": "0000000092568489b6dcb7c220187d00c2d84a18855af7bbfbb03c595cda5050",
  "strippedsize": 216,
  "size": 216,
  "weight": 864,
  "tx": [
    {
      "txid": "90f450cf2c3803e2faa10e1e6b6702ea23e95d59d5b4cf7b95a56997eab8691e",
      "hash": "90f450cf2c3803e2faa10e1e6b6702ea23e95d59d5b4cf7b95a56997eab8691e",
      "version": 1,
      "size": 135,
      "vsize": 135,
      "weight": 540,
      "locktime": 0,
      "vin": [
        {
          "coinbase": "04ffff001d02b006",
          "sequence": 4294967295
        }
      ],
      "vout": [
        {
          "value": 50.0,
          "n": 0,
          "scriptPubKey": {
            "asm": "04ff58b3533d472d19a7ffce1a16bb1a80e5a13d5acf22f57ce3b172ad2c22823a1fbbae41b53fb58a775edd3ae46cf745ec2b4961d3aa4652f9456bbaf0c1f451 OP_CHECKSIG",
            "desc": "pk(04ff58b3533d472d19a7ffce1a16bb1a80e5a13d5acf22f57ce3b172ad2c22823a1fbbae41b53fb58a775edd3ae46cf745ec2b4961d3aa4652f9456bbaf0c1f451)#ae2hua9e",
            "hex": "4104ff58b3533d472d19a7ffce1a16bb1a80e5a13d5acf22f57ce3b172ad2c22823a1fbbae41b53fb58a775edd3ae46cf745ec2b4961d3aa4652f9456bbaf0c1f451ac",
            "type": "pubkey"
          }
        }
      ],
      "hex": "01000000010000000000000000000000000000000000000000000000000000000000000000ffffffff0804ffff001d02b006ffffffff0100f2052a01000000434104ff58b3533d472d19a7ffce1a16bb1a80e5a13d5acf22f57ce3b172ad2c22823a1fbbae41b53fb58a775edd3ae46cf745ec2b4961d3aa4652f9456bbaf0c1f451ac00000000"
    }
  ]
}