{
  "hash": "0000000001872c838e03a9cb5ead26df64328a0986161f493e157a53e449f00a",
  "confirmations": 49917,
  "height": 3181,
  "version": 1,
  "versionHex": "00000001",
  "merkleroot": "e415f12d731b0d22c21e02eea00131c0d806b0845d65681be26a827fbf7cf6f8",
  "time": 1233887452,
  "mediantime": 1233883878,
  "nonce": 3319915056,
  "bits": "1d00ffff",
  "difficulty": 1,
  "chainwork": "00000000000000000000000000000000000000000000000000000c6e0c6e0c6e",
  "nTx": 1,
  "previousblockhash": "00000000fe1e50a2bd550116932ff1e9193a38594c15fd6b2936102b7cecdbf9",
  "nextblockhash": "00000000f8a0d381cb1e1774bc0521b94b1cdb8284cfa9cb046915def70be38f",
  "strippedsize": 216,
  "size": 216,
  "weight": 864,
  "tx": [
    {
      "txid": "e415f12d731b0d22c21e02eea00131c0d806b0845d65681be26a827fbf7cf6f8",
      "hash": "e415f12d731b0d22c21e02eea00131c0d806b0845d65681be26a827fbf7cf6f8",
      "version": 1,
      "size": 135,
      "vsize": 135,
      "weight": 540,
      "locktime": 0,
      "vin": [
        {
          "coinbase": "04ffff001d025f02",
          "sequence": 4294967295
        }
      ],
      "vout": [
        {
          "value": 50.0,
          "n": 0,
          "scriptPubKey": {
            "asm": "04b009dfe8756440eece8da1fc855487e8f93025d8f8f218de7a6dcad31eaac226de73f221cfacb8475e39ded78a15ef42a5b5c53a9c78a730235c2887635e3f8e OP_CHECKSIG",
            "desc": "pk(04b009dfe8756440eece8da1fc855487e8f93025d8f8f218de7a6dcad31eaac226de73f221cfacb8475e39ded78a15ef42a5b5c53a9c78a730235c2887635e3f8e)#twq9x6fc",
            "hex": "4104b009dfe8756440eece8da1fc855487e8f93025d8f8f218de7a6dcad31eaac226de73f221cfacb8475e39ded78a15ef42a5b5c53a9c78a730235c2887635e3f8eac",
            "type": "pubkey"
          }
        }
      ],
      "hex": "01000000010000000000000000000000000000000000000000000000000000000000000000ffffffff0804ffff001d025f02ffffffff0100f2052a01000000434104b009dfe8756440eece8da1fc855487e8f93025d8f8f218de7a6dcad31eaac226de73f221cfacb8475e39ded78a15ef42a5b5c53a9c78a730235c2887635e3f8eac00000000"
    }
  ]
}