{
  "hash": "000000007f7066100aecbe79f3e0ff7c705a3c910656730e03f101d1b3645ec1",
  "confirmations": 47255,
  "height": 5843,
  "version": 1,
  "versionHex": "00000001",
  "merkleroot": "a22fddb98de2d6a0009fb953a9c5e3edff18b279ae5c7c337a0b98327695e4de",
  "time": 1235794841,
  "mediantime": 1235790996,
  "nonce": 44626893,
  "bits": "1d00ffff",
  "difficulty": 1,
  "chainwork": "000000000000000000000000000000000000000000000000000016d416d416d4",
  "nTx": 1,
  "previousblockhash": "000000008e3316a0a8fdb9e806706f0893d0f739d4c6eb9b5ed4e5a7b63e1337",
  "nextblockhash": "000000006a8259db8a37a442fd42fc8a15b901ddec52ed8dd3a604510220524b",
  "strippedsize": 216,
  "size": 216,
  "weight": 864,
  "tx": [
    {
      "txid": "a22fddb98de2d6a0009fb953a9c5e3edff18b279ae5c7c337a0b98327695e4de",
      "hash": "a22fddb98de2d6a0009fb953a9c5e3edff18b279ae5c7c337a0b98327695e4de",
      "version": 1,
      "size": 135,
      "vsize": 135,
      "weight": 540,
      "locktime": 0,
      "vin": [
        {
          "coinbase": "04ffff001d025501",
          "sequence": 4294967295
        }
      ],
      "vout": [
        {
          "value": 50.0,
          "n": 0,
          "scriptPubKey": {
            "asm": "047f1b452d8b9b160eec23a25fb92022201c6c0bd20a6593a7088cfa1f5c69ede288c886c6d0fbc20ce9958c5fe466f692c8db25f98f76ea351136a9173f089e6c OP_CHECKSIG",
            "desc": "pk(047f1b452d8b9b160eec23a25fb92022201c6c0bd20a6593a7088cfa1f5c69ede288c886c6d0fbc20ce9958c5fe466f692c8db25f98f76ea351136a9173f089e6c)#gjkv8dm9",
            "hex": "41047f1b452d8b9b160eec23a25fb92022201c6c0bd20a6593a7088cfa1f5c69ede288c886c6d0fbc20ce9958c5fe466f692c8db25f98f76ea351136a9173f089e6cac",
            "type": "pubkey"
          }
        }
      ],
      "hex": "01000000010000000000000000000000000000000000000000000000000000000000000000ffffffff0804ffff001d025501ffffffff0100f2052a010000004341047f1b452d8b9b160eec23a25fb92022201c6c0bd20a6593a7088cfa1f5c69ede288c886c6d0fbc20ce9958c5fe466f692c8db25f98f76ea351136a9173f089e6cac00000000"
    }
  ]
}