{
  "hash": "00000000d3bd57b12059b89b44344d6abee81321a1acfe178cb485be63ece6e7",
  "confirmations": 50168,
  "height": 2930,
  "version": 1,
  "versionHex": "00000001",
  "merkleroot": "4e11a9e0d3de45f6893c9073bd31ba2e23ce22c755ca6c07b22cbbc9e3c3840a",
  "time": 1233710874,
  "mediantime": 1233707055,
  "nonce": 463015175,
  "bits": "1d00ffff",
  "difficulty": 1,
  "chainwork": "00000000000000000000000000000000000000000000000000000b730b730b73",
  "nTx": 1,
  "previousblockhash": "00000000fe4f3ee244e2915d959ecbd67da44ad26546c651e0a546dca24d6460",
  "nextblockhash": "0000000004c49f339a7672fb0f63328568728bd9740deefc271b9d0c29e61523",
  "strippedsize": 215,
  "size": 215,
  "weight": 860,
  "tx": [
    {
      "txid": "4e11a9e0d3de45f6893c9073bd31ba2e23ce22c755ca6c07b22cbbc9e3c3840a",
      "hash": "4e11a9e0d3de45f6893c9073bd31ba2e23ce22c755ca6c07b22cbbc9e3c3840a",
      "version": 1,
      "size": 134,
      "vsize": 134,
      "weight": 536,
      "locktime": 0,
      "vin": [
        {
          "coinbase": "04ffff001d013c",
          "sequence": 4294967295
        }
      ],
      "vout": [
        {
          "value": 50.0,
          "n": 0,
          "scriptPubKey": {
            "asm": "04ec7e82181dfbec7596629ebff10af0b5d6f5289a6701b782907cf277aee90d30832bbafc05d4da8792453ba1cfb6a4b86dc984cb3e12a59647bdee378957ec77 OP_CHECKSIG",
            "desc": "pk(04ec7e82181dfbec7596629ebff10af0b5d6f5289a6701b782907cf277aee90d30832bbafc05d4da8792453ba1cfb6a4b86dc984cb3e12a59647bdee378957ec77)#5w3fca8u",
            "hex": "4104ec7e82181dfbec7596629ebff10af0b5d6f5289a6701b782907cf277aee90d30832bbafc05d4da8792453ba1cfb6a4b86dc984cb3e12a59647bdee378957ec77ac",
            "type": "pubkey"
          }
        }
      ],
      "hex": "01000000010000000000000000000000000000000000000000000000000000000000000000ffffffff0704ffff001d013cffffffff0100f2052a01000000434104ec7e82181dfbec7596629ebff10af0b5d6f5289a6701b782907cf277aee90d30832bbafc05d4da8792453ba1cfb6a4b86dc984cb3e12a59647bdee378957ec77ac00000000"
    }
  ]
}