{
  "hash": "00000000198fcebe08bddec72991be0dacb438d0ab5a9bbc589cd44cad250005",
  "confirmations": 52053,
  "height": 1045,
  "version": 1,
  "versionHex": "00000001",
  "merkleroot": "19c493dd123c7fa16e1535f3bc55c5f9e35ad491945ffb5682504fe9f3ef253d",
  "time": 1232383834,
  "mediantime": 1232379081,
  "nonce": 567655983,
  "bits": "1d00ffff",
  "difficulty": 1,
  "chainwork": "0000000000000000000000000000000000000000000000000000041604160416",
  "nTx": 1,
  "previousblockhash": "000000003f5df7ac48dcf4ca000cc976aa2c73ff0e6b4286d265ff5793a8a3f6",
  "nextblockhash": "00000000b1d92d801eb3385f605ddcb314bf3d2cdd94940dd47f6585f41fb749",
  "strippedsize": 216,
  "size": 216,
  "weight": 864,
  "tx": [
    {
      "txid": "19c493dd123c7fa16e1535f3bc55c5f9e35ad491945ffb5682504fe9f3ef253d",
      "hash": "19c493dd123c7fa16e1535f3bc55c5f9e35ad491945ffb5682504fe9f3ef253d",
      "version": 1,
      "size": 135,
      "vsize": 135,
      "weight": 540,
      "locktime": 0,
      "vin": [
        {
          "coinbase": "04ffff001d02f005",
          "sequence": 4294967295
        }
      ],
      "vout": [
        {
          "value": 50.0,
          "n": 0,
          "scriptPubKey": {
            "asm": "044b187477925d0b1dfdc641cfe8f017af847f2f6a2e15c8eead077e82a8aeb311261ee2954a6c451617ff6bfb8b4e732c73725c4c04b96ab4b69aeda04a32f349 OP_CHECKSIG",
            "desc": "pk(044b187477925d0b1dfdc641cfe8f017af847f2f6a2e15c8eead077e82a8aeb311261ee2954a6c451617ff6bfb8b4e732c73725c4c04b96ab4b69aeda04a32f349)#uxv957rj",
            "hex": "41044b187477925d0b1dfdc641cfe8f017af847f2f6a2e15c8eead077e82a8aeb311261ee2954a6c451617ff6bfb8b4e732c73725c4c04b96ab4b69aeda04a32f349ac",
            "type": "pubkey"
          }
        }
      ],
      "hex": "01000000010000000000000000000000000000000000000000000000000000000000000000ffffffff0804ffff001d02f005ffffffff0100f2052a010000004341044b187477925d0b1dfdc641cfe8f017af847f2f6a2e15c8eead077e82a8aeb311261ee2954a6c451617ff6bfb8b4e732c73725c4c04b96ab4b69aeda04a32f349ac00000000"
    }
  ]
}