{
  "hash": "0000000092568489b6dcb7c220187d00c2d84a18855af7bbfbb03c595cda5050",
  "confirmations": 47001,
  "height": 6097,
  "version": 1,
  "versionHex": "00000001",
  "merkleroot": "ce2fda0e65b1912ba06390e7a11fb9643cdc5f91f3dcc69292dc70311e7ba574",
  "time": 1236006485,
  "mediantime": 1236001063,
  "nonce": 3950102534,
  "bits": "1d00ffff",
  "difficulty": 1,
  "chainwork": "000000000000000000000000000000000000000000000000000017d217d217d2",
  "nTx": 1,
  "previousblockhash": "0000000027d570e238f94d66317c946f5e6faa736c4e6456b989fc5a5f55661e",
  "nextblockhash": "000000001e17043848bdb3618e9b9d4e6cf3978c5d7fbef38051417cb2c519d5",
  "strippedsize": 216,
  "size": 216,
  "weight": 864,
  "tx": [
    {
      "txid": "ce2fda0e65b1912ba06390e7a11fb9643cdc5f91f3dcc69292dc70311e7ba574",
      "hash": "ce2fda0e65b1912ba06390e7a11fb9643cdc5f91f3dcc69292dc70311e7ba574",
      "version": 1,
      "size": 135,
      "vsize": 135,
      "weight": 540,
      "locktime": 0,
      "vin": [
        {
          "coinbase": "04ffff001d02b406",
          "sequence": 4294967295
        }
      ],
      "vout": [
        {
          "value": 50.0,
          "n": 0,
          "scriptPubKey": {
            "asm": "047992600732825cede4296a2eeb97d11ebc35f8a13e3c11ccfe2723a11a29979e2362d56c01e9865c0e3a0f37b3edc46830899eef3b7fe366ed70a5d571ebf277 OP_CHECKSIG",
            "desc": "pk(047992600732825cede4296a2eeb97d11ebc35f8a13e3c11ccfe2723a11a29979e2362d56c01e9865c0e3a0f37b3edc46830899eef3b7fe366ed70a5d571ebf277)#cykt86w4",
            "hex": "41047992600732825cede4296a2eeb97d11ebc35f8a13e3c11ccfe2723a11a29979e2362d56c01e9865c0e3a0f37b3edc46830899eef3b7fe366ed70a5d571ebf277ac",
            "type": "pubkey"
          }
        }
      ],
      "hex": "01000000010000000000000000000000000000000000000000000000000000000000000000ffffffff0804ffff001d02b406ffffffff0100f2052a010000004341047992600732825cede4296a2eeb97d11ebc35f8a13e3c11ccfe2723a11a29979e2362d56c01e9865c0e3a0f37b3edc46830899eef3b7fe366ed70a5d571ebf277ac00000000"
    }
  ]
}