{
  "hash": "00000000b208b8059038c5b7dae8c19b40c3b186332170493bdd19b3a9c0a445",
  "confirmations": 46527,
  "height": 6571,
  "version": 1,
  "versionHex": "00000001",
  "merkleroot": "d2c103a9b024121df8e4bedc8862d7224d7a2fe4c2c1ec6f52fa8a68fc2fdc9f",
  "time": 1236379848,
  "mediantime": 1236376764,
  "nonce": 2788667396,
  "bits": "1d00ffff",
  "difficulty": 1,
  "chainwork": "000000000000000000000000000000000000000000000000000019ac19ac19ac",
  "nTx": 1,
  "previousblockhash": "00000000249b3caba98d7757fa078188b21ee3c73272c1c90392cfe8e070e08b",
  "nextblockhash": "00000000004da06c86b8417e8ab7d29ca55ffb85cfe399e41dc0adfcf5f3d330",
  "strippedsize": 216,
  "size": 216,
  "weight": 864,
  "tx": [
    {
      "txid": "d2c103a9b024121df8e4bedc8862d7224d7a2fe4c2c1ec6f52fa8a68fc2fdc9f",
      "hash": "d2c103a9b024121df8e4bedc8862d7224d7a2fe4c2c1ec6f52fa8a68fc2fdc9f",
      "version": 1,
      "size": 135,
      "vsize": 135,
      "weight": 540,
      "locktime": 0,
      "vin": [
        {
          "coinbase": "04ffff001d02ae04",
          "sequence": 4294967295
        }
      ],
      "vout": [
        {
          "value": 50.0,
          "n": 0,
          "scriptPubKey": {
            "asm": "0432e2002a96561cb35f2ade793e8c24a535870feff661e2968729f169f538cb8c142ed231c31840f46c3b01bf7a86946f46a1e020c8ca826cecb6ca89909aca52 OP_CHECKSIG",
            "desc": "pk(0432e2002a96561cb35f2ade793e8c24a535870feff661e2968729f169f538cb8c142ed231c31840f46c3b01bf7a86946f46a1e020c8ca826cecb6ca89909aca52)#0r2kyuek",
            "hex": "410432e2002a96561cb35f2ade793e8c24a535870feff661e2968729f169f538cb8c142ed231c31840f46c3b01bf7a86946f46a1e020c8ca826cecb6ca89909aca52ac",
            "type": "pubkey"
          }
        }
      ],
      "hex": "01000000010000000000000000000000000000000000000000000000000000000000000000ffffffff0804ffff001d02ae04ffffffff0100f2052a0100000043410432e2002a96561cb35f2ade793e8c24a535870feff661e2968729f169f538cb8c142ed231c31840f46c3b01bf7a86946f46a1e020c8ca826cecb6ca89909aca52ac00000000"
    }
  ]
}