{
  "hash": "00000000954bf1ee6550097e46165b37ec2f93c4e49c1b8446e3c2e94139a3ab",
  "confirmations": 46924,
  "height": 6174,
  "version": 1,
  "versionHex": "00000001",
  "merkleroot": "d4e5641d899a9f0654c346198792b111de46eb6e5b8fe21866ed822e97fec429",
  "time": 1236070420,
  "mediantime": 1236067026,
  "nonce": 74367458,
  "bits": "1d00ffff",
  "difficulty": 1,
  "chainwork": "0000000000000000000000000000000000000000000000000000181f181f181f",
  "nTx": 1,
  "previousblockhash": "00000000b157251c1d86aff6db0b460595b98ed577fd4765f2e918977cf09644",
  "nextblockhash": "00000000aad507218b583f4962b53ee1fcd9e7a0f10e736cf7f07c8342b90507",
  "strippedsize": 216,
  "size": 216,
  "weight": 864,
  "tx": [
    {
      "txid": "d4e5641d899a9f0654c346198792b111de46eb6e5b8fe21866ed822e97fec429",
      "hash": "d4e5641d899a9f0654c346198792b111de46eb6e5b8fe21866ed822e97fec429",
      "version": 1,
      "size": 135,
      "vsize": 135,
      "weight": 540,
      "locktime": 0,
      "vin": [
        {
          "coinbase": "04ffff001d02e509",
          "sequence": 4294967295
        }
      ],
      "vout": [
        {
          "value": 50.0,
          "n": 0,
          "scriptPubKey": {
            "asm": "049ba95005377a216fcea8952de75b07697e35396102ddcdd695ecdd3c242e34a6799708993d87e6c20a5f4725e37b508949d09f49b11188d14b68db2e9dce9361 OP_CHECKSIG",
            "desc": "pk(049ba95005377a216fcea8952de75b07697e35396102ddcdd695ecdd3c242e34a6799708993d87e6c20a5f4725e37b508949d09f49b11188d14b68db2e9dce9361)#0veey6s2",
            "hex": "41049ba95005377a216fcea8952de75b07697e35396102ddcdd695ecdd3c242e34a6799708993d87e6c20a5f4725e37b508949d09f49b11188d14b68db2e9dce9361ac",
            "type": "pubkey"
          }
        }
      ],
      "hex": "01000000010000000000000000000000000000000000000000000000000000000000000000ffffffff0804ffff001d02e509ffffffff0100f2052a010000004341049ba95005377a216fcea8952de75b07697e35396102ddcdd695ecdd3c242e34a6799708993d87e6c20a5f4725e37b508949d09f49b11188d14b68db2e9dce9361ac00000000"
    }
  ]
}