{
  "hash": "00000000aa195e03989d7a4c5dc4b58ed4b1ef55e460a780a2dd7bbfffc51398",
  "confirmations": 51411,
  "height": 1687,
  "version": 1,
  "versionHex": "00000001",
  "merkleroot": "08718e34cc633f2c3459e5f2dd634b69806d6992d4799945c4d7c3922f34ddee",
  "time": 1232847495,
  "mediantime": 1232845258,
  "nonce": 1393127970,
  "bits": "1d00ffff",
  "difficulty": 1,
  "chainwork": "0000000000000000000000000000000000000000000000000000069806980698",
  "nTx": 1,
  "previousblockhash": "0000000007123c244126c38e1c702e49b136905581f43070f0b58f2bbdb1cbfc",
  "nextblockhash": "000000003bde7050ee6fbd219f93e2192f03897d9f49103e4ad383c8ad8e395d",
  "strippedsize": 216,
  "size": 216,
  "weight": 864,
  "tx": [
    {
      "txid": "08718e34cc633f2c3459e5f2dd634b69806d6992d4799945c4d7c3922f34ddee",
      "hash": "08718e34cc633f2c3459e5f2dd634b69806d6992d4799945c4d7c3922f34ddee",
      "version": 1,
      "size": 135,
      "vsize": 135,
      "weight": 540,
      "locktime": 0,
      "vin": [
        {
          "coinbase": "04ffff001d020603",
          "sequence": 4294967295
        }
      ],
      "vout": [
        {
          "value": 50.0,
          "n": 0,
          "scriptPubKey": {
            "asm": "04a299d9cfefeee7fc87f493cb569a98ca59ce98d6a3e589d11bba555f2d3c9ecc0f037b23979d615e7bf325683d5a5f84c82fc89b0d403bee75eb0ee24758e9f0 OP_CHECKSIG",
            "desc": "pk(04a299d9cfefeee7fc87f493cb569a98ca59ce98d6a3e589d11bba555f2d3c9ecc0f037b23979d615e7bf325683d5a5f84c82fc89b0d403bee75eb0ee24758e9f0)#wa7z2aez",
            "hex": "4104a299d9cfefeee7fc87f493cb569a98ca59ce98d6a3e589d11bba555f2d3c9ecc0f037b23979d615e7bf325683d5a5f84c82fc89b0d403bee75eb0ee24758e9f0ac",
            "type": "pubkey"
          }
        }
      ],
      "hex": "01000000010000000000000000000000000000000000000000000000000000000000000000ffffffff0804ffff001d020603ffffffff0100f2052a01000000434104a299d9cfefeee7fc87f493cb569a98ca59ce98d6a3e589d11bba555f2d3c9ecc0f037b23979d615e7bf325683d5a5f84c82fc89b0d403bee75eb0ee24758e9f0ac00000000"
    }
  ]
}