{
  "hash": "000000008d26f8741d57c63909bd91c452ae62a2a60ce74c0f02b03f0d022917",
  "confirmations": 44184,
  "height": 8914,
  "version": 1,
  "versionHex": "00000001",
  "merkleroot": "538c29ce52a5d49de1a334b31d61a6ed8b5cc7364b50aa88a5fb349b0bb82291",
  "time": 1238190351,
  "mediantime": 1238186196,
  "nonce": 4074764550,
  "bits": "1d00ffff",
  "difficulty": 1,
  "chainwork": "000000000000000000000000000000000000000000000000000022d322d322d3",
  "nTx": 1,
  "previousblockhash": "00000000ef594210a5a7902c7b5c399b049ca4233d3450c91cda55adfe2ffd1d",
  "nextblockhash": "000000009a1fb06bb4c7b3f1d1f9fd97b4c30da89cdc2010a8f98307baf01ba9",
  "strippedsize": 216,
  "size": 216,
  "weight": 864,
  "tx": [
    {
      "txid": "538c29ce52a5d49de1a334b31d61a6ed8b5cc7364b50aa88a5fb349b0bb82291",
      "hash": "538c29ce52a5d49de1a334b31d61a6ed8b5cc7364b50aa88a5fb349b0bb82291",
      "version": 1,
      "size": 135,
      "vsize": 135,
      "weight": 540,
      "locktime": 0,
      "vin": [
        {
          "coinbase": "04ffff001d02d804",
          "sequence": 4294967295
        }
      ],
      "vout": [
        {
          "value": 50.0,
          "n": 0,
          "scriptPubKey": {
            "asm": "0419f325e60cf87338fc3684e10363bd7f01d31e6fa8740ae335cd3d1dee7cc6e07403fd3b4b1e99001ddfa0d17774dce5850c9e73cc8ad1043d970ff029a9e952 OP_CHECKSIG",
            "desc": "pk(0419f325e60cf87338fc3684e10363bd7f01d31e6fa8740ae335cd3d1dee7cc6e07403fd3b4b1e99001ddfa0d17774dce5850c9e73cc8ad1043d970ff029a9e952)#v6n246gy",
            "hex": "410419f325e60cf87338fc3684e10363bd7f01d31e6fa8740ae335cd3d1dee7cc6e07403fd3b4b1e99001ddfa0d17774dce5850c9e73cc8ad1043d970ff029a9e952ac",
            "type": "pubkey"
          }
        }
      ],
      "hex": "01000000010000000000000000000000000000000000000000000000000000000000000000ffffffff0804ffff001d02d804ffffffff0100f2052a0100000043410419f325e60cf87338fc3684e10363bd7f01d31e6fa8740ae335cd3d1dee7cc6e07403fd3b4b1e99001ddfa0d17774dce5850c9e73cc8ad1043d970ff029a9e952ac00000000"
    }
  ]
}