{
  "hash": "00000000665e84b1b59fcba37cc7674a4591e40c8a89bc0fdab40f70f845039c",
  "confirmations": 45923,
  "height": 7175,
  "version": 1,
  "versionHex": "00000001",
  "merkleroot": "704396f5cf8314120b132ed886efc8d0b78ec11d89900b419ce4264d953f23e7",
  "time": 1236853400,
  "mediantime": 1236848303,
  "nonce": 4273364745,
  "bits": "1d00ffff",
  "difficulty": 1,
  "chainwork": "00000000000000000000000000000000000000000000000000001c081c081c08",
  "nTx": 1,
  "previousblockhash": "0000000043a6beca9339f823e92f50e857d45398a98483785090f8246c07d0ff",
  "nextblockhash": "00000000d1c40b595ebb20cbe7eb40cb7a564217522b15b5734b826e272ac989",
  "strippedsize": 216,
  "size": 216,
  "weight": 864,
  "tx": [
    {
      "txid": "704396f5cf8314120b132ed886efc8d0b78ec11d89900b419ce4264d953f23e7",
      "hash": "704396f5cf8314120b132ed886efc8d0b78ec11d89900b419ce4264d953f23e7",
      "version": 1,
      "size": 135,
      "vsize": 135,
      "weight": 540,
      "locktime": 0,
      "vin": [
        {
          "coinbase": "04ffff001d025605",
          "sequence": 4294967295
        }
      ],
      "vout": [
        {
          "value": 50.0,
          "n": 0,
          "scriptPubKey": {
            "asm": "04b0608487d3c3cabcd653cf82fe9d7061132aca3f6fafb66181280ec145ac14a28f520e353555c356d9104078ca822e0c194b45fd1056f0235db956295a170e4b OP_CHECKSIG",
            "desc": "pk(04b0608487d3c3cabcd653cf82fe9d7061132aca3f6fafb66181280ec145ac14a28f520e353555c356d9104078ca822e0c194b45fd1056f0235db956295a170e4b)#60hfdzwt",
            "hex": "4104b0608487d3c3cabcd653cf82fe9d7061132aca3f6fafb66181280ec145ac14a28f520e353555c356d9104078ca822e0c194b45fd1056f0235db956295a170e4bac",
            "type": "pubkey"
          }
        }
      ],
      "hex": "01000000010000000000000000000000000000000000000000000000000000000000000000ffffffff0804ffff001d025605ffffffff0100f2052a01000000434104b0608487d3c3cabcd653cf82fe9d7061132aca3f6fafb66181280ec145ac14a28f520e353555c356d9104078ca822e0c194b45fd1056f0235db956295a170e4bac00000000"
    }
  ]
}