{
  "hash": "0000000054d9dfc9f9577a1f3cf9d2717fee8eac818756e801c34df54838b08d",
  "confirmations": 47382,
  "height": 5716,
  "version": 1,
  "versionHex": "00000001",
  "merkleroot": "fd5d2f6f69ec2b66682f0b56ac6bb44780edc16da1adb7334705c5629fdf9f41",
  "time": 1235697877,
  "mediantime": 1235694218,
  "nonce": 3221905194,
  "bits": "1d00ffff",
  "difficulty": 1,
  "chainwork": "0000000000000000000000000000000000000000000000000000165516551655",
  "nTx": 1,
  "previousblockhash": "00000000c2b65b5f82abce58a34b062881a9877c4040e7ec0fd317ce1ad294c2",
  "nextblockhash": "00000000a281b098c057b406e8de544ceb9d6f693c1875501d879532a1c2be72",
  "strippedsize": 216,
  "size": 216,
  "weight": 864,
  "tx": [
    {
      "txid": "fd5d2f6f69ec2b66682f0b56ac6bb44780edc16da1adb7334705c5629fdf9f41",
      "hash": "fd5d2f6f69ec2b66682f0b56ac6bb44780edc16da1adb7334705c5629fdf9f41",
      "version": 1,
      "size": 135,
      "vsize": 135,
      "weight": 540,
      "locktime": 0,
      "vin": [
        {
          "coinbase": "04ffff001d02b309",
          "sequence": 4294967295
        }
      ],
      "vout": [
        {
          "value": 50.0,
          "n": 0,
          "scriptPubKey": {
            "asm": "047a002f75cbe384fdaa65885873da469a178d46fb27991f5451c9bd3accb49a9bff1cfadb9150ee7ed81c66ca822f3ec8c60d9eb4ca16cff9fb97132a71fd70fa OP_CHECKSIG",
            "desc": "pk(047a002f75cbe384fdaa65885873da469a178d46fb27991f5451c9bd3accb49a9bff1cfadb9150ee7ed81c66ca822f3ec8c60d9eb4ca16cff9fb97132a71fd70fa)#xysgegk8",
            "hex": "41047a002f75cbe384fdaa65885873da469a178d46fb27991f5451c9bd3accb49a9bff1cfadb9150ee7ed81c66ca822f3ec8c60d9eb4ca16cff9fb97132a71fd70faac",
            "type": "pubkey"
          }
        }
      ],
      "hex": "01000000010000000000000000000000000000000000000000000000000000000000000000ffffffff0804ffff001d02b309ffffffff0100f2052a010000004341047a002f75cbe384fdaa65885873da469a178d46fb27991f5451c9bd3accb49a9bff1cfadb9150ee7ed81c66ca822f3ec8c60d9eb4ca16cff9fb97132a71fd70faac00000000"
    }
  ]
}