{
  "hash": "0000000067ebd365b2395ff67596578ce7262422296f384c4a1787c0a7300a0a",
  "confirmations": 50833,
  "height": 2265,
  "version": 1,
  "versionHex": "00000001",
  "merkleroot": "0c2e3d6f1118e65b2844bb99f82637c6f471c4869c8fad23579270aec02cd97e",
  "time": 1233256199,
  "mediantime": 1233252794,
  "nonce": 2572912422,
  "bits": "1d00ffff",
  "difficulty": 1,
  "chainwork": "000000000000000000000000000000000000000000000000000008da08da08da",
  "nTx": 1,
  "previousblockhash": "00000000af519c91833bc83489f1c3a6a64d67979632537f55711d9d0d30ea77",
  "nextblockhash": "00000000f38fc7d1caf8aecc55ea5180b003355e08efcdc565fc30dc9300f3bb",
  "strippedsize": 216,
  "size": 216,
  "weight": 864,
  "tx": [
    {
      "txid": "0c2e3d6f1118e65b2844bb99f82637c6f471c4869c8fad23579270aec02cd97e",
      "hash": "0c2e3d6f1118e65b2844bb99f82637c6f471c4869c8fad23579270aec02cd97e",
      "version": 1,
      "size": 135,
      "vsize": 135,
      "weight": 540,
      "locktime": 0,
      "vin": [
        {
          "coinbase": "04ffff001d023101",
          "sequence": 4294967295
        }
      ],
      "vout": [
        {
          "value": 50.0,
          "n": 0,
          "scriptPubKey": {
            "asm": "04b8719e7245c865207eb8de9f9e62a89f074da5e8c97613769c79283e335a7be06d519c20cb949c67ab5fb19742bdf9f91569d0f2eb52dd54ad7533b76218408b OP_CHECKSIG",
            "desc": "pk(04b8719e7245c865207eb8de9f9e62a89f074da5e8c97613769c79283e335a7be06d519c20cb949c67ab5fb19742bdf9f91569d0f2eb52dd54ad7533b76218408b)#pvs4n8n8",
            "hex": "4104b8719e7245c865207eb8de9f9e62a89f074da5e8c97613769c79283e335a7be06d519c20cb949c67ab5fb19742bdf9f91569d0f2eb52dd54ad7533b76218408bac",
            "type": "pubkey"
          }
        }
      ],
      "hex": "01000000010000000000000000000000000000000000000000000000000000000000000000ffffffff0804ffff001d023101ffffffff0100f2052a01000000434104b8719e7245c865207eb8de9f9e62a89f074da5e8c97613769c79283e335a7be06d519c20cb949c67ab5fb19742bdf9f91569d0f2eb52dd54ad7533b76218408bac00000000"
    }
  ]
}