{
  "hash": "0000000071387bb155f1fba14338ad98fa1a78844a54f80495243096fb6194bd",
  "confirmations": 50333,
  "height": 2765,
  "version": 1,
  "versionHex": "00000001",
  "merkleroot": "08f02c20b98d4cb91d5cdc441de1580155db4bda69f1cbea5e3b674e7bfd6240",
  "time": 1233605821,
  "mediantime": 1233602636,
  "nonce": 2719941662,
  "bits": "1d00ffff",
  "difficulty": 1,
  "chainwork": "00000000000000000000000000000000000000000000000000000ace0ace0ace",
  "nTx": 1,
  "previousblockhash": "000000004919955232b3051edf5b8c09e46eb5b076b3168e1daefcebd2bf0a18",
  "nextblockhash": "0000000041439bba955e25091f8375196c5a1a6d889e4a872d1fd5401132133d",
  "strippedsize": 216,
  "size": 216,
  "weight": 864,
  "tx": [
    {
      "txid": "08f02c20b98d4cb91d5cdc441de1580155db4bda69f1cbea5e3b674e7bfd6240",
      "hash": "08f02c20b98d4cb91d5cdc441de1580155db4bda69f1cbea5e3b674e7bfd6240",
      "version": 1,
      "size": 135,
      "vsize": 135,
      "weight": 540,
      "locktime": 0,
      "vin": [
        {
          "coinbase": "04ffff001d02bf05",
          "sequence": 4294967295
        }
      ],
      "vout": [
        {
          "value": 50.0,
          "n": 0,
          "scriptPubKey": {
            "asm": "047a9d205c8778cdfed2c8c37026ab3b66f9b3f0104f8eb333640854ab6412f808baab470ef11b2d8c8ed2837d5ff8fa4747b75d11d11eab8dacf5bd6f91031b82 OP_CHECKSIG",
            "desc": "pk(047a9d205c8778cdfed2c8c37026ab3b66f9b3f0104f8eb333640854ab6412f808baab470ef11b2d8c8ed2837d5ff8fa4747b75d11d11eab8dacf5bd6f91031b82)#qyf5stfh",
            "hex": "41047a9d205c8778cdfed2c8c37026ab3b66f9b3f0104f8eb333640854ab6412f808baab470ef11b2d8c8ed2837d5ff8fa4747b75d11d11eab8dacf5bd6f91031b82ac",
            "type": "pubkey"
          }
        }
      ],
      "hex": "01000000010000000000000000000000000000000000000000000000000000000000000000ffffffff0804ffff001d02bf05ffffffff0100f2052a010000004341047a9d205c8778cdfed2c8c37026ab3b66f9b3f0104f8eb333640854ab6412f808baab470ef11b2d8c8ed2837d5ff8fa4747b75d11d11eab8dacf5bd6f91031b82ac00000000"
    }
  ]
}