{
  "hash": "000000003bf807ef4c12b66a98e9e21f6fceadc950085b35e2c58583d854b3ff",
  "confirmations": 50537,
  "height": 2561,
  "version": 1,
  "versionHex": "00000001",
  "merkleroot": "36d82ef072acfc2bae2533647548bac9cb5afc5b8c73681e71230abe1f5816e9",
  "time": 1233462555,
  "mediantime": 1233458564,
  "nonce": 780363010,
  "bits": "1d00ffff",
  "difficulty": 1,
  "chainwork": "00000000000000000000000000000000000000000000000000000a020a020a02",
  "nTx": 1,
  "previousblockhash": "0000000015192eb76ed385c70f4a81b99016d6118f02ab736c2d75cd1c87b4dd",
  "nextblockhash": "000000007c1726c73e42ddae7f3b5f4058ae1f884f1a6c8d09941f05af116d31",
  "strippedsize": 216,
  "size": 216,
  "weight": 864,
  "tx": [
    {
      "txid": "36d82ef072acfc2bae2533647548bac9cb5afc5b8c73681e71230abe1f5816e9",
      "hash": "36d82ef072acfc2bae2533647548bac9cb5afc5b8c73681e71230abe1f5816e9",
      "version": 1,
      "size": 135,
      "vsize": 135,
      "weight": 540,
      "locktime": 0,
      "vin": [
        {
          "coinbase": "04ffff001d023002",
          "sequence": 4294967295
        }
      ],
      "vout": [
        {
          "value": 50.0,
          "n": 0,
          "scriptPubKey": {
            "asm": "047ab21f3499780863c415a8d2344e4bfe8791258481f577fdb8c196e0876b6ec685ba915b69372fcc91302e9f55c4edbf00ef63b80d589cd67ebb5dcdbde5dae7 OP_CHECKSIG",
            "desc": "pk(047ab21f3499780863c415a8d2344e4bfe8791258481f577fdb8c196e0876b6ec685ba915b69372fcc91302e9f55c4edbf00ef63b80d589cd67ebb5dcdbde5dae7)#5ln3vmqp",
            "hex": "41047ab21f3499780863c415a8d2344e4bfe8791258481f577fdb8c196e0876b6ec685ba915b69372fcc91302e9f55c4edbf00ef63b80d589cd67ebb5dcdbde5dae7ac",
            "type": "pubkey"
          }
        }
      ],
      "hex": "01000000010000000000000000000000000000000000000000000000000000000000000000ffffffff0804ffff001d023002ffffffff0100f2052a010000004341047ab21f3499780863c415a8d2344e4bfe8791258481f577fdb8c196e0876b6ec685ba915b69372fcc91302e9f55c4edbf00ef63b80d589cd67ebb5dcdbde5dae7ac00000000"
    }
  ]
}