{
  "hash": "000000001c8642a2b4c7572de6ac52fd45ad50c422931c74defb37e30219add2",
  "confirmations": 50769,
  "height": 2329,
  "version": 1,
  "versionHex": "00000001",
  "merkleroot": "25f747458ee4e76db8381464624d8e58581a61e2eb8d2f04b8abd2e2b6b559c9",
  "time": 1233301019,
  "mediantime": 1233297246,
  "nonce": 1190718009,
  "bits": "1d00ffff",
  "difficulty": 1,
  "chainwork": "0000000000000000000000000000000000000000000000000000091a091a091a",
  "nTx": 1,
  "previousblockhash": "0000000091a3058f4ac09246f2fafcefd2502ed6fa2182a5b7d5ed59f12cc4a3",
  "nextblockhash": "00000000fab2bdd9e97cb14d98dd77aed14e4cfef22963e6dfc3d2c52c5e9443",
  "strippedsize": 216,
  "size": 216,
  "weight": 864,
  "tx": [
    {
      "txid": "25f747458ee4e76db8381464624d8e58581a61e2eb8d2f04b8abd2e2b6b559c9",
      "hash": "25f747458ee4e76db8381464624d8e58581a61e2eb8d2f04b8abd2e2b6b559c9",
      "version": 1,
      "size": 135,
      "vsize": 135,
      "weight": 540,
      "locktime": 0,
      "vin": [
        {
          "coinbase": "04ffff001d024a02",
          "sequence": 4294967295
        }
      ],
      "vout": [
        {
          "value": 50.0,
          "n": 0,
          "scriptPubKey": {
            "asm": "04962a344e2823d5a2d7640b79d7741163761368f7174ea1994f7dada326f0152b88ec73e609bec03b144d52ee26406be5b4d28eb83750281ca991ae1c69b0e309 OP_CHECKSIG",
            "desc": "pk(04962a344e2823d5a2d7640b79d7741163761368f7174ea1994f7dada326f0152b88ec73e609bec03b144d52ee26406be5b4d28eb83750281ca991ae1c69b0e309)#sp5es08a",
            "hex": "4104962a344e2823d5a2d7640b79d7741163761368f7174ea1994f7dada326f0152b88ec73e609bec03b144d52ee26406be5b4d28eb83750281ca991ae1c69b0e309ac",
            "type": "pubkey"
          }
        }
      ],
      "hex": "01000000010000000000000000000000000000000000000000000000000000000000000000ffffffff0804ffff001d024a02ffffffff0100f2052a01000000434104962a344e2823d5a2d7640b79d7741163761368f7174ea1994f7dada326f0152b88ec73e609bec03b144d52ee26406be5b4d28eb83750281ca991ae1c69b0e309ac00000000"
    }
  ]
}