{
  "hash": "000000004a91f9b42b0e51d1084e38994d16c80f62a9542639fbb0e507f4fef7",
  "confirmations": 45187,
  "height": 7911,
  "version": 1,
  "versionHex": "00000001",
  "merkleroot": "3cad198989f77a60582a2aeff1e379afa666f50de8aededeadbec7ca5cd1a87e",
  "time": 1237401898,
  "mediantime": 1237397432,
  "nonce": 1306168095,
  "bits": "1d00ffff",
  "difficulty": 1,
  "chainwork": "00000000000000000000000000000000000000000000000000001ee81ee81ee8",
  "nTx": 1,
  "previousblockhash": "0000000065e7410c8d6369d9e27f61ade0793270893a1e9b1ffdf303d383f53c",
  "nextblockhash": "000000006b5149bab22aaa5a0ea3e10af6090c5c1bcd733b803567dd4461fb91",
  "strippedsize": 216,
  "size": 216,
  "weight": 864,
  "tx": [
    {
      "txid": "3cad198989f77a60582a2aeff1e379afa666f50de8aededeadbec7ca5cd1a87e",
      "hash": "3cad198989f77a60582a2aeff1e379afa666f50de8aededeadbec7ca5cd1a87e",
      "version": 1,
      "size": 135,
      "vsize": 135,
      "weight": 540,
      "locktime": 0,
      "vin": [
        {
          "coinbase": "04ffff001d02ad07",
          "sequence": 4294967295
        }
      ],
      "vout": [
        {
          "value": 50.0,
          "n": 0,
          "scriptPubKey": {
            "asm": "0438ae57dd5aab2c4bd5c6ca2adcc8a5e0c5c4acb21a87cf339f48ef7fdf47e4531ebf1839b339c71ff4def921acd4a015d3715ddf97b12598532af994855bdb24 OP_CHECKSIG",
            "desc": "pk(0438ae57dd5aab2c4bd5c6ca2adcc8a5e0c5c4acb21a87cf339f48ef7fdf47e4531ebf1839b339c71ff4def921acd4a015d3715ddf97b12598532af994855bdb24)#cdcm932c",
            "hex": "410438ae57dd5aab2c4bd5c6ca2adcc8a5e0c5c4acb21a87cf339f48ef7fdf47e4531ebf1839b339c71ff4def921acd4a015d3715ddf97b12598532af994855bdb24ac",
            "type": "pubkey"
          }
        }
      ],
      "hex": "01000000010000000000000000000000000000000000000000000000000000000000000000ffffffff0804ffff001d02ad07ffffffff0100f2052a0100000043410438ae57dd5aab2c4bd5c6ca2adcc8a5e0c5c4acb21a87cf339f48ef7fdf47e4531ebf1839b339c71ff4def921acd4a015d3715ddf97b12598532af994855bdb24ac00000000"
    }
  ]
}