{
  "hash": "00000000a73029e1a5567a04e0f893fe1fd13fd017900b96a4696a7560026359",
  "confirmations": 46091,
  "height": 7007,
  "version": 1,
  "versionHex": "00000001",
  "merkleroot": "7a7bca1df3f56b07c6083f435fa53ccc56aa38e6a7a011acdfdfd16052f4176f",
  "time": 1236723587,
  "mediantime": 1236719952,
  "nonce": 909292549,
  "bits": "1d00ffff",
  "difficulty": 1,
  "chainwork": "00000000000000000000000000000000000000000000000000001b601b601b60",
  "nTx": 1,
  "previousblockhash": "000000005f180e6d0b2a46c27b3458d56b1ccfa95c0d416de101f4a00bf137f2",
  "nextblockhash": "0000000006e019b125d0d3c80c1adb46bb8b6f5242967eda74904ccf68046766",
  "strippedsize": 216,
  "size": 216,
  "weight": 864,
  "tx": [
    {
      "txid": "7a7bca1df3f56b07c6083f435fa53ccc56aa38e6a7a011acdfdfd16052f4176f",
      "hash": "7a7bca1df3f56b07c6083f435fa53ccc56aa38e6a7a011acdfdfd16052f4176f",
      "version": 1,
      "size": 135,
      "vsize": 135,
      "weight": 540,
      "locktime": 0,
      "vin": [
        {
          "coinbase": "04ffff001d026e02",
          "sequence": 4294967295
        }
      ],
      "vout": [
        {
          "value": 50.0,
          "n": 0,
          "scriptPubKey": {
            "asm": "041423a83a797484879395e4e2516604a579941d6b499cd8aea2a8b23ff2426225beff9e36c9a646b481aacb1bf1d965ac83451f26c3e6e076d62e6b1fa999433f OP_CHECKSIG",
            "desc": "pk(041423a83a797484879395e4e2516604a579941d6b499cd8aea2a8b23ff2426225beff9e36c9a646b481aacb1bf1d965ac83451f26c3e6e076d62e6b1fa999433f)#q7v2zesa",
            "hex": "41041423a83a797484879395e4e2516604a579941d6b499cd8aea2a8b23ff2426225beff9e36c9a646b481aacb1bf1d965ac83451f26c3e6e076d62e6b1fa999433fac",
            "type": "pubkey"
          }
        }
      ],
      "hex": "01000000010000000000000000000000000000000000000000000000000000000000000000ffffffff0804ffff001d026e02ffffffff0100f2052a010000004341041423a83a797484879395e4e2516604a579941d6b499cd8aea2a8b23ff2426225beff9e36c9a646b481aacb1bf1d965ac83451f26c3e6e076d62e6b1fa999433fac00000000"
    }
  ]
}