{
  "hash": "00000000d44c165c8c8a7e9a2aa502a299327c744addee331b03733fe1b382f0",
  "confirmations": 44396,
  "height": 8702,
  "version": 1,
  "versionHex": "00000001",
  "merkleroot": "69d12619709a00f0535d25781b41788a691ceabb0f3f958b0707e2dbd8ca91f7",
  "time": 1238025948,
  "mediantime": 1238022344,
  "nonce": 3685251120,
  "bits": "1d00ffff",
  "difficulty": 1,
  "chainwork": "000000000000000000000000000000000000000000000000000021ff21ff21ff",
  "nTx": 1,
  "previousblockhash": "000000007a7f2fc8caf6f4b7ba2a661f086999e5d9f6d56aaaca148c11f5ed10",
  "nextblockhash": "00000000aaaa8ffe108ac1aba04f8415014a2d3892f9849b52b30e9726af533f",
  "strippedsize": 216,
  "size": 216,
  "weight": 864,
  "tx": [
    {
      "txid": "69d12619709a00f0535d25781b41788a691ceabb0f3f958b0707e2dbd8ca91f7",
      "hash": "69d12619709a00f0535d25781b41788a691ceabb0f3f958b0707e2dbd8ca91f7",
      "version": 1,
      "size": 135,
      "vsize": 135,
      "weight": 540,
      "locktime": 0,
      "vin": [
        {
          "coinbase": "04ffff001d02f200",
          "sequence": 4294967295
        }
      ],
      "vout": [
        {
          "value": 50.0,
          "n": 0,
          "scriptPubKey": {
            "asm": "04ab6cb99122733af448f584fad4d340295d4552e2845e3c8b8c54bb22c3948758a3458e1f9ad4befcc79a9fa87d7cc318bd5ff59a44d1339d924286720963f8c8 OP_CHECKSIG",
            "desc": "pk(04ab6cb99122733af448f584fad4d340295d4552e2845e3c8b8c54bb22c3948758a3458e1f9ad4befcc79a9fa87d7cc318bd5ff59a44d1339d924286720963f8c8)#mhcm679p",
            "hex": "4104ab6cb99122733af448f584fad4d340295d4552e2845e3c8b8c54bb22c3948758a3458e1f9ad4befcc79a9fa87d7cc318bd5ff59a44d1339d924286720963f8c8ac",
            "type": "pubkey"
          }
        }
      ],
      "hex": "01000000010000000000000000000000000000000000000000000000000000000000000000ffffffff0804ffff001d02f200ffffffff0100f2052a01000000434104ab6cb99122733af448f584fad4d340295d4552e2845e3c8b8c54bb22c3948758a3458e1f9ad4befcc79a9fa87d7cc318bd5ff59a44d1339d924286720963f8c8ac00000000"
    }
  ]
}