{
  "hash": "00000000923a992877f070d2c8fa5ae67e66f6edcd828b321caa75885136386b",
  "confirmations": 52248,
  "height": 850,
  "version": 1,
  "versionHex": "00000001",
  "merkleroot": "d00f26134b9fbd2a92b863505667410a0319b79c7a72518cffba3a1728d67bd2",
  "time": 1232229891,
  "mediantime": 1232224643,
  "nonce": 123288647,
  "bits": "1d00ffff",
  "difficulty": 1,
  "chainwork": "0000000000000000000000000000000000000000000000000000035303530353",
  "nTx": 1,
  "previousblockhash": "00000000fa04ef686ff46ea3a1f2b76687539395fb9ca7ce2dd013e9193aa4b4",
  "nextblockhash": "0000000045c8a34e1ebcb1a568ba89786fa79106dfe99740651ec249bd6ba989",
  "strippedsize": 215,
  "size": 215,
  "weight": 860,
  "tx": [
    {
      "txid": "d00f26134b9fbd2a92b863505667410a0319b79c7a72518cffba3a1728d67bd2",
      "hash": "d00f26134b9fbd2a92b863505667410a0319b79c7a72518cffba3a1728d67bd2",
      "version": 1,
      "size": 134,
      "vsize": 134,
      "weight": 536,
      "locktime": 0,
      "vin": [
        {
          "coinbase": "04ffff001d0125",
          "sequence": 4294967295
        }
      ],
      "vout": [
        {
          "value": 50.0,
          "n": 0,
          "scriptPubKey": {
            "asm": "04900b6e4614fc45aa185b9da6ad3364f85b3636767a3d235a5a5da48347bcd06a9b418e1b96b9858f64d538a3eb95ed0107cdc3727486be46705f1c447f2aa398 OP_CHECKSIG",
            "desc": "pk(04900b6e4614fc45aa185b9da6ad3364f85b3636767a3d235a5a5da48347bcd06a9b418e1b96b9858f64d538a3eb95ed0107cdc3727486be46705f1c447f2aa398)#25rknwgq",
            "hex": "4104900b6e4614fc45aa185b9da6ad3364f85b3636767a3d235a5a5da48347bcd06a9b418e1b96b9858f64d538a3eb95ed0107cdc3727486be46705f1c447f2aa398ac",
            "type": "pubkey"
          }
        }
      ],
      "hex": "01000000010000000000000000000000000000000000000000000000000000000000000000ffffffff0704ffff001d0125ffffffff0100f2052a01000000434104900b6e4614fc45aa185b9da6ad3364f85b3636767a3d235a5a5da48347bcd06a9b418e1b96b9858f64d538a3eb95ed0107cdc3727486be46705f1c447f2aa398ac00000000"
    }
  ]
}