{
  "hash": "0000000064b2fede9902af1a7c5de4bd5fcbc15e766bef1792e3c3a63eff0624",
  "confirmations": 47689,
  "height": 5409,
  "version": 1,
  "versionHex": "00000001",
  "merkleroot": "704975c0add9cba1c3b39f3706de9a106d47b8c07d38139fc6b1f700f3def134",
  "time": 1235446406,
  "mediantime": 1235443615,
  "nonce": 3274248243,
  "bits": "1d00ffff",
  "difficulty": 1,
  "chainwork": "0000000000000000000000000000000000000000000000000000152215221522",
  "nTx": 1,
  "previousblockhash": "000000009b7c5fa97e36106f2c0de5fdb16520f7ba249b67e48aa863a9fe3ac0",
  "nextblockhash": "000000004e8bcc37893d2785c1929dd69cb7a03b2daded0ad0576385e1ce9705",
  "strippedsize": 216,
  "size": 216,
  "weight": 864,
  "tx": [
    {
      "txid": "704975c0add9cba1c3b39f3706de9a106d47b8c07d38139fc6b1f700f3def134",
      "hash": "704975c0add9cba1c3b39f3706de9a106d47b8c07d38139fc6b1f700f3def134",
      "version": 1,
      "size": 135,
      "vsize": 135,
      "weight": 540,
      "locktime": 0,
      "vin": [
        {
          "coinbase": "04ffff001d02c303",
          "sequence": 4294967295
        }
      ],
      "vout": [
        {
          "value": 50.0,
          "n": 0,
          "scriptPubKey": {
            "asm": "04a9e8963175184d3a18e1a4d829f196d783f1ad4341ab127b44844187a7606ca72a41f17407333170aed6f09fee22147fcfee1d050b8b8dc0702a3b2b99c6d988 OP_CHECKSIG",
            "desc": "pk(04a9e8963175184d3a18e1a4d829f196d783f1ad4341ab127b44844187a7606ca72a41f17407333170aed6f09fee22147fcfee1d050b8b8dc0702a3b2b99c6d988)#dvafp9gf",
            "hex": "4104a9e8963175184d3a18e1a4d829f196d783f1ad4341ab127b44844187a7606ca72a41f17407333170aed6f09fee22147fcfee1d050b8b8dc0702a3b2b99c6d988ac",
            "type": "pubkey"
          }
        }
      ],
      "hex": "01000000010000000000000000000000000000000000000000000000000000000000000000ffffffff0804ffff001d02c303ffffffff0100f2052a01000000434104a9e8963175184d3a18e1a4d829f196d783f1ad4341ab127b44844187a7606ca72a41f17407333170aed6f09fee22147fcfee1d050b8b8dc0702a3b2b99c6d988ac00000000"
    }
  ]
}