{
  "hash": "00000000d654e9866ad27a9bd3147fcc461fc13d261954f76d1281307883a729",
  "confirmations": 52094,
  "height": 362,
  "version": 1,
  "versionHex": "00000001",
  "merkleroot": "ec524d8c32fe505dd07eee134d45ba2cedadbce2d77a75dbeac91f1228917203",
  "time": 1231873610,
  "mediantime": 1231870808,
  "nonce": 2656963109,
  "bits": "1d00ffff",
  "difficulty": 1,
  "chainwork": "0000000000000000000000000000000000000000000000000000016b016b016b",
  "nTx": 1,
  "previousblockhash": "0000000015f33195efd709e45c5de92081fb8fefdf456d5402e15e2d971fb20f",
  "nextblockhash": "00000000128007ab3db907e5142718fe41ee551535e1f68e2931f15f80603f41",
  "strippedsize": 216,
  "size": 216,
  "weight": 864,
  "tx": [
    {
      "txid": "ec524d8c32fe505dd07eee134d45ba2cedadbce2d77a75dbeac91f1228917203",
      "hash": "ec524d8c32fe505dd07eee134d45ba2cedadbce2d77a75dbeac91f1228917203",
      "version": 1,
      "size": 135,
      "vsize": 135,
      "weight": 540,
      "locktime": 0,
      "vin": [
        {
          "coinbase": "04ffff001d02b501",
          "sequence": 4294967295
        }
      ],
      "vout": [
        {
          "value": 50.0,
          "n": 0,
          "scriptPubKey": {
            "asm": "042b3ef4f0a85c068aaacea32497338cfa6157e47d7b47d986e38c4ccac0ee9e9b8eb5da0a45272c4d67422b5882606888afba42aa17ee65886b3c4d8fffa61aa2 OP_CHECKSIG",
            "desc": "pk(042b3ef4f0a85c068aaacea32497338cfa6157e47d7b47d986e38c4ccac0ee9e9b8eb5da0a45272c4d67422b5882606888afba42aa17ee65886b3c4d8fffa61aa2)#7ku9w65f",
            "hex": "41042b3ef4f0a85c068aaacea32497338cfa6157e47d7b47d986e38c4ccac0ee9e9b8eb5da0a45272c4d67422b5882606888afba42aa17ee65886b3c4d8fffa61aa2ac",
            "type": "pubkey"
          }
        }
      ],
      "hex": "01000000010000000000000000000000000000000000000000000000000000000000000000ffffffff0804ffff001d02b501ffffffff0100f2052a010000004341042b3ef4f0a85c068aaacea32497338cfa6157e47d7b47d986e38c4ccac0ee9e9b8eb5da0a45272c4d67422b5882606888afba42aa17ee65886b3c4d8fffa61aa2ac00000000"
    }
  ]
}