{
  "hash": "00000000e115bbb163c16a2fd94ee533dea3e31256d841d8f6c6c3b6709f1c1e",
  "confirmations": 48026,
  "height": 5072,
  "version": 1,
  "versionHex": "00000001",
  "merkleroot": "6a04d81349cecd513f58433028a599b3e39aa91601a663abe0e87bc627740ac0",
  "time": 1235195062,
  "mediantime": 1235190826,
  "nonce": 151249881,
  "bits": "1d00ffff",
  "difficulty": 1,
  "chainwork": "000000000000000000000000000000000000000000000000000013d113d113d1",
  "nTx": 1,
  "previousblockhash": "0000000062efff3d5ad81e54b42db0478ebbdcfcdd146287bbd7c1277d565a83",
  "nextblockhash": "0000000094d00a8dc325dc3b80fa5202b16aebed27937d2156988d33ed5b6200",
  "strippedsize": 215,
  "size": 215,
  "weight": 860,
  "tx": [
    {
      "txid": "6a04d81349cecd513f58433028a599b3e39aa91601a663abe0e87bc627740ac0",
      "hash": "6a04d81349cecd513f58433028a599b3e39aa91601a663abe0e87bc627740ac0",
      "version": 1,
      "size": 134,
      "vsize": 134,
      "weight": 536,
      "locktime": 0,
      "vin": [
        {
          "coinbase": "04ffff001d0107",
          "sequence": 4294967295
        }
      ],
      "vout": [
        {
          "value": 50.0,
          "n": 0,
          "scriptPubKey": {
            "asm": "0496d94c1cf5c45d00f2f6cf935721ae44d78742841b69838cb7dbbd1033a668dfb811db6e89988e095a02634032079ffe7a1488693bc7135cea2a3c3f8e6c69d1 OP_CHECKSIG",
            "desc": "pk(0496d94c1cf5c45d00f2f6cf935721ae44d78742841b69838cb7dbbd1033a668dfb811db6e89988e095a02634032079ffe7a1488693bc7135cea2a3c3f8e6c69d1)#3usd8452",
            "hex": "410496d94c1cf5c45d00f2f6cf935721ae44d78742841b69838cb7dbbd1033a668dfb811db6e89988e095a02634032079ffe7a1488693bc7135cea2a3c3f8e6c69d1ac",
            "type": "pubkey"
          }
        }
      ],
      "hex": "01000000010000000000000000000000000000000000000000000000000000000000000000ffffffff0704ffff001d0107ffffffff0100f2052a0100000043410496d94c1cf5c45d00f2f6cf935721ae44d78742841b69838cb7dbbd1033a668dfb811db6e89988e095a02634032079ffe7a1488693bc7135cea2a3c3f8e6c69d1ac00000000"
    }
  ]
}