{
  "hash": "00000000e1cb38cae3a27e65008e52e85db2ac6740d9a0cd688d3e60c63d3bf4",
  "confirmations": 45766,
  "height": 7332,
  "version": 1,
  "versionHex": "00000001",
  "merkleroot": "589ce1e19b94b26b8b339e9a5e63eaca4c94eec8743b6d680c2fb91c4b5b7ba4",
  "time": 1236972243,
  "mediantime": 1236967087,
  "nonce": 97345076,
  "bits": "1d00ffff",
  "difficulty": 1,
  "chainwork": "00000000000000000000000000000000000000000000000000001ca51ca51ca5",
  "nTx": 1,
  "previousblockhash": "000000008bf505f49f33af506c8a750ed8ce042f80d0fe8ab43bbc1d04c8f98b",
  "nextblockhash": "000000008a487ac5d4af04a5452e7b5f68143eaa0ce93b8cc3984a8cf619e702",
  "strippedsize": 216,
  "size": 216,
  "weight": 864,
  "tx": [
    {
      "txid": "589ce1e19b94b26b8b339e9a5e63eaca4c94eec8743b6d680c2fb91c4b5b7ba4",
      "hash": "589ce1e19b94b26b8b339e9a5e63eaca4c94eec8743b6d680c2fb91c4b5b7ba4",
      "version": 1,
      "size": 135,
      "vsize": 135,
      "weight": 540,
      "locktime": 0,
      "vin": [
        {
          "coinbase": "04ffff001d023208",
          "sequence": 4294967295
        }
      ],
      "vout": [
        {
          "value": 50.0,
          "n": 0,
          "scriptPubKey": {
            "asm": "047c43c08a9d6c5f6e9fc3c687ddc9aae0ac6b6913f968ecbb253be6a5689a624753ad7a694b46a4c4b18971966808814beaed01ec2f80dad2006e2b5d3e794ec7 OP_CHECKSIG",
            "desc": "pk(047c43c08a9d6c5f6e9fc3c687ddc9aae0ac6b6913f968ecbb253be6a5689a624753ad7a694b46a4c4b18971966808814beaed01ec2f80dad2006e2b5d3e794ec7)#5sushg77",
            "hex": "41047c43c08a9d6c5f6e9fc3c687ddc9aae0ac6b6913f968ecbb253be6a5689a624753ad7a694b46a4c4b18971966808814beaed01ec2f80dad2006e2b5d3e794ec7ac",
            "type": "pubkey"
          }
        }
      ],
      "hex": "01000000010000000000000000000000000000000000000000000000000000000000000000ffffffff0804ffff001d023208ffffffff0100f2052a010000004341047c43c08a9d6c5f6e9fc3c687ddc9aae0ac6b6913f968ecbb253be6a5689a624753ad7a694b46a4c4b18971966808814beaed01ec2f80dad2006e2b5d3e794ec7ac00000000"
    }
  ]
}