{
  "hash": "000000006e46dc98b8ce7175ae7bff4c2ecbad3182bd563c690e9cb98583ce9c",
  "confirmations": 52238,
  "height": 860,
  "version": 1,
  "versionHex": "00000001",
  "merkleroot": "c3f2f0eb5ccbbc2839bfa62f77fee492ad8d04a523c00ac24b9beed4732b3706",
  "time": 1232239516,
  "mediantime": 1232234595,
  "nonce": 1736168960,
  "bits": "1d00ffff",
  "difficulty": 1,
  "chainwork": "0000000000000000000000000000000000000000000000000000035d035d035d",
  "nTx": 1,
  "previousblockhash": "00000000a2e286043d34c707cefcc27b02e1bfbb1b59ff0dd5ba54cce2ed2ce2",
  "nextblockhash": "000000008a4287df2039938d49b04c5d32941018c6c48e34553b0fd404f540ac",
  "strippedsize": 216,
  "size": 216,
  "weight": 864,
  "tx": [
    {
      "txid": "c3f2f0eb5ccbbc2839bfa62f77fee492ad8d04a523c00ac24b9beed4732b3706",
      "hash": "c3f2f0eb5ccbbc2839bfa62f77fee492ad8d04a523c00ac24b9beed4732b3706",
      "version": 1,
      "size": 135,
      "vsize": 135,
      "weight": 540,
      "locktime": 0,
      "vin": [
        {
          "coinbase": "04ffff001d02a502",
          "sequence": 4294967295
        }
      ],
      "vout": [
        {
          "value": 50.0,
          "n": 0,
          "scriptPubKey": {
            "asm": "04f5c062ad778dcbab3bcd8d3eb3623c8b72ffe607c8f73f2613517915adef1af195d8e5c7b09ba79b71b587fa999e96109ec220f5e729e677f569ced965eab10c OP_CHECKSIG",
            "desc": "pk(04f5c062ad778dcbab3bcd8d3eb3623c8b72ffe607c8f73f2613517915adef1af195d8e5c7b09ba79b71b587fa999e96109ec220f5e729e677f569ced965eab10c)#3kkeendy",
            "hex": "4104f5c062ad778dcbab3bcd8d3eb3623c8b72ffe607c8f73f2613517915adef1af195d8e5c7b09ba79b71b587fa999e96109ec220f5e729e677f569ced965eab10cac",
            "type": "pubkey"
          }
        }
      ],
      "hex": "01000000010000000000000000000000000000000000000000000000000000000000000000ffffffff0804ffff001d02a502ffffffff0100f2052a01000000434104f5c062ad778dcbab3bcd8d3eb3623c8b72ffe607c8f73f2613517915adef1af195d8e5c7b09ba79b71b587fa999e96109ec220f5e729e677f569ced965eab10cac00000000"
    }
  ]
}