{
  "hash": "00000000a5e106d920da5d4037ed5f923753ccebc5e3eed3864edd95bcc1d6cf",
  "confirmations": 47988,
  "height": 5110,
  "version": 1,
  "versionHex": "00000001",
  "merkleroot": "f27eab288ac536fa146e223b7be9e1a67c384000a22f23f873da9635a1169a7f",
  "time": 1235224053,
  "mediantime": 1235221114,
  "nonce": 2183358250,
  "bits": "1d00ffff",
  "difficulty": 1,
  "chainwork": "000000000000000000000000000000000000000000000000000013f713f713f7",
  "nTx": 1,
  "previousblockhash": "000000000c517d45e13df76251a37a2f98b49370ae834840961276101f16e244",
  "nextblockhash": "0000000015263e10c6ef50185bc1dc6f14138ec5eaefad6c92aa3216ff2d66c4",
  "strippedsize": 216,
  "size": 216,
  "weight": 864,
  "tx": [
    {
      "txid": "f27eab288ac536fa146e223b7be9e1a67c384000a22f23f873da9635a1169a7f",
      "hash": "f27eab288ac536fa146e223b7be9e1a67c384000a22f23f873da9635a1169a7f",
      "version": 1,
      "size": 135,
      "vsize": 135,
      "weight": 540,
      "locktime": 0,
      "vin": [
        {
          "coinbase": "04ffff001d022e09",
          "sequence": 4294967295
        }
      ],
      "vout": [
        {
          "value": 50.0,
          "n": 0,
          "scriptPubKey": {
            "asm": "0442a5fd0ad02361f670ccf09132d049f6352dd7d042b4ad6ea587cd632b8e017da21b011fd1debfb9d3746b0501dfd15fbf2acd1ffeff2b07c40ca588e2093ca6 OP_CHECKSIG",
            "desc": "pk(0442a5fd0ad02361f670ccf09132d049f6352dd7d042b4ad6ea587cd632b8e017da21b011fd1debfb9d3746b0501dfd15fbf2acd1ffeff2b07c40ca588e2093ca6)#dhsu0spk",
            "hex": "410442a5fd0ad02361f670ccf09132d049f6352dd7d042b4ad6ea587cd632b8e017da21b011fd1debfb9d3746b0501dfd15fbf2acd1ffeff2b07c40ca588e2093ca6ac",
            "type": "pubkey"
          }
        }
      ],
      "hex": "01000000010000000000000000000000000000000000000000000000000000000000000000ffffffff0804ffff001d022e09ffffffff0100f2052a0100000043410442a5fd0ad02361f670ccf09132d049f6352dd7d042b4ad6ea587cd632b8e017da21b011fd1debfb9d3746b0501dfd15fbf2acd1ffeff2b07c40ca588e2093ca6ac00000000"
    }
  ]
}