{
  "hash": "000000001028aa59a2fe098db8628eb784d71f852b16d06a1651a87f2a056b69",
  "confirmations": 48179,
  "height": 4919,
  "version": 1,
  "versionHex": "00000001",
  "merkleroot": "2021e3cbf5b4a090dfa476aa25f01a9aff30ac46f5d9378595ba6abbeeff3e16",
  "time": 1235083317,
  "mediantime": 1235080489,
  "nonce": 794841121,
  "bits": "1d00ffff",
  "difficulty": 1,
  "chainwork": "0000000000000000000000000000000000000000000000000000133813381338",
  "nTx": 1,
  "previousblockhash": "0000000008170390395f31c13a229eec411718777fad323c902e7c9110fc41fa",
  "nextblockhash": "000000008ade7f7f12bd85d04ffe6fdab4cb22c02cfaef5650469bec1e2a289d",
  "strippedsize": 216,
  "size": 216,
  "weight": 864,
  "tx": [
    {
      "txid": "2021e3cbf5b4a090dfa476aa25f01a9aff30ac46f5d9378595ba6abbeeff3e16",
      "hash": "2021e3cbf5b4a090dfa476aa25f01a9aff30ac46f5d9378595ba6abbeeff3e16",
      "version": 1,
      "size": 135,
      "vsize": 135,
      "weight": 540,
      "locktime": 0,
      "vin": [
        {
          "coinbase": "04ffff001d02f305",
          "sequence": 4294967295
        }
      ],
      "vout": [
        {
          "value": 50.0,
          "n": 0,
          "scriptPubKey": {
            "asm": "047493fd3ded8aa648222bd51c16c88a7ee25aa5aeb001981b947c3fe437fb8eb88060c8c009cd6613191b0695ced244ac341e4131d018179dbff939101f73dc5d OP_CHECKSIG",
            "desc": "pk(047493fd3ded8aa648222bd51c16c88a7ee25aa5aeb001981b947c3fe437fb8eb88060c8c009cd6613191b0695ced244ac341e4131d018179dbff939101f73dc5d)#5vety0vd",
            "hex": "41047493fd3ded8aa648222bd51c16c88a7ee25aa5aeb001981b947c3fe437fb8eb88060c8c009cd6613191b0695ced244ac341e4131d018179dbff939101f73dc5dac",
            "type": "pubkey"
          }
        }
      ],
      "hex": "01000000010000000000000000000000000000000000000000000000000000000000000000ffffffff0804ffff001d02f305ffffffff0100f2052a010000004341047493fd3ded8aa648222bd51c16c88a7ee25aa5aeb001981b947c3fe437fb8eb88060c8c009cd6613191b0695ced244ac341e4131d018179dbff939101f73dc5dac00000000"
    }
  ]
}