{
  "hash": "0000000070e3f1d88cbbcee507d5a04027904aa61118bcd2cabd91a0f059275c",
  "confirmations": 43902,
  "height": 9196,
  "version": 1,
  "versionHex": "00000001",
  "merkleroot": "d4a05f100cd4307ceb7a049fd36205039beb3e1861e00b0806748884482407e7",
  "time": 1238396414,
  "mediantime": 1238393645,
  "nonce": 67045425,
  "bits": "1d00ffff",
  "difficulty": 1,
  "chainwork": "000000000000000000000000000000000000000000000000000023ed23ed23ed",
  "nTx": 1,
  "previousblockhash": "00000000797b0ba8f3b9ba14fd1bf7f8d28b31e098516c6b2506d8aadd479ecc",
  "nextblockhash": "000000005788e703cf75547186956e4101a27e0feb84c71bd17ca301ba3d1556",
  "strippedsize": 216,
  "size": 216,
  "weight": 864,
  "tx": [
    {
      "txid": "d4a05f100cd4307ceb7a049fd36205039beb3e1861e00b0806748884482407e7",
      "hash": "d4a05f100cd4307ceb7a049fd36205039beb3e1861e00b0806748884482407e7",
      "version": 1,
      "size": 135,
      "vsize": 135,
      "weight": 540,
      "locktime": 0,
      "vin": [
        {
          "coinbase": "04ffff001d029404",
          "sequence": 4294967295
        }
      ],
      "vout": [
        {
          "value": 50.0,
          "n": 0,
          "scriptPubKey": {
            "asm": "044cd231b21c43463caf81b7a7541ade1126eaef71fb338f9db2e476b453c2fc857df749a0024349f59d633eda8eb4f228ac6f8ae7faee9c360f931fcbd3aaa229 OP_CHECKSIG",
            "desc": "pk(044cd231b21c43463caf81b7a7541ade1126eaef71fb338f9db2e476b453c2fc857df749a0024349f59d633eda8eb4f228ac6f8ae7faee9c360f931fcbd3aaa229)#jjhqmpgr",
            "hex": "41044cd231b21c43463caf81b7a7541ade1126eaef71fb338f9db2e476b453c2fc857df749a0024349f59d633eda8eb4f228ac6f8ae7faee9c360f931fcbd3aaa229ac",
            "type": "pubkey"
          }
        }
      ],
      "hex": "01000000010000000000000000000000000000000000000000000000000000000000000000ffffffff0804ffff001d029404ffffffff0100f2052a010000004341044cd231b21c43463caf81b7a7541ade1126eaef71fb338f9db2e476b453c2fc857df749a0024349f59d633eda8eb4f228ac6f8ae7faee9c360f931fcbd3aaa229ac00000000"
    }
  ]
}