{
  "hash": "00000000727061d8b632e2bdcf51984a2731f8ee595b0627e47113856d926810",
  "confirmations": 44936,
  "height": 8162,
  "version": 1,
  "versionHex": "00000001",
  "merkleroot": "85ff1b0c53ec01182101557b2b2455dfc27ef7716beade19035e9afee4817e38",
  "time": 1237580446,
  "mediantime": 1237577090,
  "nonce": 1384365103,
  "bits": "1d00ffff",
  "difficulty": 1,
  "chainwork": "00000000000000000000000000000000000000000000000000001fe31fe31fe3",
  "nTx": 1,
  "previousblockhash": "00000000d072e1522f8c7d632eb3d560e4dee54ab2cc4ba7097f9ac1cc880b74",
  "nextblockhash": "0000000092b75372616c964eb3eac4c914fe79fb48aa9e8264bfecfc6e6aaab7",
  "strippedsize": 216,
  "size": 216,
  "weight": 864,
  "tx": [
    {
      "txid": "85ff1b0c53ec01182101557b2b2455dfc27ef7716beade19035e9afee4817e38",
      "hash": "85ff1b0c53ec01182101557b2b2455dfc27ef7716beade19035e9afee4817e38",
      "version": 1,
      "size": 135,
      "vsize": 135,
      "weight": 540,
      "locktime": 0,
      "vin": [
        {
          "coinbase": "04ffff001d024102",
          "sequence": 4294967295
        }
      ],
      "vout": [
        {
          "value": 50.0,
          "n": 0,
          "scriptPubKey": {
            "asm": "04231ed48f95884686c26ab4dfb7a225e300b1dd5dcedfc26907ef258e41df07292c3259eed862db9684e2639488d8682086c0f120decaf0becc3318024baf70fe OP_CHECKSIG",
            "desc": "pk(04231ed48f95884686c26ab4dfb7a225e300b1dd5dcedfc26907ef258e41df07292c3259eed862db9684e2639488d8682086c0f120decaf0becc3318024baf70fe)#j86h4zjl",
            "hex": "4104231ed48f95884686c26ab4dfb7a225e300b1dd5dcedfc26907ef258e41df07292c3259eed862db9684e2639488d8682086c0f120decaf0becc3318024baf70feac",
            "type": "pubkey"
          }
        }
      ],
      "hex": "01000000010000000000000000000000000000000000000000000000000000000000000000ffffffff0804ffff001d024102ffffffff0100f2052a01000000434104231ed48f95884686c26ab4dfb7a225e300b1dd5dcedfc26907ef258e41df07292c3259eed862db9684e2639488d8682086c0f120decaf0becc3318024baf70feac00000000"
    }
  ]
}