{
  "hash": "00000000aa5fb4e7d3cf35707a05efd16f219d85b2430bb537c56059eb6a5575",
  "confirmations": 50455,
  "height": 2643,
  "version": 1,
  "versionHex": "00000001",
  "merkleroot": "cbac6699494b537be62026b4ef5804374b42df491b11a33e86f61c9dfc4dafdb",
  "time": 1233522061,
  "mediantime": 1233518352,
  "nonce": 61961708,
  "bits": "1d00ffff",
  "difficulty": 1,
  "chainwork": "00000000000000000000000000000000000000000000000000000a540a540a54",
  "nTx": 1,
  "previousblockhash": "00000000992fc36cb87322f89071bf6003a91f9ebf64b5c33caf6f0a792f8224",
  "nextblockhash": "00000000d652307cc75e42d3d436e4d858ef808142ce3ddc4d7addcd33e55bc3",
  "strippedsize": 215,
  "size": 215,
  "weight": 860,
  "tx": [
    {
      "txid": "cbac6699494b537be62026b4ef5804374b42df491b11a33e86f61c9dfc4dafdb",
      "hash": "cbac6699494b537be62026b4ef5804374b42df491b11a33e86f61c9dfc4dafdb",
      "version": 1,
      "size": 134,
      "vsize": 134,
      "weight": 536,
      "locktime": 0,
      "vin": [
        {
          "coinbase": "04ffff001d0158",
          "sequence": 4294967295
        }
      ],
      "vout": [
        {
          "value": 50.0,
          "n": 0,
          "scriptPubKey": {
            "asm": "044b0d8436b18fd513088e8afcece2ea0b72cfb63df887cf316472d25c47306dc6a1881b0d691b399803b6bc64de5a088d6579d7ef345640b0cc7f0cd0716d0ac2 OP_CHECKSIG",
            "desc": "pk(044b0d8436b18fd513088e8afcece2ea0b72cfb63df887cf316472d25c47306dc6a1881b0d691b399803b6bc64de5a088d6579d7ef345640b0cc7f0cd0716d0ac2)#965phrwm",
            "hex": "41044b0d8436b18fd513088e8afcece2ea0b72cfb63df887cf316472d25c47306dc6a1881b0d691b399803b6bc64de5a088d6579d7ef345640b0cc7f0cd0716d0ac2ac",
            "type": "pubkey"
          }
        }
      ],
      "hex": "01000000010000000000000000000000000000000000000000000000000000000000000000ffffffff0704ffff001d0158ffffffff0100f2052a010000004341044b0d8436b18fd513088e8afcece2ea0b72cfb63df887cf316472d25c47306dc6a1881b0d691b399803b6bc64de5a088d6579d7ef345640b0cc7f0cd0716d0ac2ac00000000"
    }
  ]
}