{
  "hash": "000000005f8fdb9defbc5bbfb36d8ef7ef911010757084f2f14d4eb6233adc03",
  "confirmations": 47583,
  "height": 5515,
  "version": 1,
  "versionHex": "00000001",
  "merkleroot": "144f2c3e256bafda2555df9c781a834ba4754005f3fa905cd523dd09a5f74a0d",
  "time": 1235533080,
  "mediantime": 1235529891,
  "nonce": 3792830724,
  "bits": "1d00ffff",
  "difficulty": 1,
  "chainwork": "0000000000000000000000000000000000000000000000000000158c158c158c",
  "nTx": 1,
  "previousblockhash": "000000008b900032d7f48a2d6e2357f40a5dc5e2733fa65b5b22b0488f52703f",
  "nextblockhash": "000000000edc7289e1ea1e8a20b1a5acfec2d6000aaa9bb7b77f38fc332194a0",
  "strippedsize": 216,
  "size": 216,
  "weight": 864,
  "tx": [
    {
      "txid": "144f2c3e256bafda2555df9c781a834ba4754005f3fa905cd523dd09a5f74a0d",
      "hash": "144f2c3e256bafda2555df9c781a834ba4754005f3fa905cd523dd09a5f74a0d",
      "version": 1,
      "size": 135,
      "vsize": 135,
      "weight": 540,
      "locktime": 0,
      "vin": [
        {
          "coinbase": "04ffff001d02f605",
          "sequence": 4294967295
        }
      ],
      "vout": [
        {
          "value": 50.0,
          "n": 0,
          "scriptPubKey": {
            "asm": "04fdcb209a962821e5ab30146cb00324b3b8eeef0a3eb390255dfb00703951e52830322db51dd6ddf4aa239d6e0ec81da0d47a571d7b8f2fb116115e3c50ddde1a OP_CHECKSIG",
            "desc": "pk(04fdcb209a962821e5ab30146cb00324b3b8eeef0a3eb390255dfb00703951e52830322db51dd6ddf4aa239d6e0ec81da0d47a571d7b8f2fb116115e3c50ddde1a)#8af6fr4d",
            "hex": "4104fdcb209a962821e5ab30146cb00324b3b8eeef0a3eb390255dfb00703951e52830322db51dd6ddf4aa239d6e0ec81da0d47a571d7b8f2fb116115e3c50ddde1aac",
            "type": "pubkey"
          }
        }
      ],
      "hex": "01000000010000000000000000000000000000000000000000000000000000000000000000ffffffff0804ffff001d02f605ffffffff0100f2052a01000000434104fdcb209a962821e5ab30146cb00324b3b8eeef0a3eb390255dfb00703951e52830322db51dd6ddf4aa239d6e0ec81da0d47a571d7b8f2fb116115e3c50ddde1aac00000000"
    }
  ]
}