{
  "hash": "0000000057c6e899116b75bb104bfff0815857ca8efb6203b7026c17afe710d6",
  "confirmations": 44847,
  "height": 8251,
  "version": 1,
  "versionHex": "00000001",
  "merkleroot": "436661274d63711499ab1099efd1bb4f51e691e46c1d4a057ce50e90ed96bf03",
  "time": 1237698145,
  "mediantime": 1237693162,
  "nonce": 57093068,
  "bits": "1d00ffff",
  "difficulty": 1,
  "chainwork": "0000000000000000000000000000000000000000000000000000203c203c203c",
  "nTx": 1,
  "previousblockhash": "000000003a6021794bb0361a4211bb2d9506878329d18d85d47a157d4e6c0362",
  "nextblockhash": "000000000bdbf6e905e421dfe910c24248fc2dabd5644ace51f6ddb2fa1b7f3b",
  "strippedsize": 216,
  "size": 216,
  "weight": 864,
  "tx": [
    {
      "txid": "436661274d63711499ab1099efd1bb4f51e691e46c1d4a057ce50e90ed96bf03",
      "hash": "436661274d63711499ab1099efd1bb4f51e691e46c1d4a057ce50e90ed96bf03",
      "version": 1,
      "size": 135,
      "vsize": 135,
      "weight": 540,
      "locktime": 0,
      "vin": [
        {
          "coinbase": "04ffff001d020301",
          "sequence": 4294967295
        }
      ],
      "vout": [
        {
          "value": 50.0,
          "n": 0,
          "scriptPubKey": {
            "asm": "049a975faea1228e5b2dc31ff487ff488f7c813f4aa9919873526955b013ae05206b5e022a1adb078dc56551f84983a43c029e7bff2cd14a6d9f8e0a583bc1634a OP_CHECKSIG",
            "desc": "pk(049a975faea1228e5b2dc31ff487ff488f7c813f4aa9919873526955b013ae05206b5e022a1adb078dc56551f84983a43c029e7bff2cd14a6d9f8e0a583bc1634a)#3a44eelv",
            "hex": "41049a975faea1228e5b2dc31ff487ff488f7c813f4aa9919873526955b013ae05206b5e022a1adb078dc56551f84983a43c029e7bff2cd14a6d9f8e0a583bc1634aac",
            "type": "pubkey"
          }
        }
      ],
      "hex": "01000000010000000000000000000000000000000000000000000000000000000000000000ffffffff0804ffff001d020301ffffffff0100f2052a010000004341049a975faea1228e5b2dc31ff487ff488f7c813f4aa9919873526955b013ae05206b5e022a1adb078dc56551f84983a43c029e7bff2cd14a6d9f8e0a583bc1634aac00000000"
    }
  ]
}