{
  "hash": "000000005b718997744bc4d45b0f5106db14ea7e84ebbb00ed074c4e40094baa",
  "confirmations": 50128,
  "height": 2970,
  "version": 1,
  "versionHex": "00000001",
  "merkleroot": "5725b8a213c5d1f673dcaa0d908810a6ddf9cf030ea755979b145bd694c51c26",
  "time": 1233741343,
  "mediantime": 1233737391,
  "nonce": 2824286775,
  "bits": "1d00ffff",
  "difficulty": 1,
  "chainwork": "00000000000000000000000000000000000000000000000000000b9b0b9b0b9b",
  "nTx": 1,
  "previousblockhash": "00000000113fc1ffd1e47d79786edebea211d22d9dc608850cd980ffc9023da4",
  "nextblockhash": "00000000f85571f33b3ed8eacd52c1a80d70ade909d342c7f8a479dbbd3180fd",
  "strippedsize": 216,
  "size": 216,
  "weight": 864,
  "tx": [
    {
      "txid": "5725b8a213c5d1f673dcaa0d908810a6ddf9cf030ea755979b145bd694c51c26",
      "hash": "5725b8a213c5d1f673dcaa0d908810a6ddf9cf030ea755979b145bd694c51c26",
      "version": 1,
      "size": 135,
      "vsize": 135,
      "weight": 540,
      "locktime": 0,
      "vin": [
        {
          "coinbase": "04ffff001d02e100",
          "sequence": 4294967295
        }
      ],
      "vout": [
        {
          "value": 50.0,
          "n": 0,
          "scriptPubKey": {
            "asm": "04d7c51b4d4ea62de639b10a15764e74bdd18ce513bbee58173d199ed0d1779abc3fb5038f79147712f1d2d9f0e04b891ff9b968dc8fa4b60d06af3c96f82d6913 OP_CHECKSIG",
            "desc": "pk(04d7c51b4d4ea62de639b10a15764e74bdd18ce513bbee58173d199ed0d1779abc3fb5038f79147712f1d2d9f0e04b891ff9b968dc8fa4b60d06af3c96f82d6913)#k2c8encg",
            "hex": "4104d7c51b4d4ea62de639b10a15764e74bdd18ce513bbee58173d199ed0d1779abc3fb5038f79147712f1d2d9f0e04b891ff9b968dc8fa4b60d06af3c96f82d6913ac",
            "type": "pubkey"
          }
        }
      ],
      "hex": "01000000010000000000000000000000000000000000000000000000000000000000000000ffffffff0804ffff001d02e100ffffffff0100f2052a01000000434104d7c51b4d4ea62de639b10a15764e74bdd18ce513bbee58173d199ed0d1779abc3fb5038f79147712f1d2d9f0e04b891ff9b968dc8fa4b60d06af3c96f82d6913ac00000000"
    }
  ]
}