{
  "hash": "00000000c8b50f874c15e4c264544fa7488e956700bfaddcc23402f3674da724",
  "confirmations": 51314,
  "height": 1784,
  "version": 1,
  "versionHex": "00000001",
  "merkleroot": "85b79274d5bc2a22d1255e71af7c7e0023e051077908a0d9447b63f4f32be55d",
  "time": 1232889706,
  "mediantime": 1232887868,
  "nonce": 2981142299,
  "bits": "1d00ffff",
  "difficulty": 1,
  "chainwork": "000000000000000000000000000000000000000000000000000006f906f906f9",
  "nTx": 1,
  "previousblockhash": "0000000030953d7744f4906c21c1ff46cf0913593319e0b0e42e07b11bffcb31",
  "nextblockhash": "0000000019e19aadf5f1ccc33809e8c779c32703f28e61200b7a6328d05950b1",
  "strippedsize": 216,
  "size": 216,
  "weight": 864,
  "tx": [
    {
      "txid": "85b79274d5bc2a22d1255e71af7c7e0023e051077908a0d9447b63f4f32be55d",
      "hash": "85b79274d5bc2a22d1255e71af7c7e0023e051077908a0d9447b63f4f32be55d",
      "version": 1,
      "size": 135,
      "vsize": 135,
      "weight": 540,
      "locktime": 0,
      "vin": [
        {
          "coinbase": "04ffff001d02eb03",
          "sequence": 4294967295
        }
      ],
      "vout": [
        {
          "value": 50.0,
          "n": 0,
          "scriptPubKey": {
            "asm": "044d059e143ffaa930c146d20a20d70d22251b044376e2388515de4bf2ed113e26ca81a1d2785ce38c774741665fb4727432e92c1ff15d0e3590b092d7477526b6 OP_CHECKSIG",
            "desc": "pk(044d059e143ffaa930c146d20a20d70d22251b044376e2388515de4bf2ed113e26ca81a1d2785ce38c774741665fb4727432e92c1ff15d0e3590b092d7477526b6)#ulvl3nq2",
            "hex": "41044d059e143ffaa930c146d20a20d70d22251b044376e2388515de4bf2ed113e26ca81a1d2785ce38c774741665fb4727432e92c1ff15d0e3590b092d7477526b6ac",
            "type": "pubkey"
          }
        }
      ],
      "hex": "01000000010000000000000000000000000000000000000000000000000000000000000000ffffffff0804ffff001d02eb03ffffffff0100f2052a010000004341044d059e143ffaa930c146d20a20d70d22251b044376e2388515de4bf2ed113e26ca81a1d2785ce38c774741665fb4727432e92c1ff15d0e3590b092d7477526b6ac00000000"
    }
  ]
}