{
  "hash": "000000006f67edbc36f5104d05fc0db8f2bde9a804d7a9e814afa561a658b7af",
  "confirmations": 43966,
  "height": 9132,
  "version": 1,
  "versionHex": "00000001",
  "merkleroot": "1beb8c1b7d2289701184ec1635ca449eb5e625196992fb2b8687a2f7545652b1",
  "time": 1238354174,
  "mediantime": 1238348904,
  "nonce": 3053614378,
  "bits": "1d00ffff",
  "difficulty": 1,
  "chainwork": "000000000000000000000000000000000000000000000000000023ad23ad23ad",
  "nTx": 1,
  "previousblockhash": "00000000aa397b76e9630aa70dc84d3035e08dacb07deeacb46b7810b58072e3",
  "nextblockhash": "000000003bcc5b1f2a131239b7d1eaea3f63031c09247d25c2a30801a3564a1b",
  "strippedsize": 216,
  "size": 216,
  "weight": 864,
  "tx": [
    {
      "txid": "1beb8c1b7d2289701184ec1635ca449eb5e625196992fb2b8687a2f7545652b1",
      "hash": "1beb8c1b7d2289701184ec1635ca449eb5e625196992fb2b8687a2f7545652b1",
      "version": 1,
      "size": 135,
      "vsize": 135,
      "weight": 540,
      "locktime": 0,
      "vin": [
        {
          "coinbase": "04ffff001d02ff08",
          "sequence": 4294967295
        }
      ],
      "vout": [
        {
          "value": 50.0,
          "n": 0,
          "scriptPubKey": {
            "asm": "04f5ee3629279633a2bd99fb49bcaef4448b5cf85f68f480cbdbcbb4f3dbe8e2da59658d227362ce9c825bf7b9e3d56960232a42b673f63b325e37fb3c36dbd08f OP_CHECKSIG",
            "desc": "pk(04f5ee3629279633a2bd99fb49bcaef4448b5cf85f68f480cbdbcbb4f3dbe8e2da59658d227362ce9c825bf7b9e3d56960232a42b673f63b325e37fb3c36dbd08f)#lnx9myva",
            "hex": "4104f5ee3629279633a2bd99fb49bcaef4448b5cf85f68f480cbdbcbb4f3dbe8e2da59658d227362ce9c825bf7b9e3d56960232a42b673f63b325e37fb3c36dbd08fac",
            "type": "pubkey"
          }
        }
      ],
      "hex": "01000000010000000000000000000000000000000000000000000000000000000000000000ffffffff0804ffff001d02ff08ffffffff0100f2052a01000000434104f5ee3629279633a2bd99fb49bcaef4448b5cf85f68f480cbdbcbb4f3dbe8e2da59658d227362ce9c825bf7b9e3d56960232a42b673f63b325e37fb3c36dbd08fac00000000"
    }
  ]
}