{
  "hash": "000000008865014383055fbc472d628eb95ef3924a4163b1188eaa7bf6a0aff3",
  "confirmations": 51211,
  "height": 1887,
  "version": 1,
  "versionHex": "00000001",
  "merkleroot": "827f281a429989963933f09766ba3ab6f56bc0e1fa854ee4cdfc00f1aa057686",
  "time": 1232939796,
  "mediantime": 1232936568,
  "nonce": 1681929760,
  "bits": "1d00ffff",
  "difficulty": 1,
  "chainwork": "0000000000000000000000000000000000000000000000000000076007600760",
  "nTx": 1,
  "previousblockhash": "0000000072d2a9bc066cd767cc7b87f55c2ed6a56f3afa209875fa754e33a9f9",
  "nextblockhash": "000000001ee1d3053357a374d6d9746e80d56a666f3827c92e80e0d1b3f2f2a1",
  "strippedsize": 216,
  "size": 216,
  "weight": 864,
  "tx": [
    {
      "txid": "827f281a429989963933f09766ba3ab6f56bc0e1fa854ee4cdfc00f1aa057686",
      "hash": "827f281a429989963933f09766ba3ab6f56bc0e1fa854ee4cdfc00f1aa057686",
      "version": 1,
      "size": 135,
      "vsize": 135,
      "weight": 540,
      "locktime": 0,
      "vin": [
        {
          "coinbase": "04ffff001d021c05",
          "sequence": 4294967295
        }
      ],
      "vout": [
        {
          "value": 50.0,
          "n": 0,
          "scriptPubKey": {
            "asm": "0407bf23b1b82b485832667c5d8438e84c37c41b3c6f1c97b35d58634ed0be10825838d1a99d5893127e715f85fcadebfeb2add8dc746985f059ab50c0eef6baec OP_CHECKSIG",
            "desc": "pk(0407bf23b1b82b485832667c5d8438e84c37c41b3c6f1c97b35d58634ed0be10825838d1a99d5893127e715f85fcadebfeb2add8dc746985f059ab50c0eef6baec)#l5cnr6zz",
            "hex": "410407bf23b1b82b485832667c5d8438e84c37c41b3c6f1c97b35d58634ed0be10825838d1a99d5893127e715f85fcadebfeb2add8dc746985f059ab50c0eef6baecac",
            "type": "pubkey"
          }
        }
      ],
      "hex": "01000000010000000000000000000000000000000000000000000000000000000000000000ffffffff0804ffff001d021c05ffffffff0100f2052a0100000043410407bf23b1b82b485832667c5d8438e84c37c41b3c6f1c97b35d58634ed0be10825838d1a99d5893127e715f85fcadebfeb2add8dc746985f059ab50c0eef6baecac00000000"
    }
  ]
}