{
  "hash": "000000000c77605c9abd4c89dd1734ca8feba72ae8b9e654f9a88e5e6d3b3ef0",
  "confirmations": 47483,
  "height": 5615,
  "version": 1,
  "versionHex": "00000001",
  "merkleroot": "55c2b562fadb125c0b9f052ee7b32be53e8360b55bed5179e58d71c537d76c35",
  "time": 1235616676,
  "mediantime": 1235611957,
  "nonce": 979089716,
  "bits": "1d00ffff",
  "difficulty": 1,
  "chainwork": "000000000000000000000000000000000000000000000000000015f015f015f0",
  "nTx": 1,
  "previousblockhash": "0000000077f55034faf5042bad15a2533008161171902b783fc309162040aa2e",
  "nextblockhash": "00000000a42aed303e7d8c8bdac435edda2005c829555353190d9b4a0ea3c299",
  "strippedsize": 216,
  "size": 216,
  "weight": 864,
  "tx": [
    {
      "txid": "55c2b562fadb125c0b9f052ee7b32be53e8360b55bed5179e58d71c537d76c35",
      "hash": "55c2b562fadb125c0b9f052ee7b32be53e8360b55bed5179e58d71c537d76c35",
      "version": 1,
      "size": 135,
      "vsize": 135,
      "weight": 540,
      "locktime": 0,
      "vin": [
        {
          "coinbase": "04ffff001d02f507",
          "sequence": 4294967295
        }
      ],
      "vout": [
        {
          "value": 50.0,
          "n": 0,
          "scriptPubKey": {
            "asm": "048c0ec1fdee8a6300ffc55c9b0a6da5fc84df18f665400bca393c3bba4c5e3be98016b87b38ec1bec6fa9c7b1bc7a4da857838021451f9e3ea01a5a855d1356f3 OP_CHECKSIG",
            "desc": "pk(048c0ec1fdee8a6300ffc55c9b0a6da5fc84df18f665400bca393c3bba4c5e3be98016b87b38ec1bec6fa9c7b1bc7a4da857838021451f9e3ea01a5a855d1356f3)#x24l2gvn",
            "hex": "41048c0ec1fdee8a6300ffc55c9b0a6da5fc84df18f665400bca393c3bba4c5e3be98016b87b38ec1bec6fa9c7b1bc7a4da857838021451f9e3ea01a5a855d1356f3ac",
            "type": "pubkey"
          }
        }
      ],
      "hex": "01000000010000000000000000000000000000000000000000000000000000000000000000ffffffff0804ffff001d02f507ffffffff0100f2052a010000004341048c0ec1fdee8a6300ffc55c9b0a6da5fc84df18f665400bca393c3bba4c5e3be98016b87b38ec1bec6fa9c7b1bc7a4da857838021451f9e3ea01a5a855d1356f3ac00000000"
    }
  ]
}