{
  "hash": "0000000024769204efc5142a8376e14458d923a23cd15bb43b38975617803f6e",
  "confirmations": 50036,
  "height": 3062,
  "version": 1,
  "versionHex": "00000001",
  "merkleroot": "20873d26bc23b31491cb97e05add763788a4356491abf2da224680bde29181ef",
  "time": 1233803378,
  "mediantime": 1233800425,
  "nonce": 3947761444,
  "bits": "1d00ffff",
  "difficulty": 1,
  "chainwork": "00000000000000000000000000000000000000000000000000000bf70bf70bf7",
  "nTx": 1,
  "previousblockhash": "000000004a03e2ecfe616677f7e4c8542b748e9a76ef1879d283373cb79c9912",
  "nextblockhash": "0000000078b8ab566d23a6a4a23de549c1a2881f3f6e34d9ddb14fd0d33a706a",
  "strippedsize": 215,
  "size": 215,
  "weight": 860,
  "tx": [
    {
      "txid": "20873d26bc23b31491cb97e05add763788a4356491abf2da224680bde29181ef",
      "hash": "20873d26bc23b31491cb97e05add763788a4356491abf2da224680bde29181ef",
      "version": 1,
      "size": 134,
      "vsize": 134,
      "weight": 536,
      "locktime": 0,
      "vin": [
        {
          "coinbase": "04ffff001d0168",
          "sequence": 4294967295
        }
      ],
      "vout": [
        {
          "value": 50.0,
          "n": 0,
          "scriptPubKey": {
            "asm": "045e259be1dbdc2b64096b58836fff1903e2d8a5bd7b2390af378d9e84930ac3774e1d4170415d99a30397395bfba613334dc4970afeb77309fe03d74fab77e30a OP_CHECKSIG",
            "desc": "pk(045e259be1dbdc2b64096b58836fff1903e2d8a5bd7b2390af378d9e84930ac3774e1d4170415d99a30397395bfba613334dc4970afeb77309fe03d74fab77e30a)#ay8kgq6g",
            "hex": "41045e259be1dbdc2b64096b58836fff1903e2d8a5bd7b2390af378d9e84930ac3774e1d4170415d99a30397395bfba613334dc4970afeb77309fe03d74fab77e30aac",
            "type": "pubkey"
          }
        }
      ],
      "hex": "01000000010000000000000000000000000000000000000000000000000000000000000000ffffffff0704ffff001d0168ffffffff0100f2052a010000004341045e259be1dbdc2b64096b58836fff1903e2d8a5bd7b2390af378d9e84930ac3774e1d4170415d99a30397395bfba613334dc4970afeb77309fe03d74fab77e30aac00000000"
    }
  ]
}