{
  "hash": "00000000a2381ea41f749c4242e3e55d4e8f4477f9ba83cb3ade3a234f86b365",
  "confirmations": 49994,
  "height": 3104,
  "version": 1,
  "versionHex": "00000001",
  "merkleroot": "1cfbe464f6225dccdb1e1ddb701a68a0e75e98ff2d6ebbfded3be421770cfaa4",
  "time": 1233837695,
  "mediantime": 1233833383,
  "nonce": 646073396,
  "bits": "1d00ffff",
  "difficulty": 1,
  "chainwork": "00000000000000000000000000000000000000000000000000000c210c210c21",
  "nTx": 1,
  "previousblockhash": "000000006fbd5d5c06beb7bd23d87b677d3eca2e2e644a96f8eefe28b41b845d",
  "nextblockhash": "00000000728d8d5a898b120f1538dc68e4df44fe486cc91e6a172b65a75aeb04",
  "strippedsize": 216,
  "size": 216,
  "weight": 864,
  "tx": [
    {
      "txid": "1cfbe464f6225dccdb1e1ddb701a68a0e75e98ff2d6ebbfded3be421770cfaa4",
      "hash": "1cfbe464f6225dccdb1e1ddb701a68a0e75e98ff2d6ebbfded3be421770cfaa4",
      "version": 1,
      "size": 135,
      "vsize": 135,
      "weight": 540,
      "locktime": 0,
      "vin": [
        {
          "coinbase": "04ffff001d024201",
          "sequence": 4294967295
        }
      ],
      "vout": [
        {
          "value": 50.0,
          "n": 0,
          "scriptPubKey": {
            "asm": "04420bbe98551ea7d4d110ec92049975695775a722f055177fd3fd86c04c43bf045541a756c21146c72f8e1a8e5b16e5c1b5839a65c1ee566fb805ae4bb756500d OP_CHECKSIG",
            "desc": "pk(04420bbe98551ea7d4d110ec92049975695775a722f055177fd3fd86c04c43bf045541a756c21146c72f8e1a8e5b16e5c1b5839a65c1ee566fb805ae4bb756500d)#e5z8zv6n",
            "hex": "4104420bbe98551ea7d4d110ec92049975695775a722f055177fd3fd86c04c43bf045541a756c21146c72f8e1a8e5b16e5c1b5839a65c1ee566fb805ae4bb756500dac",
            "type": "pubkey"
          }
        }
      ],
      "hex": "01000000010000000000000000000000000000000000000000000000000000000000000000ffffffff0804ffff001d024201ffffffff0100f2052a01000000434104420bbe98551ea7d4d110ec92049975695775a722f055177fd3fd86c04c43bf045541a756c21146c72f8e1a8e5b16e5c1b5839a65c1ee566fb805ae4bb756500dac00000000"
    }
  ]
}