{
  "hash": "00000000ee0241f476b222d6e2aa219d8882cc04927a7b32ee1a7ca1f4408112",
  "confirmations": 50377,
  "height": 2721,
  "version": 1,
  "versionHex": "00000001",
  "merkleroot": "4bf9296896a027a7a41d22159529822dc58a7013be0dfe3e4da31405787bd041",
  "time": 1233577502,
  "mediantime": 1233574860,
  "nonce": 3826119457,
  "bits": "1d00ffff",
  "difficulty": 1,
  "chainwork": "00000000000000000000000000000000000000000000000000000aa20aa20aa2",
  "nTx": 1,
  "previousblockhash": "00000000356b8c7d725f4da31dd2e8d441a52446e88812562598ba588099289a",
  "nextblockhash": "000000004bf01051fa90794d4ea563d350304a1abab32ea0359f9a0369057e25",
  "strippedsize": 216,
  "size": 216,
  "weight": 864,
  "tx": [
    {
      "txid": "4bf9296896a027a7a41d22159529822dc58a7013be0dfe3e4da31405787bd041",
      "hash": "4bf9296896a027a7a41d22159529822dc58a7013be0dfe3e4da31405787bd041",
      "version": 1,
      "size": 135,
      "vsize": 135,
      "weight": 540,
      "locktime": 0,
      "vin": [
        {
          "coinbase": "04ffff001d020505",
          "sequence": 4294967295
        }
      ],
      "vout": [
        {
          "value": 50.0,
          "n": 0,
          "scriptPubKey": {
            "asm": "048d97bc05d6f0d74ff5ae3f1369d771e84a9be988e26f27d5d1febbf11eb4809df4c7e42d79fce8beec7276d1d90aaa48c3a6d235d26dc7b7d7c2fed55543080e OP_CHECKSIG",
            "desc": "pk(048d97bc05d6f0d74ff5ae3f1369d771e84a9be988e26f27d5d1febbf11eb4809df4c7e42d79fce8beec7276d1d90aaa48c3a6d235d26dc7b7d7c2fed55543080e)#3njcpyp0",
            "hex": "41048d97bc05d6f0d74ff5ae3f1369d771e84a9be988e26f27d5d1febbf11eb4809df4c7e42d79fce8beec7276d1d90aaa48c3a6d235d26dc7b7d7c2fed55543080eac",
            "type": "pubkey"
          }
        }
      ],
      "hex": "01000000010000000000000000000000000000000000000000000000000000000000000000ffffffff0804ffff001d020505ffffffff0100f2052a010000004341048d97bc05d6f0d74ff5ae3f1369d771e84a9be988e26f27d5d1febbf11eb4809df4c7e42d79fce8beec7276d1d90aaa48c3a6d235d26dc7b7d7c2fed55543080eac00000000"
    }
  ]
}