{
  "hash": "00000000785145f0ad2fe66882aabdfb6f2f38259394c32167bc40576c96aa6c",
  "confirmations": 50711,
  "height": 2387,
  "version": 1,
  "versionHex": "00000001",
  "merkleroot": "a6727d0155b45c3ca3e7ba944b1b372b4fedd413d693e0b97338aa4400a63206",
  "time": 1233344206,
  "mediantime": 1233340229,
  "nonce": 34943089,
  "bits": "1d00ffff",
  "difficulty": 1,
  "chainwork": "0000000000000000000000000000000000000000000000000000095409540954",
  "nTx": 1,
  "previousblockhash": "000000006c03d7466e36937aafa0482560257003b6502887ae367b7d9017ee21",
  "nextblockhash": "00000000706dac7112e7cabbba1e37f5c5d03999ea1de530e9a9dd2c87abefc6",
  "strippedsize": 216,
  "size": 216,
  "weight": 864,
  "tx": [
    {
      "txid": "a6727d0155b45c3ca3e7ba944b1b372b4fedd413d693e0b97338aa4400a63206",
      "hash": "a6727d0155b45c3ca3e7ba944b1b372b4fedd413d693e0b97338aa4400a63206",
      "version": 1,
      "size": 135,
      "vsize": 135,
      "weight": 540,
      "locktime": 0,
      "vin": [
        {
          "coinbase": "04ffff001d02a701",
          "sequence": 4294967295
        }
      ],
      "vout": [
        {
          "value": 50.0,
          "n": 0,
          "scriptPubKey": {
            "asm": "0418ef92c4415ec34e4c7718a7951c4f26be80568e42246f340cd869405613f3ca124423064f8913e66fcf6942e1c0f527691955aace9e93dfe690c2990b3e8539 OP_CHECKSIG",
            "desc": "pk(0418ef92c4415ec34e4c7718a7951c4f26be80568e42246f340cd869405613f3ca124423064f8913e66fcf6942e1c0f527691955aace9e93dfe690c2990b3e8539)#97z068lw",
            "hex": "410418ef92c4415ec34e4c7718a7951c4f26be80568e42246f340cd869405613f3ca124423064f8913e66fcf6942e1c0f527691955aace9e93dfe690c2990b3e8539ac",
            "type": "pubkey"
          }
        }
      ],
      "hex": "01000000010000000000000000000000000000000000000000000000000000000000000000ffffffff0804ffff001d02a701ffffffff0100f2052a0100000043410418ef92c4415ec34e4c7718a7951c4f26be80568e42246f340cd869405613f3ca124423064f8913e66fcf6942e1c0f527691955aace9e93dfe690c2990b3e8539ac00000000"
    }
  ]
}