{
  "hash": "00000000c5e03b4b285b0bb006a4c4b45f3297b9a3034974dcd90899ae13df0c",
  "confirmations": 48301,
  "height": 4797,
  "version": 1,
  "versionHex": "00000001",
  "merkleroot": "79901031a0df92a5a01fee59f4e16a5e8751fb2a1e54fe9b9e4c2ed900b913d6",
  "time": 1234996767,
  "mediantime": 1234994718,
  "nonce": 594565908,
  "bits": "1d00ffff",
  "difficulty": 1,
  "chainwork": "000000000000000000000000000000000000000000000000000012be12be12be",
  "nTx": 1,
  "previousblockhash": "00000000ddff5bc44604c75c4b0115d6fd3da3ef3adf0addd773fb8b40673e8b",
  "nextblockhash": "00000000ec99240475db5450bc37f10c0dfcdf00b6d85e276d7cc5436924aeab",
  "strippedsize": 216,
  "size": 216,
  "weight": 864,
  "tx": [
    {
      "txid": "79901031a0df92a5a01fee59f4e16a5e8751fb2a1e54fe9b9e4c2ed900b913d6",
      "hash": "79901031a0df92a5a01fee59f4e16a5e8751fb2a1e54fe9b9e4c2ed900b913d6",
      "version": 1,
      "size": 135,
      "vsize": 135,
      "weight": 540,
      "locktime": 0,
      "vin": [
        {
          "coinbase": "04ffff001d024904",
          "sequence": 4294967295
        }
      ],
      "vout": [
        {
          "value": 50.0,
          "n": 0,
          "scriptPubKey": {
            "asm": "04a8d501f4e4930c37ae82287e7b869e5e3080c64df733440f7d9d885aeb73cdc4e76bdddae13782e3bccf6e005f658b765d19fc130eabb5b095f7a7c4bc03328c OP_CHECKSIG",
            "desc": "pk(04a8d501f4e4930c37ae82287e7b869e5e3080c64df733440f7d9d885aeb73cdc4e76bdddae13782e3bccf6e005f658b765d19fc130eabb5b095f7a7c4bc03328c)#ftdpfy06",
            "hex": "4104a8d501f4e4930c37ae82287e7b869e5e3080c64df733440f7d9d885aeb73cdc4e76bdddae13782e3bccf6e005f658b765d19fc130eabb5b095f7a7c4bc03328cac",
            "type": "pubkey"
          }
        }
      ],
      "hex": "01000000010000000000000000000000000000000000000000000000000000000000000000ffffffff0804ffff001d024904ffffffff0100f2052a01000000434104a8d501f4e4930c37ae82287e7b869e5e3080c64df733440f7d9d885aeb73cdc4e76bdddae13782e3bccf6e005f658b765d19fc130eabb5b095f7a7c4bc03328cac00000000"
    }
  ]
}