{
  "hash": "00000000d4e581b02a90ab3f2f45723aea64f341908a767c33968219b9900ef1",
  "confirmations": 52064,
  "height": 272,
  "version": 1,
  "versionHex": "00000001",
  "merkleroot": "c639baa3634a88990d1756a284883ab42b6057a0c3a359fd782e61b64ca0a0f3",
  "time": 1231810641,
  "mediantime": 1231806964,
  "nonce": 1527481369,
  "bits": "1d00ffff",
  "difficulty": 1,
  "chainwork": "0000000000000000000000000000000000000000000000000000011101110111",
  "nTx": 1,
  "previousblockhash": "0000000035981d26f072cea02a0cb67897b896229b1436e0009cb9c4c20a4ee9",
  "nextblockhash": "000000009ed94f7234f1c82c7874b938dc2e3e09551eed7ae86c2295d4ac7dd0",
  "strippedsize": 216,
  "size": 216,
  "weight": 864,
  "tx": [
    {
      "txid": "c639baa3634a88990d1756a284883ab42b6057a0c3a359fd782e61b64ca0a0f3",
      "hash": "c639baa3634a88990d1756a284883ab42b6057a0c3a359fd782e61b64ca0a0f3",
      "version": 1,
      "size": 135,
      "vsize": 135,
      "weight": 540,
      "locktime": 0,
      "vin": [
        {
          "coinbase": "04ffff001d027d01",
          "sequence": 4294967295
        }
      ],
      "vout": [
        {
          "value": 50.0,
          "n": 0,
          "scriptPubKey": {
            "asm": "04820aaa83593d4bc8797150de9ae101e5438ebc90c27690cf6c17ef4b7c64211c9dfcc61f76d5d1942e649a36b5ac96f7eb2a844688f951cae4deb2902b2ac6ac OP_CHECKSIG",
            "desc": "pk(04820aaa83593d4bc8797150de9ae101e5438ebc90c27690cf6c17ef4b7c64211c9dfcc61f76d5d1942e649a36b5ac96f7eb2a844688f951cae4deb2902b2ac6ac)#z692u6yl",
            "hex": "4104820aaa83593d4bc8797150de9ae101e5438ebc90c27690cf6c17ef4b7c64211c9dfcc61f76d5d1942e649a36b5ac96f7eb2a844688f951cae4deb2902b2ac6acac",
            "type": "pubkey"
          }
        }
      ],
      "hex": "01000000010000000000000000000000000000000000000000000000000000000000000000ffffffff0804ffff001d027d01ffffffff0100f2052a01000000434104820aaa83593d4bc8797150de9ae101e5438ebc90c27690cf6c17ef4b7c64211c9dfcc61f76d5d1942e649a36b5ac96f7eb2a844688f951cae4deb2902b2ac6acac00000000"
    }
  ]
}