{
  "hash": "0000000024f304df9dc0df33394da8543a5fe89ced93f9e16413c9bee6a913b4",
  "confirmations": 44881,
  "height": 8217,
  "version": 1,
  "versionHex": "00000001",
  "merkleroot": "506b10895afd3d320e1e7afd86077c3b07656bc547c5932228525f2c72da5102",
  "time": 1237634024,
  "mediantime": 1237624436,
  "nonce": 40588349,
  "bits": "1d00ffff",
  "difficulty": 1,
  "chainwork": "0000000000000000000000000000000000000000000000000000201a201a201a",
  "nTx": 1,
  "previousblockhash": "0000000079ef0da5be745f295d17f3cd966752079847d40b14ab7f4ca96cc577",
  "nextblockhash": "00000000366b28cc9e15a4d58d2984b4e86bd11a860ff7533a74a69b0891c722",
  "strippedsize": 215,
  "size": 215,
  "weight": 860,
  "tx": [
    {
      "txid": "506b10895afd3d320e1e7afd86077c3b07656bc547c5932228525f2c72da5102",
      "hash": "506b10895afd3d320e1e7afd86077c3b07656bc547c5932228525f2c72da5102",
      "version": 1,
      "size": 134,
      "vsize": 134,
      "weight": 536,
      "locktime": 0,
      "vin": [
        {
          "coinbase": "04ffff001d011a",
          "sequence": 4294967295
        }
      ],
      "vout": [
        {
          "value": 50.0,
          "n": 0,
          "scriptPubKey": {
            "asm": "04da5f9924dca81a338f9f7385153cebe534ca8ef4fcc86f1674481b70bb1115d2a3fab9c29b695b84491db668470c0683248c86533c18eda1bb43ed30a702c656 OP_CHECKSIG",
            "desc": "pk(04da5f9924dca81a338f9f7385153cebe534ca8ef4fcc86f1674481b70bb1115d2a3fab9c29b695b84491db668470c0683248c86533c18eda1bb43ed30a702c656)#wcexz6t2",
            "hex": "4104da5f9924dca81a338f9f7385153cebe534ca8ef4fcc86f1674481b70bb1115d2a3fab9c29b695b84491db668470c0683248c86533c18eda1bb43ed30a702c656ac",
            "type": "pubkey"
          }
        }
      ],
      "hex": "01000000010000000000000000000000000000000000000000000000000000000000000000ffffffff0704ffff001d011affffffff0100f2052a01000000434104da5f9924dca81a338f9f7385153cebe534ca8ef4fcc86f1674481b70bb1115d2a3fab9c29b695b84491db668470c0683248c86533c18eda1bb43ed30a702c656ac00000000"
    }
  ]
}