{
  "hash": "000000007c7efc06681fd184359b6207adc6d6108a9d421ddfa8e901dbb49b7e",
  "confirmations": 44634,
  "height": 8464,
  "version": 1,
  "versionHex": "00000001",
  "merkleroot": "cd54c8b011da69dcf36d8f1000cff199a699f5b02d6c89655c3bca1954253718",
  "time": 1237840768,
  "mediantime": 1237835783,
  "nonce": 1371412793,
  "bits": "1d00ffff",
  "difficulty": 1,
  "chainwork": "0000000000000000000000000000000000000000000000000000211121112111",
  "nTx": 1,
  "previousblockhash": "00000000e017389c0490147e53ff28845b007ed51fcdc5e54f50fcaa3831d2da",
  "nextblockhash": "000000004eca954c4a657354cbdff294b4c09807607dd468aedbfd1f638a7631",
  "strippedsize": 216,
  "size": 216,
  "weight": 864,
  "tx": [
    {
      "txid": "cd54c8b011da69dcf36d8f1000cff199a699f5b02d6c89655c3bca1954253718",
      "hash": "cd54c8b011da69dcf36d8f1000cff199a699f5b02d6c89655c3bca1954253718",
      "version": 1,
      "size": 135,
      "vsize": 135,
      "weight": 540,
      "locktime": 0,
      "vin": [
        {
          "coinbase": "04ffff001d020207",
          "sequence": 4294967295
        }
      ],
      "vout": [
        {
          "value": 50.0,
          "n": 0,
          "scriptPubKey": {
            "asm": "0432328b47d86de9788f6396b7c2de814d4f140ec4b56853b09a922793ad6186327f0dfe25e585eef8d0ea9b4b5a83530e642ae6a39aba931ec09aa5f7b829458a OP_CHECKSIG",
            "desc": "pk(0432328b47d86de9788f6396b7c2de814d4f140ec4b56853b09a922793ad6186327f0dfe25e585eef8d0ea9b4b5a83530e642ae6a39aba931ec09aa5f7b829458a)#jkdzpkh3",
            "hex": "410432328b47d86de9788f6396b7c2de814d4f140ec4b56853b09a922793ad6186327f0dfe25e585eef8d0ea9b4b5a83530e642ae6a39aba931ec09aa5f7b829458aac",
            "type": "pubkey"
          }
        }
      ],
      "hex": "01000000010000000000000000000000000000000000000000000000000000000000000000ffffffff0804ffff001d020207ffffffff0100f2052a0100000043410432328b47d86de9788f6396b7c2de814d4f140ec4b56853b09a922793ad6186327f0dfe25e585eef8d0ea9b4b5a83530e642ae6a39aba931ec09aa5f7b829458aac00000000"
    }
  ]
}