{
  "hash": "0000000066f3787b1b95fda31ace10c2b0b3f673fbf456dc3bf993e58aeaee68",
  "confirmations": 43953,
  "height": 9145,
  "version": 1,
  "versionHex": "00000001",
  "merkleroot": "67f1a951cbb8cc573d711eb33db309996582307802fc939628199d31a0ee4613",
  "time": 1238364216,
  "mediantime": 1238361690,
  "nonce": 27719049,
  "bits": "1d00ffff",
  "difficulty": 1,
  "chainwork": "000000000000000000000000000000000000000000000000000023ba23ba23ba",
  "nTx": 1,
  "previousblockhash": "00000000a2df4dc128c18a1dedfa47412ed65e891bbe90f7cf76fdbd340b71f3",
  "nextblockhash": "00000000edf048007e5208ab3a6cc968f9b67ac89fdee28fe7d7bea6c784c67e",
  "strippedsize": 216,
  "size": 216,
  "weight": 864,
  "tx": [
    {
      "txid": "67f1a951cbb8cc573d711eb33db309996582307802fc939628199d31a0ee4613",
      "hash": "67f1a951cbb8cc573d711eb33db309996582307802fc939628199d31a0ee4613",
      "version": 1,
      "size": 135,
      "vsize": 135,
      "weight": 540,
      "locktime": 0,
      "vin": [
        {
          "coinbase": "04ffff001d022008",
          "sequence": 4294967295
        }
      ],
      "vout": [
        {
          "value": 50.0,
          "n": 0,
          "scriptPubKey": {
            "asm": "04ef330b757d07a7ba1e5be24688132ac7d46c500908133eaeabdd6671a647f456c2a61260a346ee7c636be4c1139780c4a29872506c9fce6cd0c82995b9f2d4d0 OP_CHECKSIG",
            "desc": "pk(04ef330b757d07a7ba1e5be24688132ac7d46c500908133eaeabdd6671a647f456c2a61260a346ee7c636be4c1139780c4a29872506c9fce6cd0c82995b9f2d4d0)#4dj8tpss",
            "hex": "4104ef330b757d07a7ba1e5be24688132ac7d46c500908133eaeabdd6671a647f456c2a61260a346ee7c636be4c1139780c4a29872506c9fce6cd0c82995b9f2d4d0ac",
            "type": "pubkey"
          }
        }
      ],
      "hex": "01000000010000000000000000000000000000000000000000000000000000000000000000ffffffff0804ffff001d022008ffffffff0100f2052a01000000434104ef330b757d07a7ba1e5be24688132ac7d46c500908133eaeabdd6671a647f456c2a61260a346ee7c636be4c1139780c4a29872506c9fce6cd0c82995b9f2d4d0ac00000000"
    }
  ]
}