{
  "hash": "00000000e1dcdcbf6ca736a8abc419fa5d565d45c855e092fd6655d5fb8ea60f",
  "confirmations": 44876,
  "height": 8222,
  "version": 1,
  "versionHex": "00000001",
  "merkleroot": "8d476e5d5217aabfb679a1416eb6f6bb503035f463251d231fbebfd4ce5808c7",
  "time": 1237640366,
  "mediantime": 1237634024,
  "nonce": 112328814,
  "bits": "1d00ffff",
  "difficulty": 1,
  "chainwork": "0000000000000000000000000000000000000000000000000000201f201f201f",
  "nTx": 1,
  "previousblockhash": "00000000ff01a6a381f5e801336233d4b9b5580ab45b692b69dd319f40569127",
  "nextblockhash": "00000000e15cf1e769db3b8eff15747801480cb4be65cc28db79bfdbe5cd4301",
  "strippedsize": 216,
  "size": 216,
  "weight": 864,
  "tx": [
    {
      "txid": "8d476e5d5217aabfb679a1416eb6f6bb503035f463251d231fbebfd4ce5808c7",
      "hash": "8d476e5d5217aabfb679a1416eb6f6bb503035f463251d231fbebfd4ce5808c7",
      "version": 1,
      "size": 135,
      "vsize": 135,
      "weight": 540,
      "locktime": 0,
      "vin": [
        {
          "coinbase": "04ffff001d028504",
          "sequence": 4294967295
        }
      ],
      "vout": [
        {
          "value": 50.0,
          "n": 0,
          "scriptPubKey": {
            "asm": "04af2aaa7a8ee5f7c79623985c64dbc2b196b301670a3854414e8059ba397429801cd24abe405183121fc9d020cefd1e0e0db2c8a1ffe806d93b2cba1b9466ba93 OP_CHECKSIG",
            "desc": "pk(04af2aaa7a8ee5f7c79623985c64dbc2b196b301670a3854414e8059ba397429801cd24abe405183121fc9d020cefd1e0e0db2c8a1ffe806d93b2cba1b9466ba93)#r2ex4784",
            "hex": "4104af2aaa7a8ee5f7c79623985c64dbc2b196b301670a3854414e8059ba397429801cd24abe405183121fc9d020cefd1e0e0db2c8a1ffe806d93b2cba1b9466ba93ac",
            "type": "pubkey"
          }
        }
      ],
      "hex": "01000000010000000000000000000000000000000000000000000000000000000000000000ffffffff0804ffff001d028504ffffffff0100f2052a01000000434104af2aaa7a8ee5f7c79623985c64dbc2b196b301670a3854414e8059ba397429801cd24abe405183121fc9d020cefd1e0e0db2c8a1ffe806d93b2cba1b9466ba93ac00000000"
    }
  ]
}