{
  "hash": "0000000041995328aff3a68c1d466f9c7906981f492235ff71964e06cf1053f2",
  "confirmations": 46535,
  "height": 6563,
  "version": 1,
  "versionHex": "00000001",
  "merkleroot": "69259855183b1d5856060b5de36dcd3301e94c913c8b036349a03dbba678d7ec",
  "time": 1236375512,
  "mediantime": 1236372425,
  "nonce": 2008598561,
  "bits": "1d00ffff",
  "difficulty": 1,
  "chainwork": "000000000000000000000000000000000000000000000000000019a419a419a4",
  "nTx": 1,
  "previousblockhash": "000000000bc27e52b44cd7dec9b4fbcc20c3a3e5afcac46aeb5f6a31c4c71b18",
  "nextblockhash": "000000004caef4968b3c0adb8056c8a5e53573431c23079e529bc83a0f2bf1ca",
  "strippedsize": 216,
  "size": 216,
  "weight": 864,
  "tx": [
    {
      "txid": "69259855183b1d5856060b5de36dcd3301e94c913c8b036349a03dbba678d7ec",
      "hash": "69259855183b1d5856060b5de36dcd3301e94c913c8b036349a03dbba678d7ec",
      "version": 1,
      "size": 135,
      "vsize": 135,
      "weight": 540,
      "locktime": 0,
      "vin": [
        {
          "coinbase": "04ffff001d029104",
          "sequence": 4294967295
        }
      ],
      "vout": [
        {
          "value": 50.0,
          "n": 0,
          "scriptPubKey": {
            "asm": "04deb235be1cf1a72d4e52059f1968c857d3a6f906aecf2e0ec52b98594b2973d8c5e44c9c800fe97601b392477d207065b585da1ecdb4adcd9775bdc057b7e5dc OP_CHECKSIG",
            "desc": "pk(04deb235be1cf1a72d4e52059f1968c857d3a6f906aecf2e0ec52b98594b2973d8c5e44c9c800fe97601b392477d207065b585da1ecdb4adcd9775bdc057b7e5dc)#ae2zr8c6",
            "hex": "4104deb235be1cf1a72d4e52059f1968c857d3a6f906aecf2e0ec52b98594b2973d8c5e44c9c800fe97601b392477d207065b585da1ecdb4adcd9775bdc057b7e5dcac",
            "type": "pubkey"
          }
        }
      ],
      "hex": "01000000010000000000000000000000000000000000000000000000000000000000000000ffffffff0804ffff001d029104ffffffff0100f2052a01000000434104deb235be1cf1a72d4e52059f1968c857d3a6f906aecf2e0ec52b98594b2973d8c5e44c9c800fe97601b392477d207065b585da1ecdb4adcd9775bdc057b7e5dcac00000000"
    }
  ]
}