{
  "hash": "00000000625d1042ec41ebe2215a9bc24fb66efb87301f31db890819f917bf17",
  "confirmations": 50093,
  "height": 3005,
  "version": 1,
  "versionHex": "00000001",
  "merkleroot": "1f08b95a63df51758cbe9cf65786a568dddd6184cb5a695606f153c3964b3ecb",
  "time": 1233765972,
  "mediantime": 1233761870,
  "nonce": 2106078727,
  "bits": "1d00ffff",
  "difficulty": 1,
  "chainwork": "00000000000000000000000000000000000000000000000000000bbe0bbe0bbe",
  "nTx": 1,
  "previousblockhash": "00000000a057b385ed2d1d7c18715f4d7de083c5ba9f822e494712f0f3e95451",
  "nextblockhash": "0000000022b5b4e8016c2518a4fa06d89472b8a6fb4f97f82c67eb7b13147613",
  "strippedsize": 216,
  "size": 216,
  "weight": 864,
  "tx": [
    {
      "txid": "1f08b95a63df51758cbe9cf65786a568dddd6184cb5a695606f153c3964b3ecb",
      "hash": "1f08b95a63df51758cbe9cf65786a568dddd6184cb5a695606f153c3964b3ecb",
      "version": 1,
      "size": 135,
      "vsize": 135,
      "weight": 540,
      "locktime": 0,
      "vin": [
        {
          "coinbase": "04ffff001d027b01",
          "sequence": 4294967295
        }
      ],
      "vout": [
        {
          "value": 50.0,
          "n": 0,
          "scriptPubKey": {
            "asm": "047e4c7be0b551e39b04893b88fde544ee617f05438e3a9000d1f0af53ddf99de1188f83cb06c01d56f3e0efe84fb1262dccea7cf16be013e70dfb3304c96a9b42 OP_CHECKSIG",
            "desc": "pk(047e4c7be0b551e39b04893b88fde544ee617f05438e3a9000d1f0af53ddf99de1188f83cb06c01d56f3e0efe84fb1262dccea7cf16be013e70dfb3304c96a9b42)#vhpa45mc",
            "hex": "41047e4c7be0b551e39b04893b88fde544ee617f05438e3a9000d1f0af53ddf99de1188f83cb06c01d56f3e0efe84fb1262dccea7cf16be013e70dfb3304c96a9b42ac",
            "type": "pubkey"
          }
        }
      ],
      "hex": "01000000010000000000000000000000000000000000000000000000000000000000000000ffffffff0804ffff001d027b01ffffffff0100f2052a010000004341047e4c7be0b551e39b04893b88fde544ee617f05438e3a9000d1f0af53ddf99de1188f83cb06c01d56f3e0efe84fb1262dccea7cf16be013e70dfb3304c96a9b42ac00000000"
    }
  ]
}