{
  "hash": "00000000fbcd7bd80181c94a9d15984fd6b5a0cd9d933c42b1f278c4b5bb76cb",
  "confirmations": 46345,
  "height": 6753,
  "version": 1,
  "versionHex": "00000001",
  "merkleroot": "ded65f54c8f2b235d32fce4603f3086b4c28548fbc14b2614088d156575f176b",
  "time": 1236523412,
  "mediantime": 1236518329,
  "nonce": 17816632,
  "bits": "1d00ffff",
  "difficulty": 1,
  "chainwork": "00000000000000000000000000000000000000000000000000001a621a621a62",
  "nTx": 1,
  "previousblockhash": "000000001c6e1e47a1d818180a56d06abfc729f2edc05f24c6b61f20c077f2ae",
  "nextblockhash": "0000000090ef5f25329620ca0c5b3c1871b80821ff74d246a0104afb1d1b1b29",
  "strippedsize": 216,
  "size": 216,
  "weight": 864,
  "tx": [
    {
      "txid": "ded65f54c8f2b235d32fce4603f3086b4c28548fbc14b2614088d156575f176b",
      "hash": "ded65f54c8f2b235d32fce4603f3086b4c28548fbc14b2614088d156575f176b",
      "version": 1,
      "size": 135,
      "vsize": 135,
      "weight": 540,
      "locktime": 0,
      "vin": [
        {
          "coinbase": "04ffff001d022308",
          "sequence": 4294967295
        }
      ],
      "vout": [
        {
          "value": 50.0,
          "n": 0,
          "scriptPubKey": {
            "asm": "04be1c79ec1f1b04c84ae294f4139910bf6e24b7420d01d005ece448bdc89450cc426f37f0331acbb3239621a8d65b8620f91a04d9f10fe9d74ed795e08d04ac8a OP_CHECKSIG",
            "desc": "pk(04be1c79ec1f1b04c84ae294f4139910bf6e24b7420d01d005ece448bdc89450cc426f37f0331acbb3239621a8d65b8620f91a04d9f10fe9d74ed795e08d04ac8a)#59q9gfaa",
            "hex": "4104be1c79ec1f1b04c84ae294f4139910bf6e24b7420d01d005ece448bdc89450cc426f37f0331acbb3239621a8d65b8620f91a04d9f10fe9d74ed795e08d04ac8aac",
            "type": "pubkey"
          }
        }
      ],
      "hex": "01000000010000000000000000000000000000000000000000000000000000000000000000ffffffff0804ffff001d022308ffffffff0100f2052a01000000434104be1c79ec1f1b04c84ae294f4139910bf6e24b7420d01d005ece448bdc89450cc426f37f0331acbb3239621a8d65b8620f91a04d9f10fe9d74ed795e08d04ac8aac00000000"
    }
  ]
}