{
  "hash": "0000000043e220c96c58188dcb70f41786d09913a2946865b26039d64d8645db",
  "confirmations": 46375,
  "height": 6723,
  "version": 1,
  "versionHex": "00000001",
  "merkleroot": "d573f39749b5e273490e75fe9c02ab2f38dea5c9ece10f52fb106756fc56b998",
  "time": 1236499069,
  "mediantime": 1236496575,
  "nonce": 703958058,
  "bits": "1d00ffff",
  "difficulty": 1,
  "chainwork": "00000000000000000000000000000000000000000000000000001a441a441a44",
  "nTx": 1,
  "previousblockhash": "000000004080abb89db4e7f36b2a2cab5e6fed9b21b14b27eb2acfbc1d48e30a",
  "nextblockhash": "00000000f228911f74d1f7c5e683f85709218f79ef2ba571a25b7822df371173",
  "strippedsize": 216,
  "size": 216,
  "weight": 864,
  "tx": [
    {
      "txid": "d573f39749b5e273490e75fe9c02ab2f38dea5c9ece10f52fb106756fc56b998",
      "hash": "d573f39749b5e273490e75fe9c02ab2f38dea5c9ece10f52fb106756fc56b998",
      "version": 1,
      "size": 135,
      "vsize": 135,
      "weight": 540,
      "locktime": 0,
      "vin": [
        {
          "coinbase": "04ffff001d025d07",
          "sequence": 4294967295
        }
      ],
      "vout": [
        {
          "value": 50.0,
          "n": 0,
          "scriptPubKey": {
            "asm": "043458a2a2f25b951b694d7825116337613f5d3890d7776853e47862d696cce1b66b57821640aaf8ff328d78d9d0a61733767cbcf81a75f4651e98c5238254d4e0 OP_CHECKSIG",
            "desc": "pk(043458a2a2f25b951b694d7825116337613f5d3890d7776853e47862d696cce1b66b57821640aaf8ff328d78d9d0a61733767cbcf81a75f4651e98c5238254d4e0)#9funfyal",
            "hex": "41043458a2a2f25b951b694d7825116337613f5d3890d7776853e47862d696cce1b66b57821640aaf8ff328d78d9d0a61733767cbcf81a75f4651e98c5238254d4e0ac",
            "type": "pubkey"
          }
        }
      ],
      "hex": "01000000010000000000000000000000000000000000000000000000000000000000000000ffffffff0804ffff001d025d07ffffffff0100f2052a010000004341043458a2a2f25b951b694d7825116337613f5d3890d7776853e47862d696cce1b66b57821640aaf8ff328d78d9d0a61733767cbcf81a75f4651e98c5238254d4e0ac00000000"
    }
  ]
}