{
  "hash": "00000000482c230f5521df0b51af99b47dbaa0f40106f8b26ccb8d205e32c011",
  "confirmations": 46003,
  "height": 7095,
  "version": 1,
  "versionHex": "00000001",
  "merkleroot": "031c80bb65429b4b5423749d5b9f2224426242801ada93fe3ee5ab78bad3d5ac",
  "time": 1236795148,
  "mediantime": 1236789690,
  "nonce": 3160690966,
  "bits": "1d00ffff",
  "difficulty": 1,
  "chainwork": "00000000000000000000000000000000000000000000000000001bb81bb81bb8",
  "nTx": 1,
  "previousblockhash": "0000000046f2a151b08a560ba61fafeeb4c69e00822a31b60eb27045d8c36c0d",
  "nextblockhash": "000000009c14813e90cd2d44f5bc14995ce115a51d606709aaa70965e716a46b",
  "strippedsize": 216,
  "size": 216,
  "weight": 864,
  "tx": [
    {
      "txid": "031c80bb65429b4b5423749d5b9f2224426242801ada93fe3ee5ab78bad3d5ac",
      "hash": "031c80bb65429b4b5423749d5b9f2224426242801ada93fe3ee5ab78bad3d5ac",
      "version": 1,
      "size": 135,
      "vsize": 135,
      "weight": 540,
      "locktime": 0,
      "vin": [
        {
          "coinbase": "04ffff001d02e703",
          "sequence": 4294967295
        }
      ],
      "vout": [
        {
          "value": 50.0,
          "n": 0,
          "scriptPubKey": {
            "asm": "0474b1ce59dfa76c34509e32e5f36418364a594766205852229a4df03729f230f5d14608e42ae7ccbeffaa3048bdea5f1e93b798ada2dc89e027ab14288a7f0605 OP_CHECKSIG",
            "desc": "pk(0474b1ce59dfa76c34509e32e5f36418364a594766205852229a4df03729f230f5d14608e42ae7ccbeffaa3048bdea5f1e93b798ada2dc89e027ab14288a7f0605)#zz5tszzr",
            "hex": "410474b1ce59dfa76c34509e32e5f36418364a594766205852229a4df03729f230f5d14608e42ae7ccbeffaa3048bdea5f1e93b798ada2dc89e027ab14288a7f0605ac",
            "type": "pubkey"
          }
        }
      ],
      "hex": "01000000010000000000000000000000000000000000000000000000000000000000000000ffffffff0804ffff001d02e703ffffffff0100f2052a0100000043410474b1ce59dfa76c34509e32e5f36418364a594766205852229a4df03729f230f5d14608e42ae7ccbeffaa3048bdea5f1e93b798ada2dc89e027ab14288a7f0605ac00000000"
    }
  ]
}