{
  "hash": "000000006c357df6424112ff33dabaa2938b36716bfb3086fc9593cd56df9f16",
  "confirmations": 44109,
  "height": 8989,
  "version": 1,
  "versionHex": "00000001",
  "merkleroot": "6f6f05074cf8c05a963c166c62e11857d1a17f6e4050368f1e188fb655a72dc5",
  "time": 1238245399,
  "mediantime": 1238240990,
  "nonce": 150081452,
  "bits": "1d00ffff",
  "difficulty": 1,
  "chainwork": "0000000000000000000000000000000000000000000000000000231e231e231e",
  "nTx": 1,
  "previousblockhash": "0000000012bb65eed8f38158dbcafbe9303aaef2f375439e31f3bbf0aed5adb7",
  "nextblockhash": "00000000b5f612cfc098368210f90e3aa7252e0fc159b0c221878dc00eb8b318",
  "strippedsize": 216,
  "size": 216,
  "weight": 864,
  "tx": [
    {
      "txid": "6f6f05074cf8c05a963c166c62e11857d1a17f6e4050368f1e188fb655a72dc5",
      "hash": "6f6f05074cf8c05a963c166c62e11857d1a17f6e4050368f1e188fb655a72dc5",
      "version": 1,
      "size": 135,
      "vsize": 135,
      "weight": 540,
      "locktime": 0,
      "vin": [
        {
          "coinbase": "04ffff001d022205",
          "sequence": 4294967295
        }
      ],
      "vout": [
        {
          "value": 50.0,
          "n": 0,
          "scriptPubKey": {
            "asm": "044a7dda3f25bf87c2dfbe95b11eaed5dbcd95b7f6441fa80c3f14813b7de60763132781c8fe9b0542bbc78b9c9132970b7eb830dd2d117892f5d5e6e5ac178a71 OP_CHECKSIG",
            "desc": "pk(044a7dda3f25bf87c2dfbe95b11eaed5dbcd95b7f6441fa80c3f14813b7de60763132781c8fe9b0542bbc78b9c9132970b7eb830dd2d117892f5d5e6e5ac178a71)#f0k0r2gr",
            "hex": "41044a7dda3f25bf87c2dfbe95b11eaed5dbcd95b7f6441fa80c3f14813b7de60763132781c8fe9b0542bbc78b9c9132970b7eb830dd2d117892f5d5e6e5ac178a71ac",
            "type": "pubkey"
          }
        }
      ],
      "hex": "01000000010000000000000000000000000000000000000000000000000000000000000000ffffffff0804ffff001d022205ffffffff0100f2052a010000004341044a7dda3f25bf87c2dfbe95b11eaed5dbcd95b7f6441fa80c3f14813b7de60763132781c8fe9b0542bbc78b9c9132970b7eb830dd2d117892f5d5e6e5ac178a71ac00000000"
    }
  ]
}