{
  "hash": "0000000018873a0c260ed81fb5a47802f11b00991b56a352575c92ec9d1e238d",
  "confirmations": 50635,
  "height": 2463,
  "version": 1,
  "versionHex": "00000001",
  "merkleroot": "fc58d7ca65a0097b84e86aba63ba6e21a22e062ed2dd845c844b11fe54f8698c",
  "time": 1233401176,
  "mediantime": 1233397432,
  "nonce": 585118516,
  "bits": "1d00ffff",
  "difficulty": 1,
  "chainwork": "000000000000000000000000000000000000000000000000000009a009a009a0",
  "nTx": 1,
  "previousblockhash": "0000000023b94549ea5df42a85941bbaabe19051f802af60e1998974dad1ed3a",
  "nextblockhash": "000000005fade21217d1212ec5a4a60ae18aaf6f4f90138d2332fc8bcd25ff0d",
  "strippedsize": 216,
  "size": 216,
  "weight": 864,
  "tx": [
    {
      "txid": "fc58d7ca65a0097b84e86aba63ba6e21a22e062ed2dd845c844b11fe54f8698c",
      "hash": "fc58d7ca65a0097b84e86aba63ba6e21a22e062ed2dd845c844b11fe54f8698c",
      "version": 1,
      "size": 135,
      "vsize": 135,
      "weight": 540,
      "locktime": 0,
      "vin": [
        {
          "coinbase": "04ffff001d02ab00",
          "sequence": 4294967295
        }
      ],
      "vout": [
        {
          "value": 50.0,
          "n": 0,
          "scriptPubKey": {
            "asm": "04827fe0f773beed4e983959094bc8d2f77093d63bed976b6a687b091b994fb52b2e41158d45e50b8d2e65b4081eb6110372d49eb9f31e469f885393539319b229 OP_CHECKSIG",
            "desc": "pk(04827fe0f773beed4e983959094bc8d2f77093d63bed976b6a687b091b994fb52b2e41158d45e50b8d2e65b4081eb6110372d49eb9f31e469f885393539319b229)#aezz7f6f",
            "hex": "4104827fe0f773beed4e983959094bc8d2f77093d63bed976b6a687b091b994fb52b2e41158d45e50b8d2e65b4081eb6110372d49eb9f31e469f885393539319b229ac",
            "type": "pubkey"
          }
        }
      ],
      "hex": "01000000010000000000000000000000000000000000000000000000000000000000000000ffffffff0804ffff001d02ab00ffffffff0100f2052a01000000434104827fe0f773beed4e983959094bc8d2f77093d63bed976b6a687b091b994fb52b2e41158d45e50b8d2e65b4081eb6110372d49eb9f31e469f885393539319b229ac00000000"
    }
  ]
}