{
  "hash": "000000001ceeaad2b160a06fc82b75e361e464700efb0bfffcce04ac27b85e97",
  "confirmations": 49904,
  "height": 3194,
  "version": 1,
  "versionHex": "00000001",
  "merkleroot": "bb34ec9f55c900958b262525677b35a64e74f08ee6cfe8cbdf777236082b24f6",
  "time": 1233894615,
  "mediantime": 1233891611,
  "nonce": 27122953,
  "bits": "1d00ffff",
  "difficulty": 1,
  "chainwork": "00000000000000000000000000000000000000000000000000000c7b0c7b0c7b",
  "nTx": 1,
  "previousblockhash": "0000000039071cc3993397398ba6bc1265563383f428226a972903a42017b4a2",
  "nextblockhash": "00000000a2f6bf1b6180f8f5fe088c265bf506f9c6e2ef1c85d8e398c7604d66",
  "strippedsize": 215,
  "size": 215,
  "weight": 860,
  "tx": [
    {
      "txid": "bb34ec9f55c900958b262525677b35a64e74f08ee6cfe8cbdf777236082b24f6",
      "hash": "bb34ec9f55c900958b262525677b35a64e74f08ee6cfe8cbdf777236082b24f6",
      "version": 1,
      "size": 134,
      "vsize": 134,
      "weight": 536,
      "locktime": 0,
      "vin": [
        {
          "coinbase": "04ffff001d0112",
          "sequence": 4294967295
        }
      ],
      "vout": [
        {
          "value": 50.0,
          "n": 0,
          "scriptPubKey": {
            "asm": "0405c17816d35e3c3e10a3297c6bf7c83a963543863d8f2be90a20c127d78ec94dbad1e590acc3801e245a73afa47c12bdad9881c6ed9808271f7a191936f39f64 OP_CHECKSIG",
            "desc": "pk(0405c17816d35e3c3e10a3297c6bf7c83a963543863d8f2be90a20c127d78ec94dbad1e590acc3801e245a73afa47c12bdad9881c6ed9808271f7a191936f39f64)#9gv09s5z",
            "hex": "410405c17816d35e3c3e10a3297c6bf7c83a963543863d8f2be90a20c127d78ec94dbad1e590acc3801e245a73afa47c12bdad9881c6ed9808271f7a191936f39f64ac",
            "type": "pubkey"
          }
        }
      ],
      "hex": "01000000010000000000000000000000000000000000000000000000000000000000000000ffffffff0704ffff001d0112ffffffff0100f2052a0100000043410405c17816d35e3c3e10a3297c6bf7c83a963543863d8f2be90a20c127d78ec94dbad1e590acc3801e245a73afa47c12bdad9881c6ed9808271f7a191936f39f64ac00000000"
    }
  ]
}