{
  "hash": "0000000037edc632cc7e27c03edd92e2b155e9e04ddd32e30e45a5db32a4934c",
  "confirmations": 47131,
  "height": 5967,
  "version": 1,
  "versionHex": "00000001",
  "merkleroot": "4a808e018b8188c4458a335cd07ad0ccf0d79e0c4dbe8e65aefbd63b0a4cd021",
  "time": 1235901943,
  "mediantime": 1235898091,
  "nonce": 1034398246,
  "bits": "1d00ffff",
  "difficulty": 1,
  "chainwork": "0000000000000000000000000000000000000000000000000000175017501750",
  "nTx": 1,
  "previousblockhash": "00000000e422ed7d6d9395c762736f7a7d22467812a5f7fbe1c32e23437aefda",
  "nextblockhash": "00000000fd1224e16cf1e52aecd12cb5ccfa26ef61fd8421c487e1de2b141749",
  "strippedsize": 216,
  "size": 216,
  "weight": 864,
  "tx": [
    {
      "txid": "4a808e018b8188c4458a335cd07ad0ccf0d79e0c4dbe8e65aefbd63b0a4cd021",
      "hash": "4a808e018b8188c4458a335cd07ad0ccf0d79e0c4dbe8e65aefbd63b0a4cd021",
      "version": 1,
      "size": 135,
      "vsize": 135,
      "weight": 540,
      "locktime": 0,
      "vin": [
        {
          "coinbase": "04ffff001d025304",
          "sequence": 4294967295
        }
      ],
      "vout": [
        {
          "value": 50.0,
          "n": 0,
          "scriptPubKey": {
            "asm": "0400a5d611d349c5fca2fd923b427335bb6a142ea63ca8f7488debd3ca9a61ad2687def859b136de93980ba18f224e3daea74a5ca20ab3e08c5432c095389121d5 OP_CHECKSIG",
            "desc": "pk(0400a5d611d349c5fca2fd923b427335bb6a142ea63ca8f7488debd3ca9a61ad2687def859b136de93980ba18f224e3daea74a5ca20ab3e08c5432c095389121d5)#g3wyd5kw",
            "hex": "410400a5d611d349c5fca2fd923b427335bb6a142ea63ca8f7488debd3ca9a61ad2687def859b136de93980ba18f224e3daea74a5ca20ab3e08c5432c095389121d5ac",
            "type": "pubkey"
          }
        }
      ],
      "hex": "01000000010000000000000000000000000000000000000000000000000000000000000000ffffffff0804ffff001d025304ffffffff0100f2052a0100000043410400a5d611d349c5fca2fd923b427335bb6a142ea63ca8f7488debd3ca9a61ad2687def859b136de93980ba18f224e3daea74a5ca20ab3e08c5432c095389121d5ac00000000"
    }
  ]
}