{
  "hash": "000000007875598239139c9fdf90f25a6d3c013cb0f370aa3f5fe5a5d731bb00",
  "confirmations": 50193,
  "height": 2905,
  "version": 1,
  "versionHex": "00000001",
  "merkleroot": "47e7d826a6d50399eccf2b43013699e5a29f4ce06e955539a49650ad54998c2f",
  "time": 1233695381,
  "mediantime": 1233693317,
  "nonce": 17295021,
  "bits": "1d00ffff",
  "difficulty": 1,
  "chainwork": "00000000000000000000000000000000000000000000000000000b5a0b5a0b5a",
  "nTx": 1,
  "previousblockhash": "0000000013f1bc8a564c1b065b9cee741d5757892ce9c6b29bec6aab6d58ebf5",
  "nextblockhash": "0000000033c76a8c0d9993f5e1b8e6e18aceb6abaa9fb128bdbc26d1c97e128d",
  "strippedsize": 216,
  "size": 216,
  "weight": 864,
  "tx": [
    {
      "txid": "47e7d826a6d50399eccf2b43013699e5a29f4ce06e955539a49650ad54998c2f",
      "hash": "47e7d826a6d50399eccf2b43013699e5a29f4ce06e955539a49650ad54998c2f",
      "version": 1,
      "size": 135,
      "vsize": 135,
      "weight": 540,
      "locktime": 0,
      "vin": [
        {
          "coinbase": "04ffff001d02e203",
          "sequence": 4294967295
        }
      ],
      "vout": [
        {
          "value": 50.0,
          "n": 0,
          "scriptPubKey": {
            "asm": "04dabc3457411c73b306ee7bb267a3f8a8677a01a176bab9f606bd08fa44ccbabd5749466de9f590a900c53e1fb661271430ba949d26d4f580a3551ae4f1b3a162 OP_CHECKSIG",
            "desc": "pk(04dabc3457411c73b306ee7bb267a3f8a8677a01a176bab9f606bd08fa44ccbabd5749466de9f590a900c53e1fb661271430ba949d26d4f580a3551ae4f1b3a162)#pxsppv64",
            "hex": "4104dabc3457411c73b306ee7bb267a3f8a8677a01a176bab9f606bd08fa44ccbabd5749466de9f590a900c53e1fb661271430ba949d26d4f580a3551ae4f1b3a162ac",
            "type": "pubkey"
          }
        }
      ],
      "hex": "01000000010000000000000000000000000000000000000000000000000000000000000000ffffffff0804ffff001d02e203ffffffff0100f2052a01000000434104dabc3457411c73b306ee7bb267a3f8a8677a01a176bab9f606bd08fa44ccbabd5749466de9f590a900c53e1fb661271430ba949d26d4f580a3551ae4f1b3a162ac00000000"
    }
  ]
}