{
  "hash": "000000005c0ba648f2c36c96ce5043b0838300e4b164f3bddf8039efeab66671",
  "confirmations": 50864,
  "height": 2234,
  "version": 1,
  "versionHex": "00000001",
  "merkleroot": "08a9fea0f0c1efec78a0fdac6f1d337e4fe53cf1d3c70a4ee1ff0c70ad427485",
  "time": 1233236815,
  "mediantime": 1233234173,
  "nonce": 77899413,
  "bits": "1d00ffff",
  "difficulty": 1,
  "chainwork": "000000000000000000000000000000000000000000000000000008bb08bb08bb",
  "nTx": 1,
  "previousblockhash": "00000000380bd2cb07ed5b938a7ba8bbedb3024ac90b146f730fd0540113cf96",
  "nextblockhash": "00000000af4d5749cd26701cc85675c5c6b8c63651292364e08c8d9c36a549a5",
  "strippedsize": 215,
  "size": 215,
  "weight": 860,
  "tx": [
    {
      "txid": "08a9fea0f0c1efec78a0fdac6f1d337e4fe53cf1d3c70a4ee1ff0c70ad427485",
      "hash": "08a9fea0f0c1efec78a0fdac6f1d337e4fe53cf1d3c70a4ee1ff0c70ad427485",
      "version": 1,
      "size": 134,
      "vsize": 134,
      "weight": 536,
      "locktime": 0,
      "vin": [
        {
          "coinbase": "04ffff001d0112",
          "sequence": 4294967295
        }
      ],
      "vout": [
        {
          "value": 50.0,
          "n": 0,
          "scriptPubKey": {
            "asm": "04a7b439e2637c3f185e5ae979805d65b6eea065893f55c2598142b0d2e624414042d8d79077f4259ab7f7c49316fd3514b1f4260d16e129208cca206674e2b62d OP_CHECKSIG",
            "desc": "pk(04a7b439e2637c3f185e5ae979805d65b6eea065893f55c2598142b0d2e624414042d8d79077f4259ab7f7c49316fd3514b1f4260d16e129208cca206674e2b62d)#4xs7qved",
            "hex": "4104a7b439e2637c3f185e5ae979805d65b6eea065893f55c2598142b0d2e624414042d8d79077f4259ab7f7c49316fd3514b1f4260d16e129208cca206674e2b62dac",
            "type": "pubkey"
          }
        }
      ],
      "hex": "01000000010000000000000000000000000000000000000000000000000000000000000000ffffffff0704ffff001d0112ffffffff0100f2052a01000000434104a7b439e2637c3f185e5ae979805d65b6eea065893f55c2598142b0d2e624414042d8d79077f4259ab7f7c49316fd3514b1f4260d16e129208cca206674e2b62dac00000000"
    }
  ]
}