{
  "hash": "000000007988ac387213a9fa83d7c8fbeeca5b4f3be5dfe1180dac4eef8c30da",
  "confirmations": 45650,
  "height": 7448,
  "version": 1,
  "versionHex": "00000001",
  "merkleroot": "0fd7fe3cb32db9367e324ba7d5d5600fe5f9c34b27a10bee2f20c05d2759c313",
  "time": 1237060444,
  "mediantime": 1237053971,
  "nonce": 1921068549,
  "bits": "1d00ffff",
  "difficulty": 1,
  "chainwork": "00000000000000000000000000000000000000000000000000001d191d191d19",
  "nTx": 1,
  "previousblockhash": "0000000070eabb853f079c6f1462ef8beca70bac775ce55a13f193fbd7362299",
  "nextblockhash": "0000000065a46d4f94bbba8c61d547a5370ffa17f8192b90019e11e2bbbbd7ae",
  "strippedsize": 215,
  "size": 215,
  "weight": 860,
  "tx": [
    {
      "txid": "0fd7fe3cb32db9367e324ba7d5d5600fe5f9c34b27a10bee2f20c05d2759c313",
      "hash": "0fd7fe3cb32db9367e324ba7d5d5600fe5f9c34b27a10bee2f20c05d2759c313",
      "version": 1,
      "size": 134,
      "vsize": 134,
      "weight": 536,
      "locktime": 0,
      "vin": [
        {
          "coinbase": "04ffff001d011d",
          "sequence": 4294967295
        }
      ],
      "vout": [
        {
          "value": 50.0,
          "n": 0,
          "scriptPubKey": {
            "asm": "041e729cdce8e7eb5ed48ecd935ed3701830a3b9d00e30e2497f6c4ce99f6e454e0acbb770cca98a1ffae234a5589de6a2f6e7f12d3d963b247c0119bccde1f289 OP_CHECKSIG",
            "desc": "pk(041e729cdce8e7eb5ed48ecd935ed3701830a3b9d00e30e2497f6c4ce99f6e454e0acbb770cca98a1ffae234a5589de6a2f6e7f12d3d963b247c0119bccde1f289)#g0078x3h",
            "hex": "41041e729cdce8e7eb5ed48ecd935ed3701830a3b9d00e30e2497f6c4ce99f6e454e0acbb770cca98a1ffae234a5589de6a2f6e7f12d3d963b247c0119bccde1f289ac",
            "type": "pubkey"
          }
        }
      ],
      "hex": "01000000010000000000000000000000000000000000000000000000000000000000000000ffffffff0704ffff001d011dffffffff0100f2052a010000004341041e729cdce8e7eb5ed48ecd935ed3701830a3b9d00e30e2497f6c4ce99f6e454e0acbb770cca98a1ffae234a5589de6a2f6e7f12d3d963b247c0119bccde1f289ac00000000"
    }
  ]
}