{
  "hash": "000000003d5ee41ea292e548d8c5e60a3f181864d5b744c6de2e10a750a48f60",
  "confirmations": 45360,
  "height": 7738,
  "version": 1,
  "versionHex": "00000001",
  "merkleroot": "ecad15cee695427befb112746fe7911508a6f62755c5828bcb33a959bf5cb16b",
  "time": 1237268033,
  "mediantime": 1237264195,
  "nonce": 1762396185,
  "bits": "1d00ffff",
  "difficulty": 1,
  "chainwork": "00000000000000000000000000000000000000000000000000001e3b1e3b1e3b",
  "nTx": 1,
  "previousblockhash": "0000000049c895affa3e39418d96ada14dd0852535efd9f2a49fa5c4a4067777",
  "nextblockhash": "0000000009107c988aa6fe175777cae7b2e37b6719b580de63dccbcc9be710ce",
  "strippedsize": 216,
  "size": 216,
  "weight": 864,
  "tx": [
    {
      "txid": "ecad15cee695427befb112746fe7911508a6f62755c5828bcb33a959bf5cb16b",
      "hash": "ecad15cee695427befb112746fe7911508a6f62755c5828bcb33a959bf5cb16b",
      "version": 1,
      "size": 135,
      "vsize": 135,
      "weight": 540,
      "locktime": 0,
      "vin": [
        {
          "coinbase": "04ffff001d02d304",
          "sequence": 4294967295
        }
      ],
      "vout": [
        {
          "value": 50.0,
          "n": 0,
          "scriptPubKey": {
            "asm": "04420e414427acd4f7e54d5c26e271221561adff7b70c7cb1d443c74704f2f124a54fab7840a113cdc739c565626f1685d536523534748666037f524a6fc6f8659 OP_CHECKSIG",
            "desc": "pk(04420e414427acd4f7e54d5c26e271221561adff7b70c7cb1d443c74704f2f124a54fab7840a113cdc739c565626f1685d536523534748666037f524a6fc6f8659)#7u2vlapg",
            "hex": "4104420e414427acd4f7e54d5c26e271221561adff7b70c7cb1d443c74704f2f124a54fab7840a113cdc739c565626f1685d536523534748666037f524a6fc6f8659ac",
            "type": "pubkey"
          }
        }
      ],
      "hex": "01000000010000000000000000000000000000000000000000000000000000000000000000ffffffff0804ffff001d02d304ffffffff0100f2052a01000000434104420e414427acd4f7e54d5c26e271221561adff7b70c7cb1d443c74704f2f124a54fab7840a113cdc739c565626f1685d536523534748666037f524a6fc6f8659ac00000000"
    }
  ]
}