{
  "hash": "0000000023ead2b9fd8c909248a60bd63b0edca44c10c8a267548f9a6ae9f1b8",
  "confirmations": 52112,
  "height": 368,
  "version": 1,
  "versionHex": "00000001",
  "merkleroot": "4a91dc63def53fa07da7f292ca85e221dce97f20f78f41d0a6b0aa1c77021913",
  "time": 1231878378,
  "mediantime": 1231874201,
  "nonce": 447066624,
  "bits": "1d00ffff",
  "difficulty": 1,
  "chainwork": "0000000000000000000000000000000000000000000000000000017101710171",
  "nTx": 1,
  "previousblockhash": "00000000b4faa2facc1e5f54978b5c4cc770457d0ce921ac7c8a45d766e0858a",
  "nextblockhash": "0000000063a7ce9070407aaa02268a35a3eb652b2e083c26630e17c1a5a7a553",
  "strippedsize": 216,
  "size": 216,
  "weight": 864,
  "tx": [
    {
      "txid": "4a91dc63def53fa07da7f292ca85e221dce97f20f78f41d0a6b0aa1c77021913",
      "hash": "4a91dc63def53fa07da7f292ca85e221dce97f20f78f41d0a6b0aa1c77021913",
      "version": 1,
      "size": 135,
      "vsize": 135,
      "weight": 540,
      "locktime": 0,
      "vin": [
        {
          "coinbase": "04ffff001d02d101",
          "sequence": 4294967295
        }
      ],
      "vout": [
        {
          "value": 50.0,
          "n": 0,
          "scriptPubKey": {
            "asm": "04ec4919dfc3abd2ce018a3d419815a8e668b5db54a7fb6eaa1aee778fa42101699a100e448fd7b00c1639b0479b672a554effcf302698b9bad69749ec94c7315b OP_CHECKSIG",
            "desc": "pk(04ec4919dfc3abd2ce018a3d419815a8e668b5db54a7fb6eaa1aee778fa42101699a100e448fd7b00c1639b0479b672a554effcf302698b9bad69749ec94c7315b)#z6yzqz80",
            "hex": "4104ec4919dfc3abd2ce018a3d419815a8e668b5db54a7fb6eaa1aee778fa42101699a100e448fd7b00c1639b0479b672a554effcf302698b9bad69749ec94c7315bac",
            "type": "pubkey"
          }
        }
      ],
      "hex": "01000000010000000000000000000000000000000000000000000000000000000000000000ffffffff0804ffff001d02d101ffffffff0100f2052a01000000434104ec4919dfc3abd2ce018a3d419815a8e668b5db54a7fb6eaa1aee778fa42101699a100e448fd7b00c1639b0479b672a554effcf302698b9bad69749ec94c7315bac00000000"
    }
  ]
}