{
  "hash": "0000000081b33893a9c9bfad1c8cc1d86194501000482a02f30523620eb096d5",
  "confirmations": 46415,
  "height": 6683,
  "version": 1,
  "versionHex": "00000001",
  "merkleroot": "2882d4856690ca41ad5a34ed66101e498d95e7710453256f4873925be10dd9d2",
  "time": 1236469692,
  "mediantime": 1236466568,
  "nonce": 3597543217,
  "bits": "1d00ffff",
  "difficulty": 1,
  "chainwork": "00000000000000000000000000000000000000000000000000001a1c1a1c1a1c",
  "nTx": 1,
  "previousblockhash": "00000000a9b419e308486b4c45db8b876ef895409d7881f37ca6223a0d3d54b0",
  "nextblockhash": "00000000181b4b6c7932fa9d7eabab8922cfe7bf6562d8074becf20fdf58d41d",
  "strippedsize": 216,
  "size": 216,
  "weight": 864,
  "tx": [
    {
      "txid": "2882d4856690ca41ad5a34ed66101e498d95e7710453256f4873925be10dd9d2",
      "hash": "2882d4856690ca41ad5a34ed66101e498d95e7710453256f4873925be10dd9d2",
      "version": 1,
      "size": 135,
      "vsize": 135,
      "weight": 540,
      "locktime": 0,
      "vin": [
        {
          "coinbase": "04ffff001d02a506",
          "sequence": 4294967295
        }
      ],
      "vout": [
        {
          "value": 50.0,
          "n": 0,
          "scriptPubKey": {
            "asm": "046a481a8561187871d73a58a078cc1d5a13248664a71ce3ac118138c7fba65c5af99b5c927ae73a00b58485f42e64a1fa410f5fe32f2843ab6bbe29c75bc7f1c6 OP_CHECKSIG",
            "desc": "pk(046a481a8561187871d73a58a078cc1d5a13248664a71ce3ac118138c7fba65c5af99b5c927ae73a00b58485f42e64a1fa410f5fe32f2843ab6bbe29c75bc7f1c6)#tdj49r6z",
            "hex": "41046a481a8561187871d73a58a078cc1d5a13248664a71ce3ac118138c7fba65c5af99b5c927ae73a00b58485f42e64a1fa410f5fe32f2843ab6bbe29c75bc7f1c6ac",
            "type": "pubkey"
          }
        }
      ],
      "hex": "01000000010000000000000000000000000000000000000000000000000000000000000000ffffffff0804ffff001d02a506ffffffff0100f2052a010000004341046a481a8561187871d73a58a078cc1d5a13248664a71ce3ac118138c7fba65c5af99b5c927ae73a00b58485f42e64a1fa410f5fe32f2843ab6bbe29c75bc7f1c6ac00000000"
    }
  ]
}