{
  "hash": "00000000e666a9f293a5c6b2431d05e104efbde6136e803fe565b70b47a34b78",
  "confirmations": 51392,
  "height": 1706,
  "version": 1,
  "versionHex": "00000001",
  "merkleroot": "b11e2c5c9aabe482601b34cdc20a7b6c14580f09b74f2433ad2b9137642274ca",
  "time": 1232855600,
  "mediantime": 1232853740,
  "nonce": 3676633384,
  "bits": "1d00ffff",
  "difficulty": 1,
  "chainwork": "000000000000000000000000000000000000000000000000000006ab06ab06ab",
  "nTx": 1,
  "previousblockhash": "0000000022a790ef1c9e3b77e3f65735f2eb631e7b35279ddea1b943cd2ba3bc",
  "nextblockhash": "00000000df67a210f1360326b96370b21e2a7cab85d21c006ed78e8b8f8be6f6",
  "strippedsize": 216,
  "size": 216,
  "weight": 864,
  "tx": [
    {
      "txid": "b11e2c5c9aabe482601b34cdc20a7b6c14580f09b74f2433ad2b9137642274ca",
      "hash": "b11e2c5c9aabe482601b34cdc20a7b6c14580f09b74f2433ad2b9137642274ca",
      "version": 1,
      "size": 135,
      "vsize": 135,
      "weight": 540,
      "locktime": 0,
      "vin": [
        {
          "coinbase": "04ffff001d021f03",
          "sequence": 4294967295
        }
      ],
      "vout": [
        {
          "value": 50.0,
          "n": 0,
          "scriptPubKey": {
            "asm": "048c1920a065fd05880bd3ec638cb87e818827070b29978c154ef1b4422b3a69f8653d50cda0116bd7d22b901c3b9224d43e768daa3960ef7cd8dc3b284e09258b OP_CHECKSIG",
            "desc": "pk(048c1920a065fd05880bd3ec638cb87e818827070b29978c154ef1b4422b3a69f8653d50cda0116bd7d22b901c3b9224d43e768daa3960ef7cd8dc3b284e09258b)#lq3pl5wz",
            "hex": "41048c1920a065fd05880bd3ec638cb87e818827070b29978c154ef1b4422b3a69f8653d50cda0116bd7d22b901c3b9224d43e768daa3960ef7cd8dc3b284e09258bac",
            "type": "pubkey"
          }
        }
      ],
      "hex": "01000000010000000000000000000000000000000000000000000000000000000000000000ffffffff0804ffff001d021f03ffffffff0100f2052a010000004341048c1920a065fd05880bd3ec638cb87e818827070b29978c154ef1b4422b3a69f8653d50cda0116bd7d22b901c3b9224d43e768daa3960ef7cd8dc3b284e09258bac00000000"
    }
  ]
}