{
  "hash": "00000000ca9c0a2d6b297c9569d1d8d0be7154fa5cbc2a3aa3289d50765498bd",
  "confirmations": 45052,
  "height": 8046,
  "version": 1,
  "versionHex": "00000001",
  "merkleroot": "c12c595901963330e34367903c378dcaa0ac16e74dc8b686a056157039402de4",
  "time": 1237493103,
  "mediantime": 1237490206,
  "nonce": 245039091,
  "bits": "1d00ffff",
  "difficulty": 1,
  "chainwork": "00000000000000000000000000000000000000000000000000001f6f1f6f1f6f",
  "nTx": 1,
  "previousblockhash": "0000000023311cd98613c2cbb881308d8aef4cb7db953ec576f77db3bab87562",
  "nextblockhash": "000000006fb3f114e0b57276b80d7426f982f58589b9bc664e2b1ede88bb46b0",
  "strippedsize": 215,
  "size": 215,
  "weight": 860,
  "tx": [
    {
      "txid": "c12c595901963330e34367903c378dcaa0ac16e74dc8b686a056157039402de4",
      "hash": "c12c595901963330e34367903c378dcaa0ac16e74dc8b686a056157039402de4",
      "version": 1,
      "size": 134,
      "vsize": 134,
      "weight": 536,
      "locktime": 0,
      "vin": [
        {
          "coinbase": "04ffff001d0137",
          "sequence": 4294967295
        }
      ],
      "vout": [
        {
          "value": 50.0,
          "n": 0,
          "scriptPubKey": {
            "asm": "04b254740370cd32144d8ecb55547318dfe2bd89da74f46c8f2f3fa74bd00802e821232d56f50bee6a3d89eca93506a51eeb53d769871a2fce75b48735d42b5a3f OP_CHECKSIG",
            "desc": "pk(04b254740370cd32144d8ecb55547318dfe2bd89da74f46c8f2f3fa74bd00802e821232d56f50bee6a3d89eca93506a51eeb53d769871a2fce75b48735d42b5a3f)#y8sfdf8e",
            "hex": "4104b254740370cd32144d8ecb55547318dfe2bd89da74f46c8f2f3fa74bd00802e821232d56f50bee6a3d89eca93506a51eeb53d769871a2fce75b48735d42b5a3fac",
            "type": "pubkey"
          }
        }
      ],
      "hex": "01000000010000000000000000000000000000000000000000000000000000000000000000ffffffff0704ffff001d0137ffffffff0100f2052a01000000434104b254740370cd32144d8ecb55547318dfe2bd89da74f46c8f2f3fa74bd00802e821232d56f50bee6a3d89eca93506a51eeb53d769871a2fce75b48735d42b5a3fac00000000"
    }
  ]
}