{
  "hash": "000000008ba44b9d82ce27fd1303a589bde9e93ca4e01bea5e18a3848521fb89",
  "confirmations": 44774,
  "height": 8324,
  "version": 1,
  "versionHex": "00000001",
  "merkleroot": "da880c54d50a246eab4c817a09e0325de23d61225ec46539115b4019a1565275",
  "time": 1237746966,
  "mediantime": 1237742554,
  "nonce": 2124071685,
  "bits": "1d00ffff",
  "difficulty": 1,
  "chainwork": "0000000000000000000000000000000000000000000000000000208520852085",
  "nTx": 1,
  "previousblockhash": "00000000cea67f5c847ab2ad693003deb9fe8044d179c1c60fd2b607d890d8c3",
  "nextblockhash": "00000000fd8a1a1b278b884734831005736ec5287feb99025677d481530ee3ba",
  "strippedsize": 216,
  "size": 216,
  "weight": 864,
  "tx": [
    {
      "txid": "da880c54d50a246eab4c817a09e0325de23d61225ec46539115b4019a1565275",
      "hash": "da880c54d50a246eab4c817a09e0325de23d61225ec46539115b4019a1565275",
      "version": 1,
      "size": 135,
      "vsize": 135,
      "weight": 540,
      "locktime": 0,
      "vin": [
        {
          "coinbase": "04ffff001d027604",
          "sequence": 4294967295
        }
      ],
      "vout": [
        {
          "value": 50.0,
          "n": 0,
          "scriptPubKey": {
            "asm": "04da16a0e8edd47c0cefb254557b71068253a55c42caf5b53c81dd8182e046c2c4543be7b49eefa9557e4880992e5d1b77a202c2ba04526c70bc790df679e72380 OP_CHECKSIG",
            "desc": "pk(04da16a0e8edd47c0cefb254557b71068253a55c42caf5b53c81dd8182e046c2c4543be7b49eefa9557e4880992e5d1b77a202c2ba04526c70bc790df679e72380)#8vpqp8fe",
            "hex": "4104da16a0e8edd47c0cefb254557b71068253a55c42caf5b53c81dd8182e046c2c4543be7b49eefa9557e4880992e5d1b77a202c2ba04526c70bc790df679e72380ac",
            "type": "pubkey"
          }
        }
      ],
      "hex": "01000000010000000000000000000000000000000000000000000000000000000000000000ffffffff0804ffff001d027604ffffffff0100f2052a01000000434104da16a0e8edd47c0cefb254557b71068253a55c42caf5b53c81dd8182e046c2c4543be7b49eefa9557e4880992e5d1b77a202c2ba04526c70bc790df679e72380ac00000000"
    }
  ]
}