{
  "hash": "00000000d326392707f91aea4c155dd4687fe459dc9016877c50b85d82049b7a",
  "confirmations": 51312,
  "height": 1786,
  "version": 1,
  "versionHex": "00000001",
  "merkleroot": "ba301ff5a8eaea39d6975af00dead0e931a70fdb61324db1c43df9100a1ee223",
  "time": 1232890993,
  "mediantime": 1232888375,
  "nonce": 3424117511,
  "bits": "1d00ffff",
  "difficulty": 1,
  "chainwork": "000000000000000000000000000000000000000000000000000006fb06fb06fb",
  "nTx": 1,
  "previousblockhash": "0000000019e19aadf5f1ccc33809e8c779c32703f28e61200b7a6328d05950b1",
  "nextblockhash": "0000000087bfb8261dc2f2d7b780d339455653078ce4adac50eb7cc5f4f4abd8",
  "strippedsize": 216,
  "size": 216,
  "weight": 864,
  "tx": [
    {
      "txid": "ba301ff5a8eaea39d6975af00dead0e931a70fdb61324db1c43df9100a1ee223",
      "hash": "ba301ff5a8eaea39d6975af00dead0e931a70fdb61324db1c43df9100a1ee223",
      "version": 1,
      "size": 135,
      "vsize": 135,
      "weight": 540,
      "locktime": 0,
      "vin": [
        {
          "coinbase": "04ffff001d02f103",
          "sequence": 4294967295
        }
      ],
      "vout": [
        {
          "value": 50.0,
          "n": 0,
          "scriptPubKey": {
            "asm": "04b334691cc8c31cd2493ebd5551e628206a9b4b04d2d7daf67923540aec6b8fc98354fe4d36feb7ff3006a4f19f546ca1f80a5e7a12135fcb493a29c5a3b45298 OP_CHECKSIG",
            "desc": "pk(04b334691cc8c31cd2493ebd5551e628206a9b4b04d2d7daf67923540aec6b8fc98354fe4d36feb7ff3006a4f19f546ca1f80a5e7a12135fcb493a29c5a3b45298)#gy2ezjws",
            "hex": "4104b334691cc8c31cd2493ebd5551e628206a9b4b04d2d7daf67923540aec6b8fc98354fe4d36feb7ff3006a4f19f546ca1f80a5e7a12135fcb493a29c5a3b45298ac",
            "type": "pubkey"
          }
        }
      ],
      "hex": "01000000010000000000000000000000000000000000000000000000000000000000000000ffffffff0804ffff001d02f103ffffffff0100f2052a01000000434104b334691cc8c31cd2493ebd5551e628206a9b4b04d2d7daf67923540aec6b8fc98354fe4d36feb7ff3006a4f19f546ca1f80a5e7a12135fcb493a29c5a3b45298ac00000000"
    }
  ]
}