{
  "hash": "000000006dce3c435514d287e457be7a845a6b67d3f3267cf6504731f2b7b0bf",
  "confirmations": 44767,
  "height": 8331,
  "version": 1,
  "versionHex": "00000001",
  "merkleroot": "03947348cf36d7d37026c23fa70ba599b1296e764b2d6e50cc23be60b63ea895",
  "time": 1237753847,
  "mediantime": 1237749091,
  "nonce": 2182958391,
  "bits": "1d00ffff",
  "difficulty": 1,
  "chainwork": "0000000000000000000000000000000000000000000000000000208c208c208c",
  "nTx": 1,
  "previousblockhash": "00000000107ee739e87b77fb9bab399165e4dd751dfc6c53fc9e5278c4d851dc",
  "nextblockhash": "00000000145fa1fdb9cfd8ff7f33fc964db8bd2472aad4f8fe9a233234971cc5",
  "strippedsize": 216,
  "size": 216,
  "weight": 864,
  "tx": [
    {
      "txid": "03947348cf36d7d37026c23fa70ba599b1296e764b2d6e50cc23be60b63ea895",
      "hash": "03947348cf36d7d37026c23fa70ba599b1296e764b2d6e50cc23be60b63ea895",
      "version": 1,
      "size": 135,
      "vsize": 135,
      "weight": 540,
      "locktime": 0,
      "vin": [
        {
          "coinbase": "04ffff001d02ac04",
          "sequence": 4294967295
        }
      ],
      "vout": [
        {
          "value": 50.0,
          "n": 0,
          "scriptPubKey": {
            "asm": "046efd9179e23e518dfb8ae7257620f821d6e107ac254a67dbf187d1e188ae0ea2d2dd234588fc1682754b44bdc123786e09fffae9fe10e897516e476896200f4a OP_CHECKSIG",
            "desc": "pk(046efd9179e23e518dfb8ae7257620f821d6e107ac254a67dbf187d1e188ae0ea2d2dd234588fc1682754b44bdc123786e09fffae9fe10e897516e476896200f4a)#lvdjwvq3",
            "hex": "41046efd9179e23e518dfb8ae7257620f821d6e107ac254a67dbf187d1e188ae0ea2d2dd234588fc1682754b44bdc123786e09fffae9fe10e897516e476896200f4aac",
            "type": "pubkey"
          }
        }
      ],
      "hex": "01000000010000000000000000000000000000000000000000000000000000000000000000ffffffff0804ffff001d02ac04ffffffff0100f2052a010000004341046efd9179e23e518dfb8ae7257620f821d6e107ac254a67dbf187d1e188ae0ea2d2dd234588fc1682754b44bdc123786e09fffae9fe10e897516e476896200f4aac00000000"
    }
  ]
}