{
  "hash": "000000008a3778af112690367ec150cce4f382383d18bec055b2000f0ccb4f28",
  "confirmations": 51871,
  "height": 1227,
  "version": 1,
  "versionHex": "00000001",
  "merkleroot": "f0f7d77d1a4ffe7d77c4b475d2a066bd3b921bd59d9c7b4c22745d6421a8c0e2",
  "time": 1232521768,
  "mediantime": 1232517300,
  "nonce": 172729542,
  "bits": "1d00ffff",
  "difficulty": 1,
  "chainwork": "000000000000000000000000000000000000000000000000000004cc04cc04cc",
  "nTx": 1,
  "previousblockhash": "0000000059ecbfba0d5849d63891f3e197d4406b26bc5c55537b9369ee3dac60",
  "nextblockhash": "0000000022ed5a7930b0c0476353ef4d47f4b563c0cd7699d7d448406204d63f",
  "strippedsize": 216,
  "size": 216,
  "weight": 864,
  "tx": [
    {
      "txid": "f0f7d77d1a4ffe7d77c4b475d2a066bd3b921bd59d9c7b4c22745d6421a8c0e2",
      "hash": "f0f7d77d1a4ffe7d77c4b475d2a066bd3b921bd59d9c7b4c22745d6421a8c0e2",
      "version": 1,
      "size": 135,
      "vsize": 135,
      "weight": 540,
      "locktime": 0,
      "vin": [
        {
          "coinbase": "04ffff001d028401",
          "sequence": 4294967295
        }
      ],
      "vout": [
        {
          "value": 50.0,
          "n": 0,
          "scriptPubKey": {
            "asm": "0427627275494cf66ec4d06963e0707cb262b4383b446fc953518a13e7744ef42de3d0b1d8420f26d8778c424707fbae092c3cad1ea122cedbf3d5c2e176a01c3c OP_CHECKSIG",
            "desc": "pk(0427627275494cf66ec4d06963e0707cb262b4383b446fc953518a13e7744ef42de3d0b1d8420f26d8778c424707fbae092c3cad1ea122cedbf3d5c2e176a01c3c)#2r4fr576",
            "hex": "410427627275494cf66ec4d06963e0707cb262b4383b446fc953518a13e7744ef42de3d0b1d8420f26d8778c424707fbae092c3cad1ea122cedbf3d5c2e176a01c3cac",
            "type": "pubkey"
          }
        }
      ],
      "hex": "01000000010000000000000000000000000000000000000000000000000000000000000000ffffffff0804ffff001d028401ffffffff0100f2052a0100000043410427627275494cf66ec4d06963e0707cb262b4383b446fc953518a13e7744ef42de3d0b1d8420f26d8778c424707fbae092c3cad1ea122cedbf3d5c2e176a01c3cac00000000"
    }
  ]
}