{
  "hash": "00000000a414e24e3ed3ae002559874146a7ee6d21b863b4cfa3fec4add297e2",
  "confirmations": 51751,
  "height": 1347,
  "version": 1,
  "versionHex": "00000001",
  "merkleroot": "d365fbfd2115fc783e534da992a8ebd89359b5f0a39ef149857e04b4860d5ce0",
  "time": 1232639155,
  "mediantime": 1232633898,
  "nonce": 3766052394,
  "bits": "1d00ffff",
  "difficulty": 1,
  "chainwork": "0000000000000000000000000000000000000000000000000000054405440544",
  "nTx": 1,
  "previousblockhash": "00000000b7d04dea83e90d8a97690740a93cffc19dd978df621d32c4e3b3bfcc",
  "nextblockhash": "00000000b0383ad53d30fa9896168074f7f51a6a3366b1aaa2b263c7cd72b6a4",
  "strippedsize": 216,
  "size": 216,
  "weight": 864,
  "tx": [
    {
      "txid": "d365fbfd2115fc783e534da992a8ebd89359b5f0a39ef149857e04b4860d5ce0",
      "hash": "d365fbfd2115fc783e534da992a8ebd89359b5f0a39ef149857e04b4860d5ce0",
      "version": 1,
      "size": 135,
      "vsize": 135,
      "weight": 540,
      "locktime": 0,
      "vin": [
        {
          "coinbase": "04ffff001d021601",
          "sequence": 4294967295
        }
      ],
      "vout": [
        {
          "value": 50.0,
          "n": 0,
          "scriptPubKey": {
            "asm": "040b3befa1660b97af9b105538541326543cbedba24dae45cfc11789bfcec9c9e36e02cd89f3a27dd02e7ce7fdf841691b1d2acfc815e422e9be732f57d2c147c4 OP_CHECKSIG",
            "desc": "pk(040b3befa1660b97af9b105538541326543cbedba24dae45cfc11789bfcec9c9e36e02cd89f3a27dd02e7ce7fdf841691b1d2acfc815e422e9be732f57d2c147c4)#7zgssfc8",
            "hex": "41040b3befa1660b97af9b105538541326543cbedba24dae45cfc11789bfcec9c9e36e02cd89f3a27dd02e7ce7fdf841691b1d2acfc815e422e9be732f57d2c147c4ac",
            "type": "pubkey"
          }
        }
      ],
      "hex": "01000000010000000000000000000000000000000000000000000000000000000000000000ffffffff0804ffff001d021601ffffffff0100f2052a010000004341040b3befa1660b97af9b105538541326543cbedba24dae45cfc11789bfcec9c9e36e02cd89f3a27dd02e7ce7fdf841691b1d2acfc815e422e9be732f57d2c147c4ac00000000"
    }
  ]
}