{
  "hash": "00000000cc4dd37968c99bcad436498218031715b0ee1d1e901bab3d80aabf07",
  "confirmations": 44758,
  "height": 8340,
  "version": 1,
  "versionHex": "00000001",
  "merkleroot": "56cfe400552a2412c0a14367189402f9f33692232b1bf6255a8079b48a752dba",
  "time": 1237759194,
  "mediantime": 1237756363,
  "nonce": 2624734238,
  "bits": "1d00ffff",
  "difficulty": 1,
  "chainwork": "0000000000000000000000000000000000000000000000000000209520952095",
  "nTx": 1,
  "previousblockhash": "00000000d163fbc2a6cd5700a8dd8f171fa2644004912ef8ddbe92651704b3a5",
  "nextblockhash": "0000000056035e9ea4399a5b064f2c443c3984c48f116c59e0e0d5c772cc65d4",
  "strippedsize": 216,
  "size": 216,
  "weight": 864,
  "tx": [
    {
      "txid": "56cfe400552a2412c0a14367189402f9f33692232b1bf6255a8079b48a752dba",
      "hash": "56cfe400552a2412c0a14367189402f9f33692232b1bf6255a8079b48a752dba",
      "version": 1,
      "size": 135,
      "vsize": 135,
      "weight": 540,
      "locktime": 0,
      "vin": [
        {
          "coinbase": "04ffff001d02c904",
          "sequence": 4294967295
        }
      ],
      "vout": [
        {
          "value": 50.0,
          "n": 0,
          "scriptPubKey": {
            "asm": "0401ee507753e6fa35b3949c3d2eb32a7ddeabd8bfa024914f469dd2a89fc87c55202db451c9450ad7392aa94133c87b023f4723e4e6f193f7e26898b311fde166 OP_CHECKSIG",
            "desc": "pk(0401ee507753e6fa35b3949c3d2eb32a7ddeabd8bfa024914f469dd2a89fc87c55202db451c9450ad7392aa94133c87b023f4723e4e6f193f7e26898b311fde166)#jxrcnnv7",
            "hex": "410401ee507753e6fa35b3949c3d2eb32a7ddeabd8bfa024914f469dd2a89fc87c55202db451c9450ad7392aa94133c87b023f4723e4e6f193f7e26898b311fde166ac",
            "type": "pubkey"
          }
        }
      ],
      "hex": "01000000010000000000000000000000000000000000000000000000000000000000000000ffffffff0804ffff001d02c904ffffffff0100f2052a0100000043410401ee507753e6fa35b3949c3d2eb32a7ddeabd8bfa024914f469dd2a89fc87c55202db451c9450ad7392aa94133c87b023f4723e4e6f193f7e26898b311fde166ac00000000"
    }
  ]
}