{
  "hash": "000000000f66c52ee306c5bb6fa99bddfc40eca4f00ac7f9a9018712c1fb3247",
  "confirmations": 47524,
  "height": 5574,
  "version": 1,
  "versionHex": "00000001",
  "merkleroot": "821033d00df06371d42c5b2fcee238adc88340e89c57f191ddbfc0ea9f126a72",
  "time": 1235581808,
  "mediantime": 1235577131,
  "nonce": 1887664923,
  "bits": "1d00ffff",
  "difficulty": 1,
  "chainwork": "000000000000000000000000000000000000000000000000000015c715c715c7",
  "nTx": 1,
  "previousblockhash": "00000000b669d0b14d368ad802dafa51d94ce86a30cbe1e1c9a58a412ce478c9",
  "nextblockhash": "00000000a5adc84a63c77353b470238f6a27cb436f229849766c7a222493207d",
  "strippedsize": 216,
  "size": 216,
  "weight": 864,
  "tx": [
    {
      "txid": "821033d00df06371d42c5b2fcee238adc88340e89c57f191ddbfc0ea9f126a72",
      "hash": "821033d00df06371d42c5b2fcee238adc88340e89c57f191ddbfc0ea9f126a72",
      "version": 1,
      "size": 135,
      "vsize": 135,
      "weight": 540,
      "locktime": 0,
      "vin": [
        {
          "coinbase": "04ffff001d022d07",
          "sequence": 4294967295
        }
      ],
      "vout": [
        {
          "value": 50.0,
          "n": 0,
          "scriptPubKey": {
            "asm": "0473ed1a845d01885f6d64e4cc31ba92ff3cc35edfe206b33def3824ebffe428abca16a062964c811eea9dd24a725e6e02789b148e7378c478c3348aa4fd1254fb OP_CHECKSIG",
            "desc": "pk(0473ed1a845d01885f6d64e4cc31ba92ff3cc35edfe206b33def3824ebffe428abca16a062964c811eea9dd24a725e6e02789b148e7378c478c3348aa4fd1254fb)#e0vs0xc0",
            "hex": "410473ed1a845d01885f6d64e4cc31ba92ff3cc35edfe206b33def3824ebffe428abca16a062964c811eea9dd24a725e6e02789b148e7378c478c3348aa4fd1254fbac",
            "type": "pubkey"
          }
        }
      ],
      "hex": "01000000010000000000000000000000000000000000000000000000000000000000000000ffffffff0804ffff001d022d07ffffffff0100f2052a0100000043410473ed1a845d01885f6d64e4cc31ba92ff3cc35edfe206b33def3824ebffe428abca16a062964c811eea9dd24a725e6e02789b148e7378c478c3348aa4fd1254fbac00000000"
    }
  ]
}