{
  "hash": "00000000b982f25db874647197e4614674236f43726e542a9b8ad2a937b50f18",
  "confirmations": 43236,
  "height": 9862,
  "version": 1,
  "versionHex": "00000001",
  "merkleroot": "ce81e6d413c55366bad8f11ae7e7c26b7d9024ee9f5b8a8101c53d18704d3825",
  "time": 1238900104,
  "mediantime": 1238897316,
  "nonce": 2276185397,
  "bits": "1d00ffff",
  "difficulty": 1,
  "chainwork": "0000000000000000000000000000000000000000000000000000268726872687",
  "nTx": 1,
  "previousblockhash": "00000000302e1d04f9e1e103e1ea4b86bb43bdb6faa71f73623e121dee1412f7",
  "nextblockhash": "00000000fc83cbb1e767d47abc264cc621604725a1f3ff04d8a52b5b11b453fd",
  "strippedsize": 216,
  "size": 216,
  "weight": 864,
  "tx": [
    {
      "txid": "ce81e6d413c55366bad8f11ae7e7c26b7d9024ee9f5b8a8101c53d18704d3825",
      "hash": "ce81e6d413c55366bad8f11ae7e7c26b7d9024ee9f5b8a8101c53d18704d3825",
      "version": 1,
      "size": 135,
      "vsize": 135,
      "weight": 540,
      "locktime": 0,
      "vin": [
        {
          "coinbase": "04ffff001d027a01",
          "sequence": 4294967295
        }
      ],
      "vout": [
        {
          "value": 50.0,
          "n": 0,
          "scriptPubKey": {
            "asm": "0449ac78ee5cba72d36d305223f9049b91709388f3a2e07f2a47899c32d0ebd86b158980bbd9b9768f15f88a67b724dbd46836d4c7c7cd0b93f4c1a28526636b4b OP_CHECKSIG",
            "desc": "pk(0449ac78ee5cba72d36d305223f9049b91709388f3a2e07f2a47899c32d0ebd86b158980bbd9b9768f15f88a67b724dbd46836d4c7c7cd0b93f4c1a28526636b4b)#e76sl56w",
            "hex": "410449ac78ee5cba72d36d305223f9049b91709388f3a2e07f2a47899c32d0ebd86b158980bbd9b9768f15f88a67b724dbd46836d4c7c7cd0b93f4c1a28526636b4bac",
            "type": "pubkey"
          }
        }
      ],
      "hex": "01000000010000000000000000000000000000000000000000000000000000000000000000ffffffff0804ffff001d027a01ffffffff0100f2052a0100000043410449ac78ee5cba72d36d305223f9049b91709388f3a2e07f2a47899c32d0ebd86b158980bbd9b9768f15f88a67b724dbd46836d4c7c7cd0b93f4c1a28526636b4bac00000000"
    }
  ]
}