{
  "hash": "0000000049cd7c0044964f6e9148e3a7c30beee4fbb1a7670881e941ecb1fb39",
  "confirmations": 50132,
  "height": 2966,
  "version": 1,
  "versionHex": "00000001",
  "merkleroot": "8748af7c8c26b6d36588edda691b446cda0eb0696d5a3239a0d6f6e29ab032d7",
  "time": 1233738615,
  "mediantime": 1233734037,
  "nonce": 1229124628,
  "bits": "1d00ffff",
  "difficulty": 1,
  "chainwork": "00000000000000000000000000000000000000000000000000000b970b970b97",
  "nTx": 1,
  "previousblockhash": "000000000467d523783dda1a1bf918a70623c4e31a9a193a38517cbbf38d1843",
  "nextblockhash": "000000004abc190347ad0e28c2f888a4ae1c6b511d7295bbf12b80eded002475",
  "strippedsize": 216,
  "size": 216,
  "weight": 864,
  "tx": [
    {
      "txid": "8748af7c8c26b6d36588edda691b446cda0eb0696d5a3239a0d6f6e29ab032d7",
      "hash": "8748af7c8c26b6d36588edda691b446cda0eb0696d5a3239a0d6f6e29ab032d7",
      "version": 1,
      "size": 135,
      "vsize": 135,
      "weight": 540,
      "locktime": 0,
      "vin": [
        {
          "coinbase": "04ffff001d02d200",
          "sequence": 4294967295
        }
      ],
      "vout": [
        {
          "value": 50.0,
          "n": 0,
          "scriptPubKey": {
            "asm": "047a3e30793d99916379dd00a046945609084749bc2c0a5ba30200391789600d453237e5ee707442d944c471171fcfc59177ba16af1bfd1d7ccaeb1454e918b513 OP_CHECKSIG",
            "desc": "pk(047a3e30793d99916379dd00a046945609084749bc2c0a5ba30200391789600d453237e5ee707442d944c471171fcfc59177ba16af1bfd1d7ccaeb1454e918b513)#z26ngra6",
            "hex": "41047a3e30793d99916379dd00a046945609084749bc2c0a5ba30200391789600d453237e5ee707442d944c471171fcfc59177ba16af1bfd1d7ccaeb1454e918b513ac",
            "type": "pubkey"
          }
        }
      ],
      "hex": "01000000010000000000000000000000000000000000000000000000000000000000000000ffffffff0804ffff001d02d200ffffffff0100f2052a010000004341047a3e30793d99916379dd00a046945609084749bc2c0a5ba30200391789600d453237e5ee707442d944c471171fcfc59177ba16af1bfd1d7ccaeb1454e918b513ac00000000"
    }
  ]
}