{
  "hash": "00000000acd26a3de6e921e93e6977f61ac353f75ec137b11513af5fd6624b17",
  "confirmations": 45017,
  "height": 8081,
  "version": 1,
  "versionHex": "00000001",
  "merkleroot": "46efad020787d1ffc264d0bf9ed4b72cfe33703dfdec04c3b37160311fb494d3",
  "time": 1237517771,
  "mediantime": 1237514510,
  "nonce": 259676022,
  "bits": "1d00ffff",
  "difficulty": 1,
  "chainwork": "00000000000000000000000000000000000000000000000000001f921f921f92",
  "nTx": 1,
  "previousblockhash": "00000000f8a1380a7c6d0cf14b72823d046bab5777828a7156a12b258a6099b9",
  "nextblockhash": "0000000080c1f3e776e94b1ebf991c912f1c3374c3377b43d14933ca5eef4dbd",
  "strippedsize": 215,
  "size": 215,
  "weight": 860,
  "tx": [
    {
      "txid": "46efad020787d1ffc264d0bf9ed4b72cfe33703dfdec04c3b37160311fb494d3",
      "hash": "46efad020787d1ffc264d0bf9ed4b72cfe33703dfdec04c3b37160311fb494d3",
      "version": 1,
      "size": 134,
      "vsize": 134,
      "weight": 536,
      "locktime": 0,
      "vin": [
        {
          "coinbase": "04ffff001d0159",
          "sequence": 4294967295
        }
      ],
      "vout": [
        {
          "value": 50.0,
          "n": 0,
          "scriptPubKey": {
            "asm": "049a542e263d62810bfd5d5d8d64442a9ae06909a773f166063ac13dc9162b6e3e47bafb0de33d6523da66ff1a09c36457c735b0b8760687d2a65d5949690344b5 OP_CHECKSIG",
            "desc": "pk(049a542e263d62810bfd5d5d8d64442a9ae06909a773f166063ac13dc9162b6e3e47bafb0de33d6523da66ff1a09c36457c735b0b8760687d2a65d5949690344b5)#dyjup66z",
            "hex": "41049a542e263d62810bfd5d5d8d64442a9ae06909a773f166063ac13dc9162b6e3e47bafb0de33d6523da66ff1a09c36457c735b0b8760687d2a65d5949690344b5ac",
            "type": "pubkey"
          }
        }
      ],
      "hex": "01000000010000000000000000000000000000000000000000000000000000000000000000ffffffff0704ffff001d0159ffffffff0100f2052a010000004341049a542e263d62810bfd5d5d8d64442a9ae06909a773f166063ac13dc9162b6e3e47bafb0de33d6523da66ff1a09c36457c735b0b8760687d2a65d5949690344b5ac00000000"
    }
  ]
}