{
  "hash": "00000000443d8d4d473d8275ca2e568501a346eb92a0e20577fcde95dcc2bc86",
  "confirmations": 47086,
  "height": 6012,
  "version": 1,
  "versionHex": "00000001",
  "merkleroot": "6fac14247431be76b063b74472224b7ed69e2471bd9898cc338e21bcb18caea5",
  "time": 1235935667,
  "mediantime": 1235931315,
  "nonce": 1647315002,
  "bits": "1d00ffff",
  "difficulty": 1,
  "chainwork": "0000000000000000000000000000000000000000000000000000177d177d177d",
  "nTx": 1,
  "previousblockhash": "000000005a9badf2cdd1e57a1dc8ed30ecad795976af5788f4deda3b5b2b632e",
  "nextblockhash": "000000007755eb823c04747e00e18de3c3e586208f2a1915f41aac57c9fb84f7",
  "strippedsize": 216,
  "size": 216,
  "weight": 864,
  "tx": [
    {
      "txid": "6fac14247431be76b063b74472224b7ed69e2471bd9898cc338e21bcb18caea5",
      "hash": "6fac14247431be76b063b74472224b7ed69e2471bd9898cc338e21bcb18caea5",
      "version": 1,
      "size": 135,
      "vsize": 135,
      "weight": 540,
      "locktime": 0,
      "vin": [
        {
          "coinbase": "04ffff001d021f05",
          "sequence": 4294967295
        }
      ],
      "vout": [
        {
          "value": 50.0,
          "n": 0,
          "scriptPubKey": {
            "asm": "04332538004f7cf541a4a7373498e05abc0cd0c27d9e9c99cf31c72d98de1104298c4da36448fff891e5ef73a01f6e36b00fa3da2c04cd717f5d320b5ff559ec29 OP_CHECKSIG",
            "desc": "pk(04332538004f7cf541a4a7373498e05abc0cd0c27d9e9c99cf31c72d98de1104298c4da36448fff891e5ef73a01f6e36b00fa3da2c04cd717f5d320b5ff559ec29)#h3swf9rw",
            "hex": "4104332538004f7cf541a4a7373498e05abc0cd0c27d9e9c99cf31c72d98de1104298c4da36448fff891e5ef73a01f6e36b00fa3da2c04cd717f5d320b5ff559ec29ac",
            "type": "pubkey"
          }
        }
      ],
      "hex": "01000000010000000000000000000000000000000000000000000000000000000000000000ffffffff0804ffff001d021f05ffffffff0100f2052a01000000434104332538004f7cf541a4a7373498e05abc0cd0c27d9e9c99cf31c72d98de1104298c4da36448fff891e5ef73a01f6e36b00fa3da2c04cd717f5d320b5ff559ec29ac00000000"
    }
  ]
}