{
  "hash": "00000000084a07181b6d3471b4e18d53e9790b83d30c9128eeec862b19271404",
  "confirmations": 44131,
  "height": 8967,
  "version": 1,
  "versionHex": "00000001",
  "merkleroot": "54b66347285c62fb24e89ec8c02a4e39471261c4c836e603619f6fcbff51494b",
  "time": 1238229943,
  "mediantime": 1238226634,
  "nonce": 55773098,
  "bits": "1d00ffff",
  "difficulty": 1,
  "chainwork": "0000000000000000000000000000000000000000000000000000230823082308",
  "nTx": 1,
  "previousblockhash": "0000000013232867033d0db619d6c288c41e7d32b2e70987d30c38e34c697f47",
  "nextblockhash": "000000005a2e9641d9cb54e41fb2afa60821de8b687c6fad8e5ba40b1423a9ee",
  "strippedsize": 216,
  "size": 216,
  "weight": 864,
  "tx": [
    {
      "txid": "54b66347285c62fb24e89ec8c02a4e39471261c4c836e603619f6fcbff51494b",
      "hash": "54b66347285c62fb24e89ec8c02a4e39471261c4c836e603619f6fcbff51494b",
      "version": 1,
      "size": 135,
      "vsize": 135,
      "weight": 540,
      "locktime": 0,
      "vin": [
        {
          "coinbase": "04ffff001d026b07",
          "sequence": 4294967295
        }
      ],
      "vout": [
        {
          "value": 50.0,
          "n": 0,
          "scriptPubKey": {
            "asm": "04fa8dd5e8dba37a3feb372fdfd498823fd45b2e311d3389821a90a9a62e6b731b7d979039fefd673541451efd076544f4fd2bb8bdb13c24220b3a6f7bc3e33677 OP_CHECKSIG",
            "desc": "pk(04fa8dd5e8dba37a3feb372fdfd498823fd45b2e311d3389821a90a9a62e6b731b7d979039fefd673541451efd076544f4fd2bb8bdb13c24220b3a6f7bc3e33677)#dkxhp9r3",
            "hex": "4104fa8dd5e8dba37a3feb372fdfd498823fd45b2e311d3389821a90a9a62e6b731b7d979039fefd673541451efd076544f4fd2bb8bdb13c24220b3a6f7bc3e33677ac",
            "type": "pubkey"
          }
        }
      ],
      "hex": "01000000010000000000000000000000000000000000000000000000000000000000000000ffffffff0804ffff001d026b07ffffffff0100f2052a01000000434104fa8dd5e8dba37a3feb372fdfd498823fd45b2e311d3389821a90a9a62e6b731b7d979039fefd673541451efd076544f4fd2bb8bdb13c24220b3a6f7bc3e33677ac00000000"
    }
  ]
}