{
  "hash": "000000007534825a00c1cb0df8be677f98311430ae80307b46517d46e0bcc975",
  "confirmations": 51862,
  "height": 1236,
  "version": 1,
  "versionHex": "00000001",
  "merkleroot": "eeb05d4ad458725fbea8aec99a0642ce688c6bb44e3ba3869d955b0e715f381f",
  "time": 1232528367,
  "mediantime": 1232524332,
  "nonce": 1120313366,
  "bits": "1d00ffff",
  "difficulty": 1,
  "chainwork": "000000000000000000000000000000000000000000000000000004d504d504d5",
  "nTx": 1,
  "previousblockhash": "00000000557f4dd610df6144f7cee23c16e67fdbcbcc92bcc9e49ee71ac8cd5d",
  "nextblockhash": "00000000ce532079f1135377e7b1b4e7f1ae60f793ff5427e8b2510af911b391",
  "strippedsize": 216,
  "size": 216,
  "weight": 864,
  "tx": [
    {
      "txid": "eeb05d4ad458725fbea8aec99a0642ce688c6bb44e3ba3869d955b0e715f381f",
      "hash": "eeb05d4ad458725fbea8aec99a0642ce688c6bb44e3ba3869d955b0e715f381f",
      "version": 1,
      "size": 135,
      "vsize": 135,
      "weight": 540,
      "locktime": 0,
      "vin": [
        {
          "coinbase": "04ffff001d022e09",
          "sequence": 4294967295
        }
      ],
      "vout": [
        {
          "value": 50.0,
          "n": 0,
          "scriptPubKey": {
            "asm": "04f340172d2df10c03d55e8a4d4c006988bc8544d281a2a5c6d1ebf993e621ed68c2d7d689c2f8b2904476acf742665e19b0990686fa38af29fd0c7d78eabae71b OP_CHECKSIG",
            "desc": "pk(04f340172d2df10c03d55e8a4d4c006988bc8544d281a2a5c6d1ebf993e621ed68c2d7d689c2f8b2904476acf742665e19b0990686fa38af29fd0c7d78eabae71b)#fkhh68st",
            "hex": "4104f340172d2df10c03d55e8a4d4c006988bc8544d281a2a5c6d1ebf993e621ed68c2d7d689c2f8b2904476acf742665e19b0990686fa38af29fd0c7d78eabae71bac",
            "type": "pubkey"
          }
        }
      ],
      "hex": "01000000010000000000000000000000000000000000000000000000000000000000000000ffffffff0804ffff001d022e09ffffffff0100f2052a01000000434104f340172d2df10c03d55e8a4d4c006988bc8544d281a2a5c6d1ebf993e621ed68c2d7d689c2f8b2904476acf742665e19b0990686fa38af29fd0c7d78eabae71bac00000000"
    }
  ]
}