{
  "hash": "000000005be793d6abe489bbc81103a5fd676d6fbb484d9b51cfb37a59fe6f13",
  "confirmations": 44446,
  "height": 8652,
  "version": 1,
  "versionHex": "00000001",
  "merkleroot": "c643c0e1b17850939afde7096acf4db06c46817a049a8aeb263e7b716175122f",
  "time": 1237987658,
  "mediantime": 1237982655,
  "nonce": 930559278,
  "bits": "1d00ffff",
  "difficulty": 1,
  "chainwork": "000000000000000000000000000000000000000000000000000021cd21cd21cd",
  "nTx": 1,
  "previousblockhash": "000000007b9530183fd2eb3a949c84b166973f33e38bd8112a36f598514e36a5",
  "nextblockhash": "00000000fb39895963d4284cf0f59e0ada8ffc2d05e81297966d4b13fdff4fc1",
  "strippedsize": 215,
  "size": 215,
  "weight": 860,
  "tx": [
    {
      "txid": "c643c0e1b17850939afde7096acf4db06c46817a049a8aeb263e7b716175122f",
      "hash": "c643c0e1b17850939afde7096acf4db06c46817a049a8aeb263e7b716175122f",
      "version": 1,
      "size": 134,
      "vsize": 134,
      "weight": 536,
      "locktime": 0,
      "vin": [
        {
          "coinbase": "04ffff001d0110",
          "sequence": 4294967295
        }
      ],
      "vout": [
        {
          "value": 50.0,
          "n": 0,
          "scriptPubKey": {
            "asm": "040929741d39c5093504fb311af5c1bb1392a7ff38d6b56632e6dcc69f7107c867d49380ebc55b6e4951ed6b202e92db39020aa9562347351bd807130c9bea41af OP_CHECKSIG",
            "desc": "pk(040929741d39c5093504fb311af5c1bb1392a7ff38d6b56632e6dcc69f7107c867d49380ebc55b6e4951ed6b202e92db39020aa9562347351bd807130c9bea41af)#67g8e49u",
            "hex": "41040929741d39c5093504fb311af5c1bb1392a7ff38d6b56632e6dcc69f7107c867d49380ebc55b6e4951ed6b202e92db39020aa9562347351bd807130c9bea41afac",
            "type": "pubkey"
          }
        }
      ],
      "hex": "01000000010000000000000000000000000000000000000000000000000000000000000000ffffffff0704ffff001d0110ffffffff0100f2052a010000004341040929741d39c5093504fb311af5c1bb1392a7ff38d6b56632e6dcc69f7107c867d49380ebc55b6e4951ed6b202e92db39020aa9562347351bd807130c9bea41afac00000000"
    }
  ]
}