{
  "hash": "000000003bbcc9dfe24e9880fb4d462003191a40b1d313b962d9a458d0d6f84c",
  "confirmations": 50982,
  "height": 2116,
  "version": 1,
  "versionHex": "00000001",
  "merkleroot": "4565320246cefca135975502834835497bcddb1f3bb0057b547ace4f2a39f7e7",
  "time": 1233149370,
  "mediantime": 1233145769,
  "nonce": 11273820,
  "bits": "1d00ffff",
  "difficulty": 1,
  "chainwork": "0000000000000000000000000000000000000000000000000000084508450845",
  "nTx": 1,
  "previousblockhash": "000000003b1a33fecc66ca72fc1742865736881bcf78306b80fa44195678313a",
  "nextblockhash": "0000000078cf3d9ad734fdf5ae43a3141efdbd0e4accf516bbbe9f85f97d0ed1",
  "strippedsize": 216,
  "size": 216,
  "weight": 864,
  "tx": [
    {
      "txid": "4565320246cefca135975502834835497bcddb1f3bb0057b547ace4f2a39f7e7",
      "hash": "4565320246cefca135975502834835497bcddb1f3bb0057b547ace4f2a39f7e7",
      "version": 1,
      "size": 135,
      "vsize": 135,
      "weight": 540,
      "locktime": 0,
      "vin": [
        {
          "coinbase": "04ffff001d02b003",
          "sequence": 4294967295
        }
      ],
      "vout": [
        {
          "value": 50.0,
          "n": 0,
          "scriptPubKey": {
            "asm": "04b40802bdf6b66c3838e0105c846a8a4bdfee3af58031b58924655b3cc183e16a0d737aa320b3be999cc32e5396d442e4f89e734565557360335a2075fab0ffae OP_CHECKSIG",
            "desc": "pk(04b40802bdf6b66c3838e0105c846a8a4bdfee3af58031b58924655b3cc183e16a0d737aa320b3be999cc32e5396d442e4f89e734565557360335a2075fab0ffae)#dsylktdy",
            "hex": "4104b40802bdf6b66c3838e0105c846a8a4bdfee3af58031b58924655b3cc183e16a0d737aa320b3be999cc32e5396d442e4f89e734565557360335a2075fab0ffaeac",
            "type": "pubkey"
          }
        }
      ],
      "hex": "01000000010000000000000000000000000000000000000000000000000000000000000000ffffffff0804ffff001d02b003ffffffff0100f2052a01000000434104b40802bdf6b66c3838e0105c846a8a4bdfee3af58031b58924655b3cc183e16a0d737aa320b3be999cc32e5396d442e4f89e734565557360335a2075fab0ffaeac00000000"
    }
  ]
}