{
  "hash": "00000000ac9c37de83c6d89694721e039081206c1825a5b6325d2967a250d373",
  "confirmations": 47316,
  "height": 5782,
  "version": 1,
  "versionHex": "00000001",
  "merkleroot": "4c8ef424506e3d45bbe589c24ba8927754b9b6e8f67d4ef50676b52c9a733c34",
  "time": 1235746420,
  "mediantime": 1235742608,
  "nonce": 1143162931,
  "bits": "1d00ffff",
  "difficulty": 1,
  "chainwork": "0000000000000000000000000000000000000000000000000000169716971697",
  "nTx": 1,
  "previousblockhash": "00000000211bb5d4ed9b771e78628015593cd1c381956f48e5b1b1daf598041e",
  "nextblockhash": "000000005dcc844e056aef76ba55ccf388e25fd92d1ec64d7317577aa8a66161",
  "strippedsize": 215,
  "size": 215,
  "weight": 860,
  "tx": [
    {
      "txid": "4c8ef424506e3d45bbe589c24ba8927754b9b6e8f67d4ef50676b52c9a733c34",
      "hash": "4c8ef424506e3d45bbe589c24ba8927754b9b6e8f67d4ef50676b52c9a733c34",
      "version": 1,
      "size": 134,
      "vsize": 134,
      "weight": 536,
      "locktime": 0,
      "vin": [
        {
          "coinbase": "04ffff001d017a",
          "sequence": 4294967295
        }
      ],
      "vout": [
        {
          "value": 50.0,
          "n": 0,
          "scriptPubKey": {
            "asm": "04de8f1b644873c6e218991e2ec1b5774e7c08dd99c51ecba48c2aeca474e67a37232037a8cc885c30b45b2479f6462915143013e8bb640116d4b06d70d5ee4736 OP_CHECKSIG",
            "desc": "pk(04de8f1b644873c6e218991e2ec1b5774e7c08dd99c51ecba48c2aeca474e67a37232037a8cc885c30b45b2479f6462915143013e8bb640116d4b06d70d5ee4736)#fpdqt6z9",
            "hex": "4104de8f1b644873c6e218991e2ec1b5774e7c08dd99c51ecba48c2aeca474e67a37232037a8cc885c30b45b2479f6462915143013e8bb640116d4b06d70d5ee4736ac",
            "type": "pubkey"
          }
        }
      ],
      "hex": "01000000010000000000000000000000000000000000000000000000000000000000000000ffffffff0704ffff001d017affffffff0100f2052a01000000434104de8f1b644873c6e218991e2ec1b5774e7c08dd99c51ecba48c2aeca474e67a37232037a8cc885c30b45b2479f6462915143013e8bb640116d4b06d70d5ee4736ac00000000"
    }
  ]
}