{
  "hash": "0000000013c6c49df5be068f2cdb65de63bde211c7ad02e5407ce045843b0ad6",
  "confirmations": 45763,
  "height": 7335,
  "version": 1,
  "versionHex": "00000001",
  "merkleroot": "a27c70d28fd51839ea9593e98f3fea6977f67ae53449a7cc6b23c6203f0cbbcc",
  "time": 1236973699,
  "mediantime": 1236970733,
  "nonce": 18891088,
  "bits": "1d00ffff",
  "difficulty": 1,
  "chainwork": "00000000000000000000000000000000000000000000000000001ca81ca81ca8",
  "nTx": 1,
  "previousblockhash": "000000004ae42a08f18ecfb1ce1092cf3c6834be290c0ea1096be8a1625c9187",
  "nextblockhash": "00000000188a13c1bfb71ef32a6f43fd5215e329d66a9106f0fe2e51de8b3a0a",
  "strippedsize": 216,
  "size": 216,
  "weight": 864,
  "tx": [
    {
      "txid": "a27c70d28fd51839ea9593e98f3fea6977f67ae53449a7cc6b23c6203f0cbbcc",
      "hash": "a27c70d28fd51839ea9593e98f3fea6977f67ae53449a7cc6b23c6203f0cbbcc",
      "version": 1,
      "size": 135,
      "vsize": 135,
      "weight": 540,
      "locktime": 0,
      "vin": [
        {
          "coinbase": "04ffff001d021e01",
          "sequence": 4294967295
        }
      ],
      "vout": [
        {
          "value": 50.0,
          "n": 0,
          "scriptPubKey": {
            "asm": "046fe4c0411ad0f123e45c82d51718e293bb11c74c6eb030f10d7dbeacd007606b634cd6e945c79ced93aa9c9f7f85284c84b2f81c4604c4d6d3f2aa56acb5e3f2 OP_CHECKSIG",
            "desc": "pk(046fe4c0411ad0f123e45c82d51718e293bb11c74c6eb030f10d7dbeacd007606b634cd6e945c79ced93aa9c9f7f85284c84b2f81c4604c4d6d3f2aa56acb5e3f2)#4fn89wr6",
            "hex": "41046fe4c0411ad0f123e45c82d51718e293bb11c74c6eb030f10d7dbeacd007606b634cd6e945c79ced93aa9c9f7f85284c84b2f81c4604c4d6d3f2aa56acb5e3f2ac",
            "type": "pubkey"
          }
        }
      ],
      "hex": "01000000010000000000000000000000000000000000000000000000000000000000000000ffffffff0804ffff001d021e01ffffffff0100f2052a010000004341046fe4c0411ad0f123e45c82d51718e293bb11c74c6eb030f10d7dbeacd007606b634cd6e945c79ced93aa9c9f7f85284c84b2f81c4604c4d6d3f2aa56acb5e3f2ac00000000"
    }
  ]
}