{
  "hash": "000000004caef4968b3c0adb8056c8a5e53573431c23079e529bc83a0f2bf1ca",
  "confirmations": 46534,
  "height": 6564,
  "version": 1,
  "versionHex": "00000001",
  "merkleroot": "db32f7c34ef0320471251fb20f720410ec776384dafa24d174bf6d527f9ac7a4",
  "time": 1236376267,
  "mediantime": 1236372952,
  "nonce": 3721202968,
  "bits": "1d00ffff",
  "difficulty": 1,
  "chainwork": "000000000000000000000000000000000000000000000000000019a519a519a5",
  "nTx": 1,
  "previousblockhash": "0000000041995328aff3a68c1d466f9c7906981f492235ff71964e06cf1053f2",
  "nextblockhash": "00000000469051cee0bd7a50d086371524494b377fc40b30664bcf503860d548",
  "strippedsize": 216,
  "size": 216,
  "weight": 864,
  "tx": [
    {
      "txid": "db32f7c34ef0320471251fb20f720410ec776384dafa24d174bf6d527f9ac7a4",
      "hash": "db32f7c34ef0320471251fb20f720410ec776384dafa24d174bf6d527f9ac7a4",
      "version": 1,
      "size": 135,
      "vsize": 135,
      "weight": 540,
      "locktime": 0,
      "vin": [
        {
          "coinbase": "04ffff001d029904",
          "sequence": 4294967295
        }
      ],
      "vout": [
        {
          "value": 50.0,
          "n": 0,
          "scriptPubKey": {
            "asm": "04d77c0def71213c2989666011860e5124f6a3b0c37733a228c4c7d6507ae175c5be9eac49cbd95c40f1d46cfdd53a6ece1ed3f0a240f7b40f83fdd119c89a102f OP_CHECKSIG",
            "desc": "pk(04d77c0def71213c2989666011860e5124f6a3b0c37733a228c4c7d6507ae175c5be9eac49cbd95c40f1d46cfdd53a6ece1ed3f0a240f7b40f83fdd119c89a102f)#kutwdva0",
            "hex": "4104d77c0def71213c2989666011860e5124f6a3b0c37733a228c4c7d6507ae175c5be9eac49cbd95c40f1d46cfdd53a6ece1ed3f0a240f7b40f83fdd119c89a102fac",
            "type": "pubkey"
          }
        }
      ],
      "hex": "01000000010000000000000000000000000000000000000000000000000000000000000000ffffffff0804ffff001d029904ffffffff0100f2052a01000000434104d77c0def71213c2989666011860e5124f6a3b0c37733a228c4c7d6507ae175c5be9eac49cbd95c40f1d46cfdd53a6ece1ed3f0a240f7b40f83fdd119c89a102fac00000000"
    }
  ]
}