{
  "hash": "000000000facf3d80ce6b133c757b7080454e83120539a962d4939efa244dbc2",
  "confirmations": 49769,
  "height": 3329,
  "version": 1,
  "versionHex": "00000001",
  "merkleroot": "d093f66ddb625757f845998ed658973b4e993acabc6a55406f53bed67945f6b4",
  "time": 1233986407,
  "mediantime": 1233983298,
  "nonce": 2025025538,
  "bits": "1d00ffff",
  "difficulty": 1,
  "chainwork": "00000000000000000000000000000000000000000000000000000d020d020d02",
  "nTx": 1,
  "previousblockhash": "00000000f2588bc7c3a6f0bfd86dea3b1d89cfa40e7e1de541107f643675a5d5",
  "nextblockhash": "000000000035f4cce8ac52847b6618f8bd3f53d501dc6a006839a0963a8f6f6e",
  "strippedsize": 216,
  "size": 216,
  "weight": 864,
  "tx": [
    {
      "txid": "d093f66ddb625757f845998ed658973b4e993acabc6a55406f53bed67945f6b4",
      "hash": "d093f66ddb625757f845998ed658973b4e993acabc6a55406f53bed67945f6b4",
      "version": 1,
      "size": 135,
      "vsize": 135,
      "weight": 540,
      "locktime": 0,
      "vin": [
        {
          "coinbase": "04ffff001d02bc04",
          "sequence": 4294967295
        }
      ],
      "vout": [
        {
          "value": 50.0,
          "n": 0,
          "scriptPubKey": {
            "asm": "04b0e9c9f0b485dd9b35c8693ea36a634d4386add813425614a09510470febff640b1fbdbb444da4d5e0a1cc434e95ee296ee5110927f9ab1fae3d1bee50aac1a3 OP_CHECKSIG",
            "desc": "pk(04b0e9c9f0b485dd9b35c8693ea36a634d4386add813425614a09510470febff640b1fbdbb444da4d5e0a1cc434e95ee296ee5110927f9ab1fae3d1bee50aac1a3)#rdahsnlw",
            "hex": "4104b0e9c9f0b485dd9b35c8693ea36a634d4386add813425614a09510470febff640b1fbdbb444da4d5e0a1cc434e95ee296ee5110927f9ab1fae3d1bee50aac1a3ac",
            "type": "pubkey"
          }
        }
      ],
      "hex": "01000000010000000000000000000000000000000000000000000000000000000000000000ffffffff0804ffff001d02bc04ffffffff0100f2052a01000000434104b0e9c9f0b485dd9b35c8693ea36a634d4386add813425614a09510470febff640b1fbdbb444da4d5e0a1cc434e95ee296ee5110927f9ab1fae3d1bee50aac1a3ac00000000"
    }
  ]
}