{
  "hash": "00000000376ed41c9e61d55414cea6fcb806b1c65923e7f96857de44b00de6a0",
  "confirmations": 44328,
  "height": 8770,
  "version": 1,
  "versionHex": "00000001",
  "merkleroot": "695a037def62c12bd272d4448f63c8b753aa8d9cf5827171e2414dd2ebc6606f",
  "time": 1238076845,
  "mediantime": 1238073963,
  "nonce": 3262102787,
  "bits": "1d00ffff",
  "difficulty": 1,
  "chainwork": "0000000000000000000000000000000000000000000000000000224322432243",
  "nTx": 1,
  "previousblockhash": "0000000058151e93ee65c129781f080761d8ef0292d3a47a67b8a562304272e9",
  "nextblockhash": "000000000d61de52de2d6a2bc6dba30fd51a01373709aee3761aacb0480e3396",
  "strippedsize": 216,
  "size": 216,
  "weight": 864,
  "tx": [
    {
      "txid": "695a037def62c12bd272d4448f63c8b753aa8d9cf5827171e2414dd2ebc6606f",
      "hash": "695a037def62c12bd272d4448f63c8b753aa8d9cf5827171e2414dd2ebc6606f",
      "version": 1,
      "size": 135,
      "vsize": 135,
      "weight": 540,
      "locktime": 0,
      "vin": [
        {
          "coinbase": "04ffff001d020b02",
          "sequence": 4294967295
        }
      ],
      "vout": [
        {
          "value": 50.0,
          "n": 0,
          "scriptPubKey": {
            "asm": "040a88c67059187410079a2f4025402623066202f850af9ffbbc97a243e3dffea8f54be609ac3f2dc2139b2aa9e1437e6891ae93e417ee84189d05c94ed034df48 OP_CHECKSIG",
            "desc": "pk(040a88c67059187410079a2f4025402623066202f850af9ffbbc97a243e3dffea8f54be609ac3f2dc2139b2aa9e1437e6891ae93e417ee84189d05c94ed034df48)#xvt75nv7",
            "hex": "41040a88c67059187410079a2f4025402623066202f850af9ffbbc97a243e3dffea8f54be609ac3f2dc2139b2aa9e1437e6891ae93e417ee84189d05c94ed034df48ac",
            "type": "pubkey"
          }
        }
      ],
      "hex": "01000000010000000000000000000000000000000000000000000000000000000000000000ffffffff0804ffff001d020b02ffffffff0100f2052a010000004341040a88c67059187410079a2f4025402623066202f850af9ffbbc97a243e3dffea8f54be609ac3f2dc2139b2aa9e1437e6891ae93e417ee84189d05c94ed034df48ac00000000"
    }
  ]
}