{
  "hash": "00000000c96a7e11563199239a74fc1965879f50395f9fc2597c1e4c045cb6b8",
  "confirmations": 49299,
  "height": 3799,
  "version": 1,
  "versionHex": "00000001",
  "merkleroot": "6557e28dcd3611dd18d31aece41c867bb5a8197163fd1eb22e5778536ee0c358",
  "time": 1234306965,
  "mediantime": 1234303295,
  "nonce": 392205221,
  "bits": "1d00ffff",
  "difficulty": 1,
  "chainwork": "00000000000000000000000000000000000000000000000000000ed80ed80ed8",
  "nTx": 1,
  "previousblockhash": "000000002df0609369f9fb4fdcb2ba58ee0192e22a682fdd17023b8ec82ad885",
  "nextblockhash": "00000000b590a5ff44afeb50e51444d8b6ccd08f6232951316f33e19b5ca5ff2",
  "strippedsize": 215,
  "size": 215,
  "weight": 860,
  "tx": [
    {
      "txid": "6557e28dcd3611dd18d31aece41c867bb5a8197163fd1eb22e5778536ee0c358",
      "hash": "6557e28dcd3611dd18d31aece41c867bb5a8197163fd1eb22e5778536ee0c358",
      "version": 1,
      "size": 134,
      "vsize": 134,
      "weight": 536,
      "locktime": 0,
      "vin": [
        {
          "coinbase": "04ffff001d0124",
          "sequence": 4294967295
        }
      ],
      "vout": [
        {
          "value": 50.0,
          "n": 0,
          "scriptPubKey": {
            "asm": "043a4b568d30ae55fde4e0c0e4e740d8bbbeb265bb06b925f783d2cbad86fb8ebf302c877477e483d9d6056818552f8ed5254ac4fd802ecc9b3a5a0f110773f3c7 OP_CHECKSIG",
            "desc": "pk(043a4b568d30ae55fde4e0c0e4e740d8bbbeb265bb06b925f783d2cbad86fb8ebf302c877477e483d9d6056818552f8ed5254ac4fd802ecc9b3a5a0f110773f3c7)#uaw8nnlw",
            "hex": "41043a4b568d30ae55fde4e0c0e4e740d8bbbeb265bb06b925f783d2cbad86fb8ebf302c877477e483d9d6056818552f8ed5254ac4fd802ecc9b3a5a0f110773f3c7ac",
            "type": "pubkey"
          }
        }
      ],
      "hex": "01000000010000000000000000000000000000000000000000000000000000000000000000ffffffff0704ffff001d0124ffffffff0100f2052a010000004341043a4b568d30ae55fde4e0c0e4e740d8bbbeb265bb06b925f783d2cbad86fb8ebf302c877477e483d9d6056818552f8ed5254ac4fd802ecc9b3a5a0f110773f3c7ac00000000"
    }
  ]
}