{
  "hash": "0000000018811d09202af6f163b2b91ccdf1a0489b436ca8574016ace633f870",
  "confirmations": 48347,
  "height": 4751,
  "version": 1,
  "versionHex": "00000001",
  "merkleroot": "e81635f934b7adf8d63601a4245e6911c661f32d5063962c7c9dc52c7c7b6088",
  "time": 1234963946,
  "mediantime": 1234961083,
  "nonce": 110044389,
  "bits": "1d00ffff",
  "difficulty": 1,
  "chainwork": "0000000000000000000000000000000000000000000000000000129012901290",
  "nTx": 1,
  "previousblockhash": "00000000841ed80660098edf2d37f2052073ba4b0e8fab706c6ff51995658bc2",
  "nextblockhash": "000000003c3b1159155620e2d100c6d6b73e3482f81401cfa8472f7d071edc69",
  "strippedsize": 215,
  "size": 215,
  "weight": 860,
  "tx": [
    {
      "txid": "e81635f934b7adf8d63601a4245e6911c661f32d5063962c7c9dc52c7c7b6088",
      "hash": "e81635f934b7adf8d63601a4245e6911c661f32d5063962c7c9dc52c7c7b6088",
      "version": 1,
      "size": 134,
      "vsize": 134,
      "weight": 536,
      "locktime": 0,
      "vin": [
        {
          "coinbase": "04ffff001d0151",
          "sequence": 4294967295
        }
      ],
      "vout": [
        {
          "value": 50.0,
          "n": 0,
          "scriptPubKey": {
            "asm": "048417e1ab3ee1fcd612ba68522c38ff13e33f73b2993e3cf4871b80a56aa4c1434942c050c757699665da2014e4548aeab1f4606b9a13a6122f5cb498c0579d74 OP_CHECKSIG",
            "desc": "pk(048417e1ab3ee1fcd612ba68522c38ff13e33f73b2993e3cf4871b80a56aa4c1434942c050c757699665da2014e4548aeab1f4606b9a13a6122f5cb498c0579d74)#q5u986e7",
            "hex": "41048417e1ab3ee1fcd612ba68522c38ff13e33f73b2993e3cf4871b80a56aa4c1434942c050c757699665da2014e4548aeab1f4606b9a13a6122f5cb498c0579d74ac",
            "type": "pubkey"
          }
        }
      ],
      "hex": "01000000010000000000000000000000000000000000000000000000000000000000000000ffffffff0704ffff001d0151ffffffff0100f2052a010000004341048417e1ab3ee1fcd612ba68522c38ff13e33f73b2993e3cf4871b80a56aa4c1434942c050c757699665da2014e4548aeab1f4606b9a13a6122f5cb498c0579d74ac00000000"
    }
  ]
}