{
  "hash": "0000000019e19aadf5f1ccc33809e8c779c32703f28e61200b7a6328d05950b1",
  "confirmations": 51313,
  "height": 1785,
  "version": 1,
  "versionHex": "00000001",
  "merkleroot": "336ebcc147aab709311ad6b860db79068df3589c43582f7459a2bae0cf6606d2",
  "time": 1232890344,
  "mediantime": 1232888092,
  "nonce": 3658818094,
  "bits": "1d00ffff",
  "difficulty": 1,
  "chainwork": "000000000000000000000000000000000000000000000000000006fa06fa06fa",
  "nTx": 1,
  "previousblockhash": "00000000c8b50f874c15e4c264544fa7488e956700bfaddcc23402f3674da724",
  "nextblockhash": "00000000d326392707f91aea4c155dd4687fe459dc9016877c50b85d82049b7a",
  "strippedsize": 216,
  "size": 216,
  "weight": 864,
  "tx": [
    {
      "txid": "336ebcc147aab709311ad6b860db79068df3589c43582f7459a2bae0cf6606d2",
      "hash": "336ebcc147aab709311ad6b860db79068df3589c43582f7459a2bae0cf6606d2",
      "version": 1,
      "size": 135,
      "vsize": 135,
      "weight": 540,
      "locktime": 0,
      "vin": [
        {
          "coinbase": "04ffff001d02cd03",
          "sequence": 4294967295
        }
      ],
      "vout": [
        {
          "value": 50.0,
          "n": 0,
          "scriptPubKey": {
            "asm": "04698edc8522c2a932318e2b1799dcc73e205300b85eb8be21983f14cff00a524e23771f0935c2047b8ee5c521667778c3e908404cd0eb2ec4bb437bf67a5ef19f OP_CHECKSIG",
            "desc": "pk(04698edc8522c2a932318e2b1799dcc73e205300b85eb8be21983f14cff00a524e23771f0935c2047b8ee5c521667778c3e908404cd0eb2ec4bb437bf67a5ef19f)#4tq5fvq6",
            "hex": "4104698edc8522c2a932318e2b1799dcc73e205300b85eb8be21983f14cff00a524e23771f0935c2047b8ee5c521667778c3e908404cd0eb2ec4bb437bf67a5ef19fac",
            "type": "pubkey"
          }
        }
      ],
      "hex": "01000000010000000000000000000000000000000000000000000000000000000000000000ffffffff0804ffff001d02cd03ffffffff0100f2052a01000000434104698edc8522c2a932318e2b1799dcc73e205300b85eb8be21983f14cff00a524e23771f0935c2047b8ee5c521667778c3e908404cd0eb2ec4bb437bf67a5ef19fac00000000"
    }
  ]
}