{
  "hash": "00000000fa3dc261b67cd450002c1e439370f8401e7c5db6eb2cc93e10883a92",
  "confirmations": 45261,
  "height": 7837,
  "version": 1,
  "versionHex": "00000001",
  "merkleroot": "f859ef49708a8ab8b3ea83c53001a87424a083ea408e64337b89ffa4b3f0c57c",
  "time": 1237341969,
  "mediantime": 1237337229,
  "nonce": 3463902464,
  "bits": "1d00ffff",
  "difficulty": 1,
  "chainwork": "00000000000000000000000000000000000000000000000000001e9e1e9e1e9e",
  "nTx": 1,
  "previousblockhash": "000000002b2c78c5e2bfbf4029566dec8764020c0c119d41dd072c95c153eaa6",
  "nextblockhash": "0000000008535274df95b9754828b09cac384a5d9f43453f769219aaccf1cd9a",
  "strippedsize": 216,
  "size": 216,
  "weight": 864,
  "tx": [
    {
      "txid": "f859ef49708a8ab8b3ea83c53001a87424a083ea408e64337b89ffa4b3f0c57c",
      "hash": "f859ef49708a8ab8b3ea83c53001a87424a083ea408e64337b89ffa4b3f0c57c",
      "version": 1,
      "size": 135,
      "vsize": 135,
      "weight": 540,
      "locktime": 0,
      "vin": [
        {
          "coinbase": "04ffff001d027c06",
          "sequence": 4294967295
        }
      ],
      "vout": [
        {
          "value": 50.0,
          "n": 0,
          "scriptPubKey": {
            "asm": "04cf954ea4d272b25725947f6eedc60afcebbf4d83ff2cb22942a51f93698542e35029d2c604a3f27442415df8b8766c006ec92a33d79fab797ff6b8ce40a66b71 OP_CHECKSIG",
            "desc": "pk(04cf954ea4d272b25725947f6eedc60afcebbf4d83ff2cb22942a51f93698542e35029d2c604a3f27442415df8b8766c006ec92a33d79fab797ff6b8ce40a66b71)#3mywahh8",
            "hex": "4104cf954ea4d272b25725947f6eedc60afcebbf4d83ff2cb22942a51f93698542e35029d2c604a3f27442415df8b8766c006ec92a33d79fab797ff6b8ce40a66b71ac",
            "type": "pubkey"
          }
        }
      ],
      "hex": "01000000010000000000000000000000000000000000000000000000000000000000000000ffffffff0804ffff001d027c06ffffffff0100f2052a01000000434104cf954ea4d272b25725947f6eedc60afcebbf4d83ff2cb22942a51f93698542e35029d2c604a3f27442415df8b8766c006ec92a33d79fab797ff6b8ce40a66b71ac00000000"
    }
  ]
}