{
  "hash": "000000006f50d6c328e0438358991d8905cb372d06dfdfb40b61ab67490b85a9",
  "confirmations": 52490,
  "height": 608,
  "version": 1,
  "versionHex": "00000001",
  "merkleroot": "783ea52b3255b0bffcb951670bb5d57534e2b327c8854b28df7244fe23af7e34",
  "time": 1232043026,
  "mediantime": 1232041314,
  "nonce": 148090630,
  "bits": "1d00ffff",
  "difficulty": 1,
  "chainwork": "0000000000000000000000000000000000000000000000000000026102610261",
  "nTx": 1,
  "previousblockhash": "00000000a2f73f89957afec478a73c5227f9b7a1f697de7f71bc1f9c9c9cf419",
  "nextblockhash": "000000008c1f7653c7e61858d8024c0d6981bd2186166730e5c0d2650ab5648a",
  "strippedsize": 216,
  "size": 216,
  "weight": 864,
  "tx": [
    {
      "txid": "783ea52b3255b0bffcb951670bb5d57534e2b327c8854b28df7244fe23af7e34",
      "hash": "783ea52b3255b0bffcb951670bb5d57534e2b327c8854b28df7244fe23af7e34",
      "version": 1,
      "size": 135,
      "vsize": 135,
      "weight": 540,
      "locktime": 0,
      "vin": [
        {
          "coinbase": "04ffff001d02d506",
          "sequence": 4294967295
        }
      ],
      "vout": [
        {
          "value": 50.0,
          "n": 0,
          "scriptPubKey": {
            "asm": "04f17d82a51ea503214124c6e6f3d87fc9a23d14bfea2b0cb89e483af555336189f573b9e211f91c84eb02faa91eb6ea267051aa8f9f8de27f44c457379eb31d32 OP_CHECKSIG",
            "desc": "pk(04f17d82a51ea503214124c6e6f3d87fc9a23d14bfea2b0cb89e483af555336189f573b9e211f91c84eb02faa91eb6ea267051aa8f9f8de27f44c457379eb31d32)#pj8wr3q5",
            "hex": "4104f17d82a51ea503214124c6e6f3d87fc9a23d14bfea2b0cb89e483af555336189f573b9e211f91c84eb02faa91eb6ea267051aa8f9f8de27f44c457379eb31d32ac",
            "type": "pubkey"
          }
        }
      ],
      "hex": "01000000010000000000000000000000000000000000000000000000000000000000000000ffffffff0804ffff001d02d506ffffffff0100f2052a01000000434104f17d82a51ea503214124c6e6f3d87fc9a23d14bfea2b0cb89e483af555336189f573b9e211f91c84eb02faa91eb6ea267051aa8f9f8de27f44c457379eb31d32ac00000000"
    }
  ]
}