{
  "hash": "000000004080abb89db4e7f36b2a2cab5e6fed9b21b14b27eb2acfbc1d48e30a",
  "confirmations": 46376,
  "height": 6722,
  "version": 1,
  "versionHex": "00000001",
  "merkleroot": "8a1d8f8468acce1b79b54aece0ae6148121be255185650d451769b7acc27e4b2",
  "time": 1236498993,
  "mediantime": 1236495084,
  "nonce": 120240842,
  "bits": "1d00ffff",
  "difficulty": 1,
  "chainwork": "00000000000000000000000000000000000000000000000000001a431a431a43",
  "nTx": 1,
  "previousblockhash": "00000000f592aeacdab3a0b3c68dddd07b0c9e9da387d5954ceb5807f028b51c",
  "nextblockhash": "0000000043e220c96c58188dcb70f41786d09913a2946865b26039d64d8645db",
  "strippedsize": 215,
  "size": 215,
  "weight": 860,
  "tx": [
    {
      "txid": "8a1d8f8468acce1b79b54aece0ae6148121be255185650d451769b7acc27e4b2",
      "hash": "8a1d8f8468acce1b79b54aece0ae6148121be255185650d451769b7acc27e4b2",
      "version": 1,
      "size": 134,
      "vsize": 134,
      "weight": 536,
      "locktime": 0,
      "vin": [
        {
          "coinbase": "04ffff001d0107",
          "sequence": 4294967295
        }
      ],
      "vout": [
        {
          "value": 50.0,
          "n": 0,
          "scriptPubKey": {
            "asm": "049c6d3c6a9f93b39cc2cab49036cb4df67c08ffce8a5559ec436dea201105e5422c585a404075b5ec4f767b32e2dd753c7cd64d7cca1d0a7a40e54aee0bbc36e3 OP_CHECKSIG",
            "desc": "pk(049c6d3c6a9f93b39cc2cab49036cb4df67c08ffce8a5559ec436dea201105e5422c585a404075b5ec4f767b32e2dd753c7cd64d7cca1d0a7a40e54aee0bbc36e3)#tu68zup5",
            "hex": "41049c6d3c6a9f93b39cc2cab49036cb4df67c08ffce8a5559ec436dea201105e5422c585a404075b5ec4f767b32e2dd753c7cd64d7cca1d0a7a40e54aee0bbc36e3ac",
            "type": "pubkey"
          }
        }
      ],
      "hex": "01000000010000000000000000000000000000000000000000000000000000000000000000ffffffff0704ffff001d0107ffffffff0100f2052a010000004341049c6d3c6a9f93b39cc2cab49036cb4df67c08ffce8a5559ec436dea201105e5422c585a404075b5ec4f767b32e2dd753c7cd64d7cca1d0a7a40e54aee0bbc36e3ac00000000"
    }
  ]
}