{
  "hash": "000000008dd438bacd6db3b7302d837fd7db7cc357e6859a8f3f19700abc3b5e",
  "confirmations": 43254,
  "height": 9844,
  "version": 1,
  "versionHex": "00000001",
  "merkleroot": "5f33adbb3218394535704a737541b6698f468f073609d642679ab3d77d807a5e",
  "time": 1238887456,
  "mediantime": 1238883232,
  "nonce": 4282246955,
  "bits": "1d00ffff",
  "difficulty": 1,
  "chainwork": "0000000000000000000000000000000000000000000000000000267526752675",
  "nTx": 1,
  "previousblockhash": "000000008662451ad23b11fe82c8454201cc79613d14cc462941c512626a2c46",
  "nextblockhash": "00000000063331e3329b5d6372986310d4b9a85f793c8c34541dc788afba8ef3",
  "strippedsize": 216,
  "size": 216,
  "weight": 864,
  "tx": [
    {
      "txid": "5f33adbb3218394535704a737541b6698f468f073609d642679ab3d77d807a5e",
      "hash": "5f33adbb3218394535704a737541b6698f468f073609d642679ab3d77d807a5e",
      "version": 1,
      "size": 135,
      "vsize": 135,
      "weight": 540,
      "locktime": 0,
      "vin": [
        {
          "coinbase": "04ffff001d021f01",
          "sequence": 4294967295
        }
      ],
      "vout": [
        {
          "value": 50.0,
          "n": 0,
          "scriptPubKey": {
            "asm": "0445e1822b0cc4589f359e9d31c0fefb863cf49832ae61d837bf80c7f5b3e50b62c59cd7f2265b98c4a81c8314d1b398a98860dea77cf3413654cd1d4026412b8f OP_CHECKSIG",
            "desc": "pk(0445e1822b0cc4589f359e9d31c0fefb863cf49832ae61d837bf80c7f5b3e50b62c59cd7f2265b98c4a81c8314d1b398a98860dea77cf3413654cd1d4026412b8f)#520q7tle",
            "hex": "410445e1822b0cc4589f359e9d31c0fefb863cf49832ae61d837bf80c7f5b3e50b62c59cd7f2265b98c4a81c8314d1b398a98860dea77cf3413654cd1d4026412b8fac",
            "type": "pubkey"
          }
        }
      ],
      "hex": "01000000010000000000000000000000000000000000000000000000000000000000000000ffffffff0804ffff001d021f01ffffffff0100f2052a0100000043410445e1822b0cc4589f359e9d31c0fefb863cf49832ae61d837bf80c7f5b3e50b62c59cd7f2265b98c4a81c8314d1b398a98860dea77cf3413654cd1d4026412b8fac00000000"
    }
  ]
}