{
  "hash": "00000000e125dc5a97591697785b3a3cbb9a9c2857d4a0a3a9905461eceb1ddd",
  "confirmations": 51984,
  "height": 356,
  "version": 1,
  "versionHex": "00000001",
  "merkleroot": "7a7bb9e41b524e03081b8114762b3138bd8d0ae7f2469ca68d0d2f5967b894d5",
  "time": 1231870655,
  "mediantime": 1231866358,
  "nonce": 3061064752,
  "bits": "1d00ffff",
  "difficulty": 1,
  "chainwork": "0000000000000000000000000000000000000000000000000000016501650165",
  "nTx": 1,
  "previousblockhash": "000000006b6a210ca5b715e587c0155a2524c3d592266bdbd75cf1186172dab8",
  "nextblockhash": "0000000018271ff4d19879fbe9f94bccf7323965fe1926fb0458ddee8b63c992",
  "strippedsize": 216,
  "size": 216,
  "weight": 864,
  "tx": [
    {
      "txid": "7a7bb9e41b524e03081b8114762b3138bd8d0ae7f2469ca68d0d2f5967b894d5",
      "hash": "7a7bb9e41b524e03081b8114762b3138bd8d0ae7f2469ca68d0d2f5967b894d5",
      "version": 1,
      "size": 135,
      "vsize": 135,
      "weight": 540,
      "locktime": 0,
      "vin": [
        {
          "coinbase": "04ffff001d02a801",
          "sequence": 4294967295
        }
      ],
      "vout": [
        {
          "value": 50.0,
          "n": 0,
          "scriptPubKey": {
            "asm": "04d6d961754e9b251fbce98950bfdcb9d29fd0eb857c74bd601ef1d1ac4185e1ce49d6bce7ba506daba52501a855f05ec15f34d2f17f8d9363a45fa572a36b64f9 OP_CHECKSIG",
            "desc": "pk(04d6d961754e9b251fbce98950bfdcb9d29fd0eb857c74bd601ef1d1ac4185e1ce49d6bce7ba506daba52501a855f05ec15f34d2f17f8d9363a45fa572a36b64f9)#t07np0d5",
            "hex": "4104d6d961754e9b251fbce98950bfdcb9d29fd0eb857c74bd601ef1d1ac4185e1ce49d6bce7ba506daba52501a855f05ec15f34d2f17f8d9363a45fa572a36b64f9ac",
            "type": "pubkey"
          }
        }
      ],
      "hex": "01000000010000000000000000000000000000000000000000000000000000000000000000ffffffff0804ffff001d02a801ffffffff0100f2052a01000000434104d6d961754e9b251fbce98950bfdcb9d29fd0eb857c74bd601ef1d1ac4185e1ce49d6bce7ba506daba52501a855f05ec15f34d2f17f8d9363a45fa572a36b64f9ac00000000"
    }
  ]
}