{
  "hash": "0000000095611515a473f2c6c11b291a07846def79300a2e7dca2c487651beda",
  "confirmations": 46059,
  "height": 7039,
  "version": 1,
  "versionHex": "00000001",
  "merkleroot": "cd7f643549db3f586b9f92f4da81acd70e361b34888191df6a28783129d4dfa0",
  "time": 1236747546,
  "mediantime": 1236743902,
  "nonce": 165629370,
  "bits": "1d00ffff",
  "difficulty": 1,
  "chainwork": "00000000000000000000000000000000000000000000000000001b801b801b80",
  "nTx": 1,
  "previousblockhash": "0000000070cdf861aced1a06b79a4072650000d6cf4c360642ab0a5171784352",
  "nextblockhash": "0000000002d7292bf3f95b1396e5ccf025e6b43c2287db8bbf3b5b2b366974b6",
  "strippedsize": 216,
  "size": 216,
  "weight": 864,
  "tx": [
    {
      "txid": "cd7f643549db3f586b9f92f4da81acd70e361b34888191df6a28783129d4dfa0",
      "hash": "cd7f643549db3f586b9f92f4da81acd70e361b34888191df6a28783129d4dfa0",
      "version": 1,
      "size": 135,
      "vsize": 135,
      "weight": 540,
      "locktime": 0,
      "vin": [
        {
          "coinbase": "04ffff001d021c01",
          "sequence": 4294967295
        }
      ],
      "vout": [
        {
          "value": 50.0,
          "n": 0,
          "scriptPubKey": {
            "asm": "04b879d73dc9fd1250d6b683550a0464b817cb727018152932e05526a30f3c7e6926ad2cce9cc77fa94edae44f9098dc1664a7d69be49457edb833fa4ccfd0937d OP_CHECKSIG",
            "desc": "pk(04b879d73dc9fd1250d6b683550a0464b817cb727018152932e05526a30f3c7e6926ad2cce9cc77fa94edae44f9098dc1664a7d69be49457edb833fa4ccfd0937d)#l09uenjj",
            "hex": "4104b879d73dc9fd1250d6b683550a0464b817cb727018152932e05526a30f3c7e6926ad2cce9cc77fa94edae44f9098dc1664a7d69be49457edb833fa4ccfd0937dac",
            "type": "pubkey"
          }
        }
      ],
      "hex": "01000000010000000000000000000000000000000000000000000000000000000000000000ffffffff0804ffff001d021c01ffffffff0100f2052a01000000434104b879d73dc9fd1250d6b683550a0464b817cb727018152932e05526a30f3c7e6926ad2cce9cc77fa94edae44f9098dc1664a7d69be49457edb833fa4ccfd0937dac00000000"
    }
  ]
}