{
  "hash": "000000007f5e80d3196ea9e3f0c0c0dc9d2b75af2d432df5ffe49956d34723fa",
  "confirmations": 52032,
  "height": 126,
  "version": 1,
  "versionHex": "00000001",
  "merkleroot": "28614aedbf551e1e4c0ba85cfae326a0b17c7fe0812a7e814d8612d9936e19c8",
  "time": 1231679899,
  "mediantime": 1231676281,
  "nonce": 4127185952,
  "bits": "1d00ffff",
  "difficulty": 1,
  "chainwork": "0000000000000000000000000000000000000000000000000000007f007f007f",
  "nTx": 1,
  "previousblockhash": "000000002f4afd677b14f17a19ef5f9584155e7a43b0375c85a5d52b43959916",
  "nextblockhash": "00000000467a752a3365c86f267d340635e66703ad4071c61e9b394ef172665b",
  "strippedsize": 216,
  "size": 216,
  "weight": 864,
  "tx": [
    {
      "txid": "28614aedbf551e1e4c0ba85cfae326a0b17c7fe0812a7e814d8612d9936e19c8",
      "hash": "28614aedbf551e1e4c0ba85cfae326a0b17c7fe0812a7e814d8612d9936e19c8",
      "version": 1,
      "size": 135,
      "vsize": 135,
      "weight": 540,
      "locktime": 0,
      "vin": [
        {
          "coinbase": "04ffff001d02f400",
          "sequence": 4294967295
        }
      ],
      "vout": [
        {
          "value": 50.0,
          "n": 0,
          "scriptPubKey": {
            "asm": "04ddfeb7173ed20ae658efa0618fc2f0297f7e0345566bd936e6199807b3fe0560dd1a27d8f7e4b7b8a944653df5c55bc50ab563b5346ac21deffd1a1701564164 OP_CHECKSIG",
            "desc": "pk(04ddfeb7173ed20ae658efa0618fc2f0297f7e0345566bd936e6199807b3fe0560dd1a27d8f7e4b7b8a944653df5c55bc50ab563b5346ac21deffd1a1701564164)#pr5hzmqx",
            "hex": "4104ddfeb7173ed20ae658efa0618fc2f0297f7e0345566bd936e6199807b3fe0560dd1a27d8f7e4b7b8a944653df5c55bc50ab563b5346ac21deffd1a1701564164ac",
            "type": "pubkey"
          }
        }
      ],
      "hex": "01000000010000000000000000000000000000000000000000000000000000000000000000ffffffff0804ffff001d02f400ffffffff0100f2052a01000000434104ddfeb7173ed20ae658efa0618fc2f0297f7e0345566bd936e6199807b3fe0560dd1a27d8f7e4b7b8a944653df5c55bc50ab563b5346ac21deffd1a1701564164ac00000000"
    }
  ]
}