{
  "hash": "00000000894026d9592927a8801cc0205481186c66c9b5798e0b052c3951940c",
  "confirmations": 47872,
  "height": 5226,
  "version": 1,
  "versionHex": "00000001",
  "merkleroot": "40f355fd801457daf94a9cfb6d1e33dc6450fe98bf5de9408338dd27ca84cd8c",
  "time": 1235306676,
  "mediantime": 1235301940,
  "nonce": 3369724712,
  "bits": "1d00ffff",
  "difficulty": 1,
  "chainwork": "0000000000000000000000000000000000000000000000000000146b146b146b",
  "nTx": 1,
  "previousblockhash": "00000000abe4c28ece0280696df0b1800409d4d5e212c3d5a1f21f3549abf0b9",
  "nextblockhash": "000000003db6a8c848dcadb131d97296db6047219bf845af05a69aa73bc88bdd",
  "strippedsize": 216,
  "size": 216,
  "weight": 864,
  "tx": [
    {
      "txid": "40f355fd801457daf94a9cfb6d1e33dc6450fe98bf5de9408338dd27ca84cd8c",
      "hash": "40f355fd801457daf94a9cfb6d1e33dc6450fe98bf5de9408338dd27ca84cd8c",
      "version": 1,
      "size": 135,
      "vsize": 135,
      "weight": 540,
      "locktime": 0,
      "vin": [
        {
          "coinbase": "04ffff001d02e300",
          "sequence": 4294967295
        }
      ],
      "vout": [
        {
          "value": 50.0,
          "n": 0,
          "scriptPubKey": {
            "asm": "04d980f1ea2d7febfeb6370c744623d7274f687a16cedff44b08ab2b0c80132367250ee049301b262d0ce0f2804cd836dbc1145b6dab93a4fca508431343b57498 OP_CHECKSIG",
            "desc": "pk(04d980f1ea2d7febfeb6370c744623d7274f687a16cedff44b08ab2b0c80132367250ee049301b262d0ce0f2804cd836dbc1145b6dab93a4fca508431343b57498)#sl8g707k",
            "hex": "4104d980f1ea2d7febfeb6370c744623d7274f687a16cedff44b08ab2b0c80132367250ee049301b262d0ce0f2804cd836dbc1145b6dab93a4fca508431343b57498ac",
            "type": "pubkey"
          }
        }
      ],
      "hex": "01000000010000000000000000000000000000000000000000000000000000000000000000ffffffff0804ffff001d02e300ffffffff0100f2052a01000000434104d980f1ea2d7febfeb6370c744623d7274f687a16cedff44b08ab2b0c80132367250ee049301b262d0ce0f2804cd836dbc1145b6dab93a4fca508431343b57498ac00000000"
    }
  ]
}