{
  "hash": "00000000f4dc7e3ccbcd4edfe0eb2d5dd3443d0b1daad84cabc7080d3ae6b8eb",
  "confirmations": 47300,
  "height": 5798,
  "version": 1,
  "versionHex": "00000001",
  "merkleroot": "5376f5020199d6e61ecf4fb5119735f23208a4b4da46407c3f873ced8101a042",
  "time": 1235758145,
  "mediantime": 1235754723,
  "nonce": 122129130,
  "bits": "1d00ffff",
  "difficulty": 1,
  "chainwork": "000000000000000000000000000000000000000000000000000016a716a716a7",
  "nTx": 1,
  "previousblockhash": "0000000017599abe29157e86036b8a99bf38c80efd5b24aada62218b32e66670",
  "nextblockhash": "000000006ae24426eb2cd7384fdc364d01b52ae2d6153bb2ea6b766a398f3fdf",
  "strippedsize": 216,
  "size": 216,
  "weight": 864,
  "tx": [
    {
      "txid": "5376f5020199d6e61ecf4fb5119735f23208a4b4da46407c3f873ced8101a042",
      "hash": "5376f5020199d6e61ecf4fb5119735f23208a4b4da46407c3f873ced8101a042",
      "version": 1,
      "size": 135,
      "vsize": 135,
      "weight": 540,
      "locktime": 0,
      "vin": [
        {
          "coinbase": "04ffff001d029800",
          "sequence": 4294967295
        }
      ],
      "vout": [
        {
          "value": 50.0,
          "n": 0,
          "scriptPubKey": {
            "asm": "04d84155e38bbb21b3deea1b0eba8cfd996b76c7eced3cf6731917df0d0a2ab0f8226f68591a14a700e3987cb0dcaa069960a419e99d7638a5785bfd1613e4d452 OP_CHECKSIG",
            "desc": "pk(04d84155e38bbb21b3deea1b0eba8cfd996b76c7eced3cf6731917df0d0a2ab0f8226f68591a14a700e3987cb0dcaa069960a419e99d7638a5785bfd1613e4d452)#rhr9pknm",
            "hex": "4104d84155e38bbb21b3deea1b0eba8cfd996b76c7eced3cf6731917df0d0a2ab0f8226f68591a14a700e3987cb0dcaa069960a419e99d7638a5785bfd1613e4d452ac",
            "type": "pubkey"
          }
        }
      ],
      "hex": "01000000010000000000000000000000000000000000000000000000000000000000000000ffffffff0804ffff001d029800ffffffff0100f2052a01000000434104d84155e38bbb21b3deea1b0eba8cfd996b76c7eced3cf6731917df0d0a2ab0f8226f68591a14a700e3987cb0dcaa069960a419e99d7638a5785bfd1613e4d452ac00000000"
    }
  ]
}