{
  "hash": "0000000016e6fd964b02557fd74349e2089a0abcd94a042191e7ff2d0eedf7e1",
  "confirmations": 45008,
  "height": 8090,
  "version": 1,
  "versionHex": "00000001",
  "merkleroot": "e05ed406b179d5405ffe9d9fecac7f8d7461a86761cbbcb4ad5d05801529e294",
  "time": 1237522951,
  "mediantime": 1237520548,
  "nonce": 1483823110,
  "bits": "1d00ffff",
  "difficulty": 1,
  "chainwork": "00000000000000000000000000000000000000000000000000001f9b1f9b1f9b",
  "nTx": 1,
  "previousblockhash": "0000000038e498f2037d972cc31a371efc567f3b30367f97843fdbe5d7cc0b7f",
  "nextblockhash": "0000000062505349e96b0ed8b508d01d8f44d27e28a29e25bc9e2cc2f8ced7be",
  "strippedsize": 216,
  "size": 216,
  "weight": 864,
  "tx": [
    {
      "txid": "e05ed406b179d5405ffe9d9fecac7f8d7461a86761cbbcb4ad5d05801529e294",
      "hash": "e05ed406b179d5405ffe9d9fecac7f8d7461a86761cbbcb4ad5d05801529e294",
      "version": 1,
      "size": 135,
      "vsize": 135,
      "weight": 540,
      "locktime": 0,
      "vin": [
        {
          "coinbase": "04ffff001d02ed00",
          "sequence": 4294967295
        }
      ],
      "vout": [
        {
          "value": 50.0,
          "n": 0,
          "scriptPubKey": {
            "asm": "0418c0c750c7fa517d38af4ad5d0bbeaeefce31b57415480bb8eac30ee6b5b2a84c2750191a0ce781650b35168b8e90181d5fd2e4cb1cde30da004fee1d54322b3 OP_CHECKSIG",
            "desc": "pk(0418c0c750c7fa517d38af4ad5d0bbeaeefce31b57415480bb8eac30ee6b5b2a84c2750191a0ce781650b35168b8e90181d5fd2e4cb1cde30da004fee1d54322b3)#9g9pwlsc",
            "hex": "410418c0c750c7fa517d38af4ad5d0bbeaeefce31b57415480bb8eac30ee6b5b2a84c2750191a0ce781650b35168b8e90181d5fd2e4cb1cde30da004fee1d54322b3ac",
            "type": "pubkey"
          }
        }
      ],
      "hex": "01000000010000000000000000000000000000000000000000000000000000000000000000ffffffff0804ffff001d02ed00ffffffff0100f2052a0100000043410418c0c750c7fa517d38af4ad5d0bbeaeefce31b57415480bb8eac30ee6b5b2a84c2750191a0ce781650b35168b8e90181d5fd2e4cb1cde30da004fee1d54322b3ac00000000"
    }
  ]
}