{
  "hash": "00000000af5423167651b8b485f0bea8ced1bdf7fe832821e5fad4cc27c59195",
  "confirmations": 43798,
  "height": 9300,
  "version": 1,
  "versionHex": "00000001",
  "merkleroot": "473221251da816a13a0e3182866e666e4691669fbc144859b51ba9498f607db7",
  "time": 1238474595,
  "mediantime": 1238471500,
  "nonce": 28930699,
  "bits": "1d00ffff",
  "difficulty": 1,
  "chainwork": "0000000000000000000000000000000000000000000000000000245524552455",
  "nTx": 1,
  "previousblockhash": "00000000ebecfce83aaa92cfc4467c2712ab0c63ae3a5b06199673eaa891710e",
  "nextblockhash": "000000000ce946ccf793f66a47c78377d7a75010f71ffb4c63923456f81b13da",
  "strippedsize": 216,
  "size": 216,
  "weight": 864,
  "tx": [
    {
      "txid": "473221251da816a13a0e3182866e666e4691669fbc144859b51ba9498f607db7",
      "hash": "473221251da816a13a0e3182866e666e4691669fbc144859b51ba9498f607db7",
      "version": 1,
      "size": 135,
      "vsize": 135,
      "weight": 540,
      "locktime": 0,
      "vin": [
        {
          "coinbase": "04ffff001d02fc04",
          "sequence": 4294967295
        }
      ],
      "vout": [
        {
          "value": 50.0,
          "n": 0,
          "scriptPubKey": {
            "asm": "040a3a20b4339e4e9e2f9bfe4bddb0d0b99376f664f2750462717c7bd8fcb480b847bb4a92b14e65d6246bdf2c8829fa101cf101a13bb699bd3c833df3050c8ea3 OP_CHECKSIG",
            "desc": "pk(040a3a20b4339e4e9e2f9bfe4bddb0d0b99376f664f2750462717c7bd8fcb480b847bb4a92b14e65d6246bdf2c8829fa101cf101a13bb699bd3c833df3050c8ea3)#ww8efxnm",
            "hex": "41040a3a20b4339e4e9e2f9bfe4bddb0d0b99376f664f2750462717c7bd8fcb480b847bb4a92b14e65d6246bdf2c8829fa101cf101a13bb699bd3c833df3050c8ea3ac",
            "type": "pubkey"
          }
        }
      ],
      "hex": "01000000010000000000000000000000000000000000000000000000000000000000000000ffffffff0804ffff001d02fc04ffffffff0100f2052a010000004341040a3a20b4339e4e9e2f9bfe4bddb0d0b99376f664f2750462717c7bd8fcb480b847bb4a92b14e65d6246bdf2c8829fa101cf101a13bb699bd3c833df3050c8ea3ac00000000"
    }
  ]
}