{
  "hash": "00000000f186a4eb5955699ad0334f4726331c254f0259601d4150d2f19497d2",
  "confirmations": 47378,
  "height": 5720,
  "version": 1,
  "versionHex": "00000001",
  "merkleroot": "fe215d89afd6ceb2a01f0aff5862822243873b5b92a7e5c6e9497d6cf52809a1",
  "time": 1235700997,
  "mediantime": 1235696665,
  "nonce": 161777597,
  "bits": "1d00ffff",
  "difficulty": 1,
  "chainwork": "0000000000000000000000000000000000000000000000000000165916591659",
  "nTx": 1,
  "previousblockhash": "00000000005cdd0f359287d4c5c9e3611c2cc53bc45010c1139bfc1660794ef3",
  "nextblockhash": "0000000041abec76d6f4e55b21213743134b0d920f59234bd2b360b0667d4fb8",
  "strippedsize": 216,
  "size": 216,
  "weight": 864,
  "tx": [
    {
      "txid": "fe215d89afd6ceb2a01f0aff5862822243873b5b92a7e5c6e9497d6cf52809a1",
      "hash": "fe215d89afd6ceb2a01f0aff5862822243873b5b92a7e5c6e9497d6cf52809a1",
      "version": 1,
      "size": 135,
      "vsize": 135,
      "weight": 540,
      "locktime": 0,
      "vin": [
        {
          "coinbase": "04ffff001d02de00",
          "sequence": 4294967295
        }
      ],
      "vout": [
        {
          "value": 50.0,
          "n": 0,
          "scriptPubKey": {
            "asm": "0459aa274d020df577eaf152a18bf0882001d70ea600466e434ca21a7dafba4466d822ede9193ac3bd26b26b17b7e43adbc9d8f7c32bde89107e416fb76c7557fe OP_CHECKSIG",
            "desc": "pk(0459aa274d020df577eaf152a18bf0882001d70ea600466e434ca21a7dafba4466d822ede9193ac3bd26b26b17b7e43adbc9d8f7c32bde89107e416fb76c7557fe)#rvz6zasa",
            "hex": "410459aa274d020df577eaf152a18bf0882001d70ea600466e434ca21a7dafba4466d822ede9193ac3bd26b26b17b7e43adbc9d8f7c32bde89107e416fb76c7557feac",
            "type": "pubkey"
          }
        }
      ],
      "hex": "01000000010000000000000000000000000000000000000000000000000000000000000000ffffffff0804ffff001d02de00ffffffff0100f2052a0100000043410459aa274d020df577eaf152a18bf0882001d70ea600466e434ca21a7dafba4466d822ede9193ac3bd26b26b17b7e43adbc9d8f7c32bde89107e416fb76c7557feac00000000"
    }
  ]
}