{
  "hash": "00000000516e4909d43e0197116b71173c2e5d1097cfa7bcff2754449c690847",
  "confirmations": 43812,
  "height": 9286,
  "version": 1,
  "versionHex": "00000001",
  "merkleroot": "99598e7704315335b0d82137823b4a51a0fef4a29615343ba49767754cb40309",
  "time": 1238463188,
  "mediantime": 1238458758,
  "nonce": 560133670,
  "bits": "1d00ffff",
  "difficulty": 1,
  "chainwork": "0000000000000000000000000000000000000000000000000000244724472447",
  "nTx": 1,
  "previousblockhash": "00000000a77103e5602f83cea9b65a89cde0c19095cbba84e37bfbbac85f9f7b",
  "nextblockhash": "0000000077b4c660a460efea7a851250eebc5040d9b4759c71b7e896f8dc974f",
  "strippedsize": 216,
  "size": 216,
  "weight": 864,
  "tx": [
    {
      "txid": "99598e7704315335b0d82137823b4a51a0fef4a29615343ba49767754cb40309",
      "hash": "99598e7704315335b0d82137823b4a51a0fef4a29615343ba49767754cb40309",
      "version": 1,
      "size": 135,
      "vsize": 135,
      "weight": 540,
      "locktime": 0,
      "vin": [
        {
          "coinbase": "04ffff001d028f01",
          "sequence": 4294967295
        }
      ],
      "vout": [
        {
          "value": 50.0,
          "n": 0,
          "scriptPubKey": {
            "asm": "0487ac78f941aaef5d0d94dcc055c09424810f0e98e27729eea6a61bee8529f3499defc699487e8977662f606686cb9405a9ca8cbb6f59e9a7bcfc5faab5f7cb5d OP_CHECKSIG",
            "desc": "pk(0487ac78f941aaef5d0d94dcc055c09424810f0e98e27729eea6a61bee8529f3499defc699487e8977662f606686cb9405a9ca8cbb6f59e9a7bcfc5faab5f7cb5d)#c00hhp5q",
            "hex": "410487ac78f941aaef5d0d94dcc055c09424810f0e98e27729eea6a61bee8529f3499defc699487e8977662f606686cb9405a9ca8cbb6f59e9a7bcfc5faab5f7cb5dac",
            "type": "pubkey"
          }
        }
      ],
      "hex": "01000000010000000000000000000000000000000000000000000000000000000000000000ffffffff0804ffff001d028f01ffffffff0100f2052a0100000043410487ac78f941aaef5d0d94dcc055c09424810f0e98e27729eea6a61bee8529f3499defc699487e8977662f606686cb9405a9ca8cbb6f59e9a7bcfc5faab5f7cb5dac00000000"
    }
  ]
}