{
  "hash": "000000006b9689a5d2eb6da05a901a2e197738c0509b570151263736f0b29e03",
  "confirmations": 50008,
  "height": 3090,
  "version": 1,
  "versionHex": "00000001",
  "merkleroot": "5343f856661760ece7dd9ecb30a59124c15b2f95d7db46b0a5b403483199133e",
  "time": 1233826959,
  "mediantime": 1233821835,
  "nonce": 446959672,
  "bits": "1d00ffff",
  "difficulty": 1,
  "chainwork": "00000000000000000000000000000000000000000000000000000c130c130c13",
  "nTx": 1,
  "previousblockhash": "00000000f1d6d6a4200dc8f0d2b9d2a70fd5e14e4f4534050b88bb2db800de19",
  "nextblockhash": "000000009aa083e76b59647fe7b1b73d9ee18470741c59d788b33d9ca9e1b815",
  "strippedsize": 216,
  "size": 216,
  "weight": 864,
  "tx": [
    {
      "txid": "5343f856661760ece7dd9ecb30a59124c15b2f95d7db46b0a5b403483199133e",
      "hash": "5343f856661760ece7dd9ecb30a59124c15b2f95d7db46b0a5b403483199133e",
      "version": 1,
      "size": 135,
      "vsize": 135,
      "weight": 540,
      "locktime": 0,
      "vin": [
        {
          "coinbase": "04ffff001d020601",
          "sequence": 4294967295
        }
      ],
      "vout": [
        {
          "value": 50.0,
          "n": 0,
          "scriptPubKey": {
            "asm": "04029eb3ff3da53b0a34b1f310f731290947da1053ac0d011376894191a5e5b4562f0d12c0dd5d28f0a68af792248ebe5c3c29aeeb221c6f77c1e5cf7f1e79d6a6 OP_CHECKSIG",
            "desc": "pk(04029eb3ff3da53b0a34b1f310f731290947da1053ac0d011376894191a5e5b4562f0d12c0dd5d28f0a68af792248ebe5c3c29aeeb221c6f77c1e5cf7f1e79d6a6)#t2kgasv8",
            "hex": "4104029eb3ff3da53b0a34b1f310f731290947da1053ac0d011376894191a5e5b4562f0d12c0dd5d28f0a68af792248ebe5c3c29aeeb221c6f77c1e5cf7f1e79d6a6ac",
            "type": "pubkey"
          }
        }
      ],
      "hex": "01000000010000000000000000000000000000000000000000000000000000000000000000ffffffff0804ffff001d020601ffffffff0100f2052a01000000434104029eb3ff3da53b0a34b1f310f731290947da1053ac0d011376894191a5e5b4562f0d12c0dd5d28f0a68af792248ebe5c3c29aeeb221c6f77c1e5cf7f1e79d6a6ac00000000"
    }
  ]
}