{
  "hash": "000000002f8b3005318ae24ee3908f2967ec7333ddbeb855f1886a104be94d91",
  "confirmations": 50043,
  "height": 3055,
  "version": 1,
  "versionHex": "00000001",
  "merkleroot": "5bae2e2754cb485b2c4fb1dce4b4e4261525d8ead9b56a9c1b81e8b2ef23a836",
  "time": 1233799864,
  "mediantime": 1233796564,
  "nonce": 779258913,
  "bits": "1d00ffff",
  "difficulty": 1,
  "chainwork": "00000000000000000000000000000000000000000000000000000bf00bf00bf0",
  "nTx": 1,
  "previousblockhash": "000000005768713cb899beee95c08ab0e13486216036fedee1df38361d65d230",
  "nextblockhash": "000000003225a6ebe93e25a8365f2b14baf53ae369f34ddbe9d97f8b1130f616",
  "strippedsize": 215,
  "size": 215,
  "weight": 860,
  "tx": [
    {
      "txid": "5bae2e2754cb485b2c4fb1dce4b4e4261525d8ead9b56a9c1b81e8b2ef23a836",
      "hash": "5bae2e2754cb485b2c4fb1dce4b4e4261525d8ead9b56a9c1b81e8b2ef23a836",
      "version": 1,
      "size": 134,
      "vsize": 134,
      "weight": 536,
      "locktime": 0,
      "vin": [
        {
          "coinbase": "04ffff001d0145",
          "sequence": 4294967295
        }
      ],
      "vout": [
        {
          "value": 50.0,
          "n": 0,
          "scriptPubKey": {
            "asm": "0439ecbb9009b7879ea30ce3201a443519ad431c0a553a10b436cf676712a292f29a5ca530d9cf046e024a2943dd26afe8d9b510e482d3ffee84eccd9ac45f3037 OP_CHECKSIG",
            "desc": "pk(0439ecbb9009b7879ea30ce3201a443519ad431c0a553a10b436cf676712a292f29a5ca530d9cf046e024a2943dd26afe8d9b510e482d3ffee84eccd9ac45f3037)#gda75594",
            "hex": "410439ecbb9009b7879ea30ce3201a443519ad431c0a553a10b436cf676712a292f29a5ca530d9cf046e024a2943dd26afe8d9b510e482d3ffee84eccd9ac45f3037ac",
            "type": "pubkey"
          }
        }
      ],
      "hex": "01000000010000000000000000000000000000000000000000000000000000000000000000ffffffff0704ffff001d0145ffffffff0100f2052a0100000043410439ecbb9009b7879ea30ce3201a443519ad431c0a553a10b436cf676712a292f29a5ca530d9cf046e024a2943dd26afe8d9b510e482d3ffee84eccd9ac45f3037ac00000000"
    }
  ]
}