{
  "hash": "000000008ec9525cb2092c6bd7d1c2580e595bcfa54bac51cf6f0278b242f25d",
  "confirmations": 51919,
  "height": 73,
  "version": 1,
  "versionHex": "00000001",
  "merkleroot": "41b48c64cba68c21e0b7b37f589408823f112bb7cbccef4aece29df25347ffb4",
  "time": 1231630288,
  "mediantime": 1231626618,
  "nonce": 3579880249,
  "bits": "1d00ffff",
  "difficulty": 1,
  "chainwork": "0000000000000000000000000000000000000000000000000000004a004a004a",
  "nTx": 1,
  "previousblockhash": "0000000082c0abb2875dc690a243dce6cbc856647b6422abbe82f97a3a7b127a",
  "nextblockhash": "00000000ec989ed4909499b92e9d3eb900d75dd1fab455315916e3d45924d456",
  "strippedsize": 215,
  "size": 215,
  "weight": 860,
  "tx": [
    {
      "txid": "41b48c64cba68c21e0b7b37f589408823f112bb7cbccef4aece29df25347ffb4",
      "hash": "41b48c64cba68c21e0b7b37f589408823f112bb7cbccef4aece29df25347ffb4",
      "version": 1,
      "size": 134,
      "vsize": 134,
      "weight": 536,
      "locktime": 0,
      "vin": [
        {
          "coinbase": "04ffff001d0101",
          "sequence": 4294967295
        }
      ],
      "vout": [
        {
          "value": 50.0,
          "n": 0,
          "scriptPubKey": {
            "asm": "041ff327e119b244f3c6140c13f94fdde6432fa02aebaac4a263859615080d0096a43d447affc1572e3391d762de5aa8aa650cda877b3bf42ecd157cfe49ad838a OP_CHECKSIG",
            "desc": "pk(041ff327e119b244f3c6140c13f94fdde6432fa02aebaac4a263859615080d0096a43d447affc1572e3391d762de5aa8aa650cda877b3bf42ecd157cfe49ad838a)#6q954nma",
            "hex": "41041ff327e119b244f3c6140c13f94fdde6432fa02aebaac4a263859615080d0096a43d447affc1572e3391d762de5aa8aa650cda877b3bf42ecd157cfe49ad838aac",
            "type": "pubkey"
          }
        }
      ],
      "hex": "01000000010000000000000000000000000000000000000000000000000000000000000000ffffffff0704ffff001d0101ffffffff0100f2052a010000004341041ff327e119b244f3c6140c13f94fdde6432fa02aebaac4a263859615080d0096a43d447affc1572e3391d762de5aa8aa650cda877b3bf42ecd157cfe49ad838aac00000000"
    }
  ]
}