{
  "hash": "00000000f57b8d9a6585b22868e8729515a4ce7c466a4b8713317a90fefdcd59",
  "confirmations": 52191,
  "height": 430,
  "version": 1,
  "versionHex": "00000001",
  "merkleroot": "9bd57fd34e6fb575b09572d9801a2239d95d2608010ece2c8a2abf661a72fde4",
  "time": 1231922852,
  "mediantime": 1231918065,
  "nonce": 1793756711,
  "bits": "1d00ffff",
  "difficulty": 1,
  "chainwork": "000000000000000000000000000000000000000000000000000001af01af01af",
  "nTx": 1,
  "previousblockhash": "000000008e5da1aa58d17da1bbc95e9b032714e7ea7831e82f2830bf97dc38e7",
  "nextblockhash": "000000001e9722b33a88ee9a0d17b921361aa499cfa545c60ba629ee82bba42a",
  "strippedsize": 216,
  "size": 216,
  "weight": 864,
  "tx": [
    {
      "txid": "9bd57fd34e6fb575b09572d9801a2239d95d2608010ece2c8a2abf661a72fde4",
      "hash": "9bd57fd34e6fb575b09572d9801a2239d95d2608010ece2c8a2abf661a72fde4",
      "version": 1,
      "size": 135,
      "vsize": 135,
      "weight": 540,
      "locktime": 0,
      "vin": [
        {
          "coinbase": "04ffff001d023603",
          "sequence": 4294967295
        }
      ],
      "vout": [
        {
          "value": 50.0,
          "n": 0,
          "scriptPubKey": {
            "asm": "0441e28a4c6c3e61991086b8475cb6a1bc2ed5cf1ad9f2370ef88f236ae1886bc9e8dcd8f87c3c171c8a9aedaa48020be4a3580146479ad854fbb8b8e4c2bef7e1 OP_CHECKSIG",
            "desc": "pk(0441e28a4c6c3e61991086b8475cb6a1bc2ed5cf1ad9f2370ef88f236ae1886bc9e8dcd8f87c3c171c8a9aedaa48020be4a3580146479ad854fbb8b8e4c2bef7e1)#u3e6h32a",
            "hex": "410441e28a4c6c3e61991086b8475cb6a1bc2ed5cf1ad9f2370ef88f236ae1886bc9e8dcd8f87c3c171c8a9aedaa48020be4a3580146479ad854fbb8b8e4c2bef7e1ac",
            "type": "pubkey"
          }
        }
      ],
      "hex": "01000000010000000000000000000000000000000000000000000000000000000000000000ffffffff0804ffff001d023603ffffffff0100f2052a0100000043410441e28a4c6c3e61991086b8475cb6a1bc2ed5cf1ad9f2370ef88f236ae1886bc9e8dcd8f87c3c171c8a9aedaa48020be4a3580146479ad854fbb8b8e4c2bef7e1ac00000000"
    }
  ]
}