{
  "hash": "000000009c230fa37b01db4ddd33cff8d4c27be5848e24be88b4bb89341ba164",
  "confirmations": 48189,
  "height": 4909,
  "version": 1,
  "versionHex": "00000001",
  "merkleroot": "2bc625348da7dc44a73f55f6b484c713bde9b215dd6b7773c3f75a75a9e10d73",
  "time": 1235076794,
  "mediantime": 1235073313,
  "nonce": 119260138,
  "bits": "1d00ffff",
  "difficulty": 1,
  "chainwork": "0000000000000000000000000000000000000000000000000000132e132e132e",
  "nTx": 1,
  "previousblockhash": "00000000c8eebeaee6336fcc3bcaddbc2549dace57af75b9d80a452291f79bca",
  "nextblockhash": "00000000166b50796c0b5ab088976e3dc8c5ac45403c287f97a8fb77d4bd125d",
  "strippedsize": 215,
  "size": 215,
  "weight": 860,
  "tx": [
    {
      "txid": "2bc625348da7dc44a73f55f6b484c713bde9b215dd6b7773c3f75a75a9e10d73",
      "hash": "2bc625348da7dc44a73f55f6b484c713bde9b215dd6b7773c3f75a75a9e10d73",
      "version": 1,
      "size": 134,
      "vsize": 134,
      "weight": 536,
      "locktime": 0,
      "vin": [
        {
          "coinbase": "04ffff001d0151",
          "sequence": 4294967295
        }
      ],
      "vout": [
        {
          "value": 50.0,
          "n": 0,
          "scriptPubKey": {
            "asm": "04ff0c1851a21317cd6759753acf2eed8e6a8decbb54c53845577201b59669c2760cf926fe112c802c25f24effa8ccde51189abd61d28b9b888591964a1158aea3 OP_CHECKSIG",
            "desc": "pk(04ff0c1851a21317cd6759753acf2eed8e6a8decbb54c53845577201b59669c2760cf926fe112c802c25f24effa8ccde51189abd61d28b9b888591964a1158aea3)#q7dyum4g",
            "hex": "4104ff0c1851a21317cd6759753acf2eed8e6a8decbb54c53845577201b59669c2760cf926fe112c802c25f24effa8ccde51189abd61d28b9b888591964a1158aea3ac",
            "type": "pubkey"
          }
        }
      ],
      "hex": "01000000010000000000000000000000000000000000000000000000000000000000000000ffffffff0704ffff001d0151ffffffff0100f2052a01000000434104ff0c1851a21317cd6759753acf2eed8e6a8decbb54c53845577201b59669c2760cf926fe112c802c25f24effa8ccde51189abd61d28b9b888591964a1158aea3ac00000000"
    }
  ]
}