{
  "hash": "0000000029b9a0a930d3e3e15926ab346b188220d67a07bf45b9419c5da77893",
  "confirmations": 45942,
  "height": 7156,
  "version": 1,
  "versionHex": "00000001",
  "merkleroot": "0b3d77cbb7a1f9295f57706b3865253ca9260829ef381907f24a9dd8384f907a",
  "time": 1236838922,
  "mediantime": 1236837019,
  "nonce": 3422838809,
  "bits": "1d00ffff",
  "difficulty": 1,
  "chainwork": "00000000000000000000000000000000000000000000000000001bf51bf51bf5",
  "nTx": 1,
  "previousblockhash": "000000004349a949fb70c61c113f3f04ffdefc652bdf61ac2fc968658404a47d",
  "nextblockhash": "00000000f6517645fd844cf538a58c126679d2cdf5ca089ae5123153c87722c3",
  "strippedsize": 216,
  "size": 216,
  "weight": 864,
  "tx": [
    {
      "txid": "0b3d77cbb7a1f9295f57706b3865253ca9260829ef381907f24a9dd8384f907a",
      "hash": "0b3d77cbb7a1f9295f57706b3865253ca9260829ef381907f24a9dd8384f907a",
      "version": 1,
      "size": 135,
      "vsize": 135,
      "weight": 540,
      "locktime": 0,
      "vin": [
        {
          "coinbase": "04ffff001d02f804",
          "sequence": 4294967295
        }
      ],
      "vout": [
        {
          "value": 50.0,
          "n": 0,
          "scriptPubKey": {
            "asm": "044ef8136e3100a601828ff696dc6ee20b31ee229b83a9869909248d6bcd80df5739d6e780c4edfafac67a2ebd6d28c0e86bd8be3c2e9cb11aa6122c5ed6c6c6c3 OP_CHECKSIG",
            "desc": "pk(044ef8136e3100a601828ff696dc6ee20b31ee229b83a9869909248d6bcd80df5739d6e780c4edfafac67a2ebd6d28c0e86bd8be3c2e9cb11aa6122c5ed6c6c6c3)#ushjkkh2",
            "hex": "41044ef8136e3100a601828ff696dc6ee20b31ee229b83a9869909248d6bcd80df5739d6e780c4edfafac67a2ebd6d28c0e86bd8be3c2e9cb11aa6122c5ed6c6c6c3ac",
            "type": "pubkey"
          }
        }
      ],
      "hex": "01000000010000000000000000000000000000000000000000000000000000000000000000ffffffff0804ffff001d02f804ffffffff0100f2052a010000004341044ef8136e3100a601828ff696dc6ee20b31ee229b83a9869909248d6bcd80df5739d6e780c4edfafac67a2ebd6d28c0e86bd8be3c2e9cb11aa6122c5ed6c6c6c3ac00000000"
    }
  ]
}