{
  "hash": "0000000065f9ca25c3ea505c3913a71ccf0cfe9476c6ed643ad63dd22c074fd2",
  "confirmations": 52160,
  "height": 938,
  "version": 1,
  "versionHex": "00000001",
  "merkleroot": "d7d8ae1d9c2774bd77c823e0d52ff9252b84025f9f4f7e63ebc752b813fb5421",
  "time": 1232306174,
  "mediantime": 1232302140,
  "nonce": 821734405,
  "bits": "1d00ffff",
  "difficulty": 1,
  "chainwork": "000000000000000000000000000000000000000000000000000003ab03ab03ab",
  "nTx": 1,
  "previousblockhash": "00000000581de2600b068e5bd207e7471fa4e9cacb51341a1217be0a8d229905",
  "nextblockhash": "00000000163e0be930c1049da5864c0e6b38a68df9938539e32fd57b2e14ba12",
  "strippedsize": 216,
  "size": 216,
  "weight": 864,
  "tx": [
    {
      "txid": "d7d8ae1d9c2774bd77c823e0d52ff9252b84025f9f4f7e63ebc752b813fb5421",
      "hash": "d7d8ae1d9c2774bd77c823e0d52ff9252b84025f9f4f7e63ebc752b813fb5421",
      "version": 1,
      "size": 135,
      "vsize": 135,
      "weight": 540,
      "locktime": 0,
      "vin": [
        {
          "coinbase": "04ffff001d023104",
          "sequence": 4294967295
        }
      ],
      "vout": [
        {
          "value": 50.0,
          "n": 0,
          "scriptPubKey": {
            "asm": "04f1c82e299269f51ad39c48f99a2f4ff97a4d699ee6969e4c1879bf4d66fc247ca29e096b67de9e2d6e26db9f61144baca61e965b6fb3ce041518dc2aaf60e239 OP_CHECKSIG",
            "desc": "pk(04f1c82e299269f51ad39c48f99a2f4ff97a4d699ee6969e4c1879bf4d66fc247ca29e096b67de9e2d6e26db9f61144baca61e965b6fb3ce041518dc2aaf60e239)#7aj89sms",
            "hex": "4104f1c82e299269f51ad39c48f99a2f4ff97a4d699ee6969e4c1879bf4d66fc247ca29e096b67de9e2d6e26db9f61144baca61e965b6fb3ce041518dc2aaf60e239ac",
            "type": "pubkey"
          }
        }
      ],
      "hex": "01000000010000000000000000000000000000000000000000000000000000000000000000ffffffff0804ffff001d023104ffffffff0100f2052a01000000434104f1c82e299269f51ad39c48f99a2f4ff97a4d699ee6969e4c1879bf4d66fc247ca29e096b67de9e2d6e26db9f61144baca61e965b6fb3ce041518dc2aaf60e239ac00000000"
    }
  ]
}