{
  "hash": "000000002d65894ac42111196a3cc544594144192ee3bef5faf291fcdb05f0fe",
  "confirmations": 49503,
  "height": 3595,
  "version": 1,
  "versionHex": "00000001",
  "merkleroot": "00f910784aacbd5e5555896591e997e23034129d9a87f66ebd5c5ef0e8b53db6",
  "time": 1234169895,
  "mediantime": 1234165781,
  "nonce": 3156459562,
  "bits": "1d00ffff",
  "difficulty": 1,
  "chainwork": "00000000000000000000000000000000000000000000000000000e0c0e0c0e0c",
  "nTx": 1,
  "previousblockhash": "0000000079b87a8133a42c754a248faceca856cd9e9195f3891a1df367574da8",
  "nextblockhash": "00000000bc10a25818aeab20a63d0250da3e30b6a6bac9606c0061d3cfcc8bc8",
  "strippedsize": 216,
  "size": 216,
  "weight": 864,
  "tx": [
    {
      "txid": "00f910784aacbd5e5555896591e997e23034129d9a87f66ebd5c5ef0e8b53db6",
      "hash": "00f910784aacbd5e5555896591e997e23034129d9a87f66ebd5c5ef0e8b53db6",
      "version": 1,
      "size": 135,
      "vsize": 135,
      "weight": 540,
      "locktime": 0,
      "vin": [
        {
          "coinbase": "04ffff001d029408",
          "sequence": 4294967295
        }
      ],
      "vout": [
        {
          "value": 50.0,
          "n": 0,
          "scriptPubKey": {
            "asm": "04eb81131f3e6b209663356f6c8297551140fdf02c99f2a8db16771c7dbcc7792cbd0ac9bdd21cdc850cc7d94c3b3a9c95bfdbb50c124f7dce3043f92b98b84585 OP_CHECKSIG",
            "desc": "pk(04eb81131f3e6b209663356f6c8297551140fdf02c99f2a8db16771c7dbcc7792cbd0ac9bdd21cdc850cc7d94c3b3a9c95bfdbb50c124f7dce3043f92b98b84585)#4jnrmasd",
            "hex": "4104eb81131f3e6b209663356f6c8297551140fdf02c99f2a8db16771c7dbcc7792cbd0ac9bdd21cdc850cc7d94c3b3a9c95bfdbb50c124f7dce3043f92b98b84585ac",
            "type": "pubkey"
          }
        }
      ],
      "hex": "01000000010000000000000000000000000000000000000000000000000000000000000000ffffffff0804ffff001d029408ffffffff0100f2052a01000000434104eb81131f3e6b209663356f6c8297551140fdf02c99f2a8db16771c7dbcc7792cbd0ac9bdd21cdc850cc7d94c3b3a9c95bfdbb50c124f7dce3043f92b98b84585ac00000000"
    }
  ]
}