{
  "hash": "00000000733c164446584d635b7b387c92187fbf5655dfd4fb5e33f7dc1b21ad",
  "confirmations": 45634,
  "height": 7464,
  "version": 1,
  "versionHex": "00000001",
  "merkleroot": "3440849ecfb39b0654b19a6701398af2aa8c106f51fb4f2a6602b401491af98c",
  "time": 1237072834,
  "mediantime": 1237069334,
  "nonce": 199091563,
  "bits": "1d00ffff",
  "difficulty": 1,
  "chainwork": "00000000000000000000000000000000000000000000000000001d291d291d29",
  "nTx": 1,
  "previousblockhash": "000000001de9b5f2060bcc24a2e6b9819b9434c784e03362037c4f0ef77d02be",
  "nextblockhash": "00000000a77f496fc7522e7a815866ea83b3986bbfcc95f9a9eed746b3637756",
  "strippedsize": 216,
  "size": 216,
  "weight": 864,
  "tx": [
    {
      "txid": "3440849ecfb39b0654b19a6701398af2aa8c106f51fb4f2a6602b401491af98c",
      "hash": "3440849ecfb39b0654b19a6701398af2aa8c106f51fb4f2a6602b401491af98c",
      "version": 1,
      "size": 135,
      "vsize": 135,
      "weight": 540,
      "locktime": 0,
      "vin": [
        {
          "coinbase": "04ffff001d029f01",
          "sequence": 4294967295
        }
      ],
      "vout": [
        {
          "value": 50.0,
          "n": 0,
          "scriptPubKey": {
            "asm": "0493031b6e8c6267a6399dc8c700d19f3a1ec23e0c480a86cab2937c98ef02317ff63a01018d9bf7d3db21ad7b8b954a4ff9181349cc949adeac66b65e131a62d3 OP_CHECKSIG",
            "desc": "pk(0493031b6e8c6267a6399dc8c700d19f3a1ec23e0c480a86cab2937c98ef02317ff63a01018d9bf7d3db21ad7b8b954a4ff9181349cc949adeac66b65e131a62d3)#lmsaf6lu",
            "hex": "410493031b6e8c6267a6399dc8c700d19f3a1ec23e0c480a86cab2937c98ef02317ff63a01018d9bf7d3db21ad7b8b954a4ff9181349cc949adeac66b65e131a62d3ac",
            "type": "pubkey"
          }
        }
      ],
      "hex": "01000000010000000000000000000000000000000000000000000000000000000000000000ffffffff0804ffff001d029f01ffffffff0100f2052a0100000043410493031b6e8c6267a6399dc8c700d19f3a1ec23e0c480a86cab2937c98ef02317ff63a01018d9bf7d3db21ad7b8b954a4ff9181349cc949adeac66b65e131a62d3ac00000000"
    }
  ]
}