{
  "hash": "0000000017508e1aa2ab0c166c3d5e01cd2d62703cf0a7f7cb9227d9bfdcdbb0",
  "confirmations": 44999,
  "height": 8099,
  "version": 1,
  "versionHex": "00000001",
  "merkleroot": "e970337c697885e6c1f357d227ac3f52346f73188ae0da8bce8ab4fecc3fb40e",
  "time": 1237530425,
  "mediantime": 1237527524,
  "nonce": 2256400675,
  "bits": "1d00ffff",
  "difficulty": 1,
  "chainwork": "00000000000000000000000000000000000000000000000000001fa41fa41fa4",
  "nTx": 1,
  "previousblockhash": "000000000e52d915298c04908a11d24cc9cd1a3cc3321ce269777cfc9cd5f21f",
  "nextblockhash": "000000001979ca78bede4c240bc903db3c4893be5db8b6fcc09c9077cc820082",
  "strippedsize": 216,
  "size": 216,
  "weight": 864,
  "tx": [
    {
      "txid": "e970337c697885e6c1f357d227ac3f52346f73188ae0da8bce8ab4fecc3fb40e",
      "hash": "e970337c697885e6c1f357d227ac3f52346f73188ae0da8bce8ab4fecc3fb40e",
      "version": 1,
      "size": 135,
      "vsize": 135,
      "weight": 540,
      "locktime": 0,
      "vin": [
        {
          "coinbase": "04ffff001d021a01",
          "sequence": 4294967295
        }
      ],
      "vout": [
        {
          "value": 50.0,
          "n": 0,
          "scriptPubKey": {
            "asm": "040ccaa8081910675dbff1384117f1bf0aed695beb2ea22ae72730c11be8eb0970847e59467b1cbff339e3c2c068ef064e8bf0ae195fca240a9aa5222509150656 OP_CHECKSIG",
            "desc": "pk(040ccaa8081910675dbff1384117f1bf0aed695beb2ea22ae72730c11be8eb0970847e59467b1cbff339e3c2c068ef064e8bf0ae195fca240a9aa5222509150656)#nv2ut7un",
            "hex": "41040ccaa8081910675dbff1384117f1bf0aed695beb2ea22ae72730c11be8eb0970847e59467b1cbff339e3c2c068ef064e8bf0ae195fca240a9aa5222509150656ac",
            "type": "pubkey"
          }
        }
      ],
      "hex": "01000000010000000000000000000000000000000000000000000000000000000000000000ffffffff0804ffff001d021a01ffffffff0100f2052a010000004341040ccaa8081910675dbff1384117f1bf0aed695beb2ea22ae72730c11be8eb0970847e59467b1cbff339e3c2c068ef064e8bf0ae195fca240a9aa5222509150656ac00000000"
    }
  ]
}