{
  "hash": "000000001eed32ce8c925d0ce77ce5940c08378f997c67090338e23f956b2668",
  "confirmations": 52386,
  "height": 712,
  "version": 1,
  "versionHex": "00000001",
  "merkleroot": "3d46433b9c7cbb0345b88dc032273a8d41c9cfc4290712bdbf39a1374be55236",
  "time": 1232119286,
  "mediantime": 1232113906,
  "nonce": 2705968674,
  "bits": "1d00ffff",
  "difficulty": 1,
  "chainwork": "000000000000000000000000000000000000000000000000000002c902c902c9",
  "nTx": 1,
  "previousblockhash": "0000000002d22a938ca04106547b35996f909f1b8216389f2a97f0ef56b4b838",
  "nextblockhash": "000000001b210aa3f5277e13754df8de4ba97804bab0f0fe370c34f18559bc50",
  "strippedsize": 215,
  "size": 215,
  "weight": 860,
  "tx": [
    {
      "txid": "3d46433b9c7cbb0345b88dc032273a8d41c9cfc4290712bdbf39a1374be55236",
      "hash": "3d46433b9c7cbb0345b88dc032273a8d41c9cfc4290712bdbf39a1374be55236",
      "version": 1,
      "size": 134,
      "vsize": 134,
      "weight": 536,
      "locktime": 0,
      "vin": [
        {
          "coinbase": "04ffff001d0105",
          "sequence": 4294967295
        }
      ],
      "vout": [
        {
          "value": 50.0,
          "n": 0,
          "scriptPubKey": {
            "asm": "049be25f72c268abfd121ab11addaa42cf328c35dc3996d5fc80f5356be7bdcb050b3fec399aa8c3877d7e5a3f9b163b758f16aa4cc00fbb1e01893fb567502a6c OP_CHECKSIG",
            "desc": "pk(049be25f72c268abfd121ab11addaa42cf328c35dc3996d5fc80f5356be7bdcb050b3fec399aa8c3877d7e5a3f9b163b758f16aa4cc00fbb1e01893fb567502a6c)#39huyvj6",
            "hex": "41049be25f72c268abfd121ab11addaa42cf328c35dc3996d5fc80f5356be7bdcb050b3fec399aa8c3877d7e5a3f9b163b758f16aa4cc00fbb1e01893fb567502a6cac",
            "type": "pubkey"
          }
        }
      ],
      "hex": "01000000010000000000000000000000000000000000000000000000000000000000000000ffffffff0704ffff001d0105ffffffff0100f2052a010000004341049be25f72c268abfd121ab11addaa42cf328c35dc3996d5fc80f5356be7bdcb050b3fec399aa8c3877d7e5a3f9b163b758f16aa4cc00fbb1e01893fb567502a6cac00000000"
    }
  ]
}