{
  "hash": "0000000074c231be4740a4e86bdac239d601e5377048420bc4eed5166d125c6a",
  "confirmations": 50715,
  "height": 2383,
  "version": 1,
  "versionHex": "00000001",
  "merkleroot": "9bbc8631dec9925cdb357c4bacd3a88c3dec61fae053b207cd87d8055944b7c3",
  "time": 1233340696,
  "mediantime": 1233337616,
  "nonce": 1357480214,
  "bits": "1d00ffff",
  "difficulty": 1,
  "chainwork": "0000000000000000000000000000000000000000000000000000095009500950",
  "nTx": 1,
  "previousblockhash": "000000008b0995d4021e3e6f26de45cea8a3d7a33566656baa93e034239895bc",
  "nextblockhash": "00000000d4b8102b902613c2494ff2c454d020f2cbfdbc0e5f306a0b7b77e9fe",
  "strippedsize": 216,
  "size": 216,
  "weight": 864,
  "tx": [
    {
      "txid": "9bbc8631dec9925cdb357c4bacd3a88c3dec61fae053b207cd87d8055944b7c3",
      "hash": "9bbc8631dec9925cdb357c4bacd3a88c3dec61fae053b207cd87d8055944b7c3",
      "version": 1,
      "size": 135,
      "vsize": 135,
      "weight": 540,
      "locktime": 0,
      "vin": [
        {
          "coinbase": "04ffff001d024f03",
          "sequence": 4294967295
        }
      ],
      "vout": [
        {
          "value": 50.0,
          "n": 0,
          "scriptPubKey": {
            "asm": "04b1aac4d864cad13f9d168e2fed8a8f1db59d33f5e4041f32882aa75d5b083e80bba9e05ba25a61f68053fe7e0889e822c56519c9f0653c4f9534ca91f4f56ad6 OP_CHECKSIG",
            "desc": "pk(04b1aac4d864cad13f9d168e2fed8a8f1db59d33f5e4041f32882aa75d5b083e80bba9e05ba25a61f68053fe7e0889e822c56519c9f0653c4f9534ca91f4f56ad6)#gy5lfddh",
            "hex": "4104b1aac4d864cad13f9d168e2fed8a8f1db59d33f5e4041f32882aa75d5b083e80bba9e05ba25a61f68053fe7e0889e822c56519c9f0653c4f9534ca91f4f56ad6ac",
            "type": "pubkey"
          }
        }
      ],
      "hex": "01000000010000000000000000000000000000000000000000000000000000000000000000ffffffff0804ffff001d024f03ffffffff0100f2052a01000000434104b1aac4d864cad13f9d168e2fed8a8f1db59d33f5e4041f32882aa75d5b083e80bba9e05ba25a61f68053fe7e0889e822c56519c9f0653c4f9534ca91f4f56ad6ac00000000"
    }
  ]
}