{
  "hash": "000000001f7d36376d55585e6f69f1f7b4403cf94f30f7d5d523605420a30032",
  "confirmations": 49836,
  "height": 3262,
  "version": 1,
  "versionHex": "00000001",
  "merkleroot": "069ba699736e79c496c138bfa5913684b48d7ddff4b278279bf019db2ada96fb",
  "time": 1233943588,
  "mediantime": 1233940010,
  "nonce": 1560343070,
  "bits": "1d00ffff",
  "difficulty": 1,
  "chainwork": "00000000000000000000000000000000000000000000000000000cbf0cbf0cbf",
  "nTx": 1,
  "previousblockhash": "00000000941b0df270986c8df97730b912e6dd19e2aa47b8ac6e994479afdd04",
  "nextblockhash": "00000000741591462cc354e1d44ae3cd997c2d49e23227722b1ac5c663400328",
  "strippedsize": 216,
  "size": 216,
  "weight": 864,
  "tx": [
    {
      "txid": "069ba699736e79c496c138bfa5913684b48d7ddff4b278279bf019db2ada96fb",
      "hash": "069ba699736e79c496c138bfa5913684b48d7ddff4b278279bf019db2ada96fb",
      "version": 1,
      "size": 135,
      "vsize": 135,
      "weight": 540,
      "locktime": 0,
      "vin": [
        {
          "coinbase": "04ffff001d02a703",
          "sequence": 4294967295
        }
      ],
      "vout": [
        {
          "value": 50.0,
          "n": 0,
          "scriptPubKey": {
            "asm": "04bed826bb1722f2692b7613d94dfc722489d4c03f06659691cfa53c30147b4e23e577cd0fa73b33952970c91964fb2caaad7b3c0b99b76543e6067c7a811b360e OP_CHECKSIG",
            "desc": "pk(04bed826bb1722f2692b7613d94dfc722489d4c03f06659691cfa53c30147b4e23e577cd0fa73b33952970c91964fb2caaad7b3c0b99b76543e6067c7a811b360e)#e4lufh3d",
            "hex": "4104bed826bb1722f2692b7613d94dfc722489d4c03f06659691cfa53c30147b4e23e577cd0fa73b33952970c91964fb2caaad7b3c0b99b76543e6067c7a811b360eac",
            "type": "pubkey"
          }
        }
      ],
      "hex": "01000000010000000000000000000000000000000000000000000000000000000000000000ffffffff0804ffff001d02a703ffffffff0100f2052a01000000434104bed826bb1722f2692b7613d94dfc722489d4c03f06659691cfa53c30147b4e23e577cd0fa73b33952970c91964fb2caaad7b3c0b99b76543e6067c7a811b360eac00000000"
    }
  ]
}