{
  "hash": "00000000844e0936a9990791b04e701d6ea7b7ad47b256545b760f848302aa99",
  "confirmations": 50751,
  "height": 2347,
  "version": 1,
  "versionHex": "00000001",
  "merkleroot": "a2e56cc8d9fc2d88b8ac4b9f6c5b5e36f0bd45b0d3e47e37cc66537489325ccd",
  "time": 1233315226,
  "mediantime": 1233310882,
  "nonce": 2526735659,
  "bits": "1d00ffff",
  "difficulty": 1,
  "chainwork": "0000000000000000000000000000000000000000000000000000092c092c092c",
  "nTx": 1,
  "previousblockhash": "00000000aded7e44ad131a9fcf28deb1299348327766d4d7a63ecb4b2d2df202",
  "nextblockhash": "0000000006ef66fce69f45de495904c485b083b654b445eab66d5b4293b78258",
  "strippedsize": 216,
  "size": 216,
  "weight": 864,
  "tx": [
    {
      "txid": "a2e56cc8d9fc2d88b8ac4b9f6c5b5e36f0bd45b0d3e47e37cc66537489325ccd",
      "hash": "a2e56cc8d9fc2d88b8ac4b9f6c5b5e36f0bd45b0d3e47e37cc66537489325ccd",
      "version": 1,
      "size": 135,
      "vsize": 135,
      "weight": 540,
      "locktime": 0,
      "vin": [
        {
          "coinbase": "04ffff001d02a002",
          "sequence": 4294967295
        }
      ],
      "vout": [
        {
          "value": 50.0,
          "n": 0,
          "scriptPubKey": {
            "asm": "04a690bfac4ecef3d5406857c7e82751d1ea1b9177149fe3010f111e079a28dde51f0fe05fe36f70761bdbd777b83b6bd7606d4c7ce6999176e274df7b485ed3be OP_CHECKSIG",
            "desc": "pk(04a690bfac4ecef3d5406857c7e82751d1ea1b9177149fe3010f111e079a28dde51f0fe05fe36f70761bdbd777b83b6bd7606d4c7ce6999176e274df7b485ed3be)#e895q4tf",
            "hex": "4104a690bfac4ecef3d5406857c7e82751d1ea1b9177149fe3010f111e079a28dde51f0fe05fe36f70761bdbd777b83b6bd7606d4c7ce6999176e274df7b485ed3beac",
            "type": "pubkey"
          }
        }
      ],
      "hex": "01000000010000000000000000000000000000000000000000000000000000000000000000ffffffff0804ffff001d02a002ffffffff0100f2052a01000000434104a690bfac4ecef3d5406857c7e82751d1ea1b9177149fe3010f111e079a28dde51f0fe05fe36f70761bdbd777b83b6bd7606d4c7ce6999176e274df7b485ed3beac00000000"
    }
  ]
}