{
  "hash": "000000008323f6cc569bded72ba278e64fc9507bee84064fbf66baf478c3d462",
  "confirmations": 48992,
  "height": 4106,
  "version": 1,
  "versionHex": "00000001",
  "merkleroot": "54b448887f34c928b35d0672695c3b48c99b2aed459f90ed5dc29378d35984d0",
  "time": 1234517975,
  "mediantime": 1234514779,
  "nonce": 3261855254,
  "bits": "1d00ffff",
  "difficulty": 1,
  "chainwork": "0000000000000000000000000000000000000000000000000000100b100b100b",
  "nTx": 1,
  "previousblockhash": "00000000fae62fa4d847c64d8fc50443a65e86c97a9d0dd349239d83e0870eca",
  "nextblockhash": "000000005417ff49f9c909ac241dd2f1b9a3bd595ac00fea62071f069d92a850",
  "strippedsize": 216,
  "size": 216,
  "weight": 864,
  "tx": [
    {
      "txid": "54b448887f34c928b35d0672695c3b48c99b2aed459f90ed5dc29378d35984d0",
      "hash": "54b448887f34c928b35d0672695c3b48c99b2aed459f90ed5dc29378d35984d0",
      "version": 1,
      "size": 135,
      "vsize": 135,
      "weight": 540,
      "locktime": 0,
      "vin": [
        {
          "coinbase": "04ffff001d020c06",
          "sequence": 4294967295
        }
      ],
      "vout": [
        {
          "value": 50.0,
          "n": 0,
          "scriptPubKey": {
            "asm": "048df7b24845c1faa393734e8be066c53fe9e390c541d71a9f5a632a44e278fbabbcc01fb5589acad65f2e24e0537f5152cbe62d25b4ca0a097609d40f89a92c42 OP_CHECKSIG",
            "desc": "pk(048df7b24845c1faa393734e8be066c53fe9e390c541d71a9f5a632a44e278fbabbcc01fb5589acad65f2e24e0537f5152cbe62d25b4ca0a097609d40f89a92c42)#slkkn8zt",
            "hex": "41048df7b24845c1faa393734e8be066c53fe9e390c541d71a9f5a632a44e278fbabbcc01fb5589acad65f2e24e0537f5152cbe62d25b4ca0a097609d40f89a92c42ac",
            "type": "pubkey"
          }
        }
      ],
      "hex": "01000000010000000000000000000000000000000000000000000000000000000000000000ffffffff0804ffff001d020c06ffffffff0100f2052a010000004341048df7b24845c1faa393734e8be066c53fe9e390c541d71a9f5a632a44e278fbabbcc01fb5589acad65f2e24e0537f5152cbe62d25b4ca0a097609d40f89a92c42ac00000000"
    }
  ]
}