{
  "hash": "000000009eabf8d88547aa7101656e7517fb67461e73c148440b2c3d878bd02f",
  "confirmations": 50143,
  "height": 2955,
  "version": 1,
  "versionHex": "00000001",
  "merkleroot": "c1d0225881378ac7da05c687cda0d8c57e9863902789a1e3176349c5b13a4379",
  "time": 1233729920,
  "mediantime": 1233725172,
  "nonce": 122312748,
  "bits": "1d00ffff",
  "difficulty": 1,
  "chainwork": "00000000000000000000000000000000000000000000000000000b8c0b8c0b8c",
  "nTx": 1,
  "previousblockhash": "00000000edfc7e98bd5a4a3adb7722e1dbd65ce0acd756ebb5fe28f5522f56b9",
  "nextblockhash": "00000000c36ab229697cc2732c16bed1d9e731ddc641efb33a5bbceff046847b",
  "strippedsize": 216,
  "size": 216,
  "weight": 864,
  "tx": [
    {
      "txid": "c1d0225881378ac7da05c687cda0d8c57e9863902789a1e3176349c5b13a4379",
      "hash": "c1d0225881378ac7da05c687cda0d8c57e9863902789a1e3176349c5b13a4379",
      "version": 1,
      "size": 135,
      "vsize": 135,
      "weight": 540,
      "locktime": 0,
      "vin": [
        {
          "coinbase": "04ffff001d02af00",
          "sequence": 4294967295
        }
      ],
      "vout": [
        {
          "value": 50.0,
          "n": 0,
          "scriptPubKey": {
            "asm": "04f54e88ac67de381d84a2af3ff2f5e0e0c39ac7daf17cd7828c9933b9881a428608a4e678b3628972db1c3481bae60562cac82f264d5e98225c04c13d43589c53 OP_CHECKSIG",
            "desc": "pk(04f54e88ac67de381d84a2af3ff2f5e0e0c39ac7daf17cd7828c9933b9881a428608a4e678b3628972db1c3481bae60562cac82f264d5e98225c04c13d43589c53)#2g2w6klh",
            "hex": "4104f54e88ac67de381d84a2af3ff2f5e0e0c39ac7daf17cd7828c9933b9881a428608a4e678b3628972db1c3481bae60562cac82f264d5e98225c04c13d43589c53ac",
            "type": "pubkey"
          }
        }
      ],
      "hex": "01000000010000000000000000000000000000000000000000000000000000000000000000ffffffff0804ffff001d02af00ffffffff0100f2052a01000000434104f54e88ac67de381d84a2af3ff2f5e0e0c39ac7daf17cd7828c9933b9881a428608a4e678b3628972db1c3481bae60562cac82f264d5e98225c04c13d43589c53ac00000000"
    }
  ]
}