{
  "hash": "00000000bc63b016e55ce7560e4647f7c8eee0b9edaa46477e6bd800149846b6",
  "confirmations": 51948,
  "height": 1150,
  "version": 1,
  "versionHex": "00000001",
  "merkleroot": "8b84cf7ea6d7b78b2d9a324106fafce0af90b90848e386cc8c104cdf6ae52009",
  "time": 1232459495,
  "mediantime": 1232455240,
  "nonce": 67421066,
  "bits": "1d00ffff",
  "difficulty": 1,
  "chainwork": "0000000000000000000000000000000000000000000000000000047f047f047f",
  "nTx": 1,
  "previousblockhash": "000000007e27fe423979067dfffce661e38264081a8b1d56bcf8d60759fdeacb",
  "nextblockhash": "00000000bfbb523f267ed6fd206a7cab9a132e6fa4370d2aad406eb13dd1f60c",
  "strippedsize": 216,
  "size": 216,
  "weight": 864,
  "tx": [
    {
      "txid": "8b84cf7ea6d7b78b2d9a324106fafce0af90b90848e386cc8c104cdf6ae52009",
      "hash": "8b84cf7ea6d7b78b2d9a324106fafce0af90b90848e386cc8c104cdf6ae52009",
      "version": 1,
      "size": 135,
      "vsize": 135,
      "weight": 540,
      "locktime": 0,
      "vin": [
        {
          "coinbase": "04ffff001d024801",
          "sequence": 4294967295
        }
      ],
      "vout": [
        {
          "value": 50.0,
          "n": 0,
          "scriptPubKey": {
            "asm": "0454f9f9cc45e7b3729fa9f36cefabb9038cb1f4a9f8bf88e139fb5321f7c6d144877ddb8b0b61f6aaea9e127c4219f71ebee7de7094b39ef617a2404e79d785e5 OP_CHECKSIG",
            "desc": "pk(0454f9f9cc45e7b3729fa9f36cefabb9038cb1f4a9f8bf88e139fb5321f7c6d144877ddb8b0b61f6aaea9e127c4219f71ebee7de7094b39ef617a2404e79d785e5)#l9xtfpk7",
            "hex": "410454f9f9cc45e7b3729fa9f36cefabb9038cb1f4a9f8bf88e139fb5321f7c6d144877ddb8b0b61f6aaea9e127c4219f71ebee7de7094b39ef617a2404e79d785e5ac",
            "type": "pubkey"
          }
        }
      ],
      "hex": "01000000010000000000000000000000000000000000000000000000000000000000000000ffffffff0804ffff001d024801ffffffff0100f2052a0100000043410454f9f9cc45e7b3729fa9f36cefabb9038cb1f4a9f8bf88e139fb5321f7c6d144877ddb8b0b61f6aaea9e127c4219f71ebee7de7094b39ef617a2404e79d785e5ac00000000"
    }
  ]
}