{
  "hash": "000000006bbca4fb6c2a1b6f1d1a625afd94b9493e491420637ac29ee626010f",
  "confirmations": 51421,
  "height": 1677,
  "version": 1,
  "versionHex": "00000001",
  "merkleroot": "56ef5484f2a4f321c9e54c0b644c613fb19a573415aadbb33cff08105816838f",
  "time": 1232842943,
  "mediantime": 1232841849,
  "nonce": 3348430871,
  "bits": "1d00ffff",
  "difficulty": 1,
  "chainwork": "0000000000000000000000000000000000000000000000000000068e068e068e",
  "nTx": 1,
  "previousblockhash": "00000000bc8243c8b97e217b7ecc2b9b75eebfec61407e76ea29df12c676b149",
  "nextblockhash": "00000000f3a77fdef1ca4465b48caecf4431c7c8bd38b5b274694f4f781d25b6",
  "strippedsize": 216,
  "size": 216,
  "weight": 864,
  "tx": [
    {
      "txid": "56ef5484f2a4f321c9e54c0b644c613fb19a573415aadbb33cff08105816838f",
      "hash": "56ef5484f2a4f321c9e54c0b644c613fb19a573415aadbb33cff08105816838f",
      "version": 1,
      "size": 135,
      "vsize": 135,
      "weight": 540,
      "locktime": 0,
      "vin": [
        {
          "coinbase": "04ffff001d02e402",
          "sequence": 4294967295
        }
      ],
      "vout": [
        {
          "value": 50.0,
          "n": 0,
          "scriptPubKey": {
            "asm": "04aa831d33d3a829dc006d9d553688b08c166792a33ec06a47f2c704979d7374f1a2d9d650f251238bc945557c42a00e8529425a1fbb3ad6625ae2574230a466a7 OP_CHECKSIG",
            "desc": "pk(04aa831d33d3a829dc006d9d553688b08c166792a33ec06a47f2c704979d7374f1a2d9d650f251238bc945557c42a00e8529425a1fbb3ad6625ae2574230a466a7)#tcz9eyzc",
            "hex": "4104aa831d33d3a829dc006d9d553688b08c166792a33ec06a47f2c704979d7374f1a2d9d650f251238bc945557c42a00e8529425a1fbb3ad6625ae2574230a466a7ac",
            "type": "pubkey"
          }
        }
      ],
      "hex": "01000000010000000000000000000000000000000000000000000000000000000000000000ffffffff0804ffff001d02e402ffffffff0100f2052a01000000434104aa831d33d3a829dc006d9d553688b08c166792a33ec06a47f2c704979d7374f1a2d9d650f251238bc945557c42a00e8529425a1fbb3ad6625ae2574230a466a7ac00000000"
    }
  ]
}