{
  "hash": "0000000095f5ee67aaade1dfa150b7ae38b3ff068936c9c95a7bb114b6ce8d4f",
  "confirmations": 51938,
  "height": 84,
  "version": 1,
  "versionHex": "00000001",
  "merkleroot": "9a3d8485cde248ab7dcea68c5a8539498ecb8ad337f2574fc2143d2f644b2e1d",
  "time": 1231649497,
  "mediantime": 1231645607,
  "nonce": 711533078,
  "bits": "1d00ffff",
  "difficulty": 1,
  "chainwork": "0000000000000000000000000000000000000000000000000000005500550055",
  "nTx": 1,
  "previousblockhash": "00000000ca15c30122dc65c33e8ec1f7ff2631ef9e2a1c36d8a399ca1705122b",
  "nextblockhash": "00000000219949b3de1eae5447c00501812757885e65554fe5c51039ebe643d1",
  "strippedsize": 215,
  "size": 215,
  "weight": 860,
  "tx": [
    {
      "txid": "9a3d8485cde248ab7dcea68c5a8539498ecb8ad337f2574fc2143d2f644b2e1d",
      "hash": "9a3d8485cde248ab7dcea68c5a8539498ecb8ad337f2574fc2143d2f644b2e1d",
      "version": 1,
      "size": 134,
      "vsize": 134,
      "weight": 536,
      "locktime": 0,
      "vin": [
        {
          "coinbase": "04ffff001d0115",
          "sequence": 4294967295
        }
      ],
      "vout": [
        {
          "value": 50.0,
          "n": 0,
          "scriptPubKey": {
            "asm": "04e761595b66d7c108dcec83722a23a24ce0b2cf3f8f5db4fb483b62a36a96e5ad93698cd2006cbca41b4294af51fb61c13202eb9a871c86f8ce3479eccda1fa45 OP_CHECKSIG",
            "desc": "pk(04e761595b66d7c108dcec83722a23a24ce0b2cf3f8f5db4fb483b62a36a96e5ad93698cd2006cbca41b4294af51fb61c13202eb9a871c86f8ce3479eccda1fa45)#nz2ul904",
            "hex": "4104e761595b66d7c108dcec83722a23a24ce0b2cf3f8f5db4fb483b62a36a96e5ad93698cd2006cbca41b4294af51fb61c13202eb9a871c86f8ce3479eccda1fa45ac",
            "type": "pubkey"
          }
        }
      ],
      "hex": "01000000010000000000000000000000000000000000000000000000000000000000000000ffffffff0704ffff001d0115ffffffff0100f2052a01000000434104e761595b66d7c108dcec83722a23a24ce0b2cf3f8f5db4fb483b62a36a96e5ad93698cd2006cbca41b4294af51fb61c13202eb9a871c86f8ce3479eccda1fa45ac00000000"
    }
  ]
}