{
  "hash": "00000000803a23e4a80f66522b43b0da5de9cc3e0505b3467c6a2541a689fc81",
  "confirmations": 45909,
  "height": 7189,
  "version": 1,
  "versionHex": "00000001",
  "merkleroot": "66ac005e82c4fd226b1b47e3f05c630a19bea5a56289e6b81062e1c218672cb8",
  "time": 1236862311,
  "mediantime": 1236859196,
  "nonce": 1929630238,
  "bits": "1d00ffff",
  "difficulty": 1,
  "chainwork": "00000000000000000000000000000000000000000000000000001c161c161c16",
  "nTx": 1,
  "previousblockhash": "000000000ec22cd8f789df05f81a61bc58dc9d8644fc84fadb4e9b454c08d42b",
  "nextblockhash": "0000000040e547b48aed97cf8be2b4a72242cefea51d9211c37e434b9893024d",
  "strippedsize": 216,
  "size": 216,
  "weight": 864,
  "tx": [
    {
      "txid": "66ac005e82c4fd226b1b47e3f05c630a19bea5a56289e6b81062e1c218672cb8",
      "hash": "66ac005e82c4fd226b1b47e3f05c630a19bea5a56289e6b81062e1c218672cb8",
      "version": 1,
      "size": 135,
      "vsize": 135,
      "weight": 540,
      "locktime": 0,
      "vin": [
        {
          "coinbase": "04ffff001d027705",
          "sequence": 4294967295
        }
      ],
      "vout": [
        {
          "value": 50.0,
          "n": 0,
          "scriptPubKey": {
            "asm": "0489929f5ffdfe99fbee86c11b167e102ccf2e17dcb29feaaa2a654caa80b9da8ec175bae1f0923c96df9ab12fb172ebf41db754382dff2adf2f938bf8655da3ef OP_CHECKSIG",
            "desc": "pk(0489929f5ffdfe99fbee86c11b167e102ccf2e17dcb29feaaa2a654caa80b9da8ec175bae1f0923c96df9ab12fb172ebf41db754382dff2adf2f938bf8655da3ef)#5lku8ye5",
            "hex": "410489929f5ffdfe99fbee86c11b167e102ccf2e17dcb29feaaa2a654caa80b9da8ec175bae1f0923c96df9ab12fb172ebf41db754382dff2adf2f938bf8655da3efac",
            "type": "pubkey"
          }
        }
      ],
      "hex": "01000000010000000000000000000000000000000000000000000000000000000000000000ffffffff0804ffff001d027705ffffffff0100f2052a0100000043410489929f5ffdfe99fbee86c11b167e102ccf2e17dcb29feaaa2a654caa80b9da8ec175bae1f0923c96df9ab12fb172ebf41db754382dff2adf2f938bf8655da3efac00000000"
    }
  ]
}