{
  "hash": "000000005e03eceb949b01f3e8a4e13382850aae6e7097482661ddc1813b08a3",
  "confirmations": 50917,
  "height": 2181,
  "version": 1,
  "versionHex": "00000001",
  "merkleroot": "3776cc3b8d6b823ca2fb5f73d7082bf69e9a8775738d20f782dc48a765921f80",
  "time": 1233200051,
  "mediantime": 1233195905,
  "nonce": 2263996985,
  "bits": "1d00ffff",
  "difficulty": 1,
  "chainwork": "0000000000000000000000000000000000000000000000000000088608860886",
  "nTx": 1,
  "previousblockhash": "00000000905094bf55841908b240d56d7016cc60d49d2ec0bafdfa60edc1dea8",
  "nextblockhash": "0000000078c1dfef29ed103d268ce77b6f5afffd0146dd2f5796b35b45d58342",
  "strippedsize": 215,
  "size": 215,
  "weight": 860,
  "tx": [
    {
      "txid": "3776cc3b8d6b823ca2fb5f73d7082bf69e9a8775738d20f782dc48a765921f80",
      "hash": "3776cc3b8d6b823ca2fb5f73d7082bf69e9a8775738d20f782dc48a765921f80",
      "version": 1,
      "size": 134,
      "vsize": 134,
      "weight": 536,
      "locktime": 0,
      "vin": [
        {
          "coinbase": "04ffff001d010e",
          "sequence": 4294967295
        }
      ],
      "vout": [
        {
          "value": 50.0,
          "n": 0,
          "scriptPubKey": {
            "asm": "0495cc7e2a329b9d2e58c93e54aecada2d5b581121d8554a70168802a5710d0e6c1c233d06ff16a643610a887a84d48c644119e3e10984552411a4ae32f2e59aca OP_CHECKSIG",
            "desc": "pk(0495cc7e2a329b9d2e58c93e54aecada2d5b581121d8554a70168802a5710d0e6c1c233d06ff16a643610a887a84d48c644119e3e10984552411a4ae32f2e59aca)#7ff2mmu7",
            "hex": "410495cc7e2a329b9d2e58c93e54aecada2d5b581121d8554a70168802a5710d0e6c1c233d06ff16a643610a887a84d48c644119e3e10984552411a4ae32f2e59acaac",
            "type": "pubkey"
          }
        }
      ],
      "hex": "01000000010000000000000000000000000000000000000000000000000000000000000000ffffffff0704ffff001d010effffffff0100f2052a0100000043410495cc7e2a329b9d2e58c93e54aecada2d5b581121d8554a70168802a5710d0e6c1c233d06ff16a643610a887a84d48c644119e3e10984552411a4ae32f2e59acaac00000000"
    }
  ]
}