{
  "hash": "0000000069106242b2224082ba60c7f4af8bb2d1d412f47d9e4c50e8aaf99fbe",
  "confirmations": 43544,
  "height": 9554,
  "version": 1,
  "versionHex": "00000001",
  "merkleroot": "6404aa64cadf8b96ee13d14d4951e4c0e0a7c39ea6b87a704b784b1c714ceea8",
  "time": 1238666136,
  "mediantime": 1238662381,
  "nonce": 3732275462,
  "bits": "1d00ffff",
  "difficulty": 1,
  "chainwork": "0000000000000000000000000000000000000000000000000000255325532553",
  "nTx": 1,
  "previousblockhash": "00000000007772bc65a8a3c3e9a83bec0729967cea649a6e99c7a4221872a292",
  "nextblockhash": "00000000c64ceffb1ac5ae7078481330d26bc1d52e7a98cc57ac6b0030124b85",
  "strippedsize": 216,
  "size": 216,
  "weight": 864,
  "tx": [
    {
      "txid": "6404aa64cadf8b96ee13d14d4951e4c0e0a7c39ea6b87a704b784b1c714ceea8",
      "hash": "6404aa64cadf8b96ee13d14d4951e4c0e0a7c39ea6b87a704b784b1c714ceea8",
      "version": 1,
      "size": 135,
      "vsize": 135,
      "weight": 540,
      "locktime": 0,
      "vin": [
        {
          "coinbase": "04ffff001d022f06",
          "sequence": 4294967295
        }
      ],
      "vout": [
        {
          "value": 50.0,
          "n": 0,
          "scriptPubKey": {
            "asm": "04a369bdce181ac458a7813e2cc3a588f2d4e5b29d2d1dd0767afd6314b8b31ca2cea71deab219b463fb13588f5837bd4ec7769cee0db59227b62816cacd568520 OP_CHECKSIG",
            "desc": "pk(04a369bdce181ac458a7813e2cc3a588f2d4e5b29d2d1dd0767afd6314b8b31ca2cea71deab219b463fb13588f5837bd4ec7769cee0db59227b62816cacd568520)#dqkxhk0f",
            "hex": "4104a369bdce181ac458a7813e2cc3a588f2d4e5b29d2d1dd0767afd6314b8b31ca2cea71deab219b463fb13588f5837bd4ec7769cee0db59227b62816cacd568520ac",
            "type": "pubkey"
          }
        }
      ],
      "hex": "01000000010000000000000000000000000000000000000000000000000000000000000000ffffffff0804ffff001d022f06ffffffff0100f2052a01000000434104a369bdce181ac458a7813e2cc3a588f2d4e5b29d2d1dd0767afd6314b8b31ca2cea71deab219b463fb13588f5837bd4ec7769cee0db59227b62816cacd568520ac00000000"
    }
  ]
}