{
  "hash": "000000003fd0fa5f78eea07b6daf176bfab63fb28a56768e7bbce39f047a7c14",
  "confirmations": 52108,
  "height": 990,
  "version": 1,
  "versionHex": "00000001",
  "merkleroot": "722ab4df9e1fae9baf3f5afd280459dd40a1ae5042b692e7d4dca515e8e74636",
  "time": 1232342619,
  "mediantime": 1232339172,
  "nonce": 3518074420,
  "bits": "1d00ffff",
  "difficulty": 1,
  "chainwork": "000000000000000000000000000000000000000000000000000003df03df03df",
  "nTx": 1,
  "previousblockhash": "000000008a3893cb71fd4fe6d29882bec1de9fdbe70a4f5408f6d9bb6ff2680d",
  "nextblockhash": "00000000a97c5e59f98521c4c84e14ce030c67611feb28221c5a6f1276be5efb",
  "strippedsize": 216,
  "size": 216,
  "weight": 864,
  "tx": [
    {
      "txid": "722ab4df9e1fae9baf3f5afd280459dd40a1ae5042b692e7d4dca515e8e74636",
      "hash": "722ab4df9e1fae9baf3f5afd280459dd40a1ae5042b692e7d4dca515e8e74636",
      "version": 1,
      "size": 135,
      "vsize": 135,
      "weight": 540,
      "locktime": 0,
      "vin": [
        {
          "coinbase": "04ffff001d02eb04",
          "sequence": 4294967295
        }
      ],
      "vout": [
        {
          "value": 50.0,
          "n": 0,
          "scriptPubKey": {
            "asm": "0475707b067e8ccc5afd38576a4286a5438c8b57ba8b18a0bb4fac28531fa451b57026bec3c96ddac0fe7f0ff5c6591bba69100fa77925f20a67d88ecbca251c00 OP_CHECKSIG",
            "desc": "pk(0475707b067e8ccc5afd38576a4286a5438c8b57ba8b18a0bb4fac28531fa451b57026bec3c96ddac0fe7f0ff5c6591bba69100fa77925f20a67d88ecbca251c00)#79r7s88d",
            "hex": "410475707b067e8ccc5afd38576a4286a5438c8b57ba8b18a0bb4fac28531fa451b57026bec3c96ddac0fe7f0ff5c6591bba69100fa77925f20a67d88ecbca251c00ac",
            "type": "pubkey"
          }
        }
      ],
      "hex": "01000000010000000000000000000000000000000000000000000000000000000000000000ffffffff0804ffff001d02eb04ffffffff0100f2052a0100000043410475707b067e8ccc5afd38576a4286a5438c8b57ba8b18a0bb4fac28531fa451b57026bec3c96ddac0fe7f0ff5c6591bba69100fa77925f20a67d88ecbca251c00ac00000000"
    }
  ]
}