{
  "hash": "000000004b58591a63574cd8932346e261357f8bbd0a2b95b5e8f10a72c01e0d",
  "confirmations": 44522,
  "height": 8576,
  "version": 1,
  "versionHex": "00000001",
  "merkleroot": "2780993c9a1bb535a490a55466fdf8e1594f79115032829d2945cd20489c8409",
  "time": 1237932000,
  "mediantime": 1237928021,
  "nonce": 1064338483,
  "bits": "1d00ffff",
  "difficulty": 1,
  "chainwork": "0000000000000000000000000000000000000000000000000000218121812181",
  "nTx": 1,
  "previousblockhash": "000000006862c7d7752b33db6dc770cba20c33fd5586decc8cfd84b350ae72b0",
  "nextblockhash": "00000000b6136fc0046b27f01a980ad6c33a7e39fc071d0ff39f974685a98a7f",
  "strippedsize": 216,
  "size": 216,
  "weight": 864,
  "tx": [
    {
      "txid": "2780993c9a1bb535a490a55466fdf8e1594f79115032829d2945cd20489c8409",
      "hash": "2780993c9a1bb535a490a55466fdf8e1594f79115032829d2945cd20489c8409",
      "version": 1,
      "size": 135,
      "vsize": 135,
      "weight": 540,
      "locktime": 0,
      "vin": [
        {
          "coinbase": "04ffff001d023109",
          "sequence": 4294967295
        }
      ],
      "vout": [
        {
          "value": 50.0,
          "n": 0,
          "scriptPubKey": {
            "asm": "04369e74c118744a68aa64e538af6071872b0d0a18f2a4408cf8bbb3b479f535358a2566ec727247f61f9707051634f38ff64c25dc29bf6fd4091b759a40e521f0 OP_CHECKSIG",
            "desc": "pk(04369e74c118744a68aa64e538af6071872b0d0a18f2a4408cf8bbb3b479f535358a2566ec727247f61f9707051634f38ff64c25dc29bf6fd4091b759a40e521f0)#hye4kjnt",
            "hex": "4104369e74c118744a68aa64e538af6071872b0d0a18f2a4408cf8bbb3b479f535358a2566ec727247f61f9707051634f38ff64c25dc29bf6fd4091b759a40e521f0ac",
            "type": "pubkey"
          }
        }
      ],
      "hex": "01000000010000000000000000000000000000000000000000000000000000000000000000ffffffff0804ffff001d023109ffffffff0100f2052a01000000434104369e74c118744a68aa64e538af6071872b0d0a18f2a4408cf8bbb3b479f535358a2566ec727247f61f9707051634f38ff64c25dc29bf6fd4091b759a40e521f0ac00000000"
    }
  ]
}