{
  "hash": "00000000e15bc6463fe96e4297e1635a2363820a3455813968fb1b88d2627b2e",
  "confirmations": 51906,
  "height": 1192,
  "version": 1,
  "versionHex": "00000001",
  "merkleroot": "99b9e7b009e2adfba59c3219a623ba8e0d566feb94cb8debfd6e11cf93bc9008",
  "time": 1232495125,
  "mediantime": 1232490443,
  "nonce": 77001528,
  "bits": "1d00ffff",
  "difficulty": 1,
  "chainwork": "000000000000000000000000000000000000000000000000000004a904a904a9",
  "nTx": 1,
  "previousblockhash": "00000000ddc3e3ea9e3a0274eb985a05dc5551a80d322713533ae6b692d642fe",
  "nextblockhash": "000000007f423780d48a8f3d35d9a17a3469274c4bf51c0c05d3a56b8df85007",
  "strippedsize": 215,
  "size": 215,
  "weight": 860,
  "tx": [
    {
      "txid": "99b9e7b009e2adfba59c3219a623ba8e0d566feb94cb8debfd6e11cf93bc9008",
      "hash": "99b9e7b009e2adfba59c3219a623ba8e0d566feb94cb8debfd6e11cf93bc9008",
      "version": 1,
      "size": 134,
      "vsize": 134,
      "weight": 536,
      "locktime": 0,
      "vin": [
        {
          "coinbase": "04ffff001d010d",
          "sequence": 4294967295
        }
      ],
      "vout": [
        {
          "value": 50.0,
          "n": 0,
          "scriptPubKey": {
            "asm": "04ec967c9bcbd015a02057f033aa1323f954751540387c223fede4dd77b8d931e197341abe18fd9092dc73e7e55809c8abe61c7eeee6a24540141eb1e7ddd517e0 OP_CHECKSIG",
            "desc": "pk(04ec967c9bcbd015a02057f033aa1323f954751540387c223fede4dd77b8d931e197341abe18fd9092dc73e7e55809c8abe61c7eeee6a24540141eb1e7ddd517e0)#fjrplx38",
            "hex": "4104ec967c9bcbd015a02057f033aa1323f954751540387c223fede4dd77b8d931e197341abe18fd9092dc73e7e55809c8abe61c7eeee6a24540141eb1e7ddd517e0ac",
            "type": "pubkey"
          }
        }
      ],
      "hex": "01000000010000000000000000000000000000000000000000000000000000000000000000ffffffff0704ffff001d010dffffffff0100f2052a01000000434104ec967c9bcbd015a02057f033aa1323f954751540387c223fede4dd77b8d931e197341abe18fd9092dc73e7e55809c8abe61c7eeee6a24540141eb1e7ddd517e0ac00000000"
    }
  ]
}