{
  "hash": "000000004b7d7f8bcb61b74b3bf6af5c34bd504224da9476522b94b05ae6043e",
  "confirmations": 46088,
  "height": 7010,
  "version": 1,
  "versionHex": "00000001",
  "merkleroot": "0167edd7669fca4620acd0e1263ba0a8322ac19fd1e2ce35116a63809c465c21",
  "time": 1236726582,
  "mediantime": 1236722070,
  "nonce": 2711794984,
  "bits": "1d00ffff",
  "difficulty": 1,
  "chainwork": "00000000000000000000000000000000000000000000000000001b631b631b63",
  "nTx": 1,
  "previousblockhash": "000000000ffe966bd0cf881d3e0e96f0aceebc2a888e0f906fcb206b618f34f6",
  "nextblockhash": "0000000029a5e818e3e74610dc1433265156472f21778c426f86797aece0f29c",
  "strippedsize": 216,
  "size": 216,
  "weight": 864,
  "tx": [
    {
      "txid": "0167edd7669fca4620acd0e1263ba0a8322ac19fd1e2ce35116a63809c465c21",
      "hash": "0167edd7669fca4620acd0e1263ba0a8322ac19fd1e2ce35116a63809c465c21",
      "version": 1,
      "size": 135,
      "vsize": 135,
      "weight": 540,
      "locktime": 0,
      "vin": [
        {
          "coinbase": "04ffff001d028602",
          "sequence": 4294967295
        }
      ],
      "vout": [
        {
          "value": 50.0,
          "n": 0,
          "scriptPubKey": {
            "asm": "044c3fd00ef1b93bc1af04a448e5a7799164a68177008f06625bfabfc03cc378a00df077a1fdf15762bf1f78bad109695eda53f45966a3169d13b82e7dc2857a02 OP_CHECKSIG",
            "desc": "pk(044c3fd00ef1b93bc1af04a448e5a7799164a68177008f06625bfabfc03cc378a00df077a1fdf15762bf1f78bad109695eda53f45966a3169d13b82e7dc2857a02)#uz3tnga2",
            "hex": "41044c3fd00ef1b93bc1af04a448e5a7799164a68177008f06625bfabfc03cc378a00df077a1fdf15762bf1f78bad109695eda53f45966a3169d13b82e7dc2857a02ac",
            "type": "pubkey"
          }
        }
      ],
      "hex": "01000000010000000000000000000000000000000000000000000000000000000000000000ffffffff0804ffff001d028602ffffffff0100f2052a010000004341044c3fd00ef1b93bc1af04a448e5a7799164a68177008f06625bfabfc03cc378a00df077a1fdf15762bf1f78bad109695eda53f45966a3169d13b82e7dc2857a02ac00000000"
    }
  ]
}