{
  "hash": "00000000e061bce5df4c77b549ea1daa962e5fcf714dbd7b42e6c897c3c06cef",
  "confirmations": 46648,
  "height": 6450,
  "version": 1,
  "versionHex": "00000001",
  "merkleroot": "ac323e33a6bfb10e371b1db9c30e2228ce22790b7de7d09a5176d723ffcaa5de",
  "time": 1236293857,
  "mediantime": 1236290101,
  "nonce": 2808465977,
  "bits": "1d00ffff",
  "difficulty": 1,
  "chainwork": "0000000000000000000000000000000000000000000000000000193319331933",
  "nTx": 1,
  "previousblockhash": "00000000220fe55388d2f9369fc9a71a464fe4ad7f681adddd70aafbf231342f",
  "nextblockhash": "000000004c48da009c0e4bde41c3232f593fed898295ebaa2ff27834f0d98572",
  "strippedsize": 216,
  "size": 216,
  "weight": 864,
  "tx": [
    {
      "txid": "ac323e33a6bfb10e371b1db9c30e2228ce22790b7de7d09a5176d723ffcaa5de",
      "hash": "ac323e33a6bfb10e371b1db9c30e2228ce22790b7de7d09a5176d723ffcaa5de",
      "version": 1,
      "size": 135,
      "vsize": 135,
      "weight": 540,
      "locktime": 0,
      "vin": [
        {
          "coinbase": "04ffff001d029e02",
          "sequence": 4294967295
        }
      ],
      "vout": [
        {
          "value": 50.0,
          "n": 0,
          "scriptPubKey": {
            "asm": "04e886ba29d86075f5e68f99fc92f94b99d07fe617e99d432441d47f8559d9b64b831c084f9f7a573290bf16e1b930994b47a91db5fabe1fd8e0d9f34ff60244cd OP_CHECKSIG",
            "desc": "pk(04e886ba29d86075f5e68f99fc92f94b99d07fe617e99d432441d47f8559d9b64b831c084f9f7a573290bf16e1b930994b47a91db5fabe1fd8e0d9f34ff60244cd)#asfd9025",
            "hex": "4104e886ba29d86075f5e68f99fc92f94b99d07fe617e99d432441d47f8559d9b64b831c084f9f7a573290bf16e1b930994b47a91db5fabe1fd8e0d9f34ff60244cdac",
            "type": "pubkey"
          }
        }
      ],
      "hex": "01000000010000000000000000000000000000000000000000000000000000000000000000ffffffff0804ffff001d029e02ffffffff0100f2052a01000000434104e886ba29d86075f5e68f99fc92f94b99d07fe617e99d432441d47f8559d9b64b831c084f9f7a573290bf16e1b930994b47a91db5fabe1fd8e0d9f34ff60244cdac00000000"
    }
  ]
}