{
  "hash": "0000000002a60a8bfb2dd08a0d3e1f58696557da159b223fdbecd591b53ac56b",
  "confirmations": 46564,
  "height": 6534,
  "version": 1,
  "versionHex": "00000001",
  "merkleroot": "3d675f9dd7b192391228777738a70c741056c154bba72419c59fd008aa3407bf",
  "time": 1236353828,
  "mediantime": 1236350336,
  "nonce": 325477926,
  "bits": "1d00ffff",
  "difficulty": 1,
  "chainwork": "0000000000000000000000000000000000000000000000000000198719871987",
  "nTx": 1,
  "previousblockhash": "000000001bd3bd7c4440227437814ea02c136812b5b542a64b4432984adb71fd",
  "nextblockhash": "000000002f630be6eb6913a67ad6bccb21daf7e1d4e3697b58ff32564246dc5d",
  "strippedsize": 216,
  "size": 216,
  "weight": 864,
  "tx": [
    {
      "txid": "3d675f9dd7b192391228777738a70c741056c154bba72419c59fd008aa3407bf",
      "hash": "3d675f9dd7b192391228777738a70c741056c154bba72419c59fd008aa3407bf",
      "version": 1,
      "size": 135,
      "vsize": 135,
      "weight": 540,
      "locktime": 0,
      "vin": [
        {
          "coinbase": "04ffff001d022604",
          "sequence": 4294967295
        }
      ],
      "vout": [
        {
          "value": 50.0,
          "n": 0,
          "scriptPubKey": {
            "asm": "0474531646cd1c9d8e9b34b23524f46428dc6eefb065b4caaf545df37c290f50003066f79fdd8f177f3faa79ce67205a41ae513099197ce35b4ecb9400163c31ac OP_CHECKSIG",
            "desc": "pk(0474531646cd1c9d8e9b34b23524f46428dc6eefb065b4caaf545df37c290f50003066f79fdd8f177f3faa79ce67205a41ae513099197ce35b4ecb9400163c31ac)#nmjq6z7y",
            "hex": "410474531646cd1c9d8e9b34b23524f46428dc6eefb065b4caaf545df37c290f50003066f79fdd8f177f3faa79ce67205a41ae513099197ce35b4ecb9400163c31acac",
            "type": "pubkey"
          }
        }
      ],
      "hex": "01000000010000000000000000000000000000000000000000000000000000000000000000ffffffff0804ffff001d022604ffffffff0100f2052a0100000043410474531646cd1c9d8e9b34b23524f46428dc6eefb065b4caaf545df37c290f50003066f79fdd8f177f3faa79ce67205a41ae513099197ce35b4ecb9400163c31acac00000000"
    }
  ]
}