{
  "hash": "00000000487ec590554cb1f4771dc6f54f9796989a736fc164778e3807d75c51",
  "confirmations": 46426,
  "height": 6672,
  "version": 1,
  "versionHex": "00000001",
  "merkleroot": "1860bd2a823a8e5660d12b83a01ea42d9ee2b995262b43b944aa5fb5a4d65340",
  "time": 1236462468,
  "mediantime": 1236457109,
  "nonce": 4097597975,
  "bits": "1d00ffff",
  "difficulty": 1,
  "chainwork": "00000000000000000000000000000000000000000000000000001a111a111a11",
  "nTx": 1,
  "previousblockhash": "00000000927c52403ce3746ae9c8b6177e1a1de36cfdbfc8631693a1cdfb5e17",
  "nextblockhash": "00000000c112fdf3d5bf38d58944c1eeeaa06e77986351a835dd442129c96baf",
  "strippedsize": 216,
  "size": 216,
  "weight": 864,
  "tx": [
    {
      "txid": "1860bd2a823a8e5660d12b83a01ea42d9ee2b995262b43b944aa5fb5a4d65340",
      "hash": "1860bd2a823a8e5660d12b83a01ea42d9ee2b995262b43b944aa5fb5a4d65340",
      "version": 1,
      "size": 135,
      "vsize": 135,
      "weight": 540,
      "locktime": 0,
      "vin": [
        {
          "coinbase": "04ffff001d027406",
          "sequence": 4294967295
        }
      ],
      "vout": [
        {
          "value": 50.0,
          "n": 0,
          "scriptPubKey": {
            "asm": "0489e1e88553d857cffbee4e1211f4de7dded6baac7248e0bf5a4302daf799f0d2c2d7e39687ebf88a8c00290c35b883ec437dee4a347f31ee79a0c7da912146eb OP_CHECKSIG",
            "desc": "pk(0489e1e88553d857cffbee4e1211f4de7dded6baac7248e0bf5a4302daf799f0d2c2d7e39687ebf88a8c00290c35b883ec437dee4a347f31ee79a0c7da912146eb)#u5a9qrzu",
            "hex": "410489e1e88553d857cffbee4e1211f4de7dded6baac7248e0bf5a4302daf799f0d2c2d7e39687ebf88a8c00290c35b883ec437dee4a347f31ee79a0c7da912146ebac",
            "type": "pubkey"
          }
        }
      ],
      "hex": "01000000010000000000000000000000000000000000000000000000000000000000000000ffffffff0804ffff001d027406ffffffff0100f2052a0100000043410489e1e88553d857cffbee4e1211f4de7dded6baac7248e0bf5a4302daf799f0d2c2d7e39687ebf88a8c00290c35b883ec437dee4a347f31ee79a0c7da912146ebac00000000"
    }
  ]
}