{
  "hash": "00000000d553fbc81c7d7b14be1975dcaf50d728a9c88e9730408a33083a5cd2",
  "confirmations": 50337,
  "height": 2761,
  "version": 1,
  "versionHex": "00000001",
  "merkleroot": "1855b0b2289221897913096ae1886e1d4f1b9b0e7b31c46e515a57ee0bb310e9",
  "time": 1233603093,
  "mediantime": 1233599468,
  "nonce": 3122362653,
  "bits": "1d00ffff",
  "difficulty": 1,
  "chainwork": "00000000000000000000000000000000000000000000000000000aca0aca0aca",
  "nTx": 1,
  "previousblockhash": "00000000829b51e7c4cbb2a0036320eeb71460015c2ecd7bbc337f1a2206e261",
  "nextblockhash": "00000000d50352249d0d69257a30d52a7bc993a3e315b14cd811ec98f86ca9e2",
  "strippedsize": 216,
  "size": 216,
  "weight": 864,
  "tx": [
    {
      "txid": "1855b0b2289221897913096ae1886e1d4f1b9b0e7b31c46e515a57ee0bb310e9",
      "hash": "1855b0b2289221897913096ae1886e1d4f1b9b0e7b31c46e515a57ee0bb310e9",
      "version": 1,
      "size": 135,
      "vsize": 135,
      "weight": 540,
      "locktime": 0,
      "vin": [
        {
          "coinbase": "04ffff001d02ba05",
          "sequence": 4294967295
        }
      ],
      "vout": [
        {
          "value": 50.0,
          "n": 0,
          "scriptPubKey": {
            "asm": "0492c38ef59b6ee2f4c44f5eaad08cf4f963b99819df657a818d08aac3b319e2dd31d106c8549753fa88a01e8dde114994ccb92ee61732a786b82b5fe9ee17ab40 OP_CHECKSIG",
            "desc": "pk(0492c38ef59b6ee2f4c44f5eaad08cf4f963b99819df657a818d08aac3b319e2dd31d106c8549753fa88a01e8dde114994ccb92ee61732a786b82b5fe9ee17ab40)#7hkwx6qy",
            "hex": "410492c38ef59b6ee2f4c44f5eaad08cf4f963b99819df657a818d08aac3b319e2dd31d106c8549753fa88a01e8dde114994ccb92ee61732a786b82b5fe9ee17ab40ac",
            "type": "pubkey"
          }
        }
      ],
      "hex": "01000000010000000000000000000000000000000000000000000000000000000000000000ffffffff0804ffff001d02ba05ffffffff0100f2052a0100000043410492c38ef59b6ee2f4c44f5eaad08cf4f963b99819df657a818d08aac3b319e2dd31d106c8549753fa88a01e8dde114994ccb92ee61732a786b82b5fe9ee17ab40ac00000000"
    }
  ]
}