{
  "hash": "0000000042073b28d8cd72071261b3a03a6bc283df9b23512fab140fdc972dd2",
  "confirmations": 49389,
  "height": 3709,
  "version": 1,
  "versionHex": "00000001",
  "merkleroot": "9a8fe8227da9568c110f2c1f5c5c46d9dd3440ce65b19fea1bda60149570b585",
  "time": 1234239313,
  "mediantime": 1234234476,
  "nonce": 1972090925,
  "bits": "1d00ffff",
  "difficulty": 1,
  "chainwork": "00000000000000000000000000000000000000000000000000000e7e0e7e0e7e",
  "nTx": 1,
  "previousblockhash": "0000000097bc83678a53348e4908e2dd6822828971f3de8bd011f6d19fd97120",
  "nextblockhash": "00000000dace704787f744b67a066aae31470415bdef7c1e283bbdb02d8a7375",
  "strippedsize": 216,
  "size": 216,
  "weight": 864,
  "tx": [
    {
      "txid": "9a8fe8227da9568c110f2c1f5c5c46d9dd3440ce65b19fea1bda60149570b585",
      "hash": "9a8fe8227da9568c110f2c1f5c5c46d9dd3440ce65b19fea1bda60149570b585",
      "version": 1,
      "size": 135,
      "vsize": 135,
      "weight": 540,
      "locktime": 0,
      "vin": [
        {
          "coinbase": "04ffff001d022a0a",
          "sequence": 4294967295
        }
      ],
      "vout": [
        {
          "value": 50.0,
          "n": 0,
          "scriptPubKey": {
            "asm": "0497a2faafbaf55f9fae776177f41d5607acf59d4b5351d56fb15d0a1e727a726b32579be6a2a43f51556b990354e2b426438d943844a0eb4742d3eba657250f4c OP_CHECKSIG",
            "desc": "pk(0497a2faafbaf55f9fae776177f41d5607acf59d4b5351d56fb15d0a1e727a726b32579be6a2a43f51556b990354e2b426438d943844a0eb4742d3eba657250f4c)#eh28e6p8",
            "hex": "410497a2faafbaf55f9fae776177f41d5607acf59d4b5351d56fb15d0a1e727a726b32579be6a2a43f51556b990354e2b426438d943844a0eb4742d3eba657250f4cac",
            "type": "pubkey"
          }
        }
      ],
      "hex": "01000000010000000000000000000000000000000000000000000000000000000000000000ffffffff0804ffff001d022a0affffffff0100f2052a0100000043410497a2faafbaf55f9fae776177f41d5607acf59d4b5351d56fb15d0a1e727a726b32579be6a2a43f51556b990354e2b426438d943844a0eb4742d3eba657250f4cac00000000"
    }
  ]
}