{
  "hash": "00000000522e3f73bceb3542be4222cf5395255571ea7aa8ccf67a3bfd318c82",
  "confirmations": 44015,
  "height": 9083,
  "version": 1,
  "versionHex": "00000001",
  "merkleroot": "53fe96b28a815f71153c431cba527b7c6c5688e8aff211963ce45be70b6e02c1",
  "time": 1238319297,
  "mediantime": 1238315716,
  "nonce": 3228372514,
  "bits": "1d00ffff",
  "difficulty": 1,
  "chainwork": "0000000000000000000000000000000000000000000000000000237c237c237c",
  "nTx": 1,
  "previousblockhash": "00000000bef4d56b0aa2f17693b179e9b58ebc9983a48ead382ac4d1651a03a0",
  "nextblockhash": "000000005da08bbaf957e1435eb426248e1901db44c2a541992b560c9fd9246c",
  "strippedsize": 216,
  "size": 216,
  "weight": 864,
  "tx": [
    {
      "txid": "53fe96b28a815f71153c431cba527b7c6c5688e8aff211963ce45be70b6e02c1",
      "hash": "53fe96b28a815f71153c431cba527b7c6c5688e8aff211963ce45be70b6e02c1",
      "version": 1,
      "size": 135,
      "vsize": 135,
      "weight": 540,
      "locktime": 0,
      "vin": [
        {
          "coinbase": "04ffff001d020d08",
          "sequence": 4294967295
        }
      ],
      "vout": [
        {
          "value": 50.0,
          "n": 0,
          "scriptPubKey": {
            "asm": "040f74b6114b2e32058b9f2002094816ef0f876211a4af324c9f51fd3a00e6ed0318882dc9708a02ac455b20b68e7b8d254b205ef46fb57ed3b57b4fd67aeebfe9 OP_CHECKSIG",
            "desc": "pk(040f74b6114b2e32058b9f2002094816ef0f876211a4af324c9f51fd3a00e6ed0318882dc9708a02ac455b20b68e7b8d254b205ef46fb57ed3b57b4fd67aeebfe9)#0qwsalkf",
            "hex": "41040f74b6114b2e32058b9f2002094816ef0f876211a4af324c9f51fd3a00e6ed0318882dc9708a02ac455b20b68e7b8d254b205ef46fb57ed3b57b4fd67aeebfe9ac",
            "type": "pubkey"
          }
        }
      ],
      "hex": "01000000010000000000000000000000000000000000000000000000000000000000000000ffffffff0804ffff001d020d08ffffffff0100f2052a010000004341040f74b6114b2e32058b9f2002094816ef0f876211a4af324c9f51fd3a00e6ed0318882dc9708a02ac455b20b68e7b8d254b205ef46fb57ed3b57b4fd67aeebfe9ac00000000"
    }
  ]
}