{
  "hash": "00000000359782b3098dbc324b8bffb279761040ca8cf3572a877a947753f1ec",
  "confirmations": 44920,
  "height": 8178,
  "version": 1,
  "versionHex": "00000001",
  "merkleroot": "a6c2a10c553058d102815c160e405797c8b30aa734687c24026bee69211c1a60",
  "time": 1237591522,
  "mediantime": 1237587318,
  "nonce": 3664232484,
  "bits": "1d00ffff",
  "difficulty": 1,
  "chainwork": "00000000000000000000000000000000000000000000000000001ff31ff31ff3",
  "nTx": 1,
  "previousblockhash": "000000005e1d90d1e2c7b2349268b79c22eff24df16f8c0954b4125242e8f394",
  "nextblockhash": "00000000f351863005e8f240791c68ee047da2ff39be926ca5602e6daaef1368",
  "strippedsize": 216,
  "size": 216,
  "weight": 864,
  "tx": [
    {
      "txid": "a6c2a10c553058d102815c160e405797c8b30aa734687c24026bee69211c1a60",
      "hash": "a6c2a10c553058d102815c160e405797c8b30aa734687c24026bee69211c1a60",
      "version": 1,
      "size": 135,
      "vsize": 135,
      "weight": 540,
      "locktime": 0,
      "vin": [
        {
          "coinbase": "04ffff001d029902",
          "sequence": 4294967295
        }
      ],
      "vout": [
        {
          "value": 50.0,
          "n": 0,
          "scriptPubKey": {
            "asm": "04c3b282ce157146ed467b02a736e36bf90256d35c5190abe644432519053beeffea4b94a7ea10d92a90612a446db6962cdf928cf72500e4b3cdcc5d8f52ca24b4 OP_CHECKSIG",
            "desc": "pk(04c3b282ce157146ed467b02a736e36bf90256d35c5190abe644432519053beeffea4b94a7ea10d92a90612a446db6962cdf928cf72500e4b3cdcc5d8f52ca24b4)#3jy8cm5z",
            "hex": "4104c3b282ce157146ed467b02a736e36bf90256d35c5190abe644432519053beeffea4b94a7ea10d92a90612a446db6962cdf928cf72500e4b3cdcc5d8f52ca24b4ac",
            "type": "pubkey"
          }
        }
      ],
      "hex": "01000000010000000000000000000000000000000000000000000000000000000000000000ffffffff0804ffff001d029902ffffffff0100f2052a01000000434104c3b282ce157146ed467b02a736e36bf90256d35c5190abe644432519053beeffea4b94a7ea10d92a90612a446db6962cdf928cf72500e4b3cdcc5d8f52ca24b4ac00000000"
    }
  ]
}