{
  "hash": "00000000a1d2b05f887259a17753eea6915bcd20c83dbb1ade3d757c89fd7ac0",
  "confirmations": 44505,
  "height": 8593,
  "version": 1,
  "versionHex": "00000001",
  "merkleroot": "de05377d99544def6941d532ad41de8aa9069980a74f6eb8ac4839cd98ffd8db",
  "time": 1237946907,
  "mediantime": 1237941269,
  "nonce": 2479599104,
  "bits": "1d00ffff",
  "difficulty": 1,
  "chainwork": "0000000000000000000000000000000000000000000000000000219221922192",
  "nTx": 1,
  "previousblockhash": "0000000091a5658316c76291966d496f1ac3ace20ac937ccf02459f896806031",
  "nextblockhash": "00000000384cc6240e3c6c25d4fe1a8fda50e17d40aacd54c921de954fc0b9db",
  "strippedsize": 216,
  "size": 216,
  "weight": 864,
  "tx": [
    {
      "txid": "de05377d99544def6941d532ad41de8aa9069980a74f6eb8ac4839cd98ffd8db",
      "hash": "de05377d99544def6941d532ad41de8aa9069980a74f6eb8ac4839cd98ffd8db",
      "version": 1,
      "size": 135,
      "vsize": 135,
      "weight": 540,
      "locktime": 0,
      "vin": [
        {
          "coinbase": "04ffff001d027009",
          "sequence": 4294967295
        }
      ],
      "vout": [
        {
          "value": 50.0,
          "n": 0,
          "scriptPubKey": {
            "asm": "04d2e6140f64928baca2889cc188b659e31097b92d7fa76729302b95928ebd71561f3674533c27b7a3329dae9a97a70f4bd911eb5367d430df8dbbb6237591d25b OP_CHECKSIG",
            "desc": "pk(04d2e6140f64928baca2889cc188b659e31097b92d7fa76729302b95928ebd71561f3674533c27b7a3329dae9a97a70f4bd911eb5367d430df8dbbb6237591d25b)#qnpd6k8g",
            "hex": "4104d2e6140f64928baca2889cc188b659e31097b92d7fa76729302b95928ebd71561f3674533c27b7a3329dae9a97a70f4bd911eb5367d430df8dbbb6237591d25bac",
            "type": "pubkey"
          }
        }
      ],
      "hex": "01000000010000000000000000000000000000000000000000000000000000000000000000ffffffff0804ffff001d027009ffffffff0100f2052a01000000434104d2e6140f64928baca2889cc188b659e31097b92d7fa76729302b95928ebd71561f3674533c27b7a3329dae9a97a70f4bd911eb5367d430df8dbbb6237591d25bac00000000"
    }
  ]
}