{
  "hash": "00000000bdcba5a1acdd9363c35161e255a531a3e4974c76d0e43a88dac8bdc3",
  "confirmations": 50511,
  "height": 2587,
  "version": 1,
  "versionHex": "00000001",
  "merkleroot": "f7cd6a75be43cb594167e3f917425c95971362e2a91a036569bd9615615dc6fc",
  "time": 1233484318,
  "mediantime": 1233479298,
  "nonce": 3500045062,
  "bits": "1d00ffff",
  "difficulty": 1,
  "chainwork": "00000000000000000000000000000000000000000000000000000a1c0a1c0a1c",
  "nTx": 1,
  "previousblockhash": "000000005d2d3a1945055e423653faa725a430381f16dfa98e1d541721a67b35",
  "nextblockhash": "00000000826ba9819ae31fba3ffd2a377747331a7dd819d104e207518ba74021",
  "strippedsize": 216,
  "size": 216,
  "weight": 864,
  "tx": [
    {
      "txid": "f7cd6a75be43cb594167e3f917425c95971362e2a91a036569bd9615615dc6fc",
      "hash": "f7cd6a75be43cb594167e3f917425c95971362e2a91a036569bd9615615dc6fc",
      "version": 1,
      "size": 135,
      "vsize": 135,
      "weight": 540,
      "locktime": 0,
      "vin": [
        {
          "coinbase": "04ffff001d02b802",
          "sequence": 4294967295
        }
      ],
      "vout": [
        {
          "value": 50.0,
          "n": 0,
          "scriptPubKey": {
            "asm": "046fe7deb898c23c98916a2ad778c920c66d823b610e1cb256f889344f25666dbe6f94ac783722afa22fbbddfe5379f03139d897773d6d2bae3d5a663d66fc840a OP_CHECKSIG",
            "desc": "pk(046fe7deb898c23c98916a2ad778c920c66d823b610e1cb256f889344f25666dbe6f94ac783722afa22fbbddfe5379f03139d897773d6d2bae3d5a663d66fc840a)#lyst62vt",
            "hex": "41046fe7deb898c23c98916a2ad778c920c66d823b610e1cb256f889344f25666dbe6f94ac783722afa22fbbddfe5379f03139d897773d6d2bae3d5a663d66fc840aac",
            "type": "pubkey"
          }
        }
      ],
      "hex": "01000000010000000000000000000000000000000000000000000000000000000000000000ffffffff0804ffff001d02b802ffffffff0100f2052a010000004341046fe7deb898c23c98916a2ad778c920c66d823b610e1cb256f889344f25666dbe6f94ac783722afa22fbbddfe5379f03139d897773d6d2bae3d5a663d66fc840aac00000000"
    }
  ]
}