{
  "hash": "00000000fb738e8a6f04d0ea4f66cf5b7c250afd78b8127b8f8c0ed01d15acfd",
  "confirmations": 49703,
  "height": 3395,
  "version": 1,
  "versionHex": "00000001",
  "merkleroot": "0f9bc1f589ed5d73bfae04a6ad4a0f1e31cb9b76278da24b124cf0c8f278ade1",
  "time": 1234035271,
  "mediantime": 1234031681,
  "nonce": 1927828244,
  "bits": "1d00ffff",
  "difficulty": 1,
  "chainwork": "00000000000000000000000000000000000000000000000000000d440d440d44",
  "nTx": 1,
  "previousblockhash": "000000005c639e971b4264e37ea0622756ab3ae33a48ea7b4c241e517cfb85b7",
  "nextblockhash": "000000000cb848f8776ac17bd5624aa4d5064e059d46332d113ef2e606990a2b",
  "strippedsize": 216,
  "size": 216,
  "weight": 864,
  "tx": [
    {
      "txid": "0f9bc1f589ed5d73bfae04a6ad4a0f1e31cb9b76278da24b124cf0c8f278ade1",
      "hash": "0f9bc1f589ed5d73bfae04a6ad4a0f1e31cb9b76278da24b124cf0c8f278ade1",
      "version": 1,
      "size": 135,
      "vsize": 135,
      "weight": 540,
      "locktime": 0,
      "vin": [
        {
          "coinbase": "04ffff001d02aa05",
          "sequence": 4294967295
        }
      ],
      "vout": [
        {
          "value": 50.0,
          "n": 0,
          "scriptPubKey": {
            "asm": "04dae6a2cfc356e830d9bae2e3be49904ade1d48aa4977e10df93c71bbe18da5b95ac54f11f87ef6b3c369c7bd671df1cca3a09bb06d8e7da9271290b9b5894063 OP_CHECKSIG",
            "desc": "pk(04dae6a2cfc356e830d9bae2e3be49904ade1d48aa4977e10df93c71bbe18da5b95ac54f11f87ef6b3c369c7bd671df1cca3a09bb06d8e7da9271290b9b5894063)#2umap7n8",
            "hex": "4104dae6a2cfc356e830d9bae2e3be49904ade1d48aa4977e10df93c71bbe18da5b95ac54f11f87ef6b3c369c7bd671df1cca3a09bb06d8e7da9271290b9b5894063ac",
            "type": "pubkey"
          }
        }
      ],
      "hex": "01000000010000000000000000000000000000000000000000000000000000000000000000ffffffff0804ffff001d02aa05ffffffff0100f2052a01000000434104dae6a2cfc356e830d9bae2e3be49904ade1d48aa4977e10df93c71bbe18da5b95ac54f11f87ef6b3c369c7bd671df1cca3a09bb06d8e7da9271290b9b5894063ac00000000"
    }
  ]
}