{
  "hash": "00000000b5c44c71fc6d438a944f5b57c8fdb719dd7639fa94a14576a374598a",
  "confirmations": 46130,
  "height": 6968,
  "version": 1,
  "versionHex": "00000001",
  "merkleroot": "d85159c89fdb769718b4a11e20f1fa1abf28db3b0e1f218784c83dc8ed100fe0",
  "time": 1236692744,
  "mediantime": 1236689439,
  "nonce": 33350796,
  "bits": "1d00ffff",
  "difficulty": 1,
  "chainwork": "00000000000000000000000000000000000000000000000000001b391b391b39",
  "nTx": 1,
  "previousblockhash": "00000000a3a0c36cf5524cf13ec2cff8b87025992a4879f3f339e4fb848b3a16",
  "nextblockhash": "00000000545b95108c138019753166d1357acbd15766c791eb0ad63ebea6eb42",
  "strippedsize": 216,
  "size": 216,
  "weight": 864,
  "tx": [
    {
      "txid": "d85159c89fdb769718b4a11e20f1fa1abf28db3b0e1f218784c83dc8ed100fe0",
      "hash": "d85159c89fdb769718b4a11e20f1fa1abf28db3b0e1f218784c83dc8ed100fe0",
      "version": 1,
      "size": 135,
      "vsize": 135,
      "weight": 540,
      "locktime": 0,
      "vin": [
        {
          "coinbase": "04ffff001d02ca00",
          "sequence": 4294967295
        }
      ],
      "vout": [
        {
          "value": 50.0,
          "n": 0,
          "scriptPubKey": {
            "asm": "04a1f979849ec1202fe830b2508a4c6f776acac08aa368090a520e9547e5ad36b078ef41e004c36780375f9ac6ad2fb111fb7d734024e71d46829e21fc36e03fd8 OP_CHECKSIG",
            "desc": "pk(04a1f979849ec1202fe830b2508a4c6f776acac08aa368090a520e9547e5ad36b078ef41e004c36780375f9ac6ad2fb111fb7d734024e71d46829e21fc36e03fd8)#6734t6as",
            "hex": "4104a1f979849ec1202fe830b2508a4c6f776acac08aa368090a520e9547e5ad36b078ef41e004c36780375f9ac6ad2fb111fb7d734024e71d46829e21fc36e03fd8ac",
            "type": "pubkey"
          }
        }
      ],
      "hex": "01000000010000000000000000000000000000000000000000000000000000000000000000ffffffff0804ffff001d02ca00ffffffff0100f2052a01000000434104a1f979849ec1202fe830b2508a4c6f776acac08aa368090a520e9547e5ad36b078ef41e004c36780375f9ac6ad2fb111fb7d734024e71d46829e21fc36e03fd8ac00000000"
    }
  ]
}