{
  "hash": "00000000fe45448bacba3458f23ea03591766f94a53a278f8797ac7d59e50abf",
  "confirmations": 46028,
  "height": 7070,
  "version": 1,
  "versionHex": "00000001",
  "merkleroot": "4117f5c60f88b645d282acaac922e8e45bf6b11a7da36e6c77a6a379f5a66e7a",
  "time": 1236772940,
  "mediantime": 1236769178,
  "nonce": 1679782659,
  "bits": "1d00ffff",
  "difficulty": 1,
  "chainwork": "00000000000000000000000000000000000000000000000000001b9f1b9f1b9f",
  "nTx": 1,
  "previousblockhash": "00000000a87ca128a42507244953ad72320da7057c73141c125cb23881ca1aec",
  "nextblockhash": "00000000999ce780989805801b399602fde87ddfa9cfee24fc44b33793b181e4",
  "strippedsize": 216,
  "size": 216,
  "weight": 864,
  "tx": [
    {
      "txid": "4117f5c60f88b645d282acaac922e8e45bf6b11a7da36e6c77a6a379f5a66e7a",
      "hash": "4117f5c60f88b645d282acaac922e8e45bf6b11a7da36e6c77a6a379f5a66e7a",
      "version": 1,
      "size": 135,
      "vsize": 135,
      "weight": 540,
      "locktime": 0,
      "vin": [
        {
          "coinbase": "04ffff001d025f03",
          "sequence": 4294967295
        }
      ],
      "vout": [
        {
          "value": 50.0,
          "n": 0,
          "scriptPubKey": {
            "asm": "04b94c2e52a1f8c57e6f6f0fcff89b0b38af6dbff84e3dcc3fb320043721388fb8a26470e037ebaa1d8df5a6a73b346c78f5e6078bf51c920f01a95d355bc3283d OP_CHECKSIG",
            "desc": "pk(04b94c2e52a1f8c57e6f6f0fcff89b0b38af6dbff84e3dcc3fb320043721388fb8a26470e037ebaa1d8df5a6a73b346c78f5e6078bf51c920f01a95d355bc3283d)#47zwff5j",
            "hex": "4104b94c2e52a1f8c57e6f6f0fcff89b0b38af6dbff84e3dcc3fb320043721388fb8a26470e037ebaa1d8df5a6a73b346c78f5e6078bf51c920f01a95d355bc3283dac",
            "type": "pubkey"
          }
        }
      ],
      "hex": "01000000010000000000000000000000000000000000000000000000000000000000000000ffffffff0804ffff001d025f03ffffffff0100f2052a01000000434104b94c2e52a1f8c57e6f6f0fcff89b0b38af6dbff84e3dcc3fb320043721388fb8a26470e037ebaa1d8df5a6a73b346c78f5e6078bf51c920f01a95d355bc3283dac00000000"
    }
  ]
}