{
  "hash": "000000001e2e1d2434b7a484ba71e34b5e76d665eeef0f2e7dbe77784b71e045",
  "confirmations": 47423,
  "height": 5675,
  "version": 1,
  "versionHex": "00000001",
  "merkleroot": "cf2c8082470a60a720f1eba88af861bbb9dff456f45e794c0ffeb2e0c2bc47f7",
  "time": 1235670865,
  "mediantime": 1235666102,
  "nonce": 756914715,
  "bits": "1d00ffff",
  "difficulty": 1,
  "chainwork": "0000000000000000000000000000000000000000000000000000162c162c162c",
  "nTx": 1,
  "previousblockhash": "0000000041a4c447be35d04d14eba4764a359e3798001a44406152ad67d12587",
  "nextblockhash": "000000004f896c12fb04bfc61e3d8ee6a39b74948fb7344dd7dd1b7017da5e50",
  "strippedsize": 216,
  "size": 216,
  "weight": 864,
  "tx": [
    {
      "txid": "cf2c8082470a60a720f1eba88af861bbb9dff456f45e794c0ffeb2e0c2bc47f7",
      "hash": "cf2c8082470a60a720f1eba88af861bbb9dff456f45e794c0ffeb2e0c2bc47f7",
      "version": 1,
      "size": 135,
      "vsize": 135,
      "weight": 540,
      "locktime": 0,
      "vin": [
        {
          "coinbase": "04ffff001d020c09",
          "sequence": 4294967295
        }
      ],
      "vout": [
        {
          "value": 50.0,
          "n": 0,
          "scriptPubKey": {
            "asm": "04a797f3bb7b731c25f1a83969b98238bb4ea767414f3a8e6b084746a8215119b331639aa580bddb70d342a5b857eca3b00dd5b8e44834176653c09a888578bbc6 OP_CHECKSIG",
            "desc": "pk(04a797f3bb7b731c25f1a83969b98238bb4ea767414f3a8e6b084746a8215119b331639aa580bddb70d342a5b857eca3b00dd5b8e44834176653c09a888578bbc6)#0a9w35jd",
            "hex": "4104a797f3bb7b731c25f1a83969b98238bb4ea767414f3a8e6b084746a8215119b331639aa580bddb70d342a5b857eca3b00dd5b8e44834176653c09a888578bbc6ac",
            "type": "pubkey"
          }
        }
      ],
      "hex": "01000000010000000000000000000000000000000000000000000000000000000000000000ffffffff0804ffff001d020c09ffffffff0100f2052a01000000434104a797f3bb7b731c25f1a83969b98238bb4ea767414f3a8e6b084746a8215119b331639aa580bddb70d342a5b857eca3b00dd5b8e44834176653c09a888578bbc6ac00000000"
    }
  ]
}