{
  "hash": "0000000050a58f5c3fa7c44401783b5980eda151a67539455c3c3119842d1471",
  "confirmations": 46206,
  "height": 6892,
  "version": 1,
  "versionHex": "00000001",
  "merkleroot": "51b0725a544a1176df6b662502345cb8890c523969cf0fd0866589c738bed141",
  "time": 1236631249,
  "mediantime": 1236626466,
  "nonce": 1177736238,
  "bits": "1d00ffff",
  "difficulty": 1,
  "chainwork": "00000000000000000000000000000000000000000000000000001aed1aed1aed",
  "nTx": 1,
  "previousblockhash": "00000000edaa8a068b03459d4e3fd1979bb69ae46cd8233d422388385d98e77a",
  "nextblockhash": "00000000b8b8ddc7b3a454eb9be11de1d0673500abcd6ca1eb3e770bd2a627f9",
  "strippedsize": 215,
  "size": 215,
  "weight": 860,
  "tx": [
    {
      "txid": "51b0725a544a1176df6b662502345cb8890c523969cf0fd0866589c738bed141",
      "hash": "51b0725a544a1176df6b662502345cb8890c523969cf0fd0866589c738bed141",
      "version": 1,
      "size": 134,
      "vsize": 134,
      "weight": 536,
      "locktime": 0,
      "vin": [
        {
          "coinbase": "04ffff001d0133",
          "sequence": 4294967295
        }
      ],
      "vout": [
        {
          "value": 50.0,
          "n": 0,
          "scriptPubKey": {
            "asm": "0415a5ca403054232eda182b59bdfd5d3b9e09cdf0432ff776829b00752dc5fa5b754a2d23952607bd8910aba1a4f2eefa3dc82973fd739eea359c952e8128d88f OP_CHECKSIG",
            "desc": "pk(0415a5ca403054232eda182b59bdfd5d3b9e09cdf0432ff776829b00752dc5fa5b754a2d23952607bd8910aba1a4f2eefa3dc82973fd739eea359c952e8128d88f)#she5dkpc",
            "hex": "410415a5ca403054232eda182b59bdfd5d3b9e09cdf0432ff776829b00752dc5fa5b754a2d23952607bd8910aba1a4f2eefa3dc82973fd739eea359c952e8128d88fac",
            "type": "pubkey"
          }
        }
      ],
      "hex": "01000000010000000000000000000000000000000000000000000000000000000000000000ffffffff0704ffff001d0133ffffffff0100f2052a0100000043410415a5ca403054232eda182b59bdfd5d3b9e09cdf0432ff776829b00752dc5fa5b754a2d23952607bd8910aba1a4f2eefa3dc82973fd739eea359c952e8128d88fac00000000"
    }
  ]
}