{
  "hash": "00000000f4f564d85a8df237bde4f269e57b097a13420a91bc4931d01e15dc46",
  "confirmations": 44325,
  "height": 8773,
  "version": 1,
  "versionHex": "00000001",
  "merkleroot": "c125d9388a760dccf232948f7989a4750bd671ea3291f7a0b1bd9653d6a7b787",
  "time": 1238079222,
  "mediantime": 1238075709,
  "nonce": 492541956,
  "bits": "1d00ffff",
  "difficulty": 1,
  "chainwork": "0000000000000000000000000000000000000000000000000000224622462246",
  "nTx": 1,
  "previousblockhash": "0000000063fc68d96b5575f5725f3ed89c1cb13b1bd6de88aeec2685e295a2c8",
  "nextblockhash": "00000000a996331c70cb7814d126c01e7bea080a5fe2cf5b63d0cc09d41aa2d6",
  "strippedsize": 216,
  "size": 216,
  "weight": 864,
  "tx": [
    {
      "txid": "c125d9388a760dccf232948f7989a4750bd671ea3291f7a0b1bd9653d6a7b787",
      "hash": "c125d9388a760dccf232948f7989a4750bd671ea3291f7a0b1bd9653d6a7b787",
      "version": 1,
      "size": 135,
      "vsize": 135,
      "weight": 540,
      "locktime": 0,
      "vin": [
        {
          "coinbase": "04ffff001d021e02",
          "sequence": 4294967295
        }
      ],
      "vout": [
        {
          "value": 50.0,
          "n": 0,
          "scriptPubKey": {
            "asm": "04dd4238e6ff8a15b4e9a91a6d34cbf2b97148ce197693920a4d510f5c9dad08d737f8c815797d4dc1e3b521f4acffb68640c9b7707e4804b0b92725232ccd0e48 OP_CHECKSIG",
            "desc": "pk(04dd4238e6ff8a15b4e9a91a6d34cbf2b97148ce197693920a4d510f5c9dad08d737f8c815797d4dc1e3b521f4acffb68640c9b7707e4804b0b92725232ccd0e48)#5qadzc5v",
            "hex": "4104dd4238e6ff8a15b4e9a91a6d34cbf2b97148ce197693920a4d510f5c9dad08d737f8c815797d4dc1e3b521f4acffb68640c9b7707e4804b0b92725232ccd0e48ac",
            "type": "pubkey"
          }
        }
      ],
      "hex": "01000000010000000000000000000000000000000000000000000000000000000000000000ffffffff0804ffff001d021e02ffffffff0100f2052a01000000434104dd4238e6ff8a15b4e9a91a6d34cbf2b97148ce197693920a4d510f5c9dad08d737f8c815797d4dc1e3b521f4acffb68640c9b7707e4804b0b92725232ccd0e48ac00000000"
    }
  ]
}