{
  "hash": "000000002f10da7a6a0c302a3a800722764a863e32fa1730cafacce35cb023b8",
  "confirmations": 52161,
  "height": 383,
  "version": 1,
  "versionHex": "00000001",
  "merkleroot": "70139795c7d79f2205ebc0092bf0aa19a0ffeab0a6fa0416b986dfb3c3d03fa5",
  "time": 1231889357,
  "mediantime": 1231885847,
  "nonce": 3858182956,
  "bits": "1d00ffff",
  "difficulty": 1,
  "chainwork": "0000000000000000000000000000000000000000000000000000018001800180",
  "nTx": 1,
  "previousblockhash": "0000000018844c2a38f9ff9e018ba5ef9e02780b8d6fe3ce63fd4a6136633ed7",
  "nextblockhash": "00000000a82a81f206e2bee2fc10dfcc107ad1a56312e0ebe94cffc1d05e7def",
  "strippedsize": 216,
  "size": 216,
  "weight": 864,
  "tx": [
    {
      "txid": "70139795c7d79f2205ebc0092bf0aa19a0ffeab0a6fa0416b986dfb3c3d03fa5",
      "hash": "70139795c7d79f2205ebc0092bf0aa19a0ffeab0a6fa0416b986dfb3c3d03fa5",
      "version": 1,
      "size": 135,
      "vsize": 135,
      "weight": 540,
      "locktime": 0,
      "vin": [
        {
          "coinbase": "04ffff001d022102",
          "sequence": 4294967295
        }
      ],
      "vout": [
        {
          "value": 50.0,
          "n": 0,
          "scriptPubKey": {
            "asm": "04b4b28f4ef5a8348961a778b4b67549516c3fe72611a050a643cdc12f0d2977dd5ebc32df20312c724ca3953d60470a19f531c41e512d0390964ad7ef5111a7aa OP_CHECKSIG",
            "desc": "pk(04b4b28f4ef5a8348961a778b4b67549516c3fe72611a050a643cdc12f0d2977dd5ebc32df20312c724ca3953d60470a19f531c41e512d0390964ad7ef5111a7aa)#ywd89p5y",
            "hex": "4104b4b28f4ef5a8348961a778b4b67549516c3fe72611a050a643cdc12f0d2977dd5ebc32df20312c724ca3953d60470a19f531c41e512d0390964ad7ef5111a7aaac",
            "type": "pubkey"
          }
        }
      ],
      "hex": "01000000010000000000000000000000000000000000000000000000000000000000000000ffffffff0804ffff001d022102ffffffff0100f2052a01000000434104b4b28f4ef5a8348961a778b4b67549516c3fe72611a050a643cdc12f0d2977dd5ebc32df20312c724ca3953d60470a19f531c41e512d0390964ad7ef5111a7aaac00000000"
    }
  ]
}