{
  "hash": "000000000477ad4733fe68d6f813c81110d8bb886af9ee892b37b06c1399f6fd",
  "confirmations": 46813,
  "height": 6285,
  "version": 1,
  "versionHex": "00000001",
  "merkleroot": "59adb2041753d3aff87cb2af136387165c2487f4930587234c8aa605c829b061",
  "time": 1236158810,
  "mediantime": 1236153823,
  "nonce": 568509724,
  "bits": "1d00ffff",
  "difficulty": 1,
  "chainwork": "0000000000000000000000000000000000000000000000000000188e188e188e",
  "nTx": 1,
  "previousblockhash": "0000000012b510fdff8ac104c294afbb0248834d1c89661ebcb35f88dbe8fe53",
  "nextblockhash": "000000001949d2e66888c9f734f4d061e5dc942fc5b399ee3dc3f67dd8663ed7",
  "strippedsize": 216,
  "size": 216,
  "weight": 864,
  "tx": [
    {
      "txid": "59adb2041753d3aff87cb2af136387165c2487f4930587234c8aa605c829b061",
      "hash": "59adb2041753d3aff87cb2af136387165c2487f4930587234c8aa605c829b061",
      "version": 1,
      "size": 135,
      "vsize": 135,
      "weight": 540,
      "locktime": 0,
      "vin": [
        {
          "coinbase": "04ffff001d02180a",
          "sequence": 4294967295
        }
      ],
      "vout": [
        {
          "value": 50.0,
          "n": 0,
          "scriptPubKey": {
            "asm": "04b148d56088b1e4c077573e2d0499077f99c4b259369c47d6f322804a8abdc72c2ce022989644d25846a16b50cbcefe43e1deff16d36a0673916df71d83b1289f OP_CHECKSIG",
            "desc": "pk(04b148d56088b1e4c077573e2d0499077f99c4b259369c47d6f322804a8abdc72c2ce022989644d25846a16b50cbcefe43e1deff16d36a0673916df71d83b1289f)#ffqmnr2h",
            "hex": "4104b148d56088b1e4c077573e2d0499077f99c4b259369c47d6f322804a8abdc72c2ce022989644d25846a16b50cbcefe43e1deff16d36a0673916df71d83b1289fac",
            "type": "pubkey"
          }
        }
      ],
      "hex": "01000000010000000000000000000000000000000000000000000000000000000000000000ffffffff0804ffff001d02180affffffff0100f2052a01000000434104b148d56088b1e4c077573e2d0499077f99c4b259369c47d6f322804a8abdc72c2ce022989644d25846a16b50cbcefe43e1deff16d36a0673916df71d83b1289fac00000000"
    }
  ]
}