{
  "hash": "00000000f5db965f7137dc1776a87c9846b54c9851f955e69ae0234bfb996496",
  "confirmations": 43604,
  "height": 9494,
  "version": 1,
  "versionHex": "00000001",
  "merkleroot": "2c53e6dd8bce55cfaf9acf2b2318a413945c7c92560c86152c4ff91515d27e1d",
  "time": 1238624728,
  "mediantime": 1238621625,
  "nonce": 655293980,
  "bits": "1d00ffff",
  "difficulty": 1,
  "chainwork": "0000000000000000000000000000000000000000000000000000251725172517",
  "nTx": 1,
  "previousblockhash": "00000000b37596a3da4047bd87f87308fcd341f4cde8e6c7e6e1e490b0e9a80b",
  "nextblockhash": "000000001b2e09818f9532fd3cc10ab377057d49ad36fd41c3e8534476c08f60",
  "strippedsize": 216,
  "size": 216,
  "weight": 864,
  "tx": [
    {
      "txid": "2c53e6dd8bce55cfaf9acf2b2318a413945c7c92560c86152c4ff91515d27e1d",
      "hash": "2c53e6dd8bce55cfaf9acf2b2318a413945c7c92560c86152c4ff91515d27e1d",
      "version": 1,
      "size": 135,
      "vsize": 135,
      "weight": 540,
      "locktime": 0,
      "vin": [
        {
          "coinbase": "04ffff001d026705",
          "sequence": 4294967295
        }
      ],
      "vout": [
        {
          "value": 50.0,
          "n": 0,
          "scriptPubKey": {
            "asm": "04518b5e0d5d2d2f525861906a63cac12f039ce7ff4add78859c54e1f823fc5f51ae6a96ee86172e4fcb10a5f451cecb2615e34ceb5f786b4eb7122567ec692a56 OP_CHECKSIG",
            "desc": "pk(04518b5e0d5d2d2f525861906a63cac12f039ce7ff4add78859c54e1f823fc5f51ae6a96ee86172e4fcb10a5f451cecb2615e34ceb5f786b4eb7122567ec692a56)#dz24pqx2",
            "hex": "4104518b5e0d5d2d2f525861906a63cac12f039ce7ff4add78859c54e1f823fc5f51ae6a96ee86172e4fcb10a5f451cecb2615e34ceb5f786b4eb7122567ec692a56ac",
            "type": "pubkey"
          }
        }
      ],
      "hex": "01000000010000000000000000000000000000000000000000000000000000000000000000ffffffff0804ffff001d026705ffffffff0100f2052a01000000434104518b5e0d5d2d2f525861906a63cac12f039ce7ff4add78859c54e1f823fc5f51ae6a96ee86172e4fcb10a5f451cecb2615e34ceb5f786b4eb7122567ec692a56ac00000000"
    }
  ]
}