{
  "hash": "000000002f032e44c72e21f5205f5fe315b7b8abdcdcf0a06cf543b69d4ab3be",
  "confirmations": 47801,
  "height": 5297,
  "version": 1,
  "versionHex": "00000001",
  "merkleroot": "7db84e12f36b87be7cc4d548bff3025a2859e0c2b73c85212afdbbdd4ceda735",
  "time": 1235359585,
  "mediantime": 1235355102,
  "nonce": 737524262,
  "bits": "1d00ffff",
  "difficulty": 1,
  "chainwork": "000000000000000000000000000000000000000000000000000014b214b214b2",
  "nTx": 1,
  "previousblockhash": "00000000427e457ae1d44c88e78ac0685f2dbbc192dc2318728053e8b77a7603",
  "nextblockhash": "00000000e2eeb57fc6231266a1b53b65543dc6f1dcd0ee7a91e43c9755d5cc7f",
  "strippedsize": 216,
  "size": 216,
  "weight": 864,
  "tx": [
    {
      "txid": "7db84e12f36b87be7cc4d548bff3025a2859e0c2b73c85212afdbbdd4ceda735",
      "hash": "7db84e12f36b87be7cc4d548bff3025a2859e0c2b73c85212afdbbdd4ceda735",
      "version": 1,
      "size": 135,
      "vsize": 135,
      "weight": 540,
      "locktime": 0,
      "vin": [
        {
          "coinbase": "04ffff001d020202",
          "sequence": 4294967295
        }
      ],
      "vout": [
        {
          "value": 50.0,
          "n": 0,
          "scriptPubKey": {
            "asm": "040c53deb57f7dbceae2ad69200a8bb931f694be2a7ef9703be9ff045c745dd1c4c5f804d1b1b15cda54d6e221a0aa8a5983d8b875b8d4e8cdd49160fa5a70dc01 OP_CHECKSIG",
            "desc": "pk(040c53deb57f7dbceae2ad69200a8bb931f694be2a7ef9703be9ff045c745dd1c4c5f804d1b1b15cda54d6e221a0aa8a5983d8b875b8d4e8cdd49160fa5a70dc01)#psex34ck",
            "hex": "41040c53deb57f7dbceae2ad69200a8bb931f694be2a7ef9703be9ff045c745dd1c4c5f804d1b1b15cda54d6e221a0aa8a5983d8b875b8d4e8cdd49160fa5a70dc01ac",
            "type": "pubkey"
          }
        }
      ],
      "hex": "01000000010000000000000000000000000000000000000000000000000000000000000000ffffffff0804ffff001d020202ffffffff0100f2052a010000004341040c53deb57f7dbceae2ad69200a8bb931f694be2a7ef9703be9ff045c745dd1c4c5f804d1b1b15cda54d6e221a0aa8a5983d8b875b8d4e8cdd49160fa5a70dc01ac00000000"
    }
  ]
}