{
  "hash": "00000000b1a0b6efd5dcb96f42c49d59c5a370625ead796ebcea91f3915e2b75",
  "confirmations": 48240,
  "height": 4858,
  "version": 1,
  "versionHex": "00000001",
  "merkleroot": "3a4947f08e15d0a48e67940b764aac6da2a0344225734c1b05f534fb8d60d046",
  "time": 1235043245,
  "mediantime": 1235039018,
  "nonce": 2936862508,
  "bits": "1d00ffff",
  "difficulty": 1,
  "chainwork": "000000000000000000000000000000000000000000000000000012fb12fb12fb",
  "nTx": 1,
  "previousblockhash": "0000000099c584e4ef5403c7d2dadad3fb0217c8f5a0efac11f505190cb5a6ba",
  "nextblockhash": "0000000006724c2a97ea66bb93fabfc5e414044813113ba8fc6f015bd298fb92",
  "strippedsize": 216,
  "size": 216,
  "weight": 864,
  "tx": [
    {
      "txid": "3a4947f08e15d0a48e67940b764aac6da2a0344225734c1b05f534fb8d60d046",
      "hash": "3a4947f08e15d0a48e67940b764aac6da2a0344225734c1b05f534fb8d60d046",
      "version": 1,
      "size": 135,
      "vsize": 135,
      "weight": 540,
      "locktime": 0,
      "vin": [
        {
          "coinbase": "04ffff001d022605",
          "sequence": 4294967295
        }
      ],
      "vout": [
        {
          "value": 50.0,
          "n": 0,
          "scriptPubKey": {
            "asm": "0435b79bce215f46f386f2c9e4d00a8a7786b2bd449de7d25ed03526bb9096109ee41c24dc2c816ce06c804c549fa211b3555de455feb66ef4787a2cfbe733831f OP_CHECKSIG",
            "desc": "pk(0435b79bce215f46f386f2c9e4d00a8a7786b2bd449de7d25ed03526bb9096109ee41c24dc2c816ce06c804c549fa211b3555de455feb66ef4787a2cfbe733831f)#jysrk4xu",
            "hex": "410435b79bce215f46f386f2c9e4d00a8a7786b2bd449de7d25ed03526bb9096109ee41c24dc2c816ce06c804c549fa211b3555de455feb66ef4787a2cfbe733831fac",
            "type": "pubkey"
          }
        }
      ],
      "hex": "01000000010000000000000000000000000000000000000000000000000000000000000000ffffffff0804ffff001d022605ffffffff0100f2052a0100000043410435b79bce215f46f386f2c9e4d00a8a7786b2bd449de7d25ed03526bb9096109ee41c24dc2c816ce06c804c549fa211b3555de455feb66ef4787a2cfbe733831fac00000000"
    }
  ]
}