{
  "hash": "00000000999dc4ea5312d6d9db4613f064706bf51ba542360a164de46fab9c0e",
  "confirmations": 50067,
  "height": 3031,
  "version": 1,
  "versionHex": "00000001",
  "merkleroot": "4a6d7274cf2dacfe37650d1f07d0b09f3bc7b498219092e863bae39d40b88369",
  "time": 1233783103,
  "mediantime": 1233780106,
  "nonce": 3201886262,
  "bits": "1d00ffff",
  "difficulty": 1,
  "chainwork": "00000000000000000000000000000000000000000000000000000bd80bd80bd8",
  "nTx": 1,
  "previousblockhash": "00000000b7b927177c9fadc4a393e12a0b05aa71d66cd8db2ade5e86e6e0fc8a",
  "nextblockhash": "000000007eb7ae764c9ea9ddf8f11ea576616a2fcccd0720f48bcde18b4f9ecd",
  "strippedsize": 216,
  "size": 216,
  "weight": 864,
  "tx": [
    {
      "txid": "4a6d7274cf2dacfe37650d1f07d0b09f3bc7b498219092e863bae39d40b88369",
      "hash": "4a6d7274cf2dacfe37650d1f07d0b09f3bc7b498219092e863bae39d40b88369",
      "version": 1,
      "size": 135,
      "vsize": 135,
      "weight": 540,
      "locktime": 0,
      "vin": [
        {
          "coinbase": "04ffff001d02d301",
          "sequence": 4294967295
        }
      ],
      "vout": [
        {
          "value": 50.0,
          "n": 0,
          "scriptPubKey": {
            "asm": "04374351d3c0dfbcd6752c11a0c3ed31d14d9da4b6b2ac951bd3e29f5bdbf852d5139a3699b77ea322ecb9a7dfeba4297dfc962b6863483393e8b6e1727188922c OP_CHECKSIG",
            "desc": "pk(04374351d3c0dfbcd6752c11a0c3ed31d14d9da4b6b2ac951bd3e29f5bdbf852d5139a3699b77ea322ecb9a7dfeba4297dfc962b6863483393e8b6e1727188922c)#gf6kp940",
            "hex": "4104374351d3c0dfbcd6752c11a0c3ed31d14d9da4b6b2ac951bd3e29f5bdbf852d5139a3699b77ea322ecb9a7dfeba4297dfc962b6863483393e8b6e1727188922cac",
            "type": "pubkey"
          }
        }
      ],
      "hex": "01000000010000000000000000000000000000000000000000000000000000000000000000ffffffff0804ffff001d02d301ffffffff0100f2052a01000000434104374351d3c0dfbcd6752c11a0c3ed31d14d9da4b6b2ac951bd3e29f5bdbf852d5139a3699b77ea322ecb9a7dfeba4297dfc962b6863483393e8b6e1727188922cac00000000"
    }
  ]
}