{
  "hash": "000000000a5bd621b698d946db9efde3bd5813a261a34d03213307bfa86ad341",
  "confirmations": 45613,
  "height": 7485,
  "version": 1,
  "versionHex": "00000001",
  "merkleroot": "24d5cb8a7123a1735198009e167f6cf9b8863095d3272765385e0183c42247e0",
  "time": 1237084855,
  "mediantime": 1237082254,
  "nonce": 3030852404,
  "bits": "1d00ffff",
  "difficulty": 1,
  "chainwork": "00000000000000000000000000000000000000000000000000001d3e1d3e1d3e",
  "nTx": 1,
  "previousblockhash": "000000006c9bb0c118496752862d318f356af7d1f0a751c4bd85c5786ff44e95",
  "nextblockhash": "0000000056be2a39e6ebc28768c1966103f07dd743f0e4e2bfe505d0fa12f2a0",
  "strippedsize": 216,
  "size": 216,
  "weight": 864,
  "tx": [
    {
      "txid": "24d5cb8a7123a1735198009e167f6cf9b8863095d3272765385e0183c42247e0",
      "hash": "24d5cb8a7123a1735198009e167f6cf9b8863095d3272765385e0183c42247e0",
      "version": 1,
      "size": 135,
      "vsize": 135,
      "weight": 540,
      "locktime": 0,
      "vin": [
        {
          "coinbase": "04ffff001d02ae00",
          "sequence": 4294967295
        }
      ],
      "vout": [
        {
          "value": 50.0,
          "n": 0,
          "scriptPubKey": {
            "asm": "0482a5f6ae361df9dadc012b134a9a1c42c765b2bb5835cfec9f0c9fb6e1b48002ce89ad22770b6db1a0610c6f8ed8386ef752fa4c68eccb6ae3dd4e0997f9c8fc OP_CHECKSIG",
            "desc": "pk(0482a5f6ae361df9dadc012b134a9a1c42c765b2bb5835cfec9f0c9fb6e1b48002ce89ad22770b6db1a0610c6f8ed8386ef752fa4c68eccb6ae3dd4e0997f9c8fc)#m9hsnezx",
            "hex": "410482a5f6ae361df9dadc012b134a9a1c42c765b2bb5835cfec9f0c9fb6e1b48002ce89ad22770b6db1a0610c6f8ed8386ef752fa4c68eccb6ae3dd4e0997f9c8fcac",
            "type": "pubkey"
          }
        }
      ],
      "hex": "01000000010000000000000000000000000000000000000000000000000000000000000000ffffffff0804ffff001d02ae00ffffffff0100f2052a0100000043410482a5f6ae361df9dadc012b134a9a1c42c765b2bb5835cfec9f0c9fb6e1b48002ce89ad22770b6db1a0610c6f8ed8386ef752fa4c68eccb6ae3dd4e0997f9c8fcac00000000"
    }
  ]
}