{
  "hash": "000000004963669f3b1276e3222d0a6539fad4ca5b1bb5e7150af49f5c6751f1",
  "confirmations": 51356,
  "height": 1742,
  "version": 1,
  "versionHex": "00000001",
  "merkleroot": "cd3b55960fdbb068cb447fa11afd752a6ed2f735a1b97ad38e9182638972db8e",
  "time": 1232871091,
  "mediantime": 1232867752,
  "nonce": 3879394824,
  "bits": "1d00ffff",
  "difficulty": 1,
  "chainwork": "000000000000000000000000000000000000000000000000000006cf06cf06cf",
  "nTx": 1,
  "previousblockhash": "000000006218458103c5aa28f412e6d56bf660eca974d0e53aa5b5916f08de68",
  "nextblockhash": "0000000062ae6360470475642d32e20fea058d523b9eb55f8eef54d77a4aad52",
  "strippedsize": 216,
  "size": 216,
  "weight": 864,
  "tx": [
    {
      "txid": "cd3b55960fdbb068cb447fa11afd752a6ed2f735a1b97ad38e9182638972db8e",
      "hash": "cd3b55960fdbb068cb447fa11afd752a6ed2f735a1b97ad38e9182638972db8e",
      "version": 1,
      "size": 135,
      "vsize": 135,
      "weight": 540,
      "locktime": 0,
      "vin": [
        {
          "coinbase": "04ffff001d025603",
          "sequence": 4294967295
        }
      ],
      "vout": [
        {
          "value": 50.0,
          "n": 0,
          "scriptPubKey": {
            "asm": "04a0419cb9ff97abc5ea74a598eb9677387362fe2dca80e57292af3a25a658c9e9cf8eab82d977e52ba1feeb3860179022084f6f160aa24210fe503693d0a35d5d OP_CHECKSIG",
            "desc": "pk(04a0419cb9ff97abc5ea74a598eb9677387362fe2dca80e57292af3a25a658c9e9cf8eab82d977e52ba1feeb3860179022084f6f160aa24210fe503693d0a35d5d)#m0u6p4r5",
            "hex": "4104a0419cb9ff97abc5ea74a598eb9677387362fe2dca80e57292af3a25a658c9e9cf8eab82d977e52ba1feeb3860179022084f6f160aa24210fe503693d0a35d5dac",
            "type": "pubkey"
          }
        }
      ],
      "hex": "01000000010000000000000000000000000000000000000000000000000000000000000000ffffffff0804ffff001d025603ffffffff0100f2052a01000000434104a0419cb9ff97abc5ea74a598eb9677387362fe2dca80e57292af3a25a658c9e9cf8eab82d977e52ba1feeb3860179022084f6f160aa24210fe503693d0a35d5dac00000000"
    }
  ]
}