{
  "hash": "00000000624e884ddacab5333c63d7dd76e39e90ea5eee9000166ead7a8e481d",
  "confirmations": 43894,
  "height": 9204,
  "version": 1,
  "versionHex": "00000001",
  "merkleroot": "7f63eb36ae54e5e061b5ce3cbdf0462fde51c0ded5b9e1f39805c5a4d9aa41eb",
  "time": 1238402224,
  "mediantime": 1238397746,
  "nonce": 176680009,
  "bits": "1d00ffff",
  "difficulty": 1,
  "chainwork": "000000000000000000000000000000000000000000000000000023f523f523f5",
  "nTx": 1,
  "previousblockhash": "000000004b6ef9dddb39296ab3665db7d0c231addcc18e225d1bda2394375d9c",
  "nextblockhash": "00000000d8c7462406aecd109949b6acdebe5a60c1c63f97783e5281f331c296",
  "strippedsize": 216,
  "size": 216,
  "weight": 864,
  "tx": [
    {
      "txid": "7f63eb36ae54e5e061b5ce3cbdf0462fde51c0ded5b9e1f39805c5a4d9aa41eb",
      "hash": "7f63eb36ae54e5e061b5ce3cbdf0462fde51c0ded5b9e1f39805c5a4d9aa41eb",
      "version": 1,
      "size": 135,
      "vsize": 135,
      "weight": 540,
      "locktime": 0,
      "vin": [
        {
          "coinbase": "04ffff001d02df05",
          "sequence": 4294967295
        }
      ],
      "vout": [
        {
          "value": 50.0,
          "n": 0,
          "scriptPubKey": {
            "asm": "040e9185605d1c88a8052786297209a26a01c6e97820e817c72b9972ce6f1c199a45df5bd429181b2b3a93f701bdc3753a9b6c8529149f629bc4524a75608bae8c OP_CHECKSIG",
            "desc": "pk(040e9185605d1c88a8052786297209a26a01c6e97820e817c72b9972ce6f1c199a45df5bd429181b2b3a93f701bdc3753a9b6c8529149f629bc4524a75608bae8c)#ljxfa7s9",
            "hex": "41040e9185605d1c88a8052786297209a26a01c6e97820e817c72b9972ce6f1c199a45df5bd429181b2b3a93f701bdc3753a9b6c8529149f629bc4524a75608bae8cac",
            "type": "pubkey"
          }
        }
      ],
      "hex": "01000000010000000000000000000000000000000000000000000000000000000000000000ffffffff0804ffff001d02df05ffffffff0100f2052a010000004341040e9185605d1c88a8052786297209a26a01c6e97820e817c72b9972ce6f1c199a45df5bd429181b2b3a93f701bdc3753a9b6c8529149f629bc4524a75608bae8cac00000000"
    }
  ]
}