{
  "hash": "0000000021d65a95f991084f2da13678dccb6f9ad438812ee0f67571fdb58e7f",
  "confirmations": 45153,
  "height": 7945,
  "version": 1,
  "versionHex": "00000001",
  "merkleroot": "a835694da200291f5cba454ffcc76082d42dcbf163aa0b2a0528db547f987a50",
  "time": 1237423733,
  "mediantime": 1237420540,
  "nonce": 51473571,
  "bits": "1d00ffff",
  "difficulty": 1,
  "chainwork": "00000000000000000000000000000000000000000000000000001f0a1f0a1f0a",
  "nTx": 1,
  "previousblockhash": "0000000021d3b1decac58027e42da53c9540d3568a8c12f4f03d2e2a5c752814",
  "nextblockhash": "000000002fa17e8f97fb9326f280738df4769e7e125b8262d0e07ce1bd43df3a",
  "strippedsize": 216,
  "size": 216,
  "weight": 864,
  "tx": [
    {
      "txid": "a835694da200291f5cba454ffcc76082d42dcbf163aa0b2a0528db547f987a50",
      "hash": "a835694da200291f5cba454ffcc76082d42dcbf163aa0b2a0528db547f987a50",
      "version": 1,
      "size": 135,
      "vsize": 135,
      "weight": 540,
      "locktime": 0,
      "vin": [
        {
          "coinbase": "04ffff001d021a01",
          "sequence": 4294967295
        }
      ],
      "vout": [
        {
          "value": 50.0,
          "n": 0,
          "scriptPubKey": {
            "asm": "04bafbf6a98e5be96bacc3708ab2c3d4699f82407a70fc31bacad7519f507a9524435a00aba23aa943f3908e35026792b46efe0166599fcee0df12bfcbb2d9c0a9 OP_CHECKSIG",
            "desc": "pk(04bafbf6a98e5be96bacc3708ab2c3d4699f82407a70fc31bacad7519f507a9524435a00aba23aa943f3908e35026792b46efe0166599fcee0df12bfcbb2d9c0a9)#3347xm2t",
            "hex": "4104bafbf6a98e5be96bacc3708ab2c3d4699f82407a70fc31bacad7519f507a9524435a00aba23aa943f3908e35026792b46efe0166599fcee0df12bfcbb2d9c0a9ac",
            "type": "pubkey"
          }
        }
      ],
      "hex": "01000000010000000000000000000000000000000000000000000000000000000000000000ffffffff0804ffff001d021a01ffffffff0100f2052a01000000434104bafbf6a98e5be96bacc3708ab2c3d4699f82407a70fc31bacad7519f507a9524435a00aba23aa943f3908e35026792b46efe0166599fcee0df12bfcbb2d9c0a9ac00000000"
    }
  ]
}