{
  "hash": "00000000309014d78fc7440362c8ae0599e79557fe7bd0c94172dbc8c050ba5e",
  "confirmations": 52557,
  "height": 524,
  "version": 1,
  "versionHex": "00000001",
  "merkleroot": "113a8813ba5675f6665ba0e4c2d3dee743979a11ae5866321cf90e31fec2d720",
  "time": 1231983986,
  "mediantime": 1231981816,
  "nonce": 826316549,
  "bits": "1d00ffff",
  "difficulty": 1,
  "chainwork": "0000000000000000000000000000000000000000000000000000020d020d020d",
  "nTx": 2,
  "previousblockhash": "000000003c22a2357ddc3c55c098346c9ee68510984b2c41c351c548ef295162",
  "nextblockhash": "00000000015402dc2bcc4afdc3be3c58e873a7ecea22c12f72d6889eb9b9a0b1",
  "strippedsize": 491,
  "size": 491,
  "weight": 1964,
  "tx": [
    {
      "txid": "52c81ac33227ec10664ba42b9869fcbb2ba74310e7df9ea972780ac04357d029",
      "hash": "52c81ac33227ec10664ba42b9869fcbb2ba74310e7df9ea972780ac04357d029",
      "version": 1,
      "size": 135,
      "vsize": 135,
      "weight": 540,
      "locktime": 0,
      "vin": [
        {
          "coinbase": "04ffff001d02fb04",
          "sequence": 4294967295
        }
      ],
      "vout": [
        {
          "value": 50.0,
          "n": 0,
          "scriptPubKey": {
            "asm": "045cfbd4d5bf2accadf6164e9d200e52abc6e4024591087158733785b94ad0a39da07253b3c3b634f6da25cce80ba6a602e8ee4103b28fcccbca1e59ad3803fb00 OP_CHECKSIG",
            "desc": "pk(045cfbd4d5bf2accadf6164e9d200e52abc6e4024591087158733785b94ad0a39da07253b3c3b634f6da25cce80ba6a602e8ee4103b28fcccbca1e59ad3803fb00)#2teu8ex9",
            "hex": "41045cfbd4d5bf2accadf6164e9d200e52abc6e4024591087158733785b94ad0a39da07253b3c3b634f6da25cce80ba6a602e8ee4103b28fcccbca1e59ad3803fb00ac",
            "type": "pubkey"
          }
        }
      ],
      "hex": "01000000010000000000000000000000000000000000000000000000000000000000000000ffffffff0804ffff001d02fb04ffffffff0100f2052a010000004341045cfbd4d5bf2accadf6164e9d200e52abc6e4024591087158733785b94ad0a39da07253b3c3b634f6da25cce80ba6a602e8ee4103b28fcccbca1e59ad3803fb00ac00000000"
    },
    {
      "txid": "d71fd2f64c0b34465b7518d240c00e83f6a5b10138a7079d1252858fe7e6b577",
      "hash": "d71fd2f64c0b34465b7518d240c00e83f6a5b10138a7079d1252858fe7e6b577",
      "version": 1,
      "size": 275,
      "vsize": 275,
      "weight": 1100,
      "locktime": 0,
      "vin": [
        {
          "txid": "00ff9e64c9a2e7793e6f8c2b04072b4b22648cdedd46cd1c3ae3d6a23c8ec1eb",
          "vout": 0,
          "scriptSig": {
            "asm": "3044022038ea59740da72eec2490a0b32fa6004139524fefba7e78c5d0aed40a5c07f39b02205b1adea529c3cc5cdbb900a8515d778b8e982d63b13386d955962a93f70cd271[ALL]",
            "hex": "473044022038ea59740da72eec2490a0b32fa6004139524fefba7e78c5d0aed40a5c07f39b02205b1adea529c3cc5cdbb900a8515d778b8e982d63b13386d955962a93f70cd27101"
          },
          "sequence": 4294967295
        }
      ],
      "vout": [
        {
          "value": 25.0,
          "n": 0,
          "scriptPubKey": {
            "asm": "04f36c67039006ec4ed2c885d7ab0763feb5deb9633cf63841474712e4cf0459356750185fc9d962d0f4a1e08e1a84f0c9a9f826ad067675403c19d752530492dc OP_CHECKSIG",
            "desc": "pk(04f36c67039006ec4ed2c885d7ab0763feb5deb9633cf63841474712e4cf0459356750185fc9d962d0f4a1e08e1a84f0c9a9f826ad067675403c19d752530492dc)#99n0ml35",
            "hex": "4104f36c67039006ec4ed2c885d7ab0763feb5deb9633cf63841474712e4cf0459356750185fc9d962d0f4a1e08e1a84f0c9a9f826ad067675403c19d752530492dcac",
            "type": "pubkey"
          }
        },
        {
          "value": 25.0,
          "n": 1,
          "scriptPubKey": {
            "asm": "048b48e109f432a490522f8d0e9e833443809f65b8aa2558b94c1c15eb0fd3e24f32d58a088a2b0e5e694d05e7b981e5c9750827646eb81debc816c3c667eea5fd OP_CHECKSIG",
            "desc": "pk(048b48e109f432a490522f8d0e9e833443809f65b8aa2558b94c1c15eb0fd3e24f32d58a088a2b0e5e694d05e7b981e5c9750827646eb81debc816c3c667eea5fd)#ksmwnegm",
            "hex": "41048b48e109f432a490522f8d0e9e833443809f65b8aa2558b94c1c15eb0fd3e24f32d58a088a2b0e5e694d05e7b981e5c9750827646eb81debc816c3c667eea5fdac",
            "type": "pubkey"
          }
        }
      ],
      "fee": 0.0,
      "hex": "0100000001ebc18e3ca2d6e33a1ccd46ddde8c64224b2b07042b8c6f3e79e7a2c9649eff000000000048473044022038ea59740da72eec2490a0b32fa6004139524fefba7e78c5d0aed40a5c07f39b02205b1adea529c3cc5cdbb900a8515d778b8e982d63b13386d955962a93f70cd27101ffffffff0200f9029500000000434104f36c67039006ec4ed2c885d7ab0763feb5deb9633cf63841474712e4cf0459356750185fc9d962d0f4a1e08e1a84f0c9a9f826ad067675403c19d752530492dcac00f90295000000004341048b48e109f432a490522f8d0e9e833443809f65b8aa2558b94c1c15eb0fd3e24f32d58a088a2b0e5e694d05e7b981e5c9750827646eb81debc816c3c667eea5fdac00000000"
    }
  ]
}