{
  "hash": "00000000ef1c8ded48197dcd5e54e06eb012eebf194e01111fd49de8caeb8546",
  "confirmations": 46152,
  "height": 6946,
  "version": 1,
  "versionHex": "00000001",
  "merkleroot": "c5004f770eacc7879715f932e87b6d1c960a2b2c286138e0f2e7cafcadb84279",
  "time": 1236676779,
  "mediantime": 1236671140,
  "nonce": 2571492656,
  "bits": "1d00ffff",
  "difficulty": 1,
  "chainwork": "00000000000000000000000000000000000000000000000000001b231b231b23",
  "nTx": 1,
  "previousblockhash": "00000000497f464b2383ddcba50538a0c48c2c2b04886186844e8b8e42f98bca",
  "nextblockhash": "000000007bc81d57229b2a115a582b2b439d9d8ca7d0ba6cbde2c3bb1c3079e6",
  "strippedsize": 216,
  "size": 216,
  "weight": 864,
  "tx": [
    {
      "txid": "c5004f770eacc7879715f932e87b6d1c960a2b2c286138e0f2e7cafcadb84279",
      "hash": "c5004f770eacc7879715f932e87b6d1c960a2b2c286138e0f2e7cafcadb84279",
      "version": 1,
      "size": 135,
      "vsize": 135,
      "weight": 540,
      "locktime": 0,
      "vin": [
        {
          "coinbase": "04ffff001d024701",
          "sequence": 4294967295
        }
      ],
      "vout": [
        {
          "value": 50.0,
          "n": 0,
          "scriptPubKey": {
            "asm": "04e2f52b41a6ca00707e021441311ccaddd2da3beb15c1c16fb56ed61046a8fc03fc428d41ae6b6a4ad97ac156deed659dd07a8944404d4fa1fec57a6fdc0468d4 OP_CHECKSIG",
            "desc": "pk(04e2f52b41a6ca00707e021441311ccaddd2da3beb15c1c16fb56ed61046a8fc03fc428d41ae6b6a4ad97ac156deed659dd07a8944404d4fa1fec57a6fdc0468d4)#3a4t6fvc",
            "hex": "4104e2f52b41a6ca00707e021441311ccaddd2da3beb15c1c16fb56ed61046a8fc03fc428d41ae6b6a4ad97ac156deed659dd07a8944404d4fa1fec57a6fdc0468d4ac",
            "type": "pubkey"
          }
        }
      ],
      "hex": "01000000010000000000000000000000000000000000000000000000000000000000000000ffffffff0804ffff001d024701ffffffff0100f2052a01000000434104e2f52b41a6ca00707e021441311ccaddd2da3beb15c1c16fb56ed61046a8fc03fc428d41ae6b6a4ad97ac156deed659dd07a8944404d4fa1fec57a6fdc0468d4ac00000000"
    }
  ]
}