{
  "hash": "00000000af519c91833bc83489f1c3a6a64d67979632537f55711d9d0d30ea77",
  "confirmations": 50834,
  "height": 2264,
  "version": 1,
  "versionHex": "00000001",
  "merkleroot": "434cd44333c0381efbb8ea3f090dd508b18738ebc9057784923de397e0ecb249",
  "time": 1233255392,
  "mediantime": 1233251693,
  "nonce": 2946242077,
  "bits": "1d00ffff",
  "difficulty": 1,
  "chainwork": "000000000000000000000000000000000000000000000000000008d908d908d9",
  "nTx": 1,
  "previousblockhash": "000000005b2eba6c1e6d69772b8954cacdd63ae22b219a95c15efd9140afd218",
  "nextblockhash": "0000000067ebd365b2395ff67596578ce7262422296f384c4a1787c0a7300a0a",
  "strippedsize": 216,
  "size": 216,
  "weight": 864,
  "tx": [
    {
      "txid": "434cd44333c0381efbb8ea3f090dd508b18738ebc9057784923de397e0ecb249",
      "hash": "434cd44333c0381efbb8ea3f090dd508b18738ebc9057784923de397e0ecb249",
      "version": 1,
      "size": 135,
      "vsize": 135,
      "weight": 540,
      "locktime": 0,
      "vin": [
        {
          "coinbase": "04ffff001d022d01",
          "sequence": 4294967295
        }
      ],
      "vout": [
        {
          "value": 50.0,
          "n": 0,
          "scriptPubKey": {
            "asm": "042427897afb9a89f96c3377d4b32370c44a6692dc82207e31422d06eaa81ca3a01a8285eed499b4864561d65d105d415303c395fd1846e9bceb57e775a2f8903b OP_CHECKSIG",
            "desc": "pk(042427897afb9a89f96c3377d4b32370c44a6692dc82207e31422d06eaa81ca3a01a8285eed499b4864561d65d105d415303c395fd1846e9bceb57e775a2f8903b)#ve9wantf",
            "hex": "41042427897afb9a89f96c3377d4b32370c44a6692dc82207e31422d06eaa81ca3a01a8285eed499b4864561d65d105d415303c395fd1846e9bceb57e775a2f8903bac",
            "type": "pubkey"
          }
        }
      ],
      "hex": "01000000010000000000000000000000000000000000000000000000000000000000000000ffffffff0804ffff001d022d01ffffffff0100f2052a010000004341042427897afb9a89f96c3377d4b32370c44a6692dc82207e31422d06eaa81ca3a01a8285eed499b4864561d65d105d415303c395fd1846e9bceb57e775a2f8903bac00000000"
    }
  ]
}