{
  "hash": "000000001adc6c26e9860749f7905b1df0af564de9911a145d5dd7704619907c",
  "confirmations": 48070,
  "height": 5028,
  "version": 1,
  "versionHex": "00000001",
  "merkleroot": "020bac487528a143ec23aa68f434e1249a9642ee6663170968a51d827f60e523",
  "time": 1235158694,
  "mediantime": 1235152876,
  "nonce": 3808810265,
  "bits": "1d00ffff",
  "difficulty": 1,
  "chainwork": "000000000000000000000000000000000000000000000000000013a513a513a5",
  "nTx": 1,
  "previousblockhash": "00000000cd4e2942b678d341aaa6469a832b5492138bff5e650a785dda241cdd",
  "nextblockhash": "00000000f3739ac268a4b17119a5f131b0a7dee165799a959bb541081ad82727",
  "strippedsize": 216,
  "size": 216,
  "weight": 864,
  "tx": [
    {
      "txid": "020bac487528a143ec23aa68f434e1249a9642ee6663170968a51d827f60e523",
      "hash": "020bac487528a143ec23aa68f434e1249a9642ee6663170968a51d827f60e523",
      "version": 1,
      "size": 135,
      "vsize": 135,
      "weight": 540,
      "locktime": 0,
      "vin": [
        {
          "coinbase": "04ffff001d028907",
          "sequence": 4294967295
        }
      ],
      "vout": [
        {
          "value": 50.0,
          "n": 0,
          "scriptPubKey": {
            "asm": "046088e486e936851a8c51e79adf3d27fde583d48e6019396f377b0589cb06f5e08f58665a208d6e519e2a67b0e3e693e0834043628efed41b4b9380e9662d5ea0 OP_CHECKSIG",
            "desc": "pk(046088e486e936851a8c51e79adf3d27fde583d48e6019396f377b0589cb06f5e08f58665a208d6e519e2a67b0e3e693e0834043628efed41b4b9380e9662d5ea0)#jwgu2c7k",
            "hex": "41046088e486e936851a8c51e79adf3d27fde583d48e6019396f377b0589cb06f5e08f58665a208d6e519e2a67b0e3e693e0834043628efed41b4b9380e9662d5ea0ac",
            "type": "pubkey"
          }
        }
      ],
      "hex": "01000000010000000000000000000000000000000000000000000000000000000000000000ffffffff0804ffff001d028907ffffffff0100f2052a010000004341046088e486e936851a8c51e79adf3d27fde583d48e6019396f377b0589cb06f5e08f58665a208d6e519e2a67b0e3e693e0834043628efed41b4b9380e9662d5ea0ac00000000"
    }
  ]
}