{
  "hash": "000000005a81537218894c7ee88ecfefd73344d006bbe5efbf4f18808e97af38",
  "confirmations": 52405,
  "height": 693,
  "version": 1,
  "versionHex": "00000001",
  "merkleroot": "62d1e4c550cda986044de5d730fa6933180e29daff468f133509b61db437168a",
  "time": 1232103320,
  "mediantime": 1232098802,
  "nonce": 3468506373,
  "bits": "1d00ffff",
  "difficulty": 1,
  "chainwork": "000000000000000000000000000000000000000000000000000002b602b602b6",
  "nTx": 1,
  "previousblockhash": "000000004d46a24e850882dfc0f3397636f7785c388f28a5e910effa29e070a8",
  "nextblockhash": "00000000dd5f6e368fdc0d79b77c69b5629995363667d711a02643d7a46e4e23",
  "strippedsize": 216,
  "size": 216,
  "weight": 864,
  "tx": [
    {
      "txid": "62d1e4c550cda986044de5d730fa6933180e29daff468f133509b61db437168a",
      "hash": "62d1e4c550cda986044de5d730fa6933180e29daff468f133509b61db437168a",
      "version": 1,
      "size": 135,
      "vsize": 135,
      "weight": 540,
      "locktime": 0,
      "vin": [
        {
          "coinbase": "04ffff001d02c000",
          "sequence": 4294967295
        }
      ],
      "vout": [
        {
          "value": 50.0,
          "n": 0,
          "scriptPubKey": {
            "asm": "04d690812d195b6d76f99871695c852392c2ec8cf2e9c47e30c49c48ca2eb4d54f7c1794d852b88bfd31dc9e2f5e4fb17c0217b8e9fe0f6592c5694c9db2e6a4d0 OP_CHECKSIG",
            "desc": "pk(04d690812d195b6d76f99871695c852392c2ec8cf2e9c47e30c49c48ca2eb4d54f7c1794d852b88bfd31dc9e2f5e4fb17c0217b8e9fe0f6592c5694c9db2e6a4d0)#y2zjjkfz",
            "hex": "4104d690812d195b6d76f99871695c852392c2ec8cf2e9c47e30c49c48ca2eb4d54f7c1794d852b88bfd31dc9e2f5e4fb17c0217b8e9fe0f6592c5694c9db2e6a4d0ac",
            "type": "pubkey"
          }
        }
      ],
      "hex": "01000000010000000000000000000000000000000000000000000000000000000000000000ffffffff0804ffff001d02c000ffffffff0100f2052a01000000434104d690812d195b6d76f99871695c852392c2ec8cf2e9c47e30c49c48ca2eb4d54f7c1794d852b88bfd31dc9e2f5e4fb17c0217b8e9fe0f6592c5694c9db2e6a4d0ac00000000"
    }
  ]
}