{
  "hash": "000000003829f9dca9992cb57be455c82332804ea5cb4ebabc316955eb982b56",
  "confirmations": 45424,
  "height": 7674,
  "version": 1,
  "versionHex": "00000001",
  "merkleroot": "2873e0f579299bbd792409fbcdae7db00152bb4b5cb212cb792cad6203ce36ba",
  "time": 1237220071,
  "mediantime": 1237216178,
  "nonce": 100948716,
  "bits": "1d00ffff",
  "difficulty": 1,
  "chainwork": "00000000000000000000000000000000000000000000000000001dfb1dfb1dfb",
  "nTx": 1,
  "previousblockhash": "00000000433a11e2590d8d0fe62fd8a32aafed850584b3fe1f837109ea23df7a",
  "nextblockhash": "0000000001a786952d564dc9f094b7198b509eac6783583b52e1d800ec2c097f",
  "strippedsize": 216,
  "size": 216,
  "weight": 864,
  "tx": [
    {
      "txid": "2873e0f579299bbd792409fbcdae7db00152bb4b5cb212cb792cad6203ce36ba",
      "hash": "2873e0f579299bbd792409fbcdae7db00152bb4b5cb212cb792cad6203ce36ba",
      "version": 1,
      "size": 135,
      "vsize": 135,
      "weight": 540,
      "locktime": 0,
      "vin": [
        {
          "coinbase": "04ffff001d024d01",
          "sequence": 4294967295
        }
      ],
      "vout": [
        {
          "value": 50.0,
          "n": 0,
          "scriptPubKey": {
            "asm": "0453884865f649aacb04fd65b1b57ec8f775b294b27179c69e58b8c8e7c4b160fec8a01378d56792c6aa73578acf4a21978af5ebf8c84b2b2cc18ec5629266a330 OP_CHECKSIG",
            "desc": "pk(0453884865f649aacb04fd65b1b57ec8f775b294b27179c69e58b8c8e7c4b160fec8a01378d56792c6aa73578acf4a21978af5ebf8c84b2b2cc18ec5629266a330)#tnst8edy",
            "hex": "410453884865f649aacb04fd65b1b57ec8f775b294b27179c69e58b8c8e7c4b160fec8a01378d56792c6aa73578acf4a21978af5ebf8c84b2b2cc18ec5629266a330ac",
            "type": "pubkey"
          }
        }
      ],
      "hex": "01000000010000000000000000000000000000000000000000000000000000000000000000ffffffff0804ffff001d024d01ffffffff0100f2052a0100000043410453884865f649aacb04fd65b1b57ec8f775b294b27179c69e58b8c8e7c4b160fec8a01378d56792c6aa73578acf4a21978af5ebf8c84b2b2cc18ec5629266a330ac00000000"
    }
  ]
}