{
  "hash": "00000000b02741de5b68e95239d6a183befe737cc32b271b1aca9d11d931b6af",
  "confirmations": 46487,
  "height": 6611,
  "version": 1,
  "versionHex": "00000001",
  "merkleroot": "1b682118c02a21462e70e89025a737e6512103109371bc816453af84b9acb4f2",
  "time": 1236412790,
  "mediantime": 1236409836,
  "nonce": 1304353063,
  "bits": "1d00ffff",
  "difficulty": 1,
  "chainwork": "000000000000000000000000000000000000000000000000000019d419d419d4",
  "nTx": 1,
  "previousblockhash": "00000000f3aa1ae6488992a477c94fff9401abdf4be1545fdc004a29569e3e8f",
  "nextblockhash": "00000000bd52e0af9167059079552edc131a6f1cd3e258517a50771eec15ae41",
  "strippedsize": 216,
  "size": 216,
  "weight": 864,
  "tx": [
    {
      "txid": "1b682118c02a21462e70e89025a737e6512103109371bc816453af84b9acb4f2",
      "hash": "1b682118c02a21462e70e89025a737e6512103109371bc816453af84b9acb4f2",
      "version": 1,
      "size": 135,
      "vsize": 135,
      "weight": 540,
      "locktime": 0,
      "vin": [
        {
          "coinbase": "04ffff001d024d05",
          "sequence": 4294967295
        }
      ],
      "vout": [
        {
          "value": 50.0,
          "n": 0,
          "scriptPubKey": {
            "asm": "04ff6e915c44f9d6cba4848dcc4dc29101b84a219485c5ba1acb9c1e1b87885824ea8f656e6ec3ad72a013a8a6623c54e45f1c5be9f929d4e567e341210c80770d OP_CHECKSIG",
            "desc": "pk(04ff6e915c44f9d6cba4848dcc4dc29101b84a219485c5ba1acb9c1e1b87885824ea8f656e6ec3ad72a013a8a6623c54e45f1c5be9f929d4e567e341210c80770d)#usmvmp27",
            "hex": "4104ff6e915c44f9d6cba4848dcc4dc29101b84a219485c5ba1acb9c1e1b87885824ea8f656e6ec3ad72a013a8a6623c54e45f1c5be9f929d4e567e341210c80770dac",
            "type": "pubkey"
          }
        }
      ],
      "hex": "01000000010000000000000000000000000000000000000000000000000000000000000000ffffffff0804ffff001d024d05ffffffff0100f2052a01000000434104ff6e915c44f9d6cba4848dcc4dc29101b84a219485c5ba1acb9c1e1b87885824ea8f656e6ec3ad72a013a8a6623c54e45f1c5be9f929d4e567e341210c80770dac00000000"
    }
  ]
}