{
  "hash": "00000000bdf23d97d052042f298c0c7f54b9b58f79736dbb451f4fcae20b0a8f",
  "confirmations": 48075,
  "height": 5023,
  "version": 1,
  "versionHex": "00000001",
  "merkleroot": "f852eea78450b2cf1ed7255a8b565f05e5a0000818dcb9e4c90cbf1826086903",
  "time": 1235152876,
  "mediantime": 1235148826,
  "nonce": 2015045165,
  "bits": "1d00ffff",
  "difficulty": 1,
  "chainwork": "000000000000000000000000000000000000000000000000000013a013a013a0",
  "nTx": 1,
  "previousblockhash": "0000000078ec5c8d0925dc10cacd66af636471fcdafd06166487efc7dbeff623",
  "nextblockhash": "00000000bf9d10a122b4b9c96fdd46c270f3e311074dccede28e37f421e634bd",
  "strippedsize": 216,
  "size": 216,
  "weight": 864,
  "tx": [
    {
      "txid": "f852eea78450b2cf1ed7255a8b565f05e5a0000818dcb9e4c90cbf1826086903",
      "hash": "f852eea78450b2cf1ed7255a8b565f05e5a0000818dcb9e4c90cbf1826086903",
      "version": 1,
      "size": 135,
      "vsize": 135,
      "weight": 540,
      "locktime": 0,
      "vin": [
        {
          "coinbase": "04ffff001d024f07",
          "sequence": 4294967295
        }
      ],
      "vout": [
        {
          "value": 50.0,
          "n": 0,
          "scriptPubKey": {
            "asm": "040d651b9c392fa8d7cf5fd6fe83e764e774f9340389dd2737af41c8d563b455ec11e31a859903182184a47ff689d8f57700c73ead0ae768f932677da2fbfe5d0b OP_CHECKSIG",
            "desc": "pk(040d651b9c392fa8d7cf5fd6fe83e764e774f9340389dd2737af41c8d563b455ec11e31a859903182184a47ff689d8f57700c73ead0ae768f932677da2fbfe5d0b)#h25dkxdp",
            "hex": "41040d651b9c392fa8d7cf5fd6fe83e764e774f9340389dd2737af41c8d563b455ec11e31a859903182184a47ff689d8f57700c73ead0ae768f932677da2fbfe5d0bac",
            "type": "pubkey"
          }
        }
      ],
      "hex": "01000000010000000000000000000000000000000000000000000000000000000000000000ffffffff0804ffff001d024f07ffffffff0100f2052a010000004341040d651b9c392fa8d7cf5fd6fe83e764e774f9340389dd2737af41c8d563b455ec11e31a859903182184a47ff689d8f57700c73ead0ae768f932677da2fbfe5d0bac00000000"
    }
  ]
}