{
  "hash": "00000000723bf8ba4cdaf82f55284747d8d4f021e47f293653dcd5f7078040d3",
  "confirmations": 49115,
  "height": 3983,
  "version": 1,
  "versionHex": "00000001",
  "merkleroot": "f7beae7a313a734584a303c3524e285942f6a7ffd6a960dcb6677dfc2e9e1f41",
  "time": 1234430044,
  "mediantime": 1234426529,
  "nonce": 3193991990,
  "bits": "1d00ffff",
  "difficulty": 1,
  "chainwork": "00000000000000000000000000000000000000000000000000000f900f900f90",
  "nTx": 1,
  "previousblockhash": "0000000087565ddcf78b4c674190ae46deb6b034412a0410dab4b2e4ab484bbf",
  "nextblockhash": "0000000053ba3bc1830f26bcd47e890f68582708b270022d51d284039bf00e23",
  "strippedsize": 216,
  "size": 216,
  "weight": 864,
  "tx": [
    {
      "txid": "f7beae7a313a734584a303c3524e285942f6a7ffd6a960dcb6677dfc2e9e1f41",
      "hash": "f7beae7a313a734584a303c3524e285942f6a7ffd6a960dcb6677dfc2e9e1f41",
      "version": 1,
      "size": 135,
      "vsize": 135,
      "weight": 540,
      "locktime": 0,
      "vin": [
        {
          "coinbase": "04ffff001d021704",
          "sequence": 4294967295
        }
      ],
      "vout": [
        {
          "value": 50.0,
          "n": 0,
          "scriptPubKey": {
            "asm": "04a33d33e765d4459c61689e061bf2ff69aded7c933c79389ad1b4a459787ea59b3b4d2e4b2f7eec5d425e66d4943f90e379da31d7e490aa1a7582770b8735e6e8 OP_CHECKSIG",
            "desc": "pk(04a33d33e765d4459c61689e061bf2ff69aded7c933c79389ad1b4a459787ea59b3b4d2e4b2f7eec5d425e66d4943f90e379da31d7e490aa1a7582770b8735e6e8)#g4sc8gw2",
            "hex": "4104a33d33e765d4459c61689e061bf2ff69aded7c933c79389ad1b4a459787ea59b3b4d2e4b2f7eec5d425e66d4943f90e379da31d7e490aa1a7582770b8735e6e8ac",
            "type": "pubkey"
          }
        }
      ],
      "hex": "01000000010000000000000000000000000000000000000000000000000000000000000000ffffffff0804ffff001d021704ffffffff0100f2052a01000000434104a33d33e765d4459c61689e061bf2ff69aded7c933c79389ad1b4a459787ea59b3b4d2e4b2f7eec5d425e66d4943f90e379da31d7e490aa1a7582770b8735e6e8ac00000000"
    }
  ]
}