{
  "hash": "00000000577ecce387c006c3bb102002263507f7f3e5a33548c4f07637ddc8fc",
  "confirmations": 52044,
  "height": 1054,
  "version": 1,
  "versionHex": "00000001",
  "merkleroot": "e3595cf6e676c7e7c73e7a372dda304bbd857f127b4866e3f2e24612133236d5",
  "time": 1232390294,
  "mediantime": 1232386339,
  "nonce": 1316428335,
  "bits": "1d00ffff",
  "difficulty": 1,
  "chainwork": "0000000000000000000000000000000000000000000000000000041f041f041f",
  "nTx": 1,
  "previousblockhash": "000000009dfac9a157e2b19374478d54251f28c8c488f091b86dc1d38d813425",
  "nextblockhash": "0000000008dd027da9a853922d5c057904d4d59062e6935f5be24a87dc4e44ba",
  "strippedsize": 216,
  "size": 216,
  "weight": 864,
  "tx": [
    {
      "txid": "e3595cf6e676c7e7c73e7a372dda304bbd857f127b4866e3f2e24612133236d5",
      "hash": "e3595cf6e676c7e7c73e7a372dda304bbd857f127b4866e3f2e24612133236d5",
      "version": 1,
      "size": 135,
      "vsize": 135,
      "weight": 540,
      "locktime": 0,
      "vin": [
        {
          "coinbase": "04ffff001d021006",
          "sequence": 4294967295
        }
      ],
      "vout": [
        {
          "value": 50.0,
          "n": 0,
          "scriptPubKey": {
            "asm": "047a31b2925e6537e233ba8e30dec6e9980be13e2da35bad693447740961af2d5fe062b780a8d9de015ddcb0892302fc656f9c4470fa9126f19374bac87097e2ca OP_CHECKSIG",
            "desc": "pk(047a31b2925e6537e233ba8e30dec6e9980be13e2da35bad693447740961af2d5fe062b780a8d9de015ddcb0892302fc656f9c4470fa9126f19374bac87097e2ca)#q88vyhrt",
            "hex": "41047a31b2925e6537e233ba8e30dec6e9980be13e2da35bad693447740961af2d5fe062b780a8d9de015ddcb0892302fc656f9c4470fa9126f19374bac87097e2caac",
            "type": "pubkey"
          }
        }
      ],
      "hex": "01000000010000000000000000000000000000000000000000000000000000000000000000ffffffff0804ffff001d021006ffffffff0100f2052a010000004341047a31b2925e6537e233ba8e30dec6e9980be13e2da35bad693447740961af2d5fe062b780a8d9de015ddcb0892302fc656f9c4470fa9126f19374bac87097e2caac00000000"
    }
  ]
}