{
  "hash": "00000000881a84e0b4b78c221ca646b9ff5c29a5b1a7329fe8d14b004ee03ee1",
  "confirmations": 48944,
  "height": 4154,
  "version": 1,
  "versionHex": "00000001",
  "merkleroot": "f66104300bc1d15691a61cf3c207a3f86f4b588ab63b5b0e698f29b53ef64519",
  "time": 1234551737,
  "mediantime": 1234548574,
  "nonce": 3272971818,
  "bits": "1d00ffff",
  "difficulty": 1,
  "chainwork": "0000000000000000000000000000000000000000000000000000103b103b103b",
  "nTx": 1,
  "previousblockhash": "000000001a3b51c0442865280c85fd2077d92840a58f6a22c29a8841983174fc",
  "nextblockhash": "00000000386f393ec8653f9ba8fe2e4a6ac3416acaa5a66982421d8c25386404",
  "strippedsize": 216,
  "size": 216,
  "weight": 864,
  "tx": [
    {
      "txid": "f66104300bc1d15691a61cf3c207a3f86f4b588ab63b5b0e698f29b53ef64519",
      "hash": "f66104300bc1d15691a61cf3c207a3f86f4b588ab63b5b0e698f29b53ef64519",
      "version": 1,
      "size": 135,
      "vsize": 135,
      "weight": 540,
      "locktime": 0,
      "vin": [
        {
          "coinbase": "04ffff001d029a06",
          "sequence": 4294967295
        }
      ],
      "vout": [
        {
          "value": 50.0,
          "n": 0,
          "scriptPubKey": {
            "asm": "04775382647124531ac2232f1105b488075d9d4e00d66490c7e8bebdf9ef5358a20e43f5626d3e697ea9a9df7f64371dfd0cc4aabf6b6124859e0e3c3ea3ef7c39 OP_CHECKSIG",
            "desc": "pk(04775382647124531ac2232f1105b488075d9d4e00d66490c7e8bebdf9ef5358a20e43f5626d3e697ea9a9df7f64371dfd0cc4aabf6b6124859e0e3c3ea3ef7c39)#munh6wpg",
            "hex": "4104775382647124531ac2232f1105b488075d9d4e00d66490c7e8bebdf9ef5358a20e43f5626d3e697ea9a9df7f64371dfd0cc4aabf6b6124859e0e3c3ea3ef7c39ac",
            "type": "pubkey"
          }
        }
      ],
      "hex": "01000000010000000000000000000000000000000000000000000000000000000000000000ffffffff0804ffff001d029a06ffffffff0100f2052a01000000434104775382647124531ac2232f1105b488075d9d4e00d66490c7e8bebdf9ef5358a20e43f5626d3e697ea9a9df7f64371dfd0cc4aabf6b6124859e0e3c3ea3ef7c39ac00000000"
    }
  ]
}