{
  "hash": "000000002bcdd927667a8a705239465c576bb36a0536e89065f590d4b8fd5805",
  "confirmations": 44248,
  "height": 8850,
  "version": 1,
  "versionHex": "00000001",
  "merkleroot": "a5620a30d4d9f24331cca79e19f8d87efe00466878a2352cce222b3ffdb35330",
  "time": 1238137654,
  "mediantime": 1238133559,
  "nonce": 852934947,
  "bits": "1d00ffff",
  "difficulty": 1,
  "chainwork": "0000000000000000000000000000000000000000000000000000229322932293",
  "nTx": 1,
  "previousblockhash": "00000000687ca9214565a6c72ef64eb18e4f8409f5fe1c8c8d512793272abf48",
  "nextblockhash": "00000000f8e67ddf74edec45187d3fe67ba61a0d825ab61495d6a6b5533819f7",
  "strippedsize": 216,
  "size": 216,
  "weight": 864,
  "tx": [
    {
      "txid": "a5620a30d4d9f24331cca79e19f8d87efe00466878a2352cce222b3ffdb35330",
      "hash": "a5620a30d4d9f24331cca79e19f8d87efe00466878a2352cce222b3ffdb35330",
      "version": 1,
      "size": 135,
      "vsize": 135,
      "weight": 540,
      "locktime": 0,
      "vin": [
        {
          "coinbase": "04ffff001d029703",
          "sequence": 4294967295
        }
      ],
      "vout": [
        {
          "value": 50.0,
          "n": 0,
          "scriptPubKey": {
            "asm": "04306b805c084b1c3e5b4d5c6ca3d14df96ad0acad7e93515dde737ec4b2806505306b5d45cad1834b590a2ac9a486f88ae72450766236526e7162fb7a9c333ab6 OP_CHECKSIG",
            "desc": "pk(04306b805c084b1c3e5b4d5c6ca3d14df96ad0acad7e93515dde737ec4b2806505306b5d45cad1834b590a2ac9a486f88ae72450766236526e7162fb7a9c333ab6)#n9a67y2e",
            "hex": "4104306b805c084b1c3e5b4d5c6ca3d14df96ad0acad7e93515dde737ec4b2806505306b5d45cad1834b590a2ac9a486f88ae72450766236526e7162fb7a9c333ab6ac",
            "type": "pubkey"
          }
        }
      ],
      "hex": "01000000010000000000000000000000000000000000000000000000000000000000000000ffffffff0804ffff001d029703ffffffff0100f2052a01000000434104306b805c084b1c3e5b4d5c6ca3d14df96ad0acad7e93515dde737ec4b2806505306b5d45cad1834b590a2ac9a486f88ae72450766236526e7162fb7a9c333ab6ac00000000"
    }
  ]
}