{
  "hash": "000000007ae51206737ea63360f13e93b0df3d5e86a82f9d6a37ea57c3e4cd77",
  "confirmations": 49678,
  "height": 3420,
  "version": 1,
  "versionHex": "00000001",
  "merkleroot": "4c3bca292f74cce0a310faa87728cfb5252e92fbcdffcb0313749fec73fc666e",
  "time": 1234051435,
  "mediantime": 1234048593,
  "nonce": 3195010614,
  "bits": "1d00ffff",
  "difficulty": 1,
  "chainwork": "00000000000000000000000000000000000000000000000000000d5d0d5d0d5d",
  "nTx": 1,
  "previousblockhash": "000000006c144faa0127522b218d07d0f6d8918fa39e327540e124d45ccefa0c",
  "nextblockhash": "00000000ebc2588a2d82f3cde4af7223cff166a191c5c9430411fd084a2c7ced",
  "strippedsize": 216,
  "size": 216,
  "weight": 864,
  "tx": [
    {
      "txid": "4c3bca292f74cce0a310faa87728cfb5252e92fbcdffcb0313749fec73fc666e",
      "hash": "4c3bca292f74cce0a310faa87728cfb5252e92fbcdffcb0313749fec73fc666e",
      "version": 1,
      "size": 135,
      "vsize": 135,
      "weight": 540,
      "locktime": 0,
      "vin": [
        {
          "coinbase": "04ffff001d02ed05",
          "sequence": 4294967295
        }
      ],
      "vout": [
        {
          "value": 50.0,
          "n": 0,
          "scriptPubKey": {
            "asm": "04c2ba140f4da961eddc0f5fe9fe44c896305eb75c1cb3e4c0a5569a58b09ddb90d332bd9e59bb31629c22c147f42de8e44cdf273bbe40518e2fc2cc66d62191f6 OP_CHECKSIG",
            "desc": "pk(04c2ba140f4da961eddc0f5fe9fe44c896305eb75c1cb3e4c0a5569a58b09ddb90d332bd9e59bb31629c22c147f42de8e44cdf273bbe40518e2fc2cc66d62191f6)#jw63y3nw",
            "hex": "4104c2ba140f4da961eddc0f5fe9fe44c896305eb75c1cb3e4c0a5569a58b09ddb90d332bd9e59bb31629c22c147f42de8e44cdf273bbe40518e2fc2cc66d62191f6ac",
            "type": "pubkey"
          }
        }
      ],
      "hex": "01000000010000000000000000000000000000000000000000000000000000000000000000ffffffff0804ffff001d02ed05ffffffff0100f2052a01000000434104c2ba140f4da961eddc0f5fe9fe44c896305eb75c1cb3e4c0a5569a58b09ddb90d332bd9e59bb31629c22c147f42de8e44cdf273bbe40518e2fc2cc66d62191f6ac00000000"
    }
  ]
}