{
  "hash": "000000002b6ff52397ac898621db7716df7a7fabc4246fd1d5a8027c2eb61efe",
  "confirmations": 46171,
  "height": 6927,
  "version": 1,
  "versionHex": "00000001",
  "merkleroot": "92c2d2791b439c75a90a7d40cf59b92eba0572fb14fe4d5ff204d5fdff073543",
  "time": 1236659226,
  "mediantime": 1236653482,
  "nonce": 3410385188,
  "bits": "1d00ffff",
  "difficulty": 1,
  "chainwork": "00000000000000000000000000000000000000000000000000001b101b101b10",
  "nTx": 1,
  "previousblockhash": "00000000a2210c8fe0d6da04eeca8832b8cb20c55178561e543bbfc240754ef9",
  "nextblockhash": "0000000047911be990105985f50e3365ea69202306ad052201e0010d7e989999",
  "strippedsize": 216,
  "size": 216,
  "weight": 864,
  "tx": [
    {
      "txid": "92c2d2791b439c75a90a7d40cf59b92eba0572fb14fe4d5ff204d5fdff073543",
      "hash": "92c2d2791b439c75a90a7d40cf59b92eba0572fb14fe4d5ff204d5fdff073543",
      "version": 1,
      "size": 135,
      "vsize": 135,
      "weight": 540,
      "locktime": 0,
      "vin": [
        {
          "coinbase": "04ffff001d02ef00",
          "sequence": 4294967295
        }
      ],
      "vout": [
        {
          "value": 50.0,
          "n": 0,
          "scriptPubKey": {
            "asm": "04c1f40090ca820a0aeb53bd14bb2cfee88d3a39dbb917a9476e81b9c1f284565964c2328fd40c1646b013e4bef58900b3e99f4a72b291b2b61bf5c1b5e6f2282a OP_CHECKSIG",
            "desc": "pk(04c1f40090ca820a0aeb53bd14bb2cfee88d3a39dbb917a9476e81b9c1f284565964c2328fd40c1646b013e4bef58900b3e99f4a72b291b2b61bf5c1b5e6f2282a)#kujq2tlv",
            "hex": "4104c1f40090ca820a0aeb53bd14bb2cfee88d3a39dbb917a9476e81b9c1f284565964c2328fd40c1646b013e4bef58900b3e99f4a72b291b2b61bf5c1b5e6f2282aac",
            "type": "pubkey"
          }
        }
      ],
      "hex": "01000000010000000000000000000000000000000000000000000000000000000000000000ffffffff0804ffff001d02ef00ffffffff0100f2052a01000000434104c1f40090ca820a0aeb53bd14bb2cfee88d3a39dbb917a9476e81b9c1f284565964c2328fd40c1646b013e4bef58900b3e99f4a72b291b2b61bf5c1b5e6f2282aac00000000"
    }
  ]
}