{
  "hash": "00000000a5d02a6579c5dd2fac21be1548502f6da29a82755614d189a092b23f",
  "confirmations": 50266,
  "height": 2832,
  "version": 1,
  "versionHex": "00000001",
  "merkleroot": "90867754cfa98557f73cf9606b18e50bafb5f07f513e2a8c7f2621cd4df137da",
  "time": 1233646074,
  "mediantime": 1233643227,
  "nonce": 2340699655,
  "bits": "1d00ffff",
  "difficulty": 1,
  "chainwork": "00000000000000000000000000000000000000000000000000000b110b110b11",
  "nTx": 1,
  "previousblockhash": "0000000008bc45649d6960c55328533f7cdb47a89415fd91a6d4efc917d04847",
  "nextblockhash": "000000002bb7ee07bcad4a2b614bd0af837f6ed4a5c52dc95ae50ca6431c162f",
  "strippedsize": 216,
  "size": 216,
  "weight": 864,
  "tx": [
    {
      "txid": "90867754cfa98557f73cf9606b18e50bafb5f07f513e2a8c7f2621cd4df137da",
      "hash": "90867754cfa98557f73cf9606b18e50bafb5f07f513e2a8c7f2621cd4df137da",
      "version": 1,
      "size": 135,
      "vsize": 135,
      "weight": 540,
      "locktime": 0,
      "vin": [
        {
          "coinbase": "04ffff001d028606",
          "sequence": 4294967295
        }
      ],
      "vout": [
        {
          "value": 50.0,
          "n": 0,
          "scriptPubKey": {
            "asm": "04f7f99a06035685c1374898ec17c2d4e4ef120585e6bf800718e77fe6613fab65c824c39c6c99d90c833c4733817e2ac7108809335c2c03a3d4178d042f2bb883 OP_CHECKSIG",
            "desc": "pk(04f7f99a06035685c1374898ec17c2d4e4ef120585e6bf800718e77fe6613fab65c824c39c6c99d90c833c4733817e2ac7108809335c2c03a3d4178d042f2bb883)#6ra5mnrp",
            "hex": "4104f7f99a06035685c1374898ec17c2d4e4ef120585e6bf800718e77fe6613fab65c824c39c6c99d90c833c4733817e2ac7108809335c2c03a3d4178d042f2bb883ac",
            "type": "pubkey"
          }
        }
      ],
      "hex": "01000000010000000000000000000000000000000000000000000000000000000000000000ffffffff0804ffff001d028606ffffffff0100f2052a01000000434104f7f99a06035685c1374898ec17c2d4e4ef120585e6bf800718e77fe6613fab65c824c39c6c99d90c833c4733817e2ac7108809335c2c03a3d4178d042f2bb883ac00000000"
    }
  ]
}