{
  "hash": "00000000565b2244fc09a137e1ee8cedb05000ceecec1155ca22a7bf32bd50ef",
  "confirmations": 47433,
  "height": 5665,
  "version": 1,
  "versionHex": "00000001",
  "merkleroot": "778874e166098187ae001403ecf7a82f6f02ca81bdca5fbd714a7ec25471ce9c",
  "time": 1235662374,
  "mediantime": 1235657709,
  "nonce": 16178673,
  "bits": "1d00ffff",
  "difficulty": 1,
  "chainwork": "0000000000000000000000000000000000000000000000000000162216221622",
  "nTx": 1,
  "previousblockhash": "00000000565fb034db9e8117cf7b28bd82b3556eef089a32e507078e70da2f78",
  "nextblockhash": "000000005c0f56b1ed123e4ca9746f88cf174ab9232aa74dc3ebd954ba02c2aa",
  "strippedsize": 216,
  "size": 216,
  "weight": 864,
  "tx": [
    {
      "txid": "778874e166098187ae001403ecf7a82f6f02ca81bdca5fbd714a7ec25471ce9c",
      "hash": "778874e166098187ae001403ecf7a82f6f02ca81bdca5fbd714a7ec25471ce9c",
      "version": 1,
      "size": 135,
      "vsize": 135,
      "weight": 540,
      "locktime": 0,
      "vin": [
        {
          "coinbase": "04ffff001d02bf00",
          "sequence": 4294967295
        }
      ],
      "vout": [
        {
          "value": 50.0,
          "n": 0,
          "scriptPubKey": {
            "asm": "046b08ca53366777000df623d1e1f667b382ffefcc2f805166177b2d05aef4ffe5f42530cfa2ea6dc7b14bd18fe8840a932b07df7df1abf7132710700722436cd5 OP_CHECKSIG",
            "desc": "pk(046b08ca53366777000df623d1e1f667b382ffefcc2f805166177b2d05aef4ffe5f42530cfa2ea6dc7b14bd18fe8840a932b07df7df1abf7132710700722436cd5)#f9lf5urx",
            "hex": "41046b08ca53366777000df623d1e1f667b382ffefcc2f805166177b2d05aef4ffe5f42530cfa2ea6dc7b14bd18fe8840a932b07df7df1abf7132710700722436cd5ac",
            "type": "pubkey"
          }
        }
      ],
      "hex": "01000000010000000000000000000000000000000000000000000000000000000000000000ffffffff0804ffff001d02bf00ffffffff0100f2052a010000004341046b08ca53366777000df623d1e1f667b382ffefcc2f805166177b2d05aef4ffe5f42530cfa2ea6dc7b14bd18fe8840a932b07df7df1abf7132710700722436cd5ac00000000"
    }
  ]
}