{
  "hash": "00000000be64a31bc9c3c29ddfd5e45c81b6db279fee45b3a11cd7945109e54e",
  "confirmations": 51921,
  "height": 75,
  "version": 1,
  "versionHex": "00000001",
  "merkleroot": "382501ac2d50c5944465c2c316dbe2c70f23dd0de73ea86d339ea5f2bca7b648",
  "time": 1231631822,
  "mediantime": 1231627646,
  "nonce": 993509923,
  "bits": "1d00ffff",
  "difficulty": 1,
  "chainwork": "0000000000000000000000000000000000000000000000000000004c004c004c",
  "nTx": 1,
  "previousblockhash": "00000000ec989ed4909499b92e9d3eb900d75dd1fab455315916e3d45924d456",
  "nextblockhash": "000000005a512245f8e901241ce422afbd6b6f4c2d4bb582b763118614d57858",
  "strippedsize": 215,
  "size": 215,
  "weight": 860,
  "tx": [
    {
      "txid": "382501ac2d50c5944465c2c316dbe2c70f23dd0de73ea86d339ea5f2bca7b648",
      "hash": "382501ac2d50c5944465c2c316dbe2c70f23dd0de73ea86d339ea5f2bca7b648",
      "version": 1,
      "size": 134,
      "vsize": 134,
      "weight": 536,
      "locktime": 0,
      "vin": [
        {
          "coinbase": "04ffff001d0104",
          "sequence": 4294967295
        }
      ],
      "vout": [
        {
          "value": 50.0,
          "n": 0,
          "scriptPubKey": {
            "asm": "04a5f1b7ea48a8d5913bfc569b1b9e091d7fbbbb5cdb97af0442f40be158fa5af68417e4bde42dfa04326e38613d583aafb5edb675b19e32465e8454fdd4c64202 OP_CHECKSIG",
            "desc": "pk(04a5f1b7ea48a8d5913bfc569b1b9e091d7fbbbb5cdb97af0442f40be158fa5af68417e4bde42dfa04326e38613d583aafb5edb675b19e32465e8454fdd4c64202)#tuut3lts",
            "hex": "4104a5f1b7ea48a8d5913bfc569b1b9e091d7fbbbb5cdb97af0442f40be158fa5af68417e4bde42dfa04326e38613d583aafb5edb675b19e32465e8454fdd4c64202ac",
            "type": "pubkey"
          }
        }
      ],
      "hex": "01000000010000000000000000000000000000000000000000000000000000000000000000ffffffff0704ffff001d0104ffffffff0100f2052a01000000434104a5f1b7ea48a8d5913bfc569b1b9e091d7fbbbb5cdb97af0442f40be158fa5af68417e4bde42dfa04326e38613d583aafb5edb675b19e32465e8454fdd4c64202ac00000000"
    }
  ]
}