{
  "hash": "0000000017ce60547cbc7106176fc3db42709d2cc2e669863a4409a4d67a58f7",
  "confirmations": 50822,
  "height": 2276,
  "version": 1,
  "versionHex": "00000001",
  "merkleroot": "fad5124b6bede583fb577876f0c9af680ddbe57592cba12ffeffb99118a7a8df",
  "time": 1233263841,
  "mediantime": 1233260303,
  "nonce": 1140828934,
  "bits": "1d00ffff",
  "difficulty": 1,
  "chainwork": "000000000000000000000000000000000000000000000000000008e508e508e5",
  "nTx": 1,
  "previousblockhash": "0000000031d86ce67a67bd9ff6d37008cc765b24420eb3b3f1c79af904e4e154",
  "nextblockhash": "000000001052ca40f382b01b9640bf8150e64746ee3346f33679dd8431bb7df0",
  "strippedsize": 216,
  "size": 216,
  "weight": 864,
  "tx": [
    {
      "txid": "fad5124b6bede583fb577876f0c9af680ddbe57592cba12ffeffb99118a7a8df",
      "hash": "fad5124b6bede583fb577876f0c9af680ddbe57592cba12ffeffb99118a7a8df",
      "version": 1,
      "size": 135,
      "vsize": 135,
      "weight": 540,
      "locktime": 0,
      "vin": [
        {
          "coinbase": "04ffff001d024501",
          "sequence": 4294967295
        }
      ],
      "vout": [
        {
          "value": 50.0,
          "n": 0,
          "scriptPubKey": {
            "asm": "046fd27820b6a8780739fb459bfb188409d19d8e69472511e0a3395fb7289b2837c555d141c4f2dbca349795e6f0cb07f9db982a086369f53002cd4dcea7dbf944 OP_CHECKSIG",
            "desc": "pk(046fd27820b6a8780739fb459bfb188409d19d8e69472511e0a3395fb7289b2837c555d141c4f2dbca349795e6f0cb07f9db982a086369f53002cd4dcea7dbf944)#2pr5wahe",
            "hex": "41046fd27820b6a8780739fb459bfb188409d19d8e69472511e0a3395fb7289b2837c555d141c4f2dbca349795e6f0cb07f9db982a086369f53002cd4dcea7dbf944ac",
            "type": "pubkey"
          }
        }
      ],
      "hex": "01000000010000000000000000000000000000000000000000000000000000000000000000ffffffff0804ffff001d024501ffffffff0100f2052a010000004341046fd27820b6a8780739fb459bfb188409d19d8e69472511e0a3395fb7289b2837c555d141c4f2dbca349795e6f0cb07f9db982a086369f53002cd4dcea7dbf944ac00000000"
    }
  ]
}