{
  "hash": "000000004ebadb55ee9096c9a2f8880e09da59c0d68b1c228da88e48844a1485",
  "confirmations": 51768,
  "height": 4,
  "version": 1,
  "versionHex": "00000001",
  "merkleroot": "df2b060fa2e5e9c8ed5eaf6a45c13753ec8c63282b2688322eba40cd98ea067a",
  "time": 1231470988,
  "mediantime": 1231469744,
  "nonce": 2850094635,
  "bits": "1d00ffff",
  "difficulty": 1,
  "chainwork": "0000000000000000000000000000000000000000000000000000000500050005",
  "nTx": 1,
  "previousblockhash": "0000000082b5015589a3fdf2d4baff403e6f0be035a5d9742c1cae6295464449",
  "nextblockhash": "000000009b7262315dbf071787ad3656097b892abffd1f95a1a022f896f533fc",
  "strippedsize": 215,
  "size": 215,
  "weight": 860,
  "tx": [
    {
      "txid": "df2b060fa2e5e9c8ed5eaf6a45c13753ec8c63282b2688322eba40cd98ea067a",
      "hash": "df2b060fa2e5e9c8ed5eaf6a45c13753ec8c63282b2688322eba40cd98ea067a",
      "version": 1,
      "size": 134,
      "vsize": 134,
      "weight": 536,
      "locktime": 0,
      "vin": [
        {
          "coinbase": "04ffff001d011a",
          "sequence": 4294967295
        }
      ],
      "vout": [
        {
          "value": 50.0,
          "n": 0,
          "scriptPubKey": {
            "asm": "04184f32b212815c6e522e66686324030ff7e5bf08efb21f8b00614fb7690e19131dd31304c54f37baa40db231c918106bb9fd43373e37ae31a0befc6ecaefb867 OP_CHECKSIG",
            "desc": "pk(04184f32b212815c6e522e66686324030ff7e5bf08efb21f8b00614fb7690e19131dd31304c54f37baa40db231c918106bb9fd43373e37ae31a0befc6ecaefb867)#dkkjt83k",
            "hex": "4104184f32b212815c6e522e66686324030ff7e5bf08efb21f8b00614fb7690e19131dd31304c54f37baa40db231c918106bb9fd43373e37ae31a0befc6ecaefb867ac",
            "type": "pubkey"
          }
        }
      ],
      "hex": "01000000010000000000000000000000000000000000000000000000000000000000000000ffffffff0704ffff001d011affffffff0100f2052a01000000434104184f32b212815c6e522e66686324030ff7e5bf08efb21f8b00614fb7690e19131dd31304c54f37baa40db231c918106bb9fd43373e37ae31a0befc6ecaefb867ac00000000"
    }
  ]
}