{
  "hash": "000000003e05a51397427853324c21e9a1984bba8daafda81452adf1b89a5c63",
  "confirmations": 46610,
  "height": 6488,
  "version": 1,
  "versionHex": "00000001",
  "merkleroot": "629b3c1a5df9fd76f3d3a44b4b72b00848fcd9b4b1fcacf779bdd0019528e145",
  "time": 1236320740,
  "mediantime": 1236318335,
  "nonce": 1471101486,
  "bits": "1d00ffff",
  "difficulty": 1,
  "chainwork": "0000000000000000000000000000000000000000000000000000195919591959",
  "nTx": 1,
  "previousblockhash": "000000003b2f4d7964d4786046cd595d8f7174dd503e354ee0bdde776d125625",
  "nextblockhash": "000000006438d40acb75496695018c91b82377cbccca8d477797fa7adc721f82",
  "strippedsize": 216,
  "size": 216,
  "weight": 864,
  "tx": [
    {
      "txid": "629b3c1a5df9fd76f3d3a44b4b72b00848fcd9b4b1fcacf779bdd0019528e145",
      "hash": "629b3c1a5df9fd76f3d3a44b4b72b00848fcd9b4b1fcacf779bdd0019528e145",
      "version": 1,
      "size": 135,
      "vsize": 135,
      "weight": 540,
      "locktime": 0,
      "vin": [
        {
          "coinbase": "04ffff001d024e03",
          "sequence": 4294967295
        }
      ],
      "vout": [
        {
          "value": 50.0,
          "n": 0,
          "scriptPubKey": {
            "asm": "0444fc1190f88bf582f9421b2e0b97f6d8ed856f11e97820a76ab8a883fc9d4c933bd6c7abc947d5bbe589227c37d46c724e691da2528e96fc4786abe53e434733 OP_CHECKSIG",
            "desc": "pk(0444fc1190f88bf582f9421b2e0b97f6d8ed856f11e97820a76ab8a883fc9d4c933bd6c7abc947d5bbe589227c37d46c724e691da2528e96fc4786abe53e434733)#rc0fwnht",
            "hex": "410444fc1190f88bf582f9421b2e0b97f6d8ed856f11e97820a76ab8a883fc9d4c933bd6c7abc947d5bbe589227c37d46c724e691da2528e96fc4786abe53e434733ac",
            "type": "pubkey"
          }
        }
      ],
      "hex": "01000000010000000000000000000000000000000000000000000000000000000000000000ffffffff0804ffff001d024e03ffffffff0100f2052a0100000043410444fc1190f88bf582f9421b2e0b97f6d8ed856f11e97820a76ab8a883fc9d4c933bd6c7abc947d5bbe589227c37d46c724e691da2528e96fc4786abe53e434733ac00000000"
    }
  ]
}