{
  "hash": "00000000accb9001c11866848a686bc3f2c42111cbcf2ee52cc5f5c7fcac508f",
  "confirmations": 52205,
  "height": 416,
  "version": 1,
  "versionHex": "00000001",
  "merkleroot": "07e014b69ada903a5fa33f841dacaff680a5cf72f4eca8997484aa35270f1ed7",
  "time": 1231912942,
  "mediantime": 1231910433,
  "nonce": 2348105263,
  "bits": "1d00ffff",
  "difficulty": 1,
  "chainwork": "000000000000000000000000000000000000000000000000000001a101a101a1",
  "nTx": 1,
  "previousblockhash": "000000003f7e074587fa1684ac863519fea3c64040b05ddd04948a13f7b19b42",
  "nextblockhash": "00000000f334596d5afdb4b5ee5fb6974718f1d94160e57a10c4db598144b808",
  "strippedsize": 216,
  "size": 216,
  "weight": 864,
  "tx": [
    {
      "txid": "07e014b69ada903a5fa33f841dacaff680a5cf72f4eca8997484aa35270f1ed7",
      "hash": "07e014b69ada903a5fa33f841dacaff680a5cf72f4eca8997484aa35270f1ed7",
      "version": 1,
      "size": 135,
      "vsize": 135,
      "weight": 540,
      "locktime": 0,
      "vin": [
        {
          "coinbase": "04ffff001d02e402",
          "sequence": 4294967295
        }
      ],
      "vout": [
        {
          "value": 50.0,
          "n": 0,
          "scriptPubKey": {
            "asm": "04903838c2878457f2a7362839df8dba8b5d223595b4c2188cd7f42674718744e2f04f45714b29c4da8c0b7d373e6fd6a4073d1785f83753eb7f9368f291170c35 OP_CHECKSIG",
            "desc": "pk(04903838c2878457f2a7362839df8dba8b5d223595b4c2188cd7f42674718744e2f04f45714b29c4da8c0b7d373e6fd6a4073d1785f83753eb7f9368f291170c35)#4tdtk8ga",
            "hex": "4104903838c2878457f2a7362839df8dba8b5d223595b4c2188cd7f42674718744e2f04f45714b29c4da8c0b7d373e6fd6a4073d1785f83753eb7f9368f291170c35ac",
            "type": "pubkey"
          }
        }
      ],
      "hex": "01000000010000000000000000000000000000000000000000000000000000000000000000ffffffff0804ffff001d02e402ffffffff0100f2052a01000000434104903838c2878457f2a7362839df8dba8b5d223595b4c2188cd7f42674718744e2f04f45714b29c4da8c0b7d373e6fd6a4073d1785f83753eb7f9368f291170c35ac00000000"
    }
  ]
}