{
  "hash": "00000000dd41ae581467f58797ae4dd936d83a6175a49405eea334bfd99834e4",
  "confirmations": 46260,
  "height": 6838,
  "version": 1,
  "versionHex": "00000001",
  "merkleroot": "7d17b5bac536447470782de1258f7dd67e1f45f50e9c63fcc1651a50165d8e9b",
  "time": 1236584770,
  "mediantime": 1236581408,
  "nonce": 2110774561,
  "bits": "1d00ffff",
  "difficulty": 1,
  "chainwork": "00000000000000000000000000000000000000000000000000001ab71ab71ab7",
  "nTx": 1,
  "previousblockhash": "0000000077c1e92672fab780790d0feb5482b97f0f2842f552065c634752f88a",
  "nextblockhash": "00000000ae642cc8a1b01aad9b83a0f216b9db53764c6e69f0f5911f71ec20be",
  "strippedsize": 216,
  "size": 216,
  "weight": 864,
  "tx": [
    {
      "txid": "7d17b5bac536447470782de1258f7dd67e1f45f50e9c63fcc1651a50165d8e9b",
      "hash": "7d17b5bac536447470782de1258f7dd67e1f45f50e9c63fcc1651a50165d8e9b",
      "version": 1,
      "size": 135,
      "vsize": 135,
      "weight": 540,
      "locktime": 0,
      "vin": [
        {
          "coinbase": "04ffff001d028609",
          "sequence": 4294967295
        }
      ],
      "vout": [
        {
          "value": 50.0,
          "n": 0,
          "scriptPubKey": {
            "asm": "04d9c490859dedd026811ae0ffa898cbd195876745c415863e0579d99e1d31b17e1791e4794e065e76df35c3d340ca603ff89477324504768805197199fc1d48cc OP_CHECKSIG",
            "desc": "pk(04d9c490859dedd026811ae0ffa898cbd195876745c415863e0579d99e1d31b17e1791e4794e065e76df35c3d340ca603ff89477324504768805197199fc1d48cc)#exr7yntn",
            "hex": "4104d9c490859dedd026811ae0ffa898cbd195876745c415863e0579d99e1d31b17e1791e4794e065e76df35c3d340ca603ff89477324504768805197199fc1d48ccac",
            "type": "pubkey"
          }
        }
      ],
      "hex": "01000000010000000000000000000000000000000000000000000000000000000000000000ffffffff0804ffff001d028609ffffffff0100f2052a01000000434104d9c490859dedd026811ae0ffa898cbd195876745c415863e0579d99e1d31b17e1791e4794e065e76df35c3d340ca603ff89477324504768805197199fc1d48ccac00000000"
    }
  ]
}