{
  "hash": "000000005c9a30c6b6cf531e5fc316627199daa092bc41a75f0d67bd8cf5de49",
  "confirmations": 44689,
  "height": 8409,
  "version": 1,
  "versionHex": "00000001",
  "merkleroot": "79e4a63e21273d08816c0468a499c0557b7e2ca5c3e5b08a8b94034e98bd179b",
  "time": 1237805372,
  "mediantime": 1237801283,
  "nonce": 3867175937,
  "bits": "1d00ffff",
  "difficulty": 1,
  "chainwork": "000000000000000000000000000000000000000000000000000020da20da20da",
  "nTx": 1,
  "previousblockhash": "0000000083122578d2348469ba5466ff6db3cb027ec56249909e36343a6c1a78",
  "nextblockhash": "000000006373116c7d08c22020b47120d16747019c94c1bb82add99eaff21755",
  "strippedsize": 216,
  "size": 216,
  "weight": 864,
  "tx": [
    {
      "txid": "79e4a63e21273d08816c0468a499c0557b7e2ca5c3e5b08a8b94034e98bd179b",
      "hash": "79e4a63e21273d08816c0468a499c0557b7e2ca5c3e5b08a8b94034e98bd179b",
      "version": 1,
      "size": 135,
      "vsize": 135,
      "weight": 540,
      "locktime": 0,
      "vin": [
        {
          "coinbase": "04ffff001d022c06",
          "sequence": 4294967295
        }
      ],
      "vout": [
        {
          "value": 50.0,
          "n": 0,
          "scriptPubKey": {
            "asm": "04c2b0f98793b80a911f6a5bf6cada7401f520ce66cc3007e248e8f1da2a0b2b7c56dd25541c6362f2a9cf430a45ee3c0c1ec91aee4f48d38eb04382d3a229a5e7 OP_CHECKSIG",
            "desc": "pk(04c2b0f98793b80a911f6a5bf6cada7401f520ce66cc3007e248e8f1da2a0b2b7c56dd25541c6362f2a9cf430a45ee3c0c1ec91aee4f48d38eb04382d3a229a5e7)#73302wml",
            "hex": "4104c2b0f98793b80a911f6a5bf6cada7401f520ce66cc3007e248e8f1da2a0b2b7c56dd25541c6362f2a9cf430a45ee3c0c1ec91aee4f48d38eb04382d3a229a5e7ac",
            "type": "pubkey"
          }
        }
      ],
      "hex": "01000000010000000000000000000000000000000000000000000000000000000000000000ffffffff0804ffff001d022c06ffffffff0100f2052a01000000434104c2b0f98793b80a911f6a5bf6cada7401f520ce66cc3007e248e8f1da2a0b2b7c56dd25541c6362f2a9cf430a45ee3c0c1ec91aee4f48d38eb04382d3a229a5e7ac00000000"
    }
  ]
}