{
  "hash": "000000004fbf34b9179c42c44c29c2117a658f12bb6d4d467e9b5fc4759a5b20",
  "confirmations": 51796,
  "height": 1302,
  "version": 1,
  "versionHex": "00000001",
  "merkleroot": "be736c8a6257811a9eb8890a1cdd5cb6e926a0e7a5e12fd1e3249b859468a859",
  "time": 1232595648,
  "mediantime": 1232587968,
  "nonce": 2115990070,
  "bits": "1d00ffff",
  "difficulty": 1,
  "chainwork": "0000000000000000000000000000000000000000000000000000051705170517",
  "nTx": 1,
  "previousblockhash": "000000000b57d2d81865b33cbf69ee905688ee70772fedb7cbc7407fbccd5461",
  "nextblockhash": "0000000005e9519fba6e06d401e872c45d1f79e621e6f2a18a4923da1d3be42d",
  "strippedsize": 215,
  "size": 215,
  "weight": 860,
  "tx": [
    {
      "txid": "be736c8a6257811a9eb8890a1cdd5cb6e926a0e7a5e12fd1e3249b859468a859",
      "hash": "be736c8a6257811a9eb8890a1cdd5cb6e926a0e7a5e12fd1e3249b859468a859",
      "version": 1,
      "size": 134,
      "vsize": 134,
      "weight": 536,
      "locktime": 0,
      "vin": [
        {
          "coinbase": "04ffff001d012a",
          "sequence": 4294967295
        }
      ],
      "vout": [
        {
          "value": 50.0,
          "n": 0,
          "scriptPubKey": {
            "asm": "0450e0978da3f889502a7b9391cf298fa88307fa7bdd9f20fb87cd84f1b059d0e48015355637c1c2d0045a20b6aa08c5962d83c144e3454ab097666b1a52976257 OP_CHECKSIG",
            "desc": "pk(0450e0978da3f889502a7b9391cf298fa88307fa7bdd9f20fb87cd84f1b059d0e48015355637c1c2d0045a20b6aa08c5962d83c144e3454ab097666b1a52976257)#gha3sz3k",
            "hex": "410450e0978da3f889502a7b9391cf298fa88307fa7bdd9f20fb87cd84f1b059d0e48015355637c1c2d0045a20b6aa08c5962d83c144e3454ab097666b1a52976257ac",
            "type": "pubkey"
          }
        }
      ],
      "hex": "01000000010000000000000000000000000000000000000000000000000000000000000000ffffffff0704ffff001d012affffffff0100f2052a0100000043410450e0978da3f889502a7b9391cf298fa88307fa7bdd9f20fb87cd84f1b059d0e48015355637c1c2d0045a20b6aa08c5962d83c144e3454ab097666b1a52976257ac00000000"
    }
  ]
}