{
  "hash": "000000006325d81ffb96930c61b945c4ad136620cd31f34b6067ab3b1e6891b3",
  "confirmations": 47399,
  "height": 5699,
  "version": 1,
  "versionHex": "00000001",
  "merkleroot": "4e3b161d8634739765f6c2b9d22c7c2d9243ba25b49681e339542ada0fd021c2",
  "time": 1235684594,
  "mediantime": 1235682246,
  "nonce": 3391376954,
  "bits": "1d00ffff",
  "difficulty": 1,
  "chainwork": "0000000000000000000000000000000000000000000000000000164416441644",
  "nTx": 1,
  "previousblockhash": "00000000e7e3a995b5f7f1d9cc036bcadf514ee35d7b2519e165418ec189f2c2",
  "nextblockhash": "0000000092401f6c614f894c6cc1f2bc24a68c817371e82fe06cd9a954acf7dc",
  "strippedsize": 216,
  "size": 216,
  "weight": 864,
  "tx": [
    {
      "txid": "4e3b161d8634739765f6c2b9d22c7c2d9243ba25b49681e339542ada0fd021c2",
      "hash": "4e3b161d8634739765f6c2b9d22c7c2d9243ba25b49681e339542ada0fd021c2",
      "version": 1,
      "size": 135,
      "vsize": 135,
      "weight": 540,
      "locktime": 0,
      "vin": [
        {
          "coinbase": "04ffff001d026909",
          "sequence": 4294967295
        }
      ],
      "vout": [
        {
          "value": 50.0,
          "n": 0,
          "scriptPubKey": {
            "asm": "0414d63a84155dbbc7fecf6011e0c02e28b1fd761a7bb79c9a14733cc026d4bfbfdf3246ef43a18b1c3ad1d20dda0918159914544cdd2e7d07f680daedc848d495 OP_CHECKSIG",
            "desc": "pk(0414d63a84155dbbc7fecf6011e0c02e28b1fd761a7bb79c9a14733cc026d4bfbfdf3246ef43a18b1c3ad1d20dda0918159914544cdd2e7d07f680daedc848d495)#89faxw3t",
            "hex": "410414d63a84155dbbc7fecf6011e0c02e28b1fd761a7bb79c9a14733cc026d4bfbfdf3246ef43a18b1c3ad1d20dda0918159914544cdd2e7d07f680daedc848d495ac",
            "type": "pubkey"
          }
        }
      ],
      "hex": "01000000010000000000000000000000000000000000000000000000000000000000000000ffffffff0804ffff001d026909ffffffff0100f2052a0100000043410414d63a84155dbbc7fecf6011e0c02e28b1fd761a7bb79c9a14733cc026d4bfbfdf3246ef43a18b1c3ad1d20dda0918159914544cdd2e7d07f680daedc848d495ac00000000"
    }
  ]
}