{
  "hash": "00000000aae47d47b6ff5eda6abab09cd6720684b1368eac70ac4240b3c90250",
  "confirmations": 51896,
  "height": 65,
  "version": 1,
  "versionHex": "00000001",
  "merkleroot": "f15c7c51118c1dc93129a9f4999c7768ef2ff8cda3230f56d32576518c5f9349",
  "time": 1231624503,
  "mediantime": 1231621959,
  "nonce": 3241330989,
  "bits": "1d00ffff",
  "difficulty": 1,
  "chainwork": "0000000000000000000000000000000000000000000000000000004200420042",
  "nTx": 1,
  "previousblockhash": "0000000031975f17c5642a9c7e53ae4201a70a6ba6363036b55497b8754d1866",
  "nextblockhash": "0000000063d334becd1f17db9b6ccf570805caeed92d37d3d67b48e3685e760d",
  "strippedsize": 216,
  "size": 216,
  "weight": 864,
  "tx": [
    {
      "txid": "f15c7c51118c1dc93129a9f4999c7768ef2ff8cda3230f56d32576518c5f9349",
      "hash": "f15c7c51118c1dc93129a9f4999c7768ef2ff8cda3230f56d32576518c5f9349",
      "version": 1,
      "size": 135,
      "vsize": 135,
      "weight": 540,
      "locktime": 0,
      "vin": [
        {
          "coinbase": "04ffff001d02a100",
          "sequence": 4294967295
        }
      ],
      "vout": [
        {
          "value": 50.0,
          "n": 0,
          "scriptPubKey": {
            "asm": "04066687fe17381d3ea7490b084a2e9cab4ab37369089accc8b005cbea944789d1e34fcc418ed70c98936ae2c97cd8478bdc37264260421999b150573d1106d492 OP_CHECKSIG",
            "desc": "pk(04066687fe17381d3ea7490b084a2e9cab4ab37369089accc8b005cbea944789d1e34fcc418ed70c98936ae2c97cd8478bdc37264260421999b150573d1106d492)#d73pevqs",
            "hex": "4104066687fe17381d3ea7490b084a2e9cab4ab37369089accc8b005cbea944789d1e34fcc418ed70c98936ae2c97cd8478bdc37264260421999b150573d1106d492ac",
            "type": "pubkey"
          }
        }
      ],
      "hex": "01000000010000000000000000000000000000000000000000000000000000000000000000ffffffff0804ffff001d02a100ffffffff0100f2052a01000000434104066687fe17381d3ea7490b084a2e9cab4ab37369089accc8b005cbea944789d1e34fcc418ed70c98936ae2c97cd8478bdc37264260421999b150573d1106d492ac00000000"
    }
  ]
}