{
  "hash": "00000000aca10cf2fecc97eba47ecf710a0b45be92fdadb8f492fde9844bfbf5",
  "confirmations": 45606,
  "height": 7492,
  "version": 1,
  "versionHex": "00000001",
  "merkleroot": "7ab02862897562883ba0408ef9c06da9abc3dd3c6be671b8111f2478767fc8de",
  "time": 1237091890,
  "mediantime": 1237086515,
  "nonce": 4210050070,
  "bits": "1d00ffff",
  "difficulty": 1,
  "chainwork": "00000000000000000000000000000000000000000000000000001d451d451d45",
  "nTx": 1,
  "previousblockhash": "000000008fd0be1624982e121c7225459b3ef5387c52b2a8c514c73a9f478578",
  "nextblockhash": "0000000095b5297ee2a3512646f09519fca29282e198d3cd7b9dd6ad2dff9489",
  "strippedsize": 216,
  "size": 216,
  "weight": 864,
  "tx": [
    {
      "txid": "7ab02862897562883ba0408ef9c06da9abc3dd3c6be671b8111f2478767fc8de",
      "hash": "7ab02862897562883ba0408ef9c06da9abc3dd3c6be671b8111f2478767fc8de",
      "version": 1,
      "size": 135,
      "vsize": 135,
      "weight": 540,
      "locktime": 0,
      "vin": [
        {
          "coinbase": "04ffff001d02cf00",
          "sequence": 4294967295
        }
      ],
      "vout": [
        {
          "value": 50.0,
          "n": 0,
          "scriptPubKey": {
            "asm": "042430136b7858c2b1975be00e89e6740df1f89b7ecc32fa95b0aac765e8c92113e06abe0c3d8c32577a7ad41bb19ad93a47389a993b3452cab4aadd13e8d9b234 OP_CHECKSIG",
            "desc": "pk(042430136b7858c2b1975be00e89e6740df1f89b7ecc32fa95b0aac765e8c92113e06abe0c3d8c32577a7ad41bb19ad93a47389a993b3452cab4aadd13e8d9b234)#df0604ha",
            "hex": "41042430136b7858c2b1975be00e89e6740df1f89b7ecc32fa95b0aac765e8c92113e06abe0c3d8c32577a7ad41bb19ad93a47389a993b3452cab4aadd13e8d9b234ac",
            "type": "pubkey"
          }
        }
      ],
      "hex": "01000000010000000000000000000000000000000000000000000000000000000000000000ffffffff0804ffff001d02cf00ffffffff0100f2052a010000004341042430136b7858c2b1975be00e89e6740df1f89b7ecc32fa95b0aac765e8c92113e06abe0c3d8c32577a7ad41bb19ad93a47389a993b3452cab4aadd13e8d9b234ac00000000"
    }
  ]
}