{
  "hash": "000000008c3c1a85063bc181d4ff51425209ba6788a0f85c473667620bed5780",
  "confirmations": 52417,
  "height": 681,
  "version": 1,
  "versionHex": "00000001",
  "merkleroot": "0d31eb988e57808e6918dde6a8e6acc19c6622fdeae1af0e132816ca4448d865",
  "time": 1232093273,
  "mediantime": 1232089660,
  "nonce": 4034844416,
  "bits": "1d00ffff",
  "difficulty": 1,
  "chainwork": "000000000000000000000000000000000000000000000000000002aa02aa02aa",
  "nTx": 1,
  "previousblockhash": "000000001943f7332d6eed79dd7c66f37c571c47f51faa9f34efd13e3f4e181c",
  "nextblockhash": "00000000d3d00462bebfb057d6c3eb931a7690447a31b10f0db37b150ed4c08b",
  "strippedsize": 215,
  "size": 215,
  "weight": 860,
  "tx": [
    {
      "txid": "0d31eb988e57808e6918dde6a8e6acc19c6622fdeae1af0e132816ca4448d865",
      "hash": "0d31eb988e57808e6918dde6a8e6acc19c6622fdeae1af0e132816ca4448d865",
      "version": 1,
      "size": 134,
      "vsize": 134,
      "weight": 536,
      "locktime": 0,
      "vin": [
        {
          "coinbase": "04ffff001d016b",
          "sequence": 4294967295
        }
      ],
      "vout": [
        {
          "value": 50.0,
          "n": 0,
          "scriptPubKey": {
            "asm": "04995280cc2d9cfc739b42bf361c96ac3d6bdf030c8afffa9f5df76ff56ca992bcb9c9e3f18bf9bd81811d44046dab06d7dc5941d99e87fc0b78063c48a4232092 OP_CHECKSIG",
            "desc": "pk(04995280cc2d9cfc739b42bf361c96ac3d6bdf030c8afffa9f5df76ff56ca992bcb9c9e3f18bf9bd81811d44046dab06d7dc5941d99e87fc0b78063c48a4232092)#3vd7vak2",
            "hex": "4104995280cc2d9cfc739b42bf361c96ac3d6bdf030c8afffa9f5df76ff56ca992bcb9c9e3f18bf9bd81811d44046dab06d7dc5941d99e87fc0b78063c48a4232092ac",
            "type": "pubkey"
          }
        }
      ],
      "hex": "01000000010000000000000000000000000000000000000000000000000000000000000000ffffffff0704ffff001d016bffffffff0100f2052a01000000434104995280cc2d9cfc739b42bf361c96ac3d6bdf030c8afffa9f5df76ff56ca992bcb9c9e3f18bf9bd81811d44046dab06d7dc5941d99e87fc0b78063c48a4232092ac00000000"
    }
  ]
}