{
  "hash": "00000000b7bef491368d068bc76d029fed30961c8fd64f9f7c3ae9599ba98a77",
  "confirmations": 51777,
  "height": 1321,
  "version": 1,
  "versionHex": "00000001",
  "merkleroot": "3785bcb978a04aed3767e9c8ef92cff0a555c3524b396f577e53c6daefdf6407",
  "time": 1232613826,
  "mediantime": 1232609442,
  "nonce": 3026917653,
  "bits": "1d00ffff",
  "difficulty": 1,
  "chainwork": "0000000000000000000000000000000000000000000000000000052a052a052a",
  "nTx": 1,
  "previousblockhash": "000000008e81fd45f37bebf570ab987b2a386b76ace40d628ef3250b9b6d6db1",
  "nextblockhash": "00000000eabe729e37fb60d9d9c3aaa4ce6c2a96ceabfc17d9818a5d32608195",
  "strippedsize": 216,
  "size": 216,
  "weight": 864,
  "tx": [
    {
      "txid": "3785bcb978a04aed3767e9c8ef92cff0a555c3524b396f577e53c6daefdf6407",
      "hash": "3785bcb978a04aed3767e9c8ef92cff0a555c3524b396f577e53c6daefdf6407",
      "version": 1,
      "size": 135,
      "vsize": 135,
      "weight": 540,
      "locktime": 0,
      "vin": [
        {
          "coinbase": "04ffff001d028800",
          "sequence": 4294967295
        }
      ],
      "vout": [
        {
          "value": 50.0,
          "n": 0,
          "scriptPubKey": {
            "asm": "0400bbc96feb10c7bd888302d60e19430af8294d8c8193a2cf4dddcb87c75e424d4448b6c021fddb472f7b45fb6b732222430eac3ed8439f1df81ba1eae795165a OP_CHECKSIG",
            "desc": "pk(0400bbc96feb10c7bd888302d60e19430af8294d8c8193a2cf4dddcb87c75e424d4448b6c021fddb472f7b45fb6b732222430eac3ed8439f1df81ba1eae795165a)#ejzh78yf",
            "hex": "410400bbc96feb10c7bd888302d60e19430af8294d8c8193a2cf4dddcb87c75e424d4448b6c021fddb472f7b45fb6b732222430eac3ed8439f1df81ba1eae795165aac",
            "type": "pubkey"
          }
        }
      ],
      "hex": "01000000010000000000000000000000000000000000000000000000000000000000000000ffffffff0804ffff001d028800ffffffff0100f2052a0100000043410400bbc96feb10c7bd888302d60e19430af8294d8c8193a2cf4dddcb87c75e424d4448b6c021fddb472f7b45fb6b732222430eac3ed8439f1df81ba1eae795165aac00000000"
    }
  ]
}