{
  "hash": "00000000653d00d4e326b0a1776b62ce317af501bc736c883ac9777ee3c04eae",
  "confirmations": 52295,
  "height": 803,
  "version": 1,
  "versionHex": "00000001",
  "merkleroot": "a10158328253cd56bc10095d6bfe91f286dd2f634be0fc05f9171c8e188b0d8a",
  "time": 1232196066,
  "mediantime": 1232192234,
  "nonce": 34355706,
  "bits": "1d00ffff",
  "difficulty": 1,
  "chainwork": "0000000000000000000000000000000000000000000000000000032403240324",
  "nTx": 1,
  "previousblockhash": "000000001e8f64f7d397e1576d272c071abf6b66babe6d6a657d2b1dfa20606e",
  "nextblockhash": "00000000d39e254b36f2332bf52c65b6ad300b8cfde371c7126cc04ef8a27f8e",
  "strippedsize": 216,
  "size": 216,
  "weight": 864,
  "tx": [
    {
      "txid": "a10158328253cd56bc10095d6bfe91f286dd2f634be0fc05f9171c8e188b0d8a",
      "hash": "a10158328253cd56bc10095d6bfe91f286dd2f634be0fc05f9171c8e188b0d8a",
      "version": 1,
      "size": 135,
      "vsize": 135,
      "weight": 540,
      "locktime": 0,
      "vin": [
        {
          "coinbase": "04ffff001d02af00",
          "sequence": 4294967295
        }
      ],
      "vout": [
        {
          "value": 50.0,
          "n": 0,
          "scriptPubKey": {
            "asm": "04e0b7f31c7f13c963c8ab7b9774d75117e01297df8c9ba635fde3e45f9c6b35a29999babfc30daffb99dc6f3da75070a65175193a3803a24cfb223356d47d2d29 OP_CHECKSIG",
            "desc": "pk(04e0b7f31c7f13c963c8ab7b9774d75117e01297df8c9ba635fde3e45f9c6b35a29999babfc30daffb99dc6f3da75070a65175193a3803a24cfb223356d47d2d29)#rdw2qclq",
            "hex": "4104e0b7f31c7f13c963c8ab7b9774d75117e01297df8c9ba635fde3e45f9c6b35a29999babfc30daffb99dc6f3da75070a65175193a3803a24cfb223356d47d2d29ac",
            "type": "pubkey"
          }
        }
      ],
      "hex": "01000000010000000000000000000000000000000000000000000000000000000000000000ffffffff0804ffff001d02af00ffffffff0100f2052a01000000434104e0b7f31c7f13c963c8ab7b9774d75117e01297df8c9ba635fde3e45f9c6b35a29999babfc30daffb99dc6f3da75070a65175193a3803a24cfb223356d47d2d29ac00000000"
    }
  ]
}