{
  "hash": "00000000f067c09041ff0fcee3d91aeb7fbcc5654d3f766af2b4377aaee68d00",
  "confirmations": 51870,
  "height": 49,
  "version": 1,
  "versionHex": "00000001",
  "merkleroot": "194c9715279d8626bc66f2b6552f2ae67b3df3a00b88553245b12bffffad5b59",
  "time": 1231613802,
  "mediantime": 1231610361,
  "nonce": 3014810412,
  "bits": "1d00ffff",
  "difficulty": 1,
  "chainwork": "0000000000000000000000000000000000000000000000000000003200320032",
  "nTx": 1,
  "previousblockhash": "0000000088960278f4060b8747027b2aac0eb443aedbb1b75d1a72cf71826e89",
  "nextblockhash": "0000000026f34d197f653c5e80cb805e40612eadb0f45d00d7ea4164a20faa33",
  "strippedsize": 215,
  "size": 215,
  "weight": 860,
  "tx": [
    {
      "txid": "194c9715279d8626bc66f2b6552f2ae67b3df3a00b88553245b12bffffad5b59",
      "hash": "194c9715279d8626bc66f2b6552f2ae67b3df3a00b88553245b12bffffad5b59",
      "version": 1,
      "size": 134,
      "vsize": 134,
      "weight": 536,
      "locktime": 0,
      "vin": [
        {
          "coinbase": "04ffff001d013a",
          "sequence": 4294967295
        }
      ],
      "vout": [
        {
          "value": 50.0,
          "n": 0,
          "scriptPubKey": {
            "asm": "048644947f13359243d46be6436fb04bc20f92c1ed34b9548b31838bdb5ef721da70c360f2a8886e47addf7b3f87142b5245d95c9bbd6e36f43055998174db8417 OP_CHECKSIG",
            "desc": "pk(048644947f13359243d46be6436fb04bc20f92c1ed34b9548b31838bdb5ef721da70c360f2a8886e47addf7b3f87142b5245d95c9bbd6e36f43055998174db8417)#kltrvmkd",
            "hex": "41048644947f13359243d46be6436fb04bc20f92c1ed34b9548b31838bdb5ef721da70c360f2a8886e47addf7b3f87142b5245d95c9bbd6e36f43055998174db8417ac",
            "type": "pubkey"
          }
        }
      ],
      "hex": "01000000010000000000000000000000000000000000000000000000000000000000000000ffffffff0704ffff001d013affffffff0100f2052a010000004341048644947f13359243d46be6436fb04bc20f92c1ed34b9548b31838bdb5ef721da70c360f2a8886e47addf7b3f87142b5245d95c9bbd6e36f43055998174db8417ac00000000"
    }
  ]
}