{
  "hash": "00000000277bf2d9deb20701a7dbdeaf676f0dc5746ae4547c48c7a1fdd914aa",
  "confirmations": 45165,
  "height": 7933,
  "version": 1,
  "versionHex": "00000001",
  "merkleroot": "590f29e3e7d4322e8188888a1a6a8f8209839c635f39dd723464c15d9e3c9650",
  "time": 1237415494,
  "mediantime": 1237414322,
  "nonce": 1449772550,
  "bits": "1d00ffff",
  "difficulty": 1,
  "chainwork": "00000000000000000000000000000000000000000000000000001efe1efe1efe",
  "nTx": 1,
  "previousblockhash": "00000000559fbd392a1af1026f4024f7d39dcaea79e16dc06c28a24d16bda20a",
  "nextblockhash": "00000000f6904fb744a48539f17993c044c61cc17a9d84cb760e47500deb9415",
  "strippedsize": 216,
  "size": 216,
  "weight": 864,
  "tx": [
    {
      "txid": "590f29e3e7d4322e8188888a1a6a8f8209839c635f39dd723464c15d9e3c9650",
      "hash": "590f29e3e7d4322e8188888a1a6a8f8209839c635f39dd723464c15d9e3c9650",
      "version": 1,
      "size": 135,
      "vsize": 135,
      "weight": 540,
      "locktime": 0,
      "vin": [
        {
          "coinbase": "04ffff001d023c08",
          "sequence": 4294967295
        }
      ],
      "vout": [
        {
          "value": 50.0,
          "n": 0,
          "scriptPubKey": {
            "asm": "041ab58ef777b18129f4089a233b271e86c2507af794dbf862543a8a7f8cf8a366862379d613f9248aeb2c8939d5945ffda5d5fab65d675b3a02955ba6e7602b2e OP_CHECKSIG",
            "desc": "pk(041ab58ef777b18129f4089a233b271e86c2507af794dbf862543a8a7f8cf8a366862379d613f9248aeb2c8939d5945ffda5d5fab65d675b3a02955ba6e7602b2e)#mj6ftuev",
            "hex": "41041ab58ef777b18129f4089a233b271e86c2507af794dbf862543a8a7f8cf8a366862379d613f9248aeb2c8939d5945ffda5d5fab65d675b3a02955ba6e7602b2eac",
            "type": "pubkey"
          }
        }
      ],
      "hex": "01000000010000000000000000000000000000000000000000000000000000000000000000ffffffff0804ffff001d023c08ffffffff0100f2052a010000004341041ab58ef777b18129f4089a233b271e86c2507af794dbf862543a8a7f8cf8a366862379d613f9248aeb2c8939d5945ffda5d5fab65d675b3a02955ba6e7602b2eac00000000"
    }
  ]
}