{
  "hash": "00000000c3922a5f12e7c3230c641a36f5d3de183c4a3d92e40ec5757eeb7704",
  "confirmations": 47735,
  "height": 5363,
  "version": 1,
  "versionHex": "00000001",
  "merkleroot": "d32f558995a983d46217e98d82a48e2c4b3b101a996bed3ed84f3844dfe20277",
  "time": 1235413579,
  "mediantime": 1235409695,
  "nonce": 2954275636,
  "bits": "1d00ffff",
  "difficulty": 1,
  "chainwork": "000000000000000000000000000000000000000000000000000014f414f414f4",
  "nTx": 1,
  "previousblockhash": "00000000609cb03b69502dc7b47a517a22819934f0f3f7e9e05d8ecbf6c7d3ad",
  "nextblockhash": "000000004e9efc3cc310d41967d79cdc89ab3e2a527255a143b3f6cdf361ba57",
  "strippedsize": 216,
  "size": 216,
  "weight": 864,
  "tx": [
    {
      "txid": "d32f558995a983d46217e98d82a48e2c4b3b101a996bed3ed84f3844dfe20277",
      "hash": "d32f558995a983d46217e98d82a48e2c4b3b101a996bed3ed84f3844dfe20277",
      "version": 1,
      "size": 135,
      "vsize": 135,
      "weight": 540,
      "locktime": 0,
      "vin": [
        {
          "coinbase": "04ffff001d021a03",
          "sequence": 4294967295
        }
      ],
      "vout": [
        {
          "value": 50.0,
          "n": 0,
          "scriptPubKey": {
            "asm": "04f50d53236b9ff4b0fb2fb80fd317ce1594f02638e3c51115eb18a7041f14e617ad40618334e8daf6a826ca1953afb4fbb5db557f6e4fb80a95030ce75f77cbe2 OP_CHECKSIG",
            "desc": "pk(04f50d53236b9ff4b0fb2fb80fd317ce1594f02638e3c51115eb18a7041f14e617ad40618334e8daf6a826ca1953afb4fbb5db557f6e4fb80a95030ce75f77cbe2)#lkjmewdw",
            "hex": "4104f50d53236b9ff4b0fb2fb80fd317ce1594f02638e3c51115eb18a7041f14e617ad40618334e8daf6a826ca1953afb4fbb5db557f6e4fb80a95030ce75f77cbe2ac",
            "type": "pubkey"
          }
        }
      ],
      "hex": "01000000010000000000000000000000000000000000000000000000000000000000000000ffffffff0804ffff001d021a03ffffffff0100f2052a01000000434104f50d53236b9ff4b0fb2fb80fd317ce1594f02638e3c51115eb18a7041f14e617ad40618334e8daf6a826ca1953afb4fbb5db557f6e4fb80a95030ce75f77cbe2ac00000000"
    }
  ]
}