{
  "hash": "00000000ab84f38f87cd4b1c237a668d8db911ace09e3bce09b034e3c77cb023",
  "confirmations": 44646,
  "height": 8452,
  "version": 1,
  "versionHex": "00000001",
  "merkleroot": "a1dfa65d0baa4ace57653c1b0a1e9366d46b155c5e9f0802309c9ffbb0ff4e1d",
  "time": 1237830809,
  "mediantime": 1237828302,
  "nonce": 2402317109,
  "bits": "1d00ffff",
  "difficulty": 1,
  "chainwork": "0000000000000000000000000000000000000000000000000000210521052105",
  "nTx": 1,
  "previousblockhash": "00000000cdb32825ea7611cdf2981d663362301c5a0883f062cce4da77ad50c1",
  "nextblockhash": "0000000096dbaac683385c185df9fc82677b5aa72d36be2799dd4fadcf79a32f",
  "strippedsize": 216,
  "size": 216,
  "weight": 864,
  "tx": [
    {
      "txid": "a1dfa65d0baa4ace57653c1b0a1e9366d46b155c5e9f0802309c9ffbb0ff4e1d",
      "hash": "a1dfa65d0baa4ace57653c1b0a1e9366d46b155c5e9f0802309c9ffbb0ff4e1d",
      "version": 1,
      "size": 135,
      "vsize": 135,
      "weight": 540,
      "locktime": 0,
      "vin": [
        {
          "coinbase": "04ffff001d02cb06",
          "sequence": 4294967295
        }
      ],
      "vout": [
        {
          "value": 50.0,
          "n": 0,
          "scriptPubKey": {
            "asm": "04767078679ba02d6f70101144c7c49724ecd0d81779baf60d93945b59248314ad17060ed86a2e3fa12ee12458d2134d06030a4f14f881efd4c57161b926f21d5c OP_CHECKSIG",
            "desc": "pk(04767078679ba02d6f70101144c7c49724ecd0d81779baf60d93945b59248314ad17060ed86a2e3fa12ee12458d2134d06030a4f14f881efd4c57161b926f21d5c)#y6tq6dr7",
            "hex": "4104767078679ba02d6f70101144c7c49724ecd0d81779baf60d93945b59248314ad17060ed86a2e3fa12ee12458d2134d06030a4f14f881efd4c57161b926f21d5cac",
            "type": "pubkey"
          }
        }
      ],
      "hex": "01000000010000000000000000000000000000000000000000000000000000000000000000ffffffff0804ffff001d02cb06ffffffff0100f2052a01000000434104767078679ba02d6f70101144c7c49724ecd0d81779baf60d93945b59248314ad17060ed86a2e3fa12ee12458d2134d06030a4f14f881efd4c57161b926f21d5cac00000000"
    }
  ]
}