{
  "hash": "00000000302b2242dc97255ae08813f5dd6ad5618bd7acf27dda9a54c5bef25a",
  "confirmations": 50434,
  "height": 2664,
  "version": 1,
  "versionHex": "00000001",
  "merkleroot": "298e74e8d25befca6c76a4a28dccefd643559ae22ba90a0a514e2464e44dc568",
  "time": 1233537086,
  "mediantime": 1233533236,
  "nonce": 130151628,
  "bits": "1d00ffff",
  "difficulty": 1,
  "chainwork": "00000000000000000000000000000000000000000000000000000a690a690a69",
  "nTx": 1,
  "previousblockhash": "000000008d55cc911e6f532604b81a63724dd47bf1657196fcba560997de953e",
  "nextblockhash": "00000000144b706c5312c82315b5a64fd33addaeadba5ee06a50799ead1690a0",
  "strippedsize": 215,
  "size": 215,
  "weight": 860,
  "tx": [
    {
      "txid": "298e74e8d25befca6c76a4a28dccefd643559ae22ba90a0a514e2464e44dc568",
      "hash": "298e74e8d25befca6c76a4a28dccefd643559ae22ba90a0a514e2464e44dc568",
      "version": 1,
      "size": 134,
      "vsize": 134,
      "weight": 536,
      "locktime": 0,
      "vin": [
        {
          "coinbase": "04ffff001d016d",
          "sequence": 4294967295
        }
      ],
      "vout": [
        {
          "value": 50.0,
          "n": 0,
          "scriptPubKey": {
            "asm": "041284b3be4d440b7291b13765f43132a670f9161fd90252d2215b258631c96d0510c6f06c2abd019cfc148ca3530e0bd2aa03ac97edd06e8c48c7eacddefd6b09 OP_CHECKSIG",
            "desc": "pk(041284b3be4d440b7291b13765f43132a670f9161fd90252d2215b258631c96d0510c6f06c2abd019cfc148ca3530e0bd2aa03ac97edd06e8c48c7eacddefd6b09)#k29mnzu4",
            "hex": "41041284b3be4d440b7291b13765f43132a670f9161fd90252d2215b258631c96d0510c6f06c2abd019cfc148ca3530e0bd2aa03ac97edd06e8c48c7eacddefd6b09ac",
            "type": "pubkey"
          }
        }
      ],
      "hex": "01000000010000000000000000000000000000000000000000000000000000000000000000ffffffff0704ffff001d016dffffffff0100f2052a010000004341041284b3be4d440b7291b13765f43132a670f9161fd90252d2215b258631c96d0510c6f06c2abd019cfc148ca3530e0bd2aa03ac97edd06e8c48c7eacddefd6b09ac00000000"
    }
  ]
}