{
  "hash": "000000007716a1f58c0ac514031e7657a7cdbee9188545495558d3078375ee76",
  "confirmations": 52044,
  "height": 292,
  "version": 1,
  "versionHex": "00000001",
  "merkleroot": "5b3f0a651529bde1ea8f2368d631752be0e28d1fd5f287cc86d63ae0983a1ac2",
  "time": 1231826633,
  "mediantime": 1231822967,
  "nonce": 4195347763,
  "bits": "1d00ffff",
  "difficulty": 1,
  "chainwork": "0000000000000000000000000000000000000000000000000000012501250125",
  "nTx": 1,
  "previousblockhash": "0000000004c43b1ba070fd83c0f34673d6b166c608b0ec733357b75b4c65fc1f",
  "nextblockhash": "000000008f106f9bbd4d9d5dd412e4aeab83203d10a4125d03ec60bbad295c21",
  "strippedsize": 215,
  "size": 215,
  "weight": 860,
  "tx": [
    {
      "txid": "5b3f0a651529bde1ea8f2368d631752be0e28d1fd5f287cc86d63ae0983a1ac2",
      "hash": "5b3f0a651529bde1ea8f2368d631752be0e28d1fd5f287cc86d63ae0983a1ac2",
      "version": 1,
      "size": 134,
      "vsize": 134,
      "weight": 536,
      "locktime": 0,
      "vin": [
        {
          "coinbase": "04ffff001d014f",
          "sequence": 4294967295
        }
      ],
      "vout": [
        {
          "value": 50.0,
          "n": 0,
          "scriptPubKey": {
            "asm": "04570e9ceaddb8d3ef5732c099891312d949716699bce582301221d74fe4595e91f04a0379bfa893def05fc02477206c72e02f4fe2ee8f133e27d30c072489ae82 OP_CHECKSIG",
            "desc": "pk(04570e9ceaddb8d3ef5732c099891312d949716699bce582301221d74fe4595e91f04a0379bfa893def05fc02477206c72e02f4fe2ee8f133e27d30c072489ae82)#zuqqr2rg",
            "hex": "4104570e9ceaddb8d3ef5732c099891312d949716699bce582301221d74fe4595e91f04a0379bfa893def05fc02477206c72e02f4fe2ee8f133e27d30c072489ae82ac",
            "type": "pubkey"
          }
        }
      ],
      "hex": "01000000010000000000000000000000000000000000000000000000000000000000000000ffffffff0704ffff001d014fffffffff0100f2052a01000000434104570e9ceaddb8d3ef5732c099891312d949716699bce582301221d74fe4595e91f04a0379bfa893def05fc02477206c72e02f4fe2ee8f133e27d30c072489ae82ac00000000"
    }
  ]
}