{
  "hash": "00000000382fe8d455a16c7dfc9d8ac31ed6fb6347ad0e4bea4c9faa78abde65",
  "confirmations": 43851,
  "height": 9247,
  "version": 1,
  "versionHex": "00000001",
  "merkleroot": "12fcbfd6a5d8e83b5172acf6f1bce86af55264f204bfb626894dc8a89a3ddba6",
  "time": 1238432830,
  "mediantime": 1238428505,
  "nonce": 25763886,
  "bits": "1d00ffff",
  "difficulty": 1,
  "chainwork": "0000000000000000000000000000000000000000000000000000242024202420",
  "nTx": 1,
  "previousblockhash": "0000000049b941e3ebd794c6d406890f0b707b2f93984123f9c58471f40ff981",
  "nextblockhash": "00000000541828a90e98b49c55e8aefd9b27140f9d873ca2a7d1237054b659a2",
  "strippedsize": 216,
  "size": 216,
  "weight": 864,
  "tx": [
    {
      "txid": "12fcbfd6a5d8e83b5172acf6f1bce86af55264f204bfb626894dc8a89a3ddba6",
      "hash": "12fcbfd6a5d8e83b5172acf6f1bce86af55264f204bfb626894dc8a89a3ddba6",
      "version": 1,
      "size": 135,
      "vsize": 135,
      "weight": 540,
      "locktime": 0,
      "vin": [
        {
          "coinbase": "04ffff001d02d60e",
          "sequence": 4294967295
        }
      ],
      "vout": [
        {
          "value": 50.0,
          "n": 0,
          "scriptPubKey": {
            "asm": "04b8dc235b48e53f6ee50431adb0cb0cf69d761db18ecdbc4b2dfc4e0fcd25a342f25931ba3f0aab530d7b4459b2cbab188f14fcdf693e0bcc2a0a2753eeae78ae OP_CHECKSIG",
            "desc": "pk(04b8dc235b48e53f6ee50431adb0cb0cf69d761db18ecdbc4b2dfc4e0fcd25a342f25931ba3f0aab530d7b4459b2cbab188f14fcdf693e0bcc2a0a2753eeae78ae)#r3dxj03c",
            "hex": "4104b8dc235b48e53f6ee50431adb0cb0cf69d761db18ecdbc4b2dfc4e0fcd25a342f25931ba3f0aab530d7b4459b2cbab188f14fcdf693e0bcc2a0a2753eeae78aeac",
            "type": "pubkey"
          }
        }
      ],
      "hex": "01000000010000000000000000000000000000000000000000000000000000000000000000ffffffff0804ffff001d02d60effffffff0100f2052a01000000434104b8dc235b48e53f6ee50431adb0cb0cf69d761db18ecdbc4b2dfc4e0fcd25a342f25931ba3f0aab530d7b4459b2cbab188f14fcdf693e0bcc2a0a2753eeae78aeac00000000"
    }
  ]
}