{
  "hash": "0000000065e7410c8d6369d9e27f61ade0793270893a1e9b1ffdf303d383f53c",
  "confirmations": 45188,
  "height": 7910,
  "version": 1,
  "versionHex": "00000001",
  "merkleroot": "8571d774bd1bfab051a281802dcf93b2eaabf385b9a49a6bd37250ae22729a97",
  "time": 1237400693,
  "mediantime": 1237397016,
  "nonce": 3532363783,
  "bits": "1d00ffff",
  "difficulty": 1,
  "chainwork": "00000000000000000000000000000000000000000000000000001ee71ee71ee7",
  "nTx": 1,
  "previousblockhash": "0000000050bb353e5a7b1a9d17dbd957aaef9cc81aea46afad55da7c56bd2561",
  "nextblockhash": "000000004a91f9b42b0e51d1084e38994d16c80f62a9542639fbb0e507f4fef7",
  "strippedsize": 216,
  "size": 216,
  "weight": 864,
  "tx": [
    {
      "txid": "8571d774bd1bfab051a281802dcf93b2eaabf385b9a49a6bd37250ae22729a97",
      "hash": "8571d774bd1bfab051a281802dcf93b2eaabf385b9a49a6bd37250ae22729a97",
      "version": 1,
      "size": 135,
      "vsize": 135,
      "weight": 540,
      "locktime": 0,
      "vin": [
        {
          "coinbase": "04ffff001d02ac07",
          "sequence": 4294967295
        }
      ],
      "vout": [
        {
          "value": 50.0,
          "n": 0,
          "scriptPubKey": {
            "asm": "047f77642e58eaeb493dfb94e2efcd0f575429863ae072b049197e76dc7d6a80f7c4a8f55e10f67d8d8cb46cd3ff7da63cbbc9bbebc29aa00c22a119197b934fd1 OP_CHECKSIG",
            "desc": "pk(047f77642e58eaeb493dfb94e2efcd0f575429863ae072b049197e76dc7d6a80f7c4a8f55e10f67d8d8cb46cd3ff7da63cbbc9bbebc29aa00c22a119197b934fd1)#vmyykp6h",
            "hex": "41047f77642e58eaeb493dfb94e2efcd0f575429863ae072b049197e76dc7d6a80f7c4a8f55e10f67d8d8cb46cd3ff7da63cbbc9bbebc29aa00c22a119197b934fd1ac",
            "type": "pubkey"
          }
        }
      ],
      "hex": "01000000010000000000000000000000000000000000000000000000000000000000000000ffffffff0804ffff001d02ac07ffffffff0100f2052a010000004341047f77642e58eaeb493dfb94e2efcd0f575429863ae072b049197e76dc7d6a80f7c4a8f55e10f67d8d8cb46cd3ff7da63cbbc9bbebc29aa00c22a119197b934fd1ac00000000"
    }
  ]
}