{
  "hash": "000000001296a12c71fb7ab664179a0d47d0d6a96eaf1b5590d6d0ebbd472744",
  "confirmations": 52189,
  "height": 909,
  "version": 1,
  "versionHex": "00000001",
  "merkleroot": "e3ab08d4f8ed2b3b67702a4603a612b282248b85eaff680798d1f93b7863eb80",
  "time": 1232282850,
  "mediantime": 1232280145,
  "nonce": 2839469830,
  "bits": "1d00ffff",
  "difficulty": 1,
  "chainwork": "0000000000000000000000000000000000000000000000000000038e038e038e",
  "nTx": 1,
  "previousblockhash": "00000000bdcf8ca4e6b5259d02ace5d03b450214927ca0bc2217220323fc2256",
  "nextblockhash": "000000000c26bbb4b7fa0da20e0ba50584547dd324a1b9230533b8a475903873",
  "strippedsize": 216,
  "size": 216,
  "weight": 864,
  "tx": [
    {
      "txid": "e3ab08d4f8ed2b3b67702a4603a612b282248b85eaff680798d1f93b7863eb80",
      "hash": "e3ab08d4f8ed2b3b67702a4603a612b282248b85eaff680798d1f93b7863eb80",
      "version": 1,
      "size": 135,
      "vsize": 135,
      "weight": 540,
      "locktime": 0,
      "vin": [
        {
          "coinbase": "04ffff001d02ce03",
          "sequence": 4294967295
        }
      ],
      "vout": [
        {
          "value": 50.0,
          "n": 0,
          "scriptPubKey": {
            "asm": "042493823f1d01634cbb93f6323724361c911c4481d526d194ae15a50c575ccdcd5e647e930f9b46838cea600c1c7fcf20f54d0998fcc181c1503e931a580181c5 OP_CHECKSIG",
            "desc": "pk(042493823f1d01634cbb93f6323724361c911c4481d526d194ae15a50c575ccdcd5e647e930f9b46838cea600c1c7fcf20f54d0998fcc181c1503e931a580181c5)#v93xzknw",
            "hex": "41042493823f1d01634cbb93f6323724361c911c4481d526d194ae15a50c575ccdcd5e647e930f9b46838cea600c1c7fcf20f54d0998fcc181c1503e931a580181c5ac",
            "type": "pubkey"
          }
        }
      ],
      "hex": "01000000010000000000000000000000000000000000000000000000000000000000000000ffffffff0804ffff001d02ce03ffffffff0100f2052a010000004341042493823f1d01634cbb93f6323724361c911c4481d526d194ae15a50c575ccdcd5e647e930f9b46838cea600c1c7fcf20f54d0998fcc181c1503e931a580181c5ac00000000"
    }
  ]
}