{
  "hash": "00000000101932342af01908230784689a23deff717dcfe16552d673ff30f16b",
  "confirmations": 52022,
  "height": 210,
  "version": 1,
  "versionHex": "00000001",
  "merkleroot": "4cfff6b0df4bb66e6ff4d4bfeebf25b61425a81ff9b590603955ec6f840756c6",
  "time": 1231759513,
  "mediantime": 1231757171,
  "nonce": 60921210,
  "bits": "1d00ffff",
  "difficulty": 1,
  "chainwork": "000000000000000000000000000000000000000000000000000000d300d300d3",
  "nTx": 1,
  "previousblockhash": "000000000e478132f5d6451cdb061aa1b639b7a375d566a68702984124ae6b03",
  "nextblockhash": "0000000036a2d643bd78d457cab4320877a24303cc567c8ca84f6937802d0bc4",
  "strippedsize": 215,
  "size": 215,
  "weight": 860,
  "tx": [
    {
      "txid": "4cfff6b0df4bb66e6ff4d4bfeebf25b61425a81ff9b590603955ec6f840756c6",
      "hash": "4cfff6b0df4bb66e6ff4d4bfeebf25b61425a81ff9b590603955ec6f840756c6",
      "version": 1,
      "size": 134,
      "vsize": 134,
      "weight": 536,
      "locktime": 0,
      "vin": [
        {
          "coinbase": "04ffff001d0112",
          "sequence": 4294967295
        }
      ],
      "vout": [
        {
          "value": 50.0,
          "n": 0,
          "scriptPubKey": {
            "asm": "0490172aa2b34471d42d7ac5dfeaf34b24fcf018409eca0eb4424c388839df8a6d388dde423e6285479db1f5f9ab32924766b9c4555dc7766fdada6beaefec0bb9 OP_CHECKSIG",
            "desc": "pk(0490172aa2b34471d42d7ac5dfeaf34b24fcf018409eca0eb4424c388839df8a6d388dde423e6285479db1f5f9ab32924766b9c4555dc7766fdada6beaefec0bb9)#akxfhdj4",
            "hex": "410490172aa2b34471d42d7ac5dfeaf34b24fcf018409eca0eb4424c388839df8a6d388dde423e6285479db1f5f9ab32924766b9c4555dc7766fdada6beaefec0bb9ac",
            "type": "pubkey"
          }
        }
      ],
      "hex": "01000000010000000000000000000000000000000000000000000000000000000000000000ffffffff0704ffff001d0112ffffffff0100f2052a0100000043410490172aa2b34471d42d7ac5dfeaf34b24fcf018409eca0eb4424c388839df8a6d388dde423e6285479db1f5f9ab32924766b9c4555dc7766fdada6beaefec0bb9ac00000000"
    }
  ]
}