{
  "hash": "000000000aa50343f24420ca0c897bf8ce616cbca9be08997c6ecbed99960386",
  "confirmations": 51972,
  "height": 1126,
  "version": 1,
  "versionHex": "00000001",
  "merkleroot": "7f7f832f1e96a9369acf4669a2a90530bc310312f040f05c7d0506b6a53eb52c",
  "time": 1232439599,
  "mediantime": 1232436493,
  "nonce": 2831501621,
  "bits": "1d00ffff",
  "difficulty": 1,
  "chainwork": "0000000000000000000000000000000000000000000000000000046704670467",
  "nTx": 1,
  "previousblockhash": "00000000ff07313367117bf73fbd45434bfecd85390c308b42e5cec8fbaa92b5",
  "nextblockhash": "0000000003f56c1e963b2e2ed7ee09df31fd7834530a36ccc4a15df0c57dcfff",
  "strippedsize": 216,
  "size": 216,
  "weight": 864,
  "tx": [
    {
      "txid": "7f7f832f1e96a9369acf4669a2a90530bc310312f040f05c7d0506b6a53eb52c",
      "hash": "7f7f832f1e96a9369acf4669a2a90530bc310312f040f05c7d0506b6a53eb52c",
      "version": 1,
      "size": 135,
      "vsize": 135,
      "weight": 540,
      "locktime": 0,
      "vin": [
        {
          "coinbase": "04ffff001d026307",
          "sequence": 4294967295
        }
      ],
      "vout": [
        {
          "value": 50.0,
          "n": 0,
          "scriptPubKey": {
            "asm": "043079df83ad536dfe7817e3abe9a59c5ad8521ee62d740f5d09264a40a3ce65c1360d2a7a0d1b4e1781e62ad02e6b913681f17887cb3158d14682d4d774e04c90 OP_CHECKSIG",
            "desc": "pk(043079df83ad536dfe7817e3abe9a59c5ad8521ee62d740f5d09264a40a3ce65c1360d2a7a0d1b4e1781e62ad02e6b913681f17887cb3158d14682d4d774e04c90)#uzmmldkv",
            "hex": "41043079df83ad536dfe7817e3abe9a59c5ad8521ee62d740f5d09264a40a3ce65c1360d2a7a0d1b4e1781e62ad02e6b913681f17887cb3158d14682d4d774e04c90ac",
            "type": "pubkey"
          }
        }
      ],
      "hex": "01000000010000000000000000000000000000000000000000000000000000000000000000ffffffff0804ffff001d026307ffffffff0100f2052a010000004341043079df83ad536dfe7817e3abe9a59c5ad8521ee62d740f5d09264a40a3ce65c1360d2a7a0d1b4e1781e62ad02e6b913681f17887cb3158d14682d4d774e04c90ac00000000"
    }
  ]
}