{
  "hash": "000000007fe51eab27cb67946a3410430e4af64bfadd1be96d081a9460409adc",
  "confirmations": 45823,
  "height": 7275,
  "version": 1,
  "versionHex": "00000001",
  "merkleroot": "ee5bbac48f5123c2f68fc6bc68b38f264b4c80ecc01d035420182818a9f1d876",
  "time": 1236927524,
  "mediantime": 1236923895,
  "nonce": 2839401505,
  "bits": "1d00ffff",
  "difficulty": 1,
  "chainwork": "00000000000000000000000000000000000000000000000000001c6c1c6c1c6c",
  "nTx": 1,
  "previousblockhash": "0000000075715d9417a0cd173cd098ec87f22fac267bc91c7666ce096a09eeaa",
  "nextblockhash": "000000009b4eafe694d7cfe4f8a2555130d72d5fdf62cc1006242e2eac8d7f9c",
  "strippedsize": 216,
  "size": 216,
  "weight": 864,
  "tx": [
    {
      "txid": "ee5bbac48f5123c2f68fc6bc68b38f264b4c80ecc01d035420182818a9f1d876",
      "hash": "ee5bbac48f5123c2f68fc6bc68b38f264b4c80ecc01d035420182818a9f1d876",
      "version": 1,
      "size": 135,
      "vsize": 135,
      "weight": 540,
      "locktime": 0,
      "vin": [
        {
          "coinbase": "04ffff001d02f106",
          "sequence": 4294967295
        }
      ],
      "vout": [
        {
          "value": 50.0,
          "n": 0,
          "scriptPubKey": {
            "asm": "04da7170f95be74351f75390f39a2f7b6880e633aeb82bd7d029dd2b12c5a44a1f3891fcdad3fce87ca4562d2edd25259dc9de1b4b9e8df2a99c188ce27e3f83da OP_CHECKSIG",
            "desc": "pk(04da7170f95be74351f75390f39a2f7b6880e633aeb82bd7d029dd2b12c5a44a1f3891fcdad3fce87ca4562d2edd25259dc9de1b4b9e8df2a99c188ce27e3f83da)#cxcfh2ud",
            "hex": "4104da7170f95be74351f75390f39a2f7b6880e633aeb82bd7d029dd2b12c5a44a1f3891fcdad3fce87ca4562d2edd25259dc9de1b4b9e8df2a99c188ce27e3f83daac",
            "type": "pubkey"
          }
        }
      ],
      "hex": "01000000010000000000000000000000000000000000000000000000000000000000000000ffffffff0804ffff001d02f106ffffffff0100f2052a01000000434104da7170f95be74351f75390f39a2f7b6880e633aeb82bd7d029dd2b12c5a44a1f3891fcdad3fce87ca4562d2edd25259dc9de1b4b9e8df2a99c188ce27e3f83daac00000000"
    }
  ]
}