{
  "hash": "00000000c7793ced70c0d6edad4bec9ba7a5c002844f9f9bec624aead15cbd1a",
  "confirmations": 50255,
  "height": 2843,
  "version": 1,
  "versionHex": "00000001",
  "merkleroot": "4eebee7425ed8d53f581ec45a3c05b6c7f1f618fab6bdcf16535d2c6ae1c7efc",
  "time": 1233655385,
  "mediantime": 1233650820,
  "nonce": 63154511,
  "bits": "1d00ffff",
  "difficulty": 1,
  "chainwork": "00000000000000000000000000000000000000000000000000000b1c0b1c0b1c",
  "nTx": 1,
  "previousblockhash": "0000000050090fca680ffc54858e98ef72dd21fd1159089dc22e2b1ca10024cf",
  "nextblockhash": "000000006615ae955110e7f027b2edbaa6ad8beab2dbf06612aa38a9e849ed95",
  "strippedsize": 216,
  "size": 216,
  "weight": 864,
  "tx": [
    {
      "txid": "4eebee7425ed8d53f581ec45a3c05b6c7f1f618fab6bdcf16535d2c6ae1c7efc",
      "hash": "4eebee7425ed8d53f581ec45a3c05b6c7f1f618fab6bdcf16535d2c6ae1c7efc",
      "version": 1,
      "size": 135,
      "vsize": 135,
      "weight": 540,
      "locktime": 0,
      "vin": [
        {
          "coinbase": "04ffff001d025c01",
          "sequence": 4294967295
        }
      ],
      "vout": [
        {
          "value": 50.0,
          "n": 0,
          "scriptPubKey": {
            "asm": "042bbe6a14de5b701774e710d8da9e35813a5283f301b9ba3b6844eec890065fad465dcf4f86c9d227ce7a49ab22b4345506d0c17d3c1a386ab0a025a2c50df234 OP_CHECKSIG",
            "desc": "pk(042bbe6a14de5b701774e710d8da9e35813a5283f301b9ba3b6844eec890065fad465dcf4f86c9d227ce7a49ab22b4345506d0c17d3c1a386ab0a025a2c50df234)#p45k8zdz",
            "hex": "41042bbe6a14de5b701774e710d8da9e35813a5283f301b9ba3b6844eec890065fad465dcf4f86c9d227ce7a49ab22b4345506d0c17d3c1a386ab0a025a2c50df234ac",
            "type": "pubkey"
          }
        }
      ],
      "hex": "01000000010000000000000000000000000000000000000000000000000000000000000000ffffffff0804ffff001d025c01ffffffff0100f2052a010000004341042bbe6a14de5b701774e710d8da9e35813a5283f301b9ba3b6844eec890065fad465dcf4f86c9d227ce7a49ab22b4345506d0c17d3c1a386ab0a025a2c50df234ac00000000"
    }
  ]
}