{
  "hash": "00000000ed919f563c4b59e27f259cd5a182d2d6900ce8d7857c13ce376ba03b",
  "confirmations": 44243,
  "height": 8855,
  "version": 1,
  "versionHex": "00000001",
  "merkleroot": "1614c301e59a61c5c799d4aa3b787560d98d4ab5a01ddc153664f5a22c27f88f",
  "time": 1238140648,
  "mediantime": 1238137654,
  "nonce": 3928566055,
  "bits": "1d00ffff",
  "difficulty": 1,
  "chainwork": "0000000000000000000000000000000000000000000000000000229822982298",
  "nTx": 1,
  "previousblockhash": "00000000898a59183886bb5cf95be8216046c6e66579fb9acbbaa7c1918cc269",
  "nextblockhash": "000000002a78858548881c706490263d3f4617df7dbdd39502c19b7c582a6597",
  "strippedsize": 216,
  "size": 216,
  "weight": 864,
  "tx": [
    {
      "txid": "1614c301e59a61c5c799d4aa3b787560d98d4ab5a01ddc153664f5a22c27f88f",
      "hash": "1614c301e59a61c5c799d4aa3b787560d98d4ab5a01ddc153664f5a22c27f88f",
      "version": 1,
      "size": 135,
      "vsize": 135,
      "weight": 540,
      "locktime": 0,
      "vin": [
        {
          "coinbase": "04ffff001d02a003",
          "sequence": 4294967295
        }
      ],
      "vout": [
        {
          "value": 50.0,
          "n": 0,
          "scriptPubKey": {
            "asm": "043f198fb4a0f07bf1995f6d00de152eeb3a1648672628c264cf185e034d372e620fb130a72afb83c5523cfb77af938dce375fd8f568c71e19be3f01ec40f6547c OP_CHECKSIG",
            "desc": "pk(043f198fb4a0f07bf1995f6d00de152eeb3a1648672628c264cf185e034d372e620fb130a72afb83c5523cfb77af938dce375fd8f568c71e19be3f01ec40f6547c)#ayfrzej0",
            "hex": "41043f198fb4a0f07bf1995f6d00de152eeb3a1648672628c264cf185e034d372e620fb130a72afb83c5523cfb77af938dce375fd8f568c71e19be3f01ec40f6547cac",
            "type": "pubkey"
          }
        }
      ],
      "hex": "01000000010000000000000000000000000000000000000000000000000000000000000000ffffffff0804ffff001d02a003ffffffff0100f2052a010000004341043f198fb4a0f07bf1995f6d00de152eeb3a1648672628c264cf185e034d372e620fb130a72afb83c5523cfb77af938dce375fd8f568c71e19be3f01ec40f6547cac00000000"
    }
  ]
}