{
  "hash": "00000000d8213c90c9a0747a61a18ff7e334805adb5a03e1d295b3e104934a2b",
  "confirmations": 51415,
  "height": 1683,
  "version": 1,
  "versionHex": "00000001",
  "merkleroot": "39597d5a242f0bdf51332475324be5e7419318c83f30c31cb32f2cb5cc129701",
  "time": 1232845577,
  "mediantime": 1232842995,
  "nonce": 2190239252,
  "bits": "1d00ffff",
  "difficulty": 1,
  "chainwork": "0000000000000000000000000000000000000000000000000000069406940694",
  "nTx": 1,
  "previousblockhash": "00000000b9ca35c786ff52a0b9eccb7730ae1a033d6313a43f28bc95b571cd1a",
  "nextblockhash": "000000007c85c85c1f2e9d277206d87343cf47703b8b01cd6efd56d1df85df18",
  "strippedsize": 216,
  "size": 216,
  "weight": 864,
  "tx": [
    {
      "txid": "39597d5a242f0bdf51332475324be5e7419318c83f30c31cb32f2cb5cc129701",
      "hash": "39597d5a242f0bdf51332475324be5e7419318c83f30c31cb32f2cb5cc129701",
      "version": 1,
      "size": 135,
      "vsize": 135,
      "weight": 540,
      "locktime": 0,
      "vin": [
        {
          "coinbase": "04ffff001d02de02",
          "sequence": 4294967295
        }
      ],
      "vout": [
        {
          "value": 50.0,
          "n": 0,
          "scriptPubKey": {
            "asm": "0412074797b6addf0843da1ea692c7406b663f5188750e8cb1b7bcb873644e22f9a30fdc11204c05491e48e3f7ff7bfab7dc0a8308106830664ce1dfdbd57e8b7e OP_CHECKSIG",
            "desc": "pk(0412074797b6addf0843da1ea692c7406b663f5188750e8cb1b7bcb873644e22f9a30fdc11204c05491e48e3f7ff7bfab7dc0a8308106830664ce1dfdbd57e8b7e)#67wttt0h",
            "hex": "410412074797b6addf0843da1ea692c7406b663f5188750e8cb1b7bcb873644e22f9a30fdc11204c05491e48e3f7ff7bfab7dc0a8308106830664ce1dfdbd57e8b7eac",
            "type": "pubkey"
          }
        }
      ],
      "hex": "01000000010000000000000000000000000000000000000000000000000000000000000000ffffffff0804ffff001d02de02ffffffff0100f2052a0100000043410412074797b6addf0843da1ea692c7406b663f5188750e8cb1b7bcb873644e22f9a30fdc11204c05491e48e3f7ff7bfab7dc0a8308106830664ce1dfdbd57e8b7eac00000000"
    }
  ]
}