{
  "hash": "00000000597a88a69db95f4d27a4f4438041770ece5eeb66642bee1e95a81ad7",
  "confirmations": 52118,
  "height": 980,
  "version": 1,
  "versionHex": "00000001",
  "merkleroot": "0c0b7bb4d3d7ad501a4c29547ed6199e451455e6fe7bc934ee1f852ae677edef",
  "time": 1232334867,
  "mediantime": 1232330208,
  "nonce": 3662853633,
  "bits": "1d00ffff",
  "difficulty": 1,
  "chainwork": "000000000000000000000000000000000000000000000000000003d503d503d5",
  "nTx": 1,
  "previousblockhash": "000000002b870b7d6259bc5444aa77e781c9fc776533936419b4b6548fed6162",
  "nextblockhash": "000000007f030f9dc40eb3c9b3b5aea163105bee02fa6f539c5ee7cab649f944",
  "strippedsize": 216,
  "size": 216,
  "weight": 864,
  "tx": [
    {
      "txid": "0c0b7bb4d3d7ad501a4c29547ed6199e451455e6fe7bc934ee1f852ae677edef",
      "hash": "0c0b7bb4d3d7ad501a4c29547ed6199e451455e6fe7bc934ee1f852ae677edef",
      "version": 1,
      "size": 135,
      "vsize": 135,
      "weight": 540,
      "locktime": 0,
      "vin": [
        {
          "coinbase": "04ffff001d02d504",
          "sequence": 4294967295
        }
      ],
      "vout": [
        {
          "value": 50.0,
          "n": 0,
          "scriptPubKey": {
            "asm": "046030557a82ea2411745d0df9dd46711509cfb8b248bb80f0c13bae43444c4362a9484fae32ffc64d696bf6c259605a5452b0d5fbbe24a0ab733fc29ac226023a OP_CHECKSIG",
            "desc": "pk(046030557a82ea2411745d0df9dd46711509cfb8b248bb80f0c13bae43444c4362a9484fae32ffc64d696bf6c259605a5452b0d5fbbe24a0ab733fc29ac226023a)#sxwpprah",
            "hex": "41046030557a82ea2411745d0df9dd46711509cfb8b248bb80f0c13bae43444c4362a9484fae32ffc64d696bf6c259605a5452b0d5fbbe24a0ab733fc29ac226023aac",
            "type": "pubkey"
          }
        }
      ],
      "hex": "01000000010000000000000000000000000000000000000000000000000000000000000000ffffffff0804ffff001d02d504ffffffff0100f2052a010000004341046030557a82ea2411745d0df9dd46711509cfb8b248bb80f0c13bae43444c4362a9484fae32ffc64d696bf6c259605a5452b0d5fbbe24a0ab733fc29ac226023aac00000000"
    }
  ]
}