{
  "hash": "00000000efde85fab4f3fcd5fe00c05a5ebd04e7997924f891578aeb15931eb3",
  "confirmations": 47924,
  "height": 5174,
  "version": 1,
  "versionHex": "00000001",
  "merkleroot": "64e4b60e058a1e8c813f92a48d2685c77e3ecfff92e686ea3578a83be08ed224",
  "time": 1235268418,
  "mediantime": 1235264240,
  "nonce": 4186814,
  "bits": "1d00ffff",
  "difficulty": 1,
  "chainwork": "0000000000000000000000000000000000000000000000000000143714371437",
  "nTx": 1,
  "previousblockhash": "000000002a80294358278b082285f25284883bb7f67c95162e2ee5c56f220e1c",
  "nextblockhash": "00000000b781c7d1b96912017ec6d006d2d505d3cac0bd486550abe2066734f7",
  "strippedsize": 215,
  "size": 215,
  "weight": 860,
  "tx": [
    {
      "txid": "64e4b60e058a1e8c813f92a48d2685c77e3ecfff92e686ea3578a83be08ed224",
      "hash": "64e4b60e058a1e8c813f92a48d2685c77e3ecfff92e686ea3578a83be08ed224",
      "version": 1,
      "size": 134,
      "vsize": 134,
      "weight": 536,
      "locktime": 0,
      "vin": [
        {
          "coinbase": "04ffff001d013d",
          "sequence": 4294967295
        }
      ],
      "vout": [
        {
          "value": 50.0,
          "n": 0,
          "scriptPubKey": {
            "asm": "04351f00684555a8c4338335ad3f7e8f8011a9b79dfadc18b1eda6392c6d6f2bb01564e978f93a6ccec893ff35c89479279d2d6b0b7b3520740975abb229750220 OP_CHECKSIG",
            "desc": "pk(04351f00684555a8c4338335ad3f7e8f8011a9b79dfadc18b1eda6392c6d6f2bb01564e978f93a6ccec893ff35c89479279d2d6b0b7b3520740975abb229750220)#hswm6w50",
            "hex": "4104351f00684555a8c4338335ad3f7e8f8011a9b79dfadc18b1eda6392c6d6f2bb01564e978f93a6ccec893ff35c89479279d2d6b0b7b3520740975abb229750220ac",
            "type": "pubkey"
          }
        }
      ],
      "hex": "01000000010000000000000000000000000000000000000000000000000000000000000000ffffffff0704ffff001d013dffffffff0100f2052a01000000434104351f00684555a8c4338335ad3f7e8f8011a9b79dfadc18b1eda6392c6d6f2bb01564e978f93a6ccec893ff35c89479279d2d6b0b7b3520740975abb229750220ac00000000"
    }
  ]
}