{
  "hash": "00000000c149b51b9e0a3400dc97fe7cc9b537ad33c5fbb0caa3c604d324e816",
  "confirmations": 45604,
  "height": 7494,
  "version": 1,
  "versionHex": "00000001",
  "merkleroot": "f4830e1b09b0580c20fcb304e97652f8d0ecca18386baf16cd3a28f13f875608",
  "time": 1237092857,
  "mediantime": 1237088257,
  "nonce": 191062833,
  "bits": "1d00ffff",
  "difficulty": 1,
  "chainwork": "00000000000000000000000000000000000000000000000000001d471d471d47",
  "nTx": 1,
  "previousblockhash": "0000000095b5297ee2a3512646f09519fca29282e198d3cd7b9dd6ad2dff9489",
  "nextblockhash": "000000007aeae79d191235daff82215136d3e86caddadeb182cd6981c325602b",
  "strippedsize": 216,
  "size": 216,
  "weight": 864,
  "tx": [
    {
      "txid": "f4830e1b09b0580c20fcb304e97652f8d0ecca18386baf16cd3a28f13f875608",
      "hash": "f4830e1b09b0580c20fcb304e97652f8d0ecca18386baf16cd3a28f13f875608",
      "version": 1,
      "size": 135,
      "vsize": 135,
      "weight": 540,
      "locktime": 0,
      "vin": [
        {
          "coinbase": "04ffff001d02e402",
          "sequence": 4294967295
        }
      ],
      "vout": [
        {
          "value": 50.0,
          "n": 0,
          "scriptPubKey": {
            "asm": "049639e8ec8c25f6a9c2a5367f669330f0e7c3e0cfb5f5e1e7bf9259474fd36b061a0251c3cf957ff08094933f1cf88886017317dc94c270193fc6b8b22646ecca OP_CHECKSIG",
            "desc": "pk(049639e8ec8c25f6a9c2a5367f669330f0e7c3e0cfb5f5e1e7bf9259474fd36b061a0251c3cf957ff08094933f1cf88886017317dc94c270193fc6b8b22646ecca)#67lvs93r",
            "hex": "41049639e8ec8c25f6a9c2a5367f669330f0e7c3e0cfb5f5e1e7bf9259474fd36b061a0251c3cf957ff08094933f1cf88886017317dc94c270193fc6b8b22646eccaac",
            "type": "pubkey"
          }
        }
      ],
      "hex": "01000000010000000000000000000000000000000000000000000000000000000000000000ffffffff0804ffff001d02e402ffffffff0100f2052a010000004341049639e8ec8c25f6a9c2a5367f669330f0e7c3e0cfb5f5e1e7bf9259474fd36b061a0251c3cf957ff08094933f1cf88886017317dc94c270193fc6b8b22646eccaac00000000"
    }
  ]
}