{
  "hash": "0000000062975abcff6404d02ad9b418f959a52cf8670d1286f8cfa54f7515a7",
  "confirmations": 50942,
  "height": 2156,
  "version": 1,
  "versionHex": "00000001",
  "merkleroot": "6de2c431b2f60df4c2bb3544e662b3ba6fed4884d2efb8a5d18324eba9445a20",
  "time": 1233179117,
  "mediantime": 1233176191,
  "nonce": 3487598867,
  "bits": "1d00ffff",
  "difficulty": 1,
  "chainwork": "0000000000000000000000000000000000000000000000000000086d086d086d",
  "nTx": 1,
  "previousblockhash": "00000000d64b54ba52dfa38a5bc37e0f5a709f04a92b776f3ef2e2c5152c2cde",
  "nextblockhash": "00000000ceef5fc8747f408a03466fcbd1bca6a1c70fb5e14df9cae395e22da5",
  "strippedsize": 216,
  "size": 216,
  "weight": 864,
  "tx": [
    {
      "txid": "6de2c431b2f60df4c2bb3544e662b3ba6fed4884d2efb8a5d18324eba9445a20",
      "hash": "6de2c431b2f60df4c2bb3544e662b3ba6fed4884d2efb8a5d18324eba9445a20",
      "version": 1,
      "size": 135,
      "vsize": 135,
      "weight": 540,
      "locktime": 0,
      "vin": [
        {
          "coinbase": "04ffff001d028d00",
          "sequence": 4294967295
        }
      ],
      "vout": [
        {
          "value": 50.0,
          "n": 0,
          "scriptPubKey": {
            "asm": "049b354d5d449437e48c08f0ab7a6cb7f30f9bb67c42ee6b146e71277ef3a9722c58262dc47ce18e6eddce3bc52529d37c5f49a5498e4d5a1b2e615432aaaca97b OP_CHECKSIG",
            "desc": "pk(049b354d5d449437e48c08f0ab7a6cb7f30f9bb67c42ee6b146e71277ef3a9722c58262dc47ce18e6eddce3bc52529d37c5f49a5498e4d5a1b2e615432aaaca97b)#txr7vg7f",
            "hex": "41049b354d5d449437e48c08f0ab7a6cb7f30f9bb67c42ee6b146e71277ef3a9722c58262dc47ce18e6eddce3bc52529d37c5f49a5498e4d5a1b2e615432aaaca97bac",
            "type": "pubkey"
          }
        }
      ],
      "hex": "01000000010000000000000000000000000000000000000000000000000000000000000000ffffffff0804ffff001d028d00ffffffff0100f2052a010000004341049b354d5d449437e48c08f0ab7a6cb7f30f9bb67c42ee6b146e71277ef3a9722c58262dc47ce18e6eddce3bc52529d37c5f49a5498e4d5a1b2e615432aaaca97bac00000000"
    }
  ]
}