{
  "hash": "00000000c9f22d9343cf90c513e5e689b452468194b59ddc09f9dd086e42c4d9",
  "confirmations": 43821,
  "height": 9277,
  "version": 1,
  "versionHex": "00000001",
  "merkleroot": "4add025f461139e63adca99d87f0a8f41e25a20c52c93c9941628bbfac155f34",
  "time": 1238455980,
  "mediantime": 1238451798,
  "nonce": 1929123104,
  "bits": "1d00ffff",
  "difficulty": 1,
  "chainwork": "0000000000000000000000000000000000000000000000000000243e243e243e",
  "nTx": 1,
  "previousblockhash": "000000006f69d67a88c3b3333613ab0ac0f07a81eb983fdf48982cd89d7f88c1",
  "nextblockhash": "0000000085c7eb2c0bdac98732126e26892669d171460dfe6378e2b2e4d513da",
  "strippedsize": 216,
  "size": 216,
  "weight": 864,
  "tx": [
    {
      "txid": "4add025f461139e63adca99d87f0a8f41e25a20c52c93c9941628bbfac155f34",
      "hash": "4add025f461139e63adca99d87f0a8f41e25a20c52c93c9941628bbfac155f34",
      "version": 1,
      "size": 135,
      "vsize": 135,
      "weight": 540,
      "locktime": 0,
      "vin": [
        {
          "coinbase": "04ffff001d025701",
          "sequence": 4294967295
        }
      ],
      "vout": [
        {
          "value": 50.0,
          "n": 0,
          "scriptPubKey": {
            "asm": "0466052457654c9358eeee7bd214330dab1d5ada4035ddaf2593523000e469aa5907e0a534d03eab549b706d403cf3acb320887125f2b9ed62b381c73ce537679e OP_CHECKSIG",
            "desc": "pk(0466052457654c9358eeee7bd214330dab1d5ada4035ddaf2593523000e469aa5907e0a534d03eab549b706d403cf3acb320887125f2b9ed62b381c73ce537679e)#jeyrg4zk",
            "hex": "410466052457654c9358eeee7bd214330dab1d5ada4035ddaf2593523000e469aa5907e0a534d03eab549b706d403cf3acb320887125f2b9ed62b381c73ce537679eac",
            "type": "pubkey"
          }
        }
      ],
      "hex": "01000000010000000000000000000000000000000000000000000000000000000000000000ffffffff0804ffff001d025701ffffffff0100f2052a0100000043410466052457654c9358eeee7bd214330dab1d5ada4035ddaf2593523000e469aa5907e0a534d03eab549b706d403cf3acb320887125f2b9ed62b381c73ce537679eac00000000"
    }
  ]
}