{
  "hash": "0000000099ee0b56888def476e4173673a95d85ce144c6caa9a24e08a117e58f",
  "confirmations": 49328,
  "height": 3770,
  "version": 1,
  "versionHex": "00000001",
  "merkleroot": "96cb2f2e407cf2c9a764c8e9488449c93b4441cc90497c64786b12c614e8a26f",
  "time": 1234286334,
  "mediantime": 1234282038,
  "nonce": 936099347,
  "bits": "1d00ffff",
  "difficulty": 1,
  "chainwork": "00000000000000000000000000000000000000000000000000000ebb0ebb0ebb",
  "nTx": 1,
  "previousblockhash": "0000000075702abf053488b052c1268835dd679f8d53ca070f4dff9b4392f9a5",
  "nextblockhash": "0000000083de75d9ccf21d9b4485d3cbdbe51c84e771c92e35ca6ac9ef7f1d89",
  "strippedsize": 216,
  "size": 216,
  "weight": 864,
  "tx": [
    {
      "txid": "96cb2f2e407cf2c9a764c8e9488449c93b4441cc90497c64786b12c614e8a26f",
      "hash": "96cb2f2e407cf2c9a764c8e9488449c93b4441cc90497c64786b12c614e8a26f",
      "version": 1,
      "size": 135,
      "vsize": 135,
      "weight": 540,
      "locktime": 0,
      "vin": [
        {
          "coinbase": "04ffff001d02e300",
          "sequence": 4294967295
        }
      ],
      "vout": [
        {
          "value": 50.0,
          "n": 0,
          "scriptPubKey": {
            "asm": "043ae4bec28deb8a5972fee5b924846a021e41cb3cde730be792f8752a35e2487ebf9f2fa690c264ceb9aca0473fdfe714cad4d13a39545c1e2991849cfbd5cdf4 OP_CHECKSIG",
            "desc": "pk(043ae4bec28deb8a5972fee5b924846a021e41cb3cde730be792f8752a35e2487ebf9f2fa690c264ceb9aca0473fdfe714cad4d13a39545c1e2991849cfbd5cdf4)#2ffqtg26",
            "hex": "41043ae4bec28deb8a5972fee5b924846a021e41cb3cde730be792f8752a35e2487ebf9f2fa690c264ceb9aca0473fdfe714cad4d13a39545c1e2991849cfbd5cdf4ac",
            "type": "pubkey"
          }
        }
      ],
      "hex": "01000000010000000000000000000000000000000000000000000000000000000000000000ffffffff0804ffff001d02e300ffffffff0100f2052a010000004341043ae4bec28deb8a5972fee5b924846a021e41cb3cde730be792f8752a35e2487ebf9f2fa690c264ceb9aca0473fdfe714cad4d13a39545c1e2991849cfbd5cdf4ac00000000"
    }
  ]
}