{
  "hash": "000000007c85141167dad3a3c31beee277664e7050e2af9a1befae630e7c2d1d",
  "confirmations": 52484,
  "height": 614,
  "version": 1,
  "versionHex": "00000001",
  "merkleroot": "511c645d736c3e5fc25b8fc1a507da81285be6d3f09941d712ff0e870b0a78e0",
  "time": 1232045504,
  "mediantime": 1232043349,
  "nonce": 8713958,
  "bits": "1d00ffff",
  "difficulty": 1,
  "chainwork": "0000000000000000000000000000000000000000000000000000026702670267",
  "nTx": 1,
  "previousblockhash": "00000000459941238f97367414684ae72ee74f2981797c26508e5b77577426fc",
  "nextblockhash": "00000000882cfb02e7b8ae59353c0fa2e7b7a0d030128fd81a21a77f756959c8",
  "strippedsize": 216,
  "size": 216,
  "weight": 864,
  "tx": [
    {
      "txid": "511c645d736c3e5fc25b8fc1a507da81285be6d3f09941d712ff0e870b0a78e0",
      "hash": "511c645d736c3e5fc25b8fc1a507da81285be6d3f09941d712ff0e870b0a78e0",
      "version": 1,
      "size": 135,
      "vsize": 135,
      "weight": 540,
      "locktime": 0,
      "vin": [
        {
          "coinbase": "04ffff001d025e01",
          "sequence": 4294967295
        }
      ],
      "vout": [
        {
          "value": 50.0,
          "n": 0,
          "scriptPubKey": {
            "asm": "041fd924bbe46dc12a97760d3e2fdc7df19064ba9ee3a381da7b321d4fd2925805b00c199d8340209dbbbdbb3f1dbc524ac8ff35b51280595d486a2c41e8a00942 OP_CHECKSIG",
            "desc": "pk(041fd924bbe46dc12a97760d3e2fdc7df19064ba9ee3a381da7b321d4fd2925805b00c199d8340209dbbbdbb3f1dbc524ac8ff35b51280595d486a2c41e8a00942)#6fkkksu7",
            "hex": "41041fd924bbe46dc12a97760d3e2fdc7df19064ba9ee3a381da7b321d4fd2925805b00c199d8340209dbbbdbb3f1dbc524ac8ff35b51280595d486a2c41e8a00942ac",
            "type": "pubkey"
          }
        }
      ],
      "hex": "01000000010000000000000000000000000000000000000000000000000000000000000000ffffffff0804ffff001d025e01ffffffff0100f2052a010000004341041fd924bbe46dc12a97760d3e2fdc7df19064ba9ee3a381da7b321d4fd2925805b00c199d8340209dbbbdbb3f1dbc524ac8ff35b51280595d486a2c41e8a00942ac00000000"
    }
  ]
}