{
  "hash": "000000003c1610cbaf4f38b6b4eccf9aed9ff2ec252eb29fe7f44506dfdaab5d",
  "confirmations": 46439,
  "height": 6659,
  "version": 1,
  "versionHex": "00000001",
  "merkleroot": "915aca56abf0b941f86cc44b7f5c611c79202f95513d78e3be655bad7b4a9012",
  "time": 1236450577,
  "mediantime": 1236448351,
  "nonce": 2643073300,
  "bits": "1d00ffff",
  "difficulty": 1,
  "chainwork": "00000000000000000000000000000000000000000000000000001a041a041a04",
  "nTx": 1,
  "previousblockhash": "00000000091b6da7043bd1c9f2f468cf49ba510eef40e4f490f3efb667890f7e",
  "nextblockhash": "00000000c743875e7268cdcaab1c226acf3bbb3e20c833218c7ce728575ef140",
  "strippedsize": 216,
  "size": 216,
  "weight": 864,
  "tx": [
    {
      "txid": "915aca56abf0b941f86cc44b7f5c611c79202f95513d78e3be655bad7b4a9012",
      "hash": "915aca56abf0b941f86cc44b7f5c611c79202f95513d78e3be655bad7b4a9012",
      "version": 1,
      "size": 135,
      "vsize": 135,
      "weight": 540,
      "locktime": 0,
      "vin": [
        {
          "coinbase": "04ffff001d023c06",
          "sequence": 4294967295
        }
      ],
      "vout": [
        {
          "value": 50.0,
          "n": 0,
          "scriptPubKey": {
            "asm": "0408043ee4557268a59177b6b1d62fe5daba064da6e312852d4002afef5e8092637b3c515364d7127bc74b6b99b22d5495e42d1a9e0fcbcffb6020028bfc003925 OP_CHECKSIG",
            "desc": "pk(0408043ee4557268a59177b6b1d62fe5daba064da6e312852d4002afef5e8092637b3c515364d7127bc74b6b99b22d5495e42d1a9e0fcbcffb6020028bfc003925)#3prfgyln",
            "hex": "410408043ee4557268a59177b6b1d62fe5daba064da6e312852d4002afef5e8092637b3c515364d7127bc74b6b99b22d5495e42d1a9e0fcbcffb6020028bfc003925ac",
            "type": "pubkey"
          }
        }
      ],
      "hex": "01000000010000000000000000000000000000000000000000000000000000000000000000ffffffff0804ffff001d023c06ffffffff0100f2052a0100000043410408043ee4557268a59177b6b1d62fe5daba064da6e312852d4002afef5e8092637b3c515364d7127bc74b6b99b22d5495e42d1a9e0fcbcffb6020028bfc003925ac00000000"
    }
  ]
}