{
  "hash": "00000000c33fa63f30b7b49b86b95a85990428e2ebbcceb20ea307ae4af855a8",
  "confirmations": 44657,
  "height": 8441,
  "version": 1,
  "versionHex": "00000001",
  "merkleroot": "fe77f20934c02cd6f69b64968655a2072b2e779a65dc56e1d0f773b6ac4f1b23",
  "time": 1237825345,
  "mediantime": 1237822173,
  "nonce": 2357501480,
  "bits": "1d00ffff",
  "difficulty": 1,
  "chainwork": "000000000000000000000000000000000000000000000000000020fa20fa20fa",
  "nTx": 1,
  "previousblockhash": "00000000736636cebcad5cc39626c69dcad0a89eaa8a895226417bea93f88580",
  "nextblockhash": "00000000c9f65fe6643536baef48c61f1c81a781c4acbf7e3458ef1c2d0427f8",
  "strippedsize": 216,
  "size": 216,
  "weight": 864,
  "tx": [
    {
      "txid": "fe77f20934c02cd6f69b64968655a2072b2e779a65dc56e1d0f773b6ac4f1b23",
      "hash": "fe77f20934c02cd6f69b64968655a2072b2e779a65dc56e1d0f773b6ac4f1b23",
      "version": 1,
      "size": 135,
      "vsize": 135,
      "weight": 540,
      "locktime": 0,
      "vin": [
        {
          "coinbase": "04ffff001d02b106",
          "sequence": 4294967295
        }
      ],
      "vout": [
        {
          "value": 50.0,
          "n": 0,
          "scriptPubKey": {
            "asm": "04eb41496dcdbbb615071ca440df4a0c063cef60b5a845b2ccb5dfb58c1d9bab84c8f222e6e7bbc2fdf2b1d5673bbcfd91cfcfb099b636b8392ffad128dcc1ce5e OP_CHECKSIG",
            "desc": "pk(04eb41496dcdbbb615071ca440df4a0c063cef60b5a845b2ccb5dfb58c1d9bab84c8f222e6e7bbc2fdf2b1d5673bbcfd91cfcfb099b636b8392ffad128dcc1ce5e)#j7ysmxl4",
            "hex": "4104eb41496dcdbbb615071ca440df4a0c063cef60b5a845b2ccb5dfb58c1d9bab84c8f222e6e7bbc2fdf2b1d5673bbcfd91cfcfb099b636b8392ffad128dcc1ce5eac",
            "type": "pubkey"
          }
        }
      ],
      "hex": "01000000010000000000000000000000000000000000000000000000000000000000000000ffffffff0804ffff001d02b106ffffffff0100f2052a01000000434104eb41496dcdbbb615071ca440df4a0c063cef60b5a845b2ccb5dfb58c1d9bab84c8f222e6e7bbc2fdf2b1d5673bbcfd91cfcfb099b636b8392ffad128dcc1ce5eac00000000"
    }
  ]
}