{
  "hash": "00000000a332b39117fefe672973d5dbb13dcf3e21385478a0ab5c6aa34809ce",
  "confirmations": 52326,
  "height": 772,
  "version": 1,
  "versionHex": "00000001",
  "merkleroot": "43f440c49de6de50c2d09b459d087828d5115f40d81ccb4119a3119c7ff478f6",
  "time": 1232168636,
  "mediantime": 1232164279,
  "nonce": 11063369,
  "bits": "1d00ffff",
  "difficulty": 1,
  "chainwork": "0000000000000000000000000000000000000000000000000000030503050305",
  "nTx": 1,
  "previousblockhash": "00000000c6846ae9277a93737caabca0f5e73f5cec08b9d2843aadf4d9992d70",
  "nextblockhash": "000000004d3ef3521bfb87c9b184f61a6658d55383fc313923a1c8899b9c0163",
  "strippedsize": 215,
  "size": 215,
  "weight": 860,
  "tx": [
    {
      "txid": "43f440c49de6de50c2d09b459d087828d5115f40d81ccb4119a3119c7ff478f6",
      "hash": "43f440c49de6de50c2d09b459d087828d5115f40d81ccb4119a3119c7ff478f6",
      "version": 1,
      "size": 134,
      "vsize": 134,
      "weight": 536,
      "locktime": 0,
      "vin": [
        {
          "coinbase": "04ffff001d0142",
          "sequence": 4294967295
        }
      ],
      "vout": [
        {
          "value": 50.0,
          "n": 0,
          "scriptPubKey": {
            "asm": "0481bc6ab7cd6cd88fde7e4425185ec4479115b92e23c7a566ed5bc8935db6f7956dfe1a3751e58a46365836ebd5dd03e74e6f17d7615a4440a8a78aa07c3992ac OP_CHECKSIG",
            "desc": "pk(0481bc6ab7cd6cd88fde7e4425185ec4479115b92e23c7a566ed5bc8935db6f7956dfe1a3751e58a46365836ebd5dd03e74e6f17d7615a4440a8a78aa07c3992ac)#sdcd9yc8",
            "hex": "410481bc6ab7cd6cd88fde7e4425185ec4479115b92e23c7a566ed5bc8935db6f7956dfe1a3751e58a46365836ebd5dd03e74e6f17d7615a4440a8a78aa07c3992acac",
            "type": "pubkey"
          }
        }
      ],
      "hex": "01000000010000000000000000000000000000000000000000000000000000000000000000ffffffff0704ffff001d0142ffffffff0100f2052a0100000043410481bc6ab7cd6cd88fde7e4425185ec4479115b92e23c7a566ed5bc8935db6f7956dfe1a3751e58a46365836ebd5dd03e74e6f17d7615a4440a8a78aa07c3992acac00000000"
    }
  ]
}