{
  "hash": "0000000075715d9417a0cd173cd098ec87f22fac267bc91c7666ce096a09eeaa",
  "confirmations": 45824,
  "height": 7274,
  "version": 1,
  "versionHex": "00000001",
  "merkleroot": "dace261e0946703d4ef17f8fbdf1100981a49dabd18ce6f0fb40bd83dde3e7b4",
  "time": 1236926239,
  "mediantime": 1236923121,
  "nonce": 1527822359,
  "bits": "1d00ffff",
  "difficulty": 1,
  "chainwork": "00000000000000000000000000000000000000000000000000001c6b1c6b1c6b",
  "nTx": 1,
  "previousblockhash": "0000000052fef4716fe4c23a5625a6a2a5b0b6b93cc1b0a51eef1421b121a07b",
  "nextblockhash": "000000007fe51eab27cb67946a3410430e4af64bfadd1be96d081a9460409adc",
  "strippedsize": 216,
  "size": 216,
  "weight": 864,
  "tx": [
    {
      "txid": "dace261e0946703d4ef17f8fbdf1100981a49dabd18ce6f0fb40bd83dde3e7b4",
      "hash": "dace261e0946703d4ef17f8fbdf1100981a49dabd18ce6f0fb40bd83dde3e7b4",
      "version": 1,
      "size": 135,
      "vsize": 135,
      "weight": 540,
      "locktime": 0,
      "vin": [
        {
          "coinbase": "04ffff001d02ea06",
          "sequence": 4294967295
        }
      ],
      "vout": [
        {
          "value": 50.0,
          "n": 0,
          "scriptPubKey": {
            "asm": "040e20f99e5cd5d339a7060b66e27cb2c1bac45057089dcfd493326cafac5d54cab7042755d62b16877c7075d26e05cd8f5d7572f1cac1b01043b217d5612ee4af OP_CHECKSIG",
            "desc": "pk(040e20f99e5cd5d339a7060b66e27cb2c1bac45057089dcfd493326cafac5d54cab7042755d62b16877c7075d26e05cd8f5d7572f1cac1b01043b217d5612ee4af)#yx34zm88",
            "hex": "41040e20f99e5cd5d339a7060b66e27cb2c1bac45057089dcfd493326cafac5d54cab7042755d62b16877c7075d26e05cd8f5d7572f1cac1b01043b217d5612ee4afac",
            "type": "pubkey"
          }
        }
      ],
      "hex": "01000000010000000000000000000000000000000000000000000000000000000000000000ffffffff0804ffff001d02ea06ffffffff0100f2052a010000004341040e20f99e5cd5d339a7060b66e27cb2c1bac45057089dcfd493326cafac5d54cab7042755d62b16877c7075d26e05cd8f5d7572f1cac1b01043b217d5612ee4afac00000000"
    }
  ]
}