{
  "hash": "00000000d846c5fbd90fe25130cfc4c62e07594c5d98b8fcb13110d38fe56a23",
  "confirmations": 43258,
  "height": 9840,
  "version": 1,
  "versionHex": "00000001",
  "merkleroot": "19573110dc412645ef538020ed56e3506b6f2fe7d5258bf85c2b192342a51dae",
  "time": 1238883738,
  "mediantime": 1238880060,
  "nonce": 2683211270,
  "bits": "1d00ffff",
  "difficulty": 1,
  "chainwork": "0000000000000000000000000000000000000000000000000000267126712671",
  "nTx": 1,
  "previousblockhash": "000000008bfb183e9d375292344ecd35899c258bddef56ee091b61dda63a66c2",
  "nextblockhash": "00000000a24ffe7c80ead2ec6243cc63ccf856b283fcc540f99c0290d8c83d84",
  "strippedsize": 216,
  "size": 216,
  "weight": 864,
  "tx": [
    {
      "txid": "19573110dc412645ef538020ed56e3506b6f2fe7d5258bf85c2b192342a51dae",
      "hash": "19573110dc412645ef538020ed56e3506b6f2fe7d5258bf85c2b192342a51dae",
      "version": 1,
      "size": 135,
      "vsize": 135,
      "weight": 540,
      "locktime": 0,
      "vin": [
        {
          "coinbase": "04ffff001d020101",
          "sequence": 4294967295
        }
      ],
      "vout": [
        {
          "value": 50.0,
          "n": 0,
          "scriptPubKey": {
            "asm": "04b2f6e9c0d16c73a004b672888bbe42499aaeafc4a7425a004dc405783cb12e59e896fcc07b34540bf240583588a87ca4f6bdad02394c5ec1fbdcd531bedb4017 OP_CHECKSIG",
            "desc": "pk(04b2f6e9c0d16c73a004b672888bbe42499aaeafc4a7425a004dc405783cb12e59e896fcc07b34540bf240583588a87ca4f6bdad02394c5ec1fbdcd531bedb4017)#8cl95fgs",
            "hex": "4104b2f6e9c0d16c73a004b672888bbe42499aaeafc4a7425a004dc405783cb12e59e896fcc07b34540bf240583588a87ca4f6bdad02394c5ec1fbdcd531bedb4017ac",
            "type": "pubkey"
          }
        }
      ],
      "hex": "01000000010000000000000000000000000000000000000000000000000000000000000000ffffffff0804ffff001d020101ffffffff0100f2052a01000000434104b2f6e9c0d16c73a004b672888bbe42499aaeafc4a7425a004dc405783cb12e59e896fcc07b34540bf240583588a87ca4f6bdad02394c5ec1fbdcd531bedb4017ac00000000"
    }
  ]
}