{
  "hash": "00000000a36835282578e947e538e92d454f6993e0a74821ad0b23e93deb58fc",
  "confirmations": 47542,
  "height": 5556,
  "version": 1,
  "versionHex": "00000001",
  "merkleroot": "85dd420cb745de4b93586cd5bb3cf46a13f6e8942cc25775c2d3ad5053ec9fbf",
  "time": 1235567328,
  "mediantime": 1235563277,
  "nonce": 2085713959,
  "bits": "1d00ffff",
  "difficulty": 1,
  "chainwork": "000000000000000000000000000000000000000000000000000015b515b515b5",
  "nTx": 1,
  "previousblockhash": "00000000e0d5e49b24209bc907e32af9a2c60417b815055bae0b9c7f836e39ba",
  "nextblockhash": "00000000ba76327ceb995f184f5068f68fedb27a530d9c230f005382adab517e",
  "strippedsize": 216,
  "size": 216,
  "weight": 864,
  "tx": [
    {
      "txid": "85dd420cb745de4b93586cd5bb3cf46a13f6e8942cc25775c2d3ad5053ec9fbf",
      "hash": "85dd420cb745de4b93586cd5bb3cf46a13f6e8942cc25775c2d3ad5053ec9fbf",
      "version": 1,
      "size": 135,
      "vsize": 135,
      "weight": 540,
      "locktime": 0,
      "vin": [
        {
          "coinbase": "04ffff001d02ab06",
          "sequence": 4294967295
        }
      ],
      "vout": [
        {
          "value": 50.0,
          "n": 0,
          "scriptPubKey": {
            "asm": "04c87a9bbfe5567094445d0695e89efcb6b686abf0a8e76260edf9fd9c364c90fb64ef6497448a9e3ab5ee7b0c680f77b8cb9d2c0b1e33415e7707f57890c51c61 OP_CHECKSIG",
            "desc": "pk(04c87a9bbfe5567094445d0695e89efcb6b686abf0a8e76260edf9fd9c364c90fb64ef6497448a9e3ab5ee7b0c680f77b8cb9d2c0b1e33415e7707f57890c51c61)#fycnnc0y",
            "hex": "4104c87a9bbfe5567094445d0695e89efcb6b686abf0a8e76260edf9fd9c364c90fb64ef6497448a9e3ab5ee7b0c680f77b8cb9d2c0b1e33415e7707f57890c51c61ac",
            "type": "pubkey"
          }
        }
      ],
      "hex": "01000000010000000000000000000000000000000000000000000000000000000000000000ffffffff0804ffff001d02ab06ffffffff0100f2052a01000000434104c87a9bbfe5567094445d0695e89efcb6b686abf0a8e76260edf9fd9c364c90fb64ef6497448a9e3ab5ee7b0c680f77b8cb9d2c0b1e33415e7707f57890c51c61ac00000000"
    }
  ]
}