{
  "hash": "00000000c478bda41179d4502f5cd54db7e243de98811964e62afd3b46ead512",
  "confirmations": 45376,
  "height": 7722,
  "version": 1,
  "versionHex": "00000001",
  "merkleroot": "33aaedff3d5df915c6de360434e1b1708701b057bdee59b748833f34619059c7",
  "time": 1237255550,
  "mediantime": 1237251986,
  "nonce": 3849154304,
  "bits": "1d00ffff",
  "difficulty": 1,
  "chainwork": "00000000000000000000000000000000000000000000000000001e2b1e2b1e2b",
  "nTx": 1,
  "previousblockhash": "00000000f9a580fcdd6674f977283adda0284ea2c3dd2ad3abc5d364fb100874",
  "nextblockhash": "00000000d6d9b957b87e7bea266f78bd2f549f512eb315e25d084448044c2582",
  "strippedsize": 216,
  "size": 216,
  "weight": 864,
  "tx": [
    {
      "txid": "33aaedff3d5df915c6de360434e1b1708701b057bdee59b748833f34619059c7",
      "hash": "33aaedff3d5df915c6de360434e1b1708701b057bdee59b748833f34619059c7",
      "version": 1,
      "size": 135,
      "vsize": 135,
      "weight": 540,
      "locktime": 0,
      "vin": [
        {
          "coinbase": "04ffff001d029004",
          "sequence": 4294967295
        }
      ],
      "vout": [
        {
          "value": 50.0,
          "n": 0,
          "scriptPubKey": {
            "asm": "041b7684a21e9a78d55347cc557cf53ebdd539da104e5db7680540c7e5d008c3c8d65b2a34206a6d57b88222863527dc3feaa798d5d8fc106f588da266628dedda OP_CHECKSIG",
            "desc": "pk(041b7684a21e9a78d55347cc557cf53ebdd539da104e5db7680540c7e5d008c3c8d65b2a34206a6d57b88222863527dc3feaa798d5d8fc106f588da266628dedda)#5mjhxj07",
            "hex": "41041b7684a21e9a78d55347cc557cf53ebdd539da104e5db7680540c7e5d008c3c8d65b2a34206a6d57b88222863527dc3feaa798d5d8fc106f588da266628deddaac",
            "type": "pubkey"
          }
        }
      ],
      "hex": "01000000010000000000000000000000000000000000000000000000000000000000000000ffffffff0804ffff001d029004ffffffff0100f2052a010000004341041b7684a21e9a78d55347cc557cf53ebdd539da104e5db7680540c7e5d008c3c8d65b2a34206a6d57b88222863527dc3feaa798d5d8fc106f588da266628deddaac00000000"
    }
  ]
}