{
  "hash": "00000000109b9ebab7924f0bb110dda99b3ef399e33dd4975cf2f69e03592726",
  "confirmations": 50246,
  "height": 2852,
  "version": 1,
  "versionHex": "00000001",
  "merkleroot": "2227506532f5055b305c9e5a842ad38ec84db8c2fb9775c339375f6043abe0e4",
  "time": 1233659353,
  "mediantime": 1233657223,
  "nonce": 1160326445,
  "bits": "1d00ffff",
  "difficulty": 1,
  "chainwork": "00000000000000000000000000000000000000000000000000000b250b250b25",
  "nTx": 1,
  "previousblockhash": "000000005d468ff89f544ccc58cba53493cb818815455742034837091c6ad473",
  "nextblockhash": "00000000d46e3caa6128566282612b8dfad7870abe77395bfe183a8b570f1a86",
  "strippedsize": 216,
  "size": 216,
  "weight": 864,
  "tx": [
    {
      "txid": "2227506532f5055b305c9e5a842ad38ec84db8c2fb9775c339375f6043abe0e4",
      "hash": "2227506532f5055b305c9e5a842ad38ec84db8c2fb9775c339375f6043abe0e4",
      "version": 1,
      "size": 135,
      "vsize": 135,
      "weight": 540,
      "locktime": 0,
      "vin": [
        {
          "coinbase": "04ffff001d02ca06",
          "sequence": 4294967295
        }
      ],
      "vout": [
        {
          "value": 50.0,
          "n": 0,
          "scriptPubKey": {
            "asm": "04954177a9fffcd575eb8d34df1c4f239d7adf2419fa51a80efd298b80a943110f30f77f85fedc628e2ae923174bd94af3f975adc674d461a6851d2f5224f8ac43 OP_CHECKSIG",
            "desc": "pk(04954177a9fffcd575eb8d34df1c4f239d7adf2419fa51a80efd298b80a943110f30f77f85fedc628e2ae923174bd94af3f975adc674d461a6851d2f5224f8ac43)#2he93c03",
            "hex": "4104954177a9fffcd575eb8d34df1c4f239d7adf2419fa51a80efd298b80a943110f30f77f85fedc628e2ae923174bd94af3f975adc674d461a6851d2f5224f8ac43ac",
            "type": "pubkey"
          }
        }
      ],
      "hex": "01000000010000000000000000000000000000000000000000000000000000000000000000ffffffff0804ffff001d02ca06ffffffff0100f2052a01000000434104954177a9fffcd575eb8d34df1c4f239d7adf2419fa51a80efd298b80a943110f30f77f85fedc628e2ae923174bd94af3f975adc674d461a6851d2f5224f8ac43ac00000000"
    }
  ]
}