{
  "hash": "00000000ecbc3550f96e5cf97c35a266eb0a55a316064a2d2a7da7111322c9e8",
  "confirmations": 45995,
  "height": 7103,
  "version": 1,
  "versionHex": "00000001",
  "merkleroot": "1c56ffe68d1cdf5be120960c9cdf265eb95a7ecc7b8be5b68df043500bfabd82",
  "time": 1236798900,
  "mediantime": 1236796379,
  "nonce": 3035770682,
  "bits": "1d00ffff",
  "difficulty": 1,
  "chainwork": "00000000000000000000000000000000000000000000000000001bc01bc01bc0",
  "nTx": 1,
  "previousblockhash": "0000000080f303a86f15bbccd3c4707f87d3d6d5e01e1dd3e170680cc648d66a",
  "nextblockhash": "00000000e56221fe739b4293f144e3e3345f729599a5ac97d35cf26ca38c8950",
  "strippedsize": 216,
  "size": 216,
  "weight": 864,
  "tx": [
    {
      "txid": "1c56ffe68d1cdf5be120960c9cdf265eb95a7ecc7b8be5b68df043500bfabd82",
      "hash": "1c56ffe68d1cdf5be120960c9cdf265eb95a7ecc7b8be5b68df043500bfabd82",
      "version": 1,
      "size": 135,
      "vsize": 135,
      "weight": 540,
      "locktime": 0,
      "vin": [
        {
          "coinbase": "04ffff001d02f503",
          "sequence": 4294967295
        }
      ],
      "vout": [
        {
          "value": 50.0,
          "n": 0,
          "scriptPubKey": {
            "asm": "04d2c541d2397bbec0dae06c6801e97c112245a1d916c2ef0a849a369df9af6488c4573d08573fe955df0ae9a241f2bccd512f27ac60464ecc125cbc0cd2b89504 OP_CHECKSIG",
            "desc": "pk(04d2c541d2397bbec0dae06c6801e97c112245a1d916c2ef0a849a369df9af6488c4573d08573fe955df0ae9a241f2bccd512f27ac60464ecc125cbc0cd2b89504)#yht4x6nh",
            "hex": "4104d2c541d2397bbec0dae06c6801e97c112245a1d916c2ef0a849a369df9af6488c4573d08573fe955df0ae9a241f2bccd512f27ac60464ecc125cbc0cd2b89504ac",
            "type": "pubkey"
          }
        }
      ],
      "hex": "01000000010000000000000000000000000000000000000000000000000000000000000000ffffffff0804ffff001d02f503ffffffff0100f2052a01000000434104d2c541d2397bbec0dae06c6801e97c112245a1d916c2ef0a849a369df9af6488c4573d08573fe955df0ae9a241f2bccd512f27ac60464ecc125cbc0cd2b89504ac00000000"
    }
  ]
}