{
  "hash": "000000009aedb4ff756036b52b369c4f0afb3df01a887e91887ac29a98edffaf",
  "confirmations": 47304,
  "height": 5794,
  "version": 1,
  "versionHex": "00000001",
  "merkleroot": "c056557af957672eb42f48f92b6636276447310fa7aa9bb921e5ec45821055b9",
  "time": 1235755317,
  "mediantime": 1235752284,
  "nonce": 349412885,
  "bits": "1d00ffff",
  "difficulty": 1,
  "chainwork": "000000000000000000000000000000000000000000000000000016a316a316a3",
  "nTx": 1,
  "previousblockhash": "00000000ed14252d0ee67d7e8921d0d3d18abd34fc1ee0073aa5949bb2f57596",
  "nextblockhash": "00000000bcb00981ddc55628072c9e8e4420d6eb062df616f9b2c2dc1aa29c26",
  "strippedsize": 216,
  "size": 216,
  "weight": 864,
  "tx": [
    {
      "txid": "c056557af957672eb42f48f92b6636276447310fa7aa9bb921e5ec45821055b9",
      "hash": "c056557af957672eb42f48f92b6636276447310fa7aa9bb921e5ec45821055b9",
      "version": 1,
      "size": 135,
      "vsize": 135,
      "weight": 540,
      "locktime": 0,
      "vin": [
        {
          "coinbase": "04ffff001d029900",
          "sequence": 4294967295
        }
      ],
      "vout": [
        {
          "value": 50.0,
          "n": 0,
          "scriptPubKey": {
            "asm": "04da6f6a648c25612374498512abf5439e695bec04ebc9e3cb41efe5c932f53359be60ee902835e47af39d041b65c7fe347546b82c4fe323ad8babde7e7361a3c4 OP_CHECKSIG",
            "desc": "pk(04da6f6a648c25612374498512abf5439e695bec04ebc9e3cb41efe5c932f53359be60ee902835e47af39d041b65c7fe347546b82c4fe323ad8babde7e7361a3c4)#v2020ey3",
            "hex": "4104da6f6a648c25612374498512abf5439e695bec04ebc9e3cb41efe5c932f53359be60ee902835e47af39d041b65c7fe347546b82c4fe323ad8babde7e7361a3c4ac",
            "type": "pubkey"
          }
        }
      ],
      "hex": "01000000010000000000000000000000000000000000000000000000000000000000000000ffffffff0804ffff001d029900ffffffff0100f2052a01000000434104da6f6a648c25612374498512abf5439e695bec04ebc9e3cb41efe5c932f53359be60ee902835e47af39d041b65c7fe347546b82c4fe323ad8babde7e7361a3c4ac00000000"
    }
  ]
}