{
  "hash": "00000000b87c684ff1b276a2229185173d0d3ddefc3a362a70916d6ab1e5696d",
  "confirmations": 43980,
  "height": 9118,
  "version": 1,
  "versionHex": "00000001",
  "merkleroot": "2e5b73999c5bf1f06ec92ce7db5fa89a18e57ec9365ff40ae8508f96ec2991b4",
  "time": 1238342577,
  "mediantime": 1238338597,
  "nonce": 3846060575,
  "bits": "1d00ffff",
  "difficulty": 1,
  "chainwork": "0000000000000000000000000000000000000000000000000000239f239f239f",
  "nTx": 1,
  "previousblockhash": "00000000d25fe039786e03cee53399b5b30b58d6baa8262cf0afc373a25001c6",
  "nextblockhash": "000000004a0bb4b37415e5ff3b37a4102545d867d74f12eb075548287b793569",
  "strippedsize": 216,
  "size": 216,
  "weight": 864,
  "tx": [
    {
      "txid": "2e5b73999c5bf1f06ec92ce7db5fa89a18e57ec9365ff40ae8508f96ec2991b4",
      "hash": "2e5b73999c5bf1f06ec92ce7db5fa89a18e57ec9365ff40ae8508f96ec2991b4",
      "version": 1,
      "size": 135,
      "vsize": 135,
      "weight": 540,
      "locktime": 0,
      "vin": [
        {
          "coinbase": "04ffff001d029c08",
          "sequence": 4294967295
        }
      ],
      "vout": [
        {
          "value": 50.0,
          "n": 0,
          "scriptPubKey": {
            "asm": "04170a9daf6eb2175bb30b30b7a9f36b85f3c6f4933d765815caf9be734396e6fd37cf4576b1e1d164bce544ef9f2bd1fda0aaec80b86d7d630d184abcc6ce7484 OP_CHECKSIG",
            "desc": "pk(04170a9daf6eb2175bb30b30b7a9f36b85f3c6f4933d765815caf9be734396e6fd37cf4576b1e1d164bce544ef9f2bd1fda0aaec80b86d7d630d184abcc6ce7484)#htyg9c7m",
            "hex": "4104170a9daf6eb2175bb30b30b7a9f36b85f3c6f4933d765815caf9be734396e6fd37cf4576b1e1d164bce544ef9f2bd1fda0aaec80b86d7d630d184abcc6ce7484ac",
            "type": "pubkey"
          }
        }
      ],
      "hex": "01000000010000000000000000000000000000000000000000000000000000000000000000ffffffff0804ffff001d029c08ffffffff0100f2052a01000000434104170a9daf6eb2175bb30b30b7a9f36b85f3c6f4933d765815caf9be734396e6fd37cf4576b1e1d164bce544ef9f2bd1fda0aaec80b86d7d630d184abcc6ce7484ac00000000"
    }
  ]
}