{
  "hash": "00000000a3621a4520dbf44e5d406ac70c4c5c3002dc14b5fc6cd5768b5fd9c5",
  "confirmations": 50445,
  "height": 2653,
  "version": 1,
  "versionHex": "00000001",
  "merkleroot": "c926ca359a13b2d995c95c50806ea5272eb0d1b3426921ea51d7fa28d6819a24",
  "time": 1233530560,
  "mediantime": 1233525380,
  "nonce": 625339944,
  "bits": "1d00ffff",
  "difficulty": 1,
  "chainwork": "00000000000000000000000000000000000000000000000000000a5e0a5e0a5e",
  "nTx": 1,
  "previousblockhash": "00000000e0c974daa5c778099828f0227849b35ecaa2b6d165ce0a8d9e9118c6",
  "nextblockhash": "0000000072a7160a7f11dfa4e1906f44fbd4cd11527a8d4553a77022808c3ce9",
  "strippedsize": 216,
  "size": 216,
  "weight": 864,
  "tx": [
    {
      "txid": "c926ca359a13b2d995c95c50806ea5272eb0d1b3426921ea51d7fa28d6819a24",
      "hash": "c926ca359a13b2d995c95c50806ea5272eb0d1b3426921ea51d7fa28d6819a24",
      "version": 1,
      "size": 135,
      "vsize": 135,
      "weight": 540,
      "locktime": 0,
      "vin": [
        {
          "coinbase": "04ffff001d02f603",
          "sequence": 4294967295
        }
      ],
      "vout": [
        {
          "value": 50.0,
          "n": 0,
          "scriptPubKey": {
            "asm": "04bf707566c5efa3c84e37e22ea43a2a65f736f097fa47afa4e65b4ce881a07df28a84d4a2c662fae1558420a04b19e5a1e84ca71d17a9e7ec8005a531e4c3e103 OP_CHECKSIG",
            "desc": "pk(04bf707566c5efa3c84e37e22ea43a2a65f736f097fa47afa4e65b4ce881a07df28a84d4a2c662fae1558420a04b19e5a1e84ca71d17a9e7ec8005a531e4c3e103)#y9x2wylt",
            "hex": "4104bf707566c5efa3c84e37e22ea43a2a65f736f097fa47afa4e65b4ce881a07df28a84d4a2c662fae1558420a04b19e5a1e84ca71d17a9e7ec8005a531e4c3e103ac",
            "type": "pubkey"
          }
        }
      ],
      "hex": "01000000010000000000000000000000000000000000000000000000000000000000000000ffffffff0804ffff001d02f603ffffffff0100f2052a01000000434104bf707566c5efa3c84e37e22ea43a2a65f736f097fa47afa4e65b4ce881a07df28a84d4a2c662fae1558420a04b19e5a1e84ca71d17a9e7ec8005a531e4c3e103ac00000000"
    }
  ]
}