{
  "hash": "00000000b8b8ddc7b3a454eb9be11de1d0673500abcd6ca1eb3e770bd2a627f9",
  "confirmations": 46205,
  "height": 6893,
  "version": 1,
  "versionHex": "00000001",
  "merkleroot": "d5b9d8a41ffcd89c7a928fb06d59584bf5c67ef857ae9166e1c5be5239ed5387",
  "time": 1236632471,
  "mediantime": 1236627692,
  "nonce": 768507144,
  "bits": "1d00ffff",
  "difficulty": 1,
  "chainwork": "00000000000000000000000000000000000000000000000000001aee1aee1aee",
  "nTx": 1,
  "previousblockhash": "0000000050a58f5c3fa7c44401783b5980eda151a67539455c3c3119842d1471",
  "nextblockhash": "000000006a07f51a21bf370586daeaf651a5ff29bcf1d53dad55582762f9f4b0",
  "strippedsize": 215,
  "size": 215,
  "weight": 860,
  "tx": [
    {
      "txid": "d5b9d8a41ffcd89c7a928fb06d59584bf5c67ef857ae9166e1c5be5239ed5387",
      "hash": "d5b9d8a41ffcd89c7a928fb06d59584bf5c67ef857ae9166e1c5be5239ed5387",
      "version": 1,
      "size": 134,
      "vsize": 134,
      "weight": 536,
      "locktime": 0,
      "vin": [
        {
          "coinbase": "04ffff001d013d",
          "sequence": 4294967295
        }
      ],
      "vout": [
        {
          "value": 50.0,
          "n": 0,
          "scriptPubKey": {
            "asm": "04dbf163e0c8b97cd6dabc045e689c800b10048a0767c9c242b68a023af7369ecd07ee6194caf8d1ac08f8d399d39ceb4e63d204ac44532dbcd567046d9beeefdd OP_CHECKSIG",
            "desc": "pk(04dbf163e0c8b97cd6dabc045e689c800b10048a0767c9c242b68a023af7369ecd07ee6194caf8d1ac08f8d399d39ceb4e63d204ac44532dbcd567046d9beeefdd)#0yqymz5r",
            "hex": "4104dbf163e0c8b97cd6dabc045e689c800b10048a0767c9c242b68a023af7369ecd07ee6194caf8d1ac08f8d399d39ceb4e63d204ac44532dbcd567046d9beeefddac",
            "type": "pubkey"
          }
        }
      ],
      "hex": "01000000010000000000000000000000000000000000000000000000000000000000000000ffffffff0704ffff001d013dffffffff0100f2052a01000000434104dbf163e0c8b97cd6dabc045e689c800b10048a0767c9c242b68a023af7369ecd07ee6194caf8d1ac08f8d399d39ceb4e63d204ac44532dbcd567046d9beeefddac00000000"
    }
  ]
}