{
  "hash": "0000000023590d5786ed808a04fd7ba10b4e8814ca8f3d7eef91621074f99f85",
  "confirmations": 46695,
  "height": 6403,
  "version": 1,
  "versionHex": "00000001",
  "merkleroot": "823ec3c7bb70385cc3eac50208968a87e3abf0fb115c73752d7538aae4a418f2",
  "time": 1236258240,
  "mediantime": 1236254163,
  "nonce": 3592827172,
  "bits": "1d00ffff",
  "difficulty": 1,
  "chainwork": "0000000000000000000000000000000000000000000000000000190419041904",
  "nTx": 1,
  "previousblockhash": "000000008967b63ef7bf00299f69687bfce031022dc2db60219bcdb85b96aafc",
  "nextblockhash": "000000004e56014d59915093432fb53cc27ff9832bb88ec224760053855adcc4",
  "strippedsize": 216,
  "size": 216,
  "weight": 864,
  "tx": [
    {
      "txid": "823ec3c7bb70385cc3eac50208968a87e3abf0fb115c73752d7538aae4a418f2",
      "hash": "823ec3c7bb70385cc3eac50208968a87e3abf0fb115c73752d7538aae4a418f2",
      "version": 1,
      "size": 135,
      "vsize": 135,
      "weight": 540,
      "locktime": 0,
      "vin": [
        {
          "coinbase": "04ffff001d02e101",
          "sequence": 4294967295
        }
      ],
      "vout": [
        {
          "value": 50.0,
          "n": 0,
          "scriptPubKey": {
            "asm": "04bac5d7a60fa89f2bf526ecd292291df3207552c569f4dc72e33d54da132af294c86238d25cbd048f8ad927e7399518ed7b54a86fdba35bd0290e43a619a73f59 OP_CHECKSIG",
            "desc": "pk(04bac5d7a60fa89f2bf526ecd292291df3207552c569f4dc72e33d54da132af294c86238d25cbd048f8ad927e7399518ed7b54a86fdba35bd0290e43a619a73f59)#038jtyey",
            "hex": "4104bac5d7a60fa89f2bf526ecd292291df3207552c569f4dc72e33d54da132af294c86238d25cbd048f8ad927e7399518ed7b54a86fdba35bd0290e43a619a73f59ac",
            "type": "pubkey"
          }
        }
      ],
      "hex": "01000000010000000000000000000000000000000000000000000000000000000000000000ffffffff0804ffff001d02e101ffffffff0100f2052a01000000434104bac5d7a60fa89f2bf526ecd292291df3207552c569f4dc72e33d54da132af294c86238d25cbd048f8ad927e7399518ed7b54a86fdba35bd0290e43a619a73f59ac00000000"
    }
  ]
}