{
  "hash": "00000000040354dfe4ac02f4f8055b93adfcc36eb4617643e305f08e02f2edb7",
  "confirmations": 52147,
  "height": 951,
  "version": 1,
  "versionHex": "00000001",
  "merkleroot": "a7c9ab3f9104ee3965b4e62ea610276e73341e1da56597937079c1c8f6e40773",
  "time": 1232313891,
  "mediantime": 1232309875,
  "nonce": 3937614901,
  "bits": "1d00ffff",
  "difficulty": 1,
  "chainwork": "000000000000000000000000000000000000000000000000000003b803b803b8",
  "nTx": 1,
  "previousblockhash": "00000000d49a9c4ff3bd924b3f0b083b5169f2dd327090f205d155f76d0e8fec",
  "nextblockhash": "00000000519c816ef1879837adb619b12b6e46fc306fe53deb7862e7131aae06",
  "strippedsize": 216,
  "size": 216,
  "weight": 864,
  "tx": [
    {
      "txid": "a7c9ab3f9104ee3965b4e62ea610276e73341e1da56597937079c1c8f6e40773",
      "hash": "a7c9ab3f9104ee3965b4e62ea610276e73341e1da56597937079c1c8f6e40773",
      "version": 1,
      "size": 135,
      "vsize": 135,
      "weight": 540,
      "locktime": 0,
      "vin": [
        {
          "coinbase": "04ffff001d025904",
          "sequence": 4294967295
        }
      ],
      "vout": [
        {
          "value": 50.0,
          "n": 0,
          "scriptPubKey": {
            "asm": "047832c06d8faf8e809d72654dee7dc7cd3c32e4587e18c3075c27e99c92a5798aa94f7ed752dad54d00556ceb344add7ea4e365693d56595d314043e1246454d3 OP_CHECKSIG",
            "desc": "pk(047832c06d8faf8e809d72654dee7dc7cd3c32e4587e18c3075c27e99c92a5798aa94f7ed752dad54d00556ceb344add7ea4e365693d56595d314043e1246454d3)#gpmjfykv",
            "hex": "41047832c06d8faf8e809d72654dee7dc7cd3c32e4587e18c3075c27e99c92a5798aa94f7ed752dad54d00556ceb344add7ea4e365693d56595d314043e1246454d3ac",
            "type": "pubkey"
          }
        }
      ],
      "hex": "01000000010000000000000000000000000000000000000000000000000000000000000000ffffffff0804ffff001d025904ffffffff0100f2052a010000004341047832c06d8faf8e809d72654dee7dc7cd3c32e4587e18c3075c27e99c92a5798aa94f7ed752dad54d00556ceb344add7ea4e365693d56595d314043e1246454d3ac00000000"
    }
  ]
}