{
  "hash": "0000000014c10689f16de16ce0afe82248be5fb5c22544de41ac6e6e550f8051",
  "confirmations": 44287,
  "height": 8811,
  "version": 1,
  "versionHex": "00000001",
  "merkleroot": "c7e00b28950a7ae93294c126dc9f67a1cc11e3b39955c6bede5f3fcaa5f7b124",
  "time": 1238107701,
  "mediantime": 1238104624,
  "nonce": 823610926,
  "bits": "1d00ffff",
  "difficulty": 1,
  "chainwork": "0000000000000000000000000000000000000000000000000000226c226c226c",
  "nTx": 1,
  "previousblockhash": "00000000917055ca56f73122581850ffaaab9fc2d0276e1dffbc02d6249f87ae",
  "nextblockhash": "000000004484352e71b638f67c74e42b52a0c3c98f752ab5a0959c9b47d79b19",
  "strippedsize": 216,
  "size": 216,
  "weight": 864,
  "tx": [
    {
      "txid": "c7e00b28950a7ae93294c126dc9f67a1cc11e3b39955c6bede5f3fcaa5f7b124",
      "hash": "c7e00b28950a7ae93294c126dc9f67a1cc11e3b39955c6bede5f3fcaa5f7b124",
      "version": 1,
      "size": 135,
      "vsize": 135,
      "weight": 540,
      "locktime": 0,
      "vin": [
        {
          "coinbase": "04ffff001d02ee02",
          "sequence": 4294967295
        }
      ],
      "vout": [
        {
          "value": 50.0,
          "n": 0,
          "scriptPubKey": {
            "asm": "048435768ca39ac822d67207c7a96149dc2dd7740aed0bcb41df88447f2d581480d921df99bcedbd9b6e361f9774c288cd705b4cc9c10ec30de2b6bfb95ff7a19b OP_CHECKSIG",
            "desc": "pk(048435768ca39ac822d67207c7a96149dc2dd7740aed0bcb41df88447f2d581480d921df99bcedbd9b6e361f9774c288cd705b4cc9c10ec30de2b6bfb95ff7a19b)#c5w6yczm",
            "hex": "41048435768ca39ac822d67207c7a96149dc2dd7740aed0bcb41df88447f2d581480d921df99bcedbd9b6e361f9774c288cd705b4cc9c10ec30de2b6bfb95ff7a19bac",
            "type": "pubkey"
          }
        }
      ],
      "hex": "01000000010000000000000000000000000000000000000000000000000000000000000000ffffffff0804ffff001d02ee02ffffffff0100f2052a010000004341048435768ca39ac822d67207c7a96149dc2dd7740aed0bcb41df88447f2d581480d921df99bcedbd9b6e361f9774c288cd705b4cc9c10ec30de2b6bfb95ff7a19bac00000000"
    }
  ]
}