{
  "hash": "00000000804859b11bfb634ab5922c38aae5b07e1ef221c9f9ea1a0336141a76",
  "confirmations": 51453,
  "height": 1645,
  "version": 1,
  "versionHex": "00000001",
  "merkleroot": "a9433bad394b0f304231ecafdf16023dd1d346b394bf8ea986c47aec510b3331",
  "time": 1232831327,
  "mediantime": 1232829097,
  "nonce": 3790452480,
  "bits": "1d00ffff",
  "difficulty": 1,
  "chainwork": "0000000000000000000000000000000000000000000000000000066e066e066e",
  "nTx": 1,
  "previousblockhash": "000000004312708b14e4aca8afc2441fe2ac9fdac90b08cc076bb03ecf077aab",
  "nextblockhash": "00000000f4dc946a7d82cb1686970b4300d118c132513794426fffaa6e1e7623",
  "strippedsize": 216,
  "size": 216,
  "weight": 864,
  "tx": [
    {
      "txid": "a9433bad394b0f304231ecafdf16023dd1d346b394bf8ea986c47aec510b3331",
      "hash": "a9433bad394b0f304231ecafdf16023dd1d346b394bf8ea986c47aec510b3331",
      "version": 1,
      "size": 135,
      "vsize": 135,
      "weight": 540,
      "locktime": 0,
      "vin": [
        {
          "coinbase": "04ffff001d028202",
          "sequence": 4294967295
        }
      ],
      "vout": [
        {
          "value": 50.0,
          "n": 0,
          "scriptPubKey": {
            "asm": "04399fcdaae6ab7135d40aca693155cf7854500da21548a74ace29d109d2d8e6ac5af32dda94f26674a4c337168386b90b9a1dc5167e2556e91ee8d289f3ed9cbf OP_CHECKSIG",
            "desc": "pk(04399fcdaae6ab7135d40aca693155cf7854500da21548a74ace29d109d2d8e6ac5af32dda94f26674a4c337168386b90b9a1dc5167e2556e91ee8d289f3ed9cbf)#v85ytney",
            "hex": "4104399fcdaae6ab7135d40aca693155cf7854500da21548a74ace29d109d2d8e6ac5af32dda94f26674a4c337168386b90b9a1dc5167e2556e91ee8d289f3ed9cbfac",
            "type": "pubkey"
          }
        }
      ],
      "hex": "01000000010000000000000000000000000000000000000000000000000000000000000000ffffffff0804ffff001d028202ffffffff0100f2052a01000000434104399fcdaae6ab7135d40aca693155cf7854500da21548a74ace29d109d2d8e6ac5af32dda94f26674a4c337168386b90b9a1dc5167e2556e91ee8d289f3ed9cbfac00000000"
    }
  ]
}