{
  "hash": "00000000b104104dfc538d175f3caa313dffc06607fc06e4737e0c3abcd085d8",
  "confirmations": 52005,
  "height": 335,
  "version": 1,
  "versionHex": "00000001",
  "merkleroot": "c2b03396c3e8b17a6392f9c9994633ba04bbde60328dfa63e0d1a69cc75bcb1e",
  "time": 1231856031,
  "mediantime": 1231853108,
  "nonce": 3114084136,
  "bits": "1d00ffff",
  "difficulty": 1,
  "chainwork": "0000000000000000000000000000000000000000000000000000015001500150",
  "nTx": 1,
  "previousblockhash": "000000006b94ae33d29db8abaf5a088f748ee835dd4509ac70d698a9f8376211",
  "nextblockhash": "00000000306b5009d2a9efa54aaec49a0ce1e992b0079c3f2e54fc49871d7956",
  "strippedsize": 216,
  "size": 216,
  "weight": 864,
  "tx": [
    {
      "txid": "c2b03396c3e8b17a6392f9c9994633ba04bbde60328dfa63e0d1a69cc75bcb1e",
      "hash": "c2b03396c3e8b17a6392f9c9994633ba04bbde60328dfa63e0d1a69cc75bcb1e",
      "version": 1,
      "size": 135,
      "vsize": 135,
      "weight": 540,
      "locktime": 0,
      "vin": [
        {
          "coinbase": "04ffff001d023901",
          "sequence": 4294967295
        }
      ],
      "vout": [
        {
          "value": 50.0,
          "n": 0,
          "scriptPubKey": {
            "asm": "04e62518736ba8027a181f3b316f401d61d758f3c49011474ab2bfbea8d952e0a542d85c70ab63cf76449f1c2cb9db288bc48d65026c78dc74cbab5438ec47f57a OP_CHECKSIG",
            "desc": "pk(04e62518736ba8027a181f3b316f401d61d758f3c49011474ab2bfbea8d952e0a542d85c70ab63cf76449f1c2cb9db288bc48d65026c78dc74cbab5438ec47f57a)#tj7ek3nw",
            "hex": "4104e62518736ba8027a181f3b316f401d61d758f3c49011474ab2bfbea8d952e0a542d85c70ab63cf76449f1c2cb9db288bc48d65026c78dc74cbab5438ec47f57aac",
            "type": "pubkey"
          }
        }
      ],
      "hex": "01000000010000000000000000000000000000000000000000000000000000000000000000ffffffff0804ffff001d023901ffffffff0100f2052a01000000434104e62518736ba8027a181f3b316f401d61d758f3c49011474ab2bfbea8d952e0a542d85c70ab63cf76449f1c2cb9db288bc48d65026c78dc74cbab5438ec47f57aac00000000"
    }
  ]
}