{
  "hash": "00000000a7c151b1265ba5113696eca9ea57a0e2beaaa9b7e3cf4718cad07a4c",
  "confirmations": 47142,
  "height": 5956,
  "version": 1,
  "versionHex": "00000001",
  "merkleroot": "91c6749e124d5af492c8a22d17735ee16eafc2b8c2c21ec0000a416d0b9247f5",
  "time": 1235892868,
  "mediantime": 1235889234,
  "nonce": 2756217629,
  "bits": "1d00ffff",
  "difficulty": 1,
  "chainwork": "0000000000000000000000000000000000000000000000000000174517451745",
  "nTx": 1,
  "previousblockhash": "00000000493731c59d3f2c93a61e501a0f837e5605beabcf3a6ad9cd7987071e",
  "nextblockhash": "000000008462fe42d69930b0e98b5cb33d68d70a15955a066a4169d70fd01cf3",
  "strippedsize": 216,
  "size": 216,
  "weight": 864,
  "tx": [
    {
      "txid": "91c6749e124d5af492c8a22d17735ee16eafc2b8c2c21ec0000a416d0b9247f5",
      "hash": "91c6749e124d5af492c8a22d17735ee16eafc2b8c2c21ec0000a416d0b9247f5",
      "version": 1,
      "size": 135,
      "vsize": 135,
      "weight": 540,
      "locktime": 0,
      "vin": [
        {
          "coinbase": "04ffff001d021c04",
          "sequence": 4294967295
        }
      ],
      "vout": [
        {
          "value": 50.0,
          "n": 0,
          "scriptPubKey": {
            "asm": "04fdbde0d8f6983be0a8fe0fe7b84e43a934fad896fdfc07cc79c1bb799a6c18d99ed6af3fb3cd073fdbbc7c5789d4c9bf324a6da587f1743ff8ab1701e57210c0 OP_CHECKSIG",
            "desc": "pk(04fdbde0d8f6983be0a8fe0fe7b84e43a934fad896fdfc07cc79c1bb799a6c18d99ed6af3fb3cd073fdbbc7c5789d4c9bf324a6da587f1743ff8ab1701e57210c0)#2p2cc32d",
            "hex": "4104fdbde0d8f6983be0a8fe0fe7b84e43a934fad896fdfc07cc79c1bb799a6c18d99ed6af3fb3cd073fdbbc7c5789d4c9bf324a6da587f1743ff8ab1701e57210c0ac",
            "type": "pubkey"
          }
        }
      ],
      "hex": "01000000010000000000000000000000000000000000000000000000000000000000000000ffffffff0804ffff001d021c04ffffffff0100f2052a01000000434104fdbde0d8f6983be0a8fe0fe7b84e43a934fad896fdfc07cc79c1bb799a6c18d99ed6af3fb3cd073fdbbc7c5789d4c9bf324a6da587f1743ff8ab1701e57210c0ac00000000"
    }
  ]
}