{
  "hash": "00000000d70d009d4d07f21abfaea48654e63e28f38fe0685e3b0dea50f536de",
  "confirmations": 45557,
  "height": 7541,
  "version": 1,
  "versionHex": "00000001",
  "merkleroot": "e93ac652dc728ab43b2f298c6bc7357ac73ab45bf30b06c228c6d94ed0e67623",
  "time": 1237129268,
  "mediantime": 1237126026,
  "nonce": 2552016898,
  "bits": "1d00ffff",
  "difficulty": 1,
  "chainwork": "00000000000000000000000000000000000000000000000000001d761d761d76",
  "nTx": 1,
  "previousblockhash": "00000000763b46e83b0cbcd99e679fc01840d5e804ac3df3181b40dd80036646",
  "nextblockhash": "00000000babe08e0d513f9af0541fb24498b1b1349195580f648c1dee9f38c8f",
  "strippedsize": 216,
  "size": 216,
  "weight": 864,
  "tx": [
    {
      "txid": "e93ac652dc728ab43b2f298c6bc7357ac73ab45bf30b06c228c6d94ed0e67623",
      "hash": "e93ac652dc728ab43b2f298c6bc7357ac73ab45bf30b06c228c6d94ed0e67623",
      "version": 1,
      "size": 135,
      "vsize": 135,
      "weight": 540,
      "locktime": 0,
      "vin": [
        {
          "coinbase": "04ffff001d02ad01",
          "sequence": 4294967295
        }
      ],
      "vout": [
        {
          "value": 50.0,
          "n": 0,
          "scriptPubKey": {
            "asm": "0456c82eb6a60c44b7ff10deaba331cd63cd121cceae06e051286423acb30fc3e7af09bd3561fefc35ef991ab5a5cb322500f3f27a8017f2d4de7a881fcfafee60 OP_CHECKSIG",
            "desc": "pk(0456c82eb6a60c44b7ff10deaba331cd63cd121cceae06e051286423acb30fc3e7af09bd3561fefc35ef991ab5a5cb322500f3f27a8017f2d4de7a881fcfafee60)#cfuqnhcl",
            "hex": "410456c82eb6a60c44b7ff10deaba331cd63cd121cceae06e051286423acb30fc3e7af09bd3561fefc35ef991ab5a5cb322500f3f27a8017f2d4de7a881fcfafee60ac",
            "type": "pubkey"
          }
        }
      ],
      "hex": "01000000010000000000000000000000000000000000000000000000000000000000000000ffffffff0804ffff001d02ad01ffffffff0100f2052a0100000043410456c82eb6a60c44b7ff10deaba331cd63cd121cceae06e051286423acb30fc3e7af09bd3561fefc35ef991ab5a5cb322500f3f27a8017f2d4de7a881fcfafee60ac00000000"
    }
  ]
}