{
  "hash": "00000000d973bc6a279b81b6da4d8fdbfd4242312181f4c094c420d3ac8c6a48",
  "confirmations": 44810,
  "height": 8288,
  "version": 1,
  "versionHex": "00000001",
  "merkleroot": "26f78a6f65c82297dc8c6e815c2022edb55fec40c7c1b8215c3e8aa4d4e41dc2",
  "time": 1237724013,
  "mediantime": 1237720678,
  "nonce": 283207187,
  "bits": "1d00ffff",
  "difficulty": 1,
  "chainwork": "0000000000000000000000000000000000000000000000000000206120612061",
  "nTx": 1,
  "previousblockhash": "00000000f146640b532605b24eaa612e8096842605dbd3abd81f0cf226bdb88f",
  "nextblockhash": "00000000e9666bdf76e2bbf2e3001ed4bb926cda54aaf2c72af365d21ba90490",
  "strippedsize": 216,
  "size": 216,
  "weight": 864,
  "tx": [
    {
      "txid": "26f78a6f65c82297dc8c6e815c2022edb55fec40c7c1b8215c3e8aa4d4e41dc2",
      "hash": "26f78a6f65c82297dc8c6e815c2022edb55fec40c7c1b8215c3e8aa4d4e41dc2",
      "version": 1,
      "size": 135,
      "vsize": 135,
      "weight": 540,
      "locktime": 0,
      "vin": [
        {
          "coinbase": "04ffff001d027202",
          "sequence": 4294967295
        }
      ],
      "vout": [
        {
          "value": 50.0,
          "n": 0,
          "scriptPubKey": {
            "asm": "04360778d8e5734626dd3c30ee8bc34e9b9bdd8a9213e05e89af1cad31db9ba9f7aa3d5f751fcb7f666d1982652808270f0d3d3cbbba9d5ccac06b314f1234b7bd OP_CHECKSIG",
            "desc": "pk(04360778d8e5734626dd3c30ee8bc34e9b9bdd8a9213e05e89af1cad31db9ba9f7aa3d5f751fcb7f666d1982652808270f0d3d3cbbba9d5ccac06b314f1234b7bd)#6r78quyr",
            "hex": "4104360778d8e5734626dd3c30ee8bc34e9b9bdd8a9213e05e89af1cad31db9ba9f7aa3d5f751fcb7f666d1982652808270f0d3d3cbbba9d5ccac06b314f1234b7bdac",
            "type": "pubkey"
          }
        }
      ],
      "hex": "01000000010000000000000000000000000000000000000000000000000000000000000000ffffffff0804ffff001d027202ffffffff0100f2052a01000000434104360778d8e5734626dd3c30ee8bc34e9b9bdd8a9213e05e89af1cad31db9ba9f7aa3d5f751fcb7f666d1982652808270f0d3d3cbbba9d5ccac06b314f1234b7bdac00000000"
    }
  ]
}