{
  "hash": "0000000067095df2a66d4e3dab6633ba3dbe3073e01b473ae3684bb117b34e54",
  "confirmations": 50638,
  "height": 2460,
  "version": 1,
  "versionHex": "00000001",
  "merkleroot": "8288147c50c30e5eb6f7ed17e94d14fada393aba1b7d592c27143761ff63613d",
  "time": 1233399182,
  "mediantime": 1233396353,
  "nonce": 3645393705,
  "bits": "1d00ffff",
  "difficulty": 1,
  "chainwork": "0000000000000000000000000000000000000000000000000000099d099d099d",
  "nTx": 1,
  "previousblockhash": "000000008e4370ebb94877d023f6304a8080f3dcd13e8d04999f5d8101b7c30b",
  "nextblockhash": "0000000030aa3590bd74cece671d2ec922e2b01e2623f2d177fac8b20384251c",
  "strippedsize": 216,
  "size": 216,
  "weight": 864,
  "tx": [
    {
      "txid": "8288147c50c30e5eb6f7ed17e94d14fada393aba1b7d592c27143761ff63613d",
      "hash": "8288147c50c30e5eb6f7ed17e94d14fada393aba1b7d592c27143761ff63613d",
      "version": 1,
      "size": 135,
      "vsize": 135,
      "weight": 540,
      "locktime": 0,
      "vin": [
        {
          "coinbase": "04ffff001d02a200",
          "sequence": 4294967295
        }
      ],
      "vout": [
        {
          "value": 50.0,
          "n": 0,
          "scriptPubKey": {
            "asm": "042b41442025cce757e5a342f6de04532391bf4edc0666d318bdfcc21904c392c3409439b5bdcbe53812d957016f68aab0e2bf1ea972d0280a54e4f2e737206e6c OP_CHECKSIG",
            "desc": "pk(042b41442025cce757e5a342f6de04532391bf4edc0666d318bdfcc21904c392c3409439b5bdcbe53812d957016f68aab0e2bf1ea972d0280a54e4f2e737206e6c)#556f24q2",
            "hex": "41042b41442025cce757e5a342f6de04532391bf4edc0666d318bdfcc21904c392c3409439b5bdcbe53812d957016f68aab0e2bf1ea972d0280a54e4f2e737206e6cac",
            "type": "pubkey"
          }
        }
      ],
      "hex": "01000000010000000000000000000000000000000000000000000000000000000000000000ffffffff0804ffff001d02a200ffffffff0100f2052a010000004341042b41442025cce757e5a342f6de04532391bf4edc0666d318bdfcc21904c392c3409439b5bdcbe53812d957016f68aab0e2bf1ea972d0280a54e4f2e737206e6cac00000000"
    }
  ]
}