{
  "hash": "000000009ff5f378dcb19ac91210dd90a80228d5446ba9fc66d56112694c28e0",
  "confirmations": 47070,
  "height": 6028,
  "version": 1,
  "versionHex": "00000001",
  "merkleroot": "e835f87ae1c737ff529ea03689b87d056fb1e88c053f7640890dec111c2c82f6",
  "time": 1235951359,
  "mediantime": 1235946954,
  "nonce": 867685379,
  "bits": "1d00ffff",
  "difficulty": 1,
  "chainwork": "0000000000000000000000000000000000000000000000000000178d178d178d",
  "nTx": 1,
  "previousblockhash": "00000000946f4004e9a9604e72fdcf606f8d01cda4d73f0b51798cf2b454b243",
  "nextblockhash": "0000000009d1247d2e4001aeecb7ab7ceb36790893fa6d40e8f114a8cc533939",
  "strippedsize": 216,
  "size": 216,
  "weight": 864,
  "tx": [
    {
      "txid": "e835f87ae1c737ff529ea03689b87d056fb1e88c053f7640890dec111c2c82f6",
      "hash": "e835f87ae1c737ff529ea03689b87d056fb1e88c053f7640890dec111c2c82f6",
      "version": 1,
      "size": 135,
      "vsize": 135,
      "weight": 540,
      "locktime": 0,
      "vin": [
        {
          "coinbase": "04ffff001d026c05",
          "sequence": 4294967295
        }
      ],
      "vout": [
        {
          "value": 50.0,
          "n": 0,
          "scriptPubKey": {
            "asm": "04a8e124fe76e1736de427145fee3c6f56135bb7bb6b3b7c8553c0a236af31f25b363bebd6c320a106965fd74ef3ccdd9d914c1eb2be1f7e4d11acc8585e2e11e6 OP_CHECKSIG",
            "desc": "pk(04a8e124fe76e1736de427145fee3c6f56135bb7bb6b3b7c8553c0a236af31f25b363bebd6c320a106965fd74ef3ccdd9d914c1eb2be1f7e4d11acc8585e2e11e6)#w2f7y2cs",
            "hex": "4104a8e124fe76e1736de427145fee3c6f56135bb7bb6b3b7c8553c0a236af31f25b363bebd6c320a106965fd74ef3ccdd9d914c1eb2be1f7e4d11acc8585e2e11e6ac",
            "type": "pubkey"
          }
        }
      ],
      "hex": "01000000010000000000000000000000000000000000000000000000000000000000000000ffffffff0804ffff001d026c05ffffffff0100f2052a01000000434104a8e124fe76e1736de427145fee3c6f56135bb7bb6b3b7c8553c0a236af31f25b363bebd6c320a106965fd74ef3ccdd9d914c1eb2be1f7e4d11acc8585e2e11e6ac00000000"
    }
  ]
}