{
  "hash": "0000000096d2e1bec83a991fa920117d3d2fc746789f1ed821ce22af28e6bab2",
  "confirmations": 49358,
  "height": 3740,
  "version": 1,
  "versionHex": "00000001",
  "merkleroot": "d91b048fb7571dfdf0fcb3aae0162012e8f6524d24b5061f28cf5ee7b2da69c6",
  "time": 1234261774,
  "mediantime": 1234258049,
  "nonce": 2246014261,
  "bits": "1d00ffff",
  "difficulty": 1,
  "chainwork": "00000000000000000000000000000000000000000000000000000e9d0e9d0e9d",
  "nTx": 1,
  "previousblockhash": "000000009bf795ececcb33f5070bb26a86ef33e0132184cd1007c3175d6e7ce5",
  "nextblockhash": "00000000df01937342f4fa17c4848e31075d6d3df2647885a2483b1c0717ab75",
  "strippedsize": 215,
  "size": 215,
  "weight": 860,
  "tx": [
    {
      "txid": "d91b048fb7571dfdf0fcb3aae0162012e8f6524d24b5061f28cf5ee7b2da69c6",
      "hash": "d91b048fb7571dfdf0fcb3aae0162012e8f6524d24b5061f28cf5ee7b2da69c6",
      "version": 1,
      "size": 134,
      "vsize": 134,
      "weight": 536,
      "locktime": 0,
      "vin": [
        {
          "coinbase": "04ffff001d0174",
          "sequence": 4294967295
        }
      ],
      "vout": [
        {
          "value": 50.0,
          "n": 0,
          "scriptPubKey": {
            "asm": "04bd9c5ce1f69f5bf0a6f3451e59e6a84839384c2c4d809aae4a7f4c4f55788a8bdfacd23bbaf7404dc229c256e95f638ea8eba37eb00c000e35b6cd622387d86a OP_CHECKSIG",
            "desc": "pk(04bd9c5ce1f69f5bf0a6f3451e59e6a84839384c2c4d809aae4a7f4c4f55788a8bdfacd23bbaf7404dc229c256e95f638ea8eba37eb00c000e35b6cd622387d86a)#mxhfy5tr",
            "hex": "4104bd9c5ce1f69f5bf0a6f3451e59e6a84839384c2c4d809aae4a7f4c4f55788a8bdfacd23bbaf7404dc229c256e95f638ea8eba37eb00c000e35b6cd622387d86aac",
            "type": "pubkey"
          }
        }
      ],
      "hex": "01000000010000000000000000000000000000000000000000000000000000000000000000ffffffff0704ffff001d0174ffffffff0100f2052a01000000434104bd9c5ce1f69f5bf0a6f3451e59e6a84839384c2c4d809aae4a7f4c4f55788a8bdfacd23bbaf7404dc229c256e95f638ea8eba37eb00c000e35b6cd622387d86aac00000000"
    }
  ]
}