{
  "hash": "000000008ac1737e8278283841daf67b89b0c23b2bbd2337e22144597e9d17ca",
  "confirmations": 51923,
  "height": 1175,
  "version": 1,
  "versionHex": "00000001",
  "merkleroot": "dd462bc3e8ba50491f37936008689a0f0702128633bd33abee080c076cc4d979",
  "time": 1232481678,
  "mediantime": 1232476860,
  "nonce": 1375087876,
  "bits": "1d00ffff",
  "difficulty": 1,
  "chainwork": "0000000000000000000000000000000000000000000000000000049804980498",
  "nTx": 1,
  "previousblockhash": "00000000976317d31e8d80cb68f4ce62f32f5e808bc169aceeedcfc65cd4610a",
  "nextblockhash": "000000006cac1e42db9bf5d95270e2c6d6295acd34613fd90b963acb270dfbf4",
  "strippedsize": 216,
  "size": 216,
  "weight": 864,
  "tx": [
    {
      "txid": "dd462bc3e8ba50491f37936008689a0f0702128633bd33abee080c076cc4d979",
      "hash": "dd462bc3e8ba50491f37936008689a0f0702128633bd33abee080c076cc4d979",
      "version": 1,
      "size": 135,
      "vsize": 135,
      "weight": 540,
      "locktime": 0,
      "vin": [
        {
          "coinbase": "04ffff001d023008",
          "sequence": 4294967295
        }
      ],
      "vout": [
        {
          "value": 50.0,
          "n": 0,
          "scriptPubKey": {
            "asm": "04a58e206819c32aba25d37f6d391619d770dd6342b4f786b33d47582fc5290660ba70aa2bde0438776b51c151c52f2af1d4c8649e90a2f0f165e6f388a4386e67 OP_CHECKSIG",
            "desc": "pk(04a58e206819c32aba25d37f6d391619d770dd6342b4f786b33d47582fc5290660ba70aa2bde0438776b51c151c52f2af1d4c8649e90a2f0f165e6f388a4386e67)#zrlx50ac",
            "hex": "4104a58e206819c32aba25d37f6d391619d770dd6342b4f786b33d47582fc5290660ba70aa2bde0438776b51c151c52f2af1d4c8649e90a2f0f165e6f388a4386e67ac",
            "type": "pubkey"
          }
        }
      ],
      "hex": "01000000010000000000000000000000000000000000000000000000000000000000000000ffffffff0804ffff001d023008ffffffff0100f2052a01000000434104a58e206819c32aba25d37f6d391619d770dd6342b4f786b33d47582fc5290660ba70aa2bde0438776b51c151c52f2af1d4c8649e90a2f0f165e6f388a4386e67ac00000000"
    }
  ]
}