{
  "hash": "0000000015099d9ce70a3da3ab91a7c2ebeba085c0513acee6618351414f4b6a",
  "confirmations": 51187,
  "height": 1911,
  "version": 1,
  "versionHex": "00000001",
  "merkleroot": "62b256f655ca3cd96553d7118b6ee71bffcf15e2dea351cf094fbf33a9e3fc34",
  "time": 1232950013,
  "mediantime": 1232947417,
  "nonce": 2353722136,
  "bits": "1d00ffff",
  "difficulty": 1,
  "chainwork": "0000000000000000000000000000000000000000000000000000077807780778",
  "nTx": 1,
  "previousblockhash": "0000000000d4325fa7c9e97ac69cdf22a6803e925c5297d925fab14fd53e86a6",
  "nextblockhash": "0000000092bc97af40ddee0acba80b5790e4607aa8e5f541086fefb45c445f6a",
  "strippedsize": 216,
  "size": 216,
  "weight": 864,
  "tx": [
    {
      "txid": "62b256f655ca3cd96553d7118b6ee71bffcf15e2dea351cf094fbf33a9e3fc34",
      "hash": "62b256f655ca3cd96553d7118b6ee71bffcf15e2dea351cf094fbf33a9e3fc34",
      "version": 1,
      "size": 135,
      "vsize": 135,
      "weight": 540,
      "locktime": 0,
      "vin": [
        {
          "coinbase": "04ffff001d026a05",
          "sequence": 4294967295
        }
      ],
      "vout": [
        {
          "value": 50.0,
          "n": 0,
          "scriptPubKey": {
            "asm": "049a75e777e58e44155a1695d6c403319a0a4244eafe316c65813ac7ccc18474d169ec580cbc4a4f6da68515f89b00adb9f6ae368de9aaa8b22da8910251c89422 OP_CHECKSIG",
            "desc": "pk(049a75e777e58e44155a1695d6c403319a0a4244eafe316c65813ac7ccc18474d169ec580cbc4a4f6da68515f89b00adb9f6ae368de9aaa8b22da8910251c89422)#ykj53t03",
            "hex": "41049a75e777e58e44155a1695d6c403319a0a4244eafe316c65813ac7ccc18474d169ec580cbc4a4f6da68515f89b00adb9f6ae368de9aaa8b22da8910251c89422ac",
            "type": "pubkey"
          }
        }
      ],
      "hex": "01000000010000000000000000000000000000000000000000000000000000000000000000ffffffff0804ffff001d026a05ffffffff0100f2052a010000004341049a75e777e58e44155a1695d6c403319a0a4244eafe316c65813ac7ccc18474d169ec580cbc4a4f6da68515f89b00adb9f6ae368de9aaa8b22da8910251c89422ac00000000"
    }
  ]
}