{
  "hash": "00000000aab2f42ccb56bb0b294168dd1e0cac0edeaabdc05867ccaaf9cd306a",
  "confirmations": 45745,
  "height": 7353,
  "version": 1,
  "versionHex": "00000001",
  "merkleroot": "1ebf2ba5b5c7e45ad6681148fd0891db34e8912902bc5b45269bd1ce40ab3963",
  "time": 1236986151,
  "mediantime": 1236982707,
  "nonce": 346368174,
  "bits": "1d00ffff",
  "difficulty": 1,
  "chainwork": "00000000000000000000000000000000000000000000000000001cba1cba1cba",
  "nTx": 1,
  "previousblockhash": "00000000894b02b664866d8499e159ed4cbf3f03480dd53e6f4fef3350115329",
  "nextblockhash": "00000000332c9dfada6f01425a00ff28960c0278ad37dd588e2cace2099943a7",
  "strippedsize": 215,
  "size": 215,
  "weight": 860,
  "tx": [
    {
      "txid": "1ebf2ba5b5c7e45ad6681148fd0891db34e8912902bc5b45269bd1ce40ab3963",
      "hash": "1ebf2ba5b5c7e45ad6681148fd0891db34e8912902bc5b45269bd1ce40ab3963",
      "version": 1,
      "size": 134,
      "vsize": 134,
      "weight": 536,
      "locktime": 0,
      "vin": [
        {
          "coinbase": "04ffff001d0156",
          "sequence": 4294967295
        }
      ],
      "vout": [
        {
          "value": 50.0,
          "n": 0,
          "scriptPubKey": {
            "asm": "04748eda81689d24ef415731f1f8caa58bdccd0a0cae75d2ea9aaa9ef310f57cce9cb5b823e832c96ac7738dc0fc01da9be81a8d092a902e46bfb87de99209b449 OP_CHECKSIG",
            "desc": "pk(04748eda81689d24ef415731f1f8caa58bdccd0a0cae75d2ea9aaa9ef310f57cce9cb5b823e832c96ac7738dc0fc01da9be81a8d092a902e46bfb87de99209b449)#4fmrlvcv",
            "hex": "4104748eda81689d24ef415731f1f8caa58bdccd0a0cae75d2ea9aaa9ef310f57cce9cb5b823e832c96ac7738dc0fc01da9be81a8d092a902e46bfb87de99209b449ac",
            "type": "pubkey"
          }
        }
      ],
      "hex": "01000000010000000000000000000000000000000000000000000000000000000000000000ffffffff0704ffff001d0156ffffffff0100f2052a01000000434104748eda81689d24ef415731f1f8caa58bdccd0a0cae75d2ea9aaa9ef310f57cce9cb5b823e832c96ac7738dc0fc01da9be81a8d092a902e46bfb87de99209b449ac00000000"
    }
  ]
}