{
  "hash": "000000009b6afc9f6bd55c20c5e15c30fb10b630a7da6205ab63e621d794f5ad",
  "confirmations": 44691,
  "height": 8407,
  "version": 1,
  "versionHex": "00000001",
  "merkleroot": "f06627973a378b7f8a0dc1df204b559333abbd6a06bbb1da8a2a2cf40c02203a",
  "time": 1237803518,
  "mediantime": 1237800192,
  "nonce": 2796682040,
  "bits": "1d00ffff",
  "difficulty": 1,
  "chainwork": "000000000000000000000000000000000000000000000000000020d820d820d8",
  "nTx": 1,
  "previousblockhash": "000000005ae2fdc26b76e01c7428b8f9c977176c6bb75fc6b869619dafc31452",
  "nextblockhash": "0000000083122578d2348469ba5466ff6db3cb027ec56249909e36343a6c1a78",
  "strippedsize": 216,
  "size": 216,
  "weight": 864,
  "tx": [
    {
      "txid": "f06627973a378b7f8a0dc1df204b559333abbd6a06bbb1da8a2a2cf40c02203a",
      "hash": "f06627973a378b7f8a0dc1df204b559333abbd6a06bbb1da8a2a2cf40c02203a",
      "version": 1,
      "size": 135,
      "vsize": 135,
      "weight": 540,
      "locktime": 0,
      "vin": [
        {
          "coinbase": "04ffff001d022706",
          "sequence": 4294967295
        }
      ],
      "vout": [
        {
          "value": 50.0,
          "n": 0,
          "scriptPubKey": {
            "asm": "043f7c988be34a9da962725a752f54443682dc04e44553c7af9bd390f3942c1a37295ebb196b58053c3ae64d7fd3596d0f2ab09ac0dfd84170d2f8ec613612e6b9 OP_CHECKSIG",
            "desc": "pk(043f7c988be34a9da962725a752f54443682dc04e44553c7af9bd390f3942c1a37295ebb196b58053c3ae64d7fd3596d0f2ab09ac0dfd84170d2f8ec613612e6b9)#59kn2fsx",
            "hex": "41043f7c988be34a9da962725a752f54443682dc04e44553c7af9bd390f3942c1a37295ebb196b58053c3ae64d7fd3596d0f2ab09ac0dfd84170d2f8ec613612e6b9ac",
            "type": "pubkey"
          }
        }
      ],
      "hex": "01000000010000000000000000000000000000000000000000000000000000000000000000ffffffff0804ffff001d022706ffffffff0100f2052a010000004341043f7c988be34a9da962725a752f54443682dc04e44553c7af9bd390f3942c1a37295ebb196b58053c3ae64d7fd3596d0f2ab09ac0dfd84170d2f8ec613612e6b9ac00000000"
    }
  ]
}