{
  "hash": "000000005a0f22af67816e3f62c05e64a7c3a9d451e7aa1312ad896e1c2f82d5",
  "confirmations": 44203,
  "height": 8895,
  "version": 1,
  "versionHex": "00000001",
  "merkleroot": "18bd2dfe1845da6227388223632b3dbe9ad5f5a0cd7ea21f418b2ed36914f5d5",
  "time": 1238174584,
  "mediantime": 1238170461,
  "nonce": 2258072882,
  "bits": "1d00ffff",
  "difficulty": 1,
  "chainwork": "000000000000000000000000000000000000000000000000000022c022c022c0",
  "nTx": 1,
  "previousblockhash": "00000000894a0f79cbdd4d62603732823e5faeadc3d9781255a5f5ab8b667c53",
  "nextblockhash": "00000000695bfd635ef616f7784ff80b9458fc2c967008241c356c1aba796fb3",
  "strippedsize": 216,
  "size": 216,
  "weight": 864,
  "tx": [
    {
      "txid": "18bd2dfe1845da6227388223632b3dbe9ad5f5a0cd7ea21f418b2ed36914f5d5",
      "hash": "18bd2dfe1845da6227388223632b3dbe9ad5f5a0cd7ea21f418b2ed36914f5d5",
      "version": 1,
      "size": 135,
      "vsize": 135,
      "weight": 540,
      "locktime": 0,
      "vin": [
        {
          "coinbase": "04ffff001d025104",
          "sequence": 4294967295
        }
      ],
      "vout": [
        {
          "value": 50.0,
          "n": 0,
          "scriptPubKey": {
            "asm": "040e18f9a1796e2bab579c268de6f12f8dc13abd1d770b397b7694448779f07a2cfbe3cd64db01e9911b2c3cb837b01a674f2abe2fd1b76cfefb92bc82b164ade0 OP_CHECKSIG",
            "desc": "pk(040e18f9a1796e2bab579c268de6f12f8dc13abd1d770b397b7694448779f07a2cfbe3cd64db01e9911b2c3cb837b01a674f2abe2fd1b76cfefb92bc82b164ade0)#psgtpkry",
            "hex": "41040e18f9a1796e2bab579c268de6f12f8dc13abd1d770b397b7694448779f07a2cfbe3cd64db01e9911b2c3cb837b01a674f2abe2fd1b76cfefb92bc82b164ade0ac",
            "type": "pubkey"
          }
        }
      ],
      "hex": "01000000010000000000000000000000000000000000000000000000000000000000000000ffffffff0804ffff001d025104ffffffff0100f2052a010000004341040e18f9a1796e2bab579c268de6f12f8dc13abd1d770b397b7694448779f07a2cfbe3cd64db01e9911b2c3cb837b01a674f2abe2fd1b76cfefb92bc82b164ade0ac00000000"
    }
  ]
}