{
  "hash": "0000000089919eef6b1b30911aa9d30be93a778c412416922b10d0ce9190bf61",
  "confirmations": 50155,
  "height": 2943,
  "version": 1,
  "versionHex": "00000001",
  "merkleroot": "6c5b3336177506561663cbc4f7de630a34d1eecece5364630fd2d358b78709d2",
  "time": 1233719791,
  "mediantime": 1233715884,
  "nonce": 124614287,
  "bits": "1d00ffff",
  "difficulty": 1,
  "chainwork": "00000000000000000000000000000000000000000000000000000b800b800b80",
  "nTx": 1,
  "previousblockhash": "000000005c9813a94061e4cd2c831cb47bad634c8b2995b3e9ed976a43df9087",
  "nextblockhash": "00000000f59fba7065470eca7e353b376ae9682b334913c46fa933c25a7b2cfe",
  "strippedsize": 215,
  "size": 215,
  "weight": 860,
  "tx": [
    {
      "txid": "6c5b3336177506561663cbc4f7de630a34d1eecece5364630fd2d358b78709d2",
      "hash": "6c5b3336177506561663cbc4f7de630a34d1eecece5364630fd2d358b78709d2",
      "version": 1,
      "size": 134,
      "vsize": 134,
      "weight": 536,
      "locktime": 0,
      "vin": [
        {
          "coinbase": "04ffff001d0128",
          "sequence": 4294967295
        }
      ],
      "vout": [
        {
          "value": 50.0,
          "n": 0,
          "scriptPubKey": {
            "asm": "0480a0235b0cd4a3849d1af9f8cac629fa513a329b39cb20a027bc796c49c1216bafa3844ad7def06c13ba8fa829cb96b042ba9bf763c45b409ae98903f7de09cc OP_CHECKSIG",
            "desc": "pk(0480a0235b0cd4a3849d1af9f8cac629fa513a329b39cb20a027bc796c49c1216bafa3844ad7def06c13ba8fa829cb96b042ba9bf763c45b409ae98903f7de09cc)#a63t52tg",
            "hex": "410480a0235b0cd4a3849d1af9f8cac629fa513a329b39cb20a027bc796c49c1216bafa3844ad7def06c13ba8fa829cb96b042ba9bf763c45b409ae98903f7de09ccac",
            "type": "pubkey"
          }
        }
      ],
      "hex": "01000000010000000000000000000000000000000000000000000000000000000000000000ffffffff0704ffff001d0128ffffffff0100f2052a0100000043410480a0235b0cd4a3849d1af9f8cac629fa513a329b39cb20a027bc796c49c1216bafa3844ad7def06c13ba8fa829cb96b042ba9bf763c45b409ae98903f7de09ccac00000000"
    }
  ]
}