{
  "hash": "00000000fd8a1a1b278b884734831005736ec5287feb99025677d481530ee3ba",
  "confirmations": 44773,
  "height": 8325,
  "version": 1,
  "versionHex": "00000001",
  "merkleroot": "1aa1c8a2512cd1b256c0cc3487fc301f03ed87f5ce66a16429ac10c5c26de566",
  "time": 1237748530,
  "mediantime": 1237743597,
  "nonce": 366328326,
  "bits": "1d00ffff",
  "difficulty": 1,
  "chainwork": "0000000000000000000000000000000000000000000000000000208620862086",
  "nTx": 1,
  "previousblockhash": "000000008ba44b9d82ce27fd1303a589bde9e93ca4e01bea5e18a3848521fb89",
  "nextblockhash": "00000000ec49de6efe6fd20ca6a3b2e5f342f1cc9a1167919678541a6c8b4270",
  "strippedsize": 216,
  "size": 216,
  "weight": 864,
  "tx": [
    {
      "txid": "1aa1c8a2512cd1b256c0cc3487fc301f03ed87f5ce66a16429ac10c5c26de566",
      "hash": "1aa1c8a2512cd1b256c0cc3487fc301f03ed87f5ce66a16429ac10c5c26de566",
      "version": 1,
      "size": 135,
      "vsize": 135,
      "weight": 540,
      "locktime": 0,
      "vin": [
        {
          "coinbase": "04ffff001d028004",
          "sequence": 4294967295
        }
      ],
      "vout": [
        {
          "value": 50.0,
          "n": 0,
          "scriptPubKey": {
            "asm": "04924f1206125c6f3366b80279f66dfad44db317ef5f4b74b0c4d3ce18df894bcfb009a82d477e1a25dfcb6c55ce1e2123d9a9932738466bd02b34cfd2719efd31 OP_CHECKSIG",
            "desc": "pk(04924f1206125c6f3366b80279f66dfad44db317ef5f4b74b0c4d3ce18df894bcfb009a82d477e1a25dfcb6c55ce1e2123d9a9932738466bd02b34cfd2719efd31)#8ght3np4",
            "hex": "4104924f1206125c6f3366b80279f66dfad44db317ef5f4b74b0c4d3ce18df894bcfb009a82d477e1a25dfcb6c55ce1e2123d9a9932738466bd02b34cfd2719efd31ac",
            "type": "pubkey"
          }
        }
      ],
      "hex": "01000000010000000000000000000000000000000000000000000000000000000000000000ffffffff0804ffff001d028004ffffffff0100f2052a01000000434104924f1206125c6f3366b80279f66dfad44db317ef5f4b74b0c4d3ce18df894bcfb009a82d477e1a25dfcb6c55ce1e2123d9a9932738466bd02b34cfd2719efd31ac00000000"
    }
  ]
}