{
  "hash": "0000000007fd4cc3c27a36d79310031601a26ef1dabcb90ff2c046b6cff8ffbe",
  "confirmations": 46689,
  "height": 6409,
  "version": 1,
  "versionHex": "00000001",
  "merkleroot": "68f8474bd6cf0fdfcf1f17c40f44acc358844df27061c63478b0563abb02b7e8",
  "time": 1236262942,
  "mediantime": 1236258833,
  "nonce": 3576785706,
  "bits": "1d00ffff",
  "difficulty": 1,
  "chainwork": "0000000000000000000000000000000000000000000000000000190a190a190a",
  "nTx": 1,
  "previousblockhash": "000000000feda47065401b6268fc01c698705a417a70a1683d15c6706bc96fed",
  "nextblockhash": "000000009ec2ee43f67a560de84d578baca51447d83edcafb93311dc2255b1eb",
  "strippedsize": 216,
  "size": 216,
  "weight": 864,
  "tx": [
    {
      "txid": "68f8474bd6cf0fdfcf1f17c40f44acc358844df27061c63478b0563abb02b7e8",
      "hash": "68f8474bd6cf0fdfcf1f17c40f44acc358844df27061c63478b0563abb02b7e8",
      "version": 1,
      "size": 135,
      "vsize": 135,
      "weight": 540,
      "locktime": 0,
      "vin": [
        {
          "coinbase": "04ffff001d020802",
          "sequence": 4294967295
        }
      ],
      "vout": [
        {
          "value": 50.0,
          "n": 0,
          "scriptPubKey": {
            "asm": "04eba54121f9f71d927a7a42aeb8d1da6d5d90473c36cf35ca6ae9c56c8caf0290f9ae80a87fbaa62d73358a05c27c1b679452dd11ee08fb5b935d714822dc4de2 OP_CHECKSIG",
            "desc": "pk(04eba54121f9f71d927a7a42aeb8d1da6d5d90473c36cf35ca6ae9c56c8caf0290f9ae80a87fbaa62d73358a05c27c1b679452dd11ee08fb5b935d714822dc4de2)#gks6pm65",
            "hex": "4104eba54121f9f71d927a7a42aeb8d1da6d5d90473c36cf35ca6ae9c56c8caf0290f9ae80a87fbaa62d73358a05c27c1b679452dd11ee08fb5b935d714822dc4de2ac",
            "type": "pubkey"
          }
        }
      ],
      "hex": "01000000010000000000000000000000000000000000000000000000000000000000000000ffffffff0804ffff001d020802ffffffff0100f2052a01000000434104eba54121f9f71d927a7a42aeb8d1da6d5d90473c36cf35ca6ae9c56c8caf0290f9ae80a87fbaa62d73358a05c27c1b679452dd11ee08fb5b935d714822dc4de2ac00000000"
    }
  ]
}