{
  "hash": "00000000c238df4eba161fcfd081e9f2a4f7c6559a795c71c6d1b648acc127fc",
  "confirmations": 43561,
  "height": 9537,
  "version": 1,
  "versionHex": "00000001",
  "merkleroot": "a122e64bf053e83c967ebec80909e7ef2692b80d8bc9b22847506c31441c17a4",
  "time": 1238650900,
  "mediantime": 1238648146,
  "nonce": 1048534828,
  "bits": "1d00ffff",
  "difficulty": 1,
  "chainwork": "0000000000000000000000000000000000000000000000000000254225422542",
  "nTx": 1,
  "previousblockhash": "00000000178d30dd222f5810676c3c16eb8a676a03c20aa11a7911bcff10e538",
  "nextblockhash": "00000000fbbffc7331fb0ed43747916f69a0713e2cdd270ee8894f89ce6c4aa0",
  "strippedsize": 216,
  "size": 216,
  "weight": 864,
  "tx": [
    {
      "txid": "a122e64bf053e83c967ebec80909e7ef2692b80d8bc9b22847506c31441c17a4",
      "hash": "a122e64bf053e83c967ebec80909e7ef2692b80d8bc9b22847506c31441c17a4",
      "version": 1,
      "size": 135,
      "vsize": 135,
      "weight": 540,
      "locktime": 0,
      "vin": [
        {
          "coinbase": "04ffff001d02de05",
          "sequence": 4294967295
        }
      ],
      "vout": [
        {
          "value": 50.0,
          "n": 0,
          "scriptPubKey": {
            "asm": "0495eebf93dd4fa97a095dca3841722cf24fe924335f631db74989e7def8d181160259a87fa9ea8b3c636e8502756a0f033c3899dff7daeb0d2d0862fb9a87e66c OP_CHECKSIG",
            "desc": "pk(0495eebf93dd4fa97a095dca3841722cf24fe924335f631db74989e7def8d181160259a87fa9ea8b3c636e8502756a0f033c3899dff7daeb0d2d0862fb9a87e66c)#pqad50ul",
            "hex": "410495eebf93dd4fa97a095dca3841722cf24fe924335f631db74989e7def8d181160259a87fa9ea8b3c636e8502756a0f033c3899dff7daeb0d2d0862fb9a87e66cac",
            "type": "pubkey"
          }
        }
      ],
      "hex": "01000000010000000000000000000000000000000000000000000000000000000000000000ffffffff0804ffff001d02de05ffffffff0100f2052a0100000043410495eebf93dd4fa97a095dca3841722cf24fe924335f631db74989e7def8d181160259a87fa9ea8b3c636e8502756a0f033c3899dff7daeb0d2d0862fb9a87e66cac00000000"
    }
  ]
}