{
  "hash": "00000000875b49bf7241597cc91fce9cef41d74252f28d89caca66e6cb91c99c",
  "confirmations": 45997,
  "height": 7101,
  "version": 1,
  "versionHex": "00000001",
  "merkleroot": "0d8dde6c0f3f4b39c76a6cb5cca0375c55c648f79a15dc4ce20fe25cd810f1cc",
  "time": 1236797847,
  "mediantime": 1236796183,
  "nonce": 33963841,
  "bits": "1d00ffff",
  "difficulty": 1,
  "chainwork": "00000000000000000000000000000000000000000000000000001bbe1bbe1bbe",
  "nTx": 1,
  "previousblockhash": "000000006171874a43a089008ad4dd754d2b9fe0d2340aadf5d2f6602453379f",
  "nextblockhash": "0000000080f303a86f15bbccd3c4707f87d3d6d5e01e1dd3e170680cc648d66a",
  "strippedsize": 216,
  "size": 216,
  "weight": 864,
  "tx": [
    {
      "txid": "0d8dde6c0f3f4b39c76a6cb5cca0375c55c648f79a15dc4ce20fe25cd810f1cc",
      "hash": "0d8dde6c0f3f4b39c76a6cb5cca0375c55c648f79a15dc4ce20fe25cd810f1cc",
      "version": 1,
      "size": 135,
      "vsize": 135,
      "weight": 540,
      "locktime": 0,
      "vin": [
        {
          "coinbase": "04ffff001d02840d",
          "sequence": 4294967295
        }
      ],
      "vout": [
        {
          "value": 50.0,
          "n": 0,
          "scriptPubKey": {
            "asm": "04ab36f5c85456ef4f4689ae9f248c261baacdd264f0f1dca522ecd5b1c5c6547ce55c5f54333f0ab5138aa7781a8e4da2a29777676f31021262b79598bfdd2d4f OP_CHECKSIG",
            "desc": "pk(04ab36f5c85456ef4f4689ae9f248c261baacdd264f0f1dca522ecd5b1c5c6547ce55c5f54333f0ab5138aa7781a8e4da2a29777676f31021262b79598bfdd2d4f)#qvf7zmx7",
            "hex": "4104ab36f5c85456ef4f4689ae9f248c261baacdd264f0f1dca522ecd5b1c5c6547ce55c5f54333f0ab5138aa7781a8e4da2a29777676f31021262b79598bfdd2d4fac",
            "type": "pubkey"
          }
        }
      ],
      "hex": "01000000010000000000000000000000000000000000000000000000000000000000000000ffffffff0804ffff001d02840dffffffff0100f2052a01000000434104ab36f5c85456ef4f4689ae9f248c261baacdd264f0f1dca522ecd5b1c5c6547ce55c5f54333f0ab5138aa7781a8e4da2a29777676f31021262b79598bfdd2d4fac00000000"
    }
  ]
}