{
  "hash": "00000000460acaf3de600a7a70cd266ca615190130b336bcf2804d9d5546d527",
  "confirmations": 45571,
  "height": 7527,
  "version": 1,
  "versionHex": "00000001",
  "merkleroot": "7792cada2f9fc2bb004b155cdf87315af0fc107c90521205dae5672a8bb259ca",
  "time": 1237117996,
  "mediantime": 1237113739,
  "nonce": 2061327670,
  "bits": "1d00ffff",
  "difficulty": 1,
  "chainwork": "00000000000000000000000000000000000000000000000000001d681d681d68",
  "nTx": 1,
  "previousblockhash": "00000000605490ec02f48eb57c0e68403d75f2b16f0a49a2e1fa9f530d19171e",
  "nextblockhash": "000000004b0e157aa87eac0c56f74f81267a5864eaae05064c0a0bb1e9e5329d",
  "strippedsize": 216,
  "size": 216,
  "weight": 864,
  "tx": [
    {
      "txid": "7792cada2f9fc2bb004b155cdf87315af0fc107c90521205dae5672a8bb259ca",
      "hash": "7792cada2f9fc2bb004b155cdf87315af0fc107c90521205dae5672a8bb259ca",
      "version": 1,
      "size": 135,
      "vsize": 135,
      "weight": 540,
      "locktime": 0,
      "vin": [
        {
          "coinbase": "04ffff001d027401",
          "sequence": 4294967295
        }
      ],
      "vout": [
        {
          "value": 50.0,
          "n": 0,
          "scriptPubKey": {
            "asm": "04f2fa690f03d2fe29410a0e62c0dae3cd27cd096f91ce1c8d96a72c3a01d6cbb04cdb35124c5ea95dbb22ce7096910b19fdaae6e4225c6e851fb3a77584c8d6d6 OP_CHECKSIG",
            "desc": "pk(04f2fa690f03d2fe29410a0e62c0dae3cd27cd096f91ce1c8d96a72c3a01d6cbb04cdb35124c5ea95dbb22ce7096910b19fdaae6e4225c6e851fb3a77584c8d6d6)#7dk7z0w7",
            "hex": "4104f2fa690f03d2fe29410a0e62c0dae3cd27cd096f91ce1c8d96a72c3a01d6cbb04cdb35124c5ea95dbb22ce7096910b19fdaae6e4225c6e851fb3a77584c8d6d6ac",
            "type": "pubkey"
          }
        }
      ],
      "hex": "01000000010000000000000000000000000000000000000000000000000000000000000000ffffffff0804ffff001d027401ffffffff0100f2052a01000000434104f2fa690f03d2fe29410a0e62c0dae3cd27cd096f91ce1c8d96a72c3a01d6cbb04cdb35124c5ea95dbb22ce7096910b19fdaae6e4225c6e851fb3a77584c8d6d6ac00000000"
    }
  ]
}