{
  "hash": "0000000056720bcfadf3ae8342a8b37ffecdd46bc6cb9df631bbf68f899053a7",
  "confirmations": 51842,
  "height": 1256,
  "version": 1,
  "versionHex": "00000001",
  "merkleroot": "36715026b5489d51260ec5320a2ac0eb3160fc6603ef110f6bf7d9382e2c88f5",
  "time": 1232542744,
  "mediantime": 1232539161,
  "nonce": 692251413,
  "bits": "1d00ffff",
  "difficulty": 1,
  "chainwork": "000000000000000000000000000000000000000000000000000004e904e904e9",
  "nTx": 1,
  "previousblockhash": "00000000f443b5bd000c5b0683c9aaaf104cb7d8e4cdff2f7e5a1b99c4e0a68a",
  "nextblockhash": "00000000fa3313cddbe69ca006855cd38b0118b35a984b42dd2a1a226dd609a9",
  "strippedsize": 216,
  "size": 216,
  "weight": 864,
  "tx": [
    {
      "txid": "36715026b5489d51260ec5320a2ac0eb3160fc6603ef110f6bf7d9382e2c88f5",
      "hash": "36715026b5489d51260ec5320a2ac0eb3160fc6603ef110f6bf7d9382e2c88f5",
      "version": 1,
      "size": 135,
      "vsize": 135,
      "weight": 540,
      "locktime": 0,
      "vin": [
        {
          "coinbase": "04ffff001d027e09",
          "sequence": 4294967295
        }
      ],
      "vout": [
        {
          "value": 50.0,
          "n": 0,
          "scriptPubKey": {
            "asm": "04679e1d13b8c8760f1839b289bbd85b998a63d9ad07e5c28b4b57d65b95375a848bf3fbccd3eef03a919558c9e3ff5d0f983be37fb3efe91542737bd4884f055e OP_CHECKSIG",
            "desc": "pk(04679e1d13b8c8760f1839b289bbd85b998a63d9ad07e5c28b4b57d65b95375a848bf3fbccd3eef03a919558c9e3ff5d0f983be37fb3efe91542737bd4884f055e)#5xumd6vg",
            "hex": "4104679e1d13b8c8760f1839b289bbd85b998a63d9ad07e5c28b4b57d65b95375a848bf3fbccd3eef03a919558c9e3ff5d0f983be37fb3efe91542737bd4884f055eac",
            "type": "pubkey"
          }
        }
      ],
      "hex": "01000000010000000000000000000000000000000000000000000000000000000000000000ffffffff0804ffff001d027e09ffffffff0100f2052a01000000434104679e1d13b8c8760f1839b289bbd85b998a63d9ad07e5c28b4b57d65b95375a848bf3fbccd3eef03a919558c9e3ff5d0f983be37fb3efe91542737bd4884f055eac00000000"
    }
  ]
}