{
  "hash": "000000005c6574a59fc3992c3609187a06df3e5bcdb065c054e73f35d0f29ab0",
  "confirmations": 51690,
  "height": 1408,
  "version": 1,
  "versionHex": "00000001",
  "merkleroot": "915fa436e7ac5657cbf34bad743331475c7c94a91923f99887a5f83cdd5a01d7",
  "time": 1232729089,
  "mediantime": 1232727181,
  "nonce": 75015469,
  "bits": "1d00ffff",
  "difficulty": 1,
  "chainwork": "0000000000000000000000000000000000000000000000000000058105810581",
  "nTx": 1,
  "previousblockhash": "000000002f62790a7d68267a5175c6a6a32a34e13c3b8491002e40f95bd03539",
  "nextblockhash": "000000004b646c22b96e0d89407d0d470d37ac3db6fa6efc82ee224063bf57cf",
  "strippedsize": 215,
  "size": 215,
  "weight": 860,
  "tx": [
    {
      "txid": "915fa436e7ac5657cbf34bad743331475c7c94a91923f99887a5f83cdd5a01d7",
      "hash": "915fa436e7ac5657cbf34bad743331475c7c94a91923f99887a5f83cdd5a01d7",
      "version": 1,
      "size": 134,
      "vsize": 134,
      "weight": 536,
      "locktime": 0,
      "vin": [
        {
          "coinbase": "04ffff001d0119",
          "sequence": 4294967295
        }
      ],
      "vout": [
        {
          "value": 50.0,
          "n": 0,
          "scriptPubKey": {
            "asm": "04f0ca50ad07c39de4f499dc5ee2cdbe9cc710c79f95e8853fa795d21408b54365485484f5ca3ef88d2aed23189b9452fce5d139723871e3d7a6e8e066f8f28442 OP_CHECKSIG",
            "desc": "pk(04f0ca50ad07c39de4f499dc5ee2cdbe9cc710c79f95e8853fa795d21408b54365485484f5ca3ef88d2aed23189b9452fce5d139723871e3d7a6e8e066f8f28442)#v55s79m5",
            "hex": "4104f0ca50ad07c39de4f499dc5ee2cdbe9cc710c79f95e8853fa795d21408b54365485484f5ca3ef88d2aed23189b9452fce5d139723871e3d7a6e8e066f8f28442ac",
            "type": "pubkey"
          }
        }
      ],
      "hex": "01000000010000000000000000000000000000000000000000000000000000000000000000ffffffff0704ffff001d0119ffffffff0100f2052a01000000434104f0ca50ad07c39de4f499dc5ee2cdbe9cc710c79f95e8853fa795d21408b54365485484f5ca3ef88d2aed23189b9452fce5d139723871e3d7a6e8e066f8f28442ac00000000"
    }
  ]
}