{
  "hash": "00000000b47e11bcd166f6da173d0af55ba9164f5d9020fd98278830319793d7",
  "confirmations": 51169,
  "height": 1929,
  "version": 1,
  "versionHex": "00000001",
  "merkleroot": "cab2a01292e9a219e57c0e926c9d6d19b78607a2e7e05d6b5beea538abbf6b9e",
  "time": 1232990915,
  "mediantime": 1232985359,
  "nonce": 57564862,
  "bits": "1d00ffff",
  "difficulty": 1,
  "chainwork": "0000000000000000000000000000000000000000000000000000078a078a078a",
  "nTx": 1,
  "previousblockhash": "00000000f90b3671749bd2e1dfe405310731d554edd01603d6d2cc143a25054e",
  "nextblockhash": "000000007b7657a7d2ad592b5103ca326d9eccb9fb4a4fa838522d80fec99b68",
  "strippedsize": 216,
  "size": 216,
  "weight": 864,
  "tx": [
    {
      "txid": "cab2a01292e9a219e57c0e926c9d6d19b78607a2e7e05d6b5beea538abbf6b9e",
      "hash": "cab2a01292e9a219e57c0e926c9d6d19b78607a2e7e05d6b5beea538abbf6b9e",
      "version": 1,
      "size": 135,
      "vsize": 135,
      "weight": 540,
      "locktime": 0,
      "vin": [
        {
          "coinbase": "04ffff001d02a200",
          "sequence": 4294967295
        }
      ],
      "vout": [
        {
          "value": 50.0,
          "n": 0,
          "scriptPubKey": {
            "asm": "04ccc4f2a52c985624e4df27c208f378f0f96d4c179668ce27b207843785c77f1e3f7c4559777168ed7eedd174a3b3dbc870901a11b01c1196012930c0a167b758 OP_CHECKSIG",
            "desc": "pk(04ccc4f2a52c985624e4df27c208f378f0f96d4c179668ce27b207843785c77f1e3f7c4559777168ed7eedd174a3b3dbc870901a11b01c1196012930c0a167b758)#j7n2r6q5",
            "hex": "4104ccc4f2a52c985624e4df27c208f378f0f96d4c179668ce27b207843785c77f1e3f7c4559777168ed7eedd174a3b3dbc870901a11b01c1196012930c0a167b758ac",
            "type": "pubkey"
          }
        }
      ],
      "hex": "01000000010000000000000000000000000000000000000000000000000000000000000000ffffffff0804ffff001d02a200ffffffff0100f2052a01000000434104ccc4f2a52c985624e4df27c208f378f0f96d4c179668ce27b207843785c77f1e3f7c4559777168ed7eedd174a3b3dbc870901a11b01c1196012930c0a167b758ac00000000"
    }
  ]
}