{
  "hash": "00000000b5ef0ea215becad97402ce59d1416fe554261405cda943afd2a8c8f2",
  "confirmations": 52046,
  "height": 180,
  "version": 1,
  "versionHex": "00000001",
  "merkleroot": "bd8cfe1837c88caa4ca37df77380d5b0af9692ed92ddbc247cd2aef388691d4f",
  "time": 1231739452,
  "mediantime": 1231733876,
  "nonce": 800571155,
  "bits": "1d00ffff",
  "difficulty": 1,
  "chainwork": "000000000000000000000000000000000000000000000000000000b500b500b5",
  "nTx": 1,
  "previousblockhash": "00000000c0ab5a6b27502869414c5b004fbca3ba8f291d2c8b2d8dbd6225e170",
  "nextblockhash": "00000000dc55860c8a29c58d45209318fa9e9dc2c1833a7226d86bc465afc6e5",
  "strippedsize": 215,
  "size": 215,
  "weight": 860,
  "tx": [
    {
      "txid": "bd8cfe1837c88caa4ca37df77380d5b0af9692ed92ddbc247cd2aef388691d4f",
      "hash": "bd8cfe1837c88caa4ca37df77380d5b0af9692ed92ddbc247cd2aef388691d4f",
      "version": 1,
      "size": 134,
      "vsize": 134,
      "weight": 536,
      "locktime": 0,
      "vin": [
        {
          "coinbase": "04ffff001d011f",
          "sequence": 4294967295
        }
      ],
      "vout": [
        {
          "value": 50.0,
          "n": 0,
          "scriptPubKey": {
            "asm": "04547bd2940927dfa17ecf168496be4a9ad452784750addf355c0d9a43f12b98404376c7b062d2eb739d481da106f96a44b877bbb8203e204c9798c22db6eca7c0 OP_CHECKSIG",
            "desc": "pk(04547bd2940927dfa17ecf168496be4a9ad452784750addf355c0d9a43f12b98404376c7b062d2eb739d481da106f96a44b877bbb8203e204c9798c22db6eca7c0)#ahzm4vha",
            "hex": "4104547bd2940927dfa17ecf168496be4a9ad452784750addf355c0d9a43f12b98404376c7b062d2eb739d481da106f96a44b877bbb8203e204c9798c22db6eca7c0ac",
            "type": "pubkey"
          }
        }
      ],
      "hex": "01000000010000000000000000000000000000000000000000000000000000000000000000ffffffff0704ffff001d011fffffffff0100f2052a01000000434104547bd2940927dfa17ecf168496be4a9ad452784750addf355c0d9a43f12b98404376c7b062d2eb739d481da106f96a44b877bbb8203e204c9798c22db6eca7c0ac00000000"
    }
  ]
}