{
  "hash": "00000000bedec7389b93b09aae014400a334b654a6aa2baf142237e72d7c0a47",
  "confirmations": 50137,
  "height": 2961,
  "version": 1,
  "versionHex": "00000001",
  "merkleroot": "5a33c9fbafa1e247e77c56ea3c6844d86501f508ea480715e5d35fc72925f5bc",
  "time": 1233734037,
  "mediantime": 1233730047,
  "nonce": 1418832939,
  "bits": "1d00ffff",
  "difficulty": 1,
  "chainwork": "00000000000000000000000000000000000000000000000000000b920b920b92",
  "nTx": 1,
  "previousblockhash": "000000000fc4f99503403c52453159c7c6ac9c4a96b115490dada1e57e587de1",
  "nextblockhash": "00000000db3c531d6c5ae220af33503eec76741b105ff219801918f793f088d0",
  "strippedsize": 216,
  "size": 216,
  "weight": 864,
  "tx": [
    {
      "txid": "5a33c9fbafa1e247e77c56ea3c6844d86501f508ea480715e5d35fc72925f5bc",
      "hash": "5a33c9fbafa1e247e77c56ea3c6844d86501f508ea480715e5d35fc72925f5bc",
      "version": 1,
      "size": 135,
      "vsize": 135,
      "weight": 540,
      "locktime": 0,
      "vin": [
        {
          "coinbase": "04ffff001d02c600",
          "sequence": 4294967295
        }
      ],
      "vout": [
        {
          "value": 50.0,
          "n": 0,
          "scriptPubKey": {
            "asm": "04f876d39a0842b3694d1a8d400862e88d30fb7a567fb937489c602cceeb0957d16afda7a2c8520547a76e2350273621f3fe762a1407e463cb68b9b348d439bc36 OP_CHECKSIG",
            "desc": "pk(04f876d39a0842b3694d1a8d400862e88d30fb7a567fb937489c602cceeb0957d16afda7a2c8520547a76e2350273621f3fe762a1407e463cb68b9b348d439bc36)#jheunn2f",
            "hex": "4104f876d39a0842b3694d1a8d400862e88d30fb7a567fb937489c602cceeb0957d16afda7a2c8520547a76e2350273621f3fe762a1407e463cb68b9b348d439bc36ac",
            "type": "pubkey"
          }
        }
      ],
      "hex": "01000000010000000000000000000000000000000000000000000000000000000000000000ffffffff0804ffff001d02c600ffffffff0100f2052a01000000434104f876d39a0842b3694d1a8d400862e88d30fb7a567fb937489c602cceeb0957d16afda7a2c8520547a76e2350273621f3fe762a1407e463cb68b9b348d439bc36ac00000000"
    }
  ]
}