{
  "hash": "00000000f0f505ccd8ee85fd63ece452379e4218cd743390e389a40ce1d0fe01",
  "confirmations": 50264,
  "height": 2834,
  "version": 1,
  "versionHex": "00000001",
  "merkleroot": "7e54ca698056151b162c130956d12363e1432363679f52fa7726c91759ec2851",
  "time": 1233647223,
  "mediantime": 1233644396,
  "nonce": 1886619177,
  "bits": "1d00ffff",
  "difficulty": 1,
  "chainwork": "00000000000000000000000000000000000000000000000000000b130b130b13",
  "nTx": 1,
  "previousblockhash": "000000002bb7ee07bcad4a2b614bd0af837f6ed4a5c52dc95ae50ca6431c162f",
  "nextblockhash": "00000000c0251a421946cdda9db14def325eab6e8bf95cdea5e9b859f9ef8698",
  "strippedsize": 216,
  "size": 216,
  "weight": 864,
  "tx": [
    {
      "txid": "7e54ca698056151b162c130956d12363e1432363679f52fa7726c91759ec2851",
      "hash": "7e54ca698056151b162c130956d12363e1432363679f52fa7726c91759ec2851",
      "version": 1,
      "size": 135,
      "vsize": 135,
      "weight": 540,
      "locktime": 0,
      "vin": [
        {
          "coinbase": "04ffff001d029b06",
          "sequence": 4294967295
        }
      ],
      "vout": [
        {
          "value": 50.0,
          "n": 0,
          "scriptPubKey": {
            "asm": "042f1ac5c64c6ad011b3d74bfebfd9a489964151d51ff3b9c655d75fc8c245074044b6726672ad758e44941137d08b2943f9fbe292a58c75011288ef2ffe0ed1e7 OP_CHECKSIG",
            "desc": "pk(042f1ac5c64c6ad011b3d74bfebfd9a489964151d51ff3b9c655d75fc8c245074044b6726672ad758e44941137d08b2943f9fbe292a58c75011288ef2ffe0ed1e7)#j6fhrtqc",
            "hex": "41042f1ac5c64c6ad011b3d74bfebfd9a489964151d51ff3b9c655d75fc8c245074044b6726672ad758e44941137d08b2943f9fbe292a58c75011288ef2ffe0ed1e7ac",
            "type": "pubkey"
          }
        }
      ],
      "hex": "01000000010000000000000000000000000000000000000000000000000000000000000000ffffffff0804ffff001d029b06ffffffff0100f2052a010000004341042f1ac5c64c6ad011b3d74bfebfd9a489964151d51ff3b9c655d75fc8c245074044b6726672ad758e44941137d08b2943f9fbe292a58c75011288ef2ffe0ed1e7ac00000000"
    }
  ]
}