{
  "hash": "00000000f1f19eac3857fd75b9bed99b47aeccaec201b4f803a824f9f584c0c4",
  "confirmations": 44017,
  "height": 9081,
  "version": 1,
  "versionHex": "00000001",
  "merkleroot": "d8c4e5d19525bea8933ecf9ffb81e7fb40f8d4435e1db97ed974b81673f15afd",
  "time": 1238317883,
  "mediantime": 1238315215,
  "nonce": 3674819878,
  "bits": "1d00ffff",
  "difficulty": 1,
  "chainwork": "0000000000000000000000000000000000000000000000000000237a237a237a",
  "nTx": 1,
  "previousblockhash": "00000000b1ef17a762edc1afbec6a238fa8113a0d9260a6d9deb256ca62a53eb",
  "nextblockhash": "00000000bef4d56b0aa2f17693b179e9b58ebc9983a48ead382ac4d1651a03a0",
  "strippedsize": 216,
  "size": 216,
  "weight": 864,
  "tx": [
    {
      "txid": "d8c4e5d19525bea8933ecf9ffb81e7fb40f8d4435e1db97ed974b81673f15afd",
      "hash": "d8c4e5d19525bea8933ecf9ffb81e7fb40f8d4435e1db97ed974b81673f15afd",
      "version": 1,
      "size": 135,
      "vsize": 135,
      "weight": 540,
      "locktime": 0,
      "vin": [
        {
          "coinbase": "04ffff001d020208",
          "sequence": 4294967295
        }
      ],
      "vout": [
        {
          "value": 50.0,
          "n": 0,
          "scriptPubKey": {
            "asm": "045907f019b179aa3206adc53d6bf3f43d33f1ed5d0ee72c1c504f7879b48bb46f93d8cf43b231d5f097c3f54fcfba30714d7221846df6bd0927f92dc7cae0eca0 OP_CHECKSIG",
            "desc": "pk(045907f019b179aa3206adc53d6bf3f43d33f1ed5d0ee72c1c504f7879b48bb46f93d8cf43b231d5f097c3f54fcfba30714d7221846df6bd0927f92dc7cae0eca0)#0epu9nk4",
            "hex": "41045907f019b179aa3206adc53d6bf3f43d33f1ed5d0ee72c1c504f7879b48bb46f93d8cf43b231d5f097c3f54fcfba30714d7221846df6bd0927f92dc7cae0eca0ac",
            "type": "pubkey"
          }
        }
      ],
      "hex": "01000000010000000000000000000000000000000000000000000000000000000000000000ffffffff0804ffff001d020208ffffffff0100f2052a010000004341045907f019b179aa3206adc53d6bf3f43d33f1ed5d0ee72c1c504f7879b48bb46f93d8cf43b231d5f097c3f54fcfba30714d7221846df6bd0927f92dc7cae0eca0ac00000000"
    }
  ]
}