{
  "hash": "00000000350193a2ce1f3758e0369f02b54d41cb077525f6cb155dcd13cdb9db",
  "confirmations": 50480,
  "height": 2618,
  "version": 1,
  "versionHex": "00000001",
  "merkleroot": "a7db89b5988fd744213c2a56c3f78ae6647e6d8a569c75e7a9504b462aab7d86",
  "time": 1233506200,
  "mediantime": 1233502760,
  "nonce": 14106999,
  "bits": "1d00ffff",
  "difficulty": 1,
  "chainwork": "00000000000000000000000000000000000000000000000000000a3b0a3b0a3b",
  "nTx": 1,
  "previousblockhash": "000000001c9ba344b80400237fef2bdbeec76b23c6fdebe8e0ca0cda55077cb1",
  "nextblockhash": "00000000eb3e381ed39e7eeea17eb4a347719958ed9b392ce0405198d7fb949b",
  "strippedsize": 215,
  "size": 215,
  "weight": 860,
  "tx": [
    {
      "txid": "a7db89b5988fd744213c2a56c3f78ae6647e6d8a569c75e7a9504b462aab7d86",
      "hash": "a7db89b5988fd744213c2a56c3f78ae6647e6d8a569c75e7a9504b462aab7d86",
      "version": 1,
      "size": 134,
      "vsize": 134,
      "weight": 536,
      "locktime": 0,
      "vin": [
        {
          "coinbase": "04ffff001d0114",
          "sequence": 4294967295
        }
      ],
      "vout": [
        {
          "value": 50.0,
          "n": 0,
          "scriptPubKey": {
            "asm": "04ad9d11af6c9fca5b5abd0402b84389eacb45b2658c6533e514032bb3a7df01c86522aede5f0714e83a5c9bedf7c0872e5892a28a0518cdeff35e28c50ff82b60 OP_CHECKSIG",
            "desc": "pk(04ad9d11af6c9fca5b5abd0402b84389eacb45b2658c6533e514032bb3a7df01c86522aede5f0714e83a5c9bedf7c0872e5892a28a0518cdeff35e28c50ff82b60)#sfakyky2",
            "hex": "4104ad9d11af6c9fca5b5abd0402b84389eacb45b2658c6533e514032bb3a7df01c86522aede5f0714e83a5c9bedf7c0872e5892a28a0518cdeff35e28c50ff82b60ac",
            "type": "pubkey"
          }
        }
      ],
      "hex": "01000000010000000000000000000000000000000000000000000000000000000000000000ffffffff0704ffff001d0114ffffffff0100f2052a01000000434104ad9d11af6c9fca5b5abd0402b84389eacb45b2658c6533e514032bb3a7df01c86522aede5f0714e83a5c9bedf7c0872e5892a28a0518cdeff35e28c50ff82b60ac00000000"
    }
  ]
}