{
  "hash": "00000000a88719e11a80c259ccb094d96baed3c97bce37a9520831884a1b1db7",
  "confirmations": 43775,
  "height": 9323,
  "version": 1,
  "versionHex": "00000001",
  "merkleroot": "746786d7de5311cc051a4fd68be87e7e69c20c7875642774833d92c54e6f750f",
  "time": 1238490881,
  "mediantime": 1238487447,
  "nonce": 3805885751,
  "bits": "1d00ffff",
  "difficulty": 1,
  "chainwork": "0000000000000000000000000000000000000000000000000000246c246c246c",
  "nTx": 1,
  "previousblockhash": "000000001b1f52515b653e6ea7a852604291031240bf64ea1c61e45f46f6d837",
  "nextblockhash": "00000000174707e83cc0d60c0878037d536f67678e5d545995665de6403ccd92",
  "strippedsize": 216,
  "size": 216,
  "weight": 864,
  "tx": [
    {
      "txid": "746786d7de5311cc051a4fd68be87e7e69c20c7875642774833d92c54e6f750f",
      "hash": "746786d7de5311cc051a4fd68be87e7e69c20c7875642774833d92c54e6f750f",
      "version": 1,
      "size": 135,
      "vsize": 135,
      "weight": 540,
      "locktime": 0,
      "vin": [
        {
          "coinbase": "04ffff001d023002",
          "sequence": 4294967295
        }
      ],
      "vout": [
        {
          "value": 50.0,
          "n": 0,
          "scriptPubKey": {
            "asm": "04c2222065853931f16924fca32e4b0e6938712e83f131b81510a359ccadff188e6d940a102d3b30abc80d89d78ef7c2d4f1e78b6933c126644539bd488abb1fe3 OP_CHECKSIG",
            "desc": "pk(04c2222065853931f16924fca32e4b0e6938712e83f131b81510a359ccadff188e6d940a102d3b30abc80d89d78ef7c2d4f1e78b6933c126644539bd488abb1fe3)#3hdtp63p",
            "hex": "4104c2222065853931f16924fca32e4b0e6938712e83f131b81510a359ccadff188e6d940a102d3b30abc80d89d78ef7c2d4f1e78b6933c126644539bd488abb1fe3ac",
            "type": "pubkey"
          }
        }
      ],
      "hex": "01000000010000000000000000000000000000000000000000000000000000000000000000ffffffff0804ffff001d023002ffffffff0100f2052a01000000434104c2222065853931f16924fca32e4b0e6938712e83f131b81510a359ccadff188e6d940a102d3b30abc80d89d78ef7c2d4f1e78b6933c126644539bd488abb1fe3ac00000000"
    }
  ]
}