{
  "hash": "00000000b5b71fea3e2abdf62fdc6b1273f48927f2a9ed5493e280792a50ad65",
  "confirmations": 52538,
  "height": 560,
  "version": 1,
  "versionHex": "00000001",
  "merkleroot": "932dc26717cf4f80d68dae031851836d53a600e1d2f12bf1e4f43ce272d3ef81",
  "time": 1232010874,
  "mediantime": 1232007119,
  "nonce": 3760901936,
  "bits": "1d00ffff",
  "difficulty": 1,
  "chainwork": "0000000000000000000000000000000000000000000000000000023102310231",
  "nTx": 1,
  "previousblockhash": "00000000b113322da717207d93b13024bc75f09c1c12e7b40497664583b6d4df",
  "nextblockhash": "0000000058b9d64ce6728168716bcd837c2b628cf5f26d2aa28cfce8543d2bd6",
  "strippedsize": 216,
  "size": 216,
  "weight": 864,
  "tx": [
    {
      "txid": "932dc26717cf4f80d68dae031851836d53a600e1d2f12bf1e4f43ce272d3ef81",
      "hash": "932dc26717cf4f80d68dae031851836d53a600e1d2f12bf1e4f43ce272d3ef81",
      "version": 1,
      "size": 135,
      "vsize": 135,
      "weight": 540,
      "locktime": 0,
      "vin": [
        {
          "coinbase": "04ffff001d02e805",
          "sequence": 4294967295
        }
      ],
      "vout": [
        {
          "value": 50.0,
          "n": 0,
          "scriptPubKey": {
            "asm": "04d620cf19a66f15d47376fc0451a765bf99252e37d368c6e394d0a1ab7d3c899ffb1755af4adb4ee984e7854f14799843f1690b26024152dedcfde54c318820b8 OP_CHECKSIG",
            "desc": "pk(04d620cf19a66f15d47376fc0451a765bf99252e37d368c6e394d0a1ab7d3c899ffb1755af4adb4ee984e7854f14799843f1690b26024152dedcfde54c318820b8)#60dguym0",
            "hex": "4104d620cf19a66f15d47376fc0451a765bf99252e37d368c6e394d0a1ab7d3c899ffb1755af4adb4ee984e7854f14799843f1690b26024152dedcfde54c318820b8ac",
            "type": "pubkey"
          }
        }
      ],
      "hex": "01000000010000000000000000000000000000000000000000000000000000000000000000ffffffff0804ffff001d02e805ffffffff0100f2052a01000000434104d620cf19a66f15d47376fc0451a765bf99252e37d368c6e394d0a1ab7d3c899ffb1755af4adb4ee984e7854f14799843f1690b26024152dedcfde54c318820b8ac00000000"
    }
  ]
}