{
  "hash": "0000000007df4a6e603db155f76ea469131b1ba6c8e1aed5179ef5c29108c92a",
  "confirmations": 50802,
  "height": 2296,
  "version": 1,
  "versionHex": "00000001",
  "merkleroot": "f968111cc6f02741811aab615b1782ee36c3822ba5c40d4260a5ab3cd4a1ae58",
  "time": 1233277280,
  "mediantime": 1233274670,
  "nonce": 1541389,
  "bits": "1d00ffff",
  "difficulty": 1,
  "chainwork": "000000000000000000000000000000000000000000000000000008f908f908f9",
  "nTx": 1,
  "previousblockhash": "000000000173afcf79614b471d2956e6f6419ea33c6adf8201d7638a2c00ec1f",
  "nextblockhash": "00000000461d0e76325c7870b4b0f72ae0b8778c421d0d660860c9cdc88d44ac",
  "strippedsize": 215,
  "size": 215,
  "weight": 860,
  "tx": [
    {
      "txid": "f968111cc6f02741811aab615b1782ee36c3822ba5c40d4260a5ab3cd4a1ae58",
      "hash": "f968111cc6f02741811aab615b1782ee36c3822ba5c40d4260a5ab3cd4a1ae58",
      "version": 1,
      "size": 134,
      "vsize": 134,
      "weight": 536,
      "locktime": 0,
      "vin": [
        {
          "coinbase": "04ffff001d011d",
          "sequence": 4294967295
        }
      ],
      "vout": [
        {
          "value": 50.0,
          "n": 0,
          "scriptPubKey": {
            "asm": "040fc4674c71dfd5701f00baecb2ed65694d2dbd438f53fda3c4b70c84ffe354c3451f73cf7df139cba5ba5e33fbda5defd2eaff3fc4cef07fc194d1d6ab86f3f6 OP_CHECKSIG",
            "desc": "pk(040fc4674c71dfd5701f00baecb2ed65694d2dbd438f53fda3c4b70c84ffe354c3451f73cf7df139cba5ba5e33fbda5defd2eaff3fc4cef07fc194d1d6ab86f3f6)#pq70wdkg",
            "hex": "41040fc4674c71dfd5701f00baecb2ed65694d2dbd438f53fda3c4b70c84ffe354c3451f73cf7df139cba5ba5e33fbda5defd2eaff3fc4cef07fc194d1d6ab86f3f6ac",
            "type": "pubkey"
          }
        }
      ],
      "hex": "01000000010000000000000000000000000000000000000000000000000000000000000000ffffffff0704ffff001d011dffffffff0100f2052a010000004341040fc4674c71dfd5701f00baecb2ed65694d2dbd438f53fda3c4b70c84ffe354c3451f73cf7df139cba5ba5e33fbda5defd2eaff3fc4cef07fc194d1d6ab86f3f6ac00000000"
    }
  ]
}