{
  "hash": "0000000092401f6c614f894c6cc1f2bc24a68c817371e82fe06cd9a954acf7dc",
  "confirmations": 47398,
  "height": 5700,
  "version": 1,
  "versionHex": "00000001",
  "merkleroot": "44d77f7ac56491e25754a1aa40353f29071b28f4b2b28b799df52c25b381ed2b",
  "time": 1235685058,
  "mediantime": 1235682826,
  "nonce": 95474722,
  "bits": "1d00ffff",
  "difficulty": 1,
  "chainwork": "0000000000000000000000000000000000000000000000000000164516451645",
  "nTx": 1,
  "previousblockhash": "000000006325d81ffb96930c61b945c4ad136620cd31f34b6067ab3b1e6891b3",
  "nextblockhash": "0000000043daed14132a6a3b129c5a87f8d8b27b818878583dcc2702fd32a479",
  "strippedsize": 216,
  "size": 216,
  "weight": 864,
  "tx": [
    {
      "txid": "44d77f7ac56491e25754a1aa40353f29071b28f4b2b28b799df52c25b381ed2b",
      "hash": "44d77f7ac56491e25754a1aa40353f29071b28f4b2b28b799df52c25b381ed2b",
      "version": 1,
      "size": 135,
      "vsize": 135,
      "weight": 540,
      "locktime": 0,
      "vin": [
        {
          "coinbase": "04ffff001d027109",
          "sequence": 4294967295
        }
      ],
      "vout": [
        {
          "value": 50.0,
          "n": 0,
          "scriptPubKey": {
            "asm": "0471bebd3a290eac81bdcdf80b2920af3a6c5e6f7ad57d7716568681f610d6c6e8baaeb682e45717b44f6d2de80d6ff2cf9c1a87924f75f2326781805a63ae93d6 OP_CHECKSIG",
            "desc": "pk(0471bebd3a290eac81bdcdf80b2920af3a6c5e6f7ad57d7716568681f610d6c6e8baaeb682e45717b44f6d2de80d6ff2cf9c1a87924f75f2326781805a63ae93d6)#uy5ltwy3",
            "hex": "410471bebd3a290eac81bdcdf80b2920af3a6c5e6f7ad57d7716568681f610d6c6e8baaeb682e45717b44f6d2de80d6ff2cf9c1a87924f75f2326781805a63ae93d6ac",
            "type": "pubkey"
          }
        }
      ],
      "hex": "01000000010000000000000000000000000000000000000000000000000000000000000000ffffffff0804ffff001d027109ffffffff0100f2052a0100000043410471bebd3a290eac81bdcdf80b2920af3a6c5e6f7ad57d7716568681f610d6c6e8baaeb682e45717b44f6d2de80d6ff2cf9c1a87924f75f2326781805a63ae93d6ac00000000"
    }
  ]
}