{
  "hash": "000000001a44c1969ffb770bc096971f41ec06e846b7a56fb0fe6cd5c05b2a05",
  "confirmations": 43939,
  "height": 9159,
  "version": 1,
  "versionHex": "00000001",
  "merkleroot": "abe6572bf81a4af064684df590bf83c890954bb8106aec5a17ddfe307b6db42b",
  "time": 1238370609,
  "mediantime": 1238369385,
  "nonce": 2801433901,
  "bits": "1d00ffff",
  "difficulty": 1,
  "chainwork": "000000000000000000000000000000000000000000000000000023c823c823c8",
  "nTx": 1,
  "previousblockhash": "00000000752213ae0762eac72ad453487921986168f2b2a2d4702475c7563dc6",
  "nextblockhash": "00000000acd2ef888a5ffac36d379c510bcb6ceb522bceb36c199d1b0fe7589e",
  "strippedsize": 216,
  "size": 216,
  "weight": 864,
  "tx": [
    {
      "txid": "abe6572bf81a4af064684df590bf83c890954bb8106aec5a17ddfe307b6db42b",
      "hash": "abe6572bf81a4af064684df590bf83c890954bb8106aec5a17ddfe307b6db42b",
      "version": 1,
      "size": 135,
      "vsize": 135,
      "weight": 540,
      "locktime": 0,
      "vin": [
        {
          "coinbase": "04ffff001d028109",
          "sequence": 4294967295
        }
      ],
      "vout": [
        {
          "value": 50.0,
          "n": 0,
          "scriptPubKey": {
            "asm": "047ddb9a002bc76ac42800429654cb91a2e9f7875f71c6c62cdee146392b94950add125b68dd309e2b85e3e0e546c23ce2edece6998f9908b75717198759b1303d OP_CHECKSIG",
            "desc": "pk(047ddb9a002bc76ac42800429654cb91a2e9f7875f71c6c62cdee146392b94950add125b68dd309e2b85e3e0e546c23ce2edece6998f9908b75717198759b1303d)#l42hxzwt",
            "hex": "41047ddb9a002bc76ac42800429654cb91a2e9f7875f71c6c62cdee146392b94950add125b68dd309e2b85e3e0e546c23ce2edece6998f9908b75717198759b1303dac",
            "type": "pubkey"
          }
        }
      ],
      "hex": "01000000010000000000000000000000000000000000000000000000000000000000000000ffffffff0804ffff001d028109ffffffff0100f2052a010000004341047ddb9a002bc76ac42800429654cb91a2e9f7875f71c6c62cdee146392b94950add125b68dd309e2b85e3e0e546c23ce2edece6998f9908b75717198759b1303dac00000000"
    }
  ]
}