{
  "hash": "00000000dd4469f0ce7cdd35cbaeab1cc6db413ad690bbba24ed1effe2530312",
  "confirmations": 51403,
  "height": 1695,
  "version": 1,
  "versionHex": "00000001",
  "merkleroot": "1dc4049de1f795d702d8e3f8b299839d9c8c9d5f99ef78580ea0ed1a5247bf58",
  "time": 1232850896,
  "mediantime": 1232848484,
  "nonce": 3095154478,
  "bits": "1d00ffff",
  "difficulty": 1,
  "chainwork": "000000000000000000000000000000000000000000000000000006a006a006a0",
  "nTx": 1,
  "previousblockhash": "000000003351902f7e327de188067342d59d9ee65c18d080950c157ebdccfd92",
  "nextblockhash": "0000000089e879d9772af27fe8ceee2c54c2ff8df5e9247a7a1cf21bdf009a69",
  "strippedsize": 216,
  "size": 216,
  "weight": 864,
  "tx": [
    {
      "txid": "1dc4049de1f795d702d8e3f8b299839d9c8c9d5f99ef78580ea0ed1a5247bf58",
      "hash": "1dc4049de1f795d702d8e3f8b299839d9c8c9d5f99ef78580ea0ed1a5247bf58",
      "version": 1,
      "size": 135,
      "vsize": 135,
      "weight": 540,
      "locktime": 0,
      "vin": [
        {
          "coinbase": "04ffff001d020703",
          "sequence": 4294967295
        }
      ],
      "vout": [
        {
          "value": 50.0,
          "n": 0,
          "scriptPubKey": {
            "asm": "04c7ce4617a0878c7a5f84a8e6328efa52f88a0d97815eb4f2c53e5d1208ad566a75a665751c845233e58490217d1fb39d9aa9183ac255f0a68ebdb2ef7f4e23e4 OP_CHECKSIG",
            "desc": "pk(04c7ce4617a0878c7a5f84a8e6328efa52f88a0d97815eb4f2c53e5d1208ad566a75a665751c845233e58490217d1fb39d9aa9183ac255f0a68ebdb2ef7f4e23e4)#9kvg2u3f",
            "hex": "4104c7ce4617a0878c7a5f84a8e6328efa52f88a0d97815eb4f2c53e5d1208ad566a75a665751c845233e58490217d1fb39d9aa9183ac255f0a68ebdb2ef7f4e23e4ac",
            "type": "pubkey"
          }
        }
      ],
      "hex": "01000000010000000000000000000000000000000000000000000000000000000000000000ffffffff0804ffff001d020703ffffffff0100f2052a01000000434104c7ce4617a0878c7a5f84a8e6328efa52f88a0d97815eb4f2c53e5d1208ad566a75a665751c845233e58490217d1fb39d9aa9183ac255f0a68ebdb2ef7f4e23e4ac00000000"
    }
  ]
}