{
  "hash": "000000007bc81d57229b2a115a582b2b439d9d8ca7d0ba6cbde2c3bb1c3079e6",
  "confirmations": 46151,
  "height": 6947,
  "version": 1,
  "versionHex": "00000001",
  "merkleroot": "dcfecd8452684f50803112ffbdf237a1776f4b5d7edb84e6de3fd2b7c1d13ade",
  "time": 1236678060,
  "mediantime": 1236672035,
  "nonce": 1437097241,
  "bits": "1d00ffff",
  "difficulty": 1,
  "chainwork": "00000000000000000000000000000000000000000000000000001b241b241b24",
  "nTx": 1,
  "previousblockhash": "00000000ef1c8ded48197dcd5e54e06eb012eebf194e01111fd49de8caeb8546",
  "nextblockhash": "000000009a52745ee21919572ccb5bd32ea6653834301c8426428035986dbfdc",
  "strippedsize": 216,
  "size": 216,
  "weight": 864,
  "tx": [
    {
      "txid": "dcfecd8452684f50803112ffbdf237a1776f4b5d7edb84e6de3fd2b7c1d13ade",
      "hash": "dcfecd8452684f50803112ffbdf237a1776f4b5d7edb84e6de3fd2b7c1d13ade",
      "version": 1,
      "size": 135,
      "vsize": 135,
      "weight": 540,
      "locktime": 0,
      "vin": [
        {
          "coinbase": "04ffff001d024d01",
          "sequence": 4294967295
        }
      ],
      "vout": [
        {
          "value": 50.0,
          "n": 0,
          "scriptPubKey": {
            "asm": "0476024e777b6f7004992296b42b314378018fd3bb2a7477849bfbd2d2a615d255c30d994ec46c67fd7179c0eb86ba631e6869563f6c4164f5624ab744d4ca66e1 OP_CHECKSIG",
            "desc": "pk(0476024e777b6f7004992296b42b314378018fd3bb2a7477849bfbd2d2a615d255c30d994ec46c67fd7179c0eb86ba631e6869563f6c4164f5624ab744d4ca66e1)#cteheuwk",
            "hex": "410476024e777b6f7004992296b42b314378018fd3bb2a7477849bfbd2d2a615d255c30d994ec46c67fd7179c0eb86ba631e6869563f6c4164f5624ab744d4ca66e1ac",
            "type": "pubkey"
          }
        }
      ],
      "hex": "01000000010000000000000000000000000000000000000000000000000000000000000000ffffffff0804ffff001d024d01ffffffff0100f2052a0100000043410476024e777b6f7004992296b42b314378018fd3bb2a7477849bfbd2d2a615d255c30d994ec46c67fd7179c0eb86ba631e6869563f6c4164f5624ab744d4ca66e1ac00000000"
    }
  ]
}