{
  "hash": "00000000ccc4a77183aba7a1908236a8e93890fb2e69e74d67344262b18583eb",
  "confirmations": 45692,
  "height": 7406,
  "version": 1,
  "versionHex": "00000001",
  "merkleroot": "7b2b80d1b32de49392c276e64cf5eff1386c9f0c20259b4fd2ef757ac0dbd176",
  "time": 1237028437,
  "mediantime": 1237024427,
  "nonce": 2687560213,
  "bits": "1d00ffff",
  "difficulty": 1,
  "chainwork": "00000000000000000000000000000000000000000000000000001cef1cef1cef",
  "nTx": 1,
  "previousblockhash": "00000000405b854cab1a2522e3c78e0af016ac98cf5f223f1ee85f56f9ece3e0",
  "nextblockhash": "00000000f987d459a18c8c1b46fc1ab96d85a1e9f94e8273a2fc93cf0060e1e5",
  "strippedsize": 216,
  "size": 216,
  "weight": 864,
  "tx": [
    {
      "txid": "7b2b80d1b32de49392c276e64cf5eff1386c9f0c20259b4fd2ef757ac0dbd176",
      "hash": "7b2b80d1b32de49392c276e64cf5eff1386c9f0c20259b4fd2ef757ac0dbd176",
      "version": 1,
      "size": 135,
      "vsize": 135,
      "weight": 540,
      "locktime": 0,
      "vin": [
        {
          "coinbase": "04ffff001d027d09",
          "sequence": 4294967295
        }
      ],
      "vout": [
        {
          "value": 50.0,
          "n": 0,
          "scriptPubKey": {
            "asm": "04609aeb8c02d22ec3895e666e15cbd26d9a8d9e9ce7ad3c6a5902161e3b74137f01aea4b5d8b6bb424aa4f8496217d343e7ac37fa397551766451fe81f7fc8597 OP_CHECKSIG",
            "desc": "pk(04609aeb8c02d22ec3895e666e15cbd26d9a8d9e9ce7ad3c6a5902161e3b74137f01aea4b5d8b6bb424aa4f8496217d343e7ac37fa397551766451fe81f7fc8597)#3dpd2t69",
            "hex": "4104609aeb8c02d22ec3895e666e15cbd26d9a8d9e9ce7ad3c6a5902161e3b74137f01aea4b5d8b6bb424aa4f8496217d343e7ac37fa397551766451fe81f7fc8597ac",
            "type": "pubkey"
          }
        }
      ],
      "hex": "01000000010000000000000000000000000000000000000000000000000000000000000000ffffffff0804ffff001d027d09ffffffff0100f2052a01000000434104609aeb8c02d22ec3895e666e15cbd26d9a8d9e9ce7ad3c6a5902161e3b74137f01aea4b5d8b6bb424aa4f8496217d343e7ac37fa397551766451fe81f7fc8597ac00000000"
    }
  ]
}