{
  "hash": "000000000222d331c9cda8a89878ac1654b06660d10078ff7bf67793a6ca290b",
  "confirmations": 51916,
  "height": 1182,
  "version": 1,
  "versionHex": "00000001",
  "merkleroot": "832ad09b70c0452607aedf8f02698d8f59b6f45e0f5594f9adf8f5e9bf2561e9",
  "time": 1232486925,
  "mediantime": 1232483653,
  "nonce": 141542691,
  "bits": "1d00ffff",
  "difficulty": 1,
  "chainwork": "0000000000000000000000000000000000000000000000000000049f049f049f",
  "nTx": 1,
  "previousblockhash": "00000000f39741da98b6f3401782b09fcfe02dba0ef247ac9f3342b70db463e1",
  "nextblockhash": "00000000bd5a635c4733f07f1635e51be0fc122de3cf0edd42679be0da78ccab",
  "strippedsize": 216,
  "size": 216,
  "weight": 864,
  "tx": [
    {
      "txid": "832ad09b70c0452607aedf8f02698d8f59b6f45e0f5594f9adf8f5e9bf2561e9",
      "hash": "832ad09b70c0452607aedf8f02698d8f59b6f45e0f5594f9adf8f5e9bf2561e9",
      "version": 1,
      "size": 135,
      "vsize": 135,
      "weight": 540,
      "locktime": 0,
      "vin": [
        {
          "coinbase": "04ffff001d025808",
          "sequence": 4294967295
        }
      ],
      "vout": [
        {
          "value": 50.0,
          "n": 0,
          "scriptPubKey": {
            "asm": "04a81fffe6cd17eb90ea0c31980e9bfc9cfe8877ede606afa6fb78aff870b7df8f66d802ab8fb0301767c07897b1921fef5b6f9da5b40caf31dfdc8f10fe25f1bd OP_CHECKSIG",
            "desc": "pk(04a81fffe6cd17eb90ea0c31980e9bfc9cfe8877ede606afa6fb78aff870b7df8f66d802ab8fb0301767c07897b1921fef5b6f9da5b40caf31dfdc8f10fe25f1bd)#a7pk6q8n",
            "hex": "4104a81fffe6cd17eb90ea0c31980e9bfc9cfe8877ede606afa6fb78aff870b7df8f66d802ab8fb0301767c07897b1921fef5b6f9da5b40caf31dfdc8f10fe25f1bdac",
            "type": "pubkey"
          }
        }
      ],
      "hex": "01000000010000000000000000000000000000000000000000000000000000000000000000ffffffff0804ffff001d025808ffffffff0100f2052a01000000434104a81fffe6cd17eb90ea0c31980e9bfc9cfe8877ede606afa6fb78aff870b7df8f66d802ab8fb0301767c07897b1921fef5b6f9da5b40caf31dfdc8f10fe25f1bdac00000000"
    }
  ]
}