{
  "hash": "00000000dc5ccc1ca96f2bcb8f605d07e8f22833cee65200f604c122bd4e0e5a",
  "confirmations": 51643,
  "height": 1455,
  "version": 1,
  "versionHex": "00000001",
  "merkleroot": "a1e13c7765135bc6854f0243e4f310376b4e935b3b8d4944a988b2253f9b192e",
  "time": 1232749060,
  "mediantime": 1232746600,
  "nonce": 3768293897,
  "bits": "1d00ffff",
  "difficulty": 1,
  "chainwork": "000000000000000000000000000000000000000000000000000005b005b005b0",
  "nTx": 1,
  "previousblockhash": "0000000012dbeac0d7d34f7198002b6e231518e1024a416fc4e4525de20efb18",
  "nextblockhash": "000000003e1d7f5f5be73d0eb6b65d4f0db03f57e07a41416d8f2647fee45984",
  "strippedsize": 216,
  "size": 216,
  "weight": 864,
  "tx": [
    {
      "txid": "a1e13c7765135bc6854f0243e4f310376b4e935b3b8d4944a988b2253f9b192e",
      "hash": "a1e13c7765135bc6854f0243e4f310376b4e935b3b8d4944a988b2253f9b192e",
      "version": 1,
      "size": 135,
      "vsize": 135,
      "weight": 540,
      "locktime": 0,
      "vin": [
        {
          "coinbase": "04ffff001d02b200",
          "sequence": 4294967295
        }
      ],
      "vout": [
        {
          "value": 50.0,
          "n": 0,
          "scriptPubKey": {
            "asm": "04bf7b06ef52e5bce091023fb4c34ba98de49270f50817a3d45b860a08dabf80aeaba182743ae49c1fec2d719d8ce1edd948377fee699e7bd4546f5cde3899a3cf OP_CHECKSIG",
            "desc": "pk(04bf7b06ef52e5bce091023fb4c34ba98de49270f50817a3d45b860a08dabf80aeaba182743ae49c1fec2d719d8ce1edd948377fee699e7bd4546f5cde3899a3cf)#46pvhex7",
            "hex": "4104bf7b06ef52e5bce091023fb4c34ba98de49270f50817a3d45b860a08dabf80aeaba182743ae49c1fec2d719d8ce1edd948377fee699e7bd4546f5cde3899a3cfac",
            "type": "pubkey"
          }
        }
      ],
      "hex": "01000000010000000000000000000000000000000000000000000000000000000000000000ffffffff0804ffff001d02b200ffffffff0100f2052a01000000434104bf7b06ef52e5bce091023fb4c34ba98de49270f50817a3d45b860a08dabf80aeaba182743ae49c1fec2d719d8ce1edd948377fee699e7bd4546f5cde3899a3cfac00000000"
    }
  ]
}