{
  "hash": "00000000acd58d5632619a889f751c9f508f7869f05814e6ce4b004258969342",
  "confirmations": 51041,
  "height": 2057,
  "version": 1,
  "versionHex": "00000001",
  "merkleroot": "d693da012c5032c19f4b402e6ce133956b9835bc9139a33f663761263972989a",
  "time": 1233101789,
  "mediantime": 1233097264,
  "nonce": 2585606913,
  "bits": "1d00ffff",
  "difficulty": 1,
  "chainwork": "0000000000000000000000000000000000000000000000000000080a080a080a",
  "nTx": 1,
  "previousblockhash": "000000009737fc85becda1878da804a7dd7e393999a356afb9aa49ac612fd838",
  "nextblockhash": "00000000c5d078e6198193ec872d5400ce78257db3c4298f060344f86fe1fefa",
  "strippedsize": 216,
  "size": 216,
  "weight": 864,
  "tx": [
    {
      "txid": "d693da012c5032c19f4b402e6ce133956b9835bc9139a33f663761263972989a",
      "hash": "d693da012c5032c19f4b402e6ce133956b9835bc9139a33f663761263972989a",
      "version": 1,
      "size": 135,
      "vsize": 135,
      "weight": 540,
      "locktime": 0,
      "vin": [
        {
          "coinbase": "04ffff001d02ee02",
          "sequence": 4294967295
        }
      ],
      "vout": [
        {
          "value": 50.0,
          "n": 0,
          "scriptPubKey": {
            "asm": "04f81212f7e0639b322cccb645827d40d933b874faecbfe1992167a1302af07037fab5173ca466e6e8f52fec79453e05eb31ef6bdf9036e0267a6889b3b333c524 OP_CHECKSIG",
            "desc": "pk(04f81212f7e0639b322cccb645827d40d933b874faecbfe1992167a1302af07037fab5173ca466e6e8f52fec79453e05eb31ef6bdf9036e0267a6889b3b333c524)#uymndnsm",
            "hex": "4104f81212f7e0639b322cccb645827d40d933b874faecbfe1992167a1302af07037fab5173ca466e6e8f52fec79453e05eb31ef6bdf9036e0267a6889b3b333c524ac",
            "type": "pubkey"
          }
        }
      ],
      "hex": "01000000010000000000000000000000000000000000000000000000000000000000000000ffffffff0804ffff001d02ee02ffffffff0100f2052a01000000434104f81212f7e0639b322cccb645827d40d933b874faecbfe1992167a1302af07037fab5173ca466e6e8f52fec79453e05eb31ef6bdf9036e0267a6889b3b333c524ac00000000"
    }
  ]
}