{
  "hash": "0000000056d5a0d1e1776015a450e3fa8a214d05cedb0747d0db32e4f4c27e6e",
  "confirmations": 44789,
  "height": 8309,
  "version": 1,
  "versionHex": "00000001",
  "merkleroot": "a7137477250426e0222d6363a900163b235bfeabd1772110eadb6055c388d29e",
  "time": 1237735884,
  "mediantime": 1237733245,
  "nonce": 969591856,
  "bits": "1d00ffff",
  "difficulty": 1,
  "chainwork": "0000000000000000000000000000000000000000000000000000207620762076",
  "nTx": 1,
  "previousblockhash": "00000000c79841cffcf0a122a920c4dc066799a655aa8c9f4a2776d62e651ae4",
  "nextblockhash": "0000000087926ee7063cdbcce1d4a428ebac78488db0d4ec9ff0c1905ea8ef8f",
  "strippedsize": 216,
  "size": 216,
  "weight": 864,
  "tx": [
    {
      "txid": "a7137477250426e0222d6363a900163b235bfeabd1772110eadb6055c388d29e",
      "hash": "a7137477250426e0222d6363a900163b235bfeabd1772110eadb6055c388d29e",
      "version": 1,
      "size": 135,
      "vsize": 135,
      "weight": 540,
      "locktime": 0,
      "vin": [
        {
          "coinbase": "04ffff001d023b04",
          "sequence": 4294967295
        }
      ],
      "vout": [
        {
          "value": 50.0,
          "n": 0,
          "scriptPubKey": {
            "asm": "04daa925a6e2d8faf756030afeab1853b868e446c776579b1ea0298fe32b5ad5ae3e3e8bf793bcd65a422f77bed2eb559b23be77245e6d3400af86cae8bd9177a4 OP_CHECKSIG",
            "desc": "pk(04daa925a6e2d8faf756030afeab1853b868e446c776579b1ea0298fe32b5ad5ae3e3e8bf793bcd65a422f77bed2eb559b23be77245e6d3400af86cae8bd9177a4)#xzgarh4d",
            "hex": "4104daa925a6e2d8faf756030afeab1853b868e446c776579b1ea0298fe32b5ad5ae3e3e8bf793bcd65a422f77bed2eb559b23be77245e6d3400af86cae8bd9177a4ac",
            "type": "pubkey"
          }
        }
      ],
      "hex": "01000000010000000000000000000000000000000000000000000000000000000000000000ffffffff0804ffff001d023b04ffffffff0100f2052a01000000434104daa925a6e2d8faf756030afeab1853b868e446c776579b1ea0298fe32b5ad5ae3e3e8bf793bcd65a422f77bed2eb559b23be77245e6d3400af86cae8bd9177a4ac00000000"
    }
  ]
}