{
  "hash": "0000000097d58f75cb49c3e56951672c32ab0c03b99cf6a16aed4cab43f42853",
  "confirmations": 48475,
  "height": 4623,
  "version": 1,
  "versionHex": "00000001",
  "merkleroot": "0951bf77dca4b4e06ca94cd7f61a4b81b0e9d8f067afbeb09b862446098099eb",
  "time": 1234872765,
  "mediantime": 1234868498,
  "nonce": 3789886497,
  "bits": "1d00ffff",
  "difficulty": 1,
  "chainwork": "0000000000000000000000000000000000000000000000000000121012101210",
  "nTx": 1,
  "previousblockhash": "00000000fe1bba981554c507b4cb5024ab308a00753d913a9c6340f2048aeb1f",
  "nextblockhash": "0000000055156abeea523f65997cbf0a950a8364d3bda7ef1ea190dfd3842761",
  "strippedsize": 216,
  "size": 216,
  "weight": 864,
  "tx": [
    {
      "txid": "0951bf77dca4b4e06ca94cd7f61a4b81b0e9d8f067afbeb09b862446098099eb",
      "hash": "0951bf77dca4b4e06ca94cd7f61a4b81b0e9d8f067afbeb09b862446098099eb",
      "version": 1,
      "size": 135,
      "vsize": 135,
      "weight": 540,
      "locktime": 0,
      "vin": [
        {
          "coinbase": "04ffff001d023f01",
          "sequence": 4294967295
        }
      ],
      "vout": [
        {
          "value": 50.0,
          "n": 0,
          "scriptPubKey": {
            "asm": "041597eebd9faf15aaa3ba21f437013314b1f00b05c4adee649742e6dbe8dde9a2bf7b2e481578f3e1043a8416ba61d5bffb94bf5fca6bdd1029e4f613bc3bbeeb OP_CHECKSIG",
            "desc": "pk(041597eebd9faf15aaa3ba21f437013314b1f00b05c4adee649742e6dbe8dde9a2bf7b2e481578f3e1043a8416ba61d5bffb94bf5fca6bdd1029e4f613bc3bbeeb)#9v7trk8s",
            "hex": "41041597eebd9faf15aaa3ba21f437013314b1f00b05c4adee649742e6dbe8dde9a2bf7b2e481578f3e1043a8416ba61d5bffb94bf5fca6bdd1029e4f613bc3bbeebac",
            "type": "pubkey"
          }
        }
      ],
      "hex": "01000000010000000000000000000000000000000000000000000000000000000000000000ffffffff0804ffff001d023f01ffffffff0100f2052a010000004341041597eebd9faf15aaa3ba21f437013314b1f00b05c4adee649742e6dbe8dde9a2bf7b2e481578f3e1043a8416ba61d5bffb94bf5fca6bdd1029e4f613bc3bbeebac00000000"
    }
  ]
}