{
  "hash": "0000000099531766ee9897533ea3fdecefa07109234dd0a52973b55f681b7c69",
  "confirmations": 50557,
  "height": 2541,
  "version": 1,
  "versionHex": "00000001",
  "merkleroot": "06462a42f1a3d4b7558fc3f51223419a5bbb433151629c9836550c42d554c76a",
  "time": 1233445356,
  "mediantime": 1233442026,
  "nonce": 38379863,
  "bits": "1d00ffff",
  "difficulty": 1,
  "chainwork": "000000000000000000000000000000000000000000000000000009ee09ee09ee",
  "nTx": 1,
  "previousblockhash": "00000000e3691de8b867864819eb3a97965e196f5f28f3ea18556af720845db3",
  "nextblockhash": "00000000ac41d26f0e2f890a33895e1317f735f298b76f409103a4f4f0f93d72",
  "strippedsize": 216,
  "size": 216,
  "weight": 864,
  "tx": [
    {
      "txid": "06462a42f1a3d4b7558fc3f51223419a5bbb433151629c9836550c42d554c76a",
      "hash": "06462a42f1a3d4b7558fc3f51223419a5bbb433151629c9836550c42d554c76a",
      "version": 1,
      "size": 135,
      "vsize": 135,
      "weight": 540,
      "locktime": 0,
      "vin": [
        {
          "coinbase": "04ffff001d024202",
          "sequence": 4294967295
        }
      ],
      "vout": [
        {
          "value": 50.0,
          "n": 0,
          "scriptPubKey": {
            "asm": "0491f8dcc6e0b0c3587e627cfc6bf2fdf467db76ed2de7d912c03a8f1260e461ecaca443b45ce6764aefe0ff5cc9449cbdeb9e34597b0e777023933af94419b42a OP_CHECKSIG",
            "desc": "pk(0491f8dcc6e0b0c3587e627cfc6bf2fdf467db76ed2de7d912c03a8f1260e461ecaca443b45ce6764aefe0ff5cc9449cbdeb9e34597b0e777023933af94419b42a)#4rgm6xmg",
            "hex": "410491f8dcc6e0b0c3587e627cfc6bf2fdf467db76ed2de7d912c03a8f1260e461ecaca443b45ce6764aefe0ff5cc9449cbdeb9e34597b0e777023933af94419b42aac",
            "type": "pubkey"
          }
        }
      ],
      "hex": "01000000010000000000000000000000000000000000000000000000000000000000000000ffffffff0804ffff001d024202ffffffff0100f2052a0100000043410491f8dcc6e0b0c3587e627cfc6bf2fdf467db76ed2de7d912c03a8f1260e461ecaca443b45ce6764aefe0ff5cc9449cbdeb9e34597b0e777023933af94419b42aac00000000"
    }
  ]
}