{
  "hash": "00000000e22730660ba64d3c3f561082a159ec44f44a8057a37e20214379a163",
  "confirmations": 45794,
  "height": 7304,
  "version": 1,
  "versionHex": "00000001",
  "merkleroot": "e25bf682a95997767bb8db87efc8fc6633b5ea1df8f08d3a605493f460c78ce2",
  "time": 1236951264,
  "mediantime": 1236948700,
  "nonce": 39211011,
  "bits": "1d00ffff",
  "difficulty": 1,
  "chainwork": "00000000000000000000000000000000000000000000000000001c891c891c89",
  "nTx": 1,
  "previousblockhash": "00000000dddb48473d55486c4d063039aaf7ebd6ce9cf1df04711f98ceb125c6",
  "nextblockhash": "000000007d429f95f1101da62d4513a0dca14d303a2a2c0957bd74a7efca8464",
  "strippedsize": 216,
  "size": 216,
  "weight": 864,
  "tx": [
    {
      "txid": "e25bf682a95997767bb8db87efc8fc6633b5ea1df8f08d3a605493f460c78ce2",
      "hash": "e25bf682a95997767bb8db87efc8fc6633b5ea1df8f08d3a605493f460c78ce2",
      "version": 1,
      "size": 135,
      "vsize": 135,
      "weight": 540,
      "locktime": 0,
      "vin": [
        {
          "coinbase": "04ffff001d02a407",
          "sequence": 4294967295
        }
      ],
      "vout": [
        {
          "value": 50.0,
          "n": 0,
          "scriptPubKey": {
            "asm": "04971c4fb54f1a523c2e5b644378578ea31f5ac5871e59595ff462f7d7d76e5130fab98b13d209d7de1de6ce2ba798b035784eef4bb035668e8db1028861d0e25b OP_CHECKSIG",
            "desc": "pk(04971c4fb54f1a523c2e5b644378578ea31f5ac5871e59595ff462f7d7d76e5130fab98b13d209d7de1de6ce2ba798b035784eef4bb035668e8db1028861d0e25b)#x9ecqcfg",
            "hex": "4104971c4fb54f1a523c2e5b644378578ea31f5ac5871e59595ff462f7d7d76e5130fab98b13d209d7de1de6ce2ba798b035784eef4bb035668e8db1028861d0e25bac",
            "type": "pubkey"
          }
        }
      ],
      "hex": "01000000010000000000000000000000000000000000000000000000000000000000000000ffffffff0804ffff001d02a407ffffffff0100f2052a01000000434104971c4fb54f1a523c2e5b644378578ea31f5ac5871e59595ff462f7d7d76e5130fab98b13d209d7de1de6ce2ba798b035784eef4bb035668e8db1028861d0e25bac00000000"
    }
  ]
}