{
  "hash": "00000000bf12733f77886692fbedc933453bda332d3191d78fd3cbb228bcb2b7",
  "confirmations": 46025,
  "height": 7073,
  "version": 1,
  "versionHex": "00000001",
  "merkleroot": "b086ed0ce59d1f95ca7762d3d5c42453335a83a683d307f4b61c8322ad49886d",
  "time": 1236774780,
  "mediantime": 1236771799,
  "nonce": 300771181,
  "bits": "1d00ffff",
  "difficulty": 1,
  "chainwork": "00000000000000000000000000000000000000000000000000001ba21ba21ba2",
  "nTx": 1,
  "previousblockhash": "00000000956cc093eb4a15ee93b0027cdd35fc90185060501a1b4d77f7aa596e",
  "nextblockhash": "000000005fc31e08cf3517f3ba151a111fdc4e68cdd06b8edb6de813a5f35f6a",
  "strippedsize": 215,
  "size": 215,
  "weight": 860,
  "tx": [
    {
      "txid": "b086ed0ce59d1f95ca7762d3d5c42453335a83a683d307f4b61c8322ad49886d",
      "hash": "b086ed0ce59d1f95ca7762d3d5c42453335a83a683d307f4b61c8322ad49886d",
      "version": 1,
      "size": 134,
      "vsize": 134,
      "weight": 536,
      "locktime": 0,
      "vin": [
        {
          "coinbase": "04ffff001d011c",
          "sequence": 4294967295
        }
      ],
      "vout": [
        {
          "value": 50.0,
          "n": 0,
          "scriptPubKey": {
            "asm": "047b46ef7cc9b6ce47ee443b21790d31b43f2f998b08ed06196ea4e4c8422375a957a5a2db22be6f4c74f3fb9dbff499d366fb4e04a2016ed15aa92d7fcc303d23 OP_CHECKSIG",
            "desc": "pk(047b46ef7cc9b6ce47ee443b21790d31b43f2f998b08ed06196ea4e4c8422375a957a5a2db22be6f4c74f3fb9dbff499d366fb4e04a2016ed15aa92d7fcc303d23)#fawcytj0",
            "hex": "41047b46ef7cc9b6ce47ee443b21790d31b43f2f998b08ed06196ea4e4c8422375a957a5a2db22be6f4c74f3fb9dbff499d366fb4e04a2016ed15aa92d7fcc303d23ac",
            "type": "pubkey"
          }
        }
      ],
      "hex": "01000000010000000000000000000000000000000000000000000000000000000000000000ffffffff0704ffff001d011cffffffff0100f2052a010000004341047b46ef7cc9b6ce47ee443b21790d31b43f2f998b08ed06196ea4e4c8422375a957a5a2db22be6f4c74f3fb9dbff499d366fb4e04a2016ed15aa92d7fcc303d23ac00000000"
    }
  ]
}