{
  "hash": "000000004a0becb8491740bfce48520ef85de9af29e10fca28f72c4b9b988643",
  "confirmations": 44942,
  "height": 8156,
  "version": 1,
  "versionHex": "00000001",
  "merkleroot": "a049a7dd8bff339775dfaff482ecfa05716dd92b944e55c5bdce9668527b4dc6",
  "time": 1237576328,
  "mediantime": 1237574767,
  "nonce": 39875418,
  "bits": "1d00ffff",
  "difficulty": 1,
  "chainwork": "00000000000000000000000000000000000000000000000000001fdd1fdd1fdd",
  "nTx": 1,
  "previousblockhash": "00000000b611152167c88d65f482667580c64041ef92b8224811260f70f42fb1",
  "nextblockhash": "0000000005739b3ef37179a3dad62c474f97c442e834f8566384655c3314dd29",
  "strippedsize": 215,
  "size": 215,
  "weight": 860,
  "tx": [
    {
      "txid": "a049a7dd8bff339775dfaff482ecfa05716dd92b944e55c5bdce9668527b4dc6",
      "hash": "a049a7dd8bff339775dfaff482ecfa05716dd92b944e55c5bdce9668527b4dc6",
      "version": 1,
      "size": 134,
      "vsize": 134,
      "weight": 536,
      "locktime": 0,
      "vin": [
        {
          "coinbase": "04ffff001d011b",
          "sequence": 4294967295
        }
      ],
      "vout": [
        {
          "value": 50.0,
          "n": 0,
          "scriptPubKey": {
            "asm": "04d9351200ee11fca002dab51f212fcb84a2ff2fddd9ccdabeab588b79810aa43709ca94b4db79c14fb6f4beea2e222fb2f94f17dcc96018a433b43bb95f69f4a4 OP_CHECKSIG",
            "desc": "pk(04d9351200ee11fca002dab51f212fcb84a2ff2fddd9ccdabeab588b79810aa43709ca94b4db79c14fb6f4beea2e222fb2f94f17dcc96018a433b43bb95f69f4a4)#wkhcerkl",
            "hex": "4104d9351200ee11fca002dab51f212fcb84a2ff2fddd9ccdabeab588b79810aa43709ca94b4db79c14fb6f4beea2e222fb2f94f17dcc96018a433b43bb95f69f4a4ac",
            "type": "pubkey"
          }
        }
      ],
      "hex": "01000000010000000000000000000000000000000000000000000000000000000000000000ffffffff0704ffff001d011bffffffff0100f2052a01000000434104d9351200ee11fca002dab51f212fcb84a2ff2fddd9ccdabeab588b79810aa43709ca94b4db79c14fb6f4beea2e222fb2f94f17dcc96018a433b43bb95f69f4a4ac00000000"
    }
  ]
}