{
  "hash": "00000000956cc093eb4a15ee93b0027cdd35fc90185060501a1b4d77f7aa596e",
  "confirmations": 46026,
  "height": 7072,
  "version": 1,
  "versionHex": "00000001",
  "merkleroot": "2bdeceb5f49eddc84088f340b3acb61ebd2c168061c5c59013d362638ea7c61e",
  "time": 1236773839,
  "mediantime": 1236771534,
  "nonce": 1928635925,
  "bits": "1d00ffff",
  "difficulty": 1,
  "chainwork": "00000000000000000000000000000000000000000000000000001ba11ba11ba1",
  "nTx": 1,
  "previousblockhash": "00000000999ce780989805801b399602fde87ddfa9cfee24fc44b33793b181e4",
  "nextblockhash": "00000000bf12733f77886692fbedc933453bda332d3191d78fd3cbb228bcb2b7",
  "strippedsize": 216,
  "size": 216,
  "weight": 864,
  "tx": [
    {
      "txid": "2bdeceb5f49eddc84088f340b3acb61ebd2c168061c5c59013d362638ea7c61e",
      "hash": "2bdeceb5f49eddc84088f340b3acb61ebd2c168061c5c59013d362638ea7c61e",
      "version": 1,
      "size": 135,
      "vsize": 135,
      "weight": 540,
      "locktime": 0,
      "vin": [
        {
          "coinbase": "04ffff001d026503",
          "sequence": 4294967295
        }
      ],
      "vout": [
        {
          "value": 50.0,
          "n": 0,
          "scriptPubKey": {
            "asm": "0400184fe22ab152b94ef09143a3bea7c3c86fcdf4a67f58ba1a17daf66d13a281f1ece6d4895f38d45d50628a0988bf8b173d39d1d9e0f3d9ab4ede1f977451c4 OP_CHECKSIG",
            "desc": "pk(0400184fe22ab152b94ef09143a3bea7c3c86fcdf4a67f58ba1a17daf66d13a281f1ece6d4895f38d45d50628a0988bf8b173d39d1d9e0f3d9ab4ede1f977451c4)#08lxkwsz",
            "hex": "410400184fe22ab152b94ef09143a3bea7c3c86fcdf4a67f58ba1a17daf66d13a281f1ece6d4895f38d45d50628a0988bf8b173d39d1d9e0f3d9ab4ede1f977451c4ac",
            "type": "pubkey"
          }
        }
      ],
      "hex": "01000000010000000000000000000000000000000000000000000000000000000000000000ffffffff0804ffff001d026503ffffffff0100f2052a0100000043410400184fe22ab152b94ef09143a3bea7c3c86fcdf4a67f58ba1a17daf66d13a281f1ece6d4895f38d45d50628a0988bf8b173d39d1d9e0f3d9ab4ede1f977451c4ac00000000"
    }
  ]
}