{
  "hash": "000000003c8f1e429b24b31c5207148b23000925746559c7b5a18d361723b173",
  "confirmations": 44733,
  "height": 8365,
  "version": 1,
  "versionHex": "00000001",
  "merkleroot": "e8c9bfd0db4f47d5a03c33cc339dda218236f5267e630214b067801fb16cc5a6",
  "time": 1237777832,
  "mediantime": 1237773655,
  "nonce": 555600412,
  "bits": "1d00ffff",
  "difficulty": 1,
  "chainwork": "000000000000000000000000000000000000000000000000000020ae20ae20ae",
  "nTx": 1,
  "previousblockhash": "000000008b11231249b029fbec69dfcfd66ff5aef5064c4719334865a0bcf57a",
  "nextblockhash": "000000008da15afed11cf8e45a21c133d6133242a847863614794f110791bc82",
  "strippedsize": 216,
  "size": 216,
  "weight": 864,
  "tx": [
    {
      "txid": "e8c9bfd0db4f47d5a03c33cc339dda218236f5267e630214b067801fb16cc5a6",
      "hash": "e8c9bfd0db4f47d5a03c33cc339dda218236f5267e630214b067801fb16cc5a6",
      "version": 1,
      "size": 135,
      "vsize": 135,
      "weight": 540,
      "locktime": 0,
      "vin": [
        {
          "coinbase": "04ffff001d024f05",
          "sequence": 4294967295
        }
      ],
      "vout": [
        {
          "value": 50.0,
          "n": 0,
          "scriptPubKey": {
            "asm": "04828d901b6ec0742e34ff6b7587e19d35079ff3a892a4e59bdc9765fe0722119c10cd93eeba9de4a59ff541a27cca476dee8a6182bc40fd449268fc7818fabb00 OP_CHECKSIG",
            "desc": "pk(04828d901b6ec0742e34ff6b7587e19d35079ff3a892a4e59bdc9765fe0722119c10cd93eeba9de4a59ff541a27cca476dee8a6182bc40fd449268fc7818fabb00)#x367ur49",
            "hex": "4104828d901b6ec0742e34ff6b7587e19d35079ff3a892a4e59bdc9765fe0722119c10cd93eeba9de4a59ff541a27cca476dee8a6182bc40fd449268fc7818fabb00ac",
            "type": "pubkey"
          }
        }
      ],
      "hex": "01000000010000000000000000000000000000000000000000000000000000000000000000ffffffff0804ffff001d024f05ffffffff0100f2052a01000000434104828d901b6ec0742e34ff6b7587e19d35079ff3a892a4e59bdc9765fe0722119c10cd93eeba9de4a59ff541a27cca476dee8a6182bc40fd449268fc7818fabb00ac00000000"
    }
  ]
}