{
  "hash": "00000000f9ba2607cd9bcc7829102ed65f44cc0b6d80a33fe61ec4596571b71b",
  "confirmations": 43848,
  "height": 9250,
  "version": 1,
  "versionHex": "00000001",
  "merkleroot": "d433b306b3f6bcf463b9eec7322b436c14b552dc491442ea28777918431cc7d2",
  "time": 1238434886,
  "mediantime": 1238430803,
  "nonce": 534980354,
  "bits": "1d00ffff",
  "difficulty": 1,
  "chainwork": "0000000000000000000000000000000000000000000000000000242324232423",
  "nTx": 1,
  "previousblockhash": "00000000842d44ca92a61249883423c2c824f387af268ac1843a6b39bde248d3",
  "nextblockhash": "000000008339fb09714e5de4f5c2c97a11b6e95a92f7819ecba100dd22c7da0e",
  "strippedsize": 216,
  "size": 216,
  "weight": 864,
  "tx": [
    {
      "txid": "d433b306b3f6bcf463b9eec7322b436c14b552dc491442ea28777918431cc7d2",
      "hash": "d433b306b3f6bcf463b9eec7322b436c14b552dc491442ea28777918431cc7d2",
      "version": 1,
      "size": 135,
      "vsize": 135,
      "weight": 540,
      "locktime": 0,
      "vin": [
        {
          "coinbase": "04ffff001d02f400",
          "sequence": 4294967295
        }
      ],
      "vout": [
        {
          "value": 50.0,
          "n": 0,
          "scriptPubKey": {
            "asm": "047fc2cff697ca27b5c872af33c8b98456018e21a40d4273bb57c37612e312a76c14adff145ad544e0760e835132c782a7792f0a5baf7785bc432d69f30790f35e OP_CHECKSIG",
            "desc": "pk(047fc2cff697ca27b5c872af33c8b98456018e21a40d4273bb57c37612e312a76c14adff145ad544e0760e835132c782a7792f0a5baf7785bc432d69f30790f35e)#wgyqrwwf",
            "hex": "41047fc2cff697ca27b5c872af33c8b98456018e21a40d4273bb57c37612e312a76c14adff145ad544e0760e835132c782a7792f0a5baf7785bc432d69f30790f35eac",
            "type": "pubkey"
          }
        }
      ],
      "hex": "01000000010000000000000000000000000000000000000000000000000000000000000000ffffffff0804ffff001d02f400ffffffff0100f2052a010000004341047fc2cff697ca27b5c872af33c8b98456018e21a40d4273bb57c37612e312a76c14adff145ad544e0760e835132c782a7792f0a5baf7785bc432d69f30790f35eac00000000"
    }
  ]
}