{
  "hash": "00000000e3385ef51a21c2ef7d844c9e1390168247858c6865b38698017b614f",
  "confirmations": 52212,
  "height": 406,
  "version": 1,
  "versionHex": "00000001",
  "merkleroot": "145184076b0902e61454ffef9a43c8bd3a3d3d8ea34bf3facc6c21138a74e68a",
  "time": 1231906883,
  "mediantime": 1231902868,
  "nonce": 2292846113,
  "bits": "1d00ffff",
  "difficulty": 1,
  "chainwork": "0000000000000000000000000000000000000000000000000000019701970197",
  "nTx": 1,
  "previousblockhash": "00000000a148f310f5c02800fe4b08aa4daf0ea17b212ee07ce00f76768689dd",
  "nextblockhash": "000000009df396001cae68e4bbd0d1073e9056e82794a0c1c1c850e6c9d8372d",
  "strippedsize": 216,
  "size": 216,
  "weight": 864,
  "tx": [
    {
      "txid": "145184076b0902e61454ffef9a43c8bd3a3d3d8ea34bf3facc6c21138a74e68a",
      "hash": "145184076b0902e61454ffef9a43c8bd3a3d3d8ea34bf3facc6c21138a74e68a",
      "version": 1,
      "size": 135,
      "vsize": 135,
      "weight": 540,
      "locktime": 0,
      "vin": [
        {
          "coinbase": "04ffff001d02b202",
          "sequence": 4294967295
        }
      ],
      "vout": [
        {
          "value": 50.0,
          "n": 0,
          "scriptPubKey": {
            "asm": "04dfa37a84f24dea749b363f03d32bd9aba7ddfd541c5206f7b8468f7a856701f01d9ea003d901b53078401a270b9c23c8d9f2248aafcfde6beaa866b14a390dff OP_CHECKSIG",
            "desc": "pk(04dfa37a84f24dea749b363f03d32bd9aba7ddfd541c5206f7b8468f7a856701f01d9ea003d901b53078401a270b9c23c8d9f2248aafcfde6beaa866b14a390dff)#qs96ud3t",
            "hex": "4104dfa37a84f24dea749b363f03d32bd9aba7ddfd541c5206f7b8468f7a856701f01d9ea003d901b53078401a270b9c23c8d9f2248aafcfde6beaa866b14a390dffac",
            "type": "pubkey"
          }
        }
      ],
      "hex": "01000000010000000000000000000000000000000000000000000000000000000000000000ffffffff0804ffff001d02b202ffffffff0100f2052a01000000434104dfa37a84f24dea749b363f03d32bd9aba7ddfd541c5206f7b8468f7a856701f01d9ea003d901b53078401a270b9c23c8d9f2248aafcfde6beaa866b14a390dffac00000000"
    }
  ]
}