{
  "hash": "00000000d71cfeb717c2f16b2409f21a4aa3230a7c8ed25837831a5f52486e3e",
  "confirmations": 46159,
  "height": 6939,
  "version": 1,
  "versionHex": "00000001",
  "merkleroot": "c50665439ed9bc94b2b2ef8340dba88e516834ac447423f2b29cdc5c0c98e9b1",
  "time": 1236669204,
  "mediantime": 1236665297,
  "nonce": 2282739250,
  "bits": "1d00ffff",
  "difficulty": 1,
  "chainwork": "00000000000000000000000000000000000000000000000000001b1c1b1c1b1c",
  "nTx": 1,
  "previousblockhash": "00000000855c196ba180d4106a68245b32c6082dd801086ed502c8df0a9a07c9",
  "nextblockhash": "000000009ac22b564d45d5bce1355b74cf37886df0d4615bebdd783e1a1d3ba0",
  "strippedsize": 216,
  "size": 216,
  "weight": 864,
  "tx": [
    {
      "txid": "c50665439ed9bc94b2b2ef8340dba88e516834ac447423f2b29cdc5c0c98e9b1",
      "hash": "c50665439ed9bc94b2b2ef8340dba88e516834ac447423f2b29cdc5c0c98e9b1",
      "version": 1,
      "size": 135,
      "vsize": 135,
      "weight": 540,
      "locktime": 0,
      "vin": [
        {
          "coinbase": "04ffff001d022401",
          "sequence": 4294967295
        }
      ],
      "vout": [
        {
          "value": 50.0,
          "n": 0,
          "scriptPubKey": {
            "asm": "040c32127d9d00d6083ad9c8e4ec9c892e8b166a5a810217b37ba40b376894f1fc8f5106e9fe61656c1bce85b9c1f6e21b873417ee01a9ac5260799a147faa97b4 OP_CHECKSIG",
            "desc": "pk(040c32127d9d00d6083ad9c8e4ec9c892e8b166a5a810217b37ba40b376894f1fc8f5106e9fe61656c1bce85b9c1f6e21b873417ee01a9ac5260799a147faa97b4)#4kuuh8t3",
            "hex": "41040c32127d9d00d6083ad9c8e4ec9c892e8b166a5a810217b37ba40b376894f1fc8f5106e9fe61656c1bce85b9c1f6e21b873417ee01a9ac5260799a147faa97b4ac",
            "type": "pubkey"
          }
        }
      ],
      "hex": "01000000010000000000000000000000000000000000000000000000000000000000000000ffffffff0804ffff001d022401ffffffff0100f2052a010000004341040c32127d9d00d6083ad9c8e4ec9c892e8b166a5a810217b37ba40b376894f1fc8f5106e9fe61656c1bce85b9c1f6e21b873417ee01a9ac5260799a147faa97b4ac00000000"
    }
  ]
}