{
  "hash": "000000000467d523783dda1a1bf918a70623c4e31a9a193a38517cbbf38d1843",
  "confirmations": 50133,
  "height": 2965,
  "version": 1,
  "versionHex": "00000001",
  "merkleroot": "29c559a1ef0163b63920e43a2222efcc9d066ca8cc09f31b26f8d53eeeca7bd7",
  "time": 1233737391,
  "mediantime": 1233732647,
  "nonce": 3422271794,
  "bits": "1d00ffff",
  "difficulty": 1,
  "chainwork": "00000000000000000000000000000000000000000000000000000b960b960b96",
  "nTx": 1,
  "previousblockhash": "00000000089b2c209ec8528ab849448e8e175b469feed8b62dbe325107b8d90a",
  "nextblockhash": "0000000049cd7c0044964f6e9148e3a7c30beee4fbb1a7670881e941ecb1fb39",
  "strippedsize": 216,
  "size": 216,
  "weight": 864,
  "tx": [
    {
      "txid": "29c559a1ef0163b63920e43a2222efcc9d066ca8cc09f31b26f8d53eeeca7bd7",
      "hash": "29c559a1ef0163b63920e43a2222efcc9d066ca8cc09f31b26f8d53eeeca7bd7",
      "version": 1,
      "size": 135,
      "vsize": 135,
      "weight": 540,
      "locktime": 0,
      "vin": [
        {
          "coinbase": "04ffff001d02d100",
          "sequence": 4294967295
        }
      ],
      "vout": [
        {
          "value": 50.0,
          "n": 0,
          "scriptPubKey": {
            "asm": "04b80c5bcaa946e3f539100e7e7379cccd431ac39958d4ef2e3eeb533000bee535078102409002f2db65ca954b6d635cfeab9f31cfb9b0ed45389b3f94bc7ddec9 OP_CHECKSIG",
            "desc": "pk(04b80c5bcaa946e3f539100e7e7379cccd431ac39958d4ef2e3eeb533000bee535078102409002f2db65ca954b6d635cfeab9f31cfb9b0ed45389b3f94bc7ddec9)#wtq8f2f8",
            "hex": "4104b80c5bcaa946e3f539100e7e7379cccd431ac39958d4ef2e3eeb533000bee535078102409002f2db65ca954b6d635cfeab9f31cfb9b0ed45389b3f94bc7ddec9ac",
            "type": "pubkey"
          }
        }
      ],
      "hex": "01000000010000000000000000000000000000000000000000000000000000000000000000ffffffff0804ffff001d02d100ffffffff0100f2052a01000000434104b80c5bcaa946e3f539100e7e7379cccd431ac39958d4ef2e3eeb533000bee535078102409002f2db65ca954b6d635cfeab9f31cfb9b0ed45389b3f94bc7ddec9ac00000000"
    }
  ]
}