{
  "hash": "00000000ebce38b15bff351dc41181858bad54956124e309046fcabe2eedf431",
  "confirmations": 48886,
  "height": 4212,
  "version": 1,
  "versionHex": "00000001",
  "merkleroot": "a3e0989da498fa9a31f72f6652a52beb2db456b4bfc67ba2ab7506c7a748dea4",
  "time": 1234586910,
  "mediantime": 1234583277,
  "nonce": 1488022586,
  "bits": "1d00ffff",
  "difficulty": 1,
  "chainwork": "0000000000000000000000000000000000000000000000000000107510751075",
  "nTx": 1,
  "previousblockhash": "00000000592c1c83214b3a5fdde8b4b3f740b5ce8da27cc2d137a2f500c407a7",
  "nextblockhash": "00000000e0d4840503e1b8230b0352d0709b65cb41afb86ca033214cac319daa",
  "strippedsize": 216,
  "size": 216,
  "weight": 864,
  "tx": [
    {
      "txid": "a3e0989da498fa9a31f72f6652a52beb2db456b4bfc67ba2ab7506c7a748dea4",
      "hash": "a3e0989da498fa9a31f72f6652a52beb2db456b4bfc67ba2ab7506c7a748dea4",
      "version": 1,
      "size": 135,
      "vsize": 135,
      "weight": 540,
      "locktime": 0,
      "vin": [
        {
          "coinbase": "04ffff001d025407",
          "sequence": 4294967295
        }
      ],
      "vout": [
        {
          "value": 50.0,
          "n": 0,
          "scriptPubKey": {
            "asm": "04585c274a7daa17be5f666b5e27a0486ef5830c3b09252938f203f537d5fe0fcffecfab8ab20c80276e9b9a317af0e0f94c553f53330e6fde409e5b827c7dec5b OP_CHECKSIG",
            "desc": "pk(04585c274a7daa17be5f666b5e27a0486ef5830c3b09252938f203f537d5fe0fcffecfab8ab20c80276e9b9a317af0e0f94c553f53330e6fde409e5b827c7dec5b)#mxupnlp7",
            "hex": "4104585c274a7daa17be5f666b5e27a0486ef5830c3b09252938f203f537d5fe0fcffecfab8ab20c80276e9b9a317af0e0f94c553f53330e6fde409e5b827c7dec5bac",
            "type": "pubkey"
          }
        }
      ],
      "hex": "01000000010000000000000000000000000000000000000000000000000000000000000000ffffffff0804ffff001d025407ffffffff0100f2052a01000000434104585c274a7daa17be5f666b5e27a0486ef5830c3b09252938f203f537d5fe0fcffecfab8ab20c80276e9b9a317af0e0f94c553f53330e6fde409e5b827c7dec5bac00000000"
    }
  ]
}