{
  "hash": "00000000791fb1702dd6462b58168d1d93dd26fb6f4755e350c319f17d208645",
  "confirmations": 52388,
  "height": 710,
  "version": 1,
  "versionHex": "00000001",
  "merkleroot": "3d84bffe18ab5f145aee829cd174e959fe8ffc596122d5e1819381c7045d693f",
  "time": 1232116727,
  "mediantime": 1232111780,
  "nonce": 1886445333,
  "bits": "1d00ffff",
  "difficulty": 1,
  "chainwork": "000000000000000000000000000000000000000000000000000002c702c702c7",
  "nTx": 1,
  "previousblockhash": "0000000060b5d78901f42d7caafa58a3a65050302180313f4f8ff30face3d066",
  "nextblockhash": "0000000002d22a938ca04106547b35996f909f1b8216389f2a97f0ef56b4b838",
  "strippedsize": 216,
  "size": 216,
  "weight": 864,
  "tx": [
    {
      "txid": "3d84bffe18ab5f145aee829cd174e959fe8ffc596122d5e1819381c7045d693f",
      "hash": "3d84bffe18ab5f145aee829cd174e959fe8ffc596122d5e1819381c7045d693f",
      "version": 1,
      "size": 135,
      "vsize": 135,
      "weight": 540,
      "locktime": 0,
      "vin": [
        {
          "coinbase": "04ffff001d023a01",
          "sequence": 4294967295
        }
      ],
      "vout": [
        {
          "value": 50.0,
          "n": 0,
          "scriptPubKey": {
            "asm": "04dcc9565f990b57e7651e03007989052371cc62460903d78402a46c460a155408874198ee0df0f88cdf10b700c16be9d04c0309d5d023bb7e0834762eaabd1a28 OP_CHECKSIG",
            "desc": "pk(04dcc9565f990b57e7651e03007989052371cc62460903d78402a46c460a155408874198ee0df0f88cdf10b700c16be9d04c0309d5d023bb7e0834762eaabd1a28)#yynx9gqr",
            "hex": "4104dcc9565f990b57e7651e03007989052371cc62460903d78402a46c460a155408874198ee0df0f88cdf10b700c16be9d04c0309d5d023bb7e0834762eaabd1a28ac",
            "type": "pubkey"
          }
        }
      ],
      "hex": "01000000010000000000000000000000000000000000000000000000000000000000000000ffffffff0804ffff001d023a01ffffffff0100f2052a01000000434104dcc9565f990b57e7651e03007989052371cc62460903d78402a46c460a155408874198ee0df0f88cdf10b700c16be9d04c0309d5d023bb7e0834762eaabd1a28ac00000000"
    }
  ]
}