{
  "hash": "00000000c1d6c5079f4f15ca5d70c4e2726a0cbadb7af5e846259dbda57fab70",
  "confirmations": 52024,
  "height": 314,
  "version": 1,
  "versionHex": "00000001",
  "merkleroot": "199608a11d1886752321567fefa3f4199ef4fffc72112a40ff69d186a46b0143",
  "time": 1231842444,
  "mediantime": 1231839504,
  "nonce": 4251447849,
  "bits": "1d00ffff",
  "difficulty": 1,
  "chainwork": "0000000000000000000000000000000000000000000000000000013b013b013b",
  "nTx": 1,
  "previousblockhash": "00000000d9d81a18ab18a373998df7230e8248d077612a6ac6f947cc02900889",
  "nextblockhash": "00000000a165e7fd7ed07f753fea6acda46f374003c7acf3e0fc508b65376b6a",
  "strippedsize": 216,
  "size": 216,
  "weight": 864,
  "tx": [
    {
      "txid": "199608a11d1886752321567fefa3f4199ef4fffc72112a40ff69d186a46b0143",
      "hash": "199608a11d1886752321567fefa3f4199ef4fffc72112a40ff69d186a46b0143",
      "version": 1,
      "size": 135,
      "vsize": 135,
      "weight": 540,
      "locktime": 0,
      "vin": [
        {
          "coinbase": "04ffff001d02ba00",
          "sequence": 4294967295
        }
      ],
      "vout": [
        {
          "value": 50.0,
          "n": 0,
          "scriptPubKey": {
            "asm": "04d3de0dfe51ed7df095fce045ce58fabdd45c9cfa917a117e31a80102659547c7944df803477e1025ebe3fd75a74abd0bcda788956a6d8f41c46506625f88b46d OP_CHECKSIG",
            "desc": "pk(04d3de0dfe51ed7df095fce045ce58fabdd45c9cfa917a117e31a80102659547c7944df803477e1025ebe3fd75a74abd0bcda788956a6d8f41c46506625f88b46d)#0x53zqzr",
            "hex": "4104d3de0dfe51ed7df095fce045ce58fabdd45c9cfa917a117e31a80102659547c7944df803477e1025ebe3fd75a74abd0bcda788956a6d8f41c46506625f88b46dac",
            "type": "pubkey"
          }
        }
      ],
      "hex": "01000000010000000000000000000000000000000000000000000000000000000000000000ffffffff0804ffff001d02ba00ffffffff0100f2052a01000000434104d3de0dfe51ed7df095fce045ce58fabdd45c9cfa917a117e31a80102659547c7944df803477e1025ebe3fd75a74abd0bcda788956a6d8f41c46506625f88b46dac00000000"
    }
  ]
}