{
  "hash": "00000000fa155e9f3f5de38c6a599f45c636431e2da0d69dd5b74d496d16ebfc",
  "confirmations": 47793,
  "height": 5305,
  "version": 1,
  "versionHex": "00000001",
  "merkleroot": "f931599d54570fe512998f6bacddd1818fb49ba0054d23cb7f8a865b75ca2c7f",
  "time": 1235367525,
  "mediantime": 1235363590,
  "nonce": 33658456,
  "bits": "1d00ffff",
  "difficulty": 1,
  "chainwork": "000000000000000000000000000000000000000000000000000014ba14ba14ba",
  "nTx": 1,
  "previousblockhash": "00000000d19d25323ac06516ea4c42759f77a6a167b9a4e041f0951d198d9c00",
  "nextblockhash": "0000000018edf41e62ab980d173d3072b77b699a7a1c0d511b6e84de228fa95f",
  "strippedsize": 215,
  "size": 215,
  "weight": 860,
  "tx": [
    {
      "txid": "f931599d54570fe512998f6bacddd1818fb49ba0054d23cb7f8a865b75ca2c7f",
      "hash": "f931599d54570fe512998f6bacddd1818fb49ba0054d23cb7f8a865b75ca2c7f",
      "version": 1,
      "size": 134,
      "vsize": 134,
      "weight": 536,
      "locktime": 0,
      "vin": [
        {
          "coinbase": "04ffff001d015a",
          "sequence": 4294967295
        }
      ],
      "vout": [
        {
          "value": 50.0,
          "n": 0,
          "scriptPubKey": {
            "asm": "04dd6d7e2b49eafd05217ba889751f98b2263dad2e4c94935c6effbe808fdd0717e688d93726e86b79a76795a2ce373e965f7595ad243b402bd1856b4e9bfc775c OP_CHECKSIG",
            "desc": "pk(04dd6d7e2b49eafd05217ba889751f98b2263dad2e4c94935c6effbe808fdd0717e688d93726e86b79a76795a2ce373e965f7595ad243b402bd1856b4e9bfc775c)#2wt7dcq7",
            "hex": "4104dd6d7e2b49eafd05217ba889751f98b2263dad2e4c94935c6effbe808fdd0717e688d93726e86b79a76795a2ce373e965f7595ad243b402bd1856b4e9bfc775cac",
            "type": "pubkey"
          }
        }
      ],
      "hex": "01000000010000000000000000000000000000000000000000000000000000000000000000ffffffff0704ffff001d015affffffff0100f2052a01000000434104dd6d7e2b49eafd05217ba889751f98b2263dad2e4c94935c6effbe808fdd0717e688d93726e86b79a76795a2ce373e965f7595ad243b402bd1856b4e9bfc775cac00000000"
    }
  ]
}