{
  "hash": "00000000e3d54bc8d811f23952e3544a33e3de7713cd31120ed743938edc78a6",
  "confirmations": 46324,
  "height": 6774,
  "version": 1,
  "versionHex": "00000001",
  "merkleroot": "437aa368a0e5f9ab56762ba3ab5b328b8cc8f09c48543d0aa12c542303fc121e",
  "time": 1236540229,
  "mediantime": 1236535869,
  "nonce": 3433974561,
  "bits": "1d00ffff",
  "difficulty": 1,
  "chainwork": "00000000000000000000000000000000000000000000000000001a771a771a77",
  "nTx": 1,
  "previousblockhash": "00000000390f30d60559c178ceaee9a3962a12918c301fd515bd1afd7e9adc07",
  "nextblockhash": "000000008ca2f9173c925ab91de3664a09f3b4f3c5b03c9edf62f0bddefe65c1",
  "strippedsize": 216,
  "size": 216,
  "weight": 864,
  "tx": [
    {
      "txid": "437aa368a0e5f9ab56762ba3ab5b328b8cc8f09c48543d0aa12c542303fc121e",
      "hash": "437aa368a0e5f9ab56762ba3ab5b328b8cc8f09c48543d0aa12c542303fc121e",
      "version": 1,
      "size": 135,
      "vsize": 135,
      "weight": 540,
      "locktime": 0,
      "vin": [
        {
          "coinbase": "04ffff001d027208",
          "sequence": 4294967295
        }
      ],
      "vout": [
        {
          "value": 50.0,
          "n": 0,
          "scriptPubKey": {
            "asm": "0471a7faa18273bbb910653b72cad2296af410ced94944fb739821b06aa9c14c5e82756b1495d868bdede0a9041782d160e001cf967c40b234c35b9e53de8df462 OP_CHECKSIG",
            "desc": "pk(0471a7faa18273bbb910653b72cad2296af410ced94944fb739821b06aa9c14c5e82756b1495d868bdede0a9041782d160e001cf967c40b234c35b9e53de8df462)#m5uyc2la",
            "hex": "410471a7faa18273bbb910653b72cad2296af410ced94944fb739821b06aa9c14c5e82756b1495d868bdede0a9041782d160e001cf967c40b234c35b9e53de8df462ac",
            "type": "pubkey"
          }
        }
      ],
      "hex": "01000000010000000000000000000000000000000000000000000000000000000000000000ffffffff0804ffff001d027208ffffffff0100f2052a0100000043410471a7faa18273bbb910653b72cad2296af410ced94944fb739821b06aa9c14c5e82756b1495d868bdede0a9041782d160e001cf967c40b234c35b9e53de8df462ac00000000"
    }
  ]
}