{
  "hash": "000000008d0c0a890bbdc4cc9fa5810e5245f8d413805e799d4a323096c1e5c8",
  "confirmations": 46301,
  "height": 6797,
  "version": 1,
  "versionHex": "00000001",
  "merkleroot": "aaeee2bbe41b0babc42f97c5293d7c7023de2c895067c8160ed7452ccdbd7f07",
  "time": 1236555784,
  "mediantime": 1236552348,
  "nonce": 895811109,
  "bits": "1d00ffff",
  "difficulty": 1,
  "chainwork": "00000000000000000000000000000000000000000000000000001a8e1a8e1a8e",
  "nTx": 1,
  "previousblockhash": "00000000fdfa6c237d959076bb37ff2826d176641395fee32b917c66bae09375",
  "nextblockhash": "00000000fca73a317b1903e03b50176a96706a2a87d7873c75b9ebcf574df28c",
  "strippedsize": 216,
  "size": 216,
  "weight": 864,
  "tx": [
    {
      "txid": "aaeee2bbe41b0babc42f97c5293d7c7023de2c895067c8160ed7452ccdbd7f07",
      "hash": "aaeee2bbe41b0babc42f97c5293d7c7023de2c895067c8160ed7452ccdbd7f07",
      "version": 1,
      "size": 135,
      "vsize": 135,
      "weight": 540,
      "locktime": 0,
      "vin": [
        {
          "coinbase": "04ffff001d020009",
          "sequence": 4294967295
        }
      ],
      "vout": [
        {
          "value": 50.0,
          "n": 0,
          "scriptPubKey": {
            "asm": "04553249076c58cba6ae20a5477b6bebf3ed6faa0706838f075b0c0c875c79bf3be814ed06f498c6588b22d2637065f9ced6b5509ff321c2495d7a5efa7eb28383 OP_CHECKSIG",
            "desc": "pk(04553249076c58cba6ae20a5477b6bebf3ed6faa0706838f075b0c0c875c79bf3be814ed06f498c6588b22d2637065f9ced6b5509ff321c2495d7a5efa7eb28383)#w7swmxaz",
            "hex": "4104553249076c58cba6ae20a5477b6bebf3ed6faa0706838f075b0c0c875c79bf3be814ed06f498c6588b22d2637065f9ced6b5509ff321c2495d7a5efa7eb28383ac",
            "type": "pubkey"
          }
        }
      ],
      "hex": "01000000010000000000000000000000000000000000000000000000000000000000000000ffffffff0804ffff001d020009ffffffff0100f2052a01000000434104553249076c58cba6ae20a5477b6bebf3ed6faa0706838f075b0c0c875c79bf3be814ed06f498c6588b22d2637065f9ced6b5509ff321c2495d7a5efa7eb28383ac00000000"
    }
  ]
}