{
  "hash": "000000003a69e0aab7081522505c924d77e2df59c44c7d72bfd303ef3f159869",
  "confirmations": 44795,
  "height": 8303,
  "version": 1,
  "versionHex": "00000001",
  "merkleroot": "73355b0601e8d940dec6f97e9f1ac0e39d64af8c1415cb1829095dde001fe347",
  "time": 1237731860,
  "mediantime": 1237728756,
  "nonce": 765406760,
  "bits": "1d00ffff",
  "difficulty": 1,
  "chainwork": "0000000000000000000000000000000000000000000000000000207020702070",
  "nTx": 1,
  "previousblockhash": "0000000005b3f15cee9e54a4b046562bac7158c8d5915ffaaa16396708daaeec",
  "nextblockhash": "0000000026cb5f5f1a5482e8a3fccd8328053f01d84765966b61c3b8468f9872",
  "strippedsize": 216,
  "size": 216,
  "weight": 864,
  "tx": [
    {
      "txid": "73355b0601e8d940dec6f97e9f1ac0e39d64af8c1415cb1829095dde001fe347",
      "hash": "73355b0601e8d940dec6f97e9f1ac0e39d64af8c1415cb1829095dde001fe347",
      "version": 1,
      "size": 135,
      "vsize": 135,
      "weight": 540,
      "locktime": 0,
      "vin": [
        {
          "coinbase": "04ffff001d022e04",
          "sequence": 4294967295
        }
      ],
      "vout": [
        {
          "value": 50.0,
          "n": 0,
          "scriptPubKey": {
            "asm": "045054d185a7b352c11f669aa6ad21474246ca1bd19a1eac60feac6fb64501595a952c606f71a1ae33e46376492a90f41bd1e4ddf4b434790c00861fc1651211b0 OP_CHECKSIG",
            "desc": "pk(045054d185a7b352c11f669aa6ad21474246ca1bd19a1eac60feac6fb64501595a952c606f71a1ae33e46376492a90f41bd1e4ddf4b434790c00861fc1651211b0)#86r63trl",
            "hex": "41045054d185a7b352c11f669aa6ad21474246ca1bd19a1eac60feac6fb64501595a952c606f71a1ae33e46376492a90f41bd1e4ddf4b434790c00861fc1651211b0ac",
            "type": "pubkey"
          }
        }
      ],
      "hex": "01000000010000000000000000000000000000000000000000000000000000000000000000ffffffff0804ffff001d022e04ffffffff0100f2052a010000004341045054d185a7b352c11f669aa6ad21474246ca1bd19a1eac60feac6fb64501595a952c606f71a1ae33e46376492a90f41bd1e4ddf4b434790c00861fc1651211b0ac00000000"
    }
  ]
}