{
  "hash": "00000000a105efad7932483c4a82aea3ef3aaad1629d825dca80b78206a0b670",
  "confirmations": 51624,
  "height": 1474,
  "version": 1,
  "versionHex": "00000001",
  "merkleroot": "ccc571d8106ef2338085624b70c981321a388b6bc53e59a30e7d97d4796d5b75",
  "time": 1232756930,
  "mediantime": 1232754989,
  "nonce": 2293444900,
  "bits": "1d00ffff",
  "difficulty": 1,
  "chainwork": "000000000000000000000000000000000000000000000000000005c305c305c3",
  "nTx": 1,
  "previousblockhash": "000000005695bd272704009b6a34cd94e96d7edac90aeb8f717687b1c89b76cb",
  "nextblockhash": "0000000010534ec39cb6ebefeb87faaadeb1e38fe1a170350f1b20402ddb0c5d",
  "strippedsize": 216,
  "size": 216,
  "weight": 864,
  "tx": [
    {
      "txid": "ccc571d8106ef2338085624b70c981321a388b6bc53e59a30e7d97d4796d5b75",
      "hash": "ccc571d8106ef2338085624b70c981321a388b6bc53e59a30e7d97d4796d5b75",
      "version": 1,
      "size": 135,
      "vsize": 135,
      "weight": 540,
      "locktime": 0,
      "vin": [
        {
          "coinbase": "04ffff001d02f000",
          "sequence": 4294967295
        }
      ],
      "vout": [
        {
          "value": 50.0,
          "n": 0,
          "scriptPubKey": {
            "asm": "04e9ab49ab67e62b4fc39f6e2fea213d0ee0aded46b587fb70d8e7245074dc6b7098aa01845e732bfbe90f8686e0b380d10c4c75893864499940fd85c99c4c0545 OP_CHECKSIG",
            "desc": "pk(04e9ab49ab67e62b4fc39f6e2fea213d0ee0aded46b587fb70d8e7245074dc6b7098aa01845e732bfbe90f8686e0b380d10c4c75893864499940fd85c99c4c0545)#06e9jfwm",
            "hex": "4104e9ab49ab67e62b4fc39f6e2fea213d0ee0aded46b587fb70d8e7245074dc6b7098aa01845e732bfbe90f8686e0b380d10c4c75893864499940fd85c99c4c0545ac",
            "type": "pubkey"
          }
        }
      ],
      "hex": "01000000010000000000000000000000000000000000000000000000000000000000000000ffffffff0804ffff001d02f000ffffffff0100f2052a01000000434104e9ab49ab67e62b4fc39f6e2fea213d0ee0aded46b587fb70d8e7245074dc6b7098aa01845e732bfbe90f8686e0b380d10c4c75893864499940fd85c99c4c0545ac00000000"
    }
  ]
}