{
  "hash": "00000000473b084fcbbb758d55663bf61e561da45d31c61cef1daaf74856a81c",
  "confirmations": 44557,
  "height": 8541,
  "version": 1,
  "versionHex": "00000001",
  "merkleroot": "eeec71ec804d17c046a52f9687becc5fec9bcbb0d8b37ca577044c125ecc5bb3",
  "time": 1237903797,
  "mediantime": 1237899652,
  "nonce": 3033041442,
  "bits": "1d00ffff",
  "difficulty": 1,
  "chainwork": "0000000000000000000000000000000000000000000000000000215e215e215e",
  "nTx": 1,
  "previousblockhash": "00000000911afceb9077f749a2a13b7b29dc3ba50707c5d9dfba246405fd1066",
  "nextblockhash": "00000000a41fd417f88c0d13b16c5496daee3d25a2d376c9677ab4cc37f4424a",
  "strippedsize": 216,
  "size": 216,
  "weight": 864,
  "tx": [
    {
      "txid": "eeec71ec804d17c046a52f9687becc5fec9bcbb0d8b37ca577044c125ecc5bb3",
      "hash": "eeec71ec804d17c046a52f9687becc5fec9bcbb0d8b37ca577044c125ecc5bb3",
      "version": 1,
      "size": 135,
      "vsize": 135,
      "weight": 540,
      "locktime": 0,
      "vin": [
        {
          "coinbase": "04ffff001d028508",
          "sequence": 4294967295
        }
      ],
      "vout": [
        {
          "value": 50.0,
          "n": 0,
          "scriptPubKey": {
            "asm": "04e14265eb9e4827766cef5f8ce37a91395a61bb1900ccc1dbaf3d2dbfa90934c4c003fcf99f7eaafc9ef391f518832300ec8e3ccfef6aae4e05fee63de13fd644 OP_CHECKSIG",
            "desc": "pk(04e14265eb9e4827766cef5f8ce37a91395a61bb1900ccc1dbaf3d2dbfa90934c4c003fcf99f7eaafc9ef391f518832300ec8e3ccfef6aae4e05fee63de13fd644)#hp3rddhh",
            "hex": "4104e14265eb9e4827766cef5f8ce37a91395a61bb1900ccc1dbaf3d2dbfa90934c4c003fcf99f7eaafc9ef391f518832300ec8e3ccfef6aae4e05fee63de13fd644ac",
            "type": "pubkey"
          }
        }
      ],
      "hex": "01000000010000000000000000000000000000000000000000000000000000000000000000ffffffff0804ffff001d028508ffffffff0100f2052a01000000434104e14265eb9e4827766cef5f8ce37a91395a61bb1900ccc1dbaf3d2dbfa90934c4c003fcf99f7eaafc9ef391f518832300ec8e3ccfef6aae4e05fee63de13fd644ac00000000"
    }
  ]
}