{
  "hash": "00000000375cc7513d56fdbba5c1e1adb0d69e662fd09dd14238bc627b66aadc",
  "confirmations": 52033,
  "height": 304,
  "version": 1,
  "versionHex": "00000001",
  "merkleroot": "59a89b39a39db71b950be0dc8677be71a853260fc0250ef25e71fb0ad8196fdf",
  "time": 1231835642,
  "mediantime": 1231831694,
  "nonce": 416173622,
  "bits": "1d00ffff",
  "difficulty": 1,
  "chainwork": "0000000000000000000000000000000000000000000000000000013101310131",
  "nTx": 1,
  "previousblockhash": "000000006be00235ed1d0b71d20f33c3daaba0a3ebd8169967ce94e32b288860",
  "nextblockhash": "0000000055650460d2d0c657bfbc52cac36a01a95bc5296446b50b79269cde67",
  "strippedsize": 216,
  "size": 216,
  "weight": 864,
  "tx": [
    {
      "txid": "59a89b39a39db71b950be0dc8677be71a853260fc0250ef25e71fb0ad8196fdf",
      "hash": "59a89b39a39db71b950be0dc8677be71a853260fc0250ef25e71fb0ad8196fdf",
      "version": 1,
      "size": 135,
      "vsize": 135,
      "weight": 540,
      "locktime": 0,
      "vin": [
        {
          "coinbase": "04ffff001d028200",
          "sequence": 4294967295
        }
      ],
      "vout": [
        {
          "value": 50.0,
          "n": 0,
          "scriptPubKey": {
            "asm": "044c34930120df2c6dbef3a8ee768c69b40fe664291796e575f363bda1728876ac3b77c56a69c053014ea8bf79aba2f15faa60707bca2e125ded287dc8be2fb0ac OP_CHECKSIG",
            "desc": "pk(044c34930120df2c6dbef3a8ee768c69b40fe664291796e575f363bda1728876ac3b77c56a69c053014ea8bf79aba2f15faa60707bca2e125ded287dc8be2fb0ac)#7lw9p0pj",
            "hex": "41044c34930120df2c6dbef3a8ee768c69b40fe664291796e575f363bda1728876ac3b77c56a69c053014ea8bf79aba2f15faa60707bca2e125ded287dc8be2fb0acac",
            "type": "pubkey"
          }
        }
      ],
      "hex": "01000000010000000000000000000000000000000000000000000000000000000000000000ffffffff0804ffff001d028200ffffffff0100f2052a010000004341044c34930120df2c6dbef3a8ee768c69b40fe664291796e575f363bda1728876ac3b77c56a69c053014ea8bf79aba2f15faa60707bca2e125ded287dc8be2fb0acac00000000"
    }
  ]
}