{
  "hash": "000000001eb7936cd07a1a9d2454468f93c0732bd12c2c19433e0510b6df71cc",
  "confirmations": 43298,
  "height": 9800,
  "version": 1,
  "versionHex": "00000001",
  "merkleroot": "d9cf6ddb3420901bde53a1becae2ac63e6223411e4e334c787806196911c0c14",
  "time": 1238856609,
  "mediantime": 1238853165,
  "nonce": 680978232,
  "bits": "1d00ffff",
  "difficulty": 1,
  "chainwork": "0000000000000000000000000000000000000000000000000000264926492649",
  "nTx": 1,
  "previousblockhash": "000000009850880db11b7ec0c5f2394d70e1a4e0b345348439542a736fdab3d3",
  "nextblockhash": "000000001e46be0459127a37770c88d455485b00d3ea4a4b93dd76dca6055401",
  "strippedsize": 215,
  "size": 215,
  "weight": 860,
  "tx": [
    {
      "txid": "d9cf6ddb3420901bde53a1becae2ac63e6223411e4e334c787806196911c0c14",
      "hash": "d9cf6ddb3420901bde53a1becae2ac63e6223411e4e334c787806196911c0c14",
      "version": 1,
      "size": 134,
      "vsize": 134,
      "weight": 536,
      "locktime": 0,
      "vin": [
        {
          "coinbase": "04ffff001d0140",
          "sequence": 4294967295
        }
      ],
      "vout": [
        {
          "value": 50.0,
          "n": 0,
          "scriptPubKey": {
            "asm": "04588e62f58c1732ec7e85c1412fd7c8c3f7629afe049b92b526d9cd1ea0f8cbd5b2dc63b10f8dd9c66934f54a22dcce6a7dfcd91d68fb120600f1473f2c6e71c4 OP_CHECKSIG",
            "desc": "pk(04588e62f58c1732ec7e85c1412fd7c8c3f7629afe049b92b526d9cd1ea0f8cbd5b2dc63b10f8dd9c66934f54a22dcce6a7dfcd91d68fb120600f1473f2c6e71c4)#z4ayk743",
            "hex": "4104588e62f58c1732ec7e85c1412fd7c8c3f7629afe049b92b526d9cd1ea0f8cbd5b2dc63b10f8dd9c66934f54a22dcce6a7dfcd91d68fb120600f1473f2c6e71c4ac",
            "type": "pubkey"
          }
        }
      ],
      "hex": "01000000010000000000000000000000000000000000000000000000000000000000000000ffffffff0704ffff001d0140ffffffff0100f2052a01000000434104588e62f58c1732ec7e85c1412fd7c8c3f7629afe049b92b526d9cd1ea0f8cbd5b2dc63b10f8dd9c66934f54a22dcce6a7dfcd91d68fb120600f1473f2c6e71c4ac00000000"
    }
  ]
}