{
  "hash": "000000009c65177a855fd521aaa68c8cd201d00a2e150492c1316fa966d3bf77",
  "confirmations": 44141,
  "height": 8957,
  "version": 1,
  "versionHex": "00000001",
  "merkleroot": "8e2e8436fc5c7aaaf827fd51b54fc7bd6d9da086ff202371be19e8189f526491",
  "time": 1238222397,
  "mediantime": 1238218845,
  "nonce": 391542311,
  "bits": "1d00ffff",
  "difficulty": 1,
  "chainwork": "000000000000000000000000000000000000000000000000000022fe22fe22fe",
  "nTx": 1,
  "previousblockhash": "00000000f8ebad1ffcbac17cf59d63d7ca863344143fd2224b7db74cd644d0b3",
  "nextblockhash": "00000000cee528a564ecef212f781c6a45665cfbaae208302bb13cc6b9e26304",
  "strippedsize": 216,
  "size": 216,
  "weight": 864,
  "tx": [
    {
      "txid": "8e2e8436fc5c7aaaf827fd51b54fc7bd6d9da086ff202371be19e8189f526491",
      "hash": "8e2e8436fc5c7aaaf827fd51b54fc7bd6d9da086ff202371be19e8189f526491",
      "version": 1,
      "size": 135,
      "vsize": 135,
      "weight": 540,
      "locktime": 0,
      "vin": [
        {
          "coinbase": "04ffff001d029b05",
          "sequence": 4294967295
        }
      ],
      "vout": [
        {
          "value": 50.0,
          "n": 0,
          "scriptPubKey": {
            "asm": "0473db658db1c029558fef0a6351955454ea4731c67fdfe8686ef023055c18636f31dcba8cd3e8a0ef6f5668a69d70af79fa6f18bf509e9137358f873dbf089bdb OP_CHECKSIG",
            "desc": "pk(0473db658db1c029558fef0a6351955454ea4731c67fdfe8686ef023055c18636f31dcba8cd3e8a0ef6f5668a69d70af79fa6f18bf509e9137358f873dbf089bdb)#mswe6jml",
            "hex": "410473db658db1c029558fef0a6351955454ea4731c67fdfe8686ef023055c18636f31dcba8cd3e8a0ef6f5668a69d70af79fa6f18bf509e9137358f873dbf089bdbac",
            "type": "pubkey"
          }
        }
      ],
      "hex": "01000000010000000000000000000000000000000000000000000000000000000000000000ffffffff0804ffff001d029b05ffffffff0100f2052a0100000043410473db658db1c029558fef0a6351955454ea4731c67fdfe8686ef023055c18636f31dcba8cd3e8a0ef6f5668a69d70af79fa6f18bf509e9137358f873dbf089bdbac00000000"
    }
  ]
}