{
  "hash": "000000005da08bbaf957e1435eb426248e1901db44c2a541992b560c9fd9246c",
  "confirmations": 44014,
  "height": 9084,
  "version": 1,
  "versionHex": "00000001",
  "merkleroot": "16a82762838fce0e1af20fd0f416d648210a62ebf4eb283bdedf0198ab0939ab",
  "time": 1238320117,
  "mediantime": 1238316178,
  "nonce": 1643144222,
  "bits": "1d00ffff",
  "difficulty": 1,
  "chainwork": "0000000000000000000000000000000000000000000000000000237d237d237d",
  "nTx": 1,
  "previousblockhash": "00000000522e3f73bceb3542be4222cf5395255571ea7aa8ccf67a3bfd318c82",
  "nextblockhash": "000000004b803960d7ba557bea43d87d84616871bdc16449c862ac3e39b125fb",
  "strippedsize": 216,
  "size": 216,
  "weight": 864,
  "tx": [
    {
      "txid": "16a82762838fce0e1af20fd0f416d648210a62ebf4eb283bdedf0198ab0939ab",
      "hash": "16a82762838fce0e1af20fd0f416d648210a62ebf4eb283bdedf0198ab0939ab",
      "version": 1,
      "size": 135,
      "vsize": 135,
      "weight": 540,
      "locktime": 0,
      "vin": [
        {
          "coinbase": "04ffff001d020f08",
          "sequence": 4294967295
        }
      ],
      "vout": [
        {
          "value": 50.0,
          "n": 0,
          "scriptPubKey": {
            "asm": "045353d5bd04fd5799a49a61b12d487b37067f4f9db76fd81b7f26ec0d4512dc8b40fadc85feea0579be156962af049a1213e34d699b2c16a7a5b8ec6867ff923e OP_CHECKSIG",
            "desc": "pk(045353d5bd04fd5799a49a61b12d487b37067f4f9db76fd81b7f26ec0d4512dc8b40fadc85feea0579be156962af049a1213e34d699b2c16a7a5b8ec6867ff923e)#eqrnjzh8",
            "hex": "41045353d5bd04fd5799a49a61b12d487b37067f4f9db76fd81b7f26ec0d4512dc8b40fadc85feea0579be156962af049a1213e34d699b2c16a7a5b8ec6867ff923eac",
            "type": "pubkey"
          }
        }
      ],
      "hex": "01000000010000000000000000000000000000000000000000000000000000000000000000ffffffff0804ffff001d020f08ffffffff0100f2052a010000004341045353d5bd04fd5799a49a61b12d487b37067f4f9db76fd81b7f26ec0d4512dc8b40fadc85feea0579be156962af049a1213e34d699b2c16a7a5b8ec6867ff923eac00000000"
    }
  ]
}