{
  "hash": "00000000b8dc5f844239cdf2a13a5e4a71b3e767c13004d310a5042696a0517b",
  "confirmations": 44997,
  "height": 8101,
  "version": 1,
  "versionHex": "00000001",
  "merkleroot": "f096855f610567d1901115c83b6f576465f82bdf7f36f91b787031304182f421",
  "time": 1237532923,
  "mediantime": 1237528536,
  "nonce": 1351547170,
  "bits": "1d00ffff",
  "difficulty": 1,
  "chainwork": "00000000000000000000000000000000000000000000000000001fa61fa61fa6",
  "nTx": 1,
  "previousblockhash": "000000001979ca78bede4c240bc903db3c4893be5db8b6fcc09c9077cc820082",
  "nextblockhash": "0000000068d5e34919adf6d656f9d6e11ab372224221e48c24e3b9b6c258ac59",
  "strippedsize": 216,
  "size": 216,
  "weight": 864,
  "tx": [
    {
      "txid": "f096855f610567d1901115c83b6f576465f82bdf7f36f91b787031304182f421",
      "hash": "f096855f610567d1901115c83b6f576465f82bdf7f36f91b787031304182f421",
      "version": 1,
      "size": 135,
      "vsize": 135,
      "weight": 540,
      "locktime": 0,
      "vin": [
        {
          "coinbase": "04ffff001d022701",
          "sequence": 4294967295
        }
      ],
      "vout": [
        {
          "value": 50.0,
          "n": 0,
          "scriptPubKey": {
            "asm": "04a7331340589440a14db399f8fbbc10cefbccc4043d4023302ab1ad3987b216669cf2ea5a9213f5980d5fb6a928c6308b870e92fd0481db31455cde7537b37c13 OP_CHECKSIG",
            "desc": "pk(04a7331340589440a14db399f8fbbc10cefbccc4043d4023302ab1ad3987b216669cf2ea5a9213f5980d5fb6a928c6308b870e92fd0481db31455cde7537b37c13)#7j0s5juc",
            "hex": "4104a7331340589440a14db399f8fbbc10cefbccc4043d4023302ab1ad3987b216669cf2ea5a9213f5980d5fb6a928c6308b870e92fd0481db31455cde7537b37c13ac",
            "type": "pubkey"
          }
        }
      ],
      "hex": "01000000010000000000000000000000000000000000000000000000000000000000000000ffffffff0804ffff001d022701ffffffff0100f2052a01000000434104a7331340589440a14db399f8fbbc10cefbccc4043d4023302ab1ad3987b216669cf2ea5a9213f5980d5fb6a928c6308b870e92fd0481db31455cde7537b37c13ac00000000"
    }
  ]
}