{
  "hash": "00000000f90147358404dfd986c23e2f9cac57537a7ceab02c350e2c38bb20ae",
  "confirmations": 44637,
  "height": 8461,
  "version": 1,
  "versionHex": "00000001",
  "merkleroot": "9e5f3c2812537ee6e5702fb1f059c0a22ff01d897e633c7dabc90f3ce1071f64",
  "time": 1237838182,
  "mediantime": 1237834073,
  "nonce": 3840416058,
  "bits": "1d00ffff",
  "difficulty": 1,
  "chainwork": "0000000000000000000000000000000000000000000000000000210e210e210e",
  "nTx": 1,
  "previousblockhash": "00000000d36813aaa6d2e7515029679f142b0a42be684e23e91498648bacb7b9",
  "nextblockhash": "00000000fad20effda3e87cd77d15cad42364b58f66fca28dda4b34363c671a7",
  "strippedsize": 216,
  "size": 216,
  "weight": 864,
  "tx": [
    {
      "txid": "9e5f3c2812537ee6e5702fb1f059c0a22ff01d897e633c7dabc90f3ce1071f64",
      "hash": "9e5f3c2812537ee6e5702fb1f059c0a22ff01d897e633c7dabc90f3ce1071f64",
      "version": 1,
      "size": 135,
      "vsize": 135,
      "weight": 540,
      "locktime": 0,
      "vin": [
        {
          "coinbase": "04ffff001d02f206",
          "sequence": 4294967295
        }
      ],
      "vout": [
        {
          "value": 50.0,
          "n": 0,
          "scriptPubKey": {
            "asm": "0476339a28a11bc59ce2f463fece78da1e3246a601bfa54878de9dcf654aaea79f28d34cb5d0edec7ec8f408a7308dd5151b21e7c190634f60d8fc41494b5d5a9e OP_CHECKSIG",
            "desc": "pk(0476339a28a11bc59ce2f463fece78da1e3246a601bfa54878de9dcf654aaea79f28d34cb5d0edec7ec8f408a7308dd5151b21e7c190634f60d8fc41494b5d5a9e)#34qy3sgq",
            "hex": "410476339a28a11bc59ce2f463fece78da1e3246a601bfa54878de9dcf654aaea79f28d34cb5d0edec7ec8f408a7308dd5151b21e7c190634f60d8fc41494b5d5a9eac",
            "type": "pubkey"
          }
        }
      ],
      "hex": "01000000010000000000000000000000000000000000000000000000000000000000000000ffffffff0804ffff001d02f206ffffffff0100f2052a0100000043410476339a28a11bc59ce2f463fece78da1e3246a601bfa54878de9dcf654aaea79f28d34cb5d0edec7ec8f408a7308dd5151b21e7c190634f60d8fc41494b5d5a9eac00000000"
    }
  ]
}