{
  "hash": "00000000bf9d10a122b4b9c96fdd46c270f3e311074dccede28e37f421e634bd",
  "confirmations": 48074,
  "height": 5024,
  "version": 1,
  "versionHex": "00000001",
  "merkleroot": "f3543b62b9e328e632b6be96fee0ca90b01a30b9ef56ab4bb830d4f43b08177b",
  "time": 1235154011,
  "mediantime": 1235149164,
  "nonce": 2598431,
  "bits": "1d00ffff",
  "difficulty": 1,
  "chainwork": "000000000000000000000000000000000000000000000000000013a113a113a1",
  "nTx": 1,
  "previousblockhash": "00000000bdf23d97d052042f298c0c7f54b9b58f79736dbb451f4fcae20b0a8f",
  "nextblockhash": "00000000f312b1fcbfdf1b5a75d2414e4f3d1e28fd90f2e45c1a4a677cca45f1",
  "strippedsize": 216,
  "size": 216,
  "weight": 864,
  "tx": [
    {
      "txid": "f3543b62b9e328e632b6be96fee0ca90b01a30b9ef56ab4bb830d4f43b08177b",
      "hash": "f3543b62b9e328e632b6be96fee0ca90b01a30b9ef56ab4bb830d4f43b08177b",
      "version": 1,
      "size": 135,
      "vsize": 135,
      "weight": 540,
      "locktime": 0,
      "vin": [
        {
          "coinbase": "04ffff001d027707",
          "sequence": 4294967295
        }
      ],
      "vout": [
        {
          "value": 50.0,
          "n": 0,
          "scriptPubKey": {
            "asm": "04216d7fc119e84f87d9065c78e4cd766bd926a85c206198554ee35ae5b9da70bfd728f6e5a48cc9d7bcff75ca28c71520c04e0e6aa934de8dc76cec54bf630518 OP_CHECKSIG",
            "desc": "pk(04216d7fc119e84f87d9065c78e4cd766bd926a85c206198554ee35ae5b9da70bfd728f6e5a48cc9d7bcff75ca28c71520c04e0e6aa934de8dc76cec54bf630518)#3u2w7t5v",
            "hex": "4104216d7fc119e84f87d9065c78e4cd766bd926a85c206198554ee35ae5b9da70bfd728f6e5a48cc9d7bcff75ca28c71520c04e0e6aa934de8dc76cec54bf630518ac",
            "type": "pubkey"
          }
        }
      ],
      "hex": "01000000010000000000000000000000000000000000000000000000000000000000000000ffffffff0804ffff001d027707ffffffff0100f2052a01000000434104216d7fc119e84f87d9065c78e4cd766bd926a85c206198554ee35ae5b9da70bfd728f6e5a48cc9d7bcff75ca28c71520c04e0e6aa934de8dc76cec54bf630518ac00000000"
    }
  ]
}