{
  "hash": "000000002c3882089940d09fc7600b27f424fe37e7fa87ceb8cbfde2ee4de3c6",
  "confirmations": 44836,
  "height": 8262,
  "version": 1,
  "versionHex": "00000001",
  "merkleroot": "55da7a27efd300e0ebedb70158ce79294b273ba95fb7cefab53978f4c251c9f0",
  "time": 1237706308,
  "mediantime": 1237701347,
  "nonce": 3589618991,
  "bits": "1d00ffff",
  "difficulty": 1,
  "chainwork": "0000000000000000000000000000000000000000000000000000204720472047",
  "nTx": 1,
  "previousblockhash": "000000007d9ce5771c37918162b59f093329e00973feeb9e53f568950057625d",
  "nextblockhash": "000000001387aa638f0d2b584da63a8f101ac6ee167df801f3f1c685f72a7abc",
  "strippedsize": 216,
  "size": 216,
  "weight": 864,
  "tx": [
    {
      "txid": "55da7a27efd300e0ebedb70158ce79294b273ba95fb7cefab53978f4c251c9f0",
      "hash": "55da7a27efd300e0ebedb70158ce79294b273ba95fb7cefab53978f4c251c9f0",
      "version": 1,
      "size": 135,
      "vsize": 135,
      "weight": 540,
      "locktime": 0,
      "vin": [
        {
          "coinbase": "04ffff001d029f03",
          "sequence": 4294967295
        }
      ],
      "vout": [
        {
          "value": 50.0,
          "n": 0,
          "scriptPubKey": {
            "asm": "041cfc1ecbfb0249f952e847955940b94ddb1b7f2bb589374de9fbdceb64993f660f9448ab57256347ea85119054e3fb594c25c98f2b6abe758552e5305b5afe47 OP_CHECKSIG",
            "desc": "pk(041cfc1ecbfb0249f952e847955940b94ddb1b7f2bb589374de9fbdceb64993f660f9448ab57256347ea85119054e3fb594c25c98f2b6abe758552e5305b5afe47)#t3jrn0eg",
            "hex": "41041cfc1ecbfb0249f952e847955940b94ddb1b7f2bb589374de9fbdceb64993f660f9448ab57256347ea85119054e3fb594c25c98f2b6abe758552e5305b5afe47ac",
            "type": "pubkey"
          }
        }
      ],
      "hex": "01000000010000000000000000000000000000000000000000000000000000000000000000ffffffff0804ffff001d029f03ffffffff0100f2052a010000004341041cfc1ecbfb0249f952e847955940b94ddb1b7f2bb589374de9fbdceb64993f660f9448ab57256347ea85119054e3fb594c25c98f2b6abe758552e5305b5afe47ac00000000"
    }
  ]
}