{
  "hash": "00000000484bd8ea4a2a306a2b5ff8d6a3529df0097237183a9924d1d1a8073b",
  "confirmations": 52496,
  "height": 602,
  "version": 1,
  "versionHex": "00000001",
  "merkleroot": "50e8da79b6aaf9101667a3e13358c712eee61d565a887ff3c5e00b922b88f070",
  "time": 1232040312,
  "mediantime": 1232036790,
  "nonce": 1763174164,
  "bits": "1d00ffff",
  "difficulty": 1,
  "chainwork": "0000000000000000000000000000000000000000000000000000025b025b025b",
  "nTx": 1,
  "previousblockhash": "00000000a893fa1871e9a349309b47a9fd30520eff9605d52d981419cc210884",
  "nextblockhash": "0000000051654a00514d993e928b21e06c47dc16d4e289bb435ea6f7d55b357b",
  "strippedsize": 216,
  "size": 216,
  "weight": 864,
  "tx": [
    {
      "txid": "50e8da79b6aaf9101667a3e13358c712eee61d565a887ff3c5e00b922b88f070",
      "hash": "50e8da79b6aaf9101667a3e13358c712eee61d565a887ff3c5e00b922b88f070",
      "version": 1,
      "size": 135,
      "vsize": 135,
      "weight": 540,
      "locktime": 0,
      "vin": [
        {
          "coinbase": "04ffff001d02b906",
          "sequence": 4294967295
        }
      ],
      "vout": [
        {
          "value": 50.0,
          "n": 0,
          "scriptPubKey": {
            "asm": "049688cb19e0b0bd1006256c48aff9dc59389bc0efbbb893c6c13560f2c52c0d8f645854be66dffc9f88b6a71fe74f8b4e14c69de83bf9dadd4e145519c3cc3fee OP_CHECKSIG",
            "desc": "pk(049688cb19e0b0bd1006256c48aff9dc59389bc0efbbb893c6c13560f2c52c0d8f645854be66dffc9f88b6a71fe74f8b4e14c69de83bf9dadd4e145519c3cc3fee)#97uyaprv",
            "hex": "41049688cb19e0b0bd1006256c48aff9dc59389bc0efbbb893c6c13560f2c52c0d8f645854be66dffc9f88b6a71fe74f8b4e14c69de83bf9dadd4e145519c3cc3feeac",
            "type": "pubkey"
          }
        }
      ],
      "hex": "01000000010000000000000000000000000000000000000000000000000000000000000000ffffffff0804ffff001d02b906ffffffff0100f2052a010000004341049688cb19e0b0bd1006256c48aff9dc59389bc0efbbb893c6c13560f2c52c0d8f645854be66dffc9f88b6a71fe74f8b4e14c69de83bf9dadd4e145519c3cc3feeac00000000"
    }
  ]
}