{
  "hash": "00000000c1122aa69bb3d2651513e9629ca86b9e22691ac50a2ac838353c34a0",
  "confirmations": 50056,
  "height": 3042,
  "version": 1,
  "versionHex": "00000001",
  "merkleroot": "97a98194aede243c788b8ad2ac0da15b06edbc598e764ee22746ab61c77a6420",
  "time": 1233791654,
  "mediantime": 1233786965,
  "nonce": 3341894406,
  "bits": "1d00ffff",
  "difficulty": 1,
  "chainwork": "00000000000000000000000000000000000000000000000000000be30be30be3",
  "nTx": 1,
  "previousblockhash": "00000000dc3d517468456d8c7be9c3a4e272d93ddbda96e6afca523d5937b8e1",
  "nextblockhash": "00000000dca66cfc107a2c59b9f5d9b3708450cf1e2789bedfd92e19cbb2e8b5",
  "strippedsize": 215,
  "size": 215,
  "weight": 860,
  "tx": [
    {
      "txid": "97a98194aede243c788b8ad2ac0da15b06edbc598e764ee22746ab61c77a6420",
      "hash": "97a98194aede243c788b8ad2ac0da15b06edbc598e764ee22746ab61c77a6420",
      "version": 1,
      "size": 134,
      "vsize": 134,
      "weight": 536,
      "locktime": 0,
      "vin": [
        {
          "coinbase": "04ffff001d0116",
          "sequence": 4294967295
        }
      ],
      "vout": [
        {
          "value": 50.0,
          "n": 0,
          "scriptPubKey": {
            "asm": "04a9ca00924a86ad0d7c034c3df7d0729ed3a6d9cb3db6d1959f360d0cd7178e6fa2d2616ea3f7bf3828559a0143884d6cfed46fec229db6f55b5c68d366c8006d OP_CHECKSIG",
            "desc": "pk(04a9ca00924a86ad0d7c034c3df7d0729ed3a6d9cb3db6d1959f360d0cd7178e6fa2d2616ea3f7bf3828559a0143884d6cfed46fec229db6f55b5c68d366c8006d)#f3z0cqau",
            "hex": "4104a9ca00924a86ad0d7c034c3df7d0729ed3a6d9cb3db6d1959f360d0cd7178e6fa2d2616ea3f7bf3828559a0143884d6cfed46fec229db6f55b5c68d366c8006dac",
            "type": "pubkey"
          }
        }
      ],
      "hex": "01000000010000000000000000000000000000000000000000000000000000000000000000ffffffff0704ffff001d0116ffffffff0100f2052a01000000434104a9ca00924a86ad0d7c034c3df7d0729ed3a6d9cb3db6d1959f360d0cd7178e6fa2d2616ea3f7bf3828559a0143884d6cfed46fec229db6f55b5c68d366c8006dac00000000"
    }
  ]
}