{
  "hash": "000000001e6b6f369fed9dd0861026778e41e59e55add399bee9f9e0054b7ea6",
  "confirmations": 46245,
  "height": 6853,
  "version": 1,
  "versionHex": "00000001",
  "merkleroot": "4a8a5e7fd83ddcbc08a5bad841f1f5192ee7481e0bf2a24eedbc45e28e1506ec",
  "time": 1236597486,
  "mediantime": 1236592774,
  "nonce": 3055606803,
  "bits": "1d00ffff",
  "difficulty": 1,
  "chainwork": "00000000000000000000000000000000000000000000000000001ac61ac61ac6",
  "nTx": 1,
  "previousblockhash": "00000000d45502ab04c1adeb0a3c9c2930a880e78f94c4ce0fc707ac52588696",
  "nextblockhash": "000000007db21ca5337f74ecf4d9fb1286273b773c7f733cf71b70855cf9cb91",
  "strippedsize": 216,
  "size": 216,
  "weight": 864,
  "tx": [
    {
      "txid": "4a8a5e7fd83ddcbc08a5bad841f1f5192ee7481e0bf2a24eedbc45e28e1506ec",
      "hash": "4a8a5e7fd83ddcbc08a5bad841f1f5192ee7481e0bf2a24eedbc45e28e1506ec",
      "version": 1,
      "size": 135,
      "vsize": 135,
      "weight": 540,
      "locktime": 0,
      "vin": [
        {
          "coinbase": "04ffff001d02b209",
          "sequence": 4294967295
        }
      ],
      "vout": [
        {
          "value": 50.0,
          "n": 0,
          "scriptPubKey": {
            "asm": "047add3279acb285258ebbff18e997b0bb05ceea7b0ff9c78d0b3e509c73379394d441cbb4c39e3fc92875978675444486edfd922f911aef308c4bfbdccbfce9a8 OP_CHECKSIG",
            "desc": "pk(047add3279acb285258ebbff18e997b0bb05ceea7b0ff9c78d0b3e509c73379394d441cbb4c39e3fc92875978675444486edfd922f911aef308c4bfbdccbfce9a8)#36l4s05p",
            "hex": "41047add3279acb285258ebbff18e997b0bb05ceea7b0ff9c78d0b3e509c73379394d441cbb4c39e3fc92875978675444486edfd922f911aef308c4bfbdccbfce9a8ac",
            "type": "pubkey"
          }
        }
      ],
      "hex": "01000000010000000000000000000000000000000000000000000000000000000000000000ffffffff0804ffff001d02b209ffffffff0100f2052a010000004341047add3279acb285258ebbff18e997b0bb05ceea7b0ff9c78d0b3e509c73379394d441cbb4c39e3fc92875978675444486edfd922f911aef308c4bfbdccbfce9a8ac00000000"
    }
  ]
}