{
  "hash": "00000000b3b598d67bad9261385f78c2446d64edd8c1282a8ff5efadaffc2c30",
  "confirmations": 51180,
  "height": 1918,
  "version": 1,
  "versionHex": "00000001",
  "merkleroot": "8a67da47f7644a932f9da6024372619ce0ad9071d3b55db1181c91842065116d",
  "time": 1232974414,
  "mediantime": 1232950298,
  "nonce": 632460947,
  "bits": "1d00ffff",
  "difficulty": 1,
  "chainwork": "0000000000000000000000000000000000000000000000000000077f077f077f",
  "nTx": 1,
  "previousblockhash": "00000000272568d8ad613b7f441fef896b912d21bca7ad2e18348e8b0ce483e7",
  "nextblockhash": "000000006c8b639825ca01a71f9c92834ba460a0e8cd9cc0d04dfd100607908a",
  "strippedsize": 215,
  "size": 215,
  "weight": 860,
  "tx": [
    {
      "txid": "8a67da47f7644a932f9da6024372619ce0ad9071d3b55db1181c91842065116d",
      "hash": "8a67da47f7644a932f9da6024372619ce0ad9071d3b55db1181c91842065116d",
      "version": 1,
      "size": 134,
      "vsize": 134,
      "weight": 536,
      "locktime": 0,
      "vin": [
        {
          "coinbase": "04ffff001d0102",
          "sequence": 4294967295
        }
      ],
      "vout": [
        {
          "value": 50.0,
          "n": 0,
          "scriptPubKey": {
            "asm": "04cb4e27d1cc7c124851772fc5c7df53a345f93f660d28854408b404613c3761275fcc9bfd939d0b9270611e8608fe2742d0077fe3bc9350041dad9b60409dbddd OP_CHECKSIG",
            "desc": "pk(04cb4e27d1cc7c124851772fc5c7df53a345f93f660d28854408b404613c3761275fcc9bfd939d0b9270611e8608fe2742d0077fe3bc9350041dad9b60409dbddd)#8x2y7l0w",
            "hex": "4104cb4e27d1cc7c124851772fc5c7df53a345f93f660d28854408b404613c3761275fcc9bfd939d0b9270611e8608fe2742d0077fe3bc9350041dad9b60409dbdddac",
            "type": "pubkey"
          }
        }
      ],
      "hex": "01000000010000000000000000000000000000000000000000000000000000000000000000ffffffff0704ffff001d0102ffffffff0100f2052a01000000434104cb4e27d1cc7c124851772fc5c7df53a345f93f660d28854408b404613c3761275fcc9bfd939d0b9270611e8608fe2742d0077fe3bc9350041dad9b60409dbdddac00000000"
    }
  ]
}