{
  "hash": "00000000d1c33e314501b8e8ad742afe030dd2eb8ac41affa0149ccc702f440b",
  "confirmations": 52082,
  "height": 253,
  "version": 1,
  "versionHex": "00000001",
  "merkleroot": "658ccc93eb264b6df511e8ade85712e353ddea5e0cfba4658d9836e111f8996d",
  "time": 1231795882,
  "mediantime": 1231790660,
  "nonce": 3084759603,
  "bits": "1d00ffff",
  "difficulty": 1,
  "chainwork": "000000000000000000000000000000000000000000000000000000fe00fe00fe",
  "nTx": 1,
  "previousblockhash": "00000000c8fd8e47245760fc2d164013cf60b6b73a5f3ed9ed21c5c1289e65aa",
  "nextblockhash": "0000000065c3ca6a832e4dd696185c2e6bf1e982b275ce6fb86df555f71a379c",
  "strippedsize": 216,
  "size": 216,
  "weight": 864,
  "tx": [
    {
      "txid": "658ccc93eb264b6df511e8ade85712e353ddea5e0cfba4658d9836e111f8996d",
      "hash": "658ccc93eb264b6df511e8ade85712e353ddea5e0cfba4658d9836e111f8996d",
      "version": 1,
      "size": 135,
      "vsize": 135,
      "weight": 540,
      "locktime": 0,
      "vin": [
        {
          "coinbase": "04ffff001d022201",
          "sequence": 4294967295
        }
      ],
      "vout": [
        {
          "value": 50.0,
          "n": 0,
          "scriptPubKey": {
            "asm": "04e2e06efa7bde0d6e183c881b3bb8f764ff18927262ef130eb3bce0097c91b5ad49ca1f8e47f274a3bd2b9d2cbf0523bd1bd4687d167256a55adea01badddf995 OP_CHECKSIG",
            "desc": "pk(04e2e06efa7bde0d6e183c881b3bb8f764ff18927262ef130eb3bce0097c91b5ad49ca1f8e47f274a3bd2b9d2cbf0523bd1bd4687d167256a55adea01badddf995)#7z7dycjf",
            "hex": "4104e2e06efa7bde0d6e183c881b3bb8f764ff18927262ef130eb3bce0097c91b5ad49ca1f8e47f274a3bd2b9d2cbf0523bd1bd4687d167256a55adea01badddf995ac",
            "type": "pubkey"
          }
        }
      ],
      "hex": "01000000010000000000000000000000000000000000000000000000000000000000000000ffffffff0804ffff001d022201ffffffff0100f2052a01000000434104e2e06efa7bde0d6e183c881b3bb8f764ff18927262ef130eb3bce0097c91b5ad49ca1f8e47f274a3bd2b9d2cbf0523bd1bd4687d167256a55adea01badddf995ac00000000"
    }
  ]
}