{
  "hash": "00000000272f42aa7edb7b466441a307f90490358b4283ba5b74dd149d7eb32a",
  "confirmations": 51448,
  "height": 1650,
  "version": 1,
  "versionHex": "00000001",
  "merkleroot": "a79dfe84b1c97b32154017c44235a6ec77a78ddf4e445075f219300a5914bb5a",
  "time": 1232833559,
  "mediantime": 1232831327,
  "nonce": 31481932,
  "bits": "1d00ffff",
  "difficulty": 1,
  "chainwork": "0000000000000000000000000000000000000000000000000000067306730673",
  "nTx": 1,
  "previousblockhash": "0000000036830127678f188ce9655d890af60dbe64a0d0dba8c306dce4ab6d46",
  "nextblockhash": "000000001d31aee00267ea4b4814869ff1bff68492a920fefc6bbb80075c27e2",
  "strippedsize": 215,
  "size": 215,
  "weight": 860,
  "tx": [
    {
      "txid": "a79dfe84b1c97b32154017c44235a6ec77a78ddf4e445075f219300a5914bb5a",
      "hash": "a79dfe84b1c97b32154017c44235a6ec77a78ddf4e445075f219300a5914bb5a",
      "version": 1,
      "size": 134,
      "vsize": 134,
      "weight": 536,
      "locktime": 0,
      "vin": [
        {
          "coinbase": "04ffff001d010c",
          "sequence": 4294967295
        }
      ],
      "vout": [
        {
          "value": 50.0,
          "n": 0,
          "scriptPubKey": {
            "asm": "04467f53c9a90e132a734ba78d097a5e19ff940a5a9948d3699346b73c3831b0d1f117630ceb9b5d2b74de5a15efec988badedb263cc29896a4c7bc877c9eece15 OP_CHECKSIG",
            "desc": "pk(04467f53c9a90e132a734ba78d097a5e19ff940a5a9948d3699346b73c3831b0d1f117630ceb9b5d2b74de5a15efec988badedb263cc29896a4c7bc877c9eece15)#2ajc78ta",
            "hex": "4104467f53c9a90e132a734ba78d097a5e19ff940a5a9948d3699346b73c3831b0d1f117630ceb9b5d2b74de5a15efec988badedb263cc29896a4c7bc877c9eece15ac",
            "type": "pubkey"
          }
        }
      ],
      "hex": "01000000010000000000000000000000000000000000000000000000000000000000000000ffffffff0704ffff001d010cffffffff0100f2052a01000000434104467f53c9a90e132a734ba78d097a5e19ff940a5a9948d3699346b73c3831b0d1f117630ceb9b5d2b74de5a15efec988badedb263cc29896a4c7bc877c9eece15ac00000000"
    }
  ]
}