{
  "hash": "000000000a182da448974e74238ec9264c91c81491773fcda40f01c0af842fcb",
  "confirmations": 49582,
  "height": 3516,
  "version": 1,
  "versionHex": "00000001",
  "merkleroot": "7867e8ad8e62316b0ccdd10f91583a7731464cdb7c56df392e7e3b747fac7a04",
  "time": 1234112159,
  "mediantime": 1234109209,
  "nonce": 1703265557,
  "bits": "1d00ffff",
  "difficulty": 1,
  "chainwork": "00000000000000000000000000000000000000000000000000000dbd0dbd0dbd",
  "nTx": 1,
  "previousblockhash": "00000000f48687042f081e01ddfc33f07840e1185cf7a4117b84cd372adcc9c8",
  "nextblockhash": "00000000e04d4895a162fba0fb5fa7199830b698fd164a5cef2b411ea0547d97",
  "strippedsize": 216,
  "size": 216,
  "weight": 864,
  "tx": [
    {
      "txid": "7867e8ad8e62316b0ccdd10f91583a7731464cdb7c56df392e7e3b747fac7a04",
      "hash": "7867e8ad8e62316b0ccdd10f91583a7731464cdb7c56df392e7e3b747fac7a04",
      "version": 1,
      "size": 135,
      "vsize": 135,
      "weight": 540,
      "locktime": 0,
      "vin": [
        {
          "coinbase": "04ffff001d026b07",
          "sequence": 4294967295
        }
      ],
      "vout": [
        {
          "value": 50.0,
          "n": 0,
          "scriptPubKey": {
            "asm": "04a917fb4168310f1711ede7de43a1e0d172e98e0909e8e53571f49a89ec67a09f1f9e376dc06be9acd796e214a248cef840b255d45facf6aa9b6e507e8814de26 OP_CHECKSIG",
            "desc": "pk(04a917fb4168310f1711ede7de43a1e0d172e98e0909e8e53571f49a89ec67a09f1f9e376dc06be9acd796e214a248cef840b255d45facf6aa9b6e507e8814de26)#k7ahagqs",
            "hex": "4104a917fb4168310f1711ede7de43a1e0d172e98e0909e8e53571f49a89ec67a09f1f9e376dc06be9acd796e214a248cef840b255d45facf6aa9b6e507e8814de26ac",
            "type": "pubkey"
          }
        }
      ],
      "hex": "01000000010000000000000000000000000000000000000000000000000000000000000000ffffffff0804ffff001d026b07ffffffff0100f2052a01000000434104a917fb4168310f1711ede7de43a1e0d172e98e0909e8e53571f49a89ec67a09f1f9e376dc06be9acd796e214a248cef840b255d45facf6aa9b6e507e8814de26ac00000000"
    }
  ]
}