{
  "hash": "00000000c7f956a913bbef9c94f517c318805821b59ea6227175f3841792ea88",
  "confirmations": 52498,
  "height": 600,
  "version": 1,
  "versionHex": "00000001",
  "merkleroot": "81716c5ceae049e099a09e40915d6488c691b6e0b736069d2337e075f6d32c4e",
  "time": 1232038747,
  "mediantime": 1232036324,
  "nonce": 2396589880,
  "bits": "1d00ffff",
  "difficulty": 1,
  "chainwork": "0000000000000000000000000000000000000000000000000000025902590259",
  "nTx": 1,
  "previousblockhash": "0000000042844571bc6bce8e1c0fbec99466971eaff89fef8c0d123582181d4d",
  "nextblockhash": "00000000a893fa1871e9a349309b47a9fd30520eff9605d52d981419cc210884",
  "strippedsize": 216,
  "size": 216,
  "weight": 864,
  "tx": [
    {
      "txid": "81716c5ceae049e099a09e40915d6488c691b6e0b736069d2337e075f6d32c4e",
      "hash": "81716c5ceae049e099a09e40915d6488c691b6e0b736069d2337e075f6d32c4e",
      "version": 1,
      "size": 135,
      "vsize": 135,
      "weight": 540,
      "locktime": 0,
      "vin": [
        {
          "coinbase": "04ffff001d02af06",
          "sequence": 4294967295
        }
      ],
      "vout": [
        {
          "value": 50.0,
          "n": 0,
          "scriptPubKey": {
            "asm": "0409aef5918ba0ca5825e193ed92b00a6bdbb1977ebf673923df14e8636fd843ec0ca47aaf42f8536fa9b614677ab52d293d44ea3d458a30fac2b89a8a54746f74 OP_CHECKSIG",
            "desc": "pk(0409aef5918ba0ca5825e193ed92b00a6bdbb1977ebf673923df14e8636fd843ec0ca47aaf42f8536fa9b614677ab52d293d44ea3d458a30fac2b89a8a54746f74)#xz2d0nnm",
            "hex": "410409aef5918ba0ca5825e193ed92b00a6bdbb1977ebf673923df14e8636fd843ec0ca47aaf42f8536fa9b614677ab52d293d44ea3d458a30fac2b89a8a54746f74ac",
            "type": "pubkey"
          }
        }
      ],
      "hex": "01000000010000000000000000000000000000000000000000000000000000000000000000ffffffff0804ffff001d02af06ffffffff0100f2052a0100000043410409aef5918ba0ca5825e193ed92b00a6bdbb1977ebf673923df14e8636fd843ec0ca47aaf42f8536fa9b614677ab52d293d44ea3d458a30fac2b89a8a54746f74ac00000000"
    }
  ]
}