{
  "hash": "00000000ad3094bffd4b5f035d1f9fb4ec32fe786faef94d6557136540715199",
  "confirmations": 46508,
  "height": 6590,
  "version": 1,
  "versionHex": "00000001",
  "merkleroot": "416790e7c3aa985b3937f5ccc390b87dcab57d4ecbb9c44c61b9ba778805fe2e",
  "time": 1236396722,
  "mediantime": 1236391975,
  "nonce": 31603445,
  "bits": "1d00ffff",
  "difficulty": 1,
  "chainwork": "000000000000000000000000000000000000000000000000000019bf19bf19bf",
  "nTx": 1,
  "previousblockhash": "00000000c326f5a6a64726709ddde82ba58a8fa78aa4b9b6fb6df3c23fa876f1",
  "nextblockhash": "000000000cb3a31d1c84a70c60b74a6311502e0bd4ef9a31bfbf17903bb276b7",
  "strippedsize": 216,
  "size": 216,
  "weight": 864,
  "tx": [
    {
      "txid": "416790e7c3aa985b3937f5ccc390b87dcab57d4ecbb9c44c61b9ba778805fe2e",
      "hash": "416790e7c3aa985b3937f5ccc390b87dcab57d4ecbb9c44c61b9ba778805fe2e",
      "version": 1,
      "size": 135,
      "vsize": 135,
      "weight": 540,
      "locktime": 0,
      "vin": [
        {
          "coinbase": "04ffff001d026f04",
          "sequence": 4294967295
        }
      ],
      "vout": [
        {
          "value": 50.0,
          "n": 0,
          "scriptPubKey": {
            "asm": "04a6b943bfce985444b55d15014dd1e8f583fa4b23ee81cf940ae92139798e7e9e3f0a0fff5e5d7e7023b822fcf5a5b7a10e2ea9ea24042fcf2a995387558e71b1 OP_CHECKSIG",
            "desc": "pk(04a6b943bfce985444b55d15014dd1e8f583fa4b23ee81cf940ae92139798e7e9e3f0a0fff5e5d7e7023b822fcf5a5b7a10e2ea9ea24042fcf2a995387558e71b1)#hmd9fj98",
            "hex": "4104a6b943bfce985444b55d15014dd1e8f583fa4b23ee81cf940ae92139798e7e9e3f0a0fff5e5d7e7023b822fcf5a5b7a10e2ea9ea24042fcf2a995387558e71b1ac",
            "type": "pubkey"
          }
        }
      ],
      "hex": "01000000010000000000000000000000000000000000000000000000000000000000000000ffffffff0804ffff001d026f04ffffffff0100f2052a01000000434104a6b943bfce985444b55d15014dd1e8f583fa4b23ee81cf940ae92139798e7e9e3f0a0fff5e5d7e7023b822fcf5a5b7a10e2ea9ea24042fcf2a995387558e71b1ac00000000"
    }
  ]
}