{
  "hash": "00000000bd6efd0419df2abe501946d4a90c24571c5f44fb176a7155292db3a6",
  "confirmations": 46613,
  "height": 6485,
  "version": 1,
  "versionHex": "00000001",
  "merkleroot": "cb8838a3400bb87f44d7a8af25466ea1a4f0f31d92c55a4a5ba7128ad6532cad",
  "time": 1236319672,
  "mediantime": 1236315363,
  "nonce": 1770589212,
  "bits": "1d00ffff",
  "difficulty": 1,
  "chainwork": "0000000000000000000000000000000000000000000000000000195619561956",
  "nTx": 1,
  "previousblockhash": "000000004d91e40fc5fbb5be48f2a11e5ef393d914623636a330817a4e809cba",
  "nextblockhash": "00000000e71f13f1d27e643de3f7d7da9da6dff8dcff26702c4a682b243aa3dc",
  "strippedsize": 216,
  "size": 216,
  "weight": 864,
  "tx": [
    {
      "txid": "cb8838a3400bb87f44d7a8af25466ea1a4f0f31d92c55a4a5ba7128ad6532cad",
      "hash": "cb8838a3400bb87f44d7a8af25466ea1a4f0f31d92c55a4a5ba7128ad6532cad",
      "version": 1,
      "size": 135,
      "vsize": 135,
      "weight": 540,
      "locktime": 0,
      "vin": [
        {
          "coinbase": "04ffff001d023d03",
          "sequence": 4294967295
        }
      ],
      "vout": [
        {
          "value": 50.0,
          "n": 0,
          "scriptPubKey": {
            "asm": "04b694e739fb24c38bbbad287d704a69ffe2f9afa7971583adfbcf34d1d13e50d92574d759b8a22959a9bc51c6001d6c0a7bb6474ba5951d3d08c07b5f9dc82f27 OP_CHECKSIG",
            "desc": "pk(04b694e739fb24c38bbbad287d704a69ffe2f9afa7971583adfbcf34d1d13e50d92574d759b8a22959a9bc51c6001d6c0a7bb6474ba5951d3d08c07b5f9dc82f27)#97nuxe6m",
            "hex": "4104b694e739fb24c38bbbad287d704a69ffe2f9afa7971583adfbcf34d1d13e50d92574d759b8a22959a9bc51c6001d6c0a7bb6474ba5951d3d08c07b5f9dc82f27ac",
            "type": "pubkey"
          }
        }
      ],
      "hex": "01000000010000000000000000000000000000000000000000000000000000000000000000ffffffff0804ffff001d023d03ffffffff0100f2052a01000000434104b694e739fb24c38bbbad287d704a69ffe2f9afa7971583adfbcf34d1d13e50d92574d759b8a22959a9bc51c6001d6c0a7bb6474ba5951d3d08c07b5f9dc82f27ac00000000"
    }
  ]
}