{
  "hash": "00000000bb56b98c48c6751a5bfb5fa41951eb31051ac24debacda329f2acb96",
  "confirmations": 48434,
  "height": 4664,
  "version": 1,
  "versionHex": "00000001",
  "merkleroot": "4f4ab7a795e9cd7bace153ec6fed9d5e55373af7860fe67f387c37e11d83cf47",
  "time": 1234900137,
  "mediantime": 1234896406,
  "nonce": 3322360869,
  "bits": "1d00ffff",
  "difficulty": 1,
  "chainwork": "0000000000000000000000000000000000000000000000000000123912391239",
  "nTx": 1,
  "previousblockhash": "0000000057ae735976d4f788499212d8223f3c67d69d1f488b32d3392f06cb1d",
  "nextblockhash": "00000000f94f7897fbe77d87045114b5293e91ca6b3542e71a5e209b40044796",
  "strippedsize": 216,
  "size": 216,
  "weight": 864,
  "tx": [
    {
      "txid": "4f4ab7a795e9cd7bace153ec6fed9d5e55373af7860fe67f387c37e11d83cf47",
      "hash": "4f4ab7a795e9cd7bace153ec6fed9d5e55373af7860fe67f387c37e11d83cf47",
      "version": 1,
      "size": 135,
      "vsize": 135,
      "weight": 540,
      "locktime": 0,
      "vin": [
        {
          "coinbase": "04ffff001d02f501",
          "sequence": 4294967295
        }
      ],
      "vout": [
        {
          "value": 50.0,
          "n": 0,
          "scriptPubKey": {
            "asm": "04f46959174b33ea3fc3373fa7832f04022a670b1d9be652bf2394f9583206d4586dc06dfc3749c7d863d958aac391683497c12fd9a88dd725938a5349508756f4 OP_CHECKSIG",
            "desc": "pk(04f46959174b33ea3fc3373fa7832f04022a670b1d9be652bf2394f9583206d4586dc06dfc3749c7d863d958aac391683497c12fd9a88dd725938a5349508756f4)#qdh2a0v9",
            "hex": "4104f46959174b33ea3fc3373fa7832f04022a670b1d9be652bf2394f9583206d4586dc06dfc3749c7d863d958aac391683497c12fd9a88dd725938a5349508756f4ac",
            "type": "pubkey"
          }
        }
      ],
      "hex": "01000000010000000000000000000000000000000000000000000000000000000000000000ffffffff0804ffff001d02f501ffffffff0100f2052a01000000434104f46959174b33ea3fc3373fa7832f04022a670b1d9be652bf2394f9583206d4586dc06dfc3749c7d863d958aac391683497c12fd9a88dd725938a5349508756f4ac00000000"
    }
  ]
}