{
  "hash": "00000000963d1bf30564d1807ab3e156f991e3b0b0967fefe27b7b2a90bce6ec",
  "confirmations": 51224,
  "height": 1874,
  "version": 1,
  "versionHex": "00000001",
  "merkleroot": "10cbe1e3236f65136cdab06211ab916636fac4320e0117335e9ea51e10fb4e8c",
  "time": 1232932639,
  "mediantime": 1232930881,
  "nonce": 3955711031,
  "bits": "1d00ffff",
  "difficulty": 1,
  "chainwork": "0000000000000000000000000000000000000000000000000000075307530753",
  "nTx": 1,
  "previousblockhash": "000000002aacdf4f815942c612af16cbd181b0102c1d9a09f41c6862815f9d89",
  "nextblockhash": "00000000a15e23a0455d0453a6216857db4f1920308eea8b7f21b2ef9698ed75",
  "strippedsize": 216,
  "size": 216,
  "weight": 864,
  "tx": [
    {
      "txid": "10cbe1e3236f65136cdab06211ab916636fac4320e0117335e9ea51e10fb4e8c",
      "hash": "10cbe1e3236f65136cdab06211ab916636fac4320e0117335e9ea51e10fb4e8c",
      "version": 1,
      "size": 135,
      "vsize": 135,
      "weight": 540,
      "locktime": 0,
      "vin": [
        {
          "coinbase": "04ffff001d02fc04",
          "sequence": 4294967295
        }
      ],
      "vout": [
        {
          "value": 50.0,
          "n": 0,
          "scriptPubKey": {
            "asm": "04b9eb01fdf999e254376b6fac11033e017109dc963bdbce24d362df1656e410478a3cdf8837e7277a400650101d5424ed01991f67be8aaa9b3d365b2bbc581373 OP_CHECKSIG",
            "desc": "pk(04b9eb01fdf999e254376b6fac11033e017109dc963bdbce24d362df1656e410478a3cdf8837e7277a400650101d5424ed01991f67be8aaa9b3d365b2bbc581373)#23w4qhh7",
            "hex": "4104b9eb01fdf999e254376b6fac11033e017109dc963bdbce24d362df1656e410478a3cdf8837e7277a400650101d5424ed01991f67be8aaa9b3d365b2bbc581373ac",
            "type": "pubkey"
          }
        }
      ],
      "hex": "01000000010000000000000000000000000000000000000000000000000000000000000000ffffffff0804ffff001d02fc04ffffffff0100f2052a01000000434104b9eb01fdf999e254376b6fac11033e017109dc963bdbce24d362df1656e410478a3cdf8837e7277a400650101d5424ed01991f67be8aaa9b3d365b2bbc581373ac00000000"
    }
  ]
}