{
  "hash": "00000000641f9b99064bda263144a08761757b566357f49e95f516b0b5a4b778",
  "confirmations": 52071,
  "height": 264,
  "version": 1,
  "versionHex": "00000001",
  "merkleroot": "afb22d24e466012b7bf38b0cc46b48551d9cc0834875e122513c788b9a370c26",
  "time": 1231805980,
  "mediantime": 1231801541,
  "nonce": 655303724,
  "bits": "1d00ffff",
  "difficulty": 1,
  "chainwork": "0000000000000000000000000000000000000000000000000000010901090109",
  "nTx": 1,
  "previousblockhash": "00000000803cec62b96ccbb70affe0f05f351ada18d14a16960783aeafe0d8fc",
  "nextblockhash": "000000001cd3ea335cdf6fbffe7fa954f761d16ff19893f04465916a3f5f5dc3",
  "strippedsize": 216,
  "size": 216,
  "weight": 864,
  "tx": [
    {
      "txid": "afb22d24e466012b7bf38b0cc46b48551d9cc0834875e122513c788b9a370c26",
      "hash": "afb22d24e466012b7bf38b0cc46b48551d9cc0834875e122513c788b9a370c26",
      "version": 1,
      "size": 135,
      "vsize": 135,
      "weight": 540,
      "locktime": 0,
      "vin": [
        {
          "coinbase": "04ffff001d026901",
          "sequence": 4294967295
        }
      ],
      "vout": [
        {
          "value": 50.0,
          "n": 0,
          "scriptPubKey": {
            "asm": "042ecd5eb8bf25555f4ee1276cf80031307f87d31f1ea928fede578fe2c33665f116239f256c131055b546743c523fc593be8b5631802eb5c5254046d8bca14788 OP_CHECKSIG",
            "desc": "pk(042ecd5eb8bf25555f4ee1276cf80031307f87d31f1ea928fede578fe2c33665f116239f256c131055b546743c523fc593be8b5631802eb5c5254046d8bca14788)#2kpuv8y2",
            "hex": "41042ecd5eb8bf25555f4ee1276cf80031307f87d31f1ea928fede578fe2c33665f116239f256c131055b546743c523fc593be8b5631802eb5c5254046d8bca14788ac",
            "type": "pubkey"
          }
        }
      ],
      "hex": "01000000010000000000000000000000000000000000000000000000000000000000000000ffffffff0804ffff001d026901ffffffff0100f2052a010000004341042ecd5eb8bf25555f4ee1276cf80031307f87d31f1ea928fede578fe2c33665f116239f256c131055b546743c523fc593be8b5631802eb5c5254046d8bca14788ac00000000"
    }
  ]
}