{
  "hash": "00000000ad836134859dc96f02b1c60f4513416af6b0dc8c8d9f472addf5572c",
  "confirmations": 45836,
  "height": 7262,
  "version": 1,
  "versionHex": "00000001",
  "merkleroot": "7dfb863a759462f1a231851ff5fab0de48fbe2716c0a4a15835ea73bb331879e",
  "time": 1236918729,
  "mediantime": 1236914139,
  "nonce": 155582234,
  "bits": "1d00ffff",
  "difficulty": 1,
  "chainwork": "00000000000000000000000000000000000000000000000000001c5f1c5f1c5f",
  "nTx": 1,
  "previousblockhash": "0000000060cc74f4ba38719e12725436b9006d02500ac5d79136c8fcf6f8cd9b",
  "nextblockhash": "00000000a7c6917ba27d9ca0582f84df7e7bf3c829a8e56f5f0a91b81f8b9541",
  "strippedsize": 215,
  "size": 215,
  "weight": 860,
  "tx": [
    {
      "txid": "7dfb863a759462f1a231851ff5fab0de48fbe2716c0a4a15835ea73bb331879e",
      "hash": "7dfb863a759462f1a231851ff5fab0de48fbe2716c0a4a15835ea73bb331879e",
      "version": 1,
      "size": 134,
      "vsize": 134,
      "weight": 536,
      "locktime": 0,
      "vin": [
        {
          "coinbase": "04ffff001d0162",
          "sequence": 4294967295
        }
      ],
      "vout": [
        {
          "value": 50.0,
          "n": 0,
          "scriptPubKey": {
            "asm": "041f78decf345b9a0d4654063115896006f92c53110b873cd63073e0c0b17dae877f0a62ebda6a90bc9b84fa247e9d67d5447408179e92aef7a8e91bbe8a688dc6 OP_CHECKSIG",
            "desc": "pk(041f78decf345b9a0d4654063115896006f92c53110b873cd63073e0c0b17dae877f0a62ebda6a90bc9b84fa247e9d67d5447408179e92aef7a8e91bbe8a688dc6)#5uxqr6jj",
            "hex": "41041f78decf345b9a0d4654063115896006f92c53110b873cd63073e0c0b17dae877f0a62ebda6a90bc9b84fa247e9d67d5447408179e92aef7a8e91bbe8a688dc6ac",
            "type": "pubkey"
          }
        }
      ],
      "hex": "01000000010000000000000000000000000000000000000000000000000000000000000000ffffffff0704ffff001d0162ffffffff0100f2052a010000004341041f78decf345b9a0d4654063115896006f92c53110b873cd63073e0c0b17dae877f0a62ebda6a90bc9b84fa247e9d67d5447408179e92aef7a8e91bbe8a688dc6ac00000000"
    }
  ]
}