{
  "hash": "00000000e0f7dd0286f1bae123c899d3ff207afddc14a103d2e4ddf995bb9deb",
  "confirmations": 52529,
  "height": 569,
  "version": 1,
  "versionHex": "00000001",
  "merkleroot": "64e47ba6bbd9021d25d4cc176609d169af540966a779e3f773c7f40fccd2283b",
  "time": 1232015762,
  "mediantime": 1232012460,
  "nonce": 224542745,
  "bits": "1d00ffff",
  "difficulty": 1,
  "chainwork": "0000000000000000000000000000000000000000000000000000023a023a023a",
  "nTx": 1,
  "previousblockhash": "00000000aa7ada2a039524c4ad0758d07c67a9104c4d8a35b5a27ed00d0967e7",
  "nextblockhash": "00000000bd2f9e06fe89f7ac4edb2c664b069935c7e983cd51d40ea368910a49",
  "strippedsize": 216,
  "size": 216,
  "weight": 864,
  "tx": [
    {
      "txid": "64e47ba6bbd9021d25d4cc176609d169af540966a779e3f773c7f40fccd2283b",
      "hash": "64e47ba6bbd9021d25d4cc176609d169af540966a779e3f773c7f40fccd2283b",
      "version": 1,
      "size": 135,
      "vsize": 135,
      "weight": 540,
      "locktime": 0,
      "vin": [
        {
          "coinbase": "04ffff001d020306",
          "sequence": 4294967295
        }
      ],
      "vout": [
        {
          "value": 50.0,
          "n": 0,
          "scriptPubKey": {
            "asm": "0402ae4c88cdd573a30cb3b44461c62c10dfc1680af6de83c18e8bba953c7afd0fcc3e8f1c80ae61c97a1d9f8931e48d62e870c18847682436397be3e4033652a1 OP_CHECKSIG",
            "desc": "pk(0402ae4c88cdd573a30cb3b44461c62c10dfc1680af6de83c18e8bba953c7afd0fcc3e8f1c80ae61c97a1d9f8931e48d62e870c18847682436397be3e4033652a1)#ktec5hp2",
            "hex": "410402ae4c88cdd573a30cb3b44461c62c10dfc1680af6de83c18e8bba953c7afd0fcc3e8f1c80ae61c97a1d9f8931e48d62e870c18847682436397be3e4033652a1ac",
            "type": "pubkey"
          }
        }
      ],
      "hex": "01000000010000000000000000000000000000000000000000000000000000000000000000ffffffff0804ffff001d020306ffffffff0100f2052a0100000043410402ae4c88cdd573a30cb3b44461c62c10dfc1680af6de83c18e8bba953c7afd0fcc3e8f1c80ae61c97a1d9f8931e48d62e870c18847682436397be3e4033652a1ac00000000"
    }
  ]
}