{
  "hash": "0000000069babcb34cc43c80e1c43d423a70821c740193a8265d3edc204ce4f0",
  "confirmations": 51955,
  "height": 93,
  "version": 1,
  "versionHex": "00000001",
  "merkleroot": "71cbe112176d6dc40490dde588798bd75de80133438016a0c05754d74ee1925a",
  "time": 1231655037,
  "mediantime": 1231652408,
  "nonce": 1695961607,
  "bits": "1d00ffff",
  "difficulty": 1,
  "chainwork": "0000000000000000000000000000000000000000000000000000005e005e005e",
  "nTx": 1,
  "previousblockhash": "0000000009d40c0a46d368c2780dfcb0375b0fee9f0d8ad87b325ec8e451e1d2",
  "nextblockhash": "000000001fa8db1f15a9abd900cce0df7823a8397f2728b1d275e8fe0c0d2df0",
  "strippedsize": 215,
  "size": 215,
  "weight": 860,
  "tx": [
    {
      "txid": "71cbe112176d6dc40490dde588798bd75de80133438016a0c05754d74ee1925a",
      "hash": "71cbe112176d6dc40490dde588798bd75de80133438016a0c05754d74ee1925a",
      "version": 1,
      "size": 134,
      "vsize": 134,
      "weight": 536,
      "locktime": 0,
      "vin": [
        {
          "coinbase": "04ffff001d0130",
          "sequence": 4294967295
        }
      ],
      "vout": [
        {
          "value": 50.0,
          "n": 0,
          "scriptPubKey": {
            "asm": "04cd2f49d4c04cb91fed784dc604f8021ed3ff52a56ffefbff5e6f843079cf34a37d47a5c0c86a98e3a52f2ac8eaef2baa5975620b6bf097ca9d4db5abdec58715 OP_CHECKSIG",
            "desc": "pk(04cd2f49d4c04cb91fed784dc604f8021ed3ff52a56ffefbff5e6f843079cf34a37d47a5c0c86a98e3a52f2ac8eaef2baa5975620b6bf097ca9d4db5abdec58715)#wuxlcg7u",
            "hex": "4104cd2f49d4c04cb91fed784dc604f8021ed3ff52a56ffefbff5e6f843079cf34a37d47a5c0c86a98e3a52f2ac8eaef2baa5975620b6bf097ca9d4db5abdec58715ac",
            "type": "pubkey"
          }
        }
      ],
      "hex": "01000000010000000000000000000000000000000000000000000000000000000000000000ffffffff0704ffff001d0130ffffffff0100f2052a01000000434104cd2f49d4c04cb91fed784dc604f8021ed3ff52a56ffefbff5e6f843079cf34a37d47a5c0c86a98e3a52f2ac8eaef2baa5975620b6bf097ca9d4db5abdec58715ac00000000"
    }
  ]
}