{
  "hash": "00000000c5c4c42dfef8001bee355aa6f94fc865eeae3d4c880316e55a8d7f88",
  "confirmations": 50928,
  "height": 2170,
  "version": 1,
  "versionHex": "00000001",
  "merkleroot": "aebd851a36239b5db7d7481c489d5c627936e2c6788fd19c76884d50327d9579",
  "time": 1233189587,
  "mediantime": 1233184909,
  "nonce": 861978402,
  "bits": "1d00ffff",
  "difficulty": 1,
  "chainwork": "0000000000000000000000000000000000000000000000000000087b087b087b",
  "nTx": 1,
  "previousblockhash": "000000006b23459470cd0077f72e7724620d37f8645e95fe82369ca4b191a950",
  "nextblockhash": "000000006eeb5d7c42df514952b7d0967e9e9715920e1203f5af7fe5413379ea",
  "strippedsize": 216,
  "size": 216,
  "weight": 864,
  "tx": [
    {
      "txid": "aebd851a36239b5db7d7481c489d5c627936e2c6788fd19c76884d50327d9579",
      "hash": "aebd851a36239b5db7d7481c489d5c627936e2c6788fd19c76884d50327d9579",
      "version": 1,
      "size": 135,
      "vsize": 135,
      "weight": 540,
      "locktime": 0,
      "vin": [
        {
          "coinbase": "04ffff001d02de00",
          "sequence": 4294967295
        }
      ],
      "vout": [
        {
          "value": 50.0,
          "n": 0,
          "scriptPubKey": {
            "asm": "049c8b4a4f1849893004ac61fff4652d620c8e07d89b159f2dfb5b050c6d6d8d9fdbab307c906b4d4d972ec4c22bd9000f56e829e7a4e0ae013a8cfe305181fe3c OP_CHECKSIG",
            "desc": "pk(049c8b4a4f1849893004ac61fff4652d620c8e07d89b159f2dfb5b050c6d6d8d9fdbab307c906b4d4d972ec4c22bd9000f56e829e7a4e0ae013a8cfe305181fe3c)#cptnpwfq",
            "hex": "41049c8b4a4f1849893004ac61fff4652d620c8e07d89b159f2dfb5b050c6d6d8d9fdbab307c906b4d4d972ec4c22bd9000f56e829e7a4e0ae013a8cfe305181fe3cac",
            "type": "pubkey"
          }
        }
      ],
      "hex": "01000000010000000000000000000000000000000000000000000000000000000000000000ffffffff0804ffff001d02de00ffffffff0100f2052a010000004341049c8b4a4f1849893004ac61fff4652d620c8e07d89b159f2dfb5b050c6d6d8d9fdbab307c906b4d4d972ec4c22bd9000f56e829e7a4e0ae013a8cfe305181fe3cac00000000"
    }
  ]
}