{
  "hash": "00000000dc3896448966c785d23f3f31778bdb7d7fbee201c676c0793a9bbd0f",
  "confirmations": 43351,
  "height": 9747,
  "version": 1,
  "versionHex": "00000001",
  "merkleroot": "b132dd73d75e9e4f0bae8752b1cb8f55a0a37ebb1227c52f52079cdb5390bec8",
  "time": 1238812901,
  "mediantime": 1238808578,
  "nonce": 453556007,
  "bits": "1d00ffff",
  "difficulty": 1,
  "chainwork": "0000000000000000000000000000000000000000000000000000261426142614",
  "nTx": 1,
  "previousblockhash": "00000000fc2b4cff82824737f1d58bafc8c6f32cc04e59241af27fd9e3362ede",
  "nextblockhash": "000000004c174d3ca3a59143a26c2e1178f647d4b9f198c251c69d640ca83b67",
  "strippedsize": 216,
  "size": 216,
  "weight": 864,
  "tx": [
    {
      "txid": "b132dd73d75e9e4f0bae8752b1cb8f55a0a37ebb1227c52f52079cdb5390bec8",
      "hash": "b132dd73d75e9e4f0bae8752b1cb8f55a0a37ebb1227c52f52079cdb5390bec8",
      "version": 1,
      "size": 135,
      "vsize": 135,
      "weight": 540,
      "locktime": 0,
      "vin": [
        {
          "coinbase": "04ffff001d029009",
          "sequence": 4294967295
        }
      ],
      "vout": [
        {
          "value": 50.0,
          "n": 0,
          "scriptPubKey": {
            "asm": "047d7138197691fa6353060d53d393379dfa17c9d98128dae32246d9b6fcd1fae995c4710ff42891062bd978409159423900ded4729d4d8d9d56cdff6ee2f6ceff OP_CHECKSIG",
            "desc": "pk(047d7138197691fa6353060d53d393379dfa17c9d98128dae32246d9b6fcd1fae995c4710ff42891062bd978409159423900ded4729d4d8d9d56cdff6ee2f6ceff)#qlglhyac",
            "hex": "41047d7138197691fa6353060d53d393379dfa17c9d98128dae32246d9b6fcd1fae995c4710ff42891062bd978409159423900ded4729d4d8d9d56cdff6ee2f6ceffac",
            "type": "pubkey"
          }
        }
      ],
      "hex": "01000000010000000000000000000000000000000000000000000000000000000000000000ffffffff0804ffff001d029009ffffffff0100f2052a010000004341047d7138197691fa6353060d53d393379dfa17c9d98128dae32246d9b6fcd1fae995c4710ff42891062bd978409159423900ded4729d4d8d9d56cdff6ee2f6ceffac00000000"
    }
  ]
}