{
  "hash": "000000002b55f8cb48deb8d6b7dc0817df9849a7e2080d9648979f0fe45d2853",
  "confirmations": 51330,
  "height": 1768,
  "version": 1,
  "versionHex": "00000001",
  "merkleroot": "ec9ef20ba0657437c51c960dfe8552e8624298d17d72a3513d910d8331020c8f",
  "time": 1232883142,
  "mediantime": 1232880259,
  "nonce": 3352354607,
  "bits": "1d00ffff",
  "difficulty": 1,
  "chainwork": "000000000000000000000000000000000000000000000000000006e906e906e9",
  "nTx": 1,
  "previousblockhash": "000000004a48edeb998d77a0ec1c558230878ad0fe24ba7f255d5bbc344570e0",
  "nextblockhash": "00000000772003e7b81cac7d63a1195f55a321347eb0a6190140176906d64469",
  "strippedsize": 216,
  "size": 216,
  "weight": 864,
  "tx": [
    {
      "txid": "ec9ef20ba0657437c51c960dfe8552e8624298d17d72a3513d910d8331020c8f",
      "hash": "ec9ef20ba0657437c51c960dfe8552e8624298d17d72a3513d910d8331020c8f",
      "version": 1,
      "size": 135,
      "vsize": 135,
      "weight": 540,
      "locktime": 0,
      "vin": [
        {
          "coinbase": "04ffff001d029b03",
          "sequence": 4294967295
        }
      ],
      "vout": [
        {
          "value": 50.0,
          "n": 0,
          "scriptPubKey": {
            "asm": "045aabf464f916defd2e7a37d28183ef218ae15345205318fcbb65b3a97fe1765654fdcfb52b280f716e50c75e5e690aed527be3f72a0927da7993a86cf042ab1d OP_CHECKSIG",
            "desc": "pk(045aabf464f916defd2e7a37d28183ef218ae15345205318fcbb65b3a97fe1765654fdcfb52b280f716e50c75e5e690aed527be3f72a0927da7993a86cf042ab1d)#gcglas2a",
            "hex": "41045aabf464f916defd2e7a37d28183ef218ae15345205318fcbb65b3a97fe1765654fdcfb52b280f716e50c75e5e690aed527be3f72a0927da7993a86cf042ab1dac",
            "type": "pubkey"
          }
        }
      ],
      "hex": "01000000010000000000000000000000000000000000000000000000000000000000000000ffffffff0804ffff001d029b03ffffffff0100f2052a010000004341045aabf464f916defd2e7a37d28183ef218ae15345205318fcbb65b3a97fe1765654fdcfb52b280f716e50c75e5e690aed527be3f72a0927da7993a86cf042ab1dac00000000"
    }
  ]
}