{
  "hash": "00000000a3fb5d9b782814d661a6927d42e5e2c48a445d20d625bce577178f9a",
  "confirmations": 52504,
  "height": 594,
  "version": 1,
  "versionHex": "00000001",
  "merkleroot": "03c0e992ccfdba57aae234fd989552c6b6742c65a10b3f879959fdd19151232d",
  "time": 1232035463,
  "mediantime": 1232032416,
  "nonce": 42589993,
  "bits": "1d00ffff",
  "difficulty": 1,
  "chainwork": "0000000000000000000000000000000000000000000000000000025302530253",
  "nTx": 1,
  "previousblockhash": "000000001d6a5eaa63b653d569e87179366ffee019ea4108f766e79578b5ebb2",
  "nextblockhash": "00000000dea58ba8cb1a8d6840d32c0f23061a842f055f26c980eed9a9d2d950",
  "strippedsize": 216,
  "size": 216,
  "weight": 864,
  "tx": [
    {
      "txid": "03c0e992ccfdba57aae234fd989552c6b6742c65a10b3f879959fdd19151232d",
      "hash": "03c0e992ccfdba57aae234fd989552c6b6742c65a10b3f879959fdd19151232d",
      "version": 1,
      "size": 135,
      "vsize": 135,
      "weight": 540,
      "locktime": 0,
      "vin": [
        {
          "coinbase": "04ffff001d029b06",
          "sequence": 4294967295
        }
      ],
      "vout": [
        {
          "value": 50.0,
          "n": 0,
          "scriptPubKey": {
            "asm": "0476c54b33f648e2281a6331b2345068eed2a796d81f349c7008edd769406de314f2d7add377e151d0b316fa93da9d9d5d9de436750d09292cd69a64a9f9e44ca8 OP_CHECKSIG",
            "desc": "pk(0476c54b33f648e2281a6331b2345068eed2a796d81f349c7008edd769406de314f2d7add377e151d0b316fa93da9d9d5d9de436750d09292cd69a64a9f9e44ca8)#hftwetqk",
            "hex": "410476c54b33f648e2281a6331b2345068eed2a796d81f349c7008edd769406de314f2d7add377e151d0b316fa93da9d9d5d9de436750d09292cd69a64a9f9e44ca8ac",
            "type": "pubkey"
          }
        }
      ],
      "hex": "01000000010000000000000000000000000000000000000000000000000000000000000000ffffffff0804ffff001d029b06ffffffff0100f2052a0100000043410476c54b33f648e2281a6331b2345068eed2a796d81f349c7008edd769406de314f2d7add377e151d0b316fa93da9d9d5d9de436750d09292cd69a64a9f9e44ca8ac00000000"
    }
  ]
}