{
  "hash": "00000000424dd4464523a62a4b39c9ed23ec6b6d02f73d18064c5660a876c276",
  "confirmations": 45820,
  "height": 7278,
  "version": 1,
  "versionHex": "00000001",
  "merkleroot": "8e989f374aa88bb253e64ee17302d01ffd9425326b5c6383c5b84e7fb4f3d7ad",
  "time": 1236930000,
  "mediantime": 1236925488,
  "nonce": 3327525419,
  "bits": "1d00ffff",
  "difficulty": 1,
  "chainwork": "00000000000000000000000000000000000000000000000000001c6f1c6f1c6f",
  "nTx": 1,
  "previousblockhash": "00000000feeb0a00f26eb90dcceb1f6261b78204d88d113a2cac2e57cfba3a10",
  "nextblockhash": "00000000bdebace782e92206845942b7ff4c89071b3a7bba584a31d8b6d6c505",
  "strippedsize": 216,
  "size": 216,
  "weight": 864,
  "tx": [
    {
      "txid": "8e989f374aa88bb253e64ee17302d01ffd9425326b5c6383c5b84e7fb4f3d7ad",
      "hash": "8e989f374aa88bb253e64ee17302d01ffd9425326b5c6383c5b84e7fb4f3d7ad",
      "version": 1,
      "size": 135,
      "vsize": 135,
      "weight": 540,
      "locktime": 0,
      "vin": [
        {
          "coinbase": "04ffff001d02f806",
          "sequence": 4294967295
        }
      ],
      "vout": [
        {
          "value": 50.0,
          "n": 0,
          "scriptPubKey": {
            "asm": "0432a4dff2b1e60f7efbf97fd313032842c743beff28ab95937bf8003c8c079f44a3eac3c9167bc5054ba36c4074c3e061b0af2b5131b78e6c4aaaaf90808df9bb OP_CHECKSIG",
            "desc": "pk(0432a4dff2b1e60f7efbf97fd313032842c743beff28ab95937bf8003c8c079f44a3eac3c9167bc5054ba36c4074c3e061b0af2b5131b78e6c4aaaaf90808df9bb)#p4d8a4u8",
            "hex": "410432a4dff2b1e60f7efbf97fd313032842c743beff28ab95937bf8003c8c079f44a3eac3c9167bc5054ba36c4074c3e061b0af2b5131b78e6c4aaaaf90808df9bbac",
            "type": "pubkey"
          }
        }
      ],
      "hex": "01000000010000000000000000000000000000000000000000000000000000000000000000ffffffff0804ffff001d02f806ffffffff0100f2052a0100000043410432a4dff2b1e60f7efbf97fd313032842c743beff28ab95937bf8003c8c079f44a3eac3c9167bc5054ba36c4074c3e061b0af2b5131b78e6c4aaaaf90808df9bbac00000000"
    }
  ]
}