{
  "hash": "00000000942b4a56b8fb720816d5cb9fa59913e1fa8733622e8a79b4480cd292",
  "confirmations": 50208,
  "height": 2890,
  "version": 1,
  "versionHex": "00000001",
  "merkleroot": "a06fae1796762f5eefa7a3a73def3a268c9fadce15ebddc93ef6f9b36ad0a3b3",
  "time": 1233685532,
  "mediantime": 1233681014,
  "nonce": 1694157610,
  "bits": "1d00ffff",
  "difficulty": 1,
  "chainwork": "00000000000000000000000000000000000000000000000000000b4b0b4b0b4b",
  "nTx": 1,
  "previousblockhash": "00000000fb831f909a4b0abe527c5117ed7dfa290c4585bdd6ba498482a2e1c8",
  "nextblockhash": "00000000ef95513c5ad9c9eec8b9a2d9676d5d9b825e46c5a3a1be8c6de25f78",
  "strippedsize": 216,
  "size": 216,
  "weight": 864,
  "tx": [
    {
      "txid": "a06fae1796762f5eefa7a3a73def3a268c9fadce15ebddc93ef6f9b36ad0a3b3",
      "hash": "a06fae1796762f5eefa7a3a73def3a268c9fadce15ebddc93ef6f9b36ad0a3b3",
      "version": 1,
      "size": 135,
      "vsize": 135,
      "weight": 540,
      "locktime": 0,
      "vin": [
        {
          "coinbase": "04ffff001d024d07",
          "sequence": 4294967295
        }
      ],
      "vout": [
        {
          "value": 50.0,
          "n": 0,
          "scriptPubKey": {
            "asm": "045725c86149ee3d0bb8f3f276d6e256c753d6396d4f4e504d081a68ddf8f1bcb8568773024310135a26cc2f37190ed2f765a90ab949ae5cf69016480ed2d3bb78 OP_CHECKSIG",
            "desc": "pk(045725c86149ee3d0bb8f3f276d6e256c753d6396d4f4e504d081a68ddf8f1bcb8568773024310135a26cc2f37190ed2f765a90ab949ae5cf69016480ed2d3bb78)#3vyq4ur7",
            "hex": "41045725c86149ee3d0bb8f3f276d6e256c753d6396d4f4e504d081a68ddf8f1bcb8568773024310135a26cc2f37190ed2f765a90ab949ae5cf69016480ed2d3bb78ac",
            "type": "pubkey"
          }
        }
      ],
      "hex": "01000000010000000000000000000000000000000000000000000000000000000000000000ffffffff0804ffff001d024d07ffffffff0100f2052a010000004341045725c86149ee3d0bb8f3f276d6e256c753d6396d4f4e504d081a68ddf8f1bcb8568773024310135a26cc2f37190ed2f765a90ab949ae5cf69016480ed2d3bb78ac00000000"
    }
  ]
}