{
  "hash": "00000000dec5e5fbf851495db241e624012d675bbef96ec6dab5cdc91fa3b53b",
  "confirmations": 51987,
  "height": 353,
  "version": 1,
  "versionHex": "00000001",
  "merkleroot": "cfca74c0c3b1f8560fbc3866915a161d4fc1c03b85acb9ef3a8bef9c632e0410",
  "time": 1231867963,
  "mediantime": 1231864090,
  "nonce": 3399760157,
  "bits": "1d00ffff",
  "difficulty": 1,
  "chainwork": "0000000000000000000000000000000000000000000000000000016201620162",
  "nTx": 1,
  "previousblockhash": "0000000090e31ebfb5734092b91f0d8b1dc5f40cd7ff9c18b3f0e999278c7c91",
  "nextblockhash": "000000009bbc82871dd828a2573d035d05cc2947c7d99668609f6c671779436c",
  "strippedsize": 216,
  "size": 216,
  "weight": 864,
  "tx": [
    {
      "txid": "cfca74c0c3b1f8560fbc3866915a161d4fc1c03b85acb9ef3a8bef9c632e0410",
      "hash": "cfca74c0c3b1f8560fbc3866915a161d4fc1c03b85acb9ef3a8bef9c632e0410",
      "version": 1,
      "size": 135,
      "vsize": 135,
      "weight": 540,
      "locktime": 0,
      "vin": [
        {
          "coinbase": "04ffff001d029301",
          "sequence": 4294967295
        }
      ],
      "vout": [
        {
          "value": 50.0,
          "n": 0,
          "scriptPubKey": {
            "asm": "04072c895ece84f16a6bc34ece1286beaa40c58b8b1a3bd5161d91a597cff68143988fffc2400c7fbfd92a75046c10180eddbc78ad72276fd032a96b654fa4e196 OP_CHECKSIG",
            "desc": "pk(04072c895ece84f16a6bc34ece1286beaa40c58b8b1a3bd5161d91a597cff68143988fffc2400c7fbfd92a75046c10180eddbc78ad72276fd032a96b654fa4e196)#e3trauhn",
            "hex": "4104072c895ece84f16a6bc34ece1286beaa40c58b8b1a3bd5161d91a597cff68143988fffc2400c7fbfd92a75046c10180eddbc78ad72276fd032a96b654fa4e196ac",
            "type": "pubkey"
          }
        }
      ],
      "hex": "01000000010000000000000000000000000000000000000000000000000000000000000000ffffffff0804ffff001d029301ffffffff0100f2052a01000000434104072c895ece84f16a6bc34ece1286beaa40c58b8b1a3bd5161d91a597cff68143988fffc2400c7fbfd92a75046c10180eddbc78ad72276fd032a96b654fa4e196ac00000000"
    }
  ]
}