{
  "hash": "00000000d4f802358c9fd7fde183da3ad137979775893a756ce93ec3d2570526",
  "confirmations": 50438,
  "height": 2660,
  "version": 1,
  "versionHex": "00000001",
  "merkleroot": "b681d4883e256378349464b802cc54e7d59905c5fb31eec888ff4eaec6437452",
  "time": 1233534202,
  "mediantime": 1233531399,
  "nonce": 3353550634,
  "bits": "1d00ffff",
  "difficulty": 1,
  "chainwork": "00000000000000000000000000000000000000000000000000000a650a650a65",
  "nTx": 1,
  "previousblockhash": "000000005a580147f6b6d5e90d40e173977f0f08f78bef0aa545a97f0bd2ccb4",
  "nextblockhash": "000000007fb3dc97caf583a7740fbcc579eaca202c1eba5ebedc80d8e1a3c696",
  "strippedsize": 216,
  "size": 216,
  "weight": 864,
  "tx": [
    {
      "txid": "b681d4883e256378349464b802cc54e7d59905c5fb31eec888ff4eaec6437452",
      "hash": "b681d4883e256378349464b802cc54e7d59905c5fb31eec888ff4eaec6437452",
      "version": 1,
      "size": 135,
      "vsize": 135,
      "weight": 540,
      "locktime": 0,
      "vin": [
        {
          "coinbase": "04ffff001d021604",
          "sequence": 4294967295
        }
      ],
      "vout": [
        {
          "value": 50.0,
          "n": 0,
          "scriptPubKey": {
            "asm": "04ceaa362f4fef79e1737010372ae9223e29f20d614660404044cb1bd95ec9d624d7aadacf83a5e84de766e423a85e2dd428700afb95eb47cad3420b166180ec8c OP_CHECKSIG",
            "desc": "pk(04ceaa362f4fef79e1737010372ae9223e29f20d614660404044cb1bd95ec9d624d7aadacf83a5e84de766e423a85e2dd428700afb95eb47cad3420b166180ec8c)#yhwe9ukx",
            "hex": "4104ceaa362f4fef79e1737010372ae9223e29f20d614660404044cb1bd95ec9d624d7aadacf83a5e84de766e423a85e2dd428700afb95eb47cad3420b166180ec8cac",
            "type": "pubkey"
          }
        }
      ],
      "hex": "01000000010000000000000000000000000000000000000000000000000000000000000000ffffffff0804ffff001d021604ffffffff0100f2052a01000000434104ceaa362f4fef79e1737010372ae9223e29f20d614660404044cb1bd95ec9d624d7aadacf83a5e84de766e423a85e2dd428700afb95eb47cad3420b166180ec8cac00000000"
    }
  ]
}