{
  "hash": "00000000ab880dad8805775912fd1984db3d1375218b0c3d6b313e65d3d287fd",
  "confirmations": 45479,
  "height": 7619,
  "version": 1,
  "versionHex": "00000001",
  "merkleroot": "46b9e853194e157495670a7bc5bedc25a00b28a7206bcf1adaf171468d5f84ca",
  "time": 1237180807,
  "mediantime": 1237177530,
  "nonce": 3604561409,
  "bits": "1d00ffff",
  "difficulty": 1,
  "chainwork": "00000000000000000000000000000000000000000000000000001dc41dc41dc4",
  "nTx": 1,
  "previousblockhash": "00000000cbb272f5db6697e2730c2fd503196ff74d651f5eb8cf8fd9441956e2",
  "nextblockhash": "00000000973393290810ebc30f6693407abaa16ba3e5301d616282a4e4e1fe05",
  "strippedsize": 216,
  "size": 216,
  "weight": 864,
  "tx": [
    {
      "txid": "46b9e853194e157495670a7bc5bedc25a00b28a7206bcf1adaf171468d5f84ca",
      "hash": "46b9e853194e157495670a7bc5bedc25a00b28a7206bcf1adaf171468d5f84ca",
      "version": 1,
      "size": 135,
      "vsize": 135,
      "weight": 540,
      "locktime": 0,
      "vin": [
        {
          "coinbase": "04ffff001d02e302",
          "sequence": 4294967295
        }
      ],
      "vout": [
        {
          "value": 50.0,
          "n": 0,
          "scriptPubKey": {
            "asm": "04f812739c4a30a91eb8e0ce0c0abdd36a52ccb581b0c3ae3cdbb4aafeede077f0b7164374b39055a0d8a74da4c82305f0bbcd1cf5c092f72516bb7d0ec29c0070 OP_CHECKSIG",
            "desc": "pk(04f812739c4a30a91eb8e0ce0c0abdd36a52ccb581b0c3ae3cdbb4aafeede077f0b7164374b39055a0d8a74da4c82305f0bbcd1cf5c092f72516bb7d0ec29c0070)#retet5jv",
            "hex": "4104f812739c4a30a91eb8e0ce0c0abdd36a52ccb581b0c3ae3cdbb4aafeede077f0b7164374b39055a0d8a74da4c82305f0bbcd1cf5c092f72516bb7d0ec29c0070ac",
            "type": "pubkey"
          }
        }
      ],
      "hex": "01000000010000000000000000000000000000000000000000000000000000000000000000ffffffff0804ffff001d02e302ffffffff0100f2052a01000000434104f812739c4a30a91eb8e0ce0c0abdd36a52ccb581b0c3ae3cdbb4aafeede077f0b7164374b39055a0d8a74da4c82305f0bbcd1cf5c092f72516bb7d0ec29c0070ac00000000"
    }
  ]
}