{
  "hash": "000000008bc90e56b5bee69295294ec719dd3fc4813aec427afdc1c954c2a1ad",
  "confirmations": 46405,
  "height": 6693,
  "version": 1,
  "versionHex": "00000001",
  "merkleroot": "617d7b6d08059f982acb321024ae899719794375226e3ff864539f6002d0550c",
  "time": 1236478524,
  "mediantime": 1236473952,
  "nonce": 101386355,
  "bits": "1d00ffff",
  "difficulty": 1,
  "chainwork": "00000000000000000000000000000000000000000000000000001a261a261a26",
  "nTx": 1,
  "previousblockhash": "00000000da496f41eda284f0f77c700b26fa05414ac83c1dd6e8d506df3771d3",
  "nextblockhash": "00000000aa9f9c565876fbbb0652950b6e556df7b7e3e6936862d0d254373a34",
  "strippedsize": 216,
  "size": 216,
  "weight": 864,
  "tx": [
    {
      "txid": "617d7b6d08059f982acb321024ae899719794375226e3ff864539f6002d0550c",
      "hash": "617d7b6d08059f982acb321024ae899719794375226e3ff864539f6002d0550c",
      "version": 1,
      "size": 135,
      "vsize": 135,
      "weight": 540,
      "locktime": 0,
      "vin": [
        {
          "coinbase": "04ffff001d02d604",
          "sequence": 4294967295
        }
      ],
      "vout": [
        {
          "value": 50.0,
          "n": 0,
          "scriptPubKey": {
            "asm": "0439417c18c800490217667147718463c43ffa8593961a2b230b8a2b05908808d82db9a77658bfbccab0bba608aa3286c6fa133d8739e01749eccd52323a9a61ba OP_CHECKSIG",
            "desc": "pk(0439417c18c800490217667147718463c43ffa8593961a2b230b8a2b05908808d82db9a77658bfbccab0bba608aa3286c6fa133d8739e01749eccd52323a9a61ba)#dqv2s5uf",
            "hex": "410439417c18c800490217667147718463c43ffa8593961a2b230b8a2b05908808d82db9a77658bfbccab0bba608aa3286c6fa133d8739e01749eccd52323a9a61baac",
            "type": "pubkey"
          }
        }
      ],
      "hex": "01000000010000000000000000000000000000000000000000000000000000000000000000ffffffff0804ffff001d02d604ffffffff0100f2052a0100000043410439417c18c800490217667147718463c43ffa8593961a2b230b8a2b05908808d82db9a77658bfbccab0bba608aa3286c6fa133d8739e01749eccd52323a9a61baac00000000"
    }
  ]
}