{
  "hash": "0000000073b5c954142a616ba14e334d4c2c680055edc45c661288ae4bf46bfb",
  "confirmations": 44958,
  "height": 8140,
  "version": 1,
  "versionHex": "00000001",
  "merkleroot": "c60aad3e122bd8bbb95663daff86f82d7b446013c315855525a4a4946ae66994",
  "time": 1237563913,
  "mediantime": 1237559507,
  "nonce": 2629548842,
  "bits": "1d00ffff",
  "difficulty": 1,
  "chainwork": "00000000000000000000000000000000000000000000000000001fcd1fcd1fcd",
  "nTx": 1,
  "previousblockhash": "0000000042992d944601e484892ca33c7f1abc183523108faf7ad0b1c9146111",
  "nextblockhash": "000000000cef43aa6525a1e57e18477950fa20bc2242e30ea4fe4d8a3da2d483",
  "strippedsize": 216,
  "size": 216,
  "weight": 864,
  "tx": [
    {
      "txid": "c60aad3e122bd8bbb95663daff86f82d7b446013c315855525a4a4946ae66994",
      "hash": "c60aad3e122bd8bbb95663daff86f82d7b446013c315855525a4a4946ae66994",
      "version": 1,
      "size": 135,
      "vsize": 135,
      "weight": 540,
      "locktime": 0,
      "vin": [
        {
          "coinbase": "04ffff001d02d201",
          "sequence": 4294967295
        }
      ],
      "vout": [
        {
          "value": 50.0,
          "n": 0,
          "scriptPubKey": {
            "asm": "04bee85b79db37688acd8818df15b3d88b294ac62dac631345a73dfecff0ab3786ee7fed3d1036f01fbadb93793f2d3722f83385ae1aa0d0660e36d7d1fa3c1912 OP_CHECKSIG",
            "desc": "pk(04bee85b79db37688acd8818df15b3d88b294ac62dac631345a73dfecff0ab3786ee7fed3d1036f01fbadb93793f2d3722f83385ae1aa0d0660e36d7d1fa3c1912)#va9ehev4",
            "hex": "4104bee85b79db37688acd8818df15b3d88b294ac62dac631345a73dfecff0ab3786ee7fed3d1036f01fbadb93793f2d3722f83385ae1aa0d0660e36d7d1fa3c1912ac",
            "type": "pubkey"
          }
        }
      ],
      "hex": "01000000010000000000000000000000000000000000000000000000000000000000000000ffffffff0804ffff001d02d201ffffffff0100f2052a01000000434104bee85b79db37688acd8818df15b3d88b294ac62dac631345a73dfecff0ab3786ee7fed3d1036f01fbadb93793f2d3722f83385ae1aa0d0660e36d7d1fa3c1912ac00000000"
    }
  ]
}