{
  "hash": "00000000835a4f694206958ee0ea6195675d37c6a8c0daefebbc1b4ebcdf5be5",
  "confirmations": 43730,
  "height": 9368,
  "version": 1,
  "versionHex": "00000001",
  "merkleroot": "20960e48c76a42a25262e2db265cdad5d7ff3a11d63cd71ee48e8c678cd1f1b9",
  "time": 1238524427,
  "mediantime": 1238520354,
  "nonce": 4159503873,
  "bits": "1d00ffff",
  "difficulty": 1,
  "chainwork": "0000000000000000000000000000000000000000000000000000249924992499",
  "nTx": 1,
  "previousblockhash": "00000000007adb697bf21410b4353bcaea2d15fe61b15ab47bd521b70825cb1d",
  "nextblockhash": "00000000fb268655c88bc3ab236d3a96f0df834217e1cf425942f0dc193706f4",
  "strippedsize": 216,
  "size": 216,
  "weight": 864,
  "tx": [
    {
      "txid": "20960e48c76a42a25262e2db265cdad5d7ff3a11d63cd71ee48e8c678cd1f1b9",
      "hash": "20960e48c76a42a25262e2db265cdad5d7ff3a11d63cd71ee48e8c678cd1f1b9",
      "version": 1,
      "size": 135,
      "vsize": 135,
      "weight": 540,
      "locktime": 0,
      "vin": [
        {
          "coinbase": "04ffff001d02df02",
          "sequence": 4294967295
        }
      ],
      "vout": [
        {
          "value": 50.0,
          "n": 0,
          "scriptPubKey": {
            "asm": "04b07d2985b7ad1bac072dde038a1d4c313ee79eea447a14a49a35bb3c15493c92bd75f0100cc5ec4b973132b14aca9aaf40f2a9b00995ef0edcc5ca234f8c4c17 OP_CHECKSIG",
            "desc": "pk(04b07d2985b7ad1bac072dde038a1d4c313ee79eea447a14a49a35bb3c15493c92bd75f0100cc5ec4b973132b14aca9aaf40f2a9b00995ef0edcc5ca234f8c4c17)#9wgwev8m",
            "hex": "4104b07d2985b7ad1bac072dde038a1d4c313ee79eea447a14a49a35bb3c15493c92bd75f0100cc5ec4b973132b14aca9aaf40f2a9b00995ef0edcc5ca234f8c4c17ac",
            "type": "pubkey"
          }
        }
      ],
      "hex": "01000000010000000000000000000000000000000000000000000000000000000000000000ffffffff0804ffff001d02df02ffffffff0100f2052a01000000434104b07d2985b7ad1bac072dde038a1d4c313ee79eea447a14a49a35bb3c15493c92bd75f0100cc5ec4b973132b14aca9aaf40f2a9b00995ef0edcc5ca234f8c4c17ac00000000"
    }
  ]
}