{
  "hash": "00000000aac7cc93d4935b998ef0e443670fa85fca631e0441595f9044873597",
  "confirmations": 52127,
  "height": 971,
  "version": 1,
  "versionHex": "00000001",
  "merkleroot": "250de8101ac618582dfa9c3c482c8dc702ec100444f517c9da3b54423e49886d",
  "time": 1232327230,
  "mediantime": 1232323703,
  "nonce": 3256981049,
  "bits": "1d00ffff",
  "difficulty": 1,
  "chainwork": "000000000000000000000000000000000000000000000000000003cc03cc03cc",
  "nTx": 1,
  "previousblockhash": "00000000fd696b6e57923b8092ad44514cd32838469f365bee47dce3f3821570",
  "nextblockhash": "00000000abe6f867ca73ca6bcf77fff97a214ad1be8d93c67648f34ac33b605d",
  "strippedsize": 216,
  "size": 216,
  "weight": 864,
  "tx": [
    {
      "txid": "250de8101ac618582dfa9c3c482c8dc702ec100444f517c9da3b54423e49886d",
      "hash": "250de8101ac618582dfa9c3c482c8dc702ec100444f517c9da3b54423e49886d",
      "version": 1,
      "size": 135,
      "vsize": 135,
      "weight": 540,
      "locktime": 0,
      "vin": [
        {
          "coinbase": "04ffff001d02ae04",
          "sequence": 4294967295
        }
      ],
      "vout": [
        {
          "value": 50.0,
          "n": 0,
          "scriptPubKey": {
            "asm": "0444a14402cd23a620f9d41abb96a73ccea1664871199d6ae4dca247dff221d3439065a83cda20af0ff4d9293a305a61eaa9f36b18bd89f60a8b38a35d9e03ea47 OP_CHECKSIG",
            "desc": "pk(0444a14402cd23a620f9d41abb96a73ccea1664871199d6ae4dca247dff221d3439065a83cda20af0ff4d9293a305a61eaa9f36b18bd89f60a8b38a35d9e03ea47)#m5pzzvj0",
            "hex": "410444a14402cd23a620f9d41abb96a73ccea1664871199d6ae4dca247dff221d3439065a83cda20af0ff4d9293a305a61eaa9f36b18bd89f60a8b38a35d9e03ea47ac",
            "type": "pubkey"
          }
        }
      ],
      "hex": "01000000010000000000000000000000000000000000000000000000000000000000000000ffffffff0804ffff001d02ae04ffffffff0100f2052a0100000043410444a14402cd23a620f9d41abb96a73ccea1664871199d6ae4dca247dff221d3439065a83cda20af0ff4d9293a305a61eaa9f36b18bd89f60a8b38a35d9e03ea47ac00000000"
    }
  ]
}