{
  "hash": "00000000f1dd7a2c8dbb326f034b579058f5bea36438c2b06b21eb1facaed7e1",
  "confirmations": 50528,
  "height": 2570,
  "version": 1,
  "versionHex": "00000001",
  "merkleroot": "115f940a1363ca9ab303fdd3fdddb8d6d0d98fbfc013419fc66917b2bded5208",
  "time": 1233470027,
  "mediantime": 1233465512,
  "nonce": 44223186,
  "bits": "1d00ffff",
  "difficulty": 1,
  "chainwork": "00000000000000000000000000000000000000000000000000000a0b0a0b0a0b",
  "nTx": 1,
  "previousblockhash": "00000000ffb05d42c619788bb38636c1e59ec056ad854893cb9fcb6ceabe14dd",
  "nextblockhash": "00000000aad75b2a3c5d572cafc654ba632558e7792bd600617183d170b1a3aa",
  "strippedsize": 215,
  "size": 215,
  "weight": 860,
  "tx": [
    {
      "txid": "115f940a1363ca9ab303fdd3fdddb8d6d0d98fbfc013419fc66917b2bded5208",
      "hash": "115f940a1363ca9ab303fdd3fdddb8d6d0d98fbfc013419fc66917b2bded5208",
      "version": 1,
      "size": 134,
      "vsize": 134,
      "weight": 536,
      "locktime": 0,
      "vin": [
        {
          "coinbase": "04ffff001d0156",
          "sequence": 4294967295
        }
      ],
      "vout": [
        {
          "value": 50.0,
          "n": 0,
          "scriptPubKey": {
            "asm": "04772c3ad9afd20d65a7b05c56e8ebd002abed58c49ec5874c6e6eef4a292f5df13998fc05b6b8dc63447e028dd4bbc1c05b872f8527d2b1057e47831028223c3f OP_CHECKSIG",
            "desc": "pk(04772c3ad9afd20d65a7b05c56e8ebd002abed58c49ec5874c6e6eef4a292f5df13998fc05b6b8dc63447e028dd4bbc1c05b872f8527d2b1057e47831028223c3f)#agvn4ew6",
            "hex": "4104772c3ad9afd20d65a7b05c56e8ebd002abed58c49ec5874c6e6eef4a292f5df13998fc05b6b8dc63447e028dd4bbc1c05b872f8527d2b1057e47831028223c3fac",
            "type": "pubkey"
          }
        }
      ],
      "hex": "01000000010000000000000000000000000000000000000000000000000000000000000000ffffffff0704ffff001d0156ffffffff0100f2052a01000000434104772c3ad9afd20d65a7b05c56e8ebd002abed58c49ec5874c6e6eef4a292f5df13998fc05b6b8dc63447e028dd4bbc1c05b872f8527d2b1057e47831028223c3fac00000000"
    }
  ]
}