{
  "hash": "00000000b5e64339fcaed867719bf17b4416839403deeeba1ec96ce5ea8c2929",
  "confirmations": 46518,
  "height": 6580,
  "version": 1,
  "versionHex": "00000001",
  "merkleroot": "6f8d00ef775a88ac7c9d58998fe1465e82a631f527b1157aea354a52144cb798",
  "time": 1236388073,
  "mediantime": 1236384336,
  "nonce": 1497859868,
  "bits": "1d00ffff",
  "difficulty": 1,
  "chainwork": "000000000000000000000000000000000000000000000000000019b519b519b5",
  "nTx": 1,
  "previousblockhash": "00000000580a7a7cd537bfac354996f0d5ab1d1779e316968b524153bfff09fc",
  "nextblockhash": "00000000b46bb9d830499302bcf3e544e679897ab595531d98539a4593e5a849",
  "strippedsize": 216,
  "size": 216,
  "weight": 864,
  "tx": [
    {
      "txid": "6f8d00ef775a88ac7c9d58998fe1465e82a631f527b1157aea354a52144cb798",
      "hash": "6f8d00ef775a88ac7c9d58998fe1465e82a631f527b1157aea354a52144cb798",
      "version": 1,
      "size": 135,
      "vsize": 135,
      "weight": 540,
      "locktime": 0,
      "vin": [
        {
          "coinbase": "04ffff001d02c504",
          "sequence": 4294967295
        }
      ],
      "vout": [
        {
          "value": 50.0,
          "n": 0,
          "scriptPubKey": {
            "asm": "04e9e2c7cbda0961e5aff265a1cc383eb97299e904b44fa0e936455ba0fc4204c8f4b9796f06597c8cdae8064c23d6b8371bce8b4d4667de85815eb40cff0aaaa2 OP_CHECKSIG",
            "desc": "pk(04e9e2c7cbda0961e5aff265a1cc383eb97299e904b44fa0e936455ba0fc4204c8f4b9796f06597c8cdae8064c23d6b8371bce8b4d4667de85815eb40cff0aaaa2)#tud3lnzt",
            "hex": "4104e9e2c7cbda0961e5aff265a1cc383eb97299e904b44fa0e936455ba0fc4204c8f4b9796f06597c8cdae8064c23d6b8371bce8b4d4667de85815eb40cff0aaaa2ac",
            "type": "pubkey"
          }
        }
      ],
      "hex": "01000000010000000000000000000000000000000000000000000000000000000000000000ffffffff0804ffff001d02c504ffffffff0100f2052a01000000434104e9e2c7cbda0961e5aff265a1cc383eb97299e904b44fa0e936455ba0fc4204c8f4b9796f06597c8cdae8064c23d6b8371bce8b4d4667de85815eb40cff0aaaa2ac00000000"
    }
  ]
}