{
  "hash": "00000000db6f91c65401f84f300112e3c1da0a0f524ab7632026c4f678a31dd0",
  "confirmations": 47274,
  "height": 5824,
  "version": 1,
  "versionHex": "00000001",
  "merkleroot": "c793b3253c2502de4ff2a9c5dffe9e7ac7b8b639cb76557bcdc259f23a9d8249",
  "time": 1235778671,
  "mediantime": 1235774420,
  "nonce": 920433705,
  "bits": "1d00ffff",
  "difficulty": 1,
  "chainwork": "000000000000000000000000000000000000000000000000000016c116c116c1",
  "nTx": 1,
  "previousblockhash": "000000008e15745c8ff16c3dacd1ec2e9bb0cd45c4f8d09dcfbcc018a28ef30b",
  "nextblockhash": "0000000089cb1e9dc1faccf347fbf0dbbe293e8c0d8c6892d571ce520f6d68aa",
  "strippedsize": 216,
  "size": 216,
  "weight": 864,
  "tx": [
    {
      "txid": "c793b3253c2502de4ff2a9c5dffe9e7ac7b8b639cb76557bcdc259f23a9d8249",
      "hash": "c793b3253c2502de4ff2a9c5dffe9e7ac7b8b639cb76557bcdc259f23a9d8249",
      "version": 1,
      "size": 135,
      "vsize": 135,
      "weight": 540,
      "locktime": 0,
      "vin": [
        {
          "coinbase": "04ffff001d023f01",
          "sequence": 4294967295
        }
      ],
      "vout": [
        {
          "value": 50.0,
          "n": 0,
          "scriptPubKey": {
            "asm": "040465ddf213375c83425c953535900efceeeb50a8c0f7ad0a94bbe4cef572ec184b2b8ddf08cfb2319d94ed84fcfa2b161fccfe41b0a87494728f3dfff2e30629 OP_CHECKSIG",
            "desc": "pk(040465ddf213375c83425c953535900efceeeb50a8c0f7ad0a94bbe4cef572ec184b2b8ddf08cfb2319d94ed84fcfa2b161fccfe41b0a87494728f3dfff2e30629)#mu9mvtlp",
            "hex": "41040465ddf213375c83425c953535900efceeeb50a8c0f7ad0a94bbe4cef572ec184b2b8ddf08cfb2319d94ed84fcfa2b161fccfe41b0a87494728f3dfff2e30629ac",
            "type": "pubkey"
          }
        }
      ],
      "hex": "01000000010000000000000000000000000000000000000000000000000000000000000000ffffffff0804ffff001d023f01ffffffff0100f2052a010000004341040465ddf213375c83425c953535900efceeeb50a8c0f7ad0a94bbe4cef572ec184b2b8ddf08cfb2319d94ed84fcfa2b161fccfe41b0a87494728f3dfff2e30629ac00000000"
    }
  ]
}