{
  "hash": "000000006f7aeefb7422772dab079d9b7d720bacf1e484db7b139c97adafb113",
  "confirmations": 51685,
  "height": 1413,
  "version": 1,
  "versionHex": "00000001",
  "merkleroot": "12fa7bfd939a3c1e5bcb73f8cbc1a4e9a6659b8faf6292a74bbb1068eba252b0",
  "time": 1232730965,
  "mediantime": 1232729089,
  "nonce": 2980532992,
  "bits": "1d00ffff",
  "difficulty": 1,
  "chainwork": "0000000000000000000000000000000000000000000000000000058605860586",
  "nTx": 1,
  "previousblockhash": "000000009365124501ccc3fd99fd9a600d15a02c623851ef583445a2357cf1ae",
  "nextblockhash": "000000004d6162db48e96c60539ee73637524ad11e0b401c6bd327a13e3ab865",
  "strippedsize": 215,
  "size": 215,
  "weight": 860,
  "tx": [
    {
      "txid": "12fa7bfd939a3c1e5bcb73f8cbc1a4e9a6659b8faf6292a74bbb1068eba252b0",
      "hash": "12fa7bfd939a3c1e5bcb73f8cbc1a4e9a6659b8faf6292a74bbb1068eba252b0",
      "version": 1,
      "size": 134,
      "vsize": 134,
      "weight": 536,
      "locktime": 0,
      "vin": [
        {
          "coinbase": "04ffff001d0149",
          "sequence": 4294967295
        }
      ],
      "vout": [
        {
          "value": 50.0,
          "n": 0,
          "scriptPubKey": {
            "asm": "047c095fcf737f99dbf0379ed3af89746e68fe9886067768dc0c99acab9d4f50f880b0d2ef7001bfe3d670ab4f3e5f3929c47a98ae4d73ab040342279fe0395285 OP_CHECKSIG",
            "desc": "pk(047c095fcf737f99dbf0379ed3af89746e68fe9886067768dc0c99acab9d4f50f880b0d2ef7001bfe3d670ab4f3e5f3929c47a98ae4d73ab040342279fe0395285)#p6kjxru8",
            "hex": "41047c095fcf737f99dbf0379ed3af89746e68fe9886067768dc0c99acab9d4f50f880b0d2ef7001bfe3d670ab4f3e5f3929c47a98ae4d73ab040342279fe0395285ac",
            "type": "pubkey"
          }
        }
      ],
      "hex": "01000000010000000000000000000000000000000000000000000000000000000000000000ffffffff0704ffff001d0149ffffffff0100f2052a010000004341047c095fcf737f99dbf0379ed3af89746e68fe9886067768dc0c99acab9d4f50f880b0d2ef7001bfe3d670ab4f3e5f3929c47a98ae4d73ab040342279fe0395285ac00000000"
    }
  ]
}