{
  "hash": "00000000c5cf5efab33ada912190fc8317df39ad07d97714abda1892d9fc33b1",
  "confirmations": 44864,
  "height": 8234,
  "version": 1,
  "versionHex": "00000001",
  "merkleroot": "38fbb29d6014d3f9fbf10304c2561f0d482f8dcfe7ec3ed3df8c35c5d4f41b13",
  "time": 1237687002,
  "mediantime": 1237669430,
  "nonce": 260336433,
  "bits": "1d00ffff",
  "difficulty": 1,
  "chainwork": "0000000000000000000000000000000000000000000000000000202b202b202b",
  "nTx": 1,
  "previousblockhash": "000000001ef602d85268d37d20d3218d272e919201c2effed87e7d1b5bb1b5a9",
  "nextblockhash": "000000000efc9a056078950245bbe3d42c2de4c2f4f15780587ffa1f01034a1d",
  "strippedsize": 216,
  "size": 216,
  "weight": 864,
  "tx": [
    {
      "txid": "38fbb29d6014d3f9fbf10304c2561f0d482f8dcfe7ec3ed3df8c35c5d4f41b13",
      "hash": "38fbb29d6014d3f9fbf10304c2561f0d482f8dcfe7ec3ed3df8c35c5d4f41b13",
      "version": 1,
      "size": 135,
      "vsize": 135,
      "weight": 540,
      "locktime": 0,
      "vin": [
        {
          "coinbase": "04ffff001d024c03",
          "sequence": 4294967295
        }
      ],
      "vout": [
        {
          "value": 50.0,
          "n": 0,
          "scriptPubKey": {
            "asm": "047ef76f5278a417699fea73cd0417a6645c29e8f42dc39bba577f2246966ab02cceec9f744e7dc59dcadd00ea244ba75d58dc116a2745b256631df6ec125c1f80 OP_CHECKSIG",
            "desc": "pk(047ef76f5278a417699fea73cd0417a6645c29e8f42dc39bba577f2246966ab02cceec9f744e7dc59dcadd00ea244ba75d58dc116a2745b256631df6ec125c1f80)#6k0qemwl",
            "hex": "41047ef76f5278a417699fea73cd0417a6645c29e8f42dc39bba577f2246966ab02cceec9f744e7dc59dcadd00ea244ba75d58dc116a2745b256631df6ec125c1f80ac",
            "type": "pubkey"
          }
        }
      ],
      "hex": "01000000010000000000000000000000000000000000000000000000000000000000000000ffffffff0804ffff001d024c03ffffffff0100f2052a010000004341047ef76f5278a417699fea73cd0417a6645c29e8f42dc39bba577f2246966ab02cceec9f744e7dc59dcadd00ea244ba75d58dc116a2745b256631df6ec125c1f80ac00000000"
    }
  ]
}