{
  "hash": "000000008af2f7e50adfea5af321b00e884ead00d87fde7a7ec1f5b85e5924e3",
  "confirmations": 49007,
  "height": 4091,
  "version": 1,
  "versionHex": "00000001",
  "merkleroot": "206acdba59d7697b515233e4ebc238cf83bd31d6cce2931eb1813dd8941b71ce",
  "time": 1234507372,
  "mediantime": 1234502391,
  "nonce": 637644341,
  "bits": "1d00ffff",
  "difficulty": 1,
  "chainwork": "00000000000000000000000000000000000000000000000000000ffc0ffc0ffc",
  "nTx": 1,
  "previousblockhash": "00000000b8234b6c5dc8fbec7cac15533fff02b2855c12ddc1136262049eaca6",
  "nextblockhash": "00000000ddab5b03e1a0ea911bd6ffaa5e1ab24d75918bc717c1ad0ad8ae39ca",
  "strippedsize": 216,
  "size": 216,
  "weight": 864,
  "tx": [
    {
      "txid": "206acdba59d7697b515233e4ebc238cf83bd31d6cce2931eb1813dd8941b71ce",
      "hash": "206acdba59d7697b515233e4ebc238cf83bd31d6cce2931eb1813dd8941b71ce",
      "version": 1,
      "size": 135,
      "vsize": 135,
      "weight": 540,
      "locktime": 0,
      "vin": [
        {
          "coinbase": "04ffff001d02d605",
          "sequence": 4294967295
        }
      ],
      "vout": [
        {
          "value": 50.0,
          "n": 0,
          "scriptPubKey": {
            "asm": "04bd5c3eddc184aa7f7b357b29bd2bed06ef0303154b6ae5585fe39d20d935ebc6f8fc449becd994b9b8e503fcbdcb10a1e5d744601737cfa66a151e63b07fa34b OP_CHECKSIG",
            "desc": "pk(04bd5c3eddc184aa7f7b357b29bd2bed06ef0303154b6ae5585fe39d20d935ebc6f8fc449becd994b9b8e503fcbdcb10a1e5d744601737cfa66a151e63b07fa34b)#hr3wye4z",
            "hex": "4104bd5c3eddc184aa7f7b357b29bd2bed06ef0303154b6ae5585fe39d20d935ebc6f8fc449becd994b9b8e503fcbdcb10a1e5d744601737cfa66a151e63b07fa34bac",
            "type": "pubkey"
          }
        }
      ],
      "hex": "01000000010000000000000000000000000000000000000000000000000000000000000000ffffffff0804ffff001d02d605ffffffff0100f2052a01000000434104bd5c3eddc184aa7f7b357b29bd2bed06ef0303154b6ae5585fe39d20d935ebc6f8fc449becd994b9b8e503fcbdcb10a1e5d744601737cfa66a151e63b07fa34bac00000000"
    }
  ]
}