{
  "hash": "00000000f10cbb89e740b80162df1f679def8d249371d46e6ddc671b63d360de",
  "confirmations": 47418,
  "height": 5680,
  "version": 1,
  "versionHex": "00000001",
  "merkleroot": "a24b30bc80c2b4eeef5e8e60b16515819c5c92c48d09ef5ef962aaa9e1f9406c",
  "time": 1235674168,
  "mediantime": 1235670865,
  "nonce": 3525556786,
  "bits": "1d00ffff",
  "difficulty": 1,
  "chainwork": "0000000000000000000000000000000000000000000000000000163116311631",
  "nTx": 1,
  "previousblockhash": "000000005e707fcd51e766ce6bd973ff5adbe756d996184f476d1d3760ab4fc8",
  "nextblockhash": "00000000c4d23fc94f3939e26f249fee98ce464d38415a9299606399dce8e923",
  "strippedsize": 216,
  "size": 216,
  "weight": 864,
  "tx": [
    {
      "txid": "a24b30bc80c2b4eeef5e8e60b16515819c5c92c48d09ef5ef962aaa9e1f9406c",
      "hash": "a24b30bc80c2b4eeef5e8e60b16515819c5c92c48d09ef5ef962aaa9e1f9406c",
      "version": 1,
      "size": 135,
      "vsize": 135,
      "weight": 540,
      "locktime": 0,
      "vin": [
        {
          "coinbase": "04ffff001d022009",
          "sequence": 4294967295
        }
      ],
      "vout": [
        {
          "value": 50.0,
          "n": 0,
          "scriptPubKey": {
            "asm": "044050344362ebc66c44c9c9a44c6536e97dfe0d7fe0a6fae7442aba553609c70d24faa94011883bb148c40cc9b62d009d0c248f16eabade8763d370d0381fd58d OP_CHECKSIG",
            "desc": "pk(044050344362ebc66c44c9c9a44c6536e97dfe0d7fe0a6fae7442aba553609c70d24faa94011883bb148c40cc9b62d009d0c248f16eabade8763d370d0381fd58d)#c4ggx7qw",
            "hex": "41044050344362ebc66c44c9c9a44c6536e97dfe0d7fe0a6fae7442aba553609c70d24faa94011883bb148c40cc9b62d009d0c248f16eabade8763d370d0381fd58dac",
            "type": "pubkey"
          }
        }
      ],
      "hex": "01000000010000000000000000000000000000000000000000000000000000000000000000ffffffff0804ffff001d022009ffffffff0100f2052a010000004341044050344362ebc66c44c9c9a44c6536e97dfe0d7fe0a6fae7442aba553609c70d24faa94011883bb148c40cc9b62d009d0c248f16eabade8763d370d0381fd58dac00000000"
    }
  ]
}