{
  "hash": "000000009d1eeefa21f3ca68284fd9236e722d6aad7443c2c8f23d124e7fb9df",
  "confirmations": 44737,
  "height": 8361,
  "version": 1,
  "versionHex": "00000001",
  "merkleroot": "654561e8858c359b5bc0dd17dfd68e1ce9e5b2d079e3838b3994f81e88ada606",
  "time": 1237774023,
  "mediantime": 1237772145,
  "nonce": 1541613614,
  "bits": "1d00ffff",
  "difficulty": 1,
  "chainwork": "000000000000000000000000000000000000000000000000000020aa20aa20aa",
  "nTx": 1,
  "previousblockhash": "00000000d50a093110c3cde6536f10c7ca57e46896397372930d74534ac16879",
  "nextblockhash": "000000008ab337472c11ece22a3ac9c91e95562399604a9b4afe38d532604c19",
  "strippedsize": 216,
  "size": 216,
  "weight": 864,
  "tx": [
    {
      "txid": "654561e8858c359b5bc0dd17dfd68e1ce9e5b2d079e3838b3994f81e88ada606",
      "hash": "654561e8858c359b5bc0dd17dfd68e1ce9e5b2d079e3838b3994f81e88ada606",
      "version": 1,
      "size": 135,
      "vsize": 135,
      "weight": 540,
      "locktime": 0,
      "vin": [
        {
          "coinbase": "04ffff001d024205",
          "sequence": 4294967295
        }
      ],
      "vout": [
        {
          "value": 50.0,
          "n": 0,
          "scriptPubKey": {
            "asm": "043a5b35f23963f4cce288ebfd7e1302ec6a103e931dcc1d8dd0437cc9d7bf3c7d2f0b52fad519af2b7600bef2e78940eac0e6ea79a19f028e6932000467ce579f OP_CHECKSIG",
            "desc": "pk(043a5b35f23963f4cce288ebfd7e1302ec6a103e931dcc1d8dd0437cc9d7bf3c7d2f0b52fad519af2b7600bef2e78940eac0e6ea79a19f028e6932000467ce579f)#3pgz67rk",
            "hex": "41043a5b35f23963f4cce288ebfd7e1302ec6a103e931dcc1d8dd0437cc9d7bf3c7d2f0b52fad519af2b7600bef2e78940eac0e6ea79a19f028e6932000467ce579fac",
            "type": "pubkey"
          }
        }
      ],
      "hex": "01000000010000000000000000000000000000000000000000000000000000000000000000ffffffff0804ffff001d024205ffffffff0100f2052a010000004341043a5b35f23963f4cce288ebfd7e1302ec6a103e931dcc1d8dd0437cc9d7bf3c7d2f0b52fad519af2b7600bef2e78940eac0e6ea79a19f028e6932000467ce579fac00000000"
    }
  ]
}