{
  "hash": "00000000d3ec2f50772c2d42d4afb054c283555766a0ca1d8da65b9b5058a49e",
  "confirmations": 52028,
  "height": 309,
  "version": 1,
  "versionHex": "00000001",
  "merkleroot": "f2d386c0632e927c343cff451a81a8a03eaa6e9316dab79e56d83e218e329bd3",
  "time": 1231839504,
  "mediantime": 1231835642,
  "nonce": 3675115,
  "bits": "1d00ffff",
  "difficulty": 1,
  "chainwork": "0000000000000000000000000000000000000000000000000000013601360136",
  "nTx": 1,
  "previousblockhash": "000000008a2d970d0e70426780035154342a0416903899925cf9283e815da494",
  "nextblockhash": "00000000ee59cb43445c8e4533582ef5a1b69be6a23eb496efc1cc6767b994f7",
  "strippedsize": 215,
  "size": 215,
  "weight": 860,
  "tx": [
    {
      "txid": "f2d386c0632e927c343cff451a81a8a03eaa6e9316dab79e56d83e218e329bd3",
      "hash": "f2d386c0632e927c343cff451a81a8a03eaa6e9316dab79e56d83e218e329bd3",
      "version": 1,
      "size": 134,
      "vsize": 134,
      "weight": 536,
      "locktime": 0,
      "vin": [
        {
          "coinbase": "04ffff001d0124",
          "sequence": 4294967295
        }
      ],
      "vout": [
        {
          "value": 50.0,
          "n": 0,
          "scriptPubKey": {
            "asm": "04e35e21961245dff98fca4f831cb67253cc8413ca04f71366b87e7e389be0e3f66ea351e5d5229c11f474f4e4452ea6409e87d1846f425c17b2239390e26db713 OP_CHECKSIG",
            "desc": "pk(04e35e21961245dff98fca4f831cb67253cc8413ca04f71366b87e7e389be0e3f66ea351e5d5229c11f474f4e4452ea6409e87d1846f425c17b2239390e26db713)#qsd08juk",
            "hex": "4104e35e21961245dff98fca4f831cb67253cc8413ca04f71366b87e7e389be0e3f66ea351e5d5229c11f474f4e4452ea6409e87d1846f425c17b2239390e26db713ac",
            "type": "pubkey"
          }
        }
      ],
      "hex": "01000000010000000000000000000000000000000000000000000000000000000000000000ffffffff0704ffff001d0124ffffffff0100f2052a01000000434104e35e21961245dff98fca4f831cb67253cc8413ca04f71366b87e7e389be0e3f66ea351e5d5229c11f474f4e4452ea6409e87d1846f425c17b2239390e26db713ac00000000"
    }
  ]
}