{
  "hash": "00000000337ad9abadea27e4f1a0d2bbc91847a70e67a0aa254fc4b946a9ba32",
  "confirmations": 47782,
  "height": 5316,
  "version": 1,
  "versionHex": "00000001",
  "merkleroot": "eb049abae9cb3567c85ca0b1bc1a8e1357eae2cdf6762f14e11bf045d132f06a",
  "time": 1235377967,
  "mediantime": 1235372829,
  "nonce": 2209360166,
  "bits": "1d00ffff",
  "difficulty": 1,
  "chainwork": "000000000000000000000000000000000000000000000000000014c514c514c5",
  "nTx": 1,
  "previousblockhash": "000000005656e61d1e4a4b6b8db1e35cd3ba55aa5f4e026f91abaa0283ae93d0",
  "nextblockhash": "00000000faa0f221e2886a8f0a544b232da1258c208ff422ca7b4ced77cd6109",
  "strippedsize": 216,
  "size": 216,
  "weight": 864,
  "tx": [
    {
      "txid": "eb049abae9cb3567c85ca0b1bc1a8e1357eae2cdf6762f14e11bf045d132f06a",
      "hash": "eb049abae9cb3567c85ca0b1bc1a8e1357eae2cdf6762f14e11bf045d132f06a",
      "version": 1,
      "size": 135,
      "vsize": 135,
      "weight": 540,
      "locktime": 0,
      "vin": [
        {
          "coinbase": "04ffff001d025502",
          "sequence": 4294967295
        }
      ],
      "vout": [
        {
          "value": 50.0,
          "n": 0,
          "scriptPubKey": {
            "asm": "0444b1fde30f6646c0e79acbb171e30f2a248686f5a1777ae46d263dfbdac1c0abb4647aa5cf55764200e95ad60cbda303df032d16824194b1c014aceb15f76a96 OP_CHECKSIG",
            "desc": "pk(0444b1fde30f6646c0e79acbb171e30f2a248686f5a1777ae46d263dfbdac1c0abb4647aa5cf55764200e95ad60cbda303df032d16824194b1c014aceb15f76a96)#87t8rsn5",
            "hex": "410444b1fde30f6646c0e79acbb171e30f2a248686f5a1777ae46d263dfbdac1c0abb4647aa5cf55764200e95ad60cbda303df032d16824194b1c014aceb15f76a96ac",
            "type": "pubkey"
          }
        }
      ],
      "hex": "01000000010000000000000000000000000000000000000000000000000000000000000000ffffffff0804ffff001d025502ffffffff0100f2052a0100000043410444b1fde30f6646c0e79acbb171e30f2a248686f5a1777ae46d263dfbdac1c0abb4647aa5cf55764200e95ad60cbda303df032d16824194b1c014aceb15f76a96ac00000000"
    }
  ]
}