{
  "hash": "0000000017599abe29157e86036b8a99bf38c80efd5b24aada62218b32e66670",
  "confirmations": 47301,
  "height": 5797,
  "version": 1,
  "versionHex": "00000001",
  "merkleroot": "81d65d0a2a17bb368ad1037fd49b91a6b369af3efaa17a6bcb4c773a5a7bbf16",
  "time": 1235757639,
  "mediantime": 1235754101,
  "nonce": 1669888291,
  "bits": "1d00ffff",
  "difficulty": 1,
  "chainwork": "000000000000000000000000000000000000000000000000000016a616a616a6",
  "nTx": 1,
  "previousblockhash": "00000000e0bb8c9569709a55dbb9e36ee754534ec28fd438fab74312d60533a9",
  "nextblockhash": "00000000f4dc7e3ccbcd4edfe0eb2d5dd3443d0b1daad84cabc7080d3ae6b8eb",
  "strippedsize": 216,
  "size": 216,
  "weight": 864,
  "tx": [
    {
      "txid": "81d65d0a2a17bb368ad1037fd49b91a6b369af3efaa17a6bcb4c773a5a7bbf16",
      "hash": "81d65d0a2a17bb368ad1037fd49b91a6b369af3efaa17a6bcb4c773a5a7bbf16",
      "version": 1,
      "size": 135,
      "vsize": 135,
      "weight": 540,
      "locktime": 0,
      "vin": [
        {
          "coinbase": "04ffff001d02a500",
          "sequence": 4294967295
        }
      ],
      "vout": [
        {
          "value": 50.0,
          "n": 0,
          "scriptPubKey": {
            "asm": "04c44afc63517f1d99d09c7d88731f6c54ea2ea6cf91787657e1430051881a36b8ad3c410c7b29ea92a8faeda21b16a1e559a9d386bdab470b0999ee9696451db9 OP_CHECKSIG",
            "desc": "pk(04c44afc63517f1d99d09c7d88731f6c54ea2ea6cf91787657e1430051881a36b8ad3c410c7b29ea92a8faeda21b16a1e559a9d386bdab470b0999ee9696451db9)#ayuc2f2m",
            "hex": "4104c44afc63517f1d99d09c7d88731f6c54ea2ea6cf91787657e1430051881a36b8ad3c410c7b29ea92a8faeda21b16a1e559a9d386bdab470b0999ee9696451db9ac",
            "type": "pubkey"
          }
        }
      ],
      "hex": "01000000010000000000000000000000000000000000000000000000000000000000000000ffffffff0804ffff001d02a500ffffffff0100f2052a01000000434104c44afc63517f1d99d09c7d88731f6c54ea2ea6cf91787657e1430051881a36b8ad3c410c7b29ea92a8faeda21b16a1e559a9d386bdab470b0999ee9696451db9ac00000000"
    }
  ]
}