{
  "hash": "000000009563ae9864265a9e26fdde16a3472feb911bcf3026248e0f94a79391",
  "confirmations": 45632,
  "height": 7466,
  "version": 1,
  "versionHex": "00000001",
  "merkleroot": "a291264b699803e3c660f276188fe91c8215e2b53cb9b31369ae2e30c12e2eb4",
  "time": 1237073678,
  "mediantime": 1237070896,
  "nonce": 29687557,
  "bits": "1d00ffff",
  "difficulty": 1,
  "chainwork": "00000000000000000000000000000000000000000000000000001d2b1d2b1d2b",
  "nTx": 1,
  "previousblockhash": "00000000a77f496fc7522e7a815866ea83b3986bbfcc95f9a9eed746b3637756",
  "nextblockhash": "0000000090068d35377714ca3017ada56fcb8815fcb2e88b137ce2b87a1f2a89",
  "strippedsize": 216,
  "size": 216,
  "weight": 864,
  "tx": [
    {
      "txid": "a291264b699803e3c660f276188fe91c8215e2b53cb9b31369ae2e30c12e2eb4",
      "hash": "a291264b699803e3c660f276188fe91c8215e2b53cb9b31369ae2e30c12e2eb4",
      "version": 1,
      "size": 135,
      "vsize": 135,
      "weight": 540,
      "locktime": 0,
      "vin": [
        {
          "coinbase": "04ffff001d028603",
          "sequence": 4294967295
        }
      ],
      "vout": [
        {
          "value": 50.0,
          "n": 0,
          "scriptPubKey": {
            "asm": "04e66b760ab633377b7473b3006a1c95f8fc6815b69d6a2b6ba7145c19d3e93d736dd7981a719f19565213873d7c2f219e9defb05d077a8ec4ede22a1983e248b6 OP_CHECKSIG",
            "desc": "pk(04e66b760ab633377b7473b3006a1c95f8fc6815b69d6a2b6ba7145c19d3e93d736dd7981a719f19565213873d7c2f219e9defb05d077a8ec4ede22a1983e248b6)#5psdujk3",
            "hex": "4104e66b760ab633377b7473b3006a1c95f8fc6815b69d6a2b6ba7145c19d3e93d736dd7981a719f19565213873d7c2f219e9defb05d077a8ec4ede22a1983e248b6ac",
            "type": "pubkey"
          }
        }
      ],
      "hex": "01000000010000000000000000000000000000000000000000000000000000000000000000ffffffff0804ffff001d028603ffffffff0100f2052a01000000434104e66b760ab633377b7473b3006a1c95f8fc6815b69d6a2b6ba7145c19d3e93d736dd7981a719f19565213873d7c2f219e9defb05d077a8ec4ede22a1983e248b6ac00000000"
    }
  ]
}