{
  "hash": "0000000096b10c38faeb0f0a8108d6b3abb98df22066a1ced832c853dbfd536b",
  "confirmations": 49777,
  "height": 3321,
  "version": 1,
  "versionHex": "00000001",
  "merkleroot": "b9ba579e8f7d9aeec44f9f6d1ad6303e01284575a34ce546d0b1c6a55f36a860",
  "time": 1233981903,
  "mediantime": 1233979158,
  "nonce": 1810383898,
  "bits": "1d00ffff",
  "difficulty": 1,
  "chainwork": "00000000000000000000000000000000000000000000000000000cfa0cfa0cfa",
  "nTx": 1,
  "previousblockhash": "0000000005b5a5457c73250d3d17d18f1146f002ea7f2b5ba193e760902c0b88",
  "nextblockhash": "00000000b59a16623d132e4bd5dfceb8dafc87d7b9b82aee8698d6a180693100",
  "strippedsize": 216,
  "size": 216,
  "weight": 864,
  "tx": [
    {
      "txid": "b9ba579e8f7d9aeec44f9f6d1ad6303e01284575a34ce546d0b1c6a55f36a860",
      "hash": "b9ba579e8f7d9aeec44f9f6d1ad6303e01284575a34ce546d0b1c6a55f36a860",
      "version": 1,
      "size": 135,
      "vsize": 135,
      "weight": 540,
      "locktime": 0,
      "vin": [
        {
          "coinbase": "04ffff001d02a204",
          "sequence": 4294967295
        }
      ],
      "vout": [
        {
          "value": 50.0,
          "n": 0,
          "scriptPubKey": {
            "asm": "043838662cca15a7c3a36054d4a3d015f722bcf9dd4301c81014941712efee227db793f55fd2499278ba26b82564a9b3e611cd4f7a909645d29fddb12e9bf1d852 OP_CHECKSIG",
            "desc": "pk(043838662cca15a7c3a36054d4a3d015f722bcf9dd4301c81014941712efee227db793f55fd2499278ba26b82564a9b3e611cd4f7a909645d29fddb12e9bf1d852)#gxnk5s0u",
            "hex": "41043838662cca15a7c3a36054d4a3d015f722bcf9dd4301c81014941712efee227db793f55fd2499278ba26b82564a9b3e611cd4f7a909645d29fddb12e9bf1d852ac",
            "type": "pubkey"
          }
        }
      ],
      "hex": "01000000010000000000000000000000000000000000000000000000000000000000000000ffffffff0804ffff001d02a204ffffffff0100f2052a010000004341043838662cca15a7c3a36054d4a3d015f722bcf9dd4301c81014941712efee227db793f55fd2499278ba26b82564a9b3e611cd4f7a909645d29fddb12e9bf1d852ac00000000"
    }
  ]
}