{
  "hash": "00000000df2d3bba4f1531073725ce32de73945c1838c7f4d6483e6488ef6062",
  "confirmations": 46459,
  "height": 6639,
  "version": 1,
  "versionHex": "00000001",
  "merkleroot": "634deb90f05077c25bbe2e3ea5f51e20ee55c1c336ee37953a6e6cc3fd7d25e1",
  "time": 1236435116,
  "mediantime": 1236430019,
  "nonce": 3132778791,
  "bits": "1d00ffff",
  "difficulty": 1,
  "chainwork": "000000000000000000000000000000000000000000000000000019f019f019f0",
  "nTx": 1,
  "previousblockhash": "0000000049c16417c7396e9c7ac62a3549d874e86ca17664e8a55664bfc27cc0",
  "nextblockhash": "000000009da10f71d6baa3c6e3494b7fdadf5ffaf5ac49bd95b5398816c45c11",
  "strippedsize": 216,
  "size": 216,
  "weight": 864,
  "tx": [
    {
      "txid": "634deb90f05077c25bbe2e3ea5f51e20ee55c1c336ee37953a6e6cc3fd7d25e1",
      "hash": "634deb90f05077c25bbe2e3ea5f51e20ee55c1c336ee37953a6e6cc3fd7d25e1",
      "version": 1,
      "size": 135,
      "vsize": 135,
      "weight": 540,
      "locktime": 0,
      "vin": [
        {
          "coinbase": "04ffff001d02e805",
          "sequence": 4294967295
        }
      ],
      "vout": [
        {
          "value": 50.0,
          "n": 0,
          "scriptPubKey": {
            "asm": "040d524065a877cc8bf83fbbc1ed7e07196a232f24b04885af3d7321e28522ff23cc15646e59375415a2e9dbc9b51185929664a5bf246a85cd761531500b6c08d2 OP_CHECKSIG",
            "desc": "pk(040d524065a877cc8bf83fbbc1ed7e07196a232f24b04885af3d7321e28522ff23cc15646e59375415a2e9dbc9b51185929664a5bf246a85cd761531500b6c08d2)#gsrypzmn",
            "hex": "41040d524065a877cc8bf83fbbc1ed7e07196a232f24b04885af3d7321e28522ff23cc15646e59375415a2e9dbc9b51185929664a5bf246a85cd761531500b6c08d2ac",
            "type": "pubkey"
          }
        }
      ],
      "hex": "01000000010000000000000000000000000000000000000000000000000000000000000000ffffffff0804ffff001d02e805ffffffff0100f2052a010000004341040d524065a877cc8bf83fbbc1ed7e07196a232f24b04885af3d7321e28522ff23cc15646e59375415a2e9dbc9b51185929664a5bf246a85cd761531500b6c08d2ac00000000"
    }
  ]
}