{
  "hash": "00000000ca4019c36fc34ce3485f0bf44ac2439c593b11399059a8ba421b2a97",
  "confirmations": 43580,
  "height": 9518,
  "version": 1,
  "versionHex": "00000001",
  "merkleroot": "da2487f6becff8c66b95391da1c9516f4aabec7e712b6b9da43a5e5d3e271fcd",
  "time": 1238640911,
  "mediantime": 1238638628,
  "nonce": 1136875310,
  "bits": "1d00ffff",
  "difficulty": 1,
  "chainwork": "0000000000000000000000000000000000000000000000000000252f252f252f",
  "nTx": 1,
  "previousblockhash": "000000003035b7da49f22c5a5356017cc50813dbb2b6c90f0a1544bebcbeb50a",
  "nextblockhash": "0000000059b3af167907578525bd8cd41697761192e4aceb2129d9701d13a49c",
  "strippedsize": 216,
  "size": 216,
  "weight": 864,
  "tx": [
    {
      "txid": "da2487f6becff8c66b95391da1c9516f4aabec7e712b6b9da43a5e5d3e271fcd",
      "hash": "da2487f6becff8c66b95391da1c9516f4aabec7e712b6b9da43a5e5d3e271fcd",
      "version": 1,
      "size": 135,
      "vsize": 135,
      "weight": 540,
      "locktime": 0,
      "vin": [
        {
          "coinbase": "04ffff001d029c05",
          "sequence": 4294967295
        }
      ],
      "vout": [
        {
          "value": 50.0,
          "n": 0,
          "scriptPubKey": {
            "asm": "045f2be5a27c9edc9c1b52ece28193ff0e51b45b779c6f17a5632a95a72242869ab21d64181103cda114ab3f614d692b83e6f20806d061d686d94b120a62c9eb9e OP_CHECKSIG",
            "desc": "pk(045f2be5a27c9edc9c1b52ece28193ff0e51b45b779c6f17a5632a95a72242869ab21d64181103cda114ab3f614d692b83e6f20806d061d686d94b120a62c9eb9e)#uut60n35",
            "hex": "41045f2be5a27c9edc9c1b52ece28193ff0e51b45b779c6f17a5632a95a72242869ab21d64181103cda114ab3f614d692b83e6f20806d061d686d94b120a62c9eb9eac",
            "type": "pubkey"
          }
        }
      ],
      "hex": "01000000010000000000000000000000000000000000000000000000000000000000000000ffffffff0804ffff001d029c05ffffffff0100f2052a010000004341045f2be5a27c9edc9c1b52ece28193ff0e51b45b779c6f17a5632a95a72242869ab21d64181103cda114ab3f614d692b83e6f20806d061d686d94b120a62c9eb9eac00000000"
    }
  ]
}