{
  "hash": "0000000052cc05409e3d653f1d8ec284e7c5b4283851310cbdfc604e313f9cdb",
  "confirmations": 48246,
  "height": 4852,
  "version": 1,
  "versionHex": "00000001",
  "merkleroot": "2d22e6a0d4491c75a6cae9550cf39a7be985533a16087ae6cc8a8b77dac69fbd",
  "time": 1235038972,
  "mediantime": 1235036187,
  "nonce": 88622163,
  "bits": "1d00ffff",
  "difficulty": 1,
  "chainwork": "000000000000000000000000000000000000000000000000000012f512f512f5",
  "nTx": 1,
  "previousblockhash": "0000000030f5e3d36e4e5e63c7eb5372511e468483907b13e91eb9b8b8f55833",
  "nextblockhash": "00000000e233f8e7006ab1269ce3f6726f81eda73b86e0e9d67662166a3280b2",
  "strippedsize": 216,
  "size": 216,
  "weight": 864,
  "tx": [
    {
      "txid": "2d22e6a0d4491c75a6cae9550cf39a7be985533a16087ae6cc8a8b77dac69fbd",
      "hash": "2d22e6a0d4491c75a6cae9550cf39a7be985533a16087ae6cc8a8b77dac69fbd",
      "version": 1,
      "size": 135,
      "vsize": 135,
      "weight": 540,
      "locktime": 0,
      "vin": [
        {
          "coinbase": "04ffff001d028c0b",
          "sequence": 4294967295
        }
      ],
      "vout": [
        {
          "value": 50.0,
          "n": 0,
          "scriptPubKey": {
            "asm": "04a89369be5663f46e388adb15c9fc060533bee08ec6c42874293074f98abbc12bdb2a2f5cccb3d280fc2807472863d7a273db821574dddc94c6b3a67dfb287cb8 OP_CHECKSIG",
            "desc": "pk(04a89369be5663f46e388adb15c9fc060533bee08ec6c42874293074f98abbc12bdb2a2f5cccb3d280fc2807472863d7a273db821574dddc94c6b3a67dfb287cb8)#re6y48p0",
            "hex": "4104a89369be5663f46e388adb15c9fc060533bee08ec6c42874293074f98abbc12bdb2a2f5cccb3d280fc2807472863d7a273db821574dddc94c6b3a67dfb287cb8ac",
            "type": "pubkey"
          }
        }
      ],
      "hex": "01000000010000000000000000000000000000000000000000000000000000000000000000ffffffff0804ffff001d028c0bffffffff0100f2052a01000000434104a89369be5663f46e388adb15c9fc060533bee08ec6c42874293074f98abbc12bdb2a2f5cccb3d280fc2807472863d7a273db821574dddc94c6b3a67dfb287cb8ac00000000"
    }
  ]
}