{
  "hash": "00000000c1ce5fe1a2634169b9ad82c5bff5056f4ccd515d79d91a5c46fb199a",
  "confirmations": 44199,
  "height": 8899,
  "version": 1,
  "versionHex": "00000001",
  "merkleroot": "eb36c9279576ded639cf8a2fd7741c991d7970ac32f60057a77c2d066085fd36",
  "time": 1238178609,
  "mediantime": 1238173962,
  "nonce": 131787630,
  "bits": "1d00ffff",
  "difficulty": 1,
  "chainwork": "000000000000000000000000000000000000000000000000000022c422c422c4",
  "nTx": 1,
  "previousblockhash": "0000000070440a4fd1cd5dbbb22ff9df576f6e457ddee169b99103b696bc4ab4",
  "nextblockhash": "00000000f73fe67c4b7c62068e1801cc53d8333f951c14107e70f8179bd51cf7",
  "strippedsize": 216,
  "size": 216,
  "weight": 864,
  "tx": [
    {
      "txid": "eb36c9279576ded639cf8a2fd7741c991d7970ac32f60057a77c2d066085fd36",
      "hash": "eb36c9279576ded639cf8a2fd7741c991d7970ac32f60057a77c2d066085fd36",
      "version": 1,
      "size": 135,
      "vsize": 135,
      "weight": 540,
      "locktime": 0,
      "vin": [
        {
          "coinbase": "04ffff001d02c804",
          "sequence": 4294967295
        }
      ],
      "vout": [
        {
          "value": 50.0,
          "n": 0,
          "scriptPubKey": {
            "asm": "0409a700692e0c5fbeffe196629555141c3a9c89be0774d25d8d45297e11fb6ababd06ce9cf8367da1708f2a340b5c934605aa0c829f0af141d2dea7fdd7bb02bc OP_CHECKSIG",
            "desc": "pk(0409a700692e0c5fbeffe196629555141c3a9c89be0774d25d8d45297e11fb6ababd06ce9cf8367da1708f2a340b5c934605aa0c829f0af141d2dea7fdd7bb02bc)#sehtn5h5",
            "hex": "410409a700692e0c5fbeffe196629555141c3a9c89be0774d25d8d45297e11fb6ababd06ce9cf8367da1708f2a340b5c934605aa0c829f0af141d2dea7fdd7bb02bcac",
            "type": "pubkey"
          }
        }
      ],
      "hex": "01000000010000000000000000000000000000000000000000000000000000000000000000ffffffff0804ffff001d02c804ffffffff0100f2052a0100000043410409a700692e0c5fbeffe196629555141c3a9c89be0774d25d8d45297e11fb6ababd06ce9cf8367da1708f2a340b5c934605aa0c829f0af141d2dea7fdd7bb02bcac00000000"
    }
  ]
}