{
  "hash": "0000000077972a815618cc4c5070715be0dd2af487410e9a381b6e96d96fda16",
  "confirmations": 50760,
  "height": 2338,
  "version": 1,
  "versionHex": "00000001",
  "merkleroot": "1ce37767e426ae3544525c4c62ab3dfc952367ead0a9f9cf98570dfc0f38c86d",
  "time": 1233308258,
  "mediantime": 1233304178,
  "nonce": 198488634,
  "bits": "1d00ffff",
  "difficulty": 1,
  "chainwork": "0000000000000000000000000000000000000000000000000000092309230923",
  "nTx": 1,
  "previousblockhash": "00000000621d217b83af87dcb7814936aa60bebaa1af67f6434944bf78a0fbf0",
  "nextblockhash": "000000003b2a9ac3f0efab472b9ceae68fa38e2d629e9a41defcf9969f60920d",
  "strippedsize": 215,
  "size": 215,
  "weight": 860,
  "tx": [
    {
      "txid": "1ce37767e426ae3544525c4c62ab3dfc952367ead0a9f9cf98570dfc0f38c86d",
      "hash": "1ce37767e426ae3544525c4c62ab3dfc952367ead0a9f9cf98570dfc0f38c86d",
      "version": 1,
      "size": 134,
      "vsize": 134,
      "weight": 536,
      "locktime": 0,
      "vin": [
        {
          "coinbase": "04ffff001d0161",
          "sequence": 4294967295
        }
      ],
      "vout": [
        {
          "value": 50.0,
          "n": 0,
          "scriptPubKey": {
            "asm": "043194f41988bb41bb8f63d12f757110dd9fe97661dda8fd11b819bae1ea8a6787ee7b060df07e246f393f3f929a421ab24b4776b58c0f15122cd6fd345440d3d9 OP_CHECKSIG",
            "desc": "pk(043194f41988bb41bb8f63d12f757110dd9fe97661dda8fd11b819bae1ea8a6787ee7b060df07e246f393f3f929a421ab24b4776b58c0f15122cd6fd345440d3d9)#lymd3n3t",
            "hex": "41043194f41988bb41bb8f63d12f757110dd9fe97661dda8fd11b819bae1ea8a6787ee7b060df07e246f393f3f929a421ab24b4776b58c0f15122cd6fd345440d3d9ac",
            "type": "pubkey"
          }
        }
      ],
      "hex": "01000000010000000000000000000000000000000000000000000000000000000000000000ffffffff0704ffff001d0161ffffffff0100f2052a010000004341043194f41988bb41bb8f63d12f757110dd9fe97661dda8fd11b819bae1ea8a6787ee7b060df07e246f393f3f929a421ab24b4776b58c0f15122cd6fd345440d3d9ac00000000"
    }
  ]
}