{
  "hash": "00000000a8982ea2e2c918ee717ef4cf772c0b4ea6a2b758a0241c5f01347c9f",
  "confirmations": 45907,
  "height": 7191,
  "version": 1,
  "versionHex": "00000001",
  "merkleroot": "30c45c1ee89c0b620aae272535d277e997b574e37c1e438ed6b79a7183ff1768",
  "time": 1236863937,
  "mediantime": 1236859644,
  "nonce": 95973172,
  "bits": "1d00ffff",
  "difficulty": 1,
  "chainwork": "00000000000000000000000000000000000000000000000000001c181c181c18",
  "nTx": 1,
  "previousblockhash": "0000000040e547b48aed97cf8be2b4a72242cefea51d9211c37e434b9893024d",
  "nextblockhash": "00000000c48f09445e988fe63f8580727a3aa8c0561b89354c301fdfd808b2f2",
  "strippedsize": 216,
  "size": 216,
  "weight": 864,
  "tx": [
    {
      "txid": "30c45c1ee89c0b620aae272535d277e997b574e37c1e438ed6b79a7183ff1768",
      "hash": "30c45c1ee89c0b620aae272535d277e997b574e37c1e438ed6b79a7183ff1768",
      "version": 1,
      "size": 135,
      "vsize": 135,
      "weight": 540,
      "locktime": 0,
      "vin": [
        {
          "coinbase": "04ffff001d02df0d",
          "sequence": 4294967295
        }
      ],
      "vout": [
        {
          "value": 50.0,
          "n": 0,
          "scriptPubKey": {
            "asm": "0410ef2a20040cdacc9ac7d9b7c0a321ea4ba3feb45691c73a2d8c781d04d69a0ca1beb862c99e8d95871f0d4a7dc06ef182cf2dc12dd3d3ef1cf852188dfbe66d OP_CHECKSIG",
            "desc": "pk(0410ef2a20040cdacc9ac7d9b7c0a321ea4ba3feb45691c73a2d8c781d04d69a0ca1beb862c99e8d95871f0d4a7dc06ef182cf2dc12dd3d3ef1cf852188dfbe66d)#75hr00qn",
            "hex": "410410ef2a20040cdacc9ac7d9b7c0a321ea4ba3feb45691c73a2d8c781d04d69a0ca1beb862c99e8d95871f0d4a7dc06ef182cf2dc12dd3d3ef1cf852188dfbe66dac",
            "type": "pubkey"
          }
        }
      ],
      "hex": "01000000010000000000000000000000000000000000000000000000000000000000000000ffffffff0804ffff001d02df0dffffffff0100f2052a0100000043410410ef2a20040cdacc9ac7d9b7c0a321ea4ba3feb45691c73a2d8c781d04d69a0ca1beb862c99e8d95871f0d4a7dc06ef182cf2dc12dd3d3ef1cf852188dfbe66dac00000000"
    }
  ]
}