{
  "hash": "0000000036a113fad8c0d74c5fe30f09fcef40dd2bd94a2b36f93298eebf8606",
  "confirmations": 52287,
  "height": 811,
  "version": 1,
  "versionHex": "00000001",
  "merkleroot": "d027a9f372bdefd8178314ca9139f721e44df43412009457fd9b09f52dae66c5",
  "time": 1232201404,
  "mediantime": 1232198028,
  "nonce": 326617677,
  "bits": "1d00ffff",
  "difficulty": 1,
  "chainwork": "0000000000000000000000000000000000000000000000000000032c032c032c",
  "nTx": 1,
  "previousblockhash": "00000000a120b4f04e84e2d2adbb5384a08c490c24b0a134739da6aa2a287b60",
  "nextblockhash": "00000000d139d167e3f6b575cf2578469e86db13d7cb1035eeabe64e751bb5cc",
  "strippedsize": 216,
  "size": 216,
  "weight": 864,
  "tx": [
    {
      "txid": "d027a9f372bdefd8178314ca9139f721e44df43412009457fd9b09f52dae66c5",
      "hash": "d027a9f372bdefd8178314ca9139f721e44df43412009457fd9b09f52dae66c5",
      "version": 1,
      "size": 135,
      "vsize": 135,
      "weight": 540,
      "locktime": 0,
      "vin": [
        {
          "coinbase": "04ffff001d02b400",
          "sequence": 4294967295
        }
      ],
      "vout": [
        {
          "value": 50.0,
          "n": 0,
          "scriptPubKey": {
            "asm": "04a02179acc1c960a7f3f9c08a1cea63dabf7eef69626963e0814000317ff01d78ab32ebc8ea2a4de189ceee6b31dae655a00f60b459336f15431e3a1ec263c5a0 OP_CHECKSIG",
            "desc": "pk(04a02179acc1c960a7f3f9c08a1cea63dabf7eef69626963e0814000317ff01d78ab32ebc8ea2a4de189ceee6b31dae655a00f60b459336f15431e3a1ec263c5a0)#fnwf3gux",
            "hex": "4104a02179acc1c960a7f3f9c08a1cea63dabf7eef69626963e0814000317ff01d78ab32ebc8ea2a4de189ceee6b31dae655a00f60b459336f15431e3a1ec263c5a0ac",
            "type": "pubkey"
          }
        }
      ],
      "hex": "01000000010000000000000000000000000000000000000000000000000000000000000000ffffffff0804ffff001d02b400ffffffff0100f2052a01000000434104a02179acc1c960a7f3f9c08a1cea63dabf7eef69626963e0814000317ff01d78ab32ebc8ea2a4de189ceee6b31dae655a00f60b459336f15431e3a1ec263c5a0ac00000000"
    }
  ]
}