{
  "hash": "000000001abb7c65800db1b6b3c9db2ae2dde80252ba2010a2736ec649a1d8ba",
  "confirmations": 44541,
  "height": 8557,
  "version": 1,
  "versionHex": "00000001",
  "merkleroot": "cea90a447082e8b609312b4fb4c145f72c6859a42d9637757a607d1ec0dc479a",
  "time": 1237917778,
  "mediantime": 1237914368,
  "nonce": 1044745778,
  "bits": "1d00ffff",
  "difficulty": 1,
  "chainwork": "0000000000000000000000000000000000000000000000000000216e216e216e",
  "nTx": 1,
  "previousblockhash": "00000000a774bf51063dcfef93137cbc8279551be274092b887ff2332bf04d4a",
  "nextblockhash": "000000000f85e438a8cee109ab1cad44f8324ce70de21b95b31fd038451e8f13",
  "strippedsize": 216,
  "size": 216,
  "weight": 864,
  "tx": [
    {
      "txid": "cea90a447082e8b609312b4fb4c145f72c6859a42d9637757a607d1ec0dc479a",
      "hash": "cea90a447082e8b609312b4fb4c145f72c6859a42d9637757a607d1ec0dc479a",
      "version": 1,
      "size": 135,
      "vsize": 135,
      "weight": 540,
      "locktime": 0,
      "vin": [
        {
          "coinbase": "04ffff001d02df08",
          "sequence": 4294967295
        }
      ],
      "vout": [
        {
          "value": 50.0,
          "n": 0,
          "scriptPubKey": {
            "asm": "04b305eb47cb4c40dcb61b470b8e835a1af0530bf17b876ca4c8fe19fe7b5df116cd623a11ade0e0eb65fdc9807b6770335421635325dedf2e325a0b57f72bb2c3 OP_CHECKSIG",
            "desc": "pk(04b305eb47cb4c40dcb61b470b8e835a1af0530bf17b876ca4c8fe19fe7b5df116cd623a11ade0e0eb65fdc9807b6770335421635325dedf2e325a0b57f72bb2c3)#6wr4ad67",
            "hex": "4104b305eb47cb4c40dcb61b470b8e835a1af0530bf17b876ca4c8fe19fe7b5df116cd623a11ade0e0eb65fdc9807b6770335421635325dedf2e325a0b57f72bb2c3ac",
            "type": "pubkey"
          }
        }
      ],
      "hex": "01000000010000000000000000000000000000000000000000000000000000000000000000ffffffff0804ffff001d02df08ffffffff0100f2052a01000000434104b305eb47cb4c40dcb61b470b8e835a1af0530bf17b876ca4c8fe19fe7b5df116cd623a11ade0e0eb65fdc9807b6770335421635325dedf2e325a0b57f72bb2c3ac00000000"
    }
  ]
}