{
  "hash": "00000000547c975d1418ba51f5a154c01e7c3be2336db1bb54b911f1a5b0dfd2",
  "confirmations": 45297,
  "height": 7801,
  "version": 1,
  "versionHex": "00000001",
  "merkleroot": "8f4d8fafe78b3cb826d5c4a682427f449d8411b0a68b047880042925f8325186",
  "time": 1237314158,
  "mediantime": 1237310041,
  "nonce": 17320451,
  "bits": "1d00ffff",
  "difficulty": 1,
  "chainwork": "00000000000000000000000000000000000000000000000000001e7a1e7a1e7a",
  "nTx": 1,
  "previousblockhash": "00000000380462e5918211a1534e199b6585c139d2bf7ca7cd38b60e650e4600",
  "nextblockhash": "000000007c7699978fc025e5b6b2b68f23523c08f8f6e70900133836992ecd27",
  "strippedsize": 216,
  "size": 216,
  "weight": 864,
  "tx": [
    {
      "txid": "8f4d8fafe78b3cb826d5c4a682427f449d8411b0a68b047880042925f8325186",
      "hash": "8f4d8fafe78b3cb826d5c4a682427f449d8411b0a68b047880042925f8325186",
      "version": 1,
      "size": 135,
      "vsize": 135,
      "weight": 540,
      "locktime": 0,
      "vin": [
        {
          "coinbase": "04ffff001d022a09",
          "sequence": 4294967295
        }
      ],
      "vout": [
        {
          "value": 50.0,
          "n": 0,
          "scriptPubKey": {
            "asm": "04ef0dd50d515aa57d513c8bd97e6e551e74a41aad794593fc023316f07464b6e5235a9290e66ec17b4645c956098f09eb8c38b74a0631708bdc3e19abb3a61b3b OP_CHECKSIG",
            "desc": "pk(04ef0dd50d515aa57d513c8bd97e6e551e74a41aad794593fc023316f07464b6e5235a9290e66ec17b4645c956098f09eb8c38b74a0631708bdc3e19abb3a61b3b)#zknyy2n4",
            "hex": "4104ef0dd50d515aa57d513c8bd97e6e551e74a41aad794593fc023316f07464b6e5235a9290e66ec17b4645c956098f09eb8c38b74a0631708bdc3e19abb3a61b3bac",
            "type": "pubkey"
          }
        }
      ],
      "hex": "01000000010000000000000000000000000000000000000000000000000000000000000000ffffffff0804ffff001d022a09ffffffff0100f2052a01000000434104ef0dd50d515aa57d513c8bd97e6e551e74a41aad794593fc023316f07464b6e5235a9290e66ec17b4645c956098f09eb8c38b74a0631708bdc3e19abb3a61b3bac00000000"
    }
  ]
}