{
  "hash": "000000007cd9ac98889d980cff5d6ff741ae977b594ff17bd1795e79ce916ef5",
  "confirmations": 47549,
  "height": 5549,
  "version": 1,
  "versionHex": "00000001",
  "merkleroot": "684b3a3654f60165654792554b83c9923e9527f47dc0c4e9ed11d2fb7ce0dab8",
  "time": 1235561167,
  "mediantime": 1235557275,
  "nonce": 196305671,
  "bits": "1d00ffff",
  "difficulty": 1,
  "chainwork": "000000000000000000000000000000000000000000000000000015ae15ae15ae",
  "nTx": 1,
  "previousblockhash": "000000004e1942f8720de40b68b5f52510060a9fed6c3018dd7af62cf78144be",
  "nextblockhash": "00000000f17bb352960d24ca298a9c986eafa9dddeed41eee4a09d75ad610cbb",
  "strippedsize": 216,
  "size": 216,
  "weight": 864,
  "tx": [
    {
      "txid": "684b3a3654f60165654792554b83c9923e9527f47dc0c4e9ed11d2fb7ce0dab8",
      "hash": "684b3a3654f60165654792554b83c9923e9527f47dc0c4e9ed11d2fb7ce0dab8",
      "version": 1,
      "size": 135,
      "vsize": 135,
      "weight": 540,
      "locktime": 0,
      "vin": [
        {
          "coinbase": "04ffff001d028906",
          "sequence": 4294967295
        }
      ],
      "vout": [
        {
          "value": 50.0,
          "n": 0,
          "scriptPubKey": {
            "asm": "04e786d421a81a28865f4378a2a509b8668e9b8b01f0b0692423331f4454915f2ece371ebd7698f20b49bc946fe0f21dfd99dfa189748b9d613086cf1598614a22 OP_CHECKSIG",
            "desc": "pk(04e786d421a81a28865f4378a2a509b8668e9b8b01f0b0692423331f4454915f2ece371ebd7698f20b49bc946fe0f21dfd99dfa189748b9d613086cf1598614a22)#rmc52jgr",
            "hex": "4104e786d421a81a28865f4378a2a509b8668e9b8b01f0b0692423331f4454915f2ece371ebd7698f20b49bc946fe0f21dfd99dfa189748b9d613086cf1598614a22ac",
            "type": "pubkey"
          }
        }
      ],
      "hex": "01000000010000000000000000000000000000000000000000000000000000000000000000ffffffff0804ffff001d028906ffffffff0100f2052a01000000434104e786d421a81a28865f4378a2a509b8668e9b8b01f0b0692423331f4454915f2ece371ebd7698f20b49bc946fe0f21dfd99dfa189748b9d613086cf1598614a22ac00000000"
    }
  ]
}