{
  "hash": "00000000cd66bd84669273514028f8c9eb023995cab7459de85f3e252fa45332",
  "confirmations": 44240,
  "height": 8858,
  "version": 1,
  "versionHex": "00000001",
  "merkleroot": "653b307a85d4ddf1b9d1c8e24be746a53b71045482cc937d35f17952fc55a27b",
  "time": 1238142870,
  "mediantime": 1238140103,
  "nonce": 244106516,
  "bits": "1d00ffff",
  "difficulty": 1,
  "chainwork": "0000000000000000000000000000000000000000000000000000229b229b229b",
  "nTx": 1,
  "previousblockhash": "000000009170777e5c4bca070011b170128efb51a85367238c42dc78906d2323",
  "nextblockhash": "000000001ba3e0220bbdd8e7e5ad80e28db57c2ccd798346aac2a0114c8207cb",
  "strippedsize": 216,
  "size": 216,
  "weight": 864,
  "tx": [
    {
      "txid": "653b307a85d4ddf1b9d1c8e24be746a53b71045482cc937d35f17952fc55a27b",
      "hash": "653b307a85d4ddf1b9d1c8e24be746a53b71045482cc937d35f17952fc55a27b",
      "version": 1,
      "size": 135,
      "vsize": 135,
      "weight": 540,
      "locktime": 0,
      "vin": [
        {
          "coinbase": "04ffff001d025d03",
          "sequence": 4294967295
        }
      ],
      "vout": [
        {
          "value": 50.0,
          "n": 0,
          "scriptPubKey": {
            "asm": "049ecb3aafe8857be6e5478325f76a083eb37805cef7d2040a83bddc5082be5da8c2fc8e8975209ab839117ab2326de4c2c10e947488a95402cd345ee7cac9d349 OP_CHECKSIG",
            "desc": "pk(049ecb3aafe8857be6e5478325f76a083eb37805cef7d2040a83bddc5082be5da8c2fc8e8975209ab839117ab2326de4c2c10e947488a95402cd345ee7cac9d349)#5kzkptm8",
            "hex": "41049ecb3aafe8857be6e5478325f76a083eb37805cef7d2040a83bddc5082be5da8c2fc8e8975209ab839117ab2326de4c2c10e947488a95402cd345ee7cac9d349ac",
            "type": "pubkey"
          }
        }
      ],
      "hex": "01000000010000000000000000000000000000000000000000000000000000000000000000ffffffff0804ffff001d025d03ffffffff0100f2052a010000004341049ecb3aafe8857be6e5478325f76a083eb37805cef7d2040a83bddc5082be5da8c2fc8e8975209ab839117ab2326de4c2c10e947488a95402cd345ee7cac9d349ac00000000"
    }
  ]
}