{
  "hash": "0000000062efff3d5ad81e54b42db0478ebbdcfcdd146287bbd7c1277d565a83",
  "confirmations": 48027,
  "height": 5071,
  "version": 1,
  "versionHex": "00000001",
  "merkleroot": "169841336054cb5dd7beb1be1c9cc19f41238750559bb5c1daf7c611f2ec6f96",
  "time": 1235194028,
  "mediantime": 1235189487,
  "nonce": 1541481254,
  "bits": "1d00ffff",
  "difficulty": 1,
  "chainwork": "000000000000000000000000000000000000000000000000000013d013d013d0",
  "nTx": 1,
  "previousblockhash": "00000000fab16c47b86ce9a6759599c3de955da28fe4b178d23f2d1d3ffb6ad9",
  "nextblockhash": "00000000e115bbb163c16a2fd94ee533dea3e31256d841d8f6c6c3b6709f1c1e",
  "strippedsize": 216,
  "size": 216,
  "weight": 864,
  "tx": [
    {
      "txid": "169841336054cb5dd7beb1be1c9cc19f41238750559bb5c1daf7c611f2ec6f96",
      "hash": "169841336054cb5dd7beb1be1c9cc19f41238750559bb5c1daf7c611f2ec6f96",
      "version": 1,
      "size": 135,
      "vsize": 135,
      "weight": 540,
      "locktime": 0,
      "vin": [
        {
          "coinbase": "04ffff001d025208",
          "sequence": 4294967295
        }
      ],
      "vout": [
        {
          "value": 50.0,
          "n": 0,
          "scriptPubKey": {
            "asm": "04325fb1824a89204d8042bc6741bafdadcc0309794c8a6eee59c610012c678315cae5918c4ebcad5a2790aef68975198252d424e91e33a545fa2b0d4720b49bce OP_CHECKSIG",
            "desc": "pk(04325fb1824a89204d8042bc6741bafdadcc0309794c8a6eee59c610012c678315cae5918c4ebcad5a2790aef68975198252d424e91e33a545fa2b0d4720b49bce)#z2qyppgl",
            "hex": "4104325fb1824a89204d8042bc6741bafdadcc0309794c8a6eee59c610012c678315cae5918c4ebcad5a2790aef68975198252d424e91e33a545fa2b0d4720b49bceac",
            "type": "pubkey"
          }
        }
      ],
      "hex": "01000000010000000000000000000000000000000000000000000000000000000000000000ffffffff0804ffff001d025208ffffffff0100f2052a01000000434104325fb1824a89204d8042bc6741bafdadcc0309794c8a6eee59c610012c678315cae5918c4ebcad5a2790aef68975198252d424e91e33a545fa2b0d4720b49bceac00000000"
    }
  ]
}