{
  "hash": "000000009d115087626388c2b1e9d115259d0eaeee9a555716352c506203bc52",
  "confirmations": 43480,
  "height": 9618,
  "version": 1,
  "versionHex": "00000001",
  "merkleroot": "8824b5888ff927ec26d3b84eef2030febf8b0250a881f4a3e06c10078e282ca0",
  "time": 1238716773,
  "mediantime": 1238711135,
  "nonce": 2925192196,
  "bits": "1d00ffff",
  "difficulty": 1,
  "chainwork": "0000000000000000000000000000000000000000000000000000259325932593",
  "nTx": 1,
  "previousblockhash": "00000000c1b8eeb553c7a471dfb0c746af982028506650af6c8551027d95703a",
  "nextblockhash": "00000000e7fd9047c192354a49aa03559ffff0eee07bdbc5c08100357f0706a6",
  "strippedsize": 216,
  "size": 216,
  "weight": 864,
  "tx": [
    {
      "txid": "8824b5888ff927ec26d3b84eef2030febf8b0250a881f4a3e06c10078e282ca0",
      "hash": "8824b5888ff927ec26d3b84eef2030febf8b0250a881f4a3e06c10078e282ca0",
      "version": 1,
      "size": 135,
      "vsize": 135,
      "weight": 540,
      "locktime": 0,
      "vin": [
        {
          "coinbase": "04ffff001d026007",
          "sequence": 4294967295
        }
      ],
      "vout": [
        {
          "value": 50.0,
          "n": 0,
          "scriptPubKey": {
            "asm": "043069d22bb10c50083f87ad9a8ccc51d2fbdf18bed06df4db40ab579bf7cb47f6bd45991c852d6fdf81fb7a50bf5f1ba1c0732ffa43d5a83c3af4c98dfaffd954 OP_CHECKSIG",
            "desc": "pk(043069d22bb10c50083f87ad9a8ccc51d2fbdf18bed06df4db40ab579bf7cb47f6bd45991c852d6fdf81fb7a50bf5f1ba1c0732ffa43d5a83c3af4c98dfaffd954)#39k97su5",
            "hex": "41043069d22bb10c50083f87ad9a8ccc51d2fbdf18bed06df4db40ab579bf7cb47f6bd45991c852d6fdf81fb7a50bf5f1ba1c0732ffa43d5a83c3af4c98dfaffd954ac",
            "type": "pubkey"
          }
        }
      ],
      "hex": "01000000010000000000000000000000000000000000000000000000000000000000000000ffffffff0804ffff001d026007ffffffff0100f2052a010000004341043069d22bb10c50083f87ad9a8ccc51d2fbdf18bed06df4db40ab579bf7cb47f6bd45991c852d6fdf81fb7a50bf5f1ba1c0732ffa43d5a83c3af4c98dfaffd954ac00000000"
    }
  ]
}