{
  "hash": "000000005ae417501a41f95d138182e6b6922f1defb43c822ae25a04106fbbac",
  "confirmations": 50705,
  "height": 2393,
  "version": 1,
  "versionHex": "00000001",
  "merkleroot": "0b8a99ecd5ecdb05349bcc724ae183be72397c2e07841f1d9250e0f1dd112642",
  "time": 1233348439,
  "mediantime": 1233344703,
  "nonce": 1103518464,
  "bits": "1d00ffff",
  "difficulty": 1,
  "chainwork": "0000000000000000000000000000000000000000000000000000095a095a095a",
  "nTx": 1,
  "previousblockhash": "00000000038d5c6837cc130a0e36af97fa212aa86cbf5d629e7289d6c67a263f",
  "nextblockhash": "000000005fc0564918d56e12523d158e0d452fabec129c6ad627908b4725fa63",
  "strippedsize": 216,
  "size": 216,
  "weight": 864,
  "tx": [
    {
      "txid": "0b8a99ecd5ecdb05349bcc724ae183be72397c2e07841f1d9250e0f1dd112642",
      "hash": "0b8a99ecd5ecdb05349bcc724ae183be72397c2e07841f1d9250e0f1dd112642",
      "version": 1,
      "size": 135,
      "vsize": 135,
      "weight": 540,
      "locktime": 0,
      "vin": [
        {
          "coinbase": "04ffff001d02a003",
          "sequence": 4294967295
        }
      ],
      "vout": [
        {
          "value": 50.0,
          "n": 0,
          "scriptPubKey": {
            "asm": "044bd946e3ed6eae2e9aac0b1c09e30eb724bb0cce7e47d4838e778cf404c28787451757caba90a9ddfac68a9205e821a794d39f10f786ffe583ab73fb6b648cf7 OP_CHECKSIG",
            "desc": "pk(044bd946e3ed6eae2e9aac0b1c09e30eb724bb0cce7e47d4838e778cf404c28787451757caba90a9ddfac68a9205e821a794d39f10f786ffe583ab73fb6b648cf7)#cjf90xt7",
            "hex": "41044bd946e3ed6eae2e9aac0b1c09e30eb724bb0cce7e47d4838e778cf404c28787451757caba90a9ddfac68a9205e821a794d39f10f786ffe583ab73fb6b648cf7ac",
            "type": "pubkey"
          }
        }
      ],
      "hex": "01000000010000000000000000000000000000000000000000000000000000000000000000ffffffff0804ffff001d02a003ffffffff0100f2052a010000004341044bd946e3ed6eae2e9aac0b1c09e30eb724bb0cce7e47d4838e778cf404c28787451757caba90a9ddfac68a9205e821a794d39f10f786ffe583ab73fb6b648cf7ac00000000"
    }
  ]
}