{
  "hash": "00000000baa5e5244596c280cc198968a08000ab1147156d9d12499857404542",
  "confirmations": 47562,
  "height": 5536,
  "version": 1,
  "versionHex": "00000001",
  "merkleroot": "f7d8c9a687adc86fa07984a9c1051ac1630af3968ba6f1a9cc980acd9414b3c5",
  "time": 1235549517,
  "mediantime": 1235544945,
  "nonce": 108473344,
  "bits": "1d00ffff",
  "difficulty": 1,
  "chainwork": "000000000000000000000000000000000000000000000000000015a115a115a1",
  "nTx": 1,
  "previousblockhash": "00000000b7fad65ac1dcbcfae581af39d329f9d5e0d45ae221db87fadd01776f",
  "nextblockhash": "00000000108e2d7ab83a34e3d4ab2eb807b9651370eec39ab33c3f52c897af4d",
  "strippedsize": 216,
  "size": 216,
  "weight": 864,
  "tx": [
    {
      "txid": "f7d8c9a687adc86fa07984a9c1051ac1630af3968ba6f1a9cc980acd9414b3c5",
      "hash": "f7d8c9a687adc86fa07984a9c1051ac1630af3968ba6f1a9cc980acd9414b3c5",
      "version": 1,
      "size": 135,
      "vsize": 135,
      "weight": 540,
      "locktime": 0,
      "vin": [
        {
          "coinbase": "04ffff001d025606",
          "sequence": 4294967295
        }
      ],
      "vout": [
        {
          "value": 50.0,
          "n": 0,
          "scriptPubKey": {
            "asm": "04c1605487f97936e74bbe9d63306348ddc359f3959232d1a6a7f89b12ec79cfcada3fc026a7e03d4bc31faa0daeb7307430ea56bc9af5a4c6258b3d9576e36394 OP_CHECKSIG",
            "desc": "pk(04c1605487f97936e74bbe9d63306348ddc359f3959232d1a6a7f89b12ec79cfcada3fc026a7e03d4bc31faa0daeb7307430ea56bc9af5a4c6258b3d9576e36394)#cp8era4w",
            "hex": "4104c1605487f97936e74bbe9d63306348ddc359f3959232d1a6a7f89b12ec79cfcada3fc026a7e03d4bc31faa0daeb7307430ea56bc9af5a4c6258b3d9576e36394ac",
            "type": "pubkey"
          }
        }
      ],
      "hex": "01000000010000000000000000000000000000000000000000000000000000000000000000ffffffff0804ffff001d025606ffffffff0100f2052a01000000434104c1605487f97936e74bbe9d63306348ddc359f3959232d1a6a7f89b12ec79cfcada3fc026a7e03d4bc31faa0daeb7307430ea56bc9af5a4c6258b3d9576e36394ac00000000"
    }
  ]
}