{
  "hash": "00000000730d3d553d61fafe4d8afad3ad963580ad4955e10fa09d57b12142a1",
  "confirmations": 44113,
  "height": 8985,
  "version": 1,
  "versionHex": "00000001",
  "merkleroot": "63268548299c6392cfc5fbae545879324889b4a199a4aeb86e134a41a85f69d2",
  "time": 1238241207,
  "mediantime": 1238238241,
  "nonce": 1591380013,
  "bits": "1d00ffff",
  "difficulty": 1,
  "chainwork": "0000000000000000000000000000000000000000000000000000231a231a231a",
  "nTx": 1,
  "previousblockhash": "000000003a3e84b36c88b05ee681f1a1bb084ba6222ef53b58feefca168df591",
  "nextblockhash": "00000000a832413162c986edb5745f156fa4eb5741b0e6a919342072e2b1e3b3",
  "strippedsize": 216,
  "size": 216,
  "weight": 864,
  "tx": [
    {
      "txid": "63268548299c6392cfc5fbae545879324889b4a199a4aeb86e134a41a85f69d2",
      "hash": "63268548299c6392cfc5fbae545879324889b4a199a4aeb86e134a41a85f69d2",
      "version": 1,
      "size": 135,
      "vsize": 135,
      "weight": 540,
      "locktime": 0,
      "vin": [
        {
          "coinbase": "04ffff001d022806",
          "sequence": 4294967295
        }
      ],
      "vout": [
        {
          "value": 50.0,
          "n": 0,
          "scriptPubKey": {
            "asm": "04f798d43154223162106ce3700f172efc74f776339dadfedd1cc4a38359ec34b8444eb70cd9eaeb4ce21802492f87f4cf964d12802ec7fea1e1c8a69444e3b1a7 OP_CHECKSIG",
            "desc": "pk(04f798d43154223162106ce3700f172efc74f776339dadfedd1cc4a38359ec34b8444eb70cd9eaeb4ce21802492f87f4cf964d12802ec7fea1e1c8a69444e3b1a7)#hleuvffe",
            "hex": "4104f798d43154223162106ce3700f172efc74f776339dadfedd1cc4a38359ec34b8444eb70cd9eaeb4ce21802492f87f4cf964d12802ec7fea1e1c8a69444e3b1a7ac",
            "type": "pubkey"
          }
        }
      ],
      "hex": "01000000010000000000000000000000000000000000000000000000000000000000000000ffffffff0804ffff001d022806ffffffff0100f2052a01000000434104f798d43154223162106ce3700f172efc74f776339dadfedd1cc4a38359ec34b8444eb70cd9eaeb4ce21802492f87f4cf964d12802ec7fea1e1c8a69444e3b1a7ac00000000"
    }
  ]
}