{
  "hash": "000000003920e7a311fad903c863f8f6a5cd12907711bf23392bec7ecb6f252c",
  "confirmations": 49565,
  "height": 3533,
  "version": 1,
  "versionHex": "00000001",
  "merkleroot": "07b010da131962d91837e24bf4d995286445b1d931f9008b97fa895955c444bc",
  "time": 1234124868,
  "mediantime": 1234122197,
  "nonce": 37768175,
  "bits": "1d00ffff",
  "difficulty": 1,
  "chainwork": "00000000000000000000000000000000000000000000000000000dce0dce0dce",
  "nTx": 1,
  "previousblockhash": "0000000033a6dd2c047d48ae513f9f47951cd2e061f0dcea9591e45a7aeb0cfb",
  "nextblockhash": "000000007077d3246c426993aa89e45aa5904da8dedfc6086b70f3d5ae039005",
  "strippedsize": 215,
  "size": 215,
  "weight": 860,
  "tx": [
    {
      "txid": "07b010da131962d91837e24bf4d995286445b1d931f9008b97fa895955c444bc",
      "hash": "07b010da131962d91837e24bf4d995286445b1d931f9008b97fa895955c444bc",
      "version": 1,
      "size": 134,
      "vsize": 134,
      "weight": 536,
      "locktime": 0,
      "vin": [
        {
          "coinbase": "04ffff001d0138",
          "sequence": 4294967295
        }
      ],
      "vout": [
        {
          "value": 50.0,
          "n": 0,
          "scriptPubKey": {
            "asm": "04e7bd12fdd893bb317074d42d7494b6ab2fb1db6f5ae169ed216a2a823abdce41465db79aed9f9f589e11eb313a4c52cc1065e58407c18767ea0423d16acbd4e8 OP_CHECKSIG",
            "desc": "pk(04e7bd12fdd893bb317074d42d7494b6ab2fb1db6f5ae169ed216a2a823abdce41465db79aed9f9f589e11eb313a4c52cc1065e58407c18767ea0423d16acbd4e8)#lkx3lamq",
            "hex": "4104e7bd12fdd893bb317074d42d7494b6ab2fb1db6f5ae169ed216a2a823abdce41465db79aed9f9f589e11eb313a4c52cc1065e58407c18767ea0423d16acbd4e8ac",
            "type": "pubkey"
          }
        }
      ],
      "hex": "01000000010000000000000000000000000000000000000000000000000000000000000000ffffffff0704ffff001d0138ffffffff0100f2052a01000000434104e7bd12fdd893bb317074d42d7494b6ab2fb1db6f5ae169ed216a2a823abdce41465db79aed9f9f589e11eb313a4c52cc1065e58407c18767ea0423d16acbd4e8ac00000000"
    }
  ]
}