{
  "hash": "0000000026e82d8fea49011794df552bc4b65f6680cd4a40d6bded2d6d536dfc",
  "confirmations": 47019,
  "height": 6079,
  "version": 1,
  "versionHex": "00000001",
  "merkleroot": "cbecaf8106bf4c2fb2ba104312c61dc718cd5766e99b1c1a0c7cc64c444a5cba",
  "time": 1235992389,
  "mediantime": 1235987212,
  "nonce": 519002137,
  "bits": "1d00ffff",
  "difficulty": 1,
  "chainwork": "000000000000000000000000000000000000000000000000000017c017c017c0",
  "nTx": 1,
  "previousblockhash": "000000005f82b57081a6a238b1a2e69bd87fe93b88048182f99432787bfe069d",
  "nextblockhash": "00000000ecfbfde100399cde481b82f28d041e50655e7524efaebbae8b69ba5d",
  "strippedsize": 216,
  "size": 216,
  "weight": 864,
  "tx": [
    {
      "txid": "cbecaf8106bf4c2fb2ba104312c61dc718cd5766e99b1c1a0c7cc64c444a5cba",
      "hash": "cbecaf8106bf4c2fb2ba104312c61dc718cd5766e99b1c1a0c7cc64c444a5cba",
      "version": 1,
      "size": 135,
      "vsize": 135,
      "weight": 540,
      "locktime": 0,
      "vin": [
        {
          "coinbase": "04ffff001d026106",
          "sequence": 4294967295
        }
      ],
      "vout": [
        {
          "value": 50.0,
          "n": 0,
          "scriptPubKey": {
            "asm": "0444fb2c6d4544264ca5af6352eda1baedd4718c46915c85677772b73efdfe016d0ef77d80effd20e1b36e41725732de2e9b549cf625f6c0d1ce992795ea684651 OP_CHECKSIG",
            "desc": "pk(0444fb2c6d4544264ca5af6352eda1baedd4718c46915c85677772b73efdfe016d0ef77d80effd20e1b36e41725732de2e9b549cf625f6c0d1ce992795ea684651)#98t72pns",
            "hex": "410444fb2c6d4544264ca5af6352eda1baedd4718c46915c85677772b73efdfe016d0ef77d80effd20e1b36e41725732de2e9b549cf625f6c0d1ce992795ea684651ac",
            "type": "pubkey"
          }
        }
      ],
      "hex": "01000000010000000000000000000000000000000000000000000000000000000000000000ffffffff0804ffff001d026106ffffffff0100f2052a0100000043410444fb2c6d4544264ca5af6352eda1baedd4718c46915c85677772b73efdfe016d0ef77d80effd20e1b36e41725732de2e9b549cf625f6c0d1ce992795ea684651ac00000000"
    }
  ]
}