{
  "hash": "00000000b1b83eefd9c54cce943557976252d43d68ab28a0ce7021f15a55ec0e",
  "confirmations": 47395,
  "height": 5703,
  "version": 1,
  "versionHex": "00000001",
  "merkleroot": "de3a1faaac951218b70d088a800ce40f7cda2d31b183897084d3a692c8ffb72b",
  "time": 1235687259,
  "mediantime": 1235684557,
  "nonce": 2835760697,
  "bits": "1d00ffff",
  "difficulty": 1,
  "chainwork": "0000000000000000000000000000000000000000000000000000164816481648",
  "nTx": 1,
  "previousblockhash": "00000000a46ae93a5a781423b03f598dc17f2f48024097a9582700d07f49bcd7",
  "nextblockhash": "000000005bf129772a6ad06016b514fa89ee7a4ba333a657055bf709d3017c5c",
  "strippedsize": 216,
  "size": 216,
  "weight": 864,
  "tx": [
    {
      "txid": "de3a1faaac951218b70d088a800ce40f7cda2d31b183897084d3a692c8ffb72b",
      "hash": "de3a1faaac951218b70d088a800ce40f7cda2d31b183897084d3a692c8ffb72b",
      "version": 1,
      "size": 135,
      "vsize": 135,
      "weight": 540,
      "locktime": 0,
      "vin": [
        {
          "coinbase": "04ffff001d027509",
          "sequence": 4294967295
        }
      ],
      "vout": [
        {
          "value": 50.0,
          "n": 0,
          "scriptPubKey": {
            "asm": "04304406b284473b1ec820d37a4708d5a4e37f15a80884d1d3bc2fa521bc6b2358f9df90c12a78a3fb21b2f0ddb11668b0d922fb88f57a925da80673b07f32e5fa OP_CHECKSIG",
            "desc": "pk(04304406b284473b1ec820d37a4708d5a4e37f15a80884d1d3bc2fa521bc6b2358f9df90c12a78a3fb21b2f0ddb11668b0d922fb88f57a925da80673b07f32e5fa)#9vyp303a",
            "hex": "4104304406b284473b1ec820d37a4708d5a4e37f15a80884d1d3bc2fa521bc6b2358f9df90c12a78a3fb21b2f0ddb11668b0d922fb88f57a925da80673b07f32e5faac",
            "type": "pubkey"
          }
        }
      ],
      "hex": "01000000010000000000000000000000000000000000000000000000000000000000000000ffffffff0804ffff001d027509ffffffff0100f2052a01000000434104304406b284473b1ec820d37a4708d5a4e37f15a80884d1d3bc2fa521bc6b2358f9df90c12a78a3fb21b2f0ddb11668b0d922fb88f57a925da80673b07f32e5faac00000000"
    }
  ]
}