{
  "hash": "00000000ca59764b4ff11d88ea67e641dba94a17520ebd10f1631b21a18d5805",
  "confirmations": 51987,
  "height": 1111,
  "version": 1,
  "versionHex": "00000001",
  "merkleroot": "738854126f4b81fb02557d30d4639d2f015ddcad923a916e82273ca302a30522",
  "time": 1232431122,
  "mediantime": 1232427360,
  "nonce": 3621141257,
  "bits": "1d00ffff",
  "difficulty": 1,
  "chainwork": "0000000000000000000000000000000000000000000000000000045804580458",
  "nTx": 1,
  "previousblockhash": "0000000025ebddf45176d4cd83fe40389178af94c9f4a05e6e6799ccf7ac88ec",
  "nextblockhash": "00000000dd74d572772cafdb8c9f7a7ce14209605db76747843d811c91e61475",
  "strippedsize": 216,
  "size": 216,
  "weight": 864,
  "tx": [
    {
      "txid": "738854126f4b81fb02557d30d4639d2f015ddcad923a916e82273ca302a30522",
      "hash": "738854126f4b81fb02557d30d4639d2f015ddcad923a916e82273ca302a30522",
      "version": 1,
      "size": 135,
      "vsize": 135,
      "weight": 540,
      "locktime": 0,
      "vin": [
        {
          "coinbase": "04ffff001d023a07",
          "sequence": 4294967295
        }
      ],
      "vout": [
        {
          "value": 50.0,
          "n": 0,
          "scriptPubKey": {
            "asm": "047e421ece71b2598663c78b23bbf8e402aa55e70caa72710049814b04cdc5d7bb47158a1bc89d895c3ab39ecef6dfc838f11cec328124ed61caa5eebfa39875bc OP_CHECKSIG",
            "desc": "pk(047e421ece71b2598663c78b23bbf8e402aa55e70caa72710049814b04cdc5d7bb47158a1bc89d895c3ab39ecef6dfc838f11cec328124ed61caa5eebfa39875bc)#zhrktpmz",
            "hex": "41047e421ece71b2598663c78b23bbf8e402aa55e70caa72710049814b04cdc5d7bb47158a1bc89d895c3ab39ecef6dfc838f11cec328124ed61caa5eebfa39875bcac",
            "type": "pubkey"
          }
        }
      ],
      "hex": "01000000010000000000000000000000000000000000000000000000000000000000000000ffffffff0804ffff001d023a07ffffffff0100f2052a010000004341047e421ece71b2598663c78b23bbf8e402aa55e70caa72710049814b04cdc5d7bb47158a1bc89d895c3ab39ecef6dfc838f11cec328124ed61caa5eebfa39875bcac00000000"
    }
  ]
}