{
  "hash": "0000000040298fb6cf9a5694b0553d93f82d3d5aadca420bf50182b8a9c1673e",
  "confirmations": 47769,
  "height": 5329,
  "version": 1,
  "versionHex": "00000001",
  "merkleroot": "01c7808c2686382a0455a79488d33d14c305240ffe05f08233ca19aadbd89068",
  "time": 1235385830,
  "mediantime": 1235381428,
  "nonce": 453149961,
  "bits": "1d00ffff",
  "difficulty": 1,
  "chainwork": "000000000000000000000000000000000000000000000000000014d214d214d2",
  "nTx": 1,
  "previousblockhash": "00000000843cc27b41ec1e55d9f8127282b0f7fb297c199e2433dcb5a7d37261",
  "nextblockhash": "00000000b48f9e71a1313a6c3ccc4234345b5b134baf48f32c629dcfef546686",
  "strippedsize": 216,
  "size": 216,
  "weight": 864,
  "tx": [
    {
      "txid": "01c7808c2686382a0455a79488d33d14c305240ffe05f08233ca19aadbd89068",
      "hash": "01c7808c2686382a0455a79488d33d14c305240ffe05f08233ca19aadbd89068",
      "version": 1,
      "size": 135,
      "vsize": 135,
      "weight": 540,
      "locktime": 0,
      "vin": [
        {
          "coinbase": "04ffff001d027a02",
          "sequence": 4294967295
        }
      ],
      "vout": [
        {
          "value": 50.0,
          "n": 0,
          "scriptPubKey": {
            "asm": "04d7df5526972d968c59d2dba25ef20b2d19403f6d86e153340ce5e42d0a002e85fd4f8da170cdc78a28ad5d0ec3eb2d3d4c06da7144302121260b903a35dad5f4 OP_CHECKSIG",
            "desc": "pk(04d7df5526972d968c59d2dba25ef20b2d19403f6d86e153340ce5e42d0a002e85fd4f8da170cdc78a28ad5d0ec3eb2d3d4c06da7144302121260b903a35dad5f4)#h3fg0l06",
            "hex": "4104d7df5526972d968c59d2dba25ef20b2d19403f6d86e153340ce5e42d0a002e85fd4f8da170cdc78a28ad5d0ec3eb2d3d4c06da7144302121260b903a35dad5f4ac",
            "type": "pubkey"
          }
        }
      ],
      "hex": "01000000010000000000000000000000000000000000000000000000000000000000000000ffffffff0804ffff001d027a02ffffffff0100f2052a01000000434104d7df5526972d968c59d2dba25ef20b2d19403f6d86e153340ce5e42d0a002e85fd4f8da170cdc78a28ad5d0ec3eb2d3d4c06da7144302121260b903a35dad5f4ac00000000"
    }
  ]
}