{
  "hash": "000000007f012928cfafbad8787f42c7f303f2ec7285ad0407930e061abdd264",
  "confirmations": 51889,
  "height": 1209,
  "version": 1,
  "versionHex": "00000001",
  "merkleroot": "5a6ded51e1f4425ceb03d929d8a7d2e9d7750a80fbc4c02102704a737a271d75",
  "time": 1232506968,
  "mediantime": 1232504229,
  "nonce": 2955263772,
  "bits": "1d00ffff",
  "difficulty": 1,
  "chainwork": "000000000000000000000000000000000000000000000000000004ba04ba04ba",
  "nTx": 1,
  "previousblockhash": "00000000a949a93111b3b55ae95dd6522a6ff925e9caa0bfb88575333d71dbc6",
  "nextblockhash": "00000000b35633852811643943145d4412b8058fab7e7fc258726575e8b3f15e",
  "strippedsize": 216,
  "size": 216,
  "weight": 864,
  "tx": [
    {
      "txid": "5a6ded51e1f4425ceb03d929d8a7d2e9d7750a80fbc4c02102704a737a271d75",
      "hash": "5a6ded51e1f4425ceb03d929d8a7d2e9d7750a80fbc4c02102704a737a271d75",
      "version": 1,
      "size": 135,
      "vsize": 135,
      "weight": 540,
      "locktime": 0,
      "vin": [
        {
          "coinbase": "04ffff001d02c308",
          "sequence": 4294967295
        }
      ],
      "vout": [
        {
          "value": 50.0,
          "n": 0,
          "scriptPubKey": {
            "asm": "04640da2c1d7dda8aecd5cf6a6867e7e280755198673a02dad45ab3fba2189ed2ac497bb340feb5573a53fc2f452cc6f169f7a5d798313a5c98174457ff1a1c91c OP_CHECKSIG",
            "desc": "pk(04640da2c1d7dda8aecd5cf6a6867e7e280755198673a02dad45ab3fba2189ed2ac497bb340feb5573a53fc2f452cc6f169f7a5d798313a5c98174457ff1a1c91c)#p5yv04qt",
            "hex": "4104640da2c1d7dda8aecd5cf6a6867e7e280755198673a02dad45ab3fba2189ed2ac497bb340feb5573a53fc2f452cc6f169f7a5d798313a5c98174457ff1a1c91cac",
            "type": "pubkey"
          }
        }
      ],
      "hex": "01000000010000000000000000000000000000000000000000000000000000000000000000ffffffff0804ffff001d02c308ffffffff0100f2052a01000000434104640da2c1d7dda8aecd5cf6a6867e7e280755198673a02dad45ab3fba2189ed2ac497bb340feb5573a53fc2f452cc6f169f7a5d798313a5c98174457ff1a1c91cac00000000"
    }
  ]
}