{
  "hash": "000000002c7d06e470034ede0b49597c3743b1c717ec1605f4a86cbb07647e08",
  "confirmations": 50122,
  "height": 2976,
  "version": 1,
  "versionHex": "00000001",
  "merkleroot": "1e94c2767758987bd734c2d03a9c37b5ac55d2620442b93cc79f621383da7e49",
  "time": 1233746777,
  "mediantime": 1233742063,
  "nonce": 2510728502,
  "bits": "1d00ffff",
  "difficulty": 1,
  "chainwork": "00000000000000000000000000000000000000000000000000000ba10ba10ba1",
  "nTx": 1,
  "previousblockhash": "00000000ea632440f0d82612c132320fe0ac68c320468054c6cf836c4db50c85",
  "nextblockhash": "000000007d0e1add254a6d6802da19f7059e218b3ae57bf29caa843694efd121",
  "strippedsize": 216,
  "size": 216,
  "weight": 864,
  "tx": [
    {
      "txid": "1e94c2767758987bd734c2d03a9c37b5ac55d2620442b93cc79f621383da7e49",
      "hash": "1e94c2767758987bd734c2d03a9c37b5ac55d2620442b93cc79f621383da7e49",
      "version": 1,
      "size": 135,
      "vsize": 135,
      "weight": 540,
      "locktime": 0,
      "vin": [
        {
          "coinbase": "04ffff001d020a01",
          "sequence": 4294967295
        }
      ],
      "vout": [
        {
          "value": 50.0,
          "n": 0,
          "scriptPubKey": {
            "asm": "044c8087f49d1a85e9fa74bee85ed8435a59f971616224fc160998041cce78c45d532cf3ff5210c1bf6bf7b5525364e2f7bae08611cad2ee077aed608f45216267 OP_CHECKSIG",
            "desc": "pk(044c8087f49d1a85e9fa74bee85ed8435a59f971616224fc160998041cce78c45d532cf3ff5210c1bf6bf7b5525364e2f7bae08611cad2ee077aed608f45216267)#ufljqht8",
            "hex": "41044c8087f49d1a85e9fa74bee85ed8435a59f971616224fc160998041cce78c45d532cf3ff5210c1bf6bf7b5525364e2f7bae08611cad2ee077aed608f45216267ac",
            "type": "pubkey"
          }
        }
      ],
      "hex": "01000000010000000000000000000000000000000000000000000000000000000000000000ffffffff0804ffff001d020a01ffffffff0100f2052a010000004341044c8087f49d1a85e9fa74bee85ed8435a59f971616224fc160998041cce78c45d532cf3ff5210c1bf6bf7b5525364e2f7bae08611cad2ee077aed608f45216267ac00000000"
    }
  ]
}