{
  "hash": "00000000fd9df872a0a506799764e1814c70cff9bd058f9cc1c67e856be05170",
  "confirmations": 49009,
  "height": 4089,
  "version": 1,
  "versionHex": "00000001",
  "merkleroot": "5c21ed9de0959da84621e020d774c2bf9cdc9eefcdb97e190393fe2252c37b74",
  "time": 1234504872,
  "mediantime": 1234500010,
  "nonce": 1921957161,
  "bits": "1d00ffff",
  "difficulty": 1,
  "chainwork": "00000000000000000000000000000000000000000000000000000ffa0ffa0ffa",
  "nTx": 1,
  "previousblockhash": "00000000531e4155ba3c359f0e4f20265e20139284e18a75bc3baf77f8bfe414",
  "nextblockhash": "00000000b8234b6c5dc8fbec7cac15533fff02b2855c12ddc1136262049eaca6",
  "strippedsize": 216,
  "size": 216,
  "weight": 864,
  "tx": [
    {
      "txid": "5c21ed9de0959da84621e020d774c2bf9cdc9eefcdb97e190393fe2252c37b74",
      "hash": "5c21ed9de0959da84621e020d774c2bf9cdc9eefcdb97e190393fe2252c37b74",
      "version": 1,
      "size": 135,
      "vsize": 135,
      "weight": 540,
      "locktime": 0,
      "vin": [
        {
          "coinbase": "04ffff001d02d005",
          "sequence": 4294967295
        }
      ],
      "vout": [
        {
          "value": 50.0,
          "n": 0,
          "scriptPubKey": {
            "asm": "044c92a7f64cda1e1e501c4a7cb24e58e88910b543f338de661c4eb55a7b623a44d535fefda72e31c7dfad7e35c0ff9e19f2a5533fa719281819c1eee51a3eb7e2 OP_CHECKSIG",
            "desc": "pk(044c92a7f64cda1e1e501c4a7cb24e58e88910b543f338de661c4eb55a7b623a44d535fefda72e31c7dfad7e35c0ff9e19f2a5533fa719281819c1eee51a3eb7e2)#a7vq2me2",
            "hex": "41044c92a7f64cda1e1e501c4a7cb24e58e88910b543f338de661c4eb55a7b623a44d535fefda72e31c7dfad7e35c0ff9e19f2a5533fa719281819c1eee51a3eb7e2ac",
            "type": "pubkey"
          }
        }
      ],
      "hex": "01000000010000000000000000000000000000000000000000000000000000000000000000ffffffff0804ffff001d02d005ffffffff0100f2052a010000004341044c92a7f64cda1e1e501c4a7cb24e58e88910b543f338de661c4eb55a7b623a44d535fefda72e31c7dfad7e35c0ff9e19f2a5533fa719281819c1eee51a3eb7e2ac00000000"
    }
  ]
}