{
  "hash": "000000009dfac9a157e2b19374478d54251f28c8c488f091b86dc1d38d813425",
  "confirmations": 52045,
  "height": 1053,
  "version": 1,
  "versionHex": "00000001",
  "merkleroot": "20a5b8090bb3679d2aa52325169de528d6f1c9dd8de4060e7bf0bd3ae2b3483c",
  "time": 1232389749,
  "mediantime": 1232385556,
  "nonce": 2561825830,
  "bits": "1d00ffff",
  "difficulty": 1,
  "chainwork": "0000000000000000000000000000000000000000000000000000041e041e041e",
  "nTx": 1,
  "previousblockhash": "00000000dc5cc02c005e9ca3d4d605099ddde5a28c7a091a8384f67e3362b88f",
  "nextblockhash": "00000000577ecce387c006c3bb102002263507f7f3e5a33548c4f07637ddc8fc",
  "strippedsize": 216,
  "size": 216,
  "weight": 864,
  "tx": [
    {
      "txid": "20a5b8090bb3679d2aa52325169de528d6f1c9dd8de4060e7bf0bd3ae2b3483c",
      "hash": "20a5b8090bb3679d2aa52325169de528d6f1c9dd8de4060e7bf0bd3ae2b3483c",
      "version": 1,
      "size": 135,
      "vsize": 135,
      "weight": 540,
      "locktime": 0,
      "vin": [
        {
          "coinbase": "04ffff001d020d06",
          "sequence": 4294967295
        }
      ],
      "vout": [
        {
          "value": 50.0,
          "n": 0,
          "scriptPubKey": {
            "asm": "0447ac92a3747a9a9667a651d6f225b0df6e382fefb9e1e6c7255561c5cd8d465716e90e189e9df0633a1458be8efcd92505d9d13543d1bbc4acb8c9313f9945e7 OP_CHECKSIG",
            "desc": "pk(0447ac92a3747a9a9667a651d6f225b0df6e382fefb9e1e6c7255561c5cd8d465716e90e189e9df0633a1458be8efcd92505d9d13543d1bbc4acb8c9313f9945e7)#s2k8dj03",
            "hex": "410447ac92a3747a9a9667a651d6f225b0df6e382fefb9e1e6c7255561c5cd8d465716e90e189e9df0633a1458be8efcd92505d9d13543d1bbc4acb8c9313f9945e7ac",
            "type": "pubkey"
          }
        }
      ],
      "hex": "01000000010000000000000000000000000000000000000000000000000000000000000000ffffffff0804ffff001d020d06ffffffff0100f2052a0100000043410447ac92a3747a9a9667a651d6f225b0df6e382fefb9e1e6c7255561c5cd8d465716e90e189e9df0633a1458be8efcd92505d9d13543d1bbc4acb8c9313f9945e7ac00000000"
    }
  ]
}