{
  "hash": "0000000057e88a6a6bef8144585cf4911c15c84c797d160c553ea192c1137ca5",
  "confirmations": 47969,
  "height": 5129,
  "version": 1,
  "versionHex": "00000001",
  "merkleroot": "ae5b9999e30a18ccd79d1acdd83d945fbc8f7f7d09a34cce5fe7e4a799bbff7c",
  "time": 1235237464,
  "mediantime": 1235233563,
  "nonce": 2307284741,
  "bits": "1d00ffff",
  "difficulty": 1,
  "chainwork": "0000000000000000000000000000000000000000000000000000140a140a140a",
  "nTx": 1,
  "previousblockhash": "000000003c28c595416057b8612da9b7df160bbc196dc508f91ef1c35a4dcd56",
  "nextblockhash": "00000000d0e646265da32fa7eac3a7a4cc9bf2953a5c8333d59c9ffd83bcb894",
  "strippedsize": 216,
  "size": 216,
  "weight": 864,
  "tx": [
    {
      "txid": "ae5b9999e30a18ccd79d1acdd83d945fbc8f7f7d09a34cce5fe7e4a799bbff7c",
      "hash": "ae5b9999e30a18ccd79d1acdd83d945fbc8f7f7d09a34cce5fe7e4a799bbff7c",
      "version": 1,
      "size": 135,
      "vsize": 135,
      "weight": 540,
      "locktime": 0,
      "vin": [
        {
          "coinbase": "04ffff001d027909",
          "sequence": 4294967295
        }
      ],
      "vout": [
        {
          "value": 50.0,
          "n": 0,
          "scriptPubKey": {
            "asm": "043d4863c284b508e1817fea3fff94dc88555060c3f14224e96c16453ae92824e7d7f8c90ac57f7a00e23dcaae08203e7bc86157bf94562944ff93ca6b91ddc122 OP_CHECKSIG",
            "desc": "pk(043d4863c284b508e1817fea3fff94dc88555060c3f14224e96c16453ae92824e7d7f8c90ac57f7a00e23dcaae08203e7bc86157bf94562944ff93ca6b91ddc122)#urm69xa2",
            "hex": "41043d4863c284b508e1817fea3fff94dc88555060c3f14224e96c16453ae92824e7d7f8c90ac57f7a00e23dcaae08203e7bc86157bf94562944ff93ca6b91ddc122ac",
            "type": "pubkey"
          }
        }
      ],
      "hex": "01000000010000000000000000000000000000000000000000000000000000000000000000ffffffff0804ffff001d027909ffffffff0100f2052a010000004341043d4863c284b508e1817fea3fff94dc88555060c3f14224e96c16453ae92824e7d7f8c90ac57f7a00e23dcaae08203e7bc86157bf94562944ff93ca6b91ddc122ac00000000"
    }
  ]
}