{
  "hash": "00000000209cf1fdb3128f8d37fb6af10c93aee04b80de3aed6688f5d80ded87",
  "confirmations": 46669,
  "height": 6429,
  "version": 1,
  "versionHex": "00000001",
  "merkleroot": "bb3aaa6fc7da6eb807f2b7e4020096507fbba8c0e8d1d24edf8cee4cbf9096c5",
  "time": 1236277020,
  "mediantime": 1236274000,
  "nonce": 718127927,
  "bits": "1d00ffff",
  "difficulty": 1,
  "chainwork": "0000000000000000000000000000000000000000000000000000191e191e191e",
  "nTx": 1,
  "previousblockhash": "00000000d1899d2fa50af50c57eccdec55b7f7414b55d3145eb31035cb16ae6e",
  "nextblockhash": "000000005a7b929d8c155d3d813cb95d61b50f1a5ad050a2df0d4ef5d3609cfc",
  "strippedsize": 216,
  "size": 216,
  "weight": 864,
  "tx": [
    {
      "txid": "bb3aaa6fc7da6eb807f2b7e4020096507fbba8c0e8d1d24edf8cee4cbf9096c5",
      "hash": "bb3aaa6fc7da6eb807f2b7e4020096507fbba8c0e8d1d24edf8cee4cbf9096c5",
      "version": 1,
      "size": 135,
      "vsize": 135,
      "weight": 540,
      "locktime": 0,
      "vin": [
        {
          "coinbase": "04ffff001d025c02",
          "sequence": 4294967295
        }
      ],
      "vout": [
        {
          "value": 50.0,
          "n": 0,
          "scriptPubKey": {
            "asm": "046dbc689e401e5a6c1e31d75fd7308124dd5b475e9061e7b73535d978cbb329af86debfefea5fea6b6e3412485b0c5dee2755f51277f3bce89528a03ed818b9e8 OP_CHECKSIG",
            "desc": "pk(046dbc689e401e5a6c1e31d75fd7308124dd5b475e9061e7b73535d978cbb329af86debfefea5fea6b6e3412485b0c5dee2755f51277f3bce89528a03ed818b9e8)#6svl7zfx",
            "hex": "41046dbc689e401e5a6c1e31d75fd7308124dd5b475e9061e7b73535d978cbb329af86debfefea5fea6b6e3412485b0c5dee2755f51277f3bce89528a03ed818b9e8ac",
            "type": "pubkey"
          }
        }
      ],
      "hex": "01000000010000000000000000000000000000000000000000000000000000000000000000ffffffff0804ffff001d025c02ffffffff0100f2052a010000004341046dbc689e401e5a6c1e31d75fd7308124dd5b475e9061e7b73535d978cbb329af86debfefea5fea6b6e3412485b0c5dee2755f51277f3bce89528a03ed818b9e8ac00000000"
    }
  ]
}