{
  "hash": "000000009713cdd4b0b1e88ba44fdcb0e9baae9ba534cd4d1689121a0d3934e8",
  "confirmations": 47950,
  "height": 5148,
  "version": 1,
  "versionHex": "00000001",
  "merkleroot": "e2d0085ac45a052794c64b2c3ca4d9250e14c580a7216adad69af935d02f2dda",
  "time": 1235251745,
  "mediantime": 1235247250,
  "nonce": 100146729,
  "bits": "1d00ffff",
  "difficulty": 1,
  "chainwork": "0000000000000000000000000000000000000000000000000000141d141d141d",
  "nTx": 1,
  "previousblockhash": "00000000e8bcaa99f456be9f35e6a9ea7d4b4712367871a9158d417e0083c311",
  "nextblockhash": "000000006d0dab5b68864a4efd945d04860b9d7a227ad02ebde903eaacc8d8dc",
  "strippedsize": 216,
  "size": 216,
  "weight": 864,
  "tx": [
    {
      "txid": "e2d0085ac45a052794c64b2c3ca4d9250e14c580a7216adad69af935d02f2dda",
      "hash": "e2d0085ac45a052794c64b2c3ca4d9250e14c580a7216adad69af935d02f2dda",
      "version": 1,
      "size": 135,
      "vsize": 135,
      "weight": 540,
      "locktime": 0,
      "vin": [
        {
          "coinbase": "04ffff001d02d509",
          "sequence": 4294967295
        }
      ],
      "vout": [
        {
          "value": 50.0,
          "n": 0,
          "scriptPubKey": {
            "asm": "043734a6343e4fff9251caff716a95033ac36d9ac445397f6d446e1bd06afaa1d30bb6374e19f6228b0c1d3179214ca179d2b35a1937d2abd8e116069b67f20b6b OP_CHECKSIG",
            "desc": "pk(043734a6343e4fff9251caff716a95033ac36d9ac445397f6d446e1bd06afaa1d30bb6374e19f6228b0c1d3179214ca179d2b35a1937d2abd8e116069b67f20b6b)#3z7wxvmy",
            "hex": "41043734a6343e4fff9251caff716a95033ac36d9ac445397f6d446e1bd06afaa1d30bb6374e19f6228b0c1d3179214ca179d2b35a1937d2abd8e116069b67f20b6bac",
            "type": "pubkey"
          }
        }
      ],
      "hex": "01000000010000000000000000000000000000000000000000000000000000000000000000ffffffff0804ffff001d02d509ffffffff0100f2052a010000004341043734a6343e4fff9251caff716a95033ac36d9ac445397f6d446e1bd06afaa1d30bb6374e19f6228b0c1d3179214ca179d2b35a1937d2abd8e116069b67f20b6bac00000000"
    }
  ]
}