{
  "hash": "0000000016c7dad613635ae08f697c10935476b49dc67fdb6ef08b1143d01a3e",
  "confirmations": 52087,
  "height": 233,
  "version": 1,
  "versionHex": "00000001",
  "merkleroot": "b06bf2c935e4b9853feffd9be25ac744206667e9c99b233f58098deeef7975bd",
  "time": 1231779468,
  "mediantime": 1231775125,
  "nonce": 730983722,
  "bits": "1d00ffff",
  "difficulty": 1,
  "chainwork": "000000000000000000000000000000000000000000000000000000ea00ea00ea",
  "nTx": 1,
  "previousblockhash": "0000000098e453043107b29a58db813021640b3def7c1e659742ddf56420d6ca",
  "nextblockhash": "00000000c2edc9f0ed8e33627247bbf78b89ee62b23ae48e6201debc28ff208e",
  "strippedsize": 216,
  "size": 216,
  "weight": 864,
  "tx": [
    {
      "txid": "b06bf2c935e4b9853feffd9be25ac744206667e9c99b233f58098deeef7975bd",
      "hash": "b06bf2c935e4b9853feffd9be25ac744206667e9c99b233f58098deeef7975bd",
      "version": 1,
      "size": 135,
      "vsize": 135,
      "weight": 540,
      "locktime": 0,
      "vin": [
        {
          "coinbase": "04ffff001d02d800",
          "sequence": 4294967295
        }
      ],
      "vout": [
        {
          "value": 50.0,
          "n": 0,
          "scriptPubKey": {
            "asm": "04db0403709aeffa2c18c4be29fc4f68ad7451789945d7a2a3ebc8975bce605511c27f9a2b496b5921a18821fdd35d5b3a5558e4c2f7a1fd7919b03a9c27871820 OP_CHECKSIG",
            "desc": "pk(04db0403709aeffa2c18c4be29fc4f68ad7451789945d7a2a3ebc8975bce605511c27f9a2b496b5921a18821fdd35d5b3a5558e4c2f7a1fd7919b03a9c27871820)#pr4vw5lq",
            "hex": "4104db0403709aeffa2c18c4be29fc4f68ad7451789945d7a2a3ebc8975bce605511c27f9a2b496b5921a18821fdd35d5b3a5558e4c2f7a1fd7919b03a9c27871820ac",
            "type": "pubkey"
          }
        }
      ],
      "hex": "01000000010000000000000000000000000000000000000000000000000000000000000000ffffffff0804ffff001d02d800ffffffff0100f2052a01000000434104db0403709aeffa2c18c4be29fc4f68ad7451789945d7a2a3ebc8975bce605511c27f9a2b496b5921a18821fdd35d5b3a5558e4c2f7a1fd7919b03a9c27871820ac00000000"
    }
  ]
}