{
  "hash": "00000000db65512bc5d055de8bb5c82bdd7a565d10337727dcea86965b64af40",
  "confirmations": 47045,
  "height": 6053,
  "version": 1,
  "versionHex": "00000001",
  "merkleroot": "0871e1f3d47224ebb943f455ea7f60196db09e79e1422b5dafa5aecdd903db55",
  "time": 1235970292,
  "mediantime": 1235966513,
  "nonce": 159792413,
  "bits": "1d00ffff",
  "difficulty": 1,
  "chainwork": "000000000000000000000000000000000000000000000000000017a617a617a6",
  "nTx": 1,
  "previousblockhash": "000000001657a9969be32abde32d4cd126dd655c3a26f6746adfbd9aa1c69474",
  "nextblockhash": "00000000733b28ed2c3f67e5ca26ae992c6431fa1bccf55f3a1832a897eebfce",
  "strippedsize": 216,
  "size": 216,
  "weight": 864,
  "tx": [
    {
      "txid": "0871e1f3d47224ebb943f455ea7f60196db09e79e1422b5dafa5aecdd903db55",
      "hash": "0871e1f3d47224ebb943f455ea7f60196db09e79e1422b5dafa5aecdd903db55",
      "version": 1,
      "size": 135,
      "vsize": 135,
      "weight": 540,
      "locktime": 0,
      "vin": [
        {
          "coinbase": "04ffff001d02df05",
          "sequence": 4294967295
        }
      ],
      "vout": [
        {
          "value": 50.0,
          "n": 0,
          "scriptPubKey": {
            "asm": "04aaba873df4ded968049fcceca063b591ed6b73c824d42f9543ab63135e88e3605fddf6673d211ed9edd5a5243b9106c001c89b195e1ef61cacf53825e6b15b95 OP_CHECKSIG",
            "desc": "pk(04aaba873df4ded968049fcceca063b591ed6b73c824d42f9543ab63135e88e3605fddf6673d211ed9edd5a5243b9106c001c89b195e1ef61cacf53825e6b15b95)#j0r505rm",
            "hex": "4104aaba873df4ded968049fcceca063b591ed6b73c824d42f9543ab63135e88e3605fddf6673d211ed9edd5a5243b9106c001c89b195e1ef61cacf53825e6b15b95ac",
            "type": "pubkey"
          }
        }
      ],
      "hex": "01000000010000000000000000000000000000000000000000000000000000000000000000ffffffff0804ffff001d02df05ffffffff0100f2052a01000000434104aaba873df4ded968049fcceca063b591ed6b73c824d42f9543ab63135e88e3605fddf6673d211ed9edd5a5243b9106c001c89b195e1ef61cacf53825e6b15b95ac00000000"
    }
  ]
}