{
  "hash": "000000009792577a31d565fba6c9b4ef45ac219c3fb2d8fd76d1189a79885ce5",
  "confirmations": 45426,
  "height": 7672,
  "version": 1,
  "versionHex": "00000001",
  "merkleroot": "06d7448dd0c8d676d0e609fd9e0d83833ebf08cb42a65d4d0f0e7886510f9db9",
  "time": 1237218777,
  "mediantime": 1237215020,
  "nonce": 3836382256,
  "bits": "1d00ffff",
  "difficulty": 1,
  "chainwork": "00000000000000000000000000000000000000000000000000001df91df91df9",
  "nTx": 1,
  "previousblockhash": "0000000015efcde5bd5c82d81cd6a4f8f7b8a8cbe16c9190735ca3e054b3ccf3",
  "nextblockhash": "00000000433a11e2590d8d0fe62fd8a32aafed850584b3fe1f837109ea23df7a",
  "strippedsize": 216,
  "size": 216,
  "weight": 864,
  "tx": [
    {
      "txid": "06d7448dd0c8d676d0e609fd9e0d83833ebf08cb42a65d4d0f0e7886510f9db9",
      "hash": "06d7448dd0c8d676d0e609fd9e0d83833ebf08cb42a65d4d0f0e7886510f9db9",
      "version": 1,
      "size": 135,
      "vsize": 135,
      "weight": 540,
      "locktime": 0,
      "vin": [
        {
          "coinbase": "04ffff001d02a903",
          "sequence": 4294967295
        }
      ],
      "vout": [
        {
          "value": 50.0,
          "n": 0,
          "scriptPubKey": {
            "asm": "046d71e90104204cdfe1c47404a269543af5093fc66a94450533b0a87f3bd013dd711561d6f87dfad68fb906b91dc653b61170d80c4df06a7df891698fe38df856 OP_CHECKSIG",
            "desc": "pk(046d71e90104204cdfe1c47404a269543af5093fc66a94450533b0a87f3bd013dd711561d6f87dfad68fb906b91dc653b61170d80c4df06a7df891698fe38df856)#f0cdhvyx",
            "hex": "41046d71e90104204cdfe1c47404a269543af5093fc66a94450533b0a87f3bd013dd711561d6f87dfad68fb906b91dc653b61170d80c4df06a7df891698fe38df856ac",
            "type": "pubkey"
          }
        }
      ],
      "hex": "01000000010000000000000000000000000000000000000000000000000000000000000000ffffffff0804ffff001d02a903ffffffff0100f2052a010000004341046d71e90104204cdfe1c47404a269543af5093fc66a94450533b0a87f3bd013dd711561d6f87dfad68fb906b91dc653b61170d80c4df06a7df891698fe38df856ac00000000"
    }
  ]
}