{
  "hash": "00000000ca2504466cada887b3c07685e156c286191212abf3003bdbcdeed1f7",
  "confirmations": 44334,
  "height": 8764,
  "version": 1,
  "versionHex": "00000001",
  "merkleroot": "2282a5e53ef86d28344681ef3a86243ebc4dfda069556af539d72ed2c2676be8",
  "time": 1238073316,
  "mediantime": 1238068902,
  "nonce": 14485525,
  "bits": "1d00ffff",
  "difficulty": 1,
  "chainwork": "0000000000000000000000000000000000000000000000000000223d223d223d",
  "nTx": 1,
  "previousblockhash": "0000000092146e5abc54f7475e508978ead63a6cb638ae88eec5270b18026089",
  "nextblockhash": "00000000a3227f2a250bacde81fc649d671697197d5094c8a4e5c67664306a6c",
  "strippedsize": 216,
  "size": 216,
  "weight": 864,
  "tx": [
    {
      "txid": "2282a5e53ef86d28344681ef3a86243ebc4dfda069556af539d72ed2c2676be8",
      "hash": "2282a5e53ef86d28344681ef3a86243ebc4dfda069556af539d72ed2c2676be8",
      "version": 1,
      "size": 135,
      "vsize": 135,
      "weight": 540,
      "locktime": 0,
      "vin": [
        {
          "coinbase": "04ffff001d029f06",
          "sequence": 4294967295
        }
      ],
      "vout": [
        {
          "value": 50.0,
          "n": 0,
          "scriptPubKey": {
            "asm": "04ee219160bb4a0c4217de3e4028c986411dc3dcca76a591b5bfe083f39dd9a76d4d0f4ad97e7f664cc9ae125784fbaad358aaf5335524affbfe61008850a5e375 OP_CHECKSIG",
            "desc": "pk(04ee219160bb4a0c4217de3e4028c986411dc3dcca76a591b5bfe083f39dd9a76d4d0f4ad97e7f664cc9ae125784fbaad358aaf5335524affbfe61008850a5e375)#50z205xs",
            "hex": "4104ee219160bb4a0c4217de3e4028c986411dc3dcca76a591b5bfe083f39dd9a76d4d0f4ad97e7f664cc9ae125784fbaad358aaf5335524affbfe61008850a5e375ac",
            "type": "pubkey"
          }
        }
      ],
      "hex": "01000000010000000000000000000000000000000000000000000000000000000000000000ffffffff0804ffff001d029f06ffffffff0100f2052a01000000434104ee219160bb4a0c4217de3e4028c986411dc3dcca76a591b5bfe083f39dd9a76d4d0f4ad97e7f664cc9ae125784fbaad358aaf5335524affbfe61008850a5e375ac00000000"
    }
  ]
}