{
  "hash": "00000000954c9ba50cdfad508b066b2c318f54f14d0b4a5724cc3c6c4dce02cd",
  "confirmations": 44529,
  "height": 8569,
  "version": 1,
  "versionHex": "00000001",
  "merkleroot": "8d132532836850517995a4ab39a2a3be8c78e5c6d92cbc19b7f5d185a82c156b",
  "time": 1237926249,
  "mediantime": 1237922444,
  "nonce": 3314490157,
  "bits": "1d00ffff",
  "difficulty": 1,
  "chainwork": "0000000000000000000000000000000000000000000000000000217a217a217a",
  "nTx": 1,
  "previousblockhash": "0000000055486616fe970fa8bdc9b735dd3b35e9193f7bbdaf5ce0eb4ed5cde7",
  "nextblockhash": "00000000132b99b9a546ad41729d7615d02a5461e878957951bab1ca2db14015",
  "strippedsize": 216,
  "size": 216,
  "weight": 864,
  "tx": [
    {
      "txid": "8d132532836850517995a4ab39a2a3be8c78e5c6d92cbc19b7f5d185a82c156b",
      "hash": "8d132532836850517995a4ab39a2a3be8c78e5c6d92cbc19b7f5d185a82c156b",
      "version": 1,
      "size": 135,
      "vsize": 135,
      "weight": 540,
      "locktime": 0,
      "vin": [
        {
          "coinbase": "04ffff001d021809",
          "sequence": 4294967295
        }
      ],
      "vout": [
        {
          "value": 50.0,
          "n": 0,
          "scriptPubKey": {
            "asm": "04bf8c11bd70e4629929117eba63e4c74fcff957aba6cb8618d055992fb1daa98d35fbe6dba2fd67e5cd7fab13832a78e331956d04a9ba0373fb8e44d226470f39 OP_CHECKSIG",
            "desc": "pk(04bf8c11bd70e4629929117eba63e4c74fcff957aba6cb8618d055992fb1daa98d35fbe6dba2fd67e5cd7fab13832a78e331956d04a9ba0373fb8e44d226470f39)#yxack4pn",
            "hex": "4104bf8c11bd70e4629929117eba63e4c74fcff957aba6cb8618d055992fb1daa98d35fbe6dba2fd67e5cd7fab13832a78e331956d04a9ba0373fb8e44d226470f39ac",
            "type": "pubkey"
          }
        }
      ],
      "hex": "01000000010000000000000000000000000000000000000000000000000000000000000000ffffffff0804ffff001d021809ffffffff0100f2052a01000000434104bf8c11bd70e4629929117eba63e4c74fcff957aba6cb8618d055992fb1daa98d35fbe6dba2fd67e5cd7fab13832a78e331956d04a9ba0373fb8e44d226470f39ac00000000"
    }
  ]
}