{
  "hash": "0000000097be56d606cdd9c54b04d4747e957d3608abe69198c661f2add73073",
  "confirmations": 51780,
  "height": 11,
  "version": 1,
  "versionHex": "00000001",
  "merkleroot": "f8325d8f7fa5d658ea143629288d0530d2710dc9193ddc067439de803c37066e",
  "time": 1231474360,
  "mediantime": 1231471789,
  "nonce": 4161222679,
  "bits": "1d00ffff",
  "difficulty": 1,
  "chainwork": "0000000000000000000000000000000000000000000000000000000c000c000c",
  "nTx": 1,
  "previousblockhash": "000000002c05cc2e78923c34df87fd108b22221ac6076c18f3ade378a4d915e9",
  "nextblockhash": "0000000027c2488e2510d1acf4369787784fa20ee084c258b58d9fbd43802b5e",
  "strippedsize": 215,
  "size": 215,
  "weight": 860,
  "tx": [
    {
      "txid": "f8325d8f7fa5d658ea143629288d0530d2710dc9193ddc067439de803c37066e",
      "hash": "f8325d8f7fa5d658ea143629288d0530d2710dc9193ddc067439de803c37066e",
      "version": 1,
      "size": 134,
      "vsize": 134,
      "weight": 536,
      "locktime": 0,
      "vin": [
        {
          "coinbase": "04ffff001d013b",
          "sequence": 4294967295
        }
      ],
      "vout": [
        {
          "value": 50.0,
          "n": 0,
          "scriptPubKey": {
            "asm": "046cc86ddcd0860b7cef16cbaad7fe31fda1bf073c25cb833fa9e409e7f51e296f39b653a9c8040a2f967319ff37cf14b0991b86173462a2d5907cb6c5648b5b76 OP_CHECKSIG",
            "desc": "pk(046cc86ddcd0860b7cef16cbaad7fe31fda1bf073c25cb833fa9e409e7f51e296f39b653a9c8040a2f967319ff37cf14b0991b86173462a2d5907cb6c5648b5b76)#t5gkr062",
            "hex": "41046cc86ddcd0860b7cef16cbaad7fe31fda1bf073c25cb833fa9e409e7f51e296f39b653a9c8040a2f967319ff37cf14b0991b86173462a2d5907cb6c5648b5b76ac",
            "type": "pubkey"
          }
        }
      ],
      "hex": "01000000010000000000000000000000000000000000000000000000000000000000000000ffffffff0704ffff001d013bffffffff0100f2052a010000004341046cc86ddcd0860b7cef16cbaad7fe31fda1bf073c25cb833fa9e409e7f51e296f39b653a9c8040a2f967319ff37cf14b0991b86173462a2d5907cb6c5648b5b76ac00000000"
    }
  ]
}