{
  "hash": "000000007f8132ddad7e418164c88b64e88365d9ddd3cb161e2abed6a1a6c127",
  "confirmations": 43700,
  "height": 9398,
  "version": 1,
  "versionHex": "00000001",
  "merkleroot": "9c7329caf97452d5a0952a6766055c263b134daf3d76b64e758e06f145ef1b19",
  "time": 1238550491,
  "mediantime": 1238546842,
  "nonce": 152150640,
  "bits": "1d00ffff",
  "difficulty": 1,
  "chainwork": "000000000000000000000000000000000000000000000000000024b724b724b7",
  "nTx": 1,
  "previousblockhash": "0000000048280e38facd2893e687ee9aec36938cb5c632a720c18b9394437274",
  "nextblockhash": "000000008caef6187e243f557cc8341bb168e83974342891eed3f991a4a4139c",
  "strippedsize": 216,
  "size": 216,
  "weight": 864,
  "tx": [
    {
      "txid": "9c7329caf97452d5a0952a6766055c263b134daf3d76b64e758e06f145ef1b19",
      "hash": "9c7329caf97452d5a0952a6766055c263b134daf3d76b64e758e06f145ef1b19",
      "version": 1,
      "size": 135,
      "vsize": 135,
      "weight": 540,
      "locktime": 0,
      "vin": [
        {
          "coinbase": "04ffff001d025905",
          "sequence": 4294967295
        }
      ],
      "vout": [
        {
          "value": 50.0,
          "n": 0,
          "scriptPubKey": {
            "asm": "044d0dd3e3bf4ef1b0647b5e8942e4bbdacf4cfcd185b78acba31ad3aabf9c85c27a7c25bc5eb15ed48f5c75ff085e9311d9d24fb3216049923bbb721b5dbccdaa OP_CHECKSIG",
            "desc": "pk(044d0dd3e3bf4ef1b0647b5e8942e4bbdacf4cfcd185b78acba31ad3aabf9c85c27a7c25bc5eb15ed48f5c75ff085e9311d9d24fb3216049923bbb721b5dbccdaa)#wda2sefm",
            "hex": "41044d0dd3e3bf4ef1b0647b5e8942e4bbdacf4cfcd185b78acba31ad3aabf9c85c27a7c25bc5eb15ed48f5c75ff085e9311d9d24fb3216049923bbb721b5dbccdaaac",
            "type": "pubkey"
          }
        }
      ],
      "hex": "01000000010000000000000000000000000000000000000000000000000000000000000000ffffffff0804ffff001d025905ffffffff0100f2052a010000004341044d0dd3e3bf4ef1b0647b5e8942e4bbdacf4cfcd185b78acba31ad3aabf9c85c27a7c25bc5eb15ed48f5c75ff085e9311d9d24fb3216049923bbb721b5dbccdaaac00000000"
    }
  ]
}