{
  "hash": "00000000d33226beeea5253068d1252b713fec143b7336a25b75cbc35afe45da",
  "confirmations": 52177,
  "height": 486,
  "version": 1,
  "versionHex": "00000001",
  "merkleroot": "36292df396be05354a267d3dc8d9895fbac2d88b65122c97ba8e0bd3c2946054",
  "time": 1231959366,
  "mediantime": 1231956588,
  "nonce": 934762027,
  "bits": "1d00ffff",
  "difficulty": 1,
  "chainwork": "000000000000000000000000000000000000000000000000000001e701e701e7",
  "nTx": 1,
  "previousblockhash": "00000000754312ec7235128b6e6e3539c760f61c1988e4728a5aa1dcd9cbcbde",
  "nextblockhash": "000000009c0f206254fa93fb756b3809c653fcd0a1ebb0caacc5b72e88e29a53",
  "strippedsize": 216,
  "size": 216,
  "weight": 864,
  "tx": [
    {
      "txid": "36292df396be05354a267d3dc8d9895fbac2d88b65122c97ba8e0bd3c2946054",
      "hash": "36292df396be05354a267d3dc8d9895fbac2d88b65122c97ba8e0bd3c2946054",
      "version": 1,
      "size": 135,
      "vsize": 135,
      "weight": 540,
      "locktime": 0,
      "vin": [
        {
          "coinbase": "04ffff001d023804",
          "sequence": 4294967295
        }
      ],
      "vout": [
        {
          "value": 50.0,
          "n": 0,
          "scriptPubKey": {
            "asm": "04423b3925e423d059e9f5795bbbcc9b9193cf383d73f3c70d081425e3338ed0c9d3142e251f95be52be82835cdfe922a6e4c9ad6055b395b9d36970b3442c6a68 OP_CHECKSIG",
            "desc": "pk(04423b3925e423d059e9f5795bbbcc9b9193cf383d73f3c70d081425e3338ed0c9d3142e251f95be52be82835cdfe922a6e4c9ad6055b395b9d36970b3442c6a68)#4ntu85lk",
            "hex": "4104423b3925e423d059e9f5795bbbcc9b9193cf383d73f3c70d081425e3338ed0c9d3142e251f95be52be82835cdfe922a6e4c9ad6055b395b9d36970b3442c6a68ac",
            "type": "pubkey"
          }
        }
      ],
      "hex": "01000000010000000000000000000000000000000000000000000000000000000000000000ffffffff0804ffff001d023804ffffffff0100f2052a01000000434104423b3925e423d059e9f5795bbbcc9b9193cf383d73f3c70d081425e3338ed0c9d3142e251f95be52be82835cdfe922a6e4c9ad6055b395b9d36970b3442c6a68ac00000000"
    }
  ]
}