{
  "hash": "0000000097ad82fe2e9d3ce60dc11312efcdda3815e5b1acfb886a787ac59c4f",
  "confirmations": 46398,
  "height": 6700,
  "version": 1,
  "versionHex": "00000001",
  "merkleroot": "7e66bd40c25de24fb3797bd932547ab061195c1b9a3cbd0cb8038fa4b1ff7556",
  "time": 1236483530,
  "mediantime": 1236479311,
  "nonce": 2220634668,
  "bits": "1d00ffff",
  "difficulty": 1,
  "chainwork": "00000000000000000000000000000000000000000000000000001a2d1a2d1a2d",
  "nTx": 1,
  "previousblockhash": "000000007685a480254e11edaa377568317f4d8af0b1cd91f27d04d4f0cbfce8",
  "nextblockhash": "000000003fd1bbe55cf76942175b13d725f8673722da819040844e8ba3019bcc",
  "strippedsize": 216,
  "size": 216,
  "weight": 864,
  "tx": [
    {
      "txid": "7e66bd40c25de24fb3797bd932547ab061195c1b9a3cbd0cb8038fa4b1ff7556",
      "hash": "7e66bd40c25de24fb3797bd932547ab061195c1b9a3cbd0cb8038fa4b1ff7556",
      "version": 1,
      "size": 135,
      "vsize": 135,
      "weight": 540,
      "locktime": 0,
      "vin": [
        {
          "coinbase": "04ffff001d020207",
          "sequence": 4294967295
        }
      ],
      "vout": [
        {
          "value": 50.0,
          "n": 0,
          "scriptPubKey": {
            "asm": "048ed8b66c4d4981935df8299d52dddba05fc2b5acd1ab5ac2df6bb1a5629a4f999f4a2eb1c58e0ce450683e0e871f77445554524c639a17b3cd262f24c51e293d OP_CHECKSIG",
            "desc": "pk(048ed8b66c4d4981935df8299d52dddba05fc2b5acd1ab5ac2df6bb1a5629a4f999f4a2eb1c58e0ce450683e0e871f77445554524c639a17b3cd262f24c51e293d)#gjjpa3yj",
            "hex": "41048ed8b66c4d4981935df8299d52dddba05fc2b5acd1ab5ac2df6bb1a5629a4f999f4a2eb1c58e0ce450683e0e871f77445554524c639a17b3cd262f24c51e293dac",
            "type": "pubkey"
          }
        }
      ],
      "hex": "01000000010000000000000000000000000000000000000000000000000000000000000000ffffffff0804ffff001d020207ffffffff0100f2052a010000004341048ed8b66c4d4981935df8299d52dddba05fc2b5acd1ab5ac2df6bb1a5629a4f999f4a2eb1c58e0ce450683e0e871f77445554524c639a17b3cd262f24c51e293dac00000000"
    }
  ]
}