{
  "hash": "000000004512079b08e0e260cd3495f7a1efd44dae909663ccb3766b7bf87f0a",
  "confirmations": 48118,
  "height": 4980,
  "version": 1,
  "versionHex": "00000001",
  "merkleroot": "ad1f01394cd82bd9bd0491b6df2487fd008c72f396a00d2442af466db5c72040",
  "time": 1235126444,
  "mediantime": 1235122731,
  "nonce": 3472519469,
  "bits": "1d00ffff",
  "difficulty": 1,
  "chainwork": "0000000000000000000000000000000000000000000000000000137513751375",
  "nTx": 1,
  "previousblockhash": "00000000b9a3bd2d0785d42d8cdf864b92d3cebbf4b021ae9ef27a48bcb9757c",
  "nextblockhash": "000000004a8b7d08ce52c63addfd00bb787ad487fd3dd727a8d64b7f98be2423",
  "strippedsize": 216,
  "size": 216,
  "weight": 864,
  "tx": [
    {
      "txid": "ad1f01394cd82bd9bd0491b6df2487fd008c72f396a00d2442af466db5c72040",
      "hash": "ad1f01394cd82bd9bd0491b6df2487fd008c72f396a00d2442af466db5c72040",
      "version": 1,
      "size": 135,
      "vsize": 135,
      "weight": 540,
      "locktime": 0,
      "vin": [
        {
          "coinbase": "04ffff001d02b806",
          "sequence": 4294967295
        }
      ],
      "vout": [
        {
          "value": 50.0,
          "n": 0,
          "scriptPubKey": {
            "asm": "04af4baffd758067f06896952d44085a004290290b2851a7240ff8effe43f874e9b4042f083065b362c415d13c16f5a7db8188a87e6ecaf254f6f7fba9debc152d OP_CHECKSIG",
            "desc": "pk(04af4baffd758067f06896952d44085a004290290b2851a7240ff8effe43f874e9b4042f083065b362c415d13c16f5a7db8188a87e6ecaf254f6f7fba9debc152d)#qstwttpy",
            "hex": "4104af4baffd758067f06896952d44085a004290290b2851a7240ff8effe43f874e9b4042f083065b362c415d13c16f5a7db8188a87e6ecaf254f6f7fba9debc152dac",
            "type": "pubkey"
          }
        }
      ],
      "hex": "01000000010000000000000000000000000000000000000000000000000000000000000000ffffffff0804ffff001d02b806ffffffff0100f2052a01000000434104af4baffd758067f06896952d44085a004290290b2851a7240ff8effe43f874e9b4042f083065b362c415d13c16f5a7db8188a87e6ecaf254f6f7fba9debc152dac00000000"
    }
  ]
}