{
  "hash": "000000002cdcd68510d38863a1eb80c73edf9a181ab838037bccab1d64cc910e",
  "confirmations": 51859,
  "height": 1239,
  "version": 1,
  "versionHex": "00000001",
  "merkleroot": "4ec94dfe670b5d18eff3cb516c4d3aeb4b1e322467f90a9cd367515a2d682b7f",
  "time": 1232530978,
  "mediantime": 1232526531,
  "nonce": 4192960773,
  "bits": "1d00ffff",
  "difficulty": 1,
  "chainwork": "000000000000000000000000000000000000000000000000000004d804d804d8",
  "nTx": 1,
  "previousblockhash": "00000000af67e0ab8b6f8beecb9172f632a037d5c5701af697392dbe9471ed37",
  "nextblockhash": "00000000a85e5b2827b328be25397bfda277b1011e44c3682726f8a8f701ab69",
  "strippedsize": 216,
  "size": 216,
  "weight": 864,
  "tx": [
    {
      "txid": "4ec94dfe670b5d18eff3cb516c4d3aeb4b1e322467f90a9cd367515a2d682b7f",
      "hash": "4ec94dfe670b5d18eff3cb516c4d3aeb4b1e322467f90a9cd367515a2d682b7f",
      "version": 1,
      "size": 135,
      "vsize": 135,
      "weight": 540,
      "locktime": 0,
      "vin": [
        {
          "coinbase": "04ffff001d023c09",
          "sequence": 4294967295
        }
      ],
      "vout": [
        {
          "value": 50.0,
          "n": 0,
          "scriptPubKey": {
            "asm": "047e0b12a89a79d820f4e83e2429c56f88c4823b1d1268067a3a1efec8d0916e63636c0c3407f5a5d028189fe86692c5f858ffc565d91f9e3a779cf518b066b2a1 OP_CHECKSIG",
            "desc": "pk(047e0b12a89a79d820f4e83e2429c56f88c4823b1d1268067a3a1efec8d0916e63636c0c3407f5a5d028189fe86692c5f858ffc565d91f9e3a779cf518b066b2a1)#7wa4tal8",
            "hex": "41047e0b12a89a79d820f4e83e2429c56f88c4823b1d1268067a3a1efec8d0916e63636c0c3407f5a5d028189fe86692c5f858ffc565d91f9e3a779cf518b066b2a1ac",
            "type": "pubkey"
          }
        }
      ],
      "hex": "01000000010000000000000000000000000000000000000000000000000000000000000000ffffffff0804ffff001d023c09ffffffff0100f2052a010000004341047e0b12a89a79d820f4e83e2429c56f88c4823b1d1268067a3a1efec8d0916e63636c0c3407f5a5d028189fe86692c5f858ffc565d91f9e3a779cf518b066b2a1ac00000000"
    }
  ]
}