{
  "hash": "00000000bcc7bc36c3f52bf8dac1ec6c8e3be24321d23761f0b9d93a22cc30d0",
  "confirmations": 43538,
  "height": 9560,
  "version": 1,
  "versionHex": "00000001",
  "merkleroot": "48de403efc8001fb8537b444040548f3afbb45ede96464fab13259badf28c548",
  "time": 1238669393,
  "mediantime": 1238666277,
  "nonce": 2073661224,
  "bits": "1d00ffff",
  "difficulty": 1,
  "chainwork": "0000000000000000000000000000000000000000000000000000255925592559",
  "nTx": 1,
  "previousblockhash": "00000000605b69a9f36fa21e749fc1750350c6d8adce709eb29f33dc130dc357",
  "nextblockhash": "00000000d49b4ca9755293ff435ec57a308b605ef88f01a78300bea433756a45",
  "strippedsize": 216,
  "size": 216,
  "weight": 864,
  "tx": [
    {
      "txid": "48de403efc8001fb8537b444040548f3afbb45ede96464fab13259badf28c548",
      "hash": "48de403efc8001fb8537b444040548f3afbb45ede96464fab13259badf28c548",
      "version": 1,
      "size": 135,
      "vsize": 135,
      "weight": 540,
      "locktime": 0,
      "vin": [
        {
          "coinbase": "04ffff001d024206",
          "sequence": 4294967295
        }
      ],
      "vout": [
        {
          "value": 50.0,
          "n": 0,
          "scriptPubKey": {
            "asm": "04957f5b3c59f313eda8d66fb42fda0e9406a3264409c628328b700681f229c4f87d2e7d7baf13d91d1ad7b73c96cde88eb1b900d536328820d2e859814db0df03 OP_CHECKSIG",
            "desc": "pk(04957f5b3c59f313eda8d66fb42fda0e9406a3264409c628328b700681f229c4f87d2e7d7baf13d91d1ad7b73c96cde88eb1b900d536328820d2e859814db0df03)#6wq0yeg8",
            "hex": "4104957f5b3c59f313eda8d66fb42fda0e9406a3264409c628328b700681f229c4f87d2e7d7baf13d91d1ad7b73c96cde88eb1b900d536328820d2e859814db0df03ac",
            "type": "pubkey"
          }
        }
      ],
      "hex": "01000000010000000000000000000000000000000000000000000000000000000000000000ffffffff0804ffff001d024206ffffffff0100f2052a01000000434104957f5b3c59f313eda8d66fb42fda0e9406a3264409c628328b700681f229c4f87d2e7d7baf13d91d1ad7b73c96cde88eb1b900d536328820d2e859814db0df03ac00000000"
    }
  ]
}