{
  "hash": "000000001c77a7c7631f4c6ad357b620492a81bee8031f9296f9c6626b2f499d",
  "confirmations": 43931,
  "height": 9167,
  "version": 1,
  "versionHex": "00000001",
  "merkleroot": "8d7a6d9a9884f7bfba50e39ee87152b555284fd92927cd987ffbacd385aa6d58",
  "time": 1238377241,
  "mediantime": 1238372495,
  "nonce": 3776759827,
  "bits": "1d00ffff",
  "difficulty": 1,
  "chainwork": "000000000000000000000000000000000000000000000000000023d023d023d0",
  "nTx": 1,
  "previousblockhash": "0000000019778aeb88ca3218c0c400a9ec8941071d4c441ac3ee57954b3025e4",
  "nextblockhash": "000000004446faea44e4a0ece765fa7c00eafd3b6d4d3b2ccb1333d83efe3a7f",
  "strippedsize": 216,
  "size": 216,
  "weight": 864,
  "tx": [
    {
      "txid": "8d7a6d9a9884f7bfba50e39ee87152b555284fd92927cd987ffbacd385aa6d58",
      "hash": "8d7a6d9a9884f7bfba50e39ee87152b555284fd92927cd987ffbacd385aa6d58",
      "version": 1,
      "size": 135,
      "vsize": 135,
      "weight": 540,
      "locktime": 0,
      "vin": [
        {
          "coinbase": "04ffff001d02ab09",
          "sequence": 4294967295
        }
      ],
      "vout": [
        {
          "value": 50.0,
          "n": 0,
          "scriptPubKey": {
            "asm": "0457f0d4ce5ce3640e18ac27b83a349122449da2aa0ff42da67026894c3fae6fe5e6721a41ac8d31562206bb8ea8d40cdf22c49ccf2c1c5fd709c80802a29a5f99 OP_CHECKSIG",
            "desc": "pk(0457f0d4ce5ce3640e18ac27b83a349122449da2aa0ff42da67026894c3fae6fe5e6721a41ac8d31562206bb8ea8d40cdf22c49ccf2c1c5fd709c80802a29a5f99)#grnu8azp",
            "hex": "410457f0d4ce5ce3640e18ac27b83a349122449da2aa0ff42da67026894c3fae6fe5e6721a41ac8d31562206bb8ea8d40cdf22c49ccf2c1c5fd709c80802a29a5f99ac",
            "type": "pubkey"
          }
        }
      ],
      "hex": "01000000010000000000000000000000000000000000000000000000000000000000000000ffffffff0804ffff001d02ab09ffffffff0100f2052a0100000043410457f0d4ce5ce3640e18ac27b83a349122449da2aa0ff42da67026894c3fae6fe5e6721a41ac8d31562206bb8ea8d40cdf22c49ccf2c1c5fd709c80802a29a5f99ac00000000"
    }
  ]
}