{
  "hash": "00000000f6b35310402b04383538314fb8a9399c4add35d0927a8d3807157d1b",
  "confirmations": 49937,
  "height": 3161,
  "version": 1,
  "versionHex": "00000001",
  "merkleroot": "21962a2127aac4f0154e4bbd397382f9a67c0fd11182ebfbb84d67ce58eb23ca",
  "time": 1233873749,
  "mediantime": 1233870655,
  "nonce": 1517535279,
  "bits": "1d00ffff",
  "difficulty": 1,
  "chainwork": "00000000000000000000000000000000000000000000000000000c5a0c5a0c5a",
  "nTx": 1,
  "previousblockhash": "00000000be00819985a9bd99096f8b5f102a55ec6a6a04f9db42b1e1615b1c6a",
  "nextblockhash": "000000003480b0828d65e242d60eaef79b3ad0f9d716d5eab08f2ff1ca35c9ba",
  "strippedsize": 216,
  "size": 216,
  "weight": 864,
  "tx": [
    {
      "txid": "21962a2127aac4f0154e4bbd397382f9a67c0fd11182ebfbb84d67ce58eb23ca",
      "hash": "21962a2127aac4f0154e4bbd397382f9a67c0fd11182ebfbb84d67ce58eb23ca",
      "version": 1,
      "size": 135,
      "vsize": 135,
      "weight": 540,
      "locktime": 0,
      "vin": [
        {
          "coinbase": "04ffff001d022b02",
          "sequence": 4294967295
        }
      ],
      "vout": [
        {
          "value": 50.0,
          "n": 0,
          "scriptPubKey": {
            "asm": "04d274767732c557495167b2c9abfef5d5f96990879ba2ddd8f2d4f7bca9f4fd3198c6352552371e7547d169a5884e788a00658ef450bfee409268dbd4135674ab OP_CHECKSIG",
            "desc": "pk(04d274767732c557495167b2c9abfef5d5f96990879ba2ddd8f2d4f7bca9f4fd3198c6352552371e7547d169a5884e788a00658ef450bfee409268dbd4135674ab)#qshpyx94",
            "hex": "4104d274767732c557495167b2c9abfef5d5f96990879ba2ddd8f2d4f7bca9f4fd3198c6352552371e7547d169a5884e788a00658ef450bfee409268dbd4135674abac",
            "type": "pubkey"
          }
        }
      ],
      "hex": "01000000010000000000000000000000000000000000000000000000000000000000000000ffffffff0804ffff001d022b02ffffffff0100f2052a01000000434104d274767732c557495167b2c9abfef5d5f96990879ba2ddd8f2d4f7bca9f4fd3198c6352552371e7547d169a5884e788a00658ef450bfee409268dbd4135674abac00000000"
    }
  ]
}