{
  "hash": "000000007db21ca5337f74ecf4d9fb1286273b773c7f733cf71b70855cf9cb91",
  "confirmations": 46244,
  "height": 6854,
  "version": 1,
  "versionHex": "00000001",
  "merkleroot": "91be3da1608d5b15fb18ff6e24435567705ec1837b72307376d6d6ba23994613",
  "time": 1236598074,
  "mediantime": 1236593584,
  "nonce": 85290447,
  "bits": "1d00ffff",
  "difficulty": 1,
  "chainwork": "00000000000000000000000000000000000000000000000000001ac71ac71ac7",
  "nTx": 1,
  "previousblockhash": "000000001e6b6f369fed9dd0861026778e41e59e55add399bee9f9e0054b7ea6",
  "nextblockhash": "000000008f73a920ccd0081eba0f5298d4290f774d79cdf789ea102da9628d02",
  "strippedsize": 216,
  "size": 216,
  "weight": 864,
  "tx": [
    {
      "txid": "91be3da1608d5b15fb18ff6e24435567705ec1837b72307376d6d6ba23994613",
      "hash": "91be3da1608d5b15fb18ff6e24435567705ec1837b72307376d6d6ba23994613",
      "version": 1,
      "size": 135,
      "vsize": 135,
      "weight": 540,
      "locktime": 0,
      "vin": [
        {
          "coinbase": "04ffff001d027905",
          "sequence": 4294967295
        }
      ],
      "vout": [
        {
          "value": 50.0,
          "n": 0,
          "scriptPubKey": {
            "asm": "04e7e9b5611448dd61c3c29b3f8a7e61291e6498d55555b58844a905bbf78e73abdc8d1a3ed3746c02731fe8200eefafaa17a4e60410add4ff48401cb596dfad58 OP_CHECKSIG",
            "desc": "pk(04e7e9b5611448dd61c3c29b3f8a7e61291e6498d55555b58844a905bbf78e73abdc8d1a3ed3746c02731fe8200eefafaa17a4e60410add4ff48401cb596dfad58)#cmavfcwh",
            "hex": "4104e7e9b5611448dd61c3c29b3f8a7e61291e6498d55555b58844a905bbf78e73abdc8d1a3ed3746c02731fe8200eefafaa17a4e60410add4ff48401cb596dfad58ac",
            "type": "pubkey"
          }
        }
      ],
      "hex": "01000000010000000000000000000000000000000000000000000000000000000000000000ffffffff0804ffff001d027905ffffffff0100f2052a01000000434104e7e9b5611448dd61c3c29b3f8a7e61291e6498d55555b58844a905bbf78e73abdc8d1a3ed3746c02731fe8200eefafaa17a4e60410add4ff48401cb596dfad58ac00000000"
    }
  ]
}