{
  "hash": "00000000bc4bcd7794a12695376e0083f3dfb0ec3582025ecfcd908d3651c340",
  "confirmations": 44527,
  "height": 8571,
  "version": 1,
  "versionHex": "00000001",
  "merkleroot": "d5634d63e3f8e21810bf2384cba4dd8ea3b611f593b09a1f682b7cc8a617c0cc",
  "time": 1237928021,
  "mediantime": 1237924731,
  "nonce": 2756687362,
  "bits": "1d00ffff",
  "difficulty": 1,
  "chainwork": "0000000000000000000000000000000000000000000000000000217c217c217c",
  "nTx": 1,
  "previousblockhash": "00000000132b99b9a546ad41729d7615d02a5461e878957951bab1ca2db14015",
  "nextblockhash": "000000002055ce92dc067a5097a5671bb43945ec580195b728741cccc1a050e8",
  "strippedsize": 216,
  "size": 216,
  "weight": 864,
  "tx": [
    {
      "txid": "d5634d63e3f8e21810bf2384cba4dd8ea3b611f593b09a1f682b7cc8a617c0cc",
      "hash": "d5634d63e3f8e21810bf2384cba4dd8ea3b611f593b09a1f682b7cc8a617c0cc",
      "version": 1,
      "size": 135,
      "vsize": 135,
      "weight": 540,
      "locktime": 0,
      "vin": [
        {
          "coinbase": "04ffff001d021b09",
          "sequence": 4294967295
        }
      ],
      "vout": [
        {
          "value": 50.0,
          "n": 0,
          "scriptPubKey": {
            "asm": "04d3caf264408592c998a78580353f11d2c85b6f2809fa5cf3c7b0f87c6de983a16ff59ea45289de5e6a9fead1c7c8fdf0a852830c1045c4834bbd7b584a72ddbd OP_CHECKSIG",
            "desc": "pk(04d3caf264408592c998a78580353f11d2c85b6f2809fa5cf3c7b0f87c6de983a16ff59ea45289de5e6a9fead1c7c8fdf0a852830c1045c4834bbd7b584a72ddbd)#vzw9s7xp",
            "hex": "4104d3caf264408592c998a78580353f11d2c85b6f2809fa5cf3c7b0f87c6de983a16ff59ea45289de5e6a9fead1c7c8fdf0a852830c1045c4834bbd7b584a72ddbdac",
            "type": "pubkey"
          }
        }
      ],
      "hex": "01000000010000000000000000000000000000000000000000000000000000000000000000ffffffff0804ffff001d021b09ffffffff0100f2052a01000000434104d3caf264408592c998a78580353f11d2c85b6f2809fa5cf3c7b0f87c6de983a16ff59ea45289de5e6a9fead1c7c8fdf0a852830c1045c4834bbd7b584a72ddbdac00000000"
    }
  ]
}