{
  "hash": "00000000ec317a78d83bea685e0dda3c54a7961bf228619f7fcd98c7acaff834",
  "confirmations": 50870,
  "height": 2228,
  "version": 1,
  "versionHex": "00000001",
  "merkleroot": "56b11c27d6358756a30e5a1a0c56fb2ee9d19d628fa2369ffc7b0690c152d7a8",
  "time": 1233234130,
  "mediantime": 1233229961,
  "nonce": 427772310,
  "bits": "1d00ffff",
  "difficulty": 1,
  "chainwork": "000000000000000000000000000000000000000000000000000008b508b508b5",
  "nTx": 1,
  "previousblockhash": "0000000002fed247aa33b2afc84e3c0c6f25a410fafcd31d1e27b824e30a47f6",
  "nextblockhash": "00000000bc61525dc9c80efe32f801de1b83082e2fd5bde14c6d7d376ed27e74",
  "strippedsize": 215,
  "size": 215,
  "weight": 860,
  "tx": [
    {
      "txid": "56b11c27d6358756a30e5a1a0c56fb2ee9d19d628fa2369ffc7b0690c152d7a8",
      "hash": "56b11c27d6358756a30e5a1a0c56fb2ee9d19d628fa2369ffc7b0690c152d7a8",
      "version": 1,
      "size": 134,
      "vsize": 134,
      "weight": 536,
      "locktime": 0,
      "vin": [
        {
          "coinbase": "04ffff001d0109",
          "sequence": 4294967295
        }
      ],
      "vout": [
        {
          "value": 50.0,
          "n": 0,
          "scriptPubKey": {
            "asm": "047a49622cf9cd27b1d45639cd42cbceac069ab200b89142513813ef2aaa6d560b3080a2499165d87a2743eceda60a7eef4ef0f3558c79a134f0431aa90ac4af34 OP_CHECKSIG",
            "desc": "pk(047a49622cf9cd27b1d45639cd42cbceac069ab200b89142513813ef2aaa6d560b3080a2499165d87a2743eceda60a7eef4ef0f3558c79a134f0431aa90ac4af34)#0xsljvhq",
            "hex": "41047a49622cf9cd27b1d45639cd42cbceac069ab200b89142513813ef2aaa6d560b3080a2499165d87a2743eceda60a7eef4ef0f3558c79a134f0431aa90ac4af34ac",
            "type": "pubkey"
          }
        }
      ],
      "hex": "01000000010000000000000000000000000000000000000000000000000000000000000000ffffffff0704ffff001d0109ffffffff0100f2052a010000004341047a49622cf9cd27b1d45639cd42cbceac069ab200b89142513813ef2aaa6d560b3080a2499165d87a2743eceda60a7eef4ef0f3558c79a134f0431aa90ac4af34ac00000000"
    }
  ]
}