{
  "hash": "00000000f1969a8d7c5bf8aa05dd5395abe392806655b798bd4973322eaa47db",
  "confirmations": 47074,
  "height": 6024,
  "version": 1,
  "versionHex": "00000001",
  "merkleroot": "4eac00183eab624429024062701e35ab468b7d0f1904769a9d801c38bc2e7f51",
  "time": 1235948356,
  "mediantime": 1235943012,
  "nonce": 1646779396,
  "bits": "1d00ffff",
  "difficulty": 1,
  "chainwork": "0000000000000000000000000000000000000000000000000000178917891789",
  "nTx": 1,
  "previousblockhash": "000000008334c87587ab658302ff35a49a8c91e7104e61f1f1641961add38197",
  "nextblockhash": "00000000218e64fdb5bd5e8d1a798da284c2fdbe26d966ce6851b54f4933cf41",
  "strippedsize": 216,
  "size": 216,
  "weight": 864,
  "tx": [
    {
      "txid": "4eac00183eab624429024062701e35ab468b7d0f1904769a9d801c38bc2e7f51",
      "hash": "4eac00183eab624429024062701e35ab468b7d0f1904769a9d801c38bc2e7f51",
      "version": 1,
      "size": 135,
      "vsize": 135,
      "weight": 540,
      "locktime": 0,
      "vin": [
        {
          "coinbase": "04ffff001d026105",
          "sequence": 4294967295
        }
      ],
      "vout": [
        {
          "value": 50.0,
          "n": 0,
          "scriptPubKey": {
            "asm": "04c7c396ee6464a2f82a66c777e88634d77c223b63d6db15ca92ed6bf83d327c5eb84cb642e16e6559c224cb34f381bbfa4458bf0eea99dedd7ac8a4809153d534 OP_CHECKSIG",
            "desc": "pk(04c7c396ee6464a2f82a66c777e88634d77c223b63d6db15ca92ed6bf83d327c5eb84cb642e16e6559c224cb34f381bbfa4458bf0eea99dedd7ac8a4809153d534)#rkw6cx29",
            "hex": "4104c7c396ee6464a2f82a66c777e88634d77c223b63d6db15ca92ed6bf83d327c5eb84cb642e16e6559c224cb34f381bbfa4458bf0eea99dedd7ac8a4809153d534ac",
            "type": "pubkey"
          }
        }
      ],
      "hex": "01000000010000000000000000000000000000000000000000000000000000000000000000ffffffff0804ffff001d026105ffffffff0100f2052a01000000434104c7c396ee6464a2f82a66c777e88634d77c223b63d6db15ca92ed6bf83d327c5eb84cb642e16e6559c224cb34f381bbfa4458bf0eea99dedd7ac8a4809153d534ac00000000"
    }
  ]
}