{
  "hash": "000000008b8d737b88327bc66edc676668f56db95c623bbe91aa945342983c3b",
  "confirmations": 48186,
  "height": 4912,
  "version": 1,
  "versionHex": "00000001",
  "merkleroot": "ed1a6123b98b2bec1ffcc727627120608b9df10416e6caf9b8971ef0aa690ca1",
  "time": 1235079156,
  "mediantime": 1235076404,
  "nonce": 244657743,
  "bits": "1d00ffff",
  "difficulty": 1,
  "chainwork": "0000000000000000000000000000000000000000000000000000133113311331",
  "nTx": 1,
  "previousblockhash": "00000000a5a942cd3d90de837d81c64b996c8d28e985933a3ff324c2269436c1",
  "nextblockhash": "00000000eb2c876cc1125d31010538ed611330bfca9933912979976590d9fe8a",
  "strippedsize": 216,
  "size": 216,
  "weight": 864,
  "tx": [
    {
      "txid": "ed1a6123b98b2bec1ffcc727627120608b9df10416e6caf9b8971ef0aa690ca1",
      "hash": "ed1a6123b98b2bec1ffcc727627120608b9df10416e6caf9b8971ef0aa690ca1",
      "version": 1,
      "size": 135,
      "vsize": 135,
      "weight": 540,
      "locktime": 0,
      "vin": [
        {
          "coinbase": "04ffff001d02c80b",
          "sequence": 4294967295
        }
      ],
      "vout": [
        {
          "value": 50.0,
          "n": 0,
          "scriptPubKey": {
            "asm": "042900593345aa63cdd45b732bb753692a78e207f0997a6378bbd9b26e92c39559a81c6922f07b5aad4731af17eb20f5143620d2900aa399c54d51faf1cac8080c OP_CHECKSIG",
            "desc": "pk(042900593345aa63cdd45b732bb753692a78e207f0997a6378bbd9b26e92c39559a81c6922f07b5aad4731af17eb20f5143620d2900aa399c54d51faf1cac8080c)#jepysh7d",
            "hex": "41042900593345aa63cdd45b732bb753692a78e207f0997a6378bbd9b26e92c39559a81c6922f07b5aad4731af17eb20f5143620d2900aa399c54d51faf1cac8080cac",
            "type": "pubkey"
          }
        }
      ],
      "hex": "01000000010000000000000000000000000000000000000000000000000000000000000000ffffffff0804ffff001d02c80bffffffff0100f2052a010000004341042900593345aa63cdd45b732bb753692a78e207f0997a6378bbd9b26e92c39559a81c6922f07b5aad4731af17eb20f5143620d2900aa399c54d51faf1cac8080cac00000000"
    }
  ]
}