{
  "hash": "00000000dcd9113fe48054aacf9f23cf40200bd8f24a1f25bad60f842d86f75b",
  "confirmations": 43213,
  "height": 9885,
  "version": 1,
  "versionHex": "00000001",
  "merkleroot": "0ea8e1348f2c5a9b803ac7e60ed8e66d2356d5dfac449122a6844d335115e4b7",
  "time": 1238915375,
  "mediantime": 1238912017,
  "nonce": 3640648484,
  "bits": "1d00ffff",
  "difficulty": 1,
  "chainwork": "0000000000000000000000000000000000000000000000000000269e269e269e",
  "nTx": 1,
  "previousblockhash": "000000007446ffb52462e68259ace3ae9e7e3ccbbbe5ce2c89c5a76e2fe1861c",
  "nextblockhash": "000000009fb14d3650b8a6ac331ab55d2b7f64b58afac0dc5df5a4bc00622a74",
  "strippedsize": 216,
  "size": 216,
  "weight": 864,
  "tx": [
    {
      "txid": "0ea8e1348f2c5a9b803ac7e60ed8e66d2356d5dfac449122a6844d335115e4b7",
      "hash": "0ea8e1348f2c5a9b803ac7e60ed8e66d2356d5dfac449122a6844d335115e4b7",
      "version": 1,
      "size": 135,
      "vsize": 135,
      "weight": 540,
      "locktime": 0,
      "vin": [
        {
          "coinbase": "04ffff001d02d501",
          "sequence": 4294967295
        }
      ],
      "vout": [
        {
          "value": 50.0,
          "n": 0,
          "scriptPubKey": {
            "asm": "04a30fc6b4acd29b7afd3d7b1895d244cfd4d3483a4de4c057403cd3c87c71a270f2528ee40d93c0543771bc65ed5a58066e3050c547832ddcb478c8b3861746a9 OP_CHECKSIG",
            "desc": "pk(04a30fc6b4acd29b7afd3d7b1895d244cfd4d3483a4de4c057403cd3c87c71a270f2528ee40d93c0543771bc65ed5a58066e3050c547832ddcb478c8b3861746a9)#h83dwjy9",
            "hex": "4104a30fc6b4acd29b7afd3d7b1895d244cfd4d3483a4de4c057403cd3c87c71a270f2528ee40d93c0543771bc65ed5a58066e3050c547832ddcb478c8b3861746a9ac",
            "type": "pubkey"
          }
        }
      ],
      "hex": "01000000010000000000000000000000000000000000000000000000000000000000000000ffffffff0804ffff001d02d501ffffffff0100f2052a01000000434104a30fc6b4acd29b7afd3d7b1895d244cfd4d3483a4de4c057403cd3c87c71a270f2528ee40d93c0543771bc65ed5a58066e3050c547832ddcb478c8b3861746a9ac00000000"
    }
  ]
}