{
  "hash": "0000000049caf505993a97999aaae3865ad632f413c1f7465b5629fd77153beb",
  "confirmations": 52430,
  "height": 668,
  "version": 1,
  "versionHex": "00000001",
  "merkleroot": "5c1d92e7aeaf5c1b79586f44fbd9ba5199f0ccd25aa99ec09fe2e7ecc8f380f9",
  "time": 1232080611,
  "mediantime": 1232077965,
  "nonce": 1936076839,
  "bits": "1d00ffff",
  "difficulty": 1,
  "chainwork": "0000000000000000000000000000000000000000000000000000029d029d029d",
  "nTx": 1,
  "previousblockhash": "000000002c366a1d494cfe69187059aa125ba410b9779ac6dcda38d7e6711fbe",
  "nextblockhash": "0000000062f7c49b1b1fd14cac362c40affbf322e40c9f2603148e62ae95ac9f",
  "strippedsize": 215,
  "size": 215,
  "weight": 860,
  "tx": [
    {
      "txid": "5c1d92e7aeaf5c1b79586f44fbd9ba5199f0ccd25aa99ec09fe2e7ecc8f380f9",
      "hash": "5c1d92e7aeaf5c1b79586f44fbd9ba5199f0ccd25aa99ec09fe2e7ecc8f380f9",
      "version": 1,
      "size": 134,
      "vsize": 134,
      "weight": 536,
      "locktime": 0,
      "vin": [
        {
          "coinbase": "04ffff001d0124",
          "sequence": 4294967295
        }
      ],
      "vout": [
        {
          "value": 50.0,
          "n": 0,
          "scriptPubKey": {
            "asm": "04070d5af7f2ad6db52d80204a2a7454d756039b42ea96d3773070f66e2d67f84ca12afbb8cda28bd7f48a2d9255121cb7d549884ef4fb37eb79849d0a8ca11be6 OP_CHECKSIG",
            "desc": "pk(04070d5af7f2ad6db52d80204a2a7454d756039b42ea96d3773070f66e2d67f84ca12afbb8cda28bd7f48a2d9255121cb7d549884ef4fb37eb79849d0a8ca11be6)#hymrjacm",
            "hex": "4104070d5af7f2ad6db52d80204a2a7454d756039b42ea96d3773070f66e2d67f84ca12afbb8cda28bd7f48a2d9255121cb7d549884ef4fb37eb79849d0a8ca11be6ac",
            "type": "pubkey"
          }
        }
      ],
      "hex": "01000000010000000000000000000000000000000000000000000000000000000000000000ffffffff0704ffff001d0124ffffffff0100f2052a01000000434104070d5af7f2ad6db52d80204a2a7454d756039b42ea96d3773070f66e2d67f84ca12afbb8cda28bd7f48a2d9255121cb7d549884ef4fb37eb79849d0a8ca11be6ac00000000"
    }
  ]
}