{
  "hash": "00000000fc804c9e2435ef447d7398586c72e7e0d8382a571da79bb02a59201e",
  "confirmations": 45407,
  "height": 7691,
  "version": 1,
  "versionHex": "00000001",
  "merkleroot": "3ad1486433fdbffe35eb9fff3416f873939e49b9221354e5cbe7da38879ef911",
  "time": 1237233253,
  "mediantime": 1237228584,
  "nonce": 1931953960,
  "bits": "1d00ffff",
  "difficulty": 1,
  "chainwork": "00000000000000000000000000000000000000000000000000001e0c1e0c1e0c",
  "nTx": 1,
  "previousblockhash": "000000004b1fa27917780f6d64899e0c2d5b143ed45e4ab32e428894692f4472",
  "nextblockhash": "0000000078ce9ba26300c4dd5eccd9cb7a2c3fc3be6e585a2d28c49b86f36542",
  "strippedsize": 216,
  "size": 216,
  "weight": 864,
  "tx": [
    {
      "txid": "3ad1486433fdbffe35eb9fff3416f873939e49b9221354e5cbe7da38879ef911",
      "hash": "3ad1486433fdbffe35eb9fff3416f873939e49b9221354e5cbe7da38879ef911",
      "version": 1,
      "size": 135,
      "vsize": 135,
      "weight": 540,
      "locktime": 0,
      "vin": [
        {
          "coinbase": "04ffff001d02f903",
          "sequence": 4294967295
        }
      ],
      "vout": [
        {
          "value": 50.0,
          "n": 0,
          "scriptPubKey": {
            "asm": "0441a2e2a7b2d9153532ad2036948d2510a08cc84ebcc14d52a24ccd79e72552604a9a7ced00f6f1af14d048e55ed4aaad1c40d7eb305363dd612c93a2e80080f9 OP_CHECKSIG",
            "desc": "pk(0441a2e2a7b2d9153532ad2036948d2510a08cc84ebcc14d52a24ccd79e72552604a9a7ced00f6f1af14d048e55ed4aaad1c40d7eb305363dd612c93a2e80080f9)#7d9skeps",
            "hex": "410441a2e2a7b2d9153532ad2036948d2510a08cc84ebcc14d52a24ccd79e72552604a9a7ced00f6f1af14d048e55ed4aaad1c40d7eb305363dd612c93a2e80080f9ac",
            "type": "pubkey"
          }
        }
      ],
      "hex": "01000000010000000000000000000000000000000000000000000000000000000000000000ffffffff0804ffff001d02f903ffffffff0100f2052a0100000043410441a2e2a7b2d9153532ad2036948d2510a08cc84ebcc14d52a24ccd79e72552604a9a7ced00f6f1af14d048e55ed4aaad1c40d7eb305363dd612c93a2e80080f9ac00000000"
    }
  ]
}