{
  "hash": "00000000b9850887a5fd7ba79a6d1194fc43008d2eea05ef63e61d5098ce6575",
  "confirmations": 49911,
  "height": 3187,
  "version": 1,
  "versionHex": "00000001",
  "merkleroot": "37197ce7b707f2b9808aa30dbee10388ce80e3f9c4ad25a5ea6d5c7ca7183a46",
  "time": 1233890974,
  "mediantime": 1233887562,
  "nonce": 3040912436,
  "bits": "1d00ffff",
  "difficulty": 1,
  "chainwork": "00000000000000000000000000000000000000000000000000000c740c740c74",
  "nTx": 1,
  "previousblockhash": "00000000874a9b7e9ba19a983c84d92c5896b6d9a4edce07421422c8e0044895",
  "nextblockhash": "0000000010cbb7b07ff1ee301b25e6eb8c1f7a5e6350c9c6c04ef68618891a05",
  "strippedsize": 216,
  "size": 216,
  "weight": 864,
  "tx": [
    {
      "txid": "37197ce7b707f2b9808aa30dbee10388ce80e3f9c4ad25a5ea6d5c7ca7183a46",
      "hash": "37197ce7b707f2b9808aa30dbee10388ce80e3f9c4ad25a5ea6d5c7ca7183a46",
      "version": 1,
      "size": 135,
      "vsize": 135,
      "weight": 540,
      "locktime": 0,
      "vin": [
        {
          "coinbase": "04ffff001d028202",
          "sequence": 4294967295
        }
      ],
      "vout": [
        {
          "value": 50.0,
          "n": 0,
          "scriptPubKey": {
            "asm": "04d3d18050775536a7f3aaf3f99c28a5f27fd249ebc29581d6dfc206c548cd0fdab60e5351d5f5d46612a97162cf40a5d67ec6b66703092ecd4ba5923bca69644f OP_CHECKSIG",
            "desc": "pk(04d3d18050775536a7f3aaf3f99c28a5f27fd249ebc29581d6dfc206c548cd0fdab60e5351d5f5d46612a97162cf40a5d67ec6b66703092ecd4ba5923bca69644f)#rd3tj2va",
            "hex": "4104d3d18050775536a7f3aaf3f99c28a5f27fd249ebc29581d6dfc206c548cd0fdab60e5351d5f5d46612a97162cf40a5d67ec6b66703092ecd4ba5923bca69644fac",
            "type": "pubkey"
          }
        }
      ],
      "hex": "01000000010000000000000000000000000000000000000000000000000000000000000000ffffffff0804ffff001d028202ffffffff0100f2052a01000000434104d3d18050775536a7f3aaf3f99c28a5f27fd249ebc29581d6dfc206c548cd0fdab60e5351d5f5d46612a97162cf40a5d67ec6b66703092ecd4ba5923bca69644fac00000000"
    }
  ]
}