{
  "hash": "0000000068977b19cd0c97cbb3600f3f10165eac14d6f38c588cb5434ef19458",
  "confirmations": 46724,
  "height": 6374,
  "version": 1,
  "versionHex": "00000001",
  "merkleroot": "26748a69ed21bd6f702d4b257176d512b100524bd089153ce683285f136bc57e",
  "time": 1236236976,
  "mediantime": 1236232241,
  "nonce": 3548737338,
  "bits": "1d00ffff",
  "difficulty": 1,
  "chainwork": "000000000000000000000000000000000000000000000000000018e718e718e7",
  "nTx": 1,
  "previousblockhash": "0000000027482a073a4f97cca991d6702b871a5296f6aa75fb4e41208ea4e881",
  "nextblockhash": "000000005d5e4d1f466de1812ccdb4a62aa368c43b9bd354e13dd2a8878e4b71",
  "strippedsize": 216,
  "size": 216,
  "weight": 864,
  "tx": [
    {
      "txid": "26748a69ed21bd6f702d4b257176d512b100524bd089153ce683285f136bc57e",
      "hash": "26748a69ed21bd6f702d4b257176d512b100524bd089153ce683285f136bc57e",
      "version": 1,
      "size": 135,
      "vsize": 135,
      "weight": 540,
      "locktime": 0,
      "vin": [
        {
          "coinbase": "04ffff001d025501",
          "sequence": 4294967295
        }
      ],
      "vout": [
        {
          "value": 50.0,
          "n": 0,
          "scriptPubKey": {
            "asm": "04980ab4f3ac792c197bed6384a10f42f7d37da1c2737adc9a2b33cbfcbc5abdf006412c079f957f8a150f736c5e11c9a2c2bee6d73399e8cd69b990ce3121f185 OP_CHECKSIG",
            "desc": "pk(04980ab4f3ac792c197bed6384a10f42f7d37da1c2737adc9a2b33cbfcbc5abdf006412c079f957f8a150f736c5e11c9a2c2bee6d73399e8cd69b990ce3121f185)#5ewp7k4g",
            "hex": "4104980ab4f3ac792c197bed6384a10f42f7d37da1c2737adc9a2b33cbfcbc5abdf006412c079f957f8a150f736c5e11c9a2c2bee6d73399e8cd69b990ce3121f185ac",
            "type": "pubkey"
          }
        }
      ],
      "hex": "01000000010000000000000000000000000000000000000000000000000000000000000000ffffffff0804ffff001d025501ffffffff0100f2052a01000000434104980ab4f3ac792c197bed6384a10f42f7d37da1c2737adc9a2b33cbfcbc5abdf006412c079f957f8a150f736c5e11c9a2c2bee6d73399e8cd69b990ce3121f185ac00000000"
    }
  ]
}