{
  "hash": "000000006f5a830dc955c5d3587088a19238fce26169d3c7309c4c7a64b03324",
  "confirmations": 45324,
  "height": 7774,
  "version": 1,
  "versionHex": "00000001",
  "merkleroot": "65b8db0f9e4f4c5621c6dd0e5797abb08ebc65f33df5d75c4b75f71d680dbf41",
  "time": 1237294768,
  "mediantime": 1237292127,
  "nonce": 100995784,
  "bits": "1d00ffff",
  "difficulty": 1,
  "chainwork": "00000000000000000000000000000000000000000000000000001e5f1e5f1e5f",
  "nTx": 1,
  "previousblockhash": "000000009d58fcec66383826c8ecfe88508c1a03d7e4f8f8bdc4bc06a553ed5c",
  "nextblockhash": "000000009d3beae0d6cd970b1dd8a183f7d7797ffea706365c6b300ef4aa72d2",
  "strippedsize": 216,
  "size": 216,
  "weight": 864,
  "tx": [
    {
      "txid": "65b8db0f9e4f4c5621c6dd0e5797abb08ebc65f33df5d75c4b75f71d680dbf41",
      "hash": "65b8db0f9e4f4c5621c6dd0e5797abb08ebc65f33df5d75c4b75f71d680dbf41",
      "version": 1,
      "size": 135,
      "vsize": 135,
      "weight": 540,
      "locktime": 0,
      "vin": [
        {
          "coinbase": "04ffff001d02fd03",
          "sequence": 4294967295
        }
      ],
      "vout": [
        {
          "value": 50.0,
          "n": 0,
          "scriptPubKey": {
            "asm": "043cbfb5514eff2a4c04c4885c597f8e472f496055a786ba216f690bf400d22096628665646be69e89762794795eaf0abc2bba35384bde94e8e4cb27d13db5c990 OP_CHECKSIG",
            "desc": "pk(043cbfb5514eff2a4c04c4885c597f8e472f496055a786ba216f690bf400d22096628665646be69e89762794795eaf0abc2bba35384bde94e8e4cb27d13db5c990)#6w97qnp0",
            "hex": "41043cbfb5514eff2a4c04c4885c597f8e472f496055a786ba216f690bf400d22096628665646be69e89762794795eaf0abc2bba35384bde94e8e4cb27d13db5c990ac",
            "type": "pubkey"
          }
        }
      ],
      "hex": "01000000010000000000000000000000000000000000000000000000000000000000000000ffffffff0804ffff001d02fd03ffffffff0100f2052a010000004341043cbfb5514eff2a4c04c4885c597f8e472f496055a786ba216f690bf400d22096628665646be69e89762794795eaf0abc2bba35384bde94e8e4cb27d13db5c990ac00000000"
    }
  ]
}