{
  "hash": "000000000ceaa2dfa65980f24a79b9986d798722937e5ea341eca4ed6e016dd6",
  "confirmations": 43508,
  "height": 9590,
  "version": 1,
  "versionHex": "00000001",
  "merkleroot": "c2c58235206e84b90c4dee2e198b237b590e8ecc994a8524df5aafc22f2eecd3",
  "time": 1238692839,
  "mediantime": 1238688642,
  "nonce": 3344463148,
  "bits": "1d00ffff",
  "difficulty": 1,
  "chainwork": "0000000000000000000000000000000000000000000000000000257725772577",
  "nTx": 1,
  "previousblockhash": "00000000b60cf3b3402318de47bc87b5a2a89644fbba421d52e8dfaf6cafae5a",
  "nextblockhash": "00000000ce3d29921074f8f2f42fc689b985086aaed696adc8420056862b050d",
  "strippedsize": 216,
  "size": 216,
  "weight": 864,
  "tx": [
    {
      "txid": "c2c58235206e84b90c4dee2e198b237b590e8ecc994a8524df5aafc22f2eecd3",
      "hash": "c2c58235206e84b90c4dee2e198b237b590e8ecc994a8524df5aafc22f2eecd3",
      "version": 1,
      "size": 135,
      "vsize": 135,
      "weight": 540,
      "locktime": 0,
      "vin": [
        {
          "coinbase": "04ffff001d02dc06",
          "sequence": 4294967295
        }
      ],
      "vout": [
        {
          "value": 50.0,
          "n": 0,
          "scriptPubKey": {
            "asm": "04889b28c26cd3997c656c016b91da012d770c41f0ee6168885272e4606bfa741445c94ea012f76171aabc6bc0dc7ce7a54a955661925b9edfcb98de6147e4e6ef OP_CHECKSIG",
            "desc": "pk(04889b28c26cd3997c656c016b91da012d770c41f0ee6168885272e4606bfa741445c94ea012f76171aabc6bc0dc7ce7a54a955661925b9edfcb98de6147e4e6ef)#x6eh86ev",
            "hex": "4104889b28c26cd3997c656c016b91da012d770c41f0ee6168885272e4606bfa741445c94ea012f76171aabc6bc0dc7ce7a54a955661925b9edfcb98de6147e4e6efac",
            "type": "pubkey"
          }
        }
      ],
      "hex": "01000000010000000000000000000000000000000000000000000000000000000000000000ffffffff0804ffff001d02dc06ffffffff0100f2052a01000000434104889b28c26cd3997c656c016b91da012d770c41f0ee6168885272e4606bfa741445c94ea012f76171aabc6bc0dc7ce7a54a955661925b9edfcb98de6147e4e6efac00000000"
    }
  ]
}