{
  "hash": "00000000336e4ea5c4aaf6ab1ca364716f61a80700d3daec209989d8611bf6f6",
  "confirmations": 46317,
  "height": 6781,
  "version": 1,
  "versionHex": "00000001",
  "merkleroot": "efcccc9861acaaa08a34599ef0d6d3dc09d8c635702683ed911b0833a7e0ea3e",
  "time": 1236545144,
  "mediantime": 1236541444,
  "nonce": 349013016,
  "bits": "1d00ffff",
  "difficulty": 1,
  "chainwork": "00000000000000000000000000000000000000000000000000001a7e1a7e1a7e",
  "nTx": 1,
  "previousblockhash": "000000009bcc11b4dd61107e161624fd908a034fe873d665bbf995955d1e8aa5",
  "nextblockhash": "00000000050263108675caf911d5befc890e599ee2ad018bcd1bbccb01daa92d",
  "strippedsize": 216,
  "size": 216,
  "weight": 864,
  "tx": [
    {
      "txid": "efcccc9861acaaa08a34599ef0d6d3dc09d8c635702683ed911b0833a7e0ea3e",
      "hash": "efcccc9861acaaa08a34599ef0d6d3dc09d8c635702683ed911b0833a7e0ea3e",
      "version": 1,
      "size": 135,
      "vsize": 135,
      "weight": 540,
      "locktime": 0,
      "vin": [
        {
          "coinbase": "04ffff001d029008",
          "sequence": 4294967295
        }
      ],
      "vout": [
        {
          "value": 50.0,
          "n": 0,
          "scriptPubKey": {
            "asm": "04d93650d709de4554f02448fa79914b9a3dd12d6a4494a4b8e8eed4fce6a65320481ace3aea7fd2714b3814129eb9c044a1089d317f3dc110940d613842014bd8 OP_CHECKSIG",
            "desc": "pk(04d93650d709de4554f02448fa79914b9a3dd12d6a4494a4b8e8eed4fce6a65320481ace3aea7fd2714b3814129eb9c044a1089d317f3dc110940d613842014bd8)#x0wfkn76",
            "hex": "4104d93650d709de4554f02448fa79914b9a3dd12d6a4494a4b8e8eed4fce6a65320481ace3aea7fd2714b3814129eb9c044a1089d317f3dc110940d613842014bd8ac",
            "type": "pubkey"
          }
        }
      ],
      "hex": "01000000010000000000000000000000000000000000000000000000000000000000000000ffffffff0804ffff001d029008ffffffff0100f2052a01000000434104d93650d709de4554f02448fa79914b9a3dd12d6a4494a4b8e8eed4fce6a65320481ace3aea7fd2714b3814129eb9c044a1089d317f3dc110940d613842014bd8ac00000000"
    }
  ]
}