{
  "hash": "00000000f0ede191e805b52f64c5ebf41adee41a823c8ccda52449d84d49610c",
  "confirmations": 49725,
  "height": 3373,
  "version": 1,
  "versionHex": "00000001",
  "merkleroot": "2d44c4b922691277e7abed730e5588a1e39bbf0baff351759da4e758dac162a9",
  "time": 1234019099,
  "mediantime": 1234015656,
  "nonce": 1784800552,
  "bits": "1d00ffff",
  "difficulty": 1,
  "chainwork": "00000000000000000000000000000000000000000000000000000d2e0d2e0d2e",
  "nTx": 1,
  "previousblockhash": "00000000b66b9de950074a4955c75f08ac47d7052b8e876eef7d2af390e17897",
  "nextblockhash": "000000008d9e2a8a1f67c18dfe6b33e69b9bf682a6f4a9f8ccef70a6a30e9bc2",
  "strippedsize": 216,
  "size": 216,
  "weight": 864,
  "tx": [
    {
      "txid": "2d44c4b922691277e7abed730e5588a1e39bbf0baff351759da4e758dac162a9",
      "hash": "2d44c4b922691277e7abed730e5588a1e39bbf0baff351759da4e758dac162a9",
      "version": 1,
      "size": 135,
      "vsize": 135,
      "weight": 540,
      "locktime": 0,
      "vin": [
        {
          "coinbase": "04ffff001d027105",
          "sequence": 4294967295
        }
      ],
      "vout": [
        {
          "value": 50.0,
          "n": 0,
          "scriptPubKey": {
            "asm": "047a67862c617c0b0fabe1a212cd429b81e3fa7d4a98aeade7a6d98cf0f569e8f8e52c6657a9e07d34d44c8b1a7fcf0b9b811f8a8b496cf5e9a76badf344de57b7 OP_CHECKSIG",
            "desc": "pk(047a67862c617c0b0fabe1a212cd429b81e3fa7d4a98aeade7a6d98cf0f569e8f8e52c6657a9e07d34d44c8b1a7fcf0b9b811f8a8b496cf5e9a76badf344de57b7)#w3fwzyuf",
            "hex": "41047a67862c617c0b0fabe1a212cd429b81e3fa7d4a98aeade7a6d98cf0f569e8f8e52c6657a9e07d34d44c8b1a7fcf0b9b811f8a8b496cf5e9a76badf344de57b7ac",
            "type": "pubkey"
          }
        }
      ],
      "hex": "01000000010000000000000000000000000000000000000000000000000000000000000000ffffffff0804ffff001d027105ffffffff0100f2052a010000004341047a67862c617c0b0fabe1a212cd429b81e3fa7d4a98aeade7a6d98cf0f569e8f8e52c6657a9e07d34d44c8b1a7fcf0b9b811f8a8b496cf5e9a76badf344de57b7ac00000000"
    }
  ]
}