{
  "hash": "0000000033d54f6bc59c7da718bf75fe4073f89990f827dbed01469b976f86c9",
  "confirmations": 47798,
  "height": 5300,
  "version": 1,
  "versionHex": "00000001",
  "merkleroot": "64e412cc379bf77394034b6034d8470616936739a46e93bd528d852d030cd42b",
  "time": 1235363590,
  "mediantime": 1235357681,
  "nonce": 2309402673,
  "bits": "1d00ffff",
  "difficulty": 1,
  "chainwork": "000000000000000000000000000000000000000000000000000014b514b514b5",
  "nTx": 1,
  "previousblockhash": "00000000929fa878ae228c8df06d15f897d2c33e9bafd7932dbe0604c4944ca6",
  "nextblockhash": "0000000011696100810276aa2c187641dfd89e734e1eff851aa9f3cbfa869f09",
  "strippedsize": 216,
  "size": 216,
  "weight": 864,
  "tx": [
    {
      "txid": "64e412cc379bf77394034b6034d8470616936739a46e93bd528d852d030cd42b",
      "hash": "64e412cc379bf77394034b6034d8470616936739a46e93bd528d852d030cd42b",
      "version": 1,
      "size": 135,
      "vsize": 135,
      "weight": 540,
      "locktime": 0,
      "vin": [
        {
          "coinbase": "04ffff001d021402",
          "sequence": 4294967295
        }
      ],
      "vout": [
        {
          "value": 50.0,
          "n": 0,
          "scriptPubKey": {
            "asm": "048b5bd082259dc981eade796766e4d4b26e9eac8f7c3a60923e58ac3f14c262427013ea4238cc69dbea5437013a97c0b50b30c4d814afeb0146f169b774ef31e2 OP_CHECKSIG",
            "desc": "pk(048b5bd082259dc981eade796766e4d4b26e9eac8f7c3a60923e58ac3f14c262427013ea4238cc69dbea5437013a97c0b50b30c4d814afeb0146f169b774ef31e2)#t2y9rrvt",
            "hex": "41048b5bd082259dc981eade796766e4d4b26e9eac8f7c3a60923e58ac3f14c262427013ea4238cc69dbea5437013a97c0b50b30c4d814afeb0146f169b774ef31e2ac",
            "type": "pubkey"
          }
        }
      ],
      "hex": "01000000010000000000000000000000000000000000000000000000000000000000000000ffffffff0804ffff001d021402ffffffff0100f2052a010000004341048b5bd082259dc981eade796766e4d4b26e9eac8f7c3a60923e58ac3f14c262427013ea4238cc69dbea5437013a97c0b50b30c4d814afeb0146f169b774ef31e2ac00000000"
    }
  ]
}