{
  "hash": "000000005027b4df8186a6221dab20522ec47a5c5eb146c3bc56c1429ddd26de",
  "confirmations": 50595,
  "height": 2503,
  "version": 1,
  "versionHex": "00000001",
  "merkleroot": "c84df1eb66695ed7c2bf47dcc84cc8fa7075a6e4dc5cfd7eb5e58ad6964e8a1e",
  "time": 1233421975,
  "mediantime": 1233420885,
  "nonce": 1467648003,
  "bits": "1d00ffff",
  "difficulty": 1,
  "chainwork": "000000000000000000000000000000000000000000000000000009c809c809c8",
  "nTx": 1,
  "previousblockhash": "00000000bb3e241dfd6f79ec7babc1e3395db92200e778d959861c513c1083fb",
  "nextblockhash": "000000009b394bf0aa56f48ab07275e849205f5c6c3985c1b3e5d5aef7b1e002",
  "strippedsize": 216,
  "size": 216,
  "weight": 864,
  "tx": [
    {
      "txid": "c84df1eb66695ed7c2bf47dcc84cc8fa7075a6e4dc5cfd7eb5e58ad6964e8a1e",
      "hash": "c84df1eb66695ed7c2bf47dcc84cc8fa7075a6e4dc5cfd7eb5e58ad6964e8a1e",
      "version": 1,
      "size": 135,
      "vsize": 135,
      "weight": 540,
      "locktime": 0,
      "vin": [
        {
          "coinbase": "04ffff001d022801",
          "sequence": 4294967295
        }
      ],
      "vout": [
        {
          "value": 50.0,
          "n": 0,
          "scriptPubKey": {
            "asm": "0495ee8ab6c3ea580846e87bf43f3e89646ac2e4f077d71cec7d814cff36feb9f9fd1f2932c6b65e47a42e663edb812e5e82d423cfb6abd3eb23a4c2bc70336232 OP_CHECKSIG",
            "desc": "pk(0495ee8ab6c3ea580846e87bf43f3e89646ac2e4f077d71cec7d814cff36feb9f9fd1f2932c6b65e47a42e663edb812e5e82d423cfb6abd3eb23a4c2bc70336232)#s0dx0222",
            "hex": "410495ee8ab6c3ea580846e87bf43f3e89646ac2e4f077d71cec7d814cff36feb9f9fd1f2932c6b65e47a42e663edb812e5e82d423cfb6abd3eb23a4c2bc70336232ac",
            "type": "pubkey"
          }
        }
      ],
      "hex": "01000000010000000000000000000000000000000000000000000000000000000000000000ffffffff0804ffff001d022801ffffffff0100f2052a0100000043410495ee8ab6c3ea580846e87bf43f3e89646ac2e4f077d71cec7d814cff36feb9f9fd1f2932c6b65e47a42e663edb812e5e82d423cfb6abd3eb23a4c2bc70336232ac00000000"
    }
  ]
}