{
  "hash": "00000000b19e3b536ba8550b0be093ebe29d5e1f313cd50999951fe9974e76a8",
  "confirmations": 46809,
  "height": 6289,
  "version": 1,
  "versionHex": "00000001",
  "merkleroot": "b73128ae8ef2242bf9a0b29dc554077a552b68aefa49004f0053cdf46e2eed38",
  "time": 1236161986,
  "mediantime": 1236157297,
  "nonce": 204870320,
  "bits": "1d00ffff",
  "difficulty": 1,
  "chainwork": "0000000000000000000000000000000000000000000000000000189218921892",
  "nTx": 1,
  "previousblockhash": "00000000de774ee17f88201bd17e4a1cfd028dfc01a13d39729d02afebfa73d8",
  "nextblockhash": "00000000a03e9095f0f0785c6502f5d25ba50967bc77ee63ffbdd34cc7045bdd",
  "strippedsize": 216,
  "size": 216,
  "weight": 864,
  "tx": [
    {
      "txid": "b73128ae8ef2242bf9a0b29dc554077a552b68aefa49004f0053cdf46e2eed38",
      "hash": "b73128ae8ef2242bf9a0b29dc554077a552b68aefa49004f0053cdf46e2eed38",
      "version": 1,
      "size": 135,
      "vsize": 135,
      "weight": 540,
      "locktime": 0,
      "vin": [
        {
          "coinbase": "04ffff001d02580a",
          "sequence": 4294967295
        }
      ],
      "vout": [
        {
          "value": 50.0,
          "n": 0,
          "scriptPubKey": {
            "asm": "04123d6c919418eee222f937c55c26cbb74b509053ad0fd4d30e7d9d55b58d78941e8c0179d13e85fd7b7e9e00a0c99bdab00ec1f4ffee48a1e8ab8097ec5d0fd3 OP_CHECKSIG",
            "desc": "pk(04123d6c919418eee222f937c55c26cbb74b509053ad0fd4d30e7d9d55b58d78941e8c0179d13e85fd7b7e9e00a0c99bdab00ec1f4ffee48a1e8ab8097ec5d0fd3)#sh0zd9um",
            "hex": "4104123d6c919418eee222f937c55c26cbb74b509053ad0fd4d30e7d9d55b58d78941e8c0179d13e85fd7b7e9e00a0c99bdab00ec1f4ffee48a1e8ab8097ec5d0fd3ac",
            "type": "pubkey"
          }
        }
      ],
      "hex": "01000000010000000000000000000000000000000000000000000000000000000000000000ffffffff0804ffff001d02580affffffff0100f2052a01000000434104123d6c919418eee222f937c55c26cbb74b509053ad0fd4d30e7d9d55b58d78941e8c0179d13e85fd7b7e9e00a0c99bdab00ec1f4ffee48a1e8ab8097ec5d0fd3ac00000000"
    }
  ]
}