{
  "hash": "000000005291c77fea7e93abaecc93f7afb4ba684ceb855bb3b4f1ee6db25a51",
  "confirmations": 49819,
  "height": 3279,
  "version": 1,
  "versionHex": "00000001",
  "merkleroot": "5bc69d4a6c68b0e15533b86d91314113b3a9fd804f711f37c1109867bfdf0a42",
  "time": 1233955523,
  "mediantime": 1233952877,
  "nonce": 3892854045,
  "bits": "1d00ffff",
  "difficulty": 1,
  "chainwork": "00000000000000000000000000000000000000000000000000000cd00cd00cd0",
  "nTx": 1,
  "previousblockhash": "000000007c6f35c2f9c077f5c1ecf761ce8e8c69223d9d2c6c5eae3e0bc6a699",
  "nextblockhash": "000000006cd8ffb7b7496ec2b01cb251530d8c5a9a7e7ee0fdd1ac0610da6187",
  "strippedsize": 216,
  "size": 216,
  "weight": 864,
  "tx": [
    {
      "txid": "5bc69d4a6c68b0e15533b86d91314113b3a9fd804f711f37c1109867bfdf0a42",
      "hash": "5bc69d4a6c68b0e15533b86d91314113b3a9fd804f711f37c1109867bfdf0a42",
      "version": 1,
      "size": 135,
      "vsize": 135,
      "weight": 540,
      "locktime": 0,
      "vin": [
        {
          "coinbase": "04ffff001d02f103",
          "sequence": 4294967295
        }
      ],
      "vout": [
        {
          "value": 50.0,
          "n": 0,
          "scriptPubKey": {
            "asm": "04cb3c06b37600c1caa8cbe6d9a8549620db5cd428904824a3c4f6f4143e02c1c1f36652310453af9dcb20a4c9556dc88f4c8162de73fc5641134c7d0beedfd450 OP_CHECKSIG",
            "desc": "pk(04cb3c06b37600c1caa8cbe6d9a8549620db5cd428904824a3c4f6f4143e02c1c1f36652310453af9dcb20a4c9556dc88f4c8162de73fc5641134c7d0beedfd450)#ynqs8hj7",
            "hex": "4104cb3c06b37600c1caa8cbe6d9a8549620db5cd428904824a3c4f6f4143e02c1c1f36652310453af9dcb20a4c9556dc88f4c8162de73fc5641134c7d0beedfd450ac",
            "type": "pubkey"
          }
        }
      ],
      "hex": "01000000010000000000000000000000000000000000000000000000000000000000000000ffffffff0804ffff001d02f103ffffffff0100f2052a01000000434104cb3c06b37600c1caa8cbe6d9a8549620db5cd428904824a3c4f6f4143e02c1c1f36652310453af9dcb20a4c9556dc88f4c8162de73fc5641134c7d0beedfd450ac00000000"
    }
  ]
}