{
  "hash": "00000000005ba4f850d0c3bc74a4bcdfa33f72f6becf62276b3a61f1e7ae9207",
  "confirmations": 44234,
  "height": 8864,
  "version": 1,
  "versionHex": "00000001",
  "merkleroot": "29375e974a61fdfe16731044cbced29f4011465ecc85349ba9d7bd057bd8cd67",
  "time": 1238147922,
  "mediantime": 1238143136,
  "nonce": 95716649,
  "bits": "1d00ffff",
  "difficulty": 1,
  "chainwork": "000000000000000000000000000000000000000000000000000022a122a122a1",
  "nTx": 1,
  "previousblockhash": "000000006028fb1be3a7474c94ea83f10905478030457415eb7470f06f007dbd",
  "nextblockhash": "00000000b56a4f049ebbc4313090723ee73235accbb5dc53b72aa61a13b7b35d",
  "strippedsize": 216,
  "size": 216,
  "weight": 864,
  "tx": [
    {
      "txid": "29375e974a61fdfe16731044cbced29f4011465ecc85349ba9d7bd057bd8cd67",
      "hash": "29375e974a61fdfe16731044cbced29f4011465ecc85349ba9d7bd057bd8cd67",
      "version": 1,
      "size": 135,
      "vsize": 135,
      "weight": 540,
      "locktime": 0,
      "vin": [
        {
          "coinbase": "04ffff001d02a504",
          "sequence": 4294967295
        }
      ],
      "vout": [
        {
          "value": 50.0,
          "n": 0,
          "scriptPubKey": {
            "asm": "04fd7a46c357130ef42aa8eb874b9ab2b3ad20dee6b9b92733410ad439af5d2c6d6b4b1b236af229ddcf1f7a192cba5e9427234f77334763b0fa31ed9330c79a78 OP_CHECKSIG",
            "desc": "pk(04fd7a46c357130ef42aa8eb874b9ab2b3ad20dee6b9b92733410ad439af5d2c6d6b4b1b236af229ddcf1f7a192cba5e9427234f77334763b0fa31ed9330c79a78)#0wqwa8jg",
            "hex": "4104fd7a46c357130ef42aa8eb874b9ab2b3ad20dee6b9b92733410ad439af5d2c6d6b4b1b236af229ddcf1f7a192cba5e9427234f77334763b0fa31ed9330c79a78ac",
            "type": "pubkey"
          }
        }
      ],
      "hex": "01000000010000000000000000000000000000000000000000000000000000000000000000ffffffff0804ffff001d02a504ffffffff0100f2052a01000000434104fd7a46c357130ef42aa8eb874b9ab2b3ad20dee6b9b92733410ad439af5d2c6d6b4b1b236af229ddcf1f7a192cba5e9427234f77334763b0fa31ed9330c79a78ac00000000"
    }
  ]
}