{
  "hash": "000000007da822264487e89357fb3be68ceac179430d9cbda4c24358b681c175",
  "confirmations": 52172,
  "height": 926,
  "version": 1,
  "versionHex": "00000001",
  "merkleroot": "749845497284ecf84ad16baa69d342d5c828403a53d5df3dba1d6743ad54db13",
  "time": 1232296490,
  "mediantime": 1232292231,
  "nonce": 2632722983,
  "bits": "1d00ffff",
  "difficulty": 1,
  "chainwork": "0000000000000000000000000000000000000000000000000000039f039f039f",
  "nTx": 1,
  "previousblockhash": "000000006eb930c17bd898fa602fe8e76a3084456baffad70199c3997d32ca2e",
  "nextblockhash": "000000000e959d454587fb93067942e3a18275ca884a6f761475415e9e0048d6",
  "strippedsize": 216,
  "size": 216,
  "weight": 864,
  "tx": [
    {
      "txid": "749845497284ecf84ad16baa69d342d5c828403a53d5df3dba1d6743ad54db13",
      "hash": "749845497284ecf84ad16baa69d342d5c828403a53d5df3dba1d6743ad54db13",
      "version": 1,
      "size": 135,
      "vsize": 135,
      "weight": 540,
      "locktime": 0,
      "vin": [
        {
          "coinbase": "04ffff001d020404",
          "sequence": 4294967295
        }
      ],
      "vout": [
        {
          "value": 50.0,
          "n": 0,
          "scriptPubKey": {
            "asm": "04e08761c14d3ede04813196b3f4aaf0e0d7ce937fbf55713e0dcf28a326b30f80b8d31962c9c0a39ceb8235fc0721a4e902ddbba5d2fb5fd73f9eaa77d9cada76 OP_CHECKSIG",
            "desc": "pk(04e08761c14d3ede04813196b3f4aaf0e0d7ce937fbf55713e0dcf28a326b30f80b8d31962c9c0a39ceb8235fc0721a4e902ddbba5d2fb5fd73f9eaa77d9cada76)#uzs9mh2j",
            "hex": "4104e08761c14d3ede04813196b3f4aaf0e0d7ce937fbf55713e0dcf28a326b30f80b8d31962c9c0a39ceb8235fc0721a4e902ddbba5d2fb5fd73f9eaa77d9cada76ac",
            "type": "pubkey"
          }
        }
      ],
      "hex": "01000000010000000000000000000000000000000000000000000000000000000000000000ffffffff0804ffff001d020404ffffffff0100f2052a01000000434104e08761c14d3ede04813196b3f4aaf0e0d7ce937fbf55713e0dcf28a326b30f80b8d31962c9c0a39ceb8235fc0721a4e902ddbba5d2fb5fd73f9eaa77d9cada76ac00000000"
    }
  ]
}