{
  "hash": "00000000689051c09ff2cd091cc4c22c10b965eb8db3ad5f032621cc36626175",
  "confirmations": 52553,
  "height": 545,
  "version": 1,
  "versionHex": "00000001",
  "merkleroot": "1aa5781b7674714f9557c1c272071dd2ed328e06a1b2529d260780b7d8283019",
  "time": 1231998512,
  "mediantime": 1231995328,
  "nonce": 1211379258,
  "bits": "1d00ffff",
  "difficulty": 1,
  "chainwork": "0000000000000000000000000000000000000000000000000000022202220222",
  "nTx": 2,
  "previousblockhash": "000000002d947997dc957cdf075dd32390f5f754d2656208d5dd82a6620179f5",
  "nextblockhash": "000000005a4ded781e667e06ceefafb71410b511fe0d5adc3e5a27ecbec34ae6",
  "strippedsize": 493,
  "size": 493,
  "weight": 1972,
  "tx": [
    {
      "txid": "c3dbd09da393e0f511c20d40bb61250f6f1e6415b80b294c0f8e3aa4c6e798db",
      "hash": "c3dbd09da393e0f511c20d40bb61250f6f1e6415b80b294c0f8e3aa4c6e798db",
      "version": 1,
      "size": 135,
      "vsize": 135,
      "weight": 540,
      "locktime": 0,
      "vin": [
        {
          "coinbase": "04ffff001d027c05",
          "sequence": 4294967295
        }
      ],
      "vout": [
        {
          "value": 50.0,
          "n": 0,
          "scriptPubKey": {
            "asm": "04b43bb206b71f34e2fab9359b156ff683bed889021a06c315722a7c936b9743ad88a8882dc13eecafcdad4f082d2d0cc54aa177204f79dc7305f1f4857b7b8802 OP_CHECKSIG",
            "desc": "pk(04b43bb206b71f34e2fab9359b156ff683bed889021a06c315722a7c936b9743ad88a8882dc13eecafcdad4f082d2d0cc54aa177204f79dc7305f1f4857b7b8802)#6a3deyp6",
            "hex": "4104b43bb206b71f34e2fab9359b156ff683bed889021a06c315722a7c936b9743ad88a8882dc13eecafcdad4f082d2d0cc54aa177204f79dc7305f1f4857b7b8802ac",
            "type": "pubkey"
          }
        }
      ],
      "hex": "01000000010000000000000000000000000000000000000000000000000000000000000000ffffffff0804ffff001d027c05ffffffff0100f2052a01000000434104b43bb206b71f34e2fab9359b156ff683bed889021a06c315722a7c936b9743ad88a8882dc13eecafcdad4f082d2d0cc54aa177204f79dc7305f1f4857b7b8802ac00000000"
    },
    {
      "txid": "35288d269cee1941eaebb2ea85e32b42cdb2b04284a56d8b14dcc3f5c65d6055",
      "hash": "35288d269cee1941eaebb2ea85e32b42cdb2b04284a56d8b14dcc3f5c65d6055",
      "version": 1,
      "size": 277,
      "vsize": 277,
      "weight": 1108,
      "locktime": 0,
      "vin": [
        {
          "txid": "d71fd2f64c0b34465b7518d240c00e83f6a5b10138a7079d1252858fe7e6b577",
          "vout": 0,
          "scriptSig": {
            "asm": "304602210083ec8bd391269f00f3d714a54f4dbd6b8004b3e9c91f3078ff4fca42da456f4d0221008dfe1450870a717f59a494b77b36b7884381233555f8439dac4ea969977dd3f4[ALL]",
            "hex": "49304602210083ec8bd391269f00f3d714a54f4dbd6b8004b3e9c91f3078ff4fca42da456f4d0221008dfe1450870a717f59a494b77b36b7884381233555f8439dac4ea969977dd3f401"
          },
          "sequence": 4294967295
        }
      ],
      "vout": [
        {
          "value": 1.0,
          "n": 0,
          "scriptPubKey": {
            "asm": "044a656f065871a353f216ca26cef8dde2f03e8c16202d2e8ad769f02032cb86a5eb5e56842e92e19141d60a01928f8dd2c875a390f67c1f6c94cfc617c0ea45af OP_CHECKSIG",
            "desc": "pk(044a656f065871a353f216ca26cef8dde2f03e8c16202d2e8ad769f02032cb86a5eb5e56842e92e19141d60a01928f8dd2c875a390f67c1f6c94cfc617c0ea45af)#zm987h72",
            "hex": "41044a656f065871a353f216ca26cef8dde2f03e8c16202d2e8ad769f02032cb86a5eb5e56842e92e19141d60a01928f8dd2c875a390f67c1f6c94cfc617c0ea45afac",
            "type": "pubkey"
          }
        },
        {
          "value": 24.0,
          "n": 1,
          "scriptPubKey": {
            "asm": "04f36c67039006ec4ed2c885d7ab0763feb5deb9633cf63841474712e4cf0459356750185fc9d962d0f4a1e08e1a84f0c9a9f826ad067675403c19d752530492dc OP_CHECKSIG",
            "desc": "pk(04f36c67039006ec4ed2c885d7ab0763feb5deb9633cf63841474712e4cf0459356750185fc9d962d0f4a1e08e1a84f0c9a9f826ad067675403c19d752530492dc)#99n0ml35",
            "hex": "4104f36c67039006ec4ed2c885d7ab0763feb5deb9633cf63841474712e4cf0459356750185fc9d962d0f4a1e08e1a84f0c9a9f826ad067675403c19d752530492dcac",
            "type": "pubkey"
          }
        }
      ],
      "fee": 0.0,
      "hex": "010000000177b5e6e78f8552129d07a73801b1a5f6830ec040d218755b46340b4cf6d21fd7000000004a49304602210083ec8bd391269f00f3d714a54f4dbd6b8004b3e9c91f3078ff4fca42da456f4d0221008dfe1450870a717f59a494b77b36b7884381233555f8439dac4ea969977dd3f401ffffffff0200e1f505000000004341044a656f065871a353f216ca26cef8dde2f03e8c16202d2e8ad769f02032cb86a5eb5e56842e92e19141d60a01928f8dd2c875a390f67c1f6c94cfc617c0ea45afac00180d8f00000000434104f36c67039006ec4ed2c885d7ab0763feb5deb9633cf63841474712e4cf0459356750185fc9d962d0f4a1e08e1a84f0c9a9f826ad067675403c19d752530492dcac00000000"
    }
  ]
}