{
  "hash": "00000000c9e31abb95f10e3da098f903ab658cb2650eb071282b03f8082fbf60",
  "confirmations": 43344,
  "height": 9754,
  "version": 1,
  "versionHex": "00000001",
  "merkleroot": "c6923bd7b8d21e80a8c611d907742ceba381f7ff76b17569d098d195f59941fb",
  "time": 1238819893,
  "mediantime": 1238814733,
  "nonce": 818981172,
  "bits": "1d00ffff",
  "difficulty": 1,
  "chainwork": "0000000000000000000000000000000000000000000000000000261b261b261b",
  "nTx": 1,
  "previousblockhash": "0000000024242b7be82e18bd0876367df92004b369fc59dee3a99a451635b74b",
  "nextblockhash": "00000000e2784200286121758beef4e8d0e279d6056ff648efa3c9470756619d",
  "strippedsize": 216,
  "size": 216,
  "weight": 864,
  "tx": [
    {
      "txid": "c6923bd7b8d21e80a8c611d907742ceba381f7ff76b17569d098d195f59941fb",
      "hash": "c6923bd7b8d21e80a8c611d907742ceba381f7ff76b17569d098d195f59941fb",
      "version": 1,
      "size": 135,
      "vsize": 135,
      "weight": 540,
      "locktime": 0,
      "vin": [
        {
          "coinbase": "04ffff001d02d109",
          "sequence": 4294967295
        }
      ],
      "vout": [
        {
          "value": 50.0,
          "n": 0,
          "scriptPubKey": {
            "asm": "04414df48643887ffc59333bac89ccfa693688f2e39fa9ff842910668d7128d73539e4bcf146d796aafb0868ee0f62c73f33e01a8c20d029845722a5fc4e64e14c OP_CHECKSIG",
            "desc": "pk(04414df48643887ffc59333bac89ccfa693688f2e39fa9ff842910668d7128d73539e4bcf146d796aafb0868ee0f62c73f33e01a8c20d029845722a5fc4e64e14c)#5mrmj0cd",
            "hex": "4104414df48643887ffc59333bac89ccfa693688f2e39fa9ff842910668d7128d73539e4bcf146d796aafb0868ee0f62c73f33e01a8c20d029845722a5fc4e64e14cac",
            "type": "pubkey"
          }
        }
      ],
      "hex": "01000000010000000000000000000000000000000000000000000000000000000000000000ffffffff0804ffff001d02d109ffffffff0100f2052a01000000434104414df48643887ffc59333bac89ccfa693688f2e39fa9ff842910668d7128d73539e4bcf146d796aafb0868ee0f62c73f33e01a8c20d029845722a5fc4e64e14cac00000000"
    }
  ]
}