{
  "hash": "000000007f7cbc93a93141bb69eb7fbfad9c4682cc328da097dbcb2b77bd1457",
  "confirmations": 51915,
  "height": 71,
  "version": 1,
  "versionHex": "00000001",
  "merkleroot": "fd83acf6e35be34a654ae53fbdc43ae4a7c4e1bcc334064a6360bf6b32339fcb",
  "time": 1231628459,
  "mediantime": 1231625020,
  "nonce": 1190286374,
  "bits": "1d00ffff",
  "difficulty": 1,
  "chainwork": "0000000000000000000000000000000000000000000000000000004800480048",
  "nTx": 1,
  "previousblockhash": "00000000ba63ae2eeb3d2371708291b90507c3317ef957f6fcba3811cc4fe0cc",
  "nextblockhash": "0000000082c0abb2875dc690a243dce6cbc856647b6422abbe82f97a3a7b127a",
  "strippedsize": 216,
  "size": 216,
  "weight": 864,
  "tx": [
    {
      "txid": "fd83acf6e35be34a654ae53fbdc43ae4a7c4e1bcc334064a6360bf6b32339fcb",
      "hash": "fd83acf6e35be34a654ae53fbdc43ae4a7c4e1bcc334064a6360bf6b32339fcb",
      "version": 1,
      "size": 135,
      "vsize": 135,
      "weight": 540,
      "locktime": 0,
      "vin": [
        {
          "coinbase": "04ffff001d02c600",
          "sequence": 4294967295
        }
      ],
      "vout": [
        {
          "value": 50.0,
          "n": 0,
          "scriptPubKey": {
            "asm": "0439fc9a6971cd37f858dca09e85506cddf42ceba231d3a53960bc8b6ca73d98c4785ff33a7c24f5de6a251381c87fdc104867df420495b7d93d39861cf5238c36 OP_CHECKSIG",
            "desc": "pk(0439fc9a6971cd37f858dca09e85506cddf42ceba231d3a53960bc8b6ca73d98c4785ff33a7c24f5de6a251381c87fdc104867df420495b7d93d39861cf5238c36)#yzdng3a3",
            "hex": "410439fc9a6971cd37f858dca09e85506cddf42ceba231d3a53960bc8b6ca73d98c4785ff33a7c24f5de6a251381c87fdc104867df420495b7d93d39861cf5238c36ac",
            "type": "pubkey"
          }
        }
      ],
      "hex": "01000000010000000000000000000000000000000000000000000000000000000000000000ffffffff0804ffff001d02c600ffffffff0100f2052a0100000043410439fc9a6971cd37f858dca09e85506cddf42ceba231d3a53960bc8b6ca73d98c4785ff33a7c24f5de6a251381c87fdc104867df420495b7d93d39861cf5238c36ac00000000"
    }
  ]
}