{
  "hash": "00000000d1c1ea2f48c97ee9c31d533e604a65e1d32b00167cde4bfe39a7b714",
  "confirmations": 46365,
  "height": 6733,
  "version": 1,
  "versionHex": "00000001",
  "merkleroot": "a1d9eabda1502f493262c29e3c56f5768b6319bcb604943ae198062eb065ef8c",
  "time": 1236506241,
  "mediantime": 1236502041,
  "nonce": 2952358692,
  "bits": "1d00ffff",
  "difficulty": 1,
  "chainwork": "00000000000000000000000000000000000000000000000000001a4e1a4e1a4e",
  "nTx": 1,
  "previousblockhash": "0000000082071efed90bf22339edeba39516ec9a06ed3eca7133c78e6a0c29bd",
  "nextblockhash": "00000000bb38c0320408e87cc0f84b8545273e48dd7e0c19aa50abe7c1818b81",
  "strippedsize": 216,
  "size": 216,
  "weight": 864,
  "tx": [
    {
      "txid": "a1d9eabda1502f493262c29e3c56f5768b6319bcb604943ae198062eb065ef8c",
      "hash": "a1d9eabda1502f493262c29e3c56f5768b6319bcb604943ae198062eb065ef8c",
      "version": 1,
      "size": 135,
      "vsize": 135,
      "weight": 540,
      "locktime": 0,
      "vin": [
        {
          "coinbase": "04ffff001d02c007",
          "sequence": 4294967295
        }
      ],
      "vout": [
        {
          "value": 50.0,
          "n": 0,
          "scriptPubKey": {
            "asm": "04b37b845bd288da370f1319512ac58c03e892fa6009c859558b29c4785b433bcf0a1fb4ac00630bf92ff782a6144cacd56686dcecb433c18e63084ad4aa6c2a73 OP_CHECKSIG",
            "desc": "pk(04b37b845bd288da370f1319512ac58c03e892fa6009c859558b29c4785b433bcf0a1fb4ac00630bf92ff782a6144cacd56686dcecb433c18e63084ad4aa6c2a73)#whm4cqll",
            "hex": "4104b37b845bd288da370f1319512ac58c03e892fa6009c859558b29c4785b433bcf0a1fb4ac00630bf92ff782a6144cacd56686dcecb433c18e63084ad4aa6c2a73ac",
            "type": "pubkey"
          }
        }
      ],
      "hex": "01000000010000000000000000000000000000000000000000000000000000000000000000ffffffff0804ffff001d02c007ffffffff0100f2052a01000000434104b37b845bd288da370f1319512ac58c03e892fa6009c859558b29c4785b433bcf0a1fb4ac00630bf92ff782a6144cacd56686dcecb433c18e63084ad4aa6c2a73ac00000000"
    }
  ]
}