{
  "hash": "000000001b757be67a9db68ea0554bef347197dba9b98644d4bda071e055f021",
  "confirmations": 46042,
  "height": 7056,
  "version": 1,
  "versionHex": "00000001",
  "merkleroot": "ec53462c16ba45291af4717dd585ab37fd2006fb0303dcc7717fe47603367a3f",
  "time": 1236761751,
  "mediantime": 1236759474,
  "nonce": 322343968,
  "bits": "1d00ffff",
  "difficulty": 1,
  "chainwork": "00000000000000000000000000000000000000000000000000001b911b911b91",
  "nTx": 1,
  "previousblockhash": "000000001b6ac244a631ce8e23bc0bc3fe4ef889d6f3642e53fb2a80add5169e",
  "nextblockhash": "00000000333f5127071366020e74466a47cae8ce19784dbaba976d7aa7d11819",
  "strippedsize": 215,
  "size": 215,
  "weight": 860,
  "tx": [
    {
      "txid": "ec53462c16ba45291af4717dd585ab37fd2006fb0303dcc7717fe47603367a3f",
      "hash": "ec53462c16ba45291af4717dd585ab37fd2006fb0303dcc7717fe47603367a3f",
      "version": 1,
      "size": 134,
      "vsize": 134,
      "weight": 536,
      "locktime": 0,
      "vin": [
        {
          "coinbase": "04ffff001d010c",
          "sequence": 4294967295
        }
      ],
      "vout": [
        {
          "value": 50.0,
          "n": 0,
          "scriptPubKey": {
            "asm": "04b395092a2d2eb18621c7d8c66ce411c7341024b2ccfcbcedc5054d0eb257661f6a3158aeaf17d9253822c92734b1d543f8e247093c1658cea32a3bd0c50f1204 OP_CHECKSIG",
            "desc": "pk(04b395092a2d2eb18621c7d8c66ce411c7341024b2ccfcbcedc5054d0eb257661f6a3158aeaf17d9253822c92734b1d543f8e247093c1658cea32a3bd0c50f1204)#9ucj9jsh",
            "hex": "4104b395092a2d2eb18621c7d8c66ce411c7341024b2ccfcbcedc5054d0eb257661f6a3158aeaf17d9253822c92734b1d543f8e247093c1658cea32a3bd0c50f1204ac",
            "type": "pubkey"
          }
        }
      ],
      "hex": "01000000010000000000000000000000000000000000000000000000000000000000000000ffffffff0704ffff001d010cffffffff0100f2052a01000000434104b395092a2d2eb18621c7d8c66ce411c7341024b2ccfcbcedc5054d0eb257661f6a3158aeaf17d9253822c92734b1d543f8e247093c1658cea32a3bd0c50f1204ac00000000"
    }
  ]
}