{
  "hash": "00000000a2c8ede8616565cf6900e5bea3b4f29734b88c31c06462b6327f87b3",
  "confirmations": 51104,
  "height": 1994,
  "version": 1,
  "versionHex": "00000001",
  "merkleroot": "76bdfe46519173029a12ad1a892627d14b53a2aac332e6bb5d90231dd4cec2fc",
  "time": 1233041720,
  "mediantime": 1233037179,
  "nonce": 1776198198,
  "bits": "1d00ffff",
  "difficulty": 1,
  "chainwork": "000000000000000000000000000000000000000000000000000007cb07cb07cb",
  "nTx": 1,
  "previousblockhash": "00000000bfebb625430b6483c7f19d2886d1970cda683971fcccca292cc9b7f6",
  "nextblockhash": "00000000379bf01707cf13f4e35dd30493b254508937f7d6b4fcb35948b9afbc",
  "strippedsize": 216,
  "size": 216,
  "weight": 864,
  "tx": [
    {
      "txid": "76bdfe46519173029a12ad1a892627d14b53a2aac332e6bb5d90231dd4cec2fc",
      "hash": "76bdfe46519173029a12ad1a892627d14b53a2aac332e6bb5d90231dd4cec2fc",
      "version": 1,
      "size": 135,
      "vsize": 135,
      "weight": 540,
      "locktime": 0,
      "vin": [
        {
          "coinbase": "04ffff001d027e01",
          "sequence": 4294967295
        }
      ],
      "vout": [
        {
          "value": 50.0,
          "n": 0,
          "scriptPubKey": {
            "asm": "043278b407a65d77c0f6e8e6d1541a05550634dd89709239dfdc0fcb35457631e8e96ebe63b59dce50117cb2f51c99038e2b507e8135b4b1568b45e13c1bf9bf7a OP_CHECKSIG",
            "desc": "pk(043278b407a65d77c0f6e8e6d1541a05550634dd89709239dfdc0fcb35457631e8e96ebe63b59dce50117cb2f51c99038e2b507e8135b4b1568b45e13c1bf9bf7a)#gljkxuh2",
            "hex": "41043278b407a65d77c0f6e8e6d1541a05550634dd89709239dfdc0fcb35457631e8e96ebe63b59dce50117cb2f51c99038e2b507e8135b4b1568b45e13c1bf9bf7aac",
            "type": "pubkey"
          }
        }
      ],
      "hex": "01000000010000000000000000000000000000000000000000000000000000000000000000ffffffff0804ffff001d027e01ffffffff0100f2052a010000004341043278b407a65d77c0f6e8e6d1541a05550634dd89709239dfdc0fcb35457631e8e96ebe63b59dce50117cb2f51c99038e2b507e8135b4b1568b45e13c1bf9bf7aac00000000"
    }
  ]
}