{
  "hash": "000000002d2e2c744dcad27e34b5674ce03194451fc82d34d0b114aea1c8e823",
  "confirmations": 48091,
  "height": 5007,
  "version": 1,
  "versionHex": "00000001",
  "merkleroot": "f215f06d2bc67cd7bc57bdecd91c2d3bc2d4160a9af23a81f094c9fe0cf2629d",
  "time": 1235141256,
  "mediantime": 1235137929,
  "nonce": 1783198,
  "bits": "1d00ffff",
  "difficulty": 1,
  "chainwork": "0000000000000000000000000000000000000000000000000000139013901390",
  "nTx": 1,
  "previousblockhash": "000000009445629e5662b81815da26b0cdfa65c54f9b64378ab2a3d501087438",
  "nextblockhash": "00000000b3d4db87a344aa8294146ea5dccace239800c314a757a8595c5eac9f",
  "strippedsize": 215,
  "size": 215,
  "weight": 860,
  "tx": [
    {
      "txid": "f215f06d2bc67cd7bc57bdecd91c2d3bc2d4160a9af23a81f094c9fe0cf2629d",
      "hash": "f215f06d2bc67cd7bc57bdecd91c2d3bc2d4160a9af23a81f094c9fe0cf2629d",
      "version": 1,
      "size": 134,
      "vsize": 134,
      "weight": 536,
      "locktime": 0,
      "vin": [
        {
          "coinbase": "04ffff001d0110",
          "sequence": 4294967295
        }
      ],
      "vout": [
        {
          "value": 50.0,
          "n": 0,
          "scriptPubKey": {
            "asm": "04665cf6de4fe016d2749629fcb14f2f97528ea2a21ef433a24ee2e1b11a2a5a0511635a836e640b373f5f873aee3a7d6054b9b1b02a52b811c8147bbb1afa2b4a OP_CHECKSIG",
            "desc": "pk(04665cf6de4fe016d2749629fcb14f2f97528ea2a21ef433a24ee2e1b11a2a5a0511635a836e640b373f5f873aee3a7d6054b9b1b02a52b811c8147bbb1afa2b4a)#a64jt94l",
            "hex": "4104665cf6de4fe016d2749629fcb14f2f97528ea2a21ef433a24ee2e1b11a2a5a0511635a836e640b373f5f873aee3a7d6054b9b1b02a52b811c8147bbb1afa2b4aac",
            "type": "pubkey"
          }
        }
      ],
      "hex": "01000000010000000000000000000000000000000000000000000000000000000000000000ffffffff0704ffff001d0110ffffffff0100f2052a01000000434104665cf6de4fe016d2749629fcb14f2f97528ea2a21ef433a24ee2e1b11a2a5a0511635a836e640b373f5f873aee3a7d6054b9b1b02a52b811c8147bbb1afa2b4aac00000000"
    }
  ]
}