{
  "hash": "00000000e7c3d98b85bb7a6699fa88085a946f3d749510a5f19ea137f3b324cc",
  "confirmations": 52051,
  "height": 1047,
  "version": 1,
  "versionHex": "00000001",
  "merkleroot": "23a9b84f76569569185cf93d74d6ba28dbe8f7629bb9e2659847b5edf96d04d8",
  "time": 1232385004,
  "mediantime": 1232380348,
  "nonce": 3997662493,
  "bits": "1d00ffff",
  "difficulty": 1,
  "chainwork": "0000000000000000000000000000000000000000000000000000041804180418",
  "nTx": 1,
  "previousblockhash": "00000000b1d92d801eb3385f605ddcb314bf3d2cdd94940dd47f6585f41fb749",
  "nextblockhash": "00000000c3ef87a393c796f421783d69a184367b222c226dd521232ab3a54472",
  "strippedsize": 216,
  "size": 216,
  "weight": 864,
  "tx": [
    {
      "txid": "23a9b84f76569569185cf93d74d6ba28dbe8f7629bb9e2659847b5edf96d04d8",
      "hash": "23a9b84f76569569185cf93d74d6ba28dbe8f7629bb9e2659847b5edf96d04d8",
      "version": 1,
      "size": 135,
      "vsize": 135,
      "weight": 540,
      "locktime": 0,
      "vin": [
        {
          "coinbase": "04ffff001d02fb05",
          "sequence": 4294967295
        }
      ],
      "vout": [
        {
          "value": 50.0,
          "n": 0,
          "scriptPubKey": {
            "asm": "04598c21d86959f5971cefe3a7bc4f7ba9ccb9c9884349b6afcdc86e6f877438e88b23ef4c8dc99b17e7b211bdc2b1f9b2b8d0b857c8a777d9a4b8f50c7978d07b OP_CHECKSIG",
            "desc": "pk(04598c21d86959f5971cefe3a7bc4f7ba9ccb9c9884349b6afcdc86e6f877438e88b23ef4c8dc99b17e7b211bdc2b1f9b2b8d0b857c8a777d9a4b8f50c7978d07b)#p374dgct",
            "hex": "4104598c21d86959f5971cefe3a7bc4f7ba9ccb9c9884349b6afcdc86e6f877438e88b23ef4c8dc99b17e7b211bdc2b1f9b2b8d0b857c8a777d9a4b8f50c7978d07bac",
            "type": "pubkey"
          }
        }
      ],
      "hex": "01000000010000000000000000000000000000000000000000000000000000000000000000ffffffff0804ffff001d02fb05ffffffff0100f2052a01000000434104598c21d86959f5971cefe3a7bc4f7ba9ccb9c9884349b6afcdc86e6f877438e88b23ef4c8dc99b17e7b211bdc2b1f9b2b8d0b857c8a777d9a4b8f50c7978d07bac00000000"
    }
  ]
}