{
  "hash": "0000000013b3939396548fff0d8d0db387eab5a521450fd9005f5f3649f2b1f3",
  "confirmations": 45590,
  "height": 7508,
  "version": 1,
  "versionHex": "00000001",
  "merkleroot": "1adcc95320d9dd61463fb1691b542070259c64f3d7e30d35fde171e01c8615e9",
  "time": 1237102142,
  "mediantime": 1237099552,
  "nonce": 39438066,
  "bits": "1d00ffff",
  "difficulty": 1,
  "chainwork": "00000000000000000000000000000000000000000000000000001d551d551d55",
  "nTx": 1,
  "previousblockhash": "00000000e30e5f03da17b2d0a09237a7affb011f0708506e2ce1f1900d3ccd35",
  "nextblockhash": "000000001077ff57326a9db6c542341dbee72b00a2db5c139e1cca67b587fe0c",
  "strippedsize": 216,
  "size": 216,
  "weight": 864,
  "tx": [
    {
      "txid": "1adcc95320d9dd61463fb1691b542070259c64f3d7e30d35fde171e01c8615e9",
      "hash": "1adcc95320d9dd61463fb1691b542070259c64f3d7e30d35fde171e01c8615e9",
      "version": 1,
      "size": 135,
      "vsize": 135,
      "weight": 540,
      "locktime": 0,
      "vin": [
        {
          "coinbase": "04ffff001d020408",
          "sequence": 4294967295
        }
      ],
      "vout": [
        {
          "value": 50.0,
          "n": 0,
          "scriptPubKey": {
            "asm": "040e060ddb172754990434ae584b1b17b9d472ee3d00b9b2590155fa21501cd0965733996dd4b7c088132b04a6ce6bed8103e5633300afe8aca4d8eb28c834f0eb OP_CHECKSIG",
            "desc": "pk(040e060ddb172754990434ae584b1b17b9d472ee3d00b9b2590155fa21501cd0965733996dd4b7c088132b04a6ce6bed8103e5633300afe8aca4d8eb28c834f0eb)#fduxf3ex",
            "hex": "41040e060ddb172754990434ae584b1b17b9d472ee3d00b9b2590155fa21501cd0965733996dd4b7c088132b04a6ce6bed8103e5633300afe8aca4d8eb28c834f0ebac",
            "type": "pubkey"
          }
        }
      ],
      "hex": "01000000010000000000000000000000000000000000000000000000000000000000000000ffffffff0804ffff001d020408ffffffff0100f2052a010000004341040e060ddb172754990434ae584b1b17b9d472ee3d00b9b2590155fa21501cd0965733996dd4b7c088132b04a6ce6bed8103e5633300afe8aca4d8eb28c834f0ebac00000000"
    }
  ]
}