{
  "hash": "00000000ae89774f82991c356cadcf0e8767dd6f47f4c25dceda948e6e160676",
  "confirmations": 47604,
  "height": 5494,
  "version": 1,
  "versionHex": "00000001",
  "merkleroot": "f74e02faa89b3795020382b2dc45b814bd2faa66844a3acd4050bba5ec0f2e05",
  "time": 1235516607,
  "mediantime": 1235511291,
  "nonce": 2010264835,
  "bits": "1d00ffff",
  "difficulty": 1,
  "chainwork": "0000000000000000000000000000000000000000000000000000157715771577",
  "nTx": 1,
  "previousblockhash": "0000000002d0fcaef119d4548758959127b52cdb34d52a81293cdd2030f6e67a",
  "nextblockhash": "00000000dbd440eca4c5110d78f0f10ab9ef037dafcd06cb50ff483c9d7345f4",
  "strippedsize": 216,
  "size": 216,
  "weight": 864,
  "tx": [
    {
      "txid": "f74e02faa89b3795020382b2dc45b814bd2faa66844a3acd4050bba5ec0f2e05",
      "hash": "f74e02faa89b3795020382b2dc45b814bd2faa66844a3acd4050bba5ec0f2e05",
      "version": 1,
      "size": 135,
      "vsize": 135,
      "weight": 540,
      "locktime": 0,
      "vin": [
        {
          "coinbase": "04ffff001d027c05",
          "sequence": 4294967295
        }
      ],
      "vout": [
        {
          "value": 50.0,
          "n": 0,
          "scriptPubKey": {
            "asm": "04b2da0bcc812beba6bbee6f587ad142624ec657b66926a981a386c7827f989ac99c421fd257044109552d8e5437be8f699a8c3eafcf2122b286510b27950545df OP_CHECKSIG",
            "desc": "pk(04b2da0bcc812beba6bbee6f587ad142624ec657b66926a981a386c7827f989ac99c421fd257044109552d8e5437be8f699a8c3eafcf2122b286510b27950545df)#mjn6dfw8",
            "hex": "4104b2da0bcc812beba6bbee6f587ad142624ec657b66926a981a386c7827f989ac99c421fd257044109552d8e5437be8f699a8c3eafcf2122b286510b27950545dfac",
            "type": "pubkey"
          }
        }
      ],
      "hex": "01000000010000000000000000000000000000000000000000000000000000000000000000ffffffff0804ffff001d027c05ffffffff0100f2052a01000000434104b2da0bcc812beba6bbee6f587ad142624ec657b66926a981a386c7827f989ac99c421fd257044109552d8e5437be8f699a8c3eafcf2122b286510b27950545dfac00000000"
    }
  ]
}