{
  "hash": "0000000045ddcaf83e2dceb3d542c15bd0e6fea78dd814a5c683f2dfdbd58fe5",
  "confirmations": 43496,
  "height": 9602,
  "version": 1,
  "versionHex": "00000001",
  "merkleroot": "4125eedb04454ceb332c8e9bb1e0e3eb4ee33ef00910adc1240149cf2ee40ea3",
  "time": 1238702608,
  "mediantime": 1238698085,
  "nonce": 3007547953,
  "bits": "1d00ffff",
  "difficulty": 1,
  "chainwork": "0000000000000000000000000000000000000000000000000000258325832583",
  "nTx": 1,
  "previousblockhash": "00000000cad779b7ff1028ba66f4216ae112ea9a5e7ea26f109480887e3ff5c6",
  "nextblockhash": "0000000013d5e7718cc000c9663ba96ee043f057bb36abb7850c083afd68506b",
  "strippedsize": 216,
  "size": 216,
  "weight": 864,
  "tx": [
    {
      "txid": "4125eedb04454ceb332c8e9bb1e0e3eb4ee33ef00910adc1240149cf2ee40ea3",
      "hash": "4125eedb04454ceb332c8e9bb1e0e3eb4ee33ef00910adc1240149cf2ee40ea3",
      "version": 1,
      "size": 135,
      "vsize": 135,
      "weight": 540,
      "locktime": 0,
      "vin": [
        {
          "coinbase": "04ffff001d021c07",
          "sequence": 4294967295
        }
      ],
      "vout": [
        {
          "value": 50.0,
          "n": 0,
          "scriptPubKey": {
            "asm": "04054d980a1f5e81ad4d813c01d4194d5a66d2b6972a6136e8bdb53d91995d0c9abe5996079b3f0a6c7327c3a5e2bd00196c6b6144af4a58968da8442604c7c171 OP_CHECKSIG",
            "desc": "pk(04054d980a1f5e81ad4d813c01d4194d5a66d2b6972a6136e8bdb53d91995d0c9abe5996079b3f0a6c7327c3a5e2bd00196c6b6144af4a58968da8442604c7c171)#wxms8z26",
            "hex": "4104054d980a1f5e81ad4d813c01d4194d5a66d2b6972a6136e8bdb53d91995d0c9abe5996079b3f0a6c7327c3a5e2bd00196c6b6144af4a58968da8442604c7c171ac",
            "type": "pubkey"
          }
        }
      ],
      "hex": "01000000010000000000000000000000000000000000000000000000000000000000000000ffffffff0804ffff001d021c07ffffffff0100f2052a01000000434104054d980a1f5e81ad4d813c01d4194d5a66d2b6972a6136e8bdb53d91995d0c9abe5996079b3f0a6c7327c3a5e2bd00196c6b6144af4a58968da8442604c7c171ac00000000"
    }
  ]
}