{
  "hash": "00000000ed745602d4ea9f2b5a899e2d9754bf540912a3ba10961349945bf032",
  "confirmations": 48214,
  "height": 4884,
  "version": 1,
  "versionHex": "00000001",
  "merkleroot": "d11c859dd762a667f893d3dfd1df3c4bd52a5e3e47b89e42976a33186f17828d",
  "time": 1235060461,
  "mediantime": 1235057493,
  "nonce": 2232370441,
  "bits": "1d00ffff",
  "difficulty": 1,
  "chainwork": "0000000000000000000000000000000000000000000000000000131513151315",
  "nTx": 1,
  "previousblockhash": "00000000f822d57849aa0b9c19575c425c37b2f8d97c5111b0d60b069bf9b8a4",
  "nextblockhash": "0000000092d836c8cedbab7c4ea9f63b0e63261cc7566d488aafcd4c200063fa",
  "strippedsize": 216,
  "size": 216,
  "weight": 864,
  "tx": [
    {
      "txid": "d11c859dd762a667f893d3dfd1df3c4bd52a5e3e47b89e42976a33186f17828d",
      "hash": "d11c859dd762a667f893d3dfd1df3c4bd52a5e3e47b89e42976a33186f17828d",
      "version": 1,
      "size": 135,
      "vsize": 135,
      "weight": 540,
      "locktime": 0,
      "vin": [
        {
          "coinbase": "04ffff001d027905",
          "sequence": 4294967295
        }
      ],
      "vout": [
        {
          "value": 50.0,
          "n": 0,
          "scriptPubKey": {
            "asm": "04a5fd6df5c2f97058566514b3258b4f1e4f69537a965e05a28e708c29516da6333fa8dfbf790f23653b173d7267e5e9796b588e3131698af7105cc07d277d6ebc OP_CHECKSIG",
            "desc": "pk(04a5fd6df5c2f97058566514b3258b4f1e4f69537a965e05a28e708c29516da6333fa8dfbf790f23653b173d7267e5e9796b588e3131698af7105cc07d277d6ebc)#j20stqt0",
            "hex": "4104a5fd6df5c2f97058566514b3258b4f1e4f69537a965e05a28e708c29516da6333fa8dfbf790f23653b173d7267e5e9796b588e3131698af7105cc07d277d6ebcac",
            "type": "pubkey"
          }
        }
      ],
      "hex": "01000000010000000000000000000000000000000000000000000000000000000000000000ffffffff0804ffff001d027905ffffffff0100f2052a01000000434104a5fd6df5c2f97058566514b3258b4f1e4f69537a965e05a28e708c29516da6333fa8dfbf790f23653b173d7267e5e9796b588e3131698af7105cc07d277d6ebcac00000000"
    }
  ]
}