{
  "hash": "000000003d7d63c884916b1b849d0b7338a654bfc3eaef53bdafd65c25a1fc36",
  "confirmations": 45935,
  "height": 7163,
  "version": 1,
  "versionHex": "00000001",
  "merkleroot": "e9f838ff72f2efef2b4a4b1d2c379f32820518ed94aa22abfb493006969db9d3",
  "time": 1236843256,
  "mediantime": 1236840345,
  "nonce": 3649835818,
  "bits": "1d00ffff",
  "difficulty": 1,
  "chainwork": "00000000000000000000000000000000000000000000000000001bfc1bfc1bfc",
  "nTx": 1,
  "previousblockhash": "000000000f760314179c351107625b24288d28d5e0e364b8abb4bea2923820b4",
  "nextblockhash": "000000001be82443485d96eb5595e55eb5400ad7092c4da6e9f65cf10fe9cbc5",
  "strippedsize": 216,
  "size": 216,
  "weight": 864,
  "tx": [
    {
      "txid": "e9f838ff72f2efef2b4a4b1d2c379f32820518ed94aa22abfb493006969db9d3",
      "hash": "e9f838ff72f2efef2b4a4b1d2c379f32820518ed94aa22abfb493006969db9d3",
      "version": 1,
      "size": 135,
      "vsize": 135,
      "weight": 540,
      "locktime": 0,
      "vin": [
        {
          "coinbase": "04ffff001d021205",
          "sequence": 4294967295
        }
      ],
      "vout": [
        {
          "value": 50.0,
          "n": 0,
          "scriptPubKey": {
            "asm": "04f2d9444d12e284ad36235a4162d47e3f4209379b29ecaf0c61a79405d286d251a37bcd7e3a42e264c06e30a36d0ce51a641bf6eade9df44a5a86473c26419e50 OP_CHECKSIG",
            "desc": "pk(04f2d9444d12e284ad36235a4162d47e3f4209379b29ecaf0c61a79405d286d251a37bcd7e3a42e264c06e30a36d0ce51a641bf6eade9df44a5a86473c26419e50)#mz602xfx",
            "hex": "4104f2d9444d12e284ad36235a4162d47e3f4209379b29ecaf0c61a79405d286d251a37bcd7e3a42e264c06e30a36d0ce51a641bf6eade9df44a5a86473c26419e50ac",
            "type": "pubkey"
          }
        }
      ],
      "hex": "01000000010000000000000000000000000000000000000000000000000000000000000000ffffffff0804ffff001d021205ffffffff0100f2052a01000000434104f2d9444d12e284ad36235a4162d47e3f4209379b29ecaf0c61a79405d286d251a37bcd7e3a42e264c06e30a36d0ce51a641bf6eade9df44a5a86473c26419e50ac00000000"
    }
  ]
}