{
  "hash": "00000000502c41b516a23d632b173665e6d355804f7cca0a5215ac7000df76f2",
  "confirmations": 47159,
  "height": 5939,
  "version": 1,
  "versionHex": "00000001",
  "merkleroot": "71d26679735dc2bb8c56dab09dfc0c37bfcb7383b6ca15f643a42eb7903fa01e",
  "time": 1235879740,
  "mediantime": 1235875095,
  "nonce": 16478045,
  "bits": "1d00ffff",
  "difficulty": 1,
  "chainwork": "0000000000000000000000000000000000000000000000000000173417341734",
  "nTx": 1,
  "previousblockhash": "00000000f5727d38f3cecbac7718f51db5256b2c403f7b6b33025b1c68f53372",
  "nextblockhash": "000000003f87fa6d28f979128c1e89cf6bb239f885d7d811cfe7e6d10ca9bb2e",
  "strippedsize": 216,
  "size": 216,
  "weight": 864,
  "tx": [
    {
      "txid": "71d26679735dc2bb8c56dab09dfc0c37bfcb7383b6ca15f643a42eb7903fa01e",
      "hash": "71d26679735dc2bb8c56dab09dfc0c37bfcb7383b6ca15f643a42eb7903fa01e",
      "version": 1,
      "size": 135,
      "vsize": 135,
      "weight": 540,
      "locktime": 0,
      "vin": [
        {
          "coinbase": "04ffff001d02e001",
          "sequence": 4294967295
        }
      ],
      "vout": [
        {
          "value": 50.0,
          "n": 0,
          "scriptPubKey": {
            "asm": "0425af762f48778392cc12eb3001ca06052233c91aa2324ce6645b8b440f21316253678df093b1692d45a24b58a108a17ab472386271f65dd9d1d3649fc7616397 OP_CHECKSIG",
            "desc": "pk(0425af762f48778392cc12eb3001ca06052233c91aa2324ce6645b8b440f21316253678df093b1692d45a24b58a108a17ab472386271f65dd9d1d3649fc7616397)#vx8kma44",
            "hex": "410425af762f48778392cc12eb3001ca06052233c91aa2324ce6645b8b440f21316253678df093b1692d45a24b58a108a17ab472386271f65dd9d1d3649fc7616397ac",
            "type": "pubkey"
          }
        }
      ],
      "hex": "01000000010000000000000000000000000000000000000000000000000000000000000000ffffffff0804ffff001d02e001ffffffff0100f2052a0100000043410425af762f48778392cc12eb3001ca06052233c91aa2324ce6645b8b440f21316253678df093b1692d45a24b58a108a17ab472386271f65dd9d1d3649fc7616397ac00000000"
    }
  ]
}