{
  "hash": "0000000026fecef114825fdf9442e3e7b435488dbcc21817c23ee075fc246283",
  "confirmations": 47187,
  "height": 5911,
  "version": 1,
  "versionHex": "00000001",
  "merkleroot": "3b3b7b13d2fb533bf5ecc1d2670eade1c746137666fac58b59f56b8b19957e39",
  "time": 1235852329,
  "mediantime": 1235848964,
  "nonce": 3977939246,
  "bits": "1d00ffff",
  "difficulty": 1,
  "chainwork": "0000000000000000000000000000000000000000000000000000171817181718",
  "nTx": 1,
  "previousblockhash": "000000000178c9e89ca1e4efb08deb3acc1c5bb3f7ba212417c1080cb8dec830",
  "nextblockhash": "0000000065842f62bc7b048e44b9c89480f6431210a8b88dea5ae09de4be4eb9",
  "strippedsize": 216,
  "size": 216,
  "weight": 864,
  "tx": [
    {
      "txid": "3b3b7b13d2fb533bf5ecc1d2670eade1c746137666fac58b59f56b8b19957e39",
      "hash": "3b3b7b13d2fb533bf5ecc1d2670eade1c746137666fac58b59f56b8b19957e39",
      "version": 1,
      "size": 135,
      "vsize": 135,
      "weight": 540,
      "locktime": 0,
      "vin": [
        {
          "coinbase": "04ffff001d023303",
          "sequence": 4294967295
        }
      ],
      "vout": [
        {
          "value": 50.0,
          "n": 0,
          "scriptPubKey": {
            "asm": "047d8ae76d846ac4c398ec10d3e1fa010f3fb328d0750307f893c772e34c7cbae95177f9d6e87d52a5335184140ef5aff003b803db5373dfffbc79a05c443f853d OP_CHECKSIG",
            "desc": "pk(047d8ae76d846ac4c398ec10d3e1fa010f3fb328d0750307f893c772e34c7cbae95177f9d6e87d52a5335184140ef5aff003b803db5373dfffbc79a05c443f853d)#fzc35q8v",
            "hex": "41047d8ae76d846ac4c398ec10d3e1fa010f3fb328d0750307f893c772e34c7cbae95177f9d6e87d52a5335184140ef5aff003b803db5373dfffbc79a05c443f853dac",
            "type": "pubkey"
          }
        }
      ],
      "hex": "01000000010000000000000000000000000000000000000000000000000000000000000000ffffffff0804ffff001d023303ffffffff0100f2052a010000004341047d8ae76d846ac4c398ec10d3e1fa010f3fb328d0750307f893c772e34c7cbae95177f9d6e87d52a5335184140ef5aff003b803db5373dfffbc79a05c443f853dac00000000"
    }
  ]
}