{
  "hash": "000000005744bf6986d977384729b72ae7e2350e5e47640fc501b40808b6c3bb",
  "confirmations": 52003,
  "height": 1095,
  "version": 1,
  "versionHex": "00000001",
  "merkleroot": "1b84d7ff19a9c321ab894b8b5c5f1f5eab5afe983bdae58c0c80788f0d5b19fc",
  "time": 1232419059,
  "mediantime": 1232416696,
  "nonce": 929949215,
  "bits": "1d00ffff",
  "difficulty": 1,
  "chainwork": "0000000000000000000000000000000000000000000000000000044804480448",
  "nTx": 1,
  "previousblockhash": "00000000d0e370b801cebb37d6a98a9b99fbd8d10538756162f227337f85ca85",
  "nextblockhash": "0000000085a74e13080fa4cf7083612d2723843e10fa73663473b96f431d06fd",
  "strippedsize": 216,
  "size": 216,
  "weight": 864,
  "tx": [
    {
      "txid": "1b84d7ff19a9c321ab894b8b5c5f1f5eab5afe983bdae58c0c80788f0d5b19fc",
      "hash": "1b84d7ff19a9c321ab894b8b5c5f1f5eab5afe983bdae58c0c80788f0d5b19fc",
      "version": 1,
      "size": 135,
      "vsize": 135,
      "weight": 540,
      "locktime": 0,
      "vin": [
        {
          "coinbase": "04ffff001d020107",
          "sequence": 4294967295
        }
      ],
      "vout": [
        {
          "value": 50.0,
          "n": 0,
          "scriptPubKey": {
            "asm": "04ccc76786a6d95616b130320904e39c9cff90608bbfafbce0248dae422bcb82708d49b9f0e6c69679c45680b498a33e4dd34ac3c49049be3f6559ffe91e0fffd9 OP_CHECKSIG",
            "desc": "pk(04ccc76786a6d95616b130320904e39c9cff90608bbfafbce0248dae422bcb82708d49b9f0e6c69679c45680b498a33e4dd34ac3c49049be3f6559ffe91e0fffd9)#ju7e5vyt",
            "hex": "4104ccc76786a6d95616b130320904e39c9cff90608bbfafbce0248dae422bcb82708d49b9f0e6c69679c45680b498a33e4dd34ac3c49049be3f6559ffe91e0fffd9ac",
            "type": "pubkey"
          }
        }
      ],
      "hex": "01000000010000000000000000000000000000000000000000000000000000000000000000ffffffff0804ffff001d020107ffffffff0100f2052a01000000434104ccc76786a6d95616b130320904e39c9cff90608bbfafbce0248dae422bcb82708d49b9f0e6c69679c45680b498a33e4dd34ac3c49049be3f6559ffe91e0fffd9ac00000000"
    }
  ]
}