{
  "hash": "00000000eb82e342307f9f24cbf6a5518efa4ac1824b62bf4e2981a516211385",
  "confirmations": 47499,
  "height": 5599,
  "version": 1,
  "versionHex": "00000001",
  "merkleroot": "b5c328d15f350ca175d14ad5a8260a681f03d04a9e4a75ab47d63b40dab261b0",
  "time": 1235601917,
  "mediantime": 1235597039,
  "nonce": 2309882393,
  "bits": "1d00ffff",
  "difficulty": 1,
  "chainwork": "000000000000000000000000000000000000000000000000000015e015e015e0",
  "nTx": 1,
  "previousblockhash": "000000006bc82a0fb19fb21a1ecc82238a37d1bc13849e72d10d4fc07566d6cd",
  "nextblockhash": "0000000089c7926f6bbbcff90daac70c8817a40e6df58abea652dbb6f4feeee0",
  "strippedsize": 216,
  "size": 216,
  "weight": 864,
  "tx": [
    {
      "txid": "b5c328d15f350ca175d14ad5a8260a681f03d04a9e4a75ab47d63b40dab261b0",
      "hash": "b5c328d15f350ca175d14ad5a8260a681f03d04a9e4a75ab47d63b40dab261b0",
      "version": 1,
      "size": 135,
      "vsize": 135,
      "weight": 540,
      "locktime": 0,
      "vin": [
        {
          "coinbase": "04ffff001d02a107",
          "sequence": 4294967295
        }
      ],
      "vout": [
        {
          "value": 50.0,
          "n": 0,
          "scriptPubKey": {
            "asm": "042762916d2cc630bb764f44ff245e258bb257b2d11e110b958b1209146c9dd243ce38b12b21e8af867f08c338c6f7d350dae9bf0aa8a160ec21c91e855a0c746e OP_CHECKSIG",
            "desc": "pk(042762916d2cc630bb764f44ff245e258bb257b2d11e110b958b1209146c9dd243ce38b12b21e8af867f08c338c6f7d350dae9bf0aa8a160ec21c91e855a0c746e)#9xghwf37",
            "hex": "41042762916d2cc630bb764f44ff245e258bb257b2d11e110b958b1209146c9dd243ce38b12b21e8af867f08c338c6f7d350dae9bf0aa8a160ec21c91e855a0c746eac",
            "type": "pubkey"
          }
        }
      ],
      "hex": "01000000010000000000000000000000000000000000000000000000000000000000000000ffffffff0804ffff001d02a107ffffffff0100f2052a010000004341042762916d2cc630bb764f44ff245e258bb257b2d11e110b958b1209146c9dd243ce38b12b21e8af867f08c338c6f7d350dae9bf0aa8a160ec21c91e855a0c746eac00000000"
    }
  ]
}