{
  "hash": "000000007b9530183fd2eb3a949c84b166973f33e38bd8112a36f598514e36a5",
  "confirmations": 44447,
  "height": 8651,
  "version": 1,
  "versionHex": "00000001",
  "merkleroot": "9535b965788c970783413c3bfa428f96e07d40754264eba8d0c5eae8fa391a35",
  "time": 1237987491,
  "mediantime": 1237982526,
  "nonce": 105382217,
  "bits": "1d00ffff",
  "difficulty": 1,
  "chainwork": "000000000000000000000000000000000000000000000000000021cc21cc21cc",
  "nTx": 1,
  "previousblockhash": "00000000a0105b1f82c00525f8c881ff1ce768df7ebbb86e72e8ed402b8211fc",
  "nextblockhash": "000000005be793d6abe489bbc81103a5fd676d6fbb484d9b51cfb37a59fe6f13",
  "strippedsize": 216,
  "size": 216,
  "weight": 864,
  "tx": [
    {
      "txid": "9535b965788c970783413c3bfa428f96e07d40754264eba8d0c5eae8fa391a35",
      "hash": "9535b965788c970783413c3bfa428f96e07d40754264eba8d0c5eae8fa391a35",
      "version": 1,
      "size": 135,
      "vsize": 135,
      "weight": 540,
      "locktime": 0,
      "vin": [
        {
          "coinbase": "04ffff001d027e0c",
          "sequence": 4294967295
        }
      ],
      "vout": [
        {
          "value": 50.0,
          "n": 0,
          "scriptPubKey": {
            "asm": "041233664c68ecf7aba59929bc165da966afb6d036fe9d271233cae6532c0e2dc4bc2d54efeab115e97036e82dd7346360b6fa34b66d04d4946f26bda368a557e4 OP_CHECKSIG",
            "desc": "pk(041233664c68ecf7aba59929bc165da966afb6d036fe9d271233cae6532c0e2dc4bc2d54efeab115e97036e82dd7346360b6fa34b66d04d4946f26bda368a557e4)#w5e76jw5",
            "hex": "41041233664c68ecf7aba59929bc165da966afb6d036fe9d271233cae6532c0e2dc4bc2d54efeab115e97036e82dd7346360b6fa34b66d04d4946f26bda368a557e4ac",
            "type": "pubkey"
          }
        }
      ],
      "hex": "01000000010000000000000000000000000000000000000000000000000000000000000000ffffffff0804ffff001d027e0cffffffff0100f2052a010000004341041233664c68ecf7aba59929bc165da966afb6d036fe9d271233cae6532c0e2dc4bc2d54efeab115e97036e82dd7346360b6fa34b66d04d4946f26bda368a557e4ac00000000"
    }
  ]
}