{
  "hash": "000000008edcba2d1a4982ec30dabb6465f5f3922fe39fb14f8d285f02b49879",
  "confirmations": 52224,
  "height": 874,
  "version": 1,
  "versionHex": "00000001",
  "merkleroot": "92011df6e7eb5254315fc695b23efb84d5352af12a1766bf5d3bafe489db469e",
  "time": 1232252254,
  "mediantime": 1232247229,
  "nonce": 3647996210,
  "bits": "1d00ffff",
  "difficulty": 1,
  "chainwork": "0000000000000000000000000000000000000000000000000000036b036b036b",
  "nTx": 1,
  "previousblockhash": "000000000ce9445d0ebebabc8342070ab85414fe926a8f30286c1e14bcb4b687",
  "nextblockhash": "000000004d8ea04709f1a7900af251f3e92a3f897222ad59be3fea34977afb36",
  "strippedsize": 216,
  "size": 216,
  "weight": 864,
  "tx": [
    {
      "txid": "92011df6e7eb5254315fc695b23efb84d5352af12a1766bf5d3bafe489db469e",
      "hash": "92011df6e7eb5254315fc695b23efb84d5352af12a1766bf5d3bafe489db469e",
      "version": 1,
      "size": 135,
      "vsize": 135,
      "weight": 540,
      "locktime": 0,
      "vin": [
        {
          "coinbase": "04ffff001d021103",
          "sequence": 4294967295
        }
      ],
      "vout": [
        {
          "value": 50.0,
          "n": 0,
          "scriptPubKey": {
            "asm": "0462f282265a2fb5c49eef0db4676e5dd51f36c7e07ca8b38b3034fd9ad74dfa31521081fa6099b476ce02b8f3165b82a3c16c999ba9f96a41ad6cb8b6d36ece67 OP_CHECKSIG",
            "desc": "pk(0462f282265a2fb5c49eef0db4676e5dd51f36c7e07ca8b38b3034fd9ad74dfa31521081fa6099b476ce02b8f3165b82a3c16c999ba9f96a41ad6cb8b6d36ece67)#qdpqvqrg",
            "hex": "410462f282265a2fb5c49eef0db4676e5dd51f36c7e07ca8b38b3034fd9ad74dfa31521081fa6099b476ce02b8f3165b82a3c16c999ba9f96a41ad6cb8b6d36ece67ac",
            "type": "pubkey"
          }
        }
      ],
      "hex": "01000000010000000000000000000000000000000000000000000000000000000000000000ffffffff0804ffff001d021103ffffffff0100f2052a0100000043410462f282265a2fb5c49eef0db4676e5dd51f36c7e07ca8b38b3034fd9ad74dfa31521081fa6099b476ce02b8f3165b82a3c16c999ba9f96a41ad6cb8b6d36ece67ac00000000"
    }
  ]
}