{
  "hash": "000000000b57d2d81865b33cbf69ee905688ee70772fedb7cbc7407fbccd5461",
  "confirmations": 51797,
  "height": 1301,
  "version": 1,
  "versionHex": "00000001",
  "merkleroot": "032068cbc7ab4a2bb1e3ed552bff0eb0fc12781429f1f6e66b010c5474f5ac06",
  "time": 1232594915,
  "mediantime": 1232582734,
  "nonce": 2758406916,
  "bits": "1d00ffff",
  "difficulty": 1,
  "chainwork": "0000000000000000000000000000000000000000000000000000051605160516",
  "nTx": 1,
  "previousblockhash": "0000000047a712b762d9c91aa1cc2e33fb48ea64276a7086c3c10aa252a934ab",
  "nextblockhash": "000000004fbf34b9179c42c44c29c2117a658f12bb6d4d467e9b5fc4759a5b20",
  "strippedsize": 215,
  "size": 215,
  "weight": 860,
  "tx": [
    {
      "txid": "032068cbc7ab4a2bb1e3ed552bff0eb0fc12781429f1f6e66b010c5474f5ac06",
      "hash": "032068cbc7ab4a2bb1e3ed552bff0eb0fc12781429f1f6e66b010c5474f5ac06",
      "version": 1,
      "size": 134,
      "vsize": 134,
      "weight": 536,
      "locktime": 0,
      "vin": [
        {
          "coinbase": "04ffff001d0111",
          "sequence": 4294967295
        }
      ],
      "vout": [
        {
          "value": 50.0,
          "n": 0,
          "scriptPubKey": {
            "asm": "048778914efeff4ba9796885657f0068e20278e23b81cefc954320c8d14be00a89eb3999536d316e0441b3d6414f4c3bfcf51f506803adc429fc8a8835f5819eef OP_CHECKSIG",
            "desc": "pk(048778914efeff4ba9796885657f0068e20278e23b81cefc954320c8d14be00a89eb3999536d316e0441b3d6414f4c3bfcf51f506803adc429fc8a8835f5819eef)#z5zy63x3",
            "hex": "41048778914efeff4ba9796885657f0068e20278e23b81cefc954320c8d14be00a89eb3999536d316e0441b3d6414f4c3bfcf51f506803adc429fc8a8835f5819eefac",
            "type": "pubkey"
          }
        }
      ],
      "hex": "01000000010000000000000000000000000000000000000000000000000000000000000000ffffffff0704ffff001d0111ffffffff0100f2052a010000004341048778914efeff4ba9796885657f0068e20278e23b81cefc954320c8d14be00a89eb3999536d316e0441b3d6414f4c3bfcf51f506803adc429fc8a8835f5819eefac00000000"
    }
  ]
}