{
  "hash": "0000000073c361ad66b65532aec5cc99e4b7fcdd4896e8579c25dfc7ddba89a6",
  "confirmations": 51160,
  "height": 1938,
  "version": 1,
  "versionHex": "00000001",
  "merkleroot": "8ef3d10a554637cd1c8f364be4587b48c26ea80cbc49659f6d2c5121e1245f84",
  "time": 1232997468,
  "mediantime": 1232994159,
  "nonce": 93637682,
  "bits": "1d00ffff",
  "difficulty": 1,
  "chainwork": "0000000000000000000000000000000000000000000000000000079307930793",
  "nTx": 1,
  "previousblockhash": "0000000024b3acf0171e950d780d3db90f339aa3357252d375378e9427111c08",
  "nextblockhash": "0000000062f250b9e1995a186da0136fc5589d86b85ad4d750f7490921cedec1",
  "strippedsize": 216,
  "size": 216,
  "weight": 864,
  "tx": [
    {
      "txid": "8ef3d10a554637cd1c8f364be4587b48c26ea80cbc49659f6d2c5121e1245f84",
      "hash": "8ef3d10a554637cd1c8f364be4587b48c26ea80cbc49659f6d2c5121e1245f84",
      "version": 1,
      "size": 135,
      "vsize": 135,
      "weight": 540,
      "locktime": 0,
      "vin": [
        {
          "coinbase": "04ffff001d02fc02",
          "sequence": 4294967295
        }
      ],
      "vout": [
        {
          "value": 50.0,
          "n": 0,
          "scriptPubKey": {
            "asm": "043231c44ca0f8ac984003ffd6e66cd29ee3558fd4d67853edc26d1dc4dd4c241e1b0effbfdb43b4b01d7a8a46e53ef1c19ad1541bb260199686eed27860ef7853 OP_CHECKSIG",
            "desc": "pk(043231c44ca0f8ac984003ffd6e66cd29ee3558fd4d67853edc26d1dc4dd4c241e1b0effbfdb43b4b01d7a8a46e53ef1c19ad1541bb260199686eed27860ef7853)#7d0cnfy6",
            "hex": "41043231c44ca0f8ac984003ffd6e66cd29ee3558fd4d67853edc26d1dc4dd4c241e1b0effbfdb43b4b01d7a8a46e53ef1c19ad1541bb260199686eed27860ef7853ac",
            "type": "pubkey"
          }
        }
      ],
      "hex": "01000000010000000000000000000000000000000000000000000000000000000000000000ffffffff0804ffff001d02fc02ffffffff0100f2052a010000004341043231c44ca0f8ac984003ffd6e66cd29ee3558fd4d67853edc26d1dc4dd4c241e1b0effbfdb43b4b01d7a8a46e53ef1c19ad1541bb260199686eed27860ef7853ac00000000"
    }
  ]
}