{
  "hash": "000000007296fe3afdeadd1832712870b7083c73af6fb116dc3db86aa02db446",
  "confirmations": 49935,
  "height": 3163,
  "version": 1,
  "versionHex": "00000001",
  "merkleroot": "b5d5c4a81b38e78aea6174b21df5c8a292e22347ced54fc30c6f57166142502c",
  "time": 1233875721,
  "mediantime": 1233872544,
  "nonce": 47132440,
  "bits": "1d00ffff",
  "difficulty": 1,
  "chainwork": "00000000000000000000000000000000000000000000000000000c5c0c5c0c5c",
  "nTx": 1,
  "previousblockhash": "000000003480b0828d65e242d60eaef79b3ad0f9d716d5eab08f2ff1ca35c9ba",
  "nextblockhash": "000000001c360bfb7c6cae6269ec3916af8551037e152544e067559d537d058a",
  "strippedsize": 216,
  "size": 216,
  "weight": 864,
  "tx": [
    {
      "txid": "b5d5c4a81b38e78aea6174b21df5c8a292e22347ced54fc30c6f57166142502c",
      "hash": "b5d5c4a81b38e78aea6174b21df5c8a292e22347ced54fc30c6f57166142502c",
      "version": 1,
      "size": 135,
      "vsize": 135,
      "weight": 540,
      "locktime": 0,
      "vin": [
        {
          "coinbase": "04ffff001d023002",
          "sequence": 4294967295
        }
      ],
      "vout": [
        {
          "value": 50.0,
          "n": 0,
          "scriptPubKey": {
            "asm": "0445c7e2f8f8fc4b7dbf5a37e45a9ae0ef03a666fdf84e4223b601ec8affeeedcc2c13ab8afd9122a1eba2b927fd328ebc52e0b10e275fe2d7df83087e96310269 OP_CHECKSIG",
            "desc": "pk(0445c7e2f8f8fc4b7dbf5a37e45a9ae0ef03a666fdf84e4223b601ec8affeeedcc2c13ab8afd9122a1eba2b927fd328ebc52e0b10e275fe2d7df83087e96310269)#nfurnz49",
            "hex": "410445c7e2f8f8fc4b7dbf5a37e45a9ae0ef03a666fdf84e4223b601ec8affeeedcc2c13ab8afd9122a1eba2b927fd328ebc52e0b10e275fe2d7df83087e96310269ac",
            "type": "pubkey"
          }
        }
      ],
      "hex": "01000000010000000000000000000000000000000000000000000000000000000000000000ffffffff0804ffff001d023002ffffffff0100f2052a0100000043410445c7e2f8f8fc4b7dbf5a37e45a9ae0ef03a666fdf84e4223b601ec8affeeedcc2c13ab8afd9122a1eba2b927fd328ebc52e0b10e275fe2d7df83087e96310269ac00000000"
    }
  ]
}