{
  "hash": "00000000cd9ad78b3ad79a03418becb9599d82e676b0baaf161eba3c32aeafae",
  "confirmations": 51294,
  "height": 1804,
  "version": 1,
  "versionHex": "00000001",
  "merkleroot": "0c0b4d061969b9ae5f28899d0d9da7771612d3124b31fc99dd519bb6f15e8090",
  "time": 1232900700,
  "mediantime": 1232898124,
  "nonce": 1174095381,
  "bits": "1d00ffff",
  "difficulty": 1,
  "chainwork": "0000000000000000000000000000000000000000000000000000070d070d070d",
  "nTx": 1,
  "previousblockhash": "000000006463e5ccebec857a449bff36431f4d02c56c38aadce6ec1a37c75014",
  "nextblockhash": "00000000b86e846ca528fa3c102ee17eaa7a2b8089b22699c94f220081ecccd9",
  "strippedsize": 216,
  "size": 216,
  "weight": 864,
  "tx": [
    {
      "txid": "0c0b4d061969b9ae5f28899d0d9da7771612d3124b31fc99dd519bb6f15e8090",
      "hash": "0c0b4d061969b9ae5f28899d0d9da7771612d3124b31fc99dd519bb6f15e8090",
      "version": 1,
      "size": 135,
      "vsize": 135,
      "weight": 540,
      "locktime": 0,
      "vin": [
        {
          "coinbase": "04ffff001d021404",
          "sequence": 4294967295
        }
      ],
      "vout": [
        {
          "value": 50.0,
          "n": 0,
          "scriptPubKey": {
            "asm": "04d8cad25f511dc5b19a1ca9a86d0916d3f0ee2bc01300e4088c338fe7f391fafe69d13936a51f0521f07318ba0607e29f4038f7db280f15df4ba686b51bca0d45 OP_CHECKSIG",
            "desc": "pk(04d8cad25f511dc5b19a1ca9a86d0916d3f0ee2bc01300e4088c338fe7f391fafe69d13936a51f0521f07318ba0607e29f4038f7db280f15df4ba686b51bca0d45)#wj02ymrw",
            "hex": "4104d8cad25f511dc5b19a1ca9a86d0916d3f0ee2bc01300e4088c338fe7f391fafe69d13936a51f0521f07318ba0607e29f4038f7db280f15df4ba686b51bca0d45ac",
            "type": "pubkey"
          }
        }
      ],
      "hex": "01000000010000000000000000000000000000000000000000000000000000000000000000ffffffff0804ffff001d021404ffffffff0100f2052a01000000434104d8cad25f511dc5b19a1ca9a86d0916d3f0ee2bc01300e4088c338fe7f391fafe69d13936a51f0521f07318ba0607e29f4038f7db280f15df4ba686b51bca0d45ac00000000"
    }
  ]
}