{
  "hash": "00000000d9cbcab4341ca7707690bb5a2da1f10acc7ba3a8f93ca9795332e228",
  "confirmations": 46505,
  "height": 6593,
  "version": 1,
  "versionHex": "00000001",
  "merkleroot": "3e92b6d75d6e70382d29f6b99e54b44be21ac811eb20d6aa262770cd3c08b44c",
  "time": 1236399706,
  "mediantime": 1236395445,
  "nonce": 261328405,
  "bits": "1d00ffff",
  "difficulty": 1,
  "chainwork": "000000000000000000000000000000000000000000000000000019c219c219c2",
  "nTx": 1,
  "previousblockhash": "000000006f1ba1cb2eaf16ab824eb010bfe3090dae09cfd92f1298e33456e922",
  "nextblockhash": "0000000077407e69c46dc29ddaefc1ec05bac9f998ddf78ef23972c7cd83e009",
  "strippedsize": 216,
  "size": 216,
  "weight": 864,
  "tx": [
    {
      "txid": "3e92b6d75d6e70382d29f6b99e54b44be21ac811eb20d6aa262770cd3c08b44c",
      "hash": "3e92b6d75d6e70382d29f6b99e54b44be21ac811eb20d6aa262770cd3c08b44c",
      "version": 1,
      "size": 135,
      "vsize": 135,
      "weight": 540,
      "locktime": 0,
      "vin": [
        {
          "coinbase": "04ffff001d020a05",
          "sequence": 4294967295
        }
      ],
      "vout": [
        {
          "value": 50.0,
          "n": 0,
          "scriptPubKey": {
            "asm": "0412ccd415141101bdbbf4bfb39db86b645e585b1c053c1bdabe214882588e0856c0ae2bcecd4cfcfd84e1d2e044e8b6eff9b8b7e40057c896ae890b07545b1711 OP_CHECKSIG",
            "desc": "pk(0412ccd415141101bdbbf4bfb39db86b645e585b1c053c1bdabe214882588e0856c0ae2bcecd4cfcfd84e1d2e044e8b6eff9b8b7e40057c896ae890b07545b1711)#5njhm7fx",
            "hex": "410412ccd415141101bdbbf4bfb39db86b645e585b1c053c1bdabe214882588e0856c0ae2bcecd4cfcfd84e1d2e044e8b6eff9b8b7e40057c896ae890b07545b1711ac",
            "type": "pubkey"
          }
        }
      ],
      "hex": "01000000010000000000000000000000000000000000000000000000000000000000000000ffffffff0804ffff001d020a05ffffffff0100f2052a0100000043410412ccd415141101bdbbf4bfb39db86b645e585b1c053c1bdabe214882588e0856c0ae2bcecd4cfcfd84e1d2e044e8b6eff9b8b7e40057c896ae890b07545b1711ac00000000"
    }
  ]
}