{
  "hash": "00000000d9430c82ef216b561c480d996a9a961b620fe921a18791aa4bd4e063",
  "confirmations": 43620,
  "height": 9478,
  "version": 1,
  "versionHex": "00000001",
  "merkleroot": "3f8db4e7cce27c5fbc412e0684a4873fac4d23c1456da8f37dbadc8da4941338",
  "time": 1238613344,
  "mediantime": 1238608559,
  "nonce": 3475852345,
  "bits": "1d00ffff",
  "difficulty": 1,
  "chainwork": "0000000000000000000000000000000000000000000000000000250725072507",
  "nTx": 1,
  "previousblockhash": "000000007a7538282e4f94c7602008d4e8776a914c66c79073030b3dd7404531",
  "nextblockhash": "000000004415a908414ea6c4149a01f39d401693aa29ef15e72717574e3aa8b2",
  "strippedsize": 216,
  "size": 216,
  "weight": 864,
  "tx": [
    {
      "txid": "3f8db4e7cce27c5fbc412e0684a4873fac4d23c1456da8f37dbadc8da4941338",
      "hash": "3f8db4e7cce27c5fbc412e0684a4873fac4d23c1456da8f37dbadc8da4941338",
      "version": 1,
      "size": 135,
      "vsize": 135,
      "weight": 540,
      "locktime": 0,
      "vin": [
        {
          "coinbase": "04ffff001d020805",
          "sequence": 4294967295
        }
      ],
      "vout": [
        {
          "value": 50.0,
          "n": 0,
          "scriptPubKey": {
            "asm": "049e3a4cf48d523f467ba952b0709c757861ba12f17a3e39bc0ea25c7c1e6f8c712cbac6ffb4df45fee983e2843c4ce3d1380d2671721fbe1a2bdf8eaf53301d40 OP_CHECKSIG",
            "desc": "pk(049e3a4cf48d523f467ba952b0709c757861ba12f17a3e39bc0ea25c7c1e6f8c712cbac6ffb4df45fee983e2843c4ce3d1380d2671721fbe1a2bdf8eaf53301d40)#ew8ljxqk",
            "hex": "41049e3a4cf48d523f467ba952b0709c757861ba12f17a3e39bc0ea25c7c1e6f8c712cbac6ffb4df45fee983e2843c4ce3d1380d2671721fbe1a2bdf8eaf53301d40ac",
            "type": "pubkey"
          }
        }
      ],
      "hex": "01000000010000000000000000000000000000000000000000000000000000000000000000ffffffff0804ffff001d020805ffffffff0100f2052a010000004341049e3a4cf48d523f467ba952b0709c757861ba12f17a3e39bc0ea25c7c1e6f8c712cbac6ffb4df45fee983e2843c4ce3d1380d2671721fbe1a2bdf8eaf53301d40ac00000000"
    }
  ]
}