{
  "hash": "0000000018603fc7460da87634d23439e7090b4d5f34a475363c480f9a2c6308",
  "confirmations": 49981,
  "height": 3117,
  "version": 1,
  "versionHex": "00000001",
  "merkleroot": "f8e86d4d118ae4cff0b4e92a4237ddbc1eaddf4542e924dc231805b91ecb9830",
  "time": 1233847151,
  "mediantime": 1233844268,
  "nonce": 33989170,
  "bits": "1d00ffff",
  "difficulty": 1,
  "chainwork": "00000000000000000000000000000000000000000000000000000c2e0c2e0c2e",
  "nTx": 1,
  "previousblockhash": "00000000a7d43d4fa8391bac72c9190855e1a218506ea98c5deead34ad95e62a",
  "nextblockhash": "00000000921ac50edf3fb0fa9e18cc12cd547df29fd5bf1ecd7332b63875a2d9",
  "strippedsize": 216,
  "size": 216,
  "weight": 864,
  "tx": [
    {
      "txid": "f8e86d4d118ae4cff0b4e92a4237ddbc1eaddf4542e924dc231805b91ecb9830",
      "hash": "f8e86d4d118ae4cff0b4e92a4237ddbc1eaddf4542e924dc231805b91ecb9830",
      "version": 1,
      "size": 135,
      "vsize": 135,
      "weight": 540,
      "locktime": 0,
      "vin": [
        {
          "coinbase": "04ffff001d027102",
          "sequence": 4294967295
        }
      ],
      "vout": [
        {
          "value": 50.0,
          "n": 0,
          "scriptPubKey": {
            "asm": "04b50392ac119ea2d271017620589acb13fc64528bead26445ff15e5123c89fca96323f5de7ed2cb10cecd7977e6437bb53d6fdc01e629048359365b86805492db OP_CHECKSIG",
            "desc": "pk(04b50392ac119ea2d271017620589acb13fc64528bead26445ff15e5123c89fca96323f5de7ed2cb10cecd7977e6437bb53d6fdc01e629048359365b86805492db)#5ca7c6nd",
            "hex": "4104b50392ac119ea2d271017620589acb13fc64528bead26445ff15e5123c89fca96323f5de7ed2cb10cecd7977e6437bb53d6fdc01e629048359365b86805492dbac",
            "type": "pubkey"
          }
        }
      ],
      "hex": "01000000010000000000000000000000000000000000000000000000000000000000000000ffffffff0804ffff001d027102ffffffff0100f2052a01000000434104b50392ac119ea2d271017620589acb13fc64528bead26445ff15e5123c89fca96323f5de7ed2cb10cecd7977e6437bb53d6fdc01e629048359365b86805492dbac00000000"
    }
  ]
}