{
  "hash": "000000006da23445fb82457e211807b038717de3433458a795a461eadc597ecd",
  "confirmations": 45453,
  "height": 7645,
  "version": 1,
  "versionHex": "00000001",
  "merkleroot": "4659e1d8f4a40f5c613599840a0680a609e66359b5d6ce9cdea0d4754c2171de",
  "time": 1237199022,
  "mediantime": 1237195276,
  "nonce": 2880214583,
  "bits": "1d00ffff",
  "difficulty": 1,
  "chainwork": "00000000000000000000000000000000000000000000000000001dde1dde1dde",
  "nTx": 1,
  "previousblockhash": "00000000e8b0041987d2838f34ff84024e9c673455837216a53ed92209916e9c",
  "nextblockhash": "000000003c5b770856465f1d7f9ae8919f33504fc7971f486f51074386084cda",
  "strippedsize": 216,
  "size": 216,
  "weight": 864,
  "tx": [
    {
      "txid": "4659e1d8f4a40f5c613599840a0680a609e66359b5d6ce9cdea0d4754c2171de",
      "hash": "4659e1d8f4a40f5c613599840a0680a609e66359b5d6ce9cdea0d4754c2171de",
      "version": 1,
      "size": 135,
      "vsize": 135,
      "weight": 540,
      "locktime": 0,
      "vin": [
        {
          "coinbase": "04ffff001d022a03",
          "sequence": 4294967295
        }
      ],
      "vout": [
        {
          "value": 50.0,
          "n": 0,
          "scriptPubKey": {
            "asm": "048729e9f1506c3587b3c7f02a07221210e7d52d4339edcf9e84855d981c2df21a2d8d4cea5a61cb47a3a2cbf4922bf8434049e93e389fce07f2d3173d3492bf97 OP_CHECKSIG",
            "desc": "pk(048729e9f1506c3587b3c7f02a07221210e7d52d4339edcf9e84855d981c2df21a2d8d4cea5a61cb47a3a2cbf4922bf8434049e93e389fce07f2d3173d3492bf97)#x4u0ql9m",
            "hex": "41048729e9f1506c3587b3c7f02a07221210e7d52d4339edcf9e84855d981c2df21a2d8d4cea5a61cb47a3a2cbf4922bf8434049e93e389fce07f2d3173d3492bf97ac",
            "type": "pubkey"
          }
        }
      ],
      "hex": "01000000010000000000000000000000000000000000000000000000000000000000000000ffffffff0804ffff001d022a03ffffffff0100f2052a010000004341048729e9f1506c3587b3c7f02a07221210e7d52d4339edcf9e84855d981c2df21a2d8d4cea5a61cb47a3a2cbf4922bf8434049e93e389fce07f2d3173d3492bf97ac00000000"
    }
  ]
}