{
  "hash": "00000000708b7636f212f961e7cba2690180d94a465f6638434294945f96560d",
  "confirmations": 44168,
  "height": 8930,
  "version": 1,
  "versionHex": "00000001",
  "merkleroot": "2915a88062cccdb6ae36f3fd45efe2d5494f48d60f8693999a28cf4fb3348f9b",
  "time": 1238201932,
  "mediantime": 1238198472,
  "nonce": 3005892611,
  "bits": "1d00ffff",
  "difficulty": 1,
  "chainwork": "000000000000000000000000000000000000000000000000000022e322e322e3",
  "nTx": 1,
  "previousblockhash": "000000004c0d9d28f458d311db3de69f0fce041f04815b6d100ddcef2456cf9a",
  "nextblockhash": "000000004c1c619de034b362b803027e8e0f2dafcab0ab6b8fc9913f59d9e8dc",
  "strippedsize": 216,
  "size": 216,
  "weight": 864,
  "tx": [
    {
      "txid": "2915a88062cccdb6ae36f3fd45efe2d5494f48d60f8693999a28cf4fb3348f9b",
      "hash": "2915a88062cccdb6ae36f3fd45efe2d5494f48d60f8693999a28cf4fb3348f9b",
      "version": 1,
      "size": 135,
      "vsize": 135,
      "weight": 540,
      "locktime": 0,
      "vin": [
        {
          "coinbase": "04ffff001d022905",
          "sequence": 4294967295
        }
      ],
      "vout": [
        {
          "value": 50.0,
          "n": 0,
          "scriptPubKey": {
            "asm": "04a37070e46ff00dcc4bbe4b700c0389854b803bc12660455cfe88a0a7df39a31f49405a1e537afb1292347817852016abdf9354fba7fb2d4eba41f69404e2cd94 OP_CHECKSIG",
            "desc": "pk(04a37070e46ff00dcc4bbe4b700c0389854b803bc12660455cfe88a0a7df39a31f49405a1e537afb1292347817852016abdf9354fba7fb2d4eba41f69404e2cd94)#lhhsf48g",
            "hex": "4104a37070e46ff00dcc4bbe4b700c0389854b803bc12660455cfe88a0a7df39a31f49405a1e537afb1292347817852016abdf9354fba7fb2d4eba41f69404e2cd94ac",
            "type": "pubkey"
          }
        }
      ],
      "hex": "01000000010000000000000000000000000000000000000000000000000000000000000000ffffffff0804ffff001d022905ffffffff0100f2052a01000000434104a37070e46ff00dcc4bbe4b700c0389854b803bc12660455cfe88a0a7df39a31f49405a1e537afb1292347817852016abdf9354fba7fb2d4eba41f69404e2cd94ac00000000"
    }
  ]
}