{
  "hash": "00000000a21fce31e6146319bf426fcb54556266d7f3ec5b13815eb032aef3fb",
  "confirmations": 44478,
  "height": 8620,
  "version": 1,
  "versionHex": "00000001",
  "merkleroot": "c6db34374ac11b422b060cfbb2c1dfbe94c9e7ea779f5b82be52cd9355b00abb",
  "time": 1237963794,
  "mediantime": 1237959793,
  "nonce": 124443970,
  "bits": "1d00ffff",
  "difficulty": 1,
  "chainwork": "000000000000000000000000000000000000000000000000000021ad21ad21ad",
  "nTx": 1,
  "previousblockhash": "00000000c19d44a43443f81bcf4cf215168c63a28e47383f718fc12a305f36c2",
  "nextblockhash": "000000006b42e1d71181aadb7c104c0f7d68407fd576158c467427367afb3501",
  "strippedsize": 216,
  "size": 216,
  "weight": 864,
  "tx": [
    {
      "txid": "c6db34374ac11b422b060cfbb2c1dfbe94c9e7ea779f5b82be52cd9355b00abb",
      "hash": "c6db34374ac11b422b060cfbb2c1dfbe94c9e7ea779f5b82be52cd9355b00abb",
      "version": 1,
      "size": 135,
      "vsize": 135,
      "weight": 540,
      "locktime": 0,
      "vin": [
        {
          "coinbase": "04ffff001d025f0c",
          "sequence": 4294967295
        }
      ],
      "vout": [
        {
          "value": 50.0,
          "n": 0,
          "scriptPubKey": {
            "asm": "047863a3ea341a2279826480620435b749e48e1c3a433599dab566d512cd4fe924038e29c71fa757fa4dbdfaad6f53e8ea3f14f0480dee49898d90dad3a85d436b OP_CHECKSIG",
            "desc": "pk(047863a3ea341a2279826480620435b749e48e1c3a433599dab566d512cd4fe924038e29c71fa757fa4dbdfaad6f53e8ea3f14f0480dee49898d90dad3a85d436b)#cdq3ldgt",
            "hex": "41047863a3ea341a2279826480620435b749e48e1c3a433599dab566d512cd4fe924038e29c71fa757fa4dbdfaad6f53e8ea3f14f0480dee49898d90dad3a85d436bac",
            "type": "pubkey"
          }
        }
      ],
      "hex": "01000000010000000000000000000000000000000000000000000000000000000000000000ffffffff0804ffff001d025f0cffffffff0100f2052a010000004341047863a3ea341a2279826480620435b749e48e1c3a433599dab566d512cd4fe924038e29c71fa757fa4dbdfaad6f53e8ea3f14f0480dee49898d90dad3a85d436bac00000000"
    }
  ]
}