{
  "hash": "00000000d12a0e207d618ea3d25f4d63d8c9dd818cb0f79576b64c8f756d151c",
  "confirmations": 49041,
  "height": 4057,
  "version": 1,
  "versionHex": "00000001",
  "merkleroot": "06e34cde1135dbb3b1aab0c01afd0c68d05f728ad09f70778b28038e4a5efff2",
  "time": 1234482320,
  "mediantime": 1234479005,
  "nonce": 2045516342,
  "bits": "1d00ffff",
  "difficulty": 1,
  "chainwork": "00000000000000000000000000000000000000000000000000000fda0fda0fda",
  "nTx": 1,
  "previousblockhash": "00000000b005d169de586881ca9d11d8cf998c76284887996ae5d98ebe7778ee",
  "nextblockhash": "00000000eb4792b5842f8fdba6d8fd2283b5447931a0a31c05cfaecbd2b9bafb",
  "strippedsize": 216,
  "size": 216,
  "weight": 864,
  "tx": [
    {
      "txid": "06e34cde1135dbb3b1aab0c01afd0c68d05f728ad09f70778b28038e4a5efff2",
      "hash": "06e34cde1135dbb3b1aab0c01afd0c68d05f728ad09f70778b28038e4a5efff2",
      "version": 1,
      "size": 135,
      "vsize": 135,
      "weight": 540,
      "locktime": 0,
      "vin": [
        {
          "coinbase": "04ffff001d024805",
          "sequence": 4294967295
        }
      ],
      "vout": [
        {
          "value": 50.0,
          "n": 0,
          "scriptPubKey": {
            "asm": "04336c1b7becbde6b11d6683a83e4190e72d5b5eaa3035003828e868e4ef81e5c7491567bdbf19b60eb221b84b4f2e1054fe6cf678ffdc447a776c231b8a75b869 OP_CHECKSIG",
            "desc": "pk(04336c1b7becbde6b11d6683a83e4190e72d5b5eaa3035003828e868e4ef81e5c7491567bdbf19b60eb221b84b4f2e1054fe6cf678ffdc447a776c231b8a75b869)#zaxdnsww",
            "hex": "4104336c1b7becbde6b11d6683a83e4190e72d5b5eaa3035003828e868e4ef81e5c7491567bdbf19b60eb221b84b4f2e1054fe6cf678ffdc447a776c231b8a75b869ac",
            "type": "pubkey"
          }
        }
      ],
      "hex": "01000000010000000000000000000000000000000000000000000000000000000000000000ffffffff0804ffff001d024805ffffffff0100f2052a01000000434104336c1b7becbde6b11d6683a83e4190e72d5b5eaa3035003828e868e4ef81e5c7491567bdbf19b60eb221b84b4f2e1054fe6cf678ffdc447a776c231b8a75b869ac00000000"
    }
  ]
}