{
  "hash": "00000000ef518f0c1cfa351a02ad267f83a1165d959ce1d757b138e1cfea4f0f",
  "confirmations": 45130,
  "height": 7968,
  "version": 1,
  "versionHex": "00000001",
  "merkleroot": "cfb0c76778095e5903c039964825ac09f8c223b28d769d1d67695b19b4f28606",
  "time": 1237440451,
  "mediantime": 1237436909,
  "nonce": 2293524480,
  "bits": "1d00ffff",
  "difficulty": 1,
  "chainwork": "00000000000000000000000000000000000000000000000000001f211f211f21",
  "nTx": 1,
  "previousblockhash": "00000000b27e51b65247e5d4f0fc2922209298dec199e2d6ad8eda9910c2e756",
  "nextblockhash": "00000000ff6a75efa096d7040538a5944eb0ef351b01f6a8871d92de5a9a1dc4",
  "strippedsize": 216,
  "size": 216,
  "weight": 864,
  "tx": [
    {
      "txid": "cfb0c76778095e5903c039964825ac09f8c223b28d769d1d67695b19b4f28606",
      "hash": "cfb0c76778095e5903c039964825ac09f8c223b28d769d1d67695b19b4f28606",
      "version": 1,
      "size": 135,
      "vsize": 135,
      "weight": 540,
      "locktime": 0,
      "vin": [
        {
          "coinbase": "04ffff001d02c808",
          "sequence": 4294967295
        }
      ],
      "vout": [
        {
          "value": 50.0,
          "n": 0,
          "scriptPubKey": {
            "asm": "04248c7b43fdd10db103cea5369ebc747462de346f6dd68e513cb30b6487859f719082feeae4cce07937ca13c21fcf2c445e6d3fad7551b52102f9066292005f08 OP_CHECKSIG",
            "desc": "pk(04248c7b43fdd10db103cea5369ebc747462de346f6dd68e513cb30b6487859f719082feeae4cce07937ca13c21fcf2c445e6d3fad7551b52102f9066292005f08)#hlrrms5d",
            "hex": "4104248c7b43fdd10db103cea5369ebc747462de346f6dd68e513cb30b6487859f719082feeae4cce07937ca13c21fcf2c445e6d3fad7551b52102f9066292005f08ac",
            "type": "pubkey"
          }
        }
      ],
      "hex": "01000000010000000000000000000000000000000000000000000000000000000000000000ffffffff0804ffff001d02c808ffffffff0100f2052a01000000434104248c7b43fdd10db103cea5369ebc747462de346f6dd68e513cb30b6487859f719082feeae4cce07937ca13c21fcf2c445e6d3fad7551b52102f9066292005f08ac00000000"
    }
  ]
}