{
  "hash": "00000000a87073ea3d7af299e02a434598b9c92094afa552e0711afcc0857962",
  "confirmations": 51828,
  "height": 33,
  "version": 1,
  "versionHex": "00000001",
  "merkleroot": "bdeaa0089cd84670da5e6385f0185c2d7978bf57a1aa5540d3ff3b3eabaa1210",
  "time": 1231603939,
  "mediantime": 1231601457,
  "nonce": 1076005922,
  "bits": "1d00ffff",
  "difficulty": 1,
  "chainwork": "0000000000000000000000000000000000000000000000000000002200220022",
  "nTx": 1,
  "previousblockhash": "00000000e5cb7c6c273547b0c9421b01e23310ed83f934b96270f35a4d66f6e3",
  "nextblockhash": "00000000a73fb23b6c42b18b3253ed29c5d0c80d84624efa12c2cf05c4b4318f",
  "strippedsize": 215,
  "size": 215,
  "weight": 860,
  "tx": [
    {
      "txid": "bdeaa0089cd84670da5e6385f0185c2d7978bf57a1aa5540d3ff3b3eabaa1210",
      "hash": "bdeaa0089cd84670da5e6385f0185c2d7978bf57a1aa5540d3ff3b3eabaa1210",
      "version": 1,
      "size": 134,
      "vsize": 134,
      "weight": 536,
      "locktime": 0,
      "vin": [
        {
          "coinbase": "04ffff001d0138",
          "sequence": 4294967295
        }
      ],
      "vout": [
        {
          "value": 50.0,
          "n": 0,
          "scriptPubKey": {
            "asm": "04804d71f6a91c908a973cae7ef4363f7689520116b995d6936328de00be56f92baee0dabf3a240e0ed2dce7f374f12cbba7649808528236cb04c558f028dd61ed OP_CHECKSIG",
            "desc": "pk(04804d71f6a91c908a973cae7ef4363f7689520116b995d6936328de00be56f92baee0dabf3a240e0ed2dce7f374f12cbba7649808528236cb04c558f028dd61ed)#nqkl9q4z",
            "hex": "4104804d71f6a91c908a973cae7ef4363f7689520116b995d6936328de00be56f92baee0dabf3a240e0ed2dce7f374f12cbba7649808528236cb04c558f028dd61edac",
            "type": "pubkey"
          }
        }
      ],
      "hex": "01000000010000000000000000000000000000000000000000000000000000000000000000ffffffff0704ffff001d0138ffffffff0100f2052a01000000434104804d71f6a91c908a973cae7ef4363f7689520116b995d6936328de00be56f92baee0dabf3a240e0ed2dce7f374f12cbba7649808528236cb04c558f028dd61edac00000000"
    }
  ]
}