{
  "hash": "00000000fd4411e3f13508716399cf84b669649cc9e358588af36400f71e9cc9",
  "confirmations": 47697,
  "height": 5401,
  "version": 1,
  "versionHex": "00000001",
  "merkleroot": "dff3dc86e6a58c7f98b6fc14c70953eb6076492aeca02525c9294867f085c61f",
  "time": 1235441982,
  "mediantime": 1235438340,
  "nonce": 216256021,
  "bits": "1d00ffff",
  "difficulty": 1,
  "chainwork": "0000000000000000000000000000000000000000000000000000151a151a151a",
  "nTx": 1,
  "previousblockhash": "000000003819e45f96d069bb41dfa72e94c0ee0c9c97a1b127b62e8613b71374",
  "nextblockhash": "0000000008be8b0c151aff5a75be4e99f28e72de027972afd65ee9d0de09ccd6",
  "strippedsize": 216,
  "size": 216,
  "weight": 864,
  "tx": [
    {
      "txid": "dff3dc86e6a58c7f98b6fc14c70953eb6076492aeca02525c9294867f085c61f",
      "hash": "dff3dc86e6a58c7f98b6fc14c70953eb6076492aeca02525c9294867f085c61f",
      "version": 1,
      "size": 135,
      "vsize": 135,
      "weight": 540,
      "locktime": 0,
      "vin": [
        {
          "coinbase": "04ffff001d02dc06",
          "sequence": 4294967295
        }
      ],
      "vout": [
        {
          "value": 50.0,
          "n": 0,
          "scriptPubKey": {
            "asm": "04de843f89aad1acf933095f2db8f2af5bf168c9d4761235fa57d4426258f536cdaa0704064321a74d439b188610cf13fd9bfe93228e175a683a39b490a746151f OP_CHECKSIG",
            "desc": "pk(04de843f89aad1acf933095f2db8f2af5bf168c9d4761235fa57d4426258f536cdaa0704064321a74d439b188610cf13fd9bfe93228e175a683a39b490a746151f)#qhhp5rw4",
            "hex": "4104de843f89aad1acf933095f2db8f2af5bf168c9d4761235fa57d4426258f536cdaa0704064321a74d439b188610cf13fd9bfe93228e175a683a39b490a746151fac",
            "type": "pubkey"
          }
        }
      ],
      "hex": "01000000010000000000000000000000000000000000000000000000000000000000000000ffffffff0804ffff001d02dc06ffffffff0100f2052a01000000434104de843f89aad1acf933095f2db8f2af5bf168c9d4761235fa57d4426258f536cdaa0704064321a74d439b188610cf13fd9bfe93228e175a683a39b490a746151fac00000000"
    }
  ]
}