{
  "hash": "00000000fcdec9bd76882d76697b6fa477aec7df646272958d557b366765159f",
  "confirmations": 46175,
  "height": 6923,
  "version": 1,
  "versionHex": "00000001",
  "merkleroot": "8a1ae33c082fa12369c26cf56f90725a6344d64534bbde9895ad4dc46b490cd6",
  "time": 1236654178,
  "mediantime": 1236651452,
  "nonce": 357171232,
  "bits": "1d00ffff",
  "difficulty": 1,
  "chainwork": "00000000000000000000000000000000000000000000000000001b0c1b0c1b0c",
  "nTx": 1,
  "previousblockhash": "000000004fa16ed5632c76e1d5f038c1fdddb38b6c5ef4640e6e04a49e14259a",
  "nextblockhash": "000000000c5fc06f9d1f5b21ae3b05715a5285315f272cfe5432c89b8bc1647b",
  "strippedsize": 216,
  "size": 216,
  "weight": 864,
  "tx": [
    {
      "txid": "8a1ae33c082fa12369c26cf56f90725a6344d64534bbde9895ad4dc46b490cd6",
      "hash": "8a1ae33c082fa12369c26cf56f90725a6344d64534bbde9895ad4dc46b490cd6",
      "version": 1,
      "size": 135,
      "vsize": 135,
      "weight": 540,
      "locktime": 0,
      "vin": [
        {
          "coinbase": "04ffff001d02ce00",
          "sequence": 4294967295
        }
      ],
      "vout": [
        {
          "value": 50.0,
          "n": 0,
          "scriptPubKey": {
            "asm": "04f6322b1058506e73038373cbdd7084f719387cd6f0d0fd787199cbfeeb6a339aabebc349057b9ba121d505da2881eb9e85722364a09264c97455529218b8d5f6 OP_CHECKSIG",
            "desc": "pk(04f6322b1058506e73038373cbdd7084f719387cd6f0d0fd787199cbfeeb6a339aabebc349057b9ba121d505da2881eb9e85722364a09264c97455529218b8d5f6)#7eh7j7zd",
            "hex": "4104f6322b1058506e73038373cbdd7084f719387cd6f0d0fd787199cbfeeb6a339aabebc349057b9ba121d505da2881eb9e85722364a09264c97455529218b8d5f6ac",
            "type": "pubkey"
          }
        }
      ],
      "hex": "01000000010000000000000000000000000000000000000000000000000000000000000000ffffffff0804ffff001d02ce00ffffffff0100f2052a01000000434104f6322b1058506e73038373cbdd7084f719387cd6f0d0fd787199cbfeeb6a339aabebc349057b9ba121d505da2881eb9e85722364a09264c97455529218b8d5f6ac00000000"
    }
  ]
}