{
  "hash": "00000000dfd83646eca8487419578da5dc0e30b425df78a857106f01149e9bcc",
  "confirmations": 52224,
  "height": 394,
  "version": 1,
  "versionHex": "00000001",
  "merkleroot": "b550304180c25457c810707c5fac13398a8c3abf56871e4cc4e4804336768b5b",
  "time": 1231897970,
  "mediantime": 1231894426,
  "nonce": 94149160,
  "bits": "1d00ffff",
  "difficulty": 1,
  "chainwork": "0000000000000000000000000000000000000000000000000000018b018b018b",
  "nTx": 1,
  "previousblockhash": "000000007ed76ca99c1c83cfdca1fb60104b38f848bc5d7762ffa38c60eaa32b",
  "nextblockhash": "00000000dae1bd72006c1f3f6c10763440906e7e7afbf1ffbd51ec020c3a10a8",
  "strippedsize": 215,
  "size": 215,
  "weight": 860,
  "tx": [
    {
      "txid": "b550304180c25457c810707c5fac13398a8c3abf56871e4cc4e4804336768b5b",
      "hash": "b550304180c25457c810707c5fac13398a8c3abf56871e4cc4e4804336768b5b",
      "version": 1,
      "size": 134,
      "vsize": 134,
      "weight": 536,
      "locktime": 0,
      "vin": [
        {
          "coinbase": "04ffff001d0109",
          "sequence": 4294967295
        }
      ],
      "vout": [
        {
          "value": 50.0,
          "n": 0,
          "scriptPubKey": {
            "asm": "043f9a59cee0ddd3fabce2a206e10e10d7aa4b078e7d2ccef11c587bb1133e057a06ba24c63b375e6dd6c28e00ba38f613156ee0225124d3ad062691febc9f5874 OP_CHECKSIG",
            "desc": "pk(043f9a59cee0ddd3fabce2a206e10e10d7aa4b078e7d2ccef11c587bb1133e057a06ba24c63b375e6dd6c28e00ba38f613156ee0225124d3ad062691febc9f5874)#cp32zsxj",
            "hex": "41043f9a59cee0ddd3fabce2a206e10e10d7aa4b078e7d2ccef11c587bb1133e057a06ba24c63b375e6dd6c28e00ba38f613156ee0225124d3ad062691febc9f5874ac",
            "type": "pubkey"
          }
        }
      ],
      "hex": "01000000010000000000000000000000000000000000000000000000000000000000000000ffffffff0704ffff001d0109ffffffff0100f2052a010000004341043f9a59cee0ddd3fabce2a206e10e10d7aa4b078e7d2ccef11c587bb1133e057a06ba24c63b375e6dd6c28e00ba38f613156ee0225124d3ad062691febc9f5874ac00000000"
    }
  ]
}