{
  "hash": "0000000032ffc93152542861b6fd778d1547e5b0b3f798fd372b1792005e1bd8",
  "confirmations": 48447,
  "height": 4651,
  "version": 1,
  "versionHex": "00000001",
  "merkleroot": "2872b62c72d7d441652df7b544e69a720ef466ecf23e57a251764bd1f20a2cb7",
  "time": 1234891688,
  "mediantime": 1234888445,
  "nonce": 1475340569,
  "bits": "1d00ffff",
  "difficulty": 1,
  "chainwork": "0000000000000000000000000000000000000000000000000000122c122c122c",
  "nTx": 1,
  "previousblockhash": "00000000c3b4e4a0e342f45c5444ddefe6ee5773b1fbabb46b7457c507f9023e",
  "nextblockhash": "00000000fe2ea7200c070eae20010570b94a05a4d8cf2c01a7bd029f78fe10b3",
  "strippedsize": 216,
  "size": 216,
  "weight": 864,
  "tx": [
    {
      "txid": "2872b62c72d7d441652df7b544e69a720ef466ecf23e57a251764bd1f20a2cb7",
      "hash": "2872b62c72d7d441652df7b544e69a720ef466ecf23e57a251764bd1f20a2cb7",
      "version": 1,
      "size": 135,
      "vsize": 135,
      "weight": 540,
      "locktime": 0,
      "vin": [
        {
          "coinbase": "04ffff001d02b001",
          "sequence": 4294967295
        }
      ],
      "vout": [
        {
          "value": 50.0,
          "n": 0,
          "scriptPubKey": {
            "asm": "0419fbd37c2fa2c02a9a71acefc0f9a04e918ba79b614d90a192102ace921898831cabd8848798bf7af353c4358abc7f74e4ee0c65a6ee13b1bd554c2b26b814e8 OP_CHECKSIG",
            "desc": "pk(0419fbd37c2fa2c02a9a71acefc0f9a04e918ba79b614d90a192102ace921898831cabd8848798bf7af353c4358abc7f74e4ee0c65a6ee13b1bd554c2b26b814e8)#3hp985ns",
            "hex": "410419fbd37c2fa2c02a9a71acefc0f9a04e918ba79b614d90a192102ace921898831cabd8848798bf7af353c4358abc7f74e4ee0c65a6ee13b1bd554c2b26b814e8ac",
            "type": "pubkey"
          }
        }
      ],
      "hex": "01000000010000000000000000000000000000000000000000000000000000000000000000ffffffff0804ffff001d02b001ffffffff0100f2052a0100000043410419fbd37c2fa2c02a9a71acefc0f9a04e918ba79b614d90a192102ace921898831cabd8848798bf7af353c4358abc7f74e4ee0c65a6ee13b1bd554c2b26b814e8ac00000000"
    }
  ]
}