{
  "hash": "0000000071dc739913e6c9c1189f92ecbc457b680a3d448c21bd1a2710a06a3e",
  "confirmations": 52210,
  "height": 888,
  "version": 1,
  "versionHex": "00000001",
  "merkleroot": "6d60f589667778cc6e7c59ea0af29db97dd691386b64947b5abed69aaf151a27",
  "time": 1232263401,
  "mediantime": 1232261425,
  "nonce": 2883207711,
  "bits": "1d00ffff",
  "difficulty": 1,
  "chainwork": "0000000000000000000000000000000000000000000000000000037903790379",
  "nTx": 1,
  "previousblockhash": "0000000038e0e9e7b9f3b26d59d0ceafd1240c931c2d810c464ea15fbfb150e4",
  "nextblockhash": "00000000c18cd3547c7e848abdb4b42966970abb1e8cfb4857bbc13e0e8dae06",
  "strippedsize": 216,
  "size": 216,
  "weight": 864,
  "tx": [
    {
      "txid": "6d60f589667778cc6e7c59ea0af29db97dd691386b64947b5abed69aaf151a27",
      "hash": "6d60f589667778cc6e7c59ea0af29db97dd691386b64947b5abed69aaf151a27",
      "version": 1,
      "size": 135,
      "vsize": 135,
      "weight": 540,
      "locktime": 0,
      "vin": [
        {
          "coinbase": "04ffff001d025e03",
          "sequence": 4294967295
        }
      ],
      "vout": [
        {
          "value": 50.0,
          "n": 0,
          "scriptPubKey": {
            "asm": "046f49ecb4dbb630ff4aa54b93e5b80e085ab3b22c00b53906ee896f6ca640190068b946f387dce025af18e1e9e6023e23880c6d669ff22e7ba41b62b7c6bd7597 OP_CHECKSIG",
            "desc": "pk(046f49ecb4dbb630ff4aa54b93e5b80e085ab3b22c00b53906ee896f6ca640190068b946f387dce025af18e1e9e6023e23880c6d669ff22e7ba41b62b7c6bd7597)#qf6lnllt",
            "hex": "41046f49ecb4dbb630ff4aa54b93e5b80e085ab3b22c00b53906ee896f6ca640190068b946f387dce025af18e1e9e6023e23880c6d669ff22e7ba41b62b7c6bd7597ac",
            "type": "pubkey"
          }
        }
      ],
      "hex": "01000000010000000000000000000000000000000000000000000000000000000000000000ffffffff0804ffff001d025e03ffffffff0100f2052a010000004341046f49ecb4dbb630ff4aa54b93e5b80e085ab3b22c00b53906ee896f6ca640190068b946f387dce025af18e1e9e6023e23880c6d669ff22e7ba41b62b7c6bd7597ac00000000"
    }
  ]
}