{
  "hash": "00000000dbc35f72e6cd66cef162d287a04552019dfeebb9b859d4637daa12d1",
  "confirmations": 46140,
  "height": 6958,
  "version": 1,
  "versionHex": "00000001",
  "merkleroot": "1808589c0e25d74cd5f9b809bf5cfa3b7797d6aa79336a3f12d191cfda9927e6",
  "time": 1236686272,
  "mediantime": 1236682346,
  "nonce": 349267764,
  "bits": "1d00ffff",
  "difficulty": 1,
  "chainwork": "00000000000000000000000000000000000000000000000000001b2f1b2f1b2f",
  "nTx": 1,
  "previousblockhash": "00000000b0878d57ff6d6ddd319ad193b7675ce577c38a4d75a368cc63f51176",
  "nextblockhash": "00000000336d019f0ed240b52f597d86f2104095307e8386d53f34e779056456",
  "strippedsize": 216,
  "size": 216,
  "weight": 864,
  "tx": [
    {
      "txid": "1808589c0e25d74cd5f9b809bf5cfa3b7797d6aa79336a3f12d191cfda9927e6",
      "hash": "1808589c0e25d74cd5f9b809bf5cfa3b7797d6aa79336a3f12d191cfda9927e6",
      "version": 1,
      "size": 135,
      "vsize": 135,
      "weight": 540,
      "locktime": 0,
      "vin": [
        {
          "coinbase": "04ffff001d027e01",
          "sequence": 4294967295
        }
      ],
      "vout": [
        {
          "value": 50.0,
          "n": 0,
          "scriptPubKey": {
            "asm": "0472377840d072007a27ed7ceea6dcaa97d04e6c74720108876f9913a14360fc76739fa29b132f37c152c8b0495133d0bdfa7b3a71332ed50143a4208d769cf517 OP_CHECKSIG",
            "desc": "pk(0472377840d072007a27ed7ceea6dcaa97d04e6c74720108876f9913a14360fc76739fa29b132f37c152c8b0495133d0bdfa7b3a71332ed50143a4208d769cf517)#87yehupq",
            "hex": "410472377840d072007a27ed7ceea6dcaa97d04e6c74720108876f9913a14360fc76739fa29b132f37c152c8b0495133d0bdfa7b3a71332ed50143a4208d769cf517ac",
            "type": "pubkey"
          }
        }
      ],
      "hex": "01000000010000000000000000000000000000000000000000000000000000000000000000ffffffff0804ffff001d027e01ffffffff0100f2052a0100000043410472377840d072007a27ed7ceea6dcaa97d04e6c74720108876f9913a14360fc76739fa29b132f37c152c8b0495133d0bdfa7b3a71332ed50143a4208d769cf517ac00000000"
    }
  ]
}