{
  "hash": "00000000038394ae9db16d211b90453c249291f3a0bf5567d60b3447d6353a8b",
  "confirmations": 45413,
  "height": 7685,
  "version": 1,
  "versionHex": "00000001",
  "merkleroot": "2d0460b16a94d9ba9ed54e29001ce53c2188a226f8411d5181e6fd20fbcbc885",
  "time": 1237227390,
  "mediantime": 1237224103,
  "nonce": 4130293257,
  "bits": "1d00ffff",
  "difficulty": 1,
  "chainwork": "00000000000000000000000000000000000000000000000000001e061e061e06",
  "nTx": 1,
  "previousblockhash": "000000009a94c63fbdfe0d037cd520fa47972b857d218b6362981d12c37076f2",
  "nextblockhash": "00000000921e00a5a6d80d8ccf201db757941594e98afb128c18b5b19f63f4e1",
  "strippedsize": 216,
  "size": 216,
  "weight": 864,
  "tx": [
    {
      "txid": "2d0460b16a94d9ba9ed54e29001ce53c2188a226f8411d5181e6fd20fbcbc885",
      "hash": "2d0460b16a94d9ba9ed54e29001ce53c2188a226f8411d5181e6fd20fbcbc885",
      "version": 1,
      "size": 135,
      "vsize": 135,
      "weight": 540,
      "locktime": 0,
      "vin": [
        {
          "coinbase": "04ffff001d02df03",
          "sequence": 4294967295
        }
      ],
      "vout": [
        {
          "value": 50.0,
          "n": 0,
          "scriptPubKey": {
            "asm": "04293d1378b2b348ecc1b6c1f3538c5cbdb35f5cabbc28ffb7440c8885d912fd64860c74f7aece7376433b37232c37e320a7e5dc751236c86b776e5d98a343bfd4 OP_CHECKSIG",
            "desc": "pk(04293d1378b2b348ecc1b6c1f3538c5cbdb35f5cabbc28ffb7440c8885d912fd64860c74f7aece7376433b37232c37e320a7e5dc751236c86b776e5d98a343bfd4)#lxhhuvkv",
            "hex": "4104293d1378b2b348ecc1b6c1f3538c5cbdb35f5cabbc28ffb7440c8885d912fd64860c74f7aece7376433b37232c37e320a7e5dc751236c86b776e5d98a343bfd4ac",
            "type": "pubkey"
          }
        }
      ],
      "hex": "01000000010000000000000000000000000000000000000000000000000000000000000000ffffffff0804ffff001d02df03ffffffff0100f2052a01000000434104293d1378b2b348ecc1b6c1f3538c5cbdb35f5cabbc28ffb7440c8885d912fd64860c74f7aece7376433b37232c37e320a7e5dc751236c86b776e5d98a343bfd4ac00000000"
    }
  ]
}