{
  "hash": "000000000bc1a45e6c7d12b0f009bc069bdb5f111ca4f02c768b543d20cde197",
  "confirmations": 44817,
  "height": 8281,
  "version": 1,
  "versionHex": "00000001",
  "merkleroot": "7d2703ae48c1387acce2ad4d2d8db991dff7803c2abe12b38e088dbbf9d4d344",
  "time": 1237719811,
  "mediantime": 1237716828,
  "nonce": 2317884980,
  "bits": "1d00ffff",
  "difficulty": 1,
  "chainwork": "0000000000000000000000000000000000000000000000000000205a205a205a",
  "nTx": 1,
  "previousblockhash": "000000000f44e3e0d4a0936726c88a989772fe7c12ce7d62bdbfe01130ef86c0",
  "nextblockhash": "00000000336143357bbf9e497b7023108acff80a1a08b070789fabe856a4bb94",
  "strippedsize": 216,
  "size": 216,
  "weight": 864,
  "tx": [
    {
      "txid": "7d2703ae48c1387acce2ad4d2d8db991dff7803c2abe12b38e088dbbf9d4d344",
      "hash": "7d2703ae48c1387acce2ad4d2d8db991dff7803c2abe12b38e088dbbf9d4d344",
      "version": 1,
      "size": 135,
      "vsize": 135,
      "weight": 540,
      "locktime": 0,
      "vin": [
        {
          "coinbase": "04ffff001d02f603",
          "sequence": 4294967295
        }
      ],
      "vout": [
        {
          "value": 50.0,
          "n": 0,
          "scriptPubKey": {
            "asm": "049613f2161ca1297ff9355d84a81c6150ed37724874080596f6a5b919037768e69114800235cc56718ed9827ab5c68be7cd3227a52aff9d979ea4476b8666ca3d OP_CHECKSIG",
            "desc": "pk(049613f2161ca1297ff9355d84a81c6150ed37724874080596f6a5b919037768e69114800235cc56718ed9827ab5c68be7cd3227a52aff9d979ea4476b8666ca3d)#6u038d9y",
            "hex": "41049613f2161ca1297ff9355d84a81c6150ed37724874080596f6a5b919037768e69114800235cc56718ed9827ab5c68be7cd3227a52aff9d979ea4476b8666ca3dac",
            "type": "pubkey"
          }
        }
      ],
      "hex": "01000000010000000000000000000000000000000000000000000000000000000000000000ffffffff0804ffff001d02f603ffffffff0100f2052a010000004341049613f2161ca1297ff9355d84a81c6150ed37724874080596f6a5b919037768e69114800235cc56718ed9827ab5c68be7cd3227a52aff9d979ea4476b8666ca3dac00000000"
    }
  ]
}