{
  "hash": "000000009ac0d790d7b6cb821ffbe69985fad7180c29ad5428c7e4bebe8cb9c3",
  "confirmations": 51273,
  "height": 1825,
  "version": 1,
  "versionHex": "00000001",
  "merkleroot": "8101322baefcf03fd555580f8f88bccfa67cc3b3e23e18aa8fc46e414699fe1c",
  "time": 1232910591,
  "mediantime": 1232909136,
  "nonce": 1922263093,
  "bits": "1d00ffff",
  "difficulty": 1,
  "chainwork": "0000000000000000000000000000000000000000000000000000072207220722",
  "nTx": 1,
  "previousblockhash": "00000000fa225dd8ab95710b09a2fcba3d41e0bff4a9aeadc8b9d6350c6ba152",
  "nextblockhash": "00000000efbdf566f567a94898f070001a65dc36014122121dac3528713053e2",
  "strippedsize": 216,
  "size": 216,
  "weight": 864,
  "tx": [
    {
      "txid": "8101322baefcf03fd555580f8f88bccfa67cc3b3e23e18aa8fc46e414699fe1c",
      "hash": "8101322baefcf03fd555580f8f88bccfa67cc3b3e23e18aa8fc46e414699fe1c",
      "version": 1,
      "size": 135,
      "vsize": 135,
      "weight": 540,
      "locktime": 0,
      "vin": [
        {
          "coinbase": "04ffff001d025b04",
          "sequence": 4294967295
        }
      ],
      "vout": [
        {
          "value": 50.0,
          "n": 0,
          "scriptPubKey": {
            "asm": "044ac97505d8ee6ca922dc10f0ef7cbc368fd4c24c024c44201b89c3e8a268239bdc796a997b81223b7af07fd49ce039f2adee6bdc3153dbdba21e97240014f0ea OP_CHECKSIG",
            "desc": "pk(044ac97505d8ee6ca922dc10f0ef7cbc368fd4c24c024c44201b89c3e8a268239bdc796a997b81223b7af07fd49ce039f2adee6bdc3153dbdba21e97240014f0ea)#5450llzh",
            "hex": "41044ac97505d8ee6ca922dc10f0ef7cbc368fd4c24c024c44201b89c3e8a268239bdc796a997b81223b7af07fd49ce039f2adee6bdc3153dbdba21e97240014f0eaac",
            "type": "pubkey"
          }
        }
      ],
      "hex": "01000000010000000000000000000000000000000000000000000000000000000000000000ffffffff0804ffff001d025b04ffffffff0100f2052a010000004341044ac97505d8ee6ca922dc10f0ef7cbc368fd4c24c024c44201b89c3e8a268239bdc796a997b81223b7af07fd49ce039f2adee6bdc3153dbdba21e97240014f0eaac00000000"
    }
  ]
}