{
  "hash": "00000000be00819985a9bd99096f8b5f102a55ec6a6a04f9db42b1e1615b1c6a",
  "confirmations": 49938,
  "height": 3160,
  "version": 1,
  "versionHex": "00000001",
  "merkleroot": "84f22a293d5f7884a0b5d108bb38d6b68d6d88ff4c9d2a21888f1b21f5e888a4",
  "time": 1233873296,
  "mediantime": 1233869854,
  "nonce": 59705035,
  "bits": "1d00ffff",
  "difficulty": 1,
  "chainwork": "00000000000000000000000000000000000000000000000000000c590c590c59",
  "nTx": 1,
  "previousblockhash": "00000000269402b189261b69538fe8dfea4acac5370f772a83045b8ebb6293b9",
  "nextblockhash": "00000000f6b35310402b04383538314fb8a9399c4add35d0927a8d3807157d1b",
  "strippedsize": 216,
  "size": 216,
  "weight": 864,
  "tx": [
    {
      "txid": "84f22a293d5f7884a0b5d108bb38d6b68d6d88ff4c9d2a21888f1b21f5e888a4",
      "hash": "84f22a293d5f7884a0b5d108bb38d6b68d6d88ff4c9d2a21888f1b21f5e888a4",
      "version": 1,
      "size": 135,
      "vsize": 135,
      "weight": 540,
      "locktime": 0,
      "vin": [
        {
          "coinbase": "04ffff001d02d807",
          "sequence": 4294967295
        }
      ],
      "vout": [
        {
          "value": 50.0,
          "n": 0,
          "scriptPubKey": {
            "asm": "046a6f0d23a41e79654e172228665c2e16793e348a33dc1563abd4fdde022671a3826dc5f028fd0883dd684c9858a8d4384498de7a74c1fbde04a2572215df2bf8 OP_CHECKSIG",
            "desc": "pk(046a6f0d23a41e79654e172228665c2e16793e348a33dc1563abd4fdde022671a3826dc5f028fd0883dd684c9858a8d4384498de7a74c1fbde04a2572215df2bf8)#dlt4jrg5",
            "hex": "41046a6f0d23a41e79654e172228665c2e16793e348a33dc1563abd4fdde022671a3826dc5f028fd0883dd684c9858a8d4384498de7a74c1fbde04a2572215df2bf8ac",
            "type": "pubkey"
          }
        }
      ],
      "hex": "01000000010000000000000000000000000000000000000000000000000000000000000000ffffffff0804ffff001d02d807ffffffff0100f2052a010000004341046a6f0d23a41e79654e172228665c2e16793e348a33dc1563abd4fdde022671a3826dc5f028fd0883dd684c9858a8d4384498de7a74c1fbde04a2572215df2bf8ac00000000"
    }
  ]
}