{
  "hash": "000000009bb83b66dc1addd894f80eb7066b32e3f753f83e970ea074d97ce248",
  "confirmations": 47230,
  "height": 5868,
  "version": 1,
  "versionHex": "00000001",
  "merkleroot": "28b5d2546234a22c00c1ee6c5c1efd94ab02cbc885c981a077c08c5dd6429655",
  "time": 1235816269,
  "mediantime": 1235811261,
  "nonce": 912604425,
  "bits": "1d00ffff",
  "difficulty": 1,
  "chainwork": "000000000000000000000000000000000000000000000000000016ed16ed16ed",
  "nTx": 1,
  "previousblockhash": "0000000099944783286a0d443b6ae43b177af9c85cd45174a3e4d3b15e1681f8",
  "nextblockhash": "00000000404b5328de24b1830dc776736e2c9ad9b64497929be592d84a856eae",
  "strippedsize": 216,
  "size": 216,
  "weight": 864,
  "tx": [
    {
      "txid": "28b5d2546234a22c00c1ee6c5c1efd94ab02cbc885c981a077c08c5dd6429655",
      "hash": "28b5d2546234a22c00c1ee6c5c1efd94ab02cbc885c981a077c08c5dd6429655",
      "version": 1,
      "size": 135,
      "vsize": 135,
      "weight": 540,
      "locktime": 0,
      "vin": [
        {
          "coinbase": "04ffff001d024702",
          "sequence": 4294967295
        }
      ],
      "vout": [
        {
          "value": 50.0,
          "n": 0,
          "scriptPubKey": {
            "asm": "04ed09b73eec447d0c759b761a9eece8a204f4fed97e05351427bba970c1450f793fb8d805be1bf0e2f6e7e9b53425625753362bcb229eb9e02ee5e65291dfb6b6 OP_CHECKSIG",
            "desc": "pk(04ed09b73eec447d0c759b761a9eece8a204f4fed97e05351427bba970c1450f793fb8d805be1bf0e2f6e7e9b53425625753362bcb229eb9e02ee5e65291dfb6b6)#jsd78sjr",
            "hex": "4104ed09b73eec447d0c759b761a9eece8a204f4fed97e05351427bba970c1450f793fb8d805be1bf0e2f6e7e9b53425625753362bcb229eb9e02ee5e65291dfb6b6ac",
            "type": "pubkey"
          }
        }
      ],
      "hex": "01000000010000000000000000000000000000000000000000000000000000000000000000ffffffff0804ffff001d024702ffffffff0100f2052a01000000434104ed09b73eec447d0c759b761a9eece8a204f4fed97e05351427bba970c1450f793fb8d805be1bf0e2f6e7e9b53425625753362bcb229eb9e02ee5e65291dfb6b6ac00000000"
    }
  ]
}