{
  "hash": "00000000841cb802ca97cf20fb9470480cae9e5daa5d06b4a18ae2d5dd7f186f",
  "confirmations": 51793,
  "height": 19,
  "version": 1,
  "versionHex": "00000001",
  "merkleroot": "9b9e461221e5284f3bfe5656efdc8c7cc633b2f1beef54a86316bf2ae3a3e230",
  "time": 1231564974,
  "mediantime": 1231475589,
  "nonce": 766824726,
  "bits": "1d00ffff",
  "difficulty": 1,
  "chainwork": "0000000000000000000000000000000000000000000000000000001400140014",
  "nTx": 1,
  "previousblockhash": "000000008693e98cf893e4c85a446b410bb4dfa129bd1be582c09ed3f0261116",
  "nextblockhash": "0000000067a97a2a37b8f190a17f0221e9c3f4fa824ddffdc2e205eae834c8d7",
  "strippedsize": 215,
  "size": 215,
  "weight": 860,
  "tx": [
    {
      "txid": "9b9e461221e5284f3bfe5656efdc8c7cc633b2f1beef54a86316bf2ae3a3e230",
      "hash": "9b9e461221e5284f3bfe5656efdc8c7cc633b2f1beef54a86316bf2ae3a3e230",
      "version": 1,
      "size": 134,
      "vsize": 134,
      "weight": 536,
      "locktime": 0,
      "vin": [
        {
          "coinbase": "04ffff001d0116",
          "sequence": 4294967295
        }
      ],
      "vout": [
        {
          "value": 50.0,
          "n": 0,
          "scriptPubKey": {
            "asm": "04f5efde0c2d30ab28e3dbe804c1a4aaf13066f9b198a4159c76f8f79b3b20caf99f7c979ed6c71481061277a6fc8666977c249da99960c97c8d8714fda9f0e883 OP_CHECKSIG",
            "desc": "pk(04f5efde0c2d30ab28e3dbe804c1a4aaf13066f9b198a4159c76f8f79b3b20caf99f7c979ed6c71481061277a6fc8666977c249da99960c97c8d8714fda9f0e883)#c92uj809",
            "hex": "4104f5efde0c2d30ab28e3dbe804c1a4aaf13066f9b198a4159c76f8f79b3b20caf99f7c979ed6c71481061277a6fc8666977c249da99960c97c8d8714fda9f0e883ac",
            "type": "pubkey"
          }
        }
      ],
      "hex": "01000000010000000000000000000000000000000000000000000000000000000000000000ffffffff0704ffff001d0116ffffffff0100f2052a01000000434104f5efde0c2d30ab28e3dbe804c1a4aaf13066f9b198a4159c76f8f79b3b20caf99f7c979ed6c71481061277a6fc8666977c249da99960c97c8d8714fda9f0e883ac00000000"
    }
  ]
}