{
  "hash": "0000000093796514d4e96d8ac5be2dde84cef02be4174f0c18c5ef14a37f9672",
  "confirmations": 49449,
  "height": 3649,
  "version": 1,
  "versionHex": "00000001",
  "merkleroot": "ff05cd04c72e1f7ba3cda5bd721353b9bf737208d56a8d17322a608045f545dc",
  "time": 1234202599,
  "mediantime": 1234199771,
  "nonce": 73753273,
  "bits": "1d00ffff",
  "difficulty": 1,
  "chainwork": "00000000000000000000000000000000000000000000000000000e420e420e42",
  "nTx": 1,
  "previousblockhash": "00000000fb37cd685382c3f443159b5545a7c794ba1f1e2ac71779883757e387",
  "nextblockhash": "00000000c749e9a485d741a64f1684454e39524961b4f548cdbe77fc28634bef",
  "strippedsize": 215,
  "size": 215,
  "weight": 860,
  "tx": [
    {
      "txid": "ff05cd04c72e1f7ba3cda5bd721353b9bf737208d56a8d17322a608045f545dc",
      "hash": "ff05cd04c72e1f7ba3cda5bd721353b9bf737208d56a8d17322a608045f545dc",
      "version": 1,
      "size": 134,
      "vsize": 134,
      "weight": 536,
      "locktime": 0,
      "vin": [
        {
          "coinbase": "04ffff001d0176",
          "sequence": 4294967295
        }
      ],
      "vout": [
        {
          "value": 50.0,
          "n": 0,
          "scriptPubKey": {
            "asm": "04e25ec6d4b06c3fb7f915894c4431d472e7dd7ffc2b9ba1a5db496e0bdb477709f8955ad657e6e0330d72b86a4ec790e7fd8affec79f3a2aefc62dadd50280227 OP_CHECKSIG",
            "desc": "pk(04e25ec6d4b06c3fb7f915894c4431d472e7dd7ffc2b9ba1a5db496e0bdb477709f8955ad657e6e0330d72b86a4ec790e7fd8affec79f3a2aefc62dadd50280227)#ndxaa9v3",
            "hex": "4104e25ec6d4b06c3fb7f915894c4431d472e7dd7ffc2b9ba1a5db496e0bdb477709f8955ad657e6e0330d72b86a4ec790e7fd8affec79f3a2aefc62dadd50280227ac",
            "type": "pubkey"
          }
        }
      ],
      "hex": "01000000010000000000000000000000000000000000000000000000000000000000000000ffffffff0704ffff001d0176ffffffff0100f2052a01000000434104e25ec6d4b06c3fb7f915894c4431d472e7dd7ffc2b9ba1a5db496e0bdb477709f8955ad657e6e0330d72b86a4ec790e7fd8affec79f3a2aefc62dadd50280227ac00000000"
    }
  ]
}