{
  "hash": "00000000b163e32224f8b5c801883b7e30cf56f80be0cfcc8e5372361cad929c",
  "confirmations": 47192,
  "height": 5906,
  "version": 1,
  "versionHex": "00000001",
  "merkleroot": "aff9e6e35f3f45c05b4c125f2926c772d846ac4f6514e02968916a2313686eaa",
  "time": 1235848964,
  "mediantime": 1235844982,
  "nonce": 9972171,
  "bits": "1d00ffff",
  "difficulty": 1,
  "chainwork": "0000000000000000000000000000000000000000000000000000171317131713",
  "nTx": 1,
  "previousblockhash": "0000000037294dbcf218b34cf673ff8d640f43494e9af54850aa928c858311a1",
  "nextblockhash": "0000000009a6af2f8248f9661fd0e3381d812e83ef036e382620b64d79dffc0e",
  "strippedsize": 216,
  "size": 216,
  "weight": 864,
  "tx": [
    {
      "txid": "aff9e6e35f3f45c05b4c125f2926c772d846ac4f6514e02968916a2313686eaa",
      "hash": "aff9e6e35f3f45c05b4c125f2926c772d846ac4f6514e02968916a2313686eaa",
      "version": 1,
      "size": 135,
      "vsize": 135,
      "weight": 540,
      "locktime": 0,
      "vin": [
        {
          "coinbase": "04ffff001d023501",
          "sequence": 4294967295
        }
      ],
      "vout": [
        {
          "value": 50.0,
          "n": 0,
          "scriptPubKey": {
            "asm": "0421edd4b7ff6086a3dded376c67182755d00fda84dd5675998d8cd2be717e7297677603f0f3919bbd900e8656794ab244341e6088cc12242b55d178ba52a0602e OP_CHECKSIG",
            "desc": "pk(0421edd4b7ff6086a3dded376c67182755d00fda84dd5675998d8cd2be717e7297677603f0f3919bbd900e8656794ab244341e6088cc12242b55d178ba52a0602e)#gd2gahf0",
            "hex": "410421edd4b7ff6086a3dded376c67182755d00fda84dd5675998d8cd2be717e7297677603f0f3919bbd900e8656794ab244341e6088cc12242b55d178ba52a0602eac",
            "type": "pubkey"
          }
        }
      ],
      "hex": "01000000010000000000000000000000000000000000000000000000000000000000000000ffffffff0804ffff001d023501ffffffff0100f2052a0100000043410421edd4b7ff6086a3dded376c67182755d00fda84dd5675998d8cd2be717e7297677603f0f3919bbd900e8656794ab244341e6088cc12242b55d178ba52a0602eac00000000"
    }
  ]
}