{
  "hash": "0000000006dda83d1b09ce3e8787886c5b66261d56b1de7a4cfe57f1844982b6",
  "confirmations": 44545,
  "height": 8553,
  "version": 1,
  "versionHex": "00000001",
  "merkleroot": "3cd040e5d554c003b627a209bc9072249c4244b4e6d2b8ef161f7fad025c70cb",
  "time": 1237915394,
  "mediantime": 1237910614,
  "nonce": 4107696148,
  "bits": "1d00ffff",
  "difficulty": 1,
  "chainwork": "0000000000000000000000000000000000000000000000000000216a216a216a",
  "nTx": 1,
  "previousblockhash": "00000000017ac7b9647460e000c899a195fa583f9d31d60aed27277103021f60",
  "nextblockhash": "00000000013e8dfb7ca6ae8f942a90f656c9a675bc7335b3a4f5be39b3babc6f",
  "strippedsize": 216,
  "size": 216,
  "weight": 864,
  "tx": [
    {
      "txid": "3cd040e5d554c003b627a209bc9072249c4244b4e6d2b8ef161f7fad025c70cb",
      "hash": "3cd040e5d554c003b627a209bc9072249c4244b4e6d2b8ef161f7fad025c70cb",
      "version": 1,
      "size": 135,
      "vsize": 135,
      "weight": 540,
      "locktime": 0,
      "vin": [
        {
          "coinbase": "04ffff001d02d208",
          "sequence": 4294967295
        }
      ],
      "vout": [
        {
          "value": 50.0,
          "n": 0,
          "scriptPubKey": {
            "asm": "04cffd26584dcbfa30f1fd4b3a594b4e3ffe93f7317ec8c6a0befdde106cba7e3742f45dcda7bd6ae774f6148aad86c5f6af8cac64acea2eda00acdfc48b56e2d5 OP_CHECKSIG",
            "desc": "pk(04cffd26584dcbfa30f1fd4b3a594b4e3ffe93f7317ec8c6a0befdde106cba7e3742f45dcda7bd6ae774f6148aad86c5f6af8cac64acea2eda00acdfc48b56e2d5)#7gplrwvr",
            "hex": "4104cffd26584dcbfa30f1fd4b3a594b4e3ffe93f7317ec8c6a0befdde106cba7e3742f45dcda7bd6ae774f6148aad86c5f6af8cac64acea2eda00acdfc48b56e2d5ac",
            "type": "pubkey"
          }
        }
      ],
      "hex": "01000000010000000000000000000000000000000000000000000000000000000000000000ffffffff0804ffff001d02d208ffffffff0100f2052a01000000434104cffd26584dcbfa30f1fd4b3a594b4e3ffe93f7317ec8c6a0befdde106cba7e3742f45dcda7bd6ae774f6148aad86c5f6af8cac64acea2eda00acdfc48b56e2d5ac00000000"
    }
  ]
}