{
  "hash": "00000000613a98b6b1ff823ae8af5b1613f436e1b1ef62744ae39df6c62d7b0c",
  "confirmations": 51002,
  "height": 2096,
  "version": 1,
  "versionHex": "00000001",
  "merkleroot": "31149618c8828028c60c267de926846dd6d882b6e14517a5bfd33227cfdad7ad",
  "time": 1233134558,
  "mediantime": 1233130235,
  "nonce": 2068588038,
  "bits": "1d00ffff",
  "difficulty": 1,
  "chainwork": "0000000000000000000000000000000000000000000000000000083108310831",
  "nTx": 1,
  "previousblockhash": "00000000bd56ca2b4b827de4a87fd1e5b4bd0437236cef6cc1cbf32b586e16eb",
  "nextblockhash": "000000005a4e2652c424379e180ba98a3e6ebec92df5f25c4307e663302808ef",
  "strippedsize": 216,
  "size": 216,
  "weight": 864,
  "tx": [
    {
      "txid": "31149618c8828028c60c267de926846dd6d882b6e14517a5bfd33227cfdad7ad",
      "hash": "31149618c8828028c60c267de926846dd6d882b6e14517a5bfd33227cfdad7ad",
      "version": 1,
      "size": 135,
      "vsize": 135,
      "weight": 540,
      "locktime": 0,
      "vin": [
        {
          "coinbase": "04ffff001d029903",
          "sequence": 4294967295
        }
      ],
      "vout": [
        {
          "value": 50.0,
          "n": 0,
          "scriptPubKey": {
            "asm": "04effa35df74c2535b7e9ad135aa832f3f423e12369030ad65bb79a8d06d0c47688ff8c556d5be141bcafbdf3cd6fb4425f2f7360185fdd2b1179e0f0e64d3dce3 OP_CHECKSIG",
            "desc": "pk(04effa35df74c2535b7e9ad135aa832f3f423e12369030ad65bb79a8d06d0c47688ff8c556d5be141bcafbdf3cd6fb4425f2f7360185fdd2b1179e0f0e64d3dce3)#dp2nx4f5",
            "hex": "4104effa35df74c2535b7e9ad135aa832f3f423e12369030ad65bb79a8d06d0c47688ff8c556d5be141bcafbdf3cd6fb4425f2f7360185fdd2b1179e0f0e64d3dce3ac",
            "type": "pubkey"
          }
        }
      ],
      "hex": "01000000010000000000000000000000000000000000000000000000000000000000000000ffffffff0804ffff001d029903ffffffff0100f2052a01000000434104effa35df74c2535b7e9ad135aa832f3f423e12369030ad65bb79a8d06d0c47688ff8c556d5be141bcafbdf3cd6fb4425f2f7360185fdd2b1179e0f0e64d3dce3ac00000000"
    }
  ]
}