{
  "hash": "000000002dad07ba20fc8a110e570f4adfb105c1dd1f660ded4fa4b88838bdd8",
  "confirmations": 46579,
  "height": 6519,
  "version": 1,
  "versionHex": "00000001",
  "merkleroot": "713894f8e322c1cb8c2cc9554b2c6015e68c20e0dc06737d1283d20179cf8c2a",
  "time": 1236341814,
  "mediantime": 1236338568,
  "nonce": 35725314,
  "bits": "1d00ffff",
  "difficulty": 1,
  "chainwork": "0000000000000000000000000000000000000000000000000000197819781978",
  "nTx": 1,
  "previousblockhash": "0000000070e817b3a18fc341b538032ae23b0e063c4f15f460ec639d19e4d235",
  "nextblockhash": "000000005c6249dd02d3e46c71bf449e50b6ba16d0e241d7da1c7df3eb422901",
  "strippedsize": 216,
  "size": 216,
  "weight": 864,
  "tx": [
    {
      "txid": "713894f8e322c1cb8c2cc9554b2c6015e68c20e0dc06737d1283d20179cf8c2a",
      "hash": "713894f8e322c1cb8c2cc9554b2c6015e68c20e0dc06737d1283d20179cf8c2a",
      "version": 1,
      "size": 135,
      "vsize": 135,
      "weight": 540,
      "locktime": 0,
      "vin": [
        {
          "coinbase": "04ffff001d02f603",
          "sequence": 4294967295
        }
      ],
      "vout": [
        {
          "value": 50.0,
          "n": 0,
          "scriptPubKey": {
            "asm": "045f738bb9041c6e5046cdede5e0d0492aa897b1dd84a4f63fb5e4c8dc6098cbbd5523a135e37dc75a9afdcc64426e8d92977cf7b77bff7793885851bf29620e78 OP_CHECKSIG",
            "desc": "pk(045f738bb9041c6e5046cdede5e0d0492aa897b1dd84a4f63fb5e4c8dc6098cbbd5523a135e37dc75a9afdcc64426e8d92977cf7b77bff7793885851bf29620e78)#w7rky6ak",
            "hex": "41045f738bb9041c6e5046cdede5e0d0492aa897b1dd84a4f63fb5e4c8dc6098cbbd5523a135e37dc75a9afdcc64426e8d92977cf7b77bff7793885851bf29620e78ac",
            "type": "pubkey"
          }
        }
      ],
      "hex": "01000000010000000000000000000000000000000000000000000000000000000000000000ffffffff0804ffff001d02f603ffffffff0100f2052a010000004341045f738bb9041c6e5046cdede5e0d0492aa897b1dd84a4f63fb5e4c8dc6098cbbd5523a135e37dc75a9afdcc64426e8d92977cf7b77bff7793885851bf29620e78ac00000000"
    }
  ]
}