{
  "hash": "0000000041b04aa7c4de065196858b0cb9fce59b3d36b438e59043bba4c68ab3",
  "confirmations": 47813,
  "height": 5285,
  "version": 1,
  "versionHex": "00000001",
  "merkleroot": "93125b309ece213c75e61fbc347a75480bb00ef8148c2448a0239e8a99499297",
  "time": 1235348562,
  "mediantime": 1235344964,
  "nonce": 1646200841,
  "bits": "1d00ffff",
  "difficulty": 1,
  "chainwork": "000000000000000000000000000000000000000000000000000014a614a614a6",
  "nTx": 1,
  "previousblockhash": "000000008d4c1547c65043606c7e22c2630dd66a078e77e1b0e9cf70dfa95ef3",
  "nextblockhash": "000000005c9912b5b1fb72d43e990d730e8826dd1629d33214cbc74828eab8f4",
  "strippedsize": 216,
  "size": 216,
  "weight": 864,
  "tx": [
    {
      "txid": "93125b309ece213c75e61fbc347a75480bb00ef8148c2448a0239e8a99499297",
      "hash": "93125b309ece213c75e61fbc347a75480bb00ef8148c2448a0239e8a99499297",
      "version": 1,
      "size": 135,
      "vsize": 135,
      "weight": 540,
      "locktime": 0,
      "vin": [
        {
          "coinbase": "04ffff001d02d601",
          "sequence": 4294967295
        }
      ],
      "vout": [
        {
          "value": 50.0,
          "n": 0,
          "scriptPubKey": {
            "asm": "04f7350ee9e3a5283ec65ee428dc671cf03d9797d1593efe1aac58be675bf209e1210b7d3cfe689345307781ff05dad820d1b1f10b701961a16708c23a03164686 OP_CHECKSIG",
            "desc": "pk(04f7350ee9e3a5283ec65ee428dc671cf03d9797d1593efe1aac58be675bf209e1210b7d3cfe689345307781ff05dad820d1b1f10b701961a16708c23a03164686)#73rxutvn",
            "hex": "4104f7350ee9e3a5283ec65ee428dc671cf03d9797d1593efe1aac58be675bf209e1210b7d3cfe689345307781ff05dad820d1b1f10b701961a16708c23a03164686ac",
            "type": "pubkey"
          }
        }
      ],
      "hex": "01000000010000000000000000000000000000000000000000000000000000000000000000ffffffff0804ffff001d02d601ffffffff0100f2052a01000000434104f7350ee9e3a5283ec65ee428dc671cf03d9797d1593efe1aac58be675bf209e1210b7d3cfe689345307781ff05dad820d1b1f10b701961a16708c23a03164686ac00000000"
    }
  ]
}