{
  "hash": "00000000e587ad57bf3f71554211864ff0f64148cfe62946916cc5bbe8736c00",
  "confirmations": 45641,
  "height": 7457,
  "version": 1,
  "versionHex": "00000001",
  "merkleroot": "060eef0fe200b0dfe83541f5bf2e37a33ca12551e1a4dccb5e51368551b3a7fc",
  "time": 1237068092,
  "mediantime": 1237063800,
  "nonce": 81303808,
  "bits": "1d00ffff",
  "difficulty": 1,
  "chainwork": "00000000000000000000000000000000000000000000000000001d221d221d22",
  "nTx": 1,
  "previousblockhash": "0000000051458a41664374205402cefad24ac4978f5bd25c499bc6bfb52daec5",
  "nextblockhash": "0000000006243ffb30638fb3f9a190776275ce9372a49854d22cb1a0d707cbbf",
  "strippedsize": 215,
  "size": 215,
  "weight": 860,
  "tx": [
    {
      "txid": "060eef0fe200b0dfe83541f5bf2e37a33ca12551e1a4dccb5e51368551b3a7fc",
      "hash": "060eef0fe200b0dfe83541f5bf2e37a33ca12551e1a4dccb5e51368551b3a7fc",
      "version": 1,
      "size": 134,
      "vsize": 134,
      "weight": 536,
      "locktime": 0,
      "vin": [
        {
          "coinbase": "04ffff001d0143",
          "sequence": 4294967295
        }
      ],
      "vout": [
        {
          "value": 50.0,
          "n": 0,
          "scriptPubKey": {
            "asm": "0463b14911c4f4e8a4d16995b495dfb2e6764ed294a84698d09eddc26b66d39c6e1e058de6e2b08d2c5a3d6bced51da602361160c50d735ef1d8f7b68dc66e3835 OP_CHECKSIG",
            "desc": "pk(0463b14911c4f4e8a4d16995b495dfb2e6764ed294a84698d09eddc26b66d39c6e1e058de6e2b08d2c5a3d6bced51da602361160c50d735ef1d8f7b68dc66e3835)#cu6rscha",
            "hex": "410463b14911c4f4e8a4d16995b495dfb2e6764ed294a84698d09eddc26b66d39c6e1e058de6e2b08d2c5a3d6bced51da602361160c50d735ef1d8f7b68dc66e3835ac",
            "type": "pubkey"
          }
        }
      ],
      "hex": "01000000010000000000000000000000000000000000000000000000000000000000000000ffffffff0704ffff001d0143ffffffff0100f2052a0100000043410463b14911c4f4e8a4d16995b495dfb2e6764ed294a84698d09eddc26b66d39c6e1e058de6e2b08d2c5a3d6bced51da602361160c50d735ef1d8f7b68dc66e3835ac00000000"
    }
  ]
}