{
  "hash": "000000005befe9fe37f93556a7c9f71b258315e0b9e1d5e9173d41c24e12b472",
  "confirmations": 46330,
  "height": 6768,
  "version": 1,
  "versionHex": "00000001",
  "merkleroot": "1f9de336cdaa104bb140c9dbc18af951fe97ed3e7dcfff366ce5abb3e4b07423",
  "time": 1236535670,
  "mediantime": 1236531994,
  "nonce": 321069024,
  "bits": "1d00ffff",
  "difficulty": 1,
  "chainwork": "00000000000000000000000000000000000000000000000000001a711a711a71",
  "nTx": 1,
  "previousblockhash": "000000009d163a49baacdc309025cd43507a259d29e6f58799a3c9ba7a6f1cfe",
  "nextblockhash": "00000000d9bde484ef76bdc5e92bcb4398d231abb357653d05fef0adb0d75123",
  "strippedsize": 216,
  "size": 216,
  "weight": 864,
  "tx": [
    {
      "txid": "1f9de336cdaa104bb140c9dbc18af951fe97ed3e7dcfff366ce5abb3e4b07423",
      "hash": "1f9de336cdaa104bb140c9dbc18af951fe97ed3e7dcfff366ce5abb3e4b07423",
      "version": 1,
      "size": 135,
      "vsize": 135,
      "weight": 540,
      "locktime": 0,
      "vin": [
        {
          "coinbase": "04ffff001d023c0c",
          "sequence": 4294967295
        }
      ],
      "vout": [
        {
          "value": 50.0,
          "n": 0,
          "scriptPubKey": {
            "asm": "04ff41467d8a7f81debe5bfe888d682a13f32744f874e2feea90aabd1193538c060a7f5e0a69b60a336870e4ea977de50bcfad123ea86a7d837c78e42877a93216 OP_CHECKSIG",
            "desc": "pk(04ff41467d8a7f81debe5bfe888d682a13f32744f874e2feea90aabd1193538c060a7f5e0a69b60a336870e4ea977de50bcfad123ea86a7d837c78e42877a93216)#6cx8m58y",
            "hex": "4104ff41467d8a7f81debe5bfe888d682a13f32744f874e2feea90aabd1193538c060a7f5e0a69b60a336870e4ea977de50bcfad123ea86a7d837c78e42877a93216ac",
            "type": "pubkey"
          }
        }
      ],
      "hex": "01000000010000000000000000000000000000000000000000000000000000000000000000ffffffff0804ffff001d023c0cffffffff0100f2052a01000000434104ff41467d8a7f81debe5bfe888d682a13f32744f874e2feea90aabd1193538c060a7f5e0a69b60a336870e4ea977de50bcfad123ea86a7d837c78e42877a93216ac00000000"
    }
  ]
}