{
  "hash": "000000008cbae6bbf53ad8d4ebeedea04c889c3ec19804165a4b20a66f42afde",
  "confirmations": 44820,
  "height": 8278,
  "version": 1,
  "versionHex": "00000001",
  "merkleroot": "c9285d564816cabe3ed9d5d359daf2fcc92957190e6af0f93e917865b3ee7466",
  "time": 1237718246,
  "mediantime": 1237714854,
  "nonce": 806301739,
  "bits": "1d00ffff",
  "difficulty": 1,
  "chainwork": "0000000000000000000000000000000000000000000000000000205720572057",
  "nTx": 1,
  "previousblockhash": "000000001098e5eeaface1388dd57a76983180699df43b1c06fd8ff0e3786c63",
  "nextblockhash": "00000000fef7255d9362d277b89cf9828b874b78e774690bc09cb3a09b4514f5",
  "strippedsize": 216,
  "size": 216,
  "weight": 864,
  "tx": [
    {
      "txid": "c9285d564816cabe3ed9d5d359daf2fcc92957190e6af0f93e917865b3ee7466",
      "hash": "c9285d564816cabe3ed9d5d359daf2fcc92957190e6af0f93e917865b3ee7466",
      "version": 1,
      "size": 135,
      "vsize": 135,
      "weight": 540,
      "locktime": 0,
      "vin": [
        {
          "coinbase": "04ffff001d02e503",
          "sequence": 4294967295
        }
      ],
      "vout": [
        {
          "value": 50.0,
          "n": 0,
          "scriptPubKey": {
            "asm": "04237aacac9ba96573470d014d20131a556346cbb0da1a844ecba11cee1b1689a07552544e22486bbf09a63b4c48e4ff61a4331c639fbecd005c077bbc7207cb23 OP_CHECKSIG",
            "desc": "pk(04237aacac9ba96573470d014d20131a556346cbb0da1a844ecba11cee1b1689a07552544e22486bbf09a63b4c48e4ff61a4331c639fbecd005c077bbc7207cb23)#tg9awyu7",
            "hex": "4104237aacac9ba96573470d014d20131a556346cbb0da1a844ecba11cee1b1689a07552544e22486bbf09a63b4c48e4ff61a4331c639fbecd005c077bbc7207cb23ac",
            "type": "pubkey"
          }
        }
      ],
      "hex": "01000000010000000000000000000000000000000000000000000000000000000000000000ffffffff0804ffff001d02e503ffffffff0100f2052a01000000434104237aacac9ba96573470d014d20131a556346cbb0da1a844ecba11cee1b1689a07552544e22486bbf09a63b4c48e4ff61a4331c639fbecd005c077bbc7207cb23ac00000000"
    }
  ]
}