{
  "hash": "000000008970f72d61a047f50823cafe9d2b1fea1198e3f4a992816e7389b734",
  "confirmations": 50464,
  "height": 2634,
  "version": 1,
  "versionHex": "00000001",
  "merkleroot": "05bb97ea447aacaf6e44c68ffa8dd11ef2bce6826eb99d567b9968c8b971b9eb",
  "time": 1233516014,
  "mediantime": 1233512706,
  "nonce": 49957778,
  "bits": "1d00ffff",
  "difficulty": 1,
  "chainwork": "00000000000000000000000000000000000000000000000000000a4b0a4b0a4b",
  "nTx": 1,
  "previousblockhash": "0000000056dac9034059805345565f7fd0297ee4eef0a11fa3652a2b15db96ab",
  "nextblockhash": "00000000dbb5e3731817b7b7e796b71c0ec2801c787f7ca21772d4cc62366d42",
  "strippedsize": 215,
  "size": 215,
  "weight": 860,
  "tx": [
    {
      "txid": "05bb97ea447aacaf6e44c68ffa8dd11ef2bce6826eb99d567b9968c8b971b9eb",
      "hash": "05bb97ea447aacaf6e44c68ffa8dd11ef2bce6826eb99d567b9968c8b971b9eb",
      "version": 1,
      "size": 134,
      "vsize": 134,
      "weight": 536,
      "locktime": 0,
      "vin": [
        {
          "coinbase": "04ffff001d015e",
          "sequence": 4294967295
        }
      ],
      "vout": [
        {
          "value": 50.0,
          "n": 0,
          "scriptPubKey": {
            "asm": "043f3bfb3594aa21572abacc886a88101329c36827e33dee7375313c9439be5f12b14d567666c0080407f7aae7d9c81b68b37c0715af037102331f26568495272f OP_CHECKSIG",
            "desc": "pk(043f3bfb3594aa21572abacc886a88101329c36827e33dee7375313c9439be5f12b14d567666c0080407f7aae7d9c81b68b37c0715af037102331f26568495272f)#z3au83t0",
            "hex": "41043f3bfb3594aa21572abacc886a88101329c36827e33dee7375313c9439be5f12b14d567666c0080407f7aae7d9c81b68b37c0715af037102331f26568495272fac",
            "type": "pubkey"
          }
        }
      ],
      "hex": "01000000010000000000000000000000000000000000000000000000000000000000000000ffffffff0704ffff001d015effffffff0100f2052a010000004341043f3bfb3594aa21572abacc886a88101329c36827e33dee7375313c9439be5f12b14d567666c0080407f7aae7d9c81b68b37c0715af037102331f26568495272fac00000000"
    }
  ]
}