{
  "hash": "00000000be1c17b62356470ccf76fe597b67a32be2b85419eabdb70de230108b",
  "confirmations": 46640,
  "height": 6458,
  "version": 1,
  "versionHex": "00000001",
  "merkleroot": "95076766b4b0a1595e586193ddf7bbc7961f3eefaec3edc3fe5b6122208af6cc",
  "time": 1236298982,
  "mediantime": 1236295597,
  "nonce": 1019302940,
  "bits": "1d00ffff",
  "difficulty": 1,
  "chainwork": "0000000000000000000000000000000000000000000000000000193b193b193b",
  "nTx": 1,
  "previousblockhash": "000000007660d1d51a1bbbbc4fa973795056600b7e62b953f5a95b9f2a194372",
  "nextblockhash": "00000000d55d6408ce7d024168e5c0a051fa4892305145e59788a5deb1f6c0cf",
  "strippedsize": 216,
  "size": 216,
  "weight": 864,
  "tx": [
    {
      "txid": "95076766b4b0a1595e586193ddf7bbc7961f3eefaec3edc3fe5b6122208af6cc",
      "hash": "95076766b4b0a1595e586193ddf7bbc7961f3eefaec3edc3fe5b6122208af6cc",
      "version": 1,
      "size": 135,
      "vsize": 135,
      "weight": 540,
      "locktime": 0,
      "vin": [
        {
          "coinbase": "04ffff001d02b902",
          "sequence": 4294967295
        }
      ],
      "vout": [
        {
          "value": 50.0,
          "n": 0,
          "scriptPubKey": {
            "asm": "0445d57f1ae75d4137be4dc46cb0a55bbbf99111ef801927c6781d264da9d1b76403f7f97d4a02e74537f23479602030dda33dbc472a43cbd821e5d40af487686b OP_CHECKSIG",
            "desc": "pk(0445d57f1ae75d4137be4dc46cb0a55bbbf99111ef801927c6781d264da9d1b76403f7f97d4a02e74537f23479602030dda33dbc472a43cbd821e5d40af487686b)#9e7jnwne",
            "hex": "410445d57f1ae75d4137be4dc46cb0a55bbbf99111ef801927c6781d264da9d1b76403f7f97d4a02e74537f23479602030dda33dbc472a43cbd821e5d40af487686bac",
            "type": "pubkey"
          }
        }
      ],
      "hex": "01000000010000000000000000000000000000000000000000000000000000000000000000ffffffff0804ffff001d02b902ffffffff0100f2052a0100000043410445d57f1ae75d4137be4dc46cb0a55bbbf99111ef801927c6781d264da9d1b76403f7f97d4a02e74537f23479602030dda33dbc472a43cbd821e5d40af487686bac00000000"
    }
  ]
}