{
  "hash": "00000000ceffe58b53f20d14bec6c194968983ddab9504e187f88c0b5aea8d7e",
  "confirmations": 47722,
  "height": 5376,
  "version": 1,
  "versionHex": "00000001",
  "merkleroot": "d2b7ecac21c622f275c6672f37ab4ff41d5e8d1f650f74a357e90e9394192ab5",
  "time": 1235420744,
  "mediantime": 1235417774,
  "nonce": 274095156,
  "bits": "1d00ffff",
  "difficulty": 1,
  "chainwork": "0000000000000000000000000000000000000000000000000000150115011501",
  "nTx": 1,
  "previousblockhash": "00000000f4892fe38a0410bb3d10c5a2781c3c99c34980e0b2c822164525ddc1",
  "nextblockhash": "0000000072decba8d531c499f60ba06e5a1f652bd27acce716c421770d8e1717",
  "strippedsize": 216,
  "size": 216,
  "weight": 864,
  "tx": [
    {
      "txid": "d2b7ecac21c622f275c6672f37ab4ff41d5e8d1f650f74a357e90e9394192ab5",
      "hash": "d2b7ecac21c622f275c6672f37ab4ff41d5e8d1f650f74a357e90e9394192ab5",
      "version": 1,
      "size": 135,
      "vsize": 135,
      "weight": 540,
      "locktime": 0,
      "vin": [
        {
          "coinbase": "04ffff001d024b03",
          "sequence": 4294967295
        }
      ],
      "vout": [
        {
          "value": 50.0,
          "n": 0,
          "scriptPubKey": {
            "asm": "047f3b993a0fa49a12ef2d6360da61a777470968602a2504262467cd22f5af3784bb9e9d87d0617880c36c0d273a4c5b7a6dd5797153b8f0bbb426361e49f9432c OP_CHECKSIG",
            "desc": "pk(047f3b993a0fa49a12ef2d6360da61a777470968602a2504262467cd22f5af3784bb9e9d87d0617880c36c0d273a4c5b7a6dd5797153b8f0bbb426361e49f9432c)#c25tfszx",
            "hex": "41047f3b993a0fa49a12ef2d6360da61a777470968602a2504262467cd22f5af3784bb9e9d87d0617880c36c0d273a4c5b7a6dd5797153b8f0bbb426361e49f9432cac",
            "type": "pubkey"
          }
        }
      ],
      "hex": "01000000010000000000000000000000000000000000000000000000000000000000000000ffffffff0804ffff001d024b03ffffffff0100f2052a010000004341047f3b993a0fa49a12ef2d6360da61a777470968602a2504262467cd22f5af3784bb9e9d87d0617880c36c0d273a4c5b7a6dd5797153b8f0bbb426361e49f9432cac00000000"
    }
  ]
}