{
  "hash": "00000000405bfdffa152f3b18730c43f3ccfea4d07a53b08139bdbccc8b3b659",
  "confirmations": 43169,
  "height": 9929,
  "version": 1,
  "versionHex": "00000001",
  "merkleroot": "48b1c93424b76c7087e972c36508140ce1d923e75587817a8686a7da13db46c5",
  "time": 1238941705,
  "mediantime": 1238937185,
  "nonce": 2181591850,
  "bits": "1d00ffff",
  "difficulty": 1,
  "chainwork": "000000000000000000000000000000000000000000000000000026ca26ca26ca",
  "nTx": 1,
  "previousblockhash": "00000000ee4865665da87173e7dfab18e5b9221751d5366ac15a538961f615a6",
  "nextblockhash": "000000004fdea739522363a4e39cc3f474b9b210e9808a80d381871b906f0b07",
  "strippedsize": 216,
  "size": 216,
  "weight": 864,
  "tx": [
    {
      "txid": "48b1c93424b76c7087e972c36508140ce1d923e75587817a8686a7da13db46c5",
      "hash": "48b1c93424b76c7087e972c36508140ce1d923e75587817a8686a7da13db46c5",
      "version": 1,
      "size": 135,
      "vsize": 135,
      "weight": 540,
      "locktime": 0,
      "vin": [
        {
          "coinbase": "04ffff001d027e02",
          "sequence": 4294967295
        }
      ],
      "vout": [
        {
          "value": 50.0,
          "n": 0,
          "scriptPubKey": {
            "asm": "04cc8d27b2b6704809703a36839ed34a562001873b30b85fe84ad6f49912fdef39f862801d24fbfc45bb178fe13905e45073f3bc6d48e4a1f07e96a49b3dd1c9e2 OP_CHECKSIG",
            "desc": "pk(04cc8d27b2b6704809703a36839ed34a562001873b30b85fe84ad6f49912fdef39f862801d24fbfc45bb178fe13905e45073f3bc6d48e4a1f07e96a49b3dd1c9e2)#xjyz5kw7",
            "hex": "4104cc8d27b2b6704809703a36839ed34a562001873b30b85fe84ad6f49912fdef39f862801d24fbfc45bb178fe13905e45073f3bc6d48e4a1f07e96a49b3dd1c9e2ac",
            "type": "pubkey"
          }
        }
      ],
      "hex": "01000000010000000000000000000000000000000000000000000000000000000000000000ffffffff0804ffff001d027e02ffffffff0100f2052a01000000434104cc8d27b2b6704809703a36839ed34a562001873b30b85fe84ad6f49912fdef39f862801d24fbfc45bb178fe13905e45073f3bc6d48e4a1f07e96a49b3dd1c9e2ac00000000"
    }
  ]
}