{
  "hash": "00000000ea45133dfb3c76ffc0e75c4c0c5dcc21fa14ba9998cc8e77d4600d98",
  "confirmations": 46645,
  "height": 6453,
  "version": 1,
  "versionHex": "00000001",
  "merkleroot": "e4f93377148ce61e5b92a1aa286d260f8086bfd61fdbffc6d22148182d30e330",
  "time": 1236295597,
  "mediantime": 1236292433,
  "nonce": 1077728006,
  "bits": "1d00ffff",
  "difficulty": 1,
  "chainwork": "0000000000000000000000000000000000000000000000000000193619361936",
  "nTx": 1,
  "previousblockhash": "000000009acc756a47a300705afab95771cf2b66d76988eddf464016fe3ca89b",
  "nextblockhash": "00000000e3b9afe6d09b959e337f8aad6e73a74afb10dca0a6f79abb65fa5a91",
  "strippedsize": 216,
  "size": 216,
  "weight": 864,
  "tx": [
    {
      "txid": "e4f93377148ce61e5b92a1aa286d260f8086bfd61fdbffc6d22148182d30e330",
      "hash": "e4f93377148ce61e5b92a1aa286d260f8086bfd61fdbffc6d22148182d30e330",
      "version": 1,
      "size": 135,
      "vsize": 135,
      "weight": 540,
      "locktime": 0,
      "vin": [
        {
          "coinbase": "04ffff001d02a602",
          "sequence": 4294967295
        }
      ],
      "vout": [
        {
          "value": 50.0,
          "n": 0,
          "scriptPubKey": {
            "asm": "04e48746614ef5345ef5c5b04ce4d51e0ea9dad60d8ffe53f6fb11d504474576710a4fda26324d57020bcef3721fe00bde2b433dd38a0b3f397bdfb107bff96542 OP_CHECKSIG",
            "desc": "pk(04e48746614ef5345ef5c5b04ce4d51e0ea9dad60d8ffe53f6fb11d504474576710a4fda26324d57020bcef3721fe00bde2b433dd38a0b3f397bdfb107bff96542)#mlpjfw8e",
            "hex": "4104e48746614ef5345ef5c5b04ce4d51e0ea9dad60d8ffe53f6fb11d504474576710a4fda26324d57020bcef3721fe00bde2b433dd38a0b3f397bdfb107bff96542ac",
            "type": "pubkey"
          }
        }
      ],
      "hex": "01000000010000000000000000000000000000000000000000000000000000000000000000ffffffff0804ffff001d02a602ffffffff0100f2052a01000000434104e48746614ef5345ef5c5b04ce4d51e0ea9dad60d8ffe53f6fb11d504474576710a4fda26324d57020bcef3721fe00bde2b433dd38a0b3f397bdfb107bff96542ac00000000"
    }
  ]
}