{
  "hash": "0000000000586980359c4c669ce5247c4d084a03923f48f7f964857d4aba21b7",
  "confirmations": 48966,
  "height": 4132,
  "version": 1,
  "versionHex": "00000001",
  "merkleroot": "10b28638a9b3d00eed7da6410bf58607943699de78781f91b96fbe3d8f3326d2",
  "time": 1234535464,
  "mediantime": 1234530312,
  "nonce": 3727185181,
  "bits": "1d00ffff",
  "difficulty": 1,
  "chainwork": "0000000000000000000000000000000000000000000000000000102510251025",
  "nTx": 1,
  "previousblockhash": "000000009eca8facdc4a10396808034cd74acb4b25d5591105458a0cedf571be",
  "nextblockhash": "0000000084baae7baafe67ce82785de8ef378ead4d9c9e911d8fba78d56c68b3",
  "strippedsize": 216,
  "size": 216,
  "weight": 864,
  "tx": [
    {
      "txid": "10b28638a9b3d00eed7da6410bf58607943699de78781f91b96fbe3d8f3326d2",
      "hash": "10b28638a9b3d00eed7da6410bf58607943699de78781f91b96fbe3d8f3326d2",
      "version": 1,
      "size": 135,
      "vsize": 135,
      "weight": 540,
      "locktime": 0,
      "vin": [
        {
          "coinbase": "04ffff001d025d06",
          "sequence": 4294967295
        }
      ],
      "vout": [
        {
          "value": 50.0,
          "n": 0,
          "scriptPubKey": {
            "asm": "0493e47722e21056cfb9f45ee9146a448973ebe67f00083cb5c811a671bcfe4df049708e5221abfe9dc9c6e60e547c1dc9ace641dc836278672dfa15dc7c92375c OP_CHECKSIG",
            "desc": "pk(0493e47722e21056cfb9f45ee9146a448973ebe67f00083cb5c811a671bcfe4df049708e5221abfe9dc9c6e60e547c1dc9ace641dc836278672dfa15dc7c92375c)#w5wlnhkg",
            "hex": "410493e47722e21056cfb9f45ee9146a448973ebe67f00083cb5c811a671bcfe4df049708e5221abfe9dc9c6e60e547c1dc9ace641dc836278672dfa15dc7c92375cac",
            "type": "pubkey"
          }
        }
      ],
      "hex": "01000000010000000000000000000000000000000000000000000000000000000000000000ffffffff0804ffff001d025d06ffffffff0100f2052a0100000043410493e47722e21056cfb9f45ee9146a448973ebe67f00083cb5c811a671bcfe4df049708e5221abfe9dc9c6e60e547c1dc9ace641dc836278672dfa15dc7c92375cac00000000"
    }
  ]
}