{
  "hash": "00000000670dfcebdfff4c8c0ef726645b0c51400b464b9f55c73e6377f160cc",
  "confirmations": 46898,
  "height": 6200,
  "version": 1,
  "versionHex": "00000001",
  "merkleroot": "9f2509c6f7bec1986a00537528a93a9e16012a555a15204c0bdedecfc6bfc26c",
  "time": 1236091245,
  "mediantime": 1236085472,
  "nonce": 2249377822,
  "bits": "1d00ffff",
  "difficulty": 1,
  "chainwork": "0000000000000000000000000000000000000000000000000000183918391839",
  "nTx": 1,
  "previousblockhash": "00000000276217ea9d792c820e08e8c9123e2979585194398d4118cfc7f7e6b6",
  "nextblockhash": "00000000ce6f8700f60c1814cf727e5c05360bfbf87676f6cbbd8cc1c89c6d1b",
  "strippedsize": 216,
  "size": 216,
  "weight": 864,
  "tx": [
    {
      "txid": "9f2509c6f7bec1986a00537528a93a9e16012a555a15204c0bdedecfc6bfc26c",
      "hash": "9f2509c6f7bec1986a00537528a93a9e16012a555a15204c0bdedecfc6bfc26c",
      "version": 1,
      "size": 135,
      "vsize": 135,
      "weight": 540,
      "locktime": 0,
      "vin": [
        {
          "coinbase": "04ffff001d027008",
          "sequence": 4294967295
        }
      ],
      "vout": [
        {
          "value": 50.0,
          "n": 0,
          "scriptPubKey": {
            "asm": "0402ff2d50a33a0ad55c2804a51bdbe7d59fdf795201189ed705171aa4a4ff9f451e4738a4b5507d6de779314ec903e5c4cc3d8e721dadeaaaa95340fceb3b76d2 OP_CHECKSIG",
            "desc": "pk(0402ff2d50a33a0ad55c2804a51bdbe7d59fdf795201189ed705171aa4a4ff9f451e4738a4b5507d6de779314ec903e5c4cc3d8e721dadeaaaa95340fceb3b76d2)#2lklpj28",
            "hex": "410402ff2d50a33a0ad55c2804a51bdbe7d59fdf795201189ed705171aa4a4ff9f451e4738a4b5507d6de779314ec903e5c4cc3d8e721dadeaaaa95340fceb3b76d2ac",
            "type": "pubkey"
          }
        }
      ],
      "hex": "01000000010000000000000000000000000000000000000000000000000000000000000000ffffffff0804ffff001d027008ffffffff0100f2052a0100000043410402ff2d50a33a0ad55c2804a51bdbe7d59fdf795201189ed705171aa4a4ff9f451e4738a4b5507d6de779314ec903e5c4cc3d8e721dadeaaaa95340fceb3b76d2ac00000000"
    }
  ]
}