{
  "hash": "00000000679a9b4bd9ee14552dd3bcc8330c75aa76191dd2c112db1ceee4926d",
  "confirmations": 52199,
  "height": 899,
  "version": 1,
  "versionHex": "00000001",
  "merkleroot": "37ec3f532eb4c95e636d2233aa6c23efff7e4b6427d9e41b134ef45cf86b7f3f",
  "time": 1232275311,
  "mediantime": 1232270118,
  "nonce": 359582267,
  "bits": "1d00ffff",
  "difficulty": 1,
  "chainwork": "0000000000000000000000000000000000000000000000000000038403840384",
  "nTx": 1,
  "previousblockhash": "00000000d7c1cc9c3b971360e854059298ae70a0d1a410a9aad67d49663088e1",
  "nextblockhash": "00000000e684309e67fabdf765bea193cdf8532111079b7f53a0839746d19240",
  "strippedsize": 216,
  "size": 216,
  "weight": 864,
  "tx": [
    {
      "txid": "37ec3f532eb4c95e636d2233aa6c23efff7e4b6427d9e41b134ef45cf86b7f3f",
      "hash": "37ec3f532eb4c95e636d2233aa6c23efff7e4b6427d9e41b134ef45cf86b7f3f",
      "version": 1,
      "size": 135,
      "vsize": 135,
      "weight": 540,
      "locktime": 0,
      "vin": [
        {
          "coinbase": "04ffff001d020601",
          "sequence": 4294967295
        }
      ],
      "vout": [
        {
          "value": 50.0,
          "n": 0,
          "scriptPubKey": {
            "asm": "04ee3db883f74efb633e0921582054fc7741c1d90b21425a434e14b18682fbbcd3e683b8a93e1c1b40e96e67fa136193f9c9cc3369e3a49b7672e889460d1b27d3 OP_CHECKSIG",
            "desc": "pk(04ee3db883f74efb633e0921582054fc7741c1d90b21425a434e14b18682fbbcd3e683b8a93e1c1b40e96e67fa136193f9c9cc3369e3a49b7672e889460d1b27d3)#z4ev74se",
            "hex": "4104ee3db883f74efb633e0921582054fc7741c1d90b21425a434e14b18682fbbcd3e683b8a93e1c1b40e96e67fa136193f9c9cc3369e3a49b7672e889460d1b27d3ac",
            "type": "pubkey"
          }
        }
      ],
      "hex": "01000000010000000000000000000000000000000000000000000000000000000000000000ffffffff0804ffff001d020601ffffffff0100f2052a01000000434104ee3db883f74efb633e0921582054fc7741c1d90b21425a434e14b18682fbbcd3e683b8a93e1c1b40e96e67fa136193f9c9cc3369e3a49b7672e889460d1b27d3ac00000000"
    }
  ]
}