{
  "hash": "000000002069040e1667d2c6d78c69d286e5ffea8cd97287cca8cfba3514b653",
  "confirmations": 44769,
  "height": 8329,
  "version": 1,
  "versionHex": "00000001",
  "merkleroot": "7266b2bb4f42a5cef760af745f785ff4b7fc396bbb2d1a0fb4cea71b70f7d71e",
  "time": 1237751606,
  "mediantime": 1237746966,
  "nonce": 1267006746,
  "bits": "1d00ffff",
  "difficulty": 1,
  "chainwork": "0000000000000000000000000000000000000000000000000000208a208a208a",
  "nTx": 1,
  "previousblockhash": "00000000244dee58451972a2a04486d0c04adf2539d35463b09734beaabea6df",
  "nextblockhash": "00000000107ee739e87b77fb9bab399165e4dd751dfc6c53fc9e5278c4d851dc",
  "strippedsize": 216,
  "size": 216,
  "weight": 864,
  "tx": [
    {
      "txid": "7266b2bb4f42a5cef760af745f785ff4b7fc396bbb2d1a0fb4cea71b70f7d71e",
      "hash": "7266b2bb4f42a5cef760af745f785ff4b7fc396bbb2d1a0fb4cea71b70f7d71e",
      "version": 1,
      "size": 135,
      "vsize": 135,
      "weight": 540,
      "locktime": 0,
      "vin": [
        {
          "coinbase": "04ffff001d029f04",
          "sequence": 4294967295
        }
      ],
      "vout": [
        {
          "value": 50.0,
          "n": 0,
          "scriptPubKey": {
            "asm": "04f666c0c4e0acf5f71e171bf3bbd30987a6afd1cefdc1a86debbdc6bf7428c758aad35a27770758ee6148abee3cac9b57a57533cf30b2f5008e2d570345b78d04 OP_CHECKSIG",
            "desc": "pk(04f666c0c4e0acf5f71e171bf3bbd30987a6afd1cefdc1a86debbdc6bf7428c758aad35a27770758ee6148abee3cac9b57a57533cf30b2f5008e2d570345b78d04)#pdy9fv4p",
            "hex": "4104f666c0c4e0acf5f71e171bf3bbd30987a6afd1cefdc1a86debbdc6bf7428c758aad35a27770758ee6148abee3cac9b57a57533cf30b2f5008e2d570345b78d04ac",
            "type": "pubkey"
          }
        }
      ],
      "hex": "01000000010000000000000000000000000000000000000000000000000000000000000000ffffffff0804ffff001d029f04ffffffff0100f2052a01000000434104f666c0c4e0acf5f71e171bf3bbd30987a6afd1cefdc1a86debbdc6bf7428c758aad35a27770758ee6148abee3cac9b57a57533cf30b2f5008e2d570345b78d04ac00000000"
    }
  ]
}