{
  "hash": "0000000094bfee5e5359e8913c5cfb461282629dff5776bb17b3addd593e53ab",
  "confirmations": 50086,
  "height": 3012,
  "version": 1,
  "versionHex": "00000001",
  "merkleroot": "386ec61f6598578dd5dc3a3f82134036f0dedfb4e72c2c53b8828d8c2308cd3d",
  "time": 1233770281,
  "mediantime": 1233766955,
  "nonce": 2724702494,
  "bits": "1d00ffff",
  "difficulty": 1,
  "chainwork": "00000000000000000000000000000000000000000000000000000bc50bc50bc5",
  "nTx": 1,
  "previousblockhash": "00000000c9e9198636900eff14109b07f973871c12e78d11e8a7ba1bae64f05b",
  "nextblockhash": "00000000b3f870834abddae4314818204529b780f833669157bb65b384d81621",
  "strippedsize": 216,
  "size": 216,
  "weight": 864,
  "tx": [
    {
      "txid": "386ec61f6598578dd5dc3a3f82134036f0dedfb4e72c2c53b8828d8c2308cd3d",
      "hash": "386ec61f6598578dd5dc3a3f82134036f0dedfb4e72c2c53b8828d8c2308cd3d",
      "version": 1,
      "size": 135,
      "vsize": 135,
      "weight": 540,
      "locktime": 0,
      "vin": [
        {
          "coinbase": "04ffff001d029901",
          "sequence": 4294967295
        }
      ],
      "vout": [
        {
          "value": 50.0,
          "n": 0,
          "scriptPubKey": {
            "asm": "0493bfe8f465c72f1d6a10b3e9a4cfb720f5ab43b62fba791c06f702d127e68a57d117399a5e9760ec3328dec6b521e2f1ec0875d45caa7664086f49e08a1116fe OP_CHECKSIG",
            "desc": "pk(0493bfe8f465c72f1d6a10b3e9a4cfb720f5ab43b62fba791c06f702d127e68a57d117399a5e9760ec3328dec6b521e2f1ec0875d45caa7664086f49e08a1116fe)#x56f72r9",
            "hex": "410493bfe8f465c72f1d6a10b3e9a4cfb720f5ab43b62fba791c06f702d127e68a57d117399a5e9760ec3328dec6b521e2f1ec0875d45caa7664086f49e08a1116feac",
            "type": "pubkey"
          }
        }
      ],
      "hex": "01000000010000000000000000000000000000000000000000000000000000000000000000ffffffff0804ffff001d029901ffffffff0100f2052a0100000043410493bfe8f465c72f1d6a10b3e9a4cfb720f5ab43b62fba791c06f702d127e68a57d117399a5e9760ec3328dec6b521e2f1ec0875d45caa7664086f49e08a1116feac00000000"
    }
  ]
}