{
  "hash": "000000001041a6f4076d4f5b0cc6d4a78028dce7711b0df42daa08703ace9427",
  "confirmations": 49985,
  "height": 3113,
  "version": 1,
  "versionHex": "00000001",
  "merkleroot": "3e8766dfa4ce752a29f265729ceceba1a7bd2fafcc9a4ec34976747676911d43",
  "time": 1233844702,
  "mediantime": 1233840717,
  "nonce": 1361159473,
  "bits": "1d00ffff",
  "difficulty": 1,
  "chainwork": "00000000000000000000000000000000000000000000000000000c2a0c2a0c2a",
  "nTx": 1,
  "previousblockhash": "00000000d36383f2c2fc24f6fd45b48dc171da5d5c6f285a43ea637b2f235acb",
  "nextblockhash": "0000000099d8c3452d0cf0c66a72d143ad09360e80ea3ee20cef58ced2b703ae",
  "strippedsize": 216,
  "size": 216,
  "weight": 864,
  "tx": [
    {
      "txid": "3e8766dfa4ce752a29f265729ceceba1a7bd2fafcc9a4ec34976747676911d43",
      "hash": "3e8766dfa4ce752a29f265729ceceba1a7bd2fafcc9a4ec34976747676911d43",
      "version": 1,
      "size": 135,
      "vsize": 135,
      "weight": 540,
      "locktime": 0,
      "vin": [
        {
          "coinbase": "04ffff001d026401",
          "sequence": 4294967295
        }
      ],
      "vout": [
        {
          "value": 50.0,
          "n": 0,
          "scriptPubKey": {
            "asm": "049eada8fab6e50ad1deedf02f4c577a0b4a94be05c8a183e8e2c7bebdce2e84ba2ebf3dc084d3351735ce6394a5a5714564fba64c3cbbe88357ffdd4cacd2fbd1 OP_CHECKSIG",
            "desc": "pk(049eada8fab6e50ad1deedf02f4c577a0b4a94be05c8a183e8e2c7bebdce2e84ba2ebf3dc084d3351735ce6394a5a5714564fba64c3cbbe88357ffdd4cacd2fbd1)#uszwu7ca",
            "hex": "41049eada8fab6e50ad1deedf02f4c577a0b4a94be05c8a183e8e2c7bebdce2e84ba2ebf3dc084d3351735ce6394a5a5714564fba64c3cbbe88357ffdd4cacd2fbd1ac",
            "type": "pubkey"
          }
        }
      ],
      "hex": "01000000010000000000000000000000000000000000000000000000000000000000000000ffffffff0804ffff001d026401ffffffff0100f2052a010000004341049eada8fab6e50ad1deedf02f4c577a0b4a94be05c8a183e8e2c7bebdce2e84ba2ebf3dc084d3351735ce6394a5a5714564fba64c3cbbe88357ffdd4cacd2fbd1ac00000000"
    }
  ]
}