{
  "hash": "00000000013f500570b064a9bcb07667ca77993430d602eeb536cfe29310d636",
  "confirmations": 48498,
  "height": 4600,
  "version": 1,
  "versionHex": "00000001",
  "merkleroot": "d7116195f83123d515f341380081157170ae2beec176974616bc3946bb075692",
  "time": 1234854020,
  "mediantime": 1234850897,
  "nonce": 190559005,
  "bits": "1d00ffff",
  "difficulty": 1,
  "chainwork": "000000000000000000000000000000000000000000000000000011f911f911f9",
  "nTx": 1,
  "previousblockhash": "00000000a87feccefe117276e9fceb8068f42477308dc5fcc3bd24bff05f12e8",
  "nextblockhash": "00000000c85651122f4f03d62f864068289e81f39e772314dc87eecd075189b6",
  "strippedsize": 216,
  "size": 216,
  "weight": 864,
  "tx": [
    {
      "txid": "d7116195f83123d515f341380081157170ae2beec176974616bc3946bb075692",
      "hash": "d7116195f83123d515f341380081157170ae2beec176974616bc3946bb075692",
      "version": 1,
      "size": 135,
      "vsize": 135,
      "weight": 540,
      "locktime": 0,
      "vin": [
        {
          "coinbase": "04ffff001d02d900",
          "sequence": 4294967295
        }
      ],
      "vout": [
        {
          "value": 50.0,
          "n": 0,
          "scriptPubKey": {
            "asm": "0490318dcea4edc72a8a87bbd2a3bc66cd84fe5058bdd42776de6cbda420d3f13770b9a3e279a41597122e29ef843c908686ff7f0642590f553ff9a09de1e3e1db OP_CHECKSIG",
            "desc": "pk(0490318dcea4edc72a8a87bbd2a3bc66cd84fe5058bdd42776de6cbda420d3f13770b9a3e279a41597122e29ef843c908686ff7f0642590f553ff9a09de1e3e1db)#m2p7tprq",
            "hex": "410490318dcea4edc72a8a87bbd2a3bc66cd84fe5058bdd42776de6cbda420d3f13770b9a3e279a41597122e29ef843c908686ff7f0642590f553ff9a09de1e3e1dbac",
            "type": "pubkey"
          }
        }
      ],
      "hex": "01000000010000000000000000000000000000000000000000000000000000000000000000ffffffff0804ffff001d02d900ffffffff0100f2052a0100000043410490318dcea4edc72a8a87bbd2a3bc66cd84fe5058bdd42776de6cbda420d3f13770b9a3e279a41597122e29ef843c908686ff7f0642590f553ff9a09de1e3e1dbac00000000"
    }
  ]
}