{
  "hash": "0000000075cb04f1f16535d33ad1a5e178e571447bbce2d0778325cc7ab49fbf",
  "confirmations": 43437,
  "height": 9661,
  "version": 1,
  "versionHex": "00000001",
  "merkleroot": "a9011a332933ffe80223d8fee730b6ae847e07c268daa639540a7e542f4f986f",
  "time": 1238747636,
  "mediantime": 1238745577,
  "nonce": 2657076500,
  "bits": "1d00ffff",
  "difficulty": 1,
  "chainwork": "000000000000000000000000000000000000000000000000000025be25be25be",
  "nTx": 1,
  "previousblockhash": "00000000d2600ad05e61ac036ce2260fc6ffc3fdd1180fcb1dc46a23c3f05eee",
  "nextblockhash": "00000000e4f5cca3f71da3e6dea6dd23e9a015a25a29457ff6998be25cfdac17",
  "strippedsize": 216,
  "size": 216,
  "weight": 864,
  "tx": [
    {
      "txid": "a9011a332933ffe80223d8fee730b6ae847e07c268daa639540a7e542f4f986f",
      "hash": "a9011a332933ffe80223d8fee730b6ae847e07c268daa639540a7e542f4f986f",
      "version": 1,
      "size": 135,
      "vsize": 135,
      "weight": 540,
      "locktime": 0,
      "vin": [
        {
          "coinbase": "04ffff001d02cf07",
          "sequence": 4294967295
        }
      ],
      "vout": [
        {
          "value": 50.0,
          "n": 0,
          "scriptPubKey": {
            "asm": "04e2dd7097baf01cc5b60cb744cf4d95b113e47b2e4ab330a5ebb4677feb9a82dbb4c76e6c747944573406063b26214c884df3d2be0de78f4e10285c1f7009f5c9 OP_CHECKSIG",
            "desc": "pk(04e2dd7097baf01cc5b60cb744cf4d95b113e47b2e4ab330a5ebb4677feb9a82dbb4c76e6c747944573406063b26214c884df3d2be0de78f4e10285c1f7009f5c9)#0gara8jk",
            "hex": "4104e2dd7097baf01cc5b60cb744cf4d95b113e47b2e4ab330a5ebb4677feb9a82dbb4c76e6c747944573406063b26214c884df3d2be0de78f4e10285c1f7009f5c9ac",
            "type": "pubkey"
          }
        }
      ],
      "hex": "01000000010000000000000000000000000000000000000000000000000000000000000000ffffffff0804ffff001d02cf07ffffffff0100f2052a01000000434104e2dd7097baf01cc5b60cb744cf4d95b113e47b2e4ab330a5ebb4677feb9a82dbb4c76e6c747944573406063b26214c884df3d2be0de78f4e10285c1f7009f5c9ac00000000"
    }
  ]
}