{
  "hash": "000000009142a40196f95eb651fb96ab906f06fad66aafd95bef2e8c341fdf6d",
  "confirmations": 45597,
  "height": 7501,
  "version": 1,
  "versionHex": "00000001",
  "merkleroot": "9c7adf65a932c1a906ba0093b632472404e82947f5b5d6d82775eb2fc329d2fd",
  "time": 1237099030,
  "mediantime": 1237094759,
  "nonce": 3839680518,
  "bits": "1d00ffff",
  "difficulty": 1,
  "chainwork": "00000000000000000000000000000000000000000000000000001d4e1d4e1d4e",
  "nTx": 1,
  "previousblockhash": "000000000ec68b31e49154680704cf194ed415a8d978343a19de657429de095d",
  "nextblockhash": "00000000c79101d0ebfe2dae22ea09d43d6503f35c99ae6f1082209fb56d1123",
  "strippedsize": 216,
  "size": 216,
  "weight": 864,
  "tx": [
    {
      "txid": "9c7adf65a932c1a906ba0093b632472404e82947f5b5d6d82775eb2fc329d2fd",
      "hash": "9c7adf65a932c1a906ba0093b632472404e82947f5b5d6d82775eb2fc329d2fd",
      "version": 1,
      "size": 135,
      "vsize": 135,
      "weight": 540,
      "locktime": 0,
      "vin": [
        {
          "coinbase": "04ffff001d02f700",
          "sequence": 4294967295
        }
      ],
      "vout": [
        {
          "value": 50.0,
          "n": 0,
          "scriptPubKey": {
            "asm": "0498ddb3e534d29c9c3a9f75e209d36ee66f2ac4132d6b72a31a9284fa743f15a026bd00afcfe79997709f8b1bbbb59b173d4238c1676d674c1c368a77e972904f OP_CHECKSIG",
            "desc": "pk(0498ddb3e534d29c9c3a9f75e209d36ee66f2ac4132d6b72a31a9284fa743f15a026bd00afcfe79997709f8b1bbbb59b173d4238c1676d674c1c368a77e972904f)#mwwcs5v5",
            "hex": "410498ddb3e534d29c9c3a9f75e209d36ee66f2ac4132d6b72a31a9284fa743f15a026bd00afcfe79997709f8b1bbbb59b173d4238c1676d674c1c368a77e972904fac",
            "type": "pubkey"
          }
        }
      ],
      "hex": "01000000010000000000000000000000000000000000000000000000000000000000000000ffffffff0804ffff001d02f700ffffffff0100f2052a0100000043410498ddb3e534d29c9c3a9f75e209d36ee66f2ac4132d6b72a31a9284fa743f15a026bd00afcfe79997709f8b1bbbb59b173d4238c1676d674c1c368a77e972904fac00000000"
    }
  ]
}