{
  "hash": "00000000592ac01ba4e9d4daec3da2b6fac63f0faefa0222c715b660c18ddcaa",
  "confirmations": 51918,
  "height": 1180,
  "version": 1,
  "versionHex": "00000001",
  "merkleroot": "a6986dadbaa962214fa72579f4fb30b12b132b3fe708f05f7b2d984f5de182f0",
  "time": 1232484648,
  "mediantime": 1232481678,
  "nonce": 3828663087,
  "bits": "1d00ffff",
  "difficulty": 1,
  "chainwork": "0000000000000000000000000000000000000000000000000000049d049d049d",
  "nTx": 1,
  "previousblockhash": "0000000034fc7458d2bb49e46e719ea47559ea30c20d8c5efade5990bb62e7f7",
  "nextblockhash": "00000000f39741da98b6f3401782b09fcfe02dba0ef247ac9f3342b70db463e1",
  "strippedsize": 216,
  "size": 216,
  "weight": 864,
  "tx": [
    {
      "txid": "a6986dadbaa962214fa72579f4fb30b12b132b3fe708f05f7b2d984f5de182f0",
      "hash": "a6986dadbaa962214fa72579f4fb30b12b132b3fe708f05f7b2d984f5de182f0",
      "version": 1,
      "size": 135,
      "vsize": 135,
      "weight": 540,
      "locktime": 0,
      "vin": [
        {
          "coinbase": "04ffff001d024a08",
          "sequence": 4294967295
        }
      ],
      "vout": [
        {
          "value": 50.0,
          "n": 0,
          "scriptPubKey": {
            "asm": "041e5187d7bba06c0ad8e27022e80f6cddc32734b3b09403ee0bc9956a7abab69fdde4b7660dd7c69677b464ce86ad88db84e0429c444a509ad0364be7381412e5 OP_CHECKSIG",
            "desc": "pk(041e5187d7bba06c0ad8e27022e80f6cddc32734b3b09403ee0bc9956a7abab69fdde4b7660dd7c69677b464ce86ad88db84e0429c444a509ad0364be7381412e5)#k2zr2ddj",
            "hex": "41041e5187d7bba06c0ad8e27022e80f6cddc32734b3b09403ee0bc9956a7abab69fdde4b7660dd7c69677b464ce86ad88db84e0429c444a509ad0364be7381412e5ac",
            "type": "pubkey"
          }
        }
      ],
      "hex": "01000000010000000000000000000000000000000000000000000000000000000000000000ffffffff0804ffff001d024a08ffffffff0100f2052a010000004341041e5187d7bba06c0ad8e27022e80f6cddc32734b3b09403ee0bc9956a7abab69fdde4b7660dd7c69677b464ce86ad88db84e0429c444a509ad0364be7381412e5ac00000000"
    }
  ]
}