{
  "hash": "00000000baf8cf1b20cfe00f244c780f0bfc24ce922b7726d5d3bbc292441892",
  "confirmations": 49059,
  "height": 4039,
  "version": 1,
  "versionHex": "00000001",
  "merkleroot": "91f47e860ad7755f07305c8cf4b00398c1c5aa3c3c9d4e352a55587bf6504506",
  "time": 1234470866,
  "mediantime": 1234467576,
  "nonce": 56649426,
  "bits": "1d00ffff",
  "difficulty": 1,
  "chainwork": "00000000000000000000000000000000000000000000000000000fc80fc80fc8",
  "nTx": 1,
  "previousblockhash": "00000000d49c607f7cff19324ce8ef67d47b743bdb91725a5ca1b2408516b90e",
  "nextblockhash": "00000000c300a4e199097e58d28daa4ec90f5ae38603392080425a2a44a64b8d",
  "strippedsize": 215,
  "size": 215,
  "weight": 860,
  "tx": [
    {
      "txid": "91f47e860ad7755f07305c8cf4b00398c1c5aa3c3c9d4e352a55587bf6504506",
      "hash": "91f47e860ad7755f07305c8cf4b00398c1c5aa3c3c9d4e352a55587bf6504506",
      "version": 1,
      "size": 134,
      "vsize": 134,
      "weight": 536,
      "locktime": 0,
      "vin": [
        {
          "coinbase": "04ffff001d0147",
          "sequence": 4294967295
        }
      ],
      "vout": [
        {
          "value": 50.0,
          "n": 0,
          "scriptPubKey": {
            "asm": "04d0e320d5dd78a8fa5d98ba7a5651205cdf55564f95a2fc952276a25242d0f29f878568203be03c45781755993663fe7183fcb693b44d0e7c53b85359472d3c59 OP_CHECKSIG",
            "desc": "pk(04d0e320d5dd78a8fa5d98ba7a5651205cdf55564f95a2fc952276a25242d0f29f878568203be03c45781755993663fe7183fcb693b44d0e7c53b85359472d3c59)#qcmjxthn",
            "hex": "4104d0e320d5dd78a8fa5d98ba7a5651205cdf55564f95a2fc952276a25242d0f29f878568203be03c45781755993663fe7183fcb693b44d0e7c53b85359472d3c59ac",
            "type": "pubkey"
          }
        }
      ],
      "hex": "01000000010000000000000000000000000000000000000000000000000000000000000000ffffffff0704ffff001d0147ffffffff0100f2052a01000000434104d0e320d5dd78a8fa5d98ba7a5651205cdf55564f95a2fc952276a25242d0f29f878568203be03c45781755993663fe7183fcb693b44d0e7c53b85359472d3c59ac00000000"
    }
  ]
}