{
  "hash": "00000000f1b3a6b39671e475b858bc6831db3ca57e8ecafa49a13c4d5b04fb53",
  "confirmations": 51939,
  "height": 86,
  "version": 1,
  "versionHex": "00000001",
  "merkleroot": "12272d79ff1fbc1238d78d7d6e0e75c5f0e7aae7925e4f59b96b02fc2cd82bfc",
  "time": 1231650986,
  "mediantime": 1231646456,
  "nonce": 3625999133,
  "bits": "1d00ffff",
  "difficulty": 1,
  "chainwork": "0000000000000000000000000000000000000000000000000000005700570057",
  "nTx": 1,
  "previousblockhash": "00000000219949b3de1eae5447c00501812757885e65554fe5c51039ebe643d1",
  "nextblockhash": "00000000a31b3785f0adc10975a4e3e356d133365c0aeab6e42240e17ac2e63c",
  "strippedsize": 215,
  "size": 215,
  "weight": 860,
  "tx": [
    {
      "txid": "12272d79ff1fbc1238d78d7d6e0e75c5f0e7aae7925e4f59b96b02fc2cd82bfc",
      "hash": "12272d79ff1fbc1238d78d7d6e0e75c5f0e7aae7925e4f59b96b02fc2cd82bfc",
      "version": 1,
      "size": 134,
      "vsize": 134,
      "weight": 536,
      "locktime": 0,
      "vin": [
        {
          "coinbase": "04ffff001d011a",
          "sequence": 4294967295
        }
      ],
      "vout": [
        {
          "value": 50.0,
          "n": 0,
          "scriptPubKey": {
            "asm": "04d5897fd3690b923198285547881b89ea914fda24d5ea71db9742244a4b047b2d9a57d24c49067438491eef34585f2c6178bfb45c677afe7034e7b4ae5b603132 OP_CHECKSIG",
            "desc": "pk(04d5897fd3690b923198285547881b89ea914fda24d5ea71db9742244a4b047b2d9a57d24c49067438491eef34585f2c6178bfb45c677afe7034e7b4ae5b603132)#46rk9c4h",
            "hex": "4104d5897fd3690b923198285547881b89ea914fda24d5ea71db9742244a4b047b2d9a57d24c49067438491eef34585f2c6178bfb45c677afe7034e7b4ae5b603132ac",
            "type": "pubkey"
          }
        }
      ],
      "hex": "01000000010000000000000000000000000000000000000000000000000000000000000000ffffffff0704ffff001d011affffffff0100f2052a01000000434104d5897fd3690b923198285547881b89ea914fda24d5ea71db9742244a4b047b2d9a57d24c49067438491eef34585f2c6178bfb45c677afe7034e7b4ae5b603132ac00000000"
    }
  ]
}