{
  "hash": "00000000461d0e76325c7870b4b0f72ae0b8778c421d0d660860c9cdc88d44ac",
  "confirmations": 50801,
  "height": 2297,
  "version": 1,
  "versionHex": "00000001",
  "merkleroot": "4e2a22b557ef6f1a2c1c7c193cdd7240920c043dcfc3b46361746b5b38476e9d",
  "time": 1233277983,
  "mediantime": 1233274769,
  "nonce": 47559772,
  "bits": "1d00ffff",
  "difficulty": 1,
  "chainwork": "000000000000000000000000000000000000000000000000000008fa08fa08fa",
  "nTx": 1,
  "previousblockhash": "0000000007df4a6e603db155f76ea469131b1ba6c8e1aed5179ef5c29108c92a",
  "nextblockhash": "00000000de1a62f59c544724d3d7267033ed03b8339aa5469a15f44da2a36428",
  "strippedsize": 216,
  "size": 216,
  "weight": 864,
  "tx": [
    {
      "txid": "4e2a22b557ef6f1a2c1c7c193cdd7240920c043dcfc3b46361746b5b38476e9d",
      "hash": "4e2a22b557ef6f1a2c1c7c193cdd7240920c043dcfc3b46361746b5b38476e9d",
      "version": 1,
      "size": 135,
      "vsize": 135,
      "weight": 540,
      "locktime": 0,
      "vin": [
        {
          "coinbase": "04ffff001d024d01",
          "sequence": 4294967295
        }
      ],
      "vout": [
        {
          "value": 50.0,
          "n": 0,
          "scriptPubKey": {
            "asm": "0401a016fe1fd3ea0377be719be0c287441f8c600bffb3a4ad2c76461c0935003f183cc8df44f754fa5d89c03af2f92994b7a493424c9765603935073fa9719a79 OP_CHECKSIG",
            "desc": "pk(0401a016fe1fd3ea0377be719be0c287441f8c600bffb3a4ad2c76461c0935003f183cc8df44f754fa5d89c03af2f92994b7a493424c9765603935073fa9719a79)#xyeg3rqh",
            "hex": "410401a016fe1fd3ea0377be719be0c287441f8c600bffb3a4ad2c76461c0935003f183cc8df44f754fa5d89c03af2f92994b7a493424c9765603935073fa9719a79ac",
            "type": "pubkey"
          }
        }
      ],
      "hex": "01000000010000000000000000000000000000000000000000000000000000000000000000ffffffff0804ffff001d024d01ffffffff0100f2052a0100000043410401a016fe1fd3ea0377be719be0c287441f8c600bffb3a4ad2c76461c0935003f183cc8df44f754fa5d89c03af2f92994b7a493424c9765603935073fa9719a79ac00000000"
    }
  ]
}