{
  "hash": "0000000053c595c8ba04b43d09f6b7eb0ccc868014daf55c2895392eaaaa0690",
  "confirmations": 45831,
  "height": 7267,
  "version": 1,
  "versionHex": "00000001",
  "merkleroot": "b8b9bbc12912323941847e3640d6f447f07a40044beb0028d42a0dabaa1beccc",
  "time": 1236922459,
  "mediantime": 1236918729,
  "nonce": 349020435,
  "bits": "1d00ffff",
  "difficulty": 1,
  "chainwork": "00000000000000000000000000000000000000000000000000001c641c641c64",
  "nTx": 1,
  "previousblockhash": "00000000878119c100055d8423526cbd934a88de8ca8db65d9795f1677e4cb6a",
  "nextblockhash": "00000000f735bb7ba097702ecffefaa00fb780c107864a4388cb47185a16f396",
  "strippedsize": 216,
  "size": 216,
  "weight": 864,
  "tx": [
    {
      "txid": "b8b9bbc12912323941847e3640d6f447f07a40044beb0028d42a0dabaa1beccc",
      "hash": "b8b9bbc12912323941847e3640d6f447f07a40044beb0028d42a0dabaa1beccc",
      "version": 1,
      "size": 135,
      "vsize": 135,
      "weight": 540,
      "locktime": 0,
      "vin": [
        {
          "coinbase": "04ffff001d02c906",
          "sequence": 4294967295
        }
      ],
      "vout": [
        {
          "value": 50.0,
          "n": 0,
          "scriptPubKey": {
            "asm": "04f706bf91e7e0d24c2ca7434b1ffd98e5a3bddf5822f622e9382290ae97082b89e7a3dab721ba0783a70d3467e1aeb4eb684bbb6ba7fefaba9cf7134a42f02bbc OP_CHECKSIG",
            "desc": "pk(04f706bf91e7e0d24c2ca7434b1ffd98e5a3bddf5822f622e9382290ae97082b89e7a3dab721ba0783a70d3467e1aeb4eb684bbb6ba7fefaba9cf7134a42f02bbc)#hw3a5sqc",
            "hex": "4104f706bf91e7e0d24c2ca7434b1ffd98e5a3bddf5822f622e9382290ae97082b89e7a3dab721ba0783a70d3467e1aeb4eb684bbb6ba7fefaba9cf7134a42f02bbcac",
            "type": "pubkey"
          }
        }
      ],
      "hex": "01000000010000000000000000000000000000000000000000000000000000000000000000ffffffff0804ffff001d02c906ffffffff0100f2052a01000000434104f706bf91e7e0d24c2ca7434b1ffd98e5a3bddf5822f622e9382290ae97082b89e7a3dab721ba0783a70d3467e1aeb4eb684bbb6ba7fefaba9cf7134a42f02bbcac00000000"
    }
  ]
}