{
  "hash": "000000008b5d5ae3e29c1c7f40ee90672eed5f6f27f85d5bbfcaea9d333f791a",
  "confirmations": 44302,
  "height": 8796,
  "version": 1,
  "versionHex": "00000001",
  "merkleroot": "38e3b52457524343caab00c5a30f3c654f348d3e6f44330ea61f920f280526bb",
  "time": 1238097650,
  "mediantime": 1238095245,
  "nonce": 3043154976,
  "bits": "1d00ffff",
  "difficulty": 1,
  "chainwork": "0000000000000000000000000000000000000000000000000000225d225d225d",
  "nTx": 1,
  "previousblockhash": "0000000056270ab7155404ee7f57f6252d20c1a1a479888dcad96a962528151b",
  "nextblockhash": "00000000d8551eb071406db8b7100687a0f135607a7557817ef2347e4f1235d2",
  "strippedsize": 216,
  "size": 216,
  "weight": 864,
  "tx": [
    {
      "txid": "38e3b52457524343caab00c5a30f3c654f348d3e6f44330ea61f920f280526bb",
      "hash": "38e3b52457524343caab00c5a30f3c654f348d3e6f44330ea61f920f280526bb",
      "version": 1,
      "size": 135,
      "vsize": 135,
      "weight": 540,
      "locktime": 0,
      "vin": [
        {
          "coinbase": "04ffff001d02ad02",
          "sequence": 4294967295
        }
      ],
      "vout": [
        {
          "value": 50.0,
          "n": 0,
          "scriptPubKey": {
            "asm": "0425704c43d73c34e222ca49bba1a63b322bfc4a53ba76fb2eaf259f52c387b937c451de0501c3acfa84d16b3257defef66808482ae06e8cab8234a8bfff593499 OP_CHECKSIG",
            "desc": "pk(0425704c43d73c34e222ca49bba1a63b322bfc4a53ba76fb2eaf259f52c387b937c451de0501c3acfa84d16b3257defef66808482ae06e8cab8234a8bfff593499)#ns827uvg",
            "hex": "410425704c43d73c34e222ca49bba1a63b322bfc4a53ba76fb2eaf259f52c387b937c451de0501c3acfa84d16b3257defef66808482ae06e8cab8234a8bfff593499ac",
            "type": "pubkey"
          }
        }
      ],
      "hex": "01000000010000000000000000000000000000000000000000000000000000000000000000ffffffff0804ffff001d02ad02ffffffff0100f2052a0100000043410425704c43d73c34e222ca49bba1a63b322bfc4a53ba76fb2eaf259f52c387b937c451de0501c3acfa84d16b3257defef66808482ae06e8cab8234a8bfff593499ac00000000"
    }
  ]
}