{
  "hash": "00000000fcde3f3306f4167634b51e24414900d7539cb4237f3f060cf26fba05",
  "confirmations": 51876,
  "height": 53,
  "version": 1,
  "versionHex": "00000001",
  "merkleroot": "3c6f58905f06a9fe9b4313a88827c43dbfb0156fcc3b17bb311d51e8be6746f5",
  "time": 1231617190,
  "mediantime": 1231613140,
  "nonce": 570791212,
  "bits": "1d00ffff",
  "difficulty": 1,
  "chainwork": "0000000000000000000000000000000000000000000000000000003600360036",
  "nTx": 1,
  "previousblockhash": "00000000d6c655f23e71b4210ae3c5d931d76257093ab1e5ced88c52739296b5",
  "nextblockhash": "000000004ee00fc37a68592cf22415b37e6618227249fe308d0703cca1dd745b",
  "strippedsize": 215,
  "size": 215,
  "weight": 860,
  "tx": [
    {
      "txid": "3c6f58905f06a9fe9b4313a88827c43dbfb0156fcc3b17bb311d51e8be6746f5",
      "hash": "3c6f58905f06a9fe9b4313a88827c43dbfb0156fcc3b17bb311d51e8be6746f5",
      "version": 1,
      "size": 134,
      "vsize": 134,
      "weight": 536,
      "locktime": 0,
      "vin": [
        {
          "coinbase": "04ffff001d0161",
          "sequence": 4294967295
        }
      ],
      "vout": [
        {
          "value": 50.0,
          "n": 0,
          "scriptPubKey": {
            "asm": "04cad6127556bbeb5753c0e9a0c13787a7f7d4773c1544651072c8a17c5d68d47974b6ae5118344b268ecb52d164917cd9db6cecdcb4e6be44aaf302abd81985ca OP_CHECKSIG",
            "desc": "pk(04cad6127556bbeb5753c0e9a0c13787a7f7d4773c1544651072c8a17c5d68d47974b6ae5118344b268ecb52d164917cd9db6cecdcb4e6be44aaf302abd81985ca)#nxvh9t3a",
            "hex": "4104cad6127556bbeb5753c0e9a0c13787a7f7d4773c1544651072c8a17c5d68d47974b6ae5118344b268ecb52d164917cd9db6cecdcb4e6be44aaf302abd81985caac",
            "type": "pubkey"
          }
        }
      ],
      "hex": "01000000010000000000000000000000000000000000000000000000000000000000000000ffffffff0704ffff001d0161ffffffff0100f2052a01000000434104cad6127556bbeb5753c0e9a0c13787a7f7d4773c1544651072c8a17c5d68d47974b6ae5118344b268ecb52d164917cd9db6cecdcb4e6be44aaf302abd81985caac00000000"
    }
  ]
}