{
  "hash": "0000000066ae0d91024fabd8d88174f338b0749477a9d6ba68b5c4afa0bd2ccb",
  "confirmations": 50859,
  "height": 2239,
  "version": 1,
  "versionHex": "00000001",
  "merkleroot": "0fa53ce8b5aa3eb9e46a9dde25c26df02f4b0cf11eb0920be2780a8c7b9a6e33",
  "time": 1233239252,
  "mediantime": 1233236815,
  "nonce": 2714868761,
  "bits": "1d00ffff",
  "difficulty": 1,
  "chainwork": "000000000000000000000000000000000000000000000000000008c008c008c0",
  "nTx": 1,
  "previousblockhash": "000000009439371e0edadc3fcca04f10319f6ce7a79664ff3bd81539cca12739",
  "nextblockhash": "00000000789b7c79122b9b5270eea6bfed7b527e6e5ea0fd78a77f3143610e21",
  "strippedsize": 216,
  "size": 216,
  "weight": 864,
  "tx": [
    {
      "txid": "0fa53ce8b5aa3eb9e46a9dde25c26df02f4b0cf11eb0920be2780a8c7b9a6e33",
      "hash": "0fa53ce8b5aa3eb9e46a9dde25c26df02f4b0cf11eb0920be2780a8c7b9a6e33",
      "version": 1,
      "size": 135,
      "vsize": 135,
      "weight": 540,
      "locktime": 0,
      "vin": [
        {
          "coinbase": "04ffff001d02de00",
          "sequence": 4294967295
        }
      ],
      "vout": [
        {
          "value": 50.0,
          "n": 0,
          "scriptPubKey": {
            "asm": "042200490195c16c77e0d5b28079e218ddf23c0cf23e770b5e1ad0589d03a803cc188a1c79601dd181a67dc121a2bf2c5b2313c89f2b2be758caca6c7ab56959ac OP_CHECKSIG",
            "desc": "pk(042200490195c16c77e0d5b28079e218ddf23c0cf23e770b5e1ad0589d03a803cc188a1c79601dd181a67dc121a2bf2c5b2313c89f2b2be758caca6c7ab56959ac)#wqu44gl8",
            "hex": "41042200490195c16c77e0d5b28079e218ddf23c0cf23e770b5e1ad0589d03a803cc188a1c79601dd181a67dc121a2bf2c5b2313c89f2b2be758caca6c7ab56959acac",
            "type": "pubkey"
          }
        }
      ],
      "hex": "01000000010000000000000000000000000000000000000000000000000000000000000000ffffffff0804ffff001d02de00ffffffff0100f2052a010000004341042200490195c16c77e0d5b28079e218ddf23c0cf23e770b5e1ad0589d03a803cc188a1c79601dd181a67dc121a2bf2c5b2313c89f2b2be758caca6c7ab56959acac00000000"
    }
  ]
}