{
  "hash": "00000000a8096f779c11637ad0831181731c4e7d06b9558db38f28144f36c233",
  "confirmations": 45195,
  "height": 7903,
  "version": 1,
  "versionHex": "00000001",
  "merkleroot": "fe99a1b3f14234758aab0265c6b803cdef46f44d4579f5f68b0d0d6ae727a4ab",
  "time": 1237394873,
  "mediantime": 1237390299,
  "nonce": 2578482979,
  "bits": "1d00ffff",
  "difficulty": 1,
  "chainwork": "00000000000000000000000000000000000000000000000000001ee01ee01ee0",
  "nTx": 1,
  "previousblockhash": "00000000a243e44c2c24f7bf693a7dd85adf25051bee0308ae920199325b393d",
  "nextblockhash": "00000000efe81cb33fce22374cf6695447b1d33af780871357be6110952258b3",
  "strippedsize": 216,
  "size": 216,
  "weight": 864,
  "tx": [
    {
      "txid": "fe99a1b3f14234758aab0265c6b803cdef46f44d4579f5f68b0d0d6ae727a4ab",
      "hash": "fe99a1b3f14234758aab0265c6b803cdef46f44d4579f5f68b0d0d6ae727a4ab",
      "version": 1,
      "size": 135,
      "vsize": 135,
      "weight": 540,
      "locktime": 0,
      "vin": [
        {
          "coinbase": "04ffff001d027a07",
          "sequence": 4294967295
        }
      ],
      "vout": [
        {
          "value": 50.0,
          "n": 0,
          "scriptPubKey": {
            "asm": "04b87132aa3df895a28072e06a14382847ea4486b2cf98cfba399b4bea1ff9153c7232c7ade60d95c42d3a2e609263a8e7753fc07086dd9acf3499c52a09cf6c05 OP_CHECKSIG",
            "desc": "pk(04b87132aa3df895a28072e06a14382847ea4486b2cf98cfba399b4bea1ff9153c7232c7ade60d95c42d3a2e609263a8e7753fc07086dd9acf3499c52a09cf6c05)#mqrr0plq",
            "hex": "4104b87132aa3df895a28072e06a14382847ea4486b2cf98cfba399b4bea1ff9153c7232c7ade60d95c42d3a2e609263a8e7753fc07086dd9acf3499c52a09cf6c05ac",
            "type": "pubkey"
          }
        }
      ],
      "hex": "01000000010000000000000000000000000000000000000000000000000000000000000000ffffffff0804ffff001d027a07ffffffff0100f2052a01000000434104b87132aa3df895a28072e06a14382847ea4486b2cf98cfba399b4bea1ff9153c7232c7ade60d95c42d3a2e609263a8e7753fc07086dd9acf3499c52a09cf6c05ac00000000"
    }
  ]
}