{
  "hash": "00000000c1c260c8e5913550e4321b0feffb74e19897c4256c57084ec81a2b92",
  "confirmations": 52423,
  "height": 675,
  "version": 1,
  "versionHex": "00000001",
  "merkleroot": "dc7f99da0922345eb178eeba7510b81ae9f08963aa087ca7af01b3810171f43f",
  "time": 1232088311,
  "mediantime": 1232083261,
  "nonce": 349052468,
  "bits": "1d00ffff",
  "difficulty": 1,
  "chainwork": "000000000000000000000000000000000000000000000000000002a402a402a4",
  "nTx": 1,
  "previousblockhash": "00000000c12782db7d1c20d4f97cef3469da5f9db7c4977e97cefd7e9d0cdf06",
  "nextblockhash": "000000003ea24331e6028681e1d342c0f21a45c3e205f24ccd5298a6497d1c58",
  "strippedsize": 215,
  "size": 215,
  "weight": 860,
  "tx": [
    {
      "txid": "dc7f99da0922345eb178eeba7510b81ae9f08963aa087ca7af01b3810171f43f",
      "hash": "dc7f99da0922345eb178eeba7510b81ae9f08963aa087ca7af01b3810171f43f",
      "version": 1,
      "size": 134,
      "vsize": 134,
      "weight": 536,
      "locktime": 0,
      "vin": [
        {
          "coinbase": "04ffff001d0157",
          "sequence": 4294967295
        }
      ],
      "vout": [
        {
          "value": 50.0,
          "n": 0,
          "scriptPubKey": {
            "asm": "04994b84cd429c2da7c0f38d082dff3fe5c52e2cee6b152be6475fe2cc93fa2c9c0019e0e5d25001026fd3f8a3e9c4efdcdb65fbfe70b8a294b4120d6164f5ec17 OP_CHECKSIG",
            "desc": "pk(04994b84cd429c2da7c0f38d082dff3fe5c52e2cee6b152be6475fe2cc93fa2c9c0019e0e5d25001026fd3f8a3e9c4efdcdb65fbfe70b8a294b4120d6164f5ec17)#5eqcafw6",
            "hex": "4104994b84cd429c2da7c0f38d082dff3fe5c52e2cee6b152be6475fe2cc93fa2c9c0019e0e5d25001026fd3f8a3e9c4efdcdb65fbfe70b8a294b4120d6164f5ec17ac",
            "type": "pubkey"
          }
        }
      ],
      "hex": "01000000010000000000000000000000000000000000000000000000000000000000000000ffffffff0704ffff001d0157ffffffff0100f2052a01000000434104994b84cd429c2da7c0f38d082dff3fe5c52e2cee6b152be6475fe2cc93fa2c9c0019e0e5d25001026fd3f8a3e9c4efdcdb65fbfe70b8a294b4120d6164f5ec17ac00000000"
    }
  ]
}