{
  "hash": "0000000062ad09e4891dfc8ef3c454c92ae68ba033a8762eda270227ff3dcdc5",
  "confirmations": 51230,
  "height": 1868,
  "version": 1,
  "versionHex": "00000001",
  "merkleroot": "e4d1d89545176816ba13a8b778501d8c077dbb8221c0c45027d1561b4c38ee92",
  "time": 1232929570,
  "mediantime": 1232928199,
  "nonce": 3519590706,
  "bits": "1d00ffff",
  "difficulty": 1,
  "chainwork": "0000000000000000000000000000000000000000000000000000074d074d074d",
  "nTx": 1,
  "previousblockhash": "00000000d0770388d9f8e34235e8a46f6acf92777b489b45a8bbb088e881310d",
  "nextblockhash": "00000000a76a1ab5f25b55e9d47ea902fd6039cb30806276d7b25460841cd9c3",
  "strippedsize": 216,
  "size": 216,
  "weight": 864,
  "tx": [
    {
      "txid": "e4d1d89545176816ba13a8b778501d8c077dbb8221c0c45027d1561b4c38ee92",
      "hash": "e4d1d89545176816ba13a8b778501d8c077dbb8221c0c45027d1561b4c38ee92",
      "version": 1,
      "size": 135,
      "vsize": 135,
      "weight": 540,
      "locktime": 0,
      "vin": [
        {
          "coinbase": "04ffff001d02d204",
          "sequence": 4294967295
        }
      ],
      "vout": [
        {
          "value": 50.0,
          "n": 0,
          "scriptPubKey": {
            "asm": "04ccb7938047cc6cd8ae9cb9cf225bc2d98bba2634d1ef854a374c831f204f5c9db38055323ec0a89e5aae492d7849b86f4c93fcb0639d6d603cc14b3b20c45925 OP_CHECKSIG",
            "desc": "pk(04ccb7938047cc6cd8ae9cb9cf225bc2d98bba2634d1ef854a374c831f204f5c9db38055323ec0a89e5aae492d7849b86f4c93fcb0639d6d603cc14b3b20c45925)#ktzkntuh",
            "hex": "4104ccb7938047cc6cd8ae9cb9cf225bc2d98bba2634d1ef854a374c831f204f5c9db38055323ec0a89e5aae492d7849b86f4c93fcb0639d6d603cc14b3b20c45925ac",
            "type": "pubkey"
          }
        }
      ],
      "hex": "01000000010000000000000000000000000000000000000000000000000000000000000000ffffffff0804ffff001d02d204ffffffff0100f2052a01000000434104ccb7938047cc6cd8ae9cb9cf225bc2d98bba2634d1ef854a374c831f204f5c9db38055323ec0a89e5aae492d7849b86f4c93fcb0639d6d603cc14b3b20c45925ac00000000"
    }
  ]
}