{
  "hash": "00000000d45502ab04c1adeb0a3c9c2930a880e78f94c4ce0fc707ac52588696",
  "confirmations": 46246,
  "height": 6852,
  "version": 1,
  "versionHex": "00000001",
  "merkleroot": "80706feaf6fc0d2180170ef8ccf3173c256451c0fee4364e828bd02536e27961",
  "time": 1236596232,
  "mediantime": 1236592086,
  "nonce": 733581088,
  "bits": "1d00ffff",
  "difficulty": 1,
  "chainwork": "00000000000000000000000000000000000000000000000000001ac51ac51ac5",
  "nTx": 1,
  "previousblockhash": "00000000b8197fbfd62c8f20bfd82408800d7fd172ba0cbfd0111edc45136b3d",
  "nextblockhash": "000000001e6b6f369fed9dd0861026778e41e59e55add399bee9f9e0054b7ea6",
  "strippedsize": 216,
  "size": 216,
  "weight": 864,
  "tx": [
    {
      "txid": "80706feaf6fc0d2180170ef8ccf3173c256451c0fee4364e828bd02536e27961",
      "hash": "80706feaf6fc0d2180170ef8ccf3173c256451c0fee4364e828bd02536e27961",
      "version": 1,
      "size": 135,
      "vsize": 135,
      "weight": 540,
      "locktime": 0,
      "vin": [
        {
          "coinbase": "04ffff001d02b009",
          "sequence": 4294967295
        }
      ],
      "vout": [
        {
          "value": 50.0,
          "n": 0,
          "scriptPubKey": {
            "asm": "04c6830429763412a36f085a8136fa9788ccd052682f39b0b752b96371e0f6bd80943b4d63a1912a69757f81f16a907972c31c63ebe4c6e891287908de168f6a7b OP_CHECKSIG",
            "desc": "pk(04c6830429763412a36f085a8136fa9788ccd052682f39b0b752b96371e0f6bd80943b4d63a1912a69757f81f16a907972c31c63ebe4c6e891287908de168f6a7b)#psqkljql",
            "hex": "4104c6830429763412a36f085a8136fa9788ccd052682f39b0b752b96371e0f6bd80943b4d63a1912a69757f81f16a907972c31c63ebe4c6e891287908de168f6a7bac",
            "type": "pubkey"
          }
        }
      ],
      "hex": "01000000010000000000000000000000000000000000000000000000000000000000000000ffffffff0804ffff001d02b009ffffffff0100f2052a01000000434104c6830429763412a36f085a8136fa9788ccd052682f39b0b752b96371e0f6bd80943b4d63a1912a69757f81f16a907972c31c63ebe4c6e891287908de168f6a7bac00000000"
    }
  ]
}