{
  "hash": "000000003b2a80798e683ba42297379bb50383165b3e33f77ff37a6953472bcf",
  "confirmations": 50153,
  "height": 2945,
  "version": 1,
  "versionHex": "00000001",
  "merkleroot": "4a36d8b656bcee4c06269e4455666799a5d277284536b79790138896e58624d7",
  "time": 1233721457,
  "mediantime": 1233717911,
  "nonce": 1344298295,
  "bits": "1d00ffff",
  "difficulty": 1,
  "chainwork": "00000000000000000000000000000000000000000000000000000b820b820b82",
  "nTx": 1,
  "previousblockhash": "00000000f59fba7065470eca7e353b376ae9682b334913c46fa933c25a7b2cfe",
  "nextblockhash": "000000001f37b9a6b9d25df2fd1d6f936fdbeaae256527c54fe3bbade8f5d248",
  "strippedsize": 216,
  "size": 216,
  "weight": 864,
  "tx": [
    {
      "txid": "4a36d8b656bcee4c06269e4455666799a5d277284536b79790138896e58624d7",
      "hash": "4a36d8b656bcee4c06269e4455666799a5d277284536b79790138896e58624d7",
      "version": 1,
      "size": 135,
      "vsize": 135,
      "weight": 540,
      "locktime": 0,
      "vin": [
        {
          "coinbase": "04ffff001d029000",
          "sequence": 4294967295
        }
      ],
      "vout": [
        {
          "value": 50.0,
          "n": 0,
          "scriptPubKey": {
            "asm": "04ed052f5118457ecf86edd9f3536cbd517ffdcf3be6daeff08c271620b0486275c751c8d2de6d16d5bd641a31fe4852f62b3226d40227ee274158c9ca892fcf49 OP_CHECKSIG",
            "desc": "pk(04ed052f5118457ecf86edd9f3536cbd517ffdcf3be6daeff08c271620b0486275c751c8d2de6d16d5bd641a31fe4852f62b3226d40227ee274158c9ca892fcf49)#umausd2f",
            "hex": "4104ed052f5118457ecf86edd9f3536cbd517ffdcf3be6daeff08c271620b0486275c751c8d2de6d16d5bd641a31fe4852f62b3226d40227ee274158c9ca892fcf49ac",
            "type": "pubkey"
          }
        }
      ],
      "hex": "01000000010000000000000000000000000000000000000000000000000000000000000000ffffffff0804ffff001d029000ffffffff0100f2052a01000000434104ed052f5118457ecf86edd9f3536cbd517ffdcf3be6daeff08c271620b0486275c751c8d2de6d16d5bd641a31fe4852f62b3226d40227ee274158c9ca892fcf49ac00000000"
    }
  ]
}