{
  "hash": "000000000a7730e01cb8697d6ccf1ad93e235ba42e86eb467dc22a7d581e5137",
  "confirmations": 46057,
  "height": 7041,
  "version": 1,
  "versionHex": "00000001",
  "merkleroot": "30efbc98b8793c7b2257f59216e0170049575e55136b841aa6184a0b173f1d7c",
  "time": 1236748977,
  "mediantime": 1236745551,
  "nonce": 870274360,
  "bits": "1d00ffff",
  "difficulty": 1,
  "chainwork": "00000000000000000000000000000000000000000000000000001b821b821b82",
  "nTx": 1,
  "previousblockhash": "0000000002d7292bf3f95b1396e5ccf025e6b43c2287db8bbf3b5b2b366974b6",
  "nextblockhash": "0000000035ce6849182998e5c3ebca7df396885e0ea53e9bb28eafb98d5f7d9b",
  "strippedsize": 216,
  "size": 216,
  "weight": 864,
  "tx": [
    {
      "txid": "30efbc98b8793c7b2257f59216e0170049575e55136b841aa6184a0b173f1d7c",
      "hash": "30efbc98b8793c7b2257f59216e0170049575e55136b841aa6184a0b173f1d7c",
      "version": 1,
      "size": 135,
      "vsize": 135,
      "weight": 540,
      "locktime": 0,
      "vin": [
        {
          "coinbase": "04ffff001d020203",
          "sequence": 4294967295
        }
      ],
      "vout": [
        {
          "value": 50.0,
          "n": 0,
          "scriptPubKey": {
            "asm": "048469e0b5fdf6875bb7d3d5da840275f3c7f2f660a6f156f12e503b614a28f5cc0a2cf92a0924fed241501c74e974686fc9ad5b0fe0b4b9827dd68d56eb62fc54 OP_CHECKSIG",
            "desc": "pk(048469e0b5fdf6875bb7d3d5da840275f3c7f2f660a6f156f12e503b614a28f5cc0a2cf92a0924fed241501c74e974686fc9ad5b0fe0b4b9827dd68d56eb62fc54)#0amc2hqw",
            "hex": "41048469e0b5fdf6875bb7d3d5da840275f3c7f2f660a6f156f12e503b614a28f5cc0a2cf92a0924fed241501c74e974686fc9ad5b0fe0b4b9827dd68d56eb62fc54ac",
            "type": "pubkey"
          }
        }
      ],
      "hex": "01000000010000000000000000000000000000000000000000000000000000000000000000ffffffff0804ffff001d020203ffffffff0100f2052a010000004341048469e0b5fdf6875bb7d3d5da840275f3c7f2f660a6f156f12e503b614a28f5cc0a2cf92a0924fed241501c74e974686fc9ad5b0fe0b4b9827dd68d56eb62fc54ac00000000"
    }
  ]
}