{
  "hash": "000000002e45eea4df9758f40d06a52cc05e34e9a7cf2384fb19b5fed1512a75",
  "confirmations": 43308,
  "height": 9790,
  "version": 1,
  "versionHex": "00000001",
  "merkleroot": "01e05a5d0b5bd9dd520efa4899e62c9bd1396401efa3852e93cce575d324ea5d",
  "time": 1238850105,
  "mediantime": 1238847071,
  "nonce": 4051795483,
  "bits": "1d00ffff",
  "difficulty": 1,
  "chainwork": "0000000000000000000000000000000000000000000000000000263f263f263f",
  "nTx": 1,
  "previousblockhash": "00000000e2c7a3ddc1f2cb885bc41cd2c8cc701006f6f85a337cdd96db9778a7",
  "nextblockhash": "00000000e9d3d760fa6b03c9308217449067adf1d1d660541f133123ead320ce",
  "strippedsize": 215,
  "size": 215,
  "weight": 860,
  "tx": [
    {
      "txid": "01e05a5d0b5bd9dd520efa4899e62c9bd1396401efa3852e93cce575d324ea5d",
      "hash": "01e05a5d0b5bd9dd520efa4899e62c9bd1396401efa3852e93cce575d324ea5d",
      "version": 1,
      "size": 134,
      "vsize": 134,
      "weight": 536,
      "locktime": 0,
      "vin": [
        {
          "coinbase": "04ffff001d0126",
          "sequence": 4294967295
        }
      ],
      "vout": [
        {
          "value": 50.0,
          "n": 0,
          "scriptPubKey": {
            "asm": "04774f0db1fd673712be6637cfe086371bb0423314a954b72f75c74653291a78f8a735497199356511f6a298881d0e61192c67b0bc9cabcb5a48fb0bbefcc42fbb OP_CHECKSIG",
            "desc": "pk(04774f0db1fd673712be6637cfe086371bb0423314a954b72f75c74653291a78f8a735497199356511f6a298881d0e61192c67b0bc9cabcb5a48fb0bbefcc42fbb)#mq3fd6pq",
            "hex": "4104774f0db1fd673712be6637cfe086371bb0423314a954b72f75c74653291a78f8a735497199356511f6a298881d0e61192c67b0bc9cabcb5a48fb0bbefcc42fbbac",
            "type": "pubkey"
          }
        }
      ],
      "hex": "01000000010000000000000000000000000000000000000000000000000000000000000000ffffffff0704ffff001d0126ffffffff0100f2052a01000000434104774f0db1fd673712be6637cfe086371bb0423314a954b72f75c74653291a78f8a735497199356511f6a298881d0e61192c67b0bc9cabcb5a48fb0bbefcc42fbbac00000000"
    }
  ]
}