{
  "hash": "000000000c6bcf9721175a9eac5fb5ef240d9fa96b1ebb2ac30608788c055c5f",
  "confirmations": 51345,
  "height": 1753,
  "version": 1,
  "versionHex": "00000001",
  "merkleroot": "77caab8db630c69659d3bbe5994e905b4bf14a5177c468ca1b2d59942b28508e",
  "time": 1232875638,
  "mediantime": 1232874053,
  "nonce": 3021251111,
  "bits": "1d00ffff",
  "difficulty": 1,
  "chainwork": "000000000000000000000000000000000000000000000000000006da06da06da",
  "nTx": 1,
  "previousblockhash": "00000000f396ab6b62ba13ef214dfd15b1f17062da8d99742d63bbeeaa5a6a3a",
  "nextblockhash": "000000001346de321c79a533dea54f329d69acced37153324594e6b615775909",
  "strippedsize": 216,
  "size": 216,
  "weight": 864,
  "tx": [
    {
      "txid": "77caab8db630c69659d3bbe5994e905b4bf14a5177c468ca1b2d59942b28508e",
      "hash": "77caab8db630c69659d3bbe5994e905b4bf14a5177c468ca1b2d59942b28508e",
      "version": 1,
      "size": 135,
      "vsize": 135,
      "weight": 540,
      "locktime": 0,
      "vin": [
        {
          "coinbase": "04ffff001d027503",
          "sequence": 4294967295
        }
      ],
      "vout": [
        {
          "value": 50.0,
          "n": 0,
          "scriptPubKey": {
            "asm": "048576dbcbbf82f2cd246d521450d3c61617064d7b595e9473c66b666b6786b186949941c1d9e0087d18f608b618af8bfcee3307366d8e814587f802b1eeb55463 OP_CHECKSIG",
            "desc": "pk(048576dbcbbf82f2cd246d521450d3c61617064d7b595e9473c66b666b6786b186949941c1d9e0087d18f608b618af8bfcee3307366d8e814587f802b1eeb55463)#yfnewhp6",
            "hex": "41048576dbcbbf82f2cd246d521450d3c61617064d7b595e9473c66b666b6786b186949941c1d9e0087d18f608b618af8bfcee3307366d8e814587f802b1eeb55463ac",
            "type": "pubkey"
          }
        }
      ],
      "hex": "01000000010000000000000000000000000000000000000000000000000000000000000000ffffffff0804ffff001d027503ffffffff0100f2052a010000004341048576dbcbbf82f2cd246d521450d3c61617064d7b595e9473c66b666b6786b186949941c1d9e0087d18f608b618af8bfcee3307366d8e814587f802b1eeb55463ac00000000"
    }
  ]
}