{
  "hash": "0000000029f34cca9f18d2b4cac7c29982730646e10e028848ade71a43454ca9",
  "confirmations": 48694,
  "height": 4404,
  "version": 1,
  "versionHex": "00000001",
  "merkleroot": "1fc1ffb8b1dcbb78f7559e8546368e2bf91dd6731078af3c6116d93a57363487",
  "time": 1234716007,
  "mediantime": 1234712422,
  "nonce": 63912493,
  "bits": "1d00ffff",
  "difficulty": 1,
  "chainwork": "0000000000000000000000000000000000000000000000000000113511351135",
  "nTx": 1,
  "previousblockhash": "00000000ccd826ff77e291e889257fb4834603f97f79a9a29a7f878b2b53a189",
  "nextblockhash": "00000000310e89337873d7d5916822d9fe844c25706aafdc2b84116ee9ea603c",
  "strippedsize": 216,
  "size": 216,
  "weight": 864,
  "tx": [
    {
      "txid": "1fc1ffb8b1dcbb78f7559e8546368e2bf91dd6731078af3c6116d93a57363487",
      "hash": "1fc1ffb8b1dcbb78f7559e8546368e2bf91dd6731078af3c6116d93a57363487",
      "version": 1,
      "size": 135,
      "vsize": 135,
      "weight": 540,
      "locktime": 0,
      "vin": [
        {
          "coinbase": "04ffff001d02ee02",
          "sequence": 4294967295
        }
      ],
      "vout": [
        {
          "value": 50.0,
          "n": 0,
          "scriptPubKey": {
            "asm": "04d1eb3162aef1d96bd464bd0c19e3d4a9495f39c4948f9aac9dcd20691fc3c22fb5743d6bf924160a66c744a1dc9f3c1d06e95f0e2024716499212efd99f3623a OP_CHECKSIG",
            "desc": "pk(04d1eb3162aef1d96bd464bd0c19e3d4a9495f39c4948f9aac9dcd20691fc3c22fb5743d6bf924160a66c744a1dc9f3c1d06e95f0e2024716499212efd99f3623a)#6cwaudys",
            "hex": "4104d1eb3162aef1d96bd464bd0c19e3d4a9495f39c4948f9aac9dcd20691fc3c22fb5743d6bf924160a66c744a1dc9f3c1d06e95f0e2024716499212efd99f3623aac",
            "type": "pubkey"
          }
        }
      ],
      "hex": "01000000010000000000000000000000000000000000000000000000000000000000000000ffffffff0804ffff001d02ee02ffffffff0100f2052a01000000434104d1eb3162aef1d96bd464bd0c19e3d4a9495f39c4948f9aac9dcd20691fc3c22fb5743d6bf924160a66c744a1dc9f3c1d06e95f0e2024716499212efd99f3623aac00000000"
    }
  ]
}