{
  "hash": "00000000abe6f867ca73ca6bcf77fff97a214ad1be8d93c67648f34ac33b605d",
  "confirmations": 52126,
  "height": 972,
  "version": 1,
  "versionHex": "00000001",
  "merkleroot": "1b8f8b1bd912d814adce76c18aa45e5c3cf3b8887bfeb66e35ffbc0b64af39fc",
  "time": 1232328352,
  "mediantime": 1232323869,
  "nonce": 1269212931,
  "bits": "1d00ffff",
  "difficulty": 1,
  "chainwork": "000000000000000000000000000000000000000000000000000003cd03cd03cd",
  "nTx": 1,
  "previousblockhash": "00000000aac7cc93d4935b998ef0e443670fa85fca631e0441595f9044873597",
  "nextblockhash": "0000000008a63e41a03767c76e4ba79a2132db23a7d714f57c5a7e4a7288f479",
  "strippedsize": 216,
  "size": 216,
  "weight": 864,
  "tx": [
    {
      "txid": "1b8f8b1bd912d814adce76c18aa45e5c3cf3b8887bfeb66e35ffbc0b64af39fc",
      "hash": "1b8f8b1bd912d814adce76c18aa45e5c3cf3b8887bfeb66e35ffbc0b64af39fc",
      "version": 1,
      "size": 135,
      "vsize": 135,
      "weight": 540,
      "locktime": 0,
      "vin": [
        {
          "coinbase": "04ffff001d02af04",
          "sequence": 4294967295
        }
      ],
      "vout": [
        {
          "value": 50.0,
          "n": 0,
          "scriptPubKey": {
            "asm": "042cc056b23db770658f8ee7faacb3543d7419546ee5b358786d0bbd4e09e050c840371fca229fa9f3ced056df32e902394bdbdad140d527f1391995e2e0665567 OP_CHECKSIG",
            "desc": "pk(042cc056b23db770658f8ee7faacb3543d7419546ee5b358786d0bbd4e09e050c840371fca229fa9f3ced056df32e902394bdbdad140d527f1391995e2e0665567)#lc5a3gqd",
            "hex": "41042cc056b23db770658f8ee7faacb3543d7419546ee5b358786d0bbd4e09e050c840371fca229fa9f3ced056df32e902394bdbdad140d527f1391995e2e0665567ac",
            "type": "pubkey"
          }
        }
      ],
      "hex": "01000000010000000000000000000000000000000000000000000000000000000000000000ffffffff0804ffff001d02af04ffffffff0100f2052a010000004341042cc056b23db770658f8ee7faacb3543d7419546ee5b358786d0bbd4e09e050c840371fca229fa9f3ced056df32e902394bdbdad140d527f1391995e2e0665567ac00000000"
    }
  ]
}