{
  "hash": "0000000095377cddc2c5ae9d490ff21009dfec53267e96fc3e8ab471325a30d6",
  "confirmations": 49112,
  "height": 3986,
  "version": 1,
  "versionHex": "00000001",
  "merkleroot": "03fc98d084e7e5046f07a51bcfa27bee036494849b7f010194b437c8e3d1a7c9",
  "time": 1234431775,
  "mediantime": 1234428351,
  "nonce": 2294233350,
  "bits": "1d00ffff",
  "difficulty": 1,
  "chainwork": "00000000000000000000000000000000000000000000000000000f930f930f93",
  "nTx": 1,
  "previousblockhash": "00000000cfff955cc1a30a3a8acb859b7636afd57b733acdbe43424282901e32",
  "nextblockhash": "00000000a8d81a0baa3a3e9336e82525abc22d1985f0ee8c8474be176cbf0e0c",
  "strippedsize": 216,
  "size": 216,
  "weight": 864,
  "tx": [
    {
      "txid": "03fc98d084e7e5046f07a51bcfa27bee036494849b7f010194b437c8e3d1a7c9",
      "hash": "03fc98d084e7e5046f07a51bcfa27bee036494849b7f010194b437c8e3d1a7c9",
      "version": 1,
      "size": 135,
      "vsize": 135,
      "weight": 540,
      "locktime": 0,
      "vin": [
        {
          "coinbase": "04ffff001d021904",
          "sequence": 4294967295
        }
      ],
      "vout": [
        {
          "value": 50.0,
          "n": 0,
          "scriptPubKey": {
            "asm": "0448f9c6e11db394867185876405a0f8fdce549a2e491cb06cad83241fa14f180c9f0f3bfd5b3a360f1c30156355a2834dca4186e3d744a2d4c268ef78eb78c3a2 OP_CHECKSIG",
            "desc": "pk(0448f9c6e11db394867185876405a0f8fdce549a2e491cb06cad83241fa14f180c9f0f3bfd5b3a360f1c30156355a2834dca4186e3d744a2d4c268ef78eb78c3a2)#c6ue230q",
            "hex": "410448f9c6e11db394867185876405a0f8fdce549a2e491cb06cad83241fa14f180c9f0f3bfd5b3a360f1c30156355a2834dca4186e3d744a2d4c268ef78eb78c3a2ac",
            "type": "pubkey"
          }
        }
      ],
      "hex": "01000000010000000000000000000000000000000000000000000000000000000000000000ffffffff0804ffff001d021904ffffffff0100f2052a0100000043410448f9c6e11db394867185876405a0f8fdce549a2e491cb06cad83241fa14f180c9f0f3bfd5b3a360f1c30156355a2834dca4186e3d744a2d4c268ef78eb78c3a2ac00000000"
    }
  ]
}