{
  "hash": "00000000dff3628050a0cf1dc78296821bed27e7c64a4257fb1a81b7e4f1841e",
  "confirmations": 47175,
  "height": 5923,
  "version": 1,
  "versionHex": "00000001",
  "merkleroot": "16ef6ce43774d84c4cecc18a85e954b8ec557651d4c3c17d6004ee6dad7d4afb",
  "time": 1235865487,
  "mediantime": 1235860147,
  "nonce": 3123872299,
  "bits": "1d00ffff",
  "difficulty": 1,
  "chainwork": "0000000000000000000000000000000000000000000000000000172417241724",
  "nTx": 1,
  "previousblockhash": "0000000022c4ed981e60b3cccebb719b1fe19ab4d34dd968310dcd1c92a2b9d8",
  "nextblockhash": "00000000885b5e92ff2cbb7c9d5f9778499bc4af3c4549d841e74421008efff5",
  "strippedsize": 216,
  "size": 216,
  "weight": 864,
  "tx": [
    {
      "txid": "16ef6ce43774d84c4cecc18a85e954b8ec557651d4c3c17d6004ee6dad7d4afb",
      "hash": "16ef6ce43774d84c4cecc18a85e954b8ec557651d4c3c17d6004ee6dad7d4afb",
      "version": 1,
      "size": 135,
      "vsize": 135,
      "weight": 540,
      "locktime": 0,
      "vin": [
        {
          "coinbase": "04ffff001d028803",
          "sequence": 4294967295
        }
      ],
      "vout": [
        {
          "value": 50.0,
          "n": 0,
          "scriptPubKey": {
            "asm": "04f765bed6176674a2228e0e936d7349a69a09ee729a02d33a368c94daa71e13f6d29635d84bbec1a9aec0194f0eb4deba858ee8f73d3aaba38791143dc0250c9d OP_CHECKSIG",
            "desc": "pk(04f765bed6176674a2228e0e936d7349a69a09ee729a02d33a368c94daa71e13f6d29635d84bbec1a9aec0194f0eb4deba858ee8f73d3aaba38791143dc0250c9d)#43aapj6s",
            "hex": "4104f765bed6176674a2228e0e936d7349a69a09ee729a02d33a368c94daa71e13f6d29635d84bbec1a9aec0194f0eb4deba858ee8f73d3aaba38791143dc0250c9dac",
            "type": "pubkey"
          }
        }
      ],
      "hex": "01000000010000000000000000000000000000000000000000000000000000000000000000ffffffff0804ffff001d028803ffffffff0100f2052a01000000434104f765bed6176674a2228e0e936d7349a69a09ee729a02d33a368c94daa71e13f6d29635d84bbec1a9aec0194f0eb4deba858ee8f73d3aaba38791143dc0250c9dac00000000"
    }
  ]
}