{
  "hash": "00000000b74de1a2be68c5fa0b4306dbf13ef64acff69a62a9abb4957176e847",
  "confirmations": 46110,
  "height": 6988,
  "version": 1,
  "versionHex": "00000001",
  "merkleroot": "a833a6066cb08b0f1dc7a7595fc27454f5f664aaa7564cd03f4c868f12ea1b17",
  "time": 1236709150,
  "mediantime": 1236703808,
  "nonce": 771110434,
  "bits": "1d00ffff",
  "difficulty": 1,
  "chainwork": "00000000000000000000000000000000000000000000000000001b4d1b4d1b4d",
  "nTx": 1,
  "previousblockhash": "00000000f501e981b2b5246ba86e9fbb822b5b71dbc019758cecd555ac561419",
  "nextblockhash": "000000006f6700ecc8de8fec25bff8a5811ce3c382a3083ac2f069a6db48a460",
  "strippedsize": 216,
  "size": 216,
  "weight": 864,
  "tx": [
    {
      "txid": "a833a6066cb08b0f1dc7a7595fc27454f5f664aaa7564cd03f4c868f12ea1b17",
      "hash": "a833a6066cb08b0f1dc7a7595fc27454f5f664aaa7564cd03f4c868f12ea1b17",
      "version": 1,
      "size": 135,
      "vsize": 135,
      "weight": 540,
      "locktime": 0,
      "vin": [
        {
          "coinbase": "04ffff001d021002",
          "sequence": 4294967295
        }
      ],
      "vout": [
        {
          "value": 50.0,
          "n": 0,
          "scriptPubKey": {
            "asm": "04cfb5c36a38d04dbd2fa2d70153fd7c67397a41eaaa7c5ea201e7c6a59bcdb2ab19e41ecf78ee77b95ba8074afaaa6d70543c1a07d87151664b8b559e5729878e OP_CHECKSIG",
            "desc": "pk(04cfb5c36a38d04dbd2fa2d70153fd7c67397a41eaaa7c5ea201e7c6a59bcdb2ab19e41ecf78ee77b95ba8074afaaa6d70543c1a07d87151664b8b559e5729878e)#p7yrky3d",
            "hex": "4104cfb5c36a38d04dbd2fa2d70153fd7c67397a41eaaa7c5ea201e7c6a59bcdb2ab19e41ecf78ee77b95ba8074afaaa6d70543c1a07d87151664b8b559e5729878eac",
            "type": "pubkey"
          }
        }
      ],
      "hex": "01000000010000000000000000000000000000000000000000000000000000000000000000ffffffff0804ffff001d021002ffffffff0100f2052a01000000434104cfb5c36a38d04dbd2fa2d70153fd7c67397a41eaaa7c5ea201e7c6a59bcdb2ab19e41ecf78ee77b95ba8074afaaa6d70543c1a07d87151664b8b559e5729878eac00000000"
    }
  ]
}