{
  "hash": "0000000079994f85bef0f1d6aabd59b089b5cd58e36d295fef9c0087ab399d30",
  "confirmations": 47900,
  "height": 5198,
  "version": 1,
  "versionHex": "00000001",
  "merkleroot": "5a6883fc20a61f2fc87d8dfef71e958ad9073ddfe5e37a5b2076e688b4506a3a",
  "time": 1235286859,
  "mediantime": 1235282195,
  "nonce": 3240744473,
  "bits": "1d00ffff",
  "difficulty": 1,
  "chainwork": "0000000000000000000000000000000000000000000000000000144f144f144f",
  "nTx": 1,
  "previousblockhash": "00000000c9a90bb14ed4b41e2db5bf1e24a06b03792e866d7a925b52b2e5ecfa",
  "nextblockhash": "0000000004b5e05be7c491eb4f6cd26c118039046cfdc10bd42f575af477f67d",
  "strippedsize": 216,
  "size": 216,
  "weight": 864,
  "tx": [
    {
      "txid": "5a6883fc20a61f2fc87d8dfef71e958ad9073ddfe5e37a5b2076e688b4506a3a",
      "hash": "5a6883fc20a61f2fc87d8dfef71e958ad9073ddfe5e37a5b2076e688b4506a3a",
      "version": 1,
      "size": 135,
      "vsize": 135,
      "weight": 540,
      "locktime": 0,
      "vin": [
        {
          "coinbase": "04ffff001d029c00",
          "sequence": 4294967295
        }
      ],
      "vout": [
        {
          "value": 50.0,
          "n": 0,
          "scriptPubKey": {
            "asm": "048f2ed1ed4afef62f4356bde31f5ae580f0d2640d0cb6b1c32aea7073ffc862623024e9e675a996d630c47d9ec86430b00dd087fd3e916489b5f21ede647fe9ab OP_CHECKSIG",
            "desc": "pk(048f2ed1ed4afef62f4356bde31f5ae580f0d2640d0cb6b1c32aea7073ffc862623024e9e675a996d630c47d9ec86430b00dd087fd3e916489b5f21ede647fe9ab)#c64ekdjj",
            "hex": "41048f2ed1ed4afef62f4356bde31f5ae580f0d2640d0cb6b1c32aea7073ffc862623024e9e675a996d630c47d9ec86430b00dd087fd3e916489b5f21ede647fe9abac",
            "type": "pubkey"
          }
        }
      ],
      "hex": "01000000010000000000000000000000000000000000000000000000000000000000000000ffffffff0804ffff001d029c00ffffffff0100f2052a010000004341048f2ed1ed4afef62f4356bde31f5ae580f0d2640d0cb6b1c32aea7073ffc862623024e9e675a996d630c47d9ec86430b00dd087fd3e916489b5f21ede647fe9abac00000000"
    }
  ]
}