{
  "hash": "00000000a91bf5d68cd1da7873fc2d6a173462df900eabc46b0d6fc20a223a0e",
  "confirmations": 46484,
  "height": 6614,
  "version": 1,
  "versionHex": "00000001",
  "merkleroot": "52bf7931f7daeaa3a76f19aae9449a228a4075480f08555b0c20fdd5899699ab",
  "time": 1236414238,
  "mediantime": 1236411714,
  "nonce": 47697940,
  "bits": "1d00ffff",
  "difficulty": 1,
  "chainwork": "000000000000000000000000000000000000000000000000000019d719d719d7",
  "nTx": 1,
  "previousblockhash": "000000001e1073c002b345c5294a18b269bc4959c1f1cdf27053617474b0b253",
  "nextblockhash": "0000000096a8c39735960c1e0722516a0b8bf8075696f7ebcdf8bf2f50f60777",
  "strippedsize": 216,
  "size": 216,
  "weight": 864,
  "tx": [
    {
      "txid": "52bf7931f7daeaa3a76f19aae9449a228a4075480f08555b0c20fdd5899699ab",
      "hash": "52bf7931f7daeaa3a76f19aae9449a228a4075480f08555b0c20fdd5899699ab",
      "version": 1,
      "size": 135,
      "vsize": 135,
      "weight": 540,
      "locktime": 0,
      "vin": [
        {
          "coinbase": "04ffff001d025e05",
          "sequence": 4294967295
        }
      ],
      "vout": [
        {
          "value": 50.0,
          "n": 0,
          "scriptPubKey": {
            "asm": "046f3bf0ec9d37de774da807b984555508e640e227158cb0b5249af7627df7863748b9ed4ed6bde3af636eb864e7df947349b6ab36dfe9e04f41b67fc80bf7f42c OP_CHECKSIG",
            "desc": "pk(046f3bf0ec9d37de774da807b984555508e640e227158cb0b5249af7627df7863748b9ed4ed6bde3af636eb864e7df947349b6ab36dfe9e04f41b67fc80bf7f42c)#aclwjz48",
            "hex": "41046f3bf0ec9d37de774da807b984555508e640e227158cb0b5249af7627df7863748b9ed4ed6bde3af636eb864e7df947349b6ab36dfe9e04f41b67fc80bf7f42cac",
            "type": "pubkey"
          }
        }
      ],
      "hex": "01000000010000000000000000000000000000000000000000000000000000000000000000ffffffff0804ffff001d025e05ffffffff0100f2052a010000004341046f3bf0ec9d37de774da807b984555508e640e227158cb0b5249af7627df7863748b9ed4ed6bde3af636eb864e7df947349b6ab36dfe9e04f41b67fc80bf7f42cac00000000"
    }
  ]
}