{
  "hash": "000000008883d98fd3816ed207d7af28056083abb2edfe78f2f8ac1bccefdd97",
  "confirmations": 45433,
  "height": 7665,
  "version": 1,
  "versionHex": "00000001",
  "merkleroot": "572d97cf88e2a0ea76225599426067426e66b4b0b6a2110135315e92487d3273",
  "time": 1237213762,
  "mediantime": 1237210399,
  "nonce": 1428068896,
  "bits": "1d00ffff",
  "difficulty": 1,
  "chainwork": "00000000000000000000000000000000000000000000000000001df21df21df2",
  "nTx": 1,
  "previousblockhash": "0000000061371d1d2960260e545f235dd1d541ac0344c0b294f6fef9e4b9710d",
  "nextblockhash": "00000000eb1955ce14a5c2d9e3aca735de89d476b5028be84dff82c476563a40",
  "strippedsize": 216,
  "size": 216,
  "weight": 864,
  "tx": [
    {
      "txid": "572d97cf88e2a0ea76225599426067426e66b4b0b6a2110135315e92487d3273",
      "hash": "572d97cf88e2a0ea76225599426067426e66b4b0b6a2110135315e92487d3273",
      "version": 1,
      "size": 135,
      "vsize": 135,
      "weight": 540,
      "locktime": 0,
      "vin": [
        {
          "coinbase": "04ffff001d028c03",
          "sequence": 4294967295
        }
      ],
      "vout": [
        {
          "value": 50.0,
          "n": 0,
          "scriptPubKey": {
            "asm": "048c73b48446d0b1802256cd0e8542732c2ea2a60835b659f601d991b704a5efbef66db37d62932677bf3f808a16a89162cd372e1264da07bd025b849734e0f5c7 OP_CHECKSIG",
            "desc": "pk(048c73b48446d0b1802256cd0e8542732c2ea2a60835b659f601d991b704a5efbef66db37d62932677bf3f808a16a89162cd372e1264da07bd025b849734e0f5c7)#eqd3ke8l",
            "hex": "41048c73b48446d0b1802256cd0e8542732c2ea2a60835b659f601d991b704a5efbef66db37d62932677bf3f808a16a89162cd372e1264da07bd025b849734e0f5c7ac",
            "type": "pubkey"
          }
        }
      ],
      "hex": "01000000010000000000000000000000000000000000000000000000000000000000000000ffffffff0804ffff001d028c03ffffffff0100f2052a010000004341048c73b48446d0b1802256cd0e8542732c2ea2a60835b659f601d991b704a5efbef66db37d62932677bf3f808a16a89162cd372e1264da07bd025b849734e0f5c7ac00000000"
    }
  ]
}