{
  "hash": "000000008d533850b2f17cdcd43bff547a01f583f44f38bddfa2e10eab9eec01",
  "confirmations": 44207,
  "height": 8891,
  "version": 1,
  "versionHex": "00000001",
  "merkleroot": "d481fa8b2333e171d14c7d1293006ae260b4a1aea2fdb3fca8ac87ea1a782117",
  "time": 1238171101,
  "mediantime": 1238166414,
  "nonce": 3210329378,
  "bits": "1d00ffff",
  "difficulty": 1,
  "chainwork": "000000000000000000000000000000000000000000000000000022bc22bc22bc",
  "nTx": 1,
  "previousblockhash": "00000000c735d3c3c9a02fba4f4807d696280c3fcb402abd7dce29d95a38f9fb",
  "nextblockhash": "00000000579d1b1795feb37dbef421a54714aac6460d74d15ea850bb598c1342",
  "strippedsize": 216,
  "size": 216,
  "weight": 864,
  "tx": [
    {
      "txid": "d481fa8b2333e171d14c7d1293006ae260b4a1aea2fdb3fca8ac87ea1a782117",
      "hash": "d481fa8b2333e171d14c7d1293006ae260b4a1aea2fdb3fca8ac87ea1a782117",
      "version": 1,
      "size": 135,
      "vsize": 135,
      "weight": 540,
      "locktime": 0,
      "vin": [
        {
          "coinbase": "04ffff001d024d04",
          "sequence": 4294967295
        }
      ],
      "vout": [
        {
          "value": 50.0,
          "n": 0,
          "scriptPubKey": {
            "asm": "04d6883544cea4b18b1f340e4ae9b80106d70c18d8cde2acdd80295789ed0eff0cb4b302f81b1d3f3745f944e516bd575f2f8f9e48d02ac12574b119c87c6e575d OP_CHECKSIG",
            "desc": "pk(04d6883544cea4b18b1f340e4ae9b80106d70c18d8cde2acdd80295789ed0eff0cb4b302f81b1d3f3745f944e516bd575f2f8f9e48d02ac12574b119c87c6e575d)#d0lm8ark",
            "hex": "4104d6883544cea4b18b1f340e4ae9b80106d70c18d8cde2acdd80295789ed0eff0cb4b302f81b1d3f3745f944e516bd575f2f8f9e48d02ac12574b119c87c6e575dac",
            "type": "pubkey"
          }
        }
      ],
      "hex": "01000000010000000000000000000000000000000000000000000000000000000000000000ffffffff0804ffff001d024d04ffffffff0100f2052a01000000434104d6883544cea4b18b1f340e4ae9b80106d70c18d8cde2acdd80295789ed0eff0cb4b302f81b1d3f3745f944e516bd575f2f8f9e48d02ac12574b119c87c6e575dac00000000"
    }
  ]
}