{
  "hash": "00000000a9f7951b94c788d7e5b96e1f606bae29cb7439b3b2f357411b2f7cd6",
  "confirmations": 44052,
  "height": 9046,
  "version": 1,
  "versionHex": "00000001",
  "merkleroot": "445fc97c6daf34e4b19c7d800b4d3dc5f4d2273db937807bc4bc4ad0fb20a46e",
  "time": 1238285650,
  "mediantime": 1238283120,
  "nonce": 1139209495,
  "bits": "1d00ffff",
  "difficulty": 1,
  "chainwork": "0000000000000000000000000000000000000000000000000000235723572357",
  "nTx": 1,
  "previousblockhash": "000000000f5ec0f4106f0302f9302cad7da39c5bd7a1e0b88c411d730047be2a",
  "nextblockhash": "00000000652518bcaeb45faa6379068d5ed34caa0fe046498b974d8acc265a1d",
  "strippedsize": 216,
  "size": 216,
  "weight": 864,
  "tx": [
    {
      "txid": "445fc97c6daf34e4b19c7d800b4d3dc5f4d2273db937807bc4bc4ad0fb20a46e",
      "hash": "445fc97c6daf34e4b19c7d800b4d3dc5f4d2273db937807bc4bc4ad0fb20a46e",
      "version": 1,
      "size": 135,
      "vsize": 135,
      "weight": 540,
      "locktime": 0,
      "vin": [
        {
          "coinbase": "04ffff001d023107",
          "sequence": 4294967295
        }
      ],
      "vout": [
        {
          "value": 50.0,
          "n": 0,
          "scriptPubKey": {
            "asm": "045d89af662198abcdb23b16a1185e7ee377fc4669d0ca38d13781f0a87b271208b376825a9a4392ecf7b13d0c4d771dcc8020a512c8c34f04a254d2fb16c8d66b OP_CHECKSIG",
            "desc": "pk(045d89af662198abcdb23b16a1185e7ee377fc4669d0ca38d13781f0a87b271208b376825a9a4392ecf7b13d0c4d771dcc8020a512c8c34f04a254d2fb16c8d66b)#mte89l2z",
            "hex": "41045d89af662198abcdb23b16a1185e7ee377fc4669d0ca38d13781f0a87b271208b376825a9a4392ecf7b13d0c4d771dcc8020a512c8c34f04a254d2fb16c8d66bac",
            "type": "pubkey"
          }
        }
      ],
      "hex": "01000000010000000000000000000000000000000000000000000000000000000000000000ffffffff0804ffff001d023107ffffffff0100f2052a010000004341045d89af662198abcdb23b16a1185e7ee377fc4669d0ca38d13781f0a87b271208b376825a9a4392ecf7b13d0c4d771dcc8020a512c8c34f04a254d2fb16c8d66bac00000000"
    }
  ]
}