{
  "hash": "0000000016e447db6b826944c678cda4dc1a71af94ff6ff9452281f0677c442f",
  "confirmations": 43314,
  "height": 9784,
  "version": 1,
  "versionHex": "00000001",
  "merkleroot": "fa11a288d175a43452343803872a4c78ed9f448080f2bfd35e804c58e6616e1f",
  "time": 1238846554,
  "mediantime": 1238841421,
  "nonce": 4279119386,
  "bits": "1d00ffff",
  "difficulty": 1,
  "chainwork": "0000000000000000000000000000000000000000000000000000263926392639",
  "nTx": 1,
  "previousblockhash": "000000002a97e6e8121066414b7b000246aaa7d342285e1a02341e69aac4511f",
  "nextblockhash": "000000009ac2acfcd4bdb56050db189a2efcfa8f81ffa94acadfe10049905cbf",
  "strippedsize": 215,
  "size": 215,
  "weight": 860,
  "tx": [
    {
      "txid": "fa11a288d175a43452343803872a4c78ed9f448080f2bfd35e804c58e6616e1f",
      "hash": "fa11a288d175a43452343803872a4c78ed9f448080f2bfd35e804c58e6616e1f",
      "version": 1,
      "size": 134,
      "vsize": 134,
      "weight": 536,
      "locktime": 0,
      "vin": [
        {
          "coinbase": "04ffff001d011a",
          "sequence": 4294967295
        }
      ],
      "vout": [
        {
          "value": 50.0,
          "n": 0,
          "scriptPubKey": {
            "asm": "04712f67fd0660576e87f6123b0028c577e1a4500403f4a362c4fe502c274811be475345f67954765264cec60ca22b77564cf0a9b4d9a6bf08ae207c9c0a8b2ae0 OP_CHECKSIG",
            "desc": "pk(04712f67fd0660576e87f6123b0028c577e1a4500403f4a362c4fe502c274811be475345f67954765264cec60ca22b77564cf0a9b4d9a6bf08ae207c9c0a8b2ae0)#0anm8tw0",
            "hex": "4104712f67fd0660576e87f6123b0028c577e1a4500403f4a362c4fe502c274811be475345f67954765264cec60ca22b77564cf0a9b4d9a6bf08ae207c9c0a8b2ae0ac",
            "type": "pubkey"
          }
        }
      ],
      "hex": "01000000010000000000000000000000000000000000000000000000000000000000000000ffffffff0704ffff001d011affffffff0100f2052a01000000434104712f67fd0660576e87f6123b0028c577e1a4500403f4a362c4fe502c274811be475345f67954765264cec60ca22b77564cf0a9b4d9a6bf08ae207c9c0a8b2ae0ac00000000"
    }
  ]
}