{
  "hash": "000000005310be1d1359d2ee7a7b810dae924ce77f22e5b48a44d248899c5134",
  "confirmations": 52283,
  "height": 815,
  "version": 1,
  "versionHex": "00000001",
  "merkleroot": "dc03b4bff985848382b9e703edf9df25f64534c3b1784991a8938d25bbcddd3e",
  "time": 1232203123,
  "mediantime": 1232200390,
  "nonce": 72719666,
  "bits": "1d00ffff",
  "difficulty": 1,
  "chainwork": "0000000000000000000000000000000000000000000000000000033003300330",
  "nTx": 1,
  "previousblockhash": "00000000bb8f0f8f1b6ed581c0d13e52008d0cb527d5ed78264c30827da4c3ba",
  "nextblockhash": "0000000099b87777f68f4308d652508aff9e586f314c69a58f30bb6c22b6b58c",
  "strippedsize": 216,
  "size": 216,
  "weight": 864,
  "tx": [
    {
      "txid": "dc03b4bff985848382b9e703edf9df25f64534c3b1784991a8938d25bbcddd3e",
      "hash": "dc03b4bff985848382b9e703edf9df25f64534c3b1784991a8938d25bbcddd3e",
      "version": 1,
      "size": 135,
      "vsize": 135,
      "weight": 540,
      "locktime": 0,
      "vin": [
        {
          "coinbase": "04ffff001d02c801",
          "sequence": 4294967295
        }
      ],
      "vout": [
        {
          "value": 50.0,
          "n": 0,
          "scriptPubKey": {
            "asm": "04a009987419f4551f1795f63416fcd6dbaece12def545c352dd82caa4f69f5822a994cf74c9d3ab4a9b2d47983cbd78c82e589b185bc2901c54f4d2887f6dc6b5 OP_CHECKSIG",
            "desc": "pk(04a009987419f4551f1795f63416fcd6dbaece12def545c352dd82caa4f69f5822a994cf74c9d3ab4a9b2d47983cbd78c82e589b185bc2901c54f4d2887f6dc6b5)#xm9slzl9",
            "hex": "4104a009987419f4551f1795f63416fcd6dbaece12def545c352dd82caa4f69f5822a994cf74c9d3ab4a9b2d47983cbd78c82e589b185bc2901c54f4d2887f6dc6b5ac",
            "type": "pubkey"
          }
        }
      ],
      "hex": "01000000010000000000000000000000000000000000000000000000000000000000000000ffffffff0804ffff001d02c801ffffffff0100f2052a01000000434104a009987419f4551f1795f63416fcd6dbaece12def545c352dd82caa4f69f5822a994cf74c9d3ab4a9b2d47983cbd78c82e589b185bc2901c54f4d2887f6dc6b5ac00000000"
    }
  ]
}