{
  "hash": "00000000b9dbc1f3df566792f19e87f3e9ec2b4ee98f1885e53af0b1968788e0",
  "confirmations": 50652,
  "height": 2446,
  "version": 1,
  "versionHex": "00000001",
  "merkleroot": "6ef475576676ec90d79ee9ebaf9695952a4a001e3f296d301c06cc7d001970d2",
  "time": 1233389946,
  "mediantime": 1233386287,
  "nonce": 2868267272,
  "bits": "1d00ffff",
  "difficulty": 1,
  "chainwork": "0000000000000000000000000000000000000000000000000000098f098f098f",
  "nTx": 1,
  "previousblockhash": "000000000b25395a2280c0e3fdfb19149d1a0800093df9760e7714f72e40339d",
  "nextblockhash": "000000002d6c37d83b3f6e005cb84fbc33cfff96b0fe3e33a462e370017957c5",
  "strippedsize": 215,
  "size": 215,
  "weight": 860,
  "tx": [
    {
      "txid": "6ef475576676ec90d79ee9ebaf9695952a4a001e3f296d301c06cc7d001970d2",
      "hash": "6ef475576676ec90d79ee9ebaf9695952a4a001e3f296d301c06cc7d001970d2",
      "version": 1,
      "size": 134,
      "vsize": 134,
      "weight": 536,
      "locktime": 0,
      "vin": [
        {
          "coinbase": "04ffff001d0174",
          "sequence": 4294967295
        }
      ],
      "vout": [
        {
          "value": 50.0,
          "n": 0,
          "scriptPubKey": {
            "asm": "04c372d9b6b0ffe1ed108a10fafc71ae35a4242141bc638d1fe1ec8923a6420d0456100d397b0016e6ed204b83115752cb4c9c74d54de1f2f80b6c7401e34eedb6 OP_CHECKSIG",
            "desc": "pk(04c372d9b6b0ffe1ed108a10fafc71ae35a4242141bc638d1fe1ec8923a6420d0456100d397b0016e6ed204b83115752cb4c9c74d54de1f2f80b6c7401e34eedb6)#fcjyrygu",
            "hex": "4104c372d9b6b0ffe1ed108a10fafc71ae35a4242141bc638d1fe1ec8923a6420d0456100d397b0016e6ed204b83115752cb4c9c74d54de1f2f80b6c7401e34eedb6ac",
            "type": "pubkey"
          }
        }
      ],
      "hex": "01000000010000000000000000000000000000000000000000000000000000000000000000ffffffff0704ffff001d0174ffffffff0100f2052a01000000434104c372d9b6b0ffe1ed108a10fafc71ae35a4242141bc638d1fe1ec8923a6420d0456100d397b0016e6ed204b83115752cb4c9c74d54de1f2f80b6c7401e34eedb6ac00000000"
    }
  ]
}