{
  "hash": "00000000136c18e706a94aee3ca40c914d4ba806e0606a42c7e951c79cbc8f86",
  "confirmations": 50427,
  "height": 2671,
  "version": 1,
  "versionHex": "00000001",
  "merkleroot": "6da6a35cfcbbdeceee79f9922b86d5e8740d1292a498e88eb3950a60c6e13be6",
  "time": 1233542925,
  "mediantime": 1233537869,
  "nonce": 2488972567,
  "bits": "1d00ffff",
  "difficulty": 1,
  "chainwork": "00000000000000000000000000000000000000000000000000000a700a700a70",
  "nTx": 1,
  "previousblockhash": "00000000794981ee7b4866a799bfd474b03da9fea865e58625d7168c89007fdc",
  "nextblockhash": "0000000068219b0408068df138c21a953f6e697af66ae95514e001b70f052efc",
  "strippedsize": 216,
  "size": 216,
  "weight": 864,
  "tx": [
    {
      "txid": "6da6a35cfcbbdeceee79f9922b86d5e8740d1292a498e88eb3950a60c6e13be6",
      "hash": "6da6a35cfcbbdeceee79f9922b86d5e8740d1292a498e88eb3950a60c6e13be6",
      "version": 1,
      "size": 135,
      "vsize": 135,
      "weight": 540,
      "locktime": 0,
      "vin": [
        {
          "coinbase": "04ffff001d025304",
          "sequence": 4294967295
        }
      ],
      "vout": [
        {
          "value": 50.0,
          "n": 0,
          "scriptPubKey": {
            "asm": "04bded5bd90bbeeea642f606ab58bf2b23d5b7ef0b35004a6f3ab69e43b49668b6aa73b5eb135009a7bb0b8c91de1c51921d52738a3fd1581d21ada56b7edcef8b OP_CHECKSIG",
            "desc": "pk(04bded5bd90bbeeea642f606ab58bf2b23d5b7ef0b35004a6f3ab69e43b49668b6aa73b5eb135009a7bb0b8c91de1c51921d52738a3fd1581d21ada56b7edcef8b)#j70gwtrn",
            "hex": "4104bded5bd90bbeeea642f606ab58bf2b23d5b7ef0b35004a6f3ab69e43b49668b6aa73b5eb135009a7bb0b8c91de1c51921d52738a3fd1581d21ada56b7edcef8bac",
            "type": "pubkey"
          }
        }
      ],
      "hex": "01000000010000000000000000000000000000000000000000000000000000000000000000ffffffff0804ffff001d025304ffffffff0100f2052a01000000434104bded5bd90bbeeea642f606ab58bf2b23d5b7ef0b35004a6f3ab69e43b49668b6aa73b5eb135009a7bb0b8c91de1c51921d52738a3fd1581d21ada56b7edcef8bac00000000"
    }
  ]
}