{
  "hash": "000000005ab5baa8ca1a5343bb7d84a5ef42e31b91a2e673137654d689881b27",
  "confirmations": 52209,
  "height": 409,
  "version": 1,
  "versionHex": "00000001",
  "merkleroot": "42c8a250c0512d2b2e439391a66874684e1047325eab8cef8f786e82fb2abde0",
  "time": 1231908863,
  "mediantime": 1231904592,
  "nonce": 567133229,
  "bits": "1d00ffff",
  "difficulty": 1,
  "chainwork": "0000000000000000000000000000000000000000000000000000019a019a019a",
  "nTx": 1,
  "previousblockhash": "00000000f079868ed92cd4e7b7f50a5f8a2bb459ab957dd5402af7be7bd8ea6b",
  "nextblockhash": "000000009579d1a62c9b365682641a0a6d73fc047b93fc5ab4ea046ccd9877ef",
  "strippedsize": 216,
  "size": 216,
  "weight": 864,
  "tx": [
    {
      "txid": "42c8a250c0512d2b2e439391a66874684e1047325eab8cef8f786e82fb2abde0",
      "hash": "42c8a250c0512d2b2e439391a66874684e1047325eab8cef8f786e82fb2abde0",
      "version": 1,
      "size": 135,
      "vsize": 135,
      "weight": 540,
      "locktime": 0,
      "vin": [
        {
          "coinbase": "04ffff001d02be02",
          "sequence": 4294967295
        }
      ],
      "vout": [
        {
          "value": 50.0,
          "n": 0,
          "scriptPubKey": {
            "asm": "04e8c3062579448bb939365153c9bf24fce7668541873dda6a7e0faba5b420ac4d16c8613528c0dd00edffe2cf6cb26940cd1827aa2bf2b7148e5c4b4d8b89d007 OP_CHECKSIG",
            "desc": "pk(04e8c3062579448bb939365153c9bf24fce7668541873dda6a7e0faba5b420ac4d16c8613528c0dd00edffe2cf6cb26940cd1827aa2bf2b7148e5c4b4d8b89d007)#w7vacznx",
            "hex": "4104e8c3062579448bb939365153c9bf24fce7668541873dda6a7e0faba5b420ac4d16c8613528c0dd00edffe2cf6cb26940cd1827aa2bf2b7148e5c4b4d8b89d007ac",
            "type": "pubkey"
          }
        }
      ],
      "hex": "01000000010000000000000000000000000000000000000000000000000000000000000000ffffffff0804ffff001d02be02ffffffff0100f2052a01000000434104e8c3062579448bb939365153c9bf24fce7668541873dda6a7e0faba5b420ac4d16c8613528c0dd00edffe2cf6cb26940cd1827aa2bf2b7148e5c4b4d8b89d007ac00000000"
    }
  ]
}