{
  "hash": "000000004b68c320b5596786d8aec8606695b9a7af378ce587854ac7b6dc4493",
  "confirmations": 52395,
  "height": 703,
  "version": 1,
  "versionHex": "00000001",
  "merkleroot": "633d885165f7a59d3223663308ce41d3f36eebc3862fce4897ce9c2180b229fa",
  "time": 1232110280,
  "mediantime": 1232107813,
  "nonce": 2373131541,
  "bits": "1d00ffff",
  "difficulty": 1,
  "chainwork": "000000000000000000000000000000000000000000000000000002c002c002c0",
  "nTx": 1,
  "previousblockhash": "00000000871ec3ebba39cc9e961d288c45838c9ab4f96f982c71d97a837e5071",
  "nextblockhash": "00000000b0b1a85adf0d820cb132d663ae799a4c65d3333673f28cda68f7be9c",
  "strippedsize": 216,
  "size": 216,
  "weight": 864,
  "tx": [
    {
      "txid": "633d885165f7a59d3223663308ce41d3f36eebc3862fce4897ce9c2180b229fa",
      "hash": "633d885165f7a59d3223663308ce41d3f36eebc3862fce4897ce9c2180b229fa",
      "version": 1,
      "size": 135,
      "vsize": 135,
      "weight": 540,
      "locktime": 0,
      "vin": [
        {
          "coinbase": "04ffff001d021901",
          "sequence": 4294967295
        }
      ],
      "vout": [
        {
          "value": 50.0,
          "n": 0,
          "scriptPubKey": {
            "asm": "04931b796227ab3d3668f6132733ad8be4afa601047100f5aa75d27c0c44dcbcc582d72297e3d3429962d95f26481d2bb5b29b4af0a21b66dc9576f495e35377a5 OP_CHECKSIG",
            "desc": "pk(04931b796227ab3d3668f6132733ad8be4afa601047100f5aa75d27c0c44dcbcc582d72297e3d3429962d95f26481d2bb5b29b4af0a21b66dc9576f495e35377a5)#lggc6wvv",
            "hex": "4104931b796227ab3d3668f6132733ad8be4afa601047100f5aa75d27c0c44dcbcc582d72297e3d3429962d95f26481d2bb5b29b4af0a21b66dc9576f495e35377a5ac",
            "type": "pubkey"
          }
        }
      ],
      "hex": "01000000010000000000000000000000000000000000000000000000000000000000000000ffffffff0804ffff001d021901ffffffff0100f2052a01000000434104931b796227ab3d3668f6132733ad8be4afa601047100f5aa75d27c0c44dcbcc582d72297e3d3429962d95f26481d2bb5b29b4af0a21b66dc9576f495e35377a5ac00000000"
    }
  ]
}