{
  "hash": "00000000dfe07c8393f2137c98ce7e54d4891aadda43f44c2bff051ec9923e52",
  "confirmations": 48875,
  "height": 4223,
  "version": 1,
  "versionHex": "00000001",
  "merkleroot": "b3a234103fdb4d03daa78e25dfbcb1411aef9696e87fa1e87bab79067afa2835",
  "time": 1234594361,
  "mediantime": 1234591114,
  "nonce": 106687186,
  "bits": "1d00ffff",
  "difficulty": 1,
  "chainwork": "0000000000000000000000000000000000000000000000000000108010801080",
  "nTx": 1,
  "previousblockhash": "00000000c684b3e35639eb7d02651ebb536c90fe1a6aaa69c82a47c4ae8b110d",
  "nextblockhash": "00000000fdb47917eac4f292e95945e3ecbf708dca2095109d9f5ea02834aba3",
  "strippedsize": 215,
  "size": 215,
  "weight": 860,
  "tx": [
    {
      "txid": "b3a234103fdb4d03daa78e25dfbcb1411aef9696e87fa1e87bab79067afa2835",
      "hash": "b3a234103fdb4d03daa78e25dfbcb1411aef9696e87fa1e87bab79067afa2835",
      "version": 1,
      "size": 134,
      "vsize": 134,
      "weight": 536,
      "locktime": 0,
      "vin": [
        {
          "coinbase": "04ffff001d012f",
          "sequence": 4294967295
        }
      ],
      "vout": [
        {
          "value": 50.0,
          "n": 0,
          "scriptPubKey": {
            "asm": "04084e1444adc14e5d9095046c7902adf2ef9192f0b08fd7164c3a97bb49f4606d4dd6e42adabcdcc4c9a45053381fb87c4039fc6c5fd40e0fecb4afe897e8db0c OP_CHECKSIG",
            "desc": "pk(04084e1444adc14e5d9095046c7902adf2ef9192f0b08fd7164c3a97bb49f4606d4dd6e42adabcdcc4c9a45053381fb87c4039fc6c5fd40e0fecb4afe897e8db0c)#laznuqzz",
            "hex": "4104084e1444adc14e5d9095046c7902adf2ef9192f0b08fd7164c3a97bb49f4606d4dd6e42adabcdcc4c9a45053381fb87c4039fc6c5fd40e0fecb4afe897e8db0cac",
            "type": "pubkey"
          }
        }
      ],
      "hex": "01000000010000000000000000000000000000000000000000000000000000000000000000ffffffff0704ffff001d012fffffffff0100f2052a01000000434104084e1444adc14e5d9095046c7902adf2ef9192f0b08fd7164c3a97bb49f4606d4dd6e42adabcdcc4c9a45053381fb87c4039fc6c5fd40e0fecb4afe897e8db0cac00000000"
    }
  ]
}