{
  "hash": "0000000048a9e61a5c47c60d9cda6594ca9798f040b4a6a7e73ad28b7f227cee",
  "confirmations": 44404,
  "height": 8694,
  "version": 1,
  "versionHex": "00000001",
  "merkleroot": "b0f48793228008baa37fa4f710d2d55f46f53223607acf9a01da99561a7be500",
  "time": 1238020420,
  "mediantime": 1238017120,
  "nonce": 88739882,
  "bits": "1d00ffff",
  "difficulty": 1,
  "chainwork": "000000000000000000000000000000000000000000000000000021f721f721f7",
  "nTx": 1,
  "previousblockhash": "000000004ed1690d9de9afc1a4b3aa95101655ffb7c84513b5a91dc5f26537c0",
  "nextblockhash": "00000000ad7b0e88e010c0a004734cc40a7e1ef5d42c45d236d7b1adfde66a61",
  "strippedsize": 216,
  "size": 216,
  "weight": 864,
  "tx": [
    {
      "txid": "b0f48793228008baa37fa4f710d2d55f46f53223607acf9a01da99561a7be500",
      "hash": "b0f48793228008baa37fa4f710d2d55f46f53223607acf9a01da99561a7be500",
      "version": 1,
      "size": 135,
      "vsize": 135,
      "weight": 540,
      "locktime": 0,
      "vin": [
        {
          "coinbase": "04ffff001d02d400",
          "sequence": 4294967295
        }
      ],
      "vout": [
        {
          "value": 50.0,
          "n": 0,
          "scriptPubKey": {
            "asm": "04169fa24ab431df2da8a2577b33339b2d5787bc755fb5c177eeee0a72dabbae568e5beb3b2dafd593dfd1aaca0fb45ae0c31ff073f5ce5c80260805fe78a742f8 OP_CHECKSIG",
            "desc": "pk(04169fa24ab431df2da8a2577b33339b2d5787bc755fb5c177eeee0a72dabbae568e5beb3b2dafd593dfd1aaca0fb45ae0c31ff073f5ce5c80260805fe78a742f8)#dd4jyvlu",
            "hex": "4104169fa24ab431df2da8a2577b33339b2d5787bc755fb5c177eeee0a72dabbae568e5beb3b2dafd593dfd1aaca0fb45ae0c31ff073f5ce5c80260805fe78a742f8ac",
            "type": "pubkey"
          }
        }
      ],
      "hex": "01000000010000000000000000000000000000000000000000000000000000000000000000ffffffff0804ffff001d02d400ffffffff0100f2052a01000000434104169fa24ab431df2da8a2577b33339b2d5787bc755fb5c177eeee0a72dabbae568e5beb3b2dafd593dfd1aaca0fb45ae0c31ff073f5ce5c80260805fe78a742f8ac00000000"
    }
  ]
}