{
  "hash": "00000000aa529a2a6a344eeacf1b9dae8e5e76c8bcc31bb2aad01ecb42a53f75",
  "confirmations": 44474,
  "height": 8624,
  "version": 1,
  "versionHex": "00000001",
  "merkleroot": "31a3ddbd66cb898041898cd76580e5e18dd01e3064a9062cbb77c3b7ac9b56f5",
  "time": 1237966225,
  "mediantime": 1237962904,
  "nonce": 138010650,
  "bits": "1d00ffff",
  "difficulty": 1,
  "chainwork": "000000000000000000000000000000000000000000000000000021b121b121b1",
  "nTx": 1,
  "previousblockhash": "000000009b7725ad1c7e9b3b2e0d80436d6013d620ce80c94e4d210ee6d75f15",
  "nextblockhash": "00000000b1b293d82e4d00be6ab2e0c106c9d15ee26f4289e572f4209d27c86e",
  "strippedsize": 216,
  "size": 216,
  "weight": 864,
  "tx": [
    {
      "txid": "31a3ddbd66cb898041898cd76580e5e18dd01e3064a9062cbb77c3b7ac9b56f5",
      "hash": "31a3ddbd66cb898041898cd76580e5e18dd01e3064a9062cbb77c3b7ac9b56f5",
      "version": 1,
      "size": 135,
      "vsize": 135,
      "weight": 540,
      "locktime": 0,
      "vin": [
        {
          "coinbase": "04ffff001d02ef09",
          "sequence": 4294967295
        }
      ],
      "vout": [
        {
          "value": 50.0,
          "n": 0,
          "scriptPubKey": {
            "asm": "04e562fda7e371e8eef4b57bc7bfc4798b1beb51473ad5d45853da7bf0889d3cdfe0b2aa942d02199ff784d380d736141a6345d35dee1f166c2d4a61133062e0e6 OP_CHECKSIG",
            "desc": "pk(04e562fda7e371e8eef4b57bc7bfc4798b1beb51473ad5d45853da7bf0889d3cdfe0b2aa942d02199ff784d380d736141a6345d35dee1f166c2d4a61133062e0e6)#h2qw2vv8",
            "hex": "4104e562fda7e371e8eef4b57bc7bfc4798b1beb51473ad5d45853da7bf0889d3cdfe0b2aa942d02199ff784d380d736141a6345d35dee1f166c2d4a61133062e0e6ac",
            "type": "pubkey"
          }
        }
      ],
      "hex": "01000000010000000000000000000000000000000000000000000000000000000000000000ffffffff0804ffff001d02ef09ffffffff0100f2052a01000000434104e562fda7e371e8eef4b57bc7bfc4798b1beb51473ad5d45853da7bf0889d3cdfe0b2aa942d02199ff784d380d736141a6345d35dee1f166c2d4a61133062e0e6ac00000000"
    }
  ]
}