{
  "hash": "00000000d359dd3280b18846242abe55db3ec6c60b04d70a0e6461592102bf41",
  "confirmations": 47948,
  "height": 5150,
  "version": 1,
  "versionHex": "00000001",
  "merkleroot": "fcc22f20b353d566a963a818e32e907db37bb0579b5c827254493117e4976c67",
  "time": 1235253395,
  "mediantime": 1235249548,
  "nonce": 1159296256,
  "bits": "1d00ffff",
  "difficulty": 1,
  "chainwork": "0000000000000000000000000000000000000000000000000000141f141f141f",
  "nTx": 1,
  "previousblockhash": "000000006d0dab5b68864a4efd945d04860b9d7a227ad02ebde903eaacc8d8dc",
  "nextblockhash": "00000000c4988f2fb9916040b2dfc5a1d4b348561f9e15f972fb4529041a91ed",
  "strippedsize": 216,
  "size": 216,
  "weight": 864,
  "tx": [
    {
      "txid": "fcc22f20b353d566a963a818e32e907db37bb0579b5c827254493117e4976c67",
      "hash": "fcc22f20b353d566a963a818e32e907db37bb0579b5c827254493117e4976c67",
      "version": 1,
      "size": 135,
      "vsize": 135,
      "weight": 540,
      "locktime": 0,
      "vin": [
        {
          "coinbase": "04ffff001d02e609",
          "sequence": 4294967295
        }
      ],
      "vout": [
        {
          "value": 50.0,
          "n": 0,
          "scriptPubKey": {
            "asm": "04e30e4b8a24b6a0572dff4766f352e8d233b3d86820136afde0d2b50db0019938e3e77ec7de2208ba3e0898dc6a0e6e0137eb4fa3ecb4bf2d7c7a3f58526b89d9 OP_CHECKSIG",
            "desc": "pk(04e30e4b8a24b6a0572dff4766f352e8d233b3d86820136afde0d2b50db0019938e3e77ec7de2208ba3e0898dc6a0e6e0137eb4fa3ecb4bf2d7c7a3f58526b89d9)#96qe9zj3",
            "hex": "4104e30e4b8a24b6a0572dff4766f352e8d233b3d86820136afde0d2b50db0019938e3e77ec7de2208ba3e0898dc6a0e6e0137eb4fa3ecb4bf2d7c7a3f58526b89d9ac",
            "type": "pubkey"
          }
        }
      ],
      "hex": "01000000010000000000000000000000000000000000000000000000000000000000000000ffffffff0804ffff001d02e609ffffffff0100f2052a01000000434104e30e4b8a24b6a0572dff4766f352e8d233b3d86820136afde0d2b50db0019938e3e77ec7de2208ba3e0898dc6a0e6e0137eb4fa3ecb4bf2d7c7a3f58526b89d9ac00000000"
    }
  ]
}