{
  "hash": "000000009e50091c12aa8dc002a193522a5781a1a526ea96c77fb14f75aac9cf",
  "confirmations": 52027,
  "height": 204,
  "version": 1,
  "versionHex": "00000001",
  "merkleroot": "4b2eaa4a5da7d929fc652e089d7d1b86948fdf920ef430c03b93172fd4e6a721",
  "time": 1231756638,
  "mediantime": 1231752757,
  "nonce": 15280487,
  "bits": "1d00ffff",
  "difficulty": 1,
  "chainwork": "000000000000000000000000000000000000000000000000000000cd00cd00cd",
  "nTx": 1,
  "previousblockhash": "000000001ee5a7a841a87b59245aa36f03b5d7d3d43963d0f2bf76f3d1fc2172",
  "nextblockhash": "00000000d7e3261b16abe2fc1811150812ee0d6f6fc3727cadd8821df2d96c45",
  "strippedsize": 215,
  "size": 215,
  "weight": 860,
  "tx": [
    {
      "txid": "4b2eaa4a5da7d929fc652e089d7d1b86948fdf920ef430c03b93172fd4e6a721",
      "hash": "4b2eaa4a5da7d929fc652e089d7d1b86948fdf920ef430c03b93172fd4e6a721",
      "version": 1,
      "size": 134,
      "vsize": 134,
      "weight": 536,
      "locktime": 0,
      "vin": [
        {
          "coinbase": "04ffff001d010d",
          "sequence": 4294967295
        }
      ],
      "vout": [
        {
          "value": 50.0,
          "n": 0,
          "scriptPubKey": {
            "asm": "042d4d1210d911e3195282c10c0904dd17ae8f88d28ad77b5be9483b24af3419b87840d0a1796f32e4b16a4d5593abcc17d8654a8fe12a5cc3d7efc40255a42a01 OP_CHECKSIG",
            "desc": "pk(042d4d1210d911e3195282c10c0904dd17ae8f88d28ad77b5be9483b24af3419b87840d0a1796f32e4b16a4d5593abcc17d8654a8fe12a5cc3d7efc40255a42a01)#0f4zekwn",
            "hex": "41042d4d1210d911e3195282c10c0904dd17ae8f88d28ad77b5be9483b24af3419b87840d0a1796f32e4b16a4d5593abcc17d8654a8fe12a5cc3d7efc40255a42a01ac",
            "type": "pubkey"
          }
        }
      ],
      "hex": "01000000010000000000000000000000000000000000000000000000000000000000000000ffffffff0704ffff001d010dffffffff0100f2052a010000004341042d4d1210d911e3195282c10c0904dd17ae8f88d28ad77b5be9483b24af3419b87840d0a1796f32e4b16a4d5593abcc17d8654a8fe12a5cc3d7efc40255a42a01ac00000000"
    }
  ]
}