{
  "hash": "000000001a6017f168bfbe3ef01807bec73ce61a72216d90381871e56bbcb386",
  "confirmations": 52053,
  "height": 283,
  "version": 1,
  "versionHex": "00000001",
  "merkleroot": "36f436ef77b69423d639aa6159aaebc036de5054a309afc21d4927ae4b5417b8",
  "time": 1231819157,
  "mediantime": 1231815925,
  "nonce": 545755422,
  "bits": "1d00ffff",
  "difficulty": 1,
  "chainwork": "0000000000000000000000000000000000000000000000000000011c011c011c",
  "nTx": 1,
  "previousblockhash": "0000000025f2bb2ee58597083e13079899ecc6f2bb7e8bfd57e66b324b05d654",
  "nextblockhash": "000000006d9d200789fb91267030be9b46ba351f28090f1c0693fed96be15467",
  "strippedsize": 215,
  "size": 215,
  "weight": 860,
  "tx": [
    {
      "txid": "36f436ef77b69423d639aa6159aaebc036de5054a309afc21d4927ae4b5417b8",
      "hash": "36f436ef77b69423d639aa6159aaebc036de5054a309afc21d4927ae4b5417b8",
      "version": 1,
      "size": 134,
      "vsize": 134,
      "weight": 536,
      "locktime": 0,
      "vin": [
        {
          "coinbase": "04ffff001d0117",
          "sequence": 4294967295
        }
      ],
      "vout": [
        {
          "value": 50.0,
          "n": 0,
          "scriptPubKey": {
            "asm": "0404ea87b4abe989dfcef0673c3716ba6b94844c4f8eb34e3a36fedffcad918b0737b315bdf3c92ec9e283ff50bca0b3bdea198c4aec063754682e450f43440079 OP_CHECKSIG",
            "desc": "pk(0404ea87b4abe989dfcef0673c3716ba6b94844c4f8eb34e3a36fedffcad918b0737b315bdf3c92ec9e283ff50bca0b3bdea198c4aec063754682e450f43440079)#c8wexpr3",
            "hex": "410404ea87b4abe989dfcef0673c3716ba6b94844c4f8eb34e3a36fedffcad918b0737b315bdf3c92ec9e283ff50bca0b3bdea198c4aec063754682e450f43440079ac",
            "type": "pubkey"
          }
        }
      ],
      "hex": "01000000010000000000000000000000000000000000000000000000000000000000000000ffffffff0704ffff001d0117ffffffff0100f2052a0100000043410404ea87b4abe989dfcef0673c3716ba6b94844c4f8eb34e3a36fedffcad918b0737b315bdf3c92ec9e283ff50bca0b3bdea198c4aec063754682e450f43440079ac00000000"
    }
  ]
}