{
  "hash": "0000000028328ae0d900952683065e7552d7324e98aa6a3a45cf3fbf2037e10a",
  "confirmations": 50293,
  "height": 2805,
  "version": 1,
  "versionHex": "00000001",
  "merkleroot": "826acde1b04471f9c84f2762b165f96772ab59161030ab56d35dab5abceb929c",
  "time": 1233631701,
  "mediantime": 1233628495,
  "nonce": 51154973,
  "bits": "1d00ffff",
  "difficulty": 1,
  "chainwork": "00000000000000000000000000000000000000000000000000000af60af60af6",
  "nTx": 1,
  "previousblockhash": "000000002de0a74517206f6161ecf3cce5a0edfa2934eab85a5629066b0dc060",
  "nextblockhash": "00000000c42b0f3592f394674618826a5f1796777aa96336ff919d47da386c65",
  "strippedsize": 216,
  "size": 216,
  "weight": 864,
  "tx": [
    {
      "txid": "826acde1b04471f9c84f2762b165f96772ab59161030ab56d35dab5abceb929c",
      "hash": "826acde1b04471f9c84f2762b165f96772ab59161030ab56d35dab5abceb929c",
      "version": 1,
      "size": 135,
      "vsize": 135,
      "weight": 540,
      "locktime": 0,
      "vin": [
        {
          "coinbase": "04ffff001d026506",
          "sequence": 4294967295
        }
      ],
      "vout": [
        {
          "value": 50.0,
          "n": 0,
          "scriptPubKey": {
            "asm": "0464ca285c4f79d0418931266c249782f6fc66a95a9bfbf3a662b5f66755b0aa27f7cdafd24e44ba6267cb66a8812e7aa889accee3b8630766d4783a1df30bd58e OP_CHECKSIG",
            "desc": "pk(0464ca285c4f79d0418931266c249782f6fc66a95a9bfbf3a662b5f66755b0aa27f7cdafd24e44ba6267cb66a8812e7aa889accee3b8630766d4783a1df30bd58e)#m37ht5vc",
            "hex": "410464ca285c4f79d0418931266c249782f6fc66a95a9bfbf3a662b5f66755b0aa27f7cdafd24e44ba6267cb66a8812e7aa889accee3b8630766d4783a1df30bd58eac",
            "type": "pubkey"
          }
        }
      ],
      "hex": "01000000010000000000000000000000000000000000000000000000000000000000000000ffffffff0804ffff001d026506ffffffff0100f2052a0100000043410464ca285c4f79d0418931266c249782f6fc66a95a9bfbf3a662b5f66755b0aa27f7cdafd24e44ba6267cb66a8812e7aa889accee3b8630766d4783a1df30bd58eac00000000"
    }
  ]
}