{
  "hash": "00000000f94cd3d689200533b1bf3a0001e05a34b683f7d22b5da08d291ccf30",
  "confirmations": 44961,
  "height": 8137,
  "version": 1,
  "versionHex": "00000001",
  "merkleroot": "7a681900aaea1507c8c69deef10ae6b3b3c834c4d113208ae9c5d749631504f9",
  "time": 1237561411,
  "mediantime": 1237556273,
  "nonce": 1530640921,
  "bits": "1d00ffff",
  "difficulty": 1,
  "chainwork": "00000000000000000000000000000000000000000000000000001fca1fca1fca",
  "nTx": 1,
  "previousblockhash": "000000002033003e0ea2ebcab66f60ab701ee7fd06b5e2b707507d841bdd3fcc",
  "nextblockhash": "000000001cbc3aa13ba780a1d662742d2d0fa94b568b3010f31ee9c33bdf441a",
  "strippedsize": 216,
  "size": 216,
  "weight": 864,
  "tx": [
    {
      "txid": "7a681900aaea1507c8c69deef10ae6b3b3c834c4d113208ae9c5d749631504f9",
      "hash": "7a681900aaea1507c8c69deef10ae6b3b3c834c4d113208ae9c5d749631504f9",
      "version": 1,
      "size": 135,
      "vsize": 135,
      "weight": 540,
      "locktime": 0,
      "vin": [
        {
          "coinbase": "04ffff001d02ca01",
          "sequence": 4294967295
        }
      ],
      "vout": [
        {
          "value": 50.0,
          "n": 0,
          "scriptPubKey": {
            "asm": "046879d40291929a4c480ef8f9ff7677e2059b83720743f47f4df5621873e8ce9d7663abca0a2755cbd2d29cd51fdd08593951aa32d4e54f20212f3b8efbb94e10 OP_CHECKSIG",
            "desc": "pk(046879d40291929a4c480ef8f9ff7677e2059b83720743f47f4df5621873e8ce9d7663abca0a2755cbd2d29cd51fdd08593951aa32d4e54f20212f3b8efbb94e10)#0gx9zcna",
            "hex": "41046879d40291929a4c480ef8f9ff7677e2059b83720743f47f4df5621873e8ce9d7663abca0a2755cbd2d29cd51fdd08593951aa32d4e54f20212f3b8efbb94e10ac",
            "type": "pubkey"
          }
        }
      ],
      "hex": "01000000010000000000000000000000000000000000000000000000000000000000000000ffffffff0804ffff001d02ca01ffffffff0100f2052a010000004341046879d40291929a4c480ef8f9ff7677e2059b83720743f47f4df5621873e8ce9d7663abca0a2755cbd2d29cd51fdd08593951aa32d4e54f20212f3b8efbb94e10ac00000000"
    }
  ]
}