{
  "hash": "00000000c508e6ee8838e78bc6ed54f8de614aac190c6afe82c6f57ad8590d57",
  "confirmations": 46557,
  "height": 6541,
  "version": 1,
  "versionHex": "00000001",
  "merkleroot": "3e9ebace88d6339cdb2717d05bf6f5a86656c70e7d585d1879c372f3296c2f02",
  "time": 1236359451,
  "mediantime": 1236355856,
  "nonce": 4102525208,
  "bits": "1d00ffff",
  "difficulty": 1,
  "chainwork": "0000000000000000000000000000000000000000000000000000198e198e198e",
  "nTx": 1,
  "previousblockhash": "000000001663b95c570bc4648bc2661053826575f4d61da0a08e3cd58af04dba",
  "nextblockhash": "000000008d721d14e6674eed25e59c39ff10ca324734779cc163608c851ccd50",
  "strippedsize": 216,
  "size": 216,
  "weight": 864,
  "tx": [
    {
      "txid": "3e9ebace88d6339cdb2717d05bf6f5a86656c70e7d585d1879c372f3296c2f02",
      "hash": "3e9ebace88d6339cdb2717d05bf6f5a86656c70e7d585d1879c372f3296c2f02",
      "version": 1,
      "size": 135,
      "vsize": 135,
      "weight": 540,
      "locktime": 0,
      "vin": [
        {
          "coinbase": "04ffff001d023f04",
          "sequence": 4294967295
        }
      ],
      "vout": [
        {
          "value": 50.0,
          "n": 0,
          "scriptPubKey": {
            "asm": "04b9c1d5245476d0c9ac4ade1b935ec77a797f19ac1cec49256d5329f83b4a4ef0e32ed60c23d452745f74a30e50b6a4a8354dd7080a53b38303095d62b6c4fbe4 OP_CHECKSIG",
            "desc": "pk(04b9c1d5245476d0c9ac4ade1b935ec77a797f19ac1cec49256d5329f83b4a4ef0e32ed60c23d452745f74a30e50b6a4a8354dd7080a53b38303095d62b6c4fbe4)#7m6qae39",
            "hex": "4104b9c1d5245476d0c9ac4ade1b935ec77a797f19ac1cec49256d5329f83b4a4ef0e32ed60c23d452745f74a30e50b6a4a8354dd7080a53b38303095d62b6c4fbe4ac",
            "type": "pubkey"
          }
        }
      ],
      "hex": "01000000010000000000000000000000000000000000000000000000000000000000000000ffffffff0804ffff001d023f04ffffffff0100f2052a01000000434104b9c1d5245476d0c9ac4ade1b935ec77a797f19ac1cec49256d5329f83b4a4ef0e32ed60c23d452745f74a30e50b6a4a8354dd7080a53b38303095d62b6c4fbe4ac00000000"
    }
  ]
}