{
  "hash": "000000004f012d3deeb53ea9bad75ac1b9d421522c4bcb84f41c4429265594b4",
  "confirmations": 46052,
  "height": 7046,
  "version": 1,
  "versionHex": "00000001",
  "merkleroot": "9c49b89269e79e149c5c52bbd3408136d7e15eb7876381102bab1f763f9d861c",
  "time": 1236754999,
  "mediantime": 1236748977,
  "nonce": 3722627373,
  "bits": "1d00ffff",
  "difficulty": 1,
  "chainwork": "00000000000000000000000000000000000000000000000000001b871b871b87",
  "nTx": 1,
  "previousblockhash": "00000000a72d798b3fbeaf6eb83b4bdbc340a61e41f5db02c53e2e8903822f6b",
  "nextblockhash": "00000000aaa4bb5f000426e08ad6109cac943d3e15c62637869058a97b63962c",
  "strippedsize": 216,
  "size": 216,
  "weight": 864,
  "tx": [
    {
      "txid": "9c49b89269e79e149c5c52bbd3408136d7e15eb7876381102bab1f763f9d861c",
      "hash": "9c49b89269e79e149c5c52bbd3408136d7e15eb7876381102bab1f763f9d861c",
      "version": 1,
      "size": 135,
      "vsize": 135,
      "weight": 540,
      "locktime": 0,
      "vin": [
        {
          "coinbase": "04ffff001d021c03",
          "sequence": 4294967295
        }
      ],
      "vout": [
        {
          "value": 50.0,
          "n": 0,
          "scriptPubKey": {
            "asm": "04471da308ac0231260980189fb3791ce99f3c823c1a653c8d701cfe9a1ee2883c0b9331fdf5bc786680e6662e3bd1a469fbcb1104d5bdb0a392d3841bfb98d8f1 OP_CHECKSIG",
            "desc": "pk(04471da308ac0231260980189fb3791ce99f3c823c1a653c8d701cfe9a1ee2883c0b9331fdf5bc786680e6662e3bd1a469fbcb1104d5bdb0a392d3841bfb98d8f1)#paxpapnu",
            "hex": "4104471da308ac0231260980189fb3791ce99f3c823c1a653c8d701cfe9a1ee2883c0b9331fdf5bc786680e6662e3bd1a469fbcb1104d5bdb0a392d3841bfb98d8f1ac",
            "type": "pubkey"
          }
        }
      ],
      "hex": "01000000010000000000000000000000000000000000000000000000000000000000000000ffffffff0804ffff001d021c03ffffffff0100f2052a01000000434104471da308ac0231260980189fb3791ce99f3c823c1a653c8d701cfe9a1ee2883c0b9331fdf5bc786680e6662e3bd1a469fbcb1104d5bdb0a392d3841bfb98d8f1ac00000000"
    }
  ]
}