{
  "hash": "00000000cca15d08b3c6714964885e39e6620b8cc0c844ad6d2f3735c5a75921",
  "confirmations": 44433,
  "height": 8665,
  "version": 1,
  "versionHex": "00000001",
  "merkleroot": "c91f86fd80efc5136e648807b65220cc0dd27d275a28ef5f2e3adebe0e09dfc5",
  "time": 1237996830,
  "mediantime": 1237992915,
  "nonce": 2304240940,
  "bits": "1d00ffff",
  "difficulty": 1,
  "chainwork": "000000000000000000000000000000000000000000000000000021da21da21da",
  "nTx": 1,
  "previousblockhash": "00000000b3032886a7355c6c264a8de8d4a0699fe6a1ac1cb38365c7117e19f4",
  "nextblockhash": "00000000962c5b87802949e0f58499ac2852a3219726b711e2edd95446912777",
  "strippedsize": 215,
  "size": 215,
  "weight": 860,
  "tx": [
    {
      "txid": "c91f86fd80efc5136e648807b65220cc0dd27d275a28ef5f2e3adebe0e09dfc5",
      "hash": "c91f86fd80efc5136e648807b65220cc0dd27d275a28ef5f2e3adebe0e09dfc5",
      "version": 1,
      "size": 134,
      "vsize": 134,
      "weight": 536,
      "locktime": 0,
      "vin": [
        {
          "coinbase": "04ffff001d014d",
          "sequence": 4294967295
        }
      ],
      "vout": [
        {
          "value": 50.0,
          "n": 0,
          "scriptPubKey": {
            "asm": "0454af0b00f12fb9e65ccde9e769c78848edb5d1a223dc93bfc38954429ba70b0e420a98b865481717b1532500b488ef6e88f33ff04f5353aa4b01700f5a8aa5ee OP_CHECKSIG",
            "desc": "pk(0454af0b00f12fb9e65ccde9e769c78848edb5d1a223dc93bfc38954429ba70b0e420a98b865481717b1532500b488ef6e88f33ff04f5353aa4b01700f5a8aa5ee)#qq6afpzd",
            "hex": "410454af0b00f12fb9e65ccde9e769c78848edb5d1a223dc93bfc38954429ba70b0e420a98b865481717b1532500b488ef6e88f33ff04f5353aa4b01700f5a8aa5eeac",
            "type": "pubkey"
          }
        }
      ],
      "hex": "01000000010000000000000000000000000000000000000000000000000000000000000000ffffffff0704ffff001d014dffffffff0100f2052a0100000043410454af0b00f12fb9e65ccde9e769c78848edb5d1a223dc93bfc38954429ba70b0e420a98b865481717b1532500b488ef6e88f33ff04f5353aa4b01700f5a8aa5eeac00000000"
    }
  ]
}