{
  "hash": "000000002807ceb4bd813aed6cbdc001cc0424e425f2013abedc8f021d19d272",
  "confirmations": 51544,
  "height": 1554,
  "version": 1,
  "versionHex": "00000001",
  "merkleroot": "b2ea7c941995516aa2528d0ebb91f4dee2dfdd7cd99108065175e04b4ae45429",
  "time": 1232790785,
  "mediantime": 1232788103,
  "nonce": 177861396,
  "bits": "1d00ffff",
  "difficulty": 1,
  "chainwork": "0000000000000000000000000000000000000000000000000000061306130613",
  "nTx": 1,
  "previousblockhash": "0000000056478f3afe4bdf32da9b4a0f35e06e207f5822c98112fd765a4aec30",
  "nextblockhash": "00000000ad1471fd5e8b872b9124b4d334fa594cb4ea87acac8895051bfdda1f",
  "strippedsize": 216,
  "size": 216,
  "weight": 864,
  "tx": [
    {
      "txid": "b2ea7c941995516aa2528d0ebb91f4dee2dfdd7cd99108065175e04b4ae45429",
      "hash": "b2ea7c941995516aa2528d0ebb91f4dee2dfdd7cd99108065175e04b4ae45429",
      "version": 1,
      "size": 135,
      "vsize": 135,
      "weight": 540,
      "locktime": 0,
      "vin": [
        {
          "coinbase": "04ffff001d02ab01",
          "sequence": 4294967295
        }
      ],
      "vout": [
        {
          "value": 50.0,
          "n": 0,
          "scriptPubKey": {
            "asm": "04f7f10e3c7d971283f83c81c4d0a49b2a4ab5b9689ad001ea7110bd60b2c5e4e9bfbf775b4b84dcc721942b16f3bc468cfbbad51c3c463882c4776e22c686721c OP_CHECKSIG",
            "desc": "pk(04f7f10e3c7d971283f83c81c4d0a49b2a4ab5b9689ad001ea7110bd60b2c5e4e9bfbf775b4b84dcc721942b16f3bc468cfbbad51c3c463882c4776e22c686721c)#kz4rkt8v",
            "hex": "4104f7f10e3c7d971283f83c81c4d0a49b2a4ab5b9689ad001ea7110bd60b2c5e4e9bfbf775b4b84dcc721942b16f3bc468cfbbad51c3c463882c4776e22c686721cac",
            "type": "pubkey"
          }
        }
      ],
      "hex": "01000000010000000000000000000000000000000000000000000000000000000000000000ffffffff0804ffff001d02ab01ffffffff0100f2052a01000000434104f7f10e3c7d971283f83c81c4d0a49b2a4ab5b9689ad001ea7110bd60b2c5e4e9bfbf775b4b84dcc721942b16f3bc468cfbbad51c3c463882c4776e22c686721cac00000000"
    }
  ]
}