{
  "hash": "00000000bdc509334b7956b5da137759c024f6a1a35097f8a28ed425e9ae9909",
  "confirmations": 52235,
  "height": 863,
  "version": 1,
  "versionHex": "00000001",
  "merkleroot": "358688a97d456fa082d6bba91681445ffa54fb539afd5742809dc45d5b8bb7aa",
  "time": 1232242395,
  "mediantime": 1232237414,
  "nonce": 4192764466,
  "bits": "1d00ffff",
  "difficulty": 1,
  "chainwork": "0000000000000000000000000000000000000000000000000000036003600360",
  "nTx": 1,
  "previousblockhash": "00000000fabd6dee2258f91f3a57e541cd02aa2fe8927c521f16db186206330d",
  "nextblockhash": "00000000a38a77491d4f92644f9de9ab8c089dd65146dd9dfbe46a416eb08a21",
  "strippedsize": 216,
  "size": 216,
  "weight": 864,
  "tx": [
    {
      "txid": "358688a97d456fa082d6bba91681445ffa54fb539afd5742809dc45d5b8bb7aa",
      "hash": "358688a97d456fa082d6bba91681445ffa54fb539afd5742809dc45d5b8bb7aa",
      "version": 1,
      "size": 135,
      "vsize": 135,
      "weight": 540,
      "locktime": 0,
      "vin": [
        {
          "coinbase": "04ffff001d02b802",
          "sequence": 4294967295
        }
      ],
      "vout": [
        {
          "value": 50.0,
          "n": 0,
          "scriptPubKey": {
            "asm": "04a1dd436c229447fbc9dd1b3230e492ce030afb25b746087377908ceb152cc969a133cfbbb084097f30636d136801e9ef934f557e62df9a7a12b77f26a05ae6a4 OP_CHECKSIG",
            "desc": "pk(04a1dd436c229447fbc9dd1b3230e492ce030afb25b746087377908ceb152cc969a133cfbbb084097f30636d136801e9ef934f557e62df9a7a12b77f26a05ae6a4)#qru20epg",
            "hex": "4104a1dd436c229447fbc9dd1b3230e492ce030afb25b746087377908ceb152cc969a133cfbbb084097f30636d136801e9ef934f557e62df9a7a12b77f26a05ae6a4ac",
            "type": "pubkey"
          }
        }
      ],
      "hex": "01000000010000000000000000000000000000000000000000000000000000000000000000ffffffff0804ffff001d02b802ffffffff0100f2052a01000000434104a1dd436c229447fbc9dd1b3230e492ce030afb25b746087377908ceb152cc969a133cfbbb084097f30636d136801e9ef934f557e62df9a7a12b77f26a05ae6a4ac00000000"
    }
  ]
}