{
  "hash": "00000000750319651a28016fe2b40c351032097d3c134ddd57509c0236a12f30",
  "confirmations": 44971,
  "height": 8127,
  "version": 1,
  "versionHex": "00000001",
  "merkleroot": "5c60b50e6b111024dafc9dec204a0c4e88e8a20c7c851896c569df82ebc2e72d",
  "time": 1237553510,
  "mediantime": 1237548874,
  "nonce": 2114014722,
  "bits": "1d00ffff",
  "difficulty": 1,
  "chainwork": "00000000000000000000000000000000000000000000000000001fc01fc01fc0",
  "nTx": 1,
  "previousblockhash": "00000000ea9dcccb784ba77961ebb85765ce9cabd3e05d052ac3fe08dc2c270c",
  "nextblockhash": "00000000de595188f4fba1e8cdea3978561bcc4223a7bdfed90a5344280f83c0",
  "strippedsize": 216,
  "size": 216,
  "weight": 864,
  "tx": [
    {
      "txid": "5c60b50e6b111024dafc9dec204a0c4e88e8a20c7c851896c569df82ebc2e72d",
      "hash": "5c60b50e6b111024dafc9dec204a0c4e88e8a20c7c851896c569df82ebc2e72d",
      "version": 1,
      "size": 135,
      "vsize": 135,
      "weight": 540,
      "locktime": 0,
      "vin": [
        {
          "coinbase": "04ffff001d02a101",
          "sequence": 4294967295
        }
      ],
      "vout": [
        {
          "value": 50.0,
          "n": 0,
          "scriptPubKey": {
            "asm": "04fcd76f28b177050309afde7bd4d0cdfaa5ef7d7bdbf3ada501461df1a790f55ea88f394d61c967a23bd16400a5d179d3a606ce2d2a7197c5fa7029eb0c4f19e5 OP_CHECKSIG",
            "desc": "pk(04fcd76f28b177050309afde7bd4d0cdfaa5ef7d7bdbf3ada501461df1a790f55ea88f394d61c967a23bd16400a5d179d3a606ce2d2a7197c5fa7029eb0c4f19e5)#fsnumf7l",
            "hex": "4104fcd76f28b177050309afde7bd4d0cdfaa5ef7d7bdbf3ada501461df1a790f55ea88f394d61c967a23bd16400a5d179d3a606ce2d2a7197c5fa7029eb0c4f19e5ac",
            "type": "pubkey"
          }
        }
      ],
      "hex": "01000000010000000000000000000000000000000000000000000000000000000000000000ffffffff0804ffff001d02a101ffffffff0100f2052a01000000434104fcd76f28b177050309afde7bd4d0cdfaa5ef7d7bdbf3ada501461df1a790f55ea88f394d61c967a23bd16400a5d179d3a606ce2d2a7197c5fa7029eb0c4f19e5ac00000000"
    }
  ]
}