{
  "hash": "000000000e3229b63edd78096bc263bc40cd9a4e184befb475e878c226be7319",
  "confirmations": 46448,
  "height": 6650,
  "version": 1,
  "versionHex": "00000001",
  "merkleroot": "94a984e7b56b2eab2f73e8011701301d58c06405491ea60b5c66d1fc1c4536a9",
  "time": 1236445658,
  "mediantime": 1236441385,
  "nonce": 2288392449,
  "bits": "1d00ffff",
  "difficulty": 1,
  "chainwork": "000000000000000000000000000000000000000000000000000019fb19fb19fb",
  "nTx": 1,
  "previousblockhash": "000000007fe9e0f146cca63016a5681c18ddf026184cb05eedab3e7593fe484c",
  "nextblockhash": "0000000002d1a07095a9166b65acc8558b47aeaea0e910fdba81189cbdca5fda",
  "strippedsize": 216,
  "size": 216,
  "weight": 864,
  "tx": [
    {
      "txid": "94a984e7b56b2eab2f73e8011701301d58c06405491ea60b5c66d1fc1c4536a9",
      "hash": "94a984e7b56b2eab2f73e8011701301d58c06405491ea60b5c66d1fc1c4536a9",
      "version": 1,
      "size": 135,
      "vsize": 135,
      "weight": 540,
      "locktime": 0,
      "vin": [
        {
          "coinbase": "04ffff001d021306",
          "sequence": 4294967295
        }
      ],
      "vout": [
        {
          "value": 50.0,
          "n": 0,
          "scriptPubKey": {
            "asm": "042832c3e8a421fd06b3c87ef85c08487b9878a98bb863be49e01c25feecb469c52e38e2f65bb45435d06df1242186b28637817cc68a18dc8aaaaf481e0c8aeb51 OP_CHECKSIG",
            "desc": "pk(042832c3e8a421fd06b3c87ef85c08487b9878a98bb863be49e01c25feecb469c52e38e2f65bb45435d06df1242186b28637817cc68a18dc8aaaaf481e0c8aeb51)#wayzp383",
            "hex": "41042832c3e8a421fd06b3c87ef85c08487b9878a98bb863be49e01c25feecb469c52e38e2f65bb45435d06df1242186b28637817cc68a18dc8aaaaf481e0c8aeb51ac",
            "type": "pubkey"
          }
        }
      ],
      "hex": "01000000010000000000000000000000000000000000000000000000000000000000000000ffffffff0804ffff001d021306ffffffff0100f2052a010000004341042832c3e8a421fd06b3c87ef85c08487b9878a98bb863be49e01c25feecb469c52e38e2f65bb45435d06df1242186b28637817cc68a18dc8aaaaf481e0c8aeb51ac00000000"
    }
  ]
}