{
  "hash": "000000002622aa01985953101c787b85f2c9fc10b6fb50f3723588fca6beeba3",
  "confirmations": 47838,
  "height": 5260,
  "version": 1,
  "versionHex": "00000001",
  "merkleroot": "ff0c8032bfd4ef9e69ac25d9dd2e325278ea8d80b4638500bb359d21835d76c6",
  "time": 1235330535,
  "mediantime": 1235326898,
  "nonce": 98308023,
  "bits": "1d00ffff",
  "difficulty": 1,
  "chainwork": "0000000000000000000000000000000000000000000000000000148d148d148d",
  "nTx": 1,
  "previousblockhash": "000000005e9e4a56a50b265fced276903d284e6a6f88a346f6113b38c1a35891",
  "nextblockhash": "00000000d47ee447e9c7b04828803f14fc1a86bf67163b3e3a641e8ecf57ed6e",
  "strippedsize": 215,
  "size": 215,
  "weight": 860,
  "tx": [
    {
      "txid": "ff0c8032bfd4ef9e69ac25d9dd2e325278ea8d80b4638500bb359d21835d76c6",
      "hash": "ff0c8032bfd4ef9e69ac25d9dd2e325278ea8d80b4638500bb359d21835d76c6",
      "version": 1,
      "size": 134,
      "vsize": 134,
      "weight": 536,
      "locktime": 0,
      "vin": [
        {
          "coinbase": "04ffff001d0109",
          "sequence": 4294967295
        }
      ],
      "vout": [
        {
          "value": 50.0,
          "n": 0,
          "scriptPubKey": {
            "asm": "04575108876dad350588a876c9c48376a0512de3c0522c3f0d34acb4b660b203101a71c40661c1bc0e74ec13b827d5fff8e745a30496d2d7f8c229c84ca1f2efc7 OP_CHECKSIG",
            "desc": "pk(04575108876dad350588a876c9c48376a0512de3c0522c3f0d34acb4b660b203101a71c40661c1bc0e74ec13b827d5fff8e745a30496d2d7f8c229c84ca1f2efc7)#2s2305r2",
            "hex": "4104575108876dad350588a876c9c48376a0512de3c0522c3f0d34acb4b660b203101a71c40661c1bc0e74ec13b827d5fff8e745a30496d2d7f8c229c84ca1f2efc7ac",
            "type": "pubkey"
          }
        }
      ],
      "hex": "01000000010000000000000000000000000000000000000000000000000000000000000000ffffffff0704ffff001d0109ffffffff0100f2052a01000000434104575108876dad350588a876c9c48376a0512de3c0522c3f0d34acb4b660b203101a71c40661c1bc0e74ec13b827d5fff8e745a30496d2d7f8c229c84ca1f2efc7ac00000000"
    }
  ]
}