{
  "hash": "00000000ea612819da6626a99a8965ad489f302b777619d7e02b08a4fc8d4161",
  "confirmations": 51904,
  "height": 1194,
  "version": 1,
  "versionHex": "00000001",
  "merkleroot": "d695303648cde5745a34fafe28ec43ff56b2513d2375d69ba0979f90887aaff8",
  "time": 1232496082,
  "mediantime": 1232492251,
  "nonce": 8470279,
  "bits": "1d00ffff",
  "difficulty": 1,
  "chainwork": "000000000000000000000000000000000000000000000000000004ab04ab04ab",
  "nTx": 1,
  "previousblockhash": "000000007f423780d48a8f3d35d9a17a3469274c4bf51c0c05d3a56b8df85007",
  "nextblockhash": "00000000de5ea50cd028c0e08832cfdba57006eeff83d745aa8debdec130d760",
  "strippedsize": 216,
  "size": 216,
  "weight": 864,
  "tx": [
    {
      "txid": "d695303648cde5745a34fafe28ec43ff56b2513d2375d69ba0979f90887aaff8",
      "hash": "d695303648cde5745a34fafe28ec43ff56b2513d2375d69ba0979f90887aaff8",
      "version": 1,
      "size": 135,
      "vsize": 135,
      "weight": 540,
      "locktime": 0,
      "vin": [
        {
          "coinbase": "04ffff001d029708",
          "sequence": 4294967295
        }
      ],
      "vout": [
        {
          "value": 50.0,
          "n": 0,
          "scriptPubKey": {
            "asm": "040671d5378b7f27f847c05626a99525153c2a8a9e737df7fca9fc6a26ff3acad88a6a1aec3b6c21498b807e408330960c14732bef91e6eb96d5e327260960eabb OP_CHECKSIG",
            "desc": "pk(040671d5378b7f27f847c05626a99525153c2a8a9e737df7fca9fc6a26ff3acad88a6a1aec3b6c21498b807e408330960c14732bef91e6eb96d5e327260960eabb)#yumtf08l",
            "hex": "41040671d5378b7f27f847c05626a99525153c2a8a9e737df7fca9fc6a26ff3acad88a6a1aec3b6c21498b807e408330960c14732bef91e6eb96d5e327260960eabbac",
            "type": "pubkey"
          }
        }
      ],
      "hex": "01000000010000000000000000000000000000000000000000000000000000000000000000ffffffff0804ffff001d029708ffffffff0100f2052a010000004341040671d5378b7f27f847c05626a99525153c2a8a9e737df7fca9fc6a26ff3acad88a6a1aec3b6c21498b807e408330960c14732bef91e6eb96d5e327260960eabbac00000000"
    }
  ]
}