{
  "hash": "000000006547a587e4961d89111585a5cf814c48678919207e9e3ffa1f9da02d",
  "confirmations": 43391,
  "height": 9707,
  "version": 1,
  "versionHex": "00000001",
  "merkleroot": "3375d90b5beefd9cebaadf79ee07fa2b44be0ebd2d8a5af9a53ec63e7e3c56e8",
  "time": 1238782982,
  "mediantime": 1238778885,
  "nonce": 3827474697,
  "bits": "1d00ffff",
  "difficulty": 1,
  "chainwork": "000000000000000000000000000000000000000000000000000025ec25ec25ec",
  "nTx": 1,
  "previousblockhash": "00000000da693e2626e038e5467c45d156ae8084285b09ac19b83d3b918a7b09",
  "nextblockhash": "00000000f3defe04ef329ff7853a91e4af7ea792e4975d33423fdf86473150c0",
  "strippedsize": 216,
  "size": 216,
  "weight": 864,
  "tx": [
    {
      "txid": "3375d90b5beefd9cebaadf79ee07fa2b44be0ebd2d8a5af9a53ec63e7e3c56e8",
      "hash": "3375d90b5beefd9cebaadf79ee07fa2b44be0ebd2d8a5af9a53ec63e7e3c56e8",
      "version": 1,
      "size": 135,
      "vsize": 135,
      "weight": 540,
      "locktime": 0,
      "vin": [
        {
          "coinbase": "04ffff001d028a08",
          "sequence": 4294967295
        }
      ],
      "vout": [
        {
          "value": 50.0,
          "n": 0,
          "scriptPubKey": {
            "asm": "04983a3ccbd2505298296dd3a74c82bb67239e5095d1369c4fc2401a221b1b11ffc6e52a05afaab5a67c899d59d1caa24ad7f935e640dda48e383f1425b585d035 OP_CHECKSIG",
            "desc": "pk(04983a3ccbd2505298296dd3a74c82bb67239e5095d1369c4fc2401a221b1b11ffc6e52a05afaab5a67c899d59d1caa24ad7f935e640dda48e383f1425b585d035)#xldduhlw",
            "hex": "4104983a3ccbd2505298296dd3a74c82bb67239e5095d1369c4fc2401a221b1b11ffc6e52a05afaab5a67c899d59d1caa24ad7f935e640dda48e383f1425b585d035ac",
            "type": "pubkey"
          }
        }
      ],
      "hex": "01000000010000000000000000000000000000000000000000000000000000000000000000ffffffff0804ffff001d028a08ffffffff0100f2052a01000000434104983a3ccbd2505298296dd3a74c82bb67239e5095d1369c4fc2401a221b1b11ffc6e52a05afaab5a67c899d59d1caa24ad7f935e640dda48e383f1425b585d035ac00000000"
    }
  ]
}