{
  "hash": "00000000a035c95dd3a6899a4bf6c2be6d45a0b18b6865fb03122b016edfb7e6",
  "confirmations": 44157,
  "height": 8941,
  "version": 1,
  "versionHex": "00000001",
  "merkleroot": "88d60909bb61ad4100f3b0aef1c90c4eb2f77c3ff61847248accd40e5b20c8c0",
  "time": 1238209076,
  "mediantime": 1238204898,
  "nonce": 6019318,
  "bits": "1d00ffff",
  "difficulty": 1,
  "chainwork": "000000000000000000000000000000000000000000000000000022ee22ee22ee",
  "nTx": 1,
  "previousblockhash": "000000004b62ed92f99d307a43a29d4a733f5a175e4cc840841cfee4884a7231",
  "nextblockhash": "000000007a76955778103f04708db5b1c405c6bec139b5d9238ace78c3271491",
  "strippedsize": 215,
  "size": 215,
  "weight": 860,
  "tx": [
    {
      "txid": "88d60909bb61ad4100f3b0aef1c90c4eb2f77c3ff61847248accd40e5b20c8c0",
      "hash": "88d60909bb61ad4100f3b0aef1c90c4eb2f77c3ff61847248accd40e5b20c8c0",
      "version": 1,
      "size": 134,
      "vsize": 134,
      "weight": 536,
      "locktime": 0,
      "vin": [
        {
          "coinbase": "04ffff001d0112",
          "sequence": 4294967295
        }
      ],
      "vout": [
        {
          "value": 50.0,
          "n": 0,
          "scriptPubKey": {
            "asm": "049f8cac13b1f15c35a2ecde2d8e7de09546bbf20ca80be8f1493a4fde51e2b45e11f9b91b500b87d1941e55f9567bda5f70f10b611cac279e04b6ca54935cdb59 OP_CHECKSIG",
            "desc": "pk(049f8cac13b1f15c35a2ecde2d8e7de09546bbf20ca80be8f1493a4fde51e2b45e11f9b91b500b87d1941e55f9567bda5f70f10b611cac279e04b6ca54935cdb59)#g7cu7unj",
            "hex": "41049f8cac13b1f15c35a2ecde2d8e7de09546bbf20ca80be8f1493a4fde51e2b45e11f9b91b500b87d1941e55f9567bda5f70f10b611cac279e04b6ca54935cdb59ac",
            "type": "pubkey"
          }
        }
      ],
      "hex": "01000000010000000000000000000000000000000000000000000000000000000000000000ffffffff0704ffff001d0112ffffffff0100f2052a010000004341049f8cac13b1f15c35a2ecde2d8e7de09546bbf20ca80be8f1493a4fde51e2b45e11f9b91b500b87d1941e55f9567bda5f70f10b611cac279e04b6ca54935cdb59ac00000000"
    }
  ]
}