{
  "hash": "00000000ba7796b119b0230c5b5d9b2f55296930ce323ecaa3ab5e8ba0c26851",
  "confirmations": 46061,
  "height": 7037,
  "version": 1,
  "versionHex": "00000001",
  "merkleroot": "bed1334faf85c4d095dedc293b95a47271476ae8ff2bfb4cbabb651612f9774d",
  "time": 1236746130,
  "mediantime": 1236742160,
  "nonce": 2476278552,
  "bits": "1d00ffff",
  "difficulty": 1,
  "chainwork": "00000000000000000000000000000000000000000000000000001b7e1b7e1b7e",
  "nTx": 1,
  "previousblockhash": "000000005b3f9f5a28b3a6269666a7cce802abd90fe1f6f4f3f678907b054c81",
  "nextblockhash": "0000000070cdf861aced1a06b79a4072650000d6cf4c360642ab0a5171784352",
  "strippedsize": 216,
  "size": 216,
  "weight": 864,
  "tx": [
    {
      "txid": "bed1334faf85c4d095dedc293b95a47271476ae8ff2bfb4cbabb651612f9774d",
      "hash": "bed1334faf85c4d095dedc293b95a47271476ae8ff2bfb4cbabb651612f9774d",
      "version": 1,
      "size": 135,
      "vsize": 135,
      "weight": 540,
      "locktime": 0,
      "vin": [
        {
          "coinbase": "04ffff001d02f702",
          "sequence": 4294967295
        }
      ],
      "vout": [
        {
          "value": 50.0,
          "n": 0,
          "scriptPubKey": {
            "asm": "040ada34c710442635d77d00b53141d4d75bf8cbc889e2112fd939a7ba8f97d64e58e8a017b9d7081c7751806b7379a47af9e989fb9a60e4b2d6d168c0202d5035 OP_CHECKSIG",
            "desc": "pk(040ada34c710442635d77d00b53141d4d75bf8cbc889e2112fd939a7ba8f97d64e58e8a017b9d7081c7751806b7379a47af9e989fb9a60e4b2d6d168c0202d5035)#4mn2qemw",
            "hex": "41040ada34c710442635d77d00b53141d4d75bf8cbc889e2112fd939a7ba8f97d64e58e8a017b9d7081c7751806b7379a47af9e989fb9a60e4b2d6d168c0202d5035ac",
            "type": "pubkey"
          }
        }
      ],
      "hex": "01000000010000000000000000000000000000000000000000000000000000000000000000ffffffff0804ffff001d02f702ffffffff0100f2052a010000004341040ada34c710442635d77d00b53141d4d75bf8cbc889e2112fd939a7ba8f97d64e58e8a017b9d7081c7751806b7379a47af9e989fb9a60e4b2d6d168c0202d5035ac00000000"
    }
  ]
}