{
  "hash": "000000005385e40682f749dd1e1945a68074df786677d12a4a5556afb8fa974c",
  "confirmations": 51781,
  "height": 1317,
  "version": 1,
  "versionHex": "00000001",
  "merkleroot": "684cdf005ca4dc6a1ecacb9af7bb1ce2eba2501e7335df37f504bb6af07ffaa0",
  "time": 1232609747,
  "mediantime": 1232605860,
  "nonce": 2278579245,
  "bits": "1d00ffff",
  "difficulty": 1,
  "chainwork": "0000000000000000000000000000000000000000000000000000052605260526",
  "nTx": 1,
  "previousblockhash": "000000005fa8f8af01b5520c9eaa71a1d32f4d7c49c9b706a84d714675634ee7",
  "nextblockhash": "000000006b56931d2097102e89bbc1ce959da8d32ccc4042e95897a65d642df6",
  "strippedsize": 215,
  "size": 215,
  "weight": 860,
  "tx": [
    {
      "txid": "684cdf005ca4dc6a1ecacb9af7bb1ce2eba2501e7335df37f504bb6af07ffaa0",
      "hash": "684cdf005ca4dc6a1ecacb9af7bb1ce2eba2501e7335df37f504bb6af07ffaa0",
      "version": 1,
      "size": 134,
      "vsize": 134,
      "weight": 536,
      "locktime": 0,
      "vin": [
        {
          "coinbase": "04ffff001d0169",
          "sequence": 4294967295
        }
      ],
      "vout": [
        {
          "value": 50.0,
          "n": 0,
          "scriptPubKey": {
            "asm": "049b893acc2586848b62280d41d16243d082560409adf2ea9263eaa76452ff957bc0e2b4f307e0cca1f5133db03f8fe58e73019dc10a970dc672fffbd29ddb1090 OP_CHECKSIG",
            "desc": "pk(049b893acc2586848b62280d41d16243d082560409adf2ea9263eaa76452ff957bc0e2b4f307e0cca1f5133db03f8fe58e73019dc10a970dc672fffbd29ddb1090)#z6p0c4q6",
            "hex": "41049b893acc2586848b62280d41d16243d082560409adf2ea9263eaa76452ff957bc0e2b4f307e0cca1f5133db03f8fe58e73019dc10a970dc672fffbd29ddb1090ac",
            "type": "pubkey"
          }
        }
      ],
      "hex": "01000000010000000000000000000000000000000000000000000000000000000000000000ffffffff0704ffff001d0169ffffffff0100f2052a010000004341049b893acc2586848b62280d41d16243d082560409adf2ea9263eaa76452ff957bc0e2b4f307e0cca1f5133db03f8fe58e73019dc10a970dc672fffbd29ddb1090ac00000000"
    }
  ]
}