{
  "hash": "000000008b0f1bc19009361b30547a86588b0a3a00d6f2dbbe1f744eff3cb21f",
  "confirmations": 52462,
  "height": 636,
  "version": 1,
  "versionHex": "00000001",
  "merkleroot": "3559564682c53f13db90079f3afc0f54cc6c7a81ad1fa5688e17ba21d6296345",
  "time": 1232060248,
  "mediantime": 1232057250,
  "nonce": 2698064392,
  "bits": "1d00ffff",
  "difficulty": 1,
  "chainwork": "0000000000000000000000000000000000000000000000000000027d027d027d",
  "nTx": 1,
  "previousblockhash": "00000000eb29cb0f6ad34af16f83e998580219bd01bfacf4bcffb13d145c8e17",
  "nextblockhash": "0000000033913ab37586406bc5037c6f87cc2d41565e23958450bc2bc98ab07c",
  "strippedsize": 216,
  "size": 216,
  "weight": 864,
  "tx": [
    {
      "txid": "3559564682c53f13db90079f3afc0f54cc6c7a81ad1fa5688e17ba21d6296345",
      "hash": "3559564682c53f13db90079f3afc0f54cc6c7a81ad1fa5688e17ba21d6296345",
      "version": 1,
      "size": 135,
      "vsize": 135,
      "weight": 540,
      "locktime": 0,
      "vin": [
        {
          "coinbase": "04ffff001d022f07",
          "sequence": 4294967295
        }
      ],
      "vout": [
        {
          "value": 50.0,
          "n": 0,
          "scriptPubKey": {
            "asm": "04f4255f440656e873f4a2754f19a5817b085982e710aad5b4b393b843d46cc6535eadbc0ebe6dee1e60ce8bee1f68bded3f55db85402fd49c226c0d60acda4f84 OP_CHECKSIG",
            "desc": "pk(04f4255f440656e873f4a2754f19a5817b085982e710aad5b4b393b843d46cc6535eadbc0ebe6dee1e60ce8bee1f68bded3f55db85402fd49c226c0d60acda4f84)#5ejj3pza",
            "hex": "4104f4255f440656e873f4a2754f19a5817b085982e710aad5b4b393b843d46cc6535eadbc0ebe6dee1e60ce8bee1f68bded3f55db85402fd49c226c0d60acda4f84ac",
            "type": "pubkey"
          }
        }
      ],
      "hex": "01000000010000000000000000000000000000000000000000000000000000000000000000ffffffff0804ffff001d022f07ffffffff0100f2052a01000000434104f4255f440656e873f4a2754f19a5817b085982e710aad5b4b393b843d46cc6535eadbc0ebe6dee1e60ce8bee1f68bded3f55db85402fd49c226c0d60acda4f84ac00000000"
    }
  ]
}