{
  "hash": "00000000dd7777c0b055a537879f460f2f646fd1f5ac1854cdbfd3b4df98edda",
  "confirmations": 44006,
  "height": 9092,
  "version": 1,
  "versionHex": "00000001",
  "merkleroot": "30da4852321d6e32b782d43e193f8a8ffc3723e1572b82f85758f6ec619310a7",
  "time": 1238326219,
  "mediantime": 1238322049,
  "nonce": 1322662921,
  "bits": "1d00ffff",
  "difficulty": 1,
  "chainwork": "0000000000000000000000000000000000000000000000000000238523852385",
  "nTx": 1,
  "previousblockhash": "00000000196408e7aa04f7e6f5af5bcf5ac83660f309692b6a9b014ff283c93c",
  "nextblockhash": "00000000848017cd0f3b9572a00e57dc16977727203b9684f066e44e2ebe3c44",
  "strippedsize": 216,
  "size": 216,
  "weight": 864,
  "tx": [
    {
      "txid": "30da4852321d6e32b782d43e193f8a8ffc3723e1572b82f85758f6ec619310a7",
      "hash": "30da4852321d6e32b782d43e193f8a8ffc3723e1572b82f85758f6ec619310a7",
      "version": 1,
      "size": 135,
      "vsize": 135,
      "weight": 540,
      "locktime": 0,
      "vin": [
        {
          "coinbase": "04ffff001d022a08",
          "sequence": 4294967295
        }
      ],
      "vout": [
        {
          "value": 50.0,
          "n": 0,
          "scriptPubKey": {
            "asm": "04175133db1283104ba5b52095d5908b76ab823c78041b6d973ccd84b95d4c2c888a19556eb77d58ce35c71ddf9ff85ccfc1cc780824cbff46ea6619a29393ba84 OP_CHECKSIG",
            "desc": "pk(04175133db1283104ba5b52095d5908b76ab823c78041b6d973ccd84b95d4c2c888a19556eb77d58ce35c71ddf9ff85ccfc1cc780824cbff46ea6619a29393ba84)#az3khu08",
            "hex": "4104175133db1283104ba5b52095d5908b76ab823c78041b6d973ccd84b95d4c2c888a19556eb77d58ce35c71ddf9ff85ccfc1cc780824cbff46ea6619a29393ba84ac",
            "type": "pubkey"
          }
        }
      ],
      "hex": "01000000010000000000000000000000000000000000000000000000000000000000000000ffffffff0804ffff001d022a08ffffffff0100f2052a01000000434104175133db1283104ba5b52095d5908b76ab823c78041b6d973ccd84b95d4c2c888a19556eb77d58ce35c71ddf9ff85ccfc1cc780824cbff46ea6619a29393ba84ac00000000"
    }
  ]
}