{
  "hash": "00000000fa225dd8ab95710b09a2fcba3d41e0bff4a9aeadc8b9d6350c6ba152",
  "confirmations": 51274,
  "height": 1824,
  "version": 1,
  "versionHex": "00000001",
  "merkleroot": "6a0cdd4554684c9ce25b894722363f9a2dc4f30e074e1dec4e2a497d3f197686",
  "time": 1232909862,
  "mediantime": 1232908937,
  "nonce": 785082632,
  "bits": "1d00ffff",
  "difficulty": 1,
  "chainwork": "0000000000000000000000000000000000000000000000000000072107210721",
  "nTx": 1,
  "previousblockhash": "000000006dcc6e5f51c50b5342c78838934f0f63b4a47ef4c10085dac676dc0b",
  "nextblockhash": "000000009ac0d790d7b6cb821ffbe69985fad7180c29ad5428c7e4bebe8cb9c3",
  "strippedsize": 216,
  "size": 216,
  "weight": 864,
  "tx": [
    {
      "txid": "6a0cdd4554684c9ce25b894722363f9a2dc4f30e074e1dec4e2a497d3f197686",
      "hash": "6a0cdd4554684c9ce25b894722363f9a2dc4f30e074e1dec4e2a497d3f197686",
      "version": 1,
      "size": 135,
      "vsize": 135,
      "weight": 540,
      "locktime": 0,
      "vin": [
        {
          "coinbase": "04ffff001d026104",
          "sequence": 4294967295
        }
      ],
      "vout": [
        {
          "value": 50.0,
          "n": 0,
          "scriptPubKey": {
            "asm": "04c35e2a6996eb6aa7b4588e698aa2be20cc88b404330bbd053dff7ebf5ad99b1c0ad3670683514538e1ea1df3c7e258861288fe441fbecc7c45a0bdd41ac6fdce OP_CHECKSIG",
            "desc": "pk(04c35e2a6996eb6aa7b4588e698aa2be20cc88b404330bbd053dff7ebf5ad99b1c0ad3670683514538e1ea1df3c7e258861288fe441fbecc7c45a0bdd41ac6fdce)#kfhefzzy",
            "hex": "4104c35e2a6996eb6aa7b4588e698aa2be20cc88b404330bbd053dff7ebf5ad99b1c0ad3670683514538e1ea1df3c7e258861288fe441fbecc7c45a0bdd41ac6fdceac",
            "type": "pubkey"
          }
        }
      ],
      "hex": "01000000010000000000000000000000000000000000000000000000000000000000000000ffffffff0804ffff001d026104ffffffff0100f2052a01000000434104c35e2a6996eb6aa7b4588e698aa2be20cc88b404330bbd053dff7ebf5ad99b1c0ad3670683514538e1ea1df3c7e258861288fe441fbecc7c45a0bdd41ac6fdceac00000000"
    }
  ]
}