{
  "hash": "00000000bc4155ab5b60547430a8447e80b75e4eb7662f1bdfb10ad6031c27e0",
  "confirmations": 51681,
  "height": 1417,
  "version": 1,
  "versionHex": "00000001",
  "merkleroot": "552f958771859a95794a7db9aa8298881f7185c10b43eb418db24fd5e7207638",
  "time": 1232732444,
  "mediantime": 1232730677,
  "nonce": 12743577,
  "bits": "1d00ffff",
  "difficulty": 1,
  "chainwork": "0000000000000000000000000000000000000000000000000000058a058a058a",
  "nTx": 1,
  "previousblockhash": "00000000a55bd68777b9412975ad67eaccf5d37259c182a2d7e15aa37a7816b3",
  "nextblockhash": "0000000003e0d27d803c20957f34bd5f12758f7c4bf2e9db2a399338439f27ba",
  "strippedsize": 216,
  "size": 216,
  "weight": 864,
  "tx": [
    {
      "txid": "552f958771859a95794a7db9aa8298881f7185c10b43eb418db24fd5e7207638",
      "hash": "552f958771859a95794a7db9aa8298881f7185c10b43eb418db24fd5e7207638",
      "version": 1,
      "size": 135,
      "vsize": 135,
      "weight": 540,
      "locktime": 0,
      "vin": [
        {
          "coinbase": "04ffff001d027602",
          "sequence": 4294967295
        }
      ],
      "vout": [
        {
          "value": 50.0,
          "n": 0,
          "scriptPubKey": {
            "asm": "04d9e356078ef023a8efe6ec46012f11035d7559ec0089f5a2dd7377f09a0e44b0ceb51f9a2a67d35b9d9c2e4557e28aba6880e0db7070acd98c041c40513b1fd9 OP_CHECKSIG",
            "desc": "pk(04d9e356078ef023a8efe6ec46012f11035d7559ec0089f5a2dd7377f09a0e44b0ceb51f9a2a67d35b9d9c2e4557e28aba6880e0db7070acd98c041c40513b1fd9)#eeexeqaz",
            "hex": "4104d9e356078ef023a8efe6ec46012f11035d7559ec0089f5a2dd7377f09a0e44b0ceb51f9a2a67d35b9d9c2e4557e28aba6880e0db7070acd98c041c40513b1fd9ac",
            "type": "pubkey"
          }
        }
      ],
      "hex": "01000000010000000000000000000000000000000000000000000000000000000000000000ffffffff0804ffff001d027602ffffffff0100f2052a01000000434104d9e356078ef023a8efe6ec46012f11035d7559ec0089f5a2dd7377f09a0e44b0ceb51f9a2a67d35b9d9c2e4557e28aba6880e0db7070acd98c041c40513b1fd9ac00000000"
    }
  ]
}