{
  "hash": "0000000008d501c0bdaa3e966c59110a18546369e7ddd2bb81a7193b98769aa8",
  "confirmations": 52019,
  "height": 1079,
  "version": 1,
  "versionHex": "00000001",
  "merkleroot": "24258eeede9494ee788eb776d6b63f7142f046785ad33726a54fbd8978d47495",
  "time": 1232408570,
  "mediantime": 1232404725,
  "nonce": 2079666224,
  "bits": "1d00ffff",
  "difficulty": 1,
  "chainwork": "0000000000000000000000000000000000000000000000000000043804380438",
  "nTx": 1,
  "previousblockhash": "00000000121ff2e837d00ccb1386835bc0855e20947d8f6af17201e2bfa8e1c9",
  "nextblockhash": "000000006327405c513ba8016d62aa8963ba59f81272b2cd4d16b1a5f9b16ee7",
  "strippedsize": 216,
  "size": 216,
  "weight": 864,
  "tx": [
    {
      "txid": "24258eeede9494ee788eb776d6b63f7142f046785ad33726a54fbd8978d47495",
      "hash": "24258eeede9494ee788eb776d6b63f7142f046785ad33726a54fbd8978d47495",
      "version": 1,
      "size": 135,
      "vsize": 135,
      "weight": 540,
      "locktime": 0,
      "vin": [
        {
          "coinbase": "04ffff001d02b106",
          "sequence": 4294967295
        }
      ],
      "vout": [
        {
          "value": 50.0,
          "n": 0,
          "scriptPubKey": {
            "asm": "04357f6a13bd1e9dbe9818679b423c1015305317ffe28f3bb699e690bfa4659540b04f3f6f05cb72a882748a9812220690c7f4b22143490092323267dc68530c97 OP_CHECKSIG",
            "desc": "pk(04357f6a13bd1e9dbe9818679b423c1015305317ffe28f3bb699e690bfa4659540b04f3f6f05cb72a882748a9812220690c7f4b22143490092323267dc68530c97)#zm8ykeqg",
            "hex": "4104357f6a13bd1e9dbe9818679b423c1015305317ffe28f3bb699e690bfa4659540b04f3f6f05cb72a882748a9812220690c7f4b22143490092323267dc68530c97ac",
            "type": "pubkey"
          }
        }
      ],
      "hex": "01000000010000000000000000000000000000000000000000000000000000000000000000ffffffff0804ffff001d02b106ffffffff0100f2052a01000000434104357f6a13bd1e9dbe9818679b423c1015305317ffe28f3bb699e690bfa4659540b04f3f6f05cb72a882748a9812220690c7f4b22143490092323267dc68530c97ac00000000"
    }
  ]
}