{
  "hash": "000000004862371d9012f1038abf89e04c4c431177b91f1397042e0bdb652ca0",
  "confirmations": 48211,
  "height": 4887,
  "version": 1,
  "versionHex": "00000001",
  "merkleroot": "78c27b24a2f016d5eeb755f3b893fc35a6c5af283d128a48dbef75dbb81dc6f1",
  "time": 1235062197,
  "mediantime": 1235059309,
  "nonce": 760324889,
  "bits": "1d00ffff",
  "difficulty": 1,
  "chainwork": "0000000000000000000000000000000000000000000000000000131813181318",
  "nTx": 1,
  "previousblockhash": "0000000031b95ac6263b74740a84477ab9fce76f29b0dfd31299341521e354c3",
  "nextblockhash": "000000001432802571b294a8de2af8f53e36c5ded250bee8b4ef5caa126fca96",
  "strippedsize": 216,
  "size": 216,
  "weight": 864,
  "tx": [
    {
      "txid": "78c27b24a2f016d5eeb755f3b893fc35a6c5af283d128a48dbef75dbb81dc6f1",
      "hash": "78c27b24a2f016d5eeb755f3b893fc35a6c5af283d128a48dbef75dbb81dc6f1",
      "version": 1,
      "size": 135,
      "vsize": 135,
      "weight": 540,
      "locktime": 0,
      "vin": [
        {
          "coinbase": "04ffff001d028705",
          "sequence": 4294967295
        }
      ],
      "vout": [
        {
          "value": 50.0,
          "n": 0,
          "scriptPubKey": {
            "asm": "0413e1ff7f6cc055fd695ed2a46a4c9b22c3e24b1b45c26aa9cf82d5c0dd1faf109baff768e002c759d76b1aca1ddb257c1f2c47cf5dee39b1b31b54c6db82fbe8 OP_CHECKSIG",
            "desc": "pk(0413e1ff7f6cc055fd695ed2a46a4c9b22c3e24b1b45c26aa9cf82d5c0dd1faf109baff768e002c759d76b1aca1ddb257c1f2c47cf5dee39b1b31b54c6db82fbe8)#as2j25nj",
            "hex": "410413e1ff7f6cc055fd695ed2a46a4c9b22c3e24b1b45c26aa9cf82d5c0dd1faf109baff768e002c759d76b1aca1ddb257c1f2c47cf5dee39b1b31b54c6db82fbe8ac",
            "type": "pubkey"
          }
        }
      ],
      "hex": "01000000010000000000000000000000000000000000000000000000000000000000000000ffffffff0804ffff001d028705ffffffff0100f2052a0100000043410413e1ff7f6cc055fd695ed2a46a4c9b22c3e24b1b45c26aa9cf82d5c0dd1faf109baff768e002c759d76b1aca1ddb257c1f2c47cf5dee39b1b31b54c6db82fbe8ac00000000"
    }
  ]
}