{
  "hash": "0000000010534ec39cb6ebefeb87faaadeb1e38fe1a170350f1b20402ddb0c5d",
  "confirmations": 51623,
  "height": 1475,
  "version": 1,
  "versionHex": "00000001",
  "merkleroot": "8a7cdeb7ac79579b1d4afa2dcecbc1df9adf3090c51741e90a0aad03906594f8",
  "time": 1232757381,
  "mediantime": 1232755162,
  "nonce": 1151024674,
  "bits": "1d00ffff",
  "difficulty": 1,
  "chainwork": "000000000000000000000000000000000000000000000000000005c405c405c4",
  "nTx": 1,
  "previousblockhash": "00000000a105efad7932483c4a82aea3ef3aaad1629d825dca80b78206a0b670",
  "nextblockhash": "00000000772c87d06808e98d88a78e03cad08198276062da4face95c6bb16e04",
  "strippedsize": 216,
  "size": 216,
  "weight": 864,
  "tx": [
    {
      "txid": "8a7cdeb7ac79579b1d4afa2dcecbc1df9adf3090c51741e90a0aad03906594f8",
      "hash": "8a7cdeb7ac79579b1d4afa2dcecbc1df9adf3090c51741e90a0aad03906594f8",
      "version": 1,
      "size": 135,
      "vsize": 135,
      "weight": 540,
      "locktime": 0,
      "vin": [
        {
          "coinbase": "04ffff001d02e500",
          "sequence": 4294967295
        }
      ],
      "vout": [
        {
          "value": 50.0,
          "n": 0,
          "scriptPubKey": {
            "asm": "04de4f284e305abfd7bb7d933f65cf41162a32587e9a2ad26be5a5d3a51af9bca213c538b4a055bc1319453aed48bccfd388efb83988de89954855e3b242962645 OP_CHECKSIG",
            "desc": "pk(04de4f284e305abfd7bb7d933f65cf41162a32587e9a2ad26be5a5d3a51af9bca213c538b4a055bc1319453aed48bccfd388efb83988de89954855e3b242962645)#vern3tkf",
            "hex": "4104de4f284e305abfd7bb7d933f65cf41162a32587e9a2ad26be5a5d3a51af9bca213c538b4a055bc1319453aed48bccfd388efb83988de89954855e3b242962645ac",
            "type": "pubkey"
          }
        }
      ],
      "hex": "01000000010000000000000000000000000000000000000000000000000000000000000000ffffffff0804ffff001d02e500ffffffff0100f2052a01000000434104de4f284e305abfd7bb7d933f65cf41162a32587e9a2ad26be5a5d3a51af9bca213c538b4a055bc1319453aed48bccfd388efb83988de89954855e3b242962645ac00000000"
    }
  ]
}