{
  "hash": "000000003f7771f4ccca354f0e638f7a2f3eab6df416e977f50abfa67d39a878",
  "confirmations": 46389,
  "height": 6709,
  "version": 1,
  "versionHex": "00000001",
  "merkleroot": "3e4b5f58fb168ad339280b039595aa11249754f6f4595708b00553bb3bd028b8",
  "time": 1236490046,
  "mediantime": 1236486212,
  "nonce": 824213287,
  "bits": "1d00ffff",
  "difficulty": 1,
  "chainwork": "00000000000000000000000000000000000000000000000000001a361a361a36",
  "nTx": 1,
  "previousblockhash": "000000007108461df15994277cd6fe447410fa837d922e1fa5c6c5f1d8b69455",
  "nextblockhash": "00000000bbc8eb7a2c1aa9ada272689f40561aa226b6bed8308e244fbac84ee8",
  "strippedsize": 216,
  "size": 216,
  "weight": 864,
  "tx": [
    {
      "txid": "3e4b5f58fb168ad339280b039595aa11249754f6f4595708b00553bb3bd028b8",
      "hash": "3e4b5f58fb168ad339280b039595aa11249754f6f4595708b00553bb3bd028b8",
      "version": 1,
      "size": 135,
      "vsize": 135,
      "weight": 540,
      "locktime": 0,
      "vin": [
        {
          "coinbase": "04ffff001d023c07",
          "sequence": 4294967295
        }
      ],
      "vout": [
        {
          "value": 50.0,
          "n": 0,
          "scriptPubKey": {
            "asm": "0452c43dd6d22687fcf815bd6d53bfb63581c57425c079b696ea8139d195231369761d90f26ec00d467615cf5d49d41f1b65d47192576fa9be342b4789024fe263 OP_CHECKSIG",
            "desc": "pk(0452c43dd6d22687fcf815bd6d53bfb63581c57425c079b696ea8139d195231369761d90f26ec00d467615cf5d49d41f1b65d47192576fa9be342b4789024fe263)#jvwkgrjg",
            "hex": "410452c43dd6d22687fcf815bd6d53bfb63581c57425c079b696ea8139d195231369761d90f26ec00d467615cf5d49d41f1b65d47192576fa9be342b4789024fe263ac",
            "type": "pubkey"
          }
        }
      ],
      "hex": "01000000010000000000000000000000000000000000000000000000000000000000000000ffffffff0804ffff001d023c07ffffffff0100f2052a0100000043410452c43dd6d22687fcf815bd6d53bfb63581c57425c079b696ea8139d195231369761d90f26ec00d467615cf5d49d41f1b65d47192576fa9be342b4789024fe263ac00000000"
    }
  ]
}