{
  "hash": "00000000d099d910dfdc0f12c7b2737b47fa528fb04dd25548ee0e78309e4e05",
  "confirmations": 46701,
  "height": 6397,
  "version": 1,
  "versionHex": "00000001",
  "merkleroot": "cb04f12c30cf1442adf506faff7ed42f80745f289c3d01296ed85a670ac703d9",
  "time": 1236253728,
  "mediantime": 1236249525,
  "nonce": 2191790117,
  "bits": "1d00ffff",
  "difficulty": 1,
  "chainwork": "000000000000000000000000000000000000000000000000000018fe18fe18fe",
  "nTx": 1,
  "previousblockhash": "00000000cb507fcc36bc5f87f902bcd13d548d38005d614672e6813e4f664706",
  "nextblockhash": "000000006d562551f8040cdd043feed3d6a0147fd6d56147e06bd62c266c80f4",
  "strippedsize": 216,
  "size": 216,
  "weight": 864,
  "tx": [
    {
      "txid": "cb04f12c30cf1442adf506faff7ed42f80745f289c3d01296ed85a670ac703d9",
      "hash": "cb04f12c30cf1442adf506faff7ed42f80745f289c3d01296ed85a670ac703d9",
      "version": 1,
      "size": 135,
      "vsize": 135,
      "weight": 540,
      "locktime": 0,
      "vin": [
        {
          "coinbase": "04ffff001d02c101",
          "sequence": 4294967295
        }
      ],
      "vout": [
        {
          "value": 50.0,
          "n": 0,
          "scriptPubKey": {
            "asm": "0442c34093af20594269c8c855ab6df74183dbfcb09d2448f0f5f651493c3252446332a515c7d6c574d9dc6dda7354159952a8c583c0b5ef6768da81494df86087 OP_CHECKSIG",
            "desc": "pk(0442c34093af20594269c8c855ab6df74183dbfcb09d2448f0f5f651493c3252446332a515c7d6c574d9dc6dda7354159952a8c583c0b5ef6768da81494df86087)#c4ffhqh2",
            "hex": "410442c34093af20594269c8c855ab6df74183dbfcb09d2448f0f5f651493c3252446332a515c7d6c574d9dc6dda7354159952a8c583c0b5ef6768da81494df86087ac",
            "type": "pubkey"
          }
        }
      ],
      "hex": "01000000010000000000000000000000000000000000000000000000000000000000000000ffffffff0804ffff001d02c101ffffffff0100f2052a0100000043410442c34093af20594269c8c855ab6df74183dbfcb09d2448f0f5f651493c3252446332a515c7d6c574d9dc6dda7354159952a8c583c0b5ef6768da81494df86087ac00000000"
    }
  ]
}