{
  "hash": "00000000587aac037a61ccc1fa1022836f5c57554bb6d0a30ea1ec282aa0fb9d",
  "confirmations": 43786,
  "height": 9312,
  "version": 1,
  "versionHex": "00000001",
  "merkleroot": "2e14f8d1fedd66d4ea3c1ac0ae171de905bcbd3cff5c963dc1293c5c3e5fa96e",
  "time": 1238483644,
  "mediantime": 1238479509,
  "nonce": 17503281,
  "bits": "1d00ffff",
  "difficulty": 1,
  "chainwork": "0000000000000000000000000000000000000000000000000000246124612461",
  "nTx": 1,
  "previousblockhash": "000000008da846cff88ef83258bf01f7ca757edd080d541381347c5ec8cb5b47",
  "nextblockhash": "000000008ff347146c3956176dfb2bb3c45ef9471a5f59d952474b97cf28d724",
  "strippedsize": 216,
  "size": 216,
  "weight": 864,
  "tx": [
    {
      "txid": "2e14f8d1fedd66d4ea3c1ac0ae171de905bcbd3cff5c963dc1293c5c3e5fa96e",
      "hash": "2e14f8d1fedd66d4ea3c1ac0ae171de905bcbd3cff5c963dc1293c5c3e5fa96e",
      "version": 1,
      "size": 135,
      "vsize": 135,
      "weight": 540,
      "locktime": 0,
      "vin": [
        {
          "coinbase": "04ffff001d02e401",
          "sequence": 4294967295
        }
      ],
      "vout": [
        {
          "value": 50.0,
          "n": 0,
          "scriptPubKey": {
            "asm": "040046f209df4ae4e5f00e2ea68acfaf6a814f6f4b8f1acd4262bbf1956ec4ec759dd2f670f1df90e43d154c800433cd1c842391eaf24bf8ad983b817bad12da59 OP_CHECKSIG",
            "desc": "pk(040046f209df4ae4e5f00e2ea68acfaf6a814f6f4b8f1acd4262bbf1956ec4ec759dd2f670f1df90e43d154c800433cd1c842391eaf24bf8ad983b817bad12da59)#a5zehpwf",
            "hex": "41040046f209df4ae4e5f00e2ea68acfaf6a814f6f4b8f1acd4262bbf1956ec4ec759dd2f670f1df90e43d154c800433cd1c842391eaf24bf8ad983b817bad12da59ac",
            "type": "pubkey"
          }
        }
      ],
      "hex": "01000000010000000000000000000000000000000000000000000000000000000000000000ffffffff0804ffff001d02e401ffffffff0100f2052a010000004341040046f209df4ae4e5f00e2ea68acfaf6a814f6f4b8f1acd4262bbf1956ec4ec759dd2f670f1df90e43d154c800433cd1c842391eaf24bf8ad983b817bad12da59ac00000000"
    }
  ]
}