{
  "hash": "00000000a2aab69ec44620e839e713326eb8f8ce4a87ec6d1d2bccee72f5e2fe",
  "confirmations": 45487,
  "height": 7611,
  "version": 1,
  "versionHex": "00000001",
  "merkleroot": "9489af9b7849443c6089b411dca85258e9a914d2be3fde07913d31e8c6f238e6",
  "time": 1237176001,
  "mediantime": 1237173614,
  "nonce": 2403996968,
  "bits": "1d00ffff",
  "difficulty": 1,
  "chainwork": "00000000000000000000000000000000000000000000000000001dbc1dbc1dbc",
  "nTx": 1,
  "previousblockhash": "00000000c6b9b7f26dbd5427b2f74750cefd1401f0eba633d1eef175fc49b2cb",
  "nextblockhash": "000000007f8db6511db0e101debcb9748cab4a8428be673df8ad7c520713195a",
  "strippedsize": 216,
  "size": 216,
  "weight": 864,
  "tx": [
    {
      "txid": "9489af9b7849443c6089b411dca85258e9a914d2be3fde07913d31e8c6f238e6",
      "hash": "9489af9b7849443c6089b411dca85258e9a914d2be3fde07913d31e8c6f238e6",
      "version": 1,
      "size": 135,
      "vsize": 135,
      "weight": 540,
      "locktime": 0,
      "vin": [
        {
          "coinbase": "04ffff001d02cb02",
          "sequence": 4294967295
        }
      ],
      "vout": [
        {
          "value": 50.0,
          "n": 0,
          "scriptPubKey": {
            "asm": "04933f2c2068540bfe7cffc26ce7e30e5002d2c705126164fb431581f63cf03b0081097ec3a3843ac3d61d994c0bbeed69f95bd7e8ea7b595a80bc6e796a1774ec OP_CHECKSIG",
            "desc": "pk(04933f2c2068540bfe7cffc26ce7e30e5002d2c705126164fb431581f63cf03b0081097ec3a3843ac3d61d994c0bbeed69f95bd7e8ea7b595a80bc6e796a1774ec)#8dwly5gm",
            "hex": "4104933f2c2068540bfe7cffc26ce7e30e5002d2c705126164fb431581f63cf03b0081097ec3a3843ac3d61d994c0bbeed69f95bd7e8ea7b595a80bc6e796a1774ecac",
            "type": "pubkey"
          }
        }
      ],
      "hex": "01000000010000000000000000000000000000000000000000000000000000000000000000ffffffff0804ffff001d02cb02ffffffff0100f2052a01000000434104933f2c2068540bfe7cffc26ce7e30e5002d2c705126164fb431581f63cf03b0081097ec3a3843ac3d61d994c0bbeed69f95bd7e8ea7b595a80bc6e796a1774ecac00000000"
    }
  ]
}