{
  "hash": "000000008e5508b05736619c7a9cccfe88b36f7ace69086e1a24c0546854db13",
  "confirmations": 47842,
  "height": 5256,
  "version": 1,
  "versionHex": "00000001",
  "merkleroot": "883d4354e73c392c0abb6c7928b11d149ff68a43e59ac31196f93dbcaa93ee2d",
  "time": 1235327608,
  "mediantime": 1235323831,
  "nonce": 1035038494,
  "bits": "1d00ffff",
  "difficulty": 1,
  "chainwork": "0000000000000000000000000000000000000000000000000000148914891489",
  "nTx": 1,
  "previousblockhash": "000000004c50f59d25e24bd70e847d45ca0afe75d861e99b4e4a54ea6c4b908a",
  "nextblockhash": "00000000ae401b37b65edfe4e2627692d496db9d71ea701d371a24a1b0556128",
  "strippedsize": 216,
  "size": 216,
  "weight": 864,
  "tx": [
    {
      "txid": "883d4354e73c392c0abb6c7928b11d149ff68a43e59ac31196f93dbcaa93ee2d",
      "hash": "883d4354e73c392c0abb6c7928b11d149ff68a43e59ac31196f93dbcaa93ee2d",
      "version": 1,
      "size": 135,
      "vsize": 135,
      "weight": 540,
      "locktime": 0,
      "vin": [
        {
          "coinbase": "04ffff001d026301",
          "sequence": 4294967295
        }
      ],
      "vout": [
        {
          "value": 50.0,
          "n": 0,
          "scriptPubKey": {
            "asm": "048c77213c4c0587ba1bdb20215a454c013dfada5556c85407866e22e21a4e8f17a88c3482879a6dda48bbe3c4c3a1770175de788f3cb8f0ea6d044d6fd7fbfa87 OP_CHECKSIG",
            "desc": "pk(048c77213c4c0587ba1bdb20215a454c013dfada5556c85407866e22e21a4e8f17a88c3482879a6dda48bbe3c4c3a1770175de788f3cb8f0ea6d044d6fd7fbfa87)#l0c642pg",
            "hex": "41048c77213c4c0587ba1bdb20215a454c013dfada5556c85407866e22e21a4e8f17a88c3482879a6dda48bbe3c4c3a1770175de788f3cb8f0ea6d044d6fd7fbfa87ac",
            "type": "pubkey"
          }
        }
      ],
      "hex": "01000000010000000000000000000000000000000000000000000000000000000000000000ffffffff0804ffff001d026301ffffffff0100f2052a010000004341048c77213c4c0587ba1bdb20215a454c013dfada5556c85407866e22e21a4e8f17a88c3482879a6dda48bbe3c4c3a1770175de788f3cb8f0ea6d044d6fd7fbfa87ac00000000"
    }
  ]
}