{
  "hash": "00000000874a9b7e9ba19a983c84d92c5896b6d9a4edce07421422c8e0044895",
  "confirmations": 49912,
  "height": 3186,
  "version": 1,
  "versionHex": "00000001",
  "merkleroot": "b4b46765727efc9e4a5bda5c1316449205dcc540e5dea7e63e14b4b9e788c6f7",
  "time": 1233890328,
  "mediantime": 1233887452,
  "nonce": 46653280,
  "bits": "1d00ffff",
  "difficulty": 1,
  "chainwork": "00000000000000000000000000000000000000000000000000000c730c730c73",
  "nTx": 1,
  "previousblockhash": "00000000b6cb8a4e0e8059b3b6a089002c4aea360b5bc885e124cbbba91c09f4",
  "nextblockhash": "00000000b9850887a5fd7ba79a6d1194fc43008d2eea05ef63e61d5098ce6575",
  "strippedsize": 215,
  "size": 215,
  "weight": 860,
  "tx": [
    {
      "txid": "b4b46765727efc9e4a5bda5c1316449205dcc540e5dea7e63e14b4b9e788c6f7",
      "hash": "b4b46765727efc9e4a5bda5c1316449205dcc540e5dea7e63e14b4b9e788c6f7",
      "version": 1,
      "size": 134,
      "vsize": 134,
      "weight": 536,
      "locktime": 0,
      "vin": [
        {
          "coinbase": "04ffff001d0103",
          "sequence": 4294967295
        }
      ],
      "vout": [
        {
          "value": 50.0,
          "n": 0,
          "scriptPubKey": {
            "asm": "0482f2d2e2af996fcaaf4279e4014867714d5c35102d5fdd5097b464ff06351459c4a2e69ee0bae003ce35a0e33c83287588d3eebb9113e8d2c2c7d25e2c4bebf0 OP_CHECKSIG",
            "desc": "pk(0482f2d2e2af996fcaaf4279e4014867714d5c35102d5fdd5097b464ff06351459c4a2e69ee0bae003ce35a0e33c83287588d3eebb9113e8d2c2c7d25e2c4bebf0)#mdhvvvv2",
            "hex": "410482f2d2e2af996fcaaf4279e4014867714d5c35102d5fdd5097b464ff06351459c4a2e69ee0bae003ce35a0e33c83287588d3eebb9113e8d2c2c7d25e2c4bebf0ac",
            "type": "pubkey"
          }
        }
      ],
      "hex": "01000000010000000000000000000000000000000000000000000000000000000000000000ffffffff0704ffff001d0103ffffffff0100f2052a0100000043410482f2d2e2af996fcaaf4279e4014867714d5c35102d5fdd5097b464ff06351459c4a2e69ee0bae003ce35a0e33c83287588d3eebb9113e8d2c2c7d25e2c4bebf0ac00000000"
    }
  ]
}