{
  "hash": "00000000b3de4f2a07df16131eab4f13aa38f9db2d4468ba25a083f8c0cb2cd6",
  "confirmations": 52065,
  "height": 360,
  "version": 1,
  "versionHex": "00000001",
  "merkleroot": "264299886446921c89e598ec2b1ec3eab6a2c9b0235b310ff513a039315ff721",
  "time": 1231872582,
  "mediantime": 1231869577,
  "nonce": 4831612,
  "bits": "1d00ffff",
  "difficulty": 1,
  "chainwork": "0000000000000000000000000000000000000000000000000000016901690169",
  "nTx": 1,
  "previousblockhash": "0000000092c57e4d0f6f29a83a4072fdea05816199619e60c96867f7df570d5d",
  "nextblockhash": "0000000015f33195efd709e45c5de92081fb8fefdf456d5402e15e2d971fb20f",
  "strippedsize": 215,
  "size": 215,
  "weight": 860,
  "tx": [
    {
      "txid": "264299886446921c89e598ec2b1ec3eab6a2c9b0235b310ff513a039315ff721",
      "hash": "264299886446921c89e598ec2b1ec3eab6a2c9b0235b310ff513a039315ff721",
      "version": 1,
      "size": 134,
      "vsize": 134,
      "weight": 536,
      "locktime": 0,
      "vin": [
        {
          "coinbase": "04ffff001d014b",
          "sequence": 4294967295
        }
      ],
      "vout": [
        {
          "value": 50.0,
          "n": 0,
          "scriptPubKey": {
            "asm": "044ca7baf6d8b658abd04223909d82f1764740bdc9317255f54e4910f888bd82950e33236798517591e4c2181f69b5eaa2fa1f21866780a0cc5d8396a04fd36310 OP_CHECKSIG",
            "desc": "pk(044ca7baf6d8b658abd04223909d82f1764740bdc9317255f54e4910f888bd82950e33236798517591e4c2181f69b5eaa2fa1f21866780a0cc5d8396a04fd36310)#28j8vxnh",
            "hex": "41044ca7baf6d8b658abd04223909d82f1764740bdc9317255f54e4910f888bd82950e33236798517591e4c2181f69b5eaa2fa1f21866780a0cc5d8396a04fd36310ac",
            "type": "pubkey"
          }
        }
      ],
      "hex": "01000000010000000000000000000000000000000000000000000000000000000000000000ffffffff0704ffff001d014bffffffff0100f2052a010000004341044ca7baf6d8b658abd04223909d82f1764740bdc9317255f54e4910f888bd82950e33236798517591e4c2181f69b5eaa2fa1f21866780a0cc5d8396a04fd36310ac00000000"
    }
  ]
}