{
  "hash": "000000007c6ce8af451e99b8f9128759dfc9a4720eb40abcc8f8c174dd0e1e81",
  "confirmations": 44407,
  "height": 8691,
  "version": 1,
  "versionHex": "00000001",
  "merkleroot": "5660ce715659307acae8ae0126b4ca27cbec48540648141f6e0a3d77cfb4cc27",
  "time": 1238018661,
  "mediantime": 1238015797,
  "nonce": 3095201830,
  "bits": "1d00ffff",
  "difficulty": 1,
  "chainwork": "000000000000000000000000000000000000000000000000000021f421f421f4",
  "nTx": 1,
  "previousblockhash": "000000009a7f813c24708573b68265c730a6bff1fa71bf9d447f8c6a196e2077",
  "nextblockhash": "000000004656bf7bc13ea617b3c472bc2ddb226a3cc4109b4bf2844f7929ba35",
  "strippedsize": 216,
  "size": 216,
  "weight": 864,
  "tx": [
    {
      "txid": "5660ce715659307acae8ae0126b4ca27cbec48540648141f6e0a3d77cfb4cc27",
      "hash": "5660ce715659307acae8ae0126b4ca27cbec48540648141f6e0a3d77cfb4cc27",
      "version": 1,
      "size": 135,
      "vsize": 135,
      "weight": 540,
      "locktime": 0,
      "vin": [
        {
          "coinbase": "04ffff001d02bd00",
          "sequence": 4294967295
        }
      ],
      "vout": [
        {
          "value": 50.0,
          "n": 0,
          "scriptPubKey": {
            "asm": "046e50a7f39d835154333710e26dd1b0890ef423a819dfe0287b6ad8b30b23b3a87c866cc18744e3aef8ba192726589ce1daea6f7bd4dc64cc6f59f10c2d6c4f9c OP_CHECKSIG",
            "desc": "pk(046e50a7f39d835154333710e26dd1b0890ef423a819dfe0287b6ad8b30b23b3a87c866cc18744e3aef8ba192726589ce1daea6f7bd4dc64cc6f59f10c2d6c4f9c)#sl8449ws",
            "hex": "41046e50a7f39d835154333710e26dd1b0890ef423a819dfe0287b6ad8b30b23b3a87c866cc18744e3aef8ba192726589ce1daea6f7bd4dc64cc6f59f10c2d6c4f9cac",
            "type": "pubkey"
          }
        }
      ],
      "hex": "01000000010000000000000000000000000000000000000000000000000000000000000000ffffffff0804ffff001d02bd00ffffffff0100f2052a010000004341046e50a7f39d835154333710e26dd1b0890ef423a819dfe0287b6ad8b30b23b3a87c866cc18744e3aef8ba192726589ce1daea6f7bd4dc64cc6f59f10c2d6c4f9cac00000000"
    }
  ]
}