{
  "hash": "00000000e971a5014d9f7a70e26b223dbb68a51c4a6340824ef8deca00a30430",
  "confirmations": 52194,
  "height": 904,
  "version": 1,
  "versionHex": "00000001",
  "merkleroot": "b6c79a1d20ab448ae370578b9b73ab99c964ebe1be515e9d705620ab3abe9b4d",
  "time": 1232280145,
  "mediantime": 1232275311,
  "nonce": 1985701910,
  "bits": "1d00ffff",
  "difficulty": 1,
  "chainwork": "0000000000000000000000000000000000000000000000000000038903890389",
  "nTx": 1,
  "previousblockhash": "00000000b55ffd9fb6287b37c50bb6c82a8bb81d2b67c8294ddc8cdf46e79fce",
  "nextblockhash": "00000000a8ed265d3d7d4a829dac44c97b30f1a519bcd7ca038a7c680755a30c",
  "strippedsize": 216,
  "size": 216,
  "weight": 864,
  "tx": [
    {
      "txid": "b6c79a1d20ab448ae370578b9b73ab99c964ebe1be515e9d705620ab3abe9b4d",
      "hash": "b6c79a1d20ab448ae370578b9b73ab99c964ebe1be515e9d705620ab3abe9b4d",
      "version": 1,
      "size": 135,
      "vsize": 135,
      "weight": 540,
      "locktime": 0,
      "vin": [
        {
          "coinbase": "04ffff001d02bf03",
          "sequence": 4294967295
        }
      ],
      "vout": [
        {
          "value": 50.0,
          "n": 0,
          "scriptPubKey": {
            "asm": "0446ece72a7234ec1c6b1b857fe20692911d911e8057637a68c0d6dce7df3c21cb00e3ffe584c80a105c626c0c2e8422e44ae5dbca4d91bfb8855804db892b034c OP_CHECKSIG",
            "desc": "pk(0446ece72a7234ec1c6b1b857fe20692911d911e8057637a68c0d6dce7df3c21cb00e3ffe584c80a105c626c0c2e8422e44ae5dbca4d91bfb8855804db892b034c)#e8y07vvt",
            "hex": "410446ece72a7234ec1c6b1b857fe20692911d911e8057637a68c0d6dce7df3c21cb00e3ffe584c80a105c626c0c2e8422e44ae5dbca4d91bfb8855804db892b034cac",
            "type": "pubkey"
          }
        }
      ],
      "hex": "01000000010000000000000000000000000000000000000000000000000000000000000000ffffffff0804ffff001d02bf03ffffffff0100f2052a0100000043410446ece72a7234ec1c6b1b857fe20692911d911e8057637a68c0d6dce7df3c21cb00e3ffe584c80a105c626c0c2e8422e44ae5dbca4d91bfb8855804db892b034cac00000000"
    }
  ]
}