{
  "hash": "00000000b3dbdf88bddb931af4df7fa840d5b1d27d8ab66344dbd24cb1660a7c",
  "confirmations": 44213,
  "height": 8885,
  "version": 1,
  "versionHex": "00000001",
  "merkleroot": "5a7a160f81396778d7feaefb32923de9236f8c8bd2a66c6b98e5db85bed11db3",
  "time": 1238165811,
  "mediantime": 1238161079,
  "nonce": 301221671,
  "bits": "1d00ffff",
  "difficulty": 1,
  "chainwork": "000000000000000000000000000000000000000000000000000022b622b622b6",
  "nTx": 1,
  "previousblockhash": "0000000057d38f5d7e85f0c42f8d35acd078d686c010bc47053a14db6f38d9db",
  "nextblockhash": "00000000f536d3ac9ccdc9a3535c83ae586413465bc97c35a2b2efb1d2d3abf4",
  "strippedsize": 216,
  "size": 216,
  "weight": 864,
  "tx": [
    {
      "txid": "5a7a160f81396778d7feaefb32923de9236f8c8bd2a66c6b98e5db85bed11db3",
      "hash": "5a7a160f81396778d7feaefb32923de9236f8c8bd2a66c6b98e5db85bed11db3",
      "version": 1,
      "size": 135,
      "vsize": 135,
      "weight": 540,
      "locktime": 0,
      "vin": [
        {
          "coinbase": "04ffff001d022e04",
          "sequence": 4294967295
        }
      ],
      "vout": [
        {
          "value": 50.0,
          "n": 0,
          "scriptPubKey": {
            "asm": "04797f6713e1fce046a3199edc827754280e4df4295b4bdba9293ff45e23321518b0131c709949931dd4ecf54808036be503fc76c6651aeb9841f913031230062d OP_CHECKSIG",
            "desc": "pk(04797f6713e1fce046a3199edc827754280e4df4295b4bdba9293ff45e23321518b0131c709949931dd4ecf54808036be503fc76c6651aeb9841f913031230062d)#c2y9v6uh",
            "hex": "4104797f6713e1fce046a3199edc827754280e4df4295b4bdba9293ff45e23321518b0131c709949931dd4ecf54808036be503fc76c6651aeb9841f913031230062dac",
            "type": "pubkey"
          }
        }
      ],
      "hex": "01000000010000000000000000000000000000000000000000000000000000000000000000ffffffff0804ffff001d022e04ffffffff0100f2052a01000000434104797f6713e1fce046a3199edc827754280e4df4295b4bdba9293ff45e23321518b0131c709949931dd4ecf54808036be503fc76c6651aeb9841f913031230062dac00000000"
    }
  ]
}