{
  "hash": "00000000207b5cdca1ad044414be49db9536b607628e8a2bcd05f6645fd688ff",
  "confirmations": 45205,
  "height": 7893,
  "version": 1,
  "versionHex": "00000001",
  "merkleroot": "fbe700e651d10d76df432553b657bceb677b89e4d5e375ed814e2c0bccbd69f1",
  "time": 1237386116,
  "mediantime": 1237382190,
  "nonce": 4245018676,
  "bits": "1d00ffff",
  "difficulty": 1,
  "chainwork": "00000000000000000000000000000000000000000000000000001ed61ed61ed6",
  "nTx": 1,
  "previousblockhash": "000000004d30f3f58abd9c4da01b39d57b8e5ec9121e2783306780c7279f98b7",
  "nextblockhash": "0000000087d980ceff702ede31f080889d76fea4c6a4d98cab6bebbd8a5a28b8",
  "strippedsize": 216,
  "size": 216,
  "weight": 864,
  "tx": [
    {
      "txid": "fbe700e651d10d76df432553b657bceb677b89e4d5e375ed814e2c0bccbd69f1",
      "hash": "fbe700e651d10d76df432553b657bceb677b89e4d5e375ed814e2c0bccbd69f1",
      "version": 1,
      "size": 135,
      "vsize": 135,
      "weight": 540,
      "locktime": 0,
      "vin": [
        {
          "coinbase": "04ffff001d025707",
          "sequence": 4294967295
        }
      ],
      "vout": [
        {
          "value": 50.0,
          "n": 0,
          "scriptPubKey": {
            "asm": "04cd5a6c01b744dc81c4907afadfcab74d6a16a4a7dc7ecf6a515c21a130baf351e30e34c9316ac54b6168173418c575245ef49837da050187bd471331d88e4304 OP_CHECKSIG",
            "desc": "pk(04cd5a6c01b744dc81c4907afadfcab74d6a16a4a7dc7ecf6a515c21a130baf351e30e34c9316ac54b6168173418c575245ef49837da050187bd471331d88e4304)#k0lsgaxa",
            "hex": "4104cd5a6c01b744dc81c4907afadfcab74d6a16a4a7dc7ecf6a515c21a130baf351e30e34c9316ac54b6168173418c575245ef49837da050187bd471331d88e4304ac",
            "type": "pubkey"
          }
        }
      ],
      "hex": "01000000010000000000000000000000000000000000000000000000000000000000000000ffffffff0804ffff001d025707ffffffff0100f2052a01000000434104cd5a6c01b744dc81c4907afadfcab74d6a16a4a7dc7ecf6a515c21a130baf351e30e34c9316ac54b6168173418c575245ef49837da050187bd471331d88e4304ac00000000"
    }
  ]
}