{
  "hash": "00000000271b3f3bdfb6cc077990cfb6dc26c45dcda1c398159bf66eef14fb83",
  "confirmations": 44331,
  "height": 8767,
  "version": 1,
  "versionHex": "00000001",
  "merkleroot": "03897364b5b2a76cb2c62f4972a25482ad3f19efa3f067c2ae8112d7a1feabdc",
  "time": 1238075080,
  "mediantime": 1238071859,
  "nonce": 257545960,
  "bits": "1d00ffff",
  "difficulty": 1,
  "chainwork": "0000000000000000000000000000000000000000000000000000224022402240",
  "nTx": 1,
  "previousblockhash": "00000000aadccc32a63f45f0e82440cd77ace50b6535c6fd9b66cef77a6a4c75",
  "nextblockhash": "00000000fba98431e9ae62d68ffb4c6f36f7bfe5183f606a0d81ec57a248705e",
  "strippedsize": 216,
  "size": 216,
  "weight": 864,
  "tx": [
    {
      "txid": "03897364b5b2a76cb2c62f4972a25482ad3f19efa3f067c2ae8112d7a1feabdc",
      "hash": "03897364b5b2a76cb2c62f4972a25482ad3f19efa3f067c2ae8112d7a1feabdc",
      "version": 1,
      "size": 135,
      "vsize": 135,
      "weight": 540,
      "locktime": 0,
      "vin": [
        {
          "coinbase": "04ffff001d020103",
          "sequence": 4294967295
        }
      ],
      "vout": [
        {
          "value": 50.0,
          "n": 0,
          "scriptPubKey": {
            "asm": "0463d77818894c91657c00023ffba9c91de26e8b0c8222dbbf57b131bc221e8580241d137d6e5a57d98034672dc030ed134901d1bdf6c384bb93ca5f6539d97b63 OP_CHECKSIG",
            "desc": "pk(0463d77818894c91657c00023ffba9c91de26e8b0c8222dbbf57b131bc221e8580241d137d6e5a57d98034672dc030ed134901d1bdf6c384bb93ca5f6539d97b63)#ky2vu6nl",
            "hex": "410463d77818894c91657c00023ffba9c91de26e8b0c8222dbbf57b131bc221e8580241d137d6e5a57d98034672dc030ed134901d1bdf6c384bb93ca5f6539d97b63ac",
            "type": "pubkey"
          }
        }
      ],
      "hex": "01000000010000000000000000000000000000000000000000000000000000000000000000ffffffff0804ffff001d020103ffffffff0100f2052a0100000043410463d77818894c91657c00023ffba9c91de26e8b0c8222dbbf57b131bc221e8580241d137d6e5a57d98034672dc030ed134901d1bdf6c384bb93ca5f6539d97b63ac00000000"
    }
  ]
}