{
  "hash": "0000000073a7feda4907ae58611d677540b946a4e4ca19ec732809d26a064253",
  "confirmations": 51155,
  "height": 1943,
  "version": 1,
  "versionHex": "00000001",
  "merkleroot": "57c6a1be9989919832ba067825d09191031a690574f34177d88a941d4bdd5337",
  "time": 1233001397,
  "mediantime": 1232997468,
  "nonce": 2882062360,
  "bits": "1d00ffff",
  "difficulty": 1,
  "chainwork": "0000000000000000000000000000000000000000000000000000079807980798",
  "nTx": 1,
  "previousblockhash": "00000000aeac8600a0469f121345575bcb5957f00d42ad88c815a69eb69b864c",
  "nextblockhash": "0000000070f317aab8c838bc27c8d1e3f825941e793d754746e068f3b9c888b5",
  "strippedsize": 215,
  "size": 215,
  "weight": 860,
  "tx": [
    {
      "txid": "57c6a1be9989919832ba067825d09191031a690574f34177d88a941d4bdd5337",
      "hash": "57c6a1be9989919832ba067825d09191031a690574f34177d88a941d4bdd5337",
      "version": 1,
      "size": 134,
      "vsize": 134,
      "weight": 536,
      "locktime": 0,
      "vin": [
        {
          "coinbase": "04ffff001d0178",
          "sequence": 4294967295
        }
      ],
      "vout": [
        {
          "value": 50.0,
          "n": 0,
          "scriptPubKey": {
            "asm": "045765574e1b65e14e35ddffbb2baa80e5e12229ac2ad33313c0681fb3c4b7ce1fd22837c650ba0e7a25cd616af97b41592e604b54c946edf73ce82ee6c22d5b98 OP_CHECKSIG",
            "desc": "pk(045765574e1b65e14e35ddffbb2baa80e5e12229ac2ad33313c0681fb3c4b7ce1fd22837c650ba0e7a25cd616af97b41592e604b54c946edf73ce82ee6c22d5b98)#refs0k7w",
            "hex": "41045765574e1b65e14e35ddffbb2baa80e5e12229ac2ad33313c0681fb3c4b7ce1fd22837c650ba0e7a25cd616af97b41592e604b54c946edf73ce82ee6c22d5b98ac",
            "type": "pubkey"
          }
        }
      ],
      "hex": "01000000010000000000000000000000000000000000000000000000000000000000000000ffffffff0704ffff001d0178ffffffff0100f2052a010000004341045765574e1b65e14e35ddffbb2baa80e5e12229ac2ad33313c0681fb3c4b7ce1fd22837c650ba0e7a25cd616af97b41592e604b54c946edf73ce82ee6c22d5b98ac00000000"
    }
  ]
}