{
  "hash": "000000000c39b194e62df9eb698346a7b804419e57c3a1920ca9b89309a17386",
  "confirmations": 47772,
  "height": 5326,
  "version": 1,
  "versionHex": "00000001",
  "merkleroot": "000d50bc8ed090e7d07ac8a4807d3483c7df47661f3e1dc156593e2781645bfd",
  "time": 1235383515,
  "mediantime": 1235379792,
  "nonce": 1195272983,
  "bits": "1d00ffff",
  "difficulty": 1,
  "chainwork": "000000000000000000000000000000000000000000000000000014cf14cf14cf",
  "nTx": 1,
  "previousblockhash": "00000000523bb635c3a4a4a289ea466db478470819de1e06e875b54b5f2b0f6c",
  "nextblockhash": "0000000034996a68e2e034e1e2f0666529af14937e49bc92a8ea23f4500bc378",
  "strippedsize": 216,
  "size": 216,
  "weight": 864,
  "tx": [
    {
      "txid": "000d50bc8ed090e7d07ac8a4807d3483c7df47661f3e1dc156593e2781645bfd",
      "hash": "000d50bc8ed090e7d07ac8a4807d3483c7df47661f3e1dc156593e2781645bfd",
      "version": 1,
      "size": 135,
      "vsize": 135,
      "weight": 540,
      "locktime": 0,
      "vin": [
        {
          "coinbase": "04ffff001d026a02",
          "sequence": 4294967295
        }
      ],
      "vout": [
        {
          "value": 50.0,
          "n": 0,
          "scriptPubKey": {
            "asm": "043c61e73fd7c59761b531306a8420a078f3d37735a55bd6aaf14c743ad7cfa2f10a756067bbbe2dd9a181909ab5fea960c448ecb2e5d6d4618dd60a3131ba9e4b OP_CHECKSIG",
            "desc": "pk(043c61e73fd7c59761b531306a8420a078f3d37735a55bd6aaf14c743ad7cfa2f10a756067bbbe2dd9a181909ab5fea960c448ecb2e5d6d4618dd60a3131ba9e4b)#7x66cwp6",
            "hex": "41043c61e73fd7c59761b531306a8420a078f3d37735a55bd6aaf14c743ad7cfa2f10a756067bbbe2dd9a181909ab5fea960c448ecb2e5d6d4618dd60a3131ba9e4bac",
            "type": "pubkey"
          }
        }
      ],
      "hex": "01000000010000000000000000000000000000000000000000000000000000000000000000ffffffff0804ffff001d026a02ffffffff0100f2052a010000004341043c61e73fd7c59761b531306a8420a078f3d37735a55bd6aaf14c743ad7cfa2f10a756067bbbe2dd9a181909ab5fea960c448ecb2e5d6d4618dd60a3131ba9e4bac00000000"
    }
  ]
}