{
  "hash": "00000000828cb497379bedf1d0657c297b388ee2dc0edcd2e6998b30a17272bf",
  "confirmations": 47099,
  "height": 5999,
  "version": 1,
  "versionHex": "00000001",
  "merkleroot": "f44c6bf303b84bbc94fb76913e95a8e57f3a45e6ed29177d805573c8b557a0ed",
  "time": 1235927060,
  "mediantime": 1235922966,
  "nonce": 208454256,
  "bits": "1d00ffff",
  "difficulty": 1,
  "chainwork": "0000000000000000000000000000000000000000000000000000177017701770",
  "nTx": 1,
  "previousblockhash": "000000000c6d92c5720d01287a7067f6694b81c32f980449f412176f43a6305b",
  "nextblockhash": "00000000dbbb79792303bdd1c6c4d7ab9c21bba0667213c2eca955e11230c5a5",
  "strippedsize": 216,
  "size": 216,
  "weight": 864,
  "tx": [
    {
      "txid": "f44c6bf303b84bbc94fb76913e95a8e57f3a45e6ed29177d805573c8b557a0ed",
      "hash": "f44c6bf303b84bbc94fb76913e95a8e57f3a45e6ed29177d805573c8b557a0ed",
      "version": 1,
      "size": 135,
      "vsize": 135,
      "weight": 540,
      "locktime": 0,
      "vin": [
        {
          "coinbase": "04ffff001d02ea01",
          "sequence": 4294967295
        }
      ],
      "vout": [
        {
          "value": 50.0,
          "n": 0,
          "scriptPubKey": {
            "asm": "04ece5c4aaf16ec4475c592131728be3d094a6903e02c021b0334400cade4093987d0bb76bd7fd309adf36a878af1f9333d5017a654542d881ff728e6611a04533 OP_CHECKSIG",
            "desc": "pk(04ece5c4aaf16ec4475c592131728be3d094a6903e02c021b0334400cade4093987d0bb76bd7fd309adf36a878af1f9333d5017a654542d881ff728e6611a04533)#fsca0pne",
            "hex": "4104ece5c4aaf16ec4475c592131728be3d094a6903e02c021b0334400cade4093987d0bb76bd7fd309adf36a878af1f9333d5017a654542d881ff728e6611a04533ac",
            "type": "pubkey"
          }
        }
      ],
      "hex": "01000000010000000000000000000000000000000000000000000000000000000000000000ffffffff0804ffff001d02ea01ffffffff0100f2052a01000000434104ece5c4aaf16ec4475c592131728be3d094a6903e02c021b0334400cade4093987d0bb76bd7fd309adf36a878af1f9333d5017a654542d881ff728e6611a04533ac00000000"
    }
  ]
}