{
  "hash": "00000000927c52403ce3746ae9c8b6177e1a1de36cfdbfc8631693a1cdfb5e17",
  "confirmations": 46427,
  "height": 6671,
  "version": 1,
  "versionHex": "00000001",
  "merkleroot": "50db82f7e0315026f0f15b2861060edf54a261917631ff95713372feb00f8f11",
  "time": 1236461020,
  "mediantime": 1236456633,
  "nonce": 3153876250,
  "bits": "1d00ffff",
  "difficulty": 1,
  "chainwork": "00000000000000000000000000000000000000000000000000001a101a101a10",
  "nTx": 1,
  "previousblockhash": "000000009e381ed636487a82f3b47f9571b78f332b6beac4b3e60927d3abc629",
  "nextblockhash": "00000000487ec590554cb1f4771dc6f54f9796989a736fc164778e3807d75c51",
  "strippedsize": 216,
  "size": 216,
  "weight": 864,
  "tx": [
    {
      "txid": "50db82f7e0315026f0f15b2861060edf54a261917631ff95713372feb00f8f11",
      "hash": "50db82f7e0315026f0f15b2861060edf54a261917631ff95713372feb00f8f11",
      "version": 1,
      "size": 135,
      "vsize": 135,
      "weight": 540,
      "locktime": 0,
      "vin": [
        {
          "coinbase": "04ffff001d026e06",
          "sequence": 4294967295
        }
      ],
      "vout": [
        {
          "value": 50.0,
          "n": 0,
          "scriptPubKey": {
            "asm": "041c396dcbeab7070134979ded3095aa4727cce9d08b803542f0b107ef5de7e4c26984bd9ccd33d3c836664fb864f09bf2e205c6f3f76050c97af2fa8f7f790647 OP_CHECKSIG",
            "desc": "pk(041c396dcbeab7070134979ded3095aa4727cce9d08b803542f0b107ef5de7e4c26984bd9ccd33d3c836664fb864f09bf2e205c6f3f76050c97af2fa8f7f790647)#apul3dgj",
            "hex": "41041c396dcbeab7070134979ded3095aa4727cce9d08b803542f0b107ef5de7e4c26984bd9ccd33d3c836664fb864f09bf2e205c6f3f76050c97af2fa8f7f790647ac",
            "type": "pubkey"
          }
        }
      ],
      "hex": "01000000010000000000000000000000000000000000000000000000000000000000000000ffffffff0804ffff001d026e06ffffffff0100f2052a010000004341041c396dcbeab7070134979ded3095aa4727cce9d08b803542f0b107ef5de7e4c26984bd9ccd33d3c836664fb864f09bf2e205c6f3f76050c97af2fa8f7f790647ac00000000"
    }
  ]
}