{
  "hash": "00000000e2907c985adfec04949724dabcf39b401d1fe20cf1709a6f146ad0ee",
  "confirmations": 50718,
  "height": 2380,
  "version": 1,
  "versionHex": "00000001",
  "merkleroot": "7f3a7a8f980b81f6707f6863d7c8ba3b125c757008ec969ea42f8346d9559a7e",
  "time": 1233338546,
  "mediantime": 1233334939,
  "nonce": 1574927145,
  "bits": "1d00ffff",
  "difficulty": 1,
  "chainwork": "0000000000000000000000000000000000000000000000000000094d094d094d",
  "nTx": 1,
  "previousblockhash": "000000006ebbe7c070bd446a35674b91da43e5e2dc3e72b9bfcf1afae351a7fe",
  "nextblockhash": "00000000cb9cf810f154eca3b897fb9fc32d5ad6b118d8f3ef25ec855bead8a9",
  "strippedsize": 216,
  "size": 216,
  "weight": 864,
  "tx": [
    {
      "txid": "7f3a7a8f980b81f6707f6863d7c8ba3b125c757008ec969ea42f8346d9559a7e",
      "hash": "7f3a7a8f980b81f6707f6863d7c8ba3b125c757008ec969ea42f8346d9559a7e",
      "version": 1,
      "size": 135,
      "vsize": 135,
      "weight": 540,
      "locktime": 0,
      "vin": [
        {
          "coinbase": "04ffff001d023103",
          "sequence": 4294967295
        }
      ],
      "vout": [
        {
          "value": 50.0,
          "n": 0,
          "scriptPubKey": {
            "asm": "04af801df76eabe3572ffeb925aba13853592e54272f05c4049db36a99c9073c545361c089b92b8d4b356f17174d8a445a53179c33e4d8564c0b3c171d22760db2 OP_CHECKSIG",
            "desc": "pk(04af801df76eabe3572ffeb925aba13853592e54272f05c4049db36a99c9073c545361c089b92b8d4b356f17174d8a445a53179c33e4d8564c0b3c171d22760db2)#m45x5e49",
            "hex": "4104af801df76eabe3572ffeb925aba13853592e54272f05c4049db36a99c9073c545361c089b92b8d4b356f17174d8a445a53179c33e4d8564c0b3c171d22760db2ac",
            "type": "pubkey"
          }
        }
      ],
      "hex": "01000000010000000000000000000000000000000000000000000000000000000000000000ffffffff0804ffff001d023103ffffffff0100f2052a01000000434104af801df76eabe3572ffeb925aba13853592e54272f05c4049db36a99c9073c545361c089b92b8d4b356f17174d8a445a53179c33e4d8564c0b3c171d22760db2ac00000000"
    }
  ]
}