{
  "hash": "000000006bb1deadd4d2a845520333048b39248281579a718649a1bdb4eb5ab2",
  "confirmations": 43520,
  "height": 9578,
  "version": 1,
  "versionHex": "00000001",
  "merkleroot": "eb8c3838419f931bae65f8408d764d790a94465464aa3278128e25a364ef36da",
  "time": 1238682384,
  "mediantime": 1238679964,
  "nonce": 879527731,
  "bits": "1d00ffff",
  "difficulty": 1,
  "chainwork": "0000000000000000000000000000000000000000000000000000256b256b256b",
  "nTx": 1,
  "previousblockhash": "0000000088df66fc4e4d47c146e721b526b8bbfd0816997e3a04dc56558f6cc8",
  "nextblockhash": "00000000de074c075b37c998d32df666bf1a5b57c3a51a70e93af75f6e64d6cc",
  "strippedsize": 216,
  "size": 216,
  "weight": 864,
  "tx": [
    {
      "txid": "eb8c3838419f931bae65f8408d764d790a94465464aa3278128e25a364ef36da",
      "hash": "eb8c3838419f931bae65f8408d764d790a94465464aa3278128e25a364ef36da",
      "version": 1,
      "size": 135,
      "vsize": 135,
      "weight": 540,
      "locktime": 0,
      "vin": [
        {
          "coinbase": "04ffff001d029f06",
          "sequence": 4294967295
        }
      ],
      "vout": [
        {
          "value": 50.0,
          "n": 0,
          "scriptPubKey": {
            "asm": "04af2dd123de17b1f04f08da852d6d770d5190b24b0aad359d3ff720e72cc4e290782eaf9a42d8ea9f75cc18a61975fc900dbc5fe3c700599d994c263653040ccd OP_CHECKSIG",
            "desc": "pk(04af2dd123de17b1f04f08da852d6d770d5190b24b0aad359d3ff720e72cc4e290782eaf9a42d8ea9f75cc18a61975fc900dbc5fe3c700599d994c263653040ccd)#g0fxznl6",
            "hex": "4104af2dd123de17b1f04f08da852d6d770d5190b24b0aad359d3ff720e72cc4e290782eaf9a42d8ea9f75cc18a61975fc900dbc5fe3c700599d994c263653040ccdac",
            "type": "pubkey"
          }
        }
      ],
      "hex": "01000000010000000000000000000000000000000000000000000000000000000000000000ffffffff0804ffff001d029f06ffffffff0100f2052a01000000434104af2dd123de17b1f04f08da852d6d770d5190b24b0aad359d3ff720e72cc4e290782eaf9a42d8ea9f75cc18a61975fc900dbc5fe3c700599d994c263653040ccdac00000000"
    }
  ]
}