{
  "hash": "000000004be011192200692e4bd803d4963f13a1b221c290fe325c91bc18b4f3",
  "confirmations": 45200,
  "height": 7898,
  "version": 1,
  "versionHex": "00000001",
  "merkleroot": "2c7052d21bc5068ac594c3e1d1833ddbb21fa7955aee4f6f24c7912d8688656d",
  "time": 1237390299,
  "mediantime": 1237386116,
  "nonce": 4216160301,
  "bits": "1d00ffff",
  "difficulty": 1,
  "chainwork": "00000000000000000000000000000000000000000000000000001edb1edb1edb",
  "nTx": 1,
  "previousblockhash": "000000000280b50dd608624652fd7e42f55b425eaf0f24b38b7816a6fbc65bce",
  "nextblockhash": "0000000011037ba6c8f7ecb30499daa83d745818edfe8ddfaa1801215e8dc5b3",
  "strippedsize": 216,
  "size": 216,
  "weight": 864,
  "tx": [
    {
      "txid": "2c7052d21bc5068ac594c3e1d1833ddbb21fa7955aee4f6f24c7912d8688656d",
      "hash": "2c7052d21bc5068ac594c3e1d1833ddbb21fa7955aee4f6f24c7912d8688656d",
      "version": 1,
      "size": 135,
      "vsize": 135,
      "weight": 540,
      "locktime": 0,
      "vin": [
        {
          "coinbase": "04ffff001d026c07",
          "sequence": 4294967295
        }
      ],
      "vout": [
        {
          "value": 50.0,
          "n": 0,
          "scriptPubKey": {
            "asm": "04e9014533bb41955f0969e8a90d7690113694a7ac1f980ae38e5b348c1a6236f079a2fb76e866051af1a3d1af0367fed206a24fe309fb6f7f8fffd7623d8b2de9 OP_CHECKSIG",
            "desc": "pk(04e9014533bb41955f0969e8a90d7690113694a7ac1f980ae38e5b348c1a6236f079a2fb76e866051af1a3d1af0367fed206a24fe309fb6f7f8fffd7623d8b2de9)#6g7mufg5",
            "hex": "4104e9014533bb41955f0969e8a90d7690113694a7ac1f980ae38e5b348c1a6236f079a2fb76e866051af1a3d1af0367fed206a24fe309fb6f7f8fffd7623d8b2de9ac",
            "type": "pubkey"
          }
        }
      ],
      "hex": "01000000010000000000000000000000000000000000000000000000000000000000000000ffffffff0804ffff001d026c07ffffffff0100f2052a01000000434104e9014533bb41955f0969e8a90d7690113694a7ac1f980ae38e5b348c1a6236f079a2fb76e866051af1a3d1af0367fed206a24fe309fb6f7f8fffd7623d8b2de9ac00000000"
    }
  ]
}