{
  "hash": "000000005fee4ca7eec12cfbcd1e741845b81c4fe2b8ad11c4314db1ddb1a9ab",
  "confirmations": 45919,
  "height": 7179,
  "version": 1,
  "versionHex": "00000001",
  "merkleroot": "e2145e802ebea0ddfda7c486cebc8d4448020e35bb876a41dbef00706187b039",
  "time": 1236855597,
  "mediantime": 1236852016,
  "nonce": 1225528095,
  "bits": "1d00ffff",
  "difficulty": 1,
  "chainwork": "00000000000000000000000000000000000000000000000000001c0c1c0c1c0c",
  "nTx": 1,
  "previousblockhash": "000000003f206cad3f9d1e2aab3d01cf3bacb0d1fa4ff57755d441a2c5dee2b8",
  "nextblockhash": "00000000d6c466cb2e74f1c18ea7caf55e410cb58a5971c7b16180ee8bf5f15a",
  "strippedsize": 216,
  "size": 216,
  "weight": 864,
  "tx": [
    {
      "txid": "e2145e802ebea0ddfda7c486cebc8d4448020e35bb876a41dbef00706187b039",
      "hash": "e2145e802ebea0ddfda7c486cebc8d4448020e35bb876a41dbef00706187b039",
      "version": 1,
      "size": 135,
      "vsize": 135,
      "weight": 540,
      "locktime": 0,
      "vin": [
        {
          "coinbase": "04ffff001d026905",
          "sequence": 4294967295
        }
      ],
      "vout": [
        {
          "value": 50.0,
          "n": 0,
          "scriptPubKey": {
            "asm": "04106f2d536b4ad08d9d0b56f912dbbf693ccae4eeaf3e15aceb4629f23f183cccb7a73523f9902de018808ae1fae808ecbbb770ab17c49bd6b1614b9a5ece66c7 OP_CHECKSIG",
            "desc": "pk(04106f2d536b4ad08d9d0b56f912dbbf693ccae4eeaf3e15aceb4629f23f183cccb7a73523f9902de018808ae1fae808ecbbb770ab17c49bd6b1614b9a5ece66c7)#dlwcsghu",
            "hex": "4104106f2d536b4ad08d9d0b56f912dbbf693ccae4eeaf3e15aceb4629f23f183cccb7a73523f9902de018808ae1fae808ecbbb770ab17c49bd6b1614b9a5ece66c7ac",
            "type": "pubkey"
          }
        }
      ],
      "hex": "01000000010000000000000000000000000000000000000000000000000000000000000000ffffffff0804ffff001d026905ffffffff0100f2052a01000000434104106f2d536b4ad08d9d0b56f912dbbf693ccae4eeaf3e15aceb4629f23f183cccb7a73523f9902de018808ae1fae808ecbbb770ab17c49bd6b1614b9a5ece66c7ac00000000"
    }
  ]
}