{
  "hash": "00000000534b666b6ac6495addb73799aed39a38f53367901d87c460320c7154",
  "confirmations": 43856,
  "height": 9242,
  "version": 1,
  "versionHex": "00000001",
  "merkleroot": "d75e370c63798f3e753906b8e5da672e8d6e5f534ab765f3b09f14abe0843118",
  "time": 1238428505,
  "mediantime": 1238424405,
  "nonce": 71135255,
  "bits": "1d00ffff",
  "difficulty": 1,
  "chainwork": "0000000000000000000000000000000000000000000000000000241b241b241b",
  "nTx": 1,
  "previousblockhash": "000000002967f2ddb3ed77b8de268cd71f35ff3db466570bea844ab75de82201",
  "nextblockhash": "00000000285964c700caa14867effce1189d3559c6aa81b4966b2b513f3409bc",
  "strippedsize": 216,
  "size": 216,
  "weight": 864,
  "tx": [
    {
      "txid": "d75e370c63798f3e753906b8e5da672e8d6e5f534ab765f3b09f14abe0843118",
      "hash": "d75e370c63798f3e753906b8e5da672e8d6e5f534ab765f3b09f14abe0843118",
      "version": 1,
      "size": 135,
      "vsize": 135,
      "weight": 540,
      "locktime": 0,
      "vin": [
        {
          "coinbase": "04ffff001d02c100",
          "sequence": 4294967295
        }
      ],
      "vout": [
        {
          "value": 50.0,
          "n": 0,
          "scriptPubKey": {
            "asm": "045e6389af918e0e780bcbe39e33c97186040bae21cd37ffa5a218aa435e29109141cec4bea96ad783221adcc51e58dc52a0a3c97a97377ecc0d8760afa007da99 OP_CHECKSIG",
            "desc": "pk(045e6389af918e0e780bcbe39e33c97186040bae21cd37ffa5a218aa435e29109141cec4bea96ad783221adcc51e58dc52a0a3c97a97377ecc0d8760afa007da99)#udjqn33n",
            "hex": "41045e6389af918e0e780bcbe39e33c97186040bae21cd37ffa5a218aa435e29109141cec4bea96ad783221adcc51e58dc52a0a3c97a97377ecc0d8760afa007da99ac",
            "type": "pubkey"
          }
        }
      ],
      "hex": "01000000010000000000000000000000000000000000000000000000000000000000000000ffffffff0804ffff001d02c100ffffffff0100f2052a010000004341045e6389af918e0e780bcbe39e33c97186040bae21cd37ffa5a218aa435e29109141cec4bea96ad783221adcc51e58dc52a0a3c97a97377ecc0d8760afa007da99ac00000000"
    }
  ]
}