{
  "hash": "00000000176d5e0d79d721f3a359dd15e941f9219ace47153949508161c33b24",
  "confirmations": 46544,
  "height": 6554,
  "version": 1,
  "versionHex": "00000001",
  "merkleroot": "faae99be1e430b4c8375d7dc34e43806c840e29a85486785913509cd663de695",
  "time": 1236367666,
  "mediantime": 1236365055,
  "nonce": 803804931,
  "bits": "1d00ffff",
  "difficulty": 1,
  "chainwork": "0000000000000000000000000000000000000000000000000000199b199b199b",
  "nTx": 1,
  "previousblockhash": "0000000028c18620aeab000ec560a64419bec60c4d31a226fb0c960752886e0d",
  "nextblockhash": "00000000ce81123a6c51ebb5f5a0c4e56db417905de679960a6da8b5ef57276c",
  "strippedsize": 216,
  "size": 216,
  "weight": 864,
  "tx": [
    {
      "txid": "faae99be1e430b4c8375d7dc34e43806c840e29a85486785913509cd663de695",
      "hash": "faae99be1e430b4c8375d7dc34e43806c840e29a85486785913509cd663de695",
      "version": 1,
      "size": 135,
      "vsize": 135,
      "weight": 540,
      "locktime": 0,
      "vin": [
        {
          "coinbase": "04ffff001d026d04",
          "sequence": 4294967295
        }
      ],
      "vout": [
        {
          "value": 50.0,
          "n": 0,
          "scriptPubKey": {
            "asm": "0487cf28cef1727d7ae39e78000a52ef35839d7d1a778d391edbda8df8b3ccc673e3b8cb111853b62cbe4bfef7de301512cabe5baec0402510a18b724c863fa619 OP_CHECKSIG",
            "desc": "pk(0487cf28cef1727d7ae39e78000a52ef35839d7d1a778d391edbda8df8b3ccc673e3b8cb111853b62cbe4bfef7de301512cabe5baec0402510a18b724c863fa619)#4mulqn73",
            "hex": "410487cf28cef1727d7ae39e78000a52ef35839d7d1a778d391edbda8df8b3ccc673e3b8cb111853b62cbe4bfef7de301512cabe5baec0402510a18b724c863fa619ac",
            "type": "pubkey"
          }
        }
      ],
      "hex": "01000000010000000000000000000000000000000000000000000000000000000000000000ffffffff0804ffff001d026d04ffffffff0100f2052a0100000043410487cf28cef1727d7ae39e78000a52ef35839d7d1a778d391edbda8df8b3ccc673e3b8cb111853b62cbe4bfef7de301512cabe5baec0402510a18b724c863fa619ac00000000"
    }
  ]
}