{
  "hash": "00000000283ae40e5825e8f74ceab6ab1c97b9cc3a468892f53780503c0fe594",
  "confirmations": 43505,
  "height": 9593,
  "version": 1,
  "versionHex": "00000001",
  "merkleroot": "ca56c1b2b4f73344b5b09221fa2d6ab342a1f15fcdb5e6e38ef1e3bc00f94881",
  "time": 1238695894,
  "mediantime": 1238691402,
  "nonce": 3586820640,
  "bits": "1d00ffff",
  "difficulty": 1,
  "chainwork": "0000000000000000000000000000000000000000000000000000257a257a257a",
  "nTx": 1,
  "previousblockhash": "000000004f0f3c567b7cd9ac0375e57207f1741a7e43e70b5ad36a4a162b6107",
  "nextblockhash": "00000000d4845af70264d790ac5fe2e8911eec5be26795a29df65eef1bc1a788",
  "strippedsize": 216,
  "size": 216,
  "weight": 864,
  "tx": [
    {
      "txid": "ca56c1b2b4f73344b5b09221fa2d6ab342a1f15fcdb5e6e38ef1e3bc00f94881",
      "hash": "ca56c1b2b4f73344b5b09221fa2d6ab342a1f15fcdb5e6e38ef1e3bc00f94881",
      "version": 1,
      "size": 135,
      "vsize": 135,
      "weight": 540,
      "locktime": 0,
      "vin": [
        {
          "coinbase": "04ffff001d02f306",
          "sequence": 4294967295
        }
      ],
      "vout": [
        {
          "value": 50.0,
          "n": 0,
          "scriptPubKey": {
            "asm": "04d24f9e972b608e00ea98ac98ad394a26905827eb8c9b4cf304e3c67601cb9cf7fe0741894ec28095deca6a407cb3a1d9534ba9087e5bad9122b14e5bf1c8b58c OP_CHECKSIG",
            "desc": "pk(04d24f9e972b608e00ea98ac98ad394a26905827eb8c9b4cf304e3c67601cb9cf7fe0741894ec28095deca6a407cb3a1d9534ba9087e5bad9122b14e5bf1c8b58c)#73a0jtga",
            "hex": "4104d24f9e972b608e00ea98ac98ad394a26905827eb8c9b4cf304e3c67601cb9cf7fe0741894ec28095deca6a407cb3a1d9534ba9087e5bad9122b14e5bf1c8b58cac",
            "type": "pubkey"
          }
        }
      ],
      "hex": "01000000010000000000000000000000000000000000000000000000000000000000000000ffffffff0804ffff001d02f306ffffffff0100f2052a01000000434104d24f9e972b608e00ea98ac98ad394a26905827eb8c9b4cf304e3c67601cb9cf7fe0741894ec28095deca6a407cb3a1d9534ba9087e5bad9122b14e5bf1c8b58cac00000000"
    }
  ]
}