{
  "hash": "00000000077c1d80ffdefbdfdd6c2e039d8d9c80030f6cd26e8ba38c575fbe8d",
  "confirmations": 44356,
  "height": 8742,
  "version": 1,
  "versionHex": "00000001",
  "merkleroot": "f15e630c74ff8980abc7cadbe6e19505e38add788fcb4a09cd6d83ab7fb1f090",
  "time": 1238052500,
  "mediantime": 1238049598,
  "nonce": 3879650329,
  "bits": "1d00ffff",
  "difficulty": 1,
  "chainwork": "0000000000000000000000000000000000000000000000000000222722272227",
  "nTx": 1,
  "previousblockhash": "00000000d7e307b6e5058c3aab82f27e5f9705ae8509317a95571e66ac28b5f6",
  "nextblockhash": "00000000dfe6854b409a89330f557a1ac28d7db8c789a1ebed5a3080219f9646",
  "strippedsize": 216,
  "size": 216,
  "weight": 864,
  "tx": [
    {
      "txid": "f15e630c74ff8980abc7cadbe6e19505e38add788fcb4a09cd6d83ab7fb1f090",
      "hash": "f15e630c74ff8980abc7cadbe6e19505e38add788fcb4a09cd6d83ab7fb1f090",
      "version": 1,
      "size": 135,
      "vsize": 135,
      "weight": 540,
      "locktime": 0,
      "vin": [
        {
          "coinbase": "04ffff001d029d01",
          "sequence": 4294967295
        }
      ],
      "vout": [
        {
          "value": 50.0,
          "n": 0,
          "scriptPubKey": {
            "asm": "045b6db1b06ca2452f0df104399a47f00b5d20e63c4d0efe92c3cbcc0522b3c59c48b68d0b078779b36051dfdf33a31e99e657bf71a314bc5f3995af855a579ae2 OP_CHECKSIG",
            "desc": "pk(045b6db1b06ca2452f0df104399a47f00b5d20e63c4d0efe92c3cbcc0522b3c59c48b68d0b078779b36051dfdf33a31e99e657bf71a314bc5f3995af855a579ae2)#xzwghrg5",
            "hex": "41045b6db1b06ca2452f0df104399a47f00b5d20e63c4d0efe92c3cbcc0522b3c59c48b68d0b078779b36051dfdf33a31e99e657bf71a314bc5f3995af855a579ae2ac",
            "type": "pubkey"
          }
        }
      ],
      "hex": "01000000010000000000000000000000000000000000000000000000000000000000000000ffffffff0804ffff001d029d01ffffffff0100f2052a010000004341045b6db1b06ca2452f0df104399a47f00b5d20e63c4d0efe92c3cbcc0522b3c59c48b68d0b078779b36051dfdf33a31e99e657bf71a314bc5f3995af855a579ae2ac00000000"
    }
  ]
}