{
  "hash": "00000000ba286b6fc8afbc7d0c525d0077d559350a808b550f9a71df0eeeeea2",
  "confirmations": 45978,
  "height": 7120,
  "version": 1,
  "versionHex": "00000001",
  "merkleroot": "db3fe21e1a8d7b27d41a51dcb4c800ad84a89156f581f64aa3f64326e9c6e94b",
  "time": 1236810934,
  "mediantime": 1236809452,
  "nonce": 948374806,
  "bits": "1d00ffff",
  "difficulty": 1,
  "chainwork": "00000000000000000000000000000000000000000000000000001bd11bd11bd1",
  "nTx": 1,
  "previousblockhash": "0000000010e1fddb76167cc0875b7f1bcd88292b2bc3debcbfe711a3621ce48f",
  "nextblockhash": "0000000035b519782a3ea1d45ff93ff00d5df251cbf9c6f424d76499c111f67d",
  "strippedsize": 216,
  "size": 216,
  "weight": 864,
  "tx": [
    {
      "txid": "db3fe21e1a8d7b27d41a51dcb4c800ad84a89156f581f64aa3f64326e9c6e94b",
      "hash": "db3fe21e1a8d7b27d41a51dcb4c800ad84a89156f581f64aa3f64326e9c6e94b",
      "version": 1,
      "size": 135,
      "vsize": 135,
      "weight": 540,
      "locktime": 0,
      "vin": [
        {
          "coinbase": "04ffff001d023604",
          "sequence": 4294967295
        }
      ],
      "vout": [
        {
          "value": 50.0,
          "n": 0,
          "scriptPubKey": {
            "asm": "042980e94fafcdaf6adc22a1fcb6ed89a663a552e35f0e0e8aa0ecdbfec15f57ad63eb6bfd2b7622ac6f5daa6851f89d978844ac7030bdd6b4f6c4b71c1b9d9815 OP_CHECKSIG",
            "desc": "pk(042980e94fafcdaf6adc22a1fcb6ed89a663a552e35f0e0e8aa0ecdbfec15f57ad63eb6bfd2b7622ac6f5daa6851f89d978844ac7030bdd6b4f6c4b71c1b9d9815)#s67q6ysm",
            "hex": "41042980e94fafcdaf6adc22a1fcb6ed89a663a552e35f0e0e8aa0ecdbfec15f57ad63eb6bfd2b7622ac6f5daa6851f89d978844ac7030bdd6b4f6c4b71c1b9d9815ac",
            "type": "pubkey"
          }
        }
      ],
      "hex": "01000000010000000000000000000000000000000000000000000000000000000000000000ffffffff0804ffff001d023604ffffffff0100f2052a010000004341042980e94fafcdaf6adc22a1fcb6ed89a663a552e35f0e0e8aa0ecdbfec15f57ad63eb6bfd2b7622ac6f5daa6851f89d978844ac7030bdd6b4f6c4b71c1b9d9815ac00000000"
    }
  ]
}