{
  "hash": "000000005768713cb899beee95c08ab0e13486216036fedee1df38361d65d230",
  "confirmations": 50044,
  "height": 3054,
  "version": 1,
  "versionHex": "00000001",
  "merkleroot": "b4b896709f17784154057107556e6894a83d4b9037454cb93c913897c2869fe5",
  "time": 1233799208,
  "mediantime": 1233795081,
  "nonce": 3962404119,
  "bits": "1d00ffff",
  "difficulty": 1,
  "chainwork": "00000000000000000000000000000000000000000000000000000bef0bef0bef",
  "nTx": 1,
  "previousblockhash": "00000000222004580a239ed4a744ad183c5b6506b93d368db86b72a8383bef5c",
  "nextblockhash": "000000002f8b3005318ae24ee3908f2967ec7333ddbeb855f1886a104be94d91",
  "strippedsize": 215,
  "size": 215,
  "weight": 860,
  "tx": [
    {
      "txid": "b4b896709f17784154057107556e6894a83d4b9037454cb93c913897c2869fe5",
      "hash": "b4b896709f17784154057107556e6894a83d4b9037454cb93c913897c2869fe5",
      "version": 1,
      "size": 134,
      "vsize": 134,
      "weight": 536,
      "locktime": 0,
      "vin": [
        {
          "coinbase": "04ffff001d0140",
          "sequence": 4294967295
        }
      ],
      "vout": [
        {
          "value": 50.0,
          "n": 0,
          "scriptPubKey": {
            "asm": "04567bbae6698eb73bc1aa6f3f1ba4a9a9fcec2307f904bce9f18ebb6e0a7cc6dfb46c5abc7cb3c812ac2c1beb5e479713d165e48538054d538add3983c6a5ebf2 OP_CHECKSIG",
            "desc": "pk(04567bbae6698eb73bc1aa6f3f1ba4a9a9fcec2307f904bce9f18ebb6e0a7cc6dfb46c5abc7cb3c812ac2c1beb5e479713d165e48538054d538add3983c6a5ebf2)#89m3fpsw",
            "hex": "4104567bbae6698eb73bc1aa6f3f1ba4a9a9fcec2307f904bce9f18ebb6e0a7cc6dfb46c5abc7cb3c812ac2c1beb5e479713d165e48538054d538add3983c6a5ebf2ac",
            "type": "pubkey"
          }
        }
      ],
      "hex": "01000000010000000000000000000000000000000000000000000000000000000000000000ffffffff0704ffff001d0140ffffffff0100f2052a01000000434104567bbae6698eb73bc1aa6f3f1ba4a9a9fcec2307f904bce9f18ebb6e0a7cc6dfb46c5abc7cb3c812ac2c1beb5e479713d165e48538054d538add3983c6a5ebf2ac00000000"
    }
  ]
}