{
  "hash": "00000000a0f48cdf9e763911cee38b24f391cf3b492697e93671d1528d91fe88",
  "confirmations": 48270,
  "height": 4828,
  "version": 1,
  "versionHex": "00000001",
  "merkleroot": "35168ba17d7c67e35df26903de2e812185fc67903d9eafca3cfdcbdca34b9a60",
  "time": 1235018159,
  "mediantime": 1235015146,
  "nonce": 2634339842,
  "bits": "1d00ffff",
  "difficulty": 1,
  "chainwork": "000000000000000000000000000000000000000000000000000012dd12dd12dd",
  "nTx": 1,
  "previousblockhash": "000000004a898a49dc00e66790b40784f86b4a3b20937c9aaa35af8be6a45a09",
  "nextblockhash": "0000000020ea3ceb62f0b425889186f80144f92280f3fef2175752d9091f4c7a",
  "strippedsize": 216,
  "size": 216,
  "weight": 864,
  "tx": [
    {
      "txid": "35168ba17d7c67e35df26903de2e812185fc67903d9eafca3cfdcbdca34b9a60",
      "hash": "35168ba17d7c67e35df26903de2e812185fc67903d9eafca3cfdcbdca34b9a60",
      "version": 1,
      "size": 135,
      "vsize": 135,
      "weight": 540,
      "locktime": 0,
      "vin": [
        {
          "coinbase": "04ffff001d02b104",
          "sequence": 4294967295
        }
      ],
      "vout": [
        {
          "value": 50.0,
          "n": 0,
          "scriptPubKey": {
            "asm": "042270c0ebe4b97df414c668b1548534fe20686b22f32131e248440722ec77edaaf9369388bd0741a13c4e4973fe7e48c58f8c01a4d55ce0da100c359c3b3ad159 OP_CHECKSIG",
            "desc": "pk(042270c0ebe4b97df414c668b1548534fe20686b22f32131e248440722ec77edaaf9369388bd0741a13c4e4973fe7e48c58f8c01a4d55ce0da100c359c3b3ad159)#gm5eyzpe",
            "hex": "41042270c0ebe4b97df414c668b1548534fe20686b22f32131e248440722ec77edaaf9369388bd0741a13c4e4973fe7e48c58f8c01a4d55ce0da100c359c3b3ad159ac",
            "type": "pubkey"
          }
        }
      ],
      "hex": "01000000010000000000000000000000000000000000000000000000000000000000000000ffffffff0804ffff001d02b104ffffffff0100f2052a010000004341042270c0ebe4b97df414c668b1548534fe20686b22f32131e248440722ec77edaaf9369388bd0741a13c4e4973fe7e48c58f8c01a4d55ce0da100c359c3b3ad159ac00000000"
    }
  ]
}