{
  "hash": "000000009850880db11b7ec0c5f2394d70e1a4e0b345348439542a736fdab3d3",
  "confirmations": 43299,
  "height": 9799,
  "version": 1,
  "versionHex": "00000001",
  "merkleroot": "b024641667ea48a71ba7e6b2da4e05beea5a4b97a5256f69755525b71c926a84",
  "time": 1238855346,
  "mediantime": 1238852816,
  "nonce": 1579251248,
  "bits": "1d00ffff",
  "difficulty": 1,
  "chainwork": "0000000000000000000000000000000000000000000000000000264826482648",
  "nTx": 1,
  "previousblockhash": "00000000f95a15ff1ac48141ad84830a491eaafe2b21a6c1985978951f5cc872",
  "nextblockhash": "000000001eb7936cd07a1a9d2454468f93c0732bd12c2c19433e0510b6df71cc",
  "strippedsize": 215,
  "size": 215,
  "weight": 860,
  "tx": [
    {
      "txid": "b024641667ea48a71ba7e6b2da4e05beea5a4b97a5256f69755525b71c926a84",
      "hash": "b024641667ea48a71ba7e6b2da4e05beea5a4b97a5256f69755525b71c926a84",
      "version": 1,
      "size": 134,
      "vsize": 134,
      "weight": 536,
      "locktime": 0,
      "vin": [
        {
          "coinbase": "04ffff001d013f",
          "sequence": 4294967295
        }
      ],
      "vout": [
        {
          "value": 50.0,
          "n": 0,
          "scriptPubKey": {
            "asm": "04a0f9ba6db7a5bd543229afbc5da33c2a9df6f0bdacfb48da984afaf0c03fc28b11de5fdf77fbd7c43dcf369e6b3c5b14d41fb832a416a93d04dc7397c9abd55d OP_CHECKSIG",
            "desc": "pk(04a0f9ba6db7a5bd543229afbc5da33c2a9df6f0bdacfb48da984afaf0c03fc28b11de5fdf77fbd7c43dcf369e6b3c5b14d41fb832a416a93d04dc7397c9abd55d)#ffscpcd5",
            "hex": "4104a0f9ba6db7a5bd543229afbc5da33c2a9df6f0bdacfb48da984afaf0c03fc28b11de5fdf77fbd7c43dcf369e6b3c5b14d41fb832a416a93d04dc7397c9abd55dac",
            "type": "pubkey"
          }
        }
      ],
      "hex": "01000000010000000000000000000000000000000000000000000000000000000000000000ffffffff0704ffff001d013fffffffff0100f2052a01000000434104a0f9ba6db7a5bd543229afbc5da33c2a9df6f0bdacfb48da984afaf0c03fc28b11de5fdf77fbd7c43dcf369e6b3c5b14d41fb832a416a93d04dc7397c9abd55dac00000000"
    }
  ]
}