{
  "hash": "000000000a20cbe365611f74cd93f91ad2f037b465cd67bb09ba1a43fbdfc278",
  "confirmations": 51600,
  "height": 1498,
  "version": 1,
  "versionHex": "00000001",
  "merkleroot": "33981fcae484e9a19f9dde1eedf8bb933ea00b64f6f8804f7c0b2e6d74139a18",
  "time": 1232767188,
  "mediantime": 1232764687,
  "nonce": 1569994030,
  "bits": "1d00ffff",
  "difficulty": 1,
  "chainwork": "000000000000000000000000000000000000000000000000000005db05db05db",
  "nTx": 1,
  "previousblockhash": "000000002a656240dcd2cbbf5bd9d1ac87b6c7a513577852b048f1f412008d21",
  "nextblockhash": "0000000067998d09c2a310314ea12cbfc7e528d60a6bdc2e0907ae3b9482855c",
  "strippedsize": 216,
  "size": 216,
  "weight": 864,
  "tx": [
    {
      "txid": "33981fcae484e9a19f9dde1eedf8bb933ea00b64f6f8804f7c0b2e6d74139a18",
      "hash": "33981fcae484e9a19f9dde1eedf8bb933ea00b64f6f8804f7c0b2e6d74139a18",
      "version": 1,
      "size": 135,
      "vsize": 135,
      "weight": 540,
      "locktime": 0,
      "vin": [
        {
          "coinbase": "04ffff001d022e01",
          "sequence": 4294967295
        }
      ],
      "vout": [
        {
          "value": 50.0,
          "n": 0,
          "scriptPubKey": {
            "asm": "0479381a099383e44fca7fff612803abbb0d05e5a5c7502ef89126bd19ce371576bb1fc188e23e8f1662a4974e5b57c8a6b0ea4a8b3686f2123cc6e494bbedcba7 OP_CHECKSIG",
            "desc": "pk(0479381a099383e44fca7fff612803abbb0d05e5a5c7502ef89126bd19ce371576bb1fc188e23e8f1662a4974e5b57c8a6b0ea4a8b3686f2123cc6e494bbedcba7)#vwj3mwc7",
            "hex": "410479381a099383e44fca7fff612803abbb0d05e5a5c7502ef89126bd19ce371576bb1fc188e23e8f1662a4974e5b57c8a6b0ea4a8b3686f2123cc6e494bbedcba7ac",
            "type": "pubkey"
          }
        }
      ],
      "hex": "01000000010000000000000000000000000000000000000000000000000000000000000000ffffffff0804ffff001d022e01ffffffff0100f2052a0100000043410479381a099383e44fca7fff612803abbb0d05e5a5c7502ef89126bd19ce371576bb1fc188e23e8f1662a4974e5b57c8a6b0ea4a8b3686f2123cc6e494bbedcba7ac00000000"
    }
  ]
}