{
  "hash": "00000000835466b0506cbbb587999ef0db2ff3ae9cdb3f0a3142341742754afe",
  "confirmations": 50868,
  "height": 2230,
  "version": 1,
  "versionHex": "00000001",
  "merkleroot": "4c735c9615c85b761d161186ca5eb89e27a5bd72c5fb72979abcab69524658de",
  "time": 1233235063,
  "mediantime": 1233230467,
  "nonce": 60922800,
  "bits": "1d00ffff",
  "difficulty": 1,
  "chainwork": "000000000000000000000000000000000000000000000000000008b708b708b7",
  "nTx": 1,
  "previousblockhash": "00000000bc61525dc9c80efe32f801de1b83082e2fd5bde14c6d7d376ed27e74",
  "nextblockhash": "000000006f580cb6ad9ae4f8087512620a575862772c5690e4e2e4587cc7d0b8",
  "strippedsize": 216,
  "size": 216,
  "weight": 864,
  "tx": [
    {
      "txid": "4c735c9615c85b761d161186ca5eb89e27a5bd72c5fb72979abcab69524658de",
      "hash": "4c735c9615c85b761d161186ca5eb89e27a5bd72c5fb72979abcab69524658de",
      "version": 1,
      "size": 135,
      "vsize": 135,
      "weight": 540,
      "locktime": 0,
      "vin": [
        {
          "coinbase": "04ffff001d02b500",
          "sequence": 4294967295
        }
      ],
      "vout": [
        {
          "value": 50.0,
          "n": 0,
          "scriptPubKey": {
            "asm": "046a11c1fa2a418a2eacbfb0634d74d2262db0386fc4f75a76e4fd97a73977eb976b2d784fd54222ebe892f07d7997803e3564b50b5e8a266dc1eb97256abff7d9 OP_CHECKSIG",
            "desc": "pk(046a11c1fa2a418a2eacbfb0634d74d2262db0386fc4f75a76e4fd97a73977eb976b2d784fd54222ebe892f07d7997803e3564b50b5e8a266dc1eb97256abff7d9)#a9eerj2f",
            "hex": "41046a11c1fa2a418a2eacbfb0634d74d2262db0386fc4f75a76e4fd97a73977eb976b2d784fd54222ebe892f07d7997803e3564b50b5e8a266dc1eb97256abff7d9ac",
            "type": "pubkey"
          }
        }
      ],
      "hex": "01000000010000000000000000000000000000000000000000000000000000000000000000ffffffff0804ffff001d02b500ffffffff0100f2052a010000004341046a11c1fa2a418a2eacbfb0634d74d2262db0386fc4f75a76e4fd97a73977eb976b2d784fd54222ebe892f07d7997803e3564b50b5e8a266dc1eb97256abff7d9ac00000000"
    }
  ]
}