{
  "hash": "00000000b532e7eb8df7df568a936746a2a703cbe5833eb51681fbdf18e07835",
  "confirmations": 47868,
  "height": 5230,
  "version": 1,
  "versionHex": "00000001",
  "merkleroot": "b35a41c2e601168f7947115f33a85233039b06f8d8031e4749bd2e67076fba45",
  "time": 1235309396,
  "mediantime": 1235305236,
  "nonce": 2102793,
  "bits": "1d00ffff",
  "difficulty": 1,
  "chainwork": "0000000000000000000000000000000000000000000000000000146f146f146f",
  "nTx": 1,
  "previousblockhash": "00000000fd46082d454dfaaec6d33608e0d5ab5e23d9312be6f354071752b9a1",
  "nextblockhash": "0000000066cd621d6aa86ea4b5b12113ca53ebf73906a63e0fba0dcf14b94f31",
  "strippedsize": 216,
  "size": 216,
  "weight": 864,
  "tx": [
    {
      "txid": "b35a41c2e601168f7947115f33a85233039b06f8d8031e4749bd2e67076fba45",
      "hash": "b35a41c2e601168f7947115f33a85233039b06f8d8031e4749bd2e67076fba45",
      "version": 1,
      "size": 135,
      "vsize": 135,
      "weight": 540,
      "locktime": 0,
      "vin": [
        {
          "coinbase": "04ffff001d02ed00",
          "sequence": 4294967295
        }
      ],
      "vout": [
        {
          "value": 50.0,
          "n": 0,
          "scriptPubKey": {
            "asm": "04362f05dacb16d7ca7b7c31adba5ba9da523d3c7662180755fe7e77c0acdf71a0b5a1b8dc3bed58f3819aad97595a40527c161dff2de8f615e83fd8bc03d22b3e OP_CHECKSIG",
            "desc": "pk(04362f05dacb16d7ca7b7c31adba5ba9da523d3c7662180755fe7e77c0acdf71a0b5a1b8dc3bed58f3819aad97595a40527c161dff2de8f615e83fd8bc03d22b3e)#tqcyzhu6",
            "hex": "4104362f05dacb16d7ca7b7c31adba5ba9da523d3c7662180755fe7e77c0acdf71a0b5a1b8dc3bed58f3819aad97595a40527c161dff2de8f615e83fd8bc03d22b3eac",
            "type": "pubkey"
          }
        }
      ],
      "hex": "01000000010000000000000000000000000000000000000000000000000000000000000000ffffffff0804ffff001d02ed00ffffffff0100f2052a01000000434104362f05dacb16d7ca7b7c31adba5ba9da523d3c7662180755fe7e77c0acdf71a0b5a1b8dc3bed58f3819aad97595a40527c161dff2de8f615e83fd8bc03d22b3eac00000000"
    }
  ]
}