{
  "hash": "000000002857c59b016b62d443c6cbfa1ec93ec5e9c43e4b3e9d045b1ecd1614",
  "confirmations": 48558,
  "height": 4540,
  "version": 1,
  "versionHex": "00000001",
  "merkleroot": "affb8d9ec7ff2b2e5d8982f918e326098738cda441eda7914f00b0f5b1ccc28b",
  "time": 1234810654,
  "mediantime": 1234807418,
  "nonce": 4274006062,
  "bits": "1d00ffff",
  "difficulty": 1,
  "chainwork": "000000000000000000000000000000000000000000000000000011bd11bd11bd",
  "nTx": 2,
  "previousblockhash": "00000000aa98057e1058184e52bb9a472ae4e5ea2be1d64cf9cca6dbd6b853c5",
  "nextblockhash": "00000000baf6f42ad3a8ea7663b104f3965918f0a50671d99a90094afbbb1f38",
  "strippedsize": 3679,
  "size": 3679,
  "weight": 14716,
  "tx": [
    {
      "txid": "badf07579e3159374eaf78bfe67639832f5c8d4ab632fdcf6dd343fcf0917143",
      "hash": "badf07579e3159374eaf78bfe67639832f5c8d4ab632fdcf6dd343fcf0917143",
      "version": 1,
      "size": 135,
      "vsize": 135,
      "weight": 540,
      "locktime": 0,
      "vin": [
        {
          "coinbase": "04ffff001d027003",
          "sequence": 4294967295
        }
      ],
      "vout": [
        {
          "value": 50.0,
          "n": 0,
          "scriptPubKey": {
            "asm": "04545728f4667637341af6b9a166c7e140161ce543756c61f341d0d8e23aed4c459250cad9f2d283d3d72d1a8c6d4130cb3f0b7f4ddb6487259939012896ec5dfd OP_CHECKSIG",
            "desc": "pk(04545728f4667637341af6b9a166c7e140161ce543756c61f341d0d8e23aed4c459250cad9f2d283d3d72d1a8c6d4130cb3f0b7f4ddb6487259939012896ec5dfd)#tuj0c6qm",
            "hex": "4104545728f4667637341af6b9a166c7e140161ce543756c61f341d0d8e23aed4c459250cad9f2d283d3d72d1a8c6d4130cb3f0b7f4ddb6487259939012896ec5dfdac",
            "type": "pubkey"
          }
        }
      ],
      "hex": "01000000010000000000000000000000000000000000000000000000000000000000000000ffffffff0804ffff001d027003ffffffff0100f2052a01000000434104545728f4667637341af6b9a166c7e140161ce543756c61f341d0d8e23aed4c459250cad9f2d283d3d72d1a8c6d4130cb3f0b7f4ddb6487259939012896ec5dfdac00000000"
    },
    {
      "txid": "c1c590ef9400b8dc52335328eaf59844ab98b953ab60c57ea3612bd893208bf4",
      "hash": "c1c590ef9400b8dc52335328eaf59844ab98b953ab60c57ea3612bd893208bf4",
      "version": 1,
      "size": 3463,
      "vsize": 3463,
      "weight": 13852,
      "locktime": 0,
      "vin": [
        {
          "txid": "1e6ad819db9fdaa21686b6f674c96734dc84bce77cb2b4b5b1b21aae06404b0d",
          "vout": 0,
          "scriptSig": {
            "asm": "3045022100cafe9b15c0c285458edb43886fe65e14c9972efea44f344a25e2e781255bb5bb022020f716904fa8a6be0335d34dc877cf4a7730601711dfa6dc82b995662d68d3cd[ALL]",
            "hex": "483045022100cafe9b15c0c285458edb43886fe65e14c9972efea44f344a25e2e781255bb5bb022020f716904fa8a6be0335d34dc877cf4a7730601711dfa6dc82b995662d68d3cd01"
          },
          "sequence": 4294967295
        },
        {
          "txid": "c912d0cf6793634f738bbde3180d3618f4552d474a627a3aaa59e368ab9f0166",
          "vout": 0,
          "scriptSig": {
            "asm": "3045022100fea5cc7793e63e3f6850e2ee70343fb2cdbeb2ad8e0d9644ebbd1989dac19787022008c8ef1aa3db785d5ffe4c2891c8b33045cb671baa179d8c022723ab59e9aa35[ALL]",
            "hex": "483045022100fea5cc7793e63e3f6850e2ee70343fb2cdbeb2ad8e0d9644ebbd1989dac19787022008c8ef1aa3db785d5ffe4c2891c8b33045cb671baa179d8c022723ab59e9aa3501"
          },
          "sequence": 4294967295
        },
        {
          "txid": "26e100c87b1f7041f52b1510843080136400e7124fc75ea7fab53640fe41df67",
          "vout": 0,
          "scriptSig": {
            "asm": "3044022015deeca9e6ccff9d2050b4560237e6e3fa32a95c0e70c3ab223789b3b45d0da402206afc36c41917ea7b3878f8a1998efbc644d8fbc2844e2a640d6d6719da37afe1[ALL]",
            "hex": "473044022015deeca9e6ccff9d2050b4560237e6e3fa32a95c0e70c3ab223789b3b45d0da402206afc36c41917ea7b3878f8a1998efbc644d8fbc2844e2a640d6d6719da37afe101"
          },
          "sequence": 4294967295
        },
        {
          "txid": "a826201b0ae7d818a653d423015acff7ab97012928e9743dac1aff5ef6722943",
          "vout": 0,
          "scriptSig": {
            "asm": "304402204b0f613cb20ebf2951a8ea705509fe354f93a8658786b11223b90f98e4fc944502202dcdb97fa8d6012e34ec31eba80b43cd1e7878de9d43f7d9e1f36e6bec6d8a4a[ALL]",
            "hex": "47304402204b0f613cb20ebf2951a8ea705509fe354f93a8658786b11223b90f98e4fc944502202dcdb97fa8d6012e34ec31eba80b43cd1e7878de9d43f7d9e1f36e6bec6d8a4a01"
          },
          "sequence": 4294967295
        },
        {
          "txid": "06fd12019a155d0478244a3bcd0894e2f56879934ef334866bfb28a20404f050",
          "vout": 0,
          "scriptSig": {
            "asm": "3045022066db51ee4b25aae5be1e842e15a737b8d92cfe4cd626d84040f4e9ccbdba04b9022100e6d3deccb82adf6f4dcc2c639bae4d1c48dd490a1146c7e2a1ba5545957855ef[ALL]",
            "hex": "483045022066db51ee4b25aae5be1e842e15a737b8d92cfe4cd626d84040f4e9ccbdba04b9022100e6d3deccb82adf6f4dcc2c639bae4d1c48dd490a1146c7e2a1ba5545957855ef01"
          },
          "sequence": 4294967295
        },
        {
          "txid": "2655d62c10476bac986d88b9a730eee227c033dfae1966138792eb58415f300d",
          "vout": 0,
          "scriptSig": {
            "asm": "3046022100d611a138a96354b33ed39033b11a3cf395e0c2e51aa0bae70b899b31c3f54061022100bbf3af9dd1bb179ca791325725d47b0f4ef7fee8f8d391b06ede8f0c68c658e1[ALL]",
            "hex": "493046022100d611a138a96354b33ed39033b11a3cf395e0c2e51aa0bae70b899b31c3f54061022100bbf3af9dd1bb179ca791325725d47b0f4ef7fee8f8d391b06ede8f0c68c658e101"
          },
          "sequence": 4294967295
        },
        {
          "txid": "83afaad699ba1f9673dd1c60730b2b3009b622295f4554fca60c01f7382ae2c7",
          "vout": 0,
          "scriptSig": {
            "asm": "3045022100f0e96ddee46b845847d452991b3f6de7c424b56e3745244bf4a97720a261a1b8022027d65e44241f6675e66f3949ac373d60a0f1da4bddfff3af63cbf2f3acf9cf9c[ALL]",
            "hex": "483045022100f0e96ddee46b845847d452991b3f6de7c424b56e3745244bf4a97720a261a1b8022027d65e44241f6675e66f3949ac373d60a0f1da4bddfff3af63cbf2f3acf9cf9c01"
          },
          "sequence": 4294967295
        },
        {
          "txid": "3546af29cd35bfe5dbf6c90ee42f3aded6e5b71a9a12b8bf600c7d9c871803e7",
          "vout": 0,
          "scriptSig": {
            "asm": "3045022058cf3d14a18c050634e2d4b21f2d806f9a394468be7b47964083432737471292022100edc0f3e19a61879d8891d5a6f9560cf1603eb15dee0ea0f79bb4e1f44a2107d6[ALL]",
            "hex": "483045022058cf3d14a18c050634e2d4b21f2d806f9a394468be7b47964083432737471292022100edc0f3e19a61879d8891d5a6f9560cf1603eb15dee0ea0f79bb4e1f44a2107d601"
          },
          "sequence": 4294967295
        },
        {
          "txid": "31fff7f699d812e159fa9bf9534ef240f5b17f014632e91fdea99c8c31d2955b",
          "vout": 0,
          "scriptSig": {
            "asm": "3045022100d31baa243f7311391ceb09911fbe282709c92580fb9420cccceb05fbebc57d7e02206adc032ffdc0d5cdb615ab5d5eadb85fa4826208f83162477eb370e7109cadb2[ALL]",
            "hex": "483045022100d31baa243f7311391ceb09911fbe282709c92580fb9420cccceb05fbebc57d7e02206adc032ffdc0d5cdb615ab5d5eadb85fa4826208f83162477eb370e7109cadb201"
          },
          "sequence": 4294967295
        },
        {
          "txid": "037e011317d19ee78a2515cca375fbc7f8d6632e368c5d4869b874846b491c99",
          "vout": 0,
          "scriptSig": {
            "asm": "30440220468d72d30ac5fd4a75612e3fa2ee282e944a31227da77892c1a93709ee8e108a022016979b8be7a9ce7ba8384b21d1db9c79520f4673d9b3441ef443415ec401d872[ALL]",
            "hex": "4730440220468d72d30ac5fd4a75612e3fa2ee282e944a31227da77892c1a93709ee8e108a022016979b8be7a9ce7ba8384b21d1db9c79520f4673d9b3441ef443415ec401d87201"
          },
          "sequence": 4294967295
        },
        {
          "txid": "bde81c59896524d72871b898bacfbbefa66269b94dd04d174e581381f99de623",
          "vout": 0,
          "scriptSig": {
            "asm": "304502206f2b4a4dff1e092ce0252377a7cd09c39e53f48bb305b82dd4c42b0a0cbddfb1022100d3208bfb62ce7e727f6a25283dabf201c26562504b302aa5a718c4257a0a52e5[ALL]",
            "hex": "48304502206f2b4a4dff1e092ce0252377a7cd09c39e53f48bb305b82dd4c42b0a0cbddfb1022100d3208bfb62ce7e727f6a25283dabf201c26562504b302aa5a718c4257a0a52e501"
          },
          "sequence": 4294967295
        },
        {
          "txid": "88a04d28976882b8db9007bb0f169aeb6d02901dbf855b95eb31f0eadad0e179",
          "vout": 0,
          "scriptSig": {
            "asm": "304402204dbb8ec64ff461a41b41e6f9f0b91877f3d61efe685ee95b79968bb7eedd3fe002205be5982a8948899e974f8aa4085d9ec150f6c33d2e69266ecdc14bb6bc608b5c[ALL]",
            "hex": "47304402204dbb8ec64ff461a41b41e6f9f0b91877f3d61efe685ee95b79968bb7eedd3fe002205be5982a8948899e974f8aa4085d9ec150f6c33d2e69266ecdc14bb6bc608b5c01"
          },
          "sequence": 4294967295
        },
        {
          "txid": "fa2458fe8d3e68734fe23d753431e00e395f25331d40ce72c0940047389c83da",
          "vout": 0,
          "scriptSig": {
            "asm": "3046022100e79f5354dd003f3d281db76ed9699f65092f5754b4c762cdf6c93b4051201e680221008ce92165d92e04cf35a4806365a043c875cb7149278ba6b7f4fd4cd126c8d8ce[ALL]",
            "hex": "493046022100e79f5354dd003f3d281db76ed9699f65092f5754b4c762cdf6c93b4051201e680221008ce92165d92e04cf35a4806365a043c875cb7149278ba6b7f4fd4cd126c8d8ce01"
          },
          "sequence": 4294967295
        },
        {
          "txid": "49a9ddc866179b0ef7448497d552df2b46e1b8d536c6c29ac7a76b318592ac2e",
          "vout": 0,
          "scriptSig": {
            "asm": "30450220358d04e0c10587026536a5bbf0c893757862f1a0f4e777eb49802b63d6564bc6022100e405bb1361d86c86745f8a4c46d27d8454a48334bdae908013296910da4bca7b[ALL]",
            "hex": "4830450220358d04e0c10587026536a5bbf0c893757862f1a0f4e777eb49802b63d6564bc6022100e405bb1361d86c86745f8a4c46d27d8454a48334bdae908013296910da4bca7b01"
          },
          "sequence": 4294967295
        },
        {
          "txid": "9ff42698cafd4a19e02a850e55c235dd6ebbe4104dc721b83b2d08bcd65e7bc5",
          "vout": 0,
          "scriptSig": {
            "asm": "3046022100a7e4666c6f2e7edfe880b61170c0e98686ce560236c9f94de077c499a6166488022100d922c5fff067e630beae86a6e0218725af8461b2a4d969fa2584271bb7e167a2[ALL]",
            "hex": "493046022100a7e4666c6f2e7edfe880b61170c0e98686ce560236c9f94de077c499a6166488022100d922c5fff067e630beae86a6e0218725af8461b2a4d969fa2584271bb7e167a201"
          },
          "sequence": 4294967295
        },
        {
          "txid": "79caa33c1fe4c924fc1b8e2b68ebb72b5cffac6af2aedcfe18e2b36d1bcfb0dc",
          "vout": 0,
          "scriptSig": {
            "asm": "304402201e1dc4875052354188c3fefd92754204988a1288f5d9763386fb6cfc4d6dc7db02207eb3f58ac1fd28dbbc727cf6c0d93d1800ffc3309066ac28b8bc8ec9dc447501[ALL]",
            "hex": "47304402201e1dc4875052354188c3fefd92754204988a1288f5d9763386fb6cfc4d6dc7db02207eb3f58ac1fd28dbbc727cf6c0d93d1800ffc3309066ac28b8bc8ec9dc44750101"
          },
          "sequence": 4294967295
        },
        {
          "txid": "72c2668f3bb23f2d820c18fa8b54064082417d04902fae423dc0814b8341a734",
          "vout": 0,
          "scriptSig": {
            "asm": "30440220763860db0c4faf3c45920b9ba827cdea1a0640d244c72daa7916fb6f74e272080220689491f3334fad99f8f5800bb391bad395ded9aca06640dc1149fb3e8b610d17[ALL]",
            "hex": "4730440220763860db0c4faf3c45920b9ba827cdea1a0640d244c72daa7916fb6f74e272080220689491f3334fad99f8f5800bb391bad395ded9aca06640dc1149fb3e8b610d1701"
          },
          "sequence": 4294967295
        },
        {
          "txid": "fcc793d0b2c00fe60adec13827d57528260356c3f2dfad88d0f3323d05bfe2fc",
          "vout": 0,
          "scriptSig": {
            "asm": "304602210096a82b8b2c5131df391e709dba2b2bab7ee5b1c472a87827b462598d618bc404022100d0618ea637a2602f27937959cb88dda2a7bf803fe09d000e9dea8ca04b05fab9[ALL]",
            "hex": "49304602210096a82b8b2c5131df391e709dba2b2bab7ee5b1c472a87827b462598d618bc404022100d0618ea637a2602f27937959cb88dda2a7bf803fe09d000e9dea8ca04b05fab901"
          },
          "sequence": 4294967295
        },
        {
          "txid": "97efc29a694f67808cf0f996488d183c565779cc3bb9b1f70a8f3c7ecb4d78f3",
          "vout": 0,
          "scriptSig": {
            "asm": "3045022100c5926f3539d1e2587653839e6b05d91c278929f6133433a04b33e0009809a5a902206c910d82ad7e2d7b12eb86ac037fa4c065006f6678af6e6672dc2adc3ea4b903[ALL]",
            "hex": "483045022100c5926f3539d1e2587653839e6b05d91c278929f6133433a04b33e0009809a5a902206c910d82ad7e2d7b12eb86ac037fa4c065006f6678af6e6672dc2adc3ea4b90301"
          },
          "sequence": 4294967295
        },
        {
          "txid": "1fc1ffb8b1dcbb78f7559e8546368e2bf91dd6731078af3c6116d93a57363487",
          "vout": 0,
          "scriptSig": {
            "asm": "3045022100ce075fbe71d422d0555e852835d96d80a60268c8d364050e449e31412e3d8bea022027fb2475635b5886ab33a014d1f99f8d5b000d63825c1be9d5c4260f9637bef0[ALL]",
            "hex": "483045022100ce075fbe71d422d0555e852835d96d80a60268c8d364050e449e31412e3d8bea022027fb2475635b5886ab33a014d1f99f8d5b000d63825c1be9d5c4260f9637bef001"
          },
          "sequence": 4294967295
        },
        {
          "txid": "14bbe05bca61e87e543bea76c698c545feb6e668ae5614d7a8f87a373f62683f",
          "vout": 0,
          "scriptSig": {
            "asm": "304502202cb2eea1981e4b463e2d0bbd7330b6f62ff4adf1cc1946af91dc14a6e86154c7022100e2e3d3c8398e9cff8895a1e7cbb0efab84d40a8f0d8594f873ad609800129fb2[ALL]",
            "hex": "48304502202cb2eea1981e4b463e2d0bbd7330b6f62ff4adf1cc1946af91dc14a6e86154c7022100e2e3d3c8398e9cff8895a1e7cbb0efab84d40a8f0d8594f873ad609800129fb201"
          },
          "sequence": 4294967295
        },
        {
          "txid": "89ee20a34c2f7de6e8d66845b30f7df011995a3c52eeb0081bbf24d6db778d54",
          "vout": 0,
          "scriptSig": {
            "asm": "304402203b59a8b1a9afc776b6f7d36319a1faceac268632af1c038fdf35cb987bc4b8d602205c1f29c4deb25d65706d62bd577761dd5d6e0cf1385d50242cb0372dee7b4c05[ALL]",
            "hex": "47304402203b59a8b1a9afc776b6f7d36319a1faceac268632af1c038fdf35cb987bc4b8d602205c1f29c4deb25d65706d62bd577761dd5d6e0cf1385d50242cb0372dee7b4c0501"
          },
          "sequence": 4294967295
        },
        {
          "txid": "c5d1b04b047caf3735b9d3fc561babfd9c78682ec4c88802aa14ce497cc115d6",
          "vout": 0,
          "scriptSig": {
            "asm": "3046022100d550d7bb23e9fb21bfde6c46c5b6aaa81aeb93dbe8257e6c55d0b854831f201e022100c80c6280a0c1fcf6c9d43e58df1064183c14b03d0586ad3ba74dc9ed5e416807[ALL]",
            "hex": "493046022100d550d7bb23e9fb21bfde6c46c5b6aaa81aeb93dbe8257e6c55d0b854831f201e022100c80c6280a0c1fcf6c9d43e58df1064183c14b03d0586ad3ba74dc9ed5e41680701"
          },
          "sequence": 4294967295
        },
        {
          "txid": "4402a830e355634e0f52c5bfded91f386cc08930a692c46e56eb6ac431d009f5",
          "vout": 0,
          "scriptSig": {
            "asm": "30460221008d4e82946fa2d85aa86d0dff8dce6aeadf429ef6648db0102bbe3e89f43a5f81022100ae73db1c14b7c490012df492e0a052c260baa81b18d6309df6e934e09e1eeeba[ALL]",
            "hex": "4930460221008d4e82946fa2d85aa86d0dff8dce6aeadf429ef6648db0102bbe3e89f43a5f81022100ae73db1c14b7c490012df492e0a052c260baa81b18d6309df6e934e09e1eeeba01"
          },
          "sequence": 4294967295
        },
        {
          "txid": "bc9660bedce89fe506c0d77578b8348f57e0b014a70de24b2e24016bc2648a85",
          "vout": 0,
          "scriptSig": {
            "asm": "30450221009c3dfc0da81f087e7e9de0e6960aeaa88d16de6e19663646ed04fd39232857a2022044eb1b40a24346c4a9d18c8097cd2cb4eb0bc9ae3a6230df4e20a2ca93dcaf4d[ALL]",
            "hex": "4830450221009c3dfc0da81f087e7e9de0e6960aeaa88d16de6e19663646ed04fd39232857a2022044eb1b40a24346c4a9d18c8097cd2cb4eb0bc9ae3a6230df4e20a2ca93dcaf4d01"
          },
          "sequence": 4294967295
        },
        {
          "txid": "868979f72b403f0e70c8182847bf2c9ab692cef1b2dcb3f890a1b017aad20f4c",
          "vout": 0,
          "scriptSig": {
            "asm": "3044022028cfceed79167ef70b945f63844c187700c982ee04b2c64083495fe5a6334b24022069b12b0ee765884e345392a622c440989e22a26ef3c21d4d63305ed5d1adfad9[ALL]",
            "hex": "473044022028cfceed79167ef70b945f63844c187700c982ee04b2c64083495fe5a6334b24022069b12b0ee765884e345392a622c440989e22a26ef3c21d4d63305ed5d1adfad901"
          },
          "sequence": 4294967295
        },
        {
          "txid": "2712e84fa324ef17c03a8690dd9dc2a73106e8ba05d5e5f49f40d4a880a9de7d",
          "vout": 0,
          "scriptSig": {
            "asm": "3046022100faed8bf4191f040e90abd7481c11bb80bae4a9790cf2ba365504422bb1c1c2d7022100c882c11cad4e5d35160317c54eee5c330c4c24057d6cd66520a60921339bd1a3[ALL]",
            "hex": "493046022100faed8bf4191f040e90abd7481c11bb80bae4a9790cf2ba365504422bb1c1c2d7022100c882c11cad4e5d35160317c54eee5c330c4c24057d6cd66520a60921339bd1a301"
          },
          "sequence": 4294967295
        },
        {
          "txid": "587d3aabed6d515dbd35a35c2c5bff6506204b3180373fd4d918df3479a75963",
          "vout": 0,
          "scriptSig": {
            "asm": "304502206551c8dec7d5d44190ec17ee408f2199bf468bab84a43c191a428f4e00775e8f02210093c1282040d6c333e21550fb6f899cf173a0f5f4bc7f610ba5b90377111744e8[ALL]",
            "hex": "48304502206551c8dec7d5d44190ec17ee408f2199bf468bab84a43c191a428f4e00775e8f02210093c1282040d6c333e21550fb6f899cf173a0f5f4bc7f610ba5b90377111744e801"
          },
          "sequence": 4294967295
        },
        {
          "txid": "da3d3bb99be8bf45c4d9398372fc209901fee4ae15b2082b44f3b907b6cb62ff",
          "vout": 0,
          "scriptSig": {
            "asm": "30460221008dff491c0841bc40657feaab5d69838a4a1a39ab94f8c8034b07d7ff7ca9ea54022100c399785e032bde2efc1eab30afff7f0f11dee3beeec04dbab8b64804957ddb17[ALL]",
            "hex": "4930460221008dff491c0841bc40657feaab5d69838a4a1a39ab94f8c8034b07d7ff7ca9ea54022100c399785e032bde2efc1eab30afff7f0f11dee3beeec04dbab8b64804957ddb1701"
          },
          "sequence": 4294967295
        },
        {
          "txid": "64c3f2c6b547d82972b4cfd6bbc9a705bd104c6da9967977299b95f214ad28aa",
          "vout": 0,
          "scriptSig": {
            "asm": "3044022035223cb20b30e014d8d0be69b5e7c9920bbaebfdd56573f5614233bd25039f1e02200ead73f4b5e39b7ec704db3cf2c43afd23c2070774253955c3c03910ea3667a5[ALL]",
            "hex": "473044022035223cb20b30e014d8d0be69b5e7c9920bbaebfdd56573f5614233bd25039f1e02200ead73f4b5e39b7ec704db3cf2c43afd23c2070774253955c3c03910ea3667a501"
          },
          "sequence": 4294967295
        }
      ],
      "vout": [
        {
          "value": 1500.0,
          "n": 0,
          "scriptPubKey": {
            "asm": "OP_DUP OP_HASH160 12ab8dc588ca9d5787dde7eb29569da63c3a238c OP_EQUALVERIFY OP_CHECKSIG",
            "desc": "addr(12higDjoCCNXSA95xZMWUdPvXNmkAduhWv)#zn56zju2",
            "hex": "76a91412ab8dc588ca9d5787dde7eb29569da63c3a238c88ac",
            "address": "12higDjoCCNXSA95xZMWUdPvXNmkAduhWv",
            "type": "pubkeyhash"
          }
        }
      ],
      "fee": 0.0,
      "hex": "010000001e0d4b4006ae1ab2b1b5b4b27ce7bc84dc3467c974f6b68616a2da9fdb19d86a1e0000000049483045022100cafe9b15c0c285458edb43886fe65e14c9972efea44f344a25e2e781255bb5bb022020f716904fa8a6be0335d34dc877cf4a7730601711dfa6dc82b995662d68d3cd01ffffffff66019fab68e359aa3a7a624a472d55f418360d18e3bd8b734f639367cfd012c90000000049483045022100fea5cc7793e63e3f6850e2ee70343fb2cdbeb2ad8e0d9644ebbd1989dac19787022008c8ef1aa3db785d5ffe4c2891c8b33045cb671baa179d8c022723ab59e9aa3501ffffffff67df41fe4036b5faa75ec74f12e700641380308410152bf541701f7bc800e1260000000048473044022015deeca9e6ccff9d2050b4560237e6e3fa32a95c0e70c3ab223789b3b45d0da402206afc36c41917ea7b3878f8a1998efbc644d8fbc2844e2a640d6d6719da37afe101ffffffff432972f65eff1aac3d74e928290197abf7cf5a0123d453a618d8e70a1b2026a8000000004847304402204b0f613cb20ebf2951a8ea705509fe354f93a8658786b11223b90f98e4fc944502202dcdb97fa8d6012e34ec31eba80b43cd1e7878de9d43f7d9e1f36e6bec6d8a4a01ffffffff50f00404a228fb6b8634f34e937968f5e29408cd3b4a2478045d159a0112fd060000000049483045022066db51ee4b25aae5be1e842e15a737b8d92cfe4cd626d84040f4e9ccbdba04b9022100e6d3deccb82adf6f4dcc2c639bae4d1c48dd490a1146c7e2a1ba5545957855ef01ffffffff0d305f4158eb9287136619aedf33c027e2ee30a7b9886d98ac6b47102cd65526000000004a493046022100d611a138a96354b33ed39033b11a3cf395e0c2e51aa0bae70b899b31c3f54061022100bbf3af9dd1bb179ca791325725d47b0f4ef7fee8f8d391b06ede8f0c68c658e101ffffffffc7e22a38f7010ca6fc54455f2922b609302b0b73601cdd73961fba99d6aaaf830000000049483045022100f0e96ddee46b845847d452991b3f6de7c424b56e3745244bf4a97720a261a1b8022027d65e44241f6675e66f3949ac373d60a0f1da4bddfff3af63cbf2f3acf9cf9c01ffffffffe70318879c7d0c60bfb8129a1ab7e5d6de3a2fe40ec9f6dbe5bf35cd29af46350000000049483045022058cf3d14a18c050634e2d4b21f2d806f9a394468be7b47964083432737471292022100edc0f3e19a61879d8891d5a6f9560cf1603eb15dee0ea0f79bb4e1f44a2107d601ffffffff5b95d2318c9ca9de1fe93246017fb1f540f24e53f99bfa59e112d899f6f7ff310000000049483045022100d31baa243f7311391ceb09911fbe282709c92580fb9420cccceb05fbebc57d7e02206adc032ffdc0d5cdb615ab5d5eadb85fa4826208f83162477eb370e7109cadb201ffffffff991c496b8474b869485d8c362e63d6f8c7fb75a3cc15258ae79ed11713017e0300000000484730440220468d72d30ac5fd4a75612e3fa2ee282e944a31227da77892c1a93709ee8e108a022016979b8be7a9ce7ba8384b21d1db9c79520f4673d9b3441ef443415ec401d87201ffffffff23e69df98113584e174dd04db96962a6efbbcfba98b87128d7246589591ce8bd000000004948304502206f2b4a4dff1e092ce0252377a7cd09c39e53f48bb305b82dd4c42b0a0cbddfb1022100d3208bfb62ce7e727f6a25283dabf201c26562504b302aa5a718c4257a0a52e501ffffffff79e1d0daeaf031eb955b85bf1d90026deb9a160fbb0790dbb8826897284da088000000004847304402204dbb8ec64ff461a41b41e6f9f0b91877f3d61efe685ee95b79968bb7eedd3fe002205be5982a8948899e974f8aa4085d9ec150f6c33d2e69266ecdc14bb6bc608b5c01ffffffffda839c38470094c072ce401d33255f390ee03134753de24f73683e8dfe5824fa000000004a493046022100e79f5354dd003f3d281db76ed9699f65092f5754b4c762cdf6c93b4051201e680221008ce92165d92e04cf35a4806365a043c875cb7149278ba6b7f4fd4cd126c8d8ce01ffffffff2eac9285316ba7c79ac2c636d5b8e1462bdf52d5978444f70e9b1766c8dda94900000000494830450220358d04e0c10587026536a5bbf0c893757862f1a0f4e777eb49802b63d6564bc6022100e405bb1361d86c86745f8a4c46d27d8454a48334bdae908013296910da4bca7b01ffffffffc57b5ed6bc082d3bb821c74d10e4bb6edd35c2550e852ae0194afdca9826f49f000000004a493046022100a7e4666c6f2e7edfe880b61170c0e98686ce560236c9f94de077c499a6166488022100d922c5fff067e630beae86a6e0218725af8461b2a4d969fa2584271bb7e167a201ffffffffdcb0cf1b6db3e218fedcaef26aacff5c2bb7eb682b8e1bfc24c9e41f3ca3ca79000000004847304402201e1dc4875052354188c3fefd92754204988a1288f5d9763386fb6cfc4d6dc7db02207eb3f58ac1fd28dbbc727cf6c0d93d1800ffc3309066ac28b8bc8ec9dc44750101ffffffff34a741834b81c03d42ae2f90047d41824006548bfa180c822d3fb23b8f66c27200000000484730440220763860db0c4faf3c45920b9ba827cdea1a0640d244c72daa7916fb6f74e272080220689491f3334fad99f8f5800bb391bad395ded9aca06640dc1149fb3e8b610d1701fffffffffce2bf053d32f3d088addff2c35603262875d52738c1de0ae60fc0b2d093c7fc000000004a49304602210096a82b8b2c5131df391e709dba2b2bab7ee5b1c472a87827b462598d618bc404022100d0618ea637a2602f27937959cb88dda2a7bf803fe09d000e9dea8ca04b05fab901fffffffff3784dcb7e3c8f0af7b1b93bcc7957563c188d4896f9f08c80674f699ac2ef970000000049483045022100c5926f3539d1e2587653839e6b05d91c278929f6133433a04b33e0009809a5a902206c910d82ad7e2d7b12eb86ac037fa4c065006f6678af6e6672dc2adc3ea4b90301ffffffff873436573ad916613caf781073d61df92b8e3646859e55f778bbdcb1b8ffc11f0000000049483045022100ce075fbe71d422d0555e852835d96d80a60268c8d364050e449e31412e3d8bea022027fb2475635b5886ab33a014d1f99f8d5b000d63825c1be9d5c4260f9637bef001ffffffff3f68623f377af8a8d71456ae68e6b6fe45c598c676ea3b547ee861ca5be0bb14000000004948304502202cb2eea1981e4b463e2d0bbd7330b6f62ff4adf1cc1946af91dc14a6e86154c7022100e2e3d3c8398e9cff8895a1e7cbb0efab84d40a8f0d8594f873ad609800129fb201ffffffff548d77dbd624bf1b08b0ee523c5a9911f07d0fb34568d6e8e67d2f4ca320ee89000000004847304402203b59a8b1a9afc776b6f7d36319a1faceac268632af1c038fdf35cb987bc4b8d602205c1f29c4deb25d65706d62bd577761dd5d6e0cf1385d50242cb0372dee7b4c0501ffffffffd615c17c49ce14aa0288c8c42e68789cfdab1b56fcd3b93537af7c044bb0d1c5000000004a493046022100d550d7bb23e9fb21bfde6c46c5b6aaa81aeb93dbe8257e6c55d0b854831f201e022100c80c6280a0c1fcf6c9d43e58df1064183c14b03d0586ad3ba74dc9ed5e41680701fffffffff509d031c46aeb566ec492a63089c06c381fd9debfc5520f4e6355e330a80244000000004a4930460221008d4e82946fa2d85aa86d0dff8dce6aeadf429ef6648db0102bbe3e89f43a5f81022100ae73db1c14b7c490012df492e0a052c260baa81b18d6309df6e934e09e1eeeba01ffffffff858a64c26b01242e4be20da714b0e0578f34b87875d7c006e59fe8dcbe6096bc00000000494830450221009c3dfc0da81f087e7e9de0e6960aeaa88d16de6e19663646ed04fd39232857a2022044eb1b40a24346c4a9d18c8097cd2cb4eb0bc9ae3a6230df4e20a2ca93dcaf4d01ffffffff4c0fd2aa17b0a190f8b3dcb2f1ce92b69a2cbf472818c8700e3f402bf77989860000000048473044022028cfceed79167ef70b945f63844c187700c982ee04b2c64083495fe5a6334b24022069b12b0ee765884e345392a622c440989e22a26ef3c21d4d63305ed5d1adfad901ffffffff7ddea980a8d4409ff4e5d505bae80631a7c29ddd90863ac017ef24a34fe81227000000004a493046022100faed8bf4191f040e90abd7481c11bb80bae4a9790cf2ba365504422bb1c1c2d7022100c882c11cad4e5d35160317c54eee5c330c4c24057d6cd66520a60921339bd1a301ffffffff6359a77934df18d9d43f3780314b200665ff5b2c5ca335bd5d516dedab3a7d58000000004948304502206551c8dec7d5d44190ec17ee408f2199bf468bab84a43c191a428f4e00775e8f02210093c1282040d6c333e21550fb6f899cf173a0f5f4bc7f610ba5b90377111744e801ffffffffff62cbb607b9f3442b08b215aee4fe019920fc728339d9c445bfe89bb93b3dda000000004a4930460221008dff491c0841bc40657feaab5d69838a4a1a39ab94f8c8034b07d7ff7ca9ea54022100c399785e032bde2efc1eab30afff7f0f11dee3beeec04dbab8b64804957ddb1701ffffffffaa28ad14f2959b29777996a96d4c10bd05a7c9bbd6cfb47229d847b5c6f2c3640000000048473044022035223cb20b30e014d8d0be69b5e7c9920bbaebfdd56573f5614233bd25039f1e02200ead73f4b5e39b7ec704db3cf2c43afd23c2070774253955c3c03910ea3667a501ffffffff01005cb2ec220000001976a91412ab8dc588ca9d5787dde7eb29569da63c3a238c88ac00000000"
    }
  ]
}