{
  "hash": "00000000198281de1916c2918c0dcc9dc38cc2f0cc2a3f6b2347dcd3403e7a8a",
  "confirmations": 52507,
  "height": 591,
  "version": 1,
  "versionHex": "00000001",
  "merkleroot": "af67d4f0e784ad7d7c21cdbe2d501633f97a29b85be75f9a8fdd771cd14f1e53",
  "time": 1232033622,
  "mediantime": 1232029520,
  "nonce": 170408101,
  "bits": "1d00ffff",
  "difficulty": 1,
  "chainwork": "0000000000000000000000000000000000000000000000000000025002500250",
  "nTx": 1,
  "previousblockhash": "000000008ba08cce0c4845673a55800603a6e24be4c9977bc977fbb359db0078",
  "nextblockhash": "000000007ba4ed8233fba72ad14360d0aa1bd8ef5675c2d06659dfabd5862084",
  "strippedsize": 216,
  "size": 216,
  "weight": 864,
  "tx": [
    {
      "txid": "af67d4f0e784ad7d7c21cdbe2d501633f97a29b85be75f9a8fdd771cd14f1e53",
      "hash": "af67d4f0e784ad7d7c21cdbe2d501633f97a29b85be75f9a8fdd771cd14f1e53",
      "version": 1,
      "size": 135,
      "vsize": 135,
      "weight": 540,
      "locktime": 0,
      "vin": [
        {
          "coinbase": "04ffff001d02d600",
          "sequence": 4294967295
        }
      ],
      "vout": [
        {
          "value": 50.0,
          "n": 0,
          "scriptPubKey": {
            "asm": "044219440e9e6e1034dc09ebc5e60b0ffd6f9ab1d62be6e3cb038ab2635263f8bbd9727c3fede94be548b738659c8085b394d520bdf7c87f85d59f0954ad316c40 OP_CHECKSIG",
            "desc": "pk(044219440e9e6e1034dc09ebc5e60b0ffd6f9ab1d62be6e3cb038ab2635263f8bbd9727c3fede94be548b738659c8085b394d520bdf7c87f85d59f0954ad316c40)#3ky054ca",
            "hex": "41044219440e9e6e1034dc09ebc5e60b0ffd6f9ab1d62be6e3cb038ab2635263f8bbd9727c3fede94be548b738659c8085b394d520bdf7c87f85d59f0954ad316c40ac",
            "type": "pubkey"
          }
        }
      ],
      "hex": "01000000010000000000000000000000000000000000000000000000000000000000000000ffffffff0804ffff001d02d600ffffffff0100f2052a010000004341044219440e9e6e1034dc09ebc5e60b0ffd6f9ab1d62be6e3cb038ab2635263f8bbd9727c3fede94be548b738659c8085b394d520bdf7c87f85d59f0954ad316c40ac00000000"
    }
  ]
}