{
  "hash": "000000003531ef6f6f09805c59bd25d089fc225838df2b80a3441c48165e58d2",
  "confirmations": 45967,
  "height": 7131,
  "version": 1,
  "versionHex": "00000001",
  "merkleroot": "6b8e6aab6e68813ca6b981a81e5ba8759cdb4c6e732f2b0e8217cb5e3a58856a",
  "time": 1236818777,
  "mediantime": 1236815266,
  "nonce": 3660018985,
  "bits": "1d00ffff",
  "difficulty": 1,
  "chainwork": "00000000000000000000000000000000000000000000000000001bdc1bdc1bdc",
  "nTx": 1,
  "previousblockhash": "000000009d7be8b29e2c9da1828b9b8503efb73d647f86371dce553d15888677",
  "nextblockhash": "0000000090020fa2437d58703509b476fad39f5a5c3008dcf305d5e4eeb610da",
  "strippedsize": 216,
  "size": 216,
  "weight": 864,
  "tx": [
    {
      "txid": "6b8e6aab6e68813ca6b981a81e5ba8759cdb4c6e732f2b0e8217cb5e3a58856a",
      "hash": "6b8e6aab6e68813ca6b981a81e5ba8759cdb4c6e732f2b0e8217cb5e3a58856a",
      "version": 1,
      "size": 135,
      "vsize": 135,
      "weight": 540,
      "locktime": 0,
      "vin": [
        {
          "coinbase": "04ffff001d028104",
          "sequence": 4294967295
        }
      ],
      "vout": [
        {
          "value": 50.0,
          "n": 0,
          "scriptPubKey": {
            "asm": "04a6185a4793422f723bdd7bd5bf4449b4d520f61d276a362d5f072a8cfb33a12a00859661b3371ce4d341971f15cee3786348c28ad0b68ff5268887256119e267 OP_CHECKSIG",
            "desc": "pk(04a6185a4793422f723bdd7bd5bf4449b4d520f61d276a362d5f072a8cfb33a12a00859661b3371ce4d341971f15cee3786348c28ad0b68ff5268887256119e267)#pzhfjf0m",
            "hex": "4104a6185a4793422f723bdd7bd5bf4449b4d520f61d276a362d5f072a8cfb33a12a00859661b3371ce4d341971f15cee3786348c28ad0b68ff5268887256119e267ac",
            "type": "pubkey"
          }
        }
      ],
      "hex": "01000000010000000000000000000000000000000000000000000000000000000000000000ffffffff0804ffff001d028104ffffffff0100f2052a01000000434104a6185a4793422f723bdd7bd5bf4449b4d520f61d276a362d5f072a8cfb33a12a00859661b3371ce4d341971f15cee3786348c28ad0b68ff5268887256119e267ac00000000"
    }
  ]
}