{
  "hash": "00000000182b06a9e48db4835b47500102d0363e37513f4d330295cc94aabf74",
  "confirmations": 52061,
  "height": 1037,
  "version": 1,
  "versionHex": "00000001",
  "merkleroot": "1a49cf8e13cda81f0d6b839de7e89accc2c27395dc4df92046bc9e2a97f6026c",
  "time": 1232376733,
  "mediantime": 1232371508,
  "nonce": 724314150,
  "bits": "1d00ffff",
  "difficulty": 1,
  "chainwork": "0000000000000000000000000000000000000000000000000000040e040e040e",
  "nTx": 1,
  "previousblockhash": "0000000014968cc5dbf73179697c8faa3055c668b236cb7436b166b5753378e6",
  "nextblockhash": "00000000a58b2ee621036b20ea940018667ddfb03aa43f0075ffd194099f8f3c",
  "strippedsize": 216,
  "size": 216,
  "weight": 864,
  "tx": [
    {
      "txid": "1a49cf8e13cda81f0d6b839de7e89accc2c27395dc4df92046bc9e2a97f6026c",
      "hash": "1a49cf8e13cda81f0d6b839de7e89accc2c27395dc4df92046bc9e2a97f6026c",
      "version": 1,
      "size": 135,
      "vsize": 135,
      "weight": 540,
      "locktime": 0,
      "vin": [
        {
          "coinbase": "04ffff001d02b905",
          "sequence": 4294967295
        }
      ],
      "vout": [
        {
          "value": 50.0,
          "n": 0,
          "scriptPubKey": {
            "asm": "045d07251f71e84bb150d925e531b596b4c610677f4e14d0ea8dad98398520d6775bd35df7ce2fa93e865571cc86beb60c614a938d3446374b13372f941b0948fb OP_CHECKSIG",
            "desc": "pk(045d07251f71e84bb150d925e531b596b4c610677f4e14d0ea8dad98398520d6775bd35df7ce2fa93e865571cc86beb60c614a938d3446374b13372f941b0948fb)#57xezcc6",
            "hex": "41045d07251f71e84bb150d925e531b596b4c610677f4e14d0ea8dad98398520d6775bd35df7ce2fa93e865571cc86beb60c614a938d3446374b13372f941b0948fbac",
            "type": "pubkey"
          }
        }
      ],
      "hex": "01000000010000000000000000000000000000000000000000000000000000000000000000ffffffff0804ffff001d02b905ffffffff0100f2052a010000004341045d07251f71e84bb150d925e531b596b4c610677f4e14d0ea8dad98398520d6775bd35df7ce2fa93e865571cc86beb60c614a938d3446374b13372f941b0948fbac00000000"
    }
  ]
}