{
  "hash": "00000000c997904ae560a37450d81ebf44414e6c29d43e24be0e9c3285e00734",
  "confirmations": 51222,
  "height": 1876,
  "version": 1,
  "versionHex": "00000001",
  "merkleroot": "64361dff15e31365c843aa0109f333d14d7156fac5133fcc390df0cee3dadeb7",
  "time": 1232933626,
  "mediantime": 1232931441,
  "nonce": 1382458148,
  "bits": "1d00ffff",
  "difficulty": 1,
  "chainwork": "0000000000000000000000000000000000000000000000000000075507550755",
  "nTx": 1,
  "previousblockhash": "00000000a15e23a0455d0453a6216857db4f1920308eea8b7f21b2ef9698ed75",
  "nextblockhash": "00000000ba48a5254205120912ea04481540b940d871f1e5828f8e4421d57241",
  "strippedsize": 216,
  "size": 216,
  "weight": 864,
  "tx": [
    {
      "txid": "64361dff15e31365c843aa0109f333d14d7156fac5133fcc390df0cee3dadeb7",
      "hash": "64361dff15e31365c843aa0109f333d14d7156fac5133fcc390df0cee3dadeb7",
      "version": 1,
      "size": 135,
      "vsize": 135,
      "weight": 540,
      "locktime": 0,
      "vin": [
        {
          "coinbase": "04ffff001d020105",
          "sequence": 4294967295
        }
      ],
      "vout": [
        {
          "value": 50.0,
          "n": 0,
          "scriptPubKey": {
            "asm": "04d6e3be5551816fb2eac3f3ab22627bc354249ba1f9f12d36788811d452216ebe4618ef9c69a607302333da672865d7b9249d6767e95fbed1d474d16db1c9b0a5 OP_CHECKSIG",
            "desc": "pk(04d6e3be5551816fb2eac3f3ab22627bc354249ba1f9f12d36788811d452216ebe4618ef9c69a607302333da672865d7b9249d6767e95fbed1d474d16db1c9b0a5)#234ym82x",
            "hex": "4104d6e3be5551816fb2eac3f3ab22627bc354249ba1f9f12d36788811d452216ebe4618ef9c69a607302333da672865d7b9249d6767e95fbed1d474d16db1c9b0a5ac",
            "type": "pubkey"
          }
        }
      ],
      "hex": "01000000010000000000000000000000000000000000000000000000000000000000000000ffffffff0804ffff001d020105ffffffff0100f2052a01000000434104d6e3be5551816fb2eac3f3ab22627bc354249ba1f9f12d36788811d452216ebe4618ef9c69a607302333da672865d7b9249d6767e95fbed1d474d16db1c9b0a5ac00000000"
    }
  ]
}