{
  "hash": "000000001f5d25207cb9c9639cfba77bed49655f354b214af03fa7673ced36e4",
  "confirmations": 48155,
  "height": 4943,
  "version": 1,
  "versionHex": "00000001",
  "merkleroot": "f32536092411cf272060c794365b21419e14417b5450e3d7a3813863290be5bf",
  "time": 1235099128,
  "mediantime": 1235095454,
  "nonce": 3105139238,
  "bits": "1d00ffff",
  "difficulty": 1,
  "chainwork": "0000000000000000000000000000000000000000000000000000135013501350",
  "nTx": 1,
  "previousblockhash": "000000003078ecef5c32e4d4327001d58da1e263eaf63cbaf9dd6a7687cafbb7",
  "nextblockhash": "00000000cab62442761a1de73baa2851da45fdac2e5f87c0dfebfe632631e22e",
  "strippedsize": 216,
  "size": 216,
  "weight": 864,
  "tx": [
    {
      "txid": "f32536092411cf272060c794365b21419e14417b5450e3d7a3813863290be5bf",
      "hash": "f32536092411cf272060c794365b21419e14417b5450e3d7a3813863290be5bf",
      "version": 1,
      "size": 135,
      "vsize": 135,
      "weight": 540,
      "locktime": 0,
      "vin": [
        {
          "coinbase": "04ffff001d024a06",
          "sequence": 4294967295
        }
      ],
      "vout": [
        {
          "value": 50.0,
          "n": 0,
          "scriptPubKey": {
            "asm": "049e192d26f441a704a3c0fcce209f7d4f013c3f82dd4dbb7a612dca29405cca8cff82c110c687f90b77fd6370264165b2771a02eef2d284c25103fd9a3dd0fed4 OP_CHECKSIG",
            "desc": "pk(049e192d26f441a704a3c0fcce209f7d4f013c3f82dd4dbb7a612dca29405cca8cff82c110c687f90b77fd6370264165b2771a02eef2d284c25103fd9a3dd0fed4)#ne3z8ldf",
            "hex": "41049e192d26f441a704a3c0fcce209f7d4f013c3f82dd4dbb7a612dca29405cca8cff82c110c687f90b77fd6370264165b2771a02eef2d284c25103fd9a3dd0fed4ac",
            "type": "pubkey"
          }
        }
      ],
      "hex": "01000000010000000000000000000000000000000000000000000000000000000000000000ffffffff0804ffff001d024a06ffffffff0100f2052a010000004341049e192d26f441a704a3c0fcce209f7d4f013c3f82dd4dbb7a612dca29405cca8cff82c110c687f90b77fd6370264165b2771a02eef2d284c25103fd9a3dd0fed4ac00000000"
    }
  ]
}