{
  "hash": "00000000e04953d178b1142b710bee3bb6e072d7a9505aff6d3a5d4a2a280262",
  "confirmations": 44524,
  "height": 8574,
  "version": 1,
  "versionHex": "00000001",
  "merkleroot": "d8d70547da9e0addd659d279661a45e905b921cd8c01699b60bc55cea5c9832c",
  "time": 1237930128,
  "mediantime": 1237926249,
  "nonce": 4224811314,
  "bits": "1d00ffff",
  "difficulty": 1,
  "chainwork": "0000000000000000000000000000000000000000000000000000217f217f217f",
  "nTx": 1,
  "previousblockhash": "00000000a4f0a244b21a76644c318d0f3df91d36cb0ca027bc79883424187f7f",
  "nextblockhash": "000000006862c7d7752b33db6dc770cba20c33fd5586decc8cfd84b350ae72b0",
  "strippedsize": 216,
  "size": 216,
  "weight": 864,
  "tx": [
    {
      "txid": "d8d70547da9e0addd659d279661a45e905b921cd8c01699b60bc55cea5c9832c",
      "hash": "d8d70547da9e0addd659d279661a45e905b921cd8c01699b60bc55cea5c9832c",
      "version": 1,
      "size": 135,
      "vsize": 135,
      "weight": 540,
      "locktime": 0,
      "vin": [
        {
          "coinbase": "04ffff001d021f09",
          "sequence": 4294967295
        }
      ],
      "vout": [
        {
          "value": 50.0,
          "n": 0,
          "scriptPubKey": {
            "asm": "04eef4316333445cb257ea9538261f200927e184a46d0096fc58c4535744ce89d284a0d9e9d6c203937044b495f8a5404b3b5f334d855207dde24316a2d49ad4f7 OP_CHECKSIG",
            "desc": "pk(04eef4316333445cb257ea9538261f200927e184a46d0096fc58c4535744ce89d284a0d9e9d6c203937044b495f8a5404b3b5f334d855207dde24316a2d49ad4f7)#kuug6z64",
            "hex": "4104eef4316333445cb257ea9538261f200927e184a46d0096fc58c4535744ce89d284a0d9e9d6c203937044b495f8a5404b3b5f334d855207dde24316a2d49ad4f7ac",
            "type": "pubkey"
          }
        }
      ],
      "hex": "01000000010000000000000000000000000000000000000000000000000000000000000000ffffffff0804ffff001d021f09ffffffff0100f2052a01000000434104eef4316333445cb257ea9538261f200927e184a46d0096fc58c4535744ce89d284a0d9e9d6c203937044b495f8a5404b3b5f334d855207dde24316a2d49ad4f7ac00000000"
    }
  ]
}