{
  "hash": "00000000fc33b76de0621880e0cad2f6bd24e48250c461258dc8c6a6a3253c7a",
  "confirmations": 51491,
  "height": 1607,
  "version": 1,
  "versionHex": "00000001",
  "merkleroot": "82803537f16a6ba72c32c21bd14faf373dae7d3c7c6e7b9f7508bfe186ff92b4",
  "time": 1232814046,
  "mediantime": 1232811911,
  "nonce": 37816520,
  "bits": "1d00ffff",
  "difficulty": 1,
  "chainwork": "0000000000000000000000000000000000000000000000000000064806480648",
  "nTx": 1,
  "previousblockhash": "000000005d388d74f4b9da705c4a977b5aa53f88746f6286988f9f139dba2a99",
  "nextblockhash": "00000000745067eb1bc28aa5f31d157455e8eef074c8c998174bfcecaeb488f4",
  "strippedsize": 215,
  "size": 215,
  "weight": 860,
  "tx": [
    {
      "txid": "82803537f16a6ba72c32c21bd14faf373dae7d3c7c6e7b9f7508bfe186ff92b4",
      "hash": "82803537f16a6ba72c32c21bd14faf373dae7d3c7c6e7b9f7508bfe186ff92b4",
      "version": 1,
      "size": 134,
      "vsize": 134,
      "weight": 536,
      "locktime": 0,
      "vin": [
        {
          "coinbase": "04ffff001d011a",
          "sequence": 4294967295
        }
      ],
      "vout": [
        {
          "value": 50.0,
          "n": 0,
          "scriptPubKey": {
            "asm": "04306aeb16d82686992e9de39c286c9435cd5a89ff2e31ca9995470fe900dfdb5ab4771ec06d2b3d8840bb002eeab6d43ea74fb9413aeae6d5cfca8becd99ccc5c OP_CHECKSIG",
            "desc": "pk(04306aeb16d82686992e9de39c286c9435cd5a89ff2e31ca9995470fe900dfdb5ab4771ec06d2b3d8840bb002eeab6d43ea74fb9413aeae6d5cfca8becd99ccc5c)#qum7whgh",
            "hex": "4104306aeb16d82686992e9de39c286c9435cd5a89ff2e31ca9995470fe900dfdb5ab4771ec06d2b3d8840bb002eeab6d43ea74fb9413aeae6d5cfca8becd99ccc5cac",
            "type": "pubkey"
          }
        }
      ],
      "hex": "01000000010000000000000000000000000000000000000000000000000000000000000000ffffffff0704ffff001d011affffffff0100f2052a01000000434104306aeb16d82686992e9de39c286c9435cd5a89ff2e31ca9995470fe900dfdb5ab4771ec06d2b3d8840bb002eeab6d43ea74fb9413aeae6d5cfca8becd99ccc5cac00000000"
    }
  ]
}