{
  "hash": "00000000fca03856f435bc8ce54184c907c53f3daf04c42aae9b57f358c9aac3",
  "confirmations": 50827,
  "height": 2271,
  "version": 1,
  "versionHex": "00000001",
  "merkleroot": "456f41b961b96b7bbda9ccd5e2f0b6f7811f753971c5f29cf9278399eba51f5d",
  "time": 1233260303,
  "mediantime": 1233257424,
  "nonce": 3282514949,
  "bits": "1d00ffff",
  "difficulty": 1,
  "chainwork": "000000000000000000000000000000000000000000000000000008e008e008e0",
  "nTx": 1,
  "previousblockhash": "000000008d238d65182ba3dfe70263ed60d58271a3418ee4bf4edd9769e2e9f6",
  "nextblockhash": "00000000bbbf0ae8a56c09877cbc96ff7d3398664a475f10f08d183d7489851e",
  "strippedsize": 216,
  "size": 216,
  "weight": 864,
  "tx": [
    {
      "txid": "456f41b961b96b7bbda9ccd5e2f0b6f7811f753971c5f29cf9278399eba51f5d",
      "hash": "456f41b961b96b7bbda9ccd5e2f0b6f7811f753971c5f29cf9278399eba51f5d",
      "version": 1,
      "size": 135,
      "vsize": 135,
      "weight": 540,
      "locktime": 0,
      "vin": [
        {
          "coinbase": "04ffff001d023901",
          "sequence": 4294967295
        }
      ],
      "vout": [
        {
          "value": 50.0,
          "n": 0,
          "scriptPubKey": {
            "asm": "0451f4f3368a4a91b170c754b834460a80db55bc8e68267030109f7a2da14dbab87f179834c5964f8dbde69f2d6f178cf60e11af7e4d061f13b2454a9368a5fd35 OP_CHECKSIG",
            "desc": "pk(0451f4f3368a4a91b170c754b834460a80db55bc8e68267030109f7a2da14dbab87f179834c5964f8dbde69f2d6f178cf60e11af7e4d061f13b2454a9368a5fd35)#5wylt9s8",
            "hex": "410451f4f3368a4a91b170c754b834460a80db55bc8e68267030109f7a2da14dbab87f179834c5964f8dbde69f2d6f178cf60e11af7e4d061f13b2454a9368a5fd35ac",
            "type": "pubkey"
          }
        }
      ],
      "hex": "01000000010000000000000000000000000000000000000000000000000000000000000000ffffffff0804ffff001d023901ffffffff0100f2052a0100000043410451f4f3368a4a91b170c754b834460a80db55bc8e68267030109f7a2da14dbab87f179834c5964f8dbde69f2d6f178cf60e11af7e4d061f13b2454a9368a5fd35ac00000000"
    }
  ]
}