{
  "hash": "00000000675cc0c2fa1953ee4fb3390b6b3cea4e57d9d00fb702b0984d7b9df1",
  "confirmations": 45346,
  "height": 7752,
  "version": 1,
  "versionHex": "00000001",
  "merkleroot": "73d57298cbfa283ed92d6ae36adb0b1bfa1a690b7efa80ac0b88c3f617e574c5",
  "time": 1237277951,
  "mediantime": 1237275120,
  "nonce": 4146884865,
  "bits": "1d00ffff",
  "difficulty": 1,
  "chainwork": "00000000000000000000000000000000000000000000000000001e491e491e49",
  "nTx": 1,
  "previousblockhash": "000000007e7ac3c321c4ff1c7cdfe08b1faa80ba293a856d78203ad611daeb85",
  "nextblockhash": "00000000ce465612482a6d69c115e7e390a896b2f4794dc43c209f236c4a48d6",
  "strippedsize": 216,
  "size": 216,
  "weight": 864,
  "tx": [
    {
      "txid": "73d57298cbfa283ed92d6ae36adb0b1bfa1a690b7efa80ac0b88c3f617e574c5",
      "hash": "73d57298cbfa283ed92d6ae36adb0b1bfa1a690b7efa80ac0b88c3f617e574c5",
      "version": 1,
      "size": 135,
      "vsize": 135,
      "weight": 540,
      "locktime": 0,
      "vin": [
        {
          "coinbase": "04ffff001d021505",
          "sequence": 4294967295
        }
      ],
      "vout": [
        {
          "value": 50.0,
          "n": 0,
          "scriptPubKey": {
            "asm": "0413b71e968977946195d9cdd66be137847a667c54f5aabf56f9261c372d4e4556b22d57e73c81f2b8bb2b9e18537d3de5a591ee3d26332cb4d4791b8791f6e237 OP_CHECKSIG",
            "desc": "pk(0413b71e968977946195d9cdd66be137847a667c54f5aabf56f9261c372d4e4556b22d57e73c81f2b8bb2b9e18537d3de5a591ee3d26332cb4d4791b8791f6e237)#ramraccy",
            "hex": "410413b71e968977946195d9cdd66be137847a667c54f5aabf56f9261c372d4e4556b22d57e73c81f2b8bb2b9e18537d3de5a591ee3d26332cb4d4791b8791f6e237ac",
            "type": "pubkey"
          }
        }
      ],
      "hex": "01000000010000000000000000000000000000000000000000000000000000000000000000ffffffff0804ffff001d021505ffffffff0100f2052a0100000043410413b71e968977946195d9cdd66be137847a667c54f5aabf56f9261c372d4e4556b22d57e73c81f2b8bb2b9e18537d3de5a591ee3d26332cb4d4791b8791f6e237ac00000000"
    }
  ]
}