{
  "hash": "00000000c0a1b54e1db9b30863ebb8f2c5eb529539e4db1d012862fa06fda081",
  "confirmations": 51401,
  "height": 1697,
  "version": 1,
  "versionHex": "00000001",
  "merkleroot": "69bef9dd9540a5fe57f2ad5f03e2e45d9bbe850e14407235f68a22597d32e714",
  "time": 1232852058,
  "mediantime": 1232849688,
  "nonce": 2160244006,
  "bits": "1d00ffff",
  "difficulty": 1,
  "chainwork": "000000000000000000000000000000000000000000000000000006a206a206a2",
  "nTx": 1,
  "previousblockhash": "0000000089e879d9772af27fe8ceee2c54c2ff8df5e9247a7a1cf21bdf009a69",
  "nextblockhash": "00000000601efcb04a6bc1b3c8a717ef193ab6307823b04818ea5302909c5e1a",
  "strippedsize": 216,
  "size": 216,
  "weight": 864,
  "tx": [
    {
      "txid": "69bef9dd9540a5fe57f2ad5f03e2e45d9bbe850e14407235f68a22597d32e714",
      "hash": "69bef9dd9540a5fe57f2ad5f03e2e45d9bbe850e14407235f68a22597d32e714",
      "version": 1,
      "size": 135,
      "vsize": 135,
      "weight": 540,
      "locktime": 0,
      "vin": [
        {
          "coinbase": "04ffff001d020e03",
          "sequence": 4294967295
        }
      ],
      "vout": [
        {
          "value": 50.0,
          "n": 0,
          "scriptPubKey": {
            "asm": "04df1170d4ef888bd8b2d3c18ac214e35a77585cd60bb9f15e633dc755ab76391b351bb7e96571f6903348e4b5c9456bad0dcdda1584541680a2fc3e589b1aa3c3 OP_CHECKSIG",
            "desc": "pk(04df1170d4ef888bd8b2d3c18ac214e35a77585cd60bb9f15e633dc755ab76391b351bb7e96571f6903348e4b5c9456bad0dcdda1584541680a2fc3e589b1aa3c3)#kdefqevz",
            "hex": "4104df1170d4ef888bd8b2d3c18ac214e35a77585cd60bb9f15e633dc755ab76391b351bb7e96571f6903348e4b5c9456bad0dcdda1584541680a2fc3e589b1aa3c3ac",
            "type": "pubkey"
          }
        }
      ],
      "hex": "01000000010000000000000000000000000000000000000000000000000000000000000000ffffffff0804ffff001d020e03ffffffff0100f2052a01000000434104df1170d4ef888bd8b2d3c18ac214e35a77585cd60bb9f15e633dc755ab76391b351bb7e96571f6903348e4b5c9456bad0dcdda1584541680a2fc3e589b1aa3c3ac00000000"
    }
  ]
}