{
  "hash": "00000000a2b0baa09090095aafdd991d2832477ddff157ee48108234fb3f0d52",
  "confirmations": 48047,
  "height": 5051,
  "version": 1,
  "versionHex": "00000001",
  "merkleroot": "1083149d143db6d31ab8e2107e8b34e9ebcbc9c5065a7f681490047bda747bbc",
  "time": 1235176561,
  "mediantime": 1235172565,
  "nonce": 396421141,
  "bits": "1d00ffff",
  "difficulty": 1,
  "chainwork": "000000000000000000000000000000000000000000000000000013bc13bc13bc",
  "nTx": 1,
  "previousblockhash": "00000000059b30fe09e885a6c7364f26d7549fc050fc2326de899e77819a1c25",
  "nextblockhash": "00000000f39724ade9277650c4784b2a563922654db2145bbab9476bddb6c6ae",
  "strippedsize": 216,
  "size": 216,
  "weight": 864,
  "tx": [
    {
      "txid": "1083149d143db6d31ab8e2107e8b34e9ebcbc9c5065a7f681490047bda747bbc",
      "hash": "1083149d143db6d31ab8e2107e8b34e9ebcbc9c5065a7f681490047bda747bbc",
      "version": 1,
      "size": 135,
      "vsize": 135,
      "weight": 540,
      "locktime": 0,
      "vin": [
        {
          "coinbase": "04ffff001d02e107",
          "sequence": 4294967295
        }
      ],
      "vout": [
        {
          "value": 50.0,
          "n": 0,
          "scriptPubKey": {
            "asm": "0498ec63b3590125dc7ad32350d5c0f442dfb5d60f9aa5119c38af34e2455b23b1c712030ca5c3745082a90675fa790badf6aa9822ded7fdf2c8834e20f2d1cce9 OP_CHECKSIG",
            "desc": "pk(0498ec63b3590125dc7ad32350d5c0f442dfb5d60f9aa5119c38af34e2455b23b1c712030ca5c3745082a90675fa790badf6aa9822ded7fdf2c8834e20f2d1cce9)#6h8mc28t",
            "hex": "410498ec63b3590125dc7ad32350d5c0f442dfb5d60f9aa5119c38af34e2455b23b1c712030ca5c3745082a90675fa790badf6aa9822ded7fdf2c8834e20f2d1cce9ac",
            "type": "pubkey"
          }
        }
      ],
      "hex": "01000000010000000000000000000000000000000000000000000000000000000000000000ffffffff0804ffff001d02e107ffffffff0100f2052a0100000043410498ec63b3590125dc7ad32350d5c0f442dfb5d60f9aa5119c38af34e2455b23b1c712030ca5c3745082a90675fa790badf6aa9822ded7fdf2c8834e20f2d1cce9ac00000000"
    }
  ]
}