{
  "hash": "000000008f0cff462388ae7ef7e93faea01fb6d8be13f1a5fcf823e067dd4777",
  "confirmations": 46334,
  "height": 6764,
  "version": 1,
  "versionHex": "00000001",
  "merkleroot": "222951835b770a436226c66408816f09b56e944b5420de350540f7462f9b0323",
  "time": 1236532492,
  "mediantime": 1236528077,
  "nonce": 2735111962,
  "bits": "1d00ffff",
  "difficulty": 1,
  "chainwork": "00000000000000000000000000000000000000000000000000001a6d1a6d1a6d",
  "nTx": 3,
  "previousblockhash": "00000000f791b7968f56df4d214cbd6089dbab8d475d5e85d118334060df0fca",
  "nextblockhash": "00000000ffd6cf9652a947452972f4cccfc65eed439f498abac9d250eb844ebe",
  "strippedsize": 1187,
  "size": 1187,
  "weight": 4748,
  "tx": [
    {
      "txid": "5b72f81894049bb44b3b8a375b7871243be1c458f658a4be2ae43210c34a8129",
      "hash": "5b72f81894049bb44b3b8a375b7871243be1c458f658a4be2ae43210c34a8129",
      "version": 1,
      "size": 135,
      "vsize": 135,
      "weight": 540,
      "locktime": 0,
      "vin": [
        {
          "coinbase": "04ffff001d025208",
          "sequence": 4294967295
        }
      ],
      "vout": [
        {
          "value": 50.0,
          "n": 0,
          "scriptPubKey": {
            "asm": "04a28ad0de05177684f16f03027e336e8bbf63c4a1ac34ac8119550f4cdcbbd13f31307cf5101306f9a9635436ff76a16fc33314af450e80b519d356955bbbcff9 OP_CHECKSIG",
            "desc": "pk(04a28ad0de05177684f16f03027e336e8bbf63c4a1ac34ac8119550f4cdcbbd13f31307cf5101306f9a9635436ff76a16fc33314af450e80b519d356955bbbcff9)#5q4xkvq0",
            "hex": "4104a28ad0de05177684f16f03027e336e8bbf63c4a1ac34ac8119550f4cdcbbd13f31307cf5101306f9a9635436ff76a16fc33314af450e80b519d356955bbbcff9ac",
            "type": "pubkey"
          }
        }
      ],
      "hex": "01000000010000000000000000000000000000000000000000000000000000000000000000ffffffff0804ffff001d025208ffffffff0100f2052a01000000434104a28ad0de05177684f16f03027e336e8bbf63c4a1ac34ac8119550f4cdcbbd13f31307cf5101306f9a9635436ff76a16fc33314af450e80b519d356955bbbcff9ac00000000"
    },
    {
      "txid": "accd1171781ff942b496cc67184bdfbdac6cbb4b0ebc4559f07830a89c2d7e5e",
      "hash": "accd1171781ff942b496cc67184bdfbdac6cbb4b0ebc4559f07830a89c2d7e5e",
      "version": 1,
      "size": 200,
      "vsize": 200,
      "weight": 800,
      "locktime": 0,
      "vin": [
        {
          "txid": "02b1911beda4314c4b1e0cafa55e07f4cf7e8991668adb1845286cd7be39822c",
          "vout": 0,
          "scriptSig": {
            "asm": "304502210094514df2197518aa7884a4994f6eed0f155074a76d797a59b5509c4b7d3e020b022020e7d3a876f01a8ce3f8c9c69404667f2d0d65313a3cfd6442e8235e301aab0a[ALL]",
            "hex": "48304502210094514df2197518aa7884a4994f6eed0f155074a76d797a59b5509c4b7d3e020b022020e7d3a876f01a8ce3f8c9c69404667f2d0d65313a3cfd6442e8235e301aab0a01"
          },
          "sequence": 4294967295
        }
      ],
      "vout": [
        {
          "value": 50.0,
          "n": 0,
          "scriptPubKey": {
            "asm": "04fdedb34d93ec8f8dc0803df39b9c4c24bc106c59a5d5f71e83121738e3b7cd469723c8d57dba62308f354be7916615f37009ba7599032066217a4d95b651ee62 OP_CHECKSIG",
            "desc": "pk(04fdedb34d93ec8f8dc0803df39b9c4c24bc106c59a5d5f71e83121738e3b7cd469723c8d57dba62308f354be7916615f37009ba7599032066217a4d95b651ee62)#2aw6ruap",
            "hex": "4104fdedb34d93ec8f8dc0803df39b9c4c24bc106c59a5d5f71e83121738e3b7cd469723c8d57dba62308f354be7916615f37009ba7599032066217a4d95b651ee62ac",
            "type": "pubkey"
          }
        }
      ],
      "fee": 0.0,
      "hex": "01000000012c8239bed76c284518db8a6691897ecff4075ea5af0c1e4b4c31a4ed1b91b102000000004948304502210094514df2197518aa7884a4994f6eed0f155074a76d797a59b5509c4b7d3e020b022020e7d3a876f01a8ce3f8c9c69404667f2d0d65313a3cfd6442e8235e301aab0a01ffffffff0100f2052a01000000434104fdedb34d93ec8f8dc0803df39b9c4c24bc106c59a5d5f71e83121738e3b7cd469723c8d57dba62308f354be7916615f37009ba7599032066217a4d95b651ee62ac00000000"
    },
    {
      "txid": "d7374c9a35997bd4fffb7cc089e6e2b22c5ee9f6019dc0fc881cc8b02e45b10b",
      "hash": "d7374c9a35997bd4fffb7cc089e6e2b22c5ee9f6019dc0fc881cc8b02e45b10b",
      "version": 1,
      "size": 771,
      "vsize": 771,
      "weight": 3084,
      "locktime": 0,
      "vin": [
        {
          "txid": "670900d97b912a7cb651e8005a9be7518431b5b8b6436c8a14effbda477ff32e",
          "vout": 0,
          "scriptSig": {
            "asm": "304502207d5fd30ff1a1c49c59cc895808e7fe2e71fc8d6ccd3125b0cae3134d6c690d06022100ac51f1227d441fcc5846b1c9ae2e24764a93b1a5f41f7ffca1f6d11fd58743d0[ALL]",
            "hex": "48304502207d5fd30ff1a1c49c59cc895808e7fe2e71fc8d6ccd3125b0cae3134d6c690d06022100ac51f1227d441fcc5846b1c9ae2e24764a93b1a5f41f7ffca1f6d11fd58743d001"
          },
          "sequence": 4294967295
        },
        {
          "txid": "05a4e107732ac7ce7063989448ad2355882907c64d3fba383dad78799a338128",
          "vout": 0,
          "scriptSig": {
            "asm": "304402200e961f917285c81adcb872deaeae874b9a7d1b11752bee1076e9f53f208945ce0220390bf17b4b352efdc390815941bd72708da65a7e3c7010269fde0b411d8bc114[ALL]",
            "hex": "47304402200e961f917285c81adcb872deaeae874b9a7d1b11752bee1076e9f53f208945ce0220390bf17b4b352efdc390815941bd72708da65a7e3c7010269fde0b411d8bc11401"
          },
          "sequence": 4294967295
        },
        {
          "txid": "17dda0f8073b473d71a262bcde8eec987cbddc0f19f474b7087e077a50f0f92a",
          "vout": 0,
          "scriptSig": {
            "asm": "3046022100b7ae4508d236af46094662be146450a2b95ec05a1ef25c5bd6e725f7f142e0b602210091ed5e313a4c94bd04455b1df6e767600cf20b78c1d46a2632e7cc407728faa8[ALL]",
            "hex": "493046022100b7ae4508d236af46094662be146450a2b95ec05a1ef25c5bd6e725f7f142e0b602210091ed5e313a4c94bd04455b1df6e767600cf20b78c1d46a2632e7cc407728faa801"
          },
          "sequence": 4294967295
        },
        {
          "txid": "57cc4a10655e997de2ee67678241162a69a9cb28c24a7a6a9126aeb8af6e595c",
          "vout": 0,
          "scriptSig": {
            "asm": "30450221008b51aa568850226339f38602b2fe34808f401634061dafea15132ab1a865ce8702202d10b2e58ec4df2cb206ffbefeb8d487838fe5af665a9e09ced6abe5def5b477[ALL]",
            "hex": "4830450221008b51aa568850226339f38602b2fe34808f401634061dafea15132ab1a865ce8702202d10b2e58ec4df2cb206ffbefeb8d487838fe5af665a9e09ced6abe5def5b47701"
          },
          "sequence": 4294967295
        },
        {
          "txid": "da9cc6d4f99a887f6a968940a85d3a8d09e909cad77775ca4d4f0d6c0023e4c9",
          "vout": 0,
          "scriptSig": {
            "asm": "3045022100aeca01be2c1f542c977e8cf2858f3ea6f67f6c75ad1c4d0b72e853ace82939e7022064032dcbd3806f313ebd66eed9d05b88b812824872ad87d97b6e952b8e71553d[ALL]",
            "hex": "483045022100aeca01be2c1f542c977e8cf2858f3ea6f67f6c75ad1c4d0b72e853ace82939e7022064032dcbd3806f313ebd66eed9d05b88b812824872ad87d97b6e952b8e71553d01"
          },
          "sequence": 4294967295
        },
        {
          "txid": "3a6f912f9e6d41cc23fe1cbbb0f849797a2de8a63f58ab42234f3a5afa2edee6",
          "vout": 0,
          "scriptSig": {
            "asm": "3046022100a85a7da351718b453952960792039996e1d5dcd7199d3865744a171d43cd0b2b022100df895be82044ca663e334fc8be0f36e516afda412224cc03f57a411ac0e45c25[ALL]",
            "hex": "493046022100a85a7da351718b453952960792039996e1d5dcd7199d3865744a171d43cd0b2b022100df895be82044ca663e334fc8be0f36e516afda412224cc03f57a411ac0e45c2501"
          },
          "sequence": 4294967295
        }
      ],
      "vout": [
        {
          "value": 300.0,
          "n": 0,
          "scriptPubKey": {
            "asm": "04006b5d8a2cd24f93f131877a683f6ddf08d64cb5f1ad2392c7a766effc3b9eb12fdfef38bdde46805e2808ff5295dd587aaeee8d8d31f92b981a754a59ef1061 OP_CHECKSIG",
            "desc": "pk(04006b5d8a2cd24f93f131877a683f6ddf08d64cb5f1ad2392c7a766effc3b9eb12fdfef38bdde46805e2808ff5295dd587aaeee8d8d31f92b981a754a59ef1061)#pqdh72hf",
            "hex": "4104006b5d8a2cd24f93f131877a683f6ddf08d64cb5f1ad2392c7a766effc3b9eb12fdfef38bdde46805e2808ff5295dd587aaeee8d8d31f92b981a754a59ef1061ac",
            "type": "pubkey"
          }
        }
      ],
      "fee": 0.0,
      "hex": "01000000062ef37f47dafbef148a6c43b6b8b5318451e79b5a00e851b67c2a917bd9000967000000004948304502207d5fd30ff1a1c49c59cc895808e7fe2e71fc8d6ccd3125b0cae3134d6c690d06022100ac51f1227d441fcc5846b1c9ae2e24764a93b1a5f41f7ffca1f6d11fd58743d001ffffffff2881339a7978ad3d38ba3f4dc60729885523ad4894986370cec72a7307e1a405000000004847304402200e961f917285c81adcb872deaeae874b9a7d1b11752bee1076e9f53f208945ce0220390bf17b4b352efdc390815941bd72708da65a7e3c7010269fde0b411d8bc11401ffffffff2af9f0507a077e08b774f4190fdcbd7c98ec8edebc62a2713d473b07f8a0dd17000000004a493046022100b7ae4508d236af46094662be146450a2b95ec05a1ef25c5bd6e725f7f142e0b602210091ed5e313a4c94bd04455b1df6e767600cf20b78c1d46a2632e7cc407728faa801ffffffff5c596eafb8ae26916a7a4ac228cba9692a1641826767eee27d995e65104acc5700000000494830450221008b51aa568850226339f38602b2fe34808f401634061dafea15132ab1a865ce8702202d10b2e58ec4df2cb206ffbefeb8d487838fe5af665a9e09ced6abe5def5b47701ffffffffc9e423006c0d4f4dca7577d7ca09e9098d3a5da84089966a7f889af9d4c69cda0000000049483045022100aeca01be2c1f542c977e8cf2858f3ea6f67f6c75ad1c4d0b72e853ace82939e7022064032dcbd3806f313ebd66eed9d05b88b812824872ad87d97b6e952b8e71553d01ffffffffe6de2efa5a3a4f2342ab583fa6e82d7a7949f8b0bb1cfe23cc416d9e2f916f3a000000004a493046022100a85a7da351718b453952960792039996e1d5dcd7199d3865744a171d43cd0b2b022100df895be82044ca663e334fc8be0f36e516afda412224cc03f57a411ac0e45c2501ffffffff0100ac23fc06000000434104006b5d8a2cd24f93f131877a683f6ddf08d64cb5f1ad2392c7a766effc3b9eb12fdfef38bdde46805e2808ff5295dd587aaeee8d8d31f92b981a754a59ef1061ac00000000"
    }
  ]
}