{
  "hash": "000000007f8db6511db0e101debcb9748cab4a8428be673df8ad7c520713195a",
  "confirmations": 45486,
  "height": 7612,
  "version": 1,
  "versionHex": "00000001",
  "merkleroot": "c92c98608e8e0d20a13134506db9376a3d39a0709e18dba8811e075dbf349227",
  "time": 1237176562,
  "mediantime": 1237174229,
  "nonce": 137412094,
  "bits": "1d00ffff",
  "difficulty": 1,
  "chainwork": "00000000000000000000000000000000000000000000000000001dbd1dbd1dbd",
  "nTx": 1,
  "previousblockhash": "00000000a2aab69ec44620e839e713326eb8f8ce4a87ec6d1d2bccee72f5e2fe",
  "nextblockhash": "0000000068a7430d09809d047b72ef05d2c9a1e4283bdc4cdcffc72ccca83001",
  "strippedsize": 215,
  "size": 215,
  "weight": 860,
  "tx": [
    {
      "txid": "c92c98608e8e0d20a13134506db9376a3d39a0709e18dba8811e075dbf349227",
      "hash": "c92c98608e8e0d20a13134506db9376a3d39a0709e18dba8811e075dbf349227",
      "version": 1,
      "size": 134,
      "vsize": 134,
      "weight": 536,
      "locktime": 0,
      "vin": [
        {
          "coinbase": "04ffff001d0116",
          "sequence": 4294967295
        }
      ],
      "vout": [
        {
          "value": 50.0,
          "n": 0,
          "scriptPubKey": {
            "asm": "04a6bc66c1941588dfa096bd287e0ef88fae154b2723a16ca3173dbf005af8cb4e46986d13766a49cb84a3b186117cf13ab8cf53658f45409780d560f3ca484cf4 OP_CHECKSIG",
            "desc": "pk(04a6bc66c1941588dfa096bd287e0ef88fae154b2723a16ca3173dbf005af8cb4e46986d13766a49cb84a3b186117cf13ab8cf53658f45409780d560f3ca484cf4)#k8jgw3m5",
            "hex": "4104a6bc66c1941588dfa096bd287e0ef88fae154b2723a16ca3173dbf005af8cb4e46986d13766a49cb84a3b186117cf13ab8cf53658f45409780d560f3ca484cf4ac",
            "type": "pubkey"
          }
        }
      ],
      "hex": "01000000010000000000000000000000000000000000000000000000000000000000000000ffffffff0704ffff001d0116ffffffff0100f2052a01000000434104a6bc66c1941588dfa096bd287e0ef88fae154b2723a16ca3173dbf005af8cb4e46986d13766a49cb84a3b186117cf13ab8cf53658f45409780d560f3ca484cf4ac00000000"
    }
  ]
}