{
  "hash": "0000000014af7149075396d071a46c047198ed6747b2b5bfeaa30bd2802e1e02",
  "confirmations": 43955,
  "height": 9143,
  "version": 1,
  "versionHex": "00000001",
  "merkleroot": "72c8183f5d881ad38de7e635a9f0e75709f446288bf19aee06264651d8a3d382",
  "time": 1238363405,
  "mediantime": 1238358873,
  "nonce": 2294488852,
  "bits": "1d00ffff",
  "difficulty": 1,
  "chainwork": "000000000000000000000000000000000000000000000000000023b823b823b8",
  "nTx": 1,
  "previousblockhash": "0000000013103fb0ed66aad5c6616d485931b6ec1c905b8f58f74e4d4a11a0d5",
  "nextblockhash": "00000000a2df4dc128c18a1dedfa47412ed65e891bbe90f7cf76fdbd340b71f3",
  "strippedsize": 216,
  "size": 216,
  "weight": 864,
  "tx": [
    {
      "txid": "72c8183f5d881ad38de7e635a9f0e75709f446288bf19aee06264651d8a3d382",
      "hash": "72c8183f5d881ad38de7e635a9f0e75709f446288bf19aee06264651d8a3d382",
      "version": 1,
      "size": 135,
      "vsize": 135,
      "weight": 540,
      "locktime": 0,
      "vin": [
        {
          "coinbase": "04ffff001d023409",
          "sequence": 4294967295
        }
      ],
      "vout": [
        {
          "value": 50.0,
          "n": 0,
          "scriptPubKey": {
            "asm": "049b891651f1ae5e5823802417e9ab1ce097f5fdcf5ed37e6c55629a5609b999f3a223578356f7dae1c662072b49b7dce0567bc2293f34d54b2e11cf2d5937785c OP_CHECKSIG",
            "desc": "pk(049b891651f1ae5e5823802417e9ab1ce097f5fdcf5ed37e6c55629a5609b999f3a223578356f7dae1c662072b49b7dce0567bc2293f34d54b2e11cf2d5937785c)#hsmdw2sq",
            "hex": "41049b891651f1ae5e5823802417e9ab1ce097f5fdcf5ed37e6c55629a5609b999f3a223578356f7dae1c662072b49b7dce0567bc2293f34d54b2e11cf2d5937785cac",
            "type": "pubkey"
          }
        }
      ],
      "hex": "01000000010000000000000000000000000000000000000000000000000000000000000000ffffffff0804ffff001d023409ffffffff0100f2052a010000004341049b891651f1ae5e5823802417e9ab1ce097f5fdcf5ed37e6c55629a5609b999f3a223578356f7dae1c662072b49b7dce0567bc2293f34d54b2e11cf2d5937785cac00000000"
    }
  ]
}