{
  "hash": "0000000022fd7997791ea0ca7a3d67015af26e1a60614270b182c2ef7b3916f6",
  "confirmations": 44486,
  "height": 8612,
  "version": 1,
  "versionHex": "00000001",
  "merkleroot": "3348da76ffd8ac7495337294949207d08e424c9a30b592ad2e0421a14ad3ea68",
  "time": 1237958006,
  "mediantime": 1237954727,
  "nonce": 1170570757,
  "bits": "1d00ffff",
  "difficulty": 1,
  "chainwork": "000000000000000000000000000000000000000000000000000021a521a521a5",
  "nTx": 1,
  "previousblockhash": "00000000a9375e4682c7639f8901b8bf8a31f9709a69209bd2fac63e62f1b270",
  "nextblockhash": "00000000b2cf993521124863c5f2223ab6b25914dbb79abf8a70ff8ca516f70d",
  "strippedsize": 216,
  "size": 216,
  "weight": 864,
  "tx": [
    {
      "txid": "3348da76ffd8ac7495337294949207d08e424c9a30b592ad2e0421a14ad3ea68",
      "hash": "3348da76ffd8ac7495337294949207d08e424c9a30b592ad2e0421a14ad3ea68",
      "version": 1,
      "size": 135,
      "vsize": 135,
      "weight": 540,
      "locktime": 0,
      "vin": [
        {
          "coinbase": "04ffff001d02ab09",
          "sequence": 4294967295
        }
      ],
      "vout": [
        {
          "value": 50.0,
          "n": 0,
          "scriptPubKey": {
            "asm": "04d79edb4073adbb02a8e2dc5c6263a0938f317298a560ab8b4c0588063592dec86f554ca0197fcb5c44dac55d583587363ac72d74a8d9420d0265cb75e73c2c3a OP_CHECKSIG",
            "desc": "pk(04d79edb4073adbb02a8e2dc5c6263a0938f317298a560ab8b4c0588063592dec86f554ca0197fcb5c44dac55d583587363ac72d74a8d9420d0265cb75e73c2c3a)#mn6unz2t",
            "hex": "4104d79edb4073adbb02a8e2dc5c6263a0938f317298a560ab8b4c0588063592dec86f554ca0197fcb5c44dac55d583587363ac72d74a8d9420d0265cb75e73c2c3aac",
            "type": "pubkey"
          }
        }
      ],
      "hex": "01000000010000000000000000000000000000000000000000000000000000000000000000ffffffff0804ffff001d02ab09ffffffff0100f2052a01000000434104d79edb4073adbb02a8e2dc5c6263a0938f317298a560ab8b4c0588063592dec86f554ca0197fcb5c44dac55d583587363ac72d74a8d9420d0265cb75e73c2c3aac00000000"
    }
  ]
}