{
  "hash": "0000000066ab69d5eb23879a8936c198019bba98cc01d58703c2ebfaf1e837bb",
  "confirmations": 46857,
  "height": 6241,
  "version": 1,
  "versionHex": "00000001",
  "merkleroot": "1bf51f177dec150824b512a240d7ef6719c5cec14cf8cf5611b2324ee0385faf",
  "time": 1236124054,
  "mediantime": 1236121578,
  "nonce": 37603250,
  "bits": "1d00ffff",
  "difficulty": 1,
  "chainwork": "0000000000000000000000000000000000000000000000000000186218621862",
  "nTx": 1,
  "previousblockhash": "000000001c3aa07efadd82e5e49117a01ccaa50634522c93f20c4479b6785558",
  "nextblockhash": "000000004e99495b7d628aaf118be591159fe24e62b9e579c54b13fca19cbaa2",
  "strippedsize": 215,
  "size": 215,
  "weight": 860,
  "tx": [
    {
      "txid": "1bf51f177dec150824b512a240d7ef6719c5cec14cf8cf5611b2324ee0385faf",
      "hash": "1bf51f177dec150824b512a240d7ef6719c5cec14cf8cf5611b2324ee0385faf",
      "version": 1,
      "size": 134,
      "vsize": 134,
      "weight": 536,
      "locktime": 0,
      "vin": [
        {
          "coinbase": "04ffff001d0155",
          "sequence": 4294967295
        }
      ],
      "vout": [
        {
          "value": 50.0,
          "n": 0,
          "scriptPubKey": {
            "asm": "047c92f73dbc3c6e4abcb052dc5128a3637d077029fce3d90b1ab523378552e7c97eb054d36d0014a0af4c9c37114b4544efd60ba6184ba2459337237e6e00ab11 OP_CHECKSIG",
            "desc": "pk(047c92f73dbc3c6e4abcb052dc5128a3637d077029fce3d90b1ab523378552e7c97eb054d36d0014a0af4c9c37114b4544efd60ba6184ba2459337237e6e00ab11)#gmrmw4qs",
            "hex": "41047c92f73dbc3c6e4abcb052dc5128a3637d077029fce3d90b1ab523378552e7c97eb054d36d0014a0af4c9c37114b4544efd60ba6184ba2459337237e6e00ab11ac",
            "type": "pubkey"
          }
        }
      ],
      "hex": "01000000010000000000000000000000000000000000000000000000000000000000000000ffffffff0704ffff001d0155ffffffff0100f2052a010000004341047c92f73dbc3c6e4abcb052dc5128a3637d077029fce3d90b1ab523378552e7c97eb054d36d0014a0af4c9c37114b4544efd60ba6184ba2459337237e6e00ab11ac00000000"
    }
  ]
}