{
  "hash": "00000000cad0c80fe23f256177706c34ded711a048a1be847ef089d4456de671",
  "confirmations": 43888,
  "height": 9210,
  "version": 1,
  "versionHex": "00000001",
  "merkleroot": "f644aba614b838a270f2d948c457a91ec6160d8ca424a943d4effbc038f2ed57",
  "time": 1238409894,
  "mediantime": 1238402431,
  "nonce": 2875876126,
  "bits": "1d00ffff",
  "difficulty": 1,
  "chainwork": "000000000000000000000000000000000000000000000000000023fb23fb23fb",
  "nTx": 1,
  "previousblockhash": "000000003a37a28a42eaeee36c324678728a966538a26757c146cfe10daf1184",
  "nextblockhash": "00000000628f07b12159a10cd428ae5ce3e60ed57c36bf680184c451b62b7aab",
  "strippedsize": 215,
  "size": 215,
  "weight": 860,
  "tx": [
    {
      "txid": "f644aba614b838a270f2d948c457a91ec6160d8ca424a943d4effbc038f2ed57",
      "hash": "f644aba614b838a270f2d948c457a91ec6160d8ca424a943d4effbc038f2ed57",
      "version": 1,
      "size": 134,
      "vsize": 134,
      "weight": 536,
      "locktime": 0,
      "vin": [
        {
          "coinbase": "04ffff001d0113",
          "sequence": 4294967295
        }
      ],
      "vout": [
        {
          "value": 50.0,
          "n": 0,
          "scriptPubKey": {
            "asm": "04694af43eaf712f8b80558ad31d9a22e49408f78b83e810515739470eba3f2e5daebfb1c9225c7e78d34cb75e2641ab3b548b467350605179be1c643d5a5a17f6 OP_CHECKSIG",
            "desc": "pk(04694af43eaf712f8b80558ad31d9a22e49408f78b83e810515739470eba3f2e5daebfb1c9225c7e78d34cb75e2641ab3b548b467350605179be1c643d5a5a17f6)#6hn9a83x",
            "hex": "4104694af43eaf712f8b80558ad31d9a22e49408f78b83e810515739470eba3f2e5daebfb1c9225c7e78d34cb75e2641ab3b548b467350605179be1c643d5a5a17f6ac",
            "type": "pubkey"
          }
        }
      ],
      "hex": "01000000010000000000000000000000000000000000000000000000000000000000000000ffffffff0704ffff001d0113ffffffff0100f2052a01000000434104694af43eaf712f8b80558ad31d9a22e49408f78b83e810515739470eba3f2e5daebfb1c9225c7e78d34cb75e2641ab3b548b467350605179be1c643d5a5a17f6ac00000000"
    }
  ]
}