{
  "hash": "000000005b4e0da997d959ea2186bb4973d151f2430b653be57b71d4061bb2a6",
  "confirmations": 46467,
  "height": 6631,
  "version": 1,
  "versionHex": "00000001",
  "merkleroot": "6c866360020fb2a5466b9a3b79e96f1f6232c664620bc057afaf0b0f60c97c77",
  "time": 1236427112,
  "mediantime": 1236422937,
  "nonce": 1876264226,
  "bits": "1d00ffff",
  "difficulty": 1,
  "chainwork": "000000000000000000000000000000000000000000000000000019e819e819e8",
  "nTx": 1,
  "previousblockhash": "000000006aaf40fd3d8ec376557c446d56be3048e3e50e80270da1f88f1671cc",
  "nextblockhash": "00000000900a1b7ef3f022f01af05a55a093041a91162af5bcfc957fd1213fed",
  "strippedsize": 216,
  "size": 216,
  "weight": 864,
  "tx": [
    {
      "txid": "6c866360020fb2a5466b9a3b79e96f1f6232c664620bc057afaf0b0f60c97c77",
      "hash": "6c866360020fb2a5466b9a3b79e96f1f6232c664620bc057afaf0b0f60c97c77",
      "version": 1,
      "size": 135,
      "vsize": 135,
      "weight": 540,
      "locktime": 0,
      "vin": [
        {
          "coinbase": "04ffff001d02b405",
          "sequence": 4294967295
        }
      ],
      "vout": [
        {
          "value": 50.0,
          "n": 0,
          "scriptPubKey": {
            "asm": "0477e10fe9a3dd5b03d44a20e39fe4947850be6080580396c69841adcb237bede48b2875ff6727476fd9852db1eaeebbe06a0872350b352df87be3db33eb6b3b90 OP_CHECKSIG",
            "desc": "pk(0477e10fe9a3dd5b03d44a20e39fe4947850be6080580396c69841adcb237bede48b2875ff6727476fd9852db1eaeebbe06a0872350b352df87be3db33eb6b3b90)#zx4fcl5y",
            "hex": "410477e10fe9a3dd5b03d44a20e39fe4947850be6080580396c69841adcb237bede48b2875ff6727476fd9852db1eaeebbe06a0872350b352df87be3db33eb6b3b90ac",
            "type": "pubkey"
          }
        }
      ],
      "hex": "01000000010000000000000000000000000000000000000000000000000000000000000000ffffffff0804ffff001d02b405ffffffff0100f2052a0100000043410477e10fe9a3dd5b03d44a20e39fe4947850be6080580396c69841adcb237bede48b2875ff6727476fd9852db1eaeebbe06a0872350b352df87be3db33eb6b3b90ac00000000"
    }
  ]
}