{
  "hash": "00000000bdcf8ca4e6b5259d02ace5d03b450214927ca0bc2217220323fc2256",
  "confirmations": 52190,
  "height": 908,
  "version": 1,
  "versionHex": "00000001",
  "merkleroot": "4d9dc317a39e2bc9bb1b102090056a046c84c92c5988c897afa0d9be0dea6c79",
  "time": 1232282025,
  "mediantime": 1232279463,
  "nonce": 2172675616,
  "bits": "1d00ffff",
  "difficulty": 1,
  "chainwork": "0000000000000000000000000000000000000000000000000000038d038d038d",
  "nTx": 1,
  "previousblockhash": "00000000c90449e0eae4ab3e64248d2bb105c8bc720e3c7317ecfa4f1c482163",
  "nextblockhash": "000000001296a12c71fb7ab664179a0d47d0d6a96eaf1b5590d6d0ebbd472744",
  "strippedsize": 216,
  "size": 216,
  "weight": 864,
  "tx": [
    {
      "txid": "4d9dc317a39e2bc9bb1b102090056a046c84c92c5988c897afa0d9be0dea6c79",
      "hash": "4d9dc317a39e2bc9bb1b102090056a046c84c92c5988c897afa0d9be0dea6c79",
      "version": 1,
      "size": 135,
      "vsize": 135,
      "weight": 540,
      "locktime": 0,
      "vin": [
        {
          "coinbase": "04ffff001d02cd03",
          "sequence": 4294967295
        }
      ],
      "vout": [
        {
          "value": 50.0,
          "n": 0,
          "scriptPubKey": {
            "asm": "04cd8f8cf2f46f629282cb4a7d9a9f55087101651b8c05576ab66681acecb58fbda771e23714cf49e2c8e1c07874d77c2b22ef81501f2045c6ee5bc006613aa11c OP_CHECKSIG",
            "desc": "pk(04cd8f8cf2f46f629282cb4a7d9a9f55087101651b8c05576ab66681acecb58fbda771e23714cf49e2c8e1c07874d77c2b22ef81501f2045c6ee5bc006613aa11c)#ehfjt83p",
            "hex": "4104cd8f8cf2f46f629282cb4a7d9a9f55087101651b8c05576ab66681acecb58fbda771e23714cf49e2c8e1c07874d77c2b22ef81501f2045c6ee5bc006613aa11cac",
            "type": "pubkey"
          }
        }
      ],
      "hex": "01000000010000000000000000000000000000000000000000000000000000000000000000ffffffff0804ffff001d02cd03ffffffff0100f2052a01000000434104cd8f8cf2f46f629282cb4a7d9a9f55087101651b8c05576ab66681acecb58fbda771e23714cf49e2c8e1c07874d77c2b22ef81501f2045c6ee5bc006613aa11cac00000000"
    }
  ]
}