{
  "hash": "0000000065edeaa48820fab00df7fd489e48f82ead34856b76b2a67f2a1e015b",
  "confirmations": 45145,
  "height": 7953,
  "version": 1,
  "versionHex": "00000001",
  "merkleroot": "d15763e534ab2a047b0aac97787f5616dc30948752e9cb5587c57fade1a82b2e",
  "time": 1237429268,
  "mediantime": 1237425914,
  "nonce": 3030600498,
  "bits": "1d00ffff",
  "difficulty": 1,
  "chainwork": "00000000000000000000000000000000000000000000000000001f121f121f12",
  "nTx": 1,
  "previousblockhash": "00000000072b00d5649b0b4f442b212c8b2e7a4d474b7156764acede830ad2fb",
  "nextblockhash": "00000000bedd5e3eacd5152622c5b1db0f5293b4a79faf62d92f3ca510995e49",
  "strippedsize": 216,
  "size": 216,
  "weight": 864,
  "tx": [
    {
      "txid": "d15763e534ab2a047b0aac97787f5616dc30948752e9cb5587c57fade1a82b2e",
      "hash": "d15763e534ab2a047b0aac97787f5616dc30948752e9cb5587c57fade1a82b2e",
      "version": 1,
      "size": 135,
      "vsize": 135,
      "weight": 540,
      "locktime": 0,
      "vin": [
        {
          "coinbase": "04ffff001d027f08",
          "sequence": 4294967295
        }
      ],
      "vout": [
        {
          "value": 50.0,
          "n": 0,
          "scriptPubKey": {
            "asm": "04e472aef3342855cfb77c66bf9561f46a94aa2ab0ea30bef8629a114ec919b1f35dad97c4ee07a64538c86c5c894cdcdcf2a5b7d34bd0d3ed46fa3129d5161717 OP_CHECKSIG",
            "desc": "pk(04e472aef3342855cfb77c66bf9561f46a94aa2ab0ea30bef8629a114ec919b1f35dad97c4ee07a64538c86c5c894cdcdcf2a5b7d34bd0d3ed46fa3129d5161717)#59xvmc79",
            "hex": "4104e472aef3342855cfb77c66bf9561f46a94aa2ab0ea30bef8629a114ec919b1f35dad97c4ee07a64538c86c5c894cdcdcf2a5b7d34bd0d3ed46fa3129d5161717ac",
            "type": "pubkey"
          }
        }
      ],
      "hex": "01000000010000000000000000000000000000000000000000000000000000000000000000ffffffff0804ffff001d027f08ffffffff0100f2052a01000000434104e472aef3342855cfb77c66bf9561f46a94aa2ab0ea30bef8629a114ec919b1f35dad97c4ee07a64538c86c5c894cdcdcf2a5b7d34bd0d3ed46fa3129d5161717ac00000000"
    }
  ]
}