{
  "hash": "0000000003a4cbd3c094831fa8668dca578b5d0613204a590ebeb23423869839",
  "confirmations": 46241,
  "height": 6857,
  "version": 1,
  "versionHex": "00000001",
  "merkleroot": "d85a1b3b99d4003a36e7ee24915443338bf59fd028c0fc0c84f5af8cf6c99f12",
  "time": 1236600600,
  "mediantime": 1236596232,
  "nonce": 411486472,
  "bits": "1d00ffff",
  "difficulty": 1,
  "chainwork": "00000000000000000000000000000000000000000000000000001aca1aca1aca",
  "nTx": 1,
  "previousblockhash": "00000000278617cb288129fdc526d05d9f3bb671f7933b12100e1ed1d6896c8c",
  "nextblockhash": "000000009e6227e6974ecf90eb7414ce9c7df2a53145df91f8ed5a742bab76d8",
  "strippedsize": 216,
  "size": 216,
  "weight": 864,
  "tx": [
    {
      "txid": "d85a1b3b99d4003a36e7ee24915443338bf59fd028c0fc0c84f5af8cf6c99f12",
      "hash": "d85a1b3b99d4003a36e7ee24915443338bf59fd028c0fc0c84f5af8cf6c99f12",
      "version": 1,
      "size": 135,
      "vsize": 135,
      "weight": 540,
      "locktime": 0,
      "vin": [
        {
          "coinbase": "04ffff001d02d309",
          "sequence": 4294967295
        }
      ],
      "vout": [
        {
          "value": 50.0,
          "n": 0,
          "scriptPubKey": {
            "asm": "04390fb7e51627c31712d7fa3cdef0c04d964b0e2020356d0b6c3fbdb93f20ee15bf11c42efdcf8b221e6cabae9588911177fcd1f3cf14b2258e2a71d307af8d9a OP_CHECKSIG",
            "desc": "pk(04390fb7e51627c31712d7fa3cdef0c04d964b0e2020356d0b6c3fbdb93f20ee15bf11c42efdcf8b221e6cabae9588911177fcd1f3cf14b2258e2a71d307af8d9a)#4lqjpe4p",
            "hex": "4104390fb7e51627c31712d7fa3cdef0c04d964b0e2020356d0b6c3fbdb93f20ee15bf11c42efdcf8b221e6cabae9588911177fcd1f3cf14b2258e2a71d307af8d9aac",
            "type": "pubkey"
          }
        }
      ],
      "hex": "01000000010000000000000000000000000000000000000000000000000000000000000000ffffffff0804ffff001d02d309ffffffff0100f2052a01000000434104390fb7e51627c31712d7fa3cdef0c04d964b0e2020356d0b6c3fbdb93f20ee15bf11c42efdcf8b221e6cabae9588911177fcd1f3cf14b2258e2a71d307af8d9aac00000000"
    }
  ]
}