{
  "hash": "000000007f4df2938477dbaba0f584c6d90499c6c826e253de64cd8400d3946a",
  "confirmations": 49417,
  "height": 3681,
  "version": 1,
  "versionHex": "00000001",
  "merkleroot": "f098ce1c30f5e22c8e90700ac1d80212c5942136449c5023832b8de2cca21e23",
  "time": 1234222318,
  "mediantime": 1234219423,
  "nonce": 3527590953,
  "bits": "1d00ffff",
  "difficulty": 1,
  "chainwork": "00000000000000000000000000000000000000000000000000000e620e620e62",
  "nTx": 1,
  "previousblockhash": "000000007bc6bf48f2d5134ef450b56bbf30b042f3234279550f8568705cab09",
  "nextblockhash": "000000009ac77e4dd63f434995a94f3cc3a00ff66ff4e8045fbd24883ec3fd12",
  "strippedsize": 216,
  "size": 216,
  "weight": 864,
  "tx": [
    {
      "txid": "f098ce1c30f5e22c8e90700ac1d80212c5942136449c5023832b8de2cca21e23",
      "hash": "f098ce1c30f5e22c8e90700ac1d80212c5942136449c5023832b8de2cca21e23",
      "version": 1,
      "size": 135,
      "vsize": 135,
      "weight": 540,
      "locktime": 0,
      "vin": [
        {
          "coinbase": "04ffff001d02d309",
          "sequence": 4294967295
        }
      ],
      "vout": [
        {
          "value": 50.0,
          "n": 0,
          "scriptPubKey": {
            "asm": "04d2ea7d0c1d950547cfbee32f8c03c8bb7dd385e2b06fda44323a91c3f6e3ad642f1a669fc21a1d5c2a5cc2ba49c3afa9e1240d0eea01c66c5b0cd5047f8c41c1 OP_CHECKSIG",
            "desc": "pk(04d2ea7d0c1d950547cfbee32f8c03c8bb7dd385e2b06fda44323a91c3f6e3ad642f1a669fc21a1d5c2a5cc2ba49c3afa9e1240d0eea01c66c5b0cd5047f8c41c1)#xtfank74",
            "hex": "4104d2ea7d0c1d950547cfbee32f8c03c8bb7dd385e2b06fda44323a91c3f6e3ad642f1a669fc21a1d5c2a5cc2ba49c3afa9e1240d0eea01c66c5b0cd5047f8c41c1ac",
            "type": "pubkey"
          }
        }
      ],
      "hex": "01000000010000000000000000000000000000000000000000000000000000000000000000ffffffff0804ffff001d02d309ffffffff0100f2052a01000000434104d2ea7d0c1d950547cfbee32f8c03c8bb7dd385e2b06fda44323a91c3f6e3ad642f1a669fc21a1d5c2a5cc2ba49c3afa9e1240d0eea01c66c5b0cd5047f8c41c1ac00000000"
    }
  ]
}