{
  "hash": "00000000a167a34dd8823317ccda6036d0a243161464e3e67fc01a543ce62b7f",
  "confirmations": 52067,
  "height": 269,
  "version": 1,
  "versionHex": "00000001",
  "merkleroot": "04a0d7c4a8c7a8a0598730f0ebcf0e7bae213576aa104da30d82ea38cc1b34e3",
  "time": 1231807293,
  "mediantime": 1231805980,
  "nonce": 308613157,
  "bits": "1d00ffff",
  "difficulty": 1,
  "chainwork": "0000000000000000000000000000000000000000000000000000010e010e010e",
  "nTx": 1,
  "previousblockhash": "00000000f4226696e8eec65149a5d7bedc22200e0b9526b1bf6ba7ee5e66d126",
  "nextblockhash": "00000000c88cd451d53ba12b50e85e2c1d0381458e22813012bbd571b86f7920",
  "strippedsize": 216,
  "size": 216,
  "weight": 864,
  "tx": [
    {
      "txid": "04a0d7c4a8c7a8a0598730f0ebcf0e7bae213576aa104da30d82ea38cc1b34e3",
      "hash": "04a0d7c4a8c7a8a0598730f0ebcf0e7bae213576aa104da30d82ea38cc1b34e3",
      "version": 1,
      "size": 135,
      "vsize": 135,
      "weight": 540,
      "locktime": 0,
      "vin": [
        {
          "coinbase": "04ffff001d027101",
          "sequence": 4294967295
        }
      ],
      "vout": [
        {
          "value": 50.0,
          "n": 0,
          "scriptPubKey": {
            "asm": "04df4aff1d2a9989a108a714d13baa15ea60a4d288d9c1842dd8b435de640172d3591ef903d3a2571ac6a9814a19b490b99ec880be2cfd380e9545dc5b5168217a OP_CHECKSIG",
            "desc": "pk(04df4aff1d2a9989a108a714d13baa15ea60a4d288d9c1842dd8b435de640172d3591ef903d3a2571ac6a9814a19b490b99ec880be2cfd380e9545dc5b5168217a)#dsp5x93u",
            "hex": "4104df4aff1d2a9989a108a714d13baa15ea60a4d288d9c1842dd8b435de640172d3591ef903d3a2571ac6a9814a19b490b99ec880be2cfd380e9545dc5b5168217aac",
            "type": "pubkey"
          }
        }
      ],
      "hex": "01000000010000000000000000000000000000000000000000000000000000000000000000ffffffff0804ffff001d027101ffffffff0100f2052a01000000434104df4aff1d2a9989a108a714d13baa15ea60a4d288d9c1842dd8b435de640172d3591ef903d3a2571ac6a9814a19b490b99ec880be2cfd380e9545dc5b5168217aac00000000"
    }
  ]
}