{
  "hash": "000000001ecfb379356d51ddaf0185a10f53b15a4f2142e4fccf1d778f12be65",
  "confirmations": 50461,
  "height": 2637,
  "version": 1,
  "versionHex": "00000001",
  "merkleroot": "d6644b1b61fa5e94c4a1dcf0f6955ac7af61f56e393b9f9ab4a18c85e4e8a27a",
  "time": 1233517869,
  "mediantime": 1233514203,
  "nonce": 3288135460,
  "bits": "1d00ffff",
  "difficulty": 1,
  "chainwork": "00000000000000000000000000000000000000000000000000000a4e0a4e0a4e",
  "nTx": 1,
  "previousblockhash": "00000000438a2e8e2e9e132dfa69a6a67704c57bfb3cc2930349260ec05d3486",
  "nextblockhash": "00000000e720e6bc591b7f271757c923fcb1d114bff5e4a303f26a9f931f27eb",
  "strippedsize": 216,
  "size": 216,
  "weight": 864,
  "tx": [
    {
      "txid": "d6644b1b61fa5e94c4a1dcf0f6955ac7af61f56e393b9f9ab4a18c85e4e8a27a",
      "hash": "d6644b1b61fa5e94c4a1dcf0f6955ac7af61f56e393b9f9ab4a18c85e4e8a27a",
      "version": 1,
      "size": 135,
      "vsize": 135,
      "weight": 540,
      "locktime": 0,
      "vin": [
        {
          "coinbase": "04ffff001d029d03",
          "sequence": 4294967295
        }
      ],
      "vout": [
        {
          "value": 50.0,
          "n": 0,
          "scriptPubKey": {
            "asm": "04ea3322e6c24276d951c9031449a0daf4bc6c5161b3d15e9b7b6209ceb3f01e0d162a89033307eaa8c8d3779f6d60f241148110d2b0a7996d7ed01c80bfe812be OP_CHECKSIG",
            "desc": "pk(04ea3322e6c24276d951c9031449a0daf4bc6c5161b3d15e9b7b6209ceb3f01e0d162a89033307eaa8c8d3779f6d60f241148110d2b0a7996d7ed01c80bfe812be)#at7hy9eq",
            "hex": "4104ea3322e6c24276d951c9031449a0daf4bc6c5161b3d15e9b7b6209ceb3f01e0d162a89033307eaa8c8d3779f6d60f241148110d2b0a7996d7ed01c80bfe812beac",
            "type": "pubkey"
          }
        }
      ],
      "hex": "01000000010000000000000000000000000000000000000000000000000000000000000000ffffffff0804ffff001d029d03ffffffff0100f2052a01000000434104ea3322e6c24276d951c9031449a0daf4bc6c5161b3d15e9b7b6209ceb3f01e0d162a89033307eaa8c8d3779f6d60f241148110d2b0a7996d7ed01c80bfe812beac00000000"
    }
  ]
}