{
  "hash": "0000000055f628a1c617b8c33e2063f606fefae443533077609a03bdc9e91547",
  "confirmations": 46341,
  "height": 6757,
  "version": 1,
  "versionHex": "00000001",
  "merkleroot": "0713f23ecd2960ee792e3cdc6bdf4524250df0a94ba9dfcb97ab23a35ca41af5",
  "time": 1236526238,
  "mediantime": 1236522272,
  "nonce": 3925392640,
  "bits": "1d00ffff",
  "difficulty": 1,
  "chainwork": "00000000000000000000000000000000000000000000000000001a661a661a66",
  "nTx": 1,
  "previousblockhash": "0000000077f62bfe0863c5991a92eb347dee345f2ad1c671a1f8fd96af2db8f3",
  "nextblockhash": "000000004f5b1c434e7cd1995c7c187a5dad98a471f29f86829a34e6ebeed6ea",
  "strippedsize": 216,
  "size": 216,
  "weight": 864,
  "tx": [
    {
      "txid": "0713f23ecd2960ee792e3cdc6bdf4524250df0a94ba9dfcb97ab23a35ca41af5",
      "hash": "0713f23ecd2960ee792e3cdc6bdf4524250df0a94ba9dfcb97ab23a35ca41af5",
      "version": 1,
      "size": 135,
      "vsize": 135,
      "weight": 540,
      "locktime": 0,
      "vin": [
        {
          "coinbase": "04ffff001d023108",
          "sequence": 4294967295
        }
      ],
      "vout": [
        {
          "value": 50.0,
          "n": 0,
          "scriptPubKey": {
            "asm": "048c92ff7741459db7b49f7410b46ca22e24ac8fd972dc8618bc7cd3aca38194cbb0a0df7fbd1fc7a6055c9bf945ef5296b02e56766cf457e0aec165c020487ca1 OP_CHECKSIG",
            "desc": "pk(048c92ff7741459db7b49f7410b46ca22e24ac8fd972dc8618bc7cd3aca38194cbb0a0df7fbd1fc7a6055c9bf945ef5296b02e56766cf457e0aec165c020487ca1)#jhjfasqg",
            "hex": "41048c92ff7741459db7b49f7410b46ca22e24ac8fd972dc8618bc7cd3aca38194cbb0a0df7fbd1fc7a6055c9bf945ef5296b02e56766cf457e0aec165c020487ca1ac",
            "type": "pubkey"
          }
        }
      ],
      "hex": "01000000010000000000000000000000000000000000000000000000000000000000000000ffffffff0804ffff001d023108ffffffff0100f2052a010000004341048c92ff7741459db7b49f7410b46ca22e24ac8fd972dc8618bc7cd3aca38194cbb0a0df7fbd1fc7a6055c9bf945ef5296b02e56766cf457e0aec165c020487ca1ac00000000"
    }
  ]
}