{
  "hash": "0000000070118b55e0436a721d4533fc3d09a0238f72a5380e8a694c9dbf948e",
  "confirmations": 50898,
  "height": 2200,
  "version": 1,
  "versionHex": "00000001",
  "merkleroot": "64539331c2b501fdfc74aef7b76235b0391898722559dafaf46968e0ed1d9cde",
  "time": 1233215459,
  "mediantime": 1233211327,
  "nonce": 4204103682,
  "bits": "1d00ffff",
  "difficulty": 1,
  "chainwork": "0000000000000000000000000000000000000000000000000000089908990899",
  "nTx": 1,
  "previousblockhash": "0000000033b798200d01296bf7d274eb4a8d6937d93adf740c4f311a4ed3cd82",
  "nextblockhash": "00000000bc04ac00ee40d71ceff705a5e56f27e7c09c60320fba0c1da77f6c82",
  "strippedsize": 215,
  "size": 215,
  "weight": 860,
  "tx": [
    {
      "txid": "64539331c2b501fdfc74aef7b76235b0391898722559dafaf46968e0ed1d9cde",
      "hash": "64539331c2b501fdfc74aef7b76235b0391898722559dafaf46968e0ed1d9cde",
      "version": 1,
      "size": 134,
      "vsize": 134,
      "weight": 536,
      "locktime": 0,
      "vin": [
        {
          "coinbase": "04ffff001d0162",
          "sequence": 4294967295
        }
      ],
      "vout": [
        {
          "value": 50.0,
          "n": 0,
          "scriptPubKey": {
            "asm": "0406a659b54777d6c9d2aced506e9b72b4bc5eb8103ec27cb38e0d248bab7eac4e16ded3cf9c2c219ab56349021001563aed3415b1e39f1b6e9e8580e46293cb38 OP_CHECKSIG",
            "desc": "pk(0406a659b54777d6c9d2aced506e9b72b4bc5eb8103ec27cb38e0d248bab7eac4e16ded3cf9c2c219ab56349021001563aed3415b1e39f1b6e9e8580e46293cb38)#5ll3lkza",
            "hex": "410406a659b54777d6c9d2aced506e9b72b4bc5eb8103ec27cb38e0d248bab7eac4e16ded3cf9c2c219ab56349021001563aed3415b1e39f1b6e9e8580e46293cb38ac",
            "type": "pubkey"
          }
        }
      ],
      "hex": "01000000010000000000000000000000000000000000000000000000000000000000000000ffffffff0704ffff001d0162ffffffff0100f2052a0100000043410406a659b54777d6c9d2aced506e9b72b4bc5eb8103ec27cb38e0d248bab7eac4e16ded3cf9c2c219ab56349021001563aed3415b1e39f1b6e9e8580e46293cb38ac00000000"
    }
  ]
}