{
  "hash": "00000000b51a20c3e4739b6415bf169adf4024795f2e266a5ce8182156354ae7",
  "confirmations": 45091,
  "height": 8007,
  "version": 1,
  "versionHex": "00000001",
  "merkleroot": "539d1fb65fb0d1e95ff738f9e0ba0300e9fcd31b35eeab6d10574f49120d264b",
  "time": 1237465488,
  "mediantime": 1237462770,
  "nonce": 1941230640,
  "bits": "1d00ffff",
  "difficulty": 1,
  "chainwork": "00000000000000000000000000000000000000000000000000001f481f481f48",
  "nTx": 1,
  "previousblockhash": "0000000038a4260870c405792244cc5d17fdb4ab1131f71d6a8c4d7c74fd7d8c",
  "nextblockhash": "00000000c29e1e6c446ec15222612204ba124b158bb7fe29b078e072ce99532f",
  "strippedsize": 216,
  "size": 216,
  "weight": 864,
  "tx": [
    {
      "txid": "539d1fb65fb0d1e95ff738f9e0ba0300e9fcd31b35eeab6d10574f49120d264b",
      "hash": "539d1fb65fb0d1e95ff738f9e0ba0300e9fcd31b35eeab6d10574f49120d264b",
      "version": 1,
      "size": 135,
      "vsize": 135,
      "weight": 540,
      "locktime": 0,
      "vin": [
        {
          "coinbase": "04ffff001d028509",
          "sequence": 4294967295
        }
      ],
      "vout": [
        {
          "value": 50.0,
          "n": 0,
          "scriptPubKey": {
            "asm": "04c182f2786656bd2107b375f9531eeb09a68ff32f720918a189473758aac925f32786e9faf715cf54cf9e2dcd3ccd2c2e9303226d564e985d054d3e88e748856e OP_CHECKSIG",
            "desc": "pk(04c182f2786656bd2107b375f9531eeb09a68ff32f720918a189473758aac925f32786e9faf715cf54cf9e2dcd3ccd2c2e9303226d564e985d054d3e88e748856e)#6nrhcpfm",
            "hex": "4104c182f2786656bd2107b375f9531eeb09a68ff32f720918a189473758aac925f32786e9faf715cf54cf9e2dcd3ccd2c2e9303226d564e985d054d3e88e748856eac",
            "type": "pubkey"
          }
        }
      ],
      "hex": "01000000010000000000000000000000000000000000000000000000000000000000000000ffffffff0804ffff001d028509ffffffff0100f2052a01000000434104c182f2786656bd2107b375f9531eeb09a68ff32f720918a189473758aac925f32786e9faf715cf54cf9e2dcd3ccd2c2e9303226d564e985d054d3e88e748856eac00000000"
    }
  ]
}