{
  "hash": "00000000e8b0041987d2838f34ff84024e9c673455837216a53ed92209916e9c",
  "confirmations": 45454,
  "height": 7644,
  "version": 1,
  "versionHex": "00000001",
  "merkleroot": "5ce927ca81b243b6edfeb08634a2f2c34cfb5f08be46082af4e80ae1a5aeb1ca",
  "time": 1237198503,
  "mediantime": 1237194816,
  "nonce": 3087066674,
  "bits": "1d00ffff",
  "difficulty": 1,
  "chainwork": "00000000000000000000000000000000000000000000000000001ddd1ddd1ddd",
  "nTx": 1,
  "previousblockhash": "000000007c111c0372aeefa57a2dae1bcd9fa43879bd3e02b676e00b3a939ec2",
  "nextblockhash": "000000006da23445fb82457e211807b038717de3433458a795a461eadc597ecd",
  "strippedsize": 216,
  "size": 216,
  "weight": 864,
  "tx": [
    {
      "txid": "5ce927ca81b243b6edfeb08634a2f2c34cfb5f08be46082af4e80ae1a5aeb1ca",
      "hash": "5ce927ca81b243b6edfeb08634a2f2c34cfb5f08be46082af4e80ae1a5aeb1ca",
      "version": 1,
      "size": 135,
      "vsize": 135,
      "weight": 540,
      "locktime": 0,
      "vin": [
        {
          "coinbase": "04ffff001d022503",
          "sequence": 4294967295
        }
      ],
      "vout": [
        {
          "value": 50.0,
          "n": 0,
          "scriptPubKey": {
            "asm": "04b51e145b65eb7c3a3e841ade3e737a71f9271ccd13ca2e6b09f7b608535c753c91c5def0932951cd9dd753f27c3f86d33ff055892c3eba2b0f05d1e2e3f24319 OP_CHECKSIG",
            "desc": "pk(04b51e145b65eb7c3a3e841ade3e737a71f9271ccd13ca2e6b09f7b608535c753c91c5def0932951cd9dd753f27c3f86d33ff055892c3eba2b0f05d1e2e3f24319)#5a7fy0ly",
            "hex": "4104b51e145b65eb7c3a3e841ade3e737a71f9271ccd13ca2e6b09f7b608535c753c91c5def0932951cd9dd753f27c3f86d33ff055892c3eba2b0f05d1e2e3f24319ac",
            "type": "pubkey"
          }
        }
      ],
      "hex": "01000000010000000000000000000000000000000000000000000000000000000000000000ffffffff0804ffff001d022503ffffffff0100f2052a01000000434104b51e145b65eb7c3a3e841ade3e737a71f9271ccd13ca2e6b09f7b608535c753c91c5def0932951cd9dd753f27c3f86d33ff055892c3eba2b0f05d1e2e3f24319ac00000000"
    }
  ]
}