{
  "hash": "00000000fc8767ebdf7832b7dde1e63093aace9bb5ba0ebf81773dac6be08a67",
  "confirmations": 47501,
  "height": 5597,
  "version": 1,
  "versionHex": "00000001",
  "merkleroot": "b3084bb21ce2c7f880ab3679c7771607e3bc81319475875d1e8047c6c4392bae",
  "time": 1235600226,
  "mediantime": 1235594800,
  "nonce": 1159888923,
  "bits": "1d00ffff",
  "difficulty": 1,
  "chainwork": "000000000000000000000000000000000000000000000000000015de15de15de",
  "nTx": 1,
  "previousblockhash": "000000002a86bb282a6a0ecf60ff4c0bb9a01cfb02643dc170029966854d80c3",
  "nextblockhash": "000000006bc82a0fb19fb21a1ecc82238a37d1bc13849e72d10d4fc07566d6cd",
  "strippedsize": 216,
  "size": 216,
  "weight": 864,
  "tx": [
    {
      "txid": "b3084bb21ce2c7f880ab3679c7771607e3bc81319475875d1e8047c6c4392bae",
      "hash": "b3084bb21ce2c7f880ab3679c7771607e3bc81319475875d1e8047c6c4392bae",
      "version": 1,
      "size": 135,
      "vsize": 135,
      "weight": 540,
      "locktime": 0,
      "vin": [
        {
          "coinbase": "04ffff001d029e07",
          "sequence": 4294967295
        }
      ],
      "vout": [
        {
          "value": 50.0,
          "n": 0,
          "scriptPubKey": {
            "asm": "04aee8329bf5fb5b037b0a57d6744b39a2162cb1e5aacad84bb1c97616130ecac91b24f061ed906ae8050a6eeb02d3c5c5f8e8e6d7a53471d71a92a865d76b4fc8 OP_CHECKSIG",
            "desc": "pk(04aee8329bf5fb5b037b0a57d6744b39a2162cb1e5aacad84bb1c97616130ecac91b24f061ed906ae8050a6eeb02d3c5c5f8e8e6d7a53471d71a92a865d76b4fc8)#t3ck5292",
            "hex": "4104aee8329bf5fb5b037b0a57d6744b39a2162cb1e5aacad84bb1c97616130ecac91b24f061ed906ae8050a6eeb02d3c5c5f8e8e6d7a53471d71a92a865d76b4fc8ac",
            "type": "pubkey"
          }
        }
      ],
      "hex": "01000000010000000000000000000000000000000000000000000000000000000000000000ffffffff0804ffff001d029e07ffffffff0100f2052a01000000434104aee8329bf5fb5b037b0a57d6744b39a2162cb1e5aacad84bb1c97616130ecac91b24f061ed906ae8050a6eeb02d3c5c5f8e8e6d7a53471d71a92a865d76b4fc8ac00000000"
    }
  ]
}