{
  "hash": "00000000def8545899ea7274e5c59bda5982f8f960052774df45b7d5c64f9c5d",
  "confirmations": 52298,
  "height": 800,
  "version": 1,
  "versionHex": "00000001",
  "merkleroot": "5b340f8c400f59467ecbda0c7f43bdba6e021668424949a02eff377b17b04448",
  "time": 1232194705,
  "mediantime": 1232188579,
  "nonce": 2009953288,
  "bits": "1d00ffff",
  "difficulty": 1,
  "chainwork": "0000000000000000000000000000000000000000000000000000032103210321",
  "nTx": 1,
  "previousblockhash": "000000003b22251a4f456dcc27c4acdd8dd2b8832a0ddf410d8f864304c2c888",
  "nextblockhash": "000000000057d77971fb0bf24812e155f9eb7c4eea682b62defd627b7d42c2eb",
  "strippedsize": 216,
  "size": 216,
  "weight": 864,
  "tx": [
    {
      "txid": "5b340f8c400f59467ecbda0c7f43bdba6e021668424949a02eff377b17b04448",
      "hash": "5b340f8c400f59467ecbda0c7f43bdba6e021668424949a02eff377b17b04448",
      "version": 1,
      "size": 135,
      "vsize": 135,
      "weight": 540,
      "locktime": 0,
      "vin": [
        {
          "coinbase": "04ffff001d028301",
          "sequence": 4294967295
        }
      ],
      "vout": [
        {
          "value": 50.0,
          "n": 0,
          "scriptPubKey": {
            "asm": "04f2f4312436ee4b9b8d82b360ced7143723f0a2868611d9f8d38acb00aa4deea9fecded4e27a0dd95dc8f92bb02ac2821a9c6ad3e8443a377b58d698c737fa735 OP_CHECKSIG",
            "desc": "pk(04f2f4312436ee4b9b8d82b360ced7143723f0a2868611d9f8d38acb00aa4deea9fecded4e27a0dd95dc8f92bb02ac2821a9c6ad3e8443a377b58d698c737fa735)#xy47ztgz",
            "hex": "4104f2f4312436ee4b9b8d82b360ced7143723f0a2868611d9f8d38acb00aa4deea9fecded4e27a0dd95dc8f92bb02ac2821a9c6ad3e8443a377b58d698c737fa735ac",
            "type": "pubkey"
          }
        }
      ],
      "hex": "01000000010000000000000000000000000000000000000000000000000000000000000000ffffffff0804ffff001d028301ffffffff0100f2052a01000000434104f2f4312436ee4b9b8d82b360ced7143723f0a2868611d9f8d38acb00aa4deea9fecded4e27a0dd95dc8f92bb02ac2821a9c6ad3e8443a377b58d698c737fa735ac00000000"
    }
  ]
}