{
  "hash": "0000000096802223977e8859bc89748566516f34656c33b9a74179078f78819b",
  "confirmations": 51933,
  "height": 1165,
  "version": 1,
  "versionHex": "00000001",
  "merkleroot": "4f7d132adf6b5351347152803441d0d135d38b6a8c93144ad025b75cf6406ef4",
  "time": 1232472056,
  "mediantime": 1232467835,
  "nonce": 780307229,
  "bits": "1d00ffff",
  "difficulty": 1,
  "chainwork": "0000000000000000000000000000000000000000000000000000048e048e048e",
  "nTx": 1,
  "previousblockhash": "0000000055c07c7afc4614c6eb8135233fbededd3560163c4f68ed2f7635a924",
  "nextblockhash": "00000000916b7ad3fe0820aace4b006c8f1b3cf31980d321bd6bed6dd62418e1",
  "strippedsize": 216,
  "size": 216,
  "weight": 864,
  "tx": [
    {
      "txid": "4f7d132adf6b5351347152803441d0d135d38b6a8c93144ad025b75cf6406ef4",
      "hash": "4f7d132adf6b5351347152803441d0d135d38b6a8c93144ad025b75cf6406ef4",
      "version": 1,
      "size": 135,
      "vsize": 135,
      "weight": 540,
      "locktime": 0,
      "vin": [
        {
          "coinbase": "04ffff001d020b08",
          "sequence": 4294967295
        }
      ],
      "vout": [
        {
          "value": 50.0,
          "n": 0,
          "scriptPubKey": {
            "asm": "041b9ea3aa5af052f5936fbe19f81f7f000f0365459c416163abc1c4248df4e9734c6e8f5525ab92a38a4f33cbadbab7d869c4813ff2b72fb6ab8b35541c0ec469 OP_CHECKSIG",
            "desc": "pk(041b9ea3aa5af052f5936fbe19f81f7f000f0365459c416163abc1c4248df4e9734c6e8f5525ab92a38a4f33cbadbab7d869c4813ff2b72fb6ab8b35541c0ec469)#fv7r6jhz",
            "hex": "41041b9ea3aa5af052f5936fbe19f81f7f000f0365459c416163abc1c4248df4e9734c6e8f5525ab92a38a4f33cbadbab7d869c4813ff2b72fb6ab8b35541c0ec469ac",
            "type": "pubkey"
          }
        }
      ],
      "hex": "01000000010000000000000000000000000000000000000000000000000000000000000000ffffffff0804ffff001d020b08ffffffff0100f2052a010000004341041b9ea3aa5af052f5936fbe19f81f7f000f0365459c416163abc1c4248df4e9734c6e8f5525ab92a38a4f33cbadbab7d869c4813ff2b72fb6ab8b35541c0ec469ac00000000"
    }
  ]
}