{
  "hash": "00000000f4e134a52dbead82682207886fe7e02f48370952e4cbed7b7386ac46",
  "confirmations": 47703,
  "height": 5395,
  "version": 1,
  "versionHex": "00000001",
  "merkleroot": "61aaddd98461b6dd242755547b1b9564df2e2f7060af3cf2ad3df4597f4c288a",
  "time": 1235436886,
  "mediantime": 1235432692,
  "nonce": 2390382105,
  "bits": "1d00ffff",
  "difficulty": 1,
  "chainwork": "0000000000000000000000000000000000000000000000000000151415141514",
  "nTx": 1,
  "previousblockhash": "00000000776099d8664f85b33208f9af14d271e2552ce812a4b83e0164c9366c",
  "nextblockhash": "000000006dac449ebd360fa161069dfd38693762019e978170707db68a2d6e2c",
  "strippedsize": 216,
  "size": 216,
  "weight": 864,
  "tx": [
    {
      "txid": "61aaddd98461b6dd242755547b1b9564df2e2f7060af3cf2ad3df4597f4c288a",
      "hash": "61aaddd98461b6dd242755547b1b9564df2e2f7060af3cf2ad3df4597f4c288a",
      "version": 1,
      "size": 135,
      "vsize": 135,
      "weight": 540,
      "locktime": 0,
      "vin": [
        {
          "coinbase": "04ffff001d029603",
          "sequence": 4294967295
        }
      ],
      "vout": [
        {
          "value": 50.0,
          "n": 0,
          "scriptPubKey": {
            "asm": "0417ebef23482dd1cb555198caaa07b3643383ff8c74c3436ccc1f11e35a58ff23e31346eba8356c8309b02511312cbb7e7d51e006b8b75fa2521f186127a608c9 OP_CHECKSIG",
            "desc": "pk(0417ebef23482dd1cb555198caaa07b3643383ff8c74c3436ccc1f11e35a58ff23e31346eba8356c8309b02511312cbb7e7d51e006b8b75fa2521f186127a608c9)#06z2w2rv",
            "hex": "410417ebef23482dd1cb555198caaa07b3643383ff8c74c3436ccc1f11e35a58ff23e31346eba8356c8309b02511312cbb7e7d51e006b8b75fa2521f186127a608c9ac",
            "type": "pubkey"
          }
        }
      ],
      "hex": "01000000010000000000000000000000000000000000000000000000000000000000000000ffffffff0804ffff001d029603ffffffff0100f2052a0100000043410417ebef23482dd1cb555198caaa07b3643383ff8c74c3436ccc1f11e35a58ff23e31346eba8356c8309b02511312cbb7e7d51e006b8b75fa2521f186127a608c9ac00000000"
    }
  ]
}