{
  "hash": "00000000d59f27729332440c835726320bfef8d414e570c6172f8de528717a45",
  "confirmations": 49466,
  "height": 3632,
  "version": 1,
  "versionHex": "00000001",
  "merkleroot": "79eb176e7cdef6717613a79d7310647cf07d70e0079441f2bf8883c4e44a9717",
  "time": 1234192369,
  "mediantime": 1234188887,
  "nonce": 153907339,
  "bits": "1d00ffff",
  "difficulty": 1,
  "chainwork": "00000000000000000000000000000000000000000000000000000e310e310e31",
  "nTx": 1,
  "previousblockhash": "00000000d1793f33f5ba85b8f2921c2d81ad4f111a5bd67fa1fc696cb4f9aa40",
  "nextblockhash": "00000000feda20cb72d180aca36f84ca83fe457cec92609f8b49e490854edf5b",
  "strippedsize": 215,
  "size": 215,
  "weight": 860,
  "tx": [
    {
      "txid": "79eb176e7cdef6717613a79d7310647cf07d70e0079441f2bf8883c4e44a9717",
      "hash": "79eb176e7cdef6717613a79d7310647cf07d70e0079441f2bf8883c4e44a9717",
      "version": 1,
      "size": 134,
      "vsize": 134,
      "weight": 536,
      "locktime": 0,
      "vin": [
        {
          "coinbase": "04ffff001d0115",
          "sequence": 4294967295
        }
      ],
      "vout": [
        {
          "value": 50.0,
          "n": 0,
          "scriptPubKey": {
            "asm": "04b3f44d45f2bd3e866fc57d5a536736c2157792aa7bc752ce973bd9e1c1895ac0cebce59bac9b723a68877249f2943d30ddd1f4c5891b9faa4de493e3ce172c21 OP_CHECKSIG",
            "desc": "pk(04b3f44d45f2bd3e866fc57d5a536736c2157792aa7bc752ce973bd9e1c1895ac0cebce59bac9b723a68877249f2943d30ddd1f4c5891b9faa4de493e3ce172c21)#8cny69e9",
            "hex": "4104b3f44d45f2bd3e866fc57d5a536736c2157792aa7bc752ce973bd9e1c1895ac0cebce59bac9b723a68877249f2943d30ddd1f4c5891b9faa4de493e3ce172c21ac",
            "type": "pubkey"
          }
        }
      ],
      "hex": "01000000010000000000000000000000000000000000000000000000000000000000000000ffffffff0704ffff001d0115ffffffff0100f2052a01000000434104b3f44d45f2bd3e866fc57d5a536736c2157792aa7bc752ce973bd9e1c1895ac0cebce59bac9b723a68877249f2943d30ddd1f4c5891b9faa4de493e3ce172c21ac00000000"
    }
  ]
}