{
  "hash": "00000000f8ad031b16ce8173faab150fdc34e16ac6516ab5229ae07f0f76ffed",
  "confirmations": 43501,
  "height": 9597,
  "version": 1,
  "versionHex": "00000001",
  "merkleroot": "9c5263c27cac7331404eaccfbdc7f04c8835d4e7d9205e2e6620073d5148a2da",
  "time": 1238698085,
  "mediantime": 1238694723,
  "nonce": 646754311,
  "bits": "1d00ffff",
  "difficulty": 1,
  "chainwork": "0000000000000000000000000000000000000000000000000000257e257e257e",
  "nTx": 1,
  "previousblockhash": "0000000028f4d8160b371beea8a1cc36b026aaeff1c9e4bf0d05cfa5dc4599fd",
  "nextblockhash": "000000000ac3ed525cab5b76f0858fe59d0677b7e99933406903d18cc0a86899",
  "strippedsize": 216,
  "size": 216,
  "weight": 864,
  "tx": [
    {
      "txid": "9c5263c27cac7331404eaccfbdc7f04c8835d4e7d9205e2e6620073d5148a2da",
      "hash": "9c5263c27cac7331404eaccfbdc7f04c8835d4e7d9205e2e6620073d5148a2da",
      "version": 1,
      "size": 135,
      "vsize": 135,
      "weight": 540,
      "locktime": 0,
      "vin": [
        {
          "coinbase": "04ffff001d020a07",
          "sequence": 4294967295
        }
      ],
      "vout": [
        {
          "value": 50.0,
          "n": 0,
          "scriptPubKey": {
            "asm": "0420e5c0ed5a6c7f8770877064736f9b5ac5d3f929e26e962ed3a0ffe72f6d865121d1cc9436d42ddde67bfbd5606d4d8ab5c8c0a37d948854151eb83c521f92d1 OP_CHECKSIG",
            "desc": "pk(0420e5c0ed5a6c7f8770877064736f9b5ac5d3f929e26e962ed3a0ffe72f6d865121d1cc9436d42ddde67bfbd5606d4d8ab5c8c0a37d948854151eb83c521f92d1)#m5tx7qs7",
            "hex": "410420e5c0ed5a6c7f8770877064736f9b5ac5d3f929e26e962ed3a0ffe72f6d865121d1cc9436d42ddde67bfbd5606d4d8ab5c8c0a37d948854151eb83c521f92d1ac",
            "type": "pubkey"
          }
        }
      ],
      "hex": "01000000010000000000000000000000000000000000000000000000000000000000000000ffffffff0804ffff001d020a07ffffffff0100f2052a0100000043410420e5c0ed5a6c7f8770877064736f9b5ac5d3f929e26e962ed3a0ffe72f6d865121d1cc9436d42ddde67bfbd5606d4d8ab5c8c0a37d948854151eb83c521f92d1ac00000000"
    }
  ]
}