{
  "hash": "00000000b8ab6606548256f9501c74026847e3c4e16a25bde4d8c50a337ee92e",
  "confirmations": 45644,
  "height": 7454,
  "version": 1,
  "versionHex": "00000001",
  "merkleroot": "5879a555c1089920ba58df4b6ff57747a4566a955a94614444b2d80a401c6934",
  "time": 1237066758,
  "mediantime": 1237061647,
  "nonce": 1328647426,
  "bits": "1d00ffff",
  "difficulty": 1,
  "chainwork": "00000000000000000000000000000000000000000000000000001d1f1d1f1d1f",
  "nTx": 1,
  "previousblockhash": "00000000625035cc71f2053ef141142fba0460953d0e64b39775b5688c5d9c26",
  "nextblockhash": "00000000340242be6430f943ea1cf1c10dd79d3055a8a0cd23cde3cd026e6604",
  "strippedsize": 215,
  "size": 215,
  "weight": 860,
  "tx": [
    {
      "txid": "5879a555c1089920ba58df4b6ff57747a4566a955a94614444b2d80a401c6934",
      "hash": "5879a555c1089920ba58df4b6ff57747a4566a955a94614444b2d80a401c6934",
      "version": 1,
      "size": 134,
      "vsize": 134,
      "weight": 536,
      "locktime": 0,
      "vin": [
        {
          "coinbase": "04ffff001d0135",
          "sequence": 4294967295
        }
      ],
      "vout": [
        {
          "value": 50.0,
          "n": 0,
          "scriptPubKey": {
            "asm": "045d30462f04380597a7b0a3d470aa642fcc88ae0105d116c0b88c5c41ecfa3e722bb9e2c22f0cf1cb589826b9ac3ff0cf5af53954a017febcecd4658c9f842e0f OP_CHECKSIG",
            "desc": "pk(045d30462f04380597a7b0a3d470aa642fcc88ae0105d116c0b88c5c41ecfa3e722bb9e2c22f0cf1cb589826b9ac3ff0cf5af53954a017febcecd4658c9f842e0f)#zwq26hha",
            "hex": "41045d30462f04380597a7b0a3d470aa642fcc88ae0105d116c0b88c5c41ecfa3e722bb9e2c22f0cf1cb589826b9ac3ff0cf5af53954a017febcecd4658c9f842e0fac",
            "type": "pubkey"
          }
        }
      ],
      "hex": "01000000010000000000000000000000000000000000000000000000000000000000000000ffffffff0704ffff001d0135ffffffff0100f2052a010000004341045d30462f04380597a7b0a3d470aa642fcc88ae0105d116c0b88c5c41ecfa3e722bb9e2c22f0cf1cb589826b9ac3ff0cf5af53954a017febcecd4658c9f842e0fac00000000"
    }
  ]
}