{
  "hash": "0000000066cbbcb55f6023be629a23bef0583627b3bbf54865fbc31d83f91560",
  "confirmations": 45370,
  "height": 7728,
  "version": 1,
  "versionHex": "00000001",
  "merkleroot": "502f8485fb4465fed56d8d72bc8c602aa3d708e76163e49fdb6da7ea4e67340f",
  "time": 1237258887,
  "mediantime": 1237256020,
  "nonce": 3094497056,
  "bits": "1d00ffff",
  "difficulty": 1,
  "chainwork": "00000000000000000000000000000000000000000000000000001e311e311e31",
  "nTx": 1,
  "previousblockhash": "000000002fe2be87ebc31bbea82b4e735de13cb6337fb80dc3baddc01fc89205",
  "nextblockhash": "000000004035bc39ab7fb13986867d122e6d6b777f6026f0339a5e297b71b7c6",
  "strippedsize": 216,
  "size": 216,
  "weight": 864,
  "tx": [
    {
      "txid": "502f8485fb4465fed56d8d72bc8c602aa3d708e76163e49fdb6da7ea4e67340f",
      "hash": "502f8485fb4465fed56d8d72bc8c602aa3d708e76163e49fdb6da7ea4e67340f",
      "version": 1,
      "size": 135,
      "vsize": 135,
      "weight": 540,
      "locktime": 0,
      "vin": [
        {
          "coinbase": "04ffff001d02a404",
          "sequence": 4294967295
        }
      ],
      "vout": [
        {
          "value": 50.0,
          "n": 0,
          "scriptPubKey": {
            "asm": "04840c1a142d27b30380089338ee76dd37cf758dec35e09e703b785336a9fefe93f724d18f504af18af1f0594a4ec509f891a21fe66379072833f0fb0d1547e06c OP_CHECKSIG",
            "desc": "pk(04840c1a142d27b30380089338ee76dd37cf758dec35e09e703b785336a9fefe93f724d18f504af18af1f0594a4ec509f891a21fe66379072833f0fb0d1547e06c)#lqeh03qk",
            "hex": "4104840c1a142d27b30380089338ee76dd37cf758dec35e09e703b785336a9fefe93f724d18f504af18af1f0594a4ec509f891a21fe66379072833f0fb0d1547e06cac",
            "type": "pubkey"
          }
        }
      ],
      "hex": "01000000010000000000000000000000000000000000000000000000000000000000000000ffffffff0804ffff001d02a404ffffffff0100f2052a01000000434104840c1a142d27b30380089338ee76dd37cf758dec35e09e703b785336a9fefe93f724d18f504af18af1f0594a4ec509f891a21fe66379072833f0fb0d1547e06cac00000000"
    }
  ]
}