{
  "hash": "0000000054be58a206f6d11d4ce49f7e5164c071559a6520a5e5aeab3fe42f7d",
  "confirmations": 43675,
  "height": 9423,
  "version": 1,
  "versionHex": "00000001",
  "merkleroot": "6e30d15e131846ba666a44bae30e6a4c71ab0ab1ddc2f8741649487353bcdf87",
  "time": 1238570501,
  "mediantime": 1238566819,
  "nonce": 2436624152,
  "bits": "1d00ffff",
  "difficulty": 1,
  "chainwork": "000000000000000000000000000000000000000000000000000024d024d024d0",
  "nTx": 1,
  "previousblockhash": "00000000795e7c45910089c42d961483b7c4c0a6d39567e7476d353533688bd9",
  "nextblockhash": "00000000c71e4013d596ab7f2c5bf520d72905690425a4ee35edde7fe4ebe3b0",
  "strippedsize": 216,
  "size": 216,
  "weight": 864,
  "tx": [
    {
      "txid": "6e30d15e131846ba666a44bae30e6a4c71ab0ab1ddc2f8741649487353bcdf87",
      "hash": "6e30d15e131846ba666a44bae30e6a4c71ab0ab1ddc2f8741649487353bcdf87",
      "version": 1,
      "size": 135,
      "vsize": 135,
      "weight": 540,
      "locktime": 0,
      "vin": [
        {
          "coinbase": "04ffff001d02fd03",
          "sequence": 4294967295
        }
      ],
      "vout": [
        {
          "value": 50.0,
          "n": 0,
          "scriptPubKey": {
            "asm": "0446b61289081f50a4beb7bc9d2d3111fd9d65b428e59d3ed3daf198b84100a9207b35f6241662e073629b966ebe5532ce5452dc6d1298dc9ad7b17ca5caecb6ab OP_CHECKSIG",
            "desc": "pk(0446b61289081f50a4beb7bc9d2d3111fd9d65b428e59d3ed3daf198b84100a9207b35f6241662e073629b966ebe5532ce5452dc6d1298dc9ad7b17ca5caecb6ab)#euhv74a8",
            "hex": "410446b61289081f50a4beb7bc9d2d3111fd9d65b428e59d3ed3daf198b84100a9207b35f6241662e073629b966ebe5532ce5452dc6d1298dc9ad7b17ca5caecb6abac",
            "type": "pubkey"
          }
        }
      ],
      "hex": "01000000010000000000000000000000000000000000000000000000000000000000000000ffffffff0804ffff001d02fd03ffffffff0100f2052a0100000043410446b61289081f50a4beb7bc9d2d3111fd9d65b428e59d3ed3daf198b84100a9207b35f6241662e073629b966ebe5532ce5452dc6d1298dc9ad7b17ca5caecb6abac00000000"
    }
  ]
}