{
  "hash": "00000000830d8355ed59793ef81a824c2f613847b6cd03478920c5efe42ef837",
  "confirmations": 48248,
  "height": 4850,
  "version": 1,
  "versionHex": "00000001",
  "merkleroot": "24f3f1a016690c63786d5e3eb8f0c26851754dab56d455cb7f331fb167d98727",
  "time": 1235037688,
  "mediantime": 1235033943,
  "nonce": 3330056221,
  "bits": "1d00ffff",
  "difficulty": 1,
  "chainwork": "000000000000000000000000000000000000000000000000000012f312f312f3",
  "nTx": 1,
  "previousblockhash": "0000000045230720665b31af15474a6ccad9f3f9a10f5c9465464b1498c74818",
  "nextblockhash": "0000000030f5e3d36e4e5e63c7eb5372511e468483907b13e91eb9b8b8f55833",
  "strippedsize": 216,
  "size": 216,
  "weight": 864,
  "tx": [
    {
      "txid": "24f3f1a016690c63786d5e3eb8f0c26851754dab56d455cb7f331fb167d98727",
      "hash": "24f3f1a016690c63786d5e3eb8f0c26851754dab56d455cb7f331fb167d98727",
      "version": 1,
      "size": 135,
      "vsize": 135,
      "weight": 540,
      "locktime": 0,
      "vin": [
        {
          "coinbase": "04ffff001d021905",
          "sequence": 4294967295
        }
      ],
      "vout": [
        {
          "value": 50.0,
          "n": 0,
          "scriptPubKey": {
            "asm": "040452adcc3ede84c64375cd79f20f3467f804ce24506104aadf83de7b038dde2cd60b75c496108936a31d8dae1ab61cf246e90808c615cd2e2ffe323717f2ee63 OP_CHECKSIG",
            "desc": "pk(040452adcc3ede84c64375cd79f20f3467f804ce24506104aadf83de7b038dde2cd60b75c496108936a31d8dae1ab61cf246e90808c615cd2e2ffe323717f2ee63)#d07v3z3l",
            "hex": "41040452adcc3ede84c64375cd79f20f3467f804ce24506104aadf83de7b038dde2cd60b75c496108936a31d8dae1ab61cf246e90808c615cd2e2ffe323717f2ee63ac",
            "type": "pubkey"
          }
        }
      ],
      "hex": "01000000010000000000000000000000000000000000000000000000000000000000000000ffffffff0804ffff001d021905ffffffff0100f2052a010000004341040452adcc3ede84c64375cd79f20f3467f804ce24506104aadf83de7b038dde2cd60b75c496108936a31d8dae1ab61cf246e90808c615cd2e2ffe323717f2ee63ac00000000"
    }
  ]
}