{
  "hash": "000000001052ca40f382b01b9640bf8150e64746ee3346f33679dd8431bb7df0",
  "confirmations": 50821,
  "height": 2277,
  "version": 1,
  "versionHex": "00000001",
  "merkleroot": "833da5474df9560eb5d702be24d48e1ad5106e8d1fb83c3b173bc36954d96be9",
  "time": 1233264990,
  "mediantime": 1233261250,
  "nonce": 3246475781,
  "bits": "1d00ffff",
  "difficulty": 1,
  "chainwork": "000000000000000000000000000000000000000000000000000008e608e608e6",
  "nTx": 2,
  "previousblockhash": "0000000017ce60547cbc7106176fc3db42709d2cc2e669863a4409a4d67a58f7",
  "nextblockhash": "00000000b3dd2017a779d84a62d2f63aeee8fdc9c8c02ceb236988a621b00502",
  "strippedsize": 1633,
  "size": 1633,
  "weight": 6532,
  "tx": [
    {
      "txid": "a30bb26a7ad32140e5d1edcf37fcf74ed581a45fdedffa2a2593248f19135c0b",
      "hash": "a30bb26a7ad32140e5d1edcf37fcf74ed581a45fdedffa2a2593248f19135c0b",
      "version": 1,
      "size": 135,
      "vsize": 135,
      "weight": 540,
      "locktime": 0,
      "vin": [
        {
          "coinbase": "04ffff001d024801",
          "sequence": 4294967295
        }
      ],
      "vout": [
        {
          "value": 50.0,
          "n": 0,
          "scriptPubKey": {
            "asm": "0443d89a805e9d235d760e5ecf176672c52381971e3d0bc877c9ece9220b9b8421f3881fcedfd1069dc7cb5a175826e48dd8c3ecbc4348fc2b3a0d6320fccf6b81 OP_CHECKSIG",
            "desc": "pk(0443d89a805e9d235d760e5ecf176672c52381971e3d0bc877c9ece9220b9b8421f3881fcedfd1069dc7cb5a175826e48dd8c3ecbc4348fc2b3a0d6320fccf6b81)#fx0vvfrc",
            "hex": "410443d89a805e9d235d760e5ecf176672c52381971e3d0bc877c9ece9220b9b8421f3881fcedfd1069dc7cb5a175826e48dd8c3ecbc4348fc2b3a0d6320fccf6b81ac",
            "type": "pubkey"
          }
        }
      ],
      "hex": "01000000010000000000000000000000000000000000000000000000000000000000000000ffffffff0804ffff001d024801ffffffff0100f2052a0100000043410443d89a805e9d235d760e5ecf176672c52381971e3d0bc877c9ece9220b9b8421f3881fcedfd1069dc7cb5a175826e48dd8c3ecbc4348fc2b3a0d6320fccf6b81ac00000000"
    },
    {
      "txid": "0da3014156ed70f8274a968a2000840c5740254d98835d0690c65efa5f10912e",
      "hash": "0da3014156ed70f8274a968a2000840c5740254d98835d0690c65efa5f10912e",
      "version": 1,
      "size": 1417,
      "vsize": 1417,
      "weight": 5668,
      "locktime": 0,
      "vin": [
        {
          "txid": "45c1ee26b751a205ab95bb7c68f2496c90b19a86ffdb0faa337114513d75de09",
          "vout": 0,
          "scriptSig": {
            "asm": "3046022100af434a144a1b41b1297124141c1808a79c764b0a589530d4ad9a4f5e25bad990022100f654609affcc4ece5df7dd35509853f326ce1c099c0fdaf84509065fef2a5359[ALL]",
            "hex": "493046022100af434a144a1b41b1297124141c1808a79c764b0a589530d4ad9a4f5e25bad990022100f654609affcc4ece5df7dd35509853f326ce1c099c0fdaf84509065fef2a535901"
          },
          "sequence": 4294967295
        },
        {
          "txid": "4565320246cefca135975502834835497bcddb1f3bb0057b547ace4f2a39f7e7",
          "vout": 0,
          "scriptSig": {
            "asm": "3045022100ea94200ca9f3f3b2484be3a82eb188563f8ff85bd825ab1fcab83ead8c02b677022065c14b9e8b6f1b452cedde21809a9cdc1b52f2cb698c984f2d416749eca50d5a[ALL]",
            "hex": "483045022100ea94200ca9f3f3b2484be3a82eb188563f8ff85bd825ab1fcab83ead8c02b677022065c14b9e8b6f1b452cedde21809a9cdc1b52f2cb698c984f2d416749eca50d5a01"
          },
          "sequence": 4294967295
        },
        {
          "txid": "1e6b8fb9ace8e230a6842071ae6831ab09e69bb5c2730c2e77f98e8b17264577",
          "vout": 0,
          "scriptSig": {
            "asm": "3046022100f2d6f5846c704b2f0aa0a15c672bf7874874d81cf5b1d73b28e28eea37c39891022100cc84c49ebc1ae0b5a6794e90fe56d121c6a9a7310898a65737c3edbbeaefcb38[ALL]",
            "hex": "493046022100f2d6f5846c704b2f0aa0a15c672bf7874874d81cf5b1d73b28e28eea37c39891022100cc84c49ebc1ae0b5a6794e90fe56d121c6a9a7310898a65737c3edbbeaefcb3801"
          },
          "sequence": 4294967295
        },
        {
          "txid": "8af29c0eeeb9ff3ec1572aec5baab0f50f9d67eb5bd160bb8d09f50df381dcf9",
          "vout": 0,
          "scriptSig": {
            "asm": "304502201f3478e93f8ad56a1f64db2b9aa225023477b747850ae5185fe564e9b115e880022100cfb064585fdec49f3c5ef66e55b6e585d20647ba29d9c6d0ea5f05e61fd9cc17[ALL]",
            "hex": "48304502201f3478e93f8ad56a1f64db2b9aa225023477b747850ae5185fe564e9b115e880022100cfb064585fdec49f3c5ef66e55b6e585d20647ba29d9c6d0ea5f05e61fd9cc1701"
          },
          "sequence": 4294967295
        },
        {
          "txid": "fefff8fa65eb66d7bbff8dc61c793b855944bb99b89aaaab3cd54f2dfe15de5a",
          "vout": 0,
          "scriptSig": {
            "asm": "3046022100817a4fc3e8e4de9f056b3629b9f4dbff3debd661cb99ce108072bda2c51d989c0221009e97cb14436a9578cbc0ecd266888bb2f36ef738a1c33c1c521aa23a2676d7dc[ALL]",
            "hex": "493046022100817a4fc3e8e4de9f056b3629b9f4dbff3debd661cb99ce108072bda2c51d989c0221009e97cb14436a9578cbc0ecd266888bb2f36ef738a1c33c1c521aa23a2676d7dc01"
          },
          "sequence": 4294967295
        },
        {
          "txid": "3ad53b96a282727e7673b8228252b5b2c683eec6b0afd84c21267ada2e40f928",
          "vout": 0,
          "scriptSig": {
            "asm": "3045022040af37d6fe2f5e38dca4e98fccff3b057f730d6bee9f81fe7f825bdf388b26c7022100f53be622168f0fa58412772116090b0408cc2833b5772e39a869e186594b9bb3[ALL]",
            "hex": "483045022040af37d6fe2f5e38dca4e98fccff3b057f730d6bee9f81fe7f825bdf388b26c7022100f53be622168f0fa58412772116090b0408cc2833b5772e39a869e186594b9bb301"
          },
          "sequence": 4294967295
        },
        {
          "txid": "d3d28f3f74eed18debb53ebb0b131601a02841dcd15280ec3ddc59c8a7f6b269",
          "vout": 0,
          "scriptSig": {
            "asm": "3046022100b2d3c287543d9a8c02b8d35f273b9c0b20436f456d2f23e03b123bc96bc05adf022100ddbd8fd77d38b8abd1936eb56b575f69ed39e42274fa0700f0b1117e9f38c0ce[ALL]",
            "hex": "493046022100b2d3c287543d9a8c02b8d35f273b9c0b20436f456d2f23e03b123bc96bc05adf022100ddbd8fd77d38b8abd1936eb56b575f69ed39e42274fa0700f0b1117e9f38c0ce01"
          },
          "sequence": 4294967295
        },
        {
          "txid": "8ef3d10a554637cd1c8f364be4587b48c26ea80cbc49659f6d2c5121e1245f84",
          "vout": 0,
          "scriptSig": {
            "asm": "3046022100bf20a0cba79518c9d074a835e6c2fdc7655e19a8af9bca19396aa161d8579ad2022100ae052e1e4491cd627c495a352f66111c9b4e797a8784f4286506dbd272353494[ALL]",
            "hex": "493046022100bf20a0cba79518c9d074a835e6c2fdc7655e19a8af9bca19396aa161d8579ad2022100ae052e1e4491cd627c495a352f66111c9b4e797a8784f4286506dbd27235349401"
          },
          "sequence": 4294967295
        },
        {
          "txid": "97d76423435aeebd4dd5de83e7f4c90ab1364c3ce03ea5c2b77891409516c17f",
          "vout": 0,
          "scriptSig": {
            "asm": "3044022072b268013c40b1fee0e5de85e316f32cd3e3856cf53ed0c3982814000d6d1f9b02201eee3563dd12ac222ec97cdf7f628e1eddfabc60253d503a985511893d31fbd0[ALL]",
            "hex": "473044022072b268013c40b1fee0e5de85e316f32cd3e3856cf53ed0c3982814000d6d1f9b02201eee3563dd12ac222ec97cdf7f628e1eddfabc60253d503a985511893d31fbd001"
          },
          "sequence": 4294967295
        },
        {
          "txid": "a327e772d25987aaae8176f8bbe2d4d1e546f7d9a6fdc2838c4690167b534c15",
          "vout": 0,
          "scriptSig": {
            "asm": "3046022100fbbac336e35bdb9ce3a3156d1cc1823baf9adc5b409eeed850062177cebadc91022100b19e1b863c85f5204c77367b2fba031d66218163206ed29f879b4c5c01e75715[ALL]",
            "hex": "493046022100fbbac336e35bdb9ce3a3156d1cc1823baf9adc5b409eeed850062177cebadc91022100b19e1b863c85f5204c77367b2fba031d66218163206ed29f879b4c5c01e7571501"
          },
          "sequence": 4294967295
        },
        {
          "txid": "64ce9f97f4a8e95574068cf4ba9959911d47be86e1a50b81d78f7d366b2d05a4",
          "vout": 0,
          "scriptSig": {
            "asm": "3045022100c767ad483ba6b6ef4ce794027fa7dd4f643a70bae647b5c82790a53f53638c360220069f115affee11117257e33fccb04d63b948e45162d0fcee7d7ec519af6f81ca[ALL]",
            "hex": "483045022100c767ad483ba6b6ef4ce794027fa7dd4f643a70bae647b5c82790a53f53638c360220069f115affee11117257e33fccb04d63b948e45162d0fcee7d7ec519af6f81ca01"
          },
          "sequence": 4294967295
        },
        {
          "txid": "c90384f5cc083a25bd977a51bba71066575590fead0bf5b455ccfb1e96f20cca",
          "vout": 0,
          "scriptSig": {
            "asm": "3045022100db423ea5f892e6f728f1f15f0897a2b0db909659b2944884c0f48801ea36549702206ee752d43f1d51bfb5d5be705face81c808538350786821682ba1bc6ec3dc4b1[ALL]",
            "hex": "483045022100db423ea5f892e6f728f1f15f0897a2b0db909659b2944884c0f48801ea36549702206ee752d43f1d51bfb5d5be705face81c808538350786821682ba1bc6ec3dc4b101"
          },
          "sequence": 4294967295
        }
      ],
      "vout": [
        {
          "value": 600.0,
          "n": 0,
          "scriptPubKey": {
            "asm": "OP_DUP OP_HASH160 12ab8dc588ca9d5787dde7eb29569da63c3a238c OP_EQUALVERIFY OP_CHECKSIG",
            "desc": "addr(12higDjoCCNXSA95xZMWUdPvXNmkAduhWv)#zn56zju2",
            "hex": "76a91412ab8dc588ca9d5787dde7eb29569da63c3a238c88ac",
            "address": "12higDjoCCNXSA95xZMWUdPvXNmkAduhWv",
            "type": "pubkeyhash"
          }
        }
      ],
      "fee": 0.0,
      "hex": "010000000c09de753d51147133aa0fdbff869ab1906c49f2687cbb95ab05a251b726eec145000000004a493046022100af434a144a1b41b1297124141c1808a79c764b0a589530d4ad9a4f5e25bad990022100f654609affcc4ece5df7dd35509853f326ce1c099c0fdaf84509065fef2a535901ffffffffe7f7392a4fce7a547b05b03b1fdbcd7b4935488302559735a1fcce46023265450000000049483045022100ea94200ca9f3f3b2484be3a82eb188563f8ff85bd825ab1fcab83ead8c02b677022065c14b9e8b6f1b452cedde21809a9cdc1b52f2cb698c984f2d416749eca50d5a01ffffffff774526178b8ef9772e0c73c2b59be609ab3168ae712084a630e2e8acb98f6b1e000000004a493046022100f2d6f5846c704b2f0aa0a15c672bf7874874d81cf5b1d73b28e28eea37c39891022100cc84c49ebc1ae0b5a6794e90fe56d121c6a9a7310898a65737c3edbbeaefcb3801fffffffff9dc81f30df5098dbb60d15beb679d0ff5b0aa5bec2a57c13effb9ee0e9cf28a000000004948304502201f3478e93f8ad56a1f64db2b9aa225023477b747850ae5185fe564e9b115e880022100cfb064585fdec49f3c5ef66e55b6e585d20647ba29d9c6d0ea5f05e61fd9cc1701ffffffff5ade15fe2d4fd53cabaa9ab899bb4459853b791cc68dffbbd766eb65faf8fffe000000004a493046022100817a4fc3e8e4de9f056b3629b9f4dbff3debd661cb99ce108072bda2c51d989c0221009e97cb14436a9578cbc0ecd266888bb2f36ef738a1c33c1c521aa23a2676d7dc01ffffffff28f9402eda7a26214cd8afb0c6ee83c6b2b5528222b873767e7282a2963bd53a0000000049483045022040af37d6fe2f5e38dca4e98fccff3b057f730d6bee9f81fe7f825bdf388b26c7022100f53be622168f0fa58412772116090b0408cc2833b5772e39a869e186594b9bb301ffffffff69b2f6a7c859dc3dec8052d1dc4128a00116130bbb3eb5eb8dd1ee743f8fd2d3000000004a493046022100b2d3c287543d9a8c02b8d35f273b9c0b20436f456d2f23e03b123bc96bc05adf022100ddbd8fd77d38b8abd1936eb56b575f69ed39e42274fa0700f0b1117e9f38c0ce01ffffffff845f24e121512c6d9f6549bc0ca86ec2487b58e44b368f1ccd3746550ad1f38e000000004a493046022100bf20a0cba79518c9d074a835e6c2fdc7655e19a8af9bca19396aa161d8579ad2022100ae052e1e4491cd627c495a352f66111c9b4e797a8784f4286506dbd27235349401ffffffff7fc11695409178b7c2a53ee03c4c36b10ac9f4e783ded54dbdee5a432364d7970000000048473044022072b268013c40b1fee0e5de85e316f32cd3e3856cf53ed0c3982814000d6d1f9b02201eee3563dd12ac222ec97cdf7f628e1eddfabc60253d503a985511893d31fbd001ffffffff154c537b1690468c83c2fda6d9f746e5d1d4e2bbf87681aeaa8759d272e727a3000000004a493046022100fbbac336e35bdb9ce3a3156d1cc1823baf9adc5b409eeed850062177cebadc91022100b19e1b863c85f5204c77367b2fba031d66218163206ed29f879b4c5c01e7571501ffffffffa4052d6b367d8fd7810ba5e186be471d915999baf48c067455e9a8f4979fce640000000049483045022100c767ad483ba6b6ef4ce794027fa7dd4f643a70bae647b5c82790a53f53638c360220069f115affee11117257e33fccb04d63b948e45162d0fcee7d7ec519af6f81ca01ffffffffca0cf2961efbcc55b4f50badfe9055576610a7bb517a97bd253a08ccf58403c90000000049483045022100db423ea5f892e6f728f1f15f0897a2b0db909659b2944884c0f48801ea36549702206ee752d43f1d51bfb5d5be705face81c808538350786821682ba1bc6ec3dc4b101ffffffff01005847f80d0000001976a91412ab8dc588ca9d5787dde7eb29569da63c3a238c88ac00000000"
    }
  ]
}