{
  "hash": "0000000083a8010a8c77c6e96e00586d04562dfc58d26a1dcf6520e73d1e5978",
  "confirmations": 50655,
  "height": 2443,
  "version": 1,
  "versionHex": "00000001",
  "merkleroot": "eeb2ad745d49a245070e2dbe4e38850fc4adeb3013808d4e3ff3fe5238e44789",
  "time": 1233387696,
  "mediantime": 1233383847,
  "nonce": 2096668953,
  "bits": "1d00ffff",
  "difficulty": 1,
  "chainwork": "0000000000000000000000000000000000000000000000000000098c098c098c",
  "nTx": 1,
  "previousblockhash": "00000000ef4330252e7d461a200c5a2208571b75e8645d18e4ebaa9ffc0c5ccd",
  "nextblockhash": "0000000012f2ec57a6dfdcd59b36dce7e9e33107a8b809b507b04b7076019a08",
  "strippedsize": 215,
  "size": 215,
  "weight": 860,
  "tx": [
    {
      "txid": "eeb2ad745d49a245070e2dbe4e38850fc4adeb3013808d4e3ff3fe5238e44789",
      "hash": "eeb2ad745d49a245070e2dbe4e38850fc4adeb3013808d4e3ff3fe5238e44789",
      "version": 1,
      "size": 134,
      "vsize": 134,
      "weight": 536,
      "locktime": 0,
      "vin": [
        {
          "coinbase": "04ffff001d016a",
          "sequence": 4294967295
        }
      ],
      "vout": [
        {
          "value": 50.0,
          "n": 0,
          "scriptPubKey": {
            "asm": "04f5eeb71a88f8737701fc134b108f197a16a3665e50bfabec8ec0da983214c75c3c14960548bafeefeaf5658a331403de5f94dcfbeb3d18dd87d1b2d3157a3e62 OP_CHECKSIG",
            "desc": "pk(04f5eeb71a88f8737701fc134b108f197a16a3665e50bfabec8ec0da983214c75c3c14960548bafeefeaf5658a331403de5f94dcfbeb3d18dd87d1b2d3157a3e62)#mvgus7zr",
            "hex": "4104f5eeb71a88f8737701fc134b108f197a16a3665e50bfabec8ec0da983214c75c3c14960548bafeefeaf5658a331403de5f94dcfbeb3d18dd87d1b2d3157a3e62ac",
            "type": "pubkey"
          }
        }
      ],
      "hex": "01000000010000000000000000000000000000000000000000000000000000000000000000ffffffff0704ffff001d016affffffff0100f2052a01000000434104f5eeb71a88f8737701fc134b108f197a16a3665e50bfabec8ec0da983214c75c3c14960548bafeefeaf5658a331403de5f94dcfbeb3d18dd87d1b2d3157a3e62ac00000000"
    }
  ]
}