{
  "hash": "0000000032a84330f142107f584cc68e863e2a95c917229d322abe4c6a8b9656",
  "confirmations": 46866,
  "height": 6232,
  "version": 1,
  "versionHex": "00000001",
  "merkleroot": "3796e27cdfff9f8afda0e2645800f5c60f12b6b727aaaa9b0df9554c87c718c5",
  "time": 1236118415,
  "mediantime": 1236113905,
  "nonce": 1303535621,
  "bits": "1d00ffff",
  "difficulty": 1,
  "chainwork": "0000000000000000000000000000000000000000000000000000185918591859",
  "nTx": 1,
  "previousblockhash": "00000000db50a10eeeab0f2111c2ddab9daffa42cfdadc5bdf343824f2b22aab",
  "nextblockhash": "000000002923000bfc24029d479d2d76e76c106e7b0e52c359f14f81ead6fb83",
  "strippedsize": 216,
  "size": 216,
  "weight": 864,
  "tx": [
    {
      "txid": "3796e27cdfff9f8afda0e2645800f5c60f12b6b727aaaa9b0df9554c87c718c5",
      "hash": "3796e27cdfff9f8afda0e2645800f5c60f12b6b727aaaa9b0df9554c87c718c5",
      "version": 1,
      "size": 135,
      "vsize": 135,
      "weight": 540,
      "locktime": 0,
      "vin": [
        {
          "coinbase": "04ffff001d022c09",
          "sequence": 4294967295
        }
      ],
      "vout": [
        {
          "value": 50.0,
          "n": 0,
          "scriptPubKey": {
            "asm": "04022dfa21ec3fb24223f02922cd893fefcd629b5b5965239a5e29beea9d4fe7a06b15f46f8898ca7e6301bf0c9c988f556acef29ef7e458ab9c0d1707ab58381a OP_CHECKSIG",
            "desc": "pk(04022dfa21ec3fb24223f02922cd893fefcd629b5b5965239a5e29beea9d4fe7a06b15f46f8898ca7e6301bf0c9c988f556acef29ef7e458ab9c0d1707ab58381a)#e8q5ynhu",
            "hex": "4104022dfa21ec3fb24223f02922cd893fefcd629b5b5965239a5e29beea9d4fe7a06b15f46f8898ca7e6301bf0c9c988f556acef29ef7e458ab9c0d1707ab58381aac",
            "type": "pubkey"
          }
        }
      ],
      "hex": "01000000010000000000000000000000000000000000000000000000000000000000000000ffffffff0804ffff001d022c09ffffffff0100f2052a01000000434104022dfa21ec3fb24223f02922cd893fefcd629b5b5965239a5e29beea9d4fe7a06b15f46f8898ca7e6301bf0c9c988f556acef29ef7e458ab9c0d1707ab58381aac00000000"
    }
  ]
}