{
  "hash": "0000000050947d271497480d525e1f0349467646e774e1184a83aa8e7736683b",
  "confirmations": 46408,
  "height": 6690,
  "version": 1,
  "versionHex": "00000001",
  "merkleroot": "c2e5af12734c07244809b02621bfb6634f4679b95605f779fea42a9bf6e2d7b9",
  "time": 1236476609,
  "mediantime": 1236471618,
  "nonce": 2859340315,
  "bits": "1d00ffff",
  "difficulty": 1,
  "chainwork": "00000000000000000000000000000000000000000000000000001a231a231a23",
  "nTx": 1,
  "previousblockhash": "00000000c25163f1d9e92bcf1e311c5c246e75e97469fc10fc0429462bbf59b1",
  "nextblockhash": "00000000703fba258cf11ad0704c0156cabd2e962f6c0c8218996ba791388dff",
  "strippedsize": 216,
  "size": 216,
  "weight": 864,
  "tx": [
    {
      "txid": "c2e5af12734c07244809b02621bfb6634f4679b95605f779fea42a9bf6e2d7b9",
      "hash": "c2e5af12734c07244809b02621bfb6634f4679b95605f779fea42a9bf6e2d7b9",
      "version": 1,
      "size": 135,
      "vsize": 135,
      "weight": 540,
      "locktime": 0,
      "vin": [
        {
          "coinbase": "04ffff001d02cb06",
          "sequence": 4294967295
        }
      ],
      "vout": [
        {
          "value": 50.0,
          "n": 0,
          "scriptPubKey": {
            "asm": "041f73fd9325bdaef449a56be29ec2502b033853d55aca3315dfbf364a7ec5d8179928e6e8b674a2ecae5b5009c148dab76dd16cb17dc94a171c1424383ef8d280 OP_CHECKSIG",
            "desc": "pk(041f73fd9325bdaef449a56be29ec2502b033853d55aca3315dfbf364a7ec5d8179928e6e8b674a2ecae5b5009c148dab76dd16cb17dc94a171c1424383ef8d280)#vra0gdnc",
            "hex": "41041f73fd9325bdaef449a56be29ec2502b033853d55aca3315dfbf364a7ec5d8179928e6e8b674a2ecae5b5009c148dab76dd16cb17dc94a171c1424383ef8d280ac",
            "type": "pubkey"
          }
        }
      ],
      "hex": "01000000010000000000000000000000000000000000000000000000000000000000000000ffffffff0804ffff001d02cb06ffffffff0100f2052a010000004341041f73fd9325bdaef449a56be29ec2502b033853d55aca3315dfbf364a7ec5d8179928e6e8b674a2ecae5b5009c148dab76dd16cb17dc94a171c1424383ef8d280ac00000000"
    }
  ]
}