{
  "hash": "00000000351892a119b67fcb13dfc9655e79e91215f8f9609bb6907cd1208e4d",
  "confirmations": 52181,
  "height": 482,
  "version": 1,
  "versionHex": "00000001",
  "merkleroot": "b329818e8d651e98d97ca43c55af62f9eb901141138255978c435b45023fb7e0",
  "time": 1231957046,
  "mediantime": 1231953157,
  "nonce": 170049568,
  "bits": "1d00ffff",
  "difficulty": 1,
  "chainwork": "000000000000000000000000000000000000000000000000000001e301e301e3",
  "nTx": 1,
  "previousblockhash": "0000000086a40870d82307ba993f27e4f2485578bcf0d50a6baee40b9199806e",
  "nextblockhash": "00000000ecffce6482a68bcd4f82511cbad2afd94d71469432501ca6a5f4811a",
  "strippedsize": 216,
  "size": 216,
  "weight": 864,
  "tx": [
    {
      "txid": "b329818e8d651e98d97ca43c55af62f9eb901141138255978c435b45023fb7e0",
      "hash": "b329818e8d651e98d97ca43c55af62f9eb901141138255978c435b45023fb7e0",
      "version": 1,
      "size": 135,
      "vsize": 135,
      "weight": 540,
      "locktime": 0,
      "vin": [
        {
          "coinbase": "04ffff001d023204",
          "sequence": 4294967295
        }
      ],
      "vout": [
        {
          "value": 50.0,
          "n": 0,
          "scriptPubKey": {
            "asm": "0443f2759f6badf548ec9682fe76f0eb20fdf6e681951babd9b8c3a2e78962c5d836c7135e1a4cdb0e762812b140c657ce598ad06ed94522843bc02602d4c9ee4b OP_CHECKSIG",
            "desc": "pk(0443f2759f6badf548ec9682fe76f0eb20fdf6e681951babd9b8c3a2e78962c5d836c7135e1a4cdb0e762812b140c657ce598ad06ed94522843bc02602d4c9ee4b)#apxun64e",
            "hex": "410443f2759f6badf548ec9682fe76f0eb20fdf6e681951babd9b8c3a2e78962c5d836c7135e1a4cdb0e762812b140c657ce598ad06ed94522843bc02602d4c9ee4bac",
            "type": "pubkey"
          }
        }
      ],
      "hex": "01000000010000000000000000000000000000000000000000000000000000000000000000ffffffff0804ffff001d023204ffffffff0100f2052a0100000043410443f2759f6badf548ec9682fe76f0eb20fdf6e681951babd9b8c3a2e78962c5d836c7135e1a4cdb0e762812b140c657ce598ad06ed94522843bc02602d4c9ee4bac00000000"
    }
  ]
}