{
  "hash": "00000000445bf8b54a7c8ffa6519555b267be41e76f8e18ae8e0b732b8c6e1f7",
  "confirmations": 44149,
  "height": 8949,
  "version": 1,
  "versionHex": "00000001",
  "merkleroot": "d62aad26e9aa94ba9b7b3138b29474922329cd2f62ebe67e29d3e55a788da2e4",
  "time": 1238217762,
  "mediantime": 1238212621,
  "nonce": 1989923353,
  "bits": "1d00ffff",
  "difficulty": 1,
  "chainwork": "000000000000000000000000000000000000000000000000000022f622f622f6",
  "nTx": 1,
  "previousblockhash": "000000009918edc82c3c26e02a241b00053c57339e4cb80a558b5a1a6a2c9c65",
  "nextblockhash": "0000000087540aa075d0ff6853003831137acc8a2677cf0574b676e202fcd9c4",
  "strippedsize": 216,
  "size": 216,
  "weight": 864,
  "tx": [
    {
      "txid": "d62aad26e9aa94ba9b7b3138b29474922329cd2f62ebe67e29d3e55a788da2e4",
      "hash": "d62aad26e9aa94ba9b7b3138b29474922329cd2f62ebe67e29d3e55a788da2e4",
      "version": 1,
      "size": 135,
      "vsize": 135,
      "weight": 540,
      "locktime": 0,
      "vin": [
        {
          "coinbase": "04ffff001d027505",
          "sequence": 4294967295
        }
      ],
      "vout": [
        {
          "value": 50.0,
          "n": 0,
          "scriptPubKey": {
            "asm": "048b69bc3fdeca308265efeda4989a02659220708793f34c6fca5f861ccaf3345202082bc53dba8fa164f8a02dae86577226d8013ebf12136d544c5f2fcfd2806a OP_CHECKSIG",
            "desc": "pk(048b69bc3fdeca308265efeda4989a02659220708793f34c6fca5f861ccaf3345202082bc53dba8fa164f8a02dae86577226d8013ebf12136d544c5f2fcfd2806a)#9wngh374",
            "hex": "41048b69bc3fdeca308265efeda4989a02659220708793f34c6fca5f861ccaf3345202082bc53dba8fa164f8a02dae86577226d8013ebf12136d544c5f2fcfd2806aac",
            "type": "pubkey"
          }
        }
      ],
      "hex": "01000000010000000000000000000000000000000000000000000000000000000000000000ffffffff0804ffff001d027505ffffffff0100f2052a010000004341048b69bc3fdeca308265efeda4989a02659220708793f34c6fca5f861ccaf3345202082bc53dba8fa164f8a02dae86577226d8013ebf12136d544c5f2fcfd2806aac00000000"
    }
  ]
}