{
  "hash": "000000000ab996d2666375cb2f0949f2d6dfe56598078a32c55a84b5c44bab38",
  "confirmations": 45970,
  "height": 7128,
  "version": 1,
  "versionHex": "00000001",
  "merkleroot": "54e354dddd728d670df3e9323c46717c11c8753931abdb6f7eb48c9571375da6",
  "time": 1236816460,
  "mediantime": 1236813090,
  "nonce": 2861287201,
  "bits": "1d00ffff",
  "difficulty": 1,
  "chainwork": "00000000000000000000000000000000000000000000000000001bd91bd91bd9",
  "nTx": 1,
  "previousblockhash": "00000000828a13145b671b1ce34203560f94d91b3d7097a42b68f9075ffa9c6f",
  "nextblockhash": "00000000219876fb06a0201a237403ad49ff78eaa0ee9fff4471ea5b207a5c99",
  "strippedsize": 216,
  "size": 216,
  "weight": 864,
  "tx": [
    {
      "txid": "54e354dddd728d670df3e9323c46717c11c8753931abdb6f7eb48c9571375da6",
      "hash": "54e354dddd728d670df3e9323c46717c11c8753931abdb6f7eb48c9571375da6",
      "version": 1,
      "size": 135,
      "vsize": 135,
      "weight": 540,
      "locktime": 0,
      "vin": [
        {
          "coinbase": "04ffff001d026404",
          "sequence": 4294967295
        }
      ],
      "vout": [
        {
          "value": 50.0,
          "n": 0,
          "scriptPubKey": {
            "asm": "0467d73256cd603e9f28be4bd389a23887f79fcc07fdc7ba902bcc59e890aaf9f407f2c4a8a4c183fd662e653d85b6123a739b7814eda74b9e7050274f34d7ae41 OP_CHECKSIG",
            "desc": "pk(0467d73256cd603e9f28be4bd389a23887f79fcc07fdc7ba902bcc59e890aaf9f407f2c4a8a4c183fd662e653d85b6123a739b7814eda74b9e7050274f34d7ae41)#aqz07vx7",
            "hex": "410467d73256cd603e9f28be4bd389a23887f79fcc07fdc7ba902bcc59e890aaf9f407f2c4a8a4c183fd662e653d85b6123a739b7814eda74b9e7050274f34d7ae41ac",
            "type": "pubkey"
          }
        }
      ],
      "hex": "01000000010000000000000000000000000000000000000000000000000000000000000000ffffffff0804ffff001d026404ffffffff0100f2052a0100000043410467d73256cd603e9f28be4bd389a23887f79fcc07fdc7ba902bcc59e890aaf9f407f2c4a8a4c183fd662e653d85b6123a739b7814eda74b9e7050274f34d7ae41ac00000000"
    }
  ]
}