{
  "hash": "000000009c8b925bf3883d823c47602f4e304ea665c7dfda9cbc9e7b550f5965",
  "confirmations": 50373,
  "height": 2725,
  "version": 1,
  "versionHex": "00000001",
  "merkleroot": "92f0481690a3af7f758be12221b29a86459b29e816cc49a4a4dfa4f2387560d9",
  "time": 1233581000,
  "mediantime": 1233576661,
  "nonce": 4269702682,
  "bits": "1d00ffff",
  "difficulty": 1,
  "chainwork": "00000000000000000000000000000000000000000000000000000aa60aa60aa6",
  "nTx": 1,
  "previousblockhash": "000000006f7257a170baafd603b8da9ad06695f9fa9fdd2c9f764099919b998c",
  "nextblockhash": "00000000beb2d3ca0b4e46a1fa2b2ed679f4bd4b4d36603ea4a7fb8fbf07cc67",
  "strippedsize": 216,
  "size": 216,
  "weight": 864,
  "tx": [
    {
      "txid": "92f0481690a3af7f758be12221b29a86459b29e816cc49a4a4dfa4f2387560d9",
      "hash": "92f0481690a3af7f758be12221b29a86459b29e816cc49a4a4dfa4f2387560d9",
      "version": 1,
      "size": 135,
      "vsize": 135,
      "weight": 540,
      "locktime": 0,
      "vin": [
        {
          "coinbase": "04ffff001d021d05",
          "sequence": 4294967295
        }
      ],
      "vout": [
        {
          "value": 50.0,
          "n": 0,
          "scriptPubKey": {
            "asm": "0471180a25e47c808601ac0a7e46034e2253c99506ff7fdee502b48e46e770acf88e88c86fe75bd85512de9ffc09f1437aa08542fed6661dd4b85ed91264a1dba8 OP_CHECKSIG",
            "desc": "pk(0471180a25e47c808601ac0a7e46034e2253c99506ff7fdee502b48e46e770acf88e88c86fe75bd85512de9ffc09f1437aa08542fed6661dd4b85ed91264a1dba8)#jlysnndu",
            "hex": "410471180a25e47c808601ac0a7e46034e2253c99506ff7fdee502b48e46e770acf88e88c86fe75bd85512de9ffc09f1437aa08542fed6661dd4b85ed91264a1dba8ac",
            "type": "pubkey"
          }
        }
      ],
      "hex": "01000000010000000000000000000000000000000000000000000000000000000000000000ffffffff0804ffff001d021d05ffffffff0100f2052a0100000043410471180a25e47c808601ac0a7e46034e2253c99506ff7fdee502b48e46e770acf88e88c86fe75bd85512de9ffc09f1437aa08542fed6661dd4b85ed91264a1dba8ac00000000"
    }
  ]
}