{
  "hash": "00000000cd55b40c62d50782b3c8c6521463499d8a4cfdf301dd19895594e071",
  "confirmations": 44799,
  "height": 8299,
  "version": 1,
  "versionHex": "00000001",
  "merkleroot": "3f57d8e7c0f7d961931d1ae393ad1a5fce7f3e603e11cceb4d0a9b2714f327d4",
  "time": 1237729841,
  "mediantime": 1237726488,
  "nonce": 306748979,
  "bits": "1d00ffff",
  "difficulty": 1,
  "chainwork": "0000000000000000000000000000000000000000000000000000206c206c206c",
  "nTx": 1,
  "previousblockhash": "00000000814a9380e070a26c717b5611bfbd0c5e3e91fc3b4424d5af9c3e8bae",
  "nextblockhash": "000000001af2bc6ce395f9495ed79306719e34467152479862ecaed4de7fd1b3",
  "strippedsize": 216,
  "size": 216,
  "weight": 864,
  "tx": [
    {
      "txid": "3f57d8e7c0f7d961931d1ae393ad1a5fce7f3e603e11cceb4d0a9b2714f327d4",
      "hash": "3f57d8e7c0f7d961931d1ae393ad1a5fce7f3e603e11cceb4d0a9b2714f327d4",
      "version": 1,
      "size": 135,
      "vsize": 135,
      "weight": 540,
      "locktime": 0,
      "vin": [
        {
          "coinbase": "04ffff001d027d02",
          "sequence": 4294967295
        }
      ],
      "vout": [
        {
          "value": 50.0,
          "n": 0,
          "scriptPubKey": {
            "asm": "04ab4225c5e3cf025af221e0361d01ce5673a695947e2de003a69f432c7ee8bfeddafcd4a9229dd1ca2d3ab82eb1326f51ef74e8c19c7806a4b7197786d5e54350 OP_CHECKSIG",
            "desc": "pk(04ab4225c5e3cf025af221e0361d01ce5673a695947e2de003a69f432c7ee8bfeddafcd4a9229dd1ca2d3ab82eb1326f51ef74e8c19c7806a4b7197786d5e54350)#q3yzx9lk",
            "hex": "4104ab4225c5e3cf025af221e0361d01ce5673a695947e2de003a69f432c7ee8bfeddafcd4a9229dd1ca2d3ab82eb1326f51ef74e8c19c7806a4b7197786d5e54350ac",
            "type": "pubkey"
          }
        }
      ],
      "hex": "01000000010000000000000000000000000000000000000000000000000000000000000000ffffffff0804ffff001d027d02ffffffff0100f2052a01000000434104ab4225c5e3cf025af221e0361d01ce5673a695947e2de003a69f432c7ee8bfeddafcd4a9229dd1ca2d3ab82eb1326f51ef74e8c19c7806a4b7197786d5e54350ac00000000"
    }
  ]
}