{
  "hash": "0000000016dd8dad06f66f1ac4d0af1a1d5e685dfbef53282af34f9b0b714031",
  "confirmations": 50534,
  "height": 2564,
  "version": 1,
  "versionHex": "00000001",
  "merkleroot": "f6cb1889b997f8220f9f1d5d6ebdd2205fc2b562910721ff7ebcd07f62efb9bc",
  "time": 1233465478,
  "mediantime": 1233460511,
  "nonce": 654979369,
  "bits": "1d00ffff",
  "difficulty": 1,
  "chainwork": "00000000000000000000000000000000000000000000000000000a050a050a05",
  "nTx": 1,
  "previousblockhash": "0000000020fbcdfcca26e26a37f65fea339e7c26018671e1d89bc13b66ed292f",
  "nextblockhash": "00000000b82c85cc9b41aa0d565e6379d4e0f4ec660caadacda994da7f72995e",
  "strippedsize": 216,
  "size": 216,
  "weight": 864,
  "tx": [
    {
      "txid": "f6cb1889b997f8220f9f1d5d6ebdd2205fc2b562910721ff7ebcd07f62efb9bc",
      "hash": "f6cb1889b997f8220f9f1d5d6ebdd2205fc2b562910721ff7ebcd07f62efb9bc",
      "version": 1,
      "size": 135,
      "vsize": 135,
      "weight": 540,
      "locktime": 0,
      "vin": [
        {
          "coinbase": "04ffff001d024302",
          "sequence": 4294967295
        }
      ],
      "vout": [
        {
          "value": 50.0,
          "n": 0,
          "scriptPubKey": {
            "asm": "041d04824813cb8bb36947b1b83945e9efbcc0bf476b55552cc4c793b4459bf819d9e63fa365f0c8672437b9f797b6a37caaa7602a1f87f5312192ab37b5448b2d OP_CHECKSIG",
            "desc": "pk(041d04824813cb8bb36947b1b83945e9efbcc0bf476b55552cc4c793b4459bf819d9e63fa365f0c8672437b9f797b6a37caaa7602a1f87f5312192ab37b5448b2d)#wcp6yclh",
            "hex": "41041d04824813cb8bb36947b1b83945e9efbcc0bf476b55552cc4c793b4459bf819d9e63fa365f0c8672437b9f797b6a37caaa7602a1f87f5312192ab37b5448b2dac",
            "type": "pubkey"
          }
        }
      ],
      "hex": "01000000010000000000000000000000000000000000000000000000000000000000000000ffffffff0804ffff001d024302ffffffff0100f2052a010000004341041d04824813cb8bb36947b1b83945e9efbcc0bf476b55552cc4c793b4459bf819d9e63fa365f0c8672437b9f797b6a37caaa7602a1f87f5312192ab37b5448b2dac00000000"
    }
  ]
}