{
  "hash": "00000000b26e8961576fa599674ce4bc517d38950034df7516e599113b1d815b",
  "confirmations": 51176,
  "height": 1922,
  "version": 1,
  "versionHex": "00000001",
  "merkleroot": "5d393d83d0b4804b9c22062249c78eeb485f4f7ee132c73252bb8fc6bac5a31b",
  "time": 1232983925,
  "mediantime": 1232972398,
  "nonce": 3833982254,
  "bits": "1d00ffff",
  "difficulty": 1,
  "chainwork": "0000000000000000000000000000000000000000000000000000078307830783",
  "nTx": 1,
  "previousblockhash": "00000000e99dc5bc27514e37daf534abcd3ce26fd1e32e2c45e834c214f4c7ae",
  "nextblockhash": "0000000015c168937aec532f25fec48bd68188c9e0944d34da554e8008ceebb4",
  "strippedsize": 215,
  "size": 215,
  "weight": 860,
  "tx": [
    {
      "txid": "5d393d83d0b4804b9c22062249c78eeb485f4f7ee132c73252bb8fc6bac5a31b",
      "hash": "5d393d83d0b4804b9c22062249c78eeb485f4f7ee132c73252bb8fc6bac5a31b",
      "version": 1,
      "size": 134,
      "vsize": 134,
      "weight": 536,
      "locktime": 0,
      "vin": [
        {
          "coinbase": "04ffff001d0107",
          "sequence": 4294967295
        }
      ],
      "vout": [
        {
          "value": 50.0,
          "n": 0,
          "scriptPubKey": {
            "asm": "045ca35d9c67172f6e05844836e2f2ba7bbb1e5a30309cd6bc5ef624d9c80aaae381629e8d9eb240e0eb688fc296c47d8159d4d98283141022691319e29c5d5330 OP_CHECKSIG",
            "desc": "pk(045ca35d9c67172f6e05844836e2f2ba7bbb1e5a30309cd6bc5ef624d9c80aaae381629e8d9eb240e0eb688fc296c47d8159d4d98283141022691319e29c5d5330)#gkdy8utx",
            "hex": "41045ca35d9c67172f6e05844836e2f2ba7bbb1e5a30309cd6bc5ef624d9c80aaae381629e8d9eb240e0eb688fc296c47d8159d4d98283141022691319e29c5d5330ac",
            "type": "pubkey"
          }
        }
      ],
      "hex": "01000000010000000000000000000000000000000000000000000000000000000000000000ffffffff0704ffff001d0107ffffffff0100f2052a010000004341045ca35d9c67172f6e05844836e2f2ba7bbb1e5a30309cd6bc5ef624d9c80aaae381629e8d9eb240e0eb688fc296c47d8159d4d98283141022691319e29c5d5330ac00000000"
    }
  ]
}