{
  "hash": "000000006e92cb9f163c7f9eaf338207c25b3682b410a7352a1c140521a029d4",
  "confirmations": 50360,
  "height": 2738,
  "version": 1,
  "versionHex": "00000001",
  "merkleroot": "966c6933be91362d112430c0a549506a4eaf1cc8e99e5029445cb20bc65763cc",
  "time": 1233588703,
  "mediantime": 1233585720,
  "nonce": 169411087,
  "bits": "1d00ffff",
  "difficulty": 1,
  "chainwork": "00000000000000000000000000000000000000000000000000000ab30ab30ab3",
  "nTx": 1,
  "previousblockhash": "0000000092456d6b560a6eafcf1e0b2ea9dd1b109e68cb028adf506d014ea6f2",
  "nextblockhash": "0000000040e7ce608d0332e893a0168ca2bad8d71c2ed33718389b63d2b9b43d",
  "strippedsize": 215,
  "size": 215,
  "weight": 860,
  "tx": [
    {
      "txid": "966c6933be91362d112430c0a549506a4eaf1cc8e99e5029445cb20bc65763cc",
      "hash": "966c6933be91362d112430c0a549506a4eaf1cc8e99e5029445cb20bc65763cc",
      "version": 1,
      "size": 134,
      "vsize": 134,
      "weight": 536,
      "locktime": 0,
      "vin": [
        {
          "coinbase": "04ffff001d0108",
          "sequence": 4294967295
        }
      ],
      "vout": [
        {
          "value": 50.0,
          "n": 0,
          "scriptPubKey": {
            "asm": "04cf3688fb230afa2745c8959f5c94d8de39ba5bd4c44c92dc82271cfef467b8409504a772c04acaf6dafaae02e489e8b3247242cbfd9a85855b6edd98a84ca493 OP_CHECKSIG",
            "desc": "pk(04cf3688fb230afa2745c8959f5c94d8de39ba5bd4c44c92dc82271cfef467b8409504a772c04acaf6dafaae02e489e8b3247242cbfd9a85855b6edd98a84ca493)#khajjtc9",
            "hex": "4104cf3688fb230afa2745c8959f5c94d8de39ba5bd4c44c92dc82271cfef467b8409504a772c04acaf6dafaae02e489e8b3247242cbfd9a85855b6edd98a84ca493ac",
            "type": "pubkey"
          }
        }
      ],
      "hex": "01000000010000000000000000000000000000000000000000000000000000000000000000ffffffff0704ffff001d0108ffffffff0100f2052a01000000434104cf3688fb230afa2745c8959f5c94d8de39ba5bd4c44c92dc82271cfef467b8409504a772c04acaf6dafaae02e489e8b3247242cbfd9a85855b6edd98a84ca493ac00000000"
    }
  ]
}