{
  "hash": "0000000053f12d670dc0188a5f4e8be2f59215ce14eb128c14faf997449b7183",
  "confirmations": 50915,
  "height": 2183,
  "version": 1,
  "versionHex": "00000001",
  "merkleroot": "902ecdb62dc4dcf73bbe18ba1c44fe01ac1770d32f678d2673c69739091248f8",
  "time": 1233202433,
  "mediantime": 1233197315,
  "nonce": 3387352855,
  "bits": "1d00ffff",
  "difficulty": 1,
  "chainwork": "0000000000000000000000000000000000000000000000000000088808880888",
  "nTx": 1,
  "previousblockhash": "0000000078c1dfef29ed103d268ce77b6f5afffd0146dd2f5796b35b45d58342",
  "nextblockhash": "00000000bf3bce6a2896fc62bdfba48bdd955178d10e4ff15eeffe61ad41f714",
  "strippedsize": 215,
  "size": 215,
  "weight": 860,
  "tx": [
    {
      "txid": "902ecdb62dc4dcf73bbe18ba1c44fe01ac1770d32f678d2673c69739091248f8",
      "hash": "902ecdb62dc4dcf73bbe18ba1c44fe01ac1770d32f678d2673c69739091248f8",
      "version": 1,
      "size": 134,
      "vsize": 134,
      "weight": 536,
      "locktime": 0,
      "vin": [
        {
          "coinbase": "04ffff001d0114",
          "sequence": 4294967295
        }
      ],
      "vout": [
        {
          "value": 50.0,
          "n": 0,
          "scriptPubKey": {
            "asm": "04f067414aa858adeaec43617b6327b346b966b92530553ea3464a3a895d0c8b60c022b14cbcebe6c3a4240c3977dcb774fe73904fdb9a2baadea3a4f693cbbe64 OP_CHECKSIG",
            "desc": "pk(04f067414aa858adeaec43617b6327b346b966b92530553ea3464a3a895d0c8b60c022b14cbcebe6c3a4240c3977dcb774fe73904fdb9a2baadea3a4f693cbbe64)#k0xlmvee",
            "hex": "4104f067414aa858adeaec43617b6327b346b966b92530553ea3464a3a895d0c8b60c022b14cbcebe6c3a4240c3977dcb774fe73904fdb9a2baadea3a4f693cbbe64ac",
            "type": "pubkey"
          }
        }
      ],
      "hex": "01000000010000000000000000000000000000000000000000000000000000000000000000ffffffff0704ffff001d0114ffffffff0100f2052a01000000434104f067414aa858adeaec43617b6327b346b966b92530553ea3464a3a895d0c8b60c022b14cbcebe6c3a4240c3977dcb774fe73904fdb9a2baadea3a4f693cbbe64ac00000000"
    }
  ]
}