{
  "hash": "00000000ef701c41ccbacb4ea1152f800014892874ed55e3fc43871044509ae6",
  "confirmations": 45049,
  "height": 8049,
  "version": 1,
  "versionHex": "00000001",
  "merkleroot": "968dea2c4d2eea3093caa2a4039ae4917be88ccbea549e62ea53a6773d00932d",
  "time": 1237497338,
  "mediantime": 1237492008,
  "nonce": 1558130183,
  "bits": "1d00ffff",
  "difficulty": 1,
  "chainwork": "00000000000000000000000000000000000000000000000000001f721f721f72",
  "nTx": 1,
  "previousblockhash": "00000000bc69cdb796f26d8db9cdb97f10520513595d8b85f34adaa38557f2de",
  "nextblockhash": "000000003211516254a1aabe1ff27e5cfd48ce306207e0e7c8c097624735dc4a",
  "strippedsize": 215,
  "size": 215,
  "weight": 860,
  "tx": [
    {
      "txid": "968dea2c4d2eea3093caa2a4039ae4917be88ccbea549e62ea53a6773d00932d",
      "hash": "968dea2c4d2eea3093caa2a4039ae4917be88ccbea549e62ea53a6773d00932d",
      "version": 1,
      "size": 134,
      "vsize": 134,
      "weight": 536,
      "locktime": 0,
      "vin": [
        {
          "coinbase": "04ffff001d010c",
          "sequence": 4294967295
        }
      ],
      "vout": [
        {
          "value": 50.0,
          "n": 0,
          "scriptPubKey": {
            "asm": "047a4cbb538b74b2766f16d1d6880b862504fe2fa14a68e54e9c72c42a7f671cfa4ea7f18353eb40eaddded633b06d03981c083d9f56e36c0af9204d5de1d28fc7 OP_CHECKSIG",
            "desc": "pk(047a4cbb538b74b2766f16d1d6880b862504fe2fa14a68e54e9c72c42a7f671cfa4ea7f18353eb40eaddded633b06d03981c083d9f56e36c0af9204d5de1d28fc7)#5rya20c3",
            "hex": "41047a4cbb538b74b2766f16d1d6880b862504fe2fa14a68e54e9c72c42a7f671cfa4ea7f18353eb40eaddded633b06d03981c083d9f56e36c0af9204d5de1d28fc7ac",
            "type": "pubkey"
          }
        }
      ],
      "hex": "01000000010000000000000000000000000000000000000000000000000000000000000000ffffffff0704ffff001d010cffffffff0100f2052a010000004341047a4cbb538b74b2766f16d1d6880b862504fe2fa14a68e54e9c72c42a7f671cfa4ea7f18353eb40eaddded633b06d03981c083d9f56e36c0af9204d5de1d28fc7ac00000000"
    }
  ]
}