{
  "hash": "0000000077407e69c46dc29ddaefc1ec05bac9f998ddf78ef23972c7cd83e009",
  "confirmations": 46504,
  "height": 6594,
  "version": 1,
  "versionHex": "00000001",
  "merkleroot": "7dbea48c1b119d0767e314c8163966a1e7b61598a86203afc3cd4629a214edc5",
  "time": 1236399818,
  "mediantime": 1236396439,
  "nonce": 31600052,
  "bits": "1d00ffff",
  "difficulty": 1,
  "chainwork": "000000000000000000000000000000000000000000000000000019c319c319c3",
  "nTx": 1,
  "previousblockhash": "00000000d9cbcab4341ca7707690bb5a2da1f10acc7ba3a8f93ca9795332e228",
  "nextblockhash": "00000000f3b7880ffb51cf6ebe759af3f1e13649c8cfe817158232f0a43f9538",
  "strippedsize": 216,
  "size": 216,
  "weight": 864,
  "tx": [
    {
      "txid": "7dbea48c1b119d0767e314c8163966a1e7b61598a86203afc3cd4629a214edc5",
      "hash": "7dbea48c1b119d0767e314c8163966a1e7b61598a86203afc3cd4629a214edc5",
      "version": 1,
      "size": 135,
      "vsize": 135,
      "weight": 540,
      "locktime": 0,
      "vin": [
        {
          "coinbase": "04ffff001d028600",
          "sequence": 4294967295
        }
      ],
      "vout": [
        {
          "value": 50.0,
          "n": 0,
          "scriptPubKey": {
            "asm": "0440f5987a2bf2cca128e1966825fc0d9dd3c2fe8fdc2e11f7f5eacdc09ea54683c29b732bf34df4316da44416b6c7251f119bae2044be755affa0101ce20c0e72 OP_CHECKSIG",
            "desc": "pk(0440f5987a2bf2cca128e1966825fc0d9dd3c2fe8fdc2e11f7f5eacdc09ea54683c29b732bf34df4316da44416b6c7251f119bae2044be755affa0101ce20c0e72)#t2v6yc0q",
            "hex": "410440f5987a2bf2cca128e1966825fc0d9dd3c2fe8fdc2e11f7f5eacdc09ea54683c29b732bf34df4316da44416b6c7251f119bae2044be755affa0101ce20c0e72ac",
            "type": "pubkey"
          }
        }
      ],
      "hex": "01000000010000000000000000000000000000000000000000000000000000000000000000ffffffff0804ffff001d028600ffffffff0100f2052a0100000043410440f5987a2bf2cca128e1966825fc0d9dd3c2fe8fdc2e11f7f5eacdc09ea54683c29b732bf34df4316da44416b6c7251f119bae2044be755affa0101ce20c0e72ac00000000"
    }
  ]
}