{
  "hash": "00000000801e25fd507871048f2cea9415287790a83412995427eecebc4c1125",
  "confirmations": 50200,
  "height": 2898,
  "version": 1,
  "versionHex": "00000001",
  "merkleroot": "f04eab79cc78ab8d7fe379c97a8567eabd4068f726f6000db5657a16fdd3bc81",
  "time": 1233691982,
  "mediantime": 1233686996,
  "nonce": 269159613,
  "bits": "1d00ffff",
  "difficulty": 1,
  "chainwork": "00000000000000000000000000000000000000000000000000000b530b530b53",
  "nTx": 1,
  "previousblockhash": "00000000da2bc3cab56858357a59f787a0c52292787f01f43fec45aebe534547",
  "nextblockhash": "00000000a210741369a4ce79cb9a318bc15e02acc3b16ea9657492bb0d3e3fd2",
  "strippedsize": 216,
  "size": 216,
  "weight": 864,
  "tx": [
    {
      "txid": "f04eab79cc78ab8d7fe379c97a8567eabd4068f726f6000db5657a16fdd3bc81",
      "hash": "f04eab79cc78ab8d7fe379c97a8567eabd4068f726f6000db5657a16fdd3bc81",
      "version": 1,
      "size": 135,
      "vsize": 135,
      "weight": 540,
      "locktime": 0,
      "vin": [
        {
          "coinbase": "04ffff001d026501",
          "sequence": 4294967295
        }
      ],
      "vout": [
        {
          "value": 50.0,
          "n": 0,
          "scriptPubKey": {
            "asm": "04c487268ca5aac7dff07f6719f3ca950f9fe36a6eaaf34eeb3ca922a7881f11334b9a7473a07fdfdbbbb03394fae0fb4a67ee30b64dbc8a0547972eeeb6650fa5 OP_CHECKSIG",
            "desc": "pk(04c487268ca5aac7dff07f6719f3ca950f9fe36a6eaaf34eeb3ca922a7881f11334b9a7473a07fdfdbbbb03394fae0fb4a67ee30b64dbc8a0547972eeeb6650fa5)#rjy0e86q",
            "hex": "4104c487268ca5aac7dff07f6719f3ca950f9fe36a6eaaf34eeb3ca922a7881f11334b9a7473a07fdfdbbbb03394fae0fb4a67ee30b64dbc8a0547972eeeb6650fa5ac",
            "type": "pubkey"
          }
        }
      ],
      "hex": "01000000010000000000000000000000000000000000000000000000000000000000000000ffffffff0804ffff001d026501ffffffff0100f2052a01000000434104c487268ca5aac7dff07f6719f3ca950f9fe36a6eaaf34eeb3ca922a7881f11334b9a7473a07fdfdbbbb03394fae0fb4a67ee30b64dbc8a0547972eeeb6650fa5ac00000000"
    }
  ]
}