{
  "hash": "00000000d89087ae0c65dbe821b9a9926077f3f618fc8fac46d7070f28eb1153",
  "confirmations": 44115,
  "height": 8983,
  "version": 1,
  "versionHex": "00000001",
  "merkleroot": "87c6fa347453c5a16cf44c0861b54f99e0e6346e13ad107fa144a3191fb44312",
  "time": 1238240718,
  "mediantime": 1238237385,
  "nonce": 330887728,
  "bits": "1d00ffff",
  "difficulty": 1,
  "chainwork": "0000000000000000000000000000000000000000000000000000231823182318",
  "nTx": 1,
  "previousblockhash": "00000000df13b9e208afff5f5d0f391a9265b32be4298ceb5df6aa79ff9d9e70",
  "nextblockhash": "000000003a3e84b36c88b05ee681f1a1bb084ba6222ef53b58feefca168df591",
  "strippedsize": 216,
  "size": 216,
  "weight": 864,
  "tx": [
    {
      "txid": "87c6fa347453c5a16cf44c0861b54f99e0e6346e13ad107fa144a3191fb44312",
      "hash": "87c6fa347453c5a16cf44c0861b54f99e0e6346e13ad107fa144a3191fb44312",
      "version": 1,
      "size": 135,
      "vsize": 135,
      "weight": 540,
      "locktime": 0,
      "vin": [
        {
          "coinbase": "04ffff001d022406",
          "sequence": 4294967295
        }
      ],
      "vout": [
        {
          "value": 50.0,
          "n": 0,
          "scriptPubKey": {
            "asm": "04c56cd195f76ca935542b28518870eac9f7d811ce86f0472129d4b660cbd5b00f257a0e8e41d87dc2a0da89f5c751aab1c1a5e2f68cb4e6ab8abf99cca952dc88 OP_CHECKSIG",
            "desc": "pk(04c56cd195f76ca935542b28518870eac9f7d811ce86f0472129d4b660cbd5b00f257a0e8e41d87dc2a0da89f5c751aab1c1a5e2f68cb4e6ab8abf99cca952dc88)#c5kjz6kd",
            "hex": "4104c56cd195f76ca935542b28518870eac9f7d811ce86f0472129d4b660cbd5b00f257a0e8e41d87dc2a0da89f5c751aab1c1a5e2f68cb4e6ab8abf99cca952dc88ac",
            "type": "pubkey"
          }
        }
      ],
      "hex": "01000000010000000000000000000000000000000000000000000000000000000000000000ffffffff0804ffff001d022406ffffffff0100f2052a01000000434104c56cd195f76ca935542b28518870eac9f7d811ce86f0472129d4b660cbd5b00f257a0e8e41d87dc2a0da89f5c751aab1c1a5e2f68cb4e6ab8abf99cca952dc88ac00000000"
    }
  ]
}