{
  "hash": "000000000ddec185ba130dab5776cf66cecf23aa2f5317bf62a2297766b397b4",
  "confirmations": 45179,
  "height": 7919,
  "version": 1,
  "versionHex": "00000001",
  "merkleroot": "ab11a43439752da26964e34e47c6872d50925e8a9f3fcde39f9d5865bbbabdf0",
  "time": 1237406421,
  "mediantime": 1237403216,
  "nonce": 3149541172,
  "bits": "1d00ffff",
  "difficulty": 1,
  "chainwork": "00000000000000000000000000000000000000000000000000001ef01ef01ef0",
  "nTx": 1,
  "previousblockhash": "00000000f0b285d98b8f742cbaea6edb54d0d34a91bbe5320af47ef1625bbb90",
  "nextblockhash": "000000008ec07092656ed89fba460c462cac9359ab6eb8f8bee486529016850f",
  "strippedsize": 216,
  "size": 216,
  "weight": 864,
  "tx": [
    {
      "txid": "ab11a43439752da26964e34e47c6872d50925e8a9f3fcde39f9d5865bbbabdf0",
      "hash": "ab11a43439752da26964e34e47c6872d50925e8a9f3fcde39f9d5865bbbabdf0",
      "version": 1,
      "size": 135,
      "vsize": 135,
      "weight": 540,
      "locktime": 0,
      "vin": [
        {
          "coinbase": "04ffff001d02cd07",
          "sequence": 4294967295
        }
      ],
      "vout": [
        {
          "value": 50.0,
          "n": 0,
          "scriptPubKey": {
            "asm": "0489dfc0c67762645a6a6565af1c7a6ff1029f9cd2c796a4035f8a157fceca0c68f5938d77e47aeeedc67bb4a05566f7ec6053db3a5fd8745668e5e111df23f718 OP_CHECKSIG",
            "desc": "pk(0489dfc0c67762645a6a6565af1c7a6ff1029f9cd2c796a4035f8a157fceca0c68f5938d77e47aeeedc67bb4a05566f7ec6053db3a5fd8745668e5e111df23f718)#yt7v3d6y",
            "hex": "410489dfc0c67762645a6a6565af1c7a6ff1029f9cd2c796a4035f8a157fceca0c68f5938d77e47aeeedc67bb4a05566f7ec6053db3a5fd8745668e5e111df23f718ac",
            "type": "pubkey"
          }
        }
      ],
      "hex": "01000000010000000000000000000000000000000000000000000000000000000000000000ffffffff0804ffff001d02cd07ffffffff0100f2052a0100000043410489dfc0c67762645a6a6565af1c7a6ff1029f9cd2c796a4035f8a157fceca0c68f5938d77e47aeeedc67bb4a05566f7ec6053db3a5fd8745668e5e111df23f718ac00000000"
    }
  ]
}