{
  "hash": "00000000b1c8b944d9d8a4d6165abfc98fbce1e894070e1dacfb4bfcad9b17d0",
  "confirmations": 51067,
  "height": 2031,
  "version": 1,
  "versionHex": "00000001",
  "merkleroot": "cc9592a5f494030c205957c4230065d296127a4e0554b71df07a291bf305b491",
  "time": 1233076902,
  "mediantime": 1233072736,
  "nonce": 65023585,
  "bits": "1d00ffff",
  "difficulty": 1,
  "chainwork": "000000000000000000000000000000000000000000000000000007f007f007f0",
  "nTx": 1,
  "previousblockhash": "0000000036e9b23428b4e9e275c5edc14b4765c82fdad3d5f8abd078303d63d3",
  "nextblockhash": "00000000b4917905c6183a5f94eec3413800842757bd48c773e14165883bfcbf",
  "strippedsize": 215,
  "size": 215,
  "weight": 860,
  "tx": [
    {
      "txid": "cc9592a5f494030c205957c4230065d296127a4e0554b71df07a291bf305b491",
      "hash": "cc9592a5f494030c205957c4230065d296127a4e0554b71df07a291bf305b491",
      "version": 1,
      "size": 134,
      "vsize": 134,
      "weight": 536,
      "locktime": 0,
      "vin": [
        {
          "coinbase": "04ffff001d0142",
          "sequence": 4294967295
        }
      ],
      "vout": [
        {
          "value": 50.0,
          "n": 0,
          "scriptPubKey": {
            "asm": "04019646f2db8034e9a255a4972fb08df51542c658933b8825988b250a38c2a11bb5df36843c545d31944f1e0a587295e92ecae40fbc4cd0debc7d4bfcf6025a6b OP_CHECKSIG",
            "desc": "pk(04019646f2db8034e9a255a4972fb08df51542c658933b8825988b250a38c2a11bb5df36843c545d31944f1e0a587295e92ecae40fbc4cd0debc7d4bfcf6025a6b)#y0heg83p",
            "hex": "4104019646f2db8034e9a255a4972fb08df51542c658933b8825988b250a38c2a11bb5df36843c545d31944f1e0a587295e92ecae40fbc4cd0debc7d4bfcf6025a6bac",
            "type": "pubkey"
          }
        }
      ],
      "hex": "01000000010000000000000000000000000000000000000000000000000000000000000000ffffffff0704ffff001d0142ffffffff0100f2052a01000000434104019646f2db8034e9a255a4972fb08df51542c658933b8825988b250a38c2a11bb5df36843c545d31944f1e0a587295e92ecae40fbc4cd0debc7d4bfcf6025a6bac00000000"
    }
  ]
}