{
  "hash": "00000000d8844f55ef05e1605b04f37c5b3436fa2abcf24a8942bd885b5d18a7",
  "confirmations": 52561,
  "height": 537,
  "version": 1,
  "versionHex": "00000001",
  "merkleroot": "0b9557c218e3d6377acbfcc056b7562213c9d71e0b43059edf88b424ee880465",
  "time": 1231992912,
  "mediantime": 1231989398,
  "nonce": 3054329887,
  "bits": "1d00ffff",
  "difficulty": 1,
  "chainwork": "0000000000000000000000000000000000000000000000000000021a021a021a",
  "nTx": 1,
  "previousblockhash": "0000000026c22aef6ad239ed7cce10ee37ea91fffd280bc581f4e8e705106ba5",
  "nextblockhash": "00000000169808a15adcbb7c4f5c8b5d61ef69764a68f2fffd882d92e39fc2af",
  "strippedsize": 216,
  "size": 216,
  "weight": 864,
  "tx": [
    {
      "txid": "0b9557c218e3d6377acbfcc056b7562213c9d71e0b43059edf88b424ee880465",
      "hash": "0b9557c218e3d6377acbfcc056b7562213c9d71e0b43059edf88b424ee880465",
      "version": 1,
      "size": 135,
      "vsize": 135,
      "weight": 540,
      "locktime": 0,
      "vin": [
        {
          "coinbase": "04ffff001d025905",
          "sequence": 4294967295
        }
      ],
      "vout": [
        {
          "value": 50.0,
          "n": 0,
          "scriptPubKey": {
            "asm": "0405cbe49990e5136f1fdc440fcc6e6f9adc29ce18e63f8da266bc7141bdd7773cf7813d30a7c6b5a0c1be21782365c8fbe6c6475862e7fcebdec1f7f1ba3b0ae8 OP_CHECKSIG",
            "desc": "pk(0405cbe49990e5136f1fdc440fcc6e6f9adc29ce18e63f8da266bc7141bdd7773cf7813d30a7c6b5a0c1be21782365c8fbe6c6475862e7fcebdec1f7f1ba3b0ae8)#73vtvz2r",
            "hex": "410405cbe49990e5136f1fdc440fcc6e6f9adc29ce18e63f8da266bc7141bdd7773cf7813d30a7c6b5a0c1be21782365c8fbe6c6475862e7fcebdec1f7f1ba3b0ae8ac",
            "type": "pubkey"
          }
        }
      ],
      "hex": "01000000010000000000000000000000000000000000000000000000000000000000000000ffffffff0804ffff001d025905ffffffff0100f2052a0100000043410405cbe49990e5136f1fdc440fcc6e6f9adc29ce18e63f8da266bc7141bdd7773cf7813d30a7c6b5a0c1be21782365c8fbe6c6475862e7fcebdec1f7f1ba3b0ae8ac00000000"
    }
  ]
}