{
  "hash": "0000000074df9d9258ed1acc85abb45e099a7aca5d53f082c17efad5de4cf73a",
  "confirmations": 46114,
  "height": 6984,
  "version": 1,
  "versionHex": "00000001",
  "merkleroot": "e038b19d15165261dc6e63ed4ca06ddb6460435a6c1446fbc16427242decdeb8",
  "time": 1236705144,
  "mediantime": 1236699757,
  "nonce": 2159476274,
  "bits": "1d00ffff",
  "difficulty": 1,
  "chainwork": "00000000000000000000000000000000000000000000000000001b491b491b49",
  "nTx": 1,
  "previousblockhash": "000000009b35c1ca52988212e39430925c5f11f9f679a233e08daf2fb7baa744",
  "nextblockhash": "000000007dafe62a0e8ed540a46e5f65b5714cbaa8d88b29c38b98f8b4e73753",
  "strippedsize": 216,
  "size": 216,
  "weight": 864,
  "tx": [
    {
      "txid": "e038b19d15165261dc6e63ed4ca06ddb6460435a6c1446fbc16427242decdeb8",
      "hash": "e038b19d15165261dc6e63ed4ca06ddb6460435a6c1446fbc16427242decdeb8",
      "version": 1,
      "size": 135,
      "vsize": 135,
      "weight": 540,
      "locktime": 0,
      "vin": [
        {
          "coinbase": "04ffff001d02f301",
          "sequence": 4294967295
        }
      ],
      "vout": [
        {
          "value": 50.0,
          "n": 0,
          "scriptPubKey": {
            "asm": "04efc78d04572d9238c7448466a8d0fe1693c7f2d992a639442afbf497670fba30845d57930022a17f63ea9d60f026e908e93bc3ea5f1ea501d09583ea9d70d9ce OP_CHECKSIG",
            "desc": "pk(04efc78d04572d9238c7448466a8d0fe1693c7f2d992a639442afbf497670fba30845d57930022a17f63ea9d60f026e908e93bc3ea5f1ea501d09583ea9d70d9ce)#ze7pkavl",
            "hex": "4104efc78d04572d9238c7448466a8d0fe1693c7f2d992a639442afbf497670fba30845d57930022a17f63ea9d60f026e908e93bc3ea5f1ea501d09583ea9d70d9ceac",
            "type": "pubkey"
          }
        }
      ],
      "hex": "01000000010000000000000000000000000000000000000000000000000000000000000000ffffffff0804ffff001d02f301ffffffff0100f2052a01000000434104efc78d04572d9238c7448466a8d0fe1693c7f2d992a639442afbf497670fba30845d57930022a17f63ea9d60f026e908e93bc3ea5f1ea501d09583ea9d70d9ceac00000000"
    }
  ]
}