{
  "hash": "00000000d67ac3dab052ac69301316b73678703e719ce3757e31e5b92444e64c",
  "confirmations": 52123,
  "height": 975,
  "version": 1,
  "versionHex": "00000001",
  "merkleroot": "e53932e86fae409f517ef31dd3ce7c029b1865c8a51571ffd0a1e0eac72a4538",
  "time": 1232330208,
  "mediantime": 1232326840,
  "nonce": 22207262,
  "bits": "1d00ffff",
  "difficulty": 1,
  "chainwork": "000000000000000000000000000000000000000000000000000003d003d003d0",
  "nTx": 1,
  "previousblockhash": "00000000be3c231de630b045c165b842d24d53760dc84925d0d332f5f833f7d3",
  "nextblockhash": "00000000ed7ccf7b89a2f3fc7eac955412ba92f29f1a3f7fa336e05be728724e",
  "strippedsize": 216,
  "size": 216,
  "weight": 864,
  "tx": [
    {
      "txid": "e53932e86fae409f517ef31dd3ce7c029b1865c8a51571ffd0a1e0eac72a4538",
      "hash": "e53932e86fae409f517ef31dd3ce7c029b1865c8a51571ffd0a1e0eac72a4538",
      "version": 1,
      "size": 135,
      "vsize": 135,
      "weight": 540,
      "locktime": 0,
      "vin": [
        {
          "coinbase": "04ffff001d02c904",
          "sequence": 4294967295
        }
      ],
      "vout": [
        {
          "value": 50.0,
          "n": 0,
          "scriptPubKey": {
            "asm": "0479630e4794fee8c4ad65d577b93aaf0e5dfcc83bdc8bba0805cf184d6737a3398d10b92256eac88a2b9975c2be3062ed6582cca2aa5ae9aa9b87f280b6e04df3 OP_CHECKSIG",
            "desc": "pk(0479630e4794fee8c4ad65d577b93aaf0e5dfcc83bdc8bba0805cf184d6737a3398d10b92256eac88a2b9975c2be3062ed6582cca2aa5ae9aa9b87f280b6e04df3)#fsnp2dgu",
            "hex": "410479630e4794fee8c4ad65d577b93aaf0e5dfcc83bdc8bba0805cf184d6737a3398d10b92256eac88a2b9975c2be3062ed6582cca2aa5ae9aa9b87f280b6e04df3ac",
            "type": "pubkey"
          }
        }
      ],
      "hex": "01000000010000000000000000000000000000000000000000000000000000000000000000ffffffff0804ffff001d02c904ffffffff0100f2052a0100000043410479630e4794fee8c4ad65d577b93aaf0e5dfcc83bdc8bba0805cf184d6737a3398d10b92256eac88a2b9975c2be3062ed6582cca2aa5ae9aa9b87f280b6e04df3ac00000000"
    }
  ]
}