{
  "hash": "000000004a2f243aa49778369cd9c6d1027d9c4609b9b75f1b2fe54c3e19974d",
  "confirmations": 43862,
  "height": 9236,
  "version": 1,
  "versionHex": "00000001",
  "merkleroot": "cb10376bd77d1a9dfbb48f63fcad0a24b15022f67ab0f611c34a745fb6595a18",
  "time": 1238423430,
  "mediantime": 1238421601,
  "nonce": 1709958193,
  "bits": "1d00ffff",
  "difficulty": 1,
  "chainwork": "0000000000000000000000000000000000000000000000000000241524152415",
  "nTx": 1,
  "previousblockhash": "000000004942d8437d2177b1551779d7d7b403f5c2b2fb0c6f62f2151a1df89c",
  "nextblockhash": "0000000043bff1faa49efadb95802ce0c1c4c197efceb59c5b40d4ae05fa5c22",
  "strippedsize": 216,
  "size": 216,
  "weight": 864,
  "tx": [
    {
      "txid": "cb10376bd77d1a9dfbb48f63fcad0a24b15022f67ab0f611c34a745fb6595a18",
      "hash": "cb10376bd77d1a9dfbb48f63fcad0a24b15022f67ab0f611c34a745fb6595a18",
      "version": 1,
      "size": 135,
      "vsize": 135,
      "weight": 540,
      "locktime": 0,
      "vin": [
        {
          "coinbase": "04ffff001d029e00",
          "sequence": 4294967295
        }
      ],
      "vout": [
        {
          "value": 50.0,
          "n": 0,
          "scriptPubKey": {
            "asm": "040166879086dc67a2633e31117f1067f6d5d4c1eea7053cd97c3b87834282b34de2d0cabc46e899c9576250943ded40ba9101053c163c889d5b85a82f8a6e1936 OP_CHECKSIG",
            "desc": "pk(040166879086dc67a2633e31117f1067f6d5d4c1eea7053cd97c3b87834282b34de2d0cabc46e899c9576250943ded40ba9101053c163c889d5b85a82f8a6e1936)#0s9m7lzw",
            "hex": "41040166879086dc67a2633e31117f1067f6d5d4c1eea7053cd97c3b87834282b34de2d0cabc46e899c9576250943ded40ba9101053c163c889d5b85a82f8a6e1936ac",
            "type": "pubkey"
          }
        }
      ],
      "hex": "01000000010000000000000000000000000000000000000000000000000000000000000000ffffffff0804ffff001d029e00ffffffff0100f2052a010000004341040166879086dc67a2633e31117f1067f6d5d4c1eea7053cd97c3b87834282b34de2d0cabc46e899c9576250943ded40ba9101053c163c889d5b85a82f8a6e1936ac00000000"
    }
  ]
}