{
  "hash": "000000009a1fb06bb4c7b3f1d1f9fd97b4c30da89cdc2010a8f98307baf01ba9",
  "confirmations": 44183,
  "height": 8915,
  "version": 1,
  "versionHex": "00000001",
  "merkleroot": "49384031763063cde5cd7d83952ced4e71f9ab57afa63733c591878260b13dbf",
  "time": 1238191632,
  "mediantime": 1238186807,
  "nonce": 406688284,
  "bits": "1d00ffff",
  "difficulty": 1,
  "chainwork": "000000000000000000000000000000000000000000000000000022d422d422d4",
  "nTx": 1,
  "previousblockhash": "000000008d26f8741d57c63909bd91c452ae62a2a60ce74c0f02b03f0d022917",
  "nextblockhash": "000000009b1d9e201e8be7a1aa3bc7380b448915e41413b8465b44423928054f",
  "strippedsize": 216,
  "size": 216,
  "weight": 864,
  "tx": [
    {
      "txid": "49384031763063cde5cd7d83952ced4e71f9ab57afa63733c591878260b13dbf",
      "hash": "49384031763063cde5cd7d83952ced4e71f9ab57afa63733c591878260b13dbf",
      "version": 1,
      "size": 135,
      "vsize": 135,
      "weight": 540,
      "locktime": 0,
      "vin": [
        {
          "coinbase": "04ffff001d02d904",
          "sequence": 4294967295
        }
      ],
      "vout": [
        {
          "value": 50.0,
          "n": 0,
          "scriptPubKey": {
            "asm": "04d46df6bb9f738972b775544700624da48e1a6eeb2e9a0e455ba45d11079c52b5f2847612311c5e694f9de6feb342912abdfc24e7c0adc3a00ea754e2e3c1e952 OP_CHECKSIG",
            "desc": "pk(04d46df6bb9f738972b775544700624da48e1a6eeb2e9a0e455ba45d11079c52b5f2847612311c5e694f9de6feb342912abdfc24e7c0adc3a00ea754e2e3c1e952)#t7y0ep4q",
            "hex": "4104d46df6bb9f738972b775544700624da48e1a6eeb2e9a0e455ba45d11079c52b5f2847612311c5e694f9de6feb342912abdfc24e7c0adc3a00ea754e2e3c1e952ac",
            "type": "pubkey"
          }
        }
      ],
      "hex": "01000000010000000000000000000000000000000000000000000000000000000000000000ffffffff0804ffff001d02d904ffffffff0100f2052a01000000434104d46df6bb9f738972b775544700624da48e1a6eeb2e9a0e455ba45d11079c52b5f2847612311c5e694f9de6feb342912abdfc24e7c0adc3a00ea754e2e3c1e952ac00000000"
    }
  ]
}