{
  "hash": "00000000519c816ef1879837adb619b12b6e46fc306fe53deb7862e7131aae06",
  "confirmations": 52146,
  "height": 952,
  "version": 1,
  "versionHex": "00000001",
  "merkleroot": "aee3e17ffa75e1392ec54b2c25dfcb4b36b74d1b6f5a99cfa1abc4e86f9bedfe",
  "time": 1232315215,
  "mediantime": 1232311132,
  "nonce": 4269400108,
  "bits": "1d00ffff",
  "difficulty": 1,
  "chainwork": "000000000000000000000000000000000000000000000000000003b903b903b9",
  "nTx": 1,
  "previousblockhash": "00000000040354dfe4ac02f4f8055b93adfcc36eb4617643e305f08e02f2edb7",
  "nextblockhash": "00000000b61bf949bddcd48b7c4eadac2972f604e22f9b34be942cd84925b6cf",
  "strippedsize": 216,
  "size": 216,
  "weight": 864,
  "tx": [
    {
      "txid": "aee3e17ffa75e1392ec54b2c25dfcb4b36b74d1b6f5a99cfa1abc4e86f9bedfe",
      "hash": "aee3e17ffa75e1392ec54b2c25dfcb4b36b74d1b6f5a99cfa1abc4e86f9bedfe",
      "version": 1,
      "size": 135,
      "vsize": 135,
      "weight": 540,
      "locktime": 0,
      "vin": [
        {
          "coinbase": "04ffff001d025e04",
          "sequence": 4294967295
        }
      ],
      "vout": [
        {
          "value": 50.0,
          "n": 0,
          "scriptPubKey": {
            "asm": "0401473aa9e1d49921904ae4635c3971e51ea990364ce96577419163b9549edf788a3bce2a3ef70ef31e4b554d0d6821a0c9bbdb66e919800c94d0f58d6a305a28 OP_CHECKSIG",
            "desc": "pk(0401473aa9e1d49921904ae4635c3971e51ea990364ce96577419163b9549edf788a3bce2a3ef70ef31e4b554d0d6821a0c9bbdb66e919800c94d0f58d6a305a28)#lx70eh6t",
            "hex": "410401473aa9e1d49921904ae4635c3971e51ea990364ce96577419163b9549edf788a3bce2a3ef70ef31e4b554d0d6821a0c9bbdb66e919800c94d0f58d6a305a28ac",
            "type": "pubkey"
          }
        }
      ],
      "hex": "01000000010000000000000000000000000000000000000000000000000000000000000000ffffffff0804ffff001d025e04ffffffff0100f2052a0100000043410401473aa9e1d49921904ae4635c3971e51ea990364ce96577419163b9549edf788a3bce2a3ef70ef31e4b554d0d6821a0c9bbdb66e919800c94d0f58d6a305a28ac00000000"
    }
  ]
}