{
  "hash": "000000009aa083e76b59647fe7b1b73d9ee18470741c59d788b33d9ca9e1b815",
  "confirmations": 50007,
  "height": 3091,
  "version": 1,
  "versionHex": "00000001",
  "merkleroot": "4a8f662d6cf474c6bf5f8be67889c71b587acd0d3d19f10b2b021dd5dad0a6a5",
  "time": 1233827180,
  "mediantime": 1233822971,
  "nonce": 49878327,
  "bits": "1d00ffff",
  "difficulty": 1,
  "chainwork": "00000000000000000000000000000000000000000000000000000c140c140c14",
  "nTx": 1,
  "previousblockhash": "000000006b9689a5d2eb6da05a901a2e197738c0509b570151263736f0b29e03",
  "nextblockhash": "0000000086297b5867c36c29a525c33717be5ccd4ecc1dd85f71dd28b22dfd0c",
  "strippedsize": 215,
  "size": 215,
  "weight": 860,
  "tx": [
    {
      "txid": "4a8f662d6cf474c6bf5f8be67889c71b587acd0d3d19f10b2b021dd5dad0a6a5",
      "hash": "4a8f662d6cf474c6bf5f8be67889c71b587acd0d3d19f10b2b021dd5dad0a6a5",
      "version": 1,
      "size": 134,
      "vsize": 134,
      "weight": 536,
      "locktime": 0,
      "vin": [
        {
          "coinbase": "04ffff001d0130",
          "sequence": 4294967295
        }
      ],
      "vout": [
        {
          "value": 50.0,
          "n": 0,
          "scriptPubKey": {
            "asm": "044d23b71c69d2be9c73c37b344be3ef537d3413b3b4eb8cb209f57f415c70f0851a3cd4b60ee1f332ded4cf515cd8e31af349626f14a7263882eee4a95aa50851 OP_CHECKSIG",
            "desc": "pk(044d23b71c69d2be9c73c37b344be3ef537d3413b3b4eb8cb209f57f415c70f0851a3cd4b60ee1f332ded4cf515cd8e31af349626f14a7263882eee4a95aa50851)#38d5gsr4",
            "hex": "41044d23b71c69d2be9c73c37b344be3ef537d3413b3b4eb8cb209f57f415c70f0851a3cd4b60ee1f332ded4cf515cd8e31af349626f14a7263882eee4a95aa50851ac",
            "type": "pubkey"
          }
        }
      ],
      "hex": "01000000010000000000000000000000000000000000000000000000000000000000000000ffffffff0704ffff001d0130ffffffff0100f2052a010000004341044d23b71c69d2be9c73c37b344be3ef537d3413b3b4eb8cb209f57f415c70f0851a3cd4b60ee1f332ded4cf515cd8e31af349626f14a7263882eee4a95aa50851ac00000000"
    }
  ]
}