{
  "hash": "000000007680c0efe9e7875772f05e260fa3048a611ec70b31a39fc9df6db2aa",
  "confirmations": 46896,
  "height": 6202,
  "version": 1,
  "versionHex": "00000001",
  "merkleroot": "848459cf58267e197c8224ee10a6db7a578739257dadb20df14241331a8f9866",
  "time": 1236093101,
  "mediantime": 1236088518,
  "nonce": 4161263635,
  "bits": "1d00ffff",
  "difficulty": 1,
  "chainwork": "0000000000000000000000000000000000000000000000000000183b183b183b",
  "nTx": 1,
  "previousblockhash": "00000000ce6f8700f60c1814cf727e5c05360bfbf87676f6cbbd8cc1c89c6d1b",
  "nextblockhash": "00000000cc7dbdb3bdab7a24a741932fe99f225c5ca7e2d03b2deaddd23664d1",
  "strippedsize": 216,
  "size": 216,
  "weight": 864,
  "tx": [
    {
      "txid": "848459cf58267e197c8224ee10a6db7a578739257dadb20df14241331a8f9866",
      "hash": "848459cf58267e197c8224ee10a6db7a578739257dadb20df14241331a8f9866",
      "version": 1,
      "size": 135,
      "vsize": 135,
      "weight": 540,
      "locktime": 0,
      "vin": [
        {
          "coinbase": "04ffff001d028b08",
          "sequence": 4294967295
        }
      ],
      "vout": [
        {
          "value": 50.0,
          "n": 0,
          "scriptPubKey": {
            "asm": "0440503493aaedcaafd3a3a25ac59b5cc3e7f8b9f59b5df4c3fe674dda42b0c8946c9784733fffc215994d45483e9d80bff5e47591fa34228c46dd6e55a8099f85 OP_CHECKSIG",
            "desc": "pk(0440503493aaedcaafd3a3a25ac59b5cc3e7f8b9f59b5df4c3fe674dda42b0c8946c9784733fffc215994d45483e9d80bff5e47591fa34228c46dd6e55a8099f85)#ejcwfd6d",
            "hex": "410440503493aaedcaafd3a3a25ac59b5cc3e7f8b9f59b5df4c3fe674dda42b0c8946c9784733fffc215994d45483e9d80bff5e47591fa34228c46dd6e55a8099f85ac",
            "type": "pubkey"
          }
        }
      ],
      "hex": "01000000010000000000000000000000000000000000000000000000000000000000000000ffffffff0804ffff001d028b08ffffffff0100f2052a0100000043410440503493aaedcaafd3a3a25ac59b5cc3e7f8b9f59b5df4c3fe674dda42b0c8946c9784733fffc215994d45483e9d80bff5e47591fa34228c46dd6e55a8099f85ac00000000"
    }
  ]
}