{
  "hash": "000000008c8e0512be74fec25a643b6337b3596974a2cee47682578bf6a583a5",
  "confirmations": 52437,
  "height": 516,
  "version": 1,
  "versionHex": "00000001",
  "merkleroot": "e5896c93c4c70da1d605142231b54babe359edf196beef06fff026a87a67efcc",
  "time": 1231979190,
  "mediantime": 1231975547,
  "nonce": 234372890,
  "bits": "1d00ffff",
  "difficulty": 1,
  "chainwork": "0000000000000000000000000000000000000000000000000000020502050205",
  "nTx": 1,
  "previousblockhash": "0000000052cd2861ec501c07a736a692fa629d841525fa42fa59e09e15687a12",
  "nextblockhash": "0000000098c4a148c28c0eb7ae6aeca20768db02f4f1f9795f66924da6181214",
  "strippedsize": 216,
  "size": 216,
  "weight": 864,
  "tx": [
    {
      "txid": "e5896c93c4c70da1d605142231b54babe359edf196beef06fff026a87a67efcc",
      "hash": "e5896c93c4c70da1d605142231b54babe359edf196beef06fff026a87a67efcc",
      "version": 1,
      "size": 135,
      "vsize": 135,
      "weight": 540,
      "locktime": 0,
      "vin": [
        {
          "coinbase": "04ffff001d02ba04",
          "sequence": 4294967295
        }
      ],
      "vout": [
        {
          "value": 50.0,
          "n": 0,
          "scriptPubKey": {
            "asm": "0408ae6babd03ef7689ba7918e70c07e871f7b9a80866478145d5aff2253349a5183b9b272ab3bc58f3352d951c5d9bd8d6637a6f5246fef1217c316870f4089ce OP_CHECKSIG",
            "desc": "pk(0408ae6babd03ef7689ba7918e70c07e871f7b9a80866478145d5aff2253349a5183b9b272ab3bc58f3352d951c5d9bd8d6637a6f5246fef1217c316870f4089ce)#0vgqk7cj",
            "hex": "410408ae6babd03ef7689ba7918e70c07e871f7b9a80866478145d5aff2253349a5183b9b272ab3bc58f3352d951c5d9bd8d6637a6f5246fef1217c316870f4089ceac",
            "type": "pubkey"
          }
        }
      ],
      "hex": "01000000010000000000000000000000000000000000000000000000000000000000000000ffffffff0804ffff001d02ba04ffffffff0100f2052a0100000043410408ae6babd03ef7689ba7918e70c07e871f7b9a80866478145d5aff2253349a5183b9b272ab3bc58f3352d951c5d9bd8d6637a6f5246fef1217c316870f4089ceac00000000"
    }
  ]
}