{
  "hash": "00000000c97af4753e18ca6e0d330227bd30aea82c010baa81b9cf1cfba54146",
  "confirmations": 46575,
  "height": 6523,
  "version": 1,
  "versionHex": "00000001",
  "merkleroot": "2386d6754c9a1bece9b3725c4584c4471b1c5d19c4e3ebe9b15b84d2261da65d",
  "time": 1236345485,
  "mediantime": 1236340902,
  "nonce": 721859079,
  "bits": "1d00ffff",
  "difficulty": 1,
  "chainwork": "0000000000000000000000000000000000000000000000000000197c197c197c",
  "nTx": 1,
  "previousblockhash": "00000000c9d9669c2ae1ee135ed19ff72371fb5d783adfe2f6c1ca73f786700d",
  "nextblockhash": "000000003488ac8d4788877b56beecf92915f25b7a788c1a7feb84e73cf67613",
  "strippedsize": 216,
  "size": 216,
  "weight": 864,
  "tx": [
    {
      "txid": "2386d6754c9a1bece9b3725c4584c4471b1c5d19c4e3ebe9b15b84d2261da65d",
      "hash": "2386d6754c9a1bece9b3725c4584c4471b1c5d19c4e3ebe9b15b84d2261da65d",
      "version": 1,
      "size": 135,
      "vsize": 135,
      "weight": 540,
      "locktime": 0,
      "vin": [
        {
          "coinbase": "04ffff001d020f04",
          "sequence": 4294967295
        }
      ],
      "vout": [
        {
          "value": 50.0,
          "n": 0,
          "scriptPubKey": {
            "asm": "04db7ebcb0e502afd51fca2bc417993ca95f733b8fa01537de0374401f1ca6ffcecefedb2c746e6d8565f91ed88db0b428d487004de06f4a0b526ca288438cd2c6 OP_CHECKSIG",
            "desc": "pk(04db7ebcb0e502afd51fca2bc417993ca95f733b8fa01537de0374401f1ca6ffcecefedb2c746e6d8565f91ed88db0b428d487004de06f4a0b526ca288438cd2c6)#l9he35uu",
            "hex": "4104db7ebcb0e502afd51fca2bc417993ca95f733b8fa01537de0374401f1ca6ffcecefedb2c746e6d8565f91ed88db0b428d487004de06f4a0b526ca288438cd2c6ac",
            "type": "pubkey"
          }
        }
      ],
      "hex": "01000000010000000000000000000000000000000000000000000000000000000000000000ffffffff0804ffff001d020f04ffffffff0100f2052a01000000434104db7ebcb0e502afd51fca2bc417993ca95f733b8fa01537de0374401f1ca6ffcecefedb2c746e6d8565f91ed88db0b428d487004de06f4a0b526ca288438cd2c6ac00000000"
    }
  ]
}