{
  "hash": "000000007c7f3e6a937d1fdb6124550f92f6a1e0ee4642ba830ea83ebe727872",
  "confirmations": 44453,
  "height": 8645,
  "version": 1,
  "versionHex": "00000001",
  "merkleroot": "5476271a624e3d071ed24c1086c9bdabd949a812b535bc0c25bc1dc58d4a2758",
  "time": 1237982260,
  "mediantime": 1237976389,
  "nonce": 334279194,
  "bits": "1d00ffff",
  "difficulty": 1,
  "chainwork": "000000000000000000000000000000000000000000000000000021c621c621c6",
  "nTx": 1,
  "previousblockhash": "00000000c14e61b3119b529b1a97ab7d8cde929ade02ac8ebdf1b44ea1c92f7c",
  "nextblockhash": "0000000039e31db42fa143ce5476777676a9673712fb72f0070f08e9d195a0a4",
  "strippedsize": 216,
  "size": 216,
  "weight": 864,
  "tx": [
    {
      "txid": "5476271a624e3d071ed24c1086c9bdabd949a812b535bc0c25bc1dc58d4a2758",
      "hash": "5476271a624e3d071ed24c1086c9bdabd949a812b535bc0c25bc1dc58d4a2758",
      "version": 1,
      "size": 135,
      "vsize": 135,
      "weight": 540,
      "locktime": 0,
      "vin": [
        {
          "coinbase": "04ffff001d022806",
          "sequence": 4294967295
        }
      ],
      "vout": [
        {
          "value": 50.0,
          "n": 0,
          "scriptPubKey": {
            "asm": "0438a72e8095a35d5f4b9ce622e13baf7b8aaf0e6e8749caba863dce2774f9dbfc8558a727da31ffd35ef4a3988b61c6f0eb1b1e428ff64c6edf423d5713e3752b OP_CHECKSIG",
            "desc": "pk(0438a72e8095a35d5f4b9ce622e13baf7b8aaf0e6e8749caba863dce2774f9dbfc8558a727da31ffd35ef4a3988b61c6f0eb1b1e428ff64c6edf423d5713e3752b)#xf04gth9",
            "hex": "410438a72e8095a35d5f4b9ce622e13baf7b8aaf0e6e8749caba863dce2774f9dbfc8558a727da31ffd35ef4a3988b61c6f0eb1b1e428ff64c6edf423d5713e3752bac",
            "type": "pubkey"
          }
        }
      ],
      "hex": "01000000010000000000000000000000000000000000000000000000000000000000000000ffffffff0804ffff001d022806ffffffff0100f2052a0100000043410438a72e8095a35d5f4b9ce622e13baf7b8aaf0e6e8749caba863dce2774f9dbfc8558a727da31ffd35ef4a3988b61c6f0eb1b1e428ff64c6edf423d5713e3752bac00000000"
    }
  ]
}