{
  "hash": "0000000067e2d396553dc6a1016e183f46562a5ce47da525dbca207736916829",
  "confirmations": 46553,
  "height": 6545,
  "version": 1,
  "versionHex": "00000001",
  "merkleroot": "a286552b4152530c86130e96deaf37da1ec00b685aae583e9ae67d755d52ba46",
  "time": 1236361637,
  "mediantime": 1236358869,
  "nonce": 50067751,
  "bits": "1d00ffff",
  "difficulty": 1,
  "chainwork": "0000000000000000000000000000000000000000000000000000199219921992",
  "nTx": 1,
  "previousblockhash": "000000000e2301b082e35c3f7f1d9dd63bb1a93878cb45741a799d32859df32a",
  "nextblockhash": "0000000042ec50926bc6e547e89a2bcc339fa4104a321437dbb79d58cbe19da8",
  "strippedsize": 216,
  "size": 216,
  "weight": 864,
  "tx": [
    {
      "txid": "a286552b4152530c86130e96deaf37da1ec00b685aae583e9ae67d755d52ba46",
      "hash": "a286552b4152530c86130e96deaf37da1ec00b685aae583e9ae67d755d52ba46",
      "version": 1,
      "size": 135,
      "vsize": 135,
      "weight": 540,
      "locktime": 0,
      "vin": [
        {
          "coinbase": "04ffff001d025b0b",
          "sequence": 4294967295
        }
      ],
      "vout": [
        {
          "value": 50.0,
          "n": 0,
          "scriptPubKey": {
            "asm": "040d44678f2c10dc63ba7ebb02933345a25332be4c9c000aa64a233b90999c1af0e917f6a76fe19f6129870009c0c89e70f6f7268c23c26ac4a5edd058550aea36 OP_CHECKSIG",
            "desc": "pk(040d44678f2c10dc63ba7ebb02933345a25332be4c9c000aa64a233b90999c1af0e917f6a76fe19f6129870009c0c89e70f6f7268c23c26ac4a5edd058550aea36)#d03qa278",
            "hex": "41040d44678f2c10dc63ba7ebb02933345a25332be4c9c000aa64a233b90999c1af0e917f6a76fe19f6129870009c0c89e70f6f7268c23c26ac4a5edd058550aea36ac",
            "type": "pubkey"
          }
        }
      ],
      "hex": "01000000010000000000000000000000000000000000000000000000000000000000000000ffffffff0804ffff001d025b0bffffffff0100f2052a010000004341040d44678f2c10dc63ba7ebb02933345a25332be4c9c000aa64a233b90999c1af0e917f6a76fe19f6129870009c0c89e70f6f7268c23c26ac4a5edd058550aea36ac00000000"
    }
  ]
}