{
  "hash": "000000000e36a73d4f89659f60fb02e7d3785653cb561ec10dcf37c0a21f28a3",
  "confirmations": 45438,
  "height": 7660,
  "version": 1,
  "versionHex": "00000001",
  "merkleroot": "fc3db981b076ce9f7f66206a4c6e65dd1c069b4a523bbc6be367a50d4d452774",
  "time": 1237210399,
  "mediantime": 1237205253,
  "nonce": 63161477,
  "bits": "1d00ffff",
  "difficulty": 1,
  "chainwork": "00000000000000000000000000000000000000000000000000001ded1ded1ded",
  "nTx": 1,
  "previousblockhash": "0000000032210a550a05eae0b103aaf0da198a49342fa9822378171b4dc959ee",
  "nextblockhash": "000000000e6c383151952272004fa669ed3387b5fe8694d6032198b62d849d31",
  "strippedsize": 216,
  "size": 216,
  "weight": 864,
  "tx": [
    {
      "txid": "fc3db981b076ce9f7f66206a4c6e65dd1c069b4a523bbc6be367a50d4d452774",
      "hash": "fc3db981b076ce9f7f66206a4c6e65dd1c069b4a523bbc6be367a50d4d452774",
      "version": 1,
      "size": 135,
      "vsize": 135,
      "weight": 540,
      "locktime": 0,
      "vin": [
        {
          "coinbase": "04ffff001d025f01",
          "sequence": 4294967295
        }
      ],
      "vout": [
        {
          "value": 50.0,
          "n": 0,
          "scriptPubKey": {
            "asm": "0427f5177e59f6efd1f4e1ea1b49ed54b96e18f1d11ec46702736ea94928d3bac57b28ae41ed364d130ead4de2098dfd5b3c9352da01dcbadf65fff4750296af3e OP_CHECKSIG",
            "desc": "pk(0427f5177e59f6efd1f4e1ea1b49ed54b96e18f1d11ec46702736ea94928d3bac57b28ae41ed364d130ead4de2098dfd5b3c9352da01dcbadf65fff4750296af3e)#5xlxrnyk",
            "hex": "410427f5177e59f6efd1f4e1ea1b49ed54b96e18f1d11ec46702736ea94928d3bac57b28ae41ed364d130ead4de2098dfd5b3c9352da01dcbadf65fff4750296af3eac",
            "type": "pubkey"
          }
        }
      ],
      "hex": "01000000010000000000000000000000000000000000000000000000000000000000000000ffffffff0804ffff001d025f01ffffffff0100f2052a0100000043410427f5177e59f6efd1f4e1ea1b49ed54b96e18f1d11ec46702736ea94928d3bac57b28ae41ed364d130ead4de2098dfd5b3c9352da01dcbadf65fff4750296af3eac00000000"
    }
  ]
}