{
  "hash": "00000000348839143e107d56efa51e1883f6130384d37f34b111070a4e2e8180",
  "confirmations": 47976,
  "height": 5122,
  "version": 1,
  "versionHex": "00000001",
  "merkleroot": "ba99cbc8ea0918feb13c3eddaf6612829f9b8633f6e74ced63a4eb59c1f5cf1f",
  "time": 1235232659,
  "mediantime": 1235229751,
  "nonce": 3006743853,
  "bits": "1d00ffff",
  "difficulty": 1,
  "chainwork": "0000000000000000000000000000000000000000000000000000140314031403",
  "nTx": 1,
  "previousblockhash": "000000005f06a26ca39a014696145d9f3db0358afbc3cc82ec456b0653f57825",
  "nextblockhash": "0000000074f93467cd042ff543456cdc048b61a3fe680ba70a67391cf82152e8",
  "strippedsize": 216,
  "size": 216,
  "weight": 864,
  "tx": [
    {
      "txid": "ba99cbc8ea0918feb13c3eddaf6612829f9b8633f6e74ced63a4eb59c1f5cf1f",
      "hash": "ba99cbc8ea0918feb13c3eddaf6612829f9b8633f6e74ced63a4eb59c1f5cf1f",
      "version": 1,
      "size": 135,
      "vsize": 135,
      "weight": 540,
      "locktime": 0,
      "vin": [
        {
          "coinbase": "04ffff001d026009",
          "sequence": 4294967295
        }
      ],
      "vout": [
        {
          "value": 50.0,
          "n": 0,
          "scriptPubKey": {
            "asm": "04c4efc2bbcc6c06badc34c4dc60eeaae46791cdcad2d9daabbd51078092614d7090d433559c876956496a0b3da43eb263e7ab74c63f347f15e50bab1c81eaf808 OP_CHECKSIG",
            "desc": "pk(04c4efc2bbcc6c06badc34c4dc60eeaae46791cdcad2d9daabbd51078092614d7090d433559c876956496a0b3da43eb263e7ab74c63f347f15e50bab1c81eaf808)#e99l0lp0",
            "hex": "4104c4efc2bbcc6c06badc34c4dc60eeaae46791cdcad2d9daabbd51078092614d7090d433559c876956496a0b3da43eb263e7ab74c63f347f15e50bab1c81eaf808ac",
            "type": "pubkey"
          }
        }
      ],
      "hex": "01000000010000000000000000000000000000000000000000000000000000000000000000ffffffff0804ffff001d026009ffffffff0100f2052a01000000434104c4efc2bbcc6c06badc34c4dc60eeaae46791cdcad2d9daabbd51078092614d7090d433559c876956496a0b3da43eb263e7ab74c63f347f15e50bab1c81eaf808ac00000000"
    }
  ]
}