{
  "hash": "00000000b032d6ca616df20b1c993ec5ff58b856ac76ed8c43a967b688e0c28d",
  "confirmations": 46850,
  "height": 6248,
  "version": 1,
  "versionHex": "00000001",
  "merkleroot": "9f3adc3373d55f89e42ef6400f9d1b79729696b8ea8ca3b82db4aae0df8ee63c",
  "time": 1236130357,
  "mediantime": 1236125887,
  "nonce": 79073355,
  "bits": "1d00ffff",
  "difficulty": 1,
  "chainwork": "0000000000000000000000000000000000000000000000000000186918691869",
  "nTx": 1,
  "previousblockhash": "00000000cf4d5db0e86593924cd37beade54cd8085942f83248d1f5fa3871284",
  "nextblockhash": "00000000b4b914dc7346ce28f26e0c67dfd728cdb1a1c13fc3941138ad261a8c",
  "strippedsize": 216,
  "size": 216,
  "weight": 864,
  "tx": [
    {
      "txid": "9f3adc3373d55f89e42ef6400f9d1b79729696b8ea8ca3b82db4aae0df8ee63c",
      "hash": "9f3adc3373d55f89e42ef6400f9d1b79729696b8ea8ca3b82db4aae0df8ee63c",
      "version": 1,
      "size": 135,
      "vsize": 135,
      "weight": 540,
      "locktime": 0,
      "vin": [
        {
          "coinbase": "04ffff001d022f0a",
          "sequence": 4294967295
        }
      ],
      "vout": [
        {
          "value": 50.0,
          "n": 0,
          "scriptPubKey": {
            "asm": "04a2fb190c3bbaf793b3912357876205135a26f8e245727ad65417efd59acff899f65fa53efae964f53d338fd0dacbbcf7456ec959f9a2fa6e5459f8a5e4d283af OP_CHECKSIG",
            "desc": "pk(04a2fb190c3bbaf793b3912357876205135a26f8e245727ad65417efd59acff899f65fa53efae964f53d338fd0dacbbcf7456ec959f9a2fa6e5459f8a5e4d283af)#gfhscglm",
            "hex": "4104a2fb190c3bbaf793b3912357876205135a26f8e245727ad65417efd59acff899f65fa53efae964f53d338fd0dacbbcf7456ec959f9a2fa6e5459f8a5e4d283afac",
            "type": "pubkey"
          }
        }
      ],
      "hex": "01000000010000000000000000000000000000000000000000000000000000000000000000ffffffff0804ffff001d022f0affffffff0100f2052a01000000434104a2fb190c3bbaf793b3912357876205135a26f8e245727ad65417efd59acff899f65fa53efae964f53d338fd0dacbbcf7456ec959f9a2fa6e5459f8a5e4d283afac00000000"
    }
  ]
}