{
  "hash": "00000000de9fa40b4107faaeaa6f05fcf9592b9475dd1b9a8b47110089e9ba0f",
  "confirmations": 52266,
  "height": 832,
  "version": 1,
  "versionHex": "00000001",
  "merkleroot": "b64786cf628d74f9490aad0fdeccd974a1d7da30d3a90187c78275a393d52937",
  "time": 1232215545,
  "mediantime": 1232212551,
  "nonce": 3567716120,
  "bits": "1d00ffff",
  "difficulty": 1,
  "chainwork": "0000000000000000000000000000000000000000000000000000034103410341",
  "nTx": 1,
  "previousblockhash": "00000000f557e10424ce91bffe1d0ca46ff134dbd5fb2447690bfc9d3842cb3b",
  "nextblockhash": "00000000b551883cb80c81ec7604a6309fdd65d9f59de7bb9a9ed6b81e1c4446",
  "strippedsize": 216,
  "size": 216,
  "weight": 864,
  "tx": [
    {
      "txid": "b64786cf628d74f9490aad0fdeccd974a1d7da30d3a90187c78275a393d52937",
      "hash": "b64786cf628d74f9490aad0fdeccd974a1d7da30d3a90187c78275a393d52937",
      "version": 1,
      "size": 135,
      "vsize": 135,
      "weight": 540,
      "locktime": 0,
      "vin": [
        {
          "coinbase": "04ffff001d02fb01",
          "sequence": 4294967295
        }
      ],
      "vout": [
        {
          "value": 50.0,
          "n": 0,
          "scriptPubKey": {
            "asm": "0458d7482f2ff13247b862b8dcb1b4e1772adf23ce95a0458eb3c4b9d00463fb3e0d16bc2b8de94a2f6be105322bff0bf2ef9c662cf58772cbddba1121053fd1b9 OP_CHECKSIG",
            "desc": "pk(0458d7482f2ff13247b862b8dcb1b4e1772adf23ce95a0458eb3c4b9d00463fb3e0d16bc2b8de94a2f6be105322bff0bf2ef9c662cf58772cbddba1121053fd1b9)#f37h6t05",
            "hex": "410458d7482f2ff13247b862b8dcb1b4e1772adf23ce95a0458eb3c4b9d00463fb3e0d16bc2b8de94a2f6be105322bff0bf2ef9c662cf58772cbddba1121053fd1b9ac",
            "type": "pubkey"
          }
        }
      ],
      "hex": "01000000010000000000000000000000000000000000000000000000000000000000000000ffffffff0804ffff001d02fb01ffffffff0100f2052a0100000043410458d7482f2ff13247b862b8dcb1b4e1772adf23ce95a0458eb3c4b9d00463fb3e0d16bc2b8de94a2f6be105322bff0bf2ef9c662cf58772cbddba1121053fd1b9ac00000000"
    }
  ]
}