{
  "hash": "0000000004fdca0b00bdc8845d9bddfe8086a916cc1968e9b5728299e623bfba",
  "confirmations": 48039,
  "height": 5059,
  "version": 1,
  "versionHex": "00000001",
  "merkleroot": "9ae64e45939bb7c867e588e8e91d0a20f4416d0ea3cbba8b00b4af39ce9ac4df",
  "time": 1235183552,
  "mediantime": 1235179889,
  "nonce": 1495790625,
  "bits": "1d00ffff",
  "difficulty": 1,
  "chainwork": "000000000000000000000000000000000000000000000000000013c413c413c4",
  "nTx": 1,
  "previousblockhash": "00000000b3a1512e402bcfa350c42147e08aa8d6450699015bbd69e76f99a8ae",
  "nextblockhash": "000000007abf4c8c2a728e434a329be762197f8b4ee3b6032de990d9e98786c0",
  "strippedsize": 216,
  "size": 216,
  "weight": 864,
  "tx": [
    {
      "txid": "9ae64e45939bb7c867e588e8e91d0a20f4416d0ea3cbba8b00b4af39ce9ac4df",
      "hash": "9ae64e45939bb7c867e588e8e91d0a20f4416d0ea3cbba8b00b4af39ce9ac4df",
      "version": 1,
      "size": 135,
      "vsize": 135,
      "weight": 540,
      "locktime": 0,
      "vin": [
        {
          "coinbase": "04ffff001d020608",
          "sequence": 4294967295
        }
      ],
      "vout": [
        {
          "value": 50.0,
          "n": 0,
          "scriptPubKey": {
            "asm": "04d3d452dd395ad2e529a1294e5028164dc7747a3766cae5d77f4696b7e39e37de14a82ae788dd395853214d5028ad5cd9f5b355052f9c12c8e7a0e8efa50dfbaf OP_CHECKSIG",
            "desc": "pk(04d3d452dd395ad2e529a1294e5028164dc7747a3766cae5d77f4696b7e39e37de14a82ae788dd395853214d5028ad5cd9f5b355052f9c12c8e7a0e8efa50dfbaf)#wuct3y80",
            "hex": "4104d3d452dd395ad2e529a1294e5028164dc7747a3766cae5d77f4696b7e39e37de14a82ae788dd395853214d5028ad5cd9f5b355052f9c12c8e7a0e8efa50dfbafac",
            "type": "pubkey"
          }
        }
      ],
      "hex": "01000000010000000000000000000000000000000000000000000000000000000000000000ffffffff0804ffff001d020608ffffffff0100f2052a01000000434104d3d452dd395ad2e529a1294e5028164dc7747a3766cae5d77f4696b7e39e37de14a82ae788dd395853214d5028ad5cd9f5b355052f9c12c8e7a0e8efa50dfbafac00000000"
    }
  ]
}