{
  "hash": "0000000041cbfb172d013707146f30a9111906dc0a1af654b133aa6a285e12ec",
  "confirmations": 50739,
  "height": 2359,
  "version": 1,
  "versionHex": "00000001",
  "merkleroot": "31a1b9907e56b0dc812ad996bea8d6030b2922c5f2f798a544080cad860bfadd",
  "time": 1233321637,
  "mediantime": 1233319769,
  "nonce": 117725990,
  "bits": "1d00ffff",
  "difficulty": 1,
  "chainwork": "0000000000000000000000000000000000000000000000000000093809380938",
  "nTx": 1,
  "previousblockhash": "00000000514ddec4a6b0d55c28feca01a393c2818d2a42b37c5943552af08274",
  "nextblockhash": "00000000eba8a666e81792ca1f8b4b9bacf6ff879ad511e830d010e434dcfa85",
  "strippedsize": 216,
  "size": 216,
  "weight": 864,
  "tx": [
    {
      "txid": "31a1b9907e56b0dc812ad996bea8d6030b2922c5f2f798a544080cad860bfadd",
      "hash": "31a1b9907e56b0dc812ad996bea8d6030b2922c5f2f798a544080cad860bfadd",
      "version": 1,
      "size": 135,
      "vsize": 135,
      "weight": 540,
      "locktime": 0,
      "vin": [
        {
          "coinbase": "04ffff001d02a404",
          "sequence": 4294967295
        }
      ],
      "vout": [
        {
          "value": 50.0,
          "n": 0,
          "scriptPubKey": {
            "asm": "04a5c27b3e2f6b85cd8d55f388dac02a1d91e0e927425ec66142d4a64fc49b32bc717ae9a95e7035f2e348cd6c5d81ec56e8a6e236caf240a2fa1b766886f94f01 OP_CHECKSIG",
            "desc": "pk(04a5c27b3e2f6b85cd8d55f388dac02a1d91e0e927425ec66142d4a64fc49b32bc717ae9a95e7035f2e348cd6c5d81ec56e8a6e236caf240a2fa1b766886f94f01)#nhg8f079",
            "hex": "4104a5c27b3e2f6b85cd8d55f388dac02a1d91e0e927425ec66142d4a64fc49b32bc717ae9a95e7035f2e348cd6c5d81ec56e8a6e236caf240a2fa1b766886f94f01ac",
            "type": "pubkey"
          }
        }
      ],
      "hex": "01000000010000000000000000000000000000000000000000000000000000000000000000ffffffff0804ffff001d02a404ffffffff0100f2052a01000000434104a5c27b3e2f6b85cd8d55f388dac02a1d91e0e927425ec66142d4a64fc49b32bc717ae9a95e7035f2e348cd6c5d81ec56e8a6e236caf240a2fa1b766886f94f01ac00000000"
    }
  ]
}