{
  "hash": "00000000bb6f3e9f1dc7ea4adb5ddb96269ee74ded0edc64a78176a82a9b842e",
  "confirmations": 47982,
  "height": 5116,
  "version": 1,
  "versionHex": "00000001",
  "merkleroot": "999994013e2ea6cf257fe22f2f90a85f9955732b2145f17eeec2b339ccbc308c",
  "time": 1235228859,
  "mediantime": 1235224884,
  "nonce": 1346090794,
  "bits": "1d00ffff",
  "difficulty": 1,
  "chainwork": "000000000000000000000000000000000000000000000000000013fd13fd13fd",
  "nTx": 1,
  "previousblockhash": "000000008b2cde95da2c8c37affea1854ed3f450172249e2533990dd63a41bcd",
  "nextblockhash": "000000003babb3c0681dcb3b43e7f200ee884229d88c0ec9137ee30c6cb687bb",
  "strippedsize": 216,
  "size": 216,
  "weight": 864,
  "tx": [
    {
      "txid": "999994013e2ea6cf257fe22f2f90a85f9955732b2145f17eeec2b339ccbc308c",
      "hash": "999994013e2ea6cf257fe22f2f90a85f9955732b2145f17eeec2b339ccbc308c",
      "version": 1,
      "size": 135,
      "vsize": 135,
      "weight": 540,
      "locktime": 0,
      "vin": [
        {
          "coinbase": "04ffff001d024c09",
          "sequence": 4294967295
        }
      ],
      "vout": [
        {
          "value": 50.0,
          "n": 0,
          "scriptPubKey": {
            "asm": "04c5cf6f50caeb3586795f77a7751ceeed39eec8ebf7cdbb5bebe3d60dce6f291e495d64d035062f54ebe2f776b6dc2540e75db7817cc9735fcebf4cb893ebc8c0 OP_CHECKSIG",
            "desc": "pk(04c5cf6f50caeb3586795f77a7751ceeed39eec8ebf7cdbb5bebe3d60dce6f291e495d64d035062f54ebe2f776b6dc2540e75db7817cc9735fcebf4cb893ebc8c0)#k7pnu4t6",
            "hex": "4104c5cf6f50caeb3586795f77a7751ceeed39eec8ebf7cdbb5bebe3d60dce6f291e495d64d035062f54ebe2f776b6dc2540e75db7817cc9735fcebf4cb893ebc8c0ac",
            "type": "pubkey"
          }
        }
      ],
      "hex": "01000000010000000000000000000000000000000000000000000000000000000000000000ffffffff0804ffff001d024c09ffffffff0100f2052a01000000434104c5cf6f50caeb3586795f77a7751ceeed39eec8ebf7cdbb5bebe3d60dce6f291e495d64d035062f54ebe2f776b6dc2540e75db7817cc9735fcebf4cb893ebc8c0ac00000000"
    }
  ]
}