{
  "hash": "00000000d40f8fd5a583f3c209ada02ffe8a71cd177e7124d9f658f7a0b3e234",
  "confirmations": 43269,
  "height": 9829,
  "version": 1,
  "versionHex": "00000001",
  "merkleroot": "407b1b915f1ba66f6a57f6db61578f2a74026ecb00d253daa8d4c22e99789eb8",
  "time": 1238876382,
  "mediantime": 1238872718,
  "nonce": 73525183,
  "bits": "1d00ffff",
  "difficulty": 1,
  "chainwork": "0000000000000000000000000000000000000000000000000000266626662666",
  "nTx": 1,
  "previousblockhash": "00000000db0de32a3c00674d9e61d317669f00292ca2b91ad8958d90ae0aa426",
  "nextblockhash": "000000007f59c710050c4c76857fd164113222ca67e77e97ae2a06a5de36c535",
  "strippedsize": 216,
  "size": 216,
  "weight": 864,
  "tx": [
    {
      "txid": "407b1b915f1ba66f6a57f6db61578f2a74026ecb00d253daa8d4c22e99789eb8",
      "hash": "407b1b915f1ba66f6a57f6db61578f2a74026ecb00d253daa8d4c22e99789eb8",
      "version": 1,
      "size": 135,
      "vsize": 135,
      "weight": 540,
      "locktime": 0,
      "vin": [
        {
          "coinbase": "04ffff001d02b301",
          "sequence": 4294967295
        }
      ],
      "vout": [
        {
          "value": 50.0,
          "n": 0,
          "scriptPubKey": {
            "asm": "04b8f8c2ff9aa814ed1b6db604006d2a95e62795d652c49b851c51f25c49f2806eafa5f265cbd037d96b81c58561a9a5b66689a913eef51651eab00412646633ad OP_CHECKSIG",
            "desc": "pk(04b8f8c2ff9aa814ed1b6db604006d2a95e62795d652c49b851c51f25c49f2806eafa5f265cbd037d96b81c58561a9a5b66689a913eef51651eab00412646633ad)#gxcjq6kf",
            "hex": "4104b8f8c2ff9aa814ed1b6db604006d2a95e62795d652c49b851c51f25c49f2806eafa5f265cbd037d96b81c58561a9a5b66689a913eef51651eab00412646633adac",
            "type": "pubkey"
          }
        }
      ],
      "hex": "01000000010000000000000000000000000000000000000000000000000000000000000000ffffffff0804ffff001d02b301ffffffff0100f2052a01000000434104b8f8c2ff9aa814ed1b6db604006d2a95e62795d652c49b851c51f25c49f2806eafa5f265cbd037d96b81c58561a9a5b66689a913eef51651eab00412646633adac00000000"
    }
  ]
}