{
  "hash": "000000001e77447f842ce3058379840fcff6a670567eda1a8f88186ef018b753",
  "confirmations": 50812,
  "height": 2286,
  "version": 1,
  "versionHex": "00000001",
  "merkleroot": "beb1857acb79abf0d30ec2176503045c765fefc473075adfa846e50d5918e952",
  "time": 1233271777,
  "mediantime": 1233268037,
  "nonce": 3344532504,
  "bits": "1d00ffff",
  "difficulty": 1,
  "chainwork": "000000000000000000000000000000000000000000000000000008ef08ef08ef",
  "nTx": 1,
  "previousblockhash": "000000002d9af58ffb34e9f64fd800380506a575c53476fe65b806acee7d5e9c",
  "nextblockhash": "0000000065aebd2a083094fe89216a6c350e59db077c8b5aae471014c8f54afa",
  "strippedsize": 216,
  "size": 216,
  "weight": 864,
  "tx": [
    {
      "txid": "beb1857acb79abf0d30ec2176503045c765fefc473075adfa846e50d5918e952",
      "hash": "beb1857acb79abf0d30ec2176503045c765fefc473075adfa846e50d5918e952",
      "version": 1,
      "size": 135,
      "vsize": 135,
      "weight": 540,
      "locktime": 0,
      "vin": [
        {
          "coinbase": "04ffff001d027f01",
          "sequence": 4294967295
        }
      ],
      "vout": [
        {
          "value": 50.0,
          "n": 0,
          "scriptPubKey": {
            "asm": "044af623e205fedac3cf6a5a8cacf1b623d4307644ec977364e79321188c7924729aa27b4f02078db25972ed53aa2d9b0eda3853e1feb2f1fead9ef08d2bca06d6 OP_CHECKSIG",
            "desc": "pk(044af623e205fedac3cf6a5a8cacf1b623d4307644ec977364e79321188c7924729aa27b4f02078db25972ed53aa2d9b0eda3853e1feb2f1fead9ef08d2bca06d6)#w24wl9d0",
            "hex": "41044af623e205fedac3cf6a5a8cacf1b623d4307644ec977364e79321188c7924729aa27b4f02078db25972ed53aa2d9b0eda3853e1feb2f1fead9ef08d2bca06d6ac",
            "type": "pubkey"
          }
        }
      ],
      "hex": "01000000010000000000000000000000000000000000000000000000000000000000000000ffffffff0804ffff001d027f01ffffffff0100f2052a010000004341044af623e205fedac3cf6a5a8cacf1b623d4307644ec977364e79321188c7924729aa27b4f02078db25972ed53aa2d9b0eda3853e1feb2f1fead9ef08d2bca06d6ac00000000"
    }
  ]
}