{
  "hash": "0000000026e0e62efd67c827c3574ccf518af231744a36f4487d4a20b59064c4",
  "confirmations": 49462,
  "height": 3636,
  "version": 1,
  "versionHex": "00000001",
  "merkleroot": "82c2a70bce552b47d9d34a49cae5fb2bddc9c6e66e121cccb7f583e0ca0a46dc",
  "time": 1234194840,
  "mediantime": 1234191613,
  "nonce": 136713723,
  "bits": "1d00ffff",
  "difficulty": 1,
  "chainwork": "00000000000000000000000000000000000000000000000000000e350e350e35",
  "nTx": 1,
  "previousblockhash": "000000006a9110164292ac6f9ba47e1d9f2104d18c046428ef5ff5f35a95f129",
  "nextblockhash": "00000000773154fb5e95c65f36d1f0f6c02355f61da430dbd05d0c56166bb1cd",
  "strippedsize": 216,
  "size": 216,
  "weight": 864,
  "tx": [
    {
      "txid": "82c2a70bce552b47d9d34a49cae5fb2bddc9c6e66e121cccb7f583e0ca0a46dc",
      "hash": "82c2a70bce552b47d9d34a49cae5fb2bddc9c6e66e121cccb7f583e0ca0a46dc",
      "version": 1,
      "size": 135,
      "vsize": 135,
      "weight": 540,
      "locktime": 0,
      "vin": [
        {
          "coinbase": "04ffff001d029e00",
          "sequence": 4294967295
        }
      ],
      "vout": [
        {
          "value": 50.0,
          "n": 0,
          "scriptPubKey": {
            "asm": "04d55f27599c2bd7dea0ce163771b73f24c2f4d0af7340124e96f36ea13dbb373268a49e2020822002a49466626eed55e39c64396df359f9e43fd60f4f95b2e3f0 OP_CHECKSIG",
            "desc": "pk(04d55f27599c2bd7dea0ce163771b73f24c2f4d0af7340124e96f36ea13dbb373268a49e2020822002a49466626eed55e39c64396df359f9e43fd60f4f95b2e3f0)#xlhz7ctf",
            "hex": "4104d55f27599c2bd7dea0ce163771b73f24c2f4d0af7340124e96f36ea13dbb373268a49e2020822002a49466626eed55e39c64396df359f9e43fd60f4f95b2e3f0ac",
            "type": "pubkey"
          }
        }
      ],
      "hex": "01000000010000000000000000000000000000000000000000000000000000000000000000ffffffff0804ffff001d029e00ffffffff0100f2052a01000000434104d55f27599c2bd7dea0ce163771b73f24c2f4d0af7340124e96f36ea13dbb373268a49e2020822002a49466626eed55e39c64396df359f9e43fd60f4f95b2e3f0ac00000000"
    }
  ]
}