{
  "hash": "0000000059144ee3a0c4f074da3ebad27603e2c204040d6cf8649472db46c66b",
  "confirmations": 51506,
  "height": 1592,
  "version": 1,
  "versionHex": "00000001",
  "merkleroot": "be1e064f91b1dcac1d98b09918a53a3fcde71fe294ea4ce5fd9afd7068487c0f",
  "time": 1232808014,
  "mediantime": 1232805920,
  "nonce": 2581701924,
  "bits": "1d00ffff",
  "difficulty": 1,
  "chainwork": "0000000000000000000000000000000000000000000000000000063906390639",
  "nTx": 1,
  "previousblockhash": "00000000d4152fb0ba70734d96d473f89576699727b5b8cd008fc7e344bdf3e8",
  "nextblockhash": "00000000dd29353953496a5a1d58dd7ccf9357e835730e2c834fbb60e741c7e1",
  "strippedsize": 216,
  "size": 216,
  "weight": 864,
  "tx": [
    {
      "txid": "be1e064f91b1dcac1d98b09918a53a3fcde71fe294ea4ce5fd9afd7068487c0f",
      "hash": "be1e064f91b1dcac1d98b09918a53a3fcde71fe294ea4ce5fd9afd7068487c0f",
      "version": 1,
      "size": 135,
      "vsize": 135,
      "weight": 540,
      "locktime": 0,
      "vin": [
        {
          "coinbase": "04ffff001d020302",
          "sequence": 4294967295
        }
      ],
      "vout": [
        {
          "value": 50.0,
          "n": 0,
          "scriptPubKey": {
            "asm": "04934963b77c39fa56da8060929843b368d56344ae9e5691603d192fb1c5f273acd91e9733b30b4ff55aeac06ba746f9f1e3e5cfa54743f63daecb410149e7c86d OP_CHECKSIG",
            "desc": "pk(04934963b77c39fa56da8060929843b368d56344ae9e5691603d192fb1c5f273acd91e9733b30b4ff55aeac06ba746f9f1e3e5cfa54743f63daecb410149e7c86d)#j6sakjeq",
            "hex": "4104934963b77c39fa56da8060929843b368d56344ae9e5691603d192fb1c5f273acd91e9733b30b4ff55aeac06ba746f9f1e3e5cfa54743f63daecb410149e7c86dac",
            "type": "pubkey"
          }
        }
      ],
      "hex": "01000000010000000000000000000000000000000000000000000000000000000000000000ffffffff0804ffff001d020302ffffffff0100f2052a01000000434104934963b77c39fa56da8060929843b368d56344ae9e5691603d192fb1c5f273acd91e9733b30b4ff55aeac06ba746f9f1e3e5cfa54743f63daecb410149e7c86dac00000000"
    }
  ]
}