{
  "hash": "000000004bae4adf43210b0bb648cd6b3e822a13a18470eb58ab067c9fedee9b",
  "confirmations": 47325,
  "height": 5773,
  "version": 1,
  "versionHex": "00000001",
  "merkleroot": "50a50addf3c0c5a78f03f3d9b1119be41df051fb420a4c31328ef6e57383713c",
  "time": 1235739419,
  "mediantime": 1235737042,
  "nonce": 1090105903,
  "bits": "1d00ffff",
  "difficulty": 1,
  "chainwork": "0000000000000000000000000000000000000000000000000000168e168e168e",
  "nTx": 1,
  "previousblockhash": "0000000096c38ede93980fb06b6325557fe11208632bff19231724746c72c26a",
  "nextblockhash": "00000000512ca848725a11c84b714fd2b6b2be71d28be2c2e5d5ffd456ddad57",
  "strippedsize": 215,
  "size": 215,
  "weight": 860,
  "tx": [
    {
      "txid": "50a50addf3c0c5a78f03f3d9b1119be41df051fb420a4c31328ef6e57383713c",
      "hash": "50a50addf3c0c5a78f03f3d9b1119be41df051fb420a4c31328ef6e57383713c",
      "version": 1,
      "size": 134,
      "vsize": 134,
      "weight": 536,
      "locktime": 0,
      "vin": [
        {
          "coinbase": "04ffff001d0155",
          "sequence": 4294967295
        }
      ],
      "vout": [
        {
          "value": 50.0,
          "n": 0,
          "scriptPubKey": {
            "asm": "048601ea3379563039aeaba97e51ad59e545d8c2bcc46d53a3bf36610f9d107ff1d8aa78948fbd8edb19459e925113b4c6c736da9fdca4b04897707cc505f51475 OP_CHECKSIG",
            "desc": "pk(048601ea3379563039aeaba97e51ad59e545d8c2bcc46d53a3bf36610f9d107ff1d8aa78948fbd8edb19459e925113b4c6c736da9fdca4b04897707cc505f51475)#v3qrf3u3",
            "hex": "41048601ea3379563039aeaba97e51ad59e545d8c2bcc46d53a3bf36610f9d107ff1d8aa78948fbd8edb19459e925113b4c6c736da9fdca4b04897707cc505f51475ac",
            "type": "pubkey"
          }
        }
      ],
      "hex": "01000000010000000000000000000000000000000000000000000000000000000000000000ffffffff0704ffff001d0155ffffffff0100f2052a010000004341048601ea3379563039aeaba97e51ad59e545d8c2bcc46d53a3bf36610f9d107ff1d8aa78948fbd8edb19459e925113b4c6c736da9fdca4b04897707cc505f51475ac00000000"
    }
  ]
}