{
  "hash": "0000000070ac1f16e6ee73ed5fd4cd0b095844be257eafc617d86e54f0432b94",
  "confirmations": 52412,
  "height": 686,
  "version": 1,
  "versionHex": "00000001",
  "merkleroot": "ceb97d8e9e495ef6a0fdca97f78f7ac7811dd7b2b6b786dc8f0816874d5e6d24",
  "time": 1232098329,
  "mediantime": 1232093273,
  "nonce": 3018601779,
  "bits": "1d00ffff",
  "difficulty": 1,
  "chainwork": "000000000000000000000000000000000000000000000000000002af02af02af",
  "nTx": 1,
  "previousblockhash": "0000000073b026aae76ee20013acea08aa45bb75a37947d245e7b2ce3fe1f403",
  "nextblockhash": "000000006ba5f6eada01dce3194be9fa2ff777b689bce7ab37a4d5a85e591820",
  "strippedsize": 216,
  "size": 216,
  "weight": 864,
  "tx": [
    {
      "txid": "ceb97d8e9e495ef6a0fdca97f78f7ac7811dd7b2b6b786dc8f0816874d5e6d24",
      "hash": "ceb97d8e9e495ef6a0fdca97f78f7ac7811dd7b2b6b786dc8f0816874d5e6d24",
      "version": 1,
      "size": 135,
      "vsize": 135,
      "weight": 540,
      "locktime": 0,
      "vin": [
        {
          "coinbase": "04ffff001d029100",
          "sequence": 4294967295
        }
      ],
      "vout": [
        {
          "value": 50.0,
          "n": 0,
          "scriptPubKey": {
            "asm": "048303dbe18c34da6c9423cd005024b02edfd6c4463808dad69b5b981ced29baf5d38b006de01135b0dbb3e50044ab04cdabe9df90513804a9c391af3da2e677a0 OP_CHECKSIG",
            "desc": "pk(048303dbe18c34da6c9423cd005024b02edfd6c4463808dad69b5b981ced29baf5d38b006de01135b0dbb3e50044ab04cdabe9df90513804a9c391af3da2e677a0)#hm42g86s",
            "hex": "41048303dbe18c34da6c9423cd005024b02edfd6c4463808dad69b5b981ced29baf5d38b006de01135b0dbb3e50044ab04cdabe9df90513804a9c391af3da2e677a0ac",
            "type": "pubkey"
          }
        }
      ],
      "hex": "01000000010000000000000000000000000000000000000000000000000000000000000000ffffffff0804ffff001d029100ffffffff0100f2052a010000004341048303dbe18c34da6c9423cd005024b02edfd6c4463808dad69b5b981ced29baf5d38b006de01135b0dbb3e50044ab04cdabe9df90513804a9c391af3da2e677a0ac00000000"
    }
  ]
}