{
  "hash": "000000002e3aedc3009c8f2d92a3db486eb5990d61f8506623bf059e227eddf1",
  "confirmations": 50836,
  "height": 2262,
  "version": 1,
  "versionHex": "00000001",
  "merkleroot": "8bf4d8d40c2a329c13db5515b382c6d1c81c393b4c1ba7b880d63cf211bb59ae",
  "time": 1233253190,
  "mediantime": 1233250299,
  "nonce": 3346534967,
  "bits": "1d00ffff",
  "difficulty": 1,
  "chainwork": "000000000000000000000000000000000000000000000000000008d708d708d7",
  "nTx": 1,
  "previousblockhash": "000000007ce675fe62345c4b8fc6bddb22d185651856fd93164db8f637f49678",
  "nextblockhash": "000000005b2eba6c1e6d69772b8954cacdd63ae22b219a95c15efd9140afd218",
  "strippedsize": 216,
  "size": 216,
  "weight": 864,
  "tx": [
    {
      "txid": "8bf4d8d40c2a329c13db5515b382c6d1c81c393b4c1ba7b880d63cf211bb59ae",
      "hash": "8bf4d8d40c2a329c13db5515b382c6d1c81c393b4c1ba7b880d63cf211bb59ae",
      "version": 1,
      "size": 135,
      "vsize": 135,
      "weight": 540,
      "locktime": 0,
      "vin": [
        {
          "coinbase": "04ffff001d022201",
          "sequence": 4294967295
        }
      ],
      "vout": [
        {
          "value": 50.0,
          "n": 0,
          "scriptPubKey": {
            "asm": "04000d82179bdc0fdfd4c8f7b46e7bea3a84c35dbaacaee3f35193213728fb4afdac18a09151c36d7d16e8b72851e90e7ad4c247ac8ae734a3ce096cb354daf2c0 OP_CHECKSIG",
            "desc": "pk(04000d82179bdc0fdfd4c8f7b46e7bea3a84c35dbaacaee3f35193213728fb4afdac18a09151c36d7d16e8b72851e90e7ad4c247ac8ae734a3ce096cb354daf2c0)#9m9mazwk",
            "hex": "4104000d82179bdc0fdfd4c8f7b46e7bea3a84c35dbaacaee3f35193213728fb4afdac18a09151c36d7d16e8b72851e90e7ad4c247ac8ae734a3ce096cb354daf2c0ac",
            "type": "pubkey"
          }
        }
      ],
      "hex": "01000000010000000000000000000000000000000000000000000000000000000000000000ffffffff0804ffff001d022201ffffffff0100f2052a01000000434104000d82179bdc0fdfd4c8f7b46e7bea3a84c35dbaacaee3f35193213728fb4afdac18a09151c36d7d16e8b72851e90e7ad4c247ac8ae734a3ce096cb354daf2c0ac00000000"
    }
  ]
}