{
  "hash": "00000000196408e7aa04f7e6f5af5bcf5ac83660f309692b6a9b014ff283c93c",
  "confirmations": 44007,
  "height": 9091,
  "version": 1,
  "versionHex": "00000001",
  "merkleroot": "dc314a59df2ecc11b2776121f55cd57a9bba6dd6609f28c4152d2b52daa69c84",
  "time": 1238325255,
  "mediantime": 1238321432,
  "nonce": 28308953,
  "bits": "1d00ffff",
  "difficulty": 1,
  "chainwork": "0000000000000000000000000000000000000000000000000000238423842384",
  "nTx": 1,
  "previousblockhash": "0000000093ca40d39376432134ad4be3517f3143164761e16d09b3ffe6133014",
  "nextblockhash": "00000000dd7777c0b055a537879f460f2f646fd1f5ac1854cdbfd3b4df98edda",
  "strippedsize": 216,
  "size": 216,
  "weight": 864,
  "tx": [
    {
      "txid": "dc314a59df2ecc11b2776121f55cd57a9bba6dd6609f28c4152d2b52daa69c84",
      "hash": "dc314a59df2ecc11b2776121f55cd57a9bba6dd6609f28c4152d2b52daa69c84",
      "version": 1,
      "size": 135,
      "vsize": 135,
      "weight": 540,
      "locktime": 0,
      "vin": [
        {
          "coinbase": "04ffff001d026e05",
          "sequence": 4294967295
        }
      ],
      "vout": [
        {
          "value": 50.0,
          "n": 0,
          "scriptPubKey": {
            "asm": "04fb94f21730c92fcae2cbcbf13b91f5ee72e8dabc2a6c55644716a03a1f8a2bd258bd554ef2e346bae0355c8e9e9e4d5c41bd00b1ee296ba9c1226f4338ecbe1a OP_CHECKSIG",
            "desc": "pk(04fb94f21730c92fcae2cbcbf13b91f5ee72e8dabc2a6c55644716a03a1f8a2bd258bd554ef2e346bae0355c8e9e9e4d5c41bd00b1ee296ba9c1226f4338ecbe1a)#v54n0xcn",
            "hex": "4104fb94f21730c92fcae2cbcbf13b91f5ee72e8dabc2a6c55644716a03a1f8a2bd258bd554ef2e346bae0355c8e9e9e4d5c41bd00b1ee296ba9c1226f4338ecbe1aac",
            "type": "pubkey"
          }
        }
      ],
      "hex": "01000000010000000000000000000000000000000000000000000000000000000000000000ffffffff0804ffff001d026e05ffffffff0100f2052a01000000434104fb94f21730c92fcae2cbcbf13b91f5ee72e8dabc2a6c55644716a03a1f8a2bd258bd554ef2e346bae0355c8e9e9e4d5c41bd00b1ee296ba9c1226f4338ecbe1aac00000000"
    }
  ]
}