{
  "hash": "00000000e677056d42005209b140b3ff81d64dc757ad4fc30ad6776a289fbdb7",
  "confirmations": 52076,
  "height": 1022,
  "version": 1,
  "versionHex": "00000001",
  "merkleroot": "0a3ef3dc1277e0c8bc453c296ece188a9149fb2825f84eda5906dfa6c994af2e",
  "time": 1232366060,
  "mediantime": 1232361382,
  "nonce": 828668469,
  "bits": "1d00ffff",
  "difficulty": 1,
  "chainwork": "000000000000000000000000000000000000000000000000000003ff03ff03ff",
  "nTx": 1,
  "previousblockhash": "00000000888fa29c0d536dd58236724bc0dc115120dab4bfc529ffea1cb680fc",
  "nextblockhash": "00000000e8817bc0ab40272591666f084b92130eee0e5172c04512dd6409fcb7",
  "strippedsize": 216,
  "size": 216,
  "weight": 864,
  "tx": [
    {
      "txid": "0a3ef3dc1277e0c8bc453c296ece188a9149fb2825f84eda5906dfa6c994af2e",
      "hash": "0a3ef3dc1277e0c8bc453c296ece188a9149fb2825f84eda5906dfa6c994af2e",
      "version": 1,
      "size": 135,
      "vsize": 135,
      "weight": 540,
      "locktime": 0,
      "vin": [
        {
          "coinbase": "04ffff001d029705",
          "sequence": 4294967295
        }
      ],
      "vout": [
        {
          "value": 50.0,
          "n": 0,
          "scriptPubKey": {
            "asm": "041b1e84f776630990e9431decbd05331f495e27a1e5c3afe99c9689728126db78873147056adadfeed138263a90a2af73c21a3a7964b77c4effffed418be49b0c OP_CHECKSIG",
            "desc": "pk(041b1e84f776630990e9431decbd05331f495e27a1e5c3afe99c9689728126db78873147056adadfeed138263a90a2af73c21a3a7964b77c4effffed418be49b0c)#rkcngk30",
            "hex": "41041b1e84f776630990e9431decbd05331f495e27a1e5c3afe99c9689728126db78873147056adadfeed138263a90a2af73c21a3a7964b77c4effffed418be49b0cac",
            "type": "pubkey"
          }
        }
      ],
      "hex": "01000000010000000000000000000000000000000000000000000000000000000000000000ffffffff0804ffff001d029705ffffffff0100f2052a010000004341041b1e84f776630990e9431decbd05331f495e27a1e5c3afe99c9689728126db78873147056adadfeed138263a90a2af73c21a3a7964b77c4effffed418be49b0cac00000000"
    }
  ]
}