{
  "hash": "000000008555c940e09136773b09dc488ceb3f42651cb313e6b4d5d08e434c14",
  "confirmations": 48547,
  "height": 4551,
  "version": 1,
  "versionHex": "00000001",
  "merkleroot": "6573420b98cd0fb03bd1e517d625b779749cf181c9ccbaef2cafd8a31e81c899",
  "time": 1234818767,
  "mediantime": 1234814380,
  "nonce": 1376658209,
  "bits": "1d00ffff",
  "difficulty": 1,
  "chainwork": "000000000000000000000000000000000000000000000000000011c811c811c8",
  "nTx": 1,
  "previousblockhash": "000000000d59ddea668da22b3125c200f09719e6ac62c5ab2b55c86bcab0790e",
  "nextblockhash": "00000000fcd5ef4eea5afc135e0d18609a3690b58b12f51f5399f234c4391a05",
  "strippedsize": 215,
  "size": 215,
  "weight": 860,
  "tx": [
    {
      "txid": "6573420b98cd0fb03bd1e517d625b779749cf181c9ccbaef2cafd8a31e81c899",
      "hash": "6573420b98cd0fb03bd1e517d625b779749cf181c9ccbaef2cafd8a31e81c899",
      "version": 1,
      "size": 134,
      "vsize": 134,
      "weight": 536,
      "locktime": 0,
      "vin": [
        {
          "coinbase": "04ffff001d0120",
          "sequence": 4294967295
        }
      ],
      "vout": [
        {
          "value": 50.0,
          "n": 0,
          "scriptPubKey": {
            "asm": "0477920788f8b3a2b06394f11e7831f48dd1537980f00184ff94428dc03c5ff23d3c78742a3c24f4a528ce71081b72e86436ea8c334a361fb75c88824b2cbe1ec7 OP_CHECKSIG",
            "desc": "pk(0477920788f8b3a2b06394f11e7831f48dd1537980f00184ff94428dc03c5ff23d3c78742a3c24f4a528ce71081b72e86436ea8c334a361fb75c88824b2cbe1ec7)#386q0fqk",
            "hex": "410477920788f8b3a2b06394f11e7831f48dd1537980f00184ff94428dc03c5ff23d3c78742a3c24f4a528ce71081b72e86436ea8c334a361fb75c88824b2cbe1ec7ac",
            "type": "pubkey"
          }
        }
      ],
      "hex": "01000000010000000000000000000000000000000000000000000000000000000000000000ffffffff0704ffff001d0120ffffffff0100f2052a0100000043410477920788f8b3a2b06394f11e7831f48dd1537980f00184ff94428dc03c5ff23d3c78742a3c24f4a528ce71081b72e86436ea8c334a361fb75c88824b2cbe1ec7ac00000000"
    }
  ]
}