{
  "hash": "000000009cfa56aad416605ed3a78c1a75e71263c2fb8582fbf606ba7bc92027",
  "confirmations": 44084,
  "height": 9014,
  "version": 1,
  "versionHex": "00000001",
  "merkleroot": "0a8108eac0671aa6400198c88fa0be0f19a9a9c9d9d6022b8ac0618fe1164e25",
  "time": 1238261932,
  "mediantime": 1238258296,
  "nonce": 1952920064,
  "bits": "1d00ffff",
  "difficulty": 1,
  "chainwork": "0000000000000000000000000000000000000000000000000000233723372337",
  "nTx": 1,
  "previousblockhash": "00000000a2185f1af428c37a1b72cd744761ede6656c601d7bee0de68849c6b2",
  "nextblockhash": "0000000014ae472605c2919345c6c8e7f87213455218ed44b319f405725a3168",
  "strippedsize": 216,
  "size": 216,
  "weight": 864,
  "tx": [
    {
      "txid": "0a8108eac0671aa6400198c88fa0be0f19a9a9c9d9d6022b8ac0618fe1164e25",
      "hash": "0a8108eac0671aa6400198c88fa0be0f19a9a9c9d9d6022b8ac0618fe1164e25",
      "version": 1,
      "size": 135,
      "vsize": 135,
      "weight": 540,
      "locktime": 0,
      "vin": [
        {
          "coinbase": "04ffff001d029a06",
          "sequence": 4294967295
        }
      ],
      "vout": [
        {
          "value": 50.0,
          "n": 0,
          "scriptPubKey": {
            "asm": "04cb529e83b66d31c7173d2aa9693ffabbde4a1d8347ec49272540de52804d05cf46175e84a1e91c9027182ac560663cc58b326dd04419729a2038f7c45c1b7d84 OP_CHECKSIG",
            "desc": "pk(04cb529e83b66d31c7173d2aa9693ffabbde4a1d8347ec49272540de52804d05cf46175e84a1e91c9027182ac560663cc58b326dd04419729a2038f7c45c1b7d84)#0gucj9u4",
            "hex": "4104cb529e83b66d31c7173d2aa9693ffabbde4a1d8347ec49272540de52804d05cf46175e84a1e91c9027182ac560663cc58b326dd04419729a2038f7c45c1b7d84ac",
            "type": "pubkey"
          }
        }
      ],
      "hex": "01000000010000000000000000000000000000000000000000000000000000000000000000ffffffff0804ffff001d029a06ffffffff0100f2052a01000000434104cb529e83b66d31c7173d2aa9693ffabbde4a1d8347ec49272540de52804d05cf46175e84a1e91c9027182ac560663cc58b326dd04419729a2038f7c45c1b7d84ac00000000"
    }
  ]
}