{
  "hash": "00000000dd77ec9906d6a4ffde7d95945d6c675a922fc1bd365e5ff46f49fed3",
  "confirmations": 46971,
  "height": 6127,
  "version": 1,
  "versionHex": "00000001",
  "merkleroot": "928880cb918ea949b841ef8ec5d9b688590a41ff55b3c232856f34cec8b74768",
  "time": 1236029858,
  "mediantime": 1236027168,
  "nonce": 22255694,
  "bits": "1d00ffff",
  "difficulty": 1,
  "chainwork": "000000000000000000000000000000000000000000000000000017f017f017f0",
  "nTx": 1,
  "previousblockhash": "00000000e02dd6d27f0ee3727b97f9fe72da33f0a1f06dba8cd4fb887fa1f646",
  "nextblockhash": "0000000089bc59042b867d7ddb16b6c37765a222e848ecb54d6e84f68c4f7e90",
  "strippedsize": 216,
  "size": 216,
  "weight": 864,
  "tx": [
    {
      "txid": "928880cb918ea949b841ef8ec5d9b688590a41ff55b3c232856f34cec8b74768",
      "hash": "928880cb918ea949b841ef8ec5d9b688590a41ff55b3c232856f34cec8b74768",
      "version": 1,
      "size": 135,
      "vsize": 135,
      "weight": 540,
      "locktime": 0,
      "vin": [
        {
          "coinbase": "04ffff001d02b409",
          "sequence": 4294967295
        }
      ],
      "vout": [
        {
          "value": 50.0,
          "n": 0,
          "scriptPubKey": {
            "asm": "04af39bcc8e161ee72c4282acdc7dfab326e53f8a53afa2269da3883d47389edb948baf62265e96818d196462b5ea23d4e2a561d74794db35759613355fbfffb3e OP_CHECKSIG",
            "desc": "pk(04af39bcc8e161ee72c4282acdc7dfab326e53f8a53afa2269da3883d47389edb948baf62265e96818d196462b5ea23d4e2a561d74794db35759613355fbfffb3e)#fut3k5t4",
            "hex": "4104af39bcc8e161ee72c4282acdc7dfab326e53f8a53afa2269da3883d47389edb948baf62265e96818d196462b5ea23d4e2a561d74794db35759613355fbfffb3eac",
            "type": "pubkey"
          }
        }
      ],
      "hex": "01000000010000000000000000000000000000000000000000000000000000000000000000ffffffff0804ffff001d02b409ffffffff0100f2052a01000000434104af39bcc8e161ee72c4282acdc7dfab326e53f8a53afa2269da3883d47389edb948baf62265e96818d196462b5ea23d4e2a561d74794db35759613355fbfffb3eac00000000"
    }
  ]
}