{
  "hash": "0000000067569a97b5224ad24058e62f1c1efbb75a6266f4ce2291a9dd9d201d",
  "confirmations": 50743,
  "height": 2355,
  "version": 1,
  "versionHex": "00000001",
  "merkleroot": "63e71567a02ecdd562d0500cb6e107fa8e1746c6381d1afc9cdf7f9e82502ff0",
  "time": 1233320064,
  "mediantime": 1233317259,
  "nonce": 47533449,
  "bits": "1d00ffff",
  "difficulty": 1,
  "chainwork": "0000000000000000000000000000000000000000000000000000093409340934",
  "nTx": 1,
  "previousblockhash": "000000001093febea6dbeb54dee4f50c3493a10cb8f1eb1299fe0e8f7accb381",
  "nextblockhash": "0000000057ea5c6679b78b415069daa707cca2a39ffd93a7e170482c4af65884",
  "strippedsize": 216,
  "size": 216,
  "weight": 864,
  "tx": [
    {
      "txid": "63e71567a02ecdd562d0500cb6e107fa8e1746c6381d1afc9cdf7f9e82502ff0",
      "hash": "63e71567a02ecdd562d0500cb6e107fa8e1746c6381d1afc9cdf7f9e82502ff0",
      "version": 1,
      "size": 135,
      "vsize": 135,
      "weight": 540,
      "locktime": 0,
      "vin": [
        {
          "coinbase": "04ffff001d02cb00",
          "sequence": 4294967295
        }
      ],
      "vout": [
        {
          "value": 50.0,
          "n": 0,
          "scriptPubKey": {
            "asm": "047dfd9a0e0941cbf009519c1fd38f439bd8869dec04715d08e736e017dd7426b64917634759a7c519751b00094edccfe10b8bd537715cfdefbc7441ccf2b10773 OP_CHECKSIG",
            "desc": "pk(047dfd9a0e0941cbf009519c1fd38f439bd8869dec04715d08e736e017dd7426b64917634759a7c519751b00094edccfe10b8bd537715cfdefbc7441ccf2b10773)#kv7fh4mq",
            "hex": "41047dfd9a0e0941cbf009519c1fd38f439bd8869dec04715d08e736e017dd7426b64917634759a7c519751b00094edccfe10b8bd537715cfdefbc7441ccf2b10773ac",
            "type": "pubkey"
          }
        }
      ],
      "hex": "01000000010000000000000000000000000000000000000000000000000000000000000000ffffffff0804ffff001d02cb00ffffffff0100f2052a010000004341047dfd9a0e0941cbf009519c1fd38f439bd8869dec04715d08e736e017dd7426b64917634759a7c519751b00094edccfe10b8bd537715cfdefbc7441ccf2b10773ac00000000"
    }
  ]
}