{
  "hash": "000000001bdc1ed3d810ff59f3eb7476b5da6327e0233d8abf1158e15de5a701",
  "confirmations": 46248,
  "height": 6850,
  "version": 1,
  "versionHex": "00000001",
  "merkleroot": "926ee3a495b0444a1a00888466be2c7a9e255b55287c2292924c12ef022c098b",
  "time": 1236594080,
  "mediantime": 1236590744,
  "nonce": 1797913604,
  "bits": "1d00ffff",
  "difficulty": 1,
  "chainwork": "00000000000000000000000000000000000000000000000000001ac31ac31ac3",
  "nTx": 1,
  "previousblockhash": "00000000aa05c832c21beecec20b55876fe8e01e36d22e41a7f64225ef96c23c",
  "nextblockhash": "00000000b8197fbfd62c8f20bfd82408800d7fd172ba0cbfd0111edc45136b3d",
  "strippedsize": 216,
  "size": 216,
  "weight": 864,
  "tx": [
    {
      "txid": "926ee3a495b0444a1a00888466be2c7a9e255b55287c2292924c12ef022c098b",
      "hash": "926ee3a495b0444a1a00888466be2c7a9e255b55287c2292924c12ef022c098b",
      "version": 1,
      "size": 135,
      "vsize": 135,
      "weight": 540,
      "locktime": 0,
      "vin": [
        {
          "coinbase": "04ffff001d02ac09",
          "sequence": 4294967295
        }
      ],
      "vout": [
        {
          "value": 50.0,
          "n": 0,
          "scriptPubKey": {
            "asm": "04128f0891d3fd7822d72ff5be1f03638f9f419a0639f9db3c9ceddcda3215687ff9e086a8b0e84d462bfc0aecebf85fea3537dd55c3819f98e5411b8a67464b9a OP_CHECKSIG",
            "desc": "pk(04128f0891d3fd7822d72ff5be1f03638f9f419a0639f9db3c9ceddcda3215687ff9e086a8b0e84d462bfc0aecebf85fea3537dd55c3819f98e5411b8a67464b9a)#z7uq4uc0",
            "hex": "4104128f0891d3fd7822d72ff5be1f03638f9f419a0639f9db3c9ceddcda3215687ff9e086a8b0e84d462bfc0aecebf85fea3537dd55c3819f98e5411b8a67464b9aac",
            "type": "pubkey"
          }
        }
      ],
      "hex": "01000000010000000000000000000000000000000000000000000000000000000000000000ffffffff0804ffff001d02ac09ffffffff0100f2052a01000000434104128f0891d3fd7822d72ff5be1f03638f9f419a0639f9db3c9ceddcda3215687ff9e086a8b0e84d462bfc0aecebf85fea3537dd55c3819f98e5411b8a67464b9aac00000000"
    }
  ]
}