{
  "hash": "00000000e9aaa8adb247ad74351509c6d22e1ef0a5f509bc9c3cee7be4b18a26",
  "confirmations": 50171,
  "height": 2927,
  "version": 1,
  "versionHex": "00000001",
  "merkleroot": "44ebf7d70712aa7964fb3a864f85976110e0dacb0787563cf9c0925185ea4455",
  "time": 1233708693,
  "mediantime": 1233704929,
  "nonce": 4064069895,
  "bits": "1d00ffff",
  "difficulty": 1,
  "chainwork": "00000000000000000000000000000000000000000000000000000b700b700b70",
  "nTx": 1,
  "previousblockhash": "000000000d72b52bd0b37eaddabb740f841ef07d949bddb1e464e819c4a8b96d",
  "nextblockhash": "000000000bddbfb7a2afc264db15385f8a9191a5111edf6bb633b189b24237ae",
  "strippedsize": 215,
  "size": 215,
  "weight": 860,
  "tx": [
    {
      "txid": "44ebf7d70712aa7964fb3a864f85976110e0dacb0787563cf9c0925185ea4455",
      "hash": "44ebf7d70712aa7964fb3a864f85976110e0dacb0787563cf9c0925185ea4455",
      "version": 1,
      "size": 134,
      "vsize": 134,
      "weight": 536,
      "locktime": 0,
      "vin": [
        {
          "coinbase": "04ffff001d0135",
          "sequence": 4294967295
        }
      ],
      "vout": [
        {
          "value": 50.0,
          "n": 0,
          "scriptPubKey": {
            "asm": "048f05b482f5b91b883bcfa0113672ecf446e3f5492627323f3b8e671563400b60da444d8de2d7baa6685821b346d15cd9ef9f58835f83d6f1f5adc497118397f4 OP_CHECKSIG",
            "desc": "pk(048f05b482f5b91b883bcfa0113672ecf446e3f5492627323f3b8e671563400b60da444d8de2d7baa6685821b346d15cd9ef9f58835f83d6f1f5adc497118397f4)#j8cuyun8",
            "hex": "41048f05b482f5b91b883bcfa0113672ecf446e3f5492627323f3b8e671563400b60da444d8de2d7baa6685821b346d15cd9ef9f58835f83d6f1f5adc497118397f4ac",
            "type": "pubkey"
          }
        }
      ],
      "hex": "01000000010000000000000000000000000000000000000000000000000000000000000000ffffffff0704ffff001d0135ffffffff0100f2052a010000004341048f05b482f5b91b883bcfa0113672ecf446e3f5492627323f3b8e671563400b60da444d8de2d7baa6685821b346d15cd9ef9f58835f83d6f1f5adc497118397f4ac00000000"
    }
  ]
}