{
  "hash": "0000000013d5e7718cc000c9663ba96ee043f057bb36abb7850c083afd68506b",
  "confirmations": 43495,
  "height": 9603,
  "version": 1,
  "versionHex": "00000001",
  "merkleroot": "0e3b8c3311f95700bfa6de7c8c8c727a496c52b0ddf22f3dd8f368f2b6ac3298",
  "time": 1238703494,
  "mediantime": 1238698983,
  "nonce": 529569849,
  "bits": "1d00ffff",
  "difficulty": 1,
  "chainwork": "0000000000000000000000000000000000000000000000000000258425842584",
  "nTx": 1,
  "previousblockhash": "0000000045ddcaf83e2dceb3d542c15bd0e6fea78dd814a5c683f2dfdbd58fe5",
  "nextblockhash": "00000000a1042f523e813cb727f4a35553f2f7f8240a693a8b7ba078b3a40164",
  "strippedsize": 216,
  "size": 216,
  "weight": 864,
  "tx": [
    {
      "txid": "0e3b8c3311f95700bfa6de7c8c8c727a496c52b0ddf22f3dd8f368f2b6ac3298",
      "hash": "0e3b8c3311f95700bfa6de7c8c8c727a496c52b0ddf22f3dd8f368f2b6ac3298",
      "version": 1,
      "size": 135,
      "vsize": 135,
      "weight": 540,
      "locktime": 0,
      "vin": [
        {
          "coinbase": "04ffff001d022607",
          "sequence": 4294967295
        }
      ],
      "vout": [
        {
          "value": 50.0,
          "n": 0,
          "scriptPubKey": {
            "asm": "04fede0350a0c4e22c68737a9cb2b3ae1dc9d89279ba180d9bb6402c32237e64adee964bba3f2c6900263af2270554fcac66d1f24ac7447fbc9e755a77dcf48640 OP_CHECKSIG",
            "desc": "pk(04fede0350a0c4e22c68737a9cb2b3ae1dc9d89279ba180d9bb6402c32237e64adee964bba3f2c6900263af2270554fcac66d1f24ac7447fbc9e755a77dcf48640)#e7kn966g",
            "hex": "4104fede0350a0c4e22c68737a9cb2b3ae1dc9d89279ba180d9bb6402c32237e64adee964bba3f2c6900263af2270554fcac66d1f24ac7447fbc9e755a77dcf48640ac",
            "type": "pubkey"
          }
        }
      ],
      "hex": "01000000010000000000000000000000000000000000000000000000000000000000000000ffffffff0804ffff001d022607ffffffff0100f2052a01000000434104fede0350a0c4e22c68737a9cb2b3ae1dc9d89279ba180d9bb6402c32237e64adee964bba3f2c6900263af2270554fcac66d1f24ac7447fbc9e755a77dcf48640ac00000000"
    }
  ]
}