{
  "hash": "0000000007cf0ad7f7b147111cdcf23ffc7f549816c015229a24c9e46321113f",
  "confirmations": 51719,
  "height": 1379,
  "version": 1,
  "versionHex": "00000001",
  "merkleroot": "7245235f362c0756fcad792acb37903a03007c6f0ef42eaa6448ca255dc60a37",
  "time": 1232665064,
  "mediantime": 1232662125,
  "nonce": 734177829,
  "bits": "1d00ffff",
  "difficulty": 1,
  "chainwork": "0000000000000000000000000000000000000000000000000000056405640564",
  "nTx": 1,
  "previousblockhash": "000000000c93445adc7420dc9e6dd3a4d09e38fc1632de68ab23c5b4508c7b20",
  "nextblockhash": "000000007744641587852c7de2729dbdc16888c0b7f686899d7078b558058555",
  "strippedsize": 216,
  "size": 216,
  "weight": 864,
  "tx": [
    {
      "txid": "7245235f362c0756fcad792acb37903a03007c6f0ef42eaa6448ca255dc60a37",
      "hash": "7245235f362c0756fcad792acb37903a03007c6f0ef42eaa6448ca255dc60a37",
      "version": 1,
      "size": 135,
      "vsize": 135,
      "weight": 540,
      "locktime": 0,
      "vin": [
        {
          "coinbase": "04ffff001d02bd01",
          "sequence": 4294967295
        }
      ],
      "vout": [
        {
          "value": 50.0,
          "n": 0,
          "scriptPubKey": {
            "asm": "0442f327c33dcd826e3fee28a6b096c4114ef63b59fa5c5c0d7dc32f1f533aa14675c1efbcb20ddd1ac4199116e12f012cb81ee42efb9a3b0825eaa3c4b93c95f1 OP_CHECKSIG",
            "desc": "pk(0442f327c33dcd826e3fee28a6b096c4114ef63b59fa5c5c0d7dc32f1f533aa14675c1efbcb20ddd1ac4199116e12f012cb81ee42efb9a3b0825eaa3c4b93c95f1)#pzlad9u4",
            "hex": "410442f327c33dcd826e3fee28a6b096c4114ef63b59fa5c5c0d7dc32f1f533aa14675c1efbcb20ddd1ac4199116e12f012cb81ee42efb9a3b0825eaa3c4b93c95f1ac",
            "type": "pubkey"
          }
        }
      ],
      "hex": "01000000010000000000000000000000000000000000000000000000000000000000000000ffffffff0804ffff001d02bd01ffffffff0100f2052a0100000043410442f327c33dcd826e3fee28a6b096c4114ef63b59fa5c5c0d7dc32f1f533aa14675c1efbcb20ddd1ac4199116e12f012cb81ee42efb9a3b0825eaa3c4b93c95f1ac00000000"
    }
  ]
}