{
  "hash": "000000007e87f91334c1be083b131a91c1d4114f6a15ecade25fbcc3c3bc3e73",
  "confirmations": 47674,
  "height": 5424,
  "version": 1,
  "versionHex": "00000001",
  "merkleroot": "0adab441a4b29058f0a546f20d6f22c01196b135be3fd31309e16ac2e048d3f9",
  "time": 1235459324,
  "mediantime": 1235454929,
  "nonce": 1043019041,
  "bits": "1d00ffff",
  "difficulty": 1,
  "chainwork": "0000000000000000000000000000000000000000000000000000153115311531",
  "nTx": 1,
  "previousblockhash": "000000009f74e6529fb869f2193613a1c27a5e6a6c2b5a95d12a844642399cbf",
  "nextblockhash": "00000000b1864af6e54979ec7a500cda079fec0f7c8837b610ca7fc4bd8f75f8",
  "strippedsize": 216,
  "size": 216,
  "weight": 864,
  "tx": [
    {
      "txid": "0adab441a4b29058f0a546f20d6f22c01196b135be3fd31309e16ac2e048d3f9",
      "hash": "0adab441a4b29058f0a546f20d6f22c01196b135be3fd31309e16ac2e048d3f9",
      "version": 1,
      "size": 135,
      "vsize": 135,
      "weight": 540,
      "locktime": 0,
      "vin": [
        {
          "coinbase": "04ffff001d020504",
          "sequence": 4294967295
        }
      ],
      "vout": [
        {
          "value": 50.0,
          "n": 0,
          "scriptPubKey": {
            "asm": "0418a0017507c11baa1352d22fb1aa563d5feee0f3ba4da6e755fe897d1cd102a9f5a264c336c82cba59641e8967bcd7ce5b3d1327e96f00a1d3f2b8d6490d2c75 OP_CHECKSIG",
            "desc": "pk(0418a0017507c11baa1352d22fb1aa563d5feee0f3ba4da6e755fe897d1cd102a9f5a264c336c82cba59641e8967bcd7ce5b3d1327e96f00a1d3f2b8d6490d2c75)#wgtsrnu5",
            "hex": "410418a0017507c11baa1352d22fb1aa563d5feee0f3ba4da6e755fe897d1cd102a9f5a264c336c82cba59641e8967bcd7ce5b3d1327e96f00a1d3f2b8d6490d2c75ac",
            "type": "pubkey"
          }
        }
      ],
      "hex": "01000000010000000000000000000000000000000000000000000000000000000000000000ffffffff0804ffff001d020504ffffffff0100f2052a0100000043410418a0017507c11baa1352d22fb1aa563d5feee0f3ba4da6e755fe897d1cd102a9f5a264c336c82cba59641e8967bcd7ce5b3d1327e96f00a1d3f2b8d6490d2c75ac00000000"
    }
  ]
}