{
  "hash": "000000008b531a4e66ea3065d1f3368f27780b97b5070c1498dc43497a473c3a",
  "confirmations": 52045,
  "height": 134,
  "version": 1,
  "versionHex": "00000001",
  "merkleroot": "0531b1aae949e997105507732ed7c76eae5c9ea987d7a4f7c45e7a28c36cab28",
  "time": 1231686121,
  "mediantime": 1231683160,
  "nonce": 3601960728,
  "bits": "1d00ffff",
  "difficulty": 1,
  "chainwork": "0000000000000000000000000000000000000000000000000000008700870087",
  "nTx": 1,
  "previousblockhash": "00000000f07b7bf9f822bbf60da65ca37459597023c8f128642fec83c13ee9f8",
  "nextblockhash": "000000007dabe608fd4225d279d268f431eed773f03d0a524f1cb079989ff93a",
  "strippedsize": 215,
  "size": 215,
  "weight": 860,
  "tx": [
    {
      "txid": "0531b1aae949e997105507732ed7c76eae5c9ea987d7a4f7c45e7a28c36cab28",
      "hash": "0531b1aae949e997105507732ed7c76eae5c9ea987d7a4f7c45e7a28c36cab28",
      "version": 1,
      "size": 134,
      "vsize": 134,
      "weight": 536,
      "locktime": 0,
      "vin": [
        {
          "coinbase": "04ffff001d0123",
          "sequence": 4294967295
        }
      ],
      "vout": [
        {
          "value": 50.0,
          "n": 0,
          "scriptPubKey": {
            "asm": "04c6b07a546993c948cbddf21bfa3585a9ca65fbcee25ef44c4f298442b2363b738318975158d390c9f56870ddbc50118d391b35d01db25b7931f305d0deda73f3 OP_CHECKSIG",
            "desc": "pk(04c6b07a546993c948cbddf21bfa3585a9ca65fbcee25ef44c4f298442b2363b738318975158d390c9f56870ddbc50118d391b35d01db25b7931f305d0deda73f3)#qzz200xj",
            "hex": "4104c6b07a546993c948cbddf21bfa3585a9ca65fbcee25ef44c4f298442b2363b738318975158d390c9f56870ddbc50118d391b35d01db25b7931f305d0deda73f3ac",
            "type": "pubkey"
          }
        }
      ],
      "hex": "01000000010000000000000000000000000000000000000000000000000000000000000000ffffffff0704ffff001d0123ffffffff0100f2052a01000000434104c6b07a546993c948cbddf21bfa3585a9ca65fbcee25ef44c4f298442b2363b738318975158d390c9f56870ddbc50118d391b35d01db25b7931f305d0deda73f3ac00000000"
    }
  ]
}