{
  "hash": "000000005ddd8f039574aca662cbb1bb13d4e295b6bcbc48f602859d2c44a651",
  "confirmations": 47746,
  "height": 5352,
  "version": 1,
  "versionHex": "00000001",
  "merkleroot": "379e3b7a975685fce2e0aa47d4e9939533fc08cde26973facad9b9837722423d",
  "time": 1235405486,
  "mediantime": 1235400896,
  "nonce": 494274836,
  "bits": "1d00ffff",
  "difficulty": 1,
  "chainwork": "000000000000000000000000000000000000000000000000000014e914e914e9",
  "nTx": 1,
  "previousblockhash": "0000000083be2e513d76f87ebdf93310040ecb5ec14556bbe2b635bad65bdbdb",
  "nextblockhash": "0000000025bb3fa79b724a22a862edccc36d40b04e0a3661217aaaab3242b543",
  "strippedsize": 216,
  "size": 216,
  "weight": 864,
  "tx": [
    {
      "txid": "379e3b7a975685fce2e0aa47d4e9939533fc08cde26973facad9b9837722423d",
      "hash": "379e3b7a975685fce2e0aa47d4e9939533fc08cde26973facad9b9837722423d",
      "version": 1,
      "size": 135,
      "vsize": 135,
      "weight": 540,
      "locktime": 0,
      "vin": [
        {
          "coinbase": "04ffff001d02ee02",
          "sequence": 4294967295
        }
      ],
      "vout": [
        {
          "value": 50.0,
          "n": 0,
          "scriptPubKey": {
            "asm": "04aa51c6ab1b51a0665c58b848d880fb7eb8f45cb11de6f530a99750395a8493fba5fe9647c080257b4b8c9df9a43505e14633ee9de2494f4ccd404cb7306ff633 OP_CHECKSIG",
            "desc": "pk(04aa51c6ab1b51a0665c58b848d880fb7eb8f45cb11de6f530a99750395a8493fba5fe9647c080257b4b8c9df9a43505e14633ee9de2494f4ccd404cb7306ff633)#jet9t5yh",
            "hex": "4104aa51c6ab1b51a0665c58b848d880fb7eb8f45cb11de6f530a99750395a8493fba5fe9647c080257b4b8c9df9a43505e14633ee9de2494f4ccd404cb7306ff633ac",
            "type": "pubkey"
          }
        }
      ],
      "hex": "01000000010000000000000000000000000000000000000000000000000000000000000000ffffffff0804ffff001d02ee02ffffffff0100f2052a01000000434104aa51c6ab1b51a0665c58b848d880fb7eb8f45cb11de6f530a99750395a8493fba5fe9647c080257b4b8c9df9a43505e14633ee9de2494f4ccd404cb7306ff633ac00000000"
    }
  ]
}