{
  "hash": "00000000345a3d81722fe7cf8f76f234d42ee24f935314d534c33f5ed73de998",
  "confirmations": 51845,
  "height": 1253,
  "version": 1,
  "versionHex": "00000001",
  "merkleroot": "69fd13ea6246b61db8779e30188d252e4219bf5ccf7f3b8f8e0d0d4350e3f139",
  "time": 1232541482,
  "mediantime": 1232537103,
  "nonce": 3128239623,
  "bits": "1d00ffff",
  "difficulty": 1,
  "chainwork": "000000000000000000000000000000000000000000000000000004e604e604e6",
  "nTx": 1,
  "previousblockhash": "000000003be45000f15296a940f153485f01379beebdd01a49a62e215d794cd7",
  "nextblockhash": "0000000010f9ffbf8f2248da958afcb92422f1b98beb747ec96271b7eeb2f023",
  "strippedsize": 216,
  "size": 216,
  "weight": 864,
  "tx": [
    {
      "txid": "69fd13ea6246b61db8779e30188d252e4219bf5ccf7f3b8f8e0d0d4350e3f139",
      "hash": "69fd13ea6246b61db8779e30188d252e4219bf5ccf7f3b8f8e0d0d4350e3f139",
      "version": 1,
      "size": 135,
      "vsize": 135,
      "weight": 540,
      "locktime": 0,
      "vin": [
        {
          "coinbase": "04ffff001d027c09",
          "sequence": 4294967295
        }
      ],
      "vout": [
        {
          "value": 50.0,
          "n": 0,
          "scriptPubKey": {
            "asm": "0461336a469a5a09aed0eb1fa10994472d17ef1ec8d1aa3aafa2e7b7e483628daeb2937de7fa1015f4d983b7f6eb7303e12f10d47ef91c1bf520611b1ee350cc0a OP_CHECKSIG",
            "desc": "pk(0461336a469a5a09aed0eb1fa10994472d17ef1ec8d1aa3aafa2e7b7e483628daeb2937de7fa1015f4d983b7f6eb7303e12f10d47ef91c1bf520611b1ee350cc0a)#z7azq3aw",
            "hex": "410461336a469a5a09aed0eb1fa10994472d17ef1ec8d1aa3aafa2e7b7e483628daeb2937de7fa1015f4d983b7f6eb7303e12f10d47ef91c1bf520611b1ee350cc0aac",
            "type": "pubkey"
          }
        }
      ],
      "hex": "01000000010000000000000000000000000000000000000000000000000000000000000000ffffffff0804ffff001d027c09ffffffff0100f2052a0100000043410461336a469a5a09aed0eb1fa10994472d17ef1ec8d1aa3aafa2e7b7e483628daeb2937de7fa1015f4d983b7f6eb7303e12f10d47ef91c1bf520611b1ee350cc0aac00000000"
    }
  ]
}