{
  "hash": "00000000a5b941282b2f31dc3bc772244eb8715b5a139113b8bc7315a1d0fb92",
  "confirmations": 43157,
  "height": 9941,
  "version": 1,
  "versionHex": "00000001",
  "merkleroot": "0ff88489d242f79bfa549407151a8d38a021c521c618de7295ea0c5e92537bde",
  "time": 1238948143,
  "mediantime": 1238945548,
  "nonce": 52569991,
  "bits": "1d00ffff",
  "difficulty": 1,
  "chainwork": "000000000000000000000000000000000000000000000000000026d626d626d6",
  "nTx": 1,
  "previousblockhash": "000000007f6a6d00793ede59bcc8956df1667a82f3ea95811d2e07e449d75710",
  "nextblockhash": "00000000f51d5e5cffb6b011adcd8bef6cb92edeefe7a1c86c1d791d95d066ba",
  "strippedsize": 216,
  "size": 216,
  "weight": 864,
  "tx": [
    {
      "txid": "0ff88489d242f79bfa549407151a8d38a021c521c618de7295ea0c5e92537bde",
      "hash": "0ff88489d242f79bfa549407151a8d38a021c521c618de7295ea0c5e92537bde",
      "version": 1,
      "size": 135,
      "vsize": 135,
      "weight": 540,
      "locktime": 0,
      "vin": [
        {
          "coinbase": "04ffff001d028e00",
          "sequence": 4294967295
        }
      ],
      "vout": [
        {
          "value": 50.0,
          "n": 0,
          "scriptPubKey": {
            "asm": "04fa6ab5ac528dc136d39bf7b83b443817fe885e8eedca64427e633bc37411f81848c318a9f144a204565194d5f2fb3721c3e98adebf06d4eaa6ff76a3bd414d5d OP_CHECKSIG",
            "desc": "pk(04fa6ab5ac528dc136d39bf7b83b443817fe885e8eedca64427e633bc37411f81848c318a9f144a204565194d5f2fb3721c3e98adebf06d4eaa6ff76a3bd414d5d)#324u9rdu",
            "hex": "4104fa6ab5ac528dc136d39bf7b83b443817fe885e8eedca64427e633bc37411f81848c318a9f144a204565194d5f2fb3721c3e98adebf06d4eaa6ff76a3bd414d5dac",
            "type": "pubkey"
          }
        }
      ],
      "hex": "01000000010000000000000000000000000000000000000000000000000000000000000000ffffffff0804ffff001d028e00ffffffff0100f2052a01000000434104fa6ab5ac528dc136d39bf7b83b443817fe885e8eedca64427e633bc37411f81848c318a9f144a204565194d5f2fb3721c3e98adebf06d4eaa6ff76a3bd414d5dac00000000"
    }
  ]
}