{
  "hash": "000000008b4f0154d865ae1dba0355eb38f8e62f49c90011527f95c521f57cd1",
  "confirmations": 44699,
  "height": 8399,
  "version": 1,
  "versionHex": "00000001",
  "merkleroot": "735df281371836e486b25f7c910126b375ac96608ebbaa57b9baea83b5e48bc7",
  "time": 1237799185,
  "mediantime": 1237796542,
  "nonce": 1447345925,
  "bits": "1d00ffff",
  "difficulty": 1,
  "chainwork": "000000000000000000000000000000000000000000000000000020d020d020d0",
  "nTx": 1,
  "previousblockhash": "00000000057f1021ae4f165063a4f2940ea69cd9a537de1d71e77338dcc006e9",
  "nextblockhash": "00000000297c8bfa5d4cf7826f31f39d6bd92cbfcf2ec9ca2ed298ea471387d7",
  "strippedsize": 216,
  "size": 216,
  "weight": 864,
  "tx": [
    {
      "txid": "735df281371836e486b25f7c910126b375ac96608ebbaa57b9baea83b5e48bc7",
      "hash": "735df281371836e486b25f7c910126b375ac96608ebbaa57b9baea83b5e48bc7",
      "version": 1,
      "size": 135,
      "vsize": 135,
      "weight": 540,
      "locktime": 0,
      "vin": [
        {
          "coinbase": "04ffff001d02f105",
          "sequence": 4294967295
        }
      ],
      "vout": [
        {
          "value": 50.0,
          "n": 0,
          "scriptPubKey": {
            "asm": "0403ef99fb6450806d960f016438e5d50bc7df9610268cda85325110a772460f99c17388a58bcd369a006d7be073c2250e6e0d57609063b8de3f4c53d1f6fa9a33 OP_CHECKSIG",
            "desc": "pk(0403ef99fb6450806d960f016438e5d50bc7df9610268cda85325110a772460f99c17388a58bcd369a006d7be073c2250e6e0d57609063b8de3f4c53d1f6fa9a33)#h6z3988f",
            "hex": "410403ef99fb6450806d960f016438e5d50bc7df9610268cda85325110a772460f99c17388a58bcd369a006d7be073c2250e6e0d57609063b8de3f4c53d1f6fa9a33ac",
            "type": "pubkey"
          }
        }
      ],
      "hex": "01000000010000000000000000000000000000000000000000000000000000000000000000ffffffff0804ffff001d02f105ffffffff0100f2052a0100000043410403ef99fb6450806d960f016438e5d50bc7df9610268cda85325110a772460f99c17388a58bcd369a006d7be073c2250e6e0d57609063b8de3f4c53d1f6fa9a33ac00000000"
    }
  ]
}