{
  "hash": "00000000acac1876e4acbefda6dc7f4075ffd72a84722e51c9f3b4432bb0a45a",
  "confirmations": 48692,
  "height": 4406,
  "version": 1,
  "versionHex": "00000001",
  "merkleroot": "b14bc17c95a41943f0fd10f5f8782173b905bfd00d364e784efefe03d4776697",
  "time": 1234716812,
  "mediantime": 1234713545,
  "nonce": 68404713,
  "bits": "1d00ffff",
  "difficulty": 1,
  "chainwork": "0000000000000000000000000000000000000000000000000000113711371137",
  "nTx": 2,
  "previousblockhash": "00000000310e89337873d7d5916822d9fe844c25706aafdc2b84116ee9ea603c",
  "nextblockhash": "000000006b3ee1390c63e6bbb67163fcd8b48be110f36060ef1419de49fa174c",
  "strippedsize": 873,
  "size": 873,
  "weight": 3492,
  "tx": [
    {
      "txid": "dcc9063f498f4dd9580dc1508efd86d7f1f397f35072e627db1413c4ec30d63d",
      "hash": "dcc9063f498f4dd9580dc1508efd86d7f1f397f35072e627db1413c4ec30d63d",
      "version": 1,
      "size": 135,
      "vsize": 135,
      "weight": 540,
      "locktime": 0,
      "vin": [
        {
          "coinbase": "04ffff001d02cb09",
          "sequence": 4294967295
        }
      ],
      "vout": [
        {
          "value": 50.0,
          "n": 0,
          "scriptPubKey": {
            "asm": "04a43291ce0673c5096ba664297472f2eef01bb03df8af90d54170ad35f07a9bfea8143ba8a8ea62b6be866d0c88c017246293488e0a1c31ef5ff3b0a443d8f879 OP_CHECKSIG",
            "desc": "pk(04a43291ce0673c5096ba664297472f2eef01bb03df8af90d54170ad35f07a9bfea8143ba8a8ea62b6be866d0c88c017246293488e0a1c31ef5ff3b0a443d8f879)#wqe44tvl",
            "hex": "4104a43291ce0673c5096ba664297472f2eef01bb03df8af90d54170ad35f07a9bfea8143ba8a8ea62b6be866d0c88c017246293488e0a1c31ef5ff3b0a443d8f879ac",
            "type": "pubkey"
          }
        }
      ],
      "hex": "01000000010000000000000000000000000000000000000000000000000000000000000000ffffffff0804ffff001d02cb09ffffffff0100f2052a01000000434104a43291ce0673c5096ba664297472f2eef01bb03df8af90d54170ad35f07a9bfea8143ba8a8ea62b6be866d0c88c017246293488e0a1c31ef5ff3b0a443d8f879ac00000000"
    },
    {
      "txid": "dc6846136494d63c92a895dd0dda5fd83e4deaaf1eff1cfc5a640935f64a7548",
      "hash": "dc6846136494d63c92a895dd0dda5fd83e4deaaf1eff1cfc5a640935f64a7548",
      "version": 1,
      "size": 657,
      "vsize": 657,
      "weight": 2628,
      "locktime": 0,
      "vin": [
        {
          "txid": "1dff6908391a40a328283053194489730c81017e76ca05cc74fc523885218d06",
          "vout": 0,
          "scriptSig": {
            "asm": "304502210080182ac5a46774d1a63b59bd26c83939d1e02b9fe7e9939225027c475ac6e02a02204aeec061f51a43db540f1d5e26f7879dc14226d3c94eac2a19f693ac2273928c[ALL]",
            "hex": "48304502210080182ac5a46774d1a63b59bd26c83939d1e02b9fe7e9939225027c475ac6e02a02204aeec061f51a43db540f1d5e26f7879dc14226d3c94eac2a19f693ac2273928c01"
          },
          "sequence": 4294967295
        },
        {
          "txid": "284b4ccfc942567de598f2e684a884b46842650b8da05eac323c5dfb8b14fe5a",
          "vout": 0,
          "scriptSig": {
            "asm": "304502203c8cd450d2bc6a31fb976c54505c254a65149829220636b09d63bcd56aa9be5f022100a7f7446e23767040e58e39766a97ab0f2446163f3f2084bd46269c9413cb5933[ALL]",
            "hex": "48304502203c8cd450d2bc6a31fb976c54505c254a65149829220636b09d63bcd56aa9be5f022100a7f7446e23767040e58e39766a97ab0f2446163f3f2084bd46269c9413cb593301"
          },
          "sequence": 4294967295
        },
        {
          "txid": "77d038632550a0a8a0d33569fe019f8a3d40fd5ddf08062ace647e8862427ea2",
          "vout": 0,
          "scriptSig": {
            "asm": "304502207b4dbf9674e5db293545fcfd1fc9552ab0e04d0a22374d17a323abc93fd08c8d022100e6ae4267912f7e74162047545985ec1ff9201fdb75d75b233ada5fcaa5871f12[ALL]",
            "hex": "48304502207b4dbf9674e5db293545fcfd1fc9552ab0e04d0a22374d17a323abc93fd08c8d022100e6ae4267912f7e74162047545985ec1ff9201fdb75d75b233ada5fcaa5871f1201"
          },
          "sequence": 4294967295
        },
        {
          "txid": "3ce8d757777c7b45ea33da2eabfd6dd82eb66debfd02ee1a35f0dd7150f682a4",
          "vout": 0,
          "scriptSig": {
            "asm": "3045022100f1c4a9cccec283059d7174f45533142283b63392d97aed5643ade8e448d32a86022068141d29ac7c533de3931c759ec7230331953b65ea1df86e402a20ca17d8fa3d[ALL]",
            "hex": "483045022100f1c4a9cccec283059d7174f45533142283b63392d97aed5643ade8e448d32a86022068141d29ac7c533de3931c759ec7230331953b65ea1df86e402a20ca17d8fa3d01"
          },
          "sequence": 4294967295
        },
        {
          "txid": "29c4c8b97e8465c3a3b99f2e08ba60987552c7dcc1dc031f4c7721a5564a85ff",
          "vout": 0,
          "scriptSig": {
            "asm": "304602210085dd9b274faecca001b89974fe088eb481559e1edca55b33b9eb29e79f445c34022100caa8d661181ed0bf8fe59c2fb832b1e19fc615936c03f4a5cc2b2ea7d0e8fccf[ALL]",
            "hex": "49304602210085dd9b274faecca001b89974fe088eb481559e1edca55b33b9eb29e79f445c34022100caa8d661181ed0bf8fe59c2fb832b1e19fc615936c03f4a5cc2b2ea7d0e8fccf01"
          },
          "sequence": 4294967295
        }
      ],
      "vout": [
        {
          "value": 250.0,
          "n": 0,
          "scriptPubKey": {
            "asm": "04c6e3821d3d469a837a0dd13bc135bbac266b1d8e84df2200b53005c96ec1092961a888161b9fa1775b062fbad07e297466186ad02ee589c4308b93e0fdd03596 OP_CHECKSIG",
            "desc": "pk(04c6e3821d3d469a837a0dd13bc135bbac266b1d8e84df2200b53005c96ec1092961a888161b9fa1775b062fbad07e297466186ad02ee589c4308b93e0fdd03596)#95mee3r6",
            "hex": "4104c6e3821d3d469a837a0dd13bc135bbac266b1d8e84df2200b53005c96ec1092961a888161b9fa1775b062fbad07e297466186ad02ee589c4308b93e0fdd03596ac",
            "type": "pubkey"
          }
        }
      ],
      "fee": 0.0,
      "hex": "0100000005068d21853852fc74cc05ca767e01810c7389441953302828a3401a390869ff1d000000004948304502210080182ac5a46774d1a63b59bd26c83939d1e02b9fe7e9939225027c475ac6e02a02204aeec061f51a43db540f1d5e26f7879dc14226d3c94eac2a19f693ac2273928c01ffffffff5afe148bfb5d3c32ac5ea08d0b654268b484a884e6f298e57d5642c9cf4c4b28000000004948304502203c8cd450d2bc6a31fb976c54505c254a65149829220636b09d63bcd56aa9be5f022100a7f7446e23767040e58e39766a97ab0f2446163f3f2084bd46269c9413cb593301ffffffffa27e4262887e64ce2a0608df5dfd403d8a9f01fe6935d3a0a8a050256338d077000000004948304502207b4dbf9674e5db293545fcfd1fc9552ab0e04d0a22374d17a323abc93fd08c8d022100e6ae4267912f7e74162047545985ec1ff9201fdb75d75b233ada5fcaa5871f1201ffffffffa482f65071ddf0351aee02fdeb6db62ed86dfdab2eda33ea457b7c7757d7e83c0000000049483045022100f1c4a9cccec283059d7174f45533142283b63392d97aed5643ade8e448d32a86022068141d29ac7c533de3931c759ec7230331953b65ea1df86e402a20ca17d8fa3d01ffffffffff854a56a521774c1f03dcc1dcc752759860ba082e9fb9a3c365847eb9c8c429000000004a49304602210085dd9b274faecca001b89974fe088eb481559e1edca55b33b9eb29e79f445c34022100caa8d661181ed0bf8fe59c2fb832b1e19fc615936c03f4a5cc2b2ea7d0e8fccf01ffffffff0100ba1dd205000000434104c6e3821d3d469a837a0dd13bc135bbac266b1d8e84df2200b53005c96ec1092961a888161b9fa1775b062fbad07e297466186ad02ee589c4308b93e0fdd03596ac00000000"
    }
  ]
}