{
  "hash": "000000000f97c9f5374a4a547bf11639cac076923687f2117afa55050149eece",
  "confirmations": 50730,
  "height": 2368,
  "version": 1,
  "versionHex": "00000001",
  "merkleroot": "aa90bea93e0833dbaac96dc0d03fb13e1bf8ba17f01c7712bf0aa2f6b6fa330b",
  "time": 1233326806,
  "mediantime": 1233323810,
  "nonce": 2602563366,
  "bits": "1d00ffff",
  "difficulty": 1,
  "chainwork": "0000000000000000000000000000000000000000000000000000094109410941",
  "nTx": 1,
  "previousblockhash": "000000007aad5b373b57f4d5a5f910ddf5361396a0eb6e6130f081bd992aab39",
  "nextblockhash": "000000009836981bc8bef855a48ed5c3bc77a4b26fcca29fc636d68815b29184",
  "strippedsize": 216,
  "size": 216,
  "weight": 864,
  "tx": [
    {
      "txid": "aa90bea93e0833dbaac96dc0d03fb13e1bf8ba17f01c7712bf0aa2f6b6fa330b",
      "hash": "aa90bea93e0833dbaac96dc0d03fb13e1bf8ba17f01c7712bf0aa2f6b6fa330b",
      "version": 1,
      "size": 135,
      "vsize": 135,
      "weight": 540,
      "locktime": 0,
      "vin": [
        {
          "coinbase": "04ffff001d02de02",
          "sequence": 4294967295
        }
      ],
      "vout": [
        {
          "value": 50.0,
          "n": 0,
          "scriptPubKey": {
            "asm": "04586cd6704464ab5014a54b2761d86751f3614fb39edb2bf0e3953b98f36e6c3a96245b3c112f4b583d9680199e553a88a0b11b5e199c4f3cf64d95087d4276ae OP_CHECKSIG",
            "desc": "pk(04586cd6704464ab5014a54b2761d86751f3614fb39edb2bf0e3953b98f36e6c3a96245b3c112f4b583d9680199e553a88a0b11b5e199c4f3cf64d95087d4276ae)#2p8dh2zp",
            "hex": "4104586cd6704464ab5014a54b2761d86751f3614fb39edb2bf0e3953b98f36e6c3a96245b3c112f4b583d9680199e553a88a0b11b5e199c4f3cf64d95087d4276aeac",
            "type": "pubkey"
          }
        }
      ],
      "hex": "01000000010000000000000000000000000000000000000000000000000000000000000000ffffffff0804ffff001d02de02ffffffff0100f2052a01000000434104586cd6704464ab5014a54b2761d86751f3614fb39edb2bf0e3953b98f36e6c3a96245b3c112f4b583d9680199e553a88a0b11b5e199c4f3cf64d95087d4276aeac00000000"
    }
  ]
}