{
  "hash": "00000000adf54d02a4f99f8dda409b1165e927c09dfc6242f36d2055c6b6c817",
  "confirmations": 52022,
  "height": 1076,
  "version": 1,
  "versionHex": "00000001",
  "merkleroot": "f3c7a75f7cfc8e192a0d7ba8cdc1bf501cbd65ccd5f37d950bb032bee41a3356",
  "time": 1232406007,
  "mediantime": 1232402234,
  "nonce": 2837165352,
  "bits": "1d00ffff",
  "difficulty": 1,
  "chainwork": "0000000000000000000000000000000000000000000000000000043504350435",
  "nTx": 1,
  "previousblockhash": "0000000057463cd166551836e83b001d8046cf2863631a45896d0440d9bb0b74",
  "nextblockhash": "000000000c11ba5cfa026e90b9fffcaf873c9182e533d40191f6f3073a95faf8",
  "strippedsize": 216,
  "size": 216,
  "weight": 864,
  "tx": [
    {
      "txid": "f3c7a75f7cfc8e192a0d7ba8cdc1bf501cbd65ccd5f37d950bb032bee41a3356",
      "hash": "f3c7a75f7cfc8e192a0d7ba8cdc1bf501cbd65ccd5f37d950bb032bee41a3356",
      "version": 1,
      "size": 135,
      "vsize": 135,
      "weight": 540,
      "locktime": 0,
      "vin": [
        {
          "coinbase": "04ffff001d028606",
          "sequence": 4294967295
        }
      ],
      "vout": [
        {
          "value": 50.0,
          "n": 0,
          "scriptPubKey": {
            "asm": "046191fd8d743df49dc4234d042f0963b79f52fda45abe35eb5e56356999618c15a551f161bff2c579fa978fa6d9d30ddd84981aa2500ab76a9c41319847575059 OP_CHECKSIG",
            "desc": "pk(046191fd8d743df49dc4234d042f0963b79f52fda45abe35eb5e56356999618c15a551f161bff2c579fa978fa6d9d30ddd84981aa2500ab76a9c41319847575059)#yhlq0u7e",
            "hex": "41046191fd8d743df49dc4234d042f0963b79f52fda45abe35eb5e56356999618c15a551f161bff2c579fa978fa6d9d30ddd84981aa2500ab76a9c41319847575059ac",
            "type": "pubkey"
          }
        }
      ],
      "hex": "01000000010000000000000000000000000000000000000000000000000000000000000000ffffffff0804ffff001d028606ffffffff0100f2052a010000004341046191fd8d743df49dc4234d042f0963b79f52fda45abe35eb5e56356999618c15a551f161bff2c579fa978fa6d9d30ddd84981aa2500ab76a9c41319847575059ac00000000"
    }
  ]
}