{
  "hash": "00000000ba57ddf4d91a3bac9f723f8d51dbb0ce56a2270cb31ff2f4c0ad8491",
  "confirmations": 47662,
  "height": 5436,
  "version": 1,
  "versionHex": "00000001",
  "merkleroot": "79c1903eadc8cc7ae625bdd4968d8073c08e2a12ed1ce244f033a3734dd14703",
  "time": 1235469822,
  "mediantime": 1235464909,
  "nonce": 2537289474,
  "bits": "1d00ffff",
  "difficulty": 1,
  "chainwork": "0000000000000000000000000000000000000000000000000000153d153d153d",
  "nTx": 1,
  "previousblockhash": "000000006ace94212f64bd7eca22c6ae0ae302e48027c774e6a2abd42e942228",
  "nextblockhash": "00000000e1b8efb1cf4cad378aebbe85af2b468cb3546b469b82864c99c15551",
  "strippedsize": 216,
  "size": 216,
  "weight": 864,
  "tx": [
    {
      "txid": "79c1903eadc8cc7ae625bdd4968d8073c08e2a12ed1ce244f033a3734dd14703",
      "hash": "79c1903eadc8cc7ae625bdd4968d8073c08e2a12ed1ce244f033a3734dd14703",
      "version": 1,
      "size": 135,
      "vsize": 135,
      "weight": 540,
      "locktime": 0,
      "vin": [
        {
          "coinbase": "04ffff001d024904",
          "sequence": 4294967295
        }
      ],
      "vout": [
        {
          "value": 50.0,
          "n": 0,
          "scriptPubKey": {
            "asm": "043a513a6c1fde0f81f4e6fe118273db200bf3b2aea6751d85bf4dd2110beaae029366db13e87dd955482804e9b4e440228f699250445ddddec9fcbfdb4a2cfe84 OP_CHECKSIG",
            "desc": "pk(043a513a6c1fde0f81f4e6fe118273db200bf3b2aea6751d85bf4dd2110beaae029366db13e87dd955482804e9b4e440228f699250445ddddec9fcbfdb4a2cfe84)#f7gs40rt",
            "hex": "41043a513a6c1fde0f81f4e6fe118273db200bf3b2aea6751d85bf4dd2110beaae029366db13e87dd955482804e9b4e440228f699250445ddddec9fcbfdb4a2cfe84ac",
            "type": "pubkey"
          }
        }
      ],
      "hex": "01000000010000000000000000000000000000000000000000000000000000000000000000ffffffff0804ffff001d024904ffffffff0100f2052a010000004341043a513a6c1fde0f81f4e6fe118273db200bf3b2aea6751d85bf4dd2110beaae029366db13e87dd955482804e9b4e440228f699250445ddddec9fcbfdb4a2cfe84ac00000000"
    }
  ]
}