{
  "hash": "00000000b7f9d7ca3c044228c6f279f79f326ca0c8bab40a8051264a98e0357d",
  "confirmations": 45893,
  "height": 7205,
  "version": 1,
  "versionHex": "00000001",
  "merkleroot": "7df49fa9f80b2401b5178c410aa563fd33289255d095d788de2b33ea7416f2b1",
  "time": 1236874296,
  "mediantime": 1236870305,
  "nonce": 1463743238,
  "bits": "1d00ffff",
  "difficulty": 1,
  "chainwork": "00000000000000000000000000000000000000000000000000001c261c261c26",
  "nTx": 1,
  "previousblockhash": "000000007aaafaddc372371b174eb8258d2f1913fb2bb184c7783b3537ca279d",
  "nextblockhash": "000000003d891b202ff24d720a7c5d42b0a97adef664620f00a702213d3fc9de",
  "strippedsize": 216,
  "size": 216,
  "weight": 864,
  "tx": [
    {
      "txid": "7df49fa9f80b2401b5178c410aa563fd33289255d095d788de2b33ea7416f2b1",
      "hash": "7df49fa9f80b2401b5178c410aa563fd33289255d095d788de2b33ea7416f2b1",
      "version": 1,
      "size": 135,
      "vsize": 135,
      "weight": 540,
      "locktime": 0,
      "vin": [
        {
          "coinbase": "04ffff001d02c005",
          "sequence": 4294967295
        }
      ],
      "vout": [
        {
          "value": 50.0,
          "n": 0,
          "scriptPubKey": {
            "asm": "04e85cbade255759793c0b45c05dbb51e022c2ca5b8e07d21ae3fb3d454cd76fc95fe9fa13e95a1779092c0a5a70a927329f616f46f0558674a304d9c15fe8c034 OP_CHECKSIG",
            "desc": "pk(04e85cbade255759793c0b45c05dbb51e022c2ca5b8e07d21ae3fb3d454cd76fc95fe9fa13e95a1779092c0a5a70a927329f616f46f0558674a304d9c15fe8c034)#3vf22p4f",
            "hex": "4104e85cbade255759793c0b45c05dbb51e022c2ca5b8e07d21ae3fb3d454cd76fc95fe9fa13e95a1779092c0a5a70a927329f616f46f0558674a304d9c15fe8c034ac",
            "type": "pubkey"
          }
        }
      ],
      "hex": "01000000010000000000000000000000000000000000000000000000000000000000000000ffffffff0804ffff001d02c005ffffffff0100f2052a01000000434104e85cbade255759793c0b45c05dbb51e022c2ca5b8e07d21ae3fb3d454cd76fc95fe9fa13e95a1779092c0a5a70a927329f616f46f0558674a304d9c15fe8c034ac00000000"
    }
  ]
}