{
  "hash": "00000000d4801c7f40fa1210fbf7bcbcff6f7fbf27d5f643e781e48971550fb4",
  "confirmations": 43736,
  "height": 9362,
  "version": 1,
  "versionHex": "00000001",
  "merkleroot": "5620e069cec5b9d6c1801a2736bb95231c3a2fa7b3edcfbe39cb04267bdfae2b",
  "time": 1238519804,
  "mediantime": 1238516753,
  "nonce": 3412699688,
  "bits": "1d00ffff",
  "difficulty": 1,
  "chainwork": "0000000000000000000000000000000000000000000000000000249324932493",
  "nTx": 1,
  "previousblockhash": "00000000a112cdaf41ae5037132d00c4d62cbe91f5d089966fe5a9d0bd56a7ea",
  "nextblockhash": "0000000068cb3469799c49a8cbac21aed190309a4adffc89036a527dbf512a46",
  "strippedsize": 216,
  "size": 216,
  "weight": 864,
  "tx": [
    {
      "txid": "5620e069cec5b9d6c1801a2736bb95231c3a2fa7b3edcfbe39cb04267bdfae2b",
      "hash": "5620e069cec5b9d6c1801a2736bb95231c3a2fa7b3edcfbe39cb04267bdfae2b",
      "version": 1,
      "size": 135,
      "vsize": 135,
      "weight": 540,
      "locktime": 0,
      "vin": [
        {
          "coinbase": "04ffff001d02c802",
          "sequence": 4294967295
        }
      ],
      "vout": [
        {
          "value": 50.0,
          "n": 0,
          "scriptPubKey": {
            "asm": "04289d3adedf3ca4d46ce10958e67e7de3761584a245f19141ca749013355a97a580eab5260786d0180bcbadf2e8780c44dee92ee7c6a389f6fa86350e1b6b3b46 OP_CHECKSIG",
            "desc": "pk(04289d3adedf3ca4d46ce10958e67e7de3761584a245f19141ca749013355a97a580eab5260786d0180bcbadf2e8780c44dee92ee7c6a389f6fa86350e1b6b3b46)#ns9fe6c5",
            "hex": "4104289d3adedf3ca4d46ce10958e67e7de3761584a245f19141ca749013355a97a580eab5260786d0180bcbadf2e8780c44dee92ee7c6a389f6fa86350e1b6b3b46ac",
            "type": "pubkey"
          }
        }
      ],
      "hex": "01000000010000000000000000000000000000000000000000000000000000000000000000ffffffff0804ffff001d02c802ffffffff0100f2052a01000000434104289d3adedf3ca4d46ce10958e67e7de3761584a245f19141ca749013355a97a580eab5260786d0180bcbadf2e8780c44dee92ee7c6a389f6fa86350e1b6b3b46ac00000000"
    }
  ]
}