{
  "hash": "00000000982341293a508a7c464f238fd8a6a9187dec0531cb9aabbe2f2a3118",
  "confirmations": 47828,
  "height": 5270,
  "version": 1,
  "versionHex": "00000001",
  "merkleroot": "3e6136ae4bfdfcb13dc1652d081fe5959d56eb840c0f528d7edc1790d582f99a",
  "time": 1235338410,
  "mediantime": 1235333696,
  "nonce": 226817575,
  "bits": "1d00ffff",
  "difficulty": 1,
  "chainwork": "0000000000000000000000000000000000000000000000000000149714971497",
  "nTx": 1,
  "previousblockhash": "00000000c1408749bfd1d2c8f5c4a95f7671bd209b5a1e2b2c7fcef37afa7bb2",
  "nextblockhash": "0000000008adf19edf3f8ab3c717706ca45ac51cdf4a0d055e9fbc328ee0dd2c",
  "strippedsize": 216,
  "size": 216,
  "weight": 864,
  "tx": [
    {
      "txid": "3e6136ae4bfdfcb13dc1652d081fe5959d56eb840c0f528d7edc1790d582f99a",
      "hash": "3e6136ae4bfdfcb13dc1652d081fe5959d56eb840c0f528d7edc1790d582f99a",
      "version": 1,
      "size": 135,
      "vsize": 135,
      "weight": 540,
      "locktime": 0,
      "vin": [
        {
          "coinbase": "04ffff001d028f01",
          "sequence": 4294967295
        }
      ],
      "vout": [
        {
          "value": 50.0,
          "n": 0,
          "scriptPubKey": {
            "asm": "0454a77d0000ed2f68a43c5f645d9f51c0c1c42c9d6983bf44084a5f9f710e87fd18c9dbc4af2de1247d03c9302ecddbe6f0789f80b5a6cd90570459a486f33ec2 OP_CHECKSIG",
            "desc": "pk(0454a77d0000ed2f68a43c5f645d9f51c0c1c42c9d6983bf44084a5f9f710e87fd18c9dbc4af2de1247d03c9302ecddbe6f0789f80b5a6cd90570459a486f33ec2)#5c3gqhk3",
            "hex": "410454a77d0000ed2f68a43c5f645d9f51c0c1c42c9d6983bf44084a5f9f710e87fd18c9dbc4af2de1247d03c9302ecddbe6f0789f80b5a6cd90570459a486f33ec2ac",
            "type": "pubkey"
          }
        }
      ],
      "hex": "01000000010000000000000000000000000000000000000000000000000000000000000000ffffffff0804ffff001d028f01ffffffff0100f2052a0100000043410454a77d0000ed2f68a43c5f645d9f51c0c1c42c9d6983bf44084a5f9f710e87fd18c9dbc4af2de1247d03c9302ecddbe6f0789f80b5a6cd90570459a486f33ec2ac00000000"
    }
  ]
}