{
  "hash": "000000007f42f3f2bc8d7f4546eb9cb2d607ae0a510c44f6b1c56bb50f1e89f3",
  "confirmations": 45503,
  "height": 7595,
  "version": 1,
  "versionHex": "00000001",
  "merkleroot": "404228d42f5e2f9d2a16e36539f7d7b5a828bfc80b7dc8f45cdeb9000553b17d",
  "time": 1237164464,
  "mediantime": 1237160336,
  "nonce": 3995639088,
  "bits": "1d00ffff",
  "difficulty": 1,
  "chainwork": "00000000000000000000000000000000000000000000000000001dac1dac1dac",
  "nTx": 1,
  "previousblockhash": "000000005cb0a513dc5a1d0176978fbc65d0bc8d1f69ad232f8cf13838286ecb",
  "nextblockhash": "000000006831419ee74e33be8a396dff7580cc1e90b4c22b09cadb8d644d6c33",
  "strippedsize": 216,
  "size": 216,
  "weight": 864,
  "tx": [
    {
      "txid": "404228d42f5e2f9d2a16e36539f7d7b5a828bfc80b7dc8f45cdeb9000553b17d",
      "hash": "404228d42f5e2f9d2a16e36539f7d7b5a828bfc80b7dc8f45cdeb9000553b17d",
      "version": 1,
      "size": 135,
      "vsize": 135,
      "weight": 540,
      "locktime": 0,
      "vin": [
        {
          "coinbase": "04ffff001d028802",
          "sequence": 4294967295
        }
      ],
      "vout": [
        {
          "value": 50.0,
          "n": 0,
          "scriptPubKey": {
            "asm": "04fa6f19095b2bb4cbb4eb49edd7ff6a836df2402ef20daf87b3c4c873cc171e0ae35f7c3785b3ea0467d92e5069f29950e74d08cd69a6a167a2d1aae18e7ace87 OP_CHECKSIG",
            "desc": "pk(04fa6f19095b2bb4cbb4eb49edd7ff6a836df2402ef20daf87b3c4c873cc171e0ae35f7c3785b3ea0467d92e5069f29950e74d08cd69a6a167a2d1aae18e7ace87)#tc8ye8kl",
            "hex": "4104fa6f19095b2bb4cbb4eb49edd7ff6a836df2402ef20daf87b3c4c873cc171e0ae35f7c3785b3ea0467d92e5069f29950e74d08cd69a6a167a2d1aae18e7ace87ac",
            "type": "pubkey"
          }
        }
      ],
      "hex": "01000000010000000000000000000000000000000000000000000000000000000000000000ffffffff0804ffff001d028802ffffffff0100f2052a01000000434104fa6f19095b2bb4cbb4eb49edd7ff6a836df2402ef20daf87b3c4c873cc171e0ae35f7c3785b3ea0467d92e5069f29950e74d08cd69a6a167a2d1aae18e7ace87ac00000000"
    }
  ]
}