{
  "hash": "000000007711c5fea394d4f48ec6133916e6d62dbfab9afeac3d81409fe8ea82",
  "confirmations": 45883,
  "height": 7215,
  "version": 1,
  "versionHex": "00000001",
  "merkleroot": "2b627a81d1464924b27761baf314efbe69975180cb8e8f980f9537939a21c32d",
  "time": 1236882570,
  "mediantime": 1236879547,
  "nonce": 183684662,
  "bits": "1d00ffff",
  "difficulty": 1,
  "chainwork": "00000000000000000000000000000000000000000000000000001c301c301c30",
  "nTx": 1,
  "previousblockhash": "00000000bb8169fc99b63b93cee142e681d97302587325bbc2884e00b408c4f7",
  "nextblockhash": "0000000004360d38536083b7ce230f892ba7519f29645e8a64ff88c61e6bacc8",
  "strippedsize": 216,
  "size": 216,
  "weight": 864,
  "tx": [
    {
      "txid": "2b627a81d1464924b27761baf314efbe69975180cb8e8f980f9537939a21c32d",
      "hash": "2b627a81d1464924b27761baf314efbe69975180cb8e8f980f9537939a21c32d",
      "version": 1,
      "size": 135,
      "vsize": 135,
      "weight": 540,
      "locktime": 0,
      "vin": [
        {
          "coinbase": "04ffff001d02a600",
          "sequence": 4294967295
        }
      ],
      "vout": [
        {
          "value": 50.0,
          "n": 0,
          "scriptPubKey": {
            "asm": "048e904960cc9e08b972b7d4f32a2396cb0946d8445af4cd8bdd5ff8fc1d04aad4b8e924adee0802f27f659c52376c5d70cf6bbe8a1bf236857f1f8ec941c2b9fd OP_CHECKSIG",
            "desc": "pk(048e904960cc9e08b972b7d4f32a2396cb0946d8445af4cd8bdd5ff8fc1d04aad4b8e924adee0802f27f659c52376c5d70cf6bbe8a1bf236857f1f8ec941c2b9fd)#jyuv0xv6",
            "hex": "41048e904960cc9e08b972b7d4f32a2396cb0946d8445af4cd8bdd5ff8fc1d04aad4b8e924adee0802f27f659c52376c5d70cf6bbe8a1bf236857f1f8ec941c2b9fdac",
            "type": "pubkey"
          }
        }
      ],
      "hex": "01000000010000000000000000000000000000000000000000000000000000000000000000ffffffff0804ffff001d02a600ffffffff0100f2052a010000004341048e904960cc9e08b972b7d4f32a2396cb0946d8445af4cd8bdd5ff8fc1d04aad4b8e924adee0802f27f659c52376c5d70cf6bbe8a1bf236857f1f8ec941c2b9fdac00000000"
    }
  ]
}