{
  "hash": "00000000d4c2a115266ddb1b20aed4f868efc0b331bc0b912cbf9b833a7074a1",
  "confirmations": 51304,
  "height": 1794,
  "version": 1,
  "versionHex": "00000001",
  "merkleroot": "5f460bf603707fd7d3b0e1ccb8031ea952f443b76ce64ff994ed074f1931f22d",
  "time": 1232894821,
  "mediantime": 1232892359,
  "nonce": 2241039379,
  "bits": "1d00ffff",
  "difficulty": 1,
  "chainwork": "0000000000000000000000000000000000000000000000000000070307030703",
  "nTx": 1,
  "previousblockhash": "00000000a261e79d42b6b6cb44caf88caa09688b4e945230f725a5d24ef9cdc8",
  "nextblockhash": "00000000d12068880fc7112623ea833c31ebc94e7d61e474fb86ecdc6f963230",
  "strippedsize": 216,
  "size": 216,
  "weight": 864,
  "tx": [
    {
      "txid": "5f460bf603707fd7d3b0e1ccb8031ea952f443b76ce64ff994ed074f1931f22d",
      "hash": "5f460bf603707fd7d3b0e1ccb8031ea952f443b76ce64ff994ed074f1931f22d",
      "version": 1,
      "size": 135,
      "vsize": 135,
      "weight": 540,
      "locktime": 0,
      "vin": [
        {
          "coinbase": "04ffff001d020f04",
          "sequence": 4294967295
        }
      ],
      "vout": [
        {
          "value": 50.0,
          "n": 0,
          "scriptPubKey": {
            "asm": "045fd19ed76282017450d6b2fb9da6b0c9daf070fac4790c221e3c5c942b813e9d7b1260a64886f69ce2e8a2f2d350af36b13ef95c4d542d3d7dd4727bc38b79b8 OP_CHECKSIG",
            "desc": "pk(045fd19ed76282017450d6b2fb9da6b0c9daf070fac4790c221e3c5c942b813e9d7b1260a64886f69ce2e8a2f2d350af36b13ef95c4d542d3d7dd4727bc38b79b8)#5nfrw94e",
            "hex": "41045fd19ed76282017450d6b2fb9da6b0c9daf070fac4790c221e3c5c942b813e9d7b1260a64886f69ce2e8a2f2d350af36b13ef95c4d542d3d7dd4727bc38b79b8ac",
            "type": "pubkey"
          }
        }
      ],
      "hex": "01000000010000000000000000000000000000000000000000000000000000000000000000ffffffff0804ffff001d020f04ffffffff0100f2052a010000004341045fd19ed76282017450d6b2fb9da6b0c9daf070fac4790c221e3c5c942b813e9d7b1260a64886f69ce2e8a2f2d350af36b13ef95c4d542d3d7dd4727bc38b79b8ac00000000"
    }
  ]
}