{
  "hash": "00000000eff54d5e41ba2af7f47e568590ffc1369671e0e9bbf710778a271948",
  "confirmations": 49771,
  "height": 3327,
  "version": 1,
  "versionHex": "00000001",
  "merkleroot": "7489f765e221247b8b8fece26d6f5ac7a4dc84b75583e340e63a6cc91a557fd9",
  "time": 1233984904,
  "mediantime": 1233982300,
  "nonce": 2571868205,
  "bits": "1d00ffff",
  "difficulty": 1,
  "chainwork": "00000000000000000000000000000000000000000000000000000d000d000d00",
  "nTx": 1,
  "previousblockhash": "00000000c799052a807b645a8b0407a35475d0a2cae92544d41c5a30226f4013",
  "nextblockhash": "00000000f2588bc7c3a6f0bfd86dea3b1d89cfa40e7e1de541107f643675a5d5",
  "strippedsize": 216,
  "size": 216,
  "weight": 864,
  "tx": [
    {
      "txid": "7489f765e221247b8b8fece26d6f5ac7a4dc84b75583e340e63a6cc91a557fd9",
      "hash": "7489f765e221247b8b8fece26d6f5ac7a4dc84b75583e340e63a6cc91a557fd9",
      "version": 1,
      "size": 135,
      "vsize": 135,
      "weight": 540,
      "locktime": 0,
      "vin": [
        {
          "coinbase": "04ffff001d02b804",
          "sequence": 4294967295
        }
      ],
      "vout": [
        {
          "value": 50.0,
          "n": 0,
          "scriptPubKey": {
            "asm": "042a2a44d3901a001e83638ac6cad75884849c62e34c19bd2147662d0d5154bc3dc4073f5808d2de77a62ace451195527ee7eb860f980cd7c4f7da52452db85cc5 OP_CHECKSIG",
            "desc": "pk(042a2a44d3901a001e83638ac6cad75884849c62e34c19bd2147662d0d5154bc3dc4073f5808d2de77a62ace451195527ee7eb860f980cd7c4f7da52452db85cc5)#92dh0u6v",
            "hex": "41042a2a44d3901a001e83638ac6cad75884849c62e34c19bd2147662d0d5154bc3dc4073f5808d2de77a62ace451195527ee7eb860f980cd7c4f7da52452db85cc5ac",
            "type": "pubkey"
          }
        }
      ],
      "hex": "01000000010000000000000000000000000000000000000000000000000000000000000000ffffffff0804ffff001d02b804ffffffff0100f2052a010000004341042a2a44d3901a001e83638ac6cad75884849c62e34c19bd2147662d0d5154bc3dc4073f5808d2de77a62ace451195527ee7eb860f980cd7c4f7da52452db85cc5ac00000000"
    }
  ]
}