{
  "hash": "00000000a7494fded2b0cc826dd1c58f1c383714f2de0449a3a3643ead5452c2",
  "confirmations": 52040,
  "height": 230,
  "version": 1,
  "versionHex": "00000001",
  "merkleroot": "aa94ee85a999c699a2972ab9c225ed108ded4253cba3dc05e246ad776ef261ee",
  "time": 1231776531,
  "mediantime": 1231773076,
  "nonce": 25939201,
  "bits": "1d00ffff",
  "difficulty": 1,
  "chainwork": "000000000000000000000000000000000000000000000000000000e700e700e7",
  "nTx": 1,
  "previousblockhash": "00000000dc854870a02ac502cdd732644eea099008b518985da6d76015db2bdf",
  "nextblockhash": "00000000b6ee1bc8ef48268ca7fbd243cf2d4c4792620ebfc5933cf08c487bdb",
  "strippedsize": 216,
  "size": 216,
  "weight": 864,
  "tx": [
    {
      "txid": "aa94ee85a999c699a2972ab9c225ed108ded4253cba3dc05e246ad776ef261ee",
      "hash": "aa94ee85a999c699a2972ab9c225ed108ded4253cba3dc05e246ad776ef261ee",
      "version": 1,
      "size": 135,
      "vsize": 135,
      "weight": 540,
      "locktime": 0,
      "vin": [
        {
          "coinbase": "04ffff001d02ca00",
          "sequence": 4294967295
        }
      ],
      "vout": [
        {
          "value": 50.0,
          "n": 0,
          "scriptPubKey": {
            "asm": "04dcc938807543662feff7fb60c352eaf752fd877626671e99566d9e562e80917966471e26a866b9e3e0395d94400fbf73f5553de6784496292abe9afb5931a95a OP_CHECKSIG",
            "desc": "pk(04dcc938807543662feff7fb60c352eaf752fd877626671e99566d9e562e80917966471e26a866b9e3e0395d94400fbf73f5553de6784496292abe9afb5931a95a)#vqefef8y",
            "hex": "4104dcc938807543662feff7fb60c352eaf752fd877626671e99566d9e562e80917966471e26a866b9e3e0395d94400fbf73f5553de6784496292abe9afb5931a95aac",
            "type": "pubkey"
          }
        }
      ],
      "hex": "01000000010000000000000000000000000000000000000000000000000000000000000000ffffffff0804ffff001d02ca00ffffffff0100f2052a01000000434104dcc938807543662feff7fb60c352eaf752fd877626671e99566d9e562e80917966471e26a866b9e3e0395d94400fbf73f5553de6784496292abe9afb5931a95aac00000000"
    }
  ]
}