{
  "hash": "000000006361e8cb18ad62a2bce6f71080e3c149c07c9f5df84dd947e5d864f7",
  "confirmations": 52310,
  "height": 788,
  "version": 1,
  "versionHex": "00000001",
  "merkleroot": "f1b0c128d1d87eaa524d67dafb5cd86fbda67cb32d823264e677b816f21051f6",
  "time": 1232180896,
  "mediantime": 1232177364,
  "nonce": 4996465,
  "bits": "1d00ffff",
  "difficulty": 1,
  "chainwork": "0000000000000000000000000000000000000000000000000000031503150315",
  "nTx": 1,
  "previousblockhash": "00000000cbaf0ee85c41dae62e6898ea29801106c24c382c2d29d16c3aee12ba",
  "nextblockhash": "0000000060da2754fe44bc0eb64e5e8bb54b93bd64e183bb35731bfd8babc525",
  "strippedsize": 215,
  "size": 215,
  "weight": 860,
  "tx": [
    {
      "txid": "f1b0c128d1d87eaa524d67dafb5cd86fbda67cb32d823264e677b816f21051f6",
      "hash": "f1b0c128d1d87eaa524d67dafb5cd86fbda67cb32d823264e677b816f21051f6",
      "version": 1,
      "size": 134,
      "vsize": 134,
      "weight": 536,
      "locktime": 0,
      "vin": [
        {
          "coinbase": "04ffff001d0170",
          "sequence": 4294967295
        }
      ],
      "vout": [
        {
          "value": 50.0,
          "n": 0,
          "scriptPubKey": {
            "asm": "04d637954849e8901272b11b9cf0bca00d0783bfd404dbb3a4edba7c4d0c7dd24c98f3e6f432f4ca6510b82183685703abc4d827bf90c1eb357fa64a847a3970c3 OP_CHECKSIG",
            "desc": "pk(04d637954849e8901272b11b9cf0bca00d0783bfd404dbb3a4edba7c4d0c7dd24c98f3e6f432f4ca6510b82183685703abc4d827bf90c1eb357fa64a847a3970c3)#jg9k3qg2",
            "hex": "4104d637954849e8901272b11b9cf0bca00d0783bfd404dbb3a4edba7c4d0c7dd24c98f3e6f432f4ca6510b82183685703abc4d827bf90c1eb357fa64a847a3970c3ac",
            "type": "pubkey"
          }
        }
      ],
      "hex": "01000000010000000000000000000000000000000000000000000000000000000000000000ffffffff0704ffff001d0170ffffffff0100f2052a01000000434104d637954849e8901272b11b9cf0bca00d0783bfd404dbb3a4edba7c4d0c7dd24c98f3e6f432f4ca6510b82183685703abc4d827bf90c1eb357fa64a847a3970c3ac00000000"
    }
  ]
}