{
  "hash": "00000000b9adca68bfd17771bf9a0b7f5c4c24ace62dbcce52b5a0df2c24ecbe",
  "confirmations": 45500,
  "height": 7598,
  "version": 1,
  "versionHex": "00000001",
  "merkleroot": "ab4d44469e23757615a56f95d1838e2a6878882d1c26e46ccbd5e684a4f28872",
  "time": 1237167751,
  "mediantime": 1237163116,
  "nonce": 1887885611,
  "bits": "1d00ffff",
  "difficulty": 1,
  "chainwork": "00000000000000000000000000000000000000000000000000001daf1daf1daf",
  "nTx": 1,
  "previousblockhash": "00000000f0ed2c89adb53c4847b28ddf642ef2583849f287725ffdfabbca44a7",
  "nextblockhash": "00000000e34cad6133eadc8921bb32303f5bee8610a806311dd19c646c62a3b1",
  "strippedsize": 216,
  "size": 216,
  "weight": 864,
  "tx": [
    {
      "txid": "ab4d44469e23757615a56f95d1838e2a6878882d1c26e46ccbd5e684a4f28872",
      "hash": "ab4d44469e23757615a56f95d1838e2a6878882d1c26e46ccbd5e684a4f28872",
      "version": 1,
      "size": 135,
      "vsize": 135,
      "weight": 540,
      "locktime": 0,
      "vin": [
        {
          "coinbase": "04ffff001d029a02",
          "sequence": 4294967295
        }
      ],
      "vout": [
        {
          "value": 50.0,
          "n": 0,
          "scriptPubKey": {
            "asm": "049449898ae92cd3cfc21853a1f1849990d038a3d473c7c6c510af582a97a219b013686b130b0b343cfeb2a0b6f55237815efba837ec31aff45eaf8cc65015e2de OP_CHECKSIG",
            "desc": "pk(049449898ae92cd3cfc21853a1f1849990d038a3d473c7c6c510af582a97a219b013686b130b0b343cfeb2a0b6f55237815efba837ec31aff45eaf8cc65015e2de)#k3897wef",
            "hex": "41049449898ae92cd3cfc21853a1f1849990d038a3d473c7c6c510af582a97a219b013686b130b0b343cfeb2a0b6f55237815efba837ec31aff45eaf8cc65015e2deac",
            "type": "pubkey"
          }
        }
      ],
      "hex": "01000000010000000000000000000000000000000000000000000000000000000000000000ffffffff0804ffff001d029a02ffffffff0100f2052a010000004341049449898ae92cd3cfc21853a1f1849990d038a3d473c7c6c510af582a97a219b013686b130b0b343cfeb2a0b6f55237815efba837ec31aff45eaf8cc65015e2deac00000000"
    }
  ]
}