{
  "hash": "00000000391700d5323c35f28695aaf8faa3b3c3c6fc22e4385623a3cd1f1e35",
  "confirmations": 47731,
  "height": 5367,
  "version": 1,
  "versionHex": "00000001",
  "merkleroot": "5f4bbb4521a75594c6841914a86b4e6d8423e8d93da9077510a78ebad6635314",
  "time": 1235415906,
  "mediantime": 1235413196,
  "nonce": 1680136239,
  "bits": "1d00ffff",
  "difficulty": 1,
  "chainwork": "000000000000000000000000000000000000000000000000000014f814f814f8",
  "nTx": 1,
  "previousblockhash": "00000000e5db8b75c412542083becaa826153d157e1eb15fc2bb0a6780dad734",
  "nextblockhash": "000000008c4957b279bbc5b8800ae5648997db103449622177fe9f714348ddb0",
  "strippedsize": 216,
  "size": 216,
  "weight": 864,
  "tx": [
    {
      "txid": "5f4bbb4521a75594c6841914a86b4e6d8423e8d93da9077510a78ebad6635314",
      "hash": "5f4bbb4521a75594c6841914a86b4e6d8423e8d93da9077510a78ebad6635314",
      "version": 1,
      "size": 135,
      "vsize": 135,
      "weight": 540,
      "locktime": 0,
      "vin": [
        {
          "coinbase": "04ffff001d023303",
          "sequence": 4294967295
        }
      ],
      "vout": [
        {
          "value": 50.0,
          "n": 0,
          "scriptPubKey": {
            "asm": "044ee8bb48723ea1d0c65702010a4ee4ab3f0e4c9bb032eced5a821e50d77447f462d6ef2488208693c001e47c1dcf7d56c14d0978b7fd768cc85a7d3b352c0972 OP_CHECKSIG",
            "desc": "pk(044ee8bb48723ea1d0c65702010a4ee4ab3f0e4c9bb032eced5a821e50d77447f462d6ef2488208693c001e47c1dcf7d56c14d0978b7fd768cc85a7d3b352c0972)#j0lka63p",
            "hex": "41044ee8bb48723ea1d0c65702010a4ee4ab3f0e4c9bb032eced5a821e50d77447f462d6ef2488208693c001e47c1dcf7d56c14d0978b7fd768cc85a7d3b352c0972ac",
            "type": "pubkey"
          }
        }
      ],
      "hex": "01000000010000000000000000000000000000000000000000000000000000000000000000ffffffff0804ffff001d023303ffffffff0100f2052a010000004341044ee8bb48723ea1d0c65702010a4ee4ab3f0e4c9bb032eced5a821e50d77447f462d6ef2488208693c001e47c1dcf7d56c14d0978b7fd768cc85a7d3b352c0972ac00000000"
    }
  ]
}