{
  "hash": "00000000a25e736d21a06eb69af9aff700a8e7c6bcfcf2a0c07c2f3c1dd7106d",
  "confirmations": 43180,
  "height": 9918,
  "version": 1,
  "versionHex": "00000001",
  "merkleroot": "5bf7158a55f7218dba6bd5f14017a4be647d0aac4ef86eefcdd0d00bebeef099",
  "time": 1238933744,
  "mediantime": 1238930646,
  "nonce": 2428088623,
  "bits": "1d00ffff",
  "difficulty": 1,
  "chainwork": "000000000000000000000000000000000000000000000000000026bf26bf26bf",
  "nTx": 1,
  "previousblockhash": "00000000b1cbcc5fe7b5b3e23737d83d8bbda880ab1429d58a78a4579010bb7b",
  "nextblockhash": "00000000509856bde95dfc477a861624d7bde1760842d876301085ceac7627bc",
  "strippedsize": 216,
  "size": 216,
  "weight": 864,
  "tx": [
    {
      "txid": "5bf7158a55f7218dba6bd5f14017a4be647d0aac4ef86eefcdd0d00bebeef099",
      "hash": "5bf7158a55f7218dba6bd5f14017a4be647d0aac4ef86eefcdd0d00bebeef099",
      "version": 1,
      "size": 135,
      "vsize": 135,
      "weight": 540,
      "locktime": 0,
      "vin": [
        {
          "coinbase": "04ffff001d025302",
          "sequence": 4294967295
        }
      ],
      "vout": [
        {
          "value": 50.0,
          "n": 0,
          "scriptPubKey": {
            "asm": "047ff80188ab0041e9b6103336488049ec699999284d8c9eab4ce1430a8aaaa68326d2bfaa80d438dbe21037438eb5380ab58e67c76c5e121712ebd18f20120471 OP_CHECKSIG",
            "desc": "pk(047ff80188ab0041e9b6103336488049ec699999284d8c9eab4ce1430a8aaaa68326d2bfaa80d438dbe21037438eb5380ab58e67c76c5e121712ebd18f20120471)#jmax9ktg",
            "hex": "41047ff80188ab0041e9b6103336488049ec699999284d8c9eab4ce1430a8aaaa68326d2bfaa80d438dbe21037438eb5380ab58e67c76c5e121712ebd18f20120471ac",
            "type": "pubkey"
          }
        }
      ],
      "hex": "01000000010000000000000000000000000000000000000000000000000000000000000000ffffffff0804ffff001d025302ffffffff0100f2052a010000004341047ff80188ab0041e9b6103336488049ec699999284d8c9eab4ce1430a8aaaa68326d2bfaa80d438dbe21037438eb5380ab58e67c76c5e121712ebd18f20120471ac00000000"
    }
  ]
}