{
  "hash": "0000000059958a2cc66e0d460faa7d11f4bff6a332ccac1c1435d25fd812a4d4",
  "confirmations": 43467,
  "height": 9631,
  "version": 1,
  "versionHex": "00000001",
  "merkleroot": "b3de1f243b03f7583da7e22252ba1f3aec44511bbeba3e9380a58a4d00a31090",
  "time": 1238726207,
  "mediantime": 1238721630,
  "nonce": 912257836,
  "bits": "1d00ffff",
  "difficulty": 1,
  "chainwork": "000000000000000000000000000000000000000000000000000025a025a025a0",
  "nTx": 1,
  "previousblockhash": "00000000de934300732c23fa07ebc4778d9b64a14d998e6eb3cffbefe01ad950",
  "nextblockhash": "00000000062252579e0d74e9fbee693645f52b085a5e29928b1c213b6a8f93aa",
  "strippedsize": 216,
  "size": 216,
  "weight": 864,
  "tx": [
    {
      "txid": "b3de1f243b03f7583da7e22252ba1f3aec44511bbeba3e9380a58a4d00a31090",
      "hash": "b3de1f243b03f7583da7e22252ba1f3aec44511bbeba3e9380a58a4d00a31090",
      "version": 1,
      "size": 135,
      "vsize": 135,
      "weight": 540,
      "locktime": 0,
      "vin": [
        {
          "coinbase": "04ffff001d028907",
          "sequence": 4294967295
        }
      ],
      "vout": [
        {
          "value": 50.0,
          "n": 0,
          "scriptPubKey": {
            "asm": "04b49a9bf0b5fc4357486276f6eb2f8afc9f9478644b3e5fa90b7359bec31fb6af0dd3030167f355986844a3454111d00f4032e74686d56636fa0a4987ecc07c00 OP_CHECKSIG",
            "desc": "pk(04b49a9bf0b5fc4357486276f6eb2f8afc9f9478644b3e5fa90b7359bec31fb6af0dd3030167f355986844a3454111d00f4032e74686d56636fa0a4987ecc07c00)#0gww5ssq",
            "hex": "4104b49a9bf0b5fc4357486276f6eb2f8afc9f9478644b3e5fa90b7359bec31fb6af0dd3030167f355986844a3454111d00f4032e74686d56636fa0a4987ecc07c00ac",
            "type": "pubkey"
          }
        }
      ],
      "hex": "01000000010000000000000000000000000000000000000000000000000000000000000000ffffffff0804ffff001d028907ffffffff0100f2052a01000000434104b49a9bf0b5fc4357486276f6eb2f8afc9f9478644b3e5fa90b7359bec31fb6af0dd3030167f355986844a3454111d00f4032e74686d56636fa0a4987ecc07c00ac00000000"
    }
  ]
}