{
  "hash": "00000000d8090bee52f17b5b4042b3ccd4f5d018419efaaaf2a8f0cf613f6273",
  "confirmations": 52494,
  "height": 604,
  "version": 1,
  "versionHex": "00000001",
  "merkleroot": "19ee92fcacc7fca48de4939d200af79d1e52dd9fa5a376e91c2484a756264e3e",
  "time": 1232041344,
  "mediantime": 1232038030,
  "nonce": 10864000,
  "bits": "1d00ffff",
  "difficulty": 1,
  "chainwork": "0000000000000000000000000000000000000000000000000000025d025d025d",
  "nTx": 1,
  "previousblockhash": "0000000051654a00514d993e928b21e06c47dc16d4e289bb435ea6f7d55b357b",
  "nextblockhash": "000000004b3d9501669152bc65bd56eba1992da6737c8c454662ad7ba7b5e443",
  "strippedsize": 215,
  "size": 215,
  "weight": 860,
  "tx": [
    {
      "txid": "19ee92fcacc7fca48de4939d200af79d1e52dd9fa5a376e91c2484a756264e3e",
      "hash": "19ee92fcacc7fca48de4939d200af79d1e52dd9fa5a376e91c2484a756264e3e",
      "version": 1,
      "size": 134,
      "vsize": 134,
      "weight": 536,
      "locktime": 0,
      "vin": [
        {
          "coinbase": "04ffff001d0116",
          "sequence": 4294967295
        }
      ],
      "vout": [
        {
          "value": 50.0,
          "n": 0,
          "scriptPubKey": {
            "asm": "0402750598c75068c8f5ffd89e3c60ad649e993398c7f6146f6cb3e618b800d7af64600b21f6a7472c554c31a035544455d115c90b55d87c7f3bb59d1fbcf5dde2 OP_CHECKSIG",
            "desc": "pk(0402750598c75068c8f5ffd89e3c60ad649e993398c7f6146f6cb3e618b800d7af64600b21f6a7472c554c31a035544455d115c90b55d87c7f3bb59d1fbcf5dde2)#8e2eg50j",
            "hex": "410402750598c75068c8f5ffd89e3c60ad649e993398c7f6146f6cb3e618b800d7af64600b21f6a7472c554c31a035544455d115c90b55d87c7f3bb59d1fbcf5dde2ac",
            "type": "pubkey"
          }
        }
      ],
      "hex": "01000000010000000000000000000000000000000000000000000000000000000000000000ffffffff0704ffff001d0116ffffffff0100f2052a0100000043410402750598c75068c8f5ffd89e3c60ad649e993398c7f6146f6cb3e618b800d7af64600b21f6a7472c554c31a035544455d115c90b55d87c7f3bb59d1fbcf5dde2ac00000000"
    }
  ]
}