{
  "hash": "00000000d7e3261b16abe2fc1811150812ee0d6f6fc3727cadd8821df2d96c45",
  "confirmations": 52026,
  "height": 205,
  "version": 1,
  "versionHex": "00000001",
  "merkleroot": "b4789eff05c89c1b396c05f13a4b93e14295d15afda191e108dac8a1a292f126",
  "time": 1231757171,
  "mediantime": 1231753120,
  "nonce": 1567119367,
  "bits": "1d00ffff",
  "difficulty": 1,
  "chainwork": "000000000000000000000000000000000000000000000000000000ce00ce00ce",
  "nTx": 1,
  "previousblockhash": "000000009e50091c12aa8dc002a193522a5781a1a526ea96c77fb14f75aac9cf",
  "nextblockhash": "000000007986095d6dce2f41fd76e8008e828282400e46d3b49f39d19e2b7a78",
  "strippedsize": 215,
  "size": 215,
  "weight": 860,
  "tx": [
    {
      "txid": "b4789eff05c89c1b396c05f13a4b93e14295d15afda191e108dac8a1a292f126",
      "hash": "b4789eff05c89c1b396c05f13a4b93e14295d15afda191e108dac8a1a292f126",
      "version": 1,
      "size": 134,
      "vsize": 134,
      "weight": 536,
      "locktime": 0,
      "vin": [
        {
          "coinbase": "04ffff001d0146",
          "sequence": 4294967295
        }
      ],
      "vout": [
        {
          "value": 50.0,
          "n": 0,
          "scriptPubKey": {
            "asm": "04bb234bf92a7711339336aa62019853f170a4550286143cba21692a6794094f1d15b0d937f0283c24654e57eca200ab6b5c932eacd3ecbf1e286d011cf1de7988 OP_CHECKSIG",
            "desc": "pk(04bb234bf92a7711339336aa62019853f170a4550286143cba21692a6794094f1d15b0d937f0283c24654e57eca200ab6b5c932eacd3ecbf1e286d011cf1de7988)#wly5t352",
            "hex": "4104bb234bf92a7711339336aa62019853f170a4550286143cba21692a6794094f1d15b0d937f0283c24654e57eca200ab6b5c932eacd3ecbf1e286d011cf1de7988ac",
            "type": "pubkey"
          }
        }
      ],
      "hex": "01000000010000000000000000000000000000000000000000000000000000000000000000ffffffff0704ffff001d0146ffffffff0100f2052a01000000434104bb234bf92a7711339336aa62019853f170a4550286143cba21692a6794094f1d15b0d937f0283c24654e57eca200ab6b5c932eacd3ecbf1e286d011cf1de7988ac00000000"
    }
  ]
}