{
  "hash": "000000009cf1442932004bdc400c080db72157649003d2630f85674caf8dd342",
  "confirmations": 44994,
  "height": 8104,
  "version": 1,
  "versionHex": "00000001",
  "merkleroot": "e5eecf26b8aefc8a481933de723a67f100513deebb5cc4975c97474e91dea214",
  "time": 1237535106,
  "mediantime": 1237530425,
  "nonce": 249622808,
  "bits": "1d00ffff",
  "difficulty": 1,
  "chainwork": "00000000000000000000000000000000000000000000000000001fa91fa91fa9",
  "nTx": 1,
  "previousblockhash": "00000000f08da4ba5d41219aed535af9712919fd87293765b8a237136988d5fe",
  "nextblockhash": "00000000117e3a3826c3cf742f8bf5230053109093b9c9b40f8bce6b9b34b05d",
  "strippedsize": 216,
  "size": 216,
  "weight": 864,
  "tx": [
    {
      "txid": "e5eecf26b8aefc8a481933de723a67f100513deebb5cc4975c97474e91dea214",
      "hash": "e5eecf26b8aefc8a481933de723a67f100513deebb5cc4975c97474e91dea214",
      "version": 1,
      "size": 135,
      "vsize": 135,
      "weight": 540,
      "locktime": 0,
      "vin": [
        {
          "coinbase": "04ffff001d023c01",
          "sequence": 4294967295
        }
      ],
      "vout": [
        {
          "value": 50.0,
          "n": 0,
          "scriptPubKey": {
            "asm": "0404f3445ef8074835a91e95853f4f8274ad808be8a142e28789e2cfabfc2ae6086a382293a16bd894787df1b2edef45c7de2658aca7a36a41ada48d9f2a284fb5 OP_CHECKSIG",
            "desc": "pk(0404f3445ef8074835a91e95853f4f8274ad808be8a142e28789e2cfabfc2ae6086a382293a16bd894787df1b2edef45c7de2658aca7a36a41ada48d9f2a284fb5)#thl2mm0f",
            "hex": "410404f3445ef8074835a91e95853f4f8274ad808be8a142e28789e2cfabfc2ae6086a382293a16bd894787df1b2edef45c7de2658aca7a36a41ada48d9f2a284fb5ac",
            "type": "pubkey"
          }
        }
      ],
      "hex": "01000000010000000000000000000000000000000000000000000000000000000000000000ffffffff0804ffff001d023c01ffffffff0100f2052a0100000043410404f3445ef8074835a91e95853f4f8274ad808be8a142e28789e2cfabfc2ae6086a382293a16bd894787df1b2edef45c7de2658aca7a36a41ada48d9f2a284fb5ac00000000"
    }
  ]
}