{
  "hash": "0000000014ae472605c2919345c6c8e7f87213455218ed44b319f405725a3168",
  "confirmations": 44083,
  "height": 9015,
  "version": 1,
  "versionHex": "00000001",
  "merkleroot": "43e0e6a9a3ed86e8b649df98692557eb9d010af7d3656b3246ab9b25a35013b3",
  "time": 1238263191,
  "mediantime": 1238258613,
  "nonce": 2304897056,
  "bits": "1d00ffff",
  "difficulty": 1,
  "chainwork": "0000000000000000000000000000000000000000000000000000233823382338",
  "nTx": 1,
  "previousblockhash": "000000009cfa56aad416605ed3a78c1a75e71263c2fb8582fbf606ba7bc92027",
  "nextblockhash": "0000000032eab475075339226b84483c73a38a16e0397dfb5541bdc8d068216f",
  "strippedsize": 216,
  "size": 216,
  "weight": 864,
  "tx": [
    {
      "txid": "43e0e6a9a3ed86e8b649df98692557eb9d010af7d3656b3246ab9b25a35013b3",
      "hash": "43e0e6a9a3ed86e8b649df98692557eb9d010af7d3656b3246ab9b25a35013b3",
      "version": 1,
      "size": 135,
      "vsize": 135,
      "weight": 540,
      "locktime": 0,
      "vin": [
        {
          "coinbase": "04ffff001d029f06",
          "sequence": 4294967295
        }
      ],
      "vout": [
        {
          "value": 50.0,
          "n": 0,
          "scriptPubKey": {
            "asm": "046279d4ef1d22fc2b821a503fec57010fae99084599e0597899806c1da8a88e8d4bada4d2a18cefbcbf9137c649b9e38bb27a802a1a894bc60a7e54e5821256e4 OP_CHECKSIG",
            "desc": "pk(046279d4ef1d22fc2b821a503fec57010fae99084599e0597899806c1da8a88e8d4bada4d2a18cefbcbf9137c649b9e38bb27a802a1a894bc60a7e54e5821256e4)#70qrsxmf",
            "hex": "41046279d4ef1d22fc2b821a503fec57010fae99084599e0597899806c1da8a88e8d4bada4d2a18cefbcbf9137c649b9e38bb27a802a1a894bc60a7e54e5821256e4ac",
            "type": "pubkey"
          }
        }
      ],
      "hex": "01000000010000000000000000000000000000000000000000000000000000000000000000ffffffff0804ffff001d029f06ffffffff0100f2052a010000004341046279d4ef1d22fc2b821a503fec57010fae99084599e0597899806c1da8a88e8d4bada4d2a18cefbcbf9137c649b9e38bb27a802a1a894bc60a7e54e5821256e4ac00000000"
    }
  ]
}