{
  "hash": "00000000e413576d022ccb3c655160b2e201b71791b1f2c7db684ecf9386b3e2",
  "confirmations": 46291,
  "height": 6807,
  "version": 1,
  "versionHex": "00000001",
  "merkleroot": "c16c0e207acac329653150124e17ec1aea6342434a5aa6310225a6a85e48d0cd",
  "time": 1236562421,
  "mediantime": 1236559263,
  "nonce": 1504711733,
  "bits": "1d00ffff",
  "difficulty": 1,
  "chainwork": "00000000000000000000000000000000000000000000000000001a981a981a98",
  "nTx": 1,
  "previousblockhash": "000000001b948bd130c624bf47e179b6e171b2f83f0852023b2eaa515ab1b288",
  "nextblockhash": "00000000b8e71af6d32ec5db11ecab6c9a2f24c282ab0fd7adee94d8c9d38566",
  "strippedsize": 216,
  "size": 216,
  "weight": 864,
  "tx": [
    {
      "txid": "c16c0e207acac329653150124e17ec1aea6342434a5aa6310225a6a85e48d0cd",
      "hash": "c16c0e207acac329653150124e17ec1aea6342434a5aa6310225a6a85e48d0cd",
      "version": 1,
      "size": 135,
      "vsize": 135,
      "weight": 540,
      "locktime": 0,
      "vin": [
        {
          "coinbase": "04ffff001d022109",
          "sequence": 4294967295
        }
      ],
      "vout": [
        {
          "value": 50.0,
          "n": 0,
          "scriptPubKey": {
            "asm": "047efabfcb0ce4f0002491a1ebeb359bdabece2073900611979c3363826fd085c5a2dc4e21ad779e53e28c0a6453c599e7fcc2959a873a907e20f495712b9a986c OP_CHECKSIG",
            "desc": "pk(047efabfcb0ce4f0002491a1ebeb359bdabece2073900611979c3363826fd085c5a2dc4e21ad779e53e28c0a6453c599e7fcc2959a873a907e20f495712b9a986c)#hxjgvgly",
            "hex": "41047efabfcb0ce4f0002491a1ebeb359bdabece2073900611979c3363826fd085c5a2dc4e21ad779e53e28c0a6453c599e7fcc2959a873a907e20f495712b9a986cac",
            "type": "pubkey"
          }
        }
      ],
      "hex": "01000000010000000000000000000000000000000000000000000000000000000000000000ffffffff0804ffff001d022109ffffffff0100f2052a010000004341047efabfcb0ce4f0002491a1ebeb359bdabece2073900611979c3363826fd085c5a2dc4e21ad779e53e28c0a6453c599e7fcc2959a873a907e20f495712b9a986cac00000000"
    }
  ]
}