{
  "hash": "0000000083759192b42b4f30c3de656f5132c4224f7d68b7f2af735112b676dd",
  "confirmations": 44695,
  "height": 8403,
  "version": 1,
  "versionHex": "00000001",
  "merkleroot": "49553ea80831845610cd2fc178afe9365b6d9d4f1e639a7ee115a7526fd04a1c",
  "time": 1237800687,
  "mediantime": 1237798699,
  "nonce": 96922414,
  "bits": "1d00ffff",
  "difficulty": 1,
  "chainwork": "000000000000000000000000000000000000000000000000000020d420d420d4",
  "nTx": 1,
  "previousblockhash": "00000000e1ed138cec4b902f562224ee7bc00b868c551bc6c5fb14cdcaf937ee",
  "nextblockhash": "000000007a91ff6b2519b1b00305e80e83b92760f192835a01ac7e8eabcf1eb1",
  "strippedsize": 216,
  "size": 216,
  "weight": 864,
  "tx": [
    {
      "txid": "49553ea80831845610cd2fc178afe9365b6d9d4f1e639a7ee115a7526fd04a1c",
      "hash": "49553ea80831845610cd2fc178afe9365b6d9d4f1e639a7ee115a7526fd04a1c",
      "version": 1,
      "size": 135,
      "vsize": 135,
      "weight": 540,
      "locktime": 0,
      "vin": [
        {
          "coinbase": "04ffff001d020706",
          "sequence": 4294967295
        }
      ],
      "vout": [
        {
          "value": 50.0,
          "n": 0,
          "scriptPubKey": {
            "asm": "04fd793182838af01004e7a9a328179bff3f5649d0f9990b6db97ef3659d16881facfed2417c6468ec975c2df43c0b33b328632b2b070ce525a9b93d1fef342cf4 OP_CHECKSIG",
            "desc": "pk(04fd793182838af01004e7a9a328179bff3f5649d0f9990b6db97ef3659d16881facfed2417c6468ec975c2df43c0b33b328632b2b070ce525a9b93d1fef342cf4)#jr7n3ut9",
            "hex": "4104fd793182838af01004e7a9a328179bff3f5649d0f9990b6db97ef3659d16881facfed2417c6468ec975c2df43c0b33b328632b2b070ce525a9b93d1fef342cf4ac",
            "type": "pubkey"
          }
        }
      ],
      "hex": "01000000010000000000000000000000000000000000000000000000000000000000000000ffffffff0804ffff001d020706ffffffff0100f2052a01000000434104fd793182838af01004e7a9a328179bff3f5649d0f9990b6db97ef3659d16881facfed2417c6468ec975c2df43c0b33b328632b2b070ce525a9b93d1fef342cf4ac00000000"
    }
  ]
}