{
  "hash": "00000000f027fe41b775800b11935115fe4889a786e83c19654e459e6b8446d1",
  "confirmations": 44439,
  "height": 8659,
  "version": 1,
  "versionHex": "00000001",
  "merkleroot": "83e9997c4b6eb3e057c05e32102566f8fc6b956e1254dc95cc6a64fd4cb24c0e",
  "time": 1237992715,
  "mediantime": 1237989049,
  "nonce": 978939433,
  "bits": "1d00ffff",
  "difficulty": 1,
  "chainwork": "000000000000000000000000000000000000000000000000000021d421d421d4",
  "nTx": 1,
  "previousblockhash": "00000000310584baf587dfd0c615c3301d8a065a81bb1097d14e65098a985760",
  "nextblockhash": "000000008f7e87c8897a365abbcaf5936bf4d7b5ab434794644de3d32a5666aa",
  "strippedsize": 215,
  "size": 215,
  "weight": 860,
  "tx": [
    {
      "txid": "83e9997c4b6eb3e057c05e32102566f8fc6b956e1254dc95cc6a64fd4cb24c0e",
      "hash": "83e9997c4b6eb3e057c05e32102566f8fc6b956e1254dc95cc6a64fd4cb24c0e",
      "version": 1,
      "size": 134,
      "vsize": 134,
      "weight": 536,
      "locktime": 0,
      "vin": [
        {
          "coinbase": "04ffff001d012b",
          "sequence": 4294967295
        }
      ],
      "vout": [
        {
          "value": 50.0,
          "n": 0,
          "scriptPubKey": {
            "asm": "04e1025b3c250c9ac551e626288a30f3319ce5dcf3a347d5898cfdff020fe20df1c9fae7089095d98d94fd5691deeed0e788dc7d5bfeac447fed382518e5d38ba8 OP_CHECKSIG",
            "desc": "pk(04e1025b3c250c9ac551e626288a30f3319ce5dcf3a347d5898cfdff020fe20df1c9fae7089095d98d94fd5691deeed0e788dc7d5bfeac447fed382518e5d38ba8)#ewu5tlzm",
            "hex": "4104e1025b3c250c9ac551e626288a30f3319ce5dcf3a347d5898cfdff020fe20df1c9fae7089095d98d94fd5691deeed0e788dc7d5bfeac447fed382518e5d38ba8ac",
            "type": "pubkey"
          }
        }
      ],
      "hex": "01000000010000000000000000000000000000000000000000000000000000000000000000ffffffff0704ffff001d012bffffffff0100f2052a01000000434104e1025b3c250c9ac551e626288a30f3319ce5dcf3a347d5898cfdff020fe20df1c9fae7089095d98d94fd5691deeed0e788dc7d5bfeac447fed382518e5d38ba8ac00000000"
    }
  ]
}