{
  "hash": "00000000d3e91a1f7df6f1bb0325994742e92435d8d503bcf8aef6efb25bd915",
  "confirmations": 44262,
  "height": 8836,
  "version": 1,
  "versionHex": "00000001",
  "merkleroot": "90f0aca50a379f3cc99bf86e5fc5aca83c20b5c436caa4f297729a3c82ae8f41",
  "time": 1238126703,
  "mediantime": 1238120705,
  "nonce": 707142920,
  "bits": "1d00ffff",
  "difficulty": 1,
  "chainwork": "0000000000000000000000000000000000000000000000000000228522852285",
  "nTx": 1,
  "previousblockhash": "00000000b31245632f9d27ba0dd4f18536b62d4e91b1590d82c8263764740841",
  "nextblockhash": "000000003c6d797bb137415ca0f9a266b8f59b8ec35e96454f7671d29e449335",
  "strippedsize": 216,
  "size": 216,
  "weight": 864,
  "tx": [
    {
      "txid": "90f0aca50a379f3cc99bf86e5fc5aca83c20b5c436caa4f297729a3c82ae8f41",
      "hash": "90f0aca50a379f3cc99bf86e5fc5aca83c20b5c436caa4f297729a3c82ae8f41",
      "version": 1,
      "size": 135,
      "vsize": 135,
      "weight": 540,
      "locktime": 0,
      "vin": [
        {
          "coinbase": "04ffff001d027603",
          "sequence": 4294967295
        }
      ],
      "vout": [
        {
          "value": 50.0,
          "n": 0,
          "scriptPubKey": {
            "asm": "045483df173a35f13cc49bfffea1e4fb5eadf6c96571d79d8568d3fce327cf98f9383e4e2fdafff24a3530c2652f20752c7c2fa922d45f22321337a201b7c91685 OP_CHECKSIG",
            "desc": "pk(045483df173a35f13cc49bfffea1e4fb5eadf6c96571d79d8568d3fce327cf98f9383e4e2fdafff24a3530c2652f20752c7c2fa922d45f22321337a201b7c91685)#ty894wed",
            "hex": "41045483df173a35f13cc49bfffea1e4fb5eadf6c96571d79d8568d3fce327cf98f9383e4e2fdafff24a3530c2652f20752c7c2fa922d45f22321337a201b7c91685ac",
            "type": "pubkey"
          }
        }
      ],
      "hex": "01000000010000000000000000000000000000000000000000000000000000000000000000ffffffff0804ffff001d027603ffffffff0100f2052a010000004341045483df173a35f13cc49bfffea1e4fb5eadf6c96571d79d8568d3fce327cf98f9383e4e2fdafff24a3530c2652f20752c7c2fa922d45f22321337a201b7c91685ac00000000"
    }
  ]
}