{
  "hash": "00000000de4e9e30d87758af6afab71f26ab732cea8bb5f36a927253ea44c944",
  "confirmations": 49996,
  "height": 3102,
  "version": 1,
  "versionHex": "00000001",
  "merkleroot": "9c91e4aab8e7cc95b67a4c16a207d8fc54616bb768473333d1a1bbf12ae2f927",
  "time": 1233836303,
  "mediantime": 1233831876,
  "nonce": 3562967849,
  "bits": "1d00ffff",
  "difficulty": 1,
  "chainwork": "00000000000000000000000000000000000000000000000000000c1f0c1f0c1f",
  "nTx": 1,
  "previousblockhash": "000000005a83151304f6be998d66d53d4e684255955d352e85a65e7020801738",
  "nextblockhash": "000000006fbd5d5c06beb7bd23d87b677d3eca2e2e644a96f8eefe28b41b845d",
  "strippedsize": 216,
  "size": 216,
  "weight": 864,
  "tx": [
    {
      "txid": "9c91e4aab8e7cc95b67a4c16a207d8fc54616bb768473333d1a1bbf12ae2f927",
      "hash": "9c91e4aab8e7cc95b67a4c16a207d8fc54616bb768473333d1a1bbf12ae2f927",
      "version": 1,
      "size": 135,
      "vsize": 135,
      "weight": 540,
      "locktime": 0,
      "vin": [
        {
          "coinbase": "04ffff001d023901",
          "sequence": 4294967295
        }
      ],
      "vout": [
        {
          "value": 50.0,
          "n": 0,
          "scriptPubKey": {
            "asm": "047359d2ea844b8a33a099aa7e4ae74d8376801ec633ee07b924683e52e4ea8150389952ab10590b40924499e0ed278e89ba053f87bcfe0f4754573e3acb9ace5c OP_CHECKSIG",
            "desc": "pk(047359d2ea844b8a33a099aa7e4ae74d8376801ec633ee07b924683e52e4ea8150389952ab10590b40924499e0ed278e89ba053f87bcfe0f4754573e3acb9ace5c)#hqrnls3z",
            "hex": "41047359d2ea844b8a33a099aa7e4ae74d8376801ec633ee07b924683e52e4ea8150389952ab10590b40924499e0ed278e89ba053f87bcfe0f4754573e3acb9ace5cac",
            "type": "pubkey"
          }
        }
      ],
      "hex": "01000000010000000000000000000000000000000000000000000000000000000000000000ffffffff0804ffff001d023901ffffffff0100f2052a010000004341047359d2ea844b8a33a099aa7e4ae74d8376801ec633ee07b924683e52e4ea8150389952ab10590b40924499e0ed278e89ba053f87bcfe0f4754573e3acb9ace5cac00000000"
    }
  ]
}