{
  "hash": "000000006304081c10fb81029e85f8930ce1f4d656bffd35d049078db4de767d",
  "confirmations": 50490,
  "height": 2608,
  "version": 1,
  "versionHex": "00000001",
  "merkleroot": "052e3f70b3c7c79d4a743dfde6d0a09371a29112dd21dd667ba9b533c5d901a8",
  "time": 1233499536,
  "mediantime": 1233496990,
  "nonce": 20340186,
  "bits": "1d00ffff",
  "difficulty": 1,
  "chainwork": "00000000000000000000000000000000000000000000000000000a310a310a31",
  "nTx": 1,
  "previousblockhash": "000000006bf9a1754e0f7c6e1be94734a29d9b476250f910f2c46538ccdf5a42",
  "nextblockhash": "00000000f3f83c8c386fbd89c5e00739aa1b7f1d5367c92fd2f6804275dd1c7b",
  "strippedsize": 215,
  "size": 215,
  "weight": 860,
  "tx": [
    {
      "txid": "052e3f70b3c7c79d4a743dfde6d0a09371a29112dd21dd667ba9b533c5d901a8",
      "hash": "052e3f70b3c7c79d4a743dfde6d0a09371a29112dd21dd667ba9b533c5d901a8",
      "version": 1,
      "size": 134,
      "vsize": 134,
      "weight": 536,
      "locktime": 0,
      "vin": [
        {
          "coinbase": "04ffff001d0109",
          "sequence": 4294967295
        }
      ],
      "vout": [
        {
          "value": 50.0,
          "n": 0,
          "scriptPubKey": {
            "asm": "0447a0961e9cf732494dd3b8f3a0a4d6e76b30038473413a52a17890db1396acac77fa96de51691d819c6e77e3c15b40b782e65a05b5a2eedf4038c25494991365 OP_CHECKSIG",
            "desc": "pk(0447a0961e9cf732494dd3b8f3a0a4d6e76b30038473413a52a17890db1396acac77fa96de51691d819c6e77e3c15b40b782e65a05b5a2eedf4038c25494991365)#v4eg9n6x",
            "hex": "410447a0961e9cf732494dd3b8f3a0a4d6e76b30038473413a52a17890db1396acac77fa96de51691d819c6e77e3c15b40b782e65a05b5a2eedf4038c25494991365ac",
            "type": "pubkey"
          }
        }
      ],
      "hex": "01000000010000000000000000000000000000000000000000000000000000000000000000ffffffff0704ffff001d0109ffffffff0100f2052a0100000043410447a0961e9cf732494dd3b8f3a0a4d6e76b30038473413a52a17890db1396acac77fa96de51691d819c6e77e3c15b40b782e65a05b5a2eedf4038c25494991365ac00000000"
    }
  ]
}