{
  "hash": "00000000b352e35abc4dc0fc9a58ca52631616d28b1a42245166f3dcfef5df9c",
  "confirmations": 50791,
  "height": 2307,
  "version": 1,
  "versionHex": "00000001",
  "merkleroot": "6fd8de99ec86a7fbbf6e97ac7d6a0e11d82771217b0a5afb6454fb214bef450a",
  "time": 1233283986,
  "mediantime": 1233280383,
  "nonce": 2484402717,
  "bits": "1d00ffff",
  "difficulty": 1,
  "chainwork": "0000000000000000000000000000000000000000000000000000090409040904",
  "nTx": 1,
  "previousblockhash": "000000002723d8bf25e81b295070bb37f03754fec32dc494d6426c9a2e776b9a",
  "nextblockhash": "00000000e0600b60a1e769bbc5b45a3f2e081ad11f6ee7e63850fefa281236d6",
  "strippedsize": 216,
  "size": 216,
  "weight": 864,
  "tx": [
    {
      "txid": "6fd8de99ec86a7fbbf6e97ac7d6a0e11d82771217b0a5afb6454fb214bef450a",
      "hash": "6fd8de99ec86a7fbbf6e97ac7d6a0e11d82771217b0a5afb6454fb214bef450a",
      "version": 1,
      "size": 135,
      "vsize": 135,
      "weight": 540,
      "locktime": 0,
      "vin": [
        {
          "coinbase": "04ffff001d02bd01",
          "sequence": 4294967295
        }
      ],
      "vout": [
        {
          "value": 50.0,
          "n": 0,
          "scriptPubKey": {
            "asm": "04c3923c810666613621533b28f29749fabd10306a5423f3288b033b6d6d1367a36ad9dae5dede205abf0c03324b3f65aba048c2a67070a84469ca225f97d1edfb OP_CHECKSIG",
            "desc": "pk(04c3923c810666613621533b28f29749fabd10306a5423f3288b033b6d6d1367a36ad9dae5dede205abf0c03324b3f65aba048c2a67070a84469ca225f97d1edfb)#vgxyeqa7",
            "hex": "4104c3923c810666613621533b28f29749fabd10306a5423f3288b033b6d6d1367a36ad9dae5dede205abf0c03324b3f65aba048c2a67070a84469ca225f97d1edfbac",
            "type": "pubkey"
          }
        }
      ],
      "hex": "01000000010000000000000000000000000000000000000000000000000000000000000000ffffffff0804ffff001d02bd01ffffffff0100f2052a01000000434104c3923c810666613621533b28f29749fabd10306a5423f3288b033b6d6d1367a36ad9dae5dede205abf0c03324b3f65aba048c2a67070a84469ca225f97d1edfbac00000000"
    }
  ]
}