{
  "hash": "00000000dcef08d7694a92a9cbb2b90a4e66dc9299df51d7296aed972af369c3",
  "confirmations": 48082,
  "height": 5016,
  "version": 1,
  "versionHex": "00000001",
  "merkleroot": "3744df457fbc4b294969f1786da602d80664fb4b4cd8b3d71bc41cbd05e55557",
  "time": 1235146778,
  "mediantime": 1235143026,
  "nonce": 596809751,
  "bits": "1d00ffff",
  "difficulty": 1,
  "chainwork": "0000000000000000000000000000000000000000000000000000139913991399",
  "nTx": 1,
  "previousblockhash": "00000000332f23add6bf08f8d6aa46acbdfd3fd238bafa3640084eb20511bcfe",
  "nextblockhash": "00000000906ec21d7b5c22f724f955212463b7275ed4f209ca44a6c235854202",
  "strippedsize": 216,
  "size": 216,
  "weight": 864,
  "tx": [
    {
      "txid": "3744df457fbc4b294969f1786da602d80664fb4b4cd8b3d71bc41cbd05e55557",
      "hash": "3744df457fbc4b294969f1786da602d80664fb4b4cd8b3d71bc41cbd05e55557",
      "version": 1,
      "size": 135,
      "vsize": 135,
      "weight": 540,
      "locktime": 0,
      "vin": [
        {
          "coinbase": "04ffff001d023a07",
          "sequence": 4294967295
        }
      ],
      "vout": [
        {
          "value": 50.0,
          "n": 0,
          "scriptPubKey": {
            "asm": "0465cdd947044bf2d11e4f0d51ba1978e92c13e1bf789b8be56692099e6ab6bbb7a6edd6fe022b2d491dc7bdc5e3f12a2a0b566a35370249f0a52caa19b38a1ce2 OP_CHECKSIG",
            "desc": "pk(0465cdd947044bf2d11e4f0d51ba1978e92c13e1bf789b8be56692099e6ab6bbb7a6edd6fe022b2d491dc7bdc5e3f12a2a0b566a35370249f0a52caa19b38a1ce2)#xga2nf7h",
            "hex": "410465cdd947044bf2d11e4f0d51ba1978e92c13e1bf789b8be56692099e6ab6bbb7a6edd6fe022b2d491dc7bdc5e3f12a2a0b566a35370249f0a52caa19b38a1ce2ac",
            "type": "pubkey"
          }
        }
      ],
      "hex": "01000000010000000000000000000000000000000000000000000000000000000000000000ffffffff0804ffff001d023a07ffffffff0100f2052a0100000043410465cdd947044bf2d11e4f0d51ba1978e92c13e1bf789b8be56692099e6ab6bbb7a6edd6fe022b2d491dc7bdc5e3f12a2a0b566a35370249f0a52caa19b38a1ce2ac00000000"
    }
  ]
}