{
  "hash": "0000000084bf16c1bf01890349df52f25dc40c324ec27c08282a1135ebb78f0b",
  "confirmations": 44075,
  "height": 9023,
  "version": 1,
  "versionHex": "00000001",
  "merkleroot": "fe1aa24b83b6c530fe09ed3b6045cce8042d5a4e06c5ceeadec997424ae21187",
  "time": 1238269210,
  "mediantime": 1238264808,
  "nonce": 3927047936,
  "bits": "1d00ffff",
  "difficulty": 1,
  "chainwork": "0000000000000000000000000000000000000000000000000000234023402340",
  "nTx": 1,
  "previousblockhash": "000000005985ddd407d323e19488030a5e48531ba2c9b69fb0451cb49425ea98",
  "nextblockhash": "00000000871439443e783e896fff08e44631cb894ca229b1d0b1e32ad1ea2266",
  "strippedsize": 216,
  "size": 216,
  "weight": 864,
  "tx": [
    {
      "txid": "fe1aa24b83b6c530fe09ed3b6045cce8042d5a4e06c5ceeadec997424ae21187",
      "hash": "fe1aa24b83b6c530fe09ed3b6045cce8042d5a4e06c5ceeadec997424ae21187",
      "version": 1,
      "size": 135,
      "vsize": 135,
      "weight": 540,
      "locktime": 0,
      "vin": [
        {
          "coinbase": "04ffff001d02c306",
          "sequence": 4294967295
        }
      ],
      "vout": [
        {
          "value": 50.0,
          "n": 0,
          "scriptPubKey": {
            "asm": "044208057942bbffa5501f8987b71132d273adc76e59f9d54c412b4873d8705b36ca2f4c56bd251ab8cbdfa6a7f9fe05d3926cf7ce9d37096dd6951baa0db879e6 OP_CHECKSIG",
            "desc": "pk(044208057942bbffa5501f8987b71132d273adc76e59f9d54c412b4873d8705b36ca2f4c56bd251ab8cbdfa6a7f9fe05d3926cf7ce9d37096dd6951baa0db879e6)#22n0ezxq",
            "hex": "41044208057942bbffa5501f8987b71132d273adc76e59f9d54c412b4873d8705b36ca2f4c56bd251ab8cbdfa6a7f9fe05d3926cf7ce9d37096dd6951baa0db879e6ac",
            "type": "pubkey"
          }
        }
      ],
      "hex": "01000000010000000000000000000000000000000000000000000000000000000000000000ffffffff0804ffff001d02c306ffffffff0100f2052a010000004341044208057942bbffa5501f8987b71132d273adc76e59f9d54c412b4873d8705b36ca2f4c56bd251ab8cbdfa6a7f9fe05d3926cf7ce9d37096dd6951baa0db879e6ac00000000"
    }
  ]
}