{
  "hash": "00000000202e241e5270b7ba44929a822724ccadba9b8846bdc01d8ea9f3d8b9",
  "confirmations": 46101,
  "height": 6997,
  "version": 1,
  "versionHex": "00000001",
  "merkleroot": "975ed277b2b118313ba9bc903b2cb10ecf21ae49b851217663f5bfdc73c6189a",
  "time": 1236716332,
  "mediantime": 1236712257,
  "nonce": 3475881481,
  "bits": "1d00ffff",
  "difficulty": 1,
  "chainwork": "00000000000000000000000000000000000000000000000000001b561b561b56",
  "nTx": 1,
  "previousblockhash": "000000000d9c8fc997b6cedd8a7a6c671ceb3bc51e5cbc01621454408ae3fc71",
  "nextblockhash": "00000000944e3364a71446e8a21c45e9fac1d356b6671c2b76276ce091ee7eb6",
  "strippedsize": 216,
  "size": 216,
  "weight": 864,
  "tx": [
    {
      "txid": "975ed277b2b118313ba9bc903b2cb10ecf21ae49b851217663f5bfdc73c6189a",
      "hash": "975ed277b2b118313ba9bc903b2cb10ecf21ae49b851217663f5bfdc73c6189a",
      "version": 1,
      "size": 135,
      "vsize": 135,
      "weight": 540,
      "locktime": 0,
      "vin": [
        {
          "coinbase": "04ffff001d023d02",
          "sequence": 4294967295
        }
      ],
      "vout": [
        {
          "value": 50.0,
          "n": 0,
          "scriptPubKey": {
            "asm": "041c133abe80fc9700e130cc6eddf2d94aca5766270e60dcebb23aa5a2dd705b780c9dcfa2f3d209cf852b8f4fe0f1817cf311e7f7056a16ba36211190dccea099 OP_CHECKSIG",
            "desc": "pk(041c133abe80fc9700e130cc6eddf2d94aca5766270e60dcebb23aa5a2dd705b780c9dcfa2f3d209cf852b8f4fe0f1817cf311e7f7056a16ba36211190dccea099)#vzalaz25",
            "hex": "41041c133abe80fc9700e130cc6eddf2d94aca5766270e60dcebb23aa5a2dd705b780c9dcfa2f3d209cf852b8f4fe0f1817cf311e7f7056a16ba36211190dccea099ac",
            "type": "pubkey"
          }
        }
      ],
      "hex": "01000000010000000000000000000000000000000000000000000000000000000000000000ffffffff0804ffff001d023d02ffffffff0100f2052a010000004341041c133abe80fc9700e130cc6eddf2d94aca5766270e60dcebb23aa5a2dd705b780c9dcfa2f3d209cf852b8f4fe0f1817cf311e7f7056a16ba36211190dccea099ac00000000"
    }
  ]
}