{
  "hash": "0000000009596ad08b94e1c59361b94a94dc88f17df2dc0a87e4d1648fc331d9",
  "confirmations": 47034,
  "height": 6064,
  "version": 1,
  "versionHex": "00000001",
  "merkleroot": "a36c95c01f128dace69848e2e43aa93a2efeb083f4a2a8c42ce1a47caad144c9",
  "time": 1235980012,
  "mediantime": 1235976469,
  "nonce": 742595361,
  "bits": "1d00ffff",
  "difficulty": 1,
  "chainwork": "000000000000000000000000000000000000000000000000000017b117b117b1",
  "nTx": 1,
  "previousblockhash": "00000000430e26e7e50e4204e74251e3f1281ca26ecef8ae069ddd354a189574",
  "nextblockhash": "00000000f137a47483f1c254de2d0c17736551b5159aac80b8accd39d632bfee",
  "strippedsize": 216,
  "size": 216,
  "weight": 864,
  "tx": [
    {
      "txid": "a36c95c01f128dace69848e2e43aa93a2efeb083f4a2a8c42ce1a47caad144c9",
      "hash": "a36c95c01f128dace69848e2e43aa93a2efeb083f4a2a8c42ce1a47caad144c9",
      "version": 1,
      "size": 135,
      "vsize": 135,
      "weight": 540,
      "locktime": 0,
      "vin": [
        {
          "coinbase": "04ffff001d021e06",
          "sequence": 4294967295
        }
      ],
      "vout": [
        {
          "value": 50.0,
          "n": 0,
          "scriptPubKey": {
            "asm": "04f96513736fb045024cf3d626cd39a8a9389e9e75399f12222830e7d3e37415d8d9498047f6a5d80b85616e37cf46dd15d320b483580736be92a11774cce6c8f6 OP_CHECKSIG",
            "desc": "pk(04f96513736fb045024cf3d626cd39a8a9389e9e75399f12222830e7d3e37415d8d9498047f6a5d80b85616e37cf46dd15d320b483580736be92a11774cce6c8f6)#c5wyz8us",
            "hex": "4104f96513736fb045024cf3d626cd39a8a9389e9e75399f12222830e7d3e37415d8d9498047f6a5d80b85616e37cf46dd15d320b483580736be92a11774cce6c8f6ac",
            "type": "pubkey"
          }
        }
      ],
      "hex": "01000000010000000000000000000000000000000000000000000000000000000000000000ffffffff0804ffff001d021e06ffffffff0100f2052a01000000434104f96513736fb045024cf3d626cd39a8a9389e9e75399f12222830e7d3e37415d8d9498047f6a5d80b85616e37cf46dd15d320b483580736be92a11774cce6c8f6ac00000000"
    }
  ]
}