{
  "hash": "000000003c2d4f7119bf1188afd841479cd9b512f8c9ffcd8bb78be0f893c726",
  "confirmations": 46304,
  "height": 6794,
  "version": 1,
  "versionHex": "00000001",
  "merkleroot": "d7193dfa920c3db765d38b27862eb0ab9152fce341ce2b48dc4ad3054dbf48a9",
  "time": 1236553939,
  "mediantime": 1236550601,
  "nonce": 3502664740,
  "bits": "1d00ffff",
  "difficulty": 1,
  "chainwork": "00000000000000000000000000000000000000000000000000001a8b1a8b1a8b",
  "nTx": 1,
  "previousblockhash": "00000000a8724b8bb407df756f81b9fdafa99110179f37d845e7358a7628b02c",
  "nextblockhash": "0000000029aa1d7049524001c25b11e188f1a4b873790b2cee7b87cce3f49b96",
  "strippedsize": 216,
  "size": 216,
  "weight": 864,
  "tx": [
    {
      "txid": "d7193dfa920c3db765d38b27862eb0ab9152fce341ce2b48dc4ad3054dbf48a9",
      "hash": "d7193dfa920c3db765d38b27862eb0ab9152fce341ce2b48dc4ad3054dbf48a9",
      "version": 1,
      "size": 135,
      "vsize": 135,
      "weight": 540,
      "locktime": 0,
      "vin": [
        {
          "coinbase": "04ffff001d02ef08",
          "sequence": 4294967295
        }
      ],
      "vout": [
        {
          "value": 50.0,
          "n": 0,
          "scriptPubKey": {
            "asm": "0422c4fd3d4b26e4faee23a6da15736788c6fb9ae87be51adb75513460ffee18248cf3dbc7b61a5961650b7eb1ccaae4166952b20f4b24efb06be8e214838bb0a7 OP_CHECKSIG",
            "desc": "pk(0422c4fd3d4b26e4faee23a6da15736788c6fb9ae87be51adb75513460ffee18248cf3dbc7b61a5961650b7eb1ccaae4166952b20f4b24efb06be8e214838bb0a7)#pxz364xg",
            "hex": "410422c4fd3d4b26e4faee23a6da15736788c6fb9ae87be51adb75513460ffee18248cf3dbc7b61a5961650b7eb1ccaae4166952b20f4b24efb06be8e214838bb0a7ac",
            "type": "pubkey"
          }
        }
      ],
      "hex": "01000000010000000000000000000000000000000000000000000000000000000000000000ffffffff0804ffff001d02ef08ffffffff0100f2052a0100000043410422c4fd3d4b26e4faee23a6da15736788c6fb9ae87be51adb75513460ffee18248cf3dbc7b61a5961650b7eb1ccaae4166952b20f4b24efb06be8e214838bb0a7ac00000000"
    }
  ]
}