{
  "hash": "000000005b5c1859db198e9f51966a1719e53efb00a3ae7f2d5489bb9e9db1df",
  "confirmations": 51347,
  "height": 1751,
  "version": 1,
  "versionHex": "00000001",
  "merkleroot": "3be1047ce87cb300528e0f5d5b5caa27c84b067f2088994e7cfbdbfd90700cd6",
  "time": 1232875103,
  "mediantime": 1232872780,
  "nonce": 2846683160,
  "bits": "1d00ffff",
  "difficulty": 1,
  "chainwork": "000000000000000000000000000000000000000000000000000006d806d806d8",
  "nTx": 1,
  "previousblockhash": "000000003fb07cd6b88c2d72edacd4c9d168fa06c8c9859cd51a9eb593ff8f97",
  "nextblockhash": "00000000f396ab6b62ba13ef214dfd15b1f17062da8d99742d63bbeeaa5a6a3a",
  "strippedsize": 216,
  "size": 216,
  "weight": 864,
  "tx": [
    {
      "txid": "3be1047ce87cb300528e0f5d5b5caa27c84b067f2088994e7cfbdbfd90700cd6",
      "hash": "3be1047ce87cb300528e0f5d5b5caa27c84b067f2088994e7cfbdbfd90700cd6",
      "version": 1,
      "size": 135,
      "vsize": 135,
      "weight": 540,
      "locktime": 0,
      "vin": [
        {
          "coinbase": "04ffff001d02a203",
          "sequence": 4294967295
        }
      ],
      "vout": [
        {
          "value": 50.0,
          "n": 0,
          "scriptPubKey": {
            "asm": "040bbe924588e1158f48ca0b6c821570d746defa80ddae79d4bf93b91779e7f4b1b89c42e6fd0718718c179ae797d75de20568b68ecbcca5b6ebaecbafcb1dbed2 OP_CHECKSIG",
            "desc": "pk(040bbe924588e1158f48ca0b6c821570d746defa80ddae79d4bf93b91779e7f4b1b89c42e6fd0718718c179ae797d75de20568b68ecbcca5b6ebaecbafcb1dbed2)#zdc65jmx",
            "hex": "41040bbe924588e1158f48ca0b6c821570d746defa80ddae79d4bf93b91779e7f4b1b89c42e6fd0718718c179ae797d75de20568b68ecbcca5b6ebaecbafcb1dbed2ac",
            "type": "pubkey"
          }
        }
      ],
      "hex": "01000000010000000000000000000000000000000000000000000000000000000000000000ffffffff0804ffff001d02a203ffffffff0100f2052a010000004341040bbe924588e1158f48ca0b6c821570d746defa80ddae79d4bf93b91779e7f4b1b89c42e6fd0718718c179ae797d75de20568b68ecbcca5b6ebaecbafcb1dbed2ac00000000"
    }
  ]
}