{
  "hash": "000000000c171e4cf4db44ee5c88f7a6f767bf4db349e90c53d4c2ea26fbe796",
  "confirmations": 44567,
  "height": 8531,
  "version": 1,
  "versionHex": "00000001",
  "merkleroot": "79356555f3a73ea418dc4e18212a82e8cdf07b7b115609ff6af9e2d0b68cba2e",
  "time": 1237897246,
  "mediantime": 1237893530,
  "nonce": 4146871859,
  "bits": "1d00ffff",
  "difficulty": 1,
  "chainwork": "0000000000000000000000000000000000000000000000000000215421542154",
  "nTx": 1,
  "previousblockhash": "0000000033007eebe850fce87336cb64f5a8452462336837a99e020eb356b87a",
  "nextblockhash": "00000000becf44176653725cbdb1e7f7f53831953566deb59b8c685ee833e414",
  "strippedsize": 216,
  "size": 216,
  "weight": 864,
  "tx": [
    {
      "txid": "79356555f3a73ea418dc4e18212a82e8cdf07b7b115609ff6af9e2d0b68cba2e",
      "hash": "79356555f3a73ea418dc4e18212a82e8cdf07b7b115609ff6af9e2d0b68cba2e",
      "version": 1,
      "size": 135,
      "vsize": 135,
      "weight": 540,
      "locktime": 0,
      "vin": [
        {
          "coinbase": "04ffff001d024608",
          "sequence": 4294967295
        }
      ],
      "vout": [
        {
          "value": 50.0,
          "n": 0,
          "scriptPubKey": {
            "asm": "049db60a8327fd3f384fdf4569e71c2b8191d22bf52851ee37199f8b029a9ec0d496c0d8020b8be66b98bfa1ae591aec39dc8d22515e17b4bd6f2c5ec7f5cccdfd OP_CHECKSIG",
            "desc": "pk(049db60a8327fd3f384fdf4569e71c2b8191d22bf52851ee37199f8b029a9ec0d496c0d8020b8be66b98bfa1ae591aec39dc8d22515e17b4bd6f2c5ec7f5cccdfd)#ur9sqhmt",
            "hex": "41049db60a8327fd3f384fdf4569e71c2b8191d22bf52851ee37199f8b029a9ec0d496c0d8020b8be66b98bfa1ae591aec39dc8d22515e17b4bd6f2c5ec7f5cccdfdac",
            "type": "pubkey"
          }
        }
      ],
      "hex": "01000000010000000000000000000000000000000000000000000000000000000000000000ffffffff0804ffff001d024608ffffffff0100f2052a010000004341049db60a8327fd3f384fdf4569e71c2b8191d22bf52851ee37199f8b029a9ec0d496c0d8020b8be66b98bfa1ae591aec39dc8d22515e17b4bd6f2c5ec7f5cccdfdac00000000"
    }
  ]
}