{
  "hash": "00000000e8c79d2856b69431bdef722ba62ac6fd5eb31bd3dd4485d020c0b5a2",
  "confirmations": 46890,
  "height": 6208,
  "version": 1,
  "versionHex": "00000001",
  "merkleroot": "1c29ce249aed92a705a89c4305c5b143d883ad5215d90268795f82e565592186",
  "time": 1236097458,
  "mediantime": 1236094020,
  "nonce": 2756904452,
  "bits": "1d00ffff",
  "difficulty": 1,
  "chainwork": "0000000000000000000000000000000000000000000000000000184118411841",
  "nTx": 1,
  "previousblockhash": "00000000197cdc6baad2f16e42020aeabff0a4fecb9da955e9fc5d05b92e014e",
  "nextblockhash": "00000000b78bd41246d3bef0b842a8880f7f5c9913fc0efe24fe9a1609cd0e17",
  "strippedsize": 216,
  "size": 216,
  "weight": 864,
  "tx": [
    {
      "txid": "1c29ce249aed92a705a89c4305c5b143d883ad5215d90268795f82e565592186",
      "hash": "1c29ce249aed92a705a89c4305c5b143d883ad5215d90268795f82e565592186",
      "version": 1,
      "size": 135,
      "vsize": 135,
      "weight": 540,
      "locktime": 0,
      "vin": [
        {
          "coinbase": "04ffff001d029908",
          "sequence": 4294967295
        }
      ],
      "vout": [
        {
          "value": 50.0,
          "n": 0,
          "scriptPubKey": {
            "asm": "04576e48881f72be29a4d3664749de822e9c829fd6116d02424af36209b1bcc61c6f07d58a26be403d03489383533c5800b0d39e39161da8d90875224cbadc63a3 OP_CHECKSIG",
            "desc": "pk(04576e48881f72be29a4d3664749de822e9c829fd6116d02424af36209b1bcc61c6f07d58a26be403d03489383533c5800b0d39e39161da8d90875224cbadc63a3)#z4hn3l6f",
            "hex": "4104576e48881f72be29a4d3664749de822e9c829fd6116d02424af36209b1bcc61c6f07d58a26be403d03489383533c5800b0d39e39161da8d90875224cbadc63a3ac",
            "type": "pubkey"
          }
        }
      ],
      "hex": "01000000010000000000000000000000000000000000000000000000000000000000000000ffffffff0804ffff001d029908ffffffff0100f2052a01000000434104576e48881f72be29a4d3664749de822e9c829fd6116d02424af36209b1bcc61c6f07d58a26be403d03489383533c5800b0d39e39161da8d90875224cbadc63a3ac00000000"
    }
  ]
}