{
  "hash": "0000000003037afa6325b8dc63f67d61b8d0803348b7ec6401a3d49c552c7a6f",
  "confirmations": 49342,
  "height": 3756,
  "version": 1,
  "versionHex": "00000001",
  "merkleroot": "6ef60ead3e8ec35e2e54b0cc2e27f095b49e4d967e3bca7fb50c99a055fc798a",
  "time": 1234276708,
  "mediantime": 1234272095,
  "nonce": 2440539686,
  "bits": "1d00ffff",
  "difficulty": 1,
  "chainwork": "00000000000000000000000000000000000000000000000000000ead0ead0ead",
  "nTx": 1,
  "previousblockhash": "00000000aa4942c459af750f210070b7915baf4819c447935c994697b83fca1d",
  "nextblockhash": "00000000ce16d4c34cde797cebdca5e499dc20526eb066db402f14bccc1e42cf",
  "strippedsize": 216,
  "size": 216,
  "weight": 864,
  "tx": [
    {
      "txid": "6ef60ead3e8ec35e2e54b0cc2e27f095b49e4d967e3bca7fb50c99a055fc798a",
      "hash": "6ef60ead3e8ec35e2e54b0cc2e27f095b49e4d967e3bca7fb50c99a055fc798a",
      "version": 1,
      "size": 135,
      "vsize": 135,
      "weight": 540,
      "locktime": 0,
      "vin": [
        {
          "coinbase": "04ffff001d02c400",
          "sequence": 4294967295
        }
      ],
      "vout": [
        {
          "value": 50.0,
          "n": 0,
          "scriptPubKey": {
            "asm": "04f4f528e670ff7f2d68b5aa7e3b99e221dd38b5a1600540296b182c911ee0eb87e73bd09a77e6644f5b9247578928640ce739053bab0c6998a4c726de030b28a9 OP_CHECKSIG",
            "desc": "pk(04f4f528e670ff7f2d68b5aa7e3b99e221dd38b5a1600540296b182c911ee0eb87e73bd09a77e6644f5b9247578928640ce739053bab0c6998a4c726de030b28a9)#lm9pq0vu",
            "hex": "4104f4f528e670ff7f2d68b5aa7e3b99e221dd38b5a1600540296b182c911ee0eb87e73bd09a77e6644f5b9247578928640ce739053bab0c6998a4c726de030b28a9ac",
            "type": "pubkey"
          }
        }
      ],
      "hex": "01000000010000000000000000000000000000000000000000000000000000000000000000ffffffff0804ffff001d02c400ffffffff0100f2052a01000000434104f4f528e670ff7f2d68b5aa7e3b99e221dd38b5a1600540296b182c911ee0eb87e73bd09a77e6644f5b9247578928640ce739053bab0c6998a4c726de030b28a9ac00000000"
    }
  ]
}