{
  "hash": "000000005656e61d1e4a4b6b8db1e35cd3ba55aa5f4e026f91abaa0283ae93d0",
  "confirmations": 47783,
  "height": 5315,
  "version": 1,
  "versionHex": "00000001",
  "merkleroot": "beb80ee74fafa431227e678f296cdc5471eb7675bdab4f61552b586e60adb2b5",
  "time": 1235376791,
  "mediantime": 1235372033,
  "nonce": 3846798106,
  "bits": "1d00ffff",
  "difficulty": 1,
  "chainwork": "000000000000000000000000000000000000000000000000000014c414c414c4",
  "nTx": 1,
  "previousblockhash": "00000000ac1000fcac73e8009d583f15519eb86423d5b142352d661e763a58af",
  "nextblockhash": "00000000337ad9abadea27e4f1a0d2bbc91847a70e67a0aa254fc4b946a9ba32",
  "strippedsize": 216,
  "size": 216,
  "weight": 864,
  "tx": [
    {
      "txid": "beb80ee74fafa431227e678f296cdc5471eb7675bdab4f61552b586e60adb2b5",
      "hash": "beb80ee74fafa431227e678f296cdc5471eb7675bdab4f61552b586e60adb2b5",
      "version": 1,
      "size": 135,
      "vsize": 135,
      "weight": 540,
      "locktime": 0,
      "vin": [
        {
          "coinbase": "04ffff001d025202",
          "sequence": 4294967295
        }
      ],
      "vout": [
        {
          "value": 50.0,
          "n": 0,
          "scriptPubKey": {
            "asm": "04d6f29bc99fdfef1032ba18b3c55cd44bc5271ee566e01e36588586b298aff6e502453209b8cb833821c79ad12efd8666637c0af61eb05f5e266911d9e6aa5f51 OP_CHECKSIG",
            "desc": "pk(04d6f29bc99fdfef1032ba18b3c55cd44bc5271ee566e01e36588586b298aff6e502453209b8cb833821c79ad12efd8666637c0af61eb05f5e266911d9e6aa5f51)#lvvaywzv",
            "hex": "4104d6f29bc99fdfef1032ba18b3c55cd44bc5271ee566e01e36588586b298aff6e502453209b8cb833821c79ad12efd8666637c0af61eb05f5e266911d9e6aa5f51ac",
            "type": "pubkey"
          }
        }
      ],
      "hex": "01000000010000000000000000000000000000000000000000000000000000000000000000ffffffff0804ffff001d025202ffffffff0100f2052a01000000434104d6f29bc99fdfef1032ba18b3c55cd44bc5271ee566e01e36588586b298aff6e502453209b8cb833821c79ad12efd8666637c0af61eb05f5e266911d9e6aa5f51ac00000000"
    }
  ]
}