{
  "hash": "00000000a0fac1ecca01d1eb33ce4981634ee2de5b6ebd944988a5010b147359",
  "confirmations": 43463,
  "height": 9635,
  "version": 1,
  "versionHex": "00000001",
  "merkleroot": "2212c1309095d6a0ceaffe424df98f91459fbaa7bb152aee7cf6717aef61f920",
  "time": 1238728556,
  "mediantime": 1238724714,
  "nonce": 188910409,
  "bits": "1d00ffff",
  "difficulty": 1,
  "chainwork": "000000000000000000000000000000000000000000000000000025a425a425a4",
  "nTx": 1,
  "previousblockhash": "00000000260d5e479301d6f898e16ff58cf2e94da0ceb2f0c039eed791170d44",
  "nextblockhash": "000000007a6594c38dd63ed6fe9b0954eb0703350ee7a9f98a7fe82bf9abfaac",
  "strippedsize": 216,
  "size": 216,
  "weight": 864,
  "tx": [
    {
      "txid": "2212c1309095d6a0ceaffe424df98f91459fbaa7bb152aee7cf6717aef61f920",
      "hash": "2212c1309095d6a0ceaffe424df98f91459fbaa7bb152aee7cf6717aef61f920",
      "version": 1,
      "size": 135,
      "vsize": 135,
      "weight": 540,
      "locktime": 0,
      "vin": [
        {
          "coinbase": "04ffff001d02c100",
          "sequence": 4294967295
        }
      ],
      "vout": [
        {
          "value": 50.0,
          "n": 0,
          "scriptPubKey": {
            "asm": "046528e1b362db6b6b1d9684f696879c1d0dad399a42ab856059389177b704373fdc2aa4c0e0ed019c09e409c577f246cfdea57ec78bd09ecb87c6669b0966ee96 OP_CHECKSIG",
            "desc": "pk(046528e1b362db6b6b1d9684f696879c1d0dad399a42ab856059389177b704373fdc2aa4c0e0ed019c09e409c577f246cfdea57ec78bd09ecb87c6669b0966ee96)#5rtfsrk8",
            "hex": "41046528e1b362db6b6b1d9684f696879c1d0dad399a42ab856059389177b704373fdc2aa4c0e0ed019c09e409c577f246cfdea57ec78bd09ecb87c6669b0966ee96ac",
            "type": "pubkey"
          }
        }
      ],
      "hex": "01000000010000000000000000000000000000000000000000000000000000000000000000ffffffff0804ffff001d02c100ffffffff0100f2052a010000004341046528e1b362db6b6b1d9684f696879c1d0dad399a42ab856059389177b704373fdc2aa4c0e0ed019c09e409c577f246cfdea57ec78bd09ecb87c6669b0966ee96ac00000000"
    }
  ]
}