{
  "hash": "00000000a9dc56a107081fa2ba06472d8ba9972d656e9efc5ba1cccae44a900f",
  "confirmations": 43121,
  "height": 9977,
  "version": 1,
  "versionHex": "00000001",
  "merkleroot": "c64895e5fb598fbf6dac18b99a127c5c22889ec9e0ab1099ec6cd22d6da07097",
  "time": 1238975673,
  "mediantime": 1238972385,
  "nonce": 147414567,
  "bits": "1d00ffff",
  "difficulty": 1,
  "chainwork": "000000000000000000000000000000000000000000000000000026fa26fa26fa",
  "nTx": 1,
  "previousblockhash": "00000000e121394a2c06495516ca5c103328f4126c713ac0ef366412f7cba066",
  "nextblockhash": "000000007c2f2579d08b7400ebd4c113ab3ac8c42669b26599aa2f0c13eaa8ff",
  "strippedsize": 216,
  "size": 216,
  "weight": 864,
  "tx": [
    {
      "txid": "c64895e5fb598fbf6dac18b99a127c5c22889ec9e0ab1099ec6cd22d6da07097",
      "hash": "c64895e5fb598fbf6dac18b99a127c5c22889ec9e0ab1099ec6cd22d6da07097",
      "version": 1,
      "size": 135,
      "vsize": 135,
      "weight": 540,
      "locktime": 0,
      "vin": [
        {
          "coinbase": "04ffff001d021203",
          "sequence": 4294967295
        }
      ],
      "vout": [
        {
          "value": 50.0,
          "n": 0,
          "scriptPubKey": {
            "asm": "04767d2d9f91cccf89b52acc199d5a319988d8476afee993278f50f2d8a61429bb8fe696780ea5c8c55f66bc75ba7eaafbfe2561378377217d6644da7b4fcd487b OP_CHECKSIG",
            "desc": "pk(04767d2d9f91cccf89b52acc199d5a319988d8476afee993278f50f2d8a61429bb8fe696780ea5c8c55f66bc75ba7eaafbfe2561378377217d6644da7b4fcd487b)#h9fj4l0k",
            "hex": "4104767d2d9f91cccf89b52acc199d5a319988d8476afee993278f50f2d8a61429bb8fe696780ea5c8c55f66bc75ba7eaafbfe2561378377217d6644da7b4fcd487bac",
            "type": "pubkey"
          }
        }
      ],
      "hex": "01000000010000000000000000000000000000000000000000000000000000000000000000ffffffff0804ffff001d021203ffffffff0100f2052a01000000434104767d2d9f91cccf89b52acc199d5a319988d8476afee993278f50f2d8a61429bb8fe696780ea5c8c55f66bc75ba7eaafbfe2561378377217d6644da7b4fcd487bac00000000"
    }
  ]
}