{
  "hash": "000000007dc81a43d78ac2a6b7a21b99670e7cef083609a29098c181e97d06ae",
  "confirmations": 47163,
  "height": 5935,
  "version": 1,
  "versionHex": "00000001",
  "merkleroot": "8d47815e6bebb2e59af5971a69447d7156c1edce67e343fc6eba67f8c3c7c0b1",
  "time": 1235876548,
  "mediantime": 1235871496,
  "nonce": 1625839669,
  "bits": "1d00ffff",
  "difficulty": 1,
  "chainwork": "0000000000000000000000000000000000000000000000000000173017301730",
  "nTx": 1,
  "previousblockhash": "000000009556c08430fc765e27e484a187e728bb01cf1e83cce4c5576b11248d",
  "nextblockhash": "0000000083f3b6ff05d6994814b2e9aba74f294635fd68a3155587c2a003a045",
  "strippedsize": 216,
  "size": 216,
  "weight": 864,
  "tx": [
    {
      "txid": "8d47815e6bebb2e59af5971a69447d7156c1edce67e343fc6eba67f8c3c7c0b1",
      "hash": "8d47815e6bebb2e59af5971a69447d7156c1edce67e343fc6eba67f8c3c7c0b1",
      "version": 1,
      "size": 135,
      "vsize": 135,
      "weight": 540,
      "locktime": 0,
      "vin": [
        {
          "coinbase": "04ffff001d02ce03",
          "sequence": 4294967295
        }
      ],
      "vout": [
        {
          "value": 50.0,
          "n": 0,
          "scriptPubKey": {
            "asm": "041d0cff759dccb2ab3761340641f8c5e376a3da062dc3ca83e0cc19ff340d921ff2732e90474685b870da8972954ba9cb8a7dae13f8a08d407a0e387766085a55 OP_CHECKSIG",
            "desc": "pk(041d0cff759dccb2ab3761340641f8c5e376a3da062dc3ca83e0cc19ff340d921ff2732e90474685b870da8972954ba9cb8a7dae13f8a08d407a0e387766085a55)#483qme7d",
            "hex": "41041d0cff759dccb2ab3761340641f8c5e376a3da062dc3ca83e0cc19ff340d921ff2732e90474685b870da8972954ba9cb8a7dae13f8a08d407a0e387766085a55ac",
            "type": "pubkey"
          }
        }
      ],
      "hex": "01000000010000000000000000000000000000000000000000000000000000000000000000ffffffff0804ffff001d02ce03ffffffff0100f2052a010000004341041d0cff759dccb2ab3761340641f8c5e376a3da062dc3ca83e0cc19ff340d921ff2732e90474685b870da8972954ba9cb8a7dae13f8a08d407a0e387766085a55ac00000000"
    }
  ]
}