{
  "hash": "0000000077aaae76b5696366b594ee59cc2137546365c1651cb610528b9dbc76",
  "confirmations": 47477,
  "height": 5621,
  "version": 1,
  "versionHex": "00000001",
  "merkleroot": "48e52d0e3cb448ff6097220e663604e76a778f861cadc297c0587b291b49d477",
  "time": 1235622006,
  "mediantime": 1235617182,
  "nonce": 2758332977,
  "bits": "1d00ffff",
  "difficulty": 1,
  "chainwork": "000000000000000000000000000000000000000000000000000015f615f615f6",
  "nTx": 1,
  "previousblockhash": "0000000020c385efb05bd1a41ad9b3f27bcbf7a323088f9498629049ede86097",
  "nextblockhash": "0000000015686e6d20976f90b363e6aea897c221d35b7e91a90bf94527adf546",
  "strippedsize": 216,
  "size": 216,
  "weight": 864,
  "tx": [
    {
      "txid": "48e52d0e3cb448ff6097220e663604e76a778f861cadc297c0587b291b49d477",
      "hash": "48e52d0e3cb448ff6097220e663604e76a778f861cadc297c0587b291b49d477",
      "version": 1,
      "size": 135,
      "vsize": 135,
      "weight": 540,
      "locktime": 0,
      "vin": [
        {
          "coinbase": "04ffff001d021708",
          "sequence": 4294967295
        }
      ],
      "vout": [
        {
          "value": 50.0,
          "n": 0,
          "scriptPubKey": {
            "asm": "04fd6a65c45ccdcc43ba383b878fd358580dd101d663fff90bd8e9751df14b2b05ce23bcab37b58e8cb899fa1e8e3f8fb2cffe15ca8e4b3fb2369386f54159cb9a OP_CHECKSIG",
            "desc": "pk(04fd6a65c45ccdcc43ba383b878fd358580dd101d663fff90bd8e9751df14b2b05ce23bcab37b58e8cb899fa1e8e3f8fb2cffe15ca8e4b3fb2369386f54159cb9a)#qtv4mme4",
            "hex": "4104fd6a65c45ccdcc43ba383b878fd358580dd101d663fff90bd8e9751df14b2b05ce23bcab37b58e8cb899fa1e8e3f8fb2cffe15ca8e4b3fb2369386f54159cb9aac",
            "type": "pubkey"
          }
        }
      ],
      "hex": "01000000010000000000000000000000000000000000000000000000000000000000000000ffffffff0804ffff001d021708ffffffff0100f2052a01000000434104fd6a65c45ccdcc43ba383b878fd358580dd101d663fff90bd8e9751df14b2b05ce23bcab37b58e8cb899fa1e8e3f8fb2cffe15ca8e4b3fb2369386f54159cb9aac00000000"
    }
  ]
}