{
  "hash": "00000000ba884fc8047c04bba7068f575e21d4cb953e1f52262a0454c98c5586",
  "confirmations": 52133,
  "height": 371,
  "version": 1,
  "versionHex": "00000001",
  "merkleroot": "1098da43c20a1e1bdcec45ba53d56460bfe85f4ccb2d63418cff7d18b70afb0d",
  "time": 1231880431,
  "mediantime": 1231876609,
  "nonce": 2085404168,
  "bits": "1d00ffff",
  "difficulty": 1,
  "chainwork": "0000000000000000000000000000000000000000000000000000017401740174",
  "nTx": 1,
  "previousblockhash": "00000000cad69daaae19df9068b0d4bc8d6999c63bd4fb067958bc8881ab7e5c",
  "nextblockhash": "000000002612c92d24f533bfc280284354cb4f561c91bfaec2932f6da4e8959b",
  "strippedsize": 216,
  "size": 216,
  "weight": 864,
  "tx": [
    {
      "txid": "1098da43c20a1e1bdcec45ba53d56460bfe85f4ccb2d63418cff7d18b70afb0d",
      "hash": "1098da43c20a1e1bdcec45ba53d56460bfe85f4ccb2d63418cff7d18b70afb0d",
      "version": 1,
      "size": 135,
      "vsize": 135,
      "weight": 540,
      "locktime": 0,
      "vin": [
        {
          "coinbase": "04ffff001d02e101",
          "sequence": 4294967295
        }
      ],
      "vout": [
        {
          "value": 50.0,
          "n": 0,
          "scriptPubKey": {
            "asm": "040e133c56150de35e1d2113c84c0f9990a18256b9841f26582dfaefe22f4a5c5e2442962c3d2826a2d0895453a7623558422c3fa341f3574b80eb63ae9e6bbca0 OP_CHECKSIG",
            "desc": "pk(040e133c56150de35e1d2113c84c0f9990a18256b9841f26582dfaefe22f4a5c5e2442962c3d2826a2d0895453a7623558422c3fa341f3574b80eb63ae9e6bbca0)#h7xk4j9u",
            "hex": "41040e133c56150de35e1d2113c84c0f9990a18256b9841f26582dfaefe22f4a5c5e2442962c3d2826a2d0895453a7623558422c3fa341f3574b80eb63ae9e6bbca0ac",
            "type": "pubkey"
          }
        }
      ],
      "hex": "01000000010000000000000000000000000000000000000000000000000000000000000000ffffffff0804ffff001d02e101ffffffff0100f2052a010000004341040e133c56150de35e1d2113c84c0f9990a18256b9841f26582dfaefe22f4a5c5e2442962c3d2826a2d0895453a7623558422c3fa341f3574b80eb63ae9e6bbca0ac00000000"
    }
  ]
}