{
  "hash": "000000008eb7d03e7f61712b56a5b21b258150d4334a488f4ba9aadd3250b780",
  "confirmations": 47936,
  "height": 5162,
  "version": 1,
  "versionHex": "00000001",
  "merkleroot": "8c99b6f4b9488ce0aae06513bc494c2b6e88a81664c75fdf48dc33bae10a0b0c",
  "time": 1235260453,
  "mediantime": 1235258092,
  "nonce": 2340712457,
  "bits": "1d00ffff",
  "difficulty": 1,
  "chainwork": "0000000000000000000000000000000000000000000000000000142b142b142b",
  "nTx": 1,
  "previousblockhash": "000000009de59ca8e81e609f370b879d5b819b19c42460ff5430ce556282f175",
  "nextblockhash": "000000003dc1c00b7d364fbdaf620be15e6d6d9f2ef6129e9569075460902f10",
  "strippedsize": 216,
  "size": 216,
  "weight": 864,
  "tx": [
    {
      "txid": "8c99b6f4b9488ce0aae06513bc494c2b6e88a81664c75fdf48dc33bae10a0b0c",
      "hash": "8c99b6f4b9488ce0aae06513bc494c2b6e88a81664c75fdf48dc33bae10a0b0c",
      "version": 1,
      "size": 135,
      "vsize": 135,
      "weight": 540,
      "locktime": 0,
      "vin": [
        {
          "coinbase": "04ffff001d02170a",
          "sequence": 4294967295
        }
      ],
      "vout": [
        {
          "value": 50.0,
          "n": 0,
          "scriptPubKey": {
            "asm": "042250026b60b488aede786447fb1d1403763a264677f400e2d9c07ee82c79740f416f5448390eb4addd0a1a7bb613ea37bfb3814e497ebf0b12d507ae0bfc0623 OP_CHECKSIG",
            "desc": "pk(042250026b60b488aede786447fb1d1403763a264677f400e2d9c07ee82c79740f416f5448390eb4addd0a1a7bb613ea37bfb3814e497ebf0b12d507ae0bfc0623)#phpvv4wx",
            "hex": "41042250026b60b488aede786447fb1d1403763a264677f400e2d9c07ee82c79740f416f5448390eb4addd0a1a7bb613ea37bfb3814e497ebf0b12d507ae0bfc0623ac",
            "type": "pubkey"
          }
        }
      ],
      "hex": "01000000010000000000000000000000000000000000000000000000000000000000000000ffffffff0804ffff001d02170affffffff0100f2052a010000004341042250026b60b488aede786447fb1d1403763a264677f400e2d9c07ee82c79740f416f5448390eb4addd0a1a7bb613ea37bfb3814e497ebf0b12d507ae0bfc0623ac00000000"
    }
  ]
}