{
  "hash": "0000000071859718e3c473a5b8dce1feccaca2e18320ec34daa5dd8943c3cca3",
  "confirmations": 47946,
  "height": 5152,
  "version": 1,
  "versionHex": "00000001",
  "merkleroot": "fcbc6ae3252d84b9729c491181e6d867eddbed1253dd6ad2ccb9c757610dfaba",
  "time": 1235254468,
  "mediantime": 1235250889,
  "nonce": 67651412,
  "bits": "1d00ffff",
  "difficulty": 1,
  "chainwork": "0000000000000000000000000000000000000000000000000000142114211421",
  "nTx": 1,
  "previousblockhash": "00000000c4988f2fb9916040b2dfc5a1d4b348561f9e15f972fb4529041a91ed",
  "nextblockhash": "00000000484ed3aeb7f32c789d72a730682cfc6a16fb1dfa8fd9cfddd60940dc",
  "strippedsize": 216,
  "size": 216,
  "weight": 864,
  "tx": [
    {
      "txid": "fcbc6ae3252d84b9729c491181e6d867eddbed1253dd6ad2ccb9c757610dfaba",
      "hash": "fcbc6ae3252d84b9729c491181e6d867eddbed1253dd6ad2ccb9c757610dfaba",
      "version": 1,
      "size": 135,
      "vsize": 135,
      "weight": 540,
      "locktime": 0,
      "vin": [
        {
          "coinbase": "04ffff001d02df05",
          "sequence": 4294967295
        }
      ],
      "vout": [
        {
          "value": 50.0,
          "n": 0,
          "scriptPubKey": {
            "asm": "0474c93ce4805738db0f13ac719c009f61e1d71655bbfba0f1a12ccbe2f9ec5c65159c0181fbabe5c634279230caae7ee9320c632346c749b9b083c164c595e168 OP_CHECKSIG",
            "desc": "pk(0474c93ce4805738db0f13ac719c009f61e1d71655bbfba0f1a12ccbe2f9ec5c65159c0181fbabe5c634279230caae7ee9320c632346c749b9b083c164c595e168)#a37ujqjw",
            "hex": "410474c93ce4805738db0f13ac719c009f61e1d71655bbfba0f1a12ccbe2f9ec5c65159c0181fbabe5c634279230caae7ee9320c632346c749b9b083c164c595e168ac",
            "type": "pubkey"
          }
        }
      ],
      "hex": "01000000010000000000000000000000000000000000000000000000000000000000000000ffffffff0804ffff001d02df05ffffffff0100f2052a0100000043410474c93ce4805738db0f13ac719c009f61e1d71655bbfba0f1a12ccbe2f9ec5c65159c0181fbabe5c634279230caae7ee9320c632346c749b9b083c164c595e168ac00000000"
    }
  ]
}