{
  "hash": "000000006f6700ecc8de8fec25bff8a5811ce3c382a3083ac2f069a6db48a460",
  "confirmations": 46109,
  "height": 6989,
  "version": 1,
  "versionHex": "00000001",
  "merkleroot": "d4adbfe96ee7c870e4dc385aaa64e21ea40575eb092dacb16acb9116ed7d032c",
  "time": 1236709875,
  "mediantime": 1236705144,
  "nonce": 1148390710,
  "bits": "1d00ffff",
  "difficulty": 1,
  "chainwork": "00000000000000000000000000000000000000000000000000001b4e1b4e1b4e",
  "nTx": 1,
  "previousblockhash": "00000000b74de1a2be68c5fa0b4306dbf13ef64acff69a62a9abb4957176e847",
  "nextblockhash": "00000000af7c66a4cd6362cfef8f2da17d976773dccb31c36b64dc4448e91590",
  "strippedsize": 216,
  "size": 216,
  "weight": 864,
  "tx": [
    {
      "txid": "d4adbfe96ee7c870e4dc385aaa64e21ea40575eb092dacb16acb9116ed7d032c",
      "hash": "d4adbfe96ee7c870e4dc385aaa64e21ea40575eb092dacb16acb9116ed7d032c",
      "version": 1,
      "size": 135,
      "vsize": 135,
      "weight": 540,
      "locktime": 0,
      "vin": [
        {
          "coinbase": "04ffff001d021302",
          "sequence": 4294967295
        }
      ],
      "vout": [
        {
          "value": 50.0,
          "n": 0,
          "scriptPubKey": {
            "asm": "045284132d1b0a88e360e2eafb4bd41add7f8e171c694cb4b935e031652a8fe8ed9b7e8247671b2dd5168d5eb71d6cec7b31e9331606b829a4c8c699c036e54b6f OP_CHECKSIG",
            "desc": "pk(045284132d1b0a88e360e2eafb4bd41add7f8e171c694cb4b935e031652a8fe8ed9b7e8247671b2dd5168d5eb71d6cec7b31e9331606b829a4c8c699c036e54b6f)#6cdh56s4",
            "hex": "41045284132d1b0a88e360e2eafb4bd41add7f8e171c694cb4b935e031652a8fe8ed9b7e8247671b2dd5168d5eb71d6cec7b31e9331606b829a4c8c699c036e54b6fac",
            "type": "pubkey"
          }
        }
      ],
      "hex": "01000000010000000000000000000000000000000000000000000000000000000000000000ffffffff0804ffff001d021302ffffffff0100f2052a010000004341045284132d1b0a88e360e2eafb4bd41add7f8e171c694cb4b935e031652a8fe8ed9b7e8247671b2dd5168d5eb71d6cec7b31e9331606b829a4c8c699c036e54b6fac00000000"
    }
  ]
}