{
  "hash": "0000000093cad29af9f1a453c1788d661e1f03973b3de7a5d9895b5089b3560c",
  "confirmations": 47560,
  "height": 5538,
  "version": 1,
  "versionHex": "00000001",
  "merkleroot": "2195f7f395c51f011d9fe8477e4c1402291db849f05a8b92afa673b65ce37848",
  "time": 1235551145,
  "mediantime": 1235546406,
  "nonce": 1363631386,
  "bits": "1d00ffff",
  "difficulty": 1,
  "chainwork": "000000000000000000000000000000000000000000000000000015a315a315a3",
  "nTx": 1,
  "previousblockhash": "00000000108e2d7ab83a34e3d4ab2eb807b9651370eec39ab33c3f52c897af4d",
  "nextblockhash": "000000009bfa84517289deee15509534073aec4d2f44f7be0e58fae9fa9165d8",
  "strippedsize": 216,
  "size": 216,
  "weight": 864,
  "tx": [
    {
      "txid": "2195f7f395c51f011d9fe8477e4c1402291db849f05a8b92afa673b65ce37848",
      "hash": "2195f7f395c51f011d9fe8477e4c1402291db849f05a8b92afa673b65ce37848",
      "version": 1,
      "size": 135,
      "vsize": 135,
      "weight": 540,
      "locktime": 0,
      "vin": [
        {
          "coinbase": "04ffff001d026106",
          "sequence": 4294967295
        }
      ],
      "vout": [
        {
          "value": 50.0,
          "n": 0,
          "scriptPubKey": {
            "asm": "049e389f1d04ca1b01431748404183b0e8556cccc2edc5e31a427466de23aee4af821b0c8a9afa45a8b16e6b313b9d813630fde8f0c4b9d0f513ec5aac86e7b23c OP_CHECKSIG",
            "desc": "pk(049e389f1d04ca1b01431748404183b0e8556cccc2edc5e31a427466de23aee4af821b0c8a9afa45a8b16e6b313b9d813630fde8f0c4b9d0f513ec5aac86e7b23c)#ewt25ku6",
            "hex": "41049e389f1d04ca1b01431748404183b0e8556cccc2edc5e31a427466de23aee4af821b0c8a9afa45a8b16e6b313b9d813630fde8f0c4b9d0f513ec5aac86e7b23cac",
            "type": "pubkey"
          }
        }
      ],
      "hex": "01000000010000000000000000000000000000000000000000000000000000000000000000ffffffff0804ffff001d026106ffffffff0100f2052a010000004341049e389f1d04ca1b01431748404183b0e8556cccc2edc5e31a427466de23aee4af821b0c8a9afa45a8b16e6b313b9d813630fde8f0c4b9d0f513ec5aac86e7b23cac00000000"
    }
  ]
}