{
  "hash": "00000000833cccbec543914a96b4994669205444c85d9e4f5268d808910b9696",
  "confirmations": 52036,
  "height": 193,
  "version": 1,
  "versionHex": "00000001",
  "merkleroot": "10470e2c3c443863ea2e84684f7f6021539f518d3246ad97125d348ea1a75964",
  "time": 1231747455,
  "mediantime": 1231744937,
  "nonce": 4006026267,
  "bits": "1d00ffff",
  "difficulty": 1,
  "chainwork": "000000000000000000000000000000000000000000000000000000c200c200c2",
  "nTx": 1,
  "previousblockhash": "000000000a35a6104f17dc5dedb6ef250ef412f4fbf67f5dd77f964aa1c10b36",
  "nextblockhash": "0000000095680bb7be29ad8e6838ccb3eb3af464b813ccf31b4ea717fcc93ee7",
  "strippedsize": 215,
  "size": 215,
  "weight": 860,
  "tx": [
    {
      "txid": "10470e2c3c443863ea2e84684f7f6021539f518d3246ad97125d348ea1a75964",
      "hash": "10470e2c3c443863ea2e84684f7f6021539f518d3246ad97125d348ea1a75964",
      "version": 1,
      "size": 134,
      "vsize": 134,
      "weight": 536,
      "locktime": 0,
      "vin": [
        {
          "coinbase": "04ffff001d010f",
          "sequence": 4294967295
        }
      ],
      "vout": [
        {
          "value": 50.0,
          "n": 0,
          "scriptPubKey": {
            "asm": "04a8cb399580117eb940d0fe7d1f7ec3f8bd0b13b9cc3d2e01df5072a000534f7713a7d57dc06e4538a62784688e83ec77a062cc2d404ac9f9a70774935edce4cb OP_CHECKSIG",
            "desc": "pk(04a8cb399580117eb940d0fe7d1f7ec3f8bd0b13b9cc3d2e01df5072a000534f7713a7d57dc06e4538a62784688e83ec77a062cc2d404ac9f9a70774935edce4cb)#an3dl35a",
            "hex": "4104a8cb399580117eb940d0fe7d1f7ec3f8bd0b13b9cc3d2e01df5072a000534f7713a7d57dc06e4538a62784688e83ec77a062cc2d404ac9f9a70774935edce4cbac",
            "type": "pubkey"
          }
        }
      ],
      "hex": "01000000010000000000000000000000000000000000000000000000000000000000000000ffffffff0704ffff001d010fffffffff0100f2052a01000000434104a8cb399580117eb940d0fe7d1f7ec3f8bd0b13b9cc3d2e01df5072a000534f7713a7d57dc06e4538a62784688e83ec77a062cc2d404ac9f9a70774935edce4cbac00000000"
    }
  ]
}