{
  "hash": "000000002372cb6ea0ea8053799c90a1377980a3560cc8d37abb2eb1817c0eaf",
  "confirmations": 49881,
  "height": 3217,
  "version": 1,
  "versionHex": "00000001",
  "merkleroot": "13fe88ae16b60b97b53bc2151b0672a0abe3f449c91e81d1b9ef1afaa45c76ec",
  "time": 1233913528,
  "mediantime": 1233909676,
  "nonce": 1453265718,
  "bits": "1d00ffff",
  "difficulty": 1,
  "chainwork": "00000000000000000000000000000000000000000000000000000c920c920c92",
  "nTx": 1,
  "previousblockhash": "00000000d0f0eaae29cb6081cd4e842668b59d638aed0355a0f67fd11e1d55f4",
  "nextblockhash": "00000000cbc60a6c6ea5ddedf0f029d5e62ead417fa74591cb48d1fd07cebcba",
  "strippedsize": 216,
  "size": 216,
  "weight": 864,
  "tx": [
    {
      "txid": "13fe88ae16b60b97b53bc2151b0672a0abe3f449c91e81d1b9ef1afaa45c76ec",
      "hash": "13fe88ae16b60b97b53bc2151b0672a0abe3f449c91e81d1b9ef1afaa45c76ec",
      "version": 1,
      "size": 135,
      "vsize": 135,
      "weight": 540,
      "locktime": 0,
      "vin": [
        {
          "coinbase": "04ffff001d020703",
          "sequence": 4294967295
        }
      ],
      "vout": [
        {
          "value": 50.0,
          "n": 0,
          "scriptPubKey": {
            "asm": "04dd8407a41b7eb4f97dabf07a668b289d309a015bd449dac0f5c8ac72bad5b7d75a5a5aacaa11635409b5b79eed4d7bbd9bcfecea0109623fd8efc31db52c34b1 OP_CHECKSIG",
            "desc": "pk(04dd8407a41b7eb4f97dabf07a668b289d309a015bd449dac0f5c8ac72bad5b7d75a5a5aacaa11635409b5b79eed4d7bbd9bcfecea0109623fd8efc31db52c34b1)#lvcq5uks",
            "hex": "4104dd8407a41b7eb4f97dabf07a668b289d309a015bd449dac0f5c8ac72bad5b7d75a5a5aacaa11635409b5b79eed4d7bbd9bcfecea0109623fd8efc31db52c34b1ac",
            "type": "pubkey"
          }
        }
      ],
      "hex": "01000000010000000000000000000000000000000000000000000000000000000000000000ffffffff0804ffff001d020703ffffffff0100f2052a01000000434104dd8407a41b7eb4f97dabf07a668b289d309a015bd449dac0f5c8ac72bad5b7d75a5a5aacaa11635409b5b79eed4d7bbd9bcfecea0109623fd8efc31db52c34b1ac00000000"
    }
  ]
}