{
  "hash": "0000000023b460fe30e798acb6e84814c8672e277305498f563c1eb213587b70",
  "confirmations": 49955,
  "height": 3143,
  "version": 1,
  "versionHex": "00000001",
  "merkleroot": "3bb5d1b756b59c9bbf8b3a0d4b3ca75626e6dc63effb1e90df5ed8b4ff5302ee",
  "time": 1233862678,
  "mediantime": 1233860585,
  "nonce": 3291487017,
  "bits": "1d00ffff",
  "difficulty": 1,
  "chainwork": "00000000000000000000000000000000000000000000000000000c480c480c48",
  "nTx": 1,
  "previousblockhash": "00000000d043f79aaf7c941940d42056f0709a592aa9354a2f65742078cfe33d",
  "nextblockhash": "000000000a7500e6d85b71ebdc936820644b2dbb1152c026fc5969f3d6942059",
  "strippedsize": 216,
  "size": 216,
  "weight": 864,
  "tx": [
    {
      "txid": "3bb5d1b756b59c9bbf8b3a0d4b3ca75626e6dc63effb1e90df5ed8b4ff5302ee",
      "hash": "3bb5d1b756b59c9bbf8b3a0d4b3ca75626e6dc63effb1e90df5ed8b4ff5302ee",
      "version": 1,
      "size": 135,
      "vsize": 135,
      "weight": 540,
      "locktime": 0,
      "vin": [
        {
          "coinbase": "04ffff001d02d301",
          "sequence": 4294967295
        }
      ],
      "vout": [
        {
          "value": 50.0,
          "n": 0,
          "scriptPubKey": {
            "asm": "0410163ad7306827a37796444aaee44de3320c1f8008bfbbc6b3a9ab1a4d5b09a57e41b24794622a4aaee05e73d69224d74553b020ce7585df418c475ebb3e915d OP_CHECKSIG",
            "desc": "pk(0410163ad7306827a37796444aaee44de3320c1f8008bfbbc6b3a9ab1a4d5b09a57e41b24794622a4aaee05e73d69224d74553b020ce7585df418c475ebb3e915d)#93fd39dw",
            "hex": "410410163ad7306827a37796444aaee44de3320c1f8008bfbbc6b3a9ab1a4d5b09a57e41b24794622a4aaee05e73d69224d74553b020ce7585df418c475ebb3e915dac",
            "type": "pubkey"
          }
        }
      ],
      "hex": "01000000010000000000000000000000000000000000000000000000000000000000000000ffffffff0804ffff001d02d301ffffffff0100f2052a0100000043410410163ad7306827a37796444aaee44de3320c1f8008bfbbc6b3a9ab1a4d5b09a57e41b24794622a4aaee05e73d69224d74553b020ce7585df418c475ebb3e915dac00000000"
    }
  ]
}