{
  "hash": "000000008d708e0a2b7e7694904ba14bbd1eb534c507742e4d5b32d9d2729eac",
  "confirmations": 49493,
  "height": 3605,
  "version": 1,
  "versionHex": "00000001",
  "merkleroot": "2953873643eb2668bfcb8297671c1c5aa332f74e5712cfc5dd4feb88f43bd7bb",
  "time": 1234175423,
  "mediantime": 1234172560,
  "nonce": 943988773,
  "bits": "1d00ffff",
  "difficulty": 1,
  "chainwork": "00000000000000000000000000000000000000000000000000000e160e160e16",
  "nTx": 1,
  "previousblockhash": "00000000183e1c9ac836aad5a5ee4013709ad415b6639ad1eff3f7db71dc0d66",
  "nextblockhash": "00000000785228f0d067057b286955caed37d7b57085adc9199f2412213c3b99",
  "strippedsize": 216,
  "size": 216,
  "weight": 864,
  "tx": [
    {
      "txid": "2953873643eb2668bfcb8297671c1c5aa332f74e5712cfc5dd4feb88f43bd7bb",
      "hash": "2953873643eb2668bfcb8297671c1c5aa332f74e5712cfc5dd4feb88f43bd7bb",
      "version": 1,
      "size": 135,
      "vsize": 135,
      "weight": 540,
      "locktime": 0,
      "vin": [
        {
          "coinbase": "04ffff001d02b808",
          "sequence": 4294967295
        }
      ],
      "vout": [
        {
          "value": 50.0,
          "n": 0,
          "scriptPubKey": {
            "asm": "04bf08d2feb414b0bffce4ef44e93b580d9515aa666691d626fa25f410446675e01a0a245ab2b863381574de2aa1627d9ca1441846efdbd670e3fae392e74dacaf OP_CHECKSIG",
            "desc": "pk(04bf08d2feb414b0bffce4ef44e93b580d9515aa666691d626fa25f410446675e01a0a245ab2b863381574de2aa1627d9ca1441846efdbd670e3fae392e74dacaf)#wj6z4fs9",
            "hex": "4104bf08d2feb414b0bffce4ef44e93b580d9515aa666691d626fa25f410446675e01a0a245ab2b863381574de2aa1627d9ca1441846efdbd670e3fae392e74dacafac",
            "type": "pubkey"
          }
        }
      ],
      "hex": "01000000010000000000000000000000000000000000000000000000000000000000000000ffffffff0804ffff001d02b808ffffffff0100f2052a01000000434104bf08d2feb414b0bffce4ef44e93b580d9515aa666691d626fa25f410446675e01a0a245ab2b863381574de2aa1627d9ca1441846efdbd670e3fae392e74dacafac00000000"
    }
  ]
}