{
  "hash": "00000000b4c3fa84b36a8e657b430901fcff19205a281f0e8a00e1cbad2f189d",
  "confirmations": 47339,
  "height": 5759,
  "version": 1,
  "versionHex": "00000001",
  "merkleroot": "2de7fa79c00e37273ff0801ad5260f9403d27670d703d0b99568955b564997f4",
  "time": 1235730535,
  "mediantime": 1235726503,
  "nonce": 441739296,
  "bits": "1d00ffff",
  "difficulty": 1,
  "chainwork": "0000000000000000000000000000000000000000000000000000168016801680",
  "nTx": 1,
  "previousblockhash": "0000000015762864c8786d5a9d1917cf003c60eec9aa620d7485bc2abb1e5ac8",
  "nextblockhash": "00000000cb6837d0f4a6a7e8dc60012b3dbfb741166685b10798f2c5eea2224d",
  "strippedsize": 215,
  "size": 215,
  "weight": 860,
  "tx": [
    {
      "txid": "2de7fa79c00e37273ff0801ad5260f9403d27670d703d0b99568955b564997f4",
      "hash": "2de7fa79c00e37273ff0801ad5260f9403d27670d703d0b99568955b564997f4",
      "version": 1,
      "size": 134,
      "vsize": 134,
      "weight": 536,
      "locktime": 0,
      "vin": [
        {
          "coinbase": "04ffff001d012b",
          "sequence": 4294967295
        }
      ],
      "vout": [
        {
          "value": 50.0,
          "n": 0,
          "scriptPubKey": {
            "asm": "0405feb0e0a980dde014cbd49a2d91d5fc940144c354b92eb71bdcc141814e65c98235ac6e1d31b453febc16105e02e81e222d3fa0b3f016c0df5140d886e916ae OP_CHECKSIG",
            "desc": "pk(0405feb0e0a980dde014cbd49a2d91d5fc940144c354b92eb71bdcc141814e65c98235ac6e1d31b453febc16105e02e81e222d3fa0b3f016c0df5140d886e916ae)#qxlap4cm",
            "hex": "410405feb0e0a980dde014cbd49a2d91d5fc940144c354b92eb71bdcc141814e65c98235ac6e1d31b453febc16105e02e81e222d3fa0b3f016c0df5140d886e916aeac",
            "type": "pubkey"
          }
        }
      ],
      "hex": "01000000010000000000000000000000000000000000000000000000000000000000000000ffffffff0704ffff001d012bffffffff0100f2052a0100000043410405feb0e0a980dde014cbd49a2d91d5fc940144c354b92eb71bdcc141814e65c98235ac6e1d31b453febc16105e02e81e222d3fa0b3f016c0df5140d886e916aeac00000000"
    }
  ]
}