{
  "hash": "0000000073209dbb492f207b6d8d49e4a4eda057279759af3b87d79a33ee16d6",
  "confirmations": 46682,
  "height": 6416,
  "version": 1,
  "versionHex": "00000001",
  "merkleroot": "95607289cda3e168018e800631b0c2cde240bceb5b12d2b5c2fac2e97284cff7",
  "time": 1236268729,
  "mediantime": 1236264997,
  "nonce": 4238397464,
  "bits": "1d00ffff",
  "difficulty": 1,
  "chainwork": "0000000000000000000000000000000000000000000000000000191119111911",
  "nTx": 1,
  "previousblockhash": "000000001ba119a0f6d49ebabd83343b125d7ee3d3184b1b41d6a7f2051153eb",
  "nextblockhash": "000000008a0521aecef14afd335a0a29309d86fbb2eaaef968977e7a962a810e",
  "strippedsize": 216,
  "size": 216,
  "weight": 864,
  "tx": [
    {
      "txid": "95607289cda3e168018e800631b0c2cde240bceb5b12d2b5c2fac2e97284cff7",
      "hash": "95607289cda3e168018e800631b0c2cde240bceb5b12d2b5c2fac2e97284cff7",
      "version": 1,
      "size": 135,
      "vsize": 135,
      "weight": 540,
      "locktime": 0,
      "vin": [
        {
          "coinbase": "04ffff001d022202",
          "sequence": 4294967295
        }
      ],
      "vout": [
        {
          "value": 50.0,
          "n": 0,
          "scriptPubKey": {
            "asm": "04e3639dcb1fb85c89780c8c84b17d2b779a495e8f21a5d6951d9387a2373fd91188ec3db0a468ae5e487504b22678f4f4b5d7bae7f191159c6f342ce974d2a53c OP_CHECKSIG",
            "desc": "pk(04e3639dcb1fb85c89780c8c84b17d2b779a495e8f21a5d6951d9387a2373fd91188ec3db0a468ae5e487504b22678f4f4b5d7bae7f191159c6f342ce974d2a53c)#j3g48luj",
            "hex": "4104e3639dcb1fb85c89780c8c84b17d2b779a495e8f21a5d6951d9387a2373fd91188ec3db0a468ae5e487504b22678f4f4b5d7bae7f191159c6f342ce974d2a53cac",
            "type": "pubkey"
          }
        }
      ],
      "hex": "01000000010000000000000000000000000000000000000000000000000000000000000000ffffffff0804ffff001d022202ffffffff0100f2052a01000000434104e3639dcb1fb85c89780c8c84b17d2b779a495e8f21a5d6951d9387a2373fd91188ec3db0a468ae5e487504b22678f4f4b5d7bae7f191159c6f342ce974d2a53cac00000000"
    }
  ]
}