{
  "hash": "00000000d43b85a4b11117fb10fb65640cbd2e9df0152547c6828157f03a663c",
  "confirmations": 46418,
  "height": 6680,
  "version": 1,
  "versionHex": "00000001",
  "merkleroot": "2b788593482ea455d89cd2c193a348ae7f193ae37cabcb21b64fba5d64639b55",
  "time": 1236467988,
  "mediantime": 1236464442,
  "nonce": 2846385158,
  "bits": "1d00ffff",
  "difficulty": 1,
  "chainwork": "00000000000000000000000000000000000000000000000000001a191a191a19",
  "nTx": 1,
  "previousblockhash": "00000000ec07b4e2be975a5273093b9a5a09a855dc35607cf090f7188b48b0e6",
  "nextblockhash": "00000000230110ed88fa279e1010c73ab127db68f71c30c56ec948fa4285e38c",
  "strippedsize": 216,
  "size": 216,
  "weight": 864,
  "tx": [
    {
      "txid": "2b788593482ea455d89cd2c193a348ae7f193ae37cabcb21b64fba5d64639b55",
      "hash": "2b788593482ea455d89cd2c193a348ae7f193ae37cabcb21b64fba5d64639b55",
      "version": 1,
      "size": 135,
      "vsize": 135,
      "weight": 540,
      "locktime": 0,
      "vin": [
        {
          "coinbase": "04ffff001d029b06",
          "sequence": 4294967295
        }
      ],
      "vout": [
        {
          "value": 50.0,
          "n": 0,
          "scriptPubKey": {
            "asm": "04292112ac226a4b4fd369486490f90f779c34a243166dbafa434fcb6e1191877adcacd4c3cbb8c2259fb076b1adf3d11c12baa3f1abe2e63ea4accb63e79a6e98 OP_CHECKSIG",
            "desc": "pk(04292112ac226a4b4fd369486490f90f779c34a243166dbafa434fcb6e1191877adcacd4c3cbb8c2259fb076b1adf3d11c12baa3f1abe2e63ea4accb63e79a6e98)#4e7adzh4",
            "hex": "4104292112ac226a4b4fd369486490f90f779c34a243166dbafa434fcb6e1191877adcacd4c3cbb8c2259fb076b1adf3d11c12baa3f1abe2e63ea4accb63e79a6e98ac",
            "type": "pubkey"
          }
        }
      ],
      "hex": "01000000010000000000000000000000000000000000000000000000000000000000000000ffffffff0804ffff001d029b06ffffffff0100f2052a01000000434104292112ac226a4b4fd369486490f90f779c34a243166dbafa434fcb6e1191877adcacd4c3cbb8c2259fb076b1adf3d11c12baa3f1abe2e63ea4accb63e79a6e98ac00000000"
    }
  ]
}