{
  "hash": "000000002b870b7d6259bc5444aa77e781c9fc776533936419b4b6548fed6162",
  "confirmations": 52119,
  "height": 979,
  "version": 1,
  "versionHex": "00000001",
  "merkleroot": "4862731ba92273eb20dda278569b894003fd4e18a90c584a08b8bdb687431aae",
  "time": 1232334078,
  "mediantime": 1232329529,
  "nonce": 238948539,
  "bits": "1d00ffff",
  "difficulty": 1,
  "chainwork": "000000000000000000000000000000000000000000000000000003d403d403d4",
  "nTx": 1,
  "previousblockhash": "00000000dc3c50f11736dae2b2a81a2879eab4045af9cec59d359ac1a84927d9",
  "nextblockhash": "00000000597a88a69db95f4d27a4f4438041770ece5eeb66642bee1e95a81ad7",
  "strippedsize": 216,
  "size": 216,
  "weight": 864,
  "tx": [
    {
      "txid": "4862731ba92273eb20dda278569b894003fd4e18a90c584a08b8bdb687431aae",
      "hash": "4862731ba92273eb20dda278569b894003fd4e18a90c584a08b8bdb687431aae",
      "version": 1,
      "size": 135,
      "vsize": 135,
      "weight": 540,
      "locktime": 0,
      "vin": [
        {
          "coinbase": "04ffff001d02b200",
          "sequence": 4294967295
        }
      ],
      "vout": [
        {
          "value": 50.0,
          "n": 0,
          "scriptPubKey": {
            "asm": "0431622779a7d1dd98a81f189cd27e0c5d0fb6ebb2cdaa5cae0db5e732037e4c6cb872568a94bcf6c650ad0ac6d555246143faf74a96c56abde3288dc295991898 OP_CHECKSIG",
            "desc": "pk(0431622779a7d1dd98a81f189cd27e0c5d0fb6ebb2cdaa5cae0db5e732037e4c6cb872568a94bcf6c650ad0ac6d555246143faf74a96c56abde3288dc295991898)#ahzexks6",
            "hex": "410431622779a7d1dd98a81f189cd27e0c5d0fb6ebb2cdaa5cae0db5e732037e4c6cb872568a94bcf6c650ad0ac6d555246143faf74a96c56abde3288dc295991898ac",
            "type": "pubkey"
          }
        }
      ],
      "hex": "01000000010000000000000000000000000000000000000000000000000000000000000000ffffffff0804ffff001d02b200ffffffff0100f2052a0100000043410431622779a7d1dd98a81f189cd27e0c5d0fb6ebb2cdaa5cae0db5e732037e4c6cb872568a94bcf6c650ad0ac6d555246143faf74a96c56abde3288dc295991898ac00000000"
    }
  ]
}