{
  "hash": "00000000f8a3dc320d2d25b3af077a137df315e1144f08be3cd68460906b2c0b",
  "confirmations": 47062,
  "height": 6036,
  "version": 1,
  "versionHex": "00000001",
  "merkleroot": "b928048f5f5b43ed66d8932b41b687a829a9533f3a504ae75bf1002ef431c1a1",
  "time": 1235957599,
  "mediantime": 1235954147,
  "nonce": 62668870,
  "bits": "1d00ffff",
  "difficulty": 1,
  "chainwork": "0000000000000000000000000000000000000000000000000000179517951795",
  "nTx": 1,
  "previousblockhash": "0000000097f8cc004ec6223f882678fe354bb73895e5fd92b1e997bcb5a3dc0b",
  "nextblockhash": "000000002cf733ab92a73270c13472e9948737a0cb42a3d4d8364b92e2651560",
  "strippedsize": 216,
  "size": 216,
  "weight": 864,
  "tx": [
    {
      "txid": "b928048f5f5b43ed66d8932b41b687a829a9533f3a504ae75bf1002ef431c1a1",
      "hash": "b928048f5f5b43ed66d8932b41b687a829a9533f3a504ae75bf1002ef431c1a1",
      "version": 1,
      "size": 135,
      "vsize": 135,
      "weight": 540,
      "locktime": 0,
      "vin": [
        {
          "coinbase": "04ffff001d025909",
          "sequence": 4294967295
        }
      ],
      "vout": [
        {
          "value": 50.0,
          "n": 0,
          "scriptPubKey": {
            "asm": "043ebab95718a972d2707045d84a28696ac181f704eb3670261927d944e056e33d2ad7ad141862413c160951409af3cd610042d229a605ab24e743969911d06ecd OP_CHECKSIG",
            "desc": "pk(043ebab95718a972d2707045d84a28696ac181f704eb3670261927d944e056e33d2ad7ad141862413c160951409af3cd610042d229a605ab24e743969911d06ecd)#4ds507hs",
            "hex": "41043ebab95718a972d2707045d84a28696ac181f704eb3670261927d944e056e33d2ad7ad141862413c160951409af3cd610042d229a605ab24e743969911d06ecdac",
            "type": "pubkey"
          }
        }
      ],
      "hex": "01000000010000000000000000000000000000000000000000000000000000000000000000ffffffff0804ffff001d025909ffffffff0100f2052a010000004341043ebab95718a972d2707045d84a28696ac181f704eb3670261927d944e056e33d2ad7ad141862413c160951409af3cd610042d229a605ab24e743969911d06ecdac00000000"
    }
  ]
}