{
  "hash": "00000000f079868ed92cd4e7b7f50a5f8a2bb459ab957dd5402af7be7bd8ea6b",
  "confirmations": 52210,
  "height": 408,
  "version": 1,
  "versionHex": "00000001",
  "merkleroot": "fcb92c7d90a54b009c3707fabf8d833f1e6544dc51121576cf497060cdd7e6a9",
  "time": 1231907948,
  "mediantime": 1231903835,
  "nonce": 3653390900,
  "bits": "1d00ffff",
  "difficulty": 1,
  "chainwork": "0000000000000000000000000000000000000000000000000000019901990199",
  "nTx": 1,
  "previousblockhash": "000000009df396001cae68e4bbd0d1073e9056e82794a0c1c1c850e6c9d8372d",
  "nextblockhash": "000000005ab5baa8ca1a5343bb7d84a5ef42e31b91a2e673137654d689881b27",
  "strippedsize": 216,
  "size": 216,
  "weight": 864,
  "tx": [
    {
      "txid": "fcb92c7d90a54b009c3707fabf8d833f1e6544dc51121576cf497060cdd7e6a9",
      "hash": "fcb92c7d90a54b009c3707fabf8d833f1e6544dc51121576cf497060cdd7e6a9",
      "version": 1,
      "size": 135,
      "vsize": 135,
      "weight": 540,
      "locktime": 0,
      "vin": [
        {
          "coinbase": "04ffff001d02bb02",
          "sequence": 4294967295
        }
      ],
      "vout": [
        {
          "value": 50.0,
          "n": 0,
          "scriptPubKey": {
            "asm": "04eac173e68d186a1b0e7576d9e2a5f600141a3693d428ed185b9d7acd6c50ba41d806d44d59a3212f633adc992c1d008066095c97e16de789f7c4c3f9f8e282c6 OP_CHECKSIG",
            "desc": "pk(04eac173e68d186a1b0e7576d9e2a5f600141a3693d428ed185b9d7acd6c50ba41d806d44d59a3212f633adc992c1d008066095c97e16de789f7c4c3f9f8e282c6)#r0hfeut6",
            "hex": "4104eac173e68d186a1b0e7576d9e2a5f600141a3693d428ed185b9d7acd6c50ba41d806d44d59a3212f633adc992c1d008066095c97e16de789f7c4c3f9f8e282c6ac",
            "type": "pubkey"
          }
        }
      ],
      "hex": "01000000010000000000000000000000000000000000000000000000000000000000000000ffffffff0804ffff001d02bb02ffffffff0100f2052a01000000434104eac173e68d186a1b0e7576d9e2a5f600141a3693d428ed185b9d7acd6c50ba41d806d44d59a3212f633adc992c1d008066095c97e16de789f7c4c3f9f8e282c6ac00000000"
    }
  ]
}