{
  "hash": "0000000094f20fb6a309b8d5686a13a9cd3fdcddac1a52e5b7c5660e560cf1b1",
  "confirmations": 45897,
  "height": 7201,
  "version": 1,
  "versionHex": "00000001",
  "merkleroot": "8e482e27449b468a468439d2aae9b0602b572319646c2978ba0911d31b4d921c",
  "time": 1236871284,
  "mediantime": 1236866232,
  "nonce": 1950448426,
  "bits": "1d00ffff",
  "difficulty": 1,
  "chainwork": "00000000000000000000000000000000000000000000000000001c221c221c22",
  "nTx": 1,
  "previousblockhash": "000000004418cd7e82b76420e68870d9200d1deeaa334e5733a41a348fd948b1",
  "nextblockhash": "00000000c100f071cbc58a957bf94adf2f04b3162c77637de0bd8918b4ae418a",
  "strippedsize": 216,
  "size": 216,
  "weight": 864,
  "tx": [
    {
      "txid": "8e482e27449b468a468439d2aae9b0602b572319646c2978ba0911d31b4d921c",
      "hash": "8e482e27449b468a468439d2aae9b0602b572319646c2978ba0911d31b4d921c",
      "version": 1,
      "size": 135,
      "vsize": 135,
      "weight": 540,
      "locktime": 0,
      "vin": [
        {
          "coinbase": "04ffff001d02bb05",
          "sequence": 4294967295
        }
      ],
      "vout": [
        {
          "value": 50.0,
          "n": 0,
          "scriptPubKey": {
            "asm": "04b30956c8f642f97556a99293103fe64bcb46351462dfdb6e6f7739f1a7eae17cd05bf1f484233ec3f55232c07b7ce375be4bdff1fef57fb3c6592d0c1de6bafc OP_CHECKSIG",
            "desc": "pk(04b30956c8f642f97556a99293103fe64bcb46351462dfdb6e6f7739f1a7eae17cd05bf1f484233ec3f55232c07b7ce375be4bdff1fef57fb3c6592d0c1de6bafc)#hmdwvkuw",
            "hex": "4104b30956c8f642f97556a99293103fe64bcb46351462dfdb6e6f7739f1a7eae17cd05bf1f484233ec3f55232c07b7ce375be4bdff1fef57fb3c6592d0c1de6bafcac",
            "type": "pubkey"
          }
        }
      ],
      "hex": "01000000010000000000000000000000000000000000000000000000000000000000000000ffffffff0804ffff001d02bb05ffffffff0100f2052a01000000434104b30956c8f642f97556a99293103fe64bcb46351462dfdb6e6f7739f1a7eae17cd05bf1f484233ec3f55232c07b7ce375be4bdff1fef57fb3c6592d0c1de6bafcac00000000"
    }
  ]
}