{
  "hash": "000000000ce977110c4d11b875c77117a4b0c75fc26df4499cbead8b099e817c",
  "confirmations": 50756,
  "height": 2342,
  "version": 1,
  "versionHex": "00000001",
  "merkleroot": "72e5c191c84714da8f6da8cf72518f394f530b831e42ef0e91ede7062c97aa1a",
  "time": 1233310882,
  "mediantime": 1233307475,
  "nonce": 1506771476,
  "bits": "1d00ffff",
  "difficulty": 1,
  "chainwork": "0000000000000000000000000000000000000000000000000000092709270927",
  "nTx": 1,
  "previousblockhash": "0000000011c0a69f3063cf4fb95ac340e2557e57463f71817e7c2b6cf8c356b4",
  "nextblockhash": "00000000b80e4b633d6baea4db23cebf406dddaade5f79867bf5aeffb0b7453a",
  "strippedsize": 216,
  "size": 216,
  "weight": 864,
  "tx": [
    {
      "txid": "72e5c191c84714da8f6da8cf72518f394f530b831e42ef0e91ede7062c97aa1a",
      "hash": "72e5c191c84714da8f6da8cf72518f394f530b831e42ef0e91ede7062c97aa1a",
      "version": 1,
      "size": 135,
      "vsize": 135,
      "weight": 540,
      "locktime": 0,
      "vin": [
        {
          "coinbase": "04ffff001d028c02",
          "sequence": 4294967295
        }
      ],
      "vout": [
        {
          "value": 50.0,
          "n": 0,
          "scriptPubKey": {
            "asm": "040ee4da69fd9cd1b4b5f8e5ab840b669ad2b7024884888ef5024df69722a76829ffc33018262eec73e2643884f8d633e108a824016504990d55ccf12a5c616207 OP_CHECKSIG",
            "desc": "pk(040ee4da69fd9cd1b4b5f8e5ab840b669ad2b7024884888ef5024df69722a76829ffc33018262eec73e2643884f8d633e108a824016504990d55ccf12a5c616207)#mpggn688",
            "hex": "41040ee4da69fd9cd1b4b5f8e5ab840b669ad2b7024884888ef5024df69722a76829ffc33018262eec73e2643884f8d633e108a824016504990d55ccf12a5c616207ac",
            "type": "pubkey"
          }
        }
      ],
      "hex": "01000000010000000000000000000000000000000000000000000000000000000000000000ffffffff0804ffff001d028c02ffffffff0100f2052a010000004341040ee4da69fd9cd1b4b5f8e5ab840b669ad2b7024884888ef5024df69722a76829ffc33018262eec73e2643884f8d633e108a824016504990d55ccf12a5c616207ac00000000"
    }
  ]
}