{
  "hash": "00000000fe2351603896e6e3949ec34bd4abd89af022c8f312b943b542d1f717",
  "confirmations": 51285,
  "height": 1813,
  "version": 1,
  "versionHex": "00000001",
  "merkleroot": "3520af279d508fd85982bd27341329d0d708e4004cb0d8ed74ed163091d5f435",
  "time": 1232905818,
  "mediantime": 1232903032,
  "nonce": 1164058156,
  "bits": "1d00ffff",
  "difficulty": 1,
  "chainwork": "0000000000000000000000000000000000000000000000000000071607160716",
  "nTx": 1,
  "previousblockhash": "00000000089b370bfcd7018fbfc74f0269d4c658c7be88fefbf678202b1ed0ad",
  "nextblockhash": "00000000d4a3016ed192bb889ac5e9b785751dadcc96272d23f839bb4916841e",
  "strippedsize": 216,
  "size": 216,
  "weight": 864,
  "tx": [
    {
      "txid": "3520af279d508fd85982bd27341329d0d708e4004cb0d8ed74ed163091d5f435",
      "hash": "3520af279d508fd85982bd27341329d0d708e4004cb0d8ed74ed163091d5f435",
      "version": 1,
      "size": 135,
      "vsize": 135,
      "weight": 540,
      "locktime": 0,
      "vin": [
        {
          "coinbase": "04ffff001d024b04",
          "sequence": 4294967295
        }
      ],
      "vout": [
        {
          "value": 50.0,
          "n": 0,
          "scriptPubKey": {
            "asm": "04c644dd6a13ad066efa8db9929dfb3b9149478c707b7dbc91a46191e72e3b9519ab9b806e1cc55fc3a451e5f953f55ee31d02ff2b7acf388ae4c8717447c53b9d OP_CHECKSIG",
            "desc": "pk(04c644dd6a13ad066efa8db9929dfb3b9149478c707b7dbc91a46191e72e3b9519ab9b806e1cc55fc3a451e5f953f55ee31d02ff2b7acf388ae4c8717447c53b9d)#9c2r07nu",
            "hex": "4104c644dd6a13ad066efa8db9929dfb3b9149478c707b7dbc91a46191e72e3b9519ab9b806e1cc55fc3a451e5f953f55ee31d02ff2b7acf388ae4c8717447c53b9dac",
            "type": "pubkey"
          }
        }
      ],
      "hex": "01000000010000000000000000000000000000000000000000000000000000000000000000ffffffff0804ffff001d024b04ffffffff0100f2052a01000000434104c644dd6a13ad066efa8db9929dfb3b9149478c707b7dbc91a46191e72e3b9519ab9b806e1cc55fc3a451e5f953f55ee31d02ff2b7acf388ae4c8717447c53b9dac00000000"
    }
  ]
}