{
  "hash": "000000004fc6144f97ebfefb30ab69bc608bedd3fdb3781cfe9d7a629f6a01f3",
  "confirmations": 49162,
  "height": 3936,
  "version": 1,
  "versionHex": "00000001",
  "merkleroot": "86ab6b251e5062fed29c0e41ea434e49015711cd1fbd745e4fd7f4e9b1617e0e",
  "time": 1234395168,
  "mediantime": 1234393319,
  "nonce": 4096923448,
  "bits": "1d00ffff",
  "difficulty": 1,
  "chainwork": "00000000000000000000000000000000000000000000000000000f610f610f61",
  "nTx": 2,
  "previousblockhash": "00000000b96067602b148cc8dffc397e26bdc93b64a48fdb75854065d88e5726",
  "nextblockhash": "000000000b28be83284a4c6fc88261b9266be87c6a2c6df4d60eec11d78202b1",
  "strippedsize": 754,
  "size": 754,
  "weight": 3016,
  "tx": [
    {
      "txid": "2ba3e55e31ad490d83acbccfdd9433af4c32cd7ab70247a6ed254a3cc7366ec6",
      "hash": "2ba3e55e31ad490d83acbccfdd9433af4c32cd7ab70247a6ed254a3cc7366ec6",
      "version": 1,
      "size": 135,
      "vsize": 135,
      "weight": 540,
      "locktime": 0,
      "vin": [
        {
          "coinbase": "04ffff001d025a03",
          "sequence": 4294967295
        }
      ],
      "vout": [
        {
          "value": 50.0,
          "n": 0,
          "scriptPubKey": {
            "asm": "049cc5f3e816538dd4c44a30b184df07a69e698c1593d707d52b2bd48845246a6e3f35d9cc131923212b5b5f661e95df3e0ecb900ff9c25682ca24a8b938ba9937 OP_CHECKSIG",
            "desc": "pk(049cc5f3e816538dd4c44a30b184df07a69e698c1593d707d52b2bd48845246a6e3f35d9cc131923212b5b5f661e95df3e0ecb900ff9c25682ca24a8b938ba9937)#zeyer4mc",
            "hex": "41049cc5f3e816538dd4c44a30b184df07a69e698c1593d707d52b2bd48845246a6e3f35d9cc131923212b5b5f661e95df3e0ecb900ff9c25682ca24a8b938ba9937ac",
            "type": "pubkey"
          }
        }
      ],
      "hex": "01000000010000000000000000000000000000000000000000000000000000000000000000ffffffff0804ffff001d025a03ffffffff0100f2052a010000004341049cc5f3e816538dd4c44a30b184df07a69e698c1593d707d52b2bd48845246a6e3f35d9cc131923212b5b5f661e95df3e0ecb900ff9c25682ca24a8b938ba9937ac00000000"
    },
    {
      "txid": "3800f07be0bf44a9a409f9273f14e086d314519a21e7b83e81e46b6b4ec188d0",
      "hash": "3800f07be0bf44a9a409f9273f14e086d314519a21e7b83e81e46b6b4ec188d0",
      "version": 1,
      "size": 538,
      "vsize": 538,
      "weight": 2152,
      "locktime": 0,
      "vin": [
        {
          "txid": "6b94fd5d9a67b5466df9c864335d8e8de0b0ef1afccffec2752e9d39b32db876",
          "vout": 0,
          "scriptSig": {
            "asm": "304402201ae085efdfdfc2e5af457b1b09b0b7942f3c31536e9cb5474ec25623e35773800220313d094b3f1b24817bd272ba321448d9bf3611342e23ec0506745a7d6b55e00d[ALL]",
            "hex": "47304402201ae085efdfdfc2e5af457b1b09b0b7942f3c31536e9cb5474ec25623e35773800220313d094b3f1b24817bd272ba321448d9bf3611342e23ec0506745a7d6b55e00d01"
          },
          "sequence": 4294967295
        },
        {
          "txid": "ff6036b809a3a6c688d85f80f797a82d8e4f56f1b07f5b497972fc5ef285a489",
          "vout": 0,
          "scriptSig": {
            "asm": "304402203e3d30e2cc2eceb685449e37c5ec57ed150c0d80501db8f60e27b8966ceec0c502205f5acd7e1a67bd7a7508ce2712757d7569c17aa4f044a1b43d6cc80eb3d549fa[ALL]",
            "hex": "47304402203e3d30e2cc2eceb685449e37c5ec57ed150c0d80501db8f60e27b8966ceec0c502205f5acd7e1a67bd7a7508ce2712757d7569c17aa4f044a1b43d6cc80eb3d549fa01"
          },
          "sequence": 4294967295
        },
        {
          "txid": "0fa707099e31f9d418fbcb8db8b478e4c627e4b38133b84e965eb9852625e78a",
          "vout": 0,
          "scriptSig": {
            "asm": "304402202b59958fd065db593fc9591c0118cb217f66e84733929294885fb956fd99b29202205c201e05407aeec9f22f8f6a00891252baee6978a02d15ce899078e3d43d9279[ALL]",
            "hex": "47304402202b59958fd065db593fc9591c0118cb217f66e84733929294885fb956fd99b29202205c201e05407aeec9f22f8f6a00891252baee6978a02d15ce899078e3d43d927901"
          },
          "sequence": 4294967295
        },
        {
          "txid": "1f9e99143b3bcf14e1c3f246999f354eac3516153029f1019821b00fe8f6a5dd",
          "vout": 0,
          "scriptSig": {
            "asm": "304402200b1fc8a05bd999a3627800ad2a690e976d80364a79075445706ec0dff60c66e40220367966b5615c273fbd0c76599ee2caf27b739929d1f20b6131eb99eaf5856d8c[ALL]",
            "hex": "47304402200b1fc8a05bd999a3627800ad2a690e976d80364a79075445706ec0dff60c66e40220367966b5615c273fbd0c76599ee2caf27b739929d1f20b6131eb99eaf5856d8c01"
          },
          "sequence": 4294967295
        }
      ],
      "vout": [
        {
          "value": 200.0,
          "n": 0,
          "scriptPubKey": {
            "asm": "04e0cf6bc38a040448bd1cd129ab1f1329b72c5ed70df4a032df7ce18a651126e441c903e8133e6c27240a6e9a004ab42ddc8f280df597e2a08081a7f50f906976 OP_CHECKSIG",
            "desc": "pk(04e0cf6bc38a040448bd1cd129ab1f1329b72c5ed70df4a032df7ce18a651126e441c903e8133e6c27240a6e9a004ab42ddc8f280df597e2a08081a7f50f906976)#2sspgasm",
            "hex": "4104e0cf6bc38a040448bd1cd129ab1f1329b72c5ed70df4a032df7ce18a651126e441c903e8133e6c27240a6e9a004ab42ddc8f280df597e2a08081a7f50f906976ac",
            "type": "pubkey"
          }
        }
      ],
      "fee": 0.0,
      "hex": "010000000476b82db3399d2e75c2fecffc1aefb0e08d8e5d3364c8f96d46b5679a5dfd946b000000004847304402201ae085efdfdfc2e5af457b1b09b0b7942f3c31536e9cb5474ec25623e35773800220313d094b3f1b24817bd272ba321448d9bf3611342e23ec0506745a7d6b55e00d01ffffffff89a485f25efc7279495b7fb0f1564f8e2da897f7805fd888c6a6a309b83660ff000000004847304402203e3d30e2cc2eceb685449e37c5ec57ed150c0d80501db8f60e27b8966ceec0c502205f5acd7e1a67bd7a7508ce2712757d7569c17aa4f044a1b43d6cc80eb3d549fa01ffffffff8ae7252685b95e964eb83381b3e427c6e478b4b88dcbfb18d4f9319e0907a70f000000004847304402202b59958fd065db593fc9591c0118cb217f66e84733929294885fb956fd99b29202205c201e05407aeec9f22f8f6a00891252baee6978a02d15ce899078e3d43d927901ffffffffdda5f6e80fb0219801f12930151635ac4e359f9946f2c3e114cf3b3b14999e1f000000004847304402200b1fc8a05bd999a3627800ad2a690e976d80364a79075445706ec0dff60c66e40220367966b5615c273fbd0c76599ee2caf27b739929d1f20b6131eb99eaf5856d8c01ffffffff0100c817a804000000434104e0cf6bc38a040448bd1cd129ab1f1329b72c5ed70df4a032df7ce18a651126e441c903e8133e6c27240a6e9a004ab42ddc8f280df597e2a08081a7f50f906976ac00000000"
    }
  ]
}