{
  "hash": "000000005e38bed10b2e89cb6511eeb6626e36b31f0cff3e6013daa485cf7191",
  "confirmations": 45938,
  "height": 7160,
  "version": 1,
  "versionHex": "00000001",
  "merkleroot": "3b56c9ab547f85b7800f1abfeed803a3979971394e74abbddd7e6fe71f0e2b2b",
  "time": 1236841927,
  "mediantime": 1236838418,
  "nonce": 1571279926,
  "bits": "1d00ffff",
  "difficulty": 1,
  "chainwork": "00000000000000000000000000000000000000000000000000001bf91bf91bf9",
  "nTx": 1,
  "previousblockhash": "000000000fb83bc7fc7af5ddf0ffa8c99d5a810de00c0ffcfd725cef238ee68f",
  "nextblockhash": "00000000e2257ecd0bc0f88328f98442e6ef7bf9424e7bf503f7aeb77727f5a5",
  "strippedsize": 216,
  "size": 216,
  "weight": 864,
  "tx": [
    {
      "txid": "3b56c9ab547f85b7800f1abfeed803a3979971394e74abbddd7e6fe71f0e2b2b",
      "hash": "3b56c9ab547f85b7800f1abfeed803a3979971394e74abbddd7e6fe71f0e2b2b",
      "version": 1,
      "size": 135,
      "vsize": 135,
      "weight": 540,
      "locktime": 0,
      "vin": [
        {
          "coinbase": "04ffff001d021005",
          "sequence": 4294967295
        }
      ],
      "vout": [
        {
          "value": 50.0,
          "n": 0,
          "scriptPubKey": {
            "asm": "040047e8135c17d31c8f4a85100804527b1371fff3b910c2e49098f4294c0ad0d0fd273b553ffa8c04da50bb4c84abb98a2d7bb8f836539b05751e61bef68351f5 OP_CHECKSIG",
            "desc": "pk(040047e8135c17d31c8f4a85100804527b1371fff3b910c2e49098f4294c0ad0d0fd273b553ffa8c04da50bb4c84abb98a2d7bb8f836539b05751e61bef68351f5)#f3llj58v",
            "hex": "41040047e8135c17d31c8f4a85100804527b1371fff3b910c2e49098f4294c0ad0d0fd273b553ffa8c04da50bb4c84abb98a2d7bb8f836539b05751e61bef68351f5ac",
            "type": "pubkey"
          }
        }
      ],
      "hex": "01000000010000000000000000000000000000000000000000000000000000000000000000ffffffff0804ffff001d021005ffffffff0100f2052a010000004341040047e8135c17d31c8f4a85100804527b1371fff3b910c2e49098f4294c0ad0d0fd273b553ffa8c04da50bb4c84abb98a2d7bb8f836539b05751e61bef68351f5ac00000000"
    }
  ]
}