{
  "hash": "00000000cf6faaa863599e2e84c38c87ae48ab71b0d181a86921ec265a94aa1f",
  "confirmations": 52474,
  "height": 624,
  "version": 1,
  "versionHex": "00000001",
  "merkleroot": "3a7d34192888fd742d14184111316f8c1fa503a34c6b2fda82fe61fb51a10381",
  "time": 1232052697,
  "mediantime": 1232049139,
  "nonce": 18458649,
  "bits": "1d00ffff",
  "difficulty": 1,
  "chainwork": "0000000000000000000000000000000000000000000000000000027102710271",
  "nTx": 1,
  "previousblockhash": "000000003584db918b8667b768953ddff4489d491287aee518a91822e3660db4",
  "nextblockhash": "0000000099424c7f78847a97b95557110802c172cd97fa3044f76e6c4700ed22",
  "strippedsize": 215,
  "size": 215,
  "weight": 860,
  "tx": [
    {
      "txid": "3a7d34192888fd742d14184111316f8c1fa503a34c6b2fda82fe61fb51a10381",
      "hash": "3a7d34192888fd742d14184111316f8c1fa503a34c6b2fda82fe61fb51a10381",
      "version": 1,
      "size": 134,
      "vsize": 134,
      "weight": 536,
      "locktime": 0,
      "vin": [
        {
          "coinbase": "04ffff001d0101",
          "sequence": 4294967295
        }
      ],
      "vout": [
        {
          "value": 50.0,
          "n": 0,
          "scriptPubKey": {
            "asm": "047e3d8d5a05808cb46089dc7cc78633b5b2f8760f9a8c9a54736980348c8a2b05f72840038f8475178e4265ae30c1b1f25a3d3c7806c18cea38111dc9ba596cd5 OP_CHECKSIG",
            "desc": "pk(047e3d8d5a05808cb46089dc7cc78633b5b2f8760f9a8c9a54736980348c8a2b05f72840038f8475178e4265ae30c1b1f25a3d3c7806c18cea38111dc9ba596cd5)#mptagscf",
            "hex": "41047e3d8d5a05808cb46089dc7cc78633b5b2f8760f9a8c9a54736980348c8a2b05f72840038f8475178e4265ae30c1b1f25a3d3c7806c18cea38111dc9ba596cd5ac",
            "type": "pubkey"
          }
        }
      ],
      "hex": "01000000010000000000000000000000000000000000000000000000000000000000000000ffffffff0704ffff001d0101ffffffff0100f2052a010000004341047e3d8d5a05808cb46089dc7cc78633b5b2f8760f9a8c9a54736980348c8a2b05f72840038f8475178e4265ae30c1b1f25a3d3c7806c18cea38111dc9ba596cd5ac00000000"
    }
  ]
}