{
  "hash": "000000001ebf3033fde59493d37c66db2fd17b62fa40184da71a0931f25f708f",
  "confirmations": 49470,
  "height": 3628,
  "version": 1,
  "versionHex": "00000001",
  "merkleroot": "3b4e51f7577bbd0f8c94aac19c0539a3de223e49a4b4a55eebf91596e40138d1",
  "time": 1234189903,
  "mediantime": 1234186721,
  "nonce": 166650911,
  "bits": "1d00ffff",
  "difficulty": 1,
  "chainwork": "00000000000000000000000000000000000000000000000000000e2d0e2d0e2d",
  "nTx": 1,
  "previousblockhash": "0000000054482b901c92a940bdff1472426043be7833f969d98e27b93adf8dd6",
  "nextblockhash": "0000000051e1a4081edd803c99ab5ead482782a59c994733bd95ea3d0746309a",
  "strippedsize": 216,
  "size": 216,
  "weight": 864,
  "tx": [
    {
      "txid": "3b4e51f7577bbd0f8c94aac19c0539a3de223e49a4b4a55eebf91596e40138d1",
      "hash": "3b4e51f7577bbd0f8c94aac19c0539a3de223e49a4b4a55eebf91596e40138d1",
      "version": 1,
      "size": 135,
      "vsize": 135,
      "weight": 540,
      "locktime": 0,
      "vin": [
        {
          "coinbase": "04ffff001d029600",
          "sequence": 4294967295
        }
      ],
      "vout": [
        {
          "value": 50.0,
          "n": 0,
          "scriptPubKey": {
            "asm": "0493897ffaa64e7ab4da74877ff380de4c6ae29cae66ea5d040f5e5df9fd128bcc9bf035b086a1ef96773b7554bad0a3dfac2f9ea81854b26ac56dce28d871e6ca OP_CHECKSIG",
            "desc": "pk(0493897ffaa64e7ab4da74877ff380de4c6ae29cae66ea5d040f5e5df9fd128bcc9bf035b086a1ef96773b7554bad0a3dfac2f9ea81854b26ac56dce28d871e6ca)#5xe9k4ce",
            "hex": "410493897ffaa64e7ab4da74877ff380de4c6ae29cae66ea5d040f5e5df9fd128bcc9bf035b086a1ef96773b7554bad0a3dfac2f9ea81854b26ac56dce28d871e6caac",
            "type": "pubkey"
          }
        }
      ],
      "hex": "01000000010000000000000000000000000000000000000000000000000000000000000000ffffffff0804ffff001d029600ffffffff0100f2052a0100000043410493897ffaa64e7ab4da74877ff380de4c6ae29cae66ea5d040f5e5df9fd128bcc9bf035b086a1ef96773b7554bad0a3dfac2f9ea81854b26ac56dce28d871e6caac00000000"
    }
  ]
}