{
  "hash": "00000000185a25b78d36a0b357d86f6fb148c5bf37a4db2a206923e9011821a1",
  "confirmations": 51047,
  "height": 2051,
  "version": 1,
  "versionHex": "00000001",
  "merkleroot": "bfd6c19bc6272508811142ada2c8a05e1b4f75e72f3cb97910f916f9e8b45269",
  "time": 1233096784,
  "mediantime": 1233090420,
  "nonce": 150698033,
  "bits": "1d00ffff",
  "difficulty": 1,
  "chainwork": "0000000000000000000000000000000000000000000000000000080408040804",
  "nTx": 1,
  "previousblockhash": "0000000006ef8c34a38cf705d623808ceffd2eea1f2dd8dcec85da6529d86285",
  "nextblockhash": "00000000d34e247dbed14f0ffa448155b7a4c8ea80f867fa8eb8c2982dd431c6",
  "strippedsize": 216,
  "size": 216,
  "weight": 864,
  "tx": [
    {
      "txid": "bfd6c19bc6272508811142ada2c8a05e1b4f75e72f3cb97910f916f9e8b45269",
      "hash": "bfd6c19bc6272508811142ada2c8a05e1b4f75e72f3cb97910f916f9e8b45269",
      "version": 1,
      "size": 135,
      "vsize": 135,
      "weight": 540,
      "locktime": 0,
      "vin": [
        {
          "coinbase": "04ffff001d02ca02",
          "sequence": 4294967295
        }
      ],
      "vout": [
        {
          "value": 50.0,
          "n": 0,
          "scriptPubKey": {
            "asm": "04ccc0bf870b75b27eb66dc0f7a93ce71e0bb8312e8cf1d38b0ea0f3a6f3656dd06f9132343775914fd7a14b8c0890d0992a5a3ed5478c95bbf7d586f00299f366 OP_CHECKSIG",
            "desc": "pk(04ccc0bf870b75b27eb66dc0f7a93ce71e0bb8312e8cf1d38b0ea0f3a6f3656dd06f9132343775914fd7a14b8c0890d0992a5a3ed5478c95bbf7d586f00299f366)#vgjarg3p",
            "hex": "4104ccc0bf870b75b27eb66dc0f7a93ce71e0bb8312e8cf1d38b0ea0f3a6f3656dd06f9132343775914fd7a14b8c0890d0992a5a3ed5478c95bbf7d586f00299f366ac",
            "type": "pubkey"
          }
        }
      ],
      "hex": "01000000010000000000000000000000000000000000000000000000000000000000000000ffffffff0804ffff001d02ca02ffffffff0100f2052a01000000434104ccc0bf870b75b27eb66dc0f7a93ce71e0bb8312e8cf1d38b0ea0f3a6f3656dd06f9132343775914fd7a14b8c0890d0992a5a3ed5478c95bbf7d586f00299f366ac00000000"
    }
  ]
}