{
  "hash": "00000000de962787c333315b4a48499e8003a6d21d700e9d8ca1e3116584d1c3",
  "confirmations": 43844,
  "height": 9254,
  "version": 1,
  "versionHex": "00000001",
  "merkleroot": "80291b7a91603631f193baba9b46965c9f5c97f11a6a820e2818d9182fd3ec0b",
  "time": 1238437413,
  "mediantime": 1238433754,
  "nonce": 217898781,
  "bits": "1d00ffff",
  "difficulty": 1,
  "chainwork": "0000000000000000000000000000000000000000000000000000242724272427",
  "nTx": 1,
  "previousblockhash": "00000000588f7dd0e543b5ddea8fdeb14d2c1be97f11fe9d7440e6dea4b06652",
  "nextblockhash": "000000005f89476497118ff10366b3e0fb58c13cd0ca932dad6e7ef91737d19e",
  "strippedsize": 216,
  "size": 216,
  "weight": 864,
  "tx": [
    {
      "txid": "80291b7a91603631f193baba9b46965c9f5c97f11a6a820e2818d9182fd3ec0b",
      "hash": "80291b7a91603631f193baba9b46965c9f5c97f11a6a820e2818d9182fd3ec0b",
      "version": 1,
      "size": 135,
      "vsize": 135,
      "weight": 540,
      "locktime": 0,
      "vin": [
        {
          "coinbase": "04ffff001d020401",
          "sequence": 4294967295
        }
      ],
      "vout": [
        {
          "value": 50.0,
          "n": 0,
          "scriptPubKey": {
            "asm": "0425cda51d8664fea0a5a9fab80c824e95cdbd69b8a2d6d408615888c29bbebb043a2ad2fa6b7d885619c5f839b6f6931ce8bcb952ff6c9e0fc85e9e7041418945 OP_CHECKSIG",
            "desc": "pk(0425cda51d8664fea0a5a9fab80c824e95cdbd69b8a2d6d408615888c29bbebb043a2ad2fa6b7d885619c5f839b6f6931ce8bcb952ff6c9e0fc85e9e7041418945)#z90dxjh3",
            "hex": "410425cda51d8664fea0a5a9fab80c824e95cdbd69b8a2d6d408615888c29bbebb043a2ad2fa6b7d885619c5f839b6f6931ce8bcb952ff6c9e0fc85e9e7041418945ac",
            "type": "pubkey"
          }
        }
      ],
      "hex": "01000000010000000000000000000000000000000000000000000000000000000000000000ffffffff0804ffff001d020401ffffffff0100f2052a0100000043410425cda51d8664fea0a5a9fab80c824e95cdbd69b8a2d6d408615888c29bbebb043a2ad2fa6b7d885619c5f839b6f6931ce8bcb952ff6c9e0fc85e9e7041418945ac00000000"
    }
  ]
}