{
  "hash": "000000007673ce35038f0e1ff8d7a265a97f854d7a5b8b7518334ed0e7626b74",
  "confirmations": 44682,
  "height": 8416,
  "version": 1,
  "versionHex": "00000001",
  "merkleroot": "560368824a9e06860e01fff942ef57d74e380c47b0523a9baf0f1cfc0b1273cc",
  "time": 1237810532,
  "mediantime": 1237807245,
  "nonce": 3071321656,
  "bits": "1d00ffff",
  "difficulty": 1,
  "chainwork": "000000000000000000000000000000000000000000000000000020e120e120e1",
  "nTx": 1,
  "previousblockhash": "000000000e10be0713aaea675fb71a9481e6468fd9206833b6be100af33baeab",
  "nextblockhash": "000000002e5949e628f22574c0f13d4b6e9ab59b50fbc8780cecd105052c8778",
  "strippedsize": 216,
  "size": 216,
  "weight": 864,
  "tx": [
    {
      "txid": "560368824a9e06860e01fff942ef57d74e380c47b0523a9baf0f1cfc0b1273cc",
      "hash": "560368824a9e06860e01fff942ef57d74e380c47b0523a9baf0f1cfc0b1273cc",
      "version": 1,
      "size": 135,
      "vsize": 135,
      "weight": 540,
      "locktime": 0,
      "vin": [
        {
          "coinbase": "04ffff001d024d06",
          "sequence": 4294967295
        }
      ],
      "vout": [
        {
          "value": 50.0,
          "n": 0,
          "scriptPubKey": {
            "asm": "0419546d8aa618781f3e0671cb7a11f67399e6fcdabf4a9fba79653a911fdf4fce20b5eafb1940a03ad8a3d224fccb7dd217943eacb553b0dcbcb7d72bd04e9da7 OP_CHECKSIG",
            "desc": "pk(0419546d8aa618781f3e0671cb7a11f67399e6fcdabf4a9fba79653a911fdf4fce20b5eafb1940a03ad8a3d224fccb7dd217943eacb553b0dcbcb7d72bd04e9da7)#wkes6h3g",
            "hex": "410419546d8aa618781f3e0671cb7a11f67399e6fcdabf4a9fba79653a911fdf4fce20b5eafb1940a03ad8a3d224fccb7dd217943eacb553b0dcbcb7d72bd04e9da7ac",
            "type": "pubkey"
          }
        }
      ],
      "hex": "01000000010000000000000000000000000000000000000000000000000000000000000000ffffffff0804ffff001d024d06ffffffff0100f2052a0100000043410419546d8aa618781f3e0671cb7a11f67399e6fcdabf4a9fba79653a911fdf4fce20b5eafb1940a03ad8a3d224fccb7dd217943eacb553b0dcbcb7d72bd04e9da7ac00000000"
    }
  ]
}