{
  "hash": "00000000a968eef92dc53c5a70be90bf1b96b4e3cabad694806476d038f54774",
  "confirmations": 51650,
  "height": 1448,
  "version": 1,
  "versionHex": "00000001",
  "merkleroot": "550d124f20aba7dd70dae4755eb6f09ebb4f8a3a665c650b79e7d5806b975360",
  "time": 1232745880,
  "mediantime": 1232743265,
  "nonce": 1869139496,
  "bits": "1d00ffff",
  "difficulty": 1,
  "chainwork": "000000000000000000000000000000000000000000000000000005a905a905a9",
  "nTx": 1,
  "previousblockhash": "000000006635177dfec02298a4cc0a3ad3091c8e34924a3d6cb50c8019b18007",
  "nextblockhash": "000000000aa1de01ee09679ba0b9454a814d3439af3c9ef5ada73e54c6c3f6f8",
  "strippedsize": 216,
  "size": 216,
  "weight": 864,
  "tx": [
    {
      "txid": "550d124f20aba7dd70dae4755eb6f09ebb4f8a3a665c650b79e7d5806b975360",
      "hash": "550d124f20aba7dd70dae4755eb6f09ebb4f8a3a665c650b79e7d5806b975360",
      "version": 1,
      "size": 135,
      "vsize": 135,
      "weight": 540,
      "locktime": 0,
      "vin": [
        {
          "coinbase": "04ffff001d029c00",
          "sequence": 4294967295
        }
      ],
      "vout": [
        {
          "value": 50.0,
          "n": 0,
          "scriptPubKey": {
            "asm": "04e7459cbed27a96d14cb1707dc6af4947a0d4913fcc7ed74e035cf6e76c537804a42b89260952d59ebba0ee7ad88d31e36e2aa1457eee86373073401b58294ec7 OP_CHECKSIG",
            "desc": "pk(04e7459cbed27a96d14cb1707dc6af4947a0d4913fcc7ed74e035cf6e76c537804a42b89260952d59ebba0ee7ad88d31e36e2aa1457eee86373073401b58294ec7)#vezdqtfs",
            "hex": "4104e7459cbed27a96d14cb1707dc6af4947a0d4913fcc7ed74e035cf6e76c537804a42b89260952d59ebba0ee7ad88d31e36e2aa1457eee86373073401b58294ec7ac",
            "type": "pubkey"
          }
        }
      ],
      "hex": "01000000010000000000000000000000000000000000000000000000000000000000000000ffffffff0804ffff001d029c00ffffffff0100f2052a01000000434104e7459cbed27a96d14cb1707dc6af4947a0d4913fcc7ed74e035cf6e76c537804a42b89260952d59ebba0ee7ad88d31e36e2aa1457eee86373073401b58294ec7ac00000000"
    }
  ]
}