{
  "hash": "00000000714e1649e1aa808b989dc4e38c99bc9597ef7600d5129e499cc87abf",
  "confirmations": 43891,
  "height": 9207,
  "version": 1,
  "versionHex": "00000001",
  "merkleroot": "79fe609358cca162223a0afd7e373ac3aa063ad4bad01aadc2ff20012bbb01f0",
  "time": 1238406974,
  "mediantime": 1238400373,
  "nonce": 1730510592,
  "bits": "1d00ffff",
  "difficulty": 1,
  "chainwork": "000000000000000000000000000000000000000000000000000023f823f823f8",
  "nTx": 1,
  "previousblockhash": "00000000577588f4ff0a77c1a5deced4ba97e4cf753c9a80b4213dac6438f7a7",
  "nextblockhash": "00000000ac88f13fb81c5847092057c360e8236a2191f5dfbf35097ae63fb08a",
  "strippedsize": 215,
  "size": 215,
  "weight": 860,
  "tx": [
    {
      "txid": "79fe609358cca162223a0afd7e373ac3aa063ad4bad01aadc2ff20012bbb01f0",
      "hash": "79fe609358cca162223a0afd7e373ac3aa063ad4bad01aadc2ff20012bbb01f0",
      "version": 1,
      "size": 134,
      "vsize": 134,
      "weight": 536,
      "locktime": 0,
      "vin": [
        {
          "coinbase": "04ffff001d0107",
          "sequence": 4294967295
        }
      ],
      "vout": [
        {
          "value": 50.0,
          "n": 0,
          "scriptPubKey": {
            "asm": "0443d5b3af1b3f68d32bed9ebbdb7e3dc3811ed902690184a06bbe0bad0396d5abf7ad2d6b9d8e46a5ffb9d6e428add0a549a35ddd5a71b3171d54d968a05f76d6 OP_CHECKSIG",
            "desc": "pk(0443d5b3af1b3f68d32bed9ebbdb7e3dc3811ed902690184a06bbe0bad0396d5abf7ad2d6b9d8e46a5ffb9d6e428add0a549a35ddd5a71b3171d54d968a05f76d6)#u9kk5lzw",
            "hex": "410443d5b3af1b3f68d32bed9ebbdb7e3dc3811ed902690184a06bbe0bad0396d5abf7ad2d6b9d8e46a5ffb9d6e428add0a549a35ddd5a71b3171d54d968a05f76d6ac",
            "type": "pubkey"
          }
        }
      ],
      "hex": "01000000010000000000000000000000000000000000000000000000000000000000000000ffffffff0704ffff001d0107ffffffff0100f2052a0100000043410443d5b3af1b3f68d32bed9ebbdb7e3dc3811ed902690184a06bbe0bad0396d5abf7ad2d6b9d8e46a5ffb9d6e428add0a549a35ddd5a71b3171d54d968a05f76d6ac00000000"
    }
  ]
}