{
  "hash": "0000000003eb7f288ba713e86a91e40fc34825240b8e353d6083b8dcc4d353e5",
  "confirmations": 43271,
  "height": 9827,
  "version": 1,
  "versionHex": "00000001",
  "merkleroot": "585d6accb2db5ea4c58693f33aa2157df0f3a2276df6ffd75de7ab4e6249121b",
  "time": 1238875284,
  "mediantime": 1238870994,
  "nonce": 4033342247,
  "bits": "1d00ffff",
  "difficulty": 1,
  "chainwork": "0000000000000000000000000000000000000000000000000000266426642664",
  "nTx": 1,
  "previousblockhash": "000000007509929eb2a348285246eeacdb28c98446f7760b6c2b2a9e98015c05",
  "nextblockhash": "00000000db0de32a3c00674d9e61d317669f00292ca2b91ad8958d90ae0aa426",
  "strippedsize": 216,
  "size": 216,
  "weight": 864,
  "tx": [
    {
      "txid": "585d6accb2db5ea4c58693f33aa2157df0f3a2276df6ffd75de7ab4e6249121b",
      "hash": "585d6accb2db5ea4c58693f33aa2157df0f3a2276df6ffd75de7ab4e6249121b",
      "version": 1,
      "size": 135,
      "vsize": 135,
      "weight": 540,
      "locktime": 0,
      "vin": [
        {
          "coinbase": "04ffff001d02da00",
          "sequence": 4294967295
        }
      ],
      "vout": [
        {
          "value": 50.0,
          "n": 0,
          "scriptPubKey": {
            "asm": "0456aa13d110a6cb0e5a21f8019360e0372463fe2ae552670b8f4112e2f58efec765671a66bac134445a627585607fe1920e0f58ade2a7920460e35518d94ff61d OP_CHECKSIG",
            "desc": "pk(0456aa13d110a6cb0e5a21f8019360e0372463fe2ae552670b8f4112e2f58efec765671a66bac134445a627585607fe1920e0f58ade2a7920460e35518d94ff61d)#jduach09",
            "hex": "410456aa13d110a6cb0e5a21f8019360e0372463fe2ae552670b8f4112e2f58efec765671a66bac134445a627585607fe1920e0f58ade2a7920460e35518d94ff61dac",
            "type": "pubkey"
          }
        }
      ],
      "hex": "01000000010000000000000000000000000000000000000000000000000000000000000000ffffffff0804ffff001d02da00ffffffff0100f2052a0100000043410456aa13d110a6cb0e5a21f8019360e0372463fe2ae552670b8f4112e2f58efec765671a66bac134445a627585607fe1920e0f58ade2a7920460e35518d94ff61dac00000000"
    }
  ]
}