{
  "hash": "00000000ee1d6b98d28b71c969d4bc8a20ee43a379ce49547bcad30c606d8845",
  "confirmations": 50097,
  "height": 3001,
  "version": 1,
  "versionHex": "00000001",
  "merkleroot": "773dd282e16dfad9df3ee495df348303418bb9ddea0414a9bcd2eaeacf730c02",
  "time": 1233762657,
  "mediantime": 1233758050,
  "nonce": 2441853230,
  "bits": "1d00ffff",
  "difficulty": 1,
  "chainwork": "00000000000000000000000000000000000000000000000000000bba0bba0bba",
  "nTx": 1,
  "previousblockhash": "000000004a81b9aa469b11649996ecb0a452c16d1181e72f9f980850a1c5ecce",
  "nextblockhash": "00000000b81b771a8a7bb38f8ff734c947c687d8825c26a64141227cf11c7f6c",
  "strippedsize": 216,
  "size": 216,
  "weight": 864,
  "tx": [
    {
      "txid": "773dd282e16dfad9df3ee495df348303418bb9ddea0414a9bcd2eaeacf730c02",
      "hash": "773dd282e16dfad9df3ee495df348303418bb9ddea0414a9bcd2eaeacf730c02",
      "version": 1,
      "size": 135,
      "vsize": 135,
      "weight": 540,
      "locktime": 0,
      "vin": [
        {
          "coinbase": "04ffff001d027001",
          "sequence": 4294967295
        }
      ],
      "vout": [
        {
          "value": 50.0,
          "n": 0,
          "scriptPubKey": {
            "asm": "041cbde50c916cee8ba77575f2be3501cc0d43ab9d0b7cb124a50b54175bf79eed5cfac77d9ee250b73cc952fe34585397b2875b8fe255565474e1962dd33c8147 OP_CHECKSIG",
            "desc": "pk(041cbde50c916cee8ba77575f2be3501cc0d43ab9d0b7cb124a50b54175bf79eed5cfac77d9ee250b73cc952fe34585397b2875b8fe255565474e1962dd33c8147)#ly4kv979",
            "hex": "41041cbde50c916cee8ba77575f2be3501cc0d43ab9d0b7cb124a50b54175bf79eed5cfac77d9ee250b73cc952fe34585397b2875b8fe255565474e1962dd33c8147ac",
            "type": "pubkey"
          }
        }
      ],
      "hex": "01000000010000000000000000000000000000000000000000000000000000000000000000ffffffff0804ffff001d027001ffffffff0100f2052a010000004341041cbde50c916cee8ba77575f2be3501cc0d43ab9d0b7cb124a50b54175bf79eed5cfac77d9ee250b73cc952fe34585397b2875b8fe255565474e1962dd33c8147ac00000000"
    }
  ]
}