{
  "hash": "00000000c53dbe6b1e67b2d6903bb1829a383d44c900d5b8c3e930f4aaaa7af4",
  "confirmations": 45235,
  "height": 7863,
  "version": 1,
  "versionHex": "00000001",
  "merkleroot": "d18708cb37455ff60eef9954d8f462c99187ef7694dd920824c7ed1dd7b37385",
  "time": 1237361920,
  "mediantime": 1237356799,
  "nonce": 2092319019,
  "bits": "1d00ffff",
  "difficulty": 1,
  "chainwork": "00000000000000000000000000000000000000000000000000001eb81eb81eb8",
  "nTx": 1,
  "previousblockhash": "00000000e055383ede208a39e8a1b48de44abd430b80149f483a81a84d5564f6",
  "nextblockhash": "00000000b7c90bc517d76eb5a16385be59b308bf303f69db242a714561db02ee",
  "strippedsize": 216,
  "size": 216,
  "weight": 864,
  "tx": [
    {
      "txid": "d18708cb37455ff60eef9954d8f462c99187ef7694dd920824c7ed1dd7b37385",
      "hash": "d18708cb37455ff60eef9954d8f462c99187ef7694dd920824c7ed1dd7b37385",
      "version": 1,
      "size": 135,
      "vsize": 135,
      "weight": 540,
      "locktime": 0,
      "vin": [
        {
          "coinbase": "04ffff001d02f006",
          "sequence": 4294967295
        }
      ],
      "vout": [
        {
          "value": 50.0,
          "n": 0,
          "scriptPubKey": {
            "asm": "043c5f59b11819efe9ae38b5f1a6efe457ca62a6b642c3b99eb9de48061f6f2a2ca3e3a13709a53f622152dfa7cb5c27025b244c68de40d8153d873cd58230fe51 OP_CHECKSIG",
            "desc": "pk(043c5f59b11819efe9ae38b5f1a6efe457ca62a6b642c3b99eb9de48061f6f2a2ca3e3a13709a53f622152dfa7cb5c27025b244c68de40d8153d873cd58230fe51)#ppm2hs0h",
            "hex": "41043c5f59b11819efe9ae38b5f1a6efe457ca62a6b642c3b99eb9de48061f6f2a2ca3e3a13709a53f622152dfa7cb5c27025b244c68de40d8153d873cd58230fe51ac",
            "type": "pubkey"
          }
        }
      ],
      "hex": "01000000010000000000000000000000000000000000000000000000000000000000000000ffffffff0804ffff001d02f006ffffffff0100f2052a010000004341043c5f59b11819efe9ae38b5f1a6efe457ca62a6b642c3b99eb9de48061f6f2a2ca3e3a13709a53f622152dfa7cb5c27025b244c68de40d8153d873cd58230fe51ac00000000"
    }
  ]
}