{
  "hash": "0000000009c7d5b3de38f01a8fe6ebd85110da151a5698b1e701d5371e9b36f2",
  "confirmations": 44874,
  "height": 8224,
  "version": 1,
  "versionHex": "00000001",
  "merkleroot": "3a731c5e8d1433e6a765c7b97bd9a00a29d1a49a5ed90d427a8e4bd5cdb12d19",
  "time": 1237646887,
  "mediantime": 1237636847,
  "nonce": 7958696,
  "bits": "1d00ffff",
  "difficulty": 1,
  "chainwork": "0000000000000000000000000000000000000000000000000000202120212021",
  "nTx": 1,
  "previousblockhash": "00000000e15cf1e769db3b8eff15747801480cb4be65cc28db79bfdbe5cd4301",
  "nextblockhash": "000000003496ef9e8c7b7ab66b512cc4841807902372238921bd247c65538703",
  "strippedsize": 216,
  "size": 216,
  "weight": 864,
  "tx": [
    {
      "txid": "3a731c5e8d1433e6a765c7b97bd9a00a29d1a49a5ed90d427a8e4bd5cdb12d19",
      "hash": "3a731c5e8d1433e6a765c7b97bd9a00a29d1a49a5ed90d427a8e4bd5cdb12d19",
      "version": 1,
      "size": 135,
      "vsize": 135,
      "weight": 540,
      "locktime": 0,
      "vin": [
        {
          "coinbase": "04ffff001d021f01",
          "sequence": 4294967295
        }
      ],
      "vout": [
        {
          "value": 50.0,
          "n": 0,
          "scriptPubKey": {
            "asm": "04d1fe4adf92ec6e0fd2b3fab50d35b6ca90d9ef44de4a1472d1662181d531c9a457245446ba131c9d15a0b39509a6cc743607a86fd59af886742ffeea735c03d8 OP_CHECKSIG",
            "desc": "pk(04d1fe4adf92ec6e0fd2b3fab50d35b6ca90d9ef44de4a1472d1662181d531c9a457245446ba131c9d15a0b39509a6cc743607a86fd59af886742ffeea735c03d8)#8cq8jd5y",
            "hex": "4104d1fe4adf92ec6e0fd2b3fab50d35b6ca90d9ef44de4a1472d1662181d531c9a457245446ba131c9d15a0b39509a6cc743607a86fd59af886742ffeea735c03d8ac",
            "type": "pubkey"
          }
        }
      ],
      "hex": "01000000010000000000000000000000000000000000000000000000000000000000000000ffffffff0804ffff001d021f01ffffffff0100f2052a01000000434104d1fe4adf92ec6e0fd2b3fab50d35b6ca90d9ef44de4a1472d1662181d531c9a457245446ba131c9d15a0b39509a6cc743607a86fd59af886742ffeea735c03d8ac00000000"
    }
  ]
}