{
  "hash": "0000000096f13b2ee9bbe260592ba8dd75a279d8e593f30e094bd22b4bc6ca9b",
  "confirmations": 45850,
  "height": 7248,
  "version": 1,
  "versionHex": "00000001",
  "merkleroot": "6191194d48ea1d0ff6d9074e4ff7b655512e648d584801fe5d4f768a0f1e3ba2",
  "time": 1236905088,
  "mediantime": 1236900550,
  "nonce": 884913953,
  "bits": "1d00ffff",
  "difficulty": 1,
  "chainwork": "00000000000000000000000000000000000000000000000000001c511c511c51",
  "nTx": 1,
  "previousblockhash": "00000000666ca3c27c61dbbaefa666520c7e6088cc44f096322442dc022facdc",
  "nextblockhash": "00000000e62c067cfa3571b2cd4ee383567acc81778cc53254b65ddd9af389db",
  "strippedsize": 216,
  "size": 216,
  "weight": 864,
  "tx": [
    {
      "txid": "6191194d48ea1d0ff6d9074e4ff7b655512e648d584801fe5d4f768a0f1e3ba2",
      "hash": "6191194d48ea1d0ff6d9074e4ff7b655512e648d584801fe5d4f768a0f1e3ba2",
      "version": 1,
      "size": 135,
      "vsize": 135,
      "weight": 540,
      "locktime": 0,
      "vin": [
        {
          "coinbase": "04ffff001d026c06",
          "sequence": 4294967295
        }
      ],
      "vout": [
        {
          "value": 50.0,
          "n": 0,
          "scriptPubKey": {
            "asm": "0468670bcf05da263b17cc91a3472f7304e60f97f061c9e10d22353209c49b59103d945ca48fbf2f31099ec72d9da3356de4f3527446bf96414d092f5c88e71d5e OP_CHECKSIG",
            "desc": "pk(0468670bcf05da263b17cc91a3472f7304e60f97f061c9e10d22353209c49b59103d945ca48fbf2f31099ec72d9da3356de4f3527446bf96414d092f5c88e71d5e)#ne6tq49z",
            "hex": "410468670bcf05da263b17cc91a3472f7304e60f97f061c9e10d22353209c49b59103d945ca48fbf2f31099ec72d9da3356de4f3527446bf96414d092f5c88e71d5eac",
            "type": "pubkey"
          }
        }
      ],
      "hex": "01000000010000000000000000000000000000000000000000000000000000000000000000ffffffff0804ffff001d026c06ffffffff0100f2052a0100000043410468670bcf05da263b17cc91a3472f7304e60f97f061c9e10d22353209c49b59103d945ca48fbf2f31099ec72d9da3356de4f3527446bf96414d092f5c88e71d5eac00000000"
    }
  ]
}