{
  "hash": "00000000eaf1c5247f713e7c5478b138d92347cd57810e0f8f05460f4f8cbd5f",
  "confirmations": 43460,
  "height": 9638,
  "version": 1,
  "versionHex": "00000001",
  "merkleroot": "a530ce5b5fe34ffee6a46d4d84b5e1902bf51b7d17406a57c36ea4b55a7d8df9",
  "time": 1238730736,
  "mediantime": 1238727190,
  "nonce": 879974714,
  "bits": "1d00ffff",
  "difficulty": 1,
  "chainwork": "000000000000000000000000000000000000000000000000000025a725a725a7",
  "nTx": 1,
  "previousblockhash": "00000000aa9e3062f3cfa493043c03d8f2b17bd524d93d5cb0116f1366c278bd",
  "nextblockhash": "000000008a6131c86ada164f8046298cfd3fb266eb969cecb5f305bd6231f514",
  "strippedsize": 216,
  "size": 216,
  "weight": 864,
  "tx": [
    {
      "txid": "a530ce5b5fe34ffee6a46d4d84b5e1902bf51b7d17406a57c36ea4b55a7d8df9",
      "hash": "a530ce5b5fe34ffee6a46d4d84b5e1902bf51b7d17406a57c36ea4b55a7d8df9",
      "version": 1,
      "size": 135,
      "vsize": 135,
      "weight": 540,
      "locktime": 0,
      "vin": [
        {
          "coinbase": "04ffff001d029507",
          "sequence": 4294967295
        }
      ],
      "vout": [
        {
          "value": 50.0,
          "n": 0,
          "scriptPubKey": {
            "asm": "042d2abcc428a92c370d625b76b24c739d388c912d200b1b9c0c531da9d0f8f84c5664ea8a55bc661a19a18f53b12e5bbf9803126d513b928e5bcdb1e8d2597adc OP_CHECKSIG",
            "desc": "pk(042d2abcc428a92c370d625b76b24c739d388c912d200b1b9c0c531da9d0f8f84c5664ea8a55bc661a19a18f53b12e5bbf9803126d513b928e5bcdb1e8d2597adc)#9mkswzw6",
            "hex": "41042d2abcc428a92c370d625b76b24c739d388c912d200b1b9c0c531da9d0f8f84c5664ea8a55bc661a19a18f53b12e5bbf9803126d513b928e5bcdb1e8d2597adcac",
            "type": "pubkey"
          }
        }
      ],
      "hex": "01000000010000000000000000000000000000000000000000000000000000000000000000ffffffff0804ffff001d029507ffffffff0100f2052a010000004341042d2abcc428a92c370d625b76b24c739d388c912d200b1b9c0c531da9d0f8f84c5664ea8a55bc661a19a18f53b12e5bbf9803126d513b928e5bcdb1e8d2597adcac00000000"
    }
  ]
}