{
  "hash": "00000000cf6079dfd7ac746dba92447333a73ac03b31572a0d47e42181bd48d1",
  "confirmations": 51637,
  "height": 1461,
  "version": 1,
  "versionHex": "00000001",
  "merkleroot": "295c8da1bd9b4aa713af4d11e46b48b1f360bb10eb80086aabc436522f0d7e2b",
  "time": 1232751868,
  "mediantime": 1232749475,
  "nonce": 2621302297,
  "bits": "1d00ffff",
  "difficulty": 1,
  "chainwork": "000000000000000000000000000000000000000000000000000005b605b605b6",
  "nTx": 1,
  "previousblockhash": "0000000060d16cce0658fceae1b62a37cc62f9bf09be2e3e52937cb2c3d9524a",
  "nextblockhash": "0000000087115a47a65599cf554b4782e129d4b1d6947641da862e6445575b9a",
  "strippedsize": 216,
  "size": 216,
  "weight": 864,
  "tx": [
    {
      "txid": "295c8da1bd9b4aa713af4d11e46b48b1f360bb10eb80086aabc436522f0d7e2b",
      "hash": "295c8da1bd9b4aa713af4d11e46b48b1f360bb10eb80086aabc436522f0d7e2b",
      "version": 1,
      "size": 135,
      "vsize": 135,
      "weight": 540,
      "locktime": 0,
      "vin": [
        {
          "coinbase": "04ffff001d02b800",
          "sequence": 4294967295
        }
      ],
      "vout": [
        {
          "value": 50.0,
          "n": 0,
          "scriptPubKey": {
            "asm": "04d031b9f4090d32b4856a860fea06c1d2c4b7f7d497611efeed521d13404c578c294433da6aa690de5d9882daddd0a2c41215a5742adc5884c348767e7b3ff9c3 OP_CHECKSIG",
            "desc": "pk(04d031b9f4090d32b4856a860fea06c1d2c4b7f7d497611efeed521d13404c578c294433da6aa690de5d9882daddd0a2c41215a5742adc5884c348767e7b3ff9c3)#085sd7p7",
            "hex": "4104d031b9f4090d32b4856a860fea06c1d2c4b7f7d497611efeed521d13404c578c294433da6aa690de5d9882daddd0a2c41215a5742adc5884c348767e7b3ff9c3ac",
            "type": "pubkey"
          }
        }
      ],
      "hex": "01000000010000000000000000000000000000000000000000000000000000000000000000ffffffff0804ffff001d02b800ffffffff0100f2052a01000000434104d031b9f4090d32b4856a860fea06c1d2c4b7f7d497611efeed521d13404c578c294433da6aa690de5d9882daddd0a2c41215a5742adc5884c348767e7b3ff9c3ac00000000"
    }
  ]
}