{
  "hash": "0000000020337a5544de860139c076606ca212d53a611ae65f5fa4135f193ade",
  "confirmations": 46729,
  "height": 6369,
  "version": 1,
  "versionHex": "00000001",
  "merkleroot": "c8173f157991b2370d906f772dcd2d84c088ab97cef3b0490c13e70f985781a0",
  "time": 1236232057,
  "mediantime": 1236229140,
  "nonce": 2167592737,
  "bits": "1d00ffff",
  "difficulty": 1,
  "chainwork": "000000000000000000000000000000000000000000000000000018e218e218e2",
  "nTx": 1,
  "previousblockhash": "000000009103251902b58285b50040855528ea2e479c5b3f4242830103090fbc",
  "nextblockhash": "0000000002a4bee2cd31c6fa6784aa11fcf0cee7f0b29a9ef342e09b3b33e248",
  "strippedsize": 216,
  "size": 216,
  "weight": 864,
  "tx": [
    {
      "txid": "c8173f157991b2370d906f772dcd2d84c088ab97cef3b0490c13e70f985781a0",
      "hash": "c8173f157991b2370d906f772dcd2d84c088ab97cef3b0490c13e70f985781a0",
      "version": 1,
      "size": 135,
      "vsize": 135,
      "weight": 540,
      "locktime": 0,
      "vin": [
        {
          "coinbase": "04ffff001d024201",
          "sequence": 4294967295
        }
      ],
      "vout": [
        {
          "value": 50.0,
          "n": 0,
          "scriptPubKey": {
            "asm": "04ee849aa8a4b8ba4ee293ea0ebe388513a580ccb577e29606ac3f887f20dd80023d162400c1f54b09c21eb6b7f8b7bbd77fc7dd6cb44a555931cd54486afc6591 OP_CHECKSIG",
            "desc": "pk(04ee849aa8a4b8ba4ee293ea0ebe388513a580ccb577e29606ac3f887f20dd80023d162400c1f54b09c21eb6b7f8b7bbd77fc7dd6cb44a555931cd54486afc6591)#ulwjqp8c",
            "hex": "4104ee849aa8a4b8ba4ee293ea0ebe388513a580ccb577e29606ac3f887f20dd80023d162400c1f54b09c21eb6b7f8b7bbd77fc7dd6cb44a555931cd54486afc6591ac",
            "type": "pubkey"
          }
        }
      ],
      "hex": "01000000010000000000000000000000000000000000000000000000000000000000000000ffffffff0804ffff001d024201ffffffff0100f2052a01000000434104ee849aa8a4b8ba4ee293ea0ebe388513a580ccb577e29606ac3f887f20dd80023d162400c1f54b09c21eb6b7f8b7bbd77fc7dd6cb44a555931cd54486afc6591ac00000000"
    }
  ]
}