{
  "hash": "000000005cf02d8195cb19206576d9be36f8858fd5661f5c99441b5d693e3227",
  "confirmations": 46378,
  "height": 6720,
  "version": 1,
  "versionHex": "00000001",
  "merkleroot": "7ffb84c6a12fc10f3b43a7f42dc963f0c45424054b05c66c4731fc0179fa407e",
  "time": 1236498394,
  "mediantime": 1236493835,
  "nonce": 1630846765,
  "bits": "1d00ffff",
  "difficulty": 1,
  "chainwork": "00000000000000000000000000000000000000000000000000001a411a411a41",
  "nTx": 1,
  "previousblockhash": "0000000051bd25f779cd3ef8cb567fa3a904a5f0224c637e15add1efb67943ca",
  "nextblockhash": "00000000f592aeacdab3a0b3c68dddd07b0c9e9da387d5954ceb5807f028b51c",
  "strippedsize": 216,
  "size": 216,
  "weight": 864,
  "tx": [
    {
      "txid": "7ffb84c6a12fc10f3b43a7f42dc963f0c45424054b05c66c4731fc0179fa407e",
      "hash": "7ffb84c6a12fc10f3b43a7f42dc963f0c45424054b05c66c4731fc0179fa407e",
      "version": 1,
      "size": 135,
      "vsize": 135,
      "weight": 540,
      "locktime": 0,
      "vin": [
        {
          "coinbase": "04ffff001d025c07",
          "sequence": 4294967295
        }
      ],
      "vout": [
        {
          "value": 50.0,
          "n": 0,
          "scriptPubKey": {
            "asm": "0498adf05836d32b274851600ad94821172a4b282d74ea2058d69cb9fd50315fcf2dc988530303ff57bc6ff56eb8f8e70b642b7dd1036e7e8073a35f355caf104a OP_CHECKSIG",
            "desc": "pk(0498adf05836d32b274851600ad94821172a4b282d74ea2058d69cb9fd50315fcf2dc988530303ff57bc6ff56eb8f8e70b642b7dd1036e7e8073a35f355caf104a)#was0wvz4",
            "hex": "410498adf05836d32b274851600ad94821172a4b282d74ea2058d69cb9fd50315fcf2dc988530303ff57bc6ff56eb8f8e70b642b7dd1036e7e8073a35f355caf104aac",
            "type": "pubkey"
          }
        }
      ],
      "hex": "01000000010000000000000000000000000000000000000000000000000000000000000000ffffffff0804ffff001d025c07ffffffff0100f2052a0100000043410498adf05836d32b274851600ad94821172a4b282d74ea2058d69cb9fd50315fcf2dc988530303ff57bc6ff56eb8f8e70b642b7dd1036e7e8073a35f355caf104aac00000000"
    }
  ]
}