{
  "hash": "00000000063d0655258aab395c258913b77bfbe8cb4a4f9d2187ccaa5e35bbdf",
  "confirmations": 47435,
  "height": 5663,
  "version": 1,
  "versionHex": "00000001",
  "merkleroot": "8f5dbd314d76f3a6cc340cb8e699d0069aae08bc7dd41c3413464af94cc80e73",
  "time": 1235661371,
  "mediantime": 1235656031,
  "nonce": 201858356,
  "bits": "1d00ffff",
  "difficulty": 1,
  "chainwork": "0000000000000000000000000000000000000000000000000000162016201620",
  "nTx": 1,
  "previousblockhash": "0000000039ed3376af265235bfa4e3fef3258f4c717da457623c5ec345bb52f8",
  "nextblockhash": "00000000565fb034db9e8117cf7b28bd82b3556eef089a32e507078e70da2f78",
  "strippedsize": 216,
  "size": 216,
  "weight": 864,
  "tx": [
    {
      "txid": "8f5dbd314d76f3a6cc340cb8e699d0069aae08bc7dd41c3413464af94cc80e73",
      "hash": "8f5dbd314d76f3a6cc340cb8e699d0069aae08bc7dd41c3413464af94cc80e73",
      "version": 1,
      "size": 135,
      "vsize": 135,
      "weight": 540,
      "locktime": 0,
      "vin": [
        {
          "coinbase": "04ffff001d02e908",
          "sequence": 4294967295
        }
      ],
      "vout": [
        {
          "value": 50.0,
          "n": 0,
          "scriptPubKey": {
            "asm": "04fd993606321a957adbc0eeff45c9d60501b1395693c1437e5f82de36892f378bd242be165f9493f158d2656517342c62e31ed082f940bfd1e37bc224f1cd1dd7 OP_CHECKSIG",
            "desc": "pk(04fd993606321a957adbc0eeff45c9d60501b1395693c1437e5f82de36892f378bd242be165f9493f158d2656517342c62e31ed082f940bfd1e37bc224f1cd1dd7)#65qrmee5",
            "hex": "4104fd993606321a957adbc0eeff45c9d60501b1395693c1437e5f82de36892f378bd242be165f9493f158d2656517342c62e31ed082f940bfd1e37bc224f1cd1dd7ac",
            "type": "pubkey"
          }
        }
      ],
      "hex": "01000000010000000000000000000000000000000000000000000000000000000000000000ffffffff0804ffff001d02e908ffffffff0100f2052a01000000434104fd993606321a957adbc0eeff45c9d60501b1395693c1437e5f82de36892f378bd242be165f9493f158d2656517342c62e31ed082f940bfd1e37bc224f1cd1dd7ac00000000"
    }
  ]
}