{
  "hash": "00000000a668f03769f53ff7d95f75cfb08ede733e9b65143e707544f5e11bd4",
  "confirmations": 43750,
  "height": 9348,
  "version": 1,
  "versionHex": "00000001",
  "merkleroot": "1263a7904a981791aa5b2dfacb9d40fe3e04114fe4262f34fc3053422b7ad3bf",
  "time": 1238509874,
  "mediantime": 1238507159,
  "nonce": 424670214,
  "bits": "1d00ffff",
  "difficulty": 1,
  "chainwork": "0000000000000000000000000000000000000000000000000000248524852485",
  "nTx": 1,
  "previousblockhash": "00000000622a1d4b2f9791040a829a78b914f52cc6e48ad4386895a88a9b19b0",
  "nextblockhash": "000000000e56f5a0df5518292d7d52361c99aac40fc138d570b9d5138ec35ce3",
  "strippedsize": 216,
  "size": 216,
  "weight": 864,
  "tx": [
    {
      "txid": "1263a7904a981791aa5b2dfacb9d40fe3e04114fe4262f34fc3053422b7ad3bf",
      "hash": "1263a7904a981791aa5b2dfacb9d40fe3e04114fe4262f34fc3053422b7ad3bf",
      "version": 1,
      "size": 135,
      "vsize": 135,
      "weight": 540,
      "locktime": 0,
      "vin": [
        {
          "coinbase": "04ffff001d029f02",
          "sequence": 4294967295
        }
      ],
      "vout": [
        {
          "value": 50.0,
          "n": 0,
          "scriptPubKey": {
            "asm": "04884791517d398de4cf22b6fafd1206135c999b426ef44fa1d53c99770b767098817075f712c8f4b571ec759c3248ff0123a65e4a4344809900e5f6285875c3f3 OP_CHECKSIG",
            "desc": "pk(04884791517d398de4cf22b6fafd1206135c999b426ef44fa1d53c99770b767098817075f712c8f4b571ec759c3248ff0123a65e4a4344809900e5f6285875c3f3)#t9lc2r2t",
            "hex": "4104884791517d398de4cf22b6fafd1206135c999b426ef44fa1d53c99770b767098817075f712c8f4b571ec759c3248ff0123a65e4a4344809900e5f6285875c3f3ac",
            "type": "pubkey"
          }
        }
      ],
      "hex": "01000000010000000000000000000000000000000000000000000000000000000000000000ffffffff0804ffff001d029f02ffffffff0100f2052a01000000434104884791517d398de4cf22b6fafd1206135c999b426ef44fa1d53c99770b767098817075f712c8f4b571ec759c3248ff0123a65e4a4344809900e5f6285875c3f3ac00000000"
    }
  ]
}