{
  "hash": "00000000773154fb5e95c65f36d1f0f6c02355f61da430dbd05d0c56166bb1cd",
  "confirmations": 49461,
  "height": 3637,
  "version": 1,
  "versionHex": "00000001",
  "merkleroot": "a37ca2e646794fe90e58c715b4d01e819b246e57b8c437d2dde50010a3fdb656",
  "time": 1234195065,
  "mediantime": 1234192369,
  "nonce": 4198484522,
  "bits": "1d00ffff",
  "difficulty": 1,
  "chainwork": "00000000000000000000000000000000000000000000000000000e360e360e36",
  "nTx": 1,
  "previousblockhash": "0000000026e0e62efd67c827c3574ccf518af231744a36f4487d4a20b59064c4",
  "nextblockhash": "0000000083c5e39b7f7179b89332beb552d585cc4bd3ff69fb4bff56e02f65ff",
  "strippedsize": 216,
  "size": 216,
  "weight": 864,
  "tx": [
    {
      "txid": "a37ca2e646794fe90e58c715b4d01e819b246e57b8c437d2dde50010a3fdb656",
      "hash": "a37ca2e646794fe90e58c715b4d01e819b246e57b8c437d2dde50010a3fdb656",
      "version": 1,
      "size": 135,
      "vsize": 135,
      "weight": 540,
      "locktime": 0,
      "vin": [
        {
          "coinbase": "04ffff001d020d09",
          "sequence": 4294967295
        }
      ],
      "vout": [
        {
          "value": 50.0,
          "n": 0,
          "scriptPubKey": {
            "asm": "04993b0c38d76b45b53469ccb26b6f7f44e6807695ddd6a4a0178265de24b4e67cbabb0c52808f7a9bbfe36dfdd4776a71af8590b82571d9c4ec9062742abb4a88 OP_CHECKSIG",
            "desc": "pk(04993b0c38d76b45b53469ccb26b6f7f44e6807695ddd6a4a0178265de24b4e67cbabb0c52808f7a9bbfe36dfdd4776a71af8590b82571d9c4ec9062742abb4a88)#sjk32qpv",
            "hex": "4104993b0c38d76b45b53469ccb26b6f7f44e6807695ddd6a4a0178265de24b4e67cbabb0c52808f7a9bbfe36dfdd4776a71af8590b82571d9c4ec9062742abb4a88ac",
            "type": "pubkey"
          }
        }
      ],
      "hex": "01000000010000000000000000000000000000000000000000000000000000000000000000ffffffff0804ffff001d020d09ffffffff0100f2052a01000000434104993b0c38d76b45b53469ccb26b6f7f44e6807695ddd6a4a0178265de24b4e67cbabb0c52808f7a9bbfe36dfdd4776a71af8590b82571d9c4ec9062742abb4a88ac00000000"
    }
  ]
}