{
  "hash": "00000000cda6b0e6ebcfe7d45ad2d977f1b264f3fec58b41ecf53dba795b0d87",
  "confirmations": 51077,
  "height": 2021,
  "version": 1,
  "versionHex": "00000001",
  "merkleroot": "a37cb76b248e3256058b24a111c099e02ca072ed1f232efab1dcc68249506824",
  "time": 1233069492,
  "mediantime": 1233063531,
  "nonce": 1758151688,
  "bits": "1d00ffff",
  "difficulty": 1,
  "chainwork": "000000000000000000000000000000000000000000000000000007e607e607e6",
  "nTx": 1,
  "previousblockhash": "00000000a2090ecd638c98afa5785d69eb9c84fbc1201f259f729a28190791d3",
  "nextblockhash": "0000000026024cd1f3a914b4d034e6cbbea6d0262569c04abe39a3f4a03d5aa6",
  "strippedsize": 216,
  "size": 216,
  "weight": 864,
  "tx": [
    {
      "txid": "a37cb76b248e3256058b24a111c099e02ca072ed1f232efab1dcc68249506824",
      "hash": "a37cb76b248e3256058b24a111c099e02ca072ed1f232efab1dcc68249506824",
      "version": 1,
      "size": 135,
      "vsize": 135,
      "weight": 540,
      "locktime": 0,
      "vin": [
        {
          "coinbase": "04ffff001d021502",
          "sequence": 4294967295
        }
      ],
      "vout": [
        {
          "value": 50.0,
          "n": 0,
          "scriptPubKey": {
            "asm": "04a2c2acaae770f08eb65d2a50274029dce3f77897b184e3711f824abfab01c63013699621628d73d495ebfcd6ee0971b48ef1c5c27898ce95951c21442dd5d4b4 OP_CHECKSIG",
            "desc": "pk(04a2c2acaae770f08eb65d2a50274029dce3f77897b184e3711f824abfab01c63013699621628d73d495ebfcd6ee0971b48ef1c5c27898ce95951c21442dd5d4b4)#gnspwkmm",
            "hex": "4104a2c2acaae770f08eb65d2a50274029dce3f77897b184e3711f824abfab01c63013699621628d73d495ebfcd6ee0971b48ef1c5c27898ce95951c21442dd5d4b4ac",
            "type": "pubkey"
          }
        }
      ],
      "hex": "01000000010000000000000000000000000000000000000000000000000000000000000000ffffffff0804ffff001d021502ffffffff0100f2052a01000000434104a2c2acaae770f08eb65d2a50274029dce3f77897b184e3711f824abfab01c63013699621628d73d495ebfcd6ee0971b48ef1c5c27898ce95951c21442dd5d4b4ac00000000"
    }
  ]
}