{
  "hash": "00000000142eb98f462be0b16008fb3bc58c2e77a9aee2bc278277d60df0bab2",
  "confirmations": 43656,
  "height": 9442,
  "version": 1,
  "versionHex": "00000001",
  "merkleroot": "068134aeec3016706d7f2281e2b8f66e97471b44d425c25cd7529b831b2bcb0d",
  "time": 1238585880,
  "mediantime": 1238582347,
  "nonce": 49111900,
  "bits": "1d00ffff",
  "difficulty": 1,
  "chainwork": "000000000000000000000000000000000000000000000000000024e324e324e3",
  "nTx": 1,
  "previousblockhash": "00000000f613d83e9b1a66d1daa4e62ee49e0112db1c52c26816ee2f917d197a",
  "nextblockhash": "00000000333871bd7aaa5cdacffba04f16b17b060ccaeffb9977dc3aa158a5b6",
  "strippedsize": 215,
  "size": 215,
  "weight": 860,
  "tx": [
    {
      "txid": "068134aeec3016706d7f2281e2b8f66e97471b44d425c25cd7529b831b2bcb0d",
      "hash": "068134aeec3016706d7f2281e2b8f66e97471b44d425c25cd7529b831b2bcb0d",
      "version": 1,
      "size": 134,
      "vsize": 134,
      "weight": 536,
      "locktime": 0,
      "vin": [
        {
          "coinbase": "04ffff001d0138",
          "sequence": 4294967295
        }
      ],
      "vout": [
        {
          "value": 50.0,
          "n": 0,
          "scriptPubKey": {
            "asm": "04589b3a78928acff6e6b88c6ee1e9b73c2558c1ee255b36c58c25b0273cad411eeefb07d341c35cf6f0369ce0d0a662fe616b6e1c1698e2ea27afe4e17ddd147f OP_CHECKSIG",
            "desc": "pk(04589b3a78928acff6e6b88c6ee1e9b73c2558c1ee255b36c58c25b0273cad411eeefb07d341c35cf6f0369ce0d0a662fe616b6e1c1698e2ea27afe4e17ddd147f)#g2awqdt9",
            "hex": "4104589b3a78928acff6e6b88c6ee1e9b73c2558c1ee255b36c58c25b0273cad411eeefb07d341c35cf6f0369ce0d0a662fe616b6e1c1698e2ea27afe4e17ddd147fac",
            "type": "pubkey"
          }
        }
      ],
      "hex": "01000000010000000000000000000000000000000000000000000000000000000000000000ffffffff0704ffff001d0138ffffffff0100f2052a01000000434104589b3a78928acff6e6b88c6ee1e9b73c2558c1ee255b36c58c25b0273cad411eeefb07d341c35cf6f0369ce0d0a662fe616b6e1c1698e2ea27afe4e17ddd147fac00000000"
    }
  ]
}