{
  "hash": "000000000d6d4a20d139d57985a6717a4583fad5b5b904a6706db831b9c8ec81",
  "confirmations": 46779,
  "height": 6319,
  "version": 1,
  "versionHex": "00000001",
  "merkleroot": "a081349849a755d34a0bd2e4c2a13be81f81dc32a45782cc7690ba9776fbfe52",
  "time": 1236187288,
  "mediantime": 1236183052,
  "nonce": 1586268720,
  "bits": "1d00ffff",
  "difficulty": 1,
  "chainwork": "000000000000000000000000000000000000000000000000000018b018b018b0",
  "nTx": 1,
  "previousblockhash": "00000000054518f6420800da4f4fa09dc572ddcddbf494ec75aee9b873b216a2",
  "nextblockhash": "000000003481ff5d71910856ce839f5941e659ec472297aef821489bc368d3ea",
  "strippedsize": 215,
  "size": 215,
  "weight": 860,
  "tx": [
    {
      "txid": "a081349849a755d34a0bd2e4c2a13be81f81dc32a45782cc7690ba9776fbfe52",
      "hash": "a081349849a755d34a0bd2e4c2a13be81f81dc32a45782cc7690ba9776fbfe52",
      "version": 1,
      "size": 134,
      "vsize": 134,
      "weight": 536,
      "locktime": 0,
      "vin": [
        {
          "coinbase": "04ffff001d016d",
          "sequence": 4294967295
        }
      ],
      "vout": [
        {
          "value": 50.0,
          "n": 0,
          "scriptPubKey": {
            "asm": "0422bc957dde8e876aac0e7f7e493be256070ca255ea505a50b591c91424192a4e8356324e11daf7e0b262e8ba3981de3bc1d848e06d6f6dbbf4285ef463e785b4 OP_CHECKSIG",
            "desc": "pk(0422bc957dde8e876aac0e7f7e493be256070ca255ea505a50b591c91424192a4e8356324e11daf7e0b262e8ba3981de3bc1d848e06d6f6dbbf4285ef463e785b4)#4cs65cfs",
            "hex": "410422bc957dde8e876aac0e7f7e493be256070ca255ea505a50b591c91424192a4e8356324e11daf7e0b262e8ba3981de3bc1d848e06d6f6dbbf4285ef463e785b4ac",
            "type": "pubkey"
          }
        }
      ],
      "hex": "01000000010000000000000000000000000000000000000000000000000000000000000000ffffffff0704ffff001d016dffffffff0100f2052a0100000043410422bc957dde8e876aac0e7f7e493be256070ca255ea505a50b591c91424192a4e8356324e11daf7e0b262e8ba3981de3bc1d848e06d6f6dbbf4285ef463e785b4ac00000000"
    }
  ]
}