{
  "hash": "00000000df48b9441e9902f7aa3e961c31a41c283e0509bce61de523426d6e7d",
  "confirmations": 45089,
  "height": 8009,
  "version": 1,
  "versionHex": "00000001",
  "merkleroot": "4ac31b9a5bfdacf377185154a6a527df9f92b727d867c0c900c7aad19491e519",
  "time": 1237466596,
  "mediantime": 1237463240,
  "nonce": 105105731,
  "bits": "1d00ffff",
  "difficulty": 1,
  "chainwork": "00000000000000000000000000000000000000000000000000001f4a1f4a1f4a",
  "nTx": 1,
  "previousblockhash": "00000000c29e1e6c446ec15222612204ba124b158bb7fe29b078e072ce99532f",
  "nextblockhash": "000000009c88d3647ea19e4f2ecb76ba0cb2349f246cf593377b7755346ad43a",
  "strippedsize": 215,
  "size": 215,
  "weight": 860,
  "tx": [
    {
      "txid": "4ac31b9a5bfdacf377185154a6a527df9f92b727d867c0c900c7aad19491e519",
      "hash": "4ac31b9a5bfdacf377185154a6a527df9f92b727d867c0c900c7aad19491e519",
      "version": 1,
      "size": 134,
      "vsize": 134,
      "weight": 536,
      "locktime": 0,
      "vin": [
        {
          "coinbase": "04ffff001d0113",
          "sequence": 4294967295
        }
      ],
      "vout": [
        {
          "value": 50.0,
          "n": 0,
          "scriptPubKey": {
            "asm": "04405585683a9f5fced28485558f3db84a400b353e1383e7c38ebf69693a7132434c3ff21f63d72d801b74ff411ddcad8e1c3f2d1e52c768f2a9cb2bc6375de9b2 OP_CHECKSIG",
            "desc": "pk(04405585683a9f5fced28485558f3db84a400b353e1383e7c38ebf69693a7132434c3ff21f63d72d801b74ff411ddcad8e1c3f2d1e52c768f2a9cb2bc6375de9b2)#q29a4mv7",
            "hex": "4104405585683a9f5fced28485558f3db84a400b353e1383e7c38ebf69693a7132434c3ff21f63d72d801b74ff411ddcad8e1c3f2d1e52c768f2a9cb2bc6375de9b2ac",
            "type": "pubkey"
          }
        }
      ],
      "hex": "01000000010000000000000000000000000000000000000000000000000000000000000000ffffffff0704ffff001d0113ffffffff0100f2052a01000000434104405585683a9f5fced28485558f3db84a400b353e1383e7c38ebf69693a7132434c3ff21f63d72d801b74ff411ddcad8e1c3f2d1e52c768f2a9cb2bc6375de9b2ac00000000"
    }
  ]
}