{
  "hash": "000000009efd230152ab33755a4da19ff606c3a2184afbb7bde450457bf015d1",
  "confirmations": 47373,
  "height": 5725,
  "version": 1,
  "versionHex": "00000001",
  "merkleroot": "a3c240e7f0c1e0aa941c2a58909b860c15d1702e0e5e3c1a193fd639fce2c017",
  "time": 1235702596,
  "mediantime": 1235700997,
  "nonce": 3995327750,
  "bits": "1d00ffff",
  "difficulty": 1,
  "chainwork": "0000000000000000000000000000000000000000000000000000165e165e165e",
  "nTx": 1,
  "previousblockhash": "00000000da61c020641297f97ac9906ed11c91e0236c583c6d6b4eea9645bc68",
  "nextblockhash": "00000000ead5c4072bb32e58e150f28e520111a1447187976afca31153cfc838",
  "strippedsize": 216,
  "size": 216,
  "weight": 864,
  "tx": [
    {
      "txid": "a3c240e7f0c1e0aa941c2a58909b860c15d1702e0e5e3c1a193fd639fce2c017",
      "hash": "a3c240e7f0c1e0aa941c2a58909b860c15d1702e0e5e3c1a193fd639fce2c017",
      "version": 1,
      "size": 135,
      "vsize": 135,
      "weight": 540,
      "locktime": 0,
      "vin": [
        {
          "coinbase": "04ffff001d02cf09",
          "sequence": 4294967295
        }
      ],
      "vout": [
        {
          "value": 50.0,
          "n": 0,
          "scriptPubKey": {
            "asm": "04fc9c87b7ad9e4b24c0e6bf5d644697e3aa4d73249d1f02a86b4ac88363107e8e5bc42e6af7b4086e75d125f93ddd3b7f87ad100c09b0224369c25589cb5adf2d OP_CHECKSIG",
            "desc": "pk(04fc9c87b7ad9e4b24c0e6bf5d644697e3aa4d73249d1f02a86b4ac88363107e8e5bc42e6af7b4086e75d125f93ddd3b7f87ad100c09b0224369c25589cb5adf2d)#gmmrwdxj",
            "hex": "4104fc9c87b7ad9e4b24c0e6bf5d644697e3aa4d73249d1f02a86b4ac88363107e8e5bc42e6af7b4086e75d125f93ddd3b7f87ad100c09b0224369c25589cb5adf2dac",
            "type": "pubkey"
          }
        }
      ],
      "hex": "01000000010000000000000000000000000000000000000000000000000000000000000000ffffffff0804ffff001d02cf09ffffffff0100f2052a01000000434104fc9c87b7ad9e4b24c0e6bf5d644697e3aa4d73249d1f02a86b4ac88363107e8e5bc42e6af7b4086e75d125f93ddd3b7f87ad100c09b0224369c25589cb5adf2dac00000000"
    }
  ]
}