{
  "hash": "000000004eaa0043cf91a137bb342eb46f87bb4cd1bb8d8e8909ceefb901e048",
  "confirmations": 51444,
  "height": 1654,
  "version": 1,
  "versionHex": "00000001",
  "merkleroot": "3f6603c9945aa279924becb6c9c13ea1ceafed903c70f321569604f4b4269a0b",
  "time": 1232835124,
  "mediantime": 1232833428,
  "nonce": 2824880949,
  "bits": "1d00ffff",
  "difficulty": 1,
  "chainwork": "0000000000000000000000000000000000000000000000000000067706770677",
  "nTx": 1,
  "previousblockhash": "000000005da52c5f43f857bea77d20d37645e875f7b6fed7f7da286059a93921",
  "nextblockhash": "0000000013e4b004621f9f0fd3bd4960644f5d641bea7035f308ed1591e49a42",
  "strippedsize": 216,
  "size": 216,
  "weight": 864,
  "tx": [
    {
      "txid": "3f6603c9945aa279924becb6c9c13ea1ceafed903c70f321569604f4b4269a0b",
      "hash": "3f6603c9945aa279924becb6c9c13ea1ceafed903c70f321569604f4b4269a0b",
      "version": 1,
      "size": 135,
      "vsize": 135,
      "weight": 540,
      "locktime": 0,
      "vin": [
        {
          "coinbase": "04ffff001d02af02",
          "sequence": 4294967295
        }
      ],
      "vout": [
        {
          "value": 50.0,
          "n": 0,
          "scriptPubKey": {
            "asm": "04e2af61b5c91b49f193dd16b4613d76b4af1627c9223291b237a602f74de42ecf076a97210c53bd16b3a51c04c8829607fd1d1f89ca1fa415ee0e5c8a18f66fd6 OP_CHECKSIG",
            "desc": "pk(04e2af61b5c91b49f193dd16b4613d76b4af1627c9223291b237a602f74de42ecf076a97210c53bd16b3a51c04c8829607fd1d1f89ca1fa415ee0e5c8a18f66fd6)#ttkzlmsy",
            "hex": "4104e2af61b5c91b49f193dd16b4613d76b4af1627c9223291b237a602f74de42ecf076a97210c53bd16b3a51c04c8829607fd1d1f89ca1fa415ee0e5c8a18f66fd6ac",
            "type": "pubkey"
          }
        }
      ],
      "hex": "01000000010000000000000000000000000000000000000000000000000000000000000000ffffffff0804ffff001d02af02ffffffff0100f2052a01000000434104e2af61b5c91b49f193dd16b4613d76b4af1627c9223291b237a602f74de42ecf076a97210c53bd16b3a51c04c8829607fd1d1f89ca1fa415ee0e5c8a18f66fd6ac00000000"
    }
  ]
}