{
  "hash": "000000006b282401107dde85409af86b2bea8e9dce3d824edb6e3bdd9429cd29",
  "confirmations": 46887,
  "height": 6211,
  "version": 1,
  "versionHex": "00000001",
  "merkleroot": "068fa474c72162d128515b615b9d5823ba9b45d070488bdf874dd1cc56948ed6",
  "time": 1236100892,
  "mediantime": 1236096411,
  "nonce": 3170433591,
  "bits": "1d00ffff",
  "difficulty": 1,
  "chainwork": "0000000000000000000000000000000000000000000000000000184418441844",
  "nTx": 1,
  "previousblockhash": "00000000a6d82049de926fae94a37758bbb5c6ad8a301015b95b05cc096f0de4",
  "nextblockhash": "0000000052b0361fae7eb7b7612b34b7c8f13b3d88fb4046af83b3b0e9d2fc58",
  "strippedsize": 216,
  "size": 216,
  "weight": 864,
  "tx": [
    {
      "txid": "068fa474c72162d128515b615b9d5823ba9b45d070488bdf874dd1cc56948ed6",
      "hash": "068fa474c72162d128515b615b9d5823ba9b45d070488bdf874dd1cc56948ed6",
      "version": 1,
      "size": 135,
      "vsize": 135,
      "weight": 540,
      "locktime": 0,
      "vin": [
        {
          "coinbase": "04ffff001d02af08",
          "sequence": 4294967295
        }
      ],
      "vout": [
        {
          "value": 50.0,
          "n": 0,
          "scriptPubKey": {
            "asm": "049133c6d4e96b6295e8f10200ad51acc885fa9a9f2e196a8f72a52894e9f6e035f4cce8a9435d56f29af70f6f303d05368e99ee0186d3467f823da988d26eb93c OP_CHECKSIG",
            "desc": "pk(049133c6d4e96b6295e8f10200ad51acc885fa9a9f2e196a8f72a52894e9f6e035f4cce8a9435d56f29af70f6f303d05368e99ee0186d3467f823da988d26eb93c)#mn4g69t9",
            "hex": "41049133c6d4e96b6295e8f10200ad51acc885fa9a9f2e196a8f72a52894e9f6e035f4cce8a9435d56f29af70f6f303d05368e99ee0186d3467f823da988d26eb93cac",
            "type": "pubkey"
          }
        }
      ],
      "hex": "01000000010000000000000000000000000000000000000000000000000000000000000000ffffffff0804ffff001d02af08ffffffff0100f2052a010000004341049133c6d4e96b6295e8f10200ad51acc885fa9a9f2e196a8f72a52894e9f6e035f4cce8a9435d56f29af70f6f303d05368e99ee0186d3467f823da988d26eb93cac00000000"
    }
  ]
}