{
  "hash": "000000000f1e4726f266da7a438c62bdf73212869981f18a96c5e8c552e2fb9f",
  "confirmations": 46932,
  "height": 6166,
  "version": 1,
  "versionHex": "00000001",
  "merkleroot": "73e5ef243bca2213748921b58cfd5f02b984769cb7f395186453474ef497e0fe",
  "time": 1236064741,
  "mediantime": 1236060185,
  "nonce": 3908315178,
  "bits": "1d00ffff",
  "difficulty": 1,
  "chainwork": "0000000000000000000000000000000000000000000000000000181718171817",
  "nTx": 1,
  "previousblockhash": "000000009c8a2d74b55b8c0f70ec24c37ec1e939f5da8d04e8bd4fedbff1fa3a",
  "nextblockhash": "0000000046aa0f0f8aa64b8573f550c7a5093d53545b19ab65c79bb7b232b400",
  "strippedsize": 216,
  "size": 216,
  "weight": 864,
  "tx": [
    {
      "txid": "73e5ef243bca2213748921b58cfd5f02b984769cb7f395186453474ef497e0fe",
      "hash": "73e5ef243bca2213748921b58cfd5f02b984769cb7f395186453474ef497e0fe",
      "version": 1,
      "size": 135,
      "vsize": 135,
      "weight": 540,
      "locktime": 0,
      "vin": [
        {
          "coinbase": "04ffff001d02d407",
          "sequence": 4294967295
        }
      ],
      "vout": [
        {
          "value": 50.0,
          "n": 0,
          "scriptPubKey": {
            "asm": "04ba731eabc98bfcdfdf479465e22fc1a40821995242191e2ff31b20ca72daedf5c97e3c40f1fdd1e9b727d310a1a0b6dbcf66398efd772ab2a2be99ccf50c410d OP_CHECKSIG",
            "desc": "pk(04ba731eabc98bfcdfdf479465e22fc1a40821995242191e2ff31b20ca72daedf5c97e3c40f1fdd1e9b727d310a1a0b6dbcf66398efd772ab2a2be99ccf50c410d)#srz7p0v7",
            "hex": "4104ba731eabc98bfcdfdf479465e22fc1a40821995242191e2ff31b20ca72daedf5c97e3c40f1fdd1e9b727d310a1a0b6dbcf66398efd772ab2a2be99ccf50c410dac",
            "type": "pubkey"
          }
        }
      ],
      "hex": "01000000010000000000000000000000000000000000000000000000000000000000000000ffffffff0804ffff001d02d407ffffffff0100f2052a01000000434104ba731eabc98bfcdfdf479465e22fc1a40821995242191e2ff31b20ca72daedf5c97e3c40f1fdd1e9b727d310a1a0b6dbcf66398efd772ab2a2be99ccf50c410dac00000000"
    }
  ]
}