{
  "hash": "00000000d6c655f23e71b4210ae3c5d931d76257093ab1e5ced88c52739296b5",
  "confirmations": 51873,
  "height": 52,
  "version": 1,
  "versionHex": "00000001",
  "merkleroot": "b3f978e6ee5e91662af30a634b3f3268c6f5d34aac1eb54e6cc9535026f5084f",
  "time": 1231616363,
  "mediantime": 1231612888,
  "nonce": 4043808569,
  "bits": "1d00ffff",
  "difficulty": 1,
  "chainwork": "0000000000000000000000000000000000000000000000000000003500350035",
  "nTx": 1,
  "previousblockhash": "000000001c511e00d1e6825c912988a3695ab2758fdbb6c7ee58da1da4fb2d63",
  "nextblockhash": "00000000fcde3f3306f4167634b51e24414900d7539cb4237f3f060cf26fba05",
  "strippedsize": 215,
  "size": 215,
  "weight": 860,
  "tx": [
    {
      "txid": "b3f978e6ee5e91662af30a634b3f3268c6f5d34aac1eb54e6cc9535026f5084f",
      "hash": "b3f978e6ee5e91662af30a634b3f3268c6f5d34aac1eb54e6cc9535026f5084f",
      "version": 1,
      "size": 134,
      "vsize": 134,
      "weight": 536,
      "locktime": 0,
      "vin": [
        {
          "coinbase": "04ffff001d0156",
          "sequence": 4294967295
        }
      ],
      "vout": [
        {
          "value": 50.0,
          "n": 0,
          "scriptPubKey": {
            "asm": "045c1f2f8b3f3e51ff51a7230dcc4c0983986a8aecb1751242dd62a0cadb653b90c2636ed13fb479f80f805ba462c08ddc2863367932b9615046adbecc1443af60 OP_CHECKSIG",
            "desc": "pk(045c1f2f8b3f3e51ff51a7230dcc4c0983986a8aecb1751242dd62a0cadb653b90c2636ed13fb479f80f805ba462c08ddc2863367932b9615046adbecc1443af60)#0hfca7qh",
            "hex": "41045c1f2f8b3f3e51ff51a7230dcc4c0983986a8aecb1751242dd62a0cadb653b90c2636ed13fb479f80f805ba462c08ddc2863367932b9615046adbecc1443af60ac",
            "type": "pubkey"
          }
        }
      ],
      "hex": "01000000010000000000000000000000000000000000000000000000000000000000000000ffffffff0704ffff001d0156ffffffff0100f2052a010000004341045c1f2f8b3f3e51ff51a7230dcc4c0983986a8aecb1751242dd62a0cadb653b90c2636ed13fb479f80f805ba462c08ddc2863367932b9615046adbecc1443af60ac00000000"
    }
  ]
}