{
  "hash": "00000000929fa878ae228c8df06d15f897d2c33e9bafd7932dbe0604c4944ca6",
  "confirmations": 47799,
  "height": 5299,
  "version": 1,
  "versionHex": "00000001",
  "merkleroot": "33de74a344be8233d7f0df02172cd7736f9af9110c4537209d8bbf77baa7003a",
  "time": 1235362403,
  "mediantime": 1235357417,
  "nonce": 3077313028,
  "bits": "1d00ffff",
  "difficulty": 1,
  "chainwork": "000000000000000000000000000000000000000000000000000014b414b414b4",
  "nTx": 1,
  "previousblockhash": "00000000e2eeb57fc6231266a1b53b65543dc6f1dcd0ee7a91e43c9755d5cc7f",
  "nextblockhash": "0000000033d54f6bc59c7da718bf75fe4073f89990f827dbed01469b976f86c9",
  "strippedsize": 216,
  "size": 216,
  "weight": 864,
  "tx": [
    {
      "txid": "33de74a344be8233d7f0df02172cd7736f9af9110c4537209d8bbf77baa7003a",
      "hash": "33de74a344be8233d7f0df02172cd7736f9af9110c4537209d8bbf77baa7003a",
      "version": 1,
      "size": 135,
      "vsize": 135,
      "weight": 540,
      "locktime": 0,
      "vin": [
        {
          "coinbase": "04ffff001d020c02",
          "sequence": 4294967295
        }
      ],
      "vout": [
        {
          "value": 50.0,
          "n": 0,
          "scriptPubKey": {
            "asm": "04550ad1a47f21a1cbd4e2231ba5e14c898ab77ed7b5b2efb96f7fe3c44f61778db37eba832ce5e754f05bc6305742ca04c29a498c43fc467b3b6de8fa847b5db4 OP_CHECKSIG",
            "desc": "pk(04550ad1a47f21a1cbd4e2231ba5e14c898ab77ed7b5b2efb96f7fe3c44f61778db37eba832ce5e754f05bc6305742ca04c29a498c43fc467b3b6de8fa847b5db4)#g2d73a4a",
            "hex": "4104550ad1a47f21a1cbd4e2231ba5e14c898ab77ed7b5b2efb96f7fe3c44f61778db37eba832ce5e754f05bc6305742ca04c29a498c43fc467b3b6de8fa847b5db4ac",
            "type": "pubkey"
          }
        }
      ],
      "hex": "01000000010000000000000000000000000000000000000000000000000000000000000000ffffffff0804ffff001d020c02ffffffff0100f2052a01000000434104550ad1a47f21a1cbd4e2231ba5e14c898ab77ed7b5b2efb96f7fe3c44f61778db37eba832ce5e754f05bc6305742ca04c29a498c43fc467b3b6de8fa847b5db4ac00000000"
    }
  ]
}