{
  "hash": "00000000b776ee1fa3ebb0171daf50fa16b9d57771edbab95731716e58a8bac1",
  "confirmations": 46490,
  "height": 6608,
  "version": 1,
  "versionHex": "00000001",
  "merkleroot": "b9f7c786fee21ff5a2a1ad9c94cd4e739346903c7a98bdcacb21eade290d308f",
  "time": 1236410750,
  "mediantime": 1236407671,
  "nonce": 1124974122,
  "bits": "1d00ffff",
  "difficulty": 1,
  "chainwork": "000000000000000000000000000000000000000000000000000019d119d119d1",
  "nTx": 1,
  "previousblockhash": "00000000021c3bcfd21ff39ec04f4232ed4c692af0abf8220f0b5558b1f793aa",
  "nextblockhash": "0000000058fdb956a96a2b83168e70fb7e48be905765c3bd6dd9ec1de620f65e",
  "strippedsize": 216,
  "size": 216,
  "weight": 864,
  "tx": [
    {
      "txid": "b9f7c786fee21ff5a2a1ad9c94cd4e739346903c7a98bdcacb21eade290d308f",
      "hash": "b9f7c786fee21ff5a2a1ad9c94cd4e739346903c7a98bdcacb21eade290d308f",
      "version": 1,
      "size": 135,
      "vsize": 135,
      "weight": 540,
      "locktime": 0,
      "vin": [
        {
          "coinbase": "04ffff001d024a05",
          "sequence": 4294967295
        }
      ],
      "vout": [
        {
          "value": 50.0,
          "n": 0,
          "scriptPubKey": {
            "asm": "049ceb99cc2dc3a82914ca2636482cc06697901738d9994c64b0769f919f22d844c28aab8eb9f809b274b098d5e46598719204b633219b5d08a69019df502b00f2 OP_CHECKSIG",
            "desc": "pk(049ceb99cc2dc3a82914ca2636482cc06697901738d9994c64b0769f919f22d844c28aab8eb9f809b274b098d5e46598719204b633219b5d08a69019df502b00f2)#3qxsrl07",
            "hex": "41049ceb99cc2dc3a82914ca2636482cc06697901738d9994c64b0769f919f22d844c28aab8eb9f809b274b098d5e46598719204b633219b5d08a69019df502b00f2ac",
            "type": "pubkey"
          }
        }
      ],
      "hex": "01000000010000000000000000000000000000000000000000000000000000000000000000ffffffff0804ffff001d024a05ffffffff0100f2052a010000004341049ceb99cc2dc3a82914ca2636482cc06697901738d9994c64b0769f919f22d844c28aab8eb9f809b274b098d5e46598719204b633219b5d08a69019df502b00f2ac00000000"
    }
  ]
}