{
  "hash": "00000000b5cc44b3c0f9dc3b23afa6dc4102105983a14acd5202eb6582de7631",
  "confirmations": 44984,
  "height": 8114,
  "version": 1,
  "versionHex": "00000001",
  "merkleroot": "b455a62817e7f732a1b8e2aa3da2280f5e78ea9a9dc0ff1305e6f51904bdca44",
  "time": 1237541073,
  "mediantime": 1237538067,
  "nonce": 268574003,
  "bits": "1d00ffff",
  "difficulty": 1,
  "chainwork": "00000000000000000000000000000000000000000000000000001fb31fb31fb3",
  "nTx": 1,
  "previousblockhash": "0000000067c7a40e76f2aea1f1df386dda629c21cfb713eaa67783a3d0686396",
  "nextblockhash": "00000000d906193b4927614860b2096ec2dce4c39b68fe5918bdc246f873b58e",
  "strippedsize": 216,
  "size": 216,
  "weight": 864,
  "tx": [
    {
      "txid": "b455a62817e7f732a1b8e2aa3da2280f5e78ea9a9dc0ff1305e6f51904bdca44",
      "hash": "b455a62817e7f732a1b8e2aa3da2280f5e78ea9a9dc0ff1305e6f51904bdca44",
      "version": 1,
      "size": 135,
      "vsize": 135,
      "weight": 540,
      "locktime": 0,
      "vin": [
        {
          "coinbase": "04ffff001d025001",
          "sequence": 4294967295
        }
      ],
      "vout": [
        {
          "value": 50.0,
          "n": 0,
          "scriptPubKey": {
            "asm": "04f0b83bb3fa57b9462d67475cd934f66f7d8ddb086f90fb8bd362bf2a7c104fecdb587f9700524135f9864aae6750f423e9be520f2595632c03fc43bfff2eb632 OP_CHECKSIG",
            "desc": "pk(04f0b83bb3fa57b9462d67475cd934f66f7d8ddb086f90fb8bd362bf2a7c104fecdb587f9700524135f9864aae6750f423e9be520f2595632c03fc43bfff2eb632)#7cuawgal",
            "hex": "4104f0b83bb3fa57b9462d67475cd934f66f7d8ddb086f90fb8bd362bf2a7c104fecdb587f9700524135f9864aae6750f423e9be520f2595632c03fc43bfff2eb632ac",
            "type": "pubkey"
          }
        }
      ],
      "hex": "01000000010000000000000000000000000000000000000000000000000000000000000000ffffffff0804ffff001d025001ffffffff0100f2052a01000000434104f0b83bb3fa57b9462d67475cd934f66f7d8ddb086f90fb8bd362bf2a7c104fecdb587f9700524135f9864aae6750f423e9be520f2595632c03fc43bfff2eb632ac00000000"
    }
  ]
}