{
  "hash": "00000000f8ebad1ffcbac17cf59d63d7ca863344143fd2224b7db74cd644d0b3",
  "confirmations": 44142,
  "height": 8956,
  "version": 1,
  "versionHex": "00000001",
  "merkleroot": "92625a95dbb07d5dc34af7cb2c341575640cb47731ed26d3a1be5955c2767cdf",
  "time": 1238221901,
  "mediantime": 1238218746,
  "nonce": 2086276126,
  "bits": "1d00ffff",
  "difficulty": 1,
  "chainwork": "000000000000000000000000000000000000000000000000000022fd22fd22fd",
  "nTx": 1,
  "previousblockhash": "00000000ab2ad4b32468850fd0c3c5a007acac4f6d2f4d55debb9d1781ca1a38",
  "nextblockhash": "000000009c65177a855fd521aaa68c8cd201d00a2e150492c1316fa966d3bf77",
  "strippedsize": 216,
  "size": 216,
  "weight": 864,
  "tx": [
    {
      "txid": "92625a95dbb07d5dc34af7cb2c341575640cb47731ed26d3a1be5955c2767cdf",
      "hash": "92625a95dbb07d5dc34af7cb2c341575640cb47731ed26d3a1be5955c2767cdf",
      "version": 1,
      "size": 135,
      "vsize": 135,
      "weight": 540,
      "locktime": 0,
      "vin": [
        {
          "coinbase": "04ffff001d029305",
          "sequence": 4294967295
        }
      ],
      "vout": [
        {
          "value": 50.0,
          "n": 0,
          "scriptPubKey": {
            "asm": "046d1590ac1621c7d4b5d2b55d90793bd3adab882d5e133d69b50e86a26a4b6dd6a75bea2e834285d9a174821dde6d253699a22d2ec6e0aa45f6de1ed0c5fb329f OP_CHECKSIG",
            "desc": "pk(046d1590ac1621c7d4b5d2b55d90793bd3adab882d5e133d69b50e86a26a4b6dd6a75bea2e834285d9a174821dde6d253699a22d2ec6e0aa45f6de1ed0c5fb329f)#x7pmfdg4",
            "hex": "41046d1590ac1621c7d4b5d2b55d90793bd3adab882d5e133d69b50e86a26a4b6dd6a75bea2e834285d9a174821dde6d253699a22d2ec6e0aa45f6de1ed0c5fb329fac",
            "type": "pubkey"
          }
        }
      ],
      "hex": "01000000010000000000000000000000000000000000000000000000000000000000000000ffffffff0804ffff001d029305ffffffff0100f2052a010000004341046d1590ac1621c7d4b5d2b55d90793bd3adab882d5e133d69b50e86a26a4b6dd6a75bea2e834285d9a174821dde6d253699a22d2ec6e0aa45f6de1ed0c5fb329fac00000000"
    }
  ]
}