{
  "hash": "00000000499e0f61d3b76d8e2a729dd140ae796d471a55d105daaf89ffccdf1e",
  "confirmations": 43358,
  "height": 9740,
  "version": 1,
  "versionHex": "00000001",
  "merkleroot": "a2e0eeff4ed54c0d7f7fdbae3bca3c7b74318858cba05a5a9474acb04d94a01d",
  "time": 1238806054,
  "mediantime": 1238803266,
  "nonce": 2515707422,
  "bits": "1d00ffff",
  "difficulty": 1,
  "chainwork": "0000000000000000000000000000000000000000000000000000260d260d260d",
  "nTx": 1,
  "previousblockhash": "00000000b7bbb7e50d86d3decd6ff8aa464a0acae51eca4306ff35b7437448b2",
  "nextblockhash": "00000000c8b469622049588e3719f880c112625e072ea59752414c61bd372486",
  "strippedsize": 216,
  "size": 216,
  "weight": 864,
  "tx": [
    {
      "txid": "a2e0eeff4ed54c0d7f7fdbae3bca3c7b74318858cba05a5a9474acb04d94a01d",
      "hash": "a2e0eeff4ed54c0d7f7fdbae3bca3c7b74318858cba05a5a9474acb04d94a01d",
      "version": 1,
      "size": 135,
      "vsize": 135,
      "weight": 540,
      "locktime": 0,
      "vin": [
        {
          "coinbase": "04ffff001d024609",
          "sequence": 4294967295
        }
      ],
      "vout": [
        {
          "value": 50.0,
          "n": 0,
          "scriptPubKey": {
            "asm": "04716f8d3209f5d60cebab227997f1af2ed1eb157ad573caa43c8c93dd33a12639213ced13351a7d34f83c74ebd74e1aab762727fe3b130be928369054e510d900 OP_CHECKSIG",
            "desc": "pk(04716f8d3209f5d60cebab227997f1af2ed1eb157ad573caa43c8c93dd33a12639213ced13351a7d34f83c74ebd74e1aab762727fe3b130be928369054e510d900)#qqtd0a30",
            "hex": "4104716f8d3209f5d60cebab227997f1af2ed1eb157ad573caa43c8c93dd33a12639213ced13351a7d34f83c74ebd74e1aab762727fe3b130be928369054e510d900ac",
            "type": "pubkey"
          }
        }
      ],
      "hex": "01000000010000000000000000000000000000000000000000000000000000000000000000ffffffff0804ffff001d024609ffffffff0100f2052a01000000434104716f8d3209f5d60cebab227997f1af2ed1eb157ad573caa43c8c93dd33a12639213ced13351a7d34f83c74ebd74e1aab762727fe3b130be928369054e510d900ac00000000"
    }
  ]
}