{
  "hash": "000000003d7f565bb3875bc5a3469891543bfed8d6d05e770bf63ea2e7ac8f1d",
  "confirmations": 47866,
  "height": 5232,
  "version": 1,
  "versionHex": "00000001",
  "merkleroot": "431b9a87e1da25c2323af83aefa01d65e6aeef70a94105662a3046a11cee56a5",
  "time": 1235310993,
  "mediantime": 1235308020,
  "nonce": 1058293249,
  "bits": "1d00ffff",
  "difficulty": 1,
  "chainwork": "0000000000000000000000000000000000000000000000000000147114711471",
  "nTx": 1,
  "previousblockhash": "0000000066cd621d6aa86ea4b5b12113ca53ebf73906a63e0fba0dcf14b94f31",
  "nextblockhash": "0000000010760b88f8a59cf04f2f4abe7c7421619fe2f5248ed24ca0001952e8",
  "strippedsize": 216,
  "size": 216,
  "weight": 864,
  "tx": [
    {
      "txid": "431b9a87e1da25c2323af83aefa01d65e6aeef70a94105662a3046a11cee56a5",
      "hash": "431b9a87e1da25c2323af83aefa01d65e6aeef70a94105662a3046a11cee56a5",
      "version": 1,
      "size": 135,
      "vsize": 135,
      "weight": 540,
      "locktime": 0,
      "vin": [
        {
          "coinbase": "04ffff001d02fa00",
          "sequence": 4294967295
        }
      ],
      "vout": [
        {
          "value": 50.0,
          "n": 0,
          "scriptPubKey": {
            "asm": "04a8c2d14236c2af3b06724101939ab06536919333c13387dfc0a0f6184541bb5a18fb93cfd49ee27ac09d0a02e4566eb3773b0c4b43504ba085ce7a565a3cb00d OP_CHECKSIG",
            "desc": "pk(04a8c2d14236c2af3b06724101939ab06536919333c13387dfc0a0f6184541bb5a18fb93cfd49ee27ac09d0a02e4566eb3773b0c4b43504ba085ce7a565a3cb00d)#q47jpnph",
            "hex": "4104a8c2d14236c2af3b06724101939ab06536919333c13387dfc0a0f6184541bb5a18fb93cfd49ee27ac09d0a02e4566eb3773b0c4b43504ba085ce7a565a3cb00dac",
            "type": "pubkey"
          }
        }
      ],
      "hex": "01000000010000000000000000000000000000000000000000000000000000000000000000ffffffff0804ffff001d02fa00ffffffff0100f2052a01000000434104a8c2d14236c2af3b06724101939ab06536919333c13387dfc0a0f6184541bb5a18fb93cfd49ee27ac09d0a02e4566eb3773b0c4b43504ba085ce7a565a3cb00dac00000000"
    }
  ]
}