{
  "hash": "00000000d55d6408ce7d024168e5c0a051fa4892305145e59788a5deb1f6c0cf",
  "confirmations": 46639,
  "height": 6459,
  "version": 1,
  "versionHex": "00000001",
  "merkleroot": "7fc7888cbc2362a7409c6a533a854421c58970e903ddcfc01f165c9cd1cdce9c",
  "time": 1236299722,
  "mediantime": 1236296065,
  "nonce": 618992425,
  "bits": "1d00ffff",
  "difficulty": 1,
  "chainwork": "0000000000000000000000000000000000000000000000000000193c193c193c",
  "nTx": 1,
  "previousblockhash": "00000000be1c17b62356470ccf76fe597b67a32be2b85419eabdb70de230108b",
  "nextblockhash": "000000006bf60389961c20d43c2404ac9530bd951a94a4e6d6f6ae16a7ae18ff",
  "strippedsize": 216,
  "size": 216,
  "weight": 864,
  "tx": [
    {
      "txid": "7fc7888cbc2362a7409c6a533a854421c58970e903ddcfc01f165c9cd1cdce9c",
      "hash": "7fc7888cbc2362a7409c6a533a854421c58970e903ddcfc01f165c9cd1cdce9c",
      "version": 1,
      "size": 135,
      "vsize": 135,
      "weight": 540,
      "locktime": 0,
      "vin": [
        {
          "coinbase": "04ffff001d02c802",
          "sequence": 4294967295
        }
      ],
      "vout": [
        {
          "value": 50.0,
          "n": 0,
          "scriptPubKey": {
            "asm": "045ea06e0199fae1fbea52cdb5e267e643faf69971d7104fc1ea61877ad7484eb0952a0454e91e59a6d8a92ec6fb09fa534c0fb3feb6818e10adaa8cd428bcc472 OP_CHECKSIG",
            "desc": "pk(045ea06e0199fae1fbea52cdb5e267e643faf69971d7104fc1ea61877ad7484eb0952a0454e91e59a6d8a92ec6fb09fa534c0fb3feb6818e10adaa8cd428bcc472)#8hm8ht0k",
            "hex": "41045ea06e0199fae1fbea52cdb5e267e643faf69971d7104fc1ea61877ad7484eb0952a0454e91e59a6d8a92ec6fb09fa534c0fb3feb6818e10adaa8cd428bcc472ac",
            "type": "pubkey"
          }
        }
      ],
      "hex": "01000000010000000000000000000000000000000000000000000000000000000000000000ffffffff0804ffff001d02c802ffffffff0100f2052a010000004341045ea06e0199fae1fbea52cdb5e267e643faf69971d7104fc1ea61877ad7484eb0952a0454e91e59a6d8a92ec6fb09fa534c0fb3feb6818e10adaa8cd428bcc472ac00000000"
    }
  ]
}