{
  "hash": "000000006e5c5d9785de23ac829266f819b36c0bf77beda9d418781c1e163a89",
  "confirmations": 43207,
  "height": 9891,
  "version": 1,
  "versionHex": "00000001",
  "merkleroot": "92df8693b5227a27dcbd968fe9cd3527e77e2a523ac952d852851d700f19903f",
  "time": 1238918082,
  "mediantime": 1238915745,
  "nonce": 993495062,
  "bits": "1d00ffff",
  "difficulty": 1,
  "chainwork": "000000000000000000000000000000000000000000000000000026a426a426a4",
  "nTx": 1,
  "previousblockhash": "000000001d23b45acd60027e66c01031768d472dc5a7cd279678cfe4216ce37a",
  "nextblockhash": "00000000c65e4d5675d3fbce1218f876bacbfb1853d8b355edd287551660c925",
  "strippedsize": 216,
  "size": 216,
  "weight": 864,
  "tx": [
    {
      "txid": "92df8693b5227a27dcbd968fe9cd3527e77e2a523ac952d852851d700f19903f",
      "hash": "92df8693b5227a27dcbd968fe9cd3527e77e2a523ac952d852851d700f19903f",
      "version": 1,
      "size": 135,
      "vsize": 135,
      "weight": 540,
      "locktime": 0,
      "vin": [
        {
          "coinbase": "04ffff001d02f001",
          "sequence": 4294967295
        }
      ],
      "vout": [
        {
          "value": 50.0,
          "n": 0,
          "scriptPubKey": {
            "asm": "04921af89953b50f087955e591478f22820ffe82c469c8d66bb2d42a42661728d5abbfac052e3ba9a2fd2bb66cd8637e5473aa8c6607b39cbfa31f0c0413068310 OP_CHECKSIG",
            "desc": "pk(04921af89953b50f087955e591478f22820ffe82c469c8d66bb2d42a42661728d5abbfac052e3ba9a2fd2bb66cd8637e5473aa8c6607b39cbfa31f0c0413068310)#w9zmmc63",
            "hex": "4104921af89953b50f087955e591478f22820ffe82c469c8d66bb2d42a42661728d5abbfac052e3ba9a2fd2bb66cd8637e5473aa8c6607b39cbfa31f0c0413068310ac",
            "type": "pubkey"
          }
        }
      ],
      "hex": "01000000010000000000000000000000000000000000000000000000000000000000000000ffffffff0804ffff001d02f001ffffffff0100f2052a01000000434104921af89953b50f087955e591478f22820ffe82c469c8d66bb2d42a42661728d5abbfac052e3ba9a2fd2bb66cd8637e5473aa8c6607b39cbfa31f0c0413068310ac00000000"
    }
  ]
}