{
  "hash": "0000000095ac54894d620c90f936b47b434656cb938defe5892ec89b94942460",
  "confirmations": 44852,
  "height": 8246,
  "version": 1,
  "versionHex": "00000001",
  "merkleroot": "d4a903cb823a5b3a9b1bd15cf644851b10419068cf3ad232538d5703a8d10b89",
  "time": 1237693162,
  "mediantime": 1237690877,
  "nonce": 1053363999,
  "bits": "1d00ffff",
  "difficulty": 1,
  "chainwork": "0000000000000000000000000000000000000000000000000000203720372037",
  "nTx": 1,
  "previousblockhash": "00000000b604122a84070e34195832917ceeaf40291fb8531c981b5068b43b22",
  "nextblockhash": "00000000eb0feb905854af45cce9b47ab8491f547298de24d8cd40744c769799",
  "strippedsize": 216,
  "size": 216,
  "weight": 864,
  "tx": [
    {
      "txid": "d4a903cb823a5b3a9b1bd15cf644851b10419068cf3ad232538d5703a8d10b89",
      "hash": "d4a903cb823a5b3a9b1bd15cf644851b10419068cf3ad232538d5703a8d10b89",
      "version": 1,
      "size": 135,
      "vsize": 135,
      "weight": 540,
      "locktime": 0,
      "vin": [
        {
          "coinbase": "04ffff001d026d03",
          "sequence": 4294967295
        }
      ],
      "vout": [
        {
          "value": 50.0,
          "n": 0,
          "scriptPubKey": {
            "asm": "0430687e817d62fe08e94dfdbc67fb7a237720a193844f6bf8684417bbbe688e89816b73b05fe1a5d669bcae92bcce281e74f627363ee5f618901e700d0ae98258 OP_CHECKSIG",
            "desc": "pk(0430687e817d62fe08e94dfdbc67fb7a237720a193844f6bf8684417bbbe688e89816b73b05fe1a5d669bcae92bcce281e74f627363ee5f618901e700d0ae98258)#jc690j9g",
            "hex": "410430687e817d62fe08e94dfdbc67fb7a237720a193844f6bf8684417bbbe688e89816b73b05fe1a5d669bcae92bcce281e74f627363ee5f618901e700d0ae98258ac",
            "type": "pubkey"
          }
        }
      ],
      "hex": "01000000010000000000000000000000000000000000000000000000000000000000000000ffffffff0804ffff001d026d03ffffffff0100f2052a0100000043410430687e817d62fe08e94dfdbc67fb7a237720a193844f6bf8684417bbbe688e89816b73b05fe1a5d669bcae92bcce281e74f627363ee5f618901e700d0ae98258ac00000000"
    }
  ]
}