{
  "hash": "0000000029eb62e606a4659c7149ba5936ef2e8a1e32ea63099ace69a9228e2b",
  "confirmations": 50113,
  "height": 2985,
  "version": 1,
  "versionHex": "00000001",
  "merkleroot": "21c07a30b783fcd1b2d856873aeb386b3db82693a5763a06e77bbe9d47071621",
  "time": 1233751572,
  "mediantime": 1233748129,
  "nonce": 290872351,
  "bits": "1d00ffff",
  "difficulty": 1,
  "chainwork": "00000000000000000000000000000000000000000000000000000baa0baa0baa",
  "nTx": 1,
  "previousblockhash": "00000000df3afd79d626891075799dc5f771ffa6993d743a9fbdcd43528f366f",
  "nextblockhash": "000000000521be186b407165b90a3bc653d30c4ec89c317d23921a940bdb05db",
  "strippedsize": 216,
  "size": 216,
  "weight": 864,
  "tx": [
    {
      "txid": "21c07a30b783fcd1b2d856873aeb386b3db82693a5763a06e77bbe9d47071621",
      "hash": "21c07a30b783fcd1b2d856873aeb386b3db82693a5763a06e77bbe9d47071621",
      "version": 1,
      "size": 135,
      "vsize": 135,
      "weight": 540,
      "locktime": 0,
      "vin": [
        {
          "coinbase": "04ffff001d023601",
          "sequence": 4294967295
        }
      ],
      "vout": [
        {
          "value": 50.0,
          "n": 0,
          "scriptPubKey": {
            "asm": "04b6b2351e4fb6743f71dd3d104757d92870f3e300cb27556243609d57d1c2862a82d719cc3759bbbd5cb7ac0247796eb3aaba419d6fc6ea68e7b6fb95bff1ee02 OP_CHECKSIG",
            "desc": "pk(04b6b2351e4fb6743f71dd3d104757d92870f3e300cb27556243609d57d1c2862a82d719cc3759bbbd5cb7ac0247796eb3aaba419d6fc6ea68e7b6fb95bff1ee02)#eevwenck",
            "hex": "4104b6b2351e4fb6743f71dd3d104757d92870f3e300cb27556243609d57d1c2862a82d719cc3759bbbd5cb7ac0247796eb3aaba419d6fc6ea68e7b6fb95bff1ee02ac",
            "type": "pubkey"
          }
        }
      ],
      "hex": "01000000010000000000000000000000000000000000000000000000000000000000000000ffffffff0804ffff001d023601ffffffff0100f2052a01000000434104b6b2351e4fb6743f71dd3d104757d92870f3e300cb27556243609d57d1c2862a82d719cc3759bbbd5cb7ac0247796eb3aaba419d6fc6ea68e7b6fb95bff1ee02ac00000000"
    }
  ]
}