{
  "hash": "000000000576037f0b8ed67b95e45879f5d990281f7183df5a9a9b8f749bf100",
  "confirmations": 44899,
  "height": 8199,
  "version": 1,
  "versionHex": "00000001",
  "merkleroot": "67abf26d512ae393b066ce8f88573f48b3add9b536d36937ba4473f27a0b85cb",
  "time": 1237605808,
  "mediantime": 1237601169,
  "nonce": 62840147,
  "bits": "1d00ffff",
  "difficulty": 1,
  "chainwork": "0000000000000000000000000000000000000000000000000000200820082008",
  "nTx": 1,
  "previousblockhash": "0000000064a6ad218f3abf950d67202a2d610b25638550b2c5f91816a7c8a190",
  "nextblockhash": "000000001345c8c75cb9b340e9e3aed752ceac79c000353a9e456f545a701b66",
  "strippedsize": 216,
  "size": 216,
  "weight": 864,
  "tx": [
    {
      "txid": "67abf26d512ae393b066ce8f88573f48b3add9b536d36937ba4473f27a0b85cb",
      "hash": "67abf26d512ae393b066ce8f88573f48b3add9b536d36937ba4473f27a0b85cb",
      "version": 1,
      "size": 135,
      "vsize": 135,
      "weight": 540,
      "locktime": 0,
      "vin": [
        {
          "coinbase": "04ffff001d026506",
          "sequence": 4294967295
        }
      ],
      "vout": [
        {
          "value": 50.0,
          "n": 0,
          "scriptPubKey": {
            "asm": "046372ff7f06411a4e1d9c4c550ff98526aa6a393a5188a55905bc08dc56690dc017254c873a4255ab75c7f160841ce6ec3b0786827fdac159b71be44c231a28ab OP_CHECKSIG",
            "desc": "pk(046372ff7f06411a4e1d9c4c550ff98526aa6a393a5188a55905bc08dc56690dc017254c873a4255ab75c7f160841ce6ec3b0786827fdac159b71be44c231a28ab)#wls5x6wq",
            "hex": "41046372ff7f06411a4e1d9c4c550ff98526aa6a393a5188a55905bc08dc56690dc017254c873a4255ab75c7f160841ce6ec3b0786827fdac159b71be44c231a28abac",
            "type": "pubkey"
          }
        }
      ],
      "hex": "01000000010000000000000000000000000000000000000000000000000000000000000000ffffffff0804ffff001d026506ffffffff0100f2052a010000004341046372ff7f06411a4e1d9c4c550ff98526aa6a393a5188a55905bc08dc56690dc017254c873a4255ab75c7f160841ce6ec3b0786827fdac159b71be44c231a28abac00000000"
    }
  ]
}