{
  "hash": "0000000063a7ce9070407aaa02268a35a3eb652b2e083c26630e17c1a5a7a553",
  "confirmations": 52117,
  "height": 369,
  "version": 1,
  "versionHex": "00000001",
  "merkleroot": "c8c63477f4c63eedae8375b15a11f485fa36f48a0b8a2a1cedf4add92e1627eb",
  "time": 1231879535,
  "mediantime": 1231875152,
  "nonce": 3657758004,
  "bits": "1d00ffff",
  "difficulty": 1,
  "chainwork": "0000000000000000000000000000000000000000000000000000017201720172",
  "nTx": 1,
  "previousblockhash": "0000000023ead2b9fd8c909248a60bd63b0edca44c10c8a267548f9a6ae9f1b8",
  "nextblockhash": "00000000cad69daaae19df9068b0d4bc8d6999c63bd4fb067958bc8881ab7e5c",
  "strippedsize": 216,
  "size": 216,
  "weight": 864,
  "tx": [
    {
      "txid": "c8c63477f4c63eedae8375b15a11f485fa36f48a0b8a2a1cedf4add92e1627eb",
      "hash": "c8c63477f4c63eedae8375b15a11f485fa36f48a0b8a2a1cedf4add92e1627eb",
      "version": 1,
      "size": 135,
      "vsize": 135,
      "weight": 540,
      "locktime": 0,
      "vin": [
        {
          "coinbase": "04ffff001d02d701",
          "sequence": 4294967295
        }
      ],
      "vout": [
        {
          "value": 50.0,
          "n": 0,
          "scriptPubKey": {
            "asm": "0486f4b2fbbe55b2cd9189a5286e81d78122b132f3299527a09d5d1da1cfb4ad6d6f8784671356dbc225a786b3f7c2886808c5d8de9d4ea8380394cc3077824dc5 OP_CHECKSIG",
            "desc": "pk(0486f4b2fbbe55b2cd9189a5286e81d78122b132f3299527a09d5d1da1cfb4ad6d6f8784671356dbc225a786b3f7c2886808c5d8de9d4ea8380394cc3077824dc5)#p85jlfjj",
            "hex": "410486f4b2fbbe55b2cd9189a5286e81d78122b132f3299527a09d5d1da1cfb4ad6d6f8784671356dbc225a786b3f7c2886808c5d8de9d4ea8380394cc3077824dc5ac",
            "type": "pubkey"
          }
        }
      ],
      "hex": "01000000010000000000000000000000000000000000000000000000000000000000000000ffffffff0804ffff001d02d701ffffffff0100f2052a0100000043410486f4b2fbbe55b2cd9189a5286e81d78122b132f3299527a09d5d1da1cfb4ad6d6f8784671356dbc225a786b3f7c2886808c5d8de9d4ea8380394cc3077824dc5ac00000000"
    }
  ]
}