{
  "hash": "0000000070934f580a18c251a4f3c6559c8b67a3903546c6705cad6cbfb9b6c1",
  "confirmations": 51133,
  "height": 1965,
  "version": 1,
  "versionHex": "00000001",
  "merkleroot": "df5d6c4cf51b8f7259db480aef1d73357d7c0335a6b6cc4e40ca7846f7be64ae",
  "time": 1233020036,
  "mediantime": 1233016590,
  "nonce": 3614306329,
  "bits": "1d00ffff",
  "difficulty": 1,
  "chainwork": "000000000000000000000000000000000000000000000000000007ae07ae07ae",
  "nTx": 1,
  "previousblockhash": "0000000011436617b0ba1502dba2ffcb18d373d860f827717af1503366969bc1",
  "nextblockhash": "00000000e9c874793faeed229d340019de32e49f31c74f96b609d7dd987a65e8",
  "strippedsize": 216,
  "size": 216,
  "weight": 864,
  "tx": [
    {
      "txid": "df5d6c4cf51b8f7259db480aef1d73357d7c0335a6b6cc4e40ca7846f7be64ae",
      "hash": "df5d6c4cf51b8f7259db480aef1d73357d7c0335a6b6cc4e40ca7846f7be64ae",
      "version": 1,
      "size": 135,
      "vsize": 135,
      "weight": 540,
      "locktime": 0,
      "vin": [
        {
          "coinbase": "04ffff001d02f000",
          "sequence": 4294967295
        }
      ],
      "vout": [
        {
          "value": 50.0,
          "n": 0,
          "scriptPubKey": {
            "asm": "04da281a9b915cc5594fd51df6927567588901134a6ac92a19dbbd696846b162333a5fe448f2353abb9c922f2d276bb91f9e0354a724e5bd42c4f6849d5e3dfcef OP_CHECKSIG",
            "desc": "pk(04da281a9b915cc5594fd51df6927567588901134a6ac92a19dbbd696846b162333a5fe448f2353abb9c922f2d276bb91f9e0354a724e5bd42c4f6849d5e3dfcef)#gjyj9ps0",
            "hex": "4104da281a9b915cc5594fd51df6927567588901134a6ac92a19dbbd696846b162333a5fe448f2353abb9c922f2d276bb91f9e0354a724e5bd42c4f6849d5e3dfcefac",
            "type": "pubkey"
          }
        }
      ],
      "hex": "01000000010000000000000000000000000000000000000000000000000000000000000000ffffffff0804ffff001d02f000ffffffff0100f2052a01000000434104da281a9b915cc5594fd51df6927567588901134a6ac92a19dbbd696846b162333a5fe448f2353abb9c922f2d276bb91f9e0354a724e5bd42c4f6849d5e3dfcefac00000000"
    }
  ]
}