{
  "hash": "00000000d79d0587bc2af68c3c51a43b22b6a7f274f488377187985641d4786d",
  "confirmations": 52016,
  "height": 322,
  "version": 1,
  "versionHex": "00000001",
  "merkleroot": "fc0d1d73901ee27a693e55959f5e20fc913bba86e336a384def3210684d9484e",
  "time": 1231847669,
  "mediantime": 1231844715,
  "nonce": 3583629356,
  "bits": "1d00ffff",
  "difficulty": 1,
  "chainwork": "0000000000000000000000000000000000000000000000000000014301430143",
  "nTx": 1,
  "previousblockhash": "000000007ec3a2daeb2fda267d4c5520c5588aac135aae9e5f01eada28e15d6f",
  "nextblockhash": "00000000900d1e70b9606b562b92b62c0dafb82e14068aef08f0e5694fd433d4",
  "strippedsize": 216,
  "size": 216,
  "weight": 864,
  "tx": [
    {
      "txid": "fc0d1d73901ee27a693e55959f5e20fc913bba86e336a384def3210684d9484e",
      "hash": "fc0d1d73901ee27a693e55959f5e20fc913bba86e336a384def3210684d9484e",
      "version": 1,
      "size": 135,
      "vsize": 135,
      "weight": 540,
      "locktime": 0,
      "vin": [
        {
          "coinbase": "04ffff001d02dd00",
          "sequence": 4294967295
        }
      ],
      "vout": [
        {
          "value": 50.0,
          "n": 0,
          "scriptPubKey": {
            "asm": "0409f1d88473b88dad315255af6698c57a6d0264df90246bc7745e554e23d665ad5f7aafcf59306e002fa19c4d4fd6566d9445922d7d37c6c64eb8b2edb11718dd OP_CHECKSIG",
            "desc": "pk(0409f1d88473b88dad315255af6698c57a6d0264df90246bc7745e554e23d665ad5f7aafcf59306e002fa19c4d4fd6566d9445922d7d37c6c64eb8b2edb11718dd)#swgmwgfu",
            "hex": "410409f1d88473b88dad315255af6698c57a6d0264df90246bc7745e554e23d665ad5f7aafcf59306e002fa19c4d4fd6566d9445922d7d37c6c64eb8b2edb11718ddac",
            "type": "pubkey"
          }
        }
      ],
      "hex": "01000000010000000000000000000000000000000000000000000000000000000000000000ffffffff0804ffff001d02dd00ffffffff0100f2052a0100000043410409f1d88473b88dad315255af6698c57a6d0264df90246bc7745e554e23d665ad5f7aafcf59306e002fa19c4d4fd6566d9445922d7d37c6c64eb8b2edb11718ddac00000000"
    }
  ]
}