{
  "hash": "0000000016f2681801aba824f8ce1cccb1e7155ca22c9c76dfa23b3bc8e03779",
  "confirmations": 50466,
  "height": 2632,
  "version": 1,
  "versionHex": "00000001",
  "merkleroot": "13accb81a8827b627774b6451eef43c5ca1d3b7c3b174a53c937b40f69600cde",
  "time": 1233514203,
  "mediantime": 1233512124,
  "nonce": 62755084,
  "bits": "1d00ffff",
  "difficulty": 1,
  "chainwork": "00000000000000000000000000000000000000000000000000000a490a490a49",
  "nTx": 1,
  "previousblockhash": "0000000009ff1a086133e96a097ae7138593722bf89463703abdae49412c5043",
  "nextblockhash": "0000000056dac9034059805345565f7fd0297ee4eef0a11fa3652a2b15db96ab",
  "strippedsize": 215,
  "size": 215,
  "weight": 860,
  "tx": [
    {
      "txid": "13accb81a8827b627774b6451eef43c5ca1d3b7c3b174a53c937b40f69600cde",
      "hash": "13accb81a8827b627774b6451eef43c5ca1d3b7c3b174a53c937b40f69600cde",
      "version": 1,
      "size": 134,
      "vsize": 134,
      "weight": 536,
      "locktime": 0,
      "vin": [
        {
          "coinbase": "04ffff001d012c",
          "sequence": 4294967295
        }
      ],
      "vout": [
        {
          "value": 50.0,
          "n": 0,
          "scriptPubKey": {
            "asm": "0497b20a6e35d35a7bc2b84eee4b4342cddaac60a23ff996720b747654ab6f0c9d889bda434896961b74446ad8acafbab4494a19faa0763e27fd011d117bc5de9d OP_CHECKSIG",
            "desc": "pk(0497b20a6e35d35a7bc2b84eee4b4342cddaac60a23ff996720b747654ab6f0c9d889bda434896961b74446ad8acafbab4494a19faa0763e27fd011d117bc5de9d)#qjlsg06z",
            "hex": "410497b20a6e35d35a7bc2b84eee4b4342cddaac60a23ff996720b747654ab6f0c9d889bda434896961b74446ad8acafbab4494a19faa0763e27fd011d117bc5de9dac",
            "type": "pubkey"
          }
        }
      ],
      "hex": "01000000010000000000000000000000000000000000000000000000000000000000000000ffffffff0704ffff001d012cffffffff0100f2052a0100000043410497b20a6e35d35a7bc2b84eee4b4342cddaac60a23ff996720b747654ab6f0c9d889bda434896961b74446ad8acafbab4494a19faa0763e27fd011d117bc5de9dac00000000"
    }
  ]
}