{
  "hash": "000000004f2be766fb1d19ed74236b4a8c6cbf0ebd9a0efa391a1fa569daad49",
  "confirmations": 44535,
  "height": 8563,
  "version": 1,
  "versionHex": "00000001",
  "merkleroot": "f985ca7854855ee609a3642bdd08102ff4f7a634fcead5fcacbbc6be3b0ba4b1",
  "time": 1237920905,
  "mediantime": 1237918310,
  "nonce": 446928174,
  "bits": "1d00ffff",
  "difficulty": 1,
  "chainwork": "0000000000000000000000000000000000000000000000000000217421742174",
  "nTx": 1,
  "previousblockhash": "00000000c82f27c2c7f3c053cc8533cba529e8634d617678686266ffd7f05566",
  "nextblockhash": "000000007d282420eed81c2227818d78512670dc7d5938484fd5f3632456e665",
  "strippedsize": 216,
  "size": 216,
  "weight": 864,
  "tx": [
    {
      "txid": "f985ca7854855ee609a3642bdd08102ff4f7a634fcead5fcacbbc6be3b0ba4b1",
      "hash": "f985ca7854855ee609a3642bdd08102ff4f7a634fcead5fcacbbc6be3b0ba4b1",
      "version": 1,
      "size": 135,
      "vsize": 135,
      "weight": 540,
      "locktime": 0,
      "vin": [
        {
          "coinbase": "04ffff001d020109",
          "sequence": 4294967295
        }
      ],
      "vout": [
        {
          "value": 50.0,
          "n": 0,
          "scriptPubKey": {
            "asm": "04b6ab225c06c88a5acbbf9db811b9881cc295cd084be7fba9c8d2555b6e030d87d4b940cf7ebf78aafa3da568464c0b747d16e1bf99e63011629701344ab776ae OP_CHECKSIG",
            "desc": "pk(04b6ab225c06c88a5acbbf9db811b9881cc295cd084be7fba9c8d2555b6e030d87d4b940cf7ebf78aafa3da568464c0b747d16e1bf99e63011629701344ab776ae)#2wga9hlr",
            "hex": "4104b6ab225c06c88a5acbbf9db811b9881cc295cd084be7fba9c8d2555b6e030d87d4b940cf7ebf78aafa3da568464c0b747d16e1bf99e63011629701344ab776aeac",
            "type": "pubkey"
          }
        }
      ],
      "hex": "01000000010000000000000000000000000000000000000000000000000000000000000000ffffffff0804ffff001d020109ffffffff0100f2052a01000000434104b6ab225c06c88a5acbbf9db811b9881cc295cd084be7fba9c8d2555b6e030d87d4b940cf7ebf78aafa3da568464c0b747d16e1bf99e63011629701344ab776aeac00000000"
    }
  ]
}