{
  "hash": "0000000095e8825255d5d1c6ce53e26ad3913a596e1c80b6ccbfed125d797991",
  "confirmations": 50099,
  "height": 2999,
  "version": 1,
  "versionHex": "00000001",
  "merkleroot": "506918c6ef2d3050f9d44362d33d9d28993e63c7ef37cce410495178c8801c59",
  "time": 1233760999,
  "mediantime": 1233756963,
  "nonce": 2794254613,
  "bits": "1d00ffff",
  "difficulty": 1,
  "chainwork": "00000000000000000000000000000000000000000000000000000bb80bb80bb8",
  "nTx": 1,
  "previousblockhash": "0000000002b81b9c30e258956531af1b812dea3d3e9aed28dbac8c9fec3f1554",
  "nextblockhash": "000000004a81b9aa469b11649996ecb0a452c16d1181e72f9f980850a1c5ecce",
  "strippedsize": 216,
  "size": 216,
  "weight": 864,
  "tx": [
    {
      "txid": "506918c6ef2d3050f9d44362d33d9d28993e63c7ef37cce410495178c8801c59",
      "hash": "506918c6ef2d3050f9d44362d33d9d28993e63c7ef37cce410495178c8801c59",
      "version": 1,
      "size": 135,
      "vsize": 135,
      "weight": 540,
      "locktime": 0,
      "vin": [
        {
          "coinbase": "04ffff001d026d01",
          "sequence": 4294967295
        }
      ],
      "vout": [
        {
          "value": 50.0,
          "n": 0,
          "scriptPubKey": {
            "asm": "04b3264b210659b29bbe648acdebed5f57b9a986659a135b55e27311dfe668c41eca740265c2ca5a6a98a372775d6e0b6ef5073bed01d46825d81764c4ebdfb90c OP_CHECKSIG",
            "desc": "pk(04b3264b210659b29bbe648acdebed5f57b9a986659a135b55e27311dfe668c41eca740265c2ca5a6a98a372775d6e0b6ef5073bed01d46825d81764c4ebdfb90c)#p7fjvzpw",
            "hex": "4104b3264b210659b29bbe648acdebed5f57b9a986659a135b55e27311dfe668c41eca740265c2ca5a6a98a372775d6e0b6ef5073bed01d46825d81764c4ebdfb90cac",
            "type": "pubkey"
          }
        }
      ],
      "hex": "01000000010000000000000000000000000000000000000000000000000000000000000000ffffffff0804ffff001d026d01ffffffff0100f2052a01000000434104b3264b210659b29bbe648acdebed5f57b9a986659a135b55e27311dfe668c41eca740265c2ca5a6a98a372775d6e0b6ef5073bed01d46825d81764c4ebdfb90cac00000000"
    }
  ]
}