{
  "hash": "0000000094a2d84cf38014d6daefa13165aa5f5d737c51f99982c5b41824dfbd",
  "confirmations": 45172,
  "height": 7926,
  "version": 1,
  "versionHex": "00000001",
  "merkleroot": "f343ec4cd7436927dcbfd8a686ee7006ab3c0253a9217e5e1f762f02f8211332",
  "time": 1237412019,
  "mediantime": 1237408582,
  "nonce": 3462296600,
  "bits": "1d00ffff",
  "difficulty": 1,
  "chainwork": "00000000000000000000000000000000000000000000000000001ef71ef71ef7",
  "nTx": 1,
  "previousblockhash": "000000005ad42614c6d52625c7756775b05c0c5445dc487f5fcae5d44a54f850",
  "nextblockhash": "000000007687ab163b55f4c5e8ea7dc2579d8bf89653574e5a1a17c1987c3108",
  "strippedsize": 216,
  "size": 216,
  "weight": 864,
  "tx": [
    {
      "txid": "f343ec4cd7436927dcbfd8a686ee7006ab3c0253a9217e5e1f762f02f8211332",
      "hash": "f343ec4cd7436927dcbfd8a686ee7006ab3c0253a9217e5e1f762f02f8211332",
      "version": 1,
      "size": 135,
      "vsize": 135,
      "weight": 540,
      "locktime": 0,
      "vin": [
        {
          "coinbase": "04ffff001d020208",
          "sequence": 4294967295
        }
      ],
      "vout": [
        {
          "value": 50.0,
          "n": 0,
          "scriptPubKey": {
            "asm": "0459bd95ac51389cc6c9403cb36e61efdb8f20b98421c06bbf37e0bac6af0738d754f58691035c0f02e891fa9f1377f2471ca17fbfae426f7ac982a0dd85f5d2df OP_CHECKSIG",
            "desc": "pk(0459bd95ac51389cc6c9403cb36e61efdb8f20b98421c06bbf37e0bac6af0738d754f58691035c0f02e891fa9f1377f2471ca17fbfae426f7ac982a0dd85f5d2df)#3nvxcxry",
            "hex": "410459bd95ac51389cc6c9403cb36e61efdb8f20b98421c06bbf37e0bac6af0738d754f58691035c0f02e891fa9f1377f2471ca17fbfae426f7ac982a0dd85f5d2dfac",
            "type": "pubkey"
          }
        }
      ],
      "hex": "01000000010000000000000000000000000000000000000000000000000000000000000000ffffffff0804ffff001d020208ffffffff0100f2052a0100000043410459bd95ac51389cc6c9403cb36e61efdb8f20b98421c06bbf37e0bac6af0738d754f58691035c0f02e891fa9f1377f2471ca17fbfae426f7ac982a0dd85f5d2dfac00000000"
    }
  ]
}