{
  "hash": "000000004ca54b877e3c8777063c370ae5f3ff767456b74aa6f700b4424bf219",
  "confirmations": 44862,
  "height": 8236,
  "version": 1,
  "versionHex": "00000001",
  "merkleroot": "1eca32aa35fd22e53c0cddfd96843828e0641a2aef8dca73d3a87c41f67ffcca",
  "time": 1237687832,
  "mediantime": 1237683291,
  "nonce": 198317639,
  "bits": "1d00ffff",
  "difficulty": 1,
  "chainwork": "0000000000000000000000000000000000000000000000000000202d202d202d",
  "nTx": 1,
  "previousblockhash": "000000000efc9a056078950245bbe3d42c2de4c2f4f15780587ffa1f01034a1d",
  "nextblockhash": "00000000ae29af171bbf72e365e4b992ce739a2a2d0244a68bfc2d441ff1e6ea",
  "strippedsize": 216,
  "size": 216,
  "weight": 864,
  "tx": [
    {
      "txid": "1eca32aa35fd22e53c0cddfd96843828e0641a2aef8dca73d3a87c41f67ffcca",
      "hash": "1eca32aa35fd22e53c0cddfd96843828e0641a2aef8dca73d3a87c41f67ffcca",
      "version": 1,
      "size": 135,
      "vsize": 135,
      "weight": 540,
      "locktime": 0,
      "vin": [
        {
          "coinbase": "04ffff001d02f500",
          "sequence": 4294967295
        }
      ],
      "vout": [
        {
          "value": 50.0,
          "n": 0,
          "scriptPubKey": {
            "asm": "04230f51204aa4a05e9fcec9d4bfc0f74c6eebf4af28cc03f12fbb2d539785a3060fb425f0a2de2c17c6f8b5a966c8abdef9f18d9750bf493c9aaf07eef491e71c OP_CHECKSIG",
            "desc": "pk(04230f51204aa4a05e9fcec9d4bfc0f74c6eebf4af28cc03f12fbb2d539785a3060fb425f0a2de2c17c6f8b5a966c8abdef9f18d9750bf493c9aaf07eef491e71c)#qrwjfsj6",
            "hex": "4104230f51204aa4a05e9fcec9d4bfc0f74c6eebf4af28cc03f12fbb2d539785a3060fb425f0a2de2c17c6f8b5a966c8abdef9f18d9750bf493c9aaf07eef491e71cac",
            "type": "pubkey"
          }
        }
      ],
      "hex": "01000000010000000000000000000000000000000000000000000000000000000000000000ffffffff0804ffff001d02f500ffffffff0100f2052a01000000434104230f51204aa4a05e9fcec9d4bfc0f74c6eebf4af28cc03f12fbb2d539785a3060fb425f0a2de2c17c6f8b5a966c8abdef9f18d9750bf493c9aaf07eef491e71cac00000000"
    }
  ]
}