{
  "hash": "00000000d72e6a08414c439b5fa6617dd9528202a586fa252bf9e32733d6843f",
  "confirmations": 46054,
  "height": 7044,
  "version": 1,
  "versionHex": "00000001",
  "merkleroot": "8f7428d44eb4e69ecdb580da7c51af614dbf88f845cb14d463f89e8c2a8cb5d2",
  "time": 1236752455,
  "mediantime": 1236747546,
  "nonce": 161791798,
  "bits": "1d00ffff",
  "difficulty": 1,
  "chainwork": "00000000000000000000000000000000000000000000000000001b851b851b85",
  "nTx": 1,
  "previousblockhash": "0000000071a1fb064c6ea03c5a3e2bda8660f2c853d935c197e03f87d254b4c9",
  "nextblockhash": "00000000a72d798b3fbeaf6eb83b4bdbc340a61e41f5db02c53e2e8903822f6b",
  "strippedsize": 216,
  "size": 216,
  "weight": 864,
  "tx": [
    {
      "txid": "8f7428d44eb4e69ecdb580da7c51af614dbf88f845cb14d463f89e8c2a8cb5d2",
      "hash": "8f7428d44eb4e69ecdb580da7c51af614dbf88f845cb14d463f89e8c2a8cb5d2",
      "version": 1,
      "size": 135,
      "vsize": 135,
      "weight": 540,
      "locktime": 0,
      "vin": [
        {
          "coinbase": "04ffff001d021603",
          "sequence": 4294967295
        }
      ],
      "vout": [
        {
          "value": 50.0,
          "n": 0,
          "scriptPubKey": {
            "asm": "04a451bc07071f5dfc2b30a46d233c2091a4df10ecb706677d5bb28769dc9b04c76c97fe1072f339b465e8bbf5c9ebd8369453afff614e0e953b26e05b223064a5 OP_CHECKSIG",
            "desc": "pk(04a451bc07071f5dfc2b30a46d233c2091a4df10ecb706677d5bb28769dc9b04c76c97fe1072f339b465e8bbf5c9ebd8369453afff614e0e953b26e05b223064a5)#pymzlapa",
            "hex": "4104a451bc07071f5dfc2b30a46d233c2091a4df10ecb706677d5bb28769dc9b04c76c97fe1072f339b465e8bbf5c9ebd8369453afff614e0e953b26e05b223064a5ac",
            "type": "pubkey"
          }
        }
      ],
      "hex": "01000000010000000000000000000000000000000000000000000000000000000000000000ffffffff0804ffff001d021603ffffffff0100f2052a01000000434104a451bc07071f5dfc2b30a46d233c2091a4df10ecb706677d5bb28769dc9b04c76c97fe1072f339b465e8bbf5c9ebd8369453afff614e0e953b26e05b223064a5ac00000000"
    }
  ]
}