{
  "hash": "00000000c16d6d41c658e786371d22c808b1fb366408536dcf80398cf38ff9bd",
  "confirmations": 46948,
  "height": 6150,
  "version": 1,
  "versionHex": "00000001",
  "merkleroot": "45d352556afd810b7dae5cad558f718cf7fa7c4f7750a67e64173c37d52b4c6d",
  "time": 1236048089,
  "mediantime": 1236045721,
  "nonce": 327587641,
  "bits": "1d00ffff",
  "difficulty": 1,
  "chainwork": "0000000000000000000000000000000000000000000000000000180718071807",
  "nTx": 1,
  "previousblockhash": "000000004e7ee6cf17d87ac72252fc752c2c90301fa5928d38d967877af9e457",
  "nextblockhash": "000000008ad1eabd35cf1c4bf69dbfa3adb92b2ceb663458b1b06ceee7dacca8",
  "strippedsize": 216,
  "size": 216,
  "weight": 864,
  "tx": [
    {
      "txid": "45d352556afd810b7dae5cad558f718cf7fa7c4f7750a67e64173c37d52b4c6d",
      "hash": "45d352556afd810b7dae5cad558f718cf7fa7c4f7750a67e64173c37d52b4c6d",
      "version": 1,
      "size": 135,
      "vsize": 135,
      "weight": 540,
      "locktime": 0,
      "vin": [
        {
          "coinbase": "04ffff001d02a907",
          "sequence": 4294967295
        }
      ],
      "vout": [
        {
          "value": 50.0,
          "n": 0,
          "scriptPubKey": {
            "asm": "046353a0d7948d738542567e7691882f10a5de0ca9aa85fc42f0de53ddf729f9963a3f7b9326fe004a887b69c1f4672791b194e9922d5c38e7d676ca9c7acc9039 OP_CHECKSIG",
            "desc": "pk(046353a0d7948d738542567e7691882f10a5de0ca9aa85fc42f0de53ddf729f9963a3f7b9326fe004a887b69c1f4672791b194e9922d5c38e7d676ca9c7acc9039)#lpyj7t8t",
            "hex": "41046353a0d7948d738542567e7691882f10a5de0ca9aa85fc42f0de53ddf729f9963a3f7b9326fe004a887b69c1f4672791b194e9922d5c38e7d676ca9c7acc9039ac",
            "type": "pubkey"
          }
        }
      ],
      "hex": "01000000010000000000000000000000000000000000000000000000000000000000000000ffffffff0804ffff001d02a907ffffffff0100f2052a010000004341046353a0d7948d738542567e7691882f10a5de0ca9aa85fc42f0de53ddf729f9963a3f7b9326fe004a887b69c1f4672791b194e9922d5c38e7d676ca9c7acc9039ac00000000"
    }
  ]
}