{
  "hash": "00000000a7ef095b4e52e6a684eddc6916aaab53ac32c6378408233c8b70ff9f",
  "confirmations": 49895,
  "height": 3203,
  "version": 1,
  "versionHex": "00000001",
  "merkleroot": "036cf4e93c9a61c844daa5fea1ba5ed0f705c2b83c2663a7a7490128b4d00e84",
  "time": 1233903069,
  "mediantime": 1233898905,
  "nonce": 143501437,
  "bits": "1d00ffff",
  "difficulty": 1,
  "chainwork": "00000000000000000000000000000000000000000000000000000c840c840c84",
  "nTx": 1,
  "previousblockhash": "000000002468fc7e0c243e0eef9049a90617baca0cf17186aa5df9d1f15a5f60",
  "nextblockhash": "0000000006c2e5cdba453e0e936acbab80c8e2651ebf98afc30cfdc773aeba06",
  "strippedsize": 216,
  "size": 216,
  "weight": 864,
  "tx": [
    {
      "txid": "036cf4e93c9a61c844daa5fea1ba5ed0f705c2b83c2663a7a7490128b4d00e84",
      "hash": "036cf4e93c9a61c844daa5fea1ba5ed0f705c2b83c2663a7a7490128b4d00e84",
      "version": 1,
      "size": 135,
      "vsize": 135,
      "weight": 540,
      "locktime": 0,
      "vin": [
        {
          "coinbase": "04ffff001d020f05",
          "sequence": 4294967295
        }
      ],
      "vout": [
        {
          "value": 50.0,
          "n": 0,
          "scriptPubKey": {
            "asm": "0414f5cbd4888aef5b41a3c3a436f86c151d276c0b4836fbe881c92b346ea67261aab74bcecbec7a217d0c5ae79d45e2aa5fe97f936f22b0d391de784ffd9577d1 OP_CHECKSIG",
            "desc": "pk(0414f5cbd4888aef5b41a3c3a436f86c151d276c0b4836fbe881c92b346ea67261aab74bcecbec7a217d0c5ae79d45e2aa5fe97f936f22b0d391de784ffd9577d1)#wu35gj7v",
            "hex": "410414f5cbd4888aef5b41a3c3a436f86c151d276c0b4836fbe881c92b346ea67261aab74bcecbec7a217d0c5ae79d45e2aa5fe97f936f22b0d391de784ffd9577d1ac",
            "type": "pubkey"
          }
        }
      ],
      "hex": "01000000010000000000000000000000000000000000000000000000000000000000000000ffffffff0804ffff001d020f05ffffffff0100f2052a0100000043410414f5cbd4888aef5b41a3c3a436f86c151d276c0b4836fbe881c92b346ea67261aab74bcecbec7a217d0c5ae79d45e2aa5fe97f936f22b0d391de784ffd9577d1ac00000000"
    }
  ]
}