{
  "hash": "000000004c6fa7aa02a1f50d51b599a8c40efa663dbc45f092d4ec35a469f823",
  "confirmations": 44086,
  "height": 9012,
  "version": 1,
  "versionHex": "00000001",
  "merkleroot": "97cea32327d358014864c450513f99a782645846284d16626f85cc5ab13c328d",
  "time": 1238259535,
  "mediantime": 1238256638,
  "nonce": 378136832,
  "bits": "1d00ffff",
  "difficulty": 1,
  "chainwork": "0000000000000000000000000000000000000000000000000000233523352335",
  "nTx": 1,
  "previousblockhash": "000000003093404f242deed7393adda6cef961644debc2cf14d2a2bf8759bd1d",
  "nextblockhash": "00000000a2185f1af428c37a1b72cd744761ede6656c601d7bee0de68849c6b2",
  "strippedsize": 216,
  "size": 216,
  "weight": 864,
  "tx": [
    {
      "txid": "97cea32327d358014864c450513f99a782645846284d16626f85cc5ab13c328d",
      "hash": "97cea32327d358014864c450513f99a782645846284d16626f85cc5ab13c328d",
      "version": 1,
      "size": 135,
      "vsize": 135,
      "weight": 540,
      "locktime": 0,
      "vin": [
        {
          "coinbase": "04ffff001d029706",
          "sequence": 4294967295
        }
      ],
      "vout": [
        {
          "value": 50.0,
          "n": 0,
          "scriptPubKey": {
            "asm": "04895f30a60bfa3d251a2c6c88edf0289b37a52503699b61bc6a86f05773977536effb6706e44e3fe60173376d92ff2bdc2a3292b16e190c0de72a0a6984f42760 OP_CHECKSIG",
            "desc": "pk(04895f30a60bfa3d251a2c6c88edf0289b37a52503699b61bc6a86f05773977536effb6706e44e3fe60173376d92ff2bdc2a3292b16e190c0de72a0a6984f42760)#wlxuxqax",
            "hex": "4104895f30a60bfa3d251a2c6c88edf0289b37a52503699b61bc6a86f05773977536effb6706e44e3fe60173376d92ff2bdc2a3292b16e190c0de72a0a6984f42760ac",
            "type": "pubkey"
          }
        }
      ],
      "hex": "01000000010000000000000000000000000000000000000000000000000000000000000000ffffffff0804ffff001d029706ffffffff0100f2052a01000000434104895f30a60bfa3d251a2c6c88edf0289b37a52503699b61bc6a86f05773977536effb6706e44e3fe60173376d92ff2bdc2a3292b16e190c0de72a0a6984f42760ac00000000"
    }
  ]
}