{
  "hash": "00000000a2c3e65a505f4c539f41d3d0d322665d809ccd4e8836cc89a83cdc27",
  "confirmations": 43150,
  "height": 9948,
  "version": 1,
  "versionHex": "00000001",
  "merkleroot": "2d44a12ab5b411d866c1b95fccca2ab771748ac38f73dde36a8df1bad5b7c166",
  "time": 1238954025,
  "mediantime": 1238949200,
  "nonce": 764430638,
  "bits": "1d00ffff",
  "difficulty": 1,
  "chainwork": "000000000000000000000000000000000000000000000000000026dd26dd26dd",
  "nTx": 1,
  "previousblockhash": "000000002a51784919db3733421e9739667fcae3615e9c173c630f21098b05fa",
  "nextblockhash": "00000000ff79b07c729f5802ec8a2d4ee8cea66047c0a8e6f785e8f66072a50d",
  "strippedsize": 216,
  "size": 216,
  "weight": 864,
  "tx": [
    {
      "txid": "2d44a12ab5b411d866c1b95fccca2ab771748ac38f73dde36a8df1bad5b7c166",
      "hash": "2d44a12ab5b411d866c1b95fccca2ab771748ac38f73dde36a8df1bad5b7c166",
      "version": 1,
      "size": 135,
      "vsize": 135,
      "weight": 540,
      "locktime": 0,
      "vin": [
        {
          "coinbase": "04ffff001d02a502",
          "sequence": 4294967295
        }
      ],
      "vout": [
        {
          "value": 50.0,
          "n": 0,
          "scriptPubKey": {
            "asm": "04a20d12340119ad6914f173f1a4f94595b627ccbcc2d344665fb32130ef4a605fcf708ab0334cea08225e6b647c9333c72c89c7b2737d3f1bca6140c2924e74c1 OP_CHECKSIG",
            "desc": "pk(04a20d12340119ad6914f173f1a4f94595b627ccbcc2d344665fb32130ef4a605fcf708ab0334cea08225e6b647c9333c72c89c7b2737d3f1bca6140c2924e74c1)#nhqw5kzx",
            "hex": "4104a20d12340119ad6914f173f1a4f94595b627ccbcc2d344665fb32130ef4a605fcf708ab0334cea08225e6b647c9333c72c89c7b2737d3f1bca6140c2924e74c1ac",
            "type": "pubkey"
          }
        }
      ],
      "hex": "01000000010000000000000000000000000000000000000000000000000000000000000000ffffffff0804ffff001d02a502ffffffff0100f2052a01000000434104a20d12340119ad6914f173f1a4f94595b627ccbcc2d344665fb32130ef4a605fcf708ab0334cea08225e6b647c9333c72c89c7b2737d3f1bca6140c2924e74c1ac00000000"
    }
  ]
}