{
  "hash": "000000002a98484f5fa940d1f5e7c1340d354438d9842b974afdafe56dd773e1",
  "confirmations": 47466,
  "height": 5632,
  "version": 1,
  "versionHex": "00000001",
  "merkleroot": "a5812aeba48eefaf5e6e3012b2d5966c599df2cf959a9d519131d04d5a645cba",
  "time": 1235631973,
  "mediantime": 1235627675,
  "nonce": 2916350465,
  "bits": "1d00ffff",
  "difficulty": 1,
  "chainwork": "0000000000000000000000000000000000000000000000000000160116011601",
  "nTx": 1,
  "previousblockhash": "000000008f8eea4d988b36f4dac1eb2ca51b1ef1800e9747a3ce5e2271bda43c",
  "nextblockhash": "0000000033f505543e0cd672552cd0135d4fb8a10961ff386420a8e9ac5a4779",
  "strippedsize": 216,
  "size": 216,
  "weight": 864,
  "tx": [
    {
      "txid": "a5812aeba48eefaf5e6e3012b2d5966c599df2cf959a9d519131d04d5a645cba",
      "hash": "a5812aeba48eefaf5e6e3012b2d5966c599df2cf959a9d519131d04d5a645cba",
      "version": 1,
      "size": 135,
      "vsize": 135,
      "weight": 540,
      "locktime": 0,
      "vin": [
        {
          "coinbase": "04ffff001d024f08",
          "sequence": 4294967295
        }
      ],
      "vout": [
        {
          "value": 50.0,
          "n": 0,
          "scriptPubKey": {
            "asm": "04f072c9a8ea30a5429b9388b7e513f556c90c9a1be84a829c435517a292c275c466b20fae345c0e8cb7bd6dd04743ccc91fe10611d25cdbb09ac8ea7178b2d853 OP_CHECKSIG",
            "desc": "pk(04f072c9a8ea30a5429b9388b7e513f556c90c9a1be84a829c435517a292c275c466b20fae345c0e8cb7bd6dd04743ccc91fe10611d25cdbb09ac8ea7178b2d853)#mgkfz0h0",
            "hex": "4104f072c9a8ea30a5429b9388b7e513f556c90c9a1be84a829c435517a292c275c466b20fae345c0e8cb7bd6dd04743ccc91fe10611d25cdbb09ac8ea7178b2d853ac",
            "type": "pubkey"
          }
        }
      ],
      "hex": "01000000010000000000000000000000000000000000000000000000000000000000000000ffffffff0804ffff001d024f08ffffffff0100f2052a01000000434104f072c9a8ea30a5429b9388b7e513f556c90c9a1be84a829c435517a292c275c466b20fae345c0e8cb7bd6dd04743ccc91fe10611d25cdbb09ac8ea7178b2d853ac00000000"
    }
  ]
}