{
  "hash": "00000000284bcd658fd7a76f5a88ee526f18592251341a05fd7f3d7abaf0c3ec",
  "confirmations": 48097,
  "height": 5001,
  "version": 1,
  "versionHex": "00000001",
  "merkleroot": "0975bba9292a9a6ba5dcd0f83aabf014a280124b338566d0dcd546491f65b1bd",
  "time": 1235136619,
  "mediantime": 1235134092,
  "nonce": 2560577594,
  "bits": "1d00ffff",
  "difficulty": 1,
  "chainwork": "0000000000000000000000000000000000000000000000000000138a138a138a",
  "nTx": 1,
  "previousblockhash": "000000004d78d2a8a93a1d20a24d721268690bebd2b51f7e80657d57e226eef9",
  "nextblockhash": "0000000058c93b07908de1a99f12593a18c0dbdcfd912c2327ecd36a6bac0c8c",
  "strippedsize": 216,
  "size": 216,
  "weight": 864,
  "tx": [
    {
      "txid": "0975bba9292a9a6ba5dcd0f83aabf014a280124b338566d0dcd546491f65b1bd",
      "hash": "0975bba9292a9a6ba5dcd0f83aabf014a280124b338566d0dcd546491f65b1bd",
      "version": 1,
      "size": 135,
      "vsize": 135,
      "weight": 540,
      "locktime": 0,
      "vin": [
        {
          "coinbase": "04ffff001d020007",
          "sequence": 4294967295
        }
      ],
      "vout": [
        {
          "value": 50.0,
          "n": 0,
          "scriptPubKey": {
            "asm": "04e4a766f69bf478dfea119851a9d794a244109ab9dd3a3134cc589073fd053df9fd5cc3a88d0103e13b7e45bb0fd253a32b1578c4038f8a5e960599d3f77a40bb OP_CHECKSIG",
            "desc": "pk(04e4a766f69bf478dfea119851a9d794a244109ab9dd3a3134cc589073fd053df9fd5cc3a88d0103e13b7e45bb0fd253a32b1578c4038f8a5e960599d3f77a40bb)#7xgw2uun",
            "hex": "4104e4a766f69bf478dfea119851a9d794a244109ab9dd3a3134cc589073fd053df9fd5cc3a88d0103e13b7e45bb0fd253a32b1578c4038f8a5e960599d3f77a40bbac",
            "type": "pubkey"
          }
        }
      ],
      "hex": "01000000010000000000000000000000000000000000000000000000000000000000000000ffffffff0804ffff001d020007ffffffff0100f2052a01000000434104e4a766f69bf478dfea119851a9d794a244109ab9dd3a3134cc589073fd053df9fd5cc3a88d0103e13b7e45bb0fd253a32b1578c4038f8a5e960599d3f77a40bbac00000000"
    }
  ]
}