{
  "hash": "00000000ca2be0b2535ca0dc5b74a3d59f3209f664c3c6dd016d227d31548995",
  "confirmations": 43498,
  "height": 9600,
  "version": 1,
  "versionHex": "00000001",
  "merkleroot": "2c783cca680f1766fd0ef1c980bb96a33911aab2ad29bdbdfea72d6a986e2823",
  "time": 1238700831,
  "mediantime": 1238696692,
  "nonce": 1009528832,
  "bits": "1d00ffff",
  "difficulty": 1,
  "chainwork": "0000000000000000000000000000000000000000000000000000258125812581",
  "nTx": 1,
  "previousblockhash": "00000000ebf49c30f01d0508174e84dd9b9fabe8a518ec316eb538d834cfdf00",
  "nextblockhash": "00000000cad779b7ff1028ba66f4216ae112ea9a5e7ea26f109480887e3ff5c6",
  "strippedsize": 216,
  "size": 216,
  "weight": 864,
  "tx": [
    {
      "txid": "2c783cca680f1766fd0ef1c980bb96a33911aab2ad29bdbdfea72d6a986e2823",
      "hash": "2c783cca680f1766fd0ef1c980bb96a33911aab2ad29bdbdfea72d6a986e2823",
      "version": 1,
      "size": 135,
      "vsize": 135,
      "weight": 540,
      "locktime": 0,
      "vin": [
        {
          "coinbase": "04ffff001d021507",
          "sequence": 4294967295
        }
      ],
      "vout": [
        {
          "value": 50.0,
          "n": 0,
          "scriptPubKey": {
            "asm": "04e3a853a4cc1c944df491a295548006c6461c6060101715be68617423cbc7abb324a366008c10a53495b621113ff5c5a69e080178378623869814223473f35729 OP_CHECKSIG",
            "desc": "pk(04e3a853a4cc1c944df491a295548006c6461c6060101715be68617423cbc7abb324a366008c10a53495b621113ff5c5a69e080178378623869814223473f35729)#my88ey4e",
            "hex": "4104e3a853a4cc1c944df491a295548006c6461c6060101715be68617423cbc7abb324a366008c10a53495b621113ff5c5a69e080178378623869814223473f35729ac",
            "type": "pubkey"
          }
        }
      ],
      "hex": "01000000010000000000000000000000000000000000000000000000000000000000000000ffffffff0804ffff001d021507ffffffff0100f2052a01000000434104e3a853a4cc1c944df491a295548006c6461c6060101715be68617423cbc7abb324a366008c10a53495b621113ff5c5a69e080178378623869814223473f35729ac00000000"
    }
  ]
}