{
  "hash": "00000000d210725e12df9669ee4d5e9bfff357dc08670264f733d47ce4cce9db",
  "confirmations": 52164,
  "height": 465,
  "version": 1,
  "versionHex": "00000001",
  "merkleroot": "ad3ad5d08e433103e0be2ca5cf8159eb8d416a37edc45fe0dd9b3bca221ae974",
  "time": 1231944968,
  "mediantime": 1231943631,
  "nonce": 89719246,
  "bits": "1d00ffff",
  "difficulty": 1,
  "chainwork": "000000000000000000000000000000000000000000000000000001d201d201d2",
  "nTx": 1,
  "previousblockhash": "000000009f02fc0ad2cbbc173f83b9db831a6a0956754784020b31e336d91081",
  "nextblockhash": "000000005f919738051b00a5d428f0c8074629dc634e1947f28dbeab8bdd2ba2",
  "strippedsize": 215,
  "size": 215,
  "weight": 860,
  "tx": [
    {
      "txid": "ad3ad5d08e433103e0be2ca5cf8159eb8d416a37edc45fe0dd9b3bca221ae974",
      "hash": "ad3ad5d08e433103e0be2ca5cf8159eb8d416a37edc45fe0dd9b3bca221ae974",
      "version": 1,
      "size": 134,
      "vsize": 134,
      "weight": 536,
      "locktime": 0,
      "vin": [
        {
          "coinbase": "04ffff001d0150",
          "sequence": 4294967295
        }
      ],
      "vout": [
        {
          "value": 50.0,
          "n": 0,
          "scriptPubKey": {
            "asm": "04222cdcba67350ae6ccf038dfb335648bb439d64b212dd1cd3a5ee112ff76de25d026214c36877577fd9eb4fafa6d52100367256f54157be4b339a8f49837206e OP_CHECKSIG",
            "desc": "pk(04222cdcba67350ae6ccf038dfb335648bb439d64b212dd1cd3a5ee112ff76de25d026214c36877577fd9eb4fafa6d52100367256f54157be4b339a8f49837206e)#w5tse5ts",
            "hex": "4104222cdcba67350ae6ccf038dfb335648bb439d64b212dd1cd3a5ee112ff76de25d026214c36877577fd9eb4fafa6d52100367256f54157be4b339a8f49837206eac",
            "type": "pubkey"
          }
        }
      ],
      "hex": "01000000010000000000000000000000000000000000000000000000000000000000000000ffffffff0704ffff001d0150ffffffff0100f2052a01000000434104222cdcba67350ae6ccf038dfb335648bb439d64b212dd1cd3a5ee112ff76de25d026214c36877577fd9eb4fafa6d52100367256f54157be4b339a8f49837206eac00000000"
    }
  ]
}