{
  "hash": "000000003b22251a4f456dcc27c4acdd8dd2b8832a0ddf410d8f864304c2c888",
  "confirmations": 52299,
  "height": 799,
  "version": 1,
  "versionHex": "00000001",
  "merkleroot": "b6c5e7358116010ec0d19032d3b9ed053c569eec250835cedc459de3eae2bb8a",
  "time": 1232193674,
  "mediantime": 1232187625,
  "nonce": 1936789296,
  "bits": "1d00ffff",
  "difficulty": 1,
  "chainwork": "0000000000000000000000000000000000000000000000000000032003200320",
  "nTx": 1,
  "previousblockhash": "000000005475f9938641f78a7c167f7a9f792a78e98c79b16e516dee149aa024",
  "nextblockhash": "00000000def8545899ea7274e5c59bda5982f8f960052774df45b7d5c64f9c5d",
  "strippedsize": 216,
  "size": 216,
  "weight": 864,
  "tx": [
    {
      "txid": "b6c5e7358116010ec0d19032d3b9ed053c569eec250835cedc459de3eae2bb8a",
      "hash": "b6c5e7358116010ec0d19032d3b9ed053c569eec250835cedc459de3eae2bb8a",
      "version": 1,
      "size": 135,
      "vsize": 135,
      "weight": 540,
      "locktime": 0,
      "vin": [
        {
          "coinbase": "04ffff001d027f01",
          "sequence": 4294967295
        }
      ],
      "vout": [
        {
          "value": 50.0,
          "n": 0,
          "scriptPubKey": {
            "asm": "04c0ec9f6a2b67ac8c9a18379f29ca861374ee1105cad63969fdf10472f707c1cd5c12436a11f29c14e6d6791ac9455bb473d69aa308e980649417b6880e162f84 OP_CHECKSIG",
            "desc": "pk(04c0ec9f6a2b67ac8c9a18379f29ca861374ee1105cad63969fdf10472f707c1cd5c12436a11f29c14e6d6791ac9455bb473d69aa308e980649417b6880e162f84)#8rjl0tx4",
            "hex": "4104c0ec9f6a2b67ac8c9a18379f29ca861374ee1105cad63969fdf10472f707c1cd5c12436a11f29c14e6d6791ac9455bb473d69aa308e980649417b6880e162f84ac",
            "type": "pubkey"
          }
        }
      ],
      "hex": "01000000010000000000000000000000000000000000000000000000000000000000000000ffffffff0804ffff001d027f01ffffffff0100f2052a01000000434104c0ec9f6a2b67ac8c9a18379f29ca861374ee1105cad63969fdf10472f707c1cd5c12436a11f29c14e6d6791ac9455bb473d69aa308e980649417b6880e162f84ac00000000"
    }
  ]
}