{
  "hash": "00000000903d5d9237c26b3fec535f33683f0fe9be9900340515a0de2197aac5",
  "confirmations": 51529,
  "height": 1569,
  "version": 1,
  "versionHex": "00000001",
  "merkleroot": "0d677c8f3ee3b80b759386129f54ee180acbf9a96cecaff09e969c843f491b4c",
  "time": 1232797851,
  "mediantime": 1232796149,
  "nonce": 1379749892,
  "bits": "1d00ffff",
  "difficulty": 1,
  "chainwork": "0000000000000000000000000000000000000000000000000000062206220622",
  "nTx": 1,
  "previousblockhash": "00000000ccec6f00abb89a5da07c8202559af96ca268f04f706693b779c197a4",
  "nextblockhash": "00000000515e2d36a0b202ecfe4c8d72750c47f8dff761272097ab2a8d6a24db",
  "strippedsize": 216,
  "size": 216,
  "weight": 864,
  "tx": [
    {
      "txid": "0d677c8f3ee3b80b759386129f54ee180acbf9a96cecaff09e969c843f491b4c",
      "hash": "0d677c8f3ee3b80b759386129f54ee180acbf9a96cecaff09e969c843f491b4c",
      "version": 1,
      "size": 135,
      "vsize": 135,
      "weight": 540,
      "locktime": 0,
      "vin": [
        {
          "coinbase": "04ffff001d02e601",
          "sequence": 4294967295
        }
      ],
      "vout": [
        {
          "value": 50.0,
          "n": 0,
          "scriptPubKey": {
            "asm": "040f7c69fdd60bf57a58040b1e5c7ed773837ae83ddfb59a09f1280fee5ac0969f7bfc360601b8b64a346e80fbe25273b60cbf14391923a93baaa3b04a9ba30057 OP_CHECKSIG",
            "desc": "pk(040f7c69fdd60bf57a58040b1e5c7ed773837ae83ddfb59a09f1280fee5ac0969f7bfc360601b8b64a346e80fbe25273b60cbf14391923a93baaa3b04a9ba30057)#ud0vpx35",
            "hex": "41040f7c69fdd60bf57a58040b1e5c7ed773837ae83ddfb59a09f1280fee5ac0969f7bfc360601b8b64a346e80fbe25273b60cbf14391923a93baaa3b04a9ba30057ac",
            "type": "pubkey"
          }
        }
      ],
      "hex": "01000000010000000000000000000000000000000000000000000000000000000000000000ffffffff0804ffff001d02e601ffffffff0100f2052a010000004341040f7c69fdd60bf57a58040b1e5c7ed773837ae83ddfb59a09f1280fee5ac0969f7bfc360601b8b64a346e80fbe25273b60cbf14391923a93baaa3b04a9ba30057ac00000000"
    }
  ]
}