{
  "hash": "000000005306af166149744b0fc04e9fcf561b2669ffcd026355750a007a89f8",
  "confirmations": 49992,
  "height": 3106,
  "version": 1,
  "versionHex": "00000001",
  "merkleroot": "9d31f433b281a43569d2f5af6552ccc88da6a32783f8e05a88a0e2110391cc50",
  "time": 1233839523,
  "mediantime": 1233834827,
  "nonce": 150060878,
  "bits": "1d00ffff",
  "difficulty": 1,
  "chainwork": "00000000000000000000000000000000000000000000000000000c230c230c23",
  "nTx": 1,
  "previousblockhash": "00000000728d8d5a898b120f1538dc68e4df44fe486cc91e6a172b65a75aeb04",
  "nextblockhash": "000000006d7aa7b2a57502a9fdf8df7781011c74138372c16233b21d80be0e17",
  "strippedsize": 215,
  "size": 215,
  "weight": 860,
  "tx": [
    {
      "txid": "9d31f433b281a43569d2f5af6552ccc88da6a32783f8e05a88a0e2110391cc50",
      "hash": "9d31f433b281a43569d2f5af6552ccc88da6a32783f8e05a88a0e2110391cc50",
      "version": 1,
      "size": 134,
      "vsize": 134,
      "weight": 536,
      "locktime": 0,
      "vin": [
        {
          "coinbase": "04ffff001d010e",
          "sequence": 4294967295
        }
      ],
      "vout": [
        {
          "value": 50.0,
          "n": 0,
          "scriptPubKey": {
            "asm": "04d88350e1a24a8e3b61d349ec38b405eb8df1a7c3dd4e7eec04e9844379c077807de4252616397c7982333752542c741181927ac6e076245ee47c178133e7eb96 OP_CHECKSIG",
            "desc": "pk(04d88350e1a24a8e3b61d349ec38b405eb8df1a7c3dd4e7eec04e9844379c077807de4252616397c7982333752542c741181927ac6e076245ee47c178133e7eb96)#2ga9ftv5",
            "hex": "4104d88350e1a24a8e3b61d349ec38b405eb8df1a7c3dd4e7eec04e9844379c077807de4252616397c7982333752542c741181927ac6e076245ee47c178133e7eb96ac",
            "type": "pubkey"
          }
        }
      ],
      "hex": "01000000010000000000000000000000000000000000000000000000000000000000000000ffffffff0704ffff001d010effffffff0100f2052a01000000434104d88350e1a24a8e3b61d349ec38b405eb8df1a7c3dd4e7eec04e9844379c077807de4252616397c7982333752542c741181927ac6e076245ee47c178133e7eb96ac00000000"
    }
  ]
}