{
  "hash": "00000000dad22f80e7a1cbb83690b4ac00de1a1a00125dc536eb084d71c550b4",
  "confirmations": 43767,
  "height": 9331,
  "version": 1,
  "versionHex": "00000001",
  "merkleroot": "6a310cf67d8deadcbdbdf4ad2c86df58a59e35b6a8d22af8ff1e56dc0c6570bd",
  "time": 1238497937,
  "mediantime": 1238493276,
  "nonce": 1762730804,
  "bits": "1d00ffff",
  "difficulty": 1,
  "chainwork": "0000000000000000000000000000000000000000000000000000247424742474",
  "nTx": 1,
  "previousblockhash": "0000000095b78bacd196e1ca586236a82c1ee91e7e07984e580bf1d8fee56ddc",
  "nextblockhash": "000000002fa9f963ce14897a499814b22027b4c18442f4b5075b505a36e61a51",
  "strippedsize": 216,
  "size": 216,
  "weight": 864,
  "tx": [
    {
      "txid": "6a310cf67d8deadcbdbdf4ad2c86df58a59e35b6a8d22af8ff1e56dc0c6570bd",
      "hash": "6a310cf67d8deadcbdbdf4ad2c86df58a59e35b6a8d22af8ff1e56dc0c6570bd",
      "version": 1,
      "size": 135,
      "vsize": 135,
      "weight": 540,
      "locktime": 0,
      "vin": [
        {
          "coinbase": "04ffff001d024f02",
          "sequence": 4294967295
        }
      ],
      "vout": [
        {
          "value": 50.0,
          "n": 0,
          "scriptPubKey": {
            "asm": "04d2f9190d3f8507cc967c54dd1235a3a7fe4e3823de3bd873f3c8277fecd317c59a9ec0818e68a36eb93f6f4cbdb5b67bb661fd02fada5e0417ece0a3f181a71b OP_CHECKSIG",
            "desc": "pk(04d2f9190d3f8507cc967c54dd1235a3a7fe4e3823de3bd873f3c8277fecd317c59a9ec0818e68a36eb93f6f4cbdb5b67bb661fd02fada5e0417ece0a3f181a71b)#v6wy30cn",
            "hex": "4104d2f9190d3f8507cc967c54dd1235a3a7fe4e3823de3bd873f3c8277fecd317c59a9ec0818e68a36eb93f6f4cbdb5b67bb661fd02fada5e0417ece0a3f181a71bac",
            "type": "pubkey"
          }
        }
      ],
      "hex": "01000000010000000000000000000000000000000000000000000000000000000000000000ffffffff0804ffff001d024f02ffffffff0100f2052a01000000434104d2f9190d3f8507cc967c54dd1235a3a7fe4e3823de3bd873f3c8277fecd317c59a9ec0818e68a36eb93f6f4cbdb5b67bb661fd02fada5e0417ece0a3f181a71bac00000000"
    }
  ]
}