{
  "hash": "0000000007671d4cba889f9e90a257e677e94ac7f0017c9f9ab29147ef35e914",
  "confirmations": 48243,
  "height": 4855,
  "version": 1,
  "versionHex": "00000001",
  "merkleroot": "1b187bb7cdec3aa1545db853b2e2ac596581f9ebc5ab8b3e0aed925e08eadf03",
  "time": 1235040504,
  "mediantime": 1235037688,
  "nonce": 1116427568,
  "bits": "1d00ffff",
  "difficulty": 1,
  "chainwork": "000000000000000000000000000000000000000000000000000012f812f812f8",
  "nTx": 1,
  "previousblockhash": "000000001752b2542957c901d683b12cd966372f4f3d576eeada4ceaea6f057f",
  "nextblockhash": "00000000d3a1b028ae3fc1b4dc9d360a653394ce7375ed392963cad4ea4135ef",
  "strippedsize": 216,
  "size": 216,
  "weight": 864,
  "tx": [
    {
      "txid": "1b187bb7cdec3aa1545db853b2e2ac596581f9ebc5ab8b3e0aed925e08eadf03",
      "hash": "1b187bb7cdec3aa1545db853b2e2ac596581f9ebc5ab8b3e0aed925e08eadf03",
      "version": 1,
      "size": 135,
      "vsize": 135,
      "weight": 540,
      "locktime": 0,
      "vin": [
        {
          "coinbase": "04ffff001d021f05",
          "sequence": 4294967295
        }
      ],
      "vout": [
        {
          "value": 50.0,
          "n": 0,
          "scriptPubKey": {
            "asm": "04698d41ce3dc73bef13b314dc4f498ee25decdb4ee18ba191e7e9296e9c980f010030020a99a03ccb0da79046bb6b3c9ad9ceb7063528e9707e747622bfe0d569 OP_CHECKSIG",
            "desc": "pk(04698d41ce3dc73bef13b314dc4f498ee25decdb4ee18ba191e7e9296e9c980f010030020a99a03ccb0da79046bb6b3c9ad9ceb7063528e9707e747622bfe0d569)#jmyjfdcn",
            "hex": "4104698d41ce3dc73bef13b314dc4f498ee25decdb4ee18ba191e7e9296e9c980f010030020a99a03ccb0da79046bb6b3c9ad9ceb7063528e9707e747622bfe0d569ac",
            "type": "pubkey"
          }
        }
      ],
      "hex": "01000000010000000000000000000000000000000000000000000000000000000000000000ffffffff0804ffff001d021f05ffffffff0100f2052a01000000434104698d41ce3dc73bef13b314dc4f498ee25decdb4ee18ba191e7e9296e9c980f010030020a99a03ccb0da79046bb6b3c9ad9ceb7063528e9707e747622bfe0d569ac00000000"
    }
  ]
}