{
  "hash": "00000000b657947b4fee40933358d97b9ec6b2130083d1346fd5e0607d2c5941",
  "confirmations": 51365,
  "height": 1733,
  "version": 1,
  "versionHex": "00000001",
  "merkleroot": "6ce16e98b9442a868aa7bd8d8e4a3cba637530f365c13ac592d7757e92644e37",
  "time": 1232866247,
  "mediantime": 1232863843,
  "nonce": 417681946,
  "bits": "1d00ffff",
  "difficulty": 1,
  "chainwork": "000000000000000000000000000000000000000000000000000006c606c606c6",
  "nTx": 1,
  "previousblockhash": "0000000025de8cfd005b4e2e485ad0838870d9158ffcc350a3179e469920e3a3",
  "nextblockhash": "00000000e83a8dccb7792a9597503bfbfb08a6310df0a997b3921e3e3e9fa843",
  "strippedsize": 216,
  "size": 216,
  "weight": 864,
  "tx": [
    {
      "txid": "6ce16e98b9442a868aa7bd8d8e4a3cba637530f365c13ac592d7757e92644e37",
      "hash": "6ce16e98b9442a868aa7bd8d8e4a3cba637530f365c13ac592d7757e92644e37",
      "version": 1,
      "size": 135,
      "vsize": 135,
      "weight": 540,
      "locktime": 0,
      "vin": [
        {
          "coinbase": "04ffff001d026503",
          "sequence": 4294967295
        }
      ],
      "vout": [
        {
          "value": 50.0,
          "n": 0,
          "scriptPubKey": {
            "asm": "046c63ad8d9c587f29d984f655a622f792fb6ab78a334103442447553ea820b3168d5c15e77502a25426cfcbd6d0d71a7a4c75c6ee638f963f3a47f299a2bc0430 OP_CHECKSIG",
            "desc": "pk(046c63ad8d9c587f29d984f655a622f792fb6ab78a334103442447553ea820b3168d5c15e77502a25426cfcbd6d0d71a7a4c75c6ee638f963f3a47f299a2bc0430)#f90fnnjr",
            "hex": "41046c63ad8d9c587f29d984f655a622f792fb6ab78a334103442447553ea820b3168d5c15e77502a25426cfcbd6d0d71a7a4c75c6ee638f963f3a47f299a2bc0430ac",
            "type": "pubkey"
          }
        }
      ],
      "hex": "01000000010000000000000000000000000000000000000000000000000000000000000000ffffffff0804ffff001d026503ffffffff0100f2052a010000004341046c63ad8d9c587f29d984f655a622f792fb6ab78a334103442447553ea820b3168d5c15e77502a25426cfcbd6d0d71a7a4c75c6ee638f963f3a47f299a2bc0430ac00000000"
    }
  ]
}