{
  "hash": "00000000310b793ce799123bb96bb4eabb46940b705d964b789137c7d0aa83e8",
  "confirmations": 49086,
  "height": 4012,
  "version": 1,
  "versionHex": "00000001",
  "merkleroot": "b3e6747f0683c9c7c278890a049d8ed349036efd36532dc97afb2a58e9f3aab2",
  "time": 1234449783,
  "mediantime": 1234443549,
  "nonce": 2114682908,
  "bits": "1d00ffff",
  "difficulty": 1,
  "chainwork": "00000000000000000000000000000000000000000000000000000fad0fad0fad",
  "nTx": 1,
  "previousblockhash": "0000000042e3a31c352dafe659cbbac90e425c5872dae689db4e5f75871e08f3",
  "nextblockhash": "00000000b731a2e5d5868185288342976e947d4e2ae0def9f38d5955d44efa6b",
  "strippedsize": 216,
  "size": 216,
  "weight": 864,
  "tx": [
    {
      "txid": "b3e6747f0683c9c7c278890a049d8ed349036efd36532dc97afb2a58e9f3aab2",
      "hash": "b3e6747f0683c9c7c278890a049d8ed349036efd36532dc97afb2a58e9f3aab2",
      "version": 1,
      "size": 135,
      "vsize": 135,
      "weight": 540,
      "locktime": 0,
      "vin": [
        {
          "coinbase": "04ffff001d028704",
          "sequence": 4294967295
        }
      ],
      "vout": [
        {
          "value": 50.0,
          "n": 0,
          "scriptPubKey": {
            "asm": "04b62cc4268ac17e110e09fc6619a79d6e1034efeb7bcba5a8aa1203c58da6ca109d471a9ba756129ef9f47ad36216804e0083f9f67a81a7fe0ff10e53d91085a4 OP_CHECKSIG",
            "desc": "pk(04b62cc4268ac17e110e09fc6619a79d6e1034efeb7bcba5a8aa1203c58da6ca109d471a9ba756129ef9f47ad36216804e0083f9f67a81a7fe0ff10e53d91085a4)#eye0t7xh",
            "hex": "4104b62cc4268ac17e110e09fc6619a79d6e1034efeb7bcba5a8aa1203c58da6ca109d471a9ba756129ef9f47ad36216804e0083f9f67a81a7fe0ff10e53d91085a4ac",
            "type": "pubkey"
          }
        }
      ],
      "hex": "01000000010000000000000000000000000000000000000000000000000000000000000000ffffffff0804ffff001d028704ffffffff0100f2052a01000000434104b62cc4268ac17e110e09fc6619a79d6e1034efeb7bcba5a8aa1203c58da6ca109d471a9ba756129ef9f47ad36216804e0083f9f67a81a7fe0ff10e53d91085a4ac00000000"
    }
  ]
}