{
  "hash": "000000006d562551f8040cdd043feed3d6a0147fd6d56147e06bd62c266c80f4",
  "confirmations": 46700,
  "height": 6398,
  "version": 1,
  "versionHex": "00000001",
  "merkleroot": "2923e1aec82014f386bc15eb44e9b65cb600fc5a19adb4e9189403e3f54ff4b5",
  "time": 1236254163,
  "mediantime": 1236250283,
  "nonce": 3106345242,
  "bits": "1d00ffff",
  "difficulty": 1,
  "chainwork": "000000000000000000000000000000000000000000000000000018ff18ff18ff",
  "nTx": 1,
  "previousblockhash": "00000000d099d910dfdc0f12c7b2737b47fa528fb04dd25548ee0e78309e4e05",
  "nextblockhash": "00000000b8a3e3ea56754658585a3714cdf761547687159ae4026328cd50f082",
  "strippedsize": 216,
  "size": 216,
  "weight": 864,
  "tx": [
    {
      "txid": "2923e1aec82014f386bc15eb44e9b65cb600fc5a19adb4e9189403e3f54ff4b5",
      "hash": "2923e1aec82014f386bc15eb44e9b65cb600fc5a19adb4e9189403e3f54ff4b5",
      "version": 1,
      "size": 135,
      "vsize": 135,
      "weight": 540,
      "locktime": 0,
      "vin": [
        {
          "coinbase": "04ffff001d02c401",
          "sequence": 4294967295
        }
      ],
      "vout": [
        {
          "value": 50.0,
          "n": 0,
          "scriptPubKey": {
            "asm": "04ce81d74a51133303796ea0be7c6fdea587ea5f077ab973c36580424fff4d82a5d508f56e466d721803903fbbfe1ba65e5bb913f31c307e92a528689392485c0d OP_CHECKSIG",
            "desc": "pk(04ce81d74a51133303796ea0be7c6fdea587ea5f077ab973c36580424fff4d82a5d508f56e466d721803903fbbfe1ba65e5bb913f31c307e92a528689392485c0d)#9333npl9",
            "hex": "4104ce81d74a51133303796ea0be7c6fdea587ea5f077ab973c36580424fff4d82a5d508f56e466d721803903fbbfe1ba65e5bb913f31c307e92a528689392485c0dac",
            "type": "pubkey"
          }
        }
      ],
      "hex": "01000000010000000000000000000000000000000000000000000000000000000000000000ffffffff0804ffff001d02c401ffffffff0100f2052a01000000434104ce81d74a51133303796ea0be7c6fdea587ea5f077ab973c36580424fff4d82a5d508f56e466d721803903fbbfe1ba65e5bb913f31c307e92a528689392485c0dac00000000"
    }
  ]
}