{
  "hash": "0000000089e879d9772af27fe8ceee2c54c2ff8df5e9247a7a1cf21bdf009a69",
  "confirmations": 51402,
  "height": 1696,
  "version": 1,
  "versionHex": "00000001",
  "merkleroot": "4d8f3a4f323bcf34b5626dfef0c5bda2e77b86ed26763439231ad35395cd96af",
  "time": 1232851095,
  "mediantime": 1232849444,
  "nonce": 2508680229,
  "bits": "1d00ffff",
  "difficulty": 1,
  "chainwork": "000000000000000000000000000000000000000000000000000006a106a106a1",
  "nTx": 1,
  "previousblockhash": "00000000dd4469f0ce7cdd35cbaeab1cc6db413ad690bbba24ed1effe2530312",
  "nextblockhash": "00000000c0a1b54e1db9b30863ebb8f2c5eb529539e4db1d012862fa06fda081",
  "strippedsize": 216,
  "size": 216,
  "weight": 864,
  "tx": [
    {
      "txid": "4d8f3a4f323bcf34b5626dfef0c5bda2e77b86ed26763439231ad35395cd96af",
      "hash": "4d8f3a4f323bcf34b5626dfef0c5bda2e77b86ed26763439231ad35395cd96af",
      "version": 1,
      "size": 135,
      "vsize": 135,
      "weight": 540,
      "locktime": 0,
      "vin": [
        {
          "coinbase": "04ffff001d021903",
          "sequence": 4294967295
        }
      ],
      "vout": [
        {
          "value": 50.0,
          "n": 0,
          "scriptPubKey": {
            "asm": "04924dcc9d4c023e0ed3b14b3624a21f536fe1856733dae8f66c89a469afec1b3c9eb124687ef4b8ee8871a3d3abf5c3669c98b1f829d332e3faced3b7729cbf59 OP_CHECKSIG",
            "desc": "pk(04924dcc9d4c023e0ed3b14b3624a21f536fe1856733dae8f66c89a469afec1b3c9eb124687ef4b8ee8871a3d3abf5c3669c98b1f829d332e3faced3b7729cbf59)#upn4qjj6",
            "hex": "4104924dcc9d4c023e0ed3b14b3624a21f536fe1856733dae8f66c89a469afec1b3c9eb124687ef4b8ee8871a3d3abf5c3669c98b1f829d332e3faced3b7729cbf59ac",
            "type": "pubkey"
          }
        }
      ],
      "hex": "01000000010000000000000000000000000000000000000000000000000000000000000000ffffffff0804ffff001d021903ffffffff0100f2052a01000000434104924dcc9d4c023e0ed3b14b3624a21f536fe1856733dae8f66c89a469afec1b3c9eb124687ef4b8ee8871a3d3abf5c3669c98b1f829d332e3faced3b7729cbf59ac00000000"
    }
  ]
}