{
  "hash": "0000000098efe4e81ec5fd517ba429722d776ae5fd04aceae90a2e43bc0572b7",
  "confirmations": 52047,
  "height": 289,
  "version": 1,
  "versionHex": "00000001",
  "merkleroot": "98dea46312e3d10984695fc127056ffd266b607ef4018bc65cd9576013a4bdd3",
  "time": 1231824272,
  "mediantime": 1231820141,
  "nonce": 2762012209,
  "bits": "1d00ffff",
  "difficulty": 1,
  "chainwork": "0000000000000000000000000000000000000000000000000000012201220122",
  "nTx": 1,
  "previousblockhash": "00000000dc16c2db339f647ab31cad9d5639ba064272083debddebd2dcfb44ef",
  "nextblockhash": "00000000d3e87c5021f142864817c02b5fd52b8f271d26740f1fe629b13b5333",
  "strippedsize": 215,
  "size": 215,
  "weight": 860,
  "tx": [
    {
      "txid": "98dea46312e3d10984695fc127056ffd266b607ef4018bc65cd9576013a4bdd3",
      "hash": "98dea46312e3d10984695fc127056ffd266b607ef4018bc65cd9576013a4bdd3",
      "version": 1,
      "size": 134,
      "vsize": 134,
      "weight": 536,
      "locktime": 0,
      "vin": [
        {
          "coinbase": "04ffff001d013f",
          "sequence": 4294967295
        }
      ],
      "vout": [
        {
          "value": 50.0,
          "n": 0,
          "scriptPubKey": {
            "asm": "045ab2622eda3d5668d3faaafce720df50ea3f9d41220be902216c6e794a2549e8fadb67aee7151abbd13da9830a586dfa7a29e2a2480c9cf61ee44726076977df OP_CHECKSIG",
            "desc": "pk(045ab2622eda3d5668d3faaafce720df50ea3f9d41220be902216c6e794a2549e8fadb67aee7151abbd13da9830a586dfa7a29e2a2480c9cf61ee44726076977df)#j6fu63ny",
            "hex": "41045ab2622eda3d5668d3faaafce720df50ea3f9d41220be902216c6e794a2549e8fadb67aee7151abbd13da9830a586dfa7a29e2a2480c9cf61ee44726076977dfac",
            "type": "pubkey"
          }
        }
      ],
      "hex": "01000000010000000000000000000000000000000000000000000000000000000000000000ffffffff0704ffff001d013fffffffff0100f2052a010000004341045ab2622eda3d5668d3faaafce720df50ea3f9d41220be902216c6e794a2549e8fadb67aee7151abbd13da9830a586dfa7a29e2a2480c9cf61ee44726076977dfac00000000"
    }
  ]
}