{
  "hash": "0000000083a0c39422ed93422badb3f877fba97199b42ec7e7c7054e921e90f2",
  "confirmations": 52399,
  "height": 699,
  "version": 1,
  "versionHex": "00000001",
  "merkleroot": "e47741cc9eb5f7c91c86e253f2b05ba7576fb1347f874314bf6db3cc0280e5ed",
  "time": 1232108064,
  "mediantime": 1232103990,
  "nonce": 39359684,
  "bits": "1d00ffff",
  "difficulty": 1,
  "chainwork": "000000000000000000000000000000000000000000000000000002bc02bc02bc",
  "nTx": 1,
  "previousblockhash": "000000008010738f01223f740b6881d3c86fc05b0dd4ce8b20e6300f448a904c",
  "nextblockhash": "0000000084d973c18381c87a63a2430ad2eff1d84934ec34e3bfd78ffd3cd9c1",
  "strippedsize": 215,
  "size": 215,
  "weight": 860,
  "tx": [
    {
      "txid": "e47741cc9eb5f7c91c86e253f2b05ba7576fb1347f874314bf6db3cc0280e5ed",
      "hash": "e47741cc9eb5f7c91c86e253f2b05ba7576fb1347f874314bf6db3cc0280e5ed",
      "version": 1,
      "size": 134,
      "vsize": 134,
      "weight": 536,
      "locktime": 0,
      "vin": [
        {
          "coinbase": "04ffff001d011c",
          "sequence": 4294967295
        }
      ],
      "vout": [
        {
          "value": 50.0,
          "n": 0,
          "scriptPubKey": {
            "asm": "047678a183c1ce895298a839e0be033830f17360442bac349e78a945730e97a06d115539ad54a357d9fb72e89923d50aae193e4ad6e84f553a619aa442aeb2e973 OP_CHECKSIG",
            "desc": "pk(047678a183c1ce895298a839e0be033830f17360442bac349e78a945730e97a06d115539ad54a357d9fb72e89923d50aae193e4ad6e84f553a619aa442aeb2e973)#wwavtv56",
            "hex": "41047678a183c1ce895298a839e0be033830f17360442bac349e78a945730e97a06d115539ad54a357d9fb72e89923d50aae193e4ad6e84f553a619aa442aeb2e973ac",
            "type": "pubkey"
          }
        }
      ],
      "hex": "01000000010000000000000000000000000000000000000000000000000000000000000000ffffffff0704ffff001d011cffffffff0100f2052a010000004341047678a183c1ce895298a839e0be033830f17360442bac349e78a945730e97a06d115539ad54a357d9fb72e89923d50aae193e4ad6e84f553a619aa442aeb2e973ac00000000"
    }
  ]
}