{
  "hash": "000000000899755362c2f34a721fbab4b09f6a33dc086336f969ec58a5a3c112",
  "confirmations": 51279,
  "height": 1819,
  "version": 1,
  "versionHex": "00000001",
  "merkleroot": "bb6c8f0ce719c5e89fe4c6cde74c6e4c6275ba797d179b6a7857b675d4ab8eb6",
  "time": 1232908937,
  "mediantime": 1232906742,
  "nonce": 835108870,
  "bits": "1d00ffff",
  "difficulty": 1,
  "chainwork": "0000000000000000000000000000000000000000000000000000071c071c071c",
  "nTx": 1,
  "previousblockhash": "00000000c8d16cecdd439a975b05154b1714a25761c02694855f82c2526d43d9",
  "nextblockhash": "00000000bf0e8af2f742d16f5e32db76e0d3db000c6e5b801f50969acf751cd7",
  "strippedsize": 216,
  "size": 216,
  "weight": 864,
  "tx": [
    {
      "txid": "bb6c8f0ce719c5e89fe4c6cde74c6e4c6275ba797d179b6a7857b675d4ab8eb6",
      "hash": "bb6c8f0ce719c5e89fe4c6cde74c6e4c6275ba797d179b6a7857b675d4ab8eb6",
      "version": 1,
      "size": 135,
      "vsize": 135,
      "weight": 540,
      "locktime": 0,
      "vin": [
        {
          "coinbase": "04ffff001d025f04",
          "sequence": 4294967295
        }
      ],
      "vout": [
        {
          "value": 50.0,
          "n": 0,
          "scriptPubKey": {
            "asm": "045fc8fa732e7df9acca7f192d47ba6a9bc9ba4981056df186f63f36225b5f4236d644b346629d9b196e86215af00121dc2e2979a5b08b1a849d7d225c67079129 OP_CHECKSIG",
            "desc": "pk(045fc8fa732e7df9acca7f192d47ba6a9bc9ba4981056df186f63f36225b5f4236d644b346629d9b196e86215af00121dc2e2979a5b08b1a849d7d225c67079129)#h434zqsh",
            "hex": "41045fc8fa732e7df9acca7f192d47ba6a9bc9ba4981056df186f63f36225b5f4236d644b346629d9b196e86215af00121dc2e2979a5b08b1a849d7d225c67079129ac",
            "type": "pubkey"
          }
        }
      ],
      "hex": "01000000010000000000000000000000000000000000000000000000000000000000000000ffffffff0804ffff001d025f04ffffffff0100f2052a010000004341045fc8fa732e7df9acca7f192d47ba6a9bc9ba4981056df186f63f36225b5f4236d644b346629d9b196e86215af00121dc2e2979a5b08b1a849d7d225c67079129ac00000000"
    }
  ]
}