{
  "hash": "0000000026f34d197f653c5e80cb805e40612eadb0f45d00d7ea4164a20faa33",
  "confirmations": 51871,
  "height": 50,
  "version": 1,
  "versionHex": "00000001",
  "merkleroot": "540a7e54fd64478554519f1b2d643ecc888c5030631487f9cfc530b71d281309",
  "time": 1231614698,
  "mediantime": 1231611068,
  "nonce": 1028409902,
  "bits": "1d00ffff",
  "difficulty": 1,
  "chainwork": "0000000000000000000000000000000000000000000000000000003300330033",
  "nTx": 1,
  "previousblockhash": "00000000f067c09041ff0fcee3d91aeb7fbcc5654d3f766af2b4377aaee68d00",
  "nextblockhash": "000000001c511e00d1e6825c912988a3695ab2758fdbb6c7ee58da1da4fb2d63",
  "strippedsize": 215,
  "size": 215,
  "weight": 860,
  "tx": [
    {
      "txid": "540a7e54fd64478554519f1b2d643ecc888c5030631487f9cfc530b71d281309",
      "hash": "540a7e54fd64478554519f1b2d643ecc888c5030631487f9cfc530b71d281309",
      "version": 1,
      "size": 134,
      "vsize": 134,
      "weight": 536,
      "locktime": 0,
      "vin": [
        {
          "coinbase": "04ffff001d013f",
          "sequence": 4294967295
        }
      ],
      "vout": [
        {
          "value": 50.0,
          "n": 0,
          "scriptPubKey": {
            "asm": "041ada81ea00c11098d2f52c20d5aa9f5ba13f9b583fda66f2a478dd7d95a7ab615159d98b63df2e6f3ecb3ef9eda138e4587e7afd31e7f434cbb6837e17feb0c5 OP_CHECKSIG",
            "desc": "pk(041ada81ea00c11098d2f52c20d5aa9f5ba13f9b583fda66f2a478dd7d95a7ab615159d98b63df2e6f3ecb3ef9eda138e4587e7afd31e7f434cbb6837e17feb0c5)#e9crazmq",
            "hex": "41041ada81ea00c11098d2f52c20d5aa9f5ba13f9b583fda66f2a478dd7d95a7ab615159d98b63df2e6f3ecb3ef9eda138e4587e7afd31e7f434cbb6837e17feb0c5ac",
            "type": "pubkey"
          }
        }
      ],
      "hex": "01000000010000000000000000000000000000000000000000000000000000000000000000ffffffff0704ffff001d013fffffffff0100f2052a010000004341041ada81ea00c11098d2f52c20d5aa9f5ba13f9b583fda66f2a478dd7d95a7ab615159d98b63df2e6f3ecb3ef9eda138e4587e7afd31e7f434cbb6837e17feb0c5ac00000000"
    }
  ]
}