{
  "hash": "00000000c9a90bb14ed4b41e2db5bf1e24a06b03792e866d7a925b52b2e5ecfa",
  "confirmations": 47901,
  "height": 5197,
  "version": 1,
  "versionHex": "00000001",
  "merkleroot": "5385e862dbf1d2c8eba178b1179b09b002be6fe0d26dc38783423398a20ae32d",
  "time": 1235286304,
  "mediantime": 1235280829,
  "nonce": 3336149284,
  "bits": "1d00ffff",
  "difficulty": 1,
  "chainwork": "0000000000000000000000000000000000000000000000000000144e144e144e",
  "nTx": 1,
  "previousblockhash": "00000000b2a680fb402a48739d1ed3e729cae7e391595ab6750546ec76bafa3c",
  "nextblockhash": "0000000079994f85bef0f1d6aabd59b089b5cd58e36d295fef9c0087ab399d30",
  "strippedsize": 216,
  "size": 216,
  "weight": 864,
  "tx": [
    {
      "txid": "5385e862dbf1d2c8eba178b1179b09b002be6fe0d26dc38783423398a20ae32d",
      "hash": "5385e862dbf1d2c8eba178b1179b09b002be6fe0d26dc38783423398a20ae32d",
      "version": 1,
      "size": 135,
      "vsize": 135,
      "weight": 540,
      "locktime": 0,
      "vin": [
        {
          "coinbase": "04ffff001d029400",
          "sequence": 4294967295
        }
      ],
      "vout": [
        {
          "value": 50.0,
          "n": 0,
          "scriptPubKey": {
            "asm": "042b19517cd9c98349ccdc9f54696b1b7e23eb4bb486db5b5d6c0815aaafa2d251c12a7a2371c9a41d236386e1ed4b7c7a8b5f25a637fe6a9c9ae052fb08a834b0 OP_CHECKSIG",
            "desc": "pk(042b19517cd9c98349ccdc9f54696b1b7e23eb4bb486db5b5d6c0815aaafa2d251c12a7a2371c9a41d236386e1ed4b7c7a8b5f25a637fe6a9c9ae052fb08a834b0)#vw70rcy3",
            "hex": "41042b19517cd9c98349ccdc9f54696b1b7e23eb4bb486db5b5d6c0815aaafa2d251c12a7a2371c9a41d236386e1ed4b7c7a8b5f25a637fe6a9c9ae052fb08a834b0ac",
            "type": "pubkey"
          }
        }
      ],
      "hex": "01000000010000000000000000000000000000000000000000000000000000000000000000ffffffff0804ffff001d029400ffffffff0100f2052a010000004341042b19517cd9c98349ccdc9f54696b1b7e23eb4bb486db5b5d6c0815aaafa2d251c12a7a2371c9a41d236386e1ed4b7c7a8b5f25a637fe6a9c9ae052fb08a834b0ac00000000"
    }
  ]
}