{
  "hash": "000000006c4e83dbcb909960d95caaea9a823f304e4e7ca030c213c9b6a9a668",
  "confirmations": 50413,
  "height": 2685,
  "version": 1,
  "versionHex": "00000001",
  "merkleroot": "31ea00f8e8761cdf3999ff8375b0d532e0b81d5311940e168dff2654a1b3fbfc",
  "time": 1233552536,
  "mediantime": 1233549163,
  "nonce": 49335744,
  "bits": "1d00ffff",
  "difficulty": 1,
  "chainwork": "00000000000000000000000000000000000000000000000000000a7e0a7e0a7e",
  "nTx": 1,
  "previousblockhash": "00000000292caa61b5a0aae1528c4d1d629585b667f6a222020b638842a85f32",
  "nextblockhash": "000000008c5ca6e2265b477889677b17345d58f93dbcb82d02b25563b0871a24",
  "strippedsize": 216,
  "size": 216,
  "weight": 864,
  "tx": [
    {
      "txid": "31ea00f8e8761cdf3999ff8375b0d532e0b81d5311940e168dff2654a1b3fbfc",
      "hash": "31ea00f8e8761cdf3999ff8375b0d532e0b81d5311940e168dff2654a1b3fbfc",
      "version": 1,
      "size": 135,
      "vsize": 135,
      "weight": 540,
      "locktime": 0,
      "vin": [
        {
          "coinbase": "04ffff001d029100",
          "sequence": 4294967295
        }
      ],
      "vout": [
        {
          "value": 50.0,
          "n": 0,
          "scriptPubKey": {
            "asm": "04b60f52ed259f1566f1cd33d37b7a69207b1ebc6d400292909801de94aa1f0edfd2035b85784b5aa2246b43dac6d38702040ede25e3352da49a2c3108c5a89f24 OP_CHECKSIG",
            "desc": "pk(04b60f52ed259f1566f1cd33d37b7a69207b1ebc6d400292909801de94aa1f0edfd2035b85784b5aa2246b43dac6d38702040ede25e3352da49a2c3108c5a89f24)#emukth5t",
            "hex": "4104b60f52ed259f1566f1cd33d37b7a69207b1ebc6d400292909801de94aa1f0edfd2035b85784b5aa2246b43dac6d38702040ede25e3352da49a2c3108c5a89f24ac",
            "type": "pubkey"
          }
        }
      ],
      "hex": "01000000010000000000000000000000000000000000000000000000000000000000000000ffffffff0804ffff001d029100ffffffff0100f2052a01000000434104b60f52ed259f1566f1cd33d37b7a69207b1ebc6d400292909801de94aa1f0edfd2035b85784b5aa2246b43dac6d38702040ede25e3352da49a2c3108c5a89f24ac00000000"
    }
  ]
}