{
  "hash": "000000003867f96c1cdb30e7e6e227b817bad51ec528f5911bd4beab345998c2",
  "confirmations": 49865,
  "height": 3233,
  "version": 1,
  "versionHex": "00000001",
  "merkleroot": "b5290edc95f0ed1daa4d0364bfaefe0568d262e51fe686b4549248ef5c833f23",
  "time": 1233923070,
  "mediantime": 1233919549,
  "nonce": 629904671,
  "bits": "1d00ffff",
  "difficulty": 1,
  "chainwork": "00000000000000000000000000000000000000000000000000000ca20ca20ca2",
  "nTx": 1,
  "previousblockhash": "000000006e6beb21a9b43035cc1db8a2fc5a31e8ca6df2935c522977c8258a49",
  "nextblockhash": "00000000792cc1513091cc859381657e3525b2c56f1283cdeb2ec4b3e7b5ef1d",
  "strippedsize": 216,
  "size": 216,
  "weight": 864,
  "tx": [
    {
      "txid": "b5290edc95f0ed1daa4d0364bfaefe0568d262e51fe686b4549248ef5c833f23",
      "hash": "b5290edc95f0ed1daa4d0364bfaefe0568d262e51fe686b4549248ef5c833f23",
      "version": 1,
      "size": 135,
      "vsize": 135,
      "weight": 540,
      "locktime": 0,
      "vin": [
        {
          "coinbase": "04ffff001d023303",
          "sequence": 4294967295
        }
      ],
      "vout": [
        {
          "value": 50.0,
          "n": 0,
          "scriptPubKey": {
            "asm": "04cdde4aee2f90e6498df5a1dc5e43945559e6006fcd669d0eb503bbe3afc093a4c9e5186176263b5ed2e098f7ae44668d9f1ea71d2bf15200221b15e2c3a8baee OP_CHECKSIG",
            "desc": "pk(04cdde4aee2f90e6498df5a1dc5e43945559e6006fcd669d0eb503bbe3afc093a4c9e5186176263b5ed2e098f7ae44668d9f1ea71d2bf15200221b15e2c3a8baee)#5z7pyqzy",
            "hex": "4104cdde4aee2f90e6498df5a1dc5e43945559e6006fcd669d0eb503bbe3afc093a4c9e5186176263b5ed2e098f7ae44668d9f1ea71d2bf15200221b15e2c3a8baeeac",
            "type": "pubkey"
          }
        }
      ],
      "hex": "01000000010000000000000000000000000000000000000000000000000000000000000000ffffffff0804ffff001d023303ffffffff0100f2052a01000000434104cdde4aee2f90e6498df5a1dc5e43945559e6006fcd669d0eb503bbe3afc093a4c9e5186176263b5ed2e098f7ae44668d9f1ea71d2bf15200221b15e2c3a8baeeac00000000"
    }
  ]
}