{
  "hash": "0000000064de54caff83e8ea00f3cd162c72c436f0233d9745351d2c4f2a432d",
  "confirmations": 44282,
  "height": 8816,
  "version": 1,
  "versionHex": "00000001",
  "merkleroot": "01ffb23a9dd88c536ee0a960b0c0d40c7bde627379c8d4544f97dd012b8ac2f3",
  "time": 1238111209,
  "mediantime": 1238107701,
  "nonce": 1318454317,
  "bits": "1d00ffff",
  "difficulty": 1,
  "chainwork": "0000000000000000000000000000000000000000000000000000227122712271",
  "nTx": 1,
  "previousblockhash": "000000003272a21b70414d8683a810a9474dec208f5bee443a0c81ed094f71d3",
  "nextblockhash": "00000000619619ad3f0beb6fbe93e56126fdf1068c813cf8c80e3a60f8803acf",
  "strippedsize": 216,
  "size": 216,
  "weight": 864,
  "tx": [
    {
      "txid": "01ffb23a9dd88c536ee0a960b0c0d40c7bde627379c8d4544f97dd012b8ac2f3",
      "hash": "01ffb23a9dd88c536ee0a960b0c0d40c7bde627379c8d4544f97dd012b8ac2f3",
      "version": 1,
      "size": 135,
      "vsize": 135,
      "weight": 540,
      "locktime": 0,
      "vin": [
        {
          "coinbase": "04ffff001d020f03",
          "sequence": 4294967295
        }
      ],
      "vout": [
        {
          "value": 50.0,
          "n": 0,
          "scriptPubKey": {
            "asm": "0447edb3ab3c2304dc386131f3b22bb741090304b9509c238b631f4713c9acbb2c3df8c8c807d395b6337cb68717f792631c26aeb88da1a7dd2f8828b5420e3605 OP_CHECKSIG",
            "desc": "pk(0447edb3ab3c2304dc386131f3b22bb741090304b9509c238b631f4713c9acbb2c3df8c8c807d395b6337cb68717f792631c26aeb88da1a7dd2f8828b5420e3605)#w2pp5r5r",
            "hex": "410447edb3ab3c2304dc386131f3b22bb741090304b9509c238b631f4713c9acbb2c3df8c8c807d395b6337cb68717f792631c26aeb88da1a7dd2f8828b5420e3605ac",
            "type": "pubkey"
          }
        }
      ],
      "hex": "01000000010000000000000000000000000000000000000000000000000000000000000000ffffffff0804ffff001d020f03ffffffff0100f2052a0100000043410447edb3ab3c2304dc386131f3b22bb741090304b9509c238b631f4713c9acbb2c3df8c8c807d395b6337cb68717f792631c26aeb88da1a7dd2f8828b5420e3605ac00000000"
    }
  ]
}