{
  "hash": "000000009a4040e98e1ee2346b7e8892509ffb970c0f59741fc665a92b8fc536",
  "confirmations": 46211,
  "height": 6887,
  "version": 1,
  "versionHex": "00000001",
  "merkleroot": "c1b64c99b8b59f05b0f74488beac948b2050599161ec34c0b5cf33fd56e7e376",
  "time": 1236626466,
  "mediantime": 1236622295,
  "nonce": 2438166038,
  "bits": "1d00ffff",
  "difficulty": 1,
  "chainwork": "00000000000000000000000000000000000000000000000000001ae81ae81ae8",
  "nTx": 1,
  "previousblockhash": "00000000e7cbf17e4da25723cc71121d461b1a85a1dfa13a605005f056d77cbd",
  "nextblockhash": "00000000e22466aa2189719d6f43cc2ffdd527e18f4a6f0158ac11226aa0fe77",
  "strippedsize": 215,
  "size": 215,
  "weight": 860,
  "tx": [
    {
      "txid": "c1b64c99b8b59f05b0f74488beac948b2050599161ec34c0b5cf33fd56e7e376",
      "hash": "c1b64c99b8b59f05b0f74488beac948b2050599161ec34c0b5cf33fd56e7e376",
      "version": 1,
      "size": 134,
      "vsize": 134,
      "weight": 536,
      "locktime": 0,
      "vin": [
        {
          "coinbase": "04ffff001d011d",
          "sequence": 4294967295
        }
      ],
      "vout": [
        {
          "value": 50.0,
          "n": 0,
          "scriptPubKey": {
            "asm": "0460b3c3aae010e41a68868e19271a5b1c43ebb8c73519ba3a224331ff0b16628966f919c6d1d47a67373f715428676d4202e12d6354c9b69d5b8b048d0eee4178 OP_CHECKSIG",
            "desc": "pk(0460b3c3aae010e41a68868e19271a5b1c43ebb8c73519ba3a224331ff0b16628966f919c6d1d47a67373f715428676d4202e12d6354c9b69d5b8b048d0eee4178)#5ld7z2l9",
            "hex": "410460b3c3aae010e41a68868e19271a5b1c43ebb8c73519ba3a224331ff0b16628966f919c6d1d47a67373f715428676d4202e12d6354c9b69d5b8b048d0eee4178ac",
            "type": "pubkey"
          }
        }
      ],
      "hex": "01000000010000000000000000000000000000000000000000000000000000000000000000ffffffff0704ffff001d011dffffffff0100f2052a0100000043410460b3c3aae010e41a68868e19271a5b1c43ebb8c73519ba3a224331ff0b16628966f919c6d1d47a67373f715428676d4202e12d6354c9b69d5b8b048d0eee4178ac00000000"
    }
  ]
}