{
  "hash": "00000000d5c38d3d304e325f7892bc67affc7c1bdbf82db7d6233178afd3edcb",
  "confirmations": 50995,
  "height": 2103,
  "version": 1,
  "versionHex": "00000001",
  "merkleroot": "08565bddc947de3145c02ac56e8663321c5d3fe34975a0cd4fd058f3a42d981f",
  "time": 1233138860,
  "mediantime": 1233136510,
  "nonce": 2521993005,
  "bits": "1d00ffff",
  "difficulty": 1,
  "chainwork": "0000000000000000000000000000000000000000000000000000083808380838",
  "nTx": 1,
  "previousblockhash": "00000000aeeefd7c35c30f53345004470618aa400239892cdafd6ed5a282cd2a",
  "nextblockhash": "0000000074d8bfd85b5c211a7ddc38bb62e84078e1778e90635855a992910d8b",
  "strippedsize": 216,
  "size": 216,
  "weight": 864,
  "tx": [
    {
      "txid": "08565bddc947de3145c02ac56e8663321c5d3fe34975a0cd4fd058f3a42d981f",
      "hash": "08565bddc947de3145c02ac56e8663321c5d3fe34975a0cd4fd058f3a42d981f",
      "version": 1,
      "size": 135,
      "vsize": 135,
      "weight": 540,
      "locktime": 0,
      "vin": [
        {
          "coinbase": "04ffff001d02ae03",
          "sequence": 4294967295
        }
      ],
      "vout": [
        {
          "value": 50.0,
          "n": 0,
          "scriptPubKey": {
            "asm": "04291cc9e853db725270fad2dda6b2f83c918ac2291d8b460df0345917f4169043277d36e8b803244656ed42fb3ec5e7bc88dc7ba31c2a8b7c9ab4f11cd9a35700 OP_CHECKSIG",
            "desc": "pk(04291cc9e853db725270fad2dda6b2f83c918ac2291d8b460df0345917f4169043277d36e8b803244656ed42fb3ec5e7bc88dc7ba31c2a8b7c9ab4f11cd9a35700)#fkszge7r",
            "hex": "4104291cc9e853db725270fad2dda6b2f83c918ac2291d8b460df0345917f4169043277d36e8b803244656ed42fb3ec5e7bc88dc7ba31c2a8b7c9ab4f11cd9a35700ac",
            "type": "pubkey"
          }
        }
      ],
      "hex": "01000000010000000000000000000000000000000000000000000000000000000000000000ffffffff0804ffff001d02ae03ffffffff0100f2052a01000000434104291cc9e853db725270fad2dda6b2f83c918ac2291d8b460df0345917f4169043277d36e8b803244656ed42fb3ec5e7bc88dc7ba31c2a8b7c9ab4f11cd9a35700ac00000000"
    }
  ]
}