{
  "hash": "00000000460150663a7be86746e54faa470ebebdb19308213d9734d7136711c7",
  "confirmations": 48204,
  "height": 4894,
  "version": 1,
  "versionHex": "00000001",
  "merkleroot": "92e8f392ee723136c5d8b0856c790b2f5245ac33359fec15f2eaed074c5e35a7",
  "time": 1235065915,
  "mediantime": 1235063761,
  "nonce": 1327130150,
  "bits": "1d00ffff",
  "difficulty": 1,
  "chainwork": "0000000000000000000000000000000000000000000000000000131f131f131f",
  "nTx": 1,
  "previousblockhash": "000000006ffee545991ce2eb1169a9654d689945febb9d3eb455950a6ae80f8d",
  "nextblockhash": "0000000018a71b22d226ea6e365546a3f13dd1c617fece6e9fa1438e243f4799",
  "strippedsize": 216,
  "size": 216,
  "weight": 864,
  "tx": [
    {
      "txid": "92e8f392ee723136c5d8b0856c790b2f5245ac33359fec15f2eaed074c5e35a7",
      "hash": "92e8f392ee723136c5d8b0856c790b2f5245ac33359fec15f2eaed074c5e35a7",
      "version": 1,
      "size": 135,
      "vsize": 135,
      "weight": 540,
      "locktime": 0,
      "vin": [
        {
          "coinbase": "04ffff001d029205",
          "sequence": 4294967295
        }
      ],
      "vout": [
        {
          "value": 50.0,
          "n": 0,
          "scriptPubKey": {
            "asm": "047b86816dbad0b0920793d123548cf170f28309d112508784cc6c8ed9c6ca58f3c2f706b55d96d711aa87039767f26dad3f010dd2f732cb29822286227ab0a626 OP_CHECKSIG",
            "desc": "pk(047b86816dbad0b0920793d123548cf170f28309d112508784cc6c8ed9c6ca58f3c2f706b55d96d711aa87039767f26dad3f010dd2f732cb29822286227ab0a626)#tkyvap85",
            "hex": "41047b86816dbad0b0920793d123548cf170f28309d112508784cc6c8ed9c6ca58f3c2f706b55d96d711aa87039767f26dad3f010dd2f732cb29822286227ab0a626ac",
            "type": "pubkey"
          }
        }
      ],
      "hex": "01000000010000000000000000000000000000000000000000000000000000000000000000ffffffff0804ffff001d029205ffffffff0100f2052a010000004341047b86816dbad0b0920793d123548cf170f28309d112508784cc6c8ed9c6ca58f3c2f706b55d96d711aa87039767f26dad3f010dd2f732cb29822286227ab0a626ac00000000"
    }
  ]
}