{
  "hash": "00000000bc769c786f51010f0c7484fcca83fb8598d89f6031c91a4f3cc131f2",
  "confirmations": 43147,
  "height": 9951,
  "version": 1,
  "versionHex": "00000001",
  "merkleroot": "d712824318d99f818826bdac902034d1949da12ebc9742671118645020d40f2e",
  "time": 1238956706,
  "mediantime": 1238951721,
  "nonce": 1746691849,
  "bits": "1d00ffff",
  "difficulty": 1,
  "chainwork": "000000000000000000000000000000000000000000000000000026e026e026e0",
  "nTx": 1,
  "previousblockhash": "000000006eaa1ad2bd8726e149a79e3c49e69f7528c74b6163b8179097c6536a",
  "nextblockhash": "00000000280ed43a87117a1762b9255737a790559deba7fca03171a4d23eab4c",
  "strippedsize": 216,
  "size": 216,
  "weight": 864,
  "tx": [
    {
      "txid": "d712824318d99f818826bdac902034d1949da12ebc9742671118645020d40f2e",
      "hash": "d712824318d99f818826bdac902034d1949da12ebc9742671118645020d40f2e",
      "version": 1,
      "size": 135,
      "vsize": 135,
      "weight": 540,
      "locktime": 0,
      "vin": [
        {
          "coinbase": "04ffff001d02a902",
          "sequence": 4294967295
        }
      ],
      "vout": [
        {
          "value": 50.0,
          "n": 0,
          "scriptPubKey": {
            "asm": "046bcacf29912a740c23876fe73ed9307aa1109dcdf506ec01df003fe78d8d0195e9f15a820e6687279af7d556025e4928adfbe1eb2fac746ec17d5b4f3be178d1 OP_CHECKSIG",
            "desc": "pk(046bcacf29912a740c23876fe73ed9307aa1109dcdf506ec01df003fe78d8d0195e9f15a820e6687279af7d556025e4928adfbe1eb2fac746ec17d5b4f3be178d1)#u9q7au66",
            "hex": "41046bcacf29912a740c23876fe73ed9307aa1109dcdf506ec01df003fe78d8d0195e9f15a820e6687279af7d556025e4928adfbe1eb2fac746ec17d5b4f3be178d1ac",
            "type": "pubkey"
          }
        }
      ],
      "hex": "01000000010000000000000000000000000000000000000000000000000000000000000000ffffffff0804ffff001d02a902ffffffff0100f2052a010000004341046bcacf29912a740c23876fe73ed9307aa1109dcdf506ec01df003fe78d8d0195e9f15a820e6687279af7d556025e4928adfbe1eb2fac746ec17d5b4f3be178d1ac00000000"
    }
  ]
}