{
  "hash": "00000000a1700a066730f138d4d2a456ff10fdd5ddbf721d78dd767d8a4e4348",
  "confirmations": 45444,
  "height": 7654,
  "version": 1,
  "versionHex": "00000001",
  "merkleroot": "0b3a77bf1c8a47f34a947c433901b8209e770b2a09c76d960312b5a744ca736a",
  "time": 1237204990,
  "mediantime": 1237202314,
  "nonce": 171433679,
  "bits": "1d00ffff",
  "difficulty": 1,
  "chainwork": "00000000000000000000000000000000000000000000000000001de71de71de7",
  "nTx": 1,
  "previousblockhash": "00000000f5ae4cbc8185c894f38b43f5cc132b597e97a766b83422ccf50e3ec3",
  "nextblockhash": "000000004df2d7adb6472d8406199cbdf686225921a032f6df25517f28d3b5cb",
  "strippedsize": 216,
  "size": 216,
  "weight": 864,
  "tx": [
    {
      "txid": "0b3a77bf1c8a47f34a947c433901b8209e770b2a09c76d960312b5a744ca736a",
      "hash": "0b3a77bf1c8a47f34a947c433901b8209e770b2a09c76d960312b5a744ca736a",
      "version": 1,
      "size": 135,
      "vsize": 135,
      "weight": 540,
      "locktime": 0,
      "vin": [
        {
          "coinbase": "04ffff001d029608",
          "sequence": 4294967295
        }
      ],
      "vout": [
        {
          "value": 50.0,
          "n": 0,
          "scriptPubKey": {
            "asm": "04114287f2898b143662f2d94a59505ff4271fa2471230ef1fe4fe58c6286d67969154dc993dbc260c81f96c0f4b3db44acff9d925feaa4fa58472bdd657a17f69 OP_CHECKSIG",
            "desc": "pk(04114287f2898b143662f2d94a59505ff4271fa2471230ef1fe4fe58c6286d67969154dc993dbc260c81f96c0f4b3db44acff9d925feaa4fa58472bdd657a17f69)#vuqylkdm",
            "hex": "4104114287f2898b143662f2d94a59505ff4271fa2471230ef1fe4fe58c6286d67969154dc993dbc260c81f96c0f4b3db44acff9d925feaa4fa58472bdd657a17f69ac",
            "type": "pubkey"
          }
        }
      ],
      "hex": "01000000010000000000000000000000000000000000000000000000000000000000000000ffffffff0804ffff001d029608ffffffff0100f2052a01000000434104114287f2898b143662f2d94a59505ff4271fa2471230ef1fe4fe58c6286d67969154dc993dbc260c81f96c0f4b3db44acff9d925feaa4fa58472bdd657a17f69ac00000000"
    }
  ]
}