{
  "hash": "00000000c43eb3505e99a37a7e5c85de0c04a8fdb16462b900f7f3c6b9ed586e",
  "confirmations": 52280,
  "height": 818,
  "version": 1,
  "versionHex": "00000001",
  "merkleroot": "a5d8c25db574a6523e1f80a71c5c55f40507593a25dc406692f21e72e264a1fb",
  "time": 1232206467,
  "mediantime": 1232201977,
  "nonce": 2167816505,
  "bits": "1d00ffff",
  "difficulty": 1,
  "chainwork": "0000000000000000000000000000000000000000000000000000033303330333",
  "nTx": 1,
  "previousblockhash": "000000004a55646233610a6524b766a472a8764e8a8db78e752b9fcefd9cb01c",
  "nextblockhash": "000000000b87c229c784a01753187dfb220686a651cc0074626a68e1cf7f12ec",
  "strippedsize": 216,
  "size": 216,
  "weight": 864,
  "tx": [
    {
      "txid": "a5d8c25db574a6523e1f80a71c5c55f40507593a25dc406692f21e72e264a1fb",
      "hash": "a5d8c25db574a6523e1f80a71c5c55f40507593a25dc406692f21e72e264a1fb",
      "version": 1,
      "size": 135,
      "vsize": 135,
      "weight": 540,
      "locktime": 0,
      "vin": [
        {
          "coinbase": "04ffff001d02d101",
          "sequence": 4294967295
        }
      ],
      "vout": [
        {
          "value": 50.0,
          "n": 0,
          "scriptPubKey": {
            "asm": "04e828e4679aad0ed55c9013fcda8fc5bdd94cd7bffdf1bda6a187c7b88a6bbfc8351099368def8ce6ede3fca07059f776c511260d471fd34a4936d9013d7a060f OP_CHECKSIG",
            "desc": "pk(04e828e4679aad0ed55c9013fcda8fc5bdd94cd7bffdf1bda6a187c7b88a6bbfc8351099368def8ce6ede3fca07059f776c511260d471fd34a4936d9013d7a060f)#s9hkzqwf",
            "hex": "4104e828e4679aad0ed55c9013fcda8fc5bdd94cd7bffdf1bda6a187c7b88a6bbfc8351099368def8ce6ede3fca07059f776c511260d471fd34a4936d9013d7a060fac",
            "type": "pubkey"
          }
        }
      ],
      "hex": "01000000010000000000000000000000000000000000000000000000000000000000000000ffffffff0804ffff001d02d101ffffffff0100f2052a01000000434104e828e4679aad0ed55c9013fcda8fc5bdd94cd7bffdf1bda6a187c7b88a6bbfc8351099368def8ce6ede3fca07059f776c511260d471fd34a4936d9013d7a060fac00000000"
    }
  ]
}