{
  "hash": "00000000cdecc1f6931a75229cdfe318c0501eb6b4fa3fa8633967d39f4a7430",
  "confirmations": 52415,
  "height": 683,
  "version": 1,
  "versionHex": "00000001",
  "merkleroot": "40e3fb372376a018f43cd39ca7ad6a1a0104e988bd0b70428ffa94894659ec9c",
  "time": 1232095430,
  "mediantime": 1232091328,
  "nonce": 2433173787,
  "bits": "1d00ffff",
  "difficulty": 1,
  "chainwork": "000000000000000000000000000000000000000000000000000002ac02ac02ac",
  "nTx": 1,
  "previousblockhash": "00000000d3d00462bebfb057d6c3eb931a7690447a31b10f0db37b150ed4c08b",
  "nextblockhash": "00000000cfe570ffe54c951eee22ad4061275e6bb7e8790339860535b0c341dd",
  "strippedsize": 215,
  "size": 215,
  "weight": 860,
  "tx": [
    {
      "txid": "40e3fb372376a018f43cd39ca7ad6a1a0104e988bd0b70428ffa94894659ec9c",
      "hash": "40e3fb372376a018f43cd39ca7ad6a1a0104e988bd0b70428ffa94894659ec9c",
      "version": 1,
      "size": 134,
      "vsize": 134,
      "weight": 536,
      "locktime": 0,
      "vin": [
        {
          "coinbase": "04ffff001d0176",
          "sequence": 4294967295
        }
      ],
      "vout": [
        {
          "value": 50.0,
          "n": 0,
          "scriptPubKey": {
            "asm": "04242a8375a41bfaa717e967df39f910a5aaf5dab2e249addca4036a0b144831ac4771bb67422879b2298faed08cca4dc5c9876a0d857c70e6410134cf8d5693e8 OP_CHECKSIG",
            "desc": "pk(04242a8375a41bfaa717e967df39f910a5aaf5dab2e249addca4036a0b144831ac4771bb67422879b2298faed08cca4dc5c9876a0d857c70e6410134cf8d5693e8)#vqe8rc30",
            "hex": "4104242a8375a41bfaa717e967df39f910a5aaf5dab2e249addca4036a0b144831ac4771bb67422879b2298faed08cca4dc5c9876a0d857c70e6410134cf8d5693e8ac",
            "type": "pubkey"
          }
        }
      ],
      "hex": "01000000010000000000000000000000000000000000000000000000000000000000000000ffffffff0704ffff001d0176ffffffff0100f2052a01000000434104242a8375a41bfaa717e967df39f910a5aaf5dab2e249addca4036a0b144831ac4771bb67422879b2298faed08cca4dc5c9876a0d857c70e6410134cf8d5693e8ac00000000"
    }
  ]
}