{
  "hash": "000000000381ffacfdce77f3544e4671ce4a48a12e15502c144dfb4ef00b8326",
  "confirmations": 45754,
  "height": 7344,
  "version": 1,
  "versionHex": "00000001",
  "merkleroot": "f9576612d1d8a9f0571dc9b28f7c1e090e3185112fec1c133584412d157e5bb3",
  "time": 1236979449,
  "mediantime": 1236976882,
  "nonce": 1867966749,
  "bits": "1d00ffff",
  "difficulty": 1,
  "chainwork": "00000000000000000000000000000000000000000000000000001cb11cb11cb1",
  "nTx": 1,
  "previousblockhash": "000000007b54debc6423a99f922e68b86703ad02e6611c44acc335d50c998925",
  "nextblockhash": "00000000105e488237af82627f85b0414c6b91a8c3fe1f64843b404c6258294d",
  "strippedsize": 216,
  "size": 216,
  "weight": 864,
  "tx": [
    {
      "txid": "f9576612d1d8a9f0571dc9b28f7c1e090e3185112fec1c133584412d157e5bb3",
      "hash": "f9576612d1d8a9f0571dc9b28f7c1e090e3185112fec1c133584412d157e5bb3",
      "version": 1,
      "size": 135,
      "vsize": 135,
      "weight": 540,
      "locktime": 0,
      "vin": [
        {
          "coinbase": "04ffff001d026708",
          "sequence": 4294967295
        }
      ],
      "vout": [
        {
          "value": 50.0,
          "n": 0,
          "scriptPubKey": {
            "asm": "042435c34fac76de4c72a4f913f595d6c888494f18a489d2dccf0b97782a3514f7538efcfba716391144c7cae5ebf392e3a99cadfdcd35e113d5eed1fb30582632 OP_CHECKSIG",
            "desc": "pk(042435c34fac76de4c72a4f913f595d6c888494f18a489d2dccf0b97782a3514f7538efcfba716391144c7cae5ebf392e3a99cadfdcd35e113d5eed1fb30582632)#emhcea8g",
            "hex": "41042435c34fac76de4c72a4f913f595d6c888494f18a489d2dccf0b97782a3514f7538efcfba716391144c7cae5ebf392e3a99cadfdcd35e113d5eed1fb30582632ac",
            "type": "pubkey"
          }
        }
      ],
      "hex": "01000000010000000000000000000000000000000000000000000000000000000000000000ffffffff0804ffff001d026708ffffffff0100f2052a010000004341042435c34fac76de4c72a4f913f595d6c888494f18a489d2dccf0b97782a3514f7538efcfba716391144c7cae5ebf392e3a99cadfdcd35e113d5eed1fb30582632ac00000000"
    }
  ]
}