{
  "hash": "0000000074f161dcc1bd634c82d0cff2e30c5c9f7e35c39cb9f27c8add66c919",
  "confirmations": 47491,
  "height": 5607,
  "version": 1,
  "versionHex": "00000001",
  "merkleroot": "41ff13a5262e450f1c200fe59a10bc3a83f7b8a31d7a9f39944c354dddc0fbc2",
  "time": 1235610192,
  "mediantime": 1235605358,
  "nonce": 3173434164,
  "bits": "1d00ffff",
  "difficulty": 1,
  "chainwork": "000000000000000000000000000000000000000000000000000015e815e815e8",
  "nTx": 1,
  "previousblockhash": "0000000094e2db81aa4c18ff1a5fab546191d892fca20e421787d63605f34e3f",
  "nextblockhash": "000000005da0fba5f81f2f2d200b3ea101a12991a4510b41792b6000720ba715",
  "strippedsize": 216,
  "size": 216,
  "weight": 864,
  "tx": [
    {
      "txid": "41ff13a5262e450f1c200fe59a10bc3a83f7b8a31d7a9f39944c354dddc0fbc2",
      "hash": "41ff13a5262e450f1c200fe59a10bc3a83f7b8a31d7a9f39944c354dddc0fbc2",
      "version": 1,
      "size": 135,
      "vsize": 135,
      "weight": 540,
      "locktime": 0,
      "vin": [
        {
          "coinbase": "04ffff001d02c007",
          "sequence": 4294967295
        }
      ],
      "vout": [
        {
          "value": 50.0,
          "n": 0,
          "scriptPubKey": {
            "asm": "041949c3c82f16a15dc2f868ea4fc41506867c9983764bfec2bbaf75dbabfd9c5e0b00f9e41f0b87b8e680a85fc04a3f52502c301c040b06fa3c79b7f3d422cb68 OP_CHECKSIG",
            "desc": "pk(041949c3c82f16a15dc2f868ea4fc41506867c9983764bfec2bbaf75dbabfd9c5e0b00f9e41f0b87b8e680a85fc04a3f52502c301c040b06fa3c79b7f3d422cb68)#ecxvv68m",
            "hex": "41041949c3c82f16a15dc2f868ea4fc41506867c9983764bfec2bbaf75dbabfd9c5e0b00f9e41f0b87b8e680a85fc04a3f52502c301c040b06fa3c79b7f3d422cb68ac",
            "type": "pubkey"
          }
        }
      ],
      "hex": "01000000010000000000000000000000000000000000000000000000000000000000000000ffffffff0804ffff001d02c007ffffffff0100f2052a010000004341041949c3c82f16a15dc2f868ea4fc41506867c9983764bfec2bbaf75dbabfd9c5e0b00f9e41f0b87b8e680a85fc04a3f52502c301c040b06fa3c79b7f3d422cb68ac00000000"
    }
  ]
}