{
  "hash": "0000000070cf8785d9d0366ae6c926a53ed9be82701455f8c96fbd5a4ea149d5",
  "confirmations": 52121,
  "height": 977,
  "version": 1,
  "versionHex": "00000001",
  "merkleroot": "cec8a72a1b968ba1f3f92c9cf5dcb4a2cb78340ee9b1dcb13fbd7a9e3a21b5a8",
  "time": 1232332553,
  "mediantime": 1232328352,
  "nonce": 3358098202,
  "bits": "1d00ffff",
  "difficulty": 1,
  "chainwork": "000000000000000000000000000000000000000000000000000003d203d203d2",
  "nTx": 1,
  "previousblockhash": "00000000ed7ccf7b89a2f3fc7eac955412ba92f29f1a3f7fa336e05be728724e",
  "nextblockhash": "00000000dc3c50f11736dae2b2a81a2879eab4045af9cec59d359ac1a84927d9",
  "strippedsize": 216,
  "size": 216,
  "weight": 864,
  "tx": [
    {
      "txid": "cec8a72a1b968ba1f3f92c9cf5dcb4a2cb78340ee9b1dcb13fbd7a9e3a21b5a8",
      "hash": "cec8a72a1b968ba1f3f92c9cf5dcb4a2cb78340ee9b1dcb13fbd7a9e3a21b5a8",
      "version": 1,
      "size": 135,
      "vsize": 135,
      "weight": 540,
      "locktime": 0,
      "vin": [
        {
          "coinbase": "04ffff001d02cd04",
          "sequence": 4294967295
        }
      ],
      "vout": [
        {
          "value": 50.0,
          "n": 0,
          "scriptPubKey": {
            "asm": "0481f300c4e53f2feb13e54d5308938e340fe67d149d4b351f748f1c1ffc35a5e6925d817640cef6250bd9b3bc59c7cdf5d2e28e4803cefbbc3afcb549ce29b724 OP_CHECKSIG",
            "desc": "pk(0481f300c4e53f2feb13e54d5308938e340fe67d149d4b351f748f1c1ffc35a5e6925d817640cef6250bd9b3bc59c7cdf5d2e28e4803cefbbc3afcb549ce29b724)#7f8wjx06",
            "hex": "410481f300c4e53f2feb13e54d5308938e340fe67d149d4b351f748f1c1ffc35a5e6925d817640cef6250bd9b3bc59c7cdf5d2e28e4803cefbbc3afcb549ce29b724ac",
            "type": "pubkey"
          }
        }
      ],
      "hex": "01000000010000000000000000000000000000000000000000000000000000000000000000ffffffff0804ffff001d02cd04ffffffff0100f2052a0100000043410481f300c4e53f2feb13e54d5308938e340fe67d149d4b351f748f1c1ffc35a5e6925d817640cef6250bd9b3bc59c7cdf5d2e28e4803cefbbc3afcb549ce29b724ac00000000"
    }
  ]
}