{
  "hash": "000000002a14610115f83d647a6354a706e273a2ab4425c8eeace6152800bcbc",
  "confirmations": 46722,
  "height": 6376,
  "version": 1,
  "versionHex": "00000001",
  "merkleroot": "6994823b48cede492528e57934ea7a6694feaaefda71f9edb1261649a575d23e",
  "time": 1236239492,
  "mediantime": 1236234087,
  "nonce": 1460906018,
  "bits": "1d00ffff",
  "difficulty": 1,
  "chainwork": "000000000000000000000000000000000000000000000000000018e918e918e9",
  "nTx": 1,
  "previousblockhash": "000000005d5e4d1f466de1812ccdb4a62aa368c43b9bd354e13dd2a8878e4b71",
  "nextblockhash": "00000000d6612711fbafefd7143b744441cda783030178232a2a7f7d219933c4",
  "strippedsize": 216,
  "size": 216,
  "weight": 864,
  "tx": [
    {
      "txid": "6994823b48cede492528e57934ea7a6694feaaefda71f9edb1261649a575d23e",
      "hash": "6994823b48cede492528e57934ea7a6694feaaefda71f9edb1261649a575d23e",
      "version": 1,
      "size": 135,
      "vsize": 135,
      "weight": 540,
      "locktime": 0,
      "vin": [
        {
          "coinbase": "04ffff001d025801",
          "sequence": 4294967295
        }
      ],
      "vout": [
        {
          "value": 50.0,
          "n": 0,
          "scriptPubKey": {
            "asm": "045cb6092abbe565a2388d5a09d72ee80ecb245f554f21ee0e9a2ef9bc70fd31acc99cb1ee9551ce3cb1d5e485494163bdf5857655e6ddbec2930f06ccf6e411c3 OP_CHECKSIG",
            "desc": "pk(045cb6092abbe565a2388d5a09d72ee80ecb245f554f21ee0e9a2ef9bc70fd31acc99cb1ee9551ce3cb1d5e485494163bdf5857655e6ddbec2930f06ccf6e411c3)#784huvqp",
            "hex": "41045cb6092abbe565a2388d5a09d72ee80ecb245f554f21ee0e9a2ef9bc70fd31acc99cb1ee9551ce3cb1d5e485494163bdf5857655e6ddbec2930f06ccf6e411c3ac",
            "type": "pubkey"
          }
        }
      ],
      "hex": "01000000010000000000000000000000000000000000000000000000000000000000000000ffffffff0804ffff001d025801ffffffff0100f2052a010000004341045cb6092abbe565a2388d5a09d72ee80ecb245f554f21ee0e9a2ef9bc70fd31acc99cb1ee9551ce3cb1d5e485494163bdf5857655e6ddbec2930f06ccf6e411c3ac00000000"
    }
  ]
}