{
  "hash": "00000000523ea570173e660ea90db89102290078c4bf095f328c8f8609c11afa",
  "confirmations": 48395,
  "height": 4703,
  "version": 1,
  "versionHex": "00000001",
  "merkleroot": "85c9e9ef4eea524dbf5ea7f037673bc0158eb63ebf0c2aee365b55977aecba9e",
  "time": 1234931131,
  "mediantime": 1234927136,
  "nonce": 508135960,
  "bits": "1d00ffff",
  "difficulty": 1,
  "chainwork": "0000000000000000000000000000000000000000000000000000126012601260",
  "nTx": 1,
  "previousblockhash": "000000001f4a0a1f256b1b8d2a6d62eed2751994d00df816bbfb27ceecd908f0",
  "nextblockhash": "00000000466a967e8b5c1c483f221fca9f399bafae18f95822db0bc37f118f0a",
  "strippedsize": 216,
  "size": 216,
  "weight": 864,
  "tx": [
    {
      "txid": "85c9e9ef4eea524dbf5ea7f037673bc0158eb63ebf0c2aee365b55977aecba9e",
      "hash": "85c9e9ef4eea524dbf5ea7f037673bc0158eb63ebf0c2aee365b55977aecba9e",
      "version": 1,
      "size": 135,
      "vsize": 135,
      "weight": 540,
      "locktime": 0,
      "vin": [
        {
          "coinbase": "04ffff001d028f02",
          "sequence": 4294967295
        }
      ],
      "vout": [
        {
          "value": 50.0,
          "n": 0,
          "scriptPubKey": {
            "asm": "049d47d01a8fdab75003e399cb7b669d5fb6f209a0d0a9179a48da12f0634398ae33dd39aecbc647feee202680106a48c7fb2d6c5c4d96829f512f820c67555da9 OP_CHECKSIG",
            "desc": "pk(049d47d01a8fdab75003e399cb7b669d5fb6f209a0d0a9179a48da12f0634398ae33dd39aecbc647feee202680106a48c7fb2d6c5c4d96829f512f820c67555da9)#hj9n2m2e",
            "hex": "41049d47d01a8fdab75003e399cb7b669d5fb6f209a0d0a9179a48da12f0634398ae33dd39aecbc647feee202680106a48c7fb2d6c5c4d96829f512f820c67555da9ac",
            "type": "pubkey"
          }
        }
      ],
      "hex": "01000000010000000000000000000000000000000000000000000000000000000000000000ffffffff0804ffff001d028f02ffffffff0100f2052a010000004341049d47d01a8fdab75003e399cb7b669d5fb6f209a0d0a9179a48da12f0634398ae33dd39aecbc647feee202680106a48c7fb2d6c5c4d96829f512f820c67555da9ac00000000"
    }
  ]
}