{
  "hash": "00000000ae07b04e64e658c2dd85bfab0da646352a42037940dd0d18ea6ed8a4",
  "confirmations": 52436,
  "height": 662,
  "version": 1,
  "versionHex": "00000001",
  "merkleroot": "96755abe3584acfec3b57ff50da44ec68482fd5635a906958869cf24134abd63",
  "time": 1232076911,
  "mediantime": 1232073815,
  "nonce": 2482505236,
  "bits": "1d00ffff",
  "difficulty": 1,
  "chainwork": "0000000000000000000000000000000000000000000000000000029702970297",
  "nTx": 1,
  "previousblockhash": "0000000067329a9d48d204813cc35e8b89a8c476f292d92f58691b9535b8da63",
  "nextblockhash": "00000000158b0585927acbb1fec533a7883045dabff45a3ee95fb9750a514344",
  "strippedsize": 215,
  "size": 215,
  "weight": 860,
  "tx": [
    {
      "txid": "96755abe3584acfec3b57ff50da44ec68482fd5635a906958869cf24134abd63",
      "hash": "96755abe3584acfec3b57ff50da44ec68482fd5635a906958869cf24134abd63",
      "version": 1,
      "size": 134,
      "vsize": 134,
      "weight": 536,
      "locktime": 0,
      "vin": [
        {
          "coinbase": "04ffff001d0114",
          "sequence": 4294967295
        }
      ],
      "vout": [
        {
          "value": 50.0,
          "n": 0,
          "scriptPubKey": {
            "asm": "04d9354c0c02e9d2c91aa87328624b12dd1aea40ef2360501704adf0cdcb9d3eab669ffb986a85f49b9827ca89cd1a8704b3a7f52c47bf36201f78fb24edc32a12 OP_CHECKSIG",
            "desc": "pk(04d9354c0c02e9d2c91aa87328624b12dd1aea40ef2360501704adf0cdcb9d3eab669ffb986a85f49b9827ca89cd1a8704b3a7f52c47bf36201f78fb24edc32a12)#7keyhjg7",
            "hex": "4104d9354c0c02e9d2c91aa87328624b12dd1aea40ef2360501704adf0cdcb9d3eab669ffb986a85f49b9827ca89cd1a8704b3a7f52c47bf36201f78fb24edc32a12ac",
            "type": "pubkey"
          }
        }
      ],
      "hex": "01000000010000000000000000000000000000000000000000000000000000000000000000ffffffff0704ffff001d0114ffffffff0100f2052a01000000434104d9354c0c02e9d2c91aa87328624b12dd1aea40ef2360501704adf0cdcb9d3eab669ffb986a85f49b9827ca89cd1a8704b3a7f52c47bf36201f78fb24edc32a12ac00000000"
    }
  ]
}