{
  "hash": "00000000f4479ff07f658f4763092a95822792d7ae3c2ed7c3f381a7d84b52ff",
  "confirmations": 51239,
  "height": 1859,
  "version": 1,
  "versionHex": "00000001",
  "merkleroot": "cbd2fe44ff92648ff2e5b4f7acfc97bc46aac014f4995db2fb6dd59c4a1ff3f1",
  "time": 1232925824,
  "mediantime": 1232923798,
  "nonce": 4176985119,
  "bits": "1d00ffff",
  "difficulty": 1,
  "chainwork": "0000000000000000000000000000000000000000000000000000074407440744",
  "nTx": 1,
  "previousblockhash": "00000000029b27ab7f224473ea1da915b0cf8fe4b492145b6c01dd0a17c119b6",
  "nextblockhash": "000000003bf1f8df98f0e5f2cfaaf8cae43811f6a297335e7e08245331d8ed99",
  "strippedsize": 216,
  "size": 216,
  "weight": 864,
  "tx": [
    {
      "txid": "cbd2fe44ff92648ff2e5b4f7acfc97bc46aac014f4995db2fb6dd59c4a1ff3f1",
      "hash": "cbd2fe44ff92648ff2e5b4f7acfc97bc46aac014f4995db2fb6dd59c4a1ff3f1",
      "version": 1,
      "size": 135,
      "vsize": 135,
      "weight": 540,
      "locktime": 0,
      "vin": [
        {
          "coinbase": "04ffff001d02ab04",
          "sequence": 4294967295
        }
      ],
      "vout": [
        {
          "value": 50.0,
          "n": 0,
          "scriptPubKey": {
            "asm": "04cb6e02b876f5c87aa1dafa82b4db733cb517e3c969a09deb2e539e4c96fbc43673f42fc8008922751edc12f9719ef4e2f28225efe62dc876b99fad8701b2c2c1 OP_CHECKSIG",
            "desc": "pk(04cb6e02b876f5c87aa1dafa82b4db733cb517e3c969a09deb2e539e4c96fbc43673f42fc8008922751edc12f9719ef4e2f28225efe62dc876b99fad8701b2c2c1)#ges5kzvn",
            "hex": "4104cb6e02b876f5c87aa1dafa82b4db733cb517e3c969a09deb2e539e4c96fbc43673f42fc8008922751edc12f9719ef4e2f28225efe62dc876b99fad8701b2c2c1ac",
            "type": "pubkey"
          }
        }
      ],
      "hex": "01000000010000000000000000000000000000000000000000000000000000000000000000ffffffff0804ffff001d02ab04ffffffff0100f2052a01000000434104cb6e02b876f5c87aa1dafa82b4db733cb517e3c969a09deb2e539e4c96fbc43673f42fc8008922751edc12f9719ef4e2f28225efe62dc876b99fad8701b2c2c1ac00000000"
    }
  ]
}