{
  "hash": "0000000026e64b5b6ef0594d272e81ad05ad19fc949446348b0b5e15dd75be16",
  "confirmations": 45237,
  "height": 7861,
  "version": 1,
  "versionHex": "00000001",
  "merkleroot": "d62ac33ac7132c6369c0b63d034d6433dddd12ba4e4fcf3d797541b56b6e02fb",
  "time": 1237359245,
  "mediantime": 1237355248,
  "nonce": 3755314207,
  "bits": "1d00ffff",
  "difficulty": 1,
  "chainwork": "00000000000000000000000000000000000000000000000000001eb61eb61eb6",
  "nTx": 1,
  "previousblockhash": "00000000ab8331a09dd577856abffbfad3b65d66652d1ad6a1a8802f1346d5aa",
  "nextblockhash": "00000000e055383ede208a39e8a1b48de44abd430b80149f483a81a84d5564f6",
  "strippedsize": 216,
  "size": 216,
  "weight": 864,
  "tx": [
    {
      "txid": "d62ac33ac7132c6369c0b63d034d6433dddd12ba4e4fcf3d797541b56b6e02fb",
      "hash": "d62ac33ac7132c6369c0b63d034d6433dddd12ba4e4fcf3d797541b56b6e02fb",
      "version": 1,
      "size": 135,
      "vsize": 135,
      "weight": 540,
      "locktime": 0,
      "vin": [
        {
          "coinbase": "04ffff001d02e906",
          "sequence": 4294967295
        }
      ],
      "vout": [
        {
          "value": 50.0,
          "n": 0,
          "scriptPubKey": {
            "asm": "048fd74e72eed11d4dbc53918334477e299f208899e36e8b7cab6da1c3b5f82c42e79b7c7111c1d4cb54485b4ae1cbc54a20bbf4022de1abb55f2f5d07586cecfb OP_CHECKSIG",
            "desc": "pk(048fd74e72eed11d4dbc53918334477e299f208899e36e8b7cab6da1c3b5f82c42e79b7c7111c1d4cb54485b4ae1cbc54a20bbf4022de1abb55f2f5d07586cecfb)#v6qlhrqx",
            "hex": "41048fd74e72eed11d4dbc53918334477e299f208899e36e8b7cab6da1c3b5f82c42e79b7c7111c1d4cb54485b4ae1cbc54a20bbf4022de1abb55f2f5d07586cecfbac",
            "type": "pubkey"
          }
        }
      ],
      "hex": "01000000010000000000000000000000000000000000000000000000000000000000000000ffffffff0804ffff001d02e906ffffffff0100f2052a010000004341048fd74e72eed11d4dbc53918334477e299f208899e36e8b7cab6da1c3b5f82c42e79b7c7111c1d4cb54485b4ae1cbc54a20bbf4022de1abb55f2f5d07586cecfbac00000000"
    }
  ]
}