{
  "hash": "0000000030c24b159bdf032c24fb14eeb798320e9f4e11d636aeb8eae48b9e71",
  "confirmations": 44639,
  "height": 8459,
  "version": 1,
  "versionHex": "00000001",
  "merkleroot": "430061dff1df02a661b2ce3b21d204b556ec1617b4e424213a03eea32b6aeb3b",
  "time": 1237835783,
  "mediantime": 1237832772,
  "nonce": 3904647477,
  "bits": "1d00ffff",
  "difficulty": 1,
  "chainwork": "0000000000000000000000000000000000000000000000000000210c210c210c",
  "nTx": 1,
  "previousblockhash": "00000000af567d147c0ff1353285ad51e2b904c958b36c45e5d4a99c124d6092",
  "nextblockhash": "00000000d36813aaa6d2e7515029679f142b0a42be684e23e91498648bacb7b9",
  "strippedsize": 216,
  "size": 216,
  "weight": 864,
  "tx": [
    {
      "txid": "430061dff1df02a661b2ce3b21d204b556ec1617b4e424213a03eea32b6aeb3b",
      "hash": "430061dff1df02a661b2ce3b21d204b556ec1617b4e424213a03eea32b6aeb3b",
      "version": 1,
      "size": 135,
      "vsize": 135,
      "weight": 540,
      "locktime": 0,
      "vin": [
        {
          "coinbase": "04ffff001d02e206",
          "sequence": 4294967295
        }
      ],
      "vout": [
        {
          "value": 50.0,
          "n": 0,
          "scriptPubKey": {
            "asm": "04b628868d696952097069085ce0abcb80fb04f41087accc5609bacbcc1504c2398c3255d576e23708fe6f1e5bbeb2db5b95799a49ebe126bbb7f983ff98f2447e OP_CHECKSIG",
            "desc": "pk(04b628868d696952097069085ce0abcb80fb04f41087accc5609bacbcc1504c2398c3255d576e23708fe6f1e5bbeb2db5b95799a49ebe126bbb7f983ff98f2447e)#rrz5tv7s",
            "hex": "4104b628868d696952097069085ce0abcb80fb04f41087accc5609bacbcc1504c2398c3255d576e23708fe6f1e5bbeb2db5b95799a49ebe126bbb7f983ff98f2447eac",
            "type": "pubkey"
          }
        }
      ],
      "hex": "01000000010000000000000000000000000000000000000000000000000000000000000000ffffffff0804ffff001d02e206ffffffff0100f2052a01000000434104b628868d696952097069085ce0abcb80fb04f41087accc5609bacbcc1504c2398c3255d576e23708fe6f1e5bbeb2db5b95799a49ebe126bbb7f983ff98f2447eac00000000"
    }
  ]
}