{
  "hash": "0000000099424c7f78847a97b95557110802c172cd97fa3044f76e6c4700ed22",
  "confirmations": 52473,
  "height": 625,
  "version": 1,
  "versionHex": "00000001",
  "merkleroot": "4a1c9e5404dd08f932998be36ec7ad9878b03504212e2a0771373bcdbcae07ac",
  "time": 1232052762,
  "mediantime": 1232050140,
  "nonce": 3641590819,
  "bits": "1d00ffff",
  "difficulty": 1,
  "chainwork": "0000000000000000000000000000000000000000000000000000027202720272",
  "nTx": 1,
  "previousblockhash": "00000000cf6faaa863599e2e84c38c87ae48ab71b0d181a86921ec265a94aa1f",
  "nextblockhash": "0000000033818256a49ccc2a2a689f680aa67df17b6de2bef62858a41ba20bbf",
  "strippedsize": 216,
  "size": 216,
  "weight": 864,
  "tx": [
    {
      "txid": "4a1c9e5404dd08f932998be36ec7ad9878b03504212e2a0771373bcdbcae07ac",
      "hash": "4a1c9e5404dd08f932998be36ec7ad9878b03504212e2a0771373bcdbcae07ac",
      "version": 1,
      "size": 135,
      "vsize": 135,
      "weight": 540,
      "locktime": 0,
      "vin": [
        {
          "coinbase": "04ffff001d020807",
          "sequence": 4294967295
        }
      ],
      "vout": [
        {
          "value": 50.0,
          "n": 0,
          "scriptPubKey": {
            "asm": "04a30d5e1e810d92c36f892da89472b9d086b5df8c6f849599a004c08eb45a919de593bf09ebac09372778442a74a19e269a324ef28eafc0eec9306de701483994 OP_CHECKSIG",
            "desc": "pk(04a30d5e1e810d92c36f892da89472b9d086b5df8c6f849599a004c08eb45a919de593bf09ebac09372778442a74a19e269a324ef28eafc0eec9306de701483994)#vz092mmu",
            "hex": "4104a30d5e1e810d92c36f892da89472b9d086b5df8c6f849599a004c08eb45a919de593bf09ebac09372778442a74a19e269a324ef28eafc0eec9306de701483994ac",
            "type": "pubkey"
          }
        }
      ],
      "hex": "01000000010000000000000000000000000000000000000000000000000000000000000000ffffffff0804ffff001d020807ffffffff0100f2052a01000000434104a30d5e1e810d92c36f892da89472b9d086b5df8c6f849599a004c08eb45a919de593bf09ebac09372778442a74a19e269a324ef28eafc0eec9306de701483994ac00000000"
    }
  ]
}