{
  "hash": "000000007ebcdece21f9d22e36e50c4deaf9ecf6d41005932e52afe9ba18bab7",
  "confirmations": 49451,
  "height": 3647,
  "version": 1,
  "versionHex": "00000001",
  "merkleroot": "6c951c460a4cfe5483863adacafad59e5de7e55876a21857733ca94049d7d10c",
  "time": 1234201541,
  "mediantime": 1234198445,
  "nonce": 4029155074,
  "bits": "1d00ffff",
  "difficulty": 1,
  "chainwork": "00000000000000000000000000000000000000000000000000000e400e400e40",
  "nTx": 1,
  "previousblockhash": "00000000d8687454589387620174191e81cd8a9d92300b78f3d4a848be7091a3",
  "nextblockhash": "00000000fb37cd685382c3f443159b5545a7c794ba1f1e2ac71779883757e387",
  "strippedsize": 216,
  "size": 216,
  "weight": 864,
  "tx": [
    {
      "txid": "6c951c460a4cfe5483863adacafad59e5de7e55876a21857733ca94049d7d10c",
      "hash": "6c951c460a4cfe5483863adacafad59e5de7e55876a21857733ca94049d7d10c",
      "version": 1,
      "size": 135,
      "vsize": 135,
      "weight": 540,
      "locktime": 0,
      "vin": [
        {
          "coinbase": "04ffff001d023809",
          "sequence": 4294967295
        }
      ],
      "vout": [
        {
          "value": 50.0,
          "n": 0,
          "scriptPubKey": {
            "asm": "0487fbbf0323bbcb4f3dd8ce74ca71ada42e19e1dd0d598553c7eaafe1711169d022f084835277a1d56cd4f88dd3c5356994e068950b223edda5a710a17049c5ab OP_CHECKSIG",
            "desc": "pk(0487fbbf0323bbcb4f3dd8ce74ca71ada42e19e1dd0d598553c7eaafe1711169d022f084835277a1d56cd4f88dd3c5356994e068950b223edda5a710a17049c5ab)#whhj4zym",
            "hex": "410487fbbf0323bbcb4f3dd8ce74ca71ada42e19e1dd0d598553c7eaafe1711169d022f084835277a1d56cd4f88dd3c5356994e068950b223edda5a710a17049c5abac",
            "type": "pubkey"
          }
        }
      ],
      "hex": "01000000010000000000000000000000000000000000000000000000000000000000000000ffffffff0804ffff001d023809ffffffff0100f2052a0100000043410487fbbf0323bbcb4f3dd8ce74ca71ada42e19e1dd0d598553c7eaafe1711169d022f084835277a1d56cd4f88dd3c5356994e068950b223edda5a710a17049c5abac00000000"
    }
  ]
}