{
  "hash": "0000000095f086ab3e55bd178474021ab170557040a1abc306ae24c311973008",
  "confirmations": 46391,
  "height": 6707,
  "version": 1,
  "versionHex": "00000001",
  "merkleroot": "5defbab9408f0f480567108b09d8f56ca0fb5b5ef1351cc51bbd5ae85f0b3d1d",
  "time": 1236488227,
  "mediantime": 1236484936,
  "nonce": 3327241519,
  "bits": "1d00ffff",
  "difficulty": 1,
  "chainwork": "00000000000000000000000000000000000000000000000000001a341a341a34",
  "nTx": 1,
  "previousblockhash": "0000000017e80cb6eda62df393a0921fcd5e4fa0b05d1c497a517dd993843be8",
  "nextblockhash": "000000007108461df15994277cd6fe447410fa837d922e1fa5c6c5f1d8b69455",
  "strippedsize": 216,
  "size": 216,
  "weight": 864,
  "tx": [
    {
      "txid": "5defbab9408f0f480567108b09d8f56ca0fb5b5ef1351cc51bbd5ae85f0b3d1d",
      "hash": "5defbab9408f0f480567108b09d8f56ca0fb5b5ef1351cc51bbd5ae85f0b3d1d",
      "version": 1,
      "size": 135,
      "vsize": 135,
      "weight": 540,
      "locktime": 0,
      "vin": [
        {
          "coinbase": "04ffff001d023507",
          "sequence": 4294967295
        }
      ],
      "vout": [
        {
          "value": 50.0,
          "n": 0,
          "scriptPubKey": {
            "asm": "04ba1eba069609b068bbb899df65575279e3ae91ef66939778cd3b2ff61f099787177debe890b725454e3bdaea93ab1636d9960abe226a61100a59d19f8b6548ca OP_CHECKSIG",
            "desc": "pk(04ba1eba069609b068bbb899df65575279e3ae91ef66939778cd3b2ff61f099787177debe890b725454e3bdaea93ab1636d9960abe226a61100a59d19f8b6548ca)#3rldqaku",
            "hex": "4104ba1eba069609b068bbb899df65575279e3ae91ef66939778cd3b2ff61f099787177debe890b725454e3bdaea93ab1636d9960abe226a61100a59d19f8b6548caac",
            "type": "pubkey"
          }
        }
      ],
      "hex": "01000000010000000000000000000000000000000000000000000000000000000000000000ffffffff0804ffff001d023507ffffffff0100f2052a01000000434104ba1eba069609b068bbb899df65575279e3ae91ef66939778cd3b2ff61f099787177debe890b725454e3bdaea93ab1636d9960abe226a61100a59d19f8b6548caac00000000"
    }
  ]
}