{
  "hash": "00000000429f3066e1963c94df6bc5b44c5c5e6dc59861c403c91efc2e6e124f",
  "confirmations": 46764,
  "height": 6334,
  "version": 1,
  "versionHex": "00000001",
  "merkleroot": "20d09edd4e8d60ce32fbe041cc1f8fcc0c2e5a2a4dc97d336ab36595bf850356",
  "time": 1236200884,
  "mediantime": 1236196229,
  "nonce": 2811020067,
  "bits": "1d00ffff",
  "difficulty": 1,
  "chainwork": "000000000000000000000000000000000000000000000000000018bf18bf18bf",
  "nTx": 1,
  "previousblockhash": "00000000e9f98f2d446cc2aa66d55db4d3e877e1f92b6fae8b536097309f6edd",
  "nextblockhash": "000000005dc16ce13c7671bdaac9aed58ff0078489e578fd34c8bce3b97e15d2",
  "strippedsize": 216,
  "size": 216,
  "weight": 864,
  "tx": [
    {
      "txid": "20d09edd4e8d60ce32fbe041cc1f8fcc0c2e5a2a4dc97d336ab36595bf850356",
      "hash": "20d09edd4e8d60ce32fbe041cc1f8fcc0c2e5a2a4dc97d336ab36595bf850356",
      "version": 1,
      "size": 135,
      "vsize": 135,
      "weight": 540,
      "locktime": 0,
      "vin": [
        {
          "coinbase": "04ffff001d029500",
          "sequence": 4294967295
        }
      ],
      "vout": [
        {
          "value": 50.0,
          "n": 0,
          "scriptPubKey": {
            "asm": "04e432112fbb49bad58cea612a1baab09d25a1e33a84fca9abfb6b3f2ee3ff3a962821f8b27e949ad1c14c6ca1497daf8493c56185050e01ea89952782cafaa2ce OP_CHECKSIG",
            "desc": "pk(04e432112fbb49bad58cea612a1baab09d25a1e33a84fca9abfb6b3f2ee3ff3a962821f8b27e949ad1c14c6ca1497daf8493c56185050e01ea89952782cafaa2ce)#4m443ulp",
            "hex": "4104e432112fbb49bad58cea612a1baab09d25a1e33a84fca9abfb6b3f2ee3ff3a962821f8b27e949ad1c14c6ca1497daf8493c56185050e01ea89952782cafaa2ceac",
            "type": "pubkey"
          }
        }
      ],
      "hex": "01000000010000000000000000000000000000000000000000000000000000000000000000ffffffff0804ffff001d029500ffffffff0100f2052a01000000434104e432112fbb49bad58cea612a1baab09d25a1e33a84fca9abfb6b3f2ee3ff3a962821f8b27e949ad1c14c6ca1497daf8493c56185050e01ea89952782cafaa2ceac00000000"
    }
  ]
}