{
  "hash": "000000001ee1d3053357a374d6d9746e80d56a666f3827c92e80e0d1b3f2f2a1",
  "confirmations": 51210,
  "height": 1888,
  "version": 1,
  "versionHex": "00000001",
  "merkleroot": "3af3cfc61587a5d2e5772f1cf4fdba015cf3a9434032bd3f5560f4f66b33ba5c",
  "time": 1232940072,
  "mediantime": 1232937232,
  "nonce": 3012907299,
  "bits": "1d00ffff",
  "difficulty": 1,
  "chainwork": "0000000000000000000000000000000000000000000000000000076107610761",
  "nTx": 1,
  "previousblockhash": "000000008865014383055fbc472d628eb95ef3924a4163b1188eaa7bf6a0aff3",
  "nextblockhash": "00000000bf3fc4c4ab6737df907f613b5aa86373d426b5e86a1009030852f129",
  "strippedsize": 216,
  "size": 216,
  "weight": 864,
  "tx": [
    {
      "txid": "3af3cfc61587a5d2e5772f1cf4fdba015cf3a9434032bd3f5560f4f66b33ba5c",
      "hash": "3af3cfc61587a5d2e5772f1cf4fdba015cf3a9434032bd3f5560f4f66b33ba5c",
      "version": 1,
      "size": 135,
      "vsize": 135,
      "weight": 540,
      "locktime": 0,
      "vin": [
        {
          "coinbase": "04ffff001d02fe04",
          "sequence": 4294967295
        }
      ],
      "vout": [
        {
          "value": 50.0,
          "n": 0,
          "scriptPubKey": {
            "asm": "042280116a3111856732676f10b39154ab3c5b9e0b30d180cc6a28118ce8c3a7a7bf36d056fda45009cde9a5f6cc12943c70b45e3a817afcc5c36087810188285c OP_CHECKSIG",
            "desc": "pk(042280116a3111856732676f10b39154ab3c5b9e0b30d180cc6a28118ce8c3a7a7bf36d056fda45009cde9a5f6cc12943c70b45e3a817afcc5c36087810188285c)#sux6v9r7",
            "hex": "41042280116a3111856732676f10b39154ab3c5b9e0b30d180cc6a28118ce8c3a7a7bf36d056fda45009cde9a5f6cc12943c70b45e3a817afcc5c36087810188285cac",
            "type": "pubkey"
          }
        }
      ],
      "hex": "01000000010000000000000000000000000000000000000000000000000000000000000000ffffffff0804ffff001d02fe04ffffffff0100f2052a010000004341042280116a3111856732676f10b39154ab3c5b9e0b30d180cc6a28118ce8c3a7a7bf36d056fda45009cde9a5f6cc12943c70b45e3a817afcc5c36087810188285cac00000000"
    }
  ]
}