{
  "hash": "000000001472bfd85bc45db02fe9b76f4334b38427bdd1e40c192807a6d725e2",
  "confirmations": 52139,
  "height": 959,
  "version": 1,
  "versionHex": "00000001",
  "merkleroot": "7d2edf266b896bf7460daeb8b84653c43c9b8f5b6b0b453dd8808d53c19818ff",
  "time": 1232318024,
  "mediantime": 1232316261,
  "nonce": 54897053,
  "bits": "1d00ffff",
  "difficulty": 1,
  "chainwork": "000000000000000000000000000000000000000000000000000003c003c003c0",
  "nTx": 1,
  "previousblockhash": "0000000067ae27927eb8e062c1c959bca4e569724e3f32d841d8b8f7101aa953",
  "nextblockhash": "0000000033b6aff54367192081c65ece7edb4277ebb727c22091f47916e3fb5e",
  "strippedsize": 216,
  "size": 216,
  "weight": 864,
  "tx": [
    {
      "txid": "7d2edf266b896bf7460daeb8b84653c43c9b8f5b6b0b453dd8808d53c19818ff",
      "hash": "7d2edf266b896bf7460daeb8b84653c43c9b8f5b6b0b453dd8808d53c19818ff",
      "version": 1,
      "size": 135,
      "vsize": 135,
      "weight": 540,
      "locktime": 0,
      "vin": [
        {
          "coinbase": "04ffff001d02f600",
          "sequence": 4294967295
        }
      ],
      "vout": [
        {
          "value": 50.0,
          "n": 0,
          "scriptPubKey": {
            "asm": "0498ed35bfb97068b55d5010794cde5e0bcf361aea9c72ec31c312434c27a16974abcd110708d168b7c631207f923d569d1ce18471c70263ba721189466ebafc3c OP_CHECKSIG",
            "desc": "pk(0498ed35bfb97068b55d5010794cde5e0bcf361aea9c72ec31c312434c27a16974abcd110708d168b7c631207f923d569d1ce18471c70263ba721189466ebafc3c)#s80cf4cl",
            "hex": "410498ed35bfb97068b55d5010794cde5e0bcf361aea9c72ec31c312434c27a16974abcd110708d168b7c631207f923d569d1ce18471c70263ba721189466ebafc3cac",
            "type": "pubkey"
          }
        }
      ],
      "hex": "01000000010000000000000000000000000000000000000000000000000000000000000000ffffffff0804ffff001d02f600ffffffff0100f2052a0100000043410498ed35bfb97068b55d5010794cde5e0bcf361aea9c72ec31c312434c27a16974abcd110708d168b7c631207f923d569d1ce18471c70263ba721189466ebafc3cac00000000"
    }
  ]
}