{
  "hash": "0000000001713f321b78d3333243e7f4f66ebf7113e534e771791b5aa876774e",
  "confirmations": 52205,
  "height": 893,
  "version": 1,
  "versionHex": "00000001",
  "merkleroot": "071221fdd1639bcb9b9d2aa9b6cce05e0511b69de862c13953261d6a6a462cb1",
  "time": 1232269231,
  "mediantime": 1232263401,
  "nonce": 427681578,
  "bits": "1d00ffff",
  "difficulty": 1,
  "chainwork": "0000000000000000000000000000000000000000000000000000037e037e037e",
  "nTx": 1,
  "previousblockhash": "0000000063111563901347f960324f320cfa61eb98beb60185a640068ac87f77",
  "nextblockhash": "0000000057c7d5c0a5aea3f950bd831a938d8e57a98b07557a964fb62d7d06ff",
  "strippedsize": 216,
  "size": 216,
  "weight": 864,
  "tx": [
    {
      "txid": "071221fdd1639bcb9b9d2aa9b6cce05e0511b69de862c13953261d6a6a462cb1",
      "hash": "071221fdd1639bcb9b9d2aa9b6cce05e0511b69de862c13953261d6a6a462cb1",
      "version": 1,
      "size": 135,
      "vsize": 135,
      "weight": 540,
      "locktime": 0,
      "vin": [
        {
          "coinbase": "04ffff001d028503",
          "sequence": 4294967295
        }
      ],
      "vout": [
        {
          "value": 50.0,
          "n": 0,
          "scriptPubKey": {
            "asm": "04f76f8e8c065a89c40e1d2d223a49107c3888f54bc6cf01cfd57be559dd9ceb9e6b7da0a3984200e992ee09c3a1d952fc97e69c78c3406ca9e77bbacca4558907 OP_CHECKSIG",
            "desc": "pk(04f76f8e8c065a89c40e1d2d223a49107c3888f54bc6cf01cfd57be559dd9ceb9e6b7da0a3984200e992ee09c3a1d952fc97e69c78c3406ca9e77bbacca4558907)#9pv7k0dr",
            "hex": "4104f76f8e8c065a89c40e1d2d223a49107c3888f54bc6cf01cfd57be559dd9ceb9e6b7da0a3984200e992ee09c3a1d952fc97e69c78c3406ca9e77bbacca4558907ac",
            "type": "pubkey"
          }
        }
      ],
      "hex": "01000000010000000000000000000000000000000000000000000000000000000000000000ffffffff0804ffff001d028503ffffffff0100f2052a01000000434104f76f8e8c065a89c40e1d2d223a49107c3888f54bc6cf01cfd57be559dd9ceb9e6b7da0a3984200e992ee09c3a1d952fc97e69c78c3406ca9e77bbacca4558907ac00000000"
    }
  ]
}