{
  "hash": "0000000099a10ad867d932cb4c83be9d3c1015a5651371c9036ae3a72435094c",
  "confirmations": 44928,
  "height": 8170,
  "version": 1,
  "versionHex": "00000001",
  "merkleroot": "181889ed2580183021bfffde315b22a51de585a3fd10f41563f388de28d9d1d9",
  "time": 1237586514,
  "mediantime": 1237583103,
  "nonce": 640792101,
  "bits": "1d00ffff",
  "difficulty": 1,
  "chainwork": "00000000000000000000000000000000000000000000000000001feb1feb1feb",
  "nTx": 1,
  "previousblockhash": "00000000383f6a8a0d93575f1d6ea8a8a02a809b8122deb293402b705042d5fd",
  "nextblockhash": "000000002fec941ddc71a8e9d1ce5ddbb84f8deeb21a8a1998056fb6ebe10c68",
  "strippedsize": 216,
  "size": 216,
  "weight": 864,
  "tx": [
    {
      "txid": "181889ed2580183021bfffde315b22a51de585a3fd10f41563f388de28d9d1d9",
      "hash": "181889ed2580183021bfffde315b22a51de585a3fd10f41563f388de28d9d1d9",
      "version": 1,
      "size": 135,
      "vsize": 135,
      "weight": 540,
      "locktime": 0,
      "vin": [
        {
          "coinbase": "04ffff001d026a02",
          "sequence": 4294967295
        }
      ],
      "vout": [
        {
          "value": 50.0,
          "n": 0,
          "scriptPubKey": {
            "asm": "04cc5f4e46a45e148a97ded1382481c2c97ba853d69892aebaf9202ed4337c69785b7e1114a21e2cf5d3594b28d0e201e3584697571d1d4683c67f6d2fd4c2a4c5 OP_CHECKSIG",
            "desc": "pk(04cc5f4e46a45e148a97ded1382481c2c97ba853d69892aebaf9202ed4337c69785b7e1114a21e2cf5d3594b28d0e201e3584697571d1d4683c67f6d2fd4c2a4c5)#heg3ugat",
            "hex": "4104cc5f4e46a45e148a97ded1382481c2c97ba853d69892aebaf9202ed4337c69785b7e1114a21e2cf5d3594b28d0e201e3584697571d1d4683c67f6d2fd4c2a4c5ac",
            "type": "pubkey"
          }
        }
      ],
      "hex": "01000000010000000000000000000000000000000000000000000000000000000000000000ffffffff0804ffff001d026a02ffffffff0100f2052a01000000434104cc5f4e46a45e148a97ded1382481c2c97ba853d69892aebaf9202ed4337c69785b7e1114a21e2cf5d3594b28d0e201e3584697571d1d4683c67f6d2fd4c2a4c5ac00000000"
    }
  ]
}