{
  "hash": "0000000046475683d2e0adf6e8c0ea90776be3e1ebd65145af910a898c9d4c3d",
  "confirmations": 48570,
  "height": 4528,
  "version": 1,
  "versionHex": "00000001",
  "merkleroot": "8245fafc7b3c662b65fc7e9d242e0f8d56e6ff4ca116c8e2cf3440b56ec1488d",
  "time": 1234801029,
  "mediantime": 1234796312,
  "nonce": 3521766710,
  "bits": "1d00ffff",
  "difficulty": 1,
  "chainwork": "000000000000000000000000000000000000000000000000000011b111b111b1",
  "nTx": 1,
  "previousblockhash": "000000005c0fb76f462638eb5b98aa282c0c2d8893fd847014c331f76a918b56",
  "nextblockhash": "00000000116983d1a8487b215a3d0c4396f9490ce5781d9fe0b6f64defe7c363",
  "strippedsize": 216,
  "size": 216,
  "weight": 864,
  "tx": [
    {
      "txid": "8245fafc7b3c662b65fc7e9d242e0f8d56e6ff4ca116c8e2cf3440b56ec1488d",
      "hash": "8245fafc7b3c662b65fc7e9d242e0f8d56e6ff4ca116c8e2cf3440b56ec1488d",
      "version": 1,
      "size": 135,
      "vsize": 135,
      "weight": 540,
      "locktime": 0,
      "vin": [
        {
          "coinbase": "04ffff001d023903",
          "sequence": 4294967295
        }
      ],
      "vout": [
        {
          "value": 50.0,
          "n": 0,
          "scriptPubKey": {
            "asm": "04dd7be8ca49593fec9f2b3595ee56c0423c9bf25eea65fcc631591e9e3a5c34fe74c6be14f4025ab4edf023b5c34dafc62a2548720a113e6f499689f107d8fbf9 OP_CHECKSIG",
            "desc": "pk(04dd7be8ca49593fec9f2b3595ee56c0423c9bf25eea65fcc631591e9e3a5c34fe74c6be14f4025ab4edf023b5c34dafc62a2548720a113e6f499689f107d8fbf9)#q6p2404m",
            "hex": "4104dd7be8ca49593fec9f2b3595ee56c0423c9bf25eea65fcc631591e9e3a5c34fe74c6be14f4025ab4edf023b5c34dafc62a2548720a113e6f499689f107d8fbf9ac",
            "type": "pubkey"
          }
        }
      ],
      "hex": "01000000010000000000000000000000000000000000000000000000000000000000000000ffffffff0804ffff001d023903ffffffff0100f2052a01000000434104dd7be8ca49593fec9f2b3595ee56c0423c9bf25eea65fcc631591e9e3a5c34fe74c6be14f4025ab4edf023b5c34dafc62a2548720a113e6f499689f107d8fbf9ac00000000"
    }
  ]
}