{
  "hash": "00000000be9472e6e4b47acfb67345bd7aba371b41712904e30a1e6e728e910d",
  "confirmations": 52569,
  "height": 526,
  "version": 1,
  "versionHex": "00000001",
  "merkleroot": "6de985374daa7c0e165325d8a1d28173bcd50a89e4146f1c4f835699a77e0ebf",
  "time": 1231985645,
  "mediantime": 1231982645,
  "nonce": 1012523016,
  "bits": "1d00ffff",
  "difficulty": 1,
  "chainwork": "0000000000000000000000000000000000000000000000000000020f020f020f",
  "nTx": 1,
  "previousblockhash": "00000000015402dc2bcc4afdc3be3c58e873a7ecea22c12f72d6889eb9b9a0b1",
  "nextblockhash": "0000000050475e8b0608b84ae592640cd63577af6da96376570cfb5782bc9e5d",
  "strippedsize": 216,
  "size": 216,
  "weight": 864,
  "tx": [
    {
      "txid": "6de985374daa7c0e165325d8a1d28173bcd50a89e4146f1c4f835699a77e0ebf",
      "hash": "6de985374daa7c0e165325d8a1d28173bcd50a89e4146f1c4f835699a77e0ebf",
      "version": 1,
      "size": 135,
      "vsize": 135,
      "weight": 540,
      "locktime": 0,
      "vin": [
        {
          "coinbase": "04ffff001d02fd04",
          "sequence": 4294967295
        }
      ],
      "vout": [
        {
          "value": 50.0,
          "n": 0,
          "scriptPubKey": {
            "asm": "0448c227ad9e8e776663f0f128aa1cea77356c99d0811491704b0ed648dc2f36ef7e9dadf34c1550e50de6e82196a206858f1c528ca03c23e33deb9c43b089debf OP_CHECKSIG",
            "desc": "pk(0448c227ad9e8e776663f0f128aa1cea77356c99d0811491704b0ed648dc2f36ef7e9dadf34c1550e50de6e82196a206858f1c528ca03c23e33deb9c43b089debf)#pfeee4w5",
            "hex": "410448c227ad9e8e776663f0f128aa1cea77356c99d0811491704b0ed648dc2f36ef7e9dadf34c1550e50de6e82196a206858f1c528ca03c23e33deb9c43b089debfac",
            "type": "pubkey"
          }
        }
      ],
      "hex": "01000000010000000000000000000000000000000000000000000000000000000000000000ffffffff0804ffff001d02fd04ffffffff0100f2052a0100000043410448c227ad9e8e776663f0f128aa1cea77356c99d0811491704b0ed648dc2f36ef7e9dadf34c1550e50de6e82196a206858f1c528ca03c23e33deb9c43b089debfac00000000"
    }
  ]
}