{
  "hash": "00000000f7cae754b61022f00739d16d76387b62677e050e4cf533027e51421c",
  "confirmations": 45710,
  "height": 7388,
  "version": 1,
  "versionHex": "00000001",
  "merkleroot": "6af81b394582ba39169bfe2f5449990c7b5532feab92e9cf5dbf50b1f9b54eac",
  "time": 1237012227,
  "mediantime": 1237007580,
  "nonce": 1741743928,
  "bits": "1d00ffff",
  "difficulty": 1,
  "chainwork": "00000000000000000000000000000000000000000000000000001cdd1cdd1cdd",
  "nTx": 1,
  "previousblockhash": "00000000524557572e1f396e9c54c44bf7183c7c84d9286407ce823a994e8406",
  "nextblockhash": "00000000030313ffddbcc77c0be213cdd03fd66e57de54dc90877aa5512cf46b",
  "strippedsize": 216,
  "size": 216,
  "weight": 864,
  "tx": [
    {
      "txid": "6af81b394582ba39169bfe2f5449990c7b5532feab92e9cf5dbf50b1f9b54eac",
      "hash": "6af81b394582ba39169bfe2f5449990c7b5532feab92e9cf5dbf50b1f9b54eac",
      "version": 1,
      "size": 135,
      "vsize": 135,
      "weight": 540,
      "locktime": 0,
      "vin": [
        {
          "coinbase": "04ffff001d022009",
          "sequence": 4294967295
        }
      ],
      "vout": [
        {
          "value": 50.0,
          "n": 0,
          "scriptPubKey": {
            "asm": "048bbde730fe2ce311fb51a9686eb6b52c7c86a57feccbe54cc40b09709d2bfeb8d09fcf2f0aa08e564f504dcab28146dca60ad28b44a9afdf7d535a6c613773bc OP_CHECKSIG",
            "desc": "pk(048bbde730fe2ce311fb51a9686eb6b52c7c86a57feccbe54cc40b09709d2bfeb8d09fcf2f0aa08e564f504dcab28146dca60ad28b44a9afdf7d535a6c613773bc)#4kt5kkal",
            "hex": "41048bbde730fe2ce311fb51a9686eb6b52c7c86a57feccbe54cc40b09709d2bfeb8d09fcf2f0aa08e564f504dcab28146dca60ad28b44a9afdf7d535a6c613773bcac",
            "type": "pubkey"
          }
        }
      ],
      "hex": "01000000010000000000000000000000000000000000000000000000000000000000000000ffffffff0804ffff001d022009ffffffff0100f2052a010000004341048bbde730fe2ce311fb51a9686eb6b52c7c86a57feccbe54cc40b09709d2bfeb8d09fcf2f0aa08e564f504dcab28146dca60ad28b44a9afdf7d535a6c613773bcac00000000"
    }
  ]
}