{
  "hash": "000000002612c92d24f533bfc280284354cb4f561c91bfaec2932f6da4e8959b",
  "confirmations": 52132,
  "height": 372,
  "version": 1,
  "versionHex": "00000001",
  "merkleroot": "cc1986e44472170499f108be5691ecc7008cbb5ddadf643b13a2becb56f85c5c",
  "time": 1231880620,
  "mediantime": 1231877248,
  "nonce": 30822215,
  "bits": "1d00ffff",
  "difficulty": 1,
  "chainwork": "0000000000000000000000000000000000000000000000000000017501750175",
  "nTx": 1,
  "previousblockhash": "00000000ba884fc8047c04bba7068f575e21d4cb953e1f52262a0454c98c5586",
  "nextblockhash": "00000000f91934e5f42cb57e2c3241a4bb7c178c85593613e7b2e43c3a9ff2ab",
  "strippedsize": 215,
  "size": 215,
  "weight": 860,
  "tx": [
    {
      "txid": "cc1986e44472170499f108be5691ecc7008cbb5ddadf643b13a2becb56f85c5c",
      "hash": "cc1986e44472170499f108be5691ecc7008cbb5ddadf643b13a2becb56f85c5c",
      "version": 1,
      "size": 134,
      "vsize": 134,
      "weight": 536,
      "locktime": 0,
      "vin": [
        {
          "coinbase": "04ffff001d0117",
          "sequence": 4294967295
        }
      ],
      "vout": [
        {
          "value": 50.0,
          "n": 0,
          "scriptPubKey": {
            "asm": "043be31de92efe9ddcc783b1ab7c5b5512c47cf55ec6b81a04dd52831eaad158034b0f99cdafc2dd07345e2139f1c0a80f48de53462cd6202e400f173b9045813c OP_CHECKSIG",
            "desc": "pk(043be31de92efe9ddcc783b1ab7c5b5512c47cf55ec6b81a04dd52831eaad158034b0f99cdafc2dd07345e2139f1c0a80f48de53462cd6202e400f173b9045813c)#netrwnr7",
            "hex": "41043be31de92efe9ddcc783b1ab7c5b5512c47cf55ec6b81a04dd52831eaad158034b0f99cdafc2dd07345e2139f1c0a80f48de53462cd6202e400f173b9045813cac",
            "type": "pubkey"
          }
        }
      ],
      "hex": "01000000010000000000000000000000000000000000000000000000000000000000000000ffffffff0704ffff001d0117ffffffff0100f2052a010000004341043be31de92efe9ddcc783b1ab7c5b5512c47cf55ec6b81a04dd52831eaad158034b0f99cdafc2dd07345e2139f1c0a80f48de53462cd6202e400f173b9045813cac00000000"
    }
  ]
}