{
  "hash": "0000000086e318e8c348dad73199bb6fac8cc1effb9c872a7dda49c5caca0021",
  "confirmations": 51930,
  "height": 79,
  "version": 1,
  "versionHex": "00000001",
  "merkleroot": "fb9967077804b9a4b7f5c80f7d8c567639cc14b17955da27c10b9947ddbd1825",
  "time": 1231645607,
  "mediantime": 1231631189,
  "nonce": 2991488313,
  "bits": "1d00ffff",
  "difficulty": 1,
  "chainwork": "0000000000000000000000000000000000000000000000000000005000500050",
  "nTx": 1,
  "previousblockhash": "00000000a2886c95400fd3b263b9920af80b118b28fee5d2a162a18e4d9d8b2f",
  "nextblockhash": "00000000be62325a98e47d3306f275efe45d39d8cd5df28c795c96b8920ad48f",
  "strippedsize": 215,
  "size": 215,
  "weight": 860,
  "tx": [
    {
      "txid": "fb9967077804b9a4b7f5c80f7d8c567639cc14b17955da27c10b9947ddbd1825",
      "hash": "fb9967077804b9a4b7f5c80f7d8c567639cc14b17955da27c10b9947ddbd1825",
      "version": 1,
      "size": 134,
      "vsize": 134,
      "weight": 536,
      "locktime": 0,
      "vin": [
        {
          "coinbase": "04ffff001d0103",
          "sequence": 4294967295
        }
      ],
      "vout": [
        {
          "value": 50.0,
          "n": 0,
          "scriptPubKey": {
            "asm": "045180728bae477149c556f55987b95b926a0da0f542adf2e8f4f811cd929b8e5c73b92ac9f454a2bfc7b1463be7f553b9e7ba26f7229d513241ff3b5cdf6b72bb OP_CHECKSIG",
            "desc": "pk(045180728bae477149c556f55987b95b926a0da0f542adf2e8f4f811cd929b8e5c73b92ac9f454a2bfc7b1463be7f553b9e7ba26f7229d513241ff3b5cdf6b72bb)#zupky02q",
            "hex": "41045180728bae477149c556f55987b95b926a0da0f542adf2e8f4f811cd929b8e5c73b92ac9f454a2bfc7b1463be7f553b9e7ba26f7229d513241ff3b5cdf6b72bbac",
            "type": "pubkey"
          }
        }
      ],
      "hex": "01000000010000000000000000000000000000000000000000000000000000000000000000ffffffff0704ffff001d0103ffffffff0100f2052a010000004341045180728bae477149c556f55987b95b926a0da0f542adf2e8f4f811cd929b8e5c73b92ac9f454a2bfc7b1463be7f553b9e7ba26f7229d513241ff3b5cdf6b72bbac00000000"
    }
  ]
}