{
  "hash": "000000005f3f79d743d6c610beaa31ea3b2cd065e1b8b378a4c7d93be92f9c0e",
  "confirmations": 45636,
  "height": 7462,
  "version": 1,
  "versionHex": "00000001",
  "merkleroot": "d66939f9a03d2386007fe728bcd06d4d0521140739120c38ed330a035e9fca03",
  "time": 1237071542,
  "mediantime": 1237068092,
  "nonce": 3139489847,
  "bits": "1d00ffff",
  "difficulty": 1,
  "chainwork": "00000000000000000000000000000000000000000000000000001d271d271d27",
  "nTx": 1,
  "previousblockhash": "000000006a4b5773ec68596483a413534ea4426253f825c19bd94e9be49fc313",
  "nextblockhash": "000000001de9b5f2060bcc24a2e6b9819b9434c784e03362037c4f0ef77d02be",
  "strippedsize": 215,
  "size": 215,
  "weight": 860,
  "tx": [
    {
      "txid": "d66939f9a03d2386007fe728bcd06d4d0521140739120c38ed330a035e9fca03",
      "hash": "d66939f9a03d2386007fe728bcd06d4d0521140739120c38ed330a035e9fca03",
      "version": 1,
      "size": 134,
      "vsize": 134,
      "weight": 536,
      "locktime": 0,
      "vin": [
        {
          "coinbase": "04ffff001d0163",
          "sequence": 4294967295
        }
      ],
      "vout": [
        {
          "value": 50.0,
          "n": 0,
          "scriptPubKey": {
            "asm": "04576f0b61b97e0786cfa87916aa5b8575124231d0f356ea1880e172509854ebf5421ea1f057d565ce99ae4892c7c658828b2b3f41ce9e8db24c1dbc739cc1d730 OP_CHECKSIG",
            "desc": "pk(04576f0b61b97e0786cfa87916aa5b8575124231d0f356ea1880e172509854ebf5421ea1f057d565ce99ae4892c7c658828b2b3f41ce9e8db24c1dbc739cc1d730)#qauk69ms",
            "hex": "4104576f0b61b97e0786cfa87916aa5b8575124231d0f356ea1880e172509854ebf5421ea1f057d565ce99ae4892c7c658828b2b3f41ce9e8db24c1dbc739cc1d730ac",
            "type": "pubkey"
          }
        }
      ],
      "hex": "01000000010000000000000000000000000000000000000000000000000000000000000000ffffffff0704ffff001d0163ffffffff0100f2052a01000000434104576f0b61b97e0786cfa87916aa5b8575124231d0f356ea1880e172509854ebf5421ea1f057d565ce99ae4892c7c658828b2b3f41ce9e8db24c1dbc739cc1d730ac00000000"
    }
  ]
}