{
  "hash": "0000000086a691adc91420e5524c503a91492ac8aa76e994321721c25cf489d1",
  "confirmations": 51262,
  "height": 1836,
  "version": 1,
  "versionHex": "00000001",
  "merkleroot": "d3d28f3f74eed18debb53ebb0b131601a02841dcd15280ec3ddc59c8a7f6b269",
  "time": 1232916282,
  "mediantime": 1232913846,
  "nonce": 113244152,
  "bits": "1d00ffff",
  "difficulty": 1,
  "chainwork": "0000000000000000000000000000000000000000000000000000072d072d072d",
  "nTx": 1,
  "previousblockhash": "0000000018acfba39f5b2d3065a1705ee2df5640e8754d101eed68f443037150",
  "nextblockhash": "00000000f78078420299b8d5c188bb8afcbaa49085569c106de370ff0b39289f",
  "strippedsize": 216,
  "size": 216,
  "weight": 864,
  "tx": [
    {
      "txid": "d3d28f3f74eed18debb53ebb0b131601a02841dcd15280ec3ddc59c8a7f6b269",
      "hash": "d3d28f3f74eed18debb53ebb0b131601a02841dcd15280ec3ddc59c8a7f6b269",
      "version": 1,
      "size": 135,
      "vsize": 135,
      "weight": 540,
      "locktime": 0,
      "vin": [
        {
          "coinbase": "04ffff001d029702",
          "sequence": 4294967295
        }
      ],
      "vout": [
        {
          "value": 50.0,
          "n": 0,
          "scriptPubKey": {
            "asm": "04ef41b8ecb6b9d377e34441044d2733f9198af65978972a02d2148b2287c3ae80236f07477a09d7f8c5d8ff6a20b6a53109c80d51a82d1463b6c55742c1c98412 OP_CHECKSIG",
            "desc": "pk(04ef41b8ecb6b9d377e34441044d2733f9198af65978972a02d2148b2287c3ae80236f07477a09d7f8c5d8ff6a20b6a53109c80d51a82d1463b6c55742c1c98412)#x4r5ru0x",
            "hex": "4104ef41b8ecb6b9d377e34441044d2733f9198af65978972a02d2148b2287c3ae80236f07477a09d7f8c5d8ff6a20b6a53109c80d51a82d1463b6c55742c1c98412ac",
            "type": "pubkey"
          }
        }
      ],
      "hex": "01000000010000000000000000000000000000000000000000000000000000000000000000ffffffff0804ffff001d029702ffffffff0100f2052a01000000434104ef41b8ecb6b9d377e34441044d2733f9198af65978972a02d2148b2287c3ae80236f07477a09d7f8c5d8ff6a20b6a53109c80d51a82d1463b6c55742c1c98412ac00000000"
    }
  ]
}