{
  "hash": "00000000963ac3e467d8d41ab5525a2c57f21b79977e1380d01dfd1652a5d5d4",
  "confirmations": 50073,
  "height": 3025,
  "version": 1,
  "versionHex": "00000001",
  "merkleroot": "9ae3d8de7ed8f1dd275c9740caaa1f99b76e7a062a7881eb23897d59b70b533c",
  "time": 1233779690,
  "mediantime": 1233776683,
  "nonce": 2239851037,
  "bits": "1d00ffff",
  "difficulty": 1,
  "chainwork": "00000000000000000000000000000000000000000000000000000bd20bd20bd2",
  "nTx": 1,
  "previousblockhash": "00000000956918d60ba336d469e04e79113091f0c9bb465101c4c7e5d03d7d6c",
  "nextblockhash": "00000000421803952da632bac717866599153b4ab08e6ea302ee8b16206ec55d",
  "strippedsize": 216,
  "size": 216,
  "weight": 864,
  "tx": [
    {
      "txid": "9ae3d8de7ed8f1dd275c9740caaa1f99b76e7a062a7881eb23897d59b70b533c",
      "hash": "9ae3d8de7ed8f1dd275c9740caaa1f99b76e7a062a7881eb23897d59b70b533c",
      "version": 1,
      "size": 135,
      "vsize": 135,
      "weight": 540,
      "locktime": 0,
      "vin": [
        {
          "coinbase": "04ffff001d02c101",
          "sequence": 4294967295
        }
      ],
      "vout": [
        {
          "value": 50.0,
          "n": 0,
          "scriptPubKey": {
            "asm": "048ec0ae12a3b5853436a2c3adecfe36f4fa09b7edda7d4ee96f054e74ff7683c18e8c27b610eff7836e1416b3e8748bc0cc5b1c079f508147cf018c04fdabf43e OP_CHECKSIG",
            "desc": "pk(048ec0ae12a3b5853436a2c3adecfe36f4fa09b7edda7d4ee96f054e74ff7683c18e8c27b610eff7836e1416b3e8748bc0cc5b1c079f508147cf018c04fdabf43e)#chg40ue6",
            "hex": "41048ec0ae12a3b5853436a2c3adecfe36f4fa09b7edda7d4ee96f054e74ff7683c18e8c27b610eff7836e1416b3e8748bc0cc5b1c079f508147cf018c04fdabf43eac",
            "type": "pubkey"
          }
        }
      ],
      "hex": "01000000010000000000000000000000000000000000000000000000000000000000000000ffffffff0804ffff001d02c101ffffffff0100f2052a010000004341048ec0ae12a3b5853436a2c3adecfe36f4fa09b7edda7d4ee96f054e74ff7683c18e8c27b610eff7836e1416b3e8748bc0cc5b1c079f508147cf018c04fdabf43eac00000000"
    }
  ]
}