{
  "hash": "00000000d529624caf84f0b2d5fd4336fbde2aff55d1111716308af362bb38f3",
  "confirmations": 44707,
  "height": 8391,
  "version": 1,
  "versionHex": "00000001",
  "merkleroot": "b9d59c4cc4f3bc2b69b0ce0c6734303fa1d7e669f92da6d8707bcab64855785d",
  "time": 1237795438,
  "mediantime": 1237791134,
  "nonce": 218662439,
  "bits": "1d00ffff",
  "difficulty": 1,
  "chainwork": "000000000000000000000000000000000000000000000000000020c820c820c8",
  "nTx": 1,
  "previousblockhash": "000000001c5f252fb978f1c660f922739506de7b0f80ebdfefa1a836f415521d",
  "nextblockhash": "00000000cf82bf3a91a9f8a446c05ba9a2719a7b7e35236da093048e2fb02fa5",
  "strippedsize": 216,
  "size": 216,
  "weight": 864,
  "tx": [
    {
      "txid": "b9d59c4cc4f3bc2b69b0ce0c6734303fa1d7e669f92da6d8707bcab64855785d",
      "hash": "b9d59c4cc4f3bc2b69b0ce0c6734303fa1d7e669f92da6d8707bcab64855785d",
      "version": 1,
      "size": 135,
      "vsize": 135,
      "weight": 540,
      "locktime": 0,
      "vin": [
        {
          "coinbase": "04ffff001d02d805",
          "sequence": 4294967295
        }
      ],
      "vout": [
        {
          "value": 50.0,
          "n": 0,
          "scriptPubKey": {
            "asm": "049939f13ede9b68787d54aa9eedd23a24ef178677bf5f425c89eb06a76808e756a1270a761311ffdbdd1f3b192e354dc6eeac9241fbb215a30de7c5cf882a7270 OP_CHECKSIG",
            "desc": "pk(049939f13ede9b68787d54aa9eedd23a24ef178677bf5f425c89eb06a76808e756a1270a761311ffdbdd1f3b192e354dc6eeac9241fbb215a30de7c5cf882a7270)#3m9m852j",
            "hex": "41049939f13ede9b68787d54aa9eedd23a24ef178677bf5f425c89eb06a76808e756a1270a761311ffdbdd1f3b192e354dc6eeac9241fbb215a30de7c5cf882a7270ac",
            "type": "pubkey"
          }
        }
      ],
      "hex": "01000000010000000000000000000000000000000000000000000000000000000000000000ffffffff0804ffff001d02d805ffffffff0100f2052a010000004341049939f13ede9b68787d54aa9eedd23a24ef178677bf5f425c89eb06a76808e756a1270a761311ffdbdd1f3b192e354dc6eeac9241fbb215a30de7c5cf882a7270ac00000000"
    }
  ]
}