{
  "hash": "00000000a308ba489aaf461365217e4ad97a38292c469a97fa34a0fd6b34e6a8",
  "confirmations": 44232,
  "height": 8866,
  "version": 1,
  "versionHex": "00000001",
  "merkleroot": "3cc5215b21f53d6f058f35e2686411b4962810c35c0bc8491c06cddd32b741db",
  "time": 1238148817,
  "mediantime": 1238145047,
  "nonce": 1847479073,
  "bits": "1d00ffff",
  "difficulty": 1,
  "chainwork": "000000000000000000000000000000000000000000000000000022a322a322a3",
  "nTx": 1,
  "previousblockhash": "00000000b56a4f049ebbc4313090723ee73235accbb5dc53b72aa61a13b7b35d",
  "nextblockhash": "00000000dc67fdb071610640cabd4f460469fd0e1e96aaaf93852054a956445f",
  "strippedsize": 216,
  "size": 216,
  "weight": 864,
  "tx": [
    {
      "txid": "3cc5215b21f53d6f058f35e2686411b4962810c35c0bc8491c06cddd32b741db",
      "hash": "3cc5215b21f53d6f058f35e2686411b4962810c35c0bc8491c06cddd32b741db",
      "version": 1,
      "size": 135,
      "vsize": 135,
      "weight": 540,
      "locktime": 0,
      "vin": [
        {
          "coinbase": "04ffff001d02d903",
          "sequence": 4294967295
        }
      ],
      "vout": [
        {
          "value": 50.0,
          "n": 0,
          "scriptPubKey": {
            "asm": "04ab89eff88868501c78708ba3d2f46782082340f26d8da7ba36624a96872b130ddcde024df762e92109c841578325087550e1190e065fe39b15d0d40730a3c857 OP_CHECKSIG",
            "desc": "pk(04ab89eff88868501c78708ba3d2f46782082340f26d8da7ba36624a96872b130ddcde024df762e92109c841578325087550e1190e065fe39b15d0d40730a3c857)#cu7fg3f5",
            "hex": "4104ab89eff88868501c78708ba3d2f46782082340f26d8da7ba36624a96872b130ddcde024df762e92109c841578325087550e1190e065fe39b15d0d40730a3c857ac",
            "type": "pubkey"
          }
        }
      ],
      "hex": "01000000010000000000000000000000000000000000000000000000000000000000000000ffffffff0804ffff001d02d903ffffffff0100f2052a01000000434104ab89eff88868501c78708ba3d2f46782082340f26d8da7ba36624a96872b130ddcde024df762e92109c841578325087550e1190e065fe39b15d0d40730a3c857ac00000000"
    }
  ]
}