{
  "hash": "00000000b24a6699586b4a94b6edc300dd0d4ca6151372b06c3f7f492c86bd0d",
  "confirmations": 45148,
  "height": 7950,
  "version": 1,
  "versionHex": "00000001",
  "merkleroot": "4793967be4b58c3271c44455b4b2967ff2969056a7b22a5791b6b0fd6a21d8b3",
  "time": 1237427295,
  "mediantime": 1237423733,
  "nonce": 2130052654,
  "bits": "1d00ffff",
  "difficulty": 1,
  "chainwork": "00000000000000000000000000000000000000000000000000001f0f1f0f1f0f",
  "nTx": 1,
  "previousblockhash": "000000001d297c87d25446aec5c20098adf0d4c36fcb9ef0d0e81459defefcd5",
  "nextblockhash": "000000003359668e837c4554d41cca210eaf738de8eb77f6ec86807118f07d0c",
  "strippedsize": 216,
  "size": 216,
  "weight": 864,
  "tx": [
    {
      "txid": "4793967be4b58c3271c44455b4b2967ff2969056a7b22a5791b6b0fd6a21d8b3",
      "hash": "4793967be4b58c3271c44455b4b2967ff2969056a7b22a5791b6b0fd6a21d8b3",
      "version": 1,
      "size": 135,
      "vsize": 135,
      "weight": 540,
      "locktime": 0,
      "vin": [
        {
          "coinbase": "04ffff001d027708",
          "sequence": 4294967295
        }
      ],
      "vout": [
        {
          "value": 50.0,
          "n": 0,
          "scriptPubKey": {
            "asm": "040b9d91b6388de99de70990719ded95224a5c803a7125d75508acd46c20df8f3e44ca84e32665d39b189fde40c691155cdb0128dc48b874b7f9e932daf18eb7ca OP_CHECKSIG",
            "desc": "pk(040b9d91b6388de99de70990719ded95224a5c803a7125d75508acd46c20df8f3e44ca84e32665d39b189fde40c691155cdb0128dc48b874b7f9e932daf18eb7ca)#umdwujvd",
            "hex": "41040b9d91b6388de99de70990719ded95224a5c803a7125d75508acd46c20df8f3e44ca84e32665d39b189fde40c691155cdb0128dc48b874b7f9e932daf18eb7caac",
            "type": "pubkey"
          }
        }
      ],
      "hex": "01000000010000000000000000000000000000000000000000000000000000000000000000ffffffff0804ffff001d027708ffffffff0100f2052a010000004341040b9d91b6388de99de70990719ded95224a5c803a7125d75508acd46c20df8f3e44ca84e32665d39b189fde40c691155cdb0128dc48b874b7f9e932daf18eb7caac00000000"
    }
  ]
}