{
  "hash": "000000002d9dd660268a57b9415be9b27d1eefcff934c75a48c676222b00ca36",
  "confirmations": 51125,
  "height": 1973,
  "version": 1,
  "versionHex": "00000001",
  "merkleroot": "8e743bbbccc1a8fbfe97ed32532f588674964b91b13864ab02c0fc4f0799e967",
  "time": 1233025446,
  "mediantime": 1233022673,
  "nonce": 3049543424,
  "bits": "1d00ffff",
  "difficulty": 1,
  "chainwork": "000000000000000000000000000000000000000000000000000007b607b607b6",
  "nTx": 1,
  "previousblockhash": "0000000003c11ac3a009b94dccc057555966b994bd1de1f538758bf22b1a2713",
  "nextblockhash": "000000006e6bbd3f3224cf02ada810ab859bae70b7d25b164efaf2309cf39e53",
  "strippedsize": 216,
  "size": 216,
  "weight": 864,
  "tx": [
    {
      "txid": "8e743bbbccc1a8fbfe97ed32532f588674964b91b13864ab02c0fc4f0799e967",
      "hash": "8e743bbbccc1a8fbfe97ed32532f588674964b91b13864ab02c0fc4f0799e967",
      "version": 1,
      "size": 135,
      "vsize": 135,
      "weight": 540,
      "locktime": 0,
      "vin": [
        {
          "coinbase": "04ffff001d020201",
          "sequence": 4294967295
        }
      ],
      "vout": [
        {
          "value": 50.0,
          "n": 0,
          "scriptPubKey": {
            "asm": "0473da55be424c6d86992ea3bd1f311cd9907694866dc9cd09ddd68c0e75d30f8454f30fd5f05b643762881d87955fd8c0d109f2c75a22cef6ea3deb555d1c78f0 OP_CHECKSIG",
            "desc": "pk(0473da55be424c6d86992ea3bd1f311cd9907694866dc9cd09ddd68c0e75d30f8454f30fd5f05b643762881d87955fd8c0d109f2c75a22cef6ea3deb555d1c78f0)#sqgc9ytj",
            "hex": "410473da55be424c6d86992ea3bd1f311cd9907694866dc9cd09ddd68c0e75d30f8454f30fd5f05b643762881d87955fd8c0d109f2c75a22cef6ea3deb555d1c78f0ac",
            "type": "pubkey"
          }
        }
      ],
      "hex": "01000000010000000000000000000000000000000000000000000000000000000000000000ffffffff0804ffff001d020201ffffffff0100f2052a0100000043410473da55be424c6d86992ea3bd1f311cd9907694866dc9cd09ddd68c0e75d30f8454f30fd5f05b643762881d87955fd8c0d109f2c75a22cef6ea3deb555d1c78f0ac00000000"
    }
  ]
}