{
  "hash": "0000000099d34e8aa84e6b73f6ff4e3c8cd957e387ffa4e802df3572d1fc3912",
  "confirmations": 44025,
  "height": 9073,
  "version": 1,
  "versionHex": "00000001",
  "merkleroot": "9e1124898166f79df9a381048f23c0fd64d85ad7ea3d241364a2f6aeccec342e",
  "time": 1238313536,
  "mediantime": 1238309553,
  "nonce": 3914693162,
  "bits": "1d00ffff",
  "difficulty": 1,
  "chainwork": "0000000000000000000000000000000000000000000000000000237223722372",
  "nTx": 1,
  "previousblockhash": "00000000ddc9488a0cddebe9f7fb1ca741bfc4b7d3a7a5b7c00dd60c3b050ddd",
  "nextblockhash": "00000000667c4073f55cfff10a37cfeea4fa8fb1ead8ec573ddd5a140f3a4c94",
  "strippedsize": 216,
  "size": 216,
  "weight": 864,
  "tx": [
    {
      "txid": "9e1124898166f79df9a381048f23c0fd64d85ad7ea3d241364a2f6aeccec342e",
      "hash": "9e1124898166f79df9a381048f23c0fd64d85ad7ea3d241364a2f6aeccec342e",
      "version": 1,
      "size": 135,
      "vsize": 135,
      "weight": 540,
      "locktime": 0,
      "vin": [
        {
          "coinbase": "04ffff001d02ce07",
          "sequence": 4294967295
        }
      ],
      "vout": [
        {
          "value": 50.0,
          "n": 0,
          "scriptPubKey": {
            "asm": "047b9f835b4bf9df6ccfd790a558354f551309e7e473064e14dbde5ff8f5931e3ee4f4ed072475f92756a33bc2153773de1fa6ea363a804e5f7dcc4b02c2b9db68 OP_CHECKSIG",
            "desc": "pk(047b9f835b4bf9df6ccfd790a558354f551309e7e473064e14dbde5ff8f5931e3ee4f4ed072475f92756a33bc2153773de1fa6ea363a804e5f7dcc4b02c2b9db68)#0hqv62w5",
            "hex": "41047b9f835b4bf9df6ccfd790a558354f551309e7e473064e14dbde5ff8f5931e3ee4f4ed072475f92756a33bc2153773de1fa6ea363a804e5f7dcc4b02c2b9db68ac",
            "type": "pubkey"
          }
        }
      ],
      "hex": "01000000010000000000000000000000000000000000000000000000000000000000000000ffffffff0804ffff001d02ce07ffffffff0100f2052a010000004341047b9f835b4bf9df6ccfd790a558354f551309e7e473064e14dbde5ff8f5931e3ee4f4ed072475f92756a33bc2153773de1fa6ea363a804e5f7dcc4b02c2b9db68ac00000000"
    }
  ]
}