{
  "hash": "00000000c70a65dfe94927d26223f5bfe12b3ed5785d7a47e14a33ab318987c1",
  "confirmations": 45265,
  "height": 7833,
  "version": 1,
  "versionHex": "00000001",
  "merkleroot": "cda82b1be68f208f5295909e244bf723d7a52d3e2bd67916b84d64de460306f3",
  "time": 1237337842,
  "mediantime": 1237335756,
  "nonce": 1573286448,
  "bits": "1d00ffff",
  "difficulty": 1,
  "chainwork": "00000000000000000000000000000000000000000000000000001e9a1e9a1e9a",
  "nTx": 1,
  "previousblockhash": "00000000f90e41c414da67dc411da8f4c1352bc4dee14326fc53ed12fcba2a26",
  "nextblockhash": "000000008189e520a10e1d736866946b03ad58d2fc24f163c7bb068833ad268d",
  "strippedsize": 216,
  "size": 216,
  "weight": 864,
  "tx": [
    {
      "txid": "cda82b1be68f208f5295909e244bf723d7a52d3e2bd67916b84d64de460306f3",
      "hash": "cda82b1be68f208f5295909e244bf723d7a52d3e2bd67916b84d64de460306f3",
      "version": 1,
      "size": 135,
      "vsize": 135,
      "weight": 540,
      "locktime": 0,
      "vin": [
        {
          "coinbase": "04ffff001d026e06",
          "sequence": 4294967295
        }
      ],
      "vout": [
        {
          "value": 50.0,
          "n": 0,
          "scriptPubKey": {
            "asm": "0410903276ca950c27ececaab794ab03b9752b3f0fb4fc2927ee8ab9687daf1c888dc839b73e6356792e7ca5c9265b2add67a4fa24fdb360f95132fc981275ec61 OP_CHECKSIG",
            "desc": "pk(0410903276ca950c27ececaab794ab03b9752b3f0fb4fc2927ee8ab9687daf1c888dc839b73e6356792e7ca5c9265b2add67a4fa24fdb360f95132fc981275ec61)#lyn3gj96",
            "hex": "410410903276ca950c27ececaab794ab03b9752b3f0fb4fc2927ee8ab9687daf1c888dc839b73e6356792e7ca5c9265b2add67a4fa24fdb360f95132fc981275ec61ac",
            "type": "pubkey"
          }
        }
      ],
      "hex": "01000000010000000000000000000000000000000000000000000000000000000000000000ffffffff0804ffff001d026e06ffffffff0100f2052a0100000043410410903276ca950c27ececaab794ab03b9752b3f0fb4fc2927ee8ab9687daf1c888dc839b73e6356792e7ca5c9265b2add67a4fa24fdb360f95132fc981275ec61ac00000000"
    }
  ]
}