{
  "hash": "000000003b4f4c304e80a5fbdbaf200ae4a910bd5432aae07ea0cf45e03b76a3",
  "confirmations": 49967,
  "height": 3131,
  "version": 1,
  "versionHex": "00000001",
  "merkleroot": "31176f8d969e2f5f26882ff3eabeeed283f9b56b7b8b478e45d3414d766fe6a8",
  "time": 1233855810,
  "mediantime": 1233852048,
  "nonce": 2682711846,
  "bits": "1d00ffff",
  "difficulty": 1,
  "chainwork": "00000000000000000000000000000000000000000000000000000c3c0c3c0c3c",
  "nTx": 1,
  "previousblockhash": "00000000a8491571ffbbcf4dde1b50badf32c54ff5884d3dca4fca3fd9067a12",
  "nextblockhash": "00000000db88fbddddbdef6505773dda759254a24c0666f126c5c7c1afdc072e",
  "strippedsize": 216,
  "size": 216,
  "weight": 864,
  "tx": [
    {
      "txid": "31176f8d969e2f5f26882ff3eabeeed283f9b56b7b8b478e45d3414d766fe6a8",
      "hash": "31176f8d969e2f5f26882ff3eabeeed283f9b56b7b8b478e45d3414d766fe6a8",
      "version": 1,
      "size": 135,
      "vsize": 135,
      "weight": 540,
      "locktime": 0,
      "vin": [
        {
          "coinbase": "04ffff001d02b001",
          "sequence": 4294967295
        }
      ],
      "vout": [
        {
          "value": 50.0,
          "n": 0,
          "scriptPubKey": {
            "asm": "04b3f4d58ccacff7fa619ddcb06df3bab2ff87fe2ae02a10750492ba08c1af7b0af8b73b487a56c7543d54aad497299cddf41f4deff4cd865ec05be51a12668008 OP_CHECKSIG",
            "desc": "pk(04b3f4d58ccacff7fa619ddcb06df3bab2ff87fe2ae02a10750492ba08c1af7b0af8b73b487a56c7543d54aad497299cddf41f4deff4cd865ec05be51a12668008)#phr30g8q",
            "hex": "4104b3f4d58ccacff7fa619ddcb06df3bab2ff87fe2ae02a10750492ba08c1af7b0af8b73b487a56c7543d54aad497299cddf41f4deff4cd865ec05be51a12668008ac",
            "type": "pubkey"
          }
        }
      ],
      "hex": "01000000010000000000000000000000000000000000000000000000000000000000000000ffffffff0804ffff001d02b001ffffffff0100f2052a01000000434104b3f4d58ccacff7fa619ddcb06df3bab2ff87fe2ae02a10750492ba08c1af7b0af8b73b487a56c7543d54aad497299cddf41f4deff4cd865ec05be51a12668008ac00000000"
    }
  ]
}