{
  "hash": "00000000d188d05f2306af5933485804e8849e5d56d7818f769b7f028e938daf",
  "confirmations": 47260,
  "height": 5838,
  "version": 1,
  "versionHex": "00000001",
  "merkleroot": "9cdf8e7eef04d5f49768e98e821d2622de427428c91c6f220be35b6792975ae0",
  "time": 1235790996,
  "mediantime": 1235786223,
  "nonce": 1785633845,
  "bits": "1d00ffff",
  "difficulty": 1,
  "chainwork": "000000000000000000000000000000000000000000000000000016cf16cf16cf",
  "nTx": 1,
  "previousblockhash": "0000000068112a6124280d18d9dca70716b77186b8ad5f0f49b1191ad7af6566",
  "nextblockhash": "000000009219bca826bc9591dee62fa035752dadba2f17cfc6875588ca2d3fc8",
  "strippedsize": 216,
  "size": 216,
  "weight": 864,
  "tx": [
    {
      "txid": "9cdf8e7eef04d5f49768e98e821d2622de427428c91c6f220be35b6792975ae0",
      "hash": "9cdf8e7eef04d5f49768e98e821d2622de427428c91c6f220be35b6792975ae0",
      "version": 1,
      "size": 135,
      "vsize": 135,
      "weight": 540,
      "locktime": 0,
      "vin": [
        {
          "coinbase": "04ffff001d027a01",
          "sequence": 4294967295
        }
      ],
      "vout": [
        {
          "value": 50.0,
          "n": 0,
          "scriptPubKey": {
            "asm": "0423a89a7b7568607977f7ca2510ae8bc0b07dfd29a53f58c4a5c3213835ec7079af952e4c6401a6f5920446a142af691241a99553d5daa248dbf3c26e5b2142dd OP_CHECKSIG",
            "desc": "pk(0423a89a7b7568607977f7ca2510ae8bc0b07dfd29a53f58c4a5c3213835ec7079af952e4c6401a6f5920446a142af691241a99553d5daa248dbf3c26e5b2142dd)#62mmetlu",
            "hex": "410423a89a7b7568607977f7ca2510ae8bc0b07dfd29a53f58c4a5c3213835ec7079af952e4c6401a6f5920446a142af691241a99553d5daa248dbf3c26e5b2142ddac",
            "type": "pubkey"
          }
        }
      ],
      "hex": "01000000010000000000000000000000000000000000000000000000000000000000000000ffffffff0804ffff001d027a01ffffffff0100f2052a0100000043410423a89a7b7568607977f7ca2510ae8bc0b07dfd29a53f58c4a5c3213835ec7079af952e4c6401a6f5920446a142af691241a99553d5daa248dbf3c26e5b2142ddac00000000"
    }
  ]
}