{
  "hash": "000000008b1ffe418820785bc733082b62377cb97b2ee2282e4bcb6d70823738",
  "confirmations": 51489,
  "height": 1609,
  "version": 1,
  "versionHex": "00000001",
  "merkleroot": "0f02695a69d6bc79c8e894e89123e0c3848e9abdabd55718e3c2a9f3619bfc99",
  "time": 1232815318,
  "mediantime": 1232812933,
  "nonce": 3001052425,
  "bits": "1d00ffff",
  "difficulty": 1,
  "chainwork": "0000000000000000000000000000000000000000000000000000064a064a064a",
  "nTx": 1,
  "previousblockhash": "00000000745067eb1bc28aa5f31d157455e8eef074c8c998174bfcecaeb488f4",
  "nextblockhash": "00000000d97359bd7dd742427a81f88bd01a27ebe66c5e0ae010df031173ee7c",
  "strippedsize": 216,
  "size": 216,
  "weight": 864,
  "tx": [
    {
      "txid": "0f02695a69d6bc79c8e894e89123e0c3848e9abdabd55718e3c2a9f3619bfc99",
      "hash": "0f02695a69d6bc79c8e894e89123e0c3848e9abdabd55718e3c2a9f3619bfc99",
      "version": 1,
      "size": 135,
      "vsize": 135,
      "weight": 540,
      "locktime": 0,
      "vin": [
        {
          "coinbase": "04ffff001d023802",
          "sequence": 4294967295
        }
      ],
      "vout": [
        {
          "value": 50.0,
          "n": 0,
          "scriptPubKey": {
            "asm": "04dc71d0b0da51219b8383c63e8ce1a63acdbe392b4e13aa773a21b0e77e7d77ab8e89c2c736dc79defc3a0f962df4107766bfcce651ad84766ab357ca328dc1db OP_CHECKSIG",
            "desc": "pk(04dc71d0b0da51219b8383c63e8ce1a63acdbe392b4e13aa773a21b0e77e7d77ab8e89c2c736dc79defc3a0f962df4107766bfcce651ad84766ab357ca328dc1db)#gxhpgrjl",
            "hex": "4104dc71d0b0da51219b8383c63e8ce1a63acdbe392b4e13aa773a21b0e77e7d77ab8e89c2c736dc79defc3a0f962df4107766bfcce651ad84766ab357ca328dc1dbac",
            "type": "pubkey"
          }
        }
      ],
      "hex": "01000000010000000000000000000000000000000000000000000000000000000000000000ffffffff0804ffff001d023802ffffffff0100f2052a01000000434104dc71d0b0da51219b8383c63e8ce1a63acdbe392b4e13aa773a21b0e77e7d77ab8e89c2c736dc79defc3a0f962df4107766bfcce651ad84766ab357ca328dc1dbac00000000"
    }
  ]
}