{
  "hash": "00000000288877a515fa6e40b3f257a4821773d47f235ea6f5c2105140ace81d",
  "confirmations": 47671,
  "height": 5427,
  "version": 1,
  "versionHex": "00000001",
  "merkleroot": "98df594752aa7c87b5ccc59811f77d22c8093aaa7591fb504baca23b777fe342",
  "time": 1235462536,
  "mediantime": 1235457203,
  "nonce": 3041608981,
  "bits": "1d00ffff",
  "difficulty": 1,
  "chainwork": "0000000000000000000000000000000000000000000000000000153415341534",
  "nTx": 1,
  "previousblockhash": "0000000018d2323a1ecf127e68846085fb9036f85cbe9117ca4a69f1a9312490",
  "nextblockhash": "0000000088980c92d1f8edadc54cd34d7fb187e74a22a99b3c0f4fbb5bd84d7b",
  "strippedsize": 216,
  "size": 216,
  "weight": 864,
  "tx": [
    {
      "txid": "98df594752aa7c87b5ccc59811f77d22c8093aaa7591fb504baca23b777fe342",
      "hash": "98df594752aa7c87b5ccc59811f77d22c8093aaa7591fb504baca23b777fe342",
      "version": 1,
      "size": 135,
      "vsize": 135,
      "weight": 540,
      "locktime": 0,
      "vin": [
        {
          "coinbase": "04ffff001d021304",
          "sequence": 4294967295
        }
      ],
      "vout": [
        {
          "value": 50.0,
          "n": 0,
          "scriptPubKey": {
            "asm": "0419d76f318ad8fd0ac1bddb036f904a680d07bd410f440fbfc9dc5437a913f19aeda796dbddbe4f69bc0aefc92df24b176039de193d31f67d2ab496e4a208d022 OP_CHECKSIG",
            "desc": "pk(0419d76f318ad8fd0ac1bddb036f904a680d07bd410f440fbfc9dc5437a913f19aeda796dbddbe4f69bc0aefc92df24b176039de193d31f67d2ab496e4a208d022)#uzwdf585",
            "hex": "410419d76f318ad8fd0ac1bddb036f904a680d07bd410f440fbfc9dc5437a913f19aeda796dbddbe4f69bc0aefc92df24b176039de193d31f67d2ab496e4a208d022ac",
            "type": "pubkey"
          }
        }
      ],
      "hex": "01000000010000000000000000000000000000000000000000000000000000000000000000ffffffff0804ffff001d021304ffffffff0100f2052a0100000043410419d76f318ad8fd0ac1bddb036f904a680d07bd410f440fbfc9dc5437a913f19aeda796dbddbe4f69bc0aefc92df24b176039de193d31f67d2ab496e4a208d022ac00000000"
    }
  ]
}