{
  "hash": "000000001c5f252fb978f1c660f922739506de7b0f80ebdfefa1a836f415521d",
  "confirmations": 44708,
  "height": 8390,
  "version": 1,
  "versionHex": "00000001",
  "merkleroot": "194194fd155d6497133305f0a41cd5108667f58612e5f467098b9bbfc6e5de1a",
  "time": 1237795123,
  "mediantime": 1237790544,
  "nonce": 345957082,
  "bits": "1d00ffff",
  "difficulty": 1,
  "chainwork": "000000000000000000000000000000000000000000000000000020c720c720c7",
  "nTx": 1,
  "previousblockhash": "000000000b7fe20effc94e06db34159535d06e689b3c388642e5381579450388",
  "nextblockhash": "00000000d529624caf84f0b2d5fd4336fbde2aff55d1111716308af362bb38f3",
  "strippedsize": 215,
  "size": 215,
  "weight": 860,
  "tx": [
    {
      "txid": "194194fd155d6497133305f0a41cd5108667f58612e5f467098b9bbfc6e5de1a",
      "hash": "194194fd155d6497133305f0a41cd5108667f58612e5f467098b9bbfc6e5de1a",
      "version": 1,
      "size": 134,
      "vsize": 134,
      "weight": 536,
      "locktime": 0,
      "vin": [
        {
          "coinbase": "04ffff001d0112",
          "sequence": 4294967295
        }
      ],
      "vout": [
        {
          "value": 50.0,
          "n": 0,
          "scriptPubKey": {
            "asm": "0411f789096b2a075189402ad03bbca22e762d4a0da8f58b798be86e42c6799bb2d9019a068b1c6df9664caee45b3b8bb98f719bc9f6f9e31573b9981a4a72d257 OP_CHECKSIG",
            "desc": "pk(0411f789096b2a075189402ad03bbca22e762d4a0da8f58b798be86e42c6799bb2d9019a068b1c6df9664caee45b3b8bb98f719bc9f6f9e31573b9981a4a72d257)#yyyzp26x",
            "hex": "410411f789096b2a075189402ad03bbca22e762d4a0da8f58b798be86e42c6799bb2d9019a068b1c6df9664caee45b3b8bb98f719bc9f6f9e31573b9981a4a72d257ac",
            "type": "pubkey"
          }
        }
      ],
      "hex": "01000000010000000000000000000000000000000000000000000000000000000000000000ffffffff0704ffff001d0112ffffffff0100f2052a0100000043410411f789096b2a075189402ad03bbca22e762d4a0da8f58b798be86e42c6799bb2d9019a068b1c6df9664caee45b3b8bb98f719bc9f6f9e31573b9981a4a72d257ac00000000"
    }
  ]
}