{
  "hash": "000000008f6234fcdefbce28a3b12e5083df353fbdce4bf479ba7e6ba0d1bdee",
  "confirmations": 52212,
  "height": 886,
  "version": 1,
  "versionHex": "00000001",
  "merkleroot": "f478a9e1098e8d048be6b859472121d7e3c0d0ba59a7ff584b185c3dcc8fecf4",
  "time": 1232262719,
  "mediantime": 1232259101,
  "nonce": 2498425344,
  "bits": "1d00ffff",
  "difficulty": 1,
  "chainwork": "0000000000000000000000000000000000000000000000000000037703770377",
  "nTx": 1,
  "previousblockhash": "00000000fa7bd3c9977df6a024fcf8df0367f5c953e1bc63b5d34d6db9e2f874",
  "nextblockhash": "0000000038e0e9e7b9f3b26d59d0ceafd1240c931c2d810c464ea15fbfb150e4",
  "strippedsize": 216,
  "size": 216,
  "weight": 864,
  "tx": [
    {
      "txid": "f478a9e1098e8d048be6b859472121d7e3c0d0ba59a7ff584b185c3dcc8fecf4",
      "hash": "f478a9e1098e8d048be6b859472121d7e3c0d0ba59a7ff584b185c3dcc8fecf4",
      "version": 1,
      "size": 135,
      "vsize": 135,
      "weight": 540,
      "locktime": 0,
      "vin": [
        {
          "coinbase": "04ffff001d025d03",
          "sequence": 4294967295
        }
      ],
      "vout": [
        {
          "value": 50.0,
          "n": 0,
          "scriptPubKey": {
            "asm": "041afde1d4b8f798bb6bf05ebd127420c58060daf441416371d15ad837d1538e5c982d6ecb05385a630d077ac74f88f72a4ee50bd75b04489b602b491a645220b2 OP_CHECKSIG",
            "desc": "pk(041afde1d4b8f798bb6bf05ebd127420c58060daf441416371d15ad837d1538e5c982d6ecb05385a630d077ac74f88f72a4ee50bd75b04489b602b491a645220b2)#5lk8vm4x",
            "hex": "41041afde1d4b8f798bb6bf05ebd127420c58060daf441416371d15ad837d1538e5c982d6ecb05385a630d077ac74f88f72a4ee50bd75b04489b602b491a645220b2ac",
            "type": "pubkey"
          }
        }
      ],
      "hex": "01000000010000000000000000000000000000000000000000000000000000000000000000ffffffff0804ffff001d025d03ffffffff0100f2052a010000004341041afde1d4b8f798bb6bf05ebd127420c58060daf441416371d15ad837d1538e5c982d6ecb05385a630d077ac74f88f72a4ee50bd75b04489b602b491a645220b2ac00000000"
    }
  ]
}