{
  "hash": "00000000d375bf381d4d70787980e2aa27d5f4406d8513fd375ed44bc3b8bdf8",
  "confirmations": 51774,
  "height": 1324,
  "version": 1,
  "versionHex": "00000001",
  "merkleroot": "936a0d0b02b1427cc211faa8e9eac0f58aeee6f94be988173b38ed17f275c36a",
  "time": 1232617333,
  "mediantime": 1232611761,
  "nonce": 1719109641,
  "bits": "1d00ffff",
  "difficulty": 1,
  "chainwork": "0000000000000000000000000000000000000000000000000000052d052d052d",
  "nTx": 1,
  "previousblockhash": "0000000008f5640471fee335827294f32670941bf9b183f722f433a3eae4557e",
  "nextblockhash": "00000000886950f32f0be2c9d48f0c05b5ead3662b360b6c3d5a254e3ce7c81f",
  "strippedsize": 216,
  "size": 216,
  "weight": 864,
  "tx": [
    {
      "txid": "936a0d0b02b1427cc211faa8e9eac0f58aeee6f94be988173b38ed17f275c36a",
      "hash": "936a0d0b02b1427cc211faa8e9eac0f58aeee6f94be988173b38ed17f275c36a",
      "version": 1,
      "size": 135,
      "vsize": 135,
      "weight": 540,
      "locktime": 0,
      "vin": [
        {
          "coinbase": "04ffff001d029c00",
          "sequence": 4294967295
        }
      ],
      "vout": [
        {
          "value": 50.0,
          "n": 0,
          "scriptPubKey": {
            "asm": "0470e0b6923e5c1279a255da74ebd0c6d8e6afe4bb31d04f561246e879e48559ebb4cd655253caf5ff7f2aa609a410e2b787584f043a92d54aa302156b16583b99 OP_CHECKSIG",
            "desc": "pk(0470e0b6923e5c1279a255da74ebd0c6d8e6afe4bb31d04f561246e879e48559ebb4cd655253caf5ff7f2aa609a410e2b787584f043a92d54aa302156b16583b99)#756z0u4a",
            "hex": "410470e0b6923e5c1279a255da74ebd0c6d8e6afe4bb31d04f561246e879e48559ebb4cd655253caf5ff7f2aa609a410e2b787584f043a92d54aa302156b16583b99ac",
            "type": "pubkey"
          }
        }
      ],
      "hex": "01000000010000000000000000000000000000000000000000000000000000000000000000ffffffff0804ffff001d029c00ffffffff0100f2052a0100000043410470e0b6923e5c1279a255da74ebd0c6d8e6afe4bb31d04f561246e879e48559ebb4cd655253caf5ff7f2aa609a410e2b787584f043a92d54aa302156b16583b99ac00000000"
    }
  ]
}