{
  "hash": "00000000b2329dd5992114e0cd7d04386c9d0cf332f4032f4380fae24b609e44",
  "confirmations": 45543,
  "height": 7555,
  "version": 1,
  "versionHex": "00000001",
  "merkleroot": "9b0573c5774e5a08e0f07b1a2f7ec0aab92e16d70e42001caa9f7395be370fd6",
  "time": 1237141192,
  "mediantime": 1237136575,
  "nonce": 2029899055,
  "bits": "1d00ffff",
  "difficulty": 1,
  "chainwork": "00000000000000000000000000000000000000000000000000001d841d841d84",
  "nTx": 1,
  "previousblockhash": "00000000b1bf24392cb8320600e7bf0e95b0b8510b87cf82ec6d187d11b3a718",
  "nextblockhash": "000000005e527a6166853b1c058aee21adbd82e652b2bb2017f344ef9db37b54",
  "strippedsize": 216,
  "size": 216,
  "weight": 864,
  "tx": [
    {
      "txid": "9b0573c5774e5a08e0f07b1a2f7ec0aab92e16d70e42001caa9f7395be370fd6",
      "hash": "9b0573c5774e5a08e0f07b1a2f7ec0aab92e16d70e42001caa9f7395be370fd6",
      "version": 1,
      "size": 135,
      "vsize": 135,
      "weight": 540,
      "locktime": 0,
      "vin": [
        {
          "coinbase": "04ffff001d02fe01",
          "sequence": 4294967295
        }
      ],
      "vout": [
        {
          "value": 50.0,
          "n": 0,
          "scriptPubKey": {
            "asm": "040da2c7e8b8f6ed97c4dffbcf95eee16f958b8a10881ffbca2ca0017849a93381c1c02ff0788e871d48cd3348bfb6e1e59a102c03c834784df8a88a35a1e70312 OP_CHECKSIG",
            "desc": "pk(040da2c7e8b8f6ed97c4dffbcf95eee16f958b8a10881ffbca2ca0017849a93381c1c02ff0788e871d48cd3348bfb6e1e59a102c03c834784df8a88a35a1e70312)#yr68wgrk",
            "hex": "41040da2c7e8b8f6ed97c4dffbcf95eee16f958b8a10881ffbca2ca0017849a93381c1c02ff0788e871d48cd3348bfb6e1e59a102c03c834784df8a88a35a1e70312ac",
            "type": "pubkey"
          }
        }
      ],
      "hex": "01000000010000000000000000000000000000000000000000000000000000000000000000ffffffff0804ffff001d02fe01ffffffff0100f2052a010000004341040da2c7e8b8f6ed97c4dffbcf95eee16f958b8a10881ffbca2ca0017849a93381c1c02ff0788e871d48cd3348bfb6e1e59a102c03c834784df8a88a35a1e70312ac00000000"
    }
  ]
}