{
  "hash": "000000008dd41ffb464614945fd529665f8581179d84383bd121024988cce9d8",
  "confirmations": 46662,
  "height": 6436,
  "version": 1,
  "versionHex": "00000001",
  "merkleroot": "264b351d44dc19f47d55c1b262dccdb233d4586d748eb77b3cf29c8d880ee7c1",
  "time": 1236283097,
  "mediantime": 1236279164,
  "nonce": 31569231,
  "bits": "1d00ffff",
  "difficulty": 1,
  "chainwork": "0000000000000000000000000000000000000000000000000000192519251925",
  "nTx": 1,
  "previousblockhash": "00000000b438134d05768a01a2e9edcdfa53fd92f1ee3eaf5d9cb2e63cc14cb6",
  "nextblockhash": "000000006d47f373c1e896a8d9b77469245ab532ce356b2e89133de7d9347a03",
  "strippedsize": 215,
  "size": 215,
  "weight": 860,
  "tx": [
    {
      "txid": "264b351d44dc19f47d55c1b262dccdb233d4586d748eb77b3cf29c8d880ee7c1",
      "hash": "264b351d44dc19f47d55c1b262dccdb233d4586d748eb77b3cf29c8d880ee7c1",
      "version": 1,
      "size": 134,
      "vsize": 134,
      "weight": 536,
      "locktime": 0,
      "vin": [
        {
          "coinbase": "04ffff001d0127",
          "sequence": 4294967295
        }
      ],
      "vout": [
        {
          "value": 50.0,
          "n": 0,
          "scriptPubKey": {
            "asm": "042c354eb36bb290875cb8d13817f940dda4d8a4f9795cc5052994985fb127170adf292448ee1185b5f106c85fd0bbcf0bfc5e461685e890d1020b4a487ae24386 OP_CHECKSIG",
            "desc": "pk(042c354eb36bb290875cb8d13817f940dda4d8a4f9795cc5052994985fb127170adf292448ee1185b5f106c85fd0bbcf0bfc5e461685e890d1020b4a487ae24386)#mycux8q7",
            "hex": "41042c354eb36bb290875cb8d13817f940dda4d8a4f9795cc5052994985fb127170adf292448ee1185b5f106c85fd0bbcf0bfc5e461685e890d1020b4a487ae24386ac",
            "type": "pubkey"
          }
        }
      ],
      "hex": "01000000010000000000000000000000000000000000000000000000000000000000000000ffffffff0704ffff001d0127ffffffff0100f2052a010000004341042c354eb36bb290875cb8d13817f940dda4d8a4f9795cc5052994985fb127170adf292448ee1185b5f106c85fd0bbcf0bfc5e461685e890d1020b4a487ae24386ac00000000"
    }
  ]
}