{
  "hash": "00000000f8088f96410b15a88fd8535249006ceb2a6172774f249486e71a7c42",
  "confirmations": 50484,
  "height": 2614,
  "version": 1,
  "versionHex": "00000001",
  "merkleroot": "447330c770bd94f8e29be9af204e8cacbd93ce12f1150af2c04843ea842db21d",
  "time": 1233503197,
  "mediantime": 1233500653,
  "nonce": 129164407,
  "bits": "1d00ffff",
  "difficulty": 1,
  "chainwork": "00000000000000000000000000000000000000000000000000000a370a370a37",
  "nTx": 1,
  "previousblockhash": "00000000a208d65554dfe46ef515582b8fbc3adbc1be1c27da59c5060f9bcb91",
  "nextblockhash": "000000001ca4cc980de6cabd3540ab29efaa5484599aebee965a940e7a173700",
  "strippedsize": 215,
  "size": 215,
  "weight": 860,
  "tx": [
    {
      "txid": "447330c770bd94f8e29be9af204e8cacbd93ce12f1150af2c04843ea842db21d",
      "hash": "447330c770bd94f8e29be9af204e8cacbd93ce12f1150af2c04843ea842db21d",
      "version": 1,
      "size": 134,
      "vsize": 134,
      "weight": 536,
      "locktime": 0,
      "vin": [
        {
          "coinbase": "04ffff001d010f",
          "sequence": 4294967295
        }
      ],
      "vout": [
        {
          "value": 50.0,
          "n": 0,
          "scriptPubKey": {
            "asm": "04d104d65ffbae5d32e2e2d31540c7b25496e312c70c4e7218be345b6d776edac1b7d8af3afa7f5ca72c8b5471a28bf94e4e1b1a83e27b95868537b80fb84f5448 OP_CHECKSIG",
            "desc": "pk(04d104d65ffbae5d32e2e2d31540c7b25496e312c70c4e7218be345b6d776edac1b7d8af3afa7f5ca72c8b5471a28bf94e4e1b1a83e27b95868537b80fb84f5448)#j4mc3sg7",
            "hex": "4104d104d65ffbae5d32e2e2d31540c7b25496e312c70c4e7218be345b6d776edac1b7d8af3afa7f5ca72c8b5471a28bf94e4e1b1a83e27b95868537b80fb84f5448ac",
            "type": "pubkey"
          }
        }
      ],
      "hex": "01000000010000000000000000000000000000000000000000000000000000000000000000ffffffff0704ffff001d010fffffffff0100f2052a01000000434104d104d65ffbae5d32e2e2d31540c7b25496e312c70c4e7218be345b6d776edac1b7d8af3afa7f5ca72c8b5471a28bf94e4e1b1a83e27b95868537b80fb84f5448ac00000000"
    }
  ]
}