{
  "hash": "00000000823171d43b172810bd2ad643dd093f229251e2e64fe6c477ff556340",
  "confirmations": 48005,
  "height": 5093,
  "version": 1,
  "versionHex": "00000001",
  "merkleroot": "269cb03a8e2f3ae2c4ed15fd0a95ce2f93ba617f45f4b2a6f4a1233cdd3f2723",
  "time": 1235210704,
  "mediantime": 1235207976,
  "nonce": 2722211888,
  "bits": "1d00ffff",
  "difficulty": 1,
  "chainwork": "000000000000000000000000000000000000000000000000000013e613e613e6",
  "nTx": 1,
  "previousblockhash": "000000001d13d4bf1518d2afdc48decee30efe8a476ac5ae76c7b597ddef95d7",
  "nextblockhash": "000000000b907129f8d5d8619f38d09318549494964ffc1f1a687340dbbbf866",
  "strippedsize": 216,
  "size": 216,
  "weight": 864,
  "tx": [
    {
      "txid": "269cb03a8e2f3ae2c4ed15fd0a95ce2f93ba617f45f4b2a6f4a1233cdd3f2723",
      "hash": "269cb03a8e2f3ae2c4ed15fd0a95ce2f93ba617f45f4b2a6f4a1233cdd3f2723",
      "version": 1,
      "size": 135,
      "vsize": 135,
      "weight": 540,
      "locktime": 0,
      "vin": [
        {
          "coinbase": "04ffff001d02df08",
          "sequence": 4294967295
        }
      ],
      "vout": [
        {
          "value": 50.0,
          "n": 0,
          "scriptPubKey": {
            "asm": "04148ebd57d2db1485104de6a9085b62eb88910111455e9db4ead52d583e07d1b6c10800052149e9aabdaf96b74f222b8c6bf7e3158d84b7ca1b60fb0ed677fd15 OP_CHECKSIG",
            "desc": "pk(04148ebd57d2db1485104de6a9085b62eb88910111455e9db4ead52d583e07d1b6c10800052149e9aabdaf96b74f222b8c6bf7e3158d84b7ca1b60fb0ed677fd15)#ws6jgjuv",
            "hex": "4104148ebd57d2db1485104de6a9085b62eb88910111455e9db4ead52d583e07d1b6c10800052149e9aabdaf96b74f222b8c6bf7e3158d84b7ca1b60fb0ed677fd15ac",
            "type": "pubkey"
          }
        }
      ],
      "hex": "01000000010000000000000000000000000000000000000000000000000000000000000000ffffffff0804ffff001d02df08ffffffff0100f2052a01000000434104148ebd57d2db1485104de6a9085b62eb88910111455e9db4ead52d583e07d1b6c10800052149e9aabdaf96b74f222b8c6bf7e3158d84b7ca1b60fb0ed677fd15ac00000000"
    }
  ]
}