{
  "hash": "00000000acba2569ca2b05b382b3dd2c0245f632742eb2cde3f626c175f43787",
  "confirmations": 45576,
  "height": 7522,
  "version": 1,
  "versionHex": "00000001",
  "merkleroot": "0e56c063485d95ded0afcd7e50593d0452287ec6a70f95afca6fc00f3a48aa17",
  "time": 1237113739,
  "mediantime": 1237109192,
  "nonce": 2967340341,
  "bits": "1d00ffff",
  "difficulty": 1,
  "chainwork": "00000000000000000000000000000000000000000000000000001d631d631d63",
  "nTx": 1,
  "previousblockhash": "00000000d58c922af6935587b7b1aa4f1cc21c315c98f613fb7856ce4daa4ed7",
  "nextblockhash": "000000009b1e720db75188c7817356f9f1c0752b30f654d480fa4a6a8c3e7ecb",
  "strippedsize": 216,
  "size": 216,
  "weight": 864,
  "tx": [
    {
      "txid": "0e56c063485d95ded0afcd7e50593d0452287ec6a70f95afca6fc00f3a48aa17",
      "hash": "0e56c063485d95ded0afcd7e50593d0452287ec6a70f95afca6fc00f3a48aa17",
      "version": 1,
      "size": 135,
      "vsize": 135,
      "weight": 540,
      "locktime": 0,
      "vin": [
        {
          "coinbase": "04ffff001d024e01",
          "sequence": 4294967295
        }
      ],
      "vout": [
        {
          "value": 50.0,
          "n": 0,
          "scriptPubKey": {
            "asm": "04ba633e1297f25ca5d59bfdf7e1d6e28047b9d12b538661eac9c1f32165fe1ce563bfc85f193ce31a7a307035c2f275322ca01b88668350a2929054424d5c4254 OP_CHECKSIG",
            "desc": "pk(04ba633e1297f25ca5d59bfdf7e1d6e28047b9d12b538661eac9c1f32165fe1ce563bfc85f193ce31a7a307035c2f275322ca01b88668350a2929054424d5c4254)#ler85qks",
            "hex": "4104ba633e1297f25ca5d59bfdf7e1d6e28047b9d12b538661eac9c1f32165fe1ce563bfc85f193ce31a7a307035c2f275322ca01b88668350a2929054424d5c4254ac",
            "type": "pubkey"
          }
        }
      ],
      "hex": "01000000010000000000000000000000000000000000000000000000000000000000000000ffffffff0804ffff001d024e01ffffffff0100f2052a01000000434104ba633e1297f25ca5d59bfdf7e1d6e28047b9d12b538661eac9c1f32165fe1ce563bfc85f193ce31a7a307035c2f275322ca01b88668350a2929054424d5c4254ac00000000"
    }
  ]
}