{
  "hash": "000000000e262c2960b79e930fbf40dc1ab67fa5c74becf72251ecefd07e54ef",
  "confirmations": 51660,
  "height": 1438,
  "version": 1,
  "versionHex": "00000001",
  "merkleroot": "e7193b3a8b65154737e84266d848b07af3841d485b56d29acf07c8a48c10e001",
  "time": 1232741593,
  "mediantime": 1232739170,
  "nonce": 297394471,
  "bits": "1d00ffff",
  "difficulty": 1,
  "chainwork": "0000000000000000000000000000000000000000000000000000059f059f059f",
  "nTx": 1,
  "previousblockhash": "000000008f346cd97b39692b44d0cfc824c4f19454bbde5f26f5d03434751fbc",
  "nextblockhash": "00000000a37055f99a4c0ba0c418a30d4d27c2c97ecb78211e01f66d34701f59",
  "strippedsize": 215,
  "size": 215,
  "weight": 860,
  "tx": [
    {
      "txid": "e7193b3a8b65154737e84266d848b07af3841d485b56d29acf07c8a48c10e001",
      "hash": "e7193b3a8b65154737e84266d848b07af3841d485b56d29acf07c8a48c10e001",
      "version": 1,
      "size": 134,
      "vsize": 134,
      "weight": 536,
      "locktime": 0,
      "vin": [
        {
          "coinbase": "04ffff001d017c",
          "sequence": 4294967295
        }
      ],
      "vout": [
        {
          "value": 50.0,
          "n": 0,
          "scriptPubKey": {
            "asm": "049a333af0b5984e0fa23563eccfcd18a64e06ceca5e4f9744205a1a34ae73956f663f4f3e09bd2865e929c34a0a8907c9c736aadc3b6e4788b85e72675bb7d713 OP_CHECKSIG",
            "desc": "pk(049a333af0b5984e0fa23563eccfcd18a64e06ceca5e4f9744205a1a34ae73956f663f4f3e09bd2865e929c34a0a8907c9c736aadc3b6e4788b85e72675bb7d713)#fttjnk0g",
            "hex": "41049a333af0b5984e0fa23563eccfcd18a64e06ceca5e4f9744205a1a34ae73956f663f4f3e09bd2865e929c34a0a8907c9c736aadc3b6e4788b85e72675bb7d713ac",
            "type": "pubkey"
          }
        }
      ],
      "hex": "01000000010000000000000000000000000000000000000000000000000000000000000000ffffffff0704ffff001d017cffffffff0100f2052a010000004341049a333af0b5984e0fa23563eccfcd18a64e06ceca5e4f9744205a1a34ae73956f663f4f3e09bd2865e929c34a0a8907c9c736aadc3b6e4788b85e72675bb7d713ac00000000"
    }
  ]
}