{
  "hash": "000000004ca4d556f7eb04a41e7896988f6da9ffa7f680e9cc5e998ea3ee9507",
  "confirmations": 46982,
  "height": 6116,
  "version": 1,
  "versionHex": "00000001",
  "merkleroot": "625512141b138b1374b4ce60025e25021f0f124cf42268475cf88fab7a15c6ba",
  "time": 1236022379,
  "mediantime": 1236017832,
  "nonce": 237080081,
  "bits": "1d00ffff",
  "difficulty": 1,
  "chainwork": "000000000000000000000000000000000000000000000000000017e517e517e5",
  "nTx": 1,
  "previousblockhash": "00000000e40fa013d2e89b45429011303ad6c3f85e44a6e3ddee314c78b00474",
  "nextblockhash": "000000004748a0c2d940ac930fd767ec9da39d6369014345b1c73e7621945a1f",
  "strippedsize": 216,
  "size": 216,
  "weight": 864,
  "tx": [
    {
      "txid": "625512141b138b1374b4ce60025e25021f0f124cf42268475cf88fab7a15c6ba",
      "hash": "625512141b138b1374b4ce60025e25021f0f124cf42268475cf88fab7a15c6ba",
      "version": 1,
      "size": 135,
      "vsize": 135,
      "weight": 540,
      "locktime": 0,
      "vin": [
        {
          "coinbase": "04ffff001d02a909",
          "sequence": 4294967295
        }
      ],
      "vout": [
        {
          "value": 50.0,
          "n": 0,
          "scriptPubKey": {
            "asm": "04c56c7bab18e837e41d13817c45168482bdc4a917b345f566442599568f608cc297485b36d93aaa343a00a61bdc2eb7a0b1a1ca428894c273f142e36fd3c2ae79 OP_CHECKSIG",
            "desc": "pk(04c56c7bab18e837e41d13817c45168482bdc4a917b345f566442599568f608cc297485b36d93aaa343a00a61bdc2eb7a0b1a1ca428894c273f142e36fd3c2ae79)#h2jrnzkg",
            "hex": "4104c56c7bab18e837e41d13817c45168482bdc4a917b345f566442599568f608cc297485b36d93aaa343a00a61bdc2eb7a0b1a1ca428894c273f142e36fd3c2ae79ac",
            "type": "pubkey"
          }
        }
      ],
      "hex": "01000000010000000000000000000000000000000000000000000000000000000000000000ffffffff0804ffff001d02a909ffffffff0100f2052a01000000434104c56c7bab18e837e41d13817c45168482bdc4a917b345f566442599568f608cc297485b36d93aaa343a00a61bdc2eb7a0b1a1ca428894c273f142e36fd3c2ae79ac00000000"
    }
  ]
}