{
  "hash": "000000001122ea7605edc62081cefc267a41e3fe3fd7b86874b3ee6217de23fb",
  "confirmations": 52001,
  "height": 339,
  "version": 1,
  "versionHex": "00000001",
  "merkleroot": "256e2b962c907444107d36c26f03ea2d47a265bcd3a20d9bde43203ef3ce1649",
  "time": 1231857859,
  "mediantime": 1231855781,
  "nonce": 420027958,
  "bits": "1d00ffff",
  "difficulty": 1,
  "chainwork": "0000000000000000000000000000000000000000000000000000015401540154",
  "nTx": 1,
  "previousblockhash": "0000000004b7c0bdbf2d818f3e4d441d8db5fd2e8168d0150edda83dc59b7da6",
  "nextblockhash": "000000005ddf5639bd049b9579d2ff5d1060ed1020a72f927db9c18b106e81b4",
  "strippedsize": 216,
  "size": 216,
  "weight": 864,
  "tx": [
    {
      "txid": "256e2b962c907444107d36c26f03ea2d47a265bcd3a20d9bde43203ef3ce1649",
      "hash": "256e2b962c907444107d36c26f03ea2d47a265bcd3a20d9bde43203ef3ce1649",
      "version": 1,
      "size": 135,
      "vsize": 135,
      "weight": 540,
      "locktime": 0,
      "vin": [
        {
          "coinbase": "04ffff001d024c01",
          "sequence": 4294967295
        }
      ],
      "vout": [
        {
          "value": 50.0,
          "n": 0,
          "scriptPubKey": {
            "asm": "04376c35f734e19012091d32c5949b28b186e0e1c14bedf7e995a6fda0b2d0dfd35008c629ce1341fd56aae27e71097b8ad74e761edcfb4d4b8abdd80e29e9bfb1 OP_CHECKSIG",
            "desc": "pk(04376c35f734e19012091d32c5949b28b186e0e1c14bedf7e995a6fda0b2d0dfd35008c629ce1341fd56aae27e71097b8ad74e761edcfb4d4b8abdd80e29e9bfb1)#37lgnjq5",
            "hex": "4104376c35f734e19012091d32c5949b28b186e0e1c14bedf7e995a6fda0b2d0dfd35008c629ce1341fd56aae27e71097b8ad74e761edcfb4d4b8abdd80e29e9bfb1ac",
            "type": "pubkey"
          }
        }
      ],
      "hex": "01000000010000000000000000000000000000000000000000000000000000000000000000ffffffff0804ffff001d024c01ffffffff0100f2052a01000000434104376c35f734e19012091d32c5949b28b186e0e1c14bedf7e995a6fda0b2d0dfd35008c629ce1341fd56aae27e71097b8ad74e761edcfb4d4b8abdd80e29e9bfb1ac00000000"
    }
  ]
}