{
  "hash": "00000000e0821e4e55733e8a43e69c335f76b551c7486428d04d91252d1c9559",
  "confirmations": 43611,
  "height": 9487,
  "version": 1,
  "versionHex": "00000001",
  "merkleroot": "3e722d7cd8d90714ab16adcb31be88a64ba545ca6ef0a8ecf5fe5d01b131ef33",
  "time": 1238623539,
  "mediantime": 1238616469,
  "nonce": 49572198,
  "bits": "1d00ffff",
  "difficulty": 1,
  "chainwork": "0000000000000000000000000000000000000000000000000000251025102510",
  "nTx": 1,
  "previousblockhash": "000000009fb7cad2f4a67dbf5e9aa10b6d1752491b1ef54211425e49492031c9",
  "nextblockhash": "0000000066d47a2200b064306425fc3e79eefeff62f7a2753355520e46b939db",
  "strippedsize": 216,
  "size": 216,
  "weight": 864,
  "tx": [
    {
      "txid": "3e722d7cd8d90714ab16adcb31be88a64ba545ca6ef0a8ecf5fe5d01b131ef33",
      "hash": "3e722d7cd8d90714ab16adcb31be88a64ba545ca6ef0a8ecf5fe5d01b131ef33",
      "version": 1,
      "size": 135,
      "vsize": 135,
      "weight": 540,
      "locktime": 0,
      "vin": [
        {
          "coinbase": "04ffff001d02fb06",
          "sequence": 4294967295
        }
      ],
      "vout": [
        {
          "value": 50.0,
          "n": 0,
          "scriptPubKey": {
            "asm": "04ac10294f8453789423c070bd7de1a8a497895a9fec9c03821f309f0a08017efc40d87bdfd6fe68be5d6f644cd2589d59b0b53d649995043041c1b77b813469a4 OP_CHECKSIG",
            "desc": "pk(04ac10294f8453789423c070bd7de1a8a497895a9fec9c03821f309f0a08017efc40d87bdfd6fe68be5d6f644cd2589d59b0b53d649995043041c1b77b813469a4)#ljp94d6e",
            "hex": "4104ac10294f8453789423c070bd7de1a8a497895a9fec9c03821f309f0a08017efc40d87bdfd6fe68be5d6f644cd2589d59b0b53d649995043041c1b77b813469a4ac",
            "type": "pubkey"
          }
        }
      ],
      "hex": "01000000010000000000000000000000000000000000000000000000000000000000000000ffffffff0804ffff001d02fb06ffffffff0100f2052a01000000434104ac10294f8453789423c070bd7de1a8a497895a9fec9c03821f309f0a08017efc40d87bdfd6fe68be5d6f644cd2589d59b0b53d649995043041c1b77b813469a4ac00000000"
    }
  ]
}