{
  "hash": "000000009c927b3df26058a468ed1bdb924af1beeb6c5b673889b6d7ab816088",
  "confirmations": 47557,
  "height": 5541,
  "version": 1,
  "versionHex": "00000001",
  "merkleroot": "dcd8c69107f87e3b0b0bc85cdb0c31ad28d7cd2e3d8d4f5f4d642d276a8f1db0",
  "time": 1235554673,
  "mediantime": 1235549517,
  "nonce": 590835764,
  "bits": "1d00ffff",
  "difficulty": 1,
  "chainwork": "000000000000000000000000000000000000000000000000000015a615a615a6",
  "nTx": 1,
  "previousblockhash": "000000003762accfac345c2d5a99bd95010015eeab1376dafd5910bd9fe0bde3",
  "nextblockhash": "00000000d9081d63277c46d063f6bb871bb5af31110646cd302aefcd20a2d760",
  "strippedsize": 216,
  "size": 216,
  "weight": 864,
  "tx": [
    {
      "txid": "dcd8c69107f87e3b0b0bc85cdb0c31ad28d7cd2e3d8d4f5f4d642d276a8f1db0",
      "hash": "dcd8c69107f87e3b0b0bc85cdb0c31ad28d7cd2e3d8d4f5f4d642d276a8f1db0",
      "version": 1,
      "size": 135,
      "vsize": 135,
      "weight": 540,
      "locktime": 0,
      "vin": [
        {
          "coinbase": "04ffff001d026a06",
          "sequence": 4294967295
        }
      ],
      "vout": [
        {
          "value": 50.0,
          "n": 0,
          "scriptPubKey": {
            "asm": "04c32fec1bb0e1bc2ae3ab3cc170612d723a1411c9136618d3631f8221c0e9320f85920f4bad8855e21528430f5b925e7c5c92cbd588c35d79d4b6e0e16117c838 OP_CHECKSIG",
            "desc": "pk(04c32fec1bb0e1bc2ae3ab3cc170612d723a1411c9136618d3631f8221c0e9320f85920f4bad8855e21528430f5b925e7c5c92cbd588c35d79d4b6e0e16117c838)#pmxexmqh",
            "hex": "4104c32fec1bb0e1bc2ae3ab3cc170612d723a1411c9136618d3631f8221c0e9320f85920f4bad8855e21528430f5b925e7c5c92cbd588c35d79d4b6e0e16117c838ac",
            "type": "pubkey"
          }
        }
      ],
      "hex": "01000000010000000000000000000000000000000000000000000000000000000000000000ffffffff0804ffff001d026a06ffffffff0100f2052a01000000434104c32fec1bb0e1bc2ae3ab3cc170612d723a1411c9136618d3631f8221c0e9320f85920f4bad8855e21528430f5b925e7c5c92cbd588c35d79d4b6e0e16117c838ac00000000"
    }
  ]
}