{
  "hash": "00000000574f231f5c40a77f80dbc456a6a367d70cacc6c87b66a7a17f969584",
  "confirmations": 44547,
  "height": 8551,
  "version": 1,
  "versionHex": "00000001",
  "merkleroot": "0c9002c977b6e96a1de205f0a88f8496d47edc8cac28ad042b45912f56e2ef38",
  "time": 1237913235,
  "mediantime": 1237909207,
  "nonce": 986329606,
  "bits": "1d00ffff",
  "difficulty": 1,
  "chainwork": "0000000000000000000000000000000000000000000000000000216821682168",
  "nTx": 1,
  "previousblockhash": "00000000d1987901437fa51afb63827b9cfa621d5ff57abe736750ea74556af0",
  "nextblockhash": "00000000017ac7b9647460e000c899a195fa583f9d31d60aed27277103021f60",
  "strippedsize": 216,
  "size": 216,
  "weight": 864,
  "tx": [
    {
      "txid": "0c9002c977b6e96a1de205f0a88f8496d47edc8cac28ad042b45912f56e2ef38",
      "hash": "0c9002c977b6e96a1de205f0a88f8496d47edc8cac28ad042b45912f56e2ef38",
      "version": 1,
      "size": 135,
      "vsize": 135,
      "weight": 540,
      "locktime": 0,
      "vin": [
        {
          "coinbase": "04ffff001d02cb08",
          "sequence": 4294967295
        }
      ],
      "vout": [
        {
          "value": 50.0,
          "n": 0,
          "scriptPubKey": {
            "asm": "04b63c9d4f7bcc77f7827dda895489604aa36e9a9c155fd69e19e115ebdf2c062ce8d517603c95d998288eb5b1623a4dbe97b53ef9ce9b4274913412e16fe5e247 OP_CHECKSIG",
            "desc": "pk(04b63c9d4f7bcc77f7827dda895489604aa36e9a9c155fd69e19e115ebdf2c062ce8d517603c95d998288eb5b1623a4dbe97b53ef9ce9b4274913412e16fe5e247)#amgw7r9e",
            "hex": "4104b63c9d4f7bcc77f7827dda895489604aa36e9a9c155fd69e19e115ebdf2c062ce8d517603c95d998288eb5b1623a4dbe97b53ef9ce9b4274913412e16fe5e247ac",
            "type": "pubkey"
          }
        }
      ],
      "hex": "01000000010000000000000000000000000000000000000000000000000000000000000000ffffffff0804ffff001d02cb08ffffffff0100f2052a01000000434104b63c9d4f7bcc77f7827dda895489604aa36e9a9c155fd69e19e115ebdf2c062ce8d517603c95d998288eb5b1623a4dbe97b53ef9ce9b4274913412e16fe5e247ac00000000"
    }
  ]
}