{
  "hash": "00000000c0577d1bd0329e645f7f6f79d224bb3e6af8cd480c1210010ce08680",
  "confirmations": 51217,
  "height": 1881,
  "version": 1,
  "versionHex": "00000001",
  "merkleroot": "35f71b84c5dd1b52baba02062a981973929de53f60da739b335098f521a3fdd4",
  "time": 1232936052,
  "mediantime": 1232933626,
  "nonce": 1667863574,
  "bits": "1d00ffff",
  "difficulty": 1,
  "chainwork": "0000000000000000000000000000000000000000000000000000075a075a075a",
  "nTx": 1,
  "previousblockhash": "00000000ef5126d211c6e240795c88d9475c2b0b5d5e75bb0feae6cf59775f08",
  "nextblockhash": "000000002457c6c89c31b8cdbdcccf4ba884dbe7d7fce2a6ccd2ee7e75c122f6",
  "strippedsize": 216,
  "size": 216,
  "weight": 864,
  "tx": [
    {
      "txid": "35f71b84c5dd1b52baba02062a981973929de53f60da739b335098f521a3fdd4",
      "hash": "35f71b84c5dd1b52baba02062a981973929de53f60da739b335098f521a3fdd4",
      "version": 1,
      "size": 135,
      "vsize": 135,
      "weight": 540,
      "locktime": 0,
      "vin": [
        {
          "coinbase": "04ffff001d020c05",
          "sequence": 4294967295
        }
      ],
      "vout": [
        {
          "value": 50.0,
          "n": 0,
          "scriptPubKey": {
            "asm": "049ad154ce1d3e9c457f722fde47b2d4e91fc4bfdb5b91cd01b91abc8add81c08909e85f291299c0fae2291f9be84c833ccea985a72ef424110022ba81eee3b6c2 OP_CHECKSIG",
            "desc": "pk(049ad154ce1d3e9c457f722fde47b2d4e91fc4bfdb5b91cd01b91abc8add81c08909e85f291299c0fae2291f9be84c833ccea985a72ef424110022ba81eee3b6c2)#rsqnryff",
            "hex": "41049ad154ce1d3e9c457f722fde47b2d4e91fc4bfdb5b91cd01b91abc8add81c08909e85f291299c0fae2291f9be84c833ccea985a72ef424110022ba81eee3b6c2ac",
            "type": "pubkey"
          }
        }
      ],
      "hex": "01000000010000000000000000000000000000000000000000000000000000000000000000ffffffff0804ffff001d020c05ffffffff0100f2052a010000004341049ad154ce1d3e9c457f722fde47b2d4e91fc4bfdb5b91cd01b91abc8add81c08909e85f291299c0fae2291f9be84c833ccea985a72ef424110022ba81eee3b6c2ac00000000"
    }
  ]
}