{
  "hash": "00000000260d5e479301d6f898e16ff58cf2e94da0ceb2f0c039eed791170d44",
  "confirmations": 43464,
  "height": 9634,
  "version": 1,
  "versionHex": "00000001",
  "merkleroot": "9c87e8cbe0f83aa5fee4b257467dac854f64e73ddf9e3402beca32450a96f8c8",
  "time": 1238727931,
  "mediantime": 1238723820,
  "nonce": 337580333,
  "bits": "1d00ffff",
  "difficulty": 1,
  "chainwork": "000000000000000000000000000000000000000000000000000025a325a325a3",
  "nTx": 1,
  "previousblockhash": "000000002a50b1ae5b32b06970f7a7a082c05328dac9969ccb55f7a05e5f25a0",
  "nextblockhash": "00000000a0fac1ecca01d1eb33ce4981634ee2de5b6ebd944988a5010b147359",
  "strippedsize": 216,
  "size": 216,
  "weight": 864,
  "tx": [
    {
      "txid": "9c87e8cbe0f83aa5fee4b257467dac854f64e73ddf9e3402beca32450a96f8c8",
      "hash": "9c87e8cbe0f83aa5fee4b257467dac854f64e73ddf9e3402beca32450a96f8c8",
      "version": 1,
      "size": 135,
      "vsize": 135,
      "weight": 540,
      "locktime": 0,
      "vin": [
        {
          "coinbase": "04ffff001d028b07",
          "sequence": 4294967295
        }
      ],
      "vout": [
        {
          "value": 50.0,
          "n": 0,
          "scriptPubKey": {
            "asm": "04841e038de0c0054cd3a2a1d52e1049127d92beecbccfb242a0f8c5ccbe9355ece0e2d242e4892c4f7b432dbc01d56381252bbbc4f65e77663a0a892cdeee2156 OP_CHECKSIG",
            "desc": "pk(04841e038de0c0054cd3a2a1d52e1049127d92beecbccfb242a0f8c5ccbe9355ece0e2d242e4892c4f7b432dbc01d56381252bbbc4f65e77663a0a892cdeee2156)#x777eg8w",
            "hex": "4104841e038de0c0054cd3a2a1d52e1049127d92beecbccfb242a0f8c5ccbe9355ece0e2d242e4892c4f7b432dbc01d56381252bbbc4f65e77663a0a892cdeee2156ac",
            "type": "pubkey"
          }
        }
      ],
      "hex": "01000000010000000000000000000000000000000000000000000000000000000000000000ffffffff0804ffff001d028b07ffffffff0100f2052a01000000434104841e038de0c0054cd3a2a1d52e1049127d92beecbccfb242a0f8c5ccbe9355ece0e2d242e4892c4f7b432dbc01d56381252bbbc4f65e77663a0a892cdeee2156ac00000000"
    }
  ]
}