{
  "hash": "00000000e6b85123ef8a72c3001c72a9b003d858acca502f66c0fee3e3f4cccd",
  "confirmations": 47647,
  "height": 5451,
  "version": 1,
  "versionHex": "00000001",
  "merkleroot": "1e533429250048aeaef42a794107793bdd4ea169cadfcc9484f30fa4afee0bf9",
  "time": 1235484796,
  "mediantime": 1235479615,
  "nonce": 3231820595,
  "bits": "1d00ffff",
  "difficulty": 1,
  "chainwork": "0000000000000000000000000000000000000000000000000000154c154c154c",
  "nTx": 1,
  "previousblockhash": "00000000ef6abf5bb17bcf59365ef8b783e18fc7dd5bcb44340b2e710125d9c3",
  "nextblockhash": "000000009c8ecb0f1e1cadf36f26d60d2d5399cd5cba41146e0b5cd2a5ab9730",
  "strippedsize": 216,
  "size": 216,
  "weight": 864,
  "tx": [
    {
      "txid": "1e533429250048aeaef42a794107793bdd4ea169cadfcc9484f30fa4afee0bf9",
      "hash": "1e533429250048aeaef42a794107793bdd4ea169cadfcc9484f30fa4afee0bf9",
      "version": 1,
      "size": 135,
      "vsize": 135,
      "weight": 540,
      "locktime": 0,
      "vin": [
        {
          "coinbase": "04ffff001d02c204",
          "sequence": 4294967295
        }
      ],
      "vout": [
        {
          "value": 50.0,
          "n": 0,
          "scriptPubKey": {
            "asm": "04589f2d2ebc28d32a691c87c73be8501b436db210539a35788419b4a400647741d505aa6499130875f373cec11a40b769cd2eb39258909b8767aa9ce3933e2651 OP_CHECKSIG",
            "desc": "pk(04589f2d2ebc28d32a691c87c73be8501b436db210539a35788419b4a400647741d505aa6499130875f373cec11a40b769cd2eb39258909b8767aa9ce3933e2651)#5nj3kt09",
            "hex": "4104589f2d2ebc28d32a691c87c73be8501b436db210539a35788419b4a400647741d505aa6499130875f373cec11a40b769cd2eb39258909b8767aa9ce3933e2651ac",
            "type": "pubkey"
          }
        }
      ],
      "hex": "01000000010000000000000000000000000000000000000000000000000000000000000000ffffffff0804ffff001d02c204ffffffff0100f2052a01000000434104589f2d2ebc28d32a691c87c73be8501b436db210539a35788419b4a400647741d505aa6499130875f373cec11a40b769cd2eb39258909b8767aa9ce3933e2651ac00000000"
    }
  ]
}