{
  "hash": "00000000dc67fdb071610640cabd4f460469fd0e1e96aaaf93852054a956445f",
  "confirmations": 44231,
  "height": 8867,
  "version": 1,
  "versionHex": "00000001",
  "merkleroot": "9a52d6f55f552a2b5fb6190f6b0664210d20444cb7c02f8980fd55315b623d96",
  "time": 1238149298,
  "mediantime": 1238146060,
  "nonce": 136123276,
  "bits": "1d00ffff",
  "difficulty": 1,
  "chainwork": "000000000000000000000000000000000000000000000000000022a422a422a4",
  "nTx": 1,
  "previousblockhash": "00000000a308ba489aaf461365217e4ad97a38292c469a97fa34a0fd6b34e6a8",
  "nextblockhash": "0000000087f73823e9bc784daabf71bef5487a847cdcbdfabced04e24b2567ee",
  "strippedsize": 216,
  "size": 216,
  "weight": 864,
  "tx": [
    {
      "txid": "9a52d6f55f552a2b5fb6190f6b0664210d20444cb7c02f8980fd55315b623d96",
      "hash": "9a52d6f55f552a2b5fb6190f6b0664210d20444cb7c02f8980fd55315b623d96",
      "version": 1,
      "size": 135,
      "vsize": 135,
      "weight": 540,
      "locktime": 0,
      "vin": [
        {
          "coinbase": "04ffff001d02a804",
          "sequence": 4294967295
        }
      ],
      "vout": [
        {
          "value": 50.0,
          "n": 0,
          "scriptPubKey": {
            "asm": "043e0978ba0f6bb1547996aed1898d71ce09d22da74d2b36bd35430190d2fa1445676ba683a67996ed70f007df0cc60d5dfc4b5f14b17beccfdc4bbeaf24aa4b06 OP_CHECKSIG",
            "desc": "pk(043e0978ba0f6bb1547996aed1898d71ce09d22da74d2b36bd35430190d2fa1445676ba683a67996ed70f007df0cc60d5dfc4b5f14b17beccfdc4bbeaf24aa4b06)#yl558gk7",
            "hex": "41043e0978ba0f6bb1547996aed1898d71ce09d22da74d2b36bd35430190d2fa1445676ba683a67996ed70f007df0cc60d5dfc4b5f14b17beccfdc4bbeaf24aa4b06ac",
            "type": "pubkey"
          }
        }
      ],
      "hex": "01000000010000000000000000000000000000000000000000000000000000000000000000ffffffff0804ffff001d02a804ffffffff0100f2052a010000004341043e0978ba0f6bb1547996aed1898d71ce09d22da74d2b36bd35430190d2fa1445676ba683a67996ed70f007df0cc60d5dfc4b5f14b17beccfdc4bbeaf24aa4b06ac00000000"
    }
  ]
}