{
  "hash": "00000000dc9e979cbe08b1ab64eac7bbb51dd3201b68870c55ba13fefb2976cb",
  "confirmations": 51178,
  "height": 1920,
  "version": 1,
  "versionHex": "00000001",
  "merkleroot": "211b5483830685986cbcd2ff737cf884ea2811de65b4b0e3919d6401ee016867",
  "time": 1232979519,
  "mediantime": 1232951326,
  "nonce": 839413032,
  "bits": "1d00ffff",
  "difficulty": 1,
  "chainwork": "0000000000000000000000000000000000000000000000000000078107810781",
  "nTx": 1,
  "previousblockhash": "000000006c8b639825ca01a71f9c92834ba460a0e8cd9cc0d04dfd100607908a",
  "nextblockhash": "00000000e99dc5bc27514e37daf534abcd3ce26fd1e32e2c45e834c214f4c7ae",
  "strippedsize": 215,
  "size": 215,
  "weight": 860,
  "tx": [
    {
      "txid": "211b5483830685986cbcd2ff737cf884ea2811de65b4b0e3919d6401ee016867",
      "hash": "211b5483830685986cbcd2ff737cf884ea2811de65b4b0e3919d6401ee016867",
      "version": 1,
      "size": 134,
      "vsize": 134,
      "weight": 536,
      "locktime": 0,
      "vin": [
        {
          "coinbase": "04ffff001d0104",
          "sequence": 4294967295
        }
      ],
      "vout": [
        {
          "value": 50.0,
          "n": 0,
          "scriptPubKey": {
            "asm": "04e1729c098d8be688dd654467aa65a6f774bc5435846943323c745589c106b5d65413b6557c34ab4c28ea7d7a3db8337b125b9c25d867f049c75cb5f86b722245 OP_CHECKSIG",
            "desc": "pk(04e1729c098d8be688dd654467aa65a6f774bc5435846943323c745589c106b5d65413b6557c34ab4c28ea7d7a3db8337b125b9c25d867f049c75cb5f86b722245)#9pndn42w",
            "hex": "4104e1729c098d8be688dd654467aa65a6f774bc5435846943323c745589c106b5d65413b6557c34ab4c28ea7d7a3db8337b125b9c25d867f049c75cb5f86b722245ac",
            "type": "pubkey"
          }
        }
      ],
      "hex": "01000000010000000000000000000000000000000000000000000000000000000000000000ffffffff0704ffff001d0104ffffffff0100f2052a01000000434104e1729c098d8be688dd654467aa65a6f774bc5435846943323c745589c106b5d65413b6557c34ab4c28ea7d7a3db8337b125b9c25d867f049c75cb5f86b722245ac00000000"
    }
  ]
}