{
  "hash": "000000001432802571b294a8de2af8f53e36c5ded250bee8b4ef5caa126fca96",
  "confirmations": 48210,
  "height": 4888,
  "version": 1,
  "versionHex": "00000001",
  "merkleroot": "6a2a16f515c1fa26bcf13b1e037e2ee48986275da0d130aef2acedf9194576b5",
  "time": 1235062536,
  "mediantime": 1235060251,
  "nonce": 90914919,
  "bits": "1d00ffff",
  "difficulty": 1,
  "chainwork": "0000000000000000000000000000000000000000000000000000131913191319",
  "nTx": 1,
  "previousblockhash": "000000004862371d9012f1038abf89e04c4c431177b91f1397042e0bdb652ca0",
  "nextblockhash": "000000003945dbebda4b0440b7f7d867fb576d6dbcd3cb6f90f140e0669316ff",
  "strippedsize": 216,
  "size": 216,
  "weight": 864,
  "tx": [
    {
      "txid": "6a2a16f515c1fa26bcf13b1e037e2ee48986275da0d130aef2acedf9194576b5",
      "hash": "6a2a16f515c1fa26bcf13b1e037e2ee48986275da0d130aef2acedf9194576b5",
      "version": 1,
      "size": 135,
      "vsize": 135,
      "weight": 540,
      "locktime": 0,
      "vin": [
        {
          "coinbase": "04ffff001d02d604",
          "sequence": 4294967295
        }
      ],
      "vout": [
        {
          "value": 50.0,
          "n": 0,
          "scriptPubKey": {
            "asm": "04b2fa6f9a01524fa05fbd7de7d33f25c828df5b724dc97b72504cf19b000e7342ff3ae72178cf55dc8456207621f19b383e497f41595cc0826d1d3f79aa15646b OP_CHECKSIG",
            "desc": "pk(04b2fa6f9a01524fa05fbd7de7d33f25c828df5b724dc97b72504cf19b000e7342ff3ae72178cf55dc8456207621f19b383e497f41595cc0826d1d3f79aa15646b)#5wuhk36w",
            "hex": "4104b2fa6f9a01524fa05fbd7de7d33f25c828df5b724dc97b72504cf19b000e7342ff3ae72178cf55dc8456207621f19b383e497f41595cc0826d1d3f79aa15646bac",
            "type": "pubkey"
          }
        }
      ],
      "hex": "01000000010000000000000000000000000000000000000000000000000000000000000000ffffffff0804ffff001d02d604ffffffff0100f2052a01000000434104b2fa6f9a01524fa05fbd7de7d33f25c828df5b724dc97b72504cf19b000e7342ff3ae72178cf55dc8456207621f19b383e497f41595cc0826d1d3f79aa15646bac00000000"
    }
  ]
}