{
  "hash": "000000002689f3021912d78bc8d5b046d2828a75dc695905b8743222b9907a8d",
  "confirmations": 52453,
  "height": 645,
  "version": 1,
  "versionHex": "00000001",
  "merkleroot": "a3544056c39be22b84099b599788fd8132300999a2783c80af472075c234f912",
  "time": 1232065648,
  "mediantime": 1232063044,
  "nonce": 1762607152,
  "bits": "1d00ffff",
  "difficulty": 1,
  "chainwork": "0000000000000000000000000000000000000000000000000000028602860286",
  "nTx": 1,
  "previousblockhash": "00000000b98fcbc3ffa5735bca2dddb8ae01b75c01a1f055ba48b515eebef020",
  "nextblockhash": "00000000417404b256f7fb76d9b6ec6a8077536369d120ac8ad1aa246b6e9da1",
  "strippedsize": 216,
  "size": 216,
  "weight": 864,
  "tx": [
    {
      "txid": "a3544056c39be22b84099b599788fd8132300999a2783c80af472075c234f912",
      "hash": "a3544056c39be22b84099b599788fd8132300999a2783c80af472075c234f912",
      "version": 1,
      "size": 135,
      "vsize": 135,
      "weight": 540,
      "locktime": 0,
      "vin": [
        {
          "coinbase": "04ffff001d025207",
          "sequence": 4294967295
        }
      ],
      "vout": [
        {
          "value": 50.0,
          "n": 0,
          "scriptPubKey": {
            "asm": "049bf73c652d7b2fb7eb50218fa7d8e354159d4f9dd795456b284b7e64547f033c67b73044a45f3ea61203bdd7c186634d5d7d336f0e88bfe8fa2b78cef1505b03 OP_CHECKSIG",
            "desc": "pk(049bf73c652d7b2fb7eb50218fa7d8e354159d4f9dd795456b284b7e64547f033c67b73044a45f3ea61203bdd7c186634d5d7d336f0e88bfe8fa2b78cef1505b03)#zllp4u94",
            "hex": "41049bf73c652d7b2fb7eb50218fa7d8e354159d4f9dd795456b284b7e64547f033c67b73044a45f3ea61203bdd7c186634d5d7d336f0e88bfe8fa2b78cef1505b03ac",
            "type": "pubkey"
          }
        }
      ],
      "hex": "01000000010000000000000000000000000000000000000000000000000000000000000000ffffffff0804ffff001d025207ffffffff0100f2052a010000004341049bf73c652d7b2fb7eb50218fa7d8e354159d4f9dd795456b284b7e64547f033c67b73044a45f3ea61203bdd7c186634d5d7d336f0e88bfe8fa2b78cef1505b03ac00000000"
    }
  ]
}