{
  "hash": "00000000adee4235d3c2f7fe216299ef298c2802f1ea4505fb2138ff6991b2b8",
  "confirmations": 44067,
  "height": 9031,
  "version": 1,
  "versionHex": "00000001",
  "merkleroot": "05c615041ad74012d6d58f48fbce5fcca163877a4d0bbd5989327202898ef039",
  "time": 1238274964,
  "mediantime": 1238271603,
  "nonce": 1926952448,
  "bits": "1d00ffff",
  "difficulty": 1,
  "chainwork": "0000000000000000000000000000000000000000000000000000234823482348",
  "nTx": 1,
  "previousblockhash": "00000000d1c827fe034369dbbed5d835f5aad611cc802ba8862f3f1ade3860e8",
  "nextblockhash": "00000000f56c97f182190c37dda62092b99f2539fd70d7f71cd1206003a82975",
  "strippedsize": 216,
  "size": 216,
  "weight": 864,
  "tx": [
    {
      "txid": "05c615041ad74012d6d58f48fbce5fcca163877a4d0bbd5989327202898ef039",
      "hash": "05c615041ad74012d6d58f48fbce5fcca163877a4d0bbd5989327202898ef039",
      "version": 1,
      "size": 135,
      "vsize": 135,
      "weight": 540,
      "locktime": 0,
      "vin": [
        {
          "coinbase": "04ffff001d02e806",
          "sequence": 4294967295
        }
      ],
      "vout": [
        {
          "value": 50.0,
          "n": 0,
          "scriptPubKey": {
            "asm": "04bc9ff93ce6b58df4b0d39f0437587f9444b75cbe462baafdc23e4d81001934b9a0f136e43c4d4d6dd47ffc7869872073f073dfa253cdc62108dc281776fac184 OP_CHECKSIG",
            "desc": "pk(04bc9ff93ce6b58df4b0d39f0437587f9444b75cbe462baafdc23e4d81001934b9a0f136e43c4d4d6dd47ffc7869872073f073dfa253cdc62108dc281776fac184)#qztguyjv",
            "hex": "4104bc9ff93ce6b58df4b0d39f0437587f9444b75cbe462baafdc23e4d81001934b9a0f136e43c4d4d6dd47ffc7869872073f073dfa253cdc62108dc281776fac184ac",
            "type": "pubkey"
          }
        }
      ],
      "hex": "01000000010000000000000000000000000000000000000000000000000000000000000000ffffffff0804ffff001d02e806ffffffff0100f2052a01000000434104bc9ff93ce6b58df4b0d39f0437587f9444b75cbe462baafdc23e4d81001934b9a0f136e43c4d4d6dd47ffc7869872073f073dfa253cdc62108dc281776fac184ac00000000"
    }
  ]
}