{
  "hash": "00000000e15bee1a653b171741fdd792b4936a22990c7a08764349f06239001e",
  "confirmations": 52186,
  "height": 477,
  "version": 1,
  "versionHex": "00000001",
  "merkleroot": "0b545ad147e3d518c538d20d4c1ef574fee3706c0ed52575c43f03c6f20d511a",
  "time": 1231953157,
  "mediantime": 1231950232,
  "nonce": 1087688990,
  "bits": "1d00ffff",
  "difficulty": 1,
  "chainwork": "000000000000000000000000000000000000000000000000000001de01de01de",
  "nTx": 1,
  "previousblockhash": "000000008d3b06397627839cb42386e01e1e097432a9c5393170c4b6ce909372",
  "nextblockhash": "00000000a1f0deedb6706ae3d238df794df735aa9c7adef928a67cfb84869b71",
  "strippedsize": 216,
  "size": 216,
  "weight": 864,
  "tx": [
    {
      "txid": "0b545ad147e3d518c538d20d4c1ef574fee3706c0ed52575c43f03c6f20d511a",
      "hash": "0b545ad147e3d518c538d20d4c1ef574fee3706c0ed52575c43f03c6f20d511a",
      "version": 1,
      "size": 135,
      "vsize": 135,
      "weight": 540,
      "locktime": 0,
      "vin": [
        {
          "coinbase": "04ffff001d021204",
          "sequence": 4294967295
        }
      ],
      "vout": [
        {
          "value": 50.0,
          "n": 0,
          "scriptPubKey": {
            "asm": "0421aa901e193b12c576e94cbdbaf0a62f49c6fc005cd190e89e7681aaca39e8e9134df0975239485c3dbeb619f8639848ab77af4aa11ea251a64a0aea29c7075e OP_CHECKSIG",
            "desc": "pk(0421aa901e193b12c576e94cbdbaf0a62f49c6fc005cd190e89e7681aaca39e8e9134df0975239485c3dbeb619f8639848ab77af4aa11ea251a64a0aea29c7075e)#00cq3jtd",
            "hex": "410421aa901e193b12c576e94cbdbaf0a62f49c6fc005cd190e89e7681aaca39e8e9134df0975239485c3dbeb619f8639848ab77af4aa11ea251a64a0aea29c7075eac",
            "type": "pubkey"
          }
        }
      ],
      "hex": "01000000010000000000000000000000000000000000000000000000000000000000000000ffffffff0804ffff001d021204ffffffff0100f2052a0100000043410421aa901e193b12c576e94cbdbaf0a62f49c6fc005cd190e89e7681aaca39e8e9134df0975239485c3dbeb619f8639848ab77af4aa11ea251a64a0aea29c7075eac00000000"
    }
  ]
}