{
  "hash": "0000000040e547b48aed97cf8be2b4a72242cefea51d9211c37e434b9893024d",
  "confirmations": 45908,
  "height": 7190,
  "version": 1,
  "versionHex": "00000001",
  "merkleroot": "b8af7b447df48f96f318df77a151163f9cbd6a807412d48162e65827af01f6d5",
  "time": 1236863469,
  "mediantime": 1236859508,
  "nonce": 1890120712,
  "bits": "1d00ffff",
  "difficulty": 1,
  "chainwork": "00000000000000000000000000000000000000000000000000001c171c171c17",
  "nTx": 1,
  "previousblockhash": "00000000803a23e4a80f66522b43b0da5de9cc3e0505b3467c6a2541a689fc81",
  "nextblockhash": "00000000a8982ea2e2c918ee717ef4cf772c0b4ea6a2b758a0241c5f01347c9f",
  "strippedsize": 216,
  "size": 216,
  "weight": 864,
  "tx": [
    {
      "txid": "b8af7b447df48f96f318df77a151163f9cbd6a807412d48162e65827af01f6d5",
      "hash": "b8af7b447df48f96f318df77a151163f9cbd6a807412d48162e65827af01f6d5",
      "version": 1,
      "size": 135,
      "vsize": 135,
      "weight": 540,
      "locktime": 0,
      "vin": [
        {
          "coinbase": "04ffff001d027d05",
          "sequence": 4294967295
        }
      ],
      "vout": [
        {
          "value": 50.0,
          "n": 0,
          "scriptPubKey": {
            "asm": "04887918e8fd336fd7d6678f3b47aa7903185ab55569664461cd482fccc5f34feb1557fd8fa928d11519111d3d2f5f4210f2028eb5a4594d45ddb95d2f8c4ba079 OP_CHECKSIG",
            "desc": "pk(04887918e8fd336fd7d6678f3b47aa7903185ab55569664461cd482fccc5f34feb1557fd8fa928d11519111d3d2f5f4210f2028eb5a4594d45ddb95d2f8c4ba079)#sdku6tnq",
            "hex": "4104887918e8fd336fd7d6678f3b47aa7903185ab55569664461cd482fccc5f34feb1557fd8fa928d11519111d3d2f5f4210f2028eb5a4594d45ddb95d2f8c4ba079ac",
            "type": "pubkey"
          }
        }
      ],
      "hex": "01000000010000000000000000000000000000000000000000000000000000000000000000ffffffff0804ffff001d027d05ffffffff0100f2052a01000000434104887918e8fd336fd7d6678f3b47aa7903185ab55569664461cd482fccc5f34feb1557fd8fa928d11519111d3d2f5f4210f2028eb5a4594d45ddb95d2f8c4ba079ac00000000"
    }
  ]
}