{
  "hash": "0000000028f638c47a647b68e38f032e938be80db119954cd5e11a5713e29499",
  "confirmations": 47710,
  "height": 5388,
  "version": 1,
  "versionHex": "00000001",
  "merkleroot": "6180f128589591c4d7dab31ef724189d73db016f2a36e551472d114e87816c87",
  "time": 1235430749,
  "mediantime": 1235425768,
  "nonce": 2144172293,
  "bits": "1d00ffff",
  "difficulty": 1,
  "chainwork": "0000000000000000000000000000000000000000000000000000150d150d150d",
  "nTx": 1,
  "previousblockhash": "00000000d1eae9b740ac989190b3f0a311cd1f18a47054ed811ddeba0f91f385",
  "nextblockhash": "0000000034f1e6ab1f1b6552354fe4484b7e1a01bfe6227dc24170ae0a3071f7",
  "strippedsize": 216,
  "size": 216,
  "weight": 864,
  "tx": [
    {
      "txid": "6180f128589591c4d7dab31ef724189d73db016f2a36e551472d114e87816c87",
      "hash": "6180f128589591c4d7dab31ef724189d73db016f2a36e551472d114e87816c87",
      "version": 1,
      "size": 135,
      "vsize": 135,
      "weight": 540,
      "locktime": 0,
      "vin": [
        {
          "coinbase": "04ffff001d027103",
          "sequence": 4294967295
        }
      ],
      "vout": [
        {
          "value": 50.0,
          "n": 0,
          "scriptPubKey": {
            "asm": "04e93e725ea00b7cdd8ca95b5dec2501ca06b197638572d0eee614cf98ac7818256bed0629380519f90c76a46c7ae5b051c6ab145b9e63c164fb7cfae4a96906f1 OP_CHECKSIG",
            "desc": "pk(04e93e725ea00b7cdd8ca95b5dec2501ca06b197638572d0eee614cf98ac7818256bed0629380519f90c76a46c7ae5b051c6ab145b9e63c164fb7cfae4a96906f1)#qau6f3an",
            "hex": "4104e93e725ea00b7cdd8ca95b5dec2501ca06b197638572d0eee614cf98ac7818256bed0629380519f90c76a46c7ae5b051c6ab145b9e63c164fb7cfae4a96906f1ac",
            "type": "pubkey"
          }
        }
      ],
      "hex": "01000000010000000000000000000000000000000000000000000000000000000000000000ffffffff0804ffff001d027103ffffffff0100f2052a01000000434104e93e725ea00b7cdd8ca95b5dec2501ca06b197638572d0eee614cf98ac7818256bed0629380519f90c76a46c7ae5b051c6ab145b9e63c164fb7cfae4a96906f1ac00000000"
    }
  ]
}