{
  "hash": "000000007d0986a5542d6b72357388a08ca641c8ab0ae6293279627cf5b5de8b",
  "confirmations": 46184,
  "height": 6914,
  "version": 1,
  "versionHex": "00000001",
  "merkleroot": "9d077df4b46d4c28e4f6c79f7c13309cdf34e90d9834f2aa9f34dd4a7ad6ced1",
  "time": 1236649001,
  "mediantime": 1236645592,
  "nonce": 1539140906,
  "bits": "1d00ffff",
  "difficulty": 1,
  "chainwork": "00000000000000000000000000000000000000000000000000001b031b031b03",
  "nTx": 1,
  "previousblockhash": "00000000e288b131db4d97f623323513bf6b46c492c8c6b7fc4f531756f056e5",
  "nextblockhash": "000000005da869b5313e389501e12447b9107de67090a969b1c6bed4ff0bfb6c",
  "strippedsize": 216,
  "size": 216,
  "weight": 864,
  "tx": [
    {
      "txid": "9d077df4b46d4c28e4f6c79f7c13309cdf34e90d9834f2aa9f34dd4a7ad6ced1",
      "hash": "9d077df4b46d4c28e4f6c79f7c13309cdf34e90d9834f2aa9f34dd4a7ad6ced1",
      "version": 1,
      "size": 135,
      "vsize": 135,
      "weight": 540,
      "locktime": 0,
      "vin": [
        {
          "coinbase": "04ffff001d02af00",
          "sequence": 4294967295
        }
      ],
      "vout": [
        {
          "value": 50.0,
          "n": 0,
          "scriptPubKey": {
            "asm": "045ca5e42fdb9290aa2160e3cfafd6d4f708650eb151238196d4891da50f117be8b30874d59a440ab68ee13bde2ba6d0a38c27ae3ded759c1ea2149b6288bee44d OP_CHECKSIG",
            "desc": "pk(045ca5e42fdb9290aa2160e3cfafd6d4f708650eb151238196d4891da50f117be8b30874d59a440ab68ee13bde2ba6d0a38c27ae3ded759c1ea2149b6288bee44d)#cyt054zp",
            "hex": "41045ca5e42fdb9290aa2160e3cfafd6d4f708650eb151238196d4891da50f117be8b30874d59a440ab68ee13bde2ba6d0a38c27ae3ded759c1ea2149b6288bee44dac",
            "type": "pubkey"
          }
        }
      ],
      "hex": "01000000010000000000000000000000000000000000000000000000000000000000000000ffffffff0804ffff001d02af00ffffffff0100f2052a010000004341045ca5e42fdb9290aa2160e3cfafd6d4f708650eb151238196d4891da50f117be8b30874d59a440ab68ee13bde2ba6d0a38c27ae3ded759c1ea2149b6288bee44dac00000000"
    }
  ]
}