{
  "hash": "0000000057ce692a1c822d97ea4111f7f157d8c0052114df5c6c1492743753fb",
  "confirmations": 50882,
  "height": 2216,
  "version": 1,
  "versionHex": "00000001",
  "merkleroot": "957705421f2f48d8fbdcf877896850ac3a8d56ea6772c2f5bec209cb5f6eb045",
  "time": 1233224434,
  "mediantime": 1233222492,
  "nonce": 974814005,
  "bits": "1d00ffff",
  "difficulty": 1,
  "chainwork": "000000000000000000000000000000000000000000000000000008a908a908a9",
  "nTx": 1,
  "previousblockhash": "0000000092e1853b69493c46b1b5e4e02bd383bbc1152b1519f76f857afdb719",
  "nextblockhash": "0000000068f0ffcd5493d706ced42fd21407d9e2cd2c90eedbb53430fb7df297",
  "strippedsize": 216,
  "size": 216,
  "weight": 864,
  "tx": [
    {
      "txid": "957705421f2f48d8fbdcf877896850ac3a8d56ea6772c2f5bec209cb5f6eb045",
      "hash": "957705421f2f48d8fbdcf877896850ac3a8d56ea6772c2f5bec209cb5f6eb045",
      "version": 1,
      "size": 135,
      "vsize": 135,
      "weight": 540,
      "locktime": 0,
      "vin": [
        {
          "coinbase": "04ffff001d029100",
          "sequence": 4294967295
        }
      ],
      "vout": [
        {
          "value": 50.0,
          "n": 0,
          "scriptPubKey": {
            "asm": "0457d32aee3e65420022fd2495a17bf22caa3144c0baba784872a7190f7e608d9d658784076184adace14e3dd8c66efba5d9fad55b689db7e3608964915c106432 OP_CHECKSIG",
            "desc": "pk(0457d32aee3e65420022fd2495a17bf22caa3144c0baba784872a7190f7e608d9d658784076184adace14e3dd8c66efba5d9fad55b689db7e3608964915c106432)#jh8r5jl5",
            "hex": "410457d32aee3e65420022fd2495a17bf22caa3144c0baba784872a7190f7e608d9d658784076184adace14e3dd8c66efba5d9fad55b689db7e3608964915c106432ac",
            "type": "pubkey"
          }
        }
      ],
      "hex": "01000000010000000000000000000000000000000000000000000000000000000000000000ffffffff0804ffff001d029100ffffffff0100f2052a0100000043410457d32aee3e65420022fd2495a17bf22caa3144c0baba784872a7190f7e608d9d658784076184adace14e3dd8c66efba5d9fad55b689db7e3608964915c106432ac00000000"
    }
  ]
}