{
  "hash": "00000000303839ad3b20c27785df6b605741dbf86c6bbbabff3a3aec9639f020",
  "confirmations": 44860,
  "height": 8238,
  "version": 1,
  "versionHex": "00000001",
  "merkleroot": "403987fcc85f610b36c617345eb2b8c69c9527b53de24a48a2ec96e8736b2014",
  "time": 1237689122,
  "mediantime": 1237685587,
  "nonce": 199227224,
  "bits": "1d00ffff",
  "difficulty": 1,
  "chainwork": "0000000000000000000000000000000000000000000000000000202f202f202f",
  "nTx": 1,
  "previousblockhash": "00000000ae29af171bbf72e365e4b992ce739a2a2d0244a68bfc2d441ff1e6ea",
  "nextblockhash": "0000000087844ccfccbee0e02b2b908bd23ea90917cce27497a93caa0b3ce87c",
  "strippedsize": 216,
  "size": 216,
  "weight": 864,
  "tx": [
    {
      "txid": "403987fcc85f610b36c617345eb2b8c69c9527b53de24a48a2ec96e8736b2014",
      "hash": "403987fcc85f610b36c617345eb2b8c69c9527b53de24a48a2ec96e8736b2014",
      "version": 1,
      "size": 135,
      "vsize": 135,
      "weight": 540,
      "locktime": 0,
      "vin": [
        {
          "coinbase": "04ffff001d024002",
          "sequence": 4294967295
        }
      ],
      "vout": [
        {
          "value": 50.0,
          "n": 0,
          "scriptPubKey": {
            "asm": "04a27bb298b10e29e5f5aaa85600aa9caad42e0d3070f50e13e777e433014147f4c24809a3b71226f4914321142465a1a53e8c6e5bd58f271b87b501b0614ad648 OP_CHECKSIG",
            "desc": "pk(04a27bb298b10e29e5f5aaa85600aa9caad42e0d3070f50e13e777e433014147f4c24809a3b71226f4914321142465a1a53e8c6e5bd58f271b87b501b0614ad648)#nqezcg3j",
            "hex": "4104a27bb298b10e29e5f5aaa85600aa9caad42e0d3070f50e13e777e433014147f4c24809a3b71226f4914321142465a1a53e8c6e5bd58f271b87b501b0614ad648ac",
            "type": "pubkey"
          }
        }
      ],
      "hex": "01000000010000000000000000000000000000000000000000000000000000000000000000ffffffff0804ffff001d024002ffffffff0100f2052a01000000434104a27bb298b10e29e5f5aaa85600aa9caad42e0d3070f50e13e777e433014147f4c24809a3b71226f4914321142465a1a53e8c6e5bd58f271b87b501b0614ad648ac00000000"
    }
  ]
}