{
  "hash": "000000003be9486e499a818564557040a44ef27bc8ac71b9af93c75262ab0b94",
  "confirmations": 43973,
  "height": 9125,
  "version": 1,
  "versionHex": "00000001",
  "merkleroot": "9791b765cb05a09b07bc8c4d7309a7b48574283e9ff64e872822e0e79d3968e6",
  "time": 1238347064,
  "mediantime": 1238344377,
  "nonce": 26907174,
  "bits": "1d00ffff",
  "difficulty": 1,
  "chainwork": "000000000000000000000000000000000000000000000000000023a623a623a6",
  "nTx": 1,
  "previousblockhash": "0000000096e0727225066eb269b7a755ae641168f919a1a6d9e2838f641e70d5",
  "nextblockhash": "000000009f8db5a817713a51f12b02760ebdff49fb5fdfe6721ac4fbe984d419",
  "strippedsize": 216,
  "size": 216,
  "weight": 864,
  "tx": [
    {
      "txid": "9791b765cb05a09b07bc8c4d7309a7b48574283e9ff64e872822e0e79d3968e6",
      "hash": "9791b765cb05a09b07bc8c4d7309a7b48574283e9ff64e872822e0e79d3968e6",
      "version": 1,
      "size": 135,
      "vsize": 135,
      "weight": 540,
      "locktime": 0,
      "vin": [
        {
          "coinbase": "04ffff001d024d04",
          "sequence": 4294967295
        }
      ],
      "vout": [
        {
          "value": 50.0,
          "n": 0,
          "scriptPubKey": {
            "asm": "045d145b30f101a4e45b92cf51f85e86403787a3f774e39bf7822b83368d04d8142a064573e2c5e32897853ce1ef417e112c81c681611c24cb221815508ed6f968 OP_CHECKSIG",
            "desc": "pk(045d145b30f101a4e45b92cf51f85e86403787a3f774e39bf7822b83368d04d8142a064573e2c5e32897853ce1ef417e112c81c681611c24cb221815508ed6f968)#thsvunum",
            "hex": "41045d145b30f101a4e45b92cf51f85e86403787a3f774e39bf7822b83368d04d8142a064573e2c5e32897853ce1ef417e112c81c681611c24cb221815508ed6f968ac",
            "type": "pubkey"
          }
        }
      ],
      "hex": "01000000010000000000000000000000000000000000000000000000000000000000000000ffffffff0804ffff001d024d04ffffffff0100f2052a010000004341045d145b30f101a4e45b92cf51f85e86403787a3f774e39bf7822b83368d04d8142a064573e2c5e32897853ce1ef417e112c81c681611c24cb221815508ed6f968ac00000000"
    }
  ]
}