{
  "hash": "0000000078e35bc3183aa1dd53a37b58bae5b8417a7c0565cecc12af09084aa5",
  "confirmations": 50050,
  "height": 3048,
  "version": 1,
  "versionHex": "00000001",
  "merkleroot": "a350d1c08778a9763f772ec2c1aaabfc268c8919efeb08f0ab528ad960c3a28a",
  "time": 1233794163,
  "mediantime": 1233792501,
  "nonce": 159909971,
  "bits": "1d00ffff",
  "difficulty": 1,
  "chainwork": "00000000000000000000000000000000000000000000000000000be90be90be9",
  "nTx": 1,
  "previousblockhash": "000000007e11d94606724ebe109107da23c175c3bb383c38885f49a92c4b36c2",
  "nextblockhash": "00000000c0b5300ab3f48f768ccbea253d86dd894952ce048272787deb5bc2d9",
  "strippedsize": 216,
  "size": 216,
  "weight": 864,
  "tx": [
    {
      "txid": "a350d1c08778a9763f772ec2c1aaabfc268c8919efeb08f0ab528ad960c3a28a",
      "hash": "a350d1c08778a9763f772ec2c1aaabfc268c8919efeb08f0ab528ad960c3a28a",
      "version": 1,
      "size": 135,
      "vsize": 135,
      "weight": 540,
      "locktime": 0,
      "vin": [
        {
          "coinbase": "04ffff001d027404",
          "sequence": 4294967295
        }
      ],
      "vout": [
        {
          "value": 50.0,
          "n": 0,
          "scriptPubKey": {
            "asm": "048eb6350c6274a3d1aba872d2f393b56fc1f6bd5011adef796b3ba512cfaded7e457d69495bff71dadba7406716b6dbb0f558cc2f8523944554f764b656387190 OP_CHECKSIG",
            "desc": "pk(048eb6350c6274a3d1aba872d2f393b56fc1f6bd5011adef796b3ba512cfaded7e457d69495bff71dadba7406716b6dbb0f558cc2f8523944554f764b656387190)#l7t72jrg",
            "hex": "41048eb6350c6274a3d1aba872d2f393b56fc1f6bd5011adef796b3ba512cfaded7e457d69495bff71dadba7406716b6dbb0f558cc2f8523944554f764b656387190ac",
            "type": "pubkey"
          }
        }
      ],
      "hex": "01000000010000000000000000000000000000000000000000000000000000000000000000ffffffff0804ffff001d027404ffffffff0100f2052a010000004341048eb6350c6274a3d1aba872d2f393b56fc1f6bd5011adef796b3ba512cfaded7e457d69495bff71dadba7406716b6dbb0f558cc2f8523944554f764b656387190ac00000000"
    }
  ]
}