{
  "hash": "0000000084badb4cbcdfce3581ade61c0178b9626d888c14596394ec5f1d8ae0",
  "confirmations": 45060,
  "height": 8038,
  "version": 1,
  "versionHex": "00000001",
  "merkleroot": "6ba132acf1d9acf0101b2d475ce5adbb280c3482c839fbef96c9c8b337e05d4f",
  "time": 1237489622,
  "mediantime": 1237487462,
  "nonce": 1360200226,
  "bits": "1d00ffff",
  "difficulty": 1,
  "chainwork": "00000000000000000000000000000000000000000000000000001f671f671f67",
  "nTx": 1,
  "previousblockhash": "00000000cc78ad610206892e7be4d37adf3f7b4a5ac7b5c13a5d5a046f8d7daa",
  "nextblockhash": "0000000032a22799fdb7730d3bc467008cf38bc76735233c78348379e67e4ed4",
  "strippedsize": 216,
  "size": 216,
  "weight": 864,
  "tx": [
    {
      "txid": "6ba132acf1d9acf0101b2d475ce5adbb280c3482c839fbef96c9c8b337e05d4f",
      "hash": "6ba132acf1d9acf0101b2d475ce5adbb280c3482c839fbef96c9c8b337e05d4f",
      "version": 1,
      "size": 135,
      "vsize": 135,
      "weight": 540,
      "locktime": 0,
      "vin": [
        {
          "coinbase": "04ffff001d02110a",
          "sequence": 4294967295
        }
      ],
      "vout": [
        {
          "value": 50.0,
          "n": 0,
          "scriptPubKey": {
            "asm": "047eccffa1b6b78fb3e9f6233ef3882494fa34f4d5445863ec9d60387775aea80c8b293c27204eca465a1d6f93e82aa94bea5a4bb94958aa6973286fa69edd940e OP_CHECKSIG",
            "desc": "pk(047eccffa1b6b78fb3e9f6233ef3882494fa34f4d5445863ec9d60387775aea80c8b293c27204eca465a1d6f93e82aa94bea5a4bb94958aa6973286fa69edd940e)#xszegck6",
            "hex": "41047eccffa1b6b78fb3e9f6233ef3882494fa34f4d5445863ec9d60387775aea80c8b293c27204eca465a1d6f93e82aa94bea5a4bb94958aa6973286fa69edd940eac",
            "type": "pubkey"
          }
        }
      ],
      "hex": "01000000010000000000000000000000000000000000000000000000000000000000000000ffffffff0804ffff001d02110affffffff0100f2052a010000004341047eccffa1b6b78fb3e9f6233ef3882494fa34f4d5445863ec9d60387775aea80c8b293c27204eca465a1d6f93e82aa94bea5a4bb94958aa6973286fa69edd940eac00000000"
    }
  ]
}