{
  "hash": "00000000107dd9466de09c0baa868916a2584259b1d52201c2001d094bb9524b",
  "confirmations": 43569,
  "height": 9529,
  "version": 1,
  "versionHex": "00000001",
  "merkleroot": "f7b1550dd8e0b2c652f48ad4e1f9d675de6b41f965771602a21bc796df55cfd3",
  "time": 1238646203,
  "mediantime": 1238644194,
  "nonce": 4103918127,
  "bits": "1d00ffff",
  "difficulty": 1,
  "chainwork": "0000000000000000000000000000000000000000000000000000253a253a253a",
  "nTx": 1,
  "previousblockhash": "00000000de1cd8f29486aa30424bd0e46440f318730574d1cbf80ea08492ec7f",
  "nextblockhash": "0000000090a96913e004b8f0d667acb422ee1f968c70a82c57f049e6c0ffdfca",
  "strippedsize": 216,
  "size": 216,
  "weight": 864,
  "tx": [
    {
      "txid": "f7b1550dd8e0b2c652f48ad4e1f9d675de6b41f965771602a21bc796df55cfd3",
      "hash": "f7b1550dd8e0b2c652f48ad4e1f9d675de6b41f965771602a21bc796df55cfd3",
      "version": 1,
      "size": 135,
      "vsize": 135,
      "weight": 540,
      "locktime": 0,
      "vin": [
        {
          "coinbase": "04ffff001d02c305",
          "sequence": 4294967295
        }
      ],
      "vout": [
        {
          "value": 50.0,
          "n": 0,
          "scriptPubKey": {
            "asm": "04d5deb529b04f950e81ab74b0a3edda8067379ace3b3dab13830f45d5100e94d6a7c25fe7198bfffe3f945eaaba7b660e06032b246487f31f36fa898e4114d98d OP_CHECKSIG",
            "desc": "pk(04d5deb529b04f950e81ab74b0a3edda8067379ace3b3dab13830f45d5100e94d6a7c25fe7198bfffe3f945eaaba7b660e06032b246487f31f36fa898e4114d98d)#sz9j3qa9",
            "hex": "4104d5deb529b04f950e81ab74b0a3edda8067379ace3b3dab13830f45d5100e94d6a7c25fe7198bfffe3f945eaaba7b660e06032b246487f31f36fa898e4114d98dac",
            "type": "pubkey"
          }
        }
      ],
      "hex": "01000000010000000000000000000000000000000000000000000000000000000000000000ffffffff0804ffff001d02c305ffffffff0100f2052a01000000434104d5deb529b04f950e81ab74b0a3edda8067379ace3b3dab13830f45d5100e94d6a7c25fe7198bfffe3f945eaaba7b660e06032b246487f31f36fa898e4114d98dac00000000"
    }
  ]
}