{
  "hash": "000000004426ab753a1b3200a81baea251f6914e2427668906dee1b8df015788",
  "confirmations": 47122,
  "height": 5976,
  "version": 1,
  "versionHex": "00000001",
  "merkleroot": "eb927b34f3552110024c311225ef376ecae0d5f12fe8c61321c0b1cd6bdb7232",
  "time": 1235908681,
  "mediantime": 1235905588,
  "nonce": 3121758761,
  "bits": "1d00ffff",
  "difficulty": 1,
  "chainwork": "0000000000000000000000000000000000000000000000000000175917591759",
  "nTx": 1,
  "previousblockhash": "000000009e2b227a3bc1f65cfbff4ee1556501a31db849e5a5be46be3acc69eb",
  "nextblockhash": "00000000b225bff1ddefbf7c5bdfc50b19aed87958532634dafa17dc62ed1556",
  "strippedsize": 216,
  "size": 216,
  "weight": 864,
  "tx": [
    {
      "txid": "eb927b34f3552110024c311225ef376ecae0d5f12fe8c61321c0b1cd6bdb7232",
      "hash": "eb927b34f3552110024c311225ef376ecae0d5f12fe8c61321c0b1cd6bdb7232",
      "version": 1,
      "size": 135,
      "vsize": 135,
      "weight": 540,
      "locktime": 0,
      "vin": [
        {
          "coinbase": "04ffff001d027604",
          "sequence": 4294967295
        }
      ],
      "vout": [
        {
          "value": 50.0,
          "n": 0,
          "scriptPubKey": {
            "asm": "048b116f2878b80c541b0a0a2f0bc4b221e94a4ceade7f1070ef9addcb9f64bb8cb33c3e49a9d08c01266d2bfeb1445c208a500a94225ad16b93b5b2abcf70a27f OP_CHECKSIG",
            "desc": "pk(048b116f2878b80c541b0a0a2f0bc4b221e94a4ceade7f1070ef9addcb9f64bb8cb33c3e49a9d08c01266d2bfeb1445c208a500a94225ad16b93b5b2abcf70a27f)#jxdfduch",
            "hex": "41048b116f2878b80c541b0a0a2f0bc4b221e94a4ceade7f1070ef9addcb9f64bb8cb33c3e49a9d08c01266d2bfeb1445c208a500a94225ad16b93b5b2abcf70a27fac",
            "type": "pubkey"
          }
        }
      ],
      "hex": "01000000010000000000000000000000000000000000000000000000000000000000000000ffffffff0804ffff001d027604ffffffff0100f2052a010000004341048b116f2878b80c541b0a0a2f0bc4b221e94a4ceade7f1070ef9addcb9f64bb8cb33c3e49a9d08c01266d2bfeb1445c208a500a94225ad16b93b5b2abcf70a27fac00000000"
    }
  ]
}