{
  "hash": "0000000042afd69ddd5c5e2e9f58f65e88bde9a53f9f8f69a6e5ca93b07a24cf",
  "confirmations": 51997,
  "height": 108,
  "version": 1,
  "versionHex": "00000001",
  "merkleroot": "202b784e7fcbb28b28906a80d0b65a97cea04db8e34d26596efa55f8806a9402",
  "time": 1231667222,
  "mediantime": 1231663467,
  "nonce": 1071487492,
  "bits": "1d00ffff",
  "difficulty": 1,
  "chainwork": "0000000000000000000000000000000000000000000000000000006d006d006d",
  "nTx": 1,
  "previousblockhash": "000000007e16b0176d894bebf52f6ceb5dd8553831e579b50726779633a1f2eb",
  "nextblockhash": "000000003f5dccc4e0bdac7081755b9d9ee17e7737316202b900d1c567c5abae",
  "strippedsize": 216,
  "size": 216,
  "weight": 864,
  "tx": [
    {
      "txid": "202b784e7fcbb28b28906a80d0b65a97cea04db8e34d26596efa55f8806a9402",
      "hash": "202b784e7fcbb28b28906a80d0b65a97cea04db8e34d26596efa55f8806a9402",
      "version": 1,
      "size": 135,
      "vsize": 135,
      "weight": 540,
      "locktime": 0,
      "vin": [
        {
          "coinbase": "04ffff001d028a00",
          "sequence": 4294967295
        }
      ],
      "vout": [
        {
          "value": 50.0,
          "n": 0,
          "scriptPubKey": {
            "asm": "04d42de70341ea7933849a8ad7f1fab5bdc38fdd56f5cb4cedde3d3823233dbe601421e06d32ed05f08a249faa04aa2e131284c75c7e606d2f692bec7bd5a8026e OP_CHECKSIG",
            "desc": "pk(04d42de70341ea7933849a8ad7f1fab5bdc38fdd56f5cb4cedde3d3823233dbe601421e06d32ed05f08a249faa04aa2e131284c75c7e606d2f692bec7bd5a8026e)#9nkfya4n",
            "hex": "4104d42de70341ea7933849a8ad7f1fab5bdc38fdd56f5cb4cedde3d3823233dbe601421e06d32ed05f08a249faa04aa2e131284c75c7e606d2f692bec7bd5a8026eac",
            "type": "pubkey"
          }
        }
      ],
      "hex": "01000000010000000000000000000000000000000000000000000000000000000000000000ffffffff0804ffff001d028a00ffffffff0100f2052a01000000434104d42de70341ea7933849a8ad7f1fab5bdc38fdd56f5cb4cedde3d3823233dbe601421e06d32ed05f08a249faa04aa2e131284c75c7e606d2f692bec7bd5a8026eac00000000"
    }
  ]
}