{
  "hash": "000000002878b44af3dd0ef5065c5846c14b092f842b3a4a5377f0e28bc174b6",
  "confirmations": 51191,
  "height": 1907,
  "version": 1,
  "versionHex": "00000001",
  "merkleroot": "3305a0ca92891c39cd4c97ebc440e4591f9d6e6b195eac9b67b3436a45965fbc",
  "time": 1232948565,
  "mediantime": 1232946035,
  "nonce": 2808986916,
  "bits": "1d00ffff",
  "difficulty": 1,
  "chainwork": "0000000000000000000000000000000000000000000000000000077407740774",
  "nTx": 1,
  "previousblockhash": "00000000340b0d1288adc8d9da2d49e4da89798b3ee29e49b444a00ba6c4948c",
  "nextblockhash": "000000001c3119accc6f62bc92607a4bd4a3878bfeb643ac91b95ca547159ffe",
  "strippedsize": 216,
  "size": 216,
  "weight": 864,
  "tx": [
    {
      "txid": "3305a0ca92891c39cd4c97ebc440e4591f9d6e6b195eac9b67b3436a45965fbc",
      "hash": "3305a0ca92891c39cd4c97ebc440e4591f9d6e6b195eac9b67b3436a45965fbc",
      "version": 1,
      "size": 135,
      "vsize": 135,
      "weight": 540,
      "locktime": 0,
      "vin": [
        {
          "coinbase": "04ffff001d024f05",
          "sequence": 4294967295
        }
      ],
      "vout": [
        {
          "value": 50.0,
          "n": 0,
          "scriptPubKey": {
            "asm": "0411d893671e6b514030b0f11a5d21c56d03f99af2d7e6032fed12cf8d9a4fdc6d5df11d8847f2bac69b09841ee2ae8408b92d81688df429368dd9502b852ec2f9 OP_CHECKSIG",
            "desc": "pk(0411d893671e6b514030b0f11a5d21c56d03f99af2d7e6032fed12cf8d9a4fdc6d5df11d8847f2bac69b09841ee2ae8408b92d81688df429368dd9502b852ec2f9)#r4hgd525",
            "hex": "410411d893671e6b514030b0f11a5d21c56d03f99af2d7e6032fed12cf8d9a4fdc6d5df11d8847f2bac69b09841ee2ae8408b92d81688df429368dd9502b852ec2f9ac",
            "type": "pubkey"
          }
        }
      ],
      "hex": "01000000010000000000000000000000000000000000000000000000000000000000000000ffffffff0804ffff001d024f05ffffffff0100f2052a0100000043410411d893671e6b514030b0f11a5d21c56d03f99af2d7e6032fed12cf8d9a4fdc6d5df11d8847f2bac69b09841ee2ae8408b92d81688df429368dd9502b852ec2f9ac00000000"
    }
  ]
}