{
  "hash": "00000000aae08040a40f8adb0e11c926e9500694bf2d2fa0f36a8165a2a67fe4",
  "confirmations": 50676,
  "height": 2422,
  "version": 1,
  "versionHex": "00000001",
  "merkleroot": "b9bcac5028e3ef2fd0ec2969e926b1aabc10b542107503a11594a6459043a927",
  "time": 1233370992,
  "mediantime": 1233368704,
  "nonce": 215966447,
  "bits": "1d00ffff",
  "difficulty": 1,
  "chainwork": "0000000000000000000000000000000000000000000000000000097709770977",
  "nTx": 1,
  "previousblockhash": "00000000ef8079dcdbf8f6dfbc28de67b6de24f161c7f54075e45c11bfc37be9",
  "nextblockhash": "00000000dd622ce79e7ba9ac8a58ad8ec10cc5a94cc1711e99b96b9ed98083fe",
  "strippedsize": 216,
  "size": 216,
  "weight": 864,
  "tx": [
    {
      "txid": "b9bcac5028e3ef2fd0ec2969e926b1aabc10b542107503a11594a6459043a927",
      "hash": "b9bcac5028e3ef2fd0ec2969e926b1aabc10b542107503a11594a6459043a927",
      "version": 1,
      "size": 135,
      "vsize": 135,
      "weight": 540,
      "locktime": 0,
      "vin": [
        {
          "coinbase": "04ffff001d02ef01",
          "sequence": 4294967295
        }
      ],
      "vout": [
        {
          "value": 50.0,
          "n": 0,
          "scriptPubKey": {
            "asm": "040dcb9e16082dfddb146727d73761ea93026e3945668a1c2374b472426f3d6e51a33c17f74effa1c1b90c5eb48cf2ca361ff6b47a2f91164e523839fa528bc9d2 OP_CHECKSIG",
            "desc": "pk(040dcb9e16082dfddb146727d73761ea93026e3945668a1c2374b472426f3d6e51a33c17f74effa1c1b90c5eb48cf2ca361ff6b47a2f91164e523839fa528bc9d2)#2sldc6et",
            "hex": "41040dcb9e16082dfddb146727d73761ea93026e3945668a1c2374b472426f3d6e51a33c17f74effa1c1b90c5eb48cf2ca361ff6b47a2f91164e523839fa528bc9d2ac",
            "type": "pubkey"
          }
        }
      ],
      "hex": "01000000010000000000000000000000000000000000000000000000000000000000000000ffffffff0804ffff001d02ef01ffffffff0100f2052a010000004341040dcb9e16082dfddb146727d73761ea93026e3945668a1c2374b472426f3d6e51a33c17f74effa1c1b90c5eb48cf2ca361ff6b47a2f91164e523839fa528bc9d2ac00000000"
    }
  ]
}