{
  "hash": "00000000c4ba7c08aa7eae6210902548bdb3044b0c1b46414c7417a99a73b088",
  "confirmations": 45887,
  "height": 7211,
  "version": 1,
  "versionHex": "00000001",
  "merkleroot": "9816e1369d3ae07cfb6bf8310d8f656ce23b6157bfb2c278d756d87b09a4fd00",
  "time": 1236880702,
  "mediantime": 1236874499,
  "nonce": 33912908,
  "bits": "1d00ffff",
  "difficulty": 1,
  "chainwork": "00000000000000000000000000000000000000000000000000001c2c1c2c1c2c",
  "nTx": 1,
  "previousblockhash": "00000000f7e4a39b5ae45a0e73c1719d177ee1078a69907fe485cacf7f0e8d3f",
  "nextblockhash": "0000000017f705cb7ed5be17eb1eb9d4af765c62810e985964322140a8347e28",
  "strippedsize": 216,
  "size": 216,
  "weight": 864,
  "tx": [
    {
      "txid": "9816e1369d3ae07cfb6bf8310d8f656ce23b6157bfb2c278d756d87b09a4fd00",
      "hash": "9816e1369d3ae07cfb6bf8310d8f656ce23b6157bfb2c278d756d87b09a4fd00",
      "version": 1,
      "size": 135,
      "vsize": 135,
      "weight": 540,
      "locktime": 0,
      "vin": [
        {
          "coinbase": "04ffff001d02da06",
          "sequence": 4294967295
        }
      ],
      "vout": [
        {
          "value": 50.0,
          "n": 0,
          "scriptPubKey": {
            "asm": "04d9a3ef5588a2a4f625576198d5fa8d0b540d40478864c4ef0dddaa9e49db86ff3a5cb43178f80c57d7175b081e55548ad89edecf720e0e146631ddc9697f84e9 OP_CHECKSIG",
            "desc": "pk(04d9a3ef5588a2a4f625576198d5fa8d0b540d40478864c4ef0dddaa9e49db86ff3a5cb43178f80c57d7175b081e55548ad89edecf720e0e146631ddc9697f84e9)#xjht6nud",
            "hex": "4104d9a3ef5588a2a4f625576198d5fa8d0b540d40478864c4ef0dddaa9e49db86ff3a5cb43178f80c57d7175b081e55548ad89edecf720e0e146631ddc9697f84e9ac",
            "type": "pubkey"
          }
        }
      ],
      "hex": "01000000010000000000000000000000000000000000000000000000000000000000000000ffffffff0804ffff001d02da06ffffffff0100f2052a01000000434104d9a3ef5588a2a4f625576198d5fa8d0b540d40478864c4ef0dddaa9e49db86ff3a5cb43178f80c57d7175b081e55548ad89edecf720e0e146631ddc9697f84e9ac00000000"
    }
  ]
}