{
  "hash": "00000000cdf03f5843f16bb40456cbf509280afa5093404a8eb2b76d4d7e694f",
  "confirmations": 43910,
  "height": 9188,
  "version": 1,
  "versionHex": "00000001",
  "merkleroot": "c932e89d694b583e9715f952a0dd96185b946fea887cf4df11bd13c36380dec7",
  "time": 1238392220,
  "mediantime": 1238389274,
  "nonce": 3921677352,
  "bits": "1d00ffff",
  "difficulty": 1,
  "chainwork": "000000000000000000000000000000000000000000000000000023e523e523e5",
  "nTx": 1,
  "previousblockhash": "0000000065f35f8f590064aae9c964227a29b0e433abd4d85978c34225aa8fb8",
  "nextblockhash": "00000000402b05fe01a01f6c8cf73d0765407994bc95d5a2d833e1f34f9e653d",
  "strippedsize": 216,
  "size": 216,
  "weight": 864,
  "tx": [
    {
      "txid": "c932e89d694b583e9715f952a0dd96185b946fea887cf4df11bd13c36380dec7",
      "hash": "c932e89d694b583e9715f952a0dd96185b946fea887cf4df11bd13c36380dec7",
      "version": 1,
      "size": 135,
      "vsize": 135,
      "weight": 540,
      "locktime": 0,
      "vin": [
        {
          "coinbase": "04ffff001d02140a",
          "sequence": 4294967295
        }
      ],
      "vout": [
        {
          "value": 50.0,
          "n": 0,
          "scriptPubKey": {
            "asm": "04c0831ef8febb153534aad98717f9281ed2073c9a027a38946e065f15d35c984b9450c988d77f245cf0e742f3eb8a9ba0271b23241c57d264961047323646c0f6 OP_CHECKSIG",
            "desc": "pk(04c0831ef8febb153534aad98717f9281ed2073c9a027a38946e065f15d35c984b9450c988d77f245cf0e742f3eb8a9ba0271b23241c57d264961047323646c0f6)#rqq9p8q7",
            "hex": "4104c0831ef8febb153534aad98717f9281ed2073c9a027a38946e065f15d35c984b9450c988d77f245cf0e742f3eb8a9ba0271b23241c57d264961047323646c0f6ac",
            "type": "pubkey"
          }
        }
      ],
      "hex": "01000000010000000000000000000000000000000000000000000000000000000000000000ffffffff0804ffff001d02140affffffff0100f2052a01000000434104c0831ef8febb153534aad98717f9281ed2073c9a027a38946e065f15d35c984b9450c988d77f245cf0e742f3eb8a9ba0271b23241c57d264961047323646c0f6ac00000000"
    }
  ]
}