{
  "hash": "0000000067ee90b45db11656beafa2968a4caaf966fd6fecfca909495a63a47f",
  "confirmations": 51611,
  "height": 1487,
  "version": 1,
  "versionHex": "00000001",
  "merkleroot": "71b1c0ddf19e6566e14d9d90d31d461dbe7a635113fe1c99f346489b55e647b7",
  "time": 1232762084,
  "mediantime": 1232760507,
  "nonce": 32509464,
  "bits": "1d00ffff",
  "difficulty": 1,
  "chainwork": "000000000000000000000000000000000000000000000000000005d005d005d0",
  "nTx": 1,
  "previousblockhash": "0000000060eb46c50cca1b37bf0bd6446740a2cb07498a15b590b22f48e6a5be",
  "nextblockhash": "000000004e71854ee6867086bc5870c4d88b7ea470fc0a46b2f3091a6b490e25",
  "strippedsize": 215,
  "size": 215,
  "weight": 860,
  "tx": [
    {
      "txid": "71b1c0ddf19e6566e14d9d90d31d461dbe7a635113fe1c99f346489b55e647b7",
      "hash": "71b1c0ddf19e6566e14d9d90d31d461dbe7a635113fe1c99f346489b55e647b7",
      "version": 1,
      "size": 134,
      "vsize": 134,
      "weight": 536,
      "locktime": 0,
      "vin": [
        {
          "coinbase": "04ffff001d0165",
          "sequence": 4294967295
        }
      ],
      "vout": [
        {
          "value": 50.0,
          "n": 0,
          "scriptPubKey": {
            "asm": "04fcaea7d58f60d08b1e44be48b8e783f8b1bf24f8d05d531fb24883485643e0afaf259cd282301fd90d15d963197e77307d6539f6f3146a165c88b04d3155b360 OP_CHECKSIG",
            "desc": "pk(04fcaea7d58f60d08b1e44be48b8e783f8b1bf24f8d05d531fb24883485643e0afaf259cd282301fd90d15d963197e77307d6539f6f3146a165c88b04d3155b360)#q86x7nmp",
            "hex": "4104fcaea7d58f60d08b1e44be48b8e783f8b1bf24f8d05d531fb24883485643e0afaf259cd282301fd90d15d963197e77307d6539f6f3146a165c88b04d3155b360ac",
            "type": "pubkey"
          }
        }
      ],
      "hex": "01000000010000000000000000000000000000000000000000000000000000000000000000ffffffff0704ffff001d0165ffffffff0100f2052a01000000434104fcaea7d58f60d08b1e44be48b8e783f8b1bf24f8d05d531fb24883485643e0afaf259cd282301fd90d15d963197e77307d6539f6f3146a165c88b04d3155b360ac00000000"
    }
  ]
}