{
  "hash": "0000000041eb952c8fb526dd78d604b07e74fad9bf2087f3184e0e8bc73a6dc5",
  "confirmations": 50059,
  "height": 3039,
  "version": 1,
  "versionHex": "00000001",
  "merkleroot": "1d62a7781f20b80455ac6931a77cbc394044f97de5501cab539fb355c0d50c3c",
  "time": 1233789413,
  "mediantime": 1233784407,
  "nonce": 2534475524,
  "bits": "1d00ffff",
  "difficulty": 1,
  "chainwork": "00000000000000000000000000000000000000000000000000000be00be00be0",
  "nTx": 1,
  "previousblockhash": "00000000fbf1fd4a8708cb49bca4453f52bae4a78249f23d8dee1116422182ec",
  "nextblockhash": "00000000d49db14e5c9db263bbc5989f3eb4cbbbcf7ae8443d174f18a80a00fe",
  "strippedsize": 215,
  "size": 215,
  "weight": 860,
  "tx": [
    {
      "txid": "1d62a7781f20b80455ac6931a77cbc394044f97de5501cab539fb355c0d50c3c",
      "hash": "1d62a7781f20b80455ac6931a77cbc394044f97de5501cab539fb355c0d50c3c",
      "version": 1,
      "size": 134,
      "vsize": 134,
      "weight": 536,
      "locktime": 0,
      "vin": [
        {
          "coinbase": "04ffff001d0106",
          "sequence": 4294967295
        }
      ],
      "vout": [
        {
          "value": 50.0,
          "n": 0,
          "scriptPubKey": {
            "asm": "04269bdad53616a43bc8a888accd1d692f784f8b9338f3849fedc94bc1260d6d6036c6c690af3dbcdb8be18421b9288f2f5d6cb49ce5a240336c4ae23259e136fe OP_CHECKSIG",
            "desc": "pk(04269bdad53616a43bc8a888accd1d692f784f8b9338f3849fedc94bc1260d6d6036c6c690af3dbcdb8be18421b9288f2f5d6cb49ce5a240336c4ae23259e136fe)#qhegunh6",
            "hex": "4104269bdad53616a43bc8a888accd1d692f784f8b9338f3849fedc94bc1260d6d6036c6c690af3dbcdb8be18421b9288f2f5d6cb49ce5a240336c4ae23259e136feac",
            "type": "pubkey"
          }
        }
      ],
      "hex": "01000000010000000000000000000000000000000000000000000000000000000000000000ffffffff0704ffff001d0106ffffffff0100f2052a01000000434104269bdad53616a43bc8a888accd1d692f784f8b9338f3849fedc94bc1260d6d6036c6c690af3dbcdb8be18421b9288f2f5d6cb49ce5a240336c4ae23259e136feac00000000"
    }
  ]
}