{
  "hash": "00000000fe908b5f74b5c07fcaacef2832456fe5d69aa816e9f3f9df616b6113",
  "confirmations": 52242,
  "height": 856,
  "version": 1,
  "versionHex": "00000001",
  "merkleroot": "c800e5cce29790efa8e07d666bcb48a6396d558dbae50d61096b01227b6ccbdb",
  "time": 1232235821,
  "mediantime": 1232230156,
  "nonce": 1141933064,
  "bits": "1d00ffff",
  "difficulty": 1,
  "chainwork": "0000000000000000000000000000000000000000000000000000035903590359",
  "nTx": 1,
  "previousblockhash": "0000000063c8c3d40807ff4f0a12841d127a6aca2f853522a74378902de72ebf",
  "nextblockhash": "00000000af29b995bd908732300c6314756d2924dc1f65500fcb9d374c0e3a8c",
  "strippedsize": 216,
  "size": 216,
  "weight": 864,
  "tx": [
    {
      "txid": "c800e5cce29790efa8e07d666bcb48a6396d558dbae50d61096b01227b6ccbdb",
      "hash": "c800e5cce29790efa8e07d666bcb48a6396d558dbae50d61096b01227b6ccbdb",
      "version": 1,
      "size": 135,
      "vsize": 135,
      "weight": 540,
      "locktime": 0,
      "vin": [
        {
          "coinbase": "04ffff001d029602",
          "sequence": 4294967295
        }
      ],
      "vout": [
        {
          "value": 50.0,
          "n": 0,
          "scriptPubKey": {
            "asm": "043a51bced2a320e451501b6a2e8a30ebcf6596821f9e96702ba5a16bb54b001d666bdd2cfc120d3142b4b512477b9f1dd64fbdbb1b5bf71c5902af53488e69edc OP_CHECKSIG",
            "desc": "pk(043a51bced2a320e451501b6a2e8a30ebcf6596821f9e96702ba5a16bb54b001d666bdd2cfc120d3142b4b512477b9f1dd64fbdbb1b5bf71c5902af53488e69edc)#jy5juwhv",
            "hex": "41043a51bced2a320e451501b6a2e8a30ebcf6596821f9e96702ba5a16bb54b001d666bdd2cfc120d3142b4b512477b9f1dd64fbdbb1b5bf71c5902af53488e69edcac",
            "type": "pubkey"
          }
        }
      ],
      "hex": "01000000010000000000000000000000000000000000000000000000000000000000000000ffffffff0804ffff001d029602ffffffff0100f2052a010000004341043a51bced2a320e451501b6a2e8a30ebcf6596821f9e96702ba5a16bb54b001d666bdd2cfc120d3142b4b512477b9f1dd64fbdbb1b5bf71c5902af53488e69edcac00000000"
    }
  ]
}