{
  "hash": "00000000145fa1fdb9cfd8ff7f33fc964db8bd2472aad4f8fe9a233234971cc5",
  "confirmations": 44766,
  "height": 8332,
  "version": 1,
  "versionHex": "00000001",
  "merkleroot": "acff715102bb4f0acaa80fea84e2cf8786a5437e87b54b18554bb018df2d2d43",
  "time": 1237754626,
  "mediantime": 1237750066,
  "nonce": 224196890,
  "bits": "1d00ffff",
  "difficulty": 1,
  "chainwork": "0000000000000000000000000000000000000000000000000000208d208d208d",
  "nTx": 1,
  "previousblockhash": "000000006dce3c435514d287e457be7a845a6b67d3f3267cf6504731f2b7b0bf",
  "nextblockhash": "00000000c08e4db3ceaeaf7cef9429f6d3fd9ede816df6f150f89892183fd780",
  "strippedsize": 216,
  "size": 216,
  "weight": 864,
  "tx": [
    {
      "txid": "acff715102bb4f0acaa80fea84e2cf8786a5437e87b54b18554bb018df2d2d43",
      "hash": "acff715102bb4f0acaa80fea84e2cf8786a5437e87b54b18554bb018df2d2d43",
      "version": 1,
      "size": 135,
      "vsize": 135,
      "weight": 540,
      "locktime": 0,
      "vin": [
        {
          "coinbase": "04ffff001d02af04",
          "sequence": 4294967295
        }
      ],
      "vout": [
        {
          "value": 50.0,
          "n": 0,
          "scriptPubKey": {
            "asm": "048a7f57a0faadba2220dbdb838f31e95d1e771d425c9815701d34fc4dba2f6f3d331d42f8a7591c8f9a1047a95ca18f5d91dd37b0d3ca944927a6cd912aa07604 OP_CHECKSIG",
            "desc": "pk(048a7f57a0faadba2220dbdb838f31e95d1e771d425c9815701d34fc4dba2f6f3d331d42f8a7591c8f9a1047a95ca18f5d91dd37b0d3ca944927a6cd912aa07604)#ld33st83",
            "hex": "41048a7f57a0faadba2220dbdb838f31e95d1e771d425c9815701d34fc4dba2f6f3d331d42f8a7591c8f9a1047a95ca18f5d91dd37b0d3ca944927a6cd912aa07604ac",
            "type": "pubkey"
          }
        }
      ],
      "hex": "01000000010000000000000000000000000000000000000000000000000000000000000000ffffffff0804ffff001d02af04ffffffff0100f2052a010000004341048a7f57a0faadba2220dbdb838f31e95d1e771d425c9815701d34fc4dba2f6f3d331d42f8a7591c8f9a1047a95ca18f5d91dd37b0d3ca944927a6cd912aa07604ac00000000"
    }
  ]
}