{
  "hash": "00000000a51b482e2226e6082f0db7ee90862382730de17f6551a131e93e36fc",
  "confirmations": 44589,
  "height": 8509,
  "version": 1,
  "versionHex": "00000001",
  "merkleroot": "455d82c38700b17f4c23a7f0b99ef164b18dddf773bb015fbb6fca1071921121",
  "time": 1237879233,
  "mediantime": 1237875150,
  "nonce": 165050678,
  "bits": "1d00ffff",
  "difficulty": 1,
  "chainwork": "0000000000000000000000000000000000000000000000000000213e213e213e",
  "nTx": 1,
  "previousblockhash": "00000000da3bc425973d4fd5de7e1b34872449530e8ea7d6ba40eea0287185ca",
  "nextblockhash": "00000000c8c96792b29184d00fd87cd9fe1d463704e4e3f0b0d9e6ba2af1cc3f",
  "strippedsize": 216,
  "size": 216,
  "weight": 864,
  "tx": [
    {
      "txid": "455d82c38700b17f4c23a7f0b99ef164b18dddf773bb015fbb6fca1071921121",
      "hash": "455d82c38700b17f4c23a7f0b99ef164b18dddf773bb015fbb6fca1071921121",
      "version": 1,
      "size": 135,
      "vsize": 135,
      "weight": 540,
      "locktime": 0,
      "vin": [
        {
          "coinbase": "04ffff001d024103",
          "sequence": 4294967295
        }
      ],
      "vout": [
        {
          "value": 50.0,
          "n": 0,
          "scriptPubKey": {
            "asm": "04e3137e6fca40c3d3bbefddd87f95f951aaf00013d03fa9c060ff8866b92b1ae37c20c623162fd822e1a091e65bcae46a9bb77f86b3d482242b8696bcf00d3cd9 OP_CHECKSIG",
            "desc": "pk(04e3137e6fca40c3d3bbefddd87f95f951aaf00013d03fa9c060ff8866b92b1ae37c20c623162fd822e1a091e65bcae46a9bb77f86b3d482242b8696bcf00d3cd9)#f3fl6v79",
            "hex": "4104e3137e6fca40c3d3bbefddd87f95f951aaf00013d03fa9c060ff8866b92b1ae37c20c623162fd822e1a091e65bcae46a9bb77f86b3d482242b8696bcf00d3cd9ac",
            "type": "pubkey"
          }
        }
      ],
      "hex": "01000000010000000000000000000000000000000000000000000000000000000000000000ffffffff0804ffff001d024103ffffffff0100f2052a01000000434104e3137e6fca40c3d3bbefddd87f95f951aaf00013d03fa9c060ff8866b92b1ae37c20c623162fd822e1a091e65bcae46a9bb77f86b3d482242b8696bcf00d3cd9ac00000000"
    }
  ]
}