{
  "hash": "000000008c5ca6e2265b477889677b17345d58f93dbcb82d02b25563b0871a24",
  "confirmations": 50412,
  "height": 2686,
  "version": 1,
  "versionHex": "00000001",
  "merkleroot": "d1ecfc20ddf62024bb6403d2cc99e2fd60dd2ab5f446c5c86e402a76fe069167",
  "time": 1233552936,
  "mediantime": 1233550589,
  "nonce": 81470296,
  "bits": "1d00ffff",
  "difficulty": 1,
  "chainwork": "00000000000000000000000000000000000000000000000000000a7f0a7f0a7f",
  "nTx": 1,
  "previousblockhash": "000000006c4e83dbcb909960d95caaea9a823f304e4e7ca030c213c9b6a9a668",
  "nextblockhash": "000000000d8cf4669b79f98d128eba46ec24405e572b576dae32284b269dfaa7",
  "strippedsize": 216,
  "size": 216,
  "weight": 864,
  "tx": [
    {
      "txid": "d1ecfc20ddf62024bb6403d2cc99e2fd60dd2ab5f446c5c86e402a76fe069167",
      "hash": "d1ecfc20ddf62024bb6403d2cc99e2fd60dd2ab5f446c5c86e402a76fe069167",
      "version": 1,
      "size": 135,
      "vsize": 135,
      "weight": 540,
      "locktime": 0,
      "vin": [
        {
          "coinbase": "04ffff001d028300",
          "sequence": 4294967295
        }
      ],
      "vout": [
        {
          "value": 50.0,
          "n": 0,
          "scriptPubKey": {
            "asm": "04b750f3ef887aa310fa72f9cc88c5474e9d79443c4d0471dfcf688570da29a1e3143d72bd8edbfb6b2447e9ffa4df8ee29ce3e781d2a7e10c4c39973680b7bf2d OP_CHECKSIG",
            "desc": "pk(04b750f3ef887aa310fa72f9cc88c5474e9d79443c4d0471dfcf688570da29a1e3143d72bd8edbfb6b2447e9ffa4df8ee29ce3e781d2a7e10c4c39973680b7bf2d)#55t0c87f",
            "hex": "4104b750f3ef887aa310fa72f9cc88c5474e9d79443c4d0471dfcf688570da29a1e3143d72bd8edbfb6b2447e9ffa4df8ee29ce3e781d2a7e10c4c39973680b7bf2dac",
            "type": "pubkey"
          }
        }
      ],
      "hex": "01000000010000000000000000000000000000000000000000000000000000000000000000ffffffff0804ffff001d028300ffffffff0100f2052a01000000434104b750f3ef887aa310fa72f9cc88c5474e9d79443c4d0471dfcf688570da29a1e3143d72bd8edbfb6b2447e9ffa4df8ee29ce3e781d2a7e10c4c39973680b7bf2dac00000000"
    }
  ]
}