{
  "hash": "0000000020db9e9e3b94795ac258ed892816d54aea7954d9884fcc6529f1231c",
  "confirmations": 47272,
  "height": 5826,
  "version": 1,
  "versionHex": "00000001",
  "merkleroot": "8bbe3eb0490ab1b51d54c73835035bd3f5866fed38d3fa9d35cea671d3eb3dd9",
  "time": 1235779712,
  "mediantime": 1235775577,
  "nonce": 2675375403,
  "bits": "1d00ffff",
  "difficulty": 1,
  "chainwork": "000000000000000000000000000000000000000000000000000016c316c316c3",
  "nTx": 1,
  "previousblockhash": "0000000089cb1e9dc1faccf347fbf0dbbe293e8c0d8c6892d571ce520f6d68aa",
  "nextblockhash": "00000000e15a133d75d10d57785caa5092d7c7bd2a6d8adb4b6bc4a04cf6016d",
  "strippedsize": 216,
  "size": 216,
  "weight": 864,
  "tx": [
    {
      "txid": "8bbe3eb0490ab1b51d54c73835035bd3f5866fed38d3fa9d35cea671d3eb3dd9",
      "hash": "8bbe3eb0490ab1b51d54c73835035bd3f5866fed38d3fa9d35cea671d3eb3dd9",
      "version": 1,
      "size": 135,
      "vsize": 135,
      "weight": 540,
      "locktime": 0,
      "vin": [
        {
          "coinbase": "04ffff001d024e01",
          "sequence": 4294967295
        }
      ],
      "vout": [
        {
          "value": 50.0,
          "n": 0,
          "scriptPubKey": {
            "asm": "04a07163ecec7c47e1fbd6c874f1dfcb49add97a0d091fb1aad155ce07898a0fc513775a2e8fac7cbc445d26caf7d9e777a678dce7cc3e798bd1db847474b64aa3 OP_CHECKSIG",
            "desc": "pk(04a07163ecec7c47e1fbd6c874f1dfcb49add97a0d091fb1aad155ce07898a0fc513775a2e8fac7cbc445d26caf7d9e777a678dce7cc3e798bd1db847474b64aa3)#7dfws7x6",
            "hex": "4104a07163ecec7c47e1fbd6c874f1dfcb49add97a0d091fb1aad155ce07898a0fc513775a2e8fac7cbc445d26caf7d9e777a678dce7cc3e798bd1db847474b64aa3ac",
            "type": "pubkey"
          }
        }
      ],
      "hex": "01000000010000000000000000000000000000000000000000000000000000000000000000ffffffff0804ffff001d024e01ffffffff0100f2052a01000000434104a07163ecec7c47e1fbd6c874f1dfcb49add97a0d091fb1aad155ce07898a0fc513775a2e8fac7cbc445d26caf7d9e777a678dce7cc3e798bd1db847474b64aa3ac00000000"
    }
  ]
}