{
  "hash": "00000000900a1b7ef3f022f01af05a55a093041a91162af5bcfc957fd1213fed",
  "confirmations": 46466,
  "height": 6632,
  "version": 1,
  "versionHex": "00000001",
  "merkleroot": "58642481a770dffee6410eaaf5b6b9aa97910e81815b8ddf64e8db92989003a8",
  "time": 1236428246,
  "mediantime": 1236423294,
  "nonce": 1796782356,
  "bits": "1d00ffff",
  "difficulty": 1,
  "chainwork": "000000000000000000000000000000000000000000000000000019e919e919e9",
  "nTx": 1,
  "previousblockhash": "000000005b4e0da997d959ea2186bb4973d151f2430b653be57b71d4061bb2a6",
  "nextblockhash": "000000008aa82460fcc7049b175253401719e1425eb24a1de18018c26583aa27",
  "strippedsize": 216,
  "size": 216,
  "weight": 864,
  "tx": [
    {
      "txid": "58642481a770dffee6410eaaf5b6b9aa97910e81815b8ddf64e8db92989003a8",
      "hash": "58642481a770dffee6410eaaf5b6b9aa97910e81815b8ddf64e8db92989003a8",
      "version": 1,
      "size": 135,
      "vsize": 135,
      "weight": 540,
      "locktime": 0,
      "vin": [
        {
          "coinbase": "04ffff001d02b805",
          "sequence": 4294967295
        }
      ],
      "vout": [
        {
          "value": 50.0,
          "n": 0,
          "scriptPubKey": {
            "asm": "0406e8cf8e15d8c8a402557df19ce73aecfcfc142e8baf5e25b18ecb5bcef29102e60a4c0465e301915346cf15adaeb035662e52fc8a33fe7a4de1776c53480d2e OP_CHECKSIG",
            "desc": "pk(0406e8cf8e15d8c8a402557df19ce73aecfcfc142e8baf5e25b18ecb5bcef29102e60a4c0465e301915346cf15adaeb035662e52fc8a33fe7a4de1776c53480d2e)#75lhdwh8",
            "hex": "410406e8cf8e15d8c8a402557df19ce73aecfcfc142e8baf5e25b18ecb5bcef29102e60a4c0465e301915346cf15adaeb035662e52fc8a33fe7a4de1776c53480d2eac",
            "type": "pubkey"
          }
        }
      ],
      "hex": "01000000010000000000000000000000000000000000000000000000000000000000000000ffffffff0804ffff001d02b805ffffffff0100f2052a0100000043410406e8cf8e15d8c8a402557df19ce73aecfcfc142e8baf5e25b18ecb5bcef29102e60a4c0465e301915346cf15adaeb035662e52fc8a33fe7a4de1776c53480d2eac00000000"
    }
  ]
}