{
  "hash": "000000003ea8aead70be315fd1ff49ebb4a752fca9d0a4b54e52ef1f8df30f87",
  "confirmations": 50106,
  "height": 2992,
  "version": 1,
  "versionHex": "00000001",
  "merkleroot": "1ff965c969d9680a86a8af9abac77b3ed269deba576cdae690d969286e0ee297",
  "time": 1233756316,
  "mediantime": 1233752545,
  "nonce": 1333490212,
  "bits": "1d00ffff",
  "difficulty": 1,
  "chainwork": "00000000000000000000000000000000000000000000000000000bb10bb10bb1",
  "nTx": 1,
  "previousblockhash": "00000000c6cb8dd2ab0f9a04b67feb0a177f88d427ca780a945a4954c54fd4e7",
  "nextblockhash": "00000000f8931bdde30492fb78166a0c705306dcde00db5fc850a7b300ba0638",
  "strippedsize": 216,
  "size": 216,
  "weight": 864,
  "tx": [
    {
      "txid": "1ff965c969d9680a86a8af9abac77b3ed269deba576cdae690d969286e0ee297",
      "hash": "1ff965c969d9680a86a8af9abac77b3ed269deba576cdae690d969286e0ee297",
      "version": 1,
      "size": 135,
      "vsize": 135,
      "weight": 540,
      "locktime": 0,
      "vin": [
        {
          "coinbase": "04ffff001d024d01",
          "sequence": 4294967295
        }
      ],
      "vout": [
        {
          "value": 50.0,
          "n": 0,
          "scriptPubKey": {
            "asm": "043a5f0b5e9a96be7529fd6f0fe05b9dc37fa645c2ca5a45fbe3cb0401f0682e41f6534bda44f40acb3a755254c5c4ab2306348b631d64364384de81e7c3c1c28a OP_CHECKSIG",
            "desc": "pk(043a5f0b5e9a96be7529fd6f0fe05b9dc37fa645c2ca5a45fbe3cb0401f0682e41f6534bda44f40acb3a755254c5c4ab2306348b631d64364384de81e7c3c1c28a)#yjt4wq8j",
            "hex": "41043a5f0b5e9a96be7529fd6f0fe05b9dc37fa645c2ca5a45fbe3cb0401f0682e41f6534bda44f40acb3a755254c5c4ab2306348b631d64364384de81e7c3c1c28aac",
            "type": "pubkey"
          }
        }
      ],
      "hex": "01000000010000000000000000000000000000000000000000000000000000000000000000ffffffff0804ffff001d024d01ffffffff0100f2052a010000004341043a5f0b5e9a96be7529fd6f0fe05b9dc37fa645c2ca5a45fbe3cb0401f0682e41f6534bda44f40acb3a755254c5c4ab2306348b631d64364384de81e7c3c1c28aac00000000"
    }
  ]
}