{
  "hash": "00000000218f06574d0365ce488b661121df6b3777e1cd42213e6ed5a13136d2",
  "confirmations": 44723,
  "height": 8375,
  "version": 1,
  "versionHex": "00000001",
  "merkleroot": "614f31822491d7bae62ffbf92d4d41491a67f672efc0226b0e392604da06c8e4",
  "time": 1237782052,
  "mediantime": 1237779797,
  "nonce": 3058296602,
  "bits": "1d00ffff",
  "difficulty": 1,
  "chainwork": "000000000000000000000000000000000000000000000000000020b820b820b8",
  "nTx": 1,
  "previousblockhash": "00000000b3b9813ca08c6e789420db15c3fd8751c56b27c0b3046d651a0bea0c",
  "nextblockhash": "000000009c6ede99417e884dcebfe5a15dfae6bfabb8d8a2a25b3e38e242ef25",
  "strippedsize": 216,
  "size": 216,
  "weight": 864,
  "tx": [
    {
      "txid": "614f31822491d7bae62ffbf92d4d41491a67f672efc0226b0e392604da06c8e4",
      "hash": "614f31822491d7bae62ffbf92d4d41491a67f672efc0226b0e392604da06c8e4",
      "version": 1,
      "size": 135,
      "vsize": 135,
      "weight": 540,
      "locktime": 0,
      "vin": [
        {
          "coinbase": "04ffff001d027005",
          "sequence": 4294967295
        }
      ],
      "vout": [
        {
          "value": 50.0,
          "n": 0,
          "scriptPubKey": {
            "asm": "043bb153ef4a798c46bc9e3cb499f5ce7164e33fc5d891ad108b527983a430356f5a05e122ffce459985feb95b1a7c1c2397f333ebbe7577cd8c78bea4dfddde29 OP_CHECKSIG",
            "desc": "pk(043bb153ef4a798c46bc9e3cb499f5ce7164e33fc5d891ad108b527983a430356f5a05e122ffce459985feb95b1a7c1c2397f333ebbe7577cd8c78bea4dfddde29)#kqyu2fk4",
            "hex": "41043bb153ef4a798c46bc9e3cb499f5ce7164e33fc5d891ad108b527983a430356f5a05e122ffce459985feb95b1a7c1c2397f333ebbe7577cd8c78bea4dfddde29ac",
            "type": "pubkey"
          }
        }
      ],
      "hex": "01000000010000000000000000000000000000000000000000000000000000000000000000ffffffff0804ffff001d027005ffffffff0100f2052a010000004341043bb153ef4a798c46bc9e3cb499f5ce7164e33fc5d891ad108b527983a430356f5a05e122ffce459985feb95b1a7c1c2397f333ebbe7577cd8c78bea4dfddde29ac00000000"
    }
  ]
}