{
  "hash": "00000000c57a1b6351208c592eef8eff015d93c899a047fe35b35252a4a59bcb",
  "confirmations": 51808,
  "height": 29,
  "version": 1,
  "versionHex": "00000001",
  "merkleroot": "c361e2f4581f035dd58b99788347884e046e47b4c17ec347344ff8b24cd377ec",
  "time": 1231601503,
  "mediantime": 1231568277,
  "nonce": 2688142130,
  "bits": "1d00ffff",
  "difficulty": 1,
  "chainwork": "0000000000000000000000000000000000000000000000000000001e001e001e",
  "nTx": 1,
  "previousblockhash": "00000000bb0d9430d3d1bab474be5050342161efcca9f7e45b151bff9a700944",
  "nextblockhash": "00000000bc919cfb64f62de736d55cf79e3d535b474ace256b4fbb56073f64db",
  "strippedsize": 215,
  "size": 215,
  "weight": 860,
  "tx": [
    {
      "txid": "c361e2f4581f035dd58b99788347884e046e47b4c17ec347344ff8b24cd377ec",
      "hash": "c361e2f4581f035dd58b99788347884e046e47b4c17ec347344ff8b24cd377ec",
      "version": 1,
      "size": 134,
      "vsize": 134,
      "weight": 536,
      "locktime": 0,
      "vin": [
        {
          "coinbase": "04ffff001d010d",
          "sequence": 4294967295
        }
      ],
      "vout": [
        {
          "value": 50.0,
          "n": 0,
          "scriptPubKey": {
            "asm": "048e2c3ad3142a375ee969eccb3e14470971d898bc67077f28293245b97afbc509d180829f4cd419c208c8302728dd51a6d88392fb30a09d3ec27dd23fb2346d03 OP_CHECKSIG",
            "desc": "pk(048e2c3ad3142a375ee969eccb3e14470971d898bc67077f28293245b97afbc509d180829f4cd419c208c8302728dd51a6d88392fb30a09d3ec27dd23fb2346d03)#5576nvk3",
            "hex": "41048e2c3ad3142a375ee969eccb3e14470971d898bc67077f28293245b97afbc509d180829f4cd419c208c8302728dd51a6d88392fb30a09d3ec27dd23fb2346d03ac",
            "type": "pubkey"
          }
        }
      ],
      "hex": "01000000010000000000000000000000000000000000000000000000000000000000000000ffffffff0704ffff001d010dffffffff0100f2052a010000004341048e2c3ad3142a375ee969eccb3e14470971d898bc67077f28293245b97afbc509d180829f4cd419c208c8302728dd51a6d88392fb30a09d3ec27dd23fb2346d03ac00000000"
    }
  ]
}