{
  "hash": "0000000026e33290086013f66115a4fa85ea289f4b2deefcd0b9e40d758a5eb5",
  "confirmations": 46314,
  "height": 6784,
  "version": 1,
  "versionHex": "00000001",
  "merkleroot": "7e6de7fc14a62e2ce8ce550b9364803c3d3b787d5665f06f03d12d0e0c8bd4ee",
  "time": 1236547998,
  "mediantime": 1236543280,
  "nonce": 118112344,
  "bits": "1d00ffff",
  "difficulty": 1,
  "chainwork": "00000000000000000000000000000000000000000000000000001a811a811a81",
  "nTx": 1,
  "previousblockhash": "000000005aab39ac88d376bf250ce6497c2a32df8d370fdf67d24f65e024137c",
  "nextblockhash": "000000003e9fd14891982889923642c92442f72a612c4f28cebf3fe91c27ca3e",
  "strippedsize": 215,
  "size": 215,
  "weight": 860,
  "tx": [
    {
      "txid": "7e6de7fc14a62e2ce8ce550b9364803c3d3b787d5665f06f03d12d0e0c8bd4ee",
      "hash": "7e6de7fc14a62e2ce8ce550b9364803c3d3b787d5665f06f03d12d0e0c8bd4ee",
      "version": 1,
      "size": 134,
      "vsize": 134,
      "weight": 536,
      "locktime": 0,
      "vin": [
        {
          "coinbase": "04ffff001d012e",
          "sequence": 4294967295
        }
      ],
      "vout": [
        {
          "value": 50.0,
          "n": 0,
          "scriptPubKey": {
            "asm": "04988828ea9a1637e49ebc8f4f9227475b621ef382d01760f1b99dff2e03f54c8bc060c0ea95bc1eea0bb040dbb75756aa9a303ada2854c2f70e0fced13cdc49a0 OP_CHECKSIG",
            "desc": "pk(04988828ea9a1637e49ebc8f4f9227475b621ef382d01760f1b99dff2e03f54c8bc060c0ea95bc1eea0bb040dbb75756aa9a303ada2854c2f70e0fced13cdc49a0)#x3hzcexp",
            "hex": "4104988828ea9a1637e49ebc8f4f9227475b621ef382d01760f1b99dff2e03f54c8bc060c0ea95bc1eea0bb040dbb75756aa9a303ada2854c2f70e0fced13cdc49a0ac",
            "type": "pubkey"
          }
        }
      ],
      "hex": "01000000010000000000000000000000000000000000000000000000000000000000000000ffffffff0704ffff001d012effffffff0100f2052a01000000434104988828ea9a1637e49ebc8f4f9227475b621ef382d01760f1b99dff2e03f54c8bc060c0ea95bc1eea0bb040dbb75756aa9a303ada2854c2f70e0fced13cdc49a0ac00000000"
    }
  ]
}