{
  "hash": "00000000c1ce5aa35fb7732feb308969005173797b270b39790d32892eea7cff",
  "confirmations": 45813,
  "height": 7285,
  "version": 1,
  "versionHex": "00000001",
  "merkleroot": "1bd68a4fcf51ea470664f87f55bc0794eeed1707e91a1a90d1e0aa39e22ac07a",
  "time": 1236936747,
  "mediantime": 1236931117,
  "nonce": 617294854,
  "bits": "1d00ffff",
  "difficulty": 1,
  "chainwork": "00000000000000000000000000000000000000000000000000001c761c761c76",
  "nTx": 1,
  "previousblockhash": "0000000003339b4c239e4c4a5c0e49a89e91da9482f575f432d3db7329470772",
  "nextblockhash": "00000000a55109f40d3248952445f823ecf316905693e0724e87e52a62d1ccda",
  "strippedsize": 216,
  "size": 216,
  "weight": 864,
  "tx": [
    {
      "txid": "1bd68a4fcf51ea470664f87f55bc0794eeed1707e91a1a90d1e0aa39e22ac07a",
      "hash": "1bd68a4fcf51ea470664f87f55bc0794eeed1707e91a1a90d1e0aa39e22ac07a",
      "version": 1,
      "size": 135,
      "vsize": 135,
      "weight": 540,
      "locktime": 0,
      "vin": [
        {
          "coinbase": "04ffff001d021507",
          "sequence": 4294967295
        }
      ],
      "vout": [
        {
          "value": 50.0,
          "n": 0,
          "scriptPubKey": {
            "asm": "046b9561e6003cf9a33e0c6b9d8e1e3391c70eae1df9d5df357710e166617ea570947f8a9734f5a9dffc91d3d461ef09f3e820a5b42926cbd90fcc24e204a5fecc OP_CHECKSIG",
            "desc": "pk(046b9561e6003cf9a33e0c6b9d8e1e3391c70eae1df9d5df357710e166617ea570947f8a9734f5a9dffc91d3d461ef09f3e820a5b42926cbd90fcc24e204a5fecc)#wpn47v03",
            "hex": "41046b9561e6003cf9a33e0c6b9d8e1e3391c70eae1df9d5df357710e166617ea570947f8a9734f5a9dffc91d3d461ef09f3e820a5b42926cbd90fcc24e204a5feccac",
            "type": "pubkey"
          }
        }
      ],
      "hex": "01000000010000000000000000000000000000000000000000000000000000000000000000ffffffff0804ffff001d021507ffffffff0100f2052a010000004341046b9561e6003cf9a33e0c6b9d8e1e3391c70eae1df9d5df357710e166617ea570947f8a9734f5a9dffc91d3d461ef09f3e820a5b42926cbd90fcc24e204a5feccac00000000"
    }
  ]
}