{
  "hash": "00000000605490ec02f48eb57c0e68403d75f2b16f0a49a2e1fa9f530d19171e",
  "confirmations": 45572,
  "height": 7526,
  "version": 1,
  "versionHex": "00000001",
  "merkleroot": "83ea0409bcae6157b21f0a880d561e8fdd94693c53ce6aaab3cfa28e889ebde1",
  "time": 1237116554,
  "mediantime": 1237112873,
  "nonce": 4227670792,
  "bits": "1d00ffff",
  "difficulty": 1,
  "chainwork": "00000000000000000000000000000000000000000000000000001d671d671d67",
  "nTx": 1,
  "previousblockhash": "0000000014294fe87ec41f84ceb3f2e84c7c1454d8f7512d99a614059d47c4c1",
  "nextblockhash": "00000000460acaf3de600a7a70cd266ca615190130b336bcf2804d9d5546d527",
  "strippedsize": 216,
  "size": 216,
  "weight": 864,
  "tx": [
    {
      "txid": "83ea0409bcae6157b21f0a880d561e8fdd94693c53ce6aaab3cfa28e889ebde1",
      "hash": "83ea0409bcae6157b21f0a880d561e8fdd94693c53ce6aaab3cfa28e889ebde1",
      "version": 1,
      "size": 135,
      "vsize": 135,
      "weight": 540,
      "locktime": 0,
      "vin": [
        {
          "coinbase": "04ffff001d026f01",
          "sequence": 4294967295
        }
      ],
      "vout": [
        {
          "value": 50.0,
          "n": 0,
          "scriptPubKey": {
            "asm": "0402b5c2175b606acbbb907367e296d48a357bea1a316af65d989d961058548e4ce22a3d5f80f41fe36946189a6a982eb52b84ada22ad5b6989e0a5425dde387e1 OP_CHECKSIG",
            "desc": "pk(0402b5c2175b606acbbb907367e296d48a357bea1a316af65d989d961058548e4ce22a3d5f80f41fe36946189a6a982eb52b84ada22ad5b6989e0a5425dde387e1)#f8clgsu9",
            "hex": "410402b5c2175b606acbbb907367e296d48a357bea1a316af65d989d961058548e4ce22a3d5f80f41fe36946189a6a982eb52b84ada22ad5b6989e0a5425dde387e1ac",
            "type": "pubkey"
          }
        }
      ],
      "hex": "01000000010000000000000000000000000000000000000000000000000000000000000000ffffffff0804ffff001d026f01ffffffff0100f2052a0100000043410402b5c2175b606acbbb907367e296d48a357bea1a316af65d989d961058548e4ce22a3d5f80f41fe36946189a6a982eb52b84ada22ad5b6989e0a5425dde387e1ac00000000"
    }
  ]
}