{
  "hash": "000000005695bd272704009b6a34cd94e96d7edac90aeb8f717687b1c89b76cb",
  "confirmations": 51625,
  "height": 1473,
  "version": 1,
  "versionHex": "00000001",
  "merkleroot": "798088c58f643d59db338804bee5905671b062787d5227bbf7fab19ae69a3a0c",
  "time": 1232756228,
  "mediantime": 1232754681,
  "nonce": 1534867975,
  "bits": "1d00ffff",
  "difficulty": 1,
  "chainwork": "000000000000000000000000000000000000000000000000000005c205c205c2",
  "nTx": 1,
  "previousblockhash": "0000000046474f6974d802f88eb1735d18ba82a5ffd3ce9f241ab77a964bf03d",
  "nextblockhash": "00000000a105efad7932483c4a82aea3ef3aaad1629d825dca80b78206a0b670",
  "strippedsize": 216,
  "size": 216,
  "weight": 864,
  "tx": [
    {
      "txid": "798088c58f643d59db338804bee5905671b062787d5227bbf7fab19ae69a3a0c",
      "hash": "798088c58f643d59db338804bee5905671b062787d5227bbf7fab19ae69a3a0c",
      "version": 1,
      "size": 135,
      "vsize": 135,
      "weight": 540,
      "locktime": 0,
      "vin": [
        {
          "coinbase": "04ffff001d02e300",
          "sequence": 4294967295
        }
      ],
      "vout": [
        {
          "value": 50.0,
          "n": 0,
          "scriptPubKey": {
            "asm": "040d14b899ee0736327042fabd850ec538125387e06fcda92e0095cf6067f733935232ffe689b8fff1541e6f5dc71105b46b8d87b86a07587ace73252ff40d57bd OP_CHECKSIG",
            "desc": "pk(040d14b899ee0736327042fabd850ec538125387e06fcda92e0095cf6067f733935232ffe689b8fff1541e6f5dc71105b46b8d87b86a07587ace73252ff40d57bd)#nzllyg7v",
            "hex": "41040d14b899ee0736327042fabd850ec538125387e06fcda92e0095cf6067f733935232ffe689b8fff1541e6f5dc71105b46b8d87b86a07587ace73252ff40d57bdac",
            "type": "pubkey"
          }
        }
      ],
      "hex": "01000000010000000000000000000000000000000000000000000000000000000000000000ffffffff0804ffff001d02e300ffffffff0100f2052a010000004341040d14b899ee0736327042fabd850ec538125387e06fcda92e0095cf6067f733935232ffe689b8fff1541e6f5dc71105b46b8d87b86a07587ace73252ff40d57bdac00000000"
    }
  ]
}