{
  "hash": "00000000ef2a79f17cf6627f0d7fef905e83bf6f6a64fc03b31dd5151c88852a",
  "confirmations": 44009,
  "height": 9089,
  "version": 1,
  "versionHex": "00000001",
  "merkleroot": "fc646b03beeacb9daab8fb169584cf337b9d3f595210343a86aabb960b12d0d2",
  "time": 1238324508,
  "mediantime": 1238320117,
  "nonce": 1856233479,
  "bits": "1d00ffff",
  "difficulty": 1,
  "chainwork": "0000000000000000000000000000000000000000000000000000238223822382",
  "nTx": 1,
  "previousblockhash": "00000000310390cfdbbc551e34176c9149fd1966ca6c6d15ebb9e15d26d01684",
  "nextblockhash": "0000000093ca40d39376432134ad4be3517f3143164761e16d09b3ffe6133014",
  "strippedsize": 216,
  "size": 216,
  "weight": 864,
  "tx": [
    {
      "txid": "fc646b03beeacb9daab8fb169584cf337b9d3f595210343a86aabb960b12d0d2",
      "hash": "fc646b03beeacb9daab8fb169584cf337b9d3f595210343a86aabb960b12d0d2",
      "version": 1,
      "size": 135,
      "vsize": 135,
      "weight": 540,
      "locktime": 0,
      "vin": [
        {
          "coinbase": "04ffff001d021b08",
          "sequence": 4294967295
        }
      ],
      "vout": [
        {
          "value": 50.0,
          "n": 0,
          "scriptPubKey": {
            "asm": "04f53a528270d46bd00ff10918d8c3d80415f14a1ceb699218137f1841d881e997730d55ffe3e46963be2f603a24d539ec75e8517cf903c4f1be462977bfbf0389 OP_CHECKSIG",
            "desc": "pk(04f53a528270d46bd00ff10918d8c3d80415f14a1ceb699218137f1841d881e997730d55ffe3e46963be2f603a24d539ec75e8517cf903c4f1be462977bfbf0389)#t3sqerkd",
            "hex": "4104f53a528270d46bd00ff10918d8c3d80415f14a1ceb699218137f1841d881e997730d55ffe3e46963be2f603a24d539ec75e8517cf903c4f1be462977bfbf0389ac",
            "type": "pubkey"
          }
        }
      ],
      "hex": "01000000010000000000000000000000000000000000000000000000000000000000000000ffffffff0804ffff001d021b08ffffffff0100f2052a01000000434104f53a528270d46bd00ff10918d8c3d80415f14a1ceb699218137f1841d881e997730d55ffe3e46963be2f603a24d539ec75e8517cf903c4f1be462977bfbf0389ac00000000"
    }
  ]
}