{
  "hash": "000000003c8c9523444786c2cace831aeacabb5d1302d20c68a5f6835b8aaf24",
  "confirmations": 44351,
  "height": 8747,
  "version": 1,
  "versionHex": "00000001",
  "merkleroot": "629062f6833f2509b22a841a89c626126d8df701f1c95be6034d1c1152d02d21",
  "time": 1238057278,
  "mediantime": 1238052500,
  "nonce": 1950839842,
  "bits": "1d00ffff",
  "difficulty": 1,
  "chainwork": "0000000000000000000000000000000000000000000000000000222c222c222c",
  "nTx": 1,
  "previousblockhash": "00000000305b43b45e877a84345d6ea17382b6087e1e5c3c7e3a280c2e24eb58",
  "nextblockhash": "0000000059eed08422d7b33151fb4fe2a9fbe2f5d7d1f46cf34413aa1f774225",
  "strippedsize": 216,
  "size": 216,
  "weight": 864,
  "tx": [
    {
      "txid": "629062f6833f2509b22a841a89c626126d8df701f1c95be6034d1c1152d02d21",
      "hash": "629062f6833f2509b22a841a89c626126d8df701f1c95be6034d1c1152d02d21",
      "version": 1,
      "size": 135,
      "vsize": 135,
      "weight": 540,
      "locktime": 0,
      "vin": [
        {
          "coinbase": "04ffff001d02b501",
          "sequence": 4294967295
        }
      ],
      "vout": [
        {
          "value": 50.0,
          "n": 0,
          "scriptPubKey": {
            "asm": "0419dae1f01c67d2f642246357077e12a5d8bb8a5bbdeb30472919f620c3fafef9cd9274878de745963e3197cd51e2900e787b72b1185f18c091fe46d71a7a3373 OP_CHECKSIG",
            "desc": "pk(0419dae1f01c67d2f642246357077e12a5d8bb8a5bbdeb30472919f620c3fafef9cd9274878de745963e3197cd51e2900e787b72b1185f18c091fe46d71a7a3373)#tudwjuny",
            "hex": "410419dae1f01c67d2f642246357077e12a5d8bb8a5bbdeb30472919f620c3fafef9cd9274878de745963e3197cd51e2900e787b72b1185f18c091fe46d71a7a3373ac",
            "type": "pubkey"
          }
        }
      ],
      "hex": "01000000010000000000000000000000000000000000000000000000000000000000000000ffffffff0804ffff001d02b501ffffffff0100f2052a0100000043410419dae1f01c67d2f642246357077e12a5d8bb8a5bbdeb30472919f620c3fafef9cd9274878de745963e3197cd51e2900e787b72b1185f18c091fe46d71a7a3373ac00000000"
    }
  ]
}