{
  "hash": "00000000d6aa1a94ff1f66e9952019063311367d79eec95e3c68b8dac12097b0",
  "confirmations": 50939,
  "height": 2159,
  "version": 1,
  "versionHex": "00000001",
  "merkleroot": "1929612d8e41b670a8ecc889de6f462c364ab12d105b1f4e3dd08c384901f38f",
  "time": 1233181411,
  "mediantime": 1233177935,
  "nonce": 703025413,
  "bits": "1d00ffff",
  "difficulty": 1,
  "chainwork": "0000000000000000000000000000000000000000000000000000087008700870",
  "nTx": 1,
  "previousblockhash": "00000000cd9ab29792ecf41dc8bc2a0524ac6c7566ea9fcc4d11147089ff59c4",
  "nextblockhash": "000000003d168fd8c0c91ce4d57d802b73da38d6d4620545f704b363e2b21ddd",
  "strippedsize": 216,
  "size": 216,
  "weight": 864,
  "tx": [
    {
      "txid": "1929612d8e41b670a8ecc889de6f462c364ab12d105b1f4e3dd08c384901f38f",
      "hash": "1929612d8e41b670a8ecc889de6f462c364ab12d105b1f4e3dd08c384901f38f",
      "version": 1,
      "size": 135,
      "vsize": 135,
      "weight": 540,
      "locktime": 0,
      "vin": [
        {
          "coinbase": "04ffff001d029300",
          "sequence": 4294967295
        }
      ],
      "vout": [
        {
          "value": 50.0,
          "n": 0,
          "scriptPubKey": {
            "asm": "04f6905c5d3565a0ebd7c46e3ce03def7f4bf94663a5b12ec64c62f7bf950ac869f50d402f1d2c751f695de3e2a0295bc733b45a51b3ce187a70fe0252e4564fda OP_CHECKSIG",
            "desc": "pk(04f6905c5d3565a0ebd7c46e3ce03def7f4bf94663a5b12ec64c62f7bf950ac869f50d402f1d2c751f695de3e2a0295bc733b45a51b3ce187a70fe0252e4564fda)#glh4zyzc",
            "hex": "4104f6905c5d3565a0ebd7c46e3ce03def7f4bf94663a5b12ec64c62f7bf950ac869f50d402f1d2c751f695de3e2a0295bc733b45a51b3ce187a70fe0252e4564fdaac",
            "type": "pubkey"
          }
        }
      ],
      "hex": "01000000010000000000000000000000000000000000000000000000000000000000000000ffffffff0804ffff001d029300ffffffff0100f2052a01000000434104f6905c5d3565a0ebd7c46e3ce03def7f4bf94663a5b12ec64c62f7bf950ac869f50d402f1d2c751f695de3e2a0295bc733b45a51b3ce187a70fe0252e4564fdaac00000000"
    }
  ]
}