{
  "hash": "000000009a2300cca22db628c1dbfdc2755b3c51e713357ceff6e838049f670c",
  "confirmations": 50001,
  "height": 3097,
  "version": 1,
  "versionHex": "00000001",
  "merkleroot": "67c203166dbdbb3019bacd54a5a32727dbb84d3ec3cb0480332ac6ef090ac67d",
  "time": 1233831876,
  "mediantime": 1233828263,
  "nonce": 563874872,
  "bits": "1d00ffff",
  "difficulty": 1,
  "chainwork": "00000000000000000000000000000000000000000000000000000c1a0c1a0c1a",
  "nTx": 1,
  "previousblockhash": "00000000f5e5e1b325b5a1b27c0cc3f13d52e33ffb513ace2cccc68291b01740",
  "nextblockhash": "00000000f398018f34f76cdcdb48385ce7739c2d182d402207c01e394e42023e",
  "strippedsize": 216,
  "size": 216,
  "weight": 864,
  "tx": [
    {
      "txid": "67c203166dbdbb3019bacd54a5a32727dbb84d3ec3cb0480332ac6ef090ac67d",
      "hash": "67c203166dbdbb3019bacd54a5a32727dbb84d3ec3cb0480332ac6ef090ac67d",
      "version": 1,
      "size": 135,
      "vsize": 135,
      "weight": 540,
      "locktime": 0,
      "vin": [
        {
          "coinbase": "04ffff001d022701",
          "sequence": 4294967295
        }
      ],
      "vout": [
        {
          "value": 50.0,
          "n": 0,
          "scriptPubKey": {
            "asm": "04d427dda539b6900a7cdade04ad7275ae64e046f956ee25473c2e7310246249fd0c2f96a8eb507610b155cb00142f3e54446955855ea7de2d80bb518b726f9fe7 OP_CHECKSIG",
            "desc": "pk(04d427dda539b6900a7cdade04ad7275ae64e046f956ee25473c2e7310246249fd0c2f96a8eb507610b155cb00142f3e54446955855ea7de2d80bb518b726f9fe7)#z7ygjp38",
            "hex": "4104d427dda539b6900a7cdade04ad7275ae64e046f956ee25473c2e7310246249fd0c2f96a8eb507610b155cb00142f3e54446955855ea7de2d80bb518b726f9fe7ac",
            "type": "pubkey"
          }
        }
      ],
      "hex": "01000000010000000000000000000000000000000000000000000000000000000000000000ffffffff0804ffff001d022701ffffffff0100f2052a01000000434104d427dda539b6900a7cdade04ad7275ae64e046f956ee25473c2e7310246249fd0c2f96a8eb507610b155cb00142f3e54446955855ea7de2d80bb518b726f9fe7ac00000000"
    }
  ]
}