{
  "hash": "00000000d19d25323ac06516ea4c42759f77a6a167b9a4e041f0951d198d9c00",
  "confirmations": 47794,
  "height": 5304,
  "version": 1,
  "versionHex": "00000001",
  "merkleroot": "06114f5fe593537daa89a926160afe5618a8f40005415f1711e8182fa2f31cf8",
  "time": 1235367134,
  "mediantime": 1235362403,
  "nonce": 1719936045,
  "bits": "1d00ffff",
  "difficulty": 1,
  "chainwork": "000000000000000000000000000000000000000000000000000014b914b914b9",
  "nTx": 1,
  "previousblockhash": "00000000da6d67ed610bcdecfa6b0c12c9d98ec1c97db998fd07fd4a241c04d5",
  "nextblockhash": "00000000fa155e9f3f5de38c6a599f45c636431e2da0d69dd5b74d496d16ebfc",
  "strippedsize": 216,
  "size": 216,
  "weight": 864,
  "tx": [
    {
      "txid": "06114f5fe593537daa89a926160afe5618a8f40005415f1711e8182fa2f31cf8",
      "hash": "06114f5fe593537daa89a926160afe5618a8f40005415f1711e8182fa2f31cf8",
      "version": 1,
      "size": 135,
      "vsize": 135,
      "weight": 540,
      "locktime": 0,
      "vin": [
        {
          "coinbase": "04ffff001d022602",
          "sequence": 4294967295
        }
      ],
      "vout": [
        {
          "value": 50.0,
          "n": 0,
          "scriptPubKey": {
            "asm": "041a9f54e4530468bcbebd0d8da91e721291b70cae3908644f32187914fc19866d5e70523adb211396a450a89e3546c03279cbf8d76e6369cc1b52b8a184669e95 OP_CHECKSIG",
            "desc": "pk(041a9f54e4530468bcbebd0d8da91e721291b70cae3908644f32187914fc19866d5e70523adb211396a450a89e3546c03279cbf8d76e6369cc1b52b8a184669e95)#4gfk844j",
            "hex": "41041a9f54e4530468bcbebd0d8da91e721291b70cae3908644f32187914fc19866d5e70523adb211396a450a89e3546c03279cbf8d76e6369cc1b52b8a184669e95ac",
            "type": "pubkey"
          }
        }
      ],
      "hex": "01000000010000000000000000000000000000000000000000000000000000000000000000ffffffff0804ffff001d022602ffffffff0100f2052a010000004341041a9f54e4530468bcbebd0d8da91e721291b70cae3908644f32187914fc19866d5e70523adb211396a450a89e3546c03279cbf8d76e6369cc1b52b8a184669e95ac00000000"
    }
  ]
}