{
  "hash": "0000000015263e10c6ef50185bc1dc6f14138ec5eaefad6c92aa3216ff2d66c4",
  "confirmations": 47987,
  "height": 5111,
  "version": 1,
  "versionHex": "00000001",
  "merkleroot": "f3caa66894081b1daf7e49ea5f5579d25348aa45670805bc785cc435f842d11b",
  "time": 1235224884,
  "mediantime": 1235221798,
  "nonce": 4213301557,
  "bits": "1d00ffff",
  "difficulty": 1,
  "chainwork": "000000000000000000000000000000000000000000000000000013f813f813f8",
  "nTx": 1,
  "previousblockhash": "00000000a5e106d920da5d4037ed5f923753ccebc5e3eed3864edd95bcc1d6cf",
  "nextblockhash": "00000000640502947f5709f8ef1fea4abf85a1708773bde51c70c0bb7342abdc",
  "strippedsize": 216,
  "size": 216,
  "weight": 864,
  "tx": [
    {
      "txid": "f3caa66894081b1daf7e49ea5f5579d25348aa45670805bc785cc435f842d11b",
      "hash": "f3caa66894081b1daf7e49ea5f5579d25348aa45670805bc785cc435f842d11b",
      "version": 1,
      "size": 135,
      "vsize": 135,
      "weight": 540,
      "locktime": 0,
      "vin": [
        {
          "coinbase": "04ffff001d022f09",
          "sequence": 4294967295
        }
      ],
      "vout": [
        {
          "value": 50.0,
          "n": 0,
          "scriptPubKey": {
            "asm": "04f9da6b473bffd1ee7ee62556d3a841211198a4dc90edd34a4d32c62653223e72c78591fd838c11e89f0edd8e8a946612c7efc83b99a4ebd046387bfa1e8ac5f1 OP_CHECKSIG",
            "desc": "pk(04f9da6b473bffd1ee7ee62556d3a841211198a4dc90edd34a4d32c62653223e72c78591fd838c11e89f0edd8e8a946612c7efc83b99a4ebd046387bfa1e8ac5f1)#42w9fd2l",
            "hex": "4104f9da6b473bffd1ee7ee62556d3a841211198a4dc90edd34a4d32c62653223e72c78591fd838c11e89f0edd8e8a946612c7efc83b99a4ebd046387bfa1e8ac5f1ac",
            "type": "pubkey"
          }
        }
      ],
      "hex": "01000000010000000000000000000000000000000000000000000000000000000000000000ffffffff0804ffff001d022f09ffffffff0100f2052a01000000434104f9da6b473bffd1ee7ee62556d3a841211198a4dc90edd34a4d32c62653223e72c78591fd838c11e89f0edd8e8a946612c7efc83b99a4ebd046387bfa1e8ac5f1ac00000000"
    }
  ]
}