{
  "hash": "000000009d54d0c7f7c2a96a988cf35988a5adae1897daa7e23ae4cbf4d452aa",
  "confirmations": 49181,
  "height": 3917,
  "version": 1,
  "versionHex": "00000001",
  "merkleroot": "879cacedb6d92a7067e1dd494ccf511ceff8e829a00ab69bbd55180632c2a2c8",
  "time": 1234384265,
  "mediantime": 1234378508,
  "nonce": 256418864,
  "bits": "1d00ffff",
  "difficulty": 1,
  "chainwork": "00000000000000000000000000000000000000000000000000000f4e0f4e0f4e",
  "nTx": 1,
  "previousblockhash": "0000000014ecc942f416a118e91712e1280a73b00f669a6451fe5a91845e77d0",
  "nextblockhash": "000000008500b119a761cef8c6ceebf56332f6ea403b0d43bbec74ddf53e4016",
  "strippedsize": 216,
  "size": 216,
  "weight": 864,
  "tx": [
    {
      "txid": "879cacedb6d92a7067e1dd494ccf511ceff8e829a00ab69bbd55180632c2a2c8",
      "hash": "879cacedb6d92a7067e1dd494ccf511ceff8e829a00ab69bbd55180632c2a2c8",
      "version": 1,
      "size": 135,
      "vsize": 135,
      "weight": 540,
      "locktime": 0,
      "vin": [
        {
          "coinbase": "04ffff001d021403",
          "sequence": 4294967295
        }
      ],
      "vout": [
        {
          "value": 50.0,
          "n": 0,
          "scriptPubKey": {
            "asm": "04f47c55956010364a10e956096f6bce3b08fa5246465ae1bc1283ff9f5f5316d0325cbafbf9e429d10fcc71130a3222e51ccb6bfcf55ccdb763da48a264368cb7 OP_CHECKSIG",
            "desc": "pk(04f47c55956010364a10e956096f6bce3b08fa5246465ae1bc1283ff9f5f5316d0325cbafbf9e429d10fcc71130a3222e51ccb6bfcf55ccdb763da48a264368cb7)#knhau4vr",
            "hex": "4104f47c55956010364a10e956096f6bce3b08fa5246465ae1bc1283ff9f5f5316d0325cbafbf9e429d10fcc71130a3222e51ccb6bfcf55ccdb763da48a264368cb7ac",
            "type": "pubkey"
          }
        }
      ],
      "hex": "01000000010000000000000000000000000000000000000000000000000000000000000000ffffffff0804ffff001d021403ffffffff0100f2052a01000000434104f47c55956010364a10e956096f6bce3b08fa5246465ae1bc1283ff9f5f5316d0325cbafbf9e429d10fcc71130a3222e51ccb6bfcf55ccdb763da48a264368cb7ac00000000"
    }
  ]
}