{
  "hash": "0000000053a3118668459bbae5707b06702966d5100c9c96a9dfcfd2476f32ed",
  "confirmations": 46790,
  "height": 6308,
  "version": 1,
  "versionHex": "00000001",
  "merkleroot": "8321b3217bed8d092b99b28fce8df5ac967725773ed9f554d555142d0df1aaa4",
  "time": 1236178199,
  "mediantime": 1236175313,
  "nonce": 2433560624,
  "bits": "1d00ffff",
  "difficulty": 1,
  "chainwork": "000000000000000000000000000000000000000000000000000018a518a518a5",
  "nTx": 1,
  "previousblockhash": "000000001a0f24c25c6192f7be8c9a0955a1d645c948c0bc47adbbaebcd754bb",
  "nextblockhash": "00000000bb40a23fb280ea5366272d4b6b2f60c80bda840e5517e34f4a797eab",
  "strippedsize": 215,
  "size": 215,
  "weight": 860,
  "tx": [
    {
      "txid": "8321b3217bed8d092b99b28fce8df5ac967725773ed9f554d555142d0df1aaa4",
      "hash": "8321b3217bed8d092b99b28fce8df5ac967725773ed9f554d555142d0df1aaa4",
      "version": 1,
      "size": 134,
      "vsize": 134,
      "weight": 536,
      "locktime": 0,
      "vin": [
        {
          "coinbase": "04ffff001d0146",
          "sequence": 4294967295
        }
      ],
      "vout": [
        {
          "value": 50.0,
          "n": 0,
          "scriptPubKey": {
            "asm": "04ca2a68a9fb7a5408f05c7643bc17d66b93041e2d7e6324ef70d709d62251fe054c1b4fca8c726212182e95c643e0758466ff93e6a8367be047dd3fc6a2dd7117 OP_CHECKSIG",
            "desc": "pk(04ca2a68a9fb7a5408f05c7643bc17d66b93041e2d7e6324ef70d709d62251fe054c1b4fca8c726212182e95c643e0758466ff93e6a8367be047dd3fc6a2dd7117)#arc3uch4",
            "hex": "4104ca2a68a9fb7a5408f05c7643bc17d66b93041e2d7e6324ef70d709d62251fe054c1b4fca8c726212182e95c643e0758466ff93e6a8367be047dd3fc6a2dd7117ac",
            "type": "pubkey"
          }
        }
      ],
      "hex": "01000000010000000000000000000000000000000000000000000000000000000000000000ffffffff0704ffff001d0146ffffffff0100f2052a01000000434104ca2a68a9fb7a5408f05c7643bc17d66b93041e2d7e6324ef70d709d62251fe054c1b4fca8c726212182e95c643e0758466ff93e6a8367be047dd3fc6a2dd7117ac00000000"
    }
  ]
}