{
  "hash": "00000000973b14cc39260f83861f399d419128b4a15e40c60465741c2d1d78fe",
  "confirmations": 46603,
  "height": 6495,
  "version": 1,
  "versionHex": "00000001",
  "merkleroot": "786d71a1ffcca61b7d3b7e4d81a60f8f6cdf31be4334b2d10b96866975d93f0b",
  "time": 1236327372,
  "mediantime": 1236321952,
  "nonce": 1647682096,
  "bits": "1d00ffff",
  "difficulty": 1,
  "chainwork": "0000000000000000000000000000000000000000000000000000196019601960",
  "nTx": 1,
  "previousblockhash": "000000004071ae39074040d4a302d96f61c45a0d38b6d5c5a7f4618aaa9e28c5",
  "nextblockhash": "0000000098a1606801259815d3c8e24680d91a597b8fb724e7a79e1db22b46c6",
  "strippedsize": 216,
  "size": 216,
  "weight": 864,
  "tx": [
    {
      "txid": "786d71a1ffcca61b7d3b7e4d81a60f8f6cdf31be4334b2d10b96866975d93f0b",
      "hash": "786d71a1ffcca61b7d3b7e4d81a60f8f6cdf31be4334b2d10b96866975d93f0b",
      "version": 1,
      "size": 135,
      "vsize": 135,
      "weight": 540,
      "locktime": 0,
      "vin": [
        {
          "coinbase": "04ffff001d029203",
          "sequence": 4294967295
        }
      ],
      "vout": [
        {
          "value": 50.0,
          "n": 0,
          "scriptPubKey": {
            "asm": "04a9ed54b21851071722dec801af063509eb2e2f6051f9c548e603612fc4941cd30bcbc0bc30a955a8d81d529b6132634e29df54d1ebba77d41d7593464ed8a7d1 OP_CHECKSIG",
            "desc": "pk(04a9ed54b21851071722dec801af063509eb2e2f6051f9c548e603612fc4941cd30bcbc0bc30a955a8d81d529b6132634e29df54d1ebba77d41d7593464ed8a7d1)#0xf7u2l6",
            "hex": "4104a9ed54b21851071722dec801af063509eb2e2f6051f9c548e603612fc4941cd30bcbc0bc30a955a8d81d529b6132634e29df54d1ebba77d41d7593464ed8a7d1ac",
            "type": "pubkey"
          }
        }
      ],
      "hex": "01000000010000000000000000000000000000000000000000000000000000000000000000ffffffff0804ffff001d029203ffffffff0100f2052a01000000434104a9ed54b21851071722dec801af063509eb2e2f6051f9c548e603612fc4941cd30bcbc0bc30a955a8d81d529b6132634e29df54d1ebba77d41d7593464ed8a7d1ac00000000"
    }
  ]
}