{
  "hash": "00000000dc9198f0e49f7af2f4d78c935dd3f4523d9a88d1c938bdd448337edc",
  "confirmations": 52152,
  "height": 946,
  "version": 1,
  "versionHex": "00000001",
  "merkleroot": "a00f4d652e2b58c6ba0a274c09d47b10a36ce3d8dce449ce850db86d1da82923",
  "time": 1232309875,
  "mediantime": 1232307189,
  "nonce": 3466910756,
  "bits": "1d00ffff",
  "difficulty": 1,
  "chainwork": "000000000000000000000000000000000000000000000000000003b303b303b3",
  "nTx": 1,
  "previousblockhash": "000000002ca3ef739f7e4769c44c29541b6796d5126c2fb7336a2a0add11dfd9",
  "nextblockhash": "0000000052e8defdf229e53f422755f9c4a9a9f031d8caad0fb64f285ad186f6",
  "strippedsize": 216,
  "size": 216,
  "weight": 864,
  "tx": [
    {
      "txid": "a00f4d652e2b58c6ba0a274c09d47b10a36ce3d8dce449ce850db86d1da82923",
      "hash": "a00f4d652e2b58c6ba0a274c09d47b10a36ce3d8dce449ce850db86d1da82923",
      "version": 1,
      "size": 135,
      "vsize": 135,
      "weight": 540,
      "locktime": 0,
      "vin": [
        {
          "coinbase": "04ffff001d024904",
          "sequence": 4294967295
        }
      ],
      "vout": [
        {
          "value": 50.0,
          "n": 0,
          "scriptPubKey": {
            "asm": "04fddc4d9a9788d14d8bb8d4461a003893cdc459b1b1f15a7a1ee9c287d2cbc6b08771faae7f3865955f5d4e19ae5759e1f4172f3b9d9d385c01dbc31255d4014b OP_CHECKSIG",
            "desc": "pk(04fddc4d9a9788d14d8bb8d4461a003893cdc459b1b1f15a7a1ee9c287d2cbc6b08771faae7f3865955f5d4e19ae5759e1f4172f3b9d9d385c01dbc31255d4014b)#umgeueh3",
            "hex": "4104fddc4d9a9788d14d8bb8d4461a003893cdc459b1b1f15a7a1ee9c287d2cbc6b08771faae7f3865955f5d4e19ae5759e1f4172f3b9d9d385c01dbc31255d4014bac",
            "type": "pubkey"
          }
        }
      ],
      "hex": "01000000010000000000000000000000000000000000000000000000000000000000000000ffffffff0804ffff001d024904ffffffff0100f2052a01000000434104fddc4d9a9788d14d8bb8d4461a003893cdc459b1b1f15a7a1ee9c287d2cbc6b08771faae7f3865955f5d4e19ae5759e1f4172f3b9d9d385c01dbc31255d4014bac00000000"
    }
  ]
}