{
  "hash": "000000008713c3890641b1944c152c9e0cec0ad58c297a3897181d2e00397a0e",
  "confirmations": 48985,
  "height": 4113,
  "version": 1,
  "versionHex": "00000001",
  "merkleroot": "c5647a461d21832153da851e740038686957f7b6dfa879482a1fb3bb3f49e595",
  "time": 1234522872,
  "mediantime": 1234519800,
  "nonce": 49480128,
  "bits": "1d00ffff",
  "difficulty": 1,
  "chainwork": "0000000000000000000000000000000000000000000000000000101210121012",
  "nTx": 1,
  "previousblockhash": "00000000365489a679ff9062ce98720370884730a70900df577e1bd62a6c62a7",
  "nextblockhash": "00000000b3b2cf9c17d1b1ecc6fd6e3d3ee4561f849ec0edfd12edab5bba9341",
  "strippedsize": 215,
  "size": 215,
  "weight": 860,
  "tx": [
    {
      "txid": "c5647a461d21832153da851e740038686957f7b6dfa879482a1fb3bb3f49e595",
      "hash": "c5647a461d21832153da851e740038686957f7b6dfa879482a1fb3bb3f49e595",
      "version": 1,
      "size": 134,
      "vsize": 134,
      "weight": 536,
      "locktime": 0,
      "vin": [
        {
          "coinbase": "04ffff001d0137",
          "sequence": 4294967295
        }
      ],
      "vout": [
        {
          "value": 50.0,
          "n": 0,
          "scriptPubKey": {
            "asm": "04978f48d82c8820799927d1a869b5f638af142233af7ccb5c23f0fa7ec180624498f926c661ca9a2f5a91c8a900248425e0108beb67438bd42fc59088d2476ed6 OP_CHECKSIG",
            "desc": "pk(04978f48d82c8820799927d1a869b5f638af142233af7ccb5c23f0fa7ec180624498f926c661ca9a2f5a91c8a900248425e0108beb67438bd42fc59088d2476ed6)#um26ycqk",
            "hex": "4104978f48d82c8820799927d1a869b5f638af142233af7ccb5c23f0fa7ec180624498f926c661ca9a2f5a91c8a900248425e0108beb67438bd42fc59088d2476ed6ac",
            "type": "pubkey"
          }
        }
      ],
      "hex": "01000000010000000000000000000000000000000000000000000000000000000000000000ffffffff0704ffff001d0137ffffffff0100f2052a01000000434104978f48d82c8820799927d1a869b5f638af142233af7ccb5c23f0fa7ec180624498f926c661ca9a2f5a91c8a900248425e0108beb67438bd42fc59088d2476ed6ac00000000"
    }
  ]
}