{
  "hash": "00000000bed974f3058cf13c37ac33cc0d7eadee687304536e9d1422cb697db5",
  "confirmations": 45748,
  "height": 7350,
  "version": 1,
  "versionHex": "00000001",
  "merkleroot": "2cb7780b5804e76df8a9c18a65989d006fb512c8e029fbb1419d96a6f556936d",
  "time": 1236983795,
  "mediantime": 1236979937,
  "nonce": 95452461,
  "bits": "1d00ffff",
  "difficulty": 1,
  "chainwork": "00000000000000000000000000000000000000000000000000001cb71cb71cb7",
  "nTx": 1,
  "previousblockhash": "00000000df7167cd8ffc5e5749f130bd3bc13a812840db1ff767971ecbfa3e93",
  "nextblockhash": "0000000076825dbf5a525d8fab9a7477b76c062ecd2aa9b35fbe3b987a4890e0",
  "strippedsize": 216,
  "size": 216,
  "weight": 864,
  "tx": [
    {
      "txid": "2cb7780b5804e76df8a9c18a65989d006fb512c8e029fbb1419d96a6f556936d",
      "hash": "2cb7780b5804e76df8a9c18a65989d006fb512c8e029fbb1419d96a6f556936d",
      "version": 1,
      "size": 135,
      "vsize": 135,
      "weight": 540,
      "locktime": 0,
      "vin": [
        {
          "coinbase": "04ffff001d027e08",
          "sequence": 4294967295
        }
      ],
      "vout": [
        {
          "value": 50.0,
          "n": 0,
          "scriptPubKey": {
            "asm": "04a931a3b6190b58ecb518e6129c6795758859f556f15d7703d37cf3b5c31174f2d2619bf5e689b7c2ce6efc16c3d37b745f81feddc6325fd81091b3900a428dd5 OP_CHECKSIG",
            "desc": "pk(04a931a3b6190b58ecb518e6129c6795758859f556f15d7703d37cf3b5c31174f2d2619bf5e689b7c2ce6efc16c3d37b745f81feddc6325fd81091b3900a428dd5)#6g5f80g6",
            "hex": "4104a931a3b6190b58ecb518e6129c6795758859f556f15d7703d37cf3b5c31174f2d2619bf5e689b7c2ce6efc16c3d37b745f81feddc6325fd81091b3900a428dd5ac",
            "type": "pubkey"
          }
        }
      ],
      "hex": "01000000010000000000000000000000000000000000000000000000000000000000000000ffffffff0804ffff001d027e08ffffffff0100f2052a01000000434104a931a3b6190b58ecb518e6129c6795758859f556f15d7703d37cf3b5c31174f2d2619bf5e689b7c2ce6efc16c3d37b745f81feddc6325fd81091b3900a428dd5ac00000000"
    }
  ]
}