{
  "hash": "00000000d25fe039786e03cee53399b5b30b58d6baa8262cf0afc373a25001c6",
  "confirmations": 43981,
  "height": 9117,
  "version": 1,
  "versionHex": "00000001",
  "merkleroot": "726d3367d6ae6e54dba85256d56ece082d70c4ccb3c1d992389d45c3589383c3",
  "time": 1238341685,
  "mediantime": 1238338538,
  "nonce": 13084348,
  "bits": "1d00ffff",
  "difficulty": 1,
  "chainwork": "0000000000000000000000000000000000000000000000000000239e239e239e",
  "nTx": 1,
  "previousblockhash": "00000000e5bd16bca68d5226199208569c78fd941e836e72280809d5e9aeef57",
  "nextblockhash": "00000000b87c684ff1b276a2229185173d0d3ddefc3a362a70916d6ab1e5696d",
  "strippedsize": 215,
  "size": 215,
  "weight": 860,
  "tx": [
    {
      "txid": "726d3367d6ae6e54dba85256d56ece082d70c4ccb3c1d992389d45c3589383c3",
      "hash": "726d3367d6ae6e54dba85256d56ece082d70c4ccb3c1d992389d45c3589383c3",
      "version": 1,
      "size": 134,
      "vsize": 134,
      "weight": 536,
      "locktime": 0,
      "vin": [
        {
          "coinbase": "04ffff001d016d",
          "sequence": 4294967295
        }
      ],
      "vout": [
        {
          "value": 50.0,
          "n": 0,
          "scriptPubKey": {
            "asm": "04cd9ef9952994ca9cf5afdac300e6f50f365e985930520972ecdf06d2da09c2b15ce01b3135ee7baefd17a847b8d3089f40d874ddc46734de2f17e2d9ed20a1e1 OP_CHECKSIG",
            "desc": "pk(04cd9ef9952994ca9cf5afdac300e6f50f365e985930520972ecdf06d2da09c2b15ce01b3135ee7baefd17a847b8d3089f40d874ddc46734de2f17e2d9ed20a1e1)#v7wm0980",
            "hex": "4104cd9ef9952994ca9cf5afdac300e6f50f365e985930520972ecdf06d2da09c2b15ce01b3135ee7baefd17a847b8d3089f40d874ddc46734de2f17e2d9ed20a1e1ac",
            "type": "pubkey"
          }
        }
      ],
      "hex": "01000000010000000000000000000000000000000000000000000000000000000000000000ffffffff0704ffff001d016dffffffff0100f2052a01000000434104cd9ef9952994ca9cf5afdac300e6f50f365e985930520972ecdf06d2da09c2b15ce01b3135ee7baefd17a847b8d3089f40d874ddc46734de2f17e2d9ed20a1e1ac00000000"
    }
  ]
}