{
  "hash": "00000000d36383f2c2fc24f6fd45b48dc171da5d5c6f285a43ea637b2f235acb",
  "confirmations": 49986,
  "height": 3112,
  "version": 1,
  "versionHex": "00000001",
  "merkleroot": "4657f3c95a389dd4f5ab29376a64429f0641fa7befcf36b6fe6b8e671cb7c51c",
  "time": 1233844268,
  "mediantime": 1233839832,
  "nonce": 437498659,
  "bits": "1d00ffff",
  "difficulty": 1,
  "chainwork": "00000000000000000000000000000000000000000000000000000c290c290c29",
  "nTx": 1,
  "previousblockhash": "000000003f8cb6e7f27e15898b7b60bb3a7f315ac224ed918ba5f40273b59581",
  "nextblockhash": "000000001041a6f4076d4f5b0cc6d4a78028dce7711b0df42daa08703ace9427",
  "strippedsize": 216,
  "size": 216,
  "weight": 864,
  "tx": [
    {
      "txid": "4657f3c95a389dd4f5ab29376a64429f0641fa7befcf36b6fe6b8e671cb7c51c",
      "hash": "4657f3c95a389dd4f5ab29376a64429f0641fa7befcf36b6fe6b8e671cb7c51c",
      "version": 1,
      "size": 135,
      "vsize": 135,
      "weight": 540,
      "locktime": 0,
      "vin": [
        {
          "coinbase": "04ffff001d026001",
          "sequence": 4294967295
        }
      ],
      "vout": [
        {
          "value": 50.0,
          "n": 0,
          "scriptPubKey": {
            "asm": "04b15c3a51f85fc04fe64919e8265f3d618f2153cf86d17bdaa4ac1f5416dfa93e0735a2c7f5736d8f79c15ca8ba58acbe331fe6293903a1051b6e281840c170ce OP_CHECKSIG",
            "desc": "pk(04b15c3a51f85fc04fe64919e8265f3d618f2153cf86d17bdaa4ac1f5416dfa93e0735a2c7f5736d8f79c15ca8ba58acbe331fe6293903a1051b6e281840c170ce)#4xw4mj8j",
            "hex": "4104b15c3a51f85fc04fe64919e8265f3d618f2153cf86d17bdaa4ac1f5416dfa93e0735a2c7f5736d8f79c15ca8ba58acbe331fe6293903a1051b6e281840c170ceac",
            "type": "pubkey"
          }
        }
      ],
      "hex": "01000000010000000000000000000000000000000000000000000000000000000000000000ffffffff0804ffff001d026001ffffffff0100f2052a01000000434104b15c3a51f85fc04fe64919e8265f3d618f2153cf86d17bdaa4ac1f5416dfa93e0735a2c7f5736d8f79c15ca8ba58acbe331fe6293903a1051b6e281840c170ceac00000000"
    }
  ]
}