{
  "hash": "00000000291d1e9992b6fb0950aa42ee916e11c7342c0532dfc996dbc927b3a2",
  "confirmations": 43265,
  "height": 9833,
  "version": 1,
  "versionHex": "00000001",
  "merkleroot": "2b74c9b1742ac5a99d7b831c7e0dc834ca39c28978e529152547f6fa7111177a",
  "time": 1238878880,
  "mediantime": 1238875687,
  "nonce": 1583900215,
  "bits": "1d00ffff",
  "difficulty": 1,
  "chainwork": "0000000000000000000000000000000000000000000000000000266a266a266a",
  "nTx": 1,
  "previousblockhash": "00000000a17bc7e51b85d43b8dbc06f6cd575f94d0050ad3d5c4d3f6cecc88d7",
  "nextblockhash": "0000000019ec79c49298f0178eece3ea02d5d62ce4781b5679524c8f855de1ae",
  "strippedsize": 216,
  "size": 216,
  "weight": 864,
  "tx": [
    {
      "txid": "2b74c9b1742ac5a99d7b831c7e0dc834ca39c28978e529152547f6fa7111177a",
      "hash": "2b74c9b1742ac5a99d7b831c7e0dc834ca39c28978e529152547f6fa7111177a",
      "version": 1,
      "size": 135,
      "vsize": 135,
      "weight": 540,
      "locktime": 0,
      "vin": [
        {
          "coinbase": "04ffff001d02fa00",
          "sequence": 4294967295
        }
      ],
      "vout": [
        {
          "value": 50.0,
          "n": 0,
          "scriptPubKey": {
            "asm": "04021f545d3f4322d1ef8851bdcacd8c8278c80bfd43ce9a5f5e9b711b76ffc8b521a6a7574b8c0c58a941bb4179d660973169968920648d5b68431d8dd91708ab OP_CHECKSIG",
            "desc": "pk(04021f545d3f4322d1ef8851bdcacd8c8278c80bfd43ce9a5f5e9b711b76ffc8b521a6a7574b8c0c58a941bb4179d660973169968920648d5b68431d8dd91708ab)#ukcde5jh",
            "hex": "4104021f545d3f4322d1ef8851bdcacd8c8278c80bfd43ce9a5f5e9b711b76ffc8b521a6a7574b8c0c58a941bb4179d660973169968920648d5b68431d8dd91708abac",
            "type": "pubkey"
          }
        }
      ],
      "hex": "01000000010000000000000000000000000000000000000000000000000000000000000000ffffffff0804ffff001d02fa00ffffffff0100f2052a01000000434104021f545d3f4322d1ef8851bdcacd8c8278c80bfd43ce9a5f5e9b711b76ffc8b521a6a7574b8c0c58a941bb4179d660973169968920648d5b68431d8dd91708abac00000000"
    }
  ]
}