{
  "hash": "00000000cd67e465a7dc7d6a61165a5920364fb1b4a4219fe9eb7762852ac2de",
  "confirmations": 47627,
  "height": 5471,
  "version": 1,
  "versionHex": "00000001",
  "merkleroot": "37e8b69036ebdafa22695528c9961b265b071be8d5814761178b276c151edd3f",
  "time": 1235498127,
  "mediantime": 1235495251,
  "nonce": 2298559287,
  "bits": "1d00ffff",
  "difficulty": 1,
  "chainwork": "0000000000000000000000000000000000000000000000000000156015601560",
  "nTx": 1,
  "previousblockhash": "0000000012edd696c437386ce5b18705914c083f1633720b390f43bf2235c7ff",
  "nextblockhash": "000000009fe858ee32bb0b9f98507080ae5938a41769b425e37d0038c4f412f8",
  "strippedsize": 216,
  "size": 216,
  "weight": 864,
  "tx": [
    {
      "txid": "37e8b69036ebdafa22695528c9961b265b071be8d5814761178b276c151edd3f",
      "hash": "37e8b69036ebdafa22695528c9961b265b071be8d5814761178b276c151edd3f",
      "version": 1,
      "size": 135,
      "vsize": 135,
      "weight": 540,
      "locktime": 0,
      "vin": [
        {
          "coinbase": "04ffff001d021705",
          "sequence": 4294967295
        }
      ],
      "vout": [
        {
          "value": 50.0,
          "n": 0,
          "scriptPubKey": {
            "asm": "04c2b8ab37cd86910d756fa3caa40d5d7d7d6de1eb9f2277d2d24dfa91a82b684ccb44eb6e47ea6a16adc9ca8418bdad1ca7dd233a24acd9c933c894cbcceeaf21 OP_CHECKSIG",
            "desc": "pk(04c2b8ab37cd86910d756fa3caa40d5d7d7d6de1eb9f2277d2d24dfa91a82b684ccb44eb6e47ea6a16adc9ca8418bdad1ca7dd233a24acd9c933c894cbcceeaf21)#z8cjrmzf",
            "hex": "4104c2b8ab37cd86910d756fa3caa40d5d7d7d6de1eb9f2277d2d24dfa91a82b684ccb44eb6e47ea6a16adc9ca8418bdad1ca7dd233a24acd9c933c894cbcceeaf21ac",
            "type": "pubkey"
          }
        }
      ],
      "hex": "01000000010000000000000000000000000000000000000000000000000000000000000000ffffffff0804ffff001d021705ffffffff0100f2052a01000000434104c2b8ab37cd86910d756fa3caa40d5d7d7d6de1eb9f2277d2d24dfa91a82b684ccb44eb6e47ea6a16adc9ca8418bdad1ca7dd233a24acd9c933c894cbcceeaf21ac00000000"
    }
  ]
}