{
  "hash": "000000007f7ce860da89da06f2c78d489a21d61557bf89549d016afcb6c31d54",
  "confirmations": 52185,
  "height": 436,
  "version": 1,
  "versionHex": "00000001",
  "merkleroot": "4f70d8fc8f818d29ea962626192f4a7a09a114ce7806db4a3388cf63b7d8cb90",
  "time": 1231926247,
  "mediantime": 1231923141,
  "nonce": 2468274987,
  "bits": "1d00ffff",
  "difficulty": 1,
  "chainwork": "000000000000000000000000000000000000000000000000000001b501b501b5",
  "nTx": 1,
  "previousblockhash": "00000000d3c23d217f8c90d7a7dc037e71cd425a2fd1f4184b97a96f45b8b52c",
  "nextblockhash": "0000000058f437720be706c70fd716ceb07110ea74402c9921b093815ad685d7",
  "strippedsize": 216,
  "size": 216,
  "weight": 864,
  "tx": [
    {
      "txid": "4f70d8fc8f818d29ea962626192f4a7a09a114ce7806db4a3388cf63b7d8cb90",
      "hash": "4f70d8fc8f818d29ea962626192f4a7a09a114ce7806db4a3388cf63b7d8cb90",
      "version": 1,
      "size": 135,
      "vsize": 135,
      "weight": 540,
      "locktime": 0,
      "vin": [
        {
          "coinbase": "04ffff001d025b03",
          "sequence": 4294967295
        }
      ],
      "vout": [
        {
          "value": 50.0,
          "n": 0,
          "scriptPubKey": {
            "asm": "046f2100917c38a97da51ce4f08e175ee669a8fc06e8da2df58333750b1d1ab3b7313c2c599890d84e8a6dd5e84bcab1bebd7659f5460b4e97464fc69f8e932e7a OP_CHECKSIG",
            "desc": "pk(046f2100917c38a97da51ce4f08e175ee669a8fc06e8da2df58333750b1d1ab3b7313c2c599890d84e8a6dd5e84bcab1bebd7659f5460b4e97464fc69f8e932e7a)#qpmvu3w6",
            "hex": "41046f2100917c38a97da51ce4f08e175ee669a8fc06e8da2df58333750b1d1ab3b7313c2c599890d84e8a6dd5e84bcab1bebd7659f5460b4e97464fc69f8e932e7aac",
            "type": "pubkey"
          }
        }
      ],
      "hex": "01000000010000000000000000000000000000000000000000000000000000000000000000ffffffff0804ffff001d025b03ffffffff0100f2052a010000004341046f2100917c38a97da51ce4f08e175ee669a8fc06e8da2df58333750b1d1ab3b7313c2c599890d84e8a6dd5e84bcab1bebd7659f5460b4e97464fc69f8e932e7aac00000000"
    }
  ]
}