{
  "hash": "0000000058197df434945471366440107c15798d71519d1133736d949ccdf3a0",
  "confirmations": 45336,
  "height": 7762,
  "version": 1,
  "versionHex": "00000001",
  "merkleroot": "b1dffa5cf36a087edfc76613db2f014e65bc3b48ac9c52105671fcfcde42d40d",
  "time": 1237285593,
  "mediantime": 1237280798,
  "nonce": 2451324193,
  "bits": "1d00ffff",
  "difficulty": 1,
  "chainwork": "00000000000000000000000000000000000000000000000000001e531e531e53",
  "nTx": 1,
  "previousblockhash": "00000000d77149f69074b1e70233b2ed29f9d5579229ba03f6daaa290d2fd227",
  "nextblockhash": "0000000045644e30e3239267977eb894cde87977781e3d401c5baafbc3edc263",
  "strippedsize": 216,
  "size": 216,
  "weight": 864,
  "tx": [
    {
      "txid": "b1dffa5cf36a087edfc76613db2f014e65bc3b48ac9c52105671fcfcde42d40d",
      "hash": "b1dffa5cf36a087edfc76613db2f014e65bc3b48ac9c52105671fcfcde42d40d",
      "version": 1,
      "size": 135,
      "vsize": 135,
      "weight": 540,
      "locktime": 0,
      "vin": [
        {
          "coinbase": "04ffff001d022a05",
          "sequence": 4294967295
        }
      ],
      "vout": [
        {
          "value": 50.0,
          "n": 0,
          "scriptPubKey": {
            "asm": "049987050ac992d25a3575bc04dfa598b8e539bfa999adcc6b53c5456ca07298a5e5ddff0dd787ca1dcaec54684a92c772ca44b8c775ca5dab76f17af83a1defe8 OP_CHECKSIG",
            "desc": "pk(049987050ac992d25a3575bc04dfa598b8e539bfa999adcc6b53c5456ca07298a5e5ddff0dd787ca1dcaec54684a92c772ca44b8c775ca5dab76f17af83a1defe8)#mrek47h3",
            "hex": "41049987050ac992d25a3575bc04dfa598b8e539bfa999adcc6b53c5456ca07298a5e5ddff0dd787ca1dcaec54684a92c772ca44b8c775ca5dab76f17af83a1defe8ac",
            "type": "pubkey"
          }
        }
      ],
      "hex": "01000000010000000000000000000000000000000000000000000000000000000000000000ffffffff0804ffff001d022a05ffffffff0100f2052a010000004341049987050ac992d25a3575bc04dfa598b8e539bfa999adcc6b53c5456ca07298a5e5ddff0dd787ca1dcaec54684a92c772ca44b8c775ca5dab76f17af83a1defe8ac00000000"
    }
  ]
}