{
  "hash": "000000009c3e9474e5ed235cece4c28820c9055d8e92a1d81f3f9c1bc2b9caef",
  "confirmations": 44313,
  "height": 8785,
  "version": 1,
  "versionHex": "00000001",
  "merkleroot": "4f59f6e9a91ba79e72a00b8f228a1ec65c2050235e982a03ce6fab8acf9e1d3a",
  "time": 1238088828,
  "mediantime": 1238085936,
  "nonce": 3984490797,
  "bits": "1d00ffff",
  "difficulty": 1,
  "chainwork": "0000000000000000000000000000000000000000000000000000225222522252",
  "nTx": 1,
  "previousblockhash": "00000000e0e6680b08e83733c47ec49280d36bc4a0362439b9280006c8069c4b",
  "nextblockhash": "00000000b7ece1645d4b5dc3a620f6bbb71f7e80ddbde2474583250edcc0c96f",
  "strippedsize": 216,
  "size": 216,
  "weight": 864,
  "tx": [
    {
      "txid": "4f59f6e9a91ba79e72a00b8f228a1ec65c2050235e982a03ce6fab8acf9e1d3a",
      "hash": "4f59f6e9a91ba79e72a00b8f228a1ec65c2050235e982a03ce6fab8acf9e1d3a",
      "version": 1,
      "size": 135,
      "vsize": 135,
      "weight": 540,
      "locktime": 0,
      "vin": [
        {
          "coinbase": "04ffff001d025302",
          "sequence": 4294967295
        }
      ],
      "vout": [
        {
          "value": 50.0,
          "n": 0,
          "scriptPubKey": {
            "asm": "044c020fd84bb298d8c4c92af5a1e773d2ca42579889c2d6d97cb2a86ec52bee55ff32cacadde0bb5390604a5d0f2fc04b15862380b9341964259dc8d80907228f OP_CHECKSIG",
            "desc": "pk(044c020fd84bb298d8c4c92af5a1e773d2ca42579889c2d6d97cb2a86ec52bee55ff32cacadde0bb5390604a5d0f2fc04b15862380b9341964259dc8d80907228f)#vh6h2en8",
            "hex": "41044c020fd84bb298d8c4c92af5a1e773d2ca42579889c2d6d97cb2a86ec52bee55ff32cacadde0bb5390604a5d0f2fc04b15862380b9341964259dc8d80907228fac",
            "type": "pubkey"
          }
        }
      ],
      "hex": "01000000010000000000000000000000000000000000000000000000000000000000000000ffffffff0804ffff001d025302ffffffff0100f2052a010000004341044c020fd84bb298d8c4c92af5a1e773d2ca42579889c2d6d97cb2a86ec52bee55ff32cacadde0bb5390604a5d0f2fc04b15862380b9341964259dc8d80907228fac00000000"
    }
  ]
}