{
  "hash": "000000002c141c4d6fb5c7830e27dd7d14dc497f2458363abe7d380f2b2acec9",
  "confirmations": 46805,
  "height": 6293,
  "version": 1,
  "versionHex": "00000001",
  "merkleroot": "7ecfa9d568d37ef2a87020489b8990a091e527f2d2af276905cfc96a21052cca",
  "time": 1236165495,
  "mediantime": 1236161226,
  "nonce": 964211969,
  "bits": "1d00ffff",
  "difficulty": 1,
  "chainwork": "0000000000000000000000000000000000000000000000000000189618961896",
  "nTx": 1,
  "previousblockhash": "00000000749287aad39607403d52f762e613dbbde4e580cdaaa487892b8fa72c",
  "nextblockhash": "000000002b68408d0d116d315169faf670018b1eac25aea8442ae943de9482a4",
  "strippedsize": 216,
  "size": 216,
  "weight": 864,
  "tx": [
    {
      "txid": "7ecfa9d568d37ef2a87020489b8990a091e527f2d2af276905cfc96a21052cca",
      "hash": "7ecfa9d568d37ef2a87020489b8990a091e527f2d2af276905cfc96a21052cca",
      "version": 1,
      "size": 135,
      "vsize": 135,
      "weight": 540,
      "locktime": 0,
      "vin": [
        {
          "coinbase": "04ffff001d02360a",
          "sequence": 4294967295
        }
      ],
      "vout": [
        {
          "value": 50.0,
          "n": 0,
          "scriptPubKey": {
            "asm": "04df29fa5e0ea3ab0967a4af14995a63d76252a3eb75847ff3f13429e721be5ad5a010cd430f8eca41ba46c0798b31bf688d28afd1e136f25ed8ac5af22fa99597 OP_CHECKSIG",
            "desc": "pk(04df29fa5e0ea3ab0967a4af14995a63d76252a3eb75847ff3f13429e721be5ad5a010cd430f8eca41ba46c0798b31bf688d28afd1e136f25ed8ac5af22fa99597)#j09kkhev",
            "hex": "4104df29fa5e0ea3ab0967a4af14995a63d76252a3eb75847ff3f13429e721be5ad5a010cd430f8eca41ba46c0798b31bf688d28afd1e136f25ed8ac5af22fa99597ac",
            "type": "pubkey"
          }
        }
      ],
      "hex": "01000000010000000000000000000000000000000000000000000000000000000000000000ffffffff0804ffff001d02360affffffff0100f2052a01000000434104df29fa5e0ea3ab0967a4af14995a63d76252a3eb75847ff3f13429e721be5ad5a010cd430f8eca41ba46c0798b31bf688d28afd1e136f25ed8ac5af22fa99597ac00000000"
    }
  ]
}