{
  "hash": "000000000897999f131aadbb67f87200bc24d7dc46ddd3d6ea21e1e82fb7d354",
  "confirmations": 46531,
  "height": 6567,
  "version": 1,
  "versionHex": "00000001",
  "merkleroot": "37fbb33dc64c864852e2f92e2b5bbac8903492c47bc6fb5ee44538759a250745",
  "time": 1236377257,
  "mediantime": 1236374678,
  "nonce": 729043514,
  "bits": "1d00ffff",
  "difficulty": 1,
  "chainwork": "000000000000000000000000000000000000000000000000000019a819a819a8",
  "nTx": 1,
  "previousblockhash": "00000000f3a96763eb7e4bf1e7753bfda0641d65ae0ccc2b25ae4dfc1bd83f39",
  "nextblockhash": "000000004c8219e98069b083c39ead295633a0644f47caf11bb8806712150723",
  "strippedsize": 216,
  "size": 216,
  "weight": 864,
  "tx": [
    {
      "txid": "37fbb33dc64c864852e2f92e2b5bbac8903492c47bc6fb5ee44538759a250745",
      "hash": "37fbb33dc64c864852e2f92e2b5bbac8903492c47bc6fb5ee44538759a250745",
      "version": 1,
      "size": 135,
      "vsize": 135,
      "weight": 540,
      "locktime": 0,
      "vin": [
        {
          "coinbase": "04ffff001d029d04",
          "sequence": 4294967295
        }
      ],
      "vout": [
        {
          "value": 50.0,
          "n": 0,
          "scriptPubKey": {
            "asm": "0404d50b83e324c62f5febe4040fb8658b81b7512574cb02b9077906562fb7c230cbe9ea4841398e9719d17cd6cb7b780746c304ffaabd9f0edfbd7564d819ace3 OP_CHECKSIG",
            "desc": "pk(0404d50b83e324c62f5febe4040fb8658b81b7512574cb02b9077906562fb7c230cbe9ea4841398e9719d17cd6cb7b780746c304ffaabd9f0edfbd7564d819ace3)#lusxjs4c",
            "hex": "410404d50b83e324c62f5febe4040fb8658b81b7512574cb02b9077906562fb7c230cbe9ea4841398e9719d17cd6cb7b780746c304ffaabd9f0edfbd7564d819ace3ac",
            "type": "pubkey"
          }
        }
      ],
      "hex": "01000000010000000000000000000000000000000000000000000000000000000000000000ffffffff0804ffff001d029d04ffffffff0100f2052a0100000043410404d50b83e324c62f5febe4040fb8658b81b7512574cb02b9077906562fb7c230cbe9ea4841398e9719d17cd6cb7b780746c304ffaabd9f0edfbd7564d819ace3ac00000000"
    }
  ]
}