{
  "hash": "00000000ac21f2862aaab177fd3c5c8b395de842f84d88c9cf3420b2d393e550",
  "confirmations": 51858,
  "height": 43,
  "version": 1,
  "versionHex": "00000001",
  "merkleroot": "2f5c03ce19e9a855ac93087a1b68fe6592bcf4bd7cbb9c1ef264d886a785894e",
  "time": 1231609477,
  "mediantime": 1231607488,
  "nonce": 2093702200,
  "bits": "1d00ffff",
  "difficulty": 1,
  "chainwork": "0000000000000000000000000000000000000000000000000000002c002c002c",
  "nTx": 1,
  "previousblockhash": "00000000314e90489514c787d615cea50003af2023796ccdd085b6bcc1fa28f5",
  "nextblockhash": "000000002978eecde8d020f7f057083bc990002fff495121d7dc1c26d00c00f8",
  "strippedsize": 215,
  "size": 215,
  "weight": 860,
  "tx": [
    {
      "txid": "2f5c03ce19e9a855ac93087a1b68fe6592bcf4bd7cbb9c1ef264d886a785894e",
      "hash": "2f5c03ce19e9a855ac93087a1b68fe6592bcf4bd7cbb9c1ef264d886a785894e",
      "version": 1,
      "size": 134,
      "vsize": 134,
      "weight": 536,
      "locktime": 0,
      "vin": [
        {
          "coinbase": "04ffff001d0116",
          "sequence": 4294967295
        }
      ],
      "vout": [
        {
          "value": 50.0,
          "n": 0,
          "scriptPubKey": {
            "asm": "0492ade9a7a1fde25016c02d223e2f1c501d2af11b492e0a3f0cd617a01798c5f5eabd9d5957a7b2d66d1b42f688a6fd5d2bc60ad0d7a00f6006fc4838fb4c248a OP_CHECKSIG",
            "desc": "pk(0492ade9a7a1fde25016c02d223e2f1c501d2af11b492e0a3f0cd617a01798c5f5eabd9d5957a7b2d66d1b42f688a6fd5d2bc60ad0d7a00f6006fc4838fb4c248a)#5mkg5ydx",
            "hex": "410492ade9a7a1fde25016c02d223e2f1c501d2af11b492e0a3f0cd617a01798c5f5eabd9d5957a7b2d66d1b42f688a6fd5d2bc60ad0d7a00f6006fc4838fb4c248aac",
            "type": "pubkey"
          }
        }
      ],
      "hex": "01000000010000000000000000000000000000000000000000000000000000000000000000ffffffff0704ffff001d0116ffffffff0100f2052a0100000043410492ade9a7a1fde25016c02d223e2f1c501d2af11b492e0a3f0cd617a01798c5f5eabd9d5957a7b2d66d1b42f688a6fd5d2bc60ad0d7a00f6006fc4838fb4c248aac00000000"
    }
  ]
}