{
  "hash": "00000000abd7ba2d26bf3d2079a2406f6643d32e16bb41d4d4ff10277b6a5743",
  "confirmations": 51120,
  "height": 1978,
  "version": 1,
  "versionHex": "00000001",
  "merkleroot": "81191b02ae0a906ad39c95e019ce8d9d4ba7add181edbee00ae3fa4207b21b2e",
  "time": 1233029092,
  "mediantime": 1233025446,
  "nonce": 161436837,
  "bits": "1d00ffff",
  "difficulty": 1,
  "chainwork": "000000000000000000000000000000000000000000000000000007bb07bb07bb",
  "nTx": 1,
  "previousblockhash": "00000000f0655b679fba1aa2d32c0885546e7183667a48a3a1328222d656881e",
  "nextblockhash": "000000006c76b29ccdcf929a0dd16d6df4e26de60cc6cdcb31bbc58cb3cb6789",
  "strippedsize": 215,
  "size": 215,
  "weight": 860,
  "tx": [
    {
      "txid": "81191b02ae0a906ad39c95e019ce8d9d4ba7add181edbee00ae3fa4207b21b2e",
      "hash": "81191b02ae0a906ad39c95e019ce8d9d4ba7add181edbee00ae3fa4207b21b2e",
      "version": 1,
      "size": 134,
      "vsize": 134,
      "weight": 536,
      "locktime": 0,
      "vin": [
        {
          "coinbase": "04ffff001d011d",
          "sequence": 4294967295
        }
      ],
      "vout": [
        {
          "value": 50.0,
          "n": 0,
          "scriptPubKey": {
            "asm": "04d90a27238653f1132693351dcb6c5d3434a1c92b656671ffd78c9ec9df721b23955c4eb77871b600c50c9d11717236cfcd17a0b90ed5f99efadfcbd00e304e75 OP_CHECKSIG",
            "desc": "pk(04d90a27238653f1132693351dcb6c5d3434a1c92b656671ffd78c9ec9df721b23955c4eb77871b600c50c9d11717236cfcd17a0b90ed5f99efadfcbd00e304e75)#pruwv5pl",
            "hex": "4104d90a27238653f1132693351dcb6c5d3434a1c92b656671ffd78c9ec9df721b23955c4eb77871b600c50c9d11717236cfcd17a0b90ed5f99efadfcbd00e304e75ac",
            "type": "pubkey"
          }
        }
      ],
      "hex": "01000000010000000000000000000000000000000000000000000000000000000000000000ffffffff0704ffff001d011dffffffff0100f2052a01000000434104d90a27238653f1132693351dcb6c5d3434a1c92b656671ffd78c9ec9df721b23955c4eb77871b600c50c9d11717236cfcd17a0b90ed5f99efadfcbd00e304e75ac00000000"
    }
  ]
}