{
  "hash": "00000000e2e56d17b675db5c858b3735593eca5ed85c54aa23fd299e29310c37",
  "confirmations": 50862,
  "height": 2236,
  "version": 1,
  "versionHex": "00000001",
  "merkleroot": "3235c36e98edab8e315264ef7ef65bdf6591680a0f7b6d533d0917f0689e42c0",
  "time": 1233237603,
  "mediantime": 1233235340,
  "nonce": 706655542,
  "bits": "1d00ffff",
  "difficulty": 1,
  "chainwork": "000000000000000000000000000000000000000000000000000008bd08bd08bd",
  "nTx": 1,
  "previousblockhash": "00000000af4d5749cd26701cc85675c5c6b8c63651292364e08c8d9c36a549a5",
  "nextblockhash": "0000000001c470c233e5c364ba36cd9330617c3307892a44cfc2850400e6deb3",
  "strippedsize": 216,
  "size": 216,
  "weight": 864,
  "tx": [
    {
      "txid": "3235c36e98edab8e315264ef7ef65bdf6591680a0f7b6d533d0917f0689e42c0",
      "hash": "3235c36e98edab8e315264ef7ef65bdf6591680a0f7b6d533d0917f0689e42c0",
      "version": 1,
      "size": 135,
      "vsize": 135,
      "weight": 540,
      "locktime": 0,
      "vin": [
        {
          "coinbase": "04ffff001d02d400",
          "sequence": 4294967295
        }
      ],
      "vout": [
        {
          "value": 50.0,
          "n": 0,
          "scriptPubKey": {
            "asm": "04c0aa3be7f20da544facc094cb4379a63737367b87ee82c1fd6b4bc05a067619f9a9d9c7a309f05beefd3e5721328548f33ae65c4fba23c8480fd204af06e0b25 OP_CHECKSIG",
            "desc": "pk(04c0aa3be7f20da544facc094cb4379a63737367b87ee82c1fd6b4bc05a067619f9a9d9c7a309f05beefd3e5721328548f33ae65c4fba23c8480fd204af06e0b25)#u54xdqaf",
            "hex": "4104c0aa3be7f20da544facc094cb4379a63737367b87ee82c1fd6b4bc05a067619f9a9d9c7a309f05beefd3e5721328548f33ae65c4fba23c8480fd204af06e0b25ac",
            "type": "pubkey"
          }
        }
      ],
      "hex": "01000000010000000000000000000000000000000000000000000000000000000000000000ffffffff0804ffff001d02d400ffffffff0100f2052a01000000434104c0aa3be7f20da544facc094cb4379a63737367b87ee82c1fd6b4bc05a067619f9a9d9c7a309f05beefd3e5721328548f33ae65c4fba23c8480fd204af06e0b25ac00000000"
    }
  ]
}