{
  "hash": "000000008e50d4fcb8e8dfa0d9f5679882a730f90d88be2580f2763a199b985e",
  "confirmations": 47127,
  "height": 5971,
  "version": 1,
  "versionHex": "00000001",
  "merkleroot": "7790c402ae6053b5f8705cd1ae84f8dc8397b426189026e2d36b606449dc4735",
  "time": 1235905588,
  "mediantime": 1235901734,
  "nonce": 3030980401,
  "bits": "1d00ffff",
  "difficulty": 1,
  "chainwork": "0000000000000000000000000000000000000000000000000000175417541754",
  "nTx": 1,
  "previousblockhash": "000000007dcbd6505710437090b76273870914ffea29ee61958f6f06240b1590",
  "nextblockhash": "00000000dcffd6a47d1be3e8a0ed45b50dcb952da7e737d03500d5fcfdc9b8b4",
  "strippedsize": 216,
  "size": 216,
  "weight": 864,
  "tx": [
    {
      "txid": "7790c402ae6053b5f8705cd1ae84f8dc8397b426189026e2d36b606449dc4735",
      "hash": "7790c402ae6053b5f8705cd1ae84f8dc8397b426189026e2d36b606449dc4735",
      "version": 1,
      "size": 135,
      "vsize": 135,
      "weight": 540,
      "locktime": 0,
      "vin": [
        {
          "coinbase": "04ffff001d025f04",
          "sequence": 4294967295
        }
      ],
      "vout": [
        {
          "value": 50.0,
          "n": 0,
          "scriptPubKey": {
            "asm": "0457884e63b84c58ef9e9bc8d04f786f6ba41ecece49d71834b7e77d9c941a7d1060bd7677b30526483676f82a5a3920e809826117e427853f7209af0afb77671f OP_CHECKSIG",
            "desc": "pk(0457884e63b84c58ef9e9bc8d04f786f6ba41ecece49d71834b7e77d9c941a7d1060bd7677b30526483676f82a5a3920e809826117e427853f7209af0afb77671f)#es7y5yqc",
            "hex": "410457884e63b84c58ef9e9bc8d04f786f6ba41ecece49d71834b7e77d9c941a7d1060bd7677b30526483676f82a5a3920e809826117e427853f7209af0afb77671fac",
            "type": "pubkey"
          }
        }
      ],
      "hex": "01000000010000000000000000000000000000000000000000000000000000000000000000ffffffff0804ffff001d025f04ffffffff0100f2052a0100000043410457884e63b84c58ef9e9bc8d04f786f6ba41ecece49d71834b7e77d9c941a7d1060bd7677b30526483676f82a5a3920e809826117e427853f7209af0afb77671fac00000000"
    }
  ]
}