{
  "hash": "000000000ecab80b1bee41b0bff9514502d7d8c62bb842655da7b30008c891cc",
  "confirmations": 51966,
  "height": 97,
  "version": 1,
  "versionHex": "00000001",
  "merkleroot": "cc4d0dd009ccf08805d9dca9232a47c60681375312a520f3609045649c2a1690",
  "time": 1231658068,
  "mediantime": 1231654561,
  "nonce": 1751592481,
  "bits": "1d00ffff",
  "difficulty": 1,
  "chainwork": "0000000000000000000000000000000000000000000000000000006200620062",
  "nTx": 1,
  "previousblockhash": "00000000c21b38cebff4901eb0b6f4265b0adea665d8b63b5e3949e0bb923f06",
  "nextblockhash": "00000000a8ed5e960dccdf309f2ee2132badcc9247755c32a4b7081422d51899",
  "strippedsize": 215,
  "size": 215,
  "weight": 860,
  "tx": [
    {
      "txid": "cc4d0dd009ccf08805d9dca9232a47c60681375312a520f3609045649c2a1690",
      "hash": "cc4d0dd009ccf08805d9dca9232a47c60681375312a520f3609045649c2a1690",
      "version": 1,
      "size": 134,
      "vsize": 134,
      "weight": 536,
      "locktime": 0,
      "vin": [
        {
          "coinbase": "04ffff001d013e",
          "sequence": 4294967295
        }
      ],
      "vout": [
        {
          "value": 50.0,
          "n": 0,
          "scriptPubKey": {
            "asm": "0418b81a849bb96e40b9317cb8daf633cc8994a42b2e7a5d59fe61a4c106fadc1bcf20894b144498742007fbde4736affc2eab2fc26697aa285468e3e62138b1b2 OP_CHECKSIG",
            "desc": "pk(0418b81a849bb96e40b9317cb8daf633cc8994a42b2e7a5d59fe61a4c106fadc1bcf20894b144498742007fbde4736affc2eab2fc26697aa285468e3e62138b1b2)#4n3upajq",
            "hex": "410418b81a849bb96e40b9317cb8daf633cc8994a42b2e7a5d59fe61a4c106fadc1bcf20894b144498742007fbde4736affc2eab2fc26697aa285468e3e62138b1b2ac",
            "type": "pubkey"
          }
        }
      ],
      "hex": "01000000010000000000000000000000000000000000000000000000000000000000000000ffffffff0704ffff001d013effffffff0100f2052a0100000043410418b81a849bb96e40b9317cb8daf633cc8994a42b2e7a5d59fe61a4c106fadc1bcf20894b144498742007fbde4736affc2eab2fc26697aa285468e3e62138b1b2ac00000000"
    }
  ]
}