{
  "hash": "0000000040974ccb3370e53c9b10814d3ab23b613f9bf261982b16285348c4ed",
  "confirmations": 51852,
  "height": 1246,
  "version": 1,
  "versionHex": "00000001",
  "merkleroot": "a8753368bc2b8cc4a018025cc659227ccb6fbb1d477088471091220e4fd63d3d",
  "time": 1232534903,
  "mediantime": 1232532040,
  "nonce": 407067648,
  "bits": "1d00ffff",
  "difficulty": 1,
  "chainwork": "000000000000000000000000000000000000000000000000000004df04df04df",
  "nTx": 1,
  "previousblockhash": "0000000031efc90242beb35a21301b7e2ff68d6fcee9bf0ac0a769dff96e6f7b",
  "nextblockhash": "000000002a5e1e00e34ab9175bd2ddaef1bc308596ed07d59ee3e4ecf31f2714",
  "strippedsize": 216,
  "size": 216,
  "weight": 864,
  "tx": [
    {
      "txid": "a8753368bc2b8cc4a018025cc659227ccb6fbb1d477088471091220e4fd63d3d",
      "hash": "a8753368bc2b8cc4a018025cc659227ccb6fbb1d477088471091220e4fd63d3d",
      "version": 1,
      "size": 135,
      "vsize": 135,
      "weight": 540,
      "locktime": 0,
      "vin": [
        {
          "coinbase": "04ffff001d025c09",
          "sequence": 4294967295
        }
      ],
      "vout": [
        {
          "value": 50.0,
          "n": 0,
          "scriptPubKey": {
            "asm": "041edf58dc5eb5775a9be5750a84f2fd0dac6bcdd770694915659b20b2de5ae12441113e64b8975e80ba92fa4d3469770a644795630d0eb086baa38e08299b6686 OP_CHECKSIG",
            "desc": "pk(041edf58dc5eb5775a9be5750a84f2fd0dac6bcdd770694915659b20b2de5ae12441113e64b8975e80ba92fa4d3469770a644795630d0eb086baa38e08299b6686)#22p5pq8w",
            "hex": "41041edf58dc5eb5775a9be5750a84f2fd0dac6bcdd770694915659b20b2de5ae12441113e64b8975e80ba92fa4d3469770a644795630d0eb086baa38e08299b6686ac",
            "type": "pubkey"
          }
        }
      ],
      "hex": "01000000010000000000000000000000000000000000000000000000000000000000000000ffffffff0804ffff001d025c09ffffffff0100f2052a010000004341041edf58dc5eb5775a9be5750a84f2fd0dac6bcdd770694915659b20b2de5ae12441113e64b8975e80ba92fa4d3469770a644795630d0eb086baa38e08299b6686ac00000000"
    }
  ]
}