{
  "hash": "0000000060cf27882125105510bf79b940f09cb8a05820d0d8c593013433ad3d",
  "confirmations": 43640,
  "height": 9458,
  "version": 1,
  "versionHex": "00000001",
  "merkleroot": "c6549b761d63f071893ce76d3ef1af78f0c029446cb894f60bc125dc8b3dcd68",
  "time": 1238598749,
  "mediantime": 1238595886,
  "nonce": 1917523207,
  "bits": "1d00ffff",
  "difficulty": 1,
  "chainwork": "000000000000000000000000000000000000000000000000000024f324f324f3",
  "nTx": 1,
  "previousblockhash": "00000000d5dde2b1403c05b8546073aaab6b1c599fa86cf32751dc32d027e712",
  "nextblockhash": "000000001d3886614e9dbab5293afac6660faff517469a89d44dfefa0ea64316",
  "strippedsize": 216,
  "size": 216,
  "weight": 864,
  "tx": [
    {
      "txid": "c6549b761d63f071893ce76d3ef1af78f0c029446cb894f60bc125dc8b3dcd68",
      "hash": "c6549b761d63f071893ce76d3ef1af78f0c029446cb894f60bc125dc8b3dcd68",
      "version": 1,
      "size": 135,
      "vsize": 135,
      "weight": 540,
      "locktime": 0,
      "vin": [
        {
          "coinbase": "04ffff001d02b404",
          "sequence": 4294967295
        }
      ],
      "vout": [
        {
          "value": 50.0,
          "n": 0,
          "scriptPubKey": {
            "asm": "04ca54450a484acf7dedcc9e8d1683769452b66f159d6ce9d23e4b8649653a79ea30d4ce09e2754e5995e90dc307b806a565b2759d6a205c9c2e50907b01e8794f OP_CHECKSIG",
            "desc": "pk(04ca54450a484acf7dedcc9e8d1683769452b66f159d6ce9d23e4b8649653a79ea30d4ce09e2754e5995e90dc307b806a565b2759d6a205c9c2e50907b01e8794f)#22lmnuss",
            "hex": "4104ca54450a484acf7dedcc9e8d1683769452b66f159d6ce9d23e4b8649653a79ea30d4ce09e2754e5995e90dc307b806a565b2759d6a205c9c2e50907b01e8794fac",
            "type": "pubkey"
          }
        }
      ],
      "hex": "01000000010000000000000000000000000000000000000000000000000000000000000000ffffffff0804ffff001d02b404ffffffff0100f2052a01000000434104ca54450a484acf7dedcc9e8d1683769452b66f159d6ce9d23e4b8649653a79ea30d4ce09e2754e5995e90dc307b806a565b2759d6a205c9c2e50907b01e8794fac00000000"
    }
  ]
}