{
  "hash": "000000007930799dab6bb69c7858a4d8b45001a64b663b552bd1a84e44b9fb41",
  "confirmations": 43790,
  "height": 9308,
  "version": 1,
  "versionHex": "00000001",
  "merkleroot": "bd793bb457350b16907e6f7e9b35b0f4cc8357f6ab1cd371106edf6d5891dd35",
  "time": 1238480514,
  "mediantime": 1238477271,
  "nonce": 280706205,
  "bits": "1d00ffff",
  "difficulty": 1,
  "chainwork": "0000000000000000000000000000000000000000000000000000245d245d245d",
  "nTx": 1,
  "previousblockhash": "00000000bec5fe9cb6e34216cc8ec1cb757183e86e5c67718f08855ffcc5de9e",
  "nextblockhash": "00000000966d702b1248872b36c4daab3abcb8de47940dc7baa7309ac067e270",
  "strippedsize": 215,
  "size": 215,
  "weight": 860,
  "tx": [
    {
      "txid": "bd793bb457350b16907e6f7e9b35b0f4cc8357f6ab1cd371106edf6d5891dd35",
      "hash": "bd793bb457350b16907e6f7e9b35b0f4cc8357f6ab1cd371106edf6d5891dd35",
      "version": 1,
      "size": 134,
      "vsize": 134,
      "weight": 536,
      "locktime": 0,
      "vin": [
        {
          "coinbase": "04ffff001d013a",
          "sequence": 4294967295
        }
      ],
      "vout": [
        {
          "value": 50.0,
          "n": 0,
          "scriptPubKey": {
            "asm": "0421df25af7ca6ef52eabee91f3dc64b01fed8f63a467317afd2ffc73898e8c32941370e941baba4cafc8601f0591338f0add85f7b7390e643b9c8e6a0600638bd OP_CHECKSIG",
            "desc": "pk(0421df25af7ca6ef52eabee91f3dc64b01fed8f63a467317afd2ffc73898e8c32941370e941baba4cafc8601f0591338f0add85f7b7390e643b9c8e6a0600638bd)#34ja8yrp",
            "hex": "410421df25af7ca6ef52eabee91f3dc64b01fed8f63a467317afd2ffc73898e8c32941370e941baba4cafc8601f0591338f0add85f7b7390e643b9c8e6a0600638bdac",
            "type": "pubkey"
          }
        }
      ],
      "hex": "01000000010000000000000000000000000000000000000000000000000000000000000000ffffffff0704ffff001d013affffffff0100f2052a0100000043410421df25af7ca6ef52eabee91f3dc64b01fed8f63a467317afd2ffc73898e8c32941370e941baba4cafc8601f0591338f0add85f7b7390e643b9c8e6a0600638bdac00000000"
    }
  ]
}