{
  "hash": "0000000046ff6c4f9a7224aa331c407c7e37f49434571307d6fca58695bcba38",
  "confirmations": 52513,
  "height": 585,
  "version": 1,
  "versionHex": "00000001",
  "merkleroot": "b297f594e4da9c1d763c955b10f1b0b366419fb7285ea8acb0d3e322db7087db",
  "time": 1232028405,
  "mediantime": 1232024017,
  "nonce": 244837889,
  "bits": "1d00ffff",
  "difficulty": 1,
  "chainwork": "0000000000000000000000000000000000000000000000000000024a024a024a",
  "nTx": 1,
  "previousblockhash": "00000000d3d4c3b9014bd51bd891d1161d7ead2dbe8597561eb17b1b9c6465c3",
  "nextblockhash": "000000000d0d23516c5efd3af4eb951603bb30b2c93884b522a318b30e918ee7",
  "strippedsize": 216,
  "size": 216,
  "weight": 864,
  "tx": [
    {
      "txid": "b297f594e4da9c1d763c955b10f1b0b366419fb7285ea8acb0d3e322db7087db",
      "hash": "b297f594e4da9c1d763c955b10f1b0b366419fb7285ea8acb0d3e322db7087db",
      "version": 1,
      "size": 135,
      "vsize": 135,
      "weight": 540,
      "locktime": 0,
      "vin": [
        {
          "coinbase": "04ffff001d025206",
          "sequence": 4294967295
        }
      ],
      "vout": [
        {
          "value": 50.0,
          "n": 0,
          "scriptPubKey": {
            "asm": "04bc77ee830788ee6f5c7f623b0a40856cdc94d674d311a5509d65dd24bbcf2d1463eaa0ea3ba756331b23044ceb1ba9dd14ffb0261a3f6ad495dc1b7cf86c64cf OP_CHECKSIG",
            "desc": "pk(04bc77ee830788ee6f5c7f623b0a40856cdc94d674d311a5509d65dd24bbcf2d1463eaa0ea3ba756331b23044ceb1ba9dd14ffb0261a3f6ad495dc1b7cf86c64cf)#hckxujrk",
            "hex": "4104bc77ee830788ee6f5c7f623b0a40856cdc94d674d311a5509d65dd24bbcf2d1463eaa0ea3ba756331b23044ceb1ba9dd14ffb0261a3f6ad495dc1b7cf86c64cfac",
            "type": "pubkey"
          }
        }
      ],
      "hex": "01000000010000000000000000000000000000000000000000000000000000000000000000ffffffff0804ffff001d025206ffffffff0100f2052a01000000434104bc77ee830788ee6f5c7f623b0a40856cdc94d674d311a5509d65dd24bbcf2d1463eaa0ea3ba756331b23044ceb1ba9dd14ffb0261a3f6ad495dc1b7cf86c64cfac00000000"
    }
  ]
}