{
  "hash": "00000000ff81be1e2f43b3e325790df946a36d8dde10f7d39cbd7ea2c4291939",
  "confirmations": 47448,
  "height": 5650,
  "version": 1,
  "versionHex": "00000001",
  "merkleroot": "efb3dc5705ee33a7ba6cf66adfb7f5d458b1ea9a0771b5de51e3182eba295cf7",
  "time": 1235648291,
  "mediantime": 1235642416,
  "nonce": 3807733278,
  "bits": "1d00ffff",
  "difficulty": 1,
  "chainwork": "0000000000000000000000000000000000000000000000000000161316131613",
  "nTx": 1,
  "previousblockhash": "00000000e2df7c3a57707749cb968329205d83b27667063bd00fefe73712b941",
  "nextblockhash": "00000000a8968a4b2b47660aa9ca625dbcab74bbb5f89af49bcb9148b502455b",
  "strippedsize": 216,
  "size": 216,
  "weight": 864,
  "tx": [
    {
      "txid": "efb3dc5705ee33a7ba6cf66adfb7f5d458b1ea9a0771b5de51e3182eba295cf7",
      "hash": "efb3dc5705ee33a7ba6cf66adfb7f5d458b1ea9a0771b5de51e3182eba295cf7",
      "version": 1,
      "size": 135,
      "vsize": 135,
      "weight": 540,
      "locktime": 0,
      "vin": [
        {
          "coinbase": "04ffff001d02af08",
          "sequence": 4294967295
        }
      ],
      "vout": [
        {
          "value": 50.0,
          "n": 0,
          "scriptPubKey": {
            "asm": "04313f867af22462aa7f3481f1f53027f842c3c00fc3d5003b766dcd964a42b8398c482041a0928a3c5d72c50e3732a282eb34bf8ce1fcea6a43a4ac635613b7a1 OP_CHECKSIG",
            "desc": "pk(04313f867af22462aa7f3481f1f53027f842c3c00fc3d5003b766dcd964a42b8398c482041a0928a3c5d72c50e3732a282eb34bf8ce1fcea6a43a4ac635613b7a1)#jnw2vjle",
            "hex": "4104313f867af22462aa7f3481f1f53027f842c3c00fc3d5003b766dcd964a42b8398c482041a0928a3c5d72c50e3732a282eb34bf8ce1fcea6a43a4ac635613b7a1ac",
            "type": "pubkey"
          }
        }
      ],
      "hex": "01000000010000000000000000000000000000000000000000000000000000000000000000ffffffff0804ffff001d02af08ffffffff0100f2052a01000000434104313f867af22462aa7f3481f1f53027f842c3c00fc3d5003b766dcd964a42b8398c482041a0928a3c5d72c50e3732a282eb34bf8ce1fcea6a43a4ac635613b7a1ac00000000"
    }
  ]
}