{
  "hash": "00000000bc8a0e20d31d39432595b89b9b6507a9ff25aae48289de86ad303c18",
  "confirmations": 51143,
  "height": 1955,
  "version": 1,
  "versionHex": "00000001",
  "merkleroot": "c7faf98f650ce6d628d695ad57f18457c3e1d3c3f69c5e2c03cea110061bbec1",
  "time": 1233011449,
  "mediantime": 1233007640,
  "nonce": 381157654,
  "bits": "1d00ffff",
  "difficulty": 1,
  "chainwork": "000000000000000000000000000000000000000000000000000007a407a407a4",
  "nTx": 1,
  "previousblockhash": "00000000710bdfefc65fae752b3777f415778049632e37f5ab8e7cf0ebfd9f11",
  "nextblockhash": "000000002f807d8ee585ec87f0f6e120b8154c2b3173c463c23265ea3173eb7c",
  "strippedsize": 216,
  "size": 216,
  "weight": 864,
  "tx": [
    {
      "txid": "c7faf98f650ce6d628d695ad57f18457c3e1d3c3f69c5e2c03cea110061bbec1",
      "hash": "c7faf98f650ce6d628d695ad57f18457c3e1d3c3f69c5e2c03cea110061bbec1",
      "version": 1,
      "size": 135,
      "vsize": 135,
      "weight": 540,
      "locktime": 0,
      "vin": [
        {
          "coinbase": "04ffff001d02a800",
          "sequence": 4294967295
        }
      ],
      "vout": [
        {
          "value": 50.0,
          "n": 0,
          "scriptPubKey": {
            "asm": "04411a82ede41f8f23e97c993d3f246a3f35c8e015d99a1a9fb09926e56f1b3b1bc47d57c1071daac9edd642d778e895d09d76098eb72a61e177528e17adca53ee OP_CHECKSIG",
            "desc": "pk(04411a82ede41f8f23e97c993d3f246a3f35c8e015d99a1a9fb09926e56f1b3b1bc47d57c1071daac9edd642d778e895d09d76098eb72a61e177528e17adca53ee)#6f2wrmk6",
            "hex": "4104411a82ede41f8f23e97c993d3f246a3f35c8e015d99a1a9fb09926e56f1b3b1bc47d57c1071daac9edd642d778e895d09d76098eb72a61e177528e17adca53eeac",
            "type": "pubkey"
          }
        }
      ],
      "hex": "01000000010000000000000000000000000000000000000000000000000000000000000000ffffffff0804ffff001d02a800ffffffff0100f2052a01000000434104411a82ede41f8f23e97c993d3f246a3f35c8e015d99a1a9fb09926e56f1b3b1bc47d57c1071daac9edd642d778e895d09d76098eb72a61e177528e17adca53eeac00000000"
    }
  ]
}