{
  "hash": "000000009bbf3121ebaa969547ef40f479bf64bc4bd159d263c640b184eb2d0a",
  "confirmations": 47092,
  "height": 6006,
  "version": 1,
  "versionHex": "00000001",
  "merkleroot": "5599623d6c21f660b5716e24f235030e0af65e66063c40e7ab222ecc90737ee7",
  "time": 1235930903,
  "mediantime": 1235928384,
  "nonce": 3439087896,
  "bits": "1d00ffff",
  "difficulty": 1,
  "chainwork": "0000000000000000000000000000000000000000000000000000177717771777",
  "nTx": 1,
  "previousblockhash": "0000000019dd0eec7de985a95ea4b368aafc0edc7b21ddab82978ca247956f81",
  "nextblockhash": "000000008bc3ccc1a72da93565653b8f70c541a9429eb67b1d50db964b86da60",
  "strippedsize": 216,
  "size": 216,
  "weight": 864,
  "tx": [
    {
      "txid": "5599623d6c21f660b5716e24f235030e0af65e66063c40e7ab222ecc90737ee7",
      "hash": "5599623d6c21f660b5716e24f235030e0af65e66063c40e7ab222ecc90737ee7",
      "version": 1,
      "size": 135,
      "vsize": 135,
      "weight": 540,
      "locktime": 0,
      "vin": [
        {
          "coinbase": "04ffff001d020b05",
          "sequence": 4294967295
        }
      ],
      "vout": [
        {
          "value": 50.0,
          "n": 0,
          "scriptPubKey": {
            "asm": "04bb6b667eb637f74eca54ee900d73b694ee966804a7a576d4a2c56b40c08a9536c7a5902649a0c6fb7c5ee92e522d1fb981bd46e2a4b3ec2e6788e2655bdd2eb6 OP_CHECKSIG",
            "desc": "pk(04bb6b667eb637f74eca54ee900d73b694ee966804a7a576d4a2c56b40c08a9536c7a5902649a0c6fb7c5ee92e522d1fb981bd46e2a4b3ec2e6788e2655bdd2eb6)#fwta0e5y",
            "hex": "4104bb6b667eb637f74eca54ee900d73b694ee966804a7a576d4a2c56b40c08a9536c7a5902649a0c6fb7c5ee92e522d1fb981bd46e2a4b3ec2e6788e2655bdd2eb6ac",
            "type": "pubkey"
          }
        }
      ],
      "hex": "01000000010000000000000000000000000000000000000000000000000000000000000000ffffffff0804ffff001d020b05ffffffff0100f2052a01000000434104bb6b667eb637f74eca54ee900d73b694ee966804a7a576d4a2c56b40c08a9536c7a5902649a0c6fb7c5ee92e522d1fb981bd46e2a4b3ec2e6788e2655bdd2eb6ac00000000"
    }
  ]
}