{
  "hash": "000000008893d0a990594562740152e1468deba0dd59200d9fda72aa828bb006",
  "confirmations": 50662,
  "height": 2436,
  "version": 1,
  "versionHex": "00000001",
  "merkleroot": "4c07fda53939d88752745f83ac762bd32fced02b629b7e8d14d9f20ba55bf359",
  "time": 1233381760,
  "mediantime": 1233378164,
  "nonce": 745185326,
  "bits": "1d00ffff",
  "difficulty": 1,
  "chainwork": "0000000000000000000000000000000000000000000000000000098509850985",
  "nTx": 1,
  "previousblockhash": "000000001761898ad018270ad1ac1359946a9977462bd7f5a46661e2ad1acf49",
  "nextblockhash": "00000000066397fb85d28f2cdee78c1ad5e1a01cddba2728e728f92a04c6a405",
  "strippedsize": 215,
  "size": 215,
  "weight": 860,
  "tx": [
    {
      "txid": "4c07fda53939d88752745f83ac762bd32fced02b629b7e8d14d9f20ba55bf359",
      "hash": "4c07fda53939d88752745f83ac762bd32fced02b629b7e8d14d9f20ba55bf359",
      "version": 1,
      "size": 134,
      "vsize": 134,
      "weight": 536,
      "locktime": 0,
      "vin": [
        {
          "coinbase": "04ffff001d014f",
          "sequence": 4294967295
        }
      ],
      "vout": [
        {
          "value": 50.0,
          "n": 0,
          "scriptPubKey": {
            "asm": "04bf56db05afc2a19dbd9c40c290bbb27fc5bf9dc53844e1063c353fc1107b9dd37eabc9da26c58b41a49d2e8a0d58b144cd558d7ff8cac61ec4aa55fde49ffbf9 OP_CHECKSIG",
            "desc": "pk(04bf56db05afc2a19dbd9c40c290bbb27fc5bf9dc53844e1063c353fc1107b9dd37eabc9da26c58b41a49d2e8a0d58b144cd558d7ff8cac61ec4aa55fde49ffbf9)#3zed5uwk",
            "hex": "4104bf56db05afc2a19dbd9c40c290bbb27fc5bf9dc53844e1063c353fc1107b9dd37eabc9da26c58b41a49d2e8a0d58b144cd558d7ff8cac61ec4aa55fde49ffbf9ac",
            "type": "pubkey"
          }
        }
      ],
      "hex": "01000000010000000000000000000000000000000000000000000000000000000000000000ffffffff0704ffff001d014fffffffff0100f2052a01000000434104bf56db05afc2a19dbd9c40c290bbb27fc5bf9dc53844e1063c353fc1107b9dd37eabc9da26c58b41a49d2e8a0d58b144cd558d7ff8cac61ec4aa55fde49ffbf9ac00000000"
    }
  ]
}