{
  "hash": "00000000c31f7f76a2a9b722603d7419bdc53f13c9a12bc250c2e6af3c60ed53",
  "confirmations": 46118,
  "height": 6980,
  "version": 1,
  "versionHex": "00000001",
  "merkleroot": "f0a1ffbaa300b40faeb3aa581ff17453f83a415a5e72d75b493c54d46331a413",
  "time": 1236701305,
  "mediantime": 1236696646,
  "nonce": 3449432607,
  "bits": "1d00ffff",
  "difficulty": 1,
  "chainwork": "00000000000000000000000000000000000000000000000000001b451b451b45",
  "nTx": 1,
  "previousblockhash": "000000002005017cd42078ac81ba7eb579d73d5dd4cd2c8d034a5d3c01f0fc61",
  "nextblockhash": "000000006d76d82e9a144722fe2cbc9365fa2ed246cf47ff2a7b488b8c6bc1a7",
  "strippedsize": 216,
  "size": 216,
  "weight": 864,
  "tx": [
    {
      "txid": "f0a1ffbaa300b40faeb3aa581ff17453f83a415a5e72d75b493c54d46331a413",
      "hash": "f0a1ffbaa300b40faeb3aa581ff17453f83a415a5e72d75b493c54d46331a413",
      "version": 1,
      "size": 135,
      "vsize": 135,
      "weight": 540,
      "locktime": 0,
      "vin": [
        {
          "coinbase": "04ffff001d02e501",
          "sequence": 4294967295
        }
      ],
      "vout": [
        {
          "value": 50.0,
          "n": 0,
          "scriptPubKey": {
            "asm": "0454bbc146cc01b4699836256d19d866fd0607846482620852e8644ad1425357e8a1057b7b8cf0da72487d907baa2908fc989ea4c82fee19cc1d51b1e8e74008f1 OP_CHECKSIG",
            "desc": "pk(0454bbc146cc01b4699836256d19d866fd0607846482620852e8644ad1425357e8a1057b7b8cf0da72487d907baa2908fc989ea4c82fee19cc1d51b1e8e74008f1)#mwfwlxq4",
            "hex": "410454bbc146cc01b4699836256d19d866fd0607846482620852e8644ad1425357e8a1057b7b8cf0da72487d907baa2908fc989ea4c82fee19cc1d51b1e8e74008f1ac",
            "type": "pubkey"
          }
        }
      ],
      "hex": "01000000010000000000000000000000000000000000000000000000000000000000000000ffffffff0804ffff001d02e501ffffffff0100f2052a0100000043410454bbc146cc01b4699836256d19d866fd0607846482620852e8644ad1425357e8a1057b7b8cf0da72487d907baa2908fc989ea4c82fee19cc1d51b1e8e74008f1ac00000000"
    }
  ]
}