{
  "hash": "00000000a9acee10e7ef660a31e0cb1253ca8503c803950daed0968a8f6a29d5",
  "confirmations": 47266,
  "height": 5832,
  "version": 1,
  "versionHex": "00000001",
  "merkleroot": "947502fb0ad1781a260c25459e437ebbd97ae15491ffe30ea6a342b6987d5ed2",
  "time": 1235785207,
  "mediantime": 1235780824,
  "nonce": 2554902573,
  "bits": "1d00ffff",
  "difficulty": 1,
  "chainwork": "000000000000000000000000000000000000000000000000000016c916c916c9",
  "nTx": 1,
  "previousblockhash": "000000006b2ea9945a245352c3850f9c442c61d16de84abc25a3c809efd45b0e",
  "nextblockhash": "00000000c2599abdad11d97b46094a5a9807c8d0388f928e9f5b2bf6ce8c1ac8",
  "strippedsize": 216,
  "size": 216,
  "weight": 864,
  "tx": [
    {
      "txid": "947502fb0ad1781a260c25459e437ebbd97ae15491ffe30ea6a342b6987d5ed2",
      "hash": "947502fb0ad1781a260c25459e437ebbd97ae15491ffe30ea6a342b6987d5ed2",
      "version": 1,
      "size": 135,
      "vsize": 135,
      "weight": 540,
      "locktime": 0,
      "vin": [
        {
          "coinbase": "04ffff001d026801",
          "sequence": 4294967295
        }
      ],
      "vout": [
        {
          "value": 50.0,
          "n": 0,
          "scriptPubKey": {
            "asm": "04b6ec73a5b5a66b5f46c3af6bda6048e83300a81dec6e2caf0713be1f8ac5d3915e5c0044a3b41d1583872a14735d4c22eb90ec619df73f1b250e8ad9f2f1264d OP_CHECKSIG",
            "desc": "pk(04b6ec73a5b5a66b5f46c3af6bda6048e83300a81dec6e2caf0713be1f8ac5d3915e5c0044a3b41d1583872a14735d4c22eb90ec619df73f1b250e8ad9f2f1264d)#hrd6djk2",
            "hex": "4104b6ec73a5b5a66b5f46c3af6bda6048e83300a81dec6e2caf0713be1f8ac5d3915e5c0044a3b41d1583872a14735d4c22eb90ec619df73f1b250e8ad9f2f1264dac",
            "type": "pubkey"
          }
        }
      ],
      "hex": "01000000010000000000000000000000000000000000000000000000000000000000000000ffffffff0804ffff001d026801ffffffff0100f2052a01000000434104b6ec73a5b5a66b5f46c3af6bda6048e83300a81dec6e2caf0713be1f8ac5d3915e5c0044a3b41d1583872a14735d4c22eb90ec619df73f1b250e8ad9f2f1264dac00000000"
    }
  ]
}