{
  "hash": "000000003571fe470db466ef0ba2e0e3dd987473054992b86c40a1914282bc96",
  "confirmations": 48443,
  "height": 4655,
  "version": 1,
  "versionHex": "00000001",
  "merkleroot": "cda54518b57887475cbc4eb80c3e55c764d4be5249c72e260d52e140e0b20388",
  "time": 1234894819,
  "mediantime": 1234891361,
  "nonce": 2137022008,
  "bits": "1d00ffff",
  "difficulty": 1,
  "chainwork": "0000000000000000000000000000000000000000000000000000123012301230",
  "nTx": 1,
  "previousblockhash": "000000007a73100c50a018f8ebfd19878fe0e8d1107bb8433633cf6cd21aecbd",
  "nextblockhash": "000000008cdc2b9644f029150a3da3ac27491a4c69826bb40f3bb47e5d123d2d",
  "strippedsize": 216,
  "size": 216,
  "weight": 864,
  "tx": [
    {
      "txid": "cda54518b57887475cbc4eb80c3e55c764d4be5249c72e260d52e140e0b20388",
      "hash": "cda54518b57887475cbc4eb80c3e55c764d4be5249c72e260d52e140e0b20388",
      "version": 1,
      "size": 135,
      "vsize": 135,
      "weight": 540,
      "locktime": 0,
      "vin": [
        {
          "coinbase": "04ffff001d02cb01",
          "sequence": 4294967295
        }
      ],
      "vout": [
        {
          "value": 50.0,
          "n": 0,
          "scriptPubKey": {
            "asm": "04cadeb16ddd6719d3cdebc9c8d33f40b5d06c765df6859f38b8774f36fd35c28835daa4fd8ecc37dae87eba1d40f8bc11d75748c57e847f508406bf47dd51e92e OP_CHECKSIG",
            "desc": "pk(04cadeb16ddd6719d3cdebc9c8d33f40b5d06c765df6859f38b8774f36fd35c28835daa4fd8ecc37dae87eba1d40f8bc11d75748c57e847f508406bf47dd51e92e)#g43df4tf",
            "hex": "4104cadeb16ddd6719d3cdebc9c8d33f40b5d06c765df6859f38b8774f36fd35c28835daa4fd8ecc37dae87eba1d40f8bc11d75748c57e847f508406bf47dd51e92eac",
            "type": "pubkey"
          }
        }
      ],
      "hex": "01000000010000000000000000000000000000000000000000000000000000000000000000ffffffff0804ffff001d02cb01ffffffff0100f2052a01000000434104cadeb16ddd6719d3cdebc9c8d33f40b5d06c765df6859f38b8774f36fd35c28835daa4fd8ecc37dae87eba1d40f8bc11d75748c57e847f508406bf47dd51e92eac00000000"
    }
  ]
}