{
  "hash": "000000008ab64905a9d1934644de027e699ce7b161e9c6f50a2d9999ed0b7044",
  "confirmations": 45284,
  "height": 7814,
  "version": 1,
  "versionHex": "00000001",
  "merkleroot": "fa9bb7d32c1afe4741c0ff83ab7161a4511bcb627b47b1f24fa47a95ce50323a",
  "time": 1237323675,
  "mediantime": 1237319685,
  "nonce": 20338441,
  "bits": "1d00ffff",
  "difficulty": 1,
  "chainwork": "00000000000000000000000000000000000000000000000000001e871e871e87",
  "nTx": 1,
  "previousblockhash": "00000000cd97ce214aeea3b53324568a1a2d4a79ee47f26d91cb81f1b6eebd3e",
  "nextblockhash": "00000000e30ac67f7c952ea9fa8ed9e0384b6546e70498b738a5ce5978134af8",
  "strippedsize": 216,
  "size": 216,
  "weight": 864,
  "tx": [
    {
      "txid": "fa9bb7d32c1afe4741c0ff83ab7161a4511bcb627b47b1f24fa47a95ce50323a",
      "hash": "fa9bb7d32c1afe4741c0ff83ab7161a4511bcb627b47b1f24fa47a95ce50323a",
      "version": 1,
      "size": 135,
      "vsize": 135,
      "weight": 540,
      "locktime": 0,
      "vin": [
        {
          "coinbase": "04ffff001d023709",
          "sequence": 4294967295
        }
      ],
      "vout": [
        {
          "value": 50.0,
          "n": 0,
          "scriptPubKey": {
            "asm": "04aae857dc56fcb5b1fceadf288fdb9b958a01dbc8c45e51d33715ec0c0b3e113013c883a1904adbbfc6a5823c125ade4f5cbddc5b4e8bc30a3bc2b27223f7394f OP_CHECKSIG",
            "desc": "pk(04aae857dc56fcb5b1fceadf288fdb9b958a01dbc8c45e51d33715ec0c0b3e113013c883a1904adbbfc6a5823c125ade4f5cbddc5b4e8bc30a3bc2b27223f7394f)#600ewzg5",
            "hex": "4104aae857dc56fcb5b1fceadf288fdb9b958a01dbc8c45e51d33715ec0c0b3e113013c883a1904adbbfc6a5823c125ade4f5cbddc5b4e8bc30a3bc2b27223f7394fac",
            "type": "pubkey"
          }
        }
      ],
      "hex": "01000000010000000000000000000000000000000000000000000000000000000000000000ffffffff0804ffff001d023709ffffffff0100f2052a01000000434104aae857dc56fcb5b1fceadf288fdb9b958a01dbc8c45e51d33715ec0c0b3e113013c883a1904adbbfc6a5823c125ade4f5cbddc5b4e8bc30a3bc2b27223f7394fac00000000"
    }
  ]
}