{
  "hash": "00000000cf29a2367f90e4c81e32cf8a00d02f2c824697c4cf473ed1d8adec23",
  "confirmations": 51165,
  "height": 1933,
  "version": 1,
  "versionHex": "00000001",
  "merkleroot": "f2f000afa153cfd3864dc8c0f35a3faad748b55f1973f6b0db23b37ac9c9a60b",
  "time": 1232994159,
  "mediantime": 1232989459,
  "nonce": 653079854,
  "bits": "1d00ffff",
  "difficulty": 1,
  "chainwork": "0000000000000000000000000000000000000000000000000000078e078e078e",
  "nTx": 1,
  "previousblockhash": "000000009bb7b47ddffa6ca1e28f110914d54e9cbf912e2d366f30016932b9d9",
  "nextblockhash": "0000000014508be38bb90f3be774d262c209303a51c71bbf3102a458f39b8e3e",
  "strippedsize": 215,
  "size": 215,
  "weight": 860,
  "tx": [
    {
      "txid": "f2f000afa153cfd3864dc8c0f35a3faad748b55f1973f6b0db23b37ac9c9a60b",
      "hash": "f2f000afa153cfd3864dc8c0f35a3faad748b55f1973f6b0db23b37ac9c9a60b",
      "version": 1,
      "size": 134,
      "vsize": 134,
      "weight": 536,
      "locktime": 0,
      "vin": [
        {
          "coinbase": "04ffff001d0155",
          "sequence": 4294967295
        }
      ],
      "vout": [
        {
          "value": 50.0,
          "n": 0,
          "scriptPubKey": {
            "asm": "04db012fc172b3df775c270355ac1e04a7edb31afa1c8a616ce03254cab70cb0dc09e1516d791c07fdd86c43b3e5f908c9fc82d8594d3a5ee300bdc8d0efd76071 OP_CHECKSIG",
            "desc": "pk(04db012fc172b3df775c270355ac1e04a7edb31afa1c8a616ce03254cab70cb0dc09e1516d791c07fdd86c43b3e5f908c9fc82d8594d3a5ee300bdc8d0efd76071)#fargzt8x",
            "hex": "4104db012fc172b3df775c270355ac1e04a7edb31afa1c8a616ce03254cab70cb0dc09e1516d791c07fdd86c43b3e5f908c9fc82d8594d3a5ee300bdc8d0efd76071ac",
            "type": "pubkey"
          }
        }
      ],
      "hex": "01000000010000000000000000000000000000000000000000000000000000000000000000ffffffff0704ffff001d0155ffffffff0100f2052a01000000434104db012fc172b3df775c270355ac1e04a7edb31afa1c8a616ce03254cab70cb0dc09e1516d791c07fdd86c43b3e5f908c9fc82d8594d3a5ee300bdc8d0efd76071ac00000000"
    }
  ]
}