{
  "hash": "00000000a588431277ece14d08d79f3f2ea6a937f7e2571a9246f7a3e7752614",
  "confirmations": 45900,
  "height": 7198,
  "version": 1,
  "versionHex": "00000001",
  "merkleroot": "bbd7b4f5c1035b6a6413c7bd5c9a523fe9d1dbf315a6a27df80565c1ec2939f7",
  "time": 1236868963,
  "mediantime": 1236864572,
  "nonce": 3906417202,
  "bits": "1d00ffff",
  "difficulty": 1,
  "chainwork": "00000000000000000000000000000000000000000000000000001c1f1c1f1c1f",
  "nTx": 1,
  "previousblockhash": "0000000014b203ca88a1aa26a8302a7075e3344d5fbc80fc0988e4402254c8ca",
  "nextblockhash": "00000000a063fd1a980aa4a1347f935a419ace3f25146d46966f7cbb861d1a5d",
  "strippedsize": 216,
  "size": 216,
  "weight": 864,
  "tx": [
    {
      "txid": "bbd7b4f5c1035b6a6413c7bd5c9a523fe9d1dbf315a6a27df80565c1ec2939f7",
      "hash": "bbd7b4f5c1035b6a6413c7bd5c9a523fe9d1dbf315a6a27df80565c1ec2939f7",
      "version": 1,
      "size": 135,
      "vsize": 135,
      "weight": 540,
      "locktime": 0,
      "vin": [
        {
          "coinbase": "04ffff001d02a705",
          "sequence": 4294967295
        }
      ],
      "vout": [
        {
          "value": 50.0,
          "n": 0,
          "scriptPubKey": {
            "asm": "045530bf61cadb90ce3b4b5f1c63bb22c58cc7c0d7e5b1bd8fe863284e6e4d1a7d17132f3c0894510ccc0da5fa1882824a4ccd249010e0e1dbad0e3030ca302f76 OP_CHECKSIG",
            "desc": "pk(045530bf61cadb90ce3b4b5f1c63bb22c58cc7c0d7e5b1bd8fe863284e6e4d1a7d17132f3c0894510ccc0da5fa1882824a4ccd249010e0e1dbad0e3030ca302f76)#yemtpnd5",
            "hex": "41045530bf61cadb90ce3b4b5f1c63bb22c58cc7c0d7e5b1bd8fe863284e6e4d1a7d17132f3c0894510ccc0da5fa1882824a4ccd249010e0e1dbad0e3030ca302f76ac",
            "type": "pubkey"
          }
        }
      ],
      "hex": "01000000010000000000000000000000000000000000000000000000000000000000000000ffffffff0804ffff001d02a705ffffffff0100f2052a010000004341045530bf61cadb90ce3b4b5f1c63bb22c58cc7c0d7e5b1bd8fe863284e6e4d1a7d17132f3c0894510ccc0da5fa1882824a4ccd249010e0e1dbad0e3030ca302f76ac00000000"
    }
  ]
}