{
  "hash": "00000000eb8c12cc256bf23dc6cf4769463757e65db3683277513fe5a3597a63",
  "confirmations": 44039,
  "height": 9059,
  "version": 1,
  "versionHex": "00000001",
  "merkleroot": "f071547a001d374d393ffc6aa849eb2deee47922132ba395ab0d2cb1878c8eb2",
  "time": 1238301874,
  "mediantime": 1238297504,
  "nonce": 247283763,
  "bits": "1d00ffff",
  "difficulty": 1,
  "chainwork": "0000000000000000000000000000000000000000000000000000236423642364",
  "nTx": 1,
  "previousblockhash": "00000000970a3b8dd07707ab6707a616a6f70e23bc63a273533166468cd407b6",
  "nextblockhash": "00000000c0aba4339f7db7148c87ef284fcf580183252c797f89cbaa339ec661",
  "strippedsize": 216,
  "size": 216,
  "weight": 864,
  "tx": [
    {
      "txid": "f071547a001d374d393ffc6aa849eb2deee47922132ba395ab0d2cb1878c8eb2",
      "hash": "f071547a001d374d393ffc6aa849eb2deee47922132ba395ab0d2cb1878c8eb2",
      "version": 1,
      "size": 135,
      "vsize": 135,
      "weight": 540,
      "locktime": 0,
      "vin": [
        {
          "coinbase": "04ffff001d027707",
          "sequence": 4294967295
        }
      ],
      "vout": [
        {
          "value": 50.0,
          "n": 0,
          "scriptPubKey": {
            "asm": "04a2cdbb9819189cc95739a7f7769143de2d38aa2c7c54c94b51ea229624c18402a96ef079885a87201fecaa9de1dc77da24bf3b52c4e1313737836c88fcffccc4 OP_CHECKSIG",
            "desc": "pk(04a2cdbb9819189cc95739a7f7769143de2d38aa2c7c54c94b51ea229624c18402a96ef079885a87201fecaa9de1dc77da24bf3b52c4e1313737836c88fcffccc4)#eqk6tvtm",
            "hex": "4104a2cdbb9819189cc95739a7f7769143de2d38aa2c7c54c94b51ea229624c18402a96ef079885a87201fecaa9de1dc77da24bf3b52c4e1313737836c88fcffccc4ac",
            "type": "pubkey"
          }
        }
      ],
      "hex": "01000000010000000000000000000000000000000000000000000000000000000000000000ffffffff0804ffff001d027707ffffffff0100f2052a01000000434104a2cdbb9819189cc95739a7f7769143de2d38aa2c7c54c94b51ea229624c18402a96ef079885a87201fecaa9de1dc77da24bf3b52c4e1313737836c88fcffccc4ac00000000"
    }
  ]
}