{
  "hash": "000000000a827cddf4a562109923ca8102421e7f3affcfd88c66c87d63959180",
  "confirmations": 52093,
  "height": 241,
  "version": 1,
  "versionHex": "00000001",
  "merkleroot": "4cb9f652eff11c0ca4d91950540f82f7aaf0d3dfa2b650234633640149915b3e",
  "time": 1231784201,
  "mediantime": 1231781159,
  "nonce": 518024505,
  "bits": "1d00ffff",
  "difficulty": 1,
  "chainwork": "000000000000000000000000000000000000000000000000000000f200f200f2",
  "nTx": 1,
  "previousblockhash": "00000000bdb3f5b06d2b5a55b85758d1df4a7cf49afe075f94fff5d1bbea4aa8",
  "nextblockhash": "00000000bd0f11ce95423513cc30ed6990fe8170b9a2edfcc1cbd9b89bbcf0df",
  "strippedsize": 216,
  "size": 216,
  "weight": 864,
  "tx": [
    {
      "txid": "4cb9f652eff11c0ca4d91950540f82f7aaf0d3dfa2b650234633640149915b3e",
      "hash": "4cb9f652eff11c0ca4d91950540f82f7aaf0d3dfa2b650234633640149915b3e",
      "version": 1,
      "size": 135,
      "vsize": 135,
      "weight": 540,
      "locktime": 0,
      "vin": [
        {
          "coinbase": "04ffff001d02e400",
          "sequence": 4294967295
        }
      ],
      "vout": [
        {
          "value": 50.0,
          "n": 0,
          "scriptPubKey": {
            "asm": "04f5f17b29cbb1dc3b9041011f364a0254a201480248350d9bb18acd9cd435b99ef4dccd964e571d1bb6d43a3699001a24b8cf11322fb99b268a9f8d16639930ad OP_CHECKSIG",
            "desc": "pk(04f5f17b29cbb1dc3b9041011f364a0254a201480248350d9bb18acd9cd435b99ef4dccd964e571d1bb6d43a3699001a24b8cf11322fb99b268a9f8d16639930ad)#xjzlpmze",
            "hex": "4104f5f17b29cbb1dc3b9041011f364a0254a201480248350d9bb18acd9cd435b99ef4dccd964e571d1bb6d43a3699001a24b8cf11322fb99b268a9f8d16639930adac",
            "type": "pubkey"
          }
        }
      ],
      "hex": "01000000010000000000000000000000000000000000000000000000000000000000000000ffffffff0804ffff001d02e400ffffffff0100f2052a01000000434104f5f17b29cbb1dc3b9041011f364a0254a201480248350d9bb18acd9cd435b99ef4dccd964e571d1bb6d43a3699001a24b8cf11322fb99b268a9f8d16639930adac00000000"
    }
  ]
}