{
  "hash": "00000000c4512a444a69c0671c9b9910624981f7fc6ac5b44b78fd6613f79184",
  "confirmations": 48072,
  "height": 5026,
  "version": 1,
  "versionHex": "00000001",
  "merkleroot": "270b10d246d191fe80bba68e3eb71354b7ac1d229c25a03a8a4b806634e58e0c",
  "time": 1235155874,
  "mediantime": 1235151065,
  "nonce": 3058433074,
  "bits": "1d00ffff",
  "difficulty": 1,
  "chainwork": "000000000000000000000000000000000000000000000000000013a313a313a3",
  "nTx": 1,
  "previousblockhash": "00000000f312b1fcbfdf1b5a75d2414e4f3d1e28fd90f2e45c1a4a677cca45f1",
  "nextblockhash": "00000000cd4e2942b678d341aaa6469a832b5492138bff5e650a785dda241cdd",
  "strippedsize": 216,
  "size": 216,
  "weight": 864,
  "tx": [
    {
      "txid": "270b10d246d191fe80bba68e3eb71354b7ac1d229c25a03a8a4b806634e58e0c",
      "hash": "270b10d246d191fe80bba68e3eb71354b7ac1d229c25a03a8a4b806634e58e0c",
      "version": 1,
      "size": 135,
      "vsize": 135,
      "weight": 540,
      "locktime": 0,
      "vin": [
        {
          "coinbase": "04ffff001d027c07",
          "sequence": 4294967295
        }
      ],
      "vout": [
        {
          "value": 50.0,
          "n": 0,
          "scriptPubKey": {
            "asm": "04bcef88f6363d8ac1f147d9406a1ac26921c9719b54c2495ad7cdfc54e88c707bf69924d6e5dbcce658ab44f9d4da6cae26ef64f9f6743916211bbcc1bcc9932f OP_CHECKSIG",
            "desc": "pk(04bcef88f6363d8ac1f147d9406a1ac26921c9719b54c2495ad7cdfc54e88c707bf69924d6e5dbcce658ab44f9d4da6cae26ef64f9f6743916211bbcc1bcc9932f)#mtcmpkv5",
            "hex": "4104bcef88f6363d8ac1f147d9406a1ac26921c9719b54c2495ad7cdfc54e88c707bf69924d6e5dbcce658ab44f9d4da6cae26ef64f9f6743916211bbcc1bcc9932fac",
            "type": "pubkey"
          }
        }
      ],
      "hex": "01000000010000000000000000000000000000000000000000000000000000000000000000ffffffff0804ffff001d027c07ffffffff0100f2052a01000000434104bcef88f6363d8ac1f147d9406a1ac26921c9719b54c2495ad7cdfc54e88c707bf69924d6e5dbcce658ab44f9d4da6cae26ef64f9f6743916211bbcc1bcc9932fac00000000"
    }
  ]
}