{
  "hash": "0000000014968cc5dbf73179697c8faa3055c668b236cb7436b166b5753378e6",
  "confirmations": 52062,
  "height": 1036,
  "version": 1,
  "versionHex": "00000001",
  "merkleroot": "85cd55d1efa12f0961027667b809b4e8c8d587bc386243bb379a8a047f30ae20",
  "time": 1232376067,
  "mediantime": 1232370432,
  "nonce": 216357638,
  "bits": "1d00ffff",
  "difficulty": 1,
  "chainwork": "0000000000000000000000000000000000000000000000000000040d040d040d",
  "nTx": 1,
  "previousblockhash": "00000000bc0c29229324b6b2d483ce7da1c9adbd406cbcf5aeb8824c0b5fef7c",
  "nextblockhash": "00000000182b06a9e48db4835b47500102d0363e37513f4d330295cc94aabf74",
  "strippedsize": 216,
  "size": 216,
  "weight": 864,
  "tx": [
    {
      "txid": "85cd55d1efa12f0961027667b809b4e8c8d587bc386243bb379a8a047f30ae20",
      "hash": "85cd55d1efa12f0961027667b809b4e8c8d587bc386243bb379a8a047f30ae20",
      "version": 1,
      "size": 135,
      "vsize": 135,
      "weight": 540,
      "locktime": 0,
      "vin": [
        {
          "coinbase": "04ffff001d02b705",
          "sequence": 4294967295
        }
      ],
      "vout": [
        {
          "value": 50.0,
          "n": 0,
          "scriptPubKey": {
            "asm": "040ca41c5d40b6ccc95354ebb73cebb88d463b367433f586c9bcaaedefeda95a714a68797e62684be2c7d32e5976d7609e9a957cd8722db0f227140071c557acd0 OP_CHECKSIG",
            "desc": "pk(040ca41c5d40b6ccc95354ebb73cebb88d463b367433f586c9bcaaedefeda95a714a68797e62684be2c7d32e5976d7609e9a957cd8722db0f227140071c557acd0)#0tmdcyjx",
            "hex": "41040ca41c5d40b6ccc95354ebb73cebb88d463b367433f586c9bcaaedefeda95a714a68797e62684be2c7d32e5976d7609e9a957cd8722db0f227140071c557acd0ac",
            "type": "pubkey"
          }
        }
      ],
      "hex": "01000000010000000000000000000000000000000000000000000000000000000000000000ffffffff0804ffff001d02b705ffffffff0100f2052a010000004341040ca41c5d40b6ccc95354ebb73cebb88d463b367433f586c9bcaaedefeda95a714a68797e62684be2c7d32e5976d7609e9a957cd8722db0f227140071c557acd0ac00000000"
    }
  ]
}