{
  "hash": "00000000b48f9e71a1313a6c3ccc4234345b5b134baf48f32c629dcfef546686",
  "confirmations": 47768,
  "height": 5330,
  "version": 1,
  "versionHex": "00000001",
  "merkleroot": "5198bd7ee0240537ffd7a1fd3bd81eca93c627819810e85c73e663ec95af8b8e",
  "time": 1235386886,
  "mediantime": 1235382797,
  "nonce": 3114958123,
  "bits": "1d00ffff",
  "difficulty": 1,
  "chainwork": "000000000000000000000000000000000000000000000000000014d314d314d3",
  "nTx": 1,
  "previousblockhash": "0000000040298fb6cf9a5694b0553d93f82d3d5aadca420bf50182b8a9c1673e",
  "nextblockhash": "000000009efdd8d604a9250d5fc1cc992139b5ace5580a5fe00494ef99f016d7",
  "strippedsize": 216,
  "size": 216,
  "weight": 864,
  "tx": [
    {
      "txid": "5198bd7ee0240537ffd7a1fd3bd81eca93c627819810e85c73e663ec95af8b8e",
      "hash": "5198bd7ee0240537ffd7a1fd3bd81eca93c627819810e85c73e663ec95af8b8e",
      "version": 1,
      "size": 135,
      "vsize": 135,
      "weight": 540,
      "locktime": 0,
      "vin": [
        {
          "coinbase": "04ffff001d027b02",
          "sequence": 4294967295
        }
      ],
      "vout": [
        {
          "value": 50.0,
          "n": 0,
          "scriptPubKey": {
            "asm": "042703d378f71ab6b9d5d5d70f69350e0f962a33c1c14dff8448b20a08081cb1a69c4a2772ccba49abf713674b993bc972b184f567e92c09a6b174676946f0d6e6 OP_CHECKSIG",
            "desc": "pk(042703d378f71ab6b9d5d5d70f69350e0f962a33c1c14dff8448b20a08081cb1a69c4a2772ccba49abf713674b993bc972b184f567e92c09a6b174676946f0d6e6)#xhgenw0s",
            "hex": "41042703d378f71ab6b9d5d5d70f69350e0f962a33c1c14dff8448b20a08081cb1a69c4a2772ccba49abf713674b993bc972b184f567e92c09a6b174676946f0d6e6ac",
            "type": "pubkey"
          }
        }
      ],
      "hex": "01000000010000000000000000000000000000000000000000000000000000000000000000ffffffff0804ffff001d027b02ffffffff0100f2052a010000004341042703d378f71ab6b9d5d5d70f69350e0f962a33c1c14dff8448b20a08081cb1a69c4a2772ccba49abf713674b993bc972b184f567e92c09a6b174676946f0d6e6ac00000000"
    }
  ]
}