{
  "hash": "00000000b0c5a240b2a61d2e75692224efd4cbecdf6eaf4cc2cf477ca7c270e7",
  "confirmations": 52268,
  "height": 496,
  "version": 1,
  "versionHex": "00000001",
  "merkleroot": "4c917a410f4e899195f816081844e56aceda71c4cc4fe634aebe9437e57344bf",
  "time": 1231965655,
  "mediantime": 1231962666,
  "nonce": 2067413810,
  "bits": "1d00ffff",
  "difficulty": 1,
  "chainwork": "000000000000000000000000000000000000000000000000000001f101f101f1",
  "nTx": 2,
  "previousblockhash": "00000000e47349de5a0193abc5a2fe0be81cb1d1987e45ab85f3289d54cddc4d",
  "nextblockhash": "00000000c39ea29ad310c1f80409e24b3fbfd671c0b3599198b7cfdebf790bde",
  "strippedsize": 643,
  "size": 643,
  "weight": 2572,
  "tx": [
    {
      "txid": "77dfc2fe598419b00641c296181a96cf16943697f573480b023b77cce82ada21",
      "hash": "77dfc2fe598419b00641c296181a96cf16943697f573480b023b77cce82ada21",
      "version": 1,
      "size": 135,
      "vsize": 135,
      "weight": 540,
      "locktime": 0,
      "vin": [
        {
          "coinbase": "04ffff001d026e04",
          "sequence": 4294967295
        }
      ],
      "vout": [
        {
          "value": 50.0,
          "n": 0,
          "scriptPubKey": {
            "asm": "0446ef0102d1ec5240f0d061a4246c1bdef63fc3dbab7733052fbbf0ecd8f41fc26bf049ebb4f9527f374280259e7cfa99c48b0e3f39c51347a19a5819651503a5 OP_CHECKSIG",
            "desc": "pk(0446ef0102d1ec5240f0d061a4246c1bdef63fc3dbab7733052fbbf0ecd8f41fc26bf049ebb4f9527f374280259e7cfa99c48b0e3f39c51347a19a5819651503a5)#sm35774r",
            "hex": "410446ef0102d1ec5240f0d061a4246c1bdef63fc3dbab7733052fbbf0ecd8f41fc26bf049ebb4f9527f374280259e7cfa99c48b0e3f39c51347a19a5819651503a5ac",
            "type": "pubkey"
          }
        }
      ],
      "hex": "01000000010000000000000000000000000000000000000000000000000000000000000000ffffffff0804ffff001d026e04ffffffff0100f2052a0100000043410446ef0102d1ec5240f0d061a4246c1bdef63fc3dbab7733052fbbf0ecd8f41fc26bf049ebb4f9527f374280259e7cfa99c48b0e3f39c51347a19a5819651503a5ac00000000"
    },
    {
      "txid": "a3b0e9e7cddbbe78270fa4182a7675ff00b92872d8df7d14265a2b1e379a9d33",
      "hash": "a3b0e9e7cddbbe78270fa4182a7675ff00b92872d8df7d14265a2b1e379a9d33",
      "version": 1,
      "size": 427,
      "vsize": 427,
      "weight": 1708,
      "locktime": 0,
      "vin": [
        {
          "txid": "264299886446921c89e598ec2b1ec3eab6a2c9b0235b310ff513a039315ff721",
          "vout": 0,
          "scriptSig": {
            "asm": "3045022100cb2c6b346a978ab8c61b18b5e9397755cbd17d6eb2fe0083ef32e067fa6c785a02206ce44e613f31d9a6b0517e46f3db1576e9812cc98d159bfdaf759a5014081b5c[ALL]",
            "hex": "483045022100cb2c6b346a978ab8c61b18b5e9397755cbd17d6eb2fe0083ef32e067fa6c785a02206ce44e613f31d9a6b0517e46f3db1576e9812cc98d159bfdaf759a5014081b5c01"
          },
          "sequence": 4294967295
        },
        {
          "txid": "4385fcf8b14497d0659adccfe06ae7e38e0b5dc95ff8a13d7c62035994a0cd79",
          "vout": 0,
          "scriptSig": {
            "asm": "3045022047957cdd957cfd0becd642f6b84d82f49b6cb4c51a91f49246908af7c3cfdf4a022100e96b46621f1bffcf5ea5982f88cef651e9354f5791602369bf5a82a6cd61a625[ALL]",
            "hex": "483045022047957cdd957cfd0becd642f6b84d82f49b6cb4c51a91f49246908af7c3cfdf4a022100e96b46621f1bffcf5ea5982f88cef651e9354f5791602369bf5a82a6cd61a62501"
          },
          "sequence": 4294967295
        },
        {
          "txid": "828ef3b079f9c23829c56fe86e85b4a69d9e06e5b54ea597eef5fb3ffef509fe",
          "vout": 0,
          "scriptSig": {
            "asm": "304402204165be9a4cbab8049e1af9723b96199bfd3e85f44c6b4c0177e3962686b26073022028f638da23fc003760861ad481ead4099312c60030d4cb57820ce4d33812a5ce[ALL]",
            "hex": "47304402204165be9a4cbab8049e1af9723b96199bfd3e85f44c6b4c0177e3962686b26073022028f638da23fc003760861ad481ead4099312c60030d4cb57820ce4d33812a5ce01"
          },
          "sequence": 4294967295
        }
      ],
      "vout": [
        {
          "value": 61.0,
          "n": 0,
          "scriptPubKey": {
            "asm": "04ea1feff861b51fe3f5f8a3b12d0f4712db80e919548a80839fc47c6a21e66d957e9c5d8cd108c7a2d2324bad71f9904ac0ae7336507d785b17a2c115e427a32f OP_CHECKSIG",
            "desc": "pk(04ea1feff861b51fe3f5f8a3b12d0f4712db80e919548a80839fc47c6a21e66d957e9c5d8cd108c7a2d2324bad71f9904ac0ae7336507d785b17a2c115e427a32f)#3wvgpsrs",
            "hex": "4104ea1feff861b51fe3f5f8a3b12d0f4712db80e919548a80839fc47c6a21e66d957e9c5d8cd108c7a2d2324bad71f9904ac0ae7336507d785b17a2c115e427a32fac",
            "type": "pubkey"
          }
        }
      ],
      "fee": 0.0,
      "hex": "010000000321f75f3139a013f50f315b23b0c9a2b6eac31e2bec98e5891c924664889942260000000049483045022100cb2c6b346a978ab8c61b18b5e9397755cbd17d6eb2fe0083ef32e067fa6c785a02206ce44e613f31d9a6b0517e46f3db1576e9812cc98d159bfdaf759a5014081b5c01ffffffff79cda0945903627c3da1f85fc95d0b8ee3e76ae0cfdc9a65d09744b1f8fc85430000000049483045022047957cdd957cfd0becd642f6b84d82f49b6cb4c51a91f49246908af7c3cfdf4a022100e96b46621f1bffcf5ea5982f88cef651e9354f5791602369bf5a82a6cd61a62501fffffffffe09f5fe3ffbf5ee97a54eb5e5069e9da6b4856ee86fc52938c2f979b0f38e82000000004847304402204165be9a4cbab8049e1af9723b96199bfd3e85f44c6b4c0177e3962686b26073022028f638da23fc003760861ad481ead4099312c60030d4cb57820ce4d33812a5ce01ffffffff01009d966b01000000434104ea1feff861b51fe3f5f8a3b12d0f4712db80e919548a80839fc47c6a21e66d957e9c5d8cd108c7a2d2324bad71f9904ac0ae7336507d785b17a2c115e427a32fac00000000"
    }
  ]
}