{
  "hash": "000000001b948bd130c624bf47e179b6e171b2f83f0852023b2eaa515ab1b288",
  "confirmations": 46292,
  "height": 6806,
  "version": 1,
  "versionHex": "00000001",
  "merkleroot": "7ccf2ad8e46fef9ac18c4a07041d6176da6a2af8565cf2770b38573ee54d6293",
  "time": 1236562052,
  "mediantime": 1236558810,
  "nonce": 175578305,
  "bits": "1d00ffff",
  "difficulty": 1,
  "chainwork": "00000000000000000000000000000000000000000000000000001a971a971a97",
  "nTx": 1,
  "previousblockhash": "000000006731670d0f391601c38e6736111f23ea6b746920959d828bee6913ab",
  "nextblockhash": "00000000e413576d022ccb3c655160b2e201b71791b1f2c7db684ecf9386b3e2",
  "strippedsize": 215,
  "size": 215,
  "weight": 860,
  "tx": [
    {
      "txid": "7ccf2ad8e46fef9ac18c4a07041d6176da6a2af8565cf2770b38573ee54d6293",
      "hash": "7ccf2ad8e46fef9ac18c4a07041d6176da6a2af8565cf2770b38573ee54d6293",
      "version": 1,
      "size": 134,
      "vsize": 134,
      "weight": 536,
      "locktime": 0,
      "vin": [
        {
          "coinbase": "04ffff001d0142",
          "sequence": 4294967295
        }
      ],
      "vout": [
        {
          "value": 50.0,
          "n": 0,
          "scriptPubKey": {
            "asm": "04669118740fbe8dc845ae33b77a9e8773b1c94c6591ef5544e32cdfc3713da37fb99932087e7eb2f75db334542edd8e5ad8b568054dddc34c293c260ad1d919e0 OP_CHECKSIG",
            "desc": "pk(04669118740fbe8dc845ae33b77a9e8773b1c94c6591ef5544e32cdfc3713da37fb99932087e7eb2f75db334542edd8e5ad8b568054dddc34c293c260ad1d919e0)#wk83lxgh",
            "hex": "4104669118740fbe8dc845ae33b77a9e8773b1c94c6591ef5544e32cdfc3713da37fb99932087e7eb2f75db334542edd8e5ad8b568054dddc34c293c260ad1d919e0ac",
            "type": "pubkey"
          }
        }
      ],
      "hex": "01000000010000000000000000000000000000000000000000000000000000000000000000ffffffff0704ffff001d0142ffffffff0100f2052a01000000434104669118740fbe8dc845ae33b77a9e8773b1c94c6591ef5544e32cdfc3713da37fb99932087e7eb2f75db334542edd8e5ad8b568054dddc34c293c260ad1d919e0ac00000000"
    }
  ]
}