{
  "hash": "0000000041bc68035e785d030689d2d0c50c019a059bd370d40ea78cb7312a1f",
  "confirmations": 44398,
  "height": 8700,
  "version": 1,
  "versionHex": "00000001",
  "merkleroot": "5651a4766dd3a1312efe1e07ee518bf614b075833959b6eb79846fc40df33290",
  "time": 1238024020,
  "mediantime": 1238021032,
  "nonce": 91419215,
  "bits": "1d00ffff",
  "difficulty": 1,
  "chainwork": "000000000000000000000000000000000000000000000000000021fd21fd21fd",
  "nTx": 1,
  "previousblockhash": "00000000a9fb407374d712ae1e90d569e5472b1979c2b9a2bec7d92450d9578e",
  "nextblockhash": "000000007a7f2fc8caf6f4b7ba2a661f086999e5d9f6d56aaaca148c11f5ed10",
  "strippedsize": 216,
  "size": 216,
  "weight": 864,
  "tx": [
    {
      "txid": "5651a4766dd3a1312efe1e07ee518bf614b075833959b6eb79846fc40df33290",
      "hash": "5651a4766dd3a1312efe1e07ee518bf614b075833959b6eb79846fc40df33290",
      "version": 1,
      "size": 135,
      "vsize": 135,
      "weight": 540,
      "locktime": 0,
      "vin": [
        {
          "coinbase": "04ffff001d02af0c",
          "sequence": 4294967295
        }
      ],
      "vout": [
        {
          "value": 50.0,
          "n": 0,
          "scriptPubKey": {
            "asm": "04b11e6845e8a927a8733e4174af8afd4cdb6d166d2336f33b6f2165b4c71820aa5a3d5e33ecc7a8c8fc0e1bc08c5f05d0e432dec2b7b3184660747a03cbb1e289 OP_CHECKSIG",
            "desc": "pk(04b11e6845e8a927a8733e4174af8afd4cdb6d166d2336f33b6f2165b4c71820aa5a3d5e33ecc7a8c8fc0e1bc08c5f05d0e432dec2b7b3184660747a03cbb1e289)#zxkp9tu7",
            "hex": "4104b11e6845e8a927a8733e4174af8afd4cdb6d166d2336f33b6f2165b4c71820aa5a3d5e33ecc7a8c8fc0e1bc08c5f05d0e432dec2b7b3184660747a03cbb1e289ac",
            "type": "pubkey"
          }
        }
      ],
      "hex": "01000000010000000000000000000000000000000000000000000000000000000000000000ffffffff0804ffff001d02af0cffffffff0100f2052a01000000434104b11e6845e8a927a8733e4174af8afd4cdb6d166d2336f33b6f2165b4c71820aa5a3d5e33ecc7a8c8fc0e1bc08c5f05d0e432dec2b7b3184660747a03cbb1e289ac00000000"
    }
  ]
}