{
  "hash": "0000000031975f17c5642a9c7e53ae4201a70a6ba6363036b55497b8754d1866",
  "confirmations": 51895,
  "height": 64,
  "version": 1,
  "versionHex": "00000001",
  "merkleroot": "ebdb8335d5b148e9cc1b1bb795ee619a649bd1638e5514fdfc3004b1c56fd6a4",
  "time": 1231624107,
  "mediantime": 1231620928,
  "nonce": 82803279,
  "bits": "1d00ffff",
  "difficulty": 1,
  "chainwork": "0000000000000000000000000000000000000000000000000000004100410041",
  "nTx": 1,
  "previousblockhash": "00000000ebff91c88984bff39511f544a1c4ef6ec4f33e2ea531e47c2685628e",
  "nextblockhash": "00000000aae47d47b6ff5eda6abab09cd6720684b1368eac70ac4240b3c90250",
  "strippedsize": 215,
  "size": 215,
  "weight": 860,
  "tx": [
    {
      "txid": "ebdb8335d5b148e9cc1b1bb795ee619a649bd1638e5514fdfc3004b1c56fd6a4",
      "hash": "ebdb8335d5b148e9cc1b1bb795ee619a649bd1638e5514fdfc3004b1c56fd6a4",
      "version": 1,
      "size": 134,
      "vsize": 134,
      "weight": 536,
      "locktime": 0,
      "vin": [
        {
          "coinbase": "04ffff001d0106",
          "sequence": 4294967295
        }
      ],
      "vout": [
        {
          "value": 50.0,
          "n": 0,
          "scriptPubKey": {
            "asm": "0419ba01c19d1c68af6bc780289ec1a5d4c181e81089f275325c6e1abc1c2f44c67d99ba9be5d3b9c0b903a8655b853c62717bb99924a1d9bf501d3f9f12b56dc5 OP_CHECKSIG",
            "desc": "pk(0419ba01c19d1c68af6bc780289ec1a5d4c181e81089f275325c6e1abc1c2f44c67d99ba9be5d3b9c0b903a8655b853c62717bb99924a1d9bf501d3f9f12b56dc5)#kruf3wxx",
            "hex": "410419ba01c19d1c68af6bc780289ec1a5d4c181e81089f275325c6e1abc1c2f44c67d99ba9be5d3b9c0b903a8655b853c62717bb99924a1d9bf501d3f9f12b56dc5ac",
            "type": "pubkey"
          }
        }
      ],
      "hex": "01000000010000000000000000000000000000000000000000000000000000000000000000ffffffff0704ffff001d0106ffffffff0100f2052a0100000043410419ba01c19d1c68af6bc780289ec1a5d4c181e81089f275325c6e1abc1c2f44c67d99ba9be5d3b9c0b903a8655b853c62717bb99924a1d9bf501d3f9f12b56dc5ac00000000"
    }
  ]
}