{
  "hash": "000000007c4ac02d6a442170cc02dd26e1cb9e98d8e20c5d80b431d1fe2c9fc7",
  "confirmations": 44090,
  "height": 9008,
  "version": 1,
  "versionHex": "00000001",
  "merkleroot": "9bfff9a152d358b0d67e561c9e882d93c92c092c84a5e112d620cbc913f7b998",
  "time": 1238257133,
  "mediantime": 1238254245,
  "nonce": 3846419995,
  "bits": "1d00ffff",
  "difficulty": 1,
  "chainwork": "0000000000000000000000000000000000000000000000000000233123312331",
  "nTx": 1,
  "previousblockhash": "00000000e4a25e5979f06f2eb95c8bb2e80b0d0ded6ad3508a8ca1b8cb59265c",
  "nextblockhash": "00000000b428c06480f909c7424c17c292c2068b5b52584010aeda8294ca89d3",
  "strippedsize": 216,
  "size": 216,
  "weight": 864,
  "tx": [
    {
      "txid": "9bfff9a152d358b0d67e561c9e882d93c92c092c84a5e112d620cbc913f7b998",
      "hash": "9bfff9a152d358b0d67e561c9e882d93c92c092c84a5e112d620cbc913f7b998",
      "version": 1,
      "size": 135,
      "vsize": 135,
      "weight": 540,
      "locktime": 0,
      "vin": [
        {
          "coinbase": "04ffff001d028406",
          "sequence": 4294967295
        }
      ],
      "vout": [
        {
          "value": 50.0,
          "n": 0,
          "scriptPubKey": {
            "asm": "048a1d8ce3568307d348095e3a8213a5e7f2a094868350be4d311234f727720c58821fa0449b7b82b5dd99054e37d494e8045f799f900fdd0e155ac7a5334e2fc9 OP_CHECKSIG",
            "desc": "pk(048a1d8ce3568307d348095e3a8213a5e7f2a094868350be4d311234f727720c58821fa0449b7b82b5dd99054e37d494e8045f799f900fdd0e155ac7a5334e2fc9)#3kjy4x9h",
            "hex": "41048a1d8ce3568307d348095e3a8213a5e7f2a094868350be4d311234f727720c58821fa0449b7b82b5dd99054e37d494e8045f799f900fdd0e155ac7a5334e2fc9ac",
            "type": "pubkey"
          }
        }
      ],
      "hex": "01000000010000000000000000000000000000000000000000000000000000000000000000ffffffff0804ffff001d028406ffffffff0100f2052a010000004341048a1d8ce3568307d348095e3a8213a5e7f2a094868350be4d311234f727720c58821fa0449b7b82b5dd99054e37d494e8045f799f900fdd0e155ac7a5334e2fc9ac00000000"
    }
  ]
}