{
  "hash": "00000000c51a9d2f4fa8a39fddea8e7666fe212f1bb10b9a65e7d6f13554a652",
  "confirmations": 50429,
  "height": 2669,
  "version": 1,
  "versionHex": "00000001",
  "merkleroot": "f02cae17a2ed8c0dd48b696f99dd29b8a0cd1218a960587c81d376458c42659a",
  "time": 1233540804,
  "mediantime": 1233537086,
  "nonce": 161322573,
  "bits": "1d00ffff",
  "difficulty": 1,
  "chainwork": "00000000000000000000000000000000000000000000000000000a6e0a6e0a6e",
  "nTx": 1,
  "previousblockhash": "00000000b649b594c7f46bb805ad060248a078eb721f5754613e5c2ed7b21243",
  "nextblockhash": "00000000794981ee7b4866a799bfd474b03da9fea865e58625d7168c89007fdc",
  "strippedsize": 215,
  "size": 215,
  "weight": 860,
  "tx": [
    {
      "txid": "f02cae17a2ed8c0dd48b696f99dd29b8a0cd1218a960587c81d376458c42659a",
      "hash": "f02cae17a2ed8c0dd48b696f99dd29b8a0cd1218a960587c81d376458c42659a",
      "version": 1,
      "size": 134,
      "vsize": 134,
      "weight": 536,
      "locktime": 0,
      "vin": [
        {
          "coinbase": "04ffff001d0150",
          "sequence": 4294967295
        }
      ],
      "vout": [
        {
          "value": 50.0,
          "n": 0,
          "scriptPubKey": {
            "asm": "04596a6491d6c83d6c8bd60bf41a40d393fc6579a38d03e62aec511206f055263f8a8ac26cebf155cc52db60d18dd3b58befe80e8d509972869a3cdf69de245367 OP_CHECKSIG",
            "desc": "pk(04596a6491d6c83d6c8bd60bf41a40d393fc6579a38d03e62aec511206f055263f8a8ac26cebf155cc52db60d18dd3b58befe80e8d509972869a3cdf69de245367)#tn4yx4zy",
            "hex": "4104596a6491d6c83d6c8bd60bf41a40d393fc6579a38d03e62aec511206f055263f8a8ac26cebf155cc52db60d18dd3b58befe80e8d509972869a3cdf69de245367ac",
            "type": "pubkey"
          }
        }
      ],
      "hex": "01000000010000000000000000000000000000000000000000000000000000000000000000ffffffff0704ffff001d0150ffffffff0100f2052a01000000434104596a6491d6c83d6c8bd60bf41a40d393fc6579a38d03e62aec511206f055263f8a8ac26cebf155cc52db60d18dd3b58befe80e8d509972869a3cdf69de245367ac00000000"
    }
  ]
}