{
  "hash": "00000000cf70fce7e95a5fae16afa3ee46723c24f2b6d10de21f0b2460390d9c",
  "confirmations": 48200,
  "height": 4898,
  "version": 1,
  "versionHex": "00000001",
  "merkleroot": "57056603d7421320ced5d3a62064220d5390306f1c993d52b9618e785a07a43e",
  "time": 1235068903,
  "mediantime": 1235065325,
  "nonce": 44571201,
  "bits": "1d00ffff",
  "difficulty": 1,
  "chainwork": "0000000000000000000000000000000000000000000000000000132313231323",
  "nTx": 1,
  "previousblockhash": "00000000aedf74a7cad22401e6776a99bb24c88480c10252f21845ae8d609695",
  "nextblockhash": "000000006c7eddb91900bfa2837a4f594e519ecf2f0b5ace065fbb53a0ebdcdb",
  "strippedsize": 216,
  "size": 216,
  "weight": 864,
  "tx": [
    {
      "txid": "57056603d7421320ced5d3a62064220d5390306f1c993d52b9618e785a07a43e",
      "hash": "57056603d7421320ced5d3a62064220d5390306f1c993d52b9618e785a07a43e",
      "version": 1,
      "size": 135,
      "vsize": 135,
      "weight": 540,
      "locktime": 0,
      "vin": [
        {
          "coinbase": "04ffff001d02e004",
          "sequence": 4294967295
        }
      ],
      "vout": [
        {
          "value": 50.0,
          "n": 0,
          "scriptPubKey": {
            "asm": "0498bfeddcd4e11dc7d88ef44e5ea9745376b91f61ba82445a3b00a12ac39810caec1c5185d39477c35dffce1c1c5a2c267310600520008063b4ad4e7d181c9713 OP_CHECKSIG",
            "desc": "pk(0498bfeddcd4e11dc7d88ef44e5ea9745376b91f61ba82445a3b00a12ac39810caec1c5185d39477c35dffce1c1c5a2c267310600520008063b4ad4e7d181c9713)#lxmx5825",
            "hex": "410498bfeddcd4e11dc7d88ef44e5ea9745376b91f61ba82445a3b00a12ac39810caec1c5185d39477c35dffce1c1c5a2c267310600520008063b4ad4e7d181c9713ac",
            "type": "pubkey"
          }
        }
      ],
      "hex": "01000000010000000000000000000000000000000000000000000000000000000000000000ffffffff0804ffff001d02e004ffffffff0100f2052a0100000043410498bfeddcd4e11dc7d88ef44e5ea9745376b91f61ba82445a3b00a12ac39810caec1c5185d39477c35dffce1c1c5a2c267310600520008063b4ad4e7d181c9713ac00000000"
    }
  ]
}