{
  "hash": "00000000618eb41e00414ccb0c3fb55209f0b29148d5ddec0120cd6debdb126e",
  "confirmations": 47223,
  "height": 5875,
  "version": 1,
  "versionHex": "00000001",
  "merkleroot": "14b8aa5374d107665f7440a7fde879eb487aaac17e3ce6f52e06674a5e3302e6",
  "time": 1235823574,
  "mediantime": 1235818940,
  "nonce": 3586775334,
  "bits": "1d00ffff",
  "difficulty": 1,
  "chainwork": "000000000000000000000000000000000000000000000000000016f416f416f4",
  "nTx": 1,
  "previousblockhash": "00000000850d32f1b3cd207632b5a657b2f0b2de9bf34da0d18bc8a5f20e25c3",
  "nextblockhash": "000000004e3849b0e27840a1b9e9dfc5bcda2633d05865ace5e2941bf88764d5",
  "strippedsize": 216,
  "size": 216,
  "weight": 864,
  "tx": [
    {
      "txid": "14b8aa5374d107665f7440a7fde879eb487aaac17e3ce6f52e06674a5e3302e6",
      "hash": "14b8aa5374d107665f7440a7fde879eb487aaac17e3ce6f52e06674a5e3302e6",
      "version": 1,
      "size": 135,
      "vsize": 135,
      "weight": 540,
      "locktime": 0,
      "vin": [
        {
          "coinbase": "04ffff001d02a102",
          "sequence": 4294967295
        }
      ],
      "vout": [
        {
          "value": 50.0,
          "n": 0,
          "scriptPubKey": {
            "asm": "041dd2ebd89b3e52983cded8de2bf9904cd4744e833c6c62280c6073ab0f89afbeca627492a25363901d31397457bd7dfd9e07a5da340f091371abc30591b2b426 OP_CHECKSIG",
            "desc": "pk(041dd2ebd89b3e52983cded8de2bf9904cd4744e833c6c62280c6073ab0f89afbeca627492a25363901d31397457bd7dfd9e07a5da340f091371abc30591b2b426)#kz3mg2cy",
            "hex": "41041dd2ebd89b3e52983cded8de2bf9904cd4744e833c6c62280c6073ab0f89afbeca627492a25363901d31397457bd7dfd9e07a5da340f091371abc30591b2b426ac",
            "type": "pubkey"
          }
        }
      ],
      "hex": "01000000010000000000000000000000000000000000000000000000000000000000000000ffffffff0804ffff001d02a102ffffffff0100f2052a010000004341041dd2ebd89b3e52983cded8de2bf9904cd4744e833c6c62280c6073ab0f89afbeca627492a25363901d31397457bd7dfd9e07a5da340f091371abc30591b2b426ac00000000"
    }
  ]
}