{
  "hash": "0000000016d9d08f3cf31549e6e96689a9e3444e909c8682cf860f2b79dc2e39",
  "confirmations": 51334,
  "height": 1764,
  "version": 1,
  "versionHex": "00000001",
  "merkleroot": "3766b5371e8fde91830be993775688216ca53b6d6fcc0b2370ba952002e1da51",
  "time": 1232880599,
  "mediantime": 1232878712,
  "nonce": 2170092324,
  "bits": "1d00ffff",
  "difficulty": 1,
  "chainwork": "000000000000000000000000000000000000000000000000000006e506e506e5",
  "nTx": 1,
  "previousblockhash": "000000003db92ea2d744dcb2a7a3b54a3d40496cced5a166ef5a1d328300dffd",
  "nextblockhash": "00000000f0c08a990808201c33ddfdbd066dd970d240542bb9331e43d7016bb3",
  "strippedsize": 216,
  "size": 216,
  "weight": 864,
  "tx": [
    {
      "txid": "3766b5371e8fde91830be993775688216ca53b6d6fcc0b2370ba952002e1da51",
      "hash": "3766b5371e8fde91830be993775688216ca53b6d6fcc0b2370ba952002e1da51",
      "version": 1,
      "size": 135,
      "vsize": 135,
      "weight": 540,
      "locktime": 0,
      "vin": [
        {
          "coinbase": "04ffff001d02c303",
          "sequence": 4294967295
        }
      ],
      "vout": [
        {
          "value": 50.0,
          "n": 0,
          "scriptPubKey": {
            "asm": "04632fb0a59d6ed270fbde33a80ddc25e0f4cf549c8834bac619407003b090dfe4c1c0adac35a7252090ddd6259888ede83f6d52508d91700d36f707bd805c1ae9 OP_CHECKSIG",
            "desc": "pk(04632fb0a59d6ed270fbde33a80ddc25e0f4cf549c8834bac619407003b090dfe4c1c0adac35a7252090ddd6259888ede83f6d52508d91700d36f707bd805c1ae9)#lrqx7zgg",
            "hex": "4104632fb0a59d6ed270fbde33a80ddc25e0f4cf549c8834bac619407003b090dfe4c1c0adac35a7252090ddd6259888ede83f6d52508d91700d36f707bd805c1ae9ac",
            "type": "pubkey"
          }
        }
      ],
      "hex": "01000000010000000000000000000000000000000000000000000000000000000000000000ffffffff0804ffff001d02c303ffffffff0100f2052a01000000434104632fb0a59d6ed270fbde33a80ddc25e0f4cf549c8834bac619407003b090dfe4c1c0adac35a7252090ddd6259888ede83f6d52508d91700d36f707bd805c1ae9ac00000000"
    }
  ]
}