{
  "hash": "00000000db02b5d1a108b80d9f7aaef7abe80c5d583aca83ee630d77d1c6b1a9",
  "confirmations": 48089,
  "height": 5009,
  "version": 1,
  "versionHex": "00000001",
  "merkleroot": "e1f9563b5f3f8c7951948dd946398e9c21b338d23e0b1909b9114eeff861452b",
  "time": 1235141896,
  "mediantime": 1235139872,
  "nonce": 4268201750,
  "bits": "1d00ffff",
  "difficulty": 1,
  "chainwork": "0000000000000000000000000000000000000000000000000000139213921392",
  "nTx": 1,
  "previousblockhash": "00000000b3d4db87a344aa8294146ea5dccace239800c314a757a8595c5eac9f",
  "nextblockhash": "00000000708927f1d6d2b36335dc00fd53de68fa1f78972a34ed830ba1e42c90",
  "strippedsize": 216,
  "size": 216,
  "weight": 864,
  "tx": [
    {
      "txid": "e1f9563b5f3f8c7951948dd946398e9c21b338d23e0b1909b9114eeff861452b",
      "hash": "e1f9563b5f3f8c7951948dd946398e9c21b338d23e0b1909b9114eeff861452b",
      "version": 1,
      "size": 135,
      "vsize": 135,
      "weight": 540,
      "locktime": 0,
      "vin": [
        {
          "coinbase": "04ffff001d022007",
          "sequence": 4294967295
        }
      ],
      "vout": [
        {
          "value": 50.0,
          "n": 0,
          "scriptPubKey": {
            "asm": "04214870079f88d24123100e075234ceb6bd0eed6ab3e42321acdaaf9c7288dc63e32cc90c97ff9d77757dbc25d9281eeb9812b7b4cdd1e9706129ac7863bd73f8 OP_CHECKSIG",
            "desc": "pk(04214870079f88d24123100e075234ceb6bd0eed6ab3e42321acdaaf9c7288dc63e32cc90c97ff9d77757dbc25d9281eeb9812b7b4cdd1e9706129ac7863bd73f8)#p7h08zye",
            "hex": "4104214870079f88d24123100e075234ceb6bd0eed6ab3e42321acdaaf9c7288dc63e32cc90c97ff9d77757dbc25d9281eeb9812b7b4cdd1e9706129ac7863bd73f8ac",
            "type": "pubkey"
          }
        }
      ],
      "hex": "01000000010000000000000000000000000000000000000000000000000000000000000000ffffffff0804ffff001d022007ffffffff0100f2052a01000000434104214870079f88d24123100e075234ceb6bd0eed6ab3e42321acdaaf9c7288dc63e32cc90c97ff9d77757dbc25d9281eeb9812b7b4cdd1e9706129ac7863bd73f8ac00000000"
    }
  ]
}