{
  "hash": "00000000354fe6d2b0c8c30bea02eab7e92798f8da5b2fa46dce3b3db5bb51ad",
  "confirmations": 45539,
  "height": 7559,
  "version": 1,
  "versionHex": "00000001",
  "merkleroot": "187c3e638cc2244459e0386fbc7f2d2aee9f9da3afbdf156c6201d7ff8b6eb59",
  "time": 1237144078,
  "mediantime": 1237140343,
  "nonce": 245111324,
  "bits": "1d00ffff",
  "difficulty": 1,
  "chainwork": "00000000000000000000000000000000000000000000000000001d881d881d88",
  "nTx": 1,
  "previousblockhash": "000000004d07a991c3cc217799d90b603d029eb0a7d3d355b02d73a48f4f705e",
  "nextblockhash": "00000000705f30762442e7c9434de397708846330836e2c421c05d1e42d72738",
  "strippedsize": 216,
  "size": 216,
  "weight": 864,
  "tx": [
    {
      "txid": "187c3e638cc2244459e0386fbc7f2d2aee9f9da3afbdf156c6201d7ff8b6eb59",
      "hash": "187c3e638cc2244459e0386fbc7f2d2aee9f9da3afbdf156c6201d7ff8b6eb59",
      "version": 1,
      "size": 135,
      "vsize": 135,
      "weight": 540,
      "locktime": 0,
      "vin": [
        {
          "coinbase": "04ffff001d020d02",
          "sequence": 4294967295
        }
      ],
      "vout": [
        {
          "value": 50.0,
          "n": 0,
          "scriptPubKey": {
            "asm": "04c18d6cd54bd662897565a9513d7d5ed7b6986c89a7a1ac9c139e3f4996d19080e569d0e297a4105271b89f25741a98648de6dc787bbf748ef6426f0ec49204c0 OP_CHECKSIG",
            "desc": "pk(04c18d6cd54bd662897565a9513d7d5ed7b6986c89a7a1ac9c139e3f4996d19080e569d0e297a4105271b89f25741a98648de6dc787bbf748ef6426f0ec49204c0)#dzzf9q3a",
            "hex": "4104c18d6cd54bd662897565a9513d7d5ed7b6986c89a7a1ac9c139e3f4996d19080e569d0e297a4105271b89f25741a98648de6dc787bbf748ef6426f0ec49204c0ac",
            "type": "pubkey"
          }
        }
      ],
      "hex": "01000000010000000000000000000000000000000000000000000000000000000000000000ffffffff0804ffff001d020d02ffffffff0100f2052a01000000434104c18d6cd54bd662897565a9513d7d5ed7b6986c89a7a1ac9c139e3f4996d19080e569d0e297a4105271b89f25741a98648de6dc787bbf748ef6426f0ec49204c0ac00000000"
    }
  ]
}