{
  "hash": "00000000b054267b1e38c6c6b9c85890c414d552037105116cdc4a5659c55362",
  "confirmations": 52135,
  "height": 963,
  "version": 1,
  "versionHex": "00000001",
  "merkleroot": "8f7afaef06a3962763491a0fc4827de5357204dd629b1491cbf97a8374453dce",
  "time": 1232321869,
  "mediantime": 1232317818,
  "nonce": 3296641562,
  "bits": "1d00ffff",
  "difficulty": 1,
  "chainwork": "000000000000000000000000000000000000000000000000000003c403c403c4",
  "nTx": 1,
  "previousblockhash": "0000000057686e655de56e38070ea362aa012d71541f349ff9b4eb8acfa8d611",
  "nextblockhash": "000000006f35e3b272050957426e172bd987fc433392954d6390d0437b3c67a9",
  "strippedsize": 216,
  "size": 216,
  "weight": 864,
  "tx": [
    {
      "txid": "8f7afaef06a3962763491a0fc4827de5357204dd629b1491cbf97a8374453dce",
      "hash": "8f7afaef06a3962763491a0fc4827de5357204dd629b1491cbf97a8374453dce",
      "version": 1,
      "size": 135,
      "vsize": 135,
      "weight": 540,
      "locktime": 0,
      "vin": [
        {
          "coinbase": "04ffff001d028604",
          "sequence": 4294967295
        }
      ],
      "vout": [
        {
          "value": 50.0,
          "n": 0,
          "scriptPubKey": {
            "asm": "04318634dcb6b35918686547d9fd4a6946e4e7c68ab46aeac1ee88cbe8c368bef535197b15b92d5b94e8b0c09a9aa5c43cfbcd91a54c154dbc361b8ffeb5c5e646 OP_CHECKSIG",
            "desc": "pk(04318634dcb6b35918686547d9fd4a6946e4e7c68ab46aeac1ee88cbe8c368bef535197b15b92d5b94e8b0c09a9aa5c43cfbcd91a54c154dbc361b8ffeb5c5e646)#sya3cmes",
            "hex": "4104318634dcb6b35918686547d9fd4a6946e4e7c68ab46aeac1ee88cbe8c368bef535197b15b92d5b94e8b0c09a9aa5c43cfbcd91a54c154dbc361b8ffeb5c5e646ac",
            "type": "pubkey"
          }
        }
      ],
      "hex": "01000000010000000000000000000000000000000000000000000000000000000000000000ffffffff0804ffff001d028604ffffffff0100f2052a01000000434104318634dcb6b35918686547d9fd4a6946e4e7c68ab46aeac1ee88cbe8c368bef535197b15b92d5b94e8b0c09a9aa5c43cfbcd91a54c154dbc361b8ffeb5c5e646ac00000000"
    }
  ]
}