{
  "hash": "00000000e7b834752cbd32d559550f71f62b2d23c3facd7b7a4024e5dd3ba835",
  "confirmations": 52072,
  "height": 148,
  "version": 1,
  "versionHex": "00000001",
  "merkleroot": "55a6ec0df293a3bf380c094981f44d2a402798dc39dc6a4a0cd29f70bf1bc18a",
  "time": 1231695528,
  "mediantime": 1231692104,
  "nonce": 2926984503,
  "bits": "1d00ffff",
  "difficulty": 1,
  "chainwork": "0000000000000000000000000000000000000000000000000000009500950095",
  "nTx": 1,
  "previousblockhash": "000000001a7a484e9f1e96f2c103162cc0146ca7ce648c2498726a2dbb51967e",
  "nextblockhash": "0000000011c8275cbb5dc8010892e10415c9550ed4513945f96452fe38903d93",
  "strippedsize": 216,
  "size": 216,
  "weight": 864,
  "tx": [
    {
      "txid": "55a6ec0df293a3bf380c094981f44d2a402798dc39dc6a4a0cd29f70bf1bc18a",
      "hash": "55a6ec0df293a3bf380c094981f44d2a402798dc39dc6a4a0cd29f70bf1bc18a",
      "version": 1,
      "size": 135,
      "vsize": 135,
      "weight": 540,
      "locktime": 0,
      "vin": [
        {
          "coinbase": "04ffff001d028c00",
          "sequence": 4294967295
        }
      ],
      "vout": [
        {
          "value": 50.0,
          "n": 0,
          "scriptPubKey": {
            "asm": "04c024196cfc6ad36800b5522ffba6dd1c4d58c96cae378bdcddb52c081d742eb219d0cabdd7ef00f0010e18aba03483767ecbcf0bbe428dc92285d7f072c68379 OP_CHECKSIG",
            "desc": "pk(04c024196cfc6ad36800b5522ffba6dd1c4d58c96cae378bdcddb52c081d742eb219d0cabdd7ef00f0010e18aba03483767ecbcf0bbe428dc92285d7f072c68379)#e4q4ukl8",
            "hex": "4104c024196cfc6ad36800b5522ffba6dd1c4d58c96cae378bdcddb52c081d742eb219d0cabdd7ef00f0010e18aba03483767ecbcf0bbe428dc92285d7f072c68379ac",
            "type": "pubkey"
          }
        }
      ],
      "hex": "01000000010000000000000000000000000000000000000000000000000000000000000000ffffffff0804ffff001d028c00ffffffff0100f2052a01000000434104c024196cfc6ad36800b5522ffba6dd1c4d58c96cae378bdcddb52c081d742eb219d0cabdd7ef00f0010e18aba03483767ecbcf0bbe428dc92285d7f072c68379ac00000000"
    }
  ]
}