{
  "hash": "0000000075b4df54f33c4e60cf88c5dd6a6455f16f4fbe220ae81e157ce32ef1",
  "confirmations": 51883,
  "height": 58,
  "version": 1,
  "versionHex": "00000001",
  "merkleroot": "9635054e3de101ea39dcfa5f4cec63ceb1205db6e0a99304c8db2b3a162137e4",
  "time": 1231620564,
  "mediantime": 1231617190,
  "nonce": 303574814,
  "bits": "1d00ffff",
  "difficulty": 1,
  "chainwork": "0000000000000000000000000000000000000000000000000000003b003b003b",
  "nTx": 1,
  "previousblockhash": "000000004ff375707d7128dd2b080da4185727d534ea1b0aeac5877e00547391",
  "nextblockhash": "000000000f7171e53e5f037b70ae6a30d2fa6c1a9e019aa3dae242180baea54a",
  "strippedsize": 216,
  "size": 216,
  "weight": 864,
  "tx": [
    {
      "txid": "9635054e3de101ea39dcfa5f4cec63ceb1205db6e0a99304c8db2b3a162137e4",
      "hash": "9635054e3de101ea39dcfa5f4cec63ceb1205db6e0a99304c8db2b3a162137e4",
      "version": 1,
      "size": 135,
      "vsize": 135,
      "weight": 540,
      "locktime": 0,
      "vin": [
        {
          "coinbase": "04ffff001d028200",
          "sequence": 4294967295
        }
      ],
      "vout": [
        {
          "value": 50.0,
          "n": 0,
          "scriptPubKey": {
            "asm": "0438a186480a0dba427b44e72dbcfa73c7c7597ad0facd2fce69aa6a227d8533bb2219f1a6d7b0e057f52f7075d1858f2a9f725cdde03dc22d9ea6db10f6274091 OP_CHECKSIG",
            "desc": "pk(0438a186480a0dba427b44e72dbcfa73c7c7597ad0facd2fce69aa6a227d8533bb2219f1a6d7b0e057f52f7075d1858f2a9f725cdde03dc22d9ea6db10f6274091)#rpd4r2zg",
            "hex": "410438a186480a0dba427b44e72dbcfa73c7c7597ad0facd2fce69aa6a227d8533bb2219f1a6d7b0e057f52f7075d1858f2a9f725cdde03dc22d9ea6db10f6274091ac",
            "type": "pubkey"
          }
        }
      ],
      "hex": "01000000010000000000000000000000000000000000000000000000000000000000000000ffffffff0804ffff001d028200ffffffff0100f2052a0100000043410438a186480a0dba427b44e72dbcfa73c7c7597ad0facd2fce69aa6a227d8533bb2219f1a6d7b0e057f52f7075d1858f2a9f725cdde03dc22d9ea6db10f6274091ac00000000"
    }
  ]
}