{
  "hash": "0000000010b867ee0b793b0a469d014bb487e30b11b39a80f6d1235f3af69a94",
  "confirmations": 49859,
  "height": 3239,
  "version": 1,
  "versionHex": "00000001",
  "merkleroot": "f33296956864b6325d5e62019de6e2d302a7d99e7d8cf4be1599cda70231ee40",
  "time": 1233928835,
  "mediantime": 1233923672,
  "nonce": 3428117764,
  "bits": "1d00ffff",
  "difficulty": 1,
  "chainwork": "00000000000000000000000000000000000000000000000000000ca80ca80ca8",
  "nTx": 1,
  "previousblockhash": "00000000465c6c8e879ee54716572d4fd7e02edf6a973f417b6dc983840ebe49",
  "nextblockhash": "00000000883e289741813f2900714b6e76edbf6896dfd6d465faace22e2fcdba",
  "strippedsize": 216,
  "size": 216,
  "weight": 864,
  "tx": [
    {
      "txid": "f33296956864b6325d5e62019de6e2d302a7d99e7d8cf4be1599cda70231ee40",
      "hash": "f33296956864b6325d5e62019de6e2d302a7d99e7d8cf4be1599cda70231ee40",
      "version": 1,
      "size": 135,
      "vsize": 135,
      "weight": 540,
      "locktime": 0,
      "vin": [
        {
          "coinbase": "04ffff001d024703",
          "sequence": 4294967295
        }
      ],
      "vout": [
        {
          "value": 50.0,
          "n": 0,
          "scriptPubKey": {
            "asm": "04a7d74c0cbee52ecec50e79bd244daef85c00f29ed116e91d889b28f431793a6b5b9053e20fb41704db774fae0a1946240cd7e10d3e7a197d6910ea35cce123be OP_CHECKSIG",
            "desc": "pk(04a7d74c0cbee52ecec50e79bd244daef85c00f29ed116e91d889b28f431793a6b5b9053e20fb41704db774fae0a1946240cd7e10d3e7a197d6910ea35cce123be)#3ze0958z",
            "hex": "4104a7d74c0cbee52ecec50e79bd244daef85c00f29ed116e91d889b28f431793a6b5b9053e20fb41704db774fae0a1946240cd7e10d3e7a197d6910ea35cce123beac",
            "type": "pubkey"
          }
        }
      ],
      "hex": "01000000010000000000000000000000000000000000000000000000000000000000000000ffffffff0804ffff001d024703ffffffff0100f2052a01000000434104a7d74c0cbee52ecec50e79bd244daef85c00f29ed116e91d889b28f431793a6b5b9053e20fb41704db774fae0a1946240cd7e10d3e7a197d6910ea35cce123beac00000000"
    }
  ]
}