{
  "hash": "000000003fd1bbe55cf76942175b13d725f8673722da819040844e8ba3019bcc",
  "confirmations": 46397,
  "height": 6701,
  "version": 1,
  "versionHex": "00000001",
  "merkleroot": "b30eb90f866be8e10895b049086e7e45b49b14b018c837815f21a2d10eba57e8",
  "time": 1236483592,
  "mediantime": 1236479337,
  "nonce": 14166548,
  "bits": "1d00ffff",
  "difficulty": 1,
  "chainwork": "00000000000000000000000000000000000000000000000000001a2e1a2e1a2e",
  "nTx": 1,
  "previousblockhash": "0000000097ad82fe2e9d3ce60dc11312efcdda3815e5b1acfb886a787ac59c4f",
  "nextblockhash": "00000000604643cb8e376315a85d139613aaa211d2d216ef9772c66c85c54cd6",
  "strippedsize": 215,
  "size": 215,
  "weight": 860,
  "tx": [
    {
      "txid": "b30eb90f866be8e10895b049086e7e45b49b14b018c837815f21a2d10eba57e8",
      "hash": "b30eb90f866be8e10895b049086e7e45b49b14b018c837815f21a2d10eba57e8",
      "version": 1,
      "size": 134,
      "vsize": 134,
      "weight": 536,
      "locktime": 0,
      "vin": [
        {
          "coinbase": "04ffff001d0114",
          "sequence": 4294967295
        }
      ],
      "vout": [
        {
          "value": 50.0,
          "n": 0,
          "scriptPubKey": {
            "asm": "04a9628076ca0d9f85f0dcda6906c3a07a09f3606093225fbaed5e209810bd017dc603d1d4bfc4e93e99bc90ea69b0d9d655ff44daf9f992d826aae3729bec2615 OP_CHECKSIG",
            "desc": "pk(04a9628076ca0d9f85f0dcda6906c3a07a09f3606093225fbaed5e209810bd017dc603d1d4bfc4e93e99bc90ea69b0d9d655ff44daf9f992d826aae3729bec2615)#4lt8r99w",
            "hex": "4104a9628076ca0d9f85f0dcda6906c3a07a09f3606093225fbaed5e209810bd017dc603d1d4bfc4e93e99bc90ea69b0d9d655ff44daf9f992d826aae3729bec2615ac",
            "type": "pubkey"
          }
        }
      ],
      "hex": "01000000010000000000000000000000000000000000000000000000000000000000000000ffffffff0704ffff001d0114ffffffff0100f2052a01000000434104a9628076ca0d9f85f0dcda6906c3a07a09f3606093225fbaed5e209810bd017dc603d1d4bfc4e93e99bc90ea69b0d9d655ff44daf9f992d826aae3729bec2615ac00000000"
    }
  ]
}