{
  "hash": "0000000094a4a4b8ebe408ec94939dc31f335152afb39f591aedfbf83d02e5e4",
  "confirmations": 45624,
  "height": 7474,
  "version": 1,
  "versionHex": "00000001",
  "merkleroot": "96c05f6d08a7c82d5a0dff839a49c146bab4b19e859bef14f248d7ce65814405",
  "time": 1237078791,
  "mediantime": 1237076159,
  "nonce": 4134085921,
  "bits": "1d00ffff",
  "difficulty": 1,
  "chainwork": "00000000000000000000000000000000000000000000000000001d331d331d33",
  "nTx": 1,
  "previousblockhash": "000000006c4aba91a4d86a26b6b33dca7dd01bca8afaf940ae744637e812627a",
  "nextblockhash": "000000003900a5ed3dfbde49ef5e9490582d9fe5d381a6439a5c34f115513be1",
  "strippedsize": 216,
  "size": 216,
  "weight": 864,
  "tx": [
    {
      "txid": "96c05f6d08a7c82d5a0dff839a49c146bab4b19e859bef14f248d7ce65814405",
      "hash": "96c05f6d08a7c82d5a0dff839a49c146bab4b19e859bef14f248d7ce65814405",
      "version": 1,
      "size": 135,
      "vsize": 135,
      "weight": 540,
      "locktime": 0,
      "vin": [
        {
          "coinbase": "04ffff001d029100",
          "sequence": 4294967295
        }
      ],
      "vout": [
        {
          "value": 50.0,
          "n": 0,
          "scriptPubKey": {
            "asm": "047448819abbe1808591f49f4c773d461d5d324fab2731bfe6cb3906d687a1847b7eaf26be10ce6326d97ef7d2c0b5c8356f667eae416a71120f09c4438aeb9794 OP_CHECKSIG",
            "desc": "pk(047448819abbe1808591f49f4c773d461d5d324fab2731bfe6cb3906d687a1847b7eaf26be10ce6326d97ef7d2c0b5c8356f667eae416a71120f09c4438aeb9794)#xww579xp",
            "hex": "41047448819abbe1808591f49f4c773d461d5d324fab2731bfe6cb3906d687a1847b7eaf26be10ce6326d97ef7d2c0b5c8356f667eae416a71120f09c4438aeb9794ac",
            "type": "pubkey"
          }
        }
      ],
      "hex": "01000000010000000000000000000000000000000000000000000000000000000000000000ffffffff0804ffff001d029100ffffffff0100f2052a010000004341047448819abbe1808591f49f4c773d461d5d324fab2731bfe6cb3906d687a1847b7eaf26be10ce6326d97ef7d2c0b5c8356f667eae416a71120f09c4438aeb9794ac00000000"
    }
  ]
}