{
  "hash": "000000002e5949e628f22574c0f13d4b6e9ab59b50fbc8780cecd105052c8778",
  "confirmations": 44681,
  "height": 8417,
  "version": 1,
  "versionHex": "00000001",
  "merkleroot": "c10ff24903cca8b6acb854f1c75d6ad5629e395b1811acdeb6e12381bd6a1afe",
  "time": 1237810696,
  "mediantime": 1237807851,
  "nonce": 44293279,
  "bits": "1d00ffff",
  "difficulty": 1,
  "chainwork": "000000000000000000000000000000000000000000000000000020e220e220e2",
  "nTx": 1,
  "previousblockhash": "000000007673ce35038f0e1ff8d7a265a97f854d7a5b8b7518334ed0e7626b74",
  "nextblockhash": "00000000fb16ca5d451ee2bfdea82f56498cd3705690d6b1d2cd08fde83cc11a",
  "strippedsize": 216,
  "size": 216,
  "weight": 864,
  "tx": [
    {
      "txid": "c10ff24903cca8b6acb854f1c75d6ad5629e395b1811acdeb6e12381bd6a1afe",
      "hash": "c10ff24903cca8b6acb854f1c75d6ad5629e395b1811acdeb6e12381bd6a1afe",
      "version": 1,
      "size": 135,
      "vsize": 135,
      "weight": 540,
      "locktime": 0,
      "vin": [
        {
          "coinbase": "04ffff001d02f502",
          "sequence": 4294967295
        }
      ],
      "vout": [
        {
          "value": 50.0,
          "n": 0,
          "scriptPubKey": {
            "asm": "042fe41159955adba5de8539a6ef491334de9ddc7f00b6b30426635184e49bce5ebcc5227fd392ede48b83e588f09a78f2a821e510fe1b4ae5f9f76d90fc364a79 OP_CHECKSIG",
            "desc": "pk(042fe41159955adba5de8539a6ef491334de9ddc7f00b6b30426635184e49bce5ebcc5227fd392ede48b83e588f09a78f2a821e510fe1b4ae5f9f76d90fc364a79)#hnpnmmqp",
            "hex": "41042fe41159955adba5de8539a6ef491334de9ddc7f00b6b30426635184e49bce5ebcc5227fd392ede48b83e588f09a78f2a821e510fe1b4ae5f9f76d90fc364a79ac",
            "type": "pubkey"
          }
        }
      ],
      "hex": "01000000010000000000000000000000000000000000000000000000000000000000000000ffffffff0804ffff001d02f502ffffffff0100f2052a010000004341042fe41159955adba5de8539a6ef491334de9ddc7f00b6b30426635184e49bce5ebcc5227fd392ede48b83e588f09a78f2a821e510fe1b4ae5f9f76d90fc364a79ac00000000"
    }
  ]
}