{
  "hash": "00000000ac88f13fb81c5847092057c360e8236a2191f5dfbf35097ae63fb08a",
  "confirmations": 43890,
  "height": 9208,
  "version": 1,
  "versionHex": "00000001",
  "merkleroot": "5036cd207c84ebffe980085d8632d3650e0d6838a6f2f08ec46fdb456406d62a",
  "time": 1238408100,
  "mediantime": 1238401561,
  "nonce": 3453062151,
  "bits": "1d00ffff",
  "difficulty": 1,
  "chainwork": "000000000000000000000000000000000000000000000000000023f923f923f9",
  "nTx": 1,
  "previousblockhash": "00000000714e1649e1aa808b989dc4e38c99bc9597ef7600d5129e499cc87abf",
  "nextblockhash": "000000003a37a28a42eaeee36c324678728a966538a26757c146cfe10daf1184",
  "strippedsize": 215,
  "size": 215,
  "weight": 860,
  "tx": [
    {
      "txid": "5036cd207c84ebffe980085d8632d3650e0d6838a6f2f08ec46fdb456406d62a",
      "hash": "5036cd207c84ebffe980085d8632d3650e0d6838a6f2f08ec46fdb456406d62a",
      "version": 1,
      "size": 134,
      "vsize": 134,
      "weight": 536,
      "locktime": 0,
      "vin": [
        {
          "coinbase": "04ffff001d0110",
          "sequence": 4294967295
        }
      ],
      "vout": [
        {
          "value": 50.0,
          "n": 0,
          "scriptPubKey": {
            "asm": "04ee1645e8afaac490acf1ece384323d34fb56b475fb911812dca9b9979fc68c9f1eecf7431e3562d12f4698a0f33cefcbe14620df026fe67f6b42b56418eed626 OP_CHECKSIG",
            "desc": "pk(04ee1645e8afaac490acf1ece384323d34fb56b475fb911812dca9b9979fc68c9f1eecf7431e3562d12f4698a0f33cefcbe14620df026fe67f6b42b56418eed626)#mufz5x0l",
            "hex": "4104ee1645e8afaac490acf1ece384323d34fb56b475fb911812dca9b9979fc68c9f1eecf7431e3562d12f4698a0f33cefcbe14620df026fe67f6b42b56418eed626ac",
            "type": "pubkey"
          }
        }
      ],
      "hex": "01000000010000000000000000000000000000000000000000000000000000000000000000ffffffff0704ffff001d0110ffffffff0100f2052a01000000434104ee1645e8afaac490acf1ece384323d34fb56b475fb911812dca9b9979fc68c9f1eecf7431e3562d12f4698a0f33cefcbe14620df026fe67f6b42b56418eed626ac00000000"
    }
  ]
}