{
  "hash": "00000000740083b59118d1fce839ac4a452bc62a0f747aa6d364a2ff43e56271",
  "confirmations": 48780,
  "height": 4318,
  "version": 1,
  "versionHex": "00000001",
  "merkleroot": "c9836f8c50d4cb831817caef761da25cbe0efc0f0d8ff7435d48ddc8926cfd83",
  "time": 1234656419,
  "mediantime": 1234652062,
  "nonce": 4073745973,
  "bits": "1d00ffff",
  "difficulty": 1,
  "chainwork": "000000000000000000000000000000000000000000000000000010df10df10df",
  "nTx": 1,
  "previousblockhash": "000000005c7ef94cf3eb3526aef2c9ec1352c33e7e869056cdffa3711d9b3eb5",
  "nextblockhash": "000000004af475e85b4a457eee4ac95381a75c153a463c13421a12bd3d52e26d",
  "strippedsize": 215,
  "size": 215,
  "weight": 860,
  "tx": [
    {
      "txid": "c9836f8c50d4cb831817caef761da25cbe0efc0f0d8ff7435d48ddc8926cfd83",
      "hash": "c9836f8c50d4cb831817caef761da25cbe0efc0f0d8ff7435d48ddc8926cfd83",
      "version": 1,
      "size": 134,
      "vsize": 134,
      "weight": 536,
      "locktime": 0,
      "vin": [
        {
          "coinbase": "04ffff001d0133",
          "sequence": 4294967295
        }
      ],
      "vout": [
        {
          "value": 50.0,
          "n": 0,
          "scriptPubKey": {
            "asm": "04728095dd46b590c11ca615acaa460fc7cf121b3d07d401015aa59acedb0413e8ae84e205c7117f9f5b01ac551b8cf1811f02e5f108dba78c41dc7f8a01b7f597 OP_CHECKSIG",
            "desc": "pk(04728095dd46b590c11ca615acaa460fc7cf121b3d07d401015aa59acedb0413e8ae84e205c7117f9f5b01ac551b8cf1811f02e5f108dba78c41dc7f8a01b7f597)#25dp8pyy",
            "hex": "4104728095dd46b590c11ca615acaa460fc7cf121b3d07d401015aa59acedb0413e8ae84e205c7117f9f5b01ac551b8cf1811f02e5f108dba78c41dc7f8a01b7f597ac",
            "type": "pubkey"
          }
        }
      ],
      "hex": "01000000010000000000000000000000000000000000000000000000000000000000000000ffffffff0704ffff001d0133ffffffff0100f2052a01000000434104728095dd46b590c11ca615acaa460fc7cf121b3d07d401015aa59acedb0413e8ae84e205c7117f9f5b01ac551b8cf1811f02e5f108dba78c41dc7f8a01b7f597ac00000000"
    }
  ]
}