{
  "hash": "000000003861da874b0590b3bd88b8caffa9a8d8edefa0571a87e9afdcd7d3a0",
  "confirmations": 43649,
  "height": 9449,
  "version": 1,
  "versionHex": "00000001",
  "merkleroot": "8c1175508ab62a41731242d4a5d3ac3dcb0fab06aba24e7bd631850fdea604db",
  "time": 1238591143,
  "mediantime": 1238587430,
  "nonce": 136709725,
  "bits": "1d00ffff",
  "difficulty": 1,
  "chainwork": "000000000000000000000000000000000000000000000000000024ea24ea24ea",
  "nTx": 1,
  "previousblockhash": "00000000868027af1d3282ec317ed737a0363896a27ae4a831565c7a2d806003",
  "nextblockhash": "00000000cf441bf382cfcee46c9521425a1e46af5791d5a18a7bf51e422049d8",
  "strippedsize": 215,
  "size": 215,
  "weight": 860,
  "tx": [
    {
      "txid": "8c1175508ab62a41731242d4a5d3ac3dcb0fab06aba24e7bd631850fdea604db",
      "hash": "8c1175508ab62a41731242d4a5d3ac3dcb0fab06aba24e7bd631850fdea604db",
      "version": 1,
      "size": 134,
      "vsize": 134,
      "weight": 536,
      "locktime": 0,
      "vin": [
        {
          "coinbase": "04ffff001d0156",
          "sequence": 4294967295
        }
      ],
      "vout": [
        {
          "value": 50.0,
          "n": 0,
          "scriptPubKey": {
            "asm": "04a65fbe116b7e2ea382de5290119cd8460c452c0bb2839e8dd7d3bdbac39515066e3b0ef951d41cf4847187652108869b908c8f5190f79ab0c1662bf4175b636c OP_CHECKSIG",
            "desc": "pk(04a65fbe116b7e2ea382de5290119cd8460c452c0bb2839e8dd7d3bdbac39515066e3b0ef951d41cf4847187652108869b908c8f5190f79ab0c1662bf4175b636c)#8g6fkatu",
            "hex": "4104a65fbe116b7e2ea382de5290119cd8460c452c0bb2839e8dd7d3bdbac39515066e3b0ef951d41cf4847187652108869b908c8f5190f79ab0c1662bf4175b636cac",
            "type": "pubkey"
          }
        }
      ],
      "hex": "01000000010000000000000000000000000000000000000000000000000000000000000000ffffffff0704ffff001d0156ffffffff0100f2052a01000000434104a65fbe116b7e2ea382de5290119cd8460c452c0bb2839e8dd7d3bdbac39515066e3b0ef951d41cf4847187652108869b908c8f5190f79ab0c1662bf4175b636cac00000000"
    }
  ]
}