{
  "hash": "000000007f523341e1be1a5b4833e575cf5e5d6f38682d399c043fd2ff373c0c",
  "confirmations": 51717,
  "height": 1381,
  "version": 1,
  "versionHex": "00000001",
  "merkleroot": "a55b0280fb29d5b2985343dcb7f499c7e8a5895105becf69f1303f4ee206bc54",
  "time": 1232666501,
  "mediantime": 1232663205,
  "nonce": 2087194402,
  "bits": "1d00ffff",
  "difficulty": 1,
  "chainwork": "0000000000000000000000000000000000000000000000000000056605660566",
  "nTx": 1,
  "previousblockhash": "000000007744641587852c7de2729dbdc16888c0b7f686899d7078b558058555",
  "nextblockhash": "000000003dcea3255a45098ed71e8de630c5b542aadc0c245a5cd9ccc45849ac",
  "strippedsize": 216,
  "size": 216,
  "weight": 864,
  "tx": [
    {
      "txid": "a55b0280fb29d5b2985343dcb7f499c7e8a5895105becf69f1303f4ee206bc54",
      "hash": "a55b0280fb29d5b2985343dcb7f499c7e8a5895105becf69f1303f4ee206bc54",
      "version": 1,
      "size": 135,
      "vsize": 135,
      "weight": 540,
      "locktime": 0,
      "vin": [
        {
          "coinbase": "04ffff001d02c301",
          "sequence": 4294967295
        }
      ],
      "vout": [
        {
          "value": 50.0,
          "n": 0,
          "scriptPubKey": {
            "asm": "043998aa9577431cc66758d91508b18d4196d3e5615ed358159ae49d36cd513d9f3758a056299644e4f5da0f1b81d60af0968d351e334b60767a491713dc420c3a OP_CHECKSIG",
            "desc": "pk(043998aa9577431cc66758d91508b18d4196d3e5615ed358159ae49d36cd513d9f3758a056299644e4f5da0f1b81d60af0968d351e334b60767a491713dc420c3a)#4k647q47",
            "hex": "41043998aa9577431cc66758d91508b18d4196d3e5615ed358159ae49d36cd513d9f3758a056299644e4f5da0f1b81d60af0968d351e334b60767a491713dc420c3aac",
            "type": "pubkey"
          }
        }
      ],
      "hex": "01000000010000000000000000000000000000000000000000000000000000000000000000ffffffff0804ffff001d02c301ffffffff0100f2052a010000004341043998aa9577431cc66758d91508b18d4196d3e5615ed358159ae49d36cd513d9f3758a056299644e4f5da0f1b81d60af0968d351e334b60767a491713dc420c3aac00000000"
    }
  ]
}