{
  "hash": "0000000052ab68c20deabfd537a4f40ce88bbd29bdc91b86fb791a701a7af723",
  "confirmations": 43584,
  "height": 9514,
  "version": 1,
  "versionHex": "00000001",
  "merkleroot": "7a9f2c4deb7779e6f2278760a845a0270c9c953dc08b6b6d115a667c97f479c7",
  "time": 1238637580,
  "mediantime": 1238634552,
  "nonce": 3249534752,
  "bits": "1d00ffff",
  "difficulty": 1,
  "chainwork": "0000000000000000000000000000000000000000000000000000252b252b252b",
  "nTx": 1,
  "previousblockhash": "00000000c60596cdb860839242211d9a17ba734e397636135e7744303d189a0b",
  "nextblockhash": "000000008c8d5c9265bc740fc8f539797332b9c2d19bab4e9b215a9a0a9d2e95",
  "strippedsize": 216,
  "size": 216,
  "weight": 864,
  "tx": [
    {
      "txid": "7a9f2c4deb7779e6f2278760a845a0270c9c953dc08b6b6d115a667c97f479c7",
      "hash": "7a9f2c4deb7779e6f2278760a845a0270c9c953dc08b6b6d115a667c97f479c7",
      "version": 1,
      "size": 135,
      "vsize": 135,
      "weight": 540,
      "locktime": 0,
      "vin": [
        {
          "coinbase": "04ffff001d028a05",
          "sequence": 4294967295
        }
      ],
      "vout": [
        {
          "value": 50.0,
          "n": 0,
          "scriptPubKey": {
            "asm": "04b4096d08db72e1a4b129b0e4df5610b1610398f6cbf5753c7d81567fc4dd241cd6d2d25ae900964651e7fe7b3108b439bb4bca7a7db4d5eccdf245625145bcb1 OP_CHECKSIG",
            "desc": "pk(04b4096d08db72e1a4b129b0e4df5610b1610398f6cbf5753c7d81567fc4dd241cd6d2d25ae900964651e7fe7b3108b439bb4bca7a7db4d5eccdf245625145bcb1)#lhwvn4xn",
            "hex": "4104b4096d08db72e1a4b129b0e4df5610b1610398f6cbf5753c7d81567fc4dd241cd6d2d25ae900964651e7fe7b3108b439bb4bca7a7db4d5eccdf245625145bcb1ac",
            "type": "pubkey"
          }
        }
      ],
      "hex": "01000000010000000000000000000000000000000000000000000000000000000000000000ffffffff0804ffff001d028a05ffffffff0100f2052a01000000434104b4096d08db72e1a4b129b0e4df5610b1610398f6cbf5753c7d81567fc4dd241cd6d2d25ae900964651e7fe7b3108b439bb4bca7a7db4d5eccdf245625145bcb1ac00000000"
    }
  ]
}