{
  "hash": "000000000cb3a31d1c84a70c60b74a6311502e0bd4ef9a31bfbf17903bb276b7",
  "confirmations": 46507,
  "height": 6591,
  "version": 1,
  "versionHex": "00000001",
  "merkleroot": "8d8159e7b3620caaf25b9ed5c4d4edf39436fbc5db40a4b7b39336010dc8f55c",
  "time": 1236397779,
  "mediantime": 1236392964,
  "nonce": 2498683956,
  "bits": "1d00ffff",
  "difficulty": 1,
  "chainwork": "000000000000000000000000000000000000000000000000000019c019c019c0",
  "nTx": 1,
  "previousblockhash": "00000000ad3094bffd4b5f035d1f9fb4ec32fe786faef94d6557136540715199",
  "nextblockhash": "000000006f1ba1cb2eaf16ab824eb010bfe3090dae09cfd92f1298e33456e922",
  "strippedsize": 216,
  "size": 216,
  "weight": 864,
  "tx": [
    {
      "txid": "8d8159e7b3620caaf25b9ed5c4d4edf39436fbc5db40a4b7b39336010dc8f55c",
      "hash": "8d8159e7b3620caaf25b9ed5c4d4edf39436fbc5db40a4b7b39336010dc8f55c",
      "version": 1,
      "size": 135,
      "vsize": 135,
      "weight": 540,
      "locktime": 0,
      "vin": [
        {
          "coinbase": "04ffff001d02f804",
          "sequence": 4294967295
        }
      ],
      "vout": [
        {
          "value": 50.0,
          "n": 0,
          "scriptPubKey": {
            "asm": "04319040451e4df7778f90b947a7ea61b702b2ce1632d73d358dfbe9fdc9dbcc2fb12079ff9c9e277cd3745883c416766ab0f41014206ff704d79c7dfea3019c39 OP_CHECKSIG",
            "desc": "pk(04319040451e4df7778f90b947a7ea61b702b2ce1632d73d358dfbe9fdc9dbcc2fb12079ff9c9e277cd3745883c416766ab0f41014206ff704d79c7dfea3019c39)#ykkq5ev5",
            "hex": "4104319040451e4df7778f90b947a7ea61b702b2ce1632d73d358dfbe9fdc9dbcc2fb12079ff9c9e277cd3745883c416766ab0f41014206ff704d79c7dfea3019c39ac",
            "type": "pubkey"
          }
        }
      ],
      "hex": "01000000010000000000000000000000000000000000000000000000000000000000000000ffffffff0804ffff001d02f804ffffffff0100f2052a01000000434104319040451e4df7778f90b947a7ea61b702b2ce1632d73d358dfbe9fdc9dbcc2fb12079ff9c9e277cd3745883c416766ab0f41014206ff704d79c7dfea3019c39ac00000000"
    }
  ]
}