{
  "hash": "00000000c88b8ab2b9d55880910cfc106a71f0b32204dd5c7e6af5177f7c2771",
  "confirmations": 50684,
  "height": 2414,
  "version": 1,
  "versionHex": "00000001",
  "merkleroot": "db4007a7b14fb3630efecc6d0f865776d72db248f09317b652b6048dbf48949d",
  "time": 1233366107,
  "mediantime": 1233361358,
  "nonce": 3278209325,
  "bits": "1d00ffff",
  "difficulty": 1,
  "chainwork": "0000000000000000000000000000000000000000000000000000096f096f096f",
  "nTx": 1,
  "previousblockhash": "0000000041c7e25c7f8b295d1b50b0b7c99a25265fe41a35e362e963db1eba4a",
  "nextblockhash": "00000000b1487a2d8b73c4396e3e381d0602df19b264a7103639d303a5ee2cb7",
  "strippedsize": 215,
  "size": 215,
  "weight": 860,
  "tx": [
    {
      "txid": "db4007a7b14fb3630efecc6d0f865776d72db248f09317b652b6048dbf48949d",
      "hash": "db4007a7b14fb3630efecc6d0f865776d72db248f09317b652b6048dbf48949d",
      "version": 1,
      "size": 134,
      "vsize": 134,
      "weight": 536,
      "locktime": 0,
      "vin": [
        {
          "coinbase": "04ffff001d0136",
          "sequence": 4294967295
        }
      ],
      "vout": [
        {
          "value": 50.0,
          "n": 0,
          "scriptPubKey": {
            "asm": "04873c3cb92d66b1cb92dbc034bc0fa19325861496aa6562a8e23165ffff481b77e4d90a1e93850a9dc0f8a0d63a6024e33512429b66a53660461bb593e32ee178 OP_CHECKSIG",
            "desc": "pk(04873c3cb92d66b1cb92dbc034bc0fa19325861496aa6562a8e23165ffff481b77e4d90a1e93850a9dc0f8a0d63a6024e33512429b66a53660461bb593e32ee178)#6a27tseg",
            "hex": "4104873c3cb92d66b1cb92dbc034bc0fa19325861496aa6562a8e23165ffff481b77e4d90a1e93850a9dc0f8a0d63a6024e33512429b66a53660461bb593e32ee178ac",
            "type": "pubkey"
          }
        }
      ],
      "hex": "01000000010000000000000000000000000000000000000000000000000000000000000000ffffffff0704ffff001d0136ffffffff0100f2052a01000000434104873c3cb92d66b1cb92dbc034bc0fa19325861496aa6562a8e23165ffff481b77e4d90a1e93850a9dc0f8a0d63a6024e33512429b66a53660461bb593e32ee178ac00000000"
    }
  ]
}