{
  "hash": "00000000da558961f9680bf78f615aae3adf53bbedaadd934d624d544c72b429",
  "confirmations": 44883,
  "height": 8215,
  "version": 1,
  "versionHex": "00000001",
  "merkleroot": "32e973b340f2af0a1998131fb330966db43e93e41e7fa0584c0827b02c892b7b",
  "time": 1237628258,
  "mediantime": 1237611952,
  "nonce": 169967167,
  "bits": "1d00ffff",
  "difficulty": 1,
  "chainwork": "0000000000000000000000000000000000000000000000000000201820182018",
  "nTx": 1,
  "previousblockhash": "00000000ed4de0a49bcbedda48fc5b1cc0f6a780cf94045c08b78f01a15da105",
  "nextblockhash": "0000000079ef0da5be745f295d17f3cd966752079847d40b14ab7f4ca96cc577",
  "strippedsize": 215,
  "size": 215,
  "weight": 860,
  "tx": [
    {
      "txid": "32e973b340f2af0a1998131fb330966db43e93e41e7fa0584c0827b02c892b7b",
      "hash": "32e973b340f2af0a1998131fb330966db43e93e41e7fa0584c0827b02c892b7b",
      "version": 1,
      "size": 134,
      "vsize": 134,
      "weight": 536,
      "locktime": 0,
      "vin": [
        {
          "coinbase": "04ffff001d0154",
          "sequence": 4294967295
        }
      ],
      "vout": [
        {
          "value": 50.0,
          "n": 0,
          "scriptPubKey": {
            "asm": "044f4e607c34a11d700e358f5c86f45f194d2d0096be0edf1b8bb73388dff36810763d8b80b9dec697ad253df7a74f02e2bbf94230cfc02190d5d780a2ea94a180 OP_CHECKSIG",
            "desc": "pk(044f4e607c34a11d700e358f5c86f45f194d2d0096be0edf1b8bb73388dff36810763d8b80b9dec697ad253df7a74f02e2bbf94230cfc02190d5d780a2ea94a180)#mzp4m6p6",
            "hex": "41044f4e607c34a11d700e358f5c86f45f194d2d0096be0edf1b8bb73388dff36810763d8b80b9dec697ad253df7a74f02e2bbf94230cfc02190d5d780a2ea94a180ac",
            "type": "pubkey"
          }
        }
      ],
      "hex": "01000000010000000000000000000000000000000000000000000000000000000000000000ffffffff0704ffff001d0154ffffffff0100f2052a010000004341044f4e607c34a11d700e358f5c86f45f194d2d0096be0edf1b8bb73388dff36810763d8b80b9dec697ad253df7a74f02e2bbf94230cfc02190d5d780a2ea94a180ac00000000"
    }
  ]
}