{
  "hash": "00000000389992a4f3d04b294470e22d45677c8ea45acb95cbfa71ffb468d779",
  "confirmations": 45086,
  "height": 8012,
  "version": 1,
  "versionHex": "00000001",
  "merkleroot": "af41a080644c03aa3f1a333a5997d7d86ccdb48b231267e7b8c6ec99bc61758f",
  "time": 1237470700,
  "mediantime": 1237465488,
  "nonce": 132281396,
  "bits": "1d00ffff",
  "difficulty": 1,
  "chainwork": "00000000000000000000000000000000000000000000000000001f4d1f4d1f4d",
  "nTx": 1,
  "previousblockhash": "000000006f1118b1dbecd400b89a792deb92416e78d16b56cba3f88d6515f48e",
  "nextblockhash": "00000000132fdc7b2f097e38cb7dda2f09009c29c07589bff06552234008e2ae",
  "strippedsize": 216,
  "size": 216,
  "weight": 864,
  "tx": [
    {
      "txid": "af41a080644c03aa3f1a333a5997d7d86ccdb48b231267e7b8c6ec99bc61758f",
      "hash": "af41a080644c03aa3f1a333a5997d7d86ccdb48b231267e7b8c6ec99bc61758f",
      "version": 1,
      "size": 135,
      "vsize": 135,
      "weight": 540,
      "locktime": 0,
      "vin": [
        {
          "coinbase": "04ffff001d02b809",
          "sequence": 4294967295
        }
      ],
      "vout": [
        {
          "value": 50.0,
          "n": 0,
          "scriptPubKey": {
            "asm": "04de66222609ba84e0bce7504789c3fb410c4e9d3bfac1e32bca95ae8223917a5c1fc655adf6fcd14f93b3765f63cd33339402eb1146c9fc2dc7325f936c44aefe OP_CHECKSIG",
            "desc": "pk(04de66222609ba84e0bce7504789c3fb410c4e9d3bfac1e32bca95ae8223917a5c1fc655adf6fcd14f93b3765f63cd33339402eb1146c9fc2dc7325f936c44aefe)#m27gutzg",
            "hex": "4104de66222609ba84e0bce7504789c3fb410c4e9d3bfac1e32bca95ae8223917a5c1fc655adf6fcd14f93b3765f63cd33339402eb1146c9fc2dc7325f936c44aefeac",
            "type": "pubkey"
          }
        }
      ],
      "hex": "01000000010000000000000000000000000000000000000000000000000000000000000000ffffffff0804ffff001d02b809ffffffff0100f2052a01000000434104de66222609ba84e0bce7504789c3fb410c4e9d3bfac1e32bca95ae8223917a5c1fc655adf6fcd14f93b3765f63cd33339402eb1146c9fc2dc7325f936c44aefeac00000000"
    }
  ]
}