{
  "hash": "0000000039e31db42fa143ce5476777676a9673712fb72f0070f08e9d195a0a4",
  "confirmations": 44452,
  "height": 8646,
  "version": 1,
  "versionHex": "00000001",
  "merkleroot": "fa14610b7f82ff233ec029bca008f2de0dbfbccd2faa623a345fdea4eb05064d",
  "time": 1237982526,
  "mediantime": 1237977223,
  "nonce": 90365608,
  "bits": "1d00ffff",
  "difficulty": 1,
  "chainwork": "000000000000000000000000000000000000000000000000000021c721c721c7",
  "nTx": 1,
  "previousblockhash": "000000007c7f3e6a937d1fdb6124550f92f6a1e0ee4642ba830ea83ebe727872",
  "nextblockhash": "0000000012315d69b55d7daa1402d06a889f37ddd2072602b94db208e108317b",
  "strippedsize": 216,
  "size": 216,
  "weight": 864,
  "tx": [
    {
      "txid": "fa14610b7f82ff233ec029bca008f2de0dbfbccd2faa623a345fdea4eb05064d",
      "hash": "fa14610b7f82ff233ec029bca008f2de0dbfbccd2faa623a345fdea4eb05064d",
      "version": 1,
      "size": 135,
      "vsize": 135,
      "weight": 540,
      "locktime": 0,
      "vin": [
        {
          "coinbase": "04ffff001d028b02",
          "sequence": 4294967295
        }
      ],
      "vout": [
        {
          "value": 50.0,
          "n": 0,
          "scriptPubKey": {
            "asm": "04e140cf35da15ce10e4c7fd851a5a3557c7417abdd5d19b955754967f8a3764a19c21a59362828bf601b812cd3a30e4ecdf326c4a8167796ceff992433d2db031 OP_CHECKSIG",
            "desc": "pk(04e140cf35da15ce10e4c7fd851a5a3557c7417abdd5d19b955754967f8a3764a19c21a59362828bf601b812cd3a30e4ecdf326c4a8167796ceff992433d2db031)#8ty7u44r",
            "hex": "4104e140cf35da15ce10e4c7fd851a5a3557c7417abdd5d19b955754967f8a3764a19c21a59362828bf601b812cd3a30e4ecdf326c4a8167796ceff992433d2db031ac",
            "type": "pubkey"
          }
        }
      ],
      "hex": "01000000010000000000000000000000000000000000000000000000000000000000000000ffffffff0804ffff001d028b02ffffffff0100f2052a01000000434104e140cf35da15ce10e4c7fd851a5a3557c7417abdd5d19b955754967f8a3764a19c21a59362828bf601b812cd3a30e4ecdf326c4a8167796ceff992433d2db031ac00000000"
    }
  ]
}