{
  "hash": "0000000039f74ad11fb3d70e8c72ed9c1e8aad180447b7c25a266f89f0d90cda",
  "confirmations": 43971,
  "height": 9127,
  "version": 1,
  "versionHex": "00000001",
  "merkleroot": "f7c06a163d103669248e06e6b920fc6aee7cdeb0fd3829fe9ad01236912c518b",
  "time": 1238348904,
  "mediantime": 1238345830,
  "nonce": 2728494855,
  "bits": "1d00ffff",
  "difficulty": 1,
  "chainwork": "000000000000000000000000000000000000000000000000000023a823a823a8",
  "nTx": 1,
  "previousblockhash": "000000009f8db5a817713a51f12b02760ebdff49fb5fdfe6721ac4fbe984d419",
  "nextblockhash": "00000000329ba70d8c8351b852cd67f5ff2c5479f13ce0b2502fa36bd16778d7",
  "strippedsize": 216,
  "size": 216,
  "weight": 864,
  "tx": [
    {
      "txid": "f7c06a163d103669248e06e6b920fc6aee7cdeb0fd3829fe9ad01236912c518b",
      "hash": "f7c06a163d103669248e06e6b920fc6aee7cdeb0fd3829fe9ad01236912c518b",
      "version": 1,
      "size": 135,
      "vsize": 135,
      "weight": 540,
      "locktime": 0,
      "vin": [
        {
          "coinbase": "04ffff001d02d908",
          "sequence": 4294967295
        }
      ],
      "vout": [
        {
          "value": 50.0,
          "n": 0,
          "scriptPubKey": {
            "asm": "045823e20ec9e52095a45bdec5fd536563117b87b4d3683a6ba5c571407318c866e7dc1ab818f496e06fd487289c8038b086d85f738f08bac9181278e516f31daf OP_CHECKSIG",
            "desc": "pk(045823e20ec9e52095a45bdec5fd536563117b87b4d3683a6ba5c571407318c866e7dc1ab818f496e06fd487289c8038b086d85f738f08bac9181278e516f31daf)#jmpft8wf",
            "hex": "41045823e20ec9e52095a45bdec5fd536563117b87b4d3683a6ba5c571407318c866e7dc1ab818f496e06fd487289c8038b086d85f738f08bac9181278e516f31dafac",
            "type": "pubkey"
          }
        }
      ],
      "hex": "01000000010000000000000000000000000000000000000000000000000000000000000000ffffffff0804ffff001d02d908ffffffff0100f2052a010000004341045823e20ec9e52095a45bdec5fd536563117b87b4d3683a6ba5c571407318c866e7dc1ab818f496e06fd487289c8038b086d85f738f08bac9181278e516f31dafac00000000"
    }
  ]
}