{
  "hash": "00000000731863fda62ad45cb258731b85038f96e19bca63afe7201a5e4a8e6c",
  "confirmations": 49891,
  "height": 3207,
  "version": 1,
  "versionHex": "00000001",
  "merkleroot": "749dedf18f204dc56785666f8a4b175cdb4f9766fb5ff1fd09eaef86542073ad",
  "time": 1233905546,
  "mediantime": 1233902612,
  "nonce": 365553710,
  "bits": "1d00ffff",
  "difficulty": 1,
  "chainwork": "00000000000000000000000000000000000000000000000000000c880c880c88",
  "nTx": 1,
  "previousblockhash": "00000000ebd5da644c2a573f1eb8e069da3eeba8affe911977ac0147229b01ae",
  "nextblockhash": "000000008f8713e5adcfe70145e227b57e9354e457dcaf481a21e16bb7d9a1a2",
  "strippedsize": 216,
  "size": 216,
  "weight": 864,
  "tx": [
    {
      "txid": "749dedf18f204dc56785666f8a4b175cdb4f9766fb5ff1fd09eaef86542073ad",
      "hash": "749dedf18f204dc56785666f8a4b175cdb4f9766fb5ff1fd09eaef86542073ad",
      "version": 1,
      "size": 135,
      "vsize": 135,
      "weight": 540,
      "locktime": 0,
      "vin": [
        {
          "coinbase": "04ffff001d02e102",
          "sequence": 4294967295
        }
      ],
      "vout": [
        {
          "value": 50.0,
          "n": 0,
          "scriptPubKey": {
            "asm": "04147f70779d36a4067c95e86fe473c1a5755e12ac6e3f42645ad984b399acbef9b9f7b77d0f3edd870d930a4c7f6ff4b5eaee9753d467df4016b167b2782f06d9 OP_CHECKSIG",
            "desc": "pk(04147f70779d36a4067c95e86fe473c1a5755e12ac6e3f42645ad984b399acbef9b9f7b77d0f3edd870d930a4c7f6ff4b5eaee9753d467df4016b167b2782f06d9)#lfqztrc6",
            "hex": "4104147f70779d36a4067c95e86fe473c1a5755e12ac6e3f42645ad984b399acbef9b9f7b77d0f3edd870d930a4c7f6ff4b5eaee9753d467df4016b167b2782f06d9ac",
            "type": "pubkey"
          }
        }
      ],
      "hex": "01000000010000000000000000000000000000000000000000000000000000000000000000ffffffff0804ffff001d02e102ffffffff0100f2052a01000000434104147f70779d36a4067c95e86fe473c1a5755e12ac6e3f42645ad984b399acbef9b9f7b77d0f3edd870d930a4c7f6ff4b5eaee9753d467df4016b167b2782f06d9ac00000000"
    }
  ]
}