{
  "hash": "00000000a7d8beee715bbcd62dc818573a8ae9fe398c7d39487e9e776e2852c0",
  "confirmations": 52051,
  "height": 174,
  "version": 1,
  "versionHex": "00000001",
  "merkleroot": "ccb97113d5c2156d938edfaff425e301d1b862c9986714d443ab43070f119581",
  "time": 1231732861,
  "mediantime": 1231730523,
  "nonce": 257790258,
  "bits": "1d00ffff",
  "difficulty": 1,
  "chainwork": "000000000000000000000000000000000000000000000000000000af00af00af",
  "nTx": 1,
  "previousblockhash": "00000000dce9d69decc221c128ef78c2ae3d0b43267891f1f078586b47ac85c5",
  "nextblockhash": "00000000fd4afcc15f0fdda9b24be4c62068d8cf82fe6277730fd096712d9d08",
  "strippedsize": 215,
  "size": 215,
  "weight": 860,
  "tx": [
    {
      "txid": "ccb97113d5c2156d938edfaff425e301d1b862c9986714d443ab43070f119581",
      "hash": "ccb97113d5c2156d938edfaff425e301d1b862c9986714d443ab43070f119581",
      "version": 1,
      "size": 134,
      "vsize": 134,
      "weight": 536,
      "locktime": 0,
      "vin": [
        {
          "coinbase": "04ffff001d0113",
          "sequence": 4294967295
        }
      ],
      "vout": [
        {
          "value": 50.0,
          "n": 0,
          "scriptPubKey": {
            "asm": "0462cf7569d095ce66c37347e648e553ed5ecbbe145bff328d48a6853ce9394eb100a4bbd294b65308d71024f6eec175fecce22ed5e8acf0e8425c8362921184e8 OP_CHECKSIG",
            "desc": "pk(0462cf7569d095ce66c37347e648e553ed5ecbbe145bff328d48a6853ce9394eb100a4bbd294b65308d71024f6eec175fecce22ed5e8acf0e8425c8362921184e8)#usje740u",
            "hex": "410462cf7569d095ce66c37347e648e553ed5ecbbe145bff328d48a6853ce9394eb100a4bbd294b65308d71024f6eec175fecce22ed5e8acf0e8425c8362921184e8ac",
            "type": "pubkey"
          }
        }
      ],
      "hex": "01000000010000000000000000000000000000000000000000000000000000000000000000ffffffff0704ffff001d0113ffffffff0100f2052a0100000043410462cf7569d095ce66c37347e648e553ed5ecbbe145bff328d48a6853ce9394eb100a4bbd294b65308d71024f6eec175fecce22ed5e8acf0e8425c8362921184e8ac00000000"
    }
  ]
}