{
  "hash": "00000000c5461cfb9639792f4a50d79743a419f3002a7971c47baa44ac85fe17",
  "confirmations": 46955,
  "height": 6143,
  "version": 1,
  "versionHex": "00000001",
  "merkleroot": "0ccd10bcfb4fa4f079399687b13aeef5be4006eec9f12a05df0230d4b0de1302",
  "time": 1236044101,
  "mediantime": 1236039227,
  "nonce": 1629933591,
  "bits": "1d00ffff",
  "difficulty": 1,
  "chainwork": "0000000000000000000000000000000000000000000000000000180018001800",
  "nTx": 1,
  "previousblockhash": "000000004697d4cffdfb10743b360a681972be122d058f01bf3eea56a47e25eb",
  "nextblockhash": "0000000026012804d17f67ee488623b59dffecee6cf8dfd691248d27993fb2ee",
  "strippedsize": 216,
  "size": 216,
  "weight": 864,
  "tx": [
    {
      "txid": "0ccd10bcfb4fa4f079399687b13aeef5be4006eec9f12a05df0230d4b0de1302",
      "hash": "0ccd10bcfb4fa4f079399687b13aeef5be4006eec9f12a05df0230d4b0de1302",
      "version": 1,
      "size": 135,
      "vsize": 135,
      "weight": 540,
      "locktime": 0,
      "vin": [
        {
          "coinbase": "04ffff001d029f07",
          "sequence": 4294967295
        }
      ],
      "vout": [
        {
          "value": 50.0,
          "n": 0,
          "scriptPubKey": {
            "asm": "04599a6f887c8f34448f6df70485d6bee5fb6cc5853518c7b753d0a8fcd5a77b8ae1ad559c1b4ec4c86d49d68779dfcf9100e82810616d13612d02c1642b476ea0 OP_CHECKSIG",
            "desc": "pk(04599a6f887c8f34448f6df70485d6bee5fb6cc5853518c7b753d0a8fcd5a77b8ae1ad559c1b4ec4c86d49d68779dfcf9100e82810616d13612d02c1642b476ea0)#pjetzr8n",
            "hex": "4104599a6f887c8f34448f6df70485d6bee5fb6cc5853518c7b753d0a8fcd5a77b8ae1ad559c1b4ec4c86d49d68779dfcf9100e82810616d13612d02c1642b476ea0ac",
            "type": "pubkey"
          }
        }
      ],
      "hex": "01000000010000000000000000000000000000000000000000000000000000000000000000ffffffff0804ffff001d029f07ffffffff0100f2052a01000000434104599a6f887c8f34448f6df70485d6bee5fb6cc5853518c7b753d0a8fcd5a77b8ae1ad559c1b4ec4c86d49d68779dfcf9100e82810616d13612d02c1642b476ea0ac00000000"
    }
  ]
}