{
  "hash": "000000003d09f9f599f17ef2d1c483a2c76359b424f3580080a4777f88b64bd3",
  "confirmations": 45921,
  "height": 7177,
  "version": 1,
  "versionHex": "00000001",
  "merkleroot": "3d89625aec1db54412a9fc54c96d0e3643fdad754242d795780f2533a3d78fd0",
  "time": 1236854095,
  "mediantime": 1236850382,
  "nonce": 4198151984,
  "bits": "1d00ffff",
  "difficulty": 1,
  "chainwork": "00000000000000000000000000000000000000000000000000001c0a1c0a1c0a",
  "nTx": 1,
  "previousblockhash": "00000000d1c40b595ebb20cbe7eb40cb7a564217522b15b5734b826e272ac989",
  "nextblockhash": "000000003f206cad3f9d1e2aab3d01cf3bacb0d1fa4ff57755d441a2c5dee2b8",
  "strippedsize": 216,
  "size": 216,
  "weight": 864,
  "tx": [
    {
      "txid": "3d89625aec1db54412a9fc54c96d0e3643fdad754242d795780f2533a3d78fd0",
      "hash": "3d89625aec1db54412a9fc54c96d0e3643fdad754242d795780f2533a3d78fd0",
      "version": 1,
      "size": 135,
      "vsize": 135,
      "weight": 540,
      "locktime": 0,
      "vin": [
        {
          "coinbase": "04ffff001d025c05",
          "sequence": 4294967295
        }
      ],
      "vout": [
        {
          "value": 50.0,
          "n": 0,
          "scriptPubKey": {
            "asm": "0430b567103786cb8c1a59500c8b36d43e8680727368aa5553cf054256e71828ec0c3400df0c5456fc204cd2f89b9647d8d3d1768b4477b9f5e21a1775ce2b700a OP_CHECKSIG",
            "desc": "pk(0430b567103786cb8c1a59500c8b36d43e8680727368aa5553cf054256e71828ec0c3400df0c5456fc204cd2f89b9647d8d3d1768b4477b9f5e21a1775ce2b700a)#ptanmcmg",
            "hex": "410430b567103786cb8c1a59500c8b36d43e8680727368aa5553cf054256e71828ec0c3400df0c5456fc204cd2f89b9647d8d3d1768b4477b9f5e21a1775ce2b700aac",
            "type": "pubkey"
          }
        }
      ],
      "hex": "01000000010000000000000000000000000000000000000000000000000000000000000000ffffffff0804ffff001d025c05ffffffff0100f2052a0100000043410430b567103786cb8c1a59500c8b36d43e8680727368aa5553cf054256e71828ec0c3400df0c5456fc204cd2f89b9647d8d3d1768b4477b9f5e21a1775ce2b700aac00000000"
    }
  ]
}