{
  "hash": "00000000e1116365ea84f9145752abec2853a8f558afde6142e0129aee00909a",
  "confirmations": 43413,
  "height": 9685,
  "version": 1,
  "versionHex": "00000001",
  "merkleroot": "7e774704f16cb6742a772e7c7e2f6db63877d56bd7a73240f56110cc1cb1b06e",
  "time": 1238768010,
  "mediantime": 1238763639,
  "nonce": 4129491738,
  "bits": "1d00ffff",
  "difficulty": 1,
  "chainwork": "000000000000000000000000000000000000000000000000000025d625d625d6",
  "nTx": 1,
  "previousblockhash": "00000000f6028c9e60bb7ad158e3ccece8049e29c5b1aaf1bb42fdf92949fb65",
  "nextblockhash": "000000004191891622f30db0f878e37a050a73a249e097f9d98d41829aba80ca",
  "strippedsize": 216,
  "size": 216,
  "weight": 864,
  "tx": [
    {
      "txid": "7e774704f16cb6742a772e7c7e2f6db63877d56bd7a73240f56110cc1cb1b06e",
      "hash": "7e774704f16cb6742a772e7c7e2f6db63877d56bd7a73240f56110cc1cb1b06e",
      "version": 1,
      "size": 135,
      "vsize": 135,
      "weight": 540,
      "locktime": 0,
      "vin": [
        {
          "coinbase": "04ffff001d022708",
          "sequence": 4294967295
        }
      ],
      "vout": [
        {
          "value": 50.0,
          "n": 0,
          "scriptPubKey": {
            "asm": "04699d7f723ffe991186ccd16286eed77cac8066b982001d1ee2a65246c1144599ff157b8b2ec3a3ebd3e0b49245ff548155ca9bb00f9e8804f3e2d6cd80383ead OP_CHECKSIG",
            "desc": "pk(04699d7f723ffe991186ccd16286eed77cac8066b982001d1ee2a65246c1144599ff157b8b2ec3a3ebd3e0b49245ff548155ca9bb00f9e8804f3e2d6cd80383ead)#6pw96sff",
            "hex": "4104699d7f723ffe991186ccd16286eed77cac8066b982001d1ee2a65246c1144599ff157b8b2ec3a3ebd3e0b49245ff548155ca9bb00f9e8804f3e2d6cd80383eadac",
            "type": "pubkey"
          }
        }
      ],
      "hex": "01000000010000000000000000000000000000000000000000000000000000000000000000ffffffff0804ffff001d022708ffffffff0100f2052a01000000434104699d7f723ffe991186ccd16286eed77cac8066b982001d1ee2a65246c1144599ff157b8b2ec3a3ebd3e0b49245ff548155ca9bb00f9e8804f3e2d6cd80383eadac00000000"
    }
  ]
}