{
  "hash": "000000009aa258286ef2b93b9e9f435db70027bb8c67af64709500da5eeac52b",
  "confirmations": 47270,
  "height": 5828,
  "version": 1,
  "versionHex": "00000001",
  "merkleroot": "c05c8eaddb5bb4878182cbeb455a929ab1a6c36590ccec9bfe7f49f56ede42fe",
  "time": 1235782208,
  "mediantime": 1235777384,
  "nonce": 2400504579,
  "bits": "1d00ffff",
  "difficulty": 1,
  "chainwork": "000000000000000000000000000000000000000000000000000016c516c516c5",
  "nTx": 1,
  "previousblockhash": "00000000e15a133d75d10d57785caa5092d7c7bd2a6d8adb4b6bc4a04cf6016d",
  "nextblockhash": "000000002d598c3ddbc6950d1d6e6214c00a480423f45994b65f3673b40b0b07",
  "strippedsize": 216,
  "size": 216,
  "weight": 864,
  "tx": [
    {
      "txid": "c05c8eaddb5bb4878182cbeb455a929ab1a6c36590ccec9bfe7f49f56ede42fe",
      "hash": "c05c8eaddb5bb4878182cbeb455a929ab1a6c36590ccec9bfe7f49f56ede42fe",
      "version": 1,
      "size": 135,
      "vsize": 135,
      "weight": 540,
      "locktime": 0,
      "vin": [
        {
          "coinbase": "04ffff001d025b01",
          "sequence": 4294967295
        }
      ],
      "vout": [
        {
          "value": 50.0,
          "n": 0,
          "scriptPubKey": {
            "asm": "0444e475fd0d772826cf9f5add853b36e632ee0f933786b9977beb64016fcda342a9f321e61968f2ddd24bdc99d3f4ef62c3a55141e20ee6861a44cee53bee54b4 OP_CHECKSIG",
            "desc": "pk(0444e475fd0d772826cf9f5add853b36e632ee0f933786b9977beb64016fcda342a9f321e61968f2ddd24bdc99d3f4ef62c3a55141e20ee6861a44cee53bee54b4)#kfjw29hg",
            "hex": "410444e475fd0d772826cf9f5add853b36e632ee0f933786b9977beb64016fcda342a9f321e61968f2ddd24bdc99d3f4ef62c3a55141e20ee6861a44cee53bee54b4ac",
            "type": "pubkey"
          }
        }
      ],
      "hex": "01000000010000000000000000000000000000000000000000000000000000000000000000ffffffff0804ffff001d025b01ffffffff0100f2052a0100000043410444e475fd0d772826cf9f5add853b36e632ee0f933786b9977beb64016fcda342a9f321e61968f2ddd24bdc99d3f4ef62c3a55141e20ee6861a44cee53bee54b4ac00000000"
    }
  ]
}