{
  "hash": "00000000a3a89f3a6830991e7afbc71eb8d8d6fa3c57c37e330a248d6ae1b367",
  "confirmations": 46013,
  "height": 7085,
  "version": 1,
  "versionHex": "00000001",
  "merkleroot": "13291bf889c99bc8420d3e0bdb430c56d804ce255b6493c06a127926ccb80f7e",
  "time": 1236785536,
  "mediantime": 1236780229,
  "nonce": 1589785651,
  "bits": "1d00ffff",
  "difficulty": 1,
  "chainwork": "00000000000000000000000000000000000000000000000000001bae1bae1bae",
  "nTx": 1,
  "previousblockhash": "00000000285e3e8f92b44d5991728c88461091356bf8a7901d6a6907570f04d5",
  "nextblockhash": "000000001d16ed426f26ce1f49967973f095f789b285c28406d1759320e860ad",
  "strippedsize": 216,
  "size": 216,
  "weight": 864,
  "tx": [
    {
      "txid": "13291bf889c99bc8420d3e0bdb430c56d804ce255b6493c06a127926ccb80f7e",
      "hash": "13291bf889c99bc8420d3e0bdb430c56d804ce255b6493c06a127926ccb80f7e",
      "version": 1,
      "size": 135,
      "vsize": 135,
      "weight": 540,
      "locktime": 0,
      "vin": [
        {
          "coinbase": "04ffff001d02c203",
          "sequence": 4294967295
        }
      ],
      "vout": [
        {
          "value": 50.0,
          "n": 0,
          "scriptPubKey": {
            "asm": "0464c081c5851a6dc63c22d4bb62a1198532cb0ff2c211795bd573be0f533f602e14cb92da03351c52522313875f8e99796911c66013b3442aec49d3d76fa6d9d7 OP_CHECKSIG",
            "desc": "pk(0464c081c5851a6dc63c22d4bb62a1198532cb0ff2c211795bd573be0f533f602e14cb92da03351c52522313875f8e99796911c66013b3442aec49d3d76fa6d9d7)#9jg0yy4a",
            "hex": "410464c081c5851a6dc63c22d4bb62a1198532cb0ff2c211795bd573be0f533f602e14cb92da03351c52522313875f8e99796911c66013b3442aec49d3d76fa6d9d7ac",
            "type": "pubkey"
          }
        }
      ],
      "hex": "01000000010000000000000000000000000000000000000000000000000000000000000000ffffffff0804ffff001d02c203ffffffff0100f2052a0100000043410464c081c5851a6dc63c22d4bb62a1198532cb0ff2c211795bd573be0f533f602e14cb92da03351c52522313875f8e99796911c66013b3442aec49d3d76fa6d9d7ac00000000"
    }
  ]
}