{
  "hash": "00000000f46ba71dafc93d21bd76359486c7bcb599ddd2124f4c97e309511407",
  "confirmations": 43548,
  "height": 9550,
  "version": 1,
  "versionHex": "00000001",
  "merkleroot": "2916ebde1f6947b972baed1b6a35a4db39a20d1f6f0a6df1d3a0afb0b6f68a30",
  "time": 1238662777,
  "mediantime": 1238658396,
  "nonce": 118957867,
  "bits": "1d00ffff",
  "difficulty": 1,
  "chainwork": "0000000000000000000000000000000000000000000000000000254f254f254f",
  "nTx": 1,
  "previousblockhash": "00000000abe18f9019c0069f6162b3e21d68e99e864c12e637197931e07182fe",
  "nextblockhash": "00000000b100054b79ba744e0012d995acfe77b737c01fc6039cc5b47c257a48",
  "strippedsize": 216,
  "size": 216,
  "weight": 864,
  "tx": [
    {
      "txid": "2916ebde1f6947b972baed1b6a35a4db39a20d1f6f0a6df1d3a0afb0b6f68a30",
      "hash": "2916ebde1f6947b972baed1b6a35a4db39a20d1f6f0a6df1d3a0afb0b6f68a30",
      "version": 1,
      "size": 135,
      "vsize": 135,
      "weight": 540,
      "locktime": 0,
      "vin": [
        {
          "coinbase": "04ffff001d020d06",
          "sequence": 4294967295
        }
      ],
      "vout": [
        {
          "value": 50.0,
          "n": 0,
          "scriptPubKey": {
            "asm": "045634e69d8692e3882a74388bd97453222ea8d8f52c7e16b0155d71036e214d22ff7c17a7fc864bbb347e66bd03e27b210c61fc6c9d0b45047952faae1a7500c4 OP_CHECKSIG",
            "desc": "pk(045634e69d8692e3882a74388bd97453222ea8d8f52c7e16b0155d71036e214d22ff7c17a7fc864bbb347e66bd03e27b210c61fc6c9d0b45047952faae1a7500c4)#aurgthks",
            "hex": "41045634e69d8692e3882a74388bd97453222ea8d8f52c7e16b0155d71036e214d22ff7c17a7fc864bbb347e66bd03e27b210c61fc6c9d0b45047952faae1a7500c4ac",
            "type": "pubkey"
          }
        }
      ],
      "hex": "01000000010000000000000000000000000000000000000000000000000000000000000000ffffffff0804ffff001d020d06ffffffff0100f2052a010000004341045634e69d8692e3882a74388bd97453222ea8d8f52c7e16b0155d71036e214d22ff7c17a7fc864bbb347e66bd03e27b210c61fc6c9d0b45047952faae1a7500c4ac00000000"
    }
  ]
}