{
  "hash": "0000000010e1fddb76167cc0875b7f1bcd88292b2bc3debcbfe711a3621ce48f",
  "confirmations": 45979,
  "height": 7119,
  "version": 1,
  "versionHex": "00000001",
  "merkleroot": "57fdb23efac01898dfee59c68d6cbb5949882ca811deaa437034703471544f54",
  "time": 1236810552,
  "mediantime": 1236808188,
  "nonce": 23232057,
  "bits": "1d00ffff",
  "difficulty": 1,
  "chainwork": "00000000000000000000000000000000000000000000000000001bd01bd01bd0",
  "nTx": 1,
  "previousblockhash": "00000000c415bb92bba299ddb277fcb51f371ecaaaa863e81586f3838b1e9bd9",
  "nextblockhash": "00000000ba286b6fc8afbc7d0c525d0077d559350a808b550f9a71df0eeeeea2",
  "strippedsize": 216,
  "size": 216,
  "weight": 864,
  "tx": [
    {
      "txid": "57fdb23efac01898dfee59c68d6cbb5949882ca811deaa437034703471544f54",
      "hash": "57fdb23efac01898dfee59c68d6cbb5949882ca811deaa437034703471544f54",
      "version": 1,
      "size": 135,
      "vsize": 135,
      "weight": 540,
      "locktime": 0,
      "vin": [
        {
          "coinbase": "04ffff001d023504",
          "sequence": 4294967295
        }
      ],
      "vout": [
        {
          "value": 50.0,
          "n": 0,
          "scriptPubKey": {
            "asm": "04101259744cf610870d0c3b821fa4556303f07036f58d1dd00eef19c4947184f3c1c8a9689250dc0621a1c1817c24a4bd08a340e6fdb138e72f69439f7c563d77 OP_CHECKSIG",
            "desc": "pk(04101259744cf610870d0c3b821fa4556303f07036f58d1dd00eef19c4947184f3c1c8a9689250dc0621a1c1817c24a4bd08a340e6fdb138e72f69439f7c563d77)#jw7mtvnn",
            "hex": "4104101259744cf610870d0c3b821fa4556303f07036f58d1dd00eef19c4947184f3c1c8a9689250dc0621a1c1817c24a4bd08a340e6fdb138e72f69439f7c563d77ac",
            "type": "pubkey"
          }
        }
      ],
      "hex": "01000000010000000000000000000000000000000000000000000000000000000000000000ffffffff0804ffff001d023504ffffffff0100f2052a01000000434104101259744cf610870d0c3b821fa4556303f07036f58d1dd00eef19c4947184f3c1c8a9689250dc0621a1c1817c24a4bd08a340e6fdb138e72f69439f7c563d77ac00000000"
    }
  ]
}