{
  "hash": "000000001b055aa23e9c432e2d68b129ebbeaad36b953405df9a382ba74ae0d9",
  "confirmations": 50581,
  "height": 2517,
  "version": 1,
  "versionHex": "00000001",
  "merkleroot": "3e2b92f709e2543252b5e04ef08f57d8adf48a1e3c9dc14cd95b844cf4149d63",
  "time": 1233428358,
  "mediantime": 1233427047,
  "nonce": 17369082,
  "bits": "1d00ffff",
  "difficulty": 1,
  "chainwork": "000000000000000000000000000000000000000000000000000009d609d609d6",
  "nTx": 1,
  "previousblockhash": "00000000b9e3515f421c7cf05022323515f2d084c171da4556ce0a92b2fab388",
  "nextblockhash": "0000000006c9b1e6c82487e058b9fa9c001ee54700b33e061e1ebf2cd5b0b66a",
  "strippedsize": 216,
  "size": 216,
  "weight": 864,
  "tx": [
    {
      "txid": "3e2b92f709e2543252b5e04ef08f57d8adf48a1e3c9dc14cd95b844cf4149d63",
      "hash": "3e2b92f709e2543252b5e04ef08f57d8adf48a1e3c9dc14cd95b844cf4149d63",
      "version": 1,
      "size": 135,
      "vsize": 135,
      "weight": 540,
      "locktime": 0,
      "vin": [
        {
          "coinbase": "04ffff001d024205",
          "sequence": 4294967295
        }
      ],
      "vout": [
        {
          "value": 50.0,
          "n": 0,
          "scriptPubKey": {
            "asm": "04a6b556d150394069576d5b72798aafffcf706bbd43ad7058521f3b9aaf45ddd5cde9f01126355465ee638fc8d811478519cd438e356dc608a89f3e102e00d2d5 OP_CHECKSIG",
            "desc": "pk(04a6b556d150394069576d5b72798aafffcf706bbd43ad7058521f3b9aaf45ddd5cde9f01126355465ee638fc8d811478519cd438e356dc608a89f3e102e00d2d5)#czy7wwc3",
            "hex": "4104a6b556d150394069576d5b72798aafffcf706bbd43ad7058521f3b9aaf45ddd5cde9f01126355465ee638fc8d811478519cd438e356dc608a89f3e102e00d2d5ac",
            "type": "pubkey"
          }
        }
      ],
      "hex": "01000000010000000000000000000000000000000000000000000000000000000000000000ffffffff0804ffff001d024205ffffffff0100f2052a01000000434104a6b556d150394069576d5b72798aafffcf706bbd43ad7058521f3b9aaf45ddd5cde9f01126355465ee638fc8d811478519cd438e356dc608a89f3e102e00d2d5ac00000000"
    }
  ]
}