{
  "hash": "000000005b6243538fcc845789b3893ffd33e8e35c9b0dea1ba3a581e24deac0",
  "confirmations": 46549,
  "height": 6549,
  "version": 1,
  "versionHex": "00000001",
  "merkleroot": "9cc3013ba2c35a6f42a5f1fffe3c95529f21d245539d6a70a34f5cd7286c04ba",
  "time": 1236365055,
  "mediantime": 1236361428,
  "nonce": 4272849453,
  "bits": "1d00ffff",
  "difficulty": 1,
  "chainwork": "0000000000000000000000000000000000000000000000000000199619961996",
  "nTx": 1,
  "previousblockhash": "0000000086f96f6089236b0f59b2964df110455539f79e1354e537125ef24f11",
  "nextblockhash": "000000007e64ffcb7bb48166d78eec11a5f6382839e39ef93cca7ab069419290",
  "strippedsize": 216,
  "size": 216,
  "weight": 864,
  "tx": [
    {
      "txid": "9cc3013ba2c35a6f42a5f1fffe3c95529f21d245539d6a70a34f5cd7286c04ba",
      "hash": "9cc3013ba2c35a6f42a5f1fffe3c95529f21d245539d6a70a34f5cd7286c04ba",
      "version": 1,
      "size": 135,
      "vsize": 135,
      "weight": 540,
      "locktime": 0,
      "vin": [
        {
          "coinbase": "04ffff001d025604",
          "sequence": 4294967295
        }
      ],
      "vout": [
        {
          "value": 50.0,
          "n": 0,
          "scriptPubKey": {
            "asm": "04432baddeb6518a78675cb18f6531e069096e40b3486a2c437102b9d45dd3f77a482b69afc7ec892dbaa59a55d7e2f586f0bc28ad363334c4e653750c36331ada OP_CHECKSIG",
            "desc": "pk(04432baddeb6518a78675cb18f6531e069096e40b3486a2c437102b9d45dd3f77a482b69afc7ec892dbaa59a55d7e2f586f0bc28ad363334c4e653750c36331ada)#dhgnlul8",
            "hex": "4104432baddeb6518a78675cb18f6531e069096e40b3486a2c437102b9d45dd3f77a482b69afc7ec892dbaa59a55d7e2f586f0bc28ad363334c4e653750c36331adaac",
            "type": "pubkey"
          }
        }
      ],
      "hex": "01000000010000000000000000000000000000000000000000000000000000000000000000ffffffff0804ffff001d025604ffffffff0100f2052a01000000434104432baddeb6518a78675cb18f6531e069096e40b3486a2c437102b9d45dd3f77a482b69afc7ec892dbaa59a55d7e2f586f0bc28ad363334c4e653750c36331adaac00000000"
    }
  ]
}