{
  "hash": "0000000005be062bfcbe94c974c8678e7b4248735c48e73c26340585d993726a",
  "confirmations": 44346,
  "height": 8752,
  "version": 1,
  "versionHex": "00000001",
  "merkleroot": "184ad5291bdf53cd2f321d09fa6eef183f151aa65d3e2abf2cef1f52324bd636",
  "time": 1238060850,
  "mediantime": 1238057278,
  "nonce": 354437418,
  "bits": "1d00ffff",
  "difficulty": 1,
  "chainwork": "0000000000000000000000000000000000000000000000000000223122312231",
  "nTx": 1,
  "previousblockhash": "00000000e8e5275ee81b979c52df51e0a1a9b8eb5134b68b469bf1b44486ce0c",
  "nextblockhash": "00000000a7de40c4159e249184d3988905f735fc55fcc97b3a9e7cbecb53611c",
  "strippedsize": 216,
  "size": 216,
  "weight": 864,
  "tx": [
    {
      "txid": "184ad5291bdf53cd2f321d09fa6eef183f151aa65d3e2abf2cef1f52324bd636",
      "hash": "184ad5291bdf53cd2f321d09fa6eef183f151aa65d3e2abf2cef1f52324bd636",
      "version": 1,
      "size": 135,
      "vsize": 135,
      "weight": 540,
      "locktime": 0,
      "vin": [
        {
          "coinbase": "04ffff001d02c701",
          "sequence": 4294967295
        }
      ],
      "vout": [
        {
          "value": 50.0,
          "n": 0,
          "scriptPubKey": {
            "asm": "04079f1972f60249c906c7f41f2ce5b472489ddffee0d1de613a6ae5c4ba8759356be277139aa31b09dec29350bacb2bafac7416aa1cb21e1f9f107fbfb14ca2d2 OP_CHECKSIG",
            "desc": "pk(04079f1972f60249c906c7f41f2ce5b472489ddffee0d1de613a6ae5c4ba8759356be277139aa31b09dec29350bacb2bafac7416aa1cb21e1f9f107fbfb14ca2d2)#k98tud0d",
            "hex": "4104079f1972f60249c906c7f41f2ce5b472489ddffee0d1de613a6ae5c4ba8759356be277139aa31b09dec29350bacb2bafac7416aa1cb21e1f9f107fbfb14ca2d2ac",
            "type": "pubkey"
          }
        }
      ],
      "hex": "01000000010000000000000000000000000000000000000000000000000000000000000000ffffffff0804ffff001d02c701ffffffff0100f2052a01000000434104079f1972f60249c906c7f41f2ce5b472489ddffee0d1de613a6ae5c4ba8759356be277139aa31b09dec29350bacb2bafac7416aa1cb21e1f9f107fbfb14ca2d2ac00000000"
    }
  ]
}