{
  "hash": "000000004ff375707d7128dd2b080da4185727d534ea1b0aeac5877e00547391",
  "confirmations": 51882,
  "height": 57,
  "version": 1,
  "versionHex": "00000001",
  "merkleroot": "bc0f0f8b3235421a036122299db7046a00c3a7cd1d650de3d92969780b873728",
  "time": 1231619676,
  "mediantime": 1231616363,
  "nonce": 501022748,
  "bits": "1d00ffff",
  "difficulty": 1,
  "chainwork": "0000000000000000000000000000000000000000000000000000003a003a003a",
  "nTx": 1,
  "previousblockhash": "00000000f093cf2c5865f2bb851d5fa65ff1794b02fea4b0d90ff451e6e5d1c0",
  "nextblockhash": "0000000075b4df54f33c4e60cf88c5dd6a6455f16f4fbe220ae81e157ce32ef1",
  "strippedsize": 215,
  "size": 215,
  "weight": 860,
  "tx": [
    {
      "txid": "bc0f0f8b3235421a036122299db7046a00c3a7cd1d650de3d92969780b873728",
      "hash": "bc0f0f8b3235421a036122299db7046a00c3a7cd1d650de3d92969780b873728",
      "version": 1,
      "size": 134,
      "vsize": 134,
      "weight": 536,
      "locktime": 0,
      "vin": [
        {
          "coinbase": "04ffff001d017a",
          "sequence": 4294967295
        }
      ],
      "vout": [
        {
          "value": 50.0,
          "n": 0,
          "scriptPubKey": {
            "asm": "042f1c4a33266a8d0560b16a1ca35982ef0414ef30b268786de15c8c9836b91a612f5a043f026e3787bbb40952e4acd6a21d34285d939bfa6a23ba94b72de78247 OP_CHECKSIG",
            "desc": "pk(042f1c4a33266a8d0560b16a1ca35982ef0414ef30b268786de15c8c9836b91a612f5a043f026e3787bbb40952e4acd6a21d34285d939bfa6a23ba94b72de78247)#dndzsnf4",
            "hex": "41042f1c4a33266a8d0560b16a1ca35982ef0414ef30b268786de15c8c9836b91a612f5a043f026e3787bbb40952e4acd6a21d34285d939bfa6a23ba94b72de78247ac",
            "type": "pubkey"
          }
        }
      ],
      "hex": "01000000010000000000000000000000000000000000000000000000000000000000000000ffffffff0704ffff001d017affffffff0100f2052a010000004341042f1c4a33266a8d0560b16a1ca35982ef0414ef30b268786de15c8c9836b91a612f5a043f026e3787bbb40952e4acd6a21d34285d939bfa6a23ba94b72de78247ac00000000"
    }
  ]
}