{
  "hash": "00000000c0bb3a9cb6c02915a21d3ff877043acaa53fc91d8d6092a2f51cec07",
  "confirmations": 51579,
  "height": 1519,
  "version": 1,
  "versionHex": "00000001",
  "merkleroot": "34112682b6d09c6d01a708107a80f545a02cf49947f1f9f8df5916c75c125f47",
  "time": 1232775905,
  "mediantime": 1232773505,
  "nonce": 3887591991,
  "bits": "1d00ffff",
  "difficulty": 1,
  "chainwork": "000000000000000000000000000000000000000000000000000005f005f005f0",
  "nTx": 1,
  "previousblockhash": "0000000052af552fb616ca24d4d85c1b7faa8d5cf9ca911e87170785c922bea6",
  "nextblockhash": "000000007fd5bb1b397b43a7e3e2123770b8d3c59724814c00e2ebef6ccd43e9",
  "strippedsize": 216,
  "size": 216,
  "weight": 864,
  "tx": [
    {
      "txid": "34112682b6d09c6d01a708107a80f545a02cf49947f1f9f8df5916c75c125f47",
      "hash": "34112682b6d09c6d01a708107a80f545a02cf49947f1f9f8df5916c75c125f47",
      "version": 1,
      "size": 135,
      "vsize": 135,
      "weight": 540,
      "locktime": 0,
      "vin": [
        {
          "coinbase": "04ffff001d024001",
          "sequence": 4294967295
        }
      ],
      "vout": [
        {
          "value": 50.0,
          "n": 0,
          "scriptPubKey": {
            "asm": "04c4b2eee071a5a5f6cfcddd85c6909fdba9e898ffd3c47f757b5ec4696bd7566b33dd4d68aa226e210d8efa5477e20c283c9d015a816e69146b0b2c5b19ad778f OP_CHECKSIG",
            "desc": "pk(04c4b2eee071a5a5f6cfcddd85c6909fdba9e898ffd3c47f757b5ec4696bd7566b33dd4d68aa226e210d8efa5477e20c283c9d015a816e69146b0b2c5b19ad778f)#9xa39a0y",
            "hex": "4104c4b2eee071a5a5f6cfcddd85c6909fdba9e898ffd3c47f757b5ec4696bd7566b33dd4d68aa226e210d8efa5477e20c283c9d015a816e69146b0b2c5b19ad778fac",
            "type": "pubkey"
          }
        }
      ],
      "hex": "01000000010000000000000000000000000000000000000000000000000000000000000000ffffffff0804ffff001d024001ffffffff0100f2052a01000000434104c4b2eee071a5a5f6cfcddd85c6909fdba9e898ffd3c47f757b5ec4696bd7566b33dd4d68aa226e210d8efa5477e20c283c9d015a816e69146b0b2c5b19ad778fac00000000"
    }
  ]
}