{
  "hash": "00000000054c9ef1411c5a90efe18651625620737bd73e61e33ca5046907efd1",
  "confirmations": 52076,
  "height": 259,
  "version": 1,
  "versionHex": "00000001",
  "merkleroot": "d776eb69b1729316753621f55d83fd1d29964dcad0a9443bb6c2a5349e28e345",
  "time": 1231801541,
  "mediantime": 1231796561,
  "nonce": 1076708902,
  "bits": "1d00ffff",
  "difficulty": 1,
  "chainwork": "0000000000000000000000000000000000000000000000000000010401040104",
  "nTx": 1,
  "previousblockhash": "000000001a748e1c97226c59b9ddf79a54e0857116808a1b5610a52aef4ed5b5",
  "nextblockhash": "0000000032501f50fe47fd32d16bc632c04170255d407b7d15652c32d119397f",
  "strippedsize": 216,
  "size": 216,
  "weight": 864,
  "tx": [
    {
      "txid": "d776eb69b1729316753621f55d83fd1d29964dcad0a9443bb6c2a5349e28e345",
      "hash": "d776eb69b1729316753621f55d83fd1d29964dcad0a9443bb6c2a5349e28e345",
      "version": 1,
      "size": 135,
      "vsize": 135,
      "weight": 540,
      "locktime": 0,
      "vin": [
        {
          "coinbase": "04ffff001d024e01",
          "sequence": 4294967295
        }
      ],
      "vout": [
        {
          "value": 50.0,
          "n": 0,
          "scriptPubKey": {
            "asm": "045f2732362dba9576f027e190ac95c438bf43d49c8ef225e7fe072b452fce37096cab2a74a24f2db86fcc7dc3ee147fa067853f2251a6dd9980275db96113c513 OP_CHECKSIG",
            "desc": "pk(045f2732362dba9576f027e190ac95c438bf43d49c8ef225e7fe072b452fce37096cab2a74a24f2db86fcc7dc3ee147fa067853f2251a6dd9980275db96113c513)#cnlvlutx",
            "hex": "41045f2732362dba9576f027e190ac95c438bf43d49c8ef225e7fe072b452fce37096cab2a74a24f2db86fcc7dc3ee147fa067853f2251a6dd9980275db96113c513ac",
            "type": "pubkey"
          }
        }
      ],
      "hex": "01000000010000000000000000000000000000000000000000000000000000000000000000ffffffff0804ffff001d024e01ffffffff0100f2052a010000004341045f2732362dba9576f027e190ac95c438bf43d49c8ef225e7fe072b452fce37096cab2a74a24f2db86fcc7dc3ee147fa067853f2251a6dd9980275db96113c513ac00000000"
    }
  ]
}