{
  "hash": "00000000509d6b0628b1d939459d00b9201fd85bca68de4608cd1e04b71cf103",
  "confirmations": 44910,
  "height": 8188,
  "version": 1,
  "versionHex": "00000001",
  "merkleroot": "61866b3d080c2aca63815a67fcfda0268836e7da8435c9627b4db00fdc75bebc",
  "time": 1237597599,
  "mediantime": 1237595136,
  "nonce": 642248738,
  "bits": "1d00ffff",
  "difficulty": 1,
  "chainwork": "00000000000000000000000000000000000000000000000000001ffd1ffd1ffd",
  "nTx": 1,
  "previousblockhash": "000000005dd553ef43782145804368998fee32dcc0a230611fb2b1f001295a07",
  "nextblockhash": "00000000bc55e94d87fc6f2565abb2b781cf0b588b2c65f5fcb91e38a69ec93e",
  "strippedsize": 216,
  "size": 216,
  "weight": 864,
  "tx": [
    {
      "txid": "61866b3d080c2aca63815a67fcfda0268836e7da8435c9627b4db00fdc75bebc",
      "hash": "61866b3d080c2aca63815a67fcfda0268836e7da8435c9627b4db00fdc75bebc",
      "version": 1,
      "size": 135,
      "vsize": 135,
      "weight": 540,
      "locktime": 0,
      "vin": [
        {
          "coinbase": "04ffff001d02b302",
          "sequence": 4294967295
        }
      ],
      "vout": [
        {
          "value": 50.0,
          "n": 0,
          "scriptPubKey": {
            "asm": "04d9e3c5ae4d34de1c543448e60bb71361f41ac705b5c65f89c9d51a69c2912b46742e33647b039f2c4d3156ce5ee662cc7266015f6db41b17b77c544e0816caf8 OP_CHECKSIG",
            "desc": "pk(04d9e3c5ae4d34de1c543448e60bb71361f41ac705b5c65f89c9d51a69c2912b46742e33647b039f2c4d3156ce5ee662cc7266015f6db41b17b77c544e0816caf8)#cv2qyv3a",
            "hex": "4104d9e3c5ae4d34de1c543448e60bb71361f41ac705b5c65f89c9d51a69c2912b46742e33647b039f2c4d3156ce5ee662cc7266015f6db41b17b77c544e0816caf8ac",
            "type": "pubkey"
          }
        }
      ],
      "hex": "01000000010000000000000000000000000000000000000000000000000000000000000000ffffffff0804ffff001d02b302ffffffff0100f2052a01000000434104d9e3c5ae4d34de1c543448e60bb71361f41ac705b5c65f89c9d51a69c2912b46742e33647b039f2c4d3156ce5ee662cc7266015f6db41b17b77c544e0816caf8ac00000000"
    }
  ]
}