{
  "hash": "000000003d6b807793d48087a98b3d3032022645fe42989ead45d94c64cfb452",
  "confirmations": 46112,
  "height": 6986,
  "version": 1,
  "versionHex": "00000001",
  "merkleroot": "aa50b00aa0f1e039be56c3fb1172af337a239722027140e00ae2017bfbc0ba88",
  "time": 1236707243,
  "mediantime": 1236701974,
  "nonce": 543310360,
  "bits": "1d00ffff",
  "difficulty": 1,
  "chainwork": "00000000000000000000000000000000000000000000000000001b4b1b4b1b4b",
  "nTx": 1,
  "previousblockhash": "000000007dafe62a0e8ed540a46e5f65b5714cbaa8d88b29c38b98f8b4e73753",
  "nextblockhash": "00000000f501e981b2b5246ba86e9fbb822b5b71dbc019758cecd555ac561419",
  "strippedsize": 216,
  "size": 216,
  "weight": 864,
  "tx": [
    {
      "txid": "aa50b00aa0f1e039be56c3fb1172af337a239722027140e00ae2017bfbc0ba88",
      "hash": "aa50b00aa0f1e039be56c3fb1172af337a239722027140e00ae2017bfbc0ba88",
      "version": 1,
      "size": 135,
      "vsize": 135,
      "weight": 540,
      "locktime": 0,
      "vin": [
        {
          "coinbase": "04ffff001d020302",
          "sequence": 4294967295
        }
      ],
      "vout": [
        {
          "value": 50.0,
          "n": 0,
          "scriptPubKey": {
            "asm": "04755d502ac106783c84556d3cba8f6f801ba8fa4bae14965d3444d53f7c35a4231f83a1dd83c29bba2c40acd98383ef4cb79a346343b57fdfc9afa53e025fd234 OP_CHECKSIG",
            "desc": "pk(04755d502ac106783c84556d3cba8f6f801ba8fa4bae14965d3444d53f7c35a4231f83a1dd83c29bba2c40acd98383ef4cb79a346343b57fdfc9afa53e025fd234)#2lpkxl77",
            "hex": "4104755d502ac106783c84556d3cba8f6f801ba8fa4bae14965d3444d53f7c35a4231f83a1dd83c29bba2c40acd98383ef4cb79a346343b57fdfc9afa53e025fd234ac",
            "type": "pubkey"
          }
        }
      ],
      "hex": "01000000010000000000000000000000000000000000000000000000000000000000000000ffffffff0804ffff001d020302ffffffff0100f2052a01000000434104755d502ac106783c84556d3cba8f6f801ba8fa4bae14965d3444d53f7c35a4231f83a1dd83c29bba2c40acd98383ef4cb79a346343b57fdfc9afa53e025fd234ac00000000"
    }
  ]
}