{
  "hash": "000000004919b23c81fa5ffec029f005fa9bfd25851a9605b1fcc280e830c74c",
  "confirmations": 50666,
  "height": 2432,
  "version": 1,
  "versionHex": "00000001",
  "merkleroot": "fc4d39461612cda17e22df8145260fbd249a5a42ab65941f9f0f923fcd5579fa",
  "time": 1233379552,
  "mediantime": 1233374826,
  "nonce": 1825420315,
  "bits": "1d00ffff",
  "difficulty": 1,
  "chainwork": "0000000000000000000000000000000000000000000000000000098109810981",
  "nTx": 1,
  "previousblockhash": "00000000eaf6d5a6b74911becc470a77b9312e0fd7531adcb06980936d0116e2",
  "nextblockhash": "0000000051047cd40e4eedaf77e20d928aacf6e00d5eff248f4bf76c0220e16f",
  "strippedsize": 215,
  "size": 215,
  "weight": 860,
  "tx": [
    {
      "txid": "fc4d39461612cda17e22df8145260fbd249a5a42ab65941f9f0f923fcd5579fa",
      "hash": "fc4d39461612cda17e22df8145260fbd249a5a42ab65941f9f0f923fcd5579fa",
      "version": 1,
      "size": 134,
      "vsize": 134,
      "weight": 536,
      "locktime": 0,
      "vin": [
        {
          "coinbase": "04ffff001d0141",
          "sequence": 4294967295
        }
      ],
      "vout": [
        {
          "value": 50.0,
          "n": 0,
          "scriptPubKey": {
            "asm": "04c915ab8315145d200192a23603ae219789e1b78a368a071810849240c4232b70b04471cc24d7d7917bf4808e08f3cca2bf2dfb1dc9dcb78cca5047807932b916 OP_CHECKSIG",
            "desc": "pk(04c915ab8315145d200192a23603ae219789e1b78a368a071810849240c4232b70b04471cc24d7d7917bf4808e08f3cca2bf2dfb1dc9dcb78cca5047807932b916)#xm948029",
            "hex": "4104c915ab8315145d200192a23603ae219789e1b78a368a071810849240c4232b70b04471cc24d7d7917bf4808e08f3cca2bf2dfb1dc9dcb78cca5047807932b916ac",
            "type": "pubkey"
          }
        }
      ],
      "hex": "01000000010000000000000000000000000000000000000000000000000000000000000000ffffffff0704ffff001d0141ffffffff0100f2052a01000000434104c915ab8315145d200192a23603ae219789e1b78a368a071810849240c4232b70b04471cc24d7d7917bf4808e08f3cca2bf2dfb1dc9dcb78cca5047807932b916ac00000000"
    }
  ]
}