{
  "hash": "00000000a4899a52e166b3da8be35c41dc700ac52661cb7c75e0f6045ff88b28",
  "confirmations": 48123,
  "height": 4975,
  "version": 1,
  "versionHex": "00000001",
  "merkleroot": "522729796a74ac210d1e91d974ddbaec194bbf6be9df3ccb9518948e11a275c3",
  "time": 1235122731,
  "mediantime": 1235119456,
  "nonce": 142548064,
  "bits": "1d00ffff",
  "difficulty": 1,
  "chainwork": "0000000000000000000000000000000000000000000000000000137013701370",
  "nTx": 1,
  "previousblockhash": "00000000b8e3e02c93d42452ef0cce4b5ca4c91ac776f77de818462aa43c5deb",
  "nextblockhash": "00000000d9db93f719d49cbca051513dc0fee615fe97e38dc3652a6bf90d218f",
  "strippedsize": 215,
  "size": 215,
  "weight": 860,
  "tx": [
    {
      "txid": "522729796a74ac210d1e91d974ddbaec194bbf6be9df3ccb9518948e11a275c3",
      "hash": "522729796a74ac210d1e91d974ddbaec194bbf6be9df3ccb9518948e11a275c3",
      "version": 1,
      "size": 134,
      "vsize": 134,
      "weight": 536,
      "locktime": 0,
      "vin": [
        {
          "coinbase": "04ffff001d0139",
          "sequence": 4294967295
        }
      ],
      "vout": [
        {
          "value": 50.0,
          "n": 0,
          "scriptPubKey": {
            "asm": "04e3e138558abdfe20a9c1607037bdfa39f60858ed11e6f25f46dfebed9b7ff9cc83d1426190b7e64b24a95319777da5ce394f9c9c7fe6b538015640290c8c3abc OP_CHECKSIG",
            "desc": "pk(04e3e138558abdfe20a9c1607037bdfa39f60858ed11e6f25f46dfebed9b7ff9cc83d1426190b7e64b24a95319777da5ce394f9c9c7fe6b538015640290c8c3abc)#22xcft53",
            "hex": "4104e3e138558abdfe20a9c1607037bdfa39f60858ed11e6f25f46dfebed9b7ff9cc83d1426190b7e64b24a95319777da5ce394f9c9c7fe6b538015640290c8c3abcac",
            "type": "pubkey"
          }
        }
      ],
      "hex": "01000000010000000000000000000000000000000000000000000000000000000000000000ffffffff0704ffff001d0139ffffffff0100f2052a01000000434104e3e138558abdfe20a9c1607037bdfa39f60858ed11e6f25f46dfebed9b7ff9cc83d1426190b7e64b24a95319777da5ce394f9c9c7fe6b538015640290c8c3abcac00000000"
    }
  ]
}