{
  "hash": "0000000091072446161b75b86354fac4270de72c0beb1281135892364b030931",
  "confirmations": 52254,
  "height": 844,
  "version": 1,
  "versionHex": "00000001",
  "merkleroot": "59a07e38ab9e04bfe7a8277d1960b1407af81cb515d5f1df3431ed40eca1f135",
  "time": 1232224537,
  "mediantime": 1232221146,
  "nonce": 94029524,
  "bits": "1d00ffff",
  "difficulty": 1,
  "chainwork": "0000000000000000000000000000000000000000000000000000034d034d034d",
  "nTx": 1,
  "previousblockhash": "00000000fa5dae315bda889b42d81ec0d94de20d6ca6b446bf6e7747bafac665",
  "nextblockhash": "00000000a33e8edf4d2fea75ac94487f3140d36ce8110048dd928e63370f4f44",
  "strippedsize": 216,
  "size": 216,
  "weight": 864,
  "tx": [
    {
      "txid": "59a07e38ab9e04bfe7a8277d1960b1407af81cb515d5f1df3431ed40eca1f135",
      "hash": "59a07e38ab9e04bfe7a8277d1960b1407af81cb515d5f1df3431ed40eca1f135",
      "version": 1,
      "size": 135,
      "vsize": 135,
      "weight": 540,
      "locktime": 0,
      "vin": [
        {
          "coinbase": "04ffff001d02d400",
          "sequence": 4294967295
        }
      ],
      "vout": [
        {
          "value": 50.0,
          "n": 0,
          "scriptPubKey": {
            "asm": "04b9a92b98060964ff044871ab7cf49daed4ea9d059e1b1dc64e51e23eda85bdee944a6a3818aa9f90cf474f0d8600e5fa6a6fd48ea27a97d1dec96cda4e865908 OP_CHECKSIG",
            "desc": "pk(04b9a92b98060964ff044871ab7cf49daed4ea9d059e1b1dc64e51e23eda85bdee944a6a3818aa9f90cf474f0d8600e5fa6a6fd48ea27a97d1dec96cda4e865908)#xw6eh7ls",
            "hex": "4104b9a92b98060964ff044871ab7cf49daed4ea9d059e1b1dc64e51e23eda85bdee944a6a3818aa9f90cf474f0d8600e5fa6a6fd48ea27a97d1dec96cda4e865908ac",
            "type": "pubkey"
          }
        }
      ],
      "hex": "01000000010000000000000000000000000000000000000000000000000000000000000000ffffffff0804ffff001d02d400ffffffff0100f2052a01000000434104b9a92b98060964ff044871ab7cf49daed4ea9d059e1b1dc64e51e23eda85bdee944a6a3818aa9f90cf474f0d8600e5fa6a6fd48ea27a97d1dec96cda4e865908ac00000000"
    }
  ]
}