{
  "hash": "00000000c0d58417a148bbf76ea89f12eaa4c26ec4bc6e1b9eecb62241cef29f",
  "confirmations": 46238,
  "height": 6860,
  "version": 1,
  "versionHex": "00000001",
  "merkleroot": "8bc19edce2f4f3d1ea70baebd8da139f6f7c94f3393fe690036e93968ffa887f",
  "time": 1236602171,
  "mediantime": 1236598541,
  "nonce": 111495523,
  "bits": "1d00ffff",
  "difficulty": 1,
  "chainwork": "00000000000000000000000000000000000000000000000000001acd1acd1acd",
  "nTx": 1,
  "previousblockhash": "00000000e12ba875291c457cf695927040edf8d144923bc2e92b43d6e30d83bc",
  "nextblockhash": "00000000621f3cb0d94e1661ef5662903ca878cb1788db2d80223e75aea2275d",
  "strippedsize": 215,
  "size": 215,
  "weight": 860,
  "tx": [
    {
      "txid": "8bc19edce2f4f3d1ea70baebd8da139f6f7c94f3393fe690036e93968ffa887f",
      "hash": "8bc19edce2f4f3d1ea70baebd8da139f6f7c94f3393fe690036e93968ffa887f",
      "version": 1,
      "size": 134,
      "vsize": 134,
      "weight": 536,
      "locktime": 0,
      "vin": [
        {
          "coinbase": "04ffff001d0176",
          "sequence": 4294967295
        }
      ],
      "vout": [
        {
          "value": 50.0,
          "n": 0,
          "scriptPubKey": {
            "asm": "04605bdf22e31f6e7c9b7a8532b20e86ba1418c3ec9f0a71deaaef042d87730febc032e69a95463998e4008b7d99ab106d02975b2dc9091eafc2238301276b9912 OP_CHECKSIG",
            "desc": "pk(04605bdf22e31f6e7c9b7a8532b20e86ba1418c3ec9f0a71deaaef042d87730febc032e69a95463998e4008b7d99ab106d02975b2dc9091eafc2238301276b9912)#vc64hw8f",
            "hex": "4104605bdf22e31f6e7c9b7a8532b20e86ba1418c3ec9f0a71deaaef042d87730febc032e69a95463998e4008b7d99ab106d02975b2dc9091eafc2238301276b9912ac",
            "type": "pubkey"
          }
        }
      ],
      "hex": "01000000010000000000000000000000000000000000000000000000000000000000000000ffffffff0704ffff001d0176ffffffff0100f2052a01000000434104605bdf22e31f6e7c9b7a8532b20e86ba1418c3ec9f0a71deaaef042d87730febc032e69a95463998e4008b7d99ab106d02975b2dc9091eafc2238301276b9912ac00000000"
    }
  ]
}