{
  "hash": "000000008217fe661c8fa1fe90e78b6f578d274169e4ec2b1a38ab56d4341566",
  "confirmations": 47635,
  "height": 5463,
  "version": 1,
  "versionHex": "00000001",
  "merkleroot": "4efa3c77c1271c5cde0a76e7dd942f937681eb2a6ff64e4c9e58da50479f2620",
  "time": 1235494007,
  "mediantime": 1235490715,
  "nonce": 200997268,
  "bits": "1d00ffff",
  "difficulty": 1,
  "chainwork": "0000000000000000000000000000000000000000000000000000155815581558",
  "nTx": 1,
  "previousblockhash": "00000000b74544f44585efbcf42f3bb6dd8d6d5170c7841a18a982f693e7675a",
  "nextblockhash": "0000000084dee9803e97cda23967daabecbdb7b1499ede59facdffcb1c263c98",
  "strippedsize": 216,
  "size": 216,
  "weight": 864,
  "tx": [
    {
      "txid": "4efa3c77c1271c5cde0a76e7dd942f937681eb2a6ff64e4c9e58da50479f2620",
      "hash": "4efa3c77c1271c5cde0a76e7dd942f937681eb2a6ff64e4c9e58da50479f2620",
      "version": 1,
      "size": 135,
      "vsize": 135,
      "weight": 540,
      "locktime": 0,
      "vin": [
        {
          "coinbase": "04ffff001d023101",
          "sequence": 4294967295
        }
      ],
      "vout": [
        {
          "value": 50.0,
          "n": 0,
          "scriptPubKey": {
            "asm": "042d3769e5238888b8c7924086fa249277715f4e2044bf02a9394437220de03a23586252f53eae4cafc77046b70ac2cf0ba8921882bb1239f3109cf5fb0588ed61 OP_CHECKSIG",
            "desc": "pk(042d3769e5238888b8c7924086fa249277715f4e2044bf02a9394437220de03a23586252f53eae4cafc77046b70ac2cf0ba8921882bb1239f3109cf5fb0588ed61)#wdhntae3",
            "hex": "41042d3769e5238888b8c7924086fa249277715f4e2044bf02a9394437220de03a23586252f53eae4cafc77046b70ac2cf0ba8921882bb1239f3109cf5fb0588ed61ac",
            "type": "pubkey"
          }
        }
      ],
      "hex": "01000000010000000000000000000000000000000000000000000000000000000000000000ffffffff0804ffff001d023101ffffffff0100f2052a010000004341042d3769e5238888b8c7924086fa249277715f4e2044bf02a9394437220de03a23586252f53eae4cafc77046b70ac2cf0ba8921882bb1239f3109cf5fb0588ed61ac00000000"
    }
  ]
}