{
  "hash": "0000000018f13df791e8023b7a51fe22d06a7b9be18723e52431d4795231c816",
  "confirmations": 47196,
  "height": 5902,
  "version": 1,
  "versionHex": "00000001",
  "merkleroot": "1293e0f2b56f507090e0d4e5f4634bcd6640dd4b206f35bedac5024f6c0bdd16",
  "time": 1235845930,
  "mediantime": 1235841423,
  "nonce": 714720040,
  "bits": "1d00ffff",
  "difficulty": 1,
  "chainwork": "0000000000000000000000000000000000000000000000000000170f170f170f",
  "nTx": 1,
  "previousblockhash": "00000000e2ce26991d2fac07c4600b4881e91819d186aaff6f530ec237725747",
  "nextblockhash": "00000000e8f1013427bd6f39cef783291463c350b72e8ede8eb7c256407419f7",
  "strippedsize": 216,
  "size": 216,
  "weight": 864,
  "tx": [
    {
      "txid": "1293e0f2b56f507090e0d4e5f4634bcd6640dd4b206f35bedac5024f6c0bdd16",
      "hash": "1293e0f2b56f507090e0d4e5f4634bcd6640dd4b206f35bedac5024f6c0bdd16",
      "version": 1,
      "size": 135,
      "vsize": 135,
      "weight": 540,
      "locktime": 0,
      "vin": [
        {
          "coinbase": "04ffff001d020b03",
          "sequence": 4294967295
        }
      ],
      "vout": [
        {
          "value": 50.0,
          "n": 0,
          "scriptPubKey": {
            "asm": "04d79d80be6d44081c200087acceb9be6f5a718b027f04264812c1f297c0261a751a05f3f4132cd1ccbeee08bd4011fa92e7bbb32ad13defea63879380f4b8f279 OP_CHECKSIG",
            "desc": "pk(04d79d80be6d44081c200087acceb9be6f5a718b027f04264812c1f297c0261a751a05f3f4132cd1ccbeee08bd4011fa92e7bbb32ad13defea63879380f4b8f279)#sy2ywv8g",
            "hex": "4104d79d80be6d44081c200087acceb9be6f5a718b027f04264812c1f297c0261a751a05f3f4132cd1ccbeee08bd4011fa92e7bbb32ad13defea63879380f4b8f279ac",
            "type": "pubkey"
          }
        }
      ],
      "hex": "01000000010000000000000000000000000000000000000000000000000000000000000000ffffffff0804ffff001d020b03ffffffff0100f2052a01000000434104d79d80be6d44081c200087acceb9be6f5a718b027f04264812c1f297c0261a751a05f3f4132cd1ccbeee08bd4011fa92e7bbb32ad13defea63879380f4b8f279ac00000000"
    }
  ]
}