{
  "hash": "00000000de2bda4269ff82cdbf40d434408cbaa8cd76c9fc593dd6fd41230c51",
  "confirmations": 43815,
  "height": 9283,
  "version": 1,
  "versionHex": "00000001",
  "merkleroot": "334cc58bc1b96007cdec5d86f35d9c87e3f29c391524ed7696054884df112508",
  "time": 1238460502,
  "mediantime": 1238456703,
  "nonce": 509456152,
  "bits": "1d00ffff",
  "difficulty": 1,
  "chainwork": "0000000000000000000000000000000000000000000000000000244424442444",
  "nTx": 1,
  "previousblockhash": "000000004a264c6b89385ee2ece891a6a8b6b1017bcac3bd790f5c5f8727ffe0",
  "nextblockhash": "0000000026d2af72ee7b249d90df440d229c4687fb991e4df51b2817843ffab3",
  "strippedsize": 216,
  "size": 216,
  "weight": 864,
  "tx": [
    {
      "txid": "334cc58bc1b96007cdec5d86f35d9c87e3f29c391524ed7696054884df112508",
      "hash": "334cc58bc1b96007cdec5d86f35d9c87e3f29c391524ed7696054884df112508",
      "version": 1,
      "size": 135,
      "vsize": 135,
      "weight": 540,
      "locktime": 0,
      "vin": [
        {
          "coinbase": "04ffff001d027c01",
          "sequence": 4294967295
        }
      ],
      "vout": [
        {
          "value": 50.0,
          "n": 0,
          "scriptPubKey": {
            "asm": "04a5a08f409f14d717a66acfab57ff12e348824ca901ae3275d60fd78b80333ee5cf9fa2988b52137e785f68e02d53f665b248d072c647585b25169e2a09d12386 OP_CHECKSIG",
            "desc": "pk(04a5a08f409f14d717a66acfab57ff12e348824ca901ae3275d60fd78b80333ee5cf9fa2988b52137e785f68e02d53f665b248d072c647585b25169e2a09d12386)#g735h4n2",
            "hex": "4104a5a08f409f14d717a66acfab57ff12e348824ca901ae3275d60fd78b80333ee5cf9fa2988b52137e785f68e02d53f665b248d072c647585b25169e2a09d12386ac",
            "type": "pubkey"
          }
        }
      ],
      "hex": "01000000010000000000000000000000000000000000000000000000000000000000000000ffffffff0804ffff001d027c01ffffffff0100f2052a01000000434104a5a08f409f14d717a66acfab57ff12e348824ca901ae3275d60fd78b80333ee5cf9fa2988b52137e785f68e02d53f665b248d072c647585b25169e2a09d12386ac00000000"
    }
  ]
}