{
  "hash": "00000000df0d808dcaa676a3be0d95d30a9adc8df7c32181fcca5960ad62e977",
  "confirmations": 49732,
  "height": 3366,
  "version": 1,
  "versionHex": "00000001",
  "merkleroot": "8064620e9ffc649e37243ad5ad14fb6ace6fd9c9104e0a1198ec49b61463dbba",
  "time": 1234014434,
  "mediantime": 1234010382,
  "nonce": 4046850345,
  "bits": "1d00ffff",
  "difficulty": 1,
  "chainwork": "00000000000000000000000000000000000000000000000000000d270d270d27",
  "nTx": 1,
  "previousblockhash": "00000000f859990ee84bf820d03dc8565cd5935f2bea6460e5f910f3ea07c9d4",
  "nextblockhash": "00000000bcf6094eb54fb19190d9f59727a3a877b273ed131c78a4647f0820df",
  "strippedsize": 216,
  "size": 216,
  "weight": 864,
  "tx": [
    {
      "txid": "8064620e9ffc649e37243ad5ad14fb6ace6fd9c9104e0a1198ec49b61463dbba",
      "hash": "8064620e9ffc649e37243ad5ad14fb6ace6fd9c9104e0a1198ec49b61463dbba",
      "version": 1,
      "size": 135,
      "vsize": 135,
      "weight": 540,
      "locktime": 0,
      "vin": [
        {
          "coinbase": "04ffff001d025605",
          "sequence": 4294967295
        }
      ],
      "vout": [
        {
          "value": 50.0,
          "n": 0,
          "scriptPubKey": {
            "asm": "042ea017df86e8f276748499435b00599bed0960a74eec9d934c2c4f7c47ee3d0496ca0de5f60448cf7c38b633fc3bc52c9cb1b924dd44d4e94e7ae5fdd1968470 OP_CHECKSIG",
            "desc": "pk(042ea017df86e8f276748499435b00599bed0960a74eec9d934c2c4f7c47ee3d0496ca0de5f60448cf7c38b633fc3bc52c9cb1b924dd44d4e94e7ae5fdd1968470)#ywym9nwy",
            "hex": "41042ea017df86e8f276748499435b00599bed0960a74eec9d934c2c4f7c47ee3d0496ca0de5f60448cf7c38b633fc3bc52c9cb1b924dd44d4e94e7ae5fdd1968470ac",
            "type": "pubkey"
          }
        }
      ],
      "hex": "01000000010000000000000000000000000000000000000000000000000000000000000000ffffffff0804ffff001d025605ffffffff0100f2052a010000004341042ea017df86e8f276748499435b00599bed0960a74eec9d934c2c4f7c47ee3d0496ca0de5f60448cf7c38b633fc3bc52c9cb1b924dd44d4e94e7ae5fdd1968470ac00000000"
    }
  ]
}