{
  "hash": "00000000c15b8557411726e9a63c3963c4e21564f27f4c51953d0762a1a64d0d",
  "confirmations": 43452,
  "height": 9646,
  "version": 1,
  "versionHex": "00000001",
  "merkleroot": "91abe7b864096b978d8ae5a1e70b62b2e4de9747ea8f4ddf85b7efee78cf5b90",
  "time": 1238738089,
  "mediantime": 1238732829,
  "nonce": 2457459475,
  "bits": "1d00ffff",
  "difficulty": 1,
  "chainwork": "000000000000000000000000000000000000000000000000000025af25af25af",
  "nTx": 1,
  "previousblockhash": "000000000d04c22b78902f4f230ef59e256feb480c540696c2297cdeae2e4de8",
  "nextblockhash": "000000005ace701abaa540d44bd4aaee7dd2a9c631f2d3ca9dc18682c2f0a110",
  "strippedsize": 216,
  "size": 216,
  "weight": 864,
  "tx": [
    {
      "txid": "91abe7b864096b978d8ae5a1e70b62b2e4de9747ea8f4ddf85b7efee78cf5b90",
      "hash": "91abe7b864096b978d8ae5a1e70b62b2e4de9747ea8f4ddf85b7efee78cf5b90",
      "version": 1,
      "size": 135,
      "vsize": 135,
      "weight": 540,
      "locktime": 0,
      "vin": [
        {
          "coinbase": "04ffff001d02ac07",
          "sequence": 4294967295
        }
      ],
      "vout": [
        {
          "value": 50.0,
          "n": 0,
          "scriptPubKey": {
            "asm": "045d859e7fe6238e2f7c10d0be49a91703d790011ea4a20a4a527193ee45a52f3f7cabd8d4db3d589ca396f05c1786dcb2cb325988adaf22b3a911548afd805b40 OP_CHECKSIG",
            "desc": "pk(045d859e7fe6238e2f7c10d0be49a91703d790011ea4a20a4a527193ee45a52f3f7cabd8d4db3d589ca396f05c1786dcb2cb325988adaf22b3a911548afd805b40)#s9wlc675",
            "hex": "41045d859e7fe6238e2f7c10d0be49a91703d790011ea4a20a4a527193ee45a52f3f7cabd8d4db3d589ca396f05c1786dcb2cb325988adaf22b3a911548afd805b40ac",
            "type": "pubkey"
          }
        }
      ],
      "hex": "01000000010000000000000000000000000000000000000000000000000000000000000000ffffffff0804ffff001d02ac07ffffffff0100f2052a010000004341045d859e7fe6238e2f7c10d0be49a91703d790011ea4a20a4a527193ee45a52f3f7cabd8d4db3d589ca396f05c1786dcb2cb325988adaf22b3a911548afd805b40ac00000000"
    }
  ]
}