{
  "hash": "00000000db45860b18546aec1ca2a4105cffeb2800772d36bb6abf1cefda1450",
  "confirmations": 48470,
  "height": 4628,
  "version": 1,
  "versionHex": "00000001",
  "merkleroot": "bc741068656f112336a50ae75c49db68965bebd0a15a96f7af3f18fa3c328f17",
  "time": 1234875438,
  "mediantime": 1234872765,
  "nonce": 285012522,
  "bits": "1d00ffff",
  "difficulty": 1,
  "chainwork": "0000000000000000000000000000000000000000000000000000121512151215",
  "nTx": 1,
  "previousblockhash": "00000000c002740f01ade8189de73cea29b280f6811ef056df387b873dd8bfcd",
  "nextblockhash": "00000000cb22ba2add4f6f5c03211294d92d8663846e6a90380d1f0e1eb1539c",
  "strippedsize": 216,
  "size": 216,
  "weight": 864,
  "tx": [
    {
      "txid": "bc741068656f112336a50ae75c49db68965bebd0a15a96f7af3f18fa3c328f17",
      "hash": "bc741068656f112336a50ae75c49db68965bebd0a15a96f7af3f18fa3c328f17",
      "version": 1,
      "size": 135,
      "vsize": 135,
      "weight": 540,
      "locktime": 0,
      "vin": [
        {
          "coinbase": "04ffff001d02ac0a",
          "sequence": 4294967295
        }
      ],
      "vout": [
        {
          "value": 50.0,
          "n": 0,
          "scriptPubKey": {
            "asm": "044862004e4ef4d78be30b234e80f55cfceacde929d99254eae684cb38cc086c35722757cb74db10ef1d6a32047543e0933fec1ba70b43261f2e189c6c35d1022c OP_CHECKSIG",
            "desc": "pk(044862004e4ef4d78be30b234e80f55cfceacde929d99254eae684cb38cc086c35722757cb74db10ef1d6a32047543e0933fec1ba70b43261f2e189c6c35d1022c)#7q2nr3pn",
            "hex": "41044862004e4ef4d78be30b234e80f55cfceacde929d99254eae684cb38cc086c35722757cb74db10ef1d6a32047543e0933fec1ba70b43261f2e189c6c35d1022cac",
            "type": "pubkey"
          }
        }
      ],
      "hex": "01000000010000000000000000000000000000000000000000000000000000000000000000ffffffff0804ffff001d02ac0affffffff0100f2052a010000004341044862004e4ef4d78be30b234e80f55cfceacde929d99254eae684cb38cc086c35722757cb74db10ef1d6a32047543e0933fec1ba70b43261f2e189c6c35d1022cac00000000"
    }
  ]
}