{
  "hash": "00000000d3e2fc199bb16003c721247afb95908c0fd5783b7d889a47fe913f2c",
  "confirmations": 48121,
  "height": 4977,
  "version": 1,
  "versionHex": "00000001",
  "merkleroot": "aac6c32ed6770147170476ddcce065b111b369353d52b2b1db35350e400366f5",
  "time": 1235123825,
  "mediantime": 1235120096,
  "nonce": 30176576,
  "bits": "1d00ffff",
  "difficulty": 1,
  "chainwork": "0000000000000000000000000000000000000000000000000000137213721372",
  "nTx": 1,
  "previousblockhash": "00000000d9db93f719d49cbca051513dc0fee615fe97e38dc3652a6bf90d218f",
  "nextblockhash": "000000000c3a8b9a51d2384f8d87f4ed856681426a42b9369cc77d841a03dc86",
  "strippedsize": 216,
  "size": 216,
  "weight": 864,
  "tx": [
    {
      "txid": "aac6c32ed6770147170476ddcce065b111b369353d52b2b1db35350e400366f5",
      "hash": "aac6c32ed6770147170476ddcce065b111b369353d52b2b1db35350e400366f5",
      "version": 1,
      "size": 135,
      "vsize": 135,
      "weight": 540,
      "locktime": 0,
      "vin": [
        {
          "coinbase": "04ffff001d023005",
          "sequence": 4294967295
        }
      ],
      "vout": [
        {
          "value": 50.0,
          "n": 0,
          "scriptPubKey": {
            "asm": "0407e1cb24a9d63acbb871044798c4a9e4fe56f713058cbd30cf0edd9b852619968e6adfe252c4bf4715b7e2d446402e0816e85e233cef983537d9c16b9df82c8a OP_CHECKSIG",
            "desc": "pk(0407e1cb24a9d63acbb871044798c4a9e4fe56f713058cbd30cf0edd9b852619968e6adfe252c4bf4715b7e2d446402e0816e85e233cef983537d9c16b9df82c8a)#wvews4wg",
            "hex": "410407e1cb24a9d63acbb871044798c4a9e4fe56f713058cbd30cf0edd9b852619968e6adfe252c4bf4715b7e2d446402e0816e85e233cef983537d9c16b9df82c8aac",
            "type": "pubkey"
          }
        }
      ],
      "hex": "01000000010000000000000000000000000000000000000000000000000000000000000000ffffffff0804ffff001d023005ffffffff0100f2052a0100000043410407e1cb24a9d63acbb871044798c4a9e4fe56f713058cbd30cf0edd9b852619968e6adfe252c4bf4715b7e2d446402e0816e85e233cef983537d9c16b9df82c8aac00000000"
    }
  ]
}