{
  "hash": "00000000f9959d7bd5d8866f0a90611f743819fa0fda37175beb37236d3462ec",
  "confirmations": 43801,
  "height": 9297,
  "version": 1,
  "versionHex": "00000001",
  "merkleroot": "253e26425bbc7b6fba62c9f7d720c415627b3be6e4e2822d61426589c8a9a444",
  "time": 1238472973,
  "mediantime": 1238468737,
  "nonce": 470881081,
  "bits": "1d00ffff",
  "difficulty": 1,
  "chainwork": "0000000000000000000000000000000000000000000000000000245224522452",
  "nTx": 1,
  "previousblockhash": "00000000ad2347640191fb915c0329933e87d7204d86594c06fff363103e9344",
  "nextblockhash": "0000000054760524884dc3e30dfe97162c978c8f5a2673f94be100b65235d7da",
  "strippedsize": 216,
  "size": 216,
  "weight": 864,
  "tx": [
    {
      "txid": "253e26425bbc7b6fba62c9f7d720c415627b3be6e4e2822d61426589c8a9a444",
      "hash": "253e26425bbc7b6fba62c9f7d720c415627b3be6e4e2822d61426589c8a9a444",
      "version": 1,
      "size": 135,
      "vsize": 135,
      "weight": 540,
      "locktime": 0,
      "vin": [
        {
          "coinbase": "04ffff001d02ad01",
          "sequence": 4294967295
        }
      ],
      "vout": [
        {
          "value": 50.0,
          "n": 0,
          "scriptPubKey": {
            "asm": "0427f6e9260549e818c95751027e4c016eff6931541dcc86566a255c03ed7444fe3000d730d167e6d5f8de619a57e49ee33bb82c36147f2398c40e14476535158b OP_CHECKSIG",
            "desc": "pk(0427f6e9260549e818c95751027e4c016eff6931541dcc86566a255c03ed7444fe3000d730d167e6d5f8de619a57e49ee33bb82c36147f2398c40e14476535158b)#akhw9cfc",
            "hex": "410427f6e9260549e818c95751027e4c016eff6931541dcc86566a255c03ed7444fe3000d730d167e6d5f8de619a57e49ee33bb82c36147f2398c40e14476535158bac",
            "type": "pubkey"
          }
        }
      ],
      "hex": "01000000010000000000000000000000000000000000000000000000000000000000000000ffffffff0804ffff001d02ad01ffffffff0100f2052a0100000043410427f6e9260549e818c95751027e4c016eff6931541dcc86566a255c03ed7444fe3000d730d167e6d5f8de619a57e49ee33bb82c36147f2398c40e14476535158bac00000000"
    }
  ]
}