{
  "hash": "000000008820476d20779d81d2ed114aa22577b61e1e40e299d91bf70988cef2",
  "confirmations": 44413,
  "height": 8685,
  "version": 1,
  "versionHex": "00000001",
  "merkleroot": "579df309a0fab0efb2162f804c1facc7dc28c127f84cda08a5287f424bb75599",
  "time": 1238014788,
  "mediantime": 1238010903,
  "nonce": 3129677091,
  "bits": "1d00ffff",
  "difficulty": 1,
  "chainwork": "000000000000000000000000000000000000000000000000000021ee21ee21ee",
  "nTx": 1,
  "previousblockhash": "000000000d46964118e4bebaff4f332290e1620f0296391fa90a42ca18d89878",
  "nextblockhash": "000000001a84417b77acd346df4e55ffe5384db5098fcf575b820c3005c0548a",
  "strippedsize": 216,
  "size": 216,
  "weight": 864,
  "tx": [
    {
      "txid": "579df309a0fab0efb2162f804c1facc7dc28c127f84cda08a5287f424bb75599",
      "hash": "579df309a0fab0efb2162f804c1facc7dc28c127f84cda08a5287f424bb75599",
      "version": 1,
      "size": 135,
      "vsize": 135,
      "weight": 540,
      "locktime": 0,
      "vin": [
        {
          "coinbase": "04ffff001d02a600",
          "sequence": 4294967295
        }
      ],
      "vout": [
        {
          "value": 50.0,
          "n": 0,
          "scriptPubKey": {
            "asm": "049016bf1375e0be73bef735836e553a354c1b3e1738b05e6bdc2ee0ee5697d89ea19917c851b9e2598a2325cce1392606fac9651584d602c2e01dbebafd724c99 OP_CHECKSIG",
            "desc": "pk(049016bf1375e0be73bef735836e553a354c1b3e1738b05e6bdc2ee0ee5697d89ea19917c851b9e2598a2325cce1392606fac9651584d602c2e01dbebafd724c99)#6t92f558",
            "hex": "41049016bf1375e0be73bef735836e553a354c1b3e1738b05e6bdc2ee0ee5697d89ea19917c851b9e2598a2325cce1392606fac9651584d602c2e01dbebafd724c99ac",
            "type": "pubkey"
          }
        }
      ],
      "hex": "01000000010000000000000000000000000000000000000000000000000000000000000000ffffffff0804ffff001d02a600ffffffff0100f2052a010000004341049016bf1375e0be73bef735836e553a354c1b3e1738b05e6bdc2ee0ee5697d89ea19917c851b9e2598a2325cce1392606fac9651584d602c2e01dbebafd724c99ac00000000"
    }
  ]
}