{
  "hash": "000000009e77338b1278e3217b90f4a7c88cb53bb01bd666d99f0b89ecdf846b",
  "confirmations": 44625,
  "height": 8473,
  "version": 1,
  "versionHex": "00000001",
  "merkleroot": "e895cca006b03d9ae977699b10b49e079a2fc034b162280bf939581c6990cda7",
  "time": 1237847186,
  "mediantime": 1237843528,
  "nonce": 4173316377,
  "bits": "1d00ffff",
  "difficulty": 1,
  "chainwork": "0000000000000000000000000000000000000000000000000000211a211a211a",
  "nTx": 1,
  "previousblockhash": "0000000060a235bdf172870b0c60ed0d48a1092d3085453f3f7c37b555efaa90",
  "nextblockhash": "00000000c4a3de36e3cfcfc042b3353626ad0a8b7e62f609c989b838a1883934",
  "strippedsize": 216,
  "size": 216,
  "weight": 864,
  "tx": [
    {
      "txid": "e895cca006b03d9ae977699b10b49e079a2fc034b162280bf939581c6990cda7",
      "hash": "e895cca006b03d9ae977699b10b49e079a2fc034b162280bf939581c6990cda7",
      "version": 1,
      "size": 135,
      "vsize": 135,
      "weight": 540,
      "locktime": 0,
      "vin": [
        {
          "coinbase": "04ffff001d022807",
          "sequence": 4294967295
        }
      ],
      "vout": [
        {
          "value": 50.0,
          "n": 0,
          "scriptPubKey": {
            "asm": "0488dfbb3e10fbd6c90aa95afdba3b10121f70a526d03e367ed863e197ab599447c87368e4e03e0de35ca601414810704c514727377b6b3621f8f2d36ff12dd33c OP_CHECKSIG",
            "desc": "pk(0488dfbb3e10fbd6c90aa95afdba3b10121f70a526d03e367ed863e197ab599447c87368e4e03e0de35ca601414810704c514727377b6b3621f8f2d36ff12dd33c)#vlufv87u",
            "hex": "410488dfbb3e10fbd6c90aa95afdba3b10121f70a526d03e367ed863e197ab599447c87368e4e03e0de35ca601414810704c514727377b6b3621f8f2d36ff12dd33cac",
            "type": "pubkey"
          }
        }
      ],
      "hex": "01000000010000000000000000000000000000000000000000000000000000000000000000ffffffff0804ffff001d022807ffffffff0100f2052a0100000043410488dfbb3e10fbd6c90aa95afdba3b10121f70a526d03e367ed863e197ab599447c87368e4e03e0de35ca601414810704c514727377b6b3621f8f2d36ff12dd33cac00000000"
    }
  ]
}