{
  "hash": "0000000060420f7b7e05878eec12daf34f5960ea4eb7e70fdc64ae3184593628",
  "confirmations": 43110,
  "height": 9988,
  "version": 1,
  "versionHex": "00000001",
  "merkleroot": "ddaf57591dbc4d7c344b8673a5d809e00cf6a4b327cfc0c7ea20dac5a01da4dd",
  "time": 1238980376,
  "mediantime": 1238976997,
  "nonce": 108282998,
  "bits": "1d00ffff",
  "difficulty": 1,
  "chainwork": "0000000000000000000000000000000000000000000000000000270527052705",
  "nTx": 1,
  "previousblockhash": "0000000001128326262ef6ae9d1a332d7d2893287a6943d83c756afc06dd81d3",
  "nextblockhash": "000000001313525cb4daed80d0f8cbd86fbb332374de8d778523358fe4d0aae6",
  "strippedsize": 216,
  "size": 216,
  "weight": 864,
  "tx": [
    {
      "txid": "ddaf57591dbc4d7c344b8673a5d809e00cf6a4b327cfc0c7ea20dac5a01da4dd",
      "hash": "ddaf57591dbc4d7c344b8673a5d809e00cf6a4b327cfc0c7ea20dac5a01da4dd",
      "version": 1,
      "size": 135,
      "vsize": 135,
      "weight": 540,
      "locktime": 0,
      "vin": [
        {
          "coinbase": "04ffff001d02d201",
          "sequence": 4294967295
        }
      ],
      "vout": [
        {
          "value": 50.0,
          "n": 0,
          "scriptPubKey": {
            "asm": "04bd2dfc25a5484124023a9f1024aaa0e2961aa4dc7e5622ea08aa21d8811d541facd9bc820b9730e34cf89270d8f9fcd5d0dd7d37cdd1abdb99548e0da385662a OP_CHECKSIG",
            "desc": "pk(04bd2dfc25a5484124023a9f1024aaa0e2961aa4dc7e5622ea08aa21d8811d541facd9bc820b9730e34cf89270d8f9fcd5d0dd7d37cdd1abdb99548e0da385662a)#t80kxtcq",
            "hex": "4104bd2dfc25a5484124023a9f1024aaa0e2961aa4dc7e5622ea08aa21d8811d541facd9bc820b9730e34cf89270d8f9fcd5d0dd7d37cdd1abdb99548e0da385662aac",
            "type": "pubkey"
          }
        }
      ],
      "hex": "01000000010000000000000000000000000000000000000000000000000000000000000000ffffffff0804ffff001d02d201ffffffff0100f2052a01000000434104bd2dfc25a5484124023a9f1024aaa0e2961aa4dc7e5622ea08aa21d8811d541facd9bc820b9730e34cf89270d8f9fcd5d0dd7d37cdd1abdb99548e0da385662aac00000000"
    }
  ]
}