{
  "hash": "0000000097a84662b678aa8767613c4b3f13003d0e0bcf0819c2fe1a79eb1974",
  "confirmations": 50071,
  "height": 3027,
  "version": 1,
  "versionHex": "00000001",
  "merkleroot": "2a7750fee89e1b782c935d5d3de7d7c712a38454b0b534a86f2b33de65902b86",
  "time": 1233780660,
  "mediantime": 1233777578,
  "nonce": 2285423106,
  "bits": "1d00ffff",
  "difficulty": 1,
  "chainwork": "00000000000000000000000000000000000000000000000000000bd40bd40bd4",
  "nTx": 1,
  "previousblockhash": "00000000421803952da632bac717866599153b4ab08e6ea302ee8b16206ec55d",
  "nextblockhash": "00000000426241707fe4345ca202d374086142a03f216cf09be6850b4a155692",
  "strippedsize": 216,
  "size": 216,
  "weight": 864,
  "tx": [
    {
      "txid": "2a7750fee89e1b782c935d5d3de7d7c712a38454b0b534a86f2b33de65902b86",
      "hash": "2a7750fee89e1b782c935d5d3de7d7c712a38454b0b534a86f2b33de65902b86",
      "version": 1,
      "size": 135,
      "vsize": 135,
      "weight": 540,
      "locktime": 0,
      "vin": [
        {
          "coinbase": "04ffff001d02c901",
          "sequence": 4294967295
        }
      ],
      "vout": [
        {
          "value": 50.0,
          "n": 0,
          "scriptPubKey": {
            "asm": "0449a1318c0887ef59209ff581b62a2aa3bf467f76a0d64965f84df5e4f0b4f9e3217c0f8fb140bbe488fd818cddd77fdbdf8b497bec6040ef208ffa18533551d3 OP_CHECKSIG",
            "desc": "pk(0449a1318c0887ef59209ff581b62a2aa3bf467f76a0d64965f84df5e4f0b4f9e3217c0f8fb140bbe488fd818cddd77fdbdf8b497bec6040ef208ffa18533551d3)#vhnaazy0",
            "hex": "410449a1318c0887ef59209ff581b62a2aa3bf467f76a0d64965f84df5e4f0b4f9e3217c0f8fb140bbe488fd818cddd77fdbdf8b497bec6040ef208ffa18533551d3ac",
            "type": "pubkey"
          }
        }
      ],
      "hex": "01000000010000000000000000000000000000000000000000000000000000000000000000ffffffff0804ffff001d02c901ffffffff0100f2052a0100000043410449a1318c0887ef59209ff581b62a2aa3bf467f76a0d64965f84df5e4f0b4f9e3217c0f8fb140bbe488fd818cddd77fdbdf8b497bec6040ef208ffa18533551d3ac00000000"
    }
  ]
}