{
  "hash": "000000009233dc3a755c9689af97888d3c798993129f5bb989052151bc26d4a4",
  "confirmations": 44426,
  "height": 8672,
  "version": 1,
  "versionHex": "00000001",
  "merkleroot": "49016af5df19b16d4110f784fd5d6ab1eba5fe37c84a7a6d38ce2e3988ca9e08",
  "time": 1238001640,
  "mediantime": 1237997806,
  "nonce": 3496750126,
  "bits": "1d00ffff",
  "difficulty": 1,
  "chainwork": "000000000000000000000000000000000000000000000000000021e121e121e1",
  "nTx": 1,
  "previousblockhash": "00000000b951eb76ddea6ee3af646beaf46e6d250ca2e9967e9a0528f44822e7",
  "nextblockhash": "00000000ddfdd23a02d2ddea4b8b2fae6e9c87eb90a8661f7abfd14951e2ea36",
  "strippedsize": 215,
  "size": 215,
  "weight": 860,
  "tx": [
    {
      "txid": "49016af5df19b16d4110f784fd5d6ab1eba5fe37c84a7a6d38ce2e3988ca9e08",
      "hash": "49016af5df19b16d4110f784fd5d6ab1eba5fe37c84a7a6d38ce2e3988ca9e08",
      "version": 1,
      "size": 134,
      "vsize": 134,
      "weight": 536,
      "locktime": 0,
      "vin": [
        {
          "coinbase": "04ffff001d0163",
          "sequence": 4294967295
        }
      ],
      "vout": [
        {
          "value": 50.0,
          "n": 0,
          "scriptPubKey": {
            "asm": "040ce4962af0b59bde52a73a978d8dd9e0fc0fd410143fcd53e1b9019e92f7e6689e87be4a7070ad0c348c0e73e202b00eb19ccce50f56f411bcaf14d4cb024ccf OP_CHECKSIG",
            "desc": "pk(040ce4962af0b59bde52a73a978d8dd9e0fc0fd410143fcd53e1b9019e92f7e6689e87be4a7070ad0c348c0e73e202b00eb19ccce50f56f411bcaf14d4cb024ccf)#6sz5gjxt",
            "hex": "41040ce4962af0b59bde52a73a978d8dd9e0fc0fd410143fcd53e1b9019e92f7e6689e87be4a7070ad0c348c0e73e202b00eb19ccce50f56f411bcaf14d4cb024ccfac",
            "type": "pubkey"
          }
        }
      ],
      "hex": "01000000010000000000000000000000000000000000000000000000000000000000000000ffffffff0704ffff001d0163ffffffff0100f2052a010000004341040ce4962af0b59bde52a73a978d8dd9e0fc0fd410143fcd53e1b9019e92f7e6689e87be4a7070ad0c348c0e73e202b00eb19ccce50f56f411bcaf14d4cb024ccfac00000000"
    }
  ]
}