{
  "hash": "000000001d307c7681bfc13da72ceb92f7bcce29e956261eafa18210d558aca1",
  "confirmations": 50345,
  "height": 2753,
  "version": 1,
  "versionHex": "00000001",
  "merkleroot": "7cf0fd97d78366b456adfe2cb949b8271b7a3209cc495aca6de65d53fefe1ee1",
  "time": 1233598354,
  "mediantime": 1233595331,
  "nonce": 3641430067,
  "bits": "1d00ffff",
  "difficulty": 1,
  "chainwork": "00000000000000000000000000000000000000000000000000000ac20ac20ac2",
  "nTx": 1,
  "previousblockhash": "000000002714afd459070dc0fe4073c60482e4bacca2a4c6c801447c367726f7",
  "nextblockhash": "000000007f6c94c3ad601c4095a9a29abd8fa987972652972079b721b949ba80",
  "strippedsize": 216,
  "size": 216,
  "weight": 864,
  "tx": [
    {
      "txid": "7cf0fd97d78366b456adfe2cb949b8271b7a3209cc495aca6de65d53fefe1ee1",
      "hash": "7cf0fd97d78366b456adfe2cb949b8271b7a3209cc495aca6de65d53fefe1ee1",
      "version": 1,
      "size": 135,
      "vsize": 135,
      "weight": 540,
      "locktime": 0,
      "vin": [
        {
          "coinbase": "04ffff001d028f05",
          "sequence": 4294967295
        }
      ],
      "vout": [
        {
          "value": 50.0,
          "n": 0,
          "scriptPubKey": {
            "asm": "04aade9931734fd1e076cd9d581a4db5990952b69323b9fb1b2b426720980022c433b0d84d7c9eebf89244c87ea10cb93e46fa753601b1c8515ebb16a7c62ca57a OP_CHECKSIG",
            "desc": "pk(04aade9931734fd1e076cd9d581a4db5990952b69323b9fb1b2b426720980022c433b0d84d7c9eebf89244c87ea10cb93e46fa753601b1c8515ebb16a7c62ca57a)#rahljetd",
            "hex": "4104aade9931734fd1e076cd9d581a4db5990952b69323b9fb1b2b426720980022c433b0d84d7c9eebf89244c87ea10cb93e46fa753601b1c8515ebb16a7c62ca57aac",
            "type": "pubkey"
          }
        }
      ],
      "hex": "01000000010000000000000000000000000000000000000000000000000000000000000000ffffffff0804ffff001d028f05ffffffff0100f2052a01000000434104aade9931734fd1e076cd9d581a4db5990952b69323b9fb1b2b426720980022c433b0d84d7c9eebf89244c87ea10cb93e46fa753601b1c8515ebb16a7c62ca57aac00000000"
    }
  ]
}