{
  "hash": "000000005985ddd407d323e19488030a5e48531ba2c9b69fb0451cb49425ea98",
  "confirmations": 44076,
  "height": 9022,
  "version": 1,
  "versionHex": "00000001",
  "merkleroot": "0622321d7bb764185ee29943c29aaa77904f13ed166acc637e28c0f817be052c",
  "time": 1238268366,
  "mediantime": 1238264521,
  "nonce": 822901814,
  "bits": "1d00ffff",
  "difficulty": 1,
  "chainwork": "0000000000000000000000000000000000000000000000000000233f233f233f",
  "nTx": 1,
  "previousblockhash": "0000000007be87cc100137cc086df3322658c8c0197b54b11b37ad8e1c9adb21",
  "nextblockhash": "0000000084bf16c1bf01890349df52f25dc40c324ec27c08282a1135ebb78f0b",
  "strippedsize": 216,
  "size": 216,
  "weight": 864,
  "tx": [
    {
      "txid": "0622321d7bb764185ee29943c29aaa77904f13ed166acc637e28c0f817be052c",
      "hash": "0622321d7bb764185ee29943c29aaa77904f13ed166acc637e28c0f817be052c",
      "version": 1,
      "size": 135,
      "vsize": 135,
      "weight": 540,
      "locktime": 0,
      "vin": [
        {
          "coinbase": "04ffff001d02be06",
          "sequence": 4294967295
        }
      ],
      "vout": [
        {
          "value": 50.0,
          "n": 0,
          "scriptPubKey": {
            "asm": "0438cb596b4a66c3fda2f54c5ad547d0e858bfbce9f3e6d5a4876f17c13269bf598d11df0b14fcaca6f962754c547a17697223efe65e4ead1bb48265ae43ad9eea OP_CHECKSIG",
            "desc": "pk(0438cb596b4a66c3fda2f54c5ad547d0e858bfbce9f3e6d5a4876f17c13269bf598d11df0b14fcaca6f962754c547a17697223efe65e4ead1bb48265ae43ad9eea)#yj9c8ez3",
            "hex": "410438cb596b4a66c3fda2f54c5ad547d0e858bfbce9f3e6d5a4876f17c13269bf598d11df0b14fcaca6f962754c547a17697223efe65e4ead1bb48265ae43ad9eeaac",
            "type": "pubkey"
          }
        }
      ],
      "hex": "01000000010000000000000000000000000000000000000000000000000000000000000000ffffffff0804ffff001d02be06ffffffff0100f2052a0100000043410438cb596b4a66c3fda2f54c5ad547d0e858bfbce9f3e6d5a4876f17c13269bf598d11df0b14fcaca6f962754c547a17697223efe65e4ead1bb48265ae43ad9eeaac00000000"
    }
  ]
}