{
  "hash": "00000000d792554eb5222f19e1d3a91fdf66a3cd4949588cc1fc5bef7441d1c7",
  "confirmations": 47553,
  "height": 5545,
  "version": 1,
  "versionHex": "00000001",
  "merkleroot": "a8bf17ae1dd9da74876eb348f1f7d9715a30e595eee4c10c6d8a04701935593e",
  "time": 1235558568,
  "mediantime": 1235553643,
  "nonce": 631931156,
  "bits": "1d00ffff",
  "difficulty": 1,
  "chainwork": "000000000000000000000000000000000000000000000000000015aa15aa15aa",
  "nTx": 1,
  "previousblockhash": "00000000829fae72753f0d3fb9ecf5e6329501bb075a20be0529ff6fdeb333b5",
  "nextblockhash": "000000009373ab8cf912050e3d9a3a7933b0ac1d3069ccca1a11efa6bbd9f4a5",
  "strippedsize": 216,
  "size": 216,
  "weight": 864,
  "tx": [
    {
      "txid": "a8bf17ae1dd9da74876eb348f1f7d9715a30e595eee4c10c6d8a04701935593e",
      "hash": "a8bf17ae1dd9da74876eb348f1f7d9715a30e595eee4c10c6d8a04701935593e",
      "version": 1,
      "size": 135,
      "vsize": 135,
      "weight": 540,
      "locktime": 0,
      "vin": [
        {
          "coinbase": "04ffff001d028106",
          "sequence": 4294967295
        }
      ],
      "vout": [
        {
          "value": 50.0,
          "n": 0,
          "scriptPubKey": {
            "asm": "04d962fa10f95e785bc36c2c979f1aa8587fdbcf9ccd6eaa3f921886493a144e0dd4f56967c14c4851ee81655448301bc317be53a2ecba08866acbbe639ee35e4f OP_CHECKSIG",
            "desc": "pk(04d962fa10f95e785bc36c2c979f1aa8587fdbcf9ccd6eaa3f921886493a144e0dd4f56967c14c4851ee81655448301bc317be53a2ecba08866acbbe639ee35e4f)#ulymx7ea",
            "hex": "4104d962fa10f95e785bc36c2c979f1aa8587fdbcf9ccd6eaa3f921886493a144e0dd4f56967c14c4851ee81655448301bc317be53a2ecba08866acbbe639ee35e4fac",
            "type": "pubkey"
          }
        }
      ],
      "hex": "01000000010000000000000000000000000000000000000000000000000000000000000000ffffffff0804ffff001d028106ffffffff0100f2052a01000000434104d962fa10f95e785bc36c2c979f1aa8587fdbcf9ccd6eaa3f921886493a144e0dd4f56967c14c4851ee81655448301bc317be53a2ecba08866acbbe639ee35e4fac00000000"
    }
  ]
}