{
  "hash": "00000000a82ff3a7a0c609e549688b464d9e60842be1dfefefb4d7ef9af1a9dc",
  "confirmations": 50889,
  "height": 2209,
  "version": 1,
  "versionHex": "00000001",
  "merkleroot": "9d58ba11d33548a66286bb8d6ea249790d5be17d172456c393be9fc91ec1e7d5",
  "time": 1233222060,
  "mediantime": 1233218305,
  "nonce": 185453071,
  "bits": "1d00ffff",
  "difficulty": 1,
  "chainwork": "000000000000000000000000000000000000000000000000000008a208a208a2",
  "nTx": 1,
  "previousblockhash": "00000000e6296f1eda44755317774b3e9ab1f585fe39c373d0af59092e79bd80",
  "nextblockhash": "0000000038a7a31053072c3e627a5c361e730a1970ad614f8f56e82417a2fe3f",
  "strippedsize": 215,
  "size": 215,
  "weight": 860,
  "tx": [
    {
      "txid": "9d58ba11d33548a66286bb8d6ea249790d5be17d172456c393be9fc91ec1e7d5",
      "hash": "9d58ba11d33548a66286bb8d6ea249790d5be17d172456c393be9fc91ec1e7d5",
      "version": 1,
      "size": 134,
      "vsize": 134,
      "weight": 536,
      "locktime": 0,
      "vin": [
        {
          "coinbase": "04ffff001d012b",
          "sequence": 4294967295
        }
      ],
      "vout": [
        {
          "value": 50.0,
          "n": 0,
          "scriptPubKey": {
            "asm": "046560081ae5a3533c0d68aa4e4bf3a7e67d2eb373ca18b825786162b70e19f587aec816727aeeddc91a95b4db0fb2fd5104080da0868a8ecfef5f3cd63c9cc7f7 OP_CHECKSIG",
            "desc": "pk(046560081ae5a3533c0d68aa4e4bf3a7e67d2eb373ca18b825786162b70e19f587aec816727aeeddc91a95b4db0fb2fd5104080da0868a8ecfef5f3cd63c9cc7f7)#mar95lhu",
            "hex": "41046560081ae5a3533c0d68aa4e4bf3a7e67d2eb373ca18b825786162b70e19f587aec816727aeeddc91a95b4db0fb2fd5104080da0868a8ecfef5f3cd63c9cc7f7ac",
            "type": "pubkey"
          }
        }
      ],
      "hex": "01000000010000000000000000000000000000000000000000000000000000000000000000ffffffff0704ffff001d012bffffffff0100f2052a010000004341046560081ae5a3533c0d68aa4e4bf3a7e67d2eb373ca18b825786162b70e19f587aec816727aeeddc91a95b4db0fb2fd5104080da0868a8ecfef5f3cd63c9cc7f7ac00000000"
    }
  ]
}