{
  "hash": "000000001e8f64f7d397e1576d272c071abf6b66babe6d6a657d2b1dfa20606e",
  "confirmations": 52296,
  "height": 802,
  "version": 1,
  "versionHex": "00000001",
  "merkleroot": "4107bba48b61d7a1b19d9fceb836479de08f5c5af0c0b42a171ef5c022f228eb",
  "time": 1232195855,
  "mediantime": 1232190699,
  "nonce": 687339547,
  "bits": "1d00ffff",
  "difficulty": 1,
  "chainwork": "0000000000000000000000000000000000000000000000000000032303230323",
  "nTx": 1,
  "previousblockhash": "000000000057d77971fb0bf24812e155f9eb7c4eea682b62defd627b7d42c2eb",
  "nextblockhash": "00000000653d00d4e326b0a1776b62ce317af501bc736c883ac9777ee3c04eae",
  "strippedsize": 216,
  "size": 216,
  "weight": 864,
  "tx": [
    {
      "txid": "4107bba48b61d7a1b19d9fceb836479de08f5c5af0c0b42a171ef5c022f228eb",
      "hash": "4107bba48b61d7a1b19d9fceb836479de08f5c5af0c0b42a171ef5c022f228eb",
      "version": 1,
      "size": 135,
      "vsize": 135,
      "weight": 540,
      "locktime": 0,
      "vin": [
        {
          "coinbase": "04ffff001d028b01",
          "sequence": 4294967295
        }
      ],
      "vout": [
        {
          "value": 50.0,
          "n": 0,
          "scriptPubKey": {
            "asm": "048a205a24be64890f43c3da8e8d675b889324c633a7992ee30ba69711e6e4f14e409998cc59794491eec62c878d8760f1d1a177a18230f52be8a796ba1ff6cc22 OP_CHECKSIG",
            "desc": "pk(048a205a24be64890f43c3da8e8d675b889324c633a7992ee30ba69711e6e4f14e409998cc59794491eec62c878d8760f1d1a177a18230f52be8a796ba1ff6cc22)#7jrklcem",
            "hex": "41048a205a24be64890f43c3da8e8d675b889324c633a7992ee30ba69711e6e4f14e409998cc59794491eec62c878d8760f1d1a177a18230f52be8a796ba1ff6cc22ac",
            "type": "pubkey"
          }
        }
      ],
      "hex": "01000000010000000000000000000000000000000000000000000000000000000000000000ffffffff0804ffff001d028b01ffffffff0100f2052a010000004341048a205a24be64890f43c3da8e8d675b889324c633a7992ee30ba69711e6e4f14e409998cc59794491eec62c878d8760f1d1a177a18230f52be8a796ba1ff6cc22ac00000000"
    }
  ]
}