{
  "hash": "00000000ea02e80eda7207d0e12b78a99dc94aff6bd2f199ea3a6cfc591a97f6",
  "confirmations": 52425,
  "height": 673,
  "version": 1,
  "versionHex": "00000001",
  "merkleroot": "975c61fe874c8d7695f448bf589225ec902279d9ac21f1c43a03052910689332",
  "time": 1232086216,
  "mediantime": 1232080611,
  "nonce": 148682861,
  "bits": "1d00ffff",
  "difficulty": 1,
  "chainwork": "000000000000000000000000000000000000000000000000000002a202a202a2",
  "nTx": 1,
  "previousblockhash": "000000005d0ceb9dfcec53ef56b48f949f6e7a4e76b6fe9641fd02beff7134b4",
  "nextblockhash": "00000000c12782db7d1c20d4f97cef3469da5f9db7c4977e97cefd7e9d0cdf06",
  "strippedsize": 215,
  "size": 215,
  "weight": 860,
  "tx": [
    {
      "txid": "975c61fe874c8d7695f448bf589225ec902279d9ac21f1c43a03052910689332",
      "hash": "975c61fe874c8d7695f448bf589225ec902279d9ac21f1c43a03052910689332",
      "version": 1,
      "size": 134,
      "vsize": 134,
      "weight": 536,
      "locktime": 0,
      "vin": [
        {
          "coinbase": "04ffff001d0158",
          "sequence": 4294967295
        }
      ],
      "vout": [
        {
          "value": 50.0,
          "n": 0,
          "scriptPubKey": {
            "asm": "04bb7eccbac9c2b832426a8c6d91c91fc6bfcf643b97e0034f5c6e2dad5097947beeeb078cc750b2fb094caaa90755789102ee1aad98e14ce927854937b7678daa OP_CHECKSIG",
            "desc": "pk(04bb7eccbac9c2b832426a8c6d91c91fc6bfcf643b97e0034f5c6e2dad5097947beeeb078cc750b2fb094caaa90755789102ee1aad98e14ce927854937b7678daa)#3p6lxh38",
            "hex": "4104bb7eccbac9c2b832426a8c6d91c91fc6bfcf643b97e0034f5c6e2dad5097947beeeb078cc750b2fb094caaa90755789102ee1aad98e14ce927854937b7678daaac",
            "type": "pubkey"
          }
        }
      ],
      "hex": "01000000010000000000000000000000000000000000000000000000000000000000000000ffffffff0704ffff001d0158ffffffff0100f2052a01000000434104bb7eccbac9c2b832426a8c6d91c91fc6bfcf643b97e0034f5c6e2dad5097947beeeb078cc750b2fb094caaa90755789102ee1aad98e14ce927854937b7678daaac00000000"
    }
  ]
}