{
  "hash": "000000001611341fe66ce445f6db203ac0a1636529b43bb2e871a3356d526350",
  "confirmations": 45057,
  "height": 8041,
  "version": 1,
  "versionHex": "00000001",
  "merkleroot": "40b354e97c1e535ec3fc2fe36bcc00ed6eb36cc676c3f535b2ee9ba69eecb117",
  "time": 1237490206,
  "mediantime": 1237489177,
  "nonce": 33418218,
  "bits": "1d00ffff",
  "difficulty": 1,
  "chainwork": "00000000000000000000000000000000000000000000000000001f6a1f6a1f6a",
  "nTx": 1,
  "previousblockhash": "000000001b10f4df762874dbef05fdcedfd087af7f5b858c8ad83960b3346508",
  "nextblockhash": "00000000312ae1c84d144d140a2f2fc196bd4159f51d3f0932119cf96dac1006",
  "strippedsize": 216,
  "size": 216,
  "weight": 864,
  "tx": [
    {
      "txid": "40b354e97c1e535ec3fc2fe36bcc00ed6eb36cc676c3f535b2ee9ba69eecb117",
      "hash": "40b354e97c1e535ec3fc2fe36bcc00ed6eb36cc676c3f535b2ee9ba69eecb117",
      "version": 1,
      "size": 135,
      "vsize": 135,
      "weight": 540,
      "locktime": 0,
      "vin": [
        {
          "coinbase": "04ffff001d02bd00",
          "sequence": 4294967295
        }
      ],
      "vout": [
        {
          "value": 50.0,
          "n": 0,
          "scriptPubKey": {
            "asm": "046de4783c888f7980dea77ec9629c17c62772856135a6ca028a96c1a04460ecf44283869843ac64d73ee26a1b33bd126c1b5562ac4f6354eaac178213258e4b28 OP_CHECKSIG",
            "desc": "pk(046de4783c888f7980dea77ec9629c17c62772856135a6ca028a96c1a04460ecf44283869843ac64d73ee26a1b33bd126c1b5562ac4f6354eaac178213258e4b28)#f08mesyd",
            "hex": "41046de4783c888f7980dea77ec9629c17c62772856135a6ca028a96c1a04460ecf44283869843ac64d73ee26a1b33bd126c1b5562ac4f6354eaac178213258e4b28ac",
            "type": "pubkey"
          }
        }
      ],
      "hex": "01000000010000000000000000000000000000000000000000000000000000000000000000ffffffff0804ffff001d02bd00ffffffff0100f2052a010000004341046de4783c888f7980dea77ec9629c17c62772856135a6ca028a96c1a04460ecf44283869843ac64d73ee26a1b33bd126c1b5562ac4f6354eaac178213258e4b28ac00000000"
    }
  ]
}