{
  "hash": "0000000077074d2a3acaddea3756ef49c5dbed50b80a4c940570133baca826b6",
  "confirmations": 47014,
  "height": 6084,
  "version": 1,
  "versionHex": "00000001",
  "merkleroot": "a25ffe0880e46b8053c2409e948c013016538d4f921935e08d25580fd02c6030",
  "time": 1235996056,
  "mediantime": 1235992389,
  "nonce": 2572494879,
  "bits": "1d00ffff",
  "difficulty": 1,
  "chainwork": "000000000000000000000000000000000000000000000000000017c517c517c5",
  "nTx": 1,
  "previousblockhash": "00000000ae0070e0a2b1132c2ba236572f25c925b0ebe2c3394db845f19b2c8a",
  "nextblockhash": "0000000070c52a8c799a04da60306c2aa890dafa2d19ba090a616c27d972ebd7",
  "strippedsize": 216,
  "size": 216,
  "weight": 864,
  "tx": [
    {
      "txid": "a25ffe0880e46b8053c2409e948c013016538d4f921935e08d25580fd02c6030",
      "hash": "a25ffe0880e46b8053c2409e948c013016538d4f921935e08d25580fd02c6030",
      "version": 1,
      "size": 135,
      "vsize": 135,
      "weight": 540,
      "locktime": 0,
      "vin": [
        {
          "coinbase": "04ffff001d027a06",
          "sequence": 4294967295
        }
      ],
      "vout": [
        {
          "value": 50.0,
          "n": 0,
          "scriptPubKey": {
            "asm": "04d9b86ab12f8dd1fea2748161ee79b6f4db7f11504971027b127f72dbca0f7e1dbc877afea95c32b1fd2a00eb5200eee237519b0d6e963a3df96ea855f16ac368 OP_CHECKSIG",
            "desc": "pk(04d9b86ab12f8dd1fea2748161ee79b6f4db7f11504971027b127f72dbca0f7e1dbc877afea95c32b1fd2a00eb5200eee237519b0d6e963a3df96ea855f16ac368)#syht5gqk",
            "hex": "4104d9b86ab12f8dd1fea2748161ee79b6f4db7f11504971027b127f72dbca0f7e1dbc877afea95c32b1fd2a00eb5200eee237519b0d6e963a3df96ea855f16ac368ac",
            "type": "pubkey"
          }
        }
      ],
      "hex": "01000000010000000000000000000000000000000000000000000000000000000000000000ffffffff0804ffff001d027a06ffffffff0100f2052a01000000434104d9b86ab12f8dd1fea2748161ee79b6f4db7f11504971027b127f72dbca0f7e1dbc877afea95c32b1fd2a00eb5200eee237519b0d6e963a3df96ea855f16ac368ac00000000"
    }
  ]
}