{
  "hash": "0000000012e205a04fe7a4742f5c954e6f86249760d827d72db877fc5b2a9e3f",
  "confirmations": 47404,
  "height": 5694,
  "version": 1,
  "versionHex": "00000001",
  "merkleroot": "d1bf6ace238f04f77aef0740494fcc630417831d14bda58800e21a323c59dec7",
  "time": 1235682246,
  "mediantime": 1235679855,
  "nonce": 371891736,
  "bits": "1d00ffff",
  "difficulty": 1,
  "chainwork": "0000000000000000000000000000000000000000000000000000163f163f163f",
  "nTx": 1,
  "previousblockhash": "000000003f1bc1f4ac95537d79c9fb4bf77654ca1703c94d2b49f52e7574fb3c",
  "nextblockhash": "000000005036d70314279359adb43e4491dbfb418c4be653b11f7eb2a4d506f1",
  "strippedsize": 216,
  "size": 216,
  "weight": 864,
  "tx": [
    {
      "txid": "d1bf6ace238f04f77aef0740494fcc630417831d14bda58800e21a323c59dec7",
      "hash": "d1bf6ace238f04f77aef0740494fcc630417831d14bda58800e21a323c59dec7",
      "version": 1,
      "size": 135,
      "vsize": 135,
      "weight": 540,
      "locktime": 0,
      "vin": [
        {
          "coinbase": "04ffff001d025a09",
          "sequence": 4294967295
        }
      ],
      "vout": [
        {
          "value": 50.0,
          "n": 0,
          "scriptPubKey": {
            "asm": "04e800bb48c9f0521e1d39ec8dcd6ed0227d280cc2f9f5f81e1c0bc341204c9d3bf1d9d899bfc2720c36c26ea75d6b3b8f6f023bb1ce1465b07f51bf09cb59edc3 OP_CHECKSIG",
            "desc": "pk(04e800bb48c9f0521e1d39ec8dcd6ed0227d280cc2f9f5f81e1c0bc341204c9d3bf1d9d899bfc2720c36c26ea75d6b3b8f6f023bb1ce1465b07f51bf09cb59edc3)#xcedtjnf",
            "hex": "4104e800bb48c9f0521e1d39ec8dcd6ed0227d280cc2f9f5f81e1c0bc341204c9d3bf1d9d899bfc2720c36c26ea75d6b3b8f6f023bb1ce1465b07f51bf09cb59edc3ac",
            "type": "pubkey"
          }
        }
      ],
      "hex": "01000000010000000000000000000000000000000000000000000000000000000000000000ffffffff0804ffff001d025a09ffffffff0100f2052a01000000434104e800bb48c9f0521e1d39ec8dcd6ed0227d280cc2f9f5f81e1c0bc341204c9d3bf1d9d899bfc2720c36c26ea75d6b3b8f6f023bb1ce1465b07f51bf09cb59edc3ac00000000"
    }
  ]
}