{
  "hash": "00000000354d483f419e60e7ff916d057431715b2bc8d9361e6f66d8818b5ebe",
  "confirmations": 45774,
  "height": 7324,
  "version": 1,
  "versionHex": "00000001",
  "merkleroot": "883ebb858021a2bed88cbd9768ba0179d1300f3f90d716d494ccdb84cedd8963",
  "time": 1236964659,
  "mediantime": 1236961662,
  "nonce": 39469108,
  "bits": "1d00ffff",
  "difficulty": 1,
  "chainwork": "00000000000000000000000000000000000000000000000000001c9d1c9d1c9d",
  "nTx": 1,
  "previousblockhash": "00000000a14daac133dac89bb7686b49713fdcd784b951afe0863ae6d36944f4",
  "nextblockhash": "00000000c041cb35fa7c3f2f8a71cd3ed85838d21cdfe93aee6d48a131e9866f",
  "strippedsize": 216,
  "size": 216,
  "weight": 864,
  "tx": [
    {
      "txid": "883ebb858021a2bed88cbd9768ba0179d1300f3f90d716d494ccdb84cedd8963",
      "hash": "883ebb858021a2bed88cbd9768ba0179d1300f3f90d716d494ccdb84cedd8963",
      "version": 1,
      "size": 135,
      "vsize": 135,
      "weight": 540,
      "locktime": 0,
      "vin": [
        {
          "coinbase": "04ffff001d02fe07",
          "sequence": 4294967295
        }
      ],
      "vout": [
        {
          "value": 50.0,
          "n": 0,
          "scriptPubKey": {
            "asm": "0451cdd06c885707aac4462bcb66d1c3f7b326142c5bdb13b11ba3deef3c83088865a2528060a62486f357c753c38fd524355ac926fd35ed30b761dafb1e99cb4b OP_CHECKSIG",
            "desc": "pk(0451cdd06c885707aac4462bcb66d1c3f7b326142c5bdb13b11ba3deef3c83088865a2528060a62486f357c753c38fd524355ac926fd35ed30b761dafb1e99cb4b)#f7fy5p7t",
            "hex": "410451cdd06c885707aac4462bcb66d1c3f7b326142c5bdb13b11ba3deef3c83088865a2528060a62486f357c753c38fd524355ac926fd35ed30b761dafb1e99cb4bac",
            "type": "pubkey"
          }
        }
      ],
      "hex": "01000000010000000000000000000000000000000000000000000000000000000000000000ffffffff0804ffff001d02fe07ffffffff0100f2052a0100000043410451cdd06c885707aac4462bcb66d1c3f7b326142c5bdb13b11ba3deef3c83088865a2528060a62486f357c753c38fd524355ac926fd35ed30b761dafb1e99cb4bac00000000"
    }
  ]
}