{
  "hash": "000000002708518166f28f1f63afd72263ffc035f52a00b083a4985a8514a31e",
  "confirmations": 47026,
  "height": 6072,
  "version": 1,
  "versionHex": "00000001",
  "merkleroot": "4983ce82115a3f480b7ceb2cf79c82c15a10d15f5a95b4c88560c887ea635201",
  "time": 1235985530,
  "mediantime": 1235981736,
  "nonce": 598981411,
  "bits": "1d00ffff",
  "difficulty": 1,
  "chainwork": "000000000000000000000000000000000000000000000000000017b917b917b9",
  "nTx": 1,
  "previousblockhash": "0000000058b5a8ee24b37587bfb1583a8682601b106eedf07616f996166d64fe",
  "nextblockhash": "000000008199d6e2f355950fc8f30c1f702d935e2b69ba8a310753ef6683a98b",
  "strippedsize": 216,
  "size": 216,
  "weight": 864,
  "tx": [
    {
      "txid": "4983ce82115a3f480b7ceb2cf79c82c15a10d15f5a95b4c88560c887ea635201",
      "hash": "4983ce82115a3f480b7ceb2cf79c82c15a10d15f5a95b4c88560c887ea635201",
      "version": 1,
      "size": 135,
      "vsize": 135,
      "weight": 540,
      "locktime": 0,
      "vin": [
        {
          "coinbase": "04ffff001d024506",
          "sequence": 4294967295
        }
      ],
      "vout": [
        {
          "value": 50.0,
          "n": 0,
          "scriptPubKey": {
            "asm": "0460b871ef01876a09be9f4955857f309381ca010a2612a3c97bfa2f3ea19996bbfa799917b337858c04aa34583c8e0b899cfbaa2dbd3ae62ebfc168bcca5629ef OP_CHECKSIG",
            "desc": "pk(0460b871ef01876a09be9f4955857f309381ca010a2612a3c97bfa2f3ea19996bbfa799917b337858c04aa34583c8e0b899cfbaa2dbd3ae62ebfc168bcca5629ef)#4nph85nw",
            "hex": "410460b871ef01876a09be9f4955857f309381ca010a2612a3c97bfa2f3ea19996bbfa799917b337858c04aa34583c8e0b899cfbaa2dbd3ae62ebfc168bcca5629efac",
            "type": "pubkey"
          }
        }
      ],
      "hex": "01000000010000000000000000000000000000000000000000000000000000000000000000ffffffff0804ffff001d024506ffffffff0100f2052a0100000043410460b871ef01876a09be9f4955857f309381ca010a2612a3c97bfa2f3ea19996bbfa799917b337858c04aa34583c8e0b899cfbaa2dbd3ae62ebfc168bcca5629efac00000000"
    }
  ]
}