{
  "hash": "00000000a748cbe2ec8fca05e61699e970173ab54dd13737a69a514fce64c3ee",
  "confirmations": 52017,
  "height": 1081,
  "version": 1,
  "versionHex": "00000001",
  "merkleroot": "d50f65db5bcb69874642e25c0822e8e25bd0d12d08ed49bb124e37b40a8a8047",
  "time": 1232410217,
  "mediantime": 1232406007,
  "nonce": 3186469668,
  "bits": "1d00ffff",
  "difficulty": 1,
  "chainwork": "0000000000000000000000000000000000000000000000000000043a043a043a",
  "nTx": 1,
  "previousblockhash": "000000006327405c513ba8016d62aa8963ba59f81272b2cd4d16b1a5f9b16ee7",
  "nextblockhash": "00000000b9f66944817ba67b775004d0db2b3590d2babdd53336e71dbc390f58",
  "strippedsize": 216,
  "size": 216,
  "weight": 864,
  "tx": [
    {
      "txid": "d50f65db5bcb69874642e25c0822e8e25bd0d12d08ed49bb124e37b40a8a8047",
      "hash": "d50f65db5bcb69874642e25c0822e8e25bd0d12d08ed49bb124e37b40a8a8047",
      "version": 1,
      "size": 135,
      "vsize": 135,
      "weight": 540,
      "locktime": 0,
      "vin": [
        {
          "coinbase": "04ffff001d02bf06",
          "sequence": 4294967295
        }
      ],
      "vout": [
        {
          "value": 50.0,
          "n": 0,
          "scriptPubKey": {
            "asm": "04acceb9404e637c652a28b71ba3d3a8f6a489d261b61798d88373bd77596432f65559226bda0d9d2f97d9061111bac0d014d9320d287a68d7f66e43711de9eada OP_CHECKSIG",
            "desc": "pk(04acceb9404e637c652a28b71ba3d3a8f6a489d261b61798d88373bd77596432f65559226bda0d9d2f97d9061111bac0d014d9320d287a68d7f66e43711de9eada)#jvz9vqja",
            "hex": "4104acceb9404e637c652a28b71ba3d3a8f6a489d261b61798d88373bd77596432f65559226bda0d9d2f97d9061111bac0d014d9320d287a68d7f66e43711de9eadaac",
            "type": "pubkey"
          }
        }
      ],
      "hex": "01000000010000000000000000000000000000000000000000000000000000000000000000ffffffff0804ffff001d02bf06ffffffff0100f2052a01000000434104acceb9404e637c652a28b71ba3d3a8f6a489d261b61798d88373bd77596432f65559226bda0d9d2f97d9061111bac0d014d9320d287a68d7f66e43711de9eadaac00000000"
    }
  ]
}