{
  "hash": "0000000032450768c775c1ba0d5a64939d77b304553d46919061eac43a3d077f",
  "confirmations": 49808,
  "height": 3290,
  "version": 1,
  "versionHex": "00000001",
  "merkleroot": "a671207fbf06f8c322941c2dce4c6f168767f5d351159173d830a4be1cc6729a",
  "time": 1233964566,
  "mediantime": 1233960614,
  "nonce": 1214891828,
  "bits": "1d00ffff",
  "difficulty": 1,
  "chainwork": "00000000000000000000000000000000000000000000000000000cdb0cdb0cdb",
  "nTx": 1,
  "previousblockhash": "00000000f96d0a7c59d04b7847ca1c0d64e1b04cd4b582b519dd5e3370116701",
  "nextblockhash": "0000000010abb476c7bac26a22b8907f0299fa6a1486238b61b47d0370b6259d",
  "strippedsize": 216,
  "size": 216,
  "weight": 864,
  "tx": [
    {
      "txid": "a671207fbf06f8c322941c2dce4c6f168767f5d351159173d830a4be1cc6729a",
      "hash": "a671207fbf06f8c322941c2dce4c6f168767f5d351159173d830a4be1cc6729a",
      "version": 1,
      "size": 135,
      "vsize": 135,
      "weight": 540,
      "locktime": 0,
      "vin": [
        {
          "coinbase": "04ffff001d021904",
          "sequence": 4294967295
        }
      ],
      "vout": [
        {
          "value": 50.0,
          "n": 0,
          "scriptPubKey": {
            "asm": "04fa7495fca3d9dcff047b19a2fbe1bc8ec3933e38e46a5943d403a5191d81efcee86bbb78225fddb7a1775d87b7f1c1b0219130e9cde8c65c02fcfa8c3096267c OP_CHECKSIG",
            "desc": "pk(04fa7495fca3d9dcff047b19a2fbe1bc8ec3933e38e46a5943d403a5191d81efcee86bbb78225fddb7a1775d87b7f1c1b0219130e9cde8c65c02fcfa8c3096267c)#sfrum4qg",
            "hex": "4104fa7495fca3d9dcff047b19a2fbe1bc8ec3933e38e46a5943d403a5191d81efcee86bbb78225fddb7a1775d87b7f1c1b0219130e9cde8c65c02fcfa8c3096267cac",
            "type": "pubkey"
          }
        }
      ],
      "hex": "01000000010000000000000000000000000000000000000000000000000000000000000000ffffffff0804ffff001d021904ffffffff0100f2052a01000000434104fa7495fca3d9dcff047b19a2fbe1bc8ec3933e38e46a5943d403a5191d81efcee86bbb78225fddb7a1775d87b7f1c1b0219130e9cde8c65c02fcfa8c3096267cac00000000"
    }
  ]
}