{
  "hash": "00000000ea07f354aaf01517b170749d7f8e70732d1f5edf0299232532f04932",
  "confirmations": 50018,
  "height": 3080,
  "version": 1,
  "versionHex": "00000001",
  "merkleroot": "c09a95a7165bfbbbbc80af91645cc91c13c42a162b5454e1fa0ef0818be7443c",
  "time": 1233817927,
  "mediantime": 1233814545,
  "nonce": 3303620616,
  "bits": "1d00ffff",
  "difficulty": 1,
  "chainwork": "00000000000000000000000000000000000000000000000000000c090c090c09",
  "nTx": 1,
  "previousblockhash": "0000000048bdd6234a18dd0a752de2ec2b6000a6d51be07db45b33b6441b0e9d",
  "nextblockhash": "00000000ada888a1cd4f3742d5801405939193c5cbe34d4b8c39a99e2039a466",
  "strippedsize": 216,
  "size": 216,
  "weight": 864,
  "tx": [
    {
      "txid": "c09a95a7165bfbbbbc80af91645cc91c13c42a162b5454e1fa0ef0818be7443c",
      "hash": "c09a95a7165bfbbbbc80af91645cc91c13c42a162b5454e1fa0ef0818be7443c",
      "version": 1,
      "size": 135,
      "vsize": 135,
      "weight": 540,
      "locktime": 0,
      "vin": [
        {
          "coinbase": "04ffff001d02da00",
          "sequence": 4294967295
        }
      ],
      "vout": [
        {
          "value": 50.0,
          "n": 0,
          "scriptPubKey": {
            "asm": "045585bf384adede13d45cf5ab9ce233fa96612e81f3e00160ea96c548ab026ec3e090af662744996a40a9a25732418c737aa91af305f61e94f532478c1bfa49e2 OP_CHECKSIG",
            "desc": "pk(045585bf384adede13d45cf5ab9ce233fa96612e81f3e00160ea96c548ab026ec3e090af662744996a40a9a25732418c737aa91af305f61e94f532478c1bfa49e2)#0hwlfddv",
            "hex": "41045585bf384adede13d45cf5ab9ce233fa96612e81f3e00160ea96c548ab026ec3e090af662744996a40a9a25732418c737aa91af305f61e94f532478c1bfa49e2ac",
            "type": "pubkey"
          }
        }
      ],
      "hex": "01000000010000000000000000000000000000000000000000000000000000000000000000ffffffff0804ffff001d02da00ffffffff0100f2052a010000004341045585bf384adede13d45cf5ab9ce233fa96612e81f3e00160ea96c548ab026ec3e090af662744996a40a9a25732418c737aa91af305f61e94f532478c1bfa49e2ac00000000"
    }
  ]
}