{
  "hash": "00000000cfe2c153bac08324be181717740ababbfc912840a80be7b7ba1970ca",
  "confirmations": 52227,
  "height": 390,
  "version": 1,
  "versionHex": "00000001",
  "merkleroot": "04580a0ceb45410a243fc3744126a293cde6cc4063723a6b6f269e2f83d68c0b",
  "time": 1231895654,
  "mediantime": 1231890970,
  "nonce": 3115236402,
  "bits": "1d00ffff",
  "difficulty": 1,
  "chainwork": "0000000000000000000000000000000000000000000000000000018701870187",
  "nTx": 1,
  "previousblockhash": "0000000020fd18966269582d45778b66492cff334aebdf939c0786dbf30815d7",
  "nextblockhash": "00000000b7b96842342b709b4b41c25140b35bba339cbf4b325b723f2559ba04",
  "strippedsize": 216,
  "size": 216,
  "weight": 864,
  "tx": [
    {
      "txid": "04580a0ceb45410a243fc3744126a293cde6cc4063723a6b6f269e2f83d68c0b",
      "hash": "04580a0ceb45410a243fc3744126a293cde6cc4063723a6b6f269e2f83d68c0b",
      "version": 1,
      "size": 135,
      "vsize": 135,
      "weight": 540,
      "locktime": 0,
      "vin": [
        {
          "coinbase": "04ffff001d024f02",
          "sequence": 4294967295
        }
      ],
      "vout": [
        {
          "value": 50.0,
          "n": 0,
          "scriptPubKey": {
            "asm": "04d0d8d72cfb8b8791b3b87381ccb77aad1771791d83756fe79448b870a0fedbbd4098639100c3fc6eeb0a2d77b1cf2eec4d1305789f92738d645d811401fad3df OP_CHECKSIG",
            "desc": "pk(04d0d8d72cfb8b8791b3b87381ccb77aad1771791d83756fe79448b870a0fedbbd4098639100c3fc6eeb0a2d77b1cf2eec4d1305789f92738d645d811401fad3df)#2h8x3w0d",
            "hex": "4104d0d8d72cfb8b8791b3b87381ccb77aad1771791d83756fe79448b870a0fedbbd4098639100c3fc6eeb0a2d77b1cf2eec4d1305789f92738d645d811401fad3dfac",
            "type": "pubkey"
          }
        }
      ],
      "hex": "01000000010000000000000000000000000000000000000000000000000000000000000000ffffffff0804ffff001d024f02ffffffff0100f2052a01000000434104d0d8d72cfb8b8791b3b87381ccb77aad1771791d83756fe79448b870a0fedbbd4098639100c3fc6eeb0a2d77b1cf2eec4d1305789f92738d645d811401fad3dfac00000000"
    }
  ]
}