{
  "hash": "0000000022b000f871e89d81b4fbdcbbf0a4a6ec14d6ead7df53695b9710766e",
  "confirmations": 48256,
  "height": 4842,
  "version": 1,
  "versionHex": "00000001",
  "merkleroot": "8ee2f12e563b5bbf22e1653a9131a11093c1a6dcc8f23e052c71bccd910aa6a5",
  "time": 1235031824,
  "mediantime": 1235026878,
  "nonce": 2543316280,
  "bits": "1d00ffff",
  "difficulty": 1,
  "chainwork": "000000000000000000000000000000000000000000000000000012eb12eb12eb",
  "nTx": 1,
  "previousblockhash": "00000000afe1718fc86a250c75861eceae0461e0f499fe3d65dcdbd38f233077",
  "nextblockhash": "000000006831bf2f16797771e6995ca5c317f4166bcf9ec53d41303058348e6c",
  "strippedsize": 216,
  "size": 216,
  "weight": 864,
  "tx": [
    {
      "txid": "8ee2f12e563b5bbf22e1653a9131a11093c1a6dcc8f23e052c71bccd910aa6a5",
      "hash": "8ee2f12e563b5bbf22e1653a9131a11093c1a6dcc8f23e052c71bccd910aa6a5",
      "version": 1,
      "size": 135,
      "vsize": 135,
      "weight": 540,
      "locktime": 0,
      "vin": [
        {
          "coinbase": "04ffff001d020305",
          "sequence": 4294967295
        }
      ],
      "vout": [
        {
          "value": 50.0,
          "n": 0,
          "scriptPubKey": {
            "asm": "04d3fa0c20bdd2a0d4eb72dbb94474de116fc81f5ea1565089bf474ac9c04700c75c61ac4a2521641c082f25da2c92b8fe1b51ac55c1ade3d2a19314b7703c859f OP_CHECKSIG",
            "desc": "pk(04d3fa0c20bdd2a0d4eb72dbb94474de116fc81f5ea1565089bf474ac9c04700c75c61ac4a2521641c082f25da2c92b8fe1b51ac55c1ade3d2a19314b7703c859f)#j5x45c9l",
            "hex": "4104d3fa0c20bdd2a0d4eb72dbb94474de116fc81f5ea1565089bf474ac9c04700c75c61ac4a2521641c082f25da2c92b8fe1b51ac55c1ade3d2a19314b7703c859fac",
            "type": "pubkey"
          }
        }
      ],
      "hex": "01000000010000000000000000000000000000000000000000000000000000000000000000ffffffff0804ffff001d020305ffffffff0100f2052a01000000434104d3fa0c20bdd2a0d4eb72dbb94474de116fc81f5ea1565089bf474ac9c04700c75c61ac4a2521641c082f25da2c92b8fe1b51ac55c1ade3d2a19314b7703c859fac00000000"
    }
  ]
}