{
  "hash": "00000000298d9d16f6d3bbb0eec95e53fda13869a363e70389748c065256031d",
  "confirmations": 47215,
  "height": 5883,
  "version": 1,
  "versionHex": "00000001",
  "merkleroot": "f6cb9a94fc91e4236cefad04fbd096aee3fd9d795dbdc5626fa599fa7bab02fa",
  "time": 1235830266,
  "mediantime": 1235826212,
  "nonce": 3130551837,
  "bits": "1d00ffff",
  "difficulty": 1,
  "chainwork": "000000000000000000000000000000000000000000000000000016fc16fc16fc",
  "nTx": 1,
  "previousblockhash": "000000009212abd1bf88429c39215c2d070751091a77280ab3535550a6a9b4c4",
  "nextblockhash": "00000000812963426223eeaf85f9a79511f363a529c822095fa77d3b48cec829",
  "strippedsize": 216,
  "size": 216,
  "weight": 864,
  "tx": [
    {
      "txid": "f6cb9a94fc91e4236cefad04fbd096aee3fd9d795dbdc5626fa599fa7bab02fa",
      "hash": "f6cb9a94fc91e4236cefad04fbd096aee3fd9d795dbdc5626fa599fa7bab02fa",
      "version": 1,
      "size": 135,
      "vsize": 135,
      "weight": 540,
      "locktime": 0,
      "vin": [
        {
          "coinbase": "04ffff001d02b202",
          "sequence": 4294967295
        }
      ],
      "vout": [
        {
          "value": 50.0,
          "n": 0,
          "scriptPubKey": {
            "asm": "049b65cb72e312770ebb2a1ac07eade71f48c8519b34f1ffa2e53b2db7b6ee1d88b269ca59652886bd9eda124593f440e501891739fffb44571fb39fa46b94ac69 OP_CHECKSIG",
            "desc": "pk(049b65cb72e312770ebb2a1ac07eade71f48c8519b34f1ffa2e53b2db7b6ee1d88b269ca59652886bd9eda124593f440e501891739fffb44571fb39fa46b94ac69)#fkd7pjkk",
            "hex": "41049b65cb72e312770ebb2a1ac07eade71f48c8519b34f1ffa2e53b2db7b6ee1d88b269ca59652886bd9eda124593f440e501891739fffb44571fb39fa46b94ac69ac",
            "type": "pubkey"
          }
        }
      ],
      "hex": "01000000010000000000000000000000000000000000000000000000000000000000000000ffffffff0804ffff001d02b202ffffffff0100f2052a010000004341049b65cb72e312770ebb2a1ac07eade71f48c8519b34f1ffa2e53b2db7b6ee1d88b269ca59652886bd9eda124593f440e501891739fffb44571fb39fa46b94ac69ac00000000"
    }
  ]
}