{
  "hash": "00000000fff91949181449d048aca5a1cc6d0e3e3f34e89c00ab2709696b8da0",
  "confirmations": 47712,
  "height": 5386,
  "version": 1,
  "versionHex": "00000001",
  "merkleroot": "b6dc32a39899d7aa6d975d797a1659fcd875c4fea01b25a7fd61f451bd7272ce",
  "time": 1235428564,
  "mediantime": 1235423844,
  "nonce": 3563408684,
  "bits": "1d00ffff",
  "difficulty": 1,
  "chainwork": "0000000000000000000000000000000000000000000000000000150b150b150b",
  "nTx": 1,
  "previousblockhash": "000000006b316a2f70da34951fec6f22e2964c86f34e4a196fdf3f4d164569fa",
  "nextblockhash": "00000000d1eae9b740ac989190b3f0a311cd1f18a47054ed811ddeba0f91f385",
  "strippedsize": 216,
  "size": 216,
  "weight": 864,
  "tx": [
    {
      "txid": "b6dc32a39899d7aa6d975d797a1659fcd875c4fea01b25a7fd61f451bd7272ce",
      "hash": "b6dc32a39899d7aa6d975d797a1659fcd875c4fea01b25a7fd61f451bd7272ce",
      "version": 1,
      "size": 135,
      "vsize": 135,
      "weight": 540,
      "locktime": 0,
      "vin": [
        {
          "coinbase": "04ffff001d026b03",
          "sequence": 4294967295
        }
      ],
      "vout": [
        {
          "value": 50.0,
          "n": 0,
          "scriptPubKey": {
            "asm": "0415ab8f30c1e7e0ec4e3114fdfe5849d048ade0f91bfde1f4a07898f1ceb4545260b96685ebc99c1e4e115bf85a1fd326adf810cbd0bf00fb4535006f254bc3d1 OP_CHECKSIG",
            "desc": "pk(0415ab8f30c1e7e0ec4e3114fdfe5849d048ade0f91bfde1f4a07898f1ceb4545260b96685ebc99c1e4e115bf85a1fd326adf810cbd0bf00fb4535006f254bc3d1)#7ynguwne",
            "hex": "410415ab8f30c1e7e0ec4e3114fdfe5849d048ade0f91bfde1f4a07898f1ceb4545260b96685ebc99c1e4e115bf85a1fd326adf810cbd0bf00fb4535006f254bc3d1ac",
            "type": "pubkey"
          }
        }
      ],
      "hex": "01000000010000000000000000000000000000000000000000000000000000000000000000ffffffff0804ffff001d026b03ffffffff0100f2052a0100000043410415ab8f30c1e7e0ec4e3114fdfe5849d048ade0f91bfde1f4a07898f1ceb4545260b96685ebc99c1e4e115bf85a1fd326adf810cbd0bf00fb4535006f254bc3d1ac00000000"
    }
  ]
}