{
  "hash": "00000000baa224f76daf42a136ab75b975197b4dd93dad2168dc905bb800aea4",
  "confirmations": 47067,
  "height": 6031,
  "version": 1,
  "versionHex": "00000001",
  "merkleroot": "b5c6b3405ed5ed64c31c74cd86f9cf644a08bfcc946b08d009eb66563e5c6130",
  "time": 1235954147,
  "mediantime": 1235950584,
  "nonce": 3708105272,
  "bits": "1d00ffff",
  "difficulty": 1,
  "chainwork": "0000000000000000000000000000000000000000000000000000179017901790",
  "nTx": 1,
  "previousblockhash": "000000003dcaf686111dad3abb033d7916455eed7dbe8f3fada0e5cb1847b7a3",
  "nextblockhash": "00000000e53b89b483821ae404e64476692089be8f9ef5338bbdd5d0519872cc",
  "strippedsize": 216,
  "size": 216,
  "weight": 864,
  "tx": [
    {
      "txid": "b5c6b3405ed5ed64c31c74cd86f9cf644a08bfcc946b08d009eb66563e5c6130",
      "hash": "b5c6b3405ed5ed64c31c74cd86f9cf644a08bfcc946b08d009eb66563e5c6130",
      "version": 1,
      "size": 135,
      "vsize": 135,
      "weight": 540,
      "locktime": 0,
      "vin": [
        {
          "coinbase": "04ffff001d028805",
          "sequence": 4294967295
        }
      ],
      "vout": [
        {
          "value": 50.0,
          "n": 0,
          "scriptPubKey": {
            "asm": "04a30b187c20deebdcf982dd3d3c454834a2f105265c8cc49777de6d6c8acd921dc6cefd6090775170fefe63ee08662183aa3de2dde2eb387eff0f698d3caa676b OP_CHECKSIG",
            "desc": "pk(04a30b187c20deebdcf982dd3d3c454834a2f105265c8cc49777de6d6c8acd921dc6cefd6090775170fefe63ee08662183aa3de2dde2eb387eff0f698d3caa676b)#nqsr47vm",
            "hex": "4104a30b187c20deebdcf982dd3d3c454834a2f105265c8cc49777de6d6c8acd921dc6cefd6090775170fefe63ee08662183aa3de2dde2eb387eff0f698d3caa676bac",
            "type": "pubkey"
          }
        }
      ],
      "hex": "01000000010000000000000000000000000000000000000000000000000000000000000000ffffffff0804ffff001d028805ffffffff0100f2052a01000000434104a30b187c20deebdcf982dd3d3c454834a2f105265c8cc49777de6d6c8acd921dc6cefd6090775170fefe63ee08662183aa3de2dde2eb387eff0f698d3caa676bac00000000"
    }
  ]
}