{
  "hash": "0000000040eadecc1b9d7b61730e2cff3f4090af431470b0cce34abe47362c5a",
  "confirmations": 50506,
  "height": 2592,
  "version": 1,
  "versionHex": "00000001",
  "merkleroot": "f4020e0a68c5a8f84944c6448a26b341a90ff4af1726248df90cd199d325ab9e",
  "time": 1233488998,
  "mediantime": 1233484318,
  "nonce": 119895354,
  "bits": "1d00ffff",
  "difficulty": 1,
  "chainwork": "00000000000000000000000000000000000000000000000000000a210a210a21",
  "nTx": 1,
  "previousblockhash": "00000000d44042e4c6cd061b8bc642eec5a159d1473531161672a1bcab531934",
  "nextblockhash": "0000000065b1ae0e2ddc79aad73de63ebc730cbf4338d13ec9ce3f8cd054d787",
  "strippedsize": 215,
  "size": 215,
  "weight": 860,
  "tx": [
    {
      "txid": "f4020e0a68c5a8f84944c6448a26b341a90ff4af1726248df90cd199d325ab9e",
      "hash": "f4020e0a68c5a8f84944c6448a26b341a90ff4af1726248df90cd199d325ab9e",
      "version": 1,
      "size": 134,
      "vsize": 134,
      "weight": 536,
      "locktime": 0,
      "vin": [
        {
          "coinbase": "04ffff001d0103",
          "sequence": 4294967295
        }
      ],
      "vout": [
        {
          "value": 50.0,
          "n": 0,
          "scriptPubKey": {
            "asm": "04aa88e9f846bd3688ed6361ab3589e90476b7c740757a7934b560583883e5ebb7a95b45d09725f39aae9dbb9f0bcf06ceed1a4eb94df81d7147ff036257621165 OP_CHECKSIG",
            "desc": "pk(04aa88e9f846bd3688ed6361ab3589e90476b7c740757a7934b560583883e5ebb7a95b45d09725f39aae9dbb9f0bcf06ceed1a4eb94df81d7147ff036257621165)#2y36s22m",
            "hex": "4104aa88e9f846bd3688ed6361ab3589e90476b7c740757a7934b560583883e5ebb7a95b45d09725f39aae9dbb9f0bcf06ceed1a4eb94df81d7147ff036257621165ac",
            "type": "pubkey"
          }
        }
      ],
      "hex": "01000000010000000000000000000000000000000000000000000000000000000000000000ffffffff0704ffff001d0103ffffffff0100f2052a01000000434104aa88e9f846bd3688ed6361ab3589e90476b7c740757a7934b560583883e5ebb7a95b45d09725f39aae9dbb9f0bcf06ceed1a4eb94df81d7147ff036257621165ac00000000"
    }
  ]
}