{
  "hash": "000000000ced11649abe4bb6dda4b2f48629c5484cd26dd57419d9b0ffec9608",
  "confirmations": 46132,
  "height": 6966,
  "version": 1,
  "versionHex": "00000001",
  "merkleroot": "db906b2b8d77607865852bbcc5fe2aed4d2bb6c66ab80ae5d9796ad0f1eb0c65",
  "time": 1236691314,
  "mediantime": 1236688340,
  "nonce": 1203846942,
  "bits": "1d00ffff",
  "difficulty": 1,
  "chainwork": "00000000000000000000000000000000000000000000000000001b371b371b37",
  "nTx": 1,
  "previousblockhash": "000000009ecf2e19ea3bab1b9186bd44f85cca06a86b029933c441f01312126d",
  "nextblockhash": "00000000a3a0c36cf5524cf13ec2cff8b87025992a4879f3f339e4fb848b3a16",
  "strippedsize": 216,
  "size": 216,
  "weight": 864,
  "tx": [
    {
      "txid": "db906b2b8d77607865852bbcc5fe2aed4d2bb6c66ab80ae5d9796ad0f1eb0c65",
      "hash": "db906b2b8d77607865852bbcc5fe2aed4d2bb6c66ab80ae5d9796ad0f1eb0c65",
      "version": 1,
      "size": 135,
      "vsize": 135,
      "weight": 540,
      "locktime": 0,
      "vin": [
        {
          "coinbase": "04ffff001d029e01",
          "sequence": 4294967295
        }
      ],
      "vout": [
        {
          "value": 50.0,
          "n": 0,
          "scriptPubKey": {
            "asm": "04f1185a690e339e30952cc91d358fcfda74269dfe7a85da65c879cef0c63a5728d9fd02e94a3291242a525918c59c9f4849cd835bbd32963b7a59a372eb7fb7b1 OP_CHECKSIG",
            "desc": "pk(04f1185a690e339e30952cc91d358fcfda74269dfe7a85da65c879cef0c63a5728d9fd02e94a3291242a525918c59c9f4849cd835bbd32963b7a59a372eb7fb7b1)#gy667efj",
            "hex": "4104f1185a690e339e30952cc91d358fcfda74269dfe7a85da65c879cef0c63a5728d9fd02e94a3291242a525918c59c9f4849cd835bbd32963b7a59a372eb7fb7b1ac",
            "type": "pubkey"
          }
        }
      ],
      "hex": "01000000010000000000000000000000000000000000000000000000000000000000000000ffffffff0804ffff001d029e01ffffffff0100f2052a01000000434104f1185a690e339e30952cc91d358fcfda74269dfe7a85da65c879cef0c63a5728d9fd02e94a3291242a525918c59c9f4849cd835bbd32963b7a59a372eb7fb7b1ac00000000"
    }
  ]
}