{
  "hash": "00000000d7cd0cc429d2ef6cd858000c5dd822bffc2fb174ae53e47cc27cfa9e",
  "confirmations": 48490,
  "height": 4608,
  "version": 1,
  "versionHex": "00000001",
  "merkleroot": "b46c0b2cdf976962603c2f450d7d5b22b7e1c7e94ac99e3b89330a7a56f59b0f",
  "time": 1234859259,
  "mediantime": 1234855732,
  "nonce": 3718482440,
  "bits": "1d00ffff",
  "difficulty": 1,
  "chainwork": "0000000000000000000000000000000000000000000000000000120112011201",
  "nTx": 1,
  "previousblockhash": "000000007057e192efb33875b01831db62cfb6c91d50a23c9bd30e79457b6cb5",
  "nextblockhash": "00000000124730480963a8985ce79d76e5c1fe34817ed21fbd1ab45ee60e8a11",
  "strippedsize": 216,
  "size": 216,
  "weight": 864,
  "tx": [
    {
      "txid": "b46c0b2cdf976962603c2f450d7d5b22b7e1c7e94ac99e3b89330a7a56f59b0f",
      "hash": "b46c0b2cdf976962603c2f450d7d5b22b7e1c7e94ac99e3b89330a7a56f59b0f",
      "version": 1,
      "size": 135,
      "vsize": 135,
      "weight": 540,
      "locktime": 0,
      "vin": [
        {
          "coinbase": "04ffff001d02f300",
          "sequence": 4294967295
        }
      ],
      "vout": [
        {
          "value": 50.0,
          "n": 0,
          "scriptPubKey": {
            "asm": "04dcb6c506dcf9450dd96b95a018627f53c6c3a76ffd33372ede6db62923d690f1edea16055b0edc879321f9c4b18888b6644a2d89a7eaa5c13bec8dbd41a94e0e OP_CHECKSIG",
            "desc": "pk(04dcb6c506dcf9450dd96b95a018627f53c6c3a76ffd33372ede6db62923d690f1edea16055b0edc879321f9c4b18888b6644a2d89a7eaa5c13bec8dbd41a94e0e)#k5tpt0yd",
            "hex": "4104dcb6c506dcf9450dd96b95a018627f53c6c3a76ffd33372ede6db62923d690f1edea16055b0edc879321f9c4b18888b6644a2d89a7eaa5c13bec8dbd41a94e0eac",
            "type": "pubkey"
          }
        }
      ],
      "hex": "01000000010000000000000000000000000000000000000000000000000000000000000000ffffffff0804ffff001d02f300ffffffff0100f2052a01000000434104dcb6c506dcf9450dd96b95a018627f53c6c3a76ffd33372ede6db62923d690f1edea16055b0edc879321f9c4b18888b6644a2d89a7eaa5c13bec8dbd41a94e0eac00000000"
    }
  ]
}