{
  "hash": "000000008a0521aecef14afd335a0a29309d86fbb2eaaef968977e7a962a810e",
  "confirmations": 46681,
  "height": 6417,
  "version": 1,
  "versionHex": "00000001",
  "merkleroot": "a86369800d32a14d7027f907a19a1ae476b9e461b555e94bf9d6014ebc6a64f5",
  "time": 1236268970,
  "mediantime": 1236265930,
  "nonce": 62558364,
  "bits": "1d00ffff",
  "difficulty": 1,
  "chainwork": "0000000000000000000000000000000000000000000000000000191219121912",
  "nTx": 1,
  "previousblockhash": "0000000073209dbb492f207b6d8d49e4a4eda057279759af3b87d79a33ee16d6",
  "nextblockhash": "0000000031c2ab2d71221cca7415d2746b101d890616b7da15a8059c7f5b1578",
  "strippedsize": 216,
  "size": 216,
  "weight": 864,
  "tx": [
    {
      "txid": "a86369800d32a14d7027f907a19a1ae476b9e461b555e94bf9d6014ebc6a64f5",
      "hash": "a86369800d32a14d7027f907a19a1ae476b9e461b555e94bf9d6014ebc6a64f5",
      "version": 1,
      "size": 135,
      "vsize": 135,
      "weight": 540,
      "locktime": 0,
      "vin": [
        {
          "coinbase": "04ffff001d02da0a",
          "sequence": 4294967295
        }
      ],
      "vout": [
        {
          "value": 50.0,
          "n": 0,
          "scriptPubKey": {
            "asm": "049c8dbea84145edcc9f119127f8f22fa45764162021c7d3e90b6be12f0c4be9450020ea11bafd56868d8bb45afb31a62573e0e709812d71ed66c97890d85cceca OP_CHECKSIG",
            "desc": "pk(049c8dbea84145edcc9f119127f8f22fa45764162021c7d3e90b6be12f0c4be9450020ea11bafd56868d8bb45afb31a62573e0e709812d71ed66c97890d85cceca)#2zvsgsku",
            "hex": "41049c8dbea84145edcc9f119127f8f22fa45764162021c7d3e90b6be12f0c4be9450020ea11bafd56868d8bb45afb31a62573e0e709812d71ed66c97890d85ccecaac",
            "type": "pubkey"
          }
        }
      ],
      "hex": "01000000010000000000000000000000000000000000000000000000000000000000000000ffffffff0804ffff001d02da0affffffff0100f2052a010000004341049c8dbea84145edcc9f119127f8f22fa45764162021c7d3e90b6be12f0c4be9450020ea11bafd56868d8bb45afb31a62573e0e709812d71ed66c97890d85ccecaac00000000"
    }
  ]
}