{
  "hash": "000000005619d16344812b7a8e7bee7f286d31e9829bde188b7bc4410b63af52",
  "confirmations": 46608,
  "height": 6490,
  "version": 1,
  "versionHex": "00000001",
  "merkleroot": "6614f934e48efe78045387a8e8c9cdb082887ffed66eb3d9c8f2cd5550baf4e0",
  "time": 1236321952,
  "mediantime": 1236319672,
  "nonce": 3823953160,
  "bits": "1d00ffff",
  "difficulty": 1,
  "chainwork": "0000000000000000000000000000000000000000000000000000195b195b195b",
  "nTx": 1,
  "previousblockhash": "000000006438d40acb75496695018c91b82377cbccca8d477797fa7adc721f82",
  "nextblockhash": "00000000bf15fb64c76a8c269c966bad7111cedf84589b4859350857482bb48e",
  "strippedsize": 216,
  "size": 216,
  "weight": 864,
  "tx": [
    {
      "txid": "6614f934e48efe78045387a8e8c9cdb082887ffed66eb3d9c8f2cd5550baf4e0",
      "hash": "6614f934e48efe78045387a8e8c9cdb082887ffed66eb3d9c8f2cd5550baf4e0",
      "version": 1,
      "size": 135,
      "vsize": 135,
      "weight": 540,
      "locktime": 0,
      "vin": [
        {
          "coinbase": "04ffff001d025703",
          "sequence": 4294967295
        }
      ],
      "vout": [
        {
          "value": 50.0,
          "n": 0,
          "scriptPubKey": {
            "asm": "04480627d5e9adda773b54530e67629ed7386318871786f362060e837a1d1fec0dcd3d2675eaa4f967316c97ed550aad03b543080f88efce5c0ae4038112519c91 OP_CHECKSIG",
            "desc": "pk(04480627d5e9adda773b54530e67629ed7386318871786f362060e837a1d1fec0dcd3d2675eaa4f967316c97ed550aad03b543080f88efce5c0ae4038112519c91)#xpt4wkd9",
            "hex": "4104480627d5e9adda773b54530e67629ed7386318871786f362060e837a1d1fec0dcd3d2675eaa4f967316c97ed550aad03b543080f88efce5c0ae4038112519c91ac",
            "type": "pubkey"
          }
        }
      ],
      "hex": "01000000010000000000000000000000000000000000000000000000000000000000000000ffffffff0804ffff001d025703ffffffff0100f2052a01000000434104480627d5e9adda773b54530e67629ed7386318871786f362060e837a1d1fec0dcd3d2675eaa4f967316c97ed550aad03b543080f88efce5c0ae4038112519c91ac00000000"
    }
  ]
}