{
  "hash": "00000000c8f4d18b6df1c2a0788312b5c8df41bc083a70ef0a34a9908a7c45b8",
  "confirmations": 43630,
  "height": 9468,
  "version": 1,
  "versionHex": "00000001",
  "merkleroot": "0264c95141494bbe0b6cd7742ee5a6eb4a71b1cf109f67fec8be1f8f64b27ca6",
  "time": 1238603848,
  "mediantime": 1238601565,
  "nonce": 2694053424,
  "bits": "1d00ffff",
  "difficulty": 1,
  "chainwork": "000000000000000000000000000000000000000000000000000024fd24fd24fd",
  "nTx": 1,
  "previousblockhash": "00000000891a7178d8ae57ce0f58cd0f5f0fcaed2bc067c1af8514e76099909b",
  "nextblockhash": "00000000c29b2595b46321efd07066a4d3d94db1b71302e40907ef3c720b274b",
  "strippedsize": 216,
  "size": 216,
  "weight": 864,
  "tx": [
    {
      "txid": "0264c95141494bbe0b6cd7742ee5a6eb4a71b1cf109f67fec8be1f8f64b27ca6",
      "hash": "0264c95141494bbe0b6cd7742ee5a6eb4a71b1cf109f67fec8be1f8f64b27ca6",
      "version": 1,
      "size": 135,
      "vsize": 135,
      "weight": 540,
      "locktime": 0,
      "vin": [
        {
          "coinbase": "04ffff001d02c504",
          "sequence": 4294967295
        }
      ],
      "vout": [
        {
          "value": 50.0,
          "n": 0,
          "scriptPubKey": {
            "asm": "043d6ba247dc2558503eac6b44933cb347d3ec9ab66f71a321285bf71c73cef0f594f264f513bc3cfa50cc856ef2d69bcd62ca2ec776cbb9a8107efa48be380979 OP_CHECKSIG",
            "desc": "pk(043d6ba247dc2558503eac6b44933cb347d3ec9ab66f71a321285bf71c73cef0f594f264f513bc3cfa50cc856ef2d69bcd62ca2ec776cbb9a8107efa48be380979)#sgzyhthh",
            "hex": "41043d6ba247dc2558503eac6b44933cb347d3ec9ab66f71a321285bf71c73cef0f594f264f513bc3cfa50cc856ef2d69bcd62ca2ec776cbb9a8107efa48be380979ac",
            "type": "pubkey"
          }
        }
      ],
      "hex": "01000000010000000000000000000000000000000000000000000000000000000000000000ffffffff0804ffff001d02c504ffffffff0100f2052a010000004341043d6ba247dc2558503eac6b44933cb347d3ec9ab66f71a321285bf71c73cef0f594f264f513bc3cfa50cc856ef2d69bcd62ca2ec776cbb9a8107efa48be380979ac00000000"
    }
  ]
}