{
  "hash": "000000003eb064707e0591eb4a83c8fa8f47d18c26ecc34c43649653fd6bf20c",
  "confirmations": 44901,
  "height": 8197,
  "version": 1,
  "versionHex": "00000001",
  "merkleroot": "249e15a3d16d00199fdb41df33a6467aa0f1aaadf1aee0094504b742e512a964",
  "time": 1237604556,
  "mediantime": 1237600863,
  "nonce": 2582373914,
  "bits": "1d00ffff",
  "difficulty": 1,
  "chainwork": "0000000000000000000000000000000000000000000000000000200620062006",
  "nTx": 1,
  "previousblockhash": "00000000e0c83bf9fe1d1f962cf9e88dd0ac13d02bf95eb5bc9f2145d678b7de",
  "nextblockhash": "0000000064a6ad218f3abf950d67202a2d610b25638550b2c5f91816a7c8a190",
  "strippedsize": 216,
  "size": 216,
  "weight": 864,
  "tx": [
    {
      "txid": "249e15a3d16d00199fdb41df33a6467aa0f1aaadf1aee0094504b742e512a964",
      "hash": "249e15a3d16d00199fdb41df33a6467aa0f1aaadf1aee0094504b742e512a964",
      "version": 1,
      "size": 135,
      "vsize": 135,
      "weight": 540,
      "locktime": 0,
      "vin": [
        {
          "coinbase": "04ffff001d02ca02",
          "sequence": 4294967295
        }
      ],
      "vout": [
        {
          "value": 50.0,
          "n": 0,
          "scriptPubKey": {
            "asm": "040f8cbb3d8aeb96c079a62d97d9c3ff32ddc84a4cecc5d0e11b36196d4284be3cb6da0262992be31c2e923a4bfdf221cf8a77d0be7890602e1d961128439ac132 OP_CHECKSIG",
            "desc": "pk(040f8cbb3d8aeb96c079a62d97d9c3ff32ddc84a4cecc5d0e11b36196d4284be3cb6da0262992be31c2e923a4bfdf221cf8a77d0be7890602e1d961128439ac132)#29zr4h6d",
            "hex": "41040f8cbb3d8aeb96c079a62d97d9c3ff32ddc84a4cecc5d0e11b36196d4284be3cb6da0262992be31c2e923a4bfdf221cf8a77d0be7890602e1d961128439ac132ac",
            "type": "pubkey"
          }
        }
      ],
      "hex": "01000000010000000000000000000000000000000000000000000000000000000000000000ffffffff0804ffff001d02ca02ffffffff0100f2052a010000004341040f8cbb3d8aeb96c079a62d97d9c3ff32ddc84a4cecc5d0e11b36196d4284be3cb6da0262992be31c2e923a4bfdf221cf8a77d0be7890602e1d961128439ac132ac00000000"
    }
  ]
}