{
  "hash": "00000000351170bf9b6bc61fa4c7512b17fa5f2796ffaf63b9512ad8fa20c07c",
  "confirmations": 48789,
  "height": 4309,
  "version": 1,
  "versionHex": "00000001",
  "merkleroot": "9118a142970444e11adce0b8466ddd01495f7f1c6718a6c6c83eccdfe7e5a67e",
  "time": 1234648215,
  "mediantime": 1234645551,
  "nonce": 3091456537,
  "bits": "1d00ffff",
  "difficulty": 1,
  "chainwork": "000000000000000000000000000000000000000000000000000010d610d610d6",
  "nTx": 1,
  "previousblockhash": "00000000eeaa7e2c5d098af7162ff783da9c9a30738411adfb8921664810d635",
  "nextblockhash": "000000004201ff1f9c46ff10642eb40bc664653b36e9d6091a6cf5b03fb8bd0d",
  "strippedsize": 215,
  "size": 215,
  "weight": 860,
  "tx": [
    {
      "txid": "9118a142970444e11adce0b8466ddd01495f7f1c6718a6c6c83eccdfe7e5a67e",
      "hash": "9118a142970444e11adce0b8466ddd01495f7f1c6718a6c6c83eccdfe7e5a67e",
      "version": 1,
      "size": 134,
      "vsize": 134,
      "weight": 536,
      "locktime": 0,
      "vin": [
        {
          "coinbase": "04ffff001d0106",
          "sequence": 4294967295
        }
      ],
      "vout": [
        {
          "value": 50.0,
          "n": 0,
          "scriptPubKey": {
            "asm": "0479fe12886895eae552a4b53e1c49e3b0b3f2baf785fff0ea0e990d44e1fa0810b03998221cc9f255677b4fc5e5c2abcb01758a1f7ba6b4ced0d3755111103242 OP_CHECKSIG",
            "desc": "pk(0479fe12886895eae552a4b53e1c49e3b0b3f2baf785fff0ea0e990d44e1fa0810b03998221cc9f255677b4fc5e5c2abcb01758a1f7ba6b4ced0d3755111103242)#3whvzgeq",
            "hex": "410479fe12886895eae552a4b53e1c49e3b0b3f2baf785fff0ea0e990d44e1fa0810b03998221cc9f255677b4fc5e5c2abcb01758a1f7ba6b4ced0d3755111103242ac",
            "type": "pubkey"
          }
        }
      ],
      "hex": "01000000010000000000000000000000000000000000000000000000000000000000000000ffffffff0704ffff001d0106ffffffff0100f2052a0100000043410479fe12886895eae552a4b53e1c49e3b0b3f2baf785fff0ea0e990d44e1fa0810b03998221cc9f255677b4fc5e5c2abcb01758a1f7ba6b4ced0d3755111103242ac00000000"
    }
  ]
}