{
  "hash": "00000000d1b4e13188893c5a9ebe72c5b654d9ff0f3e8da665a014406852f574",
  "confirmations": 46914,
  "height": 6184,
  "version": 1,
  "versionHex": "00000001",
  "merkleroot": "3c616d9d59b8596af0760a8b2e021e238ef499cac14864a0e275732c6edf1186",
  "time": 1236078813,
  "mediantime": 1236074846,
  "nonce": 20972530,
  "bits": "1d00ffff",
  "difficulty": 1,
  "chainwork": "0000000000000000000000000000000000000000000000000000182918291829",
  "nTx": 1,
  "previousblockhash": "000000008db36ba3c95a5780c247cf049570bc1b3ae1e7155db166e6f5eb89fe",
  "nextblockhash": "000000000108391e7d064ad376d734d6080de67409adf46ca64b8f7d338ff7be",
  "strippedsize": 216,
  "size": 216,
  "weight": 864,
  "tx": [
    {
      "txid": "3c616d9d59b8596af0760a8b2e021e238ef499cac14864a0e275732c6edf1186",
      "hash": "3c616d9d59b8596af0760a8b2e021e238ef499cac14864a0e275732c6edf1186",
      "version": 1,
      "size": 135,
      "vsize": 135,
      "weight": 540,
      "locktime": 0,
      "vin": [
        {
          "coinbase": "04ffff001d02ef09",
          "sequence": 4294967295
        }
      ],
      "vout": [
        {
          "value": 50.0,
          "n": 0,
          "scriptPubKey": {
            "asm": "0473a8148e2a4633bad575607b8b5e51256ec1b5b62a6caed0796f46ccffbca902790a00e62f21806cb3821a0d21f39340e2f7337e699d38c4caddf66ef56cdd95 OP_CHECKSIG",
            "desc": "pk(0473a8148e2a4633bad575607b8b5e51256ec1b5b62a6caed0796f46ccffbca902790a00e62f21806cb3821a0d21f39340e2f7337e699d38c4caddf66ef56cdd95)#mvsutnzp",
            "hex": "410473a8148e2a4633bad575607b8b5e51256ec1b5b62a6caed0796f46ccffbca902790a00e62f21806cb3821a0d21f39340e2f7337e699d38c4caddf66ef56cdd95ac",
            "type": "pubkey"
          }
        }
      ],
      "hex": "01000000010000000000000000000000000000000000000000000000000000000000000000ffffffff0804ffff001d02ef09ffffffff0100f2052a0100000043410473a8148e2a4633bad575607b8b5e51256ec1b5b62a6caed0796f46ccffbca902790a00e62f21806cb3821a0d21f39340e2f7337e699d38c4caddf66ef56cdd95ac00000000"
    }
  ]
}