{
  "hash": "000000006b1567112c76099a3cb73da141ce0e8e237078ef59132102517b846d",
  "confirmations": 46712,
  "height": 6386,
  "version": 1,
  "versionHex": "00000001",
  "merkleroot": "06951808f1b51fa27df970be4d8dbe0b12772a40e3c2b785cf8c6258db3fbe94",
  "time": 1236245455,
  "mediantime": 1236242908,
  "nonce": 2813123377,
  "bits": "1d00ffff",
  "difficulty": 1,
  "chainwork": "000000000000000000000000000000000000000000000000000018f318f318f3",
  "nTx": 1,
  "previousblockhash": "00000000bf933846fc1909e40b854b7e045ca77ebfba2c1b38b291d63dcbe195",
  "nextblockhash": "00000000bdba2cb37492243786d1957714adb31e6149f5d20aca6653bca2b84b",
  "strippedsize": 216,
  "size": 216,
  "weight": 864,
  "tx": [
    {
      "txid": "06951808f1b51fa27df970be4d8dbe0b12772a40e3c2b785cf8c6258db3fbe94",
      "hash": "06951808f1b51fa27df970be4d8dbe0b12772a40e3c2b785cf8c6258db3fbe94",
      "version": 1,
      "size": 135,
      "vsize": 135,
      "weight": 540,
      "locktime": 0,
      "vin": [
        {
          "coinbase": "04ffff001d028d01",
          "sequence": 4294967295
        }
      ],
      "vout": [
        {
          "value": 50.0,
          "n": 0,
          "scriptPubKey": {
            "asm": "046cc1c155c51c82bf6362dc291b8ca363cc8cf69a9593848307622a0b1e5b0be117825e0617fe562f5d174b6c71e5e4dc9f41f822000b2579ea893a99a9bf363e OP_CHECKSIG",
            "desc": "pk(046cc1c155c51c82bf6362dc291b8ca363cc8cf69a9593848307622a0b1e5b0be117825e0617fe562f5d174b6c71e5e4dc9f41f822000b2579ea893a99a9bf363e)#me3ay8at",
            "hex": "41046cc1c155c51c82bf6362dc291b8ca363cc8cf69a9593848307622a0b1e5b0be117825e0617fe562f5d174b6c71e5e4dc9f41f822000b2579ea893a99a9bf363eac",
            "type": "pubkey"
          }
        }
      ],
      "hex": "01000000010000000000000000000000000000000000000000000000000000000000000000ffffffff0804ffff001d028d01ffffffff0100f2052a010000004341046cc1c155c51c82bf6362dc291b8ca363cc8cf69a9593848307622a0b1e5b0be117825e0617fe562f5d174b6c71e5e4dc9f41f822000b2579ea893a99a9bf363eac00000000"
    }
  ]
}