{
  "hash": "00000000abeee952c5d463802a352e7535d1a322b1b06115181c36fac50b3a8e",
  "confirmations": 50543,
  "height": 2555,
  "version": 1,
  "versionHex": "00000001",
  "merkleroot": "4a6330edcb135f3447ead2e79c58091de33e2d9728482cdefb976de49c3d6d2d",
  "time": 1233458518,
  "mediantime": 1233453846,
  "nonce": 2019558914,
  "bits": "1d00ffff",
  "difficulty": 1,
  "chainwork": "000000000000000000000000000000000000000000000000000009fc09fc09fc",
  "nTx": 1,
  "previousblockhash": "00000000939822ebfdfc460655ac56b1c38cf95a9195d870571436f5c29f3a40",
  "nextblockhash": "00000000e27b162e13a8475282d442ddf3aeb902afe6233fa801f61f8c6a2fa8",
  "strippedsize": 216,
  "size": 216,
  "weight": 864,
  "tx": [
    {
      "txid": "4a6330edcb135f3447ead2e79c58091de33e2d9728482cdefb976de49c3d6d2d",
      "hash": "4a6330edcb135f3447ead2e79c58091de33e2d9728482cdefb976de49c3d6d2d",
      "version": 1,
      "size": 135,
      "vsize": 135,
      "weight": 540,
      "locktime": 0,
      "vin": [
        {
          "coinbase": "04ffff001d02fa01",
          "sequence": 4294967295
        }
      ],
      "vout": [
        {
          "value": 50.0,
          "n": 0,
          "scriptPubKey": {
            "asm": "04736078b48e8ba48c008fa62cf5d2c6f823d742ad867998329a7d29d8be9f0c1df2de659d5f5470009e0fe52728b1e3977a27cedc648cd33b898f6bcc128f1522 OP_CHECKSIG",
            "desc": "pk(04736078b48e8ba48c008fa62cf5d2c6f823d742ad867998329a7d29d8be9f0c1df2de659d5f5470009e0fe52728b1e3977a27cedc648cd33b898f6bcc128f1522)#la4mgrva",
            "hex": "4104736078b48e8ba48c008fa62cf5d2c6f823d742ad867998329a7d29d8be9f0c1df2de659d5f5470009e0fe52728b1e3977a27cedc648cd33b898f6bcc128f1522ac",
            "type": "pubkey"
          }
        }
      ],
      "hex": "01000000010000000000000000000000000000000000000000000000000000000000000000ffffffff0804ffff001d02fa01ffffffff0100f2052a01000000434104736078b48e8ba48c008fa62cf5d2c6f823d742ad867998329a7d29d8be9f0c1df2de659d5f5470009e0fe52728b1e3977a27cedc648cd33b898f6bcc128f1522ac00000000"
    }
  ]
}