{
  "hash": "00000000c88cb61c8093f11df65dbc6633ae783e6f51be9aa8bbc6c624a994e2",
  "confirmations": 52092,
  "height": 1006,
  "version": 1,
  "versionHex": "00000001",
  "merkleroot": "7e93b3642e1601716659e6a2e34f1ca76f9a2042440316dfa35a2f890e1567e2",
  "time": 1232352703,
  "mediantime": 1232347786,
  "nonce": 96528156,
  "bits": "1d00ffff",
  "difficulty": 1,
  "chainwork": "000000000000000000000000000000000000000000000000000003ef03ef03ef",
  "nTx": 1,
  "previousblockhash": "000000006659f6eed8840da4336211802af29eb04453e7e92d0f80a98f3e833c",
  "nextblockhash": "0000000037b9be6143407617d34d7dd70a09aeb68e5da5a092bf5d19d7a06da6",
  "strippedsize": 216,
  "size": 216,
  "weight": 864,
  "tx": [
    {
      "txid": "7e93b3642e1601716659e6a2e34f1ca76f9a2042440316dfa35a2f890e1567e2",
      "hash": "7e93b3642e1601716659e6a2e34f1ca76f9a2042440316dfa35a2f890e1567e2",
      "version": 1,
      "size": 135,
      "vsize": 135,
      "weight": 540,
      "locktime": 0,
      "vin": [
        {
          "coinbase": "04ffff001d022d05",
          "sequence": 4294967295
        }
      ],
      "vout": [
        {
          "value": 50.0,
          "n": 0,
          "scriptPubKey": {
            "asm": "047e8cfc09229af0b6c4bd6a6e93ce2f47e63c80e5d53c1073651ab586a11e2f05170053e678af9557eddf6dc37173d36052035d6133526de7fa3df68b23d777a3 OP_CHECKSIG",
            "desc": "pk(047e8cfc09229af0b6c4bd6a6e93ce2f47e63c80e5d53c1073651ab586a11e2f05170053e678af9557eddf6dc37173d36052035d6133526de7fa3df68b23d777a3)#fh49cy0m",
            "hex": "41047e8cfc09229af0b6c4bd6a6e93ce2f47e63c80e5d53c1073651ab586a11e2f05170053e678af9557eddf6dc37173d36052035d6133526de7fa3df68b23d777a3ac",
            "type": "pubkey"
          }
        }
      ],
      "hex": "01000000010000000000000000000000000000000000000000000000000000000000000000ffffffff0804ffff001d022d05ffffffff0100f2052a010000004341047e8cfc09229af0b6c4bd6a6e93ce2f47e63c80e5d53c1073651ab586a11e2f05170053e678af9557eddf6dc37173d36052035d6133526de7fa3df68b23d777a3ac00000000"
    }
  ]
}