{
  "hash": "00000000c0843851d5a1a7e720f663af738f71d5f981861d934f2bca3cedd02b",
  "confirmations": 43366,
  "height": 9732,
  "version": 1,
  "versionHex": "00000001",
  "merkleroot": "d08df2a18daef8962b1469ea796b08a4dcc459b305619336d75c81db54129a00",
  "time": 1238801354,
  "mediantime": 1238798368,
  "nonce": 1033681692,
  "bits": "1d00ffff",
  "difficulty": 1,
  "chainwork": "0000000000000000000000000000000000000000000000000000260526052605",
  "nTx": 1,
  "previousblockhash": "00000000e7c9fde0d160a3672029ad6a96c3098b3b95aa906d0dad9265f5aeb6",
  "nextblockhash": "00000000733c021ff99a46e43c7ba3adc7e2115eadbffd18b1c9aa24d949817d",
  "strippedsize": 216,
  "size": 216,
  "weight": 864,
  "tx": [
    {
      "txid": "d08df2a18daef8962b1469ea796b08a4dcc459b305619336d75c81db54129a00",
      "hash": "d08df2a18daef8962b1469ea796b08a4dcc459b305619336d75c81db54129a00",
      "version": 1,
      "size": 135,
      "vsize": 135,
      "weight": 540,
      "locktime": 0,
      "vin": [
        {
          "coinbase": "04ffff001d021009",
          "sequence": 4294967295
        }
      ],
      "vout": [
        {
          "value": 50.0,
          "n": 0,
          "scriptPubKey": {
            "asm": "0412535a1f0ef6cbf736e9fb1b3ebe8656857a5e31d960ab6fa9618c5dadfc397359f3284aefabf3befd6f6a0c379dfc6adaee65a5ed3c200350f8741dd0cd8abf OP_CHECKSIG",
            "desc": "pk(0412535a1f0ef6cbf736e9fb1b3ebe8656857a5e31d960ab6fa9618c5dadfc397359f3284aefabf3befd6f6a0c379dfc6adaee65a5ed3c200350f8741dd0cd8abf)#z4plwnqc",
            "hex": "410412535a1f0ef6cbf736e9fb1b3ebe8656857a5e31d960ab6fa9618c5dadfc397359f3284aefabf3befd6f6a0c379dfc6adaee65a5ed3c200350f8741dd0cd8abfac",
            "type": "pubkey"
          }
        }
      ],
      "hex": "01000000010000000000000000000000000000000000000000000000000000000000000000ffffffff0804ffff001d021009ffffffff0100f2052a0100000043410412535a1f0ef6cbf736e9fb1b3ebe8656857a5e31d960ab6fa9618c5dadfc397359f3284aefabf3befd6f6a0c379dfc6adaee65a5ed3c200350f8741dd0cd8abfac00000000"
    }
  ]
}