{
  "hash": "0000000003339b4c239e4c4a5c0e49a89e91da9482f575f432d3db7329470772",
  "confirmations": 45814,
  "height": 7284,
  "version": 1,
  "versionHex": "00000001",
  "merkleroot": "adba3bd29f813ce193f5b7a6746d4807149cd7a28c21230abb40099d452543a6",
  "time": 1236936183,
  "mediantime": 1236930810,
  "nonce": 3854348035,
  "bits": "1d00ffff",
  "difficulty": 1,
  "chainwork": "00000000000000000000000000000000000000000000000000001c751c751c75",
  "nTx": 1,
  "previousblockhash": "000000006ffb9188ef126ff462598687db7832ec71041d3b90e0b559e8d00bbe",
  "nextblockhash": "00000000c1ce5aa35fb7732feb308969005173797b270b39790d32892eea7cff",
  "strippedsize": 216,
  "size": 216,
  "weight": 864,
  "tx": [
    {
      "txid": "adba3bd29f813ce193f5b7a6746d4807149cd7a28c21230abb40099d452543a6",
      "hash": "adba3bd29f813ce193f5b7a6746d4807149cd7a28c21230abb40099d452543a6",
      "version": 1,
      "size": 135,
      "vsize": 135,
      "weight": 540,
      "locktime": 0,
      "vin": [
        {
          "coinbase": "04ffff001d021107",
          "sequence": 4294967295
        }
      ],
      "vout": [
        {
          "value": 50.0,
          "n": 0,
          "scriptPubKey": {
            "asm": "0455de8bec5f4dd168ef8312a90a4e9b7038327933b7ac7c4c3156a13d60088f4c4e5134ba3f5096f3a580a4ecc3ec46947d1864d6b0df2545df29642304459c9b OP_CHECKSIG",
            "desc": "pk(0455de8bec5f4dd168ef8312a90a4e9b7038327933b7ac7c4c3156a13d60088f4c4e5134ba3f5096f3a580a4ecc3ec46947d1864d6b0df2545df29642304459c9b)#ru96zdmw",
            "hex": "410455de8bec5f4dd168ef8312a90a4e9b7038327933b7ac7c4c3156a13d60088f4c4e5134ba3f5096f3a580a4ecc3ec46947d1864d6b0df2545df29642304459c9bac",
            "type": "pubkey"
          }
        }
      ],
      "hex": "01000000010000000000000000000000000000000000000000000000000000000000000000ffffffff0804ffff001d021107ffffffff0100f2052a0100000043410455de8bec5f4dd168ef8312a90a4e9b7038327933b7ac7c4c3156a13d60088f4c4e5134ba3f5096f3a580a4ecc3ec46947d1864d6b0df2545df29642304459c9bac00000000"
    }
  ]
}