{
  "hash": "00000000249b3caba98d7757fa078188b21ee3c73272c1c90392cfe8e070e08b",
  "confirmations": 46528,
  "height": 6570,
  "version": 1,
  "versionHex": "00000001",
  "merkleroot": "4b156fb55bcb9a917727aa1683df1c955f8d27f115ebe4f83172005efe0d2f30",
  "time": 1236379130,
  "mediantime": 1236376530,
  "nonce": 2808900918,
  "bits": "1d00ffff",
  "difficulty": 1,
  "chainwork": "000000000000000000000000000000000000000000000000000019ab19ab19ab",
  "nTx": 1,
  "previousblockhash": "00000000a23fd72f8e11e5cd0b5c174abcfd799d6f67a26d0ea3d8c3f068387f",
  "nextblockhash": "00000000b208b8059038c5b7dae8c19b40c3b186332170493bdd19b3a9c0a445",
  "strippedsize": 216,
  "size": 216,
  "weight": 864,
  "tx": [
    {
      "txid": "4b156fb55bcb9a917727aa1683df1c955f8d27f115ebe4f83172005efe0d2f30",
      "hash": "4b156fb55bcb9a917727aa1683df1c955f8d27f115ebe4f83172005efe0d2f30",
      "version": 1,
      "size": 135,
      "vsize": 135,
      "weight": 540,
      "locktime": 0,
      "vin": [
        {
          "coinbase": "04ffff001d02a504",
          "sequence": 4294967295
        }
      ],
      "vout": [
        {
          "value": 50.0,
          "n": 0,
          "scriptPubKey": {
            "asm": "048d81c279aa15ae3fb367dfb93e1aae4622a61f31a8fde79b46996d2ff3767fc157add2e54dd791b94600e48b886abb7a8d10a26bca63c74a84040a02d0f74e6e OP_CHECKSIG",
            "desc": "pk(048d81c279aa15ae3fb367dfb93e1aae4622a61f31a8fde79b46996d2ff3767fc157add2e54dd791b94600e48b886abb7a8d10a26bca63c74a84040a02d0f74e6e)#73xgga55",
            "hex": "41048d81c279aa15ae3fb367dfb93e1aae4622a61f31a8fde79b46996d2ff3767fc157add2e54dd791b94600e48b886abb7a8d10a26bca63c74a84040a02d0f74e6eac",
            "type": "pubkey"
          }
        }
      ],
      "hex": "01000000010000000000000000000000000000000000000000000000000000000000000000ffffffff0804ffff001d02a504ffffffff0100f2052a010000004341048d81c279aa15ae3fb367dfb93e1aae4622a61f31a8fde79b46996d2ff3767fc157add2e54dd791b94600e48b886abb7a8d10a26bca63c74a84040a02d0f74e6eac00000000"
    }
  ]
}