{
  "hash": "000000001e090ce0b60d8f264dc4efa37e4e5f3126b1d362cc9638c8068c352e",
  "confirmations": 50767,
  "height": 2331,
  "version": 1,
  "versionHex": "00000001",
  "merkleroot": "07bbca4fed5ee18967f21529697b9001e5835b12231bf92e81340d2793a5d8b8",
  "time": 1233302359,
  "mediantime": 1233299299,
  "nonce": 2863872277,
  "bits": "1d00ffff",
  "difficulty": 1,
  "chainwork": "0000000000000000000000000000000000000000000000000000091c091c091c",
  "nTx": 1,
  "previousblockhash": "00000000fab2bdd9e97cb14d98dd77aed14e4cfef22963e6dfc3d2c52c5e9443",
  "nextblockhash": "000000008b352dceffae1085aff7a87bdaab4fc553418d0dbbab0a8727f19b02",
  "strippedsize": 216,
  "size": 216,
  "weight": 864,
  "tx": [
    {
      "txid": "07bbca4fed5ee18967f21529697b9001e5835b12231bf92e81340d2793a5d8b8",
      "hash": "07bbca4fed5ee18967f21529697b9001e5835b12231bf92e81340d2793a5d8b8",
      "version": 1,
      "size": 135,
      "vsize": 135,
      "weight": 540,
      "locktime": 0,
      "vin": [
        {
          "coinbase": "04ffff001d024b02",
          "sequence": 4294967295
        }
      ],
      "vout": [
        {
          "value": 50.0,
          "n": 0,
          "scriptPubKey": {
            "asm": "048200519df1eadabb1b8f1cb3967e8b963afa324ccfddeea1c6263b119cbca62e5967d917b75943924875d5a4e19bf5dbb1438ffa8de32f22d556df98b10b050f OP_CHECKSIG",
            "desc": "pk(048200519df1eadabb1b8f1cb3967e8b963afa324ccfddeea1c6263b119cbca62e5967d917b75943924875d5a4e19bf5dbb1438ffa8de32f22d556df98b10b050f)#ytuu720r",
            "hex": "41048200519df1eadabb1b8f1cb3967e8b963afa324ccfddeea1c6263b119cbca62e5967d917b75943924875d5a4e19bf5dbb1438ffa8de32f22d556df98b10b050fac",
            "type": "pubkey"
          }
        }
      ],
      "hex": "01000000010000000000000000000000000000000000000000000000000000000000000000ffffffff0804ffff001d024b02ffffffff0100f2052a010000004341048200519df1eadabb1b8f1cb3967e8b963afa324ccfddeea1c6263b119cbca62e5967d917b75943924875d5a4e19bf5dbb1438ffa8de32f22d556df98b10b050fac00000000"
    }
  ]
}