{
  "hash": "00000000707f5eba0caca3b6e725956e92c62f68c114a239f49ca9cf2b043801",
  "confirmations": 46998,
  "height": 6100,
  "version": 1,
  "versionHex": "00000001",
  "merkleroot": "cf440616d782b1edd5ca0c4eef3806d39e8f7bec8c6e66888314302d74a1c732",
  "time": 1236009327,
  "mediantime": 1236003836,
  "nonce": 2109206276,
  "bits": "1d00ffff",
  "difficulty": 1,
  "chainwork": "000000000000000000000000000000000000000000000000000017d517d517d5",
  "nTx": 1,
  "previousblockhash": "000000007fda9f0206d4f5ebe5f948da07b65905b63788af377e9134b0b12a88",
  "nextblockhash": "0000000065dcc2ca9250ed1e6c5d089663266646ece20545a7fbed933f3e8753",
  "strippedsize": 216,
  "size": 216,
  "weight": 864,
  "tx": [
    {
      "txid": "cf440616d782b1edd5ca0c4eef3806d39e8f7bec8c6e66888314302d74a1c732",
      "hash": "cf440616d782b1edd5ca0c4eef3806d39e8f7bec8c6e66888314302d74a1c732",
      "version": 1,
      "size": 135,
      "vsize": 135,
      "weight": 540,
      "locktime": 0,
      "vin": [
        {
          "coinbase": "04ffff001d02c606",
          "sequence": 4294967295
        }
      ],
      "vout": [
        {
          "value": 50.0,
          "n": 0,
          "scriptPubKey": {
            "asm": "04db02b67d824d1773b48888eb6c653ff8d84f33444bb98d6045af1f90553e14e7511a7c08e6db7d92d216dcf9c559279338bc2bd30ad0eeae147aca28ba5c1f74 OP_CHECKSIG",
            "desc": "pk(04db02b67d824d1773b48888eb6c653ff8d84f33444bb98d6045af1f90553e14e7511a7c08e6db7d92d216dcf9c559279338bc2bd30ad0eeae147aca28ba5c1f74)#uv6r0g4u",
            "hex": "4104db02b67d824d1773b48888eb6c653ff8d84f33444bb98d6045af1f90553e14e7511a7c08e6db7d92d216dcf9c559279338bc2bd30ad0eeae147aca28ba5c1f74ac",
            "type": "pubkey"
          }
        }
      ],
      "hex": "01000000010000000000000000000000000000000000000000000000000000000000000000ffffffff0804ffff001d02c606ffffffff0100f2052a01000000434104db02b67d824d1773b48888eb6c653ff8d84f33444bb98d6045af1f90553e14e7511a7c08e6db7d92d216dcf9c559279338bc2bd30ad0eeae147aca28ba5c1f74ac00000000"
    }
  ]
}