{
  "hash": "00000000f03dc0954fa8b920fca34258c1f84c5b4bb89b5c1198ad23a1332cd7",
  "confirmations": 46326,
  "height": 6772,
  "version": 1,
  "versionHex": "00000001",
  "merkleroot": "d6c4a3ec5809d8ff44c06a86b60ca4f596581b1db097ce14f50607a9698bf9d7",
  "time": 1236538110,
  "mediantime": 1236534467,
  "nonce": 3210206467,
  "bits": "1d00ffff",
  "difficulty": 1,
  "chainwork": "00000000000000000000000000000000000000000000000000001a751a751a75",
  "nTx": 1,
  "previousblockhash": "00000000b961f4f74b927560c40d888f30181aed323566e62f8e07b118de57fb",
  "nextblockhash": "00000000390f30d60559c178ceaee9a3962a12918c301fd515bd1afd7e9adc07",
  "strippedsize": 216,
  "size": 216,
  "weight": 864,
  "tx": [
    {
      "txid": "d6c4a3ec5809d8ff44c06a86b60ca4f596581b1db097ce14f50607a9698bf9d7",
      "hash": "d6c4a3ec5809d8ff44c06a86b60ca4f596581b1db097ce14f50607a9698bf9d7",
      "version": 1,
      "size": 135,
      "vsize": 135,
      "weight": 540,
      "locktime": 0,
      "vin": [
        {
          "coinbase": "04ffff001d026208",
          "sequence": 4294967295
        }
      ],
      "vout": [
        {
          "value": 50.0,
          "n": 0,
          "scriptPubKey": {
            "asm": "04743c59059a53b6239c8972ae48c9cd2b70c42e2515241d18f1f74a8993684dc3efbdfe9bdb217ee4b3a36a6f1171cc591ba216a6df47dfd67282bce041b22e02 OP_CHECKSIG",
            "desc": "pk(04743c59059a53b6239c8972ae48c9cd2b70c42e2515241d18f1f74a8993684dc3efbdfe9bdb217ee4b3a36a6f1171cc591ba216a6df47dfd67282bce041b22e02)#w9ctzae0",
            "hex": "4104743c59059a53b6239c8972ae48c9cd2b70c42e2515241d18f1f74a8993684dc3efbdfe9bdb217ee4b3a36a6f1171cc591ba216a6df47dfd67282bce041b22e02ac",
            "type": "pubkey"
          }
        }
      ],
      "hex": "01000000010000000000000000000000000000000000000000000000000000000000000000ffffffff0804ffff001d026208ffffffff0100f2052a01000000434104743c59059a53b6239c8972ae48c9cd2b70c42e2515241d18f1f74a8993684dc3efbdfe9bdb217ee4b3a36a6f1171cc591ba216a6df47dfd67282bce041b22e02ac00000000"
    }
  ]
}