{
  "hash": "00000000483323979be9d096b592449ee0bfdf14cd4d8ce92f929777469467f5",
  "confirmations": 45929,
  "height": 7169,
  "version": 1,
  "versionHex": "00000001",
  "merkleroot": "60d2efe2804c82ea6691e561f9c64425ddb8f5726eaf9e0a8f481c6e02ab576c",
  "time": 1236847894,
  "mediantime": 1236844246,
  "nonce": 12415586,
  "bits": "1d00ffff",
  "difficulty": 1,
  "chainwork": "00000000000000000000000000000000000000000000000000001c021c021c02",
  "nTx": 1,
  "previousblockhash": "000000007bf41fadd7421e34b71f9e0f6accc14a323836e1bc8cc8445c9ebdfb",
  "nextblockhash": "00000000cc7567de5c48b49491fd520efcd0606bfdff3adc8b2640e50c53756d",
  "strippedsize": 216,
  "size": 216,
  "weight": 864,
  "tx": [
    {
      "txid": "60d2efe2804c82ea6691e561f9c64425ddb8f5726eaf9e0a8f481c6e02ab576c",
      "hash": "60d2efe2804c82ea6691e561f9c64425ddb8f5726eaf9e0a8f481c6e02ab576c",
      "version": 1,
      "size": 135,
      "vsize": 135,
      "weight": 540,
      "locktime": 0,
      "vin": [
        {
          "coinbase": "04ffff001d02a500",
          "sequence": 4294967295
        }
      ],
      "vout": [
        {
          "value": 50.0,
          "n": 0,
          "scriptPubKey": {
            "asm": "04d815e49406fdbf9bce56e579a0c05fb6b0dec25901e4c80464739e9bc52daaeecf5c05a169dd32973c84897292dd7e9909b4a98b26b0f608cca7c79c0a99c847 OP_CHECKSIG",
            "desc": "pk(04d815e49406fdbf9bce56e579a0c05fb6b0dec25901e4c80464739e9bc52daaeecf5c05a169dd32973c84897292dd7e9909b4a98b26b0f608cca7c79c0a99c847)#gfstrh0m",
            "hex": "4104d815e49406fdbf9bce56e579a0c05fb6b0dec25901e4c80464739e9bc52daaeecf5c05a169dd32973c84897292dd7e9909b4a98b26b0f608cca7c79c0a99c847ac",
            "type": "pubkey"
          }
        }
      ],
      "hex": "01000000010000000000000000000000000000000000000000000000000000000000000000ffffffff0804ffff001d02a500ffffffff0100f2052a01000000434104d815e49406fdbf9bce56e579a0c05fb6b0dec25901e4c80464739e9bc52daaeecf5c05a169dd32973c84897292dd7e9909b4a98b26b0f608cca7c79c0a99c847ac00000000"
    }
  ]
}