{
  "hash": "00000000272568d8ad613b7f441fef896b912d21bca7ad2e18348e8b0ce483e7",
  "confirmations": 51181,
  "height": 1917,
  "version": 1,
  "versionHex": "00000001",
  "merkleroot": "c8e2d3554b20f157cd8b0dc6197cf803e38165fdb90de99af17843a77b79047f",
  "time": 1232972398,
  "mediantime": 1232950123,
  "nonce": 2086395247,
  "bits": "1d00ffff",
  "difficulty": 1,
  "chainwork": "0000000000000000000000000000000000000000000000000000077e077e077e",
  "nTx": 1,
  "previousblockhash": "00000000800cca5d11742408e3965a84424269df7cecca5896649b1521d22297",
  "nextblockhash": "00000000b3b598d67bad9261385f78c2446d64edd8c1282a8ff5efadaffc2c30",
  "strippedsize": 215,
  "size": 215,
  "weight": 860,
  "tx": [
    {
      "txid": "c8e2d3554b20f157cd8b0dc6197cf803e38165fdb90de99af17843a77b79047f",
      "hash": "c8e2d3554b20f157cd8b0dc6197cf803e38165fdb90de99af17843a77b79047f",
      "version": 1,
      "size": 134,
      "vsize": 134,
      "weight": 536,
      "locktime": 0,
      "vin": [
        {
          "coinbase": "04ffff001d0101",
          "sequence": 4294967295
        }
      ],
      "vout": [
        {
          "value": 50.0,
          "n": 0,
          "scriptPubKey": {
            "asm": "04780139f9147a10cd8ed327d457957536fbf3003c0e697976bcc3853616b74129837476b750fb25a2cde3ea45dbf6756d9e9b9eef0b0f0f84d75e76c34605bfef OP_CHECKSIG",
            "desc": "pk(04780139f9147a10cd8ed327d457957536fbf3003c0e697976bcc3853616b74129837476b750fb25a2cde3ea45dbf6756d9e9b9eef0b0f0f84d75e76c34605bfef)#e3dxy5wr",
            "hex": "4104780139f9147a10cd8ed327d457957536fbf3003c0e697976bcc3853616b74129837476b750fb25a2cde3ea45dbf6756d9e9b9eef0b0f0f84d75e76c34605bfefac",
            "type": "pubkey"
          }
        }
      ],
      "hex": "01000000010000000000000000000000000000000000000000000000000000000000000000ffffffff0704ffff001d0101ffffffff0100f2052a01000000434104780139f9147a10cd8ed327d457957536fbf3003c0e697976bcc3853616b74129837476b750fb25a2cde3ea45dbf6756d9e9b9eef0b0f0f84d75e76c34605bfefac00000000"
    }
  ]
}