{
  "hash": "00000000d9de57f2fbf4bf5ce092006d73995586d89c45197752fcc4c1f07526",
  "confirmations": 47333,
  "height": 5765,
  "version": 1,
  "versionHex": "00000001",
  "merkleroot": "8ab769c48635cdead5096317b7841121b6dea3beaffef95d394db2afb5942dbf",
  "time": 1235733597,
  "mediantime": 1235731249,
  "nonce": 1176778004,
  "bits": "1d00ffff",
  "difficulty": 1,
  "chainwork": "0000000000000000000000000000000000000000000000000000168616861686",
  "nTx": 1,
  "previousblockhash": "000000000b6b65684e019339fdbd2754ed872fed987407594f984773360dd977",
  "nextblockhash": "0000000040073d53f6a78dd20709a045a2cc448a428f235740744e5b36bb8571",
  "strippedsize": 215,
  "size": 215,
  "weight": 860,
  "tx": [
    {
      "txid": "8ab769c48635cdead5096317b7841121b6dea3beaffef95d394db2afb5942dbf",
      "hash": "8ab769c48635cdead5096317b7841121b6dea3beaffef95d394db2afb5942dbf",
      "version": 1,
      "size": 134,
      "vsize": 134,
      "weight": 536,
      "locktime": 0,
      "vin": [
        {
          "coinbase": "04ffff001d0136",
          "sequence": 4294967295
        }
      ],
      "vout": [
        {
          "value": 50.0,
          "n": 0,
          "scriptPubKey": {
            "asm": "041ee5d2622f46aa13cff2d79d9281107bbeb33d5fa401210e7f5a9da0500f7cccdced8d8e6f98bec5cc226c16bcbdc178f762ad801f31eb19616c328ca26477e7 OP_CHECKSIG",
            "desc": "pk(041ee5d2622f46aa13cff2d79d9281107bbeb33d5fa401210e7f5a9da0500f7cccdced8d8e6f98bec5cc226c16bcbdc178f762ad801f31eb19616c328ca26477e7)#vsnmhuqn",
            "hex": "41041ee5d2622f46aa13cff2d79d9281107bbeb33d5fa401210e7f5a9da0500f7cccdced8d8e6f98bec5cc226c16bcbdc178f762ad801f31eb19616c328ca26477e7ac",
            "type": "pubkey"
          }
        }
      ],
      "hex": "01000000010000000000000000000000000000000000000000000000000000000000000000ffffffff0704ffff001d0136ffffffff0100f2052a010000004341041ee5d2622f46aa13cff2d79d9281107bbeb33d5fa401210e7f5a9da0500f7cccdced8d8e6f98bec5cc226c16bcbdc178f762ad801f31eb19616c328ca26477e7ac00000000"
    }
  ]
}