{
  "hash": "0000000054937164d49eaaf404730c7c35377f2815f917a2ef9a7ef717737ff4",
  "confirmations": 45802,
  "height": 7296,
  "version": 1,
  "versionHex": "00000001",
  "merkleroot": "105547e3c26a2370ffcf9864b670a1a01db09996176c03b9b37078d82818f268",
  "time": 1236946552,
  "mediantime": 1236942562,
  "nonce": 2687675164,
  "bits": "1d00ffff",
  "difficulty": 1,
  "chainwork": "00000000000000000000000000000000000000000000000000001c811c811c81",
  "nTx": 1,
  "previousblockhash": "00000000927db1eace275472e2c24d3ef7975758069dbac93f3e452bff4075f8",
  "nextblockhash": "000000008a16f9001325cea3b64039be951b922e2548499737fc121306bbef83",
  "strippedsize": 216,
  "size": 216,
  "weight": 864,
  "tx": [
    {
      "txid": "105547e3c26a2370ffcf9864b670a1a01db09996176c03b9b37078d82818f268",
      "hash": "105547e3c26a2370ffcf9864b670a1a01db09996176c03b9b37078d82818f268",
      "version": 1,
      "size": 135,
      "vsize": 135,
      "weight": 540,
      "locktime": 0,
      "vin": [
        {
          "coinbase": "04ffff001d027207",
          "sequence": 4294967295
        }
      ],
      "vout": [
        {
          "value": 50.0,
          "n": 0,
          "scriptPubKey": {
            "asm": "0467aa829278adf08c429de6080b71d3ca74c353c04c889f9896e66f7abfcc47afae2c1f2e9abc29564123d3fd0883d2241a2c05428636cddf495e7229dfd4cf5d OP_CHECKSIG",
            "desc": "pk(0467aa829278adf08c429de6080b71d3ca74c353c04c889f9896e66f7abfcc47afae2c1f2e9abc29564123d3fd0883d2241a2c05428636cddf495e7229dfd4cf5d)#8njq5zkj",
            "hex": "410467aa829278adf08c429de6080b71d3ca74c353c04c889f9896e66f7abfcc47afae2c1f2e9abc29564123d3fd0883d2241a2c05428636cddf495e7229dfd4cf5dac",
            "type": "pubkey"
          }
        }
      ],
      "hex": "01000000010000000000000000000000000000000000000000000000000000000000000000ffffffff0804ffff001d027207ffffffff0100f2052a0100000043410467aa829278adf08c429de6080b71d3ca74c353c04c889f9896e66f7abfcc47afae2c1f2e9abc29564123d3fd0883d2241a2c05428636cddf495e7229dfd4cf5dac00000000"
    }
  ]
}