{
  "hash": "00000000ce93cde80c0995a881d0c5520d122089f6d78f7edf5368bc0128114b",
  "confirmations": 51441,
  "height": 1657,
  "version": 1,
  "versionHex": "00000001",
  "merkleroot": "717dcc7eed390aadee685fd794f5bbc858ce73e0fa4c823ccc1519bdc6b12c68",
  "time": 1232836202,
  "mediantime": 1232834181,
  "nonce": 4058377523,
  "bits": "1d00ffff",
  "difficulty": 1,
  "chainwork": "0000000000000000000000000000000000000000000000000000067a067a067a",
  "nTx": 1,
  "previousblockhash": "000000007aa473a866d49bbfd76cf24f9bedfdb02ddf3da031ffe6617fe54054",
  "nextblockhash": "000000002fc2753e869363a1c9194315a2ad995b30760fa81a674bafc71defca",
  "strippedsize": 216,
  "size": 216,
  "weight": 864,
  "tx": [
    {
      "txid": "717dcc7eed390aadee685fd794f5bbc858ce73e0fa4c823ccc1519bdc6b12c68",
      "hash": "717dcc7eed390aadee685fd794f5bbc858ce73e0fa4c823ccc1519bdc6b12c68",
      "version": 1,
      "size": 135,
      "vsize": 135,
      "weight": 540,
      "locktime": 0,
      "vin": [
        {
          "coinbase": "04ffff001d02bb02",
          "sequence": 4294967295
        }
      ],
      "vout": [
        {
          "value": 50.0,
          "n": 0,
          "scriptPubKey": {
            "asm": "04a6e38e4905a082ee028878fd80ff0a01b864d9d266dd415732a60783a41dfe1b8a4649acd96c20eb8ca4a7184e9df5023ea0cfddf06f9e8c797dbffac151490e OP_CHECKSIG",
            "desc": "pk(04a6e38e4905a082ee028878fd80ff0a01b864d9d266dd415732a60783a41dfe1b8a4649acd96c20eb8ca4a7184e9df5023ea0cfddf06f9e8c797dbffac151490e)#zs3pkttw",
            "hex": "4104a6e38e4905a082ee028878fd80ff0a01b864d9d266dd415732a60783a41dfe1b8a4649acd96c20eb8ca4a7184e9df5023ea0cfddf06f9e8c797dbffac151490eac",
            "type": "pubkey"
          }
        }
      ],
      "hex": "01000000010000000000000000000000000000000000000000000000000000000000000000ffffffff0804ffff001d02bb02ffffffff0100f2052a01000000434104a6e38e4905a082ee028878fd80ff0a01b864d9d266dd415732a60783a41dfe1b8a4649acd96c20eb8ca4a7184e9df5023ea0cfddf06f9e8c797dbffac151490eac00000000"
    }
  ]
}