{
  "hash": "0000000017c3df0860aefc8245f8f272ce33aaee4b69e61a475a24862d3fdbc2",
  "confirmations": 44779,
  "height": 8319,
  "version": 1,
  "versionHex": "00000001",
  "merkleroot": "ef3c1c5056ee91edfc3d91ef16eef7dcf6be8fe7622895532e111611b374e170",
  "time": 1237742554,
  "mediantime": 1237738682,
  "nonce": 3845284401,
  "bits": "1d00ffff",
  "difficulty": 1,
  "chainwork": "0000000000000000000000000000000000000000000000000000208020802080",
  "nTx": 1,
  "previousblockhash": "00000000a3246e90188176d7d76b83dc131dcb15857c30ccc29356ed46ca5e2e",
  "nextblockhash": "00000000d96167cac0bbeac6a34b49adf15e22902692945254e8dec6d1d8415c",
  "strippedsize": 216,
  "size": 216,
  "weight": 864,
  "tx": [
    {
      "txid": "ef3c1c5056ee91edfc3d91ef16eef7dcf6be8fe7622895532e111611b374e170",
      "hash": "ef3c1c5056ee91edfc3d91ef16eef7dcf6be8fe7622895532e111611b374e170",
      "version": 1,
      "size": 135,
      "vsize": 135,
      "weight": 540,
      "locktime": 0,
      "vin": [
        {
          "coinbase": "04ffff001d026104",
          "sequence": 4294967295
        }
      ],
      "vout": [
        {
          "value": 50.0,
          "n": 0,
          "scriptPubKey": {
            "asm": "04a0212f7dc4e2470aa645ee2fdf44d9b3d1df80874682b40475560976402a31464236ccb2a434af5a12e129cc0f31a525a23472b6c4581973a282b52cbad99fd7 OP_CHECKSIG",
            "desc": "pk(04a0212f7dc4e2470aa645ee2fdf44d9b3d1df80874682b40475560976402a31464236ccb2a434af5a12e129cc0f31a525a23472b6c4581973a282b52cbad99fd7)#at7ddjy2",
            "hex": "4104a0212f7dc4e2470aa645ee2fdf44d9b3d1df80874682b40475560976402a31464236ccb2a434af5a12e129cc0f31a525a23472b6c4581973a282b52cbad99fd7ac",
            "type": "pubkey"
          }
        }
      ],
      "hex": "01000000010000000000000000000000000000000000000000000000000000000000000000ffffffff0804ffff001d026104ffffffff0100f2052a01000000434104a0212f7dc4e2470aa645ee2fdf44d9b3d1df80874682b40475560976402a31464236ccb2a434af5a12e129cc0f31a525a23472b6c4581973a282b52cbad99fd7ac00000000"
    }
  ]
}