{
  "hash": "00000000f6e8e7975456ff3cdff418d55552c6a99cdbaa54cddd53837f974d7b",
  "confirmations": 52104,
  "height": 994,
  "version": 1,
  "versionHex": "00000001",
  "merkleroot": "57bfccbd63e77f496e6f4b4e04d4e30c9675582752ba127a446c8ee6fd478f7a",
  "time": 1232344489,
  "mediantime": 1232341883,
  "nonce": 78612558,
  "bits": "1d00ffff",
  "difficulty": 1,
  "chainwork": "000000000000000000000000000000000000000000000000000003e303e303e3",
  "nTx": 1,
  "previousblockhash": "00000000347030f090cf9ee7e51d421804362334d1f97905b6b7158d2d3fd737",
  "nextblockhash": "000000000881c1287f3eb22d7cf45356c826ec0d35ecc0a7724b3f7b1817d3f0",
  "strippedsize": 216,
  "size": 216,
  "weight": 864,
  "tx": [
    {
      "txid": "57bfccbd63e77f496e6f4b4e04d4e30c9675582752ba127a446c8ee6fd478f7a",
      "hash": "57bfccbd63e77f496e6f4b4e04d4e30c9675582752ba127a446c8ee6fd478f7a",
      "version": 1,
      "size": 135,
      "vsize": 135,
      "weight": 540,
      "locktime": 0,
      "vin": [
        {
          "coinbase": "04ffff001d02c100",
          "sequence": 4294967295
        }
      ],
      "vout": [
        {
          "value": 50.0,
          "n": 0,
          "scriptPubKey": {
            "asm": "0419e2be09a411b812c0646c0bdcdb03207c64d55dd89f598d6ff934e5d2723f993b870b741aafbff09ae127644468363e380b38621e7028ad509adc83b780f09a OP_CHECKSIG",
            "desc": "pk(0419e2be09a411b812c0646c0bdcdb03207c64d55dd89f598d6ff934e5d2723f993b870b741aafbff09ae127644468363e380b38621e7028ad509adc83b780f09a)#vkrqg7x3",
            "hex": "410419e2be09a411b812c0646c0bdcdb03207c64d55dd89f598d6ff934e5d2723f993b870b741aafbff09ae127644468363e380b38621e7028ad509adc83b780f09aac",
            "type": "pubkey"
          }
        }
      ],
      "hex": "01000000010000000000000000000000000000000000000000000000000000000000000000ffffffff0804ffff001d02c100ffffffff0100f2052a0100000043410419e2be09a411b812c0646c0bdcdb03207c64d55dd89f598d6ff934e5d2723f993b870b741aafbff09ae127644468363e380b38621e7028ad509adc83b780f09aac00000000"
    }
  ]
}