{
  "hash": "0000000074d8bfd85b5c211a7ddc38bb62e84078e1778e90635855a992910d8b",
  "confirmations": 50994,
  "height": 2104,
  "version": 1,
  "versionHex": "00000001",
  "merkleroot": "e4dc50eac4542c3b3d0c39913e73408834fa89ceb3f31f1cc8d2caaa4402511c",
  "time": 1233138968,
  "mediantime": 1233136693,
  "nonce": 9141542,
  "bits": "1d00ffff",
  "difficulty": 1,
  "chainwork": "0000000000000000000000000000000000000000000000000000083908390839",
  "nTx": 1,
  "previousblockhash": "00000000d5c38d3d304e325f7892bc67affc7c1bdbf82db7d6233178afd3edcb",
  "nextblockhash": "00000000266f48b65050bd91fd8584a2e5b3225c64af4b8f2321a24a1d7b62cc",
  "strippedsize": 215,
  "size": 215,
  "weight": 860,
  "tx": [
    {
      "txid": "e4dc50eac4542c3b3d0c39913e73408834fa89ceb3f31f1cc8d2caaa4402511c",
      "hash": "e4dc50eac4542c3b3d0c39913e73408834fa89ceb3f31f1cc8d2caaa4402511c",
      "version": 1,
      "size": 134,
      "vsize": 134,
      "weight": 536,
      "locktime": 0,
      "vin": [
        {
          "coinbase": "04ffff001d0136",
          "sequence": 4294967295
        }
      ],
      "vout": [
        {
          "value": 50.0,
          "n": 0,
          "scriptPubKey": {
            "asm": "04b393a624dd43666697484832a6e6e2f7b4e3c6a7a8c127806d085a3ed270772d54feb568c3478df4125db53667736c6ae9764c8b206b9838e36f687ff7a9205c OP_CHECKSIG",
            "desc": "pk(04b393a624dd43666697484832a6e6e2f7b4e3c6a7a8c127806d085a3ed270772d54feb568c3478df4125db53667736c6ae9764c8b206b9838e36f687ff7a9205c)#zpw56h7q",
            "hex": "4104b393a624dd43666697484832a6e6e2f7b4e3c6a7a8c127806d085a3ed270772d54feb568c3478df4125db53667736c6ae9764c8b206b9838e36f687ff7a9205cac",
            "type": "pubkey"
          }
        }
      ],
      "hex": "01000000010000000000000000000000000000000000000000000000000000000000000000ffffffff0704ffff001d0136ffffffff0100f2052a01000000434104b393a624dd43666697484832a6e6e2f7b4e3c6a7a8c127806d085a3ed270772d54feb568c3478df4125db53667736c6ae9764c8b206b9838e36f687ff7a9205cac00000000"
    }
  ]
}