{
  "hash": "0000000099caf17c7189e97eb6aacb451dfa1c97e0b06052ed6c2921630d16ed",
  "confirmations": 43203,
  "height": 9895,
  "version": 1,
  "versionHex": "00000001",
  "merkleroot": "cfa634989eee3641e9de2c117809d03ec11b5d4a870f07e9da67257857274999",
  "time": 1238920518,
  "mediantime": 1238917710,
  "nonce": 86393382,
  "bits": "1d00ffff",
  "difficulty": 1,
  "chainwork": "000000000000000000000000000000000000000000000000000026a826a826a8",
  "nTx": 1,
  "previousblockhash": "0000000082b71f3338960f989d2c10f14cd737ae56213c59bf9a403bd030bb12",
  "nextblockhash": "000000005ce263b515dab497d964dbbc1afc8effde48cfdbe304cfc9b55918af",
  "strippedsize": 216,
  "size": 216,
  "weight": 864,
  "tx": [
    {
      "txid": "cfa634989eee3641e9de2c117809d03ec11b5d4a870f07e9da67257857274999",
      "hash": "cfa634989eee3641e9de2c117809d03ec11b5d4a870f07e9da67257857274999",
      "version": 1,
      "size": 135,
      "vsize": 135,
      "weight": 540,
      "locktime": 0,
      "vin": [
        {
          "coinbase": "04ffff001d02f801",
          "sequence": 4294967295
        }
      ],
      "vout": [
        {
          "value": 50.0,
          "n": 0,
          "scriptPubKey": {
            "asm": "04b467b714e18d3a9f1c24fb206a6337fbed69e47168be78600d4c6a1a30741964bd57b5ce87bbed267d4cac4d00e77be4fa7f3aa2f2444612ee0525a7b265c986 OP_CHECKSIG",
            "desc": "pk(04b467b714e18d3a9f1c24fb206a6337fbed69e47168be78600d4c6a1a30741964bd57b5ce87bbed267d4cac4d00e77be4fa7f3aa2f2444612ee0525a7b265c986)#mtc26xzu",
            "hex": "4104b467b714e18d3a9f1c24fb206a6337fbed69e47168be78600d4c6a1a30741964bd57b5ce87bbed267d4cac4d00e77be4fa7f3aa2f2444612ee0525a7b265c986ac",
            "type": "pubkey"
          }
        }
      ],
      "hex": "01000000010000000000000000000000000000000000000000000000000000000000000000ffffffff0804ffff001d02f801ffffffff0100f2052a01000000434104b467b714e18d3a9f1c24fb206a6337fbed69e47168be78600d4c6a1a30741964bd57b5ce87bbed267d4cac4d00e77be4fa7f3aa2f2444612ee0525a7b265c986ac00000000"
    }
  ]
}