{
  "hash": "00000000abd8c59bd611214cc5cca8a5c679267e43b09aa664eae1caa611a82f",
  "confirmations": 48140,
  "height": 4958,
  "version": 1,
  "versionHex": "00000001",
  "merkleroot": "284acbcf7c9764cfa3141d699e14c11155e8c64149a22b83ae375eb433746e87",
  "time": 1235111102,
  "mediantime": 1235106306,
  "nonce": 482273844,
  "bits": "1d00ffff",
  "difficulty": 1,
  "chainwork": "0000000000000000000000000000000000000000000000000000135f135f135f",
  "nTx": 1,
  "previousblockhash": "00000000c302d38b8f6e0144bd9fa64dda7a905ce476f6f49647118f0ab436e6",
  "nextblockhash": "000000004333ad8fd7d17357eb7e7f52788573aa4da7f84a88f18a3f3138477a",
  "strippedsize": 216,
  "size": 216,
  "weight": 864,
  "tx": [
    {
      "txid": "284acbcf7c9764cfa3141d699e14c11155e8c64149a22b83ae375eb433746e87",
      "hash": "284acbcf7c9764cfa3141d699e14c11155e8c64149a22b83ae375eb433746e87",
      "version": 1,
      "size": 135,
      "vsize": 135,
      "weight": 540,
      "locktime": 0,
      "vin": [
        {
          "coinbase": "04ffff001d028706",
          "sequence": 4294967295
        }
      ],
      "vout": [
        {
          "value": 50.0,
          "n": 0,
          "scriptPubKey": {
            "asm": "04abb6d02d70939113903f64017f70320d97ead831552ae14e7807ec4fb23581478fd3d48326afb8e4c61a7d4e36db4ea60f965e7cf849a400058325ba2ea2270a OP_CHECKSIG",
            "desc": "pk(04abb6d02d70939113903f64017f70320d97ead831552ae14e7807ec4fb23581478fd3d48326afb8e4c61a7d4e36db4ea60f965e7cf849a400058325ba2ea2270a)#yvmcj8g7",
            "hex": "4104abb6d02d70939113903f64017f70320d97ead831552ae14e7807ec4fb23581478fd3d48326afb8e4c61a7d4e36db4ea60f965e7cf849a400058325ba2ea2270aac",
            "type": "pubkey"
          }
        }
      ],
      "hex": "01000000010000000000000000000000000000000000000000000000000000000000000000ffffffff0804ffff001d028706ffffffff0100f2052a01000000434104abb6d02d70939113903f64017f70320d97ead831552ae14e7807ec4fb23581478fd3d48326afb8e4c61a7d4e36db4ea60f965e7cf849a400058325ba2ea2270aac00000000"
    }
  ]
}