{
  "hash": "00000000dd5f6e368fdc0d79b77c69b5629995363667d711a02643d7a46e4e23",
  "confirmations": 52404,
  "height": 694,
  "version": 1,
  "versionHex": "00000001",
  "merkleroot": "9ab71740a3014a9f0756a6b603fb6f18296e816cf3fd80bc67b9afb0a1e6801b",
  "time": 1232103990,
  "mediantime": 1232099502,
  "nonce": 418268444,
  "bits": "1d00ffff",
  "difficulty": 1,
  "chainwork": "000000000000000000000000000000000000000000000000000002b702b702b7",
  "nTx": 1,
  "previousblockhash": "000000005a81537218894c7ee88ecfefd73344d006bbe5efbf4f18808e97af38",
  "nextblockhash": "000000006815fb54c6c4871d67a80a3f4af24ae4032198b66753170d75cec02c",
  "strippedsize": 216,
  "size": 216,
  "weight": 864,
  "tx": [
    {
      "txid": "9ab71740a3014a9f0756a6b603fb6f18296e816cf3fd80bc67b9afb0a1e6801b",
      "hash": "9ab71740a3014a9f0756a6b603fb6f18296e816cf3fd80bc67b9afb0a1e6801b",
      "version": 1,
      "size": 135,
      "vsize": 135,
      "weight": 540,
      "locktime": 0,
      "vin": [
        {
          "coinbase": "04ffff001d02c500",
          "sequence": 4294967295
        }
      ],
      "vout": [
        {
          "value": 50.0,
          "n": 0,
          "scriptPubKey": {
            "asm": "04d6103fb4819154dcb9af014893bac29e09663106181dca9fff69a26aabbebf094ee7102aab045d12f88eaf6d5c162511efacc7abe4c4bc8599c062ae210e817a OP_CHECKSIG",
            "desc": "pk(04d6103fb4819154dcb9af014893bac29e09663106181dca9fff69a26aabbebf094ee7102aab045d12f88eaf6d5c162511efacc7abe4c4bc8599c062ae210e817a)#klxmjaka",
            "hex": "4104d6103fb4819154dcb9af014893bac29e09663106181dca9fff69a26aabbebf094ee7102aab045d12f88eaf6d5c162511efacc7abe4c4bc8599c062ae210e817aac",
            "type": "pubkey"
          }
        }
      ],
      "hex": "01000000010000000000000000000000000000000000000000000000000000000000000000ffffffff0804ffff001d02c500ffffffff0100f2052a01000000434104d6103fb4819154dcb9af014893bac29e09663106181dca9fff69a26aabbebf094ee7102aab045d12f88eaf6d5c162511efacc7abe4c4bc8599c062ae210e817aac00000000"
    }
  ]
}