{
  "hash": "00000000f5e97f5c8b8046930c5efdf7f85e9571eca087508c739ac196974846",
  "confirmations": 44710,
  "height": 8388,
  "version": 1,
  "versionHex": "00000001",
  "merkleroot": "9afc5630b1642459d9b005ba2a7c3444ae50dc4d5c2cb8472acbe9d950c59eb3",
  "time": 1237793192,
  "mediantime": 1237789101,
  "nonce": 3486269491,
  "bits": "1d00ffff",
  "difficulty": 1,
  "chainwork": "000000000000000000000000000000000000000000000000000020c520c520c5",
  "nTx": 1,
  "previousblockhash": "000000000c31c5502da4986ba32ad1958064a92f53b2b02d27f3d262e22e64d9",
  "nextblockhash": "000000000b7fe20effc94e06db34159535d06e689b3c388642e5381579450388",
  "strippedsize": 216,
  "size": 216,
  "weight": 864,
  "tx": [
    {
      "txid": "9afc5630b1642459d9b005ba2a7c3444ae50dc4d5c2cb8472acbe9d950c59eb3",
      "hash": "9afc5630b1642459d9b005ba2a7c3444ae50dc4d5c2cb8472acbe9d950c59eb3",
      "version": 1,
      "size": 135,
      "vsize": 135,
      "weight": 540,
      "locktime": 0,
      "vin": [
        {
          "coinbase": "04ffff001d02c905",
          "sequence": 4294967295
        }
      ],
      "vout": [
        {
          "value": 50.0,
          "n": 0,
          "scriptPubKey": {
            "asm": "04000b1c8a00b4543af5c6121411796e2f02d7d09a57341d85544a06e0c2311b62f2bb2f4279f4ab8ee3d6e1b98d3905ff2808a5f9d05429ff2e4d1f7edae95dda OP_CHECKSIG",
            "desc": "pk(04000b1c8a00b4543af5c6121411796e2f02d7d09a57341d85544a06e0c2311b62f2bb2f4279f4ab8ee3d6e1b98d3905ff2808a5f9d05429ff2e4d1f7edae95dda)#h9e3qf9m",
            "hex": "4104000b1c8a00b4543af5c6121411796e2f02d7d09a57341d85544a06e0c2311b62f2bb2f4279f4ab8ee3d6e1b98d3905ff2808a5f9d05429ff2e4d1f7edae95ddaac",
            "type": "pubkey"
          }
        }
      ],
      "hex": "01000000010000000000000000000000000000000000000000000000000000000000000000ffffffff0804ffff001d02c905ffffffff0100f2052a01000000434104000b1c8a00b4543af5c6121411796e2f02d7d09a57341d85544a06e0c2311b62f2bb2f4279f4ab8ee3d6e1b98d3905ff2808a5f9d05429ff2e4d1f7edae95ddaac00000000"
    }
  ]
}