{
  "hash": "00000000423ff2bd1a5bce685406e1d166305f17040cb3123c1f52c93f6c1605",
  "confirmations": 47497,
  "height": 5601,
  "version": 1,
  "versionHex": "00000001",
  "merkleroot": "af3574c8dd9b8a0ae234680d20bc59798768570b111b6983af0dc24439767408",
  "time": 1235604860,
  "mediantime": 1235599001,
  "nonce": 2966647579,
  "bits": "1d00ffff",
  "difficulty": 1,
  "chainwork": "000000000000000000000000000000000000000000000000000015e215e215e2",
  "nTx": 1,
  "previousblockhash": "0000000089c7926f6bbbcff90daac70c8817a40e6df58abea652dbb6f4feeee0",
  "nextblockhash": "0000000026c4976eb7c9aca41d68da02bba7201a2c33510fcc9f73272a72b028",
  "strippedsize": 216,
  "size": 216,
  "weight": 864,
  "tx": [
    {
      "txid": "af3574c8dd9b8a0ae234680d20bc59798768570b111b6983af0dc24439767408",
      "hash": "af3574c8dd9b8a0ae234680d20bc59798768570b111b6983af0dc24439767408",
      "version": 1,
      "size": 135,
      "vsize": 135,
      "weight": 540,
      "locktime": 0,
      "vin": [
        {
          "coinbase": "04ffff001d02ad07",
          "sequence": 4294967295
        }
      ],
      "vout": [
        {
          "value": 50.0,
          "n": 0,
          "scriptPubKey": {
            "asm": "0448e2fdc9fecfe7b17d5c57cb6965313471f46da2c7084e42d621f4fe86d92027abd64a9c6d2d6a3099688a3725ae79dee2d5c771ad9726a50a21f65b3e7392a7 OP_CHECKSIG",
            "desc": "pk(0448e2fdc9fecfe7b17d5c57cb6965313471f46da2c7084e42d621f4fe86d92027abd64a9c6d2d6a3099688a3725ae79dee2d5c771ad9726a50a21f65b3e7392a7)#r8ad5qn2",
            "hex": "410448e2fdc9fecfe7b17d5c57cb6965313471f46da2c7084e42d621f4fe86d92027abd64a9c6d2d6a3099688a3725ae79dee2d5c771ad9726a50a21f65b3e7392a7ac",
            "type": "pubkey"
          }
        }
      ],
      "hex": "01000000010000000000000000000000000000000000000000000000000000000000000000ffffffff0804ffff001d02ad07ffffffff0100f2052a0100000043410448e2fdc9fecfe7b17d5c57cb6965313471f46da2c7084e42d621f4fe86d92027abd64a9c6d2d6a3099688a3725ae79dee2d5c771ad9726a50a21f65b3e7392a7ac00000000"
    }
  ]
}