{
  "hash": "000000003ad30fb5fc04cc7d26be67dca4a51ad5100501a9f14f831294cebddc",
  "confirmations": 47133,
  "height": 5965,
  "version": 1,
  "versionHex": "00000001",
  "merkleroot": "88b0fd6f2bd4d7d0032364a6b671bb87d1ad6ad3c52ba9c9709b1295ff199eb9",
  "time": 1235900722,
  "mediantime": 1235897200,
  "nonce": 3272385814,
  "bits": "1d00ffff",
  "difficulty": 1,
  "chainwork": "0000000000000000000000000000000000000000000000000000174e174e174e",
  "nTx": 1,
  "previousblockhash": "0000000089be5fa6d7834ec3560612fdb66ad1553d0971858d6ead8985ab88b6",
  "nextblockhash": "00000000e422ed7d6d9395c762736f7a7d22467812a5f7fbe1c32e23437aefda",
  "strippedsize": 216,
  "size": 216,
  "weight": 864,
  "tx": [
    {
      "txid": "88b0fd6f2bd4d7d0032364a6b671bb87d1ad6ad3c52ba9c9709b1295ff199eb9",
      "hash": "88b0fd6f2bd4d7d0032364a6b671bb87d1ad6ad3c52ba9c9709b1295ff199eb9",
      "version": 1,
      "size": 135,
      "vsize": 135,
      "weight": 540,
      "locktime": 0,
      "vin": [
        {
          "coinbase": "04ffff001d024504",
          "sequence": 4294967295
        }
      ],
      "vout": [
        {
          "value": 50.0,
          "n": 0,
          "scriptPubKey": {
            "asm": "04ee16f2294c0c586acddd9da07c33bd76fb5c46f56d3325a13bbbf6a5968feca447775a2f2c12ee7c6f4129c52a64b1ce51f6d0f814f51ec2d6223902ce4888b2 OP_CHECKSIG",
            "desc": "pk(04ee16f2294c0c586acddd9da07c33bd76fb5c46f56d3325a13bbbf6a5968feca447775a2f2c12ee7c6f4129c52a64b1ce51f6d0f814f51ec2d6223902ce4888b2)#r9l50sy8",
            "hex": "4104ee16f2294c0c586acddd9da07c33bd76fb5c46f56d3325a13bbbf6a5968feca447775a2f2c12ee7c6f4129c52a64b1ce51f6d0f814f51ec2d6223902ce4888b2ac",
            "type": "pubkey"
          }
        }
      ],
      "hex": "01000000010000000000000000000000000000000000000000000000000000000000000000ffffffff0804ffff001d024504ffffffff0100f2052a01000000434104ee16f2294c0c586acddd9da07c33bd76fb5c46f56d3325a13bbbf6a5968feca447775a2f2c12ee7c6f4129c52a64b1ce51f6d0f814f51ec2d6223902ce4888b2ac00000000"
    }
  ]
}