{
  "hash": "00000000a832413162c986edb5745f156fa4eb5741b0e6a919342072e2b1e3b3",
  "confirmations": 44112,
  "height": 8986,
  "version": 1,
  "versionHex": "00000001",
  "merkleroot": "28d6f95673dde2981ba6db1483f7888fd099954f8ad306c0088a9a3ba4f09a24",
  "time": 1238242613,
  "mediantime": 1238239339,
  "nonce": 2244753697,
  "bits": "1d00ffff",
  "difficulty": 1,
  "chainwork": "0000000000000000000000000000000000000000000000000000231b231b231b",
  "nTx": 1,
  "previousblockhash": "00000000730d3d553d61fafe4d8afad3ad963580ad4955e10fa09d57b12142a1",
  "nextblockhash": "00000000331cee5d93850f982ca4ff67cf7032a280e23924114015c485de9466",
  "strippedsize": 216,
  "size": 216,
  "weight": 864,
  "tx": [
    {
      "txid": "28d6f95673dde2981ba6db1483f7888fd099954f8ad306c0088a9a3ba4f09a24",
      "hash": "28d6f95673dde2981ba6db1483f7888fd099954f8ad306c0088a9a3ba4f09a24",
      "version": 1,
      "size": 135,
      "vsize": 135,
      "weight": 540,
      "locktime": 0,
      "vin": [
        {
          "coinbase": "04ffff001d022c06",
          "sequence": 4294967295
        }
      ],
      "vout": [
        {
          "value": 50.0,
          "n": 0,
          "scriptPubKey": {
            "asm": "04b92bfd7b9f9f1aad827f3e513f3bb81f6ec91d81a21be0e7eb9e137a192408fe8e4ca0536230fcd1d619e76e6ca9d24323a44f7a832ccf4fb8eb2950152c2614 OP_CHECKSIG",
            "desc": "pk(04b92bfd7b9f9f1aad827f3e513f3bb81f6ec91d81a21be0e7eb9e137a192408fe8e4ca0536230fcd1d619e76e6ca9d24323a44f7a832ccf4fb8eb2950152c2614)#uatpl9qt",
            "hex": "4104b92bfd7b9f9f1aad827f3e513f3bb81f6ec91d81a21be0e7eb9e137a192408fe8e4ca0536230fcd1d619e76e6ca9d24323a44f7a832ccf4fb8eb2950152c2614ac",
            "type": "pubkey"
          }
        }
      ],
      "hex": "01000000010000000000000000000000000000000000000000000000000000000000000000ffffffff0804ffff001d022c06ffffffff0100f2052a01000000434104b92bfd7b9f9f1aad827f3e513f3bb81f6ec91d81a21be0e7eb9e137a192408fe8e4ca0536230fcd1d619e76e6ca9d24323a44f7a832ccf4fb8eb2950152c2614ac00000000"
    }
  ]
}