{
  "hash": "00000000196f013b289d476b5fff7442c0ea5f9084658402fa676931ec48de47",
  "confirmations": 48655,
  "height": 4443,
  "version": 1,
  "versionHex": "00000001",
  "merkleroot": "ba27c24f5009c27ffabd3ffcc36fb0728200fc38b241c75f10eaa438ef735c84",
  "time": 1234740304,
  "mediantime": 1234739229,
  "nonce": 56464414,
  "bits": "1d00ffff",
  "difficulty": 1,
  "chainwork": "0000000000000000000000000000000000000000000000000000115c115c115c",
  "nTx": 1,
  "previousblockhash": "00000000e462c08cccd3698e2129f08e33e13540ce79ca8a5ab9d215c98fb661",
  "nextblockhash": "00000000924b0bb46e45576c1761f768da718a0db88610472a58ccab56d881c5",
  "strippedsize": 215,
  "size": 215,
  "weight": 860,
  "tx": [
    {
      "txid": "ba27c24f5009c27ffabd3ffcc36fb0728200fc38b241c75f10eaa438ef735c84",
      "hash": "ba27c24f5009c27ffabd3ffcc36fb0728200fc38b241c75f10eaa438ef735c84",
      "version": 1,
      "size": 134,
      "vsize": 134,
      "weight": 536,
      "locktime": 0,
      "vin": [
        {
          "coinbase": "04ffff001d0127",
          "sequence": 4294967295
        }
      ],
      "vout": [
        {
          "value": 50.0,
          "n": 0,
          "scriptPubKey": {
            "asm": "0485d604f75ef63873f1f9d6546827f54d64c69f833a93b588c303fa1ea7c11af30f2f3d5600fbba6594200794972cba590c8e60b9707546507a6bc3083bdcbd71 OP_CHECKSIG",
            "desc": "pk(0485d604f75ef63873f1f9d6546827f54d64c69f833a93b588c303fa1ea7c11af30f2f3d5600fbba6594200794972cba590c8e60b9707546507a6bc3083bdcbd71)#dzak9590",
            "hex": "410485d604f75ef63873f1f9d6546827f54d64c69f833a93b588c303fa1ea7c11af30f2f3d5600fbba6594200794972cba590c8e60b9707546507a6bc3083bdcbd71ac",
            "type": "pubkey"
          }
        }
      ],
      "hex": "01000000010000000000000000000000000000000000000000000000000000000000000000ffffffff0704ffff001d0127ffffffff0100f2052a0100000043410485d604f75ef63873f1f9d6546827f54d64c69f833a93b588c303fa1ea7c11af30f2f3d5600fbba6594200794972cba590c8e60b9707546507a6bc3083bdcbd71ac00000000"
    }
  ]
}