{
  "hash": "00000000d7d7febdb0a8296d74a691660cbd21f4f14be0eebda4c3f91dc88ccd",
  "confirmations": 46496,
  "height": 6602,
  "version": 1,
  "versionHex": "00000001",
  "merkleroot": "2edd036ce6b7c032f3d888af882de99f148289dea25659f605a012c572be7a42",
  "time": 1236407266,
  "mediantime": 1236403127,
  "nonce": 1226822955,
  "bits": "1d00ffff",
  "difficulty": 1,
  "chainwork": "000000000000000000000000000000000000000000000000000019cb19cb19cb",
  "nTx": 1,
  "previousblockhash": "0000000030d8559b2a6a5e5191bd206ccca9278bf37faf042f61da3e4cf660c9",
  "nextblockhash": "00000000162cbdafac48666609b3d5e21989497bda594c167e0a07ad569bb154",
  "strippedsize": 216,
  "size": 216,
  "weight": 864,
  "tx": [
    {
      "txid": "2edd036ce6b7c032f3d888af882de99f148289dea25659f605a012c572be7a42",
      "hash": "2edd036ce6b7c032f3d888af882de99f148289dea25659f605a012c572be7a42",
      "version": 1,
      "size": 135,
      "vsize": 135,
      "weight": 540,
      "locktime": 0,
      "vin": [
        {
          "coinbase": "04ffff001d022605",
          "sequence": 4294967295
        }
      ],
      "vout": [
        {
          "value": 50.0,
          "n": 0,
          "scriptPubKey": {
            "asm": "048e88b3e76c500d1de16a898bfc82fa1dc04cb67ae597ea6aec661bf47c86fc4201ead66af88dcce9fadd71295fbb37460a243ab26474045998a0ef9c43c74cd2 OP_CHECKSIG",
            "desc": "pk(048e88b3e76c500d1de16a898bfc82fa1dc04cb67ae597ea6aec661bf47c86fc4201ead66af88dcce9fadd71295fbb37460a243ab26474045998a0ef9c43c74cd2)#pw6tfwpc",
            "hex": "41048e88b3e76c500d1de16a898bfc82fa1dc04cb67ae597ea6aec661bf47c86fc4201ead66af88dcce9fadd71295fbb37460a243ab26474045998a0ef9c43c74cd2ac",
            "type": "pubkey"
          }
        }
      ],
      "hex": "01000000010000000000000000000000000000000000000000000000000000000000000000ffffffff0804ffff001d022605ffffffff0100f2052a010000004341048e88b3e76c500d1de16a898bfc82fa1dc04cb67ae597ea6aec661bf47c86fc4201ead66af88dcce9fadd71295fbb37460a243ab26474045998a0ef9c43c74cd2ac00000000"
    }
  ]
}