{
  "hash": "00000000b7fad65ac1dcbcfae581af39d329f9d5e0d45ae221db87fadd01776f",
  "confirmations": 47563,
  "height": 5535,
  "version": 1,
  "versionHex": "00000001",
  "merkleroot": "2e719694470dd913433ab7f1573f4c4ca0b74b623f092eb8e11626d4b53260c8",
  "time": 1235548599,
  "mediantime": 1235544821,
  "nonce": 2618403328,
  "bits": "1d00ffff",
  "difficulty": 1,
  "chainwork": "000000000000000000000000000000000000000000000000000015a015a015a0",
  "nTx": 1,
  "previousblockhash": "000000001c62d16f6f854444bd1e4cb28243a9dd8760e9a29a5adeee001bc6c6",
  "nextblockhash": "00000000baa5e5244596c280cc198968a08000ab1147156d9d12499857404542",
  "strippedsize": 216,
  "size": 216,
  "weight": 864,
  "tx": [
    {
      "txid": "2e719694470dd913433ab7f1573f4c4ca0b74b623f092eb8e11626d4b53260c8",
      "hash": "2e719694470dd913433ab7f1573f4c4ca0b74b623f092eb8e11626d4b53260c8",
      "version": 1,
      "size": 135,
      "vsize": 135,
      "weight": 540,
      "locktime": 0,
      "vin": [
        {
          "coinbase": "04ffff001d024f06",
          "sequence": 4294967295
        }
      ],
      "vout": [
        {
          "value": 50.0,
          "n": 0,
          "scriptPubKey": {
            "asm": "040bbc98e04ddbbaf4b852129a5e1c8dcf1fb7d2efbf3df17362fcc93e7338036ce1cbd818a9dfc40fd0546287252d899ca594a6106abb100d74a1a0a07552f634 OP_CHECKSIG",
            "desc": "pk(040bbc98e04ddbbaf4b852129a5e1c8dcf1fb7d2efbf3df17362fcc93e7338036ce1cbd818a9dfc40fd0546287252d899ca594a6106abb100d74a1a0a07552f634)#qy68y89a",
            "hex": "41040bbc98e04ddbbaf4b852129a5e1c8dcf1fb7d2efbf3df17362fcc93e7338036ce1cbd818a9dfc40fd0546287252d899ca594a6106abb100d74a1a0a07552f634ac",
            "type": "pubkey"
          }
        }
      ],
      "hex": "01000000010000000000000000000000000000000000000000000000000000000000000000ffffffff0804ffff001d024f06ffffffff0100f2052a010000004341040bbc98e04ddbbaf4b852129a5e1c8dcf1fb7d2efbf3df17362fcc93e7338036ce1cbd818a9dfc40fd0546287252d899ca594a6106abb100d74a1a0a07552f634ac00000000"
    }
  ]
}