{
  "hash": "0000000002486c11d719888893ada10ad32cd618056d7ca7db047d95fe7733de",
  "confirmations": 52382,
  "height": 716,
  "version": 1,
  "versionHex": "00000001",
  "merkleroot": "eaa82ef14c58bb5909350df6926ad9a23c5f59f75226670831412115d083412c",
  "time": 1232122161,
  "mediantime": 1232118179,
  "nonce": 3579643673,
  "bits": "1d00ffff",
  "difficulty": 1,
  "chainwork": "000000000000000000000000000000000000000000000000000002cd02cd02cd",
  "nTx": 1,
  "previousblockhash": "00000000c99ff7745c9a2d493a4cb10be61ca52f86ef6a0e805664cdbd68c7d6",
  "nextblockhash": "00000000cf9274eb4bc9d220d00c348a3955b3f6ab76e423bca412c7bfd288f1",
  "strippedsize": 215,
  "size": 215,
  "weight": 860,
  "tx": [
    {
      "txid": "eaa82ef14c58bb5909350df6926ad9a23c5f59f75226670831412115d083412c",
      "hash": "eaa82ef14c58bb5909350df6926ad9a23c5f59f75226670831412115d083412c",
      "version": 1,
      "size": 134,
      "vsize": 134,
      "weight": 536,
      "locktime": 0,
      "vin": [
        {
          "coinbase": "04ffff001d010c",
          "sequence": 4294967295
        }
      ],
      "vout": [
        {
          "value": 50.0,
          "n": 0,
          "scriptPubKey": {
            "asm": "0491515a83289a7d2133d3b74f0a34d5fb3ba7bdeb4a42f73b90e54fd12bca725956513a5641fbd155f094ddfcece5076563aa72fa447d4c525912338d0cc57a38 OP_CHECKSIG",
            "desc": "pk(0491515a83289a7d2133d3b74f0a34d5fb3ba7bdeb4a42f73b90e54fd12bca725956513a5641fbd155f094ddfcece5076563aa72fa447d4c525912338d0cc57a38)#sxgm72mz",
            "hex": "410491515a83289a7d2133d3b74f0a34d5fb3ba7bdeb4a42f73b90e54fd12bca725956513a5641fbd155f094ddfcece5076563aa72fa447d4c525912338d0cc57a38ac",
            "type": "pubkey"
          }
        }
      ],
      "hex": "01000000010000000000000000000000000000000000000000000000000000000000000000ffffffff0704ffff001d010cffffffff0100f2052a0100000043410491515a83289a7d2133d3b74f0a34d5fb3ba7bdeb4a42f73b90e54fd12bca725956513a5641fbd155f094ddfcece5076563aa72fa447d4c525912338d0cc57a38ac00000000"
    }
  ]
}