{
  "hash": "00000000d64b54ba52dfa38a5bc37e0f5a709f04a92b776f3ef2e2c5152c2cde",
  "confirmations": 50943,
  "height": 2155,
  "version": 1,
  "versionHex": "00000001",
  "merkleroot": "6f8cbccd5fcd65e7781fbc158e64e6a48f455ae5ffe6921b6ac142474016242e",
  "time": 1233178111,
  "mediantime": 1233175845,
  "nonce": 2657259311,
  "bits": "1d00ffff",
  "difficulty": 1,
  "chainwork": "0000000000000000000000000000000000000000000000000000086c086c086c",
  "nTx": 1,
  "previousblockhash": "00000000eb14ba643a4fc85369eb4b0e08dfa632d4789d9974e231b2df5ed4a0",
  "nextblockhash": "0000000062975abcff6404d02ad9b418f959a52cf8670d1286f8cfa54f7515a7",
  "strippedsize": 216,
  "size": 216,
  "weight": 864,
  "tx": [
    {
      "txid": "6f8cbccd5fcd65e7781fbc158e64e6a48f455ae5ffe6921b6ac142474016242e",
      "hash": "6f8cbccd5fcd65e7781fbc158e64e6a48f455ae5ffe6921b6ac142474016242e",
      "version": 1,
      "size": 135,
      "vsize": 135,
      "weight": 540,
      "locktime": 0,
      "vin": [
        {
          "coinbase": "04ffff001d028a00",
          "sequence": 4294967295
        }
      ],
      "vout": [
        {
          "value": 50.0,
          "n": 0,
          "scriptPubKey": {
            "asm": "04a753a96cd67a816387cecc609605a64cd9f36d93a39c74443e7c786c728d371f6b11d9926a3565a41eecc0365b6dac76c97197c4de24ef1d3005e95e9242e543 OP_CHECKSIG",
            "desc": "pk(04a753a96cd67a816387cecc609605a64cd9f36d93a39c74443e7c786c728d371f6b11d9926a3565a41eecc0365b6dac76c97197c4de24ef1d3005e95e9242e543)#tjcrlp50",
            "hex": "4104a753a96cd67a816387cecc609605a64cd9f36d93a39c74443e7c786c728d371f6b11d9926a3565a41eecc0365b6dac76c97197c4de24ef1d3005e95e9242e543ac",
            "type": "pubkey"
          }
        }
      ],
      "hex": "01000000010000000000000000000000000000000000000000000000000000000000000000ffffffff0804ffff001d028a00ffffffff0100f2052a01000000434104a753a96cd67a816387cecc609605a64cd9f36d93a39c74443e7c786c728d371f6b11d9926a3565a41eecc0365b6dac76c97197c4de24ef1d3005e95e9242e543ac00000000"
    }
  ]
}