{
  "hash": "00000000714040eab6eca36be421e51514f98b8759cd30a60b9565f875ca1b82",
  "confirmations": 51116,
  "height": 1982,
  "version": 1,
  "versionHex": "00000001",
  "merkleroot": "38949117219ce8e468dfd77485edd7ed0bef99e380ec72f890edfc019e6b6529",
  "time": 1233030995,
  "mediantime": 1233028543,
  "nonce": 2069477656,
  "bits": "1d00ffff",
  "difficulty": 1,
  "chainwork": "000000000000000000000000000000000000000000000000000007bf07bf07bf",
  "nTx": 1,
  "previousblockhash": "000000004dec691ab72b197449efed660210c7bd2d17ffe3db263c3fea2da653",
  "nextblockhash": "00000000f13dc76883b73f677d3a63b85f75f580e404a390da41db64885d8ca2",
  "strippedsize": 216,
  "size": 216,
  "weight": 864,
  "tx": [
    {
      "txid": "38949117219ce8e468dfd77485edd7ed0bef99e380ec72f890edfc019e6b6529",
      "hash": "38949117219ce8e468dfd77485edd7ed0bef99e380ec72f890edfc019e6b6529",
      "version": 1,
      "size": 135,
      "vsize": 135,
      "weight": 540,
      "locktime": 0,
      "vin": [
        {
          "coinbase": "04ffff001d023201",
          "sequence": 4294967295
        }
      ],
      "vout": [
        {
          "value": 50.0,
          "n": 0,
          "scriptPubKey": {
            "asm": "04170cf741aed295478c857d1e47d311cd13d9cfb37140cd80a1af6bb87c6d2e78e697d314503543f39cb1a6e87f525679dde74797378ec76c2a79e3765c0bbb18 OP_CHECKSIG",
            "desc": "pk(04170cf741aed295478c857d1e47d311cd13d9cfb37140cd80a1af6bb87c6d2e78e697d314503543f39cb1a6e87f525679dde74797378ec76c2a79e3765c0bbb18)#yx9x6eee",
            "hex": "4104170cf741aed295478c857d1e47d311cd13d9cfb37140cd80a1af6bb87c6d2e78e697d314503543f39cb1a6e87f525679dde74797378ec76c2a79e3765c0bbb18ac",
            "type": "pubkey"
          }
        }
      ],
      "hex": "01000000010000000000000000000000000000000000000000000000000000000000000000ffffffff0804ffff001d023201ffffffff0100f2052a01000000434104170cf741aed295478c857d1e47d311cd13d9cfb37140cd80a1af6bb87c6d2e78e697d314503543f39cb1a6e87f525679dde74797378ec76c2a79e3765c0bbb18ac00000000"
    }
  ]
}