{
  "hash": "0000000069dec34efdc135dcc1f9423f988cc98274fe5be00bae76e2443d5337",
  "confirmations": 46271,
  "height": 6827,
  "version": 1,
  "versionHex": "00000001",
  "merkleroot": "0cbc87b371f8b1a2bc63fc3e826255ff1414c1d8ddbfca4bc15b003eb4416b80",
  "time": 1236577991,
  "mediantime": 1236572868,
  "nonce": 617909297,
  "bits": "1d00ffff",
  "difficulty": 1,
  "chainwork": "00000000000000000000000000000000000000000000000000001aac1aac1aac",
  "nTx": 1,
  "previousblockhash": "000000008a953cf3f66ff03264ffeaf748ded859fbea8ffe3892e8195c5b53cc",
  "nextblockhash": "00000000398d96b2a00b99c6205f3f0e8c1a902405eac26ef11ba2436a8ceb65",
  "strippedsize": 216,
  "size": 216,
  "weight": 864,
  "tx": [
    {
      "txid": "0cbc87b371f8b1a2bc63fc3e826255ff1414c1d8ddbfca4bc15b003eb4416b80",
      "hash": "0cbc87b371f8b1a2bc63fc3e826255ff1414c1d8ddbfca4bc15b003eb4416b80",
      "version": 1,
      "size": 135,
      "vsize": 135,
      "weight": 540,
      "locktime": 0,
      "vin": [
        {
          "coinbase": "04ffff001d026309",
          "sequence": 4294967295
        }
      ],
      "vout": [
        {
          "value": 50.0,
          "n": 0,
          "scriptPubKey": {
            "asm": "046984a386e2137312e721c1781f2fc305ef508c18ad74be7f51a721c847146569aeeee0889a1876aea124f4603a6498b4a6f8be5458e4b7abaf42b8a67a3811bf OP_CHECKSIG",
            "desc": "pk(046984a386e2137312e721c1781f2fc305ef508c18ad74be7f51a721c847146569aeeee0889a1876aea124f4603a6498b4a6f8be5458e4b7abaf42b8a67a3811bf)#chtrejew",
            "hex": "41046984a386e2137312e721c1781f2fc305ef508c18ad74be7f51a721c847146569aeeee0889a1876aea124f4603a6498b4a6f8be5458e4b7abaf42b8a67a3811bfac",
            "type": "pubkey"
          }
        }
      ],
      "hex": "01000000010000000000000000000000000000000000000000000000000000000000000000ffffffff0804ffff001d026309ffffffff0100f2052a010000004341046984a386e2137312e721c1781f2fc305ef508c18ad74be7f51a721c847146569aeeee0889a1876aea124f4603a6498b4a6f8be5458e4b7abaf42b8a67a3811bfac00000000"
    }
  ]
}