{
  "hash": "00000000b500f7da9dca49efd8d9f51be493cc5c7a9762317996c5f2f286d237",
  "confirmations": 48983,
  "height": 4115,
  "version": 1,
  "versionHex": "00000001",
  "merkleroot": "944a6f32e7bb6ccf00bd6e0c8d6acd8c88e064ed219aebc9fa1a07cce32101a6",
  "time": 1234523551,
  "mediantime": 1234520622,
  "nonce": 34087127,
  "bits": "1d00ffff",
  "difficulty": 1,
  "chainwork": "0000000000000000000000000000000000000000000000000000101410141014",
  "nTx": 1,
  "previousblockhash": "00000000b3b2cf9c17d1b1ecc6fd6e3d3ee4561f849ec0edfd12edab5bba9341",
  "nextblockhash": "00000000d6ce21eb90fbe6d913ca4446a20b68244fcb9ad60b6e488b30a3088d",
  "strippedsize": 216,
  "size": 216,
  "weight": 864,
  "tx": [
    {
      "txid": "944a6f32e7bb6ccf00bd6e0c8d6acd8c88e064ed219aebc9fa1a07cce32101a6",
      "hash": "944a6f32e7bb6ccf00bd6e0c8d6acd8c88e064ed219aebc9fa1a07cce32101a6",
      "version": 1,
      "size": 135,
      "vsize": 135,
      "weight": 540,
      "locktime": 0,
      "vin": [
        {
          "coinbase": "04ffff001d024a02",
          "sequence": 4294967295
        }
      ],
      "vout": [
        {
          "value": 50.0,
          "n": 0,
          "scriptPubKey": {
            "asm": "04329abfb978fa7a1665ad029725b71906d6d8f706541cbf37c19980a92584e3bc91af34156953d5a45e40e77c48e1e45f581db34669a2f695bdfa757ecf075e1a OP_CHECKSIG",
            "desc": "pk(04329abfb978fa7a1665ad029725b71906d6d8f706541cbf37c19980a92584e3bc91af34156953d5a45e40e77c48e1e45f581db34669a2f695bdfa757ecf075e1a)#pyeem8kl",
            "hex": "4104329abfb978fa7a1665ad029725b71906d6d8f706541cbf37c19980a92584e3bc91af34156953d5a45e40e77c48e1e45f581db34669a2f695bdfa757ecf075e1aac",
            "type": "pubkey"
          }
        }
      ],
      "hex": "01000000010000000000000000000000000000000000000000000000000000000000000000ffffffff0804ffff001d024a02ffffffff0100f2052a01000000434104329abfb978fa7a1665ad029725b71906d6d8f706541cbf37c19980a92584e3bc91af34156953d5a45e40e77c48e1e45f581db34669a2f695bdfa757ecf075e1aac00000000"
    }
  ]
}