{
  "hash": "00000000379d51e5d7d42d63830cec26e61b18261f10943c5447bfa92b596e5a",
  "confirmations": 51790,
  "height": 1308,
  "version": 1,
  "versionHex": "00000001",
  "merkleroot": "6fe5e2105e592ca8a27e54f742d856a7eabd2b25ca79b6028cadad82ebea9db1",
  "time": 1232601901,
  "mediantime": 1232596362,
  "nonce": 3515598375,
  "bits": "1d00ffff",
  "difficulty": 1,
  "chainwork": "0000000000000000000000000000000000000000000000000000051d051d051d",
  "nTx": 1,
  "previousblockhash": "00000000f74ecc436b0bc320697f99ce120f604bf91eeef3f0e3500b034d9235",
  "nextblockhash": "00000000281a804ca083851928c377764120ebb9d9a0d6f7058b5018486b4ce7",
  "strippedsize": 215,
  "size": 215,
  "weight": 860,
  "tx": [
    {
      "txid": "6fe5e2105e592ca8a27e54f742d856a7eabd2b25ca79b6028cadad82ebea9db1",
      "hash": "6fe5e2105e592ca8a27e54f742d856a7eabd2b25ca79b6028cadad82ebea9db1",
      "version": 1,
      "size": 134,
      "vsize": 134,
      "weight": 536,
      "locktime": 0,
      "vin": [
        {
          "coinbase": "04ffff001d014a",
          "sequence": 4294967295
        }
      ],
      "vout": [
        {
          "value": 50.0,
          "n": 0,
          "scriptPubKey": {
            "asm": "04b504b00ebfad0ae682f824f066df78b8e42a135eb1e75e0e52dbf72d655b0a08482491269b822bcc890fc1f6860315c621e98cb2c6be8db37f268843ad6b5068 OP_CHECKSIG",
            "desc": "pk(04b504b00ebfad0ae682f824f066df78b8e42a135eb1e75e0e52dbf72d655b0a08482491269b822bcc890fc1f6860315c621e98cb2c6be8db37f268843ad6b5068)#pcwhnz52",
            "hex": "4104b504b00ebfad0ae682f824f066df78b8e42a135eb1e75e0e52dbf72d655b0a08482491269b822bcc890fc1f6860315c621e98cb2c6be8db37f268843ad6b5068ac",
            "type": "pubkey"
          }
        }
      ],
      "hex": "01000000010000000000000000000000000000000000000000000000000000000000000000ffffffff0704ffff001d014affffffff0100f2052a01000000434104b504b00ebfad0ae682f824f066df78b8e42a135eb1e75e0e52dbf72d655b0a08482491269b822bcc890fc1f6860315c621e98cb2c6be8db37f268843ad6b5068ac00000000"
    }
  ]
}