{
  "hash": "000000002c868f123dc8b3b490665dd6f519a23b651b5c50d84f1279b64a44f0",
  "confirmations": 51940,
  "height": 1158,
  "version": 1,
  "versionHex": "00000001",
  "merkleroot": "7a90064a350a43da88abdc1be996e2dca994546b45a42ece1d0b78fd8944387a",
  "time": 1232466915,
  "mediantime": 1232462603,
  "nonce": 3242991667,
  "bits": "1d00ffff",
  "difficulty": 1,
  "chainwork": "0000000000000000000000000000000000000000000000000000048704870487",
  "nTx": 1,
  "previousblockhash": "000000008b875c8c5d25fcf66aca787e77572f2e57f5cbdf593d769d064b18f1",
  "nextblockhash": "0000000084da3f864eec07bf66533f4a7cc980198c738e16a83a1f24d902b4dd",
  "strippedsize": 216,
  "size": 216,
  "weight": 864,
  "tx": [
    {
      "txid": "7a90064a350a43da88abdc1be996e2dca994546b45a42ece1d0b78fd8944387a",
      "hash": "7a90064a350a43da88abdc1be996e2dca994546b45a42ece1d0b78fd8944387a",
      "version": 1,
      "size": 135,
      "vsize": 135,
      "weight": 540,
      "locktime": 0,
      "vin": [
        {
          "coinbase": "04ffff001d02f507",
          "sequence": 4294967295
        }
      ],
      "vout": [
        {
          "value": 50.0,
          "n": 0,
          "scriptPubKey": {
            "asm": "042e0f928a9a713a7dac1d1461cf2d64220366724068eaa52c2ee43c0e151968c74ad7c05a089ff55fa918367221c55086522a64bcba6bc33ca6274a537646ebd2 OP_CHECKSIG",
            "desc": "pk(042e0f928a9a713a7dac1d1461cf2d64220366724068eaa52c2ee43c0e151968c74ad7c05a089ff55fa918367221c55086522a64bcba6bc33ca6274a537646ebd2)#ps96upr3",
            "hex": "41042e0f928a9a713a7dac1d1461cf2d64220366724068eaa52c2ee43c0e151968c74ad7c05a089ff55fa918367221c55086522a64bcba6bc33ca6274a537646ebd2ac",
            "type": "pubkey"
          }
        }
      ],
      "hex": "01000000010000000000000000000000000000000000000000000000000000000000000000ffffffff0804ffff001d02f507ffffffff0100f2052a010000004341042e0f928a9a713a7dac1d1461cf2d64220366724068eaa52c2ee43c0e151968c74ad7c05a089ff55fa918367221c55086522a64bcba6bc33ca6274a537646ebd2ac00000000"
    }
  ]
}