{
  "hash": "00000000a03ddc295497366ea1fd8a80e890c7d9f430771236c83091ff6bbf6e",
  "confirmations": 52322,
  "height": 776,
  "version": 1,
  "versionHex": "00000001",
  "merkleroot": "e770e0eff7a0b0b7ec298b467ac79b0e967be0861304a34d8eb06e4d7726d205",
  "time": 1232171865,
  "mediantime": 1232168513,
  "nonce": 3747186734,
  "bits": "1d00ffff",
  "difficulty": 1,
  "chainwork": "0000000000000000000000000000000000000000000000000000030903090309",
  "nTx": 1,
  "previousblockhash": "00000000284439b700b0f546c490020308dde23bf72f1ee15253af6bdd19468d",
  "nextblockhash": "000000000ed962e1b77fcd47c5deab249f1adb1069195cbcd6cd77f2679e791b",
  "strippedsize": 216,
  "size": 216,
  "weight": 864,
  "tx": [
    {
      "txid": "e770e0eff7a0b0b7ec298b467ac79b0e967be0861304a34d8eb06e4d7726d205",
      "hash": "e770e0eff7a0b0b7ec298b467ac79b0e967be0861304a34d8eb06e4d7726d205",
      "version": 1,
      "size": 135,
      "vsize": 135,
      "weight": 540,
      "locktime": 0,
      "vin": [
        {
          "coinbase": "04ffff001d020101",
          "sequence": 4294967295
        }
      ],
      "vout": [
        {
          "value": 50.0,
          "n": 0,
          "scriptPubKey": {
            "asm": "04420316d622bd13cb878dd96e4f2f493c990f54871b6bdeea580bb9721231292af5b4465c8430148958f47e0aececf10c4aa5c2d7fc9ee39d651e424002e7e47a OP_CHECKSIG",
            "desc": "pk(04420316d622bd13cb878dd96e4f2f493c990f54871b6bdeea580bb9721231292af5b4465c8430148958f47e0aececf10c4aa5c2d7fc9ee39d651e424002e7e47a)#9nput347",
            "hex": "4104420316d622bd13cb878dd96e4f2f493c990f54871b6bdeea580bb9721231292af5b4465c8430148958f47e0aececf10c4aa5c2d7fc9ee39d651e424002e7e47aac",
            "type": "pubkey"
          }
        }
      ],
      "hex": "01000000010000000000000000000000000000000000000000000000000000000000000000ffffffff0804ffff001d020101ffffffff0100f2052a01000000434104420316d622bd13cb878dd96e4f2f493c990f54871b6bdeea580bb9721231292af5b4465c8430148958f47e0aececf10c4aa5c2d7fc9ee39d651e424002e7e47aac00000000"
    }
  ]
}