{
  "hash": "00000000405b229075e2387c98d634269db3a4bbd970069a9a8bde25c510760a",
  "confirmations": 45975,
  "height": 7123,
  "version": 1,
  "versionHex": "00000001",
  "merkleroot": "cfe356de3bd30915dfb95833615b57f6c8bd9aefca01b774e1a1d531f473d087",
  "time": 1236813090,
  "mediantime": 1236810293,
  "nonce": 3683600901,
  "bits": "1d00ffff",
  "difficulty": 1,
  "chainwork": "00000000000000000000000000000000000000000000000000001bd41bd41bd4",
  "nTx": 1,
  "previousblockhash": "0000000032a670c80014c92a1eeb8df33d40ce8f210637a77be6ba7420fba919",
  "nextblockhash": "000000001d484e67debe5dca7d3bfc2742108e08eeda38cd65841016a102a3bf",
  "strippedsize": 216,
  "size": 216,
  "weight": 864,
  "tx": [
    {
      "txid": "cfe356de3bd30915dfb95833615b57f6c8bd9aefca01b774e1a1d531f473d087",
      "hash": "cfe356de3bd30915dfb95833615b57f6c8bd9aefca01b774e1a1d531f473d087",
      "version": 1,
      "size": 135,
      "vsize": 135,
      "weight": 540,
      "locktime": 0,
      "vin": [
        {
          "coinbase": "04ffff001d024404",
          "sequence": 4294967295
        }
      ],
      "vout": [
        {
          "value": 50.0,
          "n": 0,
          "scriptPubKey": {
            "asm": "04cd7bf6df2f007e14d589850d84c836f5117db05826a7155baee59774e8c774b5b8b932701874cf511ec81f299b7dbb1439b9d46663a545afd6d44d401158f310 OP_CHECKSIG",
            "desc": "pk(04cd7bf6df2f007e14d589850d84c836f5117db05826a7155baee59774e8c774b5b8b932701874cf511ec81f299b7dbb1439b9d46663a545afd6d44d401158f310)#3d5sp0qr",
            "hex": "4104cd7bf6df2f007e14d589850d84c836f5117db05826a7155baee59774e8c774b5b8b932701874cf511ec81f299b7dbb1439b9d46663a545afd6d44d401158f310ac",
            "type": "pubkey"
          }
        }
      ],
      "hex": "01000000010000000000000000000000000000000000000000000000000000000000000000ffffffff0804ffff001d024404ffffffff0100f2052a01000000434104cd7bf6df2f007e14d589850d84c836f5117db05826a7155baee59774e8c774b5b8b932701874cf511ec81f299b7dbb1439b9d46663a545afd6d44d401158f310ac00000000"
    }
  ]
}