{
  "hash": "00000000868027af1d3282ec317ed737a0363896a27ae4a831565c7a2d806003",
  "confirmations": 43650,
  "height": 9448,
  "version": 1,
  "versionHex": "00000001",
  "merkleroot": "70edff7c215d7da95a97191230c39e1c215ac230bd93300751882c0be1c4fef7",
  "time": 1238590641,
  "mediantime": 1238587016,
  "nonce": 470217990,
  "bits": "1d00ffff",
  "difficulty": 1,
  "chainwork": "000000000000000000000000000000000000000000000000000024e924e924e9",
  "nTx": 1,
  "previousblockhash": "000000007ded56efcc8f4403816f031328926ea9a71ca38c60b78599fc3133f8",
  "nextblockhash": "000000003861da874b0590b3bd88b8caffa9a8d8edefa0571a87e9afdcd7d3a0",
  "strippedsize": 216,
  "size": 216,
  "weight": 864,
  "tx": [
    {
      "txid": "70edff7c215d7da95a97191230c39e1c215ac230bd93300751882c0be1c4fef7",
      "hash": "70edff7c215d7da95a97191230c39e1c215ac230bd93300751882c0be1c4fef7",
      "version": 1,
      "size": 135,
      "vsize": 135,
      "weight": 540,
      "locktime": 0,
      "vin": [
        {
          "coinbase": "04ffff001d028f04",
          "sequence": 4294967295
        }
      ],
      "vout": [
        {
          "value": 50.0,
          "n": 0,
          "scriptPubKey": {
            "asm": "044bf6bc23efc9420692fce5b72a657716bb760824a2362fc46560c4cecd64adc7bbc893a8037e29409b8310af91538b50f06eca6a548779f7cd4ccef2c7890451 OP_CHECKSIG",
            "desc": "pk(044bf6bc23efc9420692fce5b72a657716bb760824a2362fc46560c4cecd64adc7bbc893a8037e29409b8310af91538b50f06eca6a548779f7cd4ccef2c7890451)#4pqc4ehj",
            "hex": "41044bf6bc23efc9420692fce5b72a657716bb760824a2362fc46560c4cecd64adc7bbc893a8037e29409b8310af91538b50f06eca6a548779f7cd4ccef2c7890451ac",
            "type": "pubkey"
          }
        }
      ],
      "hex": "01000000010000000000000000000000000000000000000000000000000000000000000000ffffffff0804ffff001d028f04ffffffff0100f2052a010000004341044bf6bc23efc9420692fce5b72a657716bb760824a2362fc46560c4cecd64adc7bbc893a8037e29409b8310af91538b50f06eca6a548779f7cd4ccef2c7890451ac00000000"
    }
  ]
}