{
  "hash": "0000000093743ded074ee9414c4bd9faca89149f0b35325286de4c9111d2755e",
  "confirmations": 45839,
  "height": 7259,
  "version": 1,
  "versionHex": "00000001",
  "merkleroot": "f0e729b9db282f9080909dfdd5bf5f84c48b62b2b4c49fe0876d94cf7d1d05f6",
  "time": 1236915849,
  "mediantime": 1236910882,
  "nonce": 662011395,
  "bits": "1d00ffff",
  "difficulty": 1,
  "chainwork": "00000000000000000000000000000000000000000000000000001c5c1c5c1c5c",
  "nTx": 1,
  "previousblockhash": "000000001904fbf0b1dd2d14c1bb713d5a7f7ae2fc921a516e8f2f4dff592437",
  "nextblockhash": "00000000d206578bb06e7de703603d9fe23e4480e68aea9d4f26fc0dcc555b32",
  "strippedsize": 216,
  "size": 216,
  "weight": 864,
  "tx": [
    {
      "txid": "f0e729b9db282f9080909dfdd5bf5f84c48b62b2b4c49fe0876d94cf7d1d05f6",
      "hash": "f0e729b9db282f9080909dfdd5bf5f84c48b62b2b4c49fe0876d94cf7d1d05f6",
      "version": 1,
      "size": 135,
      "vsize": 135,
      "weight": 540,
      "locktime": 0,
      "vin": [
        {
          "coinbase": "04ffff001d02a806",
          "sequence": 4294967295
        }
      ],
      "vout": [
        {
          "value": 50.0,
          "n": 0,
          "scriptPubKey": {
            "asm": "0446ace4df5785cdb39f4106de1473d77cc69a1d18556f0b5cdfb8679a66991c44aca2b03e22e3443da4cc43b6f51a4b0a4636413cfb19ef50275b504845f54b68 OP_CHECKSIG",
            "desc": "pk(0446ace4df5785cdb39f4106de1473d77cc69a1d18556f0b5cdfb8679a66991c44aca2b03e22e3443da4cc43b6f51a4b0a4636413cfb19ef50275b504845f54b68)#vyp4rnek",
            "hex": "410446ace4df5785cdb39f4106de1473d77cc69a1d18556f0b5cdfb8679a66991c44aca2b03e22e3443da4cc43b6f51a4b0a4636413cfb19ef50275b504845f54b68ac",
            "type": "pubkey"
          }
        }
      ],
      "hex": "01000000010000000000000000000000000000000000000000000000000000000000000000ffffffff0804ffff001d02a806ffffffff0100f2052a0100000043410446ace4df5785cdb39f4106de1473d77cc69a1d18556f0b5cdfb8679a66991c44aca2b03e22e3443da4cc43b6f51a4b0a4636413cfb19ef50275b504845f54b68ac00000000"
    }
  ]
}