{
  "hash": "00000000673405ffe87f801032e901c7f423adddc7b51773e6b108e617e75516",
  "confirmations": 43713,
  "height": 9385,
  "version": 1,
  "versionHex": "00000001",
  "merkleroot": "b300aa25cd11bb5679665d323b3deeb290e55883e3f351e53c2e3811d426535c",
  "time": 1238539190,
  "mediantime": 1238534450,
  "nonce": 688860719,
  "bits": "1d00ffff",
  "difficulty": 1,
  "chainwork": "000000000000000000000000000000000000000000000000000024aa24aa24aa",
  "nTx": 1,
  "previousblockhash": "000000003ac2086faecdac17eb59f209fe36aa8b2961c0d714cf74f6495e393b",
  "nextblockhash": "0000000096e56297923ef1784ed5c574c810411788a54912786429c1a809e5bb",
  "strippedsize": 216,
  "size": 216,
  "weight": 864,
  "tx": [
    {
      "txid": "b300aa25cd11bb5679665d323b3deeb290e55883e3f351e53c2e3811d426535c",
      "hash": "b300aa25cd11bb5679665d323b3deeb290e55883e3f351e53c2e3811d426535c",
      "version": 1,
      "size": 135,
      "vsize": 135,
      "weight": 540,
      "locktime": 0,
      "vin": [
        {
          "coinbase": "04ffff001d026203",
          "sequence": 4294967295
        }
      ],
      "vout": [
        {
          "value": 50.0,
          "n": 0,
          "scriptPubKey": {
            "asm": "045fbced67bc90bcf3d78ad5f1334981e4223ebe8d583b9c76845a821f3e3f4d9a624fd46f457a8be74b0e13f2106995a537ac02fd88f0b40c4022727be608b6fc OP_CHECKSIG",
            "desc": "pk(045fbced67bc90bcf3d78ad5f1334981e4223ebe8d583b9c76845a821f3e3f4d9a624fd46f457a8be74b0e13f2106995a537ac02fd88f0b40c4022727be608b6fc)#xdd593y0",
            "hex": "41045fbced67bc90bcf3d78ad5f1334981e4223ebe8d583b9c76845a821f3e3f4d9a624fd46f457a8be74b0e13f2106995a537ac02fd88f0b40c4022727be608b6fcac",
            "type": "pubkey"
          }
        }
      ],
      "hex": "01000000010000000000000000000000000000000000000000000000000000000000000000ffffffff0804ffff001d026203ffffffff0100f2052a010000004341045fbced67bc90bcf3d78ad5f1334981e4223ebe8d583b9c76845a821f3e3f4d9a624fd46f457a8be74b0e13f2106995a537ac02fd88f0b40c4022727be608b6fcac00000000"
    }
  ]
}