{
  "hash": "000000005e440ced458ed300e09b98f94a913a7b4ef196df009a8055f267d22b",
  "confirmations": 46766,
  "height": 6332,
  "version": 1,
  "versionHex": "00000001",
  "merkleroot": "28facece4dcca19e9cb2f833d8a5eab2d20a16e6ea99da259ce35de8728e0d1f",
  "time": 1236198494,
  "mediantime": 1236194891,
  "nonce": 1753675544,
  "bits": "1d00ffff",
  "difficulty": 1,
  "chainwork": "000000000000000000000000000000000000000000000000000018bd18bd18bd",
  "nTx": 1,
  "previousblockhash": "0000000002b3c97bd8b0c73b03b9dcdf25353fcd9114c7ad99b249fda0025f99",
  "nextblockhash": "00000000e9f98f2d446cc2aa66d55db4d3e877e1f92b6fae8b536097309f6edd",
  "strippedsize": 216,
  "size": 216,
  "weight": 864,
  "tx": [
    {
      "txid": "28facece4dcca19e9cb2f833d8a5eab2d20a16e6ea99da259ce35de8728e0d1f",
      "hash": "28facece4dcca19e9cb2f833d8a5eab2d20a16e6ea99da259ce35de8728e0d1f",
      "version": 1,
      "size": 135,
      "vsize": 135,
      "weight": 540,
      "locktime": 0,
      "vin": [
        {
          "coinbase": "04ffff001d028c00",
          "sequence": 4294967295
        }
      ],
      "vout": [
        {
          "value": 50.0,
          "n": 0,
          "scriptPubKey": {
            "asm": "04cadebee58bb29c2a5bebb5091c61a76ae936630665b3a815d34a41636886c33c75bc6b1c746cf89a4ac8b463b58b6b21d509d02a9dc13c26ebc2e59973c5eb50 OP_CHECKSIG",
            "desc": "pk(04cadebee58bb29c2a5bebb5091c61a76ae936630665b3a815d34a41636886c33c75bc6b1c746cf89a4ac8b463b58b6b21d509d02a9dc13c26ebc2e59973c5eb50)#2rvqv58a",
            "hex": "4104cadebee58bb29c2a5bebb5091c61a76ae936630665b3a815d34a41636886c33c75bc6b1c746cf89a4ac8b463b58b6b21d509d02a9dc13c26ebc2e59973c5eb50ac",
            "type": "pubkey"
          }
        }
      ],
      "hex": "01000000010000000000000000000000000000000000000000000000000000000000000000ffffffff0804ffff001d028c00ffffffff0100f2052a01000000434104cadebee58bb29c2a5bebb5091c61a76ae936630665b3a815d34a41636886c33c75bc6b1c746cf89a4ac8b463b58b6b21d509d02a9dc13c26ebc2e59973c5eb50ac00000000"
    }
  ]
}