{
  "hash": "000000005815a4f2bbdcc3bdeada4a08fb1c6f3cc48b547eb58b25d7f3c0862e",
  "confirmations": 43670,
  "height": 9428,
  "version": 1,
  "versionHex": "00000001",
  "merkleroot": "334862b5c17e7ebdced6e78df95d3a9bd46af9df08706d1002ba6318bb49eebd",
  "time": 1238574077,
  "mediantime": 1238570501,
  "nonce": 3314143277,
  "bits": "1d00ffff",
  "difficulty": 1,
  "chainwork": "000000000000000000000000000000000000000000000000000024d524d524d5",
  "nTx": 1,
  "previousblockhash": "000000008415f9170d9043d9a997502883062a885cb69218f4b64c06d8d4c404",
  "nextblockhash": "0000000053ce318ac4d4f140ab3a9db1b242af662fac4c2b696b12d4409d8b8a",
  "strippedsize": 216,
  "size": 216,
  "weight": 864,
  "tx": [
    {
      "txid": "334862b5c17e7ebdced6e78df95d3a9bd46af9df08706d1002ba6318bb49eebd",
      "hash": "334862b5c17e7ebdced6e78df95d3a9bd46af9df08706d1002ba6318bb49eebd",
      "version": 1,
      "size": 135,
      "vsize": 135,
      "weight": 540,
      "locktime": 0,
      "vin": [
        {
          "coinbase": "04ffff001d021704",
          "sequence": 4294967295
        }
      ],
      "vout": [
        {
          "value": 50.0,
          "n": 0,
          "scriptPubKey": {
            "asm": "0496def29dde312a1081cee2b371e8f46e2cc69a82aa93040f8be2c031b04a804a21bcad3dacfff9085e153863952875ca6994111da30c295447bcc511ad1b6052 OP_CHECKSIG",
            "desc": "pk(0496def29dde312a1081cee2b371e8f46e2cc69a82aa93040f8be2c031b04a804a21bcad3dacfff9085e153863952875ca6994111da30c295447bcc511ad1b6052)#whe0rhfr",
            "hex": "410496def29dde312a1081cee2b371e8f46e2cc69a82aa93040f8be2c031b04a804a21bcad3dacfff9085e153863952875ca6994111da30c295447bcc511ad1b6052ac",
            "type": "pubkey"
          }
        }
      ],
      "hex": "01000000010000000000000000000000000000000000000000000000000000000000000000ffffffff0804ffff001d021704ffffffff0100f2052a0100000043410496def29dde312a1081cee2b371e8f46e2cc69a82aa93040f8be2c031b04a804a21bcad3dacfff9085e153863952875ca6994111da30c295447bcc511ad1b6052ac00000000"
    }
  ]
}