{
  "hash": "00000000f9a580fcdd6674f977283adda0284ea2c3dd2ad3abc5d364fb100874",
  "confirmations": 45377,
  "height": 7721,
  "version": 1,
  "versionHex": "00000001",
  "merkleroot": "8425ac5096ff2b55e0feefa7c78ba609a245e6f185ecded99cd96dcb5844e03d",
  "time": 1237254030,
  "mediantime": 1237251241,
  "nonce": 129054466,
  "bits": "1d00ffff",
  "difficulty": 1,
  "chainwork": "00000000000000000000000000000000000000000000000000001e2a1e2a1e2a",
  "nTx": 1,
  "previousblockhash": "00000000094ac9d8cfd71baeb92f12caf29c7f7f4241da712736b943e4880ef9",
  "nextblockhash": "00000000c478bda41179d4502f5cd54db7e243de98811964e62afd3b46ead512",
  "strippedsize": 216,
  "size": 216,
  "weight": 864,
  "tx": [
    {
      "txid": "8425ac5096ff2b55e0feefa7c78ba609a245e6f185ecded99cd96dcb5844e03d",
      "hash": "8425ac5096ff2b55e0feefa7c78ba609a245e6f185ecded99cd96dcb5844e03d",
      "version": 1,
      "size": 135,
      "vsize": 135,
      "weight": 540,
      "locktime": 0,
      "vin": [
        {
          "coinbase": "04ffff001d028d04",
          "sequence": 4294967295
        }
      ],
      "vout": [
        {
          "value": 50.0,
          "n": 0,
          "scriptPubKey": {
            "asm": "04683fcad1690e056804080fa09f34b2b9df183d45505498874c85a06272ce0c844512adab46f2414899fdb391918a2fe5297396b0324b9a0bec8a4c278b71aa80 OP_CHECKSIG",
            "desc": "pk(04683fcad1690e056804080fa09f34b2b9df183d45505498874c85a06272ce0c844512adab46f2414899fdb391918a2fe5297396b0324b9a0bec8a4c278b71aa80)#wljfxtnw",
            "hex": "4104683fcad1690e056804080fa09f34b2b9df183d45505498874c85a06272ce0c844512adab46f2414899fdb391918a2fe5297396b0324b9a0bec8a4c278b71aa80ac",
            "type": "pubkey"
          }
        }
      ],
      "hex": "01000000010000000000000000000000000000000000000000000000000000000000000000ffffffff0804ffff001d028d04ffffffff0100f2052a01000000434104683fcad1690e056804080fa09f34b2b9df183d45505498874c85a06272ce0c844512adab46f2414899fdb391918a2fe5297396b0324b9a0bec8a4c278b71aa80ac00000000"
    }
  ]
}