{
  "hash": "00000000e22466aa2189719d6f43cc2ffdd527e18f4a6f0158ac11226aa0fe77",
  "confirmations": 46210,
  "height": 6888,
  "version": 1,
  "versionHex": "00000001",
  "merkleroot": "1af42b61f0f4b6e7d525a1b5dbb42c7fe631a951a9f7ee5dd532a4c5264300fc",
  "time": 1236627692,
  "mediantime": 1236623191,
  "nonce": 211447606,
  "bits": "1d00ffff",
  "difficulty": 1,
  "chainwork": "00000000000000000000000000000000000000000000000000001ae91ae91ae9",
  "nTx": 1,
  "previousblockhash": "000000009a4040e98e1ee2346b7e8892509ffb970c0f59741fc665a92b8fc536",
  "nextblockhash": "00000000dbe2fe042255163d49fbc3001150528e3e76eb4ebbdc8a304c4c646b",
  "strippedsize": 215,
  "size": 215,
  "weight": 860,
  "tx": [
    {
      "txid": "1af42b61f0f4b6e7d525a1b5dbb42c7fe631a951a9f7ee5dd532a4c5264300fc",
      "hash": "1af42b61f0f4b6e7d525a1b5dbb42c7fe631a951a9f7ee5dd532a4c5264300fc",
      "version": 1,
      "size": 134,
      "vsize": 134,
      "weight": 536,
      "locktime": 0,
      "vin": [
        {
          "coinbase": "04ffff001d011e",
          "sequence": 4294967295
        }
      ],
      "vout": [
        {
          "value": 50.0,
          "n": 0,
          "scriptPubKey": {
            "asm": "04dfeb8770c4933b1a7c34110cbaebae01702d9c205ec955b1b1a870f187e0e8cd14e0c0163ef7203befcd649ff8085492c321ee3fed9ed7df0f71560c622c35dd OP_CHECKSIG",
            "desc": "pk(04dfeb8770c4933b1a7c34110cbaebae01702d9c205ec955b1b1a870f187e0e8cd14e0c0163ef7203befcd649ff8085492c321ee3fed9ed7df0f71560c622c35dd)#wcu76cye",
            "hex": "4104dfeb8770c4933b1a7c34110cbaebae01702d9c205ec955b1b1a870f187e0e8cd14e0c0163ef7203befcd649ff8085492c321ee3fed9ed7df0f71560c622c35ddac",
            "type": "pubkey"
          }
        }
      ],
      "hex": "01000000010000000000000000000000000000000000000000000000000000000000000000ffffffff0704ffff001d011effffffff0100f2052a01000000434104dfeb8770c4933b1a7c34110cbaebae01702d9c205ec955b1b1a870f187e0e8cd14e0c0163ef7203befcd649ff8085492c321ee3fed9ed7df0f71560c622c35ddac00000000"
    }
  ]
}