{
  "hash": "000000005d3426b59913052bc769be948246bc688622d646023cdbe0c8c1148a",
  "confirmations": 47366,
  "height": 5732,
  "version": 1,
  "versionHex": "00000001",
  "merkleroot": "3910440cbe715386eee7d211b6605a93877c93bd01ad8b242b18a07fa712e7da",
  "time": 1235708949,
  "mediantime": 1235703902,
  "nonce": 251867953,
  "bits": "1d00ffff",
  "difficulty": 1,
  "chainwork": "0000000000000000000000000000000000000000000000000000166516651665",
  "nTx": 1,
  "previousblockhash": "0000000090f6f2723c6ca4d9b935dedf309f6d150c1022184caae070406195a1",
  "nextblockhash": "00000000314d10afa32ee1e395604d6d5f30f5c7bfee78900077aa10884edaa8",
  "strippedsize": 216,
  "size": 216,
  "weight": 864,
  "tx": [
    {
      "txid": "3910440cbe715386eee7d211b6605a93877c93bd01ad8b242b18a07fa712e7da",
      "hash": "3910440cbe715386eee7d211b6605a93877c93bd01ad8b242b18a07fa712e7da",
      "version": 1,
      "size": 135,
      "vsize": 135,
      "weight": 540,
      "locktime": 0,
      "vin": [
        {
          "coinbase": "04ffff001d02f309",
          "sequence": 4294967295
        }
      ],
      "vout": [
        {
          "value": 50.0,
          "n": 0,
          "scriptPubKey": {
            "asm": "047a4811f83e0da6892257942fa0b548a315846c157ca753f57e761f8d2cf726e6e101aa5698fdb774d1380c2f4bb6f5bd94953f25f6f10af7284ffc7cb9c62200 OP_CHECKSIG",
            "desc": "pk(047a4811f83e0da6892257942fa0b548a315846c157ca753f57e761f8d2cf726e6e101aa5698fdb774d1380c2f4bb6f5bd94953f25f6f10af7284ffc7cb9c62200)#7vs9kx53",
            "hex": "41047a4811f83e0da6892257942fa0b548a315846c157ca753f57e761f8d2cf726e6e101aa5698fdb774d1380c2f4bb6f5bd94953f25f6f10af7284ffc7cb9c62200ac",
            "type": "pubkey"
          }
        }
      ],
      "hex": "01000000010000000000000000000000000000000000000000000000000000000000000000ffffffff0804ffff001d02f309ffffffff0100f2052a010000004341047a4811f83e0da6892257942fa0b548a315846c157ca753f57e761f8d2cf726e6e101aa5698fdb774d1380c2f4bb6f5bd94953f25f6f10af7284ffc7cb9c62200ac00000000"
    }
  ]
}