{
  "hash": "000000004312708b14e4aca8afc2441fe2ac9fdac90b08cc076bb03ecf077aab",
  "confirmations": 51454,
  "height": 1644,
  "version": 1,
  "versionHex": "00000001",
  "merkleroot": "a0b8d7cec036c3c3bc4a1a0d41c450c16c9ebc0a74ad5fd0bb62aab26e1ca3dd",
  "time": 1232830901,
  "mediantime": 1232828475,
  "nonce": 1970449463,
  "bits": "1d00ffff",
  "difficulty": 1,
  "chainwork": "0000000000000000000000000000000000000000000000000000066d066d066d",
  "nTx": 1,
  "previousblockhash": "0000000092ebee186c3309fbc51634b7c209649634e9bae21f5f69305568f63a",
  "nextblockhash": "00000000804859b11bfb634ab5922c38aae5b07e1ef221c9f9ea1a0336141a76",
  "strippedsize": 216,
  "size": 216,
  "weight": 864,
  "tx": [
    {
      "txid": "a0b8d7cec036c3c3bc4a1a0d41c450c16c9ebc0a74ad5fd0bb62aab26e1ca3dd",
      "hash": "a0b8d7cec036c3c3bc4a1a0d41c450c16c9ebc0a74ad5fd0bb62aab26e1ca3dd",
      "version": 1,
      "size": 135,
      "vsize": 135,
      "weight": 540,
      "locktime": 0,
      "vin": [
        {
          "coinbase": "04ffff001d028f02",
          "sequence": 4294967295
        }
      ],
      "vout": [
        {
          "value": 50.0,
          "n": 0,
          "scriptPubKey": {
            "asm": "049020893120ce5f62106333dda8dd09c8f4decb15accc6f8c07a93ee13962c2a14bbc08b519074e6f7f7a46e4ad0b351845482f1e7de88b474bd323da7aea9927 OP_CHECKSIG",
            "desc": "pk(049020893120ce5f62106333dda8dd09c8f4decb15accc6f8c07a93ee13962c2a14bbc08b519074e6f7f7a46e4ad0b351845482f1e7de88b474bd323da7aea9927)#2gjs7vlf",
            "hex": "41049020893120ce5f62106333dda8dd09c8f4decb15accc6f8c07a93ee13962c2a14bbc08b519074e6f7f7a46e4ad0b351845482f1e7de88b474bd323da7aea9927ac",
            "type": "pubkey"
          }
        }
      ],
      "hex": "01000000010000000000000000000000000000000000000000000000000000000000000000ffffffff0804ffff001d028f02ffffffff0100f2052a010000004341049020893120ce5f62106333dda8dd09c8f4decb15accc6f8c07a93ee13962c2a14bbc08b519074e6f7f7a46e4ad0b351845482f1e7de88b474bd323da7aea9927ac00000000"
    }
  ]
}