{
  "hash": "00000000fade95f148d84e52cdd2848facf7e54c69f92b2f9ec59d6830896687",
  "confirmations": 50305,
  "height": 2793,
  "version": 1,
  "versionHex": "00000001",
  "merkleroot": "a2009d8a6f680e69b36a0661fe514c8387a399e5a6cc7a65c4dc8d5b9bdffc56",
  "time": 1233625316,
  "mediantime": 1233621279,
  "nonce": 1143413767,
  "bits": "1d00ffff",
  "difficulty": 1,
  "chainwork": "00000000000000000000000000000000000000000000000000000aea0aea0aea",
  "nTx": 1,
  "previousblockhash": "00000000c333caad0a5e19edab4cfb8517af86248d1658f23553c87971d86038",
  "nextblockhash": "0000000063002096e3041921690a8f46a8e41da52f372872a855264e48cb3935",
  "strippedsize": 216,
  "size": 216,
  "weight": 864,
  "tx": [
    {
      "txid": "a2009d8a6f680e69b36a0661fe514c8387a399e5a6cc7a65c4dc8d5b9bdffc56",
      "hash": "a2009d8a6f680e69b36a0661fe514c8387a399e5a6cc7a65c4dc8d5b9bdffc56",
      "version": 1,
      "size": 135,
      "vsize": 135,
      "weight": 540,
      "locktime": 0,
      "vin": [
        {
          "coinbase": "04ffff001d021606",
          "sequence": 4294967295
        }
      ],
      "vout": [
        {
          "value": 50.0,
          "n": 0,
          "scriptPubKey": {
            "asm": "04b25c7734422c8a621bbcf30398571eb7cdb1b9a31028b10b4e57a430b485f7634ad34c4590b1b91f4c6f4151c0752ddcb678b839f0b9bec894c8e11eb183c6ca OP_CHECKSIG",
            "desc": "pk(04b25c7734422c8a621bbcf30398571eb7cdb1b9a31028b10b4e57a430b485f7634ad34c4590b1b91f4c6f4151c0752ddcb678b839f0b9bec894c8e11eb183c6ca)#0pv4atdz",
            "hex": "4104b25c7734422c8a621bbcf30398571eb7cdb1b9a31028b10b4e57a430b485f7634ad34c4590b1b91f4c6f4151c0752ddcb678b839f0b9bec894c8e11eb183c6caac",
            "type": "pubkey"
          }
        }
      ],
      "hex": "01000000010000000000000000000000000000000000000000000000000000000000000000ffffffff0804ffff001d021606ffffffff0100f2052a01000000434104b25c7734422c8a621bbcf30398571eb7cdb1b9a31028b10b4e57a430b485f7634ad34c4590b1b91f4c6f4151c0752ddcb678b839f0b9bec894c8e11eb183c6caac00000000"
    }
  ]
}