{
  "hash": "000000008bfb183e9d375292344ecd35899c258bddef56ee091b61dda63a66c2",
  "confirmations": 43259,
  "height": 9839,
  "version": 1,
  "versionHex": "00000001",
  "merkleroot": "a8b80ab88228e49572d453fdef9e6bcbb5f8f30a07b515c9ed7ae2c480f5bd93",
  "time": 1238883232,
  "mediantime": 1238879321,
  "nonce": 3747425798,
  "bits": "1d00ffff",
  "difficulty": 1,
  "chainwork": "0000000000000000000000000000000000000000000000000000267026702670",
  "nTx": 1,
  "previousblockhash": "00000000daea17fed830ea437e95b5461b9820c49cbe2fa6ddd0b63b272decab",
  "nextblockhash": "00000000d846c5fbd90fe25130cfc4c62e07594c5d98b8fcb13110d38fe56a23",
  "strippedsize": 216,
  "size": 216,
  "weight": 864,
  "tx": [
    {
      "txid": "a8b80ab88228e49572d453fdef9e6bcbb5f8f30a07b515c9ed7ae2c480f5bd93",
      "hash": "a8b80ab88228e49572d453fdef9e6bcbb5f8f30a07b515c9ed7ae2c480f5bd93",
      "version": 1,
      "size": 135,
      "vsize": 135,
      "weight": 540,
      "locktime": 0,
      "vin": [
        {
          "coinbase": "04ffff001d02fe00",
          "sequence": 4294967295
        }
      ],
      "vout": [
        {
          "value": 50.0,
          "n": 0,
          "scriptPubKey": {
            "asm": "0434a58482eb208172c15abadb6ea7b007b4c90ef6fced03bd7d834771182b0a6e60bcbebf21b95a22ee445432bfd16826026db9820947e3bf813ef236fd1e4d0e OP_CHECKSIG",
            "desc": "pk(0434a58482eb208172c15abadb6ea7b007b4c90ef6fced03bd7d834771182b0a6e60bcbebf21b95a22ee445432bfd16826026db9820947e3bf813ef236fd1e4d0e)#hjcxq6t9",
            "hex": "410434a58482eb208172c15abadb6ea7b007b4c90ef6fced03bd7d834771182b0a6e60bcbebf21b95a22ee445432bfd16826026db9820947e3bf813ef236fd1e4d0eac",
            "type": "pubkey"
          }
        }
      ],
      "hex": "01000000010000000000000000000000000000000000000000000000000000000000000000ffffffff0804ffff001d02fe00ffffffff0100f2052a0100000043410434a58482eb208172c15abadb6ea7b007b4c90ef6fced03bd7d834771182b0a6e60bcbebf21b95a22ee445432bfd16826026db9820947e3bf813ef236fd1e4d0eac00000000"
    }
  ]
}