{
  "hash": "00000000b66ac539d2cdfebdd4720cb08603b48edec56cc07273c40b082b1d58",
  "confirmations": 52014,
  "height": 220,
  "version": 1,
  "versionHex": "00000001",
  "merkleroot": "d09e93200dd6d2a1343001b0b2755da288f31c291abd42b134d3b3ac24920513",
  "time": 1231768665,
  "mediantime": 1231763114,
  "nonce": 3119993365,
  "bits": "1d00ffff",
  "difficulty": 1,
  "chainwork": "000000000000000000000000000000000000000000000000000000dd00dd00dd",
  "nTx": 1,
  "previousblockhash": "00000000d2c813c67875fb331f4b4c1cf3cd7e96a53e6dd1f3808d8502535a84",
  "nextblockhash": "0000000066356691a4353dd8bdc2c60da20d68ad34fff93d8839a133b2a6d42a",
  "strippedsize": 216,
  "size": 216,
  "weight": 864,
  "tx": [
    {
      "txid": "d09e93200dd6d2a1343001b0b2755da288f31c291abd42b134d3b3ac24920513",
      "hash": "d09e93200dd6d2a1343001b0b2755da288f31c291abd42b134d3b3ac24920513",
      "version": 1,
      "size": 135,
      "vsize": 135,
      "weight": 540,
      "locktime": 0,
      "vin": [
        {
          "coinbase": "04ffff001d029a00",
          "sequence": 4294967295
        }
      ],
      "vout": [
        {
          "value": 50.0,
          "n": 0,
          "scriptPubKey": {
            "asm": "046dbcbc038aef99adc831e404ad50d852126448d68069fd97ea248a42f90e75d87dc5ec54f89975eeb4669812ed9ee06972985cdc853b161c3381c5bbc0c0401c OP_CHECKSIG",
            "desc": "pk(046dbcbc038aef99adc831e404ad50d852126448d68069fd97ea248a42f90e75d87dc5ec54f89975eeb4669812ed9ee06972985cdc853b161c3381c5bbc0c0401c)#wk9gd5v8",
            "hex": "41046dbcbc038aef99adc831e404ad50d852126448d68069fd97ea248a42f90e75d87dc5ec54f89975eeb4669812ed9ee06972985cdc853b161c3381c5bbc0c0401cac",
            "type": "pubkey"
          }
        }
      ],
      "hex": "01000000010000000000000000000000000000000000000000000000000000000000000000ffffffff0804ffff001d029a00ffffffff0100f2052a010000004341046dbcbc038aef99adc831e404ad50d852126448d68069fd97ea248a42f90e75d87dc5ec54f89975eeb4669812ed9ee06972985cdc853b161c3381c5bbc0c0401cac00000000"
    }
  ]
}