{
  "hash": "00000000a3eb27a6abcc24d18af3cf28013c39643228ab02493463346dadf3c0",
  "confirmations": 46980,
  "height": 6118,
  "version": 1,
  "versionHex": "00000001",
  "merkleroot": "4efac1dfe9ad369ac79dffea03b86d04029827a211e942cdf502a105529118fe",
  "time": 1236023389,
  "mediantime": 1236018702,
  "nonce": 2287746586,
  "bits": "1d00ffff",
  "difficulty": 1,
  "chainwork": "000000000000000000000000000000000000000000000000000017e717e717e7",
  "nTx": 1,
  "previousblockhash": "000000004748a0c2d940ac930fd767ec9da39d6369014345b1c73e7621945a1f",
  "nextblockhash": "000000004245a3a490252f474486d5dc0c40ecd6c64b0066872e81a65d47ad04",
  "strippedsize": 216,
  "size": 216,
  "weight": 864,
  "tx": [
    {
      "txid": "4efac1dfe9ad369ac79dffea03b86d04029827a211e942cdf502a105529118fe",
      "hash": "4efac1dfe9ad369ac79dffea03b86d04029827a211e942cdf502a105529118fe",
      "version": 1,
      "size": 135,
      "vsize": 135,
      "weight": 540,
      "locktime": 0,
      "vin": [
        {
          "coinbase": "04ffff001d020c07",
          "sequence": 4294967295
        }
      ],
      "vout": [
        {
          "value": 50.0,
          "n": 0,
          "scriptPubKey": {
            "asm": "0461a36c0bab7a0f99a62fe3b543b8c0ecb2fd517bf7270b82d564a1a1848d8ac009bb0e6c6ce05541e3a2a059d74e3bb9cb9fca74b5b5718727d135bb95440a0b OP_CHECKSIG",
            "desc": "pk(0461a36c0bab7a0f99a62fe3b543b8c0ecb2fd517bf7270b82d564a1a1848d8ac009bb0e6c6ce05541e3a2a059d74e3bb9cb9fca74b5b5718727d135bb95440a0b)#c4c3w9vh",
            "hex": "410461a36c0bab7a0f99a62fe3b543b8c0ecb2fd517bf7270b82d564a1a1848d8ac009bb0e6c6ce05541e3a2a059d74e3bb9cb9fca74b5b5718727d135bb95440a0bac",
            "type": "pubkey"
          }
        }
      ],
      "hex": "01000000010000000000000000000000000000000000000000000000000000000000000000ffffffff0804ffff001d020c07ffffffff0100f2052a0100000043410461a36c0bab7a0f99a62fe3b543b8c0ecb2fd517bf7270b82d564a1a1848d8ac009bb0e6c6ce05541e3a2a059d74e3bb9cb9fca74b5b5718727d135bb95440a0bac00000000"
    }
  ]
}