{
  "hash": "00000000ea2b48f085f41cd7e00c313c50966070e408246887fe32ba87082482",
  "confirmations": 49215,
  "height": 3883,
  "version": 1,
  "versionHex": "00000001",
  "merkleroot": "cf57c6a5bf2ba8a381850c3b36075728df99b8285c17edc300b7336f1cd1b6d9",
  "time": 1234355314,
  "mediantime": 1234352809,
  "nonce": 2034517018,
  "bits": "1d00ffff",
  "difficulty": 1,
  "chainwork": "00000000000000000000000000000000000000000000000000000f2c0f2c0f2c",
  "nTx": 2,
  "previousblockhash": "0000000019a37c6cc7caa8914a6351398a3656cdcd89031a0c52998fcd3f9076",
  "nextblockhash": "000000006c0b1da5f2d08cbeebc3d76cdb68e2c182f3e019fc89987425ce48aa",
  "strippedsize": 1444,
  "size": 1444,
  "weight": 5776,
  "tx": [
    {
      "txid": "01527b49b6eb2b4cd15d211fcdf20a990906689069eec9afd77f6ba397f1843b",
      "hash": "01527b49b6eb2b4cd15d211fcdf20a990906689069eec9afd77f6ba397f1843b",
      "version": 1,
      "size": 135,
      "vsize": 135,
      "weight": 540,
      "locktime": 0,
      "vin": [
        {
          "coinbase": "04ffff001d024a02",
          "sequence": 4294967295
        }
      ],
      "vout": [
        {
          "value": 50.0,
          "n": 0,
          "scriptPubKey": {
            "asm": "044d902aa54670ae9fb98a7fc7539e1fca5676e3204add13ea8947099a060b85e20ef6cb33a6ef22ac8a1ad318760adf765c464129e3d4b1849334a57cef75fac7 OP_CHECKSIG",
            "desc": "pk(044d902aa54670ae9fb98a7fc7539e1fca5676e3204add13ea8947099a060b85e20ef6cb33a6ef22ac8a1ad318760adf765c464129e3d4b1849334a57cef75fac7)#rmz8c046",
            "hex": "41044d902aa54670ae9fb98a7fc7539e1fca5676e3204add13ea8947099a060b85e20ef6cb33a6ef22ac8a1ad318760adf765c464129e3d4b1849334a57cef75fac7ac",
            "type": "pubkey"
          }
        }
      ],
      "hex": "01000000010000000000000000000000000000000000000000000000000000000000000000ffffffff0804ffff001d024a02ffffffff0100f2052a010000004341044d902aa54670ae9fb98a7fc7539e1fca5676e3204add13ea8947099a060b85e20ef6cb33a6ef22ac8a1ad318760adf765c464129e3d4b1849334a57cef75fac7ac00000000"
    },
    {
      "txid": "6552f912925b21c02b43f7d55ea0d76cb64dbe0ae31ceac97b97ae41aa9d0878",
      "hash": "6552f912925b21c02b43f7d55ea0d76cb64dbe0ae31ceac97b97ae41aa9d0878",
      "version": 1,
      "size": 1228,
      "vsize": 1228,
      "weight": 4912,
      "locktime": 0,
      "vin": [
        {
          "txid": "131f68261e28a80c3300b048c4c51f3ca4745653ba7ad6b20cc9188322818f25",
          "vout": 0,
          "scriptSig": {
            "asm": "304502201da3d69b8a380f3f11324aa2b0b96d030d319ff7db228725ae163d51ac675d53022100997d9bf024e0913d08a16bd29a242d489cbb807f6aa47220a4e8184c464f6648[ALL]",
            "hex": "48304502201da3d69b8a380f3f11324aa2b0b96d030d319ff7db228725ae163d51ac675d53022100997d9bf024e0913d08a16bd29a242d489cbb807f6aa47220a4e8184c464f664801"
          },
          "sequence": 4294967295
        },
        {
          "txid": "e8a0b76a2bb4291be2370b9c3e34047632a02b1f5ca6a0a30c9cb2e21d072729",
          "vout": 0,
          "scriptSig": {
            "asm": "3046022100caedbfb04a9f9212ed597282bdfad75dd1cc340112831f6eadde40157b7f4765022100ccad4ea5ef67f041dff13178490cf0cc9da84dfbe2e508ea0edbda236acf8a0a[ALL]",
            "hex": "493046022100caedbfb04a9f9212ed597282bdfad75dd1cc340112831f6eadde40157b7f4765022100ccad4ea5ef67f041dff13178490cf0cc9da84dfbe2e508ea0edbda236acf8a0a01"
          },
          "sequence": 4294967295
        },
        {
          "txid": "eb7675a7565d2cd232b066640233dd5093be3f69340a2b1c9dbb76c163b32a36",
          "vout": 0,
          "scriptSig": {
            "asm": "3044022056dabef489593f78ffcc11905d3eee4bf497f216f262f87566b95413a0df856f02201f016e3e4981de65fb32153ea07e79ba87e7aa77f4fe3ec1b438909f83fb362f[ALL]",
            "hex": "473044022056dabef489593f78ffcc11905d3eee4bf497f216f262f87566b95413a0df856f02201f016e3e4981de65fb32153ea07e79ba87e7aa77f4fe3ec1b438909f83fb362f01"
          },
          "sequence": 4294967295
        },
        {
          "txid": "a64be218809b61ac67ddc7f6c7f9fbebfe420cf75fe0318ebc727f060df48b37",
          "vout": 0,
          "scriptSig": {
            "asm": "30460221008dc3ed8c0321eff51b82884dfc9c2ed8fb52e272fc4a9ad3e4e723d2ab572cdc022100ae4616ed7e64940570962ee343e4f529ddf1a99b531d422968e3b3efe4ce0df9[ALL]",
            "hex": "4930460221008dc3ed8c0321eff51b82884dfc9c2ed8fb52e272fc4a9ad3e4e723d2ab572cdc022100ae4616ed7e64940570962ee343e4f529ddf1a99b531d422968e3b3efe4ce0df901"
          },
          "sequence": 4294967295
        },
        {
          "txid": "28bf831c87ba35b4365cc1b07eb52562c11164daa0d01d5cb3b973eb88aed348",
          "vout": 0,
          "scriptSig": {
            "asm": "3044022033f91976dd6c6cf54c1c0d97cf0a8bed154b848e9ed85ec391cb939c1557f61f022043043346d58754ae0f364601755cfddef01e91a0aeafac64daa6dfcfb5002724[ALL]",
            "hex": "473044022033f91976dd6c6cf54c1c0d97cf0a8bed154b848e9ed85ec391cb939c1557f61f022043043346d58754ae0f364601755cfddef01e91a0aeafac64daa6dfcfb500272401"
          },
          "sequence": 4294967295
        },
        {
          "txid": "90d4f96b4cb3d96977729c64cb0a1a547033027d89f7ecaffc3be272ab82e46f",
          "vout": 0,
          "scriptSig": {
            "asm": "3045022100c91853243f5fa68f924afd317bea0a3a2491f41c77343f1cf0987298f06dd43002200ca07407349fe7e547f87c4750aac2e707a78e5f80152fc3e26057c6dc9f3ac7[ALL]",
            "hex": "483045022100c91853243f5fa68f924afd317bea0a3a2491f41c77343f1cf0987298f06dd43002200ca07407349fe7e547f87c4750aac2e707a78e5f80152fc3e26057c6dc9f3ac701"
          },
          "sequence": 4294967295
        },
        {
          "txid": "6ed0f8008c9810b393f907c6ebdf63970b221c27b6ad15f0a23c8e3b72c6b685",
          "vout": 0,
          "scriptSig": {
            "asm": "3046022100816695f52c8ac7b485257fde3034ee087b728680694dc50b9b2a7eb937419ee5022100ecb8172fc0bbf2ee582631aea59b95538d53db66fa635be33f13504c8696c50c[ALL]",
            "hex": "493046022100816695f52c8ac7b485257fde3034ee087b728680694dc50b9b2a7eb937419ee5022100ecb8172fc0bbf2ee582631aea59b95538d53db66fa635be33f13504c8696c50c01"
          },
          "sequence": 4294967295
        },
        {
          "txid": "1b3179e0f36addd13e9b7d9401d881996fe739e767955a2be15c5bcf32ce02c9",
          "vout": 0,
          "scriptSig": {
            "asm": "3046022100b020ecc7e9c3baabb82cba545f31a1b364f462c7e0a3de3477eac4f423c911fa022100bb0ab3655306559b379f651a3e43a42ade6a8e39f94cb8fa8d87f130c46e5a91[ALL]",
            "hex": "493046022100b020ecc7e9c3baabb82cba545f31a1b364f462c7e0a3de3477eac4f423c911fa022100bb0ab3655306559b379f651a3e43a42ade6a8e39f94cb8fa8d87f130c46e5a9101"
          },
          "sequence": 4294967295
        },
        {
          "txid": "3614a7fe707135fea7d9b646e0fcc3a4f7b6a42929df4fecdc972f5bb22b0ef8",
          "vout": 0,
          "scriptSig": {
            "asm": "304502206b0d691c0332694c30223b4541dbba7bf3dd5e66607f317003c3ef7f28fa50e6022100fbcf3ae5e71306e7489d5dc35796585ee25768ef9629a7b6acdb0951727f5cf7[ALL]",
            "hex": "48304502206b0d691c0332694c30223b4541dbba7bf3dd5e66607f317003c3ef7f28fa50e6022100fbcf3ae5e71306e7489d5dc35796585ee25768ef9629a7b6acdb0951727f5cf701"
          },
          "sequence": 4294967295
        },
        {
          "txid": "5c98e15fd2f37006e411d0d8fc7a7b41149678caff0ee06e2fd3bad5621b17fb",
          "vout": 0,
          "scriptSig": {
            "asm": "3045022100ee3b04ff268338c88c4f3c912e5d28c02c5992a563f1ca89fe723214353f63bf0220209fa9eb5d48e9ff7680622ea40736a0e5ca8f4517b2e1a50309897235f75a37[ALL]",
            "hex": "483045022100ee3b04ff268338c88c4f3c912e5d28c02c5992a563f1ca89fe723214353f63bf0220209fa9eb5d48e9ff7680622ea40736a0e5ca8f4517b2e1a50309897235f75a3701"
          },
          "sequence": 4294967295
        }
      ],
      "vout": [
        {
          "value": 350.04,
          "n": 0,
          "scriptPubKey": {
            "asm": "04ad1a9add887e10bd85e633c98af64bf7dbf55ae8e2e5ee1a52df32a6c66e155092fb4dabc8226c0dcf6c8749b8bff1cbb826743d35b05ee865d0fb6dcc20baf1 OP_CHECKSIG",
            "desc": "pk(04ad1a9add887e10bd85e633c98af64bf7dbf55ae8e2e5ee1a52df32a6c66e155092fb4dabc8226c0dcf6c8749b8bff1cbb826743d35b05ee865d0fb6dcc20baf1)#9sz9jt6e",
            "hex": "4104ad1a9add887e10bd85e633c98af64bf7dbf55ae8e2e5ee1a52df32a6c66e155092fb4dabc8226c0dcf6c8749b8bff1cbb826743d35b05ee865d0fb6dcc20baf1ac",
            "type": "pubkey"
          }
        }
      ],
      "fee": 0.0,
      "hex": "010000000a258f81228318c90cb2d67aba535674a43c1fc5c448b000330ca8281e26681f13000000004948304502201da3d69b8a380f3f11324aa2b0b96d030d319ff7db228725ae163d51ac675d53022100997d9bf024e0913d08a16bd29a242d489cbb807f6aa47220a4e8184c464f664801ffffffff2927071de2b29c0ca3a0a65c1f2ba0327604343e9c0b37e21b29b42b6ab7a0e8000000004a493046022100caedbfb04a9f9212ed597282bdfad75dd1cc340112831f6eadde40157b7f4765022100ccad4ea5ef67f041dff13178490cf0cc9da84dfbe2e508ea0edbda236acf8a0a01ffffffff362ab363c176bb9d1c2b0a34693fbe9350dd33026466b032d22c5d56a77576eb0000000048473044022056dabef489593f78ffcc11905d3eee4bf497f216f262f87566b95413a0df856f02201f016e3e4981de65fb32153ea07e79ba87e7aa77f4fe3ec1b438909f83fb362f01ffffffff378bf40d067f72bc8e31e05ff70c42feebfbf9c7f6c7dd67ac619b8018e24ba6000000004a4930460221008dc3ed8c0321eff51b82884dfc9c2ed8fb52e272fc4a9ad3e4e723d2ab572cdc022100ae4616ed7e64940570962ee343e4f529ddf1a99b531d422968e3b3efe4ce0df901ffffffff48d3ae88eb73b9b35c1dd0a0da6411c16225b57eb0c15c36b435ba871c83bf280000000048473044022033f91976dd6c6cf54c1c0d97cf0a8bed154b848e9ed85ec391cb939c1557f61f022043043346d58754ae0f364601755cfddef01e91a0aeafac64daa6dfcfb500272401ffffffff6fe482ab72e23bfcafecf7897d023370541a0acb649c727769d9b34c6bf9d4900000000049483045022100c91853243f5fa68f924afd317bea0a3a2491f41c77343f1cf0987298f06dd43002200ca07407349fe7e547f87c4750aac2e707a78e5f80152fc3e26057c6dc9f3ac701ffffffff85b6c6723b8e3ca2f015adb6271c220b9763dfebc607f993b310988c00f8d06e000000004a493046022100816695f52c8ac7b485257fde3034ee087b728680694dc50b9b2a7eb937419ee5022100ecb8172fc0bbf2ee582631aea59b95538d53db66fa635be33f13504c8696c50c01ffffffffc902ce32cf5b5ce12b5a9567e739e76f9981d801947d9b3ed1dd6af3e079311b000000004a493046022100b020ecc7e9c3baabb82cba545f31a1b364f462c7e0a3de3477eac4f423c911fa022100bb0ab3655306559b379f651a3e43a42ade6a8e39f94cb8fa8d87f130c46e5a9101fffffffff80e2bb25b2f97dcec4fdf2929a4b6f7a4c3fce046b6d9a7fe357170fea71436000000004948304502206b0d691c0332694c30223b4541dbba7bf3dd5e66607f317003c3ef7f28fa50e6022100fbcf3ae5e71306e7489d5dc35796585ee25768ef9629a7b6acdb0951727f5cf701fffffffffb171b62d5bad32f6ee00effca789614417b7afcd8d011e40670f3d25fe1985c0000000049483045022100ee3b04ff268338c88c4f3c912e5d28c02c5992a563f1ca89fe723214353f63bf0220209fa9eb5d48e9ff7680622ea40736a0e5ca8f4517b2e1a50309897235f75a3701ffffffff0100a7662608000000434104ad1a9add887e10bd85e633c98af64bf7dbf55ae8e2e5ee1a52df32a6c66e155092fb4dabc8226c0dcf6c8749b8bff1cbb826743d35b05ee865d0fb6dcc20baf1ac00000000"
    }
  ]
}