{
  "hash": "00000000eb952510b6fe05aa6a0fd7730e49ea18d051be315e50f1007f200829",
  "confirmations": 51031,
  "height": 2067,
  "version": 1,
  "versionHex": "00000001",
  "merkleroot": "0b51d0ecf59074fc5c66f9004dd76d8dcbb08c108aa9d8c145477ed18e62a8f2",
  "time": 1233112769,
  "mediantime": 1233106632,
  "nonce": 2476735237,
  "bits": "1d00ffff",
  "difficulty": 1,
  "chainwork": "0000000000000000000000000000000000000000000000000000081408140814",
  "nTx": 1,
  "previousblockhash": "00000000b0ffc0f6ace673e0e6ad6893546c5c808919e6a15b6b5d51e4d8af70",
  "nextblockhash": "000000009e51da9980dc4f98be36c65abd497fcb009cdfa488467c2f6152805c",
  "strippedsize": 216,
  "size": 216,
  "weight": 864,
  "tx": [
    {
      "txid": "0b51d0ecf59074fc5c66f9004dd76d8dcbb08c108aa9d8c145477ed18e62a8f2",
      "hash": "0b51d0ecf59074fc5c66f9004dd76d8dcbb08c108aa9d8c145477ed18e62a8f2",
      "version": 1,
      "size": 135,
      "vsize": 135,
      "weight": 540,
      "locktime": 0,
      "vin": [
        {
          "coinbase": "04ffff001d022e03",
          "sequence": 4294967295
        }
      ],
      "vout": [
        {
          "value": 50.0,
          "n": 0,
          "scriptPubKey": {
            "asm": "0488087e2cc9a63efbd6e7892ce83dd813ece74ed801bf32752f878c36c642c2aab09ceabcba1a418488e9b34107f33ea848624a804d59f7e24d3f3df8f0161c1f OP_CHECKSIG",
            "desc": "pk(0488087e2cc9a63efbd6e7892ce83dd813ece74ed801bf32752f878c36c642c2aab09ceabcba1a418488e9b34107f33ea848624a804d59f7e24d3f3df8f0161c1f)#h09j4zy6",
            "hex": "410488087e2cc9a63efbd6e7892ce83dd813ece74ed801bf32752f878c36c642c2aab09ceabcba1a418488e9b34107f33ea848624a804d59f7e24d3f3df8f0161c1fac",
            "type": "pubkey"
          }
        }
      ],
      "hex": "01000000010000000000000000000000000000000000000000000000000000000000000000ffffffff0804ffff001d022e03ffffffff0100f2052a0100000043410488087e2cc9a63efbd6e7892ce83dd813ece74ed801bf32752f878c36c642c2aab09ceabcba1a418488e9b34107f33ea848624a804d59f7e24d3f3df8f0161c1fac00000000"
    }
  ]
}