{
  "hash": "000000004f6a440a95a5d2d6c89f3e6b46587cd43f76efbaa96ef5d37ea90961",
  "confirmations": 48132,
  "height": 4966,
  "version": 1,
  "versionHex": "00000001",
  "merkleroot": "fca0ef33d719be00d7cd38b1c7eaa2bcc23948b5be7f7a529f1a459c6a4d40b7",
  "time": 1235116162,
  "mediantime": 1235112225,
  "nonce": 54092790,
  "bits": "1d00ffff",
  "difficulty": 1,
  "chainwork": "0000000000000000000000000000000000000000000000000000136713671367",
  "nTx": 1,
  "previousblockhash": "000000004a90da4d949e089ca717ac1b095cd183fbfc42a71d0e17a7cc11ba2c",
  "nextblockhash": "00000000d6c6d644a13d10d17dc3f6b02a22cfde5412e3c94fa55b54636dc6dd",
  "strippedsize": 215,
  "size": 215,
  "weight": 860,
  "tx": [
    {
      "txid": "fca0ef33d719be00d7cd38b1c7eaa2bcc23948b5be7f7a529f1a459c6a4d40b7",
      "hash": "fca0ef33d719be00d7cd38b1c7eaa2bcc23948b5be7f7a529f1a459c6a4d40b7",
      "version": 1,
      "size": 134,
      "vsize": 134,
      "weight": 536,
      "locktime": 0,
      "vin": [
        {
          "coinbase": "04ffff001d0121",
          "sequence": 4294967295
        }
      ],
      "vout": [
        {
          "value": 50.0,
          "n": 0,
          "scriptPubKey": {
            "asm": "04c20502b45fe276d418a32b55435cb4361dea4e173c36a8e0ad52518b17f2d48cde4336c8ac8d2270e6040469f11c56036db1feef803fb529e36d0f599261cb19 OP_CHECKSIG",
            "desc": "pk(04c20502b45fe276d418a32b55435cb4361dea4e173c36a8e0ad52518b17f2d48cde4336c8ac8d2270e6040469f11c56036db1feef803fb529e36d0f599261cb19)#wp6ccvw2",
            "hex": "4104c20502b45fe276d418a32b55435cb4361dea4e173c36a8e0ad52518b17f2d48cde4336c8ac8d2270e6040469f11c56036db1feef803fb529e36d0f599261cb19ac",
            "type": "pubkey"
          }
        }
      ],
      "hex": "01000000010000000000000000000000000000000000000000000000000000000000000000ffffffff0704ffff001d0121ffffffff0100f2052a01000000434104c20502b45fe276d418a32b55435cb4361dea4e173c36a8e0ad52518b17f2d48cde4336c8ac8d2270e6040469f11c56036db1feef803fb529e36d0f599261cb19ac00000000"
    }
  ]
}