{
  "hash": "00000000d532ccd4d6aa232de2b2350680bad8deefd3eaae33a6a0d3de664371",
  "confirmations": 44520,
  "height": 8578,
  "version": 1,
  "versionHex": "00000001",
  "merkleroot": "3f9973d20e8252682d2ba99d375b075ae5f43fd457d80073844eaba7e47cbdf0",
  "time": 1237933945,
  "mediantime": 1237929201,
  "nonce": 119502456,
  "bits": "1d00ffff",
  "difficulty": 1,
  "chainwork": "0000000000000000000000000000000000000000000000000000218321832183",
  "nTx": 1,
  "previousblockhash": "00000000b6136fc0046b27f01a980ad6c33a7e39fc071d0ff39f974685a98a7f",
  "nextblockhash": "00000000a89935b4d97faa551d7857e2be7dedce240778a90a992a4add30a7bc",
  "strippedsize": 216,
  "size": 216,
  "weight": 864,
  "tx": [
    {
      "txid": "3f9973d20e8252682d2ba99d375b075ae5f43fd457d80073844eaba7e47cbdf0",
      "hash": "3f9973d20e8252682d2ba99d375b075ae5f43fd457d80073844eaba7e47cbdf0",
      "version": 1,
      "size": 135,
      "vsize": 135,
      "weight": 540,
      "locktime": 0,
      "vin": [
        {
          "coinbase": "04ffff001d024802",
          "sequence": 4294967295
        }
      ],
      "vout": [
        {
          "value": 50.0,
          "n": 0,
          "scriptPubKey": {
            "asm": "04b3f5e2a7d0e7306bb04355b4beb15c43d6119b95082c4fc405feb93bb1bd60fdc86dcd1d0b63b91f9549b000867a4d2980ffe6a94436432b516b21fdea828729 OP_CHECKSIG",
            "desc": "pk(04b3f5e2a7d0e7306bb04355b4beb15c43d6119b95082c4fc405feb93bb1bd60fdc86dcd1d0b63b91f9549b000867a4d2980ffe6a94436432b516b21fdea828729)#3fu5ap4d",
            "hex": "4104b3f5e2a7d0e7306bb04355b4beb15c43d6119b95082c4fc405feb93bb1bd60fdc86dcd1d0b63b91f9549b000867a4d2980ffe6a94436432b516b21fdea828729ac",
            "type": "pubkey"
          }
        }
      ],
      "hex": "01000000010000000000000000000000000000000000000000000000000000000000000000ffffffff0804ffff001d024802ffffffff0100f2052a01000000434104b3f5e2a7d0e7306bb04355b4beb15c43d6119b95082c4fc405feb93bb1bd60fdc86dcd1d0b63b91f9549b000867a4d2980ffe6a94436432b516b21fdea828729ac00000000"
    }
  ]
}