{
  "hash": "000000002c5e3814ce745ac44738563d426b5d31df54482673ecb9780d49c63c",
  "confirmations": 44579,
  "height": 8519,
  "version": 1,
  "versionHex": "00000001",
  "merkleroot": "bbb0af4923ab466c9e517a75c5792d635293aefc8cd22f88c16b0985ac95f4ad",
  "time": 1237886549,
  "mediantime": 1237881898,
  "nonce": 3528672562,
  "bits": "1d00ffff",
  "difficulty": 1,
  "chainwork": "0000000000000000000000000000000000000000000000000000214821482148",
  "nTx": 1,
  "previousblockhash": "000000002d0648fdbeb50122f8db286c6748d9ec3b2cef903044c89d15c25f89",
  "nextblockhash": "00000000a68b9688d726301d01c488831ea4de6469472a447a3a213a3dc1f841",
  "strippedsize": 216,
  "size": 216,
  "weight": 864,
  "tx": [
    {
      "txid": "bbb0af4923ab466c9e517a75c5792d635293aefc8cd22f88c16b0985ac95f4ad",
      "hash": "bbb0af4923ab466c9e517a75c5792d635293aefc8cd22f88c16b0985ac95f4ad",
      "version": 1,
      "size": 135,
      "vsize": 135,
      "weight": 540,
      "locktime": 0,
      "vin": [
        {
          "coinbase": "04ffff001d020608",
          "sequence": 4294967295
        }
      ],
      "vout": [
        {
          "value": 50.0,
          "n": 0,
          "scriptPubKey": {
            "asm": "04b209fe93dd3d64ac7847d657212c59a5f42482e7ff99f66452410ac4959c7910412b86b8530826ade71e77627d47fb0bbb2bed36f46e235798f1f7b2b7cb1297 OP_CHECKSIG",
            "desc": "pk(04b209fe93dd3d64ac7847d657212c59a5f42482e7ff99f66452410ac4959c7910412b86b8530826ade71e77627d47fb0bbb2bed36f46e235798f1f7b2b7cb1297)#kmhcqg4p",
            "hex": "4104b209fe93dd3d64ac7847d657212c59a5f42482e7ff99f66452410ac4959c7910412b86b8530826ade71e77627d47fb0bbb2bed36f46e235798f1f7b2b7cb1297ac",
            "type": "pubkey"
          }
        }
      ],
      "hex": "01000000010000000000000000000000000000000000000000000000000000000000000000ffffffff0804ffff001d020608ffffffff0100f2052a01000000434104b209fe93dd3d64ac7847d657212c59a5f42482e7ff99f66452410ac4959c7910412b86b8530826ade71e77627d47fb0bbb2bed36f46e235798f1f7b2b7cb1297ac00000000"
    }
  ]
}