{
  "hash": "00000000e5179e553f69a7a8eb44fb186518d98ea6e14dc7f5797087f3f60a92",
  "confirmations": 45101,
  "height": 7997,
  "version": 1,
  "versionHex": "00000001",
  "merkleroot": "3fb67b380e59ea0e21e323c0f740d31b1493b9d67171eaa809fab0c6ff1b412e",
  "time": 1237460868,
  "mediantime": 1237457997,
  "nonce": 26901767,
  "bits": "1d00ffff",
  "difficulty": 1,
  "chainwork": "00000000000000000000000000000000000000000000000000001f3e1f3e1f3e",
  "nTx": 1,
  "previousblockhash": "00000000b583e20926b44097182e857a95f2127b3e8fab626364b1fb4e9453c2",
  "nextblockhash": "0000000059bb38d53b446f247ccf6c5bf6c1c296890f1f09924ce77ff7720a99",
  "strippedsize": 216,
  "size": 216,
  "weight": 864,
  "tx": [
    {
      "txid": "3fb67b380e59ea0e21e323c0f740d31b1493b9d67171eaa809fab0c6ff1b412e",
      "hash": "3fb67b380e59ea0e21e323c0f740d31b1493b9d67171eaa809fab0c6ff1b412e",
      "version": 1,
      "size": 135,
      "vsize": 135,
      "weight": 540,
      "locktime": 0,
      "vin": [
        {
          "coinbase": "04ffff001d029300",
          "sequence": 4294967295
        }
      ],
      "vout": [
        {
          "value": 50.0,
          "n": 0,
          "scriptPubKey": {
            "asm": "047405692b60b5375b17472351f7e6d712067afd813d8fdedb15f834aa5c8589bdb65859ecec131742891f1052f73f524da2fc73090cf7b0e6cd34333ca7cf4543 OP_CHECKSIG",
            "desc": "pk(047405692b60b5375b17472351f7e6d712067afd813d8fdedb15f834aa5c8589bdb65859ecec131742891f1052f73f524da2fc73090cf7b0e6cd34333ca7cf4543)#0q9tmpu2",
            "hex": "41047405692b60b5375b17472351f7e6d712067afd813d8fdedb15f834aa5c8589bdb65859ecec131742891f1052f73f524da2fc73090cf7b0e6cd34333ca7cf4543ac",
            "type": "pubkey"
          }
        }
      ],
      "hex": "01000000010000000000000000000000000000000000000000000000000000000000000000ffffffff0804ffff001d029300ffffffff0100f2052a010000004341047405692b60b5375b17472351f7e6d712067afd813d8fdedb15f834aa5c8589bdb65859ecec131742891f1052f73f524da2fc73090cf7b0e6cd34333ca7cf4543ac00000000"
    }
  ]
}