{
  "hash": "000000001949d2e66888c9f734f4d061e5dc942fc5b399ee3dc3f67dd8663ed7",
  "confirmations": 46812,
  "height": 6286,
  "version": 1,
  "versionHex": "00000001",
  "merkleroot": "b87b1d61700e6455d7cc9a5618ea361c7ad51de8a97482e6d083c9fd20cbbf96",
  "time": 1236159970,
  "mediantime": 1236155205,
  "nonce": 2329675062,
  "bits": "1d00ffff",
  "difficulty": 1,
  "chainwork": "0000000000000000000000000000000000000000000000000000188f188f188f",
  "nTx": 1,
  "previousblockhash": "000000000477ad4733fe68d6f813c81110d8bb886af9ee892b37b06c1399f6fd",
  "nextblockhash": "00000000a56ca23f24f2abe452198a521e40bde5fe35f094119a0d922511fc5c",
  "strippedsize": 216,
  "size": 216,
  "weight": 864,
  "tx": [
    {
      "txid": "b87b1d61700e6455d7cc9a5618ea361c7ad51de8a97482e6d083c9fd20cbbf96",
      "hash": "b87b1d61700e6455d7cc9a5618ea361c7ad51de8a97482e6d083c9fd20cbbf96",
      "version": 1,
      "size": 135,
      "vsize": 135,
      "weight": 540,
      "locktime": 0,
      "vin": [
        {
          "coinbase": "04ffff001d021b0a",
          "sequence": 4294967295
        }
      ],
      "vout": [
        {
          "value": 50.0,
          "n": 0,
          "scriptPubKey": {
            "asm": "049fb15c3c0b8eca9a9a7fd3cb29bd0cc628ccb657ecc3f03aa41e291f8349bd138572859589af5c442d7424f718e12dd75997a4ed0c7762f36af9e5298f4c63fd OP_CHECKSIG",
            "desc": "pk(049fb15c3c0b8eca9a9a7fd3cb29bd0cc628ccb657ecc3f03aa41e291f8349bd138572859589af5c442d7424f718e12dd75997a4ed0c7762f36af9e5298f4c63fd)#yr53h5qw",
            "hex": "41049fb15c3c0b8eca9a9a7fd3cb29bd0cc628ccb657ecc3f03aa41e291f8349bd138572859589af5c442d7424f718e12dd75997a4ed0c7762f36af9e5298f4c63fdac",
            "type": "pubkey"
          }
        }
      ],
      "hex": "01000000010000000000000000000000000000000000000000000000000000000000000000ffffffff0804ffff001d021b0affffffff0100f2052a010000004341049fb15c3c0b8eca9a9a7fd3cb29bd0cc628ccb657ecc3f03aa41e291f8349bd138572859589af5c442d7424f718e12dd75997a4ed0c7762f36af9e5298f4c63fdac00000000"
    }
  ]
}