{
  "hash": "00000000fd8ce4faf105deace49d2e0477771855e02a6ddaa76f6f9f4d1abdd0",
  "confirmations": 47028,
  "height": 6070,
  "version": 1,
  "versionHex": "00000001",
  "merkleroot": "8e5271cd15a52d2a608cf6e1bc81b9304917da8b0c004b9c07d2dcd23ef03133",
  "time": 1235984061,
  "mediantime": 1235980780,
  "nonce": 4093786920,
  "bits": "1d00ffff",
  "difficulty": 1,
  "chainwork": "000000000000000000000000000000000000000000000000000017b717b717b7",
  "nTx": 1,
  "previousblockhash": "00000000dba07cbae5f948ee2d670531c3f588905339444540ce862239ab87a3",
  "nextblockhash": "0000000058b5a8ee24b37587bfb1583a8682601b106eedf07616f996166d64fe",
  "strippedsize": 216,
  "size": 216,
  "weight": 864,
  "tx": [
    {
      "txid": "8e5271cd15a52d2a608cf6e1bc81b9304917da8b0c004b9c07d2dcd23ef03133",
      "hash": "8e5271cd15a52d2a608cf6e1bc81b9304917da8b0c004b9c07d2dcd23ef03133",
      "version": 1,
      "size": 135,
      "vsize": 135,
      "weight": 540,
      "locktime": 0,
      "vin": [
        {
          "coinbase": "04ffff001d023f06",
          "sequence": 4294967295
        }
      ],
      "vout": [
        {
          "value": 50.0,
          "n": 0,
          "scriptPubKey": {
            "asm": "0441444bb0341e297c9bc31b2eabbca6a779c04fed105492a1b934a7786272d73bd772daf27a8871d1a9f529d543090fe034f6987a4ff392f722aabd514213f531 OP_CHECKSIG",
            "desc": "pk(0441444bb0341e297c9bc31b2eabbca6a779c04fed105492a1b934a7786272d73bd772daf27a8871d1a9f529d543090fe034f6987a4ff392f722aabd514213f531)#2rupp2lu",
            "hex": "410441444bb0341e297c9bc31b2eabbca6a779c04fed105492a1b934a7786272d73bd772daf27a8871d1a9f529d543090fe034f6987a4ff392f722aabd514213f531ac",
            "type": "pubkey"
          }
        }
      ],
      "hex": "01000000010000000000000000000000000000000000000000000000000000000000000000ffffffff0804ffff001d023f06ffffffff0100f2052a0100000043410441444bb0341e297c9bc31b2eabbca6a779c04fed105492a1b934a7786272d73bd772daf27a8871d1a9f529d543090fe034f6987a4ff392f722aabd514213f531ac00000000"
    }
  ]
}