{
  "hash": "000000002bbc2f916e063afff0c1e62318a4e924749a799f7fee57751ad97ece",
  "confirmations": 43817,
  "height": 9281,
  "version": 1,
  "versionHex": "00000001",
  "merkleroot": "a6c83e3e2721e303647b5de8f2d3bf90ff9427f5a36fd3cf32b23f92970c4af6",
  "time": 1238458758,
  "mediantime": 1238455354,
  "nonce": 2645491715,
  "bits": "1d00ffff",
  "difficulty": 1,
  "chainwork": "0000000000000000000000000000000000000000000000000000244224422442",
  "nTx": 1,
  "previousblockhash": "00000000efeaab82fbc4270997b41c11481f4d92c6e334585f744d0d7074cf89",
  "nextblockhash": "000000004a264c6b89385ee2ece891a6a8b6b1017bcac3bd790f5c5f8727ffe0",
  "strippedsize": 216,
  "size": 216,
  "weight": 864,
  "tx": [
    {
      "txid": "a6c83e3e2721e303647b5de8f2d3bf90ff9427f5a36fd3cf32b23f92970c4af6",
      "hash": "a6c83e3e2721e303647b5de8f2d3bf90ff9427f5a36fd3cf32b23f92970c4af6",
      "version": 1,
      "size": 135,
      "vsize": 135,
      "weight": 540,
      "locktime": 0,
      "vin": [
        {
          "coinbase": "04ffff001d026b01",
          "sequence": 4294967295
        }
      ],
      "vout": [
        {
          "value": 50.0,
          "n": 0,
          "scriptPubKey": {
            "asm": "04013efbdef60b6266cb1e4766e8e042b4c2a378b07980df620217443524bbd1616558395b1c632aa74c72757ca8bf4644eb75e2b766b60d155031baefa5fe990d OP_CHECKSIG",
            "desc": "pk(04013efbdef60b6266cb1e4766e8e042b4c2a378b07980df620217443524bbd1616558395b1c632aa74c72757ca8bf4644eb75e2b766b60d155031baefa5fe990d)#4se6kxm7",
            "hex": "4104013efbdef60b6266cb1e4766e8e042b4c2a378b07980df620217443524bbd1616558395b1c632aa74c72757ca8bf4644eb75e2b766b60d155031baefa5fe990dac",
            "type": "pubkey"
          }
        }
      ],
      "hex": "01000000010000000000000000000000000000000000000000000000000000000000000000ffffffff0804ffff001d026b01ffffffff0100f2052a01000000434104013efbdef60b6266cb1e4766e8e042b4c2a378b07980df620217443524bbd1616558395b1c632aa74c72757ca8bf4644eb75e2b766b60d155031baefa5fe990dac00000000"
    }
  ]
}