{
  "hash": "00000000d36f52dea96dba970bebce469442d89507eb5bf5b39991755b6e791f",
  "confirmations": 45931,
  "height": 7167,
  "version": 1,
  "versionHex": "00000001",
  "merkleroot": "232f2044dad4a3b8bd602c277639f343dd213274d794e65632fa111346866ebe",
  "time": 1236846778,
  "mediantime": 1236842481,
  "nonce": 34783590,
  "bits": "1d00ffff",
  "difficulty": 1,
  "chainwork": "00000000000000000000000000000000000000000000000000001c001c001c00",
  "nTx": 1,
  "previousblockhash": "00000000d17c1b768f3b494e83d6a22fe748aaa9fc49dc6ef0bd2297132380d8",
  "nextblockhash": "000000007bf41fadd7421e34b71f9e0f6accc14a323836e1bc8cc8445c9ebdfb",
  "strippedsize": 215,
  "size": 215,
  "weight": 860,
  "tx": [
    {
      "txid": "232f2044dad4a3b8bd602c277639f343dd213274d794e65632fa111346866ebe",
      "hash": "232f2044dad4a3b8bd602c277639f343dd213274d794e65632fa111346866ebe",
      "version": 1,
      "size": 134,
      "vsize": 134,
      "weight": 536,
      "locktime": 0,
      "vin": [
        {
          "coinbase": "04ffff001d0161",
          "sequence": 4294967295
        }
      ],
      "vout": [
        {
          "value": 50.0,
          "n": 0,
          "scriptPubKey": {
            "asm": "04c7692ba71c85657f3b9ef70a4f764d91e945e2fb6d705f4287c561603f8bb925adba0c3f4089c4dfd46bf3cc7d5f5618849dc6d7f4f8725e7a224d8a469a2f79 OP_CHECKSIG",
            "desc": "pk(04c7692ba71c85657f3b9ef70a4f764d91e945e2fb6d705f4287c561603f8bb925adba0c3f4089c4dfd46bf3cc7d5f5618849dc6d7f4f8725e7a224d8a469a2f79)#erpnhgzx",
            "hex": "4104c7692ba71c85657f3b9ef70a4f764d91e945e2fb6d705f4287c561603f8bb925adba0c3f4089c4dfd46bf3cc7d5f5618849dc6d7f4f8725e7a224d8a469a2f79ac",
            "type": "pubkey"
          }
        }
      ],
      "hex": "01000000010000000000000000000000000000000000000000000000000000000000000000ffffffff0704ffff001d0161ffffffff0100f2052a01000000434104c7692ba71c85657f3b9ef70a4f764d91e945e2fb6d705f4287c561603f8bb925adba0c3f4089c4dfd46bf3cc7d5f5618849dc6d7f4f8725e7a224d8a469a2f79ac00000000"
    }
  ]
}