{
  "hash": "0000000004bd76435430c3ec3f313a7935c48782c7313c3519488ef6a348acab",
  "confirmations": 43131,
  "height": 9967,
  "version": 1,
  "versionHex": "00000001",
  "merkleroot": "6ac9f63f2adf3ecafe2606ea50d66f14719d80860279ea6de4ca4180663ad81a",
  "time": 1238968196,
  "mediantime": 1238964216,
  "nonce": 892268588,
  "bits": "1d00ffff",
  "difficulty": 1,
  "chainwork": "000000000000000000000000000000000000000000000000000026f026f026f0",
  "nTx": 1,
  "previousblockhash": "00000000d3fd563fa90b2564190cb1b1babad4348ca6cac6ef7fb05045aebd0d",
  "nextblockhash": "000000002c1bcf6765602f5fb4e250000a672a98b657c5e3c1cce1fc1193bab5",
  "strippedsize": 216,
  "size": 216,
  "weight": 864,
  "tx": [
    {
      "txid": "6ac9f63f2adf3ecafe2606ea50d66f14719d80860279ea6de4ca4180663ad81a",
      "hash": "6ac9f63f2adf3ecafe2606ea50d66f14719d80860279ea6de4ca4180663ad81a",
      "version": 1,
      "size": 135,
      "vsize": 135,
      "weight": 540,
      "locktime": 0,
      "vin": [
        {
          "coinbase": "04ffff001d02f202",
          "sequence": 4294967295
        }
      ],
      "vout": [
        {
          "value": 50.0,
          "n": 0,
          "scriptPubKey": {
            "asm": "04951abe86f7bbfe378713b91c29272afe41d591e6161d5c266b85596e10f71cf4929c8201dce7750a4512b73c4dc1942cf466cd3622c5678293954ed4e2936a7f OP_CHECKSIG",
            "desc": "pk(04951abe86f7bbfe378713b91c29272afe41d591e6161d5c266b85596e10f71cf4929c8201dce7750a4512b73c4dc1942cf466cd3622c5678293954ed4e2936a7f)#gjqvexhn",
            "hex": "4104951abe86f7bbfe378713b91c29272afe41d591e6161d5c266b85596e10f71cf4929c8201dce7750a4512b73c4dc1942cf466cd3622c5678293954ed4e2936a7fac",
            "type": "pubkey"
          }
        }
      ],
      "hex": "01000000010000000000000000000000000000000000000000000000000000000000000000ffffffff0804ffff001d02f202ffffffff0100f2052a01000000434104951abe86f7bbfe378713b91c29272afe41d591e6161d5c266b85596e10f71cf4929c8201dce7750a4512b73c4dc1942cf466cd3622c5678293954ed4e2936a7fac00000000"
    }
  ]
}