{
  "hash": "000000000108aaf29957b945ae48abf9419b7b23c265d81493eae01ca7472cb8",
  "confirmations": 50953,
  "height": 2145,
  "version": 1,
  "versionHex": "00000001",
  "merkleroot": "4d48aebd8bf84a3209ee372a4ff521a746fcb595808fd87675640460e1ceed3a",
  "time": 1233172816,
  "mediantime": 1233168441,
  "nonce": 1070300195,
  "bits": "1d00ffff",
  "difficulty": 1,
  "chainwork": "0000000000000000000000000000000000000000000000000000086208620862",
  "nTx": 1,
  "previousblockhash": "0000000080af307a7f9f2edc93a9a8846886a1a6f7031a009132d04b1691bc74",
  "nextblockhash": "000000006533f32f413c4db58b1e2f570c70617c98cec29d42b226cd26690f02",
  "strippedsize": 215,
  "size": 215,
  "weight": 860,
  "tx": [
    {
      "txid": "4d48aebd8bf84a3209ee372a4ff521a746fcb595808fd87675640460e1ceed3a",
      "hash": "4d48aebd8bf84a3209ee372a4ff521a746fcb595808fd87675640460e1ceed3a",
      "version": 1,
      "size": 134,
      "vsize": 134,
      "weight": 536,
      "locktime": 0,
      "vin": [
        {
          "coinbase": "04ffff001d015f",
          "sequence": 4294967295
        }
      ],
      "vout": [
        {
          "value": 50.0,
          "n": 0,
          "scriptPubKey": {
            "asm": "04002f406cc2449467fff071d455e72cb41024fad4ff9e6c7540f901b845190a2d26f0440895b968e3b4c9a426d93053f2ba2c1ff25b20641e8e0023e545db907d OP_CHECKSIG",
            "desc": "pk(04002f406cc2449467fff071d455e72cb41024fad4ff9e6c7540f901b845190a2d26f0440895b968e3b4c9a426d93053f2ba2c1ff25b20641e8e0023e545db907d)#htryhgg2",
            "hex": "4104002f406cc2449467fff071d455e72cb41024fad4ff9e6c7540f901b845190a2d26f0440895b968e3b4c9a426d93053f2ba2c1ff25b20641e8e0023e545db907dac",
            "type": "pubkey"
          }
        }
      ],
      "hex": "01000000010000000000000000000000000000000000000000000000000000000000000000ffffffff0704ffff001d015fffffffff0100f2052a01000000434104002f406cc2449467fff071d455e72cb41024fad4ff9e6c7540f901b845190a2d26f0440895b968e3b4c9a426d93053f2ba2c1ff25b20641e8e0023e545db907dac00000000"
    }
  ]
}