{
  "hash": "00000000da2620578421bef48e904ed4cbdde9241d887d27a0c92dced7a5e380",
  "confirmations": 47354,
  "height": 5744,
  "version": 1,
  "versionHex": "00000001",
  "merkleroot": "331ba6c7e01530ac9d73bf87a30db8155b2347ef22ecc361b1deda5ace8bc16f",
  "time": 1235716549,
  "mediantime": 1235713253,
  "nonce": 3160203800,
  "bits": "1d00ffff",
  "difficulty": 1,
  "chainwork": "0000000000000000000000000000000000000000000000000000167116711671",
  "nTx": 1,
  "previousblockhash": "00000000b9398f1b4ed08d3288f187239644e534184051835a02a0eca0400575",
  "nextblockhash": "00000000c8d895150743b70dcfbadbbc5daaae7ec8d697d1a02ea2d5e3b56aa3",
  "strippedsize": 216,
  "size": 216,
  "weight": 864,
  "tx": [
    {
      "txid": "331ba6c7e01530ac9d73bf87a30db8155b2347ef22ecc361b1deda5ace8bc16f",
      "hash": "331ba6c7e01530ac9d73bf87a30db8155b2347ef22ecc361b1deda5ace8bc16f",
      "version": 1,
      "size": 135,
      "vsize": 135,
      "weight": 540,
      "locktime": 0,
      "vin": [
        {
          "coinbase": "04ffff001d022b0a",
          "sequence": 4294967295
        }
      ],
      "vout": [
        {
          "value": 50.0,
          "n": 0,
          "scriptPubKey": {
            "asm": "044f35f095b17524dc344a9176cc89057c2278fa4ec72f16a1a7ca66411dbdcdc75dd0b70fcd9325b3b7adc103ce602a3f79c6a6222c65750f0dccc1f328f6a02b OP_CHECKSIG",
            "desc": "pk(044f35f095b17524dc344a9176cc89057c2278fa4ec72f16a1a7ca66411dbdcdc75dd0b70fcd9325b3b7adc103ce602a3f79c6a6222c65750f0dccc1f328f6a02b)#h6802wnm",
            "hex": "41044f35f095b17524dc344a9176cc89057c2278fa4ec72f16a1a7ca66411dbdcdc75dd0b70fcd9325b3b7adc103ce602a3f79c6a6222c65750f0dccc1f328f6a02bac",
            "type": "pubkey"
          }
        }
      ],
      "hex": "01000000010000000000000000000000000000000000000000000000000000000000000000ffffffff0804ffff001d022b0affffffff0100f2052a010000004341044f35f095b17524dc344a9176cc89057c2278fa4ec72f16a1a7ca66411dbdcdc75dd0b70fcd9325b3b7adc103ce602a3f79c6a6222c65750f0dccc1f328f6a02bac00000000"
    }
  ]
}