{
  "hash": "000000002fdf6fd4dc8c37d894e5a188c2878135f4b875fd3d7aa3ad987a0bfd",
  "confirmations": 51135,
  "height": 1963,
  "version": 1,
  "versionHex": "00000001",
  "merkleroot": "ce893272519cbfcf160a5a9ac7b4cc6500eb94bef1e5c23e908a28d99c9eb108",
  "time": 1233019380,
  "mediantime": 1233014006,
  "nonce": 263826483,
  "bits": "1d00ffff",
  "difficulty": 1,
  "chainwork": "000000000000000000000000000000000000000000000000000007ac07ac07ac",
  "nTx": 1,
  "previousblockhash": "000000000354f5855e16e6079550d4a6ec7338afc03fea201102fea5669f20d3",
  "nextblockhash": "0000000011436617b0ba1502dba2ffcb18d373d860f827717af1503366969bc1",
  "strippedsize": 216,
  "size": 216,
  "weight": 864,
  "tx": [
    {
      "txid": "ce893272519cbfcf160a5a9ac7b4cc6500eb94bef1e5c23e908a28d99c9eb108",
      "hash": "ce893272519cbfcf160a5a9ac7b4cc6500eb94bef1e5c23e908a28d99c9eb108",
      "version": 1,
      "size": 135,
      "vsize": 135,
      "weight": 540,
      "locktime": 0,
      "vin": [
        {
          "coinbase": "04ffff001d02ec00",
          "sequence": 4294967295
        }
      ],
      "vout": [
        {
          "value": 50.0,
          "n": 0,
          "scriptPubKey": {
            "asm": "046b94f77f74f9a76cf9550bb3ecfe99f83226b7b8d45f437b61d414af14bdc46266a9222812af872a3ddc4f857de127256a7a7451ade87ca7195d85a5e52f86bf OP_CHECKSIG",
            "desc": "pk(046b94f77f74f9a76cf9550bb3ecfe99f83226b7b8d45f437b61d414af14bdc46266a9222812af872a3ddc4f857de127256a7a7451ade87ca7195d85a5e52f86bf)#2favucsh",
            "hex": "41046b94f77f74f9a76cf9550bb3ecfe99f83226b7b8d45f437b61d414af14bdc46266a9222812af872a3ddc4f857de127256a7a7451ade87ca7195d85a5e52f86bfac",
            "type": "pubkey"
          }
        }
      ],
      "hex": "01000000010000000000000000000000000000000000000000000000000000000000000000ffffffff0804ffff001d02ec00ffffffff0100f2052a010000004341046b94f77f74f9a76cf9550bb3ecfe99f83226b7b8d45f437b61d414af14bdc46266a9222812af872a3ddc4f857de127256a7a7451ade87ca7195d85a5e52f86bfac00000000"
    }
  ]
}