{
  "hash": "00000000b27160fd27b8c14c3f905e7c3248256d0d1e005eaab14e2b3bd0d16d",
  "confirmations": 50314,
  "height": 2784,
  "version": 1,
  "versionHex": "00000001",
  "merkleroot": "94bd9723c87690e6c1be9d8df97bfddb187f2daf24bf81463ec4b6426c949c96",
  "time": 1233618919,
  "mediantime": 1233616114,
  "nonce": 3041562657,
  "bits": "1d00ffff",
  "difficulty": 1,
  "chainwork": "00000000000000000000000000000000000000000000000000000ae10ae10ae1",
  "nTx": 1,
  "previousblockhash": "00000000c98f59291e695e46f69b6d20f3a45767fa6804636a8dd911955a917f",
  "nextblockhash": "0000000024ee05e0c277c9cdc20f68a143443a7bc52d1ddbca62fa8f4671bc14",
  "strippedsize": 216,
  "size": 216,
  "weight": 864,
  "tx": [
    {
      "txid": "94bd9723c87690e6c1be9d8df97bfddb187f2daf24bf81463ec4b6426c949c96",
      "hash": "94bd9723c87690e6c1be9d8df97bfddb187f2daf24bf81463ec4b6426c949c96",
      "version": 1,
      "size": 135,
      "vsize": 135,
      "weight": 540,
      "locktime": 0,
      "vin": [
        {
          "coinbase": "04ffff001d02fb05",
          "sequence": 4294967295
        }
      ],
      "vout": [
        {
          "value": 50.0,
          "n": 0,
          "scriptPubKey": {
            "asm": "04238f4a4f8d4efd44f943da26ee12f5269615425f37b9bc1422f7482fa1709cd35572cebc52afc584fb275f4a607b42c819de300e23d0dfc583a8e56db252956e OP_CHECKSIG",
            "desc": "pk(04238f4a4f8d4efd44f943da26ee12f5269615425f37b9bc1422f7482fa1709cd35572cebc52afc584fb275f4a607b42c819de300e23d0dfc583a8e56db252956e)#0fa92gx7",
            "hex": "4104238f4a4f8d4efd44f943da26ee12f5269615425f37b9bc1422f7482fa1709cd35572cebc52afc584fb275f4a607b42c819de300e23d0dfc583a8e56db252956eac",
            "type": "pubkey"
          }
        }
      ],
      "hex": "01000000010000000000000000000000000000000000000000000000000000000000000000ffffffff0804ffff001d02fb05ffffffff0100f2052a01000000434104238f4a4f8d4efd44f943da26ee12f5269615425f37b9bc1422f7482fa1709cd35572cebc52afc584fb275f4a607b42c819de300e23d0dfc583a8e56db252956eac00000000"
    }
  ]
}