{
  "hash": "0000000027f405f71ba9d1fb7239f96d32ae3b55d81237051243ff86ddd7a0c9",
  "confirmations": 47956,
  "height": 5142,
  "version": 1,
  "versionHex": "00000001",
  "merkleroot": "636c4fb9b612a2e3fae6bee3ae7affdef85d5fe9f1da6529b8b06fc22f9a21b5",
  "time": 1235245943,
  "mediantime": 1235242369,
  "nonce": 1321430581,
  "bits": "1d00ffff",
  "difficulty": 1,
  "chainwork": "0000000000000000000000000000000000000000000000000000141714171417",
  "nTx": 1,
  "previousblockhash": "000000003562ac5b8c41bf0ed09ab126ac1bf5b244b65066df51472267c4d5f8",
  "nextblockhash": "00000000216216c3bd47e4c75660053f43b6035828f00e4ade750de93b1efcec",
  "strippedsize": 216,
  "size": 216,
  "weight": 864,
  "tx": [
    {
      "txid": "636c4fb9b612a2e3fae6bee3ae7affdef85d5fe9f1da6529b8b06fc22f9a21b5",
      "hash": "636c4fb9b612a2e3fae6bee3ae7affdef85d5fe9f1da6529b8b06fc22f9a21b5",
      "version": 1,
      "size": 135,
      "vsize": 135,
      "weight": 540,
      "locktime": 0,
      "vin": [
        {
          "coinbase": "04ffff001d02ca09",
          "sequence": 4294967295
        }
      ],
      "vout": [
        {
          "value": 50.0,
          "n": 0,
          "scriptPubKey": {
            "asm": "04430c0f0d2f3cf9233da474ed27dc08c9788a48ccc48b8ade86e622fc470ebe9636017d68759c2557c9decee678cf4919a522dd3fb18eae68641d89d97a5e00ba OP_CHECKSIG",
            "desc": "pk(04430c0f0d2f3cf9233da474ed27dc08c9788a48ccc48b8ade86e622fc470ebe9636017d68759c2557c9decee678cf4919a522dd3fb18eae68641d89d97a5e00ba)#r7x44x0s",
            "hex": "4104430c0f0d2f3cf9233da474ed27dc08c9788a48ccc48b8ade86e622fc470ebe9636017d68759c2557c9decee678cf4919a522dd3fb18eae68641d89d97a5e00baac",
            "type": "pubkey"
          }
        }
      ],
      "hex": "01000000010000000000000000000000000000000000000000000000000000000000000000ffffffff0804ffff001d02ca09ffffffff0100f2052a01000000434104430c0f0d2f3cf9233da474ed27dc08c9788a48ccc48b8ade86e622fc470ebe9636017d68759c2557c9decee678cf4919a522dd3fb18eae68641d89d97a5e00baac00000000"
    }
  ]
}