{
  "hash": "000000005fc0564918d56e12523d158e0d452fabec129c6ad627908b4725fa63",
  "confirmations": 50704,
  "height": 2394,
  "version": 1,
  "versionHex": "00000001",
  "merkleroot": "75f8ddb4c7dbee2ff1d64dbcd0d9a439b14232b1cf2306654c69a1c26e29ea30",
  "time": 1233349155,
  "mediantime": 1233345496,
  "nonce": 968008999,
  "bits": "1d00ffff",
  "difficulty": 1,
  "chainwork": "0000000000000000000000000000000000000000000000000000095b095b095b",
  "nTx": 1,
  "previousblockhash": "000000005ae417501a41f95d138182e6b6922f1defb43c822ae25a04106fbbac",
  "nextblockhash": "000000006cef7c465cdc7ceb4587fe4c1cd7ca3269edf9bb53623eee6cf50356",
  "strippedsize": 216,
  "size": 216,
  "weight": 864,
  "tx": [
    {
      "txid": "75f8ddb4c7dbee2ff1d64dbcd0d9a439b14232b1cf2306654c69a1c26e29ea30",
      "hash": "75f8ddb4c7dbee2ff1d64dbcd0d9a439b14232b1cf2306654c69a1c26e29ea30",
      "version": 1,
      "size": 135,
      "vsize": 135,
      "weight": 540,
      "locktime": 0,
      "vin": [
        {
          "coinbase": "04ffff001d02a503",
          "sequence": 4294967295
        }
      ],
      "vout": [
        {
          "value": 50.0,
          "n": 0,
          "scriptPubKey": {
            "asm": "04ca872902a168868185739b480b985d4063d569aa0950daeea2adb69907f1d09ae8143d13161c6c33e24701885ec750437a7d5738a3ca0e694b37c91c23d3ec3d OP_CHECKSIG",
            "desc": "pk(04ca872902a168868185739b480b985d4063d569aa0950daeea2adb69907f1d09ae8143d13161c6c33e24701885ec750437a7d5738a3ca0e694b37c91c23d3ec3d)#7kxq6nwa",
            "hex": "4104ca872902a168868185739b480b985d4063d569aa0950daeea2adb69907f1d09ae8143d13161c6c33e24701885ec750437a7d5738a3ca0e694b37c91c23d3ec3dac",
            "type": "pubkey"
          }
        }
      ],
      "hex": "01000000010000000000000000000000000000000000000000000000000000000000000000ffffffff0804ffff001d02a503ffffffff0100f2052a01000000434104ca872902a168868185739b480b985d4063d569aa0950daeea2adb69907f1d09ae8143d13161c6c33e24701885ec750437a7d5738a3ca0e694b37c91c23d3ec3dac00000000"
    }
  ]
}