{
  "hash": "000000008b0995d4021e3e6f26de45cea8a3d7a33566656baa93e034239895bc",
  "confirmations": 50716,
  "height": 2382,
  "version": 1,
  "versionHex": "00000001",
  "merkleroot": "6cd01bb1243eb9b0a2ce9b2ba3d7c6410ad91e6f0f54944fe330399352cb3454",
  "time": 1233340229,
  "mediantime": 1233336378,
  "nonce": 3227701304,
  "bits": "1d00ffff",
  "difficulty": 1,
  "chainwork": "0000000000000000000000000000000000000000000000000000094f094f094f",
  "nTx": 1,
  "previousblockhash": "00000000cb9cf810f154eca3b897fb9fc32d5ad6b118d8f3ef25ec855bead8a9",
  "nextblockhash": "0000000074c231be4740a4e86bdac239d601e5377048420bc4eed5166d125c6a",
  "strippedsize": 216,
  "size": 216,
  "weight": 864,
  "tx": [
    {
      "txid": "6cd01bb1243eb9b0a2ce9b2ba3d7c6410ad91e6f0f54944fe330399352cb3454",
      "hash": "6cd01bb1243eb9b0a2ce9b2ba3d7c6410ad91e6f0f54944fe330399352cb3454",
      "version": 1,
      "size": 135,
      "vsize": 135,
      "weight": 540,
      "locktime": 0,
      "vin": [
        {
          "coinbase": "04ffff001d024d03",
          "sequence": 4294967295
        }
      ],
      "vout": [
        {
          "value": 50.0,
          "n": 0,
          "scriptPubKey": {
            "asm": "0432ec5d4058ed92b0b513e6f337a6fa7bd58c548fd27cd52840889bf0a5d1786b40083351a88518bc16ab0b8dd04b374cb139a00f4f7d807358f8b150ecc79b27 OP_CHECKSIG",
            "desc": "pk(0432ec5d4058ed92b0b513e6f337a6fa7bd58c548fd27cd52840889bf0a5d1786b40083351a88518bc16ab0b8dd04b374cb139a00f4f7d807358f8b150ecc79b27)#c06t45k3",
            "hex": "410432ec5d4058ed92b0b513e6f337a6fa7bd58c548fd27cd52840889bf0a5d1786b40083351a88518bc16ab0b8dd04b374cb139a00f4f7d807358f8b150ecc79b27ac",
            "type": "pubkey"
          }
        }
      ],
      "hex": "01000000010000000000000000000000000000000000000000000000000000000000000000ffffffff0804ffff001d024d03ffffffff0100f2052a0100000043410432ec5d4058ed92b0b513e6f337a6fa7bd58c548fd27cd52840889bf0a5d1786b40083351a88518bc16ab0b8dd04b374cb139a00f4f7d807358f8b150ecc79b27ac00000000"
    }
  ]
}