{
  "hash": "00000000ae642cc8a1b01aad9b83a0f216b9db53764c6e69f0f5911f71ec20be",
  "confirmations": 46259,
  "height": 6839,
  "version": 1,
  "versionHex": "00000001",
  "merkleroot": "9e43b71f9522079b5226bbe74e471d78b6a078063566b00e5a684bc1c4776351",
  "time": 1236585852,
  "mediantime": 1236581566,
  "nonce": 3569652538,
  "bits": "1d00ffff",
  "difficulty": 1,
  "chainwork": "00000000000000000000000000000000000000000000000000001ab81ab81ab8",
  "nTx": 1,
  "previousblockhash": "00000000dd41ae581467f58797ae4dd936d83a6175a49405eea334bfd99834e4",
  "nextblockhash": "000000005ae7441a7d706bf6a79ef3c241c8076668fa36ef0506b9a81e583978",
  "strippedsize": 216,
  "size": 216,
  "weight": 864,
  "tx": [
    {
      "txid": "9e43b71f9522079b5226bbe74e471d78b6a078063566b00e5a684bc1c4776351",
      "hash": "9e43b71f9522079b5226bbe74e471d78b6a078063566b00e5a684bc1c4776351",
      "version": 1,
      "size": 135,
      "vsize": 135,
      "weight": 540,
      "locktime": 0,
      "vin": [
        {
          "coinbase": "04ffff001d028709",
          "sequence": 4294967295
        }
      ],
      "vout": [
        {
          "value": 50.0,
          "n": 0,
          "scriptPubKey": {
            "asm": "0452277611fb38f3da4ac23f07ae6034a95caada5c9f481e653e5bbfb0aa74fb487f0a7d5caf60ab51742273971e18d49d4842b6c975669ab612456b5bc639c034 OP_CHECKSIG",
            "desc": "pk(0452277611fb38f3da4ac23f07ae6034a95caada5c9f481e653e5bbfb0aa74fb487f0a7d5caf60ab51742273971e18d49d4842b6c975669ab612456b5bc639c034)#4zcmntce",
            "hex": "410452277611fb38f3da4ac23f07ae6034a95caada5c9f481e653e5bbfb0aa74fb487f0a7d5caf60ab51742273971e18d49d4842b6c975669ab612456b5bc639c034ac",
            "type": "pubkey"
          }
        }
      ],
      "hex": "01000000010000000000000000000000000000000000000000000000000000000000000000ffffffff0804ffff001d028709ffffffff0100f2052a0100000043410452277611fb38f3da4ac23f07ae6034a95caada5c9f481e653e5bbfb0aa74fb487f0a7d5caf60ab51742273971e18d49d4842b6c975669ab612456b5bc639c034ac00000000"
    }
  ]
}