{
  "hash": "000000002714afd459070dc0fe4073c60482e4bacca2a4c6c801447c367726f7",
  "confirmations": 50346,
  "height": 2752,
  "version": 1,
  "versionHex": "00000001",
  "merkleroot": "85814d23af094cce2f64bcc01b15a7e6d9d0e4e722a64cd8374b03919fd4f441",
  "time": 1233597884,
  "mediantime": 1233595159,
  "nonce": 2161173047,
  "bits": "1d00ffff",
  "difficulty": 1,
  "chainwork": "00000000000000000000000000000000000000000000000000000ac10ac10ac1",
  "nTx": 1,
  "previousblockhash": "000000000c6232610bb9d7514e3ae66257d140f15983b472418e804014a4c514",
  "nextblockhash": "000000001d307c7681bfc13da72ceb92f7bcce29e956261eafa18210d558aca1",
  "strippedsize": 216,
  "size": 216,
  "weight": 864,
  "tx": [
    {
      "txid": "85814d23af094cce2f64bcc01b15a7e6d9d0e4e722a64cd8374b03919fd4f441",
      "hash": "85814d23af094cce2f64bcc01b15a7e6d9d0e4e722a64cd8374b03919fd4f441",
      "version": 1,
      "size": 135,
      "vsize": 135,
      "weight": 540,
      "locktime": 0,
      "vin": [
        {
          "coinbase": "04ffff001d028805",
          "sequence": 4294967295
        }
      ],
      "vout": [
        {
          "value": 50.0,
          "n": 0,
          "scriptPubKey": {
            "asm": "04b78e26ab52ba0c98a84d6ad9fb73d78d9ca7773ecf6e89f8713db2e3971eb75fcb6e2a99a70d70e9f75fa76c8f14abe461e61dbef1d78fffb038a6dd1b44c996 OP_CHECKSIG",
            "desc": "pk(04b78e26ab52ba0c98a84d6ad9fb73d78d9ca7773ecf6e89f8713db2e3971eb75fcb6e2a99a70d70e9f75fa76c8f14abe461e61dbef1d78fffb038a6dd1b44c996)#msgzze0y",
            "hex": "4104b78e26ab52ba0c98a84d6ad9fb73d78d9ca7773ecf6e89f8713db2e3971eb75fcb6e2a99a70d70e9f75fa76c8f14abe461e61dbef1d78fffb038a6dd1b44c996ac",
            "type": "pubkey"
          }
        }
      ],
      "hex": "01000000010000000000000000000000000000000000000000000000000000000000000000ffffffff0804ffff001d028805ffffffff0100f2052a01000000434104b78e26ab52ba0c98a84d6ad9fb73d78d9ca7773ecf6e89f8713db2e3971eb75fcb6e2a99a70d70e9f75fa76c8f14abe461e61dbef1d78fffb038a6dd1b44c996ac00000000"
    }
  ]
}