{
  "hash": "00000000b880ef8c65da454b4d662529580180619811f572fb7ff5e8947affab",
  "confirmations": 43275,
  "height": 9823,
  "version": 1,
  "versionHex": "00000001",
  "merkleroot": "8195cfc271dff321fe879a0c28005fe6874980a5b35d4199f7c407f00f1dcab3",
  "time": 1238871471,
  "mediantime": 1238867735,
  "nonce": 682302215,
  "bits": "1d00ffff",
  "difficulty": 1,
  "chainwork": "0000000000000000000000000000000000000000000000000000266026602660",
  "nTx": 1,
  "previousblockhash": "0000000095f7eb84f5123a78b3446c3d78b080b49ff11877f4bdca2ff8d8bce5",
  "nextblockhash": "000000000d20a20d5254527145a196dae320ba253bdded919e906852e52674be",
  "strippedsize": 216,
  "size": 216,
  "weight": 864,
  "tx": [
    {
      "txid": "8195cfc271dff321fe879a0c28005fe6874980a5b35d4199f7c407f00f1dcab3",
      "hash": "8195cfc271dff321fe879a0c28005fe6874980a5b35d4199f7c407f00f1dcab3",
      "version": 1,
      "size": 135,
      "vsize": 135,
      "weight": 540,
      "locktime": 0,
      "vin": [
        {
          "coinbase": "04ffff001d02a600",
          "sequence": 4294967295
        }
      ],
      "vout": [
        {
          "value": 50.0,
          "n": 0,
          "scriptPubKey": {
            "asm": "04f66deeff60e8c7f7a4411c69264dbca19d738aea344d15cfb204356945123e9cce304888616e0044a8b2ba967fb2afa5784d169cf7c16b4991e60f825b12002c OP_CHECKSIG",
            "desc": "pk(04f66deeff60e8c7f7a4411c69264dbca19d738aea344d15cfb204356945123e9cce304888616e0044a8b2ba967fb2afa5784d169cf7c16b4991e60f825b12002c)#9tywryz6",
            "hex": "4104f66deeff60e8c7f7a4411c69264dbca19d738aea344d15cfb204356945123e9cce304888616e0044a8b2ba967fb2afa5784d169cf7c16b4991e60f825b12002cac",
            "type": "pubkey"
          }
        }
      ],
      "hex": "01000000010000000000000000000000000000000000000000000000000000000000000000ffffffff0804ffff001d02a600ffffffff0100f2052a01000000434104f66deeff60e8c7f7a4411c69264dbca19d738aea344d15cfb204356945123e9cce304888616e0044a8b2ba967fb2afa5784d169cf7c16b4991e60f825b12002cac00000000"
    }
  ]
}