{
  "hash": "00000000ddc9488a0cddebe9f7fb1ca741bfc4b7d3a7a5b7c00dd60c3b050ddd",
  "confirmations": 44026,
  "height": 9072,
  "version": 1,
  "versionHex": "00000001",
  "merkleroot": "c97b1607affb9dca57b8624d6196cd4f90af686084dbe5bfb9d3675025fe3ea7",
  "time": 1238312654,
  "mediantime": 1238308383,
  "nonce": 884484888,
  "bits": "1d00ffff",
  "difficulty": 1,
  "chainwork": "0000000000000000000000000000000000000000000000000000237123712371",
  "nTx": 1,
  "previousblockhash": "0000000013cffeff861efdc2c7071bb721ef7fb827741984cf703b9d6fb8cfe2",
  "nextblockhash": "0000000099d34e8aa84e6b73f6ff4e3c8cd957e387ffa4e802df3572d1fc3912",
  "strippedsize": 216,
  "size": 216,
  "weight": 864,
  "tx": [
    {
      "txid": "c97b1607affb9dca57b8624d6196cd4f90af686084dbe5bfb9d3675025fe3ea7",
      "hash": "c97b1607affb9dca57b8624d6196cd4f90af686084dbe5bfb9d3675025fe3ea7",
      "version": 1,
      "size": 135,
      "vsize": 135,
      "weight": 540,
      "locktime": 0,
      "vin": [
        {
          "coinbase": "04ffff001d02cd07",
          "sequence": 4294967295
        }
      ],
      "vout": [
        {
          "value": 50.0,
          "n": 0,
          "scriptPubKey": {
            "asm": "0471bf485274f420ead31c80140ea874b62ca45fd7262cb5364237d5c06c3692360fce479307f4ff42a244c02a8a7837da7b75b335fafae3af67dfe9cff86d1dd4 OP_CHECKSIG",
            "desc": "pk(0471bf485274f420ead31c80140ea874b62ca45fd7262cb5364237d5c06c3692360fce479307f4ff42a244c02a8a7837da7b75b335fafae3af67dfe9cff86d1dd4)#5w0rn3z3",
            "hex": "410471bf485274f420ead31c80140ea874b62ca45fd7262cb5364237d5c06c3692360fce479307f4ff42a244c02a8a7837da7b75b335fafae3af67dfe9cff86d1dd4ac",
            "type": "pubkey"
          }
        }
      ],
      "hex": "01000000010000000000000000000000000000000000000000000000000000000000000000ffffffff0804ffff001d02cd07ffffffff0100f2052a0100000043410471bf485274f420ead31c80140ea874b62ca45fd7262cb5364237d5c06c3692360fce479307f4ff42a244c02a8a7837da7b75b335fafae3af67dfe9cff86d1dd4ac00000000"
    }
  ]
}