{
  "hash": "00000000aba90cacf7fba8ead3b9191a50c9fa76939b9aa7ba055d6226da64f3",
  "confirmations": 47327,
  "height": 5771,
  "version": 1,
  "versionHex": "00000001",
  "merkleroot": "85ced9f61df5d7e7c31874c59a1cdce82335101a1a4afaf195f5166af5ad556b",
  "time": 1235739043,
  "mediantime": 1235734827,
  "nonce": 526658604,
  "bits": "1d00ffff",
  "difficulty": 1,
  "chainwork": "0000000000000000000000000000000000000000000000000000168c168c168c",
  "nTx": 1,
  "previousblockhash": "0000000011208966c8f880555b817111e57b091aa87d7001d9fb9d9f82a70e01",
  "nextblockhash": "0000000096c38ede93980fb06b6325557fe11208632bff19231724746c72c26a",
  "strippedsize": 215,
  "size": 215,
  "weight": 860,
  "tx": [
    {
      "txid": "85ced9f61df5d7e7c31874c59a1cdce82335101a1a4afaf195f5166af5ad556b",
      "hash": "85ced9f61df5d7e7c31874c59a1cdce82335101a1a4afaf195f5166af5ad556b",
      "version": 1,
      "size": 134,
      "vsize": 134,
      "weight": 536,
      "locktime": 0,
      "vin": [
        {
          "coinbase": "04ffff001d0154",
          "sequence": 4294967295
        }
      ],
      "vout": [
        {
          "value": 50.0,
          "n": 0,
          "scriptPubKey": {
            "asm": "045f28dbda0a066d3c375ab608e1cade121bf4bc38769ff6d4f4104f587af1da3e7a0a58ef453656968070178c86d1d3b51de740af763e28863e126c42272e89b8 OP_CHECKSIG",
            "desc": "pk(045f28dbda0a066d3c375ab608e1cade121bf4bc38769ff6d4f4104f587af1da3e7a0a58ef453656968070178c86d1d3b51de740af763e28863e126c42272e89b8)#nx5jsw4g",
            "hex": "41045f28dbda0a066d3c375ab608e1cade121bf4bc38769ff6d4f4104f587af1da3e7a0a58ef453656968070178c86d1d3b51de740af763e28863e126c42272e89b8ac",
            "type": "pubkey"
          }
        }
      ],
      "hex": "01000000010000000000000000000000000000000000000000000000000000000000000000ffffffff0704ffff001d0154ffffffff0100f2052a010000004341045f28dbda0a066d3c375ab608e1cade121bf4bc38769ff6d4f4104f587af1da3e7a0a58ef453656968070178c86d1d3b51de740af763e28863e126c42272e89b8ac00000000"
    }
  ]
}