{
  "hash": "00000000a1976737c59dd2f6b1b466df65fdb4b9c52c2cd00d8925864e9cd996",
  "confirmations": 46196,
  "height": 6902,
  "version": 1,
  "versionHex": "00000001",
  "merkleroot": "3bfd9c6639f1e8dea25cf8e5438ee909f5776ca4d70ab8766cdfa6817896bb9e",
  "time": 1236639201,
  "mediantime": 1236634488,
  "nonce": 3855053350,
  "bits": "1d00ffff",
  "difficulty": 1,
  "chainwork": "00000000000000000000000000000000000000000000000000001af71af71af7",
  "nTx": 1,
  "previousblockhash": "000000002bb02e73ed4eef388e4c4f738b688cc02da3265fe0a57fb8c951feab",
  "nextblockhash": "0000000032108c9e8dfef8740ac98cdd96acd16813bb6540d6ab9da7660b929c",
  "strippedsize": 216,
  "size": 216,
  "weight": 864,
  "tx": [
    {
      "txid": "3bfd9c6639f1e8dea25cf8e5438ee909f5776ca4d70ab8766cdfa6817896bb9e",
      "hash": "3bfd9c6639f1e8dea25cf8e5438ee909f5776ca4d70ab8766cdfa6817896bb9e",
      "version": 1,
      "size": 135,
      "vsize": 135,
      "weight": 540,
      "locktime": 0,
      "vin": [
        {
          "coinbase": "04ffff001d028500",
          "sequence": 4294967295
        }
      ],
      "vout": [
        {
          "value": 50.0,
          "n": 0,
          "scriptPubKey": {
            "asm": "041eed9e03acd80e55d8e28edc117c895c4173bb062c15891b23a3ceaa0bc78eca51f5a5865371ceada859ff94757b7fe4940bdfc0f92be2fc724f35d45cee356f OP_CHECKSIG",
            "desc": "pk(041eed9e03acd80e55d8e28edc117c895c4173bb062c15891b23a3ceaa0bc78eca51f5a5865371ceada859ff94757b7fe4940bdfc0f92be2fc724f35d45cee356f)#qy3psfts",
            "hex": "41041eed9e03acd80e55d8e28edc117c895c4173bb062c15891b23a3ceaa0bc78eca51f5a5865371ceada859ff94757b7fe4940bdfc0f92be2fc724f35d45cee356fac",
            "type": "pubkey"
          }
        }
      ],
      "hex": "01000000010000000000000000000000000000000000000000000000000000000000000000ffffffff0804ffff001d028500ffffffff0100f2052a010000004341041eed9e03acd80e55d8e28edc117c895c4173bb062c15891b23a3ceaa0bc78eca51f5a5865371ceada859ff94757b7fe4940bdfc0f92be2fc724f35d45cee356fac00000000"
    }
  ]
}