{
  "hash": "0000000073b026aae76ee20013acea08aa45bb75a37947d245e7b2ce3fe1f403",
  "confirmations": 52413,
  "height": 685,
  "version": 1,
  "versionHex": "00000001",
  "merkleroot": "af5b4c9417d05229355f0a7ca74fdb6f320b2182f61cfd5303c17ef3ef3436bc",
  "time": 1232097041,
  "mediantime": 1232092650,
  "nonce": 24638574,
  "bits": "1d00ffff",
  "difficulty": 1,
  "chainwork": "000000000000000000000000000000000000000000000000000002ae02ae02ae",
  "nTx": 1,
  "previousblockhash": "00000000cfe570ffe54c951eee22ad4061275e6bb7e8790339860535b0c341dd",
  "nextblockhash": "0000000070ac1f16e6ee73ed5fd4cd0b095844be257eafc617d86e54f0432b94",
  "strippedsize": 215,
  "size": 215,
  "weight": 860,
  "tx": [
    {
      "txid": "af5b4c9417d05229355f0a7ca74fdb6f320b2182f61cfd5303c17ef3ef3436bc",
      "hash": "af5b4c9417d05229355f0a7ca74fdb6f320b2182f61cfd5303c17ef3ef3436bc",
      "version": 1,
      "size": 134,
      "vsize": 134,
      "weight": 536,
      "locktime": 0,
      "vin": [
        {
          "coinbase": "04ffff001d0137",
          "sequence": 4294967295
        }
      ],
      "vout": [
        {
          "value": 50.0,
          "n": 0,
          "scriptPubKey": {
            "asm": "048131c6ac22859ff99f9adfbab47ce3d71d077fc43e0dbd112061387644b94aeb4e1f1015f2bfc86f997a934c6f081b1cd7c8f2aa3d964418408095f3fc6a9e75 OP_CHECKSIG",
            "desc": "pk(048131c6ac22859ff99f9adfbab47ce3d71d077fc43e0dbd112061387644b94aeb4e1f1015f2bfc86f997a934c6f081b1cd7c8f2aa3d964418408095f3fc6a9e75)#vcayk52q",
            "hex": "41048131c6ac22859ff99f9adfbab47ce3d71d077fc43e0dbd112061387644b94aeb4e1f1015f2bfc86f997a934c6f081b1cd7c8f2aa3d964418408095f3fc6a9e75ac",
            "type": "pubkey"
          }
        }
      ],
      "hex": "01000000010000000000000000000000000000000000000000000000000000000000000000ffffffff0704ffff001d0137ffffffff0100f2052a010000004341048131c6ac22859ff99f9adfbab47ce3d71d077fc43e0dbd112061387644b94aeb4e1f1015f2bfc86f997a934c6f081b1cd7c8f2aa3d964418408095f3fc6a9e75ac00000000"
    }
  ]
}