{
  "hash": "00000000faa2c21da83bb2a3151964f03e381cba49db5a0edf83dc834de8c90c",
  "confirmations": 52018,
  "height": 216,
  "version": 1,
  "versionHex": "00000001",
  "merkleroot": "6057ddaf5005be3a205bacc8faf97e3fd6348d655e5ce98917ee116ce47c9b01",
  "time": 1231764594,
  "mediantime": 1231760107,
  "nonce": 4116110337,
  "bits": "1d00ffff",
  "difficulty": 1,
  "chainwork": "000000000000000000000000000000000000000000000000000000d900d900d9",
  "nTx": 1,
  "previousblockhash": "000000008be0adfe9b6bd5925ead94276b68a15467c4547e0ba532f5994ca574",
  "nextblockhash": "00000000727d3ef6e04b7ebbf19a4d294a58be8f9cf91c4204eb36bfb5f35964",
  "strippedsize": 216,
  "size": 216,
  "weight": 864,
  "tx": [
    {
      "txid": "6057ddaf5005be3a205bacc8faf97e3fd6348d655e5ce98917ee116ce47c9b01",
      "hash": "6057ddaf5005be3a205bacc8faf97e3fd6348d655e5ce98917ee116ce47c9b01",
      "version": 1,
      "size": 135,
      "vsize": 135,
      "weight": 540,
      "locktime": 0,
      "vin": [
        {
          "coinbase": "04ffff001d028300",
          "sequence": 4294967295
        }
      ],
      "vout": [
        {
          "value": 50.0,
          "n": 0,
          "scriptPubKey": {
            "asm": "047f90252aa60ec73e41b56dae96aa6ee3715e367189a8cdbdfdf325fc2faf3041a0e9098e839c6e841e3bd7911d45dddbc77cbd1c41a22102380c28a05663ccb5 OP_CHECKSIG",
            "desc": "pk(047f90252aa60ec73e41b56dae96aa6ee3715e367189a8cdbdfdf325fc2faf3041a0e9098e839c6e841e3bd7911d45dddbc77cbd1c41a22102380c28a05663ccb5)#paezp3cn",
            "hex": "41047f90252aa60ec73e41b56dae96aa6ee3715e367189a8cdbdfdf325fc2faf3041a0e9098e839c6e841e3bd7911d45dddbc77cbd1c41a22102380c28a05663ccb5ac",
            "type": "pubkey"
          }
        }
      ],
      "hex": "01000000010000000000000000000000000000000000000000000000000000000000000000ffffffff0804ffff001d028300ffffffff0100f2052a010000004341047f90252aa60ec73e41b56dae96aa6ee3715e367189a8cdbdfdf325fc2faf3041a0e9098e839c6e841e3bd7911d45dddbc77cbd1c41a22102380c28a05663ccb5ac00000000"
    }
  ]
}