{
  "hash": "00000000ce2780c9640fde662ffbb07a10c9e96a226718875225a9a0fe6ac337",
  "confirmations": 52008,
  "height": 112,
  "version": 1,
  "versionHex": "00000001",
  "merkleroot": "3438117001eedca26a917571b11e684ab3a4b1ca172fdc0ccaa3cc439b211ead",
  "time": 1231670137,
  "mediantime": 1231666285,
  "nonce": 2067062792,
  "bits": "1d00ffff",
  "difficulty": 1,
  "chainwork": "0000000000000000000000000000000000000000000000000000007100710071",
  "nTx": 1,
  "previousblockhash": "000000004d6a6dd8b882deec7b54421949dddd2c166bd51ee7f62a52091a6c35",
  "nextblockhash": "00000000019176838de40606d70738084f2fbc48a50548eeeac3ceb857677c6d",
  "strippedsize": 216,
  "size": 216,
  "weight": 864,
  "tx": [
    {
      "txid": "3438117001eedca26a917571b11e684ab3a4b1ca172fdc0ccaa3cc439b211ead",
      "hash": "3438117001eedca26a917571b11e684ab3a4b1ca172fdc0ccaa3cc439b211ead",
      "version": 1,
      "size": 135,
      "vsize": 135,
      "weight": 540,
      "locktime": 0,
      "vin": [
        {
          "coinbase": "04ffff001d02aa00",
          "sequence": 4294967295
        }
      ],
      "vout": [
        {
          "value": 50.0,
          "n": 0,
          "scriptPubKey": {
            "asm": "04bb12c362f9e454b2766affdc2bdcad548cb7e62202372365a38463798b47fcfc4f20321adb48c16a010dfb43fa5c80bc49d62a23d375d4c5a91cf29529266fe4 OP_CHECKSIG",
            "desc": "pk(04bb12c362f9e454b2766affdc2bdcad548cb7e62202372365a38463798b47fcfc4f20321adb48c16a010dfb43fa5c80bc49d62a23d375d4c5a91cf29529266fe4)#ukaur2k5",
            "hex": "4104bb12c362f9e454b2766affdc2bdcad548cb7e62202372365a38463798b47fcfc4f20321adb48c16a010dfb43fa5c80bc49d62a23d375d4c5a91cf29529266fe4ac",
            "type": "pubkey"
          }
        }
      ],
      "hex": "01000000010000000000000000000000000000000000000000000000000000000000000000ffffffff0804ffff001d02aa00ffffffff0100f2052a01000000434104bb12c362f9e454b2766affdc2bdcad548cb7e62202372365a38463798b47fcfc4f20321adb48c16a010dfb43fa5c80bc49d62a23d375d4c5a91cf29529266fe4ac00000000"
    }
  ]
}