{
  "hash": "00000000685417d017ea5f3e3ed69c34d6ba093e98477539989c60f7dcfa77a8",
  "confirmations": 47971,
  "height": 5127,
  "version": 1,
  "versionHex": "00000001",
  "merkleroot": "325bf35c98fb3461a03185eb57e8ad519a3a070a67ae18f39c6211fd20c1b3a4",
  "time": 1235236702,
  "mediantime": 1235232659,
  "nonce": 403622999,
  "bits": "1d00ffff",
  "difficulty": 1,
  "chainwork": "0000000000000000000000000000000000000000000000000000140814081408",
  "nTx": 1,
  "previousblockhash": "00000000e8d3821a71325c30f78bda5a83dc908155e4e0eb2e2be8daaf478c2c",
  "nextblockhash": "000000003c28c595416057b8612da9b7df160bbc196dc508f91ef1c35a4dcd56",
  "strippedsize": 216,
  "size": 216,
  "weight": 864,
  "tx": [
    {
      "txid": "325bf35c98fb3461a03185eb57e8ad519a3a070a67ae18f39c6211fd20c1b3a4",
      "hash": "325bf35c98fb3461a03185eb57e8ad519a3a070a67ae18f39c6211fd20c1b3a4",
      "version": 1,
      "size": 135,
      "vsize": 135,
      "weight": 540,
      "locktime": 0,
      "vin": [
        {
          "coinbase": "04ffff001d02c605",
          "sequence": 4294967295
        }
      ],
      "vout": [
        {
          "value": 50.0,
          "n": 0,
          "scriptPubKey": {
            "asm": "04335b6f0b38cebdab332ac3319946b94be4c9b84eb240d67831b2849d946572c66905825c3b5506968d0f8da42c4a024541074b86ef0bf2e64e2e5333f522d59f OP_CHECKSIG",
            "desc": "pk(04335b6f0b38cebdab332ac3319946b94be4c9b84eb240d67831b2849d946572c66905825c3b5506968d0f8da42c4a024541074b86ef0bf2e64e2e5333f522d59f)#6fs3z0h0",
            "hex": "4104335b6f0b38cebdab332ac3319946b94be4c9b84eb240d67831b2849d946572c66905825c3b5506968d0f8da42c4a024541074b86ef0bf2e64e2e5333f522d59fac",
            "type": "pubkey"
          }
        }
      ],
      "hex": "01000000010000000000000000000000000000000000000000000000000000000000000000ffffffff0804ffff001d02c605ffffffff0100f2052a01000000434104335b6f0b38cebdab332ac3319946b94be4c9b84eb240d67831b2849d946572c66905825c3b5506968d0f8da42c4a024541074b86ef0bf2e64e2e5333f522d59fac00000000"
    }
  ]
}