{
  "hash": "000000005923cc03a2f16a6b0522ac290deb290cc13822598968159492c9d669",
  "confirmations": 46039,
  "height": 7059,
  "version": 1,
  "versionHex": "00000001",
  "merkleroot": "8502e47fe0578e8e272f2636113d33df3310801e2ba10f4f040fba35e6e78a77",
  "time": 1236763076,
  "mediantime": 1236760623,
  "nonce": 2221933364,
  "bits": "1d00ffff",
  "difficulty": 1,
  "chainwork": "00000000000000000000000000000000000000000000000000001b941b941b94",
  "nTx": 1,
  "previousblockhash": "0000000033f9151c79fa660b8d84dc8d0278509b1ce41a4257d6d5e0ec4f58b1",
  "nextblockhash": "00000000fad7da7fcd6c4fba6c9af640e6c62066109a9bf7e0d8c0724a1011d2",
  "strippedsize": 216,
  "size": 216,
  "weight": 864,
  "tx": [
    {
      "txid": "8502e47fe0578e8e272f2636113d33df3310801e2ba10f4f040fba35e6e78a77",
      "hash": "8502e47fe0578e8e272f2636113d33df3310801e2ba10f4f040fba35e6e78a77",
      "version": 1,
      "size": 135,
      "vsize": 135,
      "weight": 540,
      "locktime": 0,
      "vin": [
        {
          "coinbase": "04ffff001d023703",
          "sequence": 4294967295
        }
      ],
      "vout": [
        {
          "value": 50.0,
          "n": 0,
          "scriptPubKey": {
            "asm": "04737eb94c7012cd7b5cc5b6b42defb17192114f7e17fcdec7e2c21f639281826e2d8c87cd157236a8e5b971815594fb35ac9ee5fd2013aadf17f3cb9b6d0d07ec OP_CHECKSIG",
            "desc": "pk(04737eb94c7012cd7b5cc5b6b42defb17192114f7e17fcdec7e2c21f639281826e2d8c87cd157236a8e5b971815594fb35ac9ee5fd2013aadf17f3cb9b6d0d07ec)#gjhwst64",
            "hex": "4104737eb94c7012cd7b5cc5b6b42defb17192114f7e17fcdec7e2c21f639281826e2d8c87cd157236a8e5b971815594fb35ac9ee5fd2013aadf17f3cb9b6d0d07ecac",
            "type": "pubkey"
          }
        }
      ],
      "hex": "01000000010000000000000000000000000000000000000000000000000000000000000000ffffffff0804ffff001d023703ffffffff0100f2052a01000000434104737eb94c7012cd7b5cc5b6b42defb17192114f7e17fcdec7e2c21f639281826e2d8c87cd157236a8e5b971815594fb35ac9ee5fd2013aadf17f3cb9b6d0d07ecac00000000"
    }
  ]
}