{
  "hash": "000000007493f6865773ffcea485a510b96794b918d291dc005046f47def1c2d",
  "confirmations": 50261,
  "height": 2837,
  "version": 1,
  "versionHex": "00000001",
  "merkleroot": "b1f2d0c1917176ab0f107fd0328d06ed6961e9716140000cfe4377eba7f282ec",
  "time": 1233649286,
  "mediantime": 1233646074,
  "nonce": 555698986,
  "bits": "1d00ffff",
  "difficulty": 1,
  "chainwork": "00000000000000000000000000000000000000000000000000000b160b160b16",
  "nTx": 1,
  "previousblockhash": "000000006ebffd75750dcb1b54e9ae461bf4ef73381d0e9a9bd1995f3a4e343d",
  "nextblockhash": "00000000fd28382e084f93747bad7fe68cc284dc40741762234024aa22c7847e",
  "strippedsize": 216,
  "size": 216,
  "weight": 864,
  "tx": [
    {
      "txid": "b1f2d0c1917176ab0f107fd0328d06ed6961e9716140000cfe4377eba7f282ec",
      "hash": "b1f2d0c1917176ab0f107fd0328d06ed6961e9716140000cfe4377eba7f282ec",
      "version": 1,
      "size": 135,
      "vsize": 135,
      "weight": 540,
      "locktime": 0,
      "vin": [
        {
          "coinbase": "04ffff001d02ad06",
          "sequence": 4294967295
        }
      ],
      "vout": [
        {
          "value": 50.0,
          "n": 0,
          "scriptPubKey": {
            "asm": "048ec3b0091ee98b9aac97c7223e5b58e7c7fcbc55d3c0e6e69f85a3ac2ba2af5c98687fae3154b96414cf6fde795bddd60d361c1690f7b8e1e2852b442cc2f34b OP_CHECKSIG",
            "desc": "pk(048ec3b0091ee98b9aac97c7223e5b58e7c7fcbc55d3c0e6e69f85a3ac2ba2af5c98687fae3154b96414cf6fde795bddd60d361c1690f7b8e1e2852b442cc2f34b)#7jg4405l",
            "hex": "41048ec3b0091ee98b9aac97c7223e5b58e7c7fcbc55d3c0e6e69f85a3ac2ba2af5c98687fae3154b96414cf6fde795bddd60d361c1690f7b8e1e2852b442cc2f34bac",
            "type": "pubkey"
          }
        }
      ],
      "hex": "01000000010000000000000000000000000000000000000000000000000000000000000000ffffffff0804ffff001d02ad06ffffffff0100f2052a010000004341048ec3b0091ee98b9aac97c7223e5b58e7c7fcbc55d3c0e6e69f85a3ac2ba2af5c98687fae3154b96414cf6fde795bddd60d361c1690f7b8e1e2852b442cc2f34bac00000000"
    }
  ]
}