{
  "hash": "000000007fbea6ba0eddef62ea42e35d956a266ac406d11086fac99cce554272",
  "confirmations": 45351,
  "height": 7747,
  "version": 1,
  "versionHex": "00000001",
  "merkleroot": "db2da5a07dbbe2339177eb79920a1fae933c730db4b763bebca5424e74f5e78b",
  "time": 1237275120,
  "mediantime": 1237271838,
  "nonce": 3701893682,
  "bits": "1d00ffff",
  "difficulty": 1,
  "chainwork": "00000000000000000000000000000000000000000000000000001e441e441e44",
  "nTx": 1,
  "previousblockhash": "00000000360766b53c44b11bcebc64d9a4c366ba9632f273adefc7fa042b031f",
  "nextblockhash": "00000000e1fd2db1b81b02532f868822772adfc252716a6a54df7c3b61dd9ff7",
  "strippedsize": 216,
  "size": 216,
  "weight": 864,
  "tx": [
    {
      "txid": "db2da5a07dbbe2339177eb79920a1fae933c730db4b763bebca5424e74f5e78b",
      "hash": "db2da5a07dbbe2339177eb79920a1fae933c730db4b763bebca5424e74f5e78b",
      "version": 1,
      "size": 135,
      "vsize": 135,
      "weight": 540,
      "locktime": 0,
      "vin": [
        {
          "coinbase": "04ffff001d020705",
          "sequence": 4294967295
        }
      ],
      "vout": [
        {
          "value": 50.0,
          "n": 0,
          "scriptPubKey": {
            "asm": "046dab961db8c92bf7e8fe9f7dc8c57cc5bcec337e13905e57a93fb297ae4c7a05d5908e3a019a36cf91e21b6129622ab8c8a3ab9c06998ad3ef678cba5f0580e1 OP_CHECKSIG",
            "desc": "pk(046dab961db8c92bf7e8fe9f7dc8c57cc5bcec337e13905e57a93fb297ae4c7a05d5908e3a019a36cf91e21b6129622ab8c8a3ab9c06998ad3ef678cba5f0580e1)#ddamq7fg",
            "hex": "41046dab961db8c92bf7e8fe9f7dc8c57cc5bcec337e13905e57a93fb297ae4c7a05d5908e3a019a36cf91e21b6129622ab8c8a3ab9c06998ad3ef678cba5f0580e1ac",
            "type": "pubkey"
          }
        }
      ],
      "hex": "01000000010000000000000000000000000000000000000000000000000000000000000000ffffffff0804ffff001d020705ffffffff0100f2052a010000004341046dab961db8c92bf7e8fe9f7dc8c57cc5bcec337e13905e57a93fb297ae4c7a05d5908e3a019a36cf91e21b6129622ab8c8a3ab9c06998ad3ef678cba5f0580e1ac00000000"
    }
  ]
}