{
  "hash": "000000002439994e38b1e72809730bc6c074baf85c6166821b1d8f9015e2f569",
  "confirmations": 45398,
  "height": 7700,
  "version": 1,
  "versionHex": "00000001",
  "merkleroot": "395d50577779a37f6e30d852a145b2c7768c62724fabc28e9b31be60ddf6f103",
  "time": 1237239228,
  "mediantime": 1237236559,
  "nonce": 834065949,
  "bits": "1d00ffff",
  "difficulty": 1,
  "chainwork": "00000000000000000000000000000000000000000000000000001e151e151e15",
  "nTx": 1,
  "previousblockhash": "0000000097753699e6a0f0759ef6de8e47d8b6312aa17988e914786341b09bac",
  "nextblockhash": "000000001b5b9e27fa2f90ab9ba101b4bc9efe9b80ba3b1f3e3a0c0f25a14f60",
  "strippedsize": 216,
  "size": 216,
  "weight": 864,
  "tx": [
    {
      "txid": "395d50577779a37f6e30d852a145b2c7768c62724fabc28e9b31be60ddf6f103",
      "hash": "395d50577779a37f6e30d852a145b2c7768c62724fabc28e9b31be60ddf6f103",
      "version": 1,
      "size": 135,
      "vsize": 135,
      "weight": 540,
      "locktime": 0,
      "vin": [
        {
          "coinbase": "04ffff001d022304",
          "sequence": 4294967295
        }
      ],
      "vout": [
        {
          "value": 50.0,
          "n": 0,
          "scriptPubKey": {
            "asm": "04c9c19e495023c27618eab1ebbbdb6d92524eeef1f03f89f6582ae5cbf143f923137be004a08c5774a7062ab321eb2b7b4686c4a5f0224aac13a88819c7220bd5 OP_CHECKSIG",
            "desc": "pk(04c9c19e495023c27618eab1ebbbdb6d92524eeef1f03f89f6582ae5cbf143f923137be004a08c5774a7062ab321eb2b7b4686c4a5f0224aac13a88819c7220bd5)#8kf90jmw",
            "hex": "4104c9c19e495023c27618eab1ebbbdb6d92524eeef1f03f89f6582ae5cbf143f923137be004a08c5774a7062ab321eb2b7b4686c4a5f0224aac13a88819c7220bd5ac",
            "type": "pubkey"
          }
        }
      ],
      "hex": "01000000010000000000000000000000000000000000000000000000000000000000000000ffffffff0804ffff001d022304ffffffff0100f2052a01000000434104c9c19e495023c27618eab1ebbbdb6d92524eeef1f03f89f6582ae5cbf143f923137be004a08c5774a7062ab321eb2b7b4686c4a5f0224aac13a88819c7220bd5ac00000000"
    }
  ]
}