{
  "hash": "00000000728d8e5b68328b0357af3b1591f4cfa7e074e1c6d5bc900461863606",
  "confirmations": 51235,
  "height": 1863,
  "version": 1,
  "versionHex": "00000001",
  "merkleroot": "ba1c62b4ed7993d769e56d066dafb6e99479c7a7d093a846704dbf8b873bc997",
  "time": 1232928199,
  "mediantime": 1232925274,
  "nonce": 1807317551,
  "bits": "1d00ffff",
  "difficulty": 1,
  "chainwork": "0000000000000000000000000000000000000000000000000000074807480748",
  "nTx": 1,
  "previousblockhash": "000000007e8d96fa8cb1477d84cc550c0057de2dd77649f9b9cfc018ff84fc6a",
  "nextblockhash": "00000000ea25c2bd868f9fc2a53019177ecfe68f3b2d6f2538ab16fbbefc909c",
  "strippedsize": 216,
  "size": 216,
  "weight": 864,
  "tx": [
    {
      "txid": "ba1c62b4ed7993d769e56d066dafb6e99479c7a7d093a846704dbf8b873bc997",
      "hash": "ba1c62b4ed7993d769e56d066dafb6e99479c7a7d093a846704dbf8b873bc997",
      "version": 1,
      "size": 135,
      "vsize": 135,
      "weight": 540,
      "locktime": 0,
      "vin": [
        {
          "coinbase": "04ffff001d02c904",
          "sequence": 4294967295
        }
      ],
      "vout": [
        {
          "value": 50.0,
          "n": 0,
          "scriptPubKey": {
            "asm": "04b8bf425b00e5c53c6691b8cc1c15673dd102a8a7e62b390d9b34b2df49787c5b90d0d60b92e277ca5b7fa8fc16cf5b9eacd11fbad10274823fe906f849800c3e OP_CHECKSIG",
            "desc": "pk(04b8bf425b00e5c53c6691b8cc1c15673dd102a8a7e62b390d9b34b2df49787c5b90d0d60b92e277ca5b7fa8fc16cf5b9eacd11fbad10274823fe906f849800c3e)#vwd3v82a",
            "hex": "4104b8bf425b00e5c53c6691b8cc1c15673dd102a8a7e62b390d9b34b2df49787c5b90d0d60b92e277ca5b7fa8fc16cf5b9eacd11fbad10274823fe906f849800c3eac",
            "type": "pubkey"
          }
        }
      ],
      "hex": "01000000010000000000000000000000000000000000000000000000000000000000000000ffffffff0804ffff001d02c904ffffffff0100f2052a01000000434104b8bf425b00e5c53c6691b8cc1c15673dd102a8a7e62b390d9b34b2df49787c5b90d0d60b92e277ca5b7fa8fc16cf5b9eacd11fbad10274823fe906f849800c3eac00000000"
    }
  ]
}