{
  "hash": "00000000a249463a60d644eae16e4e2273d06b8760242df2230677d16a22eba5",
  "confirmations": 45752,
  "height": 7346,
  "version": 1,
  "versionHex": "00000001",
  "merkleroot": "eb9d0ea19a6b026dfba1fd270a2526a7280de8554c6b4afe17b0514a97e19c4f",
  "time": 1236980400,
  "mediantime": 1236977966,
  "nonce": 322177310,
  "bits": "1d00ffff",
  "difficulty": 1,
  "chainwork": "00000000000000000000000000000000000000000000000000001cb31cb31cb3",
  "nTx": 1,
  "previousblockhash": "00000000105e488237af82627f85b0414c6b91a8c3fe1f64843b404c6258294d",
  "nextblockhash": "000000006c0d7bd1e0b2f00425a672729c8d95895c8c3f39042889c269c5c51e",
  "strippedsize": 216,
  "size": 216,
  "weight": 864,
  "tx": [
    {
      "txid": "eb9d0ea19a6b026dfba1fd270a2526a7280de8554c6b4afe17b0514a97e19c4f",
      "hash": "eb9d0ea19a6b026dfba1fd270a2526a7280de8554c6b4afe17b0514a97e19c4f",
      "version": 1,
      "size": 135,
      "vsize": 135,
      "weight": 540,
      "locktime": 0,
      "vin": [
        {
          "coinbase": "04ffff001d027008",
          "sequence": 4294967295
        }
      ],
      "vout": [
        {
          "value": 50.0,
          "n": 0,
          "scriptPubKey": {
            "asm": "043bcbfeecd2fb88fadd319c16074b928854895b8ebd83c004221e0b9e9e97fb759fb37b6cadd906649a507e422f93108f48b09b7e4a1319c5622a8b36f971a907 OP_CHECKSIG",
            "desc": "pk(043bcbfeecd2fb88fadd319c16074b928854895b8ebd83c004221e0b9e9e97fb759fb37b6cadd906649a507e422f93108f48b09b7e4a1319c5622a8b36f971a907)#ka9hfuuc",
            "hex": "41043bcbfeecd2fb88fadd319c16074b928854895b8ebd83c004221e0b9e9e97fb759fb37b6cadd906649a507e422f93108f48b09b7e4a1319c5622a8b36f971a907ac",
            "type": "pubkey"
          }
        }
      ],
      "hex": "01000000010000000000000000000000000000000000000000000000000000000000000000ffffffff0804ffff001d027008ffffffff0100f2052a010000004341043bcbfeecd2fb88fadd319c16074b928854895b8ebd83c004221e0b9e9e97fb759fb37b6cadd906649a507e422f93108f48b09b7e4a1319c5622a8b36f971a907ac00000000"
    }
  ]
}