{
  "hash": "00000000033a46d125fa4cfe811bb7d7ec61c61edbcdc7fc88cc5ee040451597",
  "confirmations": 45342,
  "height": 7756,
  "version": 1,
  "versionHex": "00000001",
  "merkleroot": "190a4e1ae21cf52fdf347d7f3225635b9d7bbbfa98a5f72abd5b52047e77eb35",
  "time": 1237280570,
  "mediantime": 1237277655,
  "nonce": 145030848,
  "bits": "1d00ffff",
  "difficulty": 1,
  "chainwork": "00000000000000000000000000000000000000000000000000001e4d1e4d1e4d",
  "nTx": 1,
  "previousblockhash": "000000002b0a47ee69d0bf45367227932ca213acf0ecf592e71689cd784b68d2",
  "nextblockhash": "00000000a2aa21b11a81d1b7ba915ae6475b22d81240953cd5ee0934ba5f6f60",
  "strippedsize": 216,
  "size": 216,
  "weight": 864,
  "tx": [
    {
      "txid": "190a4e1ae21cf52fdf347d7f3225635b9d7bbbfa98a5f72abd5b52047e77eb35",
      "hash": "190a4e1ae21cf52fdf347d7f3225635b9d7bbbfa98a5f72abd5b52047e77eb35",
      "version": 1,
      "size": 135,
      "vsize": 135,
      "weight": 540,
      "locktime": 0,
      "vin": [
        {
          "coinbase": "04ffff001d02eb03",
          "sequence": 4294967295
        }
      ],
      "vout": [
        {
          "value": 50.0,
          "n": 0,
          "scriptPubKey": {
            "asm": "047dafecf7da34cd0ba69b7f9e27a0af7369871e2bb642a2369ec853e2d72e566aac162ec7f081c8d38c1b8f8e170768cf38b6ca162d9320f8e7fae1d8cde6e7d5 OP_CHECKSIG",
            "desc": "pk(047dafecf7da34cd0ba69b7f9e27a0af7369871e2bb642a2369ec853e2d72e566aac162ec7f081c8d38c1b8f8e170768cf38b6ca162d9320f8e7fae1d8cde6e7d5)#77n6ssq3",
            "hex": "41047dafecf7da34cd0ba69b7f9e27a0af7369871e2bb642a2369ec853e2d72e566aac162ec7f081c8d38c1b8f8e170768cf38b6ca162d9320f8e7fae1d8cde6e7d5ac",
            "type": "pubkey"
          }
        }
      ],
      "hex": "01000000010000000000000000000000000000000000000000000000000000000000000000ffffffff0804ffff001d02eb03ffffffff0100f2052a010000004341047dafecf7da34cd0ba69b7f9e27a0af7369871e2bb642a2369ec853e2d72e566aac162ec7f081c8d38c1b8f8e170768cf38b6ca162d9320f8e7fae1d8cde6e7d5ac00000000"
    }
  ]
}