{
  "hash": "000000001e7812cf1ad8e830c33154147e3bfcf4bc3b94c87493ca3cf524719e",
  "confirmations": 46714,
  "height": 6384,
  "version": 1,
  "versionHex": "00000001",
  "merkleroot": "e4a5a7fe1dbcecc669a7bec56977367a521af45d6c1a669afe67ca84bd9d7416",
  "time": 1236244823,
  "mediantime": 1236242030,
  "nonce": 2847272249,
  "bits": "1d00ffff",
  "difficulty": 1,
  "chainwork": "000000000000000000000000000000000000000000000000000018f118f118f1",
  "nTx": 1,
  "previousblockhash": "00000000cb90c4ffd5137b447ed860afaf7c3640ef5ecd1e205d1d3776f3fa63",
  "nextblockhash": "00000000bf933846fc1909e40b854b7e045ca77ebfba2c1b38b291d63dcbe195",
  "strippedsize": 216,
  "size": 216,
  "weight": 864,
  "tx": [
    {
      "txid": "e4a5a7fe1dbcecc669a7bec56977367a521af45d6c1a669afe67ca84bd9d7416",
      "hash": "e4a5a7fe1dbcecc669a7bec56977367a521af45d6c1a669afe67ca84bd9d7416",
      "version": 1,
      "size": 135,
      "vsize": 135,
      "weight": 540,
      "locktime": 0,
      "vin": [
        {
          "coinbase": "04ffff001d028b01",
          "sequence": 4294967295
        }
      ],
      "vout": [
        {
          "value": 50.0,
          "n": 0,
          "scriptPubKey": {
            "asm": "0497e4e67ea474327f09f47c5f5c0c5f2d45ae08ed8dedc16adcdcfbee5b9e1be8c4c32d07a8117c64227085251a7173b7c75a2abdd18a640dec401d1160317150 OP_CHECKSIG",
            "desc": "pk(0497e4e67ea474327f09f47c5f5c0c5f2d45ae08ed8dedc16adcdcfbee5b9e1be8c4c32d07a8117c64227085251a7173b7c75a2abdd18a640dec401d1160317150)#kr643cjp",
            "hex": "410497e4e67ea474327f09f47c5f5c0c5f2d45ae08ed8dedc16adcdcfbee5b9e1be8c4c32d07a8117c64227085251a7173b7c75a2abdd18a640dec401d1160317150ac",
            "type": "pubkey"
          }
        }
      ],
      "hex": "01000000010000000000000000000000000000000000000000000000000000000000000000ffffffff0804ffff001d028b01ffffffff0100f2052a0100000043410497e4e67ea474327f09f47c5f5c0c5f2d45ae08ed8dedc16adcdcfbee5b9e1be8c4c32d07a8117c64227085251a7173b7c75a2abdd18a640dec401d1160317150ac00000000"
    }
  ]
}