{
  "hash": "000000006c298ed28e13fc5f9583581f7497c299abdae9b78c098eeb8f13b1ee",
  "confirmations": 52324,
  "height": 504,
  "version": 1,
  "versionHex": "00000001",
  "merkleroot": "98ad3272d2c9a9ba4ce0a288f6e9dbd18093e9c1688a8652ee8d7ee3efec5c8d",
  "time": 1231971788,
  "mediantime": 1231967680,
  "nonce": 2678225955,
  "bits": "1d00ffff",
  "difficulty": 1,
  "chainwork": "000000000000000000000000000000000000000000000000000001f901f901f9",
  "nTx": 1,
  "previousblockhash": "0000000055a12319e123c04d357b87f5fb27f3e3de80a72de797db8f97018c0a",
  "nextblockhash": "0000000047f69498e89dac1ceb3fc1b0cbfdfbd0e463aeec97ab8ddaf7103c87",
  "strippedsize": 216,
  "size": 216,
  "weight": 864,
  "tx": [
    {
      "txid": "98ad3272d2c9a9ba4ce0a288f6e9dbd18093e9c1688a8652ee8d7ee3efec5c8d",
      "hash": "98ad3272d2c9a9ba4ce0a288f6e9dbd18093e9c1688a8652ee8d7ee3efec5c8d",
      "version": 1,
      "size": 135,
      "vsize": 135,
      "weight": 540,
      "locktime": 0,
      "vin": [
        {
          "coinbase": "04ffff001d028804",
          "sequence": 4294967295
        }
      ],
      "vout": [
        {
          "value": 50.0,
          "n": 0,
          "scriptPubKey": {
            "asm": "04ac7f16c5aa83e8f72959626781e0cca2f22bda6cafc668f915b95dd87f48887c1072cb00e25fd8b46826790790e738ee96396daa99727d10e9bee0be3546a4b9 OP_CHECKSIG",
            "desc": "pk(04ac7f16c5aa83e8f72959626781e0cca2f22bda6cafc668f915b95dd87f48887c1072cb00e25fd8b46826790790e738ee96396daa99727d10e9bee0be3546a4b9)#j25wfll0",
            "hex": "4104ac7f16c5aa83e8f72959626781e0cca2f22bda6cafc668f915b95dd87f48887c1072cb00e25fd8b46826790790e738ee96396daa99727d10e9bee0be3546a4b9ac",
            "type": "pubkey"
          }
        }
      ],
      "hex": "01000000010000000000000000000000000000000000000000000000000000000000000000ffffffff0804ffff001d028804ffffffff0100f2052a01000000434104ac7f16c5aa83e8f72959626781e0cca2f22bda6cafc668f915b95dd87f48887c1072cb00e25fd8b46826790790e738ee96396daa99727d10e9bee0be3546a4b9ac00000000"
    }
  ]
}