{
  "hash": "000000007b229871f2754cc07dfd2c43c4a365ade1ffdfd8e6e4df91cacd548f",
  "confirmations": 45419,
  "height": 7679,
  "version": 1,
  "versionHex": "00000001",
  "merkleroot": "224e83e5bd3a58ed12ec5f466f69b24dbf36433e803bffcf8f25a0e2556fb2ac",
  "time": 1237223569,
  "mediantime": 1237220071,
  "nonce": 1433273887,
  "bits": "1d00ffff",
  "difficulty": 1,
  "chainwork": "00000000000000000000000000000000000000000000000000001e001e001e00",
  "nTx": 1,
  "previousblockhash": "0000000054c0a09c2e117a91de7d8ef14622401ce819f8b3311356b3feddb373",
  "nextblockhash": "00000000d4960de3fcb6a1afc2808f83d47ee1e9435dbb3c7b79d45af0130625",
  "strippedsize": 216,
  "size": 216,
  "weight": 864,
  "tx": [
    {
      "txid": "224e83e5bd3a58ed12ec5f466f69b24dbf36433e803bffcf8f25a0e2556fb2ac",
      "hash": "224e83e5bd3a58ed12ec5f466f69b24dbf36433e803bffcf8f25a0e2556fb2ac",
      "version": 1,
      "size": 135,
      "vsize": 135,
      "weight": 540,
      "locktime": 0,
      "vin": [
        {
          "coinbase": "04ffff001d02c303",
          "sequence": 4294967295
        }
      ],
      "vout": [
        {
          "value": 50.0,
          "n": 0,
          "scriptPubKey": {
            "asm": "0461cd7f238c32846f5868e293962fa94355178067234428c6ba937be1d930c45d24684204348eea3a1c4450ad8d37be4a3142ae729be14d88c6af4ab5a491c251 OP_CHECKSIG",
            "desc": "pk(0461cd7f238c32846f5868e293962fa94355178067234428c6ba937be1d930c45d24684204348eea3a1c4450ad8d37be4a3142ae729be14d88c6af4ab5a491c251)#rjt507pj",
            "hex": "410461cd7f238c32846f5868e293962fa94355178067234428c6ba937be1d930c45d24684204348eea3a1c4450ad8d37be4a3142ae729be14d88c6af4ab5a491c251ac",
            "type": "pubkey"
          }
        }
      ],
      "hex": "01000000010000000000000000000000000000000000000000000000000000000000000000ffffffff0804ffff001d02c303ffffffff0100f2052a0100000043410461cd7f238c32846f5868e293962fa94355178067234428c6ba937be1d930c45d24684204348eea3a1c4450ad8d37be4a3142ae729be14d88c6af4ab5a491c251ac00000000"
    }
  ]
}