{
  "hash": "00000000d79c1ab80b93877791d7fff8bd99c8c45c8ec876ea670abb4caab165",
  "confirmations": 43197,
  "height": 9901,
  "version": 1,
  "versionHex": "00000001",
  "merkleroot": "fb1a004146bca33c06d80ed91cc3250db711399df15c266d10161f00c6dfdbfa",
  "time": 1238924233,
  "mediantime": 1238921156,
  "nonce": 126586009,
  "bits": "1d00ffff",
  "difficulty": 1,
  "chainwork": "000000000000000000000000000000000000000000000000000026ae26ae26ae",
  "nTx": 1,
  "previousblockhash": "00000000aaba6f091b5f8a356dcaee98fe8c5ea8bc915cc4516dd9da528c0724",
  "nextblockhash": "00000000b988c07ed6236c52added52aeccd504300f8394b4bfd046a30dd47de",
  "strippedsize": 216,
  "size": 216,
  "weight": 864,
  "tx": [
    {
      "txid": "fb1a004146bca33c06d80ed91cc3250db711399df15c266d10161f00c6dfdbfa",
      "hash": "fb1a004146bca33c06d80ed91cc3250db711399df15c266d10161f00c6dfdbfa",
      "version": 1,
      "size": 135,
      "vsize": 135,
      "weight": 540,
      "locktime": 0,
      "vin": [
        {
          "coinbase": "04ffff001d026511",
          "sequence": 4294967295
        }
      ],
      "vout": [
        {
          "value": 50.0,
          "n": 0,
          "scriptPubKey": {
            "asm": "04833cd5e6320b329928d829883ef5749c93bd23e245e18c91e558892d53292db4bab4d7dfb910372443128edabcb883ad5d65fe5ba02412c5f57dd7d3f7deb7d0 OP_CHECKSIG",
            "desc": "pk(04833cd5e6320b329928d829883ef5749c93bd23e245e18c91e558892d53292db4bab4d7dfb910372443128edabcb883ad5d65fe5ba02412c5f57dd7d3f7deb7d0)#nkttv75f",
            "hex": "4104833cd5e6320b329928d829883ef5749c93bd23e245e18c91e558892d53292db4bab4d7dfb910372443128edabcb883ad5d65fe5ba02412c5f57dd7d3f7deb7d0ac",
            "type": "pubkey"
          }
        }
      ],
      "hex": "01000000010000000000000000000000000000000000000000000000000000000000000000ffffffff0804ffff001d026511ffffffff0100f2052a01000000434104833cd5e6320b329928d829883ef5749c93bd23e245e18c91e558892d53292db4bab4d7dfb910372443128edabcb883ad5d65fe5ba02412c5f57dd7d3f7deb7d0ac00000000"
    }
  ]
}