{
  "hash": "00000000b0e6c4137cb9871d6475750ebf022740b9d2aec4f773ab4994b2d04f",
  "confirmations": 45279,
  "height": 7819,
  "version": 1,
  "versionHex": "00000001",
  "merkleroot": "6dbf1c2c0a3430a26b4fad5737addecc1470c39dcc9b87985b7605a969b40431",
  "time": 1237328880,
  "mediantime": 1237323675,
  "nonce": 346476957,
  "bits": "1d00ffff",
  "difficulty": 1,
  "chainwork": "00000000000000000000000000000000000000000000000000001e8c1e8c1e8c",
  "nTx": 1,
  "previousblockhash": "00000000098e472a1401580c6c70b59a709dc64f248cff7c427e543f8c504f95",
  "nextblockhash": "00000000c8a136677d7bd4f07e8385a1119c387c0899290cf35150272edc054e",
  "strippedsize": 216,
  "size": 216,
  "weight": 864,
  "tx": [
    {
      "txid": "6dbf1c2c0a3430a26b4fad5737addecc1470c39dcc9b87985b7605a969b40431",
      "hash": "6dbf1c2c0a3430a26b4fad5737addecc1470c39dcc9b87985b7605a969b40431",
      "version": 1,
      "size": 135,
      "vsize": 135,
      "weight": 540,
      "locktime": 0,
      "vin": [
        {
          "coinbase": "04ffff001d02fb02",
          "sequence": 4294967295
        }
      ],
      "vout": [
        {
          "value": 50.0,
          "n": 0,
          "scriptPubKey": {
            "asm": "0468d70ef2c648d3d6e268b699014b832ce709b326d28033dc667000bbef2ce2aedb8c080b201bdb9c917bc585abca502ca2fbc756c8a7ade393a2e3adf4102bec OP_CHECKSIG",
            "desc": "pk(0468d70ef2c648d3d6e268b699014b832ce709b326d28033dc667000bbef2ce2aedb8c080b201bdb9c917bc585abca502ca2fbc756c8a7ade393a2e3adf4102bec)#dxcd6rjh",
            "hex": "410468d70ef2c648d3d6e268b699014b832ce709b326d28033dc667000bbef2ce2aedb8c080b201bdb9c917bc585abca502ca2fbc756c8a7ade393a2e3adf4102becac",
            "type": "pubkey"
          }
        }
      ],
      "hex": "01000000010000000000000000000000000000000000000000000000000000000000000000ffffffff0804ffff001d02fb02ffffffff0100f2052a0100000043410468d70ef2c648d3d6e268b699014b832ce709b326d28033dc667000bbef2ce2aedb8c080b201bdb9c917bc585abca502ca2fbc756c8a7ade393a2e3adf4102becac00000000"
    }
  ]
}