{
  "hash": "00000000544f0dab00170d46c09c6265bb74173cc53d9d1e7322d349f7022d9e",
  "confirmations": 44095,
  "height": 9003,
  "version": 1,
  "versionHex": "00000001",
  "merkleroot": "0f0e8bd6bb614058cb2a13ed726de6104bc8bd3a0bceb024a36ceee574c639c5",
  "time": 1238254245,
  "mediantime": 1238250563,
  "nonce": 95601110,
  "bits": "1d00ffff",
  "difficulty": 1,
  "chainwork": "0000000000000000000000000000000000000000000000000000232c232c232c",
  "nTx": 1,
  "previousblockhash": "000000009a2c01f2e4c8f66b4ea6813f011dfd27e3d354ef449b6ab461f18d45",
  "nextblockhash": "00000000afaa28d7a8633e32946906d78cfcdfeb06cbec5826c12f688aa23b9a",
  "strippedsize": 216,
  "size": 216,
  "weight": 864,
  "tx": [
    {
      "txid": "0f0e8bd6bb614058cb2a13ed726de6104bc8bd3a0bceb024a36ceee574c639c5",
      "hash": "0f0e8bd6bb614058cb2a13ed726de6104bc8bd3a0bceb024a36ceee574c639c5",
      "version": 1,
      "size": 135,
      "vsize": 135,
      "weight": 540,
      "locktime": 0,
      "vin": [
        {
          "coinbase": "04ffff001d02df0d",
          "sequence": 4294967295
        }
      ],
      "vout": [
        {
          "value": 50.0,
          "n": 0,
          "scriptPubKey": {
            "asm": "041640c3beeffb9dc734bfe84aa27b717a4903feebaf2132094b797e12a78df09a063d3aa1a843131477585177b66dfeeef6e92be606a2e91dab0da7486fef92f5 OP_CHECKSIG",
            "desc": "pk(041640c3beeffb9dc734bfe84aa27b717a4903feebaf2132094b797e12a78df09a063d3aa1a843131477585177b66dfeeef6e92be606a2e91dab0da7486fef92f5)#meq5e8qv",
            "hex": "41041640c3beeffb9dc734bfe84aa27b717a4903feebaf2132094b797e12a78df09a063d3aa1a843131477585177b66dfeeef6e92be606a2e91dab0da7486fef92f5ac",
            "type": "pubkey"
          }
        }
      ],
      "hex": "01000000010000000000000000000000000000000000000000000000000000000000000000ffffffff0804ffff001d02df0dffffffff0100f2052a010000004341041640c3beeffb9dc734bfe84aa27b717a4903feebaf2132094b797e12a78df09a063d3aa1a843131477585177b66dfeeef6e92be606a2e91dab0da7486fef92f5ac00000000"
    }
  ]
}