{
  "hash": "000000007ea90a419346464a23a7f2fe4b2f48f9415192465563c6ca9343e45a",
  "confirmations": 48142,
  "height": 4956,
  "version": 1,
  "versionHex": "00000001",
  "merkleroot": "a6b70592072ed91ce49acb0b69cc081e27896359b00cc40bbcf3bab3c430eac0",
  "time": 1235108359,
  "mediantime": 1235104764,
  "nonce": 3936549942,
  "bits": "1d00ffff",
  "difficulty": 1,
  "chainwork": "0000000000000000000000000000000000000000000000000000135d135d135d",
  "nTx": 1,
  "previousblockhash": "0000000058a26c8722e6444f40e5441952b52d09c03efe759622b941e8d21e92",
  "nextblockhash": "00000000c302d38b8f6e0144bd9fa64dda7a905ce476f6f49647118f0ab436e6",
  "strippedsize": 216,
  "size": 216,
  "weight": 864,
  "tx": [
    {
      "txid": "a6b70592072ed91ce49acb0b69cc081e27896359b00cc40bbcf3bab3c430eac0",
      "hash": "a6b70592072ed91ce49acb0b69cc081e27896359b00cc40bbcf3bab3c430eac0",
      "version": 1,
      "size": 135,
      "vsize": 135,
      "weight": 540,
      "locktime": 0,
      "vin": [
        {
          "coinbase": "04ffff001d027b06",
          "sequence": 4294967295
        }
      ],
      "vout": [
        {
          "value": 50.0,
          "n": 0,
          "scriptPubKey": {
            "asm": "04cfb2864bd8fda74b0962d670d7527e5b5941f6afb8f5e65f79fb7138fbc4527dea74fef695d286f67dce1701eac0a565378c42a21fe8f781a6b30f4e46fb68c0 OP_CHECKSIG",
            "desc": "pk(04cfb2864bd8fda74b0962d670d7527e5b5941f6afb8f5e65f79fb7138fbc4527dea74fef695d286f67dce1701eac0a565378c42a21fe8f781a6b30f4e46fb68c0)#nfq3sz2y",
            "hex": "4104cfb2864bd8fda74b0962d670d7527e5b5941f6afb8f5e65f79fb7138fbc4527dea74fef695d286f67dce1701eac0a565378c42a21fe8f781a6b30f4e46fb68c0ac",
            "type": "pubkey"
          }
        }
      ],
      "hex": "01000000010000000000000000000000000000000000000000000000000000000000000000ffffffff0804ffff001d027b06ffffffff0100f2052a01000000434104cfb2864bd8fda74b0962d670d7527e5b5941f6afb8f5e65f79fb7138fbc4527dea74fef695d286f67dce1701eac0a565378c42a21fe8f781a6b30f4e46fb68c0ac00000000"
    }
  ]
}