{
  "hash": "000000002f7550e9eb1985a17e3bba31c302f1743d1cf45060445255021d0c6b",
  "confirmations": 52016,
  "height": 218,
  "version": 1,
  "versionHex": "00000001",
  "merkleroot": "46e421bd0d33659cf4be11abfa1b864c25a0e5671a646ed6e7c81d3a69211700",
  "time": 1231766966,
  "mediantime": 1231762221,
  "nonce": 3679723823,
  "bits": "1d00ffff",
  "difficulty": 1,
  "chainwork": "000000000000000000000000000000000000000000000000000000db00db00db",
  "nTx": 1,
  "previousblockhash": "00000000727d3ef6e04b7ebbf19a4d294a58be8f9cf91c4204eb36bfb5f35964",
  "nextblockhash": "00000000d2c813c67875fb331f4b4c1cf3cd7e96a53e6dd1f3808d8502535a84",
  "strippedsize": 216,
  "size": 216,
  "weight": 864,
  "tx": [
    {
      "txid": "46e421bd0d33659cf4be11abfa1b864c25a0e5671a646ed6e7c81d3a69211700",
      "hash": "46e421bd0d33659cf4be11abfa1b864c25a0e5671a646ed6e7c81d3a69211700",
      "version": 1,
      "size": 135,
      "vsize": 135,
      "weight": 540,
      "locktime": 0,
      "vin": [
        {
          "coinbase": "04ffff001d029400",
          "sequence": 4294967295
        }
      ],
      "vout": [
        {
          "value": 50.0,
          "n": 0,
          "scriptPubKey": {
            "asm": "040ff56cd7a4ca2a8a14b802335451ed6e684e7ad3750dabdd6fde75e541a264d8b3c2b27573b12afabd321224fa4cc68723fd16042ac66faf5448a7c34551e184 OP_CHECKSIG",
            "desc": "pk(040ff56cd7a4ca2a8a14b802335451ed6e684e7ad3750dabdd6fde75e541a264d8b3c2b27573b12afabd321224fa4cc68723fd16042ac66faf5448a7c34551e184)#8q37n49a",
            "hex": "41040ff56cd7a4ca2a8a14b802335451ed6e684e7ad3750dabdd6fde75e541a264d8b3c2b27573b12afabd321224fa4cc68723fd16042ac66faf5448a7c34551e184ac",
            "type": "pubkey"
          }
        }
      ],
      "hex": "01000000010000000000000000000000000000000000000000000000000000000000000000ffffffff0804ffff001d029400ffffffff0100f2052a010000004341040ff56cd7a4ca2a8a14b802335451ed6e684e7ad3750dabdd6fde75e541a264d8b3c2b27573b12afabd321224fa4cc68723fd16042ac66faf5448a7c34551e184ac00000000"
    }
  ]
}