{
  "hash": "000000002f807d8ee585ec87f0f6e120b8154c2b3173c463c23265ea3173eb7c",
  "confirmations": 51142,
  "height": 1956,
  "version": 1,
  "versionHex": "00000001",
  "merkleroot": "8993dd34575ccd6b0047e0ed593b3f3834f102f260604d87a89b829ddfa8470e",
  "time": 1233012526,
  "mediantime": 1233008892,
  "nonce": 3876857385,
  "bits": "1d00ffff",
  "difficulty": 1,
  "chainwork": "000000000000000000000000000000000000000000000000000007a507a507a5",
  "nTx": 1,
  "previousblockhash": "00000000bc8a0e20d31d39432595b89b9b6507a9ff25aae48289de86ad303c18",
  "nextblockhash": "00000000c8b4a5829742a4b5da101072d2971e4f04852cb01025972c3466ade8",
  "strippedsize": 216,
  "size": 216,
  "weight": 864,
  "tx": [
    {
      "txid": "8993dd34575ccd6b0047e0ed593b3f3834f102f260604d87a89b829ddfa8470e",
      "hash": "8993dd34575ccd6b0047e0ed593b3f3834f102f260604d87a89b829ddfa8470e",
      "version": 1,
      "size": 135,
      "vsize": 135,
      "weight": 540,
      "locktime": 0,
      "vin": [
        {
          "coinbase": "04ffff001d02a900",
          "sequence": 4294967295
        }
      ],
      "vout": [
        {
          "value": 50.0,
          "n": 0,
          "scriptPubKey": {
            "asm": "0483f5855d687b974a6182617a51315aad94ecf8a07d77612795c94543b0224c701855b6eff8d83207f600c8c03c494de3de3fb4ab972446e19caa53137725d13c OP_CHECKSIG",
            "desc": "pk(0483f5855d687b974a6182617a51315aad94ecf8a07d77612795c94543b0224c701855b6eff8d83207f600c8c03c494de3de3fb4ab972446e19caa53137725d13c)#f89fndmw",
            "hex": "410483f5855d687b974a6182617a51315aad94ecf8a07d77612795c94543b0224c701855b6eff8d83207f600c8c03c494de3de3fb4ab972446e19caa53137725d13cac",
            "type": "pubkey"
          }
        }
      ],
      "hex": "01000000010000000000000000000000000000000000000000000000000000000000000000ffffffff0804ffff001d02a900ffffffff0100f2052a0100000043410483f5855d687b974a6182617a51315aad94ecf8a07d77612795c94543b0224c701855b6eff8d83207f600c8c03c494de3de3fb4ab972446e19caa53137725d13cac00000000"
    }
  ]
}