{
  "hash": "000000001fc3ab4aad4f6531064dcfbee9ebfa15b73fed4bfa9cf55eae68c9fb",
  "confirmations": 45510,
  "height": 7588,
  "version": 1,
  "versionHex": "00000001",
  "merkleroot": "0824f6cf964a3c6cf96e7f45645df53d0efb94065a6cfb64169538ecf65b918b",
  "time": 1237158260,
  "mediantime": 1237154924,
  "nonce": 84849875,
  "bits": "1d00ffff",
  "difficulty": 1,
  "chainwork": "00000000000000000000000000000000000000000000000000001da51da51da5",
  "nTx": 1,
  "previousblockhash": "00000000304a9b9ac09d939722ab109a383b99c728c39ac573f33bf1b84187bc",
  "nextblockhash": "00000000b8bae35be701163c708166fc2376edc235e6901e2fd704a473168d15",
  "strippedsize": 216,
  "size": 216,
  "weight": 864,
  "tx": [
    {
      "txid": "0824f6cf964a3c6cf96e7f45645df53d0efb94065a6cfb64169538ecf65b918b",
      "hash": "0824f6cf964a3c6cf96e7f45645df53d0efb94065a6cfb64169538ecf65b918b",
      "version": 1,
      "size": 135,
      "vsize": 135,
      "weight": 540,
      "locktime": 0,
      "vin": [
        {
          "coinbase": "04ffff001d02ff00",
          "sequence": 4294967295
        }
      ],
      "vout": [
        {
          "value": 50.0,
          "n": 0,
          "scriptPubKey": {
            "asm": "046a9ec002d57c53720e0e9d687915e1a60c9e0c2d5edf539e6cda4ebd39dadead3ba60f47c9bba3b50649adfcbffcbc4222acdd85b8e14aa7ba0c21ecdf5f6612 OP_CHECKSIG",
            "desc": "pk(046a9ec002d57c53720e0e9d687915e1a60c9e0c2d5edf539e6cda4ebd39dadead3ba60f47c9bba3b50649adfcbffcbc4222acdd85b8e14aa7ba0c21ecdf5f6612)#96h3fa23",
            "hex": "41046a9ec002d57c53720e0e9d687915e1a60c9e0c2d5edf539e6cda4ebd39dadead3ba60f47c9bba3b50649adfcbffcbc4222acdd85b8e14aa7ba0c21ecdf5f6612ac",
            "type": "pubkey"
          }
        }
      ],
      "hex": "01000000010000000000000000000000000000000000000000000000000000000000000000ffffffff0804ffff001d02ff00ffffffff0100f2052a010000004341046a9ec002d57c53720e0e9d687915e1a60c9e0c2d5edf539e6cda4ebd39dadead3ba60f47c9bba3b50649adfcbffcbc4222acdd85b8e14aa7ba0c21ecdf5f6612ac00000000"
    }
  ]
}