{
  "hash": "0000000008340b5a9ed7616e9d0db0a1fdc08775690874fb190c01bff7bc164f",
  "confirmations": 43878,
  "height": 9220,
  "version": 1,
  "versionHex": "00000001",
  "merkleroot": "dcc06c47aaf325b8f02a09f32cd57e5171c6d159c76157ae4c3b058296300904",
  "time": 1238415862,
  "mediantime": 1238412093,
  "nonce": 42039226,
  "bits": "1d00ffff",
  "difficulty": 1,
  "chainwork": "0000000000000000000000000000000000000000000000000000240524052405",
  "nTx": 1,
  "previousblockhash": "000000005da33104778dcaad5053597a631924f5dcb245f21fa486f62ad48b42",
  "nextblockhash": "000000009943416b6b2f86cbe5b5dcf41e1f95a1257050a3f7f72aea9dd02fef",
  "strippedsize": 216,
  "size": 216,
  "weight": 864,
  "tx": [
    {
      "txid": "dcc06c47aaf325b8f02a09f32cd57e5171c6d159c76157ae4c3b058296300904",
      "hash": "dcc06c47aaf325b8f02a09f32cd57e5171c6d159c76157ae4c3b058296300904",
      "version": 1,
      "size": 135,
      "vsize": 135,
      "weight": 540,
      "locktime": 0,
      "vin": [
        {
          "coinbase": "04ffff001d02ef05",
          "sequence": 4294967295
        }
      ],
      "vout": [
        {
          "value": 50.0,
          "n": 0,
          "scriptPubKey": {
            "asm": "04ff41b2ca7b87d0bca1f73154376e2f97a314ca1b0092d39d1df4e033e31d2d5c1a520a06e2b0d434d67c470c8ecf44a2bde9d846f0bf028726ece7db3ca63146 OP_CHECKSIG",
            "desc": "pk(04ff41b2ca7b87d0bca1f73154376e2f97a314ca1b0092d39d1df4e033e31d2d5c1a520a06e2b0d434d67c470c8ecf44a2bde9d846f0bf028726ece7db3ca63146)#y4h0fk7j",
            "hex": "4104ff41b2ca7b87d0bca1f73154376e2f97a314ca1b0092d39d1df4e033e31d2d5c1a520a06e2b0d434d67c470c8ecf44a2bde9d846f0bf028726ece7db3ca63146ac",
            "type": "pubkey"
          }
        }
      ],
      "hex": "01000000010000000000000000000000000000000000000000000000000000000000000000ffffffff0804ffff001d02ef05ffffffff0100f2052a01000000434104ff41b2ca7b87d0bca1f73154376e2f97a314ca1b0092d39d1df4e033e31d2d5c1a520a06e2b0d434d67c470c8ecf44a2bde9d846f0bf028726ece7db3ca63146ac00000000"
    }
  ]
}