{
  "hash": "00000000a812372e679bff99c76b9e3e7d7f0a41ba2686d000bc20d4f83e68b3",
  "confirmations": 43240,
  "height": 9858,
  "version": 1,
  "versionHex": "00000001",
  "merkleroot": "9478d2e752e2fde89cdff32caddc52b3bc6422e0399def5fa091fa2ac656315c",
  "time": 1238897423,
  "mediantime": 1238894967,
  "nonce": 4118683141,
  "bits": "1d00ffff",
  "difficulty": 1,
  "chainwork": "0000000000000000000000000000000000000000000000000000268326832683",
  "nTx": 1,
  "previousblockhash": "00000000f83aa109674b00dde4a5f408eb2914bd4d33dde59dc760083a83c1e0",
  "nextblockhash": "00000000f92ea7ff4bd3b5e38398f7b29418a8bdff2ce2c218a460267c2899df",
  "strippedsize": 216,
  "size": 216,
  "weight": 864,
  "tx": [
    {
      "txid": "9478d2e752e2fde89cdff32caddc52b3bc6422e0399def5fa091fa2ac656315c",
      "hash": "9478d2e752e2fde89cdff32caddc52b3bc6422e0399def5fa091fa2ac656315c",
      "version": 1,
      "size": 135,
      "vsize": 135,
      "weight": 540,
      "locktime": 0,
      "vin": [
        {
          "coinbase": "04ffff001d026301",
          "sequence": 4294967295
        }
      ],
      "vout": [
        {
          "value": 50.0,
          "n": 0,
          "scriptPubKey": {
            "asm": "04ef8413c0aa6972c0ebd6ba6574075e90059dff5b9ed10e68702c1574ea553eebc76c20bef10baefa0b38752b27e00520afe3f622d52a582c46a0c6483d5a4255 OP_CHECKSIG",
            "desc": "pk(04ef8413c0aa6972c0ebd6ba6574075e90059dff5b9ed10e68702c1574ea553eebc76c20bef10baefa0b38752b27e00520afe3f622d52a582c46a0c6483d5a4255)#k4c4s3j6",
            "hex": "4104ef8413c0aa6972c0ebd6ba6574075e90059dff5b9ed10e68702c1574ea553eebc76c20bef10baefa0b38752b27e00520afe3f622d52a582c46a0c6483d5a4255ac",
            "type": "pubkey"
          }
        }
      ],
      "hex": "01000000010000000000000000000000000000000000000000000000000000000000000000ffffffff0804ffff001d026301ffffffff0100f2052a01000000434104ef8413c0aa6972c0ebd6ba6574075e90059dff5b9ed10e68702c1574ea553eebc76c20bef10baefa0b38752b27e00520afe3f622d52a582c46a0c6483d5a4255ac00000000"
    }
  ]
}