{
  "hash": "000000009e6227e6974ecf90eb7414ce9c7df2a53145df91f8ed5a742bab76d8",
  "confirmations": 46240,
  "height": 6858,
  "version": 1,
  "versionHex": "00000001",
  "merkleroot": "aea8ee65f20be3fbcae5bd6c30c1d43e5b27a726113cb134d36abd8c0f359e05",
  "time": 1236604237,
  "mediantime": 1236597486,
  "nonce": 7994417,
  "bits": "1d00ffff",
  "difficulty": 1,
  "chainwork": "00000000000000000000000000000000000000000000000000001acb1acb1acb",
  "nTx": 1,
  "previousblockhash": "0000000003a4cbd3c094831fa8668dca578b5d0613204a590ebeb23423869839",
  "nextblockhash": "00000000e12ba875291c457cf695927040edf8d144923bc2e92b43d6e30d83bc",
  "strippedsize": 215,
  "size": 215,
  "weight": 860,
  "tx": [
    {
      "txid": "aea8ee65f20be3fbcae5bd6c30c1d43e5b27a726113cb134d36abd8c0f359e05",
      "hash": "aea8ee65f20be3fbcae5bd6c30c1d43e5b27a726113cb134d36abd8c0f359e05",
      "version": 1,
      "size": 134,
      "vsize": 134,
      "weight": 536,
      "locktime": 0,
      "vin": [
        {
          "coinbase": "04ffff001d012f",
          "sequence": 4294967295
        }
      ],
      "vout": [
        {
          "value": 50.0,
          "n": 0,
          "scriptPubKey": {
            "asm": "0496303bc70e0470d2a161222042cd2a3f247b1de5963de3346d4d9bb1746705e3ab3b55675c3157e444ca692db2b13becbf79f6434aa8d69ea84b07379d36505a OP_CHECKSIG",
            "desc": "pk(0496303bc70e0470d2a161222042cd2a3f247b1de5963de3346d4d9bb1746705e3ab3b55675c3157e444ca692db2b13becbf79f6434aa8d69ea84b07379d36505a)#3ym9mt4d",
            "hex": "410496303bc70e0470d2a161222042cd2a3f247b1de5963de3346d4d9bb1746705e3ab3b55675c3157e444ca692db2b13becbf79f6434aa8d69ea84b07379d36505aac",
            "type": "pubkey"
          }
        }
      ],
      "hex": "01000000010000000000000000000000000000000000000000000000000000000000000000ffffffff0704ffff001d012fffffffff0100f2052a0100000043410496303bc70e0470d2a161222042cd2a3f247b1de5963de3346d4d9bb1746705e3ab3b55675c3157e444ca692db2b13becbf79f6434aa8d69ea84b07379d36505aac00000000"
    }
  ]
}