{
  "hash": "000000000c517d45e13df76251a37a2f98b49370ae834840961276101f16e244",
  "confirmations": 47989,
  "height": 5109,
  "version": 1,
  "versionHex": "00000001",
  "merkleroot": "7952c69322b229abcc0f73d49b425786fb09f66c39d0aea30b00659b836c1286",
  "time": 1235223740,
  "mediantime": 1235220446,
  "nonce": 2775853340,
  "bits": "1d00ffff",
  "difficulty": 1,
  "chainwork": "000000000000000000000000000000000000000000000000000013f613f613f6",
  "nTx": 1,
  "previousblockhash": "00000000795723f4804ce3d29bc6e68069bfd78abef8f04e460c729b48bc7179",
  "nextblockhash": "00000000a5e106d920da5d4037ed5f923753ccebc5e3eed3864edd95bcc1d6cf",
  "strippedsize": 216,
  "size": 216,
  "weight": 864,
  "tx": [
    {
      "txid": "7952c69322b229abcc0f73d49b425786fb09f66c39d0aea30b00659b836c1286",
      "hash": "7952c69322b229abcc0f73d49b425786fb09f66c39d0aea30b00659b836c1286",
      "version": 1,
      "size": 135,
      "vsize": 135,
      "weight": 540,
      "locktime": 0,
      "vin": [
        {
          "coinbase": "04ffff001d022d09",
          "sequence": 4294967295
        }
      ],
      "vout": [
        {
          "value": 50.0,
          "n": 0,
          "scriptPubKey": {
            "asm": "0452ab689998dcd12ac60b93b0ec457318127aa969f3028483b3a2b8b721bd21860d97074ca884c9b46278892f5278726cb9fe0c60c8e8e8ae86909cff6a5ce52e OP_CHECKSIG",
            "desc": "pk(0452ab689998dcd12ac60b93b0ec457318127aa969f3028483b3a2b8b721bd21860d97074ca884c9b46278892f5278726cb9fe0c60c8e8e8ae86909cff6a5ce52e)#5jqkkj05",
            "hex": "410452ab689998dcd12ac60b93b0ec457318127aa969f3028483b3a2b8b721bd21860d97074ca884c9b46278892f5278726cb9fe0c60c8e8e8ae86909cff6a5ce52eac",
            "type": "pubkey"
          }
        }
      ],
      "hex": "01000000010000000000000000000000000000000000000000000000000000000000000000ffffffff0804ffff001d022d09ffffffff0100f2052a0100000043410452ab689998dcd12ac60b93b0ec457318127aa969f3028483b3a2b8b721bd21860d97074ca884c9b46278892f5278726cb9fe0c60c8e8e8ae86909cff6a5ce52eac00000000"
    }
  ]
}