{
  "hash": "00000000b85542b54c1d112bf198e33a2eff45f323fb1cac544fb8098c44bf32",
  "confirmations": 51830,
  "height": 1268,
  "version": 1,
  "versionHex": "00000001",
  "merkleroot": "6cef449df0158da3af2ec381e67cb9d8857c1ab85debae065bef1187fa28f29b",
  "time": 1232551405,
  "mediantime": 1232548009,
  "nonce": 4082289416,
  "bits": "1d00ffff",
  "difficulty": 1,
  "chainwork": "000000000000000000000000000000000000000000000000000004f504f504f5",
  "nTx": 1,
  "previousblockhash": "000000000ebcccfe77852f665079a06bfd3377b203918b99a5d0ecfd705003d2",
  "nextblockhash": "00000000edf259616118e0c412d65ab12c546de5f6517c61891fc3b4376e6b2f",
  "strippedsize": 216,
  "size": 216,
  "weight": 864,
  "tx": [
    {
      "txid": "6cef449df0158da3af2ec381e67cb9d8857c1ab85debae065bef1187fa28f29b",
      "hash": "6cef449df0158da3af2ec381e67cb9d8857c1ab85debae065bef1187fa28f29b",
      "version": 1,
      "size": 135,
      "vsize": 135,
      "weight": 540,
      "locktime": 0,
      "vin": [
        {
          "coinbase": "04ffff001d02c609",
          "sequence": 4294967295
        }
      ],
      "vout": [
        {
          "value": 50.0,
          "n": 0,
          "scriptPubKey": {
            "asm": "04d320c88bf4ec44078fb090857d7fab4dd8c332466e4a6416fb9149455bd12387e3e0e850047e97873d85a9ef57d24de38368eb1ce715b8a8d2a677989c41df10 OP_CHECKSIG",
            "desc": "pk(04d320c88bf4ec44078fb090857d7fab4dd8c332466e4a6416fb9149455bd12387e3e0e850047e97873d85a9ef57d24de38368eb1ce715b8a8d2a677989c41df10)#0h6fycky",
            "hex": "4104d320c88bf4ec44078fb090857d7fab4dd8c332466e4a6416fb9149455bd12387e3e0e850047e97873d85a9ef57d24de38368eb1ce715b8a8d2a677989c41df10ac",
            "type": "pubkey"
          }
        }
      ],
      "hex": "01000000010000000000000000000000000000000000000000000000000000000000000000ffffffff0804ffff001d02c609ffffffff0100f2052a01000000434104d320c88bf4ec44078fb090857d7fab4dd8c332466e4a6416fb9149455bd12387e3e0e850047e97873d85a9ef57d24de38368eb1ce715b8a8d2a677989c41df10ac00000000"
    }
  ]
}