{
  "hash": "000000006cb605fdb244424eaaad09187aca8a4f31adfa1b827e2ca19985aa82",
  "confirmations": 45657,
  "height": 7441,
  "version": 1,
  "versionHex": "00000001",
  "merkleroot": "bb6de6a80911f446eaad8135f3d28cd1fb5b0be0c47f92eb78aadc3fe66fea79",
  "time": 1237053254,
  "mediantime": 1237050772,
  "nonce": 33205728,
  "bits": "1d00ffff",
  "difficulty": 1,
  "chainwork": "00000000000000000000000000000000000000000000000000001d121d121d12",
  "nTx": 1,
  "previousblockhash": "00000000a7acce51e7e86d5ed81c361ad127f27c02a80a5b392ef6330c2107cc",
  "nextblockhash": "0000000088fccdc30b98a3bc6c06c83c36f41b5da7695be00855022ca15ba98b",
  "strippedsize": 216,
  "size": 216,
  "weight": 864,
  "tx": [
    {
      "txid": "bb6de6a80911f446eaad8135f3d28cd1fb5b0be0c47f92eb78aadc3fe66fea79",
      "hash": "bb6de6a80911f446eaad8135f3d28cd1fb5b0be0c47f92eb78aadc3fe66fea79",
      "version": 1,
      "size": 135,
      "vsize": 135,
      "weight": 540,
      "locktime": 0,
      "vin": [
        {
          "coinbase": "04ffff001d028801",
          "sequence": 4294967295
        }
      ],
      "vout": [
        {
          "value": 50.0,
          "n": 0,
          "scriptPubKey": {
            "asm": "045f1244ba0f694b00d00606dfd5c1f16c07203bbceff402036a3b1ef09cd2ce2c54399bf6696cd5002ccf9da156338ccf4570ae2cb4d31f61cb4b68f35ad97b1d OP_CHECKSIG",
            "desc": "pk(045f1244ba0f694b00d00606dfd5c1f16c07203bbceff402036a3b1ef09cd2ce2c54399bf6696cd5002ccf9da156338ccf4570ae2cb4d31f61cb4b68f35ad97b1d)#y6m5l40s",
            "hex": "41045f1244ba0f694b00d00606dfd5c1f16c07203bbceff402036a3b1ef09cd2ce2c54399bf6696cd5002ccf9da156338ccf4570ae2cb4d31f61cb4b68f35ad97b1dac",
            "type": "pubkey"
          }
        }
      ],
      "hex": "01000000010000000000000000000000000000000000000000000000000000000000000000ffffffff0804ffff001d028801ffffffff0100f2052a010000004341045f1244ba0f694b00d00606dfd5c1f16c07203bbceff402036a3b1ef09cd2ce2c54399bf6696cd5002ccf9da156338ccf4570ae2cb4d31f61cb4b68f35ad97b1dac00000000"
    }
  ]
}