{
  "hash": "000000008f73a920ccd0081eba0f5298d4290f774d79cdf789ea102da9628d02",
  "confirmations": 46243,
  "height": 6855,
  "version": 1,
  "versionHex": "00000001",
  "merkleroot": "5e6d716114ca66a88204a227d4b532c2190f1e1e67a688e65d6d8997b13d63d6",
  "time": 1236598541,
  "mediantime": 1236594080,
  "nonce": 2557094405,
  "bits": "1d00ffff",
  "difficulty": 1,
  "chainwork": "00000000000000000000000000000000000000000000000000001ac81ac81ac8",
  "nTx": 1,
  "previousblockhash": "000000007db21ca5337f74ecf4d9fb1286273b773c7f733cf71b70855cf9cb91",
  "nextblockhash": "00000000278617cb288129fdc526d05d9f3bb671f7933b12100e1ed1d6896c8c",
  "strippedsize": 216,
  "size": 216,
  "weight": 864,
  "tx": [
    {
      "txid": "5e6d716114ca66a88204a227d4b532c2190f1e1e67a688e65d6d8997b13d63d6",
      "hash": "5e6d716114ca66a88204a227d4b532c2190f1e1e67a688e65d6d8997b13d63d6",
      "version": 1,
      "size": 135,
      "vsize": 135,
      "weight": 540,
      "locktime": 0,
      "vin": [
        {
          "coinbase": "04ffff001d02cb09",
          "sequence": 4294967295
        }
      ],
      "vout": [
        {
          "value": 50.0,
          "n": 0,
          "scriptPubKey": {
            "asm": "04b9c40e64a92e101dfdafc9ef8f1e0bac2303e9f22e630acf0d5c7e077a1a1702cfd0453734251dadf331ae831b80523458f8bc19723af0ed0ab0eaed46dd8d5f OP_CHECKSIG",
            "desc": "pk(04b9c40e64a92e101dfdafc9ef8f1e0bac2303e9f22e630acf0d5c7e077a1a1702cfd0453734251dadf331ae831b80523458f8bc19723af0ed0ab0eaed46dd8d5f)#vv36p4hl",
            "hex": "4104b9c40e64a92e101dfdafc9ef8f1e0bac2303e9f22e630acf0d5c7e077a1a1702cfd0453734251dadf331ae831b80523458f8bc19723af0ed0ab0eaed46dd8d5fac",
            "type": "pubkey"
          }
        }
      ],
      "hex": "01000000010000000000000000000000000000000000000000000000000000000000000000ffffffff0804ffff001d02cb09ffffffff0100f2052a01000000434104b9c40e64a92e101dfdafc9ef8f1e0bac2303e9f22e630acf0d5c7e077a1a1702cfd0453734251dadf331ae831b80523458f8bc19723af0ed0ab0eaed46dd8d5fac00000000"
    }
  ]
}