{
  "hash": "00000000fc051fbbce89a487e811a5d4319d209785ea4f4b27fc83770d1e415f",
  "confirmations": 51799,
  "height": 24,
  "version": 1,
  "versionHex": "00000001",
  "merkleroot": "43c39b8b3728c6cb26fae0fc18803ca6cf43e15fde218e3dfbd54e633cf6753e",
  "time": 1231568277,
  "mediantime": 1231564974,
  "nonce": 2969614887,
  "bits": "1d00ffff",
  "difficulty": 1,
  "chainwork": "0000000000000000000000000000000000000000000000000000001900190019",
  "nTx": 1,
  "previousblockhash": "000000000cd339982e556dfffa9de94744a4135c53eeef15b7bcc9bdeb9c2182",
  "nextblockhash": "000000008e35a1d59ea1be8d76683662f47fd13c62a9e347ad5845a26f762026",
  "strippedsize": 215,
  "size": 215,
  "weight": 860,
  "tx": [
    {
      "txid": "43c39b8b3728c6cb26fae0fc18803ca6cf43e15fde218e3dfbd54e633cf6753e",
      "hash": "43c39b8b3728c6cb26fae0fc18803ca6cf43e15fde218e3dfbd54e633cf6753e",
      "version": 1,
      "size": 134,
      "vsize": 134,
      "weight": 536,
      "locktime": 0,
      "vin": [
        {
          "coinbase": "04ffff001d013f",
          "sequence": 4294967295
        }
      ],
      "vout": [
        {
          "value": 50.0,
          "n": 0,
          "scriptPubKey": {
            "asm": "049523af765da5408d0a4f9d33af2e103c57b8b31877969173e7a7c313bf09a9803dcceec9b29d0fab4737173e3cb6dcc11ab7f233d8b1d715748ca4d715770ac3 OP_CHECKSIG",
            "desc": "pk(049523af765da5408d0a4f9d33af2e103c57b8b31877969173e7a7c313bf09a9803dcceec9b29d0fab4737173e3cb6dcc11ab7f233d8b1d715748ca4d715770ac3)#jh8dqljc",
            "hex": "41049523af765da5408d0a4f9d33af2e103c57b8b31877969173e7a7c313bf09a9803dcceec9b29d0fab4737173e3cb6dcc11ab7f233d8b1d715748ca4d715770ac3ac",
            "type": "pubkey"
          }
        }
      ],
      "hex": "01000000010000000000000000000000000000000000000000000000000000000000000000ffffffff0704ffff001d013fffffffff0100f2052a010000004341049523af765da5408d0a4f9d33af2e103c57b8b31877969173e7a7c313bf09a9803dcceec9b29d0fab4737173e3cb6dcc11ab7f233d8b1d715748ca4d715770ac3ac00000000"
    }
  ]
}