{
  "hash": "00000000b6d776781b8a46d059660e60c67e108fd5a5ed441a7995266186f050",
  "confirmations": 51596,
  "height": 1502,
  "version": 1,
  "versionHex": "00000001",
  "merkleroot": "7d2d9d0efd28ef36d14d7c59134e2c027f6f03e26b7924130a6ac5f6d9cce3c4",
  "time": 1232769322,
  "mediantime": 1232766818,
  "nonce": 1388156716,
  "bits": "1d00ffff",
  "difficulty": 1,
  "chainwork": "000000000000000000000000000000000000000000000000000005df05df05df",
  "nTx": 1,
  "previousblockhash": "0000000054f7d37ec4740027b6994907d8e771d77c14501503833da4146e8637",
  "nextblockhash": "00000000b0deb59c67e3efb491550cefba0c3cd959af391e5735763e5e62706f",
  "strippedsize": 216,
  "size": 216,
  "weight": 864,
  "tx": [
    {
      "txid": "7d2d9d0efd28ef36d14d7c59134e2c027f6f03e26b7924130a6ac5f6d9cce3c4",
      "hash": "7d2d9d0efd28ef36d14d7c59134e2c027f6f03e26b7924130a6ac5f6d9cce3c4",
      "version": 1,
      "size": 135,
      "vsize": 135,
      "weight": 540,
      "locktime": 0,
      "vin": [
        {
          "coinbase": "04ffff001d023401",
          "sequence": 4294967295
        }
      ],
      "vout": [
        {
          "value": 50.0,
          "n": 0,
          "scriptPubKey": {
            "asm": "04bc52405d74ebd0c8d71ee7ee0d559f9b8bc6268d46ee155a9319c1a34ecba19338dadd659ed41488435b3221bde0c735f2a09ab0ba24f818af26614e5b506d2f OP_CHECKSIG",
            "desc": "pk(04bc52405d74ebd0c8d71ee7ee0d559f9b8bc6268d46ee155a9319c1a34ecba19338dadd659ed41488435b3221bde0c735f2a09ab0ba24f818af26614e5b506d2f)#a535atjg",
            "hex": "4104bc52405d74ebd0c8d71ee7ee0d559f9b8bc6268d46ee155a9319c1a34ecba19338dadd659ed41488435b3221bde0c735f2a09ab0ba24f818af26614e5b506d2fac",
            "type": "pubkey"
          }
        }
      ],
      "hex": "01000000010000000000000000000000000000000000000000000000000000000000000000ffffffff0804ffff001d023401ffffffff0100f2052a01000000434104bc52405d74ebd0c8d71ee7ee0d559f9b8bc6268d46ee155a9319c1a34ecba19338dadd659ed41488435b3221bde0c735f2a09ab0ba24f818af26614e5b506d2fac00000000"
    }
  ]
}