{
  "hash": "000000008d608e153af9dfa3b67d10ba42e08083ca45cc40788b97398ed73632",
  "confirmations": 44565,
  "height": 8533,
  "version": 1,
  "versionHex": "00000001",
  "merkleroot": "bfe388a368d744abb75d5d9e61bb27b5ce1fc715a04c1cfa65cc42808c1d63c1",
  "time": 1237897914,
  "mediantime": 1237895792,
  "nonce": 15652691,
  "bits": "1d00ffff",
  "difficulty": 1,
  "chainwork": "0000000000000000000000000000000000000000000000000000215621562156",
  "nTx": 1,
  "previousblockhash": "00000000becf44176653725cbdb1e7f7f53831953566deb59b8c685ee833e414",
  "nextblockhash": "00000000be893e7b26be5ad696a8a3a13772e0362530dc7c7149ffd13348bbdf",
  "strippedsize": 216,
  "size": 216,
  "weight": 864,
  "tx": [
    {
      "txid": "bfe388a368d744abb75d5d9e61bb27b5ce1fc715a04c1cfa65cc42808c1d63c1",
      "hash": "bfe388a368d744abb75d5d9e61bb27b5ce1fc715a04c1cfa65cc42808c1d63c1",
      "version": 1,
      "size": 135,
      "vsize": 135,
      "weight": 540,
      "locktime": 0,
      "vin": [
        {
          "coinbase": "04ffff001d021c02",
          "sequence": 4294967295
        }
      ],
      "vout": [
        {
          "value": 50.0,
          "n": 0,
          "scriptPubKey": {
            "asm": "046a8262bb4c6aea8cb4d3f6e7e5fe532448bb25d452f00a19a37ec9a3f4ef801be5d11a5df072d4a77ae5896c47b1234a42df377d971236534909654bab87bcb0 OP_CHECKSIG",
            "desc": "pk(046a8262bb4c6aea8cb4d3f6e7e5fe532448bb25d452f00a19a37ec9a3f4ef801be5d11a5df072d4a77ae5896c47b1234a42df377d971236534909654bab87bcb0)#ypg4t75h",
            "hex": "41046a8262bb4c6aea8cb4d3f6e7e5fe532448bb25d452f00a19a37ec9a3f4ef801be5d11a5df072d4a77ae5896c47b1234a42df377d971236534909654bab87bcb0ac",
            "type": "pubkey"
          }
        }
      ],
      "hex": "01000000010000000000000000000000000000000000000000000000000000000000000000ffffffff0804ffff001d021c02ffffffff0100f2052a010000004341046a8262bb4c6aea8cb4d3f6e7e5fe532448bb25d452f00a19a37ec9a3f4ef801be5d11a5df072d4a77ae5896c47b1234a42df377d971236534909654bab87bcb0ac00000000"
    }
  ]
}