{
  "hash": "00000000a783b17791529c67bc7c7398ef0fd86a5747d27920dab5583f903a1c",
  "confirmations": 45295,
  "height": 7803,
  "version": 1,
  "versionHex": "00000001",
  "merkleroot": "e6ab13d4f1db388c7b7fec7ff6821174e8dd68f9ba2e899d25a00a87b4bc0faa",
  "time": 1237315696,
  "mediantime": 1237311626,
  "nonce": 2414274568,
  "bits": "1d00ffff",
  "difficulty": 1,
  "chainwork": "00000000000000000000000000000000000000000000000000001e7c1e7c1e7c",
  "nTx": 1,
  "previousblockhash": "000000007c7699978fc025e5b6b2b68f23523c08f8f6e70900133836992ecd27",
  "nextblockhash": "0000000098b558c90ae999a09ebe7fb61b23d01e3a2d6fa9e204cab89d02df60",
  "strippedsize": 216,
  "size": 216,
  "weight": 864,
  "tx": [
    {
      "txid": "e6ab13d4f1db388c7b7fec7ff6821174e8dd68f9ba2e899d25a00a87b4bc0faa",
      "hash": "e6ab13d4f1db388c7b7fec7ff6821174e8dd68f9ba2e899d25a00a87b4bc0faa",
      "version": 1,
      "size": 135,
      "vsize": 135,
      "weight": 540,
      "locktime": 0,
      "vin": [
        {
          "coinbase": "04ffff001d02eb05",
          "sequence": 4294967295
        }
      ],
      "vout": [
        {
          "value": 50.0,
          "n": 0,
          "scriptPubKey": {
            "asm": "0425d2ee498a9365437f6dc3ff5c80855855574bd29ae67e0fbb3edb4a9810e9bc9ae453e61e88f87c64eae4d95f2a3ed7d2fed0dd6ddaf8820b557e6bff1e0b0e OP_CHECKSIG",
            "desc": "pk(0425d2ee498a9365437f6dc3ff5c80855855574bd29ae67e0fbb3edb4a9810e9bc9ae453e61e88f87c64eae4d95f2a3ed7d2fed0dd6ddaf8820b557e6bff1e0b0e)#e02dwr3d",
            "hex": "410425d2ee498a9365437f6dc3ff5c80855855574bd29ae67e0fbb3edb4a9810e9bc9ae453e61e88f87c64eae4d95f2a3ed7d2fed0dd6ddaf8820b557e6bff1e0b0eac",
            "type": "pubkey"
          }
        }
      ],
      "hex": "01000000010000000000000000000000000000000000000000000000000000000000000000ffffffff0804ffff001d02eb05ffffffff0100f2052a0100000043410425d2ee498a9365437f6dc3ff5c80855855574bd29ae67e0fbb3edb4a9810e9bc9ae453e61e88f87c64eae4d95f2a3ed7d2fed0dd6ddaf8820b557e6bff1e0b0eac00000000"
    }
  ]
}