{
  "hash": "00000000019858736be027ddd1628b76883e8ee232b3edc0ca8b4a64c9f54b5b",
  "confirmations": 43753,
  "height": 9345,
  "version": 1,
  "versionHex": "00000001",
  "merkleroot": "1f61b90d454a63125352193cc297e0ccab19db94fed491773aa0033249c8b873",
  "time": 1238507434,
  "mediantime": 1238504173,
  "nonce": 3842307363,
  "bits": "1d00ffff",
  "difficulty": 1,
  "chainwork": "0000000000000000000000000000000000000000000000000000248224822482",
  "nTx": 1,
  "previousblockhash": "00000000db231852c614916ecff841e9a7f6d8226874fbaf4613ca64e5afe228",
  "nextblockhash": "0000000048bb414dabe36b4d47bbc9abb9a35ebd871906df4841b731d8b3797d",
  "strippedsize": 216,
  "size": 216,
  "weight": 864,
  "tx": [
    {
      "txid": "1f61b90d454a63125352193cc297e0ccab19db94fed491773aa0033249c8b873",
      "hash": "1f61b90d454a63125352193cc297e0ccab19db94fed491773aa0033249c8b873",
      "version": 1,
      "size": 135,
      "vsize": 135,
      "weight": 540,
      "locktime": 0,
      "vin": [
        {
          "coinbase": "04ffff001d029402",
          "sequence": 4294967295
        }
      ],
      "vout": [
        {
          "value": 50.0,
          "n": 0,
          "scriptPubKey": {
            "asm": "04531dd156f45aeb7a3db7080da8a9d974c2e5c6265c40a55b56d9180a152ca305cebec505f7cdbbab03df4f63b885bb25716010260bb7b3f6c10eaca7745f174c OP_CHECKSIG",
            "desc": "pk(04531dd156f45aeb7a3db7080da8a9d974c2e5c6265c40a55b56d9180a152ca305cebec505f7cdbbab03df4f63b885bb25716010260bb7b3f6c10eaca7745f174c)#kernc60w",
            "hex": "4104531dd156f45aeb7a3db7080da8a9d974c2e5c6265c40a55b56d9180a152ca305cebec505f7cdbbab03df4f63b885bb25716010260bb7b3f6c10eaca7745f174cac",
            "type": "pubkey"
          }
        }
      ],
      "hex": "01000000010000000000000000000000000000000000000000000000000000000000000000ffffffff0804ffff001d029402ffffffff0100f2052a01000000434104531dd156f45aeb7a3db7080da8a9d974c2e5c6265c40a55b56d9180a152ca305cebec505f7cdbbab03df4f63b885bb25716010260bb7b3f6c10eaca7745f174cac00000000"
    }
  ]
}