{
  "hash": "00000000dd6dd4852c465daec9d045abf836107dae2c7bf711692d62b96a00cd",
  "confirmations": 51475,
  "height": 1623,
  "version": 1,
  "versionHex": "00000001",
  "merkleroot": "58b5fb7ca39e99489198aeea3ac211c064933d7cf755c173307d3d4dd8ba0804",
  "time": 1232820953,
  "mediantime": 1232819209,
  "nonce": 3487179299,
  "bits": "1d00ffff",
  "difficulty": 1,
  "chainwork": "0000000000000000000000000000000000000000000000000000065806580658",
  "nTx": 1,
  "previousblockhash": "00000000ccdabc8da7cfade006e318da72afdd3fc48102b960722313d087382f",
  "nextblockhash": "00000000bd7a659da73ba4bbeb4dfd8c9326463fe4e243f45cdb905bfe0daa1c",
  "strippedsize": 216,
  "size": 216,
  "weight": 864,
  "tx": [
    {
      "txid": "58b5fb7ca39e99489198aeea3ac211c064933d7cf755c173307d3d4dd8ba0804",
      "hash": "58b5fb7ca39e99489198aeea3ac211c064933d7cf755c173307d3d4dd8ba0804",
      "version": 1,
      "size": 135,
      "vsize": 135,
      "weight": 540,
      "locktime": 0,
      "vin": [
        {
          "coinbase": "04ffff001d023902",
          "sequence": 4294967295
        }
      ],
      "vout": [
        {
          "value": 50.0,
          "n": 0,
          "scriptPubKey": {
            "asm": "04eba8a6e2b3e76a05662988c6235798885f748e52d43cc38a9f2a795a8d8bd5c79d1b12cfb0ce08889703e44264e412b5cabcf90068d02c4ed1c4f24ddac64c66 OP_CHECKSIG",
            "desc": "pk(04eba8a6e2b3e76a05662988c6235798885f748e52d43cc38a9f2a795a8d8bd5c79d1b12cfb0ce08889703e44264e412b5cabcf90068d02c4ed1c4f24ddac64c66)#vg0g4rzy",
            "hex": "4104eba8a6e2b3e76a05662988c6235798885f748e52d43cc38a9f2a795a8d8bd5c79d1b12cfb0ce08889703e44264e412b5cabcf90068d02c4ed1c4f24ddac64c66ac",
            "type": "pubkey"
          }
        }
      ],
      "hex": "01000000010000000000000000000000000000000000000000000000000000000000000000ffffffff0804ffff001d023902ffffffff0100f2052a01000000434104eba8a6e2b3e76a05662988c6235798885f748e52d43cc38a9f2a795a8d8bd5c79d1b12cfb0ce08889703e44264e412b5cabcf90068d02c4ed1c4f24ddac64c66ac00000000"
    }
  ]
}