{
  "hash": "0000000052b0361fae7eb7b7612b34b7c8f13b3d88fb4046af83b3b0e9d2fc58",
  "confirmations": 46886,
  "height": 6212,
  "version": 1,
  "versionHex": "00000001",
  "merkleroot": "c8611583d154e93f1ef3797ae3b239a80308323eab406450897fd8165bac9273",
  "time": 1236101705,
  "mediantime": 1236097127,
  "nonce": 2055753017,
  "bits": "1d00ffff",
  "difficulty": 1,
  "chainwork": "0000000000000000000000000000000000000000000000000000184518451845",
  "nTx": 1,
  "previousblockhash": "000000006b282401107dde85409af86b2bea8e9dce3d824edb6e3bdd9429cd29",
  "nextblockhash": "00000000fa194d73503b3c2195de33f526e3ff5731005b93a75de60776a44ce9",
  "strippedsize": 216,
  "size": 216,
  "weight": 864,
  "tx": [
    {
      "txid": "c8611583d154e93f1ef3797ae3b239a80308323eab406450897fd8165bac9273",
      "hash": "c8611583d154e93f1ef3797ae3b239a80308323eab406450897fd8165bac9273",
      "version": 1,
      "size": 135,
      "vsize": 135,
      "weight": 540,
      "locktime": 0,
      "vin": [
        {
          "coinbase": "04ffff001d02b108",
          "sequence": 4294967295
        }
      ],
      "vout": [
        {
          "value": 50.0,
          "n": 0,
          "scriptPubKey": {
            "asm": "04229796582349cf0d5491710e40c5f1b72518a553d5a2d26ab54a0e2cddc0df2a8bcc6ca6ca64b83f00d3b542e7403a312201eca91adc2b70db8d839559c777cb OP_CHECKSIG",
            "desc": "pk(04229796582349cf0d5491710e40c5f1b72518a553d5a2d26ab54a0e2cddc0df2a8bcc6ca6ca64b83f00d3b542e7403a312201eca91adc2b70db8d839559c777cb)#pergegwc",
            "hex": "4104229796582349cf0d5491710e40c5f1b72518a553d5a2d26ab54a0e2cddc0df2a8bcc6ca6ca64b83f00d3b542e7403a312201eca91adc2b70db8d839559c777cbac",
            "type": "pubkey"
          }
        }
      ],
      "hex": "01000000010000000000000000000000000000000000000000000000000000000000000000ffffffff0804ffff001d02b108ffffffff0100f2052a01000000434104229796582349cf0d5491710e40c5f1b72518a553d5a2d26ab54a0e2cddc0df2a8bcc6ca6ca64b83f00d3b542e7403a312201eca91adc2b70db8d839559c777cbac00000000"
    }
  ]
}