{
  "hash": "00000000f7e4a39b5ae45a0e73c1719d177ee1078a69907fe485cacf7f0e8d3f",
  "confirmations": 45888,
  "height": 7210,
  "version": 1,
  "versionHex": "00000001",
  "merkleroot": "8b12c9a3a135f3cb40415e3e171fbd54b782cc4f7ff77de9c723d6c33aa9199d",
  "time": 1236879547,
  "mediantime": 1236874296,
  "nonce": 3065625636,
  "bits": "1d00ffff",
  "difficulty": 1,
  "chainwork": "00000000000000000000000000000000000000000000000000001c2b1c2b1c2b",
  "nTx": 1,
  "previousblockhash": "00000000211fac5a418e2508b80abea0e62b404f3bd67266479e70e2b62679af",
  "nextblockhash": "00000000c4ba7c08aa7eae6210902548bdb3044b0c1b46414c7417a99a73b088",
  "strippedsize": 216,
  "size": 216,
  "weight": 864,
  "tx": [
    {
      "txid": "8b12c9a3a135f3cb40415e3e171fbd54b782cc4f7ff77de9c723d6c33aa9199d",
      "hash": "8b12c9a3a135f3cb40415e3e171fbd54b782cc4f7ff77de9c723d6c33aa9199d",
      "version": 1,
      "size": 135,
      "vsize": 135,
      "weight": 540,
      "locktime": 0,
      "vin": [
        {
          "coinbase": "04ffff001d02dc05",
          "sequence": 4294967295
        }
      ],
      "vout": [
        {
          "value": 50.0,
          "n": 0,
          "scriptPubKey": {
            "asm": "040c95992bbf5fd44a4a710649baf9d1aa4d53b28bbfc7ff00cc6389c928cf774994e283118da6ea1a06cfe1e960828703f92168544dce18eeb03ef67ef406d66e OP_CHECKSIG",
            "desc": "pk(040c95992bbf5fd44a4a710649baf9d1aa4d53b28bbfc7ff00cc6389c928cf774994e283118da6ea1a06cfe1e960828703f92168544dce18eeb03ef67ef406d66e)#edwnjge5",
            "hex": "41040c95992bbf5fd44a4a710649baf9d1aa4d53b28bbfc7ff00cc6389c928cf774994e283118da6ea1a06cfe1e960828703f92168544dce18eeb03ef67ef406d66eac",
            "type": "pubkey"
          }
        }
      ],
      "hex": "01000000010000000000000000000000000000000000000000000000000000000000000000ffffffff0804ffff001d02dc05ffffffff0100f2052a010000004341040c95992bbf5fd44a4a710649baf9d1aa4d53b28bbfc7ff00cc6389c928cf774994e283118da6ea1a06cfe1e960828703f92168544dce18eeb03ef67ef406d66eac00000000"
    }
  ]
}