{
  "hash": "00000000c64ceffb1ac5ae7078481330d26bc1d52e7a98cc57ac6b0030124b85",
  "confirmations": 43543,
  "height": 9555,
  "version": 1,
  "versionHex": "00000001",
  "merkleroot": "5277149f7bbd933e026ee162858bfbcd407c4a18631d69f31c1dd916a1c72db9",
  "time": 1238666277,
  "mediantime": 1238662777,
  "nonce": 56973004,
  "bits": "1d00ffff",
  "difficulty": 1,
  "chainwork": "0000000000000000000000000000000000000000000000000000255425542554",
  "nTx": 1,
  "previousblockhash": "0000000069106242b2224082ba60c7f4af8bb2d1d412f47d9e4c50e8aaf99fbe",
  "nextblockhash": "00000000775798c54b3455ff346911da7c48f13a8ca87183b8d3d41a666581f6",
  "strippedsize": 216,
  "size": 216,
  "weight": 864,
  "tx": [
    {
      "txid": "5277149f7bbd933e026ee162858bfbcd407c4a18631d69f31c1dd916a1c72db9",
      "hash": "5277149f7bbd933e026ee162858bfbcd407c4a18631d69f31c1dd916a1c72db9",
      "version": 1,
      "size": 135,
      "vsize": 135,
      "weight": 540,
      "locktime": 0,
      "vin": [
        {
          "coinbase": "04ffff001d028a00",
          "sequence": 4294967295
        }
      ],
      "vout": [
        {
          "value": 50.0,
          "n": 0,
          "scriptPubKey": {
            "asm": "04bc0c95d44b4b132b7d9b7b3fb77a17697789f34fad7119ad0f1d1c8c8d5076072cdfb5469026ab23b8df249b3efae757e2cad1184e3505a60117f217ea945a21 OP_CHECKSIG",
            "desc": "pk(04bc0c95d44b4b132b7d9b7b3fb77a17697789f34fad7119ad0f1d1c8c8d5076072cdfb5469026ab23b8df249b3efae757e2cad1184e3505a60117f217ea945a21)#a2ksj9vm",
            "hex": "4104bc0c95d44b4b132b7d9b7b3fb77a17697789f34fad7119ad0f1d1c8c8d5076072cdfb5469026ab23b8df249b3efae757e2cad1184e3505a60117f217ea945a21ac",
            "type": "pubkey"
          }
        }
      ],
      "hex": "01000000010000000000000000000000000000000000000000000000000000000000000000ffffffff0804ffff001d028a00ffffffff0100f2052a01000000434104bc0c95d44b4b132b7d9b7b3fb77a17697789f34fad7119ad0f1d1c8c8d5076072cdfb5469026ab23b8df249b3efae757e2cad1184e3505a60117f217ea945a21ac00000000"
    }
  ]
}