{
  "hash": "00000000a8dbbd2c5c1b17611ddde87ef045a49e528dd91df13d4ef0f80ef03e",
  "confirmations": 50695,
  "height": 2403,
  "version": 1,
  "versionHex": "00000001",
  "merkleroot": "f52d78150746f8db15ff4d15c1a0dd0e3ecbf36802c95d6d8779b9c59b736d84",
  "time": 1233357411,
  "mediantime": 1233355442,
  "nonce": 3588215059,
  "bits": "1d00ffff",
  "difficulty": 1,
  "chainwork": "0000000000000000000000000000000000000000000000000000096409640964",
  "nTx": 1,
  "previousblockhash": "00000000040ea4732f40af0f7392e3b97a4b58309fb012a625120be5899f3f2d",
  "nextblockhash": "000000001b855e08f1e619a9f854a9bc3914fd532102bc93970647299b373efd",
  "strippedsize": 215,
  "size": 215,
  "weight": 860,
  "tx": [
    {
      "txid": "f52d78150746f8db15ff4d15c1a0dd0e3ecbf36802c95d6d8779b9c59b736d84",
      "hash": "f52d78150746f8db15ff4d15c1a0dd0e3ecbf36802c95d6d8779b9c59b736d84",
      "version": 1,
      "size": 134,
      "vsize": 134,
      "weight": 536,
      "locktime": 0,
      "vin": [
        {
          "coinbase": "04ffff001d010c",
          "sequence": 4294967295
        }
      ],
      "vout": [
        {
          "value": 50.0,
          "n": 0,
          "scriptPubKey": {
            "asm": "04eb56f608960423b8e3a1d1eed3f3019739e36922490231048a32b3871435461a0895a04fe87d2bcd557949109a6a51d70754566e4423ff590c1f6531c9016056 OP_CHECKSIG",
            "desc": "pk(04eb56f608960423b8e3a1d1eed3f3019739e36922490231048a32b3871435461a0895a04fe87d2bcd557949109a6a51d70754566e4423ff590c1f6531c9016056)#x3ekgn6l",
            "hex": "4104eb56f608960423b8e3a1d1eed3f3019739e36922490231048a32b3871435461a0895a04fe87d2bcd557949109a6a51d70754566e4423ff590c1f6531c9016056ac",
            "type": "pubkey"
          }
        }
      ],
      "hex": "01000000010000000000000000000000000000000000000000000000000000000000000000ffffffff0704ffff001d010cffffffff0100f2052a01000000434104eb56f608960423b8e3a1d1eed3f3019739e36922490231048a32b3871435461a0895a04fe87d2bcd557949109a6a51d70754566e4423ff590c1f6531c9016056ac00000000"
    }
  ]
}