{
  "hash": "00000000d9c0e9269ed8bdcb6e29e73dd26fa5c38773f6a9d294734687cef0c3",
  "confirmations": 45123,
  "height": 7975,
  "version": 1,
  "versionHex": "00000001",
  "merkleroot": "66b425423f8b3472ac0aa8cdb4cb534d449f4fe302bd311e8848b815496daee6",
  "time": 1237445557,
  "mediantime": 1237441990,
  "nonce": 2708048174,
  "bits": "1d00ffff",
  "difficulty": 1,
  "chainwork": "00000000000000000000000000000000000000000000000000001f281f281f28",
  "nTx": 1,
  "previousblockhash": "00000000cf24dec9975c7bac7a1ca87a8fb5ebc0399c884b8586e71947f76a71",
  "nextblockhash": "000000007d8eb6a31643d9e47f437b2a777b5696508fa78f8781ae656c06dc2b",
  "strippedsize": 216,
  "size": 216,
  "weight": 864,
  "tx": [
    {
      "txid": "66b425423f8b3472ac0aa8cdb4cb534d449f4fe302bd311e8848b815496daee6",
      "hash": "66b425423f8b3472ac0aa8cdb4cb534d449f4fe302bd311e8848b815496daee6",
      "version": 1,
      "size": 135,
      "vsize": 135,
      "weight": 540,
      "locktime": 0,
      "vin": [
        {
          "coinbase": "04ffff001d02fd08",
          "sequence": 4294967295
        }
      ],
      "vout": [
        {
          "value": 50.0,
          "n": 0,
          "scriptPubKey": {
            "asm": "041a5e28437591825637120cb55c601f9542934ed70f25ea592fb40e791d2599bddc98524cab462280af8e43d47960629a881fccb7a3e4bc9ce1f4f32702b3cd52 OP_CHECKSIG",
            "desc": "pk(041a5e28437591825637120cb55c601f9542934ed70f25ea592fb40e791d2599bddc98524cab462280af8e43d47960629a881fccb7a3e4bc9ce1f4f32702b3cd52)#tyyy35sr",
            "hex": "41041a5e28437591825637120cb55c601f9542934ed70f25ea592fb40e791d2599bddc98524cab462280af8e43d47960629a881fccb7a3e4bc9ce1f4f32702b3cd52ac",
            "type": "pubkey"
          }
        }
      ],
      "hex": "01000000010000000000000000000000000000000000000000000000000000000000000000ffffffff0804ffff001d02fd08ffffffff0100f2052a010000004341041a5e28437591825637120cb55c601f9542934ed70f25ea592fb40e791d2599bddc98524cab462280af8e43d47960629a881fccb7a3e4bc9ce1f4f32702b3cd52ac00000000"
    }
  ]
}