{
  "hash": "00000000325432f3ae3182ff4231e2e4ad183b9babf9c843385dadc8c3e75096",
  "confirmations": 49644,
  "height": 3454,
  "version": 1,
  "versionHex": "00000001",
  "merkleroot": "ced0a45354e7c6315be1ffa8d50b79145170637028be5f03ef1520a8d5c4372b",
  "time": 1234073911,
  "mediantime": 1234070906,
  "nonce": 2712840486,
  "bits": "1d00ffff",
  "difficulty": 1,
  "chainwork": "00000000000000000000000000000000000000000000000000000d7f0d7f0d7f",
  "nTx": 1,
  "previousblockhash": "00000000c00b0ed1b46c6fcd608e0b2e84bbc39b9938c4f2673f9e5744f4accf",
  "nextblockhash": "00000000529644173fee24b8025b60721dbbc94ffa62ea31ce1f0af7d294263b",
  "strippedsize": 216,
  "size": 216,
  "weight": 864,
  "tx": [
    {
      "txid": "ced0a45354e7c6315be1ffa8d50b79145170637028be5f03ef1520a8d5c4372b",
      "hash": "ced0a45354e7c6315be1ffa8d50b79145170637028be5f03ef1520a8d5c4372b",
      "version": 1,
      "size": 135,
      "vsize": 135,
      "weight": 540,
      "locktime": 0,
      "vin": [
        {
          "coinbase": "04ffff001d025b06",
          "sequence": 4294967295
        }
      ],
      "vout": [
        {
          "value": 50.0,
          "n": 0,
          "scriptPubKey": {
            "asm": "04016b4583cfa2a009f6199bca9b3d14908659eb9a24e0e6e7897ea5a20221de5329455a14c6a294b660732bb7aad4beba2fcf99b8efef7f3e86d4e5866b4ca199 OP_CHECKSIG",
            "desc": "pk(04016b4583cfa2a009f6199bca9b3d14908659eb9a24e0e6e7897ea5a20221de5329455a14c6a294b660732bb7aad4beba2fcf99b8efef7f3e86d4e5866b4ca199)#825t6kfw",
            "hex": "4104016b4583cfa2a009f6199bca9b3d14908659eb9a24e0e6e7897ea5a20221de5329455a14c6a294b660732bb7aad4beba2fcf99b8efef7f3e86d4e5866b4ca199ac",
            "type": "pubkey"
          }
        }
      ],
      "hex": "01000000010000000000000000000000000000000000000000000000000000000000000000ffffffff0804ffff001d025b06ffffffff0100f2052a01000000434104016b4583cfa2a009f6199bca9b3d14908659eb9a24e0e6e7897ea5a20221de5329455a14c6a294b660732bb7aad4beba2fcf99b8efef7f3e86d4e5866b4ca199ac00000000"
    }
  ]
}