{
  "hash": "00000000daf09309228c0a50e0b30f65411db9cee48635a1ea150be7b3127918",
  "confirmations": 52361,
  "height": 737,
  "version": 1,
  "versionHex": "00000001",
  "merkleroot": "4c645f958c36454b3c6aa22e1c9096cd79873cadf82131446c892921cb50f54c",
  "time": 1232139727,
  "mediantime": 1232135969,
  "nonce": 2887984423,
  "bits": "1d00ffff",
  "difficulty": 1,
  "chainwork": "000000000000000000000000000000000000000000000000000002e202e202e2",
  "nTx": 1,
  "previousblockhash": "00000000305d6a663100108e3ead61bdb3df4ca9d5875e1db372d512d14b035c",
  "nextblockhash": "000000000ec2bace2282d8d1e69b9d9371a6dea1665460e74fee9f05a6c8cefc",
  "strippedsize": 215,
  "size": 215,
  "weight": 860,
  "tx": [
    {
      "txid": "4c645f958c36454b3c6aa22e1c9096cd79873cadf82131446c892921cb50f54c",
      "hash": "4c645f958c36454b3c6aa22e1c9096cd79873cadf82131446c892921cb50f54c",
      "version": 1,
      "size": 134,
      "vsize": 134,
      "weight": 536,
      "locktime": 0,
      "vin": [
        {
          "coinbase": "04ffff001d0156",
          "sequence": 4294967295
        }
      ],
      "vout": [
        {
          "value": 50.0,
          "n": 0,
          "scriptPubKey": {
            "asm": "04a5d928b8d52f0eaa0c445171e5531d089b99de771a20dc178916f93717140091caa449089736da88636c62a9ebaf6303dad7207d09697122a558f1f9dc2394b4 OP_CHECKSIG",
            "desc": "pk(04a5d928b8d52f0eaa0c445171e5531d089b99de771a20dc178916f93717140091caa449089736da88636c62a9ebaf6303dad7207d09697122a558f1f9dc2394b4)#grru7pq8",
            "hex": "4104a5d928b8d52f0eaa0c445171e5531d089b99de771a20dc178916f93717140091caa449089736da88636c62a9ebaf6303dad7207d09697122a558f1f9dc2394b4ac",
            "type": "pubkey"
          }
        }
      ],
      "hex": "01000000010000000000000000000000000000000000000000000000000000000000000000ffffffff0704ffff001d0156ffffffff0100f2052a01000000434104a5d928b8d52f0eaa0c445171e5531d089b99de771a20dc178916f93717140091caa449089736da88636c62a9ebaf6303dad7207d09697122a558f1f9dc2394b4ac00000000"
    }
  ]
}