{
  "hash": "0000000044a9165d98e9717f08c3000e216c78eec309e172ea612e4f26f27763",
  "confirmations": 45367,
  "height": 7731,
  "version": 1,
  "versionHex": "00000001",
  "merkleroot": "d2224aabdba4557255a1ae5d2306a86478d2d55aeba53b34484b31a14bc019df",
  "time": 1237262497,
  "mediantime": 1237258169,
  "nonce": 2758018822,
  "bits": "1d00ffff",
  "difficulty": 1,
  "chainwork": "00000000000000000000000000000000000000000000000000001e341e341e34",
  "nTx": 1,
  "previousblockhash": "000000002bfbfdc1a10a4a4a84c21fdaabdc8e11368e3d371f8a860aaa0ebdb7",
  "nextblockhash": "000000003e8da1bbcb66f62568bf10f2468fe45fedb0cdb5fef438a20e34baf3",
  "strippedsize": 216,
  "size": 216,
  "weight": 864,
  "tx": [
    {
      "txid": "d2224aabdba4557255a1ae5d2306a86478d2d55aeba53b34484b31a14bc019df",
      "hash": "d2224aabdba4557255a1ae5d2306a86478d2d55aeba53b34484b31a14bc019df",
      "version": 1,
      "size": 135,
      "vsize": 135,
      "weight": 540,
      "locktime": 0,
      "vin": [
        {
          "coinbase": "04ffff001d02be04",
          "sequence": 4294967295
        }
      ],
      "vout": [
        {
          "value": 50.0,
          "n": 0,
          "scriptPubKey": {
            "asm": "0459b8f66d6ee2e26e38c12a4d9b222801f1584cb1af5bdf02741795b1e473f42245eead627c88bdb71e98c88ac259a46e9f711225763f64d8a5d85c52c0b3a9a0 OP_CHECKSIG",
            "desc": "pk(0459b8f66d6ee2e26e38c12a4d9b222801f1584cb1af5bdf02741795b1e473f42245eead627c88bdb71e98c88ac259a46e9f711225763f64d8a5d85c52c0b3a9a0)#wht6pmmk",
            "hex": "410459b8f66d6ee2e26e38c12a4d9b222801f1584cb1af5bdf02741795b1e473f42245eead627c88bdb71e98c88ac259a46e9f711225763f64d8a5d85c52c0b3a9a0ac",
            "type": "pubkey"
          }
        }
      ],
      "hex": "01000000010000000000000000000000000000000000000000000000000000000000000000ffffffff0804ffff001d02be04ffffffff0100f2052a0100000043410459b8f66d6ee2e26e38c12a4d9b222801f1584cb1af5bdf02741795b1e473f42245eead627c88bdb71e98c88ac259a46e9f711225763f64d8a5d85c52c0b3a9a0ac00000000"
    }
  ]
}