{
  "hash": "000000007ffb4d401f726962314e5163331eb09abfd7b2acbbd9cf2e63477769",
  "confirmations": 45686,
  "height": 7412,
  "version": 1,
  "versionHex": "00000001",
  "merkleroot": "0715dabfc39bc24ad7ee8788c7591c0735256e885acccda036184c51ef5ff933",
  "time": 1237032513,
  "mediantime": 1237029282,
  "nonce": 245522524,
  "bits": "1d00ffff",
  "difficulty": 1,
  "chainwork": "00000000000000000000000000000000000000000000000000001cf51cf51cf5",
  "nTx": 1,
  "previousblockhash": "0000000039558e5b2dbc2357daeb5589fa90f4809654631ae776b2e0c0537f3b",
  "nextblockhash": "00000000b7fc62d6c21633ede9a7c12b31527973bec7b05ef3a7347f115ad8c6",
  "strippedsize": 216,
  "size": 216,
  "weight": 864,
  "tx": [
    {
      "txid": "0715dabfc39bc24ad7ee8788c7591c0735256e885acccda036184c51ef5ff933",
      "hash": "0715dabfc39bc24ad7ee8788c7591c0735256e885acccda036184c51ef5ff933",
      "version": 1,
      "size": 135,
      "vsize": 135,
      "weight": 540,
      "locktime": 0,
      "vin": [
        {
          "coinbase": "04ffff001d026b01",
          "sequence": 4294967295
        }
      ],
      "vout": [
        {
          "value": 50.0,
          "n": 0,
          "scriptPubKey": {
            "asm": "0404b202025973d90b94c3d4e986fa06d39cbe8f5cdcd65d889d24fa36eb4043b64c1ff97367331d8a7f65a45de575300c112fb05bf0a286dc23235a7c20bb80d1 OP_CHECKSIG",
            "desc": "pk(0404b202025973d90b94c3d4e986fa06d39cbe8f5cdcd65d889d24fa36eb4043b64c1ff97367331d8a7f65a45de575300c112fb05bf0a286dc23235a7c20bb80d1)#jely07ze",
            "hex": "410404b202025973d90b94c3d4e986fa06d39cbe8f5cdcd65d889d24fa36eb4043b64c1ff97367331d8a7f65a45de575300c112fb05bf0a286dc23235a7c20bb80d1ac",
            "type": "pubkey"
          }
        }
      ],
      "hex": "01000000010000000000000000000000000000000000000000000000000000000000000000ffffffff0804ffff001d026b01ffffffff0100f2052a0100000043410404b202025973d90b94c3d4e986fa06d39cbe8f5cdcd65d889d24fa36eb4043b64c1ff97367331d8a7f65a45de575300c112fb05bf0a286dc23235a7c20bb80d1ac00000000"
    }
  ]
}