{
  "hash": "00000000ed467a2513dd15679b22b20138d16b7b608f6ab79db482011fffa423",
  "confirmations": 46498,
  "height": 6600,
  "version": 1,
  "versionHex": "00000001",
  "merkleroot": "e99408e189d80c5221ca740c2ece29eefd43c830a6ef86b07959dafb74c73471",
  "time": 1236406309,
  "mediantime": 1236400677,
  "nonce": 230414087,
  "bits": "1d00ffff",
  "difficulty": 1,
  "chainwork": "000000000000000000000000000000000000000000000000000019c919c919c9",
  "nTx": 1,
  "previousblockhash": "000000003d2e9b6028278e748c5c0ce4aa9828c60bf121f48656ad32f33e52a4",
  "nextblockhash": "0000000030d8559b2a6a5e5191bd206ccca9278bf37faf042f61da3e4cf660c9",
  "strippedsize": 216,
  "size": 216,
  "weight": 864,
  "tx": [
    {
      "txid": "e99408e189d80c5221ca740c2ece29eefd43c830a6ef86b07959dafb74c73471",
      "hash": "e99408e189d80c5221ca740c2ece29eefd43c830a6ef86b07959dafb74c73471",
      "version": 1,
      "size": 135,
      "vsize": 135,
      "weight": 540,
      "locktime": 0,
      "vin": [
        {
          "coinbase": "04ffff001d02920b",
          "sequence": 4294967295
        }
      ],
      "vout": [
        {
          "value": 50.0,
          "n": 0,
          "scriptPubKey": {
            "asm": "0472001f0bc233d3f78677032cafb8ba1e04eee783181fbdc505455974afb5d646708dc81fa2663889132d3d3ac67d335b9f402857ae1b9c6f76fe148f7d1108c1 OP_CHECKSIG",
            "desc": "pk(0472001f0bc233d3f78677032cafb8ba1e04eee783181fbdc505455974afb5d646708dc81fa2663889132d3d3ac67d335b9f402857ae1b9c6f76fe148f7d1108c1)#x9a4qfcd",
            "hex": "410472001f0bc233d3f78677032cafb8ba1e04eee783181fbdc505455974afb5d646708dc81fa2663889132d3d3ac67d335b9f402857ae1b9c6f76fe148f7d1108c1ac",
            "type": "pubkey"
          }
        }
      ],
      "hex": "01000000010000000000000000000000000000000000000000000000000000000000000000ffffffff0804ffff001d02920bffffffff0100f2052a0100000043410472001f0bc233d3f78677032cafb8ba1e04eee783181fbdc505455974afb5d646708dc81fa2663889132d3d3ac67d335b9f402857ae1b9c6f76fe148f7d1108c1ac00000000"
    }
  ]
}