{
  "hash": "00000000fab5fc2278a9224c4c0905b6159f6e28f0d7c43437f1eea18fb4368a",
  "confirmations": 50076,
  "height": 3022,
  "version": 1,
  "versionHex": "00000001",
  "merkleroot": "a4cca40f736bc5888ad41afb7003103cfe0073187a98700589bf44600618f5af",
  "time": 1233777578,
  "mediantime": 1233774371,
  "nonce": 1113775415,
  "bits": "1d00ffff",
  "difficulty": 1,
  "chainwork": "00000000000000000000000000000000000000000000000000000bcf0bcf0bcf",
  "nTx": 1,
  "previousblockhash": "00000000d9a05c3e4f3fa38316f615e1c3bfbe32b773ac237ebc5e2597a5eed3",
  "nextblockhash": "0000000040250d7fff7b1e37fcd7122ea690494f3d5f47e8d311c126d09a21de",
  "strippedsize": 216,
  "size": 216,
  "weight": 864,
  "tx": [
    {
      "txid": "a4cca40f736bc5888ad41afb7003103cfe0073187a98700589bf44600618f5af",
      "hash": "a4cca40f736bc5888ad41afb7003103cfe0073187a98700589bf44600618f5af",
      "version": 1,
      "size": 135,
      "vsize": 135,
      "weight": 540,
      "locktime": 0,
      "vin": [
        {
          "coinbase": "04ffff001d02bc01",
          "sequence": 4294967295
        }
      ],
      "vout": [
        {
          "value": 50.0,
          "n": 0,
          "scriptPubKey": {
            "asm": "04f46f202437ef542b4d4f93b0657e57919f73acc9caad1669501bfb30abee6bfe17a5260efc57b704dc0ad0bfa8be3bb26f36080ff5bcb38129398fa06b392cf7 OP_CHECKSIG",
            "desc": "pk(04f46f202437ef542b4d4f93b0657e57919f73acc9caad1669501bfb30abee6bfe17a5260efc57b704dc0ad0bfa8be3bb26f36080ff5bcb38129398fa06b392cf7)#mz4zzanm",
            "hex": "4104f46f202437ef542b4d4f93b0657e57919f73acc9caad1669501bfb30abee6bfe17a5260efc57b704dc0ad0bfa8be3bb26f36080ff5bcb38129398fa06b392cf7ac",
            "type": "pubkey"
          }
        }
      ],
      "hex": "01000000010000000000000000000000000000000000000000000000000000000000000000ffffffff0804ffff001d02bc01ffffffff0100f2052a01000000434104f46f202437ef542b4d4f93b0657e57919f73acc9caad1669501bfb30abee6bfe17a5260efc57b704dc0ad0bfa8be3bb26f36080ff5bcb38129398fa06b392cf7ac00000000"
    }
  ]
}