{
  "hash": "00000000bb31c71c439638b4a79f4bd26bc4b3b64dd96bd104494a5c165a3aff",
  "confirmations": 52353,
  "height": 745,
  "version": 1,
  "versionHex": "00000001",
  "merkleroot": "0c6af4d648111cfedc3a054fb7dd85cafaf1f9f49b68753580594ab07fd8d22c",
  "time": 1232147265,
  "mediantime": 1232141960,
  "nonce": 2509646622,
  "bits": "1d00ffff",
  "difficulty": 1,
  "chainwork": "000000000000000000000000000000000000000000000000000002ea02ea02ea",
  "nTx": 1,
  "previousblockhash": "00000000349816587f5e5a9095174256b53c5f457222e3ef5362db55ab026620",
  "nextblockhash": "00000000f74ffef987a1d77522559eaa3c20d7c5ab131fa51a7c79a4c5776a80",
  "strippedsize": 216,
  "size": 216,
  "weight": 864,
  "tx": [
    {
      "txid": "0c6af4d648111cfedc3a054fb7dd85cafaf1f9f49b68753580594ab07fd8d22c",
      "hash": "0c6af4d648111cfedc3a054fb7dd85cafaf1f9f49b68753580594ab07fd8d22c",
      "version": 1,
      "size": 135,
      "vsize": 135,
      "weight": 540,
      "locktime": 0,
      "vin": [
        {
          "coinbase": "04ffff001d029400",
          "sequence": 4294967295
        }
      ],
      "vout": [
        {
          "value": 50.0,
          "n": 0,
          "scriptPubKey": {
            "asm": "04a1ee11de45917d9bc57b668ddc633a7c2949768776e5eb1f73dd208cea546c93eeb4b988a035f39860d47cca4e42e4a555fd3742404edefaf9c26c7732710603 OP_CHECKSIG",
            "desc": "pk(04a1ee11de45917d9bc57b668ddc633a7c2949768776e5eb1f73dd208cea546c93eeb4b988a035f39860d47cca4e42e4a555fd3742404edefaf9c26c7732710603)#yzjvhn6g",
            "hex": "4104a1ee11de45917d9bc57b668ddc633a7c2949768776e5eb1f73dd208cea546c93eeb4b988a035f39860d47cca4e42e4a555fd3742404edefaf9c26c7732710603ac",
            "type": "pubkey"
          }
        }
      ],
      "hex": "01000000010000000000000000000000000000000000000000000000000000000000000000ffffffff0804ffff001d029400ffffffff0100f2052a01000000434104a1ee11de45917d9bc57b668ddc633a7c2949768776e5eb1f73dd208cea546c93eeb4b988a035f39860d47cca4e42e4a555fd3742404edefaf9c26c7732710603ac00000000"
    }
  ]
}