{
  "hash": "00000000898a59183886bb5cf95be8216046c6e66579fb9acbbaa7c1918cc269",
  "confirmations": 44244,
  "height": 8854,
  "version": 1,
  "versionHex": "00000001",
  "merkleroot": "a3e11219d20308c16d8914787dbb18c1ec29e9ddb50f9e46756f049aeb073b60",
  "time": 1238140259,
  "mediantime": 1238137188,
  "nonce": 25023493,
  "bits": "1d00ffff",
  "difficulty": 1,
  "chainwork": "0000000000000000000000000000000000000000000000000000229722972297",
  "nTx": 1,
  "previousblockhash": "00000000c6d6af57f7f6934b27f90bb8d1211e66b78e7c6dd7b572afed7dbc40",
  "nextblockhash": "00000000ed919f563c4b59e27f259cd5a182d2d6900ce8d7857c13ce376ba03b",
  "strippedsize": 216,
  "size": 216,
  "weight": 864,
  "tx": [
    {
      "txid": "a3e11219d20308c16d8914787dbb18c1ec29e9ddb50f9e46756f049aeb073b60",
      "hash": "a3e11219d20308c16d8914787dbb18c1ec29e9ddb50f9e46756f049aeb073b60",
      "version": 1,
      "size": 135,
      "vsize": 135,
      "weight": 540,
      "locktime": 0,
      "vin": [
        {
          "coinbase": "04ffff001d02ae00",
          "sequence": 4294967295
        }
      ],
      "vout": [
        {
          "value": 50.0,
          "n": 0,
          "scriptPubKey": {
            "asm": "0404dfaf8a1052249d1ed491d274f5b7a355e172d0934c2de6ee0d504bf0844c767b3aa528f919e9cecc49a89d33866ae36cfc8432c82bb102338a624f4d9c7ec4 OP_CHECKSIG",
            "desc": "pk(0404dfaf8a1052249d1ed491d274f5b7a355e172d0934c2de6ee0d504bf0844c767b3aa528f919e9cecc49a89d33866ae36cfc8432c82bb102338a624f4d9c7ec4)#f9sqw5hq",
            "hex": "410404dfaf8a1052249d1ed491d274f5b7a355e172d0934c2de6ee0d504bf0844c767b3aa528f919e9cecc49a89d33866ae36cfc8432c82bb102338a624f4d9c7ec4ac",
            "type": "pubkey"
          }
        }
      ],
      "hex": "01000000010000000000000000000000000000000000000000000000000000000000000000ffffffff0804ffff001d02ae00ffffffff0100f2052a0100000043410404dfaf8a1052249d1ed491d274f5b7a355e172d0934c2de6ee0d504bf0844c767b3aa528f919e9cecc49a89d33866ae36cfc8432c82bb102338a624f4d9c7ec4ac00000000"
    }
  ]
}