{
  "hash": "0000000065b1ae0e2ddc79aad73de63ebc730cbf4338d13ec9ce3f8cd054d787",
  "confirmations": 50505,
  "height": 2593,
  "version": 1,
  "versionHex": "00000001",
  "merkleroot": "3b4317f979c952d47ed8fc22deaeed87fa7a75ccd1aa5bb9c3c7a967601b8f2c",
  "time": 1233489325,
  "mediantime": 1233484871,
  "nonce": 3599227394,
  "bits": "1d00ffff",
  "difficulty": 1,
  "chainwork": "00000000000000000000000000000000000000000000000000000a220a220a22",
  "nTx": 1,
  "previousblockhash": "0000000040eadecc1b9d7b61730e2cff3f4090af431470b0cce34abe47362c5a",
  "nextblockhash": "000000005ab0f1be1bd8140c1e84bbb4b036290d06bc776971f7c9eccc59ecb7",
  "strippedsize": 216,
  "size": 216,
  "weight": 864,
  "tx": [
    {
      "txid": "3b4317f979c952d47ed8fc22deaeed87fa7a75ccd1aa5bb9c3c7a967601b8f2c",
      "hash": "3b4317f979c952d47ed8fc22deaeed87fa7a75ccd1aa5bb9c3c7a967601b8f2c",
      "version": 1,
      "size": 135,
      "vsize": 135,
      "weight": 540,
      "locktime": 0,
      "vin": [
        {
          "coinbase": "04ffff001d02d002",
          "sequence": 4294967295
        }
      ],
      "vout": [
        {
          "value": 50.0,
          "n": 0,
          "scriptPubKey": {
            "asm": "0405e8c28ec5bac3f403f1db573378249e60d934c6e0f8f385196d3dca5673eab3ac18c4573dbad24781c20b9d70b79f1b57d8bc5d8d4e81aac4b240b115636673 OP_CHECKSIG",
            "desc": "pk(0405e8c28ec5bac3f403f1db573378249e60d934c6e0f8f385196d3dca5673eab3ac18c4573dbad24781c20b9d70b79f1b57d8bc5d8d4e81aac4b240b115636673)#dhpwj0l9",
            "hex": "410405e8c28ec5bac3f403f1db573378249e60d934c6e0f8f385196d3dca5673eab3ac18c4573dbad24781c20b9d70b79f1b57d8bc5d8d4e81aac4b240b115636673ac",
            "type": "pubkey"
          }
        }
      ],
      "hex": "01000000010000000000000000000000000000000000000000000000000000000000000000ffffffff0804ffff001d02d002ffffffff0100f2052a0100000043410405e8c28ec5bac3f403f1db573378249e60d934c6e0f8f385196d3dca5673eab3ac18c4573dbad24781c20b9d70b79f1b57d8bc5d8d4e81aac4b240b115636673ac00000000"
    }
  ]
}