{
  "hash": "00000000ecfde649a703099b196b7701ba0bf15736cd00ed21cef9d9cc59a940",
  "confirmations": 46476,
  "height": 6622,
  "version": 1,
  "versionHex": "00000001",
  "merkleroot": "cfaba0c4b44cffef231460e4988b505886a0a82ea5ab3895a98d4cb0c2b47f68",
  "time": 1236420368,
  "mediantime": 1236416418,
  "nonce": 316111866,
  "bits": "1d00ffff",
  "difficulty": 1,
  "chainwork": "000000000000000000000000000000000000000000000000000019df19df19df",
  "nTx": 1,
  "previousblockhash": "00000000649197a8e7d6973b4ed5207b689384b54ba117e3914a65f57de20b33",
  "nextblockhash": "00000000fd3de7aa3b66fde40c2261012c2a58d148485f7de5858e56cddfbad9",
  "strippedsize": 216,
  "size": 216,
  "weight": 864,
  "tx": [
    {
      "txid": "cfaba0c4b44cffef231460e4988b505886a0a82ea5ab3895a98d4cb0c2b47f68",
      "hash": "cfaba0c4b44cffef231460e4988b505886a0a82ea5ab3895a98d4cb0c2b47f68",
      "version": 1,
      "size": 135,
      "vsize": 135,
      "weight": 540,
      "locktime": 0,
      "vin": [
        {
          "coinbase": "04ffff001d02a200",
          "sequence": 4294967295
        }
      ],
      "vout": [
        {
          "value": 50.0,
          "n": 0,
          "scriptPubKey": {
            "asm": "0449e15e53a8327a0540d12f760e3af3ace85d4a7c22436ec93ee5134d528c7f3a9034f29a6cd019013d268036873812d0c5ab3edc47154313f5b093fde8345f07 OP_CHECKSIG",
            "desc": "pk(0449e15e53a8327a0540d12f760e3af3ace85d4a7c22436ec93ee5134d528c7f3a9034f29a6cd019013d268036873812d0c5ab3edc47154313f5b093fde8345f07)#0pzfr4y5",
            "hex": "410449e15e53a8327a0540d12f760e3af3ace85d4a7c22436ec93ee5134d528c7f3a9034f29a6cd019013d268036873812d0c5ab3edc47154313f5b093fde8345f07ac",
            "type": "pubkey"
          }
        }
      ],
      "hex": "01000000010000000000000000000000000000000000000000000000000000000000000000ffffffff0804ffff001d02a200ffffffff0100f2052a0100000043410449e15e53a8327a0540d12f760e3af3ace85d4a7c22436ec93ee5134d528c7f3a9034f29a6cd019013d268036873812d0c5ab3edc47154313f5b093fde8345f07ac00000000"
    }
  ]
}