{
  "hash": "00000000d5dde2b1403c05b8546073aaab6b1c599fa86cf32751dc32d027e712",
  "confirmations": 43641,
  "height": 9457,
  "version": 1,
  "versionHex": "00000001",
  "merkleroot": "240161071670c232bee0cf1aad54dd628dd1cc00c8f777a46e353079080fa91b",
  "time": 1238598302,
  "mediantime": 1238594742,
  "nonce": 4215683898,
  "bits": "1d00ffff",
  "difficulty": 1,
  "chainwork": "000000000000000000000000000000000000000000000000000024f224f224f2",
  "nTx": 1,
  "previousblockhash": "00000000b1ad16f150df83eb4f2a9c22eed1619b85b6aa5ba99ca039d322a98c",
  "nextblockhash": "0000000060cf27882125105510bf79b940f09cb8a05820d0d8c593013433ad3d",
  "strippedsize": 216,
  "size": 216,
  "weight": 864,
  "tx": [
    {
      "txid": "240161071670c232bee0cf1aad54dd628dd1cc00c8f777a46e353079080fa91b",
      "hash": "240161071670c232bee0cf1aad54dd628dd1cc00c8f777a46e353079080fa91b",
      "version": 1,
      "size": 135,
      "vsize": 135,
      "weight": 540,
      "locktime": 0,
      "vin": [
        {
          "coinbase": "04ffff001d02b104",
          "sequence": 4294967295
        }
      ],
      "vout": [
        {
          "value": 50.0,
          "n": 0,
          "scriptPubKey": {
            "asm": "0431048bce249cb9e1690206ac7c0ca335a5f4c7a7bb7de6a2baf380ad3c99039daaf62e02d6e6ef978e0a359eaaefb9ad9bfa521bb870912cb14129ecf78aafd5 OP_CHECKSIG",
            "desc": "pk(0431048bce249cb9e1690206ac7c0ca335a5f4c7a7bb7de6a2baf380ad3c99039daaf62e02d6e6ef978e0a359eaaefb9ad9bfa521bb870912cb14129ecf78aafd5)#raueyxyc",
            "hex": "410431048bce249cb9e1690206ac7c0ca335a5f4c7a7bb7de6a2baf380ad3c99039daaf62e02d6e6ef978e0a359eaaefb9ad9bfa521bb870912cb14129ecf78aafd5ac",
            "type": "pubkey"
          }
        }
      ],
      "hex": "01000000010000000000000000000000000000000000000000000000000000000000000000ffffffff0804ffff001d02b104ffffffff0100f2052a0100000043410431048bce249cb9e1690206ac7c0ca335a5f4c7a7bb7de6a2baf380ad3c99039daaf62e02d6e6ef978e0a359eaaefb9ad9bfa521bb870912cb14129ecf78aafd5ac00000000"
    }
  ]
}