{
  "hash": "000000000d04c22b78902f4f230ef59e256feb480c540696c2297cdeae2e4de8",
  "confirmations": 43453,
  "height": 9645,
  "version": 1,
  "versionHex": "00000001",
  "merkleroot": "b6b9ae253db3f8f375bdd1e3eef439c4a3124b9dd08d2353a746ac39abc88a5f",
  "time": 1238736956,
  "mediantime": 1238731928,
  "nonce": 2054384390,
  "bits": "1d00ffff",
  "difficulty": 1,
  "chainwork": "000000000000000000000000000000000000000000000000000025ae25ae25ae",
  "nTx": 1,
  "previousblockhash": "000000007d0aa517378d078ec3a736e0d9db7a105ed8341ee8f39ffa0725181f",
  "nextblockhash": "00000000c15b8557411726e9a63c3963c4e21564f27f4c51953d0762a1a64d0d",
  "strippedsize": 216,
  "size": 216,
  "weight": 864,
  "tx": [
    {
      "txid": "b6b9ae253db3f8f375bdd1e3eef439c4a3124b9dd08d2353a746ac39abc88a5f",
      "hash": "b6b9ae253db3f8f375bdd1e3eef439c4a3124b9dd08d2353a746ac39abc88a5f",
      "version": 1,
      "size": 135,
      "vsize": 135,
      "weight": 540,
      "locktime": 0,
      "vin": [
        {
          "coinbase": "04ffff001d02a907",
          "sequence": 4294967295
        }
      ],
      "vout": [
        {
          "value": 50.0,
          "n": 0,
          "scriptPubKey": {
            "asm": "046236cc1154693a85f0ffb186b3a066dbd0d8c94f334bcd20f820be84bf52a637caf0c136f5cf0dd789410d47b6e4ee00a6a0c07fa71d89ce5d118c97142a59d6 OP_CHECKSIG",
            "desc": "pk(046236cc1154693a85f0ffb186b3a066dbd0d8c94f334bcd20f820be84bf52a637caf0c136f5cf0dd789410d47b6e4ee00a6a0c07fa71d89ce5d118c97142a59d6)#mrtx3ga2",
            "hex": "41046236cc1154693a85f0ffb186b3a066dbd0d8c94f334bcd20f820be84bf52a637caf0c136f5cf0dd789410d47b6e4ee00a6a0c07fa71d89ce5d118c97142a59d6ac",
            "type": "pubkey"
          }
        }
      ],
      "hex": "01000000010000000000000000000000000000000000000000000000000000000000000000ffffffff0804ffff001d02a907ffffffff0100f2052a010000004341046236cc1154693a85f0ffb186b3a066dbd0d8c94f334bcd20f820be84bf52a637caf0c136f5cf0dd789410d47b6e4ee00a6a0c07fa71d89ce5d118c97142a59d6ac00000000"
    }
  ]
}