{
  "hash": "0000000006bbd39938ca25952dc97fef0da6068940059f044bcee1aa7771ec2c",
  "confirmations": 49949,
  "height": 3149,
  "version": 1,
  "versionHex": "00000001",
  "merkleroot": "4a9ffedc3f75602ea5e2c2b57c9b9ca00e7153cb9449cba44de36623ffb67776",
  "time": 1233866152,
  "mediantime": 1233863795,
  "nonce": 3220900647,
  "bits": "1d00ffff",
  "difficulty": 1,
  "chainwork": "00000000000000000000000000000000000000000000000000000c4e0c4e0c4e",
  "nTx": 1,
  "previousblockhash": "00000000f6e878a39c360be327ee5409f547f317d3a6fada92923ecdbeac5e6c",
  "nextblockhash": "0000000004b12b69f025ec124d120991d8a18a5df3cb66acf9b74ddfd689b35c",
  "strippedsize": 216,
  "size": 216,
  "weight": 864,
  "tx": [
    {
      "txid": "4a9ffedc3f75602ea5e2c2b57c9b9ca00e7153cb9449cba44de36623ffb67776",
      "hash": "4a9ffedc3f75602ea5e2c2b57c9b9ca00e7153cb9449cba44de36623ffb67776",
      "version": 1,
      "size": 135,
      "vsize": 135,
      "weight": 540,
      "locktime": 0,
      "vin": [
        {
          "coinbase": "04ffff001d02f101",
          "sequence": 4294967295
        }
      ],
      "vout": [
        {
          "value": 50.0,
          "n": 0,
          "scriptPubKey": {
            "asm": "04eca72b79765a449aee1a1f53053aa727d4019622f65beba6fa77aef727591bf61779f1cefb948ddffbb20107d05e5796e4eef2d82d4b12de02f7f60c08109e1b OP_CHECKSIG",
            "desc": "pk(04eca72b79765a449aee1a1f53053aa727d4019622f65beba6fa77aef727591bf61779f1cefb948ddffbb20107d05e5796e4eef2d82d4b12de02f7f60c08109e1b)#54d6s8ky",
            "hex": "4104eca72b79765a449aee1a1f53053aa727d4019622f65beba6fa77aef727591bf61779f1cefb948ddffbb20107d05e5796e4eef2d82d4b12de02f7f60c08109e1bac",
            "type": "pubkey"
          }
        }
      ],
      "hex": "01000000010000000000000000000000000000000000000000000000000000000000000000ffffffff0804ffff001d02f101ffffffff0100f2052a01000000434104eca72b79765a449aee1a1f53053aa727d4019622f65beba6fa77aef727591bf61779f1cefb948ddffbb20107d05e5796e4eef2d82d4b12de02f7f60c08109e1bac00000000"
    }
  ]
}