{
  "hash": "00000000d3f81421d484c4d27f2c3c31a82f33850eb483926f8e0297070f5de3",
  "confirmations": 52194,
  "height": 427,
  "version": 1,
  "versionHex": "00000001",
  "merkleroot": "a28f94fcede8dc3ff5c755d86598e2680b377a772c25049fc62f87684d310e91",
  "time": 1231920354,
  "mediantime": 1231915840,
  "nonce": 2390335525,
  "bits": "1d00ffff",
  "difficulty": 1,
  "chainwork": "000000000000000000000000000000000000000000000000000001ac01ac01ac",
  "nTx": 1,
  "previousblockhash": "0000000065bda4f8ed6ea6070ce861d1388d7375d6060e6113fd574a88173710",
  "nextblockhash": "00000000ee39e13fe7c693ada69c543501a6dabd5ef2f72d56a43c1e906f795f",
  "strippedsize": 216,
  "size": 216,
  "weight": 864,
  "tx": [
    {
      "txid": "a28f94fcede8dc3ff5c755d86598e2680b377a772c25049fc62f87684d310e91",
      "hash": "a28f94fcede8dc3ff5c755d86598e2680b377a772c25049fc62f87684d310e91",
      "version": 1,
      "size": 135,
      "vsize": 135,
      "weight": 540,
      "locktime": 0,
      "vin": [
        {
          "coinbase": "04ffff001d021903",
          "sequence": 4294967295
        }
      ],
      "vout": [
        {
          "value": 50.0,
          "n": 0,
          "scriptPubKey": {
            "asm": "049541f5b16e86e6791e2d4321e4801471680ed7bfadc266c6db95760dc637df958dc9926e9fe03a185dc284cf72ee35d1d4287376b2e1c56017b1714e3f492a8a OP_CHECKSIG",
            "desc": "pk(049541f5b16e86e6791e2d4321e4801471680ed7bfadc266c6db95760dc637df958dc9926e9fe03a185dc284cf72ee35d1d4287376b2e1c56017b1714e3f492a8a)#j0mf4eas",
            "hex": "41049541f5b16e86e6791e2d4321e4801471680ed7bfadc266c6db95760dc637df958dc9926e9fe03a185dc284cf72ee35d1d4287376b2e1c56017b1714e3f492a8aac",
            "type": "pubkey"
          }
        }
      ],
      "hex": "01000000010000000000000000000000000000000000000000000000000000000000000000ffffffff0804ffff001d021903ffffffff0100f2052a010000004341049541f5b16e86e6791e2d4321e4801471680ed7bfadc266c6db95760dc637df958dc9926e9fe03a185dc284cf72ee35d1d4287376b2e1c56017b1714e3f492a8aac00000000"
    }
  ]
}