{
  "hash": "00000000d391c1150a599c652c5279914e1dd23e44331d15981a21b0cc55a770",
  "confirmations": 47744,
  "height": 5354,
  "version": 1,
  "versionHex": "00000001",
  "merkleroot": "4cea180def8b4786c7f9d4927adbeceb4550e50405b4a8d20c6360ebf32e1752",
  "time": 1235406923,
  "mediantime": 1235403016,
  "nonce": 4112145180,
  "bits": "1d00ffff",
  "difficulty": 1,
  "chainwork": "000000000000000000000000000000000000000000000000000014eb14eb14eb",
  "nTx": 1,
  "previousblockhash": "0000000025bb3fa79b724a22a862edccc36d40b04e0a3661217aaaab3242b543",
  "nextblockhash": "00000000b3c9b14588afc5892c4b56179a73e269a6a5ce62500f2b0e7157df9d",
  "strippedsize": 216,
  "size": 216,
  "weight": 864,
  "tx": [
    {
      "txid": "4cea180def8b4786c7f9d4927adbeceb4550e50405b4a8d20c6360ebf32e1752",
      "hash": "4cea180def8b4786c7f9d4927adbeceb4550e50405b4a8d20c6360ebf32e1752",
      "version": 1,
      "size": 135,
      "vsize": 135,
      "weight": 540,
      "locktime": 0,
      "vin": [
        {
          "coinbase": "04ffff001d02f102",
          "sequence": 4294967295
        }
      ],
      "vout": [
        {
          "value": 50.0,
          "n": 0,
          "scriptPubKey": {
            "asm": "04b542b68d97f5a2b3897f710f3dad36c0a6331e81c5e2fb244d6d05fad649608b259954b92bd61fe7727345a1ad56e9a6f3921a2b1927fa34511a0fc0a5a25b64 OP_CHECKSIG",
            "desc": "pk(04b542b68d97f5a2b3897f710f3dad36c0a6331e81c5e2fb244d6d05fad649608b259954b92bd61fe7727345a1ad56e9a6f3921a2b1927fa34511a0fc0a5a25b64)#c0kl6g9f",
            "hex": "4104b542b68d97f5a2b3897f710f3dad36c0a6331e81c5e2fb244d6d05fad649608b259954b92bd61fe7727345a1ad56e9a6f3921a2b1927fa34511a0fc0a5a25b64ac",
            "type": "pubkey"
          }
        }
      ],
      "hex": "01000000010000000000000000000000000000000000000000000000000000000000000000ffffffff0804ffff001d02f102ffffffff0100f2052a01000000434104b542b68d97f5a2b3897f710f3dad36c0a6331e81c5e2fb244d6d05fad649608b259954b92bd61fe7727345a1ad56e9a6f3921a2b1927fa34511a0fc0a5a25b64ac00000000"
    }
  ]
}