{
  "hash": "00000000f17bb352960d24ca298a9c986eafa9dddeed41eee4a09d75ad610cbb",
  "confirmations": 47548,
  "height": 5550,
  "version": 1,
  "versionHex": "00000001",
  "merkleroot": "45ece8114b431a3f5e99e059603aa2e449131558fff88063b779eb8b9bb28598",
  "time": 1235562181,
  "mediantime": 1235558568,
  "nonce": 2922128646,
  "bits": "1d00ffff",
  "difficulty": 1,
  "chainwork": "000000000000000000000000000000000000000000000000000015af15af15af",
  "nTx": 1,
  "previousblockhash": "000000007cd9ac98889d980cff5d6ff741ae977b594ff17bd1795e79ce916ef5",
  "nextblockhash": "0000000007ab003805c9a0a86d856788bd90ae79d7ddf712fc75a751a98652c9",
  "strippedsize": 216,
  "size": 216,
  "weight": 864,
  "tx": [
    {
      "txid": "45ece8114b431a3f5e99e059603aa2e449131558fff88063b779eb8b9bb28598",
      "hash": "45ece8114b431a3f5e99e059603aa2e449131558fff88063b779eb8b9bb28598",
      "version": 1,
      "size": 135,
      "vsize": 135,
      "weight": 540,
      "locktime": 0,
      "vin": [
        {
          "coinbase": "04ffff001d029206",
          "sequence": 4294967295
        }
      ],
      "vout": [
        {
          "value": 50.0,
          "n": 0,
          "scriptPubKey": {
            "asm": "042e04470880a4a92bc71e7ff97ec571f96657a266fa79779eb15ebbfcf818de7e259e1803f11e99cb2f493c2826b6273199dcc3e42cc9a2ef6fcb14a5bdbe505f OP_CHECKSIG",
            "desc": "pk(042e04470880a4a92bc71e7ff97ec571f96657a266fa79779eb15ebbfcf818de7e259e1803f11e99cb2f493c2826b6273199dcc3e42cc9a2ef6fcb14a5bdbe505f)#964p9vs7",
            "hex": "41042e04470880a4a92bc71e7ff97ec571f96657a266fa79779eb15ebbfcf818de7e259e1803f11e99cb2f493c2826b6273199dcc3e42cc9a2ef6fcb14a5bdbe505fac",
            "type": "pubkey"
          }
        }
      ],
      "hex": "01000000010000000000000000000000000000000000000000000000000000000000000000ffffffff0804ffff001d029206ffffffff0100f2052a010000004341042e04470880a4a92bc71e7ff97ec571f96657a266fa79779eb15ebbfcf818de7e259e1803f11e99cb2f493c2826b6273199dcc3e42cc9a2ef6fcb14a5bdbe505fac00000000"
    }
  ]
}