{
  "hash": "0000000019668292e90a9b0e7246f4f829e1f99e8818482203203d5e25b2ecab",
  "confirmations": 51743,
  "height": 1355,
  "version": 1,
  "versionHex": "00000001",
  "merkleroot": "ab8f00b137b10ae479fffc1c4c673836708fe6320f2d00b0ef18973d26552e49",
  "time": 1232646520,
  "mediantime": 1232641950,
  "nonce": 2825760264,
  "bits": "1d00ffff",
  "difficulty": 1,
  "chainwork": "0000000000000000000000000000000000000000000000000000054c054c054c",
  "nTx": 1,
  "previousblockhash": "00000000daf4096c5bc5b11e5f6d0e1f835525d658333c791f11d573c9295f79",
  "nextblockhash": "0000000034477170a51f40da9bce78f85c555a26be1361ce8c2900b02786f0c4",
  "strippedsize": 216,
  "size": 216,
  "weight": 864,
  "tx": [
    {
      "txid": "ab8f00b137b10ae479fffc1c4c673836708fe6320f2d00b0ef18973d26552e49",
      "hash": "ab8f00b137b10ae479fffc1c4c673836708fe6320f2d00b0ef18973d26552e49",
      "version": 1,
      "size": 135,
      "vsize": 135,
      "weight": 540,
      "locktime": 0,
      "vin": [
        {
          "coinbase": "04ffff001d024801",
          "sequence": 4294967295
        }
      ],
      "vout": [
        {
          "value": 50.0,
          "n": 0,
          "scriptPubKey": {
            "asm": "04afe3b57d94d5ec9eceae965ef7cd01401a19f260acbd66d32822c468da074b88f73a72389c6d17614cc4bfbb90f0258f1f02c3a765e58a90d505e6d88b0904e0 OP_CHECKSIG",
            "desc": "pk(04afe3b57d94d5ec9eceae965ef7cd01401a19f260acbd66d32822c468da074b88f73a72389c6d17614cc4bfbb90f0258f1f02c3a765e58a90d505e6d88b0904e0)#vxgh0x8t",
            "hex": "4104afe3b57d94d5ec9eceae965ef7cd01401a19f260acbd66d32822c468da074b88f73a72389c6d17614cc4bfbb90f0258f1f02c3a765e58a90d505e6d88b0904e0ac",
            "type": "pubkey"
          }
        }
      ],
      "hex": "01000000010000000000000000000000000000000000000000000000000000000000000000ffffffff0804ffff001d024801ffffffff0100f2052a01000000434104afe3b57d94d5ec9eceae965ef7cd01401a19f260acbd66d32822c468da074b88f73a72389c6d17614cc4bfbb90f0258f1f02c3a765e58a90d505e6d88b0904e0ac00000000"
    }
  ]
}