{
  "hash": "00000000c57da0f07304c040f3d65dc34533b4ade850beaf053ae567f73c954b",
  "confirmations": 47922,
  "height": 5176,
  "version": 1,
  "versionHex": "00000001",
  "merkleroot": "e1be133be54851d21f34666ae45211d6e76d60491cecfef17bba90731eb8f42a",
  "time": 1235270850,
  "mediantime": 1235267013,
  "nonce": 324988569,
  "bits": "1d00ffff",
  "difficulty": 1,
  "chainwork": "0000000000000000000000000000000000000000000000000000143914391439",
  "nTx": 1,
  "previousblockhash": "00000000b781c7d1b96912017ec6d006d2d505d3cac0bd486550abe2066734f7",
  "nextblockhash": "000000009f72207cffa94789713facfc7eb8c8527b131973db9b38ceaadaa6b2",
  "strippedsize": 215,
  "size": 215,
  "weight": 860,
  "tx": [
    {
      "txid": "e1be133be54851d21f34666ae45211d6e76d60491cecfef17bba90731eb8f42a",
      "hash": "e1be133be54851d21f34666ae45211d6e76d60491cecfef17bba90731eb8f42a",
      "version": 1,
      "size": 134,
      "vsize": 134,
      "weight": 536,
      "locktime": 0,
      "vin": [
        {
          "coinbase": "04ffff001d010d",
          "sequence": 4294967295
        }
      ],
      "vout": [
        {
          "value": 50.0,
          "n": 0,
          "scriptPubKey": {
            "asm": "04f254e36949ec1a7f6e9548f16d4788fb321f429b2c7d2eb44480b2ed0195cbf0c3875c767fe8abb2df6827c21392ea5cc934240b9ac46c6a56d2bd13dd0b17a9 OP_CHECKSIG",
            "desc": "pk(04f254e36949ec1a7f6e9548f16d4788fb321f429b2c7d2eb44480b2ed0195cbf0c3875c767fe8abb2df6827c21392ea5cc934240b9ac46c6a56d2bd13dd0b17a9)#2ndm9cz6",
            "hex": "4104f254e36949ec1a7f6e9548f16d4788fb321f429b2c7d2eb44480b2ed0195cbf0c3875c767fe8abb2df6827c21392ea5cc934240b9ac46c6a56d2bd13dd0b17a9ac",
            "type": "pubkey"
          }
        }
      ],
      "hex": "01000000010000000000000000000000000000000000000000000000000000000000000000ffffffff0704ffff001d010dffffffff0100f2052a01000000434104f254e36949ec1a7f6e9548f16d4788fb321f429b2c7d2eb44480b2ed0195cbf0c3875c767fe8abb2df6827c21392ea5cc934240b9ac46c6a56d2bd13dd0b17a9ac00000000"
    }
  ]
}