{
  "hash": "00000000a898211f2bcb6baed8a7d42a67ab44949987c7e9e286e5ebbb992942",
  "confirmations": 45003,
  "height": 8095,
  "version": 1,
  "versionHex": "00000001",
  "merkleroot": "54fafbfd5ed27e351797636d93cd2a2cace7473f8529add74bfdaf56a23585c8",
  "time": 1237528388,
  "mediantime": 1237522951,
  "nonce": 67796202,
  "bits": "1d00ffff",
  "difficulty": 1,
  "chainwork": "00000000000000000000000000000000000000000000000000001fa01fa01fa0",
  "nTx": 1,
  "previousblockhash": "00000000d3f1c76de6682f0bc9ee10ceed0e76094b3f48237a1083255d18d9b1",
  "nextblockhash": "00000000189e05c4be49bff333f7c2521a760558a846b36063bf463be1457ba6",
  "strippedsize": 216,
  "size": 216,
  "weight": 864,
  "tx": [
    {
      "txid": "54fafbfd5ed27e351797636d93cd2a2cace7473f8529add74bfdaf56a23585c8",
      "hash": "54fafbfd5ed27e351797636d93cd2a2cace7473f8529add74bfdaf56a23585c8",
      "version": 1,
      "size": 135,
      "vsize": 135,
      "weight": 540,
      "locktime": 0,
      "vin": [
        {
          "coinbase": "04ffff001d02fc05",
          "sequence": 4294967295
        }
      ],
      "vout": [
        {
          "value": 50.0,
          "n": 0,
          "scriptPubKey": {
            "asm": "046ede972f77eb86f61fb5d422b1bf903c771e30a49c771f141453a0380106a2748963031ca91975612d7271475b7ffe739ca520184001a12d26e3433ae6f2f05e OP_CHECKSIG",
            "desc": "pk(046ede972f77eb86f61fb5d422b1bf903c771e30a49c771f141453a0380106a2748963031ca91975612d7271475b7ffe739ca520184001a12d26e3433ae6f2f05e)#5eh2k9xz",
            "hex": "41046ede972f77eb86f61fb5d422b1bf903c771e30a49c771f141453a0380106a2748963031ca91975612d7271475b7ffe739ca520184001a12d26e3433ae6f2f05eac",
            "type": "pubkey"
          }
        }
      ],
      "hex": "01000000010000000000000000000000000000000000000000000000000000000000000000ffffffff0804ffff001d02fc05ffffffff0100f2052a010000004341046ede972f77eb86f61fb5d422b1bf903c771e30a49c771f141453a0380106a2748963031ca91975612d7271475b7ffe739ca520184001a12d26e3433ae6f2f05eac00000000"
    }
  ]
}