{
  "hash": "0000000064cc28514d6152b3c1c111424ad227fadff41da947a99535a83a824a",
  "confirmations": 52054,
  "height": 137,
  "version": 1,
  "versionHex": "00000001",
  "merkleroot": "882b98507359823f93cf9830ee90e192c62d4964c16297c6dc3bf525d27a53cb",
  "time": 1231687155,
  "mediantime": 1231685008,
  "nonce": 2359070776,
  "bits": "1d00ffff",
  "difficulty": 1,
  "chainwork": "0000000000000000000000000000000000000000000000000000008a008a008a",
  "nTx": 1,
  "previousblockhash": "00000000b8885739dee79a5530ff50fceaea8db5d863507420aa0ef21f84ba79",
  "nextblockhash": "00000000499c3e522e95be30db6826524905e3bd95910e8011c4f624e35bd0fa",
  "strippedsize": 215,
  "size": 215,
  "weight": 860,
  "tx": [
    {
      "txid": "882b98507359823f93cf9830ee90e192c62d4964c16297c6dc3bf525d27a53cb",
      "hash": "882b98507359823f93cf9830ee90e192c62d4964c16297c6dc3bf525d27a53cb",
      "version": 1,
      "size": 134,
      "vsize": 134,
      "weight": 536,
      "locktime": 0,
      "vin": [
        {
          "coinbase": "04ffff001d0129",
          "sequence": 4294967295
        }
      ],
      "vout": [
        {
          "value": 50.0,
          "n": 0,
          "scriptPubKey": {
            "asm": "04fb2748e60e5c8e202d15e3576194c81c19e49e2a2ef7976ef2bf1443ea66fc3e36f1299bc57b5b242424240d75e00a951880c93b871d6a262222dae42a1a374f OP_CHECKSIG",
            "desc": "pk(04fb2748e60e5c8e202d15e3576194c81c19e49e2a2ef7976ef2bf1443ea66fc3e36f1299bc57b5b242424240d75e00a951880c93b871d6a262222dae42a1a374f)#n4c8fqdz",
            "hex": "4104fb2748e60e5c8e202d15e3576194c81c19e49e2a2ef7976ef2bf1443ea66fc3e36f1299bc57b5b242424240d75e00a951880c93b871d6a262222dae42a1a374fac",
            "type": "pubkey"
          }
        }
      ],
      "hex": "01000000010000000000000000000000000000000000000000000000000000000000000000ffffffff0704ffff001d0129ffffffff0100f2052a01000000434104fb2748e60e5c8e202d15e3576194c81c19e49e2a2ef7976ef2bf1443ea66fc3e36f1299bc57b5b242424240d75e00a951880c93b871d6a262222dae42a1a374fac00000000"
    }
  ]
}