{
  "hash": "00000000cfa69a3561611f7c31a791e8afcdb5bf965c5d4fc9b5caa8ba7bf092",
  "confirmations": 44509,
  "height": 8589,
  "version": 1,
  "versionHex": "00000001",
  "merkleroot": "140ad7d834be552064704129fb5131f79bcd72770f45abdddd6e6734d4a4cfa2",
  "time": 1237941598,
  "mediantime": 1237938731,
  "nonce": 472409386,
  "bits": "1d00ffff",
  "difficulty": 1,
  "chainwork": "0000000000000000000000000000000000000000000000000000218e218e218e",
  "nTx": 1,
  "previousblockhash": "00000000b319d460c761009308495de2387fedc0ad57cd9f98987ecf920bbc4f",
  "nextblockhash": "000000007be7f961cd64a241a97063a57c4c5ff89a8684433c3fb581d942c604",
  "strippedsize": 216,
  "size": 216,
  "weight": 864,
  "tx": [
    {
      "txid": "140ad7d834be552064704129fb5131f79bcd72770f45abdddd6e6734d4a4cfa2",
      "hash": "140ad7d834be552064704129fb5131f79bcd72770f45abdddd6e6734d4a4cfa2",
      "version": 1,
      "size": 135,
      "vsize": 135,
      "weight": 540,
      "locktime": 0,
      "vin": [
        {
          "coinbase": "04ffff001d026409",
          "sequence": 4294967295
        }
      ],
      "vout": [
        {
          "value": 50.0,
          "n": 0,
          "scriptPubKey": {
            "asm": "04cfaf8fb5132494739df4003efea5d054519b8b32b5dbec70e15a50b8b74181daa94c1f8cb77ac9d2498fa638aadc796b7a899c6a560fdc0c0ca99b7e6b409ec1 OP_CHECKSIG",
            "desc": "pk(04cfaf8fb5132494739df4003efea5d054519b8b32b5dbec70e15a50b8b74181daa94c1f8cb77ac9d2498fa638aadc796b7a899c6a560fdc0c0ca99b7e6b409ec1)#rtjug49j",
            "hex": "4104cfaf8fb5132494739df4003efea5d054519b8b32b5dbec70e15a50b8b74181daa94c1f8cb77ac9d2498fa638aadc796b7a899c6a560fdc0c0ca99b7e6b409ec1ac",
            "type": "pubkey"
          }
        }
      ],
      "hex": "01000000010000000000000000000000000000000000000000000000000000000000000000ffffffff0804ffff001d026409ffffffff0100f2052a01000000434104cfaf8fb5132494739df4003efea5d054519b8b32b5dbec70e15a50b8b74181daa94c1f8cb77ac9d2498fa638aadc796b7a899c6a560fdc0c0ca99b7e6b409ec1ac00000000"
    }
  ]
}