{
  "hash": "000000003cda70eebd121313f31fac0070e06dcd2e7a9ee5bb6e7467299ed4d9",
  "confirmations": 43722,
  "height": 9376,
  "version": 1,
  "versionHex": "00000001",
  "merkleroot": "216011acec5d1719e2b98823065fba36c4cc1c18beb63bb4ce7f1ecfe0f37a80",
  "time": 1238530798,
  "mediantime": 1238525391,
  "nonce": 2203228727,
  "bits": "1d00ffff",
  "difficulty": 1,
  "chainwork": "000000000000000000000000000000000000000000000000000024a124a124a1",
  "nTx": 1,
  "previousblockhash": "000000005c89dfca5c244fd866a9de84cda8e0c15f15d3e9a8536a9758d69384",
  "nextblockhash": "000000006ebfb2a9b128248cf18a1f0b98996d1bef2fad7e78eb49fdadf9ef51",
  "strippedsize": 216,
  "size": 216,
  "weight": 864,
  "tx": [
    {
      "txid": "216011acec5d1719e2b98823065fba36c4cc1c18beb63bb4ce7f1ecfe0f37a80",
      "hash": "216011acec5d1719e2b98823065fba36c4cc1c18beb63bb4ce7f1ecfe0f37a80",
      "version": 1,
      "size": 135,
      "vsize": 135,
      "weight": 540,
      "locktime": 0,
      "vin": [
        {
          "coinbase": "04ffff001d022403",
          "sequence": 4294967295
        }
      ],
      "vout": [
        {
          "value": 50.0,
          "n": 0,
          "scriptPubKey": {
            "asm": "04e46067140dbb0134202cb92a5f1cf403c3c19c240eb9e551c1f47f5843316f799c4f2e3770d0cf8c37873ba06949dedbb44d6f9715a7096482b342126b04dea8 OP_CHECKSIG",
            "desc": "pk(04e46067140dbb0134202cb92a5f1cf403c3c19c240eb9e551c1f47f5843316f799c4f2e3770d0cf8c37873ba06949dedbb44d6f9715a7096482b342126b04dea8)#2l5x2mck",
            "hex": "4104e46067140dbb0134202cb92a5f1cf403c3c19c240eb9e551c1f47f5843316f799c4f2e3770d0cf8c37873ba06949dedbb44d6f9715a7096482b342126b04dea8ac",
            "type": "pubkey"
          }
        }
      ],
      "hex": "01000000010000000000000000000000000000000000000000000000000000000000000000ffffffff0804ffff001d022403ffffffff0100f2052a01000000434104e46067140dbb0134202cb92a5f1cf403c3c19c240eb9e551c1f47f5843316f799c4f2e3770d0cf8c37873ba06949dedbb44d6f9715a7096482b342126b04dea8ac00000000"
    }
  ]
}