{
  "hash": "00000000dd0a273c4e4bd3ce37ca77b0f1da36422d87d4df102f6e37be20ba29",
  "confirmations": 43145,
  "height": 9953,
  "version": 1,
  "versionHex": "00000001",
  "merkleroot": "49858861c10e5858fe7cd3e26a4ba3a8545b888a6596d4a84891064582faad6b",
  "time": 1238958858,
  "mediantime": 1238954025,
  "nonce": 1581811456,
  "bits": "1d00ffff",
  "difficulty": 1,
  "chainwork": "000000000000000000000000000000000000000000000000000026e226e226e2",
  "nTx": 1,
  "previousblockhash": "00000000280ed43a87117a1762b9255737a790559deba7fca03171a4d23eab4c",
  "nextblockhash": "00000000e5cdfab0cf62ba3edeab7dc0974ffcc6c61c18941cbe789d01af0f81",
  "strippedsize": 216,
  "size": 216,
  "weight": 864,
  "tx": [
    {
      "txid": "49858861c10e5858fe7cd3e26a4ba3a8545b888a6596d4a84891064582faad6b",
      "hash": "49858861c10e5858fe7cd3e26a4ba3a8545b888a6596d4a84891064582faad6b",
      "version": 1,
      "size": 135,
      "vsize": 135,
      "weight": 540,
      "locktime": 0,
      "vin": [
        {
          "coinbase": "04ffff001d02b702",
          "sequence": 4294967295
        }
      ],
      "vout": [
        {
          "value": 50.0,
          "n": 0,
          "scriptPubKey": {
            "asm": "0423fb72284fd2ce2e6ad97d94b7d13180a7e4c3e19416654e9036547d6c1941d1c50c95957bfef2a1052fd59413cd45a5e6a2262c9ef2fce9a9ca5572e902ba4c OP_CHECKSIG",
            "desc": "pk(0423fb72284fd2ce2e6ad97d94b7d13180a7e4c3e19416654e9036547d6c1941d1c50c95957bfef2a1052fd59413cd45a5e6a2262c9ef2fce9a9ca5572e902ba4c)#7fv88657",
            "hex": "410423fb72284fd2ce2e6ad97d94b7d13180a7e4c3e19416654e9036547d6c1941d1c50c95957bfef2a1052fd59413cd45a5e6a2262c9ef2fce9a9ca5572e902ba4cac",
            "type": "pubkey"
          }
        }
      ],
      "hex": "01000000010000000000000000000000000000000000000000000000000000000000000000ffffffff0804ffff001d02b702ffffffff0100f2052a0100000043410423fb72284fd2ce2e6ad97d94b7d13180a7e4c3e19416654e9036547d6c1941d1c50c95957bfef2a1052fd59413cd45a5e6a2262c9ef2fce9a9ca5572e902ba4cac00000000"
    }
  ]
}