{
  "hash": "00000000da99d2a1a9a5b005143254481a8a37c28ef845e9cbe07e8bd3727c6e",
  "confirmations": 51997,
  "height": 343,
  "version": 1,
  "versionHex": "00000001",
  "merkleroot": "e0c91e7218e8caa0b339743b426825c0092845c7c24415290510d735870c45b9",
  "time": 1231860987,
  "mediantime": 1231857528,
  "nonce": 1260667924,
  "bits": "1d00ffff",
  "difficulty": 1,
  "chainwork": "0000000000000000000000000000000000000000000000000000015801580158",
  "nTx": 1,
  "previousblockhash": "0000000030d317436271d42f336d26387b284fed7c84e02f8d951d1a865b052b",
  "nextblockhash": "000000008cc122c5d35497371c6a0ac9b1659781848445be29bd9e2d1cf00d14",
  "strippedsize": 216,
  "size": 216,
  "weight": 864,
  "tx": [
    {
      "txid": "e0c91e7218e8caa0b339743b426825c0092845c7c24415290510d735870c45b9",
      "hash": "e0c91e7218e8caa0b339743b426825c0092845c7c24415290510d735870c45b9",
      "version": 1,
      "size": 135,
      "vsize": 135,
      "weight": 540,
      "locktime": 0,
      "vin": [
        {
          "coinbase": "04ffff001d025b01",
          "sequence": 4294967295
        }
      ],
      "vout": [
        {
          "value": 50.0,
          "n": 0,
          "scriptPubKey": {
            "asm": "04ad0d54bcbae50ecb232eabda1bd65e22f65d5ffbbdba0d2ee6ab9df7b0dde89060995438e0c190ff06d53f972dd28331e1335d758d86b02a3d9ec699fad42523 OP_CHECKSIG",
            "desc": "pk(04ad0d54bcbae50ecb232eabda1bd65e22f65d5ffbbdba0d2ee6ab9df7b0dde89060995438e0c190ff06d53f972dd28331e1335d758d86b02a3d9ec699fad42523)#w856hswh",
            "hex": "4104ad0d54bcbae50ecb232eabda1bd65e22f65d5ffbbdba0d2ee6ab9df7b0dde89060995438e0c190ff06d53f972dd28331e1335d758d86b02a3d9ec699fad42523ac",
            "type": "pubkey"
          }
        }
      ],
      "hex": "01000000010000000000000000000000000000000000000000000000000000000000000000ffffffff0804ffff001d025b01ffffffff0100f2052a01000000434104ad0d54bcbae50ecb232eabda1bd65e22f65d5ffbbdba0d2ee6ab9df7b0dde89060995438e0c190ff06d53f972dd28331e1335d758d86b02a3d9ec699fad42523ac00000000"
    }
  ]
}