{
  "hash": "000000007584156178c8a6cd790e7aecef21680a290c0c78b087d2703c5ebaac",
  "confirmations": 50839,
  "height": 2259,
  "version": 1,
  "versionHex": "00000001",
  "merkleroot": "a20cc54c4ac1e96752baa09ed4fb0686cfdefc4ba8f7c91ab08799125d542ffd",
  "time": 1233251693,
  "mediantime": 1233248343,
  "nonce": 11616731,
  "bits": "1d00ffff",
  "difficulty": 1,
  "chainwork": "000000000000000000000000000000000000000000000000000008d408d408d4",
  "nTx": 1,
  "previousblockhash": "0000000040fd733264a702fcbb1b6365e160b2c601613aa23fcea98aa60f65d6",
  "nextblockhash": "000000003b1f1db33f398ce3fe36e7575923241564657be2bfba10c2056440e5",
  "strippedsize": 215,
  "size": 215,
  "weight": 860,
  "tx": [
    {
      "txid": "a20cc54c4ac1e96752baa09ed4fb0686cfdefc4ba8f7c91ab08799125d542ffd",
      "hash": "a20cc54c4ac1e96752baa09ed4fb0686cfdefc4ba8f7c91ab08799125d542ffd",
      "version": 1,
      "size": 134,
      "vsize": 134,
      "weight": 536,
      "locktime": 0,
      "vin": [
        {
          "coinbase": "04ffff001d014f",
          "sequence": 4294967295
        }
      ],
      "vout": [
        {
          "value": 50.0,
          "n": 0,
          "scriptPubKey": {
            "asm": "04e4c3626297b5f6d65399ebb315097d5930107ead6832f78317f86b92282f74fbd7691e65521239fc9f3cefcd2fa4c2a8c542d3f001aa31b72f4463a711cc9045 OP_CHECKSIG",
            "desc": "pk(04e4c3626297b5f6d65399ebb315097d5930107ead6832f78317f86b92282f74fbd7691e65521239fc9f3cefcd2fa4c2a8c542d3f001aa31b72f4463a711cc9045)#etcmtt9z",
            "hex": "4104e4c3626297b5f6d65399ebb315097d5930107ead6832f78317f86b92282f74fbd7691e65521239fc9f3cefcd2fa4c2a8c542d3f001aa31b72f4463a711cc9045ac",
            "type": "pubkey"
          }
        }
      ],
      "hex": "01000000010000000000000000000000000000000000000000000000000000000000000000ffffffff0704ffff001d014fffffffff0100f2052a01000000434104e4c3626297b5f6d65399ebb315097d5930107ead6832f78317f86b92282f74fbd7691e65521239fc9f3cefcd2fa4c2a8c542d3f001aa31b72f4463a711cc9045ac00000000"
    }
  ]
}