{
  "hash": "00000000069f2dea9afea0d348e12e1d010f70564517a1d946d4210af3dc27ef",
  "confirmations": 47617,
  "height": 5481,
  "version": 1,
  "versionHex": "00000001",
  "merkleroot": "3e8518e0078a5f5f77103ff9ecb7583d1d2b629271e57bb140b1fdc89a1cbf88",
  "time": 1235504543,
  "mediantime": 1235502110,
  "nonce": 97781877,
  "bits": "1d00ffff",
  "difficulty": 1,
  "chainwork": "0000000000000000000000000000000000000000000000000000156a156a156a",
  "nTx": 1,
  "previousblockhash": "00000000cf6889141ad6ef8cf20a7e13f96facf26ae0c23bcdb182c497598f7a",
  "nextblockhash": "00000000986d1199ba058a27a8e3b8bcc2cef88101bff887865c5bb154ca5e5f",
  "strippedsize": 216,
  "size": 216,
  "weight": 864,
  "tx": [
    {
      "txid": "3e8518e0078a5f5f77103ff9ecb7583d1d2b629271e57bb140b1fdc89a1cbf88",
      "hash": "3e8518e0078a5f5f77103ff9ecb7583d1d2b629271e57bb140b1fdc89a1cbf88",
      "version": 1,
      "size": 135,
      "vsize": 135,
      "weight": 540,
      "locktime": 0,
      "vin": [
        {
          "coinbase": "04ffff001d024301",
          "sequence": 4294967295
        }
      ],
      "vout": [
        {
          "value": 50.0,
          "n": 0,
          "scriptPubKey": {
            "asm": "044f6d6e640535c6ecd45856c68afec6747901ca1294d565b921930819c535c31fbebd71fbf00da8469c54779a930f814eec2f8a733b0b4699f07bf36095b99d57 OP_CHECKSIG",
            "desc": "pk(044f6d6e640535c6ecd45856c68afec6747901ca1294d565b921930819c535c31fbebd71fbf00da8469c54779a930f814eec2f8a733b0b4699f07bf36095b99d57)#l9ml8all",
            "hex": "41044f6d6e640535c6ecd45856c68afec6747901ca1294d565b921930819c535c31fbebd71fbf00da8469c54779a930f814eec2f8a733b0b4699f07bf36095b99d57ac",
            "type": "pubkey"
          }
        }
      ],
      "hex": "01000000010000000000000000000000000000000000000000000000000000000000000000ffffffff0804ffff001d024301ffffffff0100f2052a010000004341044f6d6e640535c6ecd45856c68afec6747901ca1294d565b921930819c535c31fbebd71fbf00da8469c54779a930f814eec2f8a733b0b4699f07bf36095b99d57ac00000000"
    }
  ]
}