{
  "hash": "0000000055546a4294b2d4f69f88820b64bf4c09b4a35cfd90a1592abe6b2826",
  "confirmations": 46847,
  "height": 6251,
  "version": 1,
  "versionHex": "00000001",
  "merkleroot": "702a9d2524391cf430d74c84a8e9156ff990281470e7c6c3e7bbc99fa5ec8879",
  "time": 1236132911,
  "mediantime": 1236128601,
  "nonce": 1685756937,
  "bits": "1d00ffff",
  "difficulty": 1,
  "chainwork": "0000000000000000000000000000000000000000000000000000186c186c186c",
  "nTx": 1,
  "previousblockhash": "000000006e770b1ca94980e21a70ecce08431b2a15079693d099d7b7a94a14c2",
  "nextblockhash": "000000001a5940544c28328371f6252db962f0540cfdc30db2bd1aa334a72d6a",
  "strippedsize": 216,
  "size": 216,
  "weight": 864,
  "tx": [
    {
      "txid": "702a9d2524391cf430d74c84a8e9156ff990281470e7c6c3e7bbc99fa5ec8879",
      "hash": "702a9d2524391cf430d74c84a8e9156ff990281470e7c6c3e7bbc99fa5ec8879",
      "version": 1,
      "size": 135,
      "vsize": 135,
      "weight": 540,
      "locktime": 0,
      "vin": [
        {
          "coinbase": "04ffff001d029809",
          "sequence": 4294967295
        }
      ],
      "vout": [
        {
          "value": 50.0,
          "n": 0,
          "scriptPubKey": {
            "asm": "048ad4f4adc4ec09d5e0931a0d22a0031ecc67795fc334f0967f7ea6bc8a7d36a7bb6e57debfec0f44622df63285f3cfdf5152266f2893502c2c21af36b1aec63c OP_CHECKSIG",
            "desc": "pk(048ad4f4adc4ec09d5e0931a0d22a0031ecc67795fc334f0967f7ea6bc8a7d36a7bb6e57debfec0f44622df63285f3cfdf5152266f2893502c2c21af36b1aec63c)#jhsf5d5x",
            "hex": "41048ad4f4adc4ec09d5e0931a0d22a0031ecc67795fc334f0967f7ea6bc8a7d36a7bb6e57debfec0f44622df63285f3cfdf5152266f2893502c2c21af36b1aec63cac",
            "type": "pubkey"
          }
        }
      ],
      "hex": "01000000010000000000000000000000000000000000000000000000000000000000000000ffffffff0804ffff001d029809ffffffff0100f2052a010000004341048ad4f4adc4ec09d5e0931a0d22a0031ecc67795fc334f0967f7ea6bc8a7d36a7bb6e57debfec0f44622df63285f3cfdf5152266f2893502c2c21af36b1aec63cac00000000"
    }
  ]
}