{
  "hash": "000000008662451ad23b11fe82c8454201cc79613d14cc462941c512626a2c46",
  "confirmations": 43255,
  "height": 9843,
  "version": 1,
  "versionHex": "00000001",
  "merkleroot": "f34abd5d95c6b5e430e16b47eb4ddbed222da292a748931f2e6ebe943d49c47a",
  "time": 1238886757,
  "mediantime": 1238882088,
  "nonce": 420206112,
  "bits": "1d00ffff",
  "difficulty": 1,
  "chainwork": "0000000000000000000000000000000000000000000000000000267426742674",
  "nTx": 1,
  "previousblockhash": "00000000e8abf3d8f51adfe484443d87f054de0632a7330f3b9f4e1be1225610",
  "nextblockhash": "000000008dd438bacd6db3b7302d837fd7db7cc357e6859a8f3f19700abc3b5e",
  "strippedsize": 215,
  "size": 215,
  "weight": 860,
  "tx": [
    {
      "txid": "f34abd5d95c6b5e430e16b47eb4ddbed222da292a748931f2e6ebe943d49c47a",
      "hash": "f34abd5d95c6b5e430e16b47eb4ddbed222da292a748931f2e6ebe943d49c47a",
      "version": 1,
      "size": 134,
      "vsize": 134,
      "weight": 536,
      "locktime": 0,
      "vin": [
        {
          "coinbase": "04ffff001d0108",
          "sequence": 4294967295
        }
      ],
      "vout": [
        {
          "value": 50.0,
          "n": 0,
          "scriptPubKey": {
            "asm": "047ecad26e4e489f35c85c6dc8832a4dad78b69d07b10624f49ea9ad809fea7ef1aa5d3bdd81ecf807de4af56b080d1c3c2f2a25063c60ef90e9a45689072f2e27 OP_CHECKSIG",
            "desc": "pk(047ecad26e4e489f35c85c6dc8832a4dad78b69d07b10624f49ea9ad809fea7ef1aa5d3bdd81ecf807de4af56b080d1c3c2f2a25063c60ef90e9a45689072f2e27)#45hgp0qv",
            "hex": "41047ecad26e4e489f35c85c6dc8832a4dad78b69d07b10624f49ea9ad809fea7ef1aa5d3bdd81ecf807de4af56b080d1c3c2f2a25063c60ef90e9a45689072f2e27ac",
            "type": "pubkey"
          }
        }
      ],
      "hex": "01000000010000000000000000000000000000000000000000000000000000000000000000ffffffff0704ffff001d0108ffffffff0100f2052a010000004341047ecad26e4e489f35c85c6dc8832a4dad78b69d07b10624f49ea9ad809fea7ef1aa5d3bdd81ecf807de4af56b080d1c3c2f2a25063c60ef90e9a45689072f2e27ac00000000"
    }
  ]
}