{
  "hash": "00000000df01937342f4fa17c4848e31075d6d3df2647885a2483b1c0717ab75",
  "confirmations": 49357,
  "height": 3741,
  "version": 1,
  "versionHex": "00000001",
  "merkleroot": "1f312d9c25243dff08d5def075b7297a6fcdfad2db4ceebc12033a2aa8c60678",
  "time": 1234262812,
  "mediantime": 1234259354,
  "nonce": 1711073837,
  "bits": "1d00ffff",
  "difficulty": 1,
  "chainwork": "00000000000000000000000000000000000000000000000000000e9e0e9e0e9e",
  "nTx": 1,
  "previousblockhash": "0000000096d2e1bec83a991fa920117d3d2fc746789f1ed821ce22af28e6bab2",
  "nextblockhash": "000000001419e5881c5acf071a5b27ff6e473314ead91830ce138d72864a1a04",
  "strippedsize": 215,
  "size": 215,
  "weight": 860,
  "tx": [
    {
      "txid": "1f312d9c25243dff08d5def075b7297a6fcdfad2db4ceebc12033a2aa8c60678",
      "hash": "1f312d9c25243dff08d5def075b7297a6fcdfad2db4ceebc12033a2aa8c60678",
      "version": 1,
      "size": 134,
      "vsize": 134,
      "weight": 536,
      "locktime": 0,
      "vin": [
        {
          "coinbase": "04ffff001d0176",
          "sequence": 4294967295
        }
      ],
      "vout": [
        {
          "value": 50.0,
          "n": 0,
          "scriptPubKey": {
            "asm": "04271da372c2f9aa8dfef486f5e1031ca117271d25568f36eefd166063f0ef9027a2a5c24c43fdaea1e5b8d380e3ddeccdca80e115271f61d29e37eafbc95d7c01 OP_CHECKSIG",
            "desc": "pk(04271da372c2f9aa8dfef486f5e1031ca117271d25568f36eefd166063f0ef9027a2a5c24c43fdaea1e5b8d380e3ddeccdca80e115271f61d29e37eafbc95d7c01)#d2xzujwt",
            "hex": "4104271da372c2f9aa8dfef486f5e1031ca117271d25568f36eefd166063f0ef9027a2a5c24c43fdaea1e5b8d380e3ddeccdca80e115271f61d29e37eafbc95d7c01ac",
            "type": "pubkey"
          }
        }
      ],
      "hex": "01000000010000000000000000000000000000000000000000000000000000000000000000ffffffff0704ffff001d0176ffffffff0100f2052a01000000434104271da372c2f9aa8dfef486f5e1031ca117271d25568f36eefd166063f0ef9027a2a5c24c43fdaea1e5b8d380e3ddeccdca80e115271f61d29e37eafbc95d7c01ac00000000"
    }
  ]
}