{
  "hash": "00000000913df6f85295bbfb96e0b39ab08179fb772873dd1b708a0844ec8bee",
  "confirmations": 44987,
  "height": 8111,
  "version": 1,
  "versionHex": "00000001",
  "merkleroot": "ba7c5b8b519635ee058ff519299ff2acf1cde7f8dcfb47b089c75326af794d69",
  "time": 1237539463,
  "mediantime": 1237536094,
  "nonce": 3571214388,
  "bits": "1d00ffff",
  "difficulty": 1,
  "chainwork": "00000000000000000000000000000000000000000000000000001fb01fb01fb0",
  "nTx": 1,
  "previousblockhash": "00000000ce091c5521e08f4f6160b9446a95e3b044b8d9c0be5cb22292af975b",
  "nextblockhash": "00000000cedc43019da91f0a1458321a45eda83dd325e0fbd13e5497a01d387b",
  "strippedsize": 216,
  "size": 216,
  "weight": 864,
  "tx": [
    {
      "txid": "ba7c5b8b519635ee058ff519299ff2acf1cde7f8dcfb47b089c75326af794d69",
      "hash": "ba7c5b8b519635ee058ff519299ff2acf1cde7f8dcfb47b089c75326af794d69",
      "version": 1,
      "size": 135,
      "vsize": 135,
      "weight": 540,
      "locktime": 0,
      "vin": [
        {
          "coinbase": "04ffff001d024a01",
          "sequence": 4294967295
        }
      ],
      "vout": [
        {
          "value": 50.0,
          "n": 0,
          "scriptPubKey": {
            "asm": "04c3cd8aee6717a2a7b55b981b8dd9357de55c66a28274ed8e6903aa76676ec10b85dedfb9006a8de71e5b72dba7ee6201f3274c2952fb99d5fa4050b5c8d47725 OP_CHECKSIG",
            "desc": "pk(04c3cd8aee6717a2a7b55b981b8dd9357de55c66a28274ed8e6903aa76676ec10b85dedfb9006a8de71e5b72dba7ee6201f3274c2952fb99d5fa4050b5c8d47725)#26dcmwx8",
            "hex": "4104c3cd8aee6717a2a7b55b981b8dd9357de55c66a28274ed8e6903aa76676ec10b85dedfb9006a8de71e5b72dba7ee6201f3274c2952fb99d5fa4050b5c8d47725ac",
            "type": "pubkey"
          }
        }
      ],
      "hex": "01000000010000000000000000000000000000000000000000000000000000000000000000ffffffff0804ffff001d024a01ffffffff0100f2052a01000000434104c3cd8aee6717a2a7b55b981b8dd9357de55c66a28274ed8e6903aa76676ec10b85dedfb9006a8de71e5b72dba7ee6201f3274c2952fb99d5fa4050b5c8d47725ac00000000"
    }
  ]
}