{
  "hash": "000000003bb574ce1cf1243e0f55ce19ec1a96af1998f77b4a627801faff3a0e",
  "confirmations": 43623,
  "height": 9475,
  "version": 1,
  "versionHex": "00000001",
  "merkleroot": "811f8a0decced2bca617eb9bb9ed70e7195ef7e69b29580670c0a4452e7c4240",
  "time": 1238610109,
  "mediantime": 1238606324,
  "nonce": 10299668,
  "bits": "1d00ffff",
  "difficulty": 1,
  "chainwork": "0000000000000000000000000000000000000000000000000000250425042504",
  "nTx": 1,
  "previousblockhash": "00000000a6eacde42365a4e51b957cb29c21d8d52c217c058d5a59818a110abb",
  "nextblockhash": "00000000d566170eed5508b602a21d82c4fdee6930a1808736c4126a5e239fc6",
  "strippedsize": 216,
  "size": 216,
  "weight": 864,
  "tx": [
    {
      "txid": "811f8a0decced2bca617eb9bb9ed70e7195ef7e69b29580670c0a4452e7c4240",
      "hash": "811f8a0decced2bca617eb9bb9ed70e7195ef7e69b29580670c0a4452e7c4240",
      "version": 1,
      "size": 135,
      "vsize": 135,
      "weight": 540,
      "locktime": 0,
      "vin": [
        {
          "coinbase": "04ffff001d02df04",
          "sequence": 4294967295
        }
      ],
      "vout": [
        {
          "value": 50.0,
          "n": 0,
          "scriptPubKey": {
            "asm": "042e0889daa2e5c4c2d9c31e2eb6410799b4aaea1d34deb937cdc0b6aeaf8ee1493b29de9438eb0acb85078c93ee6c454aac7f81f050cc9300ba4b30b1eff1012f OP_CHECKSIG",
            "desc": "pk(042e0889daa2e5c4c2d9c31e2eb6410799b4aaea1d34deb937cdc0b6aeaf8ee1493b29de9438eb0acb85078c93ee6c454aac7f81f050cc9300ba4b30b1eff1012f)#xka28ycg",
            "hex": "41042e0889daa2e5c4c2d9c31e2eb6410799b4aaea1d34deb937cdc0b6aeaf8ee1493b29de9438eb0acb85078c93ee6c454aac7f81f050cc9300ba4b30b1eff1012fac",
            "type": "pubkey"
          }
        }
      ],
      "hex": "01000000010000000000000000000000000000000000000000000000000000000000000000ffffffff0804ffff001d02df04ffffffff0100f2052a010000004341042e0889daa2e5c4c2d9c31e2eb6410799b4aaea1d34deb937cdc0b6aeaf8ee1493b29de9438eb0acb85078c93ee6c454aac7f81f050cc9300ba4b30b1eff1012fac00000000"
    }
  ]
}