{
  "hash": "0000000067088c4f789903333a7e50cc34cbd5784f96d2a112670b5b571cd077",
  "confirmations": 48102,
  "height": 4996,
  "version": 1,
  "versionHex": "00000001",
  "merkleroot": "8f12aa314bdedb83db670136c7178508dbcbcdc3bcc51009013ea26d447c2e9e",
  "time": 1235134092,
  "mediantime": 1235132300,
  "nonce": 3922334520,
  "bits": "1d00ffff",
  "difficulty": 1,
  "chainwork": "0000000000000000000000000000000000000000000000000000138513851385",
  "nTx": 1,
  "previousblockhash": "000000007dce0a462058ba41965c44be67766dffd42b87f02804a4f257bd3ad2",
  "nextblockhash": "0000000076a2ce70e7323a4f3ccae9302d0bd4452a0f164767cc872e70238acd",
  "strippedsize": 216,
  "size": 216,
  "weight": 864,
  "tx": [
    {
      "txid": "8f12aa314bdedb83db670136c7178508dbcbcdc3bcc51009013ea26d447c2e9e",
      "hash": "8f12aa314bdedb83db670136c7178508dbcbcdc3bcc51009013ea26d447c2e9e",
      "version": 1,
      "size": 135,
      "vsize": 135,
      "weight": 540,
      "locktime": 0,
      "vin": [
        {
          "coinbase": "04ffff001d02f106",
          "sequence": 4294967295
        }
      ],
      "vout": [
        {
          "value": 50.0,
          "n": 0,
          "scriptPubKey": {
            "asm": "04aeee9ff8467cc9d065e7497e5dff4450a9f1b6ccd92b13a1098b6dafc159f06e7add19fb0198e5c782296f60074161ea0fccee593074220c08085227df6746ff OP_CHECKSIG",
            "desc": "pk(04aeee9ff8467cc9d065e7497e5dff4450a9f1b6ccd92b13a1098b6dafc159f06e7add19fb0198e5c782296f60074161ea0fccee593074220c08085227df6746ff)#s07evvax",
            "hex": "4104aeee9ff8467cc9d065e7497e5dff4450a9f1b6ccd92b13a1098b6dafc159f06e7add19fb0198e5c782296f60074161ea0fccee593074220c08085227df6746ffac",
            "type": "pubkey"
          }
        }
      ],
      "hex": "01000000010000000000000000000000000000000000000000000000000000000000000000ffffffff0804ffff001d02f106ffffffff0100f2052a01000000434104aeee9ff8467cc9d065e7497e5dff4450a9f1b6ccd92b13a1098b6dafc159f06e7add19fb0198e5c782296f60074161ea0fccee593074220c08085227df6746ffac00000000"
    }
  ]
}