{
  "hash": "0000000095f7eb84f5123a78b3446c3d78b080b49ff11877f4bdca2ff8d8bce5",
  "confirmations": 43276,
  "height": 9822,
  "version": 1,
  "versionHex": "00000001",
  "merkleroot": "389033f4e569a893ccb6995cf2699020e8f6f81b1e24b0fb0f2fdfecea588909",
  "time": 1238870994,
  "mediantime": 1238867160,
  "nonce": 3347568645,
  "bits": "1d00ffff",
  "difficulty": 1,
  "chainwork": "0000000000000000000000000000000000000000000000000000265f265f265f",
  "nTx": 1,
  "previousblockhash": "00000000c3443b2573654522476c682b9a757d96e78c86e0587032c95d8057b9",
  "nextblockhash": "00000000b880ef8c65da454b4d662529580180619811f572fb7ff5e8947affab",
  "strippedsize": 216,
  "size": 216,
  "weight": 864,
  "tx": [
    {
      "txid": "389033f4e569a893ccb6995cf2699020e8f6f81b1e24b0fb0f2fdfecea588909",
      "hash": "389033f4e569a893ccb6995cf2699020e8f6f81b1e24b0fb0f2fdfecea588909",
      "version": 1,
      "size": 135,
      "vsize": 135,
      "weight": 540,
      "locktime": 0,
      "vin": [
        {
          "coinbase": "04ffff001d02a500",
          "sequence": 4294967295
        }
      ],
      "vout": [
        {
          "value": 50.0,
          "n": 0,
          "scriptPubKey": {
            "asm": "047728c6e8c386c619317101a8b70fe72a129169f23a555f1e0b3f827c8c6822f8b9a6afcbe2cc40b9a3c4669aa7f7578a07936feca0f75f61c0ede67d104fa41a OP_CHECKSIG",
            "desc": "pk(047728c6e8c386c619317101a8b70fe72a129169f23a555f1e0b3f827c8c6822f8b9a6afcbe2cc40b9a3c4669aa7f7578a07936feca0f75f61c0ede67d104fa41a)#tqlv0pl4",
            "hex": "41047728c6e8c386c619317101a8b70fe72a129169f23a555f1e0b3f827c8c6822f8b9a6afcbe2cc40b9a3c4669aa7f7578a07936feca0f75f61c0ede67d104fa41aac",
            "type": "pubkey"
          }
        }
      ],
      "hex": "01000000010000000000000000000000000000000000000000000000000000000000000000ffffffff0804ffff001d02a500ffffffff0100f2052a010000004341047728c6e8c386c619317101a8b70fe72a129169f23a555f1e0b3f827c8c6822f8b9a6afcbe2cc40b9a3c4669aa7f7578a07936feca0f75f61c0ede67d104fa41aac00000000"
    }
  ]
}