{
  "hash": "0000000017a3a3cbc16f12113fe4d2c3f315967767edf9d3dfea7126b10a9589",
  "confirmations": 52345,
  "height": 753,
  "version": 1,
  "versionHex": "00000001",
  "merkleroot": "e2d39def68d039444be01a3efcec099bd35eae77d77ebd67698bb7b94a40d7d4",
  "time": 1232153864,
  "mediantime": 1232150102,
  "nonce": 943389473,
  "bits": "1d00ffff",
  "difficulty": 1,
  "chainwork": "000000000000000000000000000000000000000000000000000002f202f202f2",
  "nTx": 1,
  "previousblockhash": "00000000d9f631023b59f4abca4fbe5802ec6100b04520687ae9b215c007e934",
  "nextblockhash": "000000007a97861a5765941225104fc424dc76dcd95f2d84bae78beff16ba484",
  "strippedsize": 216,
  "size": 216,
  "weight": 864,
  "tx": [
    {
      "txid": "e2d39def68d039444be01a3efcec099bd35eae77d77ebd67698bb7b94a40d7d4",
      "hash": "e2d39def68d039444be01a3efcec099bd35eae77d77ebd67698bb7b94a40d7d4",
      "version": 1,
      "size": 135,
      "vsize": 135,
      "weight": 540,
      "locktime": 0,
      "vin": [
        {
          "coinbase": "04ffff001d02a500",
          "sequence": 4294967295
        }
      ],
      "vout": [
        {
          "value": 50.0,
          "n": 0,
          "scriptPubKey": {
            "asm": "0473430f3f00c9a65d208ade72e89db118bf06c792c98eb579b418ff5c22ba7edb4f7fbc65edf310249e475d573fa3d831865a8f6059493a922868cd1f2aa3cb5e OP_CHECKSIG",
            "desc": "pk(0473430f3f00c9a65d208ade72e89db118bf06c792c98eb579b418ff5c22ba7edb4f7fbc65edf310249e475d573fa3d831865a8f6059493a922868cd1f2aa3cb5e)#2d2htkk3",
            "hex": "410473430f3f00c9a65d208ade72e89db118bf06c792c98eb579b418ff5c22ba7edb4f7fbc65edf310249e475d573fa3d831865a8f6059493a922868cd1f2aa3cb5eac",
            "type": "pubkey"
          }
        }
      ],
      "hex": "01000000010000000000000000000000000000000000000000000000000000000000000000ffffffff0804ffff001d02a500ffffffff0100f2052a0100000043410473430f3f00c9a65d208ade72e89db118bf06c792c98eb579b418ff5c22ba7edb4f7fbc65edf310249e475d573fa3d831865a8f6059493a922868cd1f2aa3cb5eac00000000"
    }
  ]
}