{
  "hash": "0000000012bdcd3576bdef9371a94e68dcdf31351e79ae7911f822c084a966c6",
  "confirmations": 45667,
  "height": 7431,
  "version": 1,
  "versionHex": "00000001",
  "merkleroot": "7dbfb875596293e7d2b2793cfb3e19409c468af8f2ff9f73fc0e55e44e7b0add",
  "time": 1237045845,
  "mediantime": 1237042181,
  "nonce": 1616594999,
  "bits": "1d00ffff",
  "difficulty": 1,
  "chainwork": "00000000000000000000000000000000000000000000000000001d081d081d08",
  "nTx": 1,
  "previousblockhash": "000000005addc3c13a441ba0532387a240907929a1029cd3553efee30acb9880",
  "nextblockhash": "00000000f1a971b62c9a02a0fa58bf46d84275a9a529c5803f14bc4067385430",
  "strippedsize": 216,
  "size": 216,
  "weight": 864,
  "tx": [
    {
      "txid": "7dbfb875596293e7d2b2793cfb3e19409c468af8f2ff9f73fc0e55e44e7b0add",
      "hash": "7dbfb875596293e7d2b2793cfb3e19409c468af8f2ff9f73fc0e55e44e7b0add",
      "version": 1,
      "size": 135,
      "vsize": 135,
      "weight": 540,
      "locktime": 0,
      "vin": [
        {
          "coinbase": "04ffff001d02f809",
          "sequence": 4294967295
        }
      ],
      "vout": [
        {
          "value": 50.0,
          "n": 0,
          "scriptPubKey": {
            "asm": "04bcf5eaa1512889c5f3197d382105ad48d1fbf599190a53437cf970001a060c7d363f425e013675e036e95762941aee5810762574fff69dda0fdea7eef8871d39 OP_CHECKSIG",
            "desc": "pk(04bcf5eaa1512889c5f3197d382105ad48d1fbf599190a53437cf970001a060c7d363f425e013675e036e95762941aee5810762574fff69dda0fdea7eef8871d39)#h85kmluu",
            "hex": "4104bcf5eaa1512889c5f3197d382105ad48d1fbf599190a53437cf970001a060c7d363f425e013675e036e95762941aee5810762574fff69dda0fdea7eef8871d39ac",
            "type": "pubkey"
          }
        }
      ],
      "hex": "01000000010000000000000000000000000000000000000000000000000000000000000000ffffffff0804ffff001d02f809ffffffff0100f2052a01000000434104bcf5eaa1512889c5f3197d382105ad48d1fbf599190a53437cf970001a060c7d363f425e013675e036e95762941aee5810762574fff69dda0fdea7eef8871d39ac00000000"
    }
  ]
}