{
  "hash": "00000000cbbb4b09e70b5f12c082567597686c6e7d24174e6b1d9f18dbe90bd0",
  "confirmations": 46015,
  "height": 7083,
  "version": 1,
  "versionHex": "00000001",
  "merkleroot": "caa778b6f4d88b3bb3e1639357161fd16343aa252908897028a620898b7557b4",
  "time": 1236782852,
  "mediantime": 1236778555,
  "nonce": 57225094,
  "bits": "1d00ffff",
  "difficulty": 1,
  "chainwork": "00000000000000000000000000000000000000000000000000001bac1bac1bac",
  "nTx": 1,
  "previousblockhash": "00000000e01c1272124aaaaa8c9ea3d16e16d8f7f0bc7300326da5c21311bed5",
  "nextblockhash": "00000000285e3e8f92b44d5991728c88461091356bf8a7901d6a6907570f04d5",
  "strippedsize": 215,
  "size": 215,
  "weight": 860,
  "tx": [
    {
      "txid": "caa778b6f4d88b3bb3e1639357161fd16343aa252908897028a620898b7557b4",
      "hash": "caa778b6f4d88b3bb3e1639357161fd16343aa252908897028a620898b7557b4",
      "version": 1,
      "size": 134,
      "vsize": 134,
      "weight": 536,
      "locktime": 0,
      "vin": [
        {
          "coinbase": "04ffff001d0150",
          "sequence": 4294967295
        }
      ],
      "vout": [
        {
          "value": 50.0,
          "n": 0,
          "scriptPubKey": {
            "asm": "04087b494ff7e94e7636bb2339c215a0a9a55465a6bb2ad06e7ff53784b071c093f9641f214385840ef4805a17d6364899c3334def7197c5a5cde522ad1da22176 OP_CHECKSIG",
            "desc": "pk(04087b494ff7e94e7636bb2339c215a0a9a55465a6bb2ad06e7ff53784b071c093f9641f214385840ef4805a17d6364899c3334def7197c5a5cde522ad1da22176)#xctcs0yr",
            "hex": "4104087b494ff7e94e7636bb2339c215a0a9a55465a6bb2ad06e7ff53784b071c093f9641f214385840ef4805a17d6364899c3334def7197c5a5cde522ad1da22176ac",
            "type": "pubkey"
          }
        }
      ],
      "hex": "01000000010000000000000000000000000000000000000000000000000000000000000000ffffffff0704ffff001d0150ffffffff0100f2052a01000000434104087b494ff7e94e7636bb2339c215a0a9a55465a6bb2ad06e7ff53784b071c093f9641f214385840ef4805a17d6364899c3334def7197c5a5cde522ad1da22176ac00000000"
    }
  ]
}