{
  "hash": "000000006d7aa7b2a57502a9fdf8df7781011c74138372c16233b21d80be0e17",
  "confirmations": 49991,
  "height": 3107,
  "version": 1,
  "versionHex": "00000001",
  "merkleroot": "7b3ad068cd16aca1863d752af1bb2ca07d6e25abfc956bc76e4e37016e7f2774",
  "time": 1233839832,
  "mediantime": 1233836303,
  "nonce": 1005829634,
  "bits": "1d00ffff",
  "difficulty": 1,
  "chainwork": "00000000000000000000000000000000000000000000000000000c240c240c24",
  "nTx": 1,
  "previousblockhash": "000000005306af166149744b0fc04e9fcf561b2669ffcd026355750a007a89f8",
  "nextblockhash": "00000000c6bf37659ded32d61de724202589c3450efce4a5c23e18f83efc4b31",
  "strippedsize": 216,
  "size": 216,
  "weight": 864,
  "tx": [
    {
      "txid": "7b3ad068cd16aca1863d752af1bb2ca07d6e25abfc956bc76e4e37016e7f2774",
      "hash": "7b3ad068cd16aca1863d752af1bb2ca07d6e25abfc956bc76e4e37016e7f2774",
      "version": 1,
      "size": 135,
      "vsize": 135,
      "weight": 540,
      "locktime": 0,
      "vin": [
        {
          "coinbase": "04ffff001d024e01",
          "sequence": 4294967295
        }
      ],
      "vout": [
        {
          "value": 50.0,
          "n": 0,
          "scriptPubKey": {
            "asm": "04b4b347d1b47a7e05e06abcd004c9521e57e968259348e95f44e7b06c3270d8a6d1f464f01c00c9fc4ecd0ef10bf75231eacae26d18d90eefc53f2656821df89f OP_CHECKSIG",
            "desc": "pk(04b4b347d1b47a7e05e06abcd004c9521e57e968259348e95f44e7b06c3270d8a6d1f464f01c00c9fc4ecd0ef10bf75231eacae26d18d90eefc53f2656821df89f)#wjq36gs7",
            "hex": "4104b4b347d1b47a7e05e06abcd004c9521e57e968259348e95f44e7b06c3270d8a6d1f464f01c00c9fc4ecd0ef10bf75231eacae26d18d90eefc53f2656821df89fac",
            "type": "pubkey"
          }
        }
      ],
      "hex": "01000000010000000000000000000000000000000000000000000000000000000000000000ffffffff0804ffff001d024e01ffffffff0100f2052a01000000434104b4b347d1b47a7e05e06abcd004c9521e57e968259348e95f44e7b06c3270d8a6d1f464f01c00c9fc4ecd0ef10bf75231eacae26d18d90eefc53f2656821df89fac00000000"
    }
  ]
}