{
  "hash": "0000000073996a70dcbd4dff31d247bf4e5d2639bd7f7b417b131114ae0c9c9b",
  "confirmations": 51877,
  "height": 1221,
  "version": 1,
  "versionHex": "00000001",
  "merkleroot": "a4979a177e3ffcb43192fac61602e1f57a759ce1933207871fc08d85133d596d",
  "time": 1232515789,
  "mediantime": 1232512290,
  "nonce": 1486902566,
  "bits": "1d00ffff",
  "difficulty": 1,
  "chainwork": "000000000000000000000000000000000000000000000000000004c604c604c6",
  "nTx": 1,
  "previousblockhash": "0000000047e2deb17c9084a5940152048a485c04e7b85145eb58d001c641c89b",
  "nextblockhash": "000000005ff5517646b998056bd959d654ce58f0c706e74f2505dcc308b31907",
  "strippedsize": 216,
  "size": 216,
  "weight": 864,
  "tx": [
    {
      "txid": "a4979a177e3ffcb43192fac61602e1f57a759ce1933207871fc08d85133d596d",
      "hash": "a4979a177e3ffcb43192fac61602e1f57a759ce1933207871fc08d85133d596d",
      "version": 1,
      "size": 135,
      "vsize": 135,
      "weight": 540,
      "locktime": 0,
      "vin": [
        {
          "coinbase": "04ffff001d02f108",
          "sequence": 4294967295
        }
      ],
      "vout": [
        {
          "value": 50.0,
          "n": 0,
          "scriptPubKey": {
            "asm": "048e4c30b0822da08d5aed0bac7c6d43e30a08b95f9231c590b37f29063f95e15987ecdf569c0a549194af701de604e0909a0e9b00c1ebf7999a190579d4566fc2 OP_CHECKSIG",
            "desc": "pk(048e4c30b0822da08d5aed0bac7c6d43e30a08b95f9231c590b37f29063f95e15987ecdf569c0a549194af701de604e0909a0e9b00c1ebf7999a190579d4566fc2)#kfands3h",
            "hex": "41048e4c30b0822da08d5aed0bac7c6d43e30a08b95f9231c590b37f29063f95e15987ecdf569c0a549194af701de604e0909a0e9b00c1ebf7999a190579d4566fc2ac",
            "type": "pubkey"
          }
        }
      ],
      "hex": "01000000010000000000000000000000000000000000000000000000000000000000000000ffffffff0804ffff001d02f108ffffffff0100f2052a010000004341048e4c30b0822da08d5aed0bac7c6d43e30a08b95f9231c590b37f29063f95e15987ecdf569c0a549194af701de604e0909a0e9b00c1ebf7999a190579d4566fc2ac00000000"
    }
  ]
}