{
  "hash": "00000000085a4776d416c8eba3d2723a113e51c59bce7d1fdab54098c399f3ac",
  "confirmations": 46989,
  "height": 6109,
  "version": 1,
  "versionHex": "00000001",
  "merkleroot": "25669998bbb8635848ca2276b269f214d0ab1c7c422febf4921192fc24df90b8",
  "time": 1236016102,
  "mediantime": 1236012643,
  "nonce": 1288634388,
  "bits": "1d00ffff",
  "difficulty": 1,
  "chainwork": "000000000000000000000000000000000000000000000000000017de17de17de",
  "nTx": 1,
  "previousblockhash": "0000000062ad672a1552b48011a28073ad9e0c2af53aa92760675016957f58e8",
  "nextblockhash": "00000000dac6dfbd3ee5ab827d0cb3a4a340ec66459f4f551b92e0b13e27108c",
  "strippedsize": 216,
  "size": 216,
  "weight": 864,
  "tx": [
    {
      "txid": "25669998bbb8635848ca2276b269f214d0ab1c7c422febf4921192fc24df90b8",
      "hash": "25669998bbb8635848ca2276b269f214d0ab1c7c422febf4921192fc24df90b8",
      "version": 1,
      "size": 135,
      "vsize": 135,
      "weight": 540,
      "locktime": 0,
      "vin": [
        {
          "coinbase": "04ffff001d02e706",
          "sequence": 4294967295
        }
      ],
      "vout": [
        {
          "value": 50.0,
          "n": 0,
          "scriptPubKey": {
            "asm": "04aab54e884507856ce4fc07f7333ad0b2be6e8af4dc1400de58ac277e4c62540e88c6b62b8c33b599ba4c1c7f1f90944aebeb1879194c5bad8c8b1564eb9af040 OP_CHECKSIG",
            "desc": "pk(04aab54e884507856ce4fc07f7333ad0b2be6e8af4dc1400de58ac277e4c62540e88c6b62b8c33b599ba4c1c7f1f90944aebeb1879194c5bad8c8b1564eb9af040)#96na837x",
            "hex": "4104aab54e884507856ce4fc07f7333ad0b2be6e8af4dc1400de58ac277e4c62540e88c6b62b8c33b599ba4c1c7f1f90944aebeb1879194c5bad8c8b1564eb9af040ac",
            "type": "pubkey"
          }
        }
      ],
      "hex": "01000000010000000000000000000000000000000000000000000000000000000000000000ffffffff0804ffff001d02e706ffffffff0100f2052a01000000434104aab54e884507856ce4fc07f7333ad0b2be6e8af4dc1400de58ac277e4c62540e88c6b62b8c33b599ba4c1c7f1f90944aebeb1879194c5bad8c8b1564eb9af040ac00000000"
    }
  ]
}