{
  "hash": "000000002f6bb1ffc918e4d12ab9cf0107fc3866ec09360efc5a67fa20494682",
  "confirmations": 50605,
  "height": 2493,
  "version": 1,
  "versionHex": "00000001",
  "merkleroot": "50117d93bc3a0d9fbdaaa161d27ad4be8a4d979359d7ab2edd51b0c49deba291",
  "time": 1233417537,
  "mediantime": 1233414798,
  "nonce": 33808668,
  "bits": "1d00ffff",
  "difficulty": 1,
  "chainwork": "000000000000000000000000000000000000000000000000000009be09be09be",
  "nTx": 1,
  "previousblockhash": "000000003cffb34ef7437f7c54b0e5c1e855b3b8a33520143a707d3a0a7103e8",
  "nextblockhash": "00000000976ea48290f62762637a1c9a1d6abe361d9f96dfe72dfee44abde5e9",
  "strippedsize": 216,
  "size": 216,
  "weight": 864,
  "tx": [
    {
      "txid": "50117d93bc3a0d9fbdaaa161d27ad4be8a4d979359d7ab2edd51b0c49deba291",
      "hash": "50117d93bc3a0d9fbdaaa161d27ad4be8a4d979359d7ab2edd51b0c49deba291",
      "version": 1,
      "size": 135,
      "vsize": 135,
      "weight": 540,
      "locktime": 0,
      "vin": [
        {
          "coinbase": "04ffff001d023602",
          "sequence": 4294967295
        }
      ],
      "vout": [
        {
          "value": 50.0,
          "n": 0,
          "scriptPubKey": {
            "asm": "04467bb5b7aae26c5de3329db70f2e0d1dece2d884c338cd8631c035f2c81196829a8bf9b390a271b2ae2565aaafb9657e78c0490c9bdc698fb06c44cc41b61fbc OP_CHECKSIG",
            "desc": "pk(04467bb5b7aae26c5de3329db70f2e0d1dece2d884c338cd8631c035f2c81196829a8bf9b390a271b2ae2565aaafb9657e78c0490c9bdc698fb06c44cc41b61fbc)#y6xyzkkk",
            "hex": "4104467bb5b7aae26c5de3329db70f2e0d1dece2d884c338cd8631c035f2c81196829a8bf9b390a271b2ae2565aaafb9657e78c0490c9bdc698fb06c44cc41b61fbcac",
            "type": "pubkey"
          }
        }
      ],
      "hex": "01000000010000000000000000000000000000000000000000000000000000000000000000ffffffff0804ffff001d023602ffffffff0100f2052a01000000434104467bb5b7aae26c5de3329db70f2e0d1dece2d884c338cd8631c035f2c81196829a8bf9b390a271b2ae2565aaafb9657e78c0490c9bdc698fb06c44cc41b61fbcac00000000"
    }
  ]
}