{
  "hash": "00000000b7c1c85a20a8912759dbf358891ac723c1bd74200107fe01278f7535",
  "confirmations": 52113,
  "height": 985,
  "version": 1,
  "versionHex": "00000001",
  "merkleroot": "c8bdccbfa9fef00797bb73fe9c7c6a295ce5730740cf3d5b9b3df421b5989422",
  "time": 1232339172,
  "mediantime": 1232334867,
  "nonce": 3688422442,
  "bits": "1d00ffff",
  "difficulty": 1,
  "chainwork": "000000000000000000000000000000000000000000000000000003da03da03da",
  "nTx": 1,
  "previousblockhash": "000000003182f3b9579afb0a93a01e40c86eed120dfe45579e37c89874c372f5",
  "nextblockhash": "00000000bdc6a035a608cc5e03e7e35fd39d520eb1003b1a4c937ad30baafa94",
  "strippedsize": 216,
  "size": 216,
  "weight": 864,
  "tx": [
    {
      "txid": "c8bdccbfa9fef00797bb73fe9c7c6a295ce5730740cf3d5b9b3df421b5989422",
      "hash": "c8bdccbfa9fef00797bb73fe9c7c6a295ce5730740cf3d5b9b3df421b5989422",
      "version": 1,
      "size": 135,
      "vsize": 135,
      "weight": 540,
      "locktime": 0,
      "vin": [
        {
          "coinbase": "04ffff001d02e304",
          "sequence": 4294967295
        }
      ],
      "vout": [
        {
          "value": 50.0,
          "n": 0,
          "scriptPubKey": {
            "asm": "04444baaef1e463ee0ffd4c823b90c2e90077b885369ea4011f4d7eb337e81eb02faa4732036f9f7c7957e880c0e1d32e9edaeba9ed5ced19c58c15b1f31f3c104 OP_CHECKSIG",
            "desc": "pk(04444baaef1e463ee0ffd4c823b90c2e90077b885369ea4011f4d7eb337e81eb02faa4732036f9f7c7957e880c0e1d32e9edaeba9ed5ced19c58c15b1f31f3c104)#j0ryccg3",
            "hex": "4104444baaef1e463ee0ffd4c823b90c2e90077b885369ea4011f4d7eb337e81eb02faa4732036f9f7c7957e880c0e1d32e9edaeba9ed5ced19c58c15b1f31f3c104ac",
            "type": "pubkey"
          }
        }
      ],
      "hex": "01000000010000000000000000000000000000000000000000000000000000000000000000ffffffff0804ffff001d02e304ffffffff0100f2052a01000000434104444baaef1e463ee0ffd4c823b90c2e90077b885369ea4011f4d7eb337e81eb02faa4732036f9f7c7957e880c0e1d32e9edaeba9ed5ced19c58c15b1f31f3c104ac00000000"
    }
  ]
}