{
  "hash": "00000000af4d5749cd26701cc85675c5c6b8c63651292364e08c8d9c36a549a5",
  "confirmations": 50863,
  "height": 2235,
  "version": 1,
  "versionHex": "00000001",
  "merkleroot": "0868a87abd312efb0f3219089afeb46586d7ffa45d17df51ce8f820883082c64",
  "time": 1233237180,
  "mediantime": 1233235063,
  "nonce": 3943241241,
  "bits": "1d00ffff",
  "difficulty": 1,
  "chainwork": "000000000000000000000000000000000000000000000000000008bc08bc08bc",
  "nTx": 1,
  "previousblockhash": "000000005c0ba648f2c36c96ce5043b0838300e4b164f3bddf8039efeab66671",
  "nextblockhash": "00000000e2e56d17b675db5c858b3735593eca5ed85c54aa23fd299e29310c37",
  "strippedsize": 216,
  "size": 216,
  "weight": 864,
  "tx": [
    {
      "txid": "0868a87abd312efb0f3219089afeb46586d7ffa45d17df51ce8f820883082c64",
      "hash": "0868a87abd312efb0f3219089afeb46586d7ffa45d17df51ce8f820883082c64",
      "version": 1,
      "size": 135,
      "vsize": 135,
      "weight": 540,
      "locktime": 0,
      "vin": [
        {
          "coinbase": "04ffff001d02d200",
          "sequence": 4294967295
        }
      ],
      "vout": [
        {
          "value": 50.0,
          "n": 0,
          "scriptPubKey": {
            "asm": "041ef00864b38d27b2e284f11d2a3e374e82e66cf908514d84c9842e9305f49ff6866fe065ec96fec3e0010768296456ceb6e611bd17ff1e0992346d6538fb1821 OP_CHECKSIG",
            "desc": "pk(041ef00864b38d27b2e284f11d2a3e374e82e66cf908514d84c9842e9305f49ff6866fe065ec96fec3e0010768296456ceb6e611bd17ff1e0992346d6538fb1821)#rf70t52c",
            "hex": "41041ef00864b38d27b2e284f11d2a3e374e82e66cf908514d84c9842e9305f49ff6866fe065ec96fec3e0010768296456ceb6e611bd17ff1e0992346d6538fb1821ac",
            "type": "pubkey"
          }
        }
      ],
      "hex": "01000000010000000000000000000000000000000000000000000000000000000000000000ffffffff0804ffff001d02d200ffffffff0100f2052a010000004341041ef00864b38d27b2e284f11d2a3e374e82e66cf908514d84c9842e9305f49ff6866fe065ec96fec3e0010768296456ceb6e611bd17ff1e0992346d6538fb1821ac00000000"
    }
  ]
}