{
  "hash": "00000000eddf09d9b36274faf45b4b4629a28266ff952a69d554c1ed0b988dff",
  "confirmations": 52084,
  "height": 251,
  "version": 1,
  "versionHex": "00000001",
  "merkleroot": "ee36d141029ce5c0583c1d78b51d703b6da87279219d1fcf2e3cb21ca35f361c",
  "time": 1231793759,
  "mediantime": 1231788910,
  "nonce": 3589524243,
  "bits": "1d00ffff",
  "difficulty": 1,
  "chainwork": "000000000000000000000000000000000000000000000000000000fc00fc00fc",
  "nTx": 1,
  "previousblockhash": "000000004e833644bc7fb021abd3da831c64ec82bae73042cfa63923d47d3303",
  "nextblockhash": "00000000c8fd8e47245760fc2d164013cf60b6b73a5f3ed9ed21c5c1289e65aa",
  "strippedsize": 216,
  "size": 216,
  "weight": 864,
  "tx": [
    {
      "txid": "ee36d141029ce5c0583c1d78b51d703b6da87279219d1fcf2e3cb21ca35f361c",
      "hash": "ee36d141029ce5c0583c1d78b51d703b6da87279219d1fcf2e3cb21ca35f361c",
      "version": 1,
      "size": 135,
      "vsize": 135,
      "weight": 540,
      "locktime": 0,
      "vin": [
        {
          "coinbase": "04ffff001d021901",
          "sequence": 4294967295
        }
      ],
      "vout": [
        {
          "value": 50.0,
          "n": 0,
          "scriptPubKey": {
            "asm": "048d7229028f33da6a87be8ddee0ed9f385cf5312480405af7e3ffd8f8d93c1a348bb0a018c69bc5a5d21679b3af3242b21ceca31da829efbc242846912b006508 OP_CHECKSIG",
            "desc": "pk(048d7229028f33da6a87be8ddee0ed9f385cf5312480405af7e3ffd8f8d93c1a348bb0a018c69bc5a5d21679b3af3242b21ceca31da829efbc242846912b006508)#4ftqeg3m",
            "hex": "41048d7229028f33da6a87be8ddee0ed9f385cf5312480405af7e3ffd8f8d93c1a348bb0a018c69bc5a5d21679b3af3242b21ceca31da829efbc242846912b006508ac",
            "type": "pubkey"
          }
        }
      ],
      "hex": "01000000010000000000000000000000000000000000000000000000000000000000000000ffffffff0804ffff001d021901ffffffff0100f2052a010000004341048d7229028f33da6a87be8ddee0ed9f385cf5312480405af7e3ffd8f8d93c1a348bb0a018c69bc5a5d21679b3af3242b21ceca31da829efbc242846912b006508ac00000000"
    }
  ]
}