{
  "hash": "0000000070e953b7a87dad93a8c63a5884f92ba7f53e38f9dc2b64e09e0b735a",
  "confirmations": 52215,
  "height": 403,
  "version": 1,
  "versionHex": "00000001",
  "merkleroot": "b1d9ceea015b06c8753f48c0a04336719f00abbcecc5c1ed11a5c3005c587a0d",
  "time": 1231903835,
  "mediantime": 1231900415,
  "nonce": 3533262110,
  "bits": "1d00ffff",
  "difficulty": 1,
  "chainwork": "0000000000000000000000000000000000000000000000000000019401940194",
  "nTx": 1,
  "previousblockhash": "000000005265c5afb97e91a7961ea9861612d965e7714df0c9d38da02b59d8f8",
  "nextblockhash": "00000000e1c14f433f188468b2bb6e634fb5381d2c8c1e98e1f87a90842073e8",
  "strippedsize": 216,
  "size": 216,
  "weight": 864,
  "tx": [
    {
      "txid": "b1d9ceea015b06c8753f48c0a04336719f00abbcecc5c1ed11a5c3005c587a0d",
      "hash": "b1d9ceea015b06c8753f48c0a04336719f00abbcecc5c1ed11a5c3005c587a0d",
      "version": 1,
      "size": 135,
      "vsize": 135,
      "weight": 540,
      "locktime": 0,
      "vin": [
        {
          "coinbase": "04ffff001d028102",
          "sequence": 4294967295
        }
      ],
      "vout": [
        {
          "value": 50.0,
          "n": 0,
          "scriptPubKey": {
            "asm": "04a9f28305bd247981dd2a49abca2d8602110931298185128b43d7bcaea4863b93b8850cddbb7179c73d0cdccbc1623fae51f4b50b0a73d33f68f3cbe61658d96d OP_CHECKSIG",
            "desc": "pk(04a9f28305bd247981dd2a49abca2d8602110931298185128b43d7bcaea4863b93b8850cddbb7179c73d0cdccbc1623fae51f4b50b0a73d33f68f3cbe61658d96d)#fuxr7j4d",
            "hex": "4104a9f28305bd247981dd2a49abca2d8602110931298185128b43d7bcaea4863b93b8850cddbb7179c73d0cdccbc1623fae51f4b50b0a73d33f68f3cbe61658d96dac",
            "type": "pubkey"
          }
        }
      ],
      "hex": "01000000010000000000000000000000000000000000000000000000000000000000000000ffffffff0804ffff001d028102ffffffff0100f2052a01000000434104a9f28305bd247981dd2a49abca2d8602110931298185128b43d7bcaea4863b93b8850cddbb7179c73d0cdccbc1623fae51f4b50b0a73d33f68f3cbe61658d96dac00000000"
    }
  ]
}