{
  "hash": "000000003b89eaf7515f9d5445a550e904aac936d8c8a1ef6d29805ab00fb25e",
  "confirmations": 44035,
  "height": 9063,
  "version": 1,
  "versionHex": "00000001",
  "merkleroot": "72ccd06f01ff251d588794a79c589815d7b9c571ab71d4920d7385bba841e6a2",
  "time": 1238304937,
  "mediantime": 1238300745,
  "nonce": 2669376058,
  "bits": "1d00ffff",
  "difficulty": 1,
  "chainwork": "0000000000000000000000000000000000000000000000000000236823682368",
  "nTx": 1,
  "previousblockhash": "00000000f223596b03ce2b9996a2c74101cfe7f3aabd306a7c92a799a3a831d0",
  "nextblockhash": "000000009124fb96be321a11f2cc8550c8f8336fae21fa3589f59f4c4eff7a0f",
  "strippedsize": 216,
  "size": 216,
  "weight": 864,
  "tx": [
    {
      "txid": "72ccd06f01ff251d588794a79c589815d7b9c571ab71d4920d7385bba841e6a2",
      "hash": "72ccd06f01ff251d588794a79c589815d7b9c571ab71d4920d7385bba841e6a2",
      "version": 1,
      "size": 135,
      "vsize": 135,
      "weight": 540,
      "locktime": 0,
      "vin": [
        {
          "coinbase": "04ffff001d028b07",
          "sequence": 4294967295
        }
      ],
      "vout": [
        {
          "value": 50.0,
          "n": 0,
          "scriptPubKey": {
            "asm": "04643067fa1dbfb8e95af5c970499909787ca7bc088726cded97c9ee042d18692efe7cf39e96026794482be33aab8f7163528fa526255ad00a1c3656eb59799078 OP_CHECKSIG",
            "desc": "pk(04643067fa1dbfb8e95af5c970499909787ca7bc088726cded97c9ee042d18692efe7cf39e96026794482be33aab8f7163528fa526255ad00a1c3656eb59799078)#7usnzka4",
            "hex": "4104643067fa1dbfb8e95af5c970499909787ca7bc088726cded97c9ee042d18692efe7cf39e96026794482be33aab8f7163528fa526255ad00a1c3656eb59799078ac",
            "type": "pubkey"
          }
        }
      ],
      "hex": "01000000010000000000000000000000000000000000000000000000000000000000000000ffffffff0804ffff001d028b07ffffffff0100f2052a01000000434104643067fa1dbfb8e95af5c970499909787ca7bc088726cded97c9ee042d18692efe7cf39e96026794482be33aab8f7163528fa526255ad00a1c3656eb59799078ac00000000"
    }
  ]
}