{
  "hash": "000000003e944bca9bbe8438a6dfbf3c874cb1d71c9478d23685cef48b584ce1",
  "confirmations": 49374,
  "height": 3724,
  "version": 1,
  "versionHex": "00000001",
  "merkleroot": "32cb7b5cbd0ba82c8af9bae65efd8de874ee6d78afed7d35501e48f536c00222",
  "time": 1234250040,
  "mediantime": 1234246629,
  "nonce": 2477000473,
  "bits": "1d00ffff",
  "difficulty": 1,
  "chainwork": "00000000000000000000000000000000000000000000000000000e8d0e8d0e8d",
  "nTx": 1,
  "previousblockhash": "00000000c6724d4f30b87ba3c61a83b5ac004188ddc12d8e789da073623ae472",
  "nextblockhash": "000000002e9d7d4da21c0f03c168500cb0f1273dad7d7adfbfa7409a4323fe43",
  "strippedsize": 215,
  "size": 215,
  "weight": 860,
  "tx": [
    {
      "txid": "32cb7b5cbd0ba82c8af9bae65efd8de874ee6d78afed7d35501e48f536c00222",
      "hash": "32cb7b5cbd0ba82c8af9bae65efd8de874ee6d78afed7d35501e48f536c00222",
      "version": 1,
      "size": 134,
      "vsize": 134,
      "weight": 536,
      "locktime": 0,
      "vin": [
        {
          "coinbase": "04ffff001d012d",
          "sequence": 4294967295
        }
      ],
      "vout": [
        {
          "value": 50.0,
          "n": 0,
          "scriptPubKey": {
            "asm": "044447ab24158de3078e5fa7009538735cffded7a2ed935b583b2b8fcfd5b9a70e1cada1ce61bef898fe20876034d26d3f3feebc8f2bc0439de85f8d125eeb8bd4 OP_CHECKSIG",
            "desc": "pk(044447ab24158de3078e5fa7009538735cffded7a2ed935b583b2b8fcfd5b9a70e1cada1ce61bef898fe20876034d26d3f3feebc8f2bc0439de85f8d125eeb8bd4)#njqhc4uz",
            "hex": "41044447ab24158de3078e5fa7009538735cffded7a2ed935b583b2b8fcfd5b9a70e1cada1ce61bef898fe20876034d26d3f3feebc8f2bc0439de85f8d125eeb8bd4ac",
            "type": "pubkey"
          }
        }
      ],
      "hex": "01000000010000000000000000000000000000000000000000000000000000000000000000ffffffff0704ffff001d012dffffffff0100f2052a010000004341044447ab24158de3078e5fa7009538735cffded7a2ed935b583b2b8fcfd5b9a70e1cada1ce61bef898fe20876034d26d3f3feebc8f2bc0439de85f8d125eeb8bd4ac00000000"
    }
  ]
}