{
  "hash": "000000007b6e0cc6e6eecf10dadc977015d80140f3b425698bdec888a893a5d4",
  "confirmations": 44155,
  "height": 8943,
  "version": 1,
  "versionHex": "00000001",
  "merkleroot": "17068cbe7f7ab0c5a9791ba0a1fc6a1b51cbdc5fbab4daeb9b8489e4a8681c71",
  "time": 1238211250,
  "mediantime": 1238207596,
  "nonce": 2558830869,
  "bits": "1d00ffff",
  "difficulty": 1,
  "chainwork": "000000000000000000000000000000000000000000000000000022f022f022f0",
  "nTx": 1,
  "previousblockhash": "000000007a76955778103f04708db5b1c405c6bec139b5d9238ace78c3271491",
  "nextblockhash": "00000000fafeb088b659303b89d6911ece9bf6d03eb0171148596edee8ce01ea",
  "strippedsize": 216,
  "size": 216,
  "weight": 864,
  "tx": [
    {
      "txid": "17068cbe7f7ab0c5a9791ba0a1fc6a1b51cbdc5fbab4daeb9b8489e4a8681c71",
      "hash": "17068cbe7f7ab0c5a9791ba0a1fc6a1b51cbdc5fbab4daeb9b8489e4a8681c71",
      "version": 1,
      "size": 135,
      "vsize": 135,
      "weight": 540,
      "locktime": 0,
      "vin": [
        {
          "coinbase": "04ffff001d025b05",
          "sequence": 4294967295
        }
      ],
      "vout": [
        {
          "value": 50.0,
          "n": 0,
          "scriptPubKey": {
            "asm": "0439dc8fc21207470e31f187ae4c42386c07be241f7a52e6cc2c6703f73aada9ed06c99f3b9f3c6c0c150cd3dcdd292c14f24992667526a538bb57784704956efe OP_CHECKSIG",
            "desc": "pk(0439dc8fc21207470e31f187ae4c42386c07be241f7a52e6cc2c6703f73aada9ed06c99f3b9f3c6c0c150cd3dcdd292c14f24992667526a538bb57784704956efe)#wywl5thf",
            "hex": "410439dc8fc21207470e31f187ae4c42386c07be241f7a52e6cc2c6703f73aada9ed06c99f3b9f3c6c0c150cd3dcdd292c14f24992667526a538bb57784704956efeac",
            "type": "pubkey"
          }
        }
      ],
      "hex": "01000000010000000000000000000000000000000000000000000000000000000000000000ffffffff0804ffff001d025b05ffffffff0100f2052a0100000043410439dc8fc21207470e31f187ae4c42386c07be241f7a52e6cc2c6703f73aada9ed06c99f3b9f3c6c0c150cd3dcdd292c14f24992667526a538bb57784704956efeac00000000"
    }
  ]
}