{
  "hash": "000000004e9efc3cc310d41967d79cdc89ab3e2a527255a143b3f6cdf361ba57",
  "confirmations": 47734,
  "height": 5364,
  "version": 1,
  "versionHex": "00000001",
  "merkleroot": "016d4b67400b09dcfc7fb6e0584164d0fa8e1057ab5c7974fb27e107b01ebb20",
  "time": 1235414272,
  "mediantime": 1235410283,
  "nonce": 3131441189,
  "bits": "1d00ffff",
  "difficulty": 1,
  "chainwork": "000000000000000000000000000000000000000000000000000014f514f514f5",
  "nTx": 1,
  "previousblockhash": "00000000c3922a5f12e7c3230c641a36f5d3de183c4a3d92e40ec5757eeb7704",
  "nextblockhash": "00000000b6f02c88b41703959ecf1a4afff198b5ad78250a5520eefcf277a64c",
  "strippedsize": 216,
  "size": 216,
  "weight": 864,
  "tx": [
    {
      "txid": "016d4b67400b09dcfc7fb6e0584164d0fa8e1057ab5c7974fb27e107b01ebb20",
      "hash": "016d4b67400b09dcfc7fb6e0584164d0fa8e1057ab5c7974fb27e107b01ebb20",
      "version": 1,
      "size": 135,
      "vsize": 135,
      "weight": 540,
      "locktime": 0,
      "vin": [
        {
          "coinbase": "04ffff001d022003",
          "sequence": 4294967295
        }
      ],
      "vout": [
        {
          "value": 50.0,
          "n": 0,
          "scriptPubKey": {
            "asm": "046ced35123a6755c8bbecca4ef54829ba3df0116498fe7e290784ac8cc44b2bcabd451dfee525d83c0651e70dba16bf92c660d118551128bd70b589d29976b656 OP_CHECKSIG",
            "desc": "pk(046ced35123a6755c8bbecca4ef54829ba3df0116498fe7e290784ac8cc44b2bcabd451dfee525d83c0651e70dba16bf92c660d118551128bd70b589d29976b656)#rk6kctam",
            "hex": "41046ced35123a6755c8bbecca4ef54829ba3df0116498fe7e290784ac8cc44b2bcabd451dfee525d83c0651e70dba16bf92c660d118551128bd70b589d29976b656ac",
            "type": "pubkey"
          }
        }
      ],
      "hex": "01000000010000000000000000000000000000000000000000000000000000000000000000ffffffff0804ffff001d022003ffffffff0100f2052a010000004341046ced35123a6755c8bbecca4ef54829ba3df0116498fe7e290784ac8cc44b2bcabd451dfee525d83c0651e70dba16bf92c660d118551128bd70b589d29976b656ac00000000"
    }
  ]
}