{
  "hash": "000000000bc27e52b44cd7dec9b4fbcc20c3a3e5afcac46aeb5f6a31c4c71b18",
  "confirmations": 46536,
  "height": 6562,
  "version": 1,
  "versionHex": "00000001",
  "merkleroot": "9305a3788e44e2f49b9cc8b3f1a4a4e184191510a236176581c0e2830a2b1fc1",
  "time": 1236374678,
  "mediantime": 1236371026,
  "nonce": 16315185,
  "bits": "1d00ffff",
  "difficulty": 1,
  "chainwork": "000000000000000000000000000000000000000000000000000019a319a319a3",
  "nTx": 1,
  "previousblockhash": "00000000b3678464e2e88134700b20ac0e29b30e7368698083a6591127e123d4",
  "nextblockhash": "0000000041995328aff3a68c1d466f9c7906981f492235ff71964e06cf1053f2",
  "strippedsize": 216,
  "size": 216,
  "weight": 864,
  "tx": [
    {
      "txid": "9305a3788e44e2f49b9cc8b3f1a4a4e184191510a236176581c0e2830a2b1fc1",
      "hash": "9305a3788e44e2f49b9cc8b3f1a4a4e184191510a236176581c0e2830a2b1fc1",
      "version": 1,
      "size": 135,
      "vsize": 135,
      "weight": 540,
      "locktime": 0,
      "vin": [
        {
          "coinbase": "04ffff001d026c0b",
          "sequence": 4294967295
        }
      ],
      "vout": [
        {
          "value": 50.0,
          "n": 0,
          "scriptPubKey": {
            "asm": "04615d218af3902ab6830a2561a683d63c795169c28d7955b40746a7e6d58755029f0b1edc9cf54af8d1350997d186561f3aa125582f8fecd40fe0e073b6c60993 OP_CHECKSIG",
            "desc": "pk(04615d218af3902ab6830a2561a683d63c795169c28d7955b40746a7e6d58755029f0b1edc9cf54af8d1350997d186561f3aa125582f8fecd40fe0e073b6c60993)#u03sdfsp",
            "hex": "4104615d218af3902ab6830a2561a683d63c795169c28d7955b40746a7e6d58755029f0b1edc9cf54af8d1350997d186561f3aa125582f8fecd40fe0e073b6c60993ac",
            "type": "pubkey"
          }
        }
      ],
      "hex": "01000000010000000000000000000000000000000000000000000000000000000000000000ffffffff0804ffff001d026c0bffffffff0100f2052a01000000434104615d218af3902ab6830a2561a683d63c795169c28d7955b40746a7e6d58755029f0b1edc9cf54af8d1350997d186561f3aa125582f8fecd40fe0e073b6c60993ac00000000"
    }
  ]
}