{
  "hash": "00000000009b4b024ee5b5a011fa3a8c1d6d2155eb1822d2d3673f28160c943d",
  "confirmations": 47113,
  "height": 5985,
  "version": 1,
  "versionHex": "00000001",
  "merkleroot": "07842de3daedd52fc541dde8b2ad3f904dcd46fc23c32e3114c5bddb6c23f8bb",
  "time": 1235916422,
  "mediantime": 1235911385,
  "nonce": 4259265563,
  "bits": "1d00ffff",
  "difficulty": 1,
  "chainwork": "0000000000000000000000000000000000000000000000000000176217621762",
  "nTx": 1,
  "previousblockhash": "00000000b889b91e5a6c043366f29e31e9e9cf64b4e771dd4cab87562c2306d8",
  "nextblockhash": "00000000484cd82435395659547029931a6cc76d9947055ddd817bdad8ffab02",
  "strippedsize": 216,
  "size": 216,
  "weight": 864,
  "tx": [
    {
      "txid": "07842de3daedd52fc541dde8b2ad3f904dcd46fc23c32e3114c5bddb6c23f8bb",
      "hash": "07842de3daedd52fc541dde8b2ad3f904dcd46fc23c32e3114c5bddb6c23f8bb",
      "version": 1,
      "size": 135,
      "vsize": 135,
      "weight": 540,
      "locktime": 0,
      "vin": [
        {
          "coinbase": "04ffff001d02ae04",
          "sequence": 4294967295
        }
      ],
      "vout": [
        {
          "value": 50.0,
          "n": 0,
          "scriptPubKey": {
            "asm": "044f7bae068832cb843cd40d4a10203e2cbede8b6dcbcb57c737feb5b522589815353ede31deece5969aabd8dfe63396f418f5f5c7432eb4d3431101480498b274 OP_CHECKSIG",
            "desc": "pk(044f7bae068832cb843cd40d4a10203e2cbede8b6dcbcb57c737feb5b522589815353ede31deece5969aabd8dfe63396f418f5f5c7432eb4d3431101480498b274)#kl5rmvux",
            "hex": "41044f7bae068832cb843cd40d4a10203e2cbede8b6dcbcb57c737feb5b522589815353ede31deece5969aabd8dfe63396f418f5f5c7432eb4d3431101480498b274ac",
            "type": "pubkey"
          }
        }
      ],
      "hex": "01000000010000000000000000000000000000000000000000000000000000000000000000ffffffff0804ffff001d02ae04ffffffff0100f2052a010000004341044f7bae068832cb843cd40d4a10203e2cbede8b6dcbcb57c737feb5b522589815353ede31deece5969aabd8dfe63396f418f5f5c7432eb4d3431101480498b274ac00000000"
    }
  ]
}