{
  "hash": "0000000002fed247aa33b2afc84e3c0c6f25a410fafcd31d1e27b824e30a47f6",
  "confirmations": 50871,
  "height": 2227,
  "version": 1,
  "versionHex": "00000001",
  "merkleroot": "bd9c4758f14591a07c874fde4cfe35e2bbb9dee96956c63a7a7073c507cdd2a4",
  "time": 1233232637,
  "mediantime": 1233229465,
  "nonce": 2919433270,
  "bits": "1d00ffff",
  "difficulty": 1,
  "chainwork": "000000000000000000000000000000000000000000000000000008b408b408b4",
  "nTx": 1,
  "previousblockhash": "000000002ca17a39e2e284d22edca6bd7c0ac5dddea66a11bdcb5518c6b663d2",
  "nextblockhash": "00000000ec317a78d83bea685e0dda3c54a7961bf228619f7fcd98c7acaff834",
  "strippedsize": 216,
  "size": 216,
  "weight": 864,
  "tx": [
    {
      "txid": "bd9c4758f14591a07c874fde4cfe35e2bbb9dee96956c63a7a7073c507cdd2a4",
      "hash": "bd9c4758f14591a07c874fde4cfe35e2bbb9dee96956c63a7a7073c507cdd2a4",
      "version": 1,
      "size": 135,
      "vsize": 135,
      "weight": 540,
      "locktime": 0,
      "vin": [
        {
          "coinbase": "04ffff001d02bd00",
          "sequence": 4294967295
        }
      ],
      "vout": [
        {
          "value": 50.0,
          "n": 0,
          "scriptPubKey": {
            "asm": "046f3d1d6e00e83e0ba8750782264f9e4447550e53d1da60ff035d260075541d178c0991433e3528c00d79e9be6619fc39b4b94035bd06d12069b0251925048675 OP_CHECKSIG",
            "desc": "pk(046f3d1d6e00e83e0ba8750782264f9e4447550e53d1da60ff035d260075541d178c0991433e3528c00d79e9be6619fc39b4b94035bd06d12069b0251925048675)#2r0c07sn",
            "hex": "41046f3d1d6e00e83e0ba8750782264f9e4447550e53d1da60ff035d260075541d178c0991433e3528c00d79e9be6619fc39b4b94035bd06d12069b0251925048675ac",
            "type": "pubkey"
          }
        }
      ],
      "hex": "01000000010000000000000000000000000000000000000000000000000000000000000000ffffffff0804ffff001d02bd00ffffffff0100f2052a010000004341046f3d1d6e00e83e0ba8750782264f9e4447550e53d1da60ff035d260075541d178c0991433e3528c00d79e9be6619fc39b4b94035bd06d12069b0251925048675ac00000000"
    }
  ]
}