{
  "hash": "000000004249479797773a5b8551f3274fc2a8dc4b5c52260e68eb62fd6b4ba3",
  "confirmations": 47323,
  "height": 5775,
  "version": 1,
  "versionHex": "00000001",
  "merkleroot": "654b579af0d5c8204351780846741cfd7dffb65c5cfc9a791344d24629a2474c",
  "time": 1235741288,
  "mediantime": 1235737714,
  "nonce": 1508696600,
  "bits": "1d00ffff",
  "difficulty": 1,
  "chainwork": "0000000000000000000000000000000000000000000000000000169016901690",
  "nTx": 1,
  "previousblockhash": "00000000512ca848725a11c84b714fd2b6b2be71d28be2c2e5d5ffd456ddad57",
  "nextblockhash": "00000000056b9bb9760b7f3323c4e8699394b24f83dbb22eacf7759bba704eec",
  "strippedsize": 215,
  "size": 215,
  "weight": 860,
  "tx": [
    {
      "txid": "654b579af0d5c8204351780846741cfd7dffb65c5cfc9a791344d24629a2474c",
      "hash": "654b579af0d5c8204351780846741cfd7dffb65c5cfc9a791344d24629a2474c",
      "version": 1,
      "size": 134,
      "vsize": 134,
      "weight": 536,
      "locktime": 0,
      "vin": [
        {
          "coinbase": "04ffff001d015e",
          "sequence": 4294967295
        }
      ],
      "vout": [
        {
          "value": 50.0,
          "n": 0,
          "scriptPubKey": {
            "asm": "04856e596ba7329ae5857bb8ad5a2bbab93b9799bfb93121a4e4981be801b3a8a8403379af01679bef8dc8782fe5d1e71f7d4abf537236e75f1794db370dfb7b23 OP_CHECKSIG",
            "desc": "pk(04856e596ba7329ae5857bb8ad5a2bbab93b9799bfb93121a4e4981be801b3a8a8403379af01679bef8dc8782fe5d1e71f7d4abf537236e75f1794db370dfb7b23)#6d9lmcqg",
            "hex": "4104856e596ba7329ae5857bb8ad5a2bbab93b9799bfb93121a4e4981be801b3a8a8403379af01679bef8dc8782fe5d1e71f7d4abf537236e75f1794db370dfb7b23ac",
            "type": "pubkey"
          }
        }
      ],
      "hex": "01000000010000000000000000000000000000000000000000000000000000000000000000ffffffff0704ffff001d015effffffff0100f2052a01000000434104856e596ba7329ae5857bb8ad5a2bbab93b9799bfb93121a4e4981be801b3a8a8403379af01679bef8dc8782fe5d1e71f7d4abf537236e75f1794db370dfb7b23ac00000000"
    }
  ]
}