{
  "hash": "00000000f7790fbbf27448e0642cd52e2b8ec639e9ce75c337eb28531fa3fafb",
  "confirmations": 43458,
  "height": 9640,
  "version": 1,
  "versionHex": "00000001",
  "merkleroot": "d9ec6002505cd5c9575c96ee5bcc05a703514fdaec77b925dbb76c223401e145",
  "time": 1238731928,
  "mediantime": 1238728556,
  "nonce": 24131299,
  "bits": "1d00ffff",
  "difficulty": 1,
  "chainwork": "000000000000000000000000000000000000000000000000000025a925a925a9",
  "nTx": 1,
  "previousblockhash": "000000008a6131c86ada164f8046298cfd3fb266eb969cecb5f305bd6231f514",
  "nextblockhash": "00000000cab9c4794d97a881216c8c23035bb594b31aa9061e57a6c37877d60b",
  "strippedsize": 216,
  "size": 216,
  "weight": 864,
  "tx": [
    {
      "txid": "d9ec6002505cd5c9575c96ee5bcc05a703514fdaec77b925dbb76c223401e145",
      "hash": "d9ec6002505cd5c9575c96ee5bcc05a703514fdaec77b925dbb76c223401e145",
      "version": 1,
      "size": 135,
      "vsize": 135,
      "weight": 540,
      "locktime": 0,
      "vin": [
        {
          "coinbase": "04ffff001d02c400",
          "sequence": 4294967295
        }
      ],
      "vout": [
        {
          "value": 50.0,
          "n": 0,
          "scriptPubKey": {
            "asm": "04ed1cdeaf24d2f1406e464ef12364069d788369b9dcebdcc9e990ee95813c045f57606c43172542e394f211f2ff26518e0568e7ecc035222cbf298aebd0cdafd8 OP_CHECKSIG",
            "desc": "pk(04ed1cdeaf24d2f1406e464ef12364069d788369b9dcebdcc9e990ee95813c045f57606c43172542e394f211f2ff26518e0568e7ecc035222cbf298aebd0cdafd8)#tedqhuu8",
            "hex": "4104ed1cdeaf24d2f1406e464ef12364069d788369b9dcebdcc9e990ee95813c045f57606c43172542e394f211f2ff26518e0568e7ecc035222cbf298aebd0cdafd8ac",
            "type": "pubkey"
          }
        }
      ],
      "hex": "01000000010000000000000000000000000000000000000000000000000000000000000000ffffffff0804ffff001d02c400ffffffff0100f2052a01000000434104ed1cdeaf24d2f1406e464ef12364069d788369b9dcebdcc9e990ee95813c045f57606c43172542e394f211f2ff26518e0568e7ecc035222cbf298aebd0cdafd8ac00000000"
    }
  ]
}