{
  "hash": "000000009c0a448008a09a3e3f32f0927bf3fff9dfb53f0a5ca63a0393844c61",
  "confirmations": 46126,
  "height": 6972,
  "version": 1,
  "versionHex": "00000001",
  "merkleroot": "28f40e8f4e2a8fde1e39ccf8abd8d67db951d8b43b29641d9bb68d1eee7e3986",
  "time": 1236695290,
  "mediantime": 1236692301,
  "nonce": 315733298,
  "bits": "1d00ffff",
  "difficulty": 1,
  "chainwork": "00000000000000000000000000000000000000000000000000001b3d1b3d1b3d",
  "nTx": 1,
  "previousblockhash": "0000000099b9897953e0ce9ff781acde095228557b9fa095e5a51b7d2804ac16",
  "nextblockhash": "000000001704a08b0fc9d108a6f2b2cad455e5615fd3f0ed9e827093764ff8cc",
  "strippedsize": 215,
  "size": 215,
  "weight": 860,
  "tx": [
    {
      "txid": "28f40e8f4e2a8fde1e39ccf8abd8d67db951d8b43b29641d9bb68d1eee7e3986",
      "hash": "28f40e8f4e2a8fde1e39ccf8abd8d67db951d8b43b29641d9bb68d1eee7e3986",
      "version": 1,
      "size": 134,
      "vsize": 134,
      "weight": 536,
      "locktime": 0,
      "vin": [
        {
          "coinbase": "04ffff001d0139",
          "sequence": 4294967295
        }
      ],
      "vout": [
        {
          "value": 50.0,
          "n": 0,
          "scriptPubKey": {
            "asm": "049ffcfcb661ba8be32d8e02fce050c2a600d4f638a360ead982239b7fe8704fcf7de07bbef76293aae750c1b9b9f4e8468774128b7d91d9b8a25cc84427bef4e7 OP_CHECKSIG",
            "desc": "pk(049ffcfcb661ba8be32d8e02fce050c2a600d4f638a360ead982239b7fe8704fcf7de07bbef76293aae750c1b9b9f4e8468774128b7d91d9b8a25cc84427bef4e7)#kldtmsqe",
            "hex": "41049ffcfcb661ba8be32d8e02fce050c2a600d4f638a360ead982239b7fe8704fcf7de07bbef76293aae750c1b9b9f4e8468774128b7d91d9b8a25cc84427bef4e7ac",
            "type": "pubkey"
          }
        }
      ],
      "hex": "01000000010000000000000000000000000000000000000000000000000000000000000000ffffffff0704ffff001d0139ffffffff0100f2052a010000004341049ffcfcb661ba8be32d8e02fce050c2a600d4f638a360ead982239b7fe8704fcf7de07bbef76293aae750c1b9b9f4e8468774128b7d91d9b8a25cc84427bef4e7ac00000000"
    }
  ]
}