{
  "hash": "00000000dc94a1535f74f830a00f6fc3ded90465a64f2bc128a600e5009cc882",
  "confirmations": 47692,
  "height": 5406,
  "version": 1,
  "versionHex": "00000001",
  "merkleroot": "1f07760ab7d0a80bc62bf535d3082eb9cc5c29563c4cfba79289549accbe1423",
  "time": 1235444400,
  "mediantime": 1235441982,
  "nonce": 81290836,
  "bits": "1d00ffff",
  "difficulty": 1,
  "chainwork": "0000000000000000000000000000000000000000000000000000151f151f151f",
  "nTx": 1,
  "previousblockhash": "000000007d6eecd3105802bc01a92d204439bbb8aeb3a0e840661842bfabf70f",
  "nextblockhash": "0000000031b4908babc1ec2ab421b0c29b9008f060e84739031836f8ddf30255",
  "strippedsize": 216,
  "size": 216,
  "weight": 864,
  "tx": [
    {
      "txid": "1f07760ab7d0a80bc62bf535d3082eb9cc5c29563c4cfba79289549accbe1423",
      "hash": "1f07760ab7d0a80bc62bf535d3082eb9cc5c29563c4cfba79289549accbe1423",
      "version": 1,
      "size": 135,
      "vsize": 135,
      "weight": 540,
      "locktime": 0,
      "vin": [
        {
          "coinbase": "04ffff001d029e05",
          "sequence": 4294967295
        }
      ],
      "vout": [
        {
          "value": 50.0,
          "n": 0,
          "scriptPubKey": {
            "asm": "04096aebc6321ba2eb753c04a6c69200071e179b799d286569798e098b2f35438573ee95d356e3c00c449eecb9801411ed1eee1f8fbf39a4a499512678c35fadec OP_CHECKSIG",
            "desc": "pk(04096aebc6321ba2eb753c04a6c69200071e179b799d286569798e098b2f35438573ee95d356e3c00c449eecb9801411ed1eee1f8fbf39a4a499512678c35fadec)#dxp3ar0l",
            "hex": "4104096aebc6321ba2eb753c04a6c69200071e179b799d286569798e098b2f35438573ee95d356e3c00c449eecb9801411ed1eee1f8fbf39a4a499512678c35fadecac",
            "type": "pubkey"
          }
        }
      ],
      "hex": "01000000010000000000000000000000000000000000000000000000000000000000000000ffffffff0804ffff001d029e05ffffffff0100f2052a01000000434104096aebc6321ba2eb753c04a6c69200071e179b799d286569798e098b2f35438573ee95d356e3c00c449eecb9801411ed1eee1f8fbf39a4a499512678c35fadecac00000000"
    }
  ]
}