{
  "hash": "0000000005f5ec2942da73b6464c4b454f9fc9b0f2fbc5e4dc393efbdedc8180",
  "confirmations": 44186,
  "height": 8912,
  "version": 1,
  "versionHex": "00000001",
  "merkleroot": "24f96151b728a48fd6a6dce256305ec3c24af3acc4373a7c8708947569e15bbe",
  "time": 1238188017,
  "mediantime": 1238184363,
  "nonce": 1830500148,
  "bits": "1d00ffff",
  "difficulty": 1,
  "chainwork": "000000000000000000000000000000000000000000000000000022d122d122d1",
  "nTx": 1,
  "previousblockhash": "00000000e3d48ce58765479cc92d1c9e5bbf5210ec94949f60f8d42f402a0a45",
  "nextblockhash": "00000000ef594210a5a7902c7b5c399b049ca4233d3450c91cda55adfe2ffd1d",
  "strippedsize": 216,
  "size": 216,
  "weight": 864,
  "tx": [
    {
      "txid": "24f96151b728a48fd6a6dce256305ec3c24af3acc4373a7c8708947569e15bbe",
      "hash": "24f96151b728a48fd6a6dce256305ec3c24af3acc4373a7c8708947569e15bbe",
      "version": 1,
      "size": 135,
      "vsize": 135,
      "weight": 540,
      "locktime": 0,
      "vin": [
        {
          "coinbase": "04ffff001d02c404",
          "sequence": 4294967295
        }
      ],
      "vout": [
        {
          "value": 50.0,
          "n": 0,
          "scriptPubKey": {
            "asm": "04b52a066be927575e8f41a079af296f4118c3a149aa34ed3dc229618957b0b3036515a148bdb0462a75fe0e4b8987bd294fa1471bd274da42e739afbbcd4a3139 OP_CHECKSIG",
            "desc": "pk(04b52a066be927575e8f41a079af296f4118c3a149aa34ed3dc229618957b0b3036515a148bdb0462a75fe0e4b8987bd294fa1471bd274da42e739afbbcd4a3139)#wzj2cky5",
            "hex": "4104b52a066be927575e8f41a079af296f4118c3a149aa34ed3dc229618957b0b3036515a148bdb0462a75fe0e4b8987bd294fa1471bd274da42e739afbbcd4a3139ac",
            "type": "pubkey"
          }
        }
      ],
      "hex": "01000000010000000000000000000000000000000000000000000000000000000000000000ffffffff0804ffff001d02c404ffffffff0100f2052a01000000434104b52a066be927575e8f41a079af296f4118c3a149aa34ed3dc229618957b0b3036515a148bdb0462a75fe0e4b8987bd294fa1471bd274da42e739afbbcd4a3139ac00000000"
    }
  ]
}