{
  "hash": "000000005c8cbe7cd4c8a611f25ea0e30572cab1b015354d1e60a484e68a22a7",
  "confirmations": 49270,
  "height": 3828,
  "version": 1,
  "versionHex": "00000001",
  "merkleroot": "41a0237781d13c5745d2d52ddf6717b094064f06a267d838afad2d5547c6bda9",
  "time": 1234322028,
  "mediantime": 1234318530,
  "nonce": 83533636,
  "bits": "1d00ffff",
  "difficulty": 1,
  "chainwork": "00000000000000000000000000000000000000000000000000000ef50ef50ef5",
  "nTx": 1,
  "previousblockhash": "0000000041ac1395b1611414055e7fb3940005024ce34a1fabe05fbd90b51535",
  "nextblockhash": "0000000052514003bb78e162845f470668401104a988658e64289406f10df80e",
  "strippedsize": 215,
  "size": 215,
  "weight": 860,
  "tx": [
    {
      "txid": "41a0237781d13c5745d2d52ddf6717b094064f06a267d838afad2d5547c6bda9",
      "hash": "41a0237781d13c5745d2d52ddf6717b094064f06a267d838afad2d5547c6bda9",
      "version": 1,
      "size": 134,
      "vsize": 134,
      "weight": 536,
      "locktime": 0,
      "vin": [
        {
          "coinbase": "04ffff001d0105",
          "sequence": 4294967295
        }
      ],
      "vout": [
        {
          "value": 50.0,
          "n": 0,
          "scriptPubKey": {
            "asm": "048f3ac09b0484d7e92e728c52b0c275f738781caebd34a5983543fdf8f34740fac9b16d4df78e90840f489932523f145edde80055af69e50f172ce72e1a4aaada OP_CHECKSIG",
            "desc": "pk(048f3ac09b0484d7e92e728c52b0c275f738781caebd34a5983543fdf8f34740fac9b16d4df78e90840f489932523f145edde80055af69e50f172ce72e1a4aaada)#07jjh7uj",
            "hex": "41048f3ac09b0484d7e92e728c52b0c275f738781caebd34a5983543fdf8f34740fac9b16d4df78e90840f489932523f145edde80055af69e50f172ce72e1a4aaadaac",
            "type": "pubkey"
          }
        }
      ],
      "hex": "01000000010000000000000000000000000000000000000000000000000000000000000000ffffffff0704ffff001d0105ffffffff0100f2052a010000004341048f3ac09b0484d7e92e728c52b0c275f738781caebd34a5983543fdf8f34740fac9b16d4df78e90840f489932523f145edde80055af69e50f172ce72e1a4aaadaac00000000"
    }
  ]
}