{
  "hash": "000000004216f1854ce6d125d77cc66556f4106323c5cd7b96f3da8d3425d616",
  "confirmations": 50682,
  "height": 2416,
  "version": 1,
  "versionHex": "00000001",
  "merkleroot": "1bd11d7f069a23f5dcab7b1c6fe4b193d1af3754f8d3915017a4b699365ad8a8",
  "time": 1233367995,
  "mediantime": 1233362855,
  "nonce": 1085417246,
  "bits": "1d00ffff",
  "difficulty": 1,
  "chainwork": "0000000000000000000000000000000000000000000000000000097109710971",
  "nTx": 1,
  "previousblockhash": "00000000b1487a2d8b73c4396e3e381d0602df19b264a7103639d303a5ee2cb7",
  "nextblockhash": "00000000c0969c1775dc2efb67f9461039750c47d149665b5754d4ffe09c9df4",
  "strippedsize": 215,
  "size": 215,
  "weight": 860,
  "tx": [
    {
      "txid": "1bd11d7f069a23f5dcab7b1c6fe4b193d1af3754f8d3915017a4b699365ad8a8",
      "hash": "1bd11d7f069a23f5dcab7b1c6fe4b193d1af3754f8d3915017a4b699365ad8a8",
      "version": 1,
      "size": 134,
      "vsize": 134,
      "weight": 536,
      "locktime": 0,
      "vin": [
        {
          "coinbase": "04ffff001d0106",
          "sequence": 4294967295
        }
      ],
      "vout": [
        {
          "value": 50.0,
          "n": 0,
          "scriptPubKey": {
            "asm": "04e6f5f1c00a6aea8bbdf4471448ca8f77641c2e8fe3b515f3ab232bb1a028fa6503aae9235be4a16c8cfbad406bec13531c333cdbd420eeb5e4ab47086b0e74e5 OP_CHECKSIG",
            "desc": "pk(04e6f5f1c00a6aea8bbdf4471448ca8f77641c2e8fe3b515f3ab232bb1a028fa6503aae9235be4a16c8cfbad406bec13531c333cdbd420eeb5e4ab47086b0e74e5)#hgtyalnw",
            "hex": "4104e6f5f1c00a6aea8bbdf4471448ca8f77641c2e8fe3b515f3ab232bb1a028fa6503aae9235be4a16c8cfbad406bec13531c333cdbd420eeb5e4ab47086b0e74e5ac",
            "type": "pubkey"
          }
        }
      ],
      "hex": "01000000010000000000000000000000000000000000000000000000000000000000000000ffffffff0704ffff001d0106ffffffff0100f2052a01000000434104e6f5f1c00a6aea8bbdf4471448ca8f77641c2e8fe3b515f3ab232bb1a028fa6503aae9235be4a16c8cfbad406bec13531c333cdbd420eeb5e4ab47086b0e74e5ac00000000"
    }
  ]
}