{
  "hash": "0000000054487811fc4ff7a95be738aa5ad9320c394c482b27c0da28b227ad5d",
  "confirmations": 52045,
  "height": 182,
  "version": 1,
  "versionHex": "00000001",
  "merkleroot": "2f0f017f1991a1393798ff851bfc02ce7ba3f5e066815ed3104afb4bd3a0c230",
  "time": 1231740736,
  "mediantime": 1231736557,
  "nonce": 2662131500,
  "bits": "1d00ffff",
  "difficulty": 1,
  "chainwork": "000000000000000000000000000000000000000000000000000000b700b700b7",
  "nTx": 2,
  "previousblockhash": "00000000dc55860c8a29c58d45209318fa9e9dc2c1833a7226d86bc465afc6e5",
  "nextblockhash": "00000000f46e513f038baf6f2d9a95b2a28d8a6c985bcf24b9e07f0f63a29888",
  "strippedsize": 490,
  "size": 490,
  "weight": 1960,
  "tx": [
    {
      "txid": "09e5c4a5a089928bbe368cd0f2b09abafb3ebf328cd0d262d06ec35bdda1077f",
      "hash": "09e5c4a5a089928bbe368cd0f2b09abafb3ebf328cd0d262d06ec35bdda1077f",
      "version": 1,
      "size": 134,
      "vsize": 134,
      "weight": 536,
      "locktime": 0,
      "vin": [
        {
          "coinbase": "04ffff001d0129",
          "sequence": 4294967295
        }
      ],
      "vout": [
        {
          "value": 50.0,
          "n": 0,
          "scriptPubKey": {
            "asm": "04b10dd882c04204481116bd4b41510e98c05a869af51376807341fc7e3892c9034835954782295784bfc763d9736ed4122c8bb13d6e02c0882cb7502ce1ae8287 OP_CHECKSIG",
            "desc": "pk(04b10dd882c04204481116bd4b41510e98c05a869af51376807341fc7e3892c9034835954782295784bfc763d9736ed4122c8bb13d6e02c0882cb7502ce1ae8287)#vmgvugf5",
            "hex": "4104b10dd882c04204481116bd4b41510e98c05a869af51376807341fc7e3892c9034835954782295784bfc763d9736ed4122c8bb13d6e02c0882cb7502ce1ae8287ac",
            "type": "pubkey"
          }
        }
      ],
      "hex": "01000000010000000000000000000000000000000000000000000000000000000000000000ffffffff0704ffff001d0129ffffffff0100f2052a01000000434104b10dd882c04204481116bd4b41510e98c05a869af51376807341fc7e3892c9034835954782295784bfc763d9736ed4122c8bb13d6e02c0882cb7502ce1ae8287ac00000000"
    },
    {
      "txid": "591e91f809d716912ca1d4a9295e70c3e78bab077683f79350f101da64588073",
      "hash": "591e91f809d716912ca1d4a9295e70c3e78bab077683f79350f101da64588073",
      "version": 1,
      "size": 275,
      "vsize": 275,
      "weight": 1100,
      "locktime": 0,
      "vin": [
        {
          "txid": "a16f3ce4dd5deb92d98ef5cf8afeaf0775ebca408f708b2146c4fb42b41e14be",
          "vout": 1,
          "scriptSig": {
            "asm": "304402201f27e51caeb9a0988a1e50799ff0af94a3902403c3ad4068b063e7b4d1b0a76702206713f69bd344058b0dee55a9798759092d0916dbbc3e592fee43060005ddc174[ALL]",
            "hex": "47304402201f27e51caeb9a0988a1e50799ff0af94a3902403c3ad4068b063e7b4d1b0a76702206713f69bd344058b0dee55a9798759092d0916dbbc3e592fee43060005ddc17401"
          },
          "sequence": 4294967295
        }
      ],
      "vout": [
        {
          "value": 1.0,
          "n": 0,
          "scriptPubKey": {
            "asm": "0401518fa1d1e1e3e162852d68d9be1c0abad5e3d6297ec95f1f91b909dc1afe616d6876f92918451ca387c4387609ae1a895007096195a824baf9c38ea98c09c3 OP_CHECKSIG",
            "desc": "pk(0401518fa1d1e1e3e162852d68d9be1c0abad5e3d6297ec95f1f91b909dc1afe616d6876f92918451ca387c4387609ae1a895007096195a824baf9c38ea98c09c3)#05e9u9yr",
            "hex": "410401518fa1d1e1e3e162852d68d9be1c0abad5e3d6297ec95f1f91b909dc1afe616d6876f92918451ca387c4387609ae1a895007096195a824baf9c38ea98c09c3ac",
            "type": "pubkey"
          }
        },
        {
          "value": 29.0,
          "n": 1,
          "scriptPubKey": {
            "asm": "0411db93e1dcdb8a016b49840f8c53bc1eb68a382e97b1482ecad7b148a6909a5cb2e0eaddfb84ccf9744464f82e160bfa9b8b64f9d4c03f999b8643f656b412a3 OP_CHECKSIG",
            "desc": "pk(0411db93e1dcdb8a016b49840f8c53bc1eb68a382e97b1482ecad7b148a6909a5cb2e0eaddfb84ccf9744464f82e160bfa9b8b64f9d4c03f999b8643f656b412a3)#u7qfa49l",
            "hex": "410411db93e1dcdb8a016b49840f8c53bc1eb68a382e97b1482ecad7b148a6909a5cb2e0eaddfb84ccf9744464f82e160bfa9b8b64f9d4c03f999b8643f656b412a3ac",
            "type": "pubkey"
          }
        }
      ],
      "fee": 0.0,
      "hex": "0100000001be141eb442fbc446218b708f40caeb7507affe8acff58ed992eb5ddde43c6fa1010000004847304402201f27e51caeb9a0988a1e50799ff0af94a3902403c3ad4068b063e7b4d1b0a76702206713f69bd344058b0dee55a9798759092d0916dbbc3e592fee43060005ddc17401ffffffff0200e1f5050000000043410401518fa1d1e1e3e162852d68d9be1c0abad5e3d6297ec95f1f91b909dc1afe616d6876f92918451ca387c4387609ae1a895007096195a824baf9c38ea98c09c3ac007ddaac0000000043410411db93e1dcdb8a016b49840f8c53bc1eb68a382e97b1482ecad7b148a6909a5cb2e0eaddfb84ccf9744464f82e160bfa9b8b64f9d4c03f999b8643f656b412a3ac00000000"
    }
  ]
}