{
  "hash": "00000000e5a590bf0cad56ef68b0f9a276c48d15f34c03892a0ad47aa918e8f9",
  "confirmations": 43917,
  "height": 9181,
  "version": 1,
  "versionHex": "00000001",
  "merkleroot": "ba873fa37b6185c749bb10a42430f0b72ce76ca420398197845b1542120ddb90",
  "time": 1238386691,
  "mediantime": 1238383984,
  "nonce": 4214890542,
  "bits": "1d00ffff",
  "difficulty": 1,
  "chainwork": "000000000000000000000000000000000000000000000000000023de23de23de",
  "nTx": 1,
  "previousblockhash": "000000006214c7719ee0a5e5805c6fd301df2f47f676156998a3ece913defc22",
  "nextblockhash": "00000000fb64b966746c14a84f563b59adc1202b65134d22c49254a688becccc",
  "strippedsize": 216,
  "size": 216,
  "weight": 864,
  "tx": [
    {
      "txid": "ba873fa37b6185c749bb10a42430f0b72ce76ca420398197845b1542120ddb90",
      "hash": "ba873fa37b6185c749bb10a42430f0b72ce76ca420398197845b1542120ddb90",
      "version": 1,
      "size": 135,
      "vsize": 135,
      "weight": 540,
      "locktime": 0,
      "vin": [
        {
          "coinbase": "04ffff001d02e509",
          "sequence": 4294967295
        }
      ],
      "vout": [
        {
          "value": 50.0,
          "n": 0,
          "scriptPubKey": {
            "asm": "044fe11113e978ef3bd1ce7b71a903f85e81d993ebd1be0af7fd3c966edc0686dd35fc414763e1331ee9f5c089b4e56a6473e029550d69637cf5a93ac99662e9da OP_CHECKSIG",
            "desc": "pk(044fe11113e978ef3bd1ce7b71a903f85e81d993ebd1be0af7fd3c966edc0686dd35fc414763e1331ee9f5c089b4e56a6473e029550d69637cf5a93ac99662e9da)#ylddpr7d",
            "hex": "41044fe11113e978ef3bd1ce7b71a903f85e81d993ebd1be0af7fd3c966edc0686dd35fc414763e1331ee9f5c089b4e56a6473e029550d69637cf5a93ac99662e9daac",
            "type": "pubkey"
          }
        }
      ],
      "hex": "01000000010000000000000000000000000000000000000000000000000000000000000000ffffffff0804ffff001d02e509ffffffff0100f2052a010000004341044fe11113e978ef3bd1ce7b71a903f85e81d993ebd1be0af7fd3c966edc0686dd35fc414763e1331ee9f5c089b4e56a6473e029550d69637cf5a93ac99662e9daac00000000"
    }
  ]
}