{
  "hash": "00000000a821453227c850a97c9cffe12d358a894901bc46d8140662caf491ff",
  "confirmations": 43242,
  "height": 9856,
  "version": 1,
  "versionHex": "00000001",
  "merkleroot": "1b58526bd996a130c5fc91a590bb861bab01b5bc9ae918be11f3bdd9bf712dcb",
  "time": 1238897271,
  "mediantime": 1238892789,
  "nonce": 316002091,
  "bits": "1d00ffff",
  "difficulty": 1,
  "chainwork": "0000000000000000000000000000000000000000000000000000268126812681",
  "nTx": 1,
  "previousblockhash": "000000006d47c68cd89311254e5a4ab94a3786761e9b95aa08c493c6b3198b7f",
  "nextblockhash": "00000000f83aa109674b00dde4a5f408eb2914bd4d33dde59dc760083a83c1e0",
  "strippedsize": 216,
  "size": 216,
  "weight": 864,
  "tx": [
    {
      "txid": "1b58526bd996a130c5fc91a590bb861bab01b5bc9ae918be11f3bdd9bf712dcb",
      "hash": "1b58526bd996a130c5fc91a590bb861bab01b5bc9ae918be11f3bdd9bf712dcb",
      "version": 1,
      "size": 135,
      "vsize": 135,
      "weight": 540,
      "locktime": 0,
      "vin": [
        {
          "coinbase": "04ffff001d02dd00",
          "sequence": 4294967295
        }
      ],
      "vout": [
        {
          "value": 50.0,
          "n": 0,
          "scriptPubKey": {
            "asm": "04ffa8d502a3a76585a8ac8bcab8c445b62e68a5f8e60c965c9f43ef24b00922e64691c17aba8ee2e2c05d86adc62263d6a46b665be78cacbc4b5d1e7b5593262f OP_CHECKSIG",
            "desc": "pk(04ffa8d502a3a76585a8ac8bcab8c445b62e68a5f8e60c965c9f43ef24b00922e64691c17aba8ee2e2c05d86adc62263d6a46b665be78cacbc4b5d1e7b5593262f)#75rzypdp",
            "hex": "4104ffa8d502a3a76585a8ac8bcab8c445b62e68a5f8e60c965c9f43ef24b00922e64691c17aba8ee2e2c05d86adc62263d6a46b665be78cacbc4b5d1e7b5593262fac",
            "type": "pubkey"
          }
        }
      ],
      "hex": "01000000010000000000000000000000000000000000000000000000000000000000000000ffffffff0804ffff001d02dd00ffffffff0100f2052a01000000434104ffa8d502a3a76585a8ac8bcab8c445b62e68a5f8e60c965c9f43ef24b00922e64691c17aba8ee2e2c05d86adc62263d6a46b665be78cacbc4b5d1e7b5593262fac00000000"
    }
  ]
}