{
  "hash": "000000005d33fab13686ef8117ed7302cf56310c2246455e4c704d2b4ba111bf",
  "confirmations": 47526,
  "height": 5572,
  "version": 1,
  "versionHex": "00000001",
  "merkleroot": "0a863a312660ffb36f5c4617e6ce0742a5e4e5c45de1251589b27f60f064e6da",
  "time": 1235580066,
  "mediantime": 1235576214,
  "nonce": 533366823,
  "bits": "1d00ffff",
  "difficulty": 1,
  "chainwork": "000000000000000000000000000000000000000000000000000015c515c515c5",
  "nTx": 1,
  "previousblockhash": "0000000035502bf9fcaaff088b8434511c180d9edac705bf33c90fce2176d4e6",
  "nextblockhash": "00000000b669d0b14d368ad802dafa51d94ce86a30cbe1e1c9a58a412ce478c9",
  "strippedsize": 216,
  "size": 216,
  "weight": 864,
  "tx": [
    {
      "txid": "0a863a312660ffb36f5c4617e6ce0742a5e4e5c45de1251589b27f60f064e6da",
      "hash": "0a863a312660ffb36f5c4617e6ce0742a5e4e5c45de1251589b27f60f064e6da",
      "version": 1,
      "size": 135,
      "vsize": 135,
      "weight": 540,
      "locktime": 0,
      "vin": [
        {
          "coinbase": "04ffff001d022607",
          "sequence": 4294967295
        }
      ],
      "vout": [
        {
          "value": 50.0,
          "n": 0,
          "scriptPubKey": {
            "asm": "04b0786ace08b2f0e563a447462856c9ac86b22f7ee03d900fcf74a281afd7ee30ff1b853d03bb483b2222cd6d66e10fdc1b44fc63a297686203e77d6fe369a28d OP_CHECKSIG",
            "desc": "pk(04b0786ace08b2f0e563a447462856c9ac86b22f7ee03d900fcf74a281afd7ee30ff1b853d03bb483b2222cd6d66e10fdc1b44fc63a297686203e77d6fe369a28d)#m4nvrpc0",
            "hex": "4104b0786ace08b2f0e563a447462856c9ac86b22f7ee03d900fcf74a281afd7ee30ff1b853d03bb483b2222cd6d66e10fdc1b44fc63a297686203e77d6fe369a28dac",
            "type": "pubkey"
          }
        }
      ],
      "hex": "01000000010000000000000000000000000000000000000000000000000000000000000000ffffffff0804ffff001d022607ffffffff0100f2052a01000000434104b0786ace08b2f0e563a447462856c9ac86b22f7ee03d900fcf74a281afd7ee30ff1b853d03bb483b2222cd6d66e10fdc1b44fc63a297686203e77d6fe369a28dac00000000"
    }
  ]
}