{
  "hash": "00000000778ec9dc56936fd5a0f40a87453a6d2477ae0196e5aced945cb6507f",
  "confirmations": 46716,
  "height": 6382,
  "version": 1,
  "versionHex": "00000001",
  "merkleroot": "9044a3fdf72180bb7b3cc631db097aecfaad4bef63f297d1c7f126d9f71f6184",
  "time": 1236243483,
  "mediantime": 1236240393,
  "nonce": 1058252291,
  "bits": "1d00ffff",
  "difficulty": 1,
  "chainwork": "000000000000000000000000000000000000000000000000000018ef18ef18ef",
  "nTx": 1,
  "previousblockhash": "00000000ae95c8f2381a8af1d879e8d123151c0e77445c41e884b583ca453471",
  "nextblockhash": "00000000cb90c4ffd5137b447ed860afaf7c3640ef5ecd1e205d1d3776f3fa63",
  "strippedsize": 216,
  "size": 216,
  "weight": 864,
  "tx": [
    {
      "txid": "9044a3fdf72180bb7b3cc631db097aecfaad4bef63f297d1c7f126d9f71f6184",
      "hash": "9044a3fdf72180bb7b3cc631db097aecfaad4bef63f297d1c7f126d9f71f6184",
      "version": 1,
      "size": 135,
      "vsize": 135,
      "weight": 540,
      "locktime": 0,
      "vin": [
        {
          "coinbase": "04ffff001d028901",
          "sequence": 4294967295
        }
      ],
      "vout": [
        {
          "value": 50.0,
          "n": 0,
          "scriptPubKey": {
            "asm": "0437ee4ce20c0287719159fb58c1064f64c9315f0e417d000450bd4b45fcb50d7faea9a11565e884eac15bdb579b1ab95ca228ae74f852cca6a48fdd5fa0079bdf OP_CHECKSIG",
            "desc": "pk(0437ee4ce20c0287719159fb58c1064f64c9315f0e417d000450bd4b45fcb50d7faea9a11565e884eac15bdb579b1ab95ca228ae74f852cca6a48fdd5fa0079bdf)#7w2a7h93",
            "hex": "410437ee4ce20c0287719159fb58c1064f64c9315f0e417d000450bd4b45fcb50d7faea9a11565e884eac15bdb579b1ab95ca228ae74f852cca6a48fdd5fa0079bdfac",
            "type": "pubkey"
          }
        }
      ],
      "hex": "01000000010000000000000000000000000000000000000000000000000000000000000000ffffffff0804ffff001d028901ffffffff0100f2052a0100000043410437ee4ce20c0287719159fb58c1064f64c9315f0e417d000450bd4b45fcb50d7faea9a11565e884eac15bdb579b1ab95ca228ae74f852cca6a48fdd5fa0079bdfac00000000"
    }
  ]
}