{
  "hash": "000000005795a59fb1b1ec304af65a747a73bcd66c6200286392e8c47375a924",
  "confirmations": 47118,
  "height": 5980,
  "version": 1,
  "versionHex": "00000001",
  "merkleroot": "e85584b1a3b134ab4644350fd3a5ef07078e644e9d51553eed6574af443d5677",
  "time": 1235911385,
  "mediantime": 1235907726,
  "nonce": 1438236446,
  "bits": "1d00ffff",
  "difficulty": 1,
  "chainwork": "0000000000000000000000000000000000000000000000000000175d175d175d",
  "nTx": 1,
  "previousblockhash": "00000000862e368008109249209ab82652b294d45f69f98b670fd78ac6eaabbd",
  "nextblockhash": "00000000074e3037bb19046e7afc5f88418e6d188477615dbce76877b2e639b8",
  "strippedsize": 216,
  "size": 216,
  "weight": 864,
  "tx": [
    {
      "txid": "e85584b1a3b134ab4644350fd3a5ef07078e644e9d51553eed6574af443d5677",
      "hash": "e85584b1a3b134ab4644350fd3a5ef07078e644e9d51553eed6574af443d5677",
      "version": 1,
      "size": 135,
      "vsize": 135,
      "weight": 540,
      "locktime": 0,
      "vin": [
        {
          "coinbase": "04ffff001d028f04",
          "sequence": 4294967295
        }
      ],
      "vout": [
        {
          "value": 50.0,
          "n": 0,
          "scriptPubKey": {
            "asm": "046f56b691a022f92801df8d2d0c98aa147b07687ea76c0321bbe4b4a5668eb77d7a2b1731e7f2c74a0a44fec18c3dbdbbb6c74bb2f448562a2b194e542a1443f7 OP_CHECKSIG",
            "desc": "pk(046f56b691a022f92801df8d2d0c98aa147b07687ea76c0321bbe4b4a5668eb77d7a2b1731e7f2c74a0a44fec18c3dbdbbb6c74bb2f448562a2b194e542a1443f7)#xqqzx5vu",
            "hex": "41046f56b691a022f92801df8d2d0c98aa147b07687ea76c0321bbe4b4a5668eb77d7a2b1731e7f2c74a0a44fec18c3dbdbbb6c74bb2f448562a2b194e542a1443f7ac",
            "type": "pubkey"
          }
        }
      ],
      "hex": "01000000010000000000000000000000000000000000000000000000000000000000000000ffffffff0804ffff001d028f04ffffffff0100f2052a010000004341046f56b691a022f92801df8d2d0c98aa147b07687ea76c0321bbe4b4a5668eb77d7a2b1731e7f2c74a0a44fec18c3dbdbbb6c74bb2f448562a2b194e542a1443f7ac00000000"
    }
  ]
}