{
  "hash": "00000000be893e7b26be5ad696a8a3a13772e0362530dc7c7149ffd13348bbdf",
  "confirmations": 44564,
  "height": 8534,
  "version": 1,
  "versionHex": "00000001",
  "merkleroot": "5549a11aa79dc072886bb25a43f208549ef9fa42c037cd96c6970af164c35477",
  "time": 1237898418,
  "mediantime": 1237896244,
  "nonce": 531762228,
  "bits": "1d00ffff",
  "difficulty": 1,
  "chainwork": "0000000000000000000000000000000000000000000000000000215721572157",
  "nTx": 1,
  "previousblockhash": "000000008d608e153af9dfa3b67d10ba42e08083ca45cc40788b97398ed73632",
  "nextblockhash": "00000000f813a8083b5736a6a509ab49dba5d3bdb08da5650522d7817845b168",
  "strippedsize": 216,
  "size": 216,
  "weight": 864,
  "tx": [
    {
      "txid": "5549a11aa79dc072886bb25a43f208549ef9fa42c037cd96c6970af164c35477",
      "hash": "5549a11aa79dc072886bb25a43f208549ef9fa42c037cd96c6970af164c35477",
      "version": 1,
      "size": 135,
      "vsize": 135,
      "weight": 540,
      "locktime": 0,
      "vin": [
        {
          "coinbase": "04ffff001d024d08",
          "sequence": 4294967295
        }
      ],
      "vout": [
        {
          "value": 50.0,
          "n": 0,
          "scriptPubKey": {
            "asm": "04d5b6733408763c8e41b15766f9779fb8ae9d2537a86c62bad67bdb0aa20034b5d86cb6e0308cea7f9b6fdf2ebef6e23618e385df5d4df206dac1004845c8f081 OP_CHECKSIG",
            "desc": "pk(04d5b6733408763c8e41b15766f9779fb8ae9d2537a86c62bad67bdb0aa20034b5d86cb6e0308cea7f9b6fdf2ebef6e23618e385df5d4df206dac1004845c8f081)#z2r6asqt",
            "hex": "4104d5b6733408763c8e41b15766f9779fb8ae9d2537a86c62bad67bdb0aa20034b5d86cb6e0308cea7f9b6fdf2ebef6e23618e385df5d4df206dac1004845c8f081ac",
            "type": "pubkey"
          }
        }
      ],
      "hex": "01000000010000000000000000000000000000000000000000000000000000000000000000ffffffff0804ffff001d024d08ffffffff0100f2052a01000000434104d5b6733408763c8e41b15766f9779fb8ae9d2537a86c62bad67bdb0aa20034b5d86cb6e0308cea7f9b6fdf2ebef6e23618e385df5d4df206dac1004845c8f081ac00000000"
    }
  ]
}