{
  "hash": "00000000e381c7ded1f09fcfb6d3b132ec39fc29696f82b45caa719645bc4939",
  "confirmations": 47521,
  "height": 5577,
  "version": 1,
  "versionHex": "00000001",
  "merkleroot": "7a1106d84b63fb389ab6a4c5834e1050c422b559d974e99a28a115a2b001962d",
  "time": 1235583894,
  "mediantime": 1235580066,
  "nonce": 1231947273,
  "bits": "1d00ffff",
  "difficulty": 1,
  "chainwork": "000000000000000000000000000000000000000000000000000015ca15ca15ca",
  "nTx": 1,
  "previousblockhash": "0000000020f5ab646eb6c6c0edbcedbbd92b64300217cc9d7297cffc0ec567d3",
  "nextblockhash": "000000005d22e55aa66ce06913bb76074424422fd40e27306ab103bdbd767210",
  "strippedsize": 216,
  "size": 216,
  "weight": 864,
  "tx": [
    {
      "txid": "7a1106d84b63fb389ab6a4c5834e1050c422b559d974e99a28a115a2b001962d",
      "hash": "7a1106d84b63fb389ab6a4c5834e1050c422b559d974e99a28a115a2b001962d",
      "version": 1,
      "size": 135,
      "vsize": 135,
      "weight": 540,
      "locktime": 0,
      "vin": [
        {
          "coinbase": "04ffff001d023507",
          "sequence": 4294967295
        }
      ],
      "vout": [
        {
          "value": 50.0,
          "n": 0,
          "scriptPubKey": {
            "asm": "04ac057b483adbffb46460b77023965a1a2ec0f88834681f607d683b3aec52360599584a26e7fc67d966d1b03885e3ba11c6f65d8ec283f6228eed317d3c0f3207 OP_CHECKSIG",
            "desc": "pk(04ac057b483adbffb46460b77023965a1a2ec0f88834681f607d683b3aec52360599584a26e7fc67d966d1b03885e3ba11c6f65d8ec283f6228eed317d3c0f3207)#9a0hdhmw",
            "hex": "4104ac057b483adbffb46460b77023965a1a2ec0f88834681f607d683b3aec52360599584a26e7fc67d966d1b03885e3ba11c6f65d8ec283f6228eed317d3c0f3207ac",
            "type": "pubkey"
          }
        }
      ],
      "hex": "01000000010000000000000000000000000000000000000000000000000000000000000000ffffffff0804ffff001d023507ffffffff0100f2052a01000000434104ac057b483adbffb46460b77023965a1a2ec0f88834681f607d683b3aec52360599584a26e7fc67d966d1b03885e3ba11c6f65d8ec283f6228eed317d3c0f3207ac00000000"
    }
  ]
}