{
  "hash": "000000002f783e487717e95d7a2566f7665d97dece03a38f76ba556e9364df32",
  "confirmations": 45387,
  "height": 7711,
  "version": 1,
  "versionHex": "00000001",
  "merkleroot": "9d230de8acab0e5c9d628cf92b8b64228542b9c2e4565bc5cf024cd8bd116ef5",
  "time": 1237246037,
  "mediantime": 1237243158,
  "nonce": 1624893730,
  "bits": "1d00ffff",
  "difficulty": 1,
  "chainwork": "00000000000000000000000000000000000000000000000000001e201e201e20",
  "nTx": 1,
  "previousblockhash": "00000000bd10d59d9304901303f9cd0f1e72cf98c6d751f91fcd11838f924e61",
  "nextblockhash": "00000000a1c6b3a12c162d08014b97781715cca86992f7e44df51b96afdd8b79",
  "strippedsize": 216,
  "size": 216,
  "weight": 864,
  "tx": [
    {
      "txid": "9d230de8acab0e5c9d628cf92b8b64228542b9c2e4565bc5cf024cd8bd116ef5",
      "hash": "9d230de8acab0e5c9d628cf92b8b64228542b9c2e4565bc5cf024cd8bd116ef5",
      "version": 1,
      "size": 135,
      "vsize": 135,
      "weight": 540,
      "locktime": 0,
      "vin": [
        {
          "coinbase": "04ffff001d025504",
          "sequence": 4294967295
        }
      ],
      "vout": [
        {
          "value": 50.0,
          "n": 0,
          "scriptPubKey": {
            "asm": "04d5665e6c8eedaed8be354228279a9404836c112dec0183f7f49b8de7d9b31894ba5c70fb7c3973a4883bd151433d7709c57fd0b3f4974c2459b91240ca4a143e OP_CHECKSIG",
            "desc": "pk(04d5665e6c8eedaed8be354228279a9404836c112dec0183f7f49b8de7d9b31894ba5c70fb7c3973a4883bd151433d7709c57fd0b3f4974c2459b91240ca4a143e)#m5z5elq0",
            "hex": "4104d5665e6c8eedaed8be354228279a9404836c112dec0183f7f49b8de7d9b31894ba5c70fb7c3973a4883bd151433d7709c57fd0b3f4974c2459b91240ca4a143eac",
            "type": "pubkey"
          }
        }
      ],
      "hex": "01000000010000000000000000000000000000000000000000000000000000000000000000ffffffff0804ffff001d025504ffffffff0100f2052a01000000434104d5665e6c8eedaed8be354228279a9404836c112dec0183f7f49b8de7d9b31894ba5c70fb7c3973a4883bd151433d7709c57fd0b3f4974c2459b91240ca4a143eac00000000"
    }
  ]
}