{
  "hash": "0000000005e1e453df756fcf511353abef26ad10c471acb04c8aae78f66cc7fc",
  "confirmations": 44912,
  "height": 8186,
  "version": 1,
  "versionHex": "00000001",
  "merkleroot": "c29895f5428300b4dd87ffcee381f280611adf4098ee79cc5d6f8b1ce8cfc159",
  "time": 1237596610,
  "mediantime": 1237593962,
  "nonce": 844524294,
  "bits": "1d00ffff",
  "difficulty": 1,
  "chainwork": "00000000000000000000000000000000000000000000000000001ffb1ffb1ffb",
  "nTx": 1,
  "previousblockhash": "00000000312b2ac3324f98f9c3f1b6167620f11641084278798cc388dbef9d4e",
  "nextblockhash": "000000005dd553ef43782145804368998fee32dcc0a230611fb2b1f001295a07",
  "strippedsize": 216,
  "size": 216,
  "weight": 864,
  "tx": [
    {
      "txid": "c29895f5428300b4dd87ffcee381f280611adf4098ee79cc5d6f8b1ce8cfc159",
      "hash": "c29895f5428300b4dd87ffcee381f280611adf4098ee79cc5d6f8b1ce8cfc159",
      "version": 1,
      "size": 135,
      "vsize": 135,
      "weight": 540,
      "locktime": 0,
      "vin": [
        {
          "coinbase": "04ffff001d02b002",
          "sequence": 4294967295
        }
      ],
      "vout": [
        {
          "value": 50.0,
          "n": 0,
          "scriptPubKey": {
            "asm": "04b64625cfce4f52ea233591d0e4e1286f8b56a4ba5c55368fe06512f9690f16c252a3f2300a6b100f6f00474c1256359a8a6edbc8a8eb47ffe233860056ddd54c OP_CHECKSIG",
            "desc": "pk(04b64625cfce4f52ea233591d0e4e1286f8b56a4ba5c55368fe06512f9690f16c252a3f2300a6b100f6f00474c1256359a8a6edbc8a8eb47ffe233860056ddd54c)#kdhfjpwm",
            "hex": "4104b64625cfce4f52ea233591d0e4e1286f8b56a4ba5c55368fe06512f9690f16c252a3f2300a6b100f6f00474c1256359a8a6edbc8a8eb47ffe233860056ddd54cac",
            "type": "pubkey"
          }
        }
      ],
      "hex": "01000000010000000000000000000000000000000000000000000000000000000000000000ffffffff0804ffff001d02b002ffffffff0100f2052a01000000434104b64625cfce4f52ea233591d0e4e1286f8b56a4ba5c55368fe06512f9690f16c252a3f2300a6b100f6f00474c1256359a8a6edbc8a8eb47ffe233860056ddd54cac00000000"
    }
  ]
}