{
  "hash": "00000000b3a1512e402bcfa350c42147e08aa8d6450699015bbd69e76f99a8ae",
  "confirmations": 48040,
  "height": 5058,
  "version": 1,
  "versionHex": "00000001",
  "merkleroot": "7d6e94e6df1e972c9d1e20c1da2f0f71684126d70d30401c5b08f016986cc0d8",
  "time": 1235183432,
  "mediantime": 1235179338,
  "nonce": 125032777,
  "bits": "1d00ffff",
  "difficulty": 1,
  "chainwork": "000000000000000000000000000000000000000000000000000013c313c313c3",
  "nTx": 1,
  "previousblockhash": "00000000fe93604e9dd2edd781e444655366e3cb7ddc64ce5fef2b26ffa96cc6",
  "nextblockhash": "0000000004fdca0b00bdc8845d9bddfe8086a916cc1968e9b5728299e623bfba",
  "strippedsize": 216,
  "size": 216,
  "weight": 864,
  "tx": [
    {
      "txid": "7d6e94e6df1e972c9d1e20c1da2f0f71684126d70d30401c5b08f016986cc0d8",
      "hash": "7d6e94e6df1e972c9d1e20c1da2f0f71684126d70d30401c5b08f016986cc0d8",
      "version": 1,
      "size": 135,
      "vsize": 135,
      "weight": 540,
      "locktime": 0,
      "vin": [
        {
          "coinbase": "04ffff001d023e04",
          "sequence": 4294967295
        }
      ],
      "vout": [
        {
          "value": 50.0,
          "n": 0,
          "scriptPubKey": {
            "asm": "04410c55eb4f754d81804ba23325c3de7faa775303c3a8d938143e39a572ba88bbfbfb97bbd40cf1e58ff8ffdc2251267ac15be2492ede62c93930931de05a7898 OP_CHECKSIG",
            "desc": "pk(04410c55eb4f754d81804ba23325c3de7faa775303c3a8d938143e39a572ba88bbfbfb97bbd40cf1e58ff8ffdc2251267ac15be2492ede62c93930931de05a7898)#hzzmftlc",
            "hex": "4104410c55eb4f754d81804ba23325c3de7faa775303c3a8d938143e39a572ba88bbfbfb97bbd40cf1e58ff8ffdc2251267ac15be2492ede62c93930931de05a7898ac",
            "type": "pubkey"
          }
        }
      ],
      "hex": "01000000010000000000000000000000000000000000000000000000000000000000000000ffffffff0804ffff001d023e04ffffffff0100f2052a01000000434104410c55eb4f754d81804ba23325c3de7faa775303c3a8d938143e39a572ba88bbfbfb97bbd40cf1e58ff8ffdc2251267ac15be2492ede62c93930931de05a7898ac00000000"
    }
  ]
}