{
  "hash": "00000000db621826b75e25998e9dcbced0259ebe8dd10386611797139052a6c4",
  "confirmations": 46792,
  "height": 6306,
  "version": 1,
  "versionHex": "00000001",
  "merkleroot": "24f0a6aa7e55216d3776231cb020b33277a647a3fd752ede8e3ff8ddbc78bd3c",
  "time": 1236176777,
  "mediantime": 1236173810,
  "nonce": 2441669652,
  "bits": "1d00ffff",
  "difficulty": 1,
  "chainwork": "000000000000000000000000000000000000000000000000000018a318a318a3",
  "nTx": 1,
  "previousblockhash": "000000009e06b3bf0a2df8d8302747e7d606e09f32351002ea026be85f8788ac",
  "nextblockhash": "000000001a0f24c25c6192f7be8c9a0955a1d645c948c0bc47adbbaebcd754bb",
  "strippedsize": 215,
  "size": 215,
  "weight": 860,
  "tx": [
    {
      "txid": "24f0a6aa7e55216d3776231cb020b33277a647a3fd752ede8e3ff8ddbc78bd3c",
      "hash": "24f0a6aa7e55216d3776231cb020b33277a647a3fd752ede8e3ff8ddbc78bd3c",
      "version": 1,
      "size": 134,
      "vsize": 134,
      "weight": 536,
      "locktime": 0,
      "vin": [
        {
          "coinbase": "04ffff001d0139",
          "sequence": 4294967295
        }
      ],
      "vout": [
        {
          "value": 50.0,
          "n": 0,
          "scriptPubKey": {
            "asm": "04e4f8f8b3126db7828058b2f39fa3f96a46c1f95d675486405a30e1d216ad4bf6097d28675fbc8e549f6c1d3be1ed7c97fff1e43f75b7bbaac305031ee2f52d46 OP_CHECKSIG",
            "desc": "pk(04e4f8f8b3126db7828058b2f39fa3f96a46c1f95d675486405a30e1d216ad4bf6097d28675fbc8e549f6c1d3be1ed7c97fff1e43f75b7bbaac305031ee2f52d46)#juchgss3",
            "hex": "4104e4f8f8b3126db7828058b2f39fa3f96a46c1f95d675486405a30e1d216ad4bf6097d28675fbc8e549f6c1d3be1ed7c97fff1e43f75b7bbaac305031ee2f52d46ac",
            "type": "pubkey"
          }
        }
      ],
      "hex": "01000000010000000000000000000000000000000000000000000000000000000000000000ffffffff0704ffff001d0139ffffffff0100f2052a01000000434104e4f8f8b3126db7828058b2f39fa3f96a46c1f95d675486405a30e1d216ad4bf6097d28675fbc8e549f6c1d3be1ed7c97fff1e43f75b7bbaac305031ee2f52d46ac00000000"
    }
  ]
}