{
  "hash": "0000000070594ab7669a36f0e6471f744847fc3d4e52a544d8d72bfe0daa5862",
  "confirmations": 45277,
  "height": 7821,
  "version": 1,
  "versionHex": "00000001",
  "merkleroot": "f1b8b617e468a15beb110def05a3baff5d4304182ed725e978c598c27121f9fd",
  "time": 1237330157,
  "mediantime": 1237325058,
  "nonce": 1518595093,
  "bits": "1d00ffff",
  "difficulty": 1,
  "chainwork": "00000000000000000000000000000000000000000000000000001e8e1e8e1e8e",
  "nTx": 1,
  "previousblockhash": "00000000c8a136677d7bd4f07e8385a1119c387c0899290cf35150272edc054e",
  "nextblockhash": "00000000310d5e79478ba4c6277b389e0cecf11e2dada61b23b106a8084bddb5",
  "strippedsize": 216,
  "size": 216,
  "weight": 864,
  "tx": [
    {
      "txid": "f1b8b617e468a15beb110def05a3baff5d4304182ed725e978c598c27121f9fd",
      "hash": "f1b8b617e468a15beb110def05a3baff5d4304182ed725e978c598c27121f9fd",
      "version": 1,
      "size": 135,
      "vsize": 135,
      "weight": 540,
      "locktime": 0,
      "vin": [
        {
          "coinbase": "04ffff001d024606",
          "sequence": 4294967295
        }
      ],
      "vout": [
        {
          "value": 50.0,
          "n": 0,
          "scriptPubKey": {
            "asm": "04d8243e27b7f6a3f618fac6b9d158879362b32ab44ed015c80531232c4ed98f2e5d71a763ae7302183bd9807629c72bb6673d4a8c7e2d24b21af9013c1801e40f OP_CHECKSIG",
            "desc": "pk(04d8243e27b7f6a3f618fac6b9d158879362b32ab44ed015c80531232c4ed98f2e5d71a763ae7302183bd9807629c72bb6673d4a8c7e2d24b21af9013c1801e40f)#uq0ajzk3",
            "hex": "4104d8243e27b7f6a3f618fac6b9d158879362b32ab44ed015c80531232c4ed98f2e5d71a763ae7302183bd9807629c72bb6673d4a8c7e2d24b21af9013c1801e40fac",
            "type": "pubkey"
          }
        }
      ],
      "hex": "01000000010000000000000000000000000000000000000000000000000000000000000000ffffffff0804ffff001d024606ffffffff0100f2052a01000000434104d8243e27b7f6a3f618fac6b9d158879362b32ab44ed015c80531232c4ed98f2e5d71a763ae7302183bd9807629c72bb6673d4a8c7e2d24b21af9013c1801e40fac00000000"
    }
  ]
}