{
  "hash": "0000000020029ec024e149c0abc9319ccebe038a163c17a27a7ad029152133d6",
  "confirmations": 49774,
  "height": 3324,
  "version": 1,
  "versionHex": "00000001",
  "merkleroot": "690c8bde0e0bb290ff31e33e0e8364e9d08b9e7d2dd71a24041fdac20d2c037e",
  "time": 1233983298,
  "mediantime": 1233980997,
  "nonce": 3332385047,
  "bits": "1d00ffff",
  "difficulty": 1,
  "chainwork": "00000000000000000000000000000000000000000000000000000cfd0cfd0cfd",
  "nTx": 1,
  "previousblockhash": "00000000b0377041fa2c5b227b75ea9fed7c3635c9c1d94ec1389ff6096fa3d3",
  "nextblockhash": "000000003ad78dad85af064768461527ee2458869ae7066cd22b826fd6c31dbb",
  "strippedsize": 216,
  "size": 216,
  "weight": 864,
  "tx": [
    {
      "txid": "690c8bde0e0bb290ff31e33e0e8364e9d08b9e7d2dd71a24041fdac20d2c037e",
      "hash": "690c8bde0e0bb290ff31e33e0e8364e9d08b9e7d2dd71a24041fdac20d2c037e",
      "version": 1,
      "size": 135,
      "vsize": 135,
      "weight": 540,
      "locktime": 0,
      "vin": [
        {
          "coinbase": "04ffff001d02a704",
          "sequence": 4294967295
        }
      ],
      "vout": [
        {
          "value": 50.0,
          "n": 0,
          "scriptPubKey": {
            "asm": "048ad170f58fca91b5c2aa461833ff2f011acf1fba821ea9a764f2976cf5b56caa1091622b878311c7227f5a222d6922e265afe87543bb5ca5dc1a2e9b1ef6df47 OP_CHECKSIG",
            "desc": "pk(048ad170f58fca91b5c2aa461833ff2f011acf1fba821ea9a764f2976cf5b56caa1091622b878311c7227f5a222d6922e265afe87543bb5ca5dc1a2e9b1ef6df47)#pjlslepl",
            "hex": "41048ad170f58fca91b5c2aa461833ff2f011acf1fba821ea9a764f2976cf5b56caa1091622b878311c7227f5a222d6922e265afe87543bb5ca5dc1a2e9b1ef6df47ac",
            "type": "pubkey"
          }
        }
      ],
      "hex": "01000000010000000000000000000000000000000000000000000000000000000000000000ffffffff0804ffff001d02a704ffffffff0100f2052a010000004341048ad170f58fca91b5c2aa461833ff2f011acf1fba821ea9a764f2976cf5b56caa1091622b878311c7227f5a222d6922e265afe87543bb5ca5dc1a2e9b1ef6df47ac00000000"
    }
  ]
}