{
  "hash": "000000007105edd97a76d92a591de7dc1adf811472f9776c1f52de659849e876",
  "confirmations": 49317,
  "height": 3781,
  "version": 1,
  "versionHex": "00000001",
  "merkleroot": "0dcf6322086ec6d0e2147900fdd3c8c8d9439a72d2ea92403b0945a2f497f3d8",
  "time": 1234293260,
  "mediantime": 1234288977,
  "nonce": 2069597958,
  "bits": "1d00ffff",
  "difficulty": 1,
  "chainwork": "00000000000000000000000000000000000000000000000000000ec60ec60ec6",
  "nTx": 1,
  "previousblockhash": "00000000c742f4b873a9440e70d6d8cf97fd3361ab89a66807eae7d6fe1b2ca8",
  "nextblockhash": "00000000cfacf074cbd6aaad8c5f789fb7105ffe920fd4bf0459524a3b0f1f60",
  "strippedsize": 216,
  "size": 216,
  "weight": 864,
  "tx": [
    {
      "txid": "0dcf6322086ec6d0e2147900fdd3c8c8d9439a72d2ea92403b0945a2f497f3d8",
      "hash": "0dcf6322086ec6d0e2147900fdd3c8c8d9439a72d2ea92403b0945a2f497f3d8",
      "version": 1,
      "size": 135,
      "vsize": 135,
      "weight": 540,
      "locktime": 0,
      "vin": [
        {
          "coinbase": "04ffff001d020601",
          "sequence": 4294967295
        }
      ],
      "vout": [
        {
          "value": 50.0,
          "n": 0,
          "scriptPubKey": {
            "asm": "0419b5bee46f53a86aac9477023fe15e183dcb0f4ff6c8f9f8ae8ab6613cdfa76483ac513ca7c0a6e368f83de3bb64faa350becced2406996edb968841141b1b6b OP_CHECKSIG",
            "desc": "pk(0419b5bee46f53a86aac9477023fe15e183dcb0f4ff6c8f9f8ae8ab6613cdfa76483ac513ca7c0a6e368f83de3bb64faa350becced2406996edb968841141b1b6b)#prd6msw2",
            "hex": "410419b5bee46f53a86aac9477023fe15e183dcb0f4ff6c8f9f8ae8ab6613cdfa76483ac513ca7c0a6e368f83de3bb64faa350becced2406996edb968841141b1b6bac",
            "type": "pubkey"
          }
        }
      ],
      "hex": "01000000010000000000000000000000000000000000000000000000000000000000000000ffffffff0804ffff001d020601ffffffff0100f2052a0100000043410419b5bee46f53a86aac9477023fe15e183dcb0f4ff6c8f9f8ae8ab6613cdfa76483ac513ca7c0a6e368f83de3bb64faa350becced2406996edb968841141b1b6bac00000000"
    }
  ]
}