{
  "hash": "00000000342b46b1e6065f47026233fce49956695019d8d3425a6f13ec5df957",
  "confirmations": 46076,
  "height": 7022,
  "version": 1,
  "versionHex": "00000001",
  "merkleroot": "cbf2d9847e0362fd42a229b7597674eb73afa5e3f5b27ef9c830f9ffdae65b41",
  "time": 1236734925,
  "mediantime": 1236731177,
  "nonce": 75842300,
  "bits": "1d00ffff",
  "difficulty": 1,
  "chainwork": "00000000000000000000000000000000000000000000000000001b6f1b6f1b6f",
  "nTx": 1,
  "previousblockhash": "00000000e9c08bc4a3f0c0a5c7bee4228cef02ca22f9c3580b9246f8a75b20cd",
  "nextblockhash": "000000002e3b1b61162fc7c08b70b1a9df2c253134b844c046083821930e789b",
  "strippedsize": 216,
  "size": 216,
  "weight": 864,
  "tx": [
    {
      "txid": "cbf2d9847e0362fd42a229b7597674eb73afa5e3f5b27ef9c830f9ffdae65b41",
      "hash": "cbf2d9847e0362fd42a229b7597674eb73afa5e3f5b27ef9c830f9ffdae65b41",
      "version": 1,
      "size": 135,
      "vsize": 135,
      "weight": 540,
      "locktime": 0,
      "vin": [
        {
          "coinbase": "04ffff001d021d06",
          "sequence": 4294967295
        }
      ],
      "vout": [
        {
          "value": 50.0,
          "n": 0,
          "scriptPubKey": {
            "asm": "0412246e943e9756f38e32550c7a5f4950073f6e1aa6b8802e4b6c1142da3d7ea177260cde041fbff4433b4b81a39ec0e21c5a452faf1a0e4339f21b7d900802f7 OP_CHECKSIG",
            "desc": "pk(0412246e943e9756f38e32550c7a5f4950073f6e1aa6b8802e4b6c1142da3d7ea177260cde041fbff4433b4b81a39ec0e21c5a452faf1a0e4339f21b7d900802f7)#lmp6ahc6",
            "hex": "410412246e943e9756f38e32550c7a5f4950073f6e1aa6b8802e4b6c1142da3d7ea177260cde041fbff4433b4b81a39ec0e21c5a452faf1a0e4339f21b7d900802f7ac",
            "type": "pubkey"
          }
        }
      ],
      "hex": "01000000010000000000000000000000000000000000000000000000000000000000000000ffffffff0804ffff001d021d06ffffffff0100f2052a0100000043410412246e943e9756f38e32550c7a5f4950073f6e1aa6b8802e4b6c1142da3d7ea177260cde041fbff4433b4b81a39ec0e21c5a452faf1a0e4339f21b7d900802f7ac00000000"
    }
  ]
}