{
  "hash": "000000000c0a5629d40dbcc118b268360d783c0794464efac2001c2c52a12781",
  "confirmations": 46906,
  "height": 6192,
  "version": 1,
  "versionHex": "00000001",
  "merkleroot": "9d331b3b6c861487ec75fde5cce8e633054170a1a3cf215e517cefa52f7258cc",
  "time": 1236084449,
  "mediantime": 1236081809,
  "nonce": 61622879,
  "bits": "1d00ffff",
  "difficulty": 1,
  "chainwork": "0000000000000000000000000000000000000000000000000000183118311831",
  "nTx": 1,
  "previousblockhash": "0000000059be1d660bd064ff357d3bea51bd0fdcc18edd52a6d16dbd8524c6e3",
  "nextblockhash": "0000000008abaf6438eae0774ddfa647c468be573bc29b15cc246e7dc0f98f71",
  "strippedsize": 216,
  "size": 216,
  "weight": 864,
  "tx": [
    {
      "txid": "9d331b3b6c861487ec75fde5cce8e633054170a1a3cf215e517cefa52f7258cc",
      "hash": "9d331b3b6c861487ec75fde5cce8e633054170a1a3cf215e517cefa52f7258cc",
      "version": 1,
      "size": 135,
      "vsize": 135,
      "weight": 540,
      "locktime": 0,
      "vin": [
        {
          "coinbase": "04ffff001d02f709",
          "sequence": 4294967295
        }
      ],
      "vout": [
        {
          "value": 50.0,
          "n": 0,
          "scriptPubKey": {
            "asm": "04da5ca583a5b6fa6dfcbabe82b418c6f829ece65c9f21968f1422df845f1ace944b8c7064e7c4a2dd7f0a17d3fad19801aeb49ddf1321ec76f6fcbca693254c43 OP_CHECKSIG",
            "desc": "pk(04da5ca583a5b6fa6dfcbabe82b418c6f829ece65c9f21968f1422df845f1ace944b8c7064e7c4a2dd7f0a17d3fad19801aeb49ddf1321ec76f6fcbca693254c43)#txvtsad6",
            "hex": "4104da5ca583a5b6fa6dfcbabe82b418c6f829ece65c9f21968f1422df845f1ace944b8c7064e7c4a2dd7f0a17d3fad19801aeb49ddf1321ec76f6fcbca693254c43ac",
            "type": "pubkey"
          }
        }
      ],
      "hex": "01000000010000000000000000000000000000000000000000000000000000000000000000ffffffff0804ffff001d02f709ffffffff0100f2052a01000000434104da5ca583a5b6fa6dfcbabe82b418c6f829ece65c9f21968f1422df845f1ace944b8c7064e7c4a2dd7f0a17d3fad19801aeb49ddf1321ec76f6fcbca693254c43ac00000000"
    }
  ]
}