{
  "hash": "0000000035cbdd492f99060333ef2a6d59f1afd0156203684ea654f20ec0027d",
  "confirmations": 44693,
  "height": 8405,
  "version": 1,
  "versionHex": "00000001",
  "merkleroot": "0f2ca36dede0bac31f20d0ee2773d1fe4996e15577c9aaf74307d9ea25f49d63",
  "time": 1237801958,
  "mediantime": 1237799678,
  "nonce": 313590072,
  "bits": "1d00ffff",
  "difficulty": 1,
  "chainwork": "000000000000000000000000000000000000000000000000000020d620d620d6",
  "nTx": 1,
  "previousblockhash": "000000007a91ff6b2519b1b00305e80e83b92760f192835a01ac7e8eabcf1eb1",
  "nextblockhash": "000000005ae2fdc26b76e01c7428b8f9c977176c6bb75fc6b869619dafc31452",
  "strippedsize": 216,
  "size": 216,
  "weight": 864,
  "tx": [
    {
      "txid": "0f2ca36dede0bac31f20d0ee2773d1fe4996e15577c9aaf74307d9ea25f49d63",
      "hash": "0f2ca36dede0bac31f20d0ee2773d1fe4996e15577c9aaf74307d9ea25f49d63",
      "version": 1,
      "size": 135,
      "vsize": 135,
      "weight": 540,
      "locktime": 0,
      "vin": [
        {
          "coinbase": "04ffff001d021106",
          "sequence": 4294967295
        }
      ],
      "vout": [
        {
          "value": 50.0,
          "n": 0,
          "scriptPubKey": {
            "asm": "047812735bca4e943352575cc2f575517bc25949539a110ca4d5b85ba3acc831f7db32865da7094106af3f38043d9a4ae055087b76813a5fd026d1ef03fb31e9e3 OP_CHECKSIG",
            "desc": "pk(047812735bca4e943352575cc2f575517bc25949539a110ca4d5b85ba3acc831f7db32865da7094106af3f38043d9a4ae055087b76813a5fd026d1ef03fb31e9e3)#mkzxpev9",
            "hex": "41047812735bca4e943352575cc2f575517bc25949539a110ca4d5b85ba3acc831f7db32865da7094106af3f38043d9a4ae055087b76813a5fd026d1ef03fb31e9e3ac",
            "type": "pubkey"
          }
        }
      ],
      "hex": "01000000010000000000000000000000000000000000000000000000000000000000000000ffffffff0804ffff001d021106ffffffff0100f2052a010000004341047812735bca4e943352575cc2f575517bc25949539a110ca4d5b85ba3acc831f7db32865da7094106af3f38043d9a4ae055087b76813a5fd026d1ef03fb31e9e3ac00000000"
    }
  ]
}