{
  "hash": "000000008c750dd0b1098b16c76b16c8f86b3f013350bd580cb84cd60ea099f7",
  "confirmations": 43294,
  "height": 9804,
  "version": 1,
  "versionHex": "00000001",
  "merkleroot": "b6c1a6b81bfa78ee937c9b957f156b93b54e0038b3ac2d7ee71d42524246331e",
  "time": 1238859976,
  "mediantime": 1238855346,
  "nonce": 50197925,
  "bits": "1d00ffff",
  "difficulty": 1,
  "chainwork": "0000000000000000000000000000000000000000000000000000264d264d264d",
  "nTx": 1,
  "previousblockhash": "00000000199e509e7e2138f0d0b405d725e4b43aca45beb2278b52289d050ce8",
  "nextblockhash": "00000000a327da808a225fe6f2d55f96287e402269c40347000e9307d571df85",
  "strippedsize": 216,
  "size": 216,
  "weight": 864,
  "tx": [
    {
      "txid": "b6c1a6b81bfa78ee937c9b957f156b93b54e0038b3ac2d7ee71d42524246331e",
      "hash": "b6c1a6b81bfa78ee937c9b957f156b93b54e0038b3ac2d7ee71d42524246331e",
      "version": 1,
      "size": 135,
      "vsize": 135,
      "weight": 540,
      "locktime": 0,
      "vin": [
        {
          "coinbase": "04ffff001d02be00",
          "sequence": 4294967295
        }
      ],
      "vout": [
        {
          "value": 50.0,
          "n": 0,
          "scriptPubKey": {
            "asm": "049d6c1fe7cd22c8247617d2c7ed912690d8b249df5c2b8b60d9c7ada97610848ab35a80a30843053f7668e329ad44805a4069902adeafac88eeceec043cc8fa93 OP_CHECKSIG",
            "desc": "pk(049d6c1fe7cd22c8247617d2c7ed912690d8b249df5c2b8b60d9c7ada97610848ab35a80a30843053f7668e329ad44805a4069902adeafac88eeceec043cc8fa93)#aml9dsqw",
            "hex": "41049d6c1fe7cd22c8247617d2c7ed912690d8b249df5c2b8b60d9c7ada97610848ab35a80a30843053f7668e329ad44805a4069902adeafac88eeceec043cc8fa93ac",
            "type": "pubkey"
          }
        }
      ],
      "hex": "01000000010000000000000000000000000000000000000000000000000000000000000000ffffffff0804ffff001d02be00ffffffff0100f2052a010000004341049d6c1fe7cd22c8247617d2c7ed912690d8b249df5c2b8b60d9c7ada97610848ab35a80a30843053f7668e329ad44805a4069902adeafac88eeceec043cc8fa93ac00000000"
    }
  ]
}