{
  "hash": "00000000f2a7a14a4e969c118db43111a594e526fdaac7b7fbbc2de268d0daee",
  "confirmations": 48756,
  "height": 4342,
  "version": 1,
  "versionHex": "00000001",
  "merkleroot": "d7f1d1a0947c729a659cad804303d5ed7ced8a82d4d8822a95d4bdaa0222b79c",
  "time": 1234672269,
  "mediantime": 1234670494,
  "nonce": 815236642,
  "bits": "1d00ffff",
  "difficulty": 1,
  "chainwork": "000000000000000000000000000000000000000000000000000010f710f710f7",
  "nTx": 1,
  "previousblockhash": "00000000a68383a3d0b8047ddf0de19a9a3329c4e3fd137b4e012ef491611376",
  "nextblockhash": "000000000ed039a379b37c9ef322845925eeb290ed65d1776bfac008e406aca3",
  "strippedsize": 215,
  "size": 215,
  "weight": 860,
  "tx": [
    {
      "txid": "d7f1d1a0947c729a659cad804303d5ed7ced8a82d4d8822a95d4bdaa0222b79c",
      "hash": "d7f1d1a0947c729a659cad804303d5ed7ced8a82d4d8822a95d4bdaa0222b79c",
      "version": 1,
      "size": 134,
      "vsize": 134,
      "weight": 536,
      "locktime": 0,
      "vin": [
        {
          "coinbase": "04ffff001d0161",
          "sequence": 4294967295
        }
      ],
      "vout": [
        {
          "value": 50.0,
          "n": 0,
          "scriptPubKey": {
            "asm": "04ca461edc87983ecf2d79255682fc98fd212a8971eefe6a2733dfb7bab34bcf7cb6c1ad48415d0c12680e676b711c0f3b3339ac6ae424e6d2cf9745f331d0e18c OP_CHECKSIG",
            "desc": "pk(04ca461edc87983ecf2d79255682fc98fd212a8971eefe6a2733dfb7bab34bcf7cb6c1ad48415d0c12680e676b711c0f3b3339ac6ae424e6d2cf9745f331d0e18c)#vng2yyjs",
            "hex": "4104ca461edc87983ecf2d79255682fc98fd212a8971eefe6a2733dfb7bab34bcf7cb6c1ad48415d0c12680e676b711c0f3b3339ac6ae424e6d2cf9745f331d0e18cac",
            "type": "pubkey"
          }
        }
      ],
      "hex": "01000000010000000000000000000000000000000000000000000000000000000000000000ffffffff0704ffff001d0161ffffffff0100f2052a01000000434104ca461edc87983ecf2d79255682fc98fd212a8971eefe6a2733dfb7bab34bcf7cb6c1ad48415d0c12680e676b711c0f3b3339ac6ae424e6d2cf9745f331d0e18cac00000000"
    }
  ]
}