{
  "hash": "00000000aad46b09e74ff3a1b37b511fa5e44e004b33432c28bcabe487b5599b",
  "confirmations": 46632,
  "height": 6466,
  "version": 1,
  "versionHex": "00000001",
  "merkleroot": "0d29fd34024ba47f9b3adf91646f676b7106ba196d3a3c2c9a3ecc0602db30f3",
  "time": 1236303344,
  "mediantime": 1236300838,
  "nonce": 304466998,
  "bits": "1d00ffff",
  "difficulty": 1,
  "chainwork": "0000000000000000000000000000000000000000000000000000194319431943",
  "nTx": 1,
  "previousblockhash": "000000004d33265be14c74dee250498297b6e32ab0d570796ced0cf5904b8e41",
  "nextblockhash": "000000004d80d182f8f764246bf1f575da852557b659b42777edc0d719fb490a",
  "strippedsize": 216,
  "size": 216,
  "weight": 864,
  "tx": [
    {
      "txid": "0d29fd34024ba47f9b3adf91646f676b7106ba196d3a3c2c9a3ecc0602db30f3",
      "hash": "0d29fd34024ba47f9b3adf91646f676b7106ba196d3a3c2c9a3ecc0602db30f3",
      "version": 1,
      "size": 135,
      "vsize": 135,
      "weight": 540,
      "locktime": 0,
      "vin": [
        {
          "coinbase": "04ffff001d02cc02",
          "sequence": 4294967295
        }
      ],
      "vout": [
        {
          "value": 50.0,
          "n": 0,
          "scriptPubKey": {
            "asm": "048bd9083ae7379c1b50909d22246d4307f4a1a51d98257886d8386aa1abc96e186a1a4a694da9698fe78d66e69ac7fe630ec7e57380e59dcadd7ca1a457e56551 OP_CHECKSIG",
            "desc": "pk(048bd9083ae7379c1b50909d22246d4307f4a1a51d98257886d8386aa1abc96e186a1a4a694da9698fe78d66e69ac7fe630ec7e57380e59dcadd7ca1a457e56551)#hrzj5ftu",
            "hex": "41048bd9083ae7379c1b50909d22246d4307f4a1a51d98257886d8386aa1abc96e186a1a4a694da9698fe78d66e69ac7fe630ec7e57380e59dcadd7ca1a457e56551ac",
            "type": "pubkey"
          }
        }
      ],
      "hex": "01000000010000000000000000000000000000000000000000000000000000000000000000ffffffff0804ffff001d02cc02ffffffff0100f2052a010000004341048bd9083ae7379c1b50909d22246d4307f4a1a51d98257886d8386aa1abc96e186a1a4a694da9698fe78d66e69ac7fe630ec7e57380e59dcadd7ca1a457e56551ac00000000"
    }
  ]
}