{
  "hash": "00000000a79d7faacc25bcb320aa4813d89bc4ac8696bb889434283246c2d323",
  "confirmations": 43726,
  "height": 9372,
  "version": 1,
  "versionHex": "00000001",
  "merkleroot": "98a32692359863422beb7a539f7a9d80c93f449916171cd2b1ce27f98f439dc8",
  "time": 1238526672,
  "mediantime": 1238523991,
  "nonce": 1763091243,
  "bits": "1d00ffff",
  "difficulty": 1,
  "chainwork": "0000000000000000000000000000000000000000000000000000249d249d249d",
  "nTx": 1,
  "previousblockhash": "0000000037716aaebeb6ce9799c9d3a588fd7e7540a9fbafc873920d50de3a06",
  "nextblockhash": "00000000d5251fa3625e2e9ac029094d42ca5d9756463d13445ca041fca29a7b",
  "strippedsize": 216,
  "size": 216,
  "weight": 864,
  "tx": [
    {
      "txid": "98a32692359863422beb7a539f7a9d80c93f449916171cd2b1ce27f98f439dc8",
      "hash": "98a32692359863422beb7a539f7a9d80c93f449916171cd2b1ce27f98f439dc8",
      "version": 1,
      "size": 135,
      "vsize": 135,
      "weight": 540,
      "locktime": 0,
      "vin": [
        {
          "coinbase": "04ffff001d02ee02",
          "sequence": 4294967295
        }
      ],
      "vout": [
        {
          "value": 50.0,
          "n": 0,
          "scriptPubKey": {
            "asm": "046142b2e211bf1800682bb486c67c5fce8c9269961ff45b06ee2afd28616af7f38188b44acae1a8c31cffd5c5641173b44091b4e36dab259b498f2ab2194666b3 OP_CHECKSIG",
            "desc": "pk(046142b2e211bf1800682bb486c67c5fce8c9269961ff45b06ee2afd28616af7f38188b44acae1a8c31cffd5c5641173b44091b4e36dab259b498f2ab2194666b3)#g2l7jqns",
            "hex": "41046142b2e211bf1800682bb486c67c5fce8c9269961ff45b06ee2afd28616af7f38188b44acae1a8c31cffd5c5641173b44091b4e36dab259b498f2ab2194666b3ac",
            "type": "pubkey"
          }
        }
      ],
      "hex": "01000000010000000000000000000000000000000000000000000000000000000000000000ffffffff0804ffff001d02ee02ffffffff0100f2052a010000004341046142b2e211bf1800682bb486c67c5fce8c9269961ff45b06ee2afd28616af7f38188b44acae1a8c31cffd5c5641173b44091b4e36dab259b498f2ab2194666b3ac00000000"
    }
  ]
}