{
  "hash": "000000001d58b1c023e458203f5389eeea6a325cdf75306d1cbc5c06620dfb41",
  "confirmations": 47566,
  "height": 5532,
  "version": 1,
  "versionHex": "00000001",
  "merkleroot": "1a221854491dea200bf180256f798f04b8bf7d4ce40e7b230e43d42098ca54f9",
  "time": 1235545779,
  "mediantime": 1235542611,
  "nonce": 2250654266,
  "bits": "1d00ffff",
  "difficulty": 1,
  "chainwork": "0000000000000000000000000000000000000000000000000000159d159d159d",
  "nTx": 1,
  "previousblockhash": "0000000046b6272474a106a41c35c914370c3b3d96da1ba75d2e29f6afc71a65",
  "nextblockhash": "00000000c29bdae03f2f331c1ff69309ed7b55ed0c21d2e63ac4d36c6aa61bde",
  "strippedsize": 216,
  "size": 216,
  "weight": 864,
  "tx": [
    {
      "txid": "1a221854491dea200bf180256f798f04b8bf7d4ce40e7b230e43d42098ca54f9",
      "hash": "1a221854491dea200bf180256f798f04b8bf7d4ce40e7b230e43d42098ca54f9",
      "version": 1,
      "size": 135,
      "vsize": 135,
      "weight": 540,
      "locktime": 0,
      "vin": [
        {
          "coinbase": "04ffff001d023b06",
          "sequence": 4294967295
        }
      ],
      "vout": [
        {
          "value": 50.0,
          "n": 0,
          "scriptPubKey": {
            "asm": "0445f23c911c271d1109e2f9cc2d4569c62b218722315aedf8d54b3b555049cf999cde9b8d0dca66773a63b44fbac8fcc476113c0dae2aaef15363f4ff9b0f9557 OP_CHECKSIG",
            "desc": "pk(0445f23c911c271d1109e2f9cc2d4569c62b218722315aedf8d54b3b555049cf999cde9b8d0dca66773a63b44fbac8fcc476113c0dae2aaef15363f4ff9b0f9557)#ctf3k6qj",
            "hex": "410445f23c911c271d1109e2f9cc2d4569c62b218722315aedf8d54b3b555049cf999cde9b8d0dca66773a63b44fbac8fcc476113c0dae2aaef15363f4ff9b0f9557ac",
            "type": "pubkey"
          }
        }
      ],
      "hex": "01000000010000000000000000000000000000000000000000000000000000000000000000ffffffff0804ffff001d023b06ffffffff0100f2052a0100000043410445f23c911c271d1109e2f9cc2d4569c62b218722315aedf8d54b3b555049cf999cde9b8d0dca66773a63b44fbac8fcc476113c0dae2aaef15363f4ff9b0f9557ac00000000"
    }
  ]
}