{
  "hash": "00000000a8724b8bb407df756f81b9fdafa99110179f37d845e7358a7628b02c",
  "confirmations": 46305,
  "height": 6793,
  "version": 1,
  "versionHex": "00000001",
  "merkleroot": "60c20b67a0ae310931118d317993f0b8b907e3e2ab2b3a84076fffaf33e8b8b0",
  "time": 1236553024,
  "mediantime": 1236550481,
  "nonce": 281851178,
  "bits": "1d00ffff",
  "difficulty": 1,
  "chainwork": "00000000000000000000000000000000000000000000000000001a8a1a8a1a8a",
  "nTx": 1,
  "previousblockhash": "00000000904dc5e49999f9da6536e941a754111261a9b1ac06284be8e48eb7d3",
  "nextblockhash": "000000003c2d4f7119bf1188afd841479cd9b512f8c9ffcd8bb78be0f893c726",
  "strippedsize": 216,
  "size": 216,
  "weight": 864,
  "tx": [
    {
      "txid": "60c20b67a0ae310931118d317993f0b8b907e3e2ab2b3a84076fffaf33e8b8b0",
      "hash": "60c20b67a0ae310931118d317993f0b8b907e3e2ab2b3a84076fffaf33e8b8b0",
      "version": 1,
      "size": 135,
      "vsize": 135,
      "weight": 540,
      "locktime": 0,
      "vin": [
        {
          "coinbase": "04ffff001d02c508",
          "sequence": 4294967295
        }
      ],
      "vout": [
        {
          "value": 50.0,
          "n": 0,
          "scriptPubKey": {
            "asm": "04ef676354b69960af9ca958b18164e3e40d97e8dfc81af7f85ec95c67aab94106c973d397656d0d79d2470515f5edf42bd0b899f459116bf90e77e7b6d7a3e0a5 OP_CHECKSIG",
            "desc": "pk(04ef676354b69960af9ca958b18164e3e40d97e8dfc81af7f85ec95c67aab94106c973d397656d0d79d2470515f5edf42bd0b899f459116bf90e77e7b6d7a3e0a5)#dz47uumx",
            "hex": "4104ef676354b69960af9ca958b18164e3e40d97e8dfc81af7f85ec95c67aab94106c973d397656d0d79d2470515f5edf42bd0b899f459116bf90e77e7b6d7a3e0a5ac",
            "type": "pubkey"
          }
        }
      ],
      "hex": "01000000010000000000000000000000000000000000000000000000000000000000000000ffffffff0804ffff001d02c508ffffffff0100f2052a01000000434104ef676354b69960af9ca958b18164e3e40d97e8dfc81af7f85ec95c67aab94106c973d397656d0d79d2470515f5edf42bd0b899f459116bf90e77e7b6d7a3e0a5ac00000000"
    }
  ]
}