{
  "hash": "000000001c936ae3099fd3cc59f18cd70c1c862ab4860f20ff92c7775314b073",
  "confirmations": 45116,
  "height": 7982,
  "version": 1,
  "versionHex": "00000001",
  "merkleroot": "06f45d8144c4f89c513794893fa394b63e3dbd8511bebedd3149de0422d122f7",
  "time": 1237449142,
  "mediantime": 1237445941,
  "nonce": 2827901213,
  "bits": "1d00ffff",
  "difficulty": 1,
  "chainwork": "00000000000000000000000000000000000000000000000000001f2f1f2f1f2f",
  "nTx": 1,
  "previousblockhash": "0000000015711ec0cd8d5b71ef8ac65df81f6ad95a0449d90ca5bf6820881efb",
  "nextblockhash": "00000000aa7c08193a4ecb41c36ad864668d11d4e8e12bb6e6105cee8106a66c",
  "strippedsize": 216,
  "size": 216,
  "weight": 864,
  "tx": [
    {
      "txid": "06f45d8144c4f89c513794893fa394b63e3dbd8511bebedd3149de0422d122f7",
      "hash": "06f45d8144c4f89c513794893fa394b63e3dbd8511bebedd3149de0422d122f7",
      "version": 1,
      "size": 135,
      "vsize": 135,
      "weight": 540,
      "locktime": 0,
      "vin": [
        {
          "coinbase": "04ffff001d021709",
          "sequence": 4294967295
        }
      ],
      "vout": [
        {
          "value": 50.0,
          "n": 0,
          "scriptPubKey": {
            "asm": "04b81b6b6b3beb262a7f5da718bfa7044930f31c26d9ba4a69a3e802c310d18a418eb2c0aeadde5b35ce611dd0a15d04f5fdedaf77b05c111b388ebd1ab7212129 OP_CHECKSIG",
            "desc": "pk(04b81b6b6b3beb262a7f5da718bfa7044930f31c26d9ba4a69a3e802c310d18a418eb2c0aeadde5b35ce611dd0a15d04f5fdedaf77b05c111b388ebd1ab7212129)#dcjnkak7",
            "hex": "4104b81b6b6b3beb262a7f5da718bfa7044930f31c26d9ba4a69a3e802c310d18a418eb2c0aeadde5b35ce611dd0a15d04f5fdedaf77b05c111b388ebd1ab7212129ac",
            "type": "pubkey"
          }
        }
      ],
      "hex": "01000000010000000000000000000000000000000000000000000000000000000000000000ffffffff0804ffff001d021709ffffffff0100f2052a01000000434104b81b6b6b3beb262a7f5da718bfa7044930f31c26d9ba4a69a3e802c310d18a418eb2c0aeadde5b35ce611dd0a15d04f5fdedaf77b05c111b388ebd1ab7212129ac00000000"
    }
  ]
}