{
  "hash": "00000000c7d2f053e0b0fa46ae1984b6eff0f63776f88d55979105181e67addf",
  "confirmations": 50857,
  "height": 2241,
  "version": 1,
  "versionHex": "00000001",
  "merkleroot": "b379585fd5b0c21477f6e25b2f5633471f1e70adfecbc4b34b59eab80d569309",
  "time": 1233241398,
  "mediantime": 1233237603,
  "nonce": 420179744,
  "bits": "1d00ffff",
  "difficulty": 1,
  "chainwork": "000000000000000000000000000000000000000000000000000008c208c208c2",
  "nTx": 1,
  "previousblockhash": "00000000789b7c79122b9b5270eea6bfed7b527e6e5ea0fd78a77f3143610e21",
  "nextblockhash": "00000000f0befb49abde7a1ccd219fed53cb65e22fc5672355b9e3a7404e0406",
  "strippedsize": 216,
  "size": 216,
  "weight": 864,
  "tx": [
    {
      "txid": "b379585fd5b0c21477f6e25b2f5633471f1e70adfecbc4b34b59eab80d569309",
      "hash": "b379585fd5b0c21477f6e25b2f5633471f1e70adfecbc4b34b59eab80d569309",
      "version": 1,
      "size": 135,
      "vsize": 135,
      "weight": 540,
      "locktime": 0,
      "vin": [
        {
          "coinbase": "04ffff001d02e900",
          "sequence": 4294967295
        }
      ],
      "vout": [
        {
          "value": 50.0,
          "n": 0,
          "scriptPubKey": {
            "asm": "049eb9ba0a36324251802862ab6210a3cdffcc3e679ef9232cd8ff0628d63dfeed44c278a7000c40e33360bb8b736442d2444eb002051fb657317e98030be79d60 OP_CHECKSIG",
            "desc": "pk(049eb9ba0a36324251802862ab6210a3cdffcc3e679ef9232cd8ff0628d63dfeed44c278a7000c40e33360bb8b736442d2444eb002051fb657317e98030be79d60)#0mdarmza",
            "hex": "41049eb9ba0a36324251802862ab6210a3cdffcc3e679ef9232cd8ff0628d63dfeed44c278a7000c40e33360bb8b736442d2444eb002051fb657317e98030be79d60ac",
            "type": "pubkey"
          }
        }
      ],
      "hex": "01000000010000000000000000000000000000000000000000000000000000000000000000ffffffff0804ffff001d02e900ffffffff0100f2052a010000004341049eb9ba0a36324251802862ab6210a3cdffcc3e679ef9232cd8ff0628d63dfeed44c278a7000c40e33360bb8b736442d2444eb002051fb657317e98030be79d60ac00000000"
    }
  ]
}