{
  "hash": "00000000bdb3f5b06d2b5a55b85758d1df4a7cf49afe075f94fff5d1bbea4aa8",
  "confirmations": 52094,
  "height": 240,
  "version": 1,
  "versionHex": "00000001",
  "merkleroot": "435264846bafdb75b931b2b1c01285432d957d70190e51a73c1565a7afbb1a5b",
  "time": 1231783494,
  "mediantime": 1231780771,
  "nonce": 80963888,
  "bits": "1d00ffff",
  "difficulty": 1,
  "chainwork": "000000000000000000000000000000000000000000000000000000f100f100f1",
  "nTx": 1,
  "previousblockhash": "00000000ea67fe5a0ff9587f7a814c6b13fe902f386b53a62ac5728e8e58a16d",
  "nextblockhash": "000000000a827cddf4a562109923ca8102421e7f3affcfd88c66c87d63959180",
  "strippedsize": 215,
  "size": 215,
  "weight": 860,
  "tx": [
    {
      "txid": "435264846bafdb75b931b2b1c01285432d957d70190e51a73c1565a7afbb1a5b",
      "hash": "435264846bafdb75b931b2b1c01285432d957d70190e51a73c1565a7afbb1a5b",
      "version": 1,
      "size": 134,
      "vsize": 134,
      "weight": 536,
      "locktime": 0,
      "vin": [
        {
          "coinbase": "04ffff001d010b",
          "sequence": 4294967295
        }
      ],
      "vout": [
        {
          "value": 50.0,
          "n": 0,
          "scriptPubKey": {
            "asm": "04851659a1420612c046fcd0085d884f185ce8b5da448c1b5e8735b4b13c5626841a2a172ba770df5e0ea0354562d939284fad9baef0cd1dbc43b69a5a963409c5 OP_CHECKSIG",
            "desc": "pk(04851659a1420612c046fcd0085d884f185ce8b5da448c1b5e8735b4b13c5626841a2a172ba770df5e0ea0354562d939284fad9baef0cd1dbc43b69a5a963409c5)#hfr2ycg3",
            "hex": "4104851659a1420612c046fcd0085d884f185ce8b5da448c1b5e8735b4b13c5626841a2a172ba770df5e0ea0354562d939284fad9baef0cd1dbc43b69a5a963409c5ac",
            "type": "pubkey"
          }
        }
      ],
      "hex": "01000000010000000000000000000000000000000000000000000000000000000000000000ffffffff0704ffff001d010bffffffff0100f2052a01000000434104851659a1420612c046fcd0085d884f185ce8b5da448c1b5e8735b4b13c5626841a2a172ba770df5e0ea0354562d939284fad9baef0cd1dbc43b69a5a963409c5ac00000000"
    }
  ]
}