{
  "hash": "0000000056715ad182f92728ad911ac9e5e7a2d5490b57d6a5b2001d049ee1ff",
  "confirmations": 44481,
  "height": 8617,
  "version": 1,
  "versionHex": "00000001",
  "merkleroot": "4901542097dccf0dd30d437fe512930326424e3d0b2a7551a70b971b0b360a0b",
  "time": 1237961205,
  "mediantime": 1237958006,
  "nonce": 2330836745,
  "bits": "1d00ffff",
  "difficulty": 1,
  "chainwork": "000000000000000000000000000000000000000000000000000021aa21aa21aa",
  "nTx": 1,
  "previousblockhash": "00000000cdaf56834e72c459dfa4ed9025b42e9fa5a86d5bde39f98b8848d0f1",
  "nextblockhash": "00000000b57cc4526ae7344fc61c79d936ea4cdc9a69f5800f9ec1a7c5c9a454",
  "strippedsize": 216,
  "size": 216,
  "weight": 864,
  "tx": [
    {
      "txid": "4901542097dccf0dd30d437fe512930326424e3d0b2a7551a70b971b0b360a0b",
      "hash": "4901542097dccf0dd30d437fe512930326424e3d0b2a7551a70b971b0b360a0b",
      "version": 1,
      "size": 135,
      "vsize": 135,
      "weight": 540,
      "locktime": 0,
      "vin": [
        {
          "coinbase": "04ffff001d02b909",
          "sequence": 4294967295
        }
      ],
      "vout": [
        {
          "value": 50.0,
          "n": 0,
          "scriptPubKey": {
            "asm": "04fe150c4aa9b91839a42dd629e45aeffe1a2f5d843e5d9c7b0d93706cb611ca28ff7005eedc7d6ed00c65b45d03c78ccbfabc13b18cc2bff4383498938881cc5a OP_CHECKSIG",
            "desc": "pk(04fe150c4aa9b91839a42dd629e45aeffe1a2f5d843e5d9c7b0d93706cb611ca28ff7005eedc7d6ed00c65b45d03c78ccbfabc13b18cc2bff4383498938881cc5a)#xns67g39",
            "hex": "4104fe150c4aa9b91839a42dd629e45aeffe1a2f5d843e5d9c7b0d93706cb611ca28ff7005eedc7d6ed00c65b45d03c78ccbfabc13b18cc2bff4383498938881cc5aac",
            "type": "pubkey"
          }
        }
      ],
      "hex": "01000000010000000000000000000000000000000000000000000000000000000000000000ffffffff0804ffff001d02b909ffffffff0100f2052a01000000434104fe150c4aa9b91839a42dd629e45aeffe1a2f5d843e5d9c7b0d93706cb611ca28ff7005eedc7d6ed00c65b45d03c78ccbfabc13b18cc2bff4383498938881cc5aac00000000"
    }
  ]
}