{
  "hash": "00000000ebd8c7431a6be90e160a05fb198de2ff29fd05aed72f924f8e61f26c",
  "confirmations": 47916,
  "height": 5182,
  "version": 1,
  "versionHex": "00000001",
  "merkleroot": "462f3e070c3f922f53e22645a5cfed7085d2b0bedbd1033b705349f35736203d",
  "time": 1235274673,
  "mediantime": 1235271178,
  "nonce": 2993308186,
  "bits": "1d00ffff",
  "difficulty": 1,
  "chainwork": "0000000000000000000000000000000000000000000000000000143f143f143f",
  "nTx": 1,
  "previousblockhash": "000000003d0a8d0328cde44b802768488fefe3c11a2f27c26716d2baad1b40ed",
  "nextblockhash": "0000000059896c850423261359ed330fb9ba2a0b981d75972d54096925aadc33",
  "strippedsize": 215,
  "size": 215,
  "weight": 860,
  "tx": [
    {
      "txid": "462f3e070c3f922f53e22645a5cfed7085d2b0bedbd1033b705349f35736203d",
      "hash": "462f3e070c3f922f53e22645a5cfed7085d2b0bedbd1033b705349f35736203d",
      "version": 1,
      "size": 134,
      "vsize": 134,
      "weight": 536,
      "locktime": 0,
      "vin": [
        {
          "coinbase": "04ffff001d013c",
          "sequence": 4294967295
        }
      ],
      "vout": [
        {
          "value": 50.0,
          "n": 0,
          "scriptPubKey": {
            "asm": "04f3d6bbff53e9865e5cc54381839465878424a3e2c914470a3cbbb9649aa889d35253228d51305a84f8dc712e4338803b8c2a57b5b3d91962b2ebd9a3e5f54f1f OP_CHECKSIG",
            "desc": "pk(04f3d6bbff53e9865e5cc54381839465878424a3e2c914470a3cbbb9649aa889d35253228d51305a84f8dc712e4338803b8c2a57b5b3d91962b2ebd9a3e5f54f1f)#nz8mjspn",
            "hex": "4104f3d6bbff53e9865e5cc54381839465878424a3e2c914470a3cbbb9649aa889d35253228d51305a84f8dc712e4338803b8c2a57b5b3d91962b2ebd9a3e5f54f1fac",
            "type": "pubkey"
          }
        }
      ],
      "hex": "01000000010000000000000000000000000000000000000000000000000000000000000000ffffffff0704ffff001d013cffffffff0100f2052a01000000434104f3d6bbff53e9865e5cc54381839465878424a3e2c914470a3cbbb9649aa889d35253228d51305a84f8dc712e4338803b8c2a57b5b3d91962b2ebd9a3e5f54f1fac00000000"
    }
  ]
}