{
  "hash": "00000000ffd27d3cd7323dfb9cfda5fb363cbfe283e7fb248a5bdab693055a60",
  "confirmations": 49758,
  "height": 3340,
  "version": 1,
  "versionHex": "00000001",
  "merkleroot": "81958bec381cf57594e54290ccd052c8f30bfba0fd1e9e43b51592e173c1c24c",
  "time": 1233994917,
  "mediantime": 1233990024,
  "nonce": 3900068655,
  "bits": "1d00ffff",
  "difficulty": 1,
  "chainwork": "00000000000000000000000000000000000000000000000000000d0d0d0d0d0d",
  "nTx": 1,
  "previousblockhash": "0000000007d690176bca8d3638d5907c4806f04fc88bbc2f28db8162fa10e995",
  "nextblockhash": "000000005f769a80286a09a6c2e630dd437442fdfd877e0076a6b077a6e1567b",
  "strippedsize": 216,
  "size": 216,
  "weight": 864,
  "tx": [
    {
      "txid": "81958bec381cf57594e54290ccd052c8f30bfba0fd1e9e43b51592e173c1c24c",
      "hash": "81958bec381cf57594e54290ccd052c8f30bfba0fd1e9e43b51592e173c1c24c",
      "version": 1,
      "size": 135,
      "vsize": 135,
      "weight": 540,
      "locktime": 0,
      "vin": [
        {
          "coinbase": "04ffff001d02f504",
          "sequence": 4294967295
        }
      ],
      "vout": [
        {
          "value": 50.0,
          "n": 0,
          "scriptPubKey": {
            "asm": "0449e40f7e387506809a08d11f7e571d6bd7cd178e17a96b63d968d6cb0526e9e78d9984d46cfc165788bacdd2aad1c6cdded8a4e9371f3e22ae569c119754bb6b OP_CHECKSIG",
            "desc": "pk(0449e40f7e387506809a08d11f7e571d6bd7cd178e17a96b63d968d6cb0526e9e78d9984d46cfc165788bacdd2aad1c6cdded8a4e9371f3e22ae569c119754bb6b)#0r3qdj8m",
            "hex": "410449e40f7e387506809a08d11f7e571d6bd7cd178e17a96b63d968d6cb0526e9e78d9984d46cfc165788bacdd2aad1c6cdded8a4e9371f3e22ae569c119754bb6bac",
            "type": "pubkey"
          }
        }
      ],
      "hex": "01000000010000000000000000000000000000000000000000000000000000000000000000ffffffff0804ffff001d02f504ffffffff0100f2052a0100000043410449e40f7e387506809a08d11f7e571d6bd7cd178e17a96b63d968d6cb0526e9e78d9984d46cfc165788bacdd2aad1c6cdded8a4e9371f3e22ae569c119754bb6bac00000000"
    }
  ]
}