{
  "hash": "000000008fdf75bf3564a69485c2e115e18c03dfb8f56c4966b739e41fa9af0e",
  "confirmations": 44073,
  "height": 9025,
  "version": 1,
  "versionHex": "00000001",
  "merkleroot": "eed705b5ea3f0da7161bc606df1a80924a187c65805ee7192acb0868367b045d",
  "time": 1238270263,
  "mediantime": 1238266212,
  "nonce": 2698314518,
  "bits": "1d00ffff",
  "difficulty": 1,
  "chainwork": "0000000000000000000000000000000000000000000000000000234223422342",
  "nTx": 1,
  "previousblockhash": "00000000871439443e783e896fff08e44631cb894ca229b1d0b1e32ad1ea2266",
  "nextblockhash": "0000000078e21b4a78a238207f0994ce13f7678448aa10e55a47a6529391ecfd",
  "strippedsize": 216,
  "size": 216,
  "weight": 864,
  "tx": [
    {
      "txid": "eed705b5ea3f0da7161bc606df1a80924a187c65805ee7192acb0868367b045d",
      "hash": "eed705b5ea3f0da7161bc606df1a80924a187c65805ee7192acb0868367b045d",
      "version": 1,
      "size": 135,
      "vsize": 135,
      "weight": 540,
      "locktime": 0,
      "vin": [
        {
          "coinbase": "04ffff001d02c606",
          "sequence": 4294967295
        }
      ],
      "vout": [
        {
          "value": 50.0,
          "n": 0,
          "scriptPubKey": {
            "asm": "04ebab6efa191310b8c09d34be4a1d349216a345747fabb3ee938b939234dd69fbd87278bc895ab6d73bb17f196a8f762eb0bead0437bb59f7ca5f4a9a386b66ad OP_CHECKSIG",
            "desc": "pk(04ebab6efa191310b8c09d34be4a1d349216a345747fabb3ee938b939234dd69fbd87278bc895ab6d73bb17f196a8f762eb0bead0437bb59f7ca5f4a9a386b66ad)#nk27dh5r",
            "hex": "4104ebab6efa191310b8c09d34be4a1d349216a345747fabb3ee938b939234dd69fbd87278bc895ab6d73bb17f196a8f762eb0bead0437bb59f7ca5f4a9a386b66adac",
            "type": "pubkey"
          }
        }
      ],
      "hex": "01000000010000000000000000000000000000000000000000000000000000000000000000ffffffff0804ffff001d02c606ffffffff0100f2052a01000000434104ebab6efa191310b8c09d34be4a1d349216a345747fabb3ee938b939234dd69fbd87278bc895ab6d73bb17f196a8f762eb0bead0437bb59f7ca5f4a9a386b66adac00000000"
    }
  ]
}