{
  "hash": "00000000e3efabf60693ecc2519c5f761801ccac25c2ac89e32d11dd92686854",
  "confirmations": 52053,
  "height": 172,
  "version": 1,
  "versionHex": "00000001",
  "merkleroot": "389cf9b9fc51d668dafb9dc6b9a24b8fddec5f035235a58d4a62919b39b078d5",
  "time": 1231731853,
  "mediantime": 1231716711,
  "nonce": 1565279797,
  "bits": "1d00ffff",
  "difficulty": 1,
  "chainwork": "000000000000000000000000000000000000000000000000000000ad00ad00ad",
  "nTx": 1,
  "previousblockhash": "00000000c9ec538cab7f38ef9c67a95742f56ab07b0a37c5be6b02808dbfb4e0",
  "nextblockhash": "00000000dce9d69decc221c128ef78c2ae3d0b43267891f1f078586b47ac85c5",
  "strippedsize": 215,
  "size": 215,
  "weight": 860,
  "tx": [
    {
      "txid": "389cf9b9fc51d668dafb9dc6b9a24b8fddec5f035235a58d4a62919b39b078d5",
      "hash": "389cf9b9fc51d668dafb9dc6b9a24b8fddec5f035235a58d4a62919b39b078d5",
      "version": 1,
      "size": 134,
      "vsize": 134,
      "weight": 536,
      "locktime": 0,
      "vin": [
        {
          "coinbase": "04ffff001d0106",
          "sequence": 4294967295
        }
      ],
      "vout": [
        {
          "value": 50.0,
          "n": 0,
          "scriptPubKey": {
            "asm": "044c718603ac207940cfce606b414b42b7cb10abbc714fe44f42f1c10a9990fb0f7202838cfb4fb8512f884ee3e2f47d55992d916880a2c6b46e254d86cd5952b3 OP_CHECKSIG",
            "desc": "pk(044c718603ac207940cfce606b414b42b7cb10abbc714fe44f42f1c10a9990fb0f7202838cfb4fb8512f884ee3e2f47d55992d916880a2c6b46e254d86cd5952b3)#4yykfd33",
            "hex": "41044c718603ac207940cfce606b414b42b7cb10abbc714fe44f42f1c10a9990fb0f7202838cfb4fb8512f884ee3e2f47d55992d916880a2c6b46e254d86cd5952b3ac",
            "type": "pubkey"
          }
        }
      ],
      "hex": "01000000010000000000000000000000000000000000000000000000000000000000000000ffffffff0704ffff001d0106ffffffff0100f2052a010000004341044c718603ac207940cfce606b414b42b7cb10abbc714fe44f42f1c10a9990fb0f7202838cfb4fb8512f884ee3e2f47d55992d916880a2c6b46e254d86cd5952b3ac00000000"
    }
  ]
}