{
  "hash": "00000000b737d259bd94e4eb445296436f3c8681edd6365aa20fba896b13da0b",
  "confirmations": 50053,
  "height": 3045,
  "version": 1,
  "versionHex": "00000001",
  "merkleroot": "2f7ee38af695c70bdb43b33048e87fe58927d0c36c6dcec0cf73c8b08d31a49f",
  "time": 1233792939,
  "mediantime": 1233790027,
  "nonce": 1745506309,
  "bits": "1d00ffff",
  "difficulty": 1,
  "chainwork": "00000000000000000000000000000000000000000000000000000be60be60be6",
  "nTx": 1,
  "previousblockhash": "000000008ff7dcd02bd4a92a9047ddb42e2d4c0807d972803729316e20c9ccec",
  "nextblockhash": "000000004716dcc15195dc344aa7bfe1df816d21509424e930cb7b94413b4b10",
  "strippedsize": 215,
  "size": 215,
  "weight": 860,
  "tx": [
    {
      "txid": "2f7ee38af695c70bdb43b33048e87fe58927d0c36c6dcec0cf73c8b08d31a49f",
      "hash": "2f7ee38af695c70bdb43b33048e87fe58927d0c36c6dcec0cf73c8b08d31a49f",
      "version": 1,
      "size": 134,
      "vsize": 134,
      "weight": 536,
      "locktime": 0,
      "vin": [
        {
          "coinbase": "04ffff001d0121",
          "sequence": 4294967295
        }
      ],
      "vout": [
        {
          "value": 50.0,
          "n": 0,
          "scriptPubKey": {
            "asm": "04db284dbb6b337798f2a2f45e84c4d77bc012f28f0e6c9280f1dbef55d2d998296b2796c29966178926485314cc91776b54dd824188ea86b05e8807da50dc4d29 OP_CHECKSIG",
            "desc": "pk(04db284dbb6b337798f2a2f45e84c4d77bc012f28f0e6c9280f1dbef55d2d998296b2796c29966178926485314cc91776b54dd824188ea86b05e8807da50dc4d29)#u47e5nfx",
            "hex": "4104db284dbb6b337798f2a2f45e84c4d77bc012f28f0e6c9280f1dbef55d2d998296b2796c29966178926485314cc91776b54dd824188ea86b05e8807da50dc4d29ac",
            "type": "pubkey"
          }
        }
      ],
      "hex": "01000000010000000000000000000000000000000000000000000000000000000000000000ffffffff0704ffff001d0121ffffffff0100f2052a01000000434104db284dbb6b337798f2a2f45e84c4d77bc012f28f0e6c9280f1dbef55d2d998296b2796c29966178926485314cc91776b54dd824188ea86b05e8807da50dc4d29ac00000000"
    }
  ]
}