{
  "hash": "00000000113fc1ffd1e47d79786edebea211d22d9dc608850cd980ffc9023da4",
  "confirmations": 50129,
  "height": 2969,
  "version": 1,
  "versionHex": "00000001",
  "merkleroot": "96004904ae6fac1b4b1b6bf594d7d402e28f0d0b67d59a5477a05b619d0dcc3f",
  "time": 1233740277,
  "mediantime": 1233735932,
  "nonce": 2194289175,
  "bits": "1d00ffff",
  "difficulty": 1,
  "chainwork": "00000000000000000000000000000000000000000000000000000b9a0b9a0b9a",
  "nTx": 1,
  "previousblockhash": "000000006786272f2f84e16361158797a4193d0129d7aa13d644762249837e50",
  "nextblockhash": "000000005b718997744bc4d45b0f5106db14ea7e84ebbb00ed074c4e40094baa",
  "strippedsize": 216,
  "size": 216,
  "weight": 864,
  "tx": [
    {
      "txid": "96004904ae6fac1b4b1b6bf594d7d402e28f0d0b67d59a5477a05b619d0dcc3f",
      "hash": "96004904ae6fac1b4b1b6bf594d7d402e28f0d0b67d59a5477a05b619d0dcc3f",
      "version": 1,
      "size": 135,
      "vsize": 135,
      "weight": 540,
      "locktime": 0,
      "vin": [
        {
          "coinbase": "04ffff001d02de00",
          "sequence": 4294967295
        }
      ],
      "vout": [
        {
          "value": 50.0,
          "n": 0,
          "scriptPubKey": {
            "asm": "045041849821725db9d911d81c2fc31b541879c0e1fa8405f1383699564ce088ec7fa4e7c92fb475c896d3b3ce49845f740c2575822cc4538118fccef0af16c7db OP_CHECKSIG",
            "desc": "pk(045041849821725db9d911d81c2fc31b541879c0e1fa8405f1383699564ce088ec7fa4e7c92fb475c896d3b3ce49845f740c2575822cc4538118fccef0af16c7db)#5d7268su",
            "hex": "41045041849821725db9d911d81c2fc31b541879c0e1fa8405f1383699564ce088ec7fa4e7c92fb475c896d3b3ce49845f740c2575822cc4538118fccef0af16c7dbac",
            "type": "pubkey"
          }
        }
      ],
      "hex": "01000000010000000000000000000000000000000000000000000000000000000000000000ffffffff0804ffff001d02de00ffffffff0100f2052a010000004341045041849821725db9d911d81c2fc31b541879c0e1fa8405f1383699564ce088ec7fa4e7c92fb475c896d3b3ce49845f740c2575822cc4538118fccef0af16c7dbac00000000"
    }
  ]
}