{
  "hash": "000000000035f4cce8ac52847b6618f8bd3f53d501dc6a006839a0963a8f6f6e",
  "confirmations": 49768,
  "height": 3330,
  "version": 1,
  "versionHex": "00000001",
  "merkleroot": "1a7ec22e3032d16d1310ab84bbfb0e9f75afdc28e0a00da3c7ff2d69f40ef222",
  "time": 1233987408,
  "mediantime": 1233983729,
  "nonce": 1261182511,
  "bits": "1d00ffff",
  "difficulty": 1,
  "chainwork": "00000000000000000000000000000000000000000000000000000d030d030d03",
  "nTx": 1,
  "previousblockhash": "000000000facf3d80ce6b133c757b7080454e83120539a962d4939efa244dbc2",
  "nextblockhash": "000000008ee77e89497155b486b401f7024a071124905621a04d94cd14274e4e",
  "strippedsize": 216,
  "size": 216,
  "weight": 864,
  "tx": [
    {
      "txid": "1a7ec22e3032d16d1310ab84bbfb0e9f75afdc28e0a00da3c7ff2d69f40ef222",
      "hash": "1a7ec22e3032d16d1310ab84bbfb0e9f75afdc28e0a00da3c7ff2d69f40ef222",
      "version": 1,
      "size": 135,
      "vsize": 135,
      "weight": 540,
      "locktime": 0,
      "vin": [
        {
          "coinbase": "04ffff001d02cf04",
          "sequence": 4294967295
        }
      ],
      "vout": [
        {
          "value": 50.0,
          "n": 0,
          "scriptPubKey": {
            "asm": "046f1a071c5b3084242ac783ce6acda8ed47086f99bafe99222bbb2bf9eab2a88b1dfcc98499ebf11aa5f8806020d33d946029199f4dbcaf42c39aa802221f68d5 OP_CHECKSIG",
            "desc": "pk(046f1a071c5b3084242ac783ce6acda8ed47086f99bafe99222bbb2bf9eab2a88b1dfcc98499ebf11aa5f8806020d33d946029199f4dbcaf42c39aa802221f68d5)#xqpvvrqc",
            "hex": "41046f1a071c5b3084242ac783ce6acda8ed47086f99bafe99222bbb2bf9eab2a88b1dfcc98499ebf11aa5f8806020d33d946029199f4dbcaf42c39aa802221f68d5ac",
            "type": "pubkey"
          }
        }
      ],
      "hex": "01000000010000000000000000000000000000000000000000000000000000000000000000ffffffff0804ffff001d02cf04ffffffff0100f2052a010000004341046f1a071c5b3084242ac783ce6acda8ed47086f99bafe99222bbb2bf9eab2a88b1dfcc98499ebf11aa5f8806020d33d946029199f4dbcaf42c39aa802221f68d5ac00000000"
    }
  ]
}