{
  "hash": "00000000310ac14a0f1fc6adfbdddfecd334a884315fa4373a80b9e46b3e7704",
  "confirmations": 49799,
  "height": 3299,
  "version": 1,
  "versionHex": "00000001",
  "merkleroot": "275126aa494f50c4bf320b0cee8c35445a15c5954fad0f2f4c416e6834a71eb0",
  "time": 1233968260,
  "mediantime": 1233966537,
  "nonce": 3279800358,
  "bits": "1d00ffff",
  "difficulty": 1,
  "chainwork": "00000000000000000000000000000000000000000000000000000ce40ce40ce4",
  "nTx": 1,
  "previousblockhash": "0000000009b872c83e6911694e0af5989fa0c8fd958f1d741629da4c32d53001",
  "nextblockhash": "00000000e5a427932794530bbadc6a9a6c354f030da4cd9b5765d866b51502fd",
  "strippedsize": 216,
  "size": 216,
  "weight": 864,
  "tx": [
    {
      "txid": "275126aa494f50c4bf320b0cee8c35445a15c5954fad0f2f4c416e6834a71eb0",
      "hash": "275126aa494f50c4bf320b0cee8c35445a15c5954fad0f2f4c416e6834a71eb0",
      "version": 1,
      "size": 135,
      "vsize": 135,
      "weight": 540,
      "locktime": 0,
      "vin": [
        {
          "coinbase": "04ffff001d022e04",
          "sequence": 4294967295
        }
      ],
      "vout": [
        {
          "value": 50.0,
          "n": 0,
          "scriptPubKey": {
            "asm": "04a8767905911c5e5f9c1391a650ca974f9c5eadbe62e05762c0ccb0ffd96697ba5f74f2e541069bb922cfabc4f63d689110bea750b25ec8dd83215210122caee2 OP_CHECKSIG",
            "desc": "pk(04a8767905911c5e5f9c1391a650ca974f9c5eadbe62e05762c0ccb0ffd96697ba5f74f2e541069bb922cfabc4f63d689110bea750b25ec8dd83215210122caee2)#u6mrqjke",
            "hex": "4104a8767905911c5e5f9c1391a650ca974f9c5eadbe62e05762c0ccb0ffd96697ba5f74f2e541069bb922cfabc4f63d689110bea750b25ec8dd83215210122caee2ac",
            "type": "pubkey"
          }
        }
      ],
      "hex": "01000000010000000000000000000000000000000000000000000000000000000000000000ffffffff0804ffff001d022e04ffffffff0100f2052a01000000434104a8767905911c5e5f9c1391a650ca974f9c5eadbe62e05762c0ccb0ffd96697ba5f74f2e541069bb922cfabc4f63d689110bea750b25ec8dd83215210122caee2ac00000000"
    }
  ]
}