{
  "hash": "00000000df876b240d833725492cff229b57ce6cd27f23e55eb972c992fb099f",
  "confirmations": 52560,
  "height": 521,
  "version": 1,
  "versionHex": "00000001",
  "merkleroot": "ade2de2bb77312dbd4ebd7171291701010c0f935e985581fd777da7281901bbf",
  "time": 1231982645,
  "mediantime": 1231979190,
  "nonce": 71119706,
  "bits": "1d00ffff",
  "difficulty": 1,
  "chainwork": "0000000000000000000000000000000000000000000000000000020a020a020a",
  "nTx": 1,
  "previousblockhash": "00000000d9934c6ea6d0ab6c209227622bab36973bf2f8519d56de8e490c5381",
  "nextblockhash": "00000000a258ca4d95258d15db20e5305082039c75e33d8b954eea3dcad14d88",
  "strippedsize": 216,
  "size": 216,
  "weight": 864,
  "tx": [
    {
      "txid": "ade2de2bb77312dbd4ebd7171291701010c0f935e985581fd777da7281901bbf",
      "hash": "ade2de2bb77312dbd4ebd7171291701010c0f935e985581fd777da7281901bbf",
      "version": 1,
      "size": 135,
      "vsize": 135,
      "weight": 540,
      "locktime": 0,
      "vin": [
        {
          "coinbase": "04ffff001d028900",
          "sequence": 4294967295
        }
      ],
      "vout": [
        {
          "value": 50.0,
          "n": 0,
          "scriptPubKey": {
            "asm": "044889c277d5191153701e0e686d6388c7e427087f716b079d8697583cba7cd6c66ca44791286cc5a69eb6b61ef9fb88a4315ba6bac75d17ec114d2168bedebda7 OP_CHECKSIG",
            "desc": "pk(044889c277d5191153701e0e686d6388c7e427087f716b079d8697583cba7cd6c66ca44791286cc5a69eb6b61ef9fb88a4315ba6bac75d17ec114d2168bedebda7)#epkkrhsm",
            "hex": "41044889c277d5191153701e0e686d6388c7e427087f716b079d8697583cba7cd6c66ca44791286cc5a69eb6b61ef9fb88a4315ba6bac75d17ec114d2168bedebda7ac",
            "type": "pubkey"
          }
        }
      ],
      "hex": "01000000010000000000000000000000000000000000000000000000000000000000000000ffffffff0804ffff001d028900ffffffff0100f2052a010000004341044889c277d5191153701e0e686d6388c7e427087f716b079d8697583cba7cd6c66ca44791286cc5a69eb6b61ef9fb88a4315ba6bac75d17ec114d2168bedebda7ac00000000"
    }
  ]
}