{
  "hash": "000000007964a0e8b97bbea93e937c63d4097c42ccb4db464b1ab3047c62869c",
  "confirmations": 52055,
  "height": 281,
  "version": 1,
  "versionHex": "00000001",
  "merkleroot": "b87618c8c871b2566e0dfab21358beab731a47e13e029acc9ecd7318aa73777f",
  "time": 1231817659,
  "mediantime": 1231813196,
  "nonce": 3579397684,
  "bits": "1d00ffff",
  "difficulty": 1,
  "chainwork": "0000000000000000000000000000000000000000000000000000011a011a011a",
  "nTx": 1,
  "previousblockhash": "00000000b7686b0bbdcdbbc233c818e60afd3a62564ec7a672836d609b50c718",
  "nextblockhash": "0000000025f2bb2ee58597083e13079899ecc6f2bb7e8bfd57e66b324b05d654",
  "strippedsize": 215,
  "size": 215,
  "weight": 860,
  "tx": [
    {
      "txid": "b87618c8c871b2566e0dfab21358beab731a47e13e029acc9ecd7318aa73777f",
      "hash": "b87618c8c871b2566e0dfab21358beab731a47e13e029acc9ecd7318aa73777f",
      "version": 1,
      "size": 134,
      "vsize": 134,
      "weight": 536,
      "locktime": 0,
      "vin": [
        {
          "coinbase": "04ffff001d010d",
          "sequence": 4294967295
        }
      ],
      "vout": [
        {
          "value": 50.0,
          "n": 0,
          "scriptPubKey": {
            "asm": "0432b7920f5d152c3ba4342b6510a58dfc3a8868c9c0027c906f03643141b3f640b812b2e76ff68154bb26bfbf8daba1f4f14d0ace988ae3f6889145a28d47f17d OP_CHECKSIG",
            "desc": "pk(0432b7920f5d152c3ba4342b6510a58dfc3a8868c9c0027c906f03643141b3f640b812b2e76ff68154bb26bfbf8daba1f4f14d0ace988ae3f6889145a28d47f17d)#k78s7vdh",
            "hex": "410432b7920f5d152c3ba4342b6510a58dfc3a8868c9c0027c906f03643141b3f640b812b2e76ff68154bb26bfbf8daba1f4f14d0ace988ae3f6889145a28d47f17dac",
            "type": "pubkey"
          }
        }
      ],
      "hex": "01000000010000000000000000000000000000000000000000000000000000000000000000ffffffff0704ffff001d010dffffffff0100f2052a0100000043410432b7920f5d152c3ba4342b6510a58dfc3a8868c9c0027c906f03643141b3f640b812b2e76ff68154bb26bfbf8daba1f4f14d0ace988ae3f6889145a28d47f17dac00000000"
    }
  ]
}