{
  "hash": "000000004500ec9713489276e420b5e13a256526f4937c71760b7ebc8e613444",
  "confirmations": 47450,
  "height": 5648,
  "version": 1,
  "versionHex": "00000001",
  "merkleroot": "53021116875d4aa0aec9b24bdad00fcdc5d6297955e870273059ba73ba1b07ad",
  "time": 1235646651,
  "mediantime": 1235640637,
  "nonce": 1387764772,
  "bits": "1d00ffff",
  "difficulty": 1,
  "chainwork": "0000000000000000000000000000000000000000000000000000161116111611",
  "nTx": 1,
  "previousblockhash": "0000000037d7365c2c14c5a0345b430dc55ee9ab4a49d92b3d0e3a0646d0e59d",
  "nextblockhash": "00000000e2df7c3a57707749cb968329205d83b27667063bd00fefe73712b941",
  "strippedsize": 216,
  "size": 216,
  "weight": 864,
  "tx": [
    {
      "txid": "53021116875d4aa0aec9b24bdad00fcdc5d6297955e870273059ba73ba1b07ad",
      "hash": "53021116875d4aa0aec9b24bdad00fcdc5d6297955e870273059ba73ba1b07ad",
      "version": 1,
      "size": 135,
      "vsize": 135,
      "weight": 540,
      "locktime": 0,
      "vin": [
        {
          "coinbase": "04ffff001d02aa08",
          "sequence": 4294967295
        }
      ],
      "vout": [
        {
          "value": 50.0,
          "n": 0,
          "scriptPubKey": {
            "asm": "0489a680cfecfbbfe870b33abe7ccdfb75ba28ff750756dafa1f875568d08ae99ac184aec2899887ca79bfac9e895c318dc1a3a611df235286b594337df7278f30 OP_CHECKSIG",
            "desc": "pk(0489a680cfecfbbfe870b33abe7ccdfb75ba28ff750756dafa1f875568d08ae99ac184aec2899887ca79bfac9e895c318dc1a3a611df235286b594337df7278f30)#98vs3enl",
            "hex": "410489a680cfecfbbfe870b33abe7ccdfb75ba28ff750756dafa1f875568d08ae99ac184aec2899887ca79bfac9e895c318dc1a3a611df235286b594337df7278f30ac",
            "type": "pubkey"
          }
        }
      ],
      "hex": "01000000010000000000000000000000000000000000000000000000000000000000000000ffffffff0804ffff001d02aa08ffffffff0100f2052a0100000043410489a680cfecfbbfe870b33abe7ccdfb75ba28ff750756dafa1f875568d08ae99ac184aec2899887ca79bfac9e895c318dc1a3a611df235286b594337df7278f30ac00000000"
    }
  ]
}