{
  "hash": "000000000f2b2d53f572fb68e3a085b6375370b7e9099379633d1de51f6fa810",
  "confirmations": 45652,
  "height": 7446,
  "version": 1,
  "versionHex": "00000001",
  "merkleroot": "99b8c006e1a12e8207c755fee89336f5fd15beb3a2d57c2cb75a6dc1098b76c9",
  "time": 1237058727,
  "mediantime": 1237053254,
  "nonce": 1144601634,
  "bits": "1d00ffff",
  "difficulty": 1,
  "chainwork": "00000000000000000000000000000000000000000000000000001d171d171d17",
  "nTx": 1,
  "previousblockhash": "000000005401086bc69a6bd6d9b58b0de1ec274d1789ca42b359dd9897aa8b59",
  "nextblockhash": "0000000070eabb853f079c6f1462ef8beca70bac775ce55a13f193fbd7362299",
  "strippedsize": 215,
  "size": 215,
  "weight": 860,
  "tx": [
    {
      "txid": "99b8c006e1a12e8207c755fee89336f5fd15beb3a2d57c2cb75a6dc1098b76c9",
      "hash": "99b8c006e1a12e8207c755fee89336f5fd15beb3a2d57c2cb75a6dc1098b76c9",
      "version": 1,
      "size": 134,
      "vsize": 134,
      "weight": 536,
      "locktime": 0,
      "vin": [
        {
          "coinbase": "04ffff001d0112",
          "sequence": 4294967295
        }
      ],
      "vout": [
        {
          "value": 50.0,
          "n": 0,
          "scriptPubKey": {
            "asm": "047e79fe8f850b35f0e78e463ef7df6b6d8de7f1d79f3069360b187d71746b33a74549c5b727cf4d292826448b1fc58ea732356b1cb08b4f9c378c5493ffb6a43a OP_CHECKSIG",
            "desc": "pk(047e79fe8f850b35f0e78e463ef7df6b6d8de7f1d79f3069360b187d71746b33a74549c5b727cf4d292826448b1fc58ea732356b1cb08b4f9c378c5493ffb6a43a)#ux0rhcwn",
            "hex": "41047e79fe8f850b35f0e78e463ef7df6b6d8de7f1d79f3069360b187d71746b33a74549c5b727cf4d292826448b1fc58ea732356b1cb08b4f9c378c5493ffb6a43aac",
            "type": "pubkey"
          }
        }
      ],
      "hex": "01000000010000000000000000000000000000000000000000000000000000000000000000ffffffff0704ffff001d0112ffffffff0100f2052a010000004341047e79fe8f850b35f0e78e463ef7df6b6d8de7f1d79f3069360b187d71746b33a74549c5b727cf4d292826448b1fc58ea732356b1cb08b4f9c378c5493ffb6a43aac00000000"
    }
  ]
}