{
  "hash": "000000006aaf40fd3d8ec376557c446d56be3048e3e50e80270da1f88f1671cc",
  "confirmations": 46468,
  "height": 6630,
  "version": 1,
  "versionHex": "00000001",
  "merkleroot": "799ba949cd684cdf351a447a6b9b8f379f4afbbc9b3e3ff42e934e4d3f020566",
  "time": 1236426440,
  "mediantime": 1236422582,
  "nonce": 2055615543,
  "bits": "1d00ffff",
  "difficulty": 1,
  "chainwork": "000000000000000000000000000000000000000000000000000019e719e719e7",
  "nTx": 1,
  "previousblockhash": "00000000641089c958685df21d0ac747441faf8c2c67cb0ac7060e9c1979030f",
  "nextblockhash": "000000005b4e0da997d959ea2186bb4973d151f2430b653be57b71d4061bb2a6",
  "strippedsize": 216,
  "size": 216,
  "weight": 864,
  "tx": [
    {
      "txid": "799ba949cd684cdf351a447a6b9b8f379f4afbbc9b3e3ff42e934e4d3f020566",
      "hash": "799ba949cd684cdf351a447a6b9b8f379f4afbbc9b3e3ff42e934e4d3f020566",
      "version": 1,
      "size": 135,
      "vsize": 135,
      "weight": 540,
      "locktime": 0,
      "vin": [
        {
          "coinbase": "04ffff001d02a905",
          "sequence": 4294967295
        }
      ],
      "vout": [
        {
          "value": 50.0,
          "n": 0,
          "scriptPubKey": {
            "asm": "04fd0fd52d8df04d0ff86181070a0ed21ce80d0fa6b45df0e17d93baf3de7b1f13109ad157583b59e639b91188431de6ccb60985de9dd51db9eb90d9cd6827fe14 OP_CHECKSIG",
            "desc": "pk(04fd0fd52d8df04d0ff86181070a0ed21ce80d0fa6b45df0e17d93baf3de7b1f13109ad157583b59e639b91188431de6ccb60985de9dd51db9eb90d9cd6827fe14)#5f3r80uu",
            "hex": "4104fd0fd52d8df04d0ff86181070a0ed21ce80d0fa6b45df0e17d93baf3de7b1f13109ad157583b59e639b91188431de6ccb60985de9dd51db9eb90d9cd6827fe14ac",
            "type": "pubkey"
          }
        }
      ],
      "hex": "01000000010000000000000000000000000000000000000000000000000000000000000000ffffffff0804ffff001d02a905ffffffff0100f2052a01000000434104fd0fd52d8df04d0ff86181070a0ed21ce80d0fa6b45df0e17d93baf3de7b1f13109ad157583b59e639b91188431de6ccb60985de9dd51db9eb90d9cd6827fe14ac00000000"
    }
  ]
}