{
  "hash": "00000000cbaf0ee85c41dae62e6898ea29801106c24c382c2d29d16c3aee12ba",
  "confirmations": 52311,
  "height": 787,
  "version": 1,
  "versionHex": "00000001",
  "merkleroot": "ca68250566bf272a6c9aa65c5c9404baaf20ae594faaa7e0d2720ba3c1c27da0",
  "time": 1232180879,
  "mediantime": 1232177092,
  "nonce": 140256465,
  "bits": "1d00ffff",
  "difficulty": 1,
  "chainwork": "0000000000000000000000000000000000000000000000000000031403140314",
  "nTx": 1,
  "previousblockhash": "00000000f6df91f727f4554d0f020cf785d689302a2cc5f6542b1f88bfcaf110",
  "nextblockhash": "000000006361e8cb18ad62a2bce6f71080e3c149c07c9f5df84dd947e5d864f7",
  "strippedsize": 215,
  "size": 215,
  "weight": 860,
  "tx": [
    {
      "txid": "ca68250566bf272a6c9aa65c5c9404baaf20ae594faaa7e0d2720ba3c1c27da0",
      "hash": "ca68250566bf272a6c9aa65c5c9404baaf20ae594faaa7e0d2720ba3c1c27da0",
      "version": 1,
      "size": 134,
      "vsize": 134,
      "weight": 536,
      "locktime": 0,
      "vin": [
        {
          "coinbase": "04ffff001d016f",
          "sequence": 4294967295
        }
      ],
      "vout": [
        {
          "value": 50.0,
          "n": 0,
          "scriptPubKey": {
            "asm": "046ae8897930a3ac0e84f589b38ba9620d1865d51e015448b09535bd0d066a926750202bc61fab4c7cae7d0da7d987bcd8bc4ea49e2f9caa7de45e1608e431e60d OP_CHECKSIG",
            "desc": "pk(046ae8897930a3ac0e84f589b38ba9620d1865d51e015448b09535bd0d066a926750202bc61fab4c7cae7d0da7d987bcd8bc4ea49e2f9caa7de45e1608e431e60d)#f9rgt6md",
            "hex": "41046ae8897930a3ac0e84f589b38ba9620d1865d51e015448b09535bd0d066a926750202bc61fab4c7cae7d0da7d987bcd8bc4ea49e2f9caa7de45e1608e431e60dac",
            "type": "pubkey"
          }
        }
      ],
      "hex": "01000000010000000000000000000000000000000000000000000000000000000000000000ffffffff0704ffff001d016fffffffff0100f2052a010000004341046ae8897930a3ac0e84f589b38ba9620d1865d51e015448b09535bd0d066a926750202bc61fab4c7cae7d0da7d987bcd8bc4ea49e2f9caa7de45e1608e431e60dac00000000"
    }
  ]
}