{
  "hash": "0000000024aa969ed9f1406a2b4b49f17b47a73e5fa573773ffcb7ceae9f6adf",
  "confirmations": 45379,
  "height": 7719,
  "version": 1,
  "versionHex": "00000001",
  "merkleroot": "09a5273fe595293c244a79ea2252e3d32632f31f9d936c3cfcab902bfe5bd807",
  "time": 1237253459,
  "mediantime": 1237249527,
  "nonce": 49877300,
  "bits": "1d00ffff",
  "difficulty": 1,
  "chainwork": "00000000000000000000000000000000000000000000000000001e281e281e28",
  "nTx": 1,
  "previousblockhash": "000000000962984c4d1cc6d4508fd134269542924a0c3c92fe904af741627297",
  "nextblockhash": "00000000094ac9d8cfd71baeb92f12caf29c7f7f4241da712736b943e4880ef9",
  "strippedsize": 216,
  "size": 216,
  "weight": 864,
  "tx": [
    {
      "txid": "09a5273fe595293c244a79ea2252e3d32632f31f9d936c3cfcab902bfe5bd807",
      "hash": "09a5273fe595293c244a79ea2252e3d32632f31f9d936c3cfcab902bfe5bd807",
      "version": 1,
      "size": 135,
      "vsize": 135,
      "weight": 540,
      "locktime": 0,
      "vin": [
        {
          "coinbase": "04ffff001d02d808",
          "sequence": 4294967295
        }
      ],
      "vout": [
        {
          "value": 50.0,
          "n": 0,
          "scriptPubKey": {
            "asm": "04fd0fc2a5f61b34de9c9d96eeb1864174f6a176d0887c5415a916fe13a87b5f9c3a09c94a795e576d77fd414485f7637a2bc359570d2a89fff43a7ec940b7f47c OP_CHECKSIG",
            "desc": "pk(04fd0fc2a5f61b34de9c9d96eeb1864174f6a176d0887c5415a916fe13a87b5f9c3a09c94a795e576d77fd414485f7637a2bc359570d2a89fff43a7ec940b7f47c)#g5lygmsz",
            "hex": "4104fd0fc2a5f61b34de9c9d96eeb1864174f6a176d0887c5415a916fe13a87b5f9c3a09c94a795e576d77fd414485f7637a2bc359570d2a89fff43a7ec940b7f47cac",
            "type": "pubkey"
          }
        }
      ],
      "hex": "01000000010000000000000000000000000000000000000000000000000000000000000000ffffffff0804ffff001d02d808ffffffff0100f2052a01000000434104fd0fc2a5f61b34de9c9d96eeb1864174f6a176d0887c5415a916fe13a87b5f9c3a09c94a795e576d77fd414485f7637a2bc359570d2a89fff43a7ec940b7f47cac00000000"
    }
  ]
}