{
  "hash": "000000008e1bd9998d126a037a31e20c2be174f6c760ba32d1cfe2498f570cc7",
  "confirmations": 52446,
  "height": 652,
  "version": 1,
  "versionHex": "00000001",
  "merkleroot": "3701062be62913c74ecc3095e70736891ee3e5714af53718daf56ed436c30a87",
  "time": 1232070480,
  "mediantime": 1232066628,
  "nonce": 2903601436,
  "bits": "1d00ffff",
  "difficulty": 1,
  "chainwork": "0000000000000000000000000000000000000000000000000000028d028d028d",
  "nTx": 1,
  "previousblockhash": "000000002b5e03ee6029c1f5703b7baaf097630ca55f91d93ddd412eb0d054e5",
  "nextblockhash": "00000000563679ac0304f948a6a515b06077b3b6ef118036d9dbe4ef32122597",
  "strippedsize": 216,
  "size": 216,
  "weight": 864,
  "tx": [
    {
      "txid": "3701062be62913c74ecc3095e70736891ee3e5714af53718daf56ed436c30a87",
      "hash": "3701062be62913c74ecc3095e70736891ee3e5714af53718daf56ed436c30a87",
      "version": 1,
      "size": 135,
      "vsize": 135,
      "weight": 540,
      "locktime": 0,
      "vin": [
        {
          "coinbase": "04ffff001d028907",
          "sequence": 4294967295
        }
      ],
      "vout": [
        {
          "value": 50.0,
          "n": 0,
          "scriptPubKey": {
            "asm": "04c11f4418d1757ed8e93339646e4634a079f99e8c2f8265f06c96f1f16ab562ba5201274fd87a9a0a5d5c0349b2ff0b6fb7f72313084c6e42fa7cd47763b28c13 OP_CHECKSIG",
            "desc": "pk(04c11f4418d1757ed8e93339646e4634a079f99e8c2f8265f06c96f1f16ab562ba5201274fd87a9a0a5d5c0349b2ff0b6fb7f72313084c6e42fa7cd47763b28c13)#hm3w3yve",
            "hex": "4104c11f4418d1757ed8e93339646e4634a079f99e8c2f8265f06c96f1f16ab562ba5201274fd87a9a0a5d5c0349b2ff0b6fb7f72313084c6e42fa7cd47763b28c13ac",
            "type": "pubkey"
          }
        }
      ],
      "hex": "01000000010000000000000000000000000000000000000000000000000000000000000000ffffffff0804ffff001d028907ffffffff0100f2052a01000000434104c11f4418d1757ed8e93339646e4634a079f99e8c2f8265f06c96f1f16ab562ba5201274fd87a9a0a5d5c0349b2ff0b6fb7f72313084c6e42fa7cd47763b28c13ac00000000"
    }
  ]
}