{
  "hash": "000000008aa571cc43317ac88bfc1a9a9debb8e227220f23c94450d0ca1384d3",
  "confirmations": 49827,
  "height": 3271,
  "version": 1,
  "versionHex": "00000001",
  "merkleroot": "1c66df354620e9fad3266c51af960d8bf9ddcf3fd67be037c797d3953bf26bf8",
  "time": 1233950059,
  "mediantime": 1233945891,
  "nonce": 1050053166,
  "bits": "1d00ffff",
  "difficulty": 1,
  "chainwork": "00000000000000000000000000000000000000000000000000000cc80cc80cc8",
  "nTx": 1,
  "previousblockhash": "000000003a1fa07baf049c20679908fce24dd8b06bfce964687b893090fa2b22",
  "nextblockhash": "000000007b260f7a9713a81b16be88354602a146d72cd4c4e802f06df246b5cb",
  "strippedsize": 216,
  "size": 216,
  "weight": 864,
  "tx": [
    {
      "txid": "1c66df354620e9fad3266c51af960d8bf9ddcf3fd67be037c797d3953bf26bf8",
      "hash": "1c66df354620e9fad3266c51af960d8bf9ddcf3fd67be037c797d3953bf26bf8",
      "version": 1,
      "size": 135,
      "vsize": 135,
      "weight": 540,
      "locktime": 0,
      "vin": [
        {
          "coinbase": "04ffff001d02c803",
          "sequence": 4294967295
        }
      ],
      "vout": [
        {
          "value": 50.0,
          "n": 0,
          "scriptPubKey": {
            "asm": "045524938cf9fc3533c18787f6319c953cf1d194addcce306cb8431333168638a8c98c09233247d3759e87bc5fa74ce7b91beb9d00a454a47b631fa951b258c310 OP_CHECKSIG",
            "desc": "pk(045524938cf9fc3533c18787f6319c953cf1d194addcce306cb8431333168638a8c98c09233247d3759e87bc5fa74ce7b91beb9d00a454a47b631fa951b258c310)#h9ka9rht",
            "hex": "41045524938cf9fc3533c18787f6319c953cf1d194addcce306cb8431333168638a8c98c09233247d3759e87bc5fa74ce7b91beb9d00a454a47b631fa951b258c310ac",
            "type": "pubkey"
          }
        }
      ],
      "hex": "01000000010000000000000000000000000000000000000000000000000000000000000000ffffffff0804ffff001d02c803ffffffff0100f2052a010000004341045524938cf9fc3533c18787f6319c953cf1d194addcce306cb8431333168638a8c98c09233247d3759e87bc5fa74ce7b91beb9d00a454a47b631fa951b258c310ac00000000"
    }
  ]
}