{
  "hash": "000000008d8d39fdb99089b013d9fb527af43763f77411fad9c682c755a9ab89",
  "confirmations": 43627,
  "height": 9471,
  "version": 1,
  "versionHex": "00000001",
  "merkleroot": "88567ae60fc4e2d20b7b5776f56deb8b9a02247ac29c1a8d32b9928aac04093c",
  "time": 1238607826,
  "mediantime": 1238602790,
  "nonce": 3195436054,
  "bits": "1d00ffff",
  "difficulty": 1,
  "chainwork": "0000000000000000000000000000000000000000000000000000250025002500",
  "nTx": 1,
  "previousblockhash": "00000000f2240fb9174dad96d3e4fa5a392ba81c048c76d1e5f8ea313ec2ea33",
  "nextblockhash": "0000000086540541efbc04369ac58ccde00a83eded7155f62b40230da6774010",
  "strippedsize": 216,
  "size": 216,
  "weight": 864,
  "tx": [
    {
      "txid": "88567ae60fc4e2d20b7b5776f56deb8b9a02247ac29c1a8d32b9928aac04093c",
      "hash": "88567ae60fc4e2d20b7b5776f56deb8b9a02247ac29c1a8d32b9928aac04093c",
      "version": 1,
      "size": 135,
      "vsize": 135,
      "weight": 540,
      "locktime": 0,
      "vin": [
        {
          "coinbase": "04ffff001d02d904",
          "sequence": 4294967295
        }
      ],
      "vout": [
        {
          "value": 50.0,
          "n": 0,
          "scriptPubKey": {
            "asm": "0498b1337d8a68aa0c96e625a8e9b46bc6a0ba9eb2a977a6e4f484c420e0bdf8e0a80baa844ecd9f5a863d03c8c41abf04ba93a9b1788f1b37303f5b62c518e03c OP_CHECKSIG",
            "desc": "pk(0498b1337d8a68aa0c96e625a8e9b46bc6a0ba9eb2a977a6e4f484c420e0bdf8e0a80baa844ecd9f5a863d03c8c41abf04ba93a9b1788f1b37303f5b62c518e03c)#sqg262fg",
            "hex": "410498b1337d8a68aa0c96e625a8e9b46bc6a0ba9eb2a977a6e4f484c420e0bdf8e0a80baa844ecd9f5a863d03c8c41abf04ba93a9b1788f1b37303f5b62c518e03cac",
            "type": "pubkey"
          }
        }
      ],
      "hex": "01000000010000000000000000000000000000000000000000000000000000000000000000ffffffff0804ffff001d02d904ffffffff0100f2052a0100000043410498b1337d8a68aa0c96e625a8e9b46bc6a0ba9eb2a977a6e4f484c420e0bdf8e0a80baa844ecd9f5a863d03c8c41abf04ba93a9b1788f1b37303f5b62c518e03cac00000000"
    }
  ]
}