{
  "hash": "00000000d9b2b3ba324e4b112640fd077aab554c4a425b8f9f14b35dcfbfa173",
  "confirmations": 49637,
  "height": 3461,
  "version": 1,
  "versionHex": "00000001",
  "merkleroot": "062207ff4778600cf89d60bc3cda3bb54399820386aa08afd47865156cb34918",
  "time": 1234077488,
  "mediantime": 1234075580,
  "nonce": 108529048,
  "bits": "1d00ffff",
  "difficulty": 1,
  "chainwork": "00000000000000000000000000000000000000000000000000000d860d860d86",
  "nTx": 1,
  "previousblockhash": "0000000097bb6a307e7d4d8eac9a119e611eb5308312ed6460a0dec0bed101d0",
  "nextblockhash": "000000007d9811ef1d4116eff0a9efeb186c3476ae948acb47a8e27ae666f3a6",
  "strippedsize": 216,
  "size": 216,
  "weight": 864,
  "tx": [
    {
      "txid": "062207ff4778600cf89d60bc3cda3bb54399820386aa08afd47865156cb34918",
      "hash": "062207ff4778600cf89d60bc3cda3bb54399820386aa08afd47865156cb34918",
      "version": 1,
      "size": 135,
      "vsize": 135,
      "weight": 540,
      "locktime": 0,
      "vin": [
        {
          "coinbase": "04ffff001d021506",
          "sequence": 4294967295
        }
      ],
      "vout": [
        {
          "value": 50.0,
          "n": 0,
          "scriptPubKey": {
            "asm": "0476c78ef75a0ed76e17d5f86ef3725cad7601af5aa27c5f46878fd0f5209e0b05ec605c06b868b937e4aee283764f7418ed6a71f53656286022544c298d4f45eb OP_CHECKSIG",
            "desc": "pk(0476c78ef75a0ed76e17d5f86ef3725cad7601af5aa27c5f46878fd0f5209e0b05ec605c06b868b937e4aee283764f7418ed6a71f53656286022544c298d4f45eb)#y5v7v9jd",
            "hex": "410476c78ef75a0ed76e17d5f86ef3725cad7601af5aa27c5f46878fd0f5209e0b05ec605c06b868b937e4aee283764f7418ed6a71f53656286022544c298d4f45ebac",
            "type": "pubkey"
          }
        }
      ],
      "hex": "01000000010000000000000000000000000000000000000000000000000000000000000000ffffffff0804ffff001d021506ffffffff0100f2052a0100000043410476c78ef75a0ed76e17d5f86ef3725cad7601af5aa27c5f46878fd0f5209e0b05ec605c06b868b937e4aee283764f7418ed6a71f53656286022544c298d4f45ebac00000000"
    }
  ]
}