{
  "hash": "00000000c8c96792b29184d00fd87cd9fe1d463704e4e3f0b0d9e6ba2af1cc3f",
  "confirmations": 44588,
  "height": 8510,
  "version": 1,
  "versionHex": "00000001",
  "merkleroot": "def02b6af8f9a6538b7676a4ffd017099d6efe202780e9529645b63d71448271",
  "time": 1237880088,
  "mediantime": 1237875660,
  "nonce": 4045140768,
  "bits": "1d00ffff",
  "difficulty": 1,
  "chainwork": "0000000000000000000000000000000000000000000000000000213f213f213f",
  "nTx": 1,
  "previousblockhash": "00000000a51b482e2226e6082f0db7ee90862382730de17f6551a131e93e36fc",
  "nextblockhash": "000000007d4b42d0d687640370337b588b6577a4b8ce369c321483ed57d60d39",
  "strippedsize": 216,
  "size": 216,
  "weight": 864,
  "tx": [
    {
      "txid": "def02b6af8f9a6538b7676a4ffd017099d6efe202780e9529645b63d71448271",
      "hash": "def02b6af8f9a6538b7676a4ffd017099d6efe202780e9529645b63d71448271",
      "version": 1,
      "size": 135,
      "vsize": 135,
      "weight": 540,
      "locktime": 0,
      "vin": [
        {
          "coinbase": "04ffff001d02e607",
          "sequence": 4294967295
        }
      ],
      "vout": [
        {
          "value": 50.0,
          "n": 0,
          "scriptPubKey": {
            "asm": "0425fd5bfe55bfea845663bff6f5526e36ecc5f7538f6b6f6d2106eaee6afe97f47d6a348b870ae808b5b9725c6084a0d233ab6fcd59f3976ed0f3e026910b9908 OP_CHECKSIG",
            "desc": "pk(0425fd5bfe55bfea845663bff6f5526e36ecc5f7538f6b6f6d2106eaee6afe97f47d6a348b870ae808b5b9725c6084a0d233ab6fcd59f3976ed0f3e026910b9908)#zusgq458",
            "hex": "410425fd5bfe55bfea845663bff6f5526e36ecc5f7538f6b6f6d2106eaee6afe97f47d6a348b870ae808b5b9725c6084a0d233ab6fcd59f3976ed0f3e026910b9908ac",
            "type": "pubkey"
          }
        }
      ],
      "hex": "01000000010000000000000000000000000000000000000000000000000000000000000000ffffffff0804ffff001d02e607ffffffff0100f2052a0100000043410425fd5bfe55bfea845663bff6f5526e36ecc5f7538f6b6f6d2106eaee6afe97f47d6a348b870ae808b5b9725c6084a0d233ab6fcd59f3976ed0f3e026910b9908ac00000000"
    }
  ]
}