{
  "hash": "000000007a885902364f016043460b19e0295dc331307c9323bad4d68be7290e",
  "confirmations": 51766,
  "height": 1332,
  "version": 1,
  "versionHex": "00000001",
  "merkleroot": "06c7eca60ff77a8ca8d9d0f580273b5f1c8b6dcb05dc80880e65820d23146f88",
  "time": 1232625123,
  "mediantime": 1232620132,
  "nonce": 3460234519,
  "bits": "1d00ffff",
  "difficulty": 1,
  "chainwork": "0000000000000000000000000000000000000000000000000000053505350535",
  "nTx": 1,
  "previousblockhash": "00000000f179266e5fcbb409fbcffc0a1b7b2e684574da2269bc82a7eff03ee1",
  "nextblockhash": "00000000841a4a0ed073bac16b8293717282e61a02bd6b8ffb38fe32d0f29e57",
  "strippedsize": 216,
  "size": 216,
  "weight": 864,
  "tx": [
    {
      "txid": "06c7eca60ff77a8ca8d9d0f580273b5f1c8b6dcb05dc80880e65820d23146f88",
      "hash": "06c7eca60ff77a8ca8d9d0f580273b5f1c8b6dcb05dc80880e65820d23146f88",
      "version": 1,
      "size": 135,
      "vsize": 135,
      "weight": 540,
      "locktime": 0,
      "vin": [
        {
          "coinbase": "04ffff001d02c400",
          "sequence": 4294967295
        }
      ],
      "vout": [
        {
          "value": 50.0,
          "n": 0,
          "scriptPubKey": {
            "asm": "040cbe4a825f6b8ec92cfe6173527dc8e393592baf820b1724f875eca05de1bd24b7141bc2a8a9d3d7de7f4f1743e1d23c663924cd4f4c6b0a9987555d2b64ec30 OP_CHECKSIG",
            "desc": "pk(040cbe4a825f6b8ec92cfe6173527dc8e393592baf820b1724f875eca05de1bd24b7141bc2a8a9d3d7de7f4f1743e1d23c663924cd4f4c6b0a9987555d2b64ec30)#8wgfwu88",
            "hex": "41040cbe4a825f6b8ec92cfe6173527dc8e393592baf820b1724f875eca05de1bd24b7141bc2a8a9d3d7de7f4f1743e1d23c663924cd4f4c6b0a9987555d2b64ec30ac",
            "type": "pubkey"
          }
        }
      ],
      "hex": "01000000010000000000000000000000000000000000000000000000000000000000000000ffffffff0804ffff001d02c400ffffffff0100f2052a010000004341040cbe4a825f6b8ec92cfe6173527dc8e393592baf820b1724f875eca05de1bd24b7141bc2a8a9d3d7de7f4f1743e1d23c663924cd4f4c6b0a9987555d2b64ec30ac00000000"
    }
  ]
}