{
  "hash": "00000000c99ff7745c9a2d493a4cb10be61ca52f86ef6a0e805664cdbd68c7d6",
  "confirmations": 52383,
  "height": 715,
  "version": 1,
  "versionHex": "00000001",
  "merkleroot": "09ac9b8760eba9199ab764c348395ea4eedcddb2c8dc9cfa5b70159e043f9520",
  "time": 1232120951,
  "mediantime": 1232116727,
  "nonce": 2084637226,
  "bits": "1d00ffff",
  "difficulty": 1,
  "chainwork": "000000000000000000000000000000000000000000000000000002cc02cc02cc",
  "nTx": 1,
  "previousblockhash": "00000000b60efe1822717bdb70ea1bf8e3a33c3d5cb0cf6ff42a96e93368b9fa",
  "nextblockhash": "0000000002486c11d719888893ada10ad32cd618056d7ca7db047d95fe7733de",
  "strippedsize": 215,
  "size": 215,
  "weight": 860,
  "tx": [
    {
      "txid": "09ac9b8760eba9199ab764c348395ea4eedcddb2c8dc9cfa5b70159e043f9520",
      "hash": "09ac9b8760eba9199ab764c348395ea4eedcddb2c8dc9cfa5b70159e043f9520",
      "version": 1,
      "size": 134,
      "vsize": 134,
      "weight": 536,
      "locktime": 0,
      "vin": [
        {
          "coinbase": "04ffff001d010b",
          "sequence": 4294967295
        }
      ],
      "vout": [
        {
          "value": 50.0,
          "n": 0,
          "scriptPubKey": {
            "asm": "0468b6672e58e1f552f2279312bb680ee1e0e6c2832139731cdee73482d5c3792e37453a9ae1480bddfa9a6b7e022b312f9f8451eb8b76154bdb9e6804ae9df9cb OP_CHECKSIG",
            "desc": "pk(0468b6672e58e1f552f2279312bb680ee1e0e6c2832139731cdee73482d5c3792e37453a9ae1480bddfa9a6b7e022b312f9f8451eb8b76154bdb9e6804ae9df9cb)#66ef8a60",
            "hex": "410468b6672e58e1f552f2279312bb680ee1e0e6c2832139731cdee73482d5c3792e37453a9ae1480bddfa9a6b7e022b312f9f8451eb8b76154bdb9e6804ae9df9cbac",
            "type": "pubkey"
          }
        }
      ],
      "hex": "01000000010000000000000000000000000000000000000000000000000000000000000000ffffffff0704ffff001d010bffffffff0100f2052a0100000043410468b6672e58e1f552f2279312bb680ee1e0e6c2832139731cdee73482d5c3792e37453a9ae1480bddfa9a6b7e022b312f9f8451eb8b76154bdb9e6804ae9df9cbac00000000"
    }
  ]
}