{
  "hash": "000000002a9e31750bdef0772fdb2eb650d8e36231c2f6b4f62d80963bfe99d6",
  "confirmations": 44725,
  "height": 8373,
  "version": 1,
  "versionHex": "00000001",
  "merkleroot": "0b077c4bd8edb48664938fd44f21a821b8823de0b5c68ff1f7ebca0528f71c37",
  "time": 1237780592,
  "mediantime": 1237779385,
  "nonce": 3905453084,
  "bits": "1d00ffff",
  "difficulty": 1,
  "chainwork": "000000000000000000000000000000000000000000000000000020b620b620b6",
  "nTx": 1,
  "previousblockhash": "000000003bef25ccaef6d6841f7a7f2e67817f212dca3e981dd0457c3c070fd3",
  "nextblockhash": "00000000b3b9813ca08c6e789420db15c3fd8751c56b27c0b3046d651a0bea0c",
  "strippedsize": 216,
  "size": 216,
  "weight": 864,
  "tx": [
    {
      "txid": "0b077c4bd8edb48664938fd44f21a821b8823de0b5c68ff1f7ebca0528f71c37",
      "hash": "0b077c4bd8edb48664938fd44f21a821b8823de0b5c68ff1f7ebca0528f71c37",
      "version": 1,
      "size": 135,
      "vsize": 135,
      "weight": 540,
      "locktime": 0,
      "vin": [
        {
          "coinbase": "04ffff001d026205",
          "sequence": 4294967295
        }
      ],
      "vout": [
        {
          "value": 50.0,
          "n": 0,
          "scriptPubKey": {
            "asm": "04413f752493e283e20a30ec72b6bf1c072f47c969016c4395653f9668b5836475e4b6918869dce46ce616323149fbedc143bebff848c407ecd81b2fa2e4eb3c2f OP_CHECKSIG",
            "desc": "pk(04413f752493e283e20a30ec72b6bf1c072f47c969016c4395653f9668b5836475e4b6918869dce46ce616323149fbedc143bebff848c407ecd81b2fa2e4eb3c2f)#k25jp257",
            "hex": "4104413f752493e283e20a30ec72b6bf1c072f47c969016c4395653f9668b5836475e4b6918869dce46ce616323149fbedc143bebff848c407ecd81b2fa2e4eb3c2fac",
            "type": "pubkey"
          }
        }
      ],
      "hex": "01000000010000000000000000000000000000000000000000000000000000000000000000ffffffff0804ffff001d026205ffffffff0100f2052a01000000434104413f752493e283e20a30ec72b6bf1c072f47c969016c4395653f9668b5836475e4b6918869dce46ce616323149fbedc143bebff848c407ecd81b2fa2e4eb3c2fac00000000"
    }
  ]
}