{
  "hash": "000000000c5fc06f9d1f5b21ae3b05715a5285315f272cfe5432c89b8bc1647b",
  "confirmations": 46174,
  "height": 6924,
  "version": 1,
  "versionHex": "00000001",
  "merkleroot": "cee5deb3dbd464166c920fadf9277a3c8866c8907b0a41e9bfeaf85e6445e6fc",
  "time": 1236655597,
  "mediantime": 1236652124,
  "nonce": 1921544994,
  "bits": "1d00ffff",
  "difficulty": 1,
  "chainwork": "00000000000000000000000000000000000000000000000000001b0d1b0d1b0d",
  "nTx": 1,
  "previousblockhash": "00000000fcdec9bd76882d76697b6fa477aec7df646272958d557b366765159f",
  "nextblockhash": "0000000088d28a379c83e5f176eb13ceb5f8e8859c717608972d24d8f59265b8",
  "strippedsize": 216,
  "size": 216,
  "weight": 864,
  "tx": [
    {
      "txid": "cee5deb3dbd464166c920fadf9277a3c8866c8907b0a41e9bfeaf85e6445e6fc",
      "hash": "cee5deb3dbd464166c920fadf9277a3c8866c8907b0a41e9bfeaf85e6445e6fc",
      "version": 1,
      "size": 135,
      "vsize": 135,
      "weight": 540,
      "locktime": 0,
      "vin": [
        {
          "coinbase": "04ffff001d02d100",
          "sequence": 4294967295
        }
      ],
      "vout": [
        {
          "value": 50.0,
          "n": 0,
          "scriptPubKey": {
            "asm": "044996d687b4b9b9438fabb6592795d9a6a308c1aa395d28da55504c3da2b2ebcddce51ad8aeba5eca78a49d22e77c74aa07743ddbd707996b095df7eb1f686aaf OP_CHECKSIG",
            "desc": "pk(044996d687b4b9b9438fabb6592795d9a6a308c1aa395d28da55504c3da2b2ebcddce51ad8aeba5eca78a49d22e77c74aa07743ddbd707996b095df7eb1f686aaf)#l3utxq74",
            "hex": "41044996d687b4b9b9438fabb6592795d9a6a308c1aa395d28da55504c3da2b2ebcddce51ad8aeba5eca78a49d22e77c74aa07743ddbd707996b095df7eb1f686aafac",
            "type": "pubkey"
          }
        }
      ],
      "hex": "01000000010000000000000000000000000000000000000000000000000000000000000000ffffffff0804ffff001d02d100ffffffff0100f2052a010000004341044996d687b4b9b9438fabb6592795d9a6a308c1aa395d28da55504c3da2b2ebcddce51ad8aeba5eca78a49d22e77c74aa07743ddbd707996b095df7eb1f686aafac00000000"
    }
  ]
}