{
  "hash": "00000000f00190cbb7214b80a0861c45c4ee5c8d3b54e01c9a9a73afd9473ce2",
  "confirmations": 46229,
  "height": 6869,
  "version": 1,
  "versionHex": "00000001",
  "merkleroot": "1367a705ea30efeaaca0a388852df10fd1a006bb263d7319d0046481c4882c5f",
  "time": 1236607955,
  "mediantime": 1236605049,
  "nonce": 4224762115,
  "bits": "1d00ffff",
  "difficulty": 1,
  "chainwork": "00000000000000000000000000000000000000000000000000001ad61ad61ad6",
  "nTx": 1,
  "previousblockhash": "00000000d04818b7e6d46f5e3e905fe07aaeaa98e4a7816f2b01fbce25ee4edb",
  "nextblockhash": "00000000eb5b9ba8b77b40acdfe5552a22e95a301e8a4ef72519aca1cee4a1be",
  "strippedsize": 216,
  "size": 216,
  "weight": 864,
  "tx": [
    {
      "txid": "1367a705ea30efeaaca0a388852df10fd1a006bb263d7319d0046481c4882c5f",
      "hash": "1367a705ea30efeaaca0a388852df10fd1a006bb263d7319d0046481c4882c5f",
      "version": 1,
      "size": 135,
      "vsize": 135,
      "weight": 540,
      "locktime": 0,
      "vin": [
        {
          "coinbase": "04ffff001d02070a",
          "sequence": 4294967295
        }
      ],
      "vout": [
        {
          "value": 50.0,
          "n": 0,
          "scriptPubKey": {
            "asm": "04fede0088c78a038e9efff7a4ef86e27c9b4e44ab1d960293cb29962b70a257a142b5ee5c6759d9b04e1090aaf74933df6f93eaf2de53d87a018def111bc804e8 OP_CHECKSIG",
            "desc": "pk(04fede0088c78a038e9efff7a4ef86e27c9b4e44ab1d960293cb29962b70a257a142b5ee5c6759d9b04e1090aaf74933df6f93eaf2de53d87a018def111bc804e8)#z5maqclw",
            "hex": "4104fede0088c78a038e9efff7a4ef86e27c9b4e44ab1d960293cb29962b70a257a142b5ee5c6759d9b04e1090aaf74933df6f93eaf2de53d87a018def111bc804e8ac",
            "type": "pubkey"
          }
        }
      ],
      "hex": "01000000010000000000000000000000000000000000000000000000000000000000000000ffffffff0804ffff001d02070affffffff0100f2052a01000000434104fede0088c78a038e9efff7a4ef86e27c9b4e44ab1d960293cb29962b70a257a142b5ee5c6759d9b04e1090aaf74933df6f93eaf2de53d87a018def111bc804e8ac00000000"
    }
  ]
}