{
  "hash": "00000000c1baf11356d8cd4e582a549e28120aaa05fcdc4046ad2240e14b5040",
  "confirmations": 45314,
  "height": 7784,
  "version": 1,
  "versionHex": "00000001",
  "merkleroot": "54c376af081b83d9a5b86a89de1b7ee9f3adbd104cc28ee49b797d99beaf493c",
  "time": 1237301536,
  "mediantime": 1237297700,
  "nonce": 71815400,
  "bits": "1d00ffff",
  "difficulty": 1,
  "chainwork": "00000000000000000000000000000000000000000000000000001e691e691e69",
  "nTx": 1,
  "previousblockhash": "000000000357e2b033c9e9bac5ea4fcafed732f89da87ad837738ad61f6a5c38",
  "nextblockhash": "000000003aa1d186feaad2895dfecc5a4d9eced4c719d6081f4f9109e8e6ff34",
  "strippedsize": 216,
  "size": 216,
  "weight": 864,
  "tx": [
    {
      "txid": "54c376af081b83d9a5b86a89de1b7ee9f3adbd104cc28ee49b797d99beaf493c",
      "hash": "54c376af081b83d9a5b86a89de1b7ee9f3adbd104cc28ee49b797d99beaf493c",
      "version": 1,
      "size": 135,
      "vsize": 135,
      "weight": 540,
      "locktime": 0,
      "vin": [
        {
          "coinbase": "04ffff001d02dc01",
          "sequence": 4294967295
        }
      ],
      "vout": [
        {
          "value": 50.0,
          "n": 0,
          "scriptPubKey": {
            "asm": "040d97f24457624d505c2e3a74e693f3177d3e027a5cfd2b56a16adec4c2e11b4ae22d3a416002c893e6a39ea0659c6302325abb97603b6db5392f7516db25b02b OP_CHECKSIG",
            "desc": "pk(040d97f24457624d505c2e3a74e693f3177d3e027a5cfd2b56a16adec4c2e11b4ae22d3a416002c893e6a39ea0659c6302325abb97603b6db5392f7516db25b02b)#hd5g86h4",
            "hex": "41040d97f24457624d505c2e3a74e693f3177d3e027a5cfd2b56a16adec4c2e11b4ae22d3a416002c893e6a39ea0659c6302325abb97603b6db5392f7516db25b02bac",
            "type": "pubkey"
          }
        }
      ],
      "hex": "01000000010000000000000000000000000000000000000000000000000000000000000000ffffffff0804ffff001d02dc01ffffffff0100f2052a010000004341040d97f24457624d505c2e3a74e693f3177d3e027a5cfd2b56a16adec4c2e11b4ae22d3a416002c893e6a39ea0659c6302325abb97603b6db5392f7516db25b02bac00000000"
    }
  ]
}