{
  "hash": "00000000ffb05d42c619788bb38636c1e59ec056ad854893cb9fcb6ceabe14dd",
  "confirmations": 50529,
  "height": 2569,
  "version": 1,
  "versionHex": "00000001",
  "merkleroot": "31b1fd420c542846ae030c28b9e0ada484fad8f2feecabacca750e648b36d365",
  "time": 1233468945,
  "mediantime": 1233465478,
  "nonce": 2080127537,
  "bits": "1d00ffff",
  "difficulty": 1,
  "chainwork": "00000000000000000000000000000000000000000000000000000a0a0a0a0a0a",
  "nTx": 1,
  "previousblockhash": "00000000c646ac3bad5d736d63a0bb4b7b07323414a0aa2f7ed4da48448c6bc1",
  "nextblockhash": "00000000f1dd7a2c8dbb326f034b579058f5bea36438c2b06b21eb1facaed7e1",
  "strippedsize": 216,
  "size": 216,
  "weight": 864,
  "tx": [
    {
      "txid": "31b1fd420c542846ae030c28b9e0ada484fad8f2feecabacca750e648b36d365",
      "hash": "31b1fd420c542846ae030c28b9e0ada484fad8f2feecabacca750e648b36d365",
      "version": 1,
      "size": 135,
      "vsize": 135,
      "weight": 540,
      "locktime": 0,
      "vin": [
        {
          "coinbase": "04ffff001d026102",
          "sequence": 4294967295
        }
      ],
      "vout": [
        {
          "value": 50.0,
          "n": 0,
          "scriptPubKey": {
            "asm": "042815834a07fa9e5c3451808267239509b62567a24f3dfc80391309ed5476c5e022d4fdb05b0c006da12b27cfce172157b924633459adb8db440a8418d580141a OP_CHECKSIG",
            "desc": "pk(042815834a07fa9e5c3451808267239509b62567a24f3dfc80391309ed5476c5e022d4fdb05b0c006da12b27cfce172157b924633459adb8db440a8418d580141a)#jjqleh6p",
            "hex": "41042815834a07fa9e5c3451808267239509b62567a24f3dfc80391309ed5476c5e022d4fdb05b0c006da12b27cfce172157b924633459adb8db440a8418d580141aac",
            "type": "pubkey"
          }
        }
      ],
      "hex": "01000000010000000000000000000000000000000000000000000000000000000000000000ffffffff0804ffff001d026102ffffffff0100f2052a010000004341042815834a07fa9e5c3451808267239509b62567a24f3dfc80391309ed5476c5e022d4fdb05b0c006da12b27cfce172157b924633459adb8db440a8418d580141aac00000000"
    }
  ]
}