{
  "hash": "00000000b36d9aac5de8cc1be1e7cd7e7b2e610e2cece81251d4f52a03b5c1a6",
  "confirmations": 46761,
  "height": 6337,
  "version": 1,
  "versionHex": "00000001",
  "merkleroot": "484ed2e3534284de8edb7361b91087eda9b1dd579ec2a0975807358824f793c0",
  "time": 1236203405,
  "mediantime": 1236198494,
  "nonce": 3084685110,
  "bits": "1d00ffff",
  "difficulty": 1,
  "chainwork": "000000000000000000000000000000000000000000000000000018c218c218c2",
  "nTx": 1,
  "previousblockhash": "00000000c4f4b5adaa1ff8e32f81d585476c4c068eb142d1a9407b04dbd2d0ad",
  "nextblockhash": "00000000075ef619e95ee0ce9f508d0ba39fcf57b644f444d5699d9560c8995d",
  "strippedsize": 216,
  "size": 216,
  "weight": 864,
  "tx": [
    {
      "txid": "484ed2e3534284de8edb7361b91087eda9b1dd579ec2a0975807358824f793c0",
      "hash": "484ed2e3534284de8edb7361b91087eda9b1dd579ec2a0975807358824f793c0",
      "version": 1,
      "size": 135,
      "vsize": 135,
      "weight": 540,
      "locktime": 0,
      "vin": [
        {
          "coinbase": "04ffff001d02a100",
          "sequence": 4294967295
        }
      ],
      "vout": [
        {
          "value": 50.0,
          "n": 0,
          "scriptPubKey": {
            "asm": "04918e800f0464be75dd74ebaaeee84d26731fa644bd24bc48c204fe884d9b70ca3c6f6c64be50e7389b8610f95f05caff80dcbef1478d0bdc65d8db7a765ab609 OP_CHECKSIG",
            "desc": "pk(04918e800f0464be75dd74ebaaeee84d26731fa644bd24bc48c204fe884d9b70ca3c6f6c64be50e7389b8610f95f05caff80dcbef1478d0bdc65d8db7a765ab609)#hy9d4pnj",
            "hex": "4104918e800f0464be75dd74ebaaeee84d26731fa644bd24bc48c204fe884d9b70ca3c6f6c64be50e7389b8610f95f05caff80dcbef1478d0bdc65d8db7a765ab609ac",
            "type": "pubkey"
          }
        }
      ],
      "hex": "01000000010000000000000000000000000000000000000000000000000000000000000000ffffffff0804ffff001d02a100ffffffff0100f2052a01000000434104918e800f0464be75dd74ebaaeee84d26731fa644bd24bc48c204fe884d9b70ca3c6f6c64be50e7389b8610f95f05caff80dcbef1478d0bdc65d8db7a765ab609ac00000000"
    }
  ]
}