{
  "hash": "00000000040cc7d952bcb73d2f5de80b15945c08d347bdaabb207cae9775a6c7",
  "confirmations": 51970,
  "height": 1128,
  "version": 1,
  "versionHex": "00000001",
  "merkleroot": "03b5b752157faebe329e5d7c9bd88bf672ddd98729adec15f76c54de9951724e",
  "time": 1232441857,
  "mediantime": 1232437709,
  "nonce": 1755332915,
  "bits": "1d00ffff",
  "difficulty": 1,
  "chainwork": "0000000000000000000000000000000000000000000000000000046904690469",
  "nTx": 1,
  "previousblockhash": "0000000003f56c1e963b2e2ed7ee09df31fd7834530a36ccc4a15df0c57dcfff",
  "nextblockhash": "0000000009270ffb79c779eae921c1741ff849732435421b215502e6d25b09d2",
  "strippedsize": 216,
  "size": 216,
  "weight": 864,
  "tx": [
    {
      "txid": "03b5b752157faebe329e5d7c9bd88bf672ddd98729adec15f76c54de9951724e",
      "hash": "03b5b752157faebe329e5d7c9bd88bf672ddd98729adec15f76c54de9951724e",
      "version": 1,
      "size": 135,
      "vsize": 135,
      "weight": 540,
      "locktime": 0,
      "vin": [
        {
          "coinbase": "04ffff001d026e07",
          "sequence": 4294967295
        }
      ],
      "vout": [
        {
          "value": 50.0,
          "n": 0,
          "scriptPubKey": {
            "asm": "04732e41e1c6b17a336ac97f073e2b94fbbe0733131af3d790b9adc3922f35f60df10d2be2bcd32d0e63662cf2df6d41186de78d53c522ec34cca4ce5d718dfba3 OP_CHECKSIG",
            "desc": "pk(04732e41e1c6b17a336ac97f073e2b94fbbe0733131af3d790b9adc3922f35f60df10d2be2bcd32d0e63662cf2df6d41186de78d53c522ec34cca4ce5d718dfba3)#3ms87c7e",
            "hex": "4104732e41e1c6b17a336ac97f073e2b94fbbe0733131af3d790b9adc3922f35f60df10d2be2bcd32d0e63662cf2df6d41186de78d53c522ec34cca4ce5d718dfba3ac",
            "type": "pubkey"
          }
        }
      ],
      "hex": "01000000010000000000000000000000000000000000000000000000000000000000000000ffffffff0804ffff001d026e07ffffffff0100f2052a01000000434104732e41e1c6b17a336ac97f073e2b94fbbe0733131af3d790b9adc3922f35f60df10d2be2bcd32d0e63662cf2df6d41186de78d53c522ec34cca4ce5d718dfba3ac00000000"
    }
  ]
}