{
  "hash": "00000000f8e01ecbcf496ba1f1d365537f51633b37a6d7cb5cd37c458830804e",
  "confirmations": 43286,
  "height": 9812,
  "version": 1,
  "versionHex": "00000001",
  "merkleroot": "78820bd95695e07d2cdd0943538a21e0cb0b52e9f9e9c8170a6b9c158ffe0fb9",
  "time": 1238862092,
  "mediantime": 1238860711,
  "nonce": 2722422315,
  "bits": "1d00ffff",
  "difficulty": 1,
  "chainwork": "0000000000000000000000000000000000000000000000000000265526552655",
  "nTx": 1,
  "previousblockhash": "0000000071d2f3b1c050f917f1db7be528d79249170c2adc63b2986ac707ed31",
  "nextblockhash": "000000003029b2eee62efef83bc52762336a51b0242077b44d322b782093f973",
  "strippedsize": 215,
  "size": 215,
  "weight": 860,
  "tx": [
    {
      "txid": "78820bd95695e07d2cdd0943538a21e0cb0b52e9f9e9c8170a6b9c158ffe0fb9",
      "hash": "78820bd95695e07d2cdd0943538a21e0cb0b52e9f9e9c8170a6b9c158ffe0fb9",
      "version": 1,
      "size": 134,
      "vsize": 134,
      "weight": 536,
      "locktime": 0,
      "vin": [
        {
          "coinbase": "04ffff001d0176",
          "sequence": 4294967295
        }
      ],
      "vout": [
        {
          "value": 50.0,
          "n": 0,
          "scriptPubKey": {
            "asm": "04c2dec139a71d780dfb0c0fcd10133516ad01f74d1d0ee5edcac2ee0907817e692cff35f44b7209c48daf59705b847a316c2c93cebbcc521668b37a906e0e3332 OP_CHECKSIG",
            "desc": "pk(04c2dec139a71d780dfb0c0fcd10133516ad01f74d1d0ee5edcac2ee0907817e692cff35f44b7209c48daf59705b847a316c2c93cebbcc521668b37a906e0e3332)#secqhh7p",
            "hex": "4104c2dec139a71d780dfb0c0fcd10133516ad01f74d1d0ee5edcac2ee0907817e692cff35f44b7209c48daf59705b847a316c2c93cebbcc521668b37a906e0e3332ac",
            "type": "pubkey"
          }
        }
      ],
      "hex": "01000000010000000000000000000000000000000000000000000000000000000000000000ffffffff0704ffff001d0176ffffffff0100f2052a01000000434104c2dec139a71d780dfb0c0fcd10133516ad01f74d1d0ee5edcac2ee0907817e692cff35f44b7209c48daf59705b847a316c2c93cebbcc521668b37a906e0e3332ac00000000"
    }
  ]
}