{
  "hash": "0000000016dd4dfa448162b44668342ef93b73b31c94c44e0c09163adfadd904",
  "confirmations": 46471,
  "height": 6627,
  "version": 1,
  "versionHex": "00000001",
  "merkleroot": "49ee8b7eca7f2ade90ef1896d1b583bfe23e55e639d02d4b004a742ad6cb2b0c",
  "time": 1236423294,
  "mediantime": 1236420368,
  "nonce": 94494346,
  "bits": "1d00ffff",
  "difficulty": 1,
  "chainwork": "000000000000000000000000000000000000000000000000000019e419e419e4",
  "nTx": 1,
  "previousblockhash": "000000006163eb62074580c67500056146ccdbf1b7c8c48566f752e2f4971cc6",
  "nextblockhash": "000000000f724595d732e7bfdf59303b9bdf7666deb0ad79e7b5875ec181afc1",
  "strippedsize": 216,
  "size": 216,
  "weight": 864,
  "tx": [
    {
      "txid": "49ee8b7eca7f2ade90ef1896d1b583bfe23e55e639d02d4b004a742ad6cb2b0c",
      "hash": "49ee8b7eca7f2ade90ef1896d1b583bfe23e55e639d02d4b004a742ad6cb2b0c",
      "version": 1,
      "size": 135,
      "vsize": 135,
      "weight": 540,
      "locktime": 0,
      "vin": [
        {
          "coinbase": "04ffff001d02ad0b",
          "sequence": 4294967295
        }
      ],
      "vout": [
        {
          "value": 50.0,
          "n": 0,
          "scriptPubKey": {
            "asm": "04401f7c595733ef6e902e09133bf81135bfb0a12858e2dba1cb99ebab56b7293f35244d89e4d8631aed8295e13367a6a40aa79d51ff83c386268d7a4fce1813ea OP_CHECKSIG",
            "desc": "pk(04401f7c595733ef6e902e09133bf81135bfb0a12858e2dba1cb99ebab56b7293f35244d89e4d8631aed8295e13367a6a40aa79d51ff83c386268d7a4fce1813ea)#4xedctf2",
            "hex": "4104401f7c595733ef6e902e09133bf81135bfb0a12858e2dba1cb99ebab56b7293f35244d89e4d8631aed8295e13367a6a40aa79d51ff83c386268d7a4fce1813eaac",
            "type": "pubkey"
          }
        }
      ],
      "hex": "01000000010000000000000000000000000000000000000000000000000000000000000000ffffffff0804ffff001d02ad0bffffffff0100f2052a01000000434104401f7c595733ef6e902e09133bf81135bfb0a12858e2dba1cb99ebab56b7293f35244d89e4d8631aed8295e13367a6a40aa79d51ff83c386268d7a4fce1813eaac00000000"
    }
  ]
}