{
  "hash": "000000005c250eb18e199f4b94d256ef7348941399dd756413d8b035a596f91c",
  "confirmations": 44892,
  "height": 8206,
  "version": 1,
  "versionHex": "00000001",
  "merkleroot": "37c1e388dee94fa8c57e983e22b31bb6c470a1feb29180839f0784c85410f732",
  "time": 1237609217,
  "mediantime": 1237606827,
  "nonce": 76044860,
  "bits": "1d00ffff",
  "difficulty": 1,
  "chainwork": "0000000000000000000000000000000000000000000000000000200f200f200f",
  "nTx": 1,
  "previousblockhash": "00000000a8523a2e8b5b7b3c95049b513756a4d8ca4ad4b6b7208093a83e3b22",
  "nextblockhash": "000000001d8738aee722ee21cef23777c89abbb3a4fc4c5eb749fdd81189dac1",
  "strippedsize": 215,
  "size": 215,
  "weight": 860,
  "tx": [
    {
      "txid": "37c1e388dee94fa8c57e983e22b31bb6c470a1feb29180839f0784c85410f732",
      "hash": "37c1e388dee94fa8c57e983e22b31bb6c470a1feb29180839f0784c85410f732",
      "version": 1,
      "size": 134,
      "vsize": 134,
      "weight": 536,
      "locktime": 0,
      "vin": [
        {
          "coinbase": "04ffff001d014b",
          "sequence": 4294967295
        }
      ],
      "vout": [
        {
          "value": 50.0,
          "n": 0,
          "scriptPubKey": {
            "asm": "044df60c9ab2aa3650361420fb3ab352730aa3d186b6d3371f0c223c2d9eb6e7673d49ff88e020405a312a9d654c67141c7d8427c4d687d18c399b6d82b3b81041 OP_CHECKSIG",
            "desc": "pk(044df60c9ab2aa3650361420fb3ab352730aa3d186b6d3371f0c223c2d9eb6e7673d49ff88e020405a312a9d654c67141c7d8427c4d687d18c399b6d82b3b81041)#9wrtj2ph",
            "hex": "41044df60c9ab2aa3650361420fb3ab352730aa3d186b6d3371f0c223c2d9eb6e7673d49ff88e020405a312a9d654c67141c7d8427c4d687d18c399b6d82b3b81041ac",
            "type": "pubkey"
          }
        }
      ],
      "hex": "01000000010000000000000000000000000000000000000000000000000000000000000000ffffffff0704ffff001d014bffffffff0100f2052a010000004341044df60c9ab2aa3650361420fb3ab352730aa3d186b6d3371f0c223c2d9eb6e7673d49ff88e020405a312a9d654c67141c7d8427c4d687d18c399b6d82b3b81041ac00000000"
    }
  ]
}