{
  "hash": "0000000093ca40d39376432134ad4be3517f3143164761e16d09b3ffe6133014",
  "confirmations": 44008,
  "height": 9090,
  "version": 1,
  "versionHex": "00000001",
  "merkleroot": "24209419c800c9f6e0661113ba4972096a61359b187c94118b1ac791cc806bf6",
  "time": 1238325148,
  "mediantime": 1238321165,
  "nonce": 3547058997,
  "bits": "1d00ffff",
  "difficulty": 1,
  "chainwork": "0000000000000000000000000000000000000000000000000000238323832383",
  "nTx": 1,
  "previousblockhash": "00000000ef2a79f17cf6627f0d7fef905e83bf6f6a64fc03b31dd5151c88852a",
  "nextblockhash": "00000000196408e7aa04f7e6f5af5bcf5ac83660f309692b6a9b014ff283c93c",
  "strippedsize": 216,
  "size": 216,
  "weight": 864,
  "tx": [
    {
      "txid": "24209419c800c9f6e0661113ba4972096a61359b187c94118b1ac791cc806bf6",
      "hash": "24209419c800c9f6e0661113ba4972096a61359b187c94118b1ac791cc806bf6",
      "version": 1,
      "size": 135,
      "vsize": 135,
      "weight": 540,
      "locktime": 0,
      "vin": [
        {
          "coinbase": "04ffff001d022208",
          "sequence": 4294967295
        }
      ],
      "vout": [
        {
          "value": 50.0,
          "n": 0,
          "scriptPubKey": {
            "asm": "0479420023e7ea3d0fe325da801658298f7bab25bfee8ac2ba73c27dc463f53994dfde744d62a762d50cd4c37e4eeb6c870be8bc82a021f492c811daeec2dc954e OP_CHECKSIG",
            "desc": "pk(0479420023e7ea3d0fe325da801658298f7bab25bfee8ac2ba73c27dc463f53994dfde744d62a762d50cd4c37e4eeb6c870be8bc82a021f492c811daeec2dc954e)#9a2jtk76",
            "hex": "410479420023e7ea3d0fe325da801658298f7bab25bfee8ac2ba73c27dc463f53994dfde744d62a762d50cd4c37e4eeb6c870be8bc82a021f492c811daeec2dc954eac",
            "type": "pubkey"
          }
        }
      ],
      "hex": "01000000010000000000000000000000000000000000000000000000000000000000000000ffffffff0804ffff001d022208ffffffff0100f2052a0100000043410479420023e7ea3d0fe325da801658298f7bab25bfee8ac2ba73c27dc463f53994dfde744d62a762d50cd4c37e4eeb6c870be8bc82a021f492c811daeec2dc954eac00000000"
    }
  ]
}