{
  "hash": "0000000046e6482b90633bb69bf904b904ca955e275fbe93cbdd5c9dd78dd3f4",
  "confirmations": 52111,
  "height": 987,
  "version": 1,
  "versionHex": "00000001",
  "merkleroot": "c407af23173ffc395d5759dccaa77ab7907501d7f42b202c9376544db5796e8e",
  "time": 1232340412,
  "mediantime": 1232336991,
  "nonce": 2955023925,
  "bits": "1d00ffff",
  "difficulty": 1,
  "chainwork": "000000000000000000000000000000000000000000000000000003dc03dc03dc",
  "nTx": 1,
  "previousblockhash": "00000000bdc6a035a608cc5e03e7e35fd39d520eb1003b1a4c937ad30baafa94",
  "nextblockhash": "000000005b01b8ddef835564691bd96f7c418dc48f399e6949cf5607420d971d",
  "strippedsize": 216,
  "size": 216,
  "weight": 864,
  "tx": [
    {
      "txid": "c407af23173ffc395d5759dccaa77ab7907501d7f42b202c9376544db5796e8e",
      "hash": "c407af23173ffc395d5759dccaa77ab7907501d7f42b202c9376544db5796e8e",
      "version": 1,
      "size": 135,
      "vsize": 135,
      "weight": 540,
      "locktime": 0,
      "vin": [
        {
          "coinbase": "04ffff001d02e504",
          "sequence": 4294967295
        }
      ],
      "vout": [
        {
          "value": 50.0,
          "n": 0,
          "scriptPubKey": {
            "asm": "042e680b3227f3d3c4dbbaa00dd8f9fbdff71ad35ce68c92b781cf3faadd31a2eb1cf0e9a07436b1c2efe314153a440c8937de9f0aff89f4dc7766d6918f6d34d6 OP_CHECKSIG",
            "desc": "pk(042e680b3227f3d3c4dbbaa00dd8f9fbdff71ad35ce68c92b781cf3faadd31a2eb1cf0e9a07436b1c2efe314153a440c8937de9f0aff89f4dc7766d6918f6d34d6)#phm908fj",
            "hex": "41042e680b3227f3d3c4dbbaa00dd8f9fbdff71ad35ce68c92b781cf3faadd31a2eb1cf0e9a07436b1c2efe314153a440c8937de9f0aff89f4dc7766d6918f6d34d6ac",
            "type": "pubkey"
          }
        }
      ],
      "hex": "01000000010000000000000000000000000000000000000000000000000000000000000000ffffffff0804ffff001d02e504ffffffff0100f2052a010000004341042e680b3227f3d3c4dbbaa00dd8f9fbdff71ad35ce68c92b781cf3faadd31a2eb1cf0e9a07436b1c2efe314153a440c8937de9f0aff89f4dc7766d6918f6d34d6ac00000000"
    }
  ]
}