{
  "hash": "00000000b319d460c761009308495de2387fedc0ad57cd9f98987ecf920bbc4f",
  "confirmations": 44510,
  "height": 8588,
  "version": 1,
  "versionHex": "00000001",
  "merkleroot": "435ad82ca99ae47a54309e388aca99fed2231da6e8e6588e74c2d43004578600",
  "time": 1237941269,
  "mediantime": 1237938471,
  "nonce": 1518673161,
  "bits": "1d00ffff",
  "difficulty": 1,
  "chainwork": "0000000000000000000000000000000000000000000000000000218d218d218d",
  "nTx": 1,
  "previousblockhash": "00000000d268586c9dfc0b5777610d3cb5cbf7b62c7b6049d7744871eae645be",
  "nextblockhash": "00000000cfa69a3561611f7c31a791e8afcdb5bf965c5d4fc9b5caa8ba7bf092",
  "strippedsize": 216,
  "size": 216,
  "weight": 864,
  "tx": [
    {
      "txid": "435ad82ca99ae47a54309e388aca99fed2231da6e8e6588e74c2d43004578600",
      "hash": "435ad82ca99ae47a54309e388aca99fed2231da6e8e6588e74c2d43004578600",
      "version": 1,
      "size": 135,
      "vsize": 135,
      "weight": 540,
      "locktime": 0,
      "vin": [
        {
          "coinbase": "04ffff001d026209",
          "sequence": 4294967295
        }
      ],
      "vout": [
        {
          "value": 50.0,
          "n": 0,
          "scriptPubKey": {
            "asm": "040cb136ccb5a8c5be6cf67383844ff3eb88bfbf9143196a94702ed9a1aee90046644c5eed60155d368530e6b671fb75c84bdd3abef449ab955fb8c7a115bdbfcb OP_CHECKSIG",
            "desc": "pk(040cb136ccb5a8c5be6cf67383844ff3eb88bfbf9143196a94702ed9a1aee90046644c5eed60155d368530e6b671fb75c84bdd3abef449ab955fb8c7a115bdbfcb)#nuau8hzu",
            "hex": "41040cb136ccb5a8c5be6cf67383844ff3eb88bfbf9143196a94702ed9a1aee90046644c5eed60155d368530e6b671fb75c84bdd3abef449ab955fb8c7a115bdbfcbac",
            "type": "pubkey"
          }
        }
      ],
      "hex": "01000000010000000000000000000000000000000000000000000000000000000000000000ffffffff0804ffff001d026209ffffffff0100f2052a010000004341040cb136ccb5a8c5be6cf67383844ff3eb88bfbf9143196a94702ed9a1aee90046644c5eed60155d368530e6b671fb75c84bdd3abef449ab955fb8c7a115bdbfcbac00000000"
    }
  ]
}