{
  "hash": "000000002bb7ee07bcad4a2b614bd0af837f6ed4a5c52dc95ae50ca6431c162f",
  "confirmations": 50265,
  "height": 2833,
  "version": 1,
  "versionHex": "00000001",
  "merkleroot": "9f85d1acd277eb5fee9ea97713eff3fb810ba6cbd03939f6115de75aebc2d29b",
  "time": 1233646712,
  "mediantime": 1233643589,
  "nonce": 1679989549,
  "bits": "1d00ffff",
  "difficulty": 1,
  "chainwork": "00000000000000000000000000000000000000000000000000000b120b120b12",
  "nTx": 1,
  "previousblockhash": "00000000a5d02a6579c5dd2fac21be1548502f6da29a82755614d189a092b23f",
  "nextblockhash": "00000000f0f505ccd8ee85fd63ece452379e4218cd743390e389a40ce1d0fe01",
  "strippedsize": 216,
  "size": 216,
  "weight": 864,
  "tx": [
    {
      "txid": "9f85d1acd277eb5fee9ea97713eff3fb810ba6cbd03939f6115de75aebc2d29b",
      "hash": "9f85d1acd277eb5fee9ea97713eff3fb810ba6cbd03939f6115de75aebc2d29b",
      "version": 1,
      "size": 135,
      "vsize": 135,
      "weight": 540,
      "locktime": 0,
      "vin": [
        {
          "coinbase": "04ffff001d029006",
          "sequence": 4294967295
        }
      ],
      "vout": [
        {
          "value": 50.0,
          "n": 0,
          "scriptPubKey": {
            "asm": "0425f3ae79b530dfed57978bd1ba0a3883a338bf12da4b6c37f5db137463c4d79e613316b91757c8a5413f1e3bf96fedfa82ba41913c47f303c23de7857e260816 OP_CHECKSIG",
            "desc": "pk(0425f3ae79b530dfed57978bd1ba0a3883a338bf12da4b6c37f5db137463c4d79e613316b91757c8a5413f1e3bf96fedfa82ba41913c47f303c23de7857e260816)#4aedv0z8",
            "hex": "410425f3ae79b530dfed57978bd1ba0a3883a338bf12da4b6c37f5db137463c4d79e613316b91757c8a5413f1e3bf96fedfa82ba41913c47f303c23de7857e260816ac",
            "type": "pubkey"
          }
        }
      ],
      "hex": "01000000010000000000000000000000000000000000000000000000000000000000000000ffffffff0804ffff001d029006ffffffff0100f2052a0100000043410425f3ae79b530dfed57978bd1ba0a3883a338bf12da4b6c37f5db137463c4d79e613316b91757c8a5413f1e3bf96fedfa82ba41913c47f303c23de7857e260816ac00000000"
    }
  ]
}