{
  "hash": "00000000b58de9128809fd2f74b9664d8422c2e250d5a3f1454e69579c6d0d18",
  "confirmations": 46605,
  "height": 6493,
  "version": 1,
  "versionHex": "00000001",
  "merkleroot": "ee7c3909800f19fdf846f5dd004b0792ba0a696c2f347fba2aba357458add457",
  "time": 1236325162,
  "mediantime": 1236320740,
  "nonce": 1359017235,
  "bits": "1d00ffff",
  "difficulty": 1,
  "chainwork": "0000000000000000000000000000000000000000000000000000195e195e195e",
  "nTx": 1,
  "previousblockhash": "000000005fad9ebb8923cff268ffef5cd61d22062700cfc331cebece79b21015",
  "nextblockhash": "000000004071ae39074040d4a302d96f61c45a0d38b6d5c5a7f4618aaa9e28c5",
  "strippedsize": 216,
  "size": 216,
  "weight": 864,
  "tx": [
    {
      "txid": "ee7c3909800f19fdf846f5dd004b0792ba0a696c2f347fba2aba357458add457",
      "hash": "ee7c3909800f19fdf846f5dd004b0792ba0a696c2f347fba2aba357458add457",
      "version": 1,
      "size": 135,
      "vsize": 135,
      "weight": 540,
      "locktime": 0,
      "vin": [
        {
          "coinbase": "04ffff001d028603",
          "sequence": 4294967295
        }
      ],
      "vout": [
        {
          "value": 50.0,
          "n": 0,
          "scriptPubKey": {
            "asm": "04beff1b4e6b47c82196ea5da6f7ef79c3d2291007251faae4dd099f0932a8c4482a6cf2c8dc6b2c7d09336bfdf4a7490324bf372e74c49c0eadddfd85d0534bb8 OP_CHECKSIG",
            "desc": "pk(04beff1b4e6b47c82196ea5da6f7ef79c3d2291007251faae4dd099f0932a8c4482a6cf2c8dc6b2c7d09336bfdf4a7490324bf372e74c49c0eadddfd85d0534bb8)#y9ykjkys",
            "hex": "4104beff1b4e6b47c82196ea5da6f7ef79c3d2291007251faae4dd099f0932a8c4482a6cf2c8dc6b2c7d09336bfdf4a7490324bf372e74c49c0eadddfd85d0534bb8ac",
            "type": "pubkey"
          }
        }
      ],
      "hex": "01000000010000000000000000000000000000000000000000000000000000000000000000ffffffff0804ffff001d028603ffffffff0100f2052a01000000434104beff1b4e6b47c82196ea5da6f7ef79c3d2291007251faae4dd099f0932a8c4482a6cf2c8dc6b2c7d09336bfdf4a7490324bf372e74c49c0eadddfd85d0534bb8ac00000000"
    }
  ]
}