{
  "hash": "00000000aa05c832c21beecec20b55876fe8e01e36d22e41a7f64225ef96c23c",
  "confirmations": 46249,
  "height": 6849,
  "version": 1,
  "versionHex": "00000001",
  "merkleroot": "869d3cb152318fe795da5fbd808e5ff66c4f06db5d03aac4f61f34466439581e",
  "time": 1236593584,
  "mediantime": 1236589268,
  "nonce": 2304489529,
  "bits": "1d00ffff",
  "difficulty": 1,
  "chainwork": "00000000000000000000000000000000000000000000000000001ac21ac21ac2",
  "nTx": 1,
  "previousblockhash": "0000000078f8f28a56ef1345b070eb3ffbf432828feb05ad51db938022d8b88e",
  "nextblockhash": "000000001bdc1ed3d810ff59f3eb7476b5da6327e0233d8abf1158e15de5a701",
  "strippedsize": 216,
  "size": 216,
  "weight": 864,
  "tx": [
    {
      "txid": "869d3cb152318fe795da5fbd808e5ff66c4f06db5d03aac4f61f34466439581e",
      "hash": "869d3cb152318fe795da5fbd808e5ff66c4f06db5d03aac4f61f34466439581e",
      "version": 1,
      "size": 135,
      "vsize": 135,
      "weight": 540,
      "locktime": 0,
      "vin": [
        {
          "coinbase": "04ffff001d02a309",
          "sequence": 4294967295
        }
      ],
      "vout": [
        {
          "value": 50.0,
          "n": 0,
          "scriptPubKey": {
            "asm": "0459e8b695f67d0d1d8003fc604e619eef2105a22d7a6661a62c7ff0a56ea23b4e797cd5bdd069b3c1a323825eefb8b53620c4f2247bf1cccb97e88b728acdcd6c OP_CHECKSIG",
            "desc": "pk(0459e8b695f67d0d1d8003fc604e619eef2105a22d7a6661a62c7ff0a56ea23b4e797cd5bdd069b3c1a323825eefb8b53620c4f2247bf1cccb97e88b728acdcd6c)#4juavzqf",
            "hex": "410459e8b695f67d0d1d8003fc604e619eef2105a22d7a6661a62c7ff0a56ea23b4e797cd5bdd069b3c1a323825eefb8b53620c4f2247bf1cccb97e88b728acdcd6cac",
            "type": "pubkey"
          }
        }
      ],
      "hex": "01000000010000000000000000000000000000000000000000000000000000000000000000ffffffff0804ffff001d02a309ffffffff0100f2052a0100000043410459e8b695f67d0d1d8003fc604e619eef2105a22d7a6661a62c7ff0a56ea23b4e797cd5bdd069b3c1a323825eefb8b53620c4f2247bf1cccb97e88b728acdcd6cac00000000"
    }
  ]
}