{
  "hash": "000000004916d6ebc3db4104b00783dc732721afac1a7251007d64106436c840",
  "confirmations": 47578,
  "height": 5520,
  "version": 1,
  "versionHex": "00000001",
  "merkleroot": "6a016cf2abed79aa33bd87a11d58ea54df8e4987aeeca0ffd6be11a8875498c4",
  "time": 1235536697,
  "mediantime": 1235533080,
  "nonce": 1694360836,
  "bits": "1d00ffff",
  "difficulty": 1,
  "chainwork": "0000000000000000000000000000000000000000000000000000159115911591",
  "nTx": 1,
  "previousblockhash": "00000000de88ee457981a8256127f340f98839d0ad59dacb744d8b347918a8cb",
  "nextblockhash": "00000000132c850b2de6863eadbd8b6c57b2ca9a63e0b726307bd6a5191646fc",
  "strippedsize": 216,
  "size": 216,
  "weight": 864,
  "tx": [
    {
      "txid": "6a016cf2abed79aa33bd87a11d58ea54df8e4987aeeca0ffd6be11a8875498c4",
      "hash": "6a016cf2abed79aa33bd87a11d58ea54df8e4987aeeca0ffd6be11a8875498c4",
      "version": 1,
      "size": 135,
      "vsize": 135,
      "weight": 540,
      "locktime": 0,
      "vin": [
        {
          "coinbase": "04ffff001d021006",
          "sequence": 4294967295
        }
      ],
      "vout": [
        {
          "value": 50.0,
          "n": 0,
          "scriptPubKey": {
            "asm": "0457572eb53ee59ec7f7f13796d2c82bea685923deaa0b685214a1eaf5bba25dc425bce237b00391081c7f02d69f4e4c81b321686119698bde327b9e7897661d9d OP_CHECKSIG",
            "desc": "pk(0457572eb53ee59ec7f7f13796d2c82bea685923deaa0b685214a1eaf5bba25dc425bce237b00391081c7f02d69f4e4c81b321686119698bde327b9e7897661d9d)#qqqla2dt",
            "hex": "410457572eb53ee59ec7f7f13796d2c82bea685923deaa0b685214a1eaf5bba25dc425bce237b00391081c7f02d69f4e4c81b321686119698bde327b9e7897661d9dac",
            "type": "pubkey"
          }
        }
      ],
      "hex": "01000000010000000000000000000000000000000000000000000000000000000000000000ffffffff0804ffff001d021006ffffffff0100f2052a0100000043410457572eb53ee59ec7f7f13796d2c82bea685923deaa0b685214a1eaf5bba25dc425bce237b00391081c7f02d69f4e4c81b321686119698bde327b9e7897661d9dac00000000"
    }
  ]
}