{
  "hash": "00000000f6033a344df6851d86ea1d78f03912ee5c82a042559fac51a330a06b",
  "confirmations": 51237,
  "height": 1861,
  "version": 1,
  "versionHex": "00000001",
  "merkleroot": "ce994b90703ea283b0c5c923a7fdbe2383083f721bb8222e795a7e477e980ecb",
  "time": 1232927244,
  "mediantime": 1232924487,
  "nonce": 2384503827,
  "bits": "1d00ffff",
  "difficulty": 1,
  "chainwork": "0000000000000000000000000000000000000000000000000000074607460746",
  "nTx": 1,
  "previousblockhash": "000000003bf1f8df98f0e5f2cfaaf8cae43811f6a297335e7e08245331d8ed99",
  "nextblockhash": "000000007e8d96fa8cb1477d84cc550c0057de2dd77649f9b9cfc018ff84fc6a",
  "strippedsize": 216,
  "size": 216,
  "weight": 864,
  "tx": [
    {
      "txid": "ce994b90703ea283b0c5c923a7fdbe2383083f721bb8222e795a7e477e980ecb",
      "hash": "ce994b90703ea283b0c5c923a7fdbe2383083f721bb8222e795a7e477e980ecb",
      "version": 1,
      "size": 135,
      "vsize": 135,
      "weight": 540,
      "locktime": 0,
      "vin": [
        {
          "coinbase": "04ffff001d02bf04",
          "sequence": 4294967295
        }
      ],
      "vout": [
        {
          "value": 50.0,
          "n": 0,
          "scriptPubKey": {
            "asm": "04244201343385a117d5e821aa2e9a89a61089bebaf41cb80a2d13420873881833a74d7615e12b8aee7a5a8f1ef768e4fbd18b36ca7cf86242159dbe4c0cf039a6 OP_CHECKSIG",
            "desc": "pk(04244201343385a117d5e821aa2e9a89a61089bebaf41cb80a2d13420873881833a74d7615e12b8aee7a5a8f1ef768e4fbd18b36ca7cf86242159dbe4c0cf039a6)#q73h3lz4",
            "hex": "4104244201343385a117d5e821aa2e9a89a61089bebaf41cb80a2d13420873881833a74d7615e12b8aee7a5a8f1ef768e4fbd18b36ca7cf86242159dbe4c0cf039a6ac",
            "type": "pubkey"
          }
        }
      ],
      "hex": "01000000010000000000000000000000000000000000000000000000000000000000000000ffffffff0804ffff001d02bf04ffffffff0100f2052a01000000434104244201343385a117d5e821aa2e9a89a61089bebaf41cb80a2d13420873881833a74d7615e12b8aee7a5a8f1ef768e4fbd18b36ca7cf86242159dbe4c0cf039a6ac00000000"
    }
  ]
}