{
  "hash": "00000000351e0c7b39324667b4e61689a023c202a23a868beb40f8fb75b32be5",
  "confirmations": 50614,
  "height": 2484,
  "version": 1,
  "versionHex": "00000001",
  "merkleroot": "0983e1a87ff26f128238449a3207d0f8bf1fa3a11aa4de45e048581ff3883bad",
  "time": 1233412920,
  "mediantime": 1233409932,
  "nonce": 3631383559,
  "bits": "1d00ffff",
  "difficulty": 1,
  "chainwork": "000000000000000000000000000000000000000000000000000009b509b509b5",
  "nTx": 1,
  "previousblockhash": "000000008801d8554b3e7470ffb511ca0664ecf07098b14be09dd036664328d0",
  "nextblockhash": "00000000500be0568fa9e2b97d88cdbe728f68c51228350bd4ee6deb10d563c1",
  "strippedsize": 216,
  "size": 216,
  "weight": 864,
  "tx": [
    {
      "txid": "0983e1a87ff26f128238449a3207d0f8bf1fa3a11aa4de45e048581ff3883bad",
      "hash": "0983e1a87ff26f128238449a3207d0f8bf1fa3a11aa4de45e048581ff3883bad",
      "version": 1,
      "size": 135,
      "vsize": 135,
      "weight": 540,
      "locktime": 0,
      "vin": [
        {
          "coinbase": "04ffff001d02ec00",
          "sequence": 4294967295
        }
      ],
      "vout": [
        {
          "value": 50.0,
          "n": 0,
          "scriptPubKey": {
            "asm": "04ebfbb3069a2504c1966f9e0773bda911dfd71d2687e2f93c0fd2b60ef3caffdf576adb6ac9c0973ecfbcbb333f467f82670297fa167f9060d98c9d76ec6fc062 OP_CHECKSIG",
            "desc": "pk(04ebfbb3069a2504c1966f9e0773bda911dfd71d2687e2f93c0fd2b60ef3caffdf576adb6ac9c0973ecfbcbb333f467f82670297fa167f9060d98c9d76ec6fc062)#tvp8vpzz",
            "hex": "4104ebfbb3069a2504c1966f9e0773bda911dfd71d2687e2f93c0fd2b60ef3caffdf576adb6ac9c0973ecfbcbb333f467f82670297fa167f9060d98c9d76ec6fc062ac",
            "type": "pubkey"
          }
        }
      ],
      "hex": "01000000010000000000000000000000000000000000000000000000000000000000000000ffffffff0804ffff001d02ec00ffffffff0100f2052a01000000434104ebfbb3069a2504c1966f9e0773bda911dfd71d2687e2f93c0fd2b60ef3caffdf576adb6ac9c0973ecfbcbb333f467f82670297fa167f9060d98c9d76ec6fc062ac00000000"
    }
  ]
}