{
  "hash": "00000000d2e1e0b7d3e5121c7d3d2f023232d6b9db5f152f86808da44a577a23",
  "confirmations": 45972,
  "height": 7126,
  "version": 1,
  "versionHex": "00000001",
  "merkleroot": "7f70a6c4be06818c025fe4c24a99c2fb5f3d1eab7413ca6ef50c39847b3f2406",
  "time": 1236815266,
  "mediantime": 1236812044,
  "nonce": 3094723126,
  "bits": "1d00ffff",
  "difficulty": 1,
  "chainwork": "00000000000000000000000000000000000000000000000000001bd71bd71bd7",
  "nTx": 1,
  "previousblockhash": "00000000b911b77f7f75c1f784167b18522d42d798a4c2e381185ea975f49bb9",
  "nextblockhash": "00000000828a13145b671b1ce34203560f94d91b3d7097a42b68f9075ffa9c6f",
  "strippedsize": 216,
  "size": 216,
  "weight": 864,
  "tx": [
    {
      "txid": "7f70a6c4be06818c025fe4c24a99c2fb5f3d1eab7413ca6ef50c39847b3f2406",
      "hash": "7f70a6c4be06818c025fe4c24a99c2fb5f3d1eab7413ca6ef50c39847b3f2406",
      "version": 1,
      "size": 135,
      "vsize": 135,
      "weight": 540,
      "locktime": 0,
      "vin": [
        {
          "coinbase": "04ffff001d025404",
          "sequence": 4294967295
        }
      ],
      "vout": [
        {
          "value": 50.0,
          "n": 0,
          "scriptPubKey": {
            "asm": "0476b4750c2793aff68656853aa4519f3f1932517dbe3dfbf512d02f06f34b3e3cc859ef19f960d097196f11120e8d42e0e5dac0b9517679011a9bb756beee7865 OP_CHECKSIG",
            "desc": "pk(0476b4750c2793aff68656853aa4519f3f1932517dbe3dfbf512d02f06f34b3e3cc859ef19f960d097196f11120e8d42e0e5dac0b9517679011a9bb756beee7865)#z7emjfxt",
            "hex": "410476b4750c2793aff68656853aa4519f3f1932517dbe3dfbf512d02f06f34b3e3cc859ef19f960d097196f11120e8d42e0e5dac0b9517679011a9bb756beee7865ac",
            "type": "pubkey"
          }
        }
      ],
      "hex": "01000000010000000000000000000000000000000000000000000000000000000000000000ffffffff0804ffff001d025404ffffffff0100f2052a0100000043410476b4750c2793aff68656853aa4519f3f1932517dbe3dfbf512d02f06f34b3e3cc859ef19f960d097196f11120e8d42e0e5dac0b9517679011a9bb756beee7865ac00000000"
    }
  ]
}