{
  "hash": "00000000e0b065f06b321953224a714423492fbff921bb732076528d4df7ff70",
  "confirmations": 45863,
  "height": 7235,
  "version": 1,
  "versionHex": "00000001",
  "merkleroot": "a810c153b7952218096b8af7e7f509b26edc737541da69aa7387e6e53fc163f1",
  "time": 1236895515,
  "mediantime": 1236893217,
  "nonce": 193208010,
  "bits": "1d00ffff",
  "difficulty": 1,
  "chainwork": "00000000000000000000000000000000000000000000000000001c441c441c44",
  "nTx": 1,
  "previousblockhash": "000000008ed1ebb5f9eeaec3ec58d49ffb4a50e32abbfa93a931dd9e52eca983",
  "nextblockhash": "000000008773bccf8a80a86b91cebf36a59cee12b2d5934bec88e1c6d8e3cfc5",
  "strippedsize": 216,
  "size": 216,
  "weight": 864,
  "tx": [
    {
      "txid": "a810c153b7952218096b8af7e7f509b26edc737541da69aa7387e6e53fc163f1",
      "hash": "a810c153b7952218096b8af7e7f509b26edc737541da69aa7387e6e53fc163f1",
      "version": 1,
      "size": 135,
      "vsize": 135,
      "weight": 540,
      "locktime": 0,
      "vin": [
        {
          "coinbase": "04ffff001d020b0e",
          "sequence": 4294967295
        }
      ],
      "vout": [
        {
          "value": 50.0,
          "n": 0,
          "scriptPubKey": {
            "asm": "0420753eeeaeb07262c9caf3fdfe5e5459698567ee76c6654daa919e535ae470a1f3658a9e3f7b44be2606d92c556f577f9b685305fe1a62eef0cd4d50d8770f26 OP_CHECKSIG",
            "desc": "pk(0420753eeeaeb07262c9caf3fdfe5e5459698567ee76c6654daa919e535ae470a1f3658a9e3f7b44be2606d92c556f577f9b685305fe1a62eef0cd4d50d8770f26)#xhlwaas2",
            "hex": "410420753eeeaeb07262c9caf3fdfe5e5459698567ee76c6654daa919e535ae470a1f3658a9e3f7b44be2606d92c556f577f9b685305fe1a62eef0cd4d50d8770f26ac",
            "type": "pubkey"
          }
        }
      ],
      "hex": "01000000010000000000000000000000000000000000000000000000000000000000000000ffffffff0804ffff001d020b0effffffff0100f2052a0100000043410420753eeeaeb07262c9caf3fdfe5e5459698567ee76c6654daa919e535ae470a1f3658a9e3f7b44be2606d92c556f577f9b685305fe1a62eef0cd4d50d8770f26ac00000000"
    }
  ]
}