{
  "hash": "00000000098887cb87a9d032ac69fcfd6d2dabb4025e0e94b37fdd6f7a1ce4c6",
  "confirmations": 49972,
  "height": 3126,
  "version": 1,
  "versionHex": "00000001",
  "merkleroot": "52eb0e64d9299f42375fa4844618a277e65b01ff3ae49656df9e6a81627363b9",
  "time": 1233852048,
  "mediantime": 1233849585,
  "nonce": 249879038,
  "bits": "1d00ffff",
  "difficulty": 1,
  "chainwork": "00000000000000000000000000000000000000000000000000000c370c370c37",
  "nTx": 1,
  "previousblockhash": "000000008a127d1dfbab4358ceeb1c2b0a3e6b54b9cc3120b80463975a9a4f3c",
  "nextblockhash": "000000008dc260f97887c1c39d1b7bc49261d5f23a4eb5f9fa0c3cf552d3a9af",
  "strippedsize": 215,
  "size": 215,
  "weight": 860,
  "tx": [
    {
      "txid": "52eb0e64d9299f42375fa4844618a277e65b01ff3ae49656df9e6a81627363b9",
      "hash": "52eb0e64d9299f42375fa4844618a277e65b01ff3ae49656df9e6a81627363b9",
      "version": 1,
      "size": 134,
      "vsize": 134,
      "weight": 536,
      "locktime": 0,
      "vin": [
        {
          "coinbase": "04ffff001d0122",
          "sequence": 4294967295
        }
      ],
      "vout": [
        {
          "value": 50.0,
          "n": 0,
          "scriptPubKey": {
            "asm": "043a310c2c78194253d021e0195c02cdc5badd063af519ab6358d0948cd01ba5f902751d568ee72366a5243196b22379c16de9642ab869a485d6f6996017750133 OP_CHECKSIG",
            "desc": "pk(043a310c2c78194253d021e0195c02cdc5badd063af519ab6358d0948cd01ba5f902751d568ee72366a5243196b22379c16de9642ab869a485d6f6996017750133)#g9f8tj65",
            "hex": "41043a310c2c78194253d021e0195c02cdc5badd063af519ab6358d0948cd01ba5f902751d568ee72366a5243196b22379c16de9642ab869a485d6f6996017750133ac",
            "type": "pubkey"
          }
        }
      ],
      "hex": "01000000010000000000000000000000000000000000000000000000000000000000000000ffffffff0704ffff001d0122ffffffff0100f2052a010000004341043a310c2c78194253d021e0195c02cdc5badd063af519ab6358d0948cd01ba5f902751d568ee72366a5243196b22379c16de9642ab869a485d6f6996017750133ac00000000"
    }
  ]
}