{
  "hash": "0000000041e2d9a0e1a3cb1381a1797625d017df5b2e4614f48e312cbeb31046",
  "confirmations": 44756,
  "height": 8342,
  "version": 1,
  "versionHex": "00000001",
  "merkleroot": "f3eebf3fe7be033d3d1067c266c4653c3a884029efeb8afe606e67d8fad573fe",
  "time": 1237759931,
  "mediantime": 1237758776,
  "nonce": 171343159,
  "bits": "1d00ffff",
  "difficulty": 1,
  "chainwork": "0000000000000000000000000000000000000000000000000000209720972097",
  "nTx": 1,
  "previousblockhash": "0000000056035e9ea4399a5b064f2c443c3984c48f116c59e0e0d5c772cc65d4",
  "nextblockhash": "00000000b55e5adaa9d5a166238486e9863f48766af2877cc9217680c30a8019",
  "strippedsize": 216,
  "size": 216,
  "weight": 864,
  "tx": [
    {
      "txid": "f3eebf3fe7be033d3d1067c266c4653c3a884029efeb8afe606e67d8fad573fe",
      "hash": "f3eebf3fe7be033d3d1067c266c4653c3a884029efeb8afe606e67d8fad573fe",
      "version": 1,
      "size": 135,
      "vsize": 135,
      "weight": 540,
      "locktime": 0,
      "vin": [
        {
          "coinbase": "04ffff001d02d304",
          "sequence": 4294967295
        }
      ],
      "vout": [
        {
          "value": 50.0,
          "n": 0,
          "scriptPubKey": {
            "asm": "04ba47ad65da7402115bf73cd511239542ee4d80a535667aaf124a6d926862a12eae44db7c8f7e00d642b5b50274a85efb06b23239d1d549d6abc636ac6b23ab44 OP_CHECKSIG",
            "desc": "pk(04ba47ad65da7402115bf73cd511239542ee4d80a535667aaf124a6d926862a12eae44db7c8f7e00d642b5b50274a85efb06b23239d1d549d6abc636ac6b23ab44)#mt0gqe9y",
            "hex": "4104ba47ad65da7402115bf73cd511239542ee4d80a535667aaf124a6d926862a12eae44db7c8f7e00d642b5b50274a85efb06b23239d1d549d6abc636ac6b23ab44ac",
            "type": "pubkey"
          }
        }
      ],
      "hex": "01000000010000000000000000000000000000000000000000000000000000000000000000ffffffff0804ffff001d02d304ffffffff0100f2052a01000000434104ba47ad65da7402115bf73cd511239542ee4d80a535667aaf124a6d926862a12eae44db7c8f7e00d642b5b50274a85efb06b23239d1d549d6abc636ac6b23ab44ac00000000"
    }
  ]
}