{
  "hash": "000000000c3c5fb33ea4106d8b52a7dee184111ec53d23c4c76eeb0ab7a9ec82",
  "confirmations": 45381,
  "height": 7717,
  "version": 1,
  "versionHex": "00000001",
  "merkleroot": "ae23a48f6ef288ac73bab91408451b1cfcf9e6df6ff7621f668ba5a781d1dff2",
  "time": 1237251986,
  "mediantime": 1237247227,
  "nonce": 12539940,
  "bits": "1d00ffff",
  "difficulty": 1,
  "chainwork": "00000000000000000000000000000000000000000000000000001e261e261e26",
  "nTx": 1,
  "previousblockhash": "00000000bd9728e591043a3328bc8d0b84e37c57caca6e37f7d02cab56dbbf3b",
  "nextblockhash": "000000000962984c4d1cc6d4508fd134269542924a0c3c92fe904af741627297",
  "strippedsize": 216,
  "size": 216,
  "weight": 864,
  "tx": [
    {
      "txid": "ae23a48f6ef288ac73bab91408451b1cfcf9e6df6ff7621f668ba5a781d1dff2",
      "hash": "ae23a48f6ef288ac73bab91408451b1cfcf9e6df6ff7621f668ba5a781d1dff2",
      "version": 1,
      "size": 135,
      "vsize": 135,
      "weight": 540,
      "locktime": 0,
      "vin": [
        {
          "coinbase": "04ffff001d027b04",
          "sequence": 4294967295
        }
      ],
      "vout": [
        {
          "value": 50.0,
          "n": 0,
          "scriptPubKey": {
            "asm": "0493f5796eeac120c813ec136d82c9f003849a6254fef7a67a851f7c1a836c3b35c0db3d0065557423777b7d9e399ec4353dfefd3f8f5a345bd2d465e06ee6f3cc OP_CHECKSIG",
            "desc": "pk(0493f5796eeac120c813ec136d82c9f003849a6254fef7a67a851f7c1a836c3b35c0db3d0065557423777b7d9e399ec4353dfefd3f8f5a345bd2d465e06ee6f3cc)#d4ty2g22",
            "hex": "410493f5796eeac120c813ec136d82c9f003849a6254fef7a67a851f7c1a836c3b35c0db3d0065557423777b7d9e399ec4353dfefd3f8f5a345bd2d465e06ee6f3ccac",
            "type": "pubkey"
          }
        }
      ],
      "hex": "01000000010000000000000000000000000000000000000000000000000000000000000000ffffffff0804ffff001d027b04ffffffff0100f2052a0100000043410493f5796eeac120c813ec136d82c9f003849a6254fef7a67a851f7c1a836c3b35c0db3d0065557423777b7d9e399ec4353dfefd3f8f5a345bd2d465e06ee6f3ccac00000000"
    }
  ]
}