{
  "hash": "000000003ef4ac1722dd82267620bdc3d892fbeb7253ed596b16909e196e7413",
  "confirmations": 43557,
  "height": 9541,
  "version": 1,
  "versionHex": "00000001",
  "merkleroot": "a1a6f77edc3d78c7c5da93ca46b84c57282778b672542d524ed86ff645b3e146",
  "time": 1238654655,
  "mediantime": 1238649834,
  "nonce": 1453162548,
  "bits": "1d00ffff",
  "difficulty": 1,
  "chainwork": "0000000000000000000000000000000000000000000000000000254625462546",
  "nTx": 1,
  "previousblockhash": "000000008893a16f8cf72bcad0280c0afb27fe42e69747644f5337f28ca5e32d",
  "nextblockhash": "0000000010aeb8b367224364dcc3de94c10972238e1c21303150c890300a602f",
  "strippedsize": 216,
  "size": 216,
  "weight": 864,
  "tx": [
    {
      "txid": "a1a6f77edc3d78c7c5da93ca46b84c57282778b672542d524ed86ff645b3e146",
      "hash": "a1a6f77edc3d78c7c5da93ca46b84c57282778b672542d524ed86ff645b3e146",
      "version": 1,
      "size": 135,
      "vsize": 135,
      "weight": 540,
      "locktime": 0,
      "vin": [
        {
          "coinbase": "04ffff001d02eb05",
          "sequence": 4294967295
        }
      ],
      "vout": [
        {
          "value": 50.0,
          "n": 0,
          "scriptPubKey": {
            "asm": "04042f76c30569adeaf34f2492db3bde49c5f29f650e2816564fe459959de2eeb4e5200a391397d50f2a14209385773c1897c87d11caa89c755092fd660d327e86 OP_CHECKSIG",
            "desc": "pk(04042f76c30569adeaf34f2492db3bde49c5f29f650e2816564fe459959de2eeb4e5200a391397d50f2a14209385773c1897c87d11caa89c755092fd660d327e86)#94a4j528",
            "hex": "4104042f76c30569adeaf34f2492db3bde49c5f29f650e2816564fe459959de2eeb4e5200a391397d50f2a14209385773c1897c87d11caa89c755092fd660d327e86ac",
            "type": "pubkey"
          }
        }
      ],
      "hex": "01000000010000000000000000000000000000000000000000000000000000000000000000ffffffff0804ffff001d02eb05ffffffff0100f2052a01000000434104042f76c30569adeaf34f2492db3bde49c5f29f650e2816564fe459959de2eeb4e5200a391397d50f2a14209385773c1897c87d11caa89c755092fd660d327e86ac00000000"
    }
  ]
}