{
  "hash": "000000006298b2185338010a1ecb305b7197071a1a0ca5c5b31a3f9bb4af4927",
  "confirmations": 45991,
  "height": 7107,
  "version": 1,
  "versionHex": "00000001",
  "merkleroot": "9e4c6f26ea767bf4d6502b94480d60a68f5fb8c925882baa9fe8ce1fd5cda2f5",
  "time": 1236802826,
  "mediantime": 1236798170,
  "nonce": 94153990,
  "bits": "1d00ffff",
  "difficulty": 1,
  "chainwork": "00000000000000000000000000000000000000000000000000001bc41bc41bc4",
  "nTx": 1,
  "previousblockhash": "000000006fc251fff0970e90d49897132adfe8cfb32e7e998d05fe42bf17b151",
  "nextblockhash": "00000000adee5d7e2d3fd6b4b2d44f1bea1d1342d1dab9db7441b782383fa3bd",
  "strippedsize": 216,
  "size": 216,
  "weight": 864,
  "tx": [
    {
      "txid": "9e4c6f26ea767bf4d6502b94480d60a68f5fb8c925882baa9fe8ce1fd5cda2f5",
      "hash": "9e4c6f26ea767bf4d6502b94480d60a68f5fb8c925882baa9fe8ce1fd5cda2f5",
      "version": 1,
      "size": 135,
      "vsize": 135,
      "weight": 540,
      "locktime": 0,
      "vin": [
        {
          "coinbase": "04ffff001d020604",
          "sequence": 4294967295
        }
      ],
      "vout": [
        {
          "value": 50.0,
          "n": 0,
          "scriptPubKey": {
            "asm": "0473627322b03e73b3a5e0ed99c67fbf88c0476f9f1af93bc0884f5350b0930797fcc299b56e7eed3e9eb77abe1bd408b66b335912f26629b4932a25e825fec818 OP_CHECKSIG",
            "desc": "pk(0473627322b03e73b3a5e0ed99c67fbf88c0476f9f1af93bc0884f5350b0930797fcc299b56e7eed3e9eb77abe1bd408b66b335912f26629b4932a25e825fec818)#sraj8wcy",
            "hex": "410473627322b03e73b3a5e0ed99c67fbf88c0476f9f1af93bc0884f5350b0930797fcc299b56e7eed3e9eb77abe1bd408b66b335912f26629b4932a25e825fec818ac",
            "type": "pubkey"
          }
        }
      ],
      "hex": "01000000010000000000000000000000000000000000000000000000000000000000000000ffffffff0804ffff001d020604ffffffff0100f2052a0100000043410473627322b03e73b3a5e0ed99c67fbf88c0476f9f1af93bc0884f5350b0930797fcc299b56e7eed3e9eb77abe1bd408b66b335912f26629b4932a25e825fec818ac00000000"
    }
  ]
}