{
  "hash": "00000000727ad4862f92633549f451cd8f478f1bc40e9149f80eb415da3a7533",
  "confirmations": 52356,
  "height": 742,
  "version": 1,
  "versionHex": "00000001",
  "merkleroot": "c0941c4d8ac40f707086943a31615983838a44eee953061512f2d141cad9c4b6",
  "time": 1232143308,
  "mediantime": 1232139727,
  "nonce": 540685879,
  "bits": "1d00ffff",
  "difficulty": 1,
  "chainwork": "000000000000000000000000000000000000000000000000000002e702e702e7",
  "nTx": 1,
  "previousblockhash": "000000006e86c045f9802af84992d9b1d5f099157b9eb89328477ce57ec6f038",
  "nextblockhash": "00000000731219aec041addd2c99cea903071350b0944fc2988bbec86877abaa",
  "strippedsize": 215,
  "size": 215,
  "weight": 860,
  "tx": [
    {
      "txid": "c0941c4d8ac40f707086943a31615983838a44eee953061512f2d141cad9c4b6",
      "hash": "c0941c4d8ac40f707086943a31615983838a44eee953061512f2d141cad9c4b6",
      "version": 1,
      "size": 134,
      "vsize": 134,
      "weight": 536,
      "locktime": 0,
      "vin": [
        {
          "coinbase": "04ffff001d017e",
          "sequence": 4294967295
        }
      ],
      "vout": [
        {
          "value": 50.0,
          "n": 0,
          "scriptPubKey": {
            "asm": "04d10e8ffef5a08e90fc11d3ad617e6797613de6bc485139109f1e580fa93d541ccbd90f6a531e4f3bfdfc4bf4d341d8303502202f639ce941088004ccd0d8d3de OP_CHECKSIG",
            "desc": "pk(04d10e8ffef5a08e90fc11d3ad617e6797613de6bc485139109f1e580fa93d541ccbd90f6a531e4f3bfdfc4bf4d341d8303502202f639ce941088004ccd0d8d3de)#6fdte9w6",
            "hex": "4104d10e8ffef5a08e90fc11d3ad617e6797613de6bc485139109f1e580fa93d541ccbd90f6a531e4f3bfdfc4bf4d341d8303502202f639ce941088004ccd0d8d3deac",
            "type": "pubkey"
          }
        }
      ],
      "hex": "01000000010000000000000000000000000000000000000000000000000000000000000000ffffffff0704ffff001d017effffffff0100f2052a01000000434104d10e8ffef5a08e90fc11d3ad617e6797613de6bc485139109f1e580fa93d541ccbd90f6a531e4f3bfdfc4bf4d341d8303502202f639ce941088004ccd0d8d3deac00000000"
    }
  ]
}