{
  "hash": "000000007c8087b2f6ee94537a66e56e6bc0a1b290f2def8557c1bd1bded70c6",
  "confirmations": 50919,
  "height": 2179,
  "version": 1,
  "versionHex": "00000001",
  "merkleroot": "d03c92e6d5c35044a743764ae58169c4cdec73579686a20253604d1b4faa0953",
  "time": 1233197335,
  "mediantime": 1233194849,
  "nonce": 1643475462,
  "bits": "1d00ffff",
  "difficulty": 1,
  "chainwork": "0000000000000000000000000000000000000000000000000000088408840884",
  "nTx": 1,
  "previousblockhash": "0000000003a92603ab1f2251c09b72d830fedd485d10149b7bbeb0bde08d42af",
  "nextblockhash": "00000000905094bf55841908b240d56d7016cc60d49d2ec0bafdfa60edc1dea8",
  "strippedsize": 215,
  "size": 215,
  "weight": 860,
  "tx": [
    {
      "txid": "d03c92e6d5c35044a743764ae58169c4cdec73579686a20253604d1b4faa0953",
      "hash": "d03c92e6d5c35044a743764ae58169c4cdec73579686a20253604d1b4faa0953",
      "version": 1,
      "size": 134,
      "vsize": 134,
      "weight": 536,
      "locktime": 0,
      "vin": [
        {
          "coinbase": "04ffff001d010b",
          "sequence": 4294967295
        }
      ],
      "vout": [
        {
          "value": 50.0,
          "n": 0,
          "scriptPubKey": {
            "asm": "0478bdedcbc34914b19a0f081670299f18cba88110b641185e3507f01c79abe2709ac66c4418aacf26edbcf370b19a5f7cfa977f740df85c55307894b849880786 OP_CHECKSIG",
            "desc": "pk(0478bdedcbc34914b19a0f081670299f18cba88110b641185e3507f01c79abe2709ac66c4418aacf26edbcf370b19a5f7cfa977f740df85c55307894b849880786)#mr7ulqpn",
            "hex": "410478bdedcbc34914b19a0f081670299f18cba88110b641185e3507f01c79abe2709ac66c4418aacf26edbcf370b19a5f7cfa977f740df85c55307894b849880786ac",
            "type": "pubkey"
          }
        }
      ],
      "hex": "01000000010000000000000000000000000000000000000000000000000000000000000000ffffffff0704ffff001d010bffffffff0100f2052a0100000043410478bdedcbc34914b19a0f081670299f18cba88110b641185e3507f01c79abe2709ac66c4418aacf26edbcf370b19a5f7cfa977f740df85c55307894b849880786ac00000000"
    }
  ]
}