{
  "hash": "000000000505e01616ba20af8d1476907f90ebdf9f461170f652c0ef04ec7446",
  "confirmations": 43338,
  "height": 9760,
  "version": 1,
  "versionHex": "00000001",
  "merkleroot": "0bcae9671ed482b08eb2f8476f7c6c01c266e920c08fa71ccbec1a8da9adbf6a",
  "time": 1238824592,
  "mediantime": 1238820529,
  "nonce": 25299181,
  "bits": "1d00ffff",
  "difficulty": 1,
  "chainwork": "0000000000000000000000000000000000000000000000000000262126212621",
  "nTx": 1,
  "previousblockhash": "00000000fd3a6b6eeacf31f81be3ba2d88a5fbd41fdb06f1a4a5c12370a5c9e4",
  "nextblockhash": "00000000e011735719f2c8980eb2a76d6eab1024ffebe0773c4c1393360a5346",
  "strippedsize": 216,
  "size": 216,
  "weight": 864,
  "tx": [
    {
      "txid": "0bcae9671ed482b08eb2f8476f7c6c01c266e920c08fa71ccbec1a8da9adbf6a",
      "hash": "0bcae9671ed482b08eb2f8476f7c6c01c266e920c08fa71ccbec1a8da9adbf6a",
      "version": 1,
      "size": 135,
      "vsize": 135,
      "weight": 540,
      "locktime": 0,
      "vin": [
        {
          "coinbase": "04ffff001d02d810",
          "sequence": 4294967295
        }
      ],
      "vout": [
        {
          "value": 50.0,
          "n": 0,
          "scriptPubKey": {
            "asm": "044f9f91eaa1867f4921cfd5fe5972497ebe49aa7a41b0408c748494bc1a31f51ecfc413fd5eb3fcb74539d5b33d0546fcbfc902337aa14dbf8313bc6c43bde1c8 OP_CHECKSIG",
            "desc": "pk(044f9f91eaa1867f4921cfd5fe5972497ebe49aa7a41b0408c748494bc1a31f51ecfc413fd5eb3fcb74539d5b33d0546fcbfc902337aa14dbf8313bc6c43bde1c8)#uasvnaln",
            "hex": "41044f9f91eaa1867f4921cfd5fe5972497ebe49aa7a41b0408c748494bc1a31f51ecfc413fd5eb3fcb74539d5b33d0546fcbfc902337aa14dbf8313bc6c43bde1c8ac",
            "type": "pubkey"
          }
        }
      ],
      "hex": "01000000010000000000000000000000000000000000000000000000000000000000000000ffffffff0804ffff001d02d810ffffffff0100f2052a010000004341044f9f91eaa1867f4921cfd5fe5972497ebe49aa7a41b0408c748494bc1a31f51ecfc413fd5eb3fcb74539d5b33d0546fcbfc902337aa14dbf8313bc6c43bde1c8ac00000000"
    }
  ]
}