{
  "hash": "00000000f0b6da96d1e3272e87e181a7057c3d79bf984b420d4f6fd6d7a49fc7",
  "confirmations": 51898,
  "height": 1200,
  "version": 1,
  "versionHex": "00000001",
  "merkleroot": "1805975cc25a94f46810e68950c16dfe99684d010abf5c72c51bcc9cdfb56ab7",
  "time": 1232500435,
  "mediantime": 1232496380,
  "nonce": 1034021175,
  "bits": "1d00ffff",
  "difficulty": 1,
  "chainwork": "000000000000000000000000000000000000000000000000000004b104b104b1",
  "nTx": 1,
  "previousblockhash": "000000005b3b7ea5ebdb0d518bd68cddbe3e283adb447bcaa5b13a459c474737",
  "nextblockhash": "00000000e6fbf1fd197e80e1e738ecd5890cb6e038b6ba32484adfad3c335921",
  "strippedsize": 216,
  "size": 216,
  "weight": 864,
  "tx": [
    {
      "txid": "1805975cc25a94f46810e68950c16dfe99684d010abf5c72c51bcc9cdfb56ab7",
      "hash": "1805975cc25a94f46810e68950c16dfe99684d010abf5c72c51bcc9cdfb56ab7",
      "version": 1,
      "size": 135,
      "vsize": 135,
      "weight": 540,
      "locktime": 0,
      "vin": [
        {
          "coinbase": "04ffff001d02a708",
          "sequence": 4294967295
        }
      ],
      "vout": [
        {
          "value": 50.0,
          "n": 0,
          "scriptPubKey": {
            "asm": "0468c05213a45afe39ca018044e77e7c30dfdac7b6ed1fcf7bb9176514c1f3d8da7483979441bce524de1ab4b1223b14aaae7bb1e2f5b0efa26cacd492739d2fb7 OP_CHECKSIG",
            "desc": "pk(0468c05213a45afe39ca018044e77e7c30dfdac7b6ed1fcf7bb9176514c1f3d8da7483979441bce524de1ab4b1223b14aaae7bb1e2f5b0efa26cacd492739d2fb7)#4fn0kgzr",
            "hex": "410468c05213a45afe39ca018044e77e7c30dfdac7b6ed1fcf7bb9176514c1f3d8da7483979441bce524de1ab4b1223b14aaae7bb1e2f5b0efa26cacd492739d2fb7ac",
            "type": "pubkey"
          }
        }
      ],
      "hex": "01000000010000000000000000000000000000000000000000000000000000000000000000ffffffff0804ffff001d02a708ffffffff0100f2052a0100000043410468c05213a45afe39ca018044e77e7c30dfdac7b6ed1fcf7bb9176514c1f3d8da7483979441bce524de1ab4b1223b14aaae7bb1e2f5b0efa26cacd492739d2fb7ac00000000"
    }
  ]
}