{
  "hash": "000000008356bc1b035b437792093959059a7ca312a576313bdaf2610b3124c5",
  "confirmations": 52173,
  "height": 456,
  "version": 1,
  "versionHex": "00000001",
  "merkleroot": "db9f7175c83f7a50a6449f9b1960784067c117c401898bed79da7eafa8ed0e73",
  "time": 1231941022,
  "mediantime": 1231936485,
  "nonce": 1780421632,
  "bits": "1d00ffff",
  "difficulty": 1,
  "chainwork": "000000000000000000000000000000000000000000000000000001c901c901c9",
  "nTx": 1,
  "previousblockhash": "0000000013562603b4aadfcce524747ca80ba40b2ec18ab533b4ad697819e760",
  "nextblockhash": "000000000c86bbd3cbfe99ef173d046ac8f6d39b6819af1b6353861d36365f0a",
  "strippedsize": 216,
  "size": 216,
  "weight": 864,
  "tx": [
    {
      "txid": "db9f7175c83f7a50a6449f9b1960784067c117c401898bed79da7eafa8ed0e73",
      "hash": "db9f7175c83f7a50a6449f9b1960784067c117c401898bed79da7eafa8ed0e73",
      "version": 1,
      "size": 135,
      "vsize": 135,
      "weight": 540,
      "locktime": 0,
      "vin": [
        {
          "coinbase": "04ffff001d02c703",
          "sequence": 4294967295
        }
      ],
      "vout": [
        {
          "value": 50.0,
          "n": 0,
          "scriptPubKey": {
            "asm": "04dea793862807035abc3beb804d88e242c4ce709b6526ccbbd6d2909a113903247cbeec2e5d5945f3fb5b5a94bc3b23f9b73ff12aff2e4150e7e99bf71d59542e OP_CHECKSIG",
            "desc": "pk(04dea793862807035abc3beb804d88e242c4ce709b6526ccbbd6d2909a113903247cbeec2e5d5945f3fb5b5a94bc3b23f9b73ff12aff2e4150e7e99bf71d59542e)#4p7nz0f5",
            "hex": "4104dea793862807035abc3beb804d88e242c4ce709b6526ccbbd6d2909a113903247cbeec2e5d5945f3fb5b5a94bc3b23f9b73ff12aff2e4150e7e99bf71d59542eac",
            "type": "pubkey"
          }
        }
      ],
      "hex": "01000000010000000000000000000000000000000000000000000000000000000000000000ffffffff0804ffff001d02c703ffffffff0100f2052a01000000434104dea793862807035abc3beb804d88e242c4ce709b6526ccbbd6d2909a113903247cbeec2e5d5945f3fb5b5a94bc3b23f9b73ff12aff2e4150e7e99bf71d59542eac00000000"
    }
  ]
}