{
  "hash": "00000000a3099f5f4100c759a09d3ba7001e9075d7997c4e0e76308209dfece8",
  "confirmations": 50975,
  "height": 2123,
  "version": 1,
  "versionHex": "00000001",
  "merkleroot": "f1591a81aa8cd0feab3a144acde0ca1b7bf5d24b6e88950cfba9ea9dedcc57d4",
  "time": 1233153416,
  "mediantime": 1233150472,
  "nonce": 1314405661,
  "bits": "1d00ffff",
  "difficulty": 1,
  "chainwork": "0000000000000000000000000000000000000000000000000000084c084c084c",
  "nTx": 1,
  "previousblockhash": "00000000602eaea606c6044442ff5ffa50bbf45d6168ca11b3d4f8fab77d7645",
  "nextblockhash": "00000000ec63bfa1cf092e0ad9a2e6bb3df4f08dbae655c068dec3b136e78bf1",
  "strippedsize": 216,
  "size": 216,
  "weight": 864,
  "tx": [
    {
      "txid": "f1591a81aa8cd0feab3a144acde0ca1b7bf5d24b6e88950cfba9ea9dedcc57d4",
      "hash": "f1591a81aa8cd0feab3a144acde0ca1b7bf5d24b6e88950cfba9ea9dedcc57d4",
      "version": 1,
      "size": 135,
      "vsize": 135,
      "weight": 540,
      "locktime": 0,
      "vin": [
        {
          "coinbase": "04ffff001d02f903",
          "sequence": 4294967295
        }
      ],
      "vout": [
        {
          "value": 50.0,
          "n": 0,
          "scriptPubKey": {
            "asm": "0420c49e02d3fd648d42ef1a9ab5c5707a0b39f7436b1b90a1bd99751e19c61934e4ab314f5066ce6a0be8404c452fad007399c8e058322229ddd8b67c0f45b757 OP_CHECKSIG",
            "desc": "pk(0420c49e02d3fd648d42ef1a9ab5c5707a0b39f7436b1b90a1bd99751e19c61934e4ab314f5066ce6a0be8404c452fad007399c8e058322229ddd8b67c0f45b757)#qx5aa74r",
            "hex": "410420c49e02d3fd648d42ef1a9ab5c5707a0b39f7436b1b90a1bd99751e19c61934e4ab314f5066ce6a0be8404c452fad007399c8e058322229ddd8b67c0f45b757ac",
            "type": "pubkey"
          }
        }
      ],
      "hex": "01000000010000000000000000000000000000000000000000000000000000000000000000ffffffff0804ffff001d02f903ffffffff0100f2052a0100000043410420c49e02d3fd648d42ef1a9ab5c5707a0b39f7436b1b90a1bd99751e19c61934e4ab314f5066ce6a0be8404c452fad007399c8e058322229ddd8b67c0f45b757ac00000000"
    }
  ]
}