{
  "hash": "00000000ded964897b5102b2e70a685fde945ad88405e657cd8406e1f519a404",
  "confirmations": 47314,
  "height": 5784,
  "version": 1,
  "versionHex": "00000001",
  "merkleroot": "742b7b1b215fc24fa7b46bfe2b488be15b687a6c7bcf863fdc7b8db040de84b0",
  "time": 1235749053,
  "mediantime": 1235743433,
  "nonce": 904122899,
  "bits": "1d00ffff",
  "difficulty": 1,
  "chainwork": "0000000000000000000000000000000000000000000000000000169916991699",
  "nTx": 1,
  "previousblockhash": "000000005dcc844e056aef76ba55ccf388e25fd92d1ec64d7317577aa8a66161",
  "nextblockhash": "00000000dc1aca742f8e8192fd60e9ec882a3ce0e65015a73b18034a90aebf15",
  "strippedsize": 216,
  "size": 216,
  "weight": 864,
  "tx": [
    {
      "txid": "742b7b1b215fc24fa7b46bfe2b488be15b687a6c7bcf863fdc7b8db040de84b0",
      "hash": "742b7b1b215fc24fa7b46bfe2b488be15b687a6c7bcf863fdc7b8db040de84b0",
      "version": 1,
      "size": 135,
      "vsize": 135,
      "weight": 540,
      "locktime": 0,
      "vin": [
        {
          "coinbase": "04ffff001d028200",
          "sequence": 4294967295
        }
      ],
      "vout": [
        {
          "value": 50.0,
          "n": 0,
          "scriptPubKey": {
            "asm": "04d66981b6eb1b7833ec09c3434c90742868fcfc655776aa58e9ed5263963a101ba0d16219ad788d1f0d403063918b3b0c0f182bada1b7e8fff8369cdf0c41d4e7 OP_CHECKSIG",
            "desc": "pk(04d66981b6eb1b7833ec09c3434c90742868fcfc655776aa58e9ed5263963a101ba0d16219ad788d1f0d403063918b3b0c0f182bada1b7e8fff8369cdf0c41d4e7)#t2u0ham5",
            "hex": "4104d66981b6eb1b7833ec09c3434c90742868fcfc655776aa58e9ed5263963a101ba0d16219ad788d1f0d403063918b3b0c0f182bada1b7e8fff8369cdf0c41d4e7ac",
            "type": "pubkey"
          }
        }
      ],
      "hex": "01000000010000000000000000000000000000000000000000000000000000000000000000ffffffff0804ffff001d028200ffffffff0100f2052a01000000434104d66981b6eb1b7833ec09c3434c90742868fcfc655776aa58e9ed5263963a101ba0d16219ad788d1f0d403063918b3b0c0f182bada1b7e8fff8369cdf0c41d4e7ac00000000"
    }
  ]
}