{
  "hash": "000000005d468ff89f544ccc58cba53493cb818815455742034837091c6ad473",
  "confirmations": 50247,
  "height": 2851,
  "version": 1,
  "versionHex": "00000001",
  "merkleroot": "3e4aa4992b633962b4682b4c11c18677b0c02ead212781a0fabf8ad535070ceb",
  "time": 1233658146,
  "mediantime": 1233656722,
  "nonce": 3468541997,
  "bits": "1d00ffff",
  "difficulty": 1,
  "chainwork": "00000000000000000000000000000000000000000000000000000b240b240b24",
  "nTx": 1,
  "previousblockhash": "0000000082fe6107593d074303ab3b17996ee50ed8faa3a0faf96b736d697c34",
  "nextblockhash": "00000000109b9ebab7924f0bb110dda99b3ef399e33dd4975cf2f69e03592726",
  "strippedsize": 216,
  "size": 216,
  "weight": 864,
  "tx": [
    {
      "txid": "3e4aa4992b633962b4682b4c11c18677b0c02ead212781a0fabf8ad535070ceb",
      "hash": "3e4aa4992b633962b4682b4c11c18677b0c02ead212781a0fabf8ad535070ceb",
      "version": 1,
      "size": 135,
      "vsize": 135,
      "weight": 540,
      "locktime": 0,
      "vin": [
        {
          "coinbase": "04ffff001d02c606",
          "sequence": 4294967295
        }
      ],
      "vout": [
        {
          "value": 50.0,
          "n": 0,
          "scriptPubKey": {
            "asm": "042d4b4bb1ddc2d5a454c68f3972084e333a63df3e428de47c8dcf32dc6befb3ae86f5672d7e47e997d9fc06af81f5dc3e68cd492eb631643b5f264012129764c9 OP_CHECKSIG",
            "desc": "pk(042d4b4bb1ddc2d5a454c68f3972084e333a63df3e428de47c8dcf32dc6befb3ae86f5672d7e47e997d9fc06af81f5dc3e68cd492eb631643b5f264012129764c9)#cv6wcst6",
            "hex": "41042d4b4bb1ddc2d5a454c68f3972084e333a63df3e428de47c8dcf32dc6befb3ae86f5672d7e47e997d9fc06af81f5dc3e68cd492eb631643b5f264012129764c9ac",
            "type": "pubkey"
          }
        }
      ],
      "hex": "01000000010000000000000000000000000000000000000000000000000000000000000000ffffffff0804ffff001d02c606ffffffff0100f2052a010000004341042d4b4bb1ddc2d5a454c68f3972084e333a63df3e428de47c8dcf32dc6befb3ae86f5672d7e47e997d9fc06af81f5dc3e68cd492eb631643b5f264012129764c9ac00000000"
    }
  ]
}