{
  "hash": "000000001098e5eeaface1388dd57a76983180699df43b1c06fd8ff0e3786c63",
  "confirmations": 44821,
  "height": 8277,
  "version": 1,
  "versionHex": "00000001",
  "merkleroot": "fdfe92ec1676cc2614bae8d8e4fc68e3f912dcc0c868651158929d68ba0eff7b",
  "time": 1237717640,
  "mediantime": 1237714661,
  "nonce": 3010785043,
  "bits": "1d00ffff",
  "difficulty": 1,
  "chainwork": "0000000000000000000000000000000000000000000000000000205620562056",
  "nTx": 1,
  "previousblockhash": "000000008f05edfb0fbbde763d148df2841f634cf1667488f9606cbb2df33063",
  "nextblockhash": "000000008cbae6bbf53ad8d4ebeedea04c889c3ec19804165a4b20a66f42afde",
  "strippedsize": 216,
  "size": 216,
  "weight": 864,
  "tx": [
    {
      "txid": "fdfe92ec1676cc2614bae8d8e4fc68e3f912dcc0c868651158929d68ba0eff7b",
      "hash": "fdfe92ec1676cc2614bae8d8e4fc68e3f912dcc0c868651158929d68ba0eff7b",
      "version": 1,
      "size": 135,
      "vsize": 135,
      "weight": 540,
      "locktime": 0,
      "vin": [
        {
          "coinbase": "04ffff001d02e103",
          "sequence": 4294967295
        }
      ],
      "vout": [
        {
          "value": 50.0,
          "n": 0,
          "scriptPubKey": {
            "asm": "043cbcd5be26440d967bca539420be1343d314befeec51449822b0a060210d30e0b9f51b1c8520d594b4ace122ea7a32e8f3d7dd0639a7954925bfb8870f5b9f71 OP_CHECKSIG",
            "desc": "pk(043cbcd5be26440d967bca539420be1343d314befeec51449822b0a060210d30e0b9f51b1c8520d594b4ace122ea7a32e8f3d7dd0639a7954925bfb8870f5b9f71)#9ezz09w3",
            "hex": "41043cbcd5be26440d967bca539420be1343d314befeec51449822b0a060210d30e0b9f51b1c8520d594b4ace122ea7a32e8f3d7dd0639a7954925bfb8870f5b9f71ac",
            "type": "pubkey"
          }
        }
      ],
      "hex": "01000000010000000000000000000000000000000000000000000000000000000000000000ffffffff0804ffff001d02e103ffffffff0100f2052a010000004341043cbcd5be26440d967bca539420be1343d314befeec51449822b0a060210d30e0b9f51b1c8520d594b4ace122ea7a32e8f3d7dd0639a7954925bfb8870f5b9f71ac00000000"
    }
  ]
}