{
  "hash": "00000000e77730de17ea5463179ba997970c9bae53b0e5c4faf74773711a130c",
  "confirmations": 46977,
  "height": 6121,
  "version": 1,
  "versionHex": "00000001",
  "merkleroot": "d81f220b9b1a9d68830c141bc774a9d363d254bf788aade7fb87f790fafe6f21",
  "time": 1236026825,
  "mediantime": 1236022379,
  "nonce": 3595350319,
  "bits": "1d00ffff",
  "difficulty": 1,
  "chainwork": "000000000000000000000000000000000000000000000000000017ea17ea17ea",
  "nTx": 1,
  "previousblockhash": "0000000045eebeb8dde04afe8706f42b549aa63cf8fa478e46917ef823335e44",
  "nextblockhash": "00000000d3345fcfc24da95c516c19b95b7aa4e6482e755b2ba271210002cec8",
  "strippedsize": 216,
  "size": 216,
  "weight": 864,
  "tx": [
    {
      "txid": "d81f220b9b1a9d68830c141bc774a9d363d254bf788aade7fb87f790fafe6f21",
      "hash": "d81f220b9b1a9d68830c141bc774a9d363d254bf788aade7fb87f790fafe6f21",
      "version": 1,
      "size": 135,
      "vsize": 135,
      "weight": 540,
      "locktime": 0,
      "vin": [
        {
          "coinbase": "04ffff001d023607",
          "sequence": 4294967295
        }
      ],
      "vout": [
        {
          "value": 50.0,
          "n": 0,
          "scriptPubKey": {
            "asm": "0417b97d936d119a93f44d6439420a1fe6e7002ad875e809ab77198b4e5ccf7800379176fac3e924dd8591df28a47f7d8f433c6170173cce41805e56c9cd39ab30 OP_CHECKSIG",
            "desc": "pk(0417b97d936d119a93f44d6439420a1fe6e7002ad875e809ab77198b4e5ccf7800379176fac3e924dd8591df28a47f7d8f433c6170173cce41805e56c9cd39ab30)#j6kxzpwd",
            "hex": "410417b97d936d119a93f44d6439420a1fe6e7002ad875e809ab77198b4e5ccf7800379176fac3e924dd8591df28a47f7d8f433c6170173cce41805e56c9cd39ab30ac",
            "type": "pubkey"
          }
        }
      ],
      "hex": "01000000010000000000000000000000000000000000000000000000000000000000000000ffffffff0804ffff001d023607ffffffff0100f2052a0100000043410417b97d936d119a93f44d6439420a1fe6e7002ad875e809ab77198b4e5ccf7800379176fac3e924dd8591df28a47f7d8f433c6170173cce41805e56c9cd39ab30ac00000000"
    }
  ]
}