{
  "hash": "00000000feefa3cf0b442a9be3687761f4b231ea761e009f36650e7873301e78",
  "confirmations": 51282,
  "height": 1816,
  "version": 1,
  "versionHex": "00000001",
  "merkleroot": "538b3e96a4562df5a626215924f3feda59e4bad8c7bcc5e044bb4b00ff385ea9",
  "time": 1232907302,
  "mediantime": 1232904796,
  "nonce": 3701583669,
  "bits": "1d00ffff",
  "difficulty": 1,
  "chainwork": "0000000000000000000000000000000000000000000000000000071907190719",
  "nTx": 1,
  "previousblockhash": "0000000031083eaf072006f0f4a9d056ce067f886ffc260be7e8d1512a720996",
  "nextblockhash": "000000002da76fb5927a7e9dfe2ad20868164680ae45c8ac9d7a91456979b3da",
  "strippedsize": 216,
  "size": 216,
  "weight": 864,
  "tx": [
    {
      "txid": "538b3e96a4562df5a626215924f3feda59e4bad8c7bcc5e044bb4b00ff385ea9",
      "hash": "538b3e96a4562df5a626215924f3feda59e4bad8c7bcc5e044bb4b00ff385ea9",
      "version": 1,
      "size": 135,
      "vsize": 135,
      "weight": 540,
      "locktime": 0,
      "vin": [
        {
          "coinbase": "04ffff001d025104",
          "sequence": 4294967295
        }
      ],
      "vout": [
        {
          "value": 50.0,
          "n": 0,
          "scriptPubKey": {
            "asm": "04b9dd51cea9d24ef30e91ee35304439f1a70e59a76f373f26029aec9dbb6d94e4793be28931ffb43ba6de8e728c02a2bab33c6d52174b0db746bf382b41183740 OP_CHECKSIG",
            "desc": "pk(04b9dd51cea9d24ef30e91ee35304439f1a70e59a76f373f26029aec9dbb6d94e4793be28931ffb43ba6de8e728c02a2bab33c6d52174b0db746bf382b41183740)#he0xnt9e",
            "hex": "4104b9dd51cea9d24ef30e91ee35304439f1a70e59a76f373f26029aec9dbb6d94e4793be28931ffb43ba6de8e728c02a2bab33c6d52174b0db746bf382b41183740ac",
            "type": "pubkey"
          }
        }
      ],
      "hex": "01000000010000000000000000000000000000000000000000000000000000000000000000ffffffff0804ffff001d025104ffffffff0100f2052a01000000434104b9dd51cea9d24ef30e91ee35304439f1a70e59a76f373f26029aec9dbb6d94e4793be28931ffb43ba6de8e728c02a2bab33c6d52174b0db746bf382b41183740ac00000000"
    }
  ]
}