{
  "hash": "00000000c47e8c24b8c0fc198f9c3e45d722b6bb6fbab723640e2c429b19ae7e",
  "confirmations": 44620,
  "height": 8478,
  "version": 1,
  "versionHex": "00000001",
  "merkleroot": "ab40a80ae1f6ed4d8109a651a86de4ba534e1a2bce6fc4cf08abdf375a88c9f1",
  "time": 1237851528,
  "mediantime": 1237847186,
  "nonce": 4065413146,
  "bits": "1d00ffff",
  "difficulty": 1,
  "chainwork": "0000000000000000000000000000000000000000000000000000211f211f211f",
  "nTx": 1,
  "previousblockhash": "0000000075e862acce4e5848b4ce79399db17cf0c1d72bb2f49c2bbc7de22a74",
  "nextblockhash": "0000000041972e5277b5b27d91bf2661cbad02cbcaba2fcfe70512bb07676041",
  "strippedsize": 216,
  "size": 216,
  "weight": 864,
  "tx": [
    {
      "txid": "ab40a80ae1f6ed4d8109a651a86de4ba534e1a2bce6fc4cf08abdf375a88c9f1",
      "hash": "ab40a80ae1f6ed4d8109a651a86de4ba534e1a2bce6fc4cf08abdf375a88c9f1",
      "version": 1,
      "size": 135,
      "vsize": 135,
      "weight": 540,
      "locktime": 0,
      "vin": [
        {
          "coinbase": "04ffff001d023e07",
          "sequence": 4294967295
        }
      ],
      "vout": [
        {
          "value": 50.0,
          "n": 0,
          "scriptPubKey": {
            "asm": "0481e6d16880d0856852bc9b8cc4a3e77131a7b1ec321052cd239816ec01af59b73b9d38035152ff7dd31f767f09520573c45855f8366c6b7842a11b68398f9ce0 OP_CHECKSIG",
            "desc": "pk(0481e6d16880d0856852bc9b8cc4a3e77131a7b1ec321052cd239816ec01af59b73b9d38035152ff7dd31f767f09520573c45855f8366c6b7842a11b68398f9ce0)#nrde9049",
            "hex": "410481e6d16880d0856852bc9b8cc4a3e77131a7b1ec321052cd239816ec01af59b73b9d38035152ff7dd31f767f09520573c45855f8366c6b7842a11b68398f9ce0ac",
            "type": "pubkey"
          }
        }
      ],
      "hex": "01000000010000000000000000000000000000000000000000000000000000000000000000ffffffff0804ffff001d023e07ffffffff0100f2052a0100000043410481e6d16880d0856852bc9b8cc4a3e77131a7b1ec321052cd239816ec01af59b73b9d38035152ff7dd31f767f09520573c45855f8366c6b7842a11b68398f9ce0ac00000000"
    }
  ]
}