{
  "hash": "000000009dbf018a558bb165176597ef69cc4c4be997f94e2c3e160059b93667",
  "confirmations": 46298,
  "height": 6800,
  "version": 1,
  "versionHex": "00000001",
  "merkleroot": "874c2b58be519737e9233f0a20fb619c02a3b09ff848ab2cd0c96dbede078145",
  "time": 1236557941,
  "mediantime": 1236554921,
  "nonce": 1972932918,
  "bits": "1d00ffff",
  "difficulty": 1,
  "chainwork": "00000000000000000000000000000000000000000000000000001a911a911a91",
  "nTx": 1,
  "previousblockhash": "000000005cf1b64cac6f75161b89c7347baaa181b5b4f29ee62594981d9b5791",
  "nextblockhash": "0000000009e116a06e5a8ee2f64f3777ff2d82cfaf10a97a6a27fb947a835353",
  "strippedsize": 216,
  "size": 216,
  "weight": 864,
  "tx": [
    {
      "txid": "874c2b58be519737e9233f0a20fb619c02a3b09ff848ab2cd0c96dbede078145",
      "hash": "874c2b58be519737e9233f0a20fb619c02a3b09ff848ab2cd0c96dbede078145",
      "version": 1,
      "size": 135,
      "vsize": 135,
      "weight": 540,
      "locktime": 0,
      "vin": [
        {
          "coinbase": "04ffff001d020609",
          "sequence": 4294967295
        }
      ],
      "vout": [
        {
          "value": 50.0,
          "n": 0,
          "scriptPubKey": {
            "asm": "04c18ccc324f3b2b37fd4088bd052e31cc289be21d211cf01b2c5596086639ba25b4daba9dce20e775382175488e763504985d643cefa42cf5cf75274d90bdc5e9 OP_CHECKSIG",
            "desc": "pk(04c18ccc324f3b2b37fd4088bd052e31cc289be21d211cf01b2c5596086639ba25b4daba9dce20e775382175488e763504985d643cefa42cf5cf75274d90bdc5e9)#74p3n273",
            "hex": "4104c18ccc324f3b2b37fd4088bd052e31cc289be21d211cf01b2c5596086639ba25b4daba9dce20e775382175488e763504985d643cefa42cf5cf75274d90bdc5e9ac",
            "type": "pubkey"
          }
        }
      ],
      "hex": "01000000010000000000000000000000000000000000000000000000000000000000000000ffffffff0804ffff001d020609ffffffff0100f2052a01000000434104c18ccc324f3b2b37fd4088bd052e31cc289be21d211cf01b2c5596086639ba25b4daba9dce20e775382175488e763504985d643cefa42cf5cf75274d90bdc5e9ac00000000"
    }
  ]
}