{
  "hash": "00000000f0fd60a5eb86ad77fda2ba38383281ec27b6d3ffc66f053932b7fd32",
  "confirmations": 50424,
  "height": 2674,
  "version": 1,
  "versionHex": "00000001",
  "merkleroot": "887adb4968c179f6be8c894cac7d18958475f2600e211a92de2c55073bf83404",
  "time": 1233544160,
  "mediantime": 1233540804,
  "nonce": 1522904327,
  "bits": "1d00ffff",
  "difficulty": 1,
  "chainwork": "00000000000000000000000000000000000000000000000000000a730a730a73",
  "nTx": 1,
  "previousblockhash": "0000000050d0e11320e855914e531fd47c6511774c1a5f7167dd17a698adebe3",
  "nextblockhash": "000000008e20654a74b828f6959e72885b276bf9cc1d54744385d0ec49089141",
  "strippedsize": 216,
  "size": 216,
  "weight": 864,
  "tx": [
    {
      "txid": "887adb4968c179f6be8c894cac7d18958475f2600e211a92de2c55073bf83404",
      "hash": "887adb4968c179f6be8c894cac7d18958475f2600e211a92de2c55073bf83404",
      "version": 1,
      "size": 135,
      "vsize": 135,
      "weight": 540,
      "locktime": 0,
      "vin": [
        {
          "coinbase": "04ffff001d025604",
          "sequence": 4294967295
        }
      ],
      "vout": [
        {
          "value": 50.0,
          "n": 0,
          "scriptPubKey": {
            "asm": "04686d073155cdd4fcb5fe261f91d97fe51a3bda1cd072258f85297f9c61a019ba17c53ba1ba6cfc4494a228ea850796d866e58e03a9ed0b749d03430e7961f491 OP_CHECKSIG",
            "desc": "pk(04686d073155cdd4fcb5fe261f91d97fe51a3bda1cd072258f85297f9c61a019ba17c53ba1ba6cfc4494a228ea850796d866e58e03a9ed0b749d03430e7961f491)#uzuujm7n",
            "hex": "4104686d073155cdd4fcb5fe261f91d97fe51a3bda1cd072258f85297f9c61a019ba17c53ba1ba6cfc4494a228ea850796d866e58e03a9ed0b749d03430e7961f491ac",
            "type": "pubkey"
          }
        }
      ],
      "hex": "01000000010000000000000000000000000000000000000000000000000000000000000000ffffffff0804ffff001d025604ffffffff0100f2052a01000000434104686d073155cdd4fcb5fe261f91d97fe51a3bda1cd072258f85297f9c61a019ba17c53ba1ba6cfc4494a228ea850796d866e58e03a9ed0b749d03430e7961f491ac00000000"
    }
  ]
}