{
  "hash": "000000002ca3ef739f7e4769c44c29541b6796d5126c2fb7336a2a0add11dfd9",
  "confirmations": 52153,
  "height": 945,
  "version": 1,
  "versionHex": "00000001",
  "merkleroot": "cbc5671b20107f5d48114ee7b82c88bf6765b9c5ad038a98a396850de141f5ec",
  "time": 1232309637,
  "mediantime": 1232306853,
  "nonce": 32932911,
  "bits": "1d00ffff",
  "difficulty": 1,
  "chainwork": "000000000000000000000000000000000000000000000000000003b203b203b2",
  "nTx": 1,
  "previousblockhash": "00000000121b7be05ecb69f74ade200b8d90f39791865064b1c1bf14c22cade7",
  "nextblockhash": "00000000dc9198f0e49f7af2f4d78c935dd3f4523d9a88d1c938bdd448337edc",
  "strippedsize": 216,
  "size": 216,
  "weight": 864,
  "tx": [
    {
      "txid": "cbc5671b20107f5d48114ee7b82c88bf6765b9c5ad038a98a396850de141f5ec",
      "hash": "cbc5671b20107f5d48114ee7b82c88bf6765b9c5ad038a98a396850de141f5ec",
      "version": 1,
      "size": 135,
      "vsize": 135,
      "weight": 540,
      "locktime": 0,
      "vin": [
        {
          "coinbase": "04ffff001d02e800",
          "sequence": 4294967295
        }
      ],
      "vout": [
        {
          "value": 50.0,
          "n": 0,
          "scriptPubKey": {
            "asm": "04fff1370714864bacc0b10b2aad5cc64e456477d76ef21431ca75dc9b44a81354ba88d1191c9594ab79d0c298d26df37b4b9dfadabcba92a7aee9932e1172195b OP_CHECKSIG",
            "desc": "pk(04fff1370714864bacc0b10b2aad5cc64e456477d76ef21431ca75dc9b44a81354ba88d1191c9594ab79d0c298d26df37b4b9dfadabcba92a7aee9932e1172195b)#7qhm32qh",
            "hex": "4104fff1370714864bacc0b10b2aad5cc64e456477d76ef21431ca75dc9b44a81354ba88d1191c9594ab79d0c298d26df37b4b9dfadabcba92a7aee9932e1172195bac",
            "type": "pubkey"
          }
        }
      ],
      "hex": "01000000010000000000000000000000000000000000000000000000000000000000000000ffffffff0804ffff001d02e800ffffffff0100f2052a01000000434104fff1370714864bacc0b10b2aad5cc64e456477d76ef21431ca75dc9b44a81354ba88d1191c9594ab79d0c298d26df37b4b9dfadabcba92a7aee9932e1172195bac00000000"
    }
  ]
}