{
  "hash": "0000000057e2da87ccf7f2ca9538096a67ca77fad5ae414417c51d61199dead0",
  "confirmations": 52137,
  "height": 961,
  "version": 1,
  "versionHex": "00000001",
  "merkleroot": "358a350af0f310854a2abf3505f1890a9156b76df88bdbd66c8557a69b14c2fb",
  "time": 1232319910,
  "mediantime": 1232316957,
  "nonce": 2489390375,
  "bits": "1d00ffff",
  "difficulty": 1,
  "chainwork": "000000000000000000000000000000000000000000000000000003c203c203c2",
  "nTx": 1,
  "previousblockhash": "0000000033b6aff54367192081c65ece7edb4277ebb727c22091f47916e3fb5e",
  "nextblockhash": "0000000057686e655de56e38070ea362aa012d71541f349ff9b4eb8acfa8d611",
  "strippedsize": 216,
  "size": 216,
  "weight": 864,
  "tx": [
    {
      "txid": "358a350af0f310854a2abf3505f1890a9156b76df88bdbd66c8557a69b14c2fb",
      "hash": "358a350af0f310854a2abf3505f1890a9156b76df88bdbd66c8557a69b14c2fb",
      "version": 1,
      "size": 135,
      "vsize": 135,
      "weight": 540,
      "locktime": 0,
      "vin": [
        {
          "coinbase": "04ffff001d027d04",
          "sequence": 4294967295
        }
      ],
      "vout": [
        {
          "value": 50.0,
          "n": 0,
          "scriptPubKey": {
            "asm": "04dcff1752c22d796e4ef154f9d9989c9589be1deec50ac7401904e7fd076999b05029450bf1ef4eb20aed57431ea1f192a35ad203dac763bd0a62b68f56caade9 OP_CHECKSIG",
            "desc": "pk(04dcff1752c22d796e4ef154f9d9989c9589be1deec50ac7401904e7fd076999b05029450bf1ef4eb20aed57431ea1f192a35ad203dac763bd0a62b68f56caade9)#jp433awy",
            "hex": "4104dcff1752c22d796e4ef154f9d9989c9589be1deec50ac7401904e7fd076999b05029450bf1ef4eb20aed57431ea1f192a35ad203dac763bd0a62b68f56caade9ac",
            "type": "pubkey"
          }
        }
      ],
      "hex": "01000000010000000000000000000000000000000000000000000000000000000000000000ffffffff0804ffff001d027d04ffffffff0100f2052a01000000434104dcff1752c22d796e4ef154f9d9989c9589be1deec50ac7401904e7fd076999b05029450bf1ef4eb20aed57431ea1f192a35ad203dac763bd0a62b68f56caade9ac00000000"
    }
  ]
}