{
  "hash": "000000006b94ae33d29db8abaf5a088f748ee835dd4509ac70d698a9f8376211",
  "confirmations": 52005,
  "height": 334,
  "version": 1,
  "versionHex": "00000001",
  "merkleroot": "520913b56d1afaede2eeda719e81b5b85ef943f0ffd6d367848c7e83063180be",
  "time": 1231855781,
  "mediantime": 1231852306,
  "nonce": 211252462,
  "bits": "1d00ffff",
  "difficulty": 1,
  "chainwork": "0000000000000000000000000000000000000000000000000000014f014f014f",
  "nTx": 1,
  "previousblockhash": "000000009a5a1f98edaafdae4c0dd90e1b03833b97c5f45e130a6a0210cd9081",
  "nextblockhash": "00000000b104104dfc538d175f3caa313dffc06607fc06e4737e0c3abcd085d8",
  "strippedsize": 215,
  "size": 215,
  "weight": 860,
  "tx": [
    {
      "txid": "520913b56d1afaede2eeda719e81b5b85ef943f0ffd6d367848c7e83063180be",
      "hash": "520913b56d1afaede2eeda719e81b5b85ef943f0ffd6d367848c7e83063180be",
      "version": 1,
      "size": 134,
      "vsize": 134,
      "weight": 536,
      "locktime": 0,
      "vin": [
        {
          "coinbase": "04ffff001d014e",
          "sequence": 4294967295
        }
      ],
      "vout": [
        {
          "value": 50.0,
          "n": 0,
          "scriptPubKey": {
            "asm": "046b23e09eb88ac06e9a98b553768b4fec46bfb4dab7d8c3ff3111cd705ca0e4114c74ee58450ff31e395029a33ca1c6b2ae62d50609fd9cfac600dbcb1f138a52 OP_CHECKSIG",
            "desc": "pk(046b23e09eb88ac06e9a98b553768b4fec46bfb4dab7d8c3ff3111cd705ca0e4114c74ee58450ff31e395029a33ca1c6b2ae62d50609fd9cfac600dbcb1f138a52)#33e8u5gy",
            "hex": "41046b23e09eb88ac06e9a98b553768b4fec46bfb4dab7d8c3ff3111cd705ca0e4114c74ee58450ff31e395029a33ca1c6b2ae62d50609fd9cfac600dbcb1f138a52ac",
            "type": "pubkey"
          }
        }
      ],
      "hex": "01000000010000000000000000000000000000000000000000000000000000000000000000ffffffff0704ffff001d014effffffff0100f2052a010000004341046b23e09eb88ac06e9a98b553768b4fec46bfb4dab7d8c3ff3111cd705ca0e4114c74ee58450ff31e395029a33ca1c6b2ae62d50609fd9cfac600dbcb1f138a52ac00000000"
    }
  ]
}