{
  "hash": "00000000e160e3bc26a8bd8cc826c6b065dac61a48b6683d29997e94c45cb20a",
  "confirmations": 47910,
  "height": 5188,
  "version": 1,
  "versionHex": "00000001",
  "merkleroot": "48036b5e170b2db140ed97d83db86ef8beb24adfdb8e305322b9f98e138fa074",
  "time": 1235278434,
  "mediantime": 1235275059,
  "nonce": 1402495034,
  "bits": "1d00ffff",
  "difficulty": 1,
  "chainwork": "0000000000000000000000000000000000000000000000000000144514451445",
  "nTx": 1,
  "previousblockhash": "000000008eaf02534ae0e5fc425563ce9084ec1f89b1d917f4351ce42a4cb79f",
  "nextblockhash": "0000000021d01cc4f26d3763abc14e6bae5e9961fb89723e692ee7dacb39cb47",
  "strippedsize": 215,
  "size": 215,
  "weight": 860,
  "tx": [
    {
      "txid": "48036b5e170b2db140ed97d83db86ef8beb24adfdb8e305322b9f98e138fa074",
      "hash": "48036b5e170b2db140ed97d83db86ef8beb24adfdb8e305322b9f98e138fa074",
      "version": 1,
      "size": 134,
      "vsize": 134,
      "weight": 536,
      "locktime": 0,
      "vin": [
        {
          "coinbase": "04ffff001d015a",
          "sequence": 4294967295
        }
      ],
      "vout": [
        {
          "value": 50.0,
          "n": 0,
          "scriptPubKey": {
            "asm": "04f21c39e178bd5625fcd3a82261a4caa24cf18ab261f576672e9cddfe8e59ddfe96c34d650c8968693486d9d761c360bbaaf9492923f2931e6ebcf8fc849f6791 OP_CHECKSIG",
            "desc": "pk(04f21c39e178bd5625fcd3a82261a4caa24cf18ab261f576672e9cddfe8e59ddfe96c34d650c8968693486d9d761c360bbaaf9492923f2931e6ebcf8fc849f6791)#hfwwqx60",
            "hex": "4104f21c39e178bd5625fcd3a82261a4caa24cf18ab261f576672e9cddfe8e59ddfe96c34d650c8968693486d9d761c360bbaaf9492923f2931e6ebcf8fc849f6791ac",
            "type": "pubkey"
          }
        }
      ],
      "hex": "01000000010000000000000000000000000000000000000000000000000000000000000000ffffffff0704ffff001d015affffffff0100f2052a01000000434104f21c39e178bd5625fcd3a82261a4caa24cf18ab261f576672e9cddfe8e59ddfe96c34d650c8968693486d9d761c360bbaaf9492923f2931e6ebcf8fc849f6791ac00000000"
    }
  ]
}