{
  "hash": "000000007abf4c8c2a728e434a329be762197f8b4ee3b6032de990d9e98786c0",
  "confirmations": 48038,
  "height": 5060,
  "version": 1,
  "versionHex": "00000001",
  "merkleroot": "cb3d4f22b49e037f749748a1cf161920cabe135567769b163aacb4089c1d02c5",
  "time": 1235184086,
  "mediantime": 1235180761,
  "nonce": 25504793,
  "bits": "1d00ffff",
  "difficulty": 1,
  "chainwork": "000000000000000000000000000000000000000000000000000013c513c513c5",
  "nTx": 1,
  "previousblockhash": "0000000004fdca0b00bdc8845d9bddfe8086a916cc1968e9b5728299e623bfba",
  "nextblockhash": "00000000392b1048b2297c6fcf31d2f0e1cdb3794a64594a136a2019a668be2d",
  "strippedsize": 216,
  "size": 216,
  "weight": 864,
  "tx": [
    {
      "txid": "cb3d4f22b49e037f749748a1cf161920cabe135567769b163aacb4089c1d02c5",
      "hash": "cb3d4f22b49e037f749748a1cf161920cabe135567769b163aacb4089c1d02c5",
      "version": 1,
      "size": 135,
      "vsize": 135,
      "weight": 540,
      "locktime": 0,
      "vin": [
        {
          "coinbase": "04ffff001d020e08",
          "sequence": 4294967295
        }
      ],
      "vout": [
        {
          "value": 50.0,
          "n": 0,
          "scriptPubKey": {
            "asm": "04827df9f80491179cc43a5738f4336c48bcd9bb18ab85b2a1b32e15f90333ba732b7be598b793a9b996eeed684973ce520d3d232e7ca0137cae09da728298c5eb OP_CHECKSIG",
            "desc": "pk(04827df9f80491179cc43a5738f4336c48bcd9bb18ab85b2a1b32e15f90333ba732b7be598b793a9b996eeed684973ce520d3d232e7ca0137cae09da728298c5eb)#xnhhfryu",
            "hex": "4104827df9f80491179cc43a5738f4336c48bcd9bb18ab85b2a1b32e15f90333ba732b7be598b793a9b996eeed684973ce520d3d232e7ca0137cae09da728298c5ebac",
            "type": "pubkey"
          }
        }
      ],
      "hex": "01000000010000000000000000000000000000000000000000000000000000000000000000ffffffff0804ffff001d020e08ffffffff0100f2052a01000000434104827df9f80491179cc43a5738f4336c48bcd9bb18ab85b2a1b32e15f90333ba732b7be598b793a9b996eeed684973ce520d3d232e7ca0137cae09da728298c5ebac00000000"
    }
  ]
}