{
  "hash": "00000000d1a7a18d5427da8d5c9c0f407954bb0d57caa046a62f770a155bea64",
  "confirmations": 46920,
  "height": 6178,
  "version": 1,
  "versionHex": "00000001",
  "merkleroot": "1703ca42a87949a847976cf48655e2a70c7624eeed3ab73761ea0f0c6a73d20e",
  "time": 1236073549,
  "mediantime": 1236070137,
  "nonce": 3357124141,
  "bits": "1d00ffff",
  "difficulty": 1,
  "chainwork": "0000000000000000000000000000000000000000000000000000182318231823",
  "nTx": 1,
  "previousblockhash": "00000000ef9d1e0a109a086bc200241955bcb53c00eb15c8987d147f7cf4daae",
  "nextblockhash": "00000000b65a3b5d37a6909b3b0a5606a3068ff9b23e3177c7986b2767d7af3f",
  "strippedsize": 216,
  "size": 216,
  "weight": 864,
  "tx": [
    {
      "txid": "1703ca42a87949a847976cf48655e2a70c7624eeed3ab73761ea0f0c6a73d20e",
      "hash": "1703ca42a87949a847976cf48655e2a70c7624eeed3ab73761ea0f0c6a73d20e",
      "version": 1,
      "size": 135,
      "vsize": 135,
      "weight": 540,
      "locktime": 0,
      "vin": [
        {
          "coinbase": "04ffff001d021b08",
          "sequence": 4294967295
        }
      ],
      "vout": [
        {
          "value": 50.0,
          "n": 0,
          "scriptPubKey": {
            "asm": "049ccb1e2c619ae1d1622696d8bf23fcf98fccd8a59373fc932d798e4fab4ec865a30e6819ba8eb268cdb3b049d3e7c6a364245f6307f032c5c66d2ab8c51d8c6f OP_CHECKSIG",
            "desc": "pk(049ccb1e2c619ae1d1622696d8bf23fcf98fccd8a59373fc932d798e4fab4ec865a30e6819ba8eb268cdb3b049d3e7c6a364245f6307f032c5c66d2ab8c51d8c6f)#yt3kdzqq",
            "hex": "41049ccb1e2c619ae1d1622696d8bf23fcf98fccd8a59373fc932d798e4fab4ec865a30e6819ba8eb268cdb3b049d3e7c6a364245f6307f032c5c66d2ab8c51d8c6fac",
            "type": "pubkey"
          }
        }
      ],
      "hex": "01000000010000000000000000000000000000000000000000000000000000000000000000ffffffff0804ffff001d021b08ffffffff0100f2052a010000004341049ccb1e2c619ae1d1622696d8bf23fcf98fccd8a59373fc932d798e4fab4ec865a30e6819ba8eb268cdb3b049d3e7c6a364245f6307f032c5c66d2ab8c51d8c6fac00000000"
    }
  ]
}