{
  "hash": "000000000e56f5a0df5518292d7d52361c99aac40fc138d570b9d5138ec35ce3",
  "confirmations": 43749,
  "height": 9349,
  "version": 1,
  "versionHex": "00000001",
  "merkleroot": "326fa49def9b3ca6fcb4ee0de558d3c2ade17bad0e1f109e453f318a6fb07fb5",
  "time": 1238510640,
  "mediantime": 1238507434,
  "nonce": 2240034335,
  "bits": "1d00ffff",
  "difficulty": 1,
  "chainwork": "0000000000000000000000000000000000000000000000000000248624862486",
  "nTx": 1,
  "previousblockhash": "00000000a668f03769f53ff7d95f75cfb08ede733e9b65143e707544f5e11bd4",
  "nextblockhash": "000000008e25cdaf2d946a369f78990d6ec8e191d9d1427c7ff904172586a74a",
  "strippedsize": 216,
  "size": 216,
  "weight": 864,
  "tx": [
    {
      "txid": "326fa49def9b3ca6fcb4ee0de558d3c2ade17bad0e1f109e453f318a6fb07fb5",
      "hash": "326fa49def9b3ca6fcb4ee0de558d3c2ade17bad0e1f109e453f318a6fb07fb5",
      "version": 1,
      "size": 135,
      "vsize": 135,
      "weight": 540,
      "locktime": 0,
      "vin": [
        {
          "coinbase": "04ffff001d02a402",
          "sequence": 4294967295
        }
      ],
      "vout": [
        {
          "value": 50.0,
          "n": 0,
          "scriptPubKey": {
            "asm": "04ba5630769ba0bdb5145d39771c28eb50d72a649c4ab43c3bf6f37cc7bd33556aa980c900702cd0035a20a4d19a58fbdf00c5d3a0a1161cd311ba0d14e777a183 OP_CHECKSIG",
            "desc": "pk(04ba5630769ba0bdb5145d39771c28eb50d72a649c4ab43c3bf6f37cc7bd33556aa980c900702cd0035a20a4d19a58fbdf00c5d3a0a1161cd311ba0d14e777a183)#9vp7xj5w",
            "hex": "4104ba5630769ba0bdb5145d39771c28eb50d72a649c4ab43c3bf6f37cc7bd33556aa980c900702cd0035a20a4d19a58fbdf00c5d3a0a1161cd311ba0d14e777a183ac",
            "type": "pubkey"
          }
        }
      ],
      "hex": "01000000010000000000000000000000000000000000000000000000000000000000000000ffffffff0804ffff001d02a402ffffffff0100f2052a01000000434104ba5630769ba0bdb5145d39771c28eb50d72a649c4ab43c3bf6f37cc7bd33556aa980c900702cd0035a20a4d19a58fbdf00c5d3a0a1161cd311ba0d14e777a183ac00000000"
    }
  ]
}