{
  "hash": "00000000bbbf0ae8a56c09877cbc96ff7d3398664a475f10f08d183d7489851e",
  "confirmations": 50826,
  "height": 2272,
  "version": 1,
  "versionHex": "00000001",
  "merkleroot": "6669d68da522e21f122702f0ab67ef3c1e3da7133353655b53d8a2b7e7616be2",
  "time": 1233261250,
  "mediantime": 1233257635,
  "nonce": 180174419,
  "bits": "1d00ffff",
  "difficulty": 1,
  "chainwork": "000000000000000000000000000000000000000000000000000008e108e108e1",
  "nTx": 1,
  "previousblockhash": "00000000fca03856f435bc8ce54184c907c53f3daf04c42aae9b57f358c9aac3",
  "nextblockhash": "00000000d03abcf627e67ad05fe2893f010e95f668e99fbb55476e4dae07210b",
  "strippedsize": 215,
  "size": 215,
  "weight": 860,
  "tx": [
    {
      "txid": "6669d68da522e21f122702f0ab67ef3c1e3da7133353655b53d8a2b7e7616be2",
      "hash": "6669d68da522e21f122702f0ab67ef3c1e3da7133353655b53d8a2b7e7616be2",
      "version": 1,
      "size": 134,
      "vsize": 134,
      "weight": 536,
      "locktime": 0,
      "vin": [
        {
          "coinbase": "04ffff001d016a",
          "sequence": 4294967295
        }
      ],
      "vout": [
        {
          "value": 50.0,
          "n": 0,
          "scriptPubKey": {
            "asm": "0481167aa7557e2adbf0664146b92145241a9d8bd80b7f5a0c9b95279b14a63c345650adf3cad0311e8227ded1e8f2f30273080c78956fcc8955cdf1411de722f8 OP_CHECKSIG",
            "desc": "pk(0481167aa7557e2adbf0664146b92145241a9d8bd80b7f5a0c9b95279b14a63c345650adf3cad0311e8227ded1e8f2f30273080c78956fcc8955cdf1411de722f8)#x3j3jreh",
            "hex": "410481167aa7557e2adbf0664146b92145241a9d8bd80b7f5a0c9b95279b14a63c345650adf3cad0311e8227ded1e8f2f30273080c78956fcc8955cdf1411de722f8ac",
            "type": "pubkey"
          }
        }
      ],
      "hex": "01000000010000000000000000000000000000000000000000000000000000000000000000ffffffff0704ffff001d016affffffff0100f2052a0100000043410481167aa7557e2adbf0664146b92145241a9d8bd80b7f5a0c9b95279b14a63c345650adf3cad0311e8227ded1e8f2f30273080c78956fcc8955cdf1411de722f8ac00000000"
    }
  ]
}