{
  "hash": "000000007e3905634e9e1aea0ceb71782b58ccc33d12c05c35db2b7d9600c8ec",
  "confirmations": 45523,
  "height": 7575,
  "version": 1,
  "versionHex": "00000001",
  "merkleroot": "fd482d43ce1fcca251b9bf156400363f1185774f6b52e6077e7fd7e71c4a52c0",
  "time": 1237150200,
  "mediantime": 1237149068,
  "nonce": 37522630,
  "bits": "1d00ffff",
  "difficulty": 1,
  "chainwork": "00000000000000000000000000000000000000000000000000001d981d981d98",
  "nTx": 1,
  "previousblockhash": "0000000090be299a94be58d514ae5284df39d38359a6b3a9492363cdbfb4c7e5",
  "nextblockhash": "00000000024cb649bbe6303f9b11d2646b350a34518b0c22070765485765a7e7",
  "strippedsize": 216,
  "size": 216,
  "weight": 864,
  "tx": [
    {
      "txid": "fd482d43ce1fcca251b9bf156400363f1185774f6b52e6077e7fd7e71c4a52c0",
      "hash": "fd482d43ce1fcca251b9bf156400363f1185774f6b52e6077e7fd7e71c4a52c0",
      "version": 1,
      "size": 135,
      "vsize": 135,
      "weight": 540,
      "locktime": 0,
      "vin": [
        {
          "coinbase": "04ffff001d02f200",
          "sequence": 4294967295
        }
      ],
      "vout": [
        {
          "value": 50.0,
          "n": 0,
          "scriptPubKey": {
            "asm": "044ff3f47ca5838342b32cef0fe8702b66211bd3f2637b80ad20f0cbd8bc011c8911378d8a74967d2ab593f0b1fe6a419ead1037edad4c72c8c477b9ad8e5449ec OP_CHECKSIG",
            "desc": "pk(044ff3f47ca5838342b32cef0fe8702b66211bd3f2637b80ad20f0cbd8bc011c8911378d8a74967d2ab593f0b1fe6a419ead1037edad4c72c8c477b9ad8e5449ec)#9ypnh70m",
            "hex": "41044ff3f47ca5838342b32cef0fe8702b66211bd3f2637b80ad20f0cbd8bc011c8911378d8a74967d2ab593f0b1fe6a419ead1037edad4c72c8c477b9ad8e5449ecac",
            "type": "pubkey"
          }
        }
      ],
      "hex": "01000000010000000000000000000000000000000000000000000000000000000000000000ffffffff0804ffff001d02f200ffffffff0100f2052a010000004341044ff3f47ca5838342b32cef0fe8702b66211bd3f2637b80ad20f0cbd8bc011c8911378d8a74967d2ab593f0b1fe6a419ead1037edad4c72c8c477b9ad8e5449ecac00000000"
    }
  ]
}