{
  "hash": "00000000b2f01f399bf503e55f25a1aa51067056d2eb81915cb91976968b69aa",
  "confirmations": 51852,
  "height": 40,
  "version": 1,
  "versionHex": "00000001",
  "merkleroot": "04391286b3aefbb5df4cdb515ac7fce7942525fa602e1d7757e90a4fd41a1e20",
  "time": 1231608208,
  "mediantime": 1231605153,
  "nonce": 1902584070,
  "bits": "1d00ffff",
  "difficulty": 1,
  "chainwork": "0000000000000000000000000000000000000000000000000000002900290029",
  "nTx": 1,
  "previousblockhash": "000000005665d506f6c3ccb5fd98624f9816a8a169f1d2327d1d4d6d3262ad12",
  "nextblockhash": "00000000ad2b48c7032b6d7d4f2e19e54d79b1c159f5599056492f2cd7bb528b",
  "strippedsize": 215,
  "size": 215,
  "weight": 860,
  "tx": [
    {
      "txid": "04391286b3aefbb5df4cdb515ac7fce7942525fa602e1d7757e90a4fd41a1e20",
      "hash": "04391286b3aefbb5df4cdb515ac7fce7942525fa602e1d7757e90a4fd41a1e20",
      "version": 1,
      "size": 134,
      "vsize": 134,
      "weight": 536,
      "locktime": 0,
      "vin": [
        {
          "coinbase": "04ffff001d010e",
          "sequence": 4294967295
        }
      ],
      "vout": [
        {
          "value": 50.0,
          "n": 0,
          "scriptPubKey": {
            "asm": "0427df882a156b4c29a4d05eec8d0c4b53f976f7e0ee2639dc8cbb6327451b8cf0957abb3418696243f392e73b586ea4b074e5bdc856a234c9e174615e3bbcea24 OP_CHECKSIG",
            "desc": "pk(0427df882a156b4c29a4d05eec8d0c4b53f976f7e0ee2639dc8cbb6327451b8cf0957abb3418696243f392e73b586ea4b074e5bdc856a234c9e174615e3bbcea24)#2jkn5q3w",
            "hex": "410427df882a156b4c29a4d05eec8d0c4b53f976f7e0ee2639dc8cbb6327451b8cf0957abb3418696243f392e73b586ea4b074e5bdc856a234c9e174615e3bbcea24ac",
            "type": "pubkey"
          }
        }
      ],
      "hex": "01000000010000000000000000000000000000000000000000000000000000000000000000ffffffff0704ffff001d010effffffff0100f2052a0100000043410427df882a156b4c29a4d05eec8d0c4b53f976f7e0ee2639dc8cbb6327451b8cf0957abb3418696243f392e73b586ea4b074e5bdc856a234c9e174615e3bbcea24ac00000000"
    }
  ]
}