{
  "hash": "0000000038ec1a8b75e443e71fd9f74da1e61d7a4137cc8cdec234c6fa4b6b24",
  "confirmations": 49786,
  "height": 3312,
  "version": 1,
  "versionHex": "00000001",
  "merkleroot": "8c290d3c85b9ede30be14b4009051af697ccd28d087d5c94aee0288742e10133",
  "time": 1233976892,
  "mediantime": 1233973867,
  "nonce": 422709047,
  "bits": "1d00ffff",
  "difficulty": 1,
  "chainwork": "00000000000000000000000000000000000000000000000000000cf10cf10cf1",
  "nTx": 1,
  "previousblockhash": "00000000df0a3616840fe1bbddac5c78ee54fb39e123655d864dad77deccb249",
  "nextblockhash": "00000000ce57e50f981f1ce85249ede1f6011bbee6aa3426011e16d6737555f9",
  "strippedsize": 216,
  "size": 216,
  "weight": 864,
  "tx": [
    {
      "txid": "8c290d3c85b9ede30be14b4009051af697ccd28d087d5c94aee0288742e10133",
      "hash": "8c290d3c85b9ede30be14b4009051af697ccd28d087d5c94aee0288742e10133",
      "version": 1,
      "size": 135,
      "vsize": 135,
      "weight": 540,
      "locktime": 0,
      "vin": [
        {
          "coinbase": "04ffff001d027804",
          "sequence": 4294967295
        }
      ],
      "vout": [
        {
          "value": 50.0,
          "n": 0,
          "scriptPubKey": {
            "asm": "047c44ec02ed4797b1aa2afb9c8690fb1405d4ad935eb870a0e123a22474a267457d5feade0b702f87496a1e8fe702cb664499184c1e9cc8861ab0dc66d842d807 OP_CHECKSIG",
            "desc": "pk(047c44ec02ed4797b1aa2afb9c8690fb1405d4ad935eb870a0e123a22474a267457d5feade0b702f87496a1e8fe702cb664499184c1e9cc8861ab0dc66d842d807)#vfpuyyjg",
            "hex": "41047c44ec02ed4797b1aa2afb9c8690fb1405d4ad935eb870a0e123a22474a267457d5feade0b702f87496a1e8fe702cb664499184c1e9cc8861ab0dc66d842d807ac",
            "type": "pubkey"
          }
        }
      ],
      "hex": "01000000010000000000000000000000000000000000000000000000000000000000000000ffffffff0804ffff001d027804ffffffff0100f2052a010000004341047c44ec02ed4797b1aa2afb9c8690fb1405d4ad935eb870a0e123a22474a267457d5feade0b702f87496a1e8fe702cb664499184c1e9cc8861ab0dc66d842d807ac00000000"
    }
  ]
}