{
  "hash": "00000000296688219f64d8120be5b49d152f849e4ccff8ba522af8d95b8f398b",
  "confirmations": 49296,
  "height": 3802,
  "version": 1,
  "versionHex": "00000001",
  "merkleroot": "3488a6f1569e5355a523111c9d0242f582a6cfdfb2c93a1ca886988e02d05237",
  "time": 1234308663,
  "mediantime": 1234305092,
  "nonce": 1428721182,
  "bits": "1d00ffff",
  "difficulty": 1,
  "chainwork": "00000000000000000000000000000000000000000000000000000edb0edb0edb",
  "nTx": 1,
  "previousblockhash": "00000000a186abbb4918a881df9adb05be688a3d51d8ac6e33b599d752da0b25",
  "nextblockhash": "0000000017d2e1b5902a3196ab4a529e61a8dab39a28e8117c7fe90150d82ae5",
  "strippedsize": 216,
  "size": 216,
  "weight": 864,
  "tx": [
    {
      "txid": "3488a6f1569e5355a523111c9d0242f582a6cfdfb2c93a1ca886988e02d05237",
      "hash": "3488a6f1569e5355a523111c9d0242f582a6cfdfb2c93a1ca886988e02d05237",
      "version": 1,
      "size": 135,
      "vsize": 135,
      "weight": 540,
      "locktime": 0,
      "vin": [
        {
          "coinbase": "04ffff001d025e01",
          "sequence": 4294967295
        }
      ],
      "vout": [
        {
          "value": 50.0,
          "n": 0,
          "scriptPubKey": {
            "asm": "04c02efbc97adf91482f33f67f701f359430696b034f8fbd0dd5f0c20f8246938c4bc5b8e2999aba4e1ffb2a78f779c3de903fa07cbb916b435396a3eb3e29b910 OP_CHECKSIG",
            "desc": "pk(04c02efbc97adf91482f33f67f701f359430696b034f8fbd0dd5f0c20f8246938c4bc5b8e2999aba4e1ffb2a78f779c3de903fa07cbb916b435396a3eb3e29b910)#zr6kd72d",
            "hex": "4104c02efbc97adf91482f33f67f701f359430696b034f8fbd0dd5f0c20f8246938c4bc5b8e2999aba4e1ffb2a78f779c3de903fa07cbb916b435396a3eb3e29b910ac",
            "type": "pubkey"
          }
        }
      ],
      "hex": "01000000010000000000000000000000000000000000000000000000000000000000000000ffffffff0804ffff001d025e01ffffffff0100f2052a01000000434104c02efbc97adf91482f33f67f701f359430696b034f8fbd0dd5f0c20f8246938c4bc5b8e2999aba4e1ffb2a78f779c3de903fa07cbb916b435396a3eb3e29b910ac00000000"
    }
  ]
}