{
  "hash": "0000000077748127087216f283a991031dafaaa521061cdfa5ac11f75c6088f4",
  "confirmations": 50046,
  "height": 3052,
  "version": 1,
  "versionHex": "00000001",
  "merkleroot": "b3bc96c1ff366adced3aecb25bbc92417e6338efb52fd0d1b11e48b60f87cc5e",
  "time": 1233797956,
  "mediantime": 1233793609,
  "nonce": 4176221485,
  "bits": "1d00ffff",
  "difficulty": 1,
  "chainwork": "00000000000000000000000000000000000000000000000000000bed0bed0bed",
  "nTx": 1,
  "previousblockhash": "00000000129eaacfb9262cc58a77ab961eb05f2840dd5629e163f465fabaf528",
  "nextblockhash": "00000000222004580a239ed4a744ad183c5b6506b93d368db86b72a8383bef5c",
  "strippedsize": 215,
  "size": 215,
  "weight": 860,
  "tx": [
    {
      "txid": "b3bc96c1ff366adced3aecb25bbc92417e6338efb52fd0d1b11e48b60f87cc5e",
      "hash": "b3bc96c1ff366adced3aecb25bbc92417e6338efb52fd0d1b11e48b60f87cc5e",
      "version": 1,
      "size": 134,
      "vsize": 134,
      "weight": 536,
      "locktime": 0,
      "vin": [
        {
          "coinbase": "04ffff001d013a",
          "sequence": 4294967295
        }
      ],
      "vout": [
        {
          "value": 50.0,
          "n": 0,
          "scriptPubKey": {
            "asm": "045be9495f985532685c6827f0fdd29c14d2acab5d98e0b7ab2fc0454d8116660df4f004e3352699549e2fd411fa2017cc9093a0d0b57bc4abb550b2b2d99e9448 OP_CHECKSIG",
            "desc": "pk(045be9495f985532685c6827f0fdd29c14d2acab5d98e0b7ab2fc0454d8116660df4f004e3352699549e2fd411fa2017cc9093a0d0b57bc4abb550b2b2d99e9448)#rdjjh9fh",
            "hex": "41045be9495f985532685c6827f0fdd29c14d2acab5d98e0b7ab2fc0454d8116660df4f004e3352699549e2fd411fa2017cc9093a0d0b57bc4abb550b2b2d99e9448ac",
            "type": "pubkey"
          }
        }
      ],
      "hex": "01000000010000000000000000000000000000000000000000000000000000000000000000ffffffff0704ffff001d013affffffff0100f2052a010000004341045be9495f985532685c6827f0fdd29c14d2acab5d98e0b7ab2fc0454d8116660df4f004e3352699549e2fd411fa2017cc9093a0d0b57bc4abb550b2b2d99e9448ac00000000"
    }
  ]
}