{
  "hash": "00000000704c45aa59a87ce579103125a28dd20808619ff0ab1b52e5a0c16fd2",
  "confirmations": 48029,
  "height": 5069,
  "version": 1,
  "versionHex": "00000001",
  "merkleroot": "59afe3af321d292782109e09530a27213cb6adcbb669f2957d341fc28ad9c4ce",
  "time": 1235192333,
  "mediantime": 1235188223,
  "nonce": 3344636439,
  "bits": "1d00ffff",
  "difficulty": 1,
  "chainwork": "000000000000000000000000000000000000000000000000000013ce13ce13ce",
  "nTx": 1,
  "previousblockhash": "000000008be92518a8fb1528c37028919b3762b2688940e53949b4045c611b16",
  "nextblockhash": "00000000fab16c47b86ce9a6759599c3de955da28fe4b178d23f2d1d3ffb6ad9",
  "strippedsize": 216,
  "size": 216,
  "weight": 864,
  "tx": [
    {
      "txid": "59afe3af321d292782109e09530a27213cb6adcbb669f2957d341fc28ad9c4ce",
      "hash": "59afe3af321d292782109e09530a27213cb6adcbb669f2957d341fc28ad9c4ce",
      "version": 1,
      "size": 135,
      "vsize": 135,
      "weight": 540,
      "locktime": 0,
      "vin": [
        {
          "coinbase": "04ffff001d024208",
          "sequence": 4294967295
        }
      ],
      "vout": [
        {
          "value": 50.0,
          "n": 0,
          "scriptPubKey": {
            "asm": "04b7d549b1ef1a6588fc9abe8b0f75f8fdda4d04eb133091a5d6566f17b5b3a4f31d551e659c6b00a7bf1f2ca376a418212fa21fec28e2c0a472945815b2ad74f8 OP_CHECKSIG",
            "desc": "pk(04b7d549b1ef1a6588fc9abe8b0f75f8fdda4d04eb133091a5d6566f17b5b3a4f31d551e659c6b00a7bf1f2ca376a418212fa21fec28e2c0a472945815b2ad74f8)#x0ppnvrs",
            "hex": "4104b7d549b1ef1a6588fc9abe8b0f75f8fdda4d04eb133091a5d6566f17b5b3a4f31d551e659c6b00a7bf1f2ca376a418212fa21fec28e2c0a472945815b2ad74f8ac",
            "type": "pubkey"
          }
        }
      ],
      "hex": "01000000010000000000000000000000000000000000000000000000000000000000000000ffffffff0804ffff001d024208ffffffff0100f2052a01000000434104b7d549b1ef1a6588fc9abe8b0f75f8fdda4d04eb133091a5d6566f17b5b3a4f31d551e659c6b00a7bf1f2ca376a418212fa21fec28e2c0a472945815b2ad74f8ac00000000"
    }
  ]
}