{
  "hash": "00000000d75f53340a8ec23ae9396ac489ad788c2d1becba57a2e468b29bdee7",
  "confirmations": 46798,
  "height": 6300,
  "version": 1,
  "versionHex": "00000001",
  "merkleroot": "e4676e8f875c91df3de449137ad8eb8364bcb0ae77d3fa1f2ac6cddcc1d66d33",
  "time": 1236173055,
  "mediantime": 1236169278,
  "nonce": 582167297,
  "bits": "1d00ffff",
  "difficulty": 1,
  "chainwork": "0000000000000000000000000000000000000000000000000000189d189d189d",
  "nTx": 1,
  "previousblockhash": "0000000085292b3042abf1f35a48e42db1406537d4937986a42fa8d5b3250979",
  "nextblockhash": "00000000004b166c36d656f176b051ebe712ae69cfa624c5ab74719fbc6c7a56",
  "strippedsize": 215,
  "size": 215,
  "weight": 860,
  "tx": [
    {
      "txid": "e4676e8f875c91df3de449137ad8eb8364bcb0ae77d3fa1f2ac6cddcc1d66d33",
      "hash": "e4676e8f875c91df3de449137ad8eb8364bcb0ae77d3fa1f2ac6cddcc1d66d33",
      "version": 1,
      "size": 134,
      "vsize": 134,
      "weight": 536,
      "locktime": 0,
      "vin": [
        {
          "coinbase": "04ffff001d0121",
          "sequence": 4294967295
        }
      ],
      "vout": [
        {
          "value": 50.0,
          "n": 0,
          "scriptPubKey": {
            "asm": "04a87db67305e8c3d911e092806c3b0e0a97c9df5f9d74e10e3be3d3398699dc4f2de507173e146994e337de6893aec3f4ca4e175942853f9a2dcd945290d5916f OP_CHECKSIG",
            "desc": "pk(04a87db67305e8c3d911e092806c3b0e0a97c9df5f9d74e10e3be3d3398699dc4f2de507173e146994e337de6893aec3f4ca4e175942853f9a2dcd945290d5916f)#a9wtjn7l",
            "hex": "4104a87db67305e8c3d911e092806c3b0e0a97c9df5f9d74e10e3be3d3398699dc4f2de507173e146994e337de6893aec3f4ca4e175942853f9a2dcd945290d5916fac",
            "type": "pubkey"
          }
        }
      ],
      "hex": "01000000010000000000000000000000000000000000000000000000000000000000000000ffffffff0704ffff001d0121ffffffff0100f2052a01000000434104a87db67305e8c3d911e092806c3b0e0a97c9df5f9d74e10e3be3d3398699dc4f2de507173e146994e337de6893aec3f4ca4e175942853f9a2dcd945290d5916fac00000000"
    }
  ]
}