{
  "hash": "000000007aabdb1fa774c5cee7bb4daca791ec5ba0c2dd3d110129526477acf9",
  "confirmations": 46883,
  "height": 6215,
  "version": 1,
  "versionHex": "00000001",
  "merkleroot": "84619bc5d2dc36dc724d5860b5c5a3fee55eaff899742d9e6fc12e1684996842",
  "time": 1236103647,
  "mediantime": 1236099755,
  "nonce": 2836737826,
  "bits": "1d00ffff",
  "difficulty": 1,
  "chainwork": "0000000000000000000000000000000000000000000000000000184818481848",
  "nTx": 1,
  "previousblockhash": "00000000391ccdccc5b028199f8570b6f21f5595665ea6f0416a3c50cf4a283c",
  "nextblockhash": "00000000c6e12494172cb98d60bc2cdba56bd19b7ca902351ef78280443e9f8c",
  "strippedsize": 216,
  "size": 216,
  "weight": 864,
  "tx": [
    {
      "txid": "84619bc5d2dc36dc724d5860b5c5a3fee55eaff899742d9e6fc12e1684996842",
      "hash": "84619bc5d2dc36dc724d5860b5c5a3fee55eaff899742d9e6fc12e1684996842",
      "version": 1,
      "size": 135,
      "vsize": 135,
      "weight": 540,
      "locktime": 0,
      "vin": [
        {
          "coinbase": "04ffff001d02c108",
          "sequence": 4294967295
        }
      ],
      "vout": [
        {
          "value": 50.0,
          "n": 0,
          "scriptPubKey": {
            "asm": "044b5436b4db9c9ce769ab7a79395b3e65e5636ec9f7fd17defbacc0ab2df188b04bb193e17a3cf452b908e649d0e6a73436a7bb482c6ee42517215ff0c037f2fd OP_CHECKSIG",
            "desc": "pk(044b5436b4db9c9ce769ab7a79395b3e65e5636ec9f7fd17defbacc0ab2df188b04bb193e17a3cf452b908e649d0e6a73436a7bb482c6ee42517215ff0c037f2fd)#s0e84j6l",
            "hex": "41044b5436b4db9c9ce769ab7a79395b3e65e5636ec9f7fd17defbacc0ab2df188b04bb193e17a3cf452b908e649d0e6a73436a7bb482c6ee42517215ff0c037f2fdac",
            "type": "pubkey"
          }
        }
      ],
      "hex": "01000000010000000000000000000000000000000000000000000000000000000000000000ffffffff0804ffff001d02c108ffffffff0100f2052a010000004341044b5436b4db9c9ce769ab7a79395b3e65e5636ec9f7fd17defbacc0ab2df188b04bb193e17a3cf452b908e649d0e6a73436a7bb482c6ee42517215ff0c037f2fdac00000000"
    }
  ]
}