{
  "hash": "000000009eec68dffd9349e4df77d9573f103795be393558f331051be1523671",
  "confirmations": 46082,
  "height": 7016,
  "version": 1,
  "versionHex": "00000001",
  "merkleroot": "d40f7e1e5545e060e471637beb50d1a5ee7d636e1539597c320858d53627a8ce",
  "time": 1236730806,
  "mediantime": 1236727419,
  "nonce": 331679773,
  "bits": "1d00ffff",
  "difficulty": 1,
  "chainwork": "00000000000000000000000000000000000000000000000000001b691b691b69",
  "nTx": 1,
  "previousblockhash": "0000000015559531952fa7908718ede81c33efad510e8b18c4ffe8ded5764b85",
  "nextblockhash": "000000008432d271e10da213c08719ee38207b54c24dcdced3f1dbee2f773dd0",
  "strippedsize": 216,
  "size": 216,
  "weight": 864,
  "tx": [
    {
      "txid": "d40f7e1e5545e060e471637beb50d1a5ee7d636e1539597c320858d53627a8ce",
      "hash": "d40f7e1e5545e060e471637beb50d1a5ee7d636e1539597c320858d53627a8ce",
      "version": 1,
      "size": 135,
      "vsize": 135,
      "weight": 540,
      "locktime": 0,
      "vin": [
        {
          "coinbase": "04ffff001d02a102",
          "sequence": 4294967295
        }
      ],
      "vout": [
        {
          "value": 50.0,
          "n": 0,
          "scriptPubKey": {
            "asm": "041b8e17649bb876037eb2d3425dde05c57cc914c3527fe2f085df3e33dca44a03718a8753fe0218c94ccee36cf849d97a0e2006b9e2976e73a6bf287736ed65be OP_CHECKSIG",
            "desc": "pk(041b8e17649bb876037eb2d3425dde05c57cc914c3527fe2f085df3e33dca44a03718a8753fe0218c94ccee36cf849d97a0e2006b9e2976e73a6bf287736ed65be)#v77dv5v3",
            "hex": "41041b8e17649bb876037eb2d3425dde05c57cc914c3527fe2f085df3e33dca44a03718a8753fe0218c94ccee36cf849d97a0e2006b9e2976e73a6bf287736ed65beac",
            "type": "pubkey"
          }
        }
      ],
      "hex": "01000000010000000000000000000000000000000000000000000000000000000000000000ffffffff0804ffff001d02a102ffffffff0100f2052a010000004341041b8e17649bb876037eb2d3425dde05c57cc914c3527fe2f085df3e33dca44a03718a8753fe0218c94ccee36cf849d97a0e2006b9e2976e73a6bf287736ed65beac00000000"
    }
  ]
}