{
  "hash": "000000001ef602d85268d37d20d3218d272e919201c2effed87e7d1b5bb1b5a9",
  "confirmations": 44865,
  "height": 8233,
  "version": 1,
  "versionHex": "00000001",
  "merkleroot": "1f8883e0cb53292160f6ff7a0af1b85491168763862d712889c61be90e17da1e",
  "time": 1237685587,
  "mediantime": 1237664432,
  "nonce": 2844767232,
  "bits": "1d00ffff",
  "difficulty": 1,
  "chainwork": "0000000000000000000000000000000000000000000000000000202a202a202a",
  "nTx": 1,
  "previousblockhash": "0000000077d98399e6b17d1e44bc2e3b2527ca10c174b3d736bfa5ff0e4d7e83",
  "nextblockhash": "00000000c5cf5efab33ada912190fc8317df39ad07d97714abda1892d9fc33b1",
  "strippedsize": 216,
  "size": 216,
  "weight": 864,
  "tx": [
    {
      "txid": "1f8883e0cb53292160f6ff7a0af1b85491168763862d712889c61be90e17da1e",
      "hash": "1f8883e0cb53292160f6ff7a0af1b85491168763862d712889c61be90e17da1e",
      "version": 1,
      "size": 135,
      "vsize": 135,
      "weight": 540,
      "locktime": 0,
      "vin": [
        {
          "coinbase": "04ffff001d024803",
          "sequence": 4294967295
        }
      ],
      "vout": [
        {
          "value": 50.0,
          "n": 0,
          "scriptPubKey": {
            "asm": "0413e4a815f1a6caa0f6db94d173c02a1fd547e6260e34adb3ae9e0a5ca433a3e73480ded6652d1d70039a18028ca0a3ae8c4d249ed5affd90f5c01880168c8f73 OP_CHECKSIG",
            "desc": "pk(0413e4a815f1a6caa0f6db94d173c02a1fd547e6260e34adb3ae9e0a5ca433a3e73480ded6652d1d70039a18028ca0a3ae8c4d249ed5affd90f5c01880168c8f73)#0cehtucu",
            "hex": "410413e4a815f1a6caa0f6db94d173c02a1fd547e6260e34adb3ae9e0a5ca433a3e73480ded6652d1d70039a18028ca0a3ae8c4d249ed5affd90f5c01880168c8f73ac",
            "type": "pubkey"
          }
        }
      ],
      "hex": "01000000010000000000000000000000000000000000000000000000000000000000000000ffffffff0804ffff001d024803ffffffff0100f2052a0100000043410413e4a815f1a6caa0f6db94d173c02a1fd547e6260e34adb3ae9e0a5ca433a3e73480ded6652d1d70039a18028ca0a3ae8c4d249ed5affd90f5c01880168c8f73ac00000000"
    }
  ]
}