{
  "hash": "00000000787381693ec698b7b6e84c8605f383cafb64071a03008938be6e52bd",
  "confirmations": 52368,
  "height": 730,
  "version": 1,
  "versionHex": "00000001",
  "merkleroot": "312eacd1cf17e131b33a3ad35c89a517bbf640a9ae06fdcf7977d06941cb2cae",
  "time": 1232134449,
  "mediantime": 1232131033,
  "nonce": 185079318,
  "bits": "1d00ffff",
  "difficulty": 1,
  "chainwork": "000000000000000000000000000000000000000000000000000002db02db02db",
  "nTx": 1,
  "previousblockhash": "00000000ce8f753a6df03ffba3ed05db6cf79013e79b7d20c87e0e88b7672fbf",
  "nextblockhash": "0000000019d382666db9959df7d76b1d3a68230dfe4ae9b6ab817260c02927a6",
  "strippedsize": 215,
  "size": 215,
  "weight": 860,
  "tx": [
    {
      "txid": "312eacd1cf17e131b33a3ad35c89a517bbf640a9ae06fdcf7977d06941cb2cae",
      "hash": "312eacd1cf17e131b33a3ad35c89a517bbf640a9ae06fdcf7977d06941cb2cae",
      "version": 1,
      "size": 134,
      "vsize": 134,
      "weight": 536,
      "locktime": 0,
      "vin": [
        {
          "coinbase": "04ffff001d0110",
          "sequence": 4294967295
        }
      ],
      "vout": [
        {
          "value": 50.0,
          "n": 0,
          "scriptPubKey": {
            "asm": "0483ba09e9b8b39f95acadfcf0b562e91195f4f1dc9727cb274a294dd37896c094354285826f5996e9d95faad39bfb2e5c29dd58e56d049a05c99e5c99b9ff35f0 OP_CHECKSIG",
            "desc": "pk(0483ba09e9b8b39f95acadfcf0b562e91195f4f1dc9727cb274a294dd37896c094354285826f5996e9d95faad39bfb2e5c29dd58e56d049a05c99e5c99b9ff35f0)#qekzxg3c",
            "hex": "410483ba09e9b8b39f95acadfcf0b562e91195f4f1dc9727cb274a294dd37896c094354285826f5996e9d95faad39bfb2e5c29dd58e56d049a05c99e5c99b9ff35f0ac",
            "type": "pubkey"
          }
        }
      ],
      "hex": "01000000010000000000000000000000000000000000000000000000000000000000000000ffffffff0704ffff001d0110ffffffff0100f2052a0100000043410483ba09e9b8b39f95acadfcf0b562e91195f4f1dc9727cb274a294dd37896c094354285826f5996e9d95faad39bfb2e5c29dd58e56d049a05c99e5c99b9ff35f0ac00000000"
    }
  ]
}