{
  "hash": "0000000026012804d17f67ee488623b59dffecee6cf8dfd691248d27993fb2ee",
  "confirmations": 46954,
  "height": 6144,
  "version": 1,
  "versionHex": "00000001",
  "merkleroot": "f703d96174559156df9482884a47e9b0dc26a1e70135641f9aa03dff2fa337b8",
  "time": 1236044793,
  "mediantime": 1236040591,
  "nonce": 1484405791,
  "bits": "1d00ffff",
  "difficulty": 1,
  "chainwork": "0000000000000000000000000000000000000000000000000000180118011801",
  "nTx": 1,
  "previousblockhash": "00000000c5461cfb9639792f4a50d79743a419f3002a7971c47baa44ac85fe17",
  "nextblockhash": "000000004183963b5304e97eac8a03935fcc8f3b78db637ff3e3ed86cc26c7a9",
  "strippedsize": 216,
  "size": 216,
  "weight": 864,
  "tx": [
    {
      "txid": "f703d96174559156df9482884a47e9b0dc26a1e70135641f9aa03dff2fa337b8",
      "hash": "f703d96174559156df9482884a47e9b0dc26a1e70135641f9aa03dff2fa337b8",
      "version": 1,
      "size": 135,
      "vsize": 135,
      "weight": 540,
      "locktime": 0,
      "vin": [
        {
          "coinbase": "04ffff001d02a107",
          "sequence": 4294967295
        }
      ],
      "vout": [
        {
          "value": 50.0,
          "n": 0,
          "scriptPubKey": {
            "asm": "04327cd8c887d9d79cef6b59fc50ac867c2981d3e7585fb46c746dc514db27ab24d27de796a79e6522497961f8aaf2d0f41cb6c6870d2ed4aa5fd722b75d30aacf OP_CHECKSIG",
            "desc": "pk(04327cd8c887d9d79cef6b59fc50ac867c2981d3e7585fb46c746dc514db27ab24d27de796a79e6522497961f8aaf2d0f41cb6c6870d2ed4aa5fd722b75d30aacf)#yuaxdarw",
            "hex": "4104327cd8c887d9d79cef6b59fc50ac867c2981d3e7585fb46c746dc514db27ab24d27de796a79e6522497961f8aaf2d0f41cb6c6870d2ed4aa5fd722b75d30aacfac",
            "type": "pubkey"
          }
        }
      ],
      "hex": "01000000010000000000000000000000000000000000000000000000000000000000000000ffffffff0804ffff001d02a107ffffffff0100f2052a01000000434104327cd8c887d9d79cef6b59fc50ac867c2981d3e7585fb46c746dc514db27ab24d27de796a79e6522497961f8aaf2d0f41cb6c6870d2ed4aa5fd722b75d30aacfac00000000"
    }
  ]
}