{
  "hash": "00000000b4299197a0a6eba1ae63363c9d8f890e8acf1fba782100078b8fd991",
  "confirmations": 48936,
  "height": 4162,
  "version": 1,
  "versionHex": "00000001",
  "merkleroot": "532dfb45bdd049a25628a4c9d531f177b5de60c6dbd0bef494a7c2ee7d0048e2",
  "time": 1234555659,
  "mediantime": 1234552370,
  "nonce": 2971904813,
  "bits": "1d00ffff",
  "difficulty": 1,
  "chainwork": "0000000000000000000000000000000000000000000000000000104310431043",
  "nTx": 1,
  "previousblockhash": "00000000854a8934112c424a10acfcd13cbdad732192bc4931ffcb1d303d85e7",
  "nextblockhash": "00000000c0b6e39acc4b2f99c84635692a4ca9d8cc8c885e0a1ad72ada9650d5",
  "strippedsize": 216,
  "size": 216,
  "weight": 864,
  "tx": [
    {
      "txid": "532dfb45bdd049a25628a4c9d531f177b5de60c6dbd0bef494a7c2ee7d0048e2",
      "hash": "532dfb45bdd049a25628a4c9d531f177b5de60c6dbd0bef494a7c2ee7d0048e2",
      "version": 1,
      "size": 135,
      "vsize": 135,
      "weight": 540,
      "locktime": 0,
      "vin": [
        {
          "coinbase": "04ffff001d02a506",
          "sequence": 4294967295
        }
      ],
      "vout": [
        {
          "value": 50.0,
          "n": 0,
          "scriptPubKey": {
            "asm": "04b0a616b755d5ad75dcf341b9311f6625e293f20fe2d0067a1c25b11bc6c291a9b611c8181f77ac9b09709c2cfc465ccfa4cfa97626e62e0b069ccf20b31a6b70 OP_CHECKSIG",
            "desc": "pk(04b0a616b755d5ad75dcf341b9311f6625e293f20fe2d0067a1c25b11bc6c291a9b611c8181f77ac9b09709c2cfc465ccfa4cfa97626e62e0b069ccf20b31a6b70)#dp668r2z",
            "hex": "4104b0a616b755d5ad75dcf341b9311f6625e293f20fe2d0067a1c25b11bc6c291a9b611c8181f77ac9b09709c2cfc465ccfa4cfa97626e62e0b069ccf20b31a6b70ac",
            "type": "pubkey"
          }
        }
      ],
      "hex": "01000000010000000000000000000000000000000000000000000000000000000000000000ffffffff0804ffff001d02a506ffffffff0100f2052a01000000434104b0a616b755d5ad75dcf341b9311f6625e293f20fe2d0067a1c25b11bc6c291a9b611c8181f77ac9b09709c2cfc465ccfa4cfa97626e62e0b069ccf20b31a6b70ac00000000"
    }
  ]
}