{
  "hash": "00000000214185adcb87251b784a387d4fba403de35f6ef14a8d907f13de762f",
  "confirmations": 43989,
  "height": 9109,
  "version": 1,
  "versionHex": "00000001",
  "merkleroot": "78f32ec0d88e41c1be16368e112ca56e531fbedaf4850b2041a161099d9cbbfb",
  "time": 1238337287,
  "mediantime": 1238333332,
  "nonce": 61714228,
  "bits": "1d00ffff",
  "difficulty": 1,
  "chainwork": "0000000000000000000000000000000000000000000000000000239623962396",
  "nTx": 1,
  "previousblockhash": "0000000021d6651dc8d9efbd9c123934a4e95cb4e788b28d3c6e747ef85d5873",
  "nextblockhash": "000000009af8de91bef6ae9429a7d89adfb9add1ec95ba6ec60cb68f892e9d27",
  "strippedsize": 216,
  "size": 216,
  "weight": 864,
  "tx": [
    {
      "txid": "78f32ec0d88e41c1be16368e112ca56e531fbedaf4850b2041a161099d9cbbfb",
      "hash": "78f32ec0d88e41c1be16368e112ca56e531fbedaf4850b2041a161099d9cbbfb",
      "version": 1,
      "size": 135,
      "vsize": 135,
      "weight": 540,
      "locktime": 0,
      "vin": [
        {
          "coinbase": "04ffff001d02c400",
          "sequence": 4294967295
        }
      ],
      "vout": [
        {
          "value": 50.0,
          "n": 0,
          "scriptPubKey": {
            "asm": "047ad939c36449830c1787160f7fb34a511104a3ec219c49ff39017230e1f8d9307d9fb010af42620bdfa4f5bd083e25b66efb5a184f2d942f4ae8f3e7c5f42849 OP_CHECKSIG",
            "desc": "pk(047ad939c36449830c1787160f7fb34a511104a3ec219c49ff39017230e1f8d9307d9fb010af42620bdfa4f5bd083e25b66efb5a184f2d942f4ae8f3e7c5f42849)#dtxa870e",
            "hex": "41047ad939c36449830c1787160f7fb34a511104a3ec219c49ff39017230e1f8d9307d9fb010af42620bdfa4f5bd083e25b66efb5a184f2d942f4ae8f3e7c5f42849ac",
            "type": "pubkey"
          }
        }
      ],
      "hex": "01000000010000000000000000000000000000000000000000000000000000000000000000ffffffff0804ffff001d02c400ffffffff0100f2052a010000004341047ad939c36449830c1787160f7fb34a511104a3ec219c49ff39017230e1f8d9307d9fb010af42620bdfa4f5bd083e25b66efb5a184f2d942f4ae8f3e7c5f42849ac00000000"
    }
  ]
}