{
  "hash": "00000000adf64eca1b6e2ee5620bbc1718de99f796bab29dd4dc8fde15390f29",
  "confirmations": 44004,
  "height": 9094,
  "version": 1,
  "versionHex": "00000001",
  "merkleroot": "afd48a1e9b02e8aa507e9f8efcd2aee3d680a5c3188b88826dfbdb703c7e4130",
  "time": 1238327264,
  "mediantime": 1238324508,
  "nonce": 135002224,
  "bits": "1d00ffff",
  "difficulty": 1,
  "chainwork": "0000000000000000000000000000000000000000000000000000238723872387",
  "nTx": 1,
  "previousblockhash": "00000000848017cd0f3b9572a00e57dc16977727203b9684f066e44e2ebe3c44",
  "nextblockhash": "00000000d0da55d1721b8e76de181c49834b857e16abec4b616abf174fbd94f1",
  "strippedsize": 216,
  "size": 216,
  "weight": 864,
  "tx": [
    {
      "txid": "afd48a1e9b02e8aa507e9f8efcd2aee3d680a5c3188b88826dfbdb703c7e4130",
      "hash": "afd48a1e9b02e8aa507e9f8efcd2aee3d680a5c3188b88826dfbdb703c7e4130",
      "version": 1,
      "size": 135,
      "vsize": 135,
      "weight": 540,
      "locktime": 0,
      "vin": [
        {
          "coinbase": "04ffff001d022e04",
          "sequence": 4294967295
        }
      ],
      "vout": [
        {
          "value": 50.0,
          "n": 0,
          "scriptPubKey": {
            "asm": "040241a49e64a361a1d4151e906e544aa9e637582c48c2697a05901f02be8c44ed989dc35b407a083aaeae246d42f5216f00d61e15b6050c58620d017646b0793d OP_CHECKSIG",
            "desc": "pk(040241a49e64a361a1d4151e906e544aa9e637582c48c2697a05901f02be8c44ed989dc35b407a083aaeae246d42f5216f00d61e15b6050c58620d017646b0793d)#9swvqvsk",
            "hex": "41040241a49e64a361a1d4151e906e544aa9e637582c48c2697a05901f02be8c44ed989dc35b407a083aaeae246d42f5216f00d61e15b6050c58620d017646b0793dac",
            "type": "pubkey"
          }
        }
      ],
      "hex": "01000000010000000000000000000000000000000000000000000000000000000000000000ffffffff0804ffff001d022e04ffffffff0100f2052a010000004341040241a49e64a361a1d4151e906e544aa9e637582c48c2697a05901f02be8c44ed989dc35b407a083aaeae246d42f5216f00d61e15b6050c58620d017646b0793dac00000000"
    }
  ]
}