{
  "hash": "00000000d74c8248447e9303185424232883e10679a38547a417d1dde615baff",
  "confirmations": 46785,
  "height": 6313,
  "version": 1,
  "versionHex": "00000001",
  "merkleroot": "83f48ab6ecca6ca8060f51709540acbf43ecd161ab018f748205903bca53c0ad",
  "time": 1236181581,
  "mediantime": 1236178199,
  "nonce": 2394033954,
  "bits": "1d00ffff",
  "difficulty": 1,
  "chainwork": "000000000000000000000000000000000000000000000000000018aa18aa18aa",
  "nTx": 1,
  "previousblockhash": "00000000d1536f0336c4a77c538f08ef87e00f6b1c1f846d59093d9511d023f9",
  "nextblockhash": "000000003457e576d0076d86f135eb895290bac9a48eb080ecee6c3c5b633fa7",
  "strippedsize": 215,
  "size": 215,
  "weight": 860,
  "tx": [
    {
      "txid": "83f48ab6ecca6ca8060f51709540acbf43ecd161ab018f748205903bca53c0ad",
      "hash": "83f48ab6ecca6ca8060f51709540acbf43ecd161ab018f748205903bca53c0ad",
      "version": 1,
      "size": 134,
      "vsize": 134,
      "weight": 536,
      "locktime": 0,
      "vin": [
        {
          "coinbase": "04ffff001d0152",
          "sequence": 4294967295
        }
      ],
      "vout": [
        {
          "value": 50.0,
          "n": 0,
          "scriptPubKey": {
            "asm": "04b28a6134a1c695dc124093dfccbc321e5926ac9a35c2df41158fe69005a579b30ea28bbfb762796145ece38bf2ab5b878ee385c63588617a165eb8fa2eddae35 OP_CHECKSIG",
            "desc": "pk(04b28a6134a1c695dc124093dfccbc321e5926ac9a35c2df41158fe69005a579b30ea28bbfb762796145ece38bf2ab5b878ee385c63588617a165eb8fa2eddae35)#eehcdle4",
            "hex": "4104b28a6134a1c695dc124093dfccbc321e5926ac9a35c2df41158fe69005a579b30ea28bbfb762796145ece38bf2ab5b878ee385c63588617a165eb8fa2eddae35ac",
            "type": "pubkey"
          }
        }
      ],
      "hex": "01000000010000000000000000000000000000000000000000000000000000000000000000ffffffff0704ffff001d0152ffffffff0100f2052a01000000434104b28a6134a1c695dc124093dfccbc321e5926ac9a35c2df41158fe69005a579b30ea28bbfb762796145ece38bf2ab5b878ee385c63588617a165eb8fa2eddae35ac00000000"
    }
  ]
}