{
  "hash": "00000000c3a7bc56d1eaace7a174de16999db9e747aeec41ab62318f812b2678",
  "confirmations": 51605,
  "height": 1493,
  "version": 1,
  "versionHex": "00000001",
  "merkleroot": "696a7e7e5d0bd141ebe8f1d260e858b048e7988eaf80a85cc5cf9e79d734a159",
  "time": 1232764687,
  "mediantime": 1232762360,
  "nonce": 2709114931,
  "bits": "1d00ffff",
  "difficulty": 1,
  "chainwork": "000000000000000000000000000000000000000000000000000005d605d605d6",
  "nTx": 1,
  "previousblockhash": "000000002590c6bd1c26c7afffb1dfb621950be4a6d9b89d019455c982997368",
  "nextblockhash": "00000000de4ccbbe194b8393f747881565ef9a19288328228b53dcbaf4f88609",
  "strippedsize": 216,
  "size": 216,
  "weight": 864,
  "tx": [
    {
      "txid": "696a7e7e5d0bd141ebe8f1d260e858b048e7988eaf80a85cc5cf9e79d734a159",
      "hash": "696a7e7e5d0bd141ebe8f1d260e858b048e7988eaf80a85cc5cf9e79d734a159",
      "version": 1,
      "size": 135,
      "vsize": 135,
      "weight": 540,
      "locktime": 0,
      "vin": [
        {
          "coinbase": "04ffff001d021401",
          "sequence": 4294967295
        }
      ],
      "vout": [
        {
          "value": 50.0,
          "n": 0,
          "scriptPubKey": {
            "asm": "04dd8c80b30cfcf60c9437e8d9720aaab6280413b9bdd7e2cdf7aec4191730841ee271ea7c895df09e5a64f0b89395ead93e2a54fc8495c0f7ed2a9c8e119092e9 OP_CHECKSIG",
            "desc": "pk(04dd8c80b30cfcf60c9437e8d9720aaab6280413b9bdd7e2cdf7aec4191730841ee271ea7c895df09e5a64f0b89395ead93e2a54fc8495c0f7ed2a9c8e119092e9)#anaxwd6m",
            "hex": "4104dd8c80b30cfcf60c9437e8d9720aaab6280413b9bdd7e2cdf7aec4191730841ee271ea7c895df09e5a64f0b89395ead93e2a54fc8495c0f7ed2a9c8e119092e9ac",
            "type": "pubkey"
          }
        }
      ],
      "hex": "01000000010000000000000000000000000000000000000000000000000000000000000000ffffffff0804ffff001d021401ffffffff0100f2052a01000000434104dd8c80b30cfcf60c9437e8d9720aaab6280413b9bdd7e2cdf7aec4191730841ee271ea7c895df09e5a64f0b89395ead93e2a54fc8495c0f7ed2a9c8e119092e9ac00000000"
    }
  ]
}