{
  "hash": "00000000b321faa4f176f89f83955fa5ec84cb0ad1476e6bd076b106a9d29fba",
  "confirmations": 43904,
  "height": 9194,
  "version": 1,
  "versionHex": "00000001",
  "merkleroot": "22cfdc29a5404b14752a1acd2d53d523ddcd8fe02ac6b87b6247b9b7f1443280",
  "time": 1238395240,
  "mediantime": 1238393211,
  "nonce": 2774436653,
  "bits": "1d00ffff",
  "difficulty": 1,
  "chainwork": "000000000000000000000000000000000000000000000000000023eb23eb23eb",
  "nTx": 1,
  "previousblockhash": "00000000a3d2f83fc7c56a798fb54b98ae1793a07c607733ddacf20f439e2e5a",
  "nextblockhash": "00000000797b0ba8f3b9ba14fd1bf7f8d28b31e098516c6b2506d8aadd479ecc",
  "strippedsize": 216,
  "size": 216,
  "weight": 864,
  "tx": [
    {
      "txid": "22cfdc29a5404b14752a1acd2d53d523ddcd8fe02ac6b87b6247b9b7f1443280",
      "hash": "22cfdc29a5404b14752a1acd2d53d523ddcd8fe02ac6b87b6247b9b7f1443280",
      "version": 1,
      "size": 135,
      "vsize": 135,
      "weight": 540,
      "locktime": 0,
      "vin": [
        {
          "coinbase": "04ffff001d02200a",
          "sequence": 4294967295
        }
      ],
      "vout": [
        {
          "value": 50.0,
          "n": 0,
          "scriptPubKey": {
            "asm": "0417a6f184e7fafaf6eb03a9a5125939f7df8d318c855887a01d00097dfb5c98004751fa0e44866ebd4443676808c71727707a0267d7cce36379de89ce19cdc6fb OP_CHECKSIG",
            "desc": "pk(0417a6f184e7fafaf6eb03a9a5125939f7df8d318c855887a01d00097dfb5c98004751fa0e44866ebd4443676808c71727707a0267d7cce36379de89ce19cdc6fb)#aj9s3gwm",
            "hex": "410417a6f184e7fafaf6eb03a9a5125939f7df8d318c855887a01d00097dfb5c98004751fa0e44866ebd4443676808c71727707a0267d7cce36379de89ce19cdc6fbac",
            "type": "pubkey"
          }
        }
      ],
      "hex": "01000000010000000000000000000000000000000000000000000000000000000000000000ffffffff0804ffff001d02200affffffff0100f2052a0100000043410417a6f184e7fafaf6eb03a9a5125939f7df8d318c855887a01d00097dfb5c98004751fa0e44866ebd4443676808c71727707a0267d7cce36379de89ce19cdc6fbac00000000"
    }
  ]
}