{
  "hash": "00000000a339f72d1190f919b401f8f199ec85224fd8921977a40c35b4496dcc",
  "confirmations": 43922,
  "height": 9176,
  "version": 1,
  "versionHex": "00000001",
  "merkleroot": "039459fbca8f87cde802ebd67859ddfd7bcc14594d0d4b5e30867518afde8e15",
  "time": 1238383984,
  "mediantime": 1238380252,
  "nonce": 161620919,
  "bits": "1d00ffff",
  "difficulty": 1,
  "chainwork": "000000000000000000000000000000000000000000000000000023d923d923d9",
  "nTx": 1,
  "previousblockhash": "0000000082635ed303ee7abe0a3f33e4d129463b073d2c2d74001920581542cd",
  "nextblockhash": "000000002a18e023fd07151a80d14b5920af4621149f56b3ee9b8ad9801b1c4d",
  "strippedsize": 216,
  "size": 216,
  "weight": 864,
  "tx": [
    {
      "txid": "039459fbca8f87cde802ebd67859ddfd7bcc14594d0d4b5e30867518afde8e15",
      "hash": "039459fbca8f87cde802ebd67859ddfd7bcc14594d0d4b5e30867518afde8e15",
      "version": 1,
      "size": 135,
      "vsize": 135,
      "weight": 540,
      "locktime": 0,
      "vin": [
        {
          "coinbase": "04ffff001d028004",
          "sequence": 4294967295
        }
      ],
      "vout": [
        {
          "value": 50.0,
          "n": 0,
          "scriptPubKey": {
            "asm": "045b68027221d70b415d0ac004b88640a8f5096c2c637ee4c8cc6ee681f9da309dbb292014ac13b4d4f619804520ded5c7bc80a69a41820037792e82a19d3d1720 OP_CHECKSIG",
            "desc": "pk(045b68027221d70b415d0ac004b88640a8f5096c2c637ee4c8cc6ee681f9da309dbb292014ac13b4d4f619804520ded5c7bc80a69a41820037792e82a19d3d1720)#vanrpzuh",
            "hex": "41045b68027221d70b415d0ac004b88640a8f5096c2c637ee4c8cc6ee681f9da309dbb292014ac13b4d4f619804520ded5c7bc80a69a41820037792e82a19d3d1720ac",
            "type": "pubkey"
          }
        }
      ],
      "hex": "01000000010000000000000000000000000000000000000000000000000000000000000000ffffffff0804ffff001d028004ffffffff0100f2052a010000004341045b68027221d70b415d0ac004b88640a8f5096c2c637ee4c8cc6ee681f9da309dbb292014ac13b4d4f619804520ded5c7bc80a69a41820037792e82a19d3d1720ac00000000"
    }
  ]
}