{
  "hash": "0000000005b20bb1fe4821dc10b369e453a7642e1279419126efe34f1e2bee82",
  "confirmations": 45245,
  "height": 7853,
  "version": 1,
  "versionHex": "00000001",
  "merkleroot": "f14b3cadeffbd74241797ea5f3bc0221ac75c6c8b080b783a2387ac5f022c2ac",
  "time": 1237351949,
  "mediantime": 1237349605,
  "nonce": 1887434779,
  "bits": "1d00ffff",
  "difficulty": 1,
  "chainwork": "00000000000000000000000000000000000000000000000000001eae1eae1eae",
  "nTx": 1,
  "previousblockhash": "00000000551d6d74c20b6cf721470c85e0db58cd8dce4feee3d9537d9097a29a",
  "nextblockhash": "00000000606b3f705e9d875b960ffe3ebc03a2e4bab96a44e85ae00a995c693c",
  "strippedsize": 216,
  "size": 216,
  "weight": 864,
  "tx": [
    {
      "txid": "f14b3cadeffbd74241797ea5f3bc0221ac75c6c8b080b783a2387ac5f022c2ac",
      "hash": "f14b3cadeffbd74241797ea5f3bc0221ac75c6c8b080b783a2387ac5f022c2ac",
      "version": 1,
      "size": 135,
      "vsize": 135,
      "weight": 540,
      "locktime": 0,
      "vin": [
        {
          "coinbase": "04ffff001d02cc06",
          "sequence": 4294967295
        }
      ],
      "vout": [
        {
          "value": 50.0,
          "n": 0,
          "scriptPubKey": {
            "asm": "043b035ab7a027ebb75f3f38b797081f5f4a249b73ae9180ef3d982e6e781a8309af3f02f6febea452e7703279e3625c6f4e0929d554d633d0ebff989db6586c4b OP_CHECKSIG",
            "desc": "pk(043b035ab7a027ebb75f3f38b797081f5f4a249b73ae9180ef3d982e6e781a8309af3f02f6febea452e7703279e3625c6f4e0929d554d633d0ebff989db6586c4b)#94em2hdv",
            "hex": "41043b035ab7a027ebb75f3f38b797081f5f4a249b73ae9180ef3d982e6e781a8309af3f02f6febea452e7703279e3625c6f4e0929d554d633d0ebff989db6586c4bac",
            "type": "pubkey"
          }
        }
      ],
      "hex": "01000000010000000000000000000000000000000000000000000000000000000000000000ffffffff0804ffff001d02cc06ffffffff0100f2052a010000004341043b035ab7a027ebb75f3f38b797081f5f4a249b73ae9180ef3d982e6e781a8309af3f02f6febea452e7703279e3625c6f4e0929d554d633d0ebff989db6586c4bac00000000"
    }
  ]
}