{
  "hash": "000000007e8127fe750bed9f48a7c1ee882bb3a36615f9966b95f64074ae3254",
  "confirmations": 51051,
  "height": 2047,
  "version": 1,
  "versionHex": "00000001",
  "merkleroot": "8cc2cd573aa4e58f36c24587e43cdbac2cda06bac046eb20e71012cda2422915",
  "time": 1233091616,
  "mediantime": 1233086256,
  "nonce": 4239675166,
  "bits": "1d00ffff",
  "difficulty": 1,
  "chainwork": "0000000000000000000000000000000000000000000000000000080008000800",
  "nTx": 1,
  "previousblockhash": "00000000faff9b6900e995e98f7d7817b6eb7563361bfc2c4577c39d27ad94ae",
  "nextblockhash": "00000000e6c3c75c18bdb06cc39d616d636fca0fc967c29ebf8225ddf7f2fe48",
  "strippedsize": 216,
  "size": 216,
  "weight": 864,
  "tx": [
    {
      "txid": "8cc2cd573aa4e58f36c24587e43cdbac2cda06bac046eb20e71012cda2422915",
      "hash": "8cc2cd573aa4e58f36c24587e43cdbac2cda06bac046eb20e71012cda2422915",
      "version": 1,
      "size": 135,
      "vsize": 135,
      "weight": 540,
      "locktime": 0,
      "vin": [
        {
          "coinbase": "04ffff001d029602",
          "sequence": 4294967295
        }
      ],
      "vout": [
        {
          "value": 50.0,
          "n": 0,
          "scriptPubKey": {
            "asm": "04020f28da35f1b7936d2b0a7ac6df8855d1cca75309813c73986259193d5db224a4aceb708aae5d45a9cf8dc957bf27c548706e73cc41e2b24b6430be0bac9b08 OP_CHECKSIG",
            "desc": "pk(04020f28da35f1b7936d2b0a7ac6df8855d1cca75309813c73986259193d5db224a4aceb708aae5d45a9cf8dc957bf27c548706e73cc41e2b24b6430be0bac9b08)#zzr2pngs",
            "hex": "4104020f28da35f1b7936d2b0a7ac6df8855d1cca75309813c73986259193d5db224a4aceb708aae5d45a9cf8dc957bf27c548706e73cc41e2b24b6430be0bac9b08ac",
            "type": "pubkey"
          }
        }
      ],
      "hex": "01000000010000000000000000000000000000000000000000000000000000000000000000ffffffff0804ffff001d029602ffffffff0100f2052a01000000434104020f28da35f1b7936d2b0a7ac6df8855d1cca75309813c73986259193d5db224a4aceb708aae5d45a9cf8dc957bf27c548706e73cc41e2b24b6430be0bac9b08ac00000000"
    }
  ]
}