{
  "hash": "000000007986095d6dce2f41fd76e8008e828282400e46d3b49f39d19e2b7a78",
  "confirmations": 52025,
  "height": 206,
  "version": 1,
  "versionHex": "00000001",
  "merkleroot": "32cbb7e4d08f02fdd78368a7a03ff54c13191d1023aa1e3f157027241d9840ae",
  "time": 1231757577,
  "mediantime": 1231753837,
  "nonce": 125825145,
  "bits": "1d00ffff",
  "difficulty": 1,
  "chainwork": "000000000000000000000000000000000000000000000000000000cf00cf00cf",
  "nTx": 1,
  "previousblockhash": "00000000d7e3261b16abe2fc1811150812ee0d6f6fc3727cadd8821df2d96c45",
  "nextblockhash": "00000000f5714fa64e1f16186d5afe7100ca4393320cef8298e0f59e64c3b008",
  "strippedsize": 215,
  "size": 215,
  "weight": 860,
  "tx": [
    {
      "txid": "32cbb7e4d08f02fdd78368a7a03ff54c13191d1023aa1e3f157027241d9840ae",
      "hash": "32cbb7e4d08f02fdd78368a7a03ff54c13191d1023aa1e3f157027241d9840ae",
      "version": 1,
      "size": 134,
      "vsize": 134,
      "weight": 536,
      "locktime": 0,
      "vin": [
        {
          "coinbase": "04ffff001d010e",
          "sequence": 4294967295
        }
      ],
      "vout": [
        {
          "value": 50.0,
          "n": 0,
          "scriptPubKey": {
            "asm": "04bc184a82d824a8ff59576e8b6843767407e4f35edb5ad725460764a30ddf91479fd0eb1b0c2b4371a06b3fdae3453262fcf3358afafe3dbebccf2fdefcd0853c OP_CHECKSIG",
            "desc": "pk(04bc184a82d824a8ff59576e8b6843767407e4f35edb5ad725460764a30ddf91479fd0eb1b0c2b4371a06b3fdae3453262fcf3358afafe3dbebccf2fdefcd0853c)#4pqxwy9m",
            "hex": "4104bc184a82d824a8ff59576e8b6843767407e4f35edb5ad725460764a30ddf91479fd0eb1b0c2b4371a06b3fdae3453262fcf3358afafe3dbebccf2fdefcd0853cac",
            "type": "pubkey"
          }
        }
      ],
      "hex": "01000000010000000000000000000000000000000000000000000000000000000000000000ffffffff0704ffff001d010effffffff0100f2052a01000000434104bc184a82d824a8ff59576e8b6843767407e4f35edb5ad725460764a30ddf91479fd0eb1b0c2b4371a06b3fdae3453262fcf3358afafe3dbebccf2fdefcd0853cac00000000"
    }
  ]
}