{
  "hash": "000000003dee36ad533a610769593478dc34e1d25421aa5dff5d9703ff8e57b1",
  "confirmations": 43406,
  "height": 9692,
  "version": 1,
  "versionHex": "00000001",
  "merkleroot": "7ae3cf4ee7f6c7468aa800a1585158b60c3cb1ca93abc60709bfc96e68b90780",
  "time": 1238772359,
  "mediantime": 1238769985,
  "nonce": 1935407657,
  "bits": "1d00ffff",
  "difficulty": 1,
  "chainwork": "000000000000000000000000000000000000000000000000000025dd25dd25dd",
  "nTx": 1,
  "previousblockhash": "00000000689e9c3fb224713c273e182d63720bc283fe040aee6cadcc5bfc758e",
  "nextblockhash": "00000000227da1198cf768a6dd10f1ea2bda67a497f91fce8a20589543baac19",
  "strippedsize": 216,
  "size": 216,
  "weight": 864,
  "tx": [
    {
      "txid": "7ae3cf4ee7f6c7468aa800a1585158b60c3cb1ca93abc60709bfc96e68b90780",
      "hash": "7ae3cf4ee7f6c7468aa800a1585158b60c3cb1ca93abc60709bfc96e68b90780",
      "version": 1,
      "size": 135,
      "vsize": 135,
      "weight": 540,
      "locktime": 0,
      "vin": [
        {
          "coinbase": "04ffff001d023f08",
          "sequence": 4294967295
        }
      ],
      "vout": [
        {
          "value": 50.0,
          "n": 0,
          "scriptPubKey": {
            "asm": "0451c7dcb07f8f26b9e2e004d375d0e13b8179629d214825487ae2cb6fe10a5830067f4e0e85fab8a7d9011c7a0e503ea28cdb2d0202b44e92cd21e12aacf67528 OP_CHECKSIG",
            "desc": "pk(0451c7dcb07f8f26b9e2e004d375d0e13b8179629d214825487ae2cb6fe10a5830067f4e0e85fab8a7d9011c7a0e503ea28cdb2d0202b44e92cd21e12aacf67528)#eu9hdgkf",
            "hex": "410451c7dcb07f8f26b9e2e004d375d0e13b8179629d214825487ae2cb6fe10a5830067f4e0e85fab8a7d9011c7a0e503ea28cdb2d0202b44e92cd21e12aacf67528ac",
            "type": "pubkey"
          }
        }
      ],
      "hex": "01000000010000000000000000000000000000000000000000000000000000000000000000ffffffff0804ffff001d023f08ffffffff0100f2052a0100000043410451c7dcb07f8f26b9e2e004d375d0e13b8179629d214825487ae2cb6fe10a5830067f4e0e85fab8a7d9011c7a0e503ea28cdb2d0202b44e92cd21e12aacf67528ac00000000"
    }
  ]
}