{
  "hash": "000000009a4aed3e8ba7a978c6b50fea886fb496d66e696090a91d527200b002",
  "confirmations": 51802,
  "height": 1296,
  "version": 1,
  "versionHex": "00000001",
  "merkleroot": "3817167ba82293f033012dda3a13d581efd76e060e27564687c90a14667b6889",
  "time": 1232582734,
  "mediantime": 1232567652,
  "nonce": 248236551,
  "bits": "1d00ffff",
  "difficulty": 1,
  "chainwork": "0000000000000000000000000000000000000000000000000000051105110511",
  "nTx": 2,
  "previousblockhash": "0000000046d234a513bcba7c73d6c9c2b2b43dace9033838b3eead334a7d39c1",
  "nextblockhash": "00000000c909f46277e6748d6f987d6d6b395f0b68cd7b4d50a2286a917fc365",
  "strippedsize": 1400,
  "size": 1400,
  "weight": 5600,
  "tx": [
    {
      "txid": "9faa93334f9561ef4133a97b29235f1c28de9c077e0d8fc39643c4d8baf44138",
      "hash": "9faa93334f9561ef4133a97b29235f1c28de9c077e0d8fc39643c4d8baf44138",
      "version": 1,
      "size": 134,
      "vsize": 134,
      "weight": 536,
      "locktime": 0,
      "vin": [
        {
          "coinbase": "04ffff001d0177",
          "sequence": 4294967295
        }
      ],
      "vout": [
        {
          "value": 50.0,
          "n": 0,
          "scriptPubKey": {
            "asm": "04c6d0969c2d98a5c19ba7c36c7937c5edbd60ff2a01397c4afe54f16cd641667ea0049ba6f9e1796ba3c8e49e1b504c532ebbaaa1010c3f7d9b83a8ea7fd800e2 OP_CHECKSIG",
            "desc": "pk(04c6d0969c2d98a5c19ba7c36c7937c5edbd60ff2a01397c4afe54f16cd641667ea0049ba6f9e1796ba3c8e49e1b504c532ebbaaa1010c3f7d9b83a8ea7fd800e2)#9vmgaeua",
            "hex": "4104c6d0969c2d98a5c19ba7c36c7937c5edbd60ff2a01397c4afe54f16cd641667ea0049ba6f9e1796ba3c8e49e1b504c532ebbaaa1010c3f7d9b83a8ea7fd800e2ac",
            "type": "pubkey"
          }
        }
      ],
      "hex": "01000000010000000000000000000000000000000000000000000000000000000000000000ffffffff0704ffff001d0177ffffffff0100f2052a01000000434104c6d0969c2d98a5c19ba7c36c7937c5edbd60ff2a01397c4afe54f16cd641667ea0049ba6f9e1796ba3c8e49e1b504c532ebbaaa1010c3f7d9b83a8ea7fd800e2ac00000000"
    },
    {
      "txid": "59bf8acbc9d60dfae841abecc3882b4181f2bdd8ac6c1d94001165ab3aef50b0",
      "hash": "59bf8acbc9d60dfae841abecc3882b4181f2bdd8ac6c1d94001165ab3aef50b0",
      "version": 1,
      "size": 1185,
      "vsize": 1185,
      "weight": 4740,
      "locktime": 0,
      "vin": [
        {
          "txid": "6a71cea2c4e66ea163932b1ea199c1056f6728f3e1287946ed2a0892b918bf0e",
          "vout": 0,
          "scriptSig": {
            "asm": "3045022100c9096e525039b05002873c6b50a9f31cc401925f8ece442e3b73da9627aec89702205428da514f7511ddfc115512fdf7ab2be3024c3a22c779ce0b8ef44339c72708[ALL]",
            "hex": "483045022100c9096e525039b05002873c6b50a9f31cc401925f8ece442e3b73da9627aec89702205428da514f7511ddfc115512fdf7ab2be3024c3a22c779ce0b8ef44339c7270801"
          },
          "sequence": 4294967295
        },
        {
          "txid": "3ab4a68cf8813e8ec54958512ffd7ad7e89a81841b1b4cade296eccd1ed49169",
          "vout": 0,
          "scriptSig": {
            "asm": "3045022100e770a83ecf0f8171f99e7dc207ea7b738384feed35bf13cf89d99cc1657a7bf3022004c634d45a1094eb8f76630d6dc4a30b96d65103057517de343e446a9cfd0b94[ALL]",
            "hex": "483045022100e770a83ecf0f8171f99e7dc207ea7b738384feed35bf13cf89d99cc1657a7bf3022004c634d45a1094eb8f76630d6dc4a30b96d65103057517de343e446a9cfd0b9401"
          },
          "sequence": 4294967295
        },
        {
          "txid": "d70b999f1459dc4bfeaa7918460a233886d9641ab439275dc3cfabac37080d6a",
          "vout": 0,
          "scriptSig": {
            "asm": "30450220668b1d6e745d511f8f9b63fafb0384df6a79d58ed3b101b17d63129026f10203022100ed5ab3f34e19b905d1ac26c5a18274cee58a8d6ea6426f039c47576f849b4755[ALL]",
            "hex": "4830450220668b1d6e745d511f8f9b63fafb0384df6a79d58ed3b101b17d63129026f10203022100ed5ab3f34e19b905d1ac26c5a18274cee58a8d6ea6426f039c47576f849b475501"
          },
          "sequence": 4294967295
        },
        {
          "txid": "9e01daccf3280ab1663fbbb34e7b798acf488d23eb4d60f0176b6c9c86ffcd6b",
          "vout": 0,
          "scriptSig": {
            "asm": "3045022100a6f242ed8523125ee94768140ece304a195264d2cdcb6bb9cbc31a94a5af496b02206638e5e543ee541b4fef24e69b8fba4c854556857d5f3f48f0e06ce1564cf561[ALL]",
            "hex": "483045022100a6f242ed8523125ee94768140ece304a195264d2cdcb6bb9cbc31a94a5af496b02206638e5e543ee541b4fef24e69b8fba4c854556857d5f3f48f0e06ce1564cf56101"
          },
          "sequence": 4294967295
        },
        {
          "txid": "8327792a69129226e32f0a0ef0cf7bcbef94210e013edd717a3ccc335e1e26af",
          "vout": 0,
          "scriptSig": {
            "asm": "30460221009b059769db4f8341df29899d5ac7dbc09d97f045b64358aaca7b11d3b929eabe022100ad371104c2ea35e6f8a835114e7508ff1f9938d050c70a5ce771ba8d409e1b04[ALL]",
            "hex": "4930460221009b059769db4f8341df29899d5ac7dbc09d97f045b64358aaca7b11d3b929eabe022100ad371104c2ea35e6f8a835114e7508ff1f9938d050c70a5ce771ba8d409e1b0401"
          },
          "sequence": 4294967295
        },
        {
          "txid": "e1b3de1de2b276e51fb7b662efb7131c451c9728a22da9be538e66e801becfb7",
          "vout": 0,
          "scriptSig": {
            "asm": "3045022100f66f06cf345e190bf06dda0b46f63c0b490c6d194c545e7f4e7f7256067a877702204498e6ba7c69806cf51a3bd86e3768f3ef33610c82c732f6aa8792939b395507[ALL]",
            "hex": "483045022100f66f06cf345e190bf06dda0b46f63c0b490c6d194c545e7f4e7f7256067a877702204498e6ba7c69806cf51a3bd86e3768f3ef33610c82c732f6aa8792939b39550701"
          },
          "sequence": 4294967295
        },
        {
          "txid": "03879c45c753febae19949a033fe18d6ac998994e8fe012fc381e2558c5891cb",
          "vout": 0,
          "scriptSig": {
            "asm": "304502202eb60bb5a5780a694bf8c1eb87401f2ffc24785d3f7d8a8599dc50512c3da0bd022100809370c0947745f615b09577e9994db7d6fe9608834d85cf08d1a07920da816c[ALL]",
            "hex": "48304502202eb60bb5a5780a694bf8c1eb87401f2ffc24785d3f7d8a8599dc50512c3da0bd022100809370c0947745f615b09577e9994db7d6fe9608834d85cf08d1a07920da816c01"
          },
          "sequence": 4294967295
        },
        {
          "txid": "7cc34aa0594d8610d198d79e9a8ed026a66ed0aeb309a5d338169c632b9f03e8",
          "vout": 0,
          "scriptSig": {
            "asm": "3045022100f9b4a0ab165419032c9a6ea4f46bee3d174c58349b8cadbce1687be40515b35602207982d0f5fa6f31d3fd407a57f927ad89f8d6aef3b3837f7759efd6c5726eeb79[ALL]",
            "hex": "483045022100f9b4a0ab165419032c9a6ea4f46bee3d174c58349b8cadbce1687be40515b35602207982d0f5fa6f31d3fd407a57f927ad89f8d6aef3b3837f7759efd6c5726eeb7901"
          },
          "sequence": 4294967295
        },
        {
          "txid": "cbc5671b20107f5d48114ee7b82c88bf6765b9c5ad038a98a396850de141f5ec",
          "vout": 0,
          "scriptSig": {
            "asm": "30450220530e3e17883f1b713a7916aaf56ce3c826c4399ba538fde55b8ca2b4d04fee5f022100ec04aef75c377ed059f834fa1da2ea56be584873aa63148f67cdba48b4e8ee5e[ALL]",
            "hex": "4830450220530e3e17883f1b713a7916aaf56ce3c826c4399ba538fde55b8ca2b4d04fee5f022100ec04aef75c377ed059f834fa1da2ea56be584873aa63148f67cdba48b4e8ee5e01"
          },
          "sequence": 4294967295
        },
        {
          "txid": "a58181beead631b49c6f87569aa3a1cd516f7019eae250213461a801517625f2",
          "vout": 0,
          "scriptSig": {
            "asm": "3045022100b79ac300729beafff89642ca2887a3c12a28dc872b5a0c7bd5f2203f3df81a75022057d24b2ea3e8a10d31b0e738397ca765b93c78b11c6d57d3aa292bce58c7dd2e[ALL]",
            "hex": "483045022100b79ac300729beafff89642ca2887a3c12a28dc872b5a0c7bd5f2203f3df81a75022057d24b2ea3e8a10d31b0e738397ca765b93c78b11c6d57d3aa292bce58c7dd2e01"
          },
          "sequence": 4294967295
        }
      ],
      "vout": [
        {
          "value": 500.0,
          "n": 0,
          "scriptPubKey": {
            "asm": "OP_DUP OP_HASH160 12ab8dc588ca9d5787dde7eb29569da63c3a238c OP_EQUALVERIFY OP_CHECKSIG",
            "desc": "addr(12higDjoCCNXSA95xZMWUdPvXNmkAduhWv)#zn56zju2",
            "hex": "76a91412ab8dc588ca9d5787dde7eb29569da63c3a238c88ac",
            "address": "12higDjoCCNXSA95xZMWUdPvXNmkAduhWv",
            "type": "pubkeyhash"
          }
        }
      ],
      "fee": 0.0,
      "hex": "010000000a0ebf18b992082aed467928e1f328676f05c199a11e2b9363a16ee6c4a2ce716a0000000049483045022100c9096e525039b05002873c6b50a9f31cc401925f8ece442e3b73da9627aec89702205428da514f7511ddfc115512fdf7ab2be3024c3a22c779ce0b8ef44339c7270801ffffffff6991d41ecdec96e2ad4c1b1b84819ae8d77afd2f515849c58e3e81f88ca6b43a0000000049483045022100e770a83ecf0f8171f99e7dc207ea7b738384feed35bf13cf89d99cc1657a7bf3022004c634d45a1094eb8f76630d6dc4a30b96d65103057517de343e446a9cfd0b9401ffffffff6a0d0837acabcfc35d2739b41a64d98638230a461879aafe4bdc59149f990bd700000000494830450220668b1d6e745d511f8f9b63fafb0384df6a79d58ed3b101b17d63129026f10203022100ed5ab3f34e19b905d1ac26c5a18274cee58a8d6ea6426f039c47576f849b475501ffffffff6bcdff869c6c6b17f0604deb238d48cf8a797b4eb3bb3f66b10a28f3ccda019e0000000049483045022100a6f242ed8523125ee94768140ece304a195264d2cdcb6bb9cbc31a94a5af496b02206638e5e543ee541b4fef24e69b8fba4c854556857d5f3f48f0e06ce1564cf56101ffffffffaf261e5e33cc3c7a71dd3e010e2194efcb7bcff00e0a2fe3269212692a792783000000004a4930460221009b059769db4f8341df29899d5ac7dbc09d97f045b64358aaca7b11d3b929eabe022100ad371104c2ea35e6f8a835114e7508ff1f9938d050c70a5ce771ba8d409e1b0401ffffffffb7cfbe01e8668e53bea92da228971c451c13b7ef62b6b71fe576b2e21ddeb3e10000000049483045022100f66f06cf345e190bf06dda0b46f63c0b490c6d194c545e7f4e7f7256067a877702204498e6ba7c69806cf51a3bd86e3768f3ef33610c82c732f6aa8792939b39550701ffffffffcb91588c55e281c32f01fee8948999acd618fe33a04999e1bafe53c7459c8703000000004948304502202eb60bb5a5780a694bf8c1eb87401f2ffc24785d3f7d8a8599dc50512c3da0bd022100809370c0947745f615b09577e9994db7d6fe9608834d85cf08d1a07920da816c01ffffffffe8039f2b639c1638d3a509b3aed06ea626d08e9a9ed798d110864d59a04ac37c0000000049483045022100f9b4a0ab165419032c9a6ea4f46bee3d174c58349b8cadbce1687be40515b35602207982d0f5fa6f31d3fd407a57f927ad89f8d6aef3b3837f7759efd6c5726eeb7901ffffffffecf541e10d8596a3988a03adc5b96567bf882cb8e74e11485d7f10201b67c5cb00000000494830450220530e3e17883f1b713a7916aaf56ce3c826c4399ba538fde55b8ca2b4d04fee5f022100ec04aef75c377ed059f834fa1da2ea56be584873aa63148f67cdba48b4e8ee5e01fffffffff225765101a861342150e2ea19706f51cda1a39a56876f9cb431d6eabe8181a50000000049483045022100b79ac300729beafff89642ca2887a3c12a28dc872b5a0c7bd5f2203f3df81a75022057d24b2ea3e8a10d31b0e738397ca765b93c78b11c6d57d3aa292bce58c7dd2e01ffffffff0100743ba40b0000001976a91412ab8dc588ca9d5787dde7eb29569da63c3a238c88ac00000000"
    }
  ]
}