{
  "hash": "00000000745b41c6a19805aebdc478e72b0d7167ff9f5f4743169637c323b9f9",
  "confirmations": 45568,
  "height": 7530,
  "version": 1,
  "versionHex": "00000001",
  "merkleroot": "c98a07d9179cdc067a5e7425419cfa4a94311e6f05060fa62efe895f30676693",
  "time": 1237122315,
  "mediantime": 1237115970,
  "nonce": 1309314355,
  "bits": "1d00ffff",
  "difficulty": 1,
  "chainwork": "00000000000000000000000000000000000000000000000000001d6b1d6b1d6b",
  "nTx": 1,
  "previousblockhash": "000000004603377411e9fdc039c1f4f293e8b9c0d3c42b14b8eb95591f07cd54",
  "nextblockhash": "00000000505b5f1b5d8ee24a9359332e902207b1993cc8a4d1ed3057b65495b8",
  "strippedsize": 216,
  "size": 216,
  "weight": 864,
  "tx": [
    {
      "txid": "c98a07d9179cdc067a5e7425419cfa4a94311e6f05060fa62efe895f30676693",
      "hash": "c98a07d9179cdc067a5e7425419cfa4a94311e6f05060fa62efe895f30676693",
      "version": 1,
      "size": 135,
      "vsize": 135,
      "weight": 540,
      "locktime": 0,
      "vin": [
        {
          "coinbase": "04ffff001d029401",
          "sequence": 4294967295
        }
      ],
      "vout": [
        {
          "value": 50.0,
          "n": 0,
          "scriptPubKey": {
            "asm": "04478678612c8095b8442152759a10799e648fd2f6af61ff9c6915303d0e887ab1d924abc51614e274aa5e3e7b5b9f8f59c4894cdb256f278f762b24ce113c0c03 OP_CHECKSIG",
            "desc": "pk(04478678612c8095b8442152759a10799e648fd2f6af61ff9c6915303d0e887ab1d924abc51614e274aa5e3e7b5b9f8f59c4894cdb256f278f762b24ce113c0c03)#ymmwnvwq",
            "hex": "4104478678612c8095b8442152759a10799e648fd2f6af61ff9c6915303d0e887ab1d924abc51614e274aa5e3e7b5b9f8f59c4894cdb256f278f762b24ce113c0c03ac",
            "type": "pubkey"
          }
        }
      ],
      "hex": "01000000010000000000000000000000000000000000000000000000000000000000000000ffffffff0804ffff001d029401ffffffff0100f2052a01000000434104478678612c8095b8442152759a10799e648fd2f6af61ff9c6915303d0e887ab1d924abc51614e274aa5e3e7b5b9f8f59c4894cdb256f278f762b24ce113c0c03ac00000000"
    }
  ]
}