{
  "hash": "00000000b9738a7ee984bd3e48848e1ceb05f685dc78fe664c1f0cab5a106441",
  "confirmations": 44164,
  "height": 8934,
  "version": 1,
  "versionHex": "00000001",
  "merkleroot": "5286aaf3f51494f0e615f957585ef9b8f4c320275d24bf19da660406ecb68bf4",
  "time": 1238204368,
  "mediantime": 1238201051,
  "nonce": 159809137,
  "bits": "1d00ffff",
  "difficulty": 1,
  "chainwork": "000000000000000000000000000000000000000000000000000022e722e722e7",
  "nTx": 1,
  "previousblockhash": "00000000e7c8a4559b4adcec6a6b80f638f6450ca61642d340a26d8600bb6140",
  "nextblockhash": "0000000058793892f5c17ee6b8f0b3e19a5f21ff0088571745e424cb4a121082",
  "strippedsize": 216,
  "size": 216,
  "weight": 864,
  "tx": [
    {
      "txid": "5286aaf3f51494f0e615f957585ef9b8f4c320275d24bf19da660406ecb68bf4",
      "hash": "5286aaf3f51494f0e615f957585ef9b8f4c320275d24bf19da660406ecb68bf4",
      "version": 1,
      "size": 135,
      "vsize": 135,
      "weight": 540,
      "locktime": 0,
      "vin": [
        {
          "coinbase": "04ffff001d02a903",
          "sequence": 4294967295
        }
      ],
      "vout": [
        {
          "value": 50.0,
          "n": 0,
          "scriptPubKey": {
            "asm": "045578e9ed6cd3c50601f7b9d6d44b2e3e95ab62a154d44a7d7f573c096464dd554cadcc34b776abcf841d7840aa57daf04e22fd5f6cc07f7475e953c34768017e OP_CHECKSIG",
            "desc": "pk(045578e9ed6cd3c50601f7b9d6d44b2e3e95ab62a154d44a7d7f573c096464dd554cadcc34b776abcf841d7840aa57daf04e22fd5f6cc07f7475e953c34768017e)#6wmun4nr",
            "hex": "41045578e9ed6cd3c50601f7b9d6d44b2e3e95ab62a154d44a7d7f573c096464dd554cadcc34b776abcf841d7840aa57daf04e22fd5f6cc07f7475e953c34768017eac",
            "type": "pubkey"
          }
        }
      ],
      "hex": "01000000010000000000000000000000000000000000000000000000000000000000000000ffffffff0804ffff001d02a903ffffffff0100f2052a010000004341045578e9ed6cd3c50601f7b9d6d44b2e3e95ab62a154d44a7d7f573c096464dd554cadcc34b776abcf841d7840aa57daf04e22fd5f6cc07f7475e953c34768017eac00000000"
    }
  ]
}