{
  "hash": "000000006b2ea9945a245352c3850f9c442c61d16de84abc25a3c809efd45b0e",
  "confirmations": 47267,
  "height": 5831,
  "version": 1,
  "versionHex": "00000001",
  "merkleroot": "fea36da071ccaa748b2a6bfea5e124baf5a0413133fa2bb57df58ddce24942e8",
  "time": 1235784519,
  "mediantime": 1235779712,
  "nonce": 1826820920,
  "bits": "1d00ffff",
  "difficulty": 1,
  "chainwork": "000000000000000000000000000000000000000000000000000016c816c816c8",
  "nTx": 1,
  "previousblockhash": "00000000cdeb81c95c5e4bf2a5afd6d63cc07a2e00bf09ff93363fe2351fcac6",
  "nextblockhash": "00000000a9acee10e7ef660a31e0cb1253ca8503c803950daed0968a8f6a29d5",
  "strippedsize": 216,
  "size": 216,
  "weight": 864,
  "tx": [
    {
      "txid": "fea36da071ccaa748b2a6bfea5e124baf5a0413133fa2bb57df58ddce24942e8",
      "hash": "fea36da071ccaa748b2a6bfea5e124baf5a0413133fa2bb57df58ddce24942e8",
      "version": 1,
      "size": 135,
      "vsize": 135,
      "weight": 540,
      "locktime": 0,
      "vin": [
        {
          "coinbase": "04ffff001d026601",
          "sequence": 4294967295
        }
      ],
      "vout": [
        {
          "value": 50.0,
          "n": 0,
          "scriptPubKey": {
            "asm": "04d68b32683f55c3c8584adef2e23f7a58f9dc5e3afaf9fcce6709f845fe6faae11ce8e5526de086b33470807332f0baf8476776f0956901afd8dabc300decc097 OP_CHECKSIG",
            "desc": "pk(04d68b32683f55c3c8584adef2e23f7a58f9dc5e3afaf9fcce6709f845fe6faae11ce8e5526de086b33470807332f0baf8476776f0956901afd8dabc300decc097)#grkpc0d9",
            "hex": "4104d68b32683f55c3c8584adef2e23f7a58f9dc5e3afaf9fcce6709f845fe6faae11ce8e5526de086b33470807332f0baf8476776f0956901afd8dabc300decc097ac",
            "type": "pubkey"
          }
        }
      ],
      "hex": "01000000010000000000000000000000000000000000000000000000000000000000000000ffffffff0804ffff001d026601ffffffff0100f2052a01000000434104d68b32683f55c3c8584adef2e23f7a58f9dc5e3afaf9fcce6709f845fe6faae11ce8e5526de086b33470807332f0baf8476776f0956901afd8dabc300decc097ac00000000"
    }
  ]
}