{
  "hash": "00000000cef2a8c08e84cdc055db8a26c5f7e9d9d79dd3f6982a2752958b32b7",
  "confirmations": 43195,
  "height": 9903,
  "version": 1,
  "versionHex": "00000001",
  "merkleroot": "eeab51ef0dc39a3974cb9826142ca526c880c2f4ec73c64d81b1de4ac9f315da",
  "time": 1238925924,
  "mediantime": 1238921933,
  "nonce": 2428832033,
  "bits": "1d00ffff",
  "difficulty": 1,
  "chainwork": "000000000000000000000000000000000000000000000000000026b026b026b0",
  "nTx": 1,
  "previousblockhash": "00000000b988c07ed6236c52added52aeccd504300f8394b4bfd046a30dd47de",
  "nextblockhash": "0000000089877bc50d61556aade226a7704e3b10abec959818b302a9b2b4f3ef",
  "strippedsize": 216,
  "size": 216,
  "weight": 864,
  "tx": [
    {
      "txid": "eeab51ef0dc39a3974cb9826142ca526c880c2f4ec73c64d81b1de4ac9f315da",
      "hash": "eeab51ef0dc39a3974cb9826142ca526c880c2f4ec73c64d81b1de4ac9f315da",
      "version": 1,
      "size": 135,
      "vsize": 135,
      "weight": 540,
      "locktime": 0,
      "vin": [
        {
          "coinbase": "04ffff001d021f02",
          "sequence": 4294967295
        }
      ],
      "vout": [
        {
          "value": 50.0,
          "n": 0,
          "scriptPubKey": {
            "asm": "0427714f5f162a2fc73b097ca5482193880ea6d035e72691c776e8bf1d298982a797b2a5545957ed8ff56b10795477b4ff8baffa20d92d5e882c5e0b4f12c864c7 OP_CHECKSIG",
            "desc": "pk(0427714f5f162a2fc73b097ca5482193880ea6d035e72691c776e8bf1d298982a797b2a5545957ed8ff56b10795477b4ff8baffa20d92d5e882c5e0b4f12c864c7)#e6400uk9",
            "hex": "410427714f5f162a2fc73b097ca5482193880ea6d035e72691c776e8bf1d298982a797b2a5545957ed8ff56b10795477b4ff8baffa20d92d5e882c5e0b4f12c864c7ac",
            "type": "pubkey"
          }
        }
      ],
      "hex": "01000000010000000000000000000000000000000000000000000000000000000000000000ffffffff0804ffff001d021f02ffffffff0100f2052a0100000043410427714f5f162a2fc73b097ca5482193880ea6d035e72691c776e8bf1d298982a797b2a5545957ed8ff56b10795477b4ff8baffa20d92d5e882c5e0b4f12c864c7ac00000000"
    }
  ]
}