{
  "hash": "0000000092ebee186c3309fbc51634b7c209649634e9bae21f5f69305568f63a",
  "confirmations": 51455,
  "height": 1643,
  "version": 1,
  "versionHex": "00000001",
  "merkleroot": "93cb22ae9cfefb556f03b2d70a880015e2ac6da947994432f51df34bede3e5a0",
  "time": 1232830642,
  "mediantime": 1232827973,
  "nonce": 3436658216,
  "bits": "1d00ffff",
  "difficulty": 1,
  "chainwork": "0000000000000000000000000000000000000000000000000000066c066c066c",
  "nTx": 1,
  "previousblockhash": "000000004842fee15ce6a523cd4354de3315b90272e5f56066b93f94a3f68e28",
  "nextblockhash": "000000004312708b14e4aca8afc2441fe2ac9fdac90b08cc076bb03ecf077aab",
  "strippedsize": 216,
  "size": 216,
  "weight": 864,
  "tx": [
    {
      "txid": "93cb22ae9cfefb556f03b2d70a880015e2ac6da947994432f51df34bede3e5a0",
      "hash": "93cb22ae9cfefb556f03b2d70a880015e2ac6da947994432f51df34bede3e5a0",
      "version": 1,
      "size": 135,
      "vsize": 135,
      "weight": 540,
      "locktime": 0,
      "vin": [
        {
          "coinbase": "04ffff001d026a02",
          "sequence": 4294967295
        }
      ],
      "vout": [
        {
          "value": 50.0,
          "n": 0,
          "scriptPubKey": {
            "asm": "044f03dfde82dcb26ff3978129fe36b6a7984501788be97afdef785d216a54da8ef44910a2d506fa73769f8f8a572ba77b0eb2f0d09dc6c05c36f59fd14d11211d OP_CHECKSIG",
            "desc": "pk(044f03dfde82dcb26ff3978129fe36b6a7984501788be97afdef785d216a54da8ef44910a2d506fa73769f8f8a572ba77b0eb2f0d09dc6c05c36f59fd14d11211d)#n7sws94y",
            "hex": "41044f03dfde82dcb26ff3978129fe36b6a7984501788be97afdef785d216a54da8ef44910a2d506fa73769f8f8a572ba77b0eb2f0d09dc6c05c36f59fd14d11211dac",
            "type": "pubkey"
          }
        }
      ],
      "hex": "01000000010000000000000000000000000000000000000000000000000000000000000000ffffffff0804ffff001d026a02ffffffff0100f2052a010000004341044f03dfde82dcb26ff3978129fe36b6a7984501788be97afdef785d216a54da8ef44910a2d506fa73769f8f8a572ba77b0eb2f0d09dc6c05c36f59fd14d11211dac00000000"
    }
  ]
}