{
  "hash": "00000000afaa28d7a8633e32946906d78cfcdfeb06cbec5826c12f688aa23b9a",
  "confirmations": 44094,
  "height": 9004,
  "version": 1,
  "versionHex": "00000001",
  "merkleroot": "19f561d41336b28d725151f74b3c8462f9487c4384cf0cdeab660581d4892dd7",
  "time": 1238254717,
  "mediantime": 1238252140,
  "nonce": 3383103007,
  "bits": "1d00ffff",
  "difficulty": 1,
  "chainwork": "0000000000000000000000000000000000000000000000000000232d232d232d",
  "nTx": 1,
  "previousblockhash": "00000000544f0dab00170d46c09c6265bb74173cc53d9d1e7322d349f7022d9e",
  "nextblockhash": "0000000084c854eb834d7b51d570cf00b6c5d95c5bdd031fb9649d60be10357f",
  "strippedsize": 216,
  "size": 216,
  "weight": 864,
  "tx": [
    {
      "txid": "19f561d41336b28d725151f74b3c8462f9487c4384cf0cdeab660581d4892dd7",
      "hash": "19f561d41336b28d725151f74b3c8462f9487c4384cf0cdeab660581d4892dd7",
      "version": 1,
      "size": 135,
      "vsize": 135,
      "weight": 540,
      "locktime": 0,
      "vin": [
        {
          "coinbase": "04ffff001d026c06",
          "sequence": 4294967295
        }
      ],
      "vout": [
        {
          "value": 50.0,
          "n": 0,
          "scriptPubKey": {
            "asm": "0478a0e0934e2cabbee5e82d782c5041a871dd6eb393e7fe35a502ef4d7e7b96ad975019cfb01b43b2599b69e52ccb49043dead0cd487e6642cb646ed33241ac79 OP_CHECKSIG",
            "desc": "pk(0478a0e0934e2cabbee5e82d782c5041a871dd6eb393e7fe35a502ef4d7e7b96ad975019cfb01b43b2599b69e52ccb49043dead0cd487e6642cb646ed33241ac79)#93dgxu0p",
            "hex": "410478a0e0934e2cabbee5e82d782c5041a871dd6eb393e7fe35a502ef4d7e7b96ad975019cfb01b43b2599b69e52ccb49043dead0cd487e6642cb646ed33241ac79ac",
            "type": "pubkey"
          }
        }
      ],
      "hex": "01000000010000000000000000000000000000000000000000000000000000000000000000ffffffff0804ffff001d026c06ffffffff0100f2052a0100000043410478a0e0934e2cabbee5e82d782c5041a871dd6eb393e7fe35a502ef4d7e7b96ad975019cfb01b43b2599b69e52ccb49043dead0cd487e6642cb646ed33241ac79ac00000000"
    }
  ]
}