{
  "hash": "00000000a9da635727dce622d78361b153ce3334e6a60d4377fad529abfc7863",
  "confirmations": 48786,
  "height": 4312,
  "version": 1,
  "versionHex": "00000001",
  "merkleroot": "855b2c4dc3d599f746b1aab210d58dc72819e4b995ff9b18389b94d9fc3e73d2",
  "time": 1234650764,
  "mediantime": 1234646765,
  "nonce": 2529867063,
  "bits": "1d00ffff",
  "difficulty": 1,
  "chainwork": "000000000000000000000000000000000000000000000000000010d910d910d9",
  "nTx": 1,
  "previousblockhash": "00000000c4df9bb8a91975c195d5d407def56a0d24855bed48aaa26e221120f6",
  "nextblockhash": "0000000011ce224e34caf69d1bc72cba58033e98d33676506f8450815c35c1ae",
  "strippedsize": 215,
  "size": 215,
  "weight": 860,
  "tx": [
    {
      "txid": "855b2c4dc3d599f746b1aab210d58dc72819e4b995ff9b18389b94d9fc3e73d2",
      "hash": "855b2c4dc3d599f746b1aab210d58dc72819e4b995ff9b18389b94d9fc3e73d2",
      "version": 1,
      "size": 134,
      "vsize": 134,
      "weight": 536,
      "locktime": 0,
      "vin": [
        {
          "coinbase": "04ffff001d010b",
          "sequence": 4294967295
        }
      ],
      "vout": [
        {
          "value": 50.0,
          "n": 0,
          "scriptPubKey": {
            "asm": "0497f948535708cd8c73a003515ea92b2baf6aa582ff7b5bbc568cb8942964ecd756d81572c7245d09632802b16bbd787d18defef06dc28713262204d2e2606411 OP_CHECKSIG",
            "desc": "pk(0497f948535708cd8c73a003515ea92b2baf6aa582ff7b5bbc568cb8942964ecd756d81572c7245d09632802b16bbd787d18defef06dc28713262204d2e2606411)#taseg9z5",
            "hex": "410497f948535708cd8c73a003515ea92b2baf6aa582ff7b5bbc568cb8942964ecd756d81572c7245d09632802b16bbd787d18defef06dc28713262204d2e2606411ac",
            "type": "pubkey"
          }
        }
      ],
      "hex": "01000000010000000000000000000000000000000000000000000000000000000000000000ffffffff0704ffff001d010bffffffff0100f2052a0100000043410497f948535708cd8c73a003515ea92b2baf6aa582ff7b5bbc568cb8942964ecd756d81572c7245d09632802b16bbd787d18defef06dc28713262204d2e2606411ac00000000"
    }
  ]
}