{
  "hash": "00000000c75abddb0e530cf708779071caa59bbc036b6135f12c929c40f5015f",
  "confirmations": 50161,
  "height": 2937,
  "version": 1,
  "versionHex": "00000001",
  "merkleroot": "b6a5272b80dd2c2d68087b4b61fabaf712a5db9bbea50c8c8824c3af935c1a9d",
  "time": 1233715573,
  "mediantime": 1233712565,
  "nonce": 2900487224,
  "bits": "1d00ffff",
  "difficulty": 1,
  "chainwork": "00000000000000000000000000000000000000000000000000000b7a0b7a0b7a",
  "nTx": 1,
  "previousblockhash": "0000000024bf107e716056fa59bc1ea7d61d531504a2d487e14fbfd139c1f000",
  "nextblockhash": "0000000023a952a8335a910a5e492de0df5bf812d29db3bc3fcd2984246f6ecd",
  "strippedsize": 215,
  "size": 215,
  "weight": 860,
  "tx": [
    {
      "txid": "b6a5272b80dd2c2d68087b4b61fabaf712a5db9bbea50c8c8824c3af935c1a9d",
      "hash": "b6a5272b80dd2c2d68087b4b61fabaf712a5db9bbea50c8c8824c3af935c1a9d",
      "version": 1,
      "size": 134,
      "vsize": 134,
      "weight": 536,
      "locktime": 0,
      "vin": [
        {
          "coinbase": "04ffff001d0156",
          "sequence": 4294967295
        }
      ],
      "vout": [
        {
          "value": 50.0,
          "n": 0,
          "scriptPubKey": {
            "asm": "04a499dc9053cfc6f4459da39249dd6a6b8729fe49dddf736a91b3ee5f2fa7ad9dd6889130453241b57df460a9663a785379fc4af85a0a0d081c506f051c9509fe OP_CHECKSIG",
            "desc": "pk(04a499dc9053cfc6f4459da39249dd6a6b8729fe49dddf736a91b3ee5f2fa7ad9dd6889130453241b57df460a9663a785379fc4af85a0a0d081c506f051c9509fe)#kzcemq3m",
            "hex": "4104a499dc9053cfc6f4459da39249dd6a6b8729fe49dddf736a91b3ee5f2fa7ad9dd6889130453241b57df460a9663a785379fc4af85a0a0d081c506f051c9509feac",
            "type": "pubkey"
          }
        }
      ],
      "hex": "01000000010000000000000000000000000000000000000000000000000000000000000000ffffffff0704ffff001d0156ffffffff0100f2052a01000000434104a499dc9053cfc6f4459da39249dd6a6b8729fe49dddf736a91b3ee5f2fa7ad9dd6889130453241b57df460a9663a785379fc4af85a0a0d081c506f051c9509feac00000000"
    }
  ]
}