{
  "hash": "00000000aa397b76e9630aa70dc84d3035e08dacb07deeacb46b7810b58072e3",
  "confirmations": 43967,
  "height": 9131,
  "version": 1,
  "versionHex": "00000001",
  "merkleroot": "69294a15c99d7f936cc3762c9778e7de1e24f925d7025c32c0062af17e303e3d",
  "time": 1238352947,
  "mediantime": 1238347397,
  "nonce": 49150342,
  "bits": "1d00ffff",
  "difficulty": 1,
  "chainwork": "000000000000000000000000000000000000000000000000000023ac23ac23ac",
  "nTx": 1,
  "previousblockhash": "00000000bbda61bd7c954f674ccdc6fad7315cfc4ec8982902f5505745a1c2ba",
  "nextblockhash": "000000006f67edbc36f5104d05fc0db8f2bde9a804d7a9e814afa561a658b7af",
  "strippedsize": 216,
  "size": 216,
  "weight": 864,
  "tx": [
    {
      "txid": "69294a15c99d7f936cc3762c9778e7de1e24f925d7025c32c0062af17e303e3d",
      "hash": "69294a15c99d7f936cc3762c9778e7de1e24f925d7025c32c0062af17e303e3d",
      "version": 1,
      "size": 135,
      "vsize": 135,
      "weight": 540,
      "locktime": 0,
      "vin": [
        {
          "coinbase": "04ffff001d025304",
          "sequence": 4294967295
        }
      ],
      "vout": [
        {
          "value": 50.0,
          "n": 0,
          "scriptPubKey": {
            "asm": "04a5e3ab357a8ee36c914eacf8793a939dfd2c1faa562f834b60a9fb126a6eb016cc96d511c52daf0181cd85830a4f4d6ca181041fdadabe818da9e82776cec85f OP_CHECKSIG",
            "desc": "pk(04a5e3ab357a8ee36c914eacf8793a939dfd2c1faa562f834b60a9fb126a6eb016cc96d511c52daf0181cd85830a4f4d6ca181041fdadabe818da9e82776cec85f)#v36xd7s7",
            "hex": "4104a5e3ab357a8ee36c914eacf8793a939dfd2c1faa562f834b60a9fb126a6eb016cc96d511c52daf0181cd85830a4f4d6ca181041fdadabe818da9e82776cec85fac",
            "type": "pubkey"
          }
        }
      ],
      "hex": "01000000010000000000000000000000000000000000000000000000000000000000000000ffffffff0804ffff001d025304ffffffff0100f2052a01000000434104a5e3ab357a8ee36c914eacf8793a939dfd2c1faa562f834b60a9fb126a6eb016cc96d511c52daf0181cd85830a4f4d6ca181041fdadabe818da9e82776cec85fac00000000"
    }
  ]
}