{
  "hash": "00000000483926d6830a47c25bb16f0b1c33739dd708306c7abba3f2b9906bad",
  "confirmations": 44493,
  "height": 8605,
  "version": 1,
  "versionHex": "00000001",
  "merkleroot": "58e77950afd5701d7ecc85313e1788b3a8b759777eb447649bdbd506b8bbbfae",
  "time": 1237953356,
  "mediantime": 1237950437,
  "nonce": 1173295922,
  "bits": "1d00ffff",
  "difficulty": 1,
  "chainwork": "0000000000000000000000000000000000000000000000000000219e219e219e",
  "nTx": 1,
  "previousblockhash": "00000000bf18ebdf567923d3ff3575c676de07ca7715e10f3504b0f59f0335f3",
  "nextblockhash": "00000000e94d9bf5d7a758b2ebf9857a31864cd6948f772e94299ef9f65c7e63",
  "strippedsize": 216,
  "size": 216,
  "weight": 864,
  "tx": [
    {
      "txid": "58e77950afd5701d7ecc85313e1788b3a8b759777eb447649bdbd506b8bbbfae",
      "hash": "58e77950afd5701d7ecc85313e1788b3a8b759777eb447649bdbd506b8bbbfae",
      "version": 1,
      "size": 135,
      "vsize": 135,
      "weight": 540,
      "locktime": 0,
      "vin": [
        {
          "coinbase": "04ffff001d028909",
          "sequence": 4294967295
        }
      ],
      "vout": [
        {
          "value": 50.0,
          "n": 0,
          "scriptPubKey": {
            "asm": "04445735056d975037c0bdbfd9d0d87227be354affe22738e2dc9e716fea9ed3093cfe74d9fcb7a65050bd217a6b021a52d38f19364b05e605a77ce1908f1ed177 OP_CHECKSIG",
            "desc": "pk(04445735056d975037c0bdbfd9d0d87227be354affe22738e2dc9e716fea9ed3093cfe74d9fcb7a65050bd217a6b021a52d38f19364b05e605a77ce1908f1ed177)#wpaqya5s",
            "hex": "4104445735056d975037c0bdbfd9d0d87227be354affe22738e2dc9e716fea9ed3093cfe74d9fcb7a65050bd217a6b021a52d38f19364b05e605a77ce1908f1ed177ac",
            "type": "pubkey"
          }
        }
      ],
      "hex": "01000000010000000000000000000000000000000000000000000000000000000000000000ffffffff0804ffff001d028909ffffffff0100f2052a01000000434104445735056d975037c0bdbfd9d0d87227be354affe22738e2dc9e716fea9ed3093cfe74d9fcb7a65050bd217a6b021a52d38f19364b05e605a77ce1908f1ed177ac00000000"
    }
  ]
}