{
  "hash": "00000000cf6ec26ec732d8568cb70877b4799c7e89ebd540fd1661283bd74d28",
  "confirmations": 50288,
  "height": 2810,
  "version": 1,
  "versionHex": "00000001",
  "merkleroot": "a4728e81a890482f088e9d57fd2d0f9343fe7d72611c0e50d32f202852853a99",
  "time": 1233634893,
  "mediantime": 1233631701,
  "nonce": 4133316381,
  "bits": "1d00ffff",
  "difficulty": 1,
  "chainwork": "00000000000000000000000000000000000000000000000000000afb0afb0afb",
  "nTx": 1,
  "previousblockhash": "000000001acc86035f99faf5593a151d08ff13612f1be657a5e99f4047e5c64f",
  "nextblockhash": "0000000021fe55f1272f05be953c251477b579de7228b8289bf3871c44e3c4a4",
  "strippedsize": 216,
  "size": 216,
  "weight": 864,
  "tx": [
    {
      "txid": "a4728e81a890482f088e9d57fd2d0f9343fe7d72611c0e50d32f202852853a99",
      "hash": "a4728e81a890482f088e9d57fd2d0f9343fe7d72611c0e50d32f202852853a99",
      "version": 1,
      "size": 135,
      "vsize": 135,
      "weight": 540,
      "locktime": 0,
      "vin": [
        {
          "coinbase": "04ffff001d023906",
          "sequence": 4294967295
        }
      ],
      "vout": [
        {
          "value": 50.0,
          "n": 0,
          "scriptPubKey": {
            "asm": "0457b01038df72202cea56ee3edb1b90d98178d8e6217ac2bb63f875ffc3dc2d4f5597f7a905dca5835b17e9f40a458978668460eb19d9c7f5d0ba2a2c9ef9a623 OP_CHECKSIG",
            "desc": "pk(0457b01038df72202cea56ee3edb1b90d98178d8e6217ac2bb63f875ffc3dc2d4f5597f7a905dca5835b17e9f40a458978668460eb19d9c7f5d0ba2a2c9ef9a623)#e0pg37yk",
            "hex": "410457b01038df72202cea56ee3edb1b90d98178d8e6217ac2bb63f875ffc3dc2d4f5597f7a905dca5835b17e9f40a458978668460eb19d9c7f5d0ba2a2c9ef9a623ac",
            "type": "pubkey"
          }
        }
      ],
      "hex": "01000000010000000000000000000000000000000000000000000000000000000000000000ffffffff0804ffff001d023906ffffffff0100f2052a0100000043410457b01038df72202cea56ee3edb1b90d98178d8e6217ac2bb63f875ffc3dc2d4f5597f7a905dca5835b17e9f40a458978668460eb19d9c7f5d0ba2a2c9ef9a623ac00000000"
    }
  ]
}