{
  "hash": "000000001077ff57326a9db6c542341dbee72b00a2db5c139e1cca67b587fe0c",
  "confirmations": 45589,
  "height": 7509,
  "version": 1,
  "versionHex": "00000001",
  "merkleroot": "8e7d43b31071201b433b932b36c36724d62c66d5a499e04ef7cfe5df4ffb32aa",
  "time": 1237102817,
  "mediantime": 1237099997,
  "nonce": 2343263522,
  "bits": "1d00ffff",
  "difficulty": 1,
  "chainwork": "00000000000000000000000000000000000000000000000000001d561d561d56",
  "nTx": 1,
  "previousblockhash": "0000000013b3939396548fff0d8d0db387eab5a521450fd9005f5f3649f2b1f3",
  "nextblockhash": "00000000d27dab0df2df4a7bece294ec9bb2b0ee5e76b42df695b8509c42f7e7",
  "strippedsize": 216,
  "size": 216,
  "weight": 864,
  "tx": [
    {
      "txid": "8e7d43b31071201b433b932b36c36724d62c66d5a499e04ef7cfe5df4ffb32aa",
      "hash": "8e7d43b31071201b433b932b36c36724d62c66d5a499e04ef7cfe5df4ffb32aa",
      "version": 1,
      "size": 135,
      "vsize": 135,
      "weight": 540,
      "locktime": 0,
      "vin": [
        {
          "coinbase": "04ffff001d021901",
          "sequence": 4294967295
        }
      ],
      "vout": [
        {
          "value": 50.0,
          "n": 0,
          "scriptPubKey": {
            "asm": "04b58c1afe81988bc051cb36b407106429c7bcdd1f9ccaa843e513ef2b26f0f4ef6496171c89ad453c906ddee6a8aa936bbefcf683f1ae7116f9ca0cab34b9aaa0 OP_CHECKSIG",
            "desc": "pk(04b58c1afe81988bc051cb36b407106429c7bcdd1f9ccaa843e513ef2b26f0f4ef6496171c89ad453c906ddee6a8aa936bbefcf683f1ae7116f9ca0cab34b9aaa0)#zpel27zp",
            "hex": "4104b58c1afe81988bc051cb36b407106429c7bcdd1f9ccaa843e513ef2b26f0f4ef6496171c89ad453c906ddee6a8aa936bbefcf683f1ae7116f9ca0cab34b9aaa0ac",
            "type": "pubkey"
          }
        }
      ],
      "hex": "01000000010000000000000000000000000000000000000000000000000000000000000000ffffffff0804ffff001d021901ffffffff0100f2052a01000000434104b58c1afe81988bc051cb36b407106429c7bcdd1f9ccaa843e513ef2b26f0f4ef6496171c89ad453c906ddee6a8aa936bbefcf683f1ae7116f9ca0cab34b9aaa0ac00000000"
    }
  ]
}