{
  "hash": "0000000045aa7ab90c20cf83d0206c6acdd431b52926962ffd46930ed7a04f5c",
  "confirmations": 52476,
  "height": 622,
  "version": 1,
  "versionHex": "00000001",
  "merkleroot": "083a5b93aa0dae570903ffb67451440c6efc9effd076ca9d7ec61499a7225b01",
  "time": 1232051001,
  "mediantime": 1232047418,
  "nonce": 1890255108,
  "bits": "1d00ffff",
  "difficulty": 1,
  "chainwork": "0000000000000000000000000000000000000000000000000000026f026f026f",
  "nTx": 1,
  "previousblockhash": "00000000ee4c3bfaae7ced8917c27b277b279e681f13bed9005c74e4557b27e5",
  "nextblockhash": "000000003584db918b8667b768953ddff4489d491287aee518a91822e3660db4",
  "strippedsize": 216,
  "size": 216,
  "weight": 864,
  "tx": [
    {
      "txid": "083a5b93aa0dae570903ffb67451440c6efc9effd076ca9d7ec61499a7225b01",
      "hash": "083a5b93aa0dae570903ffb67451440c6efc9effd076ca9d7ec61499a7225b01",
      "version": 1,
      "size": 135,
      "vsize": 135,
      "weight": 540,
      "locktime": 0,
      "vin": [
        {
          "coinbase": "04ffff001d020007",
          "sequence": 4294967295
        }
      ],
      "vout": [
        {
          "value": 50.0,
          "n": 0,
          "scriptPubKey": {
            "asm": "043358c5ee940214ad48e22f1656d3c07959f225c65e38ad8bc9d46829d8f3760941c48f4c263fd4802a98dd5fde1f2cb66b78f13ad98009e9a4cfc139cb058d50 OP_CHECKSIG",
            "desc": "pk(043358c5ee940214ad48e22f1656d3c07959f225c65e38ad8bc9d46829d8f3760941c48f4c263fd4802a98dd5fde1f2cb66b78f13ad98009e9a4cfc139cb058d50)#krktzemd",
            "hex": "41043358c5ee940214ad48e22f1656d3c07959f225c65e38ad8bc9d46829d8f3760941c48f4c263fd4802a98dd5fde1f2cb66b78f13ad98009e9a4cfc139cb058d50ac",
            "type": "pubkey"
          }
        }
      ],
      "hex": "01000000010000000000000000000000000000000000000000000000000000000000000000ffffffff0804ffff001d020007ffffffff0100f2052a010000004341043358c5ee940214ad48e22f1656d3c07959f225c65e38ad8bc9d46829d8f3760941c48f4c263fd4802a98dd5fde1f2cb66b78f13ad98009e9a4cfc139cb058d50ac00000000"
    }
  ]
}