{
  "hash": "00000000f10051ec4605c41b0ce790793b794d490aadf9c9a5a2c09f717737b5",
  "confirmations": 52068,
  "height": 1030,
  "version": 1,
  "versionHex": "00000001",
  "merkleroot": "1e4d2cf7e8574a0e7b87ee7ea5e192e5341f0a6f8d0294603a6fb5077cd36824",
  "time": 1232370113,
  "mediantime": 1232367968,
  "nonce": 3366460677,
  "bits": "1d00ffff",
  "difficulty": 1,
  "chainwork": "0000000000000000000000000000000000000000000000000000040704070407",
  "nTx": 1,
  "previousblockhash": "0000000042c15539de289697b27c7ee35089d7187896d2ab2d66e8fadc61e3a3",
  "nextblockhash": "000000006e8d376834398b7963042cf2d8764860457573c1bb54fc8723a35a6d",
  "strippedsize": 216,
  "size": 216,
  "weight": 864,
  "tx": [
    {
      "txid": "1e4d2cf7e8574a0e7b87ee7ea5e192e5341f0a6f8d0294603a6fb5077cd36824",
      "hash": "1e4d2cf7e8574a0e7b87ee7ea5e192e5341f0a6f8d0294603a6fb5077cd36824",
      "version": 1,
      "size": 135,
      "vsize": 135,
      "weight": 540,
      "locktime": 0,
      "vin": [
        {
          "coinbase": "04ffff001d02a505",
          "sequence": 4294967295
        }
      ],
      "vout": [
        {
          "value": 50.0,
          "n": 0,
          "scriptPubKey": {
            "asm": "043ccef63a65945d4bc9acf0f36789fcec61452e4cf149d13973f07a5548867eb055fc58aee6bb581ba88d7def01a116ad7f389f68585c4966f57099f76a4074d8 OP_CHECKSIG",
            "desc": "pk(043ccef63a65945d4bc9acf0f36789fcec61452e4cf149d13973f07a5548867eb055fc58aee6bb581ba88d7def01a116ad7f389f68585c4966f57099f76a4074d8)#ngq9v3rw",
            "hex": "41043ccef63a65945d4bc9acf0f36789fcec61452e4cf149d13973f07a5548867eb055fc58aee6bb581ba88d7def01a116ad7f389f68585c4966f57099f76a4074d8ac",
            "type": "pubkey"
          }
        }
      ],
      "hex": "01000000010000000000000000000000000000000000000000000000000000000000000000ffffffff0804ffff001d02a505ffffffff0100f2052a010000004341043ccef63a65945d4bc9acf0f36789fcec61452e4cf149d13973f07a5548867eb055fc58aee6bb581ba88d7def01a116ad7f389f68585c4966f57099f76a4074d8ac00000000"
    }
  ]
}