{
  "hash": "00000000ee59cb43445c8e4533582ef5a1b69be6a23eb496efc1cc6767b994f7",
  "confirmations": 52027,
  "height": 310,
  "version": 1,
  "versionHex": "00000001",
  "merkleroot": "c6b6f786bbef7a4b76811360368ed009e33dff898fd0a174a2253d60494bb109",
  "time": 1231840002,
  "mediantime": 1231836755,
  "nonce": 3571970348,
  "bits": "1d00ffff",
  "difficulty": 1,
  "chainwork": "0000000000000000000000000000000000000000000000000000013701370137",
  "nTx": 1,
  "previousblockhash": "00000000d3ec2f50772c2d42d4afb054c283555766a0ca1d8da65b9b5058a49e",
  "nextblockhash": "000000006dafd39a923d401a734f4654489b8194459aac53ab52493776f7d031",
  "strippedsize": 216,
  "size": 216,
  "weight": 864,
  "tx": [
    {
      "txid": "c6b6f786bbef7a4b76811360368ed009e33dff898fd0a174a2253d60494bb109",
      "hash": "c6b6f786bbef7a4b76811360368ed009e33dff898fd0a174a2253d60494bb109",
      "version": 1,
      "size": 135,
      "vsize": 135,
      "weight": 540,
      "locktime": 0,
      "vin": [
        {
          "coinbase": "04ffff001d02a800",
          "sequence": 4294967295
        }
      ],
      "vout": [
        {
          "value": 50.0,
          "n": 0,
          "scriptPubKey": {
            "asm": "042a09a236b21fa43778ac1b429f5be1895129e4fbe769105db3aa582df57f751c97b7094e75762ee3712c4abd215a294afbdabe4af8e73df62bfe6dd0e2609afb OP_CHECKSIG",
            "desc": "pk(042a09a236b21fa43778ac1b429f5be1895129e4fbe769105db3aa582df57f751c97b7094e75762ee3712c4abd215a294afbdabe4af8e73df62bfe6dd0e2609afb)#3s80wp35",
            "hex": "41042a09a236b21fa43778ac1b429f5be1895129e4fbe769105db3aa582df57f751c97b7094e75762ee3712c4abd215a294afbdabe4af8e73df62bfe6dd0e2609afbac",
            "type": "pubkey"
          }
        }
      ],
      "hex": "01000000010000000000000000000000000000000000000000000000000000000000000000ffffffff0804ffff001d02a800ffffffff0100f2052a010000004341042a09a236b21fa43778ac1b429f5be1895129e4fbe769105db3aa582df57f751c97b7094e75762ee3712c4abd215a294afbdabe4af8e73df62bfe6dd0e2609afbac00000000"
    }
  ]
}