{
  "hash": "0000000066cd621d6aa86ea4b5b12113ca53ebf73906a63e0fba0dcf14b94f31",
  "confirmations": 47867,
  "height": 5231,
  "version": 1,
  "versionHex": "00000001",
  "merkleroot": "3120720885ee5c252d366ece4fe5bddecb57a9306d7d6004208acbe5cee4d7e1",
  "time": 1235310527,
  "mediantime": 1235306676,
  "nonce": 526448663,
  "bits": "1d00ffff",
  "difficulty": 1,
  "chainwork": "0000000000000000000000000000000000000000000000000000147014701470",
  "nTx": 1,
  "previousblockhash": "00000000b532e7eb8df7df568a936746a2a703cbe5833eb51681fbdf18e07835",
  "nextblockhash": "000000003d7f565bb3875bc5a3469891543bfed8d6d05e770bf63ea2e7ac8f1d",
  "strippedsize": 216,
  "size": 216,
  "weight": 864,
  "tx": [
    {
      "txid": "3120720885ee5c252d366ece4fe5bddecb57a9306d7d6004208acbe5cee4d7e1",
      "hash": "3120720885ee5c252d366ece4fe5bddecb57a9306d7d6004208acbe5cee4d7e1",
      "version": 1,
      "size": 135,
      "vsize": 135,
      "weight": 540,
      "locktime": 0,
      "vin": [
        {
          "coinbase": "04ffff001d02f800",
          "sequence": 4294967295
        }
      ],
      "vout": [
        {
          "value": 50.0,
          "n": 0,
          "scriptPubKey": {
            "asm": "04d7cf7506f68440d0a8ab8613797b982e323f5aa6b0ecef8afc12e10e99bc8af11b6eadd4b7bd98a19d685811a576f193f432f512b7309399967cd104385a5d9b OP_CHECKSIG",
            "desc": "pk(04d7cf7506f68440d0a8ab8613797b982e323f5aa6b0ecef8afc12e10e99bc8af11b6eadd4b7bd98a19d685811a576f193f432f512b7309399967cd104385a5d9b)#tx7nx5uy",
            "hex": "4104d7cf7506f68440d0a8ab8613797b982e323f5aa6b0ecef8afc12e10e99bc8af11b6eadd4b7bd98a19d685811a576f193f432f512b7309399967cd104385a5d9bac",
            "type": "pubkey"
          }
        }
      ],
      "hex": "01000000010000000000000000000000000000000000000000000000000000000000000000ffffffff0804ffff001d02f800ffffffff0100f2052a01000000434104d7cf7506f68440d0a8ab8613797b982e323f5aa6b0ecef8afc12e10e99bc8af11b6eadd4b7bd98a19d685811a576f193f432f512b7309399967cd104385a5d9bac00000000"
    }
  ]
}