{
  "hash": "000000000582a00b84ae25641340e3511ce6945807dc98fbb281c4417418fd4a",
  "confirmations": 47808,
  "height": 5290,
  "version": 1,
  "versionHex": "00000001",
  "merkleroot": "7edf7569167f198262828fc55d5bcb8d34c7d0a2ed7cf6ebf328708501a6fa26",
  "time": 1235352724,
  "mediantime": 1235348562,
  "nonce": 2337249792,
  "bits": "1d00ffff",
  "difficulty": 1,
  "chainwork": "000000000000000000000000000000000000000000000000000014ab14ab14ab",
  "nTx": 1,
  "previousblockhash": "0000000020bebe565f9bde8453ce1394de77844a370a3bb9f81e91fa7237ce7b",
  "nextblockhash": "00000000442772a606f286ca57d5786f64b3bf1f600d47c413023aca7f1d20ac",
  "strippedsize": 216,
  "size": 216,
  "weight": 864,
  "tx": [
    {
      "txid": "7edf7569167f198262828fc55d5bcb8d34c7d0a2ed7cf6ebf328708501a6fa26",
      "hash": "7edf7569167f198262828fc55d5bcb8d34c7d0a2ed7cf6ebf328708501a6fa26",
      "version": 1,
      "size": 135,
      "vsize": 135,
      "weight": 540,
      "locktime": 0,
      "vin": [
        {
          "coinbase": "04ffff001d02e501",
          "sequence": 4294967295
        }
      ],
      "vout": [
        {
          "value": 50.0,
          "n": 0,
          "scriptPubKey": {
            "asm": "044a3454762e46c11228ceba1be1e393615f7d6e016cfc786ae61b13fe1e5d46f4a8e97a4b8d26e2b81a0d829b7d2968d461ce6fac4b93b9bcb736083df0c95843 OP_CHECKSIG",
            "desc": "pk(044a3454762e46c11228ceba1be1e393615f7d6e016cfc786ae61b13fe1e5d46f4a8e97a4b8d26e2b81a0d829b7d2968d461ce6fac4b93b9bcb736083df0c95843)#ehzfjyar",
            "hex": "41044a3454762e46c11228ceba1be1e393615f7d6e016cfc786ae61b13fe1e5d46f4a8e97a4b8d26e2b81a0d829b7d2968d461ce6fac4b93b9bcb736083df0c95843ac",
            "type": "pubkey"
          }
        }
      ],
      "hex": "01000000010000000000000000000000000000000000000000000000000000000000000000ffffffff0804ffff001d02e501ffffffff0100f2052a010000004341044a3454762e46c11228ceba1be1e393615f7d6e016cfc786ae61b13fe1e5d46f4a8e97a4b8d26e2b81a0d829b7d2968d461ce6fac4b93b9bcb736083df0c95843ac00000000"
    }
  ]
}