{
  "hash": "0000000014cada73a7c2576a7a394c885b2f9f2d2a2b86bccfb431141d1f32cc",
  "confirmations": 46079,
  "height": 7019,
  "version": 1,
  "versionHex": "00000001",
  "merkleroot": "922d165b5e2309151eae6b276e4cef1c98c87d6b67606f3cd3f8ae464e19405d",
  "time": 1236733177,
  "mediantime": 1236729628,
  "nonce": 674267953,
  "bits": "1d00ffff",
  "difficulty": 1,
  "chainwork": "00000000000000000000000000000000000000000000000000001b6c1b6c1b6c",
  "nTx": 1,
  "previousblockhash": "000000001a878278a10b68554eedb02f49aa249c75453f2f339c417365fdc8b9",
  "nextblockhash": "00000000c967ebc6c9350840f9ade3c62a36980dc45e643338e578a97ae6a1c5",
  "strippedsize": 216,
  "size": 216,
  "weight": 864,
  "tx": [
    {
      "txid": "922d165b5e2309151eae6b276e4cef1c98c87d6b67606f3cd3f8ae464e19405d",
      "hash": "922d165b5e2309151eae6b276e4cef1c98c87d6b67606f3cd3f8ae464e19405d",
      "version": 1,
      "size": 135,
      "vsize": 135,
      "weight": 540,
      "locktime": 0,
      "vin": [
        {
          "coinbase": "04ffff001d02c102",
          "sequence": 4294967295
        }
      ],
      "vout": [
        {
          "value": 50.0,
          "n": 0,
          "scriptPubKey": {
            "asm": "04fab8a0a3f52d7e2bbdf70efea2321d392656aed3d4cb3712bab1eaac8d3413d39b82a3b2982432494168c9b6c1ec5b3d64da30afbbc27a352bea5c8b8dcdebff OP_CHECKSIG",
            "desc": "pk(04fab8a0a3f52d7e2bbdf70efea2321d392656aed3d4cb3712bab1eaac8d3413d39b82a3b2982432494168c9b6c1ec5b3d64da30afbbc27a352bea5c8b8dcdebff)#vtz7we6v",
            "hex": "4104fab8a0a3f52d7e2bbdf70efea2321d392656aed3d4cb3712bab1eaac8d3413d39b82a3b2982432494168c9b6c1ec5b3d64da30afbbc27a352bea5c8b8dcdebffac",
            "type": "pubkey"
          }
        }
      ],
      "hex": "01000000010000000000000000000000000000000000000000000000000000000000000000ffffffff0804ffff001d02c102ffffffff0100f2052a01000000434104fab8a0a3f52d7e2bbdf70efea2321d392656aed3d4cb3712bab1eaac8d3413d39b82a3b2982432494168c9b6c1ec5b3d64da30afbbc27a352bea5c8b8dcdebffac00000000"
    }
  ]
}