{
  "hash": "00000000b4917905c6183a5f94eec3413800842757bd48c773e14165883bfcbf",
  "confirmations": 51066,
  "height": 2032,
  "version": 1,
  "versionHex": "00000001",
  "merkleroot": "19f57561f6f8784d3c59cb6444a546f22511d5422de9093983759b3f331c9fb4",
  "time": 1233077647,
  "mediantime": 1233073401,
  "nonce": 1110203432,
  "bits": "1d00ffff",
  "difficulty": 1,
  "chainwork": "000000000000000000000000000000000000000000000000000007f107f107f1",
  "nTx": 1,
  "previousblockhash": "00000000b1c8b944d9d8a4d6165abfc98fbce1e894070e1dacfb4bfcad9b17d0",
  "nextblockhash": "0000000079c4800a1f1a60d6a2e39dd37641b9f00e11edc0a30e4ddd3b95f14d",
  "strippedsize": 216,
  "size": 216,
  "weight": 864,
  "tx": [
    {
      "txid": "19f57561f6f8784d3c59cb6444a546f22511d5422de9093983759b3f331c9fb4",
      "hash": "19f57561f6f8784d3c59cb6444a546f22511d5422de9093983759b3f331c9fb4",
      "version": 1,
      "size": 135,
      "vsize": 135,
      "weight": 540,
      "locktime": 0,
      "vin": [
        {
          "coinbase": "04ffff001d026d02",
          "sequence": 4294967295
        }
      ],
      "vout": [
        {
          "value": 50.0,
          "n": 0,
          "scriptPubKey": {
            "asm": "0493380642ef8264fcd3acbd476f95f2939fc016df4a955b7101eac57c85668ef088b07af2361cdd6dfce805fc760a39ec90216b27fa7956864e0714f693372b42 OP_CHECKSIG",
            "desc": "pk(0493380642ef8264fcd3acbd476f95f2939fc016df4a955b7101eac57c85668ef088b07af2361cdd6dfce805fc760a39ec90216b27fa7956864e0714f693372b42)#8fgavn84",
            "hex": "410493380642ef8264fcd3acbd476f95f2939fc016df4a955b7101eac57c85668ef088b07af2361cdd6dfce805fc760a39ec90216b27fa7956864e0714f693372b42ac",
            "type": "pubkey"
          }
        }
      ],
      "hex": "01000000010000000000000000000000000000000000000000000000000000000000000000ffffffff0804ffff001d026d02ffffffff0100f2052a0100000043410493380642ef8264fcd3acbd476f95f2939fc016df4a955b7101eac57c85668ef088b07af2361cdd6dfce805fc760a39ec90216b27fa7956864e0714f693372b42ac00000000"
    }
  ]
}