{
  "hash": "00000000221479d3c5d717c545f388cc3ee08abc7fac0bffffbdf3c049cb244d",
  "confirmations": 50041,
  "height": 3057,
  "version": 1,
  "versionHex": "00000001",
  "merkleroot": "ee7b933d21e365e20c7c40a8822f7798f81b05f46f0739862e0116507439dfe9",
  "time": 1233800425,
  "mediantime": 1233797956,
  "nonce": 8895478,
  "bits": "1d00ffff",
  "difficulty": 1,
  "chainwork": "00000000000000000000000000000000000000000000000000000bf20bf20bf2",
  "nTx": 1,
  "previousblockhash": "000000003225a6ebe93e25a8365f2b14baf53ae369f34ddbe9d97f8b1130f616",
  "nextblockhash": "00000000d66913b56d595be5c5ae3cdd280713992f875c5ba9cb72a9e92a420f",
  "strippedsize": 215,
  "size": 215,
  "weight": 860,
  "tx": [
    {
      "txid": "ee7b933d21e365e20c7c40a8822f7798f81b05f46f0739862e0116507439dfe9",
      "hash": "ee7b933d21e365e20c7c40a8822f7798f81b05f46f0739862e0116507439dfe9",
      "version": 1,
      "size": 134,
      "vsize": 134,
      "weight": 536,
      "locktime": 0,
      "vin": [
        {
          "coinbase": "04ffff001d0113",
          "sequence": 4294967295
        }
      ],
      "vout": [
        {
          "value": 50.0,
          "n": 0,
          "scriptPubKey": {
            "asm": "046dfc8f0cebff505153248a13436989820226a3c9a905a1f457b85a458228ed147fd14af26e54c1aa1880b459815f201a2c8101ba6d4f5808dc14135596247ff8 OP_CHECKSIG",
            "desc": "pk(046dfc8f0cebff505153248a13436989820226a3c9a905a1f457b85a458228ed147fd14af26e54c1aa1880b459815f201a2c8101ba6d4f5808dc14135596247ff8)#k6l7kj8x",
            "hex": "41046dfc8f0cebff505153248a13436989820226a3c9a905a1f457b85a458228ed147fd14af26e54c1aa1880b459815f201a2c8101ba6d4f5808dc14135596247ff8ac",
            "type": "pubkey"
          }
        }
      ],
      "hex": "01000000010000000000000000000000000000000000000000000000000000000000000000ffffffff0704ffff001d0113ffffffff0100f2052a010000004341046dfc8f0cebff505153248a13436989820226a3c9a905a1f457b85a458228ed147fd14af26e54c1aa1880b459815f201a2c8101ba6d4f5808dc14135596247ff8ac00000000"
    }
  ]
}