{
  "hash": "0000000037cf5a77ed3dd54ff1df8c0a8e4c041b644809debbffe04cdaabf74f",
  "confirmations": 46630,
  "height": 6468,
  "version": 1,
  "versionHex": "00000001",
  "merkleroot": "5fdde560b431e53ec7993ce800d37c31c89d1746c2d0fe08a5638ea093a11e43",
  "time": 1236305759,
  "mediantime": 1236301906,
  "nonce": 4001826845,
  "bits": "1d00ffff",
  "difficulty": 1,
  "chainwork": "0000000000000000000000000000000000000000000000000000194519451945",
  "nTx": 1,
  "previousblockhash": "000000004d80d182f8f764246bf1f575da852557b659b42777edc0d719fb490a",
  "nextblockhash": "00000000923fedf5838df2d0813d7b3131e3261ba0c5194c123ef1b6eebbaa20",
  "strippedsize": 216,
  "size": 216,
  "weight": 864,
  "tx": [
    {
      "txid": "5fdde560b431e53ec7993ce800d37c31c89d1746c2d0fe08a5638ea093a11e43",
      "hash": "5fdde560b431e53ec7993ce800d37c31c89d1746c2d0fe08a5638ea093a11e43",
      "version": 1,
      "size": 135,
      "vsize": 135,
      "weight": 540,
      "locktime": 0,
      "vin": [
        {
          "coinbase": "04ffff001d02d102",
          "sequence": 4294967295
        }
      ],
      "vout": [
        {
          "value": 50.0,
          "n": 0,
          "scriptPubKey": {
            "asm": "0457956ee3f129d44318dd9806941be0f1276ee215f4de9c4bd59c2acd4341015c30dccbb08f59128610f2e94b993da9f127263e013335b4958250bf60e6369f0d OP_CHECKSIG",
            "desc": "pk(0457956ee3f129d44318dd9806941be0f1276ee215f4de9c4bd59c2acd4341015c30dccbb08f59128610f2e94b993da9f127263e013335b4958250bf60e6369f0d)#plj0eerv",
            "hex": "410457956ee3f129d44318dd9806941be0f1276ee215f4de9c4bd59c2acd4341015c30dccbb08f59128610f2e94b993da9f127263e013335b4958250bf60e6369f0dac",
            "type": "pubkey"
          }
        }
      ],
      "hex": "01000000010000000000000000000000000000000000000000000000000000000000000000ffffffff0804ffff001d02d102ffffffff0100f2052a0100000043410457956ee3f129d44318dd9806941be0f1276ee215f4de9c4bd59c2acd4341015c30dccbb08f59128610f2e94b993da9f127263e013335b4958250bf60e6369f0dac00000000"
    }
  ]
}