{
  "hash": "000000004f0f3c567b7cd9ac0375e57207f1741a7e43e70b5ad36a4a162b6107",
  "confirmations": 43506,
  "height": 9592,
  "version": 1,
  "versionHex": "00000001",
  "merkleroot": "6fb31af85314867843dfe2dba194f1982463f23010770393a9d656dcb355b7c3",
  "time": 1238694723,
  "mediantime": 1238690515,
  "nonce": 1870093864,
  "bits": "1d00ffff",
  "difficulty": 1,
  "chainwork": "0000000000000000000000000000000000000000000000000000257925792579",
  "nTx": 1,
  "previousblockhash": "00000000ce3d29921074f8f2f42fc689b985086aaed696adc8420056862b050d",
  "nextblockhash": "00000000283ae40e5825e8f74ceab6ab1c97b9cc3a468892f53780503c0fe594",
  "strippedsize": 216,
  "size": 216,
  "weight": 864,
  "tx": [
    {
      "txid": "6fb31af85314867843dfe2dba194f1982463f23010770393a9d656dcb355b7c3",
      "hash": "6fb31af85314867843dfe2dba194f1982463f23010770393a9d656dcb355b7c3",
      "version": 1,
      "size": 135,
      "vsize": 135,
      "weight": 540,
      "locktime": 0,
      "vin": [
        {
          "coinbase": "04ffff001d02eb06",
          "sequence": 4294967295
        }
      ],
      "vout": [
        {
          "value": 50.0,
          "n": 0,
          "scriptPubKey": {
            "asm": "04b1726d4b796b48fdfc2aacc18a774522edbc9bc94b759ba3c59d3c3ef29aafd8be36607088a9d1de8fb82a2067f17517f8bc67f3198caac1ae15b67eab5bb39f OP_CHECKSIG",
            "desc": "pk(04b1726d4b796b48fdfc2aacc18a774522edbc9bc94b759ba3c59d3c3ef29aafd8be36607088a9d1de8fb82a2067f17517f8bc67f3198caac1ae15b67eab5bb39f)#rj0j4snz",
            "hex": "4104b1726d4b796b48fdfc2aacc18a774522edbc9bc94b759ba3c59d3c3ef29aafd8be36607088a9d1de8fb82a2067f17517f8bc67f3198caac1ae15b67eab5bb39fac",
            "type": "pubkey"
          }
        }
      ],
      "hex": "01000000010000000000000000000000000000000000000000000000000000000000000000ffffffff0804ffff001d02eb06ffffffff0100f2052a01000000434104b1726d4b796b48fdfc2aacc18a774522edbc9bc94b759ba3c59d3c3ef29aafd8be36607088a9d1de8fb82a2067f17517f8bc67f3198caac1ae15b67eab5bb39fac00000000"
    }
  ]
}