{
  "hash": "000000006b4c62e3f365c9f2250ea8c241d53b17587cc9042b39ba8c71b6b6c6",
  "confirmations": 44904,
  "height": 8194,
  "version": 1,
  "versionHex": "00000001",
  "merkleroot": "5701275af4db003ff84a85cef5208bbf25d8cabd3dde4e6f6b65135feab0e686",
  "time": 1237601169,
  "mediantime": 1237598702,
  "nonce": 2676760840,
  "bits": "1d00ffff",
  "difficulty": 1,
  "chainwork": "0000000000000000000000000000000000000000000000000000200320032003",
  "nTx": 1,
  "previousblockhash": "000000001b06f211d4ed453686832efff5facf0c91d8216347213435c31d7766",
  "nextblockhash": "000000009f864029612a2254a39c25d52f3d7af02f30fd259c2acb9d2b9e8d55",
  "strippedsize": 216,
  "size": 216,
  "weight": 864,
  "tx": [
    {
      "txid": "5701275af4db003ff84a85cef5208bbf25d8cabd3dde4e6f6b65135feab0e686",
      "hash": "5701275af4db003ff84a85cef5208bbf25d8cabd3dde4e6f6b65135feab0e686",
      "version": 1,
      "size": 135,
      "vsize": 135,
      "weight": 540,
      "locktime": 0,
      "vin": [
        {
          "coinbase": "04ffff001d02c002",
          "sequence": 4294967295
        }
      ],
      "vout": [
        {
          "value": 50.0,
          "n": 0,
          "scriptPubKey": {
            "asm": "04a5dae8cd3b6fd02aa2fbcb8bfd215e3e60975c0b107e1c2700320f1334063b571cc71aed4937aa7a0adade18a463ee38eda6cb2d6a0e5e5b783f0403cefb7b87 OP_CHECKSIG",
            "desc": "pk(04a5dae8cd3b6fd02aa2fbcb8bfd215e3e60975c0b107e1c2700320f1334063b571cc71aed4937aa7a0adade18a463ee38eda6cb2d6a0e5e5b783f0403cefb7b87)#ula9uv38",
            "hex": "4104a5dae8cd3b6fd02aa2fbcb8bfd215e3e60975c0b107e1c2700320f1334063b571cc71aed4937aa7a0adade18a463ee38eda6cb2d6a0e5e5b783f0403cefb7b87ac",
            "type": "pubkey"
          }
        }
      ],
      "hex": "01000000010000000000000000000000000000000000000000000000000000000000000000ffffffff0804ffff001d02c002ffffffff0100f2052a01000000434104a5dae8cd3b6fd02aa2fbcb8bfd215e3e60975c0b107e1c2700320f1334063b571cc71aed4937aa7a0adade18a463ee38eda6cb2d6a0e5e5b783f0403cefb7b87ac00000000"
    }
  ]
}