{
  "hash": "00000000219876fb06a0201a237403ad49ff78eaa0ee9fff4471ea5b207a5c99",
  "confirmations": 45969,
  "height": 7129,
  "version": 1,
  "versionHex": "00000001",
  "merkleroot": "883e446f03fa71d8f6465339a877ff24dbd202fd60beb470c5b00044125f2796",
  "time": 1236816971,
  "mediantime": 1236814295,
  "nonce": 135816704,
  "bits": "1d00ffff",
  "difficulty": 1,
  "chainwork": "00000000000000000000000000000000000000000000000000001bda1bda1bda",
  "nTx": 1,
  "previousblockhash": "000000000ab996d2666375cb2f0949f2d6dfe56598078a32c55a84b5c44bab38",
  "nextblockhash": "000000009d7be8b29e2c9da1828b9b8503efb73d647f86371dce553d15888677",
  "strippedsize": 215,
  "size": 215,
  "weight": 860,
  "tx": [
    {
      "txid": "883e446f03fa71d8f6465339a877ff24dbd202fd60beb470c5b00044125f2796",
      "hash": "883e446f03fa71d8f6465339a877ff24dbd202fd60beb470c5b00044125f2796",
      "version": 1,
      "size": 134,
      "vsize": 134,
      "weight": 536,
      "locktime": 0,
      "vin": [
        {
          "coinbase": "04ffff001d0126",
          "sequence": 4294967295
        }
      ],
      "vout": [
        {
          "value": 50.0,
          "n": 0,
          "scriptPubKey": {
            "asm": "044b2fbd3035ebf3105ced604cf555b8b49cc87147c99f4d7f410c4770b554ae48ec5f56a08ce1aefcb026a1a771a93a0848de9b012ca51e61fcfcf7982b0fa361 OP_CHECKSIG",
            "desc": "pk(044b2fbd3035ebf3105ced604cf555b8b49cc87147c99f4d7f410c4770b554ae48ec5f56a08ce1aefcb026a1a771a93a0848de9b012ca51e61fcfcf7982b0fa361)#cn86k09f",
            "hex": "41044b2fbd3035ebf3105ced604cf555b8b49cc87147c99f4d7f410c4770b554ae48ec5f56a08ce1aefcb026a1a771a93a0848de9b012ca51e61fcfcf7982b0fa361ac",
            "type": "pubkey"
          }
        }
      ],
      "hex": "01000000010000000000000000000000000000000000000000000000000000000000000000ffffffff0704ffff001d0126ffffffff0100f2052a010000004341044b2fbd3035ebf3105ced604cf555b8b49cc87147c99f4d7f410c4770b554ae48ec5f56a08ce1aefcb026a1a771a93a0848de9b012ca51e61fcfcf7982b0fa361ac00000000"
    }
  ]
}