{
  "hash": "000000004bd69da8c94e4bc1f5631a5f4891eba637cd84e48a31f61d53f9c383",
  "confirmations": 50181,
  "height": 2917,
  "version": 1,
  "versionHex": "00000001",
  "merkleroot": "3051ec76b599fe69bfa8250cada9ede242b399794ba5fe1505ef81c26a2a2cee",
  "time": 1233703467,
  "mediantime": 1233699846,
  "nonce": 35476179,
  "bits": "1d00ffff",
  "difficulty": 1,
  "chainwork": "00000000000000000000000000000000000000000000000000000b660b660b66",
  "nTx": 1,
  "previousblockhash": "00000000657ec3a6900586ae23550048e14a48ec9ac71ac869c7438900069179",
  "nextblockhash": "00000000e580752830a7430c1315dddc83628b48520a83147cfb5477b90267b1",
  "strippedsize": 216,
  "size": 216,
  "weight": 864,
  "tx": [
    {
      "txid": "3051ec76b599fe69bfa8250cada9ede242b399794ba5fe1505ef81c26a2a2cee",
      "hash": "3051ec76b599fe69bfa8250cada9ede242b399794ba5fe1505ef81c26a2a2cee",
      "version": 1,
      "size": 135,
      "vsize": 135,
      "weight": 540,
      "locktime": 0,
      "vin": [
        {
          "coinbase": "04ffff001d027a01",
          "sequence": 4294967295
        }
      ],
      "vout": [
        {
          "value": 50.0,
          "n": 0,
          "scriptPubKey": {
            "asm": "04b6f313c06ae3835628e600bb4245d638892b207e21b35ff7ac3238ecebcb96030a36968f27e22d7d5cc6b2b924e38959d70b0fcf1b0b7be88a10d02f64246e1c OP_CHECKSIG",
            "desc": "pk(04b6f313c06ae3835628e600bb4245d638892b207e21b35ff7ac3238ecebcb96030a36968f27e22d7d5cc6b2b924e38959d70b0fcf1b0b7be88a10d02f64246e1c)#vf7ntdnd",
            "hex": "4104b6f313c06ae3835628e600bb4245d638892b207e21b35ff7ac3238ecebcb96030a36968f27e22d7d5cc6b2b924e38959d70b0fcf1b0b7be88a10d02f64246e1cac",
            "type": "pubkey"
          }
        }
      ],
      "hex": "01000000010000000000000000000000000000000000000000000000000000000000000000ffffffff0804ffff001d027a01ffffffff0100f2052a01000000434104b6f313c06ae3835628e600bb4245d638892b207e21b35ff7ac3238ecebcb96030a36968f27e22d7d5cc6b2b924e38959d70b0fcf1b0b7be88a10d02f64246e1cac00000000"
    }
  ]
}