{
  "hash": "000000004b7c186e1ab61f6bbc008236e1e78717620c18046a2f5c4e633072c2",
  "confirmations": 45956,
  "height": 7142,
  "version": 1,
  "versionHex": "00000001",
  "merkleroot": "2a2baf858abe7224e2d12e32c76ab893f4264c4fa7ebcceafa41f545b1399038",
  "time": 1236828693,
  "mediantime": 1236823103,
  "nonce": 2831562752,
  "bits": "1d00ffff",
  "difficulty": 1,
  "chainwork": "00000000000000000000000000000000000000000000000000001be71be71be7",
  "nTx": 1,
  "previousblockhash": "00000000d483f00655cae8c9467bb5d77469b61d64a7f79dd6d53c7b20a0b6bb",
  "nextblockhash": "00000000645b15f8aa73a5e715e35a22fb59144498bbb3b784a47a340ef6af9a",
  "strippedsize": 216,
  "size": 216,
  "weight": 864,
  "tx": [
    {
      "txid": "2a2baf858abe7224e2d12e32c76ab893f4264c4fa7ebcceafa41f545b1399038",
      "hash": "2a2baf858abe7224e2d12e32c76ab893f4264c4fa7ebcceafa41f545b1399038",
      "version": 1,
      "size": 135,
      "vsize": 135,
      "weight": 540,
      "locktime": 0,
      "vin": [
        {
          "coinbase": "04ffff001d02dc04",
          "sequence": 4294967295
        }
      ],
      "vout": [
        {
          "value": 50.0,
          "n": 0,
          "scriptPubKey": {
            "asm": "04121864207fadc240a8da09ae763a5782f8e49c5148f0fde300dd4c1ff019f0f348ae150c3f8537177350724c9786d9e535dabcbc9c1d144a4940f92ed9a51381 OP_CHECKSIG",
            "desc": "pk(04121864207fadc240a8da09ae763a5782f8e49c5148f0fde300dd4c1ff019f0f348ae150c3f8537177350724c9786d9e535dabcbc9c1d144a4940f92ed9a51381)#kxkcvnwj",
            "hex": "4104121864207fadc240a8da09ae763a5782f8e49c5148f0fde300dd4c1ff019f0f348ae150c3f8537177350724c9786d9e535dabcbc9c1d144a4940f92ed9a51381ac",
            "type": "pubkey"
          }
        }
      ],
      "hex": "01000000010000000000000000000000000000000000000000000000000000000000000000ffffffff0804ffff001d02dc04ffffffff0100f2052a01000000434104121864207fadc240a8da09ae763a5782f8e49c5148f0fde300dd4c1ff019f0f348ae150c3f8537177350724c9786d9e535dabcbc9c1d144a4940f92ed9a51381ac00000000"
    }
  ]
}