{
  "hash": "000000007f516bf7520dc2e1a16d4cdca760b8fb251fb4707b0ae5b60a36ccf0",
  "confirmations": 48373,
  "height": 4725,
  "version": 1,
  "versionHex": "00000001",
  "merkleroot": "695bc7ba9094f342669a2118bb1bff88446f437495a9d8ee2035bd88088f09e9",
  "time": 1234946167,
  "mediantime": 1234940922,
  "nonce": 1939742257,
  "bits": "1d00ffff",
  "difficulty": 1,
  "chainwork": "0000000000000000000000000000000000000000000000000000127612761276",
  "nTx": 1,
  "previousblockhash": "0000000095cae1e8c3ce41d03392f145dd908f84e8b15b940414d5dcf416ee6e",
  "nextblockhash": "00000000715b397fb3e074b467e65a0404c59bc6ea15f4a11d084405dc843517",
  "strippedsize": 216,
  "size": 216,
  "weight": 864,
  "tx": [
    {
      "txid": "695bc7ba9094f342669a2118bb1bff88446f437495a9d8ee2035bd88088f09e9",
      "hash": "695bc7ba9094f342669a2118bb1bff88446f437495a9d8ee2035bd88088f09e9",
      "version": 1,
      "size": 135,
      "vsize": 135,
      "weight": 540,
      "locktime": 0,
      "vin": [
        {
          "coinbase": "04ffff001d02da02",
          "sequence": 4294967295
        }
      ],
      "vout": [
        {
          "value": 50.0,
          "n": 0,
          "scriptPubKey": {
            "asm": "044b819bac5ba9c5e91f0105b6d204610c62588055154528c7e5e2b892c136a270c19ac004975d8254bf32183a4c4f3a32d4bfe28f28e081eca89c6aa7a0ee3582 OP_CHECKSIG",
            "desc": "pk(044b819bac5ba9c5e91f0105b6d204610c62588055154528c7e5e2b892c136a270c19ac004975d8254bf32183a4c4f3a32d4bfe28f28e081eca89c6aa7a0ee3582)#fwj6u9y4",
            "hex": "41044b819bac5ba9c5e91f0105b6d204610c62588055154528c7e5e2b892c136a270c19ac004975d8254bf32183a4c4f3a32d4bfe28f28e081eca89c6aa7a0ee3582ac",
            "type": "pubkey"
          }
        }
      ],
      "hex": "01000000010000000000000000000000000000000000000000000000000000000000000000ffffffff0804ffff001d02da02ffffffff0100f2052a010000004341044b819bac5ba9c5e91f0105b6d204610c62588055154528c7e5e2b892c136a270c19ac004975d8254bf32183a4c4f3a32d4bfe28f28e081eca89c6aa7a0ee3582ac00000000"
    }
  ]
}