{
  "hash": "00000000f1687149c9658dfc89186a4404d3650a5674c3fba114c08f4355fb64",
  "confirmations": 50166,
  "height": 2932,
  "version": 1,
  "versionHex": "00000001",
  "merkleroot": "9d63c7d64b5790e4eca0b41712549a1303e61eb55e09180bceb82bdfda98faf6",
  "time": 1233712565,
  "mediantime": 1233708693,
  "nonce": 1166430243,
  "bits": "1d00ffff",
  "difficulty": 1,
  "chainwork": "00000000000000000000000000000000000000000000000000000b750b750b75",
  "nTx": 1,
  "previousblockhash": "0000000004c49f339a7672fb0f63328568728bd9740deefc271b9d0c29e61523",
  "nextblockhash": "00000000d6f0d7cee72dd0f0eb7de68e7daf9e00b09b0fc5ed3d07abeba185a1",
  "strippedsize": 215,
  "size": 215,
  "weight": 860,
  "tx": [
    {
      "txid": "9d63c7d64b5790e4eca0b41712549a1303e61eb55e09180bceb82bdfda98faf6",
      "hash": "9d63c7d64b5790e4eca0b41712549a1303e61eb55e09180bceb82bdfda98faf6",
      "version": 1,
      "size": 134,
      "vsize": 134,
      "weight": 536,
      "locktime": 0,
      "vin": [
        {
          "coinbase": "04ffff001d0142",
          "sequence": 4294967295
        }
      ],
      "vout": [
        {
          "value": 50.0,
          "n": 0,
          "scriptPubKey": {
            "asm": "04542b017a0586000205a9c110efe93efed310db6e9734a9a4283d7b3da38428ab8e3bf2ca617f39d79b5e3eed1201a85f6dc92b85d93ff18f6fb27fe16970b1aa OP_CHECKSIG",
            "desc": "pk(04542b017a0586000205a9c110efe93efed310db6e9734a9a4283d7b3da38428ab8e3bf2ca617f39d79b5e3eed1201a85f6dc92b85d93ff18f6fb27fe16970b1aa)#pe6c2le8",
            "hex": "4104542b017a0586000205a9c110efe93efed310db6e9734a9a4283d7b3da38428ab8e3bf2ca617f39d79b5e3eed1201a85f6dc92b85d93ff18f6fb27fe16970b1aaac",
            "type": "pubkey"
          }
        }
      ],
      "hex": "01000000010000000000000000000000000000000000000000000000000000000000000000ffffffff0704ffff001d0142ffffffff0100f2052a01000000434104542b017a0586000205a9c110efe93efed310db6e9734a9a4283d7b3da38428ab8e3bf2ca617f39d79b5e3eed1201a85f6dc92b85d93ff18f6fb27fe16970b1aaac00000000"
    }
  ]
}