{
  "hash": "0000000033818256a49ccc2a2a689f680aa67df17b6de2bef62858a41ba20bbf",
  "confirmations": 52472,
  "height": 626,
  "version": 1,
  "versionHex": "00000001",
  "merkleroot": "f1f5a1e79ad6153dc18c169ff94483e817bf89df2ba158a77492016ed9916157",
  "time": 1232053261,
  "mediantime": 1232050537,
  "nonce": 3493180438,
  "bits": "1d00ffff",
  "difficulty": 1,
  "chainwork": "0000000000000000000000000000000000000000000000000000027302730273",
  "nTx": 1,
  "previousblockhash": "0000000099424c7f78847a97b95557110802c172cd97fa3044f76e6c4700ed22",
  "nextblockhash": "000000004a7c386863b0f68ed98667aa7199f93e53daf51aa82c273881b60729",
  "strippedsize": 216,
  "size": 216,
  "weight": 864,
  "tx": [
    {
      "txid": "f1f5a1e79ad6153dc18c169ff94483e817bf89df2ba158a77492016ed9916157",
      "hash": "f1f5a1e79ad6153dc18c169ff94483e817bf89df2ba158a77492016ed9916157",
      "version": 1,
      "size": 135,
      "vsize": 135,
      "weight": 540,
      "locktime": 0,
      "vin": [
        {
          "coinbase": "04ffff001d020d07",
          "sequence": 4294967295
        }
      ],
      "vout": [
        {
          "value": 50.0,
          "n": 0,
          "scriptPubKey": {
            "asm": "04207d208e730de96349ea03fb2857d2e1d4d3384d713d813dee901b9a60c8cb5511a84f5ff78c76452b9800d1ed308b5ca5c048ea892e87129fbfe4641ac42a18 OP_CHECKSIG",
            "desc": "pk(04207d208e730de96349ea03fb2857d2e1d4d3384d713d813dee901b9a60c8cb5511a84f5ff78c76452b9800d1ed308b5ca5c048ea892e87129fbfe4641ac42a18)#anry3hpr",
            "hex": "4104207d208e730de96349ea03fb2857d2e1d4d3384d713d813dee901b9a60c8cb5511a84f5ff78c76452b9800d1ed308b5ca5c048ea892e87129fbfe4641ac42a18ac",
            "type": "pubkey"
          }
        }
      ],
      "hex": "01000000010000000000000000000000000000000000000000000000000000000000000000ffffffff0804ffff001d020d07ffffffff0100f2052a01000000434104207d208e730de96349ea03fb2857d2e1d4d3384d713d813dee901b9a60c8cb5511a84f5ff78c76452b9800d1ed308b5ca5c048ea892e87129fbfe4641ac42a18ac00000000"
    }
  ]
}