{
  "hash": "00000000882cfb02e7b8ae59353c0fa2e7b7a0d030128fd81a21a77f756959c8",
  "confirmations": 52483,
  "height": 615,
  "version": 1,
  "versionHex": "00000001",
  "merkleroot": "1b530f57a052db3a8a0987630ee2fe6643e9ae04302844ec91ff3580c52d671d",
  "time": 1232046290,
  "mediantime": 1232044039,
  "nonce": 3385026051,
  "bits": "1d00ffff",
  "difficulty": 1,
  "chainwork": "0000000000000000000000000000000000000000000000000000026802680268",
  "nTx": 1,
  "previousblockhash": "000000007c85141167dad3a3c31beee277664e7050e2af9a1befae630e7c2d1d",
  "nextblockhash": "00000000f5805c3ed1c24ecddba78c6a6f2a671ba6b2d3c89cddc7c8e0c16a2f",
  "strippedsize": 216,
  "size": 216,
  "weight": 864,
  "tx": [
    {
      "txid": "1b530f57a052db3a8a0987630ee2fe6643e9ae04302844ec91ff3580c52d671d",
      "hash": "1b530f57a052db3a8a0987630ee2fe6643e9ae04302844ec91ff3580c52d671d",
      "version": 1,
      "size": 135,
      "vsize": 135,
      "weight": 540,
      "locktime": 0,
      "vin": [
        {
          "coinbase": "04ffff001d02e406",
          "sequence": 4294967295
        }
      ],
      "vout": [
        {
          "value": 50.0,
          "n": 0,
          "scriptPubKey": {
            "asm": "04d55091e17828fbc2c3620af7114931981427b405176ea0cc24e396608f3d975ef4d81c9411daa869b8dd9dce4e5211af6e5f561278f00377c94ea8d590ba15f0 OP_CHECKSIG",
            "desc": "pk(04d55091e17828fbc2c3620af7114931981427b405176ea0cc24e396608f3d975ef4d81c9411daa869b8dd9dce4e5211af6e5f561278f00377c94ea8d590ba15f0)#8ayz2qvw",
            "hex": "4104d55091e17828fbc2c3620af7114931981427b405176ea0cc24e396608f3d975ef4d81c9411daa869b8dd9dce4e5211af6e5f561278f00377c94ea8d590ba15f0ac",
            "type": "pubkey"
          }
        }
      ],
      "hex": "01000000010000000000000000000000000000000000000000000000000000000000000000ffffffff0804ffff001d02e406ffffffff0100f2052a01000000434104d55091e17828fbc2c3620af7114931981427b405176ea0cc24e396608f3d975ef4d81c9411daa869b8dd9dce4e5211af6e5f561278f00377c94ea8d590ba15f0ac00000000"
    }
  ]
}