{
  "hash": "00000000d90f1872204bc72859cc3c6e1462ea1b3a46fca9d0a766ad250e007f",
  "confirmations": 45227,
  "height": 7871,
  "version": 1,
  "versionHex": "00000001",
  "merkleroot": "2e6cd53f7f577ecf742d2feb62fcb70b0388967f48ff7e70665bda1641b95c7e",
  "time": 1237368366,
  "mediantime": 1237364286,
  "nonce": 449993525,
  "bits": "1d00ffff",
  "difficulty": 1,
  "chainwork": "00000000000000000000000000000000000000000000000000001ec01ec01ec0",
  "nTx": 1,
  "previousblockhash": "00000000b7fba4fb7744c2b2e8395048facd9c2e8f11ff077996c49d738e1777",
  "nextblockhash": "000000005f5c18fb5aacefddaaafbc44535f74d92dd40371e80d06765d4f6324",
  "strippedsize": 216,
  "size": 216,
  "weight": 864,
  "tx": [
    {
      "txid": "2e6cd53f7f577ecf742d2feb62fcb70b0388967f48ff7e70665bda1641b95c7e",
      "hash": "2e6cd53f7f577ecf742d2feb62fcb70b0388967f48ff7e70665bda1641b95c7e",
      "version": 1,
      "size": 135,
      "vsize": 135,
      "weight": 540,
      "locktime": 0,
      "vin": [
        {
          "coinbase": "04ffff001d020e07",
          "sequence": 4294967295
        }
      ],
      "vout": [
        {
          "value": 50.0,
          "n": 0,
          "scriptPubKey": {
            "asm": "04e53cce7384157700440c6b0b8f0015ff8cc562cea400216b1e9e47960779a17b030d9fca2d13adf5af1ff421ab38a402792285b4638f2d32982cccb0d673b5e6 OP_CHECKSIG",
            "desc": "pk(04e53cce7384157700440c6b0b8f0015ff8cc562cea400216b1e9e47960779a17b030d9fca2d13adf5af1ff421ab38a402792285b4638f2d32982cccb0d673b5e6)#zaar5ukm",
            "hex": "4104e53cce7384157700440c6b0b8f0015ff8cc562cea400216b1e9e47960779a17b030d9fca2d13adf5af1ff421ab38a402792285b4638f2d32982cccb0d673b5e6ac",
            "type": "pubkey"
          }
        }
      ],
      "hex": "01000000010000000000000000000000000000000000000000000000000000000000000000ffffffff0804ffff001d020e07ffffffff0100f2052a01000000434104e53cce7384157700440c6b0b8f0015ff8cc562cea400216b1e9e47960779a17b030d9fca2d13adf5af1ff421ab38a402792285b4638f2d32982cccb0d673b5e6ac00000000"
    }
  ]
}