{
  "hash": "00000000ff43e4905adad05611d886de6192920903d8de58a3958a474297536c",
  "confirmations": 45240,
  "height": 7858,
  "version": 1,
  "versionHex": "00000001",
  "merkleroot": "4c87da218a9b6f8fce6c87823c12b0a7a8e979f914c98ac173b19d8a0516f654",
  "time": 1237356799,
  "mediantime": 1237351949,
  "nonce": 558699830,
  "bits": "1d00ffff",
  "difficulty": 1,
  "chainwork": "00000000000000000000000000000000000000000000000000001eb31eb31eb3",
  "nTx": 1,
  "previousblockhash": "00000000d1bbc52d1d3613598e50214b571c1f5d525db9e0845cd320cfa64d16",
  "nextblockhash": "00000000993d6ee47240bfee4ce320a54fef8b7091334e92ef713bb3e7590034",
  "strippedsize": 216,
  "size": 216,
  "weight": 864,
  "tx": [
    {
      "txid": "4c87da218a9b6f8fce6c87823c12b0a7a8e979f914c98ac173b19d8a0516f654",
      "hash": "4c87da218a9b6f8fce6c87823c12b0a7a8e979f914c98ac173b19d8a0516f654",
      "version": 1,
      "size": 135,
      "vsize": 135,
      "weight": 540,
      "locktime": 0,
      "vin": [
        {
          "coinbase": "04ffff001d02e006",
          "sequence": 4294967295
        }
      ],
      "vout": [
        {
          "value": 50.0,
          "n": 0,
          "scriptPubKey": {
            "asm": "04214c489420bd00eb99512621a9c2f278b64e092079eabf12d51408cd7527863810b377653d2401c22551aa897e3cf7a1f3a51f3d842ea3f42035d3f07b7ff109 OP_CHECKSIG",
            "desc": "pk(04214c489420bd00eb99512621a9c2f278b64e092079eabf12d51408cd7527863810b377653d2401c22551aa897e3cf7a1f3a51f3d842ea3f42035d3f07b7ff109)#nz4l7j98",
            "hex": "4104214c489420bd00eb99512621a9c2f278b64e092079eabf12d51408cd7527863810b377653d2401c22551aa897e3cf7a1f3a51f3d842ea3f42035d3f07b7ff109ac",
            "type": "pubkey"
          }
        }
      ],
      "hex": "01000000010000000000000000000000000000000000000000000000000000000000000000ffffffff0804ffff001d02e006ffffffff0100f2052a01000000434104214c489420bd00eb99512621a9c2f278b64e092079eabf12d51408cd7527863810b377653d2401c22551aa897e3cf7a1f3a51f3d842ea3f42035d3f07b7ff109ac00000000"
    }
  ]
}