{
  "hash": "000000004ffdd2b70630e2fb08bcc3080e523a3d920bbfd8f7bdc3635f921d7f",
  "confirmations": 50745,
  "height": 2353,
  "version": 1,
  "versionHex": "00000001",
  "merkleroot": "726a6b6f059cdc625bfb0fe1555e7c83bfa53f7d1aa53a22d5c91e6377aacf6a",
  "time": 1233318546,
  "mediantime": 1233315661,
  "nonce": 21085435,
  "bits": "1d00ffff",
  "difficulty": 1,
  "chainwork": "0000000000000000000000000000000000000000000000000000093209320932",
  "nTx": 1,
  "previousblockhash": "00000000e2269a36ac1e516cdf914d689cf5c8a35876140a9a631f282fef384c",
  "nextblockhash": "000000001093febea6dbeb54dee4f50c3493a10cb8f1eb1299fe0e8f7accb381",
  "strippedsize": 216,
  "size": 216,
  "weight": 864,
  "tx": [
    {
      "txid": "726a6b6f059cdc625bfb0fe1555e7c83bfa53f7d1aa53a22d5c91e6377aacf6a",
      "hash": "726a6b6f059cdc625bfb0fe1555e7c83bfa53f7d1aa53a22d5c91e6377aacf6a",
      "version": 1,
      "size": 135,
      "vsize": 135,
      "weight": 540,
      "locktime": 0,
      "vin": [
        {
          "coinbase": "04ffff001d029e04",
          "sequence": 4294967295
        }
      ],
      "vout": [
        {
          "value": 50.0,
          "n": 0,
          "scriptPubKey": {
            "asm": "046e4a043fa4e5a926f94c9de3f567bc9d12c833d4f28e8c33dba12363d6cacba76aeff2e63caa1e6afadcce4d792cdbc267dbef6258fa51346f382a8c3525d78a OP_CHECKSIG",
            "desc": "pk(046e4a043fa4e5a926f94c9de3f567bc9d12c833d4f28e8c33dba12363d6cacba76aeff2e63caa1e6afadcce4d792cdbc267dbef6258fa51346f382a8c3525d78a)#3t5dak95",
            "hex": "41046e4a043fa4e5a926f94c9de3f567bc9d12c833d4f28e8c33dba12363d6cacba76aeff2e63caa1e6afadcce4d792cdbc267dbef6258fa51346f382a8c3525d78aac",
            "type": "pubkey"
          }
        }
      ],
      "hex": "01000000010000000000000000000000000000000000000000000000000000000000000000ffffffff0804ffff001d029e04ffffffff0100f2052a010000004341046e4a043fa4e5a926f94c9de3f567bc9d12c833d4f28e8c33dba12363d6cacba76aeff2e63caa1e6afadcce4d792cdbc267dbef6258fa51346f382a8c3525d78aac00000000"
    }
  ]
}