{
  "hash": "0000000098e574e8c06d4c1748cb547be98c6b725e642efab628f8b0601a7017",
  "confirmations": 48036,
  "height": 5062,
  "version": 1,
  "versionHex": "00000001",
  "merkleroot": "6ac0492cbbc247f50b031bda5299a086660fbd68b59afaad2c688622b7d5097e",
  "time": 1235185575,
  "mediantime": 1235182686,
  "nonce": 3248338436,
  "bits": "1d00ffff",
  "difficulty": 1,
  "chainwork": "000000000000000000000000000000000000000000000000000013c713c713c7",
  "nTx": 1,
  "previousblockhash": "00000000392b1048b2297c6fcf31d2f0e1cdb3794a64594a136a2019a668be2d",
  "nextblockhash": "0000000096c0d938872c42fbfcb01d44f76535701e4c354d5c3f7345b004e3f6",
  "strippedsize": 216,
  "size": 216,
  "weight": 864,
  "tx": [
    {
      "txid": "6ac0492cbbc247f50b031bda5299a086660fbd68b59afaad2c688622b7d5097e",
      "hash": "6ac0492cbbc247f50b031bda5299a086660fbd68b59afaad2c688622b7d5097e",
      "version": 1,
      "size": 135,
      "vsize": 135,
      "weight": 540,
      "locktime": 0,
      "vin": [
        {
          "coinbase": "04ffff001d021e08",
          "sequence": 4294967295
        }
      ],
      "vout": [
        {
          "value": 50.0,
          "n": 0,
          "scriptPubKey": {
            "asm": "049b11e1c7be657616fa4d83b2d185e4f146180a7752e796193ce63bb03ab9963fa2c818ddac33dd4a252e51c1a2194d6c5ff4501402d0d618d050f28b5ceec1ea OP_CHECKSIG",
            "desc": "pk(049b11e1c7be657616fa4d83b2d185e4f146180a7752e796193ce63bb03ab9963fa2c818ddac33dd4a252e51c1a2194d6c5ff4501402d0d618d050f28b5ceec1ea)#j77ukf7c",
            "hex": "41049b11e1c7be657616fa4d83b2d185e4f146180a7752e796193ce63bb03ab9963fa2c818ddac33dd4a252e51c1a2194d6c5ff4501402d0d618d050f28b5ceec1eaac",
            "type": "pubkey"
          }
        }
      ],
      "hex": "01000000010000000000000000000000000000000000000000000000000000000000000000ffffffff0804ffff001d021e08ffffffff0100f2052a010000004341049b11e1c7be657616fa4d83b2d185e4f146180a7752e796193ce63bb03ab9963fa2c818ddac33dd4a252e51c1a2194d6c5ff4501402d0d618d050f28b5ceec1eaac00000000"
    }
  ]
}