{
  "hash": "00000000dbe99fe90915218f74be250fffd6140041b1e8cf139543ae88af0795",
  "confirmations": 50720,
  "height": 2378,
  "version": 1,
  "versionHex": "00000001",
  "merkleroot": "4a69a5e1c065839034d59587541a20d44150ba088c8bac97927578a1f9fb68d7",
  "time": 1233337616,
  "mediantime": 1233332825,
  "nonce": 2007229472,
  "bits": "1d00ffff",
  "difficulty": 1,
  "chainwork": "0000000000000000000000000000000000000000000000000000094b094b094b",
  "nTx": 1,
  "previousblockhash": "0000000052da91541855a14d302fda8dbdec3010f2158e1dbee67e8ade2cb49b",
  "nextblockhash": "000000006ebbe7c070bd446a35674b91da43e5e2dc3e72b9bfcf1afae351a7fe",
  "strippedsize": 216,
  "size": 216,
  "weight": 864,
  "tx": [
    {
      "txid": "4a69a5e1c065839034d59587541a20d44150ba088c8bac97927578a1f9fb68d7",
      "hash": "4a69a5e1c065839034d59587541a20d44150ba088c8bac97927578a1f9fb68d7",
      "version": 1,
      "size": 135,
      "vsize": 135,
      "weight": 540,
      "locktime": 0,
      "vin": [
        {
          "coinbase": "04ffff001d022403",
          "sequence": 4294967295
        }
      ],
      "vout": [
        {
          "value": 50.0,
          "n": 0,
          "scriptPubKey": {
            "asm": "0466a1e0258ef27e9715dc5b36a1a7ac3d26d3ad6684d3af257e0c4d3ff3d7d464b293d2b42939279b61e1926edb7e06abfb62161e7ce05a8c916d7a1582ef1c1a OP_CHECKSIG",
            "desc": "pk(0466a1e0258ef27e9715dc5b36a1a7ac3d26d3ad6684d3af257e0c4d3ff3d7d464b293d2b42939279b61e1926edb7e06abfb62161e7ce05a8c916d7a1582ef1c1a)#urggmm4m",
            "hex": "410466a1e0258ef27e9715dc5b36a1a7ac3d26d3ad6684d3af257e0c4d3ff3d7d464b293d2b42939279b61e1926edb7e06abfb62161e7ce05a8c916d7a1582ef1c1aac",
            "type": "pubkey"
          }
        }
      ],
      "hex": "01000000010000000000000000000000000000000000000000000000000000000000000000ffffffff0804ffff001d022403ffffffff0100f2052a0100000043410466a1e0258ef27e9715dc5b36a1a7ac3d26d3ad6684d3af257e0c4d3ff3d7d464b293d2b42939279b61e1926edb7e06abfb62161e7ce05a8c916d7a1582ef1c1aac00000000"
    }
  ]
}