{
  "hash": "00000000fd3a79266d790c01ce9f779c6c87d2f15560dabcdf0c7de0b7fefe44",
  "confirmations": 44551,
  "height": 8547,
  "version": 1,
  "versionHex": "00000001",
  "merkleroot": "3d4f5afc4d39d1ba46d2d930360e52da15b1522577515e33874ae26a2910d297",
  "time": 1237909996,
  "mediantime": 1237905237,
  "nonce": 2039508537,
  "bits": "1d00ffff",
  "difficulty": 1,
  "chainwork": "0000000000000000000000000000000000000000000000000000216421642164",
  "nTx": 1,
  "previousblockhash": "0000000022b36223df8e83bce330ecbb286c92021230bcc616c5cc74660b29e9",
  "nextblockhash": "000000009527b99654e2466f510181719fe0db7077818498d07d30b00728aa66",
  "strippedsize": 216,
  "size": 216,
  "weight": 864,
  "tx": [
    {
      "txid": "3d4f5afc4d39d1ba46d2d930360e52da15b1522577515e33874ae26a2910d297",
      "hash": "3d4f5afc4d39d1ba46d2d930360e52da15b1522577515e33874ae26a2910d297",
      "version": 1,
      "size": 135,
      "vsize": 135,
      "weight": 540,
      "locktime": 0,
      "vin": [
        {
          "coinbase": "04ffff001d02ae08",
          "sequence": 4294967295
        }
      ],
      "vout": [
        {
          "value": 50.0,
          "n": 0,
          "scriptPubKey": {
            "asm": "04bfc34bcdf65bbfeb1ba0d32f4b4168e50e23fb34a3284e16a5ccba34b226f91c7bf8ce711b51742bf0948b839b683dbbf103601072fab66425f5aa5a2054536d OP_CHECKSIG",
            "desc": "pk(04bfc34bcdf65bbfeb1ba0d32f4b4168e50e23fb34a3284e16a5ccba34b226f91c7bf8ce711b51742bf0948b839b683dbbf103601072fab66425f5aa5a2054536d)#g96dwwrf",
            "hex": "4104bfc34bcdf65bbfeb1ba0d32f4b4168e50e23fb34a3284e16a5ccba34b226f91c7bf8ce711b51742bf0948b839b683dbbf103601072fab66425f5aa5a2054536dac",
            "type": "pubkey"
          }
        }
      ],
      "hex": "01000000010000000000000000000000000000000000000000000000000000000000000000ffffffff0804ffff001d02ae08ffffffff0100f2052a01000000434104bfc34bcdf65bbfeb1ba0d32f4b4168e50e23fb34a3284e16a5ccba34b226f91c7bf8ce711b51742bf0948b839b683dbbf103601072fab66425f5aa5a2054536dac00000000"
    }
  ]
}