{
  "hash": "00000000f6028c9e60bb7ad158e3ccece8049e29c5b1aaf1bb42fdf92949fb65",
  "confirmations": 43414,
  "height": 9684,
  "version": 1,
  "versionHex": "00000001",
  "merkleroot": "d24a584757db5408072364fc5475a942f8e9dfd2ced3af47891bf05cd05e5df9",
  "time": 1238767060,
  "mediantime": 1238762806,
  "nonce": 4107683589,
  "bits": "1d00ffff",
  "difficulty": 1,
  "chainwork": "000000000000000000000000000000000000000000000000000025d525d525d5",
  "nTx": 1,
  "previousblockhash": "00000000a3111e554bc77cb60e769a1c5d179fc578cea7eccb5a0a4a7d862f53",
  "nextblockhash": "00000000e1116365ea84f9145752abec2853a8f558afde6142e0129aee00909a",
  "strippedsize": 216,
  "size": 216,
  "weight": 864,
  "tx": [
    {
      "txid": "d24a584757db5408072364fc5475a942f8e9dfd2ced3af47891bf05cd05e5df9",
      "hash": "d24a584757db5408072364fc5475a942f8e9dfd2ced3af47891bf05cd05e5df9",
      "version": 1,
      "size": 135,
      "vsize": 135,
      "weight": 540,
      "locktime": 0,
      "vin": [
        {
          "coinbase": "04ffff001d022108",
          "sequence": 4294967295
        }
      ],
      "vout": [
        {
          "value": 50.0,
          "n": 0,
          "scriptPubKey": {
            "asm": "045157b9b0f413a6c0ca01bc20a7a3747dc63678a3e04405e23c5da8b38f01706d2e95fe67c1abad8fc0826e4e23392aabe97f320c65b184b12fc12a5c178f8ffd OP_CHECKSIG",
            "desc": "pk(045157b9b0f413a6c0ca01bc20a7a3747dc63678a3e04405e23c5da8b38f01706d2e95fe67c1abad8fc0826e4e23392aabe97f320c65b184b12fc12a5c178f8ffd)#ntuy00mp",
            "hex": "41045157b9b0f413a6c0ca01bc20a7a3747dc63678a3e04405e23c5da8b38f01706d2e95fe67c1abad8fc0826e4e23392aabe97f320c65b184b12fc12a5c178f8ffdac",
            "type": "pubkey"
          }
        }
      ],
      "hex": "01000000010000000000000000000000000000000000000000000000000000000000000000ffffffff0804ffff001d022108ffffffff0100f2052a010000004341045157b9b0f413a6c0ca01bc20a7a3747dc63678a3e04405e23c5da8b38f01706d2e95fe67c1abad8fc0826e4e23392aabe97f320c65b184b12fc12a5c178f8ffdac00000000"
    }
  ]
}