{
  "hash": "000000000b87c229c784a01753187dfb220686a651cc0074626a68e1cf7f12ec",
  "confirmations": 52279,
  "height": 819,
  "version": 1,
  "versionHex": "00000001",
  "merkleroot": "0e7b48c82b6753b9dc6ea597ec4b1c9fa2422c4a8c21b6691d0fed831e3a397b",
  "time": 1232206702,
  "mediantime": 1232202799,
  "nonce": 39459665,
  "bits": "1d00ffff",
  "difficulty": 1,
  "chainwork": "0000000000000000000000000000000000000000000000000000033403340334",
  "nTx": 1,
  "previousblockhash": "00000000c43eb3505e99a37a7e5c85de0c04a8fdb16462b900f7f3c6b9ed586e",
  "nextblockhash": "00000000887d1fe5c13d7f73e8a449dafd2b2748bb55e4510526c9dbb9eebf09",
  "strippedsize": 216,
  "size": 216,
  "weight": 864,
  "tx": [
    {
      "txid": "0e7b48c82b6753b9dc6ea597ec4b1c9fa2422c4a8c21b6691d0fed831e3a397b",
      "hash": "0e7b48c82b6753b9dc6ea597ec4b1c9fa2422c4a8c21b6691d0fed831e3a397b",
      "version": 1,
      "size": 135,
      "vsize": 135,
      "weight": 540,
      "locktime": 0,
      "vin": [
        {
          "coinbase": "04ffff001d02bf00",
          "sequence": 4294967295
        }
      ],
      "vout": [
        {
          "value": 50.0,
          "n": 0,
          "scriptPubKey": {
            "asm": "04a0d33b80215fe46b299a652c800ccb0f3157405c60b90092b1bb27b87345c634a93104dc1b5989e361d53c85759db35978f2d33de3b573cbb91b10a5f5f7664a OP_CHECKSIG",
            "desc": "pk(04a0d33b80215fe46b299a652c800ccb0f3157405c60b90092b1bb27b87345c634a93104dc1b5989e361d53c85759db35978f2d33de3b573cbb91b10a5f5f7664a)#hufgyj5y",
            "hex": "4104a0d33b80215fe46b299a652c800ccb0f3157405c60b90092b1bb27b87345c634a93104dc1b5989e361d53c85759db35978f2d33de3b573cbb91b10a5f5f7664aac",
            "type": "pubkey"
          }
        }
      ],
      "hex": "01000000010000000000000000000000000000000000000000000000000000000000000000ffffffff0804ffff001d02bf00ffffffff0100f2052a01000000434104a0d33b80215fe46b299a652c800ccb0f3157405c60b90092b1bb27b87345c634a93104dc1b5989e361d53c85759db35978f2d33de3b573cbb91b10a5f5f7664aac00000000"
    }
  ]
}