{
  "hash": "0000000089c7926f6bbbcff90daac70c8817a40e6df58abea652dbb6f4feeee0",
  "confirmations": 47498,
  "height": 5600,
  "version": 1,
  "versionHex": "00000001",
  "merkleroot": "277e5e0737b935521be23fa8f61fa226176f1aa19c51499fb1e014cf30ddef1b",
  "time": 1235603390,
  "mediantime": 1235597708,
  "nonce": 3555690801,
  "bits": "1d00ffff",
  "difficulty": 1,
  "chainwork": "000000000000000000000000000000000000000000000000000015e115e115e1",
  "nTx": 1,
  "previousblockhash": "00000000eb82e342307f9f24cbf6a5518efa4ac1824b62bf4e2981a516211385",
  "nextblockhash": "00000000423ff2bd1a5bce685406e1d166305f17040cb3123c1f52c93f6c1605",
  "strippedsize": 216,
  "size": 216,
  "weight": 864,
  "tx": [
    {
      "txid": "277e5e0737b935521be23fa8f61fa226176f1aa19c51499fb1e014cf30ddef1b",
      "hash": "277e5e0737b935521be23fa8f61fa226176f1aa19c51499fb1e014cf30ddef1b",
      "version": 1,
      "size": 135,
      "vsize": 135,
      "weight": 540,
      "locktime": 0,
      "vin": [
        {
          "coinbase": "04ffff001d02a607",
          "sequence": 4294967295
        }
      ],
      "vout": [
        {
          "value": 50.0,
          "n": 0,
          "scriptPubKey": {
            "asm": "0480b77ca662cea4e3e6c0d332aebda2b7805e97a31d5b59752dd077ef3be414270f301e85b850058a3099f8c292b2151147a50f6d830654a0723ff231e6300b8b OP_CHECKSIG",
            "desc": "pk(0480b77ca662cea4e3e6c0d332aebda2b7805e97a31d5b59752dd077ef3be414270f301e85b850058a3099f8c292b2151147a50f6d830654a0723ff231e6300b8b)#2y47sd57",
            "hex": "410480b77ca662cea4e3e6c0d332aebda2b7805e97a31d5b59752dd077ef3be414270f301e85b850058a3099f8c292b2151147a50f6d830654a0723ff231e6300b8bac",
            "type": "pubkey"
          }
        }
      ],
      "hex": "01000000010000000000000000000000000000000000000000000000000000000000000000ffffffff0804ffff001d02a607ffffffff0100f2052a0100000043410480b77ca662cea4e3e6c0d332aebda2b7805e97a31d5b59752dd077ef3be414270f301e85b850058a3099f8c292b2151147a50f6d830654a0723ff231e6300b8bac00000000"
    }
  ]
}