{
  "hash": "00000000484cd82435395659547029931a6cc76d9947055ddd817bdad8ffab02",
  "confirmations": 47112,
  "height": 5986,
  "version": 1,
  "versionHex": "00000001",
  "merkleroot": "871041621f26cfa55c6eac65415839d43ae695adc3a6751d2e597c8950a267bd",
  "time": 1235917022,
  "mediantime": 1235912536,
  "nonce": 163129193,
  "bits": "1d00ffff",
  "difficulty": 1,
  "chainwork": "0000000000000000000000000000000000000000000000000000176317631763",
  "nTx": 1,
  "previousblockhash": "00000000009b4b024ee5b5a011fa3a8c1d6d2155eb1822d2d3673f28160c943d",
  "nextblockhash": "000000007a662cad3436e863e7906ede734d346d1a7a21b1b1d1875f7ca01212",
  "strippedsize": 216,
  "size": 216,
  "weight": 864,
  "tx": [
    {
      "txid": "871041621f26cfa55c6eac65415839d43ae695adc3a6751d2e597c8950a267bd",
      "hash": "871041621f26cfa55c6eac65415839d43ae695adc3a6751d2e597c8950a267bd",
      "version": 1,
      "size": 135,
      "vsize": 135,
      "weight": 540,
      "locktime": 0,
      "vin": [
        {
          "coinbase": "04ffff001d022709",
          "sequence": 4294967295
        }
      ],
      "vout": [
        {
          "value": 50.0,
          "n": 0,
          "scriptPubKey": {
            "asm": "04621ef4b13dbbb78ab49e00068cfbda36435c4cc1bcf1716170066a1d333e43b722f67a46f908944869b5295e5364f4c64424c11933b36c89d44eec3d671651e3 OP_CHECKSIG",
            "desc": "pk(04621ef4b13dbbb78ab49e00068cfbda36435c4cc1bcf1716170066a1d333e43b722f67a46f908944869b5295e5364f4c64424c11933b36c89d44eec3d671651e3)#9u2lkn0f",
            "hex": "4104621ef4b13dbbb78ab49e00068cfbda36435c4cc1bcf1716170066a1d333e43b722f67a46f908944869b5295e5364f4c64424c11933b36c89d44eec3d671651e3ac",
            "type": "pubkey"
          }
        }
      ],
      "hex": "01000000010000000000000000000000000000000000000000000000000000000000000000ffffffff0804ffff001d022709ffffffff0100f2052a01000000434104621ef4b13dbbb78ab49e00068cfbda36435c4cc1bcf1716170066a1d333e43b722f67a46f908944869b5295e5364f4c64424c11933b36c89d44eec3d671651e3ac00000000"
    }
  ]
}