{
  "hash": "00000000619619ad3f0beb6fbe93e56126fdf1068c813cf8c80e3a60f8803acf",
  "confirmations": 44281,
  "height": 8817,
  "version": 1,
  "versionHex": "00000001",
  "merkleroot": "5b4d984075b549cdaed69ed1c0906a60da3a7fb354eb471a710d740e06e915c7",
  "time": 1238111292,
  "mediantime": 1238108513,
  "nonce": 21692911,
  "bits": "1d00ffff",
  "difficulty": 1,
  "chainwork": "0000000000000000000000000000000000000000000000000000227222722272",
  "nTx": 1,
  "previousblockhash": "0000000064de54caff83e8ea00f3cd162c72c436f0233d9745351d2c4f2a432d",
  "nextblockhash": "0000000030dbdc002ac83181ffa9c85f8376bf69136922e43eab74034dd8788e",
  "strippedsize": 216,
  "size": 216,
  "weight": 864,
  "tx": [
    {
      "txid": "5b4d984075b549cdaed69ed1c0906a60da3a7fb354eb471a710d740e06e915c7",
      "hash": "5b4d984075b549cdaed69ed1c0906a60da3a7fb354eb471a710d740e06e915c7",
      "version": 1,
      "size": 135,
      "vsize": 135,
      "weight": 540,
      "locktime": 0,
      "vin": [
        {
          "coinbase": "04ffff001d027604",
          "sequence": 4294967295
        }
      ],
      "vout": [
        {
          "value": 50.0,
          "n": 0,
          "scriptPubKey": {
            "asm": "04d3712b29cb582cbdf27ade764b21e7a7538d9c4807a4e82d43d67fc0f8d302712fcf1230cfaf63b8e4171e4014a6c923e3144f6f640eb1c6c180d5a510f2c6ab OP_CHECKSIG",
            "desc": "pk(04d3712b29cb582cbdf27ade764b21e7a7538d9c4807a4e82d43d67fc0f8d302712fcf1230cfaf63b8e4171e4014a6c923e3144f6f640eb1c6c180d5a510f2c6ab)#6enr0w4d",
            "hex": "4104d3712b29cb582cbdf27ade764b21e7a7538d9c4807a4e82d43d67fc0f8d302712fcf1230cfaf63b8e4171e4014a6c923e3144f6f640eb1c6c180d5a510f2c6abac",
            "type": "pubkey"
          }
        }
      ],
      "hex": "01000000010000000000000000000000000000000000000000000000000000000000000000ffffffff0804ffff001d027604ffffffff0100f2052a01000000434104d3712b29cb582cbdf27ade764b21e7a7538d9c4807a4e82d43d67fc0f8d302712fcf1230cfaf63b8e4171e4014a6c923e3144f6f640eb1c6c180d5a510f2c6abac00000000"
    }
  ]
}