{
  "hash": "00000000ed514c1e342eb1e74e0e2fbc529fc37d0a1758404ba66225c927f0d5",
  "confirmations": 44146,
  "height": 8952,
  "version": 1,
  "versionHex": "00000001",
  "merkleroot": "6b7792e345728953877d08dd9989eebf865e218d6d9410c7b44a57c647116992",
  "time": 1238218845,
  "mediantime": 1238215662,
  "nonce": 15173653,
  "bits": "1d00ffff",
  "difficulty": 1,
  "chainwork": "000000000000000000000000000000000000000000000000000022f922f922f9",
  "nTx": 1,
  "previousblockhash": "000000002baf5fc1698949b53091f2a20958ccd95950e9c1a0ea748cd89537bb",
  "nextblockhash": "000000001117ac12d7d84f4ba7331c2e7d1d1f38eda45f63ba726f30c54f5bdc",
  "strippedsize": 216,
  "size": 216,
  "weight": 864,
  "tx": [
    {
      "txid": "6b7792e345728953877d08dd9989eebf865e218d6d9410c7b44a57c647116992",
      "hash": "6b7792e345728953877d08dd9989eebf865e218d6d9410c7b44a57c647116992",
      "version": 1,
      "size": 135,
      "vsize": 135,
      "weight": 540,
      "locktime": 0,
      "vin": [
        {
          "coinbase": "04ffff001d02ac0d",
          "sequence": 4294967295
        }
      ],
      "vout": [
        {
          "value": 50.0,
          "n": 0,
          "scriptPubKey": {
            "asm": "04037ce9f0b6b6b6633d1927cc687f0b64a2b38953e6085b1422e2eeed0d8ee71514e6844f13c4377a07b29f5dba7c2e7a5ff76b0325f012159fb6d9e364f8edbe OP_CHECKSIG",
            "desc": "pk(04037ce9f0b6b6b6633d1927cc687f0b64a2b38953e6085b1422e2eeed0d8ee71514e6844f13c4377a07b29f5dba7c2e7a5ff76b0325f012159fb6d9e364f8edbe)#wa8x4tfu",
            "hex": "4104037ce9f0b6b6b6633d1927cc687f0b64a2b38953e6085b1422e2eeed0d8ee71514e6844f13c4377a07b29f5dba7c2e7a5ff76b0325f012159fb6d9e364f8edbeac",
            "type": "pubkey"
          }
        }
      ],
      "hex": "01000000010000000000000000000000000000000000000000000000000000000000000000ffffffff0804ffff001d02ac0dffffffff0100f2052a01000000434104037ce9f0b6b6b6633d1927cc687f0b64a2b38953e6085b1422e2eeed0d8ee71514e6844f13c4377a07b29f5dba7c2e7a5ff76b0325f012159fb6d9e364f8edbeac00000000"
    }
  ]
}