{
  "hash": "00000000e474895c09bcdaf9261845960b35ea54ed3ecaf60d8a392940f1f3f9",
  "confirmations": 52179,
  "height": 450,
  "version": 1,
  "versionHex": "00000001",
  "merkleroot": "d8bb7a39f85135c14c37c8d370c97d642b907a791dd235793061e86e094c8d96",
  "time": 1231936030,
  "mediantime": 1231932001,
  "nonce": 87993685,
  "bits": "1d00ffff",
  "difficulty": 1,
  "chainwork": "000000000000000000000000000000000000000000000000000001c301c301c3",
  "nTx": 1,
  "previousblockhash": "0000000016245606f39a8b3ba658065afd77c3e722031d3da6913646e5e7e5f6",
  "nextblockhash": "00000000816d44ea23b86ccf0b98736ee06d66e2af72f0f542976f0a92bcea98",
  "strippedsize": 216,
  "size": 216,
  "weight": 864,
  "tx": [
    {
      "txid": "d8bb7a39f85135c14c37c8d370c97d642b907a791dd235793061e86e094c8d96",
      "hash": "d8bb7a39f85135c14c37c8d370c97d642b907a791dd235793061e86e094c8d96",
      "version": 1,
      "size": 135,
      "vsize": 135,
      "weight": 540,
      "locktime": 0,
      "vin": [
        {
          "coinbase": "04ffff001d02a500",
          "sequence": 4294967295
        }
      ],
      "vout": [
        {
          "value": 50.0,
          "n": 0,
          "scriptPubKey": {
            "asm": "04081f4dee652ef11e8b315b00f8705a4e02db04702ba13a1fc51808a478a3b2247ba888cc62ad30e4152ec30bae065fb3bab994c8dc8e776f268aed570ea33617 OP_CHECKSIG",
            "desc": "pk(04081f4dee652ef11e8b315b00f8705a4e02db04702ba13a1fc51808a478a3b2247ba888cc62ad30e4152ec30bae065fb3bab994c8dc8e776f268aed570ea33617)#rmfxcx44",
            "hex": "4104081f4dee652ef11e8b315b00f8705a4e02db04702ba13a1fc51808a478a3b2247ba888cc62ad30e4152ec30bae065fb3bab994c8dc8e776f268aed570ea33617ac",
            "type": "pubkey"
          }
        }
      ],
      "hex": "01000000010000000000000000000000000000000000000000000000000000000000000000ffffffff0804ffff001d02a500ffffffff0100f2052a01000000434104081f4dee652ef11e8b315b00f8705a4e02db04702ba13a1fc51808a478a3b2247ba888cc62ad30e4152ec30bae065fb3bab994c8dc8e776f268aed570ea33617ac00000000"
    }
  ]
}