{
  "hash": "000000009b2fb1f7423e64170bdc70f65d5a2ff9b51201e87e04d8f93a550b63",
  "confirmations": 50845,
  "height": 2253,
  "version": 1,
  "versionHex": "00000001",
  "merkleroot": "87939597a8d411e7ae22bafad3f1e96394e218166cc6ef3d39311a3ee0583a8a",
  "time": 1233248119,
  "mediantime": 1233246251,
  "nonce": 144085612,
  "bits": "1d00ffff",
  "difficulty": 1,
  "chainwork": "000000000000000000000000000000000000000000000000000008ce08ce08ce",
  "nTx": 1,
  "previousblockhash": "000000004fb7e21c803fbcea643b54990da805a851e11cf5fc17af614a00c9e5",
  "nextblockhash": "0000000084c67b198b88497ccf47fc0d136f72ab463ab25e399502d254f62aa1",
  "strippedsize": 215,
  "size": 215,
  "weight": 860,
  "tx": [
    {
      "txid": "87939597a8d411e7ae22bafad3f1e96394e218166cc6ef3d39311a3ee0583a8a",
      "hash": "87939597a8d411e7ae22bafad3f1e96394e218166cc6ef3d39311a3ee0583a8a",
      "version": 1,
      "size": 134,
      "vsize": 134,
      "weight": 536,
      "locktime": 0,
      "vin": [
        {
          "coinbase": "04ffff001d0157",
          "sequence": 4294967295
        }
      ],
      "vout": [
        {
          "value": 50.0,
          "n": 0,
          "scriptPubKey": {
            "asm": "04d35bba60917464406a0db6601def80d72472ddad95785a1b3766d689a14f5fb2055aad1319f2f056a67d60fb442387e27239bf54e8b6a42d2415a2d6c9c6dc13 OP_CHECKSIG",
            "desc": "pk(04d35bba60917464406a0db6601def80d72472ddad95785a1b3766d689a14f5fb2055aad1319f2f056a67d60fb442387e27239bf54e8b6a42d2415a2d6c9c6dc13)#m9k6vhf4",
            "hex": "4104d35bba60917464406a0db6601def80d72472ddad95785a1b3766d689a14f5fb2055aad1319f2f056a67d60fb442387e27239bf54e8b6a42d2415a2d6c9c6dc13ac",
            "type": "pubkey"
          }
        }
      ],
      "hex": "01000000010000000000000000000000000000000000000000000000000000000000000000ffffffff0704ffff001d0157ffffffff0100f2052a01000000434104d35bba60917464406a0db6601def80d72472ddad95785a1b3766d689a14f5fb2055aad1319f2f056a67d60fb442387e27239bf54e8b6a42d2415a2d6c9c6dc13ac00000000"
    }
  ]
}