{
  "hash": "00000000eb0feb905854af45cce9b47ab8491f547298de24d8cd40744c769799",
  "confirmations": 44851,
  "height": 8247,
  "version": 1,
  "versionHex": "00000001",
  "merkleroot": "ed0d15f75445e1bf767a620a060848581098635bfa2320a57ff2a294404766a8",
  "time": 1237694692,
  "mediantime": 1237691467,
  "nonce": 2908348696,
  "bits": "1d00ffff",
  "difficulty": 1,
  "chainwork": "0000000000000000000000000000000000000000000000000000203820382038",
  "nTx": 1,
  "previousblockhash": "0000000095ac54894d620c90f936b47b434656cb938defe5892ec89b94942460",
  "nextblockhash": "00000000a5313d0552004c89e5f08bf82e7deeb89e01b1c3134b3ff158b8c447",
  "strippedsize": 216,
  "size": 216,
  "weight": 864,
  "tx": [
    {
      "txid": "ed0d15f75445e1bf767a620a060848581098635bfa2320a57ff2a294404766a8",
      "hash": "ed0d15f75445e1bf767a620a060848581098635bfa2320a57ff2a294404766a8",
      "version": 1,
      "size": 135,
      "vsize": 135,
      "weight": 540,
      "locktime": 0,
      "vin": [
        {
          "coinbase": "04ffff001d027503",
          "sequence": 4294967295
        }
      ],
      "vout": [
        {
          "value": 50.0,
          "n": 0,
          "scriptPubKey": {
            "asm": "044f7581b1e1eaebcbedddd31d28f6a4d80fd947f0fea56167be7eee00fe83a80b350da4cc118dd2350d2bc48fa6c0e77314375ff8650d94e662945c953c050656 OP_CHECKSIG",
            "desc": "pk(044f7581b1e1eaebcbedddd31d28f6a4d80fd947f0fea56167be7eee00fe83a80b350da4cc118dd2350d2bc48fa6c0e77314375ff8650d94e662945c953c050656)#yy7q7mn3",
            "hex": "41044f7581b1e1eaebcbedddd31d28f6a4d80fd947f0fea56167be7eee00fe83a80b350da4cc118dd2350d2bc48fa6c0e77314375ff8650d94e662945c953c050656ac",
            "type": "pubkey"
          }
        }
      ],
      "hex": "01000000010000000000000000000000000000000000000000000000000000000000000000ffffffff0804ffff001d027503ffffffff0100f2052a010000004341044f7581b1e1eaebcbedddd31d28f6a4d80fd947f0fea56167be7eee00fe83a80b350da4cc118dd2350d2bc48fa6c0e77314375ff8650d94e662945c953c050656ac00000000"
    }
  ]
}