{
  "hash": "000000000e1d12b6db7849adac4a60d7af56e6d3b5c1087d64aae1444dad6a34",
  "confirmations": 52305,
  "height": 793,
  "version": 1,
  "versionHex": "00000001",
  "merkleroot": "8f77041772a4d9cb93cbb57f0ab274413386feb6f2572060d57163e5457eaa09",
  "time": 1232186294,
  "mediantime": 1232180896,
  "nonce": 1421751595,
  "bits": "1d00ffff",
  "difficulty": 1,
  "chainwork": "0000000000000000000000000000000000000000000000000000031a031a031a",
  "nTx": 1,
  "previousblockhash": "00000000be17c92a1664248ec855e4b4a930bfc492defe7a9428d80e5f1c1211",
  "nextblockhash": "000000006470ca6145469a3b54dba5c1a03c54f330e036061571d580b7023ee2",
  "strippedsize": 216,
  "size": 216,
  "weight": 864,
  "tx": [
    {
      "txid": "8f77041772a4d9cb93cbb57f0ab274413386feb6f2572060d57163e5457eaa09",
      "hash": "8f77041772a4d9cb93cbb57f0ab274413386feb6f2572060d57163e5457eaa09",
      "version": 1,
      "size": 135,
      "vsize": 135,
      "weight": 540,
      "locktime": 0,
      "vin": [
        {
          "coinbase": "04ffff001d025701",
          "sequence": 4294967295
        }
      ],
      "vout": [
        {
          "value": 50.0,
          "n": 0,
          "scriptPubKey": {
            "asm": "04a4eabda54d1cc2488abf9ce26a8c1f2ab9fab9296436d8dc3f07ebf7afbcb83322fcc088fc6cf56e3567cb3e5bc9ae236450b44f2be34e3a0b7b44cb04239ce2 OP_CHECKSIG",
            "desc": "pk(04a4eabda54d1cc2488abf9ce26a8c1f2ab9fab9296436d8dc3f07ebf7afbcb83322fcc088fc6cf56e3567cb3e5bc9ae236450b44f2be34e3a0b7b44cb04239ce2)#u9c70ruw",
            "hex": "4104a4eabda54d1cc2488abf9ce26a8c1f2ab9fab9296436d8dc3f07ebf7afbcb83322fcc088fc6cf56e3567cb3e5bc9ae236450b44f2be34e3a0b7b44cb04239ce2ac",
            "type": "pubkey"
          }
        }
      ],
      "hex": "01000000010000000000000000000000000000000000000000000000000000000000000000ffffffff0804ffff001d025701ffffffff0100f2052a01000000434104a4eabda54d1cc2488abf9ce26a8c1f2ab9fab9296436d8dc3f07ebf7afbcb83322fcc088fc6cf56e3567cb3e5bc9ae236450b44f2be34e3a0b7b44cb04239ce2ac00000000"
    }
  ]
}