{
  "hash": "00000000a6eacde42365a4e51b957cb29c21d8d52c217c058d5a59818a110abb",
  "confirmations": 43624,
  "height": 9474,
  "version": 1,
  "versionHex": "00000001",
  "merkleroot": "3172c1499bf9f1ed0444798412fd60dbef22b716166e3b7adcecefc24895faf3",
  "time": 1238609830,
  "mediantime": 1238604881,
  "nonce": 39106841,
  "bits": "1d00ffff",
  "difficulty": 1,
  "chainwork": "0000000000000000000000000000000000000000000000000000250325032503",
  "nTx": 1,
  "previousblockhash": "000000006c6fc6a9889ec49f9468ec720b693881a62376ae61c9206cca4c79aa",
  "nextblockhash": "000000003bb574ce1cf1243e0f55ce19ec1a96af1998f77b4a627801faff3a0e",
  "strippedsize": 215,
  "size": 215,
  "weight": 860,
  "tx": [
    {
      "txid": "3172c1499bf9f1ed0444798412fd60dbef22b716166e3b7adcecefc24895faf3",
      "hash": "3172c1499bf9f1ed0444798412fd60dbef22b716166e3b7adcecefc24895faf3",
      "version": 1,
      "size": 134,
      "vsize": 134,
      "weight": 536,
      "locktime": 0,
      "vin": [
        {
          "coinbase": "04ffff001d0158",
          "sequence": 4294967295
        }
      ],
      "vout": [
        {
          "value": 50.0,
          "n": 0,
          "scriptPubKey": {
            "asm": "04b70477d369e97db003cbdd94f3cec39e180ab2d74cd1405679c7ba9674ca3b8a9706c77ab287524d0ed1c06ad1e106cfd014412ffe172e9164de0bd1da1735f1 OP_CHECKSIG",
            "desc": "pk(04b70477d369e97db003cbdd94f3cec39e180ab2d74cd1405679c7ba9674ca3b8a9706c77ab287524d0ed1c06ad1e106cfd014412ffe172e9164de0bd1da1735f1)#dans8euq",
            "hex": "4104b70477d369e97db003cbdd94f3cec39e180ab2d74cd1405679c7ba9674ca3b8a9706c77ab287524d0ed1c06ad1e106cfd014412ffe172e9164de0bd1da1735f1ac",
            "type": "pubkey"
          }
        }
      ],
      "hex": "01000000010000000000000000000000000000000000000000000000000000000000000000ffffffff0704ffff001d0158ffffffff0100f2052a01000000434104b70477d369e97db003cbdd94f3cec39e180ab2d74cd1405679c7ba9674ca3b8a9706c77ab287524d0ed1c06ad1e106cfd014412ffe172e9164de0bd1da1735f1ac00000000"
    }
  ]
}