{
  "hash": "00000000b899b23a550aa2d3e06d63dcf9da622a287b0dd2a21d2d9e9fd9a976",
  "confirmations": 52222,
  "height": 396,
  "version": 1,
  "versionHex": "00000001",
  "merkleroot": "1235bc4984c505e2d9fcf3e83b65d2fbb42bdb1605f756e312bb49654724ded8",
  "time": 1231898751,
  "mediantime": 1231896614,
  "nonce": 523504930,
  "bits": "1d00ffff",
  "difficulty": 1,
  "chainwork": "0000000000000000000000000000000000000000000000000000018d018d018d",
  "nTx": 1,
  "previousblockhash": "00000000dae1bd72006c1f3f6c10763440906e7e7afbf1ffbd51ec020c3a10a8",
  "nextblockhash": "0000000081c0ab052aac47e3ad0dbfab9ca3475e6d8d136a53a698bbced84ee4",
  "strippedsize": 216,
  "size": 216,
  "weight": 864,
  "tx": [
    {
      "txid": "1235bc4984c505e2d9fcf3e83b65d2fbb42bdb1605f756e312bb49654724ded8",
      "hash": "1235bc4984c505e2d9fcf3e83b65d2fbb42bdb1605f756e312bb49654724ded8",
      "version": 1,
      "size": 135,
      "vsize": 135,
      "weight": 540,
      "locktime": 0,
      "vin": [
        {
          "coinbase": "04ffff001d026702",
          "sequence": 4294967295
        }
      ],
      "vout": [
        {
          "value": 50.0,
          "n": 0,
          "scriptPubKey": {
            "asm": "04aadcac168ef4c4cc7a1165755b1235043c3ee87effbe1b1d00677d684978fa5df6eeca25032ec850336594337daf71845a3f308a92d6261cd82e35e21b112be0 OP_CHECKSIG",
            "desc": "pk(04aadcac168ef4c4cc7a1165755b1235043c3ee87effbe1b1d00677d684978fa5df6eeca25032ec850336594337daf71845a3f308a92d6261cd82e35e21b112be0)#29k5jr2y",
            "hex": "4104aadcac168ef4c4cc7a1165755b1235043c3ee87effbe1b1d00677d684978fa5df6eeca25032ec850336594337daf71845a3f308a92d6261cd82e35e21b112be0ac",
            "type": "pubkey"
          }
        }
      ],
      "hex": "01000000010000000000000000000000000000000000000000000000000000000000000000ffffffff0804ffff001d026702ffffffff0100f2052a01000000434104aadcac168ef4c4cc7a1165755b1235043c3ee87effbe1b1d00677d684978fa5df6eeca25032ec850336594337daf71845a3f308a92d6261cd82e35e21b112be0ac00000000"
    }
  ]
}