{
  "hash": "0000000081ac433c596a735022c5e1f19afcce061a68da4e8547521f647e5ca4",
  "confirmations": 44867,
  "height": 8231,
  "version": 1,
  "versionHex": "00000001",
  "merkleroot": "9f69e037915617b131d266655d2e50f8be54ee5e56efb5ca076eaab4aed297e0",
  "time": 1237683291,
  "mediantime": 1237657580,
  "nonce": 3163984483,
  "bits": "1d00ffff",
  "difficulty": 1,
  "chainwork": "0000000000000000000000000000000000000000000000000000202820282028",
  "nTx": 1,
  "previousblockhash": "00000000ace02fba9eb2b25bd11b8c632343111cdac17b25071557b5c788cb47",
  "nextblockhash": "0000000077d98399e6b17d1e44bc2e3b2527ca10c174b3d736bfa5ff0e4d7e83",
  "strippedsize": 215,
  "size": 215,
  "weight": 860,
  "tx": [
    {
      "txid": "9f69e037915617b131d266655d2e50f8be54ee5e56efb5ca076eaab4aed297e0",
      "hash": "9f69e037915617b131d266655d2e50f8be54ee5e56efb5ca076eaab4aed297e0",
      "version": 1,
      "size": 134,
      "vsize": 134,
      "weight": 536,
      "locktime": 0,
      "vin": [
        {
          "coinbase": "04ffff001d0164",
          "sequence": 4294967295
        }
      ],
      "vout": [
        {
          "value": 50.0,
          "n": 0,
          "scriptPubKey": {
            "asm": "0460107dbab75e627d286bad8f662f911ff4b1b7e92c9e742bc8580ba344d3ce2d842851b0020679f7f1bd1a695071cee28987817a9bb3b8642b69acea7f421b44 OP_CHECKSIG",
            "desc": "pk(0460107dbab75e627d286bad8f662f911ff4b1b7e92c9e742bc8580ba344d3ce2d842851b0020679f7f1bd1a695071cee28987817a9bb3b8642b69acea7f421b44)#yx6uw927",
            "hex": "410460107dbab75e627d286bad8f662f911ff4b1b7e92c9e742bc8580ba344d3ce2d842851b0020679f7f1bd1a695071cee28987817a9bb3b8642b69acea7f421b44ac",
            "type": "pubkey"
          }
        }
      ],
      "hex": "01000000010000000000000000000000000000000000000000000000000000000000000000ffffffff0704ffff001d0164ffffffff0100f2052a0100000043410460107dbab75e627d286bad8f662f911ff4b1b7e92c9e742bc8580ba344d3ce2d842851b0020679f7f1bd1a695071cee28987817a9bb3b8642b69acea7f421b44ac00000000"
    }
  ]
}