{
  "hash": "000000008322a2d1dabcacd02e3f54e4007d250ec34c12a53b7dc64ea9e25fa3",
  "confirmations": 44000,
  "height": 9098,
  "version": 1,
  "versionHex": "00000001",
  "merkleroot": "ea3a7dbc4ca0ab04011f6321f238ed3f7f749aa824feda0e2dd80dfc8d4b6d24",
  "time": 1238328753,
  "mediantime": 1238326852,
  "nonce": 87689641,
  "bits": "1d00ffff",
  "difficulty": 1,
  "chainwork": "0000000000000000000000000000000000000000000000000000238b238b238b",
  "nTx": 1,
  "previousblockhash": "00000000941c213fe9c2e0144ab9ef19068acdbba8b394e77407e779b5728138",
  "nextblockhash": "0000000088693bf43fde8cf1b2c29b3ddf40d1242781fe23b38fca9b5865b5dd",
  "strippedsize": 215,
  "size": 215,
  "weight": 860,
  "tx": [
    {
      "txid": "ea3a7dbc4ca0ab04011f6321f238ed3f7f749aa824feda0e2dd80dfc8d4b6d24",
      "hash": "ea3a7dbc4ca0ab04011f6321f238ed3f7f749aa824feda0e2dd80dfc8d4b6d24",
      "version": 1,
      "size": 134,
      "vsize": 134,
      "weight": 536,
      "locktime": 0,
      "vin": [
        {
          "coinbase": "04ffff001d0172",
          "sequence": 4294967295
        }
      ],
      "vout": [
        {
          "value": 50.0,
          "n": 0,
          "scriptPubKey": {
            "asm": "041d3698fcc0aa7188ebadd7c73ed54e762c3355af1f9ed36861d3d421a48bdd103c7022f2b92b82e12c73464c746d94bb5a251b129ef0d3e8096fc8e4be2c6dd8 OP_CHECKSIG",
            "desc": "pk(041d3698fcc0aa7188ebadd7c73ed54e762c3355af1f9ed36861d3d421a48bdd103c7022f2b92b82e12c73464c746d94bb5a251b129ef0d3e8096fc8e4be2c6dd8)#stfwlxww",
            "hex": "41041d3698fcc0aa7188ebadd7c73ed54e762c3355af1f9ed36861d3d421a48bdd103c7022f2b92b82e12c73464c746d94bb5a251b129ef0d3e8096fc8e4be2c6dd8ac",
            "type": "pubkey"
          }
        }
      ],
      "hex": "01000000010000000000000000000000000000000000000000000000000000000000000000ffffffff0704ffff001d0172ffffffff0100f2052a010000004341041d3698fcc0aa7188ebadd7c73ed54e762c3355af1f9ed36861d3d421a48bdd103c7022f2b92b82e12c73464c746d94bb5a251b129ef0d3e8096fc8e4be2c6dd8ac00000000"
    }
  ]
}