{
  "hash": "000000003035b7da49f22c5a5356017cc50813dbb2b6c90f0a1544bebcbeb50a",
  "confirmations": 43581,
  "height": 9517,
  "version": 1,
  "versionHex": "00000001",
  "merkleroot": "6024daf6f75f01bf5185caad4a2fe51a9ad1ff4cb8ea2ec126efe6dee171f112",
  "time": 1238639359,
  "mediantime": 1238637580,
  "nonce": 3358112815,
  "bits": "1d00ffff",
  "difficulty": 1,
  "chainwork": "0000000000000000000000000000000000000000000000000000252e252e252e",
  "nTx": 1,
  "previousblockhash": "00000000559e947f8b14b23a3270fd3c222164b797d90269dfc2efe59e7d5183",
  "nextblockhash": "00000000ca4019c36fc34ce3485f0bf44ac2439c593b11399059a8ba421b2a97",
  "strippedsize": 216,
  "size": 216,
  "weight": 864,
  "tx": [
    {
      "txid": "6024daf6f75f01bf5185caad4a2fe51a9ad1ff4cb8ea2ec126efe6dee171f112",
      "hash": "6024daf6f75f01bf5185caad4a2fe51a9ad1ff4cb8ea2ec126efe6dee171f112",
      "version": 1,
      "size": 135,
      "vsize": 135,
      "weight": 540,
      "locktime": 0,
      "vin": [
        {
          "coinbase": "04ffff001d029405",
          "sequence": 4294967295
        }
      ],
      "vout": [
        {
          "value": 50.0,
          "n": 0,
          "scriptPubKey": {
            "asm": "04ce1d3141f6cb77b188b8c0768d64c06c68bbc1a15d6dc62062a1f8410d05234dff64620f73800262ee78db5afb2d6b7b3c8a30039c0e94e181313e5121656a13 OP_CHECKSIG",
            "desc": "pk(04ce1d3141f6cb77b188b8c0768d64c06c68bbc1a15d6dc62062a1f8410d05234dff64620f73800262ee78db5afb2d6b7b3c8a30039c0e94e181313e5121656a13)#wsd0g9t3",
            "hex": "4104ce1d3141f6cb77b188b8c0768d64c06c68bbc1a15d6dc62062a1f8410d05234dff64620f73800262ee78db5afb2d6b7b3c8a30039c0e94e181313e5121656a13ac",
            "type": "pubkey"
          }
        }
      ],
      "hex": "01000000010000000000000000000000000000000000000000000000000000000000000000ffffffff0804ffff001d029405ffffffff0100f2052a01000000434104ce1d3141f6cb77b188b8c0768d64c06c68bbc1a15d6dc62062a1f8410d05234dff64620f73800262ee78db5afb2d6b7b3c8a30039c0e94e181313e5121656a13ac00000000"
    }
  ]
}