{
  "hash": "00000000284439b700b0f546c490020308dde23bf72f1ee15253af6bdd19468d",
  "confirmations": 52323,
  "height": 775,
  "version": 1,
  "versionHex": "00000001",
  "merkleroot": "330d3cff164f1e6f9900315dd2c8a52cf88f1572f0a7f367fca0b65442918839",
  "time": 1232171060,
  "mediantime": 1232168140,
  "nonce": 1890642965,
  "bits": "1d00ffff",
  "difficulty": 1,
  "chainwork": "0000000000000000000000000000000000000000000000000000030803080308",
  "nTx": 1,
  "previousblockhash": "000000008f858bef0b058c6d32680ccdb7d1bf4c35e97bd73fbe1b42f5069829",
  "nextblockhash": "00000000a03ddc295497366ea1fd8a80e890c7d9f430771236c83091ff6bbf6e",
  "strippedsize": 216,
  "size": 216,
  "weight": 864,
  "tx": [
    {
      "txid": "330d3cff164f1e6f9900315dd2c8a52cf88f1572f0a7f367fca0b65442918839",
      "hash": "330d3cff164f1e6f9900315dd2c8a52cf88f1572f0a7f367fca0b65442918839",
      "version": 1,
      "size": 135,
      "vsize": 135,
      "weight": 540,
      "locktime": 0,
      "vin": [
        {
          "coinbase": "04ffff001d02ff00",
          "sequence": 4294967295
        }
      ],
      "vout": [
        {
          "value": 50.0,
          "n": 0,
          "scriptPubKey": {
            "asm": "04ba684d4334c601fccb54cd833d58e258b599e448b07f5d5ee4ee3c6916d58a0e5b1258ff449a4b28dc3a837762ca27adbde5b2731028cd7d9cd19548d9c49e40 OP_CHECKSIG",
            "desc": "pk(04ba684d4334c601fccb54cd833d58e258b599e448b07f5d5ee4ee3c6916d58a0e5b1258ff449a4b28dc3a837762ca27adbde5b2731028cd7d9cd19548d9c49e40)#v0c6vvns",
            "hex": "4104ba684d4334c601fccb54cd833d58e258b599e448b07f5d5ee4ee3c6916d58a0e5b1258ff449a4b28dc3a837762ca27adbde5b2731028cd7d9cd19548d9c49e40ac",
            "type": "pubkey"
          }
        }
      ],
      "hex": "01000000010000000000000000000000000000000000000000000000000000000000000000ffffffff0804ffff001d02ff00ffffffff0100f2052a01000000434104ba684d4334c601fccb54cd833d58e258b599e448b07f5d5ee4ee3c6916d58a0e5b1258ff449a4b28dc3a837762ca27adbde5b2731028cd7d9cd19548d9c49e40ac00000000"
    }
  ]
}