{
  "hash": "00000000dcffd6a47d1be3e8a0ed45b50dcb952da7e737d03500d5fcfdc9b8b4",
  "confirmations": 47126,
  "height": 5972,
  "version": 1,
  "versionHex": "00000001",
  "merkleroot": "21887eb0cf1b952a6ec6b5fc790ecf2d6427c7eeadefed91bcb0e849156dd297",
  "time": 1235906033,
  "mediantime": 1235901943,
  "nonce": 4098595586,
  "bits": "1d00ffff",
  "difficulty": 1,
  "chainwork": "0000000000000000000000000000000000000000000000000000175517551755",
  "nTx": 1,
  "previousblockhash": "000000008e50d4fcb8e8dfa0d9f5679882a730f90d88be2580f2763a199b985e",
  "nextblockhash": "00000000a007bc9cee66fa22462d0a43627e3e93700dbfc4396b05ea1b9a4635",
  "strippedsize": 216,
  "size": 216,
  "weight": 864,
  "tx": [
    {
      "txid": "21887eb0cf1b952a6ec6b5fc790ecf2d6427c7eeadefed91bcb0e849156dd297",
      "hash": "21887eb0cf1b952a6ec6b5fc790ecf2d6427c7eeadefed91bcb0e849156dd297",
      "version": 1,
      "size": 135,
      "vsize": 135,
      "weight": 540,
      "locktime": 0,
      "vin": [
        {
          "coinbase": "04ffff001d026004",
          "sequence": 4294967295
        }
      ],
      "vout": [
        {
          "value": 50.0,
          "n": 0,
          "scriptPubKey": {
            "asm": "04ed4a4d3414bb2ff0f74c1c26918f459bd63b7ed8860fac0a303ed990c6f714ab09a06538e14af9a6e9cfad02e6f78601313aab38b0f77fe536cc8211479fc6f1 OP_CHECKSIG",
            "desc": "pk(04ed4a4d3414bb2ff0f74c1c26918f459bd63b7ed8860fac0a303ed990c6f714ab09a06538e14af9a6e9cfad02e6f78601313aab38b0f77fe536cc8211479fc6f1)#2u2jdzwg",
            "hex": "4104ed4a4d3414bb2ff0f74c1c26918f459bd63b7ed8860fac0a303ed990c6f714ab09a06538e14af9a6e9cfad02e6f78601313aab38b0f77fe536cc8211479fc6f1ac",
            "type": "pubkey"
          }
        }
      ],
      "hex": "01000000010000000000000000000000000000000000000000000000000000000000000000ffffffff0804ffff001d026004ffffffff0100f2052a01000000434104ed4a4d3414bb2ff0f74c1c26918f459bd63b7ed8860fac0a303ed990c6f714ab09a06538e14af9a6e9cfad02e6f78601313aab38b0f77fe536cc8211479fc6f1ac00000000"
    }
  ]
}