{
  "hash": "00000000322c109c030efc12ac5646c3100ce7e33deb3c605560bcaa0459cac5",
  "confirmations": 47179,
  "height": 5919,
  "version": 1,
  "versionHex": "00000001",
  "merkleroot": "0bf5e97ffdcbd323f3ee47480586e71204608033a598b183837fe1bb14bb20d3",
  "time": 1235860503,
  "mediantime": 1235855382,
  "nonce": 1824213816,
  "bits": "1d00ffff",
  "difficulty": 1,
  "chainwork": "0000000000000000000000000000000000000000000000000000172017201720",
  "nTx": 1,
  "previousblockhash": "0000000036756e204db33d761a29c187431b31c126cfdffe3aec05ea1a0572c2",
  "nextblockhash": "000000004186d7b78d2f7ad10b70e32015a8869680063689546b734fcabbe896",
  "strippedsize": 216,
  "size": 216,
  "weight": 864,
  "tx": [
    {
      "txid": "0bf5e97ffdcbd323f3ee47480586e71204608033a598b183837fe1bb14bb20d3",
      "hash": "0bf5e97ffdcbd323f3ee47480586e71204608033a598b183837fe1bb14bb20d3",
      "version": 1,
      "size": 135,
      "vsize": 135,
      "weight": 540,
      "locktime": 0,
      "vin": [
        {
          "coinbase": "04ffff001d026903",
          "sequence": 4294967295
        }
      ],
      "vout": [
        {
          "value": 50.0,
          "n": 0,
          "scriptPubKey": {
            "asm": "045a32450626a19eaf1087b8193e1d231bdf3f83cc1c7eb320f1555b48b5329b47947a9f389cd3bd6eb544aad530a37c2fcaa75e5a6000d610282d70fce4f6e005 OP_CHECKSIG",
            "desc": "pk(045a32450626a19eaf1087b8193e1d231bdf3f83cc1c7eb320f1555b48b5329b47947a9f389cd3bd6eb544aad530a37c2fcaa75e5a6000d610282d70fce4f6e005)#gqvc35x4",
            "hex": "41045a32450626a19eaf1087b8193e1d231bdf3f83cc1c7eb320f1555b48b5329b47947a9f389cd3bd6eb544aad530a37c2fcaa75e5a6000d610282d70fce4f6e005ac",
            "type": "pubkey"
          }
        }
      ],
      "hex": "01000000010000000000000000000000000000000000000000000000000000000000000000ffffffff0804ffff001d026903ffffffff0100f2052a010000004341045a32450626a19eaf1087b8193e1d231bdf3f83cc1c7eb320f1555b48b5329b47947a9f389cd3bd6eb544aad530a37c2fcaa75e5a6000d610282d70fce4f6e005ac00000000"
    }
  ]
}