{
  "hash": "0000000060a235bdf172870b0c60ed0d48a1092d3085453f3f7c37b555efaa90",
  "confirmations": 44626,
  "height": 8472,
  "version": 1,
  "versionHex": "00000001",
  "merkleroot": "3bf780678de8e18431392d926f230e1e75cf35b8e33b983f449fd4c965acd66c",
  "time": 1237847070,
  "mediantime": 1237843155,
  "nonce": 162167178,
  "bits": "1d00ffff",
  "difficulty": 1,
  "chainwork": "0000000000000000000000000000000000000000000000000000211921192119",
  "nTx": 1,
  "previousblockhash": "000000005ad203e8aa4c00fe3ccc9097b33c893d04b46e1f35f210aea77b2ba7",
  "nextblockhash": "000000009e77338b1278e3217b90f4a7c88cb53bb01bd666d99f0b89ecdf846b",
  "strippedsize": 216,
  "size": 216,
  "weight": 864,
  "tx": [
    {
      "txid": "3bf780678de8e18431392d926f230e1e75cf35b8e33b983f449fd4c965acd66c",
      "hash": "3bf780678de8e18431392d926f230e1e75cf35b8e33b983f449fd4c965acd66c",
      "version": 1,
      "size": 135,
      "vsize": 135,
      "weight": 540,
      "locktime": 0,
      "vin": [
        {
          "coinbase": "04ffff001d02df01",
          "sequence": 4294967295
        }
      ],
      "vout": [
        {
          "value": 50.0,
          "n": 0,
          "scriptPubKey": {
            "asm": "048c412f092f387624bb6d47729dee46fb176c7aaf1409b7689c29c65419343fc687a79c68b71ca04a620be268c46cee41930c6ac700e8c3ade34c96863fe40098 OP_CHECKSIG",
            "desc": "pk(048c412f092f387624bb6d47729dee46fb176c7aaf1409b7689c29c65419343fc687a79c68b71ca04a620be268c46cee41930c6ac700e8c3ade34c96863fe40098)#yk4xjzmd",
            "hex": "41048c412f092f387624bb6d47729dee46fb176c7aaf1409b7689c29c65419343fc687a79c68b71ca04a620be268c46cee41930c6ac700e8c3ade34c96863fe40098ac",
            "type": "pubkey"
          }
        }
      ],
      "hex": "01000000010000000000000000000000000000000000000000000000000000000000000000ffffffff0804ffff001d02df01ffffffff0100f2052a010000004341048c412f092f387624bb6d47729dee46fb176c7aaf1409b7689c29c65419343fc687a79c68b71ca04a620be268c46cee41930c6ac700e8c3ade34c96863fe40098ac00000000"
    }
  ]
}