{
  "hash": "00000000ad3dc1d61f61785f8a32a0d8320fba6f391cc1416a68c1e96d950bcd",
  "confirmations": 47540,
  "height": 5558,
  "version": 1,
  "versionHex": "00000001",
  "merkleroot": "c43b86010465dd2dd98035a500b98bc1b88bab186380a635991ae1bf201285e6",
  "time": 1235570026,
  "mediantime": 1235565297,
  "nonce": 1413898519,
  "bits": "1d00ffff",
  "difficulty": 1,
  "chainwork": "000000000000000000000000000000000000000000000000000015b715b715b7",
  "nTx": 1,
  "previousblockhash": "00000000ba76327ceb995f184f5068f68fedb27a530d9c230f005382adab517e",
  "nextblockhash": "00000000254c84df3a90a1d25b54cc77c2e37f8cfb72041b7fe0d3c8db9e93b3",
  "strippedsize": 216,
  "size": 216,
  "weight": 864,
  "tx": [
    {
      "txid": "c43b86010465dd2dd98035a500b98bc1b88bab186380a635991ae1bf201285e6",
      "hash": "c43b86010465dd2dd98035a500b98bc1b88bab186380a635991ae1bf201285e6",
      "version": 1,
      "size": 135,
      "vsize": 135,
      "weight": 540,
      "locktime": 0,
      "vin": [
        {
          "coinbase": "04ffff001d02b606",
          "sequence": 4294967295
        }
      ],
      "vout": [
        {
          "value": 50.0,
          "n": 0,
          "scriptPubKey": {
            "asm": "0404432e432bf2b6307f61d04bb45f7bade59f06c741cebdc33d0cc76f026c3d0ad0bf6020d3d555e2df19b20972a2db1c55f8994e729fb96ff4ef11fc60337474 OP_CHECKSIG",
            "desc": "pk(0404432e432bf2b6307f61d04bb45f7bade59f06c741cebdc33d0cc76f026c3d0ad0bf6020d3d555e2df19b20972a2db1c55f8994e729fb96ff4ef11fc60337474)#y4qe327h",
            "hex": "410404432e432bf2b6307f61d04bb45f7bade59f06c741cebdc33d0cc76f026c3d0ad0bf6020d3d555e2df19b20972a2db1c55f8994e729fb96ff4ef11fc60337474ac",
            "type": "pubkey"
          }
        }
      ],
      "hex": "01000000010000000000000000000000000000000000000000000000000000000000000000ffffffff0804ffff001d02b606ffffffff0100f2052a0100000043410404432e432bf2b6307f61d04bb45f7bade59f06c741cebdc33d0cc76f026c3d0ad0bf6020d3d555e2df19b20972a2db1c55f8994e729fb96ff4ef11fc60337474ac00000000"
    }
  ]
}