{
  "hash": "00000000d58a50dfcfc16330a427305e7868fcbe850eadc63b5a121f3642b774",
  "confirmations": 45672,
  "height": 7426,
  "version": 1,
  "versionHex": "00000001",
  "merkleroot": "5b8c2ad1cfa0bab9067618ab8766c4f88257639d048f53ef18c081b51d19c6ca",
  "time": 1237042181,
  "mediantime": 1237039104,
  "nonce": 4127033906,
  "bits": "1d00ffff",
  "difficulty": 1,
  "chainwork": "00000000000000000000000000000000000000000000000000001d031d031d03",
  "nTx": 1,
  "previousblockhash": "000000005199f3f9c9e872d76ff0fde062a1ddcfd1cac4ff69217893ecfde997",
  "nextblockhash": "000000004c92274a6135a675095eda7ecb759766411d199538bbd44210e2a89f",
  "strippedsize": 216,
  "size": 216,
  "weight": 864,
  "tx": [
    {
      "txid": "5b8c2ad1cfa0bab9067618ab8766c4f88257639d048f53ef18c081b51d19c6ca",
      "hash": "5b8c2ad1cfa0bab9067618ab8766c4f88257639d048f53ef18c081b51d19c6ca",
      "version": 1,
      "size": 135,
      "vsize": 135,
      "weight": 540,
      "locktime": 0,
      "vin": [
        {
          "coinbase": "04ffff001d02e009",
          "sequence": 4294967295
        }
      ],
      "vout": [
        {
          "value": 50.0,
          "n": 0,
          "scriptPubKey": {
            "asm": "04de9c0368554ffd9bb23394996b4b5beff939493e74c64b57599fb887962760de870744aca47a46b20d204df6878bcd1041bca13fcad93d22fed27591baa7ba57 OP_CHECKSIG",
            "desc": "pk(04de9c0368554ffd9bb23394996b4b5beff939493e74c64b57599fb887962760de870744aca47a46b20d204df6878bcd1041bca13fcad93d22fed27591baa7ba57)#swgkladc",
            "hex": "4104de9c0368554ffd9bb23394996b4b5beff939493e74c64b57599fb887962760de870744aca47a46b20d204df6878bcd1041bca13fcad93d22fed27591baa7ba57ac",
            "type": "pubkey"
          }
        }
      ],
      "hex": "01000000010000000000000000000000000000000000000000000000000000000000000000ffffffff0804ffff001d02e009ffffffff0100f2052a01000000434104de9c0368554ffd9bb23394996b4b5beff939493e74c64b57599fb887962760de870744aca47a46b20d204df6878bcd1041bca13fcad93d22fed27591baa7ba57ac00000000"
    }
  ]
}