{
  "hash": "000000009c76994726d17e4caa1676a390e6b2eafbe3faf175f4fbcaee0bf289",
  "confirmations": 52292,
  "height": 806,
  "version": 1,
  "versionHex": "00000001",
  "merkleroot": "84a2c2f6c3a6272b41893a313bef584ee6d0aa3afa34203b5a42dfbc55d2352f",
  "time": 1232198028,
  "mediantime": 1232195440,
  "nonce": 4021050399,
  "bits": "1d00ffff",
  "difficulty": 1,
  "chainwork": "0000000000000000000000000000000000000000000000000000032703270327",
  "nTx": 1,
  "previousblockhash": "000000003f6405145c3d3e36acfeb3aefb090ee17e4e97554882f7dfc2ec4c34",
  "nextblockhash": "00000000793b1b2b35c9d7565ea731452e87a835b79de58f65875879c6c195d8",
  "strippedsize": 216,
  "size": 216,
  "weight": 864,
  "tx": [
    {
      "txid": "84a2c2f6c3a6272b41893a313bef584ee6d0aa3afa34203b5a42dfbc55d2352f",
      "hash": "84a2c2f6c3a6272b41893a313bef584ee6d0aa3afa34203b5a42dfbc55d2352f",
      "version": 1,
      "size": 135,
      "vsize": 135,
      "weight": 540,
      "locktime": 0,
      "vin": [
        {
          "coinbase": "04ffff001d029c01",
          "sequence": 4294967295
        }
      ],
      "vout": [
        {
          "value": 50.0,
          "n": 0,
          "scriptPubKey": {
            "asm": "045c074061fdeb5e61ef85e97caa477aa02175a9fdcddee773c1ca585f841f963672c4e653d5a45ac1d664a872e0e5c1b7b5cd6d00b93c6b5365913e4bf1cac579 OP_CHECKSIG",
            "desc": "pk(045c074061fdeb5e61ef85e97caa477aa02175a9fdcddee773c1ca585f841f963672c4e653d5a45ac1d664a872e0e5c1b7b5cd6d00b93c6b5365913e4bf1cac579)#qq2nq4m0",
            "hex": "41045c074061fdeb5e61ef85e97caa477aa02175a9fdcddee773c1ca585f841f963672c4e653d5a45ac1d664a872e0e5c1b7b5cd6d00b93c6b5365913e4bf1cac579ac",
            "type": "pubkey"
          }
        }
      ],
      "hex": "01000000010000000000000000000000000000000000000000000000000000000000000000ffffffff0804ffff001d029c01ffffffff0100f2052a010000004341045c074061fdeb5e61ef85e97caa477aa02175a9fdcddee773c1ca585f841f963672c4e653d5a45ac1d664a872e0e5c1b7b5cd6d00b93c6b5365913e4bf1cac579ac00000000"
    }
  ]
}