{
  "hash": "000000002c59ee9cb421a4fc9a7e60d549168e3917d47a9cf276e958be8dd015",
  "confirmations": 44295,
  "height": 8803,
  "version": 1,
  "versionHex": "00000001",
  "merkleroot": "7e8d099e7b49d2c57741e36a6fd877bf2d5b07a42e0e9dbc98b8509e53c20571",
  "time": 1238103017,
  "mediantime": 1238099102,
  "nonce": 4219264803,
  "bits": "1d00ffff",
  "difficulty": 1,
  "chainwork": "0000000000000000000000000000000000000000000000000000226422642264",
  "nTx": 1,
  "previousblockhash": "00000000cd741d8b0f40301c7fdc028883816ce467e13e0325e4f8ced3d4b19f",
  "nextblockhash": "00000000a94e1945863d7eef8f7585da1305541c62527f5c3340ee056ee19e00",
  "strippedsize": 216,
  "size": 216,
  "weight": 864,
  "tx": [
    {
      "txid": "7e8d099e7b49d2c57741e36a6fd877bf2d5b07a42e0e9dbc98b8509e53c20571",
      "hash": "7e8d099e7b49d2c57741e36a6fd877bf2d5b07a42e0e9dbc98b8509e53c20571",
      "version": 1,
      "size": 135,
      "vsize": 135,
      "weight": 540,
      "locktime": 0,
      "vin": [
        {
          "coinbase": "04ffff001d02d502",
          "sequence": 4294967295
        }
      ],
      "vout": [
        {
          "value": 50.0,
          "n": 0,
          "scriptPubKey": {
            "asm": "04736f649ea5e86d6d65a3deece069f07b28420d7076662db2193d682c0bd18812b8009c98fe9cc19752aac9f07d9fb60eb8a01d2d0fbad0b3966f577fb31abd1c OP_CHECKSIG",
            "desc": "pk(04736f649ea5e86d6d65a3deece069f07b28420d7076662db2193d682c0bd18812b8009c98fe9cc19752aac9f07d9fb60eb8a01d2d0fbad0b3966f577fb31abd1c)#qwrruqhf",
            "hex": "4104736f649ea5e86d6d65a3deece069f07b28420d7076662db2193d682c0bd18812b8009c98fe9cc19752aac9f07d9fb60eb8a01d2d0fbad0b3966f577fb31abd1cac",
            "type": "pubkey"
          }
        }
      ],
      "hex": "01000000010000000000000000000000000000000000000000000000000000000000000000ffffffff0804ffff001d02d502ffffffff0100f2052a01000000434104736f649ea5e86d6d65a3deece069f07b28420d7076662db2193d682c0bd18812b8009c98fe9cc19752aac9f07d9fb60eb8a01d2d0fbad0b3966f577fb31abd1cac00000000"
    }
  ]
}