{
  "hash": "00000000c7550934ff7d02cdddff93a3ba0904c828d13bae6d844abbb55969e7",
  "confirmations": 51956,
  "height": 1142,
  "version": 1,
  "versionHex": "00000001",
  "merkleroot": "8d4359e768e03dc398007be926f61a3737f28a4ab326bb45329988264b4dec73",
  "time": 1232454225,
  "mediantime": 1232449624,
  "nonce": 3531033350,
  "bits": "1d00ffff",
  "difficulty": 1,
  "chainwork": "0000000000000000000000000000000000000000000000000000047704770477",
  "nTx": 1,
  "previousblockhash": "00000000f306301a73aff3ba71b650691d766d1bf6856c36c398724ce26521d7",
  "nextblockhash": "000000007f36e13704298d9d7075ff829d969f0c4a1cadb46e85542760737573",
  "strippedsize": 216,
  "size": 216,
  "weight": 864,
  "tx": [
    {
      "txid": "8d4359e768e03dc398007be926f61a3737f28a4ab326bb45329988264b4dec73",
      "hash": "8d4359e768e03dc398007be926f61a3737f28a4ab326bb45329988264b4dec73",
      "version": 1,
      "size": 135,
      "vsize": 135,
      "weight": 540,
      "locktime": 0,
      "vin": [
        {
          "coinbase": "04ffff001d02ac07",
          "sequence": 4294967295
        }
      ],
      "vout": [
        {
          "value": 50.0,
          "n": 0,
          "scriptPubKey": {
            "asm": "046bc0f1b5f248b49b5c7f45a74875978710171de76aa4bee1c789c5bbdbbb28fd06cb8605133aba39b48105c3f789f79e8e116d5d82177f51d68a2c77961adeb4 OP_CHECKSIG",
            "desc": "pk(046bc0f1b5f248b49b5c7f45a74875978710171de76aa4bee1c789c5bbdbbb28fd06cb8605133aba39b48105c3f789f79e8e116d5d82177f51d68a2c77961adeb4)#3ps9dwm8",
            "hex": "41046bc0f1b5f248b49b5c7f45a74875978710171de76aa4bee1c789c5bbdbbb28fd06cb8605133aba39b48105c3f789f79e8e116d5d82177f51d68a2c77961adeb4ac",
            "type": "pubkey"
          }
        }
      ],
      "hex": "01000000010000000000000000000000000000000000000000000000000000000000000000ffffffff0804ffff001d02ac07ffffffff0100f2052a010000004341046bc0f1b5f248b49b5c7f45a74875978710171de76aa4bee1c789c5bbdbbb28fd06cb8605133aba39b48105c3f789f79e8e116d5d82177f51d68a2c77961adeb4ac00000000"
    }
  ]
}