{
  "hash": "00000000dbe57169cf2498176385c693c38becd8a1f0a703a4996307d3ec0b7b",
  "confirmations": 44428,
  "height": 8670,
  "version": 1,
  "versionHex": "00000001",
  "merkleroot": "d50c01a3a922115e82e5f25456d40790da2b6fdca720c43c9901a8f9e6b79e24",
  "time": 1237999789,
  "mediantime": 1237996830,
  "nonce": 2860411421,
  "bits": "1d00ffff",
  "difficulty": 1,
  "chainwork": "000000000000000000000000000000000000000000000000000021df21df21df",
  "nTx": 1,
  "previousblockhash": "00000000e5da5e4e1d7a614c5a8ea1adcbf01e7bf3fb4034a71b059338097b47",
  "nextblockhash": "00000000b951eb76ddea6ee3af646beaf46e6d250ca2e9967e9a0528f44822e7",
  "strippedsize": 215,
  "size": 215,
  "weight": 860,
  "tx": [
    {
      "txid": "d50c01a3a922115e82e5f25456d40790da2b6fdca720c43c9901a8f9e6b79e24",
      "hash": "d50c01a3a922115e82e5f25456d40790da2b6fdca720c43c9901a8f9e6b79e24",
      "version": 1,
      "size": 134,
      "vsize": 134,
      "weight": 536,
      "locktime": 0,
      "vin": [
        {
          "coinbase": "04ffff001d015a",
          "sequence": 4294967295
        }
      ],
      "vout": [
        {
          "value": 50.0,
          "n": 0,
          "scriptPubKey": {
            "asm": "042698e5714b6b1850dd91a685080edbea266ccda8ae49711f89e924a8c139d34d2031e9e03c425944807f57cacbfd4f40f9e45d9a74c402a73d092348dc4403fe OP_CHECKSIG",
            "desc": "pk(042698e5714b6b1850dd91a685080edbea266ccda8ae49711f89e924a8c139d34d2031e9e03c425944807f57cacbfd4f40f9e45d9a74c402a73d092348dc4403fe)#n5a8jmtj",
            "hex": "41042698e5714b6b1850dd91a685080edbea266ccda8ae49711f89e924a8c139d34d2031e9e03c425944807f57cacbfd4f40f9e45d9a74c402a73d092348dc4403feac",
            "type": "pubkey"
          }
        }
      ],
      "hex": "01000000010000000000000000000000000000000000000000000000000000000000000000ffffffff0704ffff001d015affffffff0100f2052a010000004341042698e5714b6b1850dd91a685080edbea266ccda8ae49711f89e924a8c139d34d2031e9e03c425944807f57cacbfd4f40f9e45d9a74c402a73d092348dc4403feac00000000"
    }
  ]
}