{
  "hash": "0000000059fd909513a8ca388de12b87c04665d1f131f8d9d243eb50441696a3",
  "confirmations": 45132,
  "height": 7966,
  "version": 1,
  "versionHex": "00000001",
  "merkleroot": "8fa1ca9f43cd83de2da79b6a59ba33b81d2649cf8e76717e05030dea633eabdd",
  "time": 1237438421,
  "mediantime": 1237435230,
  "nonce": 2248017412,
  "bits": "1d00ffff",
  "difficulty": 1,
  "chainwork": "00000000000000000000000000000000000000000000000000001f1f1f1f1f1f",
  "nTx": 1,
  "previousblockhash": "00000000d00e97619f499e6f19ac3129774332d2c2212eb2ef38dbef39db0018",
  "nextblockhash": "00000000b27e51b65247e5d4f0fc2922209298dec199e2d6ad8eda9910c2e756",
  "strippedsize": 216,
  "size": 216,
  "weight": 864,
  "tx": [
    {
      "txid": "8fa1ca9f43cd83de2da79b6a59ba33b81d2649cf8e76717e05030dea633eabdd",
      "hash": "8fa1ca9f43cd83de2da79b6a59ba33b81d2649cf8e76717e05030dea633eabdd",
      "version": 1,
      "size": 135,
      "vsize": 135,
      "weight": 540,
      "locktime": 0,
      "vin": [
        {
          "coinbase": "04ffff001d02bf08",
          "sequence": 4294967295
        }
      ],
      "vout": [
        {
          "value": 50.0,
          "n": 0,
          "scriptPubKey": {
            "asm": "042d61000cc92783eb812d95b564bbfa627755c2e7b1a091b078665823223495edc70de53b3f4f6c881bc83b29d1a9fe07a104ddc65310e5b80423eb0b035a9922 OP_CHECKSIG",
            "desc": "pk(042d61000cc92783eb812d95b564bbfa627755c2e7b1a091b078665823223495edc70de53b3f4f6c881bc83b29d1a9fe07a104ddc65310e5b80423eb0b035a9922)#hnxzv87w",
            "hex": "41042d61000cc92783eb812d95b564bbfa627755c2e7b1a091b078665823223495edc70de53b3f4f6c881bc83b29d1a9fe07a104ddc65310e5b80423eb0b035a9922ac",
            "type": "pubkey"
          }
        }
      ],
      "hex": "01000000010000000000000000000000000000000000000000000000000000000000000000ffffffff0804ffff001d02bf08ffffffff0100f2052a010000004341042d61000cc92783eb812d95b564bbfa627755c2e7b1a091b078665823223495edc70de53b3f4f6c881bc83b29d1a9fe07a104ddc65310e5b80423eb0b035a9922ac00000000"
    }
  ]
}