{
  "hash": "000000007d31c3592c3fd6f4571c14870f06150028320dda7c847e1869881535",
  "confirmations": 52038,
  "height": 190,
  "version": 1,
  "versionHex": "00000001",
  "merkleroot": "03754cb5d97171f404f7e298cd9a01933ec6581483757d79bebd4c226d962f35",
  "time": 1231745501,
  "mediantime": 1231743578,
  "nonce": 3810841349,
  "bits": "1d00ffff",
  "difficulty": 1,
  "chainwork": "000000000000000000000000000000000000000000000000000000bf00bf00bf",
  "nTx": 1,
  "previousblockhash": "000000008bb30dccc10c56c339c8aaacbe0c71051dc51ee10cc84db945db2978",
  "nextblockhash": "00000000520bf3614f3f3f312491bcce9ae820cfcf8393cf1e7aecb0db4932ab",
  "strippedsize": 215,
  "size": 215,
  "weight": 860,
  "tx": [
    {
      "txid": "03754cb5d97171f404f7e298cd9a01933ec6581483757d79bebd4c226d962f35",
      "hash": "03754cb5d97171f404f7e298cd9a01933ec6581483757d79bebd4c226d962f35",
      "version": 1,
      "size": 134,
      "vsize": 134,
      "weight": 536,
      "locktime": 0,
      "vin": [
        {
          "coinbase": "04ffff001d010a",
          "sequence": 4294967295
        }
      ],
      "vout": [
        {
          "value": 50.0,
          "n": 0,
          "scriptPubKey": {
            "asm": "043c13da0878491a5ec1b31490c22c79cab18b43feff1cb0bf7a8c39c5446f60dac4ac0f1a62e230aaf72368fdb57e9cb3eb58fd019600ff41f3df0192f1da2e19 OP_CHECKSIG",
            "desc": "pk(043c13da0878491a5ec1b31490c22c79cab18b43feff1cb0bf7a8c39c5446f60dac4ac0f1a62e230aaf72368fdb57e9cb3eb58fd019600ff41f3df0192f1da2e19)#89e7lum4",
            "hex": "41043c13da0878491a5ec1b31490c22c79cab18b43feff1cb0bf7a8c39c5446f60dac4ac0f1a62e230aaf72368fdb57e9cb3eb58fd019600ff41f3df0192f1da2e19ac",
            "type": "pubkey"
          }
        }
      ],
      "hex": "01000000010000000000000000000000000000000000000000000000000000000000000000ffffffff0704ffff001d010affffffff0100f2052a010000004341043c13da0878491a5ec1b31490c22c79cab18b43feff1cb0bf7a8c39c5446f60dac4ac0f1a62e230aaf72368fdb57e9cb3eb58fd019600ff41f3df0192f1da2e19ac00000000"
    }
  ]
}