{
  "hash": "00000000c7a7852c997de77ca70c5788d2e49417142398b245c5d257a2d96075",
  "confirmations": 51697,
  "height": 1401,
  "version": 1,
  "versionHex": "00000001",
  "merkleroot": "cf2e9e537eb3429c0a3c8db400201d94ee7c96fa2a78d65b1598330b92e7b492",
  "time": 1232726498,
  "mediantime": 1232708727,
  "nonce": 3772219906,
  "bits": "1d00ffff",
  "difficulty": 1,
  "chainwork": "0000000000000000000000000000000000000000000000000000057a057a057a",
  "nTx": 1,
  "previousblockhash": "00000000c9c28d2bb760225beaddbc212a01720869b624f088e9311df5b5d8f2",
  "nextblockhash": "0000000055e06ca8b6fcdb26b4541cbd9b495d7dfbc5a4a0d24ba15254f0f45f",
  "strippedsize": 215,
  "size": 215,
  "weight": 860,
  "tx": [
    {
      "txid": "cf2e9e537eb3429c0a3c8db400201d94ee7c96fa2a78d65b1598330b92e7b492",
      "hash": "cf2e9e537eb3429c0a3c8db400201d94ee7c96fa2a78d65b1598330b92e7b492",
      "version": 1,
      "size": 134,
      "vsize": 134,
      "weight": 536,
      "locktime": 0,
      "vin": [
        {
          "coinbase": "04ffff001d0114",
          "sequence": 4294967295
        }
      ],
      "vout": [
        {
          "value": 50.0,
          "n": 0,
          "scriptPubKey": {
            "asm": "0462e364dbddcdc955d6518523ee4bcf58de614a11c5c95b6f486f7f6ffe0903f1995450c294fe86c5b6821c10e9a882bbdba8130ea3e8f394481fa2a306b48141 OP_CHECKSIG",
            "desc": "pk(0462e364dbddcdc955d6518523ee4bcf58de614a11c5c95b6f486f7f6ffe0903f1995450c294fe86c5b6821c10e9a882bbdba8130ea3e8f394481fa2a306b48141)#n7jft7j8",
            "hex": "410462e364dbddcdc955d6518523ee4bcf58de614a11c5c95b6f486f7f6ffe0903f1995450c294fe86c5b6821c10e9a882bbdba8130ea3e8f394481fa2a306b48141ac",
            "type": "pubkey"
          }
        }
      ],
      "hex": "01000000010000000000000000000000000000000000000000000000000000000000000000ffffffff0704ffff001d0114ffffffff0100f2052a0100000043410462e364dbddcdc955d6518523ee4bcf58de614a11c5c95b6f486f7f6ffe0903f1995450c294fe86c5b6821c10e9a882bbdba8130ea3e8f394481fa2a306b48141ac00000000"
    }
  ]
}