{
  "hash": "000000003c53a5818f50e81b12fff3f32d2356a551b101fe0ceba27232f21c02",
  "confirmations": 43528,
  "height": 9570,
  "version": 1,
  "versionHex": "00000001",
  "merkleroot": "f587f6d6d800b1129d7a876da187f33feae0f8948e5e607c3a6555a1bb8dc783",
  "time": 1238678319,
  "mediantime": 1238674161,
  "nonce": 4267015448,
  "bits": "1d00ffff",
  "difficulty": 1,
  "chainwork": "0000000000000000000000000000000000000000000000000000256325632563",
  "nTx": 1,
  "previousblockhash": "00000000be92f0a72cdffd19883ad65491233f589c56513157723f11e341ed24",
  "nextblockhash": "00000000373421d4b8411038e7494a5c6324d0dea938e629b84a8f7b02843f44",
  "strippedsize": 216,
  "size": 216,
  "weight": 864,
  "tx": [
    {
      "txid": "f587f6d6d800b1129d7a876da187f33feae0f8948e5e607c3a6555a1bb8dc783",
      "hash": "f587f6d6d800b1129d7a876da187f33feae0f8948e5e607c3a6555a1bb8dc783",
      "version": 1,
      "size": 135,
      "vsize": 135,
      "weight": 540,
      "locktime": 0,
      "vin": [
        {
          "coinbase": "04ffff001d028e06",
          "sequence": 4294967295
        }
      ],
      "vout": [
        {
          "value": 50.0,
          "n": 0,
          "scriptPubKey": {
            "asm": "040a6221e426de68d0022c8e95d1d481cff63189870ceb973ff03e3b812484247bd173ffa77a540d77791918b4b431d0a4c4476176f855fa57d01662158eb04bde OP_CHECKSIG",
            "desc": "pk(040a6221e426de68d0022c8e95d1d481cff63189870ceb973ff03e3b812484247bd173ffa77a540d77791918b4b431d0a4c4476176f855fa57d01662158eb04bde)#lmn8hs43",
            "hex": "41040a6221e426de68d0022c8e95d1d481cff63189870ceb973ff03e3b812484247bd173ffa77a540d77791918b4b431d0a4c4476176f855fa57d01662158eb04bdeac",
            "type": "pubkey"
          }
        }
      ],
      "hex": "01000000010000000000000000000000000000000000000000000000000000000000000000ffffffff0804ffff001d028e06ffffffff0100f2052a010000004341040a6221e426de68d0022c8e95d1d481cff63189870ceb973ff03e3b812484247bd173ffa77a540d77791918b4b431d0a4c4476176f855fa57d01662158eb04bdeac00000000"
    }
  ]
}