{
  "hash": "00000000cd9ab29792ecf41dc8bc2a0524ac6c7566ea9fcc4d11147089ff59c4",
  "confirmations": 50940,
  "height": 2158,
  "version": 1,
  "versionHex": "00000001",
  "merkleroot": "8549853fc2506e56ee2967d1c0fea53ec039bc5288e27bdc622126921d4ebc6a",
  "time": 1233180845,
  "mediantime": 1233177747,
  "nonce": 124344043,
  "bits": "1d00ffff",
  "difficulty": 1,
  "chainwork": "0000000000000000000000000000000000000000000000000000086f086f086f",
  "nTx": 1,
  "previousblockhash": "00000000ceef5fc8747f408a03466fcbd1bca6a1c70fb5e14df9cae395e22da5",
  "nextblockhash": "00000000d6aa1a94ff1f66e9952019063311367d79eec95e3c68b8dac12097b0",
  "strippedsize": 215,
  "size": 215,
  "weight": 860,
  "tx": [
    {
      "txid": "8549853fc2506e56ee2967d1c0fea53ec039bc5288e27bdc622126921d4ebc6a",
      "hash": "8549853fc2506e56ee2967d1c0fea53ec039bc5288e27bdc622126921d4ebc6a",
      "version": 1,
      "size": 134,
      "vsize": 134,
      "weight": 536,
      "locktime": 0,
      "vin": [
        {
          "coinbase": "04ffff001d0133",
          "sequence": 4294967295
        }
      ],
      "vout": [
        {
          "value": 50.0,
          "n": 0,
          "scriptPubKey": {
            "asm": "044a172d42cea876a3b482a6aa5017bf5e4f8b378e663c4e3ea562baf61aa7a156d7b28b9ab9c068a1b3bb1c5a45e06d088d1a338c023166b0b755f74962f48847 OP_CHECKSIG",
            "desc": "pk(044a172d42cea876a3b482a6aa5017bf5e4f8b378e663c4e3ea562baf61aa7a156d7b28b9ab9c068a1b3bb1c5a45e06d088d1a338c023166b0b755f74962f48847)#tf2f8n9e",
            "hex": "41044a172d42cea876a3b482a6aa5017bf5e4f8b378e663c4e3ea562baf61aa7a156d7b28b9ab9c068a1b3bb1c5a45e06d088d1a338c023166b0b755f74962f48847ac",
            "type": "pubkey"
          }
        }
      ],
      "hex": "01000000010000000000000000000000000000000000000000000000000000000000000000ffffffff0704ffff001d0133ffffffff0100f2052a010000004341044a172d42cea876a3b482a6aa5017bf5e4f8b378e663c4e3ea562baf61aa7a156d7b28b9ab9c068a1b3bb1c5a45e06d088d1a338c023166b0b755f74962f48847ac00000000"
    }
  ]
}