{
  "hash": "000000007f533ee5c11b5b8e71e07a960ac16482a0e1c9a53843330f0bb3cfcd",
  "confirmations": 46358,
  "height": 6740,
  "version": 1,
  "versionHex": "00000001",
  "merkleroot": "97c44ce3fa7fc9de65ce945faaaee41d5114fb040b0c9f5a6f78b71e3e3f4b55",
  "time": 1236511830,
  "mediantime": 1236507342,
  "nonce": 1056328706,
  "bits": "1d00ffff",
  "difficulty": 1,
  "chainwork": "00000000000000000000000000000000000000000000000000001a551a551a55",
  "nTx": 1,
  "previousblockhash": "00000000abb4dfabd0c9a846b7881f95f1cbb09aac9b6cb6c3e892c9cb05377a",
  "nextblockhash": "0000000061b435f518105fbce0d9dd9e75351f3089d5972a07adc905fe32fa0f",
  "strippedsize": 216,
  "size": 216,
  "weight": 864,
  "tx": [
    {
      "txid": "97c44ce3fa7fc9de65ce945faaaee41d5114fb040b0c9f5a6f78b71e3e3f4b55",
      "hash": "97c44ce3fa7fc9de65ce945faaaee41d5114fb040b0c9f5a6f78b71e3e3f4b55",
      "version": 1,
      "size": 135,
      "vsize": 135,
      "weight": 540,
      "locktime": 0,
      "vin": [
        {
          "coinbase": "04ffff001d02fd07",
          "sequence": 4294967295
        }
      ],
      "vout": [
        {
          "value": 50.0,
          "n": 0,
          "scriptPubKey": {
            "asm": "04bcc47eb87d1a05a172d57b3c7c99631bf23f6279616eea63a6feb59b8a96f9383e55fd30b834beeb7ae85fd600d879187942f955e9d194e6ee18037cea5fc486 OP_CHECKSIG",
            "desc": "pk(04bcc47eb87d1a05a172d57b3c7c99631bf23f6279616eea63a6feb59b8a96f9383e55fd30b834beeb7ae85fd600d879187942f955e9d194e6ee18037cea5fc486)#zl086r6m",
            "hex": "4104bcc47eb87d1a05a172d57b3c7c99631bf23f6279616eea63a6feb59b8a96f9383e55fd30b834beeb7ae85fd600d879187942f955e9d194e6ee18037cea5fc486ac",
            "type": "pubkey"
          }
        }
      ],
      "hex": "01000000010000000000000000000000000000000000000000000000000000000000000000ffffffff0804ffff001d02fd07ffffffff0100f2052a01000000434104bcc47eb87d1a05a172d57b3c7c99631bf23f6279616eea63a6feb59b8a96f9383e55fd30b834beeb7ae85fd600d879187942f955e9d194e6ee18037cea5fc486ac00000000"
    }
  ]
}