{
  "hash": "00000000302e1d04f9e1e103e1ea4b86bb43bdb6faa71f73623e121dee1412f7",
  "confirmations": 43237,
  "height": 9861,
  "version": 1,
  "versionHex": "00000001",
  "merkleroot": "90b0138783c4597aada090ef81ae304635e42be6005577f5faa5da7791a60905",
  "time": 1238898855,
  "mediantime": 1238897271,
  "nonce": 3608516903,
  "bits": "1d00ffff",
  "difficulty": 1,
  "chainwork": "0000000000000000000000000000000000000000000000000000268626862686",
  "nTx": 1,
  "previousblockhash": "000000007950f5084d1ca62f03e0d2d838d492ba502805ac316a888eb12ba5d8",
  "nextblockhash": "00000000b982f25db874647197e4614674236f43726e542a9b8ad2a937b50f18",
  "strippedsize": 216,
  "size": 216,
  "weight": 864,
  "tx": [
    {
      "txid": "90b0138783c4597aada090ef81ae304635e42be6005577f5faa5da7791a60905",
      "hash": "90b0138783c4597aada090ef81ae304635e42be6005577f5faa5da7791a60905",
      "version": 1,
      "size": 135,
      "vsize": 135,
      "weight": 540,
      "locktime": 0,
      "vin": [
        {
          "coinbase": "04ffff001d027001",
          "sequence": 4294967295
        }
      ],
      "vout": [
        {
          "value": 50.0,
          "n": 0,
          "scriptPubKey": {
            "asm": "04e51cf15d6395bd2e32efefa5dca830a8a332c71507d58bb72832dad657aaaa77c4d146a16874f1c78cebc58c8df15ff57e28426de9d55f2882d602fc2f615e7d OP_CHECKSIG",
            "desc": "pk(04e51cf15d6395bd2e32efefa5dca830a8a332c71507d58bb72832dad657aaaa77c4d146a16874f1c78cebc58c8df15ff57e28426de9d55f2882d602fc2f615e7d)#ut0shgjq",
            "hex": "4104e51cf15d6395bd2e32efefa5dca830a8a332c71507d58bb72832dad657aaaa77c4d146a16874f1c78cebc58c8df15ff57e28426de9d55f2882d602fc2f615e7dac",
            "type": "pubkey"
          }
        }
      ],
      "hex": "01000000010000000000000000000000000000000000000000000000000000000000000000ffffffff0804ffff001d027001ffffffff0100f2052a01000000434104e51cf15d6395bd2e32efefa5dca830a8a332c71507d58bb72832dad657aaaa77c4d146a16874f1c78cebc58c8df15ff57e28426de9d55f2882d602fc2f615e7dac00000000"
    }
  ]
}