{
  "hash": "0000000008adf19edf3f8ab3c717706ca45ac51cdf4a0d055e9fbc328ee0dd2c",
  "confirmations": 47827,
  "height": 5271,
  "version": 1,
  "versionHex": "00000001",
  "merkleroot": "7f79fc2500cd82d9fc11d1ca15de152ca75ce0d30cbc26684dd47ed0ccd5042d",
  "time": 1235339880,
  "mediantime": 1235334404,
  "nonce": 3396089376,
  "bits": "1d00ffff",
  "difficulty": 1,
  "chainwork": "0000000000000000000000000000000000000000000000000000149814981498",
  "nTx": 1,
  "previousblockhash": "00000000982341293a508a7c464f238fd8a6a9187dec0531cb9aabbe2f2a3118",
  "nextblockhash": "0000000036f75ba422b327c6cf6dc8e649f66f4c0bbde53df199bb9b1b717998",
  "strippedsize": 216,
  "size": 216,
  "weight": 864,
  "tx": [
    {
      "txid": "7f79fc2500cd82d9fc11d1ca15de152ca75ce0d30cbc26684dd47ed0ccd5042d",
      "hash": "7f79fc2500cd82d9fc11d1ca15de152ca75ce0d30cbc26684dd47ed0ccd5042d",
      "version": 1,
      "size": 135,
      "vsize": 135,
      "weight": 540,
      "locktime": 0,
      "vin": [
        {
          "coinbase": "04ffff001d029c01",
          "sequence": 4294967295
        }
      ],
      "vout": [
        {
          "value": 50.0,
          "n": 0,
          "scriptPubKey": {
            "asm": "043b964b9cb34a60f86e339bc342d7e50fc64159a2bc3dcc065c4c2ab53deaa6cbb6f8dfb21e1282fa527b4946f0b8735fe02c30b1b2058014d62dc1af040f1a35 OP_CHECKSIG",
            "desc": "pk(043b964b9cb34a60f86e339bc342d7e50fc64159a2bc3dcc065c4c2ab53deaa6cbb6f8dfb21e1282fa527b4946f0b8735fe02c30b1b2058014d62dc1af040f1a35)#pzh3zdva",
            "hex": "41043b964b9cb34a60f86e339bc342d7e50fc64159a2bc3dcc065c4c2ab53deaa6cbb6f8dfb21e1282fa527b4946f0b8735fe02c30b1b2058014d62dc1af040f1a35ac",
            "type": "pubkey"
          }
        }
      ],
      "hex": "01000000010000000000000000000000000000000000000000000000000000000000000000ffffffff0804ffff001d029c01ffffffff0100f2052a010000004341043b964b9cb34a60f86e339bc342d7e50fc64159a2bc3dcc065c4c2ab53deaa6cbb6f8dfb21e1282fa527b4946f0b8735fe02c30b1b2058014d62dc1af040f1a35ac00000000"
    }
  ]
}