{
  "hash": "00000000597bdbf44ada6e1248a46076eb2cd8eebbc7d60afd910bac2bf29985",
  "confirmations": 48288,
  "height": 4810,
  "version": 1,
  "versionHex": "00000001",
  "merkleroot": "4f342492e38a99f6f4f077b444972fce70d9383a7c276b2ba13bab8feca21e04",
  "time": 1235005865,
  "mediantime": 1235003056,
  "nonce": 2976738859,
  "bits": "1d00ffff",
  "difficulty": 1,
  "chainwork": "000000000000000000000000000000000000000000000000000012cb12cb12cb",
  "nTx": 1,
  "previousblockhash": "00000000c3c3800a7c806f7237fd96aa83625d08b96ee4224847887e0b245557",
  "nextblockhash": "00000000d5230b6ad7b254cfe03b8af8ca676b02b42375ddee00491be16c407a",
  "strippedsize": 216,
  "size": 216,
  "weight": 864,
  "tx": [
    {
      "txid": "4f342492e38a99f6f4f077b444972fce70d9383a7c276b2ba13bab8feca21e04",
      "hash": "4f342492e38a99f6f4f077b444972fce70d9383a7c276b2ba13bab8feca21e04",
      "version": 1,
      "size": 135,
      "vsize": 135,
      "weight": 540,
      "locktime": 0,
      "vin": [
        {
          "coinbase": "04ffff001d028704",
          "sequence": 4294967295
        }
      ],
      "vout": [
        {
          "value": 50.0,
          "n": 0,
          "scriptPubKey": {
            "asm": "04143c305c7ba197f538e8e7010dbe4b2253a334cfe2c9393c3814f1dae03f12f735d5bacdc2672936a08b58cc7a5a7e45de5838a943f9aef76ad729f4aac4e273 OP_CHECKSIG",
            "desc": "pk(04143c305c7ba197f538e8e7010dbe4b2253a334cfe2c9393c3814f1dae03f12f735d5bacdc2672936a08b58cc7a5a7e45de5838a943f9aef76ad729f4aac4e273)#lpnqr0v3",
            "hex": "4104143c305c7ba197f538e8e7010dbe4b2253a334cfe2c9393c3814f1dae03f12f735d5bacdc2672936a08b58cc7a5a7e45de5838a943f9aef76ad729f4aac4e273ac",
            "type": "pubkey"
          }
        }
      ],
      "hex": "01000000010000000000000000000000000000000000000000000000000000000000000000ffffffff0804ffff001d028704ffffffff0100f2052a01000000434104143c305c7ba197f538e8e7010dbe4b2253a334cfe2c9393c3814f1dae03f12f735d5bacdc2672936a08b58cc7a5a7e45de5838a943f9aef76ad729f4aac4e273ac00000000"
    }
  ]
}