{
  "hash": "00000000f579f67af5a7aa3b45ed58f556d763711b9861567f753a59a4dd1877",
  "confirmations": 44134,
  "height": 8964,
  "version": 1,
  "versionHex": "00000001",
  "merkleroot": "bbfdebf44c5d4110a8a94033e980e038bc2253641f38c24db073d12444638b6c",
  "time": 1238228866,
  "mediantime": 1238223926,
  "nonce": 321317063,
  "bits": "1d00ffff",
  "difficulty": 1,
  "chainwork": "0000000000000000000000000000000000000000000000000000230523052305",
  "nTx": 1,
  "previousblockhash": "000000004c5f9a511a4287b2be3b2c80ee3da48ab2bcd646d13f83d473419caf",
  "nextblockhash": "00000000f4851af7a696729b89e37e09b6939e7cc99614963959a5a51e69de20",
  "strippedsize": 216,
  "size": 216,
  "weight": 864,
  "tx": [
    {
      "txid": "bbfdebf44c5d4110a8a94033e980e038bc2253641f38c24db073d12444638b6c",
      "hash": "bbfdebf44c5d4110a8a94033e980e038bc2253641f38c24db073d12444638b6c",
      "version": 1,
      "size": 135,
      "vsize": 135,
      "weight": 540,
      "locktime": 0,
      "vin": [
        {
          "coinbase": "04ffff001d020905",
          "sequence": 4294967295
        }
      ],
      "vout": [
        {
          "value": 50.0,
          "n": 0,
          "scriptPubKey": {
            "asm": "04ffd022a2dc0b1ab137e71aa9bf919364d7be0c260f7a4e898ba154a022c403e15d37e1087c02e548cf0dcc258eebdc0a2c45e8baf8de0a5db2420d5846d222db OP_CHECKSIG",
            "desc": "pk(04ffd022a2dc0b1ab137e71aa9bf919364d7be0c260f7a4e898ba154a022c403e15d37e1087c02e548cf0dcc258eebdc0a2c45e8baf8de0a5db2420d5846d222db)#xu08t9hr",
            "hex": "4104ffd022a2dc0b1ab137e71aa9bf919364d7be0c260f7a4e898ba154a022c403e15d37e1087c02e548cf0dcc258eebdc0a2c45e8baf8de0a5db2420d5846d222dbac",
            "type": "pubkey"
          }
        }
      ],
      "hex": "01000000010000000000000000000000000000000000000000000000000000000000000000ffffffff0804ffff001d020905ffffffff0100f2052a01000000434104ffd022a2dc0b1ab137e71aa9bf919364d7be0c260f7a4e898ba154a022c403e15d37e1087c02e548cf0dcc258eebdc0a2c45e8baf8de0a5db2420d5846d222dbac00000000"
    }
  ]
}