{
  "hash": "000000006af17237f0814f3270b5aec62fb0960e1f8a556f7506be9eb808f5d8",
  "confirmations": 45725,
  "height": 7373,
  "version": 1,
  "versionHex": "00000001",
  "merkleroot": "05168a6b8ad67c429f7dc2e8783b566a39204c45de8c03445264f5e6aa1c5dc3",
  "time": 1237000471,
  "mediantime": 1236996456,
  "nonce": 1846348852,
  "bits": "1d00ffff",
  "difficulty": 1,
  "chainwork": "00000000000000000000000000000000000000000000000000001cce1cce1cce",
  "nTx": 1,
  "previousblockhash": "000000004c68f200220143c5e69150d6f94f5e64e8b37d5087d672eaa18bf44f",
  "nextblockhash": "000000006850617955d4768569384e0a5dd88dc1c15ba559b0b231cba6bd63e8",
  "strippedsize": 216,
  "size": 216,
  "weight": 864,
  "tx": [
    {
      "txid": "05168a6b8ad67c429f7dc2e8783b566a39204c45de8c03445264f5e6aa1c5dc3",
      "hash": "05168a6b8ad67c429f7dc2e8783b566a39204c45de8c03445264f5e6aa1c5dc3",
      "version": 1,
      "size": 135,
      "vsize": 135,
      "weight": 540,
      "locktime": 0,
      "vin": [
        {
          "coinbase": "04ffff001d02dd08",
          "sequence": 4294967295
        }
      ],
      "vout": [
        {
          "value": 50.0,
          "n": 0,
          "scriptPubKey": {
            "asm": "04f872e181ebb177b6310ac88055d31cdea241d076e11b2051f8a8d1aec1295e4c1a2491f8d738131f5790df4eb1f1700bbdfa30986fe706dd7acd1d1c25fd53a1 OP_CHECKSIG",
            "desc": "pk(04f872e181ebb177b6310ac88055d31cdea241d076e11b2051f8a8d1aec1295e4c1a2491f8d738131f5790df4eb1f1700bbdfa30986fe706dd7acd1d1c25fd53a1)#2p97eugt",
            "hex": "4104f872e181ebb177b6310ac88055d31cdea241d076e11b2051f8a8d1aec1295e4c1a2491f8d738131f5790df4eb1f1700bbdfa30986fe706dd7acd1d1c25fd53a1ac",
            "type": "pubkey"
          }
        }
      ],
      "hex": "01000000010000000000000000000000000000000000000000000000000000000000000000ffffffff0804ffff001d02dd08ffffffff0100f2052a01000000434104f872e181ebb177b6310ac88055d31cdea241d076e11b2051f8a8d1aec1295e4c1a2491f8d738131f5790df4eb1f1700bbdfa30986fe706dd7acd1d1c25fd53a1ac00000000"
    }
  ]
}