{
  "hash": "0000000080b7a2f6ddcf79cef1eea9a7c0bd729fbfdba1226e27964c98908035",
  "confirmations": 44468,
  "height": 8630,
  "version": 1,
  "versionHex": "00000001",
  "merkleroot": "6465389c8a1e231b52a03e4fe80285fab94dfa4836f05ba112e9198a7243857b",
  "time": 1237969449,
  "mediantime": 1237966807,
  "nonce": 1366005528,
  "bits": "1d00ffff",
  "difficulty": 1,
  "chainwork": "000000000000000000000000000000000000000000000000000021b721b721b7",
  "nTx": 1,
  "previousblockhash": "0000000027c5b3cf68cd0dc05922fa2bcef175ec4964810141e220acfe2dd9ab",
  "nextblockhash": "000000009bbb1f2b7f1256f8ba6a7a21811f02ab84267f30f8a97284b358b663",
  "strippedsize": 216,
  "size": 216,
  "weight": 864,
  "tx": [
    {
      "txid": "6465389c8a1e231b52a03e4fe80285fab94dfa4836f05ba112e9198a7243857b",
      "hash": "6465389c8a1e231b52a03e4fe80285fab94dfa4836f05ba112e9198a7243857b",
      "version": 1,
      "size": 135,
      "vsize": 135,
      "weight": 540,
      "locktime": 0,
      "vin": [
        {
          "coinbase": "04ffff001d02010a",
          "sequence": 4294967295
        }
      ],
      "vout": [
        {
          "value": 50.0,
          "n": 0,
          "scriptPubKey": {
            "asm": "049f7e188a252469534440b1a8754e0666c4dc50b0d0931dd6c53d203ded2e4b6658ddbc64f1acfe653b0476ff8dfc87af5d71a4325a1adeaf2ddbc8302943a481 OP_CHECKSIG",
            "desc": "pk(049f7e188a252469534440b1a8754e0666c4dc50b0d0931dd6c53d203ded2e4b6658ddbc64f1acfe653b0476ff8dfc87af5d71a4325a1adeaf2ddbc8302943a481)#7cz6xm0n",
            "hex": "41049f7e188a252469534440b1a8754e0666c4dc50b0d0931dd6c53d203ded2e4b6658ddbc64f1acfe653b0476ff8dfc87af5d71a4325a1adeaf2ddbc8302943a481ac",
            "type": "pubkey"
          }
        }
      ],
      "hex": "01000000010000000000000000000000000000000000000000000000000000000000000000ffffffff0804ffff001d02010affffffff0100f2052a010000004341049f7e188a252469534440b1a8754e0666c4dc50b0d0931dd6c53d203ded2e4b6658ddbc64f1acfe653b0476ff8dfc87af5d71a4325a1adeaf2ddbc8302943a481ac00000000"
    }
  ]
}