{
  "hash": "000000008032e2398a53bba8db9a4c60fe5bca798b6f4f77e355b7be20281a4f",
  "confirmations": 46911,
  "height": 6187,
  "version": 1,
  "versionHex": "00000001",
  "merkleroot": "f4df1d4a02ff491f9d49e58d1d8c705e763a28f7c8c214cc95936c574adce426",
  "time": 1236081809,
  "mediantime": 1236077670,
  "nonce": 102246191,
  "bits": "1d00ffff",
  "difficulty": 1,
  "chainwork": "0000000000000000000000000000000000000000000000000000182c182c182c",
  "nTx": 1,
  "previousblockhash": "000000001420514c99839a2b4d8c7eb6686591dd0a18157deae56f1b9ff832c6",
  "nextblockhash": "000000008537e6e3e13087f759131c1e435a647a0064c3f43815ed3b702b19c2",
  "strippedsize": 216,
  "size": 216,
  "weight": 864,
  "tx": [
    {
      "txid": "f4df1d4a02ff491f9d49e58d1d8c705e763a28f7c8c214cc95936c574adce426",
      "hash": "f4df1d4a02ff491f9d49e58d1d8c705e763a28f7c8c214cc95936c574adce426",
      "version": 1,
      "size": 135,
      "vsize": 135,
      "weight": 540,
      "locktime": 0,
      "vin": [
        {
          "coinbase": "04ffff001d024c08",
          "sequence": 4294967295
        }
      ],
      "vout": [
        {
          "value": 50.0,
          "n": 0,
          "scriptPubKey": {
            "asm": "04f0c35f10f7ce92d2c60254b129b2c0bcc76f2031f4385cb2e6ca7db03833261c56100c29df2e645039d995ce22e3b2051583fedfda9a8d589a453723036677dd OP_CHECKSIG",
            "desc": "pk(04f0c35f10f7ce92d2c60254b129b2c0bcc76f2031f4385cb2e6ca7db03833261c56100c29df2e645039d995ce22e3b2051583fedfda9a8d589a453723036677dd)#wluqz392",
            "hex": "4104f0c35f10f7ce92d2c60254b129b2c0bcc76f2031f4385cb2e6ca7db03833261c56100c29df2e645039d995ce22e3b2051583fedfda9a8d589a453723036677ddac",
            "type": "pubkey"
          }
        }
      ],
      "hex": "01000000010000000000000000000000000000000000000000000000000000000000000000ffffffff0804ffff001d024c08ffffffff0100f2052a01000000434104f0c35f10f7ce92d2c60254b129b2c0bcc76f2031f4385cb2e6ca7db03833261c56100c29df2e645039d995ce22e3b2051583fedfda9a8d589a453723036677ddac00000000"
    }
  ]
}