{
  "hash": "000000008d21062d92193f0ba21e2ee4adc5d959eb335c0ae8970c1bcb014b38",
  "confirmations": 45695,
  "height": 7403,
  "version": 1,
  "versionHex": "00000001",
  "merkleroot": "17951a8139bc54637d9d077810019eadf66826b86d84f9d2d4fd0cae6ca22143",
  "time": 1237025304,
  "mediantime": 1237022242,
  "nonce": 1277354242,
  "bits": "1d00ffff",
  "difficulty": 1,
  "chainwork": "00000000000000000000000000000000000000000000000000001cec1cec1cec",
  "nTx": 1,
  "previousblockhash": "0000000090f5509d7cb00ed38b1ea0e48aa311ca72b7e1225216d336b25e9248",
  "nextblockhash": "000000000a57f553200b9e3f48d7ad22ca71ff844dac64415964876d0c790c14",
  "strippedsize": 216,
  "size": 216,
  "weight": 864,
  "tx": [
    {
      "txid": "17951a8139bc54637d9d077810019eadf66826b86d84f9d2d4fd0cae6ca22143",
      "hash": "17951a8139bc54637d9d077810019eadf66826b86d84f9d2d4fd0cae6ca22143",
      "version": 1,
      "size": 135,
      "vsize": 135,
      "weight": 540,
      "locktime": 0,
      "vin": [
        {
          "coinbase": "04ffff001d027909",
          "sequence": 4294967295
        }
      ],
      "vout": [
        {
          "value": 50.0,
          "n": 0,
          "scriptPubKey": {
            "asm": "04c6289f217cb04fc6298661c14fbf36e0fac3f1a7a557fad3a9012c6770d46e030bacbc6790a0e8fdfa699541ae2ba392e8ffb390de13d124a37ac268d0eb1cb2 OP_CHECKSIG",
            "desc": "pk(04c6289f217cb04fc6298661c14fbf36e0fac3f1a7a557fad3a9012c6770d46e030bacbc6790a0e8fdfa699541ae2ba392e8ffb390de13d124a37ac268d0eb1cb2)#gp0a3cwg",
            "hex": "4104c6289f217cb04fc6298661c14fbf36e0fac3f1a7a557fad3a9012c6770d46e030bacbc6790a0e8fdfa699541ae2ba392e8ffb390de13d124a37ac268d0eb1cb2ac",
            "type": "pubkey"
          }
        }
      ],
      "hex": "01000000010000000000000000000000000000000000000000000000000000000000000000ffffffff0804ffff001d027909ffffffff0100f2052a01000000434104c6289f217cb04fc6298661c14fbf36e0fac3f1a7a557fad3a9012c6770d46e030bacbc6790a0e8fdfa699541ae2ba392e8ffb390de13d124a37ac268d0eb1cb2ac00000000"
    }
  ]
}