{
  "hash": "00000000de4ccbbe194b8393f747881565ef9a19288328228b53dcbaf4f88609",
  "confirmations": 51604,
  "height": 1494,
  "version": 1,
  "versionHex": "00000001",
  "merkleroot": "f7b0f921fe4ea687ea1aefd9cd6cd83e5e869afffbcf249a7e0952c968df3e8d",
  "time": 1232765208,
  "mediantime": 1232762404,
  "nonce": 1785182008,
  "bits": "1d00ffff",
  "difficulty": 1,
  "chainwork": "000000000000000000000000000000000000000000000000000005d705d705d7",
  "nTx": 1,
  "previousblockhash": "00000000c3a7bc56d1eaace7a174de16999db9e747aeec41ab62318f812b2678",
  "nextblockhash": "000000004c1dcd06f4ca194a1761f25146a8b219dc03dd4df9d1f446210ce0a7",
  "strippedsize": 216,
  "size": 216,
  "weight": 864,
  "tx": [
    {
      "txid": "f7b0f921fe4ea687ea1aefd9cd6cd83e5e869afffbcf249a7e0952c968df3e8d",
      "hash": "f7b0f921fe4ea687ea1aefd9cd6cd83e5e869afffbcf249a7e0952c968df3e8d",
      "version": 1,
      "size": 135,
      "vsize": 135,
      "weight": 540,
      "locktime": 0,
      "vin": [
        {
          "coinbase": "04ffff001d022701",
          "sequence": 4294967295
        }
      ],
      "vout": [
        {
          "value": 50.0,
          "n": 0,
          "scriptPubKey": {
            "asm": "04368339748d3379c16e8fcaa6efaad12be7198099488a975807ece74ce052dbb5a09a0ce2c9fa98a2a81315536cfdafe18c5a6d9093d16fc456b039a659d2c54d OP_CHECKSIG",
            "desc": "pk(04368339748d3379c16e8fcaa6efaad12be7198099488a975807ece74ce052dbb5a09a0ce2c9fa98a2a81315536cfdafe18c5a6d9093d16fc456b039a659d2c54d)#v7gu7pxa",
            "hex": "4104368339748d3379c16e8fcaa6efaad12be7198099488a975807ece74ce052dbb5a09a0ce2c9fa98a2a81315536cfdafe18c5a6d9093d16fc456b039a659d2c54dac",
            "type": "pubkey"
          }
        }
      ],
      "hex": "01000000010000000000000000000000000000000000000000000000000000000000000000ffffffff0804ffff001d022701ffffffff0100f2052a01000000434104368339748d3379c16e8fcaa6efaad12be7198099488a975807ece74ce052dbb5a09a0ce2c9fa98a2a81315536cfdafe18c5a6d9093d16fc456b039a659d2c54dac00000000"
    }
  ]
}