{
  "hash": "000000004cae720c41e23ebf521ab2f9d35bfe364d670b2b195618213dde8783",
  "confirmations": 50962,
  "height": 2136,
  "version": 1,
  "versionHex": "00000001",
  "merkleroot": "1ba71ce97e0747da1f6ad6031b7dadfa3a3097681872e36c3ba08439b4282ad1",
  "time": 1233164141,
  "mediantime": 1233159589,
  "nonce": 36510860,
  "bits": "1d00ffff",
  "difficulty": 1,
  "chainwork": "0000000000000000000000000000000000000000000000000000085908590859",
  "nTx": 1,
  "previousblockhash": "000000001e4ed2d4b03580ce578626d40b3424889953df0dbb86ac3d37efce54",
  "nextblockhash": "00000000c45c54342d8846b07f5c75b188871a9c31b3495aa682b8c0f193712c",
  "strippedsize": 215,
  "size": 215,
  "weight": 860,
  "tx": [
    {
      "txid": "1ba71ce97e0747da1f6ad6031b7dadfa3a3097681872e36c3ba08439b4282ad1",
      "hash": "1ba71ce97e0747da1f6ad6031b7dadfa3a3097681872e36c3ba08439b4282ad1",
      "version": 1,
      "size": 134,
      "vsize": 134,
      "weight": 536,
      "locktime": 0,
      "vin": [
        {
          "coinbase": "04ffff001d013a",
          "sequence": 4294967295
        }
      ],
      "vout": [
        {
          "value": 50.0,
          "n": 0,
          "scriptPubKey": {
            "asm": "044ddd246da83f775c2d6be76d021b683b2749790faf33d1801f44fddeff3185cbb154c323a60f7af46a1e9056e8710c0bfbe70f92792176a09e6d03af8375c322 OP_CHECKSIG",
            "desc": "pk(044ddd246da83f775c2d6be76d021b683b2749790faf33d1801f44fddeff3185cbb154c323a60f7af46a1e9056e8710c0bfbe70f92792176a09e6d03af8375c322)#enlehpt7",
            "hex": "41044ddd246da83f775c2d6be76d021b683b2749790faf33d1801f44fddeff3185cbb154c323a60f7af46a1e9056e8710c0bfbe70f92792176a09e6d03af8375c322ac",
            "type": "pubkey"
          }
        }
      ],
      "hex": "01000000010000000000000000000000000000000000000000000000000000000000000000ffffffff0704ffff001d013affffffff0100f2052a010000004341044ddd246da83f775c2d6be76d021b683b2749790faf33d1801f44fddeff3185cbb154c323a60f7af46a1e9056e8710c0bfbe70f92792176a09e6d03af8375c322ac00000000"
    }
  ]
}