{
  "hash": "000000006a6bff857a90e9b7de8e1652a4929e2ef7d7a5b61c659f57640663ea",
  "confirmations": 49572,
  "height": 3526,
  "version": 1,
  "versionHex": "00000001",
  "merkleroot": "a3e6bffd3f1d46da471bc639f6f158956cc09c73b9fcb9f80d3de61f49dd2f7b",
  "time": 1234120063,
  "mediantime": 1234116784,
  "nonce": 1671611701,
  "bits": "1d00ffff",
  "difficulty": 1,
  "chainwork": "00000000000000000000000000000000000000000000000000000dc70dc70dc7",
  "nTx": 1,
  "previousblockhash": "00000000ad891f0b0b3b40cf8a2e5453947cbfcae49caa6e01d6f9e0165cd599",
  "nextblockhash": "0000000080ec02e7e37bfc2135003fdbdffaa403941e1fffc7ec0a822da092f6",
  "strippedsize": 216,
  "size": 216,
  "weight": 864,
  "tx": [
    {
      "txid": "a3e6bffd3f1d46da471bc639f6f158956cc09c73b9fcb9f80d3de61f49dd2f7b",
      "hash": "a3e6bffd3f1d46da471bc639f6f158956cc09c73b9fcb9f80d3de61f49dd2f7b",
      "version": 1,
      "size": 135,
      "vsize": 135,
      "weight": 540,
      "locktime": 0,
      "vin": [
        {
          "coinbase": "04ffff001d029907",
          "sequence": 4294967295
        }
      ],
      "vout": [
        {
          "value": 50.0,
          "n": 0,
          "scriptPubKey": {
            "asm": "0454d61bb773f13797d3b24e73304a5e50e2c2a7fb6aca3860d7ac8117ceeabf16d06f00b0268cfde14d1d063cb826511085ef3661ea838195299369fbf2966853 OP_CHECKSIG",
            "desc": "pk(0454d61bb773f13797d3b24e73304a5e50e2c2a7fb6aca3860d7ac8117ceeabf16d06f00b0268cfde14d1d063cb826511085ef3661ea838195299369fbf2966853)#52lftjkm",
            "hex": "410454d61bb773f13797d3b24e73304a5e50e2c2a7fb6aca3860d7ac8117ceeabf16d06f00b0268cfde14d1d063cb826511085ef3661ea838195299369fbf2966853ac",
            "type": "pubkey"
          }
        }
      ],
      "hex": "01000000010000000000000000000000000000000000000000000000000000000000000000ffffffff0804ffff001d029907ffffffff0100f2052a0100000043410454d61bb773f13797d3b24e73304a5e50e2c2a7fb6aca3860d7ac8117ceeabf16d06f00b0268cfde14d1d063cb826511085ef3661ea838195299369fbf2966853ac00000000"
    }
  ]
}