{
  "hash": "000000000509d8351af50926d7a305d2e4044bfaf5f394894702c5c2be083c37",
  "confirmations": 47219,
  "height": 5879,
  "version": 1,
  "versionHex": "00000001",
  "merkleroot": "ecddb780fa9e917f5948a39bdc3362c670a14fd506e8e9b4b9d434a007687abe",
  "time": 1235827097,
  "mediantime": 1235822957,
  "nonce": 3280776218,
  "bits": "1d00ffff",
  "difficulty": 1,
  "chainwork": "000000000000000000000000000000000000000000000000000016f816f816f8",
  "nTx": 1,
  "previousblockhash": "00000000140a4159ffb9a2ed5a4cc267b0da71bc0b0c89051a232726376a5d58",
  "nextblockhash": "000000003eb751f538e66bf2d6ce2131184b11e3e804a87b4a839b1f50a1ee14",
  "strippedsize": 216,
  "size": 216,
  "weight": 864,
  "tx": [
    {
      "txid": "ecddb780fa9e917f5948a39bdc3362c670a14fd506e8e9b4b9d434a007687abe",
      "hash": "ecddb780fa9e917f5948a39bdc3362c670a14fd506e8e9b4b9d434a007687abe",
      "version": 1,
      "size": 135,
      "vsize": 135,
      "weight": 540,
      "locktime": 0,
      "vin": [
        {
          "coinbase": "04ffff001d02a702",
          "sequence": 4294967295
        }
      ],
      "vout": [
        {
          "value": 50.0,
          "n": 0,
          "scriptPubKey": {
            "asm": "04f1c2cd07a00688c5ed062a52de7c3fb17ef8e31407468fa32cee63f5e67159862a992c26cb8a327a9be87243dfd1e284e866d8d06d86c953203ff319f23164c2 OP_CHECKSIG",
            "desc": "pk(04f1c2cd07a00688c5ed062a52de7c3fb17ef8e31407468fa32cee63f5e67159862a992c26cb8a327a9be87243dfd1e284e866d8d06d86c953203ff319f23164c2)#0jarwpn6",
            "hex": "4104f1c2cd07a00688c5ed062a52de7c3fb17ef8e31407468fa32cee63f5e67159862a992c26cb8a327a9be87243dfd1e284e866d8d06d86c953203ff319f23164c2ac",
            "type": "pubkey"
          }
        }
      ],
      "hex": "01000000010000000000000000000000000000000000000000000000000000000000000000ffffffff0804ffff001d02a702ffffffff0100f2052a01000000434104f1c2cd07a00688c5ed062a52de7c3fb17ef8e31407468fa32cee63f5e67159862a992c26cb8a327a9be87243dfd1e284e866d8d06d86c953203ff319f23164c2ac00000000"
    }
  ]
}