{
  "hash": "00000000a4a9db6293064c6f7a3e583af08cedffef0ab6ef9c4d5066e2463868",
  "confirmations": 51989,
  "height": 1109,
  "version": 1,
  "versionHex": "00000001",
  "merkleroot": "6bf08eda9310d6e5fbee1aace3179bc9d3d4af261037bddf3e001d0457c3aa9f",
  "time": 1232428878,
  "mediantime": 1232426395,
  "nonce": 1248873782,
  "bits": "1d00ffff",
  "difficulty": 1,
  "chainwork": "0000000000000000000000000000000000000000000000000000045604560456",
  "nTx": 1,
  "previousblockhash": "00000000d033c35663d5d35acac6551cb69ea976f0f9efa8d903049b0888ea23",
  "nextblockhash": "0000000025ebddf45176d4cd83fe40389178af94c9f4a05e6e6799ccf7ac88ec",
  "strippedsize": 216,
  "size": 216,
  "weight": 864,
  "tx": [
    {
      "txid": "6bf08eda9310d6e5fbee1aace3179bc9d3d4af261037bddf3e001d0457c3aa9f",
      "hash": "6bf08eda9310d6e5fbee1aace3179bc9d3d4af261037bddf3e001d0457c3aa9f",
      "version": 1,
      "size": 135,
      "vsize": 135,
      "weight": 540,
      "locktime": 0,
      "vin": [
        {
          "coinbase": "04ffff001d023507",
          "sequence": 4294967295
        }
      ],
      "vout": [
        {
          "value": 50.0,
          "n": 0,
          "scriptPubKey": {
            "asm": "047c3bd42272d397a1a6cd3d34af7de19957254172430eafe86b6bc7de3550858a2fda758eb023bc9374ef23a8b777ec8dce28f159db60af8e02e8e927e07880cd OP_CHECKSIG",
            "desc": "pk(047c3bd42272d397a1a6cd3d34af7de19957254172430eafe86b6bc7de3550858a2fda758eb023bc9374ef23a8b777ec8dce28f159db60af8e02e8e927e07880cd)#0z2hadf7",
            "hex": "41047c3bd42272d397a1a6cd3d34af7de19957254172430eafe86b6bc7de3550858a2fda758eb023bc9374ef23a8b777ec8dce28f159db60af8e02e8e927e07880cdac",
            "type": "pubkey"
          }
        }
      ],
      "hex": "01000000010000000000000000000000000000000000000000000000000000000000000000ffffffff0804ffff001d023507ffffffff0100f2052a010000004341047c3bd42272d397a1a6cd3d34af7de19957254172430eafe86b6bc7de3550858a2fda758eb023bc9374ef23a8b777ec8dce28f159db60af8e02e8e927e07880cdac00000000"
    }
  ]
}