{
  "hash": "00000000b9370f6cc868c0810a3c651921e3557c041a8dd45504ee87d0534f6b",
  "confirmations": 43944,
  "height": 9154,
  "version": 1,
  "versionHex": "00000001",
  "merkleroot": "aed10d8b08f578b7fa113ba07a1bceb82f665b488b6cd9bc1ffddcd05120be10",
  "time": 1238369385,
  "mediantime": 1238366484,
  "nonce": 810556700,
  "bits": "1d00ffff",
  "difficulty": 1,
  "chainwork": "000000000000000000000000000000000000000000000000000023c323c323c3",
  "nTx": 1,
  "previousblockhash": "00000000dfb37670075b0cdcb36dfe3e733a450ab4b2a27ccd4278edbcfeb8fb",
  "nextblockhash": "00000000374e7db9c24a29cc9aadd38f39be6a05250e4abc44b29ee5074353a0",
  "strippedsize": 216,
  "size": 216,
  "weight": 864,
  "tx": [
    {
      "txid": "aed10d8b08f578b7fa113ba07a1bceb82f665b488b6cd9bc1ffddcd05120be10",
      "hash": "aed10d8b08f578b7fa113ba07a1bceb82f665b488b6cd9bc1ffddcd05120be10",
      "version": 1,
      "size": 135,
      "vsize": 135,
      "weight": 540,
      "locktime": 0,
      "vin": [
        {
          "coinbase": "04ffff001d027809",
          "sequence": 4294967295
        }
      ],
      "vout": [
        {
          "value": 50.0,
          "n": 0,
          "scriptPubKey": {
            "asm": "04a94d826d011cae91d052fea908a468cb3c0d05c3b8a9e908006ca6793eb51a2b51f9ea4c35747a668d8573b13f4fa1dd7dd4c0f4024159ae25d43b6f6d314411 OP_CHECKSIG",
            "desc": "pk(04a94d826d011cae91d052fea908a468cb3c0d05c3b8a9e908006ca6793eb51a2b51f9ea4c35747a668d8573b13f4fa1dd7dd4c0f4024159ae25d43b6f6d314411)#8ps9zgkv",
            "hex": "4104a94d826d011cae91d052fea908a468cb3c0d05c3b8a9e908006ca6793eb51a2b51f9ea4c35747a668d8573b13f4fa1dd7dd4c0f4024159ae25d43b6f6d314411ac",
            "type": "pubkey"
          }
        }
      ],
      "hex": "01000000010000000000000000000000000000000000000000000000000000000000000000ffffffff0804ffff001d027809ffffffff0100f2052a01000000434104a94d826d011cae91d052fea908a468cb3c0d05c3b8a9e908006ca6793eb51a2b51f9ea4c35747a668d8573b13f4fa1dd7dd4c0f4024159ae25d43b6f6d314411ac00000000"
    }
  ]
}