{
  "hash": "00000000d90d095ad40666d8ad56af00b8c8b32b39a79301ddd58a35e0176654",
  "confirmations": 51663,
  "height": 1435,
  "version": 1,
  "versionHex": "00000001",
  "merkleroot": "3dfdf6e6b1ffe92c8721d7fb2c53ba95a47d5702459ffab4b4f010db00fe5435",
  "time": 1232740288,
  "mediantime": 1232737826,
  "nonce": 4152499236,
  "bits": "1d00ffff",
  "difficulty": 1,
  "chainwork": "0000000000000000000000000000000000000000000000000000059c059c059c",
  "nTx": 1,
  "previousblockhash": "00000000570833758a30d31d67e8e6fd8c56488173e9a71f4fa7be920b93190c",
  "nextblockhash": "00000000c6bdeda56c538ca9a63a2f0e46c5e3df8c0eac955300f1964f5cb1a8",
  "strippedsize": 215,
  "size": 215,
  "weight": 860,
  "tx": [
    {
      "txid": "3dfdf6e6b1ffe92c8721d7fb2c53ba95a47d5702459ffab4b4f010db00fe5435",
      "hash": "3dfdf6e6b1ffe92c8721d7fb2c53ba95a47d5702459ffab4b4f010db00fe5435",
      "version": 1,
      "size": 134,
      "vsize": 134,
      "weight": 536,
      "locktime": 0,
      "vin": [
        {
          "coinbase": "04ffff001d016a",
          "sequence": 4294967295
        }
      ],
      "vout": [
        {
          "value": 50.0,
          "n": 0,
          "scriptPubKey": {
            "asm": "04eee221ea1a5daeefc11e260e67245851f08ccdda95551f715722a570716b3f138b88315ff72eb36cd8ada9fa8509f1d51122e49670cbc2f3d26a3e04606d28b6 OP_CHECKSIG",
            "desc": "pk(04eee221ea1a5daeefc11e260e67245851f08ccdda95551f715722a570716b3f138b88315ff72eb36cd8ada9fa8509f1d51122e49670cbc2f3d26a3e04606d28b6)#zglmwpd4",
            "hex": "4104eee221ea1a5daeefc11e260e67245851f08ccdda95551f715722a570716b3f138b88315ff72eb36cd8ada9fa8509f1d51122e49670cbc2f3d26a3e04606d28b6ac",
            "type": "pubkey"
          }
        }
      ],
      "hex": "01000000010000000000000000000000000000000000000000000000000000000000000000ffffffff0704ffff001d016affffffff0100f2052a01000000434104eee221ea1a5daeefc11e260e67245851f08ccdda95551f715722a570716b3f138b88315ff72eb36cd8ada9fa8509f1d51122e49670cbc2f3d26a3e04606d28b6ac00000000"
    }
  ]
}