{
  "hash": "00000000281a0691c3a787107eb706b38173657935576e16373db912c36ce62d",
  "confirmations": 44455,
  "height": 8643,
  "version": 1,
  "versionHex": "00000001",
  "merkleroot": "757834f24b575b21a5d176937a3b4a5b39cf68beabde3923ed2a86d71b67d836",
  "time": 1237979006,
  "mediantime": 1237974753,
  "nonce": 3162689800,
  "bits": "1d00ffff",
  "difficulty": 1,
  "chainwork": "000000000000000000000000000000000000000000000000000021c421c421c4",
  "nTx": 1,
  "previousblockhash": "000000003819757b4093ca235dc2355734229ffb44e6dbb3191e9cd38d8f36c8",
  "nextblockhash": "00000000c14e61b3119b529b1a97ab7d8cde929ade02ac8ebdf1b44ea1c92f7c",
  "strippedsize": 216,
  "size": 216,
  "weight": 864,
  "tx": [
    {
      "txid": "757834f24b575b21a5d176937a3b4a5b39cf68beabde3923ed2a86d71b67d836",
      "hash": "757834f24b575b21a5d176937a3b4a5b39cf68beabde3923ed2a86d71b67d836",
      "version": 1,
      "size": 135,
      "vsize": 135,
      "weight": 540,
      "locktime": 0,
      "vin": [
        {
          "coinbase": "04ffff001d02340a",
          "sequence": 4294967295
        }
      ],
      "vout": [
        {
          "value": 50.0,
          "n": 0,
          "scriptPubKey": {
            "asm": "0434c85fa6db5a83d68ef7d8bf6d92bdf7341607119c11bb1d305cad907a8f517f1fbfd401abb431fb35f87c23004d667ce0987efad372936174b62c902d77ee08 OP_CHECKSIG",
            "desc": "pk(0434c85fa6db5a83d68ef7d8bf6d92bdf7341607119c11bb1d305cad907a8f517f1fbfd401abb431fb35f87c23004d667ce0987efad372936174b62c902d77ee08)#8gtwhh2f",
            "hex": "410434c85fa6db5a83d68ef7d8bf6d92bdf7341607119c11bb1d305cad907a8f517f1fbfd401abb431fb35f87c23004d667ce0987efad372936174b62c902d77ee08ac",
            "type": "pubkey"
          }
        }
      ],
      "hex": "01000000010000000000000000000000000000000000000000000000000000000000000000ffffffff0804ffff001d02340affffffff0100f2052a0100000043410434c85fa6db5a83d68ef7d8bf6d92bdf7341607119c11bb1d305cad907a8f517f1fbfd401abb431fb35f87c23004d667ce0987efad372936174b62c902d77ee08ac00000000"
    }
  ]
}