{
  "hash": "0000000072ff7c38ef0b58e75a42ba81ff969094d57e1f4febb8904bc9a48eda",
  "confirmations": 48194,
  "height": 4904,
  "version": 1,
  "versionHex": "00000001",
  "merkleroot": "7eaabcee59445a37a9514f57461b5935af3dd2b1466282d50939a9c73045a5ec",
  "time": 1235073313,
  "mediantime": 1235069314,
  "nonce": 326886254,
  "bits": "1d00ffff",
  "difficulty": 1,
  "chainwork": "0000000000000000000000000000000000000000000000000000132913291329",
  "nTx": 1,
  "previousblockhash": "00000000be82eeae362817e100b553d5ceee2437ea28621b1e32aa570898aea0",
  "nextblockhash": "00000000638d752e26e036560f4055aacf3845e4a33775e360d40d96a3950a46",
  "strippedsize": 216,
  "size": 216,
  "weight": 864,
  "tx": [
    {
      "txid": "7eaabcee59445a37a9514f57461b5935af3dd2b1466282d50939a9c73045a5ec",
      "hash": "7eaabcee59445a37a9514f57461b5935af3dd2b1466282d50939a9c73045a5ec",
      "version": 1,
      "size": 135,
      "vsize": 135,
      "weight": 540,
      "locktime": 0,
      "vin": [
        {
          "coinbase": "04ffff001d02c00b",
          "sequence": 4294967295
        }
      ],
      "vout": [
        {
          "value": 50.0,
          "n": 0,
          "scriptPubKey": {
            "asm": "04dbcc933a5f888fa472b2ad8790d715b4a3ade1a966ff9a536d2f1948e8889bfe0e42ff8e6e2bcb103189990616c2d85604fbe46b230df77a233ea216e7533b20 OP_CHECKSIG",
            "desc": "pk(04dbcc933a5f888fa472b2ad8790d715b4a3ade1a966ff9a536d2f1948e8889bfe0e42ff8e6e2bcb103189990616c2d85604fbe46b230df77a233ea216e7533b20)#s7u02gf0",
            "hex": "4104dbcc933a5f888fa472b2ad8790d715b4a3ade1a966ff9a536d2f1948e8889bfe0e42ff8e6e2bcb103189990616c2d85604fbe46b230df77a233ea216e7533b20ac",
            "type": "pubkey"
          }
        }
      ],
      "hex": "01000000010000000000000000000000000000000000000000000000000000000000000000ffffffff0804ffff001d02c00bffffffff0100f2052a01000000434104dbcc933a5f888fa472b2ad8790d715b4a3ade1a966ff9a536d2f1948e8889bfe0e42ff8e6e2bcb103189990616c2d85604fbe46b230df77a233ea216e7533b20ac00000000"
    }
  ]
}