{
  "hash": "00000000c8c441b920be149d400444f6cf0ac57d04974196d012430ad9746c5e",
  "confirmations": 46070,
  "height": 7028,
  "version": 1,
  "versionHex": "00000001",
  "merkleroot": "1028a8439d86a7e16fdcad141a407980a6c6fb2b3452e5c628438499dc17ca5b",
  "time": 1236739187,
  "mediantime": 1236735699,
  "nonce": 38589014,
  "bits": "1d00ffff",
  "difficulty": 1,
  "chainwork": "00000000000000000000000000000000000000000000000000001b751b751b75",
  "nTx": 1,
  "previousblockhash": "000000007770e0b928a9a972c10c1a7bd91afdefc0eaf09580158e1703d17cf2",
  "nextblockhash": "000000003a1f2355922617c1ce8c0b0ee6c08e2614ccc6d4a898191fe3f1c237",
  "strippedsize": 216,
  "size": 216,
  "weight": 864,
  "tx": [
    {
      "txid": "1028a8439d86a7e16fdcad141a407980a6c6fb2b3452e5c628438499dc17ca5b",
      "hash": "1028a8439d86a7e16fdcad141a407980a6c6fb2b3452e5c628438499dc17ca5b",
      "version": 1,
      "size": 135,
      "vsize": 135,
      "weight": 540,
      "locktime": 0,
      "vin": [
        {
          "coinbase": "04ffff001d023c0d",
          "sequence": 4294967295
        }
      ],
      "vout": [
        {
          "value": 50.0,
          "n": 0,
          "scriptPubKey": {
            "asm": "0405276f0bbfdca985a4e9aa9d3a11ba8a226c2f10ce3d9b090da67405b57291150582b1a66ad667eadc618a3ffac7d2186d91edb6646ba12db10bcba8e37f1419 OP_CHECKSIG",
            "desc": "pk(0405276f0bbfdca985a4e9aa9d3a11ba8a226c2f10ce3d9b090da67405b57291150582b1a66ad667eadc618a3ffac7d2186d91edb6646ba12db10bcba8e37f1419)#hdqxg969",
            "hex": "410405276f0bbfdca985a4e9aa9d3a11ba8a226c2f10ce3d9b090da67405b57291150582b1a66ad667eadc618a3ffac7d2186d91edb6646ba12db10bcba8e37f1419ac",
            "type": "pubkey"
          }
        }
      ],
      "hex": "01000000010000000000000000000000000000000000000000000000000000000000000000ffffffff0804ffff001d023c0dffffffff0100f2052a0100000043410405276f0bbfdca985a4e9aa9d3a11ba8a226c2f10ce3d9b090da67405b57291150582b1a66ad667eadc618a3ffac7d2186d91edb6646ba12db10bcba8e37f1419ac00000000"
    }
  ]
}