{
  "hash": "00000000a63464d91beae0989e1be6a419faa928f728c7388d2abdd506fc807d",
  "confirmations": 48607,
  "height": 4491,
  "version": 1,
  "versionHex": "00000001",
  "merkleroot": "787e234692ad741a286ffd3ef542ecc23a8f7f84606bca7ba773316d573e1145",
  "time": 1234774387,
  "mediantime": 1234770138,
  "nonce": 681820455,
  "bits": "1d00ffff",
  "difficulty": 1,
  "chainwork": "0000000000000000000000000000000000000000000000000000118c118c118c",
  "nTx": 1,
  "previousblockhash": "000000002d3ce54305428084e74de3ba4f0d39b0561df8f3b3d3276411dbd1be",
  "nextblockhash": "000000005a40feb0df143aa622a1aac57edd38a5d2c2bc51b7ac27f8e7177af0",
  "strippedsize": 216,
  "size": 216,
  "weight": 864,
  "tx": [
    {
      "txid": "787e234692ad741a286ffd3ef542ecc23a8f7f84606bca7ba773316d573e1145",
      "hash": "787e234692ad741a286ffd3ef542ecc23a8f7f84606bca7ba773316d573e1145",
      "version": 1,
      "size": 135,
      "vsize": 135,
      "weight": 540,
      "locktime": 0,
      "vin": [
        {
          "coinbase": "04ffff001d02b602",
          "sequence": 4294967295
        }
      ],
      "vout": [
        {
          "value": 50.0,
          "n": 0,
          "scriptPubKey": {
            "asm": "049159f68f4bfb01fcb3fc1dce08a0f3d9511b3ac87cc7c1d0cd2a39f7c27d9cff3f322ffd9cfadd8aa1cdde6892be721fb880da9045cb17dc12341e4689e744c5 OP_CHECKSIG",
            "desc": "pk(049159f68f4bfb01fcb3fc1dce08a0f3d9511b3ac87cc7c1d0cd2a39f7c27d9cff3f322ffd9cfadd8aa1cdde6892be721fb880da9045cb17dc12341e4689e744c5)#2hljxu3g",
            "hex": "41049159f68f4bfb01fcb3fc1dce08a0f3d9511b3ac87cc7c1d0cd2a39f7c27d9cff3f322ffd9cfadd8aa1cdde6892be721fb880da9045cb17dc12341e4689e744c5ac",
            "type": "pubkey"
          }
        }
      ],
      "hex": "01000000010000000000000000000000000000000000000000000000000000000000000000ffffffff0804ffff001d02b602ffffffff0100f2052a010000004341049159f68f4bfb01fcb3fc1dce08a0f3d9511b3ac87cc7c1d0cd2a39f7c27d9cff3f322ffd9cfadd8aa1cdde6892be721fb880da9045cb17dc12341e4689e744c5ac00000000"
    }
  ]
}