{
  "hash": "0000000055530174f3eaf349c20522e71b87a1e5929054889d774f84859d542c",
  "confirmations": 50316,
  "height": 2782,
  "version": 1,
  "versionHex": "00000001",
  "merkleroot": "160d364b7ad86a772207349468ab8d95df77d2d6676a9b50288486746cf06dab",
  "time": 1233618209,
  "mediantime": 1233615305,
  "nonce": 73949572,
  "bits": "1d00ffff",
  "difficulty": 1,
  "chainwork": "00000000000000000000000000000000000000000000000000000adf0adf0adf",
  "nTx": 1,
  "previousblockhash": "000000005dbb85aae7ebc3ef8285d78edf4f21dda1b5ec623957e13887228fd8",
  "nextblockhash": "00000000c98f59291e695e46f69b6d20f3a45767fa6804636a8dd911955a917f",
  "strippedsize": 216,
  "size": 216,
  "weight": 864,
  "tx": [
    {
      "txid": "160d364b7ad86a772207349468ab8d95df77d2d6676a9b50288486746cf06dab",
      "hash": "160d364b7ad86a772207349468ab8d95df77d2d6676a9b50288486746cf06dab",
      "version": 1,
      "size": 135,
      "vsize": 135,
      "weight": 540,
      "locktime": 0,
      "vin": [
        {
          "coinbase": "04ffff001d02e400",
          "sequence": 4294967295
        }
      ],
      "vout": [
        {
          "value": 50.0,
          "n": 0,
          "scriptPubKey": {
            "asm": "04ef62aed3a086564355da3f624e27e624e89bb4dfec0ef01033aea7be08af040824b236dc94c818db58c96cdf476fdb05a82c786803de2d0e7647d231f66240d8 OP_CHECKSIG",
            "desc": "pk(04ef62aed3a086564355da3f624e27e624e89bb4dfec0ef01033aea7be08af040824b236dc94c818db58c96cdf476fdb05a82c786803de2d0e7647d231f66240d8)#2y9cx3nm",
            "hex": "4104ef62aed3a086564355da3f624e27e624e89bb4dfec0ef01033aea7be08af040824b236dc94c818db58c96cdf476fdb05a82c786803de2d0e7647d231f66240d8ac",
            "type": "pubkey"
          }
        }
      ],
      "hex": "01000000010000000000000000000000000000000000000000000000000000000000000000ffffffff0804ffff001d02e400ffffffff0100f2052a01000000434104ef62aed3a086564355da3f624e27e624e89bb4dfec0ef01033aea7be08af040824b236dc94c818db58c96cdf476fdb05a82c786803de2d0e7647d231f66240d8ac00000000"
    }
  ]
}