{
  "hash": "00000000aaee60d583925d51209d30fde95333270f40f19415e9b62ef7e39eea",
  "confirmations": 43278,
  "height": 9820,
  "version": 1,
  "versionHex": "00000001",
  "merkleroot": "315fa7d8558446b619f54ca5f647ec79a80ea96031cdabb6d134d940a2566cfa",
  "time": 1238869432,
  "mediantime": 1238865363,
  "nonce": 982368806,
  "bits": "1d00ffff",
  "difficulty": 1,
  "chainwork": "0000000000000000000000000000000000000000000000000000265d265d265d",
  "nTx": 1,
  "previousblockhash": "0000000019844a244ad54bc30ecc9d133fa7b670ca157c5928ef5ab7197c64b8",
  "nextblockhash": "00000000c3443b2573654522476c682b9a757d96e78c86e0587032c95d8057b9",
  "strippedsize": 216,
  "size": 216,
  "weight": 864,
  "tx": [
    {
      "txid": "315fa7d8558446b619f54ca5f647ec79a80ea96031cdabb6d134d940a2566cfa",
      "hash": "315fa7d8558446b619f54ca5f647ec79a80ea96031cdabb6d134d940a2566cfa",
      "version": 1,
      "size": 135,
      "vsize": 135,
      "weight": 540,
      "locktime": 0,
      "vin": [
        {
          "coinbase": "04ffff001d029400",
          "sequence": 4294967295
        }
      ],
      "vout": [
        {
          "value": 50.0,
          "n": 0,
          "scriptPubKey": {
            "asm": "04ffb683f9da50ed19e585483e41b05a91775c5d18eb7866b3b4326f1660a2a3755c4a6c8cba9f3d913025356f85e54281ad5a254844ce7d2c03a4634ddfea5c59 OP_CHECKSIG",
            "desc": "pk(04ffb683f9da50ed19e585483e41b05a91775c5d18eb7866b3b4326f1660a2a3755c4a6c8cba9f3d913025356f85e54281ad5a254844ce7d2c03a4634ddfea5c59)#rpurdgup",
            "hex": "4104ffb683f9da50ed19e585483e41b05a91775c5d18eb7866b3b4326f1660a2a3755c4a6c8cba9f3d913025356f85e54281ad5a254844ce7d2c03a4634ddfea5c59ac",
            "type": "pubkey"
          }
        }
      ],
      "hex": "01000000010000000000000000000000000000000000000000000000000000000000000000ffffffff0804ffff001d029400ffffffff0100f2052a01000000434104ffb683f9da50ed19e585483e41b05a91775c5d18eb7866b3b4326f1660a2a3755c4a6c8cba9f3d913025356f85e54281ad5a254844ce7d2c03a4634ddfea5c59ac00000000"
    }
  ]
}