{
  "hash": "00000000377dcac7a06bcca10db790c2fbfe7b670eb9afdf2351e2679f3076da",
  "confirmations": 44459,
  "height": 8639,
  "version": 1,
  "versionHex": "00000001",
  "merkleroot": "f3661b69bb84073e307881aaf8c91dcb8e01da9f6823a59b41e617efc04f07a3",
  "time": 1237975364,
  "mediantime": 1237971144,
  "nonce": 2146676014,
  "bits": "1d00ffff",
  "difficulty": 1,
  "chainwork": "000000000000000000000000000000000000000000000000000021c021c021c0",
  "nTx": 1,
  "previousblockhash": "000000004aed3ecd7f4eee639eacb046187f06ec5baf02c8434134f914d3156f",
  "nextblockhash": "0000000007b3d3d27c5e2a41f72a6f8325a8c0bcef7b3816f085c7c3e3f6f8dd",
  "strippedsize": 216,
  "size": 216,
  "weight": 864,
  "tx": [
    {
      "txid": "f3661b69bb84073e307881aaf8c91dcb8e01da9f6823a59b41e617efc04f07a3",
      "hash": "f3661b69bb84073e307881aaf8c91dcb8e01da9f6823a59b41e617efc04f07a3",
      "version": 1,
      "size": 135,
      "vsize": 135,
      "weight": 540,
      "locktime": 0,
      "vin": [
        {
          "coinbase": "04ffff001d021e0a",
          "sequence": 4294967295
        }
      ],
      "vout": [
        {
          "value": 50.0,
          "n": 0,
          "scriptPubKey": {
            "asm": "04e650def13578e4725e5085c30210625126d8815b0a8028f5a8d2248e7c6b94e8a251adc68dd6071d474f8b7551ea7d4f61e1d465aa6138858235b90f2d50b4ec OP_CHECKSIG",
            "desc": "pk(04e650def13578e4725e5085c30210625126d8815b0a8028f5a8d2248e7c6b94e8a251adc68dd6071d474f8b7551ea7d4f61e1d465aa6138858235b90f2d50b4ec)#xcmureex",
            "hex": "4104e650def13578e4725e5085c30210625126d8815b0a8028f5a8d2248e7c6b94e8a251adc68dd6071d474f8b7551ea7d4f61e1d465aa6138858235b90f2d50b4ecac",
            "type": "pubkey"
          }
        }
      ],
      "hex": "01000000010000000000000000000000000000000000000000000000000000000000000000ffffffff0804ffff001d021e0affffffff0100f2052a01000000434104e650def13578e4725e5085c30210625126d8815b0a8028f5a8d2248e7c6b94e8a251adc68dd6071d474f8b7551ea7d4f61e1d465aa6138858235b90f2d50b4ecac00000000"
    }
  ]
}