{
  "hash": "0000000007ab003805c9a0a86d856788bd90ae79d7ddf712fc75a751a98652c9",
  "confirmations": 47547,
  "height": 5551,
  "version": 1,
  "versionHex": "00000001",
  "merkleroot": "57f5d7bcd951330835243c5b480d9fb6d88954733c1bfee59819a7e4a1b07b96",
  "time": 1235563277,
  "mediantime": 1235558815,
  "nonce": 4101843235,
  "bits": "1d00ffff",
  "difficulty": 1,
  "chainwork": "000000000000000000000000000000000000000000000000000015b015b015b0",
  "nTx": 1,
  "previousblockhash": "00000000f17bb352960d24ca298a9c986eafa9dddeed41eee4a09d75ad610cbb",
  "nextblockhash": "00000000d9ae185cf149ea6615f846a216dafd8aa4d5c613564a9bc5e1e0f0ab",
  "strippedsize": 216,
  "size": 216,
  "weight": 864,
  "tx": [
    {
      "txid": "57f5d7bcd951330835243c5b480d9fb6d88954733c1bfee59819a7e4a1b07b96",
      "hash": "57f5d7bcd951330835243c5b480d9fb6d88954733c1bfee59819a7e4a1b07b96",
      "version": 1,
      "size": 135,
      "vsize": 135,
      "weight": 540,
      "locktime": 0,
      "vin": [
        {
          "coinbase": "04ffff001d029606",
          "sequence": 4294967295
        }
      ],
      "vout": [
        {
          "value": 50.0,
          "n": 0,
          "scriptPubKey": {
            "asm": "04f49c041559bd5ddda5a55262771fa1889573f4fa1c94c71cfe79c8be2975cc8932da0b3de755d7e1f9c3ccae6dcd151929d74080750d940db3eeaf95d979f2cd OP_CHECKSIG",
            "desc": "pk(04f49c041559bd5ddda5a55262771fa1889573f4fa1c94c71cfe79c8be2975cc8932da0b3de755d7e1f9c3ccae6dcd151929d74080750d940db3eeaf95d979f2cd)#g2e4whem",
            "hex": "4104f49c041559bd5ddda5a55262771fa1889573f4fa1c94c71cfe79c8be2975cc8932da0b3de755d7e1f9c3ccae6dcd151929d74080750d940db3eeaf95d979f2cdac",
            "type": "pubkey"
          }
        }
      ],
      "hex": "01000000010000000000000000000000000000000000000000000000000000000000000000ffffffff0804ffff001d029606ffffffff0100f2052a01000000434104f49c041559bd5ddda5a55262771fa1889573f4fa1c94c71cfe79c8be2975cc8932da0b3de755d7e1f9c3ccae6dcd151929d74080750d940db3eeaf95d979f2cdac00000000"
    }
  ]
}