{
  "hash": "000000008fc19732f7f8c2eaecb187234c8b571c2a2bfa470fdd9a58aa934115",
  "confirmations": 43769,
  "height": 9329,
  "version": 1,
  "versionHex": "00000001",
  "merkleroot": "4c9b294176b1739987e5fc385e0ff3b68370ce5bf72c0dd3faf93992b17c2193",
  "time": 1238500188,
  "mediantime": 1238492899,
  "nonce": 352461770,
  "bits": "1d00ffff",
  "difficulty": 1,
  "chainwork": "0000000000000000000000000000000000000000000000000000247224722472",
  "nTx": 1,
  "previousblockhash": "00000000aeee3e3f2da0bc9e43a94e391c182b044835a1f7c5bfbc8041192cdb",
  "nextblockhash": "0000000095b78bacd196e1ca586236a82c1ee91e7e07984e580bf1d8fee56ddc",
  "strippedsize": 216,
  "size": 216,
  "weight": 864,
  "tx": [
    {
      "txid": "4c9b294176b1739987e5fc385e0ff3b68370ce5bf72c0dd3faf93992b17c2193",
      "hash": "4c9b294176b1739987e5fc385e0ff3b68370ce5bf72c0dd3faf93992b17c2193",
      "version": 1,
      "size": 135,
      "vsize": 135,
      "weight": 540,
      "locktime": 0,
      "vin": [
        {
          "coinbase": "04ffff001d025c06",
          "sequence": 4294967295
        }
      ],
      "vout": [
        {
          "value": 50.0,
          "n": 0,
          "scriptPubKey": {
            "asm": "047aab3be7569070244fdbad2d561a9ae4255f10528ab19ba799bc801e5233f3872dce91da9f7c454f069199f5988cf02cb877e6700d18a8f86ed0c4ddf0a6511b OP_CHECKSIG",
            "desc": "pk(047aab3be7569070244fdbad2d561a9ae4255f10528ab19ba799bc801e5233f3872dce91da9f7c454f069199f5988cf02cb877e6700d18a8f86ed0c4ddf0a6511b)#rnlcqzty",
            "hex": "41047aab3be7569070244fdbad2d561a9ae4255f10528ab19ba799bc801e5233f3872dce91da9f7c454f069199f5988cf02cb877e6700d18a8f86ed0c4ddf0a6511bac",
            "type": "pubkey"
          }
        }
      ],
      "hex": "01000000010000000000000000000000000000000000000000000000000000000000000000ffffffff0804ffff001d025c06ffffffff0100f2052a010000004341047aab3be7569070244fdbad2d561a9ae4255f10528ab19ba799bc801e5233f3872dce91da9f7c454f069199f5988cf02cb877e6700d18a8f86ed0c4ddf0a6511bac00000000"
    }
  ]
}