{
  "hash": "000000000130e59797893d4f2e5dc951e182ec170d6ba846ad84369529d547ad",
  "confirmations": 43348,
  "height": 9750,
  "version": 1,
  "versionHex": "00000001",
  "merkleroot": "bbf20ce1f1645e01bee68f2e0a6570bf3178070ff86eabbea2e750f68285275a",
  "time": 1238815703,
  "mediantime": 1238810466,
  "nonce": 3808580905,
  "bits": "1d00ffff",
  "difficulty": 1,
  "chainwork": "0000000000000000000000000000000000000000000000000000261726172617",
  "nTx": 1,
  "previousblockhash": "00000000f40c565cd53f081da5c59e22b680758912d04a670cfecd3e181febd5",
  "nextblockhash": "00000000e96c66f3ece9feed66332d45d9260417aa64ed22a5516a5709200b2e",
  "strippedsize": 216,
  "size": 216,
  "weight": 864,
  "tx": [
    {
      "txid": "bbf20ce1f1645e01bee68f2e0a6570bf3178070ff86eabbea2e750f68285275a",
      "hash": "bbf20ce1f1645e01bee68f2e0a6570bf3178070ff86eabbea2e750f68285275a",
      "version": 1,
      "size": 135,
      "vsize": 135,
      "weight": 540,
      "locktime": 0,
      "vin": [
        {
          "coinbase": "04ffff001d02a009",
          "sequence": 4294967295
        }
      ],
      "vout": [
        {
          "value": 50.0,
          "n": 0,
          "scriptPubKey": {
            "asm": "0436de260f266f57b0506499c76b7fba84426f79a392f024b4e9e1e1126d1383c61c4d730f1ec24aee96e4e3420085e6043566a8d0f51ab815bce6e4132f6998d4 OP_CHECKSIG",
            "desc": "pk(0436de260f266f57b0506499c76b7fba84426f79a392f024b4e9e1e1126d1383c61c4d730f1ec24aee96e4e3420085e6043566a8d0f51ab815bce6e4132f6998d4)#dxeclvvu",
            "hex": "410436de260f266f57b0506499c76b7fba84426f79a392f024b4e9e1e1126d1383c61c4d730f1ec24aee96e4e3420085e6043566a8d0f51ab815bce6e4132f6998d4ac",
            "type": "pubkey"
          }
        }
      ],
      "hex": "01000000010000000000000000000000000000000000000000000000000000000000000000ffffffff0804ffff001d02a009ffffffff0100f2052a0100000043410436de260f266f57b0506499c76b7fba84426f79a392f024b4e9e1e1126d1383c61c4d730f1ec24aee96e4e3420085e6043566a8d0f51ab815bce6e4132f6998d4ac00000000"
    }
  ]
}