{
  "hash": "000000006b411f1961e50e71f092217bfac4ec65fc62345db35fc69494db3ad3",
  "confirmations": 47942,
  "height": 5156,
  "version": 1,
  "versionHex": "00000001",
  "merkleroot": "76f75a726ae273976a6f78f168143d161fd00fd22126c898c521e954b9b20d8c",
  "time": 1235256814,
  "mediantime": 1235254218,
  "nonce": 4232313900,
  "bits": "1d00ffff",
  "difficulty": 1,
  "chainwork": "0000000000000000000000000000000000000000000000000000142514251425",
  "nTx": 1,
  "previousblockhash": "00000000eb09b9d5419d0961c4ed3766e60fe3d98a9b530ae45c393fbebad967",
  "nextblockhash": "00000000f1bb9811fec52b698e65498416cfa52d93eb44c351ae8f54538d4f77",
  "strippedsize": 216,
  "size": 216,
  "weight": 864,
  "tx": [
    {
      "txid": "76f75a726ae273976a6f78f168143d161fd00fd22126c898c521e954b9b20d8c",
      "hash": "76f75a726ae273976a6f78f168143d161fd00fd22126c898c521e954b9b20d8c",
      "version": 1,
      "size": 135,
      "vsize": 135,
      "weight": 540,
      "locktime": 0,
      "vin": [
        {
          "coinbase": "04ffff001d02030a",
          "sequence": 4294967295
        }
      ],
      "vout": [
        {
          "value": 50.0,
          "n": 0,
          "scriptPubKey": {
            "asm": "049ff6197526b98cc387002485fc4610d10e2e68acf19d24d4db2a58a45f44b21c8fa7d26cdc78fd3eb8f928819b41bcb4b38c836b06b87cbcdcb80e2e7f1e0200 OP_CHECKSIG",
            "desc": "pk(049ff6197526b98cc387002485fc4610d10e2e68acf19d24d4db2a58a45f44b21c8fa7d26cdc78fd3eb8f928819b41bcb4b38c836b06b87cbcdcb80e2e7f1e0200)#f8hcmhee",
            "hex": "41049ff6197526b98cc387002485fc4610d10e2e68acf19d24d4db2a58a45f44b21c8fa7d26cdc78fd3eb8f928819b41bcb4b38c836b06b87cbcdcb80e2e7f1e0200ac",
            "type": "pubkey"
          }
        }
      ],
      "hex": "01000000010000000000000000000000000000000000000000000000000000000000000000ffffffff0804ffff001d02030affffffff0100f2052a010000004341049ff6197526b98cc387002485fc4610d10e2e68acf19d24d4db2a58a45f44b21c8fa7d26cdc78fd3eb8f928819b41bcb4b38c836b06b87cbcdcb80e2e7f1e0200ac00000000"
    }
  ]
}