{
  "hash": "000000007d0aa517378d078ec3a736e0d9db7a105ed8341ee8f39ffa0725181f",
  "confirmations": 43454,
  "height": 9644,
  "version": 1,
  "versionHex": "00000001",
  "merkleroot": "b18a34f9f1dabb77f54a11ed756df1a588af5cbdf6d8016e503121284e2acbed",
  "time": 1238735829,
  "mediantime": 1238731916,
  "nonce": 3656898846,
  "bits": "1d00ffff",
  "difficulty": 1,
  "chainwork": "000000000000000000000000000000000000000000000000000025ad25ad25ad",
  "nTx": 1,
  "previousblockhash": "000000003b2609ae9985061b1d703b9fa1e9bb21e3ae9a73c893a5b8e42223a2",
  "nextblockhash": "000000000d04c22b78902f4f230ef59e256feb480c540696c2297cdeae2e4de8",
  "strippedsize": 216,
  "size": 216,
  "weight": 864,
  "tx": [
    {
      "txid": "b18a34f9f1dabb77f54a11ed756df1a588af5cbdf6d8016e503121284e2acbed",
      "hash": "b18a34f9f1dabb77f54a11ed756df1a588af5cbdf6d8016e503121284e2acbed",
      "version": 1,
      "size": 135,
      "vsize": 135,
      "weight": 540,
      "locktime": 0,
      "vin": [
        {
          "coinbase": "04ffff001d029d07",
          "sequence": 4294967295
        }
      ],
      "vout": [
        {
          "value": 50.0,
          "n": 0,
          "scriptPubKey": {
            "asm": "0443a8a168d5ba0e7a530cc62171760cad544cca71d7deedb38a22899472668f25ed88036634c6e9922826dd6269909598d26e2e80f5d7917783e9b1d7efd73b12 OP_CHECKSIG",
            "desc": "pk(0443a8a168d5ba0e7a530cc62171760cad544cca71d7deedb38a22899472668f25ed88036634c6e9922826dd6269909598d26e2e80f5d7917783e9b1d7efd73b12)#rsftjtd8",
            "hex": "410443a8a168d5ba0e7a530cc62171760cad544cca71d7deedb38a22899472668f25ed88036634c6e9922826dd6269909598d26e2e80f5d7917783e9b1d7efd73b12ac",
            "type": "pubkey"
          }
        }
      ],
      "hex": "01000000010000000000000000000000000000000000000000000000000000000000000000ffffffff0804ffff001d029d07ffffffff0100f2052a0100000043410443a8a168d5ba0e7a530cc62171760cad544cca71d7deedb38a22899472668f25ed88036634c6e9922826dd6269909598d26e2e80f5d7917783e9b1d7efd73b12ac00000000"
    }
  ]
}