{
  "hash": "00000000ce09bb03abbb48b1a6ea4a6af2ed8a248881a2d8e01fa37b0093a17e",
  "confirmations": 47994,
  "height": 5104,
  "version": 1,
  "versionHex": "00000001",
  "merkleroot": "1d6d4343eecfcd1f27a4cc077cb6147a937c55b248e578f1acb67a5386178077",
  "time": 1235220446,
  "mediantime": 1235215413,
  "nonce": 1395144455,
  "bits": "1d00ffff",
  "difficulty": 1,
  "chainwork": "000000000000000000000000000000000000000000000000000013f113f113f1",
  "nTx": 1,
  "previousblockhash": "00000000d604ed18f352964ba0e60a4dd510f168b727feec6f52325a4f8ee31e",
  "nextblockhash": "00000000707de97ce881e7294db414527cbaec901deb006b471714398a515e51",
  "strippedsize": 216,
  "size": 216,
  "weight": 864,
  "tx": [
    {
      "txid": "1d6d4343eecfcd1f27a4cc077cb6147a937c55b248e578f1acb67a5386178077",
      "hash": "1d6d4343eecfcd1f27a4cc077cb6147a937c55b248e578f1acb67a5386178077",
      "version": 1,
      "size": 135,
      "vsize": 135,
      "weight": 540,
      "locktime": 0,
      "vin": [
        {
          "coinbase": "04ffff001d022109",
          "sequence": 4294967295
        }
      ],
      "vout": [
        {
          "value": 50.0,
          "n": 0,
          "scriptPubKey": {
            "asm": "0481be94e08814d1f7133c11e2c6cda73e80fe7ecd6845ba001805145749cdab49f298489e23cec4c77d813b16402953fb4ccb8b595ef93fc506aba0b6f4f3b867 OP_CHECKSIG",
            "desc": "pk(0481be94e08814d1f7133c11e2c6cda73e80fe7ecd6845ba001805145749cdab49f298489e23cec4c77d813b16402953fb4ccb8b595ef93fc506aba0b6f4f3b867)#4fdmt4a6",
            "hex": "410481be94e08814d1f7133c11e2c6cda73e80fe7ecd6845ba001805145749cdab49f298489e23cec4c77d813b16402953fb4ccb8b595ef93fc506aba0b6f4f3b867ac",
            "type": "pubkey"
          }
        }
      ],
      "hex": "01000000010000000000000000000000000000000000000000000000000000000000000000ffffffff0804ffff001d022109ffffffff0100f2052a0100000043410481be94e08814d1f7133c11e2c6cda73e80fe7ecd6845ba001805145749cdab49f298489e23cec4c77d813b16402953fb4ccb8b595ef93fc506aba0b6f4f3b867ac00000000"
    }
  ]
}