{
  "hash": "00000000cdf94db726e0bb0f60db1998b8f24241ec0f1fffb594451bbaa477bd",
  "confirmations": 52131,
  "height": 967,
  "version": 1,
  "versionHex": "00000001",
  "merkleroot": "a62895a6d6ad34bf6f4766162e5f1d74054f238b5f494ad6df3d298788601604",
  "time": 1232323869,
  "mediantime": 1232321408,
  "nonce": 1766437417,
  "bits": "1d00ffff",
  "difficulty": 1,
  "chainwork": "000000000000000000000000000000000000000000000000000003c803c803c8",
  "nTx": 1,
  "previousblockhash": "0000000092a37af1da9b6a304d6cb2613ece736bc865476e5a23611f347b0322",
  "nextblockhash": "000000000adc53330a168c3e3ba9bea0090735fc7048846d7c858d3777d2b575",
  "strippedsize": 216,
  "size": 216,
  "weight": 864,
  "tx": [
    {
      "txid": "a62895a6d6ad34bf6f4766162e5f1d74054f238b5f494ad6df3d298788601604",
      "hash": "a62895a6d6ad34bf6f4766162e5f1d74054f238b5f494ad6df3d298788601604",
      "version": 1,
      "size": 135,
      "vsize": 135,
      "weight": 540,
      "locktime": 0,
      "vin": [
        {
          "coinbase": "04ffff001d029804",
          "sequence": 4294967295
        }
      ],
      "vout": [
        {
          "value": 50.0,
          "n": 0,
          "scriptPubKey": {
            "asm": "048636c9bf33d1a5e02baba329e70ee9519abeec7004c6cc3b1b538479a2ff468e8716b3e24447ee3654c96e0dc0c20fd8b3b41840331220580f949f862de56ada OP_CHECKSIG",
            "desc": "pk(048636c9bf33d1a5e02baba329e70ee9519abeec7004c6cc3b1b538479a2ff468e8716b3e24447ee3654c96e0dc0c20fd8b3b41840331220580f949f862de56ada)#mnzp5ed9",
            "hex": "41048636c9bf33d1a5e02baba329e70ee9519abeec7004c6cc3b1b538479a2ff468e8716b3e24447ee3654c96e0dc0c20fd8b3b41840331220580f949f862de56adaac",
            "type": "pubkey"
          }
        }
      ],
      "hex": "01000000010000000000000000000000000000000000000000000000000000000000000000ffffffff0804ffff001d029804ffffffff0100f2052a010000004341048636c9bf33d1a5e02baba329e70ee9519abeec7004c6cc3b1b538479a2ff468e8716b3e24447ee3654c96e0dc0c20fd8b3b41840331220580f949f862de56adaac00000000"
    }
  ]
}