{
  "hash": "000000007e0311199389a24ea5f110872900737957520ebd543cdbb0d27b85ea",
  "confirmations": 43773,
  "height": 9325,
  "version": 1,
  "versionHex": "00000001",
  "merkleroot": "524726ef6211468a7be9e8015a00ed0efa2f7cfefcc2ebb88620ca28d80f6d49",
  "time": 1238492899,
  "mediantime": 1238489102,
  "nonce": 3364116019,
  "bits": "1d00ffff",
  "difficulty": 1,
  "chainwork": "0000000000000000000000000000000000000000000000000000246e246e246e",
  "nTx": 1,
  "previousblockhash": "00000000174707e83cc0d60c0878037d536f67678e5d545995665de6403ccd92",
  "nextblockhash": "00000000c458c22c6f410e89196ec635aa6e816b99c6a0054c2332fce646bbdb",
  "strippedsize": 216,
  "size": 216,
  "weight": 864,
  "tx": [
    {
      "txid": "524726ef6211468a7be9e8015a00ed0efa2f7cfefcc2ebb88620ca28d80f6d49",
      "hash": "524726ef6211468a7be9e8015a00ed0efa2f7cfefcc2ebb88620ca28d80f6d49",
      "version": 1,
      "size": 135,
      "vsize": 135,
      "weight": 540,
      "locktime": 0,
      "vin": [
        {
          "coinbase": "04ffff001d023802",
          "sequence": 4294967295
        }
      ],
      "vout": [
        {
          "value": 50.0,
          "n": 0,
          "scriptPubKey": {
            "asm": "042249d3cec382ead9bc0e6cca2c38ffa0512bd5f18ed32a508d72cdb7067cc36706575ceaeb8e6e4abc61a5115af6b2d9ac6cf5333a88f4c139c9e4043894f882 OP_CHECKSIG",
            "desc": "pk(042249d3cec382ead9bc0e6cca2c38ffa0512bd5f18ed32a508d72cdb7067cc36706575ceaeb8e6e4abc61a5115af6b2d9ac6cf5333a88f4c139c9e4043894f882)#yupdu50w",
            "hex": "41042249d3cec382ead9bc0e6cca2c38ffa0512bd5f18ed32a508d72cdb7067cc36706575ceaeb8e6e4abc61a5115af6b2d9ac6cf5333a88f4c139c9e4043894f882ac",
            "type": "pubkey"
          }
        }
      ],
      "hex": "01000000010000000000000000000000000000000000000000000000000000000000000000ffffffff0804ffff001d023802ffffffff0100f2052a010000004341042249d3cec382ead9bc0e6cca2c38ffa0512bd5f18ed32a508d72cdb7067cc36706575ceaeb8e6e4abc61a5115af6b2d9ac6cf5333a88f4c139c9e4043894f882ac00000000"
    }
  ]
}