{
  "hash": "00000000be2b84cab11eb5ec4eaa6f9bd3422327614efe164d4a6b7712511547",
  "confirmations": 50340,
  "height": 2758,
  "version": 1,
  "versionHex": "00000001",
  "merkleroot": "7401ae7b1234c5bf2f3f9c0d97e25b653e09734405f509a5fa5d1604fc9c9ef2",
  "time": 1233602312,
  "mediantime": 1233598354,
  "nonce": 1297135921,
  "bits": "1d00ffff",
  "difficulty": 1,
  "chainwork": "00000000000000000000000000000000000000000000000000000ac70ac70ac7",
  "nTx": 1,
  "previousblockhash": "0000000035bb26acf342953e920830edf91dd193d7e86a4f109652b2d88faed4",
  "nextblockhash": "000000008575917f148887b09412c7655c7b463a0aa4c1884ce146b2f5aee9b7",
  "strippedsize": 216,
  "size": 216,
  "weight": 864,
  "tx": [
    {
      "txid": "7401ae7b1234c5bf2f3f9c0d97e25b653e09734405f509a5fa5d1604fc9c9ef2",
      "hash": "7401ae7b1234c5bf2f3f9c0d97e25b653e09734405f509a5fa5d1604fc9c9ef2",
      "version": 1,
      "size": 135,
      "vsize": 135,
      "weight": 540,
      "locktime": 0,
      "vin": [
        {
          "coinbase": "04ffff001d02b905",
          "sequence": 4294967295
        }
      ],
      "vout": [
        {
          "value": 50.0,
          "n": 0,
          "scriptPubKey": {
            "asm": "047298a457cc84291f4fe138d95743427fbd90b833de2445d5d2b204a699e9407781327dfececb87134524e455a668171a5a943cf9ff5dd29b349904a3d6bbe3bf OP_CHECKSIG",
            "desc": "pk(047298a457cc84291f4fe138d95743427fbd90b833de2445d5d2b204a699e9407781327dfececb87134524e455a668171a5a943cf9ff5dd29b349904a3d6bbe3bf)#h2aaakwm",
            "hex": "41047298a457cc84291f4fe138d95743427fbd90b833de2445d5d2b204a699e9407781327dfececb87134524e455a668171a5a943cf9ff5dd29b349904a3d6bbe3bfac",
            "type": "pubkey"
          }
        }
      ],
      "hex": "01000000010000000000000000000000000000000000000000000000000000000000000000ffffffff0804ffff001d02b905ffffffff0100f2052a010000004341047298a457cc84291f4fe138d95743427fbd90b833de2445d5d2b204a699e9407781327dfececb87134524e455a668171a5a943cf9ff5dd29b349904a3d6bbe3bfac00000000"
    }
  ]
}