{
  "hash": "00000000a2b6910e521ccb8263147cfc3cc474a1d6744b745fed4f912f4c381a",
  "confirmations": 50628,
  "height": 2470,
  "version": 1,
  "versionHex": "00000001",
  "merkleroot": "a0b88e36baf35ad05e730ddd0e518d87f0eb6d99eec9412a44927cfd0c613bde",
  "time": 1233404769,
  "mediantime": 1233401748,
  "nonce": 4085026089,
  "bits": "1d00ffff",
  "difficulty": 1,
  "chainwork": "000000000000000000000000000000000000000000000000000009a709a709a7",
  "nTx": 1,
  "previousblockhash": "000000005d82dc4c3a197d1c1adae9ed768189191ca5079e2fd69ca610243869",
  "nextblockhash": "0000000032e1104ffe8fe33902cb3bc9d632c056dd2e3e7cfcff8df93d3b4c96",
  "strippedsize": 216,
  "size": 216,
  "weight": 864,
  "tx": [
    {
      "txid": "a0b88e36baf35ad05e730ddd0e518d87f0eb6d99eec9412a44927cfd0c613bde",
      "hash": "a0b88e36baf35ad05e730ddd0e518d87f0eb6d99eec9412a44927cfd0c613bde",
      "version": 1,
      "size": 135,
      "vsize": 135,
      "weight": 540,
      "locktime": 0,
      "vin": [
        {
          "coinbase": "04ffff001d02b700",
          "sequence": 4294967295
        }
      ],
      "vout": [
        {
          "value": 50.0,
          "n": 0,
          "scriptPubKey": {
            "asm": "0456082da6562f3dc8a05e5ff8c3515ef41abeb766a908118922bd314cb5d424911c159fdaf65c7f7ee21af8f0430648e896da40257f90943ba9e3d9a97d1d2c43 OP_CHECKSIG",
            "desc": "pk(0456082da6562f3dc8a05e5ff8c3515ef41abeb766a908118922bd314cb5d424911c159fdaf65c7f7ee21af8f0430648e896da40257f90943ba9e3d9a97d1d2c43)#tk8jcelv",
            "hex": "410456082da6562f3dc8a05e5ff8c3515ef41abeb766a908118922bd314cb5d424911c159fdaf65c7f7ee21af8f0430648e896da40257f90943ba9e3d9a97d1d2c43ac",
            "type": "pubkey"
          }
        }
      ],
      "hex": "01000000010000000000000000000000000000000000000000000000000000000000000000ffffffff0804ffff001d02b700ffffffff0100f2052a0100000043410456082da6562f3dc8a05e5ff8c3515ef41abeb766a908118922bd314cb5d424911c159fdaf65c7f7ee21af8f0430648e896da40257f90943ba9e3d9a97d1d2c43ac00000000"
    }
  ]
}