{
  "hash": "000000004a00af1c6e98a43a9e0d46d21cd5cbbf352ba4fa7b78ddbcc8dfed17",
  "confirmations": 47622,
  "height": 5476,
  "version": 1,
  "versionHex": "00000001",
  "merkleroot": "741b2b2c04c200ea8e68f199d887de29f6bf290b5d2f4944559d91517d707f27",
  "time": 1235502110,
  "mediantime": 1235498127,
  "nonce": 86203617,
  "bits": "1d00ffff",
  "difficulty": 1,
  "chainwork": "0000000000000000000000000000000000000000000000000000156515651565",
  "nTx": 1,
  "previousblockhash": "00000000a41f3c1b8bb414b1ec6718c9e9bc07db18310f38055be0ccfd6c45f8",
  "nextblockhash": "0000000054c9c7fa5bde77cf1eb5b0bc398a5de9ab2886838564f1be68ce26e7",
  "strippedsize": 216,
  "size": 216,
  "weight": 864,
  "tx": [
    {
      "txid": "741b2b2c04c200ea8e68f199d887de29f6bf290b5d2f4944559d91517d707f27",
      "hash": "741b2b2c04c200ea8e68f199d887de29f6bf290b5d2f4944559d91517d707f27",
      "version": 1,
      "size": 135,
      "vsize": 135,
      "weight": 540,
      "locktime": 0,
      "vin": [
        {
          "coinbase": "04ffff001d023e01",
          "sequence": 4294967295
        }
      ],
      "vout": [
        {
          "value": 50.0,
          "n": 0,
          "scriptPubKey": {
            "asm": "0453f7417fc3e23dc3c81b65ffe093ab53b6fbcb52da241e5a1e52f80044b1a83e5666617755e76eced23a8a863135fcdab48c82e79c5fd8dd99026147cb640a8f OP_CHECKSIG",
            "desc": "pk(0453f7417fc3e23dc3c81b65ffe093ab53b6fbcb52da241e5a1e52f80044b1a83e5666617755e76eced23a8a863135fcdab48c82e79c5fd8dd99026147cb640a8f)#h8nc2wje",
            "hex": "410453f7417fc3e23dc3c81b65ffe093ab53b6fbcb52da241e5a1e52f80044b1a83e5666617755e76eced23a8a863135fcdab48c82e79c5fd8dd99026147cb640a8fac",
            "type": "pubkey"
          }
        }
      ],
      "hex": "01000000010000000000000000000000000000000000000000000000000000000000000000ffffffff0804ffff001d023e01ffffffff0100f2052a0100000043410453f7417fc3e23dc3c81b65ffe093ab53b6fbcb52da241e5a1e52f80044b1a83e5666617755e76eced23a8a863135fcdab48c82e79c5fd8dd99026147cb640a8fac00000000"
    }
  ]
}