{
  "hash": "00000000b013ad8580836a6ac6a905371542f3693a7639a93e066c2c0e473570",
  "confirmations": 47443,
  "height": 5655,
  "version": 1,
  "versionHex": "00000001",
  "merkleroot": "98bbb068435d771605ba54ebd3c773bdcbac038a3ce368184d88751924c77d61",
  "time": 1235652423,
  "mediantime": 1235648291,
  "nonce": 1525831213,
  "bits": "1d00ffff",
  "difficulty": 1,
  "chainwork": "0000000000000000000000000000000000000000000000000000161816181618",
  "nTx": 1,
  "previousblockhash": "00000000f57b72d02f4e1e00ac446de10f311caad10c45c8dd97301bad27ab5d",
  "nextblockhash": "00000000949a6879f9658d4de693f9a393e6add7e383425fb1148fd288c51200",
  "strippedsize": 216,
  "size": 216,
  "weight": 864,
  "tx": [
    {
      "txid": "98bbb068435d771605ba54ebd3c773bdcbac038a3ce368184d88751924c77d61",
      "hash": "98bbb068435d771605ba54ebd3c773bdcbac038a3ce368184d88751924c77d61",
      "version": 1,
      "size": 135,
      "vsize": 135,
      "weight": 540,
      "locktime": 0,
      "vin": [
        {
          "coinbase": "04ffff001d02c408",
          "sequence": 4294967295
        }
      ],
      "vout": [
        {
          "value": 50.0,
          "n": 0,
          "scriptPubKey": {
            "asm": "04be35dbff2b6ed2673201ea8af973d4f9201dc20e1268a1d135c78a5f8f55ebbf88ea2653664951fb55339757c2e82701c4c196d3b9930745a7aa5f7aaa7b90ca OP_CHECKSIG",
            "desc": "pk(04be35dbff2b6ed2673201ea8af973d4f9201dc20e1268a1d135c78a5f8f55ebbf88ea2653664951fb55339757c2e82701c4c196d3b9930745a7aa5f7aaa7b90ca)#gtg2k44p",
            "hex": "4104be35dbff2b6ed2673201ea8af973d4f9201dc20e1268a1d135c78a5f8f55ebbf88ea2653664951fb55339757c2e82701c4c196d3b9930745a7aa5f7aaa7b90caac",
            "type": "pubkey"
          }
        }
      ],
      "hex": "01000000010000000000000000000000000000000000000000000000000000000000000000ffffffff0804ffff001d02c408ffffffff0100f2052a01000000434104be35dbff2b6ed2673201ea8af973d4f9201dc20e1268a1d135c78a5f8f55ebbf88ea2653664951fb55339757c2e82701c4c196d3b9930745a7aa5f7aaa7b90caac00000000"
    }
  ]
}