{
  "hash": "000000004415a908414ea6c4149a01f39d401693aa29ef15e72717574e3aa8b2",
  "confirmations": 43619,
  "height": 9479,
  "version": 1,
  "versionHex": "00000001",
  "merkleroot": "19b0db1623cb9dd136b6ab5afee2b0d3310112a676522c0b9fda5ae81f4b56c8",
  "time": 1238613952,
  "mediantime": 1238609830,
  "nonce": 1975554579,
  "bits": "1d00ffff",
  "difficulty": 1,
  "chainwork": "0000000000000000000000000000000000000000000000000000250825082508",
  "nTx": 1,
  "previousblockhash": "00000000d9430c82ef216b561c480d996a9a961b620fe921a18791aa4bd4e063",
  "nextblockhash": "00000000ee40bc360a3865ef053df21861ad1217b6f95c10069f445ed652bcc3",
  "strippedsize": 216,
  "size": 216,
  "weight": 864,
  "tx": [
    {
      "txid": "19b0db1623cb9dd136b6ab5afee2b0d3310112a676522c0b9fda5ae81f4b56c8",
      "hash": "19b0db1623cb9dd136b6ab5afee2b0d3310112a676522c0b9fda5ae81f4b56c8",
      "version": 1,
      "size": 135,
      "vsize": 135,
      "weight": 540,
      "locktime": 0,
      "vin": [
        {
          "coinbase": "04ffff001d020b05",
          "sequence": 4294967295
        }
      ],
      "vout": [
        {
          "value": 50.0,
          "n": 0,
          "scriptPubKey": {
            "asm": "04dc739b0546f0df45ea46eb061603df49947b154a6512448b37f79f4dd6e31f9cf26ff5f63511a2195b531796c0e88dc84337c3bd8e5e2c272f5016e13a97742d OP_CHECKSIG",
            "desc": "pk(04dc739b0546f0df45ea46eb061603df49947b154a6512448b37f79f4dd6e31f9cf26ff5f63511a2195b531796c0e88dc84337c3bd8e5e2c272f5016e13a97742d)#g8zqr03q",
            "hex": "4104dc739b0546f0df45ea46eb061603df49947b154a6512448b37f79f4dd6e31f9cf26ff5f63511a2195b531796c0e88dc84337c3bd8e5e2c272f5016e13a97742dac",
            "type": "pubkey"
          }
        }
      ],
      "hex": "01000000010000000000000000000000000000000000000000000000000000000000000000ffffffff0804ffff001d020b05ffffffff0100f2052a01000000434104dc739b0546f0df45ea46eb061603df49947b154a6512448b37f79f4dd6e31f9cf26ff5f63511a2195b531796c0e88dc84337c3bd8e5e2c272f5016e13a97742dac00000000"
    }
  ]
}