{
  "hash": "0000000098c7727f332946230e251548a8a2b896e7f8727d416162f71b8b34bd",
  "confirmations": 51483,
  "height": 1615,
  "version": 1,
  "versionHex": "00000001",
  "merkleroot": "ac62254310a7b97706d0f9c9231edae274abf6c98f2b7dd09b23d4ff9def2050",
  "time": 1232817462,
  "mediantime": 1232816026,
  "nonce": 497183008,
  "bits": "1d00ffff",
  "difficulty": 1,
  "chainwork": "0000000000000000000000000000000000000000000000000000065006500650",
  "nTx": 1,
  "previousblockhash": "00000000928daa509077bb7de093159fb5af09035713efd177c580b4b22b1f2b",
  "nextblockhash": "000000007caa0b0b5926322a85cc521e6dd04b8b01474ea13044e530910e6e9d",
  "strippedsize": 216,
  "size": 216,
  "weight": 864,
  "tx": [
    {
      "txid": "ac62254310a7b97706d0f9c9231edae274abf6c98f2b7dd09b23d4ff9def2050",
      "hash": "ac62254310a7b97706d0f9c9231edae274abf6c98f2b7dd09b23d4ff9def2050",
      "version": 1,
      "size": 135,
      "vsize": 135,
      "weight": 540,
      "locktime": 0,
      "vin": [
        {
          "coinbase": "04ffff001d024702",
          "sequence": 4294967295
        }
      ],
      "vout": [
        {
          "value": 50.0,
          "n": 0,
          "scriptPubKey": {
            "asm": "04c03927f12ba8c58fb6713aeceb9222fb56166b7cc59daff1e34a68607ea6d0af95ee8e1954c59f6beaebfb9c66b12dad6145868ce1010a0bb67b81a4d702eaa3 OP_CHECKSIG",
            "desc": "pk(04c03927f12ba8c58fb6713aeceb9222fb56166b7cc59daff1e34a68607ea6d0af95ee8e1954c59f6beaebfb9c66b12dad6145868ce1010a0bb67b81a4d702eaa3)#783u9lq4",
            "hex": "4104c03927f12ba8c58fb6713aeceb9222fb56166b7cc59daff1e34a68607ea6d0af95ee8e1954c59f6beaebfb9c66b12dad6145868ce1010a0bb67b81a4d702eaa3ac",
            "type": "pubkey"
          }
        }
      ],
      "hex": "01000000010000000000000000000000000000000000000000000000000000000000000000ffffffff0804ffff001d024702ffffffff0100f2052a01000000434104c03927f12ba8c58fb6713aeceb9222fb56166b7cc59daff1e34a68607ea6d0af95ee8e1954c59f6beaebfb9c66b12dad6145868ce1010a0bb67b81a4d702eaa3ac00000000"
    }
  ]
}