{
  "hash": "00000000fd2887deb85e1410acf3043e2079638c17083c179beb96dcde6ee013",
  "confirmations": 44444,
  "height": 8654,
  "version": 1,
  "versionHex": "00000001",
  "merkleroot": "f02694f6e5e9f07ff7dee506927616ccaee02b9238203b9054289d4764bc4050",
  "time": 1237989049,
  "mediantime": 1237985293,
  "nonce": 132949868,
  "bits": "1d00ffff",
  "difficulty": 1,
  "chainwork": "000000000000000000000000000000000000000000000000000021cf21cf21cf",
  "nTx": 1,
  "previousblockhash": "00000000fb39895963d4284cf0f59e0ada8ffc2d05e81297966d4b13fdff4fc1",
  "nextblockhash": "0000000019351928bfd8bcb76287ef80e8a5b3571ef5db9b76fc28bc3b27e9ba",
  "strippedsize": 216,
  "size": 216,
  "weight": 864,
  "tx": [
    {
      "txid": "f02694f6e5e9f07ff7dee506927616ccaee02b9238203b9054289d4764bc4050",
      "hash": "f02694f6e5e9f07ff7dee506927616ccaee02b9238203b9054289d4764bc4050",
      "version": 1,
      "size": 135,
      "vsize": 135,
      "weight": 540,
      "locktime": 0,
      "vin": [
        {
          "coinbase": "04ffff001d023106",
          "sequence": 4294967295
        }
      ],
      "vout": [
        {
          "value": 50.0,
          "n": 0,
          "scriptPubKey": {
            "asm": "04621e133d7530f57413df53b947ffa8c69b8e192e5a842d1698fb85ef585c5316d2445a7c969b9664ec61c79e4bfad20b570149c6a5d9c503d14480129f21602f OP_CHECKSIG",
            "desc": "pk(04621e133d7530f57413df53b947ffa8c69b8e192e5a842d1698fb85ef585c5316d2445a7c969b9664ec61c79e4bfad20b570149c6a5d9c503d14480129f21602f)#d2e84kl6",
            "hex": "4104621e133d7530f57413df53b947ffa8c69b8e192e5a842d1698fb85ef585c5316d2445a7c969b9664ec61c79e4bfad20b570149c6a5d9c503d14480129f21602fac",
            "type": "pubkey"
          }
        }
      ],
      "hex": "01000000010000000000000000000000000000000000000000000000000000000000000000ffffffff0804ffff001d023106ffffffff0100f2052a01000000434104621e133d7530f57413df53b947ffa8c69b8e192e5a842d1698fb85ef585c5316d2445a7c969b9664ec61c79e4bfad20b570149c6a5d9c503d14480129f21602fac00000000"
    }
  ]
}