{
  "hash": "0000000070cdf861aced1a06b79a4072650000d6cf4c360642ab0a5171784352",
  "confirmations": 46060,
  "height": 7038,
  "version": 1,
  "versionHex": "00000001",
  "merkleroot": "0a6b7ab85bdd0b7490915463d4466ae26fc0341f43a58d091d3a747dab226e0e",
  "time": 1236746995,
  "mediantime": 1236743605,
  "nonce": 3240452150,
  "bits": "1d00ffff",
  "difficulty": 1,
  "chainwork": "00000000000000000000000000000000000000000000000000001b7f1b7f1b7f",
  "nTx": 1,
  "previousblockhash": "00000000ba7796b119b0230c5b5d9b2f55296930ce323ecaa3ab5e8ba0c26851",
  "nextblockhash": "0000000095611515a473f2c6c11b291a07846def79300a2e7dca2c487651beda",
  "strippedsize": 216,
  "size": 216,
  "weight": 864,
  "tx": [
    {
      "txid": "0a6b7ab85bdd0b7490915463d4466ae26fc0341f43a58d091d3a747dab226e0e",
      "hash": "0a6b7ab85bdd0b7490915463d4466ae26fc0341f43a58d091d3a747dab226e0e",
      "version": 1,
      "size": 135,
      "vsize": 135,
      "weight": 540,
      "locktime": 0,
      "vin": [
        {
          "coinbase": "04ffff001d02f802",
          "sequence": 4294967295
        }
      ],
      "vout": [
        {
          "value": 50.0,
          "n": 0,
          "scriptPubKey": {
            "asm": "04002204709cfaf615b1bada284c362cfa8175fc5052d91f0819f6bda12ff4844585364c4f0e4c69117e8ccdd75f74973841b57f0b0bda74c3575d7384b9091fbe OP_CHECKSIG",
            "desc": "pk(04002204709cfaf615b1bada284c362cfa8175fc5052d91f0819f6bda12ff4844585364c4f0e4c69117e8ccdd75f74973841b57f0b0bda74c3575d7384b9091fbe)#l33rhhza",
            "hex": "4104002204709cfaf615b1bada284c362cfa8175fc5052d91f0819f6bda12ff4844585364c4f0e4c69117e8ccdd75f74973841b57f0b0bda74c3575d7384b9091fbeac",
            "type": "pubkey"
          }
        }
      ],
      "hex": "01000000010000000000000000000000000000000000000000000000000000000000000000ffffffff0804ffff001d02f802ffffffff0100f2052a01000000434104002204709cfaf615b1bada284c362cfa8175fc5052d91f0819f6bda12ff4844585364c4f0e4c69117e8ccdd75f74973841b57f0b0bda74c3575d7384b9091fbeac00000000"
    }
  ]
}