{
  "hash": "00000000d4b8102b902613c2494ff2c454d020f2cbfdbc0e5f306a0b7b77e9fe",
  "confirmations": 50714,
  "height": 2384,
  "version": 1,
  "versionHex": "00000001",
  "merkleroot": "2978f48082a399ab24067b35b04c95583bc7f43fe669288720fc91f3c8a7af4e",
  "time": 1233341638,
  "mediantime": 1233337915,
  "nonce": 2709561345,
  "bits": "1d00ffff",
  "difficulty": 1,
  "chainwork": "0000000000000000000000000000000000000000000000000000095109510951",
  "nTx": 1,
  "previousblockhash": "0000000074c231be4740a4e86bdac239d601e5377048420bc4eed5166d125c6a",
  "nextblockhash": "00000000992382eb485095447db1b59a3833a94641d9033c2aad27b1dbf974a9",
  "strippedsize": 216,
  "size": 216,
  "weight": 864,
  "tx": [
    {
      "txid": "2978f48082a399ab24067b35b04c95583bc7f43fe669288720fc91f3c8a7af4e",
      "hash": "2978f48082a399ab24067b35b04c95583bc7f43fe669288720fc91f3c8a7af4e",
      "version": 1,
      "size": 135,
      "vsize": 135,
      "weight": 540,
      "locktime": 0,
      "vin": [
        {
          "coinbase": "04ffff001d025d03",
          "sequence": 4294967295
        }
      ],
      "vout": [
        {
          "value": 50.0,
          "n": 0,
          "scriptPubKey": {
            "asm": "04404cce8b0eb608f8bfdac1835320c892be4b61b4f35d026364343fe354940ea649ea1f52f126f168b78661a572b251db9296f19ebf3ccd5f5f461750a3834944 OP_CHECKSIG",
            "desc": "pk(04404cce8b0eb608f8bfdac1835320c892be4b61b4f35d026364343fe354940ea649ea1f52f126f168b78661a572b251db9296f19ebf3ccd5f5f461750a3834944)#3xkxz78l",
            "hex": "4104404cce8b0eb608f8bfdac1835320c892be4b61b4f35d026364343fe354940ea649ea1f52f126f168b78661a572b251db9296f19ebf3ccd5f5f461750a3834944ac",
            "type": "pubkey"
          }
        }
      ],
      "hex": "01000000010000000000000000000000000000000000000000000000000000000000000000ffffffff0804ffff001d025d03ffffffff0100f2052a01000000434104404cce8b0eb608f8bfdac1835320c892be4b61b4f35d026364343fe354940ea649ea1f52f126f168b78661a572b251db9296f19ebf3ccd5f5f461750a3834944ac00000000"
    }
  ]
}