{
  "hash": "0000000093d83ef0269311b4c3c73e89ed5e1b7bfaddd27cb1442d8086f19202",
  "confirmations": 50020,
  "height": 3078,
  "version": 1,
  "versionHex": "00000001",
  "merkleroot": "4ca7c5690a40920f330b2f10fae6f49bf9df82b027baa06a72132a49d1ef7dbc",
  "time": 1233816972,
  "mediantime": 1233812264,
  "nonce": 3936596758,
  "bits": "1d00ffff",
  "difficulty": 1,
  "chainwork": "00000000000000000000000000000000000000000000000000000c070c070c07",
  "nTx": 1,
  "previousblockhash": "00000000978739bcc064e4cf7da894ad98f4529e5c93b149cd4b6d134b265d7a",
  "nextblockhash": "0000000048bdd6234a18dd0a752de2ec2b6000a6d51be07db45b33b6441b0e9d",
  "strippedsize": 216,
  "size": 216,
  "weight": 864,
  "tx": [
    {
      "txid": "4ca7c5690a40920f330b2f10fae6f49bf9df82b027baa06a72132a49d1ef7dbc",
      "hash": "4ca7c5690a40920f330b2f10fae6f49bf9df82b027baa06a72132a49d1ef7dbc",
      "version": 1,
      "size": 135,
      "vsize": 135,
      "weight": 540,
      "locktime": 0,
      "vin": [
        {
          "coinbase": "04ffff001d02d800",
          "sequence": 4294967295
        }
      ],
      "vout": [
        {
          "value": 50.0,
          "n": 0,
          "scriptPubKey": {
            "asm": "04a939a553845745732c820fc598f59d2dcd7e7a16f10429bd6b9dde72fc30f6a7b68b227bc8aec3a25b8f12f484f23784b2ce60fefd549b99f09c0d18ed9e9738 OP_CHECKSIG",
            "desc": "pk(04a939a553845745732c820fc598f59d2dcd7e7a16f10429bd6b9dde72fc30f6a7b68b227bc8aec3a25b8f12f484f23784b2ce60fefd549b99f09c0d18ed9e9738)#5c0pc0qa",
            "hex": "4104a939a553845745732c820fc598f59d2dcd7e7a16f10429bd6b9dde72fc30f6a7b68b227bc8aec3a25b8f12f484f23784b2ce60fefd549b99f09c0d18ed9e9738ac",
            "type": "pubkey"
          }
        }
      ],
      "hex": "01000000010000000000000000000000000000000000000000000000000000000000000000ffffffff0804ffff001d02d800ffffffff0100f2052a01000000434104a939a553845745732c820fc598f59d2dcd7e7a16f10429bd6b9dde72fc30f6a7b68b227bc8aec3a25b8f12f484f23784b2ce60fefd549b99f09c0d18ed9e9738ac00000000"
    }
  ]
}