{
  "hash": "00000000ce81123a6c51ebb5f5a0c4e56db417905de679960a6da8b5ef57276c",
  "confirmations": 46543,
  "height": 6555,
  "version": 1,
  "versionHex": "00000001",
  "merkleroot": "b09d0b2f52533d442b6ac0d98860ba87c3a5ff47d4c8e7f14ddabb691e49bd3f",
  "time": 1236368730,
  "mediantime": 1236365089,
  "nonce": 2013825847,
  "bits": "1d00ffff",
  "difficulty": 1,
  "chainwork": "0000000000000000000000000000000000000000000000000000199c199c199c",
  "nTx": 1,
  "previousblockhash": "00000000176d5e0d79d721f3a359dd15e941f9219ace47153949508161c33b24",
  "nextblockhash": "00000000e746958c51f83d12ddba62886b212976f908b382a4fda49641d95a18",
  "strippedsize": 216,
  "size": 216,
  "weight": 864,
  "tx": [
    {
      "txid": "b09d0b2f52533d442b6ac0d98860ba87c3a5ff47d4c8e7f14ddabb691e49bd3f",
      "hash": "b09d0b2f52533d442b6ac0d98860ba87c3a5ff47d4c8e7f14ddabb691e49bd3f",
      "version": 1,
      "size": 135,
      "vsize": 135,
      "weight": 540,
      "locktime": 0,
      "vin": [
        {
          "coinbase": "04ffff001d027804",
          "sequence": 4294967295
        }
      ],
      "vout": [
        {
          "value": 50.0,
          "n": 0,
          "scriptPubKey": {
            "asm": "04cbb654186e768430355a80d03a4a0ac7657faa546fb7738bfd0b51abc101927026e2039b2c28808188518fc556bfb05d87f45f40fa655fa266ae61fa41904dbe OP_CHECKSIG",
            "desc": "pk(04cbb654186e768430355a80d03a4a0ac7657faa546fb7738bfd0b51abc101927026e2039b2c28808188518fc556bfb05d87f45f40fa655fa266ae61fa41904dbe)#smrlqnd3",
            "hex": "4104cbb654186e768430355a80d03a4a0ac7657faa546fb7738bfd0b51abc101927026e2039b2c28808188518fc556bfb05d87f45f40fa655fa266ae61fa41904dbeac",
            "type": "pubkey"
          }
        }
      ],
      "hex": "01000000010000000000000000000000000000000000000000000000000000000000000000ffffffff0804ffff001d027804ffffffff0100f2052a01000000434104cbb654186e768430355a80d03a4a0ac7657faa546fb7738bfd0b51abc101927026e2039b2c28808188518fc556bfb05d87f45f40fa655fa266ae61fa41904dbeac00000000"
    }
  ]
}