{
  "hash": "00000000cb9cf810f154eca3b897fb9fc32d5ad6b118d8f3ef25ec855bead8a9",
  "confirmations": 50717,
  "height": 2381,
  "version": 1,
  "versionHex": "00000001",
  "merkleroot": "3c1f32aea73f75f48df954ec02579045e4ab9eb982418c5dfb228e6c2b12fe6f",
  "time": 1233339250,
  "mediantime": 1233335502,
  "nonce": 1701952004,
  "bits": "1d00ffff",
  "difficulty": 1,
  "chainwork": "0000000000000000000000000000000000000000000000000000094e094e094e",
  "nTx": 1,
  "previousblockhash": "00000000e2907c985adfec04949724dabcf39b401d1fe20cf1709a6f146ad0ee",
  "nextblockhash": "000000008b0995d4021e3e6f26de45cea8a3d7a33566656baa93e034239895bc",
  "strippedsize": 216,
  "size": 216,
  "weight": 864,
  "tx": [
    {
      "txid": "3c1f32aea73f75f48df954ec02579045e4ab9eb982418c5dfb228e6c2b12fe6f",
      "hash": "3c1f32aea73f75f48df954ec02579045e4ab9eb982418c5dfb228e6c2b12fe6f",
      "version": 1,
      "size": 135,
      "vsize": 135,
      "weight": 540,
      "locktime": 0,
      "vin": [
        {
          "coinbase": "04ffff001d024303",
          "sequence": 4294967295
        }
      ],
      "vout": [
        {
          "value": 50.0,
          "n": 0,
          "scriptPubKey": {
            "asm": "04d2920f59f89c65ce8e777362ae9b5bfc1f579f22894782da20d4dced361e943cef22e458e1125c5b64074cbaebe0f9c2b2abcfa7a839af9d9de3323c03874a50 OP_CHECKSIG",
            "desc": "pk(04d2920f59f89c65ce8e777362ae9b5bfc1f579f22894782da20d4dced361e943cef22e458e1125c5b64074cbaebe0f9c2b2abcfa7a839af9d9de3323c03874a50)#etxmz7rg",
            "hex": "4104d2920f59f89c65ce8e777362ae9b5bfc1f579f22894782da20d4dced361e943cef22e458e1125c5b64074cbaebe0f9c2b2abcfa7a839af9d9de3323c03874a50ac",
            "type": "pubkey"
          }
        }
      ],
      "hex": "01000000010000000000000000000000000000000000000000000000000000000000000000ffffffff0804ffff001d024303ffffffff0100f2052a01000000434104d2920f59f89c65ce8e777362ae9b5bfc1f579f22894782da20d4dced361e943cef22e458e1125c5b64074cbaebe0f9c2b2abcfa7a839af9d9de3323c03874a50ac00000000"
    }
  ]
}