{
  "hash": "000000008a3893cb71fd4fe6d29882bec1de9fdbe70a4f5408f6d9bb6ff2680d",
  "confirmations": 52109,
  "height": 989,
  "version": 1,
  "versionHex": "00000001",
  "merkleroot": "e65c5d4849339ef038b30b542347a9940e88645cfeec2893fe7616cebdb7f99d",
  "time": 1232341883,
  "mediantime": 1232338844,
  "nonce": 4205748520,
  "bits": "1d00ffff",
  "difficulty": 1,
  "chainwork": "000000000000000000000000000000000000000000000000000003de03de03de",
  "nTx": 1,
  "previousblockhash": "000000005b01b8ddef835564691bd96f7c418dc48f399e6949cf5607420d971d",
  "nextblockhash": "000000003fd0fa5f78eea07b6daf176bfab63fb28a56768e7bbce39f047a7c14",
  "strippedsize": 216,
  "size": 216,
  "weight": 864,
  "tx": [
    {
      "txid": "e65c5d4849339ef038b30b542347a9940e88645cfeec2893fe7616cebdb7f99d",
      "hash": "e65c5d4849339ef038b30b542347a9940e88645cfeec2893fe7616cebdb7f99d",
      "version": 1,
      "size": 135,
      "vsize": 135,
      "weight": 540,
      "locktime": 0,
      "vin": [
        {
          "coinbase": "04ffff001d02e904",
          "sequence": 4294967295
        }
      ],
      "vout": [
        {
          "value": 50.0,
          "n": 0,
          "scriptPubKey": {
            "asm": "04095106f6a6ecbe22bec9c502ae1d5e5cc0aca28cf1bbe66331b1ca7e85cb7e8337726ac0a8dcdf596822b237a5cd809fca377fee02041bc358051b598a043dd0 OP_CHECKSIG",
            "desc": "pk(04095106f6a6ecbe22bec9c502ae1d5e5cc0aca28cf1bbe66331b1ca7e85cb7e8337726ac0a8dcdf596822b237a5cd809fca377fee02041bc358051b598a043dd0)#r740jp4k",
            "hex": "4104095106f6a6ecbe22bec9c502ae1d5e5cc0aca28cf1bbe66331b1ca7e85cb7e8337726ac0a8dcdf596822b237a5cd809fca377fee02041bc358051b598a043dd0ac",
            "type": "pubkey"
          }
        }
      ],
      "hex": "01000000010000000000000000000000000000000000000000000000000000000000000000ffffffff0804ffff001d02e904ffffffff0100f2052a01000000434104095106f6a6ecbe22bec9c502ae1d5e5cc0aca28cf1bbe66331b1ca7e85cb7e8337726ac0a8dcdf596822b237a5cd809fca377fee02041bc358051b598a043dd0ac00000000"
    }
  ]
}