{
  "hash": "000000000cf6176d4e9bc85d43aa9ac476f040b837eddb8035a68b1b21df42a9",
  "confirmations": 49209,
  "height": 3889,
  "version": 1,
  "versionHex": "00000001",
  "merkleroot": "3f9368cdac998cf16d5af62777dede28372815fab9f00c53de0fc8d6d3ec06d2",
  "time": 1234359997,
  "mediantime": 1234356537,
  "nonce": 1758939655,
  "bits": "1d00ffff",
  "difficulty": 1,
  "chainwork": "00000000000000000000000000000000000000000000000000000f320f320f32",
  "nTx": 1,
  "previousblockhash": "00000000f31782868ab3bacd8a838789af3853dbc1656717522daf9ef9d76472",
  "nextblockhash": "00000000dbf91c8bf2015d93c49af59da48f8766423dec5b323191578cf07cbd",
  "strippedsize": 216,
  "size": 216,
  "weight": 864,
  "tx": [
    {
      "txid": "3f9368cdac998cf16d5af62777dede28372815fab9f00c53de0fc8d6d3ec06d2",
      "hash": "3f9368cdac998cf16d5af62777dede28372815fab9f00c53de0fc8d6d3ec06d2",
      "version": 1,
      "size": 135,
      "vsize": 135,
      "weight": 540,
      "locktime": 0,
      "vin": [
        {
          "coinbase": "04ffff001d027802",
          "sequence": 4294967295
        }
      ],
      "vout": [
        {
          "value": 50.0,
          "n": 0,
          "scriptPubKey": {
            "asm": "044657d87814a8aa474b348cc7ae4606db0b9bbcb120bbe47e5b5175d3a00f0daa86503c8307d364c07856aff30e6d53973b3c423d18d4376eec842217908f102d OP_CHECKSIG",
            "desc": "pk(044657d87814a8aa474b348cc7ae4606db0b9bbcb120bbe47e5b5175d3a00f0daa86503c8307d364c07856aff30e6d53973b3c423d18d4376eec842217908f102d)#28sl65fj",
            "hex": "41044657d87814a8aa474b348cc7ae4606db0b9bbcb120bbe47e5b5175d3a00f0daa86503c8307d364c07856aff30e6d53973b3c423d18d4376eec842217908f102dac",
            "type": "pubkey"
          }
        }
      ],
      "hex": "01000000010000000000000000000000000000000000000000000000000000000000000000ffffffff0804ffff001d027802ffffffff0100f2052a010000004341044657d87814a8aa474b348cc7ae4606db0b9bbcb120bbe47e5b5175d3a00f0daa86503c8307d364c07856aff30e6d53973b3c423d18d4376eec842217908f102dac00000000"
    }
  ]
}