{
  "hash": "00000000865cdde8819dab3ebfd65b67f2dada2df3f7a575a2083c490b1c470e",
  "confirmations": 50183,
  "height": 2915,
  "version": 1,
  "versionHex": "00000001",
  "merkleroot": "4027242d205cddc0cdf75b905c0c0a8eb050c8d7913ded39ddb320ff717777b2",
  "time": 1233702292,
  "mediantime": 1233698506,
  "nonce": 1327871786,
  "bits": "1d00ffff",
  "difficulty": 1,
  "chainwork": "00000000000000000000000000000000000000000000000000000b640b640b64",
  "nTx": 2,
  "previousblockhash": "000000002cbf3c190a7a7008dfbb5f719f9276b547971632d0eb452a5dda0e4f",
  "nextblockhash": "00000000657ec3a6900586ae23550048e14a48ec9ac71ac869c7438900069179",
  "strippedsize": 516,
  "size": 516,
  "weight": 2064,
  "tx": [
    {
      "txid": "f2d0ccb293c23ec613af430bc3694cebc6b9c2f6f97581eceb69592c62f5d550",
      "hash": "f2d0ccb293c23ec613af430bc3694cebc6b9c2f6f97581eceb69592c62f5d550",
      "version": 1,
      "size": 135,
      "vsize": 135,
      "weight": 540,
      "locktime": 0,
      "vin": [
        {
          "coinbase": "04ffff001d029407",
          "sequence": 4294967295
        }
      ],
      "vout": [
        {
          "value": 50.0,
          "n": 0,
          "scriptPubKey": {
            "asm": "049ab410a960fa9a9e49b0e54a7acaa28fb619a57d33feb491f163d9d22d43475b511c33c9441a7c57b5be41ab0fc9c61394c75c0d2ccc53dedd8fc8d3433aebb2 OP_CHECKSIG",
            "desc": "pk(049ab410a960fa9a9e49b0e54a7acaa28fb619a57d33feb491f163d9d22d43475b511c33c9441a7c57b5be41ab0fc9c61394c75c0d2ccc53dedd8fc8d3433aebb2)#826t5q77",
            "hex": "41049ab410a960fa9a9e49b0e54a7acaa28fb619a57d33feb491f163d9d22d43475b511c33c9441a7c57b5be41ab0fc9c61394c75c0d2ccc53dedd8fc8d3433aebb2ac",
            "type": "pubkey"
          }
        }
      ],
      "hex": "01000000010000000000000000000000000000000000000000000000000000000000000000ffffffff0804ffff001d029407ffffffff0100f2052a010000004341049ab410a960fa9a9e49b0e54a7acaa28fb619a57d33feb491f163d9d22d43475b511c33c9441a7c57b5be41ab0fc9c61394c75c0d2ccc53dedd8fc8d3433aebb2ac00000000"
    },
    {
      "txid": "66ac54c1a3196e839c32c7700fbd91ee37b1ed4a53332e491bf5ddcd3901d0b1",
      "hash": "66ac54c1a3196e839c32c7700fbd91ee37b1ed4a53332e491bf5ddcd3901d0b1",
      "version": 1,
      "size": 300,
      "vsize": 300,
      "weight": 1200,
      "locktime": 0,
      "vin": [
        {
          "txid": "4b96658d39f7fd4241442e6dc9877c8ee0fe0d82477e6014e1681d1efe052c8d",
          "vout": 0,
          "scriptSig": {
            "asm": "3045022100d218788520228f202ee29ab37136e78c6f907e6a376acec375442623f91da9c202201a98db00687af1171626d98be8a78f9a733e50c3b8e56640f8f284c8c19ed5cc[ALL] 04f9f7d18f6262010cd24bc8414bbd15a61396ef817bc7f3c64a200db3c9aec9f4bbf891b7e520386862f0c17aae7d0bdb65d005e19295bdf1aef6834ddd36edc8",
            "hex": "483045022100d218788520228f202ee29ab37136e78c6f907e6a376acec375442623f91da9c202201a98db00687af1171626d98be8a78f9a733e50c3b8e56640f8f284c8c19ed5cc014104f9f7d18f6262010cd24bc8414bbd15a61396ef817bc7f3c64a200db3c9aec9f4bbf891b7e520386862f0c17aae7d0bdb65d005e19295bdf1aef6834ddd36edc8"
          },
          "sequence": 4294967295
        }
      ],
      "vout": [
        {
          "value": 19.01,
          "n": 0,
          "scriptPubKey": {
            "asm": "OP_DUP OP_HASH160 7bbaf3e7e5175be45aa2c51d1dfbd244ac90e1c3 OP_EQUALVERIFY OP_CHECKSIG",
            "desc": "addr(1CHE5JRfc5mr8ZtVUP7nnsS5HC4bWcXoc6)#at0lenfa",
            "hex": "76a9147bbaf3e7e5175be45aa2c51d1dfbd244ac90e1c388ac",
            "address": "1CHE5JRfc5mr8ZtVUP7nnsS5HC4bWcXoc6",
            "type": "pubkeyhash"
          }
        },
        {
          "value": 30.99,
          "n": 1,
          "scriptPubKey": {
            "asm": "04f9f7d18f6262010cd24bc8414bbd15a61396ef817bc7f3c64a200db3c9aec9f4bbf891b7e520386862f0c17aae7d0bdb65d005e19295bdf1aef6834ddd36edc8 OP_CHECKSIG",
            "desc": "pk(04f9f7d18f6262010cd24bc8414bbd15a61396ef817bc7f3c64a200db3c9aec9f4bbf891b7e520386862f0c17aae7d0bdb65d005e19295bdf1aef6834ddd36edc8)#4my4cmnu",
            "hex": "4104f9f7d18f6262010cd24bc8414bbd15a61396ef817bc7f3c64a200db3c9aec9f4bbf891b7e520386862f0c17aae7d0bdb65d005e19295bdf1aef6834ddd36edc8ac",
            "type": "pubkey"
          }
        }
      ],
      "fee": 0.0,
      "hex": "01000000018d2c05fe1e1d68e114607e47820dfee08e7c87c96d2e444142fdf7398d65964b000000008b483045022100d218788520228f202ee29ab37136e78c6f907e6a376acec375442623f91da9c202201a98db00687af1171626d98be8a78f9a733e50c3b8e56640f8f284c8c19ed5cc014104f9f7d18f6262010cd24bc8414bbd15a61396ef817bc7f3c64a200db3c9aec9f4bbf891b7e520386862f0c17aae7d0bdb65d005e19295bdf1aef6834ddd36edc8ffffffff0240f54e71000000001976a9147bbaf3e7e5175be45aa2c51d1dfbd244ac90e1c388acc0fcb6b800000000434104f9f7d18f6262010cd24bc8414bbd15a61396ef817bc7f3c64a200db3c9aec9f4bbf891b7e520386862f0c17aae7d0bdb65d005e19295bdf1aef6834ddd36edc8ac00000000"
    }
  ]
}