{
  "hash": "00000000ed666ffdb83ebb2528931c31818cbd3cd36d18cc7c5854ba7dfaa906",
  "confirmations": 43175,
  "height": 9923,
  "version": 1,
  "versionHex": "00000001",
  "merkleroot": "d89cbaefbbfb01acf8a453e058d83e6adb6a13cf3e2718fc074765afc137a21a",
  "time": 1238936256,
  "mediantime": 1238933744,
  "nonce": 3951405360,
  "bits": "1d00ffff",
  "difficulty": 1,
  "chainwork": "000000000000000000000000000000000000000000000000000026c426c426c4",
  "nTx": 1,
  "previousblockhash": "00000000ba4cc4401ef2f858ba89ce033472adb45365169955a87d8b14353e60",
  "nextblockhash": "0000000076c29e4855ff93adf9e6e7ae46135e0c6ea3c6c9610da80e6d3ddd1b",
  "strippedsize": 216,
  "size": 216,
  "weight": 864,
  "tx": [
    {
      "txid": "d89cbaefbbfb01acf8a453e058d83e6adb6a13cf3e2718fc074765afc137a21a",
      "hash": "d89cbaefbbfb01acf8a453e058d83e6adb6a13cf3e2718fc074765afc137a21a",
      "version": 1,
      "size": 135,
      "vsize": 135,
      "weight": 540,
      "locktime": 0,
      "vin": [
        {
          "coinbase": "04ffff001d026902",
          "sequence": 4294967295
        }
      ],
      "vout": [
        {
          "value": 50.0,
          "n": 0,
          "scriptPubKey": {
            "asm": "04f9ab0574af44b3835dea51a038cd57aefb319683b59372c6a4e2cbf5e129cbc4cd17ea676a50ee37238017bc19d92266e01e0ead3a09f92a18b76937ffe875b0 OP_CHECKSIG",
            "desc": "pk(04f9ab0574af44b3835dea51a038cd57aefb319683b59372c6a4e2cbf5e129cbc4cd17ea676a50ee37238017bc19d92266e01e0ead3a09f92a18b76937ffe875b0)#ym2xesku",
            "hex": "4104f9ab0574af44b3835dea51a038cd57aefb319683b59372c6a4e2cbf5e129cbc4cd17ea676a50ee37238017bc19d92266e01e0ead3a09f92a18b76937ffe875b0ac",
            "type": "pubkey"
          }
        }
      ],
      "hex": "01000000010000000000000000000000000000000000000000000000000000000000000000ffffffff0804ffff001d026902ffffffff0100f2052a01000000434104f9ab0574af44b3835dea51a038cd57aefb319683b59372c6a4e2cbf5e129cbc4cd17ea676a50ee37238017bc19d92266e01e0ead3a09f92a18b76937ffe875b0ac00000000"
    }
  ]
}