{
  "hash": "00000000468745b1dba20167e045012c7492e3615ed405f7d9bdad9e7b4f2029",
  "confirmations": 47475,
  "height": 5623,
  "version": 1,
  "versionHex": "00000001",
  "merkleroot": "6ce2e5ba2cb499bccaef5a631c46610243fc32f3ac856db31b69fc4b42c5d42d",
  "time": 1235624068,
  "mediantime": 1235619134,
  "nonce": 1118579721,
  "bits": "1d00ffff",
  "difficulty": 1,
  "chainwork": "000000000000000000000000000000000000000000000000000015f815f815f8",
  "nTx": 1,
  "previousblockhash": "0000000015686e6d20976f90b363e6aea897c221d35b7e91a90bf94527adf546",
  "nextblockhash": "00000000dd333867e9e05c70d22116d836fe301669eab69e3928e6b52ca5d672",
  "strippedsize": 216,
  "size": 216,
  "weight": 864,
  "tx": [
    {
      "txid": "6ce2e5ba2cb499bccaef5a631c46610243fc32f3ac856db31b69fc4b42c5d42d",
      "hash": "6ce2e5ba2cb499bccaef5a631c46610243fc32f3ac856db31b69fc4b42c5d42d",
      "version": 1,
      "size": 135,
      "vsize": 135,
      "weight": 540,
      "locktime": 0,
      "vin": [
        {
          "coinbase": "04ffff001d022108",
          "sequence": 4294967295
        }
      ],
      "vout": [
        {
          "value": 50.0,
          "n": 0,
          "scriptPubKey": {
            "asm": "04f8d70a42dc785fbebca916c57304a0f644edcce663c31467dcb6612256ad0d8581da07fd55bfcb6bfa985a048961d5d613fa5bd0cc3aaa29edbda1ae5d35f339 OP_CHECKSIG",
            "desc": "pk(04f8d70a42dc785fbebca916c57304a0f644edcce663c31467dcb6612256ad0d8581da07fd55bfcb6bfa985a048961d5d613fa5bd0cc3aaa29edbda1ae5d35f339)#dqrgazv9",
            "hex": "4104f8d70a42dc785fbebca916c57304a0f644edcce663c31467dcb6612256ad0d8581da07fd55bfcb6bfa985a048961d5d613fa5bd0cc3aaa29edbda1ae5d35f339ac",
            "type": "pubkey"
          }
        }
      ],
      "hex": "01000000010000000000000000000000000000000000000000000000000000000000000000ffffffff0804ffff001d022108ffffffff0100f2052a01000000434104f8d70a42dc785fbebca916c57304a0f644edcce663c31467dcb6612256ad0d8581da07fd55bfcb6bfa985a048961d5d613fa5bd0cc3aaa29edbda1ae5d35f339ac00000000"
    }
  ]
}