{
  "hash": "000000009972e6730c5f971f0b88a2a7702d240ebe1042f4cc77d65ab16bb47c",
  "confirmations": 47830,
  "height": 5268,
  "version": 1,
  "versionHex": "00000001",
  "merkleroot": "e703dcd969ffca4bc6a295e058a52296f09efcc99bc3cfa56f6ade2250af5c4e",
  "time": 1235336540,
  "mediantime": 1235331803,
  "nonce": 3523473181,
  "bits": "1d00ffff",
  "difficulty": 1,
  "chainwork": "0000000000000000000000000000000000000000000000000000149514951495",
  "nTx": 1,
  "previousblockhash": "0000000090a0137ad27ad897e5f3d9119007b0aeff4fbec351340a7efdd9fc30",
  "nextblockhash": "00000000c1408749bfd1d2c8f5c4a95f7671bd209b5a1e2b2c7fcef37afa7bb2",
  "strippedsize": 216,
  "size": 216,
  "weight": 864,
  "tx": [
    {
      "txid": "e703dcd969ffca4bc6a295e058a52296f09efcc99bc3cfa56f6ade2250af5c4e",
      "hash": "e703dcd969ffca4bc6a295e058a52296f09efcc99bc3cfa56f6ade2250af5c4e",
      "version": 1,
      "size": 135,
      "vsize": 135,
      "weight": 540,
      "locktime": 0,
      "vin": [
        {
          "coinbase": "04ffff001d028501",
          "sequence": 4294967295
        }
      ],
      "vout": [
        {
          "value": 50.0,
          "n": 0,
          "scriptPubKey": {
            "asm": "0434b4f05904c6d4b0107bf6146cf7922b840a6027f101bc03d96f22cbe017308ecc05a6492c0a640f0b51e2664e6907d83aa8973c00443234c0530b37fb425d4a OP_CHECKSIG",
            "desc": "pk(0434b4f05904c6d4b0107bf6146cf7922b840a6027f101bc03d96f22cbe017308ecc05a6492c0a640f0b51e2664e6907d83aa8973c00443234c0530b37fb425d4a)#tmmsne3t",
            "hex": "410434b4f05904c6d4b0107bf6146cf7922b840a6027f101bc03d96f22cbe017308ecc05a6492c0a640f0b51e2664e6907d83aa8973c00443234c0530b37fb425d4aac",
            "type": "pubkey"
          }
        }
      ],
      "hex": "01000000010000000000000000000000000000000000000000000000000000000000000000ffffffff0804ffff001d028501ffffffff0100f2052a0100000043410434b4f05904c6d4b0107bf6146cf7922b840a6027f101bc03d96f22cbe017308ecc05a6492c0a640f0b51e2664e6907d83aa8973c00443234c0530b37fb425d4aac00000000"
    }
  ]
}