{
  "hash": "00000000f0490b58679c22b79b19cee8097c58923848beef29ffff1db7b94d3b",
  "confirmations": 50877,
  "height": 2221,
  "version": 1,
  "versionHex": "00000001",
  "merkleroot": "7cce0bace6ce69dc0a7e93e7d81cbc785cdcd0f06c53831ec07cb9577f57076b",
  "time": 1233228873,
  "mediantime": 1233224434,
  "nonce": 356726836,
  "bits": "1d00ffff",
  "difficulty": 1,
  "chainwork": "000000000000000000000000000000000000000000000000000008ae08ae08ae",
  "nTx": 1,
  "previousblockhash": "00000000c80ae0a54ae7eecf84c157b3e973d6b30f2ff77d83f6d06220bfe08d",
  "nextblockhash": "000000009ffa197affbdef3f7e20aaadf1199d7d8317b1d7a55def5ce5fb2d1c",
  "strippedsize": 216,
  "size": 216,
  "weight": 864,
  "tx": [
    {
      "txid": "7cce0bace6ce69dc0a7e93e7d81cbc785cdcd0f06c53831ec07cb9577f57076b",
      "hash": "7cce0bace6ce69dc0a7e93e7d81cbc785cdcd0f06c53831ec07cb9577f57076b",
      "version": 1,
      "size": 135,
      "vsize": 135,
      "weight": 540,
      "locktime": 0,
      "vin": [
        {
          "coinbase": "04ffff001d02ae00",
          "sequence": 4294967295
        }
      ],
      "vout": [
        {
          "value": 50.0,
          "n": 0,
          "scriptPubKey": {
            "asm": "04ea9894a7c33b91dad861a45299b6040ef771e6f7a729da7b3807a89bd88bdcc46b2eb09551b456c42cb73c1ad01b94d182ce9eb406491883cd7130cdd1eb4ec3 OP_CHECKSIG",
            "desc": "pk(04ea9894a7c33b91dad861a45299b6040ef771e6f7a729da7b3807a89bd88bdcc46b2eb09551b456c42cb73c1ad01b94d182ce9eb406491883cd7130cdd1eb4ec3)#n38h6k0w",
            "hex": "4104ea9894a7c33b91dad861a45299b6040ef771e6f7a729da7b3807a89bd88bdcc46b2eb09551b456c42cb73c1ad01b94d182ce9eb406491883cd7130cdd1eb4ec3ac",
            "type": "pubkey"
          }
        }
      ],
      "hex": "01000000010000000000000000000000000000000000000000000000000000000000000000ffffffff0804ffff001d02ae00ffffffff0100f2052a01000000434104ea9894a7c33b91dad861a45299b6040ef771e6f7a729da7b3807a89bd88bdcc46b2eb09551b456c42cb73c1ad01b94d182ce9eb406491883cd7130cdd1eb4ec3ac00000000"
    }
  ]
}