{
  "hash": "000000004d07a991c3cc217799d90b603d029eb0a7d3d355b02d73a48f4f705e",
  "confirmations": 45540,
  "height": 7558,
  "version": 1,
  "versionHex": "00000001",
  "merkleroot": "ef67a1d9251015934dc32380f080bd829e9b6f13276a553e585dad2f2d0a6977",
  "time": 1237143010,
  "mediantime": 1237139383,
  "nonce": 2026701880,
  "bits": "1d00ffff",
  "difficulty": 1,
  "chainwork": "00000000000000000000000000000000000000000000000000001d871d871d87",
  "nTx": 1,
  "previousblockhash": "000000002456ec49b80bfcec57dc9fb38f0989a3ebed077a12bfd014e87376af",
  "nextblockhash": "00000000354fe6d2b0c8c30bea02eab7e92798f8da5b2fa46dce3b3db5bb51ad",
  "strippedsize": 216,
  "size": 216,
  "weight": 864,
  "tx": [
    {
      "txid": "ef67a1d9251015934dc32380f080bd829e9b6f13276a553e585dad2f2d0a6977",
      "hash": "ef67a1d9251015934dc32380f080bd829e9b6f13276a553e585dad2f2d0a6977",
      "version": 1,
      "size": 135,
      "vsize": 135,
      "weight": 540,
      "locktime": 0,
      "vin": [
        {
          "coinbase": "04ffff001d020a02",
          "sequence": 4294967295
        }
      ],
      "vout": [
        {
          "value": 50.0,
          "n": 0,
          "scriptPubKey": {
            "asm": "0493bed2d5585f68560f6cd7563fdbdc7dbffd852cb1b6ea1a305938d2be95e5cad05d1af19baa6de3def2673cd4e51ba23ebdfd904e21f1a878dffca3a3524f4a OP_CHECKSIG",
            "desc": "pk(0493bed2d5585f68560f6cd7563fdbdc7dbffd852cb1b6ea1a305938d2be95e5cad05d1af19baa6de3def2673cd4e51ba23ebdfd904e21f1a878dffca3a3524f4a)#g7r9pt6q",
            "hex": "410493bed2d5585f68560f6cd7563fdbdc7dbffd852cb1b6ea1a305938d2be95e5cad05d1af19baa6de3def2673cd4e51ba23ebdfd904e21f1a878dffca3a3524f4aac",
            "type": "pubkey"
          }
        }
      ],
      "hex": "01000000010000000000000000000000000000000000000000000000000000000000000000ffffffff0804ffff001d020a02ffffffff0100f2052a0100000043410493bed2d5585f68560f6cd7563fdbdc7dbffd852cb1b6ea1a305938d2be95e5cad05d1af19baa6de3def2673cd4e51ba23ebdfd904e21f1a878dffca3a3524f4aac00000000"
    }
  ]
}