{
  "hash": "00000000a422e4a3175b9d9d77c923a6dc14c893ba0a0f9b56c9018ffa908701",
  "confirmations": 45484,
  "height": 7614,
  "version": 1,
  "versionHex": "00000001",
  "merkleroot": "fb91b686b72f0064093266c12e0db9a09010e2317c1ee9cc561616814d185856",
  "time": 1237177530,
  "mediantime": 1237174843,
  "nonce": 165996399,
  "bits": "1d00ffff",
  "difficulty": 1,
  "chainwork": "00000000000000000000000000000000000000000000000000001dbf1dbf1dbf",
  "nTx": 1,
  "previousblockhash": "0000000068a7430d09809d047b72ef05d2c9a1e4283bdc4cdcffc72ccca83001",
  "nextblockhash": "000000009b36a37d3e6613c7351b06237013643818667ac1c3b5c96177cdca65",
  "strippedsize": 215,
  "size": 215,
  "weight": 860,
  "tx": [
    {
      "txid": "fb91b686b72f0064093266c12e0db9a09010e2317c1ee9cc561616814d185856",
      "hash": "fb91b686b72f0064093266c12e0db9a09010e2317c1ee9cc561616814d185856",
      "version": 1,
      "size": 134,
      "vsize": 134,
      "weight": 536,
      "locktime": 0,
      "vin": [
        {
          "coinbase": "04ffff001d0118",
          "sequence": 4294967295
        }
      ],
      "vout": [
        {
          "value": 50.0,
          "n": 0,
          "scriptPubKey": {
            "asm": "04dba9a61ce58344c69cfc94a525532886e84b6615aaa62bc88209815b86cd5e730c1199a835d608a1f63b5ca8e61090d0d44ae60281f58ecbb341c8db5976dd71 OP_CHECKSIG",
            "desc": "pk(04dba9a61ce58344c69cfc94a525532886e84b6615aaa62bc88209815b86cd5e730c1199a835d608a1f63b5ca8e61090d0d44ae60281f58ecbb341c8db5976dd71)#ugnwe5q0",
            "hex": "4104dba9a61ce58344c69cfc94a525532886e84b6615aaa62bc88209815b86cd5e730c1199a835d608a1f63b5ca8e61090d0d44ae60281f58ecbb341c8db5976dd71ac",
            "type": "pubkey"
          }
        }
      ],
      "hex": "01000000010000000000000000000000000000000000000000000000000000000000000000ffffffff0704ffff001d0118ffffffff0100f2052a01000000434104dba9a61ce58344c69cfc94a525532886e84b6615aaa62bc88209815b86cd5e730c1199a835d608a1f63b5ca8e61090d0d44ae60281f58ecbb341c8db5976dd71ac00000000"
    }
  ]
}