{
  "hash": "0000000084935be8a5b06525aea383d2988df6003963222f5adc5ddf5951e7fd",
  "confirmations": 52517,
  "height": 581,
  "version": 1,
  "versionHex": "00000001",
  "merkleroot": "355d10bb7aff8e7875c93776e391cd1530e5321f8b39451aa09670c1f1fea07c",
  "time": 1232024561,
  "mediantime": 1232020303,
  "nonce": 227792432,
  "bits": "1d00ffff",
  "difficulty": 1,
  "chainwork": "0000000000000000000000000000000000000000000000000000024602460246",
  "nTx": 1,
  "previousblockhash": "00000000dd9588e8b12025e5257267abe0e9134d493ab3b449a47db8d22567d2",
  "nextblockhash": "000000000568dd391b3261d51ad4fcb68db5539200a15acc5bd6ece8b218601b",
  "strippedsize": 216,
  "size": 216,
  "weight": 864,
  "tx": [
    {
      "txid": "355d10bb7aff8e7875c93776e391cd1530e5321f8b39451aa09670c1f1fea07c",
      "hash": "355d10bb7aff8e7875c93776e391cd1530e5321f8b39451aa09670c1f1fea07c",
      "version": 1,
      "size": 135,
      "vsize": 135,
      "weight": 540,
      "locktime": 0,
      "vin": [
        {
          "coinbase": "04ffff001d024106",
          "sequence": 4294967295
        }
      ],
      "vout": [
        {
          "value": 50.0,
          "n": 0,
          "scriptPubKey": {
            "asm": "04528bcf497d4867b29dc57fb08c54afe67294d55aafe679e2cc630c84e6fdf5692097e77b05fc9fd81ce5f9b0c7f62f99a4832ea3c2c875c7865759ef216566b6 OP_CHECKSIG",
            "desc": "pk(04528bcf497d4867b29dc57fb08c54afe67294d55aafe679e2cc630c84e6fdf5692097e77b05fc9fd81ce5f9b0c7f62f99a4832ea3c2c875c7865759ef216566b6)#y4jmqnz7",
            "hex": "4104528bcf497d4867b29dc57fb08c54afe67294d55aafe679e2cc630c84e6fdf5692097e77b05fc9fd81ce5f9b0c7f62f99a4832ea3c2c875c7865759ef216566b6ac",
            "type": "pubkey"
          }
        }
      ],
      "hex": "01000000010000000000000000000000000000000000000000000000000000000000000000ffffffff0804ffff001d024106ffffffff0100f2052a01000000434104528bcf497d4867b29dc57fb08c54afe67294d55aafe679e2cc630c84e6fdf5692097e77b05fc9fd81ce5f9b0c7f62f99a4832ea3c2c875c7865759ef216566b6ac00000000"
    }
  ]
}