{
  "hash": "00000000b3d0e74a3b0ae2884470820910ee4109601cdb372c80a635958ee883",
  "confirmations": 44441,
  "height": 8657,
  "version": 1,
  "versionHex": "00000001",
  "merkleroot": "3c5c6d9edc508234212cebe12576e79256fbf752ad8ca47bd960ab949953456d",
  "time": 1237990585,
  "mediantime": 1237987658,
  "nonce": 3743848481,
  "bits": "1d00ffff",
  "difficulty": 1,
  "chainwork": "000000000000000000000000000000000000000000000000000021d221d221d2",
  "nTx": 1,
  "previousblockhash": "00000000e135705408a52b677d6bf64555dd605338c6e15e61bec0685c6c59e9",
  "nextblockhash": "00000000310584baf587dfd0c615c3301d8a065a81bb1097d14e65098a985760",
  "strippedsize": 215,
  "size": 215,
  "weight": 860,
  "tx": [
    {
      "txid": "3c5c6d9edc508234212cebe12576e79256fbf752ad8ca47bd960ab949953456d",
      "hash": "3c5c6d9edc508234212cebe12576e79256fbf752ad8ca47bd960ab949953456d",
      "version": 1,
      "size": 134,
      "vsize": 134,
      "weight": 536,
      "locktime": 0,
      "vin": [
        {
          "coinbase": "04ffff001d0125",
          "sequence": 4294967295
        }
      ],
      "vout": [
        {
          "value": 50.0,
          "n": 0,
          "scriptPubKey": {
            "asm": "04c5bb95ba3c004d3b93b0bd6aa9a17ec561f9bce6020bfff19c158702046b3c1a44b74a2d9f22a254961d3cee6b47016654383077445101eefe856f3e96a983bb OP_CHECKSIG",
            "desc": "pk(04c5bb95ba3c004d3b93b0bd6aa9a17ec561f9bce6020bfff19c158702046b3c1a44b74a2d9f22a254961d3cee6b47016654383077445101eefe856f3e96a983bb)#h4h95kk8",
            "hex": "4104c5bb95ba3c004d3b93b0bd6aa9a17ec561f9bce6020bfff19c158702046b3c1a44b74a2d9f22a254961d3cee6b47016654383077445101eefe856f3e96a983bbac",
            "type": "pubkey"
          }
        }
      ],
      "hex": "01000000010000000000000000000000000000000000000000000000000000000000000000ffffffff0704ffff001d0125ffffffff0100f2052a01000000434104c5bb95ba3c004d3b93b0bd6aa9a17ec561f9bce6020bfff19c158702046b3c1a44b74a2d9f22a254961d3cee6b47016654383077445101eefe856f3e96a983bbac00000000"
    }
  ]
}