{
  "hash": "0000000025c5cf207c974ab573038440316d8d69a756180742d695d27c8e2a8b",
  "confirmations": 45720,
  "height": 7378,
  "version": 1,
  "versionHex": "00000001",
  "merkleroot": "41c9db0800ec07599409e9bd358d4121a1c81c9e01ef6e2c23056ab40bd3f1b3",
  "time": 1237004832,
  "mediantime": 1237000471,
  "nonce": 158239909,
  "bits": "1d00ffff",
  "difficulty": 1,
  "chainwork": "00000000000000000000000000000000000000000000000000001cd31cd31cd3",
  "nTx": 1,
  "previousblockhash": "000000000340996d07978c91cb215f6127e76121ed880f6cbac74b82bb858dc6",
  "nextblockhash": "00000000717e8a421e4d27d4b19902d87d8d23c5169ad9ab964a0c6355d3653c",
  "strippedsize": 215,
  "size": 215,
  "weight": 860,
  "tx": [
    {
      "txid": "41c9db0800ec07599409e9bd358d4121a1c81c9e01ef6e2c23056ab40bd3f1b3",
      "hash": "41c9db0800ec07599409e9bd358d4121a1c81c9e01ef6e2c23056ab40bd3f1b3",
      "version": 1,
      "size": 134,
      "vsize": 134,
      "weight": 536,
      "locktime": 0,
      "vin": [
        {
          "coinbase": "04ffff001d016f",
          "sequence": 4294967295
        }
      ],
      "vout": [
        {
          "value": 50.0,
          "n": 0,
          "scriptPubKey": {
            "asm": "049f4545dd5d432a88c420cf331e7cb77a78b05fe7caa3deea7e3635d57a47f0a9d1a80ed2ae87ab7107155a070e759effbe97f8b9bc14d4367dd044f6708f9215 OP_CHECKSIG",
            "desc": "pk(049f4545dd5d432a88c420cf331e7cb77a78b05fe7caa3deea7e3635d57a47f0a9d1a80ed2ae87ab7107155a070e759effbe97f8b9bc14d4367dd044f6708f9215)#au8x05vh",
            "hex": "41049f4545dd5d432a88c420cf331e7cb77a78b05fe7caa3deea7e3635d57a47f0a9d1a80ed2ae87ab7107155a070e759effbe97f8b9bc14d4367dd044f6708f9215ac",
            "type": "pubkey"
          }
        }
      ],
      "hex": "01000000010000000000000000000000000000000000000000000000000000000000000000ffffffff0704ffff001d016fffffffff0100f2052a010000004341049f4545dd5d432a88c420cf331e7cb77a78b05fe7caa3deea7e3635d57a47f0a9d1a80ed2ae87ab7107155a070e759effbe97f8b9bc14d4367dd044f6708f9215ac00000000"
    }
  ]
}