{
  "hash": "00000000f6009cbf9337145686ef3fe3ca2c0d640cd9005efa3c6c41b9714c01",
  "confirmations": 52161,
  "height": 468,
  "version": 1,
  "versionHex": "00000001",
  "merkleroot": "d20e7764ed067cec8805443b0817a9948952d94bbaa7770f689925c40bfdcc4a",
  "time": 1231947213,
  "mediantime": 1231944562,
  "nonce": 1135660570,
  "bits": "1d00ffff",
  "difficulty": 1,
  "chainwork": "000000000000000000000000000000000000000000000000000001d501d501d5",
  "nTx": 1,
  "previousblockhash": "000000007e09159f8c9a2f19a3c859f3ced1e0b2f83d85b9f63670c67a627b20",
  "nextblockhash": "000000004b5d03a850f59cf1a8e247de501c5052a4fd595b4f1adb605be4d510",
  "strippedsize": 216,
  "size": 216,
  "weight": 864,
  "tx": [
    {
      "txid": "d20e7764ed067cec8805443b0817a9948952d94bbaa7770f689925c40bfdcc4a",
      "hash": "d20e7764ed067cec8805443b0817a9948952d94bbaa7770f689925c40bfdcc4a",
      "version": 1,
      "size": 135,
      "vsize": 135,
      "weight": 540,
      "locktime": 0,
      "vin": [
        {
          "coinbase": "04ffff001d02e903",
          "sequence": 4294967295
        }
      ],
      "vout": [
        {
          "value": 50.0,
          "n": 0,
          "scriptPubKey": {
            "asm": "04af340a66a66e263dd447da129dce10d19b75614ec7c7861a9b3e21f5bb09b2bba4e6ed60921dda6d805d3fc68674f2f92c70430293d2db643ed26d569424d194 OP_CHECKSIG",
            "desc": "pk(04af340a66a66e263dd447da129dce10d19b75614ec7c7861a9b3e21f5bb09b2bba4e6ed60921dda6d805d3fc68674f2f92c70430293d2db643ed26d569424d194)#ak6jq7s9",
            "hex": "4104af340a66a66e263dd447da129dce10d19b75614ec7c7861a9b3e21f5bb09b2bba4e6ed60921dda6d805d3fc68674f2f92c70430293d2db643ed26d569424d194ac",
            "type": "pubkey"
          }
        }
      ],
      "hex": "01000000010000000000000000000000000000000000000000000000000000000000000000ffffffff0804ffff001d02e903ffffffff0100f2052a01000000434104af340a66a66e263dd447da129dce10d19b75614ec7c7861a9b3e21f5bb09b2bba4e6ed60921dda6d805d3fc68674f2f92c70430293d2db643ed26d569424d194ac00000000"
    }
  ]
}