{
  "hash": "000000006d7b30cc5c8ccdfdd56417846e3485f42106fbee53e483e571f41c32",
  "confirmations": 52140,
  "height": 377,
  "version": 1,
  "versionHex": "00000001",
  "merkleroot": "fd1dc8f8f2c916af26ff6dd83bb6c2cb209cce0299061dab686acffe67b5588f",
  "time": 1231884950,
  "mediantime": 1231880620,
  "nonce": 578038324,
  "bits": "1d00ffff",
  "difficulty": 1,
  "chainwork": "0000000000000000000000000000000000000000000000000000017a017a017a",
  "nTx": 1,
  "previousblockhash": "0000000045c48b53f19d5a3e73ef6d22930737080b6bdea398303e2ae2ba27e2",
  "nextblockhash": "000000002ad17ed06d467923d29348ee3692c53f24858236818e68820de26ce6",
  "strippedsize": 216,
  "size": 216,
  "weight": 864,
  "tx": [
    {
      "txid": "fd1dc8f8f2c916af26ff6dd83bb6c2cb209cce0299061dab686acffe67b5588f",
      "hash": "fd1dc8f8f2c916af26ff6dd83bb6c2cb209cce0299061dab686acffe67b5588f",
      "version": 1,
      "size": 135,
      "vsize": 135,
      "weight": 540,
      "locktime": 0,
      "vin": [
        {
          "coinbase": "04ffff001d020102",
          "sequence": 4294967295
        }
      ],
      "vout": [
        {
          "value": 50.0,
          "n": 0,
          "scriptPubKey": {
            "asm": "043de2e5337c0354a2c34163827ca18bad43341dcdec928b32b3888df7ff51c92b2b2f3a7c8b670aa375bd7273ab2eafb6525491eda75e997a8a0539391ef2efb3 OP_CHECKSIG",
            "desc": "pk(043de2e5337c0354a2c34163827ca18bad43341dcdec928b32b3888df7ff51c92b2b2f3a7c8b670aa375bd7273ab2eafb6525491eda75e997a8a0539391ef2efb3)#26h9m9l5",
            "hex": "41043de2e5337c0354a2c34163827ca18bad43341dcdec928b32b3888df7ff51c92b2b2f3a7c8b670aa375bd7273ab2eafb6525491eda75e997a8a0539391ef2efb3ac",
            "type": "pubkey"
          }
        }
      ],
      "hex": "01000000010000000000000000000000000000000000000000000000000000000000000000ffffffff0804ffff001d020102ffffffff0100f2052a010000004341043de2e5337c0354a2c34163827ca18bad43341dcdec928b32b3888df7ff51c92b2b2f3a7c8b670aa375bd7273ab2eafb6525491eda75e997a8a0539391ef2efb3ac00000000"
    }
  ]
}