{
  "hash": "000000006a76a78e12fc1c91d67c7712a25a74d3bb93f2baa4694f414a7d46c6",
  "confirmations": 46457,
  "height": 6641,
  "version": 1,
  "versionHex": "00000001",
  "merkleroot": "4ac7aaa26b177ebcc7ecaf4f17782a0e4e1c278ac7ddcb941edbd798b17146bf",
  "time": 1236437789,
  "mediantime": 1236431542,
  "nonce": 1957488941,
  "bits": "1d00ffff",
  "difficulty": 1,
  "chainwork": "000000000000000000000000000000000000000000000000000019f219f219f2",
  "nTx": 1,
  "previousblockhash": "000000009da10f71d6baa3c6e3494b7fdadf5ffaf5ac49bd95b5398816c45c11",
  "nextblockhash": "000000002287cb732959159d6c02b959040d96f9947c7a08a02f1e2774cd2151",
  "strippedsize": 216,
  "size": 216,
  "weight": 864,
  "tx": [
    {
      "txid": "4ac7aaa26b177ebcc7ecaf4f17782a0e4e1c278ac7ddcb941edbd798b17146bf",
      "hash": "4ac7aaa26b177ebcc7ecaf4f17782a0e4e1c278ac7ddcb941edbd798b17146bf",
      "version": 1,
      "size": 135,
      "vsize": 135,
      "weight": 540,
      "locktime": 0,
      "vin": [
        {
          "coinbase": "04ffff001d02ec05",
          "sequence": 4294967295
        }
      ],
      "vout": [
        {
          "value": 50.0,
          "n": 0,
          "scriptPubKey": {
            "asm": "047353eca2a4415c259c8191bda4174353bf8ecb43976929d95ae8a37af99debf1c75adc08dd928a9eaea036fd7a1cb75af1293db02af0bd3e362e70c10864727b OP_CHECKSIG",
            "desc": "pk(047353eca2a4415c259c8191bda4174353bf8ecb43976929d95ae8a37af99debf1c75adc08dd928a9eaea036fd7a1cb75af1293db02af0bd3e362e70c10864727b)#y46a4dc9",
            "hex": "41047353eca2a4415c259c8191bda4174353bf8ecb43976929d95ae8a37af99debf1c75adc08dd928a9eaea036fd7a1cb75af1293db02af0bd3e362e70c10864727bac",
            "type": "pubkey"
          }
        }
      ],
      "hex": "01000000010000000000000000000000000000000000000000000000000000000000000000ffffffff0804ffff001d02ec05ffffffff0100f2052a010000004341047353eca2a4415c259c8191bda4174353bf8ecb43976929d95ae8a37af99debf1c75adc08dd928a9eaea036fd7a1cb75af1293db02af0bd3e362e70c10864727bac00000000"
    }
  ]
}