{
  "hash": "00000000d97359bd7dd742427a81f88bd01a27ebe66c5e0ae010df031173ee7c",
  "confirmations": 51488,
  "height": 1610,
  "version": 1,
  "versionHex": "00000001",
  "merkleroot": "6b56f120fb737280b0dcea3046b0f86861cbd9e6776ed4da26bdd0436fbef7b4",
  "time": 1232816026,
  "mediantime": 1232813503,
  "nonce": 1308135682,
  "bits": "1d00ffff",
  "difficulty": 1,
  "chainwork": "0000000000000000000000000000000000000000000000000000064b064b064b",
  "nTx": 1,
  "previousblockhash": "000000008b1ffe418820785bc733082b62377cb97b2ee2282e4bcb6d70823738",
  "nextblockhash": "000000002b13991d52f8f0e629c3cf8e313ec593f01bdf05ede184dc5ff23ff1",
  "strippedsize": 216,
  "size": 216,
  "weight": 864,
  "tx": [
    {
      "txid": "6b56f120fb737280b0dcea3046b0f86861cbd9e6776ed4da26bdd0436fbef7b4",
      "hash": "6b56f120fb737280b0dcea3046b0f86861cbd9e6776ed4da26bdd0436fbef7b4",
      "version": 1,
      "size": 135,
      "vsize": 135,
      "weight": 540,
      "locktime": 0,
      "vin": [
        {
          "coinbase": "04ffff001d024002",
          "sequence": 4294967295
        }
      ],
      "vout": [
        {
          "value": 50.0,
          "n": 0,
          "scriptPubKey": {
            "asm": "047f2386b82da3996e6db0da66c48b545655409ad5354fbd259bcfd10ce3854404f0b6a882bdb3daa581e84895f3dd1e4091efa0ce1c3a72fc85b7d40164344e6d OP_CHECKSIG",
            "desc": "pk(047f2386b82da3996e6db0da66c48b545655409ad5354fbd259bcfd10ce3854404f0b6a882bdb3daa581e84895f3dd1e4091efa0ce1c3a72fc85b7d40164344e6d)#dcamp5gx",
            "hex": "41047f2386b82da3996e6db0da66c48b545655409ad5354fbd259bcfd10ce3854404f0b6a882bdb3daa581e84895f3dd1e4091efa0ce1c3a72fc85b7d40164344e6dac",
            "type": "pubkey"
          }
        }
      ],
      "hex": "01000000010000000000000000000000000000000000000000000000000000000000000000ffffffff0804ffff001d024002ffffffff0100f2052a010000004341047f2386b82da3996e6db0da66c48b545655409ad5354fbd259bcfd10ce3854404f0b6a882bdb3daa581e84895f3dd1e4091efa0ce1c3a72fc85b7d40164344e6dac00000000"
    }
  ]
}