{
  "hash": "00000000438a2e8e2e9e132dfa69a6a67704c57bfb3cc2930349260ec05d3486",
  "confirmations": 50462,
  "height": 2636,
  "version": 1,
  "versionHex": "00000001",
  "merkleroot": "291000e94bdcb65db39f0faf3a359e4de28d09ac5aa725a0a0ae729220f03df4",
  "time": 1233516676,
  "mediantime": 1233513983,
  "nonce": 81341597,
  "bits": "1d00ffff",
  "difficulty": 1,
  "chainwork": "00000000000000000000000000000000000000000000000000000a4d0a4d0a4d",
  "nTx": 1,
  "previousblockhash": "00000000dbb5e3731817b7b7e796b71c0ec2801c787f7ca21772d4cc62366d42",
  "nextblockhash": "000000001ecfb379356d51ddaf0185a10f53b15a4f2142e4fccf1d778f12be65",
  "strippedsize": 215,
  "size": 215,
  "weight": 860,
  "tx": [
    {
      "txid": "291000e94bdcb65db39f0faf3a359e4de28d09ac5aa725a0a0ae729220f03df4",
      "hash": "291000e94bdcb65db39f0faf3a359e4de28d09ac5aa725a0a0ae729220f03df4",
      "version": 1,
      "size": 134,
      "vsize": 134,
      "weight": 536,
      "locktime": 0,
      "vin": [
        {
          "coinbase": "04ffff001d0130",
          "sequence": 4294967295
        }
      ],
      "vout": [
        {
          "value": 50.0,
          "n": 0,
          "scriptPubKey": {
            "asm": "04796b3d07f1c11a4c8666c436b4922d1e179cf4f4d4787f70292e7be44fbde779418e8baada3b06b7e09cb3a6968c78292318486bd20b7a22c9ab204a117020a4 OP_CHECKSIG",
            "desc": "pk(04796b3d07f1c11a4c8666c436b4922d1e179cf4f4d4787f70292e7be44fbde779418e8baada3b06b7e09cb3a6968c78292318486bd20b7a22c9ab204a117020a4)#vxay7s8g",
            "hex": "4104796b3d07f1c11a4c8666c436b4922d1e179cf4f4d4787f70292e7be44fbde779418e8baada3b06b7e09cb3a6968c78292318486bd20b7a22c9ab204a117020a4ac",
            "type": "pubkey"
          }
        }
      ],
      "hex": "01000000010000000000000000000000000000000000000000000000000000000000000000ffffffff0704ffff001d0130ffffffff0100f2052a01000000434104796b3d07f1c11a4c8666c436b4922d1e179cf4f4d4787f70292e7be44fbde779418e8baada3b06b7e09cb3a6968c78292318486bd20b7a22c9ab204a117020a4ac00000000"
    }
  ]
}