{
  "hash": "000000009f234a07cebd1e8d5b193e5e75b6552aaa2701b5a7300344eb873cd0",
  "confirmations": 47844,
  "height": 5254,
  "version": 1,
  "versionHex": "00000001",
  "merkleroot": "b156e79bd579b7cf991b7ab2d8926a6a11d8ab2c4372c32fe11552fff763dad9",
  "time": 1235326364,
  "mediantime": 1235321437,
  "nonce": 60143781,
  "bits": "1d00ffff",
  "difficulty": 1,
  "chainwork": "0000000000000000000000000000000000000000000000000000148714871487",
  "nTx": 1,
  "previousblockhash": "00000000febe72cd9885d0eeaf388fb0ed120918b518d7fe730a0c228db64acb",
  "nextblockhash": "000000004c50f59d25e24bd70e847d45ca0afe75d861e99b4e4a54ea6c4b908a",
  "strippedsize": 216,
  "size": 216,
  "weight": 864,
  "tx": [
    {
      "txid": "b156e79bd579b7cf991b7ab2d8926a6a11d8ab2c4372c32fe11552fff763dad9",
      "hash": "b156e79bd579b7cf991b7ab2d8926a6a11d8ab2c4372c32fe11552fff763dad9",
      "version": 1,
      "size": 135,
      "vsize": 135,
      "weight": 540,
      "locktime": 0,
      "vin": [
        {
          "coinbase": "04ffff001d024906",
          "sequence": 4294967295
        }
      ],
      "vout": [
        {
          "value": 50.0,
          "n": 0,
          "scriptPubKey": {
            "asm": "0402ec6892fc726743ebb673d307a73685af929af10699df7586273e162c921121a5f0df761bd1956184606cd5c7d22d8e3f808b83561d54a569127e2e1bb82e29 OP_CHECKSIG",
            "desc": "pk(0402ec6892fc726743ebb673d307a73685af929af10699df7586273e162c921121a5f0df761bd1956184606cd5c7d22d8e3f808b83561d54a569127e2e1bb82e29)#tqj8atkq",
            "hex": "410402ec6892fc726743ebb673d307a73685af929af10699df7586273e162c921121a5f0df761bd1956184606cd5c7d22d8e3f808b83561d54a569127e2e1bb82e29ac",
            "type": "pubkey"
          }
        }
      ],
      "hex": "01000000010000000000000000000000000000000000000000000000000000000000000000ffffffff0804ffff001d024906ffffffff0100f2052a0100000043410402ec6892fc726743ebb673d307a73685af929af10699df7586273e162c921121a5f0df761bd1956184606cd5c7d22d8e3f808b83561d54a569127e2e1bb82e29ac00000000"
    }
  ]
}