{
  "hash": "000000003f87fa6d28f979128c1e89cf6bb239f885d7d811cfe7e6d10ca9bb2e",
  "confirmations": 47158,
  "height": 5940,
  "version": 1,
  "versionHex": "00000001",
  "merkleroot": "e5b954f4346832ae2244db2ecc5368f4757b42c21247ece389c5141ee9aa194e",
  "time": 1235880674,
  "mediantime": 1235876548,
  "nonce": 357972518,
  "bits": "1d00ffff",
  "difficulty": 1,
  "chainwork": "0000000000000000000000000000000000000000000000000000173517351735",
  "nTx": 1,
  "previousblockhash": "00000000502c41b516a23d632b173665e6d355804f7cca0a5215ac7000df76f2",
  "nextblockhash": "000000009b8514d16b4a64f6a458de01da3b633275dea5b511be12c121782d46",
  "strippedsize": 216,
  "size": 216,
  "weight": 864,
  "tx": [
    {
      "txid": "e5b954f4346832ae2244db2ecc5368f4757b42c21247ece389c5141ee9aa194e",
      "hash": "e5b954f4346832ae2244db2ecc5368f4757b42c21247ece389c5141ee9aa194e",
      "version": 1,
      "size": 135,
      "vsize": 135,
      "weight": 540,
      "locktime": 0,
      "vin": [
        {
          "coinbase": "04ffff001d02de03",
          "sequence": 4294967295
        }
      ],
      "vout": [
        {
          "value": 50.0,
          "n": 0,
          "scriptPubKey": {
            "asm": "048374d70c0573a8ae46c60b65461834ccd26aa30869e7ebf509b74592f68cf3f51ce155f98cd784b23236f9b59b6dd2e8f9ab65088ebf21c618c262993668a81e OP_CHECKSIG",
            "desc": "pk(048374d70c0573a8ae46c60b65461834ccd26aa30869e7ebf509b74592f68cf3f51ce155f98cd784b23236f9b59b6dd2e8f9ab65088ebf21c618c262993668a81e)#gxlthlv4",
            "hex": "41048374d70c0573a8ae46c60b65461834ccd26aa30869e7ebf509b74592f68cf3f51ce155f98cd784b23236f9b59b6dd2e8f9ab65088ebf21c618c262993668a81eac",
            "type": "pubkey"
          }
        }
      ],
      "hex": "01000000010000000000000000000000000000000000000000000000000000000000000000ffffffff0804ffff001d02de03ffffffff0100f2052a010000004341048374d70c0573a8ae46c60b65461834ccd26aa30869e7ebf509b74592f68cf3f51ce155f98cd784b23236f9b59b6dd2e8f9ab65088ebf21c618c262993668a81eac00000000"
    }
  ]
}