{
  "hash": "00000000f94d02c84f733bfa4cf26bb87a44b6261c2b62c659e6f582a402727a",
  "confirmations": 47297,
  "height": 5801,
  "version": 1,
  "versionHex": "00000001",
  "merkleroot": "3ac7df90372fdba00a52e1990d86037457b69e4f1383bf4806b97d315efa7daa",
  "time": 1235760024,
  "mediantime": 1235757451,
  "nonce": 3052308999,
  "bits": "1d00ffff",
  "difficulty": 1,
  "chainwork": "000000000000000000000000000000000000000000000000000016aa16aa16aa",
  "nTx": 1,
  "previousblockhash": "00000000c93c9874db8d899f8409a98980d3cf2b0d776aa8e18e82a961d7eafc",
  "nextblockhash": "000000003dd59e05f88a63e32d18ced5ee2b2cbab396d5563c3ac8eecd75065d",
  "strippedsize": 216,
  "size": 216,
  "weight": 864,
  "tx": [
    {
      "txid": "3ac7df90372fdba00a52e1990d86037457b69e4f1383bf4806b97d315efa7daa",
      "hash": "3ac7df90372fdba00a52e1990d86037457b69e4f1383bf4806b97d315efa7daa",
      "version": 1,
      "size": 135,
      "vsize": 135,
      "weight": 540,
      "locktime": 0,
      "vin": [
        {
          "coinbase": "04ffff001d02bc00",
          "sequence": 4294967295
        }
      ],
      "vout": [
        {
          "value": 50.0,
          "n": 0,
          "scriptPubKey": {
            "asm": "0413759030c91da819c00b5ce44b680725cbd0176d8f42b53be91c1845ab863816fe33c6b6ec0d7a4c1eb0541e54cd9629829a9ddf80a9a8063c481f4d0891e9e8 OP_CHECKSIG",
            "desc": "pk(0413759030c91da819c00b5ce44b680725cbd0176d8f42b53be91c1845ab863816fe33c6b6ec0d7a4c1eb0541e54cd9629829a9ddf80a9a8063c481f4d0891e9e8)#ktejtrwz",
            "hex": "410413759030c91da819c00b5ce44b680725cbd0176d8f42b53be91c1845ab863816fe33c6b6ec0d7a4c1eb0541e54cd9629829a9ddf80a9a8063c481f4d0891e9e8ac",
            "type": "pubkey"
          }
        }
      ],
      "hex": "01000000010000000000000000000000000000000000000000000000000000000000000000ffffffff0804ffff001d02bc00ffffffff0100f2052a0100000043410413759030c91da819c00b5ce44b680725cbd0176d8f42b53be91c1845ab863816fe33c6b6ec0d7a4c1eb0541e54cd9629829a9ddf80a9a8063c481f4d0891e9e8ac00000000"
    }
  ]
}