{
  "hash": "000000001728a65efe3fe56198dd6112d7f76cc8e967d4fb958a0b4d3a08fb15",
  "confirmations": 52007,
  "height": 332,
  "version": 1,
  "versionHex": "00000001",
  "merkleroot": "c21ec58e759f197c12d5701c1bab2df8639d2d4a2b1715d98eb7284b82c7dfd8",
  "time": 1231854604,
  "mediantime": 1231851531,
  "nonce": 281873705,
  "bits": "1d00ffff",
  "difficulty": 1,
  "chainwork": "0000000000000000000000000000000000000000000000000000014d014d014d",
  "nTx": 1,
  "previousblockhash": "000000009f5056791a32a8428ff4077fb5fe3c264fbdb72a10310ca3c6ee8d70",
  "nextblockhash": "000000009a5a1f98edaafdae4c0dd90e1b03833b97c5f45e130a6a0210cd9081",
  "strippedsize": 216,
  "size": 216,
  "weight": 864,
  "tx": [
    {
      "txid": "c21ec58e759f197c12d5701c1bab2df8639d2d4a2b1715d98eb7284b82c7dfd8",
      "hash": "c21ec58e759f197c12d5701c1bab2df8639d2d4a2b1715d98eb7284b82c7dfd8",
      "version": 1,
      "size": 135,
      "vsize": 135,
      "weight": 540,
      "locktime": 0,
      "vin": [
        {
          "coinbase": "04ffff001d023401",
          "sequence": 4294967295
        }
      ],
      "vout": [
        {
          "value": 50.0,
          "n": 0,
          "scriptPubKey": {
            "asm": "04b30fe080b9104ad86323cef6aca6ecd89b3c76c4df3523eb0ac252ea265f117403dd92dd73d59930b2419f1e84416e15ed05a2a5e6f72ecebdfc8c7c440a3b52 OP_CHECKSIG",
            "desc": "pk(04b30fe080b9104ad86323cef6aca6ecd89b3c76c4df3523eb0ac252ea265f117403dd92dd73d59930b2419f1e84416e15ed05a2a5e6f72ecebdfc8c7c440a3b52)#gx9y96yk",
            "hex": "4104b30fe080b9104ad86323cef6aca6ecd89b3c76c4df3523eb0ac252ea265f117403dd92dd73d59930b2419f1e84416e15ed05a2a5e6f72ecebdfc8c7c440a3b52ac",
            "type": "pubkey"
          }
        }
      ],
      "hex": "01000000010000000000000000000000000000000000000000000000000000000000000000ffffffff0804ffff001d023401ffffffff0100f2052a01000000434104b30fe080b9104ad86323cef6aca6ecd89b3c76c4df3523eb0ac252ea265f117403dd92dd73d59930b2419f1e84416e15ed05a2a5e6f72ecebdfc8c7c440a3b52ac00000000"
    }
  ]
}