{
  "hash": "00000000b65437c5b0e4a650609fcd24fc5233789e8913616fdfbd947ee92875",
  "confirmations": 47926,
  "height": 5172,
  "version": 1,
  "versionHex": "00000001",
  "merkleroot": "0c2e60fc99ab7c3e910e30ae276c53ede4526376d55020ed595c784ca71952d5",
  "time": 1235267380,
  "mediantime": 1235263336,
  "nonce": 118559257,
  "bits": "1d00ffff",
  "difficulty": 1,
  "chainwork": "0000000000000000000000000000000000000000000000000000143514351435",
  "nTx": 1,
  "previousblockhash": "000000000a7ae7a132acdd5a3f29570d100a2685140d3ae0d08ce62d5a810faa",
  "nextblockhash": "000000002a80294358278b082285f25284883bb7f67c95162e2ee5c56f220e1c",
  "strippedsize": 215,
  "size": 215,
  "weight": 860,
  "tx": [
    {
      "txid": "0c2e60fc99ab7c3e910e30ae276c53ede4526376d55020ed595c784ca71952d5",
      "hash": "0c2e60fc99ab7c3e910e30ae276c53ede4526376d55020ed595c784ca71952d5",
      "version": 1,
      "size": 134,
      "vsize": 134,
      "weight": 536,
      "locktime": 0,
      "vin": [
        {
          "coinbase": "04ffff001d0110",
          "sequence": 4294967295
        }
      ],
      "vout": [
        {
          "value": 50.0,
          "n": 0,
          "scriptPubKey": {
            "asm": "04d5c9acf8871e46258f8d4b3c0cfd84c5a6f9fd3a39cc68446225ab54064000d7f91fd64753e594140fa9578e1099bb7aab704d2d76a2b6d02b5339a4474ea112 OP_CHECKSIG",
            "desc": "pk(04d5c9acf8871e46258f8d4b3c0cfd84c5a6f9fd3a39cc68446225ab54064000d7f91fd64753e594140fa9578e1099bb7aab704d2d76a2b6d02b5339a4474ea112)#eaptn3cc",
            "hex": "4104d5c9acf8871e46258f8d4b3c0cfd84c5a6f9fd3a39cc68446225ab54064000d7f91fd64753e594140fa9578e1099bb7aab704d2d76a2b6d02b5339a4474ea112ac",
            "type": "pubkey"
          }
        }
      ],
      "hex": "01000000010000000000000000000000000000000000000000000000000000000000000000ffffffff0704ffff001d0110ffffffff0100f2052a01000000434104d5c9acf8871e46258f8d4b3c0cfd84c5a6f9fd3a39cc68446225ab54064000d7f91fd64753e594140fa9578e1099bb7aab704d2d76a2b6d02b5339a4474ea112ac00000000"
    }
  ]
}