{
  "hash": "00000000a2f327e635d538ea0e9105e929a4f29553a5ed30b0ea004bfb41f536",
  "confirmations": 45271,
  "height": 7827,
  "version": 1,
  "versionHex": "00000001",
  "merkleroot": "4991185b9fa9b83129148db928e75fc4a9146a78b92aeee671c7e44206a05382",
  "time": 1237335423,
  "mediantime": 1237330489,
  "nonce": 3165828905,
  "bits": "1d00ffff",
  "difficulty": 1,
  "chainwork": "00000000000000000000000000000000000000000000000000001e941e941e94",
  "nTx": 1,
  "previousblockhash": "00000000aaaebe6b6bc8887aaeeba7c2c154865bf959f0455d57fadfddb60faa",
  "nextblockhash": "000000007a51ee6066c7f7aead11667a3e18a89c4092e3c0a411ad8b758e7226",
  "strippedsize": 216,
  "size": 216,
  "weight": 864,
  "tx": [
    {
      "txid": "4991185b9fa9b83129148db928e75fc4a9146a78b92aeee671c7e44206a05382",
      "hash": "4991185b9fa9b83129148db928e75fc4a9146a78b92aeee671c7e44206a05382",
      "version": 1,
      "size": 135,
      "vsize": 135,
      "weight": 540,
      "locktime": 0,
      "vin": [
        {
          "coinbase": "04ffff001d025a06",
          "sequence": 4294967295
        }
      ],
      "vout": [
        {
          "value": 50.0,
          "n": 0,
          "scriptPubKey": {
            "asm": "04a44feccb9cb86dbede5301f56d8ea6b82eb44462153daad4a54fa3e8d42618c8e68e829b6729399a55015ce3a5f9e45a81b4a02b374352f61c78a0ae28344331 OP_CHECKSIG",
            "desc": "pk(04a44feccb9cb86dbede5301f56d8ea6b82eb44462153daad4a54fa3e8d42618c8e68e829b6729399a55015ce3a5f9e45a81b4a02b374352f61c78a0ae28344331)#xfansest",
            "hex": "4104a44feccb9cb86dbede5301f56d8ea6b82eb44462153daad4a54fa3e8d42618c8e68e829b6729399a55015ce3a5f9e45a81b4a02b374352f61c78a0ae28344331ac",
            "type": "pubkey"
          }
        }
      ],
      "hex": "01000000010000000000000000000000000000000000000000000000000000000000000000ffffffff0804ffff001d025a06ffffffff0100f2052a01000000434104a44feccb9cb86dbede5301f56d8ea6b82eb44462153daad4a54fa3e8d42618c8e68e829b6729399a55015ce3a5f9e45a81b4a02b374352f61c78a0ae28344331ac00000000"
    }
  ]
}