{
  "hash": "0000000063259940e89b62d6eb99a51ad3ba08ee14ab77552e785846d0d7a876",
  "confirmations": 45158,
  "height": 7940,
  "version": 1,
  "versionHex": "00000001",
  "merkleroot": "8940391c9a89be77218e2eeda087e8a6054479e366bad0cb92cae611dc33314f",
  "time": 1237420540,
  "mediantime": 1237416421,
  "nonce": 3243552568,
  "bits": "1d00ffff",
  "difficulty": 1,
  "chainwork": "00000000000000000000000000000000000000000000000000001f051f051f05",
  "nTx": 1,
  "previousblockhash": "00000000d6883b596e44e7d67a5ab159be857877f70604ee394fe95880ab28f9",
  "nextblockhash": "00000000b147e02319044264b4aca8c4c35ca59bfd2566c76dca6491c88a15dc",
  "strippedsize": 216,
  "size": 216,
  "weight": 864,
  "tx": [
    {
      "txid": "8940391c9a89be77218e2eeda087e8a6054479e366bad0cb92cae611dc33314f",
      "hash": "8940391c9a89be77218e2eeda087e8a6054479e366bad0cb92cae611dc33314f",
      "version": 1,
      "size": 135,
      "vsize": 135,
      "weight": 540,
      "locktime": 0,
      "vin": [
        {
          "coinbase": "04ffff001d025808",
          "sequence": 4294967295
        }
      ],
      "vout": [
        {
          "value": 50.0,
          "n": 0,
          "scriptPubKey": {
            "asm": "046185f5ef8e9721718ae40dfed776a4ab783dedaee24063a9669a0fd13ce5995ea3659dd75a417b9d7cd9e0e4da0cd2fe6b2db1563e8b5e42968574c925f58c51 OP_CHECKSIG",
            "desc": "pk(046185f5ef8e9721718ae40dfed776a4ab783dedaee24063a9669a0fd13ce5995ea3659dd75a417b9d7cd9e0e4da0cd2fe6b2db1563e8b5e42968574c925f58c51)#wgekacxg",
            "hex": "41046185f5ef8e9721718ae40dfed776a4ab783dedaee24063a9669a0fd13ce5995ea3659dd75a417b9d7cd9e0e4da0cd2fe6b2db1563e8b5e42968574c925f58c51ac",
            "type": "pubkey"
          }
        }
      ],
      "hex": "01000000010000000000000000000000000000000000000000000000000000000000000000ffffffff0804ffff001d025808ffffffff0100f2052a010000004341046185f5ef8e9721718ae40dfed776a4ab783dedaee24063a9669a0fd13ce5995ea3659dd75a417b9d7cd9e0e4da0cd2fe6b2db1563e8b5e42968574c925f58c51ac00000000"
    }
  ]
}