{
  "hash": "0000000048d63c87803479db8600d99d8b1a4644f7361da1e23ac06eacbaefaf",
  "confirmations": 45927,
  "height": 7171,
  "version": 1,
  "versionHex": "00000001",
  "merkleroot": "a17943485a7bd40d5bc08e60d4d334f096112e5c267e82135d2090e3e113dd32",
  "time": 1236848839,
  "mediantime": 1236846569,
  "nonce": 3079196728,
  "bits": "1d00ffff",
  "difficulty": 1,
  "chainwork": "00000000000000000000000000000000000000000000000000001c041c041c04",
  "nTx": 1,
  "previousblockhash": "00000000cc7567de5c48b49491fd520efcd0606bfdff3adc8b2640e50c53756d",
  "nextblockhash": "00000000a44852891cf522a466015a94e7ab363e5ad84e0992e60d82a1f66c3d",
  "strippedsize": 216,
  "size": 216,
  "weight": 864,
  "tx": [
    {
      "txid": "a17943485a7bd40d5bc08e60d4d334f096112e5c267e82135d2090e3e113dd32",
      "hash": "a17943485a7bd40d5bc08e60d4d334f096112e5c267e82135d2090e3e113dd32",
      "version": 1,
      "size": 135,
      "vsize": 135,
      "weight": 540,
      "locktime": 0,
      "vin": [
        {
          "coinbase": "04ffff001d024705",
          "sequence": 4294967295
        }
      ],
      "vout": [
        {
          "value": 50.0,
          "n": 0,
          "scriptPubKey": {
            "asm": "044f228d81b4474c50d0c381056c2db8befc11fd6d0a867a448f6b5f0f78b88e7c95806d857549b6c95f1372c7527e906db06160f2c6abc027791a160e78d8ea7e OP_CHECKSIG",
            "desc": "pk(044f228d81b4474c50d0c381056c2db8befc11fd6d0a867a448f6b5f0f78b88e7c95806d857549b6c95f1372c7527e906db06160f2c6abc027791a160e78d8ea7e)#2l8q6ylv",
            "hex": "41044f228d81b4474c50d0c381056c2db8befc11fd6d0a867a448f6b5f0f78b88e7c95806d857549b6c95f1372c7527e906db06160f2c6abc027791a160e78d8ea7eac",
            "type": "pubkey"
          }
        }
      ],
      "hex": "01000000010000000000000000000000000000000000000000000000000000000000000000ffffffff0804ffff001d024705ffffffff0100f2052a010000004341044f228d81b4474c50d0c381056c2db8befc11fd6d0a867a448f6b5f0f78b88e7c95806d857549b6c95f1372c7527e906db06160f2c6abc027791a160e78d8ea7eac00000000"
    }
  ]
}