{
  "hash": "0000000093fd25ff4a43ef7edbfc6ce74d2cd2ed47012d89af1ab6fd3ef71ef4",
  "confirmations": 49842,
  "height": 3256,
  "version": 1,
  "versionHex": "00000001",
  "merkleroot": "86f04184de315b99b0ceb41395ccdb0efecc48f52c11b064e729f5d00f1da9b4",
  "time": 1233939949,
  "mediantime": 1233937243,
  "nonce": 3371151161,
  "bits": "1d00ffff",
  "difficulty": 1,
  "chainwork": "00000000000000000000000000000000000000000000000000000cb90cb90cb9",
  "nTx": 1,
  "previousblockhash": "00000000bd7c172b76e84035e453dda541c8d05225f32dae20b99852a9656f02",
  "nextblockhash": "0000000093e0b556b4cdaf55ce83b2e17429edd1c020c1756932a83db4d97c0c",
  "strippedsize": 216,
  "size": 216,
  "weight": 864,
  "tx": [
    {
      "txid": "86f04184de315b99b0ceb41395ccdb0efecc48f52c11b064e729f5d00f1da9b4",
      "hash": "86f04184de315b99b0ceb41395ccdb0efecc48f52c11b064e729f5d00f1da9b4",
      "version": 1,
      "size": 135,
      "vsize": 135,
      "weight": 540,
      "locktime": 0,
      "vin": [
        {
          "coinbase": "04ffff001d028303",
          "sequence": 4294967295
        }
      ],
      "vout": [
        {
          "value": 50.0,
          "n": 0,
          "scriptPubKey": {
            "asm": "04543864182d6fc29c1b71f3a55c50d818a532932d50bcbff91b12e9307990a084a6593bff46fb7d04462a833bfaed4af49dd4b98a79cd280c7a337c5b4b0ba52f OP_CHECKSIG",
            "desc": "pk(04543864182d6fc29c1b71f3a55c50d818a532932d50bcbff91b12e9307990a084a6593bff46fb7d04462a833bfaed4af49dd4b98a79cd280c7a337c5b4b0ba52f)#2yv7t0r8",
            "hex": "4104543864182d6fc29c1b71f3a55c50d818a532932d50bcbff91b12e9307990a084a6593bff46fb7d04462a833bfaed4af49dd4b98a79cd280c7a337c5b4b0ba52fac",
            "type": "pubkey"
          }
        }
      ],
      "hex": "01000000010000000000000000000000000000000000000000000000000000000000000000ffffffff0804ffff001d028303ffffffff0100f2052a01000000434104543864182d6fc29c1b71f3a55c50d818a532932d50bcbff91b12e9307990a084a6593bff46fb7d04462a833bfaed4af49dd4b98a79cd280c7a337c5b4b0ba52fac00000000"
    }
  ]
}