{
  "hash": "00000000708927f1d6d2b36335dc00fd53de68fa1f78972a34ed830ba1e42c90",
  "confirmations": 48088,
  "height": 5010,
  "version": 1,
  "versionHex": "00000001",
  "merkleroot": "67e7aaef135a6246fdfed5dea31fc3cf010733d46ebfc28f2fa6c348be403f5b",
  "time": 1235142354,
  "mediantime": 1235140786,
  "nonce": 367693860,
  "bits": "1d00ffff",
  "difficulty": 1,
  "chainwork": "0000000000000000000000000000000000000000000000000000139313931393",
  "nTx": 1,
  "previousblockhash": "00000000db02b5d1a108b80d9f7aaef7abe80c5d583aca83ee630d77d1c6b1a9",
  "nextblockhash": "00000000c535e0f28e371322849ab28abb37ddd9dbe3c2e100302375ecf63fbb",
  "strippedsize": 216,
  "size": 216,
  "weight": 864,
  "tx": [
    {
      "txid": "67e7aaef135a6246fdfed5dea31fc3cf010733d46ebfc28f2fa6c348be403f5b",
      "hash": "67e7aaef135a6246fdfed5dea31fc3cf010733d46ebfc28f2fa6c348be403f5b",
      "version": 1,
      "size": 135,
      "vsize": 135,
      "weight": 540,
      "locktime": 0,
      "vin": [
        {
          "coinbase": "04ffff001d022807",
          "sequence": 4294967295
        }
      ],
      "vout": [
        {
          "value": 50.0,
          "n": 0,
          "scriptPubKey": {
            "asm": "043da8b99fcc15fd739ebef57621ec9746a4fd32e130c2d7e84262ed3ca6168104870f266c25767b497a505a74bc5f363146061654c92c664d72a0c2cc123483c5 OP_CHECKSIG",
            "desc": "pk(043da8b99fcc15fd739ebef57621ec9746a4fd32e130c2d7e84262ed3ca6168104870f266c25767b497a505a74bc5f363146061654c92c664d72a0c2cc123483c5)#66my805x",
            "hex": "41043da8b99fcc15fd739ebef57621ec9746a4fd32e130c2d7e84262ed3ca6168104870f266c25767b497a505a74bc5f363146061654c92c664d72a0c2cc123483c5ac",
            "type": "pubkey"
          }
        }
      ],
      "hex": "01000000010000000000000000000000000000000000000000000000000000000000000000ffffffff0804ffff001d022807ffffffff0100f2052a010000004341043da8b99fcc15fd739ebef57621ec9746a4fd32e130c2d7e84262ed3ca6168104870f266c25767b497a505a74bc5f363146061654c92c664d72a0c2cc123483c5ac00000000"
    }
  ]
}