{
  "hash": "00000000ffcb592e42740b24ff659f3f2e5d938175fe918e7ef46efa6b86e36d",
  "confirmations": 44348,
  "height": 8750,
  "version": 1,
  "versionHex": "00000001",
  "merkleroot": "f2205c3fb458644277cf2dba9ebf35ff5a40f0e5db612b97bd985ad0e9b9407a",
  "time": 1238059548,
  "mediantime": 1238055642,
  "nonce": 41754325,
  "bits": "1d00ffff",
  "difficulty": 1,
  "chainwork": "0000000000000000000000000000000000000000000000000000222f222f222f",
  "nTx": 1,
  "previousblockhash": "00000000df15291171af022473586e7b54cf9f7939b2ddd7b2d3b41a45fdbda3",
  "nextblockhash": "00000000e8e5275ee81b979c52df51e0a1a9b8eb5134b68b469bf1b44486ce0c",
  "strippedsize": 216,
  "size": 216,
  "weight": 864,
  "tx": [
    {
      "txid": "f2205c3fb458644277cf2dba9ebf35ff5a40f0e5db612b97bd985ad0e9b9407a",
      "hash": "f2205c3fb458644277cf2dba9ebf35ff5a40f0e5db612b97bd985ad0e9b9407a",
      "version": 1,
      "size": 135,
      "vsize": 135,
      "weight": 540,
      "locktime": 0,
      "vin": [
        {
          "coinbase": "04ffff001d02f102",
          "sequence": 4294967295
        }
      ],
      "vout": [
        {
          "value": 50.0,
          "n": 0,
          "scriptPubKey": {
            "asm": "04f5b477165de665b4af3e2bec01fae6afcd9a3a0c5168f3c59090e7c2a33850c27c5d875361fe0d3c36308087d0e8e32c1653f05aaec556dfd33e067ee5630c2f OP_CHECKSIG",
            "desc": "pk(04f5b477165de665b4af3e2bec01fae6afcd9a3a0c5168f3c59090e7c2a33850c27c5d875361fe0d3c36308087d0e8e32c1653f05aaec556dfd33e067ee5630c2f)#j959e6n9",
            "hex": "4104f5b477165de665b4af3e2bec01fae6afcd9a3a0c5168f3c59090e7c2a33850c27c5d875361fe0d3c36308087d0e8e32c1653f05aaec556dfd33e067ee5630c2fac",
            "type": "pubkey"
          }
        }
      ],
      "hex": "01000000010000000000000000000000000000000000000000000000000000000000000000ffffffff0804ffff001d02f102ffffffff0100f2052a01000000434104f5b477165de665b4af3e2bec01fae6afcd9a3a0c5168f3c59090e7c2a33850c27c5d875361fe0d3c36308087d0e8e32c1653f05aaec556dfd33e067ee5630c2fac00000000"
    }
  ]
}