{
  "hash": "000000003d33a4977de89989a8c707ec1e23be86445f394be0ce3f6d0a370292",
  "confirmations": 50607,
  "height": 2491,
  "version": 1,
  "versionHex": "00000001",
  "merkleroot": "f6124a473b54ef21f9a321921a278839eb097a769c172014756d02d5cfa7c1e5",
  "time": 1233417115,
  "mediantime": 1233413882,
  "nonce": 3481396791,
  "bits": "1d00ffff",
  "difficulty": 1,
  "chainwork": "000000000000000000000000000000000000000000000000000009bc09bc09bc",
  "nTx": 1,
  "previousblockhash": "000000002648680a92d9329bc70021fce9e9f02f20ddfc792fcf61482c41d7d7",
  "nextblockhash": "000000003cffb34ef7437f7c54b0e5c1e855b3b8a33520143a707d3a0a7103e8",
  "strippedsize": 216,
  "size": 216,
  "weight": 864,
  "tx": [
    {
      "txid": "f6124a473b54ef21f9a321921a278839eb097a769c172014756d02d5cfa7c1e5",
      "hash": "f6124a473b54ef21f9a321921a278839eb097a769c172014756d02d5cfa7c1e5",
      "version": 1,
      "size": 135,
      "vsize": 135,
      "weight": 540,
      "locktime": 0,
      "vin": [
        {
          "coinbase": "04ffff001d02f400",
          "sequence": 4294967295
        }
      ],
      "vout": [
        {
          "value": 50.0,
          "n": 0,
          "scriptPubKey": {
            "asm": "04d51a7457eed1a3bc0cb31854cade63c2a59b91b718c5aae3447af276fff5d80c9e60976edf3810c8586309e1393bfd4a2ddf82e0acfcd12626eed8953a313dee OP_CHECKSIG",
            "desc": "pk(04d51a7457eed1a3bc0cb31854cade63c2a59b91b718c5aae3447af276fff5d80c9e60976edf3810c8586309e1393bfd4a2ddf82e0acfcd12626eed8953a313dee)#zxmarley",
            "hex": "4104d51a7457eed1a3bc0cb31854cade63c2a59b91b718c5aae3447af276fff5d80c9e60976edf3810c8586309e1393bfd4a2ddf82e0acfcd12626eed8953a313deeac",
            "type": "pubkey"
          }
        }
      ],
      "hex": "01000000010000000000000000000000000000000000000000000000000000000000000000ffffffff0804ffff001d02f400ffffffff0100f2052a01000000434104d51a7457eed1a3bc0cb31854cade63c2a59b91b718c5aae3447af276fff5d80c9e60976edf3810c8586309e1393bfd4a2ddf82e0acfcd12626eed8953a313deeac00000000"
    }
  ]
}