{
  "hash": "000000004df2d7adb6472d8406199cbdf686225921a032f6df25517f28d3b5cb",
  "confirmations": 45443,
  "height": 7655,
  "version": 1,
  "versionHex": "00000001",
  "merkleroot": "7ab462adf0db1cc39237cd8aaa2d04307d84f4922fe673ffba649462c5ad3c6e",
  "time": 1237205253,
  "mediantime": 1237203112,
  "nonce": 1675653143,
  "bits": "1d00ffff",
  "difficulty": 1,
  "chainwork": "00000000000000000000000000000000000000000000000000001de81de81de8",
  "nTx": 1,
  "previousblockhash": "00000000a1700a066730f138d4d2a456ff10fdd5ddbf721d78dd767d8a4e4348",
  "nextblockhash": "00000000a2a4f737e46722e45b28d84635999dfbf20e1a0d6b5a6cd31fa1fad3",
  "strippedsize": 216,
  "size": 216,
  "weight": 864,
  "tx": [
    {
      "txid": "7ab462adf0db1cc39237cd8aaa2d04307d84f4922fe673ffba649462c5ad3c6e",
      "hash": "7ab462adf0db1cc39237cd8aaa2d04307d84f4922fe673ffba649462c5ad3c6e",
      "version": 1,
      "size": 135,
      "vsize": 135,
      "weight": 540,
      "locktime": 0,
      "vin": [
        {
          "coinbase": "04ffff001d025403",
          "sequence": 4294967295
        }
      ],
      "vout": [
        {
          "value": 50.0,
          "n": 0,
          "scriptPubKey": {
            "asm": "04c98fb7f21d2b67c8dfbc7df0b440d8c503e21a11b59a6fbbd9a4f664aa18d941d7d2df3db85067c51c69107d91b22248dbd296c6dce3da7c20f3a7afa6a65b8a OP_CHECKSIG",
            "desc": "pk(04c98fb7f21d2b67c8dfbc7df0b440d8c503e21a11b59a6fbbd9a4f664aa18d941d7d2df3db85067c51c69107d91b22248dbd296c6dce3da7c20f3a7afa6a65b8a)#0a8s2z20",
            "hex": "4104c98fb7f21d2b67c8dfbc7df0b440d8c503e21a11b59a6fbbd9a4f664aa18d941d7d2df3db85067c51c69107d91b22248dbd296c6dce3da7c20f3a7afa6a65b8aac",
            "type": "pubkey"
          }
        }
      ],
      "hex": "01000000010000000000000000000000000000000000000000000000000000000000000000ffffffff0804ffff001d025403ffffffff0100f2052a01000000434104c98fb7f21d2b67c8dfbc7df0b440d8c503e21a11b59a6fbbd9a4f664aa18d941d7d2df3db85067c51c69107d91b22248dbd296c6dce3da7c20f3a7afa6a65b8aac00000000"
    }
  ]
}