{
  "hash": "00000000d46e3caa6128566282612b8dfad7870abe77395bfe183a8b570f1a86",
  "confirmations": 50245,
  "height": 2853,
  "version": 1,
  "versionHex": "00000001",
  "merkleroot": "65147e88df4a84d0ec84c9025b4d2b1d46aaa5bc261dda8ce5d2909d08d5053b",
  "time": 1233659437,
  "mediantime": 1233657702,
  "nonce": 13639925,
  "bits": "1d00ffff",
  "difficulty": 1,
  "chainwork": "00000000000000000000000000000000000000000000000000000b260b260b26",
  "nTx": 1,
  "previousblockhash": "00000000109b9ebab7924f0bb110dda99b3ef399e33dd4975cf2f69e03592726",
  "nextblockhash": "0000000026f0a9b16c3618be61c180e02ff89b95556251dcbee6ced796fdefba",
  "strippedsize": 216,
  "size": 216,
  "weight": 864,
  "tx": [
    {
      "txid": "65147e88df4a84d0ec84c9025b4d2b1d46aaa5bc261dda8ce5d2909d08d5053b",
      "hash": "65147e88df4a84d0ec84c9025b4d2b1d46aaa5bc261dda8ce5d2909d08d5053b",
      "version": 1,
      "size": 135,
      "vsize": 135,
      "weight": 540,
      "locktime": 0,
      "vin": [
        {
          "coinbase": "04ffff001d023801",
          "sequence": 4294967295
        }
      ],
      "vout": [
        {
          "value": 50.0,
          "n": 0,
          "scriptPubKey": {
            "asm": "04c10817d272551752eee08112c46f62eb213505d009eb3c3b7301fdc58f5f8b04294ee3e33317e4f1463c24c8afef78faae1a50795d792db9429664ff9dc07a41 OP_CHECKSIG",
            "desc": "pk(04c10817d272551752eee08112c46f62eb213505d009eb3c3b7301fdc58f5f8b04294ee3e33317e4f1463c24c8afef78faae1a50795d792db9429664ff9dc07a41)#acx2l4gm",
            "hex": "4104c10817d272551752eee08112c46f62eb213505d009eb3c3b7301fdc58f5f8b04294ee3e33317e4f1463c24c8afef78faae1a50795d792db9429664ff9dc07a41ac",
            "type": "pubkey"
          }
        }
      ],
      "hex": "01000000010000000000000000000000000000000000000000000000000000000000000000ffffffff0804ffff001d023801ffffffff0100f2052a01000000434104c10817d272551752eee08112c46f62eb213505d009eb3c3b7301fdc58f5f8b04294ee3e33317e4f1463c24c8afef78faae1a50795d792db9429664ff9dc07a41ac00000000"
    }
  ]
}