{
  "hash": "000000005439691d25a97a4fcc33a982e745618a4e42ca2088ec418caeecb80a",
  "confirmations": 48386,
  "height": 4712,
  "version": 1,
  "versionHex": "00000001",
  "merkleroot": "ae94e89eeb64abd73120dff48e3f929edc93957479b6ff334f06a1b80c8e31ea",
  "time": 1234936358,
  "mediantime": 1234932887,
  "nonce": 3460163113,
  "bits": "1d00ffff",
  "difficulty": 1,
  "chainwork": "0000000000000000000000000000000000000000000000000000126912691269",
  "nTx": 1,
  "previousblockhash": "00000000b16e03d850b9eee7f0aa099f3f611d6cba11e30c3781d0eddece526e",
  "nextblockhash": "00000000997e91910e76da16f8207862bdad141504816c81e66c5df0bce1f24d",
  "strippedsize": 216,
  "size": 216,
  "weight": 864,
  "tx": [
    {
      "txid": "ae94e89eeb64abd73120dff48e3f929edc93957479b6ff334f06a1b80c8e31ea",
      "hash": "ae94e89eeb64abd73120dff48e3f929edc93957479b6ff334f06a1b80c8e31ea",
      "version": 1,
      "size": 135,
      "vsize": 135,
      "weight": 540,
      "locktime": 0,
      "vin": [
        {
          "coinbase": "04ffff001d02b402",
          "sequence": 4294967295
        }
      ],
      "vout": [
        {
          "value": 50.0,
          "n": 0,
          "scriptPubKey": {
            "asm": "042b4b337b6ae9faf71c994c2fcee22e461fada3bcb5ad730cb80c101f13acc484ade2f8929d5399717b1a19099205e9f33c0ab9a8b5dbf0e97b1a12e1b7015507 OP_CHECKSIG",
            "desc": "pk(042b4b337b6ae9faf71c994c2fcee22e461fada3bcb5ad730cb80c101f13acc484ade2f8929d5399717b1a19099205e9f33c0ab9a8b5dbf0e97b1a12e1b7015507)#ga8at7lr",
            "hex": "41042b4b337b6ae9faf71c994c2fcee22e461fada3bcb5ad730cb80c101f13acc484ade2f8929d5399717b1a19099205e9f33c0ab9a8b5dbf0e97b1a12e1b7015507ac",
            "type": "pubkey"
          }
        }
      ],
      "hex": "01000000010000000000000000000000000000000000000000000000000000000000000000ffffffff0804ffff001d02b402ffffffff0100f2052a010000004341042b4b337b6ae9faf71c994c2fcee22e461fada3bcb5ad730cb80c101f13acc484ade2f8929d5399717b1a19099205e9f33c0ab9a8b5dbf0e97b1a12e1b7015507ac00000000"
    }
  ]
}