{
  "hash": "00000000e5ae04b766a7d2773e7f6a0515cdf93d9143b6e0c7415fd46b785d85",
  "confirmations": 49940,
  "height": 3158,
  "version": 1,
  "versionHex": "00000001",
  "merkleroot": "e8fb92ddfc0c4e0738ff6ac32693e9ea03b33b61f153b0dab4823df7a0aa3d61",
  "time": 1233872544,
  "mediantime": 1233869322,
  "nonce": 177052634,
  "bits": "1d00ffff",
  "difficulty": 1,
  "chainwork": "00000000000000000000000000000000000000000000000000000c570c570c57",
  "nTx": 1,
  "previousblockhash": "00000000aff68c0afab037c2ec227bfd8356002fce510fa8b7c14419900e6ea0",
  "nextblockhash": "00000000269402b189261b69538fe8dfea4acac5370f772a83045b8ebb6293b9",
  "strippedsize": 216,
  "size": 216,
  "weight": 864,
  "tx": [
    {
      "txid": "e8fb92ddfc0c4e0738ff6ac32693e9ea03b33b61f153b0dab4823df7a0aa3d61",
      "hash": "e8fb92ddfc0c4e0738ff6ac32693e9ea03b33b61f153b0dab4823df7a0aa3d61",
      "version": 1,
      "size": 135,
      "vsize": 135,
      "weight": 540,
      "locktime": 0,
      "vin": [
        {
          "coinbase": "04ffff001d02d607",
          "sequence": 4294967295
        }
      ],
      "vout": [
        {
          "value": 50.0,
          "n": 0,
          "scriptPubKey": {
            "asm": "04053c280b7671eb66d98a50a780c693b8d46b47a820135bde04b0f47176375ec952788ff9c79f1492e9611e34a6d727902e15853db7a458e13c91ef50e96d07c2 OP_CHECKSIG",
            "desc": "pk(04053c280b7671eb66d98a50a780c693b8d46b47a820135bde04b0f47176375ec952788ff9c79f1492e9611e34a6d727902e15853db7a458e13c91ef50e96d07c2)#nxwdwls8",
            "hex": "4104053c280b7671eb66d98a50a780c693b8d46b47a820135bde04b0f47176375ec952788ff9c79f1492e9611e34a6d727902e15853db7a458e13c91ef50e96d07c2ac",
            "type": "pubkey"
          }
        }
      ],
      "hex": "01000000010000000000000000000000000000000000000000000000000000000000000000ffffffff0804ffff001d02d607ffffffff0100f2052a01000000434104053c280b7671eb66d98a50a780c693b8d46b47a820135bde04b0f47176375ec952788ff9c79f1492e9611e34a6d727902e15853db7a458e13c91ef50e96d07c2ac00000000"
    }
  ]
}