{
  "hash": "00000000f398018f34f76cdcdb48385ce7739c2d182d402207c01e394e42023e",
  "confirmations": 50000,
  "height": 3098,
  "version": 1,
  "versionHex": "00000001",
  "merkleroot": "2070f7dfd2e82df834332f3c798d066a123f677a7d74b0d9acec3f740d1d1b96",
  "time": 1233832989,
  "mediantime": 1233829150,
  "nonce": 355702771,
  "bits": "1d00ffff",
  "difficulty": 1,
  "chainwork": "00000000000000000000000000000000000000000000000000000c1b0c1b0c1b",
  "nTx": 1,
  "previousblockhash": "000000009a2300cca22db628c1dbfdc2755b3c51e713357ceff6e838049f670c",
  "nextblockhash": "00000000bcdc52e18ad52bf541ac25122cbab181feb8ddfba2b47674f5183e91",
  "strippedsize": 215,
  "size": 215,
  "weight": 860,
  "tx": [
    {
      "txid": "2070f7dfd2e82df834332f3c798d066a123f677a7d74b0d9acec3f740d1d1b96",
      "hash": "2070f7dfd2e82df834332f3c798d066a123f677a7d74b0d9acec3f740d1d1b96",
      "version": 1,
      "size": 134,
      "vsize": 134,
      "weight": 536,
      "locktime": 0,
      "vin": [
        {
          "coinbase": "04ffff001d0106",
          "sequence": 4294967295
        }
      ],
      "vout": [
        {
          "value": 50.0,
          "n": 0,
          "scriptPubKey": {
            "asm": "04a627806d3e9c514c2419df6abbb9bb426d2d0ebf0dca84ce9bcd6e6457349280bcef089aea4a9a40b7552350b5534cb55e5ce7cc75ee38caf9eab4b34a5ed96d OP_CHECKSIG",
            "desc": "pk(04a627806d3e9c514c2419df6abbb9bb426d2d0ebf0dca84ce9bcd6e6457349280bcef089aea4a9a40b7552350b5534cb55e5ce7cc75ee38caf9eab4b34a5ed96d)#afhdsk58",
            "hex": "4104a627806d3e9c514c2419df6abbb9bb426d2d0ebf0dca84ce9bcd6e6457349280bcef089aea4a9a40b7552350b5534cb55e5ce7cc75ee38caf9eab4b34a5ed96dac",
            "type": "pubkey"
          }
        }
      ],
      "hex": "01000000010000000000000000000000000000000000000000000000000000000000000000ffffffff0704ffff001d0106ffffffff0100f2052a01000000434104a627806d3e9c514c2419df6abbb9bb426d2d0ebf0dca84ce9bcd6e6457349280bcef089aea4a9a40b7552350b5534cb55e5ce7cc75ee38caf9eab4b34a5ed96dac00000000"
    }
  ]
}