{
  "hash": "0000000061f7e541b19cbbe7ead47a67d26b2d721907b959ffb79fe9b56f14fc",
  "confirmations": 50421,
  "height": 2677,
  "version": 1,
  "versionHex": "00000001",
  "merkleroot": "b85eba392725d495bb91c62cb04b2589bebdda54e7933a0f2fdf0cce276295eb",
  "time": 1233546423,
  "mediantime": 1233543677,
  "nonce": 1354625793,
  "bits": "1d00ffff",
  "difficulty": 1,
  "chainwork": "00000000000000000000000000000000000000000000000000000a760a760a76",
  "nTx": 1,
  "previousblockhash": "00000000cd92aee3ad380fada1532bcc7bd624b2df3cd1838c9f9aa7fbfa075a",
  "nextblockhash": "00000000cb8ce334e6e2e10d6c20c52782729389a823283f7ef0eec12e452edf",
  "strippedsize": 216,
  "size": 216,
  "weight": 864,
  "tx": [
    {
      "txid": "b85eba392725d495bb91c62cb04b2589bebdda54e7933a0f2fdf0cce276295eb",
      "hash": "b85eba392725d495bb91c62cb04b2589bebdda54e7933a0f2fdf0cce276295eb",
      "version": 1,
      "size": 135,
      "vsize": 135,
      "weight": 540,
      "locktime": 0,
      "vin": [
        {
          "coinbase": "04ffff001d026704",
          "sequence": 4294967295
        }
      ],
      "vout": [
        {
          "value": 50.0,
          "n": 0,
          "scriptPubKey": {
            "asm": "04164e1cb6bcf170a171fda54d523fae6e722d73294786bf9d8fc0e7c01adfc6c21674376c1acabcc71bf95c78a90415a12fb0ee6c0eddfcc60f9cdef588fbdae8 OP_CHECKSIG",
            "desc": "pk(04164e1cb6bcf170a171fda54d523fae6e722d73294786bf9d8fc0e7c01adfc6c21674376c1acabcc71bf95c78a90415a12fb0ee6c0eddfcc60f9cdef588fbdae8)#6kuhgkhv",
            "hex": "4104164e1cb6bcf170a171fda54d523fae6e722d73294786bf9d8fc0e7c01adfc6c21674376c1acabcc71bf95c78a90415a12fb0ee6c0eddfcc60f9cdef588fbdae8ac",
            "type": "pubkey"
          }
        }
      ],
      "hex": "01000000010000000000000000000000000000000000000000000000000000000000000000ffffffff0804ffff001d026704ffffffff0100f2052a01000000434104164e1cb6bcf170a171fda54d523fae6e722d73294786bf9d8fc0e7c01adfc6c21674376c1acabcc71bf95c78a90415a12fb0ee6c0eddfcc60f9cdef588fbdae8ac00000000"
    }
  ]
}