{
  "hash": "000000004acb0af9697e2415638fab4825be8f4ec40452c4ea50450aef863c32",
  "confirmations": 43435,
  "height": 9663,
  "version": 1,
  "versionHex": "00000001",
  "merkleroot": "17389fcaa3b8221b21da2520870db5825e865223d017cde10195640d5e7fc0e7",
  "time": 1238749456,
  "mediantime": 1238746026,
  "nonce": 1310033705,
  "bits": "1d00ffff",
  "difficulty": 1,
  "chainwork": "000000000000000000000000000000000000000000000000000025c025c025c0",
  "nTx": 1,
  "previousblockhash": "00000000e4f5cca3f71da3e6dea6dd23e9a015a25a29457ff6998be25cfdac17",
  "nextblockhash": "000000004ba52092e9b6386979dee087cdb8101d3e63878f2f79b399c616812a",
  "strippedsize": 216,
  "size": 216,
  "weight": 864,
  "tx": [
    {
      "txid": "17389fcaa3b8221b21da2520870db5825e865223d017cde10195640d5e7fc0e7",
      "hash": "17389fcaa3b8221b21da2520870db5825e865223d017cde10195640d5e7fc0e7",
      "version": 1,
      "size": 135,
      "vsize": 135,
      "weight": 540,
      "locktime": 0,
      "vin": [
        {
          "coinbase": "04ffff001d02d307",
          "sequence": 4294967295
        }
      ],
      "vout": [
        {
          "value": 50.0,
          "n": 0,
          "scriptPubKey": {
            "asm": "048f5c7d6840b2cf58c38f20cbd4612ef194ba1c18bdaf728306d3c0ede0fbb01601197f4a3b1dec6f670355552647c887760ceeed4739eb7ebf60408d949d4c67 OP_CHECKSIG",
            "desc": "pk(048f5c7d6840b2cf58c38f20cbd4612ef194ba1c18bdaf728306d3c0ede0fbb01601197f4a3b1dec6f670355552647c887760ceeed4739eb7ebf60408d949d4c67)#llc8wezq",
            "hex": "41048f5c7d6840b2cf58c38f20cbd4612ef194ba1c18bdaf728306d3c0ede0fbb01601197f4a3b1dec6f670355552647c887760ceeed4739eb7ebf60408d949d4c67ac",
            "type": "pubkey"
          }
        }
      ],
      "hex": "01000000010000000000000000000000000000000000000000000000000000000000000000ffffffff0804ffff001d02d307ffffffff0100f2052a010000004341048f5c7d6840b2cf58c38f20cbd4612ef194ba1c18bdaf728306d3c0ede0fbb01601197f4a3b1dec6f670355552647c887760ceeed4739eb7ebf60408d949d4c67ac00000000"
    }
  ]
}