{
  "hash": "000000003c44a7c633f9002885a277e35a397c792487e3954d634133ad070e4d",
  "confirmations": 48044,
  "height": 5054,
  "version": 1,
  "versionHex": "00000001",
  "merkleroot": "ac404fe575f6cf62b79ae7e9d4a1a262f1d98af9e8cfe229df63109cec876b5a",
  "time": 1235179889,
  "mediantime": 1235174875,
  "nonce": 3153356064,
  "bits": "1d00ffff",
  "difficulty": 1,
  "chainwork": "000000000000000000000000000000000000000000000000000013bf13bf13bf",
  "nTx": 1,
  "previousblockhash": "0000000058396950e7ca643635a5ffa98f37a3548b1a3ad0db1f7864e3221649",
  "nextblockhash": "00000000292db442edb4c46e17ad0186342484220b51d0d21b58b2991001f83f",
  "strippedsize": 216,
  "size": 216,
  "weight": 864,
  "tx": [
    {
      "txid": "ac404fe575f6cf62b79ae7e9d4a1a262f1d98af9e8cfe229df63109cec876b5a",
      "hash": "ac404fe575f6cf62b79ae7e9d4a1a262f1d98af9e8cfe229df63109cec876b5a",
      "version": 1,
      "size": 135,
      "vsize": 135,
      "weight": 540,
      "locktime": 0,
      "vin": [
        {
          "coinbase": "04ffff001d02f307",
          "sequence": 4294967295
        }
      ],
      "vout": [
        {
          "value": 50.0,
          "n": 0,
          "scriptPubKey": {
            "asm": "04e63c2e061fda6371cc40906b1307520b7f0e66d2f8614a81ef0e149693e6c8868b89e87e72634cf5a4f44c8cc5e02e4711ef753140f2c7980e57c276a576f969 OP_CHECKSIG",
            "desc": "pk(04e63c2e061fda6371cc40906b1307520b7f0e66d2f8614a81ef0e149693e6c8868b89e87e72634cf5a4f44c8cc5e02e4711ef753140f2c7980e57c276a576f969)#jwftyk3q",
            "hex": "4104e63c2e061fda6371cc40906b1307520b7f0e66d2f8614a81ef0e149693e6c8868b89e87e72634cf5a4f44c8cc5e02e4711ef753140f2c7980e57c276a576f969ac",
            "type": "pubkey"
          }
        }
      ],
      "hex": "01000000010000000000000000000000000000000000000000000000000000000000000000ffffffff0804ffff001d02f307ffffffff0100f2052a01000000434104e63c2e061fda6371cc40906b1307520b7f0e66d2f8614a81ef0e149693e6c8868b89e87e72634cf5a4f44c8cc5e02e4711ef753140f2c7980e57c276a576f969ac00000000"
    }
  ]
}