{
  "hash": "0000000065842f62bc7b048e44b9c89480f6431210a8b88dea5ae09de4be4eb9",
  "confirmations": 47186,
  "height": 5912,
  "version": 1,
  "versionHex": "00000001",
  "merkleroot": "fe90e9168aa7f9ae542a5d9790428637b623c971ecaf02600e3cc1fa449b714a",
  "time": 1235853726,
  "mediantime": 1235849287,
  "nonce": 2753102107,
  "bits": "1d00ffff",
  "difficulty": 1,
  "chainwork": "0000000000000000000000000000000000000000000000000000171917191719",
  "nTx": 1,
  "previousblockhash": "0000000026fecef114825fdf9442e3e7b435488dbcc21817c23ee075fc246283",
  "nextblockhash": "00000000911e4a0cbf43b8800354c244ef35c58016db0d767246032c3ac6796f",
  "strippedsize": 216,
  "size": 216,
  "weight": 864,
  "tx": [
    {
      "txid": "fe90e9168aa7f9ae542a5d9790428637b623c971ecaf02600e3cc1fa449b714a",
      "hash": "fe90e9168aa7f9ae542a5d9790428637b623c971ecaf02600e3cc1fa449b714a",
      "version": 1,
      "size": 135,
      "vsize": 135,
      "weight": 540,
      "locktime": 0,
      "vin": [
        {
          "coinbase": "04ffff001d023503",
          "sequence": 4294967295
        }
      ],
      "vout": [
        {
          "value": 50.0,
          "n": 0,
          "scriptPubKey": {
            "asm": "049e9f8105e04a5ef8d7f8d3475495716643a6c5e2b315f0c0e05f3ce83a0c0b542b90f6eafed81ad055abefbcbf28d5d86def20c999de44d0bdbba5a342a2eb98 OP_CHECKSIG",
            "desc": "pk(049e9f8105e04a5ef8d7f8d3475495716643a6c5e2b315f0c0e05f3ce83a0c0b542b90f6eafed81ad055abefbcbf28d5d86def20c999de44d0bdbba5a342a2eb98)#6rw6k4ue",
            "hex": "41049e9f8105e04a5ef8d7f8d3475495716643a6c5e2b315f0c0e05f3ce83a0c0b542b90f6eafed81ad055abefbcbf28d5d86def20c999de44d0bdbba5a342a2eb98ac",
            "type": "pubkey"
          }
        }
      ],
      "hex": "01000000010000000000000000000000000000000000000000000000000000000000000000ffffffff0804ffff001d023503ffffffff0100f2052a010000004341049e9f8105e04a5ef8d7f8d3475495716643a6c5e2b315f0c0e05f3ce83a0c0b542b90f6eafed81ad055abefbcbf28d5d86def20c999de44d0bdbba5a342a2eb98ac00000000"
    }
  ]
}