{
  "hash": "0000000020ea3ceb62f0b425889186f80144f92280f3fef2175752d9091f4c7a",
  "confirmations": 48269,
  "height": 4829,
  "version": 1,
  "versionHex": "00000001",
  "merkleroot": "b081d313046fb7ecdb4f67e2c482236fb2cb2025b11fad8f87a2cf51de024fd1",
  "time": 1235019163,
  "mediantime": 1235016081,
  "nonce": 2637433878,
  "bits": "1d00ffff",
  "difficulty": 1,
  "chainwork": "000000000000000000000000000000000000000000000000000012de12de12de",
  "nTx": 1,
  "previousblockhash": "00000000a0f48cdf9e763911cee38b24f391cf3b492697e93671d1528d91fe88",
  "nextblockhash": "00000000472951823184b31dba0c03b0cf77601076897030fcb03ec8302bda14",
  "strippedsize": 216,
  "size": 216,
  "weight": 864,
  "tx": [
    {
      "txid": "b081d313046fb7ecdb4f67e2c482236fb2cb2025b11fad8f87a2cf51de024fd1",
      "hash": "b081d313046fb7ecdb4f67e2c482236fb2cb2025b11fad8f87a2cf51de024fd1",
      "version": 1,
      "size": 135,
      "vsize": 135,
      "weight": 540,
      "locktime": 0,
      "vin": [
        {
          "coinbase": "04ffff001d02b204",
          "sequence": 4294967295
        }
      ],
      "vout": [
        {
          "value": 50.0,
          "n": 0,
          "scriptPubKey": {
            "asm": "040eade594d1368bc1cd9ef235663d55379a5b138d47ad97b76d4283760527b5bd540748bd06982b1d0cf3e7cf80d24a3019672e5f246faca93f84514621c346a2 OP_CHECKSIG",
            "desc": "pk(040eade594d1368bc1cd9ef235663d55379a5b138d47ad97b76d4283760527b5bd540748bd06982b1d0cf3e7cf80d24a3019672e5f246faca93f84514621c346a2)#etvqustx",
            "hex": "41040eade594d1368bc1cd9ef235663d55379a5b138d47ad97b76d4283760527b5bd540748bd06982b1d0cf3e7cf80d24a3019672e5f246faca93f84514621c346a2ac",
            "type": "pubkey"
          }
        }
      ],
      "hex": "01000000010000000000000000000000000000000000000000000000000000000000000000ffffffff0804ffff001d02b204ffffffff0100f2052a010000004341040eade594d1368bc1cd9ef235663d55379a5b138d47ad97b76d4283760527b5bd540748bd06982b1d0cf3e7cf80d24a3019672e5f246faca93f84514621c346a2ac00000000"
    }
  ]
}