{
  "hash": "00000000103d8fdbf787e5863e15311de52d3aa924f1e93e80eb7552164b958b",
  "confirmations": 47232,
  "height": 5866,
  "version": 1,
  "versionHex": "00000001",
  "merkleroot": "63ba0ce53916b6aa1835a5f36df37027ded3e8c85ea9a98b58d42f12ee7a05d6",
  "time": 1235813639,
  "mediantime": 1235810203,
  "nonce": 397460510,
  "bits": "1d00ffff",
  "difficulty": 1,
  "chainwork": "000000000000000000000000000000000000000000000000000016eb16eb16eb",
  "nTx": 1,
  "previousblockhash": "000000000c632c30f3f4adf7c1cc5f1377fe2d04369aaef23e59720aeefc1233",
  "nextblockhash": "0000000099944783286a0d443b6ae43b177af9c85cd45174a3e4d3b15e1681f8",
  "strippedsize": 216,
  "size": 216,
  "weight": 864,
  "tx": [
    {
      "txid": "63ba0ce53916b6aa1835a5f36df37027ded3e8c85ea9a98b58d42f12ee7a05d6",
      "hash": "63ba0ce53916b6aa1835a5f36df37027ded3e8c85ea9a98b58d42f12ee7a05d6",
      "version": 1,
      "size": 135,
      "vsize": 135,
      "weight": 540,
      "locktime": 0,
      "vin": [
        {
          "coinbase": "04ffff001d023c02",
          "sequence": 4294967295
        }
      ],
      "vout": [
        {
          "value": 50.0,
          "n": 0,
          "scriptPubKey": {
            "asm": "040e4339211cc1fc6b7f82e7205b39296673b5636741fa47175e00766d16125454345ada32c321a8966a0d46ab9374c7accd08e88e5610fd00a76ba994eb13ec97 OP_CHECKSIG",
            "desc": "pk(040e4339211cc1fc6b7f82e7205b39296673b5636741fa47175e00766d16125454345ada32c321a8966a0d46ab9374c7accd08e88e5610fd00a76ba994eb13ec97)#tlpqujd4",
            "hex": "41040e4339211cc1fc6b7f82e7205b39296673b5636741fa47175e00766d16125454345ada32c321a8966a0d46ab9374c7accd08e88e5610fd00a76ba994eb13ec97ac",
            "type": "pubkey"
          }
        }
      ],
      "hex": "01000000010000000000000000000000000000000000000000000000000000000000000000ffffffff0804ffff001d023c02ffffffff0100f2052a010000004341040e4339211cc1fc6b7f82e7205b39296673b5636741fa47175e00766d16125454345ada32c321a8966a0d46ab9374c7accd08e88e5610fd00a76ba994eb13ec97ac00000000"
    }
  ]
}