{
  "hash": "000000009392d9a7a8306f7db4ae4fabb840922df4d113f56d9d46fbd3155e53",
  "confirmations": 47150,
  "height": 5948,
  "version": 1,
  "versionHex": "00000001",
  "merkleroot": "49e0215434ff51fd3c9bef59da013c9c93d628000deeb355e4b16d84bb693870",
  "time": 1235887207,
  "mediantime": 1235883599,
  "nonce": 34765357,
  "bits": "1d00ffff",
  "difficulty": 1,
  "chainwork": "0000000000000000000000000000000000000000000000000000173d173d173d",
  "nTx": 1,
  "previousblockhash": "000000005c215aea3901227d55e7e9957b0e79fc49d4c70d5b75846a8667d403",
  "nextblockhash": "000000008af13771c9ceca42ae1d893adfff4216ed036690a8908c01d663b9f1",
  "strippedsize": 216,
  "size": 216,
  "weight": 864,
  "tx": [
    {
      "txid": "49e0215434ff51fd3c9bef59da013c9c93d628000deeb355e4b16d84bb693870",
      "hash": "49e0215434ff51fd3c9bef59da013c9c93d628000deeb355e4b16d84bb693870",
      "version": 1,
      "size": 135,
      "vsize": 135,
      "weight": 540,
      "locktime": 0,
      "vin": [
        {
          "coinbase": "04ffff001d02f603",
          "sequence": 4294967295
        }
      ],
      "vout": [
        {
          "value": 50.0,
          "n": 0,
          "scriptPubKey": {
            "asm": "040703c8ae1ad6cc4f4c3fc4596279b934af7a69ccf72341dccc8c9d6e3e5f44f91dc479ecbd2b81084f7f72ed8f68c7031822e95070e5a72de0f91eeaae5baf06 OP_CHECKSIG",
            "desc": "pk(040703c8ae1ad6cc4f4c3fc4596279b934af7a69ccf72341dccc8c9d6e3e5f44f91dc479ecbd2b81084f7f72ed8f68c7031822e95070e5a72de0f91eeaae5baf06)#trn3863g",
            "hex": "41040703c8ae1ad6cc4f4c3fc4596279b934af7a69ccf72341dccc8c9d6e3e5f44f91dc479ecbd2b81084f7f72ed8f68c7031822e95070e5a72de0f91eeaae5baf06ac",
            "type": "pubkey"
          }
        }
      ],
      "hex": "01000000010000000000000000000000000000000000000000000000000000000000000000ffffffff0804ffff001d02f603ffffffff0100f2052a010000004341040703c8ae1ad6cc4f4c3fc4596279b934af7a69ccf72341dccc8c9d6e3e5f44f91dc479ecbd2b81084f7f72ed8f68c7031822e95070e5a72de0f91eeaae5baf06ac00000000"
    }
  ]
}