{
  "hash": "00000000a71267a0e0df7af9e09fc3da51d6ab82150c13ccce98bbcbba560a86",
  "confirmations": 43636,
  "height": 9462,
  "version": 1,
  "versionHex": "00000001",
  "merkleroot": "a464db48d85a1e382a97d83c0f7d98d520296562f398c707772e338892519c91",
  "time": 1238601437,
  "mediantime": 1238598302,
  "nonce": 220293783,
  "bits": "1d00ffff",
  "difficulty": 1,
  "chainwork": "000000000000000000000000000000000000000000000000000024f724f724f7",
  "nTx": 1,
  "previousblockhash": "00000000f662b4d022641b61705fd966ca2f7aac65bea9ab49d202177a9b5a1f",
  "nextblockhash": "000000006996eb82f552752f4a82c86769fad132f8367bddac0b3197888f0a78",
  "strippedsize": 215,
  "size": 215,
  "weight": 860,
  "tx": [
    {
      "txid": "a464db48d85a1e382a97d83c0f7d98d520296562f398c707772e338892519c91",
      "hash": "a464db48d85a1e382a97d83c0f7d98d520296562f398c707772e338892519c91",
      "version": 1,
      "size": 134,
      "vsize": 134,
      "weight": 536,
      "locktime": 0,
      "vin": [
        {
          "coinbase": "04ffff001d012d",
          "sequence": 4294967295
        }
      ],
      "vout": [
        {
          "value": 50.0,
          "n": 0,
          "scriptPubKey": {
            "asm": "048f17b8a0fa328637a94bbeb538f2e29c2439385a841cbf3fd2e8c89bce47cd6e28868ec547addd6a64e87adc1adbcaee87615b1bc1c2baa7aeaa66cedd8d7315 OP_CHECKSIG",
            "desc": "pk(048f17b8a0fa328637a94bbeb538f2e29c2439385a841cbf3fd2e8c89bce47cd6e28868ec547addd6a64e87adc1adbcaee87615b1bc1c2baa7aeaa66cedd8d7315)#ea59ffr7",
            "hex": "41048f17b8a0fa328637a94bbeb538f2e29c2439385a841cbf3fd2e8c89bce47cd6e28868ec547addd6a64e87adc1adbcaee87615b1bc1c2baa7aeaa66cedd8d7315ac",
            "type": "pubkey"
          }
        }
      ],
      "hex": "01000000010000000000000000000000000000000000000000000000000000000000000000ffffffff0704ffff001d012dffffffff0100f2052a010000004341048f17b8a0fa328637a94bbeb538f2e29c2439385a841cbf3fd2e8c89bce47cd6e28868ec547addd6a64e87adc1adbcaee87615b1bc1c2baa7aeaa66cedd8d7315ac00000000"
    }
  ]
}