{
  "hash": "00000000465dc167ac110e087e67e35e30d54e558fbfe53c8136e9afb9b1e1fc",
  "confirmations": 49032,
  "height": 4066,
  "version": 1,
  "versionHex": "00000001",
  "merkleroot": "c5d1c3c92892a4c8d33ac741441c733c8124763be6d7d758afcff97ac6aaa836",
  "time": 1234489440,
  "mediantime": 1234484398,
  "nonce": 133462400,
  "bits": "1d00ffff",
  "difficulty": 1,
  "chainwork": "00000000000000000000000000000000000000000000000000000fe30fe30fe3",
  "nTx": 1,
  "previousblockhash": "00000000c047ccfc3f30c0a3ba8721f734f99b65b2a1501d3de25d6e6dbb9fb2",
  "nextblockhash": "000000001954f619765a4dbdf8b50c507e02b6bb6dfd0a4d5fb71cc6f2d10887",
  "strippedsize": 216,
  "size": 216,
  "weight": 864,
  "tx": [
    {
      "txid": "c5d1c3c92892a4c8d33ac741441c733c8124763be6d7d758afcff97ac6aaa836",
      "hash": "c5d1c3c92892a4c8d33ac741441c733c8124763be6d7d758afcff97ac6aaa836",
      "version": 1,
      "size": 135,
      "vsize": 135,
      "weight": 540,
      "locktime": 0,
      "vin": [
        {
          "coinbase": "04ffff001d027608",
          "sequence": 4294967295
        }
      ],
      "vout": [
        {
          "value": 50.0,
          "n": 0,
          "scriptPubKey": {
            "asm": "04e369608b2e2d8aaad9dc2e626dc2a2c16c34a4f95f6dbd31f5765e0cbeb45f96ef6ea2d60ea7f0e92114cf6ad7a69fa7e47fc6fc2153cea1934b87e9cb16c450 OP_CHECKSIG",
            "desc": "pk(04e369608b2e2d8aaad9dc2e626dc2a2c16c34a4f95f6dbd31f5765e0cbeb45f96ef6ea2d60ea7f0e92114cf6ad7a69fa7e47fc6fc2153cea1934b87e9cb16c450)#9p57aq2t",
            "hex": "4104e369608b2e2d8aaad9dc2e626dc2a2c16c34a4f95f6dbd31f5765e0cbeb45f96ef6ea2d60ea7f0e92114cf6ad7a69fa7e47fc6fc2153cea1934b87e9cb16c450ac",
            "type": "pubkey"
          }
        }
      ],
      "hex": "01000000010000000000000000000000000000000000000000000000000000000000000000ffffffff0804ffff001d027608ffffffff0100f2052a01000000434104e369608b2e2d8aaad9dc2e626dc2a2c16c34a4f95f6dbd31f5765e0cbeb45f96ef6ea2d60ea7f0e92114cf6ad7a69fa7e47fc6fc2153cea1934b87e9cb16c450ac00000000"
    }
  ]
}