{
  "hash": "00000000188807140be26e081e596a8212ba14495158f13c8dce03a4d7315fa1",
  "confirmations": 52465,
  "height": 633,
  "version": 1,
  "versionHex": "00000001",
  "merkleroot": "336e7ed6974b3a7311183c17ad195d99b9a67c0be8e39c0d07cdf7f692b4ae68",
  "time": 1232058216,
  "mediantime": 1232054999,
  "nonce": 142963459,
  "bits": "1d00ffff",
  "difficulty": 1,
  "chainwork": "0000000000000000000000000000000000000000000000000000027a027a027a",
  "nTx": 1,
  "previousblockhash": "00000000ad2ac1c66306f65080200104623cb0c32f7e52c23886f2909e298e06",
  "nextblockhash": "000000005a20199b7f8bd8c707171e792b2ca84b9eedc9a2483b7d3545d5e44c",
  "strippedsize": 216,
  "size": 216,
  "weight": 864,
  "tx": [
    {
      "txid": "336e7ed6974b3a7311183c17ad195d99b9a67c0be8e39c0d07cdf7f692b4ae68",
      "hash": "336e7ed6974b3a7311183c17ad195d99b9a67c0be8e39c0d07cdf7f692b4ae68",
      "version": 1,
      "size": 135,
      "vsize": 135,
      "weight": 540,
      "locktime": 0,
      "vin": [
        {
          "coinbase": "04ffff001d022907",
          "sequence": 4294967295
        }
      ],
      "vout": [
        {
          "value": 50.0,
          "n": 0,
          "scriptPubKey": {
            "asm": "0411e4d736a4e4b18131946bce5f7deefd2cee55f4bfe70b5137df3544638ef1560dd8e8cdd355cef1a833053f1db79b225bc4ff213edd96c7f8b5849780def3d6 OP_CHECKSIG",
            "desc": "pk(0411e4d736a4e4b18131946bce5f7deefd2cee55f4bfe70b5137df3544638ef1560dd8e8cdd355cef1a833053f1db79b225bc4ff213edd96c7f8b5849780def3d6)#ecclh0zz",
            "hex": "410411e4d736a4e4b18131946bce5f7deefd2cee55f4bfe70b5137df3544638ef1560dd8e8cdd355cef1a833053f1db79b225bc4ff213edd96c7f8b5849780def3d6ac",
            "type": "pubkey"
          }
        }
      ],
      "hex": "01000000010000000000000000000000000000000000000000000000000000000000000000ffffffff0804ffff001d022907ffffffff0100f2052a0100000043410411e4d736a4e4b18131946bce5f7deefd2cee55f4bfe70b5137df3544638ef1560dd8e8cdd355cef1a833053f1db79b225bc4ff213edd96c7f8b5849780def3d6ac00000000"
    }
  ]
}