{
  "hash": "000000009991f8bc01ed43fab8f85ad79c6b7450034b1a24ea3888028420d441",
  "confirmations": 49105,
  "height": 3993,
  "version": 1,
  "versionHex": "00000001",
  "merkleroot": "647f4c3c0f728c801ee6118ea1bd65e9e09ff9d43e6853b5d9c102b5d0b5918e",
  "time": 1234434615,
  "mediantime": 1234432142,
  "nonce": 4011322418,
  "bits": "1d00ffff",
  "difficulty": 1,
  "chainwork": "00000000000000000000000000000000000000000000000000000f9a0f9a0f9a",
  "nTx": 1,
  "previousblockhash": "00000000a7181892f2bdd8ac05da6556f9dec1c2fe78daf94a312df336cb1139",
  "nextblockhash": "0000000044c8b432e9e66e7d9ecc780b78d5a7ed3c26ca2ce77bf4fd791ebc0b",
  "strippedsize": 216,
  "size": 216,
  "weight": 864,
  "tx": [
    {
      "txid": "647f4c3c0f728c801ee6118ea1bd65e9e09ff9d43e6853b5d9c102b5d0b5918e",
      "hash": "647f4c3c0f728c801ee6118ea1bd65e9e09ff9d43e6853b5d9c102b5d0b5918e",
      "version": 1,
      "size": 135,
      "vsize": 135,
      "weight": 540,
      "locktime": 0,
      "vin": [
        {
          "coinbase": "04ffff001d022904",
          "sequence": 4294967295
        }
      ],
      "vout": [
        {
          "value": 50.0,
          "n": 0,
          "scriptPubKey": {
            "asm": "0407939620a81a07b71c087e802e210f4380d026f4061353980554de9a547aee9ea1a623c04a852d0c420eda4c83a2366fb433680f216de6455bc1b9ebcbb18e31 OP_CHECKSIG",
            "desc": "pk(0407939620a81a07b71c087e802e210f4380d026f4061353980554de9a547aee9ea1a623c04a852d0c420eda4c83a2366fb433680f216de6455bc1b9ebcbb18e31)#sjptxmld",
            "hex": "410407939620a81a07b71c087e802e210f4380d026f4061353980554de9a547aee9ea1a623c04a852d0c420eda4c83a2366fb433680f216de6455bc1b9ebcbb18e31ac",
            "type": "pubkey"
          }
        }
      ],
      "hex": "01000000010000000000000000000000000000000000000000000000000000000000000000ffffffff0804ffff001d022904ffffffff0100f2052a0100000043410407939620a81a07b71c087e802e210f4380d026f4061353980554de9a547aee9ea1a623c04a852d0c420eda4c83a2366fb433680f216de6455bc1b9ebcbb18e31ac00000000"
    }
  ]
}