{
  "hash": "00000000497f464b2383ddcba50538a0c48c2c2b04886186844e8b8e42f98bca",
  "confirmations": 46153,
  "height": 6945,
  "version": 1,
  "versionHex": "00000001",
  "merkleroot": "cb817ccf08ae4c0ec45674730ce225ee154e51dad3f4b63bc25d52f08172edf7",
  "time": 1236675989,
  "mediantime": 1236669737,
  "nonce": 2184230428,
  "bits": "1d00ffff",
  "difficulty": 1,
  "chainwork": "00000000000000000000000000000000000000000000000000001b221b221b22",
  "nTx": 1,
  "previousblockhash": "0000000083321015e00bbcc43d3606d4313f83c02dc1a793676822d2cd223ff1",
  "nextblockhash": "00000000ef1c8ded48197dcd5e54e06eb012eebf194e01111fd49de8caeb8546",
  "strippedsize": 216,
  "size": 216,
  "weight": 864,
  "tx": [
    {
      "txid": "cb817ccf08ae4c0ec45674730ce225ee154e51dad3f4b63bc25d52f08172edf7",
      "hash": "cb817ccf08ae4c0ec45674730ce225ee154e51dad3f4b63bc25d52f08172edf7",
      "version": 1,
      "size": 135,
      "vsize": 135,
      "weight": 540,
      "locktime": 0,
      "vin": [
        {
          "coinbase": "04ffff001d024201",
          "sequence": 4294967295
        }
      ],
      "vout": [
        {
          "value": 50.0,
          "n": 0,
          "scriptPubKey": {
            "asm": "0493e850a55530b1655055f31f9433352eaa08836560b9df8a92ceb5525e16bec046dcc1b52269d37a3d035da5504a1e5a60af7b3a550cf103b0b32dd0a7610870 OP_CHECKSIG",
            "desc": "pk(0493e850a55530b1655055f31f9433352eaa08836560b9df8a92ceb5525e16bec046dcc1b52269d37a3d035da5504a1e5a60af7b3a550cf103b0b32dd0a7610870)#4ss7yqjx",
            "hex": "410493e850a55530b1655055f31f9433352eaa08836560b9df8a92ceb5525e16bec046dcc1b52269d37a3d035da5504a1e5a60af7b3a550cf103b0b32dd0a7610870ac",
            "type": "pubkey"
          }
        }
      ],
      "hex": "01000000010000000000000000000000000000000000000000000000000000000000000000ffffffff0804ffff001d024201ffffffff0100f2052a0100000043410493e850a55530b1655055f31f9433352eaa08836560b9df8a92ceb5525e16bec046dcc1b52269d37a3d035da5504a1e5a60af7b3a550cf103b0b32dd0a7610870ac00000000"
    }
  ]
}