{
  "hash": "0000000019778aeb88ca3218c0c400a9ec8941071d4c441ac3ee57954b3025e4",
  "confirmations": 43932,
  "height": 9166,
  "version": 1,
  "versionHex": "00000001",
  "merkleroot": "5f72ffacb9cc16adff1e69efb1fde844731bd38b86a546f023b1509f020cfa1d",
  "time": 1238376393,
  "mediantime": 1238372121,
  "nonce": 1409101315,
  "bits": "1d00ffff",
  "difficulty": 1,
  "chainwork": "000000000000000000000000000000000000000000000000000023cf23cf23cf",
  "nTx": 1,
  "previousblockhash": "00000000f882479c6dde4f383a80754b7c95a9587374ca0dc80a95b45ffabc7d",
  "nextblockhash": "000000001c77a7c7631f4c6ad357b620492a81bee8031f9296f9c6626b2f499d",
  "strippedsize": 216,
  "size": 216,
  "weight": 864,
  "tx": [
    {
      "txid": "5f72ffacb9cc16adff1e69efb1fde844731bd38b86a546f023b1509f020cfa1d",
      "hash": "5f72ffacb9cc16adff1e69efb1fde844731bd38b86a546f023b1509f020cfa1d",
      "version": 1,
      "size": 135,
      "vsize": 135,
      "weight": 540,
      "locktime": 0,
      "vin": [
        {
          "coinbase": "04ffff001d02aa09",
          "sequence": 4294967295
        }
      ],
      "vout": [
        {
          "value": 50.0,
          "n": 0,
          "scriptPubKey": {
            "asm": "0403adcf1340f88a2b69180eb211c736472a85187a156e491640edf54f40fd87d831b99aeeb2c39a3d3604d8db604bc660933b979edb92df0ed1bb477e12ebeffd OP_CHECKSIG",
            "desc": "pk(0403adcf1340f88a2b69180eb211c736472a85187a156e491640edf54f40fd87d831b99aeeb2c39a3d3604d8db604bc660933b979edb92df0ed1bb477e12ebeffd)#fkajy78l",
            "hex": "410403adcf1340f88a2b69180eb211c736472a85187a156e491640edf54f40fd87d831b99aeeb2c39a3d3604d8db604bc660933b979edb92df0ed1bb477e12ebeffdac",
            "type": "pubkey"
          }
        }
      ],
      "hex": "01000000010000000000000000000000000000000000000000000000000000000000000000ffffffff0804ffff001d02aa09ffffffff0100f2052a0100000043410403adcf1340f88a2b69180eb211c736472a85187a156e491640edf54f40fd87d831b99aeeb2c39a3d3604d8db604bc660933b979edb92df0ed1bb477e12ebeffdac00000000"
    }
  ]
}