{
  "hash": "000000001a8ba6a0c8a7ffcd81b1611c3d383b1d8d4b58ff48053be236daa789",
  "confirmations": 46462,
  "height": 6636,
  "version": 1,
  "versionHex": "00000001",
  "merkleroot": "0c884d0e2c256871e9ca9d4d9499c42258b41f80f6dba3601d395cb7d749c0c2",
  "time": 1236431542,
  "mediantime": 1236427112,
  "nonce": 2351211574,
  "bits": "1d00ffff",
  "difficulty": 1,
  "chainwork": "000000000000000000000000000000000000000000000000000019ed19ed19ed",
  "nTx": 1,
  "previousblockhash": "00000000bb012e27be51fa0f564112682689c023690125d160d93da8cf1f18ff",
  "nextblockhash": "00000000d85f22d6e6cbaf3588b8b0b31d7d563220d29e15e561b5fbc60b3e4f",
  "strippedsize": 216,
  "size": 216,
  "weight": 864,
  "tx": [
    {
      "txid": "0c884d0e2c256871e9ca9d4d9499c42258b41f80f6dba3601d395cb7d749c0c2",
      "hash": "0c884d0e2c256871e9ca9d4d9499c42258b41f80f6dba3601d395cb7d749c0c2",
      "version": 1,
      "size": 135,
      "vsize": 135,
      "weight": 540,
      "locktime": 0,
      "vin": [
        {
          "coinbase": "04ffff001d02cb05",
          "sequence": 4294967295
        }
      ],
      "vout": [
        {
          "value": 50.0,
          "n": 0,
          "scriptPubKey": {
            "asm": "0472ccd8279ca5d58bdd127edb5a1f82d6495e99d2f96bb54a72229b55f0d262e6d06ea1585f4b3a02e1f77f0fbc92f440d0a737e8f8af3002c0da6053aa82cb8e OP_CHECKSIG",
            "desc": "pk(0472ccd8279ca5d58bdd127edb5a1f82d6495e99d2f96bb54a72229b55f0d262e6d06ea1585f4b3a02e1f77f0fbc92f440d0a737e8f8af3002c0da6053aa82cb8e)#7aqmpe4r",
            "hex": "410472ccd8279ca5d58bdd127edb5a1f82d6495e99d2f96bb54a72229b55f0d262e6d06ea1585f4b3a02e1f77f0fbc92f440d0a737e8f8af3002c0da6053aa82cb8eac",
            "type": "pubkey"
          }
        }
      ],
      "hex": "01000000010000000000000000000000000000000000000000000000000000000000000000ffffffff0804ffff001d02cb05ffffffff0100f2052a0100000043410472ccd8279ca5d58bdd127edb5a1f82d6495e99d2f96bb54a72229b55f0d262e6d06ea1585f4b3a02e1f77f0fbc92f440d0a737e8f8af3002c0da6053aa82cb8eac00000000"
    }
  ]
}