{
  "hash": "00000000563679ac0304f948a6a515b06077b3b6ef118036d9dbe4ef32122597",
  "confirmations": 52445,
  "height": 653,
  "version": 1,
  "versionHex": "00000001",
  "merkleroot": "7f49a5f3366bbeb8b66658df0dd7330fe289c12d09761816f2a946eaba267add",
  "time": 1232070880,
  "mediantime": 1232067816,
  "nonce": 2721698840,
  "bits": "1d00ffff",
  "difficulty": 1,
  "chainwork": "0000000000000000000000000000000000000000000000000000028e028e028e",
  "nTx": 1,
  "previousblockhash": "000000008e1bd9998d126a037a31e20c2be174f6c760ba32d1cfe2498f570cc7",
  "nextblockhash": "00000000f977441badb36a6bbac2057f7c6464dea83fabde00636803ae536534",
  "strippedsize": 216,
  "size": 216,
  "weight": 864,
  "tx": [
    {
      "txid": "7f49a5f3366bbeb8b66658df0dd7330fe289c12d09761816f2a946eaba267add",
      "hash": "7f49a5f3366bbeb8b66658df0dd7330fe289c12d09761816f2a946eaba267add",
      "version": 1,
      "size": 135,
      "vsize": 135,
      "weight": 540,
      "locktime": 0,
      "vin": [
        {
          "coinbase": "04ffff001d028e07",
          "sequence": 4294967295
        }
      ],
      "vout": [
        {
          "value": 50.0,
          "n": 0,
          "scriptPubKey": {
            "asm": "04bb88c71204ee63aba0dd121556949b28641204c7b2fde598b8a0d0995aa451886a7dd8981d6e66a13d119b90baa9c27df83823f8b28785fcf94d4fe48582fc70 OP_CHECKSIG",
            "desc": "pk(04bb88c71204ee63aba0dd121556949b28641204c7b2fde598b8a0d0995aa451886a7dd8981d6e66a13d119b90baa9c27df83823f8b28785fcf94d4fe48582fc70)#avew2m97",
            "hex": "4104bb88c71204ee63aba0dd121556949b28641204c7b2fde598b8a0d0995aa451886a7dd8981d6e66a13d119b90baa9c27df83823f8b28785fcf94d4fe48582fc70ac",
            "type": "pubkey"
          }
        }
      ],
      "hex": "01000000010000000000000000000000000000000000000000000000000000000000000000ffffffff0804ffff001d028e07ffffffff0100f2052a01000000434104bb88c71204ee63aba0dd121556949b28641204c7b2fde598b8a0d0995aa451886a7dd8981d6e66a13d119b90baa9c27df83823f8b28785fcf94d4fe48582fc70ac00000000"
    }
  ]
}