{
  "hash": "00000000af59b841c5484dc334be66c7f5c8de6714f2bede973444f189d08de0",
  "confirmations": 47488,
  "height": 5610,
  "version": 1,
  "versionHex": "00000001",
  "merkleroot": "8e71e36d4f2ac8e48ed2c2d8c4fe277c3874a60b228bbe436692bb5c492587e1",
  "time": 1235611957,
  "mediantime": 1235608666,
  "nonce": 1579509558,
  "bits": "1d00ffff",
  "difficulty": 1,
  "chainwork": "000000000000000000000000000000000000000000000000000015eb15eb15eb",
  "nTx": 1,
  "previousblockhash": "00000000c89dcb7be2686b3e3e7b20244ae3c02cd18cc8e42bbdd247472802b4",
  "nextblockhash": "00000000fd4cc74ad1b37f149dfe5913118d1d8f457add57209fa14793a8d1c4",
  "strippedsize": 216,
  "size": 216,
  "weight": 864,
  "tx": [
    {
      "txid": "8e71e36d4f2ac8e48ed2c2d8c4fe277c3874a60b228bbe436692bb5c492587e1",
      "hash": "8e71e36d4f2ac8e48ed2c2d8c4fe277c3874a60b228bbe436692bb5c492587e1",
      "version": 1,
      "size": 135,
      "vsize": 135,
      "weight": 540,
      "locktime": 0,
      "vin": [
        {
          "coinbase": "04ffff001d02c807",
          "sequence": 4294967295
        }
      ],
      "vout": [
        {
          "value": 50.0,
          "n": 0,
          "scriptPubKey": {
            "asm": "0423a823bd3afdfcd5c552393e44e5a6af9ddb5f3cb86992027ee359997b62e88a849bd56e0a70b1695b4fca9cc23fb29549feb2878ae4d1a3bc5da335719f5ef1 OP_CHECKSIG",
            "desc": "pk(0423a823bd3afdfcd5c552393e44e5a6af9ddb5f3cb86992027ee359997b62e88a849bd56e0a70b1695b4fca9cc23fb29549feb2878ae4d1a3bc5da335719f5ef1)#yjh0ttrp",
            "hex": "410423a823bd3afdfcd5c552393e44e5a6af9ddb5f3cb86992027ee359997b62e88a849bd56e0a70b1695b4fca9cc23fb29549feb2878ae4d1a3bc5da335719f5ef1ac",
            "type": "pubkey"
          }
        }
      ],
      "hex": "01000000010000000000000000000000000000000000000000000000000000000000000000ffffffff0804ffff001d02c807ffffffff0100f2052a0100000043410423a823bd3afdfcd5c552393e44e5a6af9ddb5f3cb86992027ee359997b62e88a849bd56e0a70b1695b4fca9cc23fb29549feb2878ae4d1a3bc5da335719f5ef1ac00000000"
    }
  ]
}