{
  "hash": "00000000a6031e902c3cb08d4988b0d06d25c85ebb13f43a6afd12b759d21df8",
  "confirmations": 46777,
  "height": 6321,
  "version": 1,
  "versionHex": "00000001",
  "merkleroot": "4258ca04f8f9e76276711383198014b06185091362e9953c92df5d20e9d77a9e",
  "time": 1236189624,
  "mediantime": 1236183799,
  "nonce": 3345873416,
  "bits": "1d00ffff",
  "difficulty": 1,
  "chainwork": "000000000000000000000000000000000000000000000000000018b218b218b2",
  "nTx": 1,
  "previousblockhash": "000000003481ff5d71910856ce839f5941e659ec472297aef821489bc368d3ea",
  "nextblockhash": "00000000328db608ed96a69e2d34f51fb39505eae2e7f6dcf298e00a20ba33ac",
  "strippedsize": 215,
  "size": 215,
  "weight": 860,
  "tx": [
    {
      "txid": "4258ca04f8f9e76276711383198014b06185091362e9953c92df5d20e9d77a9e",
      "hash": "4258ca04f8f9e76276711383198014b06185091362e9953c92df5d20e9d77a9e",
      "version": 1,
      "size": 134,
      "vsize": 134,
      "weight": 536,
      "locktime": 0,
      "vin": [
        {
          "coinbase": "04ffff001d0177",
          "sequence": 4294967295
        }
      ],
      "vout": [
        {
          "value": 50.0,
          "n": 0,
          "scriptPubKey": {
            "asm": "041cb608ef7bba73edf44fdcbde1b6aa91dfcb59dbd301fd2d0e676c55869440f97a48aae806aca7c3b9fe9734f40bad0862dd48189087ca608a719df875db2937 OP_CHECKSIG",
            "desc": "pk(041cb608ef7bba73edf44fdcbde1b6aa91dfcb59dbd301fd2d0e676c55869440f97a48aae806aca7c3b9fe9734f40bad0862dd48189087ca608a719df875db2937)#mngpe5uy",
            "hex": "41041cb608ef7bba73edf44fdcbde1b6aa91dfcb59dbd301fd2d0e676c55869440f97a48aae806aca7c3b9fe9734f40bad0862dd48189087ca608a719df875db2937ac",
            "type": "pubkey"
          }
        }
      ],
      "hex": "01000000010000000000000000000000000000000000000000000000000000000000000000ffffffff0704ffff001d0177ffffffff0100f2052a010000004341041cb608ef7bba73edf44fdcbde1b6aa91dfcb59dbd301fd2d0e676c55869440f97a48aae806aca7c3b9fe9734f40bad0862dd48189087ca608a719df875db2937ac00000000"
    }
  ]
}