{
  "hash": "0000000017e80cb6eda62df393a0921fcd5e4fa0b05d1c497a517dd993843be8",
  "confirmations": 46392,
  "height": 6706,
  "version": 1,
  "versionHex": "00000001",
  "merkleroot": "db159e6509d65ffa0274be4d6862dd95b0d746eaed4b28a7d9140e0a8fac86e8",
  "time": 1236487772,
  "mediantime": 1236483592,
  "nonce": 1187245085,
  "bits": "1d00ffff",
  "difficulty": 1,
  "chainwork": "00000000000000000000000000000000000000000000000000001a331a331a33",
  "nTx": 1,
  "previousblockhash": "00000000ab4e46054adea7301e07e786b0207d34c565b52c7cffe89e71cefc18",
  "nextblockhash": "0000000095f086ab3e55bd178474021ab170557040a1abc306ae24c311973008",
  "strippedsize": 216,
  "size": 216,
  "weight": 864,
  "tx": [
    {
      "txid": "db159e6509d65ffa0274be4d6862dd95b0d746eaed4b28a7d9140e0a8fac86e8",
      "hash": "db159e6509d65ffa0274be4d6862dd95b0d746eaed4b28a7d9140e0a8fac86e8",
      "version": 1,
      "size": 135,
      "vsize": 135,
      "weight": 540,
      "locktime": 0,
      "vin": [
        {
          "coinbase": "04ffff001d023007",
          "sequence": 4294967295
        }
      ],
      "vout": [
        {
          "value": 50.0,
          "n": 0,
          "scriptPubKey": {
            "asm": "048eec31db779f5e783d47620068e40a3d75e6dd06860a82ead2f8ce8a010716f2f170255eab7fce4601acd0ec0aaeb9354cc4f0641feb8d94c966033b76c77787 OP_CHECKSIG",
            "desc": "pk(048eec31db779f5e783d47620068e40a3d75e6dd06860a82ead2f8ce8a010716f2f170255eab7fce4601acd0ec0aaeb9354cc4f0641feb8d94c966033b76c77787)#rt6w3rt8",
            "hex": "41048eec31db779f5e783d47620068e40a3d75e6dd06860a82ead2f8ce8a010716f2f170255eab7fce4601acd0ec0aaeb9354cc4f0641feb8d94c966033b76c77787ac",
            "type": "pubkey"
          }
        }
      ],
      "hex": "01000000010000000000000000000000000000000000000000000000000000000000000000ffffffff0804ffff001d023007ffffffff0100f2052a010000004341048eec31db779f5e783d47620068e40a3d75e6dd06860a82ead2f8ce8a010716f2f170255eab7fce4601acd0ec0aaeb9354cc4f0641feb8d94c966033b76c77787ac00000000"
    }
  ]
}