{
  "hash": "00000000360766b53c44b11bcebc64d9a4c366ba9632f273adefc7fa042b031f",
  "confirmations": 45352,
  "height": 7746,
  "version": 1,
  "versionHex": "00000001",
  "merkleroot": "8efacb9170add3abc8a18b845949a8b2ce9cd8b3e28859d93e27a11b9bec2698",
  "time": 1237273911,
  "mediantime": 1237270938,
  "nonce": 3733032237,
  "bits": "1d00ffff",
  "difficulty": 1,
  "chainwork": "00000000000000000000000000000000000000000000000000001e431e431e43",
  "nTx": 1,
  "previousblockhash": "00000000cbf44e759a2d23485e8504103441f782219f86ad53061be1121214c5",
  "nextblockhash": "000000007fbea6ba0eddef62ea42e35d956a266ac406d11086fac99cce554272",
  "strippedsize": 216,
  "size": 216,
  "weight": 864,
  "tx": [
    {
      "txid": "8efacb9170add3abc8a18b845949a8b2ce9cd8b3e28859d93e27a11b9bec2698",
      "hash": "8efacb9170add3abc8a18b845949a8b2ce9cd8b3e28859d93e27a11b9bec2698",
      "version": 1,
      "size": 135,
      "vsize": 135,
      "weight": 540,
      "locktime": 0,
      "vin": [
        {
          "coinbase": "04ffff001d02f604",
          "sequence": 4294967295
        }
      ],
      "vout": [
        {
          "value": 50.0,
          "n": 0,
          "scriptPubKey": {
            "asm": "047d080a564d46b2c7adf12f7ab3e45544bf540506f074be8aca83c7f032c3e522c40393402efb4e84bbf33633f2609d841fc5a7a3b6a360228d63d4b8120cb8b4 OP_CHECKSIG",
            "desc": "pk(047d080a564d46b2c7adf12f7ab3e45544bf540506f074be8aca83c7f032c3e522c40393402efb4e84bbf33633f2609d841fc5a7a3b6a360228d63d4b8120cb8b4)#vpg05rzx",
            "hex": "41047d080a564d46b2c7adf12f7ab3e45544bf540506f074be8aca83c7f032c3e522c40393402efb4e84bbf33633f2609d841fc5a7a3b6a360228d63d4b8120cb8b4ac",
            "type": "pubkey"
          }
        }
      ],
      "hex": "01000000010000000000000000000000000000000000000000000000000000000000000000ffffffff0804ffff001d02f604ffffffff0100f2052a010000004341047d080a564d46b2c7adf12f7ab3e45544bf540506f074be8aca83c7f032c3e522c40393402efb4e84bbf33633f2609d841fc5a7a3b6a360228d63d4b8120cb8b4ac00000000"
    }
  ]
}