{
  "hash": "000000000ba2784ee0e60204f2f49c6d3b83843c62cadf9ad5b1a2892a01f408",
  "confirmations": 50393,
  "height": 2705,
  "version": 1,
  "versionHex": "00000001",
  "merkleroot": "99ce9d4af9afd66831c13c21467471466f208ba87ee8326858b139ccc9c477a6",
  "time": 1233564705,
  "mediantime": 1233560734,
  "nonce": 1285712178,
  "bits": "1d00ffff",
  "difficulty": 1,
  "chainwork": "00000000000000000000000000000000000000000000000000000a920a920a92",
  "nTx": 1,
  "previousblockhash": "00000000464f691ad2d73b68206aff6e217f806aa30dfe2b54fdb53765fd2e0b",
  "nextblockhash": "00000000a53c7454947e3cd86eb81c958285d5cefbff5910cf692968d443fcff",
  "strippedsize": 216,
  "size": 216,
  "weight": 864,
  "tx": [
    {
      "txid": "99ce9d4af9afd66831c13c21467471466f208ba87ee8326858b139ccc9c477a6",
      "hash": "99ce9d4af9afd66831c13c21467471466f208ba87ee8326858b139ccc9c477a6",
      "version": 1,
      "size": 135,
      "vsize": 135,
      "weight": 540,
      "locktime": 0,
      "vin": [
        {
          "coinbase": "04ffff001d02d104",
          "sequence": 4294967295
        }
      ],
      "vout": [
        {
          "value": 50.0,
          "n": 0,
          "scriptPubKey": {
            "asm": "041367559e45f795518648a8fe934331a35075e426182e40772a8a9cc7be750ec50e8f80bdeb01406b7bbf3b4a0409fa39d8d722a83d64b8667ceefd4ec5930e4c OP_CHECKSIG",
            "desc": "pk(041367559e45f795518648a8fe934331a35075e426182e40772a8a9cc7be750ec50e8f80bdeb01406b7bbf3b4a0409fa39d8d722a83d64b8667ceefd4ec5930e4c)#tytu42z3",
            "hex": "41041367559e45f795518648a8fe934331a35075e426182e40772a8a9cc7be750ec50e8f80bdeb01406b7bbf3b4a0409fa39d8d722a83d64b8667ceefd4ec5930e4cac",
            "type": "pubkey"
          }
        }
      ],
      "hex": "01000000010000000000000000000000000000000000000000000000000000000000000000ffffffff0804ffff001d02d104ffffffff0100f2052a010000004341041367559e45f795518648a8fe934331a35075e426182e40772a8a9cc7be750ec50e8f80bdeb01406b7bbf3b4a0409fa39d8d722a83d64b8667ceefd4ec5930e4cac00000000"
    }
  ]
}