{
  "hash": "00000000d85dc3f8c82fcdf97ad768a7f1ed70bebdf0d79a3dc243d4583ad905",
  "confirmations": 47506,
  "height": 5592,
  "version": 1,
  "versionHex": "00000001",
  "merkleroot": "6bf6aee9a17430812be689dbc32af8777fbb59ce589dcba449731192e0612296",
  "time": 1235594800,
  "mediantime": 1235589647,
  "nonce": 2735247905,
  "bits": "1d00ffff",
  "difficulty": 1,
  "chainwork": "000000000000000000000000000000000000000000000000000015d915d915d9",
  "nTx": 1,
  "previousblockhash": "00000000d3a477e34c3107e5bf5dce1e7fd93ba96cc1a11d61474a0ffd3db5cd",
  "nextblockhash": "00000000add261f56fcd9beef3c02f29235ab5ba6547403baa0849d160edac69",
  "strippedsize": 216,
  "size": 216,
  "weight": 864,
  "tx": [
    {
      "txid": "6bf6aee9a17430812be689dbc32af8777fbb59ce589dcba449731192e0612296",
      "hash": "6bf6aee9a17430812be689dbc32af8777fbb59ce589dcba449731192e0612296",
      "version": 1,
      "size": 135,
      "vsize": 135,
      "weight": 540,
      "locktime": 0,
      "vin": [
        {
          "coinbase": "04ffff001d027e07",
          "sequence": 4294967295
        }
      ],
      "vout": [
        {
          "value": 50.0,
          "n": 0,
          "scriptPubKey": {
            "asm": "04a4dbae0c43678a04ba8891b2659041b249bbf56f9fe61cd2227c7a24d22518b31bc352c6c611a9675b30a6b00d5bc1f5bf0c830290dd326bb0150515c5835073 OP_CHECKSIG",
            "desc": "pk(04a4dbae0c43678a04ba8891b2659041b249bbf56f9fe61cd2227c7a24d22518b31bc352c6c611a9675b30a6b00d5bc1f5bf0c830290dd326bb0150515c5835073)#smkmhjh7",
            "hex": "4104a4dbae0c43678a04ba8891b2659041b249bbf56f9fe61cd2227c7a24d22518b31bc352c6c611a9675b30a6b00d5bc1f5bf0c830290dd326bb0150515c5835073ac",
            "type": "pubkey"
          }
        }
      ],
      "hex": "01000000010000000000000000000000000000000000000000000000000000000000000000ffffffff0804ffff001d027e07ffffffff0100f2052a01000000434104a4dbae0c43678a04ba8891b2659041b249bbf56f9fe61cd2227c7a24d22518b31bc352c6c611a9675b30a6b00d5bc1f5bf0c830290dd326bb0150515c5835073ac00000000"
    }
  ]
}