{
  "hash": "00000000ff96cede2dbfdf69a0a88c800f3ed9c1130201777090103de9afa7e6",
  "confirmations": 50385,
  "height": 2713,
  "version": 1,
  "versionHex": "00000001",
  "merkleroot": "f3ebadfc2882fd662016760c52aaa80bdd6e8578f2ce1feaa9366245f3b75cf1",
  "time": 1233573491,
  "mediantime": 1233567265,
  "nonce": 2798687003,
  "bits": "1d00ffff",
  "difficulty": 1,
  "chainwork": "00000000000000000000000000000000000000000000000000000a9a0a9a0a9a",
  "nTx": 1,
  "previousblockhash": "000000008a12b1df85d2a7549a789e9ffb47d74e5a513c20db7424a7662e9071",
  "nextblockhash": "0000000029b8f33ee6c012e0011773682777b93555aee7d41b7f4f51db6b5ddb",
  "strippedsize": 216,
  "size": 216,
  "weight": 864,
  "tx": [
    {
      "txid": "f3ebadfc2882fd662016760c52aaa80bdd6e8578f2ce1feaa9366245f3b75cf1",
      "hash": "f3ebadfc2882fd662016760c52aaa80bdd6e8578f2ce1feaa9366245f3b75cf1",
      "version": 1,
      "size": 135,
      "vsize": 135,
      "weight": 540,
      "locktime": 0,
      "vin": [
        {
          "coinbase": "04ffff001d02eb04",
          "sequence": 4294967295
        }
      ],
      "vout": [
        {
          "value": 50.0,
          "n": 0,
          "scriptPubKey": {
            "asm": "04280d24392504075ff98fd19c8687eeed0abf3fdf52f8d06def1c3e9b931f63c9dcdafd44bf1e3ae62e3e7812a025250813c4619dc086f167f6d3316e9b8200d3 OP_CHECKSIG",
            "desc": "pk(04280d24392504075ff98fd19c8687eeed0abf3fdf52f8d06def1c3e9b931f63c9dcdafd44bf1e3ae62e3e7812a025250813c4619dc086f167f6d3316e9b8200d3)#yzytj0lt",
            "hex": "4104280d24392504075ff98fd19c8687eeed0abf3fdf52f8d06def1c3e9b931f63c9dcdafd44bf1e3ae62e3e7812a025250813c4619dc086f167f6d3316e9b8200d3ac",
            "type": "pubkey"
          }
        }
      ],
      "hex": "01000000010000000000000000000000000000000000000000000000000000000000000000ffffffff0804ffff001d02eb04ffffffff0100f2052a01000000434104280d24392504075ff98fd19c8687eeed0abf3fdf52f8d06def1c3e9b931f63c9dcdafd44bf1e3ae62e3e7812a025250813c4619dc086f167f6d3316e9b8200d3ac00000000"
    }
  ]
}