{
  "hash": "0000000098121f3a486078137b75bc8b11f5481b4452088830cf13cda67f9b38",
  "confirmations": 49204,
  "height": 3894,
  "version": 1,
  "versionHex": "00000001",
  "merkleroot": "f2726220939bfb61f01bde9cae835a382fb77f748a2b14b6ec93beb16f41e1fd",
  "time": 1234364055,
  "mediantime": 1234359997,
  "nonce": 1237942317,
  "bits": "1d00ffff",
  "difficulty": 1,
  "chainwork": "00000000000000000000000000000000000000000000000000000f370f370f37",
  "nTx": 1,
  "previousblockhash": "0000000079fdd66f8748359f915d13d5aff228b478e384e4c345af73b14edefb",
  "nextblockhash": "000000001159b8c62d90f45e81ea38592b714d059f776e28e7f6e0157c107452",
  "strippedsize": 216,
  "size": 216,
  "weight": 864,
  "tx": [
    {
      "txid": "f2726220939bfb61f01bde9cae835a382fb77f748a2b14b6ec93beb16f41e1fd",
      "hash": "f2726220939bfb61f01bde9cae835a382fb77f748a2b14b6ec93beb16f41e1fd",
      "version": 1,
      "size": 135,
      "vsize": 135,
      "weight": 540,
      "locktime": 0,
      "vin": [
        {
          "coinbase": "04ffff001d028d02",
          "sequence": 4294967295
        }
      ],
      "vout": [
        {
          "value": 50.0,
          "n": 0,
          "scriptPubKey": {
            "asm": "04117254acf6a9b73562a96b4714500374a197ac5c115d5b63a0ed0e10a7a8c5e34a114101923de3cb03475317dcf71c7e93d9f80422a7b7d9c9f7ac27b1236bc8 OP_CHECKSIG",
            "desc": "pk(04117254acf6a9b73562a96b4714500374a197ac5c115d5b63a0ed0e10a7a8c5e34a114101923de3cb03475317dcf71c7e93d9f80422a7b7d9c9f7ac27b1236bc8)#uthxmrds",
            "hex": "4104117254acf6a9b73562a96b4714500374a197ac5c115d5b63a0ed0e10a7a8c5e34a114101923de3cb03475317dcf71c7e93d9f80422a7b7d9c9f7ac27b1236bc8ac",
            "type": "pubkey"
          }
        }
      ],
      "hex": "01000000010000000000000000000000000000000000000000000000000000000000000000ffffffff0804ffff001d028d02ffffffff0100f2052a01000000434104117254acf6a9b73562a96b4714500374a197ac5c115d5b63a0ed0e10a7a8c5e34a114101923de3cb03475317dcf71c7e93d9f80422a7b7d9c9f7ac27b1236bc8ac00000000"
    }
  ]
}