{
  "hash": "00000000e6fbf1fd197e80e1e738ecd5890cb6e038b6ba32484adfad3c335921",
  "confirmations": 51897,
  "height": 1201,
  "version": 1,
  "versionHex": "00000001",
  "merkleroot": "750309a675795b925868f0e039eed671ad4ff0061509566145a428cf2ef8823f",
  "time": 1232501684,
  "mediantime": 1232497364,
  "nonce": 943737116,
  "bits": "1d00ffff",
  "difficulty": 1,
  "chainwork": "000000000000000000000000000000000000000000000000000004b204b204b2",
  "nTx": 1,
  "previousblockhash": "00000000f0b6da96d1e3272e87e181a7057c3d79bf984b420d4f6fd6d7a49fc7",
  "nextblockhash": "00000000986aeca27988ca4a2f456d53fc8ff3a6976cdefb97a7bc172dfb8c12",
  "strippedsize": 216,
  "size": 216,
  "weight": 864,
  "tx": [
    {
      "txid": "750309a675795b925868f0e039eed671ad4ff0061509566145a428cf2ef8823f",
      "hash": "750309a675795b925868f0e039eed671ad4ff0061509566145a428cf2ef8823f",
      "version": 1,
      "size": 135,
      "vsize": 135,
      "weight": 540,
      "locktime": 0,
      "vin": [
        {
          "coinbase": "04ffff001d02b108",
          "sequence": 4294967295
        }
      ],
      "vout": [
        {
          "value": 50.0,
          "n": 0,
          "scriptPubKey": {
            "asm": "047a0d1183763fefa15b4f6205801bae9d6dd4db91cbe14c6e3733793e184304704c3395a30b4beee4cb4c968409b981de48116e4072a5a91f1eb7cffc8dbb57e3 OP_CHECKSIG",
            "desc": "pk(047a0d1183763fefa15b4f6205801bae9d6dd4db91cbe14c6e3733793e184304704c3395a30b4beee4cb4c968409b981de48116e4072a5a91f1eb7cffc8dbb57e3)#afg03vgz",
            "hex": "41047a0d1183763fefa15b4f6205801bae9d6dd4db91cbe14c6e3733793e184304704c3395a30b4beee4cb4c968409b981de48116e4072a5a91f1eb7cffc8dbb57e3ac",
            "type": "pubkey"
          }
        }
      ],
      "hex": "01000000010000000000000000000000000000000000000000000000000000000000000000ffffffff0804ffff001d02b108ffffffff0100f2052a010000004341047a0d1183763fefa15b4f6205801bae9d6dd4db91cbe14c6e3733793e184304704c3395a30b4beee4cb4c968409b981de48116e4072a5a91f1eb7cffc8dbb57e3ac00000000"
    }
  ]
}