{
  "hash": "000000004d441eda6d86516b77701eb913788efe7d6a74ad3d06a5aa343e6d1e",
  "confirmations": 43788,
  "height": 9310,
  "version": 1,
  "versionHex": "00000001",
  "merkleroot": "266c4ce80d025defa13aa8d73ef46b70fcb1c257824d7235ae464fdd5bbfe89e",
  "time": 1238480915,
  "mediantime": 1238479116,
  "nonce": 3787334400,
  "bits": "1d00ffff",
  "difficulty": 1,
  "chainwork": "0000000000000000000000000000000000000000000000000000245f245f245f",
  "nTx": 1,
  "previousblockhash": "00000000966d702b1248872b36c4daab3abcb8de47940dc7baa7309ac067e270",
  "nextblockhash": "000000008da846cff88ef83258bf01f7ca757edd080d541381347c5ec8cb5b47",
  "strippedsize": 216,
  "size": 216,
  "weight": 864,
  "tx": [
    {
      "txid": "266c4ce80d025defa13aa8d73ef46b70fcb1c257824d7235ae464fdd5bbfe89e",
      "hash": "266c4ce80d025defa13aa8d73ef46b70fcb1c257824d7235ae464fdd5bbfe89e",
      "version": 1,
      "size": 135,
      "vsize": 135,
      "weight": 540,
      "locktime": 0,
      "vin": [
        {
          "coinbase": "04ffff001d02d701",
          "sequence": 4294967295
        }
      ],
      "vout": [
        {
          "value": 50.0,
          "n": 0,
          "scriptPubKey": {
            "asm": "04e7afb364a6af45ead8905e9a64bb18b46952ba9ca4bc26b3cc6d0aa70f7c2491ea472e8566e2f25e623dc28b33248b6d741bd4dd930371ca167a59c3c13a53b4 OP_CHECKSIG",
            "desc": "pk(04e7afb364a6af45ead8905e9a64bb18b46952ba9ca4bc26b3cc6d0aa70f7c2491ea472e8566e2f25e623dc28b33248b6d741bd4dd930371ca167a59c3c13a53b4)#2qap7ctk",
            "hex": "4104e7afb364a6af45ead8905e9a64bb18b46952ba9ca4bc26b3cc6d0aa70f7c2491ea472e8566e2f25e623dc28b33248b6d741bd4dd930371ca167a59c3c13a53b4ac",
            "type": "pubkey"
          }
        }
      ],
      "hex": "01000000010000000000000000000000000000000000000000000000000000000000000000ffffffff0804ffff001d02d701ffffffff0100f2052a01000000434104e7afb364a6af45ead8905e9a64bb18b46952ba9ca4bc26b3cc6d0aa70f7c2491ea472e8566e2f25e623dc28b33248b6d741bd4dd930371ca167a59c3c13a53b4ac00000000"
    }
  ]
}