{
  "hash": "00000000df940fe8b0e1e0b0f980df46a42edc0658750f118ea0fefc5170febd",
  "confirmations": 44663,
  "height": 8435,
  "version": 1,
  "versionHex": "00000001",
  "merkleroot": "4042d9a670f5d8a75f4d5686c7ec57625eb0e5b58632a22db23a94e31181fe05",
  "time": 1237821292,
  "mediantime": 1237817015,
  "nonce": 3278154241,
  "bits": "1d00ffff",
  "difficulty": 1,
  "chainwork": "000000000000000000000000000000000000000000000000000020f420f420f4",
  "nTx": 1,
  "previousblockhash": "00000000111a049c708db300a8746bb8308d6e62dcbab2ca5665875040bf77a4",
  "nextblockhash": "00000000f77e4f1ce45b44c702f01976c6fe588f7389f1aa2ca6f1669cdbb544",
  "strippedsize": 216,
  "size": 216,
  "weight": 864,
  "tx": [
    {
      "txid": "4042d9a670f5d8a75f4d5686c7ec57625eb0e5b58632a22db23a94e31181fe05",
      "hash": "4042d9a670f5d8a75f4d5686c7ec57625eb0e5b58632a22db23a94e31181fe05",
      "version": 1,
      "size": 135,
      "vsize": 135,
      "weight": 540,
      "locktime": 0,
      "vin": [
        {
          "coinbase": "04ffff001d02a206",
          "sequence": 4294967295
        }
      ],
      "vout": [
        {
          "value": 50.0,
          "n": 0,
          "scriptPubKey": {
            "asm": "04e402930d52c293aacb56e80cfd7e42a701963faf9f0ab00353368eeaf4cc96c8dce0aa4e72414014c1be8711825d0c2d9cc2218ab5da4a3fd8ace53a42c9a98e OP_CHECKSIG",
            "desc": "pk(04e402930d52c293aacb56e80cfd7e42a701963faf9f0ab00353368eeaf4cc96c8dce0aa4e72414014c1be8711825d0c2d9cc2218ab5da4a3fd8ace53a42c9a98e)#2ndas6ru",
            "hex": "4104e402930d52c293aacb56e80cfd7e42a701963faf9f0ab00353368eeaf4cc96c8dce0aa4e72414014c1be8711825d0c2d9cc2218ab5da4a3fd8ace53a42c9a98eac",
            "type": "pubkey"
          }
        }
      ],
      "hex": "01000000010000000000000000000000000000000000000000000000000000000000000000ffffffff0804ffff001d02a206ffffffff0100f2052a01000000434104e402930d52c293aacb56e80cfd7e42a701963faf9f0ab00353368eeaf4cc96c8dce0aa4e72414014c1be8711825d0c2d9cc2218ab5da4a3fd8ace53a42c9a98eac00000000"
    }
  ]
}