{
  "hash": "00000000fecaf179143840799eb36d8ca15d3250dcfa615eb87c40927c4dd38d",
  "confirmations": 45064,
  "height": 8034,
  "version": 1,
  "versionHex": "00000001",
  "merkleroot": "9002d1002cbf77f27c619b22ac5f471065775e03ee463b13b657b47216667edd",
  "time": 1237487835,
  "mediantime": 1237484346,
  "nonce": 146708185,
  "bits": "1d00ffff",
  "difficulty": 1,
  "chainwork": "00000000000000000000000000000000000000000000000000001f631f631f63",
  "nTx": 1,
  "previousblockhash": "000000004cdd8ee0ee242a700b98f30e37e1d4ca9aba4ef257f514468f4d08af",
  "nextblockhash": "000000005cb309641e02e6b67486b16629472723b9230ceef9b042a5994cacad",
  "strippedsize": 215,
  "size": 215,
  "weight": 860,
  "tx": [
    {
      "txid": "9002d1002cbf77f27c619b22ac5f471065775e03ee463b13b657b47216667edd",
      "hash": "9002d1002cbf77f27c619b22ac5f471065775e03ee463b13b657b47216667edd",
      "version": 1,
      "size": 134,
      "vsize": 134,
      "weight": 536,
      "locktime": 0,
      "vin": [
        {
          "coinbase": "04ffff001d012b",
          "sequence": 4294967295
        }
      ],
      "vout": [
        {
          "value": 50.0,
          "n": 0,
          "scriptPubKey": {
            "asm": "04646825049deaf7f5e9ee489455bbaaaa704aa891aaf0ce38212f31b26ec375608e94c881b8392ee5c03d8615a2e3bc1fe7def8e05a0bacd3848ed2c632e11bd5 OP_CHECKSIG",
            "desc": "pk(04646825049deaf7f5e9ee489455bbaaaa704aa891aaf0ce38212f31b26ec375608e94c881b8392ee5c03d8615a2e3bc1fe7def8e05a0bacd3848ed2c632e11bd5)#23xh0d66",
            "hex": "4104646825049deaf7f5e9ee489455bbaaaa704aa891aaf0ce38212f31b26ec375608e94c881b8392ee5c03d8615a2e3bc1fe7def8e05a0bacd3848ed2c632e11bd5ac",
            "type": "pubkey"
          }
        }
      ],
      "hex": "01000000010000000000000000000000000000000000000000000000000000000000000000ffffffff0704ffff001d012bffffffff0100f2052a01000000434104646825049deaf7f5e9ee489455bbaaaa704aa891aaf0ce38212f31b26ec375608e94c881b8392ee5c03d8615a2e3bc1fe7def8e05a0bacd3848ed2c632e11bd5ac00000000"
    }
  ]
}