{
  "hash": "00000000ed0b20b4c9cc4e4546ccb88aff1402d39d77d4421ce238a72ddbb9d2",
  "confirmations": 47821,
  "height": 5277,
  "version": 1,
  "versionHex": "00000001",
  "merkleroot": "ecc01617ddc5304ea3c33fd6c2868f30f61b5c4f99234e8cc0c2d4240ee8330e",
  "time": 1235343403,
  "mediantime": 1235340514,
  "nonce": 3640393507,
  "bits": "1d00ffff",
  "difficulty": 1,
  "chainwork": "0000000000000000000000000000000000000000000000000000149e149e149e",
  "nTx": 1,
  "previousblockhash": "00000000d7e322dff76eb78f0b0a3683f6acdeda5e0b8d176bdea7a37ce7744b",
  "nextblockhash": "000000003d93032bb085e3e74aa574a2bad9d19444f85a60aa17436999d87a0f",
  "strippedsize": 216,
  "size": 216,
  "weight": 864,
  "tx": [
    {
      "txid": "ecc01617ddc5304ea3c33fd6c2868f30f61b5c4f99234e8cc0c2d4240ee8330e",
      "hash": "ecc01617ddc5304ea3c33fd6c2868f30f61b5c4f99234e8cc0c2d4240ee8330e",
      "version": 1,
      "size": 135,
      "vsize": 135,
      "weight": 540,
      "locktime": 0,
      "vin": [
        {
          "coinbase": "04ffff001d02b901",
          "sequence": 4294967295
        }
      ],
      "vout": [
        {
          "value": 50.0,
          "n": 0,
          "scriptPubKey": {
            "asm": "04fc35c528d3d7940f088ed2f805d2d38d43a72ba8fed4929c5c092e2049bce8f4478b4c4828f5060510ff8ad679dc4a46c9dbad0062cb23ce6dc14d6680ba32ad OP_CHECKSIG",
            "desc": "pk(04fc35c528d3d7940f088ed2f805d2d38d43a72ba8fed4929c5c092e2049bce8f4478b4c4828f5060510ff8ad679dc4a46c9dbad0062cb23ce6dc14d6680ba32ad)#y78a9na2",
            "hex": "4104fc35c528d3d7940f088ed2f805d2d38d43a72ba8fed4929c5c092e2049bce8f4478b4c4828f5060510ff8ad679dc4a46c9dbad0062cb23ce6dc14d6680ba32adac",
            "type": "pubkey"
          }
        }
      ],
      "hex": "01000000010000000000000000000000000000000000000000000000000000000000000000ffffffff0804ffff001d02b901ffffffff0100f2052a01000000434104fc35c528d3d7940f088ed2f805d2d38d43a72ba8fed4929c5c092e2049bce8f4478b4c4828f5060510ff8ad679dc4a46c9dbad0062cb23ce6dc14d6680ba32adac00000000"
    }
  ]
}