{
  "hash": "0000000076a7445733d78a7d99a59a06eacdfba71e2128f2b8ecfbadba08807a",
  "confirmations": 49846,
  "height": 3252,
  "version": 1,
  "versionHex": "00000001",
  "merkleroot": "85a2d2fdb493ae88042ef72d8b7f913461df6cf20b030f69d91cc0bda0370bd5",
  "time": 1233937671,
  "mediantime": 1233935520,
  "nonce": 4289593857,
  "bits": "1d00ffff",
  "difficulty": 1,
  "chainwork": "00000000000000000000000000000000000000000000000000000cb50cb50cb5",
  "nTx": 1,
  "previousblockhash": "000000007b0dbd5c0fbfc0f2917a179f514dd69bdf476f8dc96bc8acf78ce0f5",
  "nextblockhash": "00000000e4b07b0e58e33803cde5611c543f1fdd0267fcadc3e6d33cdc6603a5",
  "strippedsize": 216,
  "size": 216,
  "weight": 864,
  "tx": [
    {
      "txid": "85a2d2fdb493ae88042ef72d8b7f913461df6cf20b030f69d91cc0bda0370bd5",
      "hash": "85a2d2fdb493ae88042ef72d8b7f913461df6cf20b030f69d91cc0bda0370bd5",
      "version": 1,
      "size": 135,
      "vsize": 135,
      "weight": 540,
      "locktime": 0,
      "vin": [
        {
          "coinbase": "04ffff001d027603",
          "sequence": 4294967295
        }
      ],
      "vout": [
        {
          "value": 50.0,
          "n": 0,
          "scriptPubKey": {
            "asm": "04263379f07c078d765a6b4a39d678b2f675502cfd4df71f3b5996404a3439601efe4aeaf10173afb7a3caeee80dd15c8250dbad6ae6d39ccb042284551430c6bc OP_CHECKSIG",
            "desc": "pk(04263379f07c078d765a6b4a39d678b2f675502cfd4df71f3b5996404a3439601efe4aeaf10173afb7a3caeee80dd15c8250dbad6ae6d39ccb042284551430c6bc)#h3s9pwru",
            "hex": "4104263379f07c078d765a6b4a39d678b2f675502cfd4df71f3b5996404a3439601efe4aeaf10173afb7a3caeee80dd15c8250dbad6ae6d39ccb042284551430c6bcac",
            "type": "pubkey"
          }
        }
      ],
      "hex": "01000000010000000000000000000000000000000000000000000000000000000000000000ffffffff0804ffff001d027603ffffffff0100f2052a01000000434104263379f07c078d765a6b4a39d678b2f675502cfd4df71f3b5996404a3439601efe4aeaf10173afb7a3caeee80dd15c8250dbad6ae6d39ccb042284551430c6bcac00000000"
    }
  ]
}