{
  "hash": "00000000c0c06a428289ab6f5447027c67562ff91213fd06bf5df4bf050c69a1",
  "confirmations": 46354,
  "height": 6744,
  "version": 1,
  "versionHex": "00000001",
  "merkleroot": "dbebea0b70ca080c7d9dc5640eb91ba872bdbc1dd60fea197e817771ee3a1ea6",
  "time": 1236514681,
  "mediantime": 1236510693,
  "nonce": 2001800739,
  "bits": "1d00ffff",
  "difficulty": 1,
  "chainwork": "00000000000000000000000000000000000000000000000000001a591a591a59",
  "nTx": 1,
  "previousblockhash": "000000002acdb9945df308b8c0e51b9ff0df75b3cb25196985a2ca817df4868b",
  "nextblockhash": "0000000037b6e2d6c3b3e9c6eaea5f89a1d1fdc3ac19302ed5da81f8c9c1d247",
  "strippedsize": 216,
  "size": 216,
  "weight": 864,
  "tx": [
    {
      "txid": "dbebea0b70ca080c7d9dc5640eb91ba872bdbc1dd60fea197e817771ee3a1ea6",
      "hash": "dbebea0b70ca080c7d9dc5640eb91ba872bdbc1dd60fea197e817771ee3a1ea6",
      "version": 1,
      "size": 135,
      "vsize": 135,
      "weight": 540,
      "locktime": 0,
      "vin": [
        {
          "coinbase": "04ffff001d020b08",
          "sequence": 4294967295
        }
      ],
      "vout": [
        {
          "value": 50.0,
          "n": 0,
          "scriptPubKey": {
            "asm": "04a8db665855eca097882c98440c2e4c21c9af56856878198ccefb67168099fa60e6a41fd105f5e16eff7a141333837c05fbf2fb6f39fa495646073ecb93a6f979 OP_CHECKSIG",
            "desc": "pk(04a8db665855eca097882c98440c2e4c21c9af56856878198ccefb67168099fa60e6a41fd105f5e16eff7a141333837c05fbf2fb6f39fa495646073ecb93a6f979)#pd7xncdw",
            "hex": "4104a8db665855eca097882c98440c2e4c21c9af56856878198ccefb67168099fa60e6a41fd105f5e16eff7a141333837c05fbf2fb6f39fa495646073ecb93a6f979ac",
            "type": "pubkey"
          }
        }
      ],
      "hex": "01000000010000000000000000000000000000000000000000000000000000000000000000ffffffff0804ffff001d020b08ffffffff0100f2052a01000000434104a8db665855eca097882c98440c2e4c21c9af56856878198ccefb67168099fa60e6a41fd105f5e16eff7a141333837c05fbf2fb6f39fa495646073ecb93a6f979ac00000000"
    }
  ]
}