{
  "hash": "00000000d0f0eaae29cb6081cd4e842668b59d638aed0355a0f67fd11e1d55f4",
  "confirmations": 49882,
  "height": 3216,
  "version": 1,
  "versionHex": "00000001",
  "merkleroot": "8fb854f8185b082f6709b50955dbdc8ff67e9aca64f578f9ab80ab1f24be6c34",
  "time": 1233912335,
  "mediantime": 1233908427,
  "nonce": 2974064167,
  "bits": "1d00ffff",
  "difficulty": 1,
  "chainwork": "00000000000000000000000000000000000000000000000000000c910c910c91",
  "nTx": 1,
  "previousblockhash": "0000000048287f3247a279373967e982abe45d08edbea282691b2a5018261014",
  "nextblockhash": "000000002372cb6ea0ea8053799c90a1377980a3560cc8d37abb2eb1817c0eaf",
  "strippedsize": 216,
  "size": 216,
  "weight": 864,
  "tx": [
    {
      "txid": "8fb854f8185b082f6709b50955dbdc8ff67e9aca64f578f9ab80ab1f24be6c34",
      "hash": "8fb854f8185b082f6709b50955dbdc8ff67e9aca64f578f9ab80ab1f24be6c34",
      "version": 1,
      "size": 135,
      "vsize": 135,
      "weight": 540,
      "locktime": 0,
      "vin": [
        {
          "coinbase": "04ffff001d02f602",
          "sequence": 4294967295
        }
      ],
      "vout": [
        {
          "value": 50.0,
          "n": 0,
          "scriptPubKey": {
            "asm": "04782952db282aa563b755fd6e552d3480cfd11a6138ce2f59b9971b0bbbe648597c01bd4d81fc38d3ff1659011b36928bb43264f963622fe223d6c87dcfaa949e OP_CHECKSIG",
            "desc": "pk(04782952db282aa563b755fd6e552d3480cfd11a6138ce2f59b9971b0bbbe648597c01bd4d81fc38d3ff1659011b36928bb43264f963622fe223d6c87dcfaa949e)#fu8s6qmx",
            "hex": "4104782952db282aa563b755fd6e552d3480cfd11a6138ce2f59b9971b0bbbe648597c01bd4d81fc38d3ff1659011b36928bb43264f963622fe223d6c87dcfaa949eac",
            "type": "pubkey"
          }
        }
      ],
      "hex": "01000000010000000000000000000000000000000000000000000000000000000000000000ffffffff0804ffff001d02f602ffffffff0100f2052a01000000434104782952db282aa563b755fd6e552d3480cfd11a6138ce2f59b9971b0bbbe648597c01bd4d81fc38d3ff1659011b36928bb43264f963622fe223d6c87dcfaa949eac00000000"
    }
  ]
}