{
  "hash": "0000000098076bc4cdc362f418bfe8d2f753d305a7f7513dcdf5a8563f0d88d9",
  "confirmations": 44701,
  "height": 8397,
  "version": 1,
  "versionHex": "00000001",
  "merkleroot": "e28b66b37986f83f0f106ac7d37c26ae8adf8336b613ca8f4b83dae70760177a",
  "time": 1237798644,
  "mediantime": 1237795554,
  "nonce": 64891934,
  "bits": "1d00ffff",
  "difficulty": 1,
  "chainwork": "000000000000000000000000000000000000000000000000000020ce20ce20ce",
  "nTx": 1,
  "previousblockhash": "000000003833f8e889296873103ee9678c46971cdc3688d99a61b7b53fc7f9a4",
  "nextblockhash": "00000000057f1021ae4f165063a4f2940ea69cd9a537de1d71e77338dcc006e9",
  "strippedsize": 216,
  "size": 216,
  "weight": 864,
  "tx": [
    {
      "txid": "e28b66b37986f83f0f106ac7d37c26ae8adf8336b613ca8f4b83dae70760177a",
      "hash": "e28b66b37986f83f0f106ac7d37c26ae8adf8336b613ca8f4b83dae70760177a",
      "version": 1,
      "size": 135,
      "vsize": 135,
      "weight": 540,
      "locktime": 0,
      "vin": [
        {
          "coinbase": "04ffff001d023605",
          "sequence": 4294967295
        }
      ],
      "vout": [
        {
          "value": 50.0,
          "n": 0,
          "scriptPubKey": {
            "asm": "04d4bef86b8e7cee85edb5368f4ad9fa622778bb9ca7e28f5be0e5edf52ce6f50c939bc03f0fca3ad893940d93a67a65995849e6f4b8aa7c5519a98c9114cf8a8d OP_CHECKSIG",
            "desc": "pk(04d4bef86b8e7cee85edb5368f4ad9fa622778bb9ca7e28f5be0e5edf52ce6f50c939bc03f0fca3ad893940d93a67a65995849e6f4b8aa7c5519a98c9114cf8a8d)#0j0f4lsj",
            "hex": "4104d4bef86b8e7cee85edb5368f4ad9fa622778bb9ca7e28f5be0e5edf52ce6f50c939bc03f0fca3ad893940d93a67a65995849e6f4b8aa7c5519a98c9114cf8a8dac",
            "type": "pubkey"
          }
        }
      ],
      "hex": "01000000010000000000000000000000000000000000000000000000000000000000000000ffffffff0804ffff001d023605ffffffff0100f2052a01000000434104d4bef86b8e7cee85edb5368f4ad9fa622778bb9ca7e28f5be0e5edf52ce6f50c939bc03f0fca3ad893940d93a67a65995849e6f4b8aa7c5519a98c9114cf8a8dac00000000"
    }
  ]
}