{
  "hash": "000000001185138e652e8fdafaf9e4f57b6ac0abe9f5ea824aff29f19c265942",
  "confirmations": 48064,
  "height": 5034,
  "version": 1,
  "versionHex": "00000001",
  "merkleroot": "759ad83d09217d8adb113cff3fe561dcd20f3ffc76142d0f7444ae3436503b9e",
  "time": 1235163107,
  "mediantime": 1235159246,
  "nonce": 299045632,
  "bits": "1d00ffff",
  "difficulty": 1,
  "chainwork": "000000000000000000000000000000000000000000000000000013ab13ab13ab",
  "nTx": 1,
  "previousblockhash": "0000000015f5d05292b863e839cb89eb88c21274ff0ee4bc7ba673203c199eea",
  "nextblockhash": "0000000060aa4dc6fb31c82c978d8a51a1bcf2c77fe174a2e30d5d320fa7fb19",
  "strippedsize": 216,
  "size": 216,
  "weight": 864,
  "tx": [
    {
      "txid": "759ad83d09217d8adb113cff3fe561dcd20f3ffc76142d0f7444ae3436503b9e",
      "hash": "759ad83d09217d8adb113cff3fe561dcd20f3ffc76142d0f7444ae3436503b9e",
      "version": 1,
      "size": 135,
      "vsize": 135,
      "weight": 540,
      "locktime": 0,
      "vin": [
        {
          "coinbase": "04ffff001d02430c",
          "sequence": 4294967295
        }
      ],
      "vout": [
        {
          "value": 50.0,
          "n": 0,
          "scriptPubKey": {
            "asm": "041a0d8812b2b5e35310077b8c352ffb115e2a0bdc44d2295a0f6e4e2cc76c1d2df776d95820814697951e27ecfa7f4422aa700a1d9c9b692d23fac33f2b9ebd6c OP_CHECKSIG",
            "desc": "pk(041a0d8812b2b5e35310077b8c352ffb115e2a0bdc44d2295a0f6e4e2cc76c1d2df776d95820814697951e27ecfa7f4422aa700a1d9c9b692d23fac33f2b9ebd6c)#2scg6vux",
            "hex": "41041a0d8812b2b5e35310077b8c352ffb115e2a0bdc44d2295a0f6e4e2cc76c1d2df776d95820814697951e27ecfa7f4422aa700a1d9c9b692d23fac33f2b9ebd6cac",
            "type": "pubkey"
          }
        }
      ],
      "hex": "01000000010000000000000000000000000000000000000000000000000000000000000000ffffffff0804ffff001d02430cffffffff0100f2052a010000004341041a0d8812b2b5e35310077b8c352ffb115e2a0bdc44d2295a0f6e4e2cc76c1d2df776d95820814697951e27ecfa7f4422aa700a1d9c9b692d23fac33f2b9ebd6cac00000000"
    }
  ]
}