{
  "hash": "00000000d4ba898f54d5fb794f7d3856fc879260341b2cb0aefcebaf957d9a7c",
  "confirmations": 45354,
  "height": 7744,
  "version": 1,
  "versionHex": "00000001",
  "merkleroot": "fc40cea8bbd75b9fa50ef96310765a1aa1eebe6f649aa2b317dee0f1a60a40d0",
  "time": 1237273273,
  "mediantime": 1237268995,
  "nonce": 255432757,
  "bits": "1d00ffff",
  "difficulty": 1,
  "chainwork": "00000000000000000000000000000000000000000000000000001e411e411e41",
  "nTx": 1,
  "previousblockhash": "00000000bbe372ad70b7df2b13f3043c8324d4118ed71babf9cc6c584273df4a",
  "nextblockhash": "00000000cbf44e759a2d23485e8504103441f782219f86ad53061be1121214c5",
  "strippedsize": 216,
  "size": 216,
  "weight": 864,
  "tx": [
    {
      "txid": "fc40cea8bbd75b9fa50ef96310765a1aa1eebe6f649aa2b317dee0f1a60a40d0",
      "hash": "fc40cea8bbd75b9fa50ef96310765a1aa1eebe6f649aa2b317dee0f1a60a40d0",
      "version": 1,
      "size": 135,
      "vsize": 135,
      "weight": 540,
      "locktime": 0,
      "vin": [
        {
          "coinbase": "04ffff001d02f504",
          "sequence": 4294967295
        }
      ],
      "vout": [
        {
          "value": 50.0,
          "n": 0,
          "scriptPubKey": {
            "asm": "0414073842ac49292f386d9abbd57f64e6aef04e1ccbfb7a712b152f94825424f289d0589c311781e8fe3ad238ae2d68a89e714b82efc35bf5bef59ae8b3a0b7e0 OP_CHECKSIG",
            "desc": "pk(0414073842ac49292f386d9abbd57f64e6aef04e1ccbfb7a712b152f94825424f289d0589c311781e8fe3ad238ae2d68a89e714b82efc35bf5bef59ae8b3a0b7e0)#hnqv765z",
            "hex": "410414073842ac49292f386d9abbd57f64e6aef04e1ccbfb7a712b152f94825424f289d0589c311781e8fe3ad238ae2d68a89e714b82efc35bf5bef59ae8b3a0b7e0ac",
            "type": "pubkey"
          }
        }
      ],
      "hex": "01000000010000000000000000000000000000000000000000000000000000000000000000ffffffff0804ffff001d02f504ffffffff0100f2052a0100000043410414073842ac49292f386d9abbd57f64e6aef04e1ccbfb7a712b152f94825424f289d0589c311781e8fe3ad238ae2d68a89e714b82efc35bf5bef59ae8b3a0b7e0ac00000000"
    }
  ]
}