{
  "hash": "000000000157af061fd5db33b6d5144e641162682f33e81d239e4df09d612f53",
  "confirmations": 47683,
  "height": 5415,
  "version": 1,
  "versionHex": "00000001",
  "merkleroot": "708dc78338860c2bb25fbdacbd4d98944436d441600fdf8f8540228b9dbbcb7f",
  "time": 1235451715,
  "mediantime": 1235447475,
  "nonce": 970421287,
  "bits": "1d00ffff",
  "difficulty": 1,
  "chainwork": "0000000000000000000000000000000000000000000000000000152815281528",
  "nTx": 1,
  "previousblockhash": "000000006eadd08ea3948769f170df099a3e1f523d1191cca9ba91e97fa31e59",
  "nextblockhash": "000000004f056cdad7e028b2227a96cf6db21d1c7767a89b922064fde5dab7f5",
  "strippedsize": 216,
  "size": 216,
  "weight": 864,
  "tx": [
    {
      "txid": "708dc78338860c2bb25fbdacbd4d98944436d441600fdf8f8540228b9dbbcb7f",
      "hash": "708dc78338860c2bb25fbdacbd4d98944436d441600fdf8f8540228b9dbbcb7f",
      "version": 1,
      "size": 135,
      "vsize": 135,
      "weight": 540,
      "locktime": 0,
      "vin": [
        {
          "coinbase": "04ffff001d02cf03",
          "sequence": 4294967295
        }
      ],
      "vout": [
        {
          "value": 50.0,
          "n": 0,
          "scriptPubKey": {
            "asm": "0471e5c496ed0fc99c610f8f844f2c6bda2122f00a33d69f9c05fd1bb05a09185e246be3778750ea7c446fcc72d7ba86abee23d05805828fe3a9d1261561848b99 OP_CHECKSIG",
            "desc": "pk(0471e5c496ed0fc99c610f8f844f2c6bda2122f00a33d69f9c05fd1bb05a09185e246be3778750ea7c446fcc72d7ba86abee23d05805828fe3a9d1261561848b99)#usj6pr26",
            "hex": "410471e5c496ed0fc99c610f8f844f2c6bda2122f00a33d69f9c05fd1bb05a09185e246be3778750ea7c446fcc72d7ba86abee23d05805828fe3a9d1261561848b99ac",
            "type": "pubkey"
          }
        }
      ],
      "hex": "01000000010000000000000000000000000000000000000000000000000000000000000000ffffffff0804ffff001d02cf03ffffffff0100f2052a0100000043410471e5c496ed0fc99c610f8f844f2c6bda2122f00a33d69f9c05fd1bb05a09185e246be3778750ea7c446fcc72d7ba86abee23d05805828fe3a9d1261561848b99ac00000000"
    }
  ]
}