{
  "hash": "0000000090e31ebfb5734092b91f0d8b1dc5f40cd7ff9c18b3f0e999278c7c91",
  "confirmations": 51988,
  "height": 352,
  "version": 1,
  "versionHex": "00000001",
  "merkleroot": "4c4c29d07679bfdad5f037ba429419d206a656782d5aa88ecd728a0033ac1a67",
  "time": 1231866858,
  "mediantime": 1231863290,
  "nonce": 633069597,
  "bits": "1d00ffff",
  "difficulty": 1,
  "chainwork": "0000000000000000000000000000000000000000000000000000016101610161",
  "nTx": 1,
  "previousblockhash": "00000000db629e4d40902dc756ee9e3ebb87a76d2750e0846849f3d5e93bb4d6",
  "nextblockhash": "00000000dec5e5fbf851495db241e624012d675bbef96ec6dab5cdc91fa3b53b",
  "strippedsize": 216,
  "size": 216,
  "weight": 864,
  "tx": [
    {
      "txid": "4c4c29d07679bfdad5f037ba429419d206a656782d5aa88ecd728a0033ac1a67",
      "hash": "4c4c29d07679bfdad5f037ba429419d206a656782d5aa88ecd728a0033ac1a67",
      "version": 1,
      "size": 135,
      "vsize": 135,
      "weight": 540,
      "locktime": 0,
      "vin": [
        {
          "coinbase": "04ffff001d029201",
          "sequence": 4294967295
        }
      ],
      "vout": [
        {
          "value": 50.0,
          "n": 0,
          "scriptPubKey": {
            "asm": "048df180ad653c3040e91b8cf559a04b695fdf7bc250d0431ce73dcc1d074d3605f87f65e18cd18fe6a59453a0aa69c8a2f89b8d7af0b2407da7683e4a0ab23280 OP_CHECKSIG",
            "desc": "pk(048df180ad653c3040e91b8cf559a04b695fdf7bc250d0431ce73dcc1d074d3605f87f65e18cd18fe6a59453a0aa69c8a2f89b8d7af0b2407da7683e4a0ab23280)#n63n04jz",
            "hex": "41048df180ad653c3040e91b8cf559a04b695fdf7bc250d0431ce73dcc1d074d3605f87f65e18cd18fe6a59453a0aa69c8a2f89b8d7af0b2407da7683e4a0ab23280ac",
            "type": "pubkey"
          }
        }
      ],
      "hex": "01000000010000000000000000000000000000000000000000000000000000000000000000ffffffff0804ffff001d029201ffffffff0100f2052a010000004341048df180ad653c3040e91b8cf559a04b695fdf7bc250d0431ce73dcc1d074d3605f87f65e18cd18fe6a59453a0aa69c8a2f89b8d7af0b2407da7683e4a0ab23280ac00000000"
    }
  ]
}