{
  "hash": "000000006d0f8fea03ffbc8a045e8df4d35f571d8e7297503a6a64269344c152",
  "confirmations": 45869,
  "height": 7229,
  "version": 1,
  "versionHex": "00000001",
  "merkleroot": "f85dccfd726f480071d5115161330c30fbd70622739d0868364e3329fe4b84e7",
  "time": 1236891954,
  "mediantime": 1236888879,
  "nonce": 2709022468,
  "bits": "1d00ffff",
  "difficulty": 1,
  "chainwork": "00000000000000000000000000000000000000000000000000001c3e1c3e1c3e",
  "nTx": 1,
  "previousblockhash": "0000000034919ca31173f4f19fd71f9d9b46d9f0d3a2231bc6ce83aa569b1390",
  "nextblockhash": "000000008a8b89114c0603abf59b0853e0ab5d4d8762aed2dd49b87dd9cd3355",
  "strippedsize": 216,
  "size": 216,
  "weight": 864,
  "tx": [
    {
      "txid": "f85dccfd726f480071d5115161330c30fbd70622739d0868364e3329fe4b84e7",
      "hash": "f85dccfd726f480071d5115161330c30fbd70622739d0868364e3329fe4b84e7",
      "version": 1,
      "size": 135,
      "vsize": 135,
      "weight": 540,
      "locktime": 0,
      "vin": [
        {
          "coinbase": "04ffff001d021d06",
          "sequence": 4294967295
        }
      ],
      "vout": [
        {
          "value": 50.0,
          "n": 0,
          "scriptPubKey": {
            "asm": "042f3b1f9ddd4cae125036599a5cbe531b31c8dd25637f39ea3745eed252cd1347ec459f928cf55177fd8fb7328af441360526c50e1963358cd0b7292636341ae4 OP_CHECKSIG",
            "desc": "pk(042f3b1f9ddd4cae125036599a5cbe531b31c8dd25637f39ea3745eed252cd1347ec459f928cf55177fd8fb7328af441360526c50e1963358cd0b7292636341ae4)#cp5vs0ym",
            "hex": "41042f3b1f9ddd4cae125036599a5cbe531b31c8dd25637f39ea3745eed252cd1347ec459f928cf55177fd8fb7328af441360526c50e1963358cd0b7292636341ae4ac",
            "type": "pubkey"
          }
        }
      ],
      "hex": "01000000010000000000000000000000000000000000000000000000000000000000000000ffffffff0804ffff001d021d06ffffffff0100f2052a010000004341042f3b1f9ddd4cae125036599a5cbe531b31c8dd25637f39ea3745eed252cd1347ec459f928cf55177fd8fb7328af441360526c50e1963358cd0b7292636341ae4ac00000000"
    }
  ]
}