{
  "hash": "00000000979acfde1a0429e84cc740ffe1ff9881c7bed2bc5ca886faa7368e07",
  "confirmations": 47904,
  "height": 5194,
  "version": 1,
  "versionHex": "00000001",
  "merkleroot": "cd0c105e6d5cd7b21e12241ee0d43c83e441b321d0d83d161700496d7d462402",
  "time": 1235283263,
  "mediantime": 1235278698,
  "nonce": 338858346,
  "bits": "1d00ffff",
  "difficulty": 1,
  "chainwork": "0000000000000000000000000000000000000000000000000000144b144b144b",
  "nTx": 1,
  "previousblockhash": "000000000b2b5c4032c9c9b96e7048ccfb1673ba6f445ac76bad8f6ba1b62fc6",
  "nextblockhash": "00000000943ba7339120b1825aac5f04c1d3b353841168b3fe9c2bd088416a21",
  "strippedsize": 215,
  "size": 215,
  "weight": 860,
  "tx": [
    {
      "txid": "cd0c105e6d5cd7b21e12241ee0d43c83e441b321d0d83d161700496d7d462402",
      "hash": "cd0c105e6d5cd7b21e12241ee0d43c83e441b321d0d83d161700496d7d462402",
      "version": 1,
      "size": 134,
      "vsize": 134,
      "weight": 536,
      "locktime": 0,
      "vin": [
        {
          "coinbase": "04ffff001d0125",
          "sequence": 4294967295
        }
      ],
      "vout": [
        {
          "value": 50.0,
          "n": 0,
          "scriptPubKey": {
            "asm": "044308d67c0cec571c6ad0605bc9fd61b69d4829cdf3a777167026215704bff6332b65822669ae0f31a543222d1b8656771f64d8ae380a24a6b977672cc61866ce OP_CHECKSIG",
            "desc": "pk(044308d67c0cec571c6ad0605bc9fd61b69d4829cdf3a777167026215704bff6332b65822669ae0f31a543222d1b8656771f64d8ae380a24a6b977672cc61866ce)#gqnnn44k",
            "hex": "41044308d67c0cec571c6ad0605bc9fd61b69d4829cdf3a777167026215704bff6332b65822669ae0f31a543222d1b8656771f64d8ae380a24a6b977672cc61866ceac",
            "type": "pubkey"
          }
        }
      ],
      "hex": "01000000010000000000000000000000000000000000000000000000000000000000000000ffffffff0704ffff001d0125ffffffff0100f2052a010000004341044308d67c0cec571c6ad0605bc9fd61b69d4829cdf3a777167026215704bff6332b65822669ae0f31a543222d1b8656771f64d8ae380a24a6b977672cc61866ceac00000000"
    }
  ]
}