{
  "hash": "00000000493731c59d3f2c93a61e501a0f837e5605beabcf3a6ad9cd7987071e",
  "confirmations": 47143,
  "height": 5955,
  "version": 1,
  "versionHex": "00000001",
  "merkleroot": "5ed5661f31d8046b1e475fb2c975194fd23abccba7289e22f31aff4318eb5aa0",
  "time": 1235891808,
  "mediantime": 1235888724,
  "nonce": 1796151096,
  "bits": "1d00ffff",
  "difficulty": 1,
  "chainwork": "0000000000000000000000000000000000000000000000000000174417441744",
  "nTx": 1,
  "previousblockhash": "00000000c2b16a00083a94ffad81805bc6cc639138e967f2af6a4bf165a0d599",
  "nextblockhash": "00000000a7c151b1265ba5113696eca9ea57a0e2beaaa9b7e3cf4718cad07a4c",
  "strippedsize": 216,
  "size": 216,
  "weight": 864,
  "tx": [
    {
      "txid": "5ed5661f31d8046b1e475fb2c975194fd23abccba7289e22f31aff4318eb5aa0",
      "hash": "5ed5661f31d8046b1e475fb2c975194fd23abccba7289e22f31aff4318eb5aa0",
      "version": 1,
      "size": 135,
      "vsize": 135,
      "weight": 540,
      "locktime": 0,
      "vin": [
        {
          "coinbase": "04ffff001d021904",
          "sequence": 4294967295
        }
      ],
      "vout": [
        {
          "value": 50.0,
          "n": 0,
          "scriptPubKey": {
            "asm": "04433fc26b488442feb9289fbfc0e2b0c00a21c207d12e5e331b851d26c7b6c6178ea574add26d6388a2afa991b298e96e2292eae2f210655ee0b72c7031bc7d0f OP_CHECKSIG",
            "desc": "pk(04433fc26b488442feb9289fbfc0e2b0c00a21c207d12e5e331b851d26c7b6c6178ea574add26d6388a2afa991b298e96e2292eae2f210655ee0b72c7031bc7d0f)#tcdkv322",
            "hex": "4104433fc26b488442feb9289fbfc0e2b0c00a21c207d12e5e331b851d26c7b6c6178ea574add26d6388a2afa991b298e96e2292eae2f210655ee0b72c7031bc7d0fac",
            "type": "pubkey"
          }
        }
      ],
      "hex": "01000000010000000000000000000000000000000000000000000000000000000000000000ffffffff0804ffff001d021904ffffffff0100f2052a01000000434104433fc26b488442feb9289fbfc0e2b0c00a21c207d12e5e331b851d26c7b6c6178ea574add26d6388a2afa991b298e96e2292eae2f210655ee0b72c7031bc7d0fac00000000"
    }
  ]
}