{
  "hash": "00000000c799052a807b645a8b0407a35475d0a2cae92544d41c5a30226f4013",
  "confirmations": 49772,
  "height": 3326,
  "version": 1,
  "versionHex": "00000001",
  "merkleroot": "696346ac3dbdf018e3d40e445573527c87e9656bdbedb7a466275cb011d9a03a",
  "time": 1233984314,
  "mediantime": 1233981903,
  "nonce": 178134126,
  "bits": "1d00ffff",
  "difficulty": 1,
  "chainwork": "00000000000000000000000000000000000000000000000000000cff0cff0cff",
  "nTx": 1,
  "previousblockhash": "000000003ad78dad85af064768461527ee2458869ae7066cd22b826fd6c31dbb",
  "nextblockhash": "00000000eff54d5e41ba2af7f47e568590ffc1369671e0e9bbf710778a271948",
  "strippedsize": 215,
  "size": 215,
  "weight": 860,
  "tx": [
    {
      "txid": "696346ac3dbdf018e3d40e445573527c87e9656bdbedb7a466275cb011d9a03a",
      "hash": "696346ac3dbdf018e3d40e445573527c87e9656bdbedb7a466275cb011d9a03a",
      "version": 1,
      "size": 134,
      "vsize": 134,
      "weight": 536,
      "locktime": 0,
      "vin": [
        {
          "coinbase": "04ffff001d010c",
          "sequence": 4294967295
        }
      ],
      "vout": [
        {
          "value": 50.0,
          "n": 0,
          "scriptPubKey": {
            "asm": "04e2bb6e27b8897095e5c6ed002a91f6fbe90b064849cea888700a0aeae0cd89204bf9651ab22616468e397960f5c40b86e60ca2fdabbb5de96492a394b6d3abd7 OP_CHECKSIG",
            "desc": "pk(04e2bb6e27b8897095e5c6ed002a91f6fbe90b064849cea888700a0aeae0cd89204bf9651ab22616468e397960f5c40b86e60ca2fdabbb5de96492a394b6d3abd7)#67r9p24g",
            "hex": "4104e2bb6e27b8897095e5c6ed002a91f6fbe90b064849cea888700a0aeae0cd89204bf9651ab22616468e397960f5c40b86e60ca2fdabbb5de96492a394b6d3abd7ac",
            "type": "pubkey"
          }
        }
      ],
      "hex": "01000000010000000000000000000000000000000000000000000000000000000000000000ffffffff0704ffff001d010cffffffff0100f2052a01000000434104e2bb6e27b8897095e5c6ed002a91f6fbe90b064849cea888700a0aeae0cd89204bf9651ab22616468e397960f5c40b86e60ca2fdabbb5de96492a394b6d3abd7ac00000000"
    }
  ]
}