{
  "hash": "00000000a258ca4d95258d15db20e5305082039c75e33d8b954eea3dcad14d88",
  "confirmations": 52559,
  "height": 522,
  "version": 1,
  "versionHex": "00000001",
  "merkleroot": "246ca5a606d85731d2df876af8624f89c05fdb45d07d5aa106ec28920a77f358",
  "time": 1231983047,
  "mediantime": 1231979559,
  "nonce": 3710145049,
  "bits": "1d00ffff",
  "difficulty": 1,
  "chainwork": "0000000000000000000000000000000000000000000000000000020b020b020b",
  "nTx": 1,
  "previousblockhash": "00000000df876b240d833725492cff229b57ce6cd27f23e55eb972c992fb099f",
  "nextblockhash": "000000003c22a2357ddc3c55c098346c9ee68510984b2c41c351c548ef295162",
  "strippedsize": 216,
  "size": 216,
  "weight": 864,
  "tx": [
    {
      "txid": "246ca5a606d85731d2df876af8624f89c05fdb45d07d5aa106ec28920a77f358",
      "hash": "246ca5a606d85731d2df876af8624f89c05fdb45d07d5aa106ec28920a77f358",
      "version": 1,
      "size": 135,
      "vsize": 135,
      "weight": 540,
      "locktime": 0,
      "vin": [
        {
          "coinbase": "04ffff001d02f704",
          "sequence": 4294967295
        }
      ],
      "vout": [
        {
          "value": 50.0,
          "n": 0,
          "scriptPubKey": {
            "asm": "04582b5f27056f810daf4952f6e5a23a53e8eb85088a694b8cdb0ac72580108684b3c765e8c6dae6bac89f6e730f86c6c9e7c8d6a28650adba9cd9917532cf402a OP_CHECKSIG",
            "desc": "pk(04582b5f27056f810daf4952f6e5a23a53e8eb85088a694b8cdb0ac72580108684b3c765e8c6dae6bac89f6e730f86c6c9e7c8d6a28650adba9cd9917532cf402a)#q59pzrpw",
            "hex": "4104582b5f27056f810daf4952f6e5a23a53e8eb85088a694b8cdb0ac72580108684b3c765e8c6dae6bac89f6e730f86c6c9e7c8d6a28650adba9cd9917532cf402aac",
            "type": "pubkey"
          }
        }
      ],
      "hex": "01000000010000000000000000000000000000000000000000000000000000000000000000ffffffff0804ffff001d02f704ffffffff0100f2052a01000000434104582b5f27056f810daf4952f6e5a23a53e8eb85088a694b8cdb0ac72580108684b3c765e8c6dae6bac89f6e730f86c6c9e7c8d6a28650adba9cd9917532cf402aac00000000"
    }
  ]
}