{
  "hash": "00000000af3d21dcebdcd1cb3ed6cfe4654612868f2879b45456d4d3691b7d79",
  "confirmations": 46337,
  "height": 6761,
  "version": 1,
  "versionHex": "00000001",
  "merkleroot": "92566b310d3d8345cafa0ad0d2038b68e8f563e8f2a1e1dd7565bcd5b28feb52",
  "time": 1236530299,
  "mediantime": 1236524849,
  "nonce": 100258932,
  "bits": "1d00ffff",
  "difficulty": 1,
  "chainwork": "00000000000000000000000000000000000000000000000000001a6a1a6a1a6a",
  "nTx": 1,
  "previousblockhash": "000000007991e021ac8acba795b98456eb34c205423d873640cd5ef8a84b4a1d",
  "nextblockhash": "000000006d3205179f1c3cf5da9da2b503aedf20c0cefb7c91c0293ab61113b8",
  "strippedsize": 216,
  "size": 216,
  "weight": 864,
  "tx": [
    {
      "txid": "92566b310d3d8345cafa0ad0d2038b68e8f563e8f2a1e1dd7565bcd5b28feb52",
      "hash": "92566b310d3d8345cafa0ad0d2038b68e8f563e8f2a1e1dd7565bcd5b28feb52",
      "version": 1,
      "size": 135,
      "vsize": 135,
      "weight": 540,
      "locktime": 0,
      "vin": [
        {
          "coinbase": "04ffff001d025f02",
          "sequence": 4294967295
        }
      ],
      "vout": [
        {
          "value": 50.0,
          "n": 0,
          "scriptPubKey": {
            "asm": "041ef5e910bb48b7b20894206b5ef9089e17aec5fec2494713fbc19390e35dced9e335d4325bfb9d50a523acd6bad87e9fc88acf8484e2f5dbde2ec110608a9f4b OP_CHECKSIG",
            "desc": "pk(041ef5e910bb48b7b20894206b5ef9089e17aec5fec2494713fbc19390e35dced9e335d4325bfb9d50a523acd6bad87e9fc88acf8484e2f5dbde2ec110608a9f4b)#660merj5",
            "hex": "41041ef5e910bb48b7b20894206b5ef9089e17aec5fec2494713fbc19390e35dced9e335d4325bfb9d50a523acd6bad87e9fc88acf8484e2f5dbde2ec110608a9f4bac",
            "type": "pubkey"
          }
        }
      ],
      "hex": "01000000010000000000000000000000000000000000000000000000000000000000000000ffffffff0804ffff001d025f02ffffffff0100f2052a010000004341041ef5e910bb48b7b20894206b5ef9089e17aec5fec2494713fbc19390e35dced9e335d4325bfb9d50a523acd6bad87e9fc88acf8484e2f5dbde2ec110608a9f4bac00000000"
    }
  ]
}