{
  "hash": "00000000894a0f79cbdd4d62603732823e5faeadc3d9781255a5f5ab8b667c53",
  "confirmations": 44204,
  "height": 8894,
  "version": 1,
  "versionHex": "00000001",
  "merkleroot": "3ac0071a6512cd7d31fa938ec6cd309d43fd6c3d3daf87abb892ba369e24736a",
  "time": 1238173962,
  "mediantime": 1238169860,
  "nonce": 751565872,
  "bits": "1d00ffff",
  "difficulty": 1,
  "chainwork": "000000000000000000000000000000000000000000000000000022bf22bf22bf",
  "nTx": 1,
  "previousblockhash": "000000003390d0477a991cda2320081f95bd715186b0eabcff543bce16bf57d6",
  "nextblockhash": "000000005a0f22af67816e3f62c05e64a7c3a9d451e7aa1312ad896e1c2f82d5",
  "strippedsize": 216,
  "size": 216,
  "weight": 864,
  "tx": [
    {
      "txid": "3ac0071a6512cd7d31fa938ec6cd309d43fd6c3d3daf87abb892ba369e24736a",
      "hash": "3ac0071a6512cd7d31fa938ec6cd309d43fd6c3d3daf87abb892ba369e24736a",
      "version": 1,
      "size": 135,
      "vsize": 135,
      "weight": 540,
      "locktime": 0,
      "vin": [
        {
          "coinbase": "04ffff001d024f04",
          "sequence": 4294967295
        }
      ],
      "vout": [
        {
          "value": 50.0,
          "n": 0,
          "scriptPubKey": {
            "asm": "04252c1b18bc20db3d7a593b37b1b3c3d44a30bd854c27875c3b5688e349a5367e2ebcbfa93e396ec413b0796831c42ef5ed9cd111a207231ee9104f799e575a25 OP_CHECKSIG",
            "desc": "pk(04252c1b18bc20db3d7a593b37b1b3c3d44a30bd854c27875c3b5688e349a5367e2ebcbfa93e396ec413b0796831c42ef5ed9cd111a207231ee9104f799e575a25)#g65muwek",
            "hex": "4104252c1b18bc20db3d7a593b37b1b3c3d44a30bd854c27875c3b5688e349a5367e2ebcbfa93e396ec413b0796831c42ef5ed9cd111a207231ee9104f799e575a25ac",
            "type": "pubkey"
          }
        }
      ],
      "hex": "01000000010000000000000000000000000000000000000000000000000000000000000000ffffffff0804ffff001d024f04ffffffff0100f2052a01000000434104252c1b18bc20db3d7a593b37b1b3c3d44a30bd854c27875c3b5688e349a5367e2ebcbfa93e396ec413b0796831c42ef5ed9cd111a207231ee9104f799e575a25ac00000000"
    }
  ]
}