{
  "hash": "00000000b995aedc9be48fdfe76499c79c9db2b6515e72c10483cf573aa325af",
  "confirmations": 49813,
  "height": 3285,
  "version": 1,
  "versionHex": "00000001",
  "merkleroot": "6229dbab39210eaa56885d5f02b76bac8292e08cce4f679280e524c81b8dd41a",
  "time": 1233960614,
  "mediantime": 1233956115,
  "nonce": 276035883,
  "bits": "1d00ffff",
  "difficulty": 1,
  "chainwork": "00000000000000000000000000000000000000000000000000000cd60cd60cd6",
  "nTx": 1,
  "previousblockhash": "00000000390b31bb5fa93549aa99b5e86f877b4d07b725fd350f9c9481a31eb5",
  "nextblockhash": "00000000f10906b2ba9bc24818a505636a81767da51f266deb79ea06297aebdf",
  "strippedsize": 216,
  "size": 216,
  "weight": 864,
  "tx": [
    {
      "txid": "6229dbab39210eaa56885d5f02b76bac8292e08cce4f679280e524c81b8dd41a",
      "hash": "6229dbab39210eaa56885d5f02b76bac8292e08cce4f679280e524c81b8dd41a",
      "version": 1,
      "size": 135,
      "vsize": 135,
      "weight": 540,
      "locktime": 0,
      "vin": [
        {
          "coinbase": "04ffff001d020004",
          "sequence": 4294967295
        }
      ],
      "vout": [
        {
          "value": 50.0,
          "n": 0,
          "scriptPubKey": {
            "asm": "04cd462d2da3d3a495244881637292813ddb684e1a9915c48b6ec852062cbeec9486a795477ee2442599994a41ffcec03f11a5129d95a2dea92e94848964245f32 OP_CHECKSIG",
            "desc": "pk(04cd462d2da3d3a495244881637292813ddb684e1a9915c48b6ec852062cbeec9486a795477ee2442599994a41ffcec03f11a5129d95a2dea92e94848964245f32)#vtjga38c",
            "hex": "4104cd462d2da3d3a495244881637292813ddb684e1a9915c48b6ec852062cbeec9486a795477ee2442599994a41ffcec03f11a5129d95a2dea92e94848964245f32ac",
            "type": "pubkey"
          }
        }
      ],
      "hex": "01000000010000000000000000000000000000000000000000000000000000000000000000ffffffff0804ffff001d020004ffffffff0100f2052a01000000434104cd462d2da3d3a495244881637292813ddb684e1a9915c48b6ec852062cbeec9486a795477ee2442599994a41ffcec03f11a5129d95a2dea92e94848964245f32ac00000000"
    }
  ]
}