{
  "hash": "0000000011773ce20390281d0e25ded70385b40bd16983ed72339daa696238f6",
  "confirmations": 43427,
  "height": 9671,
  "version": 1,
  "versionHex": "00000001",
  "merkleroot": "dc3ce6aa29462a3d989b3023a9d912683cc174b00bc3a4db8bf522e63765a739",
  "time": 1238755503,
  "mediantime": 1238751573,
  "nonce": 2585272866,
  "bits": "1d00ffff",
  "difficulty": 1,
  "chainwork": "000000000000000000000000000000000000000000000000000025c825c825c8",
  "nTx": 1,
  "previousblockhash": "0000000090eb010c9944710e54cb525b6e1c062603a2f935c6c758b5209b4ff4",
  "nextblockhash": "000000000e5be92ebf28748e676d3c55dc44a002ca56bd034851a47458cc2a57",
  "strippedsize": 216,
  "size": 216,
  "weight": 864,
  "tx": [
    {
      "txid": "dc3ce6aa29462a3d989b3023a9d912683cc174b00bc3a4db8bf522e63765a739",
      "hash": "dc3ce6aa29462a3d989b3023a9d912683cc174b00bc3a4db8bf522e63765a739",
      "version": 1,
      "size": 135,
      "vsize": 135,
      "weight": 540,
      "locktime": 0,
      "vin": [
        {
          "coinbase": "04ffff001d02ef07",
          "sequence": 4294967295
        }
      ],
      "vout": [
        {
          "value": 50.0,
          "n": 0,
          "scriptPubKey": {
            "asm": "04ba9b56eb7ef7fc5f249d5ee7af94f1cbc72bdf6fc8ff2c4de05ffea364f64d98e80206238825bbee831b4abbd4bc8b6ef9349b1f9d5f837de33eef9e5cc8015d OP_CHECKSIG",
            "desc": "pk(04ba9b56eb7ef7fc5f249d5ee7af94f1cbc72bdf6fc8ff2c4de05ffea364f64d98e80206238825bbee831b4abbd4bc8b6ef9349b1f9d5f837de33eef9e5cc8015d)#72rmy2s4",
            "hex": "4104ba9b56eb7ef7fc5f249d5ee7af94f1cbc72bdf6fc8ff2c4de05ffea364f64d98e80206238825bbee831b4abbd4bc8b6ef9349b1f9d5f837de33eef9e5cc8015dac",
            "type": "pubkey"
          }
        }
      ],
      "hex": "01000000010000000000000000000000000000000000000000000000000000000000000000ffffffff0804ffff001d02ef07ffffffff0100f2052a01000000434104ba9b56eb7ef7fc5f249d5ee7af94f1cbc72bdf6fc8ff2c4de05ffea364f64d98e80206238825bbee831b4abbd4bc8b6ef9349b1f9d5f837de33eef9e5cc8015dac00000000"
    }
  ]
}