{
  "hash": "0000000015762864c8786d5a9d1917cf003c60eec9aa620d7485bc2abb1e5ac8",
  "confirmations": 47340,
  "height": 5758,
  "version": 1,
  "versionHex": "00000001",
  "merkleroot": "5795c436621d42f5e801bbbae5f5ab2713598f54d6a18f63631a5d78ca459149",
  "time": 1235729367,
  "mediantime": 1235726136,
  "nonce": 1194032166,
  "bits": "1d00ffff",
  "difficulty": 1,
  "chainwork": "0000000000000000000000000000000000000000000000000000167f167f167f",
  "nTx": 1,
  "previousblockhash": "000000007c0b9e3b8c9ca8e7d46248818118358245d3d248c4c9a73367e1785e",
  "nextblockhash": "00000000b4c3fa84b36a8e657b430901fcff19205a281f0e8a00e1cbad2f189d",
  "strippedsize": 215,
  "size": 215,
  "weight": 860,
  "tx": [
    {
      "txid": "5795c436621d42f5e801bbbae5f5ab2713598f54d6a18f63631a5d78ca459149",
      "hash": "5795c436621d42f5e801bbbae5f5ab2713598f54d6a18f63631a5d78ca459149",
      "version": 1,
      "size": 134,
      "vsize": 134,
      "weight": 536,
      "locktime": 0,
      "vin": [
        {
          "coinbase": "04ffff001d0121",
          "sequence": 4294967295
        }
      ],
      "vout": [
        {
          "value": 50.0,
          "n": 0,
          "scriptPubKey": {
            "asm": "043c9d952de7441bc9499b0aecbc2788a9499a479e8913d5b457b7fe098a6244c6095de523fc285b98d741626c1526edcbe5340c2fad7131e45bb24e333282434a OP_CHECKSIG",
            "desc": "pk(043c9d952de7441bc9499b0aecbc2788a9499a479e8913d5b457b7fe098a6244c6095de523fc285b98d741626c1526edcbe5340c2fad7131e45bb24e333282434a)#4jy6ml3r",
            "hex": "41043c9d952de7441bc9499b0aecbc2788a9499a479e8913d5b457b7fe098a6244c6095de523fc285b98d741626c1526edcbe5340c2fad7131e45bb24e333282434aac",
            "type": "pubkey"
          }
        }
      ],
      "hex": "01000000010000000000000000000000000000000000000000000000000000000000000000ffffffff0704ffff001d0121ffffffff0100f2052a010000004341043c9d952de7441bc9499b0aecbc2788a9499a479e8913d5b457b7fe098a6244c6095de523fc285b98d741626c1526edcbe5340c2fad7131e45bb24e333282434aac00000000"
    }
  ]
}