{
  "hash": "00000000a210741369a4ce79cb9a318bc15e02acc3b16ea9657492bb0d3e3fd2",
  "confirmations": 50199,
  "height": 2899,
  "version": 1,
  "versionHex": "00000001",
  "merkleroot": "cb383392822e4337d7cda508b4f99024b196c7d68f2e8ad58fcd62214e97a11b",
  "time": 1233692120,
  "mediantime": 1233687668,
  "nonce": 257247020,
  "bits": "1d00ffff",
  "difficulty": 1,
  "chainwork": "00000000000000000000000000000000000000000000000000000b540b540b54",
  "nTx": 1,
  "previousblockhash": "00000000801e25fd507871048f2cea9415287790a83412995427eecebc4c1125",
  "nextblockhash": "00000000a4342e04aa766386cdb4da70137efd47ac271f1a4e18429af3020a7c",
  "strippedsize": 216,
  "size": 216,
  "weight": 864,
  "tx": [
    {
      "txid": "cb383392822e4337d7cda508b4f99024b196c7d68f2e8ad58fcd62214e97a11b",
      "hash": "cb383392822e4337d7cda508b4f99024b196c7d68f2e8ad58fcd62214e97a11b",
      "version": 1,
      "size": 135,
      "vsize": 135,
      "weight": 540,
      "locktime": 0,
      "vin": [
        {
          "coinbase": "04ffff001d025907",
          "sequence": 4294967295
        }
      ],
      "vout": [
        {
          "value": 50.0,
          "n": 0,
          "scriptPubKey": {
            "asm": "0467c6047887c9edbc24686725f263357f6706f64ab4775fad90b245abce1b35fe1fbfc812127e32e66179619a30eca2177e8801efbc3833d6afe7f11c9ea3c046 OP_CHECKSIG",
            "desc": "pk(0467c6047887c9edbc24686725f263357f6706f64ab4775fad90b245abce1b35fe1fbfc812127e32e66179619a30eca2177e8801efbc3833d6afe7f11c9ea3c046)#g3zaqs5u",
            "hex": "410467c6047887c9edbc24686725f263357f6706f64ab4775fad90b245abce1b35fe1fbfc812127e32e66179619a30eca2177e8801efbc3833d6afe7f11c9ea3c046ac",
            "type": "pubkey"
          }
        }
      ],
      "hex": "01000000010000000000000000000000000000000000000000000000000000000000000000ffffffff0804ffff001d025907ffffffff0100f2052a0100000043410467c6047887c9edbc24686725f263357f6706f64ab4775fad90b245abce1b35fe1fbfc812127e32e66179619a30eca2177e8801efbc3833d6afe7f11c9ea3c046ac00000000"
    }
  ]
}