{
  "hash": "00000000d2101078511eef00bc4ef45bf9617cfa36440a6d9b5a0bc15f77fa40",
  "confirmations": 50550,
  "height": 2548,
  "version": 1,
  "versionHex": "00000001",
  "merkleroot": "3b1263c60510b4d182d9333d544c1073fbee51c79061bbf236d8fb2c1ca34fd6",
  "time": 1233451816,
  "mediantime": 1233446375,
  "nonce": 1521539607,
  "bits": "1d00ffff",
  "difficulty": 1,
  "chainwork": "000000000000000000000000000000000000000000000000000009f509f509f5",
  "nTx": 1,
  "previousblockhash": "0000000098f2f5e9a0d101e620aab3f07d29ebaf05195b8cfef4620dd883b274",
  "nextblockhash": "00000000594397a29ea81a2a61f94299b6005d26c1ebe942236fb91649fd7929",
  "strippedsize": 216,
  "size": 216,
  "weight": 864,
  "tx": [
    {
      "txid": "3b1263c60510b4d182d9333d544c1073fbee51c79061bbf236d8fb2c1ca34fd6",
      "hash": "3b1263c60510b4d182d9333d544c1073fbee51c79061bbf236d8fb2c1ca34fd6",
      "version": 1,
      "size": 135,
      "vsize": 135,
      "weight": 540,
      "locktime": 0,
      "vin": [
        {
          "coinbase": "04ffff001d02d601",
          "sequence": 4294967295
        }
      ],
      "vout": [
        {
          "value": 50.0,
          "n": 0,
          "scriptPubKey": {
            "asm": "041fe074752b6660460ec96f071bffccc774838c99c6d05d4decf1b4afc642c68dce4df1158916502da45763b1cae1689cf8a284839fb447aeedf2154c8a4c2ade OP_CHECKSIG",
            "desc": "pk(041fe074752b6660460ec96f071bffccc774838c99c6d05d4decf1b4afc642c68dce4df1158916502da45763b1cae1689cf8a284839fb447aeedf2154c8a4c2ade)#duu9c38s",
            "hex": "41041fe074752b6660460ec96f071bffccc774838c99c6d05d4decf1b4afc642c68dce4df1158916502da45763b1cae1689cf8a284839fb447aeedf2154c8a4c2adeac",
            "type": "pubkey"
          }
        }
      ],
      "hex": "01000000010000000000000000000000000000000000000000000000000000000000000000ffffffff0804ffff001d02d601ffffffff0100f2052a010000004341041fe074752b6660460ec96f071bffccc774838c99c6d05d4decf1b4afc642c68dce4df1158916502da45763b1cae1689cf8a284839fb447aeedf2154c8a4c2adeac00000000"
    }
  ]
}