{
  "hash": "000000006b7195baee156676bbdd2ac7df813bae4a3a73e7e1583a9526ba6762",
  "confirmations": 46401,
  "height": 6697,
  "version": 1,
  "versionHex": "00000001",
  "merkleroot": "9c32a620cf4836144a76c6ba0ff03da7310952b48b3df77c21a30b608c4a8478",
  "time": 1236480112,
  "mediantime": 1236477911,
  "nonce": 1298153251,
  "bits": "1d00ffff",
  "difficulty": 1,
  "chainwork": "00000000000000000000000000000000000000000000000000001a2a1a2a1a2a",
  "nTx": 1,
  "previousblockhash": "00000000a977c83c38242462733a5180f0e30774cfd05bc2763a07505213c37a",
  "nextblockhash": "00000000f8aead2bc4e12845ef4ca3467f49d01a1a8cdbb01302c9462feeef63",
  "strippedsize": 216,
  "size": 216,
  "weight": 864,
  "tx": [
    {
      "txid": "9c32a620cf4836144a76c6ba0ff03da7310952b48b3df77c21a30b608c4a8478",
      "hash": "9c32a620cf4836144a76c6ba0ff03da7310952b48b3df77c21a30b608c4a8478",
      "version": 1,
      "size": 135,
      "vsize": 135,
      "weight": 540,
      "locktime": 0,
      "vin": [
        {
          "coinbase": "04ffff001d02d706",
          "sequence": 4294967295
        }
      ],
      "vout": [
        {
          "value": 50.0,
          "n": 0,
          "scriptPubKey": {
            "asm": "04ffcf63e24813f44663c7a98002d8af5b57485ae789333cb2e5052824270665dcd1900b7b5a36ab582cc1b95329860c8f629ea2c5709c95e95013c20769e2c3d8 OP_CHECKSIG",
            "desc": "pk(04ffcf63e24813f44663c7a98002d8af5b57485ae789333cb2e5052824270665dcd1900b7b5a36ab582cc1b95329860c8f629ea2c5709c95e95013c20769e2c3d8)#uw66qcpz",
            "hex": "4104ffcf63e24813f44663c7a98002d8af5b57485ae789333cb2e5052824270665dcd1900b7b5a36ab582cc1b95329860c8f629ea2c5709c95e95013c20769e2c3d8ac",
            "type": "pubkey"
          }
        }
      ],
      "hex": "01000000010000000000000000000000000000000000000000000000000000000000000000ffffffff0804ffff001d02d706ffffffff0100f2052a01000000434104ffcf63e24813f44663c7a98002d8af5b57485ae789333cb2e5052824270665dcd1900b7b5a36ab582cc1b95329860c8f629ea2c5709c95e95013c20769e2c3d8ac00000000"
    }
  ]
}