{
  "hash": "00000000f332186781b7f38a2bc6fc08010610e5d14403753b0c86a88e7651ca",
  "confirmations": 44365,
  "height": 8733,
  "version": 1,
  "versionHex": "00000001",
  "merkleroot": "084a957efc1ad8d4dbca93e78f09ecfa7c423e2eab5863388f3f6f57856b0cd8",
  "time": 1238045914,
  "mediantime": 1238041500,
  "nonce": 3030507550,
  "bits": "1d00ffff",
  "difficulty": 1,
  "chainwork": "0000000000000000000000000000000000000000000000000000221e221e221e",
  "nTx": 1,
  "previousblockhash": "00000000fd5fc34e74cce9bd0147f70253e29960c62e7ae3839b489f5d890f91",
  "nextblockhash": "00000000b111c9f1c8b271a1add221c8c4b26b5af4950eac6661eee1f25c3b2b",
  "strippedsize": 216,
  "size": 216,
  "weight": 864,
  "tx": [
    {
      "txid": "084a957efc1ad8d4dbca93e78f09ecfa7c423e2eab5863388f3f6f57856b0cd8",
      "hash": "084a957efc1ad8d4dbca93e78f09ecfa7c423e2eab5863388f3f6f57856b0cd8",
      "version": 1,
      "size": 135,
      "vsize": 135,
      "weight": 540,
      "locktime": 0,
      "vin": [
        {
          "coinbase": "04ffff001d027101",
          "sequence": 4294967295
        }
      ],
      "vout": [
        {
          "value": 50.0,
          "n": 0,
          "scriptPubKey": {
            "asm": "04404fe30314c8e676daef4ee2fe398375f7a70b3468aca13d7a3b8dc18e1a61783bf4e5c76cd1b49883be3336af6e8b3ff7767e679d7372a6e8ec412226b4fbdc OP_CHECKSIG",
            "desc": "pk(04404fe30314c8e676daef4ee2fe398375f7a70b3468aca13d7a3b8dc18e1a61783bf4e5c76cd1b49883be3336af6e8b3ff7767e679d7372a6e8ec412226b4fbdc)#4mtny2l9",
            "hex": "4104404fe30314c8e676daef4ee2fe398375f7a70b3468aca13d7a3b8dc18e1a61783bf4e5c76cd1b49883be3336af6e8b3ff7767e679d7372a6e8ec412226b4fbdcac",
            "type": "pubkey"
          }
        }
      ],
      "hex": "01000000010000000000000000000000000000000000000000000000000000000000000000ffffffff0804ffff001d027101ffffffff0100f2052a01000000434104404fe30314c8e676daef4ee2fe398375f7a70b3468aca13d7a3b8dc18e1a61783bf4e5c76cd1b49883be3336af6e8b3ff7767e679d7372a6e8ec412226b4fbdcac00000000"
    }
  ]
}