{
  "hash": "00000000eda3c09a860212d3c94703be7f159d5964d666df9b97c9b97e68f3ad",
  "confirmations": 51152,
  "height": 1946,
  "version": 1,
  "versionHex": "00000001",
  "merkleroot": "ea1a1315f903e8fcbf1c103b55647f6e51d8145b058d134098cf2c2e30347c75",
  "time": 1233004797,
  "mediantime": 1232999321,
  "nonce": 3511759930,
  "bits": "1d00ffff",
  "difficulty": 1,
  "chainwork": "0000000000000000000000000000000000000000000000000000079b079b079b",
  "nTx": 1,
  "previousblockhash": "0000000059ca1017ff6862865f8e3faaa75d57e64b7dd23d223e964bca250cc1",
  "nextblockhash": "0000000039dc3dd380933cba192ed683a2c8c80bee7db091b6a0be1c722c7fe8",
  "strippedsize": 216,
  "size": 216,
  "weight": 864,
  "tx": [
    {
      "txid": "ea1a1315f903e8fcbf1c103b55647f6e51d8145b058d134098cf2c2e30347c75",
      "hash": "ea1a1315f903e8fcbf1c103b55647f6e51d8145b058d134098cf2c2e30347c75",
      "version": 1,
      "size": 135,
      "vsize": 135,
      "weight": 540,
      "locktime": 0,
      "vin": [
        {
          "coinbase": "04ffff001d028400",
          "sequence": 4294967295
        }
      ],
      "vout": [
        {
          "value": 50.0,
          "n": 0,
          "scriptPubKey": {
            "asm": "040160ec5cc012022bbad94e5df5450057e757f3aba8fa360d5e474e1ed58980d9759d2e90c3fd958bef2d6e92746a2419cdfeda782ec9071e4411719bd0cadcc2 OP_CHECKSIG",
            "desc": "pk(040160ec5cc012022bbad94e5df5450057e757f3aba8fa360d5e474e1ed58980d9759d2e90c3fd958bef2d6e92746a2419cdfeda782ec9071e4411719bd0cadcc2)#p8jamqnz",
            "hex": "41040160ec5cc012022bbad94e5df5450057e757f3aba8fa360d5e474e1ed58980d9759d2e90c3fd958bef2d6e92746a2419cdfeda782ec9071e4411719bd0cadcc2ac",
            "type": "pubkey"
          }
        }
      ],
      "hex": "01000000010000000000000000000000000000000000000000000000000000000000000000ffffffff0804ffff001d028400ffffffff0100f2052a010000004341040160ec5cc012022bbad94e5df5450057e757f3aba8fa360d5e474e1ed58980d9759d2e90c3fd958bef2d6e92746a2419cdfeda782ec9071e4411719bd0cadcc2ac00000000"
    }
  ]
}