{
  "hash": "000000000ce9445d0ebebabc8342070ab85414fe926a8f30286c1e14bcb4b687",
  "confirmations": 52225,
  "height": 873,
  "version": 1,
  "versionHex": "00000001",
  "merkleroot": "0ea978fa97b831ffb02ef81db0722dfe5cb6c3b5d555d9ec476882e03a023754",
  "time": 1232250742,
  "mediantime": 1232246210,
  "nonce": 1341355816,
  "bits": "1d00ffff",
  "difficulty": 1,
  "chainwork": "0000000000000000000000000000000000000000000000000000036a036a036a",
  "nTx": 1,
  "previousblockhash": "00000000dd897971ba52271c7e007449accd23ac6be635c5c43f90dc81f1f99b",
  "nextblockhash": "000000008edcba2d1a4982ec30dabb6465f5f3922fe39fb14f8d285f02b49879",
  "strippedsize": 216,
  "size": 216,
  "weight": 864,
  "tx": [
    {
      "txid": "0ea978fa97b831ffb02ef81db0722dfe5cb6c3b5d555d9ec476882e03a023754",
      "hash": "0ea978fa97b831ffb02ef81db0722dfe5cb6c3b5d555d9ec476882e03a023754",
      "version": 1,
      "size": 135,
      "vsize": 135,
      "weight": 540,
      "locktime": 0,
      "vin": [
        {
          "coinbase": "04ffff001d020f03",
          "sequence": 4294967295
        }
      ],
      "vout": [
        {
          "value": 50.0,
          "n": 0,
          "scriptPubKey": {
            "asm": "048d73fe3c2130e2ceba9ed4b8f387969b645c0599faa9ea3b4c0d59cec039c5412ce39706df1bdc40c077f7f30cbe2ceec670d66de21f500dfc21857cf1e12c1f OP_CHECKSIG",
            "desc": "pk(048d73fe3c2130e2ceba9ed4b8f387969b645c0599faa9ea3b4c0d59cec039c5412ce39706df1bdc40c077f7f30cbe2ceec670d66de21f500dfc21857cf1e12c1f)#7ncae6d3",
            "hex": "41048d73fe3c2130e2ceba9ed4b8f387969b645c0599faa9ea3b4c0d59cec039c5412ce39706df1bdc40c077f7f30cbe2ceec670d66de21f500dfc21857cf1e12c1fac",
            "type": "pubkey"
          }
        }
      ],
      "hex": "01000000010000000000000000000000000000000000000000000000000000000000000000ffffffff0804ffff001d020f03ffffffff0100f2052a010000004341048d73fe3c2130e2ceba9ed4b8f387969b645c0599faa9ea3b4c0d59cec039c5412ce39706df1bdc40c077f7f30cbe2ceec670d66de21f500dfc21857cf1e12c1fac00000000"
    }
  ]
}