{
  "hash": "000000005d0beb201e6429cf8e1607f15a241cecb5d726b2e86b8b919d5e4b97",
  "confirmations": 44369,
  "height": 8729,
  "version": 1,
  "versionHex": "00000001",
  "merkleroot": "e96058495c40ffb69f5293318aa7f5a6b251b5e7583fccbcd4bb4eb44f4ab20c",
  "time": 1238043051,
  "mediantime": 1238038950,
  "nonce": 112567573,
  "bits": "1d00ffff",
  "difficulty": 1,
  "chainwork": "0000000000000000000000000000000000000000000000000000221a221a221a",
  "nTx": 1,
  "previousblockhash": "00000000f7ca78dbae424e00b972afc986664b99ca163ce0738dd5f7af71e9dc",
  "nextblockhash": "000000008fc8c267f40ecfb5297b09bfa325b8c012a1b930005cf625e7b1d1fd",
  "strippedsize": 216,
  "size": 216,
  "weight": 864,
  "tx": [
    {
      "txid": "e96058495c40ffb69f5293318aa7f5a6b251b5e7583fccbcd4bb4eb44f4ab20c",
      "hash": "e96058495c40ffb69f5293318aa7f5a6b251b5e7583fccbcd4bb4eb44f4ab20c",
      "version": 1,
      "size": 135,
      "vsize": 135,
      "weight": 540,
      "locktime": 0,
      "vin": [
        {
          "coinbase": "04ffff001d026901",
          "sequence": 4294967295
        }
      ],
      "vout": [
        {
          "value": 50.0,
          "n": 0,
          "scriptPubKey": {
            "asm": "044cf786941e4fbc662e14906c80be1d8c12dd295fe3d32b6f079f818c9f20893039cfa2b0fa12ba4e75954c4374727a9e6e7efeef199746bfcd1bce1cac7e1249 OP_CHECKSIG",
            "desc": "pk(044cf786941e4fbc662e14906c80be1d8c12dd295fe3d32b6f079f818c9f20893039cfa2b0fa12ba4e75954c4374727a9e6e7efeef199746bfcd1bce1cac7e1249)#9sum5g0t",
            "hex": "41044cf786941e4fbc662e14906c80be1d8c12dd295fe3d32b6f079f818c9f20893039cfa2b0fa12ba4e75954c4374727a9e6e7efeef199746bfcd1bce1cac7e1249ac",
            "type": "pubkey"
          }
        }
      ],
      "hex": "01000000010000000000000000000000000000000000000000000000000000000000000000ffffffff0804ffff001d026901ffffffff0100f2052a010000004341044cf786941e4fbc662e14906c80be1d8c12dd295fe3d32b6f079f818c9f20893039cfa2b0fa12ba4e75954c4374727a9e6e7efeef199746bfcd1bce1cac7e1249ac00000000"
    }
  ]
}