{
  "hash": "00000000066397fb85d28f2cdee78c1ad5e1a01cddba2728e728f92a04c6a405",
  "confirmations": 50661,
  "height": 2437,
  "version": 1,
  "versionHex": "00000001",
  "merkleroot": "87bffa2bfe498095969f81d7195881a75a527e12b3a78b6f455e42d4261ff64f",
  "time": 1233383180,
  "mediantime": 1233379552,
  "nonce": 3308132638,
  "bits": "1d00ffff",
  "difficulty": 1,
  "chainwork": "0000000000000000000000000000000000000000000000000000098609860986",
  "nTx": 1,
  "previousblockhash": "000000008893d0a990594562740152e1468deba0dd59200d9fda72aa828bb006",
  "nextblockhash": "00000000951f6f6673daf5146e2b0d64a9056faa598afadec03cc09664a21297",
  "strippedsize": 215,
  "size": 215,
  "weight": 860,
  "tx": [
    {
      "txid": "87bffa2bfe498095969f81d7195881a75a527e12b3a78b6f455e42d4261ff64f",
      "hash": "87bffa2bfe498095969f81d7195881a75a527e12b3a78b6f455e42d4261ff64f",
      "version": 1,
      "size": 134,
      "vsize": 134,
      "weight": 536,
      "locktime": 0,
      "vin": [
        {
          "coinbase": "04ffff001d0154",
          "sequence": 4294967295
        }
      ],
      "vout": [
        {
          "value": 50.0,
          "n": 0,
          "scriptPubKey": {
            "asm": "048370f426733f497d24ae274000533e7baa5a00754a6388236a75ca8162d91d4b1bbfc8ed76c47be08eb68f0a1feba6696cc0b2f41394ee9e0d1ed330856822d8 OP_CHECKSIG",
            "desc": "pk(048370f426733f497d24ae274000533e7baa5a00754a6388236a75ca8162d91d4b1bbfc8ed76c47be08eb68f0a1feba6696cc0b2f41394ee9e0d1ed330856822d8)#6nzfrrel",
            "hex": "41048370f426733f497d24ae274000533e7baa5a00754a6388236a75ca8162d91d4b1bbfc8ed76c47be08eb68f0a1feba6696cc0b2f41394ee9e0d1ed330856822d8ac",
            "type": "pubkey"
          }
        }
      ],
      "hex": "01000000010000000000000000000000000000000000000000000000000000000000000000ffffffff0704ffff001d0154ffffffff0100f2052a010000004341048370f426733f497d24ae274000533e7baa5a00754a6388236a75ca8162d91d4b1bbfc8ed76c47be08eb68f0a1feba6696cc0b2f41394ee9e0d1ed330856822d8ac00000000"
    }
  ]
}