{
  "hash": "000000003eadc8cf26a2fb8e9c563ade586e31c608b6bcdde50327c694d6f714",
  "confirmations": 52176,
  "height": 453,
  "version": 1,
  "versionHex": "00000001",
  "merkleroot": "f2d07f94821a46246cc6b948c6b865cb5ef7f3042f861030cb2d717f63012cb8",
  "time": 1231938459,
  "mediantime": 1231934513,
  "nonce": 851819830,
  "bits": "1d00ffff",
  "difficulty": 1,
  "chainwork": "000000000000000000000000000000000000000000000000000001c601c601c6",
  "nTx": 1,
  "previousblockhash": "000000005009c3864ca16b54b61d09c914ac312e260de44776811287f41ffab2",
  "nextblockhash": "00000000b0448e22fa4a6ff9f9b29c66c4934e1ccb0620bcdf2689453626933e",
  "strippedsize": 216,
  "size": 216,
  "weight": 864,
  "tx": [
    {
      "txid": "f2d07f94821a46246cc6b948c6b865cb5ef7f3042f861030cb2d717f63012cb8",
      "hash": "f2d07f94821a46246cc6b948c6b865cb5ef7f3042f861030cb2d717f63012cb8",
      "version": 1,
      "size": 135,
      "vsize": 135,
      "weight": 540,
      "locktime": 0,
      "vin": [
        {
          "coinbase": "04ffff001d02b803",
          "sequence": 4294967295
        }
      ],
      "vout": [
        {
          "value": 50.0,
          "n": 0,
          "scriptPubKey": {
            "asm": "043131e64012a1d2c4f98169f47c498724ad9c010f83cc69f85a727412faa8f062840efbf24bfc23b3485c802fb6e9130882f1b4758cbd4d013f85f8f7bcc6438a OP_CHECKSIG",
            "desc": "pk(043131e64012a1d2c4f98169f47c498724ad9c010f83cc69f85a727412faa8f062840efbf24bfc23b3485c802fb6e9130882f1b4758cbd4d013f85f8f7bcc6438a)#ffhwak37",
            "hex": "41043131e64012a1d2c4f98169f47c498724ad9c010f83cc69f85a727412faa8f062840efbf24bfc23b3485c802fb6e9130882f1b4758cbd4d013f85f8f7bcc6438aac",
            "type": "pubkey"
          }
        }
      ],
      "hex": "01000000010000000000000000000000000000000000000000000000000000000000000000ffffffff0804ffff001d02b803ffffffff0100f2052a010000004341043131e64012a1d2c4f98169f47c498724ad9c010f83cc69f85a727412faa8f062840efbf24bfc23b3485c802fb6e9130882f1b4758cbd4d013f85f8f7bcc6438aac00000000"
    }
  ]
}