{
  "hash": "00000000317b4bb991241794ad06039987459a82d7ca05b2da9282e93b475f3b",
  "confirmations": 51320,
  "height": 1778,
  "version": 1,
  "versionHex": "00000001",
  "merkleroot": "861ded8e3b1a39596052872160ceb058f8d58e22e1e1ec5429cc918a4a0495cc",
  "time": 1232887213,
  "mediantime": 1232885095,
  "nonce": 1155447838,
  "bits": "1d00ffff",
  "difficulty": 1,
  "chainwork": "000000000000000000000000000000000000000000000000000006f306f306f3",
  "nTx": 1,
  "previousblockhash": "00000000963c8d5b2459cccaa6989d10f63eaae0c34366c451f2d9a2953484d3",
  "nextblockhash": "00000000fd01351b7f07599e682c570bcf3f369249084e43a2603da1e6aefe77",
  "strippedsize": 216,
  "size": 216,
  "weight": 864,
  "tx": [
    {
      "txid": "861ded8e3b1a39596052872160ceb058f8d58e22e1e1ec5429cc918a4a0495cc",
      "hash": "861ded8e3b1a39596052872160ceb058f8d58e22e1e1ec5429cc918a4a0495cc",
      "version": 1,
      "size": 135,
      "vsize": 135,
      "weight": 540,
      "locktime": 0,
      "vin": [
        {
          "coinbase": "04ffff001d02bd03",
          "sequence": 4294967295
        }
      ],
      "vout": [
        {
          "value": 50.0,
          "n": 0,
          "scriptPubKey": {
            "asm": "04aab099cf80a7bd35e48cdd52e5baa5e7de055aa998ce5b19e5afb6c3ce34b5f5c33fa600184ce750ce2f2d8e908cadd734704a1c112fd5ac5d5f3d6b7210d272 OP_CHECKSIG",
            "desc": "pk(04aab099cf80a7bd35e48cdd52e5baa5e7de055aa998ce5b19e5afb6c3ce34b5f5c33fa600184ce750ce2f2d8e908cadd734704a1c112fd5ac5d5f3d6b7210d272)#ulnyj6xr",
            "hex": "4104aab099cf80a7bd35e48cdd52e5baa5e7de055aa998ce5b19e5afb6c3ce34b5f5c33fa600184ce750ce2f2d8e908cadd734704a1c112fd5ac5d5f3d6b7210d272ac",
            "type": "pubkey"
          }
        }
      ],
      "hex": "01000000010000000000000000000000000000000000000000000000000000000000000000ffffffff0804ffff001d02bd03ffffffff0100f2052a01000000434104aab099cf80a7bd35e48cdd52e5baa5e7de055aa998ce5b19e5afb6c3ce34b5f5c33fa600184ce750ce2f2d8e908cadd734704a1c112fd5ac5d5f3d6b7210d272ac00000000"
    }
  ]
}