{
  "hash": "00000000f1f448c224dc7587b08e983df2e1b82d4ebd0c7a3cd90f72644723e5",
  "confirmations": 50146,
  "height": 2952,
  "version": 1,
  "versionHex": "00000001",
  "merkleroot": "960e23b69ec4102bcd6fd30d14728a9dfa8064c3ec341773338a4f28762d685b",
  "time": 1233726911,
  "mediantime": 1233722935,
  "nonce": 964268324,
  "bits": "1d00ffff",
  "difficulty": 1,
  "chainwork": "00000000000000000000000000000000000000000000000000000b890b890b89",
  "nTx": 1,
  "previousblockhash": "000000003139a0765e857ff33f55f8f2192137cc79906210a44d5c032c4da7c6",
  "nextblockhash": "00000000a98fac937fd0e2a74db339b25b3b0b948b99438c86b9d2a3a7b931da",
  "strippedsize": 216,
  "size": 216,
  "weight": 864,
  "tx": [
    {
      "txid": "960e23b69ec4102bcd6fd30d14728a9dfa8064c3ec341773338a4f28762d685b",
      "hash": "960e23b69ec4102bcd6fd30d14728a9dfa8064c3ec341773338a4f28762d685b",
      "version": 1,
      "size": 135,
      "vsize": 135,
      "weight": 540,
      "locktime": 0,
      "vin": [
        {
          "coinbase": "04ffff001d02ac00",
          "sequence": 4294967295
        }
      ],
      "vout": [
        {
          "value": 50.0,
          "n": 0,
          "scriptPubKey": {
            "asm": "0463554781da3d74bdd4365937ded657c85321aad79c35f2397ab1547b257bd6736e6d5c3ef20ed4b61eb6d738308ac852c8293d25c966f46f0be6952aad51232b OP_CHECKSIG",
            "desc": "pk(0463554781da3d74bdd4365937ded657c85321aad79c35f2397ab1547b257bd6736e6d5c3ef20ed4b61eb6d738308ac852c8293d25c966f46f0be6952aad51232b)#d89ul4ce",
            "hex": "410463554781da3d74bdd4365937ded657c85321aad79c35f2397ab1547b257bd6736e6d5c3ef20ed4b61eb6d738308ac852c8293d25c966f46f0be6952aad51232bac",
            "type": "pubkey"
          }
        }
      ],
      "hex": "01000000010000000000000000000000000000000000000000000000000000000000000000ffffffff0804ffff001d02ac00ffffffff0100f2052a0100000043410463554781da3d74bdd4365937ded657c85321aad79c35f2397ab1547b257bd6736e6d5c3ef20ed4b61eb6d738308ac852c8293d25c966f46f0be6952aad51232bac00000000"
    }
  ]
}