{
  "hash": "000000003306f2059ee41b485afd73b10175a8821f6d3733fa34f7eaa482e35a",
  "confirmations": 50382,
  "height": 2716,
  "version": 1,
  "versionHex": "00000001",
  "merkleroot": "a24f4f744093ea81aa791da59d4165d0b8e31e70cb2504e46f1ab02e74cdfa81",
  "time": 1233574860,
  "mediantime": 1233570715,
  "nonce": 4448499,
  "bits": "1d00ffff",
  "difficulty": 1,
  "chainwork": "00000000000000000000000000000000000000000000000000000a9d0a9d0a9d",
  "nTx": 1,
  "previousblockhash": "000000002507d02560207b4aeb0ac78bc42160d83965e6aab4160a078c6ffe65",
  "nextblockhash": "00000000b8ca3931632b20657f1d6064a3ec4066d5f2bb4b716cc06671a9014d",
  "strippedsize": 216,
  "size": 216,
  "weight": 864,
  "tx": [
    {
      "txid": "a24f4f744093ea81aa791da59d4165d0b8e31e70cb2504e46f1ab02e74cdfa81",
      "hash": "a24f4f744093ea81aa791da59d4165d0b8e31e70cb2504e46f1ab02e74cdfa81",
      "version": 1,
      "size": 135,
      "vsize": 135,
      "weight": 540,
      "locktime": 0,
      "vin": [
        {
          "coinbase": "04ffff001d021703",
          "sequence": 4294967295
        }
      ],
      "vout": [
        {
          "value": 50.0,
          "n": 0,
          "scriptPubKey": {
            "asm": "040e7bcd51f042966d14177a3a21727f93706ac8dd4cf3cacff1b6b3a1e6b104433a3b5ae199f0a833f5b6fbac2c79dcd6590bf5387011de1f37a5a93ded160e66 OP_CHECKSIG",
            "desc": "pk(040e7bcd51f042966d14177a3a21727f93706ac8dd4cf3cacff1b6b3a1e6b104433a3b5ae199f0a833f5b6fbac2c79dcd6590bf5387011de1f37a5a93ded160e66)#4wu26wml",
            "hex": "41040e7bcd51f042966d14177a3a21727f93706ac8dd4cf3cacff1b6b3a1e6b104433a3b5ae199f0a833f5b6fbac2c79dcd6590bf5387011de1f37a5a93ded160e66ac",
            "type": "pubkey"
          }
        }
      ],
      "hex": "01000000010000000000000000000000000000000000000000000000000000000000000000ffffffff0804ffff001d021703ffffffff0100f2052a010000004341040e7bcd51f042966d14177a3a21727f93706ac8dd4cf3cacff1b6b3a1e6b104433a3b5ae199f0a833f5b6fbac2c79dcd6590bf5387011de1f37a5a93ded160e66ac00000000"
    }
  ]
}