{
  "hash": "0000000037d7365c2c14c5a0345b430dc55ee9ab4a49d92b3d0e3a0646d0e59d",
  "confirmations": 47451,
  "height": 5647,
  "version": 1,
  "versionHex": "00000001",
  "merkleroot": "c34e51fc5adf722e46197c95c5a43954d6112f4474365ec44526687def229139",
  "time": 1235645333,
  "mediantime": 1235639413,
  "nonce": 387728940,
  "bits": "1d00ffff",
  "difficulty": 1,
  "chainwork": "0000000000000000000000000000000000000000000000000000161016101610",
  "nTx": 1,
  "previousblockhash": "000000000e848e4c6b43a767fffb1a5a5e4be8b95ce0c9423e4a6b568113fc56",
  "nextblockhash": "000000004500ec9713489276e420b5e13a256526f4937c71760b7ebc8e613444",
  "strippedsize": 216,
  "size": 216,
  "weight": 864,
  "tx": [
    {
      "txid": "c34e51fc5adf722e46197c95c5a43954d6112f4474365ec44526687def229139",
      "hash": "c34e51fc5adf722e46197c95c5a43954d6112f4474365ec44526687def229139",
      "version": 1,
      "size": 135,
      "vsize": 135,
      "weight": 540,
      "locktime": 0,
      "vin": [
        {
          "coinbase": "04ffff001d02a708",
          "sequence": 4294967295
        }
      ],
      "vout": [
        {
          "value": 50.0,
          "n": 0,
          "scriptPubKey": {
            "asm": "046c310f143e1944ed051a28b85310380f102ca9931d31d79a3512a0100b2c561a393013492903d776f1879960c24256914083412af093da4e25dcfaa7247364d0 OP_CHECKSIG",
            "desc": "pk(046c310f143e1944ed051a28b85310380f102ca9931d31d79a3512a0100b2c561a393013492903d776f1879960c24256914083412af093da4e25dcfaa7247364d0)#fgusc07w",
            "hex": "41046c310f143e1944ed051a28b85310380f102ca9931d31d79a3512a0100b2c561a393013492903d776f1879960c24256914083412af093da4e25dcfaa7247364d0ac",
            "type": "pubkey"
          }
        }
      ],
      "hex": "01000000010000000000000000000000000000000000000000000000000000000000000000ffffffff0804ffff001d02a708ffffffff0100f2052a010000004341046c310f143e1944ed051a28b85310380f102ca9931d31d79a3512a0100b2c561a393013492903d776f1879960c24256914083412af093da4e25dcfaa7247364d0ac00000000"
    }
  ]
}