{
  "hash": "0000000041871aab549b51afde2931eba08ae5aba73ada1ea5a63373805b470d",
  "confirmations": 45269,
  "height": 7829,
  "version": 1,
  "versionHex": "00000001",
  "merkleroot": "19b61fd17617b276fce7dea14d85ec80420fa65f52611ccc53b18be0d5a72792",
  "time": 1237335972,
  "mediantime": 1237332658,
  "nonce": 2533333534,
  "bits": "1d00ffff",
  "difficulty": 1,
  "chainwork": "00000000000000000000000000000000000000000000000000001e961e961e96",
  "nTx": 1,
  "previousblockhash": "000000007a51ee6066c7f7aead11667a3e18a89c4092e3c0a411ad8b758e7226",
  "nextblockhash": "00000000c3beb2fd77559d21f21ad9ed394ca108bcb99967a1906c6138a0bab9",
  "strippedsize": 216,
  "size": 216,
  "weight": 864,
  "tx": [
    {
      "txid": "19b61fd17617b276fce7dea14d85ec80420fa65f52611ccc53b18be0d5a72792",
      "hash": "19b61fd17617b276fce7dea14d85ec80420fa65f52611ccc53b18be0d5a72792",
      "version": 1,
      "size": 135,
      "vsize": 135,
      "weight": 540,
      "locktime": 0,
      "vin": [
        {
          "coinbase": "04ffff001d025f06",
          "sequence": 4294967295
        }
      ],
      "vout": [
        {
          "value": 50.0,
          "n": 0,
          "scriptPubKey": {
            "asm": "04e47abfdc2aafde9b7c470b1e6032f06a3e79e6870daaf03abaa3d5ccb97fa76280a3224fdf23fb76a53a1d98b13a983a25d7d5eff8b95d9ff3276495b494aa5d OP_CHECKSIG",
            "desc": "pk(04e47abfdc2aafde9b7c470b1e6032f06a3e79e6870daaf03abaa3d5ccb97fa76280a3224fdf23fb76a53a1d98b13a983a25d7d5eff8b95d9ff3276495b494aa5d)#tp90x7p9",
            "hex": "4104e47abfdc2aafde9b7c470b1e6032f06a3e79e6870daaf03abaa3d5ccb97fa76280a3224fdf23fb76a53a1d98b13a983a25d7d5eff8b95d9ff3276495b494aa5dac",
            "type": "pubkey"
          }
        }
      ],
      "hex": "01000000010000000000000000000000000000000000000000000000000000000000000000ffffffff0804ffff001d025f06ffffffff0100f2052a01000000434104e47abfdc2aafde9b7c470b1e6032f06a3e79e6870daaf03abaa3d5ccb97fa76280a3224fdf23fb76a53a1d98b13a983a25d7d5eff8b95d9ff3276495b494aa5dac00000000"
    }
  ]
}