{
  "hash": "00000000d4f1e2a9b9cdbb21f9607ea650c7cbb1bb84ca974cee3b6535374841",
  "confirmations": 49570,
  "height": 3528,
  "version": 1,
  "versionHex": "00000001",
  "merkleroot": "8b60d5fa6019c9da31392eebaad171254d26488666e68d17e6a438688d381aa3",
  "time": 1234122197,
  "mediantime": 1234117510,
  "nonce": 2266083892,
  "bits": "1d00ffff",
  "difficulty": 1,
  "chainwork": "00000000000000000000000000000000000000000000000000000dc90dc90dc9",
  "nTx": 1,
  "previousblockhash": "0000000080ec02e7e37bfc2135003fdbdffaa403941e1fffc7ec0a822da092f6",
  "nextblockhash": "00000000521890eed39e365695ca6373a1f9c72cbece96da0ac0a4fe92bffa0e",
  "strippedsize": 216,
  "size": 216,
  "weight": 864,
  "tx": [
    {
      "txid": "8b60d5fa6019c9da31392eebaad171254d26488666e68d17e6a438688d381aa3",
      "hash": "8b60d5fa6019c9da31392eebaad171254d26488666e68d17e6a438688d381aa3",
      "version": 1,
      "size": 135,
      "vsize": 135,
      "weight": 540,
      "locktime": 0,
      "vin": [
        {
          "coinbase": "04ffff001d02b307",
          "sequence": 4294967295
        }
      ],
      "vout": [
        {
          "value": 50.0,
          "n": 0,
          "scriptPubKey": {
            "asm": "0468455ed923d3ca7b77128efb73fcc96070d2c2382e5ac8c8df5f439cc94bfc7e2ba3fc574475805bc9f8f69c14e546ad88aef680218b1608228ddec2f4c230f5 OP_CHECKSIG",
            "desc": "pk(0468455ed923d3ca7b77128efb73fcc96070d2c2382e5ac8c8df5f439cc94bfc7e2ba3fc574475805bc9f8f69c14e546ad88aef680218b1608228ddec2f4c230f5)#jk7uu0a6",
            "hex": "410468455ed923d3ca7b77128efb73fcc96070d2c2382e5ac8c8df5f439cc94bfc7e2ba3fc574475805bc9f8f69c14e546ad88aef680218b1608228ddec2f4c230f5ac",
            "type": "pubkey"
          }
        }
      ],
      "hex": "01000000010000000000000000000000000000000000000000000000000000000000000000ffffffff0804ffff001d02b307ffffffff0100f2052a0100000043410468455ed923d3ca7b77128efb73fcc96070d2c2382e5ac8c8df5f439cc94bfc7e2ba3fc574475805bc9f8f69c14e546ad88aef680218b1608228ddec2f4c230f5ac00000000"
    }
  ]
}