{
  "hash": "00000000f98c6d48b5a9b48a12231358985750a238de6848570617d3e883e24f",
  "confirmations": 48181,
  "height": 4917,
  "version": 1,
  "versionHex": "00000001",
  "merkleroot": "148db1a893fb3a9477e0326c9db100c63d2025b46462d25916c3cfcd81d42e13",
  "time": 1235082403,
  "mediantime": 1235079156,
  "nonce": 4211677211,
  "bits": "1d00ffff",
  "difficulty": 1,
  "chainwork": "0000000000000000000000000000000000000000000000000000133613361336",
  "nTx": 1,
  "previousblockhash": "000000002e837d054e162d8bcada74abb938e4a97c2d0743f80377f177707f9b",
  "nextblockhash": "0000000008170390395f31c13a229eec411718777fad323c902e7c9110fc41fa",
  "strippedsize": 216,
  "size": 216,
  "weight": 864,
  "tx": [
    {
      "txid": "148db1a893fb3a9477e0326c9db100c63d2025b46462d25916c3cfcd81d42e13",
      "hash": "148db1a893fb3a9477e0326c9db100c63d2025b46462d25916c3cfcd81d42e13",
      "version": 1,
      "size": 135,
      "vsize": 135,
      "weight": 540,
      "locktime": 0,
      "vin": [
        {
          "coinbase": "04ffff001d02e205",
          "sequence": 4294967295
        }
      ],
      "vout": [
        {
          "value": 50.0,
          "n": 0,
          "scriptPubKey": {
            "asm": "04cc053a9e3ea6163d3490e49c8aa0d72a99784554bb42a2cbeb622cbe681df267ea3c17b4d6bb660978f17240aec1c96968966e88addf78c40f07f5457b21d336 OP_CHECKSIG",
            "desc": "pk(04cc053a9e3ea6163d3490e49c8aa0d72a99784554bb42a2cbeb622cbe681df267ea3c17b4d6bb660978f17240aec1c96968966e88addf78c40f07f5457b21d336)#q68wdqjf",
            "hex": "4104cc053a9e3ea6163d3490e49c8aa0d72a99784554bb42a2cbeb622cbe681df267ea3c17b4d6bb660978f17240aec1c96968966e88addf78c40f07f5457b21d336ac",
            "type": "pubkey"
          }
        }
      ],
      "hex": "01000000010000000000000000000000000000000000000000000000000000000000000000ffffffff0804ffff001d02e205ffffffff0100f2052a01000000434104cc053a9e3ea6163d3490e49c8aa0d72a99784554bb42a2cbeb622cbe681df267ea3c17b4d6bb660978f17240aec1c96968966e88addf78c40f07f5457b21d336ac00000000"
    }
  ]
}