{
  "hash": "00000000be9aaca9fcb7ddda0d54db9f98365e752dcfd576ce9ae4cc2e330f39",
  "confirmations": 51129,
  "height": 1969,
  "version": 1,
  "versionHex": "00000001",
  "merkleroot": "1d4a235e7c7aba10a03971f95a49b3d8ead56849154d0b60d2e6668411627072",
  "time": 1233023875,
  "mediantime": 1233019411,
  "nonce": 374615128,
  "bits": "1d00ffff",
  "difficulty": 1,
  "chainwork": "000000000000000000000000000000000000000000000000000007b207b207b2",
  "nTx": 1,
  "previousblockhash": "00000000896f1f96404bc9c357dce2d73599c0bb3ebce920099b85a2c8c83312",
  "nextblockhash": "000000001210de7676a0944eb9a0df4cd4001868be65f0f1b0abb80061521bb4",
  "strippedsize": 215,
  "size": 215,
  "weight": 860,
  "tx": [
    {
      "txid": "1d4a235e7c7aba10a03971f95a49b3d8ead56849154d0b60d2e6668411627072",
      "hash": "1d4a235e7c7aba10a03971f95a49b3d8ead56849154d0b60d2e6668411627072",
      "version": 1,
      "size": 134,
      "vsize": 134,
      "weight": 536,
      "locktime": 0,
      "vin": [
        {
          "coinbase": "04ffff001d0112",
          "sequence": 4294967295
        }
      ],
      "vout": [
        {
          "value": 50.0,
          "n": 0,
          "scriptPubKey": {
            "asm": "04c4b7a012905042cf83d5eb76a9a117354aeda98dd3eb2f8e1ce5c58bb6dabf55412ac5f1bfc31f099576735fc91fd2650df1f2d9f19ae3762d303ef4a6a5d0cb OP_CHECKSIG",
            "desc": "pk(04c4b7a012905042cf83d5eb76a9a117354aeda98dd3eb2f8e1ce5c58bb6dabf55412ac5f1bfc31f099576735fc91fd2650df1f2d9f19ae3762d303ef4a6a5d0cb)#tgs8265c",
            "hex": "4104c4b7a012905042cf83d5eb76a9a117354aeda98dd3eb2f8e1ce5c58bb6dabf55412ac5f1bfc31f099576735fc91fd2650df1f2d9f19ae3762d303ef4a6a5d0cbac",
            "type": "pubkey"
          }
        }
      ],
      "hex": "01000000010000000000000000000000000000000000000000000000000000000000000000ffffffff0704ffff001d0112ffffffff0100f2052a01000000434104c4b7a012905042cf83d5eb76a9a117354aeda98dd3eb2f8e1ce5c58bb6dabf55412ac5f1bfc31f099576735fc91fd2650df1f2d9f19ae3762d303ef4a6a5d0cbac00000000"
    }
  ]
}