{
  "hash": "00000000211fac5a418e2508b80abea0e62b404f3bd67266479e70e2b62679af",
  "confirmations": 45889,
  "height": 7209,
  "version": 1,
  "versionHex": "00000001",
  "merkleroot": "3c07c12460976abb062d1de22111fedd61b665b3388ea55754ab5a571f69347d",
  "time": 1236878290,
  "mediantime": 1236873515,
  "nonce": 277614618,
  "bits": "1d00ffff",
  "difficulty": 1,
  "chainwork": "00000000000000000000000000000000000000000000000000001c2a1c2a1c2a",
  "nTx": 1,
  "previousblockhash": "00000000ac3bf74a7622732573800644b96129de1a634bfa4920c40fe98e6e41",
  "nextblockhash": "00000000f7e4a39b5ae45a0e73c1719d177ee1078a69907fe485cacf7f0e8d3f",
  "strippedsize": 216,
  "size": 216,
  "weight": 864,
  "tx": [
    {
      "txid": "3c07c12460976abb062d1de22111fedd61b665b3388ea55754ab5a571f69347d",
      "hash": "3c07c12460976abb062d1de22111fedd61b665b3388ea55754ab5a571f69347d",
      "version": 1,
      "size": 135,
      "vsize": 135,
      "weight": 540,
      "locktime": 0,
      "vin": [
        {
          "coinbase": "04ffff001d02d505",
          "sequence": 4294967295
        }
      ],
      "vout": [
        {
          "value": 50.0,
          "n": 0,
          "scriptPubKey": {
            "asm": "049456723422d731857eaca85bf41e46ca728285c4aa6976ebb9bd3887c2929664e0b1ffdf939e048a41bcac2cbb120093e165cdc4abd07b793099cf2640860377 OP_CHECKSIG",
            "desc": "pk(049456723422d731857eaca85bf41e46ca728285c4aa6976ebb9bd3887c2929664e0b1ffdf939e048a41bcac2cbb120093e165cdc4abd07b793099cf2640860377)#9pn0asxq",
            "hex": "41049456723422d731857eaca85bf41e46ca728285c4aa6976ebb9bd3887c2929664e0b1ffdf939e048a41bcac2cbb120093e165cdc4abd07b793099cf2640860377ac",
            "type": "pubkey"
          }
        }
      ],
      "hex": "01000000010000000000000000000000000000000000000000000000000000000000000000ffffffff0804ffff001d02d505ffffffff0100f2052a010000004341049456723422d731857eaca85bf41e46ca728285c4aa6976ebb9bd3887c2929664e0b1ffdf939e048a41bcac2cbb120093e165cdc4abd07b793099cf2640860377ac00000000"
    }
  ]
}