{
  "hash": "000000008f42f665cab52fd5972974ab3c0d1b43b97ac20105295f0a224af886",
  "confirmations": 50980,
  "height": 2118,
  "version": 1,
  "versionHex": "00000001",
  "merkleroot": "7919e93973b1688469e7e1b19e3d5011fc469230dbb983f815ca4dedcb03f60b",
  "time": 1233150472,
  "mediantime": 1233147840,
  "nonce": 2388966940,
  "bits": "1d00ffff",
  "difficulty": 1,
  "chainwork": "0000000000000000000000000000000000000000000000000000084708470847",
  "nTx": 1,
  "previousblockhash": "0000000078cf3d9ad734fdf5ae43a3141efdbd0e4accf516bbbe9f85f97d0ed1",
  "nextblockhash": "000000009b8de49958011387b343860457061ec4175a07cd0c094216f3074ed6",
  "strippedsize": 216,
  "size": 216,
  "weight": 864,
  "tx": [
    {
      "txid": "7919e93973b1688469e7e1b19e3d5011fc469230dbb983f815ca4dedcb03f60b",
      "hash": "7919e93973b1688469e7e1b19e3d5011fc469230dbb983f815ca4dedcb03f60b",
      "version": 1,
      "size": 135,
      "vsize": 135,
      "weight": 540,
      "locktime": 0,
      "vin": [
        {
          "coinbase": "04ffff001d02d903",
          "sequence": 4294967295
        }
      ],
      "vout": [
        {
          "value": 50.0,
          "n": 0,
          "scriptPubKey": {
            "asm": "0448e66dfc8f203dc813e6b21af4b5e954e56b636c4a6e38a049bb4570a97285081b111e3042887bc7e7923bf1f6127a123b3dbb7bb2d8da7ee944da79b207c23d OP_CHECKSIG",
            "desc": "pk(0448e66dfc8f203dc813e6b21af4b5e954e56b636c4a6e38a049bb4570a97285081b111e3042887bc7e7923bf1f6127a123b3dbb7bb2d8da7ee944da79b207c23d)#3gpt32yd",
            "hex": "410448e66dfc8f203dc813e6b21af4b5e954e56b636c4a6e38a049bb4570a97285081b111e3042887bc7e7923bf1f6127a123b3dbb7bb2d8da7ee944da79b207c23dac",
            "type": "pubkey"
          }
        }
      ],
      "hex": "01000000010000000000000000000000000000000000000000000000000000000000000000ffffffff0804ffff001d02d903ffffffff0100f2052a0100000043410448e66dfc8f203dc813e6b21af4b5e954e56b636c4a6e38a049bb4570a97285081b111e3042887bc7e7923bf1f6127a123b3dbb7bb2d8da7ee944da79b207c23dac00000000"
    }
  ]
}