{
  "hash": "00000000164fc769f695423278b637e89dd8baa2889292dab6ebbb1ae8b2026f",
  "confirmations": 43765,
  "height": 9333,
  "version": 1,
  "versionHex": "00000001",
  "merkleroot": "f6fe46d3cd8bf5296c70e2ab4b9e5ec0b0d05eda545a0a012a7f5985b7e37389",
  "time": 1238499365,
  "mediantime": 1238495528,
  "nonce": 3039825967,
  "bits": "1d00ffff",
  "difficulty": 1,
  "chainwork": "0000000000000000000000000000000000000000000000000000247624762476",
  "nTx": 1,
  "previousblockhash": "000000002fa9f963ce14897a499814b22027b4c18442f4b5075b505a36e61a51",
  "nextblockhash": "00000000261b4765edf334510ef4e167cbaf58406af6281891b4d57595c10fc9",
  "strippedsize": 216,
  "size": 216,
  "weight": 864,
  "tx": [
    {
      "txid": "f6fe46d3cd8bf5296c70e2ab4b9e5ec0b0d05eda545a0a012a7f5985b7e37389",
      "hash": "f6fe46d3cd8bf5296c70e2ab4b9e5ec0b0d05eda545a0a012a7f5985b7e37389",
      "version": 1,
      "size": 135,
      "vsize": 135,
      "weight": 540,
      "locktime": 0,
      "vin": [
        {
          "coinbase": "04ffff001d026302",
          "sequence": 4294967295
        }
      ],
      "vout": [
        {
          "value": 50.0,
          "n": 0,
          "scriptPubKey": {
            "asm": "042e10205a117c98a292ebbb1ee354c475eda10d2f1eb592d19eb6da77e9cb2e352882d29288dcac009ba3bcc54759ca7942d688cdba369c422d820744ff99c099 OP_CHECKSIG",
            "desc": "pk(042e10205a117c98a292ebbb1ee354c475eda10d2f1eb592d19eb6da77e9cb2e352882d29288dcac009ba3bcc54759ca7942d688cdba369c422d820744ff99c099)#9fjp9kyq",
            "hex": "41042e10205a117c98a292ebbb1ee354c475eda10d2f1eb592d19eb6da77e9cb2e352882d29288dcac009ba3bcc54759ca7942d688cdba369c422d820744ff99c099ac",
            "type": "pubkey"
          }
        }
      ],
      "hex": "01000000010000000000000000000000000000000000000000000000000000000000000000ffffffff0804ffff001d026302ffffffff0100f2052a010000004341042e10205a117c98a292ebbb1ee354c475eda10d2f1eb592d19eb6da77e9cb2e352882d29288dcac009ba3bcc54759ca7942d688cdba369c422d820744ff99c099ac00000000"
    }
  ]
}