{
  "hash": "00000000f114c2a19b4ce84b9dd7120e6f777f68bafd5da0872f1e2dd61ac71c",
  "confirmations": 47351,
  "height": 5747,
  "version": 1,
  "versionHex": "00000001",
  "merkleroot": "9ddff08d48f634ab0f837a52bd1faac985d3a840d6f2042b11af20ac07472d72",
  "time": 1235719965,
  "mediantime": 1235715720,
  "nonce": 305519316,
  "bits": "1d00ffff",
  "difficulty": 1,
  "chainwork": "0000000000000000000000000000000000000000000000000000167416741674",
  "nTx": 1,
  "previousblockhash": "0000000080641eb0b46507f316943ffde2543b371233dc30511b3679f57739e7",
  "nextblockhash": "00000000f8c7ad93594450f5986dc7d42e0498466ed09c5948bb90312a206495",
  "strippedsize": 216,
  "size": 216,
  "weight": 864,
  "tx": [
    {
      "txid": "9ddff08d48f634ab0f837a52bd1faac985d3a840d6f2042b11af20ac07472d72",
      "hash": "9ddff08d48f634ab0f837a52bd1faac985d3a840d6f2042b11af20ac07472d72",
      "version": 1,
      "size": 135,
      "vsize": 135,
      "weight": 540,
      "locktime": 0,
      "vin": [
        {
          "coinbase": "04ffff001d023608",
          "sequence": 4294967295
        }
      ],
      "vout": [
        {
          "value": 50.0,
          "n": 0,
          "scriptPubKey": {
            "asm": "04eeb9a6e0aa0ba5962cacf7faba188179e99e8720301aeb8b958a16c39195beace2793798f6e579fa6207591b6eb03273ecf9f44aea4b75a85c8d3fdc71a8c293 OP_CHECKSIG",
            "desc": "pk(04eeb9a6e0aa0ba5962cacf7faba188179e99e8720301aeb8b958a16c39195beace2793798f6e579fa6207591b6eb03273ecf9f44aea4b75a85c8d3fdc71a8c293)#yx74nddl",
            "hex": "4104eeb9a6e0aa0ba5962cacf7faba188179e99e8720301aeb8b958a16c39195beace2793798f6e579fa6207591b6eb03273ecf9f44aea4b75a85c8d3fdc71a8c293ac",
            "type": "pubkey"
          }
        }
      ],
      "hex": "01000000010000000000000000000000000000000000000000000000000000000000000000ffffffff0804ffff001d023608ffffffff0100f2052a01000000434104eeb9a6e0aa0ba5962cacf7faba188179e99e8720301aeb8b958a16c39195beace2793798f6e579fa6207591b6eb03273ecf9f44aea4b75a85c8d3fdc71a8c293ac00000000"
    }
  ]
}