{
  "hash": "0000000094d00a8dc325dc3b80fa5202b16aebed27937d2156988d33ed5b6200",
  "confirmations": 48025,
  "height": 5073,
  "version": 1,
  "versionHex": "00000001",
  "merkleroot": "2ee3ba8782736b9c7807b4d87e7d7beb134e77211a739d0948a1382b1072a1cf",
  "time": 1235195103,
  "mediantime": 1235191143,
  "nonce": 2047708985,
  "bits": "1d00ffff",
  "difficulty": 1,
  "chainwork": "000000000000000000000000000000000000000000000000000013d213d213d2",
  "nTx": 1,
  "previousblockhash": "00000000e115bbb163c16a2fd94ee533dea3e31256d841d8f6c6c3b6709f1c1e",
  "nextblockhash": "000000002137b6e7d191f6ab9dd0dafa83b453a88ffd19b091f5f1c92b33cc34",
  "strippedsize": 216,
  "size": 216,
  "weight": 864,
  "tx": [
    {
      "txid": "2ee3ba8782736b9c7807b4d87e7d7beb134e77211a739d0948a1382b1072a1cf",
      "hash": "2ee3ba8782736b9c7807b4d87e7d7beb134e77211a739d0948a1382b1072a1cf",
      "version": 1,
      "size": 135,
      "vsize": 135,
      "weight": 540,
      "locktime": 0,
      "vin": [
        {
          "coinbase": "04ffff001d025308",
          "sequence": 4294967295
        }
      ],
      "vout": [
        {
          "value": 50.0,
          "n": 0,
          "scriptPubKey": {
            "asm": "041f41dccd46b0055a3ff10165ef9ce916bcd068471f526bcfaed0aefd912d1dc6ffbd176a6cab953ff731379f39c3f7d21b80c537b41904faab26e5f4bcaa26e9 OP_CHECKSIG",
            "desc": "pk(041f41dccd46b0055a3ff10165ef9ce916bcd068471f526bcfaed0aefd912d1dc6ffbd176a6cab953ff731379f39c3f7d21b80c537b41904faab26e5f4bcaa26e9)#rkx0rfpg",
            "hex": "41041f41dccd46b0055a3ff10165ef9ce916bcd068471f526bcfaed0aefd912d1dc6ffbd176a6cab953ff731379f39c3f7d21b80c537b41904faab26e5f4bcaa26e9ac",
            "type": "pubkey"
          }
        }
      ],
      "hex": "01000000010000000000000000000000000000000000000000000000000000000000000000ffffffff0804ffff001d025308ffffffff0100f2052a010000004341041f41dccd46b0055a3ff10165ef9ce916bcd068471f526bcfaed0aefd912d1dc6ffbd176a6cab953ff731379f39c3f7d21b80c537b41904faab26e5f4bcaa26e9ac00000000"
    }
  ]
}