{
  "hash": "00000000ae661e50017916b454ac771d9859b234c16ba1e297b95a2b6f3edb53",
  "confirmations": 49456,
  "height": 3642,
  "version": 1,
  "versionHex": "00000001",
  "merkleroot": "1695f86179bcbd3e131490d263141b1b7835f3a00c9ebb18bb768f4a914dc48b",
  "time": 1234198445,
  "mediantime": 1234195065,
  "nonce": 3402011680,
  "bits": "1d00ffff",
  "difficulty": 1,
  "chainwork": "00000000000000000000000000000000000000000000000000000e3b0e3b0e3b",
  "nTx": 1,
  "previousblockhash": "0000000025fff6b137a13edc746bda8d10fde4a889136d1f52bbc45a24bc1af3",
  "nextblockhash": "000000007ff2663ad626f49a2a071b6c1f2a2e3d5e122a538bb3dbcefd1690b2",
  "strippedsize": 216,
  "size": 216,
  "weight": 864,
  "tx": [
    {
      "txid": "1695f86179bcbd3e131490d263141b1b7835f3a00c9ebb18bb768f4a914dc48b",
      "hash": "1695f86179bcbd3e131490d263141b1b7835f3a00c9ebb18bb768f4a914dc48b",
      "version": 1,
      "size": 135,
      "vsize": 135,
      "weight": 540,
      "locktime": 0,
      "vin": [
        {
          "coinbase": "04ffff001d022a09",
          "sequence": 4294967295
        }
      ],
      "vout": [
        {
          "value": 50.0,
          "n": 0,
          "scriptPubKey": {
            "asm": "04b07f32704b0d2019006f65f1d4f9e3897c309790c2f7d3e2eebf437dfbb807e15ff2c170a559c0242f14e65b37e11937bdaeeb602e8a9e01c66c588934556f5e OP_CHECKSIG",
            "desc": "pk(04b07f32704b0d2019006f65f1d4f9e3897c309790c2f7d3e2eebf437dfbb807e15ff2c170a559c0242f14e65b37e11937bdaeeb602e8a9e01c66c588934556f5e)#5t9jcpcr",
            "hex": "4104b07f32704b0d2019006f65f1d4f9e3897c309790c2f7d3e2eebf437dfbb807e15ff2c170a559c0242f14e65b37e11937bdaeeb602e8a9e01c66c588934556f5eac",
            "type": "pubkey"
          }
        }
      ],
      "hex": "01000000010000000000000000000000000000000000000000000000000000000000000000ffffffff0804ffff001d022a09ffffffff0100f2052a01000000434104b07f32704b0d2019006f65f1d4f9e3897c309790c2f7d3e2eebf437dfbb807e15ff2c170a559c0242f14e65b37e11937bdaeeb602e8a9e01c66c588934556f5eac00000000"
    }
  ]
}