{
  "hash": "00000000afda0e79f404bd04f14f6450eca2a9cb1cac617953e1841a4afa4e65",
  "confirmations": 47680,
  "height": 5418,
  "version": 1,
  "versionHex": "00000001",
  "merkleroot": "de028c0e40615f537e41f0257ecd844ae9189530de3e11b92bbb8dc12a90433c",
  "time": 1235454719,
  "mediantime": 1235450046,
  "nonce": 226945517,
  "bits": "1d00ffff",
  "difficulty": 1,
  "chainwork": "0000000000000000000000000000000000000000000000000000152b152b152b",
  "nTx": 1,
  "previousblockhash": "000000005fee47bb2ea239c052d26077078e4d822155fbad9669475b705d708c",
  "nextblockhash": "00000000d0743dabf49b4766bed6ef0662bfc6f48f2fcf02bb5cb2a8054b81fe",
  "strippedsize": 215,
  "size": 215,
  "weight": 860,
  "tx": [
    {
      "txid": "de028c0e40615f537e41f0257ecd844ae9189530de3e11b92bbb8dc12a90433c",
      "hash": "de028c0e40615f537e41f0257ecd844ae9189530de3e11b92bbb8dc12a90433c",
      "version": 1,
      "size": 134,
      "vsize": 134,
      "weight": 536,
      "locktime": 0,
      "vin": [
        {
          "coinbase": "04ffff001d011b",
          "sequence": 4294967295
        }
      ],
      "vout": [
        {
          "value": 50.0,
          "n": 0,
          "scriptPubKey": {
            "asm": "04e6b56fb76775524aaaa3812153cacdedb725b363c2511e9082a66263fa2c79a6a8e63072288769126fb4a4028e0dffcab5ed3a362f4ee00231803f819da123bb OP_CHECKSIG",
            "desc": "pk(04e6b56fb76775524aaaa3812153cacdedb725b363c2511e9082a66263fa2c79a6a8e63072288769126fb4a4028e0dffcab5ed3a362f4ee00231803f819da123bb)#74h6r6vw",
            "hex": "4104e6b56fb76775524aaaa3812153cacdedb725b363c2511e9082a66263fa2c79a6a8e63072288769126fb4a4028e0dffcab5ed3a362f4ee00231803f819da123bbac",
            "type": "pubkey"
          }
        }
      ],
      "hex": "01000000010000000000000000000000000000000000000000000000000000000000000000ffffffff0704ffff001d011bffffffff0100f2052a01000000434104e6b56fb76775524aaaa3812153cacdedb725b363c2511e9082a66263fa2c79a6a8e63072288769126fb4a4028e0dffcab5ed3a362f4ee00231803f819da123bbac00000000"
    }
  ]
}