{
  "hash": "00000000905702f51d174de41057cf52ccd2d47c8e5778999384809b7bb8ed9f",
  "confirmations": 50622,
  "height": 2476,
  "version": 1,
  "versionHex": "00000001",
  "merkleroot": "d696967249650549f34629f94694d5ab70151c71170b1f101807e4f1bb522cfa",
  "time": 1233407374,
  "mediantime": 1233404813,
  "nonce": 675933980,
  "bits": "1d00ffff",
  "difficulty": 1,
  "chainwork": "000000000000000000000000000000000000000000000000000009ad09ad09ad",
  "nTx": 1,
  "previousblockhash": "00000000877261726e48ff9c6a7284d7f876c0969dbdce3629508385e0a34b48",
  "nextblockhash": "00000000163b8bd61b369cabbeb3614947b48d99a98758845058d3ad1e0fff48",
  "strippedsize": 216,
  "size": 216,
  "weight": 864,
  "tx": [
    {
      "txid": "d696967249650549f34629f94694d5ab70151c71170b1f101807e4f1bb522cfa",
      "hash": "d696967249650549f34629f94694d5ab70151c71170b1f101807e4f1bb522cfa",
      "version": 1,
      "size": 135,
      "vsize": 135,
      "weight": 540,
      "locktime": 0,
      "vin": [
        {
          "coinbase": "04ffff001d02cc00",
          "sequence": 4294967295
        }
      ],
      "vout": [
        {
          "value": 50.0,
          "n": 0,
          "scriptPubKey": {
            "asm": "04d03db8646a188cc16fe3df414e938d55e77a330b4cc3659d6d32490ed1ad04242f15339dead7f1d52b7954ee90f84b27147ce9f90438a973816f67fbdc6ca1c1 OP_CHECKSIG",
            "desc": "pk(04d03db8646a188cc16fe3df414e938d55e77a330b4cc3659d6d32490ed1ad04242f15339dead7f1d52b7954ee90f84b27147ce9f90438a973816f67fbdc6ca1c1)#fu2m2s3q",
            "hex": "4104d03db8646a188cc16fe3df414e938d55e77a330b4cc3659d6d32490ed1ad04242f15339dead7f1d52b7954ee90f84b27147ce9f90438a973816f67fbdc6ca1c1ac",
            "type": "pubkey"
          }
        }
      ],
      "hex": "01000000010000000000000000000000000000000000000000000000000000000000000000ffffffff0804ffff001d02cc00ffffffff0100f2052a01000000434104d03db8646a188cc16fe3df414e938d55e77a330b4cc3659d6d32490ed1ad04242f15339dead7f1d52b7954ee90f84b27147ce9f90438a973816f67fbdc6ca1c1ac00000000"
    }
  ]
}