{
  "hash": "00000000a68b9688d726301d01c488831ea4de6469472a447a3a213a3dc1f841",
  "confirmations": 44578,
  "height": 8520,
  "version": 1,
  "versionHex": "00000001",
  "merkleroot": "1dc0083f5c38339cd7828cc3e958cbc89ae190bc7e0cfc5457346aed80fa4b2d",
  "time": 1237888070,
  "mediantime": 1237883427,
  "nonce": 438217514,
  "bits": "1d00ffff",
  "difficulty": 1,
  "chainwork": "0000000000000000000000000000000000000000000000000000214921492149",
  "nTx": 1,
  "previousblockhash": "000000002c5e3814ce745ac44738563d426b5d31df54482673ecb9780d49c63c",
  "nextblockhash": "0000000069c8fc1d836a77857fd766dcc6cf913fa2843135931db13cfaf36612",
  "strippedsize": 216,
  "size": 216,
  "weight": 864,
  "tx": [
    {
      "txid": "1dc0083f5c38339cd7828cc3e958cbc89ae190bc7e0cfc5457346aed80fa4b2d",
      "hash": "1dc0083f5c38339cd7828cc3e958cbc89ae190bc7e0cfc5457346aed80fa4b2d",
      "version": 1,
      "size": 135,
      "vsize": 135,
      "weight": 540,
      "locktime": 0,
      "vin": [
        {
          "coinbase": "04ffff001d021508",
          "sequence": 4294967295
        }
      ],
      "vout": [
        {
          "value": 50.0,
          "n": 0,
          "scriptPubKey": {
            "asm": "0431d914499b70be9d1f1f3f82d28fb033cd92c4f0b14dca4351f54b2ff55a48f2b71752bbc3b8fb5adbec4e2b4f1dafd8b9ec90eb0ff5f528863a8b3a95f9c16d OP_CHECKSIG",
            "desc": "pk(0431d914499b70be9d1f1f3f82d28fb033cd92c4f0b14dca4351f54b2ff55a48f2b71752bbc3b8fb5adbec4e2b4f1dafd8b9ec90eb0ff5f528863a8b3a95f9c16d)#2hxhq0eg",
            "hex": "410431d914499b70be9d1f1f3f82d28fb033cd92c4f0b14dca4351f54b2ff55a48f2b71752bbc3b8fb5adbec4e2b4f1dafd8b9ec90eb0ff5f528863a8b3a95f9c16dac",
            "type": "pubkey"
          }
        }
      ],
      "hex": "01000000010000000000000000000000000000000000000000000000000000000000000000ffffffff0804ffff001d021508ffffffff0100f2052a0100000043410431d914499b70be9d1f1f3f82d28fb033cd92c4f0b14dca4351f54b2ff55a48f2b71752bbc3b8fb5adbec4e2b4f1dafd8b9ec90eb0ff5f528863a8b3a95f9c16dac00000000"
    }
  ]
}