{
  "hash": "00000000b492190b7fbb1cc199f58480d0ca057a2638820cd63bd4d4532e2ff6",
  "confirmations": 49464,
  "height": 3634,
  "version": 1,
  "versionHex": "00000001",
  "merkleroot": "3e3d1b39416ab8dcec4628b8735a5ea32dc0a891113816c1a7cba9e392a7a203",
  "time": 1234192768,
  "mediantime": 1234190066,
  "nonce": 20727320,
  "bits": "1d00ffff",
  "difficulty": 1,
  "chainwork": "00000000000000000000000000000000000000000000000000000e330e330e33",
  "nTx": 1,
  "previousblockhash": "00000000feda20cb72d180aca36f84ca83fe457cec92609f8b49e490854edf5b",
  "nextblockhash": "000000006a9110164292ac6f9ba47e1d9f2104d18c046428ef5ff5f35a95f129",
  "strippedsize": 216,
  "size": 216,
  "weight": 864,
  "tx": [
    {
      "txid": "3e3d1b39416ab8dcec4628b8735a5ea32dc0a891113816c1a7cba9e392a7a203",
      "hash": "3e3d1b39416ab8dcec4628b8735a5ea32dc0a891113816c1a7cba9e392a7a203",
      "version": 1,
      "size": 135,
      "vsize": 135,
      "weight": 540,
      "locktime": 0,
      "vin": [
        {
          "coinbase": "04ffff001d020409",
          "sequence": 4294967295
        }
      ],
      "vout": [
        {
          "value": 50.0,
          "n": 0,
          "scriptPubKey": {
            "asm": "04f0b1eb37e94253fb061ba050d0bac75bf2555020db2902d2911a7e2f87208ee33cc7dfbebb03b3f92e4bb0da96326d2b336aee35f79df1907e42dcfa7fca6249 OP_CHECKSIG",
            "desc": "pk(04f0b1eb37e94253fb061ba050d0bac75bf2555020db2902d2911a7e2f87208ee33cc7dfbebb03b3f92e4bb0da96326d2b336aee35f79df1907e42dcfa7fca6249)#j8ufjysc",
            "hex": "4104f0b1eb37e94253fb061ba050d0bac75bf2555020db2902d2911a7e2f87208ee33cc7dfbebb03b3f92e4bb0da96326d2b336aee35f79df1907e42dcfa7fca6249ac",
            "type": "pubkey"
          }
        }
      ],
      "hex": "01000000010000000000000000000000000000000000000000000000000000000000000000ffffffff0804ffff001d020409ffffffff0100f2052a01000000434104f0b1eb37e94253fb061ba050d0bac75bf2555020db2902d2911a7e2f87208ee33cc7dfbebb03b3f92e4bb0da96326d2b336aee35f79df1907e42dcfa7fca6249ac00000000"
    }
  ]
}