{
  "hash": "00000000b9a7113fc8550eb02dfec36c21e9bce64595705c4dafa7ab267b0665",
  "confirmations": 45176,
  "height": 7922,
  "version": 1,
  "versionHex": "00000001",
  "merkleroot": "8328df2cfa34aa4a017c18e7b687e8dd2c2d794c7674d1e08d78d2533381dbe9",
  "time": 1237409243,
  "mediantime": 1237404317,
  "nonce": 3722224679,
  "bits": "1d00ffff",
  "difficulty": 1,
  "chainwork": "00000000000000000000000000000000000000000000000000001ef31ef31ef3",
  "nTx": 1,
  "previousblockhash": "0000000059103f17879ba261827089d0e36b422332358c188db08390d9bdcd67",
  "nextblockhash": "0000000046ba32458dff710c8f28a1ae9bb49e8f8ee994c6bf2e99ec4b2d73c6",
  "strippedsize": 216,
  "size": 216,
  "weight": 864,
  "tx": [
    {
      "txid": "8328df2cfa34aa4a017c18e7b687e8dd2c2d794c7674d1e08d78d2533381dbe9",
      "hash": "8328df2cfa34aa4a017c18e7b687e8dd2c2d794c7674d1e08d78d2533381dbe9",
      "version": 1,
      "size": 135,
      "vsize": 135,
      "weight": 540,
      "locktime": 0,
      "vin": [
        {
          "coinbase": "04ffff001d02e407",
          "sequence": 4294967295
        }
      ],
      "vout": [
        {
          "value": 50.0,
          "n": 0,
          "scriptPubKey": {
            "asm": "04f0dc41da4ff53e310a79ffdaa8f83e977bee0cdafe643bff31e71db77e7b049f2b837b14602152a258b6656580226c31db0ba57c9f397750b88522a76e40c1c6 OP_CHECKSIG",
            "desc": "pk(04f0dc41da4ff53e310a79ffdaa8f83e977bee0cdafe643bff31e71db77e7b049f2b837b14602152a258b6656580226c31db0ba57c9f397750b88522a76e40c1c6)#wme562wg",
            "hex": "4104f0dc41da4ff53e310a79ffdaa8f83e977bee0cdafe643bff31e71db77e7b049f2b837b14602152a258b6656580226c31db0ba57c9f397750b88522a76e40c1c6ac",
            "type": "pubkey"
          }
        }
      ],
      "hex": "01000000010000000000000000000000000000000000000000000000000000000000000000ffffffff0804ffff001d02e407ffffffff0100f2052a01000000434104f0dc41da4ff53e310a79ffdaa8f83e977bee0cdafe643bff31e71db77e7b049f2b837b14602152a258b6656580226c31db0ba57c9f397750b88522a76e40c1c6ac00000000"
    }
  ]
}