{
  "hash": "0000000026f0a9b16c3618be61c180e02ff89b95556251dcbee6ced796fdefba",
  "confirmations": 50244,
  "height": 2854,
  "version": 1,
  "versionHex": "00000001",
  "merkleroot": "e1799f6c9aa0fcd0b5c789bc2e3514f09491c74610df3adb4b1c5e1c5efcd45f",
  "time": 1233660016,
  "mediantime": 1233657725,
  "nonce": 186666372,
  "bits": "1d00ffff",
  "difficulty": 1,
  "chainwork": "00000000000000000000000000000000000000000000000000000b270b270b27",
  "nTx": 1,
  "previousblockhash": "00000000d46e3caa6128566282612b8dfad7870abe77395bfe183a8b570f1a86",
  "nextblockhash": "00000000e75be357ad65995aadcbc94ac72cd5138f3f81b40a79d482696c43f2",
  "strippedsize": 215,
  "size": 215,
  "weight": 860,
  "tx": [
    {
      "txid": "e1799f6c9aa0fcd0b5c789bc2e3514f09491c74610df3adb4b1c5e1c5efcd45f",
      "hash": "e1799f6c9aa0fcd0b5c789bc2e3514f09491c74610df3adb4b1c5e1c5efcd45f",
      "version": 1,
      "size": 134,
      "vsize": 134,
      "weight": 536,
      "locktime": 0,
      "vin": [
        {
          "coinbase": "04ffff001d010d",
          "sequence": 4294967295
        }
      ],
      "vout": [
        {
          "value": 50.0,
          "n": 0,
          "scriptPubKey": {
            "asm": "04a29c833242d382b36a6c930d2aeaab84f0062478a109066777e24653749de32e6b8bfd0426fea6d834e09e980952b749cf9fd83397f18d96d7811ea3cd81a4fa OP_CHECKSIG",
            "desc": "pk(04a29c833242d382b36a6c930d2aeaab84f0062478a109066777e24653749de32e6b8bfd0426fea6d834e09e980952b749cf9fd83397f18d96d7811ea3cd81a4fa)#3fjhulzj",
            "hex": "4104a29c833242d382b36a6c930d2aeaab84f0062478a109066777e24653749de32e6b8bfd0426fea6d834e09e980952b749cf9fd83397f18d96d7811ea3cd81a4faac",
            "type": "pubkey"
          }
        }
      ],
      "hex": "01000000010000000000000000000000000000000000000000000000000000000000000000ffffffff0704ffff001d010dffffffff0100f2052a01000000434104a29c833242d382b36a6c930d2aeaab84f0062478a109066777e24653749de32e6b8bfd0426fea6d834e09e980952b749cf9fd83397f18d96d7811ea3cd81a4faac00000000"
    }
  ]
}