{
  "hash": "00000000bc0c29229324b6b2d483ce7da1c9adbd406cbcf5aeb8824c0b5fef7c",
  "confirmations": 52063,
  "height": 1035,
  "version": 1,
  "versionHex": "00000001",
  "merkleroot": "28e5a49b425e0d7bba34235d74293c7fe08b8e2d5e3bd8702caf8354ddaa6deb",
  "time": 1232374825,
  "mediantime": 1232370113,
  "nonce": 769062177,
  "bits": "1d00ffff",
  "difficulty": 1,
  "chainwork": "0000000000000000000000000000000000000000000000000000040c040c040c",
  "nTx": 1,
  "previousblockhash": "00000000a1987ee5fea1bae12454b15dc47546d2f15e95223983c9b4c3a822de",
  "nextblockhash": "0000000014968cc5dbf73179697c8faa3055c668b236cb7436b166b5753378e6",
  "strippedsize": 216,
  "size": 216,
  "weight": 864,
  "tx": [
    {
      "txid": "28e5a49b425e0d7bba34235d74293c7fe08b8e2d5e3bd8702caf8354ddaa6deb",
      "hash": "28e5a49b425e0d7bba34235d74293c7fe08b8e2d5e3bd8702caf8354ddaa6deb",
      "version": 1,
      "size": 135,
      "vsize": 135,
      "weight": 540,
      "locktime": 0,
      "vin": [
        {
          "coinbase": "04ffff001d02b305",
          "sequence": 4294967295
        }
      ],
      "vout": [
        {
          "value": 50.0,
          "n": 0,
          "scriptPubKey": {
            "asm": "04ddc587832e1cfb17c4928c4b183ab685ba8a4b86cf52f5d04c1214fa434beea3b5cbef9632b02cc214772ad199b8b02afd18ec84f07b98331763dfb742c49696 OP_CHECKSIG",
            "desc": "pk(04ddc587832e1cfb17c4928c4b183ab685ba8a4b86cf52f5d04c1214fa434beea3b5cbef9632b02cc214772ad199b8b02afd18ec84f07b98331763dfb742c49696)#u9ykh99p",
            "hex": "4104ddc587832e1cfb17c4928c4b183ab685ba8a4b86cf52f5d04c1214fa434beea3b5cbef9632b02cc214772ad199b8b02afd18ec84f07b98331763dfb742c49696ac",
            "type": "pubkey"
          }
        }
      ],
      "hex": "01000000010000000000000000000000000000000000000000000000000000000000000000ffffffff0804ffff001d02b305ffffffff0100f2052a01000000434104ddc587832e1cfb17c4928c4b183ab685ba8a4b86cf52f5d04c1214fa434beea3b5cbef9632b02cc214772ad199b8b02afd18ec84f07b98331763dfb742c49696ac00000000"
    }
  ]
}