{
  "hash": "000000004298278bd4280f82e6118fa21d419c00de75578973f85a18ca0abbb7",
  "confirmations": 46273,
  "height": 6825,
  "version": 1,
  "versionHex": "00000001",
  "merkleroot": "70f3dad6c2fabe51ab37beca77bc75f1815411b8ba7d4c8807ffc70f7f348596",
  "time": 1236576426,
  "mediantime": 1236571591,
  "nonce": 2413358339,
  "bits": "1d00ffff",
  "difficulty": 1,
  "chainwork": "00000000000000000000000000000000000000000000000000001aaa1aaa1aaa",
  "nTx": 1,
  "previousblockhash": "00000000fe2e1eaa58d615582450869bc1b6dd5133a02d9323927dc925ce0a70",
  "nextblockhash": "000000008a953cf3f66ff03264ffeaf748ded859fbea8ffe3892e8195c5b53cc",
  "strippedsize": 216,
  "size": 216,
  "weight": 864,
  "tx": [
    {
      "txid": "70f3dad6c2fabe51ab37beca77bc75f1815411b8ba7d4c8807ffc70f7f348596",
      "hash": "70f3dad6c2fabe51ab37beca77bc75f1815411b8ba7d4c8807ffc70f7f348596",
      "version": 1,
      "size": 135,
      "vsize": 135,
      "weight": 540,
      "locktime": 0,
      "vin": [
        {
          "coinbase": "04ffff001d025a09",
          "sequence": 4294967295
        }
      ],
      "vout": [
        {
          "value": 50.0,
          "n": 0,
          "scriptPubKey": {
            "asm": "04398cb0e8d9b0fefd63df33e3cf37eaa292ec128ee8be0bd51b1e303472db60a700ba5ba422c303867bedaaa395d9fbdd4932b4a95f13ffcd3ccbce48b1924c20 OP_CHECKSIG",
            "desc": "pk(04398cb0e8d9b0fefd63df33e3cf37eaa292ec128ee8be0bd51b1e303472db60a700ba5ba422c303867bedaaa395d9fbdd4932b4a95f13ffcd3ccbce48b1924c20)#lefv28tm",
            "hex": "4104398cb0e8d9b0fefd63df33e3cf37eaa292ec128ee8be0bd51b1e303472db60a700ba5ba422c303867bedaaa395d9fbdd4932b4a95f13ffcd3ccbce48b1924c20ac",
            "type": "pubkey"
          }
        }
      ],
      "hex": "01000000010000000000000000000000000000000000000000000000000000000000000000ffffffff0804ffff001d025a09ffffffff0100f2052a01000000434104398cb0e8d9b0fefd63df33e3cf37eaa292ec128ee8be0bd51b1e303472db60a700ba5ba422c303867bedaaa395d9fbdd4932b4a95f13ffcd3ccbce48b1924c20ac00000000"
    }
  ]
}