{
  "hash": "00000000de1a62f59c544724d3d7267033ed03b8339aa5469a15f44da2a36428",
  "confirmations": 50800,
  "height": 2298,
  "version": 1,
  "versionHex": "00000001",
  "merkleroot": "7d7b5debe56f329aa3f3f6b42ac34fd61d13b57146e6bfb1cb1798905356289c",
  "time": 1233277937,
  "mediantime": 1233275497,
  "nonce": 4213629203,
  "bits": "1d00ffff",
  "difficulty": 1,
  "chainwork": "000000000000000000000000000000000000000000000000000008fb08fb08fb",
  "nTx": 1,
  "previousblockhash": "00000000461d0e76325c7870b4b0f72ae0b8778c421d0d660860c9cdc88d44ac",
  "nextblockhash": "000000005845885b0f3e66a5a7377c408c7c42bad7528f44862f7b7e741bdb9e",
  "strippedsize": 216,
  "size": 216,
  "weight": 864,
  "tx": [
    {
      "txid": "7d7b5debe56f329aa3f3f6b42ac34fd61d13b57146e6bfb1cb1798905356289c",
      "hash": "7d7b5debe56f329aa3f3f6b42ac34fd61d13b57146e6bfb1cb1798905356289c",
      "version": 1,
      "size": 135,
      "vsize": 135,
      "weight": 540,
      "locktime": 0,
      "vin": [
        {
          "coinbase": "04ffff001d02a801",
          "sequence": 4294967295
        }
      ],
      "vout": [
        {
          "value": 50.0,
          "n": 0,
          "scriptPubKey": {
            "asm": "043e0993e4ce3cdc1cfb8072b7c276734750b16f35ab3c11a3da237e5f46afaf193371c17a226c8e65524d25050e1517663066cb2c49b46739d46867bcb9c36062 OP_CHECKSIG",
            "desc": "pk(043e0993e4ce3cdc1cfb8072b7c276734750b16f35ab3c11a3da237e5f46afaf193371c17a226c8e65524d25050e1517663066cb2c49b46739d46867bcb9c36062)#py8z0304",
            "hex": "41043e0993e4ce3cdc1cfb8072b7c276734750b16f35ab3c11a3da237e5f46afaf193371c17a226c8e65524d25050e1517663066cb2c49b46739d46867bcb9c36062ac",
            "type": "pubkey"
          }
        }
      ],
      "hex": "01000000010000000000000000000000000000000000000000000000000000000000000000ffffffff0804ffff001d02a801ffffffff0100f2052a010000004341043e0993e4ce3cdc1cfb8072b7c276734750b16f35ab3c11a3da237e5f46afaf193371c17a226c8e65524d25050e1517663066cb2c49b46739d46867bcb9c36062ac00000000"
    }
  ]
}