{
  "hash": "0000000085c7eb2c0bdac98732126e26892669d171460dfe6378e2b2e4d513da",
  "confirmations": 43820,
  "height": 9278,
  "version": 1,
  "versionHex": "00000001",
  "merkleroot": "b6742458d779f6d9bdd7e030703a168a5358fa2e2e9f052752cfded54c19b793",
  "time": 1238456703,
  "mediantime": 1238452823,
  "nonce": 1351836711,
  "bits": "1d00ffff",
  "difficulty": 1,
  "chainwork": "0000000000000000000000000000000000000000000000000000243f243f243f",
  "nTx": 1,
  "previousblockhash": "00000000c9f22d9343cf90c513e5e689b452468194b59ddc09f9dd086e42c4d9",
  "nextblockhash": "0000000078ae4a8815ec71240175f5cf33e23ab1d5b37261a3ed92070dcc4aca",
  "strippedsize": 216,
  "size": 216,
  "weight": 864,
  "tx": [
    {
      "txid": "b6742458d779f6d9bdd7e030703a168a5358fa2e2e9f052752cfded54c19b793",
      "hash": "b6742458d779f6d9bdd7e030703a168a5358fa2e2e9f052752cfded54c19b793",
      "version": 1,
      "size": 135,
      "vsize": 135,
      "weight": 540,
      "locktime": 0,
      "vin": [
        {
          "coinbase": "04ffff001d025b01",
          "sequence": 4294967295
        }
      ],
      "vout": [
        {
          "value": 50.0,
          "n": 0,
          "scriptPubKey": {
            "asm": "04c767e82d66d71bc3cf3d37032305eb90163ce39b25d5d6f93cb97e45598abe0161896fc94171a5886b36d42f8fa1d8219489bedfea4e2c816570caac5b43ac66 OP_CHECKSIG",
            "desc": "pk(04c767e82d66d71bc3cf3d37032305eb90163ce39b25d5d6f93cb97e45598abe0161896fc94171a5886b36d42f8fa1d8219489bedfea4e2c816570caac5b43ac66)#3ve8nnf8",
            "hex": "4104c767e82d66d71bc3cf3d37032305eb90163ce39b25d5d6f93cb97e45598abe0161896fc94171a5886b36d42f8fa1d8219489bedfea4e2c816570caac5b43ac66ac",
            "type": "pubkey"
          }
        }
      ],
      "hex": "01000000010000000000000000000000000000000000000000000000000000000000000000ffffffff0804ffff001d025b01ffffffff0100f2052a01000000434104c767e82d66d71bc3cf3d37032305eb90163ce39b25d5d6f93cb97e45598abe0161896fc94171a5886b36d42f8fa1d8219489bedfea4e2c816570caac5b43ac66ac00000000"
    }
  ]
}