{
  "hash": "0000000098c4a148c28c0eb7ae6aeca20768db02f4f1f9795f66924da6181214",
  "confirmations": 52464,
  "height": 517,
  "version": 1,
  "versionHex": "00000001",
  "merkleroot": "6a0cfec3af78e3365004d12f10ac35b6d7e87bcc3730be3d0b80e89fa3ceb6f5",
  "time": 1231979559,
  "mediantime": 1231975750,
  "nonce": 3529979943,
  "bits": "1d00ffff",
  "difficulty": 1,
  "chainwork": "0000000000000000000000000000000000000000000000000000020602060206",
  "nTx": 1,
  "previousblockhash": "000000008c8e0512be74fec25a643b6337b3596974a2cee47682578bf6a583a5",
  "nextblockhash": "00000000c6bcf8f690bdfbcf51a2c4b9057d47f05ba9efc3980b5c83919a8828",
  "strippedsize": 216,
  "size": 216,
  "weight": 864,
  "tx": [
    {
      "txid": "6a0cfec3af78e3365004d12f10ac35b6d7e87bcc3730be3d0b80e89fa3ceb6f5",
      "hash": "6a0cfec3af78e3365004d12f10ac35b6d7e87bcc3730be3d0b80e89fa3ceb6f5",
      "version": 1,
      "size": 135,
      "vsize": 135,
      "weight": 540,
      "locktime": 0,
      "vin": [
        {
          "coinbase": "04ffff001d02bb04",
          "sequence": 4294967295
        }
      ],
      "vout": [
        {
          "value": 50.0,
          "n": 0,
          "scriptPubKey": {
            "asm": "0479073b3bb40ce6dee6f092d50b0fcd959d070e1471b76e75a94a347d31cec6ed6f8114a84109e60e8aaa56a6573a96440bdcbafd6542a053dd646fd410c6930e OP_CHECKSIG",
            "desc": "pk(0479073b3bb40ce6dee6f092d50b0fcd959d070e1471b76e75a94a347d31cec6ed6f8114a84109e60e8aaa56a6573a96440bdcbafd6542a053dd646fd410c6930e)#7scyrcg9",
            "hex": "410479073b3bb40ce6dee6f092d50b0fcd959d070e1471b76e75a94a347d31cec6ed6f8114a84109e60e8aaa56a6573a96440bdcbafd6542a053dd646fd410c6930eac",
            "type": "pubkey"
          }
        }
      ],
      "hex": "01000000010000000000000000000000000000000000000000000000000000000000000000ffffffff0804ffff001d02bb04ffffffff0100f2052a0100000043410479073b3bb40ce6dee6f092d50b0fcd959d070e1471b76e75a94a347d31cec6ed6f8114a84109e60e8aaa56a6573a96440bdcbafd6542a053dd646fd410c6930eac00000000"
    }
  ]
}