{
  "hash": "00000000c411dcc4a6b2bdaa4a8678eee208926f25824237e9470dab80073b1f",
  "confirmations": 44102,
  "height": 8996,
  "version": 1,
  "versionHex": "00000001",
  "merkleroot": "ff11c8f863beaa64461f9b030b727b3f6675474f6b62c491e7842e72381c3e67",
  "time": 1238249352,
  "mediantime": 1238245931,
  "nonce": 3944969472,
  "bits": "1d00ffff",
  "difficulty": 1,
  "chainwork": "0000000000000000000000000000000000000000000000000000232523252325",
  "nTx": 1,
  "previousblockhash": "000000008b0cde449f5fb47eff545764f75872783ee24ab4f636810c3b60a45d",
  "nextblockhash": "0000000064977bd776a9bf01a4bd7cfc0315888d072c4e7ad33ba2f6b2de5ec8",
  "strippedsize": 216,
  "size": 216,
  "weight": 864,
  "tx": [
    {
      "txid": "ff11c8f863beaa64461f9b030b727b3f6675474f6b62c491e7842e72381c3e67",
      "hash": "ff11c8f863beaa64461f9b030b727b3f6675474f6b62c491e7842e72381c3e67",
      "version": 1,
      "size": 135,
      "vsize": 135,
      "weight": 540,
      "locktime": 0,
      "vin": [
        {
          "coinbase": "04ffff001d024f06",
          "sequence": 4294967295
        }
      ],
      "vout": [
        {
          "value": 50.0,
          "n": 0,
          "scriptPubKey": {
            "asm": "04d93c9d198ca1cf45b19bed781292b1a23f608b0522962e5f92178e267aaf98e92a8ecebb3c8aaa1afc677bbc02429f73fb38aecbedfff8ed8104a8d34368122c OP_CHECKSIG",
            "desc": "pk(04d93c9d198ca1cf45b19bed781292b1a23f608b0522962e5f92178e267aaf98e92a8ecebb3c8aaa1afc677bbc02429f73fb38aecbedfff8ed8104a8d34368122c)#zmss8n7c",
            "hex": "4104d93c9d198ca1cf45b19bed781292b1a23f608b0522962e5f92178e267aaf98e92a8ecebb3c8aaa1afc677bbc02429f73fb38aecbedfff8ed8104a8d34368122cac",
            "type": "pubkey"
          }
        }
      ],
      "hex": "01000000010000000000000000000000000000000000000000000000000000000000000000ffffffff0804ffff001d024f06ffffffff0100f2052a01000000434104d93c9d198ca1cf45b19bed781292b1a23f608b0522962e5f92178e267aaf98e92a8ecebb3c8aaa1afc677bbc02429f73fb38aecbedfff8ed8104a8d34368122cac00000000"
    }
  ]
}