{
  "hash": "0000000043ddaa2ee540420b55ffe3ffdccae3c269d538ed5792c7ab4823128b",
  "confirmations": 52000,
  "height": 1098,
  "version": 1,
  "versionHex": "00000001",
  "merkleroot": "bec000b4dd6299350a868efc7349d51698be2f40f806926d469441aead0c5d1c",
  "time": 1232421724,
  "mediantime": 1232418698,
  "nonce": 1344677657,
  "bits": "1d00ffff",
  "difficulty": 1,
  "chainwork": "0000000000000000000000000000000000000000000000000000044b044b044b",
  "nTx": 1,
  "previousblockhash": "00000000f305ffdc2596b8be1435264eebcfb38033ef29e54b6f245cceb9e68d",
  "nextblockhash": "00000000834bb6337558816ec3599ac50e48652c1149921bfc050817b8e49bd0",
  "strippedsize": 216,
  "size": 216,
  "weight": 864,
  "tx": [
    {
      "txid": "bec000b4dd6299350a868efc7349d51698be2f40f806926d469441aead0c5d1c",
      "hash": "bec000b4dd6299350a868efc7349d51698be2f40f806926d469441aead0c5d1c",
      "version": 1,
      "size": 135,
      "vsize": 135,
      "weight": 540,
      "locktime": 0,
      "vin": [
        {
          "coinbase": "04ffff001d021507",
          "sequence": 4294967295
        }
      ],
      "vout": [
        {
          "value": 50.0,
          "n": 0,
          "scriptPubKey": {
            "asm": "049b27b4aedf1d3947f60a707cd25160257b9e2344655ef72bbb459143d049f27a166cfafa0a527e217cd2f93b58b2e313a76c24777585b3b532d0e9e50e9ec9d1 OP_CHECKSIG",
            "desc": "pk(049b27b4aedf1d3947f60a707cd25160257b9e2344655ef72bbb459143d049f27a166cfafa0a527e217cd2f93b58b2e313a76c24777585b3b532d0e9e50e9ec9d1)#87fe4nnu",
            "hex": "41049b27b4aedf1d3947f60a707cd25160257b9e2344655ef72bbb459143d049f27a166cfafa0a527e217cd2f93b58b2e313a76c24777585b3b532d0e9e50e9ec9d1ac",
            "type": "pubkey"
          }
        }
      ],
      "hex": "01000000010000000000000000000000000000000000000000000000000000000000000000ffffffff0804ffff001d021507ffffffff0100f2052a010000004341049b27b4aedf1d3947f60a707cd25160257b9e2344655ef72bbb459143d049f27a166cfafa0a527e217cd2f93b58b2e313a76c24777585b3b532d0e9e50e9ec9d1ac00000000"
    }
  ]
}