{
  "hash": "00000000ddc3e3ea9e3a0274eb985a05dc5551a80d322713533ae6b692d642fe",
  "confirmations": 51907,
  "height": 1191,
  "version": 1,
  "versionHex": "00000001",
  "merkleroot": "367f265ea29e6b4f425a9dd2a117195abcf570adf9c003fb90181c5716538c8d",
  "time": 1232494808,
  "mediantime": 1232489717,
  "nonce": 134719017,
  "bits": "1d00ffff",
  "difficulty": 1,
  "chainwork": "000000000000000000000000000000000000000000000000000004a804a804a8",
  "nTx": 1,
  "previousblockhash": "000000005d8c1f827319a4dc019cc2474346e90ef6335f17e99c0ef9b50f3572",
  "nextblockhash": "00000000e15bc6463fe96e4297e1635a2363820a3455813968fb1b88d2627b2e",
  "strippedsize": 216,
  "size": 216,
  "weight": 864,
  "tx": [
    {
      "txid": "367f265ea29e6b4f425a9dd2a117195abcf570adf9c003fb90181c5716538c8d",
      "hash": "367f265ea29e6b4f425a9dd2a117195abcf570adf9c003fb90181c5716538c8d",
      "version": 1,
      "size": 135,
      "vsize": 135,
      "weight": 540,
      "locktime": 0,
      "vin": [
        {
          "coinbase": "04ffff001d028f08",
          "sequence": 4294967295
        }
      ],
      "vout": [
        {
          "value": 50.0,
          "n": 0,
          "scriptPubKey": {
            "asm": "04a9d1c2cdad5077303d0d260410c437fa185acb24de84c7caaf7ab5727d415e8476a5ecf27f9815caff3c04e1af55807051dad764e375c42405f158cad102ea18 OP_CHECKSIG",
            "desc": "pk(04a9d1c2cdad5077303d0d260410c437fa185acb24de84c7caaf7ab5727d415e8476a5ecf27f9815caff3c04e1af55807051dad764e375c42405f158cad102ea18)#esezzv28",
            "hex": "4104a9d1c2cdad5077303d0d260410c437fa185acb24de84c7caaf7ab5727d415e8476a5ecf27f9815caff3c04e1af55807051dad764e375c42405f158cad102ea18ac",
            "type": "pubkey"
          }
        }
      ],
      "hex": "01000000010000000000000000000000000000000000000000000000000000000000000000ffffffff0804ffff001d028f08ffffffff0100f2052a01000000434104a9d1c2cdad5077303d0d260410c437fa185acb24de84c7caaf7ab5727d415e8476a5ecf27f9815caff3c04e1af55807051dad764e375c42405f158cad102ea18ac00000000"
    }
  ]
}