{
  "hash": "00000000f5e5e1b325b5a1b27c0cc3f13d52e33ffb513ace2cccc68291b01740",
  "confirmations": 50002,
  "height": 3096,
  "version": 1,
  "versionHex": "00000001",
  "merkleroot": "0cb1e63c9a64015f69863074003286c9a18330f49ac0f6b80eb8395c24cd6a05",
  "time": 1233831430,
  "mediantime": 1233827180,
  "nonce": 1225005882,
  "bits": "1d00ffff",
  "difficulty": 1,
  "chainwork": "00000000000000000000000000000000000000000000000000000c190c190c19",
  "nTx": 1,
  "previousblockhash": "000000000214eb36bf98bd04284bfe1648029a63547a1bd52d5df90e5cc6f0f4",
  "nextblockhash": "000000009a2300cca22db628c1dbfdc2755b3c51e713357ceff6e838049f670c",
  "strippedsize": 216,
  "size": 216,
  "weight": 864,
  "tx": [
    {
      "txid": "0cb1e63c9a64015f69863074003286c9a18330f49ac0f6b80eb8395c24cd6a05",
      "hash": "0cb1e63c9a64015f69863074003286c9a18330f49ac0f6b80eb8395c24cd6a05",
      "version": 1,
      "size": 135,
      "vsize": 135,
      "weight": 540,
      "locktime": 0,
      "vin": [
        {
          "coinbase": "04ffff001d022401",
          "sequence": 4294967295
        }
      ],
      "vout": [
        {
          "value": 50.0,
          "n": 0,
          "scriptPubKey": {
            "asm": "040d22d242d3905e40df0f138275eeb95d4658c55d9141533ae93808a2c0f56bff2b72e52c22fdc55126add20cb476c7c8efb6d01e6e70f1cf01fbdb017904120b OP_CHECKSIG",
            "desc": "pk(040d22d242d3905e40df0f138275eeb95d4658c55d9141533ae93808a2c0f56bff2b72e52c22fdc55126add20cb476c7c8efb6d01e6e70f1cf01fbdb017904120b)#usnnghzg",
            "hex": "41040d22d242d3905e40df0f138275eeb95d4658c55d9141533ae93808a2c0f56bff2b72e52c22fdc55126add20cb476c7c8efb6d01e6e70f1cf01fbdb017904120bac",
            "type": "pubkey"
          }
        }
      ],
      "hex": "01000000010000000000000000000000000000000000000000000000000000000000000000ffffffff0804ffff001d022401ffffffff0100f2052a010000004341040d22d242d3905e40df0f138275eeb95d4658c55d9141533ae93808a2c0f56bff2b72e52c22fdc55126add20cb476c7c8efb6d01e6e70f1cf01fbdb017904120bac00000000"
    }
  ]
}