{
  "hash": "0000000074e77a1e561ab5247bec8a977977d3dde3d70a74fabf0adc3d6bf4ac",
  "confirmations": 52519,
  "height": 579,
  "version": 1,
  "versionHex": "00000001",
  "merkleroot": "da51ca935176551082fe7f51f5d05fe8019df19f108de387767ae509293018cf",
  "time": 1232023318,
  "mediantime": 1232019144,
  "nonce": 3302859286,
  "bits": "1d00ffff",
  "difficulty": 1,
  "chainwork": "0000000000000000000000000000000000000000000000000000024402440244",
  "nTx": 1,
  "previousblockhash": "00000000c3a81d9932edc9a2e3358e631b094d9628178bbf6089b12f75b08815",
  "nextblockhash": "00000000dd9588e8b12025e5257267abe0e9134d493ab3b449a47db8d22567d2",
  "strippedsize": 216,
  "size": 216,
  "weight": 864,
  "tx": [
    {
      "txid": "da51ca935176551082fe7f51f5d05fe8019df19f108de387767ae509293018cf",
      "hash": "da51ca935176551082fe7f51f5d05fe8019df19f108de387767ae509293018cf",
      "version": 1,
      "size": 135,
      "vsize": 135,
      "weight": 540,
      "locktime": 0,
      "vin": [
        {
          "coinbase": "04ffff001d023a06",
          "sequence": 4294967295
        }
      ],
      "vout": [
        {
          "value": 50.0,
          "n": 0,
          "scriptPubKey": {
            "asm": "046eaacea8628e1fb9a8bdac117c1531c25616739bff5d40736d05666877cbeccebbe09f2928777211557c215c71fd7dc47601fb34d1ba6b6ab9e5351c58676def OP_CHECKSIG",
            "desc": "pk(046eaacea8628e1fb9a8bdac117c1531c25616739bff5d40736d05666877cbeccebbe09f2928777211557c215c71fd7dc47601fb34d1ba6b6ab9e5351c58676def)#ux82q65t",
            "hex": "41046eaacea8628e1fb9a8bdac117c1531c25616739bff5d40736d05666877cbeccebbe09f2928777211557c215c71fd7dc47601fb34d1ba6b6ab9e5351c58676defac",
            "type": "pubkey"
          }
        }
      ],
      "hex": "01000000010000000000000000000000000000000000000000000000000000000000000000ffffffff0804ffff001d023a06ffffffff0100f2052a010000004341046eaacea8628e1fb9a8bdac117c1531c25616739bff5d40736d05666877cbeccebbe09f2928777211557c215c71fd7dc47601fb34d1ba6b6ab9e5351c58676defac00000000"
    }
  ]
}