{
  "hash": "00000000bd56ca2b4b827de4a87fd1e5b4bd0437236cef6cc1cbf32b586e16eb",
  "confirmations": 51003,
  "height": 2095,
  "version": 1,
  "versionHex": "00000001",
  "merkleroot": "a0eb11ab9447882f2eec5ececa91ca13a6c027056bd33ee06e7d0625b268c97b",
  "time": 1233133818,
  "mediantime": 1233129201,
  "nonce": 1527365431,
  "bits": "1d00ffff",
  "difficulty": 1,
  "chainwork": "0000000000000000000000000000000000000000000000000000083008300830",
  "nTx": 1,
  "previousblockhash": "000000007e96f9aaf9ffa534df258772228aadf119fecb09b05e942686dde7d4",
  "nextblockhash": "00000000613a98b6b1ff823ae8af5b1613f436e1b1ef62744ae39df6c62d7b0c",
  "strippedsize": 216,
  "size": 216,
  "weight": 864,
  "tx": [
    {
      "txid": "a0eb11ab9447882f2eec5ececa91ca13a6c027056bd33ee06e7d0625b268c97b",
      "hash": "a0eb11ab9447882f2eec5ececa91ca13a6c027056bd33ee06e7d0625b268c97b",
      "version": 1,
      "size": 135,
      "vsize": 135,
      "weight": 540,
      "locktime": 0,
      "vin": [
        {
          "coinbase": "04ffff001d029603",
          "sequence": 4294967295
        }
      ],
      "vout": [
        {
          "value": 50.0,
          "n": 0,
          "scriptPubKey": {
            "asm": "044b61c965dd4d6f172cdcdcd091be27673c8e8efd73a6d99349b3beb24c22f7b58b781b2e7b5ecf4cc5e518adecab6c7d8e8b5cc45e1c772e82485fd8d4877eb9 OP_CHECKSIG",
            "desc": "pk(044b61c965dd4d6f172cdcdcd091be27673c8e8efd73a6d99349b3beb24c22f7b58b781b2e7b5ecf4cc5e518adecab6c7d8e8b5cc45e1c772e82485fd8d4877eb9)#lp5lh3n4",
            "hex": "41044b61c965dd4d6f172cdcdcd091be27673c8e8efd73a6d99349b3beb24c22f7b58b781b2e7b5ecf4cc5e518adecab6c7d8e8b5cc45e1c772e82485fd8d4877eb9ac",
            "type": "pubkey"
          }
        }
      ],
      "hex": "01000000010000000000000000000000000000000000000000000000000000000000000000ffffffff0804ffff001d029603ffffffff0100f2052a010000004341044b61c965dd4d6f172cdcdcd091be27673c8e8efd73a6d99349b3beb24c22f7b58b781b2e7b5ecf4cc5e518adecab6c7d8e8b5cc45e1c772e82485fd8d4877eb9ac00000000"
    }
  ]
}