{
  "hash": "00000000faacf44cdaa8799c463453703e5853e87178da6f6da4c547e58d7015",
  "confirmations": 47893,
  "height": 5205,
  "version": 1,
  "versionHex": "00000001",
  "merkleroot": "21ade14a699a4e5a2174eefa5c56406eee5b38b0fb8bb1d7850da9bf8a2f4046",
  "time": 1235289320,
  "mediantime": 1235287575,
  "nonce": 65885814,
  "bits": "1d00ffff",
  "difficulty": 1,
  "chainwork": "0000000000000000000000000000000000000000000000000000145614561456",
  "nTx": 1,
  "previousblockhash": "00000000d0e19bba017fb2e4f9250ccfde58f0be055b46b0fa4ed8f6b52b871f",
  "nextblockhash": "00000000169187847245c73167740fe0f71c0e6106f944745086aceac2c2e165",
  "strippedsize": 216,
  "size": 216,
  "weight": 864,
  "tx": [
    {
      "txid": "21ade14a699a4e5a2174eefa5c56406eee5b38b0fb8bb1d7850da9bf8a2f4046",
      "hash": "21ade14a699a4e5a2174eefa5c56406eee5b38b0fb8bb1d7850da9bf8a2f4046",
      "version": 1,
      "size": 135,
      "vsize": 135,
      "weight": 540,
      "locktime": 0,
      "vin": [
        {
          "coinbase": "04ffff001d021406",
          "sequence": 4294967295
        }
      ],
      "vout": [
        {
          "value": 50.0,
          "n": 0,
          "scriptPubKey": {
            "asm": "04c3547b0b0bdc4518659333785182dea106e6bb591c98b7f9c588a9b432798a27d67b00d04885601d059713a3ed598776d66da3a5e63d69229e4df3553edc72ef OP_CHECKSIG",
            "desc": "pk(04c3547b0b0bdc4518659333785182dea106e6bb591c98b7f9c588a9b432798a27d67b00d04885601d059713a3ed598776d66da3a5e63d69229e4df3553edc72ef)#ptlyw307",
            "hex": "4104c3547b0b0bdc4518659333785182dea106e6bb591c98b7f9c588a9b432798a27d67b00d04885601d059713a3ed598776d66da3a5e63d69229e4df3553edc72efac",
            "type": "pubkey"
          }
        }
      ],
      "hex": "01000000010000000000000000000000000000000000000000000000000000000000000000ffffffff0804ffff001d021406ffffffff0100f2052a01000000434104c3547b0b0bdc4518659333785182dea106e6bb591c98b7f9c588a9b432798a27d67b00d04885601d059713a3ed598776d66da3a5e63d69229e4df3553edc72efac00000000"
    }
  ]
}