{
  "hash": "000000005dd553ef43782145804368998fee32dcc0a230611fb2b1f001295a07",
  "confirmations": 44911,
  "height": 8187,
  "version": 1,
  "versionHex": "00000001",
  "merkleroot": "b319f35203287375f2d4088a2136c215f92fae86838834e2b4bd0064f8f79575",
  "time": 1237597185,
  "mediantime": 1237594363,
  "nonce": 211463926,
  "bits": "1d00ffff",
  "difficulty": 1,
  "chainwork": "00000000000000000000000000000000000000000000000000001ffc1ffc1ffc",
  "nTx": 1,
  "previousblockhash": "0000000005e1e453df756fcf511353abef26ad10c471acb04c8aae78f66cc7fc",
  "nextblockhash": "00000000509d6b0628b1d939459d00b9201fd85bca68de4608cd1e04b71cf103",
  "strippedsize": 216,
  "size": 216,
  "weight": 864,
  "tx": [
    {
      "txid": "b319f35203287375f2d4088a2136c215f92fae86838834e2b4bd0064f8f79575",
      "hash": "b319f35203287375f2d4088a2136c215f92fae86838834e2b4bd0064f8f79575",
      "version": 1,
      "size": 135,
      "vsize": 135,
      "weight": 540,
      "locktime": 0,
      "vin": [
        {
          "coinbase": "04ffff001d02c400",
          "sequence": 4294967295
        }
      ],
      "vout": [
        {
          "value": 50.0,
          "n": 0,
          "scriptPubKey": {
            "asm": "04d27103894bb867b1924c343ebfe5ba78394fa4c197355feffda36c7d128272418643ec5a178ec66bae376aedb9bab84e7d62e5ebc69ff81876ab56b67fa6aca7 OP_CHECKSIG",
            "desc": "pk(04d27103894bb867b1924c343ebfe5ba78394fa4c197355feffda36c7d128272418643ec5a178ec66bae376aedb9bab84e7d62e5ebc69ff81876ab56b67fa6aca7)#s0ggh6l0",
            "hex": "4104d27103894bb867b1924c343ebfe5ba78394fa4c197355feffda36c7d128272418643ec5a178ec66bae376aedb9bab84e7d62e5ebc69ff81876ab56b67fa6aca7ac",
            "type": "pubkey"
          }
        }
      ],
      "hex": "01000000010000000000000000000000000000000000000000000000000000000000000000ffffffff0804ffff001d02c400ffffffff0100f2052a01000000434104d27103894bb867b1924c343ebfe5ba78394fa4c197355feffda36c7d128272418643ec5a178ec66bae376aedb9bab84e7d62e5ebc69ff81876ab56b67fa6aca7ac00000000"
    }
  ]
}