{
  "hash": "000000005c356d4ba15ae111011c058aae4e9191869815dc910139ede032e7f6",
  "confirmations": 50277,
  "height": 2821,
  "version": 1,
  "versionHex": "00000001",
  "merkleroot": "a7ade4919e7f5bcb6af1ec2bab4c00b294de07213738a4fa9494e6a0a568c920",
  "time": 1233639427,
  "mediantime": 1233637184,
  "nonce": 74776907,
  "bits": "1d00ffff",
  "difficulty": 1,
  "chainwork": "00000000000000000000000000000000000000000000000000000b060b060b06",
  "nTx": 1,
  "previousblockhash": "000000008f7608780c98670ba8cd045667ff29d33f9f162eded95bc78a9bf54e",
  "nextblockhash": "00000000e606b121c9dcb76525a6f3c00f551dd7183fc23c63635597cbe3b783",
  "strippedsize": 216,
  "size": 216,
  "weight": 864,
  "tx": [
    {
      "txid": "a7ade4919e7f5bcb6af1ec2bab4c00b294de07213738a4fa9494e6a0a568c920",
      "hash": "a7ade4919e7f5bcb6af1ec2bab4c00b294de07213738a4fa9494e6a0a568c920",
      "version": 1,
      "size": 135,
      "vsize": 135,
      "weight": 540,
      "locktime": 0,
      "vin": [
        {
          "coinbase": "04ffff001d028e03",
          "sequence": 4294967295
        }
      ],
      "vout": [
        {
          "value": 50.0,
          "n": 0,
          "scriptPubKey": {
            "asm": "04e905d6fbe990ba01ab6b2d635479e2651e68bdec62d13c61fc9eca49c53ebecdebd0706dae6ccad1803e290af496ac27abae6c6e8c866ce8780c30f90f6fbe39 OP_CHECKSIG",
            "desc": "pk(04e905d6fbe990ba01ab6b2d635479e2651e68bdec62d13c61fc9eca49c53ebecdebd0706dae6ccad1803e290af496ac27abae6c6e8c866ce8780c30f90f6fbe39)#xlkww5dv",
            "hex": "4104e905d6fbe990ba01ab6b2d635479e2651e68bdec62d13c61fc9eca49c53ebecdebd0706dae6ccad1803e290af496ac27abae6c6e8c866ce8780c30f90f6fbe39ac",
            "type": "pubkey"
          }
        }
      ],
      "hex": "01000000010000000000000000000000000000000000000000000000000000000000000000ffffffff0804ffff001d028e03ffffffff0100f2052a01000000434104e905d6fbe990ba01ab6b2d635479e2651e68bdec62d13c61fc9eca49c53ebecdebd0706dae6ccad1803e290af496ac27abae6c6e8c866ce8780c30f90f6fbe39ac00000000"
    }
  ]
}