{
  "hash": "00000000266b7953f54a420faa1394c378a721ad11a825ac5aaa0c025006baed",
  "confirmations": 43404,
  "height": 9694,
  "version": 1,
  "versionHex": "00000001",
  "merkleroot": "a6c107127efab8699ce67cd51f22e04ec7d6afe8229fdcb6759fd06becae52ac",
  "time": 1238773028,
  "mediantime": 1238770498,
  "nonce": 176347941,
  "bits": "1d00ffff",
  "difficulty": 1,
  "chainwork": "000000000000000000000000000000000000000000000000000025df25df25df",
  "nTx": 1,
  "previousblockhash": "00000000227da1198cf768a6dd10f1ea2bda67a497f91fce8a20589543baac19",
  "nextblockhash": "00000000be6587bddd577a01e3f9da872a694c9fec10bb7a03dea69242e0cb0a",
  "strippedsize": 216,
  "size": 216,
  "weight": 864,
  "tx": [
    {
      "txid": "a6c107127efab8699ce67cd51f22e04ec7d6afe8229fdcb6759fd06becae52ac",
      "hash": "a6c107127efab8699ce67cd51f22e04ec7d6afe8229fdcb6759fd06becae52ac",
      "version": 1,
      "size": 135,
      "vsize": 135,
      "weight": 540,
      "locktime": 0,
      "vin": [
        {
          "coinbase": "04ffff001d024d08",
          "sequence": 4294967295
        }
      ],
      "vout": [
        {
          "value": 50.0,
          "n": 0,
          "scriptPubKey": {
            "asm": "0488fad6ed5a5c1d6eb6704f887c3f4982f9cd8fcef683dc188f379537930b3c8d8cdca5c4412624b8e0633cc633b8cc514086477d433e0a27bd5cf944640c6fd4 OP_CHECKSIG",
            "desc": "pk(0488fad6ed5a5c1d6eb6704f887c3f4982f9cd8fcef683dc188f379537930b3c8d8cdca5c4412624b8e0633cc633b8cc514086477d433e0a27bd5cf944640c6fd4)#lgvkgnel",
            "hex": "410488fad6ed5a5c1d6eb6704f887c3f4982f9cd8fcef683dc188f379537930b3c8d8cdca5c4412624b8e0633cc633b8cc514086477d433e0a27bd5cf944640c6fd4ac",
            "type": "pubkey"
          }
        }
      ],
      "hex": "01000000010000000000000000000000000000000000000000000000000000000000000000ffffffff0804ffff001d024d08ffffffff0100f2052a0100000043410488fad6ed5a5c1d6eb6704f887c3f4982f9cd8fcef683dc188f379537930b3c8d8cdca5c4412624b8e0633cc633b8cc514086477d433e0a27bd5cf944640c6fd4ac00000000"
    }
  ]
}