{
  "hash": "0000000072403eb89511c869539ccdd2178a4318bac184b7ac1c4a12d814a504",
  "confirmations": 46037,
  "height": 7061,
  "version": 1,
  "versionHex": "00000001",
  "merkleroot": "19ed6f79da30c44285d51e6cece4c15507c04899507dd85f6ca89b6a450ced55",
  "time": 1236765847,
  "mediantime": 1236761751,
  "nonce": 1724240943,
  "bits": "1d00ffff",
  "difficulty": 1,
  "chainwork": "00000000000000000000000000000000000000000000000000001b961b961b96",
  "nTx": 1,
  "previousblockhash": "00000000fad7da7fcd6c4fba6c9af640e6c62066109a9bf7e0d8c0724a1011d2",
  "nextblockhash": "00000000015ef6fddf58dab1ebad3012a77b970631d3054f769e078e383b9aea",
  "strippedsize": 216,
  "size": 216,
  "weight": 864,
  "tx": [
    {
      "txid": "19ed6f79da30c44285d51e6cece4c15507c04899507dd85f6ca89b6a450ced55",
      "hash": "19ed6f79da30c44285d51e6cece4c15507c04899507dd85f6ca89b6a450ced55",
      "version": 1,
      "size": 135,
      "vsize": 135,
      "weight": 540,
      "locktime": 0,
      "vin": [
        {
          "coinbase": "04ffff001d024503",
          "sequence": 4294967295
        }
      ],
      "vout": [
        {
          "value": 50.0,
          "n": 0,
          "scriptPubKey": {
            "asm": "0409145b7839cb76a57b440f71684e599f93e3be0d1cb9761ec5b7d8e75b25816e03abea33f7a202bcc84cd42a0d36f06a3cd3ac162a880ee1b4f0515a9599e8b8 OP_CHECKSIG",
            "desc": "pk(0409145b7839cb76a57b440f71684e599f93e3be0d1cb9761ec5b7d8e75b25816e03abea33f7a202bcc84cd42a0d36f06a3cd3ac162a880ee1b4f0515a9599e8b8)#h03z4xdf",
            "hex": "410409145b7839cb76a57b440f71684e599f93e3be0d1cb9761ec5b7d8e75b25816e03abea33f7a202bcc84cd42a0d36f06a3cd3ac162a880ee1b4f0515a9599e8b8ac",
            "type": "pubkey"
          }
        }
      ],
      "hex": "01000000010000000000000000000000000000000000000000000000000000000000000000ffffffff0804ffff001d024503ffffffff0100f2052a0100000043410409145b7839cb76a57b440f71684e599f93e3be0d1cb9761ec5b7d8e75b25816e03abea33f7a202bcc84cd42a0d36f06a3cd3ac162a880ee1b4f0515a9599e8b8ac00000000"
    }
  ]
}