{
  "hash": "00000000cff88241b632ae5260a48a0a96a6cb6b90d237d05ab8181bd97470c0",
  "confirmations": 50375,
  "height": 2723,
  "version": 1,
  "versionHex": "00000001",
  "merkleroot": "23d8d73172f834cac313d3fb26f9a23a113a02b012590b68bad447dffeeb0973",
  "time": 1233579324,
  "mediantime": 1233575666,
  "nonce": 102658124,
  "bits": "1d00ffff",
  "difficulty": 1,
  "chainwork": "00000000000000000000000000000000000000000000000000000aa40aa40aa4",
  "nTx": 1,
  "previousblockhash": "000000004bf01051fa90794d4ea563d350304a1abab32ea0359f9a0369057e25",
  "nextblockhash": "000000006f7257a170baafd603b8da9ad06695f9fa9fdd2c9f764099919b998c",
  "strippedsize": 216,
  "size": 216,
  "weight": 864,
  "tx": [
    {
      "txid": "23d8d73172f834cac313d3fb26f9a23a113a02b012590b68bad447dffeeb0973",
      "hash": "23d8d73172f834cac313d3fb26f9a23a113a02b012590b68bad447dffeeb0973",
      "version": 1,
      "size": 135,
      "vsize": 135,
      "weight": 540,
      "locktime": 0,
      "vin": [
        {
          "coinbase": "04ffff001d021206",
          "sequence": 4294967295
        }
      ],
      "vout": [
        {
          "value": 50.0,
          "n": 0,
          "scriptPubKey": {
            "asm": "04e58a9909116d2c06a28cccf5cc2b6b3d1e6d50259e1cc7c6edbc994a05eb23c67c7fea735831f74b4a64b581cd5b55c4a4b945473308a4e5b4cd5efa5cf20be8 OP_CHECKSIG",
            "desc": "pk(04e58a9909116d2c06a28cccf5cc2b6b3d1e6d50259e1cc7c6edbc994a05eb23c67c7fea735831f74b4a64b581cd5b55c4a4b945473308a4e5b4cd5efa5cf20be8)#j4r58rd0",
            "hex": "4104e58a9909116d2c06a28cccf5cc2b6b3d1e6d50259e1cc7c6edbc994a05eb23c67c7fea735831f74b4a64b581cd5b55c4a4b945473308a4e5b4cd5efa5cf20be8ac",
            "type": "pubkey"
          }
        }
      ],
      "hex": "01000000010000000000000000000000000000000000000000000000000000000000000000ffffffff0804ffff001d021206ffffffff0100f2052a01000000434104e58a9909116d2c06a28cccf5cc2b6b3d1e6d50259e1cc7c6edbc994a05eb23c67c7fea735831f74b4a64b581cd5b55c4a4b945473308a4e5b4cd5efa5cf20be8ac00000000"
    }
  ]
}