{
  "hash": "000000008bbb96eb48d21a0deaae236cdfc92f16a9a673ffefee05381c3c1638",
  "confirmations": 51910,
  "height": 1188,
  "version": 1,
  "versionHex": "00000001",
  "merkleroot": "961b80cd6d98b22568d80404be225d233986a3743116fea59a02f266487277bf",
  "time": 1232490969,
  "mediantime": 1232487639,
  "nonce": 3601388312,
  "bits": "1d00ffff",
  "difficulty": 1,
  "chainwork": "000000000000000000000000000000000000000000000000000004a504a504a5",
  "nTx": 1,
  "previousblockhash": "00000000106621b9a59c3aec765c8a5f1932881bc86e43b747e371ab6cdfdf5f",
  "nextblockhash": "00000000d094ac53d917dc62f798c7569485ed6f5be43cab46d3b953143303de",
  "strippedsize": 216,
  "size": 216,
  "weight": 864,
  "tx": [
    {
      "txid": "961b80cd6d98b22568d80404be225d233986a3743116fea59a02f266487277bf",
      "hash": "961b80cd6d98b22568d80404be225d233986a3743116fea59a02f266487277bf",
      "version": 1,
      "size": 135,
      "vsize": 135,
      "weight": 540,
      "locktime": 0,
      "vin": [
        {
          "coinbase": "04ffff001d028108",
          "sequence": 4294967295
        }
      ],
      "vout": [
        {
          "value": 50.0,
          "n": 0,
          "scriptPubKey": {
            "asm": "0470d5c109430bbb3faeedcb97be7858bc1344c5dc5f37f0cf8a428b6afa19f10483b2aee31bea9248db49d4d54bd7b22fc6a3133e0138c7bcfb40c48a4b03021d OP_CHECKSIG",
            "desc": "pk(0470d5c109430bbb3faeedcb97be7858bc1344c5dc5f37f0cf8a428b6afa19f10483b2aee31bea9248db49d4d54bd7b22fc6a3133e0138c7bcfb40c48a4b03021d)#zawvc3zy",
            "hex": "410470d5c109430bbb3faeedcb97be7858bc1344c5dc5f37f0cf8a428b6afa19f10483b2aee31bea9248db49d4d54bd7b22fc6a3133e0138c7bcfb40c48a4b03021dac",
            "type": "pubkey"
          }
        }
      ],
      "hex": "01000000010000000000000000000000000000000000000000000000000000000000000000ffffffff0804ffff001d028108ffffffff0100f2052a0100000043410470d5c109430bbb3faeedcb97be7858bc1344c5dc5f37f0cf8a428b6afa19f10483b2aee31bea9248db49d4d54bd7b22fc6a3133e0138c7bcfb40c48a4b03021dac00000000"
    }
  ]
}