{
  "hash": "000000006e895e5f34b824521e4f712f3f3b5a035ea7c6467f110d427ca3e957",
  "confirmations": 43432,
  "height": 9666,
  "version": 1,
  "versionHex": "00000001",
  "merkleroot": "9e51c202fb5b41f9d0b3d249ad9f51e880fbf45244f7a07d1a519e26eb3fd24b",
  "time": 1238751573,
  "mediantime": 1238747636,
  "nonce": 61963841,
  "bits": "1d00ffff",
  "difficulty": 1,
  "chainwork": "000000000000000000000000000000000000000000000000000025c325c325c3",
  "nTx": 1,
  "previousblockhash": "000000000069d1e345d08377d2b7ac27b9cfb87176e5ba2f106bec1c38474e1b",
  "nextblockhash": "0000000040b8a0289483f4e6efb6cf3660d244566d0ca6cd0ea4da5d332f1bff",
  "strippedsize": 216,
  "size": 216,
  "weight": 864,
  "tx": [
    {
      "txid": "9e51c202fb5b41f9d0b3d249ad9f51e880fbf45244f7a07d1a519e26eb3fd24b",
      "hash": "9e51c202fb5b41f9d0b3d249ad9f51e880fbf45244f7a07d1a519e26eb3fd24b",
      "version": 1,
      "size": 135,
      "vsize": 135,
      "weight": 540,
      "locktime": 0,
      "vin": [
        {
          "coinbase": "04ffff001d021001",
          "sequence": 4294967295
        }
      ],
      "vout": [
        {
          "value": 50.0,
          "n": 0,
          "scriptPubKey": {
            "asm": "046560f6af4125a3472b9a047b4f3f5ae4fd30abd967efeca8b0f6b6d73c3c61f07f35522a3b1d276507f7dcad9f9003e270c101bd47bf760889b21b04398f21b5 OP_CHECKSIG",
            "desc": "pk(046560f6af4125a3472b9a047b4f3f5ae4fd30abd967efeca8b0f6b6d73c3c61f07f35522a3b1d276507f7dcad9f9003e270c101bd47bf760889b21b04398f21b5)#trfajxkp",
            "hex": "41046560f6af4125a3472b9a047b4f3f5ae4fd30abd967efeca8b0f6b6d73c3c61f07f35522a3b1d276507f7dcad9f9003e270c101bd47bf760889b21b04398f21b5ac",
            "type": "pubkey"
          }
        }
      ],
      "hex": "01000000010000000000000000000000000000000000000000000000000000000000000000ffffffff0804ffff001d021001ffffffff0100f2052a010000004341046560f6af4125a3472b9a047b4f3f5ae4fd30abd967efeca8b0f6b6d73c3c61f07f35522a3b1d276507f7dcad9f9003e270c101bd47bf760889b21b04398f21b5ac00000000"
    }
  ]
}