{
  "hash": "00000000c12a769238ea24d69091d0bb501cfe00a7fc1d69c8379435a92bb908",
  "confirmations": 43975,
  "height": 9123,
  "version": 1,
  "versionHex": "00000001",
  "merkleroot": "b227cc1ed49ab4bf5c3a904b5ca8b2191086444c48c6acc6743e01c599325d04",
  "time": 1238345872,
  "mediantime": 1238342577,
  "nonce": 843077937,
  "bits": "1d00ffff",
  "difficulty": 1,
  "chainwork": "000000000000000000000000000000000000000000000000000023a423a423a4",
  "nTx": 1,
  "previousblockhash": "00000000d4ff8c141c0b6ddab614cced66667ed7e37116f135ae90258a2e0867",
  "nextblockhash": "0000000096e0727225066eb269b7a755ae641168f919a1a6d9e2838f641e70d5",
  "strippedsize": 216,
  "size": 216,
  "weight": 864,
  "tx": [
    {
      "txid": "b227cc1ed49ab4bf5c3a904b5ca8b2191086444c48c6acc6743e01c599325d04",
      "hash": "b227cc1ed49ab4bf5c3a904b5ca8b2191086444c48c6acc6743e01c599325d04",
      "version": 1,
      "size": 135,
      "vsize": 135,
      "weight": 540,
      "locktime": 0,
      "vin": [
        {
          "coinbase": "04ffff001d02cd08",
          "sequence": 4294967295
        }
      ],
      "vout": [
        {
          "value": 50.0,
          "n": 0,
          "scriptPubKey": {
            "asm": "04db584989270eb7d5eac867613b0db6971461a07b200c4e4e43763f7a1d811a01df08b80a8122f689679302ca53887416fe13c616c682e2956747f4199c0b4363 OP_CHECKSIG",
            "desc": "pk(04db584989270eb7d5eac867613b0db6971461a07b200c4e4e43763f7a1d811a01df08b80a8122f689679302ca53887416fe13c616c682e2956747f4199c0b4363)#cte0zdsu",
            "hex": "4104db584989270eb7d5eac867613b0db6971461a07b200c4e4e43763f7a1d811a01df08b80a8122f689679302ca53887416fe13c616c682e2956747f4199c0b4363ac",
            "type": "pubkey"
          }
        }
      ],
      "hex": "01000000010000000000000000000000000000000000000000000000000000000000000000ffffffff0804ffff001d02cd08ffffffff0100f2052a01000000434104db584989270eb7d5eac867613b0db6971461a07b200c4e4e43763f7a1d811a01df08b80a8122f689679302ca53887416fe13c616c682e2956747f4199c0b4363ac00000000"
    }
  ]
}