{
  "hash": "000000006887ff71c96202da488a0052f79e4c03b1d098bccbd6f80b9c6be7e2",
  "confirmations": 51368,
  "height": 1730,
  "version": 1,
  "versionHex": "00000001",
  "merkleroot": "12dc1c164f217f368006346a4de3bc8b8a356e927104ab19b9a77feb8aa5a4f2",
  "time": 1232864396,
  "mediantime": 1232862513,
  "nonce": 4227804165,
  "bits": "1d00ffff",
  "difficulty": 1,
  "chainwork": "000000000000000000000000000000000000000000000000000006c306c306c3",
  "nTx": 1,
  "previousblockhash": "00000000dc9d18c2d104934b4ef2cbf5827ea7be47353ea4d27ea34b9fc86569",
  "nextblockhash": "00000000eb110fd65125802a2fcd5d1b68fd6c77a2019c5c7a4e11599dfa1a01",
  "strippedsize": 216,
  "size": 216,
  "weight": 864,
  "tx": [
    {
      "txid": "12dc1c164f217f368006346a4de3bc8b8a356e927104ab19b9a77feb8aa5a4f2",
      "hash": "12dc1c164f217f368006346a4de3bc8b8a356e927104ab19b9a77feb8aa5a4f2",
      "version": 1,
      "size": 135,
      "vsize": 135,
      "weight": 540,
      "locktime": 0,
      "vin": [
        {
          "coinbase": "04ffff001d023c03",
          "sequence": 4294967295
        }
      ],
      "vout": [
        {
          "value": 50.0,
          "n": 0,
          "scriptPubKey": {
            "asm": "04784438ef9f59de7903bf60e2b4ca50b5538c1de39cedf331d070481450c5a0bbe000eb43f5f5a447be6f501dd73d408a397a445bac378b84b8230555a2bcf7c6 OP_CHECKSIG",
            "desc": "pk(04784438ef9f59de7903bf60e2b4ca50b5538c1de39cedf331d070481450c5a0bbe000eb43f5f5a447be6f501dd73d408a397a445bac378b84b8230555a2bcf7c6)#h8tunelp",
            "hex": "4104784438ef9f59de7903bf60e2b4ca50b5538c1de39cedf331d070481450c5a0bbe000eb43f5f5a447be6f501dd73d408a397a445bac378b84b8230555a2bcf7c6ac",
            "type": "pubkey"
          }
        }
      ],
      "hex": "01000000010000000000000000000000000000000000000000000000000000000000000000ffffffff0804ffff001d023c03ffffffff0100f2052a01000000434104784438ef9f59de7903bf60e2b4ca50b5538c1de39cedf331d070481450c5a0bbe000eb43f5f5a447be6f501dd73d408a397a445bac378b84b8230555a2bcf7c6ac00000000"
    }
  ]
}