{
  "hash": "00000000d3a1b028ae3fc1b4dc9d360a653394ce7375ed392963cad4ea4135ef",
  "confirmations": 48242,
  "height": 4856,
  "version": 1,
  "versionHex": "00000001",
  "merkleroot": "8fe3ae664a0aa6421b24e41d0edc3aa965cd7e5d5b469a9efa779c35198a9b9f",
  "time": 1235041630,
  "mediantime": 1235038672,
  "nonce": 346990520,
  "bits": "1d00ffff",
  "difficulty": 1,
  "chainwork": "000000000000000000000000000000000000000000000000000012f912f912f9",
  "nTx": 1,
  "previousblockhash": "0000000007671d4cba889f9e90a257e677e94ac7f0017c9f9ab29147ef35e914",
  "nextblockhash": "0000000099c584e4ef5403c7d2dadad3fb0217c8f5a0efac11f505190cb5a6ba",
  "strippedsize": 216,
  "size": 216,
  "weight": 864,
  "tx": [
    {
      "txid": "8fe3ae664a0aa6421b24e41d0edc3aa965cd7e5d5b469a9efa779c35198a9b9f",
      "hash": "8fe3ae664a0aa6421b24e41d0edc3aa965cd7e5d5b469a9efa779c35198a9b9f",
      "version": 1,
      "size": 135,
      "vsize": 135,
      "weight": 540,
      "locktime": 0,
      "vin": [
        {
          "coinbase": "04ffff001d02900b",
          "sequence": 4294967295
        }
      ],
      "vout": [
        {
          "value": 50.0,
          "n": 0,
          "scriptPubKey": {
            "asm": "041ed1faa4098eb7f994ce952726ef0848e86604d21efeea3b30d59babafae1a74fefcb9ab2606e3117741791a70c311bf6c07ab877fbe58fabca947a5ce76533c OP_CHECKSIG",
            "desc": "pk(041ed1faa4098eb7f994ce952726ef0848e86604d21efeea3b30d59babafae1a74fefcb9ab2606e3117741791a70c311bf6c07ab877fbe58fabca947a5ce76533c)#fs7h9e2u",
            "hex": "41041ed1faa4098eb7f994ce952726ef0848e86604d21efeea3b30d59babafae1a74fefcb9ab2606e3117741791a70c311bf6c07ab877fbe58fabca947a5ce76533cac",
            "type": "pubkey"
          }
        }
      ],
      "hex": "01000000010000000000000000000000000000000000000000000000000000000000000000ffffffff0804ffff001d02900bffffffff0100f2052a010000004341041ed1faa4098eb7f994ce952726ef0848e86604d21efeea3b30d59babafae1a74fefcb9ab2606e3117741791a70c311bf6c07ab877fbe58fabca947a5ce76533cac00000000"
    }
  ]
}