{
  "hash": "00000000831221df37f3b36c369bba5af97fd96a8f94648770c40ccb13620aee",
  "confirmations": 52546,
  "height": 552,
  "version": 1,
  "versionHex": "00000001",
  "merkleroot": "0b4330db1c2771843232e0455da71f530335dfa4fb282834f376f2d407d88413",
  "time": 1232004122,
  "mediantime": 1232000330,
  "nonce": 1681448966,
  "bits": "1d00ffff",
  "difficulty": 1,
  "chainwork": "0000000000000000000000000000000000000000000000000000022902290229",
  "nTx": 1,
  "previousblockhash": "00000000cbfae8784536a97d45ae3422b3ec0bb76d480ad3e5db394f8a0b797d",
  "nextblockhash": "0000000072ec09be6118d66d07ac61dfb7a2ab0220551fdc7af8d6002d1ee069",
  "strippedsize": 216,
  "size": 216,
  "weight": 864,
  "tx": [
    {
      "txid": "0b4330db1c2771843232e0455da71f530335dfa4fb282834f376f2d407d88413",
      "hash": "0b4330db1c2771843232e0455da71f530335dfa4fb282834f376f2d407d88413",
      "version": 1,
      "size": 135,
      "vsize": 135,
      "weight": 540,
      "locktime": 0,
      "vin": [
        {
          "coinbase": "04ffff001d02ab05",
          "sequence": 4294967295
        }
      ],
      "vout": [
        {
          "value": 50.0,
          "n": 0,
          "scriptPubKey": {
            "asm": "04d784f51d0c1b612ebe52e0212701984a2c44a0ada25b48856438e359b6495d4ea8b98daa7c46d94269334d567fceef789161ddd651e2094a57cde21025357fb0 OP_CHECKSIG",
            "desc": "pk(04d784f51d0c1b612ebe52e0212701984a2c44a0ada25b48856438e359b6495d4ea8b98daa7c46d94269334d567fceef789161ddd651e2094a57cde21025357fb0)#j7yf4hj7",
            "hex": "4104d784f51d0c1b612ebe52e0212701984a2c44a0ada25b48856438e359b6495d4ea8b98daa7c46d94269334d567fceef789161ddd651e2094a57cde21025357fb0ac",
            "type": "pubkey"
          }
        }
      ],
      "hex": "01000000010000000000000000000000000000000000000000000000000000000000000000ffffffff0804ffff001d02ab05ffffffff0100f2052a01000000434104d784f51d0c1b612ebe52e0212701984a2c44a0ada25b48856438e359b6495d4ea8b98daa7c46d94269334d567fceef789161ddd651e2094a57cde21025357fb0ac00000000"
    }
  ]
}