{
  "hash": "00000000f4d5cf9c261c366bdbf152fdd78e50c4cd577e389345ba2822baf208",
  "confirmations": 46513,
  "height": 6585,
  "version": 1,
  "versionHex": "00000001",
  "merkleroot": "811a807406bb45d77dfdb0c063c7f4640d2ca20a8be84e9869f7e56b6b96a9d5",
  "time": 1236391975,
  "mediantime": 1236388073,
  "nonce": 107018158,
  "bits": "1d00ffff",
  "difficulty": 1,
  "chainwork": "000000000000000000000000000000000000000000000000000019ba19ba19ba",
  "nTx": 1,
  "previousblockhash": "0000000053bdb21d6c70a969c058e3bf30405bad6eb9d7f95ef88bc265a61741",
  "nextblockhash": "00000000f2a0609babed82ee09155eb88ce1fd8466fe3721d76f13982e29bd00",
  "strippedsize": 215,
  "size": 215,
  "weight": 860,
  "tx": [
    {
      "txid": "811a807406bb45d77dfdb0c063c7f4640d2ca20a8be84e9869f7e56b6b96a9d5",
      "hash": "811a807406bb45d77dfdb0c063c7f4640d2ca20a8be84e9869f7e56b6b96a9d5",
      "version": 1,
      "size": 134,
      "vsize": 134,
      "weight": 536,
      "locktime": 0,
      "vin": [
        {
          "coinbase": "04ffff001d017e",
          "sequence": 4294967295
        }
      ],
      "vout": [
        {
          "value": 50.0,
          "n": 0,
          "scriptPubKey": {
            "asm": "04d02214d825a7ba9598e081a3815233aca20707c276017b2c5784e8b3018b5851deb63d5b697f2b358237df83cf3fe539d1c5ae7cb243157b45a36af5dfd2b3bf OP_CHECKSIG",
            "desc": "pk(04d02214d825a7ba9598e081a3815233aca20707c276017b2c5784e8b3018b5851deb63d5b697f2b358237df83cf3fe539d1c5ae7cb243157b45a36af5dfd2b3bf)#yy4rc395",
            "hex": "4104d02214d825a7ba9598e081a3815233aca20707c276017b2c5784e8b3018b5851deb63d5b697f2b358237df83cf3fe539d1c5ae7cb243157b45a36af5dfd2b3bfac",
            "type": "pubkey"
          }
        }
      ],
      "hex": "01000000010000000000000000000000000000000000000000000000000000000000000000ffffffff0704ffff001d017effffffff0100f2052a01000000434104d02214d825a7ba9598e081a3815233aca20707c276017b2c5784e8b3018b5851deb63d5b697f2b358237df83cf3fe539d1c5ae7cb243157b45a36af5dfd2b3bfac00000000"
    }
  ]
}