{
  "hash": "000000008b11231249b029fbec69dfcfd66ff5aef5064c4719334865a0bcf57a",
  "confirmations": 44734,
  "height": 8364,
  "version": 1,
  "versionHex": "00000001",
  "merkleroot": "f2fcd5ed68d7da08b5a7b066647598a9e2959689b4cb0d505b2ccd3d7be0d222",
  "time": 1237776427,
  "mediantime": 1237772804,
  "nonce": 3311598363,
  "bits": "1d00ffff",
  "difficulty": 1,
  "chainwork": "000000000000000000000000000000000000000000000000000020ad20ad20ad",
  "nTx": 1,
  "previousblockhash": "00000000b4aa31e40e5e89d6b2e83b0585f796cbbff2436cde869a8616cc7a19",
  "nextblockhash": "000000003c8f1e429b24b31c5207148b23000925746559c7b5a18d361723b173",
  "strippedsize": 216,
  "size": 216,
  "weight": 864,
  "tx": [
    {
      "txid": "f2fcd5ed68d7da08b5a7b066647598a9e2959689b4cb0d505b2ccd3d7be0d222",
      "hash": "f2fcd5ed68d7da08b5a7b066647598a9e2959689b4cb0d505b2ccd3d7be0d222",
      "version": 1,
      "size": 135,
      "vsize": 135,
      "weight": 540,
      "locktime": 0,
      "vin": [
        {
          "coinbase": "04ffff001d024b05",
          "sequence": 4294967295
        }
      ],
      "vout": [
        {
          "value": 50.0,
          "n": 0,
          "scriptPubKey": {
            "asm": "045ad570f0d01475801a40e9bb2ca10bc765c3a60fc5648fc89e63256e974cd403e167a011be1a04a797280f16f81c440c3ab6ed2e8f5958bc28e81558b2a10e55 OP_CHECKSIG",
            "desc": "pk(045ad570f0d01475801a40e9bb2ca10bc765c3a60fc5648fc89e63256e974cd403e167a011be1a04a797280f16f81c440c3ab6ed2e8f5958bc28e81558b2a10e55)#nuk0fw6l",
            "hex": "41045ad570f0d01475801a40e9bb2ca10bc765c3a60fc5648fc89e63256e974cd403e167a011be1a04a797280f16f81c440c3ab6ed2e8f5958bc28e81558b2a10e55ac",
            "type": "pubkey"
          }
        }
      ],
      "hex": "01000000010000000000000000000000000000000000000000000000000000000000000000ffffffff0804ffff001d024b05ffffffff0100f2052a010000004341045ad570f0d01475801a40e9bb2ca10bc765c3a60fc5648fc89e63256e974cd403e167a011be1a04a797280f16f81c440c3ab6ed2e8f5958bc28e81558b2a10e55ac00000000"
    }
  ]
}