{
  "hash": "00000000edc746c8ce121ac5a287fb48215a258eba3e7c4fde8b1c91c1816dab",
  "confirmations": 43724,
  "height": 9374,
  "version": 1,
  "versionHex": "00000001",
  "merkleroot": "6fef6e77f93bb9bc52355ba01b4e83d00010c51409a2dd57786777c8338febda",
  "time": 1238528587,
  "mediantime": 1238524762,
  "nonce": 609124104,
  "bits": "1d00ffff",
  "difficulty": 1,
  "chainwork": "0000000000000000000000000000000000000000000000000000249f249f249f",
  "nTx": 1,
  "previousblockhash": "00000000d5251fa3625e2e9ac029094d42ca5d9756463d13445ca041fca29a7b",
  "nextblockhash": "000000005c89dfca5c244fd866a9de84cda8e0c15f15d3e9a8536a9758d69384",
  "strippedsize": 216,
  "size": 216,
  "weight": 864,
  "tx": [
    {
      "txid": "6fef6e77f93bb9bc52355ba01b4e83d00010c51409a2dd57786777c8338febda",
      "hash": "6fef6e77f93bb9bc52355ba01b4e83d00010c51409a2dd57786777c8338febda",
      "version": 1,
      "size": 135,
      "vsize": 135,
      "weight": 540,
      "locktime": 0,
      "vin": [
        {
          "coinbase": "04ffff001d02f802",
          "sequence": 4294967295
        }
      ],
      "vout": [
        {
          "value": 50.0,
          "n": 0,
          "scriptPubKey": {
            "asm": "044416ecf92ecfb73769b1f07882b2ec776bc9b88b402d9aedd460dbd058c8f7f45557932fb75929f960331bfedf29b024bea2a3ff2f9a4cb3e95249f75025232a OP_CHECKSIG",
            "desc": "pk(044416ecf92ecfb73769b1f07882b2ec776bc9b88b402d9aedd460dbd058c8f7f45557932fb75929f960331bfedf29b024bea2a3ff2f9a4cb3e95249f75025232a)#x24zuwvd",
            "hex": "41044416ecf92ecfb73769b1f07882b2ec776bc9b88b402d9aedd460dbd058c8f7f45557932fb75929f960331bfedf29b024bea2a3ff2f9a4cb3e95249f75025232aac",
            "type": "pubkey"
          }
        }
      ],
      "hex": "01000000010000000000000000000000000000000000000000000000000000000000000000ffffffff0804ffff001d02f802ffffffff0100f2052a010000004341044416ecf92ecfb73769b1f07882b2ec776bc9b88b402d9aedd460dbd058c8f7f45557932fb75929f960331bfedf29b024bea2a3ff2f9a4cb3e95249f75025232aac00000000"
    }
  ]
}