{
  "hash": "0000000080aa98ee8450107183b1d2d018d0b75f310e672425276fb2d53c01f8",
  "confirmations": 47294,
  "height": 5804,
  "version": 1,
  "versionHex": "00000001",
  "merkleroot": "14c9e11178167aae4dc6959bbe239b063b87098a3a7c8a36e66fbc96c4d03f5a",
  "time": 1235761274,
  "mediantime": 1235759017,
  "nonce": 209348275,
  "bits": "1d00ffff",
  "difficulty": 1,
  "chainwork": "000000000000000000000000000000000000000000000000000016ad16ad16ad",
  "nTx": 1,
  "previousblockhash": "00000000ed6a39c203dce1462025e86b25cd26fec82b02323e2e72c55b4326cd",
  "nextblockhash": "00000000e922de6979609935ff22b059f881788d8769348a3afa9770aaa28998",
  "strippedsize": 216,
  "size": 216,
  "weight": 864,
  "tx": [
    {
      "txid": "14c9e11178167aae4dc6959bbe239b063b87098a3a7c8a36e66fbc96c4d03f5a",
      "hash": "14c9e11178167aae4dc6959bbe239b063b87098a3a7c8a36e66fbc96c4d03f5a",
      "version": 1,
      "size": 135,
      "vsize": 135,
      "weight": 540,
      "locktime": 0,
      "vin": [
        {
          "coinbase": "04ffff001d022f01",
          "sequence": 4294967295
        }
      ],
      "vout": [
        {
          "value": 50.0,
          "n": 0,
          "scriptPubKey": {
            "asm": "0461426a079a09aa06dd7376921259e37a02cdc7c3535d026f8426fc1bb950a5b25c74df130bbe95ff5629254589f45fb26cefb459d3deeb1fa92d00d8fc4b0dbb OP_CHECKSIG",
            "desc": "pk(0461426a079a09aa06dd7376921259e37a02cdc7c3535d026f8426fc1bb950a5b25c74df130bbe95ff5629254589f45fb26cefb459d3deeb1fa92d00d8fc4b0dbb)#ukptk8eu",
            "hex": "410461426a079a09aa06dd7376921259e37a02cdc7c3535d026f8426fc1bb950a5b25c74df130bbe95ff5629254589f45fb26cefb459d3deeb1fa92d00d8fc4b0dbbac",
            "type": "pubkey"
          }
        }
      ],
      "hex": "01000000010000000000000000000000000000000000000000000000000000000000000000ffffffff0804ffff001d022f01ffffffff0100f2052a0100000043410461426a079a09aa06dd7376921259e37a02cdc7c3535d026f8426fc1bb950a5b25c74df130bbe95ff5629254589f45fb26cefb459d3deeb1fa92d00d8fc4b0dbbac00000000"
    }
  ]
}