{
  "hash": "000000007e11d94606724ebe109107da23c175c3bb383c38885f49a92c4b36c2",
  "confirmations": 50051,
  "height": 3047,
  "version": 1,
  "versionHex": "00000001",
  "merkleroot": "8254ebbfe26decf6259e384ed95f1e5b0dbfe1cd4cf9a52866390997b82f3a34",
  "time": 1233793609,
  "mediantime": 1233791654,
  "nonce": 4178440980,
  "bits": "1d00ffff",
  "difficulty": 1,
  "chainwork": "00000000000000000000000000000000000000000000000000000be80be80be8",
  "nTx": 1,
  "previousblockhash": "000000004716dcc15195dc344aa7bfe1df816d21509424e930cb7b94413b4b10",
  "nextblockhash": "0000000078e35bc3183aa1dd53a37b58bae5b8417a7c0565cecc12af09084aa5",
  "strippedsize": 215,
  "size": 215,
  "weight": 860,
  "tx": [
    {
      "txid": "8254ebbfe26decf6259e384ed95f1e5b0dbfe1cd4cf9a52866390997b82f3a34",
      "hash": "8254ebbfe26decf6259e384ed95f1e5b0dbfe1cd4cf9a52866390997b82f3a34",
      "version": 1,
      "size": 134,
      "vsize": 134,
      "weight": 536,
      "locktime": 0,
      "vin": [
        {
          "coinbase": "04ffff001d0122",
          "sequence": 4294967295
        }
      ],
      "vout": [
        {
          "value": 50.0,
          "n": 0,
          "scriptPubKey": {
            "asm": "0494da1ae80ac0b76e0fca0951e402fab1677211b7162c13110ff63a7908f26cec509e754dc46ef30ca0d2b0ea10c85a49985d9a36f266b5089c3586de056834a4 OP_CHECKSIG",
            "desc": "pk(0494da1ae80ac0b76e0fca0951e402fab1677211b7162c13110ff63a7908f26cec509e754dc46ef30ca0d2b0ea10c85a49985d9a36f266b5089c3586de056834a4)#sdme7m24",
            "hex": "410494da1ae80ac0b76e0fca0951e402fab1677211b7162c13110ff63a7908f26cec509e754dc46ef30ca0d2b0ea10c85a49985d9a36f266b5089c3586de056834a4ac",
            "type": "pubkey"
          }
        }
      ],
      "hex": "01000000010000000000000000000000000000000000000000000000000000000000000000ffffffff0704ffff001d0122ffffffff0100f2052a0100000043410494da1ae80ac0b76e0fca0951e402fab1677211b7162c13110ff63a7908f26cec509e754dc46ef30ca0d2b0ea10c85a49985d9a36f266b5089c3586de056834a4ac00000000"
    }
  ]
}