{
  "hash": "000000001a3871d7fc9627c500469389400d085796595d1f53829742e19ab1b8",
  "confirmations": 49817,
  "height": 3281,
  "version": 1,
  "versionHex": "00000001",
  "merkleroot": "4f9e55b3ae8ba7e7ca690aec277c6560d7e8720b2516110a4e1dc668e363e085",
  "time": 1233956252,
  "mediantime": 1233953514,
  "nonce": 3862371119,
  "bits": "1d00ffff",
  "difficulty": 1,
  "chainwork": "00000000000000000000000000000000000000000000000000000cd20cd20cd2",
  "nTx": 1,
  "previousblockhash": "000000006cd8ffb7b7496ec2b01cb251530d8c5a9a7e7ee0fdd1ac0610da6187",
  "nextblockhash": "00000000813a8b18394a8b96d47f53c9e417107aaab692a408659a881e3c1f4d",
  "strippedsize": 216,
  "size": 216,
  "weight": 864,
  "tx": [
    {
      "txid": "4f9e55b3ae8ba7e7ca690aec277c6560d7e8720b2516110a4e1dc668e363e085",
      "hash": "4f9e55b3ae8ba7e7ca690aec277c6560d7e8720b2516110a4e1dc668e363e085",
      "version": 1,
      "size": 135,
      "vsize": 135,
      "weight": 540,
      "locktime": 0,
      "vin": [
        {
          "coinbase": "04ffff001d02f503",
          "sequence": 4294967295
        }
      ],
      "vout": [
        {
          "value": 50.0,
          "n": 0,
          "scriptPubKey": {
            "asm": "048612dd1a7b2d96126ce48daf358cbae0402392844e966d24ce00e952758cccb26004523a9dbddd4c3b816d45cb0d3d5cef3cf12ecd2e6aec9c4a74c020eeb3dd OP_CHECKSIG",
            "desc": "pk(048612dd1a7b2d96126ce48daf358cbae0402392844e966d24ce00e952758cccb26004523a9dbddd4c3b816d45cb0d3d5cef3cf12ecd2e6aec9c4a74c020eeb3dd)#hqgukac2",
            "hex": "41048612dd1a7b2d96126ce48daf358cbae0402392844e966d24ce00e952758cccb26004523a9dbddd4c3b816d45cb0d3d5cef3cf12ecd2e6aec9c4a74c020eeb3ddac",
            "type": "pubkey"
          }
        }
      ],
      "hex": "01000000010000000000000000000000000000000000000000000000000000000000000000ffffffff0804ffff001d02f503ffffffff0100f2052a010000004341048612dd1a7b2d96126ce48daf358cbae0402392844e966d24ce00e952758cccb26004523a9dbddd4c3b816d45cb0d3d5cef3cf12ecd2e6aec9c4a74c020eeb3ddac00000000"
    }
  ]
}