{
  "hash": "00000000225c742645a738a40408457906fc0982d594ee9f5e1cc805ee167083",
  "confirmations": 47891,
  "height": 5207,
  "version": 1,
  "versionHex": "00000001",
  "merkleroot": "93b86c2699d5058be814585bebe427b5542916eb0c403dbd26f7a13dba878034",
  "time": 1235291206,
  "mediantime": 1235288001,
  "nonce": 1344989469,
  "bits": "1d00ffff",
  "difficulty": 1,
  "chainwork": "0000000000000000000000000000000000000000000000000000145814581458",
  "nTx": 1,
  "previousblockhash": "00000000169187847245c73167740fe0f71c0e6106f944745086aceac2c2e165",
  "nextblockhash": "000000009e5d26570424359900f436bd26b26e6b0b3573dad84b14df4b88bfeb",
  "strippedsize": 216,
  "size": 216,
  "weight": 864,
  "tx": [
    {
      "txid": "93b86c2699d5058be814585bebe427b5542916eb0c403dbd26f7a13dba878034",
      "hash": "93b86c2699d5058be814585bebe427b5542916eb0c403dbd26f7a13dba878034",
      "version": 1,
      "size": 135,
      "vsize": 135,
      "weight": 540,
      "locktime": 0,
      "vin": [
        {
          "coinbase": "04ffff001d02b300",
          "sequence": 4294967295
        }
      ],
      "vout": [
        {
          "value": 50.0,
          "n": 0,
          "scriptPubKey": {
            "asm": "043785f9c2e50a4ba602ace3cf7472086c71c49ececa8f7e023e12560f60e49e1a27c9e28aee56af4e6b517b7ff2f729ce3630564f05ce34ef61cc3dfbc9089ccf OP_CHECKSIG",
            "desc": "pk(043785f9c2e50a4ba602ace3cf7472086c71c49ececa8f7e023e12560f60e49e1a27c9e28aee56af4e6b517b7ff2f729ce3630564f05ce34ef61cc3dfbc9089ccf)#wfj668m4",
            "hex": "41043785f9c2e50a4ba602ace3cf7472086c71c49ececa8f7e023e12560f60e49e1a27c9e28aee56af4e6b517b7ff2f729ce3630564f05ce34ef61cc3dfbc9089ccfac",
            "type": "pubkey"
          }
        }
      ],
      "hex": "01000000010000000000000000000000000000000000000000000000000000000000000000ffffffff0804ffff001d02b300ffffffff0100f2052a010000004341043785f9c2e50a4ba602ace3cf7472086c71c49ececa8f7e023e12560f60e49e1a27c9e28aee56af4e6b517b7ff2f729ce3630564f05ce34ef61cc3dfbc9089ccfac00000000"
    }
  ]
}