{
  "hash": "000000003ce1598e88d1dfe2f6e4b9113dbb881df879d7455517a7260fec26a3",
  "confirmations": 44939,
  "height": 8159,
  "version": 1,
  "versionHex": "00000001",
  "merkleroot": "c6cb09b09939790eeb5ca899769e54be8446b7867d4f8af9d5d95314938d0d0a",
  "time": 1237578083,
  "mediantime": 1237575723,
  "nonce": 27723051,
  "bits": "1d00ffff",
  "difficulty": 1,
  "chainwork": "00000000000000000000000000000000000000000000000000001fe01fe01fe0",
  "nTx": 1,
  "previousblockhash": "00000000a503c2c6344e711fa2780712b49500c0b35a250b92f40c64544c8b69",
  "nextblockhash": "0000000091159b34a415d274e7a7f0c8ecc8a7f7f61ab7264082b1f22e58acd8",
  "strippedsize": 216,
  "size": 216,
  "weight": 864,
  "tx": [
    {
      "txid": "c6cb09b09939790eeb5ca899769e54be8446b7867d4f8af9d5d95314938d0d0a",
      "hash": "c6cb09b09939790eeb5ca899769e54be8446b7867d4f8af9d5d95314938d0d0a",
      "version": 1,
      "size": 135,
      "vsize": 135,
      "weight": 540,
      "locktime": 0,
      "vin": [
        {
          "coinbase": "04ffff001d02de00",
          "sequence": 4294967295
        }
      ],
      "vout": [
        {
          "value": 50.0,
          "n": 0,
          "scriptPubKey": {
            "asm": "04a1ab8fca7c17053b5450c8c4b4ca5aa578a9ab3df77a44f35f977fec8105dd412a700cd8b16182177d3bd6e645daba0ed127c79519557c40781bf3a833771324 OP_CHECKSIG",
            "desc": "pk(04a1ab8fca7c17053b5450c8c4b4ca5aa578a9ab3df77a44f35f977fec8105dd412a700cd8b16182177d3bd6e645daba0ed127c79519557c40781bf3a833771324)#4slfrpkf",
            "hex": "4104a1ab8fca7c17053b5450c8c4b4ca5aa578a9ab3df77a44f35f977fec8105dd412a700cd8b16182177d3bd6e645daba0ed127c79519557c40781bf3a833771324ac",
            "type": "pubkey"
          }
        }
      ],
      "hex": "01000000010000000000000000000000000000000000000000000000000000000000000000ffffffff0804ffff001d02de00ffffffff0100f2052a01000000434104a1ab8fca7c17053b5450c8c4b4ca5aa578a9ab3df77a44f35f977fec8105dd412a700cd8b16182177d3bd6e645daba0ed127c79519557c40781bf3a833771324ac00000000"
    }
  ]
}