{
  "hash": "00000000ccdabc8da7cfade006e318da72afdd3fc48102b960722313d087382f",
  "confirmations": 51476,
  "height": 1622,
  "version": 1,
  "versionHex": "00000001",
  "merkleroot": "c454af04978eba685bd6998eb47c867afe1389055697b601e357c01eb95ec1a6",
  "time": 1232820620,
  "mediantime": 1232818591,
  "nonce": 1676573448,
  "bits": "1d00ffff",
  "difficulty": 1,
  "chainwork": "0000000000000000000000000000000000000000000000000000065706570657",
  "nTx": 1,
  "previousblockhash": "0000000026aab7cda3077736591040d50a80a40b6654ddd5f080b91a6f2b99a6",
  "nextblockhash": "00000000dd6dd4852c465daec9d045abf836107dae2c7bf711692d62b96a00cd",
  "strippedsize": 216,
  "size": 216,
  "weight": 864,
  "tx": [
    {
      "txid": "c454af04978eba685bd6998eb47c867afe1389055697b601e357c01eb95ec1a6",
      "hash": "c454af04978eba685bd6998eb47c867afe1389055697b601e357c01eb95ec1a6",
      "version": 1,
      "size": 135,
      "vsize": 135,
      "weight": 540,
      "locktime": 0,
      "vin": [
        {
          "coinbase": "04ffff001d026202",
          "sequence": 4294967295
        }
      ],
      "vout": [
        {
          "value": 50.0,
          "n": 0,
          "scriptPubKey": {
            "asm": "044ebf6ec9a04426a4886918e76647053316677122b37d73e227508a6dc519c9e53374130178eee588009a01b2ffaf46f3034855062bb3de10318c242704c9b472 OP_CHECKSIG",
            "desc": "pk(044ebf6ec9a04426a4886918e76647053316677122b37d73e227508a6dc519c9e53374130178eee588009a01b2ffaf46f3034855062bb3de10318c242704c9b472)#xdpy5f4q",
            "hex": "41044ebf6ec9a04426a4886918e76647053316677122b37d73e227508a6dc519c9e53374130178eee588009a01b2ffaf46f3034855062bb3de10318c242704c9b472ac",
            "type": "pubkey"
          }
        }
      ],
      "hex": "01000000010000000000000000000000000000000000000000000000000000000000000000ffffffff0804ffff001d026202ffffffff0100f2052a010000004341044ebf6ec9a04426a4886918e76647053316677122b37d73e227508a6dc519c9e53374130178eee588009a01b2ffaf46f3034855062bb3de10318c242704c9b472ac00000000"
    }
  ]
}