{
  "hash": "0000000098b58d427a10c860335a21c1a9a7639e96c3d6f1a03d8c8c885b5e3b",
  "confirmations": 51798,
  "height": 22,
  "version": 1,
  "versionHex": "00000001",
  "merkleroot": "9e2eaf1d7e5178a2d116f331c340f1f7fd6de7540783ac36a7054fe9a4d64943",
  "time": 1231567467,
  "mediantime": 1231563791,
  "nonce": 1645155368,
  "bits": "1d00ffff",
  "difficulty": 1,
  "chainwork": "0000000000000000000000000000000000000000000000000000001700170017",
  "nTx": 1,
  "previousblockhash": "000000006f016342d1275be946166cff975c8b27542de70a7113ac6d1ef3294f",
  "nextblockhash": "000000000cd339982e556dfffa9de94744a4135c53eeef15b7bcc9bdeb9c2182",
  "strippedsize": 215,
  "size": 215,
  "weight": 860,
  "tx": [
    {
      "txid": "9e2eaf1d7e5178a2d116f331c340f1f7fd6de7540783ac36a7054fe9a4d64943",
      "hash": "9e2eaf1d7e5178a2d116f331c340f1f7fd6de7540783ac36a7054fe9a4d64943",
      "version": 1,
      "size": 134,
      "vsize": 134,
      "weight": 536,
      "locktime": 0,
      "vin": [
        {
          "coinbase": "04ffff001d0130",
          "sequence": 4294967295
        }
      ],
      "vout": [
        {
          "value": 50.0,
          "n": 0,
          "scriptPubKey": {
            "asm": "04aef905809d1004da2b0187dd5198e0f5b11ab291230cdcd9606bbc99acd15bc91f951de6307f5adae03f2e18d523ec8778e7d8e9b7c24ba282c8eaa9bcded840 OP_CHECKSIG",
            "desc": "pk(04aef905809d1004da2b0187dd5198e0f5b11ab291230cdcd9606bbc99acd15bc91f951de6307f5adae03f2e18d523ec8778e7d8e9b7c24ba282c8eaa9bcded840)#72nakr3l",
            "hex": "4104aef905809d1004da2b0187dd5198e0f5b11ab291230cdcd9606bbc99acd15bc91f951de6307f5adae03f2e18d523ec8778e7d8e9b7c24ba282c8eaa9bcded840ac",
            "type": "pubkey"
          }
        }
      ],
      "hex": "01000000010000000000000000000000000000000000000000000000000000000000000000ffffffff0704ffff001d0130ffffffff0100f2052a01000000434104aef905809d1004da2b0187dd5198e0f5b11ab291230cdcd9606bbc99acd15bc91f951de6307f5adae03f2e18d523ec8778e7d8e9b7c24ba282c8eaa9bcded840ac00000000"
    }
  ]
}