{
  "hash": "00000000de0af0d9501ffad632b2302d22cab8b0f21526a81151ea04eb29c26f",
  "confirmations": 51559,
  "height": 1539,
  "version": 1,
  "versionHex": "00000001",
  "merkleroot": "dc73f0964532ce57c0e17c4378001d03cae44bcd67fa376e5674af5ba64f270a",
  "time": 1232783826,
  "mediantime": 1232781891,
  "nonce": 1527553318,
  "bits": "1d00ffff",
  "difficulty": 1,
  "chainwork": "0000000000000000000000000000000000000000000000000000060406040604",
  "nTx": 1,
  "previousblockhash": "00000000a05c1fab96a447ee20c205aa74a69c48569d8d4ff607fd56693a267c",
  "nextblockhash": "00000000e2a77c0f42ed41ebbe18a40cebd8b2b473d31de6ce098f2d0e608bef",
  "strippedsize": 216,
  "size": 216,
  "weight": 864,
  "tx": [
    {
      "txid": "dc73f0964532ce57c0e17c4378001d03cae44bcd67fa376e5674af5ba64f270a",
      "hash": "dc73f0964532ce57c0e17c4378001d03cae44bcd67fa376e5674af5ba64f270a",
      "version": 1,
      "size": 135,
      "vsize": 135,
      "weight": 540,
      "locktime": 0,
      "vin": [
        {
          "coinbase": "04ffff001d027b01",
          "sequence": 4294967295
        }
      ],
      "vout": [
        {
          "value": 50.0,
          "n": 0,
          "scriptPubKey": {
            "asm": "0413b1fd2024c98514a93f6b2fc5185c8f58a4bacd7c2db70c8b907ca1e1be3abac0ac03bf08e29146f4939d9d91f87733d95b98198b27d09191df6a7d63462f1e OP_CHECKSIG",
            "desc": "pk(0413b1fd2024c98514a93f6b2fc5185c8f58a4bacd7c2db70c8b907ca1e1be3abac0ac03bf08e29146f4939d9d91f87733d95b98198b27d09191df6a7d63462f1e)#mr8mq0js",
            "hex": "410413b1fd2024c98514a93f6b2fc5185c8f58a4bacd7c2db70c8b907ca1e1be3abac0ac03bf08e29146f4939d9d91f87733d95b98198b27d09191df6a7d63462f1eac",
            "type": "pubkey"
          }
        }
      ],
      "hex": "01000000010000000000000000000000000000000000000000000000000000000000000000ffffffff0804ffff001d027b01ffffffff0100f2052a0100000043410413b1fd2024c98514a93f6b2fc5185c8f58a4bacd7c2db70c8b907ca1e1be3abac0ac03bf08e29146f4939d9d91f87733d95b98198b27d09191df6a7d63462f1eac00000000"
    }
  ]
}