{
  "hash": "00000000878119c100055d8423526cbd934a88de8ca8db65d9795f1677e4cb6a",
  "confirmations": 45832,
  "height": 7266,
  "version": 1,
  "versionHex": "00000001",
  "merkleroot": "da5cd1ee2e9e68191fa9d3f1dc20fd741607c24cd9511d0374e0a1ab3d3a6816",
  "time": 1236921512,
  "mediantime": 1236917197,
  "nonce": 1230285848,
  "bits": "1d00ffff",
  "difficulty": 1,
  "chainwork": "00000000000000000000000000000000000000000000000000001c631c631c63",
  "nTx": 1,
  "previousblockhash": "00000000cf884c9ca1e2a408132942d48be12baa47022d902c1dc29397a8d29d",
  "nextblockhash": "0000000053c595c8ba04b43d09f6b7eb0ccc868014daf55c2895392eaaaa0690",
  "strippedsize": 216,
  "size": 216,
  "weight": 864,
  "tx": [
    {
      "txid": "da5cd1ee2e9e68191fa9d3f1dc20fd741607c24cd9511d0374e0a1ab3d3a6816",
      "hash": "da5cd1ee2e9e68191fa9d3f1dc20fd741607c24cd9511d0374e0a1ab3d3a6816",
      "version": 1,
      "size": 135,
      "vsize": 135,
      "weight": 540,
      "locktime": 0,
      "vin": [
        {
          "coinbase": "04ffff001d02c406",
          "sequence": 4294967295
        }
      ],
      "vout": [
        {
          "value": 50.0,
          "n": 0,
          "scriptPubKey": {
            "asm": "04a6b5c98323edd586fc341b09d341220e8f4e133fc4498f9714de64489a79aec8396424e6d4100a37b79d1de5f8a32f45aaf3e4dcdee60775e329a982364779f0 OP_CHECKSIG",
            "desc": "pk(04a6b5c98323edd586fc341b09d341220e8f4e133fc4498f9714de64489a79aec8396424e6d4100a37b79d1de5f8a32f45aaf3e4dcdee60775e329a982364779f0)#m9mesahj",
            "hex": "4104a6b5c98323edd586fc341b09d341220e8f4e133fc4498f9714de64489a79aec8396424e6d4100a37b79d1de5f8a32f45aaf3e4dcdee60775e329a982364779f0ac",
            "type": "pubkey"
          }
        }
      ],
      "hex": "01000000010000000000000000000000000000000000000000000000000000000000000000ffffffff0804ffff001d02c406ffffffff0100f2052a01000000434104a6b5c98323edd586fc341b09d341220e8f4e133fc4498f9714de64489a79aec8396424e6d4100a37b79d1de5f8a32f45aaf3e4dcdee60775e329a982364779f0ac00000000"
    }
  ]
}