{
  "hash": "00000000c4f49e3bffbd95679dc5684e388bf65b0c5160a64b34ab9a22ebc6d3",
  "confirmations": 51991,
  "height": 349,
  "version": 1,
  "versionHex": "00000001",
  "merkleroot": "2053541c3f536a401ccf10b58637168cbccfa040db3527de32b24a4c2178b373",
  "time": 1231864857,
  "mediantime": 1231861522,
  "nonce": 4017452592,
  "bits": "1d00ffff",
  "difficulty": 1,
  "chainwork": "0000000000000000000000000000000000000000000000000000015e015e015e",
  "nTx": 1,
  "previousblockhash": "000000008d47f2e62a4fc29427cae537426c7ff461719e7f0433e785138b751c",
  "nextblockhash": "00000000e286ad94972e44b0532f2823bcda3977661a5136ff4d9d7db107d944",
  "strippedsize": 216,
  "size": 216,
  "weight": 864,
  "tx": [
    {
      "txid": "2053541c3f536a401ccf10b58637168cbccfa040db3527de32b24a4c2178b373",
      "hash": "2053541c3f536a401ccf10b58637168cbccfa040db3527de32b24a4c2178b373",
      "version": 1,
      "size": 135,
      "vsize": 135,
      "weight": 540,
      "locktime": 0,
      "vin": [
        {
          "coinbase": "04ffff001d027401",
          "sequence": 4294967295
        }
      ],
      "vout": [
        {
          "value": 50.0,
          "n": 0,
          "scriptPubKey": {
            "asm": "04af361ac6dc7bc7296b8b930742edb42b051d7a67485213cc72bcb713bb6300048baae846730058896a73d4b46da65082037ba40e832a2b5c4a3ce0c7469ad6f0 OP_CHECKSIG",
            "desc": "pk(04af361ac6dc7bc7296b8b930742edb42b051d7a67485213cc72bcb713bb6300048baae846730058896a73d4b46da65082037ba40e832a2b5c4a3ce0c7469ad6f0)#sk75psp4",
            "hex": "4104af361ac6dc7bc7296b8b930742edb42b051d7a67485213cc72bcb713bb6300048baae846730058896a73d4b46da65082037ba40e832a2b5c4a3ce0c7469ad6f0ac",
            "type": "pubkey"
          }
        }
      ],
      "hex": "01000000010000000000000000000000000000000000000000000000000000000000000000ffffffff0804ffff001d027401ffffffff0100f2052a01000000434104af361ac6dc7bc7296b8b930742edb42b051d7a67485213cc72bcb713bb6300048baae846730058896a73d4b46da65082037ba40e832a2b5c4a3ce0c7469ad6f0ac00000000"
    }
  ]
}