{
  "hash": "000000005aab39ac88d376bf250ce6497c2a32df8d370fdf67d24f65e024137c",
  "confirmations": 46315,
  "height": 6783,
  "version": 1,
  "versionHex": "00000001",
  "merkleroot": "1f377ac5733481db51fe5dc4556338342bb4009db202a7b4bbd087801788bba4",
  "time": 1236547622,
  "mediantime": 1236542169,
  "nonce": 2037391638,
  "bits": "1d00ffff",
  "difficulty": 1,
  "chainwork": "00000000000000000000000000000000000000000000000000001a801a801a80",
  "nTx": 1,
  "previousblockhash": "00000000050263108675caf911d5befc890e599ee2ad018bcd1bbccb01daa92d",
  "nextblockhash": "0000000026e33290086013f66115a4fa85ea289f4b2deefcd0b9e40d758a5eb5",
  "strippedsize": 216,
  "size": 216,
  "weight": 864,
  "tx": [
    {
      "txid": "1f377ac5733481db51fe5dc4556338342bb4009db202a7b4bbd087801788bba4",
      "hash": "1f377ac5733481db51fe5dc4556338342bb4009db202a7b4bbd087801788bba4",
      "version": 1,
      "size": 135,
      "vsize": 135,
      "weight": 540,
      "locktime": 0,
      "vin": [
        {
          "coinbase": "04ffff001d029c08",
          "sequence": 4294967295
        }
      ],
      "vout": [
        {
          "value": 50.0,
          "n": 0,
          "scriptPubKey": {
            "asm": "047b05cc738be294af4cff9b93eec86a9cdd5ec97c1e39d54267008d28291468e2e7fdea5358577458221b68545801ec39b72936bf8f44eb213849b4a5ad928ce1 OP_CHECKSIG",
            "desc": "pk(047b05cc738be294af4cff9b93eec86a9cdd5ec97c1e39d54267008d28291468e2e7fdea5358577458221b68545801ec39b72936bf8f44eb213849b4a5ad928ce1)#h5xd5aeu",
            "hex": "41047b05cc738be294af4cff9b93eec86a9cdd5ec97c1e39d54267008d28291468e2e7fdea5358577458221b68545801ec39b72936bf8f44eb213849b4a5ad928ce1ac",
            "type": "pubkey"
          }
        }
      ],
      "hex": "01000000010000000000000000000000000000000000000000000000000000000000000000ffffffff0804ffff001d029c08ffffffff0100f2052a010000004341047b05cc738be294af4cff9b93eec86a9cdd5ec97c1e39d54267008d28291468e2e7fdea5358577458221b68545801ec39b72936bf8f44eb213849b4a5ad928ce1ac00000000"
    }
  ]
}