{
  "hash": "000000004f2c63cf028a37e7fc793a47ace7c27d44aac2a82fd9d90dbfc1750d",
  "confirmations": 52525,
  "height": 573,
  "version": 1,
  "versionHex": "00000001",
  "merkleroot": "66abb33619ed5473434960d89a201a9f15e68ddeea426092699b5d20372dfed6",
  "time": 1232018781,
  "mediantime": 1232015450,
  "nonce": 2819700255,
  "bits": "1d00ffff",
  "difficulty": 1,
  "chainwork": "0000000000000000000000000000000000000000000000000000023e023e023e",
  "nTx": 1,
  "previousblockhash": "000000003b3b42e8af3178e581f468b6d83e5acd419b00656d3d5c22b82ff29c",
  "nextblockhash": "000000005cd735eccf4aefbc7427efee70ee4adc886be67cc68f6f925c9c7e41",
  "strippedsize": 216,
  "size": 216,
  "weight": 864,
  "tx": [
    {
      "txid": "66abb33619ed5473434960d89a201a9f15e68ddeea426092699b5d20372dfed6",
      "hash": "66abb33619ed5473434960d89a201a9f15e68ddeea426092699b5d20372dfed6",
      "version": 1,
      "size": 135,
      "vsize": 135,
      "weight": 540,
      "locktime": 0,
      "vin": [
        {
          "coinbase": "04ffff001d021106",
          "sequence": 4294967295
        }
      ],
      "vout": [
        {
          "value": 50.0,
          "n": 0,
          "scriptPubKey": {
            "asm": "049f80b80ea7dc516d6fcfe54fe46b69ff0b99e1518ca05baf42d04aeccf8acfdf6964f58f5422c28a9c5cc0bb23ad7f41bfd924d31e5ef9af1f3e9b0b131fd39e OP_CHECKSIG",
            "desc": "pk(049f80b80ea7dc516d6fcfe54fe46b69ff0b99e1518ca05baf42d04aeccf8acfdf6964f58f5422c28a9c5cc0bb23ad7f41bfd924d31e5ef9af1f3e9b0b131fd39e)#437qvczj",
            "hex": "41049f80b80ea7dc516d6fcfe54fe46b69ff0b99e1518ca05baf42d04aeccf8acfdf6964f58f5422c28a9c5cc0bb23ad7f41bfd924d31e5ef9af1f3e9b0b131fd39eac",
            "type": "pubkey"
          }
        }
      ],
      "hex": "01000000010000000000000000000000000000000000000000000000000000000000000000ffffffff0804ffff001d021106ffffffff0100f2052a010000004341049f80b80ea7dc516d6fcfe54fe46b69ff0b99e1518ca05baf42d04aeccf8acfdf6964f58f5422c28a9c5cc0bb23ad7f41bfd924d31e5ef9af1f3e9b0b131fd39eac00000000"
    }
  ]
}