{
  "hash": "000000005d688c3609c7e06b3098174d6d6bd914c7bb0454572887640623ab69",
  "confirmations": 45674,
  "height": 7424,
  "version": 1,
  "versionHex": "00000001",
  "merkleroot": "a1098862eb06c0eeffc50afb4f87459201b2d421924586ff8c57dff9668b0f59",
  "time": 1237041055,
  "mediantime": 1237037943,
  "nonce": 30721764,
  "bits": "1d00ffff",
  "difficulty": 1,
  "chainwork": "00000000000000000000000000000000000000000000000000001d011d011d01",
  "nTx": 1,
  "previousblockhash": "00000000d96ba9671153a7649eda0c70f99877f4aaf11aaecb676b3568bf30ce",
  "nextblockhash": "000000005199f3f9c9e872d76ff0fde062a1ddcfd1cac4ff69217893ecfde997",
  "strippedsize": 216,
  "size": 216,
  "weight": 864,
  "tx": [
    {
      "txid": "a1098862eb06c0eeffc50afb4f87459201b2d421924586ff8c57dff9668b0f59",
      "hash": "a1098862eb06c0eeffc50afb4f87459201b2d421924586ff8c57dff9668b0f59",
      "version": 1,
      "size": 135,
      "vsize": 135,
      "weight": 540,
      "locktime": 0,
      "vin": [
        {
          "coinbase": "04ffff001d027701",
          "sequence": 4294967295
        }
      ],
      "vout": [
        {
          "value": 50.0,
          "n": 0,
          "scriptPubKey": {
            "asm": "0441f10bd59232d6fdb9ccf42b3cb7a1fcd25363d1340028e693160afda47c6851b2b010197b2b94e7222b20e7f8043626d02814f264ebd989c6b2c434a4260af1 OP_CHECKSIG",
            "desc": "pk(0441f10bd59232d6fdb9ccf42b3cb7a1fcd25363d1340028e693160afda47c6851b2b010197b2b94e7222b20e7f8043626d02814f264ebd989c6b2c434a4260af1)#vemrcutg",
            "hex": "410441f10bd59232d6fdb9ccf42b3cb7a1fcd25363d1340028e693160afda47c6851b2b010197b2b94e7222b20e7f8043626d02814f264ebd989c6b2c434a4260af1ac",
            "type": "pubkey"
          }
        }
      ],
      "hex": "01000000010000000000000000000000000000000000000000000000000000000000000000ffffffff0804ffff001d027701ffffffff0100f2052a0100000043410441f10bd59232d6fdb9ccf42b3cb7a1fcd25363d1340028e693160afda47c6851b2b010197b2b94e7222b20e7f8043626d02814f264ebd989c6b2c434a4260af1ac00000000"
    }
  ]
}