{
  "hash": "0000000097ae206cfe8db5a04816e5803bbfe58e3d400d4d1bb8994deac61707",
  "confirmations": 50014,
  "height": 3084,
  "version": 1,
  "versionHex": "00000001",
  "merkleroot": "f3864a5ce36b088fe8ddf2c586603d3f51f8ba233dfe944a0870d48b0637fe02",
  "time": 1233821090,
  "mediantime": 1233817506,
  "nonce": 3954086714,
  "bits": "1d00ffff",
  "difficulty": 1,
  "chainwork": "00000000000000000000000000000000000000000000000000000c0d0c0d0c0d",
  "nTx": 1,
  "previousblockhash": "00000000874d2d7346e90547a739390e5be3e7cfd367d0ee5f4ab515f89428d3",
  "nextblockhash": "00000000108a0cd17dd40745752768b9647d80581d861602a7fa4dc5e0ac6a1a",
  "strippedsize": 216,
  "size": 216,
  "weight": 864,
  "tx": [
    {
      "txid": "f3864a5ce36b088fe8ddf2c586603d3f51f8ba233dfe944a0870d48b0637fe02",
      "hash": "f3864a5ce36b088fe8ddf2c586603d3f51f8ba233dfe944a0870d48b0637fe02",
      "version": 1,
      "size": 135,
      "vsize": 135,
      "weight": 540,
      "locktime": 0,
      "vin": [
        {
          "coinbase": "04ffff001d02f100",
          "sequence": 4294967295
        }
      ],
      "vout": [
        {
          "value": 50.0,
          "n": 0,
          "scriptPubKey": {
            "asm": "0467c509abb1b54dbaa0f4eea1c959fc5356f5a5522cd9c6c145c6a0509fb96481fd66fd563400f59837842c2d8373c034a1ed28bad4b1c30c096b0adc1d6e4dcb OP_CHECKSIG",
            "desc": "pk(0467c509abb1b54dbaa0f4eea1c959fc5356f5a5522cd9c6c145c6a0509fb96481fd66fd563400f59837842c2d8373c034a1ed28bad4b1c30c096b0adc1d6e4dcb)#u9txx8cu",
            "hex": "410467c509abb1b54dbaa0f4eea1c959fc5356f5a5522cd9c6c145c6a0509fb96481fd66fd563400f59837842c2d8373c034a1ed28bad4b1c30c096b0adc1d6e4dcbac",
            "type": "pubkey"
          }
        }
      ],
      "hex": "01000000010000000000000000000000000000000000000000000000000000000000000000ffffffff0804ffff001d02f100ffffffff0100f2052a0100000043410467c509abb1b54dbaa0f4eea1c959fc5356f5a5522cd9c6c145c6a0509fb96481fd66fd563400f59837842c2d8373c034a1ed28bad4b1c30c096b0adc1d6e4dcbac00000000"
    }
  ]
}