{
  "hash": "0000000012ac8aedef5fb255a9a01f52d2292c5af21c737eaba1ef05e2c9c136",
  "confirmations": 52568,
  "height": 530,
  "version": 1,
  "versionHex": "00000001",
  "merkleroot": "1c914135ea7443721a5c2c360b83f0f8e165fc7743292f9ffa98994f2c2ed64d",
  "time": 1231988141,
  "mediantime": 1231984996,
  "nonce": 1051285555,
  "bits": "1d00ffff",
  "difficulty": 1,
  "chainwork": "0000000000000000000000000000000000000000000000000000021302130213",
  "nTx": 1,
  "previousblockhash": "00000000a0899965df34ebd3dbe3c1538e09433834f10d3f0a438ab9f5f0730e",
  "nextblockhash": "00000000a8eb67a3850b2a212994caf169bd08e56841d1777ed40e3057818fff",
  "strippedsize": 216,
  "size": 216,
  "weight": 864,
  "tx": [
    {
      "txid": "1c914135ea7443721a5c2c360b83f0f8e165fc7743292f9ffa98994f2c2ed64d",
      "hash": "1c914135ea7443721a5c2c360b83f0f8e165fc7743292f9ffa98994f2c2ed64d",
      "version": 1,
      "size": 135,
      "vsize": 135,
      "weight": 540,
      "locktime": 0,
      "vin": [
        {
          "coinbase": "04ffff001d022205",
          "sequence": 4294967295
        }
      ],
      "vout": [
        {
          "value": 50.0,
          "n": 0,
          "scriptPubKey": {
            "asm": "04258095776133d12d5b7864a335ae64ccf9ac9ddc97363830fc7b10b5cb9870a60f02a641600b0b1aa0a78b47df622bdceb3588c9dbdf6920d306be20352567a5 OP_CHECKSIG",
            "desc": "pk(04258095776133d12d5b7864a335ae64ccf9ac9ddc97363830fc7b10b5cb9870a60f02a641600b0b1aa0a78b47df622bdceb3588c9dbdf6920d306be20352567a5)#4jpaxee5",
            "hex": "4104258095776133d12d5b7864a335ae64ccf9ac9ddc97363830fc7b10b5cb9870a60f02a641600b0b1aa0a78b47df622bdceb3588c9dbdf6920d306be20352567a5ac",
            "type": "pubkey"
          }
        }
      ],
      "hex": "01000000010000000000000000000000000000000000000000000000000000000000000000ffffffff0804ffff001d022205ffffffff0100f2052a01000000434104258095776133d12d5b7864a335ae64ccf9ac9ddc97363830fc7b10b5cb9870a60f02a641600b0b1aa0a78b47df622bdceb3588c9dbdf6920d306be20352567a5ac00000000"
    }
  ]
}