{
  "hash": "0000000071966c2b1d065fd446b1e485b2c9d9594acd2007ccbd5441cfc89444",
  "confirmations": 51772,
  "height": 7,
  "version": 1,
  "versionHex": "00000001",
  "merkleroot": "8aa673bc752f2851fd645d6a0a92917e967083007d9c1684f9423b100540673f",
  "time": 1231472369,
  "mediantime": 1231470988,
  "nonce": 2258412857,
  "bits": "1d00ffff",
  "difficulty": 1,
  "chainwork": "0000000000000000000000000000000000000000000000000000000800080008",
  "nTx": 1,
  "previousblockhash": "000000003031a0e73735690c5a1ff2a4be82553b2a12b776fbd3a215dc8f778d",
  "nextblockhash": "00000000408c48f847aa786c2268fc3e6ec2af68e8468a34a28c61b7f1de0dc6",
  "strippedsize": 215,
  "size": 215,
  "weight": 860,
  "tx": [
    {
      "txid": "8aa673bc752f2851fd645d6a0a92917e967083007d9c1684f9423b100540673f",
      "hash": "8aa673bc752f2851fd645d6a0a92917e967083007d9c1684f9423b100540673f",
      "version": 1,
      "size": 134,
      "vsize": 134,
      "weight": 536,
      "locktime": 0,
      "vin": [
        {
          "coinbase": "04ffff001d012b",
          "sequence": 4294967295
        }
      ],
      "vout": [
        {
          "value": 50.0,
          "n": 0,
          "scriptPubKey": {
            "asm": "04a59e64c774923d003fae7491b2a7f75d6b7aa3f35606a8ff1cf06cd3317d16a41aa16928b1df1f631f31f28c7da35d4edad3603adb2338c4d4dd268f31530555 OP_CHECKSIG",
            "desc": "pk(04a59e64c774923d003fae7491b2a7f75d6b7aa3f35606a8ff1cf06cd3317d16a41aa16928b1df1f631f31f28c7da35d4edad3603adb2338c4d4dd268f31530555)#vmpryl5v",
            "hex": "4104a59e64c774923d003fae7491b2a7f75d6b7aa3f35606a8ff1cf06cd3317d16a41aa16928b1df1f631f31f28c7da35d4edad3603adb2338c4d4dd268f31530555ac",
            "type": "pubkey"
          }
        }
      ],
      "hex": "01000000010000000000000000000000000000000000000000000000000000000000000000ffffffff0704ffff001d012bffffffff0100f2052a01000000434104a59e64c774923d003fae7491b2a7f75d6b7aa3f35606a8ff1cf06cd3317d16a41aa16928b1df1f631f31f28c7da35d4edad3603adb2338c4d4dd268f31530555ac00000000"
    }
  ]
}