{
  "hash": "0000000091a5658316c76291966d496f1ac3ace20ac937ccf02459f896806031",
  "confirmations": 44506,
  "height": 8592,
  "version": 1,
  "versionHex": "00000001",
  "merkleroot": "bc077f1c1fbf868b84da6c442b5efe6f52bcce4ed4de08e12b5ae6179266d7d3",
  "time": 1237945408,
  "mediantime": 1237940352,
  "nonce": 1784338478,
  "bits": "1d00ffff",
  "difficulty": 1,
  "chainwork": "0000000000000000000000000000000000000000000000000000219121912191",
  "nTx": 1,
  "previousblockhash": "0000000091d29877d6403e3aa31282cbd39952661ad99ecbbb484f937b387b97",
  "nextblockhash": "00000000a1d2b05f887259a17753eea6915bcd20c83dbb1ade3d757c89fd7ac0",
  "strippedsize": 216,
  "size": 216,
  "weight": 864,
  "tx": [
    {
      "txid": "bc077f1c1fbf868b84da6c442b5efe6f52bcce4ed4de08e12b5ae6179266d7d3",
      "hash": "bc077f1c1fbf868b84da6c442b5efe6f52bcce4ed4de08e12b5ae6179266d7d3",
      "version": 1,
      "size": 135,
      "vsize": 135,
      "weight": 540,
      "locktime": 0,
      "vin": [
        {
          "coinbase": "04ffff001d026e09",
          "sequence": 4294967295
        }
      ],
      "vout": [
        {
          "value": 50.0,
          "n": 0,
          "scriptPubKey": {
            "asm": "0418f0b953c41db1522069af7e07da417606ecf420320406ba314a3be4a163882a299e81f28e4651197a5db221bad3512d6e04999809067e2c0f02a7a463ac81fa OP_CHECKSIG",
            "desc": "pk(0418f0b953c41db1522069af7e07da417606ecf420320406ba314a3be4a163882a299e81f28e4651197a5db221bad3512d6e04999809067e2c0f02a7a463ac81fa)#yz97ecg2",
            "hex": "410418f0b953c41db1522069af7e07da417606ecf420320406ba314a3be4a163882a299e81f28e4651197a5db221bad3512d6e04999809067e2c0f02a7a463ac81faac",
            "type": "pubkey"
          }
        }
      ],
      "hex": "01000000010000000000000000000000000000000000000000000000000000000000000000ffffffff0804ffff001d026e09ffffffff0100f2052a0100000043410418f0b953c41db1522069af7e07da417606ecf420320406ba314a3be4a163882a299e81f28e4651197a5db221bad3512d6e04999809067e2c0f02a7a463ac81faac00000000"
    }
  ]
}