{
  "hash": "00000000ebecfce83aaa92cfc4467c2712ab0c63ae3a5b06199673eaa891710e",
  "confirmations": 43799,
  "height": 9299,
  "version": 1,
  "versionHex": "00000001",
  "merkleroot": "e9c9ca37c119b12077aa68486b4ff0432cee130ff1702471ce3190f2c72cd0ec",
  "time": 1238474508,
  "mediantime": 1238470452,
  "nonce": 2591451419,
  "bits": "1d00ffff",
  "difficulty": 1,
  "chainwork": "0000000000000000000000000000000000000000000000000000245424542454",
  "nTx": 1,
  "previousblockhash": "0000000054760524884dc3e30dfe97162c978c8f5a2673f94be100b65235d7da",
  "nextblockhash": "00000000af5423167651b8b485f0bea8ced1bdf7fe832821e5fad4cc27c59195",
  "strippedsize": 216,
  "size": 216,
  "weight": 864,
  "tx": [
    {
      "txid": "e9c9ca37c119b12077aa68486b4ff0432cee130ff1702471ce3190f2c72cd0ec",
      "hash": "e9c9ca37c119b12077aa68486b4ff0432cee130ff1702471ce3190f2c72cd0ec",
      "version": 1,
      "size": 135,
      "vsize": 135,
      "weight": 540,
      "locktime": 0,
      "vin": [
        {
          "coinbase": "04ffff001d02b001",
          "sequence": 4294967295
        }
      ],
      "vout": [
        {
          "value": 50.0,
          "n": 0,
          "scriptPubKey": {
            "asm": "047d6baaabdf88b9d9981d29dfdb2a9adfa6714e53a86dcd34272d3da8fa4465200dba426160277a09f8556f013c6abaf667e415eb8f758708c4e57908390d7d1f OP_CHECKSIG",
            "desc": "pk(047d6baaabdf88b9d9981d29dfdb2a9adfa6714e53a86dcd34272d3da8fa4465200dba426160277a09f8556f013c6abaf667e415eb8f758708c4e57908390d7d1f)#snzf5v6s",
            "hex": "41047d6baaabdf88b9d9981d29dfdb2a9adfa6714e53a86dcd34272d3da8fa4465200dba426160277a09f8556f013c6abaf667e415eb8f758708c4e57908390d7d1fac",
            "type": "pubkey"
          }
        }
      ],
      "hex": "01000000010000000000000000000000000000000000000000000000000000000000000000ffffffff0804ffff001d02b001ffffffff0100f2052a010000004341047d6baaabdf88b9d9981d29dfdb2a9adfa6714e53a86dcd34272d3da8fa4465200dba426160277a09f8556f013c6abaf667e415eb8f758708c4e57908390d7d1fac00000000"
    }
  ]
}