{
  "hash": "0000000018c1efcca692a91d096b44017da704c1c116704cee7e032b9e38397c",
  "confirmations": 44623,
  "height": 8475,
  "version": 1,
  "versionHex": "00000001",
  "merkleroot": "6838550398ebaad86720785dbaeaa176c14d988452e6e7a3eff38742be8fda47",
  "time": 1237849029,
  "mediantime": 1237846073,
  "nonce": 1395194133,
  "bits": "1d00ffff",
  "difficulty": 1,
  "chainwork": "0000000000000000000000000000000000000000000000000000211c211c211c",
  "nTx": 1,
  "previousblockhash": "00000000c4a3de36e3cfcfc042b3353626ad0a8b7e62f609c989b838a1883934",
  "nextblockhash": "00000000ba01b873f18e03b73830aca04d0b86f579d0fd954ec57cab670fa305",
  "strippedsize": 216,
  "size": 216,
  "weight": 864,
  "tx": [
    {
      "txid": "6838550398ebaad86720785dbaeaa176c14d988452e6e7a3eff38742be8fda47",
      "hash": "6838550398ebaad86720785dbaeaa176c14d988452e6e7a3eff38742be8fda47",
      "version": 1,
      "size": 135,
      "vsize": 135,
      "weight": 540,
      "locktime": 0,
      "vin": [
        {
          "coinbase": "04ffff001d023907",
          "sequence": 4294967295
        }
      ],
      "vout": [
        {
          "value": 50.0,
          "n": 0,
          "scriptPubKey": {
            "asm": "04e0618195288598abce5521395bdfa2fc3c02deb65c05ea06802359c6a5d1028249990ea5851036fdf537f2fc8b3591dba91b91f579e29fd2852942ef6345b669 OP_CHECKSIG",
            "desc": "pk(04e0618195288598abce5521395bdfa2fc3c02deb65c05ea06802359c6a5d1028249990ea5851036fdf537f2fc8b3591dba91b91f579e29fd2852942ef6345b669)#54vx3kw8",
            "hex": "4104e0618195288598abce5521395bdfa2fc3c02deb65c05ea06802359c6a5d1028249990ea5851036fdf537f2fc8b3591dba91b91f579e29fd2852942ef6345b669ac",
            "type": "pubkey"
          }
        }
      ],
      "hex": "01000000010000000000000000000000000000000000000000000000000000000000000000ffffffff0804ffff001d023907ffffffff0100f2052a01000000434104e0618195288598abce5521395bdfa2fc3c02deb65c05ea06802359c6a5d1028249990ea5851036fdf537f2fc8b3591dba91b91f579e29fd2852942ef6345b669ac00000000"
    }
  ]
}