{
  "hash": "0000000086bd153fce9a51a436f4d2aedbe44f909e2b7dc28e25859d64344a76",
  "confirmations": 46572,
  "height": 6526,
  "version": 1,
  "versionHex": "00000001",
  "merkleroot": "e4a49bc33c1bbf4c6e9e81ab122108263c732145d278846e96908bded183ed22",
  "time": 1236348946,
  "mediantime": 1236343525,
  "nonce": 1599110684,
  "bits": "1d00ffff",
  "difficulty": 1,
  "chainwork": "0000000000000000000000000000000000000000000000000000197f197f197f",
  "nTx": 1,
  "previousblockhash": "000000005a4ed82552bf00045a7b80f73e9c0967dff8db3eb2d3c119e11adfd1",
  "nextblockhash": "0000000034896f11d935a066e923a205c2a1e823cfb74de2f7cb41b56306a370",
  "strippedsize": 216,
  "size": 216,
  "weight": 864,
  "tx": [
    {
      "txid": "e4a49bc33c1bbf4c6e9e81ab122108263c732145d278846e96908bded183ed22",
      "hash": "e4a49bc33c1bbf4c6e9e81ab122108263c732145d278846e96908bded183ed22",
      "version": 1,
      "size": 135,
      "vsize": 135,
      "weight": 540,
      "locktime": 0,
      "vin": [
        {
          "coinbase": "04ffff001d021a04",
          "sequence": 4294967295
        }
      ],
      "vout": [
        {
          "value": 50.0,
          "n": 0,
          "scriptPubKey": {
            "asm": "04aedf3daae304db5cf9e3ffb9df21d210f204b82fb59ccdaaadd7d8361186d513aae557361650987d0c954583c2cf29fef70497ddd3db35ec78e94fbd5892fb39 OP_CHECKSIG",
            "desc": "pk(04aedf3daae304db5cf9e3ffb9df21d210f204b82fb59ccdaaadd7d8361186d513aae557361650987d0c954583c2cf29fef70497ddd3db35ec78e94fbd5892fb39)#awgx3kv3",
            "hex": "4104aedf3daae304db5cf9e3ffb9df21d210f204b82fb59ccdaaadd7d8361186d513aae557361650987d0c954583c2cf29fef70497ddd3db35ec78e94fbd5892fb39ac",
            "type": "pubkey"
          }
        }
      ],
      "hex": "01000000010000000000000000000000000000000000000000000000000000000000000000ffffffff0804ffff001d021a04ffffffff0100f2052a01000000434104aedf3daae304db5cf9e3ffb9df21d210f204b82fb59ccdaaadd7d8361186d513aae557361650987d0c954583c2cf29fef70497ddd3db35ec78e94fbd5892fb39ac00000000"
    }
  ]
}