{
  "hash": "000000000c9a17ee88c2f75e0327150ef799177df050d55d12ba4bfb536b83b3",
  "confirmations": 48171,
  "height": 4927,
  "version": 1,
  "versionHex": "00000001",
  "merkleroot": "f42b40fc639fd257be841d2f45365b0307fd1a9a73075b81f09796c8bd823884",
  "time": 1235088162,
  "mediantime": 1235085011,
  "nonce": 2259895040,
  "bits": "1d00ffff",
  "difficulty": 1,
  "chainwork": "0000000000000000000000000000000000000000000000000000134013401340",
  "nTx": 1,
  "previousblockhash": "00000000c2603f07ad141c6539dad67ec9afc62ffe29853f7da077aa80505dde",
  "nextblockhash": "00000000780a852aa74c8ecf8efa643f89b5a4bceebc667077fead3d7068870a",
  "strippedsize": 216,
  "size": 216,
  "weight": 864,
  "tx": [
    {
      "txid": "f42b40fc639fd257be841d2f45365b0307fd1a9a73075b81f09796c8bd823884",
      "hash": "f42b40fc639fd257be841d2f45365b0307fd1a9a73075b81f09796c8bd823884",
      "version": 1,
      "size": 135,
      "vsize": 135,
      "weight": 540,
      "locktime": 0,
      "vin": [
        {
          "coinbase": "04ffff001d021306",
          "sequence": 4294967295
        }
      ],
      "vout": [
        {
          "value": 50.0,
          "n": 0,
          "scriptPubKey": {
            "asm": "0445a5c32ca4e2f960a3dc011d5bd94c2fef90d355c8edd89b158b9ee3d6d80aa1d442ad7d05b6a4a9266b8c028a9edb7ef427a55e89ac25f60af01652a04dd73f OP_CHECKSIG",
            "desc": "pk(0445a5c32ca4e2f960a3dc011d5bd94c2fef90d355c8edd89b158b9ee3d6d80aa1d442ad7d05b6a4a9266b8c028a9edb7ef427a55e89ac25f60af01652a04dd73f)#cazma3sz",
            "hex": "410445a5c32ca4e2f960a3dc011d5bd94c2fef90d355c8edd89b158b9ee3d6d80aa1d442ad7d05b6a4a9266b8c028a9edb7ef427a55e89ac25f60af01652a04dd73fac",
            "type": "pubkey"
          }
        }
      ],
      "hex": "01000000010000000000000000000000000000000000000000000000000000000000000000ffffffff0804ffff001d021306ffffffff0100f2052a0100000043410445a5c32ca4e2f960a3dc011d5bd94c2fef90d355c8edd89b158b9ee3d6d80aa1d442ad7d05b6a4a9266b8c028a9edb7ef427a55e89ac25f60af01652a04dd73fac00000000"
    }
  ]
}