{
  "hash": "0000000026c22aef6ad239ed7cce10ee37ea91fffd280bc581f4e8e705106ba5",
  "confirmations": 52562,
  "height": 536,
  "version": 1,
  "versionHex": "00000001",
  "merkleroot": "3e87afa83283b05eb50dd5a6a124501ce784265022906c3245e2646396180236",
  "time": 1231992546,
  "mediantime": 1231989040,
  "nonce": 3219577654,
  "bits": "1d00ffff",
  "difficulty": 1,
  "chainwork": "0000000000000000000000000000000000000000000000000000021902190219",
  "nTx": 1,
  "previousblockhash": "00000000eae98bf15e531e004bcaffdf3c5c5cc6444c52a9fd0f82101249ba95",
  "nextblockhash": "00000000d8844f55ef05e1605b04f37c5b3436fa2abcf24a8942bd885b5d18a7",
  "strippedsize": 216,
  "size": 216,
  "weight": 864,
  "tx": [
    {
      "txid": "3e87afa83283b05eb50dd5a6a124501ce784265022906c3245e2646396180236",
      "hash": "3e87afa83283b05eb50dd5a6a124501ce784265022906c3245e2646396180236",
      "version": 1,
      "size": 135,
      "vsize": 135,
      "weight": 540,
      "locktime": 0,
      "vin": [
        {
          "coinbase": "04ffff001d025705",
          "sequence": 4294967295
        }
      ],
      "vout": [
        {
          "value": 50.0,
          "n": 0,
          "scriptPubKey": {
            "asm": "04a8b5d88d44bef579cd19db18d0f7f1799da95bd2f348e75149e46c16ebfda0cb11dfca48865a157801beb5b19931b545767012529de6a725bf239d42c8ea2741 OP_CHECKSIG",
            "desc": "pk(04a8b5d88d44bef579cd19db18d0f7f1799da95bd2f348e75149e46c16ebfda0cb11dfca48865a157801beb5b19931b545767012529de6a725bf239d42c8ea2741)#2n2mrecm",
            "hex": "4104a8b5d88d44bef579cd19db18d0f7f1799da95bd2f348e75149e46c16ebfda0cb11dfca48865a157801beb5b19931b545767012529de6a725bf239d42c8ea2741ac",
            "type": "pubkey"
          }
        }
      ],
      "hex": "01000000010000000000000000000000000000000000000000000000000000000000000000ffffffff0804ffff001d025705ffffffff0100f2052a01000000434104a8b5d88d44bef579cd19db18d0f7f1799da95bd2f348e75149e46c16ebfda0cb11dfca48865a157801beb5b19931b545767012529de6a725bf239d42c8ea2741ac00000000"
    }
  ]
}