{
  "hash": "0000000082fb56bbafe5f60356ddcff4bcadc8f0098718b2ff4498a7c6a0cad0",
  "confirmations": 51515,
  "height": 1583,
  "version": 1,
  "versionHex": "00000001",
  "merkleroot": "520ba9dcaf8de3c00585e8595385ecfa0d14ee08ff79c235f0f2baa8d8a24cb0",
  "time": 1232803931,
  "mediantime": 1232801442,
  "nonce": 649029399,
  "bits": "1d00ffff",
  "difficulty": 1,
  "chainwork": "0000000000000000000000000000000000000000000000000000063006300630",
  "nTx": 1,
  "previousblockhash": "0000000020cc993b057182358df29839534c3233eca80aab0d42748a55a7e0bb",
  "nextblockhash": "00000000fc94c5c2b9359e3f9a76fd15a6fa518e3d7819d765c3f1ff93753024",
  "strippedsize": 216,
  "size": 216,
  "weight": 864,
  "tx": [
    {
      "txid": "520ba9dcaf8de3c00585e8595385ecfa0d14ee08ff79c235f0f2baa8d8a24cb0",
      "hash": "520ba9dcaf8de3c00585e8595385ecfa0d14ee08ff79c235f0f2baa8d8a24cb0",
      "version": 1,
      "size": 135,
      "vsize": 135,
      "weight": 540,
      "locktime": 0,
      "vin": [
        {
          "coinbase": "04ffff001d02ff01",
          "sequence": 4294967295
        }
      ],
      "vout": [
        {
          "value": 50.0,
          "n": 0,
          "scriptPubKey": {
            "asm": "04c0e8220a79b1614e1d5bcea93558cbb8f8ea1fb77bd87442086dd689a8a9effe6bc230376df834c9f83e0f73cd81a447e50eecf99c05da351bfd76d5e6efc15b OP_CHECKSIG",
            "desc": "pk(04c0e8220a79b1614e1d5bcea93558cbb8f8ea1fb77bd87442086dd689a8a9effe6bc230376df834c9f83e0f73cd81a447e50eecf99c05da351bfd76d5e6efc15b)#7gwu0ht2",
            "hex": "4104c0e8220a79b1614e1d5bcea93558cbb8f8ea1fb77bd87442086dd689a8a9effe6bc230376df834c9f83e0f73cd81a447e50eecf99c05da351bfd76d5e6efc15bac",
            "type": "pubkey"
          }
        }
      ],
      "hex": "01000000010000000000000000000000000000000000000000000000000000000000000000ffffffff0804ffff001d02ff01ffffffff0100f2052a01000000434104c0e8220a79b1614e1d5bcea93558cbb8f8ea1fb77bd87442086dd689a8a9effe6bc230376df834c9f83e0f73cd81a447e50eecf99c05da351bfd76d5e6efc15bac00000000"
    }
  ]
}