{
  "hash": "0000000064c177ee27588d11dffda0f450f131ca155ece5987a88d211976adb9",
  "confirmations": 46067,
  "height": 7031,
  "version": 1,
  "versionHex": "00000001",
  "merkleroot": "e9047890dfd844a10435cf05b2ea773b6ed2635dab30bfb8aa6223ab926e4da8",
  "time": 1236741010,
  "mediantime": 1236738834,
  "nonce": 2867644190,
  "bits": "1d00ffff",
  "difficulty": 1,
  "chainwork": "00000000000000000000000000000000000000000000000000001b781b781b78",
  "nTx": 1,
  "previousblockhash": "000000000763975802abb62458b61145ed86ef888029acaccfa2bd567781419f",
  "nextblockhash": "00000000ea5c1e26bc1d5c062b837f3f639477515b23b093e7ab0de78a718572",
  "strippedsize": 216,
  "size": 216,
  "weight": 864,
  "tx": [
    {
      "txid": "e9047890dfd844a10435cf05b2ea773b6ed2635dab30bfb8aa6223ab926e4da8",
      "hash": "e9047890dfd844a10435cf05b2ea773b6ed2635dab30bfb8aa6223ab926e4da8",
      "version": 1,
      "size": 135,
      "vsize": 135,
      "weight": 540,
      "locktime": 0,
      "vin": [
        {
          "coinbase": "04ffff001d02e002",
          "sequence": 4294967295
        }
      ],
      "vout": [
        {
          "value": 50.0,
          "n": 0,
          "scriptPubKey": {
            "asm": "04abdb068698cc5a9789bd9f19473f13f0f06ebef50a68cd56c8c253394f51b36fcb81d0064f4cbfa3665ab68a1ad80e1bca53f5040dd301c090bdc6ce02eeeb5a OP_CHECKSIG",
            "desc": "pk(04abdb068698cc5a9789bd9f19473f13f0f06ebef50a68cd56c8c253394f51b36fcb81d0064f4cbfa3665ab68a1ad80e1bca53f5040dd301c090bdc6ce02eeeb5a)#qytt4v9v",
            "hex": "4104abdb068698cc5a9789bd9f19473f13f0f06ebef50a68cd56c8c253394f51b36fcb81d0064f4cbfa3665ab68a1ad80e1bca53f5040dd301c090bdc6ce02eeeb5aac",
            "type": "pubkey"
          }
        }
      ],
      "hex": "01000000010000000000000000000000000000000000000000000000000000000000000000ffffffff0804ffff001d02e002ffffffff0100f2052a01000000434104abdb068698cc5a9789bd9f19473f13f0f06ebef50a68cd56c8c253394f51b36fcb81d0064f4cbfa3665ab68a1ad80e1bca53f5040dd301c090bdc6ce02eeeb5aac00000000"
    }
  ]
}