{
  "hash": "00000000b51829036629cdaf3ebf7186478366a8f51120e267e7e66dfa75f0e6",
  "confirmations": 51171,
  "height": 1927,
  "version": 1,
  "versionHex": "00000001",
  "merkleroot": "6531c5105b027eb9a2177b17201b276509ced504e1b3ed75e5fcc9069b981be5",
  "time": 1232987968,
  "mediantime": 1232983925,
  "nonce": 231613492,
  "bits": "1d00ffff",
  "difficulty": 1,
  "chainwork": "0000000000000000000000000000000000000000000000000000078807880788",
  "nTx": 1,
  "previousblockhash": "00000000e90092af9098f9b26543d36431cd10799b6ef669e938b28b9ef83da6",
  "nextblockhash": "00000000f90b3671749bd2e1dfe405310731d554edd01603d6d2cc143a25054e",
  "strippedsize": 215,
  "size": 215,
  "weight": 860,
  "tx": [
    {
      "txid": "6531c5105b027eb9a2177b17201b276509ced504e1b3ed75e5fcc9069b981be5",
      "hash": "6531c5105b027eb9a2177b17201b276509ced504e1b3ed75e5fcc9069b981be5",
      "version": 1,
      "size": 134,
      "vsize": 134,
      "weight": 536,
      "locktime": 0,
      "vin": [
        {
          "coinbase": "04ffff001d012a",
          "sequence": 4294967295
        }
      ],
      "vout": [
        {
          "value": 50.0,
          "n": 0,
          "scriptPubKey": {
            "asm": "047260ae3f66b68fd6575ac98e3ea8391302d7c5ca54954cf33c9c86f3a2252c584e4e6a1da9e1954130bfee13f00fd1964d5455d7d6393a2a7af1e6e2d7cb4ce2 OP_CHECKSIG",
            "desc": "pk(047260ae3f66b68fd6575ac98e3ea8391302d7c5ca54954cf33c9c86f3a2252c584e4e6a1da9e1954130bfee13f00fd1964d5455d7d6393a2a7af1e6e2d7cb4ce2)#k86hacza",
            "hex": "41047260ae3f66b68fd6575ac98e3ea8391302d7c5ca54954cf33c9c86f3a2252c584e4e6a1da9e1954130bfee13f00fd1964d5455d7d6393a2a7af1e6e2d7cb4ce2ac",
            "type": "pubkey"
          }
        }
      ],
      "hex": "01000000010000000000000000000000000000000000000000000000000000000000000000ffffffff0704ffff001d012affffffff0100f2052a010000004341047260ae3f66b68fd6575ac98e3ea8391302d7c5ca54954cf33c9c86f3a2252c584e4e6a1da9e1954130bfee13f00fd1964d5455d7d6393a2a7af1e6e2d7cb4ce2ac00000000"
    }
  ]
}