{
  "hash": "00000000fd523232a2811f1458f217b56fb37050e4f7db1280696849cff3388d",
  "confirmations": 43209,
  "height": 9889,
  "version": 1,
  "versionHex": "00000001",
  "merkleroot": "5ad4e81d422d5874584faff2456325406701054019cb18543e5446a060c1fb80",
  "time": 1238917169,
  "mediantime": 1238914659,
  "nonce": 3693227066,
  "bits": "1d00ffff",
  "difficulty": 1,
  "chainwork": "000000000000000000000000000000000000000000000000000026a226a226a2",
  "nTx": 1,
  "previousblockhash": "00000000c6ebe5f7a54fb279f5b9121d92f2c34e3215215d20a327d30ad5dca6",
  "nextblockhash": "000000001d23b45acd60027e66c01031768d472dc5a7cd279678cfe4216ce37a",
  "strippedsize": 216,
  "size": 216,
  "weight": 864,
  "tx": [
    {
      "txid": "5ad4e81d422d5874584faff2456325406701054019cb18543e5446a060c1fb80",
      "hash": "5ad4e81d422d5874584faff2456325406701054019cb18543e5446a060c1fb80",
      "version": 1,
      "size": 135,
      "vsize": 135,
      "weight": 540,
      "locktime": 0,
      "vin": [
        {
          "coinbase": "04ffff001d02e501",
          "sequence": 4294967295
        }
      ],
      "vout": [
        {
          "value": 50.0,
          "n": 0,
          "scriptPubKey": {
            "asm": "041cbfc9353bcdc32f73ba24bdabdbf3601c2f5550a03c6e48f5fa89c72aeadcc7150dbf9f6788d66ffeccbddaac2e6b0ea3e761330063d63c607166d7df3ca251 OP_CHECKSIG",
            "desc": "pk(041cbfc9353bcdc32f73ba24bdabdbf3601c2f5550a03c6e48f5fa89c72aeadcc7150dbf9f6788d66ffeccbddaac2e6b0ea3e761330063d63c607166d7df3ca251)#u0vvgsgp",
            "hex": "41041cbfc9353bcdc32f73ba24bdabdbf3601c2f5550a03c6e48f5fa89c72aeadcc7150dbf9f6788d66ffeccbddaac2e6b0ea3e761330063d63c607166d7df3ca251ac",
            "type": "pubkey"
          }
        }
      ],
      "hex": "01000000010000000000000000000000000000000000000000000000000000000000000000ffffffff0804ffff001d02e501ffffffff0100f2052a010000004341041cbfc9353bcdc32f73ba24bdabdbf3601c2f5550a03c6e48f5fa89c72aeadcc7150dbf9f6788d66ffeccbddaac2e6b0ea3e761330063d63c607166d7df3ca251ac00000000"
    }
  ]
}