{
  "hash": "00000000c6f2a1a380f2c9e922ab178f3d864d0417a8667ccfea5f4f6760a232",
  "confirmations": 46149,
  "height": 6949,
  "version": 1,
  "versionHex": "00000001",
  "merkleroot": "78d7711a0a261d0a94cf1948d81a82c36ba2989575d6168e03971bd9b9d50290",
  "time": 1236679434,
  "mediantime": 1236674742,
  "nonce": 28221180,
  "bits": "1d00ffff",
  "difficulty": 1,
  "chainwork": "00000000000000000000000000000000000000000000000000001b261b261b26",
  "nTx": 1,
  "previousblockhash": "000000009a52745ee21919572ccb5bd32ea6653834301c8426428035986dbfdc",
  "nextblockhash": "00000000c6e6b10fcf170f83ac2deecffd607597a5f98fccff6497fe1559429f",
  "strippedsize": 216,
  "size": 216,
  "weight": 864,
  "tx": [
    {
      "txid": "78d7711a0a261d0a94cf1948d81a82c36ba2989575d6168e03971bd9b9d50290",
      "hash": "78d7711a0a261d0a94cf1948d81a82c36ba2989575d6168e03971bd9b9d50290",
      "version": 1,
      "size": 135,
      "vsize": 135,
      "weight": 540,
      "locktime": 0,
      "vin": [
        {
          "coinbase": "04ffff001d024801",
          "sequence": 4294967295
        }
      ],
      "vout": [
        {
          "value": 50.0,
          "n": 0,
          "scriptPubKey": {
            "asm": "0422f7b589d7489fe705e3f81f6f4a450c4b76286135ecc85047ca6263556a3881c89af6ff23e69ac3b91801e9b7ed1d468083832d5c44671b695fd1d3a3b7fa7c OP_CHECKSIG",
            "desc": "pk(0422f7b589d7489fe705e3f81f6f4a450c4b76286135ecc85047ca6263556a3881c89af6ff23e69ac3b91801e9b7ed1d468083832d5c44671b695fd1d3a3b7fa7c)#gxkfzg6x",
            "hex": "410422f7b589d7489fe705e3f81f6f4a450c4b76286135ecc85047ca6263556a3881c89af6ff23e69ac3b91801e9b7ed1d468083832d5c44671b695fd1d3a3b7fa7cac",
            "type": "pubkey"
          }
        }
      ],
      "hex": "01000000010000000000000000000000000000000000000000000000000000000000000000ffffffff0804ffff001d024801ffffffff0100f2052a0100000043410422f7b589d7489fe705e3f81f6f4a450c4b76286135ecc85047ca6263556a3881c89af6ff23e69ac3b91801e9b7ed1d468083832d5c44671b695fd1d3a3b7fa7cac00000000"
    }
  ]
}