{
  "hash": "000000009ca947874aa9c7a719abd09e73925d749560a6284a38e786b5c38adc",
  "confirmations": 47694,
  "height": 5404,
  "version": 1,
  "versionHex": "00000001",
  "merkleroot": "3cc8eb55fabacafcb27603006124992858721dcfdd5ea432516189ffad7891a6",
  "time": 1235443615,
  "mediantime": 1235440525,
  "nonce": 43242357,
  "bits": "1d00ffff",
  "difficulty": 1,
  "chainwork": "0000000000000000000000000000000000000000000000000000151d151d151d",
  "nTx": 1,
  "previousblockhash": "000000009d4aaabf90f50d5e1e92fdeb39d12f93296f126069f8ea4f933bb8c1",
  "nextblockhash": "000000007d6eecd3105802bc01a92d204439bbb8aeb3a0e840661842bfabf70f",
  "strippedsize": 216,
  "size": 216,
  "weight": 864,
  "tx": [
    {
      "txid": "3cc8eb55fabacafcb27603006124992858721dcfdd5ea432516189ffad7891a6",
      "hash": "3cc8eb55fabacafcb27603006124992858721dcfdd5ea432516189ffad7891a6",
      "version": 1,
      "size": 135,
      "vsize": 135,
      "weight": 540,
      "locktime": 0,
      "vin": [
        {
          "coinbase": "04ffff001d02f900",
          "sequence": 4294967295
        }
      ],
      "vout": [
        {
          "value": 50.0,
          "n": 0,
          "scriptPubKey": {
            "asm": "0430553920acdacf6d46c800a95633ffaf3d3be8d819cce379e3ae0c21973a06ac2c1cbc792a8fbae85a4e121978f56e951e89a76f79d586d307f2d4de5378acf5 OP_CHECKSIG",
            "desc": "pk(0430553920acdacf6d46c800a95633ffaf3d3be8d819cce379e3ae0c21973a06ac2c1cbc792a8fbae85a4e121978f56e951e89a76f79d586d307f2d4de5378acf5)#c6333g6n",
            "hex": "410430553920acdacf6d46c800a95633ffaf3d3be8d819cce379e3ae0c21973a06ac2c1cbc792a8fbae85a4e121978f56e951e89a76f79d586d307f2d4de5378acf5ac",
            "type": "pubkey"
          }
        }
      ],
      "hex": "01000000010000000000000000000000000000000000000000000000000000000000000000ffffffff0804ffff001d02f900ffffffff0100f2052a0100000043410430553920acdacf6d46c800a95633ffaf3d3be8d819cce379e3ae0c21973a06ac2c1cbc792a8fbae85a4e121978f56e951e89a76f79d586d307f2d4de5378acf5ac00000000"
    }
  ]
}