{
  "hash": "000000008664fb07a9bcdc7298e0c70ed577f2915d6eb06a934921cb7fbb2aec",
  "confirmations": 52021,
  "height": 212,
  "version": 1,
  "versionHex": "00000001",
  "merkleroot": "70a7de774e7ce62e55460baab990608f9b9564615846aaaa3c6cd7e93af73f7a",
  "time": 1231760777,
  "mediantime": 1231757909,
  "nonce": 1521743917,
  "bits": "1d00ffff",
  "difficulty": 1,
  "chainwork": "000000000000000000000000000000000000000000000000000000d500d500d5",
  "nTx": 1,
  "previousblockhash": "0000000036a2d643bd78d457cab4320877a24303cc567c8ca84f6937802d0bc4",
  "nextblockhash": "00000000fd69a5ef7d33e19d8eeab6e88f9345fdf3faddb650a988deb876e827",
  "strippedsize": 215,
  "size": 215,
  "weight": 860,
  "tx": [
    {
      "txid": "70a7de774e7ce62e55460baab990608f9b9564615846aaaa3c6cd7e93af73f7a",
      "hash": "70a7de774e7ce62e55460baab990608f9b9564615846aaaa3c6cd7e93af73f7a",
      "version": 1,
      "size": 134,
      "vsize": 134,
      "weight": 536,
      "locktime": 0,
      "vin": [
        {
          "coinbase": "04ffff001d015c",
          "sequence": 4294967295
        }
      ],
      "vout": [
        {
          "value": 50.0,
          "n": 0,
          "scriptPubKey": {
            "asm": "0430e8f33616de199ff4298a3ef1bc27c12f6b209f33551c3793bcc5f561844ecf4332559170d5af7f419d1cfa54e22ff37945a7f01de4a8185f73ff6cd761c488 OP_CHECKSIG",
            "desc": "pk(0430e8f33616de199ff4298a3ef1bc27c12f6b209f33551c3793bcc5f561844ecf4332559170d5af7f419d1cfa54e22ff37945a7f01de4a8185f73ff6cd761c488)#kpqm4mul",
            "hex": "410430e8f33616de199ff4298a3ef1bc27c12f6b209f33551c3793bcc5f561844ecf4332559170d5af7f419d1cfa54e22ff37945a7f01de4a8185f73ff6cd761c488ac",
            "type": "pubkey"
          }
        }
      ],
      "hex": "01000000010000000000000000000000000000000000000000000000000000000000000000ffffffff0704ffff001d015cffffffff0100f2052a0100000043410430e8f33616de199ff4298a3ef1bc27c12f6b209f33551c3793bcc5f561844ecf4332559170d5af7f419d1cfa54e22ff37945a7f01de4a8185f73ff6cd761c488ac00000000"
    }
  ]
}