{
  "hash": "00000000aa5561ad2a4b3b2e946789e150d488766d95a390bea6e4cce1c491ea",
  "confirmations": 44914,
  "height": 8184,
  "version": 1,
  "versionHex": "00000001",
  "merkleroot": "8f5ce5d667ca537347260f95b58ff8cb5ebb5788173d4c04724ed287fab4fa73",
  "time": 1237595396,
  "mediantime": 1237592073,
  "nonce": 57150292,
  "bits": "1d00ffff",
  "difficulty": 1,
  "chainwork": "00000000000000000000000000000000000000000000000000001ff91ff91ff9",
  "nTx": 1,
  "previousblockhash": "00000000600284b2ac8904389835976f3886256af7887f9643205f199e555877",
  "nextblockhash": "00000000312b2ac3324f98f9c3f1b6167620f11641084278798cc388dbef9d4e",
  "strippedsize": 216,
  "size": 216,
  "weight": 864,
  "tx": [
    {
      "txid": "8f5ce5d667ca537347260f95b58ff8cb5ebb5788173d4c04724ed287fab4fa73",
      "hash": "8f5ce5d667ca537347260f95b58ff8cb5ebb5788173d4c04724ed287fab4fa73",
      "version": 1,
      "size": 135,
      "vsize": 135,
      "weight": 540,
      "locktime": 0,
      "vin": [
        {
          "coinbase": "04ffff001d020a02",
          "sequence": 4294967295
        }
      ],
      "vout": [
        {
          "value": 50.0,
          "n": 0,
          "scriptPubKey": {
            "asm": "040233e69ec0bcdc69b88ab2668c247427eb1899d700bea9a1cfe8f6d0ca940c7c2a48b27d3a892efdcd1618e4de86d78737bda0b0be4f4bddadda7037955dd117 OP_CHECKSIG",
            "desc": "pk(040233e69ec0bcdc69b88ab2668c247427eb1899d700bea9a1cfe8f6d0ca940c7c2a48b27d3a892efdcd1618e4de86d78737bda0b0be4f4bddadda7037955dd117)#hpl7ys5w",
            "hex": "41040233e69ec0bcdc69b88ab2668c247427eb1899d700bea9a1cfe8f6d0ca940c7c2a48b27d3a892efdcd1618e4de86d78737bda0b0be4f4bddadda7037955dd117ac",
            "type": "pubkey"
          }
        }
      ],
      "hex": "01000000010000000000000000000000000000000000000000000000000000000000000000ffffffff0804ffff001d020a02ffffffff0100f2052a010000004341040233e69ec0bcdc69b88ab2668c247427eb1899d700bea9a1cfe8f6d0ca940c7c2a48b27d3a892efdcd1618e4de86d78737bda0b0be4f4bddadda7037955dd117ac00000000"
    }
  ]
}