{
  "hash": "000000000e7fc781c8e034fcf8440928aecf0250ac1ad35eced3419588a8d423",
  "confirmations": 49551,
  "height": 3547,
  "version": 1,
  "versionHex": "00000001",
  "merkleroot": "6350004abdb7b51f0d3a32bbb38e9c42c814a7db80ce2d285a4359b39517cbb4",
  "time": 1234133866,
  "mediantime": 1234130741,
  "nonce": 1566519317,
  "bits": "1d00ffff",
  "difficulty": 1,
  "chainwork": "00000000000000000000000000000000000000000000000000000ddc0ddc0ddc",
  "nTx": 1,
  "previousblockhash": "0000000040206949827272f209db87fd3362556c93562864433b85d97c52aaf0",
  "nextblockhash": "00000000cdb2251af508d8c65b1f4700f0d3d86ab338d0edf8fd19307f18e32e",
  "strippedsize": 216,
  "size": 216,
  "weight": 864,
  "tx": [
    {
      "txid": "6350004abdb7b51f0d3a32bbb38e9c42c814a7db80ce2d285a4359b39517cbb4",
      "hash": "6350004abdb7b51f0d3a32bbb38e9c42c814a7db80ce2d285a4359b39517cbb4",
      "version": 1,
      "size": 135,
      "vsize": 135,
      "weight": 540,
      "locktime": 0,
      "vin": [
        {
          "coinbase": "04ffff001d02f007",
          "sequence": 4294967295
        }
      ],
      "vout": [
        {
          "value": 50.0,
          "n": 0,
          "scriptPubKey": {
            "asm": "047f17096d100d1e83125b287c9665ec9f57f6ec5bbe9c78d05e3a0ad9d9eb616631a0d6095be80957b7f57958d4758836e6e25261a5f3c44235c150f22343059f OP_CHECKSIG",
            "desc": "pk(047f17096d100d1e83125b287c9665ec9f57f6ec5bbe9c78d05e3a0ad9d9eb616631a0d6095be80957b7f57958d4758836e6e25261a5f3c44235c150f22343059f)#32srjguv",
            "hex": "41047f17096d100d1e83125b287c9665ec9f57f6ec5bbe9c78d05e3a0ad9d9eb616631a0d6095be80957b7f57958d4758836e6e25261a5f3c44235c150f22343059fac",
            "type": "pubkey"
          }
        }
      ],
      "hex": "01000000010000000000000000000000000000000000000000000000000000000000000000ffffffff0804ffff001d02f007ffffffff0100f2052a010000004341047f17096d100d1e83125b287c9665ec9f57f6ec5bbe9c78d05e3a0ad9d9eb616631a0d6095be80957b7f57958d4758836e6e25261a5f3c44235c150f22343059fac00000000"
    }
  ]
}