{
  "hash": "000000006dcc6e5f51c50b5342c78838934f0f63b4a47ef4c10085dac676dc0b",
  "confirmations": 51275,
  "height": 1823,
  "version": 1,
  "versionHex": "00000001",
  "merkleroot": "49ff15d522e22c81383bd86bec5511699d90f79fa6cad6b2db97e20ce8e34fc7",
  "time": 1232909634,
  "mediantime": 1232908821,
  "nonce": 1419198229,
  "bits": "1d00ffff",
  "difficulty": 1,
  "chainwork": "0000000000000000000000000000000000000000000000000000072007200720",
  "nTx": 1,
  "previousblockhash": "000000008bc9da374bee05cc7061dfeaea16ccbd6fe9504838d86429c0eeea05",
  "nextblockhash": "00000000fa225dd8ab95710b09a2fcba3d41e0bff4a9aeadc8b9d6350c6ba152",
  "strippedsize": 216,
  "size": 216,
  "weight": 864,
  "tx": [
    {
      "txid": "49ff15d522e22c81383bd86bec5511699d90f79fa6cad6b2db97e20ce8e34fc7",
      "hash": "49ff15d522e22c81383bd86bec5511699d90f79fa6cad6b2db97e20ce8e34fc7",
      "version": 1,
      "size": 135,
      "vsize": 135,
      "weight": 540,
      "locktime": 0,
      "vin": [
        {
          "coinbase": "04ffff001d025a04",
          "sequence": 4294967295
        }
      ],
      "vout": [
        {
          "value": 50.0,
          "n": 0,
          "scriptPubKey": {
            "asm": "04f81f5f33239274997469c92039123aeb47049c3b6b458381e8edd1e856147a0e4e4315f193308d760f27044e3871bb2009e458426b5be5e2d427bde20edb216e OP_CHECKSIG",
            "desc": "pk(04f81f5f33239274997469c92039123aeb47049c3b6b458381e8edd1e856147a0e4e4315f193308d760f27044e3871bb2009e458426b5be5e2d427bde20edb216e)#lur3er2r",
            "hex": "4104f81f5f33239274997469c92039123aeb47049c3b6b458381e8edd1e856147a0e4e4315f193308d760f27044e3871bb2009e458426b5be5e2d427bde20edb216eac",
            "type": "pubkey"
          }
        }
      ],
      "hex": "01000000010000000000000000000000000000000000000000000000000000000000000000ffffffff0804ffff001d025a04ffffffff0100f2052a01000000434104f81f5f33239274997469c92039123aeb47049c3b6b458381e8edd1e856147a0e4e4315f193308d760f27044e3871bb2009e458426b5be5e2d427bde20edb216eac00000000"
    }
  ]
}