{
  "hash": "00000000e6f04bfa6c67eaf74e67c74c0495eed0117935ac95097f3c743fc861",
  "confirmations": 51470,
  "height": 1628,
  "version": 1,
  "versionHex": "00000001",
  "merkleroot": "1c849c0a6a78b72e1c88a59ac8de7230f71d615f1dec7c5f18d8a8d1cda3dd95",
  "time": 1232823104,
  "mediantime": 1232820953,
  "nonce": 1361429040,
  "bits": "1d00ffff",
  "difficulty": 1,
  "chainwork": "0000000000000000000000000000000000000000000000000000065d065d065d",
  "nTx": 1,
  "previousblockhash": "00000000b03c0e408570aa915e5970e3bbee2fab1ac2c8163a5c2d05ef2ca85f",
  "nextblockhash": "00000000d64317c09dffde5f3056be9f558ec6741fd1a8cf78082bcd8b29de47",
  "strippedsize": 216,
  "size": 216,
  "weight": 864,
  "tx": [
    {
      "txid": "1c849c0a6a78b72e1c88a59ac8de7230f71d615f1dec7c5f18d8a8d1cda3dd95",
      "hash": "1c849c0a6a78b72e1c88a59ac8de7230f71d615f1dec7c5f18d8a8d1cda3dd95",
      "version": 1,
      "size": 135,
      "vsize": 135,
      "weight": 540,
      "locktime": 0,
      "vin": [
        {
          "coinbase": "04ffff001d024302",
          "sequence": 4294967295
        }
      ],
      "vout": [
        {
          "value": 50.0,
          "n": 0,
          "scriptPubKey": {
            "asm": "046b408a260718b714c49ae668494f72adea7453a8e238ab8cfb8685f542a669dad3068ced4e11e15f50421f36b5613abdb2c309d1d6a29234861adda9f0ce8c91 OP_CHECKSIG",
            "desc": "pk(046b408a260718b714c49ae668494f72adea7453a8e238ab8cfb8685f542a669dad3068ced4e11e15f50421f36b5613abdb2c309d1d6a29234861adda9f0ce8c91)#70s6mg4h",
            "hex": "41046b408a260718b714c49ae668494f72adea7453a8e238ab8cfb8685f542a669dad3068ced4e11e15f50421f36b5613abdb2c309d1d6a29234861adda9f0ce8c91ac",
            "type": "pubkey"
          }
        }
      ],
      "hex": "01000000010000000000000000000000000000000000000000000000000000000000000000ffffffff0804ffff001d024302ffffffff0100f2052a010000004341046b408a260718b714c49ae668494f72adea7453a8e238ab8cfb8685f542a669dad3068ced4e11e15f50421f36b5613abdb2c309d1d6a29234861adda9f0ce8c91ac00000000"
    }
  ]
}