{
  "hash": "0000000012ace098f737c771ee6ff00d89b6389e305378d5446c9a1ca98d9986",
  "confirmations": 48062,
  "height": 5036,
  "version": 1,
  "versionHex": "00000001",
  "merkleroot": "08c8beeb2b2c374867ef8b36ee65e98c36830c4fd41854542e84d7c5333c14a4",
  "time": 1235163338,
  "mediantime": 1235159947,
  "nonce": 4128978486,
  "bits": "1d00ffff",
  "difficulty": 1,
  "chainwork": "000000000000000000000000000000000000000000000000000013ad13ad13ad",
  "nTx": 1,
  "previousblockhash": "0000000060aa4dc6fb31c82c978d8a51a1bcf2c77fe174a2e30d5d320fa7fb19",
  "nextblockhash": "00000000040b7194d64aaef0b9a1b6183f462b41a30f1ed8c29191585e4b4cea",
  "strippedsize": 216,
  "size": 216,
  "weight": 864,
  "tx": [
    {
      "txid": "08c8beeb2b2c374867ef8b36ee65e98c36830c4fd41854542e84d7c5333c14a4",
      "hash": "08c8beeb2b2c374867ef8b36ee65e98c36830c4fd41854542e84d7c5333c14a4",
      "version": 1,
      "size": 135,
      "vsize": 135,
      "weight": 540,
      "locktime": 0,
      "vin": [
        {
          "coinbase": "04ffff001d02a307",
          "sequence": 4294967295
        }
      ],
      "vout": [
        {
          "value": 50.0,
          "n": 0,
          "scriptPubKey": {
            "asm": "04cd9be9ef3205f5b432f9e6ea95f8e7d0c114f5271b58e064ad87e0ec7750a54c31786ece6fb66c9ff3c861d053b98c1b93d21f4757c9ff3121458c4fdd7eb0c5 OP_CHECKSIG",
            "desc": "pk(04cd9be9ef3205f5b432f9e6ea95f8e7d0c114f5271b58e064ad87e0ec7750a54c31786ece6fb66c9ff3c861d053b98c1b93d21f4757c9ff3121458c4fdd7eb0c5)#8kxqpwxc",
            "hex": "4104cd9be9ef3205f5b432f9e6ea95f8e7d0c114f5271b58e064ad87e0ec7750a54c31786ece6fb66c9ff3c861d053b98c1b93d21f4757c9ff3121458c4fdd7eb0c5ac",
            "type": "pubkey"
          }
        }
      ],
      "hex": "01000000010000000000000000000000000000000000000000000000000000000000000000ffffffff0804ffff001d02a307ffffffff0100f2052a01000000434104cd9be9ef3205f5b432f9e6ea95f8e7d0c114f5271b58e064ad87e0ec7750a54c31786ece6fb66c9ff3c861d053b98c1b93d21f4757c9ff3121458c4fdd7eb0c5ac00000000"
    }
  ]
}