{
  "hash": "00000000116983d1a8487b215a3d0c4396f9490ce5781d9fe0b6f64defe7c363",
  "confirmations": 48569,
  "height": 4529,
  "version": 1,
  "versionHex": "00000001",
  "merkleroot": "5a60ddf6c3700e2e333374c04d1fad7857a9f41914d798a6151228eca70abf0e",
  "time": 1234802016,
  "mediantime": 1234796806,
  "nonce": 2728631587,
  "bits": "1d00ffff",
  "difficulty": 1,
  "chainwork": "000000000000000000000000000000000000000000000000000011b211b211b2",
  "nTx": 1,
  "previousblockhash": "0000000046475683d2e0adf6e8c0ea90776be3e1ebd65145af910a898c9d4c3d",
  "nextblockhash": "000000005e626f41710604fb9154aec55318e8ba135c94e0a6c81bbb329681e7",
  "strippedsize": 216,
  "size": 216,
  "weight": 864,
  "tx": [
    {
      "txid": "5a60ddf6c3700e2e333374c04d1fad7857a9f41914d798a6151228eca70abf0e",
      "hash": "5a60ddf6c3700e2e333374c04d1fad7857a9f41914d798a6151228eca70abf0e",
      "version": 1,
      "size": 135,
      "vsize": 135,
      "weight": 540,
      "locktime": 0,
      "vin": [
        {
          "coinbase": "04ffff001d023a03",
          "sequence": 4294967295
        }
      ],
      "vout": [
        {
          "value": 50.0,
          "n": 0,
          "scriptPubKey": {
            "asm": "04233a0ce403464ed5b0e9e3a9b5498a5660e665edd61911f1bfebe0f3d1cd5e10fef54bc02a64b08003231ac375a90420b3c2547bc281a0a46978a494369fe8b6 OP_CHECKSIG",
            "desc": "pk(04233a0ce403464ed5b0e9e3a9b5498a5660e665edd61911f1bfebe0f3d1cd5e10fef54bc02a64b08003231ac375a90420b3c2547bc281a0a46978a494369fe8b6)#5ejxe7ke",
            "hex": "4104233a0ce403464ed5b0e9e3a9b5498a5660e665edd61911f1bfebe0f3d1cd5e10fef54bc02a64b08003231ac375a90420b3c2547bc281a0a46978a494369fe8b6ac",
            "type": "pubkey"
          }
        }
      ],
      "hex": "01000000010000000000000000000000000000000000000000000000000000000000000000ffffffff0804ffff001d023a03ffffffff0100f2052a01000000434104233a0ce403464ed5b0e9e3a9b5498a5660e665edd61911f1bfebe0f3d1cd5e10fef54bc02a64b08003231ac375a90420b3c2547bc281a0a46978a494369fe8b6ac00000000"
    }
  ]
}