{
  "hash": "000000008d721d14e6674eed25e59c39ff10ca324734779cc163608c851ccd50",
  "confirmations": 46556,
  "height": 6542,
  "version": 1,
  "versionHex": "00000001",
  "merkleroot": "57a219fcf6fb3fc9fa817d808fcf3e23a8ba41ce97cbcc33dbb4e08121517e53",
  "time": 1236360057,
  "mediantime": 1236356758,
  "nonce": 3797841152,
  "bits": "1d00ffff",
  "difficulty": 1,
  "chainwork": "0000000000000000000000000000000000000000000000000000198f198f198f",
  "nTx": 1,
  "previousblockhash": "00000000c508e6ee8838e78bc6ed54f8de614aac190c6afe82c6f57ad8590d57",
  "nextblockhash": "000000003772166c5a96e7a18481c0d7875ba47fed4524e9db445846215293d4",
  "strippedsize": 216,
  "size": 216,
  "weight": 864,
  "tx": [
    {
      "txid": "57a219fcf6fb3fc9fa817d808fcf3e23a8ba41ce97cbcc33dbb4e08121517e53",
      "hash": "57a219fcf6fb3fc9fa817d808fcf3e23a8ba41ce97cbcc33dbb4e08121517e53",
      "version": 1,
      "size": 135,
      "vsize": 135,
      "weight": 540,
      "locktime": 0,
      "vin": [
        {
          "coinbase": "04ffff001d024004",
          "sequence": 4294967295
        }
      ],
      "vout": [
        {
          "value": 50.0,
          "n": 0,
          "scriptPubKey": {
            "asm": "047fbdd629ea42df3bbf64f2213811ec565f9975fd135169536e9f8119437989c5efb001a384749a6e7bc3468f8faba4611f49a5a377d3a05cba430039b6965ba9 OP_CHECKSIG",
            "desc": "pk(047fbdd629ea42df3bbf64f2213811ec565f9975fd135169536e9f8119437989c5efb001a384749a6e7bc3468f8faba4611f49a5a377d3a05cba430039b6965ba9)#h9ka0c68",
            "hex": "41047fbdd629ea42df3bbf64f2213811ec565f9975fd135169536e9f8119437989c5efb001a384749a6e7bc3468f8faba4611f49a5a377d3a05cba430039b6965ba9ac",
            "type": "pubkey"
          }
        }
      ],
      "hex": "01000000010000000000000000000000000000000000000000000000000000000000000000ffffffff0804ffff001d024004ffffffff0100f2052a010000004341047fbdd629ea42df3bbf64f2213811ec565f9975fd135169536e9f8119437989c5efb001a384749a6e7bc3468f8faba4611f49a5a377d3a05cba430039b6965ba9ac00000000"
    }
  ]
}