{
  "hash": "000000004b2bc2b09f8fb49682dbc60a36e4af393440876806b1f19f560417e6",
  "confirmations": 49961,
  "height": 3137,
  "version": 1,
  "versionHex": "00000001",
  "merkleroot": "2e849e5d885bbfd2662a9cfa1b039992af1fee2a6a485913ace15f6e35b488b0",
  "time": 1233860045,
  "mediantime": 1233856444,
  "nonce": 1676663829,
  "bits": "1d00ffff",
  "difficulty": 1,
  "chainwork": "00000000000000000000000000000000000000000000000000000c420c420c42",
  "nTx": 1,
  "previousblockhash": "00000000497d6267bbbee407a2cc502b6295190cd783a9b95054b228e4bd7874",
  "nextblockhash": "00000000f14f2b5a54b3f3f9a6c75d6d7472d28273c62b524b457fb1bc98ffe3",
  "strippedsize": 216,
  "size": 216,
  "weight": 864,
  "tx": [
    {
      "txid": "2e849e5d885bbfd2662a9cfa1b039992af1fee2a6a485913ace15f6e35b488b0",
      "hash": "2e849e5d885bbfd2662a9cfa1b039992af1fee2a6a485913ace15f6e35b488b0",
      "version": 1,
      "size": 135,
      "vsize": 135,
      "weight": 540,
      "locktime": 0,
      "vin": [
        {
          "coinbase": "04ffff001d02bc01",
          "sequence": 4294967295
        }
      ],
      "vout": [
        {
          "value": 50.0,
          "n": 0,
          "scriptPubKey": {
            "asm": "04e8c9dcf6d123bfa9baccdda0633f04bc3a2e35871f9499f490845a35ea02e3d138815e124e206459ad73efd69aa04cffb4e8f6cd12eb3df69fdf993d28bec719 OP_CHECKSIG",
            "desc": "pk(04e8c9dcf6d123bfa9baccdda0633f04bc3a2e35871f9499f490845a35ea02e3d138815e124e206459ad73efd69aa04cffb4e8f6cd12eb3df69fdf993d28bec719)#0km6zfks",
            "hex": "4104e8c9dcf6d123bfa9baccdda0633f04bc3a2e35871f9499f490845a35ea02e3d138815e124e206459ad73efd69aa04cffb4e8f6cd12eb3df69fdf993d28bec719ac",
            "type": "pubkey"
          }
        }
      ],
      "hex": "01000000010000000000000000000000000000000000000000000000000000000000000000ffffffff0804ffff001d02bc01ffffffff0100f2052a01000000434104e8c9dcf6d123bfa9baccdda0633f04bc3a2e35871f9499f490845a35ea02e3d138815e124e206459ad73efd69aa04cffb4e8f6cd12eb3df69fdf993d28bec719ac00000000"
    }
  ]
}