{
  "hash": "00000000f64d740c99ad27c96ba81e388c0ba9662f8993eadcedb259e7d469cf",
  "confirmations": 50693,
  "height": 2405,
  "version": 1,
  "versionHex": "00000001",
  "merkleroot": "08161af3a29bcb8f42ca6514127f740fdc028ee98a1d6a52711f7d693c313411",
  "time": 1233359337,
  "mediantime": 1233355850,
  "nonce": 277306419,
  "bits": "1d00ffff",
  "difficulty": 1,
  "chainwork": "0000000000000000000000000000000000000000000000000000096609660966",
  "nTx": 1,
  "previousblockhash": "000000001b855e08f1e619a9f854a9bc3914fd532102bc93970647299b373efd",
  "nextblockhash": "00000000e04c96acf5b8eb06f58d0f345908597d75f436b474f8c6cba2ae216f",
  "strippedsize": 215,
  "size": 215,
  "weight": 860,
  "tx": [
    {
      "txid": "08161af3a29bcb8f42ca6514127f740fdc028ee98a1d6a52711f7d693c313411",
      "hash": "08161af3a29bcb8f42ca6514127f740fdc028ee98a1d6a52711f7d693c313411",
      "version": 1,
      "size": 134,
      "vsize": 134,
      "weight": 536,
      "locktime": 0,
      "vin": [
        {
          "coinbase": "04ffff001d011a",
          "sequence": 4294967295
        }
      ],
      "vout": [
        {
          "value": 50.0,
          "n": 0,
          "scriptPubKey": {
            "asm": "044de9c4d53958ec5c7e0574ee99d352f959e97b611b7fcad83b238a1f25d54eb2cb1f701322659a03c88079ef555b43a7c860d23e772ad3eb5eb73ee95e2e8420 OP_CHECKSIG",
            "desc": "pk(044de9c4d53958ec5c7e0574ee99d352f959e97b611b7fcad83b238a1f25d54eb2cb1f701322659a03c88079ef555b43a7c860d23e772ad3eb5eb73ee95e2e8420)#ln9y7pyn",
            "hex": "41044de9c4d53958ec5c7e0574ee99d352f959e97b611b7fcad83b238a1f25d54eb2cb1f701322659a03c88079ef555b43a7c860d23e772ad3eb5eb73ee95e2e8420ac",
            "type": "pubkey"
          }
        }
      ],
      "hex": "01000000010000000000000000000000000000000000000000000000000000000000000000ffffffff0704ffff001d011affffffff0100f2052a010000004341044de9c4d53958ec5c7e0574ee99d352f959e97b611b7fcad83b238a1f25d54eb2cb1f701322659a03c88079ef555b43a7c860d23e772ad3eb5eb73ee95e2e8420ac00000000"
    }
  ]
}