{
  "hash": "00000000600284b2ac8904389835976f3886256af7887f9643205f199e555877",
  "confirmations": 44915,
  "height": 8183,
  "version": 1,
  "versionHex": "00000001",
  "merkleroot": "57b47f32c360878aa78bbfd78588de157fc5ed1dfac9edcd49b3ba51744c8ebf",
  "time": 1237595136,
  "mediantime": 1237591522,
  "nonce": 113991882,
  "bits": "1d00ffff",
  "difficulty": 1,
  "chainwork": "00000000000000000000000000000000000000000000000000001ff81ff81ff8",
  "nTx": 1,
  "previousblockhash": "00000000f985ede57bfb30cf1ab942be3fe040abd6551830f7c7a3bbfed02174",
  "nextblockhash": "00000000aa5561ad2a4b3b2e946789e150d488766d95a390bea6e4cce1c491ea",
  "strippedsize": 216,
  "size": 216,
  "weight": 864,
  "tx": [
    {
      "txid": "57b47f32c360878aa78bbfd78588de157fc5ed1dfac9edcd49b3ba51744c8ebf",
      "hash": "57b47f32c360878aa78bbfd78588de157fc5ed1dfac9edcd49b3ba51744c8ebf",
      "version": 1,
      "size": 135,
      "vsize": 135,
      "weight": 540,
      "locktime": 0,
      "vin": [
        {
          "coinbase": "04ffff001d02ab0a",
          "sequence": 4294967295
        }
      ],
      "vout": [
        {
          "value": 50.0,
          "n": 0,
          "scriptPubKey": {
            "asm": "04859a5d094ff7bcb6aef076389e7240376a93911786b3d1b42fcd73222e04c9299c6860e74cda7029d51d7b31dd04852df7a2136062b1efe36deb1a0ebda4bb09 OP_CHECKSIG",
            "desc": "pk(04859a5d094ff7bcb6aef076389e7240376a93911786b3d1b42fcd73222e04c9299c6860e74cda7029d51d7b31dd04852df7a2136062b1efe36deb1a0ebda4bb09)#kqwa2nh2",
            "hex": "4104859a5d094ff7bcb6aef076389e7240376a93911786b3d1b42fcd73222e04c9299c6860e74cda7029d51d7b31dd04852df7a2136062b1efe36deb1a0ebda4bb09ac",
            "type": "pubkey"
          }
        }
      ],
      "hex": "01000000010000000000000000000000000000000000000000000000000000000000000000ffffffff0804ffff001d02ab0affffffff0100f2052a01000000434104859a5d094ff7bcb6aef076389e7240376a93911786b3d1b42fcd73222e04c9299c6860e74cda7029d51d7b31dd04852df7a2136062b1efe36deb1a0ebda4bb09ac00000000"
    }
  ]
}