{
  "hash": "00000000722e47123b89782ef1d94a8b02866ac07c7c80a96560d35abe0c063e",
  "confirmations": 46422,
  "height": 6676,
  "version": 1,
  "versionHex": "00000001",
  "merkleroot": "d559f4dd644f1e65d76d333f66af49aea363b63470afda6683e7255f607ec3b9",
  "time": 1236464875,
  "mediantime": 1236461020,
  "nonce": 135500889,
  "bits": "1d00ffff",
  "difficulty": 1,
  "chainwork": "00000000000000000000000000000000000000000000000000001a151a151a15",
  "nTx": 1,
  "previousblockhash": "000000006bdf4ca84bdb8f2bb54e3955e55ea0b3c6b3f9dc1dc929b6fb570755",
  "nextblockhash": "000000009f216b350d06272f3b77d06d064607bf7d1ecdd2e017a76ea98a5381",
  "strippedsize": 216,
  "size": 216,
  "weight": 864,
  "tx": [
    {
      "txid": "d559f4dd644f1e65d76d333f66af49aea363b63470afda6683e7255f607ec3b9",
      "hash": "d559f4dd644f1e65d76d333f66af49aea363b63470afda6683e7255f607ec3b9",
      "version": 1,
      "size": 135,
      "vsize": 135,
      "weight": 540,
      "locktime": 0,
      "vin": [
        {
          "coinbase": "04ffff001d02d600",
          "sequence": 4294967295
        }
      ],
      "vout": [
        {
          "value": 50.0,
          "n": 0,
          "scriptPubKey": {
            "asm": "046e17d74d075d22e133ff0d1b77aeb2d0dfda5bb930b345eb1cca118d854d3a7765165395053526afcd4c6d8eae3ffd3eb4ae949ad7e7420504c4562d3e7e8e4c OP_CHECKSIG",
            "desc": "pk(046e17d74d075d22e133ff0d1b77aeb2d0dfda5bb930b345eb1cca118d854d3a7765165395053526afcd4c6d8eae3ffd3eb4ae949ad7e7420504c4562d3e7e8e4c)#azwrlzqq",
            "hex": "41046e17d74d075d22e133ff0d1b77aeb2d0dfda5bb930b345eb1cca118d854d3a7765165395053526afcd4c6d8eae3ffd3eb4ae949ad7e7420504c4562d3e7e8e4cac",
            "type": "pubkey"
          }
        }
      ],
      "hex": "01000000010000000000000000000000000000000000000000000000000000000000000000ffffffff0804ffff001d02d600ffffffff0100f2052a010000004341046e17d74d075d22e133ff0d1b77aeb2d0dfda5bb930b345eb1cca118d854d3a7765165395053526afcd4c6d8eae3ffd3eb4ae949ad7e7420504c4562d3e7e8e4cac00000000"
    }
  ]
}