{
  "hash": "000000008c0a10d1e24abe11a6ce80c47d8467886baf588b19df87db64a201ea",
  "confirmations": 43665,
  "height": 9433,
  "version": 1,
  "versionHex": "00000001",
  "merkleroot": "f116b62ffd62d5da26274b33efebd1506e38c0dbfa9e1504e51e876f4d3c70d0",
  "time": 1238579203,
  "mediantime": 1238574077,
  "nonce": 474940471,
  "bits": "1d00ffff",
  "difficulty": 1,
  "chainwork": "000000000000000000000000000000000000000000000000000024da24da24da",
  "nTx": 1,
  "previousblockhash": "00000000c1e525e9cb701a232bcbffd1d55e168e81b39cb6339ba6174bfec08e",
  "nextblockhash": "0000000045afd708ddcc88a12ff8f843a462dd0ab6dda3ae3846e07a24aa3470",
  "strippedsize": 216,
  "size": 216,
  "weight": 864,
  "tx": [
    {
      "txid": "f116b62ffd62d5da26274b33efebd1506e38c0dbfa9e1504e51e876f4d3c70d0",
      "hash": "f116b62ffd62d5da26274b33efebd1506e38c0dbfa9e1504e51e876f4d3c70d0",
      "version": 1,
      "size": 135,
      "vsize": 135,
      "weight": 540,
      "locktime": 0,
      "vin": [
        {
          "coinbase": "04ffff001d024c04",
          "sequence": 4294967295
        }
      ],
      "vout": [
        {
          "value": 50.0,
          "n": 0,
          "scriptPubKey": {
            "asm": "0446161548950830eaaf2fb241168dc287ebbbe1fc434c5d72f85c6712cc77eb3ba0883e7151fd4848219d066f993154c080ea82baf378d7656497ff4f380378e0 OP_CHECKSIG",
            "desc": "pk(0446161548950830eaaf2fb241168dc287ebbbe1fc434c5d72f85c6712cc77eb3ba0883e7151fd4848219d066f993154c080ea82baf378d7656497ff4f380378e0)#9j5q29j7",
            "hex": "410446161548950830eaaf2fb241168dc287ebbbe1fc434c5d72f85c6712cc77eb3ba0883e7151fd4848219d066f993154c080ea82baf378d7656497ff4f380378e0ac",
            "type": "pubkey"
          }
        }
      ],
      "hex": "01000000010000000000000000000000000000000000000000000000000000000000000000ffffffff0804ffff001d024c04ffffffff0100f2052a0100000043410446161548950830eaaf2fb241168dc287ebbbe1fc434c5d72f85c6712cc77eb3ba0883e7151fd4848219d066f993154c080ea82baf378d7656497ff4f380378e0ac00000000"
    }
  ]
}