{
  "hash": "00000000d5251fa3625e2e9ac029094d42ca5d9756463d13445ca041fca29a7b",
  "confirmations": 43725,
  "height": 9373,
  "version": 1,
  "versionHex": "00000001",
  "merkleroot": "fd50e29fbf4ef37c0f655354524b0e8dd5ce341f09d9ebff7ce7e9c2b99a38ca",
  "time": 1238527629,
  "mediantime": 1238524427,
  "nonce": 2681663007,
  "bits": "1d00ffff",
  "difficulty": 1,
  "chainwork": "0000000000000000000000000000000000000000000000000000249e249e249e",
  "nTx": 1,
  "previousblockhash": "00000000a79d7faacc25bcb320aa4813d89bc4ac8696bb889434283246c2d323",
  "nextblockhash": "00000000edc746c8ce121ac5a287fb48215a258eba3e7c4fde8b1c91c1816dab",
  "strippedsize": 216,
  "size": 216,
  "weight": 864,
  "tx": [
    {
      "txid": "fd50e29fbf4ef37c0f655354524b0e8dd5ce341f09d9ebff7ce7e9c2b99a38ca",
      "hash": "fd50e29fbf4ef37c0f655354524b0e8dd5ce341f09d9ebff7ce7e9c2b99a38ca",
      "version": 1,
      "size": 135,
      "vsize": 135,
      "weight": 540,
      "locktime": 0,
      "vin": [
        {
          "coinbase": "04ffff001d02ef02",
          "sequence": 4294967295
        }
      ],
      "vout": [
        {
          "value": 50.0,
          "n": 0,
          "scriptPubKey": {
            "asm": "044377cb65f63b5e872703f33ad5acf65a5d4f246ae99bee4d21d1f2abc505e0fc1dfbfb35545612f4c603c1f88f51c839702b8e0d2b55ecdbd592d9e5edc931b9 OP_CHECKSIG",
            "desc": "pk(044377cb65f63b5e872703f33ad5acf65a5d4f246ae99bee4d21d1f2abc505e0fc1dfbfb35545612f4c603c1f88f51c839702b8e0d2b55ecdbd592d9e5edc931b9)#gd9mtcfl",
            "hex": "41044377cb65f63b5e872703f33ad5acf65a5d4f246ae99bee4d21d1f2abc505e0fc1dfbfb35545612f4c603c1f88f51c839702b8e0d2b55ecdbd592d9e5edc931b9ac",
            "type": "pubkey"
          }
        }
      ],
      "hex": "01000000010000000000000000000000000000000000000000000000000000000000000000ffffffff0804ffff001d02ef02ffffffff0100f2052a010000004341044377cb65f63b5e872703f33ad5acf65a5d4f246ae99bee4d21d1f2abc505e0fc1dfbfb35545612f4c603c1f88f51c839702b8e0d2b55ecdbd592d9e5edc931b9ac00000000"
    }
  ]
}