{
  "hash": "00000000e4a25e5979f06f2eb95c8bb2e80b0d0ded6ad3508a8ca1b8cb59265c",
  "confirmations": 44091,
  "height": 9007,
  "version": 1,
  "versionHex": "00000001",
  "merkleroot": "0cfcb3e9a992f41abb40db6f0f7f4de68c05c91afafbf3c58e94b379781ada3e",
  "time": 1238256638,
  "mediantime": 1238253540,
  "nonce": 3148254766,
  "bits": "1d00ffff",
  "difficulty": 1,
  "chainwork": "0000000000000000000000000000000000000000000000000000233023302330",
  "nTx": 1,
  "previousblockhash": "00000000d62541570fc319e4496fec3961a06be293cf2f504f57ec7b9466f07a",
  "nextblockhash": "000000007c4ac02d6a442170cc02dd26e1cb9e98d8e20c5d80b431d1fe2c9fc7",
  "strippedsize": 216,
  "size": 216,
  "weight": 864,
  "tx": [
    {
      "txid": "0cfcb3e9a992f41abb40db6f0f7f4de68c05c91afafbf3c58e94b379781ada3e",
      "hash": "0cfcb3e9a992f41abb40db6f0f7f4de68c05c91afafbf3c58e94b379781ada3e",
      "version": 1,
      "size": 135,
      "vsize": 135,
      "weight": 540,
      "locktime": 0,
      "vin": [
        {
          "coinbase": "04ffff001d027f06",
          "sequence": 4294967295
        }
      ],
      "vout": [
        {
          "value": 50.0,
          "n": 0,
          "scriptPubKey": {
            "asm": "04c006733ca58bc6885e51f11eeedf8ce72ce5c1fcf3329358fb89bcb2f36660775d896dade47ba04c76517c732d916f9cbef4ca0cb34dcf26874bbb379e5da61a OP_CHECKSIG",
            "desc": "pk(04c006733ca58bc6885e51f11eeedf8ce72ce5c1fcf3329358fb89bcb2f36660775d896dade47ba04c76517c732d916f9cbef4ca0cb34dcf26874bbb379e5da61a)#9gsgwvjd",
            "hex": "4104c006733ca58bc6885e51f11eeedf8ce72ce5c1fcf3329358fb89bcb2f36660775d896dade47ba04c76517c732d916f9cbef4ca0cb34dcf26874bbb379e5da61aac",
            "type": "pubkey"
          }
        }
      ],
      "hex": "01000000010000000000000000000000000000000000000000000000000000000000000000ffffffff0804ffff001d027f06ffffffff0100f2052a01000000434104c006733ca58bc6885e51f11eeedf8ce72ce5c1fcf3329358fb89bcb2f36660775d896dade47ba04c76517c732d916f9cbef4ca0cb34dcf26874bbb379e5da61aac00000000"
    }
  ]
}