{
  "hash": "00000000d09ec045b533f4e377e4fbe35c370e5a4a7f503773c698178f3b3589",
  "confirmations": 49541,
  "height": 3557,
  "version": 1,
  "versionHex": "00000001",
  "merkleroot": "1fc1db6a63c36b9612c8c0fbc0b12ba8c44c26ade678cdba493ac5d5c66e960c",
  "time": 1234141933,
  "mediantime": 1234137874,
  "nonce": 279945318,
  "bits": "1d00ffff",
  "difficulty": 1,
  "chainwork": "00000000000000000000000000000000000000000000000000000de60de60de6",
  "nTx": 1,
  "previousblockhash": "00000000ce9fdfb294f56b62cda68b885d7aea0fab8e21a000799a53f53d07f7",
  "nextblockhash": "000000006e432237ce5e8ba21746594215d84e75659ed41fe065c9bf14bc04f8",
  "strippedsize": 216,
  "size": 216,
  "weight": 864,
  "tx": [
    {
      "txid": "1fc1db6a63c36b9612c8c0fbc0b12ba8c44c26ade678cdba493ac5d5c66e960c",
      "hash": "1fc1db6a63c36b9612c8c0fbc0b12ba8c44c26ade678cdba493ac5d5c66e960c",
      "version": 1,
      "size": 135,
      "vsize": 135,
      "weight": 540,
      "locktime": 0,
      "vin": [
        {
          "coinbase": "04ffff001d02aa00",
          "sequence": 4294967295
        }
      ],
      "vout": [
        {
          "value": 50.0,
          "n": 0,
          "scriptPubKey": {
            "asm": "0415b723436955e04527546637ddec67b64dcbed34fc8316691d8f1f8e616b0bca571277dbb4d5944eed6e1301587cad17ad287f33242f0d28fcfee23dad75fe1c OP_CHECKSIG",
            "desc": "pk(0415b723436955e04527546637ddec67b64dcbed34fc8316691d8f1f8e616b0bca571277dbb4d5944eed6e1301587cad17ad287f33242f0d28fcfee23dad75fe1c)#6r327faw",
            "hex": "410415b723436955e04527546637ddec67b64dcbed34fc8316691d8f1f8e616b0bca571277dbb4d5944eed6e1301587cad17ad287f33242f0d28fcfee23dad75fe1cac",
            "type": "pubkey"
          }
        }
      ],
      "hex": "01000000010000000000000000000000000000000000000000000000000000000000000000ffffffff0804ffff001d02aa00ffffffff0100f2052a0100000043410415b723436955e04527546637ddec67b64dcbed34fc8316691d8f1f8e616b0bca571277dbb4d5944eed6e1301587cad17ad287f33242f0d28fcfee23dad75fe1cac00000000"
    }
  ]
}