{
  "hash": "000000006c754600cb31121249d282e0ddcb11c80d1867b896e6d3fcd24d1fa5",
  "confirmations": 47200,
  "height": 5898,
  "version": 1,
  "versionHex": "00000001",
  "merkleroot": "89dca9ba0504f09d072da67e06c77fc45b261c477861d6884de3605f099fe3ea",
  "time": 1235842666,
  "mediantime": 1235837540,
  "nonce": 1335303939,
  "bits": "1d00ffff",
  "difficulty": 1,
  "chainwork": "0000000000000000000000000000000000000000000000000000170b170b170b",
  "nTx": 1,
  "previousblockhash": "0000000008c979dab95c9adc5c73737db9e418aa14f60cb3cebcfd8ddca323b1",
  "nextblockhash": "000000009525cb6d461036fcbb40ec7ffd427f581569441c1395a5deedd765a9",
  "strippedsize": 216,
  "size": 216,
  "weight": 864,
  "tx": [
    {
      "txid": "89dca9ba0504f09d072da67e06c77fc45b261c477861d6884de3605f099fe3ea",
      "hash": "89dca9ba0504f09d072da67e06c77fc45b261c477861d6884de3605f099fe3ea",
      "version": 1,
      "size": 135,
      "vsize": 135,
      "weight": 540,
      "locktime": 0,
      "vin": [
        {
          "coinbase": "04ffff001d02f702",
          "sequence": 4294967295
        }
      ],
      "vout": [
        {
          "value": 50.0,
          "n": 0,
          "scriptPubKey": {
            "asm": "043eebb1c1824459b70052d531027748c0e6770036f9dbb3ef97cbd735dbdba733633cc18d1ecc52867122f2369cd66a9f8e1eac1954d63935a164f31deb0fa8e5 OP_CHECKSIG",
            "desc": "pk(043eebb1c1824459b70052d531027748c0e6770036f9dbb3ef97cbd735dbdba733633cc18d1ecc52867122f2369cd66a9f8e1eac1954d63935a164f31deb0fa8e5)#ste996fj",
            "hex": "41043eebb1c1824459b70052d531027748c0e6770036f9dbb3ef97cbd735dbdba733633cc18d1ecc52867122f2369cd66a9f8e1eac1954d63935a164f31deb0fa8e5ac",
            "type": "pubkey"
          }
        }
      ],
      "hex": "01000000010000000000000000000000000000000000000000000000000000000000000000ffffffff0804ffff001d02f702ffffffff0100f2052a010000004341043eebb1c1824459b70052d531027748c0e6770036f9dbb3ef97cbd735dbdba733633cc18d1ecc52867122f2369cd66a9f8e1eac1954d63935a164f31deb0fa8e5ac00000000"
    }
  ]
}