{
  "hash": "00000000da2e3ba930cf4e8ed7a2a4f26595083ddc4e1fa56320bdc69a1b1ae2",
  "confirmations": 44599,
  "height": 8499,
  "version": 1,
  "versionHex": "00000001",
  "merkleroot": "174b68cddc6c059a4aa19704e7d8e4e2ed4795d7da42bfe6b2837660aa6cbb7f",
  "time": 1237872281,
  "mediantime": 1237866649,
  "nonce": 1047619622,
  "bits": "1d00ffff",
  "difficulty": 1,
  "chainwork": "0000000000000000000000000000000000000000000000000000213421342134",
  "nTx": 1,
  "previousblockhash": "0000000019db297501a3a2deb4c5d78238b677ab5fd5a15d6db94ff7861d4325",
  "nextblockhash": "00000000aba1f720821fac035481e72eb918c138372260627a3a976aeff59226",
  "strippedsize": 216,
  "size": 216,
  "weight": 864,
  "tx": [
    {
      "txid": "174b68cddc6c059a4aa19704e7d8e4e2ed4795d7da42bfe6b2837660aa6cbb7f",
      "hash": "174b68cddc6c059a4aa19704e7d8e4e2ed4795d7da42bfe6b2837660aa6cbb7f",
      "version": 1,
      "size": 135,
      "vsize": 135,
      "weight": 540,
      "locktime": 0,
      "vin": [
        {
          "coinbase": "04ffff001d02c107",
          "sequence": 4294967295
        }
      ],
      "vout": [
        {
          "value": 50.0,
          "n": 0,
          "scriptPubKey": {
            "asm": "04d7a42c95e59d087ab8f3dd5cd16e90400eb499399c39d4b8040c6bd7cdd059c74221bc2dd9cee7ff6316fd158f56459026283a89b673ad98c79dce73569f245a OP_CHECKSIG",
            "desc": "pk(04d7a42c95e59d087ab8f3dd5cd16e90400eb499399c39d4b8040c6bd7cdd059c74221bc2dd9cee7ff6316fd158f56459026283a89b673ad98c79dce73569f245a)#lyxnhx26",
            "hex": "4104d7a42c95e59d087ab8f3dd5cd16e90400eb499399c39d4b8040c6bd7cdd059c74221bc2dd9cee7ff6316fd158f56459026283a89b673ad98c79dce73569f245aac",
            "type": "pubkey"
          }
        }
      ],
      "hex": "01000000010000000000000000000000000000000000000000000000000000000000000000ffffffff0804ffff001d02c107ffffffff0100f2052a01000000434104d7a42c95e59d087ab8f3dd5cd16e90400eb499399c39d4b8040c6bd7cdd059c74221bc2dd9cee7ff6316fd158f56459026283a89b673ad98c79dce73569f245aac00000000"
    }
  ]
}