{
  "hash": "00000000eb5b9ba8b77b40acdfe5552a22e95a301e8a4ef72519aca1cee4a1be",
  "confirmations": 46228,
  "height": 6870,
  "version": 1,
  "versionHex": "00000001",
  "merkleroot": "8db1e7b0158a955c3645c4d73f704724ab52d9eb53359673ab6a5cbe669c373b",
  "time": 1236608383,
  "mediantime": 1236605651,
  "nonce": 1524064259,
  "bits": "1d00ffff",
  "difficulty": 1,
  "chainwork": "00000000000000000000000000000000000000000000000000001ad71ad71ad7",
  "nTx": 1,
  "previousblockhash": "00000000f00190cbb7214b80a0861c45c4ee5c8d3b54e01c9a9a73afd9473ce2",
  "nextblockhash": "0000000034cf5a94968d475294737080888ee545706c3eb5ada30955027aed03",
  "strippedsize": 216,
  "size": 216,
  "weight": 864,
  "tx": [
    {
      "txid": "8db1e7b0158a955c3645c4d73f704724ab52d9eb53359673ab6a5cbe669c373b",
      "hash": "8db1e7b0158a955c3645c4d73f704724ab52d9eb53359673ab6a5cbe669c373b",
      "version": 1,
      "size": 135,
      "vsize": 135,
      "weight": 540,
      "locktime": 0,
      "vin": [
        {
          "coinbase": "04ffff001d020d0a",
          "sequence": 4294967295
        }
      ],
      "vout": [
        {
          "value": 50.0,
          "n": 0,
          "scriptPubKey": {
            "asm": "0403a3cf369cca875284bbb21a7f9d5fa5175c7ee656ead696347a095babf330d10b922abc3526a9fa68517454f8a8e2014675ea0cba65691b4777c860c78efb52 OP_CHECKSIG",
            "desc": "pk(0403a3cf369cca875284bbb21a7f9d5fa5175c7ee656ead696347a095babf330d10b922abc3526a9fa68517454f8a8e2014675ea0cba65691b4777c860c78efb52)#mx7ug5rf",
            "hex": "410403a3cf369cca875284bbb21a7f9d5fa5175c7ee656ead696347a095babf330d10b922abc3526a9fa68517454f8a8e2014675ea0cba65691b4777c860c78efb52ac",
            "type": "pubkey"
          }
        }
      ],
      "hex": "01000000010000000000000000000000000000000000000000000000000000000000000000ffffffff0804ffff001d020d0affffffff0100f2052a0100000043410403a3cf369cca875284bbb21a7f9d5fa5175c7ee656ead696347a095babf330d10b922abc3526a9fa68517454f8a8e2014675ea0cba65691b4777c860c78efb52ac00000000"
    }
  ]
}