{
  "hash": "00000000c6303c4a85f581fc12d76a945055d2134c18f7613493d94c972d5133",
  "confirmations": 48197,
  "height": 4901,
  "version": 1,
  "versionHex": "00000001",
  "merkleroot": "1acfc55d2cd8bac816ae5a653faf8325f5d8e1ce79a06c6d7e6c52cfb898276a",
  "time": 1235070897,
  "mediantime": 1235068585,
  "nonce": 3823919657,
  "bits": "1d00ffff",
  "difficulty": 1,
  "chainwork": "0000000000000000000000000000000000000000000000000000132613261326",
  "nTx": 1,
  "previousblockhash": "000000000b1bf41e99038c31539269f799725cb56bff67f7a2492cad380d36ac",
  "nextblockhash": "00000000c11cd998d8a5b461a50c0a9f64c537374082ae0c2427dd48724a5623",
  "strippedsize": 216,
  "size": 216,
  "weight": 864,
  "tx": [
    {
      "txid": "1acfc55d2cd8bac816ae5a653faf8325f5d8e1ce79a06c6d7e6c52cfb898276a",
      "hash": "1acfc55d2cd8bac816ae5a653faf8325f5d8e1ce79a06c6d7e6c52cfb898276a",
      "version": 1,
      "size": 135,
      "vsize": 135,
      "weight": 540,
      "locktime": 0,
      "vin": [
        {
          "coinbase": "04ffff001d02a305",
          "sequence": 4294967295
        }
      ],
      "vout": [
        {
          "value": 50.0,
          "n": 0,
          "scriptPubKey": {
            "asm": "04137b378bfea1ec9a2037fcc61f5a4a8b52bc86a554bd8dbb18f3ae385bbea62b9774f0c44c3a265c9577a818f0097ed0db73e53116816141cb44f3df14d6ffcd OP_CHECKSIG",
            "desc": "pk(04137b378bfea1ec9a2037fcc61f5a4a8b52bc86a554bd8dbb18f3ae385bbea62b9774f0c44c3a265c9577a818f0097ed0db73e53116816141cb44f3df14d6ffcd)#w5yxlvxf",
            "hex": "4104137b378bfea1ec9a2037fcc61f5a4a8b52bc86a554bd8dbb18f3ae385bbea62b9774f0c44c3a265c9577a818f0097ed0db73e53116816141cb44f3df14d6ffcdac",
            "type": "pubkey"
          }
        }
      ],
      "hex": "01000000010000000000000000000000000000000000000000000000000000000000000000ffffffff0804ffff001d02a305ffffffff0100f2052a01000000434104137b378bfea1ec9a2037fcc61f5a4a8b52bc86a554bd8dbb18f3ae385bbea62b9774f0c44c3a265c9577a818f0097ed0db73e53116816141cb44f3df14d6ffcdac00000000"
    }
  ]
}