{
  "hash": "0000000032c77420b3b96781f8e5fbbaa880741cb8394df821a4ec4660ad8436",
  "confirmations": 46494,
  "height": 6604,
  "version": 1,
  "versionHex": "00000001",
  "merkleroot": "a7e128de5b3f423f9f4a96bdf5d6d141fdb9ed59d0a56014fbbd0cbba4346c46",
  "time": 1236408433,
  "mediantime": 1236405449,
  "nonce": 4072597300,
  "bits": "1d00ffff",
  "difficulty": 1,
  "chainwork": "000000000000000000000000000000000000000000000000000019cd19cd19cd",
  "nTx": 1,
  "previousblockhash": "00000000162cbdafac48666609b3d5e21989497bda594c167e0a07ad569bb154",
  "nextblockhash": "0000000096c22cc70e57f530e99fb47133767dae4d7708b0d740bb560c2ace70",
  "strippedsize": 216,
  "size": 216,
  "weight": 864,
  "tx": [
    {
      "txid": "a7e128de5b3f423f9f4a96bdf5d6d141fdb9ed59d0a56014fbbd0cbba4346c46",
      "hash": "a7e128de5b3f423f9f4a96bdf5d6d141fdb9ed59d0a56014fbbd0cbba4346c46",
      "version": 1,
      "size": 135,
      "vsize": 135,
      "weight": 540,
      "locktime": 0,
      "vin": [
        {
          "coinbase": "04ffff001d022b05",
          "sequence": 4294967295
        }
      ],
      "vout": [
        {
          "value": 50.0,
          "n": 0,
          "scriptPubKey": {
            "asm": "042859b017bb0fc1fd7e8a17974b569cb3e337f165e0dd2fbd5afd6dce2a16cb34d7fb4a43e199bdc1fb182c5af4fe11a4027b47b9acf494416a8e7ca4dd7d98b6 OP_CHECKSIG",
            "desc": "pk(042859b017bb0fc1fd7e8a17974b569cb3e337f165e0dd2fbd5afd6dce2a16cb34d7fb4a43e199bdc1fb182c5af4fe11a4027b47b9acf494416a8e7ca4dd7d98b6)#9m3sq368",
            "hex": "41042859b017bb0fc1fd7e8a17974b569cb3e337f165e0dd2fbd5afd6dce2a16cb34d7fb4a43e199bdc1fb182c5af4fe11a4027b47b9acf494416a8e7ca4dd7d98b6ac",
            "type": "pubkey"
          }
        }
      ],
      "hex": "01000000010000000000000000000000000000000000000000000000000000000000000000ffffffff0804ffff001d022b05ffffffff0100f2052a010000004341042859b017bb0fc1fd7e8a17974b569cb3e337f165e0dd2fbd5afd6dce2a16cb34d7fb4a43e199bdc1fb182c5af4fe11a4027b47b9acf494416a8e7ca4dd7d98b6ac00000000"
    }
  ]
}