{
  "hash": "000000000174ca114a54caeabe0a010627edaa72e94543110b22c14ea061ef5e",
  "confirmations": 47667,
  "height": 5431,
  "version": 1,
  "versionHex": "00000001",
  "merkleroot": "8605d433f1aaa1a0cfb4e458f872a81974c20ff36f6553f0bcfacf1d1bf026e9",
  "time": 1235464909,
  "mediantime": 1235461712,
  "nonce": 2248481817,
  "bits": "1d00ffff",
  "difficulty": 1,
  "chainwork": "0000000000000000000000000000000000000000000000000000153815381538",
  "nTx": 1,
  "previousblockhash": "00000000febd91a57b25bc71ea677d2e3489f306550bb95e5d170c0d8f97a242",
  "nextblockhash": "00000000927924e2175928d9fbbed5c4021c09ef534adf11faad418698ca71f4",
  "strippedsize": 216,
  "size": 216,
  "weight": 864,
  "tx": [
    {
      "txid": "8605d433f1aaa1a0cfb4e458f872a81974c20ff36f6553f0bcfacf1d1bf026e9",
      "hash": "8605d433f1aaa1a0cfb4e458f872a81974c20ff36f6553f0bcfacf1d1bf026e9",
      "version": 1,
      "size": 135,
      "vsize": 135,
      "weight": 540,
      "locktime": 0,
      "vin": [
        {
          "coinbase": "04ffff001d022e04",
          "sequence": 4294967295
        }
      ],
      "vout": [
        {
          "value": 50.0,
          "n": 0,
          "scriptPubKey": {
            "asm": "04fa5450ebb6fed4184b7a07490dc8c0372ddb814012faa03f2a0fed4a7b6627331d22f94c265d6085fde495121edccc9121439ebc2bb00ab647b0bf7fa2b9d1ad OP_CHECKSIG",
            "desc": "pk(04fa5450ebb6fed4184b7a07490dc8c0372ddb814012faa03f2a0fed4a7b6627331d22f94c265d6085fde495121edccc9121439ebc2bb00ab647b0bf7fa2b9d1ad)#0wyx3a2m",
            "hex": "4104fa5450ebb6fed4184b7a07490dc8c0372ddb814012faa03f2a0fed4a7b6627331d22f94c265d6085fde495121edccc9121439ebc2bb00ab647b0bf7fa2b9d1adac",
            "type": "pubkey"
          }
        }
      ],
      "hex": "01000000010000000000000000000000000000000000000000000000000000000000000000ffffffff0804ffff001d022e04ffffffff0100f2052a01000000434104fa5450ebb6fed4184b7a07490dc8c0372ddb814012faa03f2a0fed4a7b6627331d22f94c265d6085fde495121edccc9121439ebc2bb00ab647b0bf7fa2b9d1adac00000000"
    }
  ]
}