{
  "hash": "0000000094822349a2bad483eae5aa27f154adb02077fc3d02c9f9c6260fe8aa",
  "confirmations": 51405,
  "height": 1693,
  "version": 1,
  "versionHex": "00000001",
  "merkleroot": "19933efc8fc6e118386ee16c28ffe5a6c52d279a65e955736354d4bf4ce6d1c1",
  "time": 1232850182,
  "mediantime": 1232847539,
  "nonce": 2622801442,
  "bits": "1d00ffff",
  "difficulty": 1,
  "chainwork": "0000000000000000000000000000000000000000000000000000069e069e069e",
  "nTx": 1,
  "previousblockhash": "000000006491ae1a23c60475088c5febc4db81cf02f140c9e783af24ffdae9c7",
  "nextblockhash": "000000003351902f7e327de188067342d59d9ee65c18d080950c157ebdccfd92",
  "strippedsize": 216,
  "size": 216,
  "weight": 864,
  "tx": [
    {
      "txid": "19933efc8fc6e118386ee16c28ffe5a6c52d279a65e955736354d4bf4ce6d1c1",
      "hash": "19933efc8fc6e118386ee16c28ffe5a6c52d279a65e955736354d4bf4ce6d1c1",
      "version": 1,
      "size": 135,
      "vsize": 135,
      "weight": 540,
      "locktime": 0,
      "vin": [
        {
          "coinbase": "04ffff001d020203",
          "sequence": 4294967295
        }
      ],
      "vout": [
        {
          "value": 50.0,
          "n": 0,
          "scriptPubKey": {
            "asm": "04769bae7328973b511d295ccf492f8e8d67840f7f6e59ea4c3c33addb16eb38e8a580f1fd8d84dc51e11ff94fd1b283dcbf689a5a48c24cf7f39f3b28a41846a6 OP_CHECKSIG",
            "desc": "pk(04769bae7328973b511d295ccf492f8e8d67840f7f6e59ea4c3c33addb16eb38e8a580f1fd8d84dc51e11ff94fd1b283dcbf689a5a48c24cf7f39f3b28a41846a6)#c2jy03q9",
            "hex": "4104769bae7328973b511d295ccf492f8e8d67840f7f6e59ea4c3c33addb16eb38e8a580f1fd8d84dc51e11ff94fd1b283dcbf689a5a48c24cf7f39f3b28a41846a6ac",
            "type": "pubkey"
          }
        }
      ],
      "hex": "01000000010000000000000000000000000000000000000000000000000000000000000000ffffffff0804ffff001d020203ffffffff0100f2052a01000000434104769bae7328973b511d295ccf492f8e8d67840f7f6e59ea4c3c33addb16eb38e8a580f1fd8d84dc51e11ff94fd1b283dcbf689a5a48c24cf7f39f3b28a41846a6ac00000000"
    }
  ]
}