{
  "hash": "00000000f94d95791ab573609338891c44abf68540a60abe0bb895405bfc4f81",
  "confirmations": 43969,
  "height": 9129,
  "version": 1,
  "versionHex": "00000001",
  "merkleroot": "7d63792647c10bba7ac758ad16430d0dbfa25f83876dbdc359d387812716c001",
  "time": 1238351387,
  "mediantime": 1238346984,
  "nonce": 4065232153,
  "bits": "1d00ffff",
  "difficulty": 1,
  "chainwork": "000000000000000000000000000000000000000000000000000023aa23aa23aa",
  "nTx": 1,
  "previousblockhash": "00000000329ba70d8c8351b852cd67f5ff2c5479f13ce0b2502fa36bd16778d7",
  "nextblockhash": "00000000bbda61bd7c954f674ccdc6fad7315cfc4ec8982902f5505745a1c2ba",
  "strippedsize": 216,
  "size": 216,
  "weight": 864,
  "tx": [
    {
      "txid": "7d63792647c10bba7ac758ad16430d0dbfa25f83876dbdc359d387812716c001",
      "hash": "7d63792647c10bba7ac758ad16430d0dbfa25f83876dbdc359d387812716c001",
      "version": 1,
      "size": 135,
      "vsize": 135,
      "weight": 540,
      "locktime": 0,
      "vin": [
        {
          "coinbase": "04ffff001d02fa08",
          "sequence": 4294967295
        }
      ],
      "vout": [
        {
          "value": 50.0,
          "n": 0,
          "scriptPubKey": {
            "asm": "04095fb33237515c408e88f4df80d8feeddc3edc22c252382f4932cc6afdb31e1f4273c662fdde082d81da9f11a48bd2b6632ce688cb0c6dafbb895c92c1f5b97a OP_CHECKSIG",
            "desc": "pk(04095fb33237515c408e88f4df80d8feeddc3edc22c252382f4932cc6afdb31e1f4273c662fdde082d81da9f11a48bd2b6632ce688cb0c6dafbb895c92c1f5b97a)#d5sreapp",
            "hex": "4104095fb33237515c408e88f4df80d8feeddc3edc22c252382f4932cc6afdb31e1f4273c662fdde082d81da9f11a48bd2b6632ce688cb0c6dafbb895c92c1f5b97aac",
            "type": "pubkey"
          }
        }
      ],
      "hex": "01000000010000000000000000000000000000000000000000000000000000000000000000ffffffff0804ffff001d02fa08ffffffff0100f2052a01000000434104095fb33237515c408e88f4df80d8feeddc3edc22c252382f4932cc6afdb31e1f4273c662fdde082d81da9f11a48bd2b6632ce688cb0c6dafbb895c92c1f5b97aac00000000"
    }
  ]
}