{
  "hash": "0000000036d62217cd8364db8ab43303379061f7c1d7eecfe49ce10c6ef9a4b7",
  "confirmations": 51994,
  "height": 346,
  "version": 1,
  "versionHex": "00000001",
  "merkleroot": "af0b7b63af0ab11048aa6df0ceb0e82a94a247ddc9db1b0ef5c512ab2b60e27c",
  "time": 1231862299,
  "mediantime": 1231859159,
  "nonce": 1903675680,
  "bits": "1d00ffff",
  "difficulty": 1,
  "chainwork": "0000000000000000000000000000000000000000000000000000015b015b015b",
  "nTx": 1,
  "previousblockhash": "00000000c378c233cf6341ca6f4e7ebfe9fd1324fbbc0e21e0165393e0e83e37",
  "nextblockhash": "000000003f87de459605bbbbbb06f4207ff09f79c7e516aca650545b374b26be",
  "strippedsize": 216,
  "size": 216,
  "weight": 864,
  "tx": [
    {
      "txid": "af0b7b63af0ab11048aa6df0ceb0e82a94a247ddc9db1b0ef5c512ab2b60e27c",
      "hash": "af0b7b63af0ab11048aa6df0ceb0e82a94a247ddc9db1b0ef5c512ab2b60e27c",
      "version": 1,
      "size": 135,
      "vsize": 135,
      "weight": 540,
      "locktime": 0,
      "vin": [
        {
          "coinbase": "04ffff001d026701",
          "sequence": 4294967295
        }
      ],
      "vout": [
        {
          "value": 50.0,
          "n": 0,
          "scriptPubKey": {
            "asm": "04d496d8320a000709c064ec3fec8f775cb2706e9d9563c0cacff2efc6bb1fe70afcba04534c24bb3665fd78902bf18e94712a4b25aef9f33c9c935bf53be18ee5 OP_CHECKSIG",
            "desc": "pk(04d496d8320a000709c064ec3fec8f775cb2706e9d9563c0cacff2efc6bb1fe70afcba04534c24bb3665fd78902bf18e94712a4b25aef9f33c9c935bf53be18ee5)#smcm3fas",
            "hex": "4104d496d8320a000709c064ec3fec8f775cb2706e9d9563c0cacff2efc6bb1fe70afcba04534c24bb3665fd78902bf18e94712a4b25aef9f33c9c935bf53be18ee5ac",
            "type": "pubkey"
          }
        }
      ],
      "hex": "01000000010000000000000000000000000000000000000000000000000000000000000000ffffffff0804ffff001d026701ffffffff0100f2052a01000000434104d496d8320a000709c064ec3fec8f775cb2706e9d9563c0cacff2efc6bb1fe70afcba04534c24bb3665fd78902bf18e94712a4b25aef9f33c9c935bf53be18ee5ac00000000"
    }
  ]
}