{
  "hash": "000000009fb6bef410ea5984f830eaf734922a3c7f8793af7d959e9754866d74",
  "confirmations": 45534,
  "height": 7564,
  "version": 1,
  "versionHex": "00000001",
  "merkleroot": "09b0233d58b03909b6c03e35abe9a0f67dffc42c92cddd482d95007330c4c2b2",
  "time": 1237147530,
  "mediantime": 1237144078,
  "nonce": 3599037482,
  "bits": "1d00ffff",
  "difficulty": 1,
  "chainwork": "00000000000000000000000000000000000000000000000000001d8d1d8d1d8d",
  "nTx": 1,
  "previousblockhash": "00000000fd759a966080ea6a163e702740501a6e0745f639056a689eb3e94263",
  "nextblockhash": "000000000193bb03ff72944c76f93beffe06056d4dbd7c86d2e5e1569429cffa",
  "strippedsize": 216,
  "size": 216,
  "weight": 864,
  "tx": [
    {
      "txid": "09b0233d58b03909b6c03e35abe9a0f67dffc42c92cddd482d95007330c4c2b2",
      "hash": "09b0233d58b03909b6c03e35abe9a0f67dffc42c92cddd482d95007330c4c2b2",
      "version": 1,
      "size": 135,
      "vsize": 135,
      "weight": 540,
      "locktime": 0,
      "vin": [
        {
          "coinbase": "04ffff001d022202",
          "sequence": 4294967295
        }
      ],
      "vout": [
        {
          "value": 50.0,
          "n": 0,
          "scriptPubKey": {
            "asm": "04e6a8970500c457d57f595cff748efb097e95488dac9767aebb3f3d7f6f1507053723574e03c5e16e6eea5c6364fcfb98f51aa206965533cd47b6dce91bf2e89c OP_CHECKSIG",
            "desc": "pk(04e6a8970500c457d57f595cff748efb097e95488dac9767aebb3f3d7f6f1507053723574e03c5e16e6eea5c6364fcfb98f51aa206965533cd47b6dce91bf2e89c)#9mpgcumm",
            "hex": "4104e6a8970500c457d57f595cff748efb097e95488dac9767aebb3f3d7f6f1507053723574e03c5e16e6eea5c6364fcfb98f51aa206965533cd47b6dce91bf2e89cac",
            "type": "pubkey"
          }
        }
      ],
      "hex": "01000000010000000000000000000000000000000000000000000000000000000000000000ffffffff0804ffff001d022202ffffffff0100f2052a01000000434104e6a8970500c457d57f595cff748efb097e95488dac9767aebb3f3d7f6f1507053723574e03c5e16e6eea5c6364fcfb98f51aa206965533cd47b6dce91bf2e89cac00000000"
    }
  ]
}