{
  "hash": "0000000014e32b67d2ff48e5491124985e00badec11e3013fe4b3f6049221f78",
  "confirmations": 51096,
  "height": 2002,
  "version": 1,
  "versionHex": "00000001",
  "merkleroot": "95442a12c2aedad135169591f288de7a780b1dabc2df687ae6dbbf097d68e7f5",
  "time": 1233049009,
  "mediantime": 1233044368,
  "nonce": 3659110917,
  "bits": "1d00ffff",
  "difficulty": 1,
  "chainwork": "000000000000000000000000000000000000000000000000000007d307d307d3",
  "nTx": 1,
  "previousblockhash": "0000000067217a46c49054bad67cda2da943607d326e89896786de10b07cb7c0",
  "nextblockhash": "000000001722daf8b0635e0658c05fd5a19105095d5ad590cf71d3e2c5db70bb",
  "strippedsize": 216,
  "size": 216,
  "weight": 864,
  "tx": [
    {
      "txid": "95442a12c2aedad135169591f288de7a780b1dabc2df687ae6dbbf097d68e7f5",
      "hash": "95442a12c2aedad135169591f288de7a780b1dabc2df687ae6dbbf097d68e7f5",
      "version": 1,
      "size": 135,
      "vsize": 135,
      "weight": 540,
      "locktime": 0,
      "vin": [
        {
          "coinbase": "04ffff001d02b401",
          "sequence": 4294967295
        }
      ],
      "vout": [
        {
          "value": 50.0,
          "n": 0,
          "scriptPubKey": {
            "asm": "04cc0589c80942607c6f78139216141d614039edd62e0d851f6908ceb63b6e6e922190e634c6352a0de4a6dd9fed3abb6d1eb6eee086fe76cface3a5449583ee1e OP_CHECKSIG",
            "desc": "pk(04cc0589c80942607c6f78139216141d614039edd62e0d851f6908ceb63b6e6e922190e634c6352a0de4a6dd9fed3abb6d1eb6eee086fe76cface3a5449583ee1e)#j4peeups",
            "hex": "4104cc0589c80942607c6f78139216141d614039edd62e0d851f6908ceb63b6e6e922190e634c6352a0de4a6dd9fed3abb6d1eb6eee086fe76cface3a5449583ee1eac",
            "type": "pubkey"
          }
        }
      ],
      "hex": "01000000010000000000000000000000000000000000000000000000000000000000000000ffffffff0804ffff001d02b401ffffffff0100f2052a01000000434104cc0589c80942607c6f78139216141d614039edd62e0d851f6908ceb63b6e6e922190e634c6352a0de4a6dd9fed3abb6d1eb6eee086fe76cface3a5449583ee1eac00000000"
    }
  ]
}