{
  "hash": "00000000de6f3abd9bfb2f2a6b25245d42fbeedcec5a97d6083c5fce3a2eefab",
  "confirmations": 49932,
  "height": 3166,
  "version": 1,
  "versionHex": "00000001",
  "merkleroot": "b3c026e9c6fcfb3bae6c9a1d97cf66dfecbb112e24f4fdac2f2c0558e5b2e2e7",
  "time": 1233877200,
  "mediantime": 1233873749,
  "nonce": 734145058,
  "bits": "1d00ffff",
  "difficulty": 1,
  "chainwork": "00000000000000000000000000000000000000000000000000000c5f0c5f0c5f",
  "nTx": 1,
  "previousblockhash": "00000000148bdeac381f614fa764e59475f9c78ee809e87a81bf089b3cb2633a",
  "nextblockhash": "00000000e7abef25d5ec8934b2905dd82fe46b081e9381849744dadadc9198ed",
  "strippedsize": 216,
  "size": 216,
  "weight": 864,
  "tx": [
    {
      "txid": "b3c026e9c6fcfb3bae6c9a1d97cf66dfecbb112e24f4fdac2f2c0558e5b2e2e7",
      "hash": "b3c026e9c6fcfb3bae6c9a1d97cf66dfecbb112e24f4fdac2f2c0558e5b2e2e7",
      "version": 1,
      "size": 135,
      "vsize": 135,
      "weight": 540,
      "locktime": 0,
      "vin": [
        {
          "coinbase": "04ffff001d023202",
          "sequence": 4294967295
        }
      ],
      "vout": [
        {
          "value": 50.0,
          "n": 0,
          "scriptPubKey": {
            "asm": "04abc07e721dea134b96a073700a878acfd6844bce19f733dc23f9df3e9db25a596a7c67a2ff8bd58d7411eb4a1761b5c03a707c2119d5fb99750e82411933e25d OP_CHECKSIG",
            "desc": "pk(04abc07e721dea134b96a073700a878acfd6844bce19f733dc23f9df3e9db25a596a7c67a2ff8bd58d7411eb4a1761b5c03a707c2119d5fb99750e82411933e25d)#9ptnes55",
            "hex": "4104abc07e721dea134b96a073700a878acfd6844bce19f733dc23f9df3e9db25a596a7c67a2ff8bd58d7411eb4a1761b5c03a707c2119d5fb99750e82411933e25dac",
            "type": "pubkey"
          }
        }
      ],
      "hex": "01000000010000000000000000000000000000000000000000000000000000000000000000ffffffff0804ffff001d023202ffffffff0100f2052a01000000434104abc07e721dea134b96a073700a878acfd6844bce19f733dc23f9df3e9db25a596a7c67a2ff8bd58d7411eb4a1761b5c03a707c2119d5fb99750e82411933e25dac00000000"
    }
  ]
}