{
  "hash": "0000000035502bf9fcaaff088b8434511c180d9edac705bf33c90fce2176d4e6",
  "confirmations": 47527,
  "height": 5571,
  "version": 1,
  "versionHex": "00000001",
  "merkleroot": "545e7e7cc2a876f15362913da6f3cd22951d3522fe77f62cbfc304e0cbba3677",
  "time": 1235578225,
  "mediantime": 1235575711,
  "nonce": 2982461449,
  "bits": "1d00ffff",
  "difficulty": 1,
  "chainwork": "000000000000000000000000000000000000000000000000000015c415c415c4",
  "nTx": 1,
  "previousblockhash": "0000000083bad28e92c60fe246f53ed363ee63a66a4609b3e13ca107d8c875b7",
  "nextblockhash": "000000005d33fab13686ef8117ed7302cf56310c2246455e4c704d2b4ba111bf",
  "strippedsize": 216,
  "size": 216,
  "weight": 864,
  "tx": [
    {
      "txid": "545e7e7cc2a876f15362913da6f3cd22951d3522fe77f62cbfc304e0cbba3677",
      "hash": "545e7e7cc2a876f15362913da6f3cd22951d3522fe77f62cbfc304e0cbba3677",
      "version": 1,
      "size": 135,
      "vsize": 135,
      "weight": 540,
      "locktime": 0,
      "vin": [
        {
          "coinbase": "04ffff001d02fc06",
          "sequence": 4294967295
        }
      ],
      "vout": [
        {
          "value": 50.0,
          "n": 0,
          "scriptPubKey": {
            "asm": "04326a8528faf880d4f9483e2452e6553de7b3893c095f21b768bf084c00993ae9e5639ca7b06e64b4745778135d64330cb82acabfe076b979bce455891d3f7897 OP_CHECKSIG",
            "desc": "pk(04326a8528faf880d4f9483e2452e6553de7b3893c095f21b768bf084c00993ae9e5639ca7b06e64b4745778135d64330cb82acabfe076b979bce455891d3f7897)#w505urjl",
            "hex": "4104326a8528faf880d4f9483e2452e6553de7b3893c095f21b768bf084c00993ae9e5639ca7b06e64b4745778135d64330cb82acabfe076b979bce455891d3f7897ac",
            "type": "pubkey"
          }
        }
      ],
      "hex": "01000000010000000000000000000000000000000000000000000000000000000000000000ffffffff0804ffff001d02fc06ffffffff0100f2052a01000000434104326a8528faf880d4f9483e2452e6553de7b3893c095f21b768bf084c00993ae9e5639ca7b06e64b4745778135d64330cb82acabfe076b979bce455891d3f7897ac00000000"
    }
  ]
}