{
  "hash": "00000000d93e4c9b4340fae149648a7abc4c914f95a77458dafe03bc211900a0",
  "confirmations": 52068,
  "height": 142,
  "version": 1,
  "versionHex": "00000001",
  "merkleroot": "73a4ce71aab2077ce17239c9f31922571e703a26d2c212daffae2bb15bb898ba",
  "time": 1231691038,
  "mediantime": 1231687155,
  "nonce": 2583072288,
  "bits": "1d00ffff",
  "difficulty": 1,
  "chainwork": "0000000000000000000000000000000000000000000000000000008f008f008f",
  "nTx": 1,
  "previousblockhash": "00000000a83dac69280eec98d9e650a3c69f0db88a3abf68b4c008b373af0ee5",
  "nextblockhash": "0000000049ec23bf6bfc47b5c8560b15dd52fb57db15ef185d78d4af12871861",
  "strippedsize": 215,
  "size": 215,
  "weight": 860,
  "tx": [
    {
      "txid": "73a4ce71aab2077ce17239c9f31922571e703a26d2c212daffae2bb15bb898ba",
      "hash": "73a4ce71aab2077ce17239c9f31922571e703a26d2c212daffae2bb15bb898ba",
      "version": 1,
      "size": 134,
      "vsize": 134,
      "weight": 536,
      "locktime": 0,
      "vin": [
        {
          "coinbase": "04ffff001d0153",
          "sequence": 4294967295
        }
      ],
      "vout": [
        {
          "value": 50.0,
          "n": 0,
          "scriptPubKey": {
            "asm": "047bff1aa919559a9dc8f040ba59e45760f157e46bba653171e34aa45cd1e60872ab910651666fd7c5784a8eb496796e1732573ac5c33e40b5c01e4d428c4c8765 OP_CHECKSIG",
            "desc": "pk(047bff1aa919559a9dc8f040ba59e45760f157e46bba653171e34aa45cd1e60872ab910651666fd7c5784a8eb496796e1732573ac5c33e40b5c01e4d428c4c8765)#lz29xesr",
            "hex": "41047bff1aa919559a9dc8f040ba59e45760f157e46bba653171e34aa45cd1e60872ab910651666fd7c5784a8eb496796e1732573ac5c33e40b5c01e4d428c4c8765ac",
            "type": "pubkey"
          }
        }
      ],
      "hex": "01000000010000000000000000000000000000000000000000000000000000000000000000ffffffff0704ffff001d0153ffffffff0100f2052a010000004341047bff1aa919559a9dc8f040ba59e45760f157e46bba653171e34aa45cd1e60872ab910651666fd7c5784a8eb496796e1732573ac5c33e40b5c01e4d428c4c8765ac00000000"
    }
  ]
}