{
  "hash": "000000009f864029612a2254a39c25d52f3d7af02f30fd259c2acb9d2b9e8d55",
  "confirmations": 44903,
  "height": 8195,
  "version": 1,
  "versionHex": "00000001",
  "merkleroot": "db23ef854a35ce90f6f389ff13b80c226c8b7dee3e9db40a54f7ee9e3259715c",
  "time": 1237602179,
  "mediantime": 1237598869,
  "nonce": 3004378927,
  "bits": "1d00ffff",
  "difficulty": 1,
  "chainwork": "0000000000000000000000000000000000000000000000000000200420042004",
  "nTx": 1,
  "previousblockhash": "000000006b4c62e3f365c9f2250ea8c241d53b17587cc9042b39ba8c71b6b6c6",
  "nextblockhash": "00000000e0c83bf9fe1d1f962cf9e88dd0ac13d02bf95eb5bc9f2145d678b7de",
  "strippedsize": 216,
  "size": 216,
  "weight": 864,
  "tx": [
    {
      "txid": "db23ef854a35ce90f6f389ff13b80c226c8b7dee3e9db40a54f7ee9e3259715c",
      "hash": "db23ef854a35ce90f6f389ff13b80c226c8b7dee3e9db40a54f7ee9e3259715c",
      "version": 1,
      "size": 135,
      "vsize": 135,
      "weight": 540,
      "locktime": 0,
      "vin": [
        {
          "coinbase": "04ffff001d02c102",
          "sequence": 4294967295
        }
      ],
      "vout": [
        {
          "value": 50.0,
          "n": 0,
          "scriptPubKey": {
            "asm": "0420be9f36154fdeccaf0dc7ce5b6b3124121d688e5eabb5103e1654b1143fa00ba1b23bab2b96e684bdd6819b6cdff42063aca6e0029aed670d3f281a6bb4b699 OP_CHECKSIG",
            "desc": "pk(0420be9f36154fdeccaf0dc7ce5b6b3124121d688e5eabb5103e1654b1143fa00ba1b23bab2b96e684bdd6819b6cdff42063aca6e0029aed670d3f281a6bb4b699)#quxdy848",
            "hex": "410420be9f36154fdeccaf0dc7ce5b6b3124121d688e5eabb5103e1654b1143fa00ba1b23bab2b96e684bdd6819b6cdff42063aca6e0029aed670d3f281a6bb4b699ac",
            "type": "pubkey"
          }
        }
      ],
      "hex": "01000000010000000000000000000000000000000000000000000000000000000000000000ffffffff0804ffff001d02c102ffffffff0100f2052a0100000043410420be9f36154fdeccaf0dc7ce5b6b3124121d688e5eabb5103e1654b1143fa00ba1b23bab2b96e684bdd6819b6cdff42063aca6e0029aed670d3f281a6bb4b699ac00000000"
    }
  ]
}