{
  "hash": "0000000073777a441e7058ff46b7b2c4be347e459a4e12754bc4c24d90f10908",
  "confirmations": 49606,
  "height": 3492,
  "version": 1,
  "versionHex": "00000001",
  "merkleroot": "6e68abb9fbff636b81a81291aca7fb656075aace05fb233b28423ede84ba5da4",
  "time": 1234097275,
  "mediantime": 1234093640,
  "nonce": 1007058206,
  "bits": "1d00ffff",
  "difficulty": 1,
  "chainwork": "00000000000000000000000000000000000000000000000000000da50da50da5",
  "nTx": 1,
  "previousblockhash": "00000000af8bd4019e655d01f64873569d7379b9cd8318c8e91f5430759e0969",
  "nextblockhash": "0000000087ae6350d3e5b5d1b76414a74b545199a8f7296c08434fa0c99ca8c1",
  "strippedsize": 216,
  "size": 216,
  "weight": 864,
  "tx": [
    {
      "txid": "6e68abb9fbff636b81a81291aca7fb656075aace05fb233b28423ede84ba5da4",
      "hash": "6e68abb9fbff636b81a81291aca7fb656075aace05fb233b28423ede84ba5da4",
      "version": 1,
      "size": 135,
      "vsize": 135,
      "weight": 540,
      "locktime": 0,
      "vin": [
        {
          "coinbase": "04ffff001d02e706",
          "sequence": 4294967295
        }
      ],
      "vout": [
        {
          "value": 50.0,
          "n": 0,
          "scriptPubKey": {
            "asm": "045a4423b076e6169e45adf2e81069653cb5783dc18a07eade7b85d8519e5fc55c17eadbc735afd5e8d3d9d00a31e82d6572558e59669d12f5f9273d2174541303 OP_CHECKSIG",
            "desc": "pk(045a4423b076e6169e45adf2e81069653cb5783dc18a07eade7b85d8519e5fc55c17eadbc735afd5e8d3d9d00a31e82d6572558e59669d12f5f9273d2174541303)#mdk8npgm",
            "hex": "41045a4423b076e6169e45adf2e81069653cb5783dc18a07eade7b85d8519e5fc55c17eadbc735afd5e8d3d9d00a31e82d6572558e59669d12f5f9273d2174541303ac",
            "type": "pubkey"
          }
        }
      ],
      "hex": "01000000010000000000000000000000000000000000000000000000000000000000000000ffffffff0804ffff001d02e706ffffffff0100f2052a010000004341045a4423b076e6169e45adf2e81069653cb5783dc18a07eade7b85d8519e5fc55c17eadbc735afd5e8d3d9d00a31e82d6572558e59669d12f5f9273d2174541303ac00000000"
    }
  ]
}