{
  "hash": "00000000cd1414191afd437fec70c9fd32447210f2aba1dad11ec32416913f46",
  "confirmations": 50457,
  "height": 2641,
  "version": 1,
  "versionHex": "00000001",
  "merkleroot": "2a8bf3fd6227e2080e371dd4d219952c6d9250cff306ff76c026362cee45649f",
  "time": 1233520986,
  "mediantime": 1233516676,
  "nonce": 11912213,
  "bits": "1d00ffff",
  "difficulty": 1,
  "chainwork": "00000000000000000000000000000000000000000000000000000a520a520a52",
  "nTx": 1,
  "previousblockhash": "00000000c0fdff868df4a80a43d3e6323eacb6378f4bd12c14d7b970a9f282af",
  "nextblockhash": "00000000992fc36cb87322f89071bf6003a91f9ebf64b5c33caf6f0a792f8224",
  "strippedsize": 216,
  "size": 216,
  "weight": 864,
  "tx": [
    {
      "txid": "2a8bf3fd6227e2080e371dd4d219952c6d9250cff306ff76c026362cee45649f",
      "hash": "2a8bf3fd6227e2080e371dd4d219952c6d9250cff306ff76c026362cee45649f",
      "version": 1,
      "size": 135,
      "vsize": 135,
      "weight": 540,
      "locktime": 0,
      "vin": [
        {
          "coinbase": "04ffff001d02b803",
          "sequence": 4294967295
        }
      ],
      "vout": [
        {
          "value": 50.0,
          "n": 0,
          "scriptPubKey": {
            "asm": "04709e1fd0a51c368db039c6057a4b67aff4a6553102b63b5fcff4fa7829d05e58ed6d2558f6809c96a8a473ffec4a3009a24b7dbe2999adef2b7c2edd24043e3e OP_CHECKSIG",
            "desc": "pk(04709e1fd0a51c368db039c6057a4b67aff4a6553102b63b5fcff4fa7829d05e58ed6d2558f6809c96a8a473ffec4a3009a24b7dbe2999adef2b7c2edd24043e3e)#hmq7dsvk",
            "hex": "4104709e1fd0a51c368db039c6057a4b67aff4a6553102b63b5fcff4fa7829d05e58ed6d2558f6809c96a8a473ffec4a3009a24b7dbe2999adef2b7c2edd24043e3eac",
            "type": "pubkey"
          }
        }
      ],
      "hex": "01000000010000000000000000000000000000000000000000000000000000000000000000ffffffff0804ffff001d02b803ffffffff0100f2052a01000000434104709e1fd0a51c368db039c6057a4b67aff4a6553102b63b5fcff4fa7829d05e58ed6d2558f6809c96a8a473ffec4a3009a24b7dbe2999adef2b7c2edd24043e3eac00000000"
    }
  ]
}