{
  "hash": "00000000fd5fc34e74cce9bd0147f70253e29960c62e7ae3839b489f5d890f91",
  "confirmations": 44366,
  "height": 8732,
  "version": 1,
  "versionHex": "00000001",
  "merkleroot": "bee615bd82ba5abe8958631a17eb65cb9e5565151fcc2a1d1fef424b869b17a5",
  "time": 1238044461,
  "mediantime": 1238040875,
  "nonce": 258683686,
  "bits": "1d00ffff",
  "difficulty": 1,
  "chainwork": "0000000000000000000000000000000000000000000000000000221d221d221d",
  "nTx": 1,
  "previousblockhash": "00000000861d55e5eb5b053106cc75d942f28bf8899efee80d420be146058f8e",
  "nextblockhash": "00000000f332186781b7f38a2bc6fc08010610e5d14403753b0c86a88e7651ca",
  "strippedsize": 216,
  "size": 216,
  "weight": 864,
  "tx": [
    {
      "txid": "bee615bd82ba5abe8958631a17eb65cb9e5565151fcc2a1d1fef424b869b17a5",
      "hash": "bee615bd82ba5abe8958631a17eb65cb9e5565151fcc2a1d1fef424b869b17a5",
      "version": 1,
      "size": 135,
      "vsize": 135,
      "weight": 540,
      "locktime": 0,
      "vin": [
        {
          "coinbase": "04ffff001d026e01",
          "sequence": 4294967295
        }
      ],
      "vout": [
        {
          "value": 50.0,
          "n": 0,
          "scriptPubKey": {
            "asm": "04379627418e8f24fe46fbc57ced1768fb3c18ece45f6f88654764897be211f2665c61bfa35297cb3f1bda56d2cc994756da9140e5497d3d9ee1cb9b9140b7e4e6 OP_CHECKSIG",
            "desc": "pk(04379627418e8f24fe46fbc57ced1768fb3c18ece45f6f88654764897be211f2665c61bfa35297cb3f1bda56d2cc994756da9140e5497d3d9ee1cb9b9140b7e4e6)#sw9gfvkr",
            "hex": "4104379627418e8f24fe46fbc57ced1768fb3c18ece45f6f88654764897be211f2665c61bfa35297cb3f1bda56d2cc994756da9140e5497d3d9ee1cb9b9140b7e4e6ac",
            "type": "pubkey"
          }
        }
      ],
      "hex": "01000000010000000000000000000000000000000000000000000000000000000000000000ffffffff0804ffff001d026e01ffffffff0100f2052a01000000434104379627418e8f24fe46fbc57ced1768fb3c18ece45f6f88654764897be211f2665c61bfa35297cb3f1bda56d2cc994756da9140e5497d3d9ee1cb9b9140b7e4e6ac00000000"
    }
  ]
}