{
  "hash": "00000000832caba3ebe2eb5c2b579129c5f364d2f8030b138f0d445199a4e713",
  "confirmations": 47335,
  "height": 5763,
  "version": 1,
  "versionHex": "00000001",
  "merkleroot": "9feb6b90324dfdf88df8f6be1bcd18375c60be76e9dd4c33557e0113050744aa",
  "time": 1235732198,
  "mediantime": 1235729367,
  "nonce": 47626226,
  "bits": "1d00ffff",
  "difficulty": 1,
  "chainwork": "0000000000000000000000000000000000000000000000000000168416841684",
  "nTx": 1,
  "previousblockhash": "00000000507fcfe6138eaf4ebbb1766337d78bbbda1f5e15fba2c822d77ec01c",
  "nextblockhash": "000000000b6b65684e019339fdbd2754ed872fed987407594f984773360dd977",
  "strippedsize": 216,
  "size": 216,
  "weight": 864,
  "tx": [
    {
      "txid": "9feb6b90324dfdf88df8f6be1bcd18375c60be76e9dd4c33557e0113050744aa",
      "hash": "9feb6b90324dfdf88df8f6be1bcd18375c60be76e9dd4c33557e0113050744aa",
      "version": 1,
      "size": 135,
      "vsize": 135,
      "weight": 540,
      "locktime": 0,
      "vin": [
        {
          "coinbase": "04ffff001d024608",
          "sequence": 4294967295
        }
      ],
      "vout": [
        {
          "value": 50.0,
          "n": 0,
          "scriptPubKey": {
            "asm": "049240dd4ef8d26f08b1827cfd5b2345bf6008a0d30532739ba8e52163491e0828234a81f74f4dc07b00f3bb72dd2f3177524a6a377090f9eaa65d988290d00252 OP_CHECKSIG",
            "desc": "pk(049240dd4ef8d26f08b1827cfd5b2345bf6008a0d30532739ba8e52163491e0828234a81f74f4dc07b00f3bb72dd2f3177524a6a377090f9eaa65d988290d00252)#egeud87p",
            "hex": "41049240dd4ef8d26f08b1827cfd5b2345bf6008a0d30532739ba8e52163491e0828234a81f74f4dc07b00f3bb72dd2f3177524a6a377090f9eaa65d988290d00252ac",
            "type": "pubkey"
          }
        }
      ],
      "hex": "01000000010000000000000000000000000000000000000000000000000000000000000000ffffffff0804ffff001d024608ffffffff0100f2052a010000004341049240dd4ef8d26f08b1827cfd5b2345bf6008a0d30532739ba8e52163491e0828234a81f74f4dc07b00f3bb72dd2f3177524a6a377090f9eaa65d988290d00252ac00000000"
    }
  ]
}