{
  "hash": "000000004ca6164ff68a48acdfd3b58ac435cccb3accb21a7dd6235df34428e6",
  "confirmations": 45984,
  "height": 7114,
  "version": 1,
  "versionHex": "00000001",
  "merkleroot": "5ffa9447bd7122762a4f063ff7c3afaca15b074a9c764099d6a8695b7054f476",
  "time": 1236808188,
  "mediantime": 1236804929,
  "nonce": 1358492189,
  "bits": "1d00ffff",
  "difficulty": 1,
  "chainwork": "00000000000000000000000000000000000000000000000000001bcb1bcb1bcb",
  "nTx": 1,
  "previousblockhash": "00000000696871adf5dcc1f96a07267c950875fa86edf9a0734678ca50812646",
  "nextblockhash": "0000000044a5854add7cedd006a413cb5fc06e3b6c4ddf6d149f23c6ebe6422a",
  "strippedsize": 216,
  "size": 216,
  "weight": 864,
  "tx": [
    {
      "txid": "5ffa9447bd7122762a4f063ff7c3afaca15b074a9c764099d6a8695b7054f476",
      "hash": "5ffa9447bd7122762a4f063ff7c3afaca15b074a9c764099d6a8695b7054f476",
      "version": 1,
      "size": 135,
      "vsize": 135,
      "weight": 540,
      "locktime": 0,
      "vin": [
        {
          "coinbase": "04ffff001d023304",
          "sequence": 4294967295
        }
      ],
      "vout": [
        {
          "value": 50.0,
          "n": 0,
          "scriptPubKey": {
            "asm": "0401e0e16fc85eb1b7a0b82a52c57a038e006f301172a967f5aa26a4da0438e0d31b1c3997dd9ba80c89f737b91bbccc3647806acafb505c4c4bb1dd0bc4c117cd OP_CHECKSIG",
            "desc": "pk(0401e0e16fc85eb1b7a0b82a52c57a038e006f301172a967f5aa26a4da0438e0d31b1c3997dd9ba80c89f737b91bbccc3647806acafb505c4c4bb1dd0bc4c117cd)#w6vempz7",
            "hex": "410401e0e16fc85eb1b7a0b82a52c57a038e006f301172a967f5aa26a4da0438e0d31b1c3997dd9ba80c89f737b91bbccc3647806acafb505c4c4bb1dd0bc4c117cdac",
            "type": "pubkey"
          }
        }
      ],
      "hex": "01000000010000000000000000000000000000000000000000000000000000000000000000ffffffff0804ffff001d023304ffffffff0100f2052a0100000043410401e0e16fc85eb1b7a0b82a52c57a038e006f301172a967f5aa26a4da0438e0d31b1c3997dd9ba80c89f737b91bbccc3647806acafb505c4c4bb1dd0bc4c117cdac00000000"
    }
  ]
}