{
  "hash": "000000007770e0b928a9a972c10c1a7bd91afdefc0eaf09580158e1703d17cf2",
  "confirmations": 46071,
  "height": 7027,
  "version": 1,
  "versionHex": "00000001",
  "merkleroot": "7f453e79fbd693bb06500961a78b4ba8cb1b2275a9e674e934f36050e3097e14",
  "time": 1236739038,
  "mediantime": 1236734925,
  "nonce": 3132423207,
  "bits": "1d00ffff",
  "difficulty": 1,
  "chainwork": "00000000000000000000000000000000000000000000000000001b741b741b74",
  "nTx": 1,
  "previousblockhash": "0000000032a4ee63719e555ba720f48b999c6927b8c5fc4ec1aa881b8cfad9d0",
  "nextblockhash": "00000000c8c441b920be149d400444f6cf0ac57d04974196d012430ad9746c5e",
  "strippedsize": 216,
  "size": 216,
  "weight": 864,
  "tx": [
    {
      "txid": "7f453e79fbd693bb06500961a78b4ba8cb1b2275a9e674e934f36050e3097e14",
      "hash": "7f453e79fbd693bb06500961a78b4ba8cb1b2275a9e674e934f36050e3097e14",
      "version": 1,
      "size": 135,
      "vsize": 135,
      "weight": 540,
      "locktime": 0,
      "vin": [
        {
          "coinbase": "04ffff001d02d702",
          "sequence": 4294967295
        }
      ],
      "vout": [
        {
          "value": 50.0,
          "n": 0,
          "scriptPubKey": {
            "asm": "040428862ab7a8c7edd36fed861793ebe8ee112d485bff85eacd3cf9092cd3b7026c1c97ff0e8236f1b86b29328fe92df9f751fc2b57cbac072ca503438be67d72 OP_CHECKSIG",
            "desc": "pk(040428862ab7a8c7edd36fed861793ebe8ee112d485bff85eacd3cf9092cd3b7026c1c97ff0e8236f1b86b29328fe92df9f751fc2b57cbac072ca503438be67d72)#35e3fpqd",
            "hex": "41040428862ab7a8c7edd36fed861793ebe8ee112d485bff85eacd3cf9092cd3b7026c1c97ff0e8236f1b86b29328fe92df9f751fc2b57cbac072ca503438be67d72ac",
            "type": "pubkey"
          }
        }
      ],
      "hex": "01000000010000000000000000000000000000000000000000000000000000000000000000ffffffff0804ffff001d02d702ffffffff0100f2052a010000004341040428862ab7a8c7edd36fed861793ebe8ee112d485bff85eacd3cf9092cd3b7026c1c97ff0e8236f1b86b29328fe92df9f751fc2b57cbac072ca503438be67d72ac00000000"
    }
  ]
}