{
  "hash": "0000000032a05d688e5222d231cdc902d84c7844b7032c2d9f4406252ec4284b",
  "confirmations": 51277,
  "height": 1821,
  "version": 1,
  "versionHex": "00000001",
  "merkleroot": "9f2139625d509f43501e81d1dfd1fbd248b1982b5fa55ef724b197364350359f",
  "time": 1232909239,
  "mediantime": 1232907302,
  "nonce": 1873655829,
  "bits": "1d00ffff",
  "difficulty": 1,
  "chainwork": "0000000000000000000000000000000000000000000000000000071e071e071e",
  "nTx": 1,
  "previousblockhash": "00000000bf0e8af2f742d16f5e32db76e0d3db000c6e5b801f50969acf751cd7",
  "nextblockhash": "000000008bc9da374bee05cc7061dfeaea16ccbd6fe9504838d86429c0eeea05",
  "strippedsize": 216,
  "size": 216,
  "weight": 864,
  "tx": [
    {
      "txid": "9f2139625d509f43501e81d1dfd1fbd248b1982b5fa55ef724b197364350359f",
      "hash": "9f2139625d509f43501e81d1dfd1fbd248b1982b5fa55ef724b197364350359f",
      "version": 1,
      "size": 135,
      "vsize": 135,
      "weight": 540,
      "locktime": 0,
      "vin": [
        {
          "coinbase": "04ffff001d025704",
          "sequence": 4294967295
        }
      ],
      "vout": [
        {
          "value": 50.0,
          "n": 0,
          "scriptPubKey": {
            "asm": "04f35f968c13f414cc9f512528c9546cad5fd81256ded7bbb07429c39222dbbca952d416e93d50c453ca3b033e868eae9e446cbfa450eba08915b6acda8505e25b OP_CHECKSIG",
            "desc": "pk(04f35f968c13f414cc9f512528c9546cad5fd81256ded7bbb07429c39222dbbca952d416e93d50c453ca3b033e868eae9e446cbfa450eba08915b6acda8505e25b)#5cuf3p2w",
            "hex": "4104f35f968c13f414cc9f512528c9546cad5fd81256ded7bbb07429c39222dbbca952d416e93d50c453ca3b033e868eae9e446cbfa450eba08915b6acda8505e25bac",
            "type": "pubkey"
          }
        }
      ],
      "hex": "01000000010000000000000000000000000000000000000000000000000000000000000000ffffffff0804ffff001d025704ffffffff0100f2052a01000000434104f35f968c13f414cc9f512528c9546cad5fd81256ded7bbb07429c39222dbbca952d416e93d50c453ca3b033e868eae9e446cbfa450eba08915b6acda8505e25bac00000000"
    }
  ]
}