{
  "hash": "000000003bd708485b603f9d21e0d840ed5bfd25f9de87570c05fde1b6abc2be",
  "confirmations": 44659,
  "height": 8439,
  "version": 1,
  "versionHex": "00000001",
  "merkleroot": "aed734b972dfa09da07464a2f4be0ae0d53b2e99634b27668f619635361c1442",
  "time": 1237824167,
  "mediantime": 1237820246,
  "nonce": 444020248,
  "bits": "1d00ffff",
  "difficulty": 1,
  "chainwork": "000000000000000000000000000000000000000000000000000020f820f820f8",
  "nTx": 1,
  "previousblockhash": "000000009505ec73031ca38a87a4cc884075f1f75096845e24b1b74f5d133e20",
  "nextblockhash": "00000000736636cebcad5cc39626c69dcad0a89eaa8a895226417bea93f88580",
  "strippedsize": 216,
  "size": 216,
  "weight": 864,
  "tx": [
    {
      "txid": "aed734b972dfa09da07464a2f4be0ae0d53b2e99634b27668f619635361c1442",
      "hash": "aed734b972dfa09da07464a2f4be0ae0d53b2e99634b27668f619635361c1442",
      "version": 1,
      "size": 135,
      "vsize": 135,
      "weight": 540,
      "locktime": 0,
      "vin": [
        {
          "coinbase": "04ffff001d02ad06",
          "sequence": 4294967295
        }
      ],
      "vout": [
        {
          "value": 50.0,
          "n": 0,
          "scriptPubKey": {
            "asm": "04f2d09c7b78a4b1e6e36b536aef1885f38ca5349adf17e3c315ee0779364f56b63c28e7031bbe379c8d4bed56a6f49fe58674414a71cdbf1d0f04bf77568af6d4 OP_CHECKSIG",
            "desc": "pk(04f2d09c7b78a4b1e6e36b536aef1885f38ca5349adf17e3c315ee0779364f56b63c28e7031bbe379c8d4bed56a6f49fe58674414a71cdbf1d0f04bf77568af6d4)#g4df7xv7",
            "hex": "4104f2d09c7b78a4b1e6e36b536aef1885f38ca5349adf17e3c315ee0779364f56b63c28e7031bbe379c8d4bed56a6f49fe58674414a71cdbf1d0f04bf77568af6d4ac",
            "type": "pubkey"
          }
        }
      ],
      "hex": "01000000010000000000000000000000000000000000000000000000000000000000000000ffffffff0804ffff001d02ad06ffffffff0100f2052a01000000434104f2d09c7b78a4b1e6e36b536aef1885f38ca5349adf17e3c315ee0779364f56b63c28e7031bbe379c8d4bed56a6f49fe58674414a71cdbf1d0f04bf77568af6d4ac00000000"
    }
  ]
}