{
  "hash": "0000000054be77b2e8577df495a6ae01bff8b28ceacf7703296dd59816f10805",
  "confirmations": 45707,
  "height": 7391,
  "version": 1,
  "versionHex": "00000001",
  "merkleroot": "086f294cb26d82f19b37a48d9bec4bbe9cd339fe05fc9957efc65936b21f4c1f",
  "time": 1237015198,
  "mediantime": 1237009805,
  "nonce": 3087914291,
  "bits": "1d00ffff",
  "difficulty": 1,
  "chainwork": "00000000000000000000000000000000000000000000000000001ce01ce01ce0",
  "nTx": 1,
  "previousblockhash": "00000000f7e56c76e349eb2276632451173d0ec0d5afc697612d42abdfde225f",
  "nextblockhash": "000000008df9aba1fa38aa5f0e6de72505e3eedc41e64eb3f3bbeebbdb298122",
  "strippedsize": 216,
  "size": 216,
  "weight": 864,
  "tx": [
    {
      "txid": "086f294cb26d82f19b37a48d9bec4bbe9cd339fe05fc9957efc65936b21f4c1f",
      "hash": "086f294cb26d82f19b37a48d9bec4bbe9cd339fe05fc9957efc65936b21f4c1f",
      "version": 1,
      "size": 135,
      "vsize": 135,
      "weight": 540,
      "locktime": 0,
      "vin": [
        {
          "coinbase": "04ffff001d022b09",
          "sequence": 4294967295
        }
      ],
      "vout": [
        {
          "value": 50.0,
          "n": 0,
          "scriptPubKey": {
            "asm": "04769967c4a177b09a7d37ec7db04293684ece3e3c7d661581584bb464f9f7e49af848c870b77ce18cc0785cedca77ab591f15ad8316c07dfb00131824cb1c0b55 OP_CHECKSIG",
            "desc": "pk(04769967c4a177b09a7d37ec7db04293684ece3e3c7d661581584bb464f9f7e49af848c870b77ce18cc0785cedca77ab591f15ad8316c07dfb00131824cb1c0b55)#l9lu2jva",
            "hex": "4104769967c4a177b09a7d37ec7db04293684ece3e3c7d661581584bb464f9f7e49af848c870b77ce18cc0785cedca77ab591f15ad8316c07dfb00131824cb1c0b55ac",
            "type": "pubkey"
          }
        }
      ],
      "hex": "01000000010000000000000000000000000000000000000000000000000000000000000000ffffffff0804ffff001d022b09ffffffff0100f2052a01000000434104769967c4a177b09a7d37ec7db04293684ece3e3c7d661581584bb464f9f7e49af848c870b77ce18cc0785cedca77ab591f15ad8316c07dfb00131824cb1c0b55ac00000000"
    }
  ]
}