{
  "hash": "0000000077a5a0f4bc2d1d941e8c8295661ac4f5c25f2dc131447e7dac7be39a",
  "confirmations": 43957,
  "height": 9141,
  "version": 1,
  "versionHex": "00000001",
  "merkleroot": "8fbc6a8198d01372616722ae273a28f81d7ff08922fb4ec641e5af5de9c65444",
  "time": 1238362583,
  "mediantime": 1238357376,
  "nonce": 787933731,
  "bits": "1d00ffff",
  "difficulty": 1,
  "chainwork": "000000000000000000000000000000000000000000000000000023b623b623b6",
  "nTx": 1,
  "previousblockhash": "00000000553e2cdc44d98aa62334fda136ac28d852a4c0734de579bd038c627b",
  "nextblockhash": "0000000013103fb0ed66aad5c6616d485931b6ec1c905b8f58f74e4d4a11a0d5",
  "strippedsize": 216,
  "size": 216,
  "weight": 864,
  "tx": [
    {
      "txid": "8fbc6a8198d01372616722ae273a28f81d7ff08922fb4ec641e5af5de9c65444",
      "hash": "8fbc6a8198d01372616722ae273a28f81d7ff08922fb4ec641e5af5de9c65444",
      "version": 1,
      "size": 135,
      "vsize": 135,
      "weight": 540,
      "locktime": 0,
      "vin": [
        {
          "coinbase": "04ffff001d022709",
          "sequence": 4294967295
        }
      ],
      "vout": [
        {
          "value": 50.0,
          "n": 0,
          "scriptPubKey": {
            "asm": "0470269f7c2b0f2882813c61cf01f54142609f3f6fc802c25c90de04b88354580f2f6605fb782595eb189a1e76ce711350d1744f31008dd89409bb61ae52f759cc OP_CHECKSIG",
            "desc": "pk(0470269f7c2b0f2882813c61cf01f54142609f3f6fc802c25c90de04b88354580f2f6605fb782595eb189a1e76ce711350d1744f31008dd89409bb61ae52f759cc)#3z5dr27w",
            "hex": "410470269f7c2b0f2882813c61cf01f54142609f3f6fc802c25c90de04b88354580f2f6605fb782595eb189a1e76ce711350d1744f31008dd89409bb61ae52f759ccac",
            "type": "pubkey"
          }
        }
      ],
      "hex": "01000000010000000000000000000000000000000000000000000000000000000000000000ffffffff0804ffff001d022709ffffffff0100f2052a0100000043410470269f7c2b0f2882813c61cf01f54142609f3f6fc802c25c90de04b88354580f2f6605fb782595eb189a1e76ce711350d1744f31008dd89409bb61ae52f759ccac00000000"
    }
  ]
}