{
  "hash": "00000000a95af4f120a33be882959c7f7cde1ff5ca4080c99295c38998e7acb7",
  "confirmations": 43617,
  "height": 9481,
  "version": 1,
  "versionHex": "00000001",
  "merkleroot": "efc7260965bafbe060cfe7857dcf41f308bfb5faaca9f2dc3eb30e405ac6561a",
  "time": 1238615471,
  "mediantime": 1238611087,
  "nonce": 1172464952,
  "bits": "1d00ffff",
  "difficulty": 1,
  "chainwork": "0000000000000000000000000000000000000000000000000000250a250a250a",
  "nTx": 1,
  "previousblockhash": "00000000ee40bc360a3865ef053df21861ad1217b6f95c10069f445ed652bcc3",
  "nextblockhash": "000000006e7138111f1e1426d943a1ba2c37b2c0f5bb4a9f132416081d465dad",
  "strippedsize": 216,
  "size": 216,
  "weight": 864,
  "tx": [
    {
      "txid": "efc7260965bafbe060cfe7857dcf41f308bfb5faaca9f2dc3eb30e405ac6561a",
      "hash": "efc7260965bafbe060cfe7857dcf41f308bfb5faaca9f2dc3eb30e405ac6561a",
      "version": 1,
      "size": 135,
      "vsize": 135,
      "weight": 540,
      "locktime": 0,
      "vin": [
        {
          "coinbase": "04ffff001d021d05",
          "sequence": 4294967295
        }
      ],
      "vout": [
        {
          "value": 50.0,
          "n": 0,
          "scriptPubKey": {
            "asm": "04beb42956feb9a04eb731d9c7bc826683f4939ead0651542481d434bebd67e25fe023a3bdcb71c5ffdf1dfff521abb03b5e15ff4f0a94f60a4cb57bfac0a35439 OP_CHECKSIG",
            "desc": "pk(04beb42956feb9a04eb731d9c7bc826683f4939ead0651542481d434bebd67e25fe023a3bdcb71c5ffdf1dfff521abb03b5e15ff4f0a94f60a4cb57bfac0a35439)#e968slgt",
            "hex": "4104beb42956feb9a04eb731d9c7bc826683f4939ead0651542481d434bebd67e25fe023a3bdcb71c5ffdf1dfff521abb03b5e15ff4f0a94f60a4cb57bfac0a35439ac",
            "type": "pubkey"
          }
        }
      ],
      "hex": "01000000010000000000000000000000000000000000000000000000000000000000000000ffffffff0804ffff001d021d05ffffffff0100f2052a01000000434104beb42956feb9a04eb731d9c7bc826683f4939ead0651542481d434bebd67e25fe023a3bdcb71c5ffdf1dfff521abb03b5e15ff4f0a94f60a4cb57bfac0a35439ac00000000"
    }
  ]
}