{
  "hash": "00000000054518f6420800da4f4fa09dc572ddcddbf494ec75aee9b873b216a2",
  "confirmations": 46780,
  "height": 6318,
  "version": 1,
  "versionHex": "00000001",
  "merkleroot": "3df22e49fa77a965df04c9e11dd863a4638c6f1ddee3aac1f4d9e262138bce3b",
  "time": 1236185990,
  "mediantime": 1236181581,
  "nonce": 3380032289,
  "bits": "1d00ffff",
  "difficulty": 1,
  "chainwork": "000000000000000000000000000000000000000000000000000018af18af18af",
  "nTx": 1,
  "previousblockhash": "0000000038ce8e369537e3fab61a0cf7e944b21a967e2b7d276a4a79fbeb1919",
  "nextblockhash": "000000000d6d4a20d139d57985a6717a4583fad5b5b904a6706db831b9c8ec81",
  "strippedsize": 215,
  "size": 215,
  "weight": 860,
  "tx": [
    {
      "txid": "3df22e49fa77a965df04c9e11dd863a4638c6f1ddee3aac1f4d9e262138bce3b",
      "hash": "3df22e49fa77a965df04c9e11dd863a4638c6f1ddee3aac1f4d9e262138bce3b",
      "version": 1,
      "size": 134,
      "vsize": 134,
      "weight": 536,
      "locktime": 0,
      "vin": [
        {
          "coinbase": "04ffff001d0169",
          "sequence": 4294967295
        }
      ],
      "vout": [
        {
          "value": 50.0,
          "n": 0,
          "scriptPubKey": {
            "asm": "0490406771d26015ee2b32378a122eaf769a0da2b431e501843a32320b3375d84f571886b61c3f405dac5eac3b59c0fe4f2f72a11b770988fe04cf54d78cb1641f OP_CHECKSIG",
            "desc": "pk(0490406771d26015ee2b32378a122eaf769a0da2b431e501843a32320b3375d84f571886b61c3f405dac5eac3b59c0fe4f2f72a11b770988fe04cf54d78cb1641f)#ra06vymz",
            "hex": "410490406771d26015ee2b32378a122eaf769a0da2b431e501843a32320b3375d84f571886b61c3f405dac5eac3b59c0fe4f2f72a11b770988fe04cf54d78cb1641fac",
            "type": "pubkey"
          }
        }
      ],
      "hex": "01000000010000000000000000000000000000000000000000000000000000000000000000ffffffff0704ffff001d0169ffffffff0100f2052a0100000043410490406771d26015ee2b32378a122eaf769a0da2b431e501843a32320b3375d84f571886b61c3f405dac5eac3b59c0fe4f2f72a11b770988fe04cf54d78cb1641fac00000000"
    }
  ]
}