{
  "hash": "00000000c2deb1dd86cbc700380541d6d7cebd18a6a7642849bc57919732d705",
  "confirmations": 52550,
  "height": 548,
  "version": 1,
  "versionHex": "00000001",
  "merkleroot": "e9272bef588f2cc5ff34e24219c2cb3a3d765373833c29c65f0d797e7e5e3b5f",
  "time": 1232001087,
  "mediantime": 1231996652,
  "nonce": 4043040533,
  "bits": "1d00ffff",
  "difficulty": 1,
  "chainwork": "0000000000000000000000000000000000000000000000000000022502250225",
  "nTx": 1,
  "previousblockhash": "0000000055af85fb541bac9b94e0da5c06704adafe050186d64caf8330e6eb77",
  "nextblockhash": "000000007583506b911ea93c3dc6ccad6351cc50cbab124e67441194d4a3d30f",
  "strippedsize": 216,
  "size": 216,
  "weight": 864,
  "tx": [
    {
      "txid": "e9272bef588f2cc5ff34e24219c2cb3a3d765373833c29c65f0d797e7e5e3b5f",
      "hash": "e9272bef588f2cc5ff34e24219c2cb3a3d765373833c29c65f0d797e7e5e3b5f",
      "version": 1,
      "size": 135,
      "vsize": 135,
      "weight": 540,
      "locktime": 0,
      "vin": [
        {
          "coinbase": "04ffff001d029905",
          "sequence": 4294967295
        }
      ],
      "vout": [
        {
          "value": 50.0,
          "n": 0,
          "scriptPubKey": {
            "asm": "04814922c2fc2509a11c162e59507dbcfdb2f3008cc587130fecdd940659cbdea8766707b2cea28660d289f119e1c3fc9330e8b2a2a6053584ac85d5101c3df82e OP_CHECKSIG",
            "desc": "pk(04814922c2fc2509a11c162e59507dbcfdb2f3008cc587130fecdd940659cbdea8766707b2cea28660d289f119e1c3fc9330e8b2a2a6053584ac85d5101c3df82e)#k8xhnvem",
            "hex": "4104814922c2fc2509a11c162e59507dbcfdb2f3008cc587130fecdd940659cbdea8766707b2cea28660d289f119e1c3fc9330e8b2a2a6053584ac85d5101c3df82eac",
            "type": "pubkey"
          }
        }
      ],
      "hex": "01000000010000000000000000000000000000000000000000000000000000000000000000ffffffff0804ffff001d029905ffffffff0100f2052a01000000434104814922c2fc2509a11c162e59507dbcfdb2f3008cc587130fecdd940659cbdea8766707b2cea28660d289f119e1c3fc9330e8b2a2a6053584ac85d5101c3df82eac00000000"
    }
  ]
}