{
  "hash": "00000000522cb4cd482ce40f8014cb519990ddb89a47f5cd4b58e9cee1f4c586",
  "confirmations": 44824,
  "height": 8274,
  "version": 1,
  "versionHex": "00000001",
  "merkleroot": "e1b08ce397ae08654237142d2fa99bdef056bdd1176f11dc6b93747b76c394ca",
  "time": 1237715514,
  "mediantime": 1237712466,
  "nonce": 190883557,
  "bits": "1d00ffff",
  "difficulty": 1,
  "chainwork": "0000000000000000000000000000000000000000000000000000205320532053",
  "nTx": 1,
  "previousblockhash": "0000000055de2bdd1f0559d1bf14e732bb1fee341367d096d410d70daf792e55",
  "nextblockhash": "00000000427c706b1dc49235b057115f17cc762726739e7c4777a2b66fc480f1",
  "strippedsize": 216,
  "size": 216,
  "weight": 864,
  "tx": [
    {
      "txid": "e1b08ce397ae08654237142d2fa99bdef056bdd1176f11dc6b93747b76c394ca",
      "hash": "e1b08ce397ae08654237142d2fa99bdef056bdd1176f11dc6b93747b76c394ca",
      "version": 1,
      "size": 135,
      "vsize": 135,
      "weight": 540,
      "locktime": 0,
      "vin": [
        {
          "coinbase": "04ffff001d028000",
          "sequence": 4294967295
        }
      ],
      "vout": [
        {
          "value": 50.0,
          "n": 0,
          "scriptPubKey": {
            "asm": "041b00c0857eb0fceef08cb2a4049452fba84d6b2c46680e039af6b4707beb0544b2dd13cf56b3d0845ce76b89e77e978229bc0ea606e8658485a3246dc8c3d372 OP_CHECKSIG",
            "desc": "pk(041b00c0857eb0fceef08cb2a4049452fba84d6b2c46680e039af6b4707beb0544b2dd13cf56b3d0845ce76b89e77e978229bc0ea606e8658485a3246dc8c3d372)#d0zc6ec2",
            "hex": "41041b00c0857eb0fceef08cb2a4049452fba84d6b2c46680e039af6b4707beb0544b2dd13cf56b3d0845ce76b89e77e978229bc0ea606e8658485a3246dc8c3d372ac",
            "type": "pubkey"
          }
        }
      ],
      "hex": "01000000010000000000000000000000000000000000000000000000000000000000000000ffffffff0804ffff001d028000ffffffff0100f2052a010000004341041b00c0857eb0fceef08cb2a4049452fba84d6b2c46680e039af6b4707beb0544b2dd13cf56b3d0845ce76b89e77e978229bc0ea606e8658485a3246dc8c3d372ac00000000"
    }
  ]
}