{
  "hash": "00000000bb69a1bf1d28a7668eb1d2e3cec786c2ab95c7693af6b05e3db1dc06",
  "confirmations": 47609,
  "height": 5489,
  "version": 1,
  "versionHex": "00000001",
  "merkleroot": "db735de4f0bb432548b6b2a3b46c98a78e24e317f97b8f33acfbeaf8bd770f1e",
  "time": 1235511291,
  "mediantime": 1235506480,
  "nonce": 2386283800,
  "bits": "1d00ffff",
  "difficulty": 1,
  "chainwork": "0000000000000000000000000000000000000000000000000000157215721572",
  "nTx": 1,
  "previousblockhash": "00000000de6548be719b8c1c974b369d018d9595d80b009edf4cdd29fb0e3175",
  "nextblockhash": "0000000097eaae862cc361fc29a60db85d4761187da3365d32afc6ca556bac99",
  "strippedsize": 216,
  "size": 216,
  "weight": 864,
  "tx": [
    {
      "txid": "db735de4f0bb432548b6b2a3b46c98a78e24e317f97b8f33acfbeaf8bd770f1e",
      "hash": "db735de4f0bb432548b6b2a3b46c98a78e24e317f97b8f33acfbeaf8bd770f1e",
      "version": 1,
      "size": 135,
      "vsize": 135,
      "weight": 540,
      "locktime": 0,
      "vin": [
        {
          "coinbase": "04ffff001d025d05",
          "sequence": 4294967295
        }
      ],
      "vout": [
        {
          "value": 50.0,
          "n": 0,
          "scriptPubKey": {
            "asm": "041b025ef7aa23a42b610f95ec26d887d36a2e7bcee913600f3816d8de4339c04b22ee3287f108b04f2c208106af30b39863cafd5f9e63a975880f015bfb37452e OP_CHECKSIG",
            "desc": "pk(041b025ef7aa23a42b610f95ec26d887d36a2e7bcee913600f3816d8de4339c04b22ee3287f108b04f2c208106af30b39863cafd5f9e63a975880f015bfb37452e)#whl3e7f4",
            "hex": "41041b025ef7aa23a42b610f95ec26d887d36a2e7bcee913600f3816d8de4339c04b22ee3287f108b04f2c208106af30b39863cafd5f9e63a975880f015bfb37452eac",
            "type": "pubkey"
          }
        }
      ],
      "hex": "01000000010000000000000000000000000000000000000000000000000000000000000000ffffffff0804ffff001d025d05ffffffff0100f2052a010000004341041b025ef7aa23a42b610f95ec26d887d36a2e7bcee913600f3816d8de4339c04b22ee3287f108b04f2c208106af30b39863cafd5f9e63a975880f015bfb37452eac00000000"
    }
  ]
}