{
  "hash": "00000000425e16548b84b87ec3c813ebc013eae6172b3e89f01fd78e34490b21",
  "confirmations": 47205,
  "height": 5893,
  "version": 1,
  "versionHex": "00000001",
  "merkleroot": "3621bcc99b6b274d098993c2fe68df3a7cfaf087978a4c371b130f7323c319d8",
  "time": 1235837540,
  "mediantime": 1235833976,
  "nonce": 1072804660,
  "bits": "1d00ffff",
  "difficulty": 1,
  "chainwork": "0000000000000000000000000000000000000000000000000000170617061706",
  "nTx": 1,
  "previousblockhash": "00000000cbbb5d05c519f6b66c37dde9aedd45d835f2a95608654a2b7920745b",
  "nextblockhash": "00000000b1599e775c6d83549a0a7148dd49ad4a24b1827b24dff23352a41c7c",
  "strippedsize": 216,
  "size": 216,
  "weight": 864,
  "tx": [
    {
      "txid": "3621bcc99b6b274d098993c2fe68df3a7cfaf087978a4c371b130f7323c319d8",
      "hash": "3621bcc99b6b274d098993c2fe68df3a7cfaf087978a4c371b130f7323c319d8",
      "version": 1,
      "size": 135,
      "vsize": 135,
      "weight": 540,
      "locktime": 0,
      "vin": [
        {
          "coinbase": "04ffff001d02e002",
          "sequence": 4294967295
        }
      ],
      "vout": [
        {
          "value": 50.0,
          "n": 0,
          "scriptPubKey": {
            "asm": "04647aebc66c7125b493d0a28d23baca3b4e92c4ccc2e5989e7c7d9a1f8c1616f11e0949057cd0bffe0c034f73e950e0f7be2c9ca4b07a8a22c2fabebf00b6a5a7 OP_CHECKSIG",
            "desc": "pk(04647aebc66c7125b493d0a28d23baca3b4e92c4ccc2e5989e7c7d9a1f8c1616f11e0949057cd0bffe0c034f73e950e0f7be2c9ca4b07a8a22c2fabebf00b6a5a7)#c252ak3j",
            "hex": "4104647aebc66c7125b493d0a28d23baca3b4e92c4ccc2e5989e7c7d9a1f8c1616f11e0949057cd0bffe0c034f73e950e0f7be2c9ca4b07a8a22c2fabebf00b6a5a7ac",
            "type": "pubkey"
          }
        }
      ],
      "hex": "01000000010000000000000000000000000000000000000000000000000000000000000000ffffffff0804ffff001d02e002ffffffff0100f2052a01000000434104647aebc66c7125b493d0a28d23baca3b4e92c4ccc2e5989e7c7d9a1f8c1616f11e0949057cd0bffe0c034f73e950e0f7be2c9ca4b07a8a22c2fabebf00b6a5a7ac00000000"
    }
  ]
}