{
  "hash": "00000000812963426223eeaf85f9a79511f363a529c822095fa77d3b48cec829",
  "confirmations": 47214,
  "height": 5884,
  "version": 1,
  "versionHex": "00000001",
  "merkleroot": "d6b4f86b1dda38453733288f19a02266f72098b46879a2948d7fc136565e3ade",
  "time": 1235831278,
  "mediantime": 1235827097,
  "nonce": 2765020959,
  "bits": "1d00ffff",
  "difficulty": 1,
  "chainwork": "000000000000000000000000000000000000000000000000000016fd16fd16fd",
  "nTx": 1,
  "previousblockhash": "00000000298d9d16f6d3bbb0eec95e53fda13869a363e70389748c065256031d",
  "nextblockhash": "0000000018920212d4d4dcddb6e24f37d23b35a0078d270227c83051bb350049",
  "strippedsize": 216,
  "size": 216,
  "weight": 864,
  "tx": [
    {
      "txid": "d6b4f86b1dda38453733288f19a02266f72098b46879a2948d7fc136565e3ade",
      "hash": "d6b4f86b1dda38453733288f19a02266f72098b46879a2948d7fc136565e3ade",
      "version": 1,
      "size": 135,
      "vsize": 135,
      "weight": 540,
      "locktime": 0,
      "vin": [
        {
          "coinbase": "04ffff001d02b602",
          "sequence": 4294967295
        }
      ],
      "vout": [
        {
          "value": 50.0,
          "n": 0,
          "scriptPubKey": {
            "asm": "04b37384d8acb0b873f818f312d1af8c6818e948f37dc231fe9b30544e75c631990e4a1914946e10ed632639325a038dc0e999c4304b9599a1c4c967601ac9fa1c OP_CHECKSIG",
            "desc": "pk(04b37384d8acb0b873f818f312d1af8c6818e948f37dc231fe9b30544e75c631990e4a1914946e10ed632639325a038dc0e999c4304b9599a1c4c967601ac9fa1c)#jl3lxz4r",
            "hex": "4104b37384d8acb0b873f818f312d1af8c6818e948f37dc231fe9b30544e75c631990e4a1914946e10ed632639325a038dc0e999c4304b9599a1c4c967601ac9fa1cac",
            "type": "pubkey"
          }
        }
      ],
      "hex": "01000000010000000000000000000000000000000000000000000000000000000000000000ffffffff0804ffff001d02b602ffffffff0100f2052a01000000434104b37384d8acb0b873f818f312d1af8c6818e948f37dc231fe9b30544e75c631990e4a1914946e10ed632639325a038dc0e999c4304b9599a1c4c967601ac9fa1cac00000000"
    }
  ]
}