{
  "hash": "00000000258f83690646aa7fbc01b0a54634871dd8107bc18e602cbf5ce9a2aa",
  "confirmations": 50645,
  "height": 2453,
  "version": 1,
  "versionHex": "00000001",
  "merkleroot": "2e2c00d17f3fc5a07856cff846a34bf3a7b09852d0a7a52ef2dde4bbf608c27a",
  "time": 1233395159,
  "mediantime": 1233391238,
  "nonce": 3060916767,
  "bits": "1d00ffff",
  "difficulty": 1,
  "chainwork": "0000000000000000000000000000000000000000000000000000099609960996",
  "nTx": 1,
  "previousblockhash": "00000000af6ebfe2a16e85d5c9f8a842a79a7e1ee1edf60986b08182cba66fad",
  "nextblockhash": "0000000087e23245441cf605ab7dd6dacebe12660b537a6c5780b316f1b5792f",
  "strippedsize": 216,
  "size": 216,
  "weight": 864,
  "tx": [
    {
      "txid": "2e2c00d17f3fc5a07856cff846a34bf3a7b09852d0a7a52ef2dde4bbf608c27a",
      "hash": "2e2c00d17f3fc5a07856cff846a34bf3a7b09852d0a7a52ef2dde4bbf608c27a",
      "version": 1,
      "size": 135,
      "vsize": 135,
      "weight": 540,
      "locktime": 0,
      "vin": [
        {
          "coinbase": "04ffff001d028e00",
          "sequence": 4294967295
        }
      ],
      "vout": [
        {
          "value": 50.0,
          "n": 0,
          "scriptPubKey": {
            "asm": "0471b2c62ce7574ca8e3d77860f283a5367ccf27a2fd9474fc4b93ad8595e54d5940883b8e93321b85f69f05c721872038ee1646a8bf494c2cb0c897614dbc70bd OP_CHECKSIG",
            "desc": "pk(0471b2c62ce7574ca8e3d77860f283a5367ccf27a2fd9474fc4b93ad8595e54d5940883b8e93321b85f69f05c721872038ee1646a8bf494c2cb0c897614dbc70bd)#3fus77l8",
            "hex": "410471b2c62ce7574ca8e3d77860f283a5367ccf27a2fd9474fc4b93ad8595e54d5940883b8e93321b85f69f05c721872038ee1646a8bf494c2cb0c897614dbc70bdac",
            "type": "pubkey"
          }
        }
      ],
      "hex": "01000000010000000000000000000000000000000000000000000000000000000000000000ffffffff0804ffff001d028e00ffffffff0100f2052a0100000043410471b2c62ce7574ca8e3d77860f283a5367ccf27a2fd9474fc4b93ad8595e54d5940883b8e93321b85f69f05c721872038ee1646a8bf494c2cb0c897614dbc70bdac00000000"
    }
  ]
}