{
  "hash": "0000000072afb780e8c3807f2496d55a6073e2fa9c293500dc21ba4281ab856d",
  "confirmations": 47787,
  "height": 5311,
  "version": 1,
  "versionHex": "00000001",
  "merkleroot": "8bc78e41fb203069cb07de190348655c8f2b169ab383afa4050fce2cfbb322c1",
  "time": 1235372829,
  "mediantime": 1235367588,
  "nonce": 220557611,
  "bits": "1d00ffff",
  "difficulty": 1,
  "chainwork": "000000000000000000000000000000000000000000000000000014c014c014c0",
  "nTx": 1,
  "previousblockhash": "000000005c4267c6f05b27a1925e9e5cd09a9e4568510c4b10976dbdf815643c",
  "nextblockhash": "00000000601a82b45f51455744837ea97833706b072ee40929e78f489c6cd00e",
  "strippedsize": 216,
  "size": 216,
  "weight": 864,
  "tx": [
    {
      "txid": "8bc78e41fb203069cb07de190348655c8f2b169ab383afa4050fce2cfbb322c1",
      "hash": "8bc78e41fb203069cb07de190348655c8f2b169ab383afa4050fce2cfbb322c1",
      "version": 1,
      "size": 135,
      "vsize": 135,
      "weight": 540,
      "locktime": 0,
      "vin": [
        {
          "coinbase": "04ffff001d028206",
          "sequence": 4294967295
        }
      ],
      "vout": [
        {
          "value": 50.0,
          "n": 0,
          "scriptPubKey": {
            "asm": "043fb6f3859a73b2eb38a16ee9f29316a0f001ca7e3380f2acfe6b6ae2d723f898533ab39bc1e1d537faef942c5fb8cb326255b526603ffb339181e89157e611be OP_CHECKSIG",
            "desc": "pk(043fb6f3859a73b2eb38a16ee9f29316a0f001ca7e3380f2acfe6b6ae2d723f898533ab39bc1e1d537faef942c5fb8cb326255b526603ffb339181e89157e611be)#wz78mxyz",
            "hex": "41043fb6f3859a73b2eb38a16ee9f29316a0f001ca7e3380f2acfe6b6ae2d723f898533ab39bc1e1d537faef942c5fb8cb326255b526603ffb339181e89157e611beac",
            "type": "pubkey"
          }
        }
      ],
      "hex": "01000000010000000000000000000000000000000000000000000000000000000000000000ffffffff0804ffff001d028206ffffffff0100f2052a010000004341043fb6f3859a73b2eb38a16ee9f29316a0f001ca7e3380f2acfe6b6ae2d723f898533ab39bc1e1d537faef942c5fb8cb326255b526603ffb339181e89157e611beac00000000"
    }
  ]
}