{
  "hash": "00000000d3fd563fa90b2564190cb1b1babad4348ca6cac6ef7fb05045aebd0d",
  "confirmations": 43132,
  "height": 9966,
  "version": 1,
  "versionHex": "00000001",
  "merkleroot": "59782de2911100a44db93bfd351aee687547827803ba1d5a17fc0d86a78e3db6",
  "time": 1238967734,
  "mediantime": 1238963276,
  "nonce": 47026580,
  "bits": "1d00ffff",
  "difficulty": 1,
  "chainwork": "000000000000000000000000000000000000000000000000000026ef26ef26ef",
  "nTx": 1,
  "previousblockhash": "0000000010ba65d0044209335b49136db602c977f675444752d29cb0e05cac1d",
  "nextblockhash": "0000000004bd76435430c3ec3f313a7935c48782c7313c3519488ef6a348acab",
  "strippedsize": 216,
  "size": 216,
  "weight": 864,
  "tx": [
    {
      "txid": "59782de2911100a44db93bfd351aee687547827803ba1d5a17fc0d86a78e3db6",
      "hash": "59782de2911100a44db93bfd351aee687547827803ba1d5a17fc0d86a78e3db6",
      "version": 1,
      "size": 135,
      "vsize": 135,
      "weight": 540,
      "locktime": 0,
      "vin": [
        {
          "coinbase": "04ffff001d02d80b",
          "sequence": 4294967295
        }
      ],
      "vout": [
        {
          "value": 50.0,
          "n": 0,
          "scriptPubKey": {
            "asm": "04c66504e879ab4b134d4e26101ba73b21541eafcdb12518d5ef6f84df5d2ae37f01dd58cb1b96ee307b5dee086183dee4c720f17961d53a5530c2adf5747efd33 OP_CHECKSIG",
            "desc": "pk(04c66504e879ab4b134d4e26101ba73b21541eafcdb12518d5ef6f84df5d2ae37f01dd58cb1b96ee307b5dee086183dee4c720f17961d53a5530c2adf5747efd33)#rce36ega",
            "hex": "4104c66504e879ab4b134d4e26101ba73b21541eafcdb12518d5ef6f84df5d2ae37f01dd58cb1b96ee307b5dee086183dee4c720f17961d53a5530c2adf5747efd33ac",
            "type": "pubkey"
          }
        }
      ],
      "hex": "01000000010000000000000000000000000000000000000000000000000000000000000000ffffffff0804ffff001d02d80bffffffff0100f2052a01000000434104c66504e879ab4b134d4e26101ba73b21541eafcdb12518d5ef6f84df5d2ae37f01dd58cb1b96ee307b5dee086183dee4c720f17961d53a5530c2adf5747efd33ac00000000"
    }
  ]
}