{
  "hash": "00000000d5ab597214e9a7d2f83e0a21696d5ebf4910c2d7d283794d68129aac",
  "confirmations": 52336,
  "height": 762,
  "version": 1,
  "versionHex": "00000001",
  "merkleroot": "dc8bb7e1af0ba2895699b6716d15c5429f3a717c2de8193e3a957ba0aee56acb",
  "time": 1232160698,
  "mediantime": 1232156739,
  "nonce": 1251239724,
  "bits": "1d00ffff",
  "difficulty": 1,
  "chainwork": "000000000000000000000000000000000000000000000000000002fb02fb02fb",
  "nTx": 1,
  "previousblockhash": "00000000ad622ab6c0e4c9860075f52949a10f023179e6280bbbf999848f6564",
  "nextblockhash": "0000000097e8325b37343ea6e7004b8b088602a68065cd7ada89aef6da0a3abe",
  "strippedsize": 216,
  "size": 216,
  "weight": 864,
  "tx": [
    {
      "txid": "dc8bb7e1af0ba2895699b6716d15c5429f3a717c2de8193e3a957ba0aee56acb",
      "hash": "dc8bb7e1af0ba2895699b6716d15c5429f3a717c2de8193e3a957ba0aee56acb",
      "version": 1,
      "size": 135,
      "vsize": 135,
      "weight": 540,
      "locktime": 0,
      "vin": [
        {
          "coinbase": "04ffff001d02c600",
          "sequence": 4294967295
        }
      ],
      "vout": [
        {
          "value": 50.0,
          "n": 0,
          "scriptPubKey": {
            "asm": "04d206198a8dbd2fffb1764de826973b3c05c39bca747517ca1eedfed4ac1c5670731f49465f71af362f83017a30cc69330369a3e77bd1f8eee2b3123e505026f2 OP_CHECKSIG",
            "desc": "pk(04d206198a8dbd2fffb1764de826973b3c05c39bca747517ca1eedfed4ac1c5670731f49465f71af362f83017a30cc69330369a3e77bd1f8eee2b3123e505026f2)#f04crvj3",
            "hex": "4104d206198a8dbd2fffb1764de826973b3c05c39bca747517ca1eedfed4ac1c5670731f49465f71af362f83017a30cc69330369a3e77bd1f8eee2b3123e505026f2ac",
            "type": "pubkey"
          }
        }
      ],
      "hex": "01000000010000000000000000000000000000000000000000000000000000000000000000ffffffff0804ffff001d02c600ffffffff0100f2052a01000000434104d206198a8dbd2fffb1764de826973b3c05c39bca747517ca1eedfed4ac1c5670731f49465f71af362f83017a30cc69330369a3e77bd1f8eee2b3123e505026f2ac00000000"
    }
  ]
}