{
  "hash": "000000004f27086ab1e6a6f04c4268a4658545cf2b9976d022fbd88514443f4e",
  "confirmations": 46734,
  "height": 6364,
  "version": 1,
  "versionHex": "00000001",
  "merkleroot": "9009f666222465e2a6fdd1241e8893882032c137cef31a25886b688ca2983f0b",
  "time": 1236229140,
  "mediantime": 1236226227,
  "nonce": 4196601604,
  "bits": "1d00ffff",
  "difficulty": 1,
  "chainwork": "000000000000000000000000000000000000000000000000000018dd18dd18dd",
  "nTx": 1,
  "previousblockhash": "00000000c4ab6fb1e089574673cda7ef0c322ef9b2f17ebca593215b55074bc7",
  "nextblockhash": "000000002ece5ab68892dbfd32c3750ed5f36d53226e0c1aaac454a6e07c783e",
  "strippedsize": 216,
  "size": 216,
  "weight": 864,
  "tx": [
    {
      "txid": "9009f666222465e2a6fdd1241e8893882032c137cef31a25886b688ca2983f0b",
      "hash": "9009f666222465e2a6fdd1241e8893882032c137cef31a25886b688ca2983f0b",
      "version": 1,
      "size": 135,
      "vsize": 135,
      "weight": 540,
      "locktime": 0,
      "vin": [
        {
          "coinbase": "04ffff001d022001",
          "sequence": 4294967295
        }
      ],
      "vout": [
        {
          "value": 50.0,
          "n": 0,
          "scriptPubKey": {
            "asm": "049fc79334bc63dc5f3d50476c0a7317a94f511d8c38186bd83ef4286dc32141dfa3dd378cdf426a8ec342bc928c24bb584dc2ce163a1294556ccb2d422c78f706 OP_CHECKSIG",
            "desc": "pk(049fc79334bc63dc5f3d50476c0a7317a94f511d8c38186bd83ef4286dc32141dfa3dd378cdf426a8ec342bc928c24bb584dc2ce163a1294556ccb2d422c78f706)#yf8rktz5",
            "hex": "41049fc79334bc63dc5f3d50476c0a7317a94f511d8c38186bd83ef4286dc32141dfa3dd378cdf426a8ec342bc928c24bb584dc2ce163a1294556ccb2d422c78f706ac",
            "type": "pubkey"
          }
        }
      ],
      "hex": "01000000010000000000000000000000000000000000000000000000000000000000000000ffffffff0804ffff001d022001ffffffff0100f2052a010000004341049fc79334bc63dc5f3d50476c0a7317a94f511d8c38186bd83ef4286dc32141dfa3dd378cdf426a8ec342bc928c24bb584dc2ce163a1294556ccb2d422c78f706ac00000000"
    }
  ]
}