{
  "hash": "0000000029a25588618ee55531cedba277f2492ae7b03dea245e4da86d6819c5",
  "confirmations": 45114,
  "height": 7984,
  "version": 1,
  "versionHex": "00000001",
  "merkleroot": "9107a25a6e4fa012d22c2faf12e4ef12761860399178948e8737eac2f2315f27",
  "time": 1237450610,
  "mediantime": 1237447027,
  "nonce": 1520712230,
  "bits": "1d00ffff",
  "difficulty": 1,
  "chainwork": "00000000000000000000000000000000000000000000000000001f311f311f31",
  "nTx": 1,
  "previousblockhash": "00000000aa7c08193a4ecb41c36ad864668d11d4e8e12bb6e6105cee8106a66c",
  "nextblockhash": "000000006720156f198eb201126c4647d59513bf77b49d069afe3c2964ecddf4",
  "strippedsize": 216,
  "size": 216,
  "weight": 864,
  "tx": [
    {
      "txid": "9107a25a6e4fa012d22c2faf12e4ef12761860399178948e8737eac2f2315f27",
      "hash": "9107a25a6e4fa012d22c2faf12e4ef12761860399178948e8737eac2f2315f27",
      "version": 1,
      "size": 135,
      "vsize": 135,
      "weight": 540,
      "locktime": 0,
      "vin": [
        {
          "coinbase": "04ffff001d022509",
          "sequence": 4294967295
        }
      ],
      "vout": [
        {
          "value": 50.0,
          "n": 0,
          "scriptPubKey": {
            "asm": "04881250fefd1ac21c2a60b261b514a46d79c1ec80bc15d1f7e8951be28d733f09f45c40319eb97c3f93b06433a4bd3ec4ea58966b4ce4595e3aa9e7742c5f56e9 OP_CHECKSIG",
            "desc": "pk(04881250fefd1ac21c2a60b261b514a46d79c1ec80bc15d1f7e8951be28d733f09f45c40319eb97c3f93b06433a4bd3ec4ea58966b4ce4595e3aa9e7742c5f56e9)#4fn6an22",
            "hex": "4104881250fefd1ac21c2a60b261b514a46d79c1ec80bc15d1f7e8951be28d733f09f45c40319eb97c3f93b06433a4bd3ec4ea58966b4ce4595e3aa9e7742c5f56e9ac",
            "type": "pubkey"
          }
        }
      ],
      "hex": "01000000010000000000000000000000000000000000000000000000000000000000000000ffffffff0804ffff001d022509ffffffff0100f2052a01000000434104881250fefd1ac21c2a60b261b514a46d79c1ec80bc15d1f7e8951be28d733f09f45c40319eb97c3f93b06433a4bd3ec4ea58966b4ce4595e3aa9e7742c5f56e9ac00000000"
    }
  ]
}