{
  "hash": "000000004ba52092e9b6386979dee087cdb8101d3e63878f2f79b399c616812a",
  "confirmations": 43434,
  "height": 9664,
  "version": 1,
  "versionHex": "00000001",
  "merkleroot": "1221244969637697548bab6996d4be574598118a8da16fc301ac9244b96d921e",
  "time": 1238750568,
  "mediantime": 1238746054,
  "nonce": 3870331962,
  "bits": "1d00ffff",
  "difficulty": 1,
  "chainwork": "000000000000000000000000000000000000000000000000000025c125c125c1",
  "nTx": 1,
  "previousblockhash": "000000004acb0af9697e2415638fab4825be8f4ec40452c4ea50450aef863c32",
  "nextblockhash": "000000000069d1e345d08377d2b7ac27b9cfb87176e5ba2f106bec1c38474e1b",
  "strippedsize": 216,
  "size": 216,
  "weight": 864,
  "tx": [
    {
      "txid": "1221244969637697548bab6996d4be574598118a8da16fc301ac9244b96d921e",
      "hash": "1221244969637697548bab6996d4be574598118a8da16fc301ac9244b96d921e",
      "version": 1,
      "size": 135,
      "vsize": 135,
      "weight": 540,
      "locktime": 0,
      "vin": [
        {
          "coinbase": "04ffff001d02d507",
          "sequence": 4294967295
        }
      ],
      "vout": [
        {
          "value": 50.0,
          "n": 0,
          "scriptPubKey": {
            "asm": "040c2ae460ec59bdc8166591590d5d09a2ba17917cf4e952b001b6b603ab358d833af9872b5c343ff8df9088114557bd5be3d51ec0dee3817ce8001386253de6a7 OP_CHECKSIG",
            "desc": "pk(040c2ae460ec59bdc8166591590d5d09a2ba17917cf4e952b001b6b603ab358d833af9872b5c343ff8df9088114557bd5be3d51ec0dee3817ce8001386253de6a7)#nqu4vdcv",
            "hex": "41040c2ae460ec59bdc8166591590d5d09a2ba17917cf4e952b001b6b603ab358d833af9872b5c343ff8df9088114557bd5be3d51ec0dee3817ce8001386253de6a7ac",
            "type": "pubkey"
          }
        }
      ],
      "hex": "01000000010000000000000000000000000000000000000000000000000000000000000000ffffffff0804ffff001d02d507ffffffff0100f2052a010000004341040c2ae460ec59bdc8166591590d5d09a2ba17917cf4e952b001b6b603ab358d833af9872b5c343ff8df9088114557bd5be3d51ec0dee3817ce8001386253de6a7ac00000000"
    }
  ]
}