{
  "hash": "000000002bb5d3945f2cf8ca3c29e12678c4f47f182ddd835a2fb3ae4cbf1058",
  "confirmations": 45340,
  "height": 7758,
  "version": 1,
  "versionHex": "00000001",
  "merkleroot": "d3e7fa48b02d2a87dc694d523025175c8a79a3c303cf7163e821a96c0f00854d",
  "time": 1237281188,
  "mediantime": 1237278516,
  "nonce": 3698757425,
  "bits": "1d00ffff",
  "difficulty": 1,
  "chainwork": "00000000000000000000000000000000000000000000000000001e4f1e4f1e4f",
  "nTx": 1,
  "previousblockhash": "00000000a2aa21b11a81d1b7ba915ae6475b22d81240953cd5ee0934ba5f6f60",
  "nextblockhash": "0000000098946a0ed4f9a3339236301250973d3a63680c0d9d414101fae6c037",
  "strippedsize": 216,
  "size": 216,
  "weight": 864,
  "tx": [
    {
      "txid": "d3e7fa48b02d2a87dc694d523025175c8a79a3c303cf7163e821a96c0f00854d",
      "hash": "d3e7fa48b02d2a87dc694d523025175c8a79a3c303cf7163e821a96c0f00854d",
      "version": 1,
      "size": 135,
      "vsize": 135,
      "weight": 540,
      "locktime": 0,
      "vin": [
        {
          "coinbase": "04ffff001d022305",
          "sequence": 4294967295
        }
      ],
      "vout": [
        {
          "value": 50.0,
          "n": 0,
          "scriptPubKey": {
            "asm": "0402d4e0e57d4f4206a25a582888a6c839a9a046b5c94fa67fcaa425a6631c1797cb5f94ec218246a85dfbaba1093d7da745ddedd22d722b828fda238daf3fdc28 OP_CHECKSIG",
            "desc": "pk(0402d4e0e57d4f4206a25a582888a6c839a9a046b5c94fa67fcaa425a6631c1797cb5f94ec218246a85dfbaba1093d7da745ddedd22d722b828fda238daf3fdc28)#3jxc840k",
            "hex": "410402d4e0e57d4f4206a25a582888a6c839a9a046b5c94fa67fcaa425a6631c1797cb5f94ec218246a85dfbaba1093d7da745ddedd22d722b828fda238daf3fdc28ac",
            "type": "pubkey"
          }
        }
      ],
      "hex": "01000000010000000000000000000000000000000000000000000000000000000000000000ffffffff0804ffff001d022305ffffffff0100f2052a0100000043410402d4e0e57d4f4206a25a582888a6c839a9a046b5c94fa67fcaa425a6631c1797cb5f94ec218246a85dfbaba1093d7da745ddedd22d722b828fda238daf3fdc28ac00000000"
    }
  ]
}