{
  "hash": "000000003762accfac345c2d5a99bd95010015eeab1376dafd5910bd9fe0bde3",
  "confirmations": 47558,
  "height": 5540,
  "version": 1,
  "versionHex": "00000001",
  "merkleroot": "f741b7c2f1526b5b734ce677c45f650317569d544ac5099bb5ad80cd9aed4f54",
  "time": 1235553643,
  "mediantime": 1235548599,
  "nonce": 3235704362,
  "bits": "1d00ffff",
  "difficulty": 1,
  "chainwork": "000000000000000000000000000000000000000000000000000015a515a515a5",
  "nTx": 1,
  "previousblockhash": "000000009bfa84517289deee15509534073aec4d2f44f7be0e58fae9fa9165d8",
  "nextblockhash": "000000009c927b3df26058a468ed1bdb924af1beeb6c5b673889b6d7ab816088",
  "strippedsize": 216,
  "size": 216,
  "weight": 864,
  "tx": [
    {
      "txid": "f741b7c2f1526b5b734ce677c45f650317569d544ac5099bb5ad80cd9aed4f54",
      "hash": "f741b7c2f1526b5b734ce677c45f650317569d544ac5099bb5ad80cd9aed4f54",
      "version": 1,
      "size": 135,
      "vsize": 135,
      "weight": 540,
      "locktime": 0,
      "vin": [
        {
          "coinbase": "04ffff001d026506",
          "sequence": 4294967295
        }
      ],
      "vout": [
        {
          "value": 50.0,
          "n": 0,
          "scriptPubKey": {
            "asm": "042d062da8da078885ad3f60616cd119702ce240bd58841f36040c1cd315ad2c60210b6afa369c4bc5e8acc75d3e85fd203d8f4c30ea921e6dd4347addbeae3045 OP_CHECKSIG",
            "desc": "pk(042d062da8da078885ad3f60616cd119702ce240bd58841f36040c1cd315ad2c60210b6afa369c4bc5e8acc75d3e85fd203d8f4c30ea921e6dd4347addbeae3045)#gw3sfc4w",
            "hex": "41042d062da8da078885ad3f60616cd119702ce240bd58841f36040c1cd315ad2c60210b6afa369c4bc5e8acc75d3e85fd203d8f4c30ea921e6dd4347addbeae3045ac",
            "type": "pubkey"
          }
        }
      ],
      "hex": "01000000010000000000000000000000000000000000000000000000000000000000000000ffffffff0804ffff001d026506ffffffff0100f2052a010000004341042d062da8da078885ad3f60616cd119702ce240bd58841f36040c1cd315ad2c60210b6afa369c4bc5e8acc75d3e85fd203d8f4c30ea921e6dd4347addbeae3045ac00000000"
    }
  ]
}