{
  "hash": "000000008e4370ebb94877d023f6304a8080f3dcd13e8d04999f5d8101b7c30b",
  "confirmations": 50639,
  "height": 2459,
  "version": 1,
  "versionHex": "00000001",
  "merkleroot": "53b4225429b987d2cb636653aa234a1630cb934c2069c76b8b6b77628df98798",
  "time": 1233398636,
  "mediantime": 1233395636,
  "nonce": 1950058779,
  "bits": "1d00ffff",
  "difficulty": 1,
  "chainwork": "0000000000000000000000000000000000000000000000000000099c099c099c",
  "nTx": 1,
  "previousblockhash": "00000000c9c22e90d7a211af907d88630c48381fb7985a83d1cc1bf723f78205",
  "nextblockhash": "0000000067095df2a66d4e3dab6633ba3dbe3073e01b473ae3684bb117b34e54",
  "strippedsize": 216,
  "size": 216,
  "weight": 864,
  "tx": [
    {
      "txid": "53b4225429b987d2cb636653aa234a1630cb934c2069c76b8b6b77628df98798",
      "hash": "53b4225429b987d2cb636653aa234a1630cb934c2069c76b8b6b77628df98798",
      "version": 1,
      "size": 135,
      "vsize": 135,
      "weight": 540,
      "locktime": 0,
      "vin": [
        {
          "coinbase": "04ffff001d02a000",
          "sequence": 4294967295
        }
      ],
      "vout": [
        {
          "value": 50.0,
          "n": 0,
          "scriptPubKey": {
            "asm": "04c94e9201bc666a688e7dbdc4e5b32728012782b9a0d6b6051290caf69386600b9fe136f6ac3051b516a924e439d3e9985db08900d27fc65c55a84d1837f31fad OP_CHECKSIG",
            "desc": "pk(04c94e9201bc666a688e7dbdc4e5b32728012782b9a0d6b6051290caf69386600b9fe136f6ac3051b516a924e439d3e9985db08900d27fc65c55a84d1837f31fad)#pxmxe7k3",
            "hex": "4104c94e9201bc666a688e7dbdc4e5b32728012782b9a0d6b6051290caf69386600b9fe136f6ac3051b516a924e439d3e9985db08900d27fc65c55a84d1837f31fadac",
            "type": "pubkey"
          }
        }
      ],
      "hex": "01000000010000000000000000000000000000000000000000000000000000000000000000ffffffff0804ffff001d02a000ffffffff0100f2052a01000000434104c94e9201bc666a688e7dbdc4e5b32728012782b9a0d6b6051290caf69386600b9fe136f6ac3051b516a924e439d3e9985db08900d27fc65c55a84d1837f31fadac00000000"
    }
  ]
}