{
  "hash": "00000000166b50796c0b5ab088976e3dc8c5ac45403c287f97a8fb77d4bd125d",
  "confirmations": 48188,
  "height": 4910,
  "version": 1,
  "versionHex": "00000001",
  "merkleroot": "4e135d568b5b194620b0a27e1d7f7a18bcc3a4a4227256cca517f263903f60ca",
  "time": 1235077785,
  "mediantime": 1235073691,
  "nonce": 3396448816,
  "bits": "1d00ffff",
  "difficulty": 1,
  "chainwork": "0000000000000000000000000000000000000000000000000000132f132f132f",
  "nTx": 1,
  "previousblockhash": "000000009c230fa37b01db4ddd33cff8d4c27be5848e24be88b4bb89341ba164",
  "nextblockhash": "00000000a5a942cd3d90de837d81c64b996c8d28e985933a3ff324c2269436c1",
  "strippedsize": 216,
  "size": 216,
  "weight": 864,
  "tx": [
    {
      "txid": "4e135d568b5b194620b0a27e1d7f7a18bcc3a4a4227256cca517f263903f60ca",
      "hash": "4e135d568b5b194620b0a27e1d7f7a18bcc3a4a4227256cca517f263903f60ca",
      "version": 1,
      "size": 135,
      "vsize": 135,
      "weight": 540,
      "locktime": 0,
      "vin": [
        {
          "coinbase": "04ffff001d02c105",
          "sequence": 4294967295
        }
      ],
      "vout": [
        {
          "value": 50.0,
          "n": 0,
          "scriptPubKey": {
            "asm": "0414ef6a4e7dca48a5c4580615fcadef9b7f82120af1191aeecb863591bae9959c556e97b1e1634e4c275483c1d07ee9d5442cb0d128d8366c42df564c82942b6f OP_CHECKSIG",
            "desc": "pk(0414ef6a4e7dca48a5c4580615fcadef9b7f82120af1191aeecb863591bae9959c556e97b1e1634e4c275483c1d07ee9d5442cb0d128d8366c42df564c82942b6f)#wwmy4l2g",
            "hex": "410414ef6a4e7dca48a5c4580615fcadef9b7f82120af1191aeecb863591bae9959c556e97b1e1634e4c275483c1d07ee9d5442cb0d128d8366c42df564c82942b6fac",
            "type": "pubkey"
          }
        }
      ],
      "hex": "01000000010000000000000000000000000000000000000000000000000000000000000000ffffffff0804ffff001d02c105ffffffff0100f2052a0100000043410414ef6a4e7dca48a5c4580615fcadef9b7f82120af1191aeecb863591bae9959c556e97b1e1634e4c275483c1d07ee9d5442cb0d128d8366c42df564c82942b6fac00000000"
    }
  ]
}