{
  "hash": "00000000796bb0f3d5bed9f22a473ea57366647ed904a0f212c29d21e29b49b1",
  "confirmations": 43602,
  "height": 9496,
  "version": 1,
  "versionHex": "00000001",
  "merkleroot": "418e244a9954af9230655436a38a9154fc90b0c6acbe76dab5a5c14ff95a7951",
  "time": 1238625668,
  "mediantime": 1238623030,
  "nonce": 147828634,
  "bits": "1d00ffff",
  "difficulty": 1,
  "chainwork": "0000000000000000000000000000000000000000000000000000251925192519",
  "nTx": 1,
  "previousblockhash": "000000001b2e09818f9532fd3cc10ab377057d49ad36fd41c3e8534476c08f60",
  "nextblockhash": "00000000369c1224472d510f1f62c6a65fa4927b957b84b60b82a8a22296cb01",
  "strippedsize": 216,
  "size": 216,
  "weight": 864,
  "tx": [
    {
      "txid": "418e244a9954af9230655436a38a9154fc90b0c6acbe76dab5a5c14ff95a7951",
      "hash": "418e244a9954af9230655436a38a9154fc90b0c6acbe76dab5a5c14ff95a7951",
      "version": 1,
      "size": 135,
      "vsize": 135,
      "weight": 540,
      "locktime": 0,
      "vin": [
        {
          "coinbase": "04ffff001d02d00f",
          "sequence": 4294967295
        }
      ],
      "vout": [
        {
          "value": 50.0,
          "n": 0,
          "scriptPubKey": {
            "asm": "04c615e264aec5b06372df81a4202eb147d24384eea3ebef1ad71deab0e35902200875f9fdf879fc84573d0acc96f42c7538f35273cb74a9f654193f6fb0cd35ea OP_CHECKSIG",
            "desc": "pk(04c615e264aec5b06372df81a4202eb147d24384eea3ebef1ad71deab0e35902200875f9fdf879fc84573d0acc96f42c7538f35273cb74a9f654193f6fb0cd35ea)#h3j44cwu",
            "hex": "4104c615e264aec5b06372df81a4202eb147d24384eea3ebef1ad71deab0e35902200875f9fdf879fc84573d0acc96f42c7538f35273cb74a9f654193f6fb0cd35eaac",
            "type": "pubkey"
          }
        }
      ],
      "hex": "01000000010000000000000000000000000000000000000000000000000000000000000000ffffffff0804ffff001d02d00fffffffff0100f2052a01000000434104c615e264aec5b06372df81a4202eb147d24384eea3ebef1ad71deab0e35902200875f9fdf879fc84573d0acc96f42c7538f35273cb74a9f654193f6fb0cd35eaac00000000"
    }
  ]
}