{
  "hash": "000000008cc122c5d35497371c6a0ac9b1659781848445be29bd9e2d1cf00d14",
  "confirmations": 51996,
  "height": 344,
  "version": 1,
  "versionHex": "00000001",
  "merkleroot": "ba3a782948227ab5343027f94df1432d6571268912e208b843c783d9726c7b82",
  "time": 1231861522,
  "mediantime": 1231857859,
  "nonce": 1945130241,
  "bits": "1d00ffff",
  "difficulty": 1,
  "chainwork": "0000000000000000000000000000000000000000000000000000015901590159",
  "nTx": 1,
  "previousblockhash": "00000000da99d2a1a9a5b005143254481a8a37c28ef845e9cbe07e8bd3727c6e",
  "nextblockhash": "00000000c378c233cf6341ca6f4e7ebfe9fd1324fbbc0e21e0165393e0e83e37",
  "strippedsize": 216,
  "size": 216,
  "weight": 864,
  "tx": [
    {
      "txid": "ba3a782948227ab5343027f94df1432d6571268912e208b843c783d9726c7b82",
      "hash": "ba3a782948227ab5343027f94df1432d6571268912e208b843c783d9726c7b82",
      "version": 1,
      "size": 135,
      "vsize": 135,
      "weight": 540,
      "locktime": 0,
      "vin": [
        {
          "coinbase": "04ffff001d026201",
          "sequence": 4294967295
        }
      ],
      "vout": [
        {
          "value": 50.0,
          "n": 0,
          "scriptPubKey": {
            "asm": "04de7f5057d2862e9acbbbb5bdda5ac10085184efb6e68c2009f7b27b2b33eb49569c6eb361c175c24c2b02037eb85a3ec5daed8fc639a11b56793bb9bcff008ca OP_CHECKSIG",
            "desc": "pk(04de7f5057d2862e9acbbbb5bdda5ac10085184efb6e68c2009f7b27b2b33eb49569c6eb361c175c24c2b02037eb85a3ec5daed8fc639a11b56793bb9bcff008ca)#rsp80qxx",
            "hex": "4104de7f5057d2862e9acbbbb5bdda5ac10085184efb6e68c2009f7b27b2b33eb49569c6eb361c175c24c2b02037eb85a3ec5daed8fc639a11b56793bb9bcff008caac",
            "type": "pubkey"
          }
        }
      ],
      "hex": "01000000010000000000000000000000000000000000000000000000000000000000000000ffffffff0804ffff001d026201ffffffff0100f2052a01000000434104de7f5057d2862e9acbbbb5bdda5ac10085184efb6e68c2009f7b27b2b33eb49569c6eb361c175c24c2b02037eb85a3ec5daed8fc639a11b56793bb9bcff008caac00000000"
    }
  ]
}