{
  "hash": "000000006b6870283ee477fc3e514b22767bc3b39dd6edb683fb67d921feb861",
  "confirmations": 47242,
  "height": 5856,
  "version": 1,
  "versionHex": "00000001",
  "merkleroot": "f06d705a73519d67cdb19319d1e60412bc0b2a885af60c75b1399c76e4e16416",
  "time": 1235806975,
  "mediantime": 1235802601,
  "nonce": 2025741097,
  "bits": "1d00ffff",
  "difficulty": 1,
  "chainwork": "000000000000000000000000000000000000000000000000000016e116e116e1",
  "nTx": 1,
  "previousblockhash": "00000000ceb4102b03d4965ec0820c9867380fdc4df1caa00839fec7b103e774",
  "nextblockhash": "000000003bcb083b87ad79fe333e3aa90e29c3ac417d26ac99324ffdba260a90",
  "strippedsize": 216,
  "size": 216,
  "weight": 864,
  "tx": [
    {
      "txid": "f06d705a73519d67cdb19319d1e60412bc0b2a885af60c75b1399c76e4e16416",
      "hash": "f06d705a73519d67cdb19319d1e60412bc0b2a885af60c75b1399c76e4e16416",
      "version": 1,
      "size": 135,
      "vsize": 135,
      "weight": 540,
      "locktime": 0,
      "vin": [
        {
          "coinbase": "04ffff001d020602",
          "sequence": 4294967295
        }
      ],
      "vout": [
        {
          "value": 50.0,
          "n": 0,
          "scriptPubKey": {
            "asm": "0449ba7387ed2cc166d1e76ecda29eea0618a845393c58b0a60c61958d9430dd759b640ca6603e53c9b080f35ba07ee4af86068abd143ed0f17c1edd4a266a1eef OP_CHECKSIG",
            "desc": "pk(0449ba7387ed2cc166d1e76ecda29eea0618a845393c58b0a60c61958d9430dd759b640ca6603e53c9b080f35ba07ee4af86068abd143ed0f17c1edd4a266a1eef)#xtc9xyk8",
            "hex": "410449ba7387ed2cc166d1e76ecda29eea0618a845393c58b0a60c61958d9430dd759b640ca6603e53c9b080f35ba07ee4af86068abd143ed0f17c1edd4a266a1eefac",
            "type": "pubkey"
          }
        }
      ],
      "hex": "01000000010000000000000000000000000000000000000000000000000000000000000000ffffffff0804ffff001d020602ffffffff0100f2052a0100000043410449ba7387ed2cc166d1e76ecda29eea0618a845393c58b0a60c61958d9430dd759b640ca6603e53c9b080f35ba07ee4af86068abd143ed0f17c1edd4a266a1eefac00000000"
    }
  ]
}