{
  "hash": "000000000357e2b033c9e9bac5ea4fcafed732f89da87ad837738ad61f6a5c38",
  "confirmations": 45315,
  "height": 7783,
  "version": 1,
  "versionHex": "00000001",
  "merkleroot": "1b4f742677d82acdae5c478ccdc5e56e7577b3254b3fd0ebae065a0bfeca0593",
  "time": 1237300745,
  "mediantime": 1237297051,
  "nonce": 999999283,
  "bits": "1d00ffff",
  "difficulty": 1,
  "chainwork": "00000000000000000000000000000000000000000000000000001e681e681e68",
  "nTx": 1,
  "previousblockhash": "000000002b2f5f9fad5dd5242e028305482b2afef1ab84f113e5f2e53717dc32",
  "nextblockhash": "00000000c1baf11356d8cd4e582a549e28120aaa05fcdc4046ad2240e14b5040",
  "strippedsize": 216,
  "size": 216,
  "weight": 864,
  "tx": [
    {
      "txid": "1b4f742677d82acdae5c478ccdc5e56e7577b3254b3fd0ebae065a0bfeca0593",
      "hash": "1b4f742677d82acdae5c478ccdc5e56e7577b3254b3fd0ebae065a0bfeca0593",
      "version": 1,
      "size": 135,
      "vsize": 135,
      "weight": 540,
      "locktime": 0,
      "vin": [
        {
          "coinbase": "04ffff001d028e05",
          "sequence": 4294967295
        }
      ],
      "vout": [
        {
          "value": 50.0,
          "n": 0,
          "scriptPubKey": {
            "asm": "04728500ec66c635e96e774f766deedb3cc55dd96355f8ef80857b53d555361246e065c212365e15fb481cd5d45cbf4c4c15bf8835f3e9053faeda8cd458d76173 OP_CHECKSIG",
            "desc": "pk(04728500ec66c635e96e774f766deedb3cc55dd96355f8ef80857b53d555361246e065c212365e15fb481cd5d45cbf4c4c15bf8835f3e9053faeda8cd458d76173)#5ez99dje",
            "hex": "4104728500ec66c635e96e774f766deedb3cc55dd96355f8ef80857b53d555361246e065c212365e15fb481cd5d45cbf4c4c15bf8835f3e9053faeda8cd458d76173ac",
            "type": "pubkey"
          }
        }
      ],
      "hex": "01000000010000000000000000000000000000000000000000000000000000000000000000ffffffff0804ffff001d028e05ffffffff0100f2052a01000000434104728500ec66c635e96e774f766deedb3cc55dd96355f8ef80857b53d555361246e065c212365e15fb481cd5d45cbf4c4c15bf8835f3e9053faeda8cd458d76173ac00000000"
    }
  ]
}