{
  "hash": "000000005fa35ee08a2283747996ed3e79f193b1f1f630e08023c27645f71827",
  "confirmations": 50977,
  "height": 2121,
  "version": 1,
  "versionHex": "00000001",
  "merkleroot": "9a4a351306ee1589d59863c4a9b9e2b26c0b06aba7922c442e988a887e249d11",
  "time": 1233151723,
  "mediantime": 1233149370,
  "nonce": 1447334449,
  "bits": "1d00ffff",
  "difficulty": 1,
  "chainwork": "0000000000000000000000000000000000000000000000000000084a084a084a",
  "nTx": 1,
  "previousblockhash": "000000009a284bd92fd73540f30123be054f16438532e83b7a5c94ec048a7ab9",
  "nextblockhash": "00000000602eaea606c6044442ff5ffa50bbf45d6168ca11b3d4f8fab77d7645",
  "strippedsize": 216,
  "size": 216,
  "weight": 864,
  "tx": [
    {
      "txid": "9a4a351306ee1589d59863c4a9b9e2b26c0b06aba7922c442e988a887e249d11",
      "hash": "9a4a351306ee1589d59863c4a9b9e2b26c0b06aba7922c442e988a887e249d11",
      "version": 1,
      "size": 135,
      "vsize": 135,
      "weight": 540,
      "locktime": 0,
      "vin": [
        {
          "coinbase": "04ffff001d02db03",
          "sequence": 4294967295
        }
      ],
      "vout": [
        {
          "value": 50.0,
          "n": 0,
          "scriptPubKey": {
            "asm": "041548788a9d8a78c71ff1043c7158d1a0708ff7ab6560e116c67abf32870be551731ea9170a7601159a44a7d3a6e1b88b5a17195ab3da7aeac748de68643440be OP_CHECKSIG",
            "desc": "pk(041548788a9d8a78c71ff1043c7158d1a0708ff7ab6560e116c67abf32870be551731ea9170a7601159a44a7d3a6e1b88b5a17195ab3da7aeac748de68643440be)#hjt6awvz",
            "hex": "41041548788a9d8a78c71ff1043c7158d1a0708ff7ab6560e116c67abf32870be551731ea9170a7601159a44a7d3a6e1b88b5a17195ab3da7aeac748de68643440beac",
            "type": "pubkey"
          }
        }
      ],
      "hex": "01000000010000000000000000000000000000000000000000000000000000000000000000ffffffff0804ffff001d02db03ffffffff0100f2052a010000004341041548788a9d8a78c71ff1043c7158d1a0708ff7ab6560e116c67abf32870be551731ea9170a7601159a44a7d3a6e1b88b5a17195ab3da7aeac748de68643440beac00000000"
    }
  ]
}