{
  "hash": "00000000c826ca8cb0836a71235444032ac3b1eb480ad6627a465b35cb0572df",
  "confirmations": 44857,
  "height": 8241,
  "version": 1,
  "versionHex": "00000001",
  "merkleroot": "4c8641a1260670639b6c6b2e9ec7755d1e66240e5f9994067bbc244ca79f90f5",
  "time": 1237690877,
  "mediantime": 1237687832,
  "nonce": 1955006755,
  "bits": "1d00ffff",
  "difficulty": 1,
  "chainwork": "0000000000000000000000000000000000000000000000000000203220322032",
  "nTx": 1,
  "previousblockhash": "00000000769a69bab4b23c22eb7aba05c19f0f874dc28de629a2c2959939e253",
  "nextblockhash": "0000000078455a80c1a8348abff24732f7b2bfa51dc21562ca06c58a22eec69b",
  "strippedsize": 216,
  "size": 216,
  "weight": 864,
  "tx": [
    {
      "txid": "4c8641a1260670639b6c6b2e9ec7755d1e66240e5f9994067bbc244ca79f90f5",
      "hash": "4c8641a1260670639b6c6b2e9ec7755d1e66240e5f9994067bbc244ca79f90f5",
      "version": 1,
      "size": 135,
      "vsize": 135,
      "weight": 540,
      "locktime": 0,
      "vin": [
        {
          "coinbase": "04ffff001d025f03",
          "sequence": 4294967295
        }
      ],
      "vout": [
        {
          "value": 50.0,
          "n": 0,
          "scriptPubKey": {
            "asm": "045e0ee1223870ca0fbb66a4d5fd2c6b9445bc9459c65d1a5233f0a2de27bb9f4f17061cd7fe3e1baf8c9a6c192ed91f7ae4393ef4be53088abbe08035074caf5a OP_CHECKSIG",
            "desc": "pk(045e0ee1223870ca0fbb66a4d5fd2c6b9445bc9459c65d1a5233f0a2de27bb9f4f17061cd7fe3e1baf8c9a6c192ed91f7ae4393ef4be53088abbe08035074caf5a)#rx2u7sj0",
            "hex": "41045e0ee1223870ca0fbb66a4d5fd2c6b9445bc9459c65d1a5233f0a2de27bb9f4f17061cd7fe3e1baf8c9a6c192ed91f7ae4393ef4be53088abbe08035074caf5aac",
            "type": "pubkey"
          }
        }
      ],
      "hex": "01000000010000000000000000000000000000000000000000000000000000000000000000ffffffff0804ffff001d025f03ffffffff0100f2052a010000004341045e0ee1223870ca0fbb66a4d5fd2c6b9445bc9459c65d1a5233f0a2de27bb9f4f17061cd7fe3e1baf8c9a6c192ed91f7ae4393ef4be53088abbe08035074caf5aac00000000"
    }
  ]
}