{
  "hash": "0000000077373914195560aee41f7b290477bd4a6c8641ebf52539478ab31345",
  "confirmations": 47780,
  "height": 5318,
  "version": 1,
  "versionHex": "00000001",
  "merkleroot": "34f66a17ff9860110fe0928a2525293f2b60b917558b53ee74ba888e5dac4a54",
  "time": 1235379059,
  "mediantime": 1235374491,
  "nonce": 4263288116,
  "bits": "1d00ffff",
  "difficulty": 1,
  "chainwork": "000000000000000000000000000000000000000000000000000014c714c714c7",
  "nTx": 1,
  "previousblockhash": "00000000faa0f221e2886a8f0a544b232da1258c208ff422ca7b4ced77cd6109",
  "nextblockhash": "00000000df2ef474533e09c124c2d05905ba5016853128806104a8e8c5412aae",
  "strippedsize": 216,
  "size": 216,
  "weight": 864,
  "tx": [
    {
      "txid": "34f66a17ff9860110fe0928a2525293f2b60b917558b53ee74ba888e5dac4a54",
      "hash": "34f66a17ff9860110fe0928a2525293f2b60b917558b53ee74ba888e5dac4a54",
      "version": 1,
      "size": 135,
      "vsize": 135,
      "weight": 540,
      "locktime": 0,
      "vin": [
        {
          "coinbase": "04ffff001d025702",
          "sequence": 4294967295
        }
      ],
      "vout": [
        {
          "value": 50.0,
          "n": 0,
          "scriptPubKey": {
            "asm": "0459c4250c84439202eba0ed337e2446b13b89592db791fe4276a8de9fea04cd89a5a93a729c3416adb22c37ef26c4e550dec8687b9e56d59725020b33e80315d5 OP_CHECKSIG",
            "desc": "pk(0459c4250c84439202eba0ed337e2446b13b89592db791fe4276a8de9fea04cd89a5a93a729c3416adb22c37ef26c4e550dec8687b9e56d59725020b33e80315d5)#v9ehf5zn",
            "hex": "410459c4250c84439202eba0ed337e2446b13b89592db791fe4276a8de9fea04cd89a5a93a729c3416adb22c37ef26c4e550dec8687b9e56d59725020b33e80315d5ac",
            "type": "pubkey"
          }
        }
      ],
      "hex": "01000000010000000000000000000000000000000000000000000000000000000000000000ffffffff0804ffff001d025702ffffffff0100f2052a0100000043410459c4250c84439202eba0ed337e2446b13b89592db791fe4276a8de9fea04cd89a5a93a729c3416adb22c37ef26c4e550dec8687b9e56d59725020b33e80315d5ac00000000"
    }
  ]
}