{
  "hash": "00000000211bb5d4ed9b771e78628015593cd1c381956f48e5b1b1daf598041e",
  "confirmations": 47317,
  "height": 5781,
  "version": 1,
  "versionHex": "00000001",
  "merkleroot": "aed4c54e8020bc8118a9dfcbf709a27d18cf3254fe196dcd44ff9e959bbad51d",
  "time": 1235745838,
  "mediantime": 1235742203,
  "nonce": 1633298709,
  "bits": "1d00ffff",
  "difficulty": 1,
  "chainwork": "0000000000000000000000000000000000000000000000000000169616961696",
  "nTx": 1,
  "previousblockhash": "0000000012650c830b5f7274c1161ac090ab727a457fd25dbe436137ced84363",
  "nextblockhash": "00000000ac9c37de83c6d89694721e039081206c1825a5b6325d2967a250d373",
  "strippedsize": 215,
  "size": 215,
  "weight": 860,
  "tx": [
    {
      "txid": "aed4c54e8020bc8118a9dfcbf709a27d18cf3254fe196dcd44ff9e959bbad51d",
      "hash": "aed4c54e8020bc8118a9dfcbf709a27d18cf3254fe196dcd44ff9e959bbad51d",
      "version": 1,
      "size": 134,
      "vsize": 134,
      "weight": 536,
      "locktime": 0,
      "vin": [
        {
          "coinbase": "04ffff001d0178",
          "sequence": 4294967295
        }
      ],
      "vout": [
        {
          "value": 50.0,
          "n": 0,
          "scriptPubKey": {
            "asm": "04b5551ca9ff040d1c7f6f1cf618633391e7f8e1b3e32bc86a0fe31cbfeaecb3ce7f790ddedc38286833f43002028d37ff1564fe4e9afc40f257c4e50193357465 OP_CHECKSIG",
            "desc": "pk(04b5551ca9ff040d1c7f6f1cf618633391e7f8e1b3e32bc86a0fe31cbfeaecb3ce7f790ddedc38286833f43002028d37ff1564fe4e9afc40f257c4e50193357465)#j7wxmxl7",
            "hex": "4104b5551ca9ff040d1c7f6f1cf618633391e7f8e1b3e32bc86a0fe31cbfeaecb3ce7f790ddedc38286833f43002028d37ff1564fe4e9afc40f257c4e50193357465ac",
            "type": "pubkey"
          }
        }
      ],
      "hex": "01000000010000000000000000000000000000000000000000000000000000000000000000ffffffff0704ffff001d0178ffffffff0100f2052a01000000434104b5551ca9ff040d1c7f6f1cf618633391e7f8e1b3e32bc86a0fe31cbfeaecb3ce7f790ddedc38286833f43002028d37ff1564fe4e9afc40f257c4e50193357465ac00000000"
    }
  ]
}