{
  "hash": "000000003227c42f597e6e6a77e1abfa39a271f32afa4442e3b06f99b4bea50a",
  "confirmations": 47966,
  "height": 5132,
  "version": 1,
  "versionHex": "00000001",
  "merkleroot": "7af100d546e94880005c728f0b1742748454fd2559ff0114a530131334e876ca",
  "time": 1235237884,
  "mediantime": 1235236702,
  "nonce": 3557474852,
  "bits": "1d00ffff",
  "difficulty": 1,
  "chainwork": "0000000000000000000000000000000000000000000000000000140d140d140d",
  "nTx": 1,
  "previousblockhash": "000000001c7d76a9dc50b36c8f2fb152e4355e2db354487b99d78b23085f90c0",
  "nextblockhash": "00000000145406f7d62b54cf17a406fc3ae654516c3d581e4b55a301b060a82a",
  "strippedsize": 216,
  "size": 216,
  "weight": 864,
  "tx": [
    {
      "txid": "7af100d546e94880005c728f0b1742748454fd2559ff0114a530131334e876ca",
      "hash": "7af100d546e94880005c728f0b1742748454fd2559ff0114a530131334e876ca",
      "version": 1,
      "size": 135,
      "vsize": 135,
      "weight": 540,
      "locktime": 0,
      "vin": [
        {
          "coinbase": "04ffff001d027a09",
          "sequence": 4294967295
        }
      ],
      "vout": [
        {
          "value": 50.0,
          "n": 0,
          "scriptPubKey": {
            "asm": "047c8e8769e7a1812b85b4faf49365ce857127c102bddc747f2a2d0fa94f880d12ba3d577d410082e0ff018716705c42714431fb9402bf851b3ce2b5d89acd90dd OP_CHECKSIG",
            "desc": "pk(047c8e8769e7a1812b85b4faf49365ce857127c102bddc747f2a2d0fa94f880d12ba3d577d410082e0ff018716705c42714431fb9402bf851b3ce2b5d89acd90dd)#mncreuhz",
            "hex": "41047c8e8769e7a1812b85b4faf49365ce857127c102bddc747f2a2d0fa94f880d12ba3d577d410082e0ff018716705c42714431fb9402bf851b3ce2b5d89acd90ddac",
            "type": "pubkey"
          }
        }
      ],
      "hex": "01000000010000000000000000000000000000000000000000000000000000000000000000ffffffff0804ffff001d027a09ffffffff0100f2052a010000004341047c8e8769e7a1812b85b4faf49365ce857127c102bddc747f2a2d0fa94f880d12ba3d577d410082e0ff018716705c42714431fb9402bf851b3ce2b5d89acd90ddac00000000"
    }
  ]
}