{
  "hash": "00000000ba48a5254205120912ea04481540b940d871f1e5828f8e4421d57241",
  "confirmations": 51221,
  "height": 1877,
  "version": 1,
  "versionHex": "00000001",
  "merkleroot": "6df64c6280a9b1466467fb59b8facd5a32c7415404bbcd450701027234d289ce",
  "time": 1232934047,
  "mediantime": 1232931571,
  "nonce": 140121389,
  "bits": "1d00ffff",
  "difficulty": 1,
  "chainwork": "0000000000000000000000000000000000000000000000000000075607560756",
  "nTx": 1,
  "previousblockhash": "00000000c997904ae560a37450d81ebf44414e6c29d43e24be0e9c3285e00734",
  "nextblockhash": "00000000d02b479f4b12acc60bd26b95c74ea25ba831facd30117dffa9e94cb4",
  "strippedsize": 216,
  "size": 216,
  "weight": 864,
  "tx": [
    {
      "txid": "6df64c6280a9b1466467fb59b8facd5a32c7415404bbcd450701027234d289ce",
      "hash": "6df64c6280a9b1466467fb59b8facd5a32c7415404bbcd450701027234d289ce",
      "version": 1,
      "size": 135,
      "vsize": 135,
      "weight": 540,
      "locktime": 0,
      "vin": [
        {
          "coinbase": "04ffff001d020305",
          "sequence": 4294967295
        }
      ],
      "vout": [
        {
          "value": 50.0,
          "n": 0,
          "scriptPubKey": {
            "asm": "041b69047df31951cdf65d4c4d2810c1e728094c5b935bd395c5f5b0a6c7b5d9e4ea8f7c7345b388c35e31b78c7d59fbddc9d1300bcb3d973c3c5526512831241e OP_CHECKSIG",
            "desc": "pk(041b69047df31951cdf65d4c4d2810c1e728094c5b935bd395c5f5b0a6c7b5d9e4ea8f7c7345b388c35e31b78c7d59fbddc9d1300bcb3d973c3c5526512831241e)#2zhfkdky",
            "hex": "41041b69047df31951cdf65d4c4d2810c1e728094c5b935bd395c5f5b0a6c7b5d9e4ea8f7c7345b388c35e31b78c7d59fbddc9d1300bcb3d973c3c5526512831241eac",
            "type": "pubkey"
          }
        }
      ],
      "hex": "01000000010000000000000000000000000000000000000000000000000000000000000000ffffffff0804ffff001d020305ffffffff0100f2052a010000004341041b69047df31951cdf65d4c4d2810c1e728094c5b935bd395c5f5b0a6c7b5d9e4ea8f7c7345b388c35e31b78c7d59fbddc9d1300bcb3d973c3c5526512831241eac00000000"
    }
  ]
}