{
  "hash": "0000000047a712b762d9c91aa1cc2e33fb48ea64276a7086c3c10aa252a934ab",
  "confirmations": 51798,
  "height": 1300,
  "version": 1,
  "versionHex": "00000001",
  "merkleroot": "9bb3456f8597574022ec1184b86fad52d68fb36017a4960a75d2c9b8ea8a23da",
  "time": 1232594123,
  "mediantime": 1232571438,
  "nonce": 2147005185,
  "bits": "1d00ffff",
  "difficulty": 1,
  "chainwork": "0000000000000000000000000000000000000000000000000000051505150515",
  "nTx": 1,
  "previousblockhash": "00000000e79bd48bbc4416ad172e69b505694be0dd7566aac1063751dc37ce3f",
  "nextblockhash": "000000000b57d2d81865b33cbf69ee905688ee70772fedb7cbc7407fbccd5461",
  "strippedsize": 215,
  "size": 215,
  "weight": 860,
  "tx": [
    {
      "txid": "9bb3456f8597574022ec1184b86fad52d68fb36017a4960a75d2c9b8ea8a23da",
      "hash": "9bb3456f8597574022ec1184b86fad52d68fb36017a4960a75d2c9b8ea8a23da",
      "version": 1,
      "size": 134,
      "vsize": 134,
      "weight": 536,
      "locktime": 0,
      "vin": [
        {
          "coinbase": "04ffff001d0110",
          "sequence": 4294967295
        }
      ],
      "vout": [
        {
          "value": 50.0,
          "n": 0,
          "scriptPubKey": {
            "asm": "045c994109d3c2174d4540a243fb26e70548562d4953f9010568f93ba79127e0c1c3c4411584d245a284baaa539340230a3c7d8571721d4f1733b727917f3182f4 OP_CHECKSIG",
            "desc": "pk(045c994109d3c2174d4540a243fb26e70548562d4953f9010568f93ba79127e0c1c3c4411584d245a284baaa539340230a3c7d8571721d4f1733b727917f3182f4)#x8djdnea",
            "hex": "41045c994109d3c2174d4540a243fb26e70548562d4953f9010568f93ba79127e0c1c3c4411584d245a284baaa539340230a3c7d8571721d4f1733b727917f3182f4ac",
            "type": "pubkey"
          }
        }
      ],
      "hex": "01000000010000000000000000000000000000000000000000000000000000000000000000ffffffff0704ffff001d0110ffffffff0100f2052a010000004341045c994109d3c2174d4540a243fb26e70548562d4953f9010568f93ba79127e0c1c3c4411584d245a284baaa539340230a3c7d8571721d4f1733b727917f3182f4ac00000000"
    }
  ]
}