{
  "hash": "00000000249882bd5f1b31768397d8da9be83b1f6d85433adaa3f7dba16df466",
  "confirmations": 52250,
  "height": 848,
  "version": 1,
  "versionHex": "00000001",
  "merkleroot": "d1aa3ca0641ccbd624097847c227448823f0b5d6eb8c0b047335c056886f9084",
  "time": 1232227629,
  "mediantime": 1232224123,
  "nonce": 1967267371,
  "bits": "1d00ffff",
  "difficulty": 1,
  "chainwork": "0000000000000000000000000000000000000000000000000000035103510351",
  "nTx": 1,
  "previousblockhash": "00000000bf8956b891713a9f303a948d21d2ea5f604d2378ef08b14afc8e9e78",
  "nextblockhash": "00000000fa04ef686ff46ea3a1f2b76687539395fb9ca7ce2dd013e9193aa4b4",
  "strippedsize": 216,
  "size": 216,
  "weight": 864,
  "tx": [
    {
      "txid": "d1aa3ca0641ccbd624097847c227448823f0b5d6eb8c0b047335c056886f9084",
      "hash": "d1aa3ca0641ccbd624097847c227448823f0b5d6eb8c0b047335c056886f9084",
      "version": 1,
      "size": 135,
      "vsize": 135,
      "weight": 540,
      "locktime": 0,
      "vin": [
        {
          "coinbase": "04ffff001d026502",
          "sequence": 4294967295
        }
      ],
      "vout": [
        {
          "value": 50.0,
          "n": 0,
          "scriptPubKey": {
            "asm": "04ffffcdeee179409d5b0e3133929d6c1292d57768182e650878304dc6867e7a0b0f14b11d089328382dcc962312d22fe148b01c8ff911bff70af274146fb000e3 OP_CHECKSIG",
            "desc": "pk(04ffffcdeee179409d5b0e3133929d6c1292d57768182e650878304dc6867e7a0b0f14b11d089328382dcc962312d22fe148b01c8ff911bff70af274146fb000e3)#9y6y2xgr",
            "hex": "4104ffffcdeee179409d5b0e3133929d6c1292d57768182e650878304dc6867e7a0b0f14b11d089328382dcc962312d22fe148b01c8ff911bff70af274146fb000e3ac",
            "type": "pubkey"
          }
        }
      ],
      "hex": "01000000010000000000000000000000000000000000000000000000000000000000000000ffffffff0804ffff001d026502ffffffff0100f2052a01000000434104ffffcdeee179409d5b0e3133929d6c1292d57768182e650878304dc6867e7a0b0f14b11d089328382dcc962312d22fe148b01c8ff911bff70af274146fb000e3ac00000000"
    }
  ]
}