{
  "hash": "00000000fecfe7fb2e4ca57b164a0017907ba3d7de895bf9c3ba179ed4412924",
  "confirmations": 49854,
  "height": 3244,
  "version": 1,
  "versionHex": "00000001",
  "merkleroot": "f7f71a3a7c9d98319b1d1cfd8f44de5d663f977e03cf8ab23466bfc824439f99",
  "time": 1233932412,
  "mediantime": 1233928835,
  "nonce": 111532499,
  "bits": "1d00ffff",
  "difficulty": 1,
  "chainwork": "00000000000000000000000000000000000000000000000000000cad0cad0cad",
  "nTx": 1,
  "previousblockhash": "00000000a0771fe1dddca4177626dba099a7a01b8b5454a2350afcdc8534da23",
  "nextblockhash": "00000000ccedf7fbd87f8fe96dd1dcd7f200c071622d08c0ffebbb8cdf96f40a",
  "strippedsize": 215,
  "size": 215,
  "weight": 860,
  "tx": [
    {
      "txid": "f7f71a3a7c9d98319b1d1cfd8f44de5d663f977e03cf8ab23466bfc824439f99",
      "hash": "f7f71a3a7c9d98319b1d1cfd8f44de5d663f977e03cf8ab23466bfc824439f99",
      "version": 1,
      "size": 134,
      "vsize": 134,
      "weight": 536,
      "locktime": 0,
      "vin": [
        {
          "coinbase": "04ffff001d013d",
          "sequence": 4294967295
        }
      ],
      "vout": [
        {
          "value": 50.0,
          "n": 0,
          "scriptPubKey": {
            "asm": "04959bb82e6ecbabe82493d6c2ba2fb82a07e2737514f54c0d6cd8380e2461f2654213713b14d77cd8b86bfe5f966f7ae3a03d36de7bd3dd917dcace734f59c260 OP_CHECKSIG",
            "desc": "pk(04959bb82e6ecbabe82493d6c2ba2fb82a07e2737514f54c0d6cd8380e2461f2654213713b14d77cd8b86bfe5f966f7ae3a03d36de7bd3dd917dcace734f59c260)#qgvas8wq",
            "hex": "4104959bb82e6ecbabe82493d6c2ba2fb82a07e2737514f54c0d6cd8380e2461f2654213713b14d77cd8b86bfe5f966f7ae3a03d36de7bd3dd917dcace734f59c260ac",
            "type": "pubkey"
          }
        }
      ],
      "hex": "01000000010000000000000000000000000000000000000000000000000000000000000000ffffffff0704ffff001d013dffffffff0100f2052a01000000434104959bb82e6ecbabe82493d6c2ba2fb82a07e2737514f54c0d6cd8380e2461f2654213713b14d77cd8b86bfe5f966f7ae3a03d36de7bd3dd917dcace734f59c260ac00000000"
    }
  ]
}