{
  "hash": "00000000551ff485c4327858a3fa9be59635d98f4272869145919394ef3d1460",
  "confirmations": 50579,
  "height": 2519,
  "version": 1,
  "versionHex": "00000001",
  "merkleroot": "b3f4d655ae5cfd3cefc55f5df26348fb51fff28d5de62dcd7ac29b8729ba1496",
  "time": 1233429555,
  "mediantime": 1233427676,
  "nonce": 2720109587,
  "bits": "1d00ffff",
  "difficulty": 1,
  "chainwork": "000000000000000000000000000000000000000000000000000009d809d809d8",
  "nTx": 1,
  "previousblockhash": "0000000006c9b1e6c82487e058b9fa9c001ee54700b33e061e1ebf2cd5b0b66a",
  "nextblockhash": "000000006fc2496723747628e8fca0e2992bc4e04b6675685f27acd3d83c93b2",
  "strippedsize": 216,
  "size": 216,
  "weight": 864,
  "tx": [
    {
      "txid": "b3f4d655ae5cfd3cefc55f5df26348fb51fff28d5de62dcd7ac29b8729ba1496",
      "hash": "b3f4d655ae5cfd3cefc55f5df26348fb51fff28d5de62dcd7ac29b8729ba1496",
      "version": 1,
      "size": 135,
      "vsize": 135,
      "weight": 540,
      "locktime": 0,
      "vin": [
        {
          "coinbase": "04ffff001d024b01",
          "sequence": 4294967295
        }
      ],
      "vout": [
        {
          "value": 50.0,
          "n": 0,
          "scriptPubKey": {
            "asm": "04d39c12d424f061bcc47f6ef0c5469d2ace203b5c0fb3f06f4300ca025d60db21de882d47a4c05fdc8fbaeba4084b519bd399ba1b9b5b3d6adb7ac7c4794c8d19 OP_CHECKSIG",
            "desc": "pk(04d39c12d424f061bcc47f6ef0c5469d2ace203b5c0fb3f06f4300ca025d60db21de882d47a4c05fdc8fbaeba4084b519bd399ba1b9b5b3d6adb7ac7c4794c8d19)#3rx3dcte",
            "hex": "4104d39c12d424f061bcc47f6ef0c5469d2ace203b5c0fb3f06f4300ca025d60db21de882d47a4c05fdc8fbaeba4084b519bd399ba1b9b5b3d6adb7ac7c4794c8d19ac",
            "type": "pubkey"
          }
        }
      ],
      "hex": "01000000010000000000000000000000000000000000000000000000000000000000000000ffffffff0804ffff001d024b01ffffffff0100f2052a01000000434104d39c12d424f061bcc47f6ef0c5469d2ace203b5c0fb3f06f4300ca025d60db21de882d47a4c05fdc8fbaeba4084b519bd399ba1b9b5b3d6adb7ac7c4794c8d19ac00000000"
    }
  ]
}