{
  "hash": "000000005e2c51decc88e4d8e3147eb7573bd5e168648fe06c18e9f3e9a8f2cb",
  "confirmations": 49979,
  "height": 3119,
  "version": 1,
  "versionHex": "00000001",
  "merkleroot": "61326b32bf95e21e6566b55b7c5dd4cfa758a4baac9db0ac52b28eda80793634",
  "time": 1233848375,
  "mediantime": 1233846172,
  "nonce": 144673537,
  "bits": "1d00ffff",
  "difficulty": 1,
  "chainwork": "00000000000000000000000000000000000000000000000000000c300c300c30",
  "nTx": 1,
  "previousblockhash": "00000000921ac50edf3fb0fa9e18cc12cd547df29fd5bf1ecd7332b63875a2d9",
  "nextblockhash": "0000000045cc047eac436ffc773d8668499d01607beba2a3a1ffec8d02662e9b",
  "strippedsize": 216,
  "size": 216,
  "weight": 864,
  "tx": [
    {
      "txid": "61326b32bf95e21e6566b55b7c5dd4cfa758a4baac9db0ac52b28eda80793634",
      "hash": "61326b32bf95e21e6566b55b7c5dd4cfa758a4baac9db0ac52b28eda80793634",
      "version": 1,
      "size": 135,
      "vsize": 135,
      "weight": 540,
      "locktime": 0,
      "vin": [
        {
          "coinbase": "04ffff001d02c501",
          "sequence": 4294967295
        }
      ],
      "vout": [
        {
          "value": 50.0,
          "n": 0,
          "scriptPubKey": {
            "asm": "04157e64f7c30cc83bf6f229a92215f443b707031b1f13373dcc3a3929026d071d4b4a60dadebc59924fcd349c743a0acf7be16ebf14064f523be14c57cba50787 OP_CHECKSIG",
            "desc": "pk(04157e64f7c30cc83bf6f229a92215f443b707031b1f13373dcc3a3929026d071d4b4a60dadebc59924fcd349c743a0acf7be16ebf14064f523be14c57cba50787)#3j7xtqf7",
            "hex": "4104157e64f7c30cc83bf6f229a92215f443b707031b1f13373dcc3a3929026d071d4b4a60dadebc59924fcd349c743a0acf7be16ebf14064f523be14c57cba50787ac",
            "type": "pubkey"
          }
        }
      ],
      "hex": "01000000010000000000000000000000000000000000000000000000000000000000000000ffffffff0804ffff001d02c501ffffffff0100f2052a01000000434104157e64f7c30cc83bf6f229a92215f443b707031b1f13373dcc3a3929026d071d4b4a60dadebc59924fcd349c743a0acf7be16ebf14064f523be14c57cba50787ac00000000"
    }
  ]
}