{
  "hash": "00000000a54af06bd71199d6643ecd7ca5b84a77083ec77718eced30d6222da6",
  "confirmations": 50388,
  "height": 2710,
  "version": 1,
  "versionHex": "00000001",
  "merkleroot": "2e20d4dce5a0dee101ef0688d8fefd17ee5a93940eba6293b5d57c128ce3bad1",
  "time": 1233569285,
  "mediantime": 1233564705,
  "nonce": 4148646704,
  "bits": "1d00ffff",
  "difficulty": 1,
  "chainwork": "00000000000000000000000000000000000000000000000000000a970a970a97",
  "nTx": 1,
  "previousblockhash": "000000009eedee83db7da4524455a03bc5b3082d61f469c446377b18f1f8f2e4",
  "nextblockhash": "00000000799e1ddaa6d0f89314128d23c07cff013f90180f425e6c6ca21cb0c3",
  "strippedsize": 216,
  "size": 216,
  "weight": 864,
  "tx": [
    {
      "txid": "2e20d4dce5a0dee101ef0688d8fefd17ee5a93940eba6293b5d57c128ce3bad1",
      "hash": "2e20d4dce5a0dee101ef0688d8fefd17ee5a93940eba6293b5d57c128ce3bad1",
      "version": 1,
      "size": 135,
      "vsize": 135,
      "weight": 540,
      "locktime": 0,
      "vin": [
        {
          "coinbase": "04ffff001d02d704",
          "sequence": 4294967295
        }
      ],
      "vout": [
        {
          "value": 50.0,
          "n": 0,
          "scriptPubKey": {
            "asm": "041b61dd9482a90fbf3432cd42be2f6e8051af0bba5117f349d54a15b6b573215faf58b43bbf8b2dd678e594045f2cdf93b01fd7e1397e4afd168a6b6520e2294a OP_CHECKSIG",
            "desc": "pk(041b61dd9482a90fbf3432cd42be2f6e8051af0bba5117f349d54a15b6b573215faf58b43bbf8b2dd678e594045f2cdf93b01fd7e1397e4afd168a6b6520e2294a)#lgmh69k8",
            "hex": "41041b61dd9482a90fbf3432cd42be2f6e8051af0bba5117f349d54a15b6b573215faf58b43bbf8b2dd678e594045f2cdf93b01fd7e1397e4afd168a6b6520e2294aac",
            "type": "pubkey"
          }
        }
      ],
      "hex": "01000000010000000000000000000000000000000000000000000000000000000000000000ffffffff0804ffff001d02d704ffffffff0100f2052a010000004341041b61dd9482a90fbf3432cd42be2f6e8051af0bba5117f349d54a15b6b573215faf58b43bbf8b2dd678e594045f2cdf93b01fd7e1397e4afd168a6b6520e2294aac00000000"
    }
  ]
}