{
  "hash": "000000002770497ee49f2fc7b79330292e50a5f194836a20f35f27e5deb447db",
  "confirmations": 48237,
  "height": 4861,
  "version": 1,
  "versionHex": "00000001",
  "merkleroot": "b8c288bdbf1ffe5c217efb8cacad42522bc40521b76c8832285889f36b90d537",
  "time": 1235045332,
  "mediantime": 1235041630,
  "nonce": 2772677917,
  "bits": "1d00ffff",
  "difficulty": 1,
  "chainwork": "000000000000000000000000000000000000000000000000000012fe12fe12fe",
  "nTx": 1,
  "previousblockhash": "0000000052161695900d6c0473ee81fff5b1060869c57da01ebda4c75aa257c9",
  "nextblockhash": "00000000307708918efa6f5d0544ebe95849ec783c964d8a1e6c724bb8e836d4",
  "strippedsize": 216,
  "size": 216,
  "weight": 864,
  "tx": [
    {
      "txid": "b8c288bdbf1ffe5c217efb8cacad42522bc40521b76c8832285889f36b90d537",
      "hash": "b8c288bdbf1ffe5c217efb8cacad42522bc40521b76c8832285889f36b90d537",
      "version": 1,
      "size": 135,
      "vsize": 135,
      "weight": 540,
      "locktime": 0,
      "vin": [
        {
          "coinbase": "04ffff001d023405",
          "sequence": 4294967295
        }
      ],
      "vout": [
        {
          "value": 50.0,
          "n": 0,
          "scriptPubKey": {
            "asm": "04b7d16a374e36b3cded5738bf8c4416f54cce4e42ff65df1834b230b845366c9a4b4a3273d66d41c6dc9aa84ba248256577b7f139742879833c246ae21a0691e7 OP_CHECKSIG",
            "desc": "pk(04b7d16a374e36b3cded5738bf8c4416f54cce4e42ff65df1834b230b845366c9a4b4a3273d66d41c6dc9aa84ba248256577b7f139742879833c246ae21a0691e7)#95q56jr0",
            "hex": "4104b7d16a374e36b3cded5738bf8c4416f54cce4e42ff65df1834b230b845366c9a4b4a3273d66d41c6dc9aa84ba248256577b7f139742879833c246ae21a0691e7ac",
            "type": "pubkey"
          }
        }
      ],
      "hex": "01000000010000000000000000000000000000000000000000000000000000000000000000ffffffff0804ffff001d023405ffffffff0100f2052a01000000434104b7d16a374e36b3cded5738bf8c4416f54cce4e42ff65df1834b230b845366c9a4b4a3273d66d41c6dc9aa84ba248256577b7f139742879833c246ae21a0691e7ac00000000"
    }
  ]
}