{
  "hash": "00000000941031648fa40f9d00bb7bea3667d59fa5fd2ffd8d6a362362a61c0f",
  "confirmations": 51517,
  "height": 1581,
  "version": 1,
  "versionHex": "00000001",
  "merkleroot": "18aa268a4dd071f95aaa140f4565cee5515e38c41a8df2f82bbca64cd327dd5c",
  "time": 1232802907,
  "mediantime": 1232800443,
  "nonce": 876942390,
  "bits": "1d00ffff",
  "difficulty": 1,
  "chainwork": "0000000000000000000000000000000000000000000000000000062e062e062e",
  "nTx": 1,
  "previousblockhash": "000000005160a17e0c299c5646de80a210e6aac12bf4e2ad9796967d22b4e547",
  "nextblockhash": "0000000020cc993b057182358df29839534c3233eca80aab0d42748a55a7e0bb",
  "strippedsize": 216,
  "size": 216,
  "weight": 864,
  "tx": [
    {
      "txid": "18aa268a4dd071f95aaa140f4565cee5515e38c41a8df2f82bbca64cd327dd5c",
      "hash": "18aa268a4dd071f95aaa140f4565cee5515e38c41a8df2f82bbca64cd327dd5c",
      "version": 1,
      "size": 135,
      "vsize": 135,
      "weight": 540,
      "locktime": 0,
      "vin": [
        {
          "coinbase": "04ffff001d02e801",
          "sequence": 4294967295
        }
      ],
      "vout": [
        {
          "value": 50.0,
          "n": 0,
          "scriptPubKey": {
            "asm": "0414ad2e1cd92687eb8a69255c12421f21cb18d8f43d1e0894d49a8cd54e30389652d909887f914e36351d0f9d40574ceb7cd11f9b97cb694409dd87938aded6bc OP_CHECKSIG",
            "desc": "pk(0414ad2e1cd92687eb8a69255c12421f21cb18d8f43d1e0894d49a8cd54e30389652d909887f914e36351d0f9d40574ceb7cd11f9b97cb694409dd87938aded6bc)#dzcf4l98",
            "hex": "410414ad2e1cd92687eb8a69255c12421f21cb18d8f43d1e0894d49a8cd54e30389652d909887f914e36351d0f9d40574ceb7cd11f9b97cb694409dd87938aded6bcac",
            "type": "pubkey"
          }
        }
      ],
      "hex": "01000000010000000000000000000000000000000000000000000000000000000000000000ffffffff0804ffff001d02e801ffffffff0100f2052a0100000043410414ad2e1cd92687eb8a69255c12421f21cb18d8f43d1e0894d49a8cd54e30389652d909887f914e36351d0f9d40574ceb7cd11f9b97cb694409dd87938aded6bcac00000000"
    }
  ]
}