{
  "hash": "00000000e4994b7328ab08b81a8c9f8653718d74bc5b0b107faa4533eaf6346a",
  "confirmations": 47512,
  "height": 5586,
  "version": 1,
  "versionHex": "00000001",
  "merkleroot": "cef683e50171283aa9127d5d697db3365ea5461a44b5149b0eba1471cdbbfcae",
  "time": 1235589315,
  "mediantime": 1235586818,
  "nonce": 3434249779,
  "bits": "1d00ffff",
  "difficulty": 1,
  "chainwork": "000000000000000000000000000000000000000000000000000015d315d315d3",
  "nTx": 1,
  "previousblockhash": "00000000e2b2970fec6399f09d668cf8806c62a50a1be3d1b0dc17cef08173f3",
  "nextblockhash": "0000000065fb3894ac8259bdeca36b7c7e602602b63d411ba82a28e8f917e6c7",
  "strippedsize": 216,
  "size": 216,
  "weight": 864,
  "tx": [
    {
      "txid": "cef683e50171283aa9127d5d697db3365ea5461a44b5149b0eba1471cdbbfcae",
      "hash": "cef683e50171283aa9127d5d697db3365ea5461a44b5149b0eba1471cdbbfcae",
      "version": 1,
      "size": 135,
      "vsize": 135,
      "weight": 540,
      "locktime": 0,
      "vin": [
        {
          "coinbase": "04ffff001d026107",
          "sequence": 4294967295
        }
      ],
      "vout": [
        {
          "value": 50.0,
          "n": 0,
          "scriptPubKey": {
            "asm": "040e1744fd346b6b7ea7a068c6b66ef2a5cabcacba76d9756a6b63aa8b80fff3ca2cbf359ed42da03e33a690d3861b416e98af972da432890718d7f1efc5ad612b OP_CHECKSIG",
            "desc": "pk(040e1744fd346b6b7ea7a068c6b66ef2a5cabcacba76d9756a6b63aa8b80fff3ca2cbf359ed42da03e33a690d3861b416e98af972da432890718d7f1efc5ad612b)#3zutl202",
            "hex": "41040e1744fd346b6b7ea7a068c6b66ef2a5cabcacba76d9756a6b63aa8b80fff3ca2cbf359ed42da03e33a690d3861b416e98af972da432890718d7f1efc5ad612bac",
            "type": "pubkey"
          }
        }
      ],
      "hex": "01000000010000000000000000000000000000000000000000000000000000000000000000ffffffff0804ffff001d026107ffffffff0100f2052a010000004341040e1744fd346b6b7ea7a068c6b66ef2a5cabcacba76d9756a6b63aa8b80fff3ca2cbf359ed42da03e33a690d3861b416e98af972da432890718d7f1efc5ad612bac00000000"
    }
  ]
}