{
  "hash": "00000000152f06cc03da5cedf76320afe61b0e59156e04ff3ad9857e7e2a47f7",
  "confirmations": 48228,
  "height": 4870,
  "version": 1,
  "versionHex": "00000001",
  "merkleroot": "6d4f2a0509a2f3f03086033f5d986006d92a64267ded04ee09f9d650860b182e",
  "time": 1235051097,
  "mediantime": 1235047209,
  "nonce": 4245862693,
  "bits": "1d00ffff",
  "difficulty": 1,
  "chainwork": "0000000000000000000000000000000000000000000000000000130713071307",
  "nTx": 1,
  "previousblockhash": "00000000a8a4f0d56f23e2b25d89a88c7542ef6c3c4ac2027d0d2d1fac70d56f",
  "nextblockhash": "00000000f12cb4276cc223ce61b79db8fae1f3f2b1527c9fbbdd4ef7b959a2bc",
  "strippedsize": 216,
  "size": 216,
  "weight": 864,
  "tx": [
    {
      "txid": "6d4f2a0509a2f3f03086033f5d986006d92a64267ded04ee09f9d650860b182e",
      "hash": "6d4f2a0509a2f3f03086033f5d986006d92a64267ded04ee09f9d650860b182e",
      "version": 1,
      "size": 135,
      "vsize": 135,
      "weight": 540,
      "locktime": 0,
      "vin": [
        {
          "coinbase": "04ffff001d025505",
          "sequence": 4294967295
        }
      ],
      "vout": [
        {
          "value": 50.0,
          "n": 0,
          "scriptPubKey": {
            "asm": "04557eb5491a394ae3744e40272ce3113fe221d957b3e2ab57a77c9ba02e5cee4eda7cf0226a732e4a1a9295402fbf005c4fe09979a966fbe0093459a0d596ae4e OP_CHECKSIG",
            "desc": "pk(04557eb5491a394ae3744e40272ce3113fe221d957b3e2ab57a77c9ba02e5cee4eda7cf0226a732e4a1a9295402fbf005c4fe09979a966fbe0093459a0d596ae4e)#w0c9r99a",
            "hex": "4104557eb5491a394ae3744e40272ce3113fe221d957b3e2ab57a77c9ba02e5cee4eda7cf0226a732e4a1a9295402fbf005c4fe09979a966fbe0093459a0d596ae4eac",
            "type": "pubkey"
          }
        }
      ],
      "hex": "01000000010000000000000000000000000000000000000000000000000000000000000000ffffffff0804ffff001d025505ffffffff0100f2052a01000000434104557eb5491a394ae3744e40272ce3113fe221d957b3e2ab57a77c9ba02e5cee4eda7cf0226a732e4a1a9295402fbf005c4fe09979a966fbe0093459a0d596ae4eac00000000"
    }
  ]
}