{
  "hash": "0000000020d05bebefaa917fc2396feed526bba2b58bc33d0f903f65d3963213",
  "confirmations": 43205,
  "height": 9893,
  "version": 1,
  "versionHex": "00000001",
  "merkleroot": "d96cfaa21c390018827cb628ef8ea5983e4182bb722d2f353149a5cb56ef7734",
  "time": 1238919545,
  "mediantime": 1238917045,
  "nonce": 303201170,
  "bits": "1d00ffff",
  "difficulty": 1,
  "chainwork": "000000000000000000000000000000000000000000000000000026a626a626a6",
  "nTx": 1,
  "previousblockhash": "00000000c65e4d5675d3fbce1218f876bacbfb1853d8b355edd287551660c925",
  "nextblockhash": "0000000082b71f3338960f989d2c10f14cd737ae56213c59bf9a403bd030bb12",
  "strippedsize": 216,
  "size": 216,
  "weight": 864,
  "tx": [
    {
      "txid": "d96cfaa21c390018827cb628ef8ea5983e4182bb722d2f353149a5cb56ef7734",
      "hash": "d96cfaa21c390018827cb628ef8ea5983e4182bb722d2f353149a5cb56ef7734",
      "version": 1,
      "size": 135,
      "vsize": 135,
      "weight": 540,
      "locktime": 0,
      "vin": [
        {
          "coinbase": "04ffff001d027501",
          "sequence": 4294967295
        }
      ],
      "vout": [
        {
          "value": 50.0,
          "n": 0,
          "scriptPubKey": {
            "asm": "040dadfe522b220ff1d48a5be7c517d8e301ccc5d700f161abe897e4682a95508d503d7f51658d6b3f4a8236e92964426accc3e73790db89ca38c637cf255f99e2 OP_CHECKSIG",
            "desc": "pk(040dadfe522b220ff1d48a5be7c517d8e301ccc5d700f161abe897e4682a95508d503d7f51658d6b3f4a8236e92964426accc3e73790db89ca38c637cf255f99e2)#8z8ce3a2",
            "hex": "41040dadfe522b220ff1d48a5be7c517d8e301ccc5d700f161abe897e4682a95508d503d7f51658d6b3f4a8236e92964426accc3e73790db89ca38c637cf255f99e2ac",
            "type": "pubkey"
          }
        }
      ],
      "hex": "01000000010000000000000000000000000000000000000000000000000000000000000000ffffffff0804ffff001d027501ffffffff0100f2052a010000004341040dadfe522b220ff1d48a5be7c517d8e301ccc5d700f161abe897e4682a95508d503d7f51658d6b3f4a8236e92964426accc3e73790db89ca38c637cf255f99e2ac00000000"
    }
  ]
}