{
  "hash": "00000000ba63ae2eeb3d2371708291b90507c3317ef957f6fcba3811cc4fe0cc",
  "confirmations": 51912,
  "height": 70,
  "version": 1,
  "versionHex": "00000001",
  "merkleroot": "aa5f3068b53941915d82be382f2b35711305ec7d454a34ca69f8897510db7ab8",
  "time": 1231627646,
  "mediantime": 1231624503,
  "nonce": 4209394234,
  "bits": "1d00ffff",
  "difficulty": 1,
  "chainwork": "0000000000000000000000000000000000000000000000000000004700470047",
  "nTx": 1,
  "previousblockhash": "00000000ddaccd89104a83b0a28e1987a88d8f51829029cb7e18630e2575e939",
  "nextblockhash": "000000007f7cbc93a93141bb69eb7fbfad9c4682cc328da097dbcb2b77bd1457",
  "strippedsize": 216,
  "size": 216,
  "weight": 864,
  "tx": [
    {
      "txid": "aa5f3068b53941915d82be382f2b35711305ec7d454a34ca69f8897510db7ab8",
      "hash": "aa5f3068b53941915d82be382f2b35711305ec7d454a34ca69f8897510db7ab8",
      "version": 1,
      "size": 135,
      "vsize": 135,
      "weight": 540,
      "locktime": 0,
      "vin": [
        {
          "coinbase": "04ffff001d02bc00",
          "sequence": 4294967295
        }
      ],
      "vout": [
        {
          "value": 50.0,
          "n": 0,
          "scriptPubKey": {
            "asm": "048bc631c0da8fa813d18cc2cbe89559054e135bdd4a590f3a25fc66ff642e2de7f18f5f398c6f00a12df74f5a82053bfcd4ccb55bd4f231d2ffee618e7267a1c2 OP_CHECKSIG",
            "desc": "pk(048bc631c0da8fa813d18cc2cbe89559054e135bdd4a590f3a25fc66ff642e2de7f18f5f398c6f00a12df74f5a82053bfcd4ccb55bd4f231d2ffee618e7267a1c2)#0tas4ha4",
            "hex": "41048bc631c0da8fa813d18cc2cbe89559054e135bdd4a590f3a25fc66ff642e2de7f18f5f398c6f00a12df74f5a82053bfcd4ccb55bd4f231d2ffee618e7267a1c2ac",
            "type": "pubkey"
          }
        }
      ],
      "hex": "01000000010000000000000000000000000000000000000000000000000000000000000000ffffffff0804ffff001d02bc00ffffffff0100f2052a010000004341048bc631c0da8fa813d18cc2cbe89559054e135bdd4a590f3a25fc66ff642e2de7f18f5f398c6f00a12df74f5a82053bfcd4ccb55bd4f231d2ffee618e7267a1c2ac00000000"
    }
  ]
}