{
  "hash": "0000000043daed14132a6a3b129c5a87f8d8b27b818878583dcc2702fd32a479",
  "confirmations": 47397,
  "height": 5701,
  "version": 1,
  "versionHex": "00000001",
  "merkleroot": "8de8e84b5c55af528178ab0c97ab1a129caf23c96b7a207ccd82bb1780e9865f",
  "time": 1235685943,
  "mediantime": 1235683066,
  "nonce": 562295604,
  "bits": "1d00ffff",
  "difficulty": 1,
  "chainwork": "0000000000000000000000000000000000000000000000000000164616461646",
  "nTx": 1,
  "previousblockhash": "0000000092401f6c614f894c6cc1f2bc24a68c817371e82fe06cd9a954acf7dc",
  "nextblockhash": "00000000a46ae93a5a781423b03f598dc17f2f48024097a9582700d07f49bcd7",
  "strippedsize": 216,
  "size": 216,
  "weight": 864,
  "tx": [
    {
      "txid": "8de8e84b5c55af528178ab0c97ab1a129caf23c96b7a207ccd82bb1780e9865f",
      "hash": "8de8e84b5c55af528178ab0c97ab1a129caf23c96b7a207ccd82bb1780e9865f",
      "version": 1,
      "size": 135,
      "vsize": 135,
      "weight": 540,
      "locktime": 0,
      "vin": [
        {
          "coinbase": "04ffff001d027409",
          "sequence": 4294967295
        }
      ],
      "vout": [
        {
          "value": 50.0,
          "n": 0,
          "scriptPubKey": {
            "asm": "04f2269d75ff32460f1257b328106d05379304965bc6a55efb0110b83237770cb3259aa75c3edaf6e5ea204cd885dafa191dea63f6bbdcc6401785b5f0b633c0a8 OP_CHECKSIG",
            "desc": "pk(04f2269d75ff32460f1257b328106d05379304965bc6a55efb0110b83237770cb3259aa75c3edaf6e5ea204cd885dafa191dea63f6bbdcc6401785b5f0b633c0a8)#j9zpcpza",
            "hex": "4104f2269d75ff32460f1257b328106d05379304965bc6a55efb0110b83237770cb3259aa75c3edaf6e5ea204cd885dafa191dea63f6bbdcc6401785b5f0b633c0a8ac",
            "type": "pubkey"
          }
        }
      ],
      "hex": "01000000010000000000000000000000000000000000000000000000000000000000000000ffffffff0804ffff001d027409ffffffff0100f2052a01000000434104f2269d75ff32460f1257b328106d05379304965bc6a55efb0110b83237770cb3259aa75c3edaf6e5ea204cd885dafa191dea63f6bbdcc6401785b5f0b633c0a8ac00000000"
    }
  ]
}