{
  "hash": "000000008b782db48929338ef530f230f44c313fbbd39edfac1304bee1c2a6ad",
  "confirmations": 44042,
  "height": 9056,
  "version": 1,
  "versionHex": "00000001",
  "merkleroot": "d656dc6d561f8d2124543cdb9464748a15b6658b9317aba0d587a163039afa9a",
  "time": 1238298813,
  "mediantime": 1238294395,
  "nonce": 2751919640,
  "bits": "1d00ffff",
  "difficulty": 1,
  "chainwork": "0000000000000000000000000000000000000000000000000000236123612361",
  "nTx": 1,
  "previousblockhash": "00000000e25dc130fc90b0dbfff374fa88b28613cf4ea8aca73ddc0bbe56695b",
  "nextblockhash": "000000007463719f5e0ecc07bd6d5c5c0d3fd567025b1af9f545943270ea4dae",
  "strippedsize": 216,
  "size": 216,
  "weight": 864,
  "tx": [
    {
      "txid": "d656dc6d561f8d2124543cdb9464748a15b6658b9317aba0d587a163039afa9a",
      "hash": "d656dc6d561f8d2124543cdb9464748a15b6658b9317aba0d587a163039afa9a",
      "version": 1,
      "size": 135,
      "vsize": 135,
      "weight": 540,
      "locktime": 0,
      "vin": [
        {
          "coinbase": "04ffff001d026907",
          "sequence": 4294967295
        }
      ],
      "vout": [
        {
          "value": 50.0,
          "n": 0,
          "scriptPubKey": {
            "asm": "04b5ab9f588d0c4b8093b9d4c4228fb512dccc8e799800d04f7622bbafa380d4cd6fea025bfad402074f23828cbbab1da59729015fd86d961d698c0e6e15bf760b OP_CHECKSIG",
            "desc": "pk(04b5ab9f588d0c4b8093b9d4c4228fb512dccc8e799800d04f7622bbafa380d4cd6fea025bfad402074f23828cbbab1da59729015fd86d961d698c0e6e15bf760b)#awmqdmwg",
            "hex": "4104b5ab9f588d0c4b8093b9d4c4228fb512dccc8e799800d04f7622bbafa380d4cd6fea025bfad402074f23828cbbab1da59729015fd86d961d698c0e6e15bf760bac",
            "type": "pubkey"
          }
        }
      ],
      "hex": "01000000010000000000000000000000000000000000000000000000000000000000000000ffffffff0804ffff001d026907ffffffff0100f2052a01000000434104b5ab9f588d0c4b8093b9d4c4228fb512dccc8e799800d04f7622bbafa380d4cd6fea025bfad402074f23828cbbab1da59729015fd86d961d698c0e6e15bf760bac00000000"
    }
  ]
}