{
  "hash": "00000000cff5728ada1a3d63a7793cdc3d3509e4123151e0d3227845cbe64e49",
  "confirmations": 50358,
  "height": 2740,
  "version": 1,
  "versionHex": "00000001",
  "merkleroot": "66010d692481a34d8ff088fc570d702c5f26a39f217b13deb2b91d130387cc84",
  "time": 1233589478,
  "mediantime": 1233587483,
  "nonce": 148631123,
  "bits": "1d00ffff",
  "difficulty": 1,
  "chainwork": "00000000000000000000000000000000000000000000000000000ab50ab50ab5",
  "nTx": 1,
  "previousblockhash": "0000000040e7ce608d0332e893a0168ca2bad8d71c2ed33718389b63d2b9b43d",
  "nextblockhash": "00000000f7036ccdafcc809f415753cd0df2161c71cd3c12157f4fed1a4f9b00",
  "strippedsize": 215,
  "size": 215,
  "weight": 860,
  "tx": [
    {
      "txid": "66010d692481a34d8ff088fc570d702c5f26a39f217b13deb2b91d130387cc84",
      "hash": "66010d692481a34d8ff088fc570d702c5f26a39f217b13deb2b91d130387cc84",
      "version": 1,
      "size": 134,
      "vsize": 134,
      "weight": 536,
      "locktime": 0,
      "vin": [
        {
          "coinbase": "04ffff001d010a",
          "sequence": 4294967295
        }
      ],
      "vout": [
        {
          "value": 50.0,
          "n": 0,
          "scriptPubKey": {
            "asm": "046d58a59a540cf7d8ef1e55b658ebb7e6f7a312e33a92ab8f38a33df6f6b7b64ad38143fa9450742b792cc1e12fae80c74ee5883d6c7547aaef2471857ba77b39 OP_CHECKSIG",
            "desc": "pk(046d58a59a540cf7d8ef1e55b658ebb7e6f7a312e33a92ab8f38a33df6f6b7b64ad38143fa9450742b792cc1e12fae80c74ee5883d6c7547aaef2471857ba77b39)#8dw8pj02",
            "hex": "41046d58a59a540cf7d8ef1e55b658ebb7e6f7a312e33a92ab8f38a33df6f6b7b64ad38143fa9450742b792cc1e12fae80c74ee5883d6c7547aaef2471857ba77b39ac",
            "type": "pubkey"
          }
        }
      ],
      "hex": "01000000010000000000000000000000000000000000000000000000000000000000000000ffffffff0704ffff001d010affffffff0100f2052a010000004341046d58a59a540cf7d8ef1e55b658ebb7e6f7a312e33a92ab8f38a33df6f6b7b64ad38143fa9450742b792cc1e12fae80c74ee5883d6c7547aaef2471857ba77b39ac00000000"
    }
  ]
}