{
  "hash": "00000000592c1c83214b3a5fdde8b4b3f740b5ce8da27cc2d137a2f500c407a7",
  "confirmations": 48887,
  "height": 4211,
  "version": 1,
  "versionHex": "00000001",
  "merkleroot": "7b2137e60d376eac44f11f17aa468956557f673b8d5144147a18e3d515c52a1a",
  "time": 1234586268,
  "mediantime": 1234582872,
  "nonce": 712423424,
  "bits": "1d00ffff",
  "difficulty": 1,
  "chainwork": "0000000000000000000000000000000000000000000000000000107410741074",
  "nTx": 1,
  "previousblockhash": "00000000fddb775e2627f19408117ed1ca1ef3208bb299a55cd6a4c33e910ab0",
  "nextblockhash": "00000000ebce38b15bff351dc41181858bad54956124e309046fcabe2eedf431",
  "strippedsize": 216,
  "size": 216,
  "weight": 864,
  "tx": [
    {
      "txid": "7b2137e60d376eac44f11f17aa468956557f673b8d5144147a18e3d515c52a1a",
      "hash": "7b2137e60d376eac44f11f17aa468956557f673b8d5144147a18e3d515c52a1a",
      "version": 1,
      "size": 135,
      "vsize": 135,
      "weight": 540,
      "locktime": 0,
      "vin": [
        {
          "coinbase": "04ffff001d024c07",
          "sequence": 4294967295
        }
      ],
      "vout": [
        {
          "value": 50.0,
          "n": 0,
          "scriptPubKey": {
            "asm": "04a5bc663729e6a33a544635169ea70f91eb45926237a34ee62ad0ea3fc69f02074f33317396a2fd6a448cfb6ec428052b5c290472a7c2346db762ea3edba9ada7 OP_CHECKSIG",
            "desc": "pk(04a5bc663729e6a33a544635169ea70f91eb45926237a34ee62ad0ea3fc69f02074f33317396a2fd6a448cfb6ec428052b5c290472a7c2346db762ea3edba9ada7)#kg9wd6cz",
            "hex": "4104a5bc663729e6a33a544635169ea70f91eb45926237a34ee62ad0ea3fc69f02074f33317396a2fd6a448cfb6ec428052b5c290472a7c2346db762ea3edba9ada7ac",
            "type": "pubkey"
          }
        }
      ],
      "hex": "01000000010000000000000000000000000000000000000000000000000000000000000000ffffffff0804ffff001d024c07ffffffff0100f2052a01000000434104a5bc663729e6a33a544635169ea70f91eb45926237a34ee62ad0ea3fc69f02074f33317396a2fd6a448cfb6ec428052b5c290472a7c2346db762ea3edba9ada7ac00000000"
    }
  ]
}