{
  "hash": "00000000145406f7d62b54cf17a406fc3ae654516c3d581e4b55a301b060a82a",
  "confirmations": 47965,
  "height": 5133,
  "version": 1,
  "versionHex": "00000001",
  "merkleroot": "16b49f908e1400feacba2d223f9c767ae64a74848868db72dfc344b4fb3e6808",
  "time": 1235238929,
  "mediantime": 1235236732,
  "nonce": 2897698837,
  "bits": "1d00ffff",
  "difficulty": 1,
  "chainwork": "0000000000000000000000000000000000000000000000000000140e140e140e",
  "nTx": 1,
  "previousblockhash": "000000003227c42f597e6e6a77e1abfa39a271f32afa4442e3b06f99b4bea50a",
  "nextblockhash": "00000000c74f21f764aabc6088501fed78b47dacdd6adf13afb5cc756aff6162",
  "strippedsize": 216,
  "size": 216,
  "weight": 864,
  "tx": [
    {
      "txid": "16b49f908e1400feacba2d223f9c767ae64a74848868db72dfc344b4fb3e6808",
      "hash": "16b49f908e1400feacba2d223f9c767ae64a74848868db72dfc344b4fb3e6808",
      "version": 1,
      "size": 135,
      "vsize": 135,
      "weight": 540,
      "locktime": 0,
      "vin": [
        {
          "coinbase": "04ffff001d02a109",
          "sequence": 4294967295
        }
      ],
      "vout": [
        {
          "value": 50.0,
          "n": 0,
          "scriptPubKey": {
            "asm": "04ad491a041d5d0b420abb8800ba643e50f48d1ebb50a554bad30f14fff90cb992c97d10043d3f03d29bad153fbb69ab14b5c2e6d712c52d2ba35e089741d40c6a OP_CHECKSIG",
            "desc": "pk(04ad491a041d5d0b420abb8800ba643e50f48d1ebb50a554bad30f14fff90cb992c97d10043d3f03d29bad153fbb69ab14b5c2e6d712c52d2ba35e089741d40c6a)#6w4k7y26",
            "hex": "4104ad491a041d5d0b420abb8800ba643e50f48d1ebb50a554bad30f14fff90cb992c97d10043d3f03d29bad153fbb69ab14b5c2e6d712c52d2ba35e089741d40c6aac",
            "type": "pubkey"
          }
        }
      ],
      "hex": "01000000010000000000000000000000000000000000000000000000000000000000000000ffffffff0804ffff001d02a109ffffffff0100f2052a01000000434104ad491a041d5d0b420abb8800ba643e50f48d1ebb50a554bad30f14fff90cb992c97d10043d3f03d29bad153fbb69ab14b5c2e6d712c52d2ba35e089741d40c6aac00000000"
    }
  ]
}