{
  "hash": "000000008f7acf8bcd700f8e96e31a2d6a7b2e002f9fa9fbf559b520b1bd5e00",
  "confirmations": 50239,
  "height": 2859,
  "version": 1,
  "versionHex": "00000001",
  "merkleroot": "4fb1273697c5b935ed69c0ed41c51106c5bd8922579ab779f6856639f070fc9d",
  "time": 1233663360,
  "mediantime": 1233660016,
  "nonce": 4045563419,
  "bits": "1d00ffff",
  "difficulty": 1,
  "chainwork": "00000000000000000000000000000000000000000000000000000b2c0b2c0b2c",
  "nTx": 1,
  "previousblockhash": "00000000f26567b514e19d504b4ab552193273bb96cc8e4fef34ec5e4c970a47",
  "nextblockhash": "000000008d84d3d671ef1d7b3996427f6ce578098708074647d002bc8a118a36",
  "strippedsize": 216,
  "size": 216,
  "weight": 864,
  "tx": [
    {
      "txid": "4fb1273697c5b935ed69c0ed41c51106c5bd8922579ab779f6856639f070fc9d",
      "hash": "4fb1273697c5b935ed69c0ed41c51106c5bd8922579ab779f6856639f070fc9d",
      "version": 1,
      "size": 135,
      "vsize": 135,
      "weight": 540,
      "locktime": 0,
      "vin": [
        {
          "coinbase": "04ffff001d02eb06",
          "sequence": 4294967295
        }
      ],
      "vout": [
        {
          "value": 50.0,
          "n": 0,
          "scriptPubKey": {
            "asm": "0418137bec9ecf80bbf974f656a7f62e8afa0dc77699a6a84f5ed81bdb9409066bb44caffeac0695d271b014f1e35ec77a0247a1d346416d279c879d6226807830 OP_CHECKSIG",
            "desc": "pk(0418137bec9ecf80bbf974f656a7f62e8afa0dc77699a6a84f5ed81bdb9409066bb44caffeac0695d271b014f1e35ec77a0247a1d346416d279c879d6226807830)#fstlth83",
            "hex": "410418137bec9ecf80bbf974f656a7f62e8afa0dc77699a6a84f5ed81bdb9409066bb44caffeac0695d271b014f1e35ec77a0247a1d346416d279c879d6226807830ac",
            "type": "pubkey"
          }
        }
      ],
      "hex": "01000000010000000000000000000000000000000000000000000000000000000000000000ffffffff0804ffff001d02eb06ffffffff0100f2052a0100000043410418137bec9ecf80bbf974f656a7f62e8afa0dc77699a6a84f5ed81bdb9409066bb44caffeac0695d271b014f1e35ec77a0247a1d346416d279c879d6226807830ac00000000"
    }
  ]
}