{
  "hash": "000000004d15e01d3ffc495df7bb638c2b35c5b5dd0ba405615f513e3393f0c7",
  "confirmations": 46673,
  "height": 6425,
  "version": 1,
  "versionHex": "00000001",
  "merkleroot": "a4bc0a85369d04454ec7e006ece017f21549fdfe7df128d61f9f107479bfdf7e",
  "time": 1236274876,
  "mediantime": 1236270577,
  "nonce": 503566375,
  "bits": "1d00ffff",
  "difficulty": 1,
  "chainwork": "0000000000000000000000000000000000000000000000000000191a191a191a",
  "nTx": 1,
  "previousblockhash": "00000000ddc2c05eeaa044dcd039cd68c74f2747f8fe38b2f08a511634ead4a0",
  "nextblockhash": "00000000a3de4e80b0392a889bdac50393b8de5cf8e313a08d02b88fee366aa2",
  "strippedsize": 216,
  "size": 216,
  "weight": 864,
  "tx": [
    {
      "txid": "a4bc0a85369d04454ec7e006ece017f21549fdfe7df128d61f9f107479bfdf7e",
      "hash": "a4bc0a85369d04454ec7e006ece017f21549fdfe7df128d61f9f107479bfdf7e",
      "version": 1,
      "size": 135,
      "vsize": 135,
      "weight": 540,
      "locktime": 0,
      "vin": [
        {
          "coinbase": "04ffff001d024f02",
          "sequence": 4294967295
        }
      ],
      "vout": [
        {
          "value": 50.0,
          "n": 0,
          "scriptPubKey": {
            "asm": "048a5294505f44683bbc2be81e0f6a91ac1a197d6050accac393aad3b86b2398387e34fedf0de5d9f185eb3f2c17f3564b9170b9c262aa3ac91f371279beca0caf OP_CHECKSIG",
            "desc": "pk(048a5294505f44683bbc2be81e0f6a91ac1a197d6050accac393aad3b86b2398387e34fedf0de5d9f185eb3f2c17f3564b9170b9c262aa3ac91f371279beca0caf)#uyle3yq0",
            "hex": "41048a5294505f44683bbc2be81e0f6a91ac1a197d6050accac393aad3b86b2398387e34fedf0de5d9f185eb3f2c17f3564b9170b9c262aa3ac91f371279beca0cafac",
            "type": "pubkey"
          }
        }
      ],
      "hex": "01000000010000000000000000000000000000000000000000000000000000000000000000ffffffff0804ffff001d024f02ffffffff0100f2052a010000004341048a5294505f44683bbc2be81e0f6a91ac1a197d6050accac393aad3b86b2398387e34fedf0de5d9f185eb3f2c17f3564b9170b9c262aa3ac91f371279beca0cafac00000000"
    }
  ]
}