{
  "hash": "0000000008abaf6438eae0774ddfa647c468be573bc29b15cc246e7dc0f98f71",
  "confirmations": 46905,
  "height": 6193,
  "version": 1,
  "versionHex": "00000001",
  "merkleroot": "f8bb9579093476b9e103a5f6c78dcc2917a2453395cb0776b0c3a3a5f621d1a9",
  "time": 1236084986,
  "mediantime": 1236082934,
  "nonce": 145939104,
  "bits": "1d00ffff",
  "difficulty": 1,
  "chainwork": "0000000000000000000000000000000000000000000000000000183218321832",
  "nTx": 1,
  "previousblockhash": "000000000c0a5629d40dbcc118b268360d783c0794464efac2001c2c52a12781",
  "nextblockhash": "00000000bab04bff69b3da55677057033dc24032a154e3062ff626deeac5901d",
  "strippedsize": 216,
  "size": 216,
  "weight": 864,
  "tx": [
    {
      "txid": "f8bb9579093476b9e103a5f6c78dcc2917a2453395cb0776b0c3a3a5f621d1a9",
      "hash": "f8bb9579093476b9e103a5f6c78dcc2917a2453395cb0776b0c3a3a5f621d1a9",
      "version": 1,
      "size": 135,
      "vsize": 135,
      "weight": 540,
      "locktime": 0,
      "vin": [
        {
          "coinbase": "04ffff001d02f809",
          "sequence": 4294967295
        }
      ],
      "vout": [
        {
          "value": 50.0,
          "n": 0,
          "scriptPubKey": {
            "asm": "046745d9fb2620f4bd99b7c23e66e7ce976297867668e4734bb6cb45e4523b76aba8ecb1b43bf2d46ef710ec672d2e8b0583bcdd4e72521e079f36d488ef110976 OP_CHECKSIG",
            "desc": "pk(046745d9fb2620f4bd99b7c23e66e7ce976297867668e4734bb6cb45e4523b76aba8ecb1b43bf2d46ef710ec672d2e8b0583bcdd4e72521e079f36d488ef110976)#r0j4mz0p",
            "hex": "41046745d9fb2620f4bd99b7c23e66e7ce976297867668e4734bb6cb45e4523b76aba8ecb1b43bf2d46ef710ec672d2e8b0583bcdd4e72521e079f36d488ef110976ac",
            "type": "pubkey"
          }
        }
      ],
      "hex": "01000000010000000000000000000000000000000000000000000000000000000000000000ffffffff0804ffff001d02f809ffffffff0100f2052a010000004341046745d9fb2620f4bd99b7c23e66e7ce976297867668e4734bb6cb45e4523b76aba8ecb1b43bf2d46ef710ec672d2e8b0583bcdd4e72521e079f36d488ef110976ac00000000"
    }
  ]
}