{
  "hash": "00000000fb149a0767bd488d7cf9e913c1cf709d6dac767a6c77d6f9b5448ee8",
  "confirmations": 46708,
  "height": 6390,
  "version": 1,
  "versionHex": "00000001",
  "merkleroot": "dfadfb6cd2c080a3eb62c1bdbe7e508ee2489a617cda6e32a295f33171e47d71",
  "time": 1236248694,
  "mediantime": 1236245173,
  "nonce": 190627267,
  "bits": "1d00ffff",
  "difficulty": 1,
  "chainwork": "000000000000000000000000000000000000000000000000000018f718f718f7",
  "nTx": 1,
  "previousblockhash": "000000000972b748f2bf37eb8e5319cb7aa2dc9b976ded9e15a56520e7272830",
  "nextblockhash": "000000000631c2052f9da47327cd63591ea2c13ef8d0e1d74dcf9299d9a1b760",
  "strippedsize": 216,
  "size": 216,
  "weight": 864,
  "tx": [
    {
      "txid": "dfadfb6cd2c080a3eb62c1bdbe7e508ee2489a617cda6e32a295f33171e47d71",
      "hash": "dfadfb6cd2c080a3eb62c1bdbe7e508ee2489a617cda6e32a295f33171e47d71",
      "version": 1,
      "size": 135,
      "vsize": 135,
      "weight": 540,
      "locktime": 0,
      "vin": [
        {
          "coinbase": "04ffff001d02bf0a",
          "sequence": 4294967295
        }
      ],
      "vout": [
        {
          "value": 50.0,
          "n": 0,
          "scriptPubKey": {
            "asm": "045372be4705450a2aa46eba7d3737b3a4a4de30f1fdc4aba2d4a4adf4cb579307c2077345c557b94b0ef1358a174ccb7586dc187713a141e5877b4a168365b8b8 OP_CHECKSIG",
            "desc": "pk(045372be4705450a2aa46eba7d3737b3a4a4de30f1fdc4aba2d4a4adf4cb579307c2077345c557b94b0ef1358a174ccb7586dc187713a141e5877b4a168365b8b8)#qpaasw8w",
            "hex": "41045372be4705450a2aa46eba7d3737b3a4a4de30f1fdc4aba2d4a4adf4cb579307c2077345c557b94b0ef1358a174ccb7586dc187713a141e5877b4a168365b8b8ac",
            "type": "pubkey"
          }
        }
      ],
      "hex": "01000000010000000000000000000000000000000000000000000000000000000000000000ffffffff0804ffff001d02bf0affffffff0100f2052a010000004341045372be4705450a2aa46eba7d3737b3a4a4de30f1fdc4aba2d4a4adf4cb579307c2077345c557b94b0ef1358a174ccb7586dc187713a141e5877b4a168365b8b8ac00000000"
    }
  ]
}