{
  "hash": "00000000e531b9fdf75dcba6ef7104c4e1659e8820ac46b3d6a530273b1535ee",
  "confirmations": 44721,
  "height": 8377,
  "version": 1,
  "versionHex": "00000001",
  "merkleroot": "672f1ec71ef19c72b580e57c07b1488d23c34450f9b0f880d4421e05844b9b2e",
  "time": 1237784124,
  "mediantime": 1237780245,
  "nonce": 3240736041,
  "bits": "1d00ffff",
  "difficulty": 1,
  "chainwork": "000000000000000000000000000000000000000000000000000020ba20ba20ba",
  "nTx": 1,
  "previousblockhash": "000000009c6ede99417e884dcebfe5a15dfae6bfabb8d8a2a25b3e38e242ef25",
  "nextblockhash": "00000000cc78142e54229e5edbd14652b38462c85b9bfad7817564a777636424",
  "strippedsize": 216,
  "size": 216,
  "weight": 864,
  "tx": [
    {
      "txid": "672f1ec71ef19c72b580e57c07b1488d23c34450f9b0f880d4421e05844b9b2e",
      "hash": "672f1ec71ef19c72b580e57c07b1488d23c34450f9b0f880d4421e05844b9b2e",
      "version": 1,
      "size": 135,
      "vsize": 135,
      "weight": 540,
      "locktime": 0,
      "vin": [
        {
          "coinbase": "04ffff001d027705",
          "sequence": 4294967295
        }
      ],
      "vout": [
        {
          "value": 50.0,
          "n": 0,
          "scriptPubKey": {
            "asm": "04aa74458c977ac39c64b9b1ebec463e5a96944647c2a4c884529572c96e42e79fe9c0feddfe94ec89bf3bc24b8e43df1dc4e0c4b5b57f4c75d22ffd3d3bbcc483 OP_CHECKSIG",
            "desc": "pk(04aa74458c977ac39c64b9b1ebec463e5a96944647c2a4c884529572c96e42e79fe9c0feddfe94ec89bf3bc24b8e43df1dc4e0c4b5b57f4c75d22ffd3d3bbcc483)#lnvfdp5r",
            "hex": "4104aa74458c977ac39c64b9b1ebec463e5a96944647c2a4c884529572c96e42e79fe9c0feddfe94ec89bf3bc24b8e43df1dc4e0c4b5b57f4c75d22ffd3d3bbcc483ac",
            "type": "pubkey"
          }
        }
      ],
      "hex": "01000000010000000000000000000000000000000000000000000000000000000000000000ffffffff0804ffff001d027705ffffffff0100f2052a01000000434104aa74458c977ac39c64b9b1ebec463e5a96944647c2a4c884529572c96e42e79fe9c0feddfe94ec89bf3bc24b8e43df1dc4e0c4b5b57f4c75d22ffd3d3bbcc483ac00000000"
    }
  ]
}