{
  "hash": "000000006fb3f114e0b57276b80d7426f982f58589b9bc664e2b1ede88bb46b0",
  "confirmations": 45051,
  "height": 8047,
  "version": 1,
  "versionHex": "00000001",
  "merkleroot": "3bd90d8096176dbbbd166414f30a405a6dece9b0cc2578fc7cb15203692fc6af",
  "time": 1237495440,
  "mediantime": 1237490718,
  "nonce": 781103647,
  "bits": "1d00ffff",
  "difficulty": 1,
  "chainwork": "00000000000000000000000000000000000000000000000000001f701f701f70",
  "nTx": 1,
  "previousblockhash": "00000000ca9c0a2d6b297c9569d1d8d0be7154fa5cbc2a3aa3289d50765498bd",
  "nextblockhash": "00000000bc69cdb796f26d8db9cdb97f10520513595d8b85f34adaa38557f2de",
  "strippedsize": 215,
  "size": 215,
  "weight": 860,
  "tx": [
    {
      "txid": "3bd90d8096176dbbbd166414f30a405a6dece9b0cc2578fc7cb15203692fc6af",
      "hash": "3bd90d8096176dbbbd166414f30a405a6dece9b0cc2578fc7cb15203692fc6af",
      "version": 1,
      "size": 134,
      "vsize": 134,
      "weight": 536,
      "locktime": 0,
      "vin": [
        {
          "coinbase": "04ffff001d0106",
          "sequence": 4294967295
        }
      ],
      "vout": [
        {
          "value": 50.0,
          "n": 0,
          "scriptPubKey": {
            "asm": "04c749e16c9b35295406596956190d640f4f87cb598e19243c09fd3c332afa32ac3c7a3cbf7024c394c8fbf401cb678cd659992b1417298fa1f71ba2393b354097 OP_CHECKSIG",
            "desc": "pk(04c749e16c9b35295406596956190d640f4f87cb598e19243c09fd3c332afa32ac3c7a3cbf7024c394c8fbf401cb678cd659992b1417298fa1f71ba2393b354097)#mx6qdc8y",
            "hex": "4104c749e16c9b35295406596956190d640f4f87cb598e19243c09fd3c332afa32ac3c7a3cbf7024c394c8fbf401cb678cd659992b1417298fa1f71ba2393b354097ac",
            "type": "pubkey"
          }
        }
      ],
      "hex": "01000000010000000000000000000000000000000000000000000000000000000000000000ffffffff0704ffff001d0106ffffffff0100f2052a01000000434104c749e16c9b35295406596956190d640f4f87cb598e19243c09fd3c332afa32ac3c7a3cbf7024c394c8fbf401cb678cd659992b1417298fa1f71ba2393b354097ac00000000"
    }
  ]
}