{
  "hash": "00000000008cd551822768cf78bfd9ffdc68471338636ce7cfb5b22822f0aa74",
  "confirmations": 47105,
  "height": 5993,
  "version": 1,
  "versionHex": "00000001",
  "merkleroot": "4f33bc83113594a1de7605b4c870fa5d140db0ace758dd59e6cfd5f6280f8e08",
  "time": 1235922316,
  "mediantime": 1235919223,
  "nonce": 840723493,
  "bits": "1d00ffff",
  "difficulty": 1,
  "chainwork": "0000000000000000000000000000000000000000000000000000176a176a176a",
  "nTx": 1,
  "previousblockhash": "000000000b2c1d0ce75fe618d605ae55865d82fc045f959ddff2c839e66f3e52",
  "nextblockhash": "00000000967f7ac20907833790bbcb4f4736b6a65caa0b17889c6545c73854db",
  "strippedsize": 216,
  "size": 216,
  "weight": 864,
  "tx": [
    {
      "txid": "4f33bc83113594a1de7605b4c870fa5d140db0ace758dd59e6cfd5f6280f8e08",
      "hash": "4f33bc83113594a1de7605b4c870fa5d140db0ace758dd59e6cfd5f6280f8e08",
      "version": 1,
      "size": 135,
      "vsize": 135,
      "weight": 540,
      "locktime": 0,
      "vin": [
        {
          "coinbase": "04ffff001d02d704",
          "sequence": 4294967295
        }
      ],
      "vout": [
        {
          "value": 50.0,
          "n": 0,
          "scriptPubKey": {
            "asm": "04b5c623c1a06a6e5cfddf5e850c6e14016b8eea8da441089a362c3c87e7880297bf1f503528b31b48c74a4f6d04336a9465db14ee33c8a4d94ad6804709628929 OP_CHECKSIG",
            "desc": "pk(04b5c623c1a06a6e5cfddf5e850c6e14016b8eea8da441089a362c3c87e7880297bf1f503528b31b48c74a4f6d04336a9465db14ee33c8a4d94ad6804709628929)#wk3t8tes",
            "hex": "4104b5c623c1a06a6e5cfddf5e850c6e14016b8eea8da441089a362c3c87e7880297bf1f503528b31b48c74a4f6d04336a9465db14ee33c8a4d94ad6804709628929ac",
            "type": "pubkey"
          }
        }
      ],
      "hex": "01000000010000000000000000000000000000000000000000000000000000000000000000ffffffff0804ffff001d02d704ffffffff0100f2052a01000000434104b5c623c1a06a6e5cfddf5e850c6e14016b8eea8da441089a362c3c87e7880297bf1f503528b31b48c74a4f6d04336a9465db14ee33c8a4d94ad6804709628929ac00000000"
    }
  ]
}