{
  "hash": "00000000c16493f14a748fc3d3ca9e4710e066bd11beed460af5e22b431272c5",
  "confirmations": 48265,
  "height": 4833,
  "version": 1,
  "versionHex": "00000001",
  "merkleroot": "f913bace2443b3801f77b73436adc13a41cb9e1ed069a4e4d30a87875b672e41",
  "time": 1235020944,
  "mediantime": 1235018159,
  "nonce": 4239826457,
  "bits": "1d00ffff",
  "difficulty": 1,
  "chainwork": "000000000000000000000000000000000000000000000000000012e212e212e2",
  "nTx": 1,
  "previousblockhash": "0000000016f66f0d2df87801739dac3a8f21ca0e196ced718251a50f4ce25605",
  "nextblockhash": "00000000b161ef794d7dd6593693111ea55fcf8093c1344f03dde78c9218d83f",
  "strippedsize": 216,
  "size": 216,
  "weight": 864,
  "tx": [
    {
      "txid": "f913bace2443b3801f77b73436adc13a41cb9e1ed069a4e4d30a87875b672e41",
      "hash": "f913bace2443b3801f77b73436adc13a41cb9e1ed069a4e4d30a87875b672e41",
      "version": 1,
      "size": 135,
      "vsize": 135,
      "weight": 540,
      "locktime": 0,
      "vin": [
        {
          "coinbase": "04ffff001d02bb04",
          "sequence": 4294967295
        }
      ],
      "vout": [
        {
          "value": 50.0,
          "n": 0,
          "scriptPubKey": {
            "asm": "046e4c1b863af5053e0b8ad2167feae01f8fae30ad9ca8c338f869b142ed45390f662a4a9f9faffe12f5b5e9320e58c89882ee3348a6d0c43787da112b645189c0 OP_CHECKSIG",
            "desc": "pk(046e4c1b863af5053e0b8ad2167feae01f8fae30ad9ca8c338f869b142ed45390f662a4a9f9faffe12f5b5e9320e58c89882ee3348a6d0c43787da112b645189c0)#3lcf0p8h",
            "hex": "41046e4c1b863af5053e0b8ad2167feae01f8fae30ad9ca8c338f869b142ed45390f662a4a9f9faffe12f5b5e9320e58c89882ee3348a6d0c43787da112b645189c0ac",
            "type": "pubkey"
          }
        }
      ],
      "hex": "01000000010000000000000000000000000000000000000000000000000000000000000000ffffffff0804ffff001d02bb04ffffffff0100f2052a010000004341046e4c1b863af5053e0b8ad2167feae01f8fae30ad9ca8c338f869b142ed45390f662a4a9f9faffe12f5b5e9320e58c89882ee3348a6d0c43787da112b645189c0ac00000000"
    }
  ]
}