{
  "hash": "000000000b4d76d68f8be883d7ec1ab435fb15a971edee8ca2fa8d2c3312199b",
  "confirmations": 51554,
  "height": 1544,
  "version": 1,
  "versionHex": "00000001",
  "merkleroot": "6ed64a0f08c50bd9850f4441b8653aa4832367161cd6a64c9e2643a05b5d861d",
  "time": 1232786182,
  "mediantime": 1232783826,
  "nonce": 31003416,
  "bits": "1d00ffff",
  "difficulty": 1,
  "chainwork": "0000000000000000000000000000000000000000000000000000060906090609",
  "nTx": 1,
  "previousblockhash": "000000005a5e6d40fd311ae05907a5672db2947f1a2272750b95734f7508b4d5",
  "nextblockhash": "00000000ab1351eb7cc4e628402c721dd8a0ed1fc52ab1981d0fbdf4076565b7",
  "strippedsize": 216,
  "size": 216,
  "weight": 864,
  "tx": [
    {
      "txid": "6ed64a0f08c50bd9850f4441b8653aa4832367161cd6a64c9e2643a05b5d861d",
      "hash": "6ed64a0f08c50bd9850f4441b8653aa4832367161cd6a64c9e2643a05b5d861d",
      "version": 1,
      "size": 135,
      "vsize": 135,
      "weight": 540,
      "locktime": 0,
      "vin": [
        {
          "coinbase": "04ffff001d028f01",
          "sequence": 4294967295
        }
      ],
      "vout": [
        {
          "value": 50.0,
          "n": 0,
          "scriptPubKey": {
            "asm": "043febc26c93d8c990506db19f8584fcc02ccb92261446678a628c4dca7015c4a722f5e4f8a599f0b3a5a95a7e16ca73edc20f3d800a95d7b9665c8692a1d5c491 OP_CHECKSIG",
            "desc": "pk(043febc26c93d8c990506db19f8584fcc02ccb92261446678a628c4dca7015c4a722f5e4f8a599f0b3a5a95a7e16ca73edc20f3d800a95d7b9665c8692a1d5c491)#8lnj5hjy",
            "hex": "41043febc26c93d8c990506db19f8584fcc02ccb92261446678a628c4dca7015c4a722f5e4f8a599f0b3a5a95a7e16ca73edc20f3d800a95d7b9665c8692a1d5c491ac",
            "type": "pubkey"
          }
        }
      ],
      "hex": "01000000010000000000000000000000000000000000000000000000000000000000000000ffffffff0804ffff001d028f01ffffffff0100f2052a010000004341043febc26c93d8c990506db19f8584fcc02ccb92261446678a628c4dca7015c4a722f5e4f8a599f0b3a5a95a7e16ca73edc20f3d800a95d7b9665c8692a1d5c491ac00000000"
    }
  ]
}