{
  "hash": "00000000cdef22c0d89e140279d58000e440a8f3d6dfc44fd3840f9eaaf58e49",
  "confirmations": 44827,
  "height": 8271,
  "version": 1,
  "versionHex": "00000001",
  "merkleroot": "370d7c31297b6abc9d49179d8158228e46b1dea007b1ccb167ef8b011b357305",
  "time": 1237714277,
  "mediantime": 1237709596,
  "nonce": 4083825685,
  "bits": "1d00ffff",
  "difficulty": 1,
  "chainwork": "0000000000000000000000000000000000000000000000000000205020502050",
  "nTx": 1,
  "previousblockhash": "00000000ff7249c52e99c96c400b26e71c6d406d65a6da82e1efaa43603d9527",
  "nextblockhash": "000000001ff450da45e13d764bf5073e00349bd2741cc4241300dcb1eca94037",
  "strippedsize": 216,
  "size": 216,
  "weight": 864,
  "tx": [
    {
      "txid": "370d7c31297b6abc9d49179d8158228e46b1dea007b1ccb167ef8b011b357305",
      "hash": "370d7c31297b6abc9d49179d8158228e46b1dea007b1ccb167ef8b011b357305",
      "version": 1,
      "size": 135,
      "vsize": 135,
      "weight": 540,
      "locktime": 0,
      "vin": [
        {
          "coinbase": "04ffff001d02d303",
          "sequence": 4294967295
        }
      ],
      "vout": [
        {
          "value": 50.0,
          "n": 0,
          "scriptPubKey": {
            "asm": "04e8a809fc57a9f19a10ff4664dcc5464e31493ec72db3f92bf07cb5a05e70bb680e0da70501a59b7fe7b3d98ca4fd5e97cf9c6164bc3a89aa6bc12b52f2e32a0e OP_CHECKSIG",
            "desc": "pk(04e8a809fc57a9f19a10ff4664dcc5464e31493ec72db3f92bf07cb5a05e70bb680e0da70501a59b7fe7b3d98ca4fd5e97cf9c6164bc3a89aa6bc12b52f2e32a0e)#jqz24l3z",
            "hex": "4104e8a809fc57a9f19a10ff4664dcc5464e31493ec72db3f92bf07cb5a05e70bb680e0da70501a59b7fe7b3d98ca4fd5e97cf9c6164bc3a89aa6bc12b52f2e32a0eac",
            "type": "pubkey"
          }
        }
      ],
      "hex": "01000000010000000000000000000000000000000000000000000000000000000000000000ffffffff0804ffff001d02d303ffffffff0100f2052a01000000434104e8a809fc57a9f19a10ff4664dcc5464e31493ec72db3f92bf07cb5a05e70bb680e0da70501a59b7fe7b3d98ca4fd5e97cf9c6164bc3a89aa6bc12b52f2e32a0eac00000000"
    }
  ]
}