{
  "hash": "000000005aa3c1eeadbe8f57e0688f31c19309d17ad649a1e8ea2243895ce565",
  "confirmations": 44063,
  "height": 9035,
  "version": 1,
  "versionHex": "00000001",
  "merkleroot": "5f27d4b09cbc6d8720345a6c31b94a14ae2900476f3ec561e42aaf0d1d839465",
  "time": 1238277771,
  "mediantime": 1238273739,
  "nonce": 3635079171,
  "bits": "1d00ffff",
  "difficulty": 1,
  "chainwork": "0000000000000000000000000000000000000000000000000000234c234c234c",
  "nTx": 1,
  "previousblockhash": "00000000e0f76cad79c0bb4af567f920bafd257ed493fb86e502447e5f66ab99",
  "nextblockhash": "000000008cdfaf5111efc7d95cd524aaf23d1f62ec41482cd1234fb019c898aa",
  "strippedsize": 216,
  "size": 216,
  "weight": 864,
  "tx": [
    {
      "txid": "5f27d4b09cbc6d8720345a6c31b94a14ae2900476f3ec561e42aaf0d1d839465",
      "hash": "5f27d4b09cbc6d8720345a6c31b94a14ae2900476f3ec561e42aaf0d1d839465",
      "version": 1,
      "size": 135,
      "vsize": 135,
      "weight": 540,
      "locktime": 0,
      "vin": [
        {
          "coinbase": "04ffff001d02f306",
          "sequence": 4294967295
        }
      ],
      "vout": [
        {
          "value": 50.0,
          "n": 0,
          "scriptPubKey": {
            "asm": "0452322b4fe6feaab6823b6f1dc49e4571f58af52c85f8677c34a682d5f449d5cac57f369bc31a05e0ecf82c5341e9164dba9590d94afb70b8bb6ef8f6a858b527 OP_CHECKSIG",
            "desc": "pk(0452322b4fe6feaab6823b6f1dc49e4571f58af52c85f8677c34a682d5f449d5cac57f369bc31a05e0ecf82c5341e9164dba9590d94afb70b8bb6ef8f6a858b527)#m8xqpstx",
            "hex": "410452322b4fe6feaab6823b6f1dc49e4571f58af52c85f8677c34a682d5f449d5cac57f369bc31a05e0ecf82c5341e9164dba9590d94afb70b8bb6ef8f6a858b527ac",
            "type": "pubkey"
          }
        }
      ],
      "hex": "01000000010000000000000000000000000000000000000000000000000000000000000000ffffffff0804ffff001d02f306ffffffff0100f2052a0100000043410452322b4fe6feaab6823b6f1dc49e4571f58af52c85f8677c34a682d5f449d5cac57f369bc31a05e0ecf82c5341e9164dba9590d94afb70b8bb6ef8f6a858b527ac00000000"
    }
  ]
}