{
  "hash": "00000000c1b8eeb553c7a471dfb0c746af982028506650af6c8551027d95703a",
  "confirmations": 43481,
  "height": 9617,
  "version": 1,
  "versionHex": "00000001",
  "merkleroot": "ffbbf4f1b155434326a6e14794ac2251a16368cee2a57e36dce2f14c7ca5d7e6",
  "time": 1238715630,
  "mediantime": 1238709955,
  "nonce": 536746500,
  "bits": "1d00ffff",
  "difficulty": 1,
  "chainwork": "0000000000000000000000000000000000000000000000000000259225922592",
  "nTx": 1,
  "previousblockhash": "00000000d27bc35124bd508ccbf9be678378e5566ac8345a076210cea2c44216",
  "nextblockhash": "000000009d115087626388c2b1e9d115259d0eaeee9a555716352c506203bc52",
  "strippedsize": 216,
  "size": 216,
  "weight": 864,
  "tx": [
    {
      "txid": "ffbbf4f1b155434326a6e14794ac2251a16368cee2a57e36dce2f14c7ca5d7e6",
      "hash": "ffbbf4f1b155434326a6e14794ac2251a16368cee2a57e36dce2f14c7ca5d7e6",
      "version": 1,
      "size": 135,
      "vsize": 135,
      "weight": 540,
      "locktime": 0,
      "vin": [
        {
          "coinbase": "04ffff001d025e07",
          "sequence": 4294967295
        }
      ],
      "vout": [
        {
          "value": 50.0,
          "n": 0,
          "scriptPubKey": {
            "asm": "048c243a1be76fbe5f8c80520e0e76e43ed69ada6fd90a4f4875aba594bf38ea390ea22e8fd723b2eb6e446535ad09ecdc465e5d2e2b289ade7aa791527bd35221 OP_CHECKSIG",
            "desc": "pk(048c243a1be76fbe5f8c80520e0e76e43ed69ada6fd90a4f4875aba594bf38ea390ea22e8fd723b2eb6e446535ad09ecdc465e5d2e2b289ade7aa791527bd35221)#0tgsj8zj",
            "hex": "41048c243a1be76fbe5f8c80520e0e76e43ed69ada6fd90a4f4875aba594bf38ea390ea22e8fd723b2eb6e446535ad09ecdc465e5d2e2b289ade7aa791527bd35221ac",
            "type": "pubkey"
          }
        }
      ],
      "hex": "01000000010000000000000000000000000000000000000000000000000000000000000000ffffffff0804ffff001d025e07ffffffff0100f2052a010000004341048c243a1be76fbe5f8c80520e0e76e43ed69ada6fd90a4f4875aba594bf38ea390ea22e8fd723b2eb6e446535ad09ecdc465e5d2e2b289ade7aa791527bd35221ac00000000"
    }
  ]
}