{
  "hash": "00000000fb24bae51783091ab736aa5a71c6a87fa1e44816236e9a6e97f8dee0",
  "confirmations": 47810,
  "height": 5288,
  "version": 1,
  "versionHex": "00000001",
  "merkleroot": "3f054732575a37d85ba5c01f3019df310c9b2973bc55122eabd4a450d8386673",
  "time": 1235350314,
  "mediantime": 1235346823,
  "nonce": 127080796,
  "bits": "1d00ffff",
  "difficulty": 1,
  "chainwork": "000000000000000000000000000000000000000000000000000014a914a914a9",
  "nTx": 1,
  "previousblockhash": "000000006dcc7b6f3aabef0115fed3a5f7686157f6827a8e1d246cedc9e6c387",
  "nextblockhash": "0000000020bebe565f9bde8453ce1394de77844a370a3bb9f81e91fa7237ce7b",
  "strippedsize": 216,
  "size": 216,
  "weight": 864,
  "tx": [
    {
      "txid": "3f054732575a37d85ba5c01f3019df310c9b2973bc55122eabd4a450d8386673",
      "hash": "3f054732575a37d85ba5c01f3019df310c9b2973bc55122eabd4a450d8386673",
      "version": 1,
      "size": 135,
      "vsize": 135,
      "weight": 540,
      "locktime": 0,
      "vin": [
        {
          "coinbase": "04ffff001d028700",
          "sequence": 4294967295
        }
      ],
      "vout": [
        {
          "value": 50.0,
          "n": 0,
          "scriptPubKey": {
            "asm": "045d15c628f4837fe7d26d4936ec0bf8de85940f2ac9b5611e09ee1e61b20a98af1f0ca6326004deb44fece47c9a683c05d25e2f73ea044ba0ccb0e05a352c0f0f OP_CHECKSIG",
            "desc": "pk(045d15c628f4837fe7d26d4936ec0bf8de85940f2ac9b5611e09ee1e61b20a98af1f0ca6326004deb44fece47c9a683c05d25e2f73ea044ba0ccb0e05a352c0f0f)#k7x79tvc",
            "hex": "41045d15c628f4837fe7d26d4936ec0bf8de85940f2ac9b5611e09ee1e61b20a98af1f0ca6326004deb44fece47c9a683c05d25e2f73ea044ba0ccb0e05a352c0f0fac",
            "type": "pubkey"
          }
        }
      ],
      "hex": "01000000010000000000000000000000000000000000000000000000000000000000000000ffffffff0804ffff001d028700ffffffff0100f2052a010000004341045d15c628f4837fe7d26d4936ec0bf8de85940f2ac9b5611e09ee1e61b20a98af1f0ca6326004deb44fece47c9a683c05d25e2f73ea044ba0ccb0e05a352c0f0fac00000000"
    }
  ]
}