{
  "hash": "0000000048d94d7593faa1ced189bb2ebc83a5b4220566ab05b399b93aefee88",
  "confirmations": 43873,
  "height": 9225,
  "version": 1,
  "versionHex": "00000001",
  "merkleroot": "2df6f8741629316a3b57466d686083b22d1b7b2a0ff39bbf85589d4370c8fc29",
  "time": 1238417721,
  "mediantime": 1238415862,
  "nonce": 2515855905,
  "bits": "1d00ffff",
  "difficulty": 1,
  "chainwork": "0000000000000000000000000000000000000000000000000000240a240a240a",
  "nTx": 1,
  "previousblockhash": "0000000080d012f6ffe5c8839ed6119ea94c0cf8f64c58079a38fcf5ff86e64c",
  "nextblockhash": "00000000ec6faad2613354c3b252afee19ed570f623870a04025653966e269ee",
  "strippedsize": 215,
  "size": 215,
  "weight": 860,
  "tx": [
    {
      "txid": "2df6f8741629316a3b57466d686083b22d1b7b2a0ff39bbf85589d4370c8fc29",
      "hash": "2df6f8741629316a3b57466d686083b22d1b7b2a0ff39bbf85589d4370c8fc29",
      "version": 1,
      "size": 134,
      "vsize": 134,
      "weight": 536,
      "locktime": 0,
      "vin": [
        {
          "coinbase": "04ffff001d0169",
          "sequence": 4294967295
        }
      ],
      "vout": [
        {
          "value": 50.0,
          "n": 0,
          "scriptPubKey": {
            "asm": "04086716ef8cfe1771d18032897df60378ced20096e6428ae4a4da07ff138f5f1a3cedfa7c88cf194d5bb6843de266054da4d660aa73bb73bfd5c8b5a70b82d6e4 OP_CHECKSIG",
            "desc": "pk(04086716ef8cfe1771d18032897df60378ced20096e6428ae4a4da07ff138f5f1a3cedfa7c88cf194d5bb6843de266054da4d660aa73bb73bfd5c8b5a70b82d6e4)#c48azlln",
            "hex": "4104086716ef8cfe1771d18032897df60378ced20096e6428ae4a4da07ff138f5f1a3cedfa7c88cf194d5bb6843de266054da4d660aa73bb73bfd5c8b5a70b82d6e4ac",
            "type": "pubkey"
          }
        }
      ],
      "hex": "01000000010000000000000000000000000000000000000000000000000000000000000000ffffffff0704ffff001d0169ffffffff0100f2052a01000000434104086716ef8cfe1771d18032897df60378ced20096e6428ae4a4da07ff138f5f1a3cedfa7c88cf194d5bb6843de266054da4d660aa73bb73bfd5c8b5a70b82d6e4ac00000000"
    }
  ]
}