{
  "hash": "000000003c9c8d0185102c53eb1811fd8dd975706e9d748d5660cf9006e65374",
  "confirmations": 46289,
  "height": 6809,
  "version": 1,
  "versionHex": "00000001",
  "merkleroot": "7fcf6b02f5278da6f44c8379675dd2a766bcdea207affdf34edd89a969fd1fe7",
  "time": 1236563743,
  "mediantime": 1236561458,
  "nonce": 212443043,
  "bits": "1d00ffff",
  "difficulty": 1,
  "chainwork": "00000000000000000000000000000000000000000000000000001a9a1a9a1a9a",
  "nTx": 1,
  "previousblockhash": "00000000b8e71af6d32ec5db11ecab6c9a2f24c282ab0fd7adee94d8c9d38566",
  "nextblockhash": "0000000094b37d49514f3cb37c56dc0f54dbbae4b50172a8bc0b1265ef74701a",
  "strippedsize": 216,
  "size": 216,
  "weight": 864,
  "tx": [
    {
      "txid": "7fcf6b02f5278da6f44c8379675dd2a766bcdea207affdf34edd89a969fd1fe7",
      "hash": "7fcf6b02f5278da6f44c8379675dd2a766bcdea207affdf34edd89a969fd1fe7",
      "version": 1,
      "size": 135,
      "vsize": 135,
      "weight": 540,
      "locktime": 0,
      "vin": [
        {
          "coinbase": "04ffff001d02650c",
          "sequence": 4294967295
        }
      ],
      "vout": [
        {
          "value": 50.0,
          "n": 0,
          "scriptPubKey": {
            "asm": "04fa02a5428b5606f7139501ff10c44e0535d4769be0f7fda0f50ae6790a7d7492a341184e03cc2e6ad8bb7dff0bd4ccaef73c186ffac4f8989b6e0578f99a747d OP_CHECKSIG",
            "desc": "pk(04fa02a5428b5606f7139501ff10c44e0535d4769be0f7fda0f50ae6790a7d7492a341184e03cc2e6ad8bb7dff0bd4ccaef73c186ffac4f8989b6e0578f99a747d)#cdg4rrnm",
            "hex": "4104fa02a5428b5606f7139501ff10c44e0535d4769be0f7fda0f50ae6790a7d7492a341184e03cc2e6ad8bb7dff0bd4ccaef73c186ffac4f8989b6e0578f99a747dac",
            "type": "pubkey"
          }
        }
      ],
      "hex": "01000000010000000000000000000000000000000000000000000000000000000000000000ffffffff0804ffff001d02650cffffffff0100f2052a01000000434104fa02a5428b5606f7139501ff10c44e0535d4769be0f7fda0f50ae6790a7d7492a341184e03cc2e6ad8bb7dff0bd4ccaef73c186ffac4f8989b6e0578f99a747dac00000000"
    }
  ]
}