{
  "hash": "000000006c7010bbbcf0a3799dc409ba75543e9beb4345e9532cab613d6f7d5e",
  "confirmations": 50830,
  "height": 2268,
  "version": 1,
  "versionHex": "00000001",
  "merkleroot": "95f70baf2c5d58a1e22a01fb2e609cd77cbd5f288748f1375e4856249b4a5169",
  "time": 1233258943,
  "mediantime": 1233254057,
  "nonce": 2263058969,
  "bits": "1d00ffff",
  "difficulty": 1,
  "chainwork": "000000000000000000000000000000000000000000000000000008dd08dd08dd",
  "nTx": 1,
  "previousblockhash": "000000007c150a245e1c17f799f07529a601d2fc2d272e86184f82ee6188d13e",
  "nextblockhash": "00000000d3417c47b11a373e29e81f67c648f3018e9419f5388e5d8152ae778e",
  "strippedsize": 216,
  "size": 216,
  "weight": 864,
  "tx": [
    {
      "txid": "95f70baf2c5d58a1e22a01fb2e609cd77cbd5f288748f1375e4856249b4a5169",
      "hash": "95f70baf2c5d58a1e22a01fb2e609cd77cbd5f288748f1375e4856249b4a5169",
      "version": 1,
      "size": 135,
      "vsize": 135,
      "weight": 540,
      "locktime": 0,
      "vin": [
        {
          "coinbase": "04ffff001d023601",
          "sequence": 4294967295
        }
      ],
      "vout": [
        {
          "value": 50.0,
          "n": 0,
          "scriptPubKey": {
            "asm": "041f21bcc7aab82f0909243d784212b3d2c1f17d518108005b543be80b5abc3fe46cc1a8b92048994e6cfcaf9e617b861107f6ba0cdc9d111b18c9db84dccedf6b OP_CHECKSIG",
            "desc": "pk(041f21bcc7aab82f0909243d784212b3d2c1f17d518108005b543be80b5abc3fe46cc1a8b92048994e6cfcaf9e617b861107f6ba0cdc9d111b18c9db84dccedf6b)#6k3clana",
            "hex": "41041f21bcc7aab82f0909243d784212b3d2c1f17d518108005b543be80b5abc3fe46cc1a8b92048994e6cfcaf9e617b861107f6ba0cdc9d111b18c9db84dccedf6bac",
            "type": "pubkey"
          }
        }
      ],
      "hex": "01000000010000000000000000000000000000000000000000000000000000000000000000ffffffff0804ffff001d023601ffffffff0100f2052a010000004341041f21bcc7aab82f0909243d784212b3d2c1f17d518108005b543be80b5abc3fe46cc1a8b92048994e6cfcaf9e617b861107f6ba0cdc9d111b18c9db84dccedf6bac00000000"
    }
  ]
}