{
  "hash": "000000002ff461e227186231070823e34c522dbc56f60dc2138f134a5e867d0b",
  "confirmations": 50451,
  "height": 2647,
  "version": 1,
  "versionHex": "00000001",
  "merkleroot": "69f53d266cf27cad0a242e947240e1255662343d63e0bb3d829e78dcc88ef5a7",
  "time": 1233523978,
  "mediantime": 1233521499,
  "nonce": 3311276056,
  "bits": "1d00ffff",
  "difficulty": 1,
  "chainwork": "00000000000000000000000000000000000000000000000000000a580a580a58",
  "nTx": 1,
  "previousblockhash": "00000000eb901ccbac335c161fe3c4ac12e913889739b606ab2c1b98df6ffd41",
  "nextblockhash": "00000000d7ad7a2573998232edbb6fa3dd5a1da6cffbd6ad3246467ca5465234",
  "strippedsize": 216,
  "size": 216,
  "weight": 864,
  "tx": [
    {
      "txid": "69f53d266cf27cad0a242e947240e1255662343d63e0bb3d829e78dcc88ef5a7",
      "hash": "69f53d266cf27cad0a242e947240e1255662343d63e0bb3d829e78dcc88ef5a7",
      "version": 1,
      "size": 135,
      "vsize": 135,
      "weight": 540,
      "locktime": 0,
      "vin": [
        {
          "coinbase": "04ffff001d02d303",
          "sequence": 4294967295
        }
      ],
      "vout": [
        {
          "value": 50.0,
          "n": 0,
          "scriptPubKey": {
            "asm": "0438b108f006d9c826df1baf4d18aa4d82dda3619b02ed6c6d2205397e604ae58ea16a9d7a156a0b26c766e19298ca2f33bd6edaae2d109f9c3dcf9e3f082ad5b9 OP_CHECKSIG",
            "desc": "pk(0438b108f006d9c826df1baf4d18aa4d82dda3619b02ed6c6d2205397e604ae58ea16a9d7a156a0b26c766e19298ca2f33bd6edaae2d109f9c3dcf9e3f082ad5b9)#zh2taue3",
            "hex": "410438b108f006d9c826df1baf4d18aa4d82dda3619b02ed6c6d2205397e604ae58ea16a9d7a156a0b26c766e19298ca2f33bd6edaae2d109f9c3dcf9e3f082ad5b9ac",
            "type": "pubkey"
          }
        }
      ],
      "hex": "01000000010000000000000000000000000000000000000000000000000000000000000000ffffffff0804ffff001d02d303ffffffff0100f2052a0100000043410438b108f006d9c826df1baf4d18aa4d82dda3619b02ed6c6d2205397e604ae58ea16a9d7a156a0b26c766e19298ca2f33bd6edaae2d109f9c3dcf9e3f082ad5b9ac00000000"
    }
  ]
}