{
  "hash": "0000000015243c91c068abb57207f19c67825df2fcee5ca28c6e78eb66901b8d",
  "confirmations": 51635,
  "height": 1463,
  "version": 1,
  "versionHex": "00000001",
  "merkleroot": "3a883224e8e588d253cf81ff1f8898f6921d474c6aa0e462d8fbaa1ef505a60a",
  "time": 1232752553,
  "mediantime": 1232750164,
  "nonce": 4080527659,
  "bits": "1d00ffff",
  "difficulty": 1,
  "chainwork": "000000000000000000000000000000000000000000000000000005b805b805b8",
  "nTx": 1,
  "previousblockhash": "0000000087115a47a65599cf554b4782e129d4b1d6947641da862e6445575b9a",
  "nextblockhash": "00000000ce8c52b0de848862ffbb838d8f6786072cc2a52289cb75b9809e73f8",
  "strippedsize": 216,
  "size": 216,
  "weight": 864,
  "tx": [
    {
      "txid": "3a883224e8e588d253cf81ff1f8898f6921d474c6aa0e462d8fbaa1ef505a60a",
      "hash": "3a883224e8e588d253cf81ff1f8898f6921d474c6aa0e462d8fbaa1ef505a60a",
      "version": 1,
      "size": 135,
      "vsize": 135,
      "weight": 540,
      "locktime": 0,
      "vin": [
        {
          "coinbase": "04ffff001d02e500",
          "sequence": 4294967295
        }
      ],
      "vout": [
        {
          "value": 50.0,
          "n": 0,
          "scriptPubKey": {
            "asm": "04d0a2cb46a4e7e463c872e7261f62634f572d08097cf2d02711fddf66d630d4bfac8a55c0193b2120045b2d5260bc0de28b333c93e726adca02e91bf98f7d5767 OP_CHECKSIG",
            "desc": "pk(04d0a2cb46a4e7e463c872e7261f62634f572d08097cf2d02711fddf66d630d4bfac8a55c0193b2120045b2d5260bc0de28b333c93e726adca02e91bf98f7d5767)#xrtfh8na",
            "hex": "4104d0a2cb46a4e7e463c872e7261f62634f572d08097cf2d02711fddf66d630d4bfac8a55c0193b2120045b2d5260bc0de28b333c93e726adca02e91bf98f7d5767ac",
            "type": "pubkey"
          }
        }
      ],
      "hex": "01000000010000000000000000000000000000000000000000000000000000000000000000ffffffff0804ffff001d02e500ffffffff0100f2052a01000000434104d0a2cb46a4e7e463c872e7261f62634f572d08097cf2d02711fddf66d630d4bfac8a55c0193b2120045b2d5260bc0de28b333c93e726adca02e91bf98f7d5767ac00000000"
    }
  ]
}