{
  "hash": "00000000329ba70d8c8351b852cd67f5ff2c5479f13ce0b2502fa36bd16778d7",
  "confirmations": 43970,
  "height": 9128,
  "version": 1,
  "versionHex": "00000001",
  "merkleroot": "3e7861a8f18df990bf3b074718018cf7a1e7f32447bbf13ffc93327b7bf608ac",
  "time": 1238350279,
  "mediantime": 1238345872,
  "nonce": 4003630106,
  "bits": "1d00ffff",
  "difficulty": 1,
  "chainwork": "000000000000000000000000000000000000000000000000000023a923a923a9",
  "nTx": 1,
  "previousblockhash": "0000000039f74ad11fb3d70e8c72ed9c1e8aad180447b7c25a266f89f0d90cda",
  "nextblockhash": "00000000f94d95791ab573609338891c44abf68540a60abe0bb895405bfc4f81",
  "strippedsize": 216,
  "size": 216,
  "weight": 864,
  "tx": [
    {
      "txid": "3e7861a8f18df990bf3b074718018cf7a1e7f32447bbf13ffc93327b7bf608ac",
      "hash": "3e7861a8f18df990bf3b074718018cf7a1e7f32447bbf13ffc93327b7bf608ac",
      "version": 1,
      "size": 135,
      "vsize": 135,
      "weight": 540,
      "locktime": 0,
      "vin": [
        {
          "coinbase": "04ffff001d02de08",
          "sequence": 4294967295
        }
      ],
      "vout": [
        {
          "value": 50.0,
          "n": 0,
          "scriptPubKey": {
            "asm": "04475ec18308df851394a128d712cdd9373f2aa9792a90f8e12f4ae346ad759b986575dbff3ecc62c101f17740d78ca20a1a955736fdbc7eb29214a51e28ba7423 OP_CHECKSIG",
            "desc": "pk(04475ec18308df851394a128d712cdd9373f2aa9792a90f8e12f4ae346ad759b986575dbff3ecc62c101f17740d78ca20a1a955736fdbc7eb29214a51e28ba7423)#ytvxs6su",
            "hex": "4104475ec18308df851394a128d712cdd9373f2aa9792a90f8e12f4ae346ad759b986575dbff3ecc62c101f17740d78ca20a1a955736fdbc7eb29214a51e28ba7423ac",
            "type": "pubkey"
          }
        }
      ],
      "hex": "01000000010000000000000000000000000000000000000000000000000000000000000000ffffffff0804ffff001d02de08ffffffff0100f2052a01000000434104475ec18308df851394a128d712cdd9373f2aa9792a90f8e12f4ae346ad759b986575dbff3ecc62c101f17740d78ca20a1a955736fdbc7eb29214a51e28ba7423ac00000000"
    }
  ]
}