{
  "hash": "00000000be17c92a1664248ec855e4b4a930bfc492defe7a9428d80e5f1c1211",
  "confirmations": 52306,
  "height": 792,
  "version": 1,
  "versionHex": "00000001",
  "merkleroot": "1e1481dd3fbbd51a635b6f3b93c5ad8e1f5e763297a094780c8512986da2e9b9",
  "time": 1232184950,
  "mediantime": 1232180879,
  "nonce": 875760934,
  "bits": "1d00ffff",
  "difficulty": 1,
  "chainwork": "0000000000000000000000000000000000000000000000000000031903190319",
  "nTx": 1,
  "previousblockhash": "00000000c75f6a78ff4a93b86b7f3aaf3708ddf963992b58d5bb9ef51f433642",
  "nextblockhash": "000000000e1d12b6db7849adac4a60d7af56e6d3b5c1087d64aae1444dad6a34",
  "strippedsize": 216,
  "size": 216,
  "weight": 864,
  "tx": [
    {
      "txid": "1e1481dd3fbbd51a635b6f3b93c5ad8e1f5e763297a094780c8512986da2e9b9",
      "hash": "1e1481dd3fbbd51a635b6f3b93c5ad8e1f5e763297a094780c8512986da2e9b9",
      "version": 1,
      "size": 135,
      "vsize": 135,
      "weight": 540,
      "locktime": 0,
      "vin": [
        {
          "coinbase": "04ffff001d025501",
          "sequence": 4294967295
        }
      ],
      "vout": [
        {
          "value": 50.0,
          "n": 0,
          "scriptPubKey": {
            "asm": "04a9e115c7c30e609c11a38d3404a1e1de987dbdb6d4bf112e513f2ccf199f79fd72bdb7c601046e21c5728b62ea66b25947f1cc4a032a034069f00faa85a48f47 OP_CHECKSIG",
            "desc": "pk(04a9e115c7c30e609c11a38d3404a1e1de987dbdb6d4bf112e513f2ccf199f79fd72bdb7c601046e21c5728b62ea66b25947f1cc4a032a034069f00faa85a48f47)#wvf4e9sr",
            "hex": "4104a9e115c7c30e609c11a38d3404a1e1de987dbdb6d4bf112e513f2ccf199f79fd72bdb7c601046e21c5728b62ea66b25947f1cc4a032a034069f00faa85a48f47ac",
            "type": "pubkey"
          }
        }
      ],
      "hex": "01000000010000000000000000000000000000000000000000000000000000000000000000ffffffff0804ffff001d025501ffffffff0100f2052a01000000434104a9e115c7c30e609c11a38d3404a1e1de987dbdb6d4bf112e513f2ccf199f79fd72bdb7c601046e21c5728b62ea66b25947f1cc4a032a034069f00faa85a48f47ac00000000"
    }
  ]
}