{
  "hash": "00000000a9bf1908345264b4433ebc00479bee71f142821b46b87a12a91a1bd7",
  "confirmations": 43578,
  "height": 9520,
  "version": 1,
  "versionHex": "00000001",
  "merkleroot": "08af4623c0307a17a86e3c09b5e97b9aa8d0183efdbab593164c6e3e4c1f4010",
  "time": 1238644796,
  "mediantime": 1238639017,
  "nonce": 93143060,
  "bits": "1d00ffff",
  "difficulty": 1,
  "chainwork": "0000000000000000000000000000000000000000000000000000253125312531",
  "nTx": 1,
  "previousblockhash": "0000000059b3af167907578525bd8cd41697761192e4aceb2129d9701d13a49c",
  "nextblockhash": "00000000659e1402f1cdf3d2fd94065369e5cde43d6a00b6b5edcff01db50000",
  "strippedsize": 216,
  "size": 216,
  "weight": 864,
  "tx": [
    {
      "txid": "08af4623c0307a17a86e3c09b5e97b9aa8d0183efdbab593164c6e3e4c1f4010",
      "hash": "08af4623c0307a17a86e3c09b5e97b9aa8d0183efdbab593164c6e3e4c1f4010",
      "version": 1,
      "size": 135,
      "vsize": 135,
      "weight": 540,
      "locktime": 0,
      "vin": [
        {
          "coinbase": "04ffff001d021c07",
          "sequence": 4294967295
        }
      ],
      "vout": [
        {
          "value": 50.0,
          "n": 0,
          "scriptPubKey": {
            "asm": "04f6a6a96fc70b2897f3d8e2a81b7523ec3984f36afe7685a301f940fef831419cdee3e348d16bd94e42bea50168049b8588bdf05bed00246d9633952a35e3ae16 OP_CHECKSIG",
            "desc": "pk(04f6a6a96fc70b2897f3d8e2a81b7523ec3984f36afe7685a301f940fef831419cdee3e348d16bd94e42bea50168049b8588bdf05bed00246d9633952a35e3ae16)#y0uqnken",
            "hex": "4104f6a6a96fc70b2897f3d8e2a81b7523ec3984f36afe7685a301f940fef831419cdee3e348d16bd94e42bea50168049b8588bdf05bed00246d9633952a35e3ae16ac",
            "type": "pubkey"
          }
        }
      ],
      "hex": "01000000010000000000000000000000000000000000000000000000000000000000000000ffffffff0804ffff001d021c07ffffffff0100f2052a01000000434104f6a6a96fc70b2897f3d8e2a81b7523ec3984f36afe7685a301f940fef831419cdee3e348d16bd94e42bea50168049b8588bdf05bed00246d9633952a35e3ae16ac00000000"
    }
  ]
}