{
  "hash": "000000006a649db8a53c19693ea9ee32dfadd3b8797e3a67fa219c7375d16855",
  "confirmations": 44561,
  "height": 8537,
  "version": 1,
  "versionHex": "00000001",
  "merkleroot": "94dc270f837230d4e39d0b45584ce2430277c19a25a6cdf6e664eeb6bd463f22",
  "time": 1237900804,
  "mediantime": 1237897786,
  "nonce": 410740280,
  "bits": "1d00ffff",
  "difficulty": 1,
  "chainwork": "0000000000000000000000000000000000000000000000000000215a215a215a",
  "nTx": 1,
  "previousblockhash": "000000003bae4b1b6ddd3fb07ce2d562feaa4893b8087e10b6a40cb04fafb65d",
  "nextblockhash": "000000008ef6e157c9c48a0d7c41d403e9d61ffe56499ed0f2ea1f6d8fb21bb7",
  "strippedsize": 216,
  "size": 216,
  "weight": 864,
  "tx": [
    {
      "txid": "94dc270f837230d4e39d0b45584ce2430277c19a25a6cdf6e664eeb6bd463f22",
      "hash": "94dc270f837230d4e39d0b45584ce2430277c19a25a6cdf6e664eeb6bd463f22",
      "version": 1,
      "size": 135,
      "vsize": 135,
      "weight": 540,
      "locktime": 0,
      "vin": [
        {
          "coinbase": "04ffff001d027808",
          "sequence": 4294967295
        }
      ],
      "vout": [
        {
          "value": 50.0,
          "n": 0,
          "scriptPubKey": {
            "asm": "04c9202aabcbfe2c73357b8fe0c660032e4b9a2d6c3f6d54c9a985a6e896da27baab868ea18165512d3d593cbea462085bfda3b4f170933f6e88ecbe8cc56069f4 OP_CHECKSIG",
            "desc": "pk(04c9202aabcbfe2c73357b8fe0c660032e4b9a2d6c3f6d54c9a985a6e896da27baab868ea18165512d3d593cbea462085bfda3b4f170933f6e88ecbe8cc56069f4)#hqvph95s",
            "hex": "4104c9202aabcbfe2c73357b8fe0c660032e4b9a2d6c3f6d54c9a985a6e896da27baab868ea18165512d3d593cbea462085bfda3b4f170933f6e88ecbe8cc56069f4ac",
            "type": "pubkey"
          }
        }
      ],
      "hex": "01000000010000000000000000000000000000000000000000000000000000000000000000ffffffff0804ffff001d027808ffffffff0100f2052a01000000434104c9202aabcbfe2c73357b8fe0c660032e4b9a2d6c3f6d54c9a985a6e896da27baab868ea18165512d3d593cbea462085bfda3b4f170933f6e88ecbe8cc56069f4ac00000000"
    }
  ]
}