{
  "hash": "00000000812c50c56dd8e51a0b7479d7e610b8185e41d5dea86cfc297526ec75",
  "confirmations": 46601,
  "height": 6497,
  "version": 1,
  "versionHex": "00000001",
  "merkleroot": "d583a1497a62b1e17dc52550555ebfe33b1b4fc2839d511399ded790c140f338",
  "time": 1236329262,
  "mediantime": 1236324113,
  "nonce": 1856731706,
  "bits": "1d00ffff",
  "difficulty": 1,
  "chainwork": "0000000000000000000000000000000000000000000000000000196219621962",
  "nTx": 1,
  "previousblockhash": "0000000098a1606801259815d3c8e24680d91a597b8fb724e7a79e1db22b46c6",
  "nextblockhash": "00000000d4af32f13e211f10c7f1a3af0493b85a09980be76f46c43259e709de",
  "strippedsize": 216,
  "size": 216,
  "weight": 864,
  "tx": [
    {
      "txid": "d583a1497a62b1e17dc52550555ebfe33b1b4fc2839d511399ded790c140f338",
      "hash": "d583a1497a62b1e17dc52550555ebfe33b1b4fc2839d511399ded790c140f338",
      "version": 1,
      "size": 135,
      "vsize": 135,
      "weight": 540,
      "locktime": 0,
      "vin": [
        {
          "coinbase": "04ffff001d029f03",
          "sequence": 4294967295
        }
      ],
      "vout": [
        {
          "value": 50.0,
          "n": 0,
          "scriptPubKey": {
            "asm": "043e447866f3237e71baef99c97500548dd564107494783cf7194fe3e388d918548cb232eed70ca37e08da53374d1ee9f4f8bd9d9aaef79405d34a0fa761e7f855 OP_CHECKSIG",
            "desc": "pk(043e447866f3237e71baef99c97500548dd564107494783cf7194fe3e388d918548cb232eed70ca37e08da53374d1ee9f4f8bd9d9aaef79405d34a0fa761e7f855)#d44lves2",
            "hex": "41043e447866f3237e71baef99c97500548dd564107494783cf7194fe3e388d918548cb232eed70ca37e08da53374d1ee9f4f8bd9d9aaef79405d34a0fa761e7f855ac",
            "type": "pubkey"
          }
        }
      ],
      "hex": "01000000010000000000000000000000000000000000000000000000000000000000000000ffffffff0804ffff001d029f03ffffffff0100f2052a010000004341043e447866f3237e71baef99c97500548dd564107494783cf7194fe3e388d918548cb232eed70ca37e08da53374d1ee9f4f8bd9d9aaef79405d34a0fa761e7f855ac00000000"
    }
  ]
}