{
  "hash": "00000000c5c2bb37ed9bf00bc9bd114e4763a40559ba2649bbaf4f4efad00db7",
  "confirmations": 52535,
  "height": 563,
  "version": 1,
  "versionHex": "00000001",
  "merkleroot": "1befa58924955882ef900899b6135793e4512d593e22981c9c71273b5206f8e5",
  "time": 1232012402,
  "mediantime": 1232009292,
  "nonce": 50091361,
  "bits": "1d00ffff",
  "difficulty": 1,
  "chainwork": "0000000000000000000000000000000000000000000000000000023402340234",
  "nTx": 1,
  "previousblockhash": "000000009f7479465e462edc3ef7e174e916e6d60d51270f180f68e2157aa4ae",
  "nextblockhash": "000000009114153329b6acc79c771bf359aa673fc4f1fc227a6c7467eb242ecf",
  "strippedsize": 216,
  "size": 216,
  "weight": 864,
  "tx": [
    {
      "txid": "1befa58924955882ef900899b6135793e4512d593e22981c9c71273b5206f8e5",
      "hash": "1befa58924955882ef900899b6135793e4512d593e22981c9c71273b5206f8e5",
      "version": 1,
      "size": 135,
      "vsize": 135,
      "weight": 540,
      "locktime": 0,
      "vin": [
        {
          "coinbase": "04ffff001d022801",
          "sequence": 4294967295
        }
      ],
      "vout": [
        {
          "value": 50.0,
          "n": 0,
          "scriptPubKey": {
            "asm": "04385aece150744f35a1a1d507b2bd18bcb71f842d8c8151554a7391af39b9046e47f863940bff3b3e6d170c9a3b8a28fd542d1cf0c1f1730fe1f0a0c5e4908839 OP_CHECKSIG",
            "desc": "pk(04385aece150744f35a1a1d507b2bd18bcb71f842d8c8151554a7391af39b9046e47f863940bff3b3e6d170c9a3b8a28fd542d1cf0c1f1730fe1f0a0c5e4908839)#cqxl0q9c",
            "hex": "4104385aece150744f35a1a1d507b2bd18bcb71f842d8c8151554a7391af39b9046e47f863940bff3b3e6d170c9a3b8a28fd542d1cf0c1f1730fe1f0a0c5e4908839ac",
            "type": "pubkey"
          }
        }
      ],
      "hex": "01000000010000000000000000000000000000000000000000000000000000000000000000ffffffff0804ffff001d022801ffffffff0100f2052a01000000434104385aece150744f35a1a1d507b2bd18bcb71f842d8c8151554a7391af39b9046e47f863940bff3b3e6d170c9a3b8a28fd542d1cf0c1f1730fe1f0a0c5e4908839ac00000000"
    }
  ]
}