{
  "hash": "000000008c43c7d8ea8870a3f8c3bd16819f7204e5e498a5242f630d72c8ad25",
  "confirmations": 50523,
  "height": 2575,
  "version": 1,
  "versionHex": "00000001",
  "merkleroot": "e581704417739696e6f3a25268f94be136dcfbb9143fa52d7e80bd99d4a9661f",
  "time": 1233473816,
  "mediantime": 1233470027,
  "nonce": 174999636,
  "bits": "1d00ffff",
  "difficulty": 1,
  "chainwork": "00000000000000000000000000000000000000000000000000000a100a100a10",
  "nTx": 1,
  "previousblockhash": "00000000bd9844ad2b844fbb019788034a20a484448c54c06e9ed6c5db8e7624",
  "nextblockhash": "00000000f16ab972bdac5ac28f7ab9a003ab37496e9a05f5e0a5bb018e842d91",
  "strippedsize": 216,
  "size": 216,
  "weight": 864,
  "tx": [
    {
      "txid": "e581704417739696e6f3a25268f94be136dcfbb9143fa52d7e80bd99d4a9661f",
      "hash": "e581704417739696e6f3a25268f94be136dcfbb9143fa52d7e80bd99d4a9661f",
      "version": 1,
      "size": 135,
      "vsize": 135,
      "weight": 540,
      "locktime": 0,
      "vin": [
        {
          "coinbase": "04ffff001d028902",
          "sequence": 4294967295
        }
      ],
      "vout": [
        {
          "value": 50.0,
          "n": 0,
          "scriptPubKey": {
            "asm": "04b421aa8290b55b7689ad133a19ca2ae4e305a25ca72042cc611a9141c2d1789f65cba3f5e39506d8d25bfad69976a3ce2fbaaa31ab453850fd0525c930f3799d OP_CHECKSIG",
            "desc": "pk(04b421aa8290b55b7689ad133a19ca2ae4e305a25ca72042cc611a9141c2d1789f65cba3f5e39506d8d25bfad69976a3ce2fbaaa31ab453850fd0525c930f3799d)#4pp39cjk",
            "hex": "4104b421aa8290b55b7689ad133a19ca2ae4e305a25ca72042cc611a9141c2d1789f65cba3f5e39506d8d25bfad69976a3ce2fbaaa31ab453850fd0525c930f3799dac",
            "type": "pubkey"
          }
        }
      ],
      "hex": "01000000010000000000000000000000000000000000000000000000000000000000000000ffffffff0804ffff001d028902ffffffff0100f2052a01000000434104b421aa8290b55b7689ad133a19ca2ae4e305a25ca72042cc611a9141c2d1789f65cba3f5e39506d8d25bfad69976a3ce2fbaaa31ab453850fd0525c930f3799dac00000000"
    }
  ]
}