{
  "hash": "000000000568dd391b3261d51ad4fcb68db5539200a15acc5bd6ece8b218601b",
  "confirmations": 52516,
  "height": 582,
  "version": 1,
  "versionHex": "00000001",
  "merkleroot": "29fa20fc18efdf02526af9c9629b5cca4ff848dc81c77fd8c4226d3e6be05175",
  "time": 1232025374,
  "mediantime": 1232021565,
  "nonce": 1574556193,
  "bits": "1d00ffff",
  "difficulty": 1,
  "chainwork": "0000000000000000000000000000000000000000000000000000024702470247",
  "nTx": 1,
  "previousblockhash": "0000000084935be8a5b06525aea383d2988df6003963222f5adc5ddf5951e7fd",
  "nextblockhash": "000000005b30f48ef450de8ebdb8829a931e8cd86e2f11f48f381c61c845379b",
  "strippedsize": 216,
  "size": 216,
  "weight": 864,
  "tx": [
    {
      "txid": "29fa20fc18efdf02526af9c9629b5cca4ff848dc81c77fd8c4226d3e6be05175",
      "hash": "29fa20fc18efdf02526af9c9629b5cca4ff848dc81c77fd8c4226d3e6be05175",
      "version": 1,
      "size": 135,
      "vsize": 135,
      "weight": 540,
      "locktime": 0,
      "vin": [
        {
          "coinbase": "04ffff001d024206",
          "sequence": 4294967295
        }
      ],
      "vout": [
        {
          "value": 50.0,
          "n": 0,
          "scriptPubKey": {
            "asm": "04ff389ca14f817b41ae82604e7f811620d3671f097f19d666b45d58998667afdc3de2288010bb833c52f6ba0af7807afebd078d0fe8a3ce7feefdd37454bb9ae0 OP_CHECKSIG",
            "desc": "pk(04ff389ca14f817b41ae82604e7f811620d3671f097f19d666b45d58998667afdc3de2288010bb833c52f6ba0af7807afebd078d0fe8a3ce7feefdd37454bb9ae0)#w6vms2r3",
            "hex": "4104ff389ca14f817b41ae82604e7f811620d3671f097f19d666b45d58998667afdc3de2288010bb833c52f6ba0af7807afebd078d0fe8a3ce7feefdd37454bb9ae0ac",
            "type": "pubkey"
          }
        }
      ],
      "hex": "01000000010000000000000000000000000000000000000000000000000000000000000000ffffffff0804ffff001d024206ffffffff0100f2052a01000000434104ff389ca14f817b41ae82604e7f811620d3671f097f19d666b45d58998667afdc3de2288010bb833c52f6ba0af7807afebd078d0fe8a3ce7feefdd37454bb9ae0ac00000000"
    }
  ]
}