{
  "hash": "000000009700ff3494f215c412cd8c0ceabf1deb0df03ce39bcfc223b769d3c4",
  "confirmations": 51810,
  "height": 31,
  "version": 1,
  "versionHex": "00000001",
  "merkleroot": "86b33edba8ff663b0f73ef487e4433f34d26ef91de15659d2cc09594d27b52cb",
  "time": 1231602736,
  "mediantime": 1231570450,
  "nonce": 716922133,
  "bits": "1d00ffff",
  "difficulty": 1,
  "chainwork": "0000000000000000000000000000000000000000000000000000002000200020",
  "nTx": 1,
  "previousblockhash": "00000000bc919cfb64f62de736d55cf79e3d535b474ace256b4fbb56073f64db",
  "nextblockhash": "00000000e5cb7c6c273547b0c9421b01e23310ed83f934b96270f35a4d66f6e3",
  "strippedsize": 215,
  "size": 215,
  "weight": 860,
  "tx": [
    {
      "txid": "86b33edba8ff663b0f73ef487e4433f34d26ef91de15659d2cc09594d27b52cb",
      "hash": "86b33edba8ff663b0f73ef487e4433f34d26ef91de15659d2cc09594d27b52cb",
      "version": 1,
      "size": 134,
      "vsize": 134,
      "weight": 536,
      "locktime": 0,
      "vin": [
        {
          "coinbase": "04ffff001d0129",
          "sequence": 4294967295
        }
      ],
      "vout": [
        {
          "value": 50.0,
          "n": 0,
          "scriptPubKey": {
            "asm": "04c26035a5e1e1db8b18043d1b31cef10a8fe6f58757e2b3e5147154df627ae020f39720adc9a623857db379217063896ef28ea6b8a0a43e7f1bec4a36dc68185c OP_CHECKSIG",
            "desc": "pk(04c26035a5e1e1db8b18043d1b31cef10a8fe6f58757e2b3e5147154df627ae020f39720adc9a623857db379217063896ef28ea6b8a0a43e7f1bec4a36dc68185c)#vpnzscj6",
            "hex": "4104c26035a5e1e1db8b18043d1b31cef10a8fe6f58757e2b3e5147154df627ae020f39720adc9a623857db379217063896ef28ea6b8a0a43e7f1bec4a36dc68185cac",
            "type": "pubkey"
          }
        }
      ],
      "hex": "01000000010000000000000000000000000000000000000000000000000000000000000000ffffffff0704ffff001d0129ffffffff0100f2052a01000000434104c26035a5e1e1db8b18043d1b31cef10a8fe6f58757e2b3e5147154df627ae020f39720adc9a623857db379217063896ef28ea6b8a0a43e7f1bec4a36dc68185cac00000000"
    }
  ]
}