{
  "hash": "00000000d3a477e34c3107e5bf5dce1e7fd93ba96cc1a11d61474a0ffd3db5cd",
  "confirmations": 47507,
  "height": 5591,
  "version": 1,
  "versionHex": "00000001",
  "merkleroot": "17151d2a26f4ea767aef6015c6216b440e3c373dcd72ee98dc974d6371407106",
  "time": 1235593352,
  "mediantime": 1235589315,
  "nonce": 2705039921,
  "bits": "1d00ffff",
  "difficulty": 1,
  "chainwork": "000000000000000000000000000000000000000000000000000015d815d815d8",
  "nTx": 1,
  "previousblockhash": "000000003cb3f6cbd14c21ddda5f1e6f7fd2bc9f4c1307f061094a237f1d8efd",
  "nextblockhash": "00000000d85dc3f8c82fcdf97ad768a7f1ed70bebdf0d79a3dc243d4583ad905",
  "strippedsize": 216,
  "size": 216,
  "weight": 864,
  "tx": [
    {
      "txid": "17151d2a26f4ea767aef6015c6216b440e3c373dcd72ee98dc974d6371407106",
      "hash": "17151d2a26f4ea767aef6015c6216b440e3c373dcd72ee98dc974d6371407106",
      "version": 1,
      "size": 135,
      "vsize": 135,
      "weight": 540,
      "locktime": 0,
      "vin": [
        {
          "coinbase": "04ffff001d027807",
          "sequence": 4294967295
        }
      ],
      "vout": [
        {
          "value": 50.0,
          "n": 0,
          "scriptPubKey": {
            "asm": "04e905c0549c8e6187dc0cd771d9daa5667c5310c9890b1d3d5e82682e4d82a2126467749ab4fa424d4e08e64e89929ab041f198a3f390e81f40eada10a9f2c113 OP_CHECKSIG",
            "desc": "pk(04e905c0549c8e6187dc0cd771d9daa5667c5310c9890b1d3d5e82682e4d82a2126467749ab4fa424d4e08e64e89929ab041f198a3f390e81f40eada10a9f2c113)#f2cq3mjd",
            "hex": "4104e905c0549c8e6187dc0cd771d9daa5667c5310c9890b1d3d5e82682e4d82a2126467749ab4fa424d4e08e64e89929ab041f198a3f390e81f40eada10a9f2c113ac",
            "type": "pubkey"
          }
        }
      ],
      "hex": "01000000010000000000000000000000000000000000000000000000000000000000000000ffffffff0804ffff001d027807ffffffff0100f2052a01000000434104e905c0549c8e6187dc0cd771d9daa5667c5310c9890b1d3d5e82682e4d82a2126467749ab4fa424d4e08e64e89929ab041f198a3f390e81f40eada10a9f2c113ac00000000"
    }
  ]
}