{
  "hash": "00000000185e7b91e06f79023ad63b8429e97cd61857ec7d6c8d29f19bb68a71",
  "confirmations": 45282,
  "height": 7816,
  "version": 1,
  "versionHex": "00000001",
  "merkleroot": "60546f83339691ebfd33823ce8f1ea27516b5429cd2691611178f62cc0cc21ef",
  "time": 1237325058,
  "mediantime": 1237320961,
  "nonce": 492844310,
  "bits": "1d00ffff",
  "difficulty": 1,
  "chainwork": "00000000000000000000000000000000000000000000000000001e891e891e89",
  "nTx": 1,
  "previousblockhash": "00000000e30ac67f7c952ea9fa8ed9e0384b6546e70498b738a5ce5978134af8",
  "nextblockhash": "000000007bdbb5218bae7d92b6501db8d01f13fa60f615b820596c4ff598da78",
  "strippedsize": 216,
  "size": 216,
  "weight": 864,
  "tx": [
    {
      "txid": "60546f83339691ebfd33823ce8f1ea27516b5429cd2691611178f62cc0cc21ef",
      "hash": "60546f83339691ebfd33823ce8f1ea27516b5429cd2691611178f62cc0cc21ef",
      "version": 1,
      "size": 135,
      "vsize": 135,
      "weight": 540,
      "locktime": 0,
      "vin": [
        {
          "coinbase": "04ffff001d022f06",
          "sequence": 4294967295
        }
      ],
      "vout": [
        {
          "value": 50.0,
          "n": 0,
          "scriptPubKey": {
            "asm": "048d6228c74a219c9103e70f3f410d00897795d158e8ded9da47c704cc280fc58d5eab6d54b2815c8b22619a80004a6b158cc9b56e24bdc97746591ebbabcba4f0 OP_CHECKSIG",
            "desc": "pk(048d6228c74a219c9103e70f3f410d00897795d158e8ded9da47c704cc280fc58d5eab6d54b2815c8b22619a80004a6b158cc9b56e24bdc97746591ebbabcba4f0)#n2d9rtx5",
            "hex": "41048d6228c74a219c9103e70f3f410d00897795d158e8ded9da47c704cc280fc58d5eab6d54b2815c8b22619a80004a6b158cc9b56e24bdc97746591ebbabcba4f0ac",
            "type": "pubkey"
          }
        }
      ],
      "hex": "01000000010000000000000000000000000000000000000000000000000000000000000000ffffffff0804ffff001d022f06ffffffff0100f2052a010000004341048d6228c74a219c9103e70f3f410d00897795d158e8ded9da47c704cc280fc58d5eab6d54b2815c8b22619a80004a6b158cc9b56e24bdc97746591ebbabcba4f0ac00000000"
    }
  ]
}