{
  "hash": "000000006615ae955110e7f027b2edbaa6ad8beab2dbf06612aa38a9e849ed95",
  "confirmations": 50254,
  "height": 2844,
  "version": 1,
  "versionHex": "00000001",
  "merkleroot": "3491958dc93fd003fa36be7a28586f684dd061336e8780ad77f67d3e1e3ea67f",
  "time": 1233655583,
  "mediantime": 1233652167,
  "nonce": 691143193,
  "bits": "1d00ffff",
  "difficulty": 1,
  "chainwork": "00000000000000000000000000000000000000000000000000000b1d0b1d0b1d",
  "nTx": 1,
  "previousblockhash": "00000000c7793ced70c0d6edad4bec9ba7a5c002844f9f9bec624aead15cbd1a",
  "nextblockhash": "000000005ba013d9607fb586984c48bbb76b931be424abfc5b5be18c33df43aa",
  "strippedsize": 216,
  "size": 216,
  "weight": 864,
  "tx": [
    {
      "txid": "3491958dc93fd003fa36be7a28586f684dd061336e8780ad77f67d3e1e3ea67f",
      "hash": "3491958dc93fd003fa36be7a28586f684dd061336e8780ad77f67d3e1e3ea67f",
      "version": 1,
      "size": 135,
      "vsize": 135,
      "weight": 540,
      "locktime": 0,
      "vin": [
        {
          "coinbase": "04ffff001d02c106",
          "sequence": 4294967295
        }
      ],
      "vout": [
        {
          "value": 50.0,
          "n": 0,
          "scriptPubKey": {
            "asm": "047cfb87391326eddf9f2b2081dee94e851e5f44dc2be4865e2069202df445cc6378dbb191ffebc922fcfa4f48f8a0b9d2199e23eeacfe1ba57cd263977ce940ed OP_CHECKSIG",
            "desc": "pk(047cfb87391326eddf9f2b2081dee94e851e5f44dc2be4865e2069202df445cc6378dbb191ffebc922fcfa4f48f8a0b9d2199e23eeacfe1ba57cd263977ce940ed)#fv0f5xr0",
            "hex": "41047cfb87391326eddf9f2b2081dee94e851e5f44dc2be4865e2069202df445cc6378dbb191ffebc922fcfa4f48f8a0b9d2199e23eeacfe1ba57cd263977ce940edac",
            "type": "pubkey"
          }
        }
      ],
      "hex": "01000000010000000000000000000000000000000000000000000000000000000000000000ffffffff0804ffff001d02c106ffffffff0100f2052a010000004341047cfb87391326eddf9f2b2081dee94e851e5f44dc2be4865e2069202df445cc6378dbb191ffebc922fcfa4f48f8a0b9d2199e23eeacfe1ba57cd263977ce940edac00000000"
    }
  ]
}