{
  "hash": "000000007f65dc5a5681c9de6fcdfec7f68aa67af923af236f151cbffaf8e26c",
  "confirmations": 52364,
  "height": 734,
  "version": 1,
  "versionHex": "00000001",
  "merkleroot": "871372ea8106dc35f1fe45506d78a24d073ae0efaa5017b902dfc1d287741e79",
  "time": 1232137444,
  "mediantime": 1232133558,
  "nonce": 2215325984,
  "bits": "1d00ffff",
  "difficulty": 1,
  "chainwork": "000000000000000000000000000000000000000000000000000002df02df02df",
  "nTx": 1,
  "previousblockhash": "000000003792ca071d4b698890b315448e6208f9f591ed88bebd3ed52012a505",
  "nextblockhash": "000000005e132ed894791add9a4e71175ead568b4e197de381364f9e965a491a",
  "strippedsize": 215,
  "size": 215,
  "weight": 860,
  "tx": [
    {
      "txid": "871372ea8106dc35f1fe45506d78a24d073ae0efaa5017b902dfc1d287741e79",
      "hash": "871372ea8106dc35f1fe45506d78a24d073ae0efaa5017b902dfc1d287741e79",
      "version": 1,
      "size": 134,
      "vsize": 134,
      "weight": 536,
      "locktime": 0,
      "vin": [
        {
          "coinbase": "04ffff001d0149",
          "sequence": 4294967295
        }
      ],
      "vout": [
        {
          "value": 50.0,
          "n": 0,
          "scriptPubKey": {
            "asm": "04cb0d7c51e58b7bb1e38e766cec662acdc106f0e2d941ed75db40a689c26324c2464fe96e832cf26f12fddc29a81a09d3210a3741b1d7bda8e5774ddc4c64b60b OP_CHECKSIG",
            "desc": "pk(04cb0d7c51e58b7bb1e38e766cec662acdc106f0e2d941ed75db40a689c26324c2464fe96e832cf26f12fddc29a81a09d3210a3741b1d7bda8e5774ddc4c64b60b)#uruv37fv",
            "hex": "4104cb0d7c51e58b7bb1e38e766cec662acdc106f0e2d941ed75db40a689c26324c2464fe96e832cf26f12fddc29a81a09d3210a3741b1d7bda8e5774ddc4c64b60bac",
            "type": "pubkey"
          }
        }
      ],
      "hex": "01000000010000000000000000000000000000000000000000000000000000000000000000ffffffff0704ffff001d0149ffffffff0100f2052a01000000434104cb0d7c51e58b7bb1e38e766cec662acdc106f0e2d941ed75db40a689c26324c2464fe96e832cf26f12fddc29a81a09d3210a3741b1d7bda8e5774ddc4c64b60bac00000000"
    }
  ]
}