{
  "hash": "0000000054ad9ef57703ad41d194197f44048b09cd472badf53a5246a3713222",
  "confirmations": 51925,
  "height": 1173,
  "version": 1,
  "versionHex": "00000001",
  "merkleroot": "e1439c704916ad70c1450f3764a6459c5016503483d249a3d98c97bb6a7b878e",
  "time": 1232479216,
  "mediantime": 1232474926,
  "nonce": 2114587185,
  "bits": "1d00ffff",
  "difficulty": 1,
  "chainwork": "0000000000000000000000000000000000000000000000000000049604960496",
  "nTx": 1,
  "previousblockhash": "0000000088050140d2390ff996e2c3036b2594562441868303d3bed3b02f53c0",
  "nextblockhash": "00000000976317d31e8d80cb68f4ce62f32f5e808bc169aceeedcfc65cd4610a",
  "strippedsize": 216,
  "size": 216,
  "weight": 864,
  "tx": [
    {
      "txid": "e1439c704916ad70c1450f3764a6459c5016503483d249a3d98c97bb6a7b878e",
      "hash": "e1439c704916ad70c1450f3764a6459c5016503483d249a3d98c97bb6a7b878e",
      "version": 1,
      "size": 135,
      "vsize": 135,
      "weight": 540,
      "locktime": 0,
      "vin": [
        {
          "coinbase": "04ffff001d022d08",
          "sequence": 4294967295
        }
      ],
      "vout": [
        {
          "value": 50.0,
          "n": 0,
          "scriptPubKey": {
            "asm": "04d3f37971b3ba28c5bb9f02b1ab7a3d2a264822345e4c709b9600ba000a87ed1c2bbc28844d4c8c8678a7fc85bc884e9572b23f1c1aeac719c51242a854ba423a OP_CHECKSIG",
            "desc": "pk(04d3f37971b3ba28c5bb9f02b1ab7a3d2a264822345e4c709b9600ba000a87ed1c2bbc28844d4c8c8678a7fc85bc884e9572b23f1c1aeac719c51242a854ba423a)#yz54n2hh",
            "hex": "4104d3f37971b3ba28c5bb9f02b1ab7a3d2a264822345e4c709b9600ba000a87ed1c2bbc28844d4c8c8678a7fc85bc884e9572b23f1c1aeac719c51242a854ba423aac",
            "type": "pubkey"
          }
        }
      ],
      "hex": "01000000010000000000000000000000000000000000000000000000000000000000000000ffffffff0804ffff001d022d08ffffffff0100f2052a01000000434104d3f37971b3ba28c5bb9f02b1ab7a3d2a264822345e4c709b9600ba000a87ed1c2bbc28844d4c8c8678a7fc85bc884e9572b23f1c1aeac719c51242a854ba423aac00000000"
    }
  ]
}