{
  "hash": "00000000af36b9118036baa7b9c82bc7d1a3017642a08f4255dd71c45c03849b",
  "confirmations": 48158,
  "height": 4940,
  "version": 1,
  "versionHex": "00000001",
  "merkleroot": "c5402855dc50c0d88294e227da6a8930deb4c31c957fd769714ef68c458b3383",
  "time": 1235097416,
  "mediantime": 1235093940,
  "nonce": 519002922,
  "bits": "1d00ffff",
  "difficulty": 1,
  "chainwork": "0000000000000000000000000000000000000000000000000000134d134d134d",
  "nTx": 1,
  "previousblockhash": "00000000aac6a74f87d6f947ad42540a8696154a968d11b6f87c024991ad51ca",
  "nextblockhash": "00000000ebbf140abc6997c4a59708b81b8ddcf3d867c469d325b81946230da9",
  "strippedsize": 216,
  "size": 216,
  "weight": 864,
  "tx": [
    {
      "txid": "c5402855dc50c0d88294e227da6a8930deb4c31c957fd769714ef68c458b3383",
      "hash": "c5402855dc50c0d88294e227da6a8930deb4c31c957fd769714ef68c458b3383",
      "version": 1,
      "size": 135,
      "vsize": 135,
      "weight": 540,
      "locktime": 0,
      "vin": [
        {
          "coinbase": "04ffff001d023d06",
          "sequence": 4294967295
        }
      ],
      "vout": [
        {
          "value": 50.0,
          "n": 0,
          "scriptPubKey": {
            "asm": "0484726d92c4ffdab0ae41c7992f360a7a47fda185493bcd892f6b1dacd17b504b28b0321ecee2563d4459e00d551c0f5c1a82ff5cdc179f8cd467c9341726e2ae OP_CHECKSIG",
            "desc": "pk(0484726d92c4ffdab0ae41c7992f360a7a47fda185493bcd892f6b1dacd17b504b28b0321ecee2563d4459e00d551c0f5c1a82ff5cdc179f8cd467c9341726e2ae)#nae4jmjk",
            "hex": "410484726d92c4ffdab0ae41c7992f360a7a47fda185493bcd892f6b1dacd17b504b28b0321ecee2563d4459e00d551c0f5c1a82ff5cdc179f8cd467c9341726e2aeac",
            "type": "pubkey"
          }
        }
      ],
      "hex": "01000000010000000000000000000000000000000000000000000000000000000000000000ffffffff0804ffff001d023d06ffffffff0100f2052a0100000043410484726d92c4ffdab0ae41c7992f360a7a47fda185493bcd892f6b1dacd17b504b28b0321ecee2563d4459e00d551c0f5c1a82ff5cdc179f8cd467c9341726e2aeac00000000"
    }
  ]
}