{
  "hash": "000000006b67f1eefedae06fbf6c0c9dba1a74d187110fd063fbc1d76bf670a4",
  "confirmations": 47124,
  "height": 5974,
  "version": 1,
  "versionHex": "00000001",
  "merkleroot": "a0f11f31ea1361e32ecc11af30e5a55532deb6ce5c5e8c547bdab7729f1c1a4f",
  "time": 1235907276,
  "mediantime": 1235904106,
  "nonce": 164641608,
  "bits": "1d00ffff",
  "difficulty": 1,
  "chainwork": "0000000000000000000000000000000000000000000000000000175717571757",
  "nTx": 1,
  "previousblockhash": "00000000a007bc9cee66fa22462d0a43627e3e93700dbfc4396b05ea1b9a4635",
  "nextblockhash": "000000009e2b227a3bc1f65cfbff4ee1556501a31db849e5a5be46be3acc69eb",
  "strippedsize": 216,
  "size": 216,
  "weight": 864,
  "tx": [
    {
      "txid": "a0f11f31ea1361e32ecc11af30e5a55532deb6ce5c5e8c547bdab7729f1c1a4f",
      "hash": "a0f11f31ea1361e32ecc11af30e5a55532deb6ce5c5e8c547bdab7729f1c1a4f",
      "version": 1,
      "size": 135,
      "vsize": 135,
      "weight": 540,
      "locktime": 0,
      "vin": [
        {
          "coinbase": "04ffff001d021b09",
          "sequence": 4294967295
        }
      ],
      "vout": [
        {
          "value": 50.0,
          "n": 0,
          "scriptPubKey": {
            "asm": "043ccb938c24555c5f50107b4a97c1394a07832ccc3795eb05405b903fbf8a6f071d6921cd1ec4137af675c7f88b905ca71d71fff67dedea40fe0679c988502359 OP_CHECKSIG",
            "desc": "pk(043ccb938c24555c5f50107b4a97c1394a07832ccc3795eb05405b903fbf8a6f071d6921cd1ec4137af675c7f88b905ca71d71fff67dedea40fe0679c988502359)#ehk9eyce",
            "hex": "41043ccb938c24555c5f50107b4a97c1394a07832ccc3795eb05405b903fbf8a6f071d6921cd1ec4137af675c7f88b905ca71d71fff67dedea40fe0679c988502359ac",
            "type": "pubkey"
          }
        }
      ],
      "hex": "01000000010000000000000000000000000000000000000000000000000000000000000000ffffffff0804ffff001d021b09ffffffff0100f2052a010000004341043ccb938c24555c5f50107b4a97c1394a07832ccc3795eb05405b903fbf8a6f071d6921cd1ec4137af675c7f88b905ca71d71fff67dedea40fe0679c988502359ac00000000"
    }
  ]
}