{
  "hash": "0000000080ba99de231147c2167c6c04a7a31c72f9e1e278c88187563dea8c77",
  "confirmations": 43173,
  "height": 9925,
  "version": 1,
  "versionHex": "00000001",
  "merkleroot": "d82bc16f0e56427f16d76fd27f67960561e12c4ef2172b217252a46d89aaf0ff",
  "time": 1238937981,
  "mediantime": 1238934657,
  "nonce": 4084051989,
  "bits": "1d00ffff",
  "difficulty": 1,
  "chainwork": "000000000000000000000000000000000000000000000000000026c626c626c6",
  "nTx": 1,
  "previousblockhash": "0000000076c29e4855ff93adf9e6e7ae46135e0c6ea3c6c9610da80e6d3ddd1b",
  "nextblockhash": "00000000f41633f43a827c3e6e1886ac59a7a890e92f8a36134f11b51a1650e3",
  "strippedsize": 216,
  "size": 216,
  "weight": 864,
  "tx": [
    {
      "txid": "d82bc16f0e56427f16d76fd27f67960561e12c4ef2172b217252a46d89aaf0ff",
      "hash": "d82bc16f0e56427f16d76fd27f67960561e12c4ef2172b217252a46d89aaf0ff",
      "version": 1,
      "size": 135,
      "vsize": 135,
      "weight": 540,
      "locktime": 0,
      "vin": [
        {
          "coinbase": "04ffff001d027402",
          "sequence": 4294967295
        }
      ],
      "vout": [
        {
          "value": 50.0,
          "n": 0,
          "scriptPubKey": {
            "asm": "04cfe1f519a287e8661c6ea0c8d7eb6e1dfc70d17c73ee4f22ec3c8b9e7904067946dc43c85ed8ae519bafbdaf28833ee9f13c71a8ac6be5885d6eff594f88665a OP_CHECKSIG",
            "desc": "pk(04cfe1f519a287e8661c6ea0c8d7eb6e1dfc70d17c73ee4f22ec3c8b9e7904067946dc43c85ed8ae519bafbdaf28833ee9f13c71a8ac6be5885d6eff594f88665a)#pxswrjm0",
            "hex": "4104cfe1f519a287e8661c6ea0c8d7eb6e1dfc70d17c73ee4f22ec3c8b9e7904067946dc43c85ed8ae519bafbdaf28833ee9f13c71a8ac6be5885d6eff594f88665aac",
            "type": "pubkey"
          }
        }
      ],
      "hex": "01000000010000000000000000000000000000000000000000000000000000000000000000ffffffff0804ffff001d027402ffffffff0100f2052a01000000434104cfe1f519a287e8661c6ea0c8d7eb6e1dfc70d17c73ee4f22ec3c8b9e7904067946dc43c85ed8ae519bafbdaf28833ee9f13c71a8ac6be5885d6eff594f88665aac00000000"
    }
  ]
}