{
  "hash": "00000000b94ac5e08ca0e3e56cb5951109e30b8a5b7b97f8b106a6d7ec14a4ee",
  "confirmations": 43129,
  "height": 9969,
  "version": 1,
  "versionHex": "00000001",
  "merkleroot": "6d5b045aceac28cbf3d69fff041f53906efcbffebe27b03342371cca466fc181",
  "time": 1238970203,
  "mediantime": 1238966173,
  "nonce": 3822689844,
  "bits": "1d00ffff",
  "difficulty": 1,
  "chainwork": "000000000000000000000000000000000000000000000000000026f226f226f2",
  "nTx": 1,
  "previousblockhash": "000000002c1bcf6765602f5fb4e250000a672a98b657c5e3c1cce1fc1193bab5",
  "nextblockhash": "000000004ae235de91e61928d42e966e31967fd1e86a538d92a8b415bc348465",
  "strippedsize": 216,
  "size": 216,
  "weight": 864,
  "tx": [
    {
      "txid": "6d5b045aceac28cbf3d69fff041f53906efcbffebe27b03342371cca466fc181",
      "hash": "6d5b045aceac28cbf3d69fff041f53906efcbffebe27b03342371cca466fc181",
      "version": 1,
      "size": 135,
      "vsize": 135,
      "weight": 540,
      "locktime": 0,
      "vin": [
        {
          "coinbase": "04ffff001d02fa02",
          "sequence": 4294967295
        }
      ],
      "vout": [
        {
          "value": 50.0,
          "n": 0,
          "scriptPubKey": {
            "asm": "04cfa2957113fbf9a075636817a0468722b387550680137e734b00d4c52fb8a21cde08abdc890ead0316bfa76760967c5c93c65559e28be277d498075fa6bf4b85 OP_CHECKSIG",
            "desc": "pk(04cfa2957113fbf9a075636817a0468722b387550680137e734b00d4c52fb8a21cde08abdc890ead0316bfa76760967c5c93c65559e28be277d498075fa6bf4b85)#4hg8r2au",
            "hex": "4104cfa2957113fbf9a075636817a0468722b387550680137e734b00d4c52fb8a21cde08abdc890ead0316bfa76760967c5c93c65559e28be277d498075fa6bf4b85ac",
            "type": "pubkey"
          }
        }
      ],
      "hex": "01000000010000000000000000000000000000000000000000000000000000000000000000ffffffff0804ffff001d02fa02ffffffff0100f2052a01000000434104cfa2957113fbf9a075636817a0468722b387550680137e734b00d4c52fb8a21cde08abdc890ead0316bfa76760967c5c93c65559e28be277d498075fa6bf4b85ac00000000"
    }
  ]
}