{
  "hash": "00000000c93c9874db8d899f8409a98980d3cf2b0d776aa8e18e82a961d7eafc",
  "confirmations": 47298,
  "height": 5800,
  "version": 1,
  "versionHex": "00000001",
  "merkleroot": "6ef9873a490e1796be719785452e19e424d1dcd8c47ec7196d321a84e087fbb7",
  "time": 1235759543,
  "mediantime": 1235756315,
  "nonce": 1569117704,
  "bits": "1d00ffff",
  "difficulty": 1,
  "chainwork": "000000000000000000000000000000000000000000000000000016a916a916a9",
  "nTx": 1,
  "previousblockhash": "000000006ae24426eb2cd7384fdc364d01b52ae2d6153bb2ea6b766a398f3fdf",
  "nextblockhash": "00000000f94d02c84f733bfa4cf26bb87a44b6261c2b62c659e6f582a402727a",
  "strippedsize": 216,
  "size": 216,
  "weight": 864,
  "tx": [
    {
      "txid": "6ef9873a490e1796be719785452e19e424d1dcd8c47ec7196d321a84e087fbb7",
      "hash": "6ef9873a490e1796be719785452e19e424d1dcd8c47ec7196d321a84e087fbb7",
      "version": 1,
      "size": 135,
      "vsize": 135,
      "weight": 540,
      "locktime": 0,
      "vin": [
        {
          "coinbase": "04ffff001d02b400",
          "sequence": 4294967295
        }
      ],
      "vout": [
        {
          "value": 50.0,
          "n": 0,
          "scriptPubKey": {
            "asm": "04de46aa0ba3bb1592e544dac3ec14c8f38738b71647f034a40f74f0aac14920c537f9fa222ae7ae03e1e229f6313234d85b025f66d6834901ad607030fc890fd8 OP_CHECKSIG",
            "desc": "pk(04de46aa0ba3bb1592e544dac3ec14c8f38738b71647f034a40f74f0aac14920c537f9fa222ae7ae03e1e229f6313234d85b025f66d6834901ad607030fc890fd8)#ktvr3hy5",
            "hex": "4104de46aa0ba3bb1592e544dac3ec14c8f38738b71647f034a40f74f0aac14920c537f9fa222ae7ae03e1e229f6313234d85b025f66d6834901ad607030fc890fd8ac",
            "type": "pubkey"
          }
        }
      ],
      "hex": "01000000010000000000000000000000000000000000000000000000000000000000000000ffffffff0804ffff001d02b400ffffffff0100f2052a01000000434104de46aa0ba3bb1592e544dac3ec14c8f38738b71647f034a40f74f0aac14920c537f9fa222ae7ae03e1e229f6313234d85b025f66d6834901ad607030fc890fd8ac00000000"
    }
  ]
}