{
  "hash": "00000000e979a834d18ef3fe6e502ca498e5091add917085ad632a7b9d4a9ed0",
  "confirmations": 45005,
  "height": 8093,
  "version": 1,
  "versionHex": "00000001",
  "merkleroot": "8b160ac0dcb0593ff6aed9ba25a463926701dcbc0ac9860d438fa27e4bdd35ae",
  "time": 1237526777,
  "mediantime": 1237522329,
  "nonce": 2743746603,
  "bits": "1d00ffff",
  "difficulty": 1,
  "chainwork": "00000000000000000000000000000000000000000000000000001f9e1f9e1f9e",
  "nTx": 1,
  "previousblockhash": "000000008496bd0f4a2f37930d65493f1f5b6c1d6db0ed3561da47ed142d6d2c",
  "nextblockhash": "00000000d3f1c76de6682f0bc9ee10ceed0e76094b3f48237a1083255d18d9b1",
  "strippedsize": 216,
  "size": 216,
  "weight": 864,
  "tx": [
    {
      "txid": "8b160ac0dcb0593ff6aed9ba25a463926701dcbc0ac9860d438fa27e4bdd35ae",
      "hash": "8b160ac0dcb0593ff6aed9ba25a463926701dcbc0ac9860d438fa27e4bdd35ae",
      "version": 1,
      "size": 135,
      "vsize": 135,
      "weight": 540,
      "locktime": 0,
      "vin": [
        {
          "coinbase": "04ffff001d02f700",
          "sequence": 4294967295
        }
      ],
      "vout": [
        {
          "value": 50.0,
          "n": 0,
          "scriptPubKey": {
            "asm": "04b69a5f9debaf87bf742808f219c945853b114383e867685a9c67b8f70aded94805db499bb49ea4de1c3065598e785ab05ea17d165ba098cc79d6d2eff170a095 OP_CHECKSIG",
            "desc": "pk(04b69a5f9debaf87bf742808f219c945853b114383e867685a9c67b8f70aded94805db499bb49ea4de1c3065598e785ab05ea17d165ba098cc79d6d2eff170a095)#3qzd9ayp",
            "hex": "4104b69a5f9debaf87bf742808f219c945853b114383e867685a9c67b8f70aded94805db499bb49ea4de1c3065598e785ab05ea17d165ba098cc79d6d2eff170a095ac",
            "type": "pubkey"
          }
        }
      ],
      "hex": "01000000010000000000000000000000000000000000000000000000000000000000000000ffffffff0804ffff001d02f700ffffffff0100f2052a01000000434104b69a5f9debaf87bf742808f219c945853b114383e867685a9c67b8f70aded94805db499bb49ea4de1c3065598e785ab05ea17d165ba098cc79d6d2eff170a095ac00000000"
    }
  ]
}