{
  "hash": "00000000a591a0a31953764ac5bfa1f6b1ced9488d83147c7fd757382b2656ae",
  "confirmations": 47368,
  "height": 5730,
  "version": 1,
  "versionHex": "00000001",
  "merkleroot": "7cab36c21f2490dcb6f13c10bcbabedb75d2fbce4b68cd34e4733a293e3abf3b",
  "time": 1235707026,
  "mediantime": 1235702596,
  "nonce": 4001786927,
  "bits": "1d00ffff",
  "difficulty": 1,
  "chainwork": "0000000000000000000000000000000000000000000000000000166316631663",
  "nTx": 1,
  "previousblockhash": "00000000928d6e95db96fe3dfbee33d3ad024d8dce7ee8539b7e8126f452c2bc",
  "nextblockhash": "0000000090f6f2723c6ca4d9b935dedf309f6d150c1022184caae070406195a1",
  "strippedsize": 216,
  "size": 216,
  "weight": 864,
  "tx": [
    {
      "txid": "7cab36c21f2490dcb6f13c10bcbabedb75d2fbce4b68cd34e4733a293e3abf3b",
      "hash": "7cab36c21f2490dcb6f13c10bcbabedb75d2fbce4b68cd34e4733a293e3abf3b",
      "version": 1,
      "size": 135,
      "vsize": 135,
      "weight": 540,
      "locktime": 0,
      "vin": [
        {
          "coinbase": "04ffff001d02ef09",
          "sequence": 4294967295
        }
      ],
      "vout": [
        {
          "value": 50.0,
          "n": 0,
          "scriptPubKey": {
            "asm": "04e94b805c874b0fb5bd782c18203a7ad102cd5ff00907be9ae489a6a6f8cadac2083b7e392c6eefebb14f450caaf89ae3e8410b495f755b4544122b25bacedbbb OP_CHECKSIG",
            "desc": "pk(04e94b805c874b0fb5bd782c18203a7ad102cd5ff00907be9ae489a6a6f8cadac2083b7e392c6eefebb14f450caaf89ae3e8410b495f755b4544122b25bacedbbb)#u55e9e4r",
            "hex": "4104e94b805c874b0fb5bd782c18203a7ad102cd5ff00907be9ae489a6a6f8cadac2083b7e392c6eefebb14f450caaf89ae3e8410b495f755b4544122b25bacedbbbac",
            "type": "pubkey"
          }
        }
      ],
      "hex": "01000000010000000000000000000000000000000000000000000000000000000000000000ffffffff0804ffff001d02ef09ffffffff0100f2052a01000000434104e94b805c874b0fb5bd782c18203a7ad102cd5ff00907be9ae489a6a6f8cadac2083b7e392c6eefebb14f450caaf89ae3e8410b495f755b4544122b25bacedbbbac00000000"
    }
  ]
}