{
  "hash": "0000000028cc6310021666c7a9a9f72f58747e448da49aafe3828d002e2021d8",
  "confirmations": 48782,
  "height": 4316,
  "version": 1,
  "versionHex": "00000001",
  "merkleroot": "a52e4288529e2c6fd889ddd155225f4c06da1da47498a859ab1a256f4032d46d",
  "time": 1234654850,
  "mediantime": 1234650135,
  "nonce": 1973128481,
  "bits": "1d00ffff",
  "difficulty": 1,
  "chainwork": "000000000000000000000000000000000000000000000000000010dd10dd10dd",
  "nTx": 1,
  "previousblockhash": "0000000036e5eb2b8699b7bb451d611d1d5a7fd98c490653a03530934cebe230",
  "nextblockhash": "000000005c7ef94cf3eb3526aef2c9ec1352c33e7e869056cdffa3711d9b3eb5",
  "strippedsize": 215,
  "size": 215,
  "weight": 860,
  "tx": [
    {
      "txid": "a52e4288529e2c6fd889ddd155225f4c06da1da47498a859ab1a256f4032d46d",
      "hash": "a52e4288529e2c6fd889ddd155225f4c06da1da47498a859ab1a256f4032d46d",
      "version": 1,
      "size": 134,
      "vsize": 134,
      "weight": 536,
      "locktime": 0,
      "vin": [
        {
          "coinbase": "04ffff001d012a",
          "sequence": 4294967295
        }
      ],
      "vout": [
        {
          "value": 50.0,
          "n": 0,
          "scriptPubKey": {
            "asm": "04c37d7fb449bc8fac5553e8132bf8e57af8800c2641e1c954077f4ca7817fbc0e63c74d780b29c377dd03e774cce526ba8e6be799c3960465f789eb6ee8c0c3ff OP_CHECKSIG",
            "desc": "pk(04c37d7fb449bc8fac5553e8132bf8e57af8800c2641e1c954077f4ca7817fbc0e63c74d780b29c377dd03e774cce526ba8e6be799c3960465f789eb6ee8c0c3ff)#2tgw0ckj",
            "hex": "4104c37d7fb449bc8fac5553e8132bf8e57af8800c2641e1c954077f4ca7817fbc0e63c74d780b29c377dd03e774cce526ba8e6be799c3960465f789eb6ee8c0c3ffac",
            "type": "pubkey"
          }
        }
      ],
      "hex": "01000000010000000000000000000000000000000000000000000000000000000000000000ffffffff0704ffff001d012affffffff0100f2052a01000000434104c37d7fb449bc8fac5553e8132bf8e57af8800c2641e1c954077f4ca7817fbc0e63c74d780b29c377dd03e774cce526ba8e6be799c3960465f789eb6ee8c0c3ffac00000000"
    }
  ]
}