{
  "hash": "00000000b69bd8e4dc60580117617a466d5c76ada85fb7b87e9baea01f9d9984",
  "confirmations": 51974,
  "height": 101,
  "version": 1,
  "versionHex": "00000001",
  "merkleroot": "cfe6b74cab677b52d850ac659d54266a3a4d7bb48270234d2fec836881d0a5f7",
  "time": 1231661741,
  "mediantime": 1231657185,
  "nonce": 4136106517,
  "bits": "1d00ffff",
  "difficulty": 1,
  "chainwork": "0000000000000000000000000000000000000000000000000000006600660066",
  "nTx": 1,
  "previousblockhash": "000000007bc154e0fa7ea32218a72fe2c1bb9f86cf8c9ebf9a715ed27fdb229a",
  "nextblockhash": "000000001604181f13f19fd3cc89366ec95ce1dd64b776784ef8855210622f19",
  "strippedsize": 215,
  "size": 215,
  "weight": 860,
  "tx": [
    {
      "txid": "cfe6b74cab677b52d850ac659d54266a3a4d7bb48270234d2fec836881d0a5f7",
      "hash": "cfe6b74cab677b52d850ac659d54266a3a4d7bb48270234d2fec836881d0a5f7",
      "version": 1,
      "size": 134,
      "vsize": 134,
      "weight": 536,
      "locktime": 0,
      "vin": [
        {
          "coinbase": "04ffff001d014e",
          "sequence": 4294967295
        }
      ],
      "vout": [
        {
          "value": 50.0,
          "n": 0,
          "scriptPubKey": {
            "asm": "04181d31d7160779e75231f7647f91e53d633839eb9ce3fe096ec522719cc1b9da0237cb9941a059579bee26692a90344417069391a6aa1e4680caa4580a7ab9f3 OP_CHECKSIG",
            "desc": "pk(04181d31d7160779e75231f7647f91e53d633839eb9ce3fe096ec522719cc1b9da0237cb9941a059579bee26692a90344417069391a6aa1e4680caa4580a7ab9f3)#e24pphs6",
            "hex": "4104181d31d7160779e75231f7647f91e53d633839eb9ce3fe096ec522719cc1b9da0237cb9941a059579bee26692a90344417069391a6aa1e4680caa4580a7ab9f3ac",
            "type": "pubkey"
          }
        }
      ],
      "hex": "01000000010000000000000000000000000000000000000000000000000000000000000000ffffffff0704ffff001d014effffffff0100f2052a01000000434104181d31d7160779e75231f7647f91e53d633839eb9ce3fe096ec522719cc1b9da0237cb9941a059579bee26692a90344417069391a6aa1e4680caa4580a7ab9f3ac00000000"
    }
  ]
}