{
  "hash": "000000002ed0737a5cba35cf77e4999c3108ae17a983776540e226c665a4acfd",
  "confirmations": 45602,
  "height": 7496,
  "version": 1,
  "versionHex": "00000001",
  "merkleroot": "3f94ff4b59de286c3da7f9e9e6215d35296777c90481bf65555997b9b736fc05",
  "time": 1237094759,
  "mediantime": 1237090741,
  "nonce": 3406696482,
  "bits": "1d00ffff",
  "difficulty": 1,
  "chainwork": "00000000000000000000000000000000000000000000000000001d491d491d49",
  "nTx": 1,
  "previousblockhash": "000000007aeae79d191235daff82215136d3e86caddadeb182cd6981c325602b",
  "nextblockhash": "000000003b1ad46bdd2e5e919236a34cca51b26eaccd62d2dacec9a2f20a2bf9",
  "strippedsize": 216,
  "size": 216,
  "weight": 864,
  "tx": [
    {
      "txid": "3f94ff4b59de286c3da7f9e9e6215d35296777c90481bf65555997b9b736fc05",
      "hash": "3f94ff4b59de286c3da7f9e9e6215d35296777c90481bf65555997b9b736fc05",
      "version": 1,
      "size": 135,
      "vsize": 135,
      "weight": 540,
      "locktime": 0,
      "vin": [
        {
          "coinbase": "04ffff001d02e600",
          "sequence": 4294967295
        }
      ],
      "vout": [
        {
          "value": 50.0,
          "n": 0,
          "scriptPubKey": {
            "asm": "04fc6239d717b82451a33048347a062a96e4b5acadf2ce299ee42205f18cc9a115ba114fd8e88fcfe1b1fa4efd669f1ed358faa9ceca942c5bf27fef15b81e2406 OP_CHECKSIG",
            "desc": "pk(04fc6239d717b82451a33048347a062a96e4b5acadf2ce299ee42205f18cc9a115ba114fd8e88fcfe1b1fa4efd669f1ed358faa9ceca942c5bf27fef15b81e2406)#4vreyez5",
            "hex": "4104fc6239d717b82451a33048347a062a96e4b5acadf2ce299ee42205f18cc9a115ba114fd8e88fcfe1b1fa4efd669f1ed358faa9ceca942c5bf27fef15b81e2406ac",
            "type": "pubkey"
          }
        }
      ],
      "hex": "01000000010000000000000000000000000000000000000000000000000000000000000000ffffffff0804ffff001d02e600ffffffff0100f2052a01000000434104fc6239d717b82451a33048347a062a96e4b5acadf2ce299ee42205f18cc9a115ba114fd8e88fcfe1b1fa4efd669f1ed358faa9ceca942c5bf27fef15b81e2406ac00000000"
    }
  ]
}