{
  "hash": "00000000b2f298757e5db43e956f2b13e47c66e908296cc73931dd74de149e18",
  "confirmations": 47833,
  "height": 5265,
  "version": 1,
  "versionHex": "00000001",
  "merkleroot": "fe791396f73465939671a98faf340955b8f932de5ecdff2ddb76411cbea59052",
  "time": 1235333696,
  "mediantime": 1235330535,
  "nonce": 96181051,
  "bits": "1d00ffff",
  "difficulty": 1,
  "chainwork": "0000000000000000000000000000000000000000000000000000149214921492",
  "nTx": 1,
  "previousblockhash": "00000000a8548239874d42f2566c8c9976fb7aa162394c3ff60030d86219f366",
  "nextblockhash": "000000006d252aff157b8b6b5212fe6c72e3a2904912a6022c1161dcb329d744",
  "strippedsize": 215,
  "size": 215,
  "weight": 860,
  "tx": [
    {
      "txid": "fe791396f73465939671a98faf340955b8f932de5ecdff2ddb76411cbea59052",
      "hash": "fe791396f73465939671a98faf340955b8f932de5ecdff2ddb76411cbea59052",
      "version": 1,
      "size": 134,
      "vsize": 134,
      "weight": 536,
      "locktime": 0,
      "vin": [
        {
          "coinbase": "04ffff001d010e",
          "sequence": 4294967295
        }
      ],
      "vout": [
        {
          "value": 50.0,
          "n": 0,
          "scriptPubKey": {
            "asm": "0446a69d60b9f37fc985ecbea8dc337729f9097f794e290d87a602c857b1c77bf6e5939759334aee6aa61d7d898c56d4635428e26fd6d14717021ac7c378f8e5af OP_CHECKSIG",
            "desc": "pk(0446a69d60b9f37fc985ecbea8dc337729f9097f794e290d87a602c857b1c77bf6e5939759334aee6aa61d7d898c56d4635428e26fd6d14717021ac7c378f8e5af)#6lw4jqd5",
            "hex": "410446a69d60b9f37fc985ecbea8dc337729f9097f794e290d87a602c857b1c77bf6e5939759334aee6aa61d7d898c56d4635428e26fd6d14717021ac7c378f8e5afac",
            "type": "pubkey"
          }
        }
      ],
      "hex": "01000000010000000000000000000000000000000000000000000000000000000000000000ffffffff0704ffff001d010effffffff0100f2052a0100000043410446a69d60b9f37fc985ecbea8dc337729f9097f794e290d87a602c857b1c77bf6e5939759334aee6aa61d7d898c56d4635428e26fd6d14717021ac7c378f8e5afac00000000"
    }
  ]
}