{
  "hash": "0000000033b6aff54367192081c65ece7edb4277ebb727c22091f47916e3fb5e",
  "confirmations": 52138,
  "height": 960,
  "version": 1,
  "versionHex": "00000001",
  "merkleroot": "e930898623b7fa595727e6d94f8630356feb1d57a18b1e57f07494e1fa8cf0a8",
  "time": 1232319062,
  "mediantime": 1232316437,
  "nonce": 1605017381,
  "bits": "1d00ffff",
  "difficulty": 1,
  "chainwork": "000000000000000000000000000000000000000000000000000003c103c103c1",
  "nTx": 1,
  "previousblockhash": "000000001472bfd85bc45db02fe9b76f4334b38427bdd1e40c192807a6d725e2",
  "nextblockhash": "0000000057e2da87ccf7f2ca9538096a67ca77fad5ae414417c51d61199dead0",
  "strippedsize": 216,
  "size": 216,
  "weight": 864,
  "tx": [
    {
      "txid": "e930898623b7fa595727e6d94f8630356feb1d57a18b1e57f07494e1fa8cf0a8",
      "hash": "e930898623b7fa595727e6d94f8630356feb1d57a18b1e57f07494e1fa8cf0a8",
      "version": 1,
      "size": 135,
      "vsize": 135,
      "weight": 540,
      "locktime": 0,
      "vin": [
        {
          "coinbase": "04ffff001d027c04",
          "sequence": 4294967295
        }
      ],
      "vout": [
        {
          "value": 50.0,
          "n": 0,
          "scriptPubKey": {
            "asm": "046f4e71ff22b538f31413ebfb18e4549c3bc02d13c9e9f35a6e122a263646c55f97545485988df6a1c599fbe9b6128ccd5a757242e278e287124a8acb969cd602 OP_CHECKSIG",
            "desc": "pk(046f4e71ff22b538f31413ebfb18e4549c3bc02d13c9e9f35a6e122a263646c55f97545485988df6a1c599fbe9b6128ccd5a757242e278e287124a8acb969cd602)#za7y3m4a",
            "hex": "41046f4e71ff22b538f31413ebfb18e4549c3bc02d13c9e9f35a6e122a263646c55f97545485988df6a1c599fbe9b6128ccd5a757242e278e287124a8acb969cd602ac",
            "type": "pubkey"
          }
        }
      ],
      "hex": "01000000010000000000000000000000000000000000000000000000000000000000000000ffffffff0804ffff001d027c04ffffffff0100f2052a010000004341046f4e71ff22b538f31413ebfb18e4549c3bc02d13c9e9f35a6e122a263646c55f97545485988df6a1c599fbe9b6128ccd5a757242e278e287124a8acb969cd602ac00000000"
    }
  ]
}