{
  "hash": "00000000aab648cb52d04762cb733b4cce193f960abdc1e6d888e2f05d6440a7",
  "confirmations": 47416,
  "height": 5682,
  "version": 1,
  "versionHex": "00000001",
  "merkleroot": "886fef7fdbf7ebdc40bfdbfdec3a736aeab7f9c7128950573d13c41ee7cfe0e6",
  "time": 1235674770,
  "mediantime": 1235672675,
  "nonce": 69675619,
  "bits": "1d00ffff",
  "difficulty": 1,
  "chainwork": "0000000000000000000000000000000000000000000000000000163316331633",
  "nTx": 1,
  "previousblockhash": "00000000c4d23fc94f3939e26f249fee98ce464d38415a9299606399dce8e923",
  "nextblockhash": "0000000061e609fc1590a6b5fcfdddb58a03c7e8240b4275f0ad49d618e26d2a",
  "strippedsize": 216,
  "size": 216,
  "weight": 864,
  "tx": [
    {
      "txid": "886fef7fdbf7ebdc40bfdbfdec3a736aeab7f9c7128950573d13c41ee7cfe0e6",
      "hash": "886fef7fdbf7ebdc40bfdbfdec3a736aeab7f9c7128950573d13c41ee7cfe0e6",
      "version": 1,
      "size": 135,
      "vsize": 135,
      "weight": 540,
      "locktime": 0,
      "vin": [
        {
          "coinbase": "04ffff001d02f507",
          "sequence": 4294967295
        }
      ],
      "vout": [
        {
          "value": 50.0,
          "n": 0,
          "scriptPubKey": {
            "asm": "0464e912737da185f88fc14aa0dd2a1d623380c1035e4d07646bf46b7938ce999b87e43ad0982fe20a0260d613858d2dfbc8da1cd0ab76ff37ba269b6b7d37b9ba OP_CHECKSIG",
            "desc": "pk(0464e912737da185f88fc14aa0dd2a1d623380c1035e4d07646bf46b7938ce999b87e43ad0982fe20a0260d613858d2dfbc8da1cd0ab76ff37ba269b6b7d37b9ba)#w53ugc6s",
            "hex": "410464e912737da185f88fc14aa0dd2a1d623380c1035e4d07646bf46b7938ce999b87e43ad0982fe20a0260d613858d2dfbc8da1cd0ab76ff37ba269b6b7d37b9baac",
            "type": "pubkey"
          }
        }
      ],
      "hex": "01000000010000000000000000000000000000000000000000000000000000000000000000ffffffff0804ffff001d02f507ffffffff0100f2052a0100000043410464e912737da185f88fc14aa0dd2a1d623380c1035e4d07646bf46b7938ce999b87e43ad0982fe20a0260d613858d2dfbc8da1cd0ab76ff37ba269b6b7d37b9baac00000000"
    }
  ]
}