{
  "hash": "00000000173387ddc705e1b4cddff3e993ddfc4eb087c6e42ef2b245ccf31e5c",
  "confirmations": 47358,
  "height": 5740,
  "version": 1,
  "versionHex": "00000001",
  "merkleroot": "b27b093954baa253e9f238409687878c5fd42aed582b89f71229aa9befe6c4b7",
  "time": 1235713915,
  "mediantime": 1235710587,
  "nonce": 3717093161,
  "bits": "1d00ffff",
  "difficulty": 1,
  "chainwork": "0000000000000000000000000000000000000000000000000000166d166d166d",
  "nTx": 1,
  "previousblockhash": "00000000cb46b92d09a373864a17f84a3e553ffac83858d5cbedc659f01112f2",
  "nextblockhash": "0000000007bbb10a32beb11f9659fd246cbe09b9b3c933e2f4fd3dde9aff2aed",
  "strippedsize": 216,
  "size": 216,
  "weight": 864,
  "tx": [
    {
      "txid": "b27b093954baa253e9f238409687878c5fd42aed582b89f71229aa9befe6c4b7",
      "hash": "b27b093954baa253e9f238409687878c5fd42aed582b89f71229aa9befe6c4b7",
      "version": 1,
      "size": 135,
      "vsize": 135,
      "weight": 540,
      "locktime": 0,
      "vin": [
        {
          "coinbase": "04ffff001d02200a",
          "sequence": 4294967295
        }
      ],
      "vout": [
        {
          "value": 50.0,
          "n": 0,
          "scriptPubKey": {
            "asm": "0468ad2a7c62859c97b207196384f15e23a3a239bbf27737ba528bee055cebabfe5e90c8699a1681d0efd7c3da7a705f402172b1e859c2681e8619d643cd8a710e OP_CHECKSIG",
            "desc": "pk(0468ad2a7c62859c97b207196384f15e23a3a239bbf27737ba528bee055cebabfe5e90c8699a1681d0efd7c3da7a705f402172b1e859c2681e8619d643cd8a710e)#xa0qedtc",
            "hex": "410468ad2a7c62859c97b207196384f15e23a3a239bbf27737ba528bee055cebabfe5e90c8699a1681d0efd7c3da7a705f402172b1e859c2681e8619d643cd8a710eac",
            "type": "pubkey"
          }
        }
      ],
      "hex": "01000000010000000000000000000000000000000000000000000000000000000000000000ffffffff0804ffff001d02200affffffff0100f2052a0100000043410468ad2a7c62859c97b207196384f15e23a3a239bbf27737ba528bee055cebabfe5e90c8699a1681d0efd7c3da7a705f402172b1e859c2681e8619d643cd8a710eac00000000"
    }
  ]
}