{
  "hash": "00000000b127bfefe6afc98908e6071840b979cbd26a54f8b545908176ca4022",
  "confirmations": 50697,
  "height": 2401,
  "version": 1,
  "versionHex": "00000001",
  "merkleroot": "846b81aeabf9fa49281c63ac6f696dc4994d885225a54bd4edb18642d3df8d03",
  "time": 1233355986,
  "mediantime": 1233350963,
  "nonce": 23213422,
  "bits": "1d00ffff",
  "difficulty": 1,
  "chainwork": "0000000000000000000000000000000000000000000000000000096209620962",
  "nTx": 1,
  "previousblockhash": "00000000081038eb250216ebb27f94d8896d2984dc962020c53e6a2852b92967",
  "nextblockhash": "00000000040ea4732f40af0f7392e3b97a4b58309fb012a625120be5899f3f2d",
  "strippedsize": 216,
  "size": 216,
  "weight": 864,
  "tx": [
    {
      "txid": "846b81aeabf9fa49281c63ac6f696dc4994d885225a54bd4edb18642d3df8d03",
      "hash": "846b81aeabf9fa49281c63ac6f696dc4994d885225a54bd4edb18642d3df8d03",
      "version": 1,
      "size": 135,
      "vsize": 135,
      "weight": 540,
      "locktime": 0,
      "vin": [
        {
          "coinbase": "04ffff001d02f900",
          "sequence": 4294967295
        }
      ],
      "vout": [
        {
          "value": 50.0,
          "n": 0,
          "scriptPubKey": {
            "asm": "04f49671537c2fcd57fc681d2e71f682c1ee209d89badc8ae027f5470efcf51bce0c7676265e4e9abc4771fec4ba34fe87cf85218e0c453bc1a6faad2b2b8d0b8c OP_CHECKSIG",
            "desc": "pk(04f49671537c2fcd57fc681d2e71f682c1ee209d89badc8ae027f5470efcf51bce0c7676265e4e9abc4771fec4ba34fe87cf85218e0c453bc1a6faad2b2b8d0b8c)#20vwmaqr",
            "hex": "4104f49671537c2fcd57fc681d2e71f682c1ee209d89badc8ae027f5470efcf51bce0c7676265e4e9abc4771fec4ba34fe87cf85218e0c453bc1a6faad2b2b8d0b8cac",
            "type": "pubkey"
          }
        }
      ],
      "hex": "01000000010000000000000000000000000000000000000000000000000000000000000000ffffffff0804ffff001d02f900ffffffff0100f2052a01000000434104f49671537c2fcd57fc681d2e71f682c1ee209d89badc8ae027f5470efcf51bce0c7676265e4e9abc4771fec4ba34fe87cf85218e0c453bc1a6faad2b2b8d0b8cac00000000"
    }
  ]
}