{
  "hash": "0000000038806a20908b3504c8357b0a84cd2053d98814e9665959fa9917e721",
  "confirmations": 43410,
  "height": 9688,
  "version": 1,
  "versionHex": "00000001",
  "merkleroot": "9e0477b1d9f2daef206ff305634074822b5b2311172d61d3fa794f60a22154f7",
  "time": 1238770202,
  "mediantime": 1238766691,
  "nonce": 64770265,
  "bits": "1d00ffff",
  "difficulty": 1,
  "chainwork": "000000000000000000000000000000000000000000000000000025d925d925d9",
  "nTx": 1,
  "previousblockhash": "0000000082069a2b9a9b2428da4fc3cca39b636ca4bfd79abf85016906daca71",
  "nextblockhash": "00000000d99c02b3ba9537ea410afef45756bfffe739dbf127e5a64729eb0db7",
  "strippedsize": 215,
  "size": 215,
  "weight": 860,
  "tx": [
    {
      "txid": "9e0477b1d9f2daef206ff305634074822b5b2311172d61d3fa794f60a22154f7",
      "hash": "9e0477b1d9f2daef206ff305634074822b5b2311172d61d3fa794f60a22154f7",
      "version": 1,
      "size": 134,
      "vsize": 134,
      "weight": 536,
      "locktime": 0,
      "vin": [
        {
          "coinbase": "04ffff001d010e",
          "sequence": 4294967295
        }
      ],
      "vout": [
        {
          "value": 50.0,
          "n": 0,
          "scriptPubKey": {
            "asm": "0482d211fe0850aa3d17e8eadfbcc77b683f312bd0804d18b8f09c5e05e3b6d2d9852da0af62c0924df69e80f4fef32592ecc728b2b95e055d9b7564245ab27b46 OP_CHECKSIG",
            "desc": "pk(0482d211fe0850aa3d17e8eadfbcc77b683f312bd0804d18b8f09c5e05e3b6d2d9852da0af62c0924df69e80f4fef32592ecc728b2b95e055d9b7564245ab27b46)#l3y5p9en",
            "hex": "410482d211fe0850aa3d17e8eadfbcc77b683f312bd0804d18b8f09c5e05e3b6d2d9852da0af62c0924df69e80f4fef32592ecc728b2b95e055d9b7564245ab27b46ac",
            "type": "pubkey"
          }
        }
      ],
      "hex": "01000000010000000000000000000000000000000000000000000000000000000000000000ffffffff0704ffff001d010effffffff0100f2052a0100000043410482d211fe0850aa3d17e8eadfbcc77b683f312bd0804d18b8f09c5e05e3b6d2d9852da0af62c0924df69e80f4fef32592ecc728b2b95e055d9b7564245ab27b46ac00000000"
    }
  ]
}