{
  "hash": "000000004842fee15ce6a523cd4354de3315b90272e5f56066b93f94a3f68e28",
  "confirmations": 51456,
  "height": 1642,
  "version": 1,
  "versionHex": "00000001",
  "merkleroot": "54a5d38c42780eee2073eb9e4fc88e7e1c95a605af2c4c8e991915d7ab913ead",
  "time": 1232829787,
  "mediantime": 1232827014,
  "nonce": 3709354267,
  "bits": "1d00ffff",
  "difficulty": 1,
  "chainwork": "0000000000000000000000000000000000000000000000000000066b066b066b",
  "nTx": 1,
  "previousblockhash": "0000000072e23592ba4e4c94e5f3c2909c5158c42a937de79cc427eedc45acc3",
  "nextblockhash": "0000000092ebee186c3309fbc51634b7c209649634e9bae21f5f69305568f63a",
  "strippedsize": 216,
  "size": 216,
  "weight": 864,
  "tx": [
    {
      "txid": "54a5d38c42780eee2073eb9e4fc88e7e1c95a605af2c4c8e991915d7ab913ead",
      "hash": "54a5d38c42780eee2073eb9e4fc88e7e1c95a605af2c4c8e991915d7ab913ead",
      "version": 1,
      "size": 135,
      "vsize": 135,
      "weight": 540,
      "locktime": 0,
      "vin": [
        {
          "coinbase": "04ffff001d026402",
          "sequence": 4294967295
        }
      ],
      "vout": [
        {
          "value": 50.0,
          "n": 0,
          "scriptPubKey": {
            "asm": "04c63a6e559a9a76496109d431ccc3bdfefa6644fff9be35c7f5aea20091229c1391e0bc08b88e61e2d6ae06786db643572d9813510b4ce493748d6dba1d64538a OP_CHECKSIG",
            "desc": "pk(04c63a6e559a9a76496109d431ccc3bdfefa6644fff9be35c7f5aea20091229c1391e0bc08b88e61e2d6ae06786db643572d9813510b4ce493748d6dba1d64538a)#uxnxx8h7",
            "hex": "4104c63a6e559a9a76496109d431ccc3bdfefa6644fff9be35c7f5aea20091229c1391e0bc08b88e61e2d6ae06786db643572d9813510b4ce493748d6dba1d64538aac",
            "type": "pubkey"
          }
        }
      ],
      "hex": "01000000010000000000000000000000000000000000000000000000000000000000000000ffffffff0804ffff001d026402ffffffff0100f2052a01000000434104c63a6e559a9a76496109d431ccc3bdfefa6644fff9be35c7f5aea20091229c1391e0bc08b88e61e2d6ae06786db643572d9813510b4ce493748d6dba1d64538aac00000000"
    }
  ]
}