{
  "hash": "000000006dafd39a923d401a734f4654489b8194459aac53ab52493776f7d031",
  "confirmations": 52027,
  "height": 311,
  "version": 1,
  "versionHex": "00000001",
  "merkleroot": "e0f2a6a8e73dbdcb500db515e100c86177aba952656e4b2f3c4311a38ab7b77e",
  "time": 1231840140,
  "mediantime": 1231837946,
  "nonce": 22511269,
  "bits": "1d00ffff",
  "difficulty": 1,
  "chainwork": "0000000000000000000000000000000000000000000000000000013801380138",
  "nTx": 1,
  "previousblockhash": "00000000ee59cb43445c8e4533582ef5a1b69be6a23eb496efc1cc6767b994f7",
  "nextblockhash": "000000007dfc6054330e1b046f5f1aae82f5ed04097809faba5ca0aa9e91e35e",
  "strippedsize": 215,
  "size": 215,
  "weight": 860,
  "tx": [
    {
      "txid": "e0f2a6a8e73dbdcb500db515e100c86177aba952656e4b2f3c4311a38ab7b77e",
      "hash": "e0f2a6a8e73dbdcb500db515e100c86177aba952656e4b2f3c4311a38ab7b77e",
      "version": 1,
      "size": 134,
      "vsize": 134,
      "weight": 536,
      "locktime": 0,
      "vin": [
        {
          "coinbase": "04ffff001d0135",
          "sequence": 4294967295
        }
      ],
      "vout": [
        {
          "value": 50.0,
          "n": 0,
          "scriptPubKey": {
            "asm": "047c98db81ea675b86718b375d73200d953bb601016acee4ba5e56c3463c4602b0823897cae4dea808f912d7ec005e5a02049e59b6d7bd89d89192ef711d859862 OP_CHECKSIG",
            "desc": "pk(047c98db81ea675b86718b375d73200d953bb601016acee4ba5e56c3463c4602b0823897cae4dea808f912d7ec005e5a02049e59b6d7bd89d89192ef711d859862)#ylwyjfjy",
            "hex": "41047c98db81ea675b86718b375d73200d953bb601016acee4ba5e56c3463c4602b0823897cae4dea808f912d7ec005e5a02049e59b6d7bd89d89192ef711d859862ac",
            "type": "pubkey"
          }
        }
      ],
      "hex": "01000000010000000000000000000000000000000000000000000000000000000000000000ffffffff0704ffff001d0135ffffffff0100f2052a010000004341047c98db81ea675b86718b375d73200d953bb601016acee4ba5e56c3463c4602b0823897cae4dea808f912d7ec005e5a02049e59b6d7bd89d89192ef711d859862ac00000000"
    }
  ]
}