{
  "hash": "00000000562c91f26d71cde437b34680ee347feb9901b77fe19aa57d2654e037",
  "confirmations": 46815,
  "height": 6283,
  "version": 1,
  "versionHex": "00000001",
  "merkleroot": "3d2b215ea1d53d1e8a122369b3deafcdd7c3c9d661b8bb2752f8716bf185e7a0",
  "time": 1236156578,
  "mediantime": 1236153248,
  "nonce": 969494818,
  "bits": "1d00ffff",
  "difficulty": 1,
  "chainwork": "0000000000000000000000000000000000000000000000000000188c188c188c",
  "nTx": 1,
  "previousblockhash": "00000000b0414a04140a5893059e1ed6b84fc173f4322b68a702ceb7e6d60b32",
  "nextblockhash": "0000000012b510fdff8ac104c294afbb0248834d1c89661ebcb35f88dbe8fe53",
  "strippedsize": 216,
  "size": 216,
  "weight": 864,
  "tx": [
    {
      "txid": "3d2b215ea1d53d1e8a122369b3deafcdd7c3c9d661b8bb2752f8716bf185e7a0",
      "hash": "3d2b215ea1d53d1e8a122369b3deafcdd7c3c9d661b8bb2752f8716bf185e7a0",
      "version": 1,
      "size": 135,
      "vsize": 135,
      "weight": 540,
      "locktime": 0,
      "vin": [
        {
          "coinbase": "04ffff001d02130a",
          "sequence": 4294967295
        }
      ],
      "vout": [
        {
          "value": 50.0,
          "n": 0,
          "scriptPubKey": {
            "asm": "04337ba9ef8908162f6886c467399155f204934633e7025b1b50bb99fae5294c5d392a3358998ef9a12096c62d066d2fb187ea66c24d888d933ffa1ed361de2b1f OP_CHECKSIG",
            "desc": "pk(04337ba9ef8908162f6886c467399155f204934633e7025b1b50bb99fae5294c5d392a3358998ef9a12096c62d066d2fb187ea66c24d888d933ffa1ed361de2b1f)#8t7c3qhj",
            "hex": "4104337ba9ef8908162f6886c467399155f204934633e7025b1b50bb99fae5294c5d392a3358998ef9a12096c62d066d2fb187ea66c24d888d933ffa1ed361de2b1fac",
            "type": "pubkey"
          }
        }
      ],
      "hex": "01000000010000000000000000000000000000000000000000000000000000000000000000ffffffff0804ffff001d02130affffffff0100f2052a01000000434104337ba9ef8908162f6886c467399155f204934633e7025b1b50bb99fae5294c5d392a3358998ef9a12096c62d066d2fb187ea66c24d888d933ffa1ed361de2b1fac00000000"
    }
  ]
}