{
  "hash": "000000003c07449ea96a504f5ea2d61107673fa5e4ed9d7add56ab9b8bbf7cc0",
  "confirmations": 43593,
  "height": 9505,
  "version": 1,
  "versionHex": "00000001",
  "merkleroot": "c752049f6a125eac097181c5ad3056cbd1a7bfb827fc96c9410b9593b4bc99b1",
  "time": 1238632350,
  "mediantime": 1238628202,
  "nonce": 199660180,
  "bits": "1d00ffff",
  "difficulty": 1,
  "chainwork": "0000000000000000000000000000000000000000000000000000252225222522",
  "nTx": 1,
  "previousblockhash": "00000000ded0a3a301999ea452d2618bcfc875556f3516fa01772b9ba3f47c9f",
  "nextblockhash": "00000000e0aa228fd33ef41299c7451f0c1d331ffb77cfcdf27379fa75bac6ff",
  "strippedsize": 215,
  "size": 215,
  "weight": 860,
  "tx": [
    {
      "txid": "c752049f6a125eac097181c5ad3056cbd1a7bfb827fc96c9410b9593b4bc99b1",
      "hash": "c752049f6a125eac097181c5ad3056cbd1a7bfb827fc96c9410b9593b4bc99b1",
      "version": 1,
      "size": 134,
      "vsize": 134,
      "weight": 536,
      "locktime": 0,
      "vin": [
        {
          "coinbase": "04ffff001d011d",
          "sequence": 4294967295
        }
      ],
      "vout": [
        {
          "value": 50.0,
          "n": 0,
          "scriptPubKey": {
            "asm": "04d756eaea7160a1fec382c5a8825392de822e4cfeb4587a2a412b0c349ea866618da1cfc0f98a28a9fecff87c2b45ca68acb877a39c0f51e01a843712ea2e15b2 OP_CHECKSIG",
            "desc": "pk(04d756eaea7160a1fec382c5a8825392de822e4cfeb4587a2a412b0c349ea866618da1cfc0f98a28a9fecff87c2b45ca68acb877a39c0f51e01a843712ea2e15b2)#xqqyc8jq",
            "hex": "4104d756eaea7160a1fec382c5a8825392de822e4cfeb4587a2a412b0c349ea866618da1cfc0f98a28a9fecff87c2b45ca68acb877a39c0f51e01a843712ea2e15b2ac",
            "type": "pubkey"
          }
        }
      ],
      "hex": "01000000010000000000000000000000000000000000000000000000000000000000000000ffffffff0704ffff001d011dffffffff0100f2052a01000000434104d756eaea7160a1fec382c5a8825392de822e4cfeb4587a2a412b0c349ea866618da1cfc0f98a28a9fecff87c2b45ca68acb877a39c0f51e01a843712ea2e15b2ac00000000"
    }
  ]
}