{
  "hash": "000000002b3a1be079ae0b707c5f208b5484cb8adeed5a2e683825cc3c047fbf",
  "confirmations": 49922,
  "height": 3176,
  "version": 1,
  "versionHex": "00000001",
  "merkleroot": "bbf4ac02734e6ce3c70ea7d63fe19c73a8cc4a34e314892a94e93eacc2a85e56",
  "time": 1233883878,
  "mediantime": 1233880288,
  "nonce": 3059705114,
  "bits": "1d00ffff",
  "difficulty": 1,
  "chainwork": "00000000000000000000000000000000000000000000000000000c690c690c69",
  "nTx": 1,
  "previousblockhash": "00000000170b8ee3d8c6a3c70a8049ed290b7d2105af86d2f177b28849193311",
  "nextblockhash": "00000000daa71fb3427053510afd13ab565f093cccd9ae127aa8d168aee44cab",
  "strippedsize": 216,
  "size": 216,
  "weight": 864,
  "tx": [
    {
      "txid": "bbf4ac02734e6ce3c70ea7d63fe19c73a8cc4a34e314892a94e93eacc2a85e56",
      "hash": "bbf4ac02734e6ce3c70ea7d63fe19c73a8cc4a34e314892a94e93eacc2a85e56",
      "version": 1,
      "size": 135,
      "vsize": 135,
      "weight": 540,
      "locktime": 0,
      "vin": [
        {
          "coinbase": "04ffff001d025502",
          "sequence": 4294967295
        }
      ],
      "vout": [
        {
          "value": 50.0,
          "n": 0,
          "scriptPubKey": {
            "asm": "0475d09214274a2ac177e395cb008f002aa44bf770325cb881f43a7588f2850b9292dbd79a57e50494a497d4b9b042b072db771fe4c16d2f0e1b5d4ce315d64ca7 OP_CHECKSIG",
            "desc": "pk(0475d09214274a2ac177e395cb008f002aa44bf770325cb881f43a7588f2850b9292dbd79a57e50494a497d4b9b042b072db771fe4c16d2f0e1b5d4ce315d64ca7)#nlzf9dk4",
            "hex": "410475d09214274a2ac177e395cb008f002aa44bf770325cb881f43a7588f2850b9292dbd79a57e50494a497d4b9b042b072db771fe4c16d2f0e1b5d4ce315d64ca7ac",
            "type": "pubkey"
          }
        }
      ],
      "hex": "01000000010000000000000000000000000000000000000000000000000000000000000000ffffffff0804ffff001d025502ffffffff0100f2052a0100000043410475d09214274a2ac177e395cb008f002aa44bf770325cb881f43a7588f2850b9292dbd79a57e50494a497d4b9b042b072db771fe4c16d2f0e1b5d4ce315d64ca7ac00000000"
    }
  ]
}