{
  "hash": "000000008cb4680dd14cccadebd9e6127373c71f948015a502eded2921f72db9",
  "confirmations": 51008,
  "height": 2090,
  "version": 1,
  "versionHex": "00000001",
  "merkleroot": "1387450545b3b2dde45ad7c35f8c85c4e9bd6c2a798af5cfa9afde91771023fc",
  "time": 1233129201,
  "mediantime": 1233127813,
  "nonce": 3013963820,
  "bits": "1d00ffff",
  "difficulty": 1,
  "chainwork": "0000000000000000000000000000000000000000000000000000082b082b082b",
  "nTx": 1,
  "previousblockhash": "000000006788b1fda2bd5cd87dd4bf65c3eaa7bc84c435b11a7f6dda4b8a591a",
  "nextblockhash": "00000000509129b194cea2419dc5a6237bd7c3f650a7a49e11bae5e7a2a6927d",
  "strippedsize": 216,
  "size": 216,
  "weight": 864,
  "tx": [
    {
      "txid": "1387450545b3b2dde45ad7c35f8c85c4e9bd6c2a798af5cfa9afde91771023fc",
      "hash": "1387450545b3b2dde45ad7c35f8c85c4e9bd6c2a798af5cfa9afde91771023fc",
      "version": 1,
      "size": 135,
      "vsize": 135,
      "weight": 540,
      "locktime": 0,
      "vin": [
        {
          "coinbase": "04ffff001d028703",
          "sequence": 4294967295
        }
      ],
      "vout": [
        {
          "value": 50.0,
          "n": 0,
          "scriptPubKey": {
            "asm": "04162f2fc78dd8f557a5b8945e54461c61293825e2a604a3f1233141523ae427de792d9e65f5144f1204766288f7a09067a4b8e48c79a4f8bd31ae0a8e77d583c0 OP_CHECKSIG",
            "desc": "pk(04162f2fc78dd8f557a5b8945e54461c61293825e2a604a3f1233141523ae427de792d9e65f5144f1204766288f7a09067a4b8e48c79a4f8bd31ae0a8e77d583c0)#sspzxfup",
            "hex": "4104162f2fc78dd8f557a5b8945e54461c61293825e2a604a3f1233141523ae427de792d9e65f5144f1204766288f7a09067a4b8e48c79a4f8bd31ae0a8e77d583c0ac",
            "type": "pubkey"
          }
        }
      ],
      "hex": "01000000010000000000000000000000000000000000000000000000000000000000000000ffffffff0804ffff001d028703ffffffff0100f2052a01000000434104162f2fc78dd8f557a5b8945e54461c61293825e2a604a3f1233141523ae427de792d9e65f5144f1204766288f7a09067a4b8e48c79a4f8bd31ae0a8e77d583c0ac00000000"
    }
  ]
}