{
  "hash": "00000000f2256ba62635f7918d0f685fc34447cc5eff1cd523b555f716435710",
  "confirmations": 44783,
  "height": 8315,
  "version": 1,
  "versionHex": "00000001",
  "merkleroot": "08ca7696e465833203283e036c86d18ce50a8640f00b19508b430899b9d938bd",
  "time": 1237739482,
  "mediantime": 1237736630,
  "nonce": 23882255,
  "bits": "1d00ffff",
  "difficulty": 1,
  "chainwork": "0000000000000000000000000000000000000000000000000000207c207c207c",
  "nTx": 3,
  "previousblockhash": "00000000919b014bc75f44102663634638acf4ef6b2f914982d01172ca244667",
  "nextblockhash": "0000000027a7f5d35d5d5b255b2c9255813f6f569ee3b01d567ad3e492f3cf21",
  "strippedsize": 1558,
  "size": 1558,
  "weight": 6232,
  "tx": [
    {
      "txid": "65c99229b25458fb9fcc3b2824c02cac8244ef09c21a1b21966e4eae0f7dfc87",
      "hash": "65c99229b25458fb9fcc3b2824c02cac8244ef09c21a1b21966e4eae0f7dfc87",
      "version": 1,
      "size": 135,
      "vsize": 135,
      "weight": 540,
      "locktime": 0,
      "vin": [
        {
          "coinbase": "04ffff001d02ab00",
          "sequence": 4294967295
        }
      ],
      "vout": [
        {
          "value": 50.0,
          "n": 0,
          "scriptPubKey": {
            "asm": "04a1798ce5947b546e769377d0a4db21f6f743442752772e0edca57121d6261c44bcd6adab3693116245ec53bee1336a9961d4819f4aef31599da0cf14612cd3d5 OP_CHECKSIG",
            "desc": "pk(04a1798ce5947b546e769377d0a4db21f6f743442752772e0edca57121d6261c44bcd6adab3693116245ec53bee1336a9961d4819f4aef31599da0cf14612cd3d5)#qq97qjus",
            "hex": "4104a1798ce5947b546e769377d0a4db21f6f743442752772e0edca57121d6261c44bcd6adab3693116245ec53bee1336a9961d4819f4aef31599da0cf14612cd3d5ac",
            "type": "pubkey"
          }
        }
      ],
      "hex": "01000000010000000000000000000000000000000000000000000000000000000000000000ffffffff0804ffff001d02ab00ffffffff0100f2052a01000000434104a1798ce5947b546e769377d0a4db21f6f743442752772e0edca57121d6261c44bcd6adab3693116245ec53bee1336a9961d4819f4aef31599da0cf14612cd3d5ac00000000"
    },
    {
      "txid": "68efb6a6217892baf3a7cf03cbfd3b31038f1f79db649a12b7516c8e7da81064",
      "hash": "68efb6a6217892baf3a7cf03cbfd3b31038f1f79db649a12b7516c8e7da81064",
      "version": 1,
      "size": 728,
      "vsize": 728,
      "weight": 2912,
      "locktime": 0,
      "vin": [
        {
          "txid": "c6cb09b09939790eeb5ca899769e54be8446b7867d4f8af9d5d95314938d0d0a",
          "vout": 0,
          "scriptSig": {
            "asm": "3046022100e367a1d5a5c19796f915ab61ba7f62871f780165975bb178b84e2ff8c301f4ed022100a3e3c9c9c0349a20f75ccb49ccf6d448ecf7a5999514225c499e3c35cd513e8d[ALL]",
            "hex": "493046022100e367a1d5a5c19796f915ab61ba7f62871f780165975bb178b84e2ff8c301f4ed022100a3e3c9c9c0349a20f75ccb49ccf6d448ecf7a5999514225c499e3c35cd513e8d01"
          },
          "sequence": 4294967295
        },
        {
          "txid": "808cd6ebfb9afbdfac385f6ac75c4a133f89dd19c437c6a4b133dac11f350913",
          "vout": 0,
          "scriptSig": {
            "asm": "304402203007f2ac6565195fb83f9830640e22c579085a0ea8272311fa9af3fb567fbdcf022074b4eba68c6717fc804e1c30a1626cd996cc7433eddfd76005d7c11ee87bce8f[ALL]",
            "hex": "47304402203007f2ac6565195fb83f9830640e22c579085a0ea8272311fa9af3fb567fbdcf022074b4eba68c6717fc804e1c30a1626cd996cc7433eddfd76005d7c11ee87bce8f01"
          },
          "sequence": 4294967295
        },
        {
          "txid": "4ab6a2c6237ce8d6b0ef1be726164aa25c93f2b44f54783a8bff9f2414a9143c",
          "vout": 0,
          "scriptSig": {
            "asm": "3046022100f50538cd9315872d4156039a6cc0852ddd9c5f5a3e14f3f928fe16dc203264a5022100c22e4446353268cb970f516447dbb8b145721bd3808c372042919ff335a0f288[ALL]",
            "hex": "493046022100f50538cd9315872d4156039a6cc0852ddd9c5f5a3e14f3f928fe16dc203264a5022100c22e4446353268cb970f516447dbb8b145721bd3808c372042919ff335a0f28801"
          },
          "sequence": 4294967295
        },
        {
          "txid": "59c21b72289038105d7ae73332cc0284f15b132956a8fc454bcc40d7bb78046b",
          "vout": 0,
          "scriptSig": {
            "asm": "3044022076e9e4d3550d45cb6c15f317e3282c587f752f5b7401a9402d85f6445f4222df022078ffe11dba7c22f6a4656f75f2f111e5cc8c55dfed1488e1a2b9324c04e2a762[ALL]",
            "hex": "473044022076e9e4d3550d45cb6c15f317e3282c587f752f5b7401a9402d85f6445f4222df022078ffe11dba7c22f6a4656f75f2f111e5cc8c55dfed1488e1a2b9324c04e2a76201"
          },
          "sequence": 4294967295
        },
        {
          "txid": "454e7d2b049b1769de5d6ff5c6803360f17b95c55b1384242deb73321a87ea8a",
          "vout": 0,
          "scriptSig": {
            "asm": "304502203d0f145b679cc32c29f7815de8ed7700c3ad8db6cf412d2602a1a7792210f74d0221009ec84233d42c0831c8142a22e6b3da34eace88122f6a259634c4938302f6411b[ALL]",
            "hex": "48304502203d0f145b679cc32c29f7815de8ed7700c3ad8db6cf412d2602a1a7792210f74d0221009ec84233d42c0831c8142a22e6b3da34eace88122f6a259634c4938302f6411b01"
          },
          "sequence": 4294967295
        },
        {
          "txid": "3ae6ca9b431806a9795551763ceba85d09d595ea8a45644634393903f84bf0aa",
          "vout": 0,
          "scriptSig": {
            "asm": "30450220660cbe4d5611ccb5182dbfd76a760a3d40b79191bc5f6e45ac3b360f0288f2ef022100f41375034069accbeeaeb357399c627f2d3e0a9e98918a254c256d4fcc5df446[ALL]",
            "hex": "4830450220660cbe4d5611ccb5182dbfd76a760a3d40b79191bc5f6e45ac3b360f0288f2ef022100f41375034069accbeeaeb357399c627f2d3e0a9e98918a254c256d4fcc5df44601"
          },
          "sequence": 4294967295
        }
      ],
      "vout": [
        {
          "value": 300.0,
          "n": 0,
          "scriptPubKey": {
            "asm": "OP_DUP OP_HASH160 592fc3990026334c8c6fb2b9da457179cdb5c688 OP_EQUALVERIFY OP_CHECKSIG",
            "desc": "addr(198aMn6ZYAczwrE5NvNTUMyJ5qkfy4g3Hi)#k9ndhvwd",
            "hex": "76a914592fc3990026334c8c6fb2b9da457179cdb5c68888ac",
            "address": "198aMn6ZYAczwrE5NvNTUMyJ5qkfy4g3Hi",
            "type": "pubkeyhash"
          }
        }
      ],
      "fee": 0.0,
      "hex": "01000000060a0d8d931453d9d5f98a4f7d86b74684be549e7699a85ceb0e793999b009cbc6000000004a493046022100e367a1d5a5c19796f915ab61ba7f62871f780165975bb178b84e2ff8c301f4ed022100a3e3c9c9c0349a20f75ccb49ccf6d448ecf7a5999514225c499e3c35cd513e8d01ffffffff1309351fc1da33b1a4c637c419dd893f134a5cc76a5f38acdffb9afbebd68c80000000004847304402203007f2ac6565195fb83f9830640e22c579085a0ea8272311fa9af3fb567fbdcf022074b4eba68c6717fc804e1c30a1626cd996cc7433eddfd76005d7c11ee87bce8f01ffffffff3c14a914249fff8b3a78544fb4f2935ca24a1626e71befb0d6e87c23c6a2b64a000000004a493046022100f50538cd9315872d4156039a6cc0852ddd9c5f5a3e14f3f928fe16dc203264a5022100c22e4446353268cb970f516447dbb8b145721bd3808c372042919ff335a0f28801ffffffff6b0478bbd740cc4b45fca85629135bf18402cc3233e77a5d10389028721bc2590000000048473044022076e9e4d3550d45cb6c15f317e3282c587f752f5b7401a9402d85f6445f4222df022078ffe11dba7c22f6a4656f75f2f111e5cc8c55dfed1488e1a2b9324c04e2a76201ffffffff8aea871a3273eb2d2484135bc5957bf1603380c6f56f5dde69179b042b7d4e45000000004948304502203d0f145b679cc32c29f7815de8ed7700c3ad8db6cf412d2602a1a7792210f74d0221009ec84233d42c0831c8142a22e6b3da34eace88122f6a259634c4938302f6411b01ffffffffaaf04bf8033939344664458aea95d5095da8eb3c76515579a90618439bcae63a00000000494830450220660cbe4d5611ccb5182dbfd76a760a3d40b79191bc5f6e45ac3b360f0288f2ef022100f41375034069accbeeaeb357399c627f2d3e0a9e98918a254c256d4fcc5df44601ffffffff0100ac23fc060000001976a914592fc3990026334c8c6fb2b9da457179cdb5c68888ac00000000"
    },
    {
      "txid": "9f705d7fae30b1fe3d5855447d4e01d7b13c1edcfa2483d739fbebbcdd0475a1",
      "hash": "9f705d7fae30b1fe3d5855447d4e01d7b13c1edcfa2483d739fbebbcdd0475a1",
      "version": 1,
      "size": 614,
      "vsize": 614,
      "weight": 2456,
      "locktime": 0,
      "vin": [
        {
          "txid": "3c5734b4d64906074e7c991de1020d220b09f8fb47b98d43949a18d68ae83d2d",
          "vout": 0,
          "scriptSig": {
            "asm": "30450221008bd127d06f0a0b0664b56271ec133782da9a5d74c3ffd5b87066fd75b1711364022006cd278602c4f629b4e176ef31b24a48ac048971640d21756b5e65548208c7df[ALL]",
            "hex": "4830450221008bd127d06f0a0b0664b56271ec133782da9a5d74c3ffd5b87066fd75b1711364022006cd278602c4f629b4e176ef31b24a48ac048971640d21756b5e65548208c7df01"
          },
          "sequence": 4294967295
        },
        {
          "txid": "ec0e2a7987bc747e1eae2b1768484b533a1c950472bddc00d2e884ce7bf1aa4e",
          "vout": 0,
          "scriptSig": {
            "asm": "304402204167b93e6904c4227a3c8a48c1c4933eed9d5d9667d0d149223ef0ccef30351602201e78c590285f8b4843fc6e123040817c1e1ed680885ae5f37c61e92444a4dea5[ALL]",
            "hex": "47304402204167b93e6904c4227a3c8a48c1c4933eed9d5d9667d0d149223ef0ccef30351602201e78c590285f8b4843fc6e123040817c1e1ed680885ae5f37c61e92444a4dea501"
          },
          "sequence": 4294967295
        },
        {
          "txid": "ec32bbc17cdcd82991f4cb2b93075dbe82f7a8449fc5336d16936585787a17ae",
          "vout": 0,
          "scriptSig": {
            "asm": "304502207d6add177a30c626386dd686ad7df9d4c86d6caf7428aa660a6dbd56c200c7fc022100c1759084b425dbdec81a01aacd8cd4795e35329ae2b2d922f72e445c93ad9e2e[ALL]",
            "hex": "48304502207d6add177a30c626386dd686ad7df9d4c86d6caf7428aa660a6dbd56c200c7fc022100c1759084b425dbdec81a01aacd8cd4795e35329ae2b2d922f72e445c93ad9e2e01"
          },
          "sequence": 4294967295
        },
        {
          "txid": "ace02dde4959ae0be00ee9be33a72cc1fd9af9754b08b4f240ba50659689047c",
          "vout": 0,
          "scriptSig": {
            "asm": "3046022100ae1bd0917b7dd256d371f3ada54a56ae293cfe5cdd5c639208196b93115a9a9b022100cf21619e0a0b6932442d84090f88d9c1540070980a5c490cc95b8395be7be4fd[ALL]",
            "hex": "493046022100ae1bd0917b7dd256d371f3ada54a56ae293cfe5cdd5c639208196b93115a9a9b022100cf21619e0a0b6932442d84090f88d9c1540070980a5c490cc95b8395be7be4fd01"
          },
          "sequence": 4294967295
        },
        {
          "txid": "34b074801aee8896426a9f45894d20095c4089451ccf6019690270f854fe4491",
          "vout": 0,
          "scriptSig": {
            "asm": "30450220190327b8e65c33b8b9e024586d9426f24f7128dd651c8d936821a2e2a38a3c31022100eb2027b6814ade515698a781471120fe8c93f7c427812864e466d6fa297c4ca5[ALL]",
            "hex": "4830450220190327b8e65c33b8b9e024586d9426f24f7128dd651c8d936821a2e2a38a3c31022100eb2027b6814ade515698a781471120fe8c93f7c427812864e466d6fa297c4ca501"
          },
          "sequence": 4294967295
        }
      ],
      "vout": [
        {
          "value": 250.0,
          "n": 0,
          "scriptPubKey": {
            "asm": "OP_DUP OP_HASH160 592fc3990026334c8c6fb2b9da457179cdb5c688 OP_EQUALVERIFY OP_CHECKSIG",
            "desc": "addr(198aMn6ZYAczwrE5NvNTUMyJ5qkfy4g3Hi)#k9ndhvwd",
            "hex": "76a914592fc3990026334c8c6fb2b9da457179cdb5c68888ac",
            "address": "198aMn6ZYAczwrE5NvNTUMyJ5qkfy4g3Hi",
            "type": "pubkeyhash"
          }
        }
      ],
      "fee": 0.0,
      "hex": "01000000052d3de88ad6189a94438db947fbf8090b220d02e11d997c4e070649d6b434573c00000000494830450221008bd127d06f0a0b0664b56271ec133782da9a5d74c3ffd5b87066fd75b1711364022006cd278602c4f629b4e176ef31b24a48ac048971640d21756b5e65548208c7df01ffffffff4eaaf17bce84e8d200dcbd7204951c3a534b4868172bae1e7e74bc87792a0eec000000004847304402204167b93e6904c4227a3c8a48c1c4933eed9d5d9667d0d149223ef0ccef30351602201e78c590285f8b4843fc6e123040817c1e1ed680885ae5f37c61e92444a4dea501ffffffffae177a78856593166d33c59f44a8f782be5d07932bcbf49129d8dc7cc1bb32ec000000004948304502207d6add177a30c626386dd686ad7df9d4c86d6caf7428aa660a6dbd56c200c7fc022100c1759084b425dbdec81a01aacd8cd4795e35329ae2b2d922f72e445c93ad9e2e01ffffffff7c0489966550ba40f2b4084b75f99afdc12ca733bee90ee00bae5949de2de0ac000000004a493046022100ae1bd0917b7dd256d371f3ada54a56ae293cfe5cdd5c639208196b93115a9a9b022100cf21619e0a0b6932442d84090f88d9c1540070980a5c490cc95b8395be7be4fd01ffffffff9144fe54f87002691960cf1c4589405c09204d89459f6a429688ee1a8074b03400000000494830450220190327b8e65c33b8b9e024586d9426f24f7128dd651c8d936821a2e2a38a3c31022100eb2027b6814ade515698a781471120fe8c93f7c427812864e466d6fa297c4ca501ffffffff0100ba1dd2050000001976a914592fc3990026334c8c6fb2b9da457179cdb5c68888ac00000000"
    }
  ]
}