{
  "hash": "000000009cab60c85f4a391a5854bcf53ea52cb47d1e3173d190ebb9029a2f19",
  "confirmations": 44437,
  "height": 8661,
  "version": 1,
  "versionHex": "00000001",
  "merkleroot": "f91d7a0ba238581973f4a93d2d7fe636781046ad4f0ecdba3c9b15c26d59d163",
  "time": 1237993880,
  "mediantime": 1237990046,
  "nonce": 2424976946,
  "bits": "1d00ffff",
  "difficulty": 1,
  "chainwork": "000000000000000000000000000000000000000000000000000021d621d621d6",
  "nTx": 1,
  "previousblockhash": "000000008f7e87c8897a365abbcaf5936bf4d7b5ab434794644de3d32a5666aa",
  "nextblockhash": "00000000bcf48730b0a0fc4b1fb6cba5b6ee87fcf583b96f11bec70e25c0f9cc",
  "strippedsize": 215,
  "size": 215,
  "weight": 860,
  "tx": [
    {
      "txid": "f91d7a0ba238581973f4a93d2d7fe636781046ad4f0ecdba3c9b15c26d59d163",
      "hash": "f91d7a0ba238581973f4a93d2d7fe636781046ad4f0ecdba3c9b15c26d59d163",
      "version": 1,
      "size": 134,
      "vsize": 134,
      "weight": 536,
      "locktime": 0,
      "vin": [
        {
          "coinbase": "04ffff001d0136",
          "sequence": 4294967295
        }
      ],
      "vout": [
        {
          "value": 50.0,
          "n": 0,
          "scriptPubKey": {
            "asm": "044e0be4fb319ff33c64ff58988192cd784e88a2573f6090f51abbacf27c592a2aa803abcc4b85d6c466c9839182a6e3c7cc949c4253cfbfcf9af53e8c65620c7e OP_CHECKSIG",
            "desc": "pk(044e0be4fb319ff33c64ff58988192cd784e88a2573f6090f51abbacf27c592a2aa803abcc4b85d6c466c9839182a6e3c7cc949c4253cfbfcf9af53e8c65620c7e)#46a8u5vy",
            "hex": "41044e0be4fb319ff33c64ff58988192cd784e88a2573f6090f51abbacf27c592a2aa803abcc4b85d6c466c9839182a6e3c7cc949c4253cfbfcf9af53e8c65620c7eac",
            "type": "pubkey"
          }
        }
      ],
      "hex": "01000000010000000000000000000000000000000000000000000000000000000000000000ffffffff0704ffff001d0136ffffffff0100f2052a010000004341044e0be4fb319ff33c64ff58988192cd784e88a2573f6090f51abbacf27c592a2aa803abcc4b85d6c466c9839182a6e3c7cc949c4253cfbfcf9af53e8c65620c7eac00000000"
    }
  ]
}