{
  "hash": "0000000031083eaf072006f0f4a9d056ce067f886ffc260be7e8d1512a720996",
  "confirmations": 51283,
  "height": 1815,
  "version": 1,
  "versionHex": "00000001",
  "merkleroot": "31530e79873bb554edacc47f9cfa56876d7a7eb818e788acb5f89c6e6b627ba6",
  "time": 1232907213,
  "mediantime": 1232903973,
  "nonce": 159636744,
  "bits": "1d00ffff",
  "difficulty": 1,
  "chainwork": "0000000000000000000000000000000000000000000000000000071807180718",
  "nTx": 1,
  "previousblockhash": "00000000d4a3016ed192bb889ac5e9b785751dadcc96272d23f839bb4916841e",
  "nextblockhash": "00000000feefa3cf0b442a9be3687761f4b231ea761e009f36650e7873301e78",
  "strippedsize": 216,
  "size": 216,
  "weight": 864,
  "tx": [
    {
      "txid": "31530e79873bb554edacc47f9cfa56876d7a7eb818e788acb5f89c6e6b627ba6",
      "hash": "31530e79873bb554edacc47f9cfa56876d7a7eb818e788acb5f89c6e6b627ba6",
      "version": 1,
      "size": 135,
      "vsize": 135,
      "weight": 540,
      "locktime": 0,
      "vin": [
        {
          "coinbase": "04ffff001d025204",
          "sequence": 4294967295
        }
      ],
      "vout": [
        {
          "value": 50.0,
          "n": 0,
          "scriptPubKey": {
            "asm": "04b432ec5ab9e5dd7c003d2cd93b86e434a7b8ed589ce97e2f6bc196f976925ea2697ff8e82984bf2de20f709f259bd7998cc8916396b0efec9eb6434373dce776 OP_CHECKSIG",
            "desc": "pk(04b432ec5ab9e5dd7c003d2cd93b86e434a7b8ed589ce97e2f6bc196f976925ea2697ff8e82984bf2de20f709f259bd7998cc8916396b0efec9eb6434373dce776)#23jxz2r7",
            "hex": "4104b432ec5ab9e5dd7c003d2cd93b86e434a7b8ed589ce97e2f6bc196f976925ea2697ff8e82984bf2de20f709f259bd7998cc8916396b0efec9eb6434373dce776ac",
            "type": "pubkey"
          }
        }
      ],
      "hex": "01000000010000000000000000000000000000000000000000000000000000000000000000ffffffff0804ffff001d025204ffffffff0100f2052a01000000434104b432ec5ab9e5dd7c003d2cd93b86e434a7b8ed589ce97e2f6bc196f976925ea2697ff8e82984bf2de20f709f259bd7998cc8916396b0efec9eb6434373dce776ac00000000"
    }
  ]
}