{
  "hash": "00000000cca557c753f23c8402cbce795b4cb399e94142b429ff16a7d2cca758",
  "confirmations": 47895,
  "height": 5203,
  "version": 1,
  "versionHex": "00000001",
  "merkleroot": "515d0cf0adf64abae0eb38bf792b0f2a9f4c077df698bd688f691e47f764486a",
  "time": 1235288229,
  "mediantime": 1235286859,
  "nonce": 1843019272,
  "bits": "1d00ffff",
  "difficulty": 1,
  "chainwork": "0000000000000000000000000000000000000000000000000000145414541454",
  "nTx": 1,
  "previousblockhash": "000000006b383d48b71cdf1aa824697863b286e6d302150d898c9783ff20aef9",
  "nextblockhash": "00000000d0e19bba017fb2e4f9250ccfde58f0be055b46b0fa4ed8f6b52b871f",
  "strippedsize": 216,
  "size": 216,
  "weight": 864,
  "tx": [
    {
      "txid": "515d0cf0adf64abae0eb38bf792b0f2a9f4c077df698bd688f691e47f764486a",
      "hash": "515d0cf0adf64abae0eb38bf792b0f2a9f4c077df698bd688f691e47f764486a",
      "version": 1,
      "size": 135,
      "vsize": 135,
      "weight": 540,
      "locktime": 0,
      "vin": [
        {
          "coinbase": "04ffff001d02a400",
          "sequence": 4294967295
        }
      ],
      "vout": [
        {
          "value": 50.0,
          "n": 0,
          "scriptPubKey": {
            "asm": "04b3fc403258b675c51b8b8be4f913ce3b823ba4f73aa3340abd3f46e1eb33b6b1c137fdc36d9c15fbc6c65c22d0f2e224bba0f23cd5f99a27acda92752fce95c2 OP_CHECKSIG",
            "desc": "pk(04b3fc403258b675c51b8b8be4f913ce3b823ba4f73aa3340abd3f46e1eb33b6b1c137fdc36d9c15fbc6c65c22d0f2e224bba0f23cd5f99a27acda92752fce95c2)#yu6ygah0",
            "hex": "4104b3fc403258b675c51b8b8be4f913ce3b823ba4f73aa3340abd3f46e1eb33b6b1c137fdc36d9c15fbc6c65c22d0f2e224bba0f23cd5f99a27acda92752fce95c2ac",
            "type": "pubkey"
          }
        }
      ],
      "hex": "01000000010000000000000000000000000000000000000000000000000000000000000000ffffffff0804ffff001d02a400ffffffff0100f2052a01000000434104b3fc403258b675c51b8b8be4f913ce3b823ba4f73aa3340abd3f46e1eb33b6b1c137fdc36d9c15fbc6c65c22d0f2e224bba0f23cd5f99a27acda92752fce95c2ac00000000"
    }
  ]
}