{
  "hash": "00000000c32f186c6abfbf9ac7073fad1e3ccadbc098847b3b7c20e9ee26b34f",
  "confirmations": 48792,
  "height": 4306,
  "version": 1,
  "versionHex": "00000001",
  "merkleroot": "3e480daa64821ab9f5f6daf1e025ad3c027e4ee050ae3a0d706496d773b8f54b",
  "time": 1234646337,
  "mediantime": 1234643912,
  "nonce": 2939937829,
  "bits": "1d00ffff",
  "difficulty": 1,
  "chainwork": "000000000000000000000000000000000000000000000000000010d310d310d3",
  "nTx": 1,
  "previousblockhash": "000000003dbc3403306b4385fba8fbf2adf4d275a8cdc75e61b27c39a8aeaed9",
  "nextblockhash": "000000005843339bef1e882b576a391026a3836e87ddda4bcaa8568d633e16dd",
  "strippedsize": 215,
  "size": 215,
  "weight": 860,
  "tx": [
    {
      "txid": "3e480daa64821ab9f5f6daf1e025ad3c027e4ee050ae3a0d706496d773b8f54b",
      "hash": "3e480daa64821ab9f5f6daf1e025ad3c027e4ee050ae3a0d706496d773b8f54b",
      "version": 1,
      "size": 134,
      "vsize": 134,
      "weight": 536,
      "locktime": 0,
      "vin": [
        {
          "coinbase": "04ffff001d0102",
          "sequence": 4294967295
        }
      ],
      "vout": [
        {
          "value": 50.0,
          "n": 0,
          "scriptPubKey": {
            "asm": "0405fe4f689ff3dbc9e5f8666e9b04eda4d2ab15b36a6fcc4d04064aaae64c86b4424f055dcbb59df28f02997fa236c542ab28df5c4fbf4296d3b9d376617adc8e OP_CHECKSIG",
            "desc": "pk(0405fe4f689ff3dbc9e5f8666e9b04eda4d2ab15b36a6fcc4d04064aaae64c86b4424f055dcbb59df28f02997fa236c542ab28df5c4fbf4296d3b9d376617adc8e)#pujl5d7v",
            "hex": "410405fe4f689ff3dbc9e5f8666e9b04eda4d2ab15b36a6fcc4d04064aaae64c86b4424f055dcbb59df28f02997fa236c542ab28df5c4fbf4296d3b9d376617adc8eac",
            "type": "pubkey"
          }
        }
      ],
      "hex": "01000000010000000000000000000000000000000000000000000000000000000000000000ffffffff0704ffff001d0102ffffffff0100f2052a0100000043410405fe4f689ff3dbc9e5f8666e9b04eda4d2ab15b36a6fcc4d04064aaae64c86b4424f055dcbb59df28f02997fa236c542ab28df5c4fbf4296d3b9d376617adc8eac00000000"
    }
  ]
}