{
  "hash": "00000000cfce667241a47562d532256d9b3caff47c5388063c6c5eb94c5d5525",
  "confirmations": 46437,
  "height": 6661,
  "version": 1,
  "versionHex": "00000001",
  "merkleroot": "602dd01ba82b600f0b70c7504755000ca895f00192003fa11c9eaf195da3927d",
  "time": 1236452019,
  "mediantime": 1236449027,
  "nonce": 3708555285,
  "bits": "1d00ffff",
  "difficulty": 1,
  "chainwork": "00000000000000000000000000000000000000000000000000001a061a061a06",
  "nTx": 1,
  "previousblockhash": "00000000c743875e7268cdcaab1c226acf3bbb3e20c833218c7ce728575ef140",
  "nextblockhash": "00000000319cacde61dec8ee9f4f064c445d9f6b6c163eec1c175c224a989771",
  "strippedsize": 216,
  "size": 216,
  "weight": 864,
  "tx": [
    {
      "txid": "602dd01ba82b600f0b70c7504755000ca895f00192003fa11c9eaf195da3927d",
      "hash": "602dd01ba82b600f0b70c7504755000ca895f00192003fa11c9eaf195da3927d",
      "version": 1,
      "size": 135,
      "vsize": 135,
      "weight": 540,
      "locktime": 0,
      "vin": [
        {
          "coinbase": "04ffff001d024306",
          "sequence": 4294967295
        }
      ],
      "vout": [
        {
          "value": 50.0,
          "n": 0,
          "scriptPubKey": {
            "asm": "040a9c030489cbebd2140955e21e3e86ad49f4634e6cc14c41397990f17df97e4d0b208a2c4c5602f2bfa60e7600f573b8dc08dde2eff3ff08b6959d43b9360964 OP_CHECKSIG",
            "desc": "pk(040a9c030489cbebd2140955e21e3e86ad49f4634e6cc14c41397990f17df97e4d0b208a2c4c5602f2bfa60e7600f573b8dc08dde2eff3ff08b6959d43b9360964)#yemlqgfx",
            "hex": "41040a9c030489cbebd2140955e21e3e86ad49f4634e6cc14c41397990f17df97e4d0b208a2c4c5602f2bfa60e7600f573b8dc08dde2eff3ff08b6959d43b9360964ac",
            "type": "pubkey"
          }
        }
      ],
      "hex": "01000000010000000000000000000000000000000000000000000000000000000000000000ffffffff0804ffff001d024306ffffffff0100f2052a010000004341040a9c030489cbebd2140955e21e3e86ad49f4634e6cc14c41397990f17df97e4d0b208a2c4c5602f2bfa60e7600f573b8dc08dde2eff3ff08b6959d43b9360964ac00000000"
    }
  ]
}