{
  "hash": "00000000804b6cc556b38b08cbfb7955e144584a33d9e26ee924da51ccb92d52",
  "confirmations": 46619,
  "height": 6479,
  "version": 1,
  "versionHex": "00000001",
  "merkleroot": "ed6749a52250575ef876a6e4f7f28fc4bb6b60797bf8ab3c9b91bd29d97b47e0",
  "time": 1236314911,
  "mediantime": 1236310302,
  "nonce": 2518343977,
  "bits": "1d00ffff",
  "difficulty": 1,
  "chainwork": "0000000000000000000000000000000000000000000000000000195019501950",
  "nTx": 1,
  "previousblockhash": "00000000de826db313b89675d3c87abd4fa1226bb16b1605d57d53cdbf818abb",
  "nextblockhash": "00000000abd5f5b6f9c105607d83d51a6c9a2407b734521272ad3e5910ad6858",
  "strippedsize": 216,
  "size": 216,
  "weight": 864,
  "tx": [
    {
      "txid": "ed6749a52250575ef876a6e4f7f28fc4bb6b60797bf8ab3c9b91bd29d97b47e0",
      "hash": "ed6749a52250575ef876a6e4f7f28fc4bb6b60797bf8ab3c9b91bd29d97b47e0",
      "version": 1,
      "size": 135,
      "vsize": 135,
      "weight": 540,
      "locktime": 0,
      "vin": [
        {
          "coinbase": "04ffff001d021103",
          "sequence": 4294967295
        }
      ],
      "vout": [
        {
          "value": 50.0,
          "n": 0,
          "scriptPubKey": {
            "asm": "04fc93bccb63252e344cb0648e56629d78cdb236b346e7d94ac0bba74a1ba2d17741946b8c7ff8a2fc91eb636a0a7d85bbf1088e96cdaf9ad09a6d280efdafcbc0 OP_CHECKSIG",
            "desc": "pk(04fc93bccb63252e344cb0648e56629d78cdb236b346e7d94ac0bba74a1ba2d17741946b8c7ff8a2fc91eb636a0a7d85bbf1088e96cdaf9ad09a6d280efdafcbc0)#amp3npyl",
            "hex": "4104fc93bccb63252e344cb0648e56629d78cdb236b346e7d94ac0bba74a1ba2d17741946b8c7ff8a2fc91eb636a0a7d85bbf1088e96cdaf9ad09a6d280efdafcbc0ac",
            "type": "pubkey"
          }
        }
      ],
      "hex": "01000000010000000000000000000000000000000000000000000000000000000000000000ffffffff0804ffff001d021103ffffffff0100f2052a01000000434104fc93bccb63252e344cb0648e56629d78cdb236b346e7d94ac0bba74a1ba2d17741946b8c7ff8a2fc91eb636a0a7d85bbf1088e96cdaf9ad09a6d280efdafcbc0ac00000000"
    }
  ]
}