{
  "hash": "00000000af29b995bd908732300c6314756d2924dc1f65500fcb9d374c0e3a8c",
  "confirmations": 52241,
  "height": 857,
  "version": 1,
  "versionHex": "00000001",
  "merkleroot": "ec0bd6a494c6946b6615048d4b082a8d59844c9b06953da681694f61c5dd81a6",
  "time": 1232236630,
  "mediantime": 1232230602,
  "nonce": 254465311,
  "bits": "1d00ffff",
  "difficulty": 1,
  "chainwork": "0000000000000000000000000000000000000000000000000000035a035a035a",
  "nTx": 1,
  "previousblockhash": "00000000fe908b5f74b5c07fcaacef2832456fe5d69aa816e9f3f9df616b6113",
  "nextblockhash": "00000000058c90a6bbc96f0a8f8b3da0d088aacd6ed0193e99d7b9e8b028bf23",
  "strippedsize": 216,
  "size": 216,
  "weight": 864,
  "tx": [
    {
      "txid": "ec0bd6a494c6946b6615048d4b082a8d59844c9b06953da681694f61c5dd81a6",
      "hash": "ec0bd6a494c6946b6615048d4b082a8d59844c9b06953da681694f61c5dd81a6",
      "version": 1,
      "size": 135,
      "vsize": 135,
      "weight": 540,
      "locktime": 0,
      "vin": [
        {
          "coinbase": "04ffff001d029702",
          "sequence": 4294967295
        }
      ],
      "vout": [
        {
          "value": 50.0,
          "n": 0,
          "scriptPubKey": {
            "asm": "041a49f9a5204bec20209bf73d11a49b902ca617a2b884a628cb5589c6f810a925e55fe91b3d3952bd8abecf9ceb7d5afd67f4fc46f197cc338566a54a83ec6e57 OP_CHECKSIG",
            "desc": "pk(041a49f9a5204bec20209bf73d11a49b902ca617a2b884a628cb5589c6f810a925e55fe91b3d3952bd8abecf9ceb7d5afd67f4fc46f197cc338566a54a83ec6e57)#0phnyeu0",
            "hex": "41041a49f9a5204bec20209bf73d11a49b902ca617a2b884a628cb5589c6f810a925e55fe91b3d3952bd8abecf9ceb7d5afd67f4fc46f197cc338566a54a83ec6e57ac",
            "type": "pubkey"
          }
        }
      ],
      "hex": "01000000010000000000000000000000000000000000000000000000000000000000000000ffffffff0804ffff001d029702ffffffff0100f2052a010000004341041a49f9a5204bec20209bf73d11a49b902ca617a2b884a628cb5589c6f810a925e55fe91b3d3952bd8abecf9ceb7d5afd67f4fc46f197cc338566a54a83ec6e57ac00000000"
    }
  ]
}