{
  "hash": "00000000e8bcdaa8ab9f8ef19c5ecf6d5e624b8b094fd62c10ddde907881a81e",
  "confirmations": 50986,
  "height": 2112,
  "version": 1,
  "versionHex": "00000001",
  "merkleroot": "e022956b9616ed2e4bf857f7c5eab12628973d79defa57b3da69782614671292",
  "time": 1233146515,
  "mediantime": 1233142232,
  "nonce": 358961709,
  "bits": "1d00ffff",
  "difficulty": 1,
  "chainwork": "0000000000000000000000000000000000000000000000000000084108410841",
  "nTx": 1,
  "previousblockhash": "000000006a1e87b12ff12edcc04408a61b6d436b21dd6d8af9f5afc759a38116",
  "nextblockhash": "0000000074e6f8830b061e9496206845ca583f640e6ebc57add54cda51b0d981",
  "strippedsize": 216,
  "size": 216,
  "weight": 864,
  "tx": [
    {
      "txid": "e022956b9616ed2e4bf857f7c5eab12628973d79defa57b3da69782614671292",
      "hash": "e022956b9616ed2e4bf857f7c5eab12628973d79defa57b3da69782614671292",
      "version": 1,
      "size": 135,
      "vsize": 135,
      "weight": 540,
      "locktime": 0,
      "vin": [
        {
          "coinbase": "04ffff001d02d003",
          "sequence": 4294967295
        }
      ],
      "vout": [
        {
          "value": 50.0,
          "n": 0,
          "scriptPubKey": {
            "asm": "0474f3106259ca1e9b248181928d0744ca82bf0d7c0c8096d1477cd733169523d4a62b57984a983f4c26a2eb6096874d74dca87311ddbb3b5fd561efb3e4b3987b OP_CHECKSIG",
            "desc": "pk(0474f3106259ca1e9b248181928d0744ca82bf0d7c0c8096d1477cd733169523d4a62b57984a983f4c26a2eb6096874d74dca87311ddbb3b5fd561efb3e4b3987b)#3vyrln66",
            "hex": "410474f3106259ca1e9b248181928d0744ca82bf0d7c0c8096d1477cd733169523d4a62b57984a983f4c26a2eb6096874d74dca87311ddbb3b5fd561efb3e4b3987bac",
            "type": "pubkey"
          }
        }
      ],
      "hex": "01000000010000000000000000000000000000000000000000000000000000000000000000ffffffff0804ffff001d02d003ffffffff0100f2052a0100000043410474f3106259ca1e9b248181928d0744ca82bf0d7c0c8096d1477cd733169523d4a62b57984a983f4c26a2eb6096874d74dca87311ddbb3b5fd561efb3e4b3987bac00000000"
    }
  ]
}