{
  "hash": "0000000032e4e379c1dbe01389e630d9da05038dba034ad93c26699be4ae33dc",
  "confirmations": 49231,
  "height": 3867,
  "version": 1,
  "versionHex": "00000001",
  "merkleroot": "6f35e2594a71cfe8c75d8b4d9930dcc276cf23d7744ba3bad87ac35077aa7447",
  "time": 1234344038,
  "mediantime": 1234340781,
  "nonce": 2551852341,
  "bits": "1d00ffff",
  "difficulty": 1,
  "chainwork": "00000000000000000000000000000000000000000000000000000f1c0f1c0f1c",
  "nTx": 1,
  "previousblockhash": "000000002f2ff0dd5bd7e2f053b2fcf731e3a48e45798249a1d9eed49a94d4fb",
  "nextblockhash": "00000000b5b7eaec257e1ae28bb931db5b14c1578def1bb3cbd74c5ebf8ad1f1",
  "strippedsize": 216,
  "size": 216,
  "weight": 864,
  "tx": [
    {
      "txid": "6f35e2594a71cfe8c75d8b4d9930dcc276cf23d7744ba3bad87ac35077aa7447",
      "hash": "6f35e2594a71cfe8c75d8b4d9930dcc276cf23d7744ba3bad87ac35077aa7447",
      "version": 1,
      "size": 135,
      "vsize": 135,
      "weight": 540,
      "locktime": 0,
      "vin": [
        {
          "coinbase": "04ffff001d022002",
          "sequence": 4294967295
        }
      ],
      "vout": [
        {
          "value": 50.0,
          "n": 0,
          "scriptPubKey": {
            "asm": "0404fb4af11698588f00cda6263cfeb8feb1d2b07175ee1ecfef8226f664d04091bb85dc0b092a3d19f675eb21588a1cc4783065c89b73419ac4dcffc5ca01d0c3 OP_CHECKSIG",
            "desc": "pk(0404fb4af11698588f00cda6263cfeb8feb1d2b07175ee1ecfef8226f664d04091bb85dc0b092a3d19f675eb21588a1cc4783065c89b73419ac4dcffc5ca01d0c3)#stcuml77",
            "hex": "410404fb4af11698588f00cda6263cfeb8feb1d2b07175ee1ecfef8226f664d04091bb85dc0b092a3d19f675eb21588a1cc4783065c89b73419ac4dcffc5ca01d0c3ac",
            "type": "pubkey"
          }
        }
      ],
      "hex": "01000000010000000000000000000000000000000000000000000000000000000000000000ffffffff0804ffff001d022002ffffffff0100f2052a0100000043410404fb4af11698588f00cda6263cfeb8feb1d2b07175ee1ecfef8226f664d04091bb85dc0b092a3d19f675eb21588a1cc4783065c89b73419ac4dcffc5ca01d0c3ac00000000"
    }
  ]
}