{
  "hash": "00000000d39e254b36f2332bf52c65b6ad300b8cfde371c7126cc04ef8a27f8e",
  "confirmations": 52294,
  "height": 804,
  "version": 1,
  "versionHex": "00000001",
  "merkleroot": "6477f24bbc573964f3840ecd692cff994f829ef839118926651daaf8b56e7760",
  "time": 1232196222,
  "mediantime": 1232193674,
  "nonce": 2464160035,
  "bits": "1d00ffff",
  "difficulty": 1,
  "chainwork": "0000000000000000000000000000000000000000000000000000032503250325",
  "nTx": 1,
  "previousblockhash": "00000000653d00d4e326b0a1776b62ce317af501bc736c883ac9777ee3c04eae",
  "nextblockhash": "000000003f6405145c3d3e36acfeb3aefb090ee17e4e97554882f7dfc2ec4c34",
  "strippedsize": 216,
  "size": 216,
  "weight": 864,
  "tx": [
    {
      "txid": "6477f24bbc573964f3840ecd692cff994f829ef839118926651daaf8b56e7760",
      "hash": "6477f24bbc573964f3840ecd692cff994f829ef839118926651daaf8b56e7760",
      "version": 1,
      "size": 135,
      "vsize": 135,
      "weight": 540,
      "locktime": 0,
      "vin": [
        {
          "coinbase": "04ffff001d028d01",
          "sequence": 4294967295
        }
      ],
      "vout": [
        {
          "value": 50.0,
          "n": 0,
          "scriptPubKey": {
            "asm": "044098d05427209dee61fb6f61785d8c5be291086a047b703b7eaa9148fee1589a530cb6386ee21bbb08f1324cbb5f6aec167769f4cd9476139b7b2a8e7498bf43 OP_CHECKSIG",
            "desc": "pk(044098d05427209dee61fb6f61785d8c5be291086a047b703b7eaa9148fee1589a530cb6386ee21bbb08f1324cbb5f6aec167769f4cd9476139b7b2a8e7498bf43)#pmp0gnsm",
            "hex": "41044098d05427209dee61fb6f61785d8c5be291086a047b703b7eaa9148fee1589a530cb6386ee21bbb08f1324cbb5f6aec167769f4cd9476139b7b2a8e7498bf43ac",
            "type": "pubkey"
          }
        }
      ],
      "hex": "01000000010000000000000000000000000000000000000000000000000000000000000000ffffffff0804ffff001d028d01ffffffff0100f2052a010000004341044098d05427209dee61fb6f61785d8c5be291086a047b703b7eaa9148fee1589a530cb6386ee21bbb08f1324cbb5f6aec167769f4cd9476139b7b2a8e7498bf43ac00000000"
    }
  ]
}