{
  "hash": "00000000ce091c5521e08f4f6160b9446a95e3b044b8d9c0be5cb22292af975b",
  "confirmations": 44988,
  "height": 8110,
  "version": 1,
  "versionHex": "00000001",
  "merkleroot": "f091c56ff1018938c45ae95058befc2600e70389d8f8faae5bc24a98728ab900",
  "time": 1237539081,
  "mediantime": 1237535743,
  "nonce": 802960679,
  "bits": "1d00ffff",
  "difficulty": 1,
  "chainwork": "00000000000000000000000000000000000000000000000000001faf1faf1faf",
  "nTx": 1,
  "previousblockhash": "0000000032db13a59487551ee6eb1d5c7c4005fdcee70aaa264a4cbb871dbc72",
  "nextblockhash": "00000000913df6f85295bbfb96e0b39ab08179fb772873dd1b708a0844ec8bee",
  "strippedsize": 216,
  "size": 216,
  "weight": 864,
  "tx": [
    {
      "txid": "f091c56ff1018938c45ae95058befc2600e70389d8f8faae5bc24a98728ab900",
      "hash": "f091c56ff1018938c45ae95058befc2600e70389d8f8faae5bc24a98728ab900",
      "version": 1,
      "size": 135,
      "vsize": 135,
      "weight": 540,
      "locktime": 0,
      "vin": [
        {
          "coinbase": "04ffff001d024901",
          "sequence": 4294967295
        }
      ],
      "vout": [
        {
          "value": 50.0,
          "n": 0,
          "scriptPubKey": {
            "asm": "04917088d8da814a333048990984b9346d1bfbd34e627e01cba89249b6c4ea1a65fa4dcc0ee222e4a69fe0d230a79136f23ac8f9be2757c0ed614236ce14fd25a1 OP_CHECKSIG",
            "desc": "pk(04917088d8da814a333048990984b9346d1bfbd34e627e01cba89249b6c4ea1a65fa4dcc0ee222e4a69fe0d230a79136f23ac8f9be2757c0ed614236ce14fd25a1)#mdfmukf0",
            "hex": "4104917088d8da814a333048990984b9346d1bfbd34e627e01cba89249b6c4ea1a65fa4dcc0ee222e4a69fe0d230a79136f23ac8f9be2757c0ed614236ce14fd25a1ac",
            "type": "pubkey"
          }
        }
      ],
      "hex": "01000000010000000000000000000000000000000000000000000000000000000000000000ffffffff0804ffff001d024901ffffffff0100f2052a01000000434104917088d8da814a333048990984b9346d1bfbd34e627e01cba89249b6c4ea1a65fa4dcc0ee222e4a69fe0d230a79136f23ac8f9be2757c0ed614236ce14fd25a1ac00000000"
    }
  ]
}