{
  "hash": "0000000078e21b4a78a238207f0994ce13f7678448aa10e55a47a6529391ecfd",
  "confirmations": 44072,
  "height": 9026,
  "version": 1,
  "versionHex": "00000001",
  "merkleroot": "2bef6ff54af2a61f44890bf1c0daef08b3316d9342e9b3e215041b329e77042e",
  "time": 1238271603,
  "mediantime": 1238267241,
  "nonce": 239002523,
  "bits": "1d00ffff",
  "difficulty": 1,
  "chainwork": "0000000000000000000000000000000000000000000000000000234323432343",
  "nTx": 1,
  "previousblockhash": "000000008fdf75bf3564a69485c2e115e18c03dfb8f56c4966b739e41fa9af0e",
  "nextblockhash": "0000000026877aca2e4a930e8a232865f1f4259b4e6305b24ff9af3e187ae0ba",
  "strippedsize": 216,
  "size": 216,
  "weight": 864,
  "tx": [
    {
      "txid": "2bef6ff54af2a61f44890bf1c0daef08b3316d9342e9b3e215041b329e77042e",
      "hash": "2bef6ff54af2a61f44890bf1c0daef08b3316d9342e9b3e215041b329e77042e",
      "version": 1,
      "size": 135,
      "vsize": 135,
      "weight": 540,
      "locktime": 0,
      "vin": [
        {
          "coinbase": "04ffff001d02a907",
          "sequence": 4294967295
        }
      ],
      "vout": [
        {
          "value": 50.0,
          "n": 0,
          "scriptPubKey": {
            "asm": "04741d63dccd4e4325f1c468c976fca608864dac81019ba652fa04bf38d675989b9e0e251a04958fb385f980c6d435fe1affaec234aea9f0981572ef236bedec87 OP_CHECKSIG",
            "desc": "pk(04741d63dccd4e4325f1c468c976fca608864dac81019ba652fa04bf38d675989b9e0e251a04958fb385f980c6d435fe1affaec234aea9f0981572ef236bedec87)#mu64tt5r",
            "hex": "4104741d63dccd4e4325f1c468c976fca608864dac81019ba652fa04bf38d675989b9e0e251a04958fb385f980c6d435fe1affaec234aea9f0981572ef236bedec87ac",
            "type": "pubkey"
          }
        }
      ],
      "hex": "01000000010000000000000000000000000000000000000000000000000000000000000000ffffffff0804ffff001d02a907ffffffff0100f2052a01000000434104741d63dccd4e4325f1c468c976fca608864dac81019ba652fa04bf38d675989b9e0e251a04958fb385f980c6d435fe1affaec234aea9f0981572ef236bedec87ac00000000"
    }
  ]
}