{
  "hash": "00000000a56a59203fe39de44f3ee4b091bb40d869ed8d8f1c2e8f19c31fedf9",
  "confirmations": 50853,
  "height": 2245,
  "version": 1,
  "versionHex": "00000001",
  "merkleroot": "38b603452c5c1145a7aaa4705d86a99678ee9aa6102408b62e9648ed39596e09",
  "time": 1233244812,
  "mediantime": 1233240494,
  "nonce": 67768544,
  "bits": "1d00ffff",
  "difficulty": 1,
  "chainwork": "000000000000000000000000000000000000000000000000000008c608c608c6",
  "nTx": 1,
  "previousblockhash": "000000007f0b0e0dd45c162fa9422351a5d416678049860fb8d0eec97f33e925",
  "nextblockhash": "000000005a2ba0f0644d2abd0066353c16fc79c4e0bb7b5ab4741e20bb491727",
  "strippedsize": 215,
  "size": 215,
  "weight": 860,
  "tx": [
    {
      "txid": "38b603452c5c1145a7aaa4705d86a99678ee9aa6102408b62e9648ed39596e09",
      "hash": "38b603452c5c1145a7aaa4705d86a99678ee9aa6102408b62e9648ed39596e09",
      "version": 1,
      "size": 134,
      "vsize": 134,
      "weight": 536,
      "locktime": 0,
      "vin": [
        {
          "coinbase": "04ffff001d015c",
          "sequence": 4294967295
        }
      ],
      "vout": [
        {
          "value": 50.0,
          "n": 0,
          "scriptPubKey": {
            "asm": "0418d2f95df17de9285b4baf5532b8c2c71e7cfadc4228b5ff2674040ac6703915c12db13cc4b2f5b9a83ef671dff87ca12253f27b93925db9157cfa283fefcc08 OP_CHECKSIG",
            "desc": "pk(0418d2f95df17de9285b4baf5532b8c2c71e7cfadc4228b5ff2674040ac6703915c12db13cc4b2f5b9a83ef671dff87ca12253f27b93925db9157cfa283fefcc08)#20cftwfg",
            "hex": "410418d2f95df17de9285b4baf5532b8c2c71e7cfadc4228b5ff2674040ac6703915c12db13cc4b2f5b9a83ef671dff87ca12253f27b93925db9157cfa283fefcc08ac",
            "type": "pubkey"
          }
        }
      ],
      "hex": "01000000010000000000000000000000000000000000000000000000000000000000000000ffffffff0704ffff001d015cffffffff0100f2052a0100000043410418d2f95df17de9285b4baf5532b8c2c71e7cfadc4228b5ff2674040ac6703915c12db13cc4b2f5b9a83ef671dff87ca12253f27b93925db9157cfa283fefcc08ac00000000"
    }
  ]
}