{
  "hash": "00000000a7fba9d396fe8a8ce031da63ed9b0019f4903d09d81ddcdae3c733bf",
  "confirmations": 49863,
  "height": 3235,
  "version": 1,
  "versionHex": "00000001",
  "merkleroot": "9c596c6e16db10bae29495f362403f637a20e9a77b9a8cc2fe24d23f283d7fa1",
  "time": 1233925185,
  "mediantime": 1233920701,
  "nonce": 3272728350,
  "bits": "1d00ffff",
  "difficulty": 1,
  "chainwork": "00000000000000000000000000000000000000000000000000000ca40ca40ca4",
  "nTx": 1,
  "previousblockhash": "00000000792cc1513091cc859381657e3525b2c56f1283cdeb2ec4b3e7b5ef1d",
  "nextblockhash": "00000000c8885684343666662310937cbd34991f0b00fa6abedfd566687a749a",
  "strippedsize": 216,
  "size": 216,
  "weight": 864,
  "tx": [
    {
      "txid": "9c596c6e16db10bae29495f362403f637a20e9a77b9a8cc2fe24d23f283d7fa1",
      "hash": "9c596c6e16db10bae29495f362403f637a20e9a77b9a8cc2fe24d23f283d7fa1",
      "version": 1,
      "size": 135,
      "vsize": 135,
      "weight": 540,
      "locktime": 0,
      "vin": [
        {
          "coinbase": "04ffff001d023803",
          "sequence": 4294967295
        }
      ],
      "vout": [
        {
          "value": 50.0,
          "n": 0,
          "scriptPubKey": {
            "asm": "0440e0a6add912eda2a395ba5cb671b706e8ed41b711749be6d4f9c3e17614f81963a3540bc54abc257311c125de7d7a0a5b485ccba6e9e043d9b91aeb1940c463 OP_CHECKSIG",
            "desc": "pk(0440e0a6add912eda2a395ba5cb671b706e8ed41b711749be6d4f9c3e17614f81963a3540bc54abc257311c125de7d7a0a5b485ccba6e9e043d9b91aeb1940c463)#sfhuz5a8",
            "hex": "410440e0a6add912eda2a395ba5cb671b706e8ed41b711749be6d4f9c3e17614f81963a3540bc54abc257311c125de7d7a0a5b485ccba6e9e043d9b91aeb1940c463ac",
            "type": "pubkey"
          }
        }
      ],
      "hex": "01000000010000000000000000000000000000000000000000000000000000000000000000ffffffff0804ffff001d023803ffffffff0100f2052a0100000043410440e0a6add912eda2a395ba5cb671b706e8ed41b711749be6d4f9c3e17614f81963a3540bc54abc257311c125de7d7a0a5b485ccba6e9e043d9b91aeb1940c463ac00000000"
    }
  ]
}