{
  "hash": "000000000c1d42bcd697373daa90bbdd622557c57d315edb8adf930d76770cda",
  "confirmations": 43334,
  "height": 9764,
  "version": 1,
  "versionHex": "00000001",
  "merkleroot": "2699fd7c671b1f3781f05bb6cf279ed48562900150cbe3097d0917c72e1d50bd",
  "time": 1238829129,
  "mediantime": 1238824446,
  "nonce": 265869862,
  "bits": "1d00ffff",
  "difficulty": 1,
  "chainwork": "0000000000000000000000000000000000000000000000000000262526252625",
  "nTx": 1,
  "previousblockhash": "00000000f36f858234eadbca4edf69d8f22393cfb4577534a2ec5e84113c410f",
  "nextblockhash": "0000000050feb633e9a51d6720ec2a056632d5e05a36b6f66b651ce0b8a445d5",
  "strippedsize": 216,
  "size": 216,
  "weight": 864,
  "tx": [
    {
      "txid": "2699fd7c671b1f3781f05bb6cf279ed48562900150cbe3097d0917c72e1d50bd",
      "hash": "2699fd7c671b1f3781f05bb6cf279ed48562900150cbe3097d0917c72e1d50bd",
      "version": 1,
      "size": 135,
      "vsize": 135,
      "weight": 540,
      "locktime": 0,
      "vin": [
        {
          "coinbase": "04ffff001d02090a",
          "sequence": 4294967295
        }
      ],
      "vout": [
        {
          "value": 50.0,
          "n": 0,
          "scriptPubKey": {
            "asm": "0422cbdb2c68d0096306e2e5ea012779a1f688213aacd77d3f948b40026df5358bdbe30e14b4ac0610e0e7495adb32d1a2af8ee9523cc7674296af52c6db812f3e OP_CHECKSIG",
            "desc": "pk(0422cbdb2c68d0096306e2e5ea012779a1f688213aacd77d3f948b40026df5358bdbe30e14b4ac0610e0e7495adb32d1a2af8ee9523cc7674296af52c6db812f3e)#cgtt5my6",
            "hex": "410422cbdb2c68d0096306e2e5ea012779a1f688213aacd77d3f948b40026df5358bdbe30e14b4ac0610e0e7495adb32d1a2af8ee9523cc7674296af52c6db812f3eac",
            "type": "pubkey"
          }
        }
      ],
      "hex": "01000000010000000000000000000000000000000000000000000000000000000000000000ffffffff0804ffff001d02090affffffff0100f2052a0100000043410422cbdb2c68d0096306e2e5ea012779a1f688213aacd77d3f948b40026df5358bdbe30e14b4ac0610e0e7495adb32d1a2af8ee9523cc7674296af52c6db812f3eac00000000"
    }
  ]
}