{
  "hash": "0000000071a4cf635af61a4b2e31a7268394e7f6314b9db9878e50c5c4a9aa35",
  "confirmations": 46221,
  "height": 6877,
  "version": 1,
  "versionHex": "00000001",
  "merkleroot": "4f811f7631b9e2964fcfc725b224b72af996de13f740dca1aeb53360d2d08cf3",
  "time": 1236616012,
  "mediantime": 1236610667,
  "nonce": 1649560119,
  "bits": "1d00ffff",
  "difficulty": 1,
  "chainwork": "00000000000000000000000000000000000000000000000000001ade1ade1ade",
  "nTx": 1,
  "previousblockhash": "0000000076a094e2dc71900c046a62ea03933a974526357e56f6f5e432748e89",
  "nextblockhash": "00000000eb0750ff4a5cc3cf05cc34c758dff20b7820059571faacee4124ebc9",
  "strippedsize": 216,
  "size": 216,
  "weight": 864,
  "tx": [
    {
      "txid": "4f811f7631b9e2964fcfc725b224b72af996de13f740dca1aeb53360d2d08cf3",
      "hash": "4f811f7631b9e2964fcfc725b224b72af996de13f740dca1aeb53360d2d08cf3",
      "version": 1,
      "size": 135,
      "vsize": 135,
      "weight": 540,
      "locktime": 0,
      "vin": [
        {
          "coinbase": "04ffff001d02250a",
          "sequence": 4294967295
        }
      ],
      "vout": [
        {
          "value": 50.0,
          "n": 0,
          "scriptPubKey": {
            "asm": "0493020df647c79d63b16310e4e87af4566f73abb6c78dd51d653ce3364422840584b3436e5d6a05f15597dae94497e5bae29db9e6e6d7cdd9d5d44b9cd56e74b7 OP_CHECKSIG",
            "desc": "pk(0493020df647c79d63b16310e4e87af4566f73abb6c78dd51d653ce3364422840584b3436e5d6a05f15597dae94497e5bae29db9e6e6d7cdd9d5d44b9cd56e74b7)#vyeyff2v",
            "hex": "410493020df647c79d63b16310e4e87af4566f73abb6c78dd51d653ce3364422840584b3436e5d6a05f15597dae94497e5bae29db9e6e6d7cdd9d5d44b9cd56e74b7ac",
            "type": "pubkey"
          }
        }
      ],
      "hex": "01000000010000000000000000000000000000000000000000000000000000000000000000ffffffff0804ffff001d02250affffffff0100f2052a0100000043410493020df647c79d63b16310e4e87af4566f73abb6c78dd51d653ce3364422840584b3436e5d6a05f15597dae94497e5bae29db9e6e6d7cdd9d5d44b9cd56e74b7ac00000000"
    }
  ]
}