{
  "hash": "00000000e286ad94972e44b0532f2823bcda3977661a5136ff4d9d7db107d944",
  "confirmations": 51990,
  "height": 350,
  "version": 1,
  "versionHex": "00000001",
  "merkleroot": "272da16bce9a03c3aea2b294616e8e72e45dd29557938c10ed0848e62ad76018",
  "time": 1231865478,
  "mediantime": 1231861893,
  "nonce": 2183056385,
  "bits": "1d00ffff",
  "difficulty": 1,
  "chainwork": "0000000000000000000000000000000000000000000000000000015f015f015f",
  "nTx": 1,
  "previousblockhash": "00000000c4f49e3bffbd95679dc5684e388bf65b0c5160a64b34ab9a22ebc6d3",
  "nextblockhash": "00000000db629e4d40902dc756ee9e3ebb87a76d2750e0846849f3d5e93bb4d6",
  "strippedsize": 216,
  "size": 216,
  "weight": 864,
  "tx": [
    {
      "txid": "272da16bce9a03c3aea2b294616e8e72e45dd29557938c10ed0848e62ad76018",
      "hash": "272da16bce9a03c3aea2b294616e8e72e45dd29557938c10ed0848e62ad76018",
      "version": 1,
      "size": 135,
      "vsize": 135,
      "weight": 540,
      "locktime": 0,
      "vin": [
        {
          "coinbase": "04ffff001d027801",
          "sequence": 4294967295
        }
      ],
      "vout": [
        {
          "value": 50.0,
          "n": 0,
          "scriptPubKey": {
            "asm": "045c9f13fd0d908e3ace30e8c1897fb2c44ab148aafde957327aadd2dc8c833c8a2c9a94aeb7f2f0885b931b89c7ecb3123287f68538f9370106e7d0af76fe431f OP_CHECKSIG",
            "desc": "pk(045c9f13fd0d908e3ace30e8c1897fb2c44ab148aafde957327aadd2dc8c833c8a2c9a94aeb7f2f0885b931b89c7ecb3123287f68538f9370106e7d0af76fe431f)#nqcsee3h",
            "hex": "41045c9f13fd0d908e3ace30e8c1897fb2c44ab148aafde957327aadd2dc8c833c8a2c9a94aeb7f2f0885b931b89c7ecb3123287f68538f9370106e7d0af76fe431fac",
            "type": "pubkey"
          }
        }
      ],
      "hex": "01000000010000000000000000000000000000000000000000000000000000000000000000ffffffff0804ffff001d027801ffffffff0100f2052a010000004341045c9f13fd0d908e3ace30e8c1897fb2c44ab148aafde957327aadd2dc8c833c8a2c9a94aeb7f2f0885b931b89c7ecb3123287f68538f9370106e7d0af76fe431fac00000000"
    }
  ]
}