{
  "hash": "00000000c9b99d80e54f26a4c2be8853c8e9815413c14eaaf1dc437e6943c2d6",
  "confirmations": 46094,
  "height": 7004,
  "version": 1,
  "versionHex": "00000001",
  "merkleroot": "8b366b29e79e451889fe6cdd14acfd4c8f18383658b34b28ffd9ceffa6b3485f",
  "time": 1236721524,
  "mediantime": 1236717394,
  "nonce": 3895555635,
  "bits": "1d00ffff",
  "difficulty": 1,
  "chainwork": "00000000000000000000000000000000000000000000000000001b5d1b5d1b5d",
  "nTx": 1,
  "previousblockhash": "00000000d42c2da0e9574cc0c6bd0fb9917dda230e54e92ecbbf4b1f798fe2aa",
  "nextblockhash": "00000000b4852e4781193991e5e336082d0c8f65aaf2e336e338146077366ff0",
  "strippedsize": 216,
  "size": 216,
  "weight": 864,
  "tx": [
    {
      "txid": "8b366b29e79e451889fe6cdd14acfd4c8f18383658b34b28ffd9ceffa6b3485f",
      "hash": "8b366b29e79e451889fe6cdd14acfd4c8f18383658b34b28ffd9ceffa6b3485f",
      "version": 1,
      "size": 135,
      "vsize": 135,
      "weight": 540,
      "locktime": 0,
      "vin": [
        {
          "coinbase": "04ffff001d026002",
          "sequence": 4294967295
        }
      ],
      "vout": [
        {
          "value": 50.0,
          "n": 0,
          "scriptPubKey": {
            "asm": "047ad27a2582553d927982fd8ed582a37936ea07ca7c77ccf78aae4c584e6ba2a247d0cf6cc101fa054cd897c466a8809894f10ce2b5207728ad0257e8454cc4cf OP_CHECKSIG",
            "desc": "pk(047ad27a2582553d927982fd8ed582a37936ea07ca7c77ccf78aae4c584e6ba2a247d0cf6cc101fa054cd897c466a8809894f10ce2b5207728ad0257e8454cc4cf)#cl6khec4",
            "hex": "41047ad27a2582553d927982fd8ed582a37936ea07ca7c77ccf78aae4c584e6ba2a247d0cf6cc101fa054cd897c466a8809894f10ce2b5207728ad0257e8454cc4cfac",
            "type": "pubkey"
          }
        }
      ],
      "hex": "01000000010000000000000000000000000000000000000000000000000000000000000000ffffffff0804ffff001d026002ffffffff0100f2052a010000004341047ad27a2582553d927982fd8ed582a37936ea07ca7c77ccf78aae4c584e6ba2a247d0cf6cc101fa054cd897c466a8809894f10ce2b5207728ad0257e8454cc4cfac00000000"
    }
  ]
}