{
  "hash": "00000000cd0331eb9abf1d189468f0184395469dfe34e01ce6e505a64878c1d8",
  "confirmations": 43322,
  "height": 9776,
  "version": 1,
  "versionHex": "00000001",
  "merkleroot": "62b38225d28ba224d94600bd1cce4183d45fbcd8da0a8d88f50f8e61aa30bf10",
  "time": 1238837919,
  "mediantime": 1238834174,
  "nonce": 3157252889,
  "bits": "1d00ffff",
  "difficulty": 1,
  "chainwork": "0000000000000000000000000000000000000000000000000000263126312631",
  "nTx": 1,
  "previousblockhash": "00000000772098ea65f8e416b61d0a6961be640e203bc73c8b1a8381280679fe",
  "nextblockhash": "00000000fdaf27ae132f0cf004f7e60befff1df056ef9dd7b3b3ee6b11741609",
  "strippedsize": 216,
  "size": 216,
  "weight": 864,
  "tx": [
    {
      "txid": "62b38225d28ba224d94600bd1cce4183d45fbcd8da0a8d88f50f8e61aa30bf10",
      "hash": "62b38225d28ba224d94600bd1cce4183d45fbcd8da0a8d88f50f8e61aa30bf10",
      "version": 1,
      "size": 135,
      "vsize": 135,
      "weight": 540,
      "locktime": 0,
      "vin": [
        {
          "coinbase": "04ffff001d022a0a",
          "sequence": 4294967295
        }
      ],
      "vout": [
        {
          "value": 50.0,
          "n": 0,
          "scriptPubKey": {
            "asm": "04deef2c2598377d1b57b7a8212f959e4c5a4f040678f7d07f7cdc0d6aeb30beba03eb89f97a03e435f818986a596d7a8481028c756f09f65455f3c4edf85f7164 OP_CHECKSIG",
            "desc": "pk(04deef2c2598377d1b57b7a8212f959e4c5a4f040678f7d07f7cdc0d6aeb30beba03eb89f97a03e435f818986a596d7a8481028c756f09f65455f3c4edf85f7164)#k38354um",
            "hex": "4104deef2c2598377d1b57b7a8212f959e4c5a4f040678f7d07f7cdc0d6aeb30beba03eb89f97a03e435f818986a596d7a8481028c756f09f65455f3c4edf85f7164ac",
            "type": "pubkey"
          }
        }
      ],
      "hex": "01000000010000000000000000000000000000000000000000000000000000000000000000ffffffff0804ffff001d022a0affffffff0100f2052a01000000434104deef2c2598377d1b57b7a8212f959e4c5a4f040678f7d07f7cdc0d6aeb30beba03eb89f97a03e435f818986a596d7a8481028c756f09f65455f3c4edf85f7164ac00000000"
    }
  ]
}