{
  "hash": "0000000077f62bfe0863c5991a92eb347dee345f2ad1c671a1f8fd96af2db8f3",
  "confirmations": 46342,
  "height": 6756,
  "version": 1,
  "versionHex": "00000001",
  "merkleroot": "c86c45c7bf21ba82e8826865a643cb41b07f7c46168b3a9d78a977cdb944d4d4",
  "time": 1236524849,
  "mediantime": 1236521265,
  "nonce": 526999342,
  "bits": "1d00ffff",
  "difficulty": 1,
  "chainwork": "00000000000000000000000000000000000000000000000000001a651a651a65",
  "nTx": 1,
  "previousblockhash": "00000000d3a93d99e3b9fa20b7dbd07ef19f25d32268d82ec3510b16726961eb",
  "nextblockhash": "0000000055f628a1c617b8c33e2063f606fefae443533077609a03bdc9e91547",
  "strippedsize": 216,
  "size": 216,
  "weight": 864,
  "tx": [
    {
      "txid": "c86c45c7bf21ba82e8826865a643cb41b07f7c46168b3a9d78a977cdb944d4d4",
      "hash": "c86c45c7bf21ba82e8826865a643cb41b07f7c46168b3a9d78a977cdb944d4d4",
      "version": 1,
      "size": 135,
      "vsize": 135,
      "weight": 540,
      "locktime": 0,
      "vin": [
        {
          "coinbase": "04ffff001d022f08",
          "sequence": 4294967295
        }
      ],
      "vout": [
        {
          "value": 50.0,
          "n": 0,
          "scriptPubKey": {
            "asm": "0493936753c3c1ea441a70d5b25d1586af9b658fca6e495ddd6027e316cacf365e27d9f65207e8d3bff48dcbb00e4b688894b14d461d95ec8de2c463517fbd6259 OP_CHECKSIG",
            "desc": "pk(0493936753c3c1ea441a70d5b25d1586af9b658fca6e495ddd6027e316cacf365e27d9f65207e8d3bff48dcbb00e4b688894b14d461d95ec8de2c463517fbd6259)#elqaazsf",
            "hex": "410493936753c3c1ea441a70d5b25d1586af9b658fca6e495ddd6027e316cacf365e27d9f65207e8d3bff48dcbb00e4b688894b14d461d95ec8de2c463517fbd6259ac",
            "type": "pubkey"
          }
        }
      ],
      "hex": "01000000010000000000000000000000000000000000000000000000000000000000000000ffffffff0804ffff001d022f08ffffffff0100f2052a0100000043410493936753c3c1ea441a70d5b25d1586af9b658fca6e495ddd6027e316cacf365e27d9f65207e8d3bff48dcbb00e4b688894b14d461d95ec8de2c463517fbd6259ac00000000"
    }
  ]
}