{
  "hash": "0000000023bff7235b69a00f98b96cd0133ff60527314c777dc98e0ebed3e03b",
  "confirmations": 45307,
  "height": 7791,
  "version": 1,
  "versionHex": "00000001",
  "merkleroot": "cd920b473e88aaf69022ca2abfeef98053642335d062e2960d09fd96c26f60f2",
  "time": 1237304817,
  "mediantime": 1237302231,
  "nonce": 918470708,
  "bits": "1d00ffff",
  "difficulty": 1,
  "chainwork": "00000000000000000000000000000000000000000000000000001e701e701e70",
  "nTx": 1,
  "previousblockhash": "00000000ec24cd43708330cd0158beb38ef337cf7ae2b5ae39bcaf5d0e16ee91",
  "nextblockhash": "00000000aa830f284d61b97fe7eb2ef91b1f0fccae0a5c1ec70e965f98e40f70",
  "strippedsize": 216,
  "size": 216,
  "weight": 864,
  "tx": [
    {
      "txid": "cd920b473e88aaf69022ca2abfeef98053642335d062e2960d09fd96c26f60f2",
      "hash": "cd920b473e88aaf69022ca2abfeef98053642335d062e2960d09fd96c26f60f2",
      "version": 1,
      "size": 135,
      "vsize": 135,
      "weight": 540,
      "locktime": 0,
      "vin": [
        {
          "coinbase": "04ffff001d029e05",
          "sequence": 4294967295
        }
      ],
      "vout": [
        {
          "value": 50.0,
          "n": 0,
          "scriptPubKey": {
            "asm": "04e32c8821fb79ff72afbe6c6f18f6c1ce996524c6fde684d3eff735e71cc6f668e4485f719e2a264bc28e7c6f17689837980456cca45149e071926ee03f340fff OP_CHECKSIG",
            "desc": "pk(04e32c8821fb79ff72afbe6c6f18f6c1ce996524c6fde684d3eff735e71cc6f668e4485f719e2a264bc28e7c6f17689837980456cca45149e071926ee03f340fff)#06dcuq6d",
            "hex": "4104e32c8821fb79ff72afbe6c6f18f6c1ce996524c6fde684d3eff735e71cc6f668e4485f719e2a264bc28e7c6f17689837980456cca45149e071926ee03f340fffac",
            "type": "pubkey"
          }
        }
      ],
      "hex": "01000000010000000000000000000000000000000000000000000000000000000000000000ffffffff0804ffff001d029e05ffffffff0100f2052a01000000434104e32c8821fb79ff72afbe6c6f18f6c1ce996524c6fde684d3eff735e71cc6f668e4485f719e2a264bc28e7c6f17689837980456cca45149e071926ee03f340fffac00000000"
    }
  ]
}