{
  "hash": "00000000741db1bbc2a0707960b309608c9da020ea96f1c15fa65e646cdfe80f",
  "confirmations": 50513,
  "height": 2585,
  "version": 1,
  "versionHex": "00000001",
  "merkleroot": "d9bf119b6c6fad12e29ab0d1f861ed830e13777d69487c6e67d24982083ca48a",
  "time": 1233482482,
  "mediantime": 1233477840,
  "nonce": 3328640557,
  "bits": "1d00ffff",
  "difficulty": 1,
  "chainwork": "00000000000000000000000000000000000000000000000000000a1a0a1a0a1a",
  "nTx": 1,
  "previousblockhash": "00000000cf760c950cd4733f117727628d87cff2b05ac8956e53381b908fd6e2",
  "nextblockhash": "000000005d2d3a1945055e423653faa725a430381f16dfa98e1d541721a67b35",
  "strippedsize": 216,
  "size": 216,
  "weight": 864,
  "tx": [
    {
      "txid": "d9bf119b6c6fad12e29ab0d1f861ed830e13777d69487c6e67d24982083ca48a",
      "hash": "d9bf119b6c6fad12e29ab0d1f861ed830e13777d69487c6e67d24982083ca48a",
      "version": 1,
      "size": 135,
      "vsize": 135,
      "weight": 540,
      "locktime": 0,
      "vin": [
        {
          "coinbase": "04ffff001d02b602",
          "sequence": 4294967295
        }
      ],
      "vout": [
        {
          "value": 50.0,
          "n": 0,
          "scriptPubKey": {
            "asm": "04702f2f3e80fe14a542d08f70918957461130b60ec0e2cf40e7a4c52d92c28ce966a2f0abb977fde8ee27bf349da3fe33c90b981c5260e91d215187edff552879 OP_CHECKSIG",
            "desc": "pk(04702f2f3e80fe14a542d08f70918957461130b60ec0e2cf40e7a4c52d92c28ce966a2f0abb977fde8ee27bf349da3fe33c90b981c5260e91d215187edff552879)#epcakpaf",
            "hex": "4104702f2f3e80fe14a542d08f70918957461130b60ec0e2cf40e7a4c52d92c28ce966a2f0abb977fde8ee27bf349da3fe33c90b981c5260e91d215187edff552879ac",
            "type": "pubkey"
          }
        }
      ],
      "hex": "01000000010000000000000000000000000000000000000000000000000000000000000000ffffffff0804ffff001d02b602ffffffff0100f2052a01000000434104702f2f3e80fe14a542d08f70918957461130b60ec0e2cf40e7a4c52d92c28ce966a2f0abb977fde8ee27bf349da3fe33c90b981c5260e91d215187edff552879ac00000000"
    }
  ]
}