{
  "hash": "00000000fd7cc38aa4de3261606ee992092467329191a3c63fbe04687d9130ac",
  "confirmations": 51723,
  "height": 1375,
  "version": 1,
  "versionHex": "00000001",
  "merkleroot": "c8eade10a5ed8233d318e5db4114290aecb914c5a4beebcdabd6927ed4043881",
  "time": 1232663126,
  "mediantime": 1232658776,
  "nonce": 466748984,
  "bits": "1d00ffff",
  "difficulty": 1,
  "chainwork": "0000000000000000000000000000000000000000000000000000056005600560",
  "nTx": 1,
  "previousblockhash": "00000000cfc2e2706677f1de553f6cec4c2a97fcd0660e9d1f9b4621ba16d612",
  "nextblockhash": "00000000522b4442c7cb041127b9a17b3eb6e1e20ade23fb827af83a5915e51a",
  "strippedsize": 216,
  "size": 216,
  "weight": 864,
  "tx": [
    {
      "txid": "c8eade10a5ed8233d318e5db4114290aecb914c5a4beebcdabd6927ed4043881",
      "hash": "c8eade10a5ed8233d318e5db4114290aecb914c5a4beebcdabd6927ed4043881",
      "version": 1,
      "size": 135,
      "vsize": 135,
      "weight": 540,
      "locktime": 0,
      "vin": [
        {
          "coinbase": "04ffff001d02a801",
          "sequence": 4294967295
        }
      ],
      "vout": [
        {
          "value": 50.0,
          "n": 0,
          "scriptPubKey": {
            "asm": "041bab985d3db2b35d41abf30d6a3b980cd89508bb9601dccfecbffb1649e66b6dab6f6724af5d0d0ea73844609e1c73feedbfe3c8653c5f85135a321883b9aa09 OP_CHECKSIG",
            "desc": "pk(041bab985d3db2b35d41abf30d6a3b980cd89508bb9601dccfecbffb1649e66b6dab6f6724af5d0d0ea73844609e1c73feedbfe3c8653c5f85135a321883b9aa09)#xfcaezs4",
            "hex": "41041bab985d3db2b35d41abf30d6a3b980cd89508bb9601dccfecbffb1649e66b6dab6f6724af5d0d0ea73844609e1c73feedbfe3c8653c5f85135a321883b9aa09ac",
            "type": "pubkey"
          }
        }
      ],
      "hex": "01000000010000000000000000000000000000000000000000000000000000000000000000ffffffff0804ffff001d02a801ffffffff0100f2052a010000004341041bab985d3db2b35d41abf30d6a3b980cd89508bb9601dccfecbffb1649e66b6dab6f6724af5d0d0ea73844609e1c73feedbfe3c8653c5f85135a321883b9aa09ac00000000"
    }
  ]
}