{
  "hash": "00000000fef7255d9362d277b89cf9828b874b78e774690bc09cb3a09b4514f5",
  "confirmations": 44819,
  "height": 8279,
  "version": 1,
  "versionHex": "00000001",
  "merkleroot": "4c040299810076b27296cad2ae053744e1f5efa420eff00abcd375a0547f7cf9",
  "time": 1237718215,
  "mediantime": 1237715514,
  "nonce": 5048258,
  "bits": "1d00ffff",
  "difficulty": 1,
  "chainwork": "0000000000000000000000000000000000000000000000000000205820582058",
  "nTx": 1,
  "previousblockhash": "000000008cbae6bbf53ad8d4ebeedea04c889c3ec19804165a4b20a66f42afde",
  "nextblockhash": "000000000f44e3e0d4a0936726c88a989772fe7c12ce7d62bdbfe01130ef86c0",
  "strippedsize": 215,
  "size": 215,
  "weight": 860,
  "tx": [
    {
      "txid": "4c040299810076b27296cad2ae053744e1f5efa420eff00abcd375a0547f7cf9",
      "hash": "4c040299810076b27296cad2ae053744e1f5efa420eff00abcd375a0547f7cf9",
      "version": 1,
      "size": 134,
      "vsize": 134,
      "weight": 536,
      "locktime": 0,
      "vin": [
        {
          "coinbase": "04ffff001d013e",
          "sequence": 4294967295
        }
      ],
      "vout": [
        {
          "value": 50.0,
          "n": 0,
          "scriptPubKey": {
            "asm": "04d47bd95477a91c2ce3df2340c5027096100dc6e5d7ccac1ce9a9ce692cad5e90ea618d8f1721d855268af7f4cfd1e8348d9c86bc8d87f21ea483cc74a408d840 OP_CHECKSIG",
            "desc": "pk(04d47bd95477a91c2ce3df2340c5027096100dc6e5d7ccac1ce9a9ce692cad5e90ea618d8f1721d855268af7f4cfd1e8348d9c86bc8d87f21ea483cc74a408d840)#t3pt8p8u",
            "hex": "4104d47bd95477a91c2ce3df2340c5027096100dc6e5d7ccac1ce9a9ce692cad5e90ea618d8f1721d855268af7f4cfd1e8348d9c86bc8d87f21ea483cc74a408d840ac",
            "type": "pubkey"
          }
        }
      ],
      "hex": "01000000010000000000000000000000000000000000000000000000000000000000000000ffffffff0704ffff001d013effffffff0100f2052a01000000434104d47bd95477a91c2ce3df2340c5027096100dc6e5d7ccac1ce9a9ce692cad5e90ea618d8f1721d855268af7f4cfd1e8348d9c86bc8d87f21ea483cc74a408d840ac00000000"
    }
  ]
}