{
  "hash": "00000000147473672b2be974c2fa0c56ef679a7a9a726457539bbdd30cb3b57a",
  "confirmations": 51671,
  "height": 1427,
  "version": 1,
  "versionHex": "00000001",
  "merkleroot": "327e2d584cafdd42dcabd4d40ccfa9445bc541d06e457e5abe288930441f4718",
  "time": 1232736096,
  "mediantime": 1232734008,
  "nonce": 2741951017,
  "bits": "1d00ffff",
  "difficulty": 1,
  "chainwork": "0000000000000000000000000000000000000000000000000000059405940594",
  "nTx": 1,
  "previousblockhash": "00000000f486da4e0156bd6f2bc2c1238339aab925c6eb3095af32d61b955b58",
  "nextblockhash": "000000000943001d3fffff625b880567d5ca906d996f6908d1f8b461ac203403",
  "strippedsize": 215,
  "size": 215,
  "weight": 860,
  "tx": [
    {
      "txid": "327e2d584cafdd42dcabd4d40ccfa9445bc541d06e457e5abe288930441f4718",
      "hash": "327e2d584cafdd42dcabd4d40ccfa9445bc541d06e457e5abe288930441f4718",
      "version": 1,
      "size": 134,
      "vsize": 134,
      "weight": 536,
      "locktime": 0,
      "vin": [
        {
          "coinbase": "04ffff001d0164",
          "sequence": 4294967295
        }
      ],
      "vout": [
        {
          "value": 50.0,
          "n": 0,
          "scriptPubKey": {
            "asm": "042f8de307518d03fd0235f1a33080177d9ba10c0aefcf1e768cc864f1d5dc026d015c36e4323fc8c11e24f3d8a69ddd8c9ebdb6445b1756408bf3e40c7d2678d9 OP_CHECKSIG",
            "desc": "pk(042f8de307518d03fd0235f1a33080177d9ba10c0aefcf1e768cc864f1d5dc026d015c36e4323fc8c11e24f3d8a69ddd8c9ebdb6445b1756408bf3e40c7d2678d9)#sxd54uls",
            "hex": "41042f8de307518d03fd0235f1a33080177d9ba10c0aefcf1e768cc864f1d5dc026d015c36e4323fc8c11e24f3d8a69ddd8c9ebdb6445b1756408bf3e40c7d2678d9ac",
            "type": "pubkey"
          }
        }
      ],
      "hex": "01000000010000000000000000000000000000000000000000000000000000000000000000ffffffff0704ffff001d0164ffffffff0100f2052a010000004341042f8de307518d03fd0235f1a33080177d9ba10c0aefcf1e768cc864f1d5dc026d015c36e4323fc8c11e24f3d8a69ddd8c9ebdb6445b1756408bf3e40c7d2678d9ac00000000"
    }
  ]
}