{
  "hash": "00000000bd0f11ce95423513cc30ed6990fe8170b9a2edfcc1cbd9b89bbcf0df",
  "confirmations": 52092,
  "height": 242,
  "version": 1,
  "versionHex": "00000001",
  "merkleroot": "15f09c3978221c2a92e6469b1b82762f21b70c216944a63c9a821d8f846bb48f",
  "time": 1231785773,
  "mediantime": 1231781185,
  "nonce": 3922074661,
  "bits": "1d00ffff",
  "difficulty": 1,
  "chainwork": "000000000000000000000000000000000000000000000000000000f300f300f3",
  "nTx": 1,
  "previousblockhash": "000000000a827cddf4a562109923ca8102421e7f3affcfd88c66c87d63959180",
  "nextblockhash": "000000008d6d1be4e26d9ec16b8f719bc2f7befaeff7b3cc208b100ca7abc982",
  "strippedsize": 216,
  "size": 216,
  "weight": 864,
  "tx": [
    {
      "txid": "15f09c3978221c2a92e6469b1b82762f21b70c216944a63c9a821d8f846bb48f",
      "hash": "15f09c3978221c2a92e6469b1b82762f21b70c216944a63c9a821d8f846bb48f",
      "version": 1,
      "size": 135,
      "vsize": 135,
      "weight": 540,
      "locktime": 0,
      "vin": [
        {
          "coinbase": "04ffff001d02f500",
          "sequence": 4294967295
        }
      ],
      "vout": [
        {
          "value": 50.0,
          "n": 0,
          "scriptPubKey": {
            "asm": "04d4c8189f402a6e6e45bde966cbcba58c24019b1cb4d7b878a6a22d1897b5ba92661838e317b09b5425376af07fab95cce80268a1b126376a1eac050ead26a1fd OP_CHECKSIG",
            "desc": "pk(04d4c8189f402a6e6e45bde966cbcba58c24019b1cb4d7b878a6a22d1897b5ba92661838e317b09b5425376af07fab95cce80268a1b126376a1eac050ead26a1fd)#mxn6egal",
            "hex": "4104d4c8189f402a6e6e45bde966cbcba58c24019b1cb4d7b878a6a22d1897b5ba92661838e317b09b5425376af07fab95cce80268a1b126376a1eac050ead26a1fdac",
            "type": "pubkey"
          }
        }
      ],
      "hex": "01000000010000000000000000000000000000000000000000000000000000000000000000ffffffff0804ffff001d02f500ffffffff0100f2052a01000000434104d4c8189f402a6e6e45bde966cbcba58c24019b1cb4d7b878a6a22d1897b5ba92661838e317b09b5425376af07fab95cce80268a1b126376a1eac050ead26a1fdac00000000"
    }
  ]
}