{
  "hash": "00000000b988c07ed6236c52added52aeccd504300f8394b4bfd046a30dd47de",
  "confirmations": 43196,
  "height": 9902,
  "version": 1,
  "versionHex": "00000001",
  "merkleroot": "2fb748f1fac197c9c5817df2f86f32e8b2db88911aba97906ab0ff6e17f78f85",
  "time": 1238924587,
  "mediantime": 1238921691,
  "nonce": 247054897,
  "bits": "1d00ffff",
  "difficulty": 1,
  "chainwork": "000000000000000000000000000000000000000000000000000026af26af26af",
  "nTx": 1,
  "previousblockhash": "00000000d79c1ab80b93877791d7fff8bd99c8c45c8ec876ea670abb4caab165",
  "nextblockhash": "00000000cef2a8c08e84cdc055db8a26c5f7e9d9d79dd3f6982a2752958b32b7",
  "strippedsize": 216,
  "size": 216,
  "weight": 864,
  "tx": [
    {
      "txid": "2fb748f1fac197c9c5817df2f86f32e8b2db88911aba97906ab0ff6e17f78f85",
      "hash": "2fb748f1fac197c9c5817df2f86f32e8b2db88911aba97906ab0ff6e17f78f85",
      "version": 1,
      "size": 135,
      "vsize": 135,
      "weight": 540,
      "locktime": 0,
      "vin": [
        {
          "coinbase": "04ffff001d021e02",
          "sequence": 4294967295
        }
      ],
      "vout": [
        {
          "value": 50.0,
          "n": 0,
          "scriptPubKey": {
            "asm": "04b804b1b12df6c770ed7b4e89e80e0e8d79388359cbb9bd8992d2f8fd3e5c83caf1c71284e71743b7c460fb74cedcf8f1a2f86146c886324fd355336a9b0796b9 OP_CHECKSIG",
            "desc": "pk(04b804b1b12df6c770ed7b4e89e80e0e8d79388359cbb9bd8992d2f8fd3e5c83caf1c71284e71743b7c460fb74cedcf8f1a2f86146c886324fd355336a9b0796b9)#w3cj37pv",
            "hex": "4104b804b1b12df6c770ed7b4e89e80e0e8d79388359cbb9bd8992d2f8fd3e5c83caf1c71284e71743b7c460fb74cedcf8f1a2f86146c886324fd355336a9b0796b9ac",
            "type": "pubkey"
          }
        }
      ],
      "hex": "01000000010000000000000000000000000000000000000000000000000000000000000000ffffffff0804ffff001d021e02ffffffff0100f2052a01000000434104b804b1b12df6c770ed7b4e89e80e0e8d79388359cbb9bd8992d2f8fd3e5c83caf1c71284e71743b7c460fb74cedcf8f1a2f86146c886324fd355336a9b0796b9ac00000000"
    }
  ]
}