{
  "hash": "0000000014d1fd4bbd117d952efac678911969dee3640944a830d024b9eb7375",
  "confirmations": 52531,
  "height": 567,
  "version": 1,
  "versionHex": "00000001",
  "merkleroot": "8d7d3c30306d39d60a158310a6abb202833e1458f275bd9669465c891d7cfd56",
  "time": 1232014906,
  "mediantime": 1232012146,
  "nonce": 56350056,
  "bits": "1d00ffff",
  "difficulty": 1,
  "chainwork": "0000000000000000000000000000000000000000000000000000023802380238",
  "nTx": 1,
  "previousblockhash": "000000008c0ee094ee47ca98069bd49cb9c2417ee52f24476eef30b03da79553",
  "nextblockhash": "00000000aa7ada2a039524c4ad0758d07c67a9104c4d8a35b5a27ed00d0967e7",
  "strippedsize": 215,
  "size": 215,
  "weight": 860,
  "tx": [
    {
      "txid": "8d7d3c30306d39d60a158310a6abb202833e1458f275bd9669465c891d7cfd56",
      "hash": "8d7d3c30306d39d60a158310a6abb202833e1458f275bd9669465c891d7cfd56",
      "version": 1,
      "size": 134,
      "vsize": 134,
      "weight": 536,
      "locktime": 0,
      "vin": [
        {
          "coinbase": "04ffff001d016e",
          "sequence": 4294967295
        }
      ],
      "vout": [
        {
          "value": 50.0,
          "n": 0,
          "scriptPubKey": {
            "asm": "04b42e340cafa443db6babd3393b0b5464f5957626c4ab18d5292989e62461ee16aec622dd5cf63681089489dd2a5dcdb85371a66f31ff30f82fcd35b4e0a85bd7 OP_CHECKSIG",
            "desc": "pk(04b42e340cafa443db6babd3393b0b5464f5957626c4ab18d5292989e62461ee16aec622dd5cf63681089489dd2a5dcdb85371a66f31ff30f82fcd35b4e0a85bd7)#rjk7n3gh",
            "hex": "4104b42e340cafa443db6babd3393b0b5464f5957626c4ab18d5292989e62461ee16aec622dd5cf63681089489dd2a5dcdb85371a66f31ff30f82fcd35b4e0a85bd7ac",
            "type": "pubkey"
          }
        }
      ],
      "hex": "01000000010000000000000000000000000000000000000000000000000000000000000000ffffffff0704ffff001d016effffffff0100f2052a01000000434104b42e340cafa443db6babd3393b0b5464f5957626c4ab18d5292989e62461ee16aec622dd5cf63681089489dd2a5dcdb85371a66f31ff30f82fcd35b4e0a85bd7ac00000000"
    }
  ]
}