{
  "hash": "00000000c5a96455c917eab60e8a5d033483148c93a96ee1da638286781d24cf",
  "confirmations": 47227,
  "height": 5871,
  "version": 1,
  "versionHex": "00000001",
  "merkleroot": "d035375cc3c1657f5cb9ad62804f07201a19edc2fa97850e8e8d13a123c8b069",
  "time": 1235820396,
  "mediantime": 1235813639,
  "nonce": 1764407351,
  "bits": "1d00ffff",
  "difficulty": 1,
  "chainwork": "000000000000000000000000000000000000000000000000000016f016f016f0",
  "nTx": 1,
  "previousblockhash": "00000000524a5789deef37e630a93efb34117b75e0907c68745d2634d0c9b4e0",
  "nextblockhash": "00000000a23802670c853f5b77391aa86fbd64f7365ed672486b7f7061700d23",
  "strippedsize": 216,
  "size": 216,
  "weight": 864,
  "tx": [
    {
      "txid": "d035375cc3c1657f5cb9ad62804f07201a19edc2fa97850e8e8d13a123c8b069",
      "hash": "d035375cc3c1657f5cb9ad62804f07201a19edc2fa97850e8e8d13a123c8b069",
      "version": 1,
      "size": 135,
      "vsize": 135,
      "weight": 540,
      "locktime": 0,
      "vin": [
        {
          "coinbase": "04ffff001d027002",
          "sequence": 4294967295
        }
      ],
      "vout": [
        {
          "value": 50.0,
          "n": 0,
          "scriptPubKey": {
            "asm": "04c36ab36681c23852dd855dbe10c0f92e20db2e183b1a2f94bea93ae0f2f279299cf68ce505514bd8512427d293ec3ffb5b93a6debe2604b5557e79ae0001b053 OP_CHECKSIG",
            "desc": "pk(04c36ab36681c23852dd855dbe10c0f92e20db2e183b1a2f94bea93ae0f2f279299cf68ce505514bd8512427d293ec3ffb5b93a6debe2604b5557e79ae0001b053)#arsgerl4",
            "hex": "4104c36ab36681c23852dd855dbe10c0f92e20db2e183b1a2f94bea93ae0f2f279299cf68ce505514bd8512427d293ec3ffb5b93a6debe2604b5557e79ae0001b053ac",
            "type": "pubkey"
          }
        }
      ],
      "hex": "01000000010000000000000000000000000000000000000000000000000000000000000000ffffffff0804ffff001d027002ffffffff0100f2052a01000000434104c36ab36681c23852dd855dbe10c0f92e20db2e183b1a2f94bea93ae0f2f279299cf68ce505514bd8512427d293ec3ffb5b93a6debe2604b5557e79ae0001b053ac00000000"
    }
  ]
}