{
  "hash": "0000000035bc5525c606f59fa2f5ebc9ede67ade2d050fe255f831f3ff6f2ebb",
  "confirmations": 45357,
  "height": 7741,
  "version": 1,
  "versionHex": "00000001",
  "merkleroot": "f2125f1188f0fadd315bcc31b244bb954d99c482c3c4904cb8960840c853cfc9",
  "time": 1237270938,
  "mediantime": 1237266141,
  "nonce": 2647477532,
  "bits": "1d00ffff",
  "difficulty": 1,
  "chainwork": "00000000000000000000000000000000000000000000000000001e3e1e3e1e3e",
  "nTx": 1,
  "previousblockhash": "000000001751153d790e15e80aade796bbc73257e897648d6d26eedc5166b0b7",
  "nextblockhash": "0000000016786764bd1922d96dd75912655381ca9f55d4980c74892fb1d9b6ce",
  "strippedsize": 216,
  "size": 216,
  "weight": 864,
  "tx": [
    {
      "txid": "f2125f1188f0fadd315bcc31b244bb954d99c482c3c4904cb8960840c853cfc9",
      "hash": "f2125f1188f0fadd315bcc31b244bb954d99c482c3c4904cb8960840c853cfc9",
      "version": 1,
      "size": 135,
      "vsize": 135,
      "weight": 540,
      "locktime": 0,
      "vin": [
        {
          "coinbase": "04ffff001d02e804",
          "sequence": 4294967295
        }
      ],
      "vout": [
        {
          "value": 50.0,
          "n": 0,
          "scriptPubKey": {
            "asm": "04ade97975f798c2398399f4f2b3b0e7d798eabc9a83654d89f7307d61121a16d44f08997159542a965dbb97d8a299663d9f3adb400f7a33b0496058cc649fea38 OP_CHECKSIG",
            "desc": "pk(04ade97975f798c2398399f4f2b3b0e7d798eabc9a83654d89f7307d61121a16d44f08997159542a965dbb97d8a299663d9f3adb400f7a33b0496058cc649fea38)#swv2l8xg",
            "hex": "4104ade97975f798c2398399f4f2b3b0e7d798eabc9a83654d89f7307d61121a16d44f08997159542a965dbb97d8a299663d9f3adb400f7a33b0496058cc649fea38ac",
            "type": "pubkey"
          }
        }
      ],
      "hex": "01000000010000000000000000000000000000000000000000000000000000000000000000ffffffff0804ffff001d02e804ffffffff0100f2052a01000000434104ade97975f798c2398399f4f2b3b0e7d798eabc9a83654d89f7307d61121a16d44f08997159542a965dbb97d8a299663d9f3adb400f7a33b0496058cc649fea38ac00000000"
    }
  ]
}