{
  "hash": "00000000992382eb485095447db1b59a3833a94641d9033c2aad27b1dbf974a9",
  "confirmations": 50713,
  "height": 2385,
  "version": 1,
  "versionHex": "00000001",
  "merkleroot": "c53f9d7309069f54a1a761d5829e6a64f7fbd84f46b551684669f1148f817ae4",
  "time": 1233342970,
  "mediantime": 1233338546,
  "nonce": 2699284484,
  "bits": "1d00ffff",
  "difficulty": 1,
  "chainwork": "0000000000000000000000000000000000000000000000000000095209520952",
  "nTx": 1,
  "previousblockhash": "00000000d4b8102b902613c2494ff2c454d020f2cbfdbc0e5f306a0b7b77e9fe",
  "nextblockhash": "000000006c03d7466e36937aafa0482560257003b6502887ae367b7d9017ee21",
  "strippedsize": 216,
  "size": 216,
  "weight": 864,
  "tx": [
    {
      "txid": "c53f9d7309069f54a1a761d5829e6a64f7fbd84f46b551684669f1148f817ae4",
      "hash": "c53f9d7309069f54a1a761d5829e6a64f7fbd84f46b551684669f1148f817ae4",
      "version": 1,
      "size": 135,
      "vsize": 135,
      "weight": 540,
      "locktime": 0,
      "vin": [
        {
          "coinbase": "04ffff001d026003",
          "sequence": 4294967295
        }
      ],
      "vout": [
        {
          "value": 50.0,
          "n": 0,
          "scriptPubKey": {
            "asm": "04f5901f8b5092c01644cff369dcc6def58b3dd8d71a826bd554cb02010eaedd11b52e711d082eed16d8317138354842635f0de736c112d82b1694b753419ceded OP_CHECKSIG",
            "desc": "pk(04f5901f8b5092c01644cff369dcc6def58b3dd8d71a826bd554cb02010eaedd11b52e711d082eed16d8317138354842635f0de736c112d82b1694b753419ceded)#9ddsx73x",
            "hex": "4104f5901f8b5092c01644cff369dcc6def58b3dd8d71a826bd554cb02010eaedd11b52e711d082eed16d8317138354842635f0de736c112d82b1694b753419cededac",
            "type": "pubkey"
          }
        }
      ],
      "hex": "01000000010000000000000000000000000000000000000000000000000000000000000000ffffffff0804ffff001d026003ffffffff0100f2052a01000000434104f5901f8b5092c01644cff369dcc6def58b3dd8d71a826bd554cb02010eaedd11b52e711d082eed16d8317138354842635f0de736c112d82b1694b753419cededac00000000"
    }
  ]
}