{
  "hash": "000000000f2517956407661789046380936c43f6e1d760bf27aab5f27020d611",
  "confirmations": 43223,
  "height": 9875,
  "version": 1,
  "versionHex": "00000001",
  "merkleroot": "d3b6f80671ce337d84e59ea569ca8dccb659c5aafb81d7281cb452f7dffbfa5a",
  "time": 1238909871,
  "mediantime": 1238906032,
  "nonce": 746257197,
  "bits": "1d00ffff",
  "difficulty": 1,
  "chainwork": "0000000000000000000000000000000000000000000000000000269426942694",
  "nTx": 1,
  "previousblockhash": "00000000e6e807e81755db9421d65e1017661109e9270913cab0283fc94acc1a",
  "nextblockhash": "00000000f22459f7fb26c871a3948e0a604da5c59d62ba7fe3a48df558089293",
  "strippedsize": 216,
  "size": 216,
  "weight": 864,
  "tx": [
    {
      "txid": "d3b6f80671ce337d84e59ea569ca8dccb659c5aafb81d7281cb452f7dffbfa5a",
      "hash": "d3b6f80671ce337d84e59ea569ca8dccb659c5aafb81d7281cb452f7dffbfa5a",
      "version": 1,
      "size": 135,
      "vsize": 135,
      "weight": 540,
      "locktime": 0,
      "vin": [
        {
          "coinbase": "04ffff001d02b301",
          "sequence": 4294967295
        }
      ],
      "vout": [
        {
          "value": 50.0,
          "n": 0,
          "scriptPubKey": {
            "asm": "04cf9503e25bcb3f193f6ed20997b210aa3f70acbe6073b4df7f8cab08d0653ecfc913cfe2e6efb6f6f8cda91967e33a9d216e670600f779d17e3b7ec1bf0a4973 OP_CHECKSIG",
            "desc": "pk(04cf9503e25bcb3f193f6ed20997b210aa3f70acbe6073b4df7f8cab08d0653ecfc913cfe2e6efb6f6f8cda91967e33a9d216e670600f779d17e3b7ec1bf0a4973)#hgdhvwce",
            "hex": "4104cf9503e25bcb3f193f6ed20997b210aa3f70acbe6073b4df7f8cab08d0653ecfc913cfe2e6efb6f6f8cda91967e33a9d216e670600f779d17e3b7ec1bf0a4973ac",
            "type": "pubkey"
          }
        }
      ],
      "hex": "01000000010000000000000000000000000000000000000000000000000000000000000000ffffffff0804ffff001d02b301ffffffff0100f2052a01000000434104cf9503e25bcb3f193f6ed20997b210aa3f70acbe6073b4df7f8cab08d0653ecfc913cfe2e6efb6f6f8cda91967e33a9d216e670600f779d17e3b7ec1bf0a4973ac00000000"
    }
  ]
}