{
  "hash": "000000008893a16f8cf72bcad0280c0afb27fe42e69747644f5337f28ca5e32d",
  "confirmations": 43558,
  "height": 9540,
  "version": 1,
  "versionHex": "00000001",
  "merkleroot": "7dfa77f944265b84f2495b11e54213e6c9c3c4d89b7cc6c2ba0c99b642068c6f",
  "time": 1238653142,
  "mediantime": 1238649578,
  "nonce": 2552752153,
  "bits": "1d00ffff",
  "difficulty": 1,
  "chainwork": "0000000000000000000000000000000000000000000000000000254525452545",
  "nTx": 1,
  "previousblockhash": "00000000a20b846670fec9ef68b31b35fb757b3e6e1db5166241eefb686acd39",
  "nextblockhash": "000000003ef4ac1722dd82267620bdc3d892fbeb7253ed596b16909e196e7413",
  "strippedsize": 216,
  "size": 216,
  "weight": 864,
  "tx": [
    {
      "txid": "7dfa77f944265b84f2495b11e54213e6c9c3c4d89b7cc6c2ba0c99b642068c6f",
      "hash": "7dfa77f944265b84f2495b11e54213e6c9c3c4d89b7cc6c2ba0c99b642068c6f",
      "version": 1,
      "size": 135,
      "vsize": 135,
      "weight": 540,
      "locktime": 0,
      "vin": [
        {
          "coinbase": "04ffff001d02e405",
          "sequence": 4294967295
        }
      ],
      "vout": [
        {
          "value": 50.0,
          "n": 0,
          "scriptPubKey": {
            "asm": "041d5ae6547f653b2ac73bcef11b9d1e61df301eb1c00ef2881d3f23731d72963af417d2a280a7a81ed3585c94b022e4fe89e8e910fe43b55e5338466c1407ab07 OP_CHECKSIG",
            "desc": "pk(041d5ae6547f653b2ac73bcef11b9d1e61df301eb1c00ef2881d3f23731d72963af417d2a280a7a81ed3585c94b022e4fe89e8e910fe43b55e5338466c1407ab07)#6a2sac8g",
            "hex": "41041d5ae6547f653b2ac73bcef11b9d1e61df301eb1c00ef2881d3f23731d72963af417d2a280a7a81ed3585c94b022e4fe89e8e910fe43b55e5338466c1407ab07ac",
            "type": "pubkey"
          }
        }
      ],
      "hex": "01000000010000000000000000000000000000000000000000000000000000000000000000ffffffff0804ffff001d02e405ffffffff0100f2052a010000004341041d5ae6547f653b2ac73bcef11b9d1e61df301eb1c00ef2881d3f23731d72963af417d2a280a7a81ed3585c94b022e4fe89e8e910fe43b55e5338466c1407ab07ac00000000"
    }
  ]
}