{
  "hash": "00000000986c05c1a1eb41f01d51b3fdcf6b566fdd549fc32be58d4a1b792ff9",
  "confirmations": 46200,
  "height": 6898,
  "version": 1,
  "versionHex": "00000001",
  "merkleroot": "8cb4a7fc8d0df549fc50011bc2dac3861c7636ff86c206254af5f9fed45a99e6",
  "time": 1236635546,
  "mediantime": 1236632463,
  "nonce": 3678563847,
  "bits": "1d00ffff",
  "difficulty": 1,
  "chainwork": "00000000000000000000000000000000000000000000000000001af31af31af3",
  "nTx": 1,
  "previousblockhash": "0000000015f1e7ff92e9d45060742576ea20bd23f022425ad5866d18918a6257",
  "nextblockhash": "0000000046f671b1a1a53fb5d2d63086b9023348c6e7829a76f0a4375d405804",
  "strippedsize": 215,
  "size": 215,
  "weight": 860,
  "tx": [
    {
      "txid": "8cb4a7fc8d0df549fc50011bc2dac3861c7636ff86c206254af5f9fed45a99e6",
      "hash": "8cb4a7fc8d0df549fc50011bc2dac3861c7636ff86c206254af5f9fed45a99e6",
      "version": 1,
      "size": 134,
      "vsize": 134,
      "weight": 536,
      "locktime": 0,
      "vin": [
        {
          "coinbase": "04ffff001d014d",
          "sequence": 4294967295
        }
      ],
      "vout": [
        {
          "value": 50.0,
          "n": 0,
          "scriptPubKey": {
            "asm": "04e4fc29d47e17f1656cf2df6dbcffd20d363f8b117d01a1e7b50c01d6434f67cfb0ff669b7df167b6ae8e347f7f2bc8635795a8a05d9972603f4c777361ee0a62 OP_CHECKSIG",
            "desc": "pk(04e4fc29d47e17f1656cf2df6dbcffd20d363f8b117d01a1e7b50c01d6434f67cfb0ff669b7df167b6ae8e347f7f2bc8635795a8a05d9972603f4c777361ee0a62)#0cgnecer",
            "hex": "4104e4fc29d47e17f1656cf2df6dbcffd20d363f8b117d01a1e7b50c01d6434f67cfb0ff669b7df167b6ae8e347f7f2bc8635795a8a05d9972603f4c777361ee0a62ac",
            "type": "pubkey"
          }
        }
      ],
      "hex": "01000000010000000000000000000000000000000000000000000000000000000000000000ffffffff0704ffff001d014dffffffff0100f2052a01000000434104e4fc29d47e17f1656cf2df6dbcffd20d363f8b117d01a1e7b50c01d6434f67cfb0ff669b7df167b6ae8e347f7f2bc8635795a8a05d9972603f4c777361ee0a62ac00000000"
    }
  ]
}