{
  "hash": "00000000eca2c27c7de533b444346bf8f5408f77dbf4da906fe9305e2f76a955",
  "confirmations": 44266,
  "height": 8832,
  "version": 1,
  "versionHex": "00000001",
  "merkleroot": "cb056f70ad090fbcb0712f4e6521b9daa0b558eec772ff53d0215a55b8fba69c",
  "time": 1238121747,
  "mediantime": 1238117302,
  "nonce": 22273030,
  "bits": "1d00ffff",
  "difficulty": 1,
  "chainwork": "0000000000000000000000000000000000000000000000000000228122812281",
  "nTx": 1,
  "previousblockhash": "00000000b12f5de820deb4065df2c250b33b4b85205ebd1964f655154d112d9d",
  "nextblockhash": "00000000530b1a3e3b2cd6caeec1599eb991b928fe0935b35d3acf01b4adef50",
  "strippedsize": 216,
  "size": 216,
  "weight": 864,
  "tx": [
    {
      "txid": "cb056f70ad090fbcb0712f4e6521b9daa0b558eec772ff53d0215a55b8fba69c",
      "hash": "cb056f70ad090fbcb0712f4e6521b9daa0b558eec772ff53d0215a55b8fba69c",
      "version": 1,
      "size": 135,
      "vsize": 135,
      "weight": 540,
      "locktime": 0,
      "vin": [
        {
          "coinbase": "04ffff001d025303",
          "sequence": 4294967295
        }
      ],
      "vout": [
        {
          "value": 50.0,
          "n": 0,
          "scriptPubKey": {
            "asm": "047b057c5b5880bd42223ae3dbcd22988b15bd90cf7742d5d04c86f7b2fca6e3e2843434ed0e02086cceaa88629f80a54eecdbacd6f71b62c497ecd93639daf795 OP_CHECKSIG",
            "desc": "pk(047b057c5b5880bd42223ae3dbcd22988b15bd90cf7742d5d04c86f7b2fca6e3e2843434ed0e02086cceaa88629f80a54eecdbacd6f71b62c497ecd93639daf795)#8rxqmraz",
            "hex": "41047b057c5b5880bd42223ae3dbcd22988b15bd90cf7742d5d04c86f7b2fca6e3e2843434ed0e02086cceaa88629f80a54eecdbacd6f71b62c497ecd93639daf795ac",
            "type": "pubkey"
          }
        }
      ],
      "hex": "01000000010000000000000000000000000000000000000000000000000000000000000000ffffffff0804ffff001d025303ffffffff0100f2052a010000004341047b057c5b5880bd42223ae3dbcd22988b15bd90cf7742d5d04c86f7b2fca6e3e2843434ed0e02086cceaa88629f80a54eecdbacd6f71b62c497ecd93639daf795ac00000000"
    }
  ]
}