{
  "hash": "00000000b4e549b545583b9f3f3823df84eeb43df830e7c7ff716b55d07817d9",
  "confirmations": 47727,
  "height": 5371,
  "version": 1,
  "versionHex": "00000001",
  "merkleroot": "d6ba6be5a30f508aef2cb46f41478dfa9a37bc1084cbb0481b6b3eeb73c62e61",
  "time": 1235417774,
  "mediantime": 1235415695,
  "nonce": 187735891,
  "bits": "1d00ffff",
  "difficulty": 1,
  "chainwork": "000000000000000000000000000000000000000000000000000014fc14fc14fc",
  "nTx": 1,
  "previousblockhash": "00000000326650214b4292b19928852e84a355cea3745d9e014795548775723f",
  "nextblockhash": "00000000076e64aa17a89e633e321d82515abf289ed896ddfc5d5d320a3e9702",
  "strippedsize": 216,
  "size": 216,
  "weight": 864,
  "tx": [
    {
      "txid": "d6ba6be5a30f508aef2cb46f41478dfa9a37bc1084cbb0481b6b3eeb73c62e61",
      "hash": "d6ba6be5a30f508aef2cb46f41478dfa9a37bc1084cbb0481b6b3eeb73c62e61",
      "version": 1,
      "size": 135,
      "vsize": 135,
      "weight": 540,
      "locktime": 0,
      "vin": [
        {
          "coinbase": "04ffff001d02d900",
          "sequence": 4294967295
        }
      ],
      "vout": [
        {
          "value": 50.0,
          "n": 0,
          "scriptPubKey": {
            "asm": "042fee49f4096552dbe83007e878d7ad09c640ba951f1b35b749237a720240263175c713ddefa6fe0b676dc464c9de3937cb9282672da6c761b40474dc610ca02c OP_CHECKSIG",
            "desc": "pk(042fee49f4096552dbe83007e878d7ad09c640ba951f1b35b749237a720240263175c713ddefa6fe0b676dc464c9de3937cb9282672da6c761b40474dc610ca02c)#euf3zw86",
            "hex": "41042fee49f4096552dbe83007e878d7ad09c640ba951f1b35b749237a720240263175c713ddefa6fe0b676dc464c9de3937cb9282672da6c761b40474dc610ca02cac",
            "type": "pubkey"
          }
        }
      ],
      "hex": "01000000010000000000000000000000000000000000000000000000000000000000000000ffffffff0804ffff001d02d900ffffffff0100f2052a010000004341042fee49f4096552dbe83007e878d7ad09c640ba951f1b35b749237a720240263175c713ddefa6fe0b676dc464c9de3937cb9282672da6c761b40474dc610ca02cac00000000"
    }
  ]
}