{
  "hash": "00000000e52c0e74a5c8a502b8f04a83d1a9f8a84c50fc1a9f9ca1e7fc4d6529",
  "confirmations": 48822,
  "height": 4276,
  "version": 1,
  "versionHex": "00000001",
  "merkleroot": "934fbd87f82cbc4f447e76e8eed4bfd53399a9fbf6efd75ac56854c88f391f4c",
  "time": 1234627285,
  "mediantime": 1234622628,
  "nonce": 429801413,
  "bits": "1d00ffff",
  "difficulty": 1,
  "chainwork": "000000000000000000000000000000000000000000000000000010b510b510b5",
  "nTx": 1,
  "previousblockhash": "0000000010a4fcc5a5b193df91fec0f642f98236ef73d091b3158fb01eae2ab4",
  "nextblockhash": "00000000f1e3293bd933c93f0926d804a60ee6d58b1ef155eb52ae9ba3b49427",
  "strippedsize": 215,
  "size": 215,
  "weight": 860,
  "tx": [
    {
      "txid": "934fbd87f82cbc4f447e76e8eed4bfd53399a9fbf6efd75ac56854c88f391f4c",
      "hash": "934fbd87f82cbc4f447e76e8eed4bfd53399a9fbf6efd75ac56854c88f391f4c",
      "version": 1,
      "size": 134,
      "vsize": 134,
      "weight": 536,
      "locktime": 0,
      "vin": [
        {
          "coinbase": "04ffff001d0163",
          "sequence": 4294967295
        }
      ],
      "vout": [
        {
          "value": 50.0,
          "n": 0,
          "scriptPubKey": {
            "asm": "040627bff36e9a7909aad57042190f1f8a1ca786e4b4e51224f12a84e2b2401df9529945e2987088155a975d8e5bb6f5d589f7ccbfd3e5992c391474bab21be1ac OP_CHECKSIG",
            "desc": "pk(040627bff36e9a7909aad57042190f1f8a1ca786e4b4e51224f12a84e2b2401df9529945e2987088155a975d8e5bb6f5d589f7ccbfd3e5992c391474bab21be1ac)#99tal89d",
            "hex": "41040627bff36e9a7909aad57042190f1f8a1ca786e4b4e51224f12a84e2b2401df9529945e2987088155a975d8e5bb6f5d589f7ccbfd3e5992c391474bab21be1acac",
            "type": "pubkey"
          }
        }
      ],
      "hex": "01000000010000000000000000000000000000000000000000000000000000000000000000ffffffff0704ffff001d0163ffffffff0100f2052a010000004341040627bff36e9a7909aad57042190f1f8a1ca786e4b4e51224f12a84e2b2401df9529945e2987088155a975d8e5bb6f5d589f7ccbfd3e5992c391474bab21be1acac00000000"
    }
  ]
}