{
  "hash": "0000000044265b9727ada3e7621b975576a4c1ba6905aa92470b275b56afe48f",
  "confirmations": 49914,
  "height": 3184,
  "version": 1,
  "versionHex": "00000001",
  "merkleroot": "5d6f8bb3e1bbfb5b5dec17afd4519c34307e6e7b7a85e3a98be331e43aafd395",
  "time": 1233889195,
  "mediantime": 1233885941,
  "nonce": 3247855397,
  "bits": "1d00ffff",
  "difficulty": 1,
  "chainwork": "00000000000000000000000000000000000000000000000000000c710c710c71",
  "nTx": 1,
  "previousblockhash": "00000000dad0ecbdc542059731fcb46178186d954884a13109eeac05a9eea5cb",
  "nextblockhash": "00000000b6cb8a4e0e8059b3b6a089002c4aea360b5bc885e124cbbba91c09f4",
  "strippedsize": 216,
  "size": 216,
  "weight": 864,
  "tx": [
    {
      "txid": "5d6f8bb3e1bbfb5b5dec17afd4519c34307e6e7b7a85e3a98be331e43aafd395",
      "hash": "5d6f8bb3e1bbfb5b5dec17afd4519c34307e6e7b7a85e3a98be331e43aafd395",
      "version": 1,
      "size": 135,
      "vsize": 135,
      "weight": 540,
      "locktime": 0,
      "vin": [
        {
          "coinbase": "04ffff001d026f02",
          "sequence": 4294967295
        }
      ],
      "vout": [
        {
          "value": 50.0,
          "n": 0,
          "scriptPubKey": {
            "asm": "04d1e8416ac1b3b6400c4120e11bc4baec1e9925f232f9beca76242d60d9417b4224f8e9430fb788b08765747f36502c922d2c43deb1106c77136f4b0a901de229 OP_CHECKSIG",
            "desc": "pk(04d1e8416ac1b3b6400c4120e11bc4baec1e9925f232f9beca76242d60d9417b4224f8e9430fb788b08765747f36502c922d2c43deb1106c77136f4b0a901de229)#dqp6r55q",
            "hex": "4104d1e8416ac1b3b6400c4120e11bc4baec1e9925f232f9beca76242d60d9417b4224f8e9430fb788b08765747f36502c922d2c43deb1106c77136f4b0a901de229ac",
            "type": "pubkey"
          }
        }
      ],
      "hex": "01000000010000000000000000000000000000000000000000000000000000000000000000ffffffff0804ffff001d026f02ffffffff0100f2052a01000000434104d1e8416ac1b3b6400c4120e11bc4baec1e9925f232f9beca76242d60d9417b4224f8e9430fb788b08765747f36502c922d2c43deb1106c77136f4b0a901de229ac00000000"
    }
  ]
}