{
  "hash": "000000003c22a2357ddc3c55c098346c9ee68510984b2c41c351c548ef295162",
  "confirmations": 52558,
  "height": 523,
  "version": 1,
  "versionHex": "00000001",
  "merkleroot": "5f2619474282ce60491d61026fe5a87c985be35774723b1b91cc19d331db59eb",
  "time": 1231983513,
  "mediantime": 1231980679,
  "nonce": 2013841952,
  "bits": "1d00ffff",
  "difficulty": 1,
  "chainwork": "0000000000000000000000000000000000000000000000000000020c020c020c",
  "nTx": 1,
  "previousblockhash": "00000000a258ca4d95258d15db20e5305082039c75e33d8b954eea3dcad14d88",
  "nextblockhash": "00000000309014d78fc7440362c8ae0599e79557fe7bd0c94172dbc8c050ba5e",
  "strippedsize": 216,
  "size": 216,
  "weight": 864,
  "tx": [
    {
      "txid": "5f2619474282ce60491d61026fe5a87c985be35774723b1b91cc19d331db59eb",
      "hash": "5f2619474282ce60491d61026fe5a87c985be35774723b1b91cc19d331db59eb",
      "version": 1,
      "size": 135,
      "vsize": 135,
      "weight": 540,
      "locktime": 0,
      "vin": [
        {
          "coinbase": "04ffff001d02fa04",
          "sequence": 4294967295
        }
      ],
      "vout": [
        {
          "value": 50.0,
          "n": 0,
          "scriptPubKey": {
            "asm": "041ba15170aaf7a8e03b4440639e70570d4023cbe4fa28a0aea76bee14d76f609cb42c2e5f3908a2d3d03922cb3b5b10e1c37fb650a20a494b8f5004b492d6e4fe OP_CHECKSIG",
            "desc": "pk(041ba15170aaf7a8e03b4440639e70570d4023cbe4fa28a0aea76bee14d76f609cb42c2e5f3908a2d3d03922cb3b5b10e1c37fb650a20a494b8f5004b492d6e4fe)#cv77xpg3",
            "hex": "41041ba15170aaf7a8e03b4440639e70570d4023cbe4fa28a0aea76bee14d76f609cb42c2e5f3908a2d3d03922cb3b5b10e1c37fb650a20a494b8f5004b492d6e4feac",
            "type": "pubkey"
          }
        }
      ],
      "hex": "01000000010000000000000000000000000000000000000000000000000000000000000000ffffffff0804ffff001d02fa04ffffffff0100f2052a010000004341041ba15170aaf7a8e03b4440639e70570d4023cbe4fa28a0aea76bee14d76f609cb42c2e5f3908a2d3d03922cb3b5b10e1c37fb650a20a494b8f5004b492d6e4feac00000000"
    }
  ]
}