{
  "hash": "0000000041c7e25c7f8b295d1b50b0b7c99a25265fe41a35e362e963db1eba4a",
  "confirmations": 50685,
  "height": 2413,
  "version": 1,
  "versionHex": "00000001",
  "merkleroot": "7d17d9b5f03f9ed82049c202480064bacf9c5e0cd4d4237622ecaffc30489a46",
  "time": 1233364566,
  "mediantime": 1233361131,
  "nonce": 139072031,
  "bits": "1d00ffff",
  "difficulty": 1,
  "chainwork": "0000000000000000000000000000000000000000000000000000096e096e096e",
  "nTx": 1,
  "previousblockhash": "00000000ce45140ff4b62388dd98730531216285dd1a9ddabbd646ba615b0461",
  "nextblockhash": "00000000c88b8ab2b9d55880910cfc106a71f0b32204dd5c7e6af5177f7c2771",
  "strippedsize": 215,
  "size": 215,
  "weight": 860,
  "tx": [
    {
      "txid": "7d17d9b5f03f9ed82049c202480064bacf9c5e0cd4d4237622ecaffc30489a46",
      "hash": "7d17d9b5f03f9ed82049c202480064bacf9c5e0cd4d4237622ecaffc30489a46",
      "version": 1,
      "size": 134,
      "vsize": 134,
      "weight": 536,
      "locktime": 0,
      "vin": [
        {
          "coinbase": "04ffff001d0132",
          "sequence": 4294967295
        }
      ],
      "vout": [
        {
          "value": 50.0,
          "n": 0,
          "scriptPubKey": {
            "asm": "049042369f343372e8278c4a097a148ea711063e3527e15bad8d6af6425e9a8b09da1c27f0af85b2e65070ad6ff739fb3412c0273a448d7677996cd4647d23944c OP_CHECKSIG",
            "desc": "pk(049042369f343372e8278c4a097a148ea711063e3527e15bad8d6af6425e9a8b09da1c27f0af85b2e65070ad6ff739fb3412c0273a448d7677996cd4647d23944c)#pcc2d7nq",
            "hex": "41049042369f343372e8278c4a097a148ea711063e3527e15bad8d6af6425e9a8b09da1c27f0af85b2e65070ad6ff739fb3412c0273a448d7677996cd4647d23944cac",
            "type": "pubkey"
          }
        }
      ],
      "hex": "01000000010000000000000000000000000000000000000000000000000000000000000000ffffffff0704ffff001d0132ffffffff0100f2052a010000004341049042369f343372e8278c4a097a148ea711063e3527e15bad8d6af6425e9a8b09da1c27f0af85b2e65070ad6ff739fb3412c0273a448d7677996cd4647d23944cac00000000"
    }
  ]
}