{
  "hash": "00000000767f0254e57279f9029ef950cc3b3ca424ff765194de98674fcec901",
  "confirmations": 46452,
  "height": 6646,
  "version": 1,
  "versionHex": "00000001",
  "merkleroot": "2095b56cff9bced47615197d4dd024f83e997c56fd8ed11158b5fd7b8f6573bf",
  "time": 1236442200,
  "mediantime": 1236437789,
  "nonce": 1658590770,
  "bits": "1d00ffff",
  "difficulty": 1,
  "chainwork": "000000000000000000000000000000000000000000000000000019f719f719f7",
  "nTx": 1,
  "previousblockhash": "0000000072a3b94d3331263a2a871c56a9f16ca33b7e90f5b1ac58e584e99bef",
  "nextblockhash": "00000000fa54966eeddec2ee763473e6ea3d7c1de237a301bca3c17ae8084542",
  "strippedsize": 216,
  "size": 216,
  "weight": 864,
  "tx": [
    {
      "txid": "2095b56cff9bced47615197d4dd024f83e997c56fd8ed11158b5fd7b8f6573bf",
      "hash": "2095b56cff9bced47615197d4dd024f83e997c56fd8ed11158b5fd7b8f6573bf",
      "version": 1,
      "size": 135,
      "vsize": 135,
      "weight": 540,
      "locktime": 0,
      "vin": [
        {
          "coinbase": "04ffff001d020506",
          "sequence": 4294967295
        }
      ],
      "vout": [
        {
          "value": 50.0,
          "n": 0,
          "scriptPubKey": {
            "asm": "04c1f1d1a6c75f1bbfe06a4d8490e243463171f0791a69731cb292553a6b66c6df8d3b627c969e198054be96f5126e95b6ac6185ef7feff45d3e215d55e7c7ba87 OP_CHECKSIG",
            "desc": "pk(04c1f1d1a6c75f1bbfe06a4d8490e243463171f0791a69731cb292553a6b66c6df8d3b627c969e198054be96f5126e95b6ac6185ef7feff45d3e215d55e7c7ba87)#xx8ve4gk",
            "hex": "4104c1f1d1a6c75f1bbfe06a4d8490e243463171f0791a69731cb292553a6b66c6df8d3b627c969e198054be96f5126e95b6ac6185ef7feff45d3e215d55e7c7ba87ac",
            "type": "pubkey"
          }
        }
      ],
      "hex": "01000000010000000000000000000000000000000000000000000000000000000000000000ffffffff0804ffff001d020506ffffffff0100f2052a01000000434104c1f1d1a6c75f1bbfe06a4d8490e243463171f0791a69731cb292553a6b66c6df8d3b627c969e198054be96f5126e95b6ac6185ef7feff45d3e215d55e7c7ba87ac00000000"
    }
  ]
}