{
  "hash": "000000009ac2acfcd4bdb56050db189a2efcfa8f81ffa94acadfe10049905cbf",
  "confirmations": 43313,
  "height": 9785,
  "version": 1,
  "versionHex": "00000001",
  "merkleroot": "0d6ec6f40e87b6f9c45836675f735bfec1d0f6b8f326820e958b1d3284a318b7",
  "time": 1238847071,
  "mediantime": 1238843069,
  "nonce": 1690486047,
  "bits": "1d00ffff",
  "difficulty": 1,
  "chainwork": "0000000000000000000000000000000000000000000000000000263a263a263a",
  "nTx": 1,
  "previousblockhash": "0000000016e447db6b826944c678cda4dc1a71af94ff6ff9452281f0677c442f",
  "nextblockhash": "000000007bee3c3f294e6c1b946ebbe85b1878faef0bf0c1e6908a0769d304f5",
  "strippedsize": 215,
  "size": 215,
  "weight": 860,
  "tx": [
    {
      "txid": "0d6ec6f40e87b6f9c45836675f735bfec1d0f6b8f326820e958b1d3284a318b7",
      "hash": "0d6ec6f40e87b6f9c45836675f735bfec1d0f6b8f326820e958b1d3284a318b7",
      "version": 1,
      "size": 134,
      "vsize": 134,
      "weight": 536,
      "locktime": 0,
      "vin": [
        {
          "coinbase": "04ffff001d011d",
          "sequence": 4294967295
        }
      ],
      "vout": [
        {
          "value": 50.0,
          "n": 0,
          "scriptPubKey": {
            "asm": "04ada144d801b363f09b9ea1cb3cef7bb6a2ec60614843db38d9c46c39caf1e9f9bb0ea0a4e34197a0ee3db3d0e882e83aa49f82ae73b36c568bcf30f67480a477 OP_CHECKSIG",
            "desc": "pk(04ada144d801b363f09b9ea1cb3cef7bb6a2ec60614843db38d9c46c39caf1e9f9bb0ea0a4e34197a0ee3db3d0e882e83aa49f82ae73b36c568bcf30f67480a477)#k3ycrhw8",
            "hex": "4104ada144d801b363f09b9ea1cb3cef7bb6a2ec60614843db38d9c46c39caf1e9f9bb0ea0a4e34197a0ee3db3d0e882e83aa49f82ae73b36c568bcf30f67480a477ac",
            "type": "pubkey"
          }
        }
      ],
      "hex": "01000000010000000000000000000000000000000000000000000000000000000000000000ffffffff0704ffff001d011dffffffff0100f2052a01000000434104ada144d801b363f09b9ea1cb3cef7bb6a2ec60614843db38d9c46c39caf1e9f9bb0ea0a4e34197a0ee3db3d0e882e83aa49f82ae73b36c568bcf30f67480a477ac00000000"
    }
  ]
}