{
  "hash": "00000000080472b72cbbd0756553927e2260fa48c580ff4c011282974e74bf3d",
  "confirmations": 50669,
  "height": 2429,
  "version": 1,
  "versionHex": "00000001",
  "merkleroot": "0a9ca2348f0850e24dd89b2ff269593e19ee21039e8fcba4da6d6e080c71b5b0",
  "time": 1233376208,
  "mediantime": 1233372587,
  "nonce": 2945744688,
  "bits": "1d00ffff",
  "difficulty": 1,
  "chainwork": "0000000000000000000000000000000000000000000000000000097e097e097e",
  "nTx": 1,
  "previousblockhash": "00000000f79c2cfa2a60e4730626f58719a6aea20729cca0bcb09b720cfac6ad",
  "nextblockhash": "00000000d0c78f4f45bd0cab892f82dabeb5b6b40a73111dd29b050e32e7c1ad",
  "strippedsize": 215,
  "size": 215,
  "weight": 860,
  "tx": [
    {
      "txid": "0a9ca2348f0850e24dd89b2ff269593e19ee21039e8fcba4da6d6e080c71b5b0",
      "hash": "0a9ca2348f0850e24dd89b2ff269593e19ee21039e8fcba4da6d6e080c71b5b0",
      "version": 1,
      "size": 134,
      "vsize": 134,
      "weight": 536,
      "locktime": 0,
      "vin": [
        {
          "coinbase": "04ffff001d0136",
          "sequence": 4294967295
        }
      ],
      "vout": [
        {
          "value": 50.0,
          "n": 0,
          "scriptPubKey": {
            "asm": "0497690db54e31b95853ca129383087098b78c3708ffbd87a08eb77a7833cded85c5ae1f28df6772b00ca18a21508241debc79d5bf806418e558ae5e916f5cdbe0 OP_CHECKSIG",
            "desc": "pk(0497690db54e31b95853ca129383087098b78c3708ffbd87a08eb77a7833cded85c5ae1f28df6772b00ca18a21508241debc79d5bf806418e558ae5e916f5cdbe0)#yjlnatfs",
            "hex": "410497690db54e31b95853ca129383087098b78c3708ffbd87a08eb77a7833cded85c5ae1f28df6772b00ca18a21508241debc79d5bf806418e558ae5e916f5cdbe0ac",
            "type": "pubkey"
          }
        }
      ],
      "hex": "01000000010000000000000000000000000000000000000000000000000000000000000000ffffffff0704ffff001d0136ffffffff0100f2052a0100000043410497690db54e31b95853ca129383087098b78c3708ffbd87a08eb77a7833cded85c5ae1f28df6772b00ca18a21508241debc79d5bf806418e558ae5e916f5cdbe0ac00000000"
    }
  ]
}