{
  "hash": "00000000089b370bfcd7018fbfc74f0269d4c658c7be88fefbf678202b1ed0ad",
  "confirmations": 51286,
  "height": 1812,
  "version": 1,
  "versionHex": "00000001",
  "merkleroot": "be949098ebbd3d73f7457479767706793f04f3c52960d77ba5ed3eb767531a6b",
  "time": 1232905381,
  "mediantime": 1232902463,
  "nonce": 864398114,
  "bits": "1d00ffff",
  "difficulty": 1,
  "chainwork": "0000000000000000000000000000000000000000000000000000071507150715",
  "nTx": 1,
  "previousblockhash": "00000000e04fb2b1746560fe55b178949972bcccd10d40474138d00f67592115",
  "nextblockhash": "00000000fe2351603896e6e3949ec34bd4abd89af022c8f312b943b542d1f717",
  "strippedsize": 216,
  "size": 216,
  "weight": 864,
  "tx": [
    {
      "txid": "be949098ebbd3d73f7457479767706793f04f3c52960d77ba5ed3eb767531a6b",
      "hash": "be949098ebbd3d73f7457479767706793f04f3c52960d77ba5ed3eb767531a6b",
      "version": 1,
      "size": 135,
      "vsize": 135,
      "weight": 540,
      "locktime": 0,
      "vin": [
        {
          "coinbase": "04ffff001d023a04",
          "sequence": 4294967295
        }
      ],
      "vout": [
        {
          "value": 50.0,
          "n": 0,
          "scriptPubKey": {
            "asm": "048123ab2ba0425a2814ba2c8f2154668804df8b3073d6723a7ca9c9ce49b9cce6ec21761c5e51812021080efabea7cc0adacf7cc2a72c53ab7f727a8f905860fa OP_CHECKSIG",
            "desc": "pk(048123ab2ba0425a2814ba2c8f2154668804df8b3073d6723a7ca9c9ce49b9cce6ec21761c5e51812021080efabea7cc0adacf7cc2a72c53ab7f727a8f905860fa)#5ggz9flq",
            "hex": "41048123ab2ba0425a2814ba2c8f2154668804df8b3073d6723a7ca9c9ce49b9cce6ec21761c5e51812021080efabea7cc0adacf7cc2a72c53ab7f727a8f905860faac",
            "type": "pubkey"
          }
        }
      ],
      "hex": "01000000010000000000000000000000000000000000000000000000000000000000000000ffffffff0804ffff001d023a04ffffffff0100f2052a010000004341048123ab2ba0425a2814ba2c8f2154668804df8b3073d6723a7ca9c9ce49b9cce6ec21761c5e51812021080efabea7cc0adacf7cc2a72c53ab7f727a8f905860faac00000000"
    }
  ]
}