{
  "hash": "000000004e7ee6cf17d87ac72252fc752c2c90301fa5928d38d967877af9e457",
  "confirmations": 46949,
  "height": 6149,
  "version": 1,
  "versionHex": "00000001",
  "merkleroot": "10079b6eb397090e760df4e4fde1d389d49a6fbaa16294a85d6a73aae7b6d410",
  "time": 1236047478,
  "mediantime": 1236044793,
  "nonce": 1628395314,
  "bits": "1d00ffff",
  "difficulty": 1,
  "chainwork": "0000000000000000000000000000000000000000000000000000180618061806",
  "nTx": 1,
  "previousblockhash": "000000000073c2eb2cb4bc5d9d66bbd99353ed34f10576c7b5afc507c91064ef",
  "nextblockhash": "00000000c16d6d41c658e786371d22c808b1fb366408536dcf80398cf38ff9bd",
  "strippedsize": 216,
  "size": 216,
  "weight": 864,
  "tx": [
    {
      "txid": "10079b6eb397090e760df4e4fde1d389d49a6fbaa16294a85d6a73aae7b6d410",
      "hash": "10079b6eb397090e760df4e4fde1d389d49a6fbaa16294a85d6a73aae7b6d410",
      "version": 1,
      "size": 135,
      "vsize": 135,
      "weight": 540,
      "locktime": 0,
      "vin": [
        {
          "coinbase": "04ffff001d02a607",
          "sequence": 4294967295
        }
      ],
      "vout": [
        {
          "value": 50.0,
          "n": 0,
          "scriptPubKey": {
            "asm": "044158a93e9dfbebe77388dadcce5bc379a26dde6a402cdf27099683cee5442892a035b4057dd2b2b51774ddf97d00a324b529b51b8cda798561e0c6b55d6a8753 OP_CHECKSIG",
            "desc": "pk(044158a93e9dfbebe77388dadcce5bc379a26dde6a402cdf27099683cee5442892a035b4057dd2b2b51774ddf97d00a324b529b51b8cda798561e0c6b55d6a8753)#yzuxahq5",
            "hex": "41044158a93e9dfbebe77388dadcce5bc379a26dde6a402cdf27099683cee5442892a035b4057dd2b2b51774ddf97d00a324b529b51b8cda798561e0c6b55d6a8753ac",
            "type": "pubkey"
          }
        }
      ],
      "hex": "01000000010000000000000000000000000000000000000000000000000000000000000000ffffffff0804ffff001d02a607ffffffff0100f2052a010000004341044158a93e9dfbebe77388dadcce5bc379a26dde6a402cdf27099683cee5442892a035b4057dd2b2b51774ddf97d00a324b529b51b8cda798561e0c6b55d6a8753ac00000000"
    }
  ]
}