{
  "hash": "000000001345c8c75cb9b340e9e3aed752ceac79c000353a9e456f545a701b66",
  "confirmations": 44898,
  "height": 8200,
  "version": 1,
  "versionHex": "00000001",
  "merkleroot": "994a92a2dc80607d0eccd493a685f8c53bea22740e2f7c2635ad0277956552fc",
  "time": 1237606174,
  "mediantime": 1237602179,
  "nonce": 3115401502,
  "bits": "1d00ffff",
  "difficulty": 1,
  "chainwork": "0000000000000000000000000000000000000000000000000000200920092009",
  "nTx": 1,
  "previousblockhash": "000000000576037f0b8ed67b95e45879f5d990281f7183df5a9a9b8f749bf100",
  "nextblockhash": "000000004ca8bd5222b4a82cc4817614f67fb4eb487de9cace123bd3bfb13417",
  "strippedsize": 216,
  "size": 216,
  "weight": 864,
  "tx": [
    {
      "txid": "994a92a2dc80607d0eccd493a685f8c53bea22740e2f7c2635ad0277956552fc",
      "hash": "994a92a2dc80607d0eccd493a685f8c53bea22740e2f7c2635ad0277956552fc",
      "version": 1,
      "size": 135,
      "vsize": 135,
      "weight": 540,
      "locktime": 0,
      "vin": [
        {
          "coinbase": "04ffff001d02ce02",
          "sequence": 4294967295
        }
      ],
      "vout": [
        {
          "value": 50.0,
          "n": 0,
          "scriptPubKey": {
            "asm": "048da5d5af0d84bc8b7d762d22e48e27c03ba37d384f6c8a4797a952e00a29b4f4009a10d950cd3798d93466e47bb79feb368846fd3e94541bd912c11e24ba9106 OP_CHECKSIG",
            "desc": "pk(048da5d5af0d84bc8b7d762d22e48e27c03ba37d384f6c8a4797a952e00a29b4f4009a10d950cd3798d93466e47bb79feb368846fd3e94541bd912c11e24ba9106)#v478uazw",
            "hex": "41048da5d5af0d84bc8b7d762d22e48e27c03ba37d384f6c8a4797a952e00a29b4f4009a10d950cd3798d93466e47bb79feb368846fd3e94541bd912c11e24ba9106ac",
            "type": "pubkey"
          }
        }
      ],
      "hex": "01000000010000000000000000000000000000000000000000000000000000000000000000ffffffff0804ffff001d02ce02ffffffff0100f2052a010000004341048da5d5af0d84bc8b7d762d22e48e27c03ba37d384f6c8a4797a952e00a29b4f4009a10d950cd3798d93466e47bb79feb368846fd3e94541bd912c11e24ba9106ac00000000"
    }
  ]
}