{
  "hash": "00000000ae32028b9d10675807a89c14a8dda7017967af3b12a3c0e50de7cfc3",
  "confirmations": 48481,
  "height": 4617,
  "version": 1,
  "versionHex": "00000001",
  "merkleroot": "cc1993600c5d2ea4f09d89db8292ea83a9e2aac13844eb4199459761edea2d57",
  "time": 1234867699,
  "mediantime": 1234862213,
  "nonce": 327830642,
  "bits": "1d00ffff",
  "difficulty": 1,
  "chainwork": "0000000000000000000000000000000000000000000000000000120a120a120a",
  "nTx": 1,
  "previousblockhash": "00000000ef0938336d572b8404382fb7bb0b3ad46b5b665c8c08546c43c77bf6",
  "nextblockhash": "00000000d0eb2b2e6e77dcf561b374e8e2beb30c5c162d3494b5d180921059b8",
  "strippedsize": 215,
  "size": 215,
  "weight": 860,
  "tx": [
    {
      "txid": "cc1993600c5d2ea4f09d89db8292ea83a9e2aac13844eb4199459761edea2d57",
      "hash": "cc1993600c5d2ea4f09d89db8292ea83a9e2aac13844eb4199459761edea2d57",
      "version": 1,
      "size": 134,
      "vsize": 134,
      "weight": 536,
      "locktime": 0,
      "vin": [
        {
          "coinbase": "04ffff001d0157",
          "sequence": 4294967295
        }
      ],
      "vout": [
        {
          "value": 50.0,
          "n": 0,
          "scriptPubKey": {
            "asm": "04879a4cf4e1ea4b2d9007f66a30e67f5753aad2e53cedb90b0973e1556f523bf3e87d4f4445d4630317ba1cfb1bde5cc4bb9d212e5761087f8e8b10923b9bf351 OP_CHECKSIG",
            "desc": "pk(04879a4cf4e1ea4b2d9007f66a30e67f5753aad2e53cedb90b0973e1556f523bf3e87d4f4445d4630317ba1cfb1bde5cc4bb9d212e5761087f8e8b10923b9bf351)#23k9jq2a",
            "hex": "4104879a4cf4e1ea4b2d9007f66a30e67f5753aad2e53cedb90b0973e1556f523bf3e87d4f4445d4630317ba1cfb1bde5cc4bb9d212e5761087f8e8b10923b9bf351ac",
            "type": "pubkey"
          }
        }
      ],
      "hex": "01000000010000000000000000000000000000000000000000000000000000000000000000ffffffff0704ffff001d0157ffffffff0100f2052a01000000434104879a4cf4e1ea4b2d9007f66a30e67f5753aad2e53cedb90b0973e1556f523bf3e87d4f4445d4630317ba1cfb1bde5cc4bb9d212e5761087f8e8b10923b9bf351ac00000000"
    }
  ]
}