{
  "hash": "0000000062bb306418e50588a575dc942bdaa89d3aad7f5f05cf7e5515ea145e",
  "confirmations": 46074,
  "height": 7024,
  "version": 1,
  "versionHex": "00000001",
  "merkleroot": "c8ad63c7f6ffd08b0367893bbf655c235a1e96e365fb70e453fc0f2664ed2f26",
  "time": 1236736771,
  "mediantime": 1236733177,
  "nonce": 3281068858,
  "bits": "1d00ffff",
  "difficulty": 1,
  "chainwork": "00000000000000000000000000000000000000000000000000001b711b711b71",
  "nTx": 1,
  "previousblockhash": "000000002e3b1b61162fc7c08b70b1a9df2c253134b844c046083821930e789b",
  "nextblockhash": "000000003fc7d34950a54c00a42dce0347bca5b7e8dddc355c7e5515689c3a51",
  "strippedsize": 216,
  "size": 216,
  "weight": 864,
  "tx": [
    {
      "txid": "c8ad63c7f6ffd08b0367893bbf655c235a1e96e365fb70e453fc0f2664ed2f26",
      "hash": "c8ad63c7f6ffd08b0367893bbf655c235a1e96e365fb70e453fc0f2664ed2f26",
      "version": 1,
      "size": 135,
      "vsize": 135,
      "weight": 540,
      "locktime": 0,
      "vin": [
        {
          "coinbase": "04ffff001d02cc02",
          "sequence": 4294967295
        }
      ],
      "vout": [
        {
          "value": 50.0,
          "n": 0,
          "scriptPubKey": {
            "asm": "04beb4cc256f6e2a375f1f9176dea9f4bba4ff05e48fd6bfd76fabe6bb6d87bc02e04b12f72d48e2bdfbf7dd674af8d4434d3e8d6ccc9d4f2e522b6211855a986b OP_CHECKSIG",
            "desc": "pk(04beb4cc256f6e2a375f1f9176dea9f4bba4ff05e48fd6bfd76fabe6bb6d87bc02e04b12f72d48e2bdfbf7dd674af8d4434d3e8d6ccc9d4f2e522b6211855a986b)#ewvszwma",
            "hex": "4104beb4cc256f6e2a375f1f9176dea9f4bba4ff05e48fd6bfd76fabe6bb6d87bc02e04b12f72d48e2bdfbf7dd674af8d4434d3e8d6ccc9d4f2e522b6211855a986bac",
            "type": "pubkey"
          }
        }
      ],
      "hex": "01000000010000000000000000000000000000000000000000000000000000000000000000ffffffff0804ffff001d02cc02ffffffff0100f2052a01000000434104beb4cc256f6e2a375f1f9176dea9f4bba4ff05e48fd6bfd76fabe6bb6d87bc02e04b12f72d48e2bdfbf7dd674af8d4434d3e8d6ccc9d4f2e522b6211855a986bac00000000"
    }
  ]
}