{
  "hash": "0000000097bc83678a53348e4908e2dd6822828971f3de8bd011f6d19fd97120",
  "confirmations": 49390,
  "height": 3708,
  "version": 1,
  "versionHex": "00000001",
  "merkleroot": "aa45dead60adae0e8bc2c9d618a48f551b6e50b8c4123f4792f973961afc1ae4",
  "time": 1234238073,
  "mediantime": 1234234024,
  "nonce": 196320278,
  "bits": "1d00ffff",
  "difficulty": 1,
  "chainwork": "00000000000000000000000000000000000000000000000000000e7d0e7d0e7d",
  "nTx": 1,
  "previousblockhash": "00000000692efff77c79410ae0715c121a6cd4f6c69b04acadcb1b5991c8054b",
  "nextblockhash": "0000000042073b28d8cd72071261b3a03a6bc283df9b23512fab140fdc972dd2",
  "strippedsize": 216,
  "size": 216,
  "weight": 864,
  "tx": [
    {
      "txid": "aa45dead60adae0e8bc2c9d618a48f551b6e50b8c4123f4792f973961afc1ae4",
      "hash": "aa45dead60adae0e8bc2c9d618a48f551b6e50b8c4123f4792f973961afc1ae4",
      "version": 1,
      "size": 135,
      "vsize": 135,
      "weight": 540,
      "locktime": 0,
      "vin": [
        {
          "coinbase": "04ffff001d02200a",
          "sequence": 4294967295
        }
      ],
      "vout": [
        {
          "value": 50.0,
          "n": 0,
          "scriptPubKey": {
            "asm": "0492bb8557b92b7c21d97859e20b10d85efed1479f5c795b85b3e67de7d9dad9ea77445a1018c8823c1383aab94d0fc8c81d783343c5df59e327859ed17d0ab5a7 OP_CHECKSIG",
            "desc": "pk(0492bb8557b92b7c21d97859e20b10d85efed1479f5c795b85b3e67de7d9dad9ea77445a1018c8823c1383aab94d0fc8c81d783343c5df59e327859ed17d0ab5a7)#whcydqes",
            "hex": "410492bb8557b92b7c21d97859e20b10d85efed1479f5c795b85b3e67de7d9dad9ea77445a1018c8823c1383aab94d0fc8c81d783343c5df59e327859ed17d0ab5a7ac",
            "type": "pubkey"
          }
        }
      ],
      "hex": "01000000010000000000000000000000000000000000000000000000000000000000000000ffffffff0804ffff001d02200affffffff0100f2052a0100000043410492bb8557b92b7c21d97859e20b10d85efed1479f5c795b85b3e67de7d9dad9ea77445a1018c8823c1383aab94d0fc8c81d783343c5df59e327859ed17d0ab5a7ac00000000"
    }
  ]
}