{
  "hash": "000000005fd79865d6505a93e8f8100cfc51df0d69ac2d644027b129d9c0e3bc",
  "confirmations": 48225,
  "height": 4873,
  "version": 1,
  "versionHex": "00000001",
  "merkleroot": "303f85f6afefd8b2da52e3a8278592b1fcfc1ecd87a0cdcbb6be42a9fd03053a",
  "time": 1235053758,
  "mediantime": 1235050196,
  "nonce": 3362748211,
  "bits": "1d00ffff",
  "difficulty": 1,
  "chainwork": "0000000000000000000000000000000000000000000000000000130a130a130a",
  "nTx": 1,
  "previousblockhash": "00000000a996ec07b801c0f3bc34e05146709802974f6ad3f13b6e24ea6db377",
  "nextblockhash": "00000000c2654030ad4c1f6875560ce2d67e0692f39077027683b45a527c8c80",
  "strippedsize": 216,
  "size": 216,
  "weight": 864,
  "tx": [
    {
      "txid": "303f85f6afefd8b2da52e3a8278592b1fcfc1ecd87a0cdcbb6be42a9fd03053a",
      "hash": "303f85f6afefd8b2da52e3a8278592b1fcfc1ecd87a0cdcbb6be42a9fd03053a",
      "version": 1,
      "size": 135,
      "vsize": 135,
      "weight": 540,
      "locktime": 0,
      "vin": [
        {
          "coinbase": "04ffff001d025a05",
          "sequence": 4294967295
        }
      ],
      "vout": [
        {
          "value": 50.0,
          "n": 0,
          "scriptPubKey": {
            "asm": "04365e8ce6f0c9e6c8c2db8a0e12b2f443b4c4943a73f2ede16403c1898c6aca1e5f795fe76d4801d51189c788cae525eee3b86835b0cdb12d74cee91ad187034d OP_CHECKSIG",
            "desc": "pk(04365e8ce6f0c9e6c8c2db8a0e12b2f443b4c4943a73f2ede16403c1898c6aca1e5f795fe76d4801d51189c788cae525eee3b86835b0cdb12d74cee91ad187034d)#z0n84ftx",
            "hex": "4104365e8ce6f0c9e6c8c2db8a0e12b2f443b4c4943a73f2ede16403c1898c6aca1e5f795fe76d4801d51189c788cae525eee3b86835b0cdb12d74cee91ad187034dac",
            "type": "pubkey"
          }
        }
      ],
      "hex": "01000000010000000000000000000000000000000000000000000000000000000000000000ffffffff0804ffff001d025a05ffffffff0100f2052a01000000434104365e8ce6f0c9e6c8c2db8a0e12b2f443b4c4943a73f2ede16403c1898c6aca1e5f795fe76d4801d51189c788cae525eee3b86835b0cdb12d74cee91ad187034dac00000000"
    }
  ]
}