{
  "hash": "00000000a503c2c6344e711fa2780712b49500c0b35a250b92f40c64544c8b69",
  "confirmations": 44940,
  "height": 8158,
  "version": 1,
  "versionHex": "00000001",
  "merkleroot": "5fc768d278b343abcc0ef8a6125f8471796355c1802617baa9157e67bcd80e9a",
  "time": 1237577592,
  "mediantime": 1237575475,
  "nonce": 3727731460,
  "bits": "1d00ffff",
  "difficulty": 1,
  "chainwork": "00000000000000000000000000000000000000000000000000001fdf1fdf1fdf",
  "nTx": 1,
  "previousblockhash": "0000000005739b3ef37179a3dad62c474f97c442e834f8566384655c3314dd29",
  "nextblockhash": "000000003ce1598e88d1dfe2f6e4b9113dbb881df879d7455517a7260fec26a3",
  "strippedsize": 216,
  "size": 216,
  "weight": 864,
  "tx": [
    {
      "txid": "5fc768d278b343abcc0ef8a6125f8471796355c1802617baa9157e67bcd80e9a",
      "hash": "5fc768d278b343abcc0ef8a6125f8471796355c1802617baa9157e67bcd80e9a",
      "version": 1,
      "size": 135,
      "vsize": 135,
      "weight": 540,
      "locktime": 0,
      "vin": [
        {
          "coinbase": "04ffff001d021d02",
          "sequence": 4294967295
        }
      ],
      "vout": [
        {
          "value": 50.0,
          "n": 0,
          "scriptPubKey": {
            "asm": "04dc4bf7dddd55ef3c2f8436950b76b4e17a5e4c8543698cd956e85525828bacdc50402a79de767a0c4812f795581b56e8681806367af17b5631371ade7fb2f6de OP_CHECKSIG",
            "desc": "pk(04dc4bf7dddd55ef3c2f8436950b76b4e17a5e4c8543698cd956e85525828bacdc50402a79de767a0c4812f795581b56e8681806367af17b5631371ade7fb2f6de)#m74nuf79",
            "hex": "4104dc4bf7dddd55ef3c2f8436950b76b4e17a5e4c8543698cd956e85525828bacdc50402a79de767a0c4812f795581b56e8681806367af17b5631371ade7fb2f6deac",
            "type": "pubkey"
          }
        }
      ],
      "hex": "01000000010000000000000000000000000000000000000000000000000000000000000000ffffffff0804ffff001d021d02ffffffff0100f2052a01000000434104dc4bf7dddd55ef3c2f8436950b76b4e17a5e4c8543698cd956e85525828bacdc50402a79de767a0c4812f795581b56e8681806367af17b5631371ade7fb2f6deac00000000"
    }
  ]
}