{
  "hash": "0000000047560030cea942ff993f9c5464dd6499e7118d189c56ca57a465bcb7",
  "confirmations": 52187,
  "height": 911,
  "version": 1,
  "versionHex": "00000001",
  "merkleroot": "d0c2299abad8c970c945ebb0b7a9c99c184809d16bdb2ee40f08fa10624f28e6",
  "time": 1232285076,
  "mediantime": 1232281585,
  "nonce": 927053101,
  "bits": "1d00ffff",
  "difficulty": 1,
  "chainwork": "0000000000000000000000000000000000000000000000000000039003900390",
  "nTx": 1,
  "previousblockhash": "000000000c26bbb4b7fa0da20e0ba50584547dd324a1b9230533b8a475903873",
  "nextblockhash": "000000003e9034ddb56d81bcdcd618118875ddf6d5786f85cb0ed988fdf7c7d4",
  "strippedsize": 216,
  "size": 216,
  "weight": 864,
  "tx": [
    {
      "txid": "d0c2299abad8c970c945ebb0b7a9c99c184809d16bdb2ee40f08fa10624f28e6",
      "hash": "d0c2299abad8c970c945ebb0b7a9c99c184809d16bdb2ee40f08fa10624f28e6",
      "version": 1,
      "size": 135,
      "vsize": 135,
      "weight": 540,
      "locktime": 0,
      "vin": [
        {
          "coinbase": "04ffff001d02d303",
          "sequence": 4294967295
        }
      ],
      "vout": [
        {
          "value": 50.0,
          "n": 0,
          "scriptPubKey": {
            "asm": "0460f50ab4184a9dc86fb57efcc847a599bcca0f3d5c260fd2d61c259ddc6f6dce5a62cd5dacaaef1efc01d1ec8fdc6221cb4c20262789d729f7dd977aa9d003b5 OP_CHECKSIG",
            "desc": "pk(0460f50ab4184a9dc86fb57efcc847a599bcca0f3d5c260fd2d61c259ddc6f6dce5a62cd5dacaaef1efc01d1ec8fdc6221cb4c20262789d729f7dd977aa9d003b5)#3uhu9w3a",
            "hex": "410460f50ab4184a9dc86fb57efcc847a599bcca0f3d5c260fd2d61c259ddc6f6dce5a62cd5dacaaef1efc01d1ec8fdc6221cb4c20262789d729f7dd977aa9d003b5ac",
            "type": "pubkey"
          }
        }
      ],
      "hex": "01000000010000000000000000000000000000000000000000000000000000000000000000ffffffff0804ffff001d02d303ffffffff0100f2052a0100000043410460f50ab4184a9dc86fb57efcc847a599bcca0f3d5c260fd2d61c259ddc6f6dce5a62cd5dacaaef1efc01d1ec8fdc6221cb4c20262789d729f7dd977aa9d003b5ac00000000"
    }
  ]
}