{
  "hash": "000000000e4523a52ec47847eb7bd92e9d2d2c535decd665807b577e62999b1e",
  "confirmations": 49806,
  "height": 3292,
  "version": 1,
  "versionHex": "00000001",
  "merkleroot": "a1f0ad396b730b6113951092c25cf417a27dbc2e2ec6af1f2879def9a7642ab1",
  "time": 1233965983,
  "mediantime": 1233962857,
  "nonce": 286290454,
  "bits": "1d00ffff",
  "difficulty": 1,
  "chainwork": "00000000000000000000000000000000000000000000000000000cdd0cdd0cdd",
  "nTx": 1,
  "previousblockhash": "0000000010abb476c7bac26a22b8907f0299fa6a1486238b61b47d0370b6259d",
  "nextblockhash": "00000000f93a3117431247c4f24c86cf2085a29117076491dabe022c9d2cb69c",
  "strippedsize": 216,
  "size": 216,
  "weight": 864,
  "tx": [
    {
      "txid": "a1f0ad396b730b6113951092c25cf417a27dbc2e2ec6af1f2879def9a7642ab1",
      "hash": "a1f0ad396b730b6113951092c25cf417a27dbc2e2ec6af1f2879def9a7642ab1",
      "version": 1,
      "size": 135,
      "vsize": 135,
      "weight": 540,
      "locktime": 0,
      "vin": [
        {
          "coinbase": "04ffff001d022404",
          "sequence": 4294967295
        }
      ],
      "vout": [
        {
          "value": 50.0,
          "n": 0,
          "scriptPubKey": {
            "asm": "048b974794764d77186ccc2b0541b0c92d08e015bffdcfa16eb43af2ac1109cd34c52e7fb09ce46e6c4a8bb342ef25d0112da67dee0832adfd672709a68cef239c OP_CHECKSIG",
            "desc": "pk(048b974794764d77186ccc2b0541b0c92d08e015bffdcfa16eb43af2ac1109cd34c52e7fb09ce46e6c4a8bb342ef25d0112da67dee0832adfd672709a68cef239c)#welrewap",
            "hex": "41048b974794764d77186ccc2b0541b0c92d08e015bffdcfa16eb43af2ac1109cd34c52e7fb09ce46e6c4a8bb342ef25d0112da67dee0832adfd672709a68cef239cac",
            "type": "pubkey"
          }
        }
      ],
      "hex": "01000000010000000000000000000000000000000000000000000000000000000000000000ffffffff0804ffff001d022404ffffffff0100f2052a010000004341048b974794764d77186ccc2b0541b0c92d08e015bffdcfa16eb43af2ac1109cd34c52e7fb09ce46e6c4a8bb342ef25d0112da67dee0832adfd672709a68cef239cac00000000"
    }
  ]
}