{
  "hash": "0000000083a06109f41e330f5ccfba3c146cfa37496a821b05aebc7e40fa30d8",
  "confirmations": 50794,
  "height": 2304,
  "version": 1,
  "versionHex": "00000001",
  "merkleroot": "5c28708ea893a361e9c2f76c7510fd230e2fe527c52a1a1eb86c54ca18d13ff6",
  "time": 1233283051,
  "mediantime": 1233278545,
  "nonce": 129818854,
  "bits": "1d00ffff",
  "difficulty": 1,
  "chainwork": "0000000000000000000000000000000000000000000000000000090109010901",
  "nTx": 1,
  "previousblockhash": "0000000034513c8f15e871647ead42a924d597b5c9303e6aea529cf06ad302aa",
  "nextblockhash": "00000000f859605cd1ae6c87a84a9ce862da68db1481c8d508ca4d1b0a35c6a7",
  "strippedsize": 215,
  "size": 215,
  "weight": 860,
  "tx": [
    {
      "txid": "5c28708ea893a361e9c2f76c7510fd230e2fe527c52a1a1eb86c54ca18d13ff6",
      "hash": "5c28708ea893a361e9c2f76c7510fd230e2fe527c52a1a1eb86c54ca18d13ff6",
      "version": 1,
      "size": 134,
      "vsize": 134,
      "weight": 536,
      "locktime": 0,
      "vin": [
        {
          "coinbase": "04ffff001d0129",
          "sequence": 4294967295
        }
      ],
      "vout": [
        {
          "value": 50.0,
          "n": 0,
          "scriptPubKey": {
            "asm": "0429c411f4a3a3f7b2bacc66a08d630ed2fcce15940597cb3328f08283d78605c60757b6ee476da0f706c0da329ddae5c708b7a952716a450797b694a0237d2d4e OP_CHECKSIG",
            "desc": "pk(0429c411f4a3a3f7b2bacc66a08d630ed2fcce15940597cb3328f08283d78605c60757b6ee476da0f706c0da329ddae5c708b7a952716a450797b694a0237d2d4e)#j4g6qypn",
            "hex": "410429c411f4a3a3f7b2bacc66a08d630ed2fcce15940597cb3328f08283d78605c60757b6ee476da0f706c0da329ddae5c708b7a952716a450797b694a0237d2d4eac",
            "type": "pubkey"
          }
        }
      ],
      "hex": "01000000010000000000000000000000000000000000000000000000000000000000000000ffffffff0704ffff001d0129ffffffff0100f2052a0100000043410429c411f4a3a3f7b2bacc66a08d630ed2fcce15940597cb3328f08283d78605c60757b6ee476da0f706c0da329ddae5c708b7a952716a450797b694a0237d2d4eac00000000"
    }
  ]
}