{
  "hash": "0000000012ba043f594c5d02b5726ef408a4798c1bec7ee64a42860232037c3f",
  "confirmations": 47387,
  "height": 5711,
  "version": 1,
  "versionHex": "00000001",
  "merkleroot": "05d50dde677269849d06ba66f9a505cc8c1f035bd9b62dcfba32dc028a7522e5",
  "time": 1235694218,
  "mediantime": 1235690619,
  "nonce": 4090464820,
  "bits": "1d00ffff",
  "difficulty": 1,
  "chainwork": "0000000000000000000000000000000000000000000000000000165016501650",
  "nTx": 1,
  "previousblockhash": "000000000f4a3e27d33ce020c4681a8bdbe02ca4fd3942c274643b5c04438fcd",
  "nextblockhash": "000000003b081994b01ed6693e8f33f6a4cc9a5fd94b9c037743ad9883489c72",
  "strippedsize": 216,
  "size": 216,
  "weight": 864,
  "tx": [
    {
      "txid": "05d50dde677269849d06ba66f9a505cc8c1f035bd9b62dcfba32dc028a7522e5",
      "hash": "05d50dde677269849d06ba66f9a505cc8c1f035bd9b62dcfba32dc028a7522e5",
      "version": 1,
      "size": 135,
      "vsize": 135,
      "weight": 540,
      "locktime": 0,
      "vin": [
        {
          "coinbase": "04ffff001d029b09",
          "sequence": 4294967295
        }
      ],
      "vout": [
        {
          "value": 50.0,
          "n": 0,
          "scriptPubKey": {
            "asm": "042fa53bcb57254c195c6e10ea90256c2be0d1e04c1eb3c41655f912fec386d45e2861b25fab10a7f79d24c7ac85334644afd85737ec10b79d6ab73ab22d8fcfd0 OP_CHECKSIG",
            "desc": "pk(042fa53bcb57254c195c6e10ea90256c2be0d1e04c1eb3c41655f912fec386d45e2861b25fab10a7f79d24c7ac85334644afd85737ec10b79d6ab73ab22d8fcfd0)#fqmu6c2v",
            "hex": "41042fa53bcb57254c195c6e10ea90256c2be0d1e04c1eb3c41655f912fec386d45e2861b25fab10a7f79d24c7ac85334644afd85737ec10b79d6ab73ab22d8fcfd0ac",
            "type": "pubkey"
          }
        }
      ],
      "hex": "01000000010000000000000000000000000000000000000000000000000000000000000000ffffffff0804ffff001d029b09ffffffff0100f2052a010000004341042fa53bcb57254c195c6e10ea90256c2be0d1e04c1eb3c41655f912fec386d45e2861b25fab10a7f79d24c7ac85334644afd85737ec10b79d6ab73ab22d8fcfd0ac00000000"
    }
  ]
}