{
  "hash": "00000000b7cb82fcca840bc45f433c6623b3c5b1ea4eab82961523805ea9c785",
  "confirmations": 44401,
  "height": 8697,
  "version": 1,
  "versionHex": "00000001",
  "merkleroot": "50941aaffb2a2e799713f4893cce8c22a370334e7de4fc3d7f66bef04977b065",
  "time": 1238022344,
  "mediantime": 1238019169,
  "nonce": 2167579429,
  "bits": "1d00ffff",
  "difficulty": 1,
  "chainwork": "000000000000000000000000000000000000000000000000000021fa21fa21fa",
  "nTx": 1,
  "previousblockhash": "00000000b754236eb995c2c9dc249c024249d4ca518336ce5755133f3e526063",
  "nextblockhash": "0000000033788e516f70d29ddb0f78d206daa8dcd695321b8a190cdf890e97e9",
  "strippedsize": 216,
  "size": 216,
  "weight": 864,
  "tx": [
    {
      "txid": "50941aaffb2a2e799713f4893cce8c22a370334e7de4fc3d7f66bef04977b065",
      "hash": "50941aaffb2a2e799713f4893cce8c22a370334e7de4fc3d7f66bef04977b065",
      "version": 1,
      "size": 135,
      "vsize": 135,
      "weight": 540,
      "locktime": 0,
      "vin": [
        {
          "coinbase": "04ffff001d02de00",
          "sequence": 4294967295
        }
      ],
      "vout": [
        {
          "value": 50.0,
          "n": 0,
          "scriptPubKey": {
            "asm": "04e19e749d6f080f12f8dabfa0b44f63b6e203bd2d35cf424b006bb517e6fdca5c872cb5c2d37b4ab029b1392402a5f41715cc1db778afdf55ca8f9e938aa2de78 OP_CHECKSIG",
            "desc": "pk(04e19e749d6f080f12f8dabfa0b44f63b6e203bd2d35cf424b006bb517e6fdca5c872cb5c2d37b4ab029b1392402a5f41715cc1db778afdf55ca8f9e938aa2de78)#2zntc0nn",
            "hex": "4104e19e749d6f080f12f8dabfa0b44f63b6e203bd2d35cf424b006bb517e6fdca5c872cb5c2d37b4ab029b1392402a5f41715cc1db778afdf55ca8f9e938aa2de78ac",
            "type": "pubkey"
          }
        }
      ],
      "hex": "01000000010000000000000000000000000000000000000000000000000000000000000000ffffffff0804ffff001d02de00ffffffff0100f2052a01000000434104e19e749d6f080f12f8dabfa0b44f63b6e203bd2d35cf424b006bb517e6fdca5c872cb5c2d37b4ab029b1392402a5f41715cc1db778afdf55ca8f9e938aa2de78ac00000000"
    }
  ]
}