{
  "hash": "000000006a66ec9eda53cbf62a75b7f5e68fd1c653cba0ba8d22145ccb7e76f8",
  "confirmations": 44273,
  "height": 8825,
  "version": 1,
  "versionHex": "00000001",
  "merkleroot": "938cfd3e11346b8660bdc7df4a5ad6ce3d8b834fb070b8bfe2645fb0200ec2ec",
  "time": 1238116822,
  "mediantime": 1238113259,
  "nonce": 2033897012,
  "bits": "1d00ffff",
  "difficulty": 1,
  "chainwork": "0000000000000000000000000000000000000000000000000000227a227a227a",
  "nTx": 1,
  "previousblockhash": "00000000a10f36c23f35b9a7ce96787accb3e25b1c90c0af84e89a3a605dd872",
  "nextblockhash": "000000009e9dd06f63d361bb5fd473750633d924bd367945189b1b8277d85507",
  "strippedsize": 216,
  "size": 216,
  "weight": 864,
  "tx": [
    {
      "txid": "938cfd3e11346b8660bdc7df4a5ad6ce3d8b834fb070b8bfe2645fb0200ec2ec",
      "hash": "938cfd3e11346b8660bdc7df4a5ad6ce3d8b834fb070b8bfe2645fb0200ec2ec",
      "version": 1,
      "size": 135,
      "vsize": 135,
      "weight": 540,
      "locktime": 0,
      "vin": [
        {
          "coinbase": "04ffff001d023b03",
          "sequence": 4294967295
        }
      ],
      "vout": [
        {
          "value": 50.0,
          "n": 0,
          "scriptPubKey": {
            "asm": "041f1479805731af5fb03338dc46cd3192b8e548ee7ce1362befd47fb7ba199c7e7f3a726e0e43408563f8ab0a39a840125770e5f9b9cc7d9e77d4c6aed696d0e4 OP_CHECKSIG",
            "desc": "pk(041f1479805731af5fb03338dc46cd3192b8e548ee7ce1362befd47fb7ba199c7e7f3a726e0e43408563f8ab0a39a840125770e5f9b9cc7d9e77d4c6aed696d0e4)#2388zs0m",
            "hex": "41041f1479805731af5fb03338dc46cd3192b8e548ee7ce1362befd47fb7ba199c7e7f3a726e0e43408563f8ab0a39a840125770e5f9b9cc7d9e77d4c6aed696d0e4ac",
            "type": "pubkey"
          }
        }
      ],
      "hex": "01000000010000000000000000000000000000000000000000000000000000000000000000ffffffff0804ffff001d023b03ffffffff0100f2052a010000004341041f1479805731af5fb03338dc46cd3192b8e548ee7ce1362befd47fb7ba199c7e7f3a726e0e43408563f8ab0a39a840125770e5f9b9cc7d9e77d4c6aed696d0e4ac00000000"
    }
  ]
}