{
  "hash": "0000000028d4d888fb3a640c08a2aed5b26ccbdefbc78066c71d4e8b4c414fb5",
  "confirmations": 51205,
  "height": 1893,
  "version": 1,
  "versionHex": "00000001",
  "merkleroot": "86424d3a5cc6453e35348f5911d34dd138ccae0c1c2451bcd6175d801a18d3ab",
  "time": 1232941928,
  "mediantime": 1232940072,
  "nonce": 1962001446,
  "bits": "1d00ffff",
  "difficulty": 1,
  "chainwork": "0000000000000000000000000000000000000000000000000000076607660766",
  "nTx": 1,
  "previousblockhash": "000000002a4816882c1c3c88a8f79ac8a5c760dd2f941148e80226024a56d74d",
  "nextblockhash": "0000000039f4e3c30b12723e6084ead7a25110ef172e54a3aa70d7c8904ecd9e",
  "strippedsize": 216,
  "size": 216,
  "weight": 864,
  "tx": [
    {
      "txid": "86424d3a5cc6453e35348f5911d34dd138ccae0c1c2451bcd6175d801a18d3ab",
      "hash": "86424d3a5cc6453e35348f5911d34dd138ccae0c1c2451bcd6175d801a18d3ab",
      "version": 1,
      "size": 135,
      "vsize": 135,
      "weight": 540,
      "locktime": 0,
      "vin": [
        {
          "coinbase": "04ffff001d022905",
          "sequence": 4294967295
        }
      ],
      "vout": [
        {
          "value": 50.0,
          "n": 0,
          "scriptPubKey": {
            "asm": "04db5a72fd3c51af9f42e6586886c60d156aeba0db3722f2babf00b24e16d93eaf5be96bbdec26e2a4f23da22326c6940df6777c68c5f0dde85895ffe162fd26d2 OP_CHECKSIG",
            "desc": "pk(04db5a72fd3c51af9f42e6586886c60d156aeba0db3722f2babf00b24e16d93eaf5be96bbdec26e2a4f23da22326c6940df6777c68c5f0dde85895ffe162fd26d2)#649q46hq",
            "hex": "4104db5a72fd3c51af9f42e6586886c60d156aeba0db3722f2babf00b24e16d93eaf5be96bbdec26e2a4f23da22326c6940df6777c68c5f0dde85895ffe162fd26d2ac",
            "type": "pubkey"
          }
        }
      ],
      "hex": "01000000010000000000000000000000000000000000000000000000000000000000000000ffffffff0804ffff001d022905ffffffff0100f2052a01000000434104db5a72fd3c51af9f42e6586886c60d156aeba0db3722f2babf00b24e16d93eaf5be96bbdec26e2a4f23da22326c6940df6777c68c5f0dde85895ffe162fd26d2ac00000000"
    }
  ]
}