{
  "hash": "00000000244c1b0da1196b989d7557168c5e1b4253f253f2aa8bffd05c7f67b4",
  "confirmations": 52210,
  "height": 491,
  "version": 1,
  "versionHex": "00000001",
  "merkleroot": "c8b60292a8c72eaf7184bc6ed770076527a5960d0647ae9fe896be0c5a1fb2cc",
  "time": 1231962666,
  "mediantime": 1231959366,
  "nonce": 3404162856,
  "bits": "1d00ffff",
  "difficulty": 1,
  "chainwork": "000000000000000000000000000000000000000000000000000001ec01ec01ec",
  "nTx": 1,
  "previousblockhash": "0000000020b23d4bcb733afc7c28ad9eff58e1f8108a15bfd8477cbdcb9bf3a0",
  "nextblockhash": "000000008d9b5010b996bbab558e88e9fe8a8b42751dfcaa79217f9a66642e65",
  "strippedsize": 216,
  "size": 216,
  "weight": 864,
  "tx": [
    {
      "txid": "c8b60292a8c72eaf7184bc6ed770076527a5960d0647ae9fe896be0c5a1fb2cc",
      "hash": "c8b60292a8c72eaf7184bc6ed770076527a5960d0647ae9fe896be0c5a1fb2cc",
      "version": 1,
      "size": 135,
      "vsize": 135,
      "weight": 540,
      "locktime": 0,
      "vin": [
        {
          "coinbase": "04ffff001d025d04",
          "sequence": 4294967295
        }
      ],
      "vout": [
        {
          "value": 50.0,
          "n": 0,
          "scriptPubKey": {
            "asm": "047118530288ca30821cb0f4f9b37cb8ad80ee18503de06ec5b8440457e19b94b53282341bb13311dc911fa9759b859246c6bfa4dcf661065b2a60c1e0e9004079 OP_CHECKSIG",
            "desc": "pk(047118530288ca30821cb0f4f9b37cb8ad80ee18503de06ec5b8440457e19b94b53282341bb13311dc911fa9759b859246c6bfa4dcf661065b2a60c1e0e9004079)#tleu3gg4",
            "hex": "41047118530288ca30821cb0f4f9b37cb8ad80ee18503de06ec5b8440457e19b94b53282341bb13311dc911fa9759b859246c6bfa4dcf661065b2a60c1e0e9004079ac",
            "type": "pubkey"
          }
        }
      ],
      "hex": "01000000010000000000000000000000000000000000000000000000000000000000000000ffffffff0804ffff001d025d04ffffffff0100f2052a010000004341047118530288ca30821cb0f4f9b37cb8ad80ee18503de06ec5b8440457e19b94b53282341bb13311dc911fa9759b859246c6bfa4dcf661065b2a60c1e0e9004079ac00000000"
    }
  ]
}