{
  "hash": "00000000b34ff50a225ae6d5a127ae5a8ad8f3c96a0a3a3bdb41976b8a2eb450",
  "confirmations": 43663,
  "height": 9435,
  "version": 1,
  "versionHex": "00000001",
  "merkleroot": "6d61ab5d558382ebd9749e29223eda80d51e8f38f96ec3a4236e91ce87be3a2f",
  "time": 1238581506,
  "mediantime": 1238576917,
  "nonce": 2143389981,
  "bits": "1d00ffff",
  "difficulty": 1,
  "chainwork": "000000000000000000000000000000000000000000000000000024dc24dc24dc",
  "nTx": 1,
  "previousblockhash": "0000000045afd708ddcc88a12ff8f843a462dd0ab6dda3ae3846e07a24aa3470",
  "nextblockhash": "00000000f7ff777cab5df46c0c7121b09254aa85f10e92fac0472e12f92487ee",
  "strippedsize": 216,
  "size": 216,
  "weight": 864,
  "tx": [
    {
      "txid": "6d61ab5d558382ebd9749e29223eda80d51e8f38f96ec3a4236e91ce87be3a2f",
      "hash": "6d61ab5d558382ebd9749e29223eda80d51e8f38f96ec3a4236e91ce87be3a2f",
      "version": 1,
      "size": 135,
      "vsize": 135,
      "weight": 540,
      "locktime": 0,
      "vin": [
        {
          "coinbase": "04ffff001d025704",
          "sequence": 4294967295
        }
      ],
      "vout": [
        {
          "value": 50.0,
          "n": 0,
          "scriptPubKey": {
            "asm": "04e478f12b624915b526350fa3b7d4f7639200864cdc1dec8555a92996da3d973a8c39f84353564a6e9241020f88f268dcd345816e6282d4075b836b3d878f7583 OP_CHECKSIG",
            "desc": "pk(04e478f12b624915b526350fa3b7d4f7639200864cdc1dec8555a92996da3d973a8c39f84353564a6e9241020f88f268dcd345816e6282d4075b836b3d878f7583)#h8rf4976",
            "hex": "4104e478f12b624915b526350fa3b7d4f7639200864cdc1dec8555a92996da3d973a8c39f84353564a6e9241020f88f268dcd345816e6282d4075b836b3d878f7583ac",
            "type": "pubkey"
          }
        }
      ],
      "hex": "01000000010000000000000000000000000000000000000000000000000000000000000000ffffffff0804ffff001d025704ffffffff0100f2052a01000000434104e478f12b624915b526350fa3b7d4f7639200864cdc1dec8555a92996da3d973a8c39f84353564a6e9241020f88f268dcd345816e6282d4075b836b3d878f7583ac00000000"
    }
  ]
}