{
  "hash": "00000000aa73dd78c5969494dec670aa8ec157824d76020561677e9aeb7f5c09",
  "confirmations": 51390,
  "height": 1708,
  "version": 1,
  "versionHex": "00000001",
  "merkleroot": "bd3f181e9d12d1e8c368f6fcbc373e1fa2fb649f23a551030cbb6d74a84ea9e3",
  "time": 1232856752,
  "mediantime": 1232854459,
  "nonce": 1497620508,
  "bits": "1d00ffff",
  "difficulty": 1,
  "chainwork": "000000000000000000000000000000000000000000000000000006ad06ad06ad",
  "nTx": 1,
  "previousblockhash": "00000000df67a210f1360326b96370b21e2a7cab85d21c006ed78e8b8f8be6f6",
  "nextblockhash": "0000000016532fc35ddfa019d8c1843f9de6a396c81d29f5186f2e5540e0bee5",
  "strippedsize": 216,
  "size": 216,
  "weight": 864,
  "tx": [
    {
      "txid": "bd3f181e9d12d1e8c368f6fcbc373e1fa2fb649f23a551030cbb6d74a84ea9e3",
      "hash": "bd3f181e9d12d1e8c368f6fcbc373e1fa2fb649f23a551030cbb6d74a84ea9e3",
      "version": 1,
      "size": 135,
      "vsize": 135,
      "weight": 540,
      "locktime": 0,
      "vin": [
        {
          "coinbase": "04ffff001d022403",
          "sequence": 4294967295
        }
      ],
      "vout": [
        {
          "value": 50.0,
          "n": 0,
          "scriptPubKey": {
            "asm": "04aa433a23cddd3c0d5ea3720974d777ee9285fda83301ad43415121779475792dbbb68765a100091f20dc5ec9f69012e261b513ed8c8a24e6a8d58d246212ffc5 OP_CHECKSIG",
            "desc": "pk(04aa433a23cddd3c0d5ea3720974d777ee9285fda83301ad43415121779475792dbbb68765a100091f20dc5ec9f69012e261b513ed8c8a24e6a8d58d246212ffc5)#22g0yrtr",
            "hex": "4104aa433a23cddd3c0d5ea3720974d777ee9285fda83301ad43415121779475792dbbb68765a100091f20dc5ec9f69012e261b513ed8c8a24e6a8d58d246212ffc5ac",
            "type": "pubkey"
          }
        }
      ],
      "hex": "01000000010000000000000000000000000000000000000000000000000000000000000000ffffffff0804ffff001d022403ffffffff0100f2052a01000000434104aa433a23cddd3c0d5ea3720974d777ee9285fda83301ad43415121779475792dbbb68765a100091f20dc5ec9f69012e261b513ed8c8a24e6a8d58d246212ffc5ac00000000"
    }
  ]
}