{
  "hash": "00000000c7b984d0429b8e9ffa044a776932944d3761eedee5d8b7bedb7a1eb7",
  "confirmations": 51113,
  "height": 1985,
  "version": 1,
  "versionHex": "00000001",
  "merkleroot": "a58d2d625ab73b0c11efc6c745d93333c86220714b951fcc6d494c57c25b6850",
  "time": 1233033868,
  "mediantime": 1233030130,
  "nonce": 3848506658,
  "bits": "1d00ffff",
  "difficulty": 1,
  "chainwork": "000000000000000000000000000000000000000000000000000007c207c207c2",
  "nTx": 1,
  "previousblockhash": "00000000d46ffd1af121ae116adaba61d44fbb8ce96d75143016583052715b33",
  "nextblockhash": "0000000000243dfaef0a3b85c3b9c13c958ce6bed9fd4cb154c1df109c1ef884",
  "strippedsize": 216,
  "size": 216,
  "weight": 864,
  "tx": [
    {
      "txid": "a58d2d625ab73b0c11efc6c745d93333c86220714b951fcc6d494c57c25b6850",
      "hash": "a58d2d625ab73b0c11efc6c745d93333c86220714b951fcc6d494c57c25b6850",
      "version": 1,
      "size": 135,
      "vsize": 135,
      "weight": 540,
      "locktime": 0,
      "vin": [
        {
          "coinbase": "04ffff001d023e01",
          "sequence": 4294967295
        }
      ],
      "vout": [
        {
          "value": 50.0,
          "n": 0,
          "scriptPubKey": {
            "asm": "0455ee32661becf2d2b7e548f2ce4ef3f65d61bdbd1bef08dd884464dd0ed49176b9b89613f1baea9af2eec815a02f6eeb5057e434628a9130ec53c8afeab87a15 OP_CHECKSIG",
            "desc": "pk(0455ee32661becf2d2b7e548f2ce4ef3f65d61bdbd1bef08dd884464dd0ed49176b9b89613f1baea9af2eec815a02f6eeb5057e434628a9130ec53c8afeab87a15)#r87a4why",
            "hex": "410455ee32661becf2d2b7e548f2ce4ef3f65d61bdbd1bef08dd884464dd0ed49176b9b89613f1baea9af2eec815a02f6eeb5057e434628a9130ec53c8afeab87a15ac",
            "type": "pubkey"
          }
        }
      ],
      "hex": "01000000010000000000000000000000000000000000000000000000000000000000000000ffffffff0804ffff001d023e01ffffffff0100f2052a0100000043410455ee32661becf2d2b7e548f2ce4ef3f65d61bdbd1bef08dd884464dd0ed49176b9b89613f1baea9af2eec815a02f6eeb5057e434628a9130ec53c8afeab87a15ac00000000"
    }
  ]
}