{
  "hash": "000000008c4957b279bbc5b8800ae5648997db103449622177fe9f714348ddb0",
  "confirmations": 47730,
  "height": 5368,
  "version": 1,
  "versionHex": "00000001",
  "merkleroot": "b41d54db9aa4ce2f71d7a9c710593ca0cf7f08d7e1a80d5110c2164960c8ec2c",
  "time": 1235416245,
  "mediantime": 1235413579,
  "nonce": 88203182,
  "bits": "1d00ffff",
  "difficulty": 1,
  "chainwork": "000000000000000000000000000000000000000000000000000014f914f914f9",
  "nTx": 1,
  "previousblockhash": "00000000391700d5323c35f28695aaf8faa3b3c3c6fc22e4385623a3cd1f1e35",
  "nextblockhash": "0000000096fded8ab52ba7f6286358b8853568210d2e1cd103b575d260dfad48",
  "strippedsize": 216,
  "size": 216,
  "weight": 864,
  "tx": [
    {
      "txid": "b41d54db9aa4ce2f71d7a9c710593ca0cf7f08d7e1a80d5110c2164960c8ec2c",
      "hash": "b41d54db9aa4ce2f71d7a9c710593ca0cf7f08d7e1a80d5110c2164960c8ec2c",
      "version": 1,
      "size": 135,
      "vsize": 135,
      "weight": 540,
      "locktime": 0,
      "vin": [
        {
          "coinbase": "04ffff001d02bb06",
          "sequence": 4294967295
        }
      ],
      "vout": [
        {
          "value": 50.0,
          "n": 0,
          "scriptPubKey": {
            "asm": "043a566643d83cd4bcbb0b2e0162ce2b10d8bc354eb310678108cae7d4d3a47c5e38e46a399f766c5af82189da39fabc5fdcc88dc9d5d838e27e9b63fe13a2788c OP_CHECKSIG",
            "desc": "pk(043a566643d83cd4bcbb0b2e0162ce2b10d8bc354eb310678108cae7d4d3a47c5e38e46a399f766c5af82189da39fabc5fdcc88dc9d5d838e27e9b63fe13a2788c)#3rfz8mnj",
            "hex": "41043a566643d83cd4bcbb0b2e0162ce2b10d8bc354eb310678108cae7d4d3a47c5e38e46a399f766c5af82189da39fabc5fdcc88dc9d5d838e27e9b63fe13a2788cac",
            "type": "pubkey"
          }
        }
      ],
      "hex": "01000000010000000000000000000000000000000000000000000000000000000000000000ffffffff0804ffff001d02bb06ffffffff0100f2052a010000004341043a566643d83cd4bcbb0b2e0162ce2b10d8bc354eb310678108cae7d4d3a47c5e38e46a399f766c5af82189da39fabc5fdcc88dc9d5d838e27e9b63fe13a2788cac00000000"
    }
  ]
}