{
  "hash": "00000000f2eafaea8cd71855ad7ca21ada8c0e881cf16d9cd505fbd826655ace",
  "confirmations": 47824,
  "height": 5274,
  "version": 1,
  "versionHex": "00000001",
  "merkleroot": "6921978b71cf1141fbb61ab23e550c2248d95dd9b41d6e70579af321e66649f7",
  "time": 1235341081,
  "mediantime": 1235337419,
  "nonce": 1287250738,
  "bits": "1d00ffff",
  "difficulty": 1,
  "chainwork": "0000000000000000000000000000000000000000000000000000149b149b149b",
  "nTx": 1,
  "previousblockhash": "000000005bef32962166bb02025ce41132d5cbe5a80c5d53c45b3fb45814fd06",
  "nextblockhash": "0000000037a08f8c588abe7b15e7af8f57446d78c4c72f1332b34d645502ec42",
  "strippedsize": 216,
  "size": 216,
  "weight": 864,
  "tx": [
    {
      "txid": "6921978b71cf1141fbb61ab23e550c2248d95dd9b41d6e70579af321e66649f7",
      "hash": "6921978b71cf1141fbb61ab23e550c2248d95dd9b41d6e70579af321e66649f7",
      "version": 1,
      "size": 135,
      "vsize": 135,
      "weight": 540,
      "locktime": 0,
      "vin": [
        {
          "coinbase": "04ffff001d02ab01",
          "sequence": 4294967295
        }
      ],
      "vout": [
        {
          "value": 50.0,
          "n": 0,
          "scriptPubKey": {
            "asm": "045cbd73021b56dde316ec639846032236aa4d6be1c2c6193a6a715cd2729b0518e21fe5cdb041ab290c4a866bc835ea85eca286318b4dcfd8cc403c0c696ad7de OP_CHECKSIG",
            "desc": "pk(045cbd73021b56dde316ec639846032236aa4d6be1c2c6193a6a715cd2729b0518e21fe5cdb041ab290c4a866bc835ea85eca286318b4dcfd8cc403c0c696ad7de)#xsfsp4qm",
            "hex": "41045cbd73021b56dde316ec639846032236aa4d6be1c2c6193a6a715cd2729b0518e21fe5cdb041ab290c4a866bc835ea85eca286318b4dcfd8cc403c0c696ad7deac",
            "type": "pubkey"
          }
        }
      ],
      "hex": "01000000010000000000000000000000000000000000000000000000000000000000000000ffffffff0804ffff001d02ab01ffffffff0100f2052a010000004341045cbd73021b56dde316ec639846032236aa4d6be1c2c6193a6a715cd2729b0518e21fe5cdb041ab290c4a866bc835ea85eca286318b4dcfd8cc403c0c696ad7deac00000000"
    }
  ]
}