{
  "hash": "000000005f5b22b1c1b20e29574119e78688a9df93a9bd6c6a0b245beedec829",
  "confirmations": 44513,
  "height": 8585,
  "version": 1,
  "versionHex": "00000001",
  "merkleroot": "d884376fd4b79c7030833020cb96ef4c59bcf041ee47d24bfd72449cc6443668",
  "time": 1237939311,
  "mediantime": 1237935073,
  "nonce": 463072811,
  "bits": "1d00ffff",
  "difficulty": 1,
  "chainwork": "0000000000000000000000000000000000000000000000000000218a218a218a",
  "nTx": 1,
  "previousblockhash": "000000009a8465e149a54f6157f1ccfe8cc00a30adbb4ce071b8527d24e4bd9a",
  "nextblockhash": "00000000c70c3b752e4ed753bee79e8426a3a7873b5d540538cf64fd55d60151",
  "strippedsize": 216,
  "size": 216,
  "weight": 864,
  "tx": [
    {
      "txid": "d884376fd4b79c7030833020cb96ef4c59bcf041ee47d24bfd72449cc6443668",
      "hash": "d884376fd4b79c7030833020cb96ef4c59bcf041ee47d24bfd72449cc6443668",
      "version": 1,
      "size": 135,
      "vsize": 135,
      "weight": 540,
      "locktime": 0,
      "vin": [
        {
          "coinbase": "04ffff001d025e09",
          "sequence": 4294967295
        }
      ],
      "vout": [
        {
          "value": 50.0,
          "n": 0,
          "scriptPubKey": {
            "asm": "0499dd14123277bb4b5490d74f05868811b60369449961e13acb6f107493468c57f4afb041da39ed78d5e755921ffe6fe303a0c58f1b6cd40b339a4263ee3f9586 OP_CHECKSIG",
            "desc": "pk(0499dd14123277bb4b5490d74f05868811b60369449961e13acb6f107493468c57f4afb041da39ed78d5e755921ffe6fe303a0c58f1b6cd40b339a4263ee3f9586)#gy6j7kr5",
            "hex": "410499dd14123277bb4b5490d74f05868811b60369449961e13acb6f107493468c57f4afb041da39ed78d5e755921ffe6fe303a0c58f1b6cd40b339a4263ee3f9586ac",
            "type": "pubkey"
          }
        }
      ],
      "hex": "01000000010000000000000000000000000000000000000000000000000000000000000000ffffffff0804ffff001d025e09ffffffff0100f2052a0100000043410499dd14123277bb4b5490d74f05868811b60369449961e13acb6f107493468c57f4afb041da39ed78d5e755921ffe6fe303a0c58f1b6cd40b339a4263ee3f9586ac00000000"
    }
  ]
}