{
  "hash": "0000000062647806b0de1da5f10db997519766bad88687d5d5cea30131dc96cc",
  "confirmations": 46369,
  "height": 6729,
  "version": 1,
  "versionHex": "00000001",
  "merkleroot": "26c80f47d071238448bb3451d1a337bdd11075b1e2e6df7d33f7344d2ca47ed0",
  "time": 1236502731,
  "mediantime": 1236500247,
  "nonce": 932392451,
  "bits": "1d00ffff",
  "difficulty": 1,
  "chainwork": "00000000000000000000000000000000000000000000000000001a4a1a4a1a4a",
  "nTx": 1,
  "previousblockhash": "0000000002a8f6cbc349bfb28cf89c268e11aa9b416c88e0ac7e68a0f99c7935",
  "nextblockhash": "000000006ceff3c5dd4052fd63d58e80c069d41beed962d91cbd8452358dfcbc",
  "strippedsize": 216,
  "size": 216,
  "weight": 864,
  "tx": [
    {
      "txid": "26c80f47d071238448bb3451d1a337bdd11075b1e2e6df7d33f7344d2ca47ed0",
      "hash": "26c80f47d071238448bb3451d1a337bdd11075b1e2e6df7d33f7344d2ca47ed0",
      "version": 1,
      "size": 135,
      "vsize": 135,
      "weight": 540,
      "locktime": 0,
      "vin": [
        {
          "coinbase": "04ffff001d028307",
          "sequence": 4294967295
        }
      ],
      "vout": [
        {
          "value": 50.0,
          "n": 0,
          "scriptPubKey": {
            "asm": "04f90270dac59af333c89e4ad47a10d8bc91b291f83e994bbdb9b8701c7dc8226555dcc66b57518cd99e1a525b6260b36b9c9571ca531b2f32f53b5b384116ea5f OP_CHECKSIG",
            "desc": "pk(04f90270dac59af333c89e4ad47a10d8bc91b291f83e994bbdb9b8701c7dc8226555dcc66b57518cd99e1a525b6260b36b9c9571ca531b2f32f53b5b384116ea5f)#9fcx07j4",
            "hex": "4104f90270dac59af333c89e4ad47a10d8bc91b291f83e994bbdb9b8701c7dc8226555dcc66b57518cd99e1a525b6260b36b9c9571ca531b2f32f53b5b384116ea5fac",
            "type": "pubkey"
          }
        }
      ],
      "hex": "01000000010000000000000000000000000000000000000000000000000000000000000000ffffffff0804ffff001d028307ffffffff0100f2052a01000000434104f90270dac59af333c89e4ad47a10d8bc91b291f83e994bbdb9b8701c7dc8226555dcc66b57518cd99e1a525b6260b36b9c9571ca531b2f32f53b5b384116ea5fac00000000"
    }
  ]
}