{
  "hash": "000000003a3cf35ae842a1ec066d2ee285c22a32f48c442ec58e1e31d312bdd7",
  "confirmations": 45712,
  "height": 7386,
  "version": 1,
  "versionHex": "00000001",
  "merkleroot": "081ba9f5f8266b2e6945bc55ed317128ba96e5db24baa31f390047c334ac143c",
  "time": 1237009805,
  "mediantime": 1237006716,
  "nonce": 3020352556,
  "bits": "1d00ffff",
  "difficulty": 1,
  "chainwork": "00000000000000000000000000000000000000000000000000001cdb1cdb1cdb",
  "nTx": 1,
  "previousblockhash": "0000000022ecd1312d96138b3c1c721a6a88fe2b3c68edd76006cdde65d44872",
  "nextblockhash": "00000000524557572e1f396e9c54c44bf7183c7c84d9286407ce823a994e8406",
  "strippedsize": 216,
  "size": 216,
  "weight": 864,
  "tx": [
    {
      "txid": "081ba9f5f8266b2e6945bc55ed317128ba96e5db24baa31f390047c334ac143c",
      "hash": "081ba9f5f8266b2e6945bc55ed317128ba96e5db24baa31f390047c334ac143c",
      "version": 1,
      "size": 135,
      "vsize": 135,
      "weight": 540,
      "locktime": 0,
      "vin": [
        {
          "coinbase": "04ffff001d021609",
          "sequence": 4294967295
        }
      ],
      "vout": [
        {
          "value": 50.0,
          "n": 0,
          "scriptPubKey": {
            "asm": "041769777e04b781ca1464fd9fbb9fa8dff325a94a9355d6ef255027014648ce0a8adbde73be019ae55820d2ecd9247b92fd758718dbcfb70460b10372d2c7fbd4 OP_CHECKSIG",
            "desc": "pk(041769777e04b781ca1464fd9fbb9fa8dff325a94a9355d6ef255027014648ce0a8adbde73be019ae55820d2ecd9247b92fd758718dbcfb70460b10372d2c7fbd4)#0xflk8en",
            "hex": "41041769777e04b781ca1464fd9fbb9fa8dff325a94a9355d6ef255027014648ce0a8adbde73be019ae55820d2ecd9247b92fd758718dbcfb70460b10372d2c7fbd4ac",
            "type": "pubkey"
          }
        }
      ],
      "hex": "01000000010000000000000000000000000000000000000000000000000000000000000000ffffffff0804ffff001d021609ffffffff0100f2052a010000004341041769777e04b781ca1464fd9fbb9fa8dff325a94a9355d6ef255027014648ce0a8adbde73be019ae55820d2ecd9247b92fd758718dbcfb70460b10372d2c7fbd4ac00000000"
    }
  ]
}