{
  "hash": "00000000c00b0ed1b46c6fcd608e0b2e84bbc39b9938c4f2673f9e5744f4accf",
  "confirmations": 49645,
  "height": 3453,
  "version": 1,
  "versionHex": "00000001",
  "merkleroot": "67610aeb7fc8aaed94a7860f18ca2b46698baca958daa842e62fa6ba87d407da",
  "time": 1234073323,
  "mediantime": 1234070482,
  "nonce": 885917730,
  "bits": "1d00ffff",
  "difficulty": 1,
  "chainwork": "00000000000000000000000000000000000000000000000000000d7e0d7e0d7e",
  "nTx": 1,
  "previousblockhash": "0000000033e9bc3c26cfadf05288fd4f1922e1a526f297dd739735bc9bc47a49",
  "nextblockhash": "00000000325432f3ae3182ff4231e2e4ad183b9babf9c843385dadc8c3e75096",
  "strippedsize": 216,
  "size": 216,
  "weight": 864,
  "tx": [
    {
      "txid": "67610aeb7fc8aaed94a7860f18ca2b46698baca958daa842e62fa6ba87d407da",
      "hash": "67610aeb7fc8aaed94a7860f18ca2b46698baca958daa842e62fa6ba87d407da",
      "version": 1,
      "size": 135,
      "vsize": 135,
      "weight": 540,
      "locktime": 0,
      "vin": [
        {
          "coinbase": "04ffff001d025306",
          "sequence": 4294967295
        }
      ],
      "vout": [
        {
          "value": 50.0,
          "n": 0,
          "scriptPubKey": {
            "asm": "0437a16f241af73db13bd9bdee898047a18c38abade0f61b5ea9a71680d53b2485f4cd633384ed33072163959fccc9afd169313f300ad6d7aa56ebab51a0f85307 OP_CHECKSIG",
            "desc": "pk(0437a16f241af73db13bd9bdee898047a18c38abade0f61b5ea9a71680d53b2485f4cd633384ed33072163959fccc9afd169313f300ad6d7aa56ebab51a0f85307)#tcsslk57",
            "hex": "410437a16f241af73db13bd9bdee898047a18c38abade0f61b5ea9a71680d53b2485f4cd633384ed33072163959fccc9afd169313f300ad6d7aa56ebab51a0f85307ac",
            "type": "pubkey"
          }
        }
      ],
      "hex": "01000000010000000000000000000000000000000000000000000000000000000000000000ffffffff0804ffff001d025306ffffffff0100f2052a0100000043410437a16f241af73db13bd9bdee898047a18c38abade0f61b5ea9a71680d53b2485f4cd633384ed33072163959fccc9afd169313f300ad6d7aa56ebab51a0f85307ac00000000"
    }
  ]
}