{
  "hash": "00000000923fedf5838df2d0813d7b3131e3261ba0c5194c123ef1b6eebbaa20",
  "confirmations": 46629,
  "height": 6469,
  "version": 1,
  "versionHex": "00000001",
  "merkleroot": "89c985cd95d295d31029e4795615c867dba3a012e6d20294d95b82f0d4e4fb88",
  "time": 1236306517,
  "mediantime": 1236302091,
  "nonce": 1664329262,
  "bits": "1d00ffff",
  "difficulty": 1,
  "chainwork": "0000000000000000000000000000000000000000000000000000194619461946",
  "nTx": 1,
  "previousblockhash": "0000000037cf5a77ed3dd54ff1df8c0a8e4c041b644809debbffe04cdaabf74f",
  "nextblockhash": "0000000032428f2545047f6e32b40ad6df7a96b2feb287467aa20013b2790f8d",
  "strippedsize": 216,
  "size": 216,
  "weight": 864,
  "tx": [
    {
      "txid": "89c985cd95d295d31029e4795615c867dba3a012e6d20294d95b82f0d4e4fb88",
      "hash": "89c985cd95d295d31029e4795615c867dba3a012e6d20294d95b82f0d4e4fb88",
      "version": 1,
      "size": 135,
      "vsize": 135,
      "weight": 540,
      "locktime": 0,
      "vin": [
        {
          "coinbase": "04ffff001d02d402",
          "sequence": 4294967295
        }
      ],
      "vout": [
        {
          "value": 50.0,
          "n": 0,
          "scriptPubKey": {
            "asm": "04e624762791b784859dd571c1c8f2c962b92b7d4495bcfd3d62a92ef816f5122f4ae43a9aba8b8cb1dfb77a87d410be11c0aee641021f33797b30f4e7b873339c OP_CHECKSIG",
            "desc": "pk(04e624762791b784859dd571c1c8f2c962b92b7d4495bcfd3d62a92ef816f5122f4ae43a9aba8b8cb1dfb77a87d410be11c0aee641021f33797b30f4e7b873339c)#kmed9h4u",
            "hex": "4104e624762791b784859dd571c1c8f2c962b92b7d4495bcfd3d62a92ef816f5122f4ae43a9aba8b8cb1dfb77a87d410be11c0aee641021f33797b30f4e7b873339cac",
            "type": "pubkey"
          }
        }
      ],
      "hex": "01000000010000000000000000000000000000000000000000000000000000000000000000ffffffff0804ffff001d02d402ffffffff0100f2052a01000000434104e624762791b784859dd571c1c8f2c962b92b7d4495bcfd3d62a92ef816f5122f4ae43a9aba8b8cb1dfb77a87d410be11c0aee641021f33797b30f4e7b873339cac00000000"
    }
  ]
}