{
  "hash": "00000000bf5e73ae585023f0b2a7a376f086af52744fe3b0fab79028757e6e4d",
  "confirmations": 44304,
  "height": 8794,
  "version": 1,
  "versionHex": "00000001",
  "merkleroot": "27435fee6c3587dfabf5f4432d988ca957b4f437c07196316fc9e576af4c6d89",
  "time": 1238096872,
  "mediantime": 1238092673,
  "nonce": 141030288,
  "bits": "1d00ffff",
  "difficulty": 1,
  "chainwork": "0000000000000000000000000000000000000000000000000000225b225b225b",
  "nTx": 1,
  "previousblockhash": "00000000b51d2b9f5faa149787d633d4c257c2c4af5903e07fcd7734683ebf34",
  "nextblockhash": "0000000056270ab7155404ee7f57f6252d20c1a1a479888dcad96a962528151b",
  "strippedsize": 216,
  "size": 216,
  "weight": 864,
  "tx": [
    {
      "txid": "27435fee6c3587dfabf5f4432d988ca957b4f437c07196316fc9e576af4c6d89",
      "hash": "27435fee6c3587dfabf5f4432d988ca957b4f437c07196316fc9e576af4c6d89",
      "version": 1,
      "size": 135,
      "vsize": 135,
      "weight": 540,
      "locktime": 0,
      "vin": [
        {
          "coinbase": "04ffff001d021d03",
          "sequence": 4294967295
        }
      ],
      "vout": [
        {
          "value": 50.0,
          "n": 0,
          "scriptPubKey": {
            "asm": "041fddd08d8e4a5ea016b1543a99bbc92b3ecf7599af1b36f825964f370c6f02d02c723433b0f88555077568b92df6c4b78d52bb783a8cd93a9f3a117dfb3b189e OP_CHECKSIG",
            "desc": "pk(041fddd08d8e4a5ea016b1543a99bbc92b3ecf7599af1b36f825964f370c6f02d02c723433b0f88555077568b92df6c4b78d52bb783a8cd93a9f3a117dfb3b189e)#6ct8wehs",
            "hex": "41041fddd08d8e4a5ea016b1543a99bbc92b3ecf7599af1b36f825964f370c6f02d02c723433b0f88555077568b92df6c4b78d52bb783a8cd93a9f3a117dfb3b189eac",
            "type": "pubkey"
          }
        }
      ],
      "hex": "01000000010000000000000000000000000000000000000000000000000000000000000000ffffffff0804ffff001d021d03ffffffff0100f2052a010000004341041fddd08d8e4a5ea016b1543a99bbc92b3ecf7599af1b36f825964f370c6f02d02c723433b0f88555077568b92df6c4b78d52bb783a8cd93a9f3a117dfb3b189eac00000000"
    }
  ]
}