{
  "hash": "00000000d62541570fc319e4496fec3961a06be293cf2f504f57ec7b9466f07a",
  "confirmations": 44092,
  "height": 9006,
  "version": 1,
  "versionHex": "00000001",
  "merkleroot": "63e172470eee3c9bbe898f2321b525cc73d0f5cb0404e26271463b0243636763",
  "time": 1238256409,
  "mediantime": 1238253365,
  "nonce": 66015765,
  "bits": "1d00ffff",
  "difficulty": 1,
  "chainwork": "0000000000000000000000000000000000000000000000000000232f232f232f",
  "nTx": 4,
  "previousblockhash": "0000000084c854eb834d7b51d570cf00b6c5d95c5bdd031fb9649d60be10357f",
  "nextblockhash": "00000000e4a25e5979f06f2eb95c8bb2e80b0d0ded6ad3508a8ca1b8cb59265c",
  "strippedsize": 2629,
  "size": 2629,
  "weight": 10516,
  "tx": [
    {
      "txid": "dfd24e4ce2b8bc7c73cbb5d5e0e6e864bcbc8679108e38593a1e06ee77308ad0",
      "hash": "dfd24e4ce2b8bc7c73cbb5d5e0e6e864bcbc8679108e38593a1e06ee77308ad0",
      "version": 1,
      "size": 134,
      "vsize": 134,
      "weight": 536,
      "locktime": 0,
      "vin": [
        {
          "coinbase": "04ffff001d0119",
          "sequence": 4294967295
        }
      ],
      "vout": [
        {
          "value": 50.0,
          "n": 0,
          "scriptPubKey": {
            "asm": "04126b0fadf7ae19a3c6422fc6daef20eeae0bccfdc0a28e29717d49f067d3ec9bdb39f725868761f169a470bb41af3ff7e085a838a83da51f5d2f3d3b3800abd4 OP_CHECKSIG",
            "desc": "pk(04126b0fadf7ae19a3c6422fc6daef20eeae0bccfdc0a28e29717d49f067d3ec9bdb39f725868761f169a470bb41af3ff7e085a838a83da51f5d2f3d3b3800abd4)#k8tgpvvu",
            "hex": "4104126b0fadf7ae19a3c6422fc6daef20eeae0bccfdc0a28e29717d49f067d3ec9bdb39f725868761f169a470bb41af3ff7e085a838a83da51f5d2f3d3b3800abd4ac",
            "type": "pubkey"
          }
        }
      ],
      "hex": "01000000010000000000000000000000000000000000000000000000000000000000000000ffffffff0704ffff001d0119ffffffff0100f2052a01000000434104126b0fadf7ae19a3c6422fc6daef20eeae0bccfdc0a28e29717d49f067d3ec9bdb39f725868761f169a470bb41af3ff7e085a838a83da51f5d2f3d3b3800abd4ac00000000"
    },
    {
      "txid": "2c652b0f8b810d4b94082035e910b552a1dbb73bfa8a3c28406fa3d7a0528da7",
      "hash": "2c652b0f8b810d4b94082035e910b552a1dbb73bfa8a3c28406fa3d7a0528da7",
      "version": 1,
      "size": 159,
      "vsize": 159,
      "weight": 636,
      "locktime": 0,
      "vin": [
        {
          "txid": "751ef2707470c939173bdcdd512d0952e8dec17ca8899f870cddcce5848e4265",
          "vout": 0,
          "scriptSig": {
            "asm": "3046022100dc4d2ed128754491472ec012dfaabbf786bab16eeb2dd90c552c236f104852a0022100a55a3d09017e46734b50d3a5de2eb7309189997891b7eace223fa5910c0f57b9[ALL]",
            "hex": "493046022100dc4d2ed128754491472ec012dfaabbf786bab16eeb2dd90c552c236f104852a0022100a55a3d09017e46734b50d3a5de2eb7309189997891b7eace223fa5910c0f57b901"
          },
          "sequence": 4294967295
        }
      ],
      "vout": [
        {
          "value": 50.0,
          "n": 0,
          "scriptPubKey": {
            "asm": "OP_DUP OP_HASH160 592fc3990026334c8c6fb2b9da457179cdb5c688 OP_EQUALVERIFY OP_CHECKSIG",
            "desc": "addr(198aMn6ZYAczwrE5NvNTUMyJ5qkfy4g3Hi)#k9ndhvwd",
            "hex": "76a914592fc3990026334c8c6fb2b9da457179cdb5c68888ac",
            "address": "198aMn6ZYAczwrE5NvNTUMyJ5qkfy4g3Hi",
            "type": "pubkeyhash"
          }
        }
      ],
      "fee": 0.0,
      "hex": "010000000165428e84e5ccdd0c879f89a87cc1dee852092d51dddc3b1739c9707470f21e75000000004a493046022100dc4d2ed128754491472ec012dfaabbf786bab16eeb2dd90c552c236f104852a0022100a55a3d09017e46734b50d3a5de2eb7309189997891b7eace223fa5910c0f57b901ffffffff0100f2052a010000001976a914592fc3990026334c8c6fb2b9da457179cdb5c68888ac00000000"
    },
    {
      "txid": "54204ff07aecf7fc09e567c2333544dbb7054b31547b227e1bf74fbcdbca28da",
      "hash": "54204ff07aecf7fc09e567c2333544dbb7054b31547b227e1bf74fbcdbca28da",
      "version": 1,
      "size": 1867,
      "vsize": 1867,
      "weight": 7468,
      "locktime": 0,
      "vin": [
        {
          "txid": "3a731c5e8d1433e6a765c7b97bd9a00a29d1a49a5ed90d427a8e4bd5cdb12d19",
          "vout": 0,
          "scriptSig": {
            "asm": "304402206da05b973bddac0b979988854b7d32e7c151413b19dbefbd961bbeee0eeddcc602205f12afcaae700c3e0042c3665f62bbb65203660bdf009c92dfa9865d4de8ed3d[ALL]",
            "hex": "47304402206da05b973bddac0b979988854b7d32e7c151413b19dbefbd961bbeee0eeddcc602205f12afcaae700c3e0042c3665f62bbb65203660bdf009c92dfa9865d4de8ed3d01"
          },
          "sequence": 4294967295
        },
        {
          "txid": "b9d2af379ea672c3181ee1e1b3d7923c88f5240f428fc0d994e65423eb1b2e1b",
          "vout": 0,
          "scriptSig": {
            "asm": "3045022100e6ade72d65e1e291d2237bd322b8b04c8d968cb835393e1b49456517eb6be59402207a816249a694ce1dc7137cc546971d23afbdbb6ffe3753509eedc0713a66ad02[ALL]",
            "hex": "483045022100e6ade72d65e1e291d2237bd322b8b04c8d968cb835393e1b49456517eb6be59402207a816249a694ce1dc7137cc546971d23afbdbb6ffe3753509eedc0713a66ad0201"
          },
          "sequence": 4294967295
        },
        {
          "txid": "ccd1ead17a8cb0f60e9e2b889b949dcd276e19a1671f07033e2c1bee263d922c",
          "vout": 0,
          "scriptSig": {
            "asm": "304402200eea97f24899d88dff1fde7be32cc07f63cdb0c7174f65d111f06c958ef33b7202200d5f228050bdf349fc4d0969d571d39fe315973a418417eef87df65ae7115606[ALL]",
            "hex": "47304402200eea97f24899d88dff1fde7be32cc07f63cdb0c7174f65d111f06c958ef33b7202200d5f228050bdf349fc4d0969d571d39fe315973a418417eef87df65ae711560601"
          },
          "sequence": 4294967295
        },
        {
          "txid": "19366e898535913133ff4205153e826e21c8fb38c6a91779a6031ac848335447",
          "vout": 0,
          "scriptSig": {
            "asm": "304502206891fadd0b2321290a94a2566ace081bb90188a8ac55b26438c9b183025a3e02022100a305cd10f071840454ebd9f04d0f7fe6463bf636f22d04b8e5b310c7ef509896[ALL]",
            "hex": "48304502206891fadd0b2321290a94a2566ace081bb90188a8ac55b26438c9b183025a3e02022100a305cd10f071840454ebd9f04d0f7fe6463bf636f22d04b8e5b310c7ef50989601"
          },
          "sequence": 4294967295
        },
        {
          "txid": "b8376e1f297867d7649199db22927e58835c0ec56f7bcfcf35445eb246085f58",
          "vout": 0,
          "scriptSig": {
            "asm": "30450220427b9c1e90f907debfcc8b51f026e6d0b68034cd528d8f959c0a99c29497ca40022100cf61a2adf2a8789e8cec2de151ce9e18da60a4f92c1e70e809eb5d2eb11dac2f[ALL]",
            "hex": "4830450220427b9c1e90f907debfcc8b51f026e6d0b68034cd528d8f959c0a99c29497ca40022100cf61a2adf2a8789e8cec2de151ce9e18da60a4f92c1e70e809eb5d2eb11dac2f01"
          },
          "sequence": 4294967295
        },
        {
          "txid": "a3e11219d20308c16d8914787dbb18c1ec29e9ddb50f9e46756f049aeb073b60",
          "vout": 0,
          "scriptSig": {
            "asm": "30450221009dd6db0a59fe72e7fe15ee2f777538a2e2b623be25eea2860d3d6ab431302820022015041afb43dedfc0735f86114905adeb61a91ad3f37bea09c31e176a0fcf5875[ALL]",
            "hex": "4830450221009dd6db0a59fe72e7fe15ee2f777538a2e2b623be25eea2860d3d6ab431302820022015041afb43dedfc0735f86114905adeb61a91ad3f37bea09c31e176a0fcf587501"
          },
          "sequence": 4294967295
        },
        {
          "txid": "431eb357a5404717db995c6f1fb2b52594d2212be6b46bdb9005018f3b789f66",
          "vout": 0,
          "scriptSig": {
            "asm": "3046022100af4a707045f18f1a0d7006a4fcb065feccb84bb900545f90dfd815952e71becc022100c8720c133f4d334a6e5888080fecf1e73d4ffb7f661622e3c42b72972748c328[ALL]",
            "hex": "493046022100af4a707045f18f1a0d7006a4fcb065feccb84bb900545f90dfd815952e71becc022100c8720c133f4d334a6e5888080fecf1e73d4ffb7f661622e3c42b72972748c32801"
          },
          "sequence": 4294967295
        },
        {
          "txid": "c1aa144ad5d5b5ebca5a432a615b349d2347884f28e1d2ffef58a7dacca6e676",
          "vout": 0,
          "scriptSig": {
            "asm": "3046022100e8ac6a04a080da8e1a7afeb6b4f55673dbf183cc4ee746f9a45e4e67a72d43dd022100b06cd4367fc90dc85286ae5ff087e9323cee72208082f83d6d394483ee71cfb1[ALL]",
            "hex": "493046022100e8ac6a04a080da8e1a7afeb6b4f55673dbf183cc4ee746f9a45e4e67a72d43dd022100b06cd4367fc90dc85286ae5ff087e9323cee72208082f83d6d394483ee71cfb101"
          },
          "sequence": 4294967295
        },
        {
          "txid": "6ad448872e6a60c9f157bd6c8d7fede966b7a26c99e95072103ff0b743419e79",
          "vout": 0,
          "scriptSig": {
            "asm": "3045022100b76e414e6581c5f02f649c212fe9dd073be3215813c561bfe47d9e6a50c2b71502205e414845a8d9675d414d3501d8e681e485f1d853c03ba42b1434e3aea439d8e2[ALL]",
            "hex": "483045022100b76e414e6581c5f02f649c212fe9dd073be3215813c561bfe47d9e6a50c2b71502205e414845a8d9675d414d3501d8e681e485f1d853c03ba42b1434e3aea439d8e201"
          },
          "sequence": 4294967295
        },
        {
          "txid": "dee0bf608e9604e08769a8011d699b09153902a2cebb139037a595adeb93bb8d",
          "vout": 0,
          "scriptSig": {
            "asm": "3045022100d40d793cc5768a884db694dcdce3d34b863a5d81e40ca7b9e6784cf6b4f4669e02206b8f5ddb400d036c982a2feaf71936afcaaa015403dcbc86678466b81759de3e[ALL]",
            "hex": "483045022100d40d793cc5768a884db694dcdce3d34b863a5d81e40ca7b9e6784cf6b4f4669e02206b8f5ddb400d036c982a2feaf71936afcaaa015403dcbc86678466b81759de3e01"
          },
          "sequence": 4294967295
        },
        {
          "txid": "b57c610bf8738934d571ee4ff6fb743e16caccef3507d958577b330f60a87ba1",
          "vout": 0,
          "scriptSig": {
            "asm": "3044022057281f2f2b7a386649e2b6e8f0db0c14d670cbe61d19e30517472f283f8a84a9022020ef4f555f215b602e7a92d7c404d48577127cd34f73452179347492b1b8be06[ALL]",
            "hex": "473044022057281f2f2b7a386649e2b6e8f0db0c14d670cbe61d19e30517472f283f8a84a9022020ef4f555f215b602e7a92d7c404d48577127cd34f73452179347492b1b8be0601"
          },
          "sequence": 4294967295
        },
        {
          "txid": "6b7baa9573b3ad0a7f2c6404cdadf4c80ebe994d3c884bb1b76df2cafe3d51b1",
          "vout": 0,
          "scriptSig": {
            "asm": "30460221008cca0f4bfd87fc33316d8c3fe1ba2a1c130b6c5e61ba5ea77df0f38b84ee5ce7022100f4372355eb4ee4cfb9e7f8662e0ea4a023b0a5d52f96350955a0f62b7e80f85c[ALL]",
            "hex": "4930460221008cca0f4bfd87fc33316d8c3fe1ba2a1c130b6c5e61ba5ea77df0f38b84ee5ce7022100f4372355eb4ee4cfb9e7f8662e0ea4a023b0a5d52f96350955a0f62b7e80f85c01"
          },
          "sequence": 4294967295
        },
        {
          "txid": "e67aa2df1c87045215f8c8cded2ca150c85069dffd361629d585b444107787b8",
          "vout": 0,
          "scriptSig": {
            "asm": "3044022030da708c42187f7109136403a76ea57565cfcb151784d229d7a8355746758d98022058020f7935418aa1a7e7d51a0e80b85e0ddcd291d610aef8d249a42e3a651c10[ALL]",
            "hex": "473044022030da708c42187f7109136403a76ea57565cfcb151784d229d7a8355746758d98022058020f7935418aa1a7e7d51a0e80b85e0ddcd291d610aef8d249a42e3a651c1001"
          },
          "sequence": 4294967295
        },
        {
          "txid": "6c3cd31e35f89300de20a4a5876d092692662d78f67c3bb140dd552835cb1cb9",
          "vout": 0,
          "scriptSig": {
            "asm": "3045022100b96afd7ca51d31a201d98888dbd74c904309f2122e3a7de0a9c1c75930e0ef2f022019f5ac6a422772a810772116e0701c50846d89b3370792ba352fa1f09fc190ce[ALL]",
            "hex": "483045022100b96afd7ca51d31a201d98888dbd74c904309f2122e3a7de0a9c1c75930e0ef2f022019f5ac6a422772a810772116e0701c50846d89b3370792ba352fa1f09fc190ce01"
          },
          "sequence": 4294967295
        },
        {
          "txid": "7fc64eba56551499b02976bf773546b384bc010265c52aab9080c445758bcce3",
          "vout": 0,
          "scriptSig": {
            "asm": "304502203ae6125e86d99f76a52652a1fc7ff47691860103a0252b9b7a624759449b419e022100e1ae73b00a2f132519b98e487f4469d670c3fa8a9672bb66d4876b05c103a7f6[ALL]",
            "hex": "48304502203ae6125e86d99f76a52652a1fc7ff47691860103a0252b9b7a624759449b419e022100e1ae73b00a2f132519b98e487f4469d670c3fa8a9672bb66d4876b05c103a7f601"
          },
          "sequence": 4294967295
        },
        {
          "txid": "5883a4a398fe9e98d4d94071f3956a1f72884c803ff13681ee581838281a2af3",
          "vout": 0,
          "scriptSig": {
            "asm": "3045022100dde3be6cff728e53daa4acd0b33df83e0d4514a98ce8b00d47529022907888c202201d411867b29945ebdd0468d1855717d0b7cf2e68cc83fcc475754a34fb0ba8d0[ALL]",
            "hex": "483045022100dde3be6cff728e53daa4acd0b33df83e0d4514a98ce8b00d47529022907888c202201d411867b29945ebdd0468d1855717d0b7cf2e68cc83fcc475754a34fb0ba8d001"
          },
          "sequence": 4294967295
        }
      ],
      "vout": [
        {
          "value": 800.0,
          "n": 0,
          "scriptPubKey": {
            "asm": "OP_DUP OP_HASH160 592fc3990026334c8c6fb2b9da457179cdb5c688 OP_EQUALVERIFY OP_CHECKSIG",
            "desc": "addr(198aMn6ZYAczwrE5NvNTUMyJ5qkfy4g3Hi)#k9ndhvwd",
            "hex": "76a914592fc3990026334c8c6fb2b9da457179cdb5c68888ac",
            "address": "198aMn6ZYAczwrE5NvNTUMyJ5qkfy4g3Hi",
            "type": "pubkeyhash"
          }
        }
      ],
      "fee": 0.0,
      "hex": "0100000010192db1cdd54b8e7a420dd95e9aa4d1290aa0d97bb9c765a7e633148d5e1c733a000000004847304402206da05b973bddac0b979988854b7d32e7c151413b19dbefbd961bbeee0eeddcc602205f12afcaae700c3e0042c3665f62bbb65203660bdf009c92dfa9865d4de8ed3d01ffffffff1b2e1beb2354e694d9c08f420f24f5883c92d7b3e1e11e18c372a69e37afd2b90000000049483045022100e6ade72d65e1e291d2237bd322b8b04c8d968cb835393e1b49456517eb6be59402207a816249a694ce1dc7137cc546971d23afbdbb6ffe3753509eedc0713a66ad0201ffffffff2c923d26ee1b2c3e03071f67a1196e27cd9d949b882b9e0ef6b08c7ad1ead1cc000000004847304402200eea97f24899d88dff1fde7be32cc07f63cdb0c7174f65d111f06c958ef33b7202200d5f228050bdf349fc4d0969d571d39fe315973a418417eef87df65ae711560601ffffffff47543348c81a03a67917a9c638fbc8216e823e150542ff3331913585896e3619000000004948304502206891fadd0b2321290a94a2566ace081bb90188a8ac55b26438c9b183025a3e02022100a305cd10f071840454ebd9f04d0f7fe6463bf636f22d04b8e5b310c7ef50989601ffffffff585f0846b25e4435cfcf7b6fc50e5c83587e9222db999164d76778291f6e37b800000000494830450220427b9c1e90f907debfcc8b51f026e6d0b68034cd528d8f959c0a99c29497ca40022100cf61a2adf2a8789e8cec2de151ce9e18da60a4f92c1e70e809eb5d2eb11dac2f01ffffffff603b07eb9a046f75469e0fb5dde929ecc118bb7d7814896dc10803d21912e1a300000000494830450221009dd6db0a59fe72e7fe15ee2f777538a2e2b623be25eea2860d3d6ab431302820022015041afb43dedfc0735f86114905adeb61a91ad3f37bea09c31e176a0fcf587501ffffffff669f783b8f010590db6bb4e62b21d29425b5b21f6f5c99db174740a557b31e43000000004a493046022100af4a707045f18f1a0d7006a4fcb065feccb84bb900545f90dfd815952e71becc022100c8720c133f4d334a6e5888080fecf1e73d4ffb7f661622e3c42b72972748c32801ffffffff76e6a6ccdaa758efffd2e1284f8847239d345b612a435acaebb5d5d54a14aac1000000004a493046022100e8ac6a04a080da8e1a7afeb6b4f55673dbf183cc4ee746f9a45e4e67a72d43dd022100b06cd4367fc90dc85286ae5ff087e9323cee72208082f83d6d394483ee71cfb101ffffffff799e4143b7f03f107250e9996ca2b766e9ed7f8d6cbd57f1c9606a2e8748d46a0000000049483045022100b76e414e6581c5f02f649c212fe9dd073be3215813c561bfe47d9e6a50c2b71502205e414845a8d9675d414d3501d8e681e485f1d853c03ba42b1434e3aea439d8e201ffffffff8dbb93ebad95a5379013bbcea2023915099b691d01a86987e004968e60bfe0de0000000049483045022100d40d793cc5768a884db694dcdce3d34b863a5d81e40ca7b9e6784cf6b4f4669e02206b8f5ddb400d036c982a2feaf71936afcaaa015403dcbc86678466b81759de3e01ffffffffa17ba8600f337b5758d90735efccca163e74fbf64fee71d5348973f80b617cb50000000048473044022057281f2f2b7a386649e2b6e8f0db0c14d670cbe61d19e30517472f283f8a84a9022020ef4f555f215b602e7a92d7c404d48577127cd34f73452179347492b1b8be0601ffffffffb1513dfecaf26db7b14b883c4d99be0ec8f4adcd04642c7f0aadb37395aa7b6b000000004a4930460221008cca0f4bfd87fc33316d8c3fe1ba2a1c130b6c5e61ba5ea77df0f38b84ee5ce7022100f4372355eb4ee4cfb9e7f8662e0ea4a023b0a5d52f96350955a0f62b7e80f85c01ffffffffb887771044b485d5291636fddf6950c850a12cedcdc8f8155204871cdfa27ae60000000048473044022030da708c42187f7109136403a76ea57565cfcb151784d229d7a8355746758d98022058020f7935418aa1a7e7d51a0e80b85e0ddcd291d610aef8d249a42e3a651c1001ffffffffb91ccb352855dd40b13b7cf6782d669226096d87a5a420de0093f8351ed33c6c0000000049483045022100b96afd7ca51d31a201d98888dbd74c904309f2122e3a7de0a9c1c75930e0ef2f022019f5ac6a422772a810772116e0701c50846d89b3370792ba352fa1f09fc190ce01ffffffffe3cc8b7545c48090ab2ac5650201bc84b3463577bf7629b099145556ba4ec67f000000004948304502203ae6125e86d99f76a52652a1fc7ff47691860103a0252b9b7a624759449b419e022100e1ae73b00a2f132519b98e487f4469d670c3fa8a9672bb66d4876b05c103a7f601fffffffff32a1a28381858ee8136f13f804c88721f6a95f37140d9d4989efe98a3a483580000000049483045022100dde3be6cff728e53daa4acd0b33df83e0d4514a98ce8b00d47529022907888c202201d411867b29945ebdd0468d1855717d0b7cf2e68cc83fcc475754a34fb0ba8d001ffffffff0100205fa0120000001976a914592fc3990026334c8c6fb2b9da457179cdb5c68888ac00000000"
    },
    {
      "txid": "d65723c12834c33063efcfbc7deb0c4791558d432fbe9c1c51f8b718060be583",
      "hash": "d65723c12834c33063efcfbc7deb0c4791558d432fbe9c1c51f8b718060be583",
      "version": 1,
      "size": 388,
      "vsize": 388,
      "weight": 1552,
      "locktime": 0,
      "vin": [
        {
          "txid": "506b10895afd3d320e1e7afd86077c3b07656bc547c5932228525f2c72da5102",
          "vout": 0,
          "scriptSig": {
            "asm": "304602210081c6b658eb917d5a6fa5418287a85bda2d1d097dd9265a00350ade1bf37852e8022100a8a9c219bcad9484c3c836b525eba5dd14d085bc27ecd657c6c1a0866c998a6f[ALL]",
            "hex": "49304602210081c6b658eb917d5a6fa5418287a85bda2d1d097dd9265a00350ade1bf37852e8022100a8a9c219bcad9484c3c836b525eba5dd14d085bc27ecd657c6c1a0866c998a6f01"
          },
          "sequence": 4294967295
        },
        {
          "txid": "b2a188b7e24be690ff8eca41867641a573fbede013443f56df7a8083b5d8ba3f",
          "vout": 0,
          "scriptSig": {
            "asm": "30450221009c7b54d72e629cd747e41c7b5b81a6e27f69a187fa23bdf249c9860843aae502022055a15c08a8beebee83e76d86734707deb067b743b614b6c7ac8d5b60e3d9e625[ALL]",
            "hex": "4830450221009c7b54d72e629cd747e41c7b5b81a6e27f69a187fa23bdf249c9860843aae502022055a15c08a8beebee83e76d86734707deb067b743b614b6c7ac8d5b60e3d9e62501"
          },
          "sequence": 4294967295
        },
        {
          "txid": "8173999aa8bcb4cd31513ca9e3a03d6fb839ded676999e53e9da15bbf5460cef",
          "vout": 0,
          "scriptSig": {
            "asm": "3046022100e9ce0fa8b6d9ba0c137000f2c5a1cdb2831c8f1ae7913a6940b80fd1e26f11af022100e86c1db69dd46ea5ce259e39c29ddafda66a579061436dbd1e33723771a6bc20[ALL]",
            "hex": "493046022100e9ce0fa8b6d9ba0c137000f2c5a1cdb2831c8f1ae7913a6940b80fd1e26f11af022100e86c1db69dd46ea5ce259e39c29ddafda66a579061436dbd1e33723771a6bc2001"
          },
          "sequence": 4294967295
        }
      ],
      "vout": [
        {
          "value": 150.0,
          "n": 0,
          "scriptPubKey": {
            "asm": "OP_DUP OP_HASH160 592fc3990026334c8c6fb2b9da457179cdb5c688 OP_EQUALVERIFY OP_CHECKSIG",
            "desc": "addr(198aMn6ZYAczwrE5NvNTUMyJ5qkfy4g3Hi)#k9ndhvwd",
            "hex": "76a914592fc3990026334c8c6fb2b9da457179cdb5c68888ac",
            "address": "198aMn6ZYAczwrE5NvNTUMyJ5qkfy4g3Hi",
            "type": "pubkeyhash"
          }
        }
      ],
      "fee": 0.0,
      "hex": "01000000030251da722c5f52282293c547c56b65073b7c0786fd7a1e0e323dfd5a89106b50000000004a49304602210081c6b658eb917d5a6fa5418287a85bda2d1d097dd9265a00350ade1bf37852e8022100a8a9c219bcad9484c3c836b525eba5dd14d085bc27ecd657c6c1a0866c998a6f01ffffffff3fbad8b583807adf563f4413e0edfb73a541768641ca8eff90e64be2b788a1b200000000494830450221009c7b54d72e629cd747e41c7b5b81a6e27f69a187fa23bdf249c9860843aae502022055a15c08a8beebee83e76d86734707deb067b743b614b6c7ac8d5b60e3d9e62501ffffffffef0c46f5bb15dae9539e9976d6de39b86f3da0e3a93c5131cdb4bca89a997381000000004a493046022100e9ce0fa8b6d9ba0c137000f2c5a1cdb2831c8f1ae7913a6940b80fd1e26f11af022100e86c1db69dd46ea5ce259e39c29ddafda66a579061436dbd1e33723771a6bc2001ffffffff0100d6117e030000001976a914592fc3990026334c8c6fb2b9da457179cdb5c68888ac00000000"
    }
  ]
}