{
  "hash": "00000000be62325a98e47d3306f275efe45d39d8cd5df28c795c96b8920ad48f",
  "confirmations": 51930,
  "height": 80,
  "version": 1,
  "versionHex": "00000001",
  "merkleroot": "5ed287fa7b07229b53b15c6ad95ab49c1c222aa0fcfa2dd6603fa8492fae54c6",
  "time": 1231646077,
  "mediantime": 1231631822,
  "nonce": 320393266,
  "bits": "1d00ffff",
  "difficulty": 1,
  "chainwork": "0000000000000000000000000000000000000000000000000000005100510051",
  "nTx": 1,
  "previousblockhash": "0000000086e318e8c348dad73199bb6fac8cc1effb9c872a7dda49c5caca0021",
  "nextblockhash": "000000007d076a5289751e363ecb01604355730e69de270f04f79d969ff1cf86",
  "strippedsize": 215,
  "size": 215,
  "weight": 860,
  "tx": [
    {
      "txid": "5ed287fa7b07229b53b15c6ad95ab49c1c222aa0fcfa2dd6603fa8492fae54c6",
      "hash": "5ed287fa7b07229b53b15c6ad95ab49c1c222aa0fcfa2dd6603fa8492fae54c6",
      "version": 1,
      "size": 134,
      "vsize": 134,
      "weight": 536,
      "locktime": 0,
      "vin": [
        {
          "coinbase": "04ffff001d0104",
          "sequence": 4294967295
        }
      ],
      "vout": [
        {
          "value": 50.0,
          "n": 0,
          "scriptPubKey": {
            "asm": "04e869b280ddc2eb25995d46264e9b94d99214f0c3c3eec3b285c54bba7658edce94a3dca09c2206ec7a81aa1aef82bbf43c548f19731c37744c2bd97742e84173 OP_CHECKSIG",
            "desc": "pk(04e869b280ddc2eb25995d46264e9b94d99214f0c3c3eec3b285c54bba7658edce94a3dca09c2206ec7a81aa1aef82bbf43c548f19731c37744c2bd97742e84173)#4cnjmnrx",
            "hex": "4104e869b280ddc2eb25995d46264e9b94d99214f0c3c3eec3b285c54bba7658edce94a3dca09c2206ec7a81aa1aef82bbf43c548f19731c37744c2bd97742e84173ac",
            "type": "pubkey"
          }
        }
      ],
      "hex": "01000000010000000000000000000000000000000000000000000000000000000000000000ffffffff0704ffff001d0104ffffffff0100f2052a01000000434104e869b280ddc2eb25995d46264e9b94d99214f0c3c3eec3b285c54bba7658edce94a3dca09c2206ec7a81aa1aef82bbf43c548f19731c37744c2bd97742e84173ac00000000"
    }
  ]
}