{
  "hash": "00000000f3b7880ffb51cf6ebe759af3f1e13649c8cfe817158232f0a43f9538",
  "confirmations": 46503,
  "height": 6595,
  "version": 1,
  "versionHex": "00000001",
  "merkleroot": "151b659e65c1bff3808f2e6f2b531086e3702ff09e1ea5637cbc0d1e3c8dcc99",
  "time": 1236400677,
  "mediantime": 1236396722,
  "nonce": 1622821129,
  "bits": "1d00ffff",
  "difficulty": 1,
  "chainwork": "000000000000000000000000000000000000000000000000000019c419c419c4",
  "nTx": 1,
  "previousblockhash": "0000000077407e69c46dc29ddaefc1ec05bac9f998ddf78ef23972c7cd83e009",
  "nextblockhash": "00000000ac79664ac9f5e5539a70966d84bce6e2e170003c80df4d3623a13ddd",
  "strippedsize": 216,
  "size": 216,
  "weight": 864,
  "tx": [
    {
      "txid": "151b659e65c1bff3808f2e6f2b531086e3702ff09e1ea5637cbc0d1e3c8dcc99",
      "hash": "151b659e65c1bff3808f2e6f2b531086e3702ff09e1ea5637cbc0d1e3c8dcc99",
      "version": 1,
      "size": 135,
      "vsize": 135,
      "weight": 540,
      "locktime": 0,
      "vin": [
        {
          "coinbase": "04ffff001d020b05",
          "sequence": 4294967295
        }
      ],
      "vout": [
        {
          "value": 50.0,
          "n": 0,
          "scriptPubKey": {
            "asm": "04d90cf72a342c36e09998cfec45c1024123284255e614d8f2ea17a4517030d452e034e00d04c0f6320936f4e029097800558a12a61931650ea60e076a172e6c89 OP_CHECKSIG",
            "desc": "pk(04d90cf72a342c36e09998cfec45c1024123284255e614d8f2ea17a4517030d452e034e00d04c0f6320936f4e029097800558a12a61931650ea60e076a172e6c89)#v70mhnnk",
            "hex": "4104d90cf72a342c36e09998cfec45c1024123284255e614d8f2ea17a4517030d452e034e00d04c0f6320936f4e029097800558a12a61931650ea60e076a172e6c89ac",
            "type": "pubkey"
          }
        }
      ],
      "hex": "01000000010000000000000000000000000000000000000000000000000000000000000000ffffffff0804ffff001d020b05ffffffff0100f2052a01000000434104d90cf72a342c36e09998cfec45c1024123284255e614d8f2ea17a4517030d452e034e00d04c0f6320936f4e029097800558a12a61931650ea60e076a172e6c89ac00000000"
    }
  ]
}