{
  "hash": "0000000078ce9ba26300c4dd5eccd9cb7a2c3fc3be6e585a2d28c49b86f36542",
  "confirmations": 45406,
  "height": 7692,
  "version": 1,
  "versionHex": "00000001",
  "merkleroot": "0eef4bf36e52d2aae450c60a66ba119f4383947cf6acbd33debc278109cd5a4c",
  "time": 1237234340,
  "mediantime": 1237229098,
  "nonce": 939707432,
  "bits": "1d00ffff",
  "difficulty": 1,
  "chainwork": "00000000000000000000000000000000000000000000000000001e0d1e0d1e0d",
  "nTx": 1,
  "previousblockhash": "00000000fc804c9e2435ef447d7398586c72e7e0d8382a571da79bb02a59201e",
  "nextblockhash": "000000008eecc1a8f452c12ee9c1df88ebb3689a0bc63afc82e323a812ef3be4",
  "strippedsize": 216,
  "size": 216,
  "weight": 864,
  "tx": [
    {
      "txid": "0eef4bf36e52d2aae450c60a66ba119f4383947cf6acbd33debc278109cd5a4c",
      "hash": "0eef4bf36e52d2aae450c60a66ba119f4383947cf6acbd33debc278109cd5a4c",
      "version": 1,
      "size": 135,
      "vsize": 135,
      "weight": 540,
      "locktime": 0,
      "vin": [
        {
          "coinbase": "04ffff001d020604",
          "sequence": 4294967295
        }
      ],
      "vout": [
        {
          "value": 50.0,
          "n": 0,
          "scriptPubKey": {
            "asm": "049d1e68f3569bfdcf0f6a8ac2295b179b99772d8971da47d9113bc11c86c9f37370598db318910b564e29fb84aa21d7559f3cc376ffe2a87675334b22b3882e39 OP_CHECKSIG",
            "desc": "pk(049d1e68f3569bfdcf0f6a8ac2295b179b99772d8971da47d9113bc11c86c9f37370598db318910b564e29fb84aa21d7559f3cc376ffe2a87675334b22b3882e39)#gggakzjt",
            "hex": "41049d1e68f3569bfdcf0f6a8ac2295b179b99772d8971da47d9113bc11c86c9f37370598db318910b564e29fb84aa21d7559f3cc376ffe2a87675334b22b3882e39ac",
            "type": "pubkey"
          }
        }
      ],
      "hex": "01000000010000000000000000000000000000000000000000000000000000000000000000ffffffff0804ffff001d020604ffffffff0100f2052a010000004341049d1e68f3569bfdcf0f6a8ac2295b179b99772d8971da47d9113bc11c86c9f37370598db318910b564e29fb84aa21d7559f3cc376ffe2a87675334b22b3882e39ac00000000"
    }
  ]
}