{
  "hash": "00000000c571818a30ca83344628844c6b56b8ed1092aa26ae8f136a40710dea",
  "confirmations": 48231,
  "height": 4867,
  "version": 1,
  "versionHex": "00000001",
  "merkleroot": "eb893e9bbf89256e8a73ba0cba1a3c9e26718b45eaee047a3df413985c2a2f43",
  "time": 1235048920,
  "mediantime": 1235046306,
  "nonce": 231935783,
  "bits": "1d00ffff",
  "difficulty": 1,
  "chainwork": "0000000000000000000000000000000000000000000000000000130413041304",
  "nTx": 1,
  "previousblockhash": "000000003078260ed6e02550a80eca179ef25aff17039fdece572d90804a9aff",
  "nextblockhash": "00000000a62af389701fa23c5aa195906449c39bd26e49894c75e2936e21cb01",
  "strippedsize": 216,
  "size": 216,
  "weight": 864,
  "tx": [
    {
      "txid": "eb893e9bbf89256e8a73ba0cba1a3c9e26718b45eaee047a3df413985c2a2f43",
      "hash": "eb893e9bbf89256e8a73ba0cba1a3c9e26718b45eaee047a3df413985c2a2f43",
      "version": 1,
      "size": 135,
      "vsize": 135,
      "weight": 540,
      "locktime": 0,
      "vin": [
        {
          "coinbase": "04ffff001d024d05",
          "sequence": 4294967295
        }
      ],
      "vout": [
        {
          "value": 50.0,
          "n": 0,
          "scriptPubKey": {
            "asm": "04be3f4ae0b35e1f8eb5c97aa68a5f359cdc5e0993e153a93f98776edc62756e90a3305b8f9eb882d39706944131c494b847e33223a2641f79cdcd58f42c71f7d3 OP_CHECKSIG",
            "desc": "pk(04be3f4ae0b35e1f8eb5c97aa68a5f359cdc5e0993e153a93f98776edc62756e90a3305b8f9eb882d39706944131c494b847e33223a2641f79cdcd58f42c71f7d3)#ktvjkk9w",
            "hex": "4104be3f4ae0b35e1f8eb5c97aa68a5f359cdc5e0993e153a93f98776edc62756e90a3305b8f9eb882d39706944131c494b847e33223a2641f79cdcd58f42c71f7d3ac",
            "type": "pubkey"
          }
        }
      ],
      "hex": "01000000010000000000000000000000000000000000000000000000000000000000000000ffffffff0804ffff001d024d05ffffffff0100f2052a01000000434104be3f4ae0b35e1f8eb5c97aa68a5f359cdc5e0993e153a93f98776edc62756e90a3305b8f9eb882d39706944131c494b847e33223a2641f79cdcd58f42c71f7d3ac00000000"
    }
  ]
}