{
  "hash": "00000000ad18b419feecdcb6e635b4d4fdaeabb54eb461c4c2a581ae01645f3e",
  "confirmations": 49653,
  "height": 3445,
  "version": 1,
  "versionHex": "00000001",
  "merkleroot": "189f081040f2bf79e964bfb0c658f09ee5a48e3b7833b3d1d26cebb55140792a",
  "time": 1234068814,
  "mediantime": 1234066082,
  "nonce": 2441198381,
  "bits": "1d00ffff",
  "difficulty": 1,
  "chainwork": "00000000000000000000000000000000000000000000000000000d760d760d76",
  "nTx": 1,
  "previousblockhash": "000000000839b2ed52dcfa5543d9b7d9fadbb68ddfe1c5c73ecdd42044f61e1e",
  "nextblockhash": "00000000fe99c63735b72fbe1d3235c79dd765ab10d86e1048bb662d09fdb248",
  "strippedsize": 216,
  "size": 216,
  "weight": 864,
  "tx": [
    {
      "txid": "189f081040f2bf79e964bfb0c658f09ee5a48e3b7833b3d1d26cebb55140792a",
      "hash": "189f081040f2bf79e964bfb0c658f09ee5a48e3b7833b3d1d26cebb55140792a",
      "version": 1,
      "size": 135,
      "vsize": 135,
      "weight": 540,
      "locktime": 0,
      "vin": [
        {
          "coinbase": "04ffff001d023806",
          "sequence": 4294967295
        }
      ],
      "vout": [
        {
          "value": 50.0,
          "n": 0,
          "scriptPubKey": {
            "asm": "04999458fa40090b68d5dd1b306fda400b885d5b373cb9ce987e4c12c8cfefd75bb94d50a05e04d93505c72c32b59e21af0910d8088cf2c1d6a5f14b04ee18b662 OP_CHECKSIG",
            "desc": "pk(04999458fa40090b68d5dd1b306fda400b885d5b373cb9ce987e4c12c8cfefd75bb94d50a05e04d93505c72c32b59e21af0910d8088cf2c1d6a5f14b04ee18b662)#hdhcu5mc",
            "hex": "4104999458fa40090b68d5dd1b306fda400b885d5b373cb9ce987e4c12c8cfefd75bb94d50a05e04d93505c72c32b59e21af0910d8088cf2c1d6a5f14b04ee18b662ac",
            "type": "pubkey"
          }
        }
      ],
      "hex": "01000000010000000000000000000000000000000000000000000000000000000000000000ffffffff0804ffff001d023806ffffffff0100f2052a01000000434104999458fa40090b68d5dd1b306fda400b885d5b373cb9ce987e4c12c8cfefd75bb94d50a05e04d93505c72c32b59e21af0910d8088cf2c1d6a5f14b04ee18b662ac00000000"
    }
  ]
}