{
  "hash": "00000000f26d5ffd03f51adb5e1e592fa8d66a5e10c83ad5d4614f351abdb1f8",
  "confirmations": 48388,
  "height": 4710,
  "version": 1,
  "versionHex": "00000001",
  "merkleroot": "e56aed76aae9e54fe24ffe63a404328b99f3ecf0d412f302599d994f9161008f",
  "time": 1234934820,
  "mediantime": 1234932525,
  "nonce": 2805894692,
  "bits": "1d00ffff",
  "difficulty": 1,
  "chainwork": "0000000000000000000000000000000000000000000000000000126712671267",
  "nTx": 1,
  "previousblockhash": "0000000040c6b1f9f568a56c3b3838916f0cbb2c3ecfe0f49fa14e9c537483ff",
  "nextblockhash": "00000000b16e03d850b9eee7f0aa099f3f611d6cba11e30c3781d0eddece526e",
  "strippedsize": 216,
  "size": 216,
  "weight": 864,
  "tx": [
    {
      "txid": "e56aed76aae9e54fe24ffe63a404328b99f3ecf0d412f302599d994f9161008f",
      "hash": "e56aed76aae9e54fe24ffe63a404328b99f3ecf0d412f302599d994f9161008f",
      "version": 1,
      "size": 135,
      "vsize": 135,
      "weight": 540,
      "locktime": 0,
      "vin": [
        {
          "coinbase": "04ffff001d02b002",
          "sequence": 4294967295
        }
      ],
      "vout": [
        {
          "value": 50.0,
          "n": 0,
          "scriptPubKey": {
            "asm": "049eba2e29401c7b56a2284f26645de73fc87d21b8a3c696b87d969e6c0e3dd21df22e333088d61b4b7060fb01e38e1ef64c44872e9e2c7d5a67e8e3d32a426647 OP_CHECKSIG",
            "desc": "pk(049eba2e29401c7b56a2284f26645de73fc87d21b8a3c696b87d969e6c0e3dd21df22e333088d61b4b7060fb01e38e1ef64c44872e9e2c7d5a67e8e3d32a426647)#chemyyv9",
            "hex": "41049eba2e29401c7b56a2284f26645de73fc87d21b8a3c696b87d969e6c0e3dd21df22e333088d61b4b7060fb01e38e1ef64c44872e9e2c7d5a67e8e3d32a426647ac",
            "type": "pubkey"
          }
        }
      ],
      "hex": "01000000010000000000000000000000000000000000000000000000000000000000000000ffffffff0804ffff001d02b002ffffffff0100f2052a010000004341049eba2e29401c7b56a2284f26645de73fc87d21b8a3c696b87d969e6c0e3dd21df22e333088d61b4b7060fb01e38e1ef64c44872e9e2c7d5a67e8e3d32a426647ac00000000"
    }
  ]
}