{
  "hash": "0000000074162224a54140815b571531707bacd94259d5593424f35aad5d35d1",
  "confirmations": 52141,
  "height": 957,
  "version": 1,
  "versionHex": "00000001",
  "merkleroot": "e70c3f5537a631b048198e5aebbb0569d6ea8c43357dd6e193f26e72e33660c7",
  "time": 1232317580,
  "mediantime": 1232315215,
  "nonce": 1089916420,
  "bits": "1d00ffff",
  "difficulty": 1,
  "chainwork": "000000000000000000000000000000000000000000000000000003be03be03be",
  "nTx": 1,
  "previousblockhash": "00000000677e3263de6e6972545f43c9eec825a1d39acbfc5820a94519f1684a",
  "nextblockhash": "0000000067ae27927eb8e062c1c959bca4e569724e3f32d841d8b8f7101aa953",
  "strippedsize": 216,
  "size": 216,
  "weight": 864,
  "tx": [
    {
      "txid": "e70c3f5537a631b048198e5aebbb0569d6ea8c43357dd6e193f26e72e33660c7",
      "hash": "e70c3f5537a631b048198e5aebbb0569d6ea8c43357dd6e193f26e72e33660c7",
      "version": 1,
      "size": 135,
      "vsize": 135,
      "weight": 540,
      "locktime": 0,
      "vin": [
        {
          "coinbase": "04ffff001d027104",
          "sequence": 4294967295
        }
      ],
      "vout": [
        {
          "value": 50.0,
          "n": 0,
          "scriptPubKey": {
            "asm": "048f496514c8b6d7432b9c06f612bd3a1ed0853f3d99cd6b15459288454d71da00035b890f7eca0d6cc0aa6bbd533c2f7e62569c3f146a1ad3082dc5ff2c572e5d OP_CHECKSIG",
            "desc": "pk(048f496514c8b6d7432b9c06f612bd3a1ed0853f3d99cd6b15459288454d71da00035b890f7eca0d6cc0aa6bbd533c2f7e62569c3f146a1ad3082dc5ff2c572e5d)#2z6yc24d",
            "hex": "41048f496514c8b6d7432b9c06f612bd3a1ed0853f3d99cd6b15459288454d71da00035b890f7eca0d6cc0aa6bbd533c2f7e62569c3f146a1ad3082dc5ff2c572e5dac",
            "type": "pubkey"
          }
        }
      ],
      "hex": "01000000010000000000000000000000000000000000000000000000000000000000000000ffffffff0804ffff001d027104ffffffff0100f2052a010000004341048f496514c8b6d7432b9c06f612bd3a1ed0853f3d99cd6b15459288454d71da00035b890f7eca0d6cc0aa6bbd533c2f7e62569c3f146a1ad3082dc5ff2c572e5dac00000000"
    }
  ]
}