{
  "hash": "00000000eb1955ce14a5c2d9e3aca735de89d476b5028be84dff82c476563a40",
  "confirmations": 45432,
  "height": 7666,
  "version": 1,
  "versionHex": "00000001",
  "merkleroot": "c70fec7817721f1006bbf94ee0ef11f9100efc11c98e45cc5007284edc1d306e",
  "time": 1237214259,
  "mediantime": 1237210787,
  "nonce": 412372484,
  "bits": "1d00ffff",
  "difficulty": 1,
  "chainwork": "00000000000000000000000000000000000000000000000000001df31df31df3",
  "nTx": 1,
  "previousblockhash": "000000008883d98fd3816ed207d7af28056083abb2edfe78f2f8ac1bccefdd97",
  "nextblockhash": "0000000041904cbd0779990fc4403194e093447a18a7c5a7c2d820dbc2497c81",
  "strippedsize": 216,
  "size": 216,
  "weight": 864,
  "tx": [
    {
      "txid": "c70fec7817721f1006bbf94ee0ef11f9100efc11c98e45cc5007284edc1d306e",
      "hash": "c70fec7817721f1006bbf94ee0ef11f9100efc11c98e45cc5007284edc1d306e",
      "version": 1,
      "size": 135,
      "vsize": 135,
      "weight": 540,
      "locktime": 0,
      "vin": [
        {
          "coinbase": "04ffff001d028f03",
          "sequence": 4294967295
        }
      ],
      "vout": [
        {
          "value": 50.0,
          "n": 0,
          "scriptPubKey": {
            "asm": "04356a076f69357f38ee5aa924587de376121d03c224bf24b7da0dca8c1e9fd8f1017acd4a5426d013cf05830c6b49dd28931506a29aef9b30a0ae10ceb7f5fb40 OP_CHECKSIG",
            "desc": "pk(04356a076f69357f38ee5aa924587de376121d03c224bf24b7da0dca8c1e9fd8f1017acd4a5426d013cf05830c6b49dd28931506a29aef9b30a0ae10ceb7f5fb40)#cxwmg6ap",
            "hex": "4104356a076f69357f38ee5aa924587de376121d03c224bf24b7da0dca8c1e9fd8f1017acd4a5426d013cf05830c6b49dd28931506a29aef9b30a0ae10ceb7f5fb40ac",
            "type": "pubkey"
          }
        }
      ],
      "hex": "01000000010000000000000000000000000000000000000000000000000000000000000000ffffffff0804ffff001d028f03ffffffff0100f2052a01000000434104356a076f69357f38ee5aa924587de376121d03c224bf24b7da0dca8c1e9fd8f1017acd4a5426d013cf05830c6b49dd28931506a29aef9b30a0ae10ceb7f5fb40ac00000000"
    }
  ]
}