{
  "hash": "00000000a72d798b3fbeaf6eb83b4bdbc340a61e41f5db02c53e2e8903822f6b",
  "confirmations": 46053,
  "height": 7045,
  "version": 1,
  "versionHex": "00000001",
  "merkleroot": "26183ab8c7e5bcd330dd681916db1cf29b65dde42ad75c290fd2851d93a1b5d8",
  "time": 1236753364,
  "mediantime": 1236747700,
  "nonce": 218523928,
  "bits": "1d00ffff",
  "difficulty": 1,
  "chainwork": "00000000000000000000000000000000000000000000000000001b861b861b86",
  "nTx": 1,
  "previousblockhash": "00000000d72e6a08414c439b5fa6617dd9528202a586fa252bf9e32733d6843f",
  "nextblockhash": "000000004f012d3deeb53ea9bad75ac1b9d421522c4bcb84f41c4429265594b4",
  "strippedsize": 216,
  "size": 216,
  "weight": 864,
  "tx": [
    {
      "txid": "26183ab8c7e5bcd330dd681916db1cf29b65dde42ad75c290fd2851d93a1b5d8",
      "hash": "26183ab8c7e5bcd330dd681916db1cf29b65dde42ad75c290fd2851d93a1b5d8",
      "version": 1,
      "size": 135,
      "vsize": 135,
      "weight": 540,
      "locktime": 0,
      "vin": [
        {
          "coinbase": "04ffff001d021703",
          "sequence": 4294967295
        }
      ],
      "vout": [
        {
          "value": 50.0,
          "n": 0,
          "scriptPubKey": {
            "asm": "04b053419d3986a7683f316949e5fb8aba97d1454b9328d2c723dc7e5030986919dea8ec6b78475d8839142812d9b389e3928fa55ae8f95066175971f37cb6c253 OP_CHECKSIG",
            "desc": "pk(04b053419d3986a7683f316949e5fb8aba97d1454b9328d2c723dc7e5030986919dea8ec6b78475d8839142812d9b389e3928fa55ae8f95066175971f37cb6c253)#6xpd5u6m",
            "hex": "4104b053419d3986a7683f316949e5fb8aba97d1454b9328d2c723dc7e5030986919dea8ec6b78475d8839142812d9b389e3928fa55ae8f95066175971f37cb6c253ac",
            "type": "pubkey"
          }
        }
      ],
      "hex": "01000000010000000000000000000000000000000000000000000000000000000000000000ffffffff0804ffff001d021703ffffffff0100f2052a01000000434104b053419d3986a7683f316949e5fb8aba97d1454b9328d2c723dc7e5030986919dea8ec6b78475d8839142812d9b389e3928fa55ae8f95066175971f37cb6c253ac00000000"
    }
  ]
}