{
  "hash": "00000000fbeae012f28497609cf08e838a99797c2f151c11ea6af623914d0879",
  "confirmations": 47963,
  "height": 5135,
  "version": 1,
  "versionHex": "00000001",
  "merkleroot": "1c8d4752fee4dc3f846ad032f92baf853498f9029988e4a8cc352521883682c1",
  "time": 1235240793,
  "mediantime": 1235237744,
  "nonce": 105069583,
  "bits": "1d00ffff",
  "difficulty": 1,
  "chainwork": "0000000000000000000000000000000000000000000000000000141014101410",
  "nTx": 1,
  "previousblockhash": "00000000c74f21f764aabc6088501fed78b47dacdd6adf13afb5cc756aff6162",
  "nextblockhash": "00000000ec450b5fcda1012a7f550b95942a3286b6e417b18bdd90e6e36bf79c",
  "strippedsize": 216,
  "size": 216,
  "weight": 864,
  "tx": [
    {
      "txid": "1c8d4752fee4dc3f846ad032f92baf853498f9029988e4a8cc352521883682c1",
      "hash": "1c8d4752fee4dc3f846ad032f92baf853498f9029988e4a8cc352521883682c1",
      "version": 1,
      "size": 135,
      "vsize": 135,
      "weight": 540,
      "locktime": 0,
      "vin": [
        {
          "coinbase": "04ffff001d02a80c",
          "sequence": 4294967295
        }
      ],
      "vout": [
        {
          "value": 50.0,
          "n": 0,
          "scriptPubKey": {
            "asm": "0481bf6bf78a703403f029ab3e060c1adf6df74062a29bd479c63aec25293b401644022234852b5ded3f064b5aaea98fdc063004106954369bd47fc56d21e1ebd3 OP_CHECKSIG",
            "desc": "pk(0481bf6bf78a703403f029ab3e060c1adf6df74062a29bd479c63aec25293b401644022234852b5ded3f064b5aaea98fdc063004106954369bd47fc56d21e1ebd3)#afxqszf0",
            "hex": "410481bf6bf78a703403f029ab3e060c1adf6df74062a29bd479c63aec25293b401644022234852b5ded3f064b5aaea98fdc063004106954369bd47fc56d21e1ebd3ac",
            "type": "pubkey"
          }
        }
      ],
      "hex": "01000000010000000000000000000000000000000000000000000000000000000000000000ffffffff0804ffff001d02a80cffffffff0100f2052a0100000043410481bf6bf78a703403f029ab3e060c1adf6df74062a29bd479c63aec25293b401644022234852b5ded3f064b5aaea98fdc063004106954369bd47fc56d21e1ebd3ac00000000"
    }
  ]
}