{
  "hash": "0000000006c9b1e6c82487e058b9fa9c001ee54700b33e061e1ebf2cd5b0b66a",
  "confirmations": 50580,
  "height": 2518,
  "version": 1,
  "versionHex": "00000001",
  "merkleroot": "8ca8be0c409f9032628e1fd6b9116bf327f05ea1686245127e92d4375e593ce5",
  "time": 1233428912,
  "mediantime": 1233427056,
  "nonce": 27901291,
  "bits": "1d00ffff",
  "difficulty": 1,
  "chainwork": "000000000000000000000000000000000000000000000000000009d709d709d7",
  "nTx": 2,
  "previousblockhash": "000000001b055aa23e9c432e2d68b129ebbeaad36b953405df9a382ba74ae0d9",
  "nextblockhash": "00000000551ff485c4327858a3fa9be59635d98f4272869145919394ef3d1460",
  "strippedsize": 2542,
  "size": 2542,
  "weight": 10168,
  "tx": [
    {
      "txid": "109898d975b3fe238312617b8bec21b678ff6d8b0fd2e356c78236d02387e38c",
      "hash": "109898d975b3fe238312617b8bec21b678ff6d8b0fd2e356c78236d02387e38c",
      "version": 1,
      "size": 135,
      "vsize": 135,
      "weight": 540,
      "locktime": 0,
      "vin": [
        {
          "coinbase": "04ffff001d022b02",
          "sequence": 4294967295
        }
      ],
      "vout": [
        {
          "value": 50.0,
          "n": 0,
          "scriptPubKey": {
            "asm": "04992560452cb1e29d08543872a5f54f341f7aa90c60a927765565434781d52fd040dd6d6d2b9063e259f234ff5026ff5f20586d7696737cf133aa1d3150ed95ab OP_CHECKSIG",
            "desc": "pk(04992560452cb1e29d08543872a5f54f341f7aa90c60a927765565434781d52fd040dd6d6d2b9063e259f234ff5026ff5f20586d7696737cf133aa1d3150ed95ab)#vwdzqavm",
            "hex": "4104992560452cb1e29d08543872a5f54f341f7aa90c60a927765565434781d52fd040dd6d6d2b9063e259f234ff5026ff5f20586d7696737cf133aa1d3150ed95abac",
            "type": "pubkey"
          }
        }
      ],
      "hex": "01000000010000000000000000000000000000000000000000000000000000000000000000ffffffff0804ffff001d022b02ffffffff0100f2052a01000000434104992560452cb1e29d08543872a5f54f341f7aa90c60a927765565434781d52fd040dd6d6d2b9063e259f234ff5026ff5f20586d7696737cf133aa1d3150ed95abac00000000"
    },
    {
      "txid": "2ccc3f59d28c709770a8bc478b112e10feda4bf55197c2e48deaa0eb6bca0311",
      "hash": "2ccc3f59d28c709770a8bc478b112e10feda4bf55197c2e48deaa0eb6bca0311",
      "version": 1,
      "size": 2326,
      "vsize": 2326,
      "weight": 9304,
      "locktime": 0,
      "vin": [
        {
          "txid": "9ff0b1260a271d5aaa8754527a27a0d1c2f2eb45d9966bbe5908c2c6d6a1b164",
          "vout": 0,
          "scriptSig": {
            "asm": "304502204464dc3788af495d691d7e89aca897370aa1f65031da6595df603dbe506d78c3022100c85950deefdc003cce2eaf6525cfa6f6016e120031ed0b21a09419cf9910d3fb[ALL]",
            "hex": "48304502204464dc3788af495d691d7e89aca897370aa1f65031da6595df603dbe506d78c3022100c85950deefdc003cce2eaf6525cfa6f6016e120031ed0b21a09419cf9910d3fb01"
          },
          "sequence": 4294967295
        },
        {
          "txid": "9d8b1783a0d985a30201406722871eeb48883a4fb3fa80bb55c06038df8d746c",
          "vout": 0,
          "scriptSig": {
            "asm": "3044022025a37ed650db76723a98f94ce3537892985498e10d4b20856a350c434feefde00220164d1202a73f14419fbdc46c578deae5e4dde458ed907c77178b845e05f01f3c[ALL]",
            "hex": "473044022025a37ed650db76723a98f94ce3537892985498e10d4b20856a350c434feefde00220164d1202a73f14419fbdc46c578deae5e4dde458ed907c77178b845e05f01f3c01"
          },
          "sequence": 4294967295
        },
        {
          "txid": "9231e1da1eaa6ee3d20f361510095ba924acb6123d12bfb382256b01fc4ede78",
          "vout": 0,
          "scriptSig": {
            "asm": "304402204874b63a4f744e5aa97dfc3a1a6125ed09b9ad57c46ec78cab90eb2906902796022072e172a835c4fa95025795f6313480d6e7d6f544cb4dec04a93f2a8cb9063d4b[ALL]",
            "hex": "47304402204874b63a4f744e5aa97dfc3a1a6125ed09b9ad57c46ec78cab90eb2906902796022072e172a835c4fa95025795f6313480d6e7d6f544cb4dec04a93f2a8cb9063d4b01"
          },
          "sequence": 4294967295
        },
        {
          "txid": "0e7b48c82b6753b9dc6ea597ec4b1c9fa2422c4a8c21b6691d0fed831e3a397b",
          "vout": 0,
          "scriptSig": {
            "asm": "30440220518da6a6da8cdbc747aea8f78a8f773b562b6adfb6972d293fd9318540c519610220664652b9668cd1ffde5907a43e198f49b8baafb7ba28e4d62467bce77ad5250c[ALL]",
            "hex": "4730440220518da6a6da8cdbc747aea8f78a8f773b562b6adfb6972d293fd9318540c519610220664652b9668cd1ffde5907a43e198f49b8baafb7ba28e4d62467bce77ad5250c01"
          },
          "sequence": 4294967295
        },
        {
          "txid": "4bee1bc9e43089cdf9e4b96448949904bdd6eb6c8415ca1c6401fd6edf9c8c80",
          "vout": 0,
          "scriptSig": {
            "asm": "30450220406b522dfabc547b3bc01c373627165b5680ed91fcb1bd403e5a5f0121fd863a022100979ff0c4a5a792dcbac2c00bfcf6c28d878b8b119119c5011b4a825a43949758[ALL]",
            "hex": "4830450220406b522dfabc547b3bc01c373627165b5680ed91fcb1bd403e5a5f0121fd863a022100979ff0c4a5a792dcbac2c00bfcf6c28d878b8b119119c5011b4a825a4394975801"
          },
          "sequence": 4294967295
        },
        {
          "txid": "8727eb9a871076420775a93fc141e309133394b4ae58d924c6c95670b7d3c782",
          "vout": 0,
          "scriptSig": {
            "asm": "3046022100dba98c672b3f10afa4a037df2cc013c75619881a70ec1b402f427efc2e01d908022100faca338d588a81a7e22d22b1b21a205145d421d448a1a56b08c889499f633c2a[ALL]",
            "hex": "493046022100dba98c672b3f10afa4a037df2cc013c75619881a70ec1b402f427efc2e01d908022100faca338d588a81a7e22d22b1b21a205145d421d448a1a56b08c889499f633c2a01"
          },
          "sequence": 4294967295
        },
        {
          "txid": "d4ed95947ebc108b88fe13d873522096463cf0796b0c11d7030dfe1790a31e87",
          "vout": 0,
          "scriptSig": {
            "asm": "304502203a4047759f64e87866df43db7ad7c0c753577e8bdc161986ec38f6112ee503e7022100e654fc17aa69360c00cab21a4f2506f82f72a721129a160322157b9279bddd0a[ALL]",
            "hex": "48304502203a4047759f64e87866df43db7ad7c0c753577e8bdc161986ec38f6112ee503e7022100e654fc17aa69360c00cab21a4f2506f82f72a721129a160322157b9279bddd0a01"
          },
          "sequence": 4294967295
        },
        {
          "txid": "1957ace81177bc5bef056a3692fca35b802e0bba20e919bbebb55ddfe17f3888",
          "vout": 0,
          "scriptSig": {
            "asm": "30460221008a0164e232e91868bc6aa60f7c9818111f4914473de946c224d22ad2a315082902210086b428fcd70492ecdf524fe08ef3cc571bf80597b2ccd35fb08e96055d807170[ALL]",
            "hex": "4930460221008a0164e232e91868bc6aa60f7c9818111f4914473de946c224d22ad2a315082902210086b428fcd70492ecdf524fe08ef3cc571bf80597b2ccd35fb08e96055d80717001"
          },
          "sequence": 4294967295
        },
        {
          "txid": "11dc0ab607d4d4a7ec4cbb82b6374399174ebbb4a3ab4b2aa55359dca1cf6f89",
          "vout": 0,
          "scriptSig": {
            "asm": "3046022100d57b90ae62844bb1e4c0ee5645f78aa04236c7be0066a088beee697c5e18aa4a022100bd387bcbe2dbeda88a71fe60354f583ebb91f8adf83cc3854227d0d0cfa05aec[ALL]",
            "hex": "493046022100d57b90ae62844bb1e4c0ee5645f78aa04236c7be0066a088beee697c5e18aa4a022100bd387bcbe2dbeda88a71fe60354f583ebb91f8adf83cc3854227d0d0cfa05aec01"
          },
          "sequence": 4294967295
        },
        {
          "txid": "a10158328253cd56bc10095d6bfe91f286dd2f634be0fc05f9171c8e188b0d8a",
          "vout": 0,
          "scriptSig": {
            "asm": "3046022100ad59b9d13cb85848d071cca54940dd949092b5a02df827ecfcd72236be0a0d87022100fa9991d76fb3f04286540e8087fb0a015d23695e242da4667965e835a1fdb652[ALL]",
            "hex": "493046022100ad59b9d13cb85848d071cca54940dd949092b5a02df827ecfcd72236be0a0d87022100fa9991d76fb3f04286540e8087fb0a015d23695e242da4667965e835a1fdb65201"
          },
          "sequence": 4294967295
        },
        {
          "txid": "22f9b1eb6d0eb792ee9d6ab046ade46134ee4d5f2a77a99d8914877fc072e09a",
          "vout": 0,
          "scriptSig": {
            "asm": "304502200ebc08834c1dec996b4c3e56d6f15323d7873e08bd33286d732686b08dfbab83022100f49734964bcaace79517e206e4f6c0da2fa84ffdd09b0f7beb7cd90a552d9471[ALL]",
            "hex": "48304502200ebc08834c1dec996b4c3e56d6f15323d7873e08bd33286d732686b08dfbab83022100f49734964bcaace79517e206e4f6c0da2fa84ffdd09b0f7beb7cd90a552d947101"
          },
          "sequence": 4294967295
        },
        {
          "txid": "2bfdafdd814d7059794b87672cce91dda9960b8225de85e731d2ef0ca5a7c3a0",
          "vout": 0,
          "scriptSig": {
            "asm": "304402202c2abbc41211af1daecaa8aa9cf1e6fc64110f905e20bf10572360647b021c5702206371ec96cab58640452f22a099685f7de214a58f470df0e0e0b3865b5314e903[ALL]",
            "hex": "47304402202c2abbc41211af1daecaa8aa9cf1e6fc64110f905e20bf10572360647b021c5702206371ec96cab58640452f22a099685f7de214a58f470df0e0e0b3865b5314e90301"
          },
          "sequence": 4294967295
        },
        {
          "txid": "56a66261e3ef265b8bb8d4e54c7692fad018ce6a282625990aea0652cd63a4a3",
          "vout": 0,
          "scriptSig": {
            "asm": "3045022100844deca73803f6a00a10952f833b40c8f75b9a446abccf72688fd163d7d0e9d802200238bb58d74c0405be87f0e832e8e634425ce80dcfa1ee3d5d373a211bca8d58[ALL]",
            "hex": "483045022100844deca73803f6a00a10952f833b40c8f75b9a446abccf72688fd163d7d0e9d802200238bb58d74c0405be87f0e832e8e634425ce80dcfa1ee3d5d373a211bca8d5801"
          },
          "sequence": 4294967295
        },
        {
          "txid": "67d57cd5c0ea4f919844bb981a306e7c4fcc9232d8179f34edaaa8fae7abd4af",
          "vout": 0,
          "scriptSig": {
            "asm": "3046022100b39a1a7734a7b943338ff505d2e7499167f18161800aae3a7be2e1e84b32a13e022100e6365d947101b6bd0694277bcd8b786d891c8f62877d03639ba0aa0e0cf895ee[ALL]",
            "hex": "493046022100b39a1a7734a7b943338ff505d2e7499167f18161800aae3a7be2e1e84b32a13e022100e6365d947101b6bd0694277bcd8b786d891c8f62877d03639ba0aa0e0cf895ee01"
          },
          "sequence": 4294967295
        },
        {
          "txid": "af5b4c9417d05229355f0a7ca74fdb6f320b2182f61cfd5303c17ef3ef3436bc",
          "vout": 0,
          "scriptSig": {
            "asm": "3046022100c1386af429a3b7f1b7f3a09a514799850c7a9f417247260834faced9eddeb6450221009eb2bdd405536f519aac790a56e68d660250c0f0ead7359215e219731ba5fb0c[ALL]",
            "hex": "493046022100c1386af429a3b7f1b7f3a09a514799850c7a9f417247260834faced9eddeb6450221009eb2bdd405536f519aac790a56e68d660250c0f0ead7359215e219731ba5fb0c01"
          },
          "sequence": 4294967295
        },
        {
          "txid": "1744372990897f287c453bbfd79017fc88646e0c4a973093b953b34b731785cc",
          "vout": 0,
          "scriptSig": {
            "asm": "304502200c05d4e9ba5e31ffe9a9a10abbe64c65360a25b9df86818dcd9cb520dce8464e022100fb5179c27bfafca6f7152a5cbb3b7d9f5bed39e8c26a242e962c353a28ce1d5b[ALL]",
            "hex": "48304502200c05d4e9ba5e31ffe9a9a10abbe64c65360a25b9df86818dcd9cb520dce8464e022100fb5179c27bfafca6f7152a5cbb3b7d9f5bed39e8c26a242e962c353a28ce1d5b01"
          },
          "sequence": 4294967295
        },
        {
          "txid": "1587eba00c30a43d9bc6a443543a9777bd2bd19fcc2bed49fed18b6cbeedefd3",
          "vout": 0,
          "scriptSig": {
            "asm": "3045022100fc77f82033bed120b5a86009d7c565a8ed97ac3bf93e84a840113cbe107987880220143d23f61761f7d78eee734c08c8333ecb3c9522e52e6767f50df7ea2e1be58c[ALL]",
            "hex": "483045022100fc77f82033bed120b5a86009d7c565a8ed97ac3bf93e84a840113cbe107987880220143d23f61761f7d78eee734c08c8333ecb3c9522e52e6767f50df7ea2e1be58c01"
          },
          "sequence": 4294967295
        },
        {
          "txid": "a320989b6e71abecdf7faaa0e2e8209a71c8826e1733228e43a96cd26f57b1df",
          "vout": 0,
          "scriptSig": {
            "asm": "304402207a8d847e124f5b51f02a488659d4f6c00737d4e402c193f2029dd783c6738ff90220144048c4d8eb83176b7536c022ca366bd81a478307d2fdc33d99beafdd5b0989[ALL]",
            "hex": "47304402207a8d847e124f5b51f02a488659d4f6c00737d4e402c193f2029dd783c6738ff90220144048c4d8eb83176b7536c022ca366bd81a478307d2fdc33d99beafdd5b098901"
          },
          "sequence": 4294967295
        },
        {
          "txid": "0acc6e1d3a580e5c18ed4df9acbf44a82224d679778a0badb2821095100b16eb",
          "vout": 0,
          "scriptSig": {
            "asm": "3046022100d8bf1b5633988c29834783e3e4e60ebb6bc8a3d2aafbb6ae74ac7708042ed0ac022100b47f4b1c159f6636d749972e9934d00860fbfa3511391671a9efe6f7acd4a210[ALL]",
            "hex": "493046022100d8bf1b5633988c29834783e3e4e60ebb6bc8a3d2aafbb6ae74ac7708042ed0ac022100b47f4b1c159f6636d749972e9934d00860fbfa3511391671a9efe6f7acd4a21001"
          },
          "sequence": 4294967295
        },
        {
          "txid": "52b9d1bd1bda273869d0442d41b3244d45ef7f0a386b313dd56debf9485cb1fa",
          "vout": 0,
          "scriptSig": {
            "asm": "3045022100a6ebf7e2ce53cb97e1d3659d8fee6d684ce4f8232d011fb95caa73aa18b157fc02202c9527d3e174a888dec9864f701f19a9b0924140337d12d2e0199ea54a982244[ALL]",
            "hex": "483045022100a6ebf7e2ce53cb97e1d3659d8fee6d684ce4f8232d011fb95caa73aa18b157fc02202c9527d3e174a888dec9864f701f19a9b0924140337d12d2e0199ea54a98224401"
          },
          "sequence": 4294967295
        }
      ],
      "vout": [
        {
          "value": 1000.0,
          "n": 0,
          "scriptPubKey": {
            "asm": "OP_DUP OP_HASH160 482f0027662731277fdfa3b7f639c976a3bab11e OP_EQUALVERIFY OP_CHECKSIG",
            "desc": "addr(17afxUJouat3fkaaQ9tZrDThxdkXGL4WrM)#7w3fl7am",
            "hex": "76a914482f0027662731277fdfa3b7f639c976a3bab11e88ac",
            "address": "17afxUJouat3fkaaQ9tZrDThxdkXGL4WrM",
            "type": "pubkeyhash"
          }
        }
      ],
      "fee": 0.0,
      "hex": "010000001464b1a1d6c6c20859be6b96d945ebf2c2d1a0277a525487aa5a1d270a26b1f09f000000004948304502204464dc3788af495d691d7e89aca897370aa1f65031da6595df603dbe506d78c3022100c85950deefdc003cce2eaf6525cfa6f6016e120031ed0b21a09419cf9910d3fb01ffffffff6c748ddf3860c055bb80fab34f3a8848eb1e872267400102a385d9a083178b9d0000000048473044022025a37ed650db76723a98f94ce3537892985498e10d4b20856a350c434feefde00220164d1202a73f14419fbdc46c578deae5e4dde458ed907c77178b845e05f01f3c01ffffffff78de4efc016b2582b3bf123d12b6ac24a95b091015360fd2e36eaa1edae13192000000004847304402204874b63a4f744e5aa97dfc3a1a6125ed09b9ad57c46ec78cab90eb2906902796022072e172a835c4fa95025795f6313480d6e7d6f544cb4dec04a93f2a8cb9063d4b01ffffffff7b393a1e83ed0f1d69b6218c4a2c42a29f1c4bec97a56edcb953672bc8487b0e00000000484730440220518da6a6da8cdbc747aea8f78a8f773b562b6adfb6972d293fd9318540c519610220664652b9668cd1ffde5907a43e198f49b8baafb7ba28e4d62467bce77ad5250c01ffffffff808c9cdf6efd01641cca15846cebd6bd0499944864b9e4f9cd8930e4c91bee4b00000000494830450220406b522dfabc547b3bc01c373627165b5680ed91fcb1bd403e5a5f0121fd863a022100979ff0c4a5a792dcbac2c00bfcf6c28d878b8b119119c5011b4a825a4394975801ffffffff82c7d3b77056c9c624d958aeb494331309e341c13fa97507427610879aeb2787000000004a493046022100dba98c672b3f10afa4a037df2cc013c75619881a70ec1b402f427efc2e01d908022100faca338d588a81a7e22d22b1b21a205145d421d448a1a56b08c889499f633c2a01ffffffff871ea39017fe0d03d7110c6b79f03c4696205273d813fe888b10bc7e9495edd4000000004948304502203a4047759f64e87866df43db7ad7c0c753577e8bdc161986ec38f6112ee503e7022100e654fc17aa69360c00cab21a4f2506f82f72a721129a160322157b9279bddd0a01ffffffff88387fe1df5db5ebbb19e920ba0b2e805ba3fc92366a05ef5bbc7711e8ac5719000000004a4930460221008a0164e232e91868bc6aa60f7c9818111f4914473de946c224d22ad2a315082902210086b428fcd70492ecdf524fe08ef3cc571bf80597b2ccd35fb08e96055d80717001ffffffff896fcfa1dc5953a52a4baba3b4bb4e17994337b682bb4ceca7d4d407b60adc11000000004a493046022100d57b90ae62844bb1e4c0ee5645f78aa04236c7be0066a088beee697c5e18aa4a022100bd387bcbe2dbeda88a71fe60354f583ebb91f8adf83cc3854227d0d0cfa05aec01ffffffff8a0d8b188e1c17f905fce04b632fdd86f291fe6b5d0910bc56cd5382325801a1000000004a493046022100ad59b9d13cb85848d071cca54940dd949092b5a02df827ecfcd72236be0a0d87022100fa9991d76fb3f04286540e8087fb0a015d23695e242da4667965e835a1fdb65201ffffffff9ae072c07f8714899da9772a5f4dee3461e4ad46b06a9dee92b70e6debb1f922000000004948304502200ebc08834c1dec996b4c3e56d6f15323d7873e08bd33286d732686b08dfbab83022100f49734964bcaace79517e206e4f6c0da2fa84ffdd09b0f7beb7cd90a552d947101ffffffffa0c3a7a50cefd231e785de25820b96a9dd91ce2c67874b7959704d81ddaffd2b000000004847304402202c2abbc41211af1daecaa8aa9cf1e6fc64110f905e20bf10572360647b021c5702206371ec96cab58640452f22a099685f7de214a58f470df0e0e0b3865b5314e90301ffffffffa3a463cd5206ea0a992526286ace18d0fa92764ce5d4b88b5b26efe36162a6560000000049483045022100844deca73803f6a00a10952f833b40c8f75b9a446abccf72688fd163d7d0e9d802200238bb58d74c0405be87f0e832e8e634425ce80dcfa1ee3d5d373a211bca8d5801ffffffffafd4abe7faa8aaed349f17d83292cc4f7c6e301a98bb4498914feac0d57cd567000000004a493046022100b39a1a7734a7b943338ff505d2e7499167f18161800aae3a7be2e1e84b32a13e022100e6365d947101b6bd0694277bcd8b786d891c8f62877d03639ba0aa0e0cf895ee01ffffffffbc3634eff37ec10353fd1cf682210b326fdb4fa77c0a5f352952d017944c5baf000000004a493046022100c1386af429a3b7f1b7f3a09a514799850c7a9f417247260834faced9eddeb6450221009eb2bdd405536f519aac790a56e68d660250c0f0ead7359215e219731ba5fb0c01ffffffffcc8517734bb353b99330974a0c6e6488fc1790d7bf3b457c287f899029374417000000004948304502200c05d4e9ba5e31ffe9a9a10abbe64c65360a25b9df86818dcd9cb520dce8464e022100fb5179c27bfafca6f7152a5cbb3b7d9f5bed39e8c26a242e962c353a28ce1d5b01ffffffffd3efedbe6c8bd1fe49ed2bcc9fd12bbd77973a5443a4c69b3da4300ca0eb87150000000049483045022100fc77f82033bed120b5a86009d7c565a8ed97ac3bf93e84a840113cbe107987880220143d23f61761f7d78eee734c08c8333ecb3c9522e52e6767f50df7ea2e1be58c01ffffffffdfb1576fd26ca9438e2233176e82c8719a20e8e2a0aa7fdfecab716e9b9820a3000000004847304402207a8d847e124f5b51f02a488659d4f6c00737d4e402c193f2029dd783c6738ff90220144048c4d8eb83176b7536c022ca366bd81a478307d2fdc33d99beafdd5b098901ffffffffeb160b10951082b2ad0b8a7779d62422a844bfacf94ded185c0e583a1d6ecc0a000000004a493046022100d8bf1b5633988c29834783e3e4e60ebb6bc8a3d2aafbb6ae74ac7708042ed0ac022100b47f4b1c159f6636d749972e9934d00860fbfa3511391671a9efe6f7acd4a21001fffffffffab15c48f9eb6dd53d316b380a7fef454d24b3412d44d0693827da1bbdd1b9520000000049483045022100a6ebf7e2ce53cb97e1d3659d8fee6d684ce4f8232d011fb95caa73aa18b157fc02202c9527d3e174a888dec9864f701f19a9b0924140337d12d2e0199ea54a98224401ffffffff0100e87648170000001976a914482f0027662731277fdfa3b7f639c976a3bab11e88ac00000000"
    }
  ]
}