{
  "hash": "00000000d3ebca0f1cf140987959ba9231e9da43f3f76aed02d0cfe9d88b71d7",
  "confirmations": 52448,
  "height": 650,
  "version": 1,
  "versionHex": "00000001",
  "merkleroot": "81b436dd80442ed552e36c5e02f75862404ea2e5db591ef2ba02362ada9647ad",
  "time": 1232069443,
  "mediantime": 1232065648,
  "nonce": 1715125028,
  "bits": "1d00ffff",
  "difficulty": 1,
  "chainwork": "0000000000000000000000000000000000000000000000000000028b028b028b",
  "nTx": 1,
  "previousblockhash": "00000000a99927e355bb8699c583c2214cc796c42aa28b82337979b60ef3af1d",
  "nextblockhash": "000000002b5e03ee6029c1f5703b7baaf097630ca55f91d93ddd412eb0d054e5",
  "strippedsize": 216,
  "size": 216,
  "weight": 864,
  "tx": [
    {
      "txid": "81b436dd80442ed552e36c5e02f75862404ea2e5db591ef2ba02362ada9647ad",
      "hash": "81b436dd80442ed552e36c5e02f75862404ea2e5db591ef2ba02362ada9647ad",
      "version": 1,
      "size": 135,
      "vsize": 135,
      "weight": 540,
      "locktime": 0,
      "vin": [
        {
          "coinbase": "04ffff001d028007",
          "sequence": 4294967295
        }
      ],
      "vout": [
        {
          "value": 50.0,
          "n": 0,
          "scriptPubKey": {
            "asm": "041f79952d016b7e983dcfbffafc97dd69d631ca2f05e8424f2c6a2af636ffcb9777804afa8fd7aa665dbeb6b9ebc8bfe62ab2ba88bea535949fdad922faa0e2ee OP_CHECKSIG",
            "desc": "pk(041f79952d016b7e983dcfbffafc97dd69d631ca2f05e8424f2c6a2af636ffcb9777804afa8fd7aa665dbeb6b9ebc8bfe62ab2ba88bea535949fdad922faa0e2ee)#wg9urafu",
            "hex": "41041f79952d016b7e983dcfbffafc97dd69d631ca2f05e8424f2c6a2af636ffcb9777804afa8fd7aa665dbeb6b9ebc8bfe62ab2ba88bea535949fdad922faa0e2eeac",
            "type": "pubkey"
          }
        }
      ],
      "hex": "01000000010000000000000000000000000000000000000000000000000000000000000000ffffffff0804ffff001d028007ffffffff0100f2052a010000004341041f79952d016b7e983dcfbffafc97dd69d631ca2f05e8424f2c6a2af636ffcb9777804afa8fd7aa665dbeb6b9ebc8bfe62ab2ba88bea535949fdad922faa0e2eeac00000000"
    }
  ]
}