{
  "hash": "0000000070e7c2095f3e9d63e095b55bd48df7610b9dddaebb9309568c84c675",
  "confirmations": 43986,
  "height": 9112,
  "version": 1,
  "versionHex": "00000001",
  "merkleroot": "6aebb4a764a027436f703ca9d42d0735423798f56973f9f236832a91fc2e9026",
  "time": 1238338538,
  "mediantime": 1238336481,
  "nonce": 4363453,
  "bits": "1d00ffff",
  "difficulty": 1,
  "chainwork": "0000000000000000000000000000000000000000000000000000239923992399",
  "nTx": 1,
  "previousblockhash": "00000000acf14366ae6b071ad62a7bcaaab52b0ace43ef6d885a7f03810b81f3",
  "nextblockhash": "000000004b23d8bfe2c7f7c631bd6080ac46d7b3460a848817e6d7755dd1ba89",
  "strippedsize": 215,
  "size": 215,
  "weight": 860,
  "tx": [
    {
      "txid": "6aebb4a764a027436f703ca9d42d0735423798f56973f9f236832a91fc2e9026",
      "hash": "6aebb4a764a027436f703ca9d42d0735423798f56973f9f236832a91fc2e9026",
      "version": 1,
      "size": 134,
      "vsize": 134,
      "weight": 536,
      "locktime": 0,
      "vin": [
        {
          "coinbase": "04ffff001d016c",
          "sequence": 4294967295
        }
      ],
      "vout": [
        {
          "value": 50.0,
          "n": 0,
          "scriptPubKey": {
            "asm": "0465766b9fb7b9c23e4d7196c7a4d38fb098a4dcce180afab3ef76568beb25fb96338f8a687bd992357b191f682a60179d251debf04d51567ca3476722ec46b8f7 OP_CHECKSIG",
            "desc": "pk(0465766b9fb7b9c23e4d7196c7a4d38fb098a4dcce180afab3ef76568beb25fb96338f8a687bd992357b191f682a60179d251debf04d51567ca3476722ec46b8f7)#9w9qzf64",
            "hex": "410465766b9fb7b9c23e4d7196c7a4d38fb098a4dcce180afab3ef76568beb25fb96338f8a687bd992357b191f682a60179d251debf04d51567ca3476722ec46b8f7ac",
            "type": "pubkey"
          }
        }
      ],
      "hex": "01000000010000000000000000000000000000000000000000000000000000000000000000ffffffff0704ffff001d016cffffffff0100f2052a0100000043410465766b9fb7b9c23e4d7196c7a4d38fb098a4dcce180afab3ef76568beb25fb96338f8a687bd992357b191f682a60179d251debf04d51567ca3476722ec46b8f7ac00000000"
    }
  ]
}