{
  "hash": "000000005c552871e824c471bff51197bd91a6e7b1de71f1aa992855be14703e",
  "confirmations": 48884,
  "height": 4214,
  "version": 1,
  "versionHex": "00000001",
  "merkleroot": "be0777ab4a4dab12f600e4446ea17669650d7a895e3db08ac7c20f9b9eccb71f",
  "time": 1234588146,
  "mediantime": 1234585388,
  "nonce": 3189762818,
  "bits": "1d00ffff",
  "difficulty": 1,
  "chainwork": "0000000000000000000000000000000000000000000000000000107710771077",
  "nTx": 1,
  "previousblockhash": "00000000e0d4840503e1b8230b0352d0709b65cb41afb86ca033214cac319daa",
  "nextblockhash": "00000000699d1a6e1e675cf02df9380d6968bbe683d02b54f67afb8fc9eda69f",
  "strippedsize": 216,
  "size": 216,
  "weight": 864,
  "tx": [
    {
      "txid": "be0777ab4a4dab12f600e4446ea17669650d7a895e3db08ac7c20f9b9eccb71f",
      "hash": "be0777ab4a4dab12f600e4446ea17669650d7a895e3db08ac7c20f9b9eccb71f",
      "version": 1,
      "size": 135,
      "vsize": 135,
      "weight": 540,
      "locktime": 0,
      "vin": [
        {
          "coinbase": "04ffff001d025d07",
          "sequence": 4294967295
        }
      ],
      "vout": [
        {
          "value": 50.0,
          "n": 0,
          "scriptPubKey": {
            "asm": "042ac3e0220de939a58ef4a756deb4833064d1aa4f5ec500718da6df14b4c4883866f4b79ec1417c1dab0bacfa33a5c3665e58216df205aca22d6ba8e27d5d8a85 OP_CHECKSIG",
            "desc": "pk(042ac3e0220de939a58ef4a756deb4833064d1aa4f5ec500718da6df14b4c4883866f4b79ec1417c1dab0bacfa33a5c3665e58216df205aca22d6ba8e27d5d8a85)#h4ammqen",
            "hex": "41042ac3e0220de939a58ef4a756deb4833064d1aa4f5ec500718da6df14b4c4883866f4b79ec1417c1dab0bacfa33a5c3665e58216df205aca22d6ba8e27d5d8a85ac",
            "type": "pubkey"
          }
        }
      ],
      "hex": "01000000010000000000000000000000000000000000000000000000000000000000000000ffffffff0804ffff001d025d07ffffffff0100f2052a010000004341042ac3e0220de939a58ef4a756deb4833064d1aa4f5ec500718da6df14b4c4883866f4b79ec1417c1dab0bacfa33a5c3665e58216df205aca22d6ba8e27d5d8a85ac00000000"
    }
  ]
}