{
  "hash": "0000000085b25ed759f375678f80ca0dff8ed09f9f7c962f34d3fa21338e77ae",
  "confirmations": 50547,
  "height": 2551,
  "version": 1,
  "versionHex": "00000001",
  "merkleroot": "0e28f8f7ce0a71e3bbedc56af16345c36c3f84f1983f6b000cff0a35e9bbcddc",
  "time": 1233454707,
  "mediantime": 1233449296,
  "nonce": 4064915240,
  "bits": "1d00ffff",
  "difficulty": 1,
  "chainwork": "000000000000000000000000000000000000000000000000000009f809f809f8",
  "nTx": 1,
  "previousblockhash": "000000007f682ac5a58caa156e06a87ef5944a165ee0b33edbfc4cee0cdd5549",
  "nextblockhash": "000000006cce0482b0fbfbbfe67429287230a2fa8280116374bb34ae1666fc5e",
  "strippedsize": 216,
  "size": 216,
  "weight": 864,
  "tx": [
    {
      "txid": "0e28f8f7ce0a71e3bbedc56af16345c36c3f84f1983f6b000cff0a35e9bbcddc",
      "hash": "0e28f8f7ce0a71e3bbedc56af16345c36c3f84f1983f6b000cff0a35e9bbcddc",
      "version": 1,
      "size": 135,
      "vsize": 135,
      "weight": 540,
      "locktime": 0,
      "vin": [
        {
          "coinbase": "04ffff001d02e301",
          "sequence": 4294967295
        }
      ],
      "vout": [
        {
          "value": 50.0,
          "n": 0,
          "scriptPubKey": {
            "asm": "045137955228de157f6b37133ae47cd6127f1e79d0e22c42df0444330187e9ccbdec40136a604cddcf00659517c442376254cff2afa48eeb091d473312b8c0ac16 OP_CHECKSIG",
            "desc": "pk(045137955228de157f6b37133ae47cd6127f1e79d0e22c42df0444330187e9ccbdec40136a604cddcf00659517c442376254cff2afa48eeb091d473312b8c0ac16)#f0jl5ruz",
            "hex": "41045137955228de157f6b37133ae47cd6127f1e79d0e22c42df0444330187e9ccbdec40136a604cddcf00659517c442376254cff2afa48eeb091d473312b8c0ac16ac",
            "type": "pubkey"
          }
        }
      ],
      "hex": "01000000010000000000000000000000000000000000000000000000000000000000000000ffffffff0804ffff001d02e301ffffffff0100f2052a010000004341045137955228de157f6b37133ae47cd6127f1e79d0e22c42df0444330187e9ccbdec40136a604cddcf00659517c442376254cff2afa48eeb091d473312b8c0ac16ac00000000"
    }
  ]
}