{
  "hash": "000000009ab599bf5edb629d03ab5f7a83204c3e3d91fe800cf87c0314db5cab",
  "confirmations": 47764,
  "height": 5334,
  "version": 1,
  "versionHex": "00000001",
  "merkleroot": "b46aae420f12ed4598e5862947ceedb073c7b798111d34cc156280d875681067",
  "time": 1235391276,
  "mediantime": 1235385830,
  "nonce": 2100895783,
  "bits": "1d00ffff",
  "difficulty": 1,
  "chainwork": "000000000000000000000000000000000000000000000000000014d714d714d7",
  "nTx": 1,
  "previousblockhash": "00000000b0bf481b4d8b9bf9f01097f68a6227893b588b019ca8dc69b70b8821",
  "nextblockhash": "0000000098bb546b5c9de3f5d54247747fc1314447d421ecdfd5a4464c101303",
  "strippedsize": 216,
  "size": 216,
  "weight": 864,
  "tx": [
    {
      "txid": "b46aae420f12ed4598e5862947ceedb073c7b798111d34cc156280d875681067",
      "hash": "b46aae420f12ed4598e5862947ceedb073c7b798111d34cc156280d875681067",
      "version": 1,
      "size": 135,
      "vsize": 135,
      "weight": 540,
      "locktime": 0,
      "vin": [
        {
          "coinbase": "04ffff001d029102",
          "sequence": 4294967295
        }
      ],
      "vout": [
        {
          "value": 50.0,
          "n": 0,
          "scriptPubKey": {
            "asm": "04de0f528ca717fc1cc8d11b2df3570bb326a9fa7f04d9eb74270e8981cdc8633567570cedb2e1bd03f82cff1220b1491c386553e63b6a57dd6836f285e4f2f9ac OP_CHECKSIG",
            "desc": "pk(04de0f528ca717fc1cc8d11b2df3570bb326a9fa7f04d9eb74270e8981cdc8633567570cedb2e1bd03f82cff1220b1491c386553e63b6a57dd6836f285e4f2f9ac)#pnp6dqt4",
            "hex": "4104de0f528ca717fc1cc8d11b2df3570bb326a9fa7f04d9eb74270e8981cdc8633567570cedb2e1bd03f82cff1220b1491c386553e63b6a57dd6836f285e4f2f9acac",
            "type": "pubkey"
          }
        }
      ],
      "hex": "01000000010000000000000000000000000000000000000000000000000000000000000000ffffffff0804ffff001d029102ffffffff0100f2052a01000000434104de0f528ca717fc1cc8d11b2df3570bb326a9fa7f04d9eb74270e8981cdc8633567570cedb2e1bd03f82cff1220b1491c386553e63b6a57dd6836f285e4f2f9acac00000000"
    }
  ]
}