{
  "hash": "00000000cee1ebe5ca4698c8dc203ec6a430eb43f85326273c5934a428861df0",
  "confirmations": 43763,
  "height": 9335,
  "version": 1,
  "versionHex": "00000001",
  "merkleroot": "88e8f5a0d648ae1d649cbf97d82926254518d65eebc1a86f10121222ed65c7d7",
  "time": 1238500479,
  "mediantime": 1238497937,
  "nonce": 3852299035,
  "bits": "1d00ffff",
  "difficulty": 1,
  "chainwork": "0000000000000000000000000000000000000000000000000000247824782478",
  "nTx": 1,
  "previousblockhash": "00000000261b4765edf334510ef4e167cbaf58406af6281891b4d57595c10fc9",
  "nextblockhash": "000000000494c1e7e3c3b80f24c736542c0a28e24c710d91f9d727fa13dceb21",
  "strippedsize": 216,
  "size": 216,
  "weight": 864,
  "tx": [
    {
      "txid": "88e8f5a0d648ae1d649cbf97d82926254518d65eebc1a86f10121222ed65c7d7",
      "hash": "88e8f5a0d648ae1d649cbf97d82926254518d65eebc1a86f10121222ed65c7d7",
      "version": 1,
      "size": 135,
      "vsize": 135,
      "weight": 540,
      "locktime": 0,
      "vin": [
        {
          "coinbase": "04ffff001d026d02",
          "sequence": 4294967295
        }
      ],
      "vout": [
        {
          "value": 50.0,
          "n": 0,
          "scriptPubKey": {
            "asm": "04a23326cfca83040790b6d4b03c61512ccfeccbe4fc8fff81f425253c492c5fa677cd021db17626e2025a72d36b855e0c3ab606455bdc252ac858677b9dab2ee9 OP_CHECKSIG",
            "desc": "pk(04a23326cfca83040790b6d4b03c61512ccfeccbe4fc8fff81f425253c492c5fa677cd021db17626e2025a72d36b855e0c3ab606455bdc252ac858677b9dab2ee9)#nj6l24d0",
            "hex": "4104a23326cfca83040790b6d4b03c61512ccfeccbe4fc8fff81f425253c492c5fa677cd021db17626e2025a72d36b855e0c3ab606455bdc252ac858677b9dab2ee9ac",
            "type": "pubkey"
          }
        }
      ],
      "hex": "01000000010000000000000000000000000000000000000000000000000000000000000000ffffffff0804ffff001d026d02ffffffff0100f2052a01000000434104a23326cfca83040790b6d4b03c61512ccfeccbe4fc8fff81f425253c492c5fa677cd021db17626e2025a72d36b855e0c3ab606455bdc252ac858677b9dab2ee9ac00000000"
    }
  ]
}