{
  "hash": "000000006cd8ffb7b7496ec2b01cb251530d8c5a9a7e7ee0fdd1ac0610da6187",
  "confirmations": 49818,
  "height": 3280,
  "version": 1,
  "versionHex": "00000001",
  "merkleroot": "d86f7eede585ef6ad9431a20f9ffd7f52afadffbd6da781bed793ec576867d65",
  "time": 1233956115,
  "mediantime": 1233952899,
  "nonce": 106143995,
  "bits": "1d00ffff",
  "difficulty": 1,
  "chainwork": "00000000000000000000000000000000000000000000000000000cd10cd10cd1",
  "nTx": 1,
  "previousblockhash": "000000005291c77fea7e93abaecc93f7afb4ba684ceb855bb3b4f1ee6db25a51",
  "nextblockhash": "000000001a3871d7fc9627c500469389400d085796595d1f53829742e19ab1b8",
  "strippedsize": 216,
  "size": 216,
  "weight": 864,
  "tx": [
    {
      "txid": "d86f7eede585ef6ad9431a20f9ffd7f52afadffbd6da781bed793ec576867d65",
      "hash": "d86f7eede585ef6ad9431a20f9ffd7f52afadffbd6da781bed793ec576867d65",
      "version": 1,
      "size": 135,
      "vsize": 135,
      "weight": 540,
      "locktime": 0,
      "vin": [
        {
          "coinbase": "04ffff001d029700",
          "sequence": 4294967295
        }
      ],
      "vout": [
        {
          "value": 50.0,
          "n": 0,
          "scriptPubKey": {
            "asm": "04c8b332abec94be064f4ee049900e88f098254778b0a6a84f542288aa90b50a2569112b780401a5e98a3b80a15b677d0bf557d52f9e7476a89a22151e0ff2fbe1 OP_CHECKSIG",
            "desc": "pk(04c8b332abec94be064f4ee049900e88f098254778b0a6a84f542288aa90b50a2569112b780401a5e98a3b80a15b677d0bf557d52f9e7476a89a22151e0ff2fbe1)#ctl8lj4x",
            "hex": "4104c8b332abec94be064f4ee049900e88f098254778b0a6a84f542288aa90b50a2569112b780401a5e98a3b80a15b677d0bf557d52f9e7476a89a22151e0ff2fbe1ac",
            "type": "pubkey"
          }
        }
      ],
      "hex": "01000000010000000000000000000000000000000000000000000000000000000000000000ffffffff0804ffff001d029700ffffffff0100f2052a01000000434104c8b332abec94be064f4ee049900e88f098254778b0a6a84f542288aa90b50a2569112b780401a5e98a3b80a15b677d0bf557d52f9e7476a89a22151e0ff2fbe1ac00000000"
    }
  ]
}