{
  "hash": "000000000631c2052f9da47327cd63591ea2c13ef8d0e1d74dcf9299d9a1b760",
  "confirmations": 46707,
  "height": 6391,
  "version": 1,
  "versionHex": "00000001",
  "merkleroot": "ab5cea8f07fc5e006d97d200b7bedb93adbaf33d8c12e93181af5ba5d47def2b",
  "time": 1236248827,
  "mediantime": 1236245455,
  "nonce": 3351848990,
  "bits": "1d00ffff",
  "difficulty": 1,
  "chainwork": "000000000000000000000000000000000000000000000000000018f818f818f8",
  "nTx": 1,
  "previousblockhash": "00000000fb149a0767bd488d7cf9e913c1cf709d6dac767a6c77d6f9b5448ee8",
  "nextblockhash": "000000009e77e4c6620a31d873c666d4e4e81ebb96b153eb248690140322cc4d",
  "strippedsize": 216,
  "size": 216,
  "weight": 864,
  "tx": [
    {
      "txid": "ab5cea8f07fc5e006d97d200b7bedb93adbaf33d8c12e93181af5ba5d47def2b",
      "hash": "ab5cea8f07fc5e006d97d200b7bedb93adbaf33d8c12e93181af5ba5d47def2b",
      "version": 1,
      "size": 135,
      "vsize": 135,
      "weight": 540,
      "locktime": 0,
      "vin": [
        {
          "coinbase": "04ffff001d02a001",
          "sequence": 4294967295
        }
      ],
      "vout": [
        {
          "value": 50.0,
          "n": 0,
          "scriptPubKey": {
            "asm": "04cf1390eca91deaa3c17c545c1e10a93b0cbb8eb61b97becca7f299ea2980f5e03f55eefb91213c1719d8734c32d427e7840eebe913b2d22c990f78b2f2096e39 OP_CHECKSIG",
            "desc": "pk(04cf1390eca91deaa3c17c545c1e10a93b0cbb8eb61b97becca7f299ea2980f5e03f55eefb91213c1719d8734c32d427e7840eebe913b2d22c990f78b2f2096e39)#7uhl0fz6",
            "hex": "4104cf1390eca91deaa3c17c545c1e10a93b0cbb8eb61b97becca7f299ea2980f5e03f55eefb91213c1719d8734c32d427e7840eebe913b2d22c990f78b2f2096e39ac",
            "type": "pubkey"
          }
        }
      ],
      "hex": "01000000010000000000000000000000000000000000000000000000000000000000000000ffffffff0804ffff001d02a001ffffffff0100f2052a01000000434104cf1390eca91deaa3c17c545c1e10a93b0cbb8eb61b97becca7f299ea2980f5e03f55eefb91213c1719d8734c32d427e7840eebe913b2d22c990f78b2f2096e39ac00000000"
    }
  ]
}