{
  "hash": "00000000af33e1eea00b0c03076f5a06291d59622f39920b53710f0d60fc8489",
  "confirmations": 51417,
  "height": 1681,
  "version": 1,
  "versionHex": "00000001",
  "merkleroot": "eecffffaa81558f06f28597d1f14e557eb8e16fbc50ca481e1e12e2a6de7704f",
  "time": 1232844253,
  "mediantime": 1232842734,
  "nonce": 227606790,
  "bits": "1d00ffff",
  "difficulty": 1,
  "chainwork": "0000000000000000000000000000000000000000000000000000069206920692",
  "nTx": 1,
  "previousblockhash": "00000000a88d6a14d79b7afd292071916cb04899411fcbc83131e86e5f98269b",
  "nextblockhash": "00000000b9ca35c786ff52a0b9eccb7730ae1a033d6313a43f28bc95b571cd1a",
  "strippedsize": 216,
  "size": 216,
  "weight": 864,
  "tx": [
    {
      "txid": "eecffffaa81558f06f28597d1f14e557eb8e16fbc50ca481e1e12e2a6de7704f",
      "hash": "eecffffaa81558f06f28597d1f14e557eb8e16fbc50ca481e1e12e2a6de7704f",
      "version": 1,
      "size": 135,
      "vsize": 135,
      "weight": 540,
      "locktime": 0,
      "vin": [
        {
          "coinbase": "04ffff001d02dd02",
          "sequence": 4294967295
        }
      ],
      "vout": [
        {
          "value": 50.0,
          "n": 0,
          "scriptPubKey": {
            "asm": "0412a8cca4f450bcf328dcdfc9e21cbd7cf86fc862cefb8d07d8cab9b657d44b5a3362996e8ed9f895fcfccce754acc24ad97dbd9461fa6810585df5da96aee26f OP_CHECKSIG",
            "desc": "pk(0412a8cca4f450bcf328dcdfc9e21cbd7cf86fc862cefb8d07d8cab9b657d44b5a3362996e8ed9f895fcfccce754acc24ad97dbd9461fa6810585df5da96aee26f)#xlhnhz09",
            "hex": "410412a8cca4f450bcf328dcdfc9e21cbd7cf86fc862cefb8d07d8cab9b657d44b5a3362996e8ed9f895fcfccce754acc24ad97dbd9461fa6810585df5da96aee26fac",
            "type": "pubkey"
          }
        }
      ],
      "hex": "01000000010000000000000000000000000000000000000000000000000000000000000000ffffffff0804ffff001d02dd02ffffffff0100f2052a0100000043410412a8cca4f450bcf328dcdfc9e21cbd7cf86fc862cefb8d07d8cab9b657d44b5a3362996e8ed9f895fcfccce754acc24ad97dbd9461fa6810585df5da96aee26fac00000000"
    }
  ]
}