{
  "hash": "000000008a2cc8de40740016b39102e38b0e532e3fc7b318e2d23c3ea2c1bd7a",
  "confirmations": 50701,
  "height": 2397,
  "version": 1,
  "versionHex": "00000001",
  "merkleroot": "104516b5a344b8d21e76c33ec906037a00e338df9e61f73abfc107eb92bed3a1",
  "time": 1233352257,
  "mediantime": 1233347828,
  "nonce": 4259556402,
  "bits": "1d00ffff",
  "difficulty": 1,
  "chainwork": "0000000000000000000000000000000000000000000000000000095e095e095e",
  "nTx": 1,
  "previousblockhash": "00000000dda6be51081341e04d1e120c18ab2d0d4c7a85c93a5a8ad3a17ef713",
  "nextblockhash": "00000000507f2d91edb7d97fd6518e4f8cf624f49c56640bd7c79c811fa5e458",
  "strippedsize": 216,
  "size": 216,
  "weight": 864,
  "tx": [
    {
      "txid": "104516b5a344b8d21e76c33ec906037a00e338df9e61f73abfc107eb92bed3a1",
      "hash": "104516b5a344b8d21e76c33ec906037a00e338df9e61f73abfc107eb92bed3a1",
      "version": 1,
      "size": 135,
      "vsize": 135,
      "weight": 540,
      "locktime": 0,
      "vin": [
        {
          "coinbase": "04ffff001d02bc03",
          "sequence": 4294967295
        }
      ],
      "vout": [
        {
          "value": 50.0,
          "n": 0,
          "scriptPubKey": {
            "asm": "04601ee8b9dc9c04b09a474ef5ec39aced1c077ecfc4e37e0e718971e1f033bdeef1dc783d41a358bad94754e5719182a71d26dbc80a64c41aab2146b03aa43609 OP_CHECKSIG",
            "desc": "pk(04601ee8b9dc9c04b09a474ef5ec39aced1c077ecfc4e37e0e718971e1f033bdeef1dc783d41a358bad94754e5719182a71d26dbc80a64c41aab2146b03aa43609)#de5zmd2r",
            "hex": "4104601ee8b9dc9c04b09a474ef5ec39aced1c077ecfc4e37e0e718971e1f033bdeef1dc783d41a358bad94754e5719182a71d26dbc80a64c41aab2146b03aa43609ac",
            "type": "pubkey"
          }
        }
      ],
      "hex": "01000000010000000000000000000000000000000000000000000000000000000000000000ffffffff0804ffff001d02bc03ffffffff0100f2052a01000000434104601ee8b9dc9c04b09a474ef5ec39aced1c077ecfc4e37e0e718971e1f033bdeef1dc783d41a358bad94754e5719182a71d26dbc80a64c41aab2146b03aa43609ac00000000"
    }
  ]
}