{
  "hash": "00000000c75f6a78ff4a93b86b7f3aaf3708ddf963992b58d5bb9ef51f433642",
  "confirmations": 52307,
  "height": 791,
  "version": 1,
  "versionHex": "00000001",
  "merkleroot": "11159855022d25c7d8df81c0b61255ac0a72cea3ea3ff7685b55522821481d0c",
  "time": 1232183635,
  "mediantime": 1232180428,
  "nonce": 1836754726,
  "bits": "1d00ffff",
  "difficulty": 1,
  "chainwork": "0000000000000000000000000000000000000000000000000000031803180318",
  "nTx": 1,
  "previousblockhash": "000000007dc74ef3358ad4bec22f9b3a46ad7596b66ab5eb71e72ae562b47f83",
  "nextblockhash": "00000000be17c92a1664248ec855e4b4a930bfc492defe7a9428d80e5f1c1211",
  "strippedsize": 216,
  "size": 216,
  "weight": 864,
  "tx": [
    {
      "txid": "11159855022d25c7d8df81c0b61255ac0a72cea3ea3ff7685b55522821481d0c",
      "hash": "11159855022d25c7d8df81c0b61255ac0a72cea3ea3ff7685b55522821481d0c",
      "version": 1,
      "size": 135,
      "vsize": 135,
      "weight": 540,
      "locktime": 0,
      "vin": [
        {
          "coinbase": "04ffff001d024901",
          "sequence": 4294967295
        }
      ],
      "vout": [
        {
          "value": 50.0,
          "n": 0,
          "scriptPubKey": {
            "asm": "0495b28a7ed09fcccbfee5c9176a0f2518e50e47348b43d51d15b44f34fdd791d3982c769fd5e60965c5df5d0e0b8dc27e68cca763701b8b46494305d60081cc99 OP_CHECKSIG",
            "desc": "pk(0495b28a7ed09fcccbfee5c9176a0f2518e50e47348b43d51d15b44f34fdd791d3982c769fd5e60965c5df5d0e0b8dc27e68cca763701b8b46494305d60081cc99)#38e2cdql",
            "hex": "410495b28a7ed09fcccbfee5c9176a0f2518e50e47348b43d51d15b44f34fdd791d3982c769fd5e60965c5df5d0e0b8dc27e68cca763701b8b46494305d60081cc99ac",
            "type": "pubkey"
          }
        }
      ],
      "hex": "01000000010000000000000000000000000000000000000000000000000000000000000000ffffffff0804ffff001d024901ffffffff0100f2052a0100000043410495b28a7ed09fcccbfee5c9176a0f2518e50e47348b43d51d15b44f34fdd791d3982c769fd5e60965c5df5d0e0b8dc27e68cca763701b8b46494305d60081cc99ac00000000"
    }
  ]
}