{
  "hash": "00000000f365aa200968bb9808c3566d7d2465b4b3c93aa8a3cb9079f32cbb2f",
  "confirmations": 51947,
  "height": 90,
  "version": 1,
  "versionHex": "00000001",
  "merkleroot": "9f94cc5c9211258c39f048f4da42dd3048e4d1434c2eff2d28dbf3b3612775c6",
  "time": 1231653550,
  "mediantime": 1231650483,
  "nonce": 2639785492,
  "bits": "1d00ffff",
  "difficulty": 1,
  "chainwork": "0000000000000000000000000000000000000000000000000000005b005b005b",
  "nTx": 1,
  "previousblockhash": "0000000076d9ec583c757b8911406afe4d021aed0e5f30c16e65c82a71af32c2",
  "nextblockhash": "000000006e55c92b2a940de67b1314e150f0c72d0468c625f4f267fa30b8c1b1",
  "strippedsize": 215,
  "size": 215,
  "weight": 860,
  "tx": [
    {
      "txid": "9f94cc5c9211258c39f048f4da42dd3048e4d1434c2eff2d28dbf3b3612775c6",
      "hash": "9f94cc5c9211258c39f048f4da42dd3048e4d1434c2eff2d28dbf3b3612775c6",
      "version": 1,
      "size": 134,
      "vsize": 134,
      "weight": 536,
      "locktime": 0,
      "vin": [
        {
          "coinbase": "04ffff001d0123",
          "sequence": 4294967295
        }
      ],
      "vout": [
        {
          "value": 50.0,
          "n": 0,
          "scriptPubKey": {
            "asm": "04580bf58d578798b7ac68e19e933ffe544045b43b05ec4b2a40b5da5371664bd88bd008ce766a37607ea34b29b18e2a6a0bd1c47d025eeddf6afd88a193cacdac OP_CHECKSIG",
            "desc": "pk(04580bf58d578798b7ac68e19e933ffe544045b43b05ec4b2a40b5da5371664bd88bd008ce766a37607ea34b29b18e2a6a0bd1c47d025eeddf6afd88a193cacdac)#pg93u4pm",
            "hex": "4104580bf58d578798b7ac68e19e933ffe544045b43b05ec4b2a40b5da5371664bd88bd008ce766a37607ea34b29b18e2a6a0bd1c47d025eeddf6afd88a193cacdacac",
            "type": "pubkey"
          }
        }
      ],
      "hex": "01000000010000000000000000000000000000000000000000000000000000000000000000ffffffff0704ffff001d0123ffffffff0100f2052a01000000434104580bf58d578798b7ac68e19e933ffe544045b43b05ec4b2a40b5da5371664bd88bd008ce766a37607ea34b29b18e2a6a0bd1c47d025eeddf6afd88a193cacdacac00000000"
    }
  ]
}