{
  "hash": "000000005addc3c13a441ba0532387a240907929a1029cd3553efee30acb9880",
  "confirmations": 45668,
  "height": 7430,
  "version": 1,
  "versionHex": "00000001",
  "merkleroot": "f8c43ad2ee1faad5567d12dd545ed215311ac60280961d8174703e55a1ecf827",
  "time": 1237045148,
  "mediantime": 1237041509,
  "nonce": 78505640,
  "bits": "1d00ffff",
  "difficulty": 1,
  "chainwork": "00000000000000000000000000000000000000000000000000001d071d071d07",
  "nTx": 1,
  "previousblockhash": "000000009cde9cde5c331b51a8166b8e0ff9dabc4d8cc1c0afb81c7ead6e1ad2",
  "nextblockhash": "0000000012bdcd3576bdef9371a94e68dcdf31351e79ae7911f822c084a966c6",
  "strippedsize": 216,
  "size": 216,
  "weight": 864,
  "tx": [
    {
      "txid": "f8c43ad2ee1faad5567d12dd545ed215311ac60280961d8174703e55a1ecf827",
      "hash": "f8c43ad2ee1faad5567d12dd545ed215311ac60280961d8174703e55a1ecf827",
      "version": 1,
      "size": 135,
      "vsize": 135,
      "weight": 540,
      "locktime": 0,
      "vin": [
        {
          "coinbase": "04ffff001d02a402",
          "sequence": 4294967295
        }
      ],
      "vout": [
        {
          "value": 50.0,
          "n": 0,
          "scriptPubKey": {
            "asm": "0406dbd33899524696234cb9e0964ef6013f5636076453e874abe4287cb8636a0ee408d5bd41be48879e5462964114d2b1dd58434969b13f12b3c8b47d78c9ac11 OP_CHECKSIG",
            "desc": "pk(0406dbd33899524696234cb9e0964ef6013f5636076453e874abe4287cb8636a0ee408d5bd41be48879e5462964114d2b1dd58434969b13f12b3c8b47d78c9ac11)#jgwe8hkp",
            "hex": "410406dbd33899524696234cb9e0964ef6013f5636076453e874abe4287cb8636a0ee408d5bd41be48879e5462964114d2b1dd58434969b13f12b3c8b47d78c9ac11ac",
            "type": "pubkey"
          }
        }
      ],
      "hex": "01000000010000000000000000000000000000000000000000000000000000000000000000ffffffff0804ffff001d02a402ffffffff0100f2052a0100000043410406dbd33899524696234cb9e0964ef6013f5636076453e874abe4287cb8636a0ee408d5bd41be48879e5462964114d2b1dd58434969b13f12b3c8b47d78c9ac11ac00000000"
    }
  ]
}