{
  "hash": "00000000c458c22c6f410e89196ec635aa6e816b99c6a0054c2332fce646bbdb",
  "confirmations": 43772,
  "height": 9326,
  "version": 1,
  "versionHex": "00000001",
  "merkleroot": "b4baf6014fb337c1e04b3c1fef41542c1ac7579d700d0c78d3e73956df16e563",
  "time": 1238493226,
  "mediantime": 1238489575,
  "nonce": 2643056433,
  "bits": "1d00ffff",
  "difficulty": 1,
  "chainwork": "0000000000000000000000000000000000000000000000000000246f246f246f",
  "nTx": 1,
  "previousblockhash": "000000007e0311199389a24ea5f110872900737957520ebd543cdbb0d27b85ea",
  "nextblockhash": "0000000091d4de698e62f92b77990f39d6613afbccd4d1bc258dd8aed90ff894",
  "strippedsize": 216,
  "size": 216,
  "weight": 864,
  "tx": [
    {
      "txid": "b4baf6014fb337c1e04b3c1fef41542c1ac7579d700d0c78d3e73956df16e563",
      "hash": "b4baf6014fb337c1e04b3c1fef41542c1ac7579d700d0c78d3e73956df16e563",
      "version": 1,
      "size": 135,
      "vsize": 135,
      "weight": 540,
      "locktime": 0,
      "vin": [
        {
          "coinbase": "04ffff001d023902",
          "sequence": 4294967295
        }
      ],
      "vout": [
        {
          "value": 50.0,
          "n": 0,
          "scriptPubKey": {
            "asm": "041f9e5ae8226f8a9bc91274a59d7f7a1e5b0eca1fc2a9932778222de474515e022f00206daeea63c258b38080689330a1c84ca289f5fdd67d1002bff2033cdef2 OP_CHECKSIG",
            "desc": "pk(041f9e5ae8226f8a9bc91274a59d7f7a1e5b0eca1fc2a9932778222de474515e022f00206daeea63c258b38080689330a1c84ca289f5fdd67d1002bff2033cdef2)#hnyd3ltf",
            "hex": "41041f9e5ae8226f8a9bc91274a59d7f7a1e5b0eca1fc2a9932778222de474515e022f00206daeea63c258b38080689330a1c84ca289f5fdd67d1002bff2033cdef2ac",
            "type": "pubkey"
          }
        }
      ],
      "hex": "01000000010000000000000000000000000000000000000000000000000000000000000000ffffffff0804ffff001d023902ffffffff0100f2052a010000004341041f9e5ae8226f8a9bc91274a59d7f7a1e5b0eca1fc2a9932778222de474515e022f00206daeea63c258b38080689330a1c84ca289f5fdd67d1002bff2033cdef2ac00000000"
    }
  ]
}