{
  "hash": "00000000380bd2cb07ed5b938a7ba8bbedb3024ac90b146f730fd0540113cf96",
  "confirmations": 50865,
  "height": 2233,
  "version": 1,
  "versionHex": "00000001",
  "merkleroot": "8d02c5d9ef5111105927975810ccd0000aa0e5ae8ccffecea7bfb6f3755dc5f6",
  "time": 1233236546,
  "mediantime": 1233234130,
  "nonce": 3729598216,
  "bits": "1d00ffff",
  "difficulty": 1,
  "chainwork": "000000000000000000000000000000000000000000000000000008ba08ba08ba",
  "nTx": 1,
  "previousblockhash": "00000000d128995c0a95a56c5a045331f26a7b3d77c5f2705558564c970848cf",
  "nextblockhash": "000000005c0ba648f2c36c96ce5043b0838300e4b164f3bddf8039efeab66671",
  "strippedsize": 216,
  "size": 216,
  "weight": 864,
  "tx": [
    {
      "txid": "8d02c5d9ef5111105927975810ccd0000aa0e5ae8ccffecea7bfb6f3755dc5f6",
      "hash": "8d02c5d9ef5111105927975810ccd0000aa0e5ae8ccffecea7bfb6f3755dc5f6",
      "version": 1,
      "size": 135,
      "vsize": 135,
      "weight": 540,
      "locktime": 0,
      "vin": [
        {
          "coinbase": "04ffff001d02d100",
          "sequence": 4294967295
        }
      ],
      "vout": [
        {
          "value": 50.0,
          "n": 0,
          "scriptPubKey": {
            "asm": "04d64f68a22aff34c727736aa43a6894d35145653a2e371246d2aea7504e1a810d7e440a132318967cadc7a1835ffac2c0ceb48c9e6ef0773ece9567562cfc7391 OP_CHECKSIG",
            "desc": "pk(04d64f68a22aff34c727736aa43a6894d35145653a2e371246d2aea7504e1a810d7e440a132318967cadc7a1835ffac2c0ceb48c9e6ef0773ece9567562cfc7391)#03laaxpx",
            "hex": "4104d64f68a22aff34c727736aa43a6894d35145653a2e371246d2aea7504e1a810d7e440a132318967cadc7a1835ffac2c0ceb48c9e6ef0773ece9567562cfc7391ac",
            "type": "pubkey"
          }
        }
      ],
      "hex": "01000000010000000000000000000000000000000000000000000000000000000000000000ffffffff0804ffff001d02d100ffffffff0100f2052a01000000434104d64f68a22aff34c727736aa43a6894d35145653a2e371246d2aea7504e1a810d7e440a132318967cadc7a1835ffac2c0ceb48c9e6ef0773ece9567562cfc7391ac00000000"
    }
  ]
}