{
  "hash": "000000004b5d03a850f59cf1a8e247de501c5052a4fd595b4f1adb605be4d510",
  "confirmations": 52163,
  "height": 469,
  "version": 1,
  "versionHex": "00000001",
  "merkleroot": "33db652c79452f6fdaca7e073eab0319829125e71e5a5e8ccb837091cb788e47",
  "time": 1231948092,
  "mediantime": 1231944640,
  "nonce": 1885568045,
  "bits": "1d00ffff",
  "difficulty": 1,
  "chainwork": "000000000000000000000000000000000000000000000000000001d601d601d6",
  "nTx": 1,
  "previousblockhash": "00000000f6009cbf9337145686ef3fe3ca2c0d640cd9005efa3c6c41b9714c01",
  "nextblockhash": "00000000fd3546b2d219faa87a34e1e6593769d753cf86fc647c4ee2a07710d1",
  "strippedsize": 216,
  "size": 216,
  "weight": 864,
  "tx": [
    {
      "txid": "33db652c79452f6fdaca7e073eab0319829125e71e5a5e8ccb837091cb788e47",
      "hash": "33db652c79452f6fdaca7e073eab0319829125e71e5a5e8ccb837091cb788e47",
      "version": 1,
      "size": 135,
      "vsize": 135,
      "weight": 540,
      "locktime": 0,
      "vin": [
        {
          "coinbase": "04ffff001d02f503",
          "sequence": 4294967295
        }
      ],
      "vout": [
        {
          "value": 50.0,
          "n": 0,
          "scriptPubKey": {
            "asm": "04ff0440b54c52ad744f06be1eee2c67bc28c8e03f05ba213c9b2aacf02407515b9b9053e03a22eb68fab600f19c97b61c998d407940dc9d1ec7a053e410886ceb OP_CHECKSIG",
            "desc": "pk(04ff0440b54c52ad744f06be1eee2c67bc28c8e03f05ba213c9b2aacf02407515b9b9053e03a22eb68fab600f19c97b61c998d407940dc9d1ec7a053e410886ceb)#rql5ardt",
            "hex": "4104ff0440b54c52ad744f06be1eee2c67bc28c8e03f05ba213c9b2aacf02407515b9b9053e03a22eb68fab600f19c97b61c998d407940dc9d1ec7a053e410886cebac",
            "type": "pubkey"
          }
        }
      ],
      "hex": "01000000010000000000000000000000000000000000000000000000000000000000000000ffffffff0804ffff001d02f503ffffffff0100f2052a01000000434104ff0440b54c52ad744f06be1eee2c67bc28c8e03f05ba213c9b2aacf02407515b9b9053e03a22eb68fab600f19c97b61c998d407940dc9d1ec7a053e410886cebac00000000"
    }
  ]
}