{
  "hash": "000000004b52938d0547fc2e74faf023150355592ada03105252c8fc0a46f7b0",
  "confirmations": 50064,
  "height": 3034,
  "version": 1,
  "versionHex": "00000001",
  "merkleroot": "d6d0503054ce1862f16bfed98e1a8eea4fd2359988cd3351f0d6c5abc04445a5",
  "time": 1233784407,
  "mediantime": 1233781644,
  "nonce": 1069958447,
  "bits": "1d00ffff",
  "difficulty": 1,
  "chainwork": "00000000000000000000000000000000000000000000000000000bdb0bdb0bdb",
  "nTx": 1,
  "previousblockhash": "000000003cfe3e2403cc46de7c6c3e20221786af4f4577da48225bbb539b5d5e",
  "nextblockhash": "00000000e72f88ce6d4dee4e455614eb146a965634ffc16aee5c0483372091de",
  "strippedsize": 216,
  "size": 216,
  "weight": 864,
  "tx": [
    {
      "txid": "d6d0503054ce1862f16bfed98e1a8eea4fd2359988cd3351f0d6c5abc04445a5",
      "hash": "d6d0503054ce1862f16bfed98e1a8eea4fd2359988cd3351f0d6c5abc04445a5",
      "version": 1,
      "size": 135,
      "vsize": 135,
      "weight": 540,
      "locktime": 0,
      "vin": [
        {
          "coinbase": "04ffff001d02d601",
          "sequence": 4294967295
        }
      ],
      "vout": [
        {
          "value": 50.0,
          "n": 0,
          "scriptPubKey": {
            "asm": "044aae422199bb5609bdbcecfcbacbea5566c4c9703bdb55ef7562173c8330dc6422dfbf9bcc8e96c55eed1cfc67ae70668f05484326a449b9504e3bb48c2bbf0c OP_CHECKSIG",
            "desc": "pk(044aae422199bb5609bdbcecfcbacbea5566c4c9703bdb55ef7562173c8330dc6422dfbf9bcc8e96c55eed1cfc67ae70668f05484326a449b9504e3bb48c2bbf0c)#kj8yrzfg",
            "hex": "41044aae422199bb5609bdbcecfcbacbea5566c4c9703bdb55ef7562173c8330dc6422dfbf9bcc8e96c55eed1cfc67ae70668f05484326a449b9504e3bb48c2bbf0cac",
            "type": "pubkey"
          }
        }
      ],
      "hex": "01000000010000000000000000000000000000000000000000000000000000000000000000ffffffff0804ffff001d02d601ffffffff0100f2052a010000004341044aae422199bb5609bdbcecfcbacbea5566c4c9703bdb55ef7562173c8330dc6422dfbf9bcc8e96c55eed1cfc67ae70668f05484326a449b9504e3bb48c2bbf0cac00000000"
    }
  ]
}