{
  "hash": "00000000af567d147c0ff1353285ad51e2b904c958b36c45e5d4a99c124d6092",
  "confirmations": 44640,
  "height": 8458,
  "version": 1,
  "versionHex": "00000001",
  "merkleroot": "7e757227d24b0d053a157ccfda82ad7e0685553f1c0a3b41741418bce941cad2",
  "time": 1237835173,
  "mediantime": 1237832099,
  "nonce": 49111105,
  "bits": "1d00ffff",
  "difficulty": 1,
  "chainwork": "0000000000000000000000000000000000000000000000000000210b210b210b",
  "nTx": 1,
  "previousblockhash": "000000006ef058072941c3af8ff373e2a8fd59fe1caf0c6795b2cc54d1fa2d71",
  "nextblockhash": "0000000030c24b159bdf032c24fb14eeb798320e9f4e11d636aeb8eae48b9e71",
  "strippedsize": 215,
  "size": 215,
  "weight": 860,
  "tx": [
    {
      "txid": "7e757227d24b0d053a157ccfda82ad7e0685553f1c0a3b41741418bce941cad2",
      "hash": "7e757227d24b0d053a157ccfda82ad7e0685553f1c0a3b41741418bce941cad2",
      "version": 1,
      "size": 134,
      "vsize": 134,
      "weight": 536,
      "locktime": 0,
      "vin": [
        {
          "coinbase": "04ffff001d013e",
          "sequence": 4294967295
        }
      ],
      "vout": [
        {
          "value": 50.0,
          "n": 0,
          "scriptPubKey": {
            "asm": "04eef0ec2bbd51a5a8555afc48f7500842a3a45f9587d0c6acf6100e3137a37bf1f6745c3bf5b7fdf27dedf13ee36e9a47b0f0dcfb3911b6c353b6519367d66509 OP_CHECKSIG",
            "desc": "pk(04eef0ec2bbd51a5a8555afc48f7500842a3a45f9587d0c6acf6100e3137a37bf1f6745c3bf5b7fdf27dedf13ee36e9a47b0f0dcfb3911b6c353b6519367d66509)#wl6f2ppa",
            "hex": "4104eef0ec2bbd51a5a8555afc48f7500842a3a45f9587d0c6acf6100e3137a37bf1f6745c3bf5b7fdf27dedf13ee36e9a47b0f0dcfb3911b6c353b6519367d66509ac",
            "type": "pubkey"
          }
        }
      ],
      "hex": "01000000010000000000000000000000000000000000000000000000000000000000000000ffffffff0704ffff001d013effffffff0100f2052a01000000434104eef0ec2bbd51a5a8555afc48f7500842a3a45f9587d0c6acf6100e3137a37bf1f6745c3bf5b7fdf27dedf13ee36e9a47b0f0dcfb3911b6c353b6519367d66509ac00000000"
    }
  ]
}