{
  "hash": "00000000999ce780989805801b399602fde87ddfa9cfee24fc44b33793b181e4",
  "confirmations": 46027,
  "height": 7071,
  "version": 1,
  "versionHex": "00000001",
  "merkleroot": "2ea2963dce11e5e5303411ae4c9a50145f9a63b5d903d324400280576b1dd3fd",
  "time": 1236773364,
  "mediantime": 1236770779,
  "nonce": 67617953,
  "bits": "1d00ffff",
  "difficulty": 1,
  "chainwork": "00000000000000000000000000000000000000000000000000001ba01ba01ba0",
  "nTx": 1,
  "previousblockhash": "00000000fe45448bacba3458f23ea03591766f94a53a278f8797ac7d59e50abf",
  "nextblockhash": "00000000956cc093eb4a15ee93b0027cdd35fc90185060501a1b4d77f7aa596e",
  "strippedsize": 216,
  "size": 216,
  "weight": 864,
  "tx": [
    {
      "txid": "2ea2963dce11e5e5303411ae4c9a50145f9a63b5d903d324400280576b1dd3fd",
      "hash": "2ea2963dce11e5e5303411ae4c9a50145f9a63b5d903d324400280576b1dd3fd",
      "version": 1,
      "size": 135,
      "vsize": 135,
      "weight": 540,
      "locktime": 0,
      "vin": [
        {
          "coinbase": "04ffff001d028b00",
          "sequence": 4294967295
        }
      ],
      "vout": [
        {
          "value": 50.0,
          "n": 0,
          "scriptPubKey": {
            "asm": "046631ee85fdbc0504db385d379748ab7115924ff21ba94163638600e92d29f58d0f0505549825e5fbfc0f19970b68963713a5edb3fbf61a99c4812bffab8b1d1f OP_CHECKSIG",
            "desc": "pk(046631ee85fdbc0504db385d379748ab7115924ff21ba94163638600e92d29f58d0f0505549825e5fbfc0f19970b68963713a5edb3fbf61a99c4812bffab8b1d1f)#2202cggx",
            "hex": "41046631ee85fdbc0504db385d379748ab7115924ff21ba94163638600e92d29f58d0f0505549825e5fbfc0f19970b68963713a5edb3fbf61a99c4812bffab8b1d1fac",
            "type": "pubkey"
          }
        }
      ],
      "hex": "01000000010000000000000000000000000000000000000000000000000000000000000000ffffffff0804ffff001d028b00ffffffff0100f2052a010000004341046631ee85fdbc0504db385d379748ab7115924ff21ba94163638600e92d29f58d0f0505549825e5fbfc0f19970b68963713a5edb3fbf61a99c4812bffab8b1d1fac00000000"
    }
  ]
}