{
  "hash": "00000000d0b483c7e7ba3ac75e979d6d42a173ce40f6dd0428903a400b032450",
  "confirmations": 51738,
  "height": 1360,
  "version": 1,
  "versionHex": "00000001",
  "merkleroot": "1982ece48755fccba4d5b25653fd7680340240fb3b5faa313e7bf8f3534908a4",
  "time": 1232650833,
  "mediantime": 1232646520,
  "nonce": 602605108,
  "bits": "1d00ffff",
  "difficulty": 1,
  "chainwork": "0000000000000000000000000000000000000000000000000000055105510551",
  "nTx": 1,
  "previousblockhash": "00000000937216a873edd99bf12eef27ed5c3ccbbd8b0f42f931887d314d8038",
  "nextblockhash": "00000000174f4dcbf9ce8f5af28ebcab270cabc9066c67fb2d856c1227111e0e",
  "strippedsize": 216,
  "size": 216,
  "weight": 864,
  "tx": [
    {
      "txid": "1982ece48755fccba4d5b25653fd7680340240fb3b5faa313e7bf8f3534908a4",
      "hash": "1982ece48755fccba4d5b25653fd7680340240fb3b5faa313e7bf8f3534908a4",
      "version": 1,
      "size": 135,
      "vsize": 135,
      "weight": 540,
      "locktime": 0,
      "vin": [
        {
          "coinbase": "04ffff001d025601",
          "sequence": 4294967295
        }
      ],
      "vout": [
        {
          "value": 50.0,
          "n": 0,
          "scriptPubKey": {
            "asm": "04dda7b23477c72d2afff0b9a0dac799b99234a1636e9d723e4a5b176ab4c69f3c27be73b95596343d38909a71884471c0f6c5b83af35dd9c9f6504d469c3dd7c7 OP_CHECKSIG",
            "desc": "pk(04dda7b23477c72d2afff0b9a0dac799b99234a1636e9d723e4a5b176ab4c69f3c27be73b95596343d38909a71884471c0f6c5b83af35dd9c9f6504d469c3dd7c7)#0w6xp89h",
            "hex": "4104dda7b23477c72d2afff0b9a0dac799b99234a1636e9d723e4a5b176ab4c69f3c27be73b95596343d38909a71884471c0f6c5b83af35dd9c9f6504d469c3dd7c7ac",
            "type": "pubkey"
          }
        }
      ],
      "hex": "01000000010000000000000000000000000000000000000000000000000000000000000000ffffffff0804ffff001d025601ffffffff0100f2052a01000000434104dda7b23477c72d2afff0b9a0dac799b99234a1636e9d723e4a5b176ab4c69f3c27be73b95596343d38909a71884471c0f6c5b83af35dd9c9f6504d469c3dd7c7ac00000000"
    }
  ]
}