{
  "hash": "0000000046887292a76cd113a5fd6af38b17c9fb77e5936cd9856694030598f9",
  "confirmations": 52323,
  "height": 501,
  "version": 1,
  "versionHex": "00000001",
  "merkleroot": "cfbba5a04f23049b63941e3ff5d57aa1431671281f2e3ade1a7050ffdd284377",
  "time": 1231969111,
  "mediantime": 1231965655,
  "nonce": 65090162,
  "bits": "1d00ffff",
  "difficulty": 1,
  "chainwork": "000000000000000000000000000000000000000000000000000001f601f601f6",
  "nTx": 1,
  "previousblockhash": "000000004ff664bfa7d217f6df64c1627089061429408e1da5ef903b8f3c77db",
  "nextblockhash": "000000003727134a4823b6c4c5245e961fff7816fc494742fb0abd353c94757b",
  "strippedsize": 215,
  "size": 215,
  "weight": 860,
  "tx": [
    {
      "txid": "cfbba5a04f23049b63941e3ff5d57aa1431671281f2e3ade1a7050ffdd284377",
      "hash": "cfbba5a04f23049b63941e3ff5d57aa1431671281f2e3ade1a7050ffdd284377",
      "version": 1,
      "size": 134,
      "vsize": 134,
      "weight": 536,
      "locktime": 0,
      "vin": [
        {
          "coinbase": "04ffff001d0106",
          "sequence": 4294967295
        }
      ],
      "vout": [
        {
          "value": 50.0,
          "n": 0,
          "scriptPubKey": {
            "asm": "04ceee1b864e673eb4492b9b0c8c938fea6343dba5556cff41beee4ad994a6d2365b80751ba263d160e1fdc4523ac46cee651ad21c2f5c629ec0ed060ac1f51b39 OP_CHECKSIG",
            "desc": "pk(04ceee1b864e673eb4492b9b0c8c938fea6343dba5556cff41beee4ad994a6d2365b80751ba263d160e1fdc4523ac46cee651ad21c2f5c629ec0ed060ac1f51b39)#p72yqxv6",
            "hex": "4104ceee1b864e673eb4492b9b0c8c938fea6343dba5556cff41beee4ad994a6d2365b80751ba263d160e1fdc4523ac46cee651ad21c2f5c629ec0ed060ac1f51b39ac",
            "type": "pubkey"
          }
        }
      ],
      "hex": "01000000010000000000000000000000000000000000000000000000000000000000000000ffffffff0704ffff001d0106ffffffff0100f2052a01000000434104ceee1b864e673eb4492b9b0c8c938fea6343dba5556cff41beee4ad994a6d2365b80751ba263d160e1fdc4523ac46cee651ad21c2f5c629ec0ed060ac1f51b39ac00000000"
    }
  ]
}