{
  "hash": "000000000354f5855e16e6079550d4a6ec7338afc03fea201102fea5669f20d3",
  "confirmations": 51136,
  "height": 1962,
  "version": 1,
  "versionHex": "00000001",
  "merkleroot": "2df9ed530291b6d316a856d0ca6e314c90ddab34d9d329328adad5054d46e01e",
  "time": 1233018927,
  "mediantime": 1233013503,
  "nonce": 1860708138,
  "bits": "1d00ffff",
  "difficulty": 1,
  "chainwork": "000000000000000000000000000000000000000000000000000007ab07ab07ab",
  "nTx": 1,
  "previousblockhash": "00000000acdfcd699a667d7089a912e5fe83d7cf9e465512b8491f51452e5308",
  "nextblockhash": "000000002fdf6fd4dc8c37d894e5a188c2878135f4b875fd3d7aa3ad987a0bfd",
  "strippedsize": 216,
  "size": 216,
  "weight": 864,
  "tx": [
    {
      "txid": "2df9ed530291b6d316a856d0ca6e314c90ddab34d9d329328adad5054d46e01e",
      "hash": "2df9ed530291b6d316a856d0ca6e314c90ddab34d9d329328adad5054d46e01e",
      "version": 1,
      "size": 135,
      "vsize": 135,
      "weight": 540,
      "locktime": 0,
      "vin": [
        {
          "coinbase": "04ffff001d02eb00",
          "sequence": 4294967295
        }
      ],
      "vout": [
        {
          "value": 50.0,
          "n": 0,
          "scriptPubKey": {
            "asm": "0417e369d07e3f1ff08c5daefa08ca9c29ca8ddaa7ff17f7e404f6222a14502df3f9fea46d3a94b30d516442634fa45c9febf3db77a8028136efef2391e32187cc OP_CHECKSIG",
            "desc": "pk(0417e369d07e3f1ff08c5daefa08ca9c29ca8ddaa7ff17f7e404f6222a14502df3f9fea46d3a94b30d516442634fa45c9febf3db77a8028136efef2391e32187cc)#punhu87g",
            "hex": "410417e369d07e3f1ff08c5daefa08ca9c29ca8ddaa7ff17f7e404f6222a14502df3f9fea46d3a94b30d516442634fa45c9febf3db77a8028136efef2391e32187ccac",
            "type": "pubkey"
          }
        }
      ],
      "hex": "01000000010000000000000000000000000000000000000000000000000000000000000000ffffffff0804ffff001d02eb00ffffffff0100f2052a0100000043410417e369d07e3f1ff08c5daefa08ca9c29ca8ddaa7ff17f7e404f6222a14502df3f9fea46d3a94b30d516442634fa45c9febf3db77a8028136efef2391e32187ccac00000000"
    }
  ]
}