{
  "hash": "000000000f4a3e27d33ce020c4681a8bdbe02ca4fd3942c274643b5c04438fcd",
  "confirmations": 47388,
  "height": 5710,
  "version": 1,
  "versionHex": "00000001",
  "merkleroot": "057b3244bec0b0e53943291f5fac697e10f3edbcb3cd6d453d73b72b09eed44d",
  "time": 1235693661,
  "mediantime": 1235690124,
  "nonce": 4093216296,
  "bits": "1d00ffff",
  "difficulty": 1,
  "chainwork": "0000000000000000000000000000000000000000000000000000164f164f164f",
  "nTx": 1,
  "previousblockhash": "000000009b18aac679451a3aaadaf78819dc0d35b53ddc1bdb3e138f0d0570ef",
  "nextblockhash": "0000000012ba043f594c5d02b5726ef408a4798c1bec7ee64a42860232037c3f",
  "strippedsize": 216,
  "size": 216,
  "weight": 864,
  "tx": [
    {
      "txid": "057b3244bec0b0e53943291f5fac697e10f3edbcb3cd6d453d73b72b09eed44d",
      "hash": "057b3244bec0b0e53943291f5fac697e10f3edbcb3cd6d453d73b72b09eed44d",
      "version": 1,
      "size": 135,
      "vsize": 135,
      "weight": 540,
      "locktime": 0,
      "vin": [
        {
          "coinbase": "04ffff001d029a09",
          "sequence": 4294967295
        }
      ],
      "vout": [
        {
          "value": 50.0,
          "n": 0,
          "scriptPubKey": {
            "asm": "04e8e9a3f6dcd0ac44b893e83b4d4a92688bff32d4e9f1591cdf9ec5887ebf2ce055ef6855a0768f37f3bbc4c0699fca846ea97ca697f3433258394f8fd3ab8588 OP_CHECKSIG",
            "desc": "pk(04e8e9a3f6dcd0ac44b893e83b4d4a92688bff32d4e9f1591cdf9ec5887ebf2ce055ef6855a0768f37f3bbc4c0699fca846ea97ca697f3433258394f8fd3ab8588)#0ry3mw8j",
            "hex": "4104e8e9a3f6dcd0ac44b893e83b4d4a92688bff32d4e9f1591cdf9ec5887ebf2ce055ef6855a0768f37f3bbc4c0699fca846ea97ca697f3433258394f8fd3ab8588ac",
            "type": "pubkey"
          }
        }
      ],
      "hex": "01000000010000000000000000000000000000000000000000000000000000000000000000ffffffff0804ffff001d029a09ffffffff0100f2052a01000000434104e8e9a3f6dcd0ac44b893e83b4d4a92688bff32d4e9f1591cdf9ec5887ebf2ce055ef6855a0768f37f3bbc4c0699fca846ea97ca697f3433258394f8fd3ab8588ac00000000"
    }
  ]
}