{
  "hash": "00000000a556a878cce7db79101d4aa4481c056ff1a3b58d21bb24fe8a2923ee",
  "confirmations": 45470,
  "height": 7628,
  "version": 1,
  "versionHex": "00000001",
  "merkleroot": "7c97eda77cf1b08b7623af5c9ed76b3975eef23c1ab38cbdc3ceaf98fd8183b0",
  "time": 1237188611,
  "mediantime": 1237184989,
  "nonce": 327941100,
  "bits": "1d00ffff",
  "difficulty": 1,
  "chainwork": "00000000000000000000000000000000000000000000000000001dcd1dcd1dcd",
  "nTx": 1,
  "previousblockhash": "00000000de9f0771ae3f40bbe1758276b521b2a0e5475c32f96d16bd9f8c67e8",
  "nextblockhash": "00000000cf627daddffebff0e5b09083aadeddbca4a0a168fd6ca4218d2d5eef",
  "strippedsize": 216,
  "size": 216,
  "weight": 864,
  "tx": [
    {
      "txid": "7c97eda77cf1b08b7623af5c9ed76b3975eef23c1ab38cbdc3ceaf98fd8183b0",
      "hash": "7c97eda77cf1b08b7623af5c9ed76b3975eef23c1ab38cbdc3ceaf98fd8183b0",
      "version": 1,
      "size": 135,
      "vsize": 135,
      "weight": 540,
      "locktime": 0,
      "vin": [
        {
          "coinbase": "04ffff001d026a03",
          "sequence": 4294967295
        }
      ],
      "vout": [
        {
          "value": 50.0,
          "n": 0,
          "scriptPubKey": {
            "asm": "047ec8b751f67971474cb021877e91ac48ed4c72b9351fad2305ace76fcad72fd8ec60e2ac0e4b22edd6a405a98c51828d87c97d781a33d9ab5f56a76b24ec6bf4 OP_CHECKSIG",
            "desc": "pk(047ec8b751f67971474cb021877e91ac48ed4c72b9351fad2305ace76fcad72fd8ec60e2ac0e4b22edd6a405a98c51828d87c97d781a33d9ab5f56a76b24ec6bf4)#kfa53evx",
            "hex": "41047ec8b751f67971474cb021877e91ac48ed4c72b9351fad2305ace76fcad72fd8ec60e2ac0e4b22edd6a405a98c51828d87c97d781a33d9ab5f56a76b24ec6bf4ac",
            "type": "pubkey"
          }
        }
      ],
      "hex": "01000000010000000000000000000000000000000000000000000000000000000000000000ffffffff0804ffff001d026a03ffffffff0100f2052a010000004341047ec8b751f67971474cb021877e91ac48ed4c72b9351fad2305ace76fcad72fd8ec60e2ac0e4b22edd6a405a98c51828d87c97d781a33d9ab5f56a76b24ec6bf4ac00000000"
    }
  ]
}