{
  "hash": "0000000051bd25f779cd3ef8cb567fa3a904a5f0224c637e15add1efb67943ca",
  "confirmations": 46379,
  "height": 6719,
  "version": 1,
  "versionHex": "00000001",
  "merkleroot": "055606f09585841b699e0c6244aa3c2d217d90d9467d0d0d0679e6c82d51af8b",
  "time": 1236498019,
  "mediantime": 1236492548,
  "nonce": 3982591025,
  "bits": "1d00ffff",
  "difficulty": 1,
  "chainwork": "00000000000000000000000000000000000000000000000000001a401a401a40",
  "nTx": 1,
  "previousblockhash": "00000000d9e38de1dd2a732270a11a7df79978b7aabd7ac205980576b07420c1",
  "nextblockhash": "000000005cf02d8195cb19206576d9be36f8858fd5661f5c99441b5d693e3227",
  "strippedsize": 216,
  "size": 216,
  "weight": 864,
  "tx": [
    {
      "txid": "055606f09585841b699e0c6244aa3c2d217d90d9467d0d0d0679e6c82d51af8b",
      "hash": "055606f09585841b699e0c6244aa3c2d217d90d9467d0d0d0679e6c82d51af8b",
      "version": 1,
      "size": 135,
      "vsize": 135,
      "weight": 540,
      "locktime": 0,
      "vin": [
        {
          "coinbase": "04ffff001d025a07",
          "sequence": 4294967295
        }
      ],
      "vout": [
        {
          "value": 50.0,
          "n": 0,
          "scriptPubKey": {
            "asm": "042d022f6324af10ea1006138fafbb280a622fec2815271cab2c3845ef731c21f09a00d9e64dbd9c36d32015184da92e7027fc7b87aed5c53efc576924e70ba4df OP_CHECKSIG",
            "desc": "pk(042d022f6324af10ea1006138fafbb280a622fec2815271cab2c3845ef731c21f09a00d9e64dbd9c36d32015184da92e7027fc7b87aed5c53efc576924e70ba4df)#u6np9q84",
            "hex": "41042d022f6324af10ea1006138fafbb280a622fec2815271cab2c3845ef731c21f09a00d9e64dbd9c36d32015184da92e7027fc7b87aed5c53efc576924e70ba4dfac",
            "type": "pubkey"
          }
        }
      ],
      "hex": "01000000010000000000000000000000000000000000000000000000000000000000000000ffffffff0804ffff001d025a07ffffffff0100f2052a010000004341042d022f6324af10ea1006138fafbb280a622fec2815271cab2c3845ef731c21f09a00d9e64dbd9c36d32015184da92e7027fc7b87aed5c53efc576924e70ba4dfac00000000"
    }
  ]
}