{
  "hash": "00000000b7686b0bbdcdbbc233c818e60afd3a62564ec7a672836d609b50c718",
  "confirmations": 52056,
  "height": 280,
  "version": 1,
  "versionHex": "00000001",
  "merkleroot": "a7e36c86964e8c8e796d752129f57d1705044eb3c5cc1ce0a345a219c4732c33",
  "time": 1231817139,
  "mediantime": 1231812926,
  "nonce": 1558675205,
  "bits": "1d00ffff",
  "difficulty": 1,
  "chainwork": "0000000000000000000000000000000000000000000000000000011901190119",
  "nTx": 1,
  "previousblockhash": "00000000509137829bac76e336618e21ab34d34f23d8b73c4699854bcc557afc",
  "nextblockhash": "000000007964a0e8b97bbea93e937c63d4097c42ccb4db464b1ab3047c62869c",
  "strippedsize": 215,
  "size": 215,
  "weight": 860,
  "tx": [
    {
      "txid": "a7e36c86964e8c8e796d752129f57d1705044eb3c5cc1ce0a345a219c4732c33",
      "hash": "a7e36c86964e8c8e796d752129f57d1705044eb3c5cc1ce0a345a219c4732c33",
      "version": 1,
      "size": 134,
      "vsize": 134,
      "weight": 536,
      "locktime": 0,
      "vin": [
        {
          "coinbase": "04ffff001d0109",
          "sequence": 4294967295
        }
      ],
      "vout": [
        {
          "value": 50.0,
          "n": 0,
          "scriptPubKey": {
            "asm": "040977acff91378bc2f5e2474ca6154942dd0eabe1e334c97427a55393593a439f9b1e0ebc9e7fdf8c6f1cfa483c0b23411d512c3bbbf9d7484eec4fb1121e1cfb OP_CHECKSIG",
            "desc": "pk(040977acff91378bc2f5e2474ca6154942dd0eabe1e334c97427a55393593a439f9b1e0ebc9e7fdf8c6f1cfa483c0b23411d512c3bbbf9d7484eec4fb1121e1cfb)#n5yh266j",
            "hex": "41040977acff91378bc2f5e2474ca6154942dd0eabe1e334c97427a55393593a439f9b1e0ebc9e7fdf8c6f1cfa483c0b23411d512c3bbbf9d7484eec4fb1121e1cfbac",
            "type": "pubkey"
          }
        }
      ],
      "hex": "01000000010000000000000000000000000000000000000000000000000000000000000000ffffffff0704ffff001d0109ffffffff0100f2052a010000004341040977acff91378bc2f5e2474ca6154942dd0eabe1e334c97427a55393593a439f9b1e0ebc9e7fdf8c6f1cfa483c0b23411d512c3bbbf9d7484eec4fb1121e1cfbac00000000"
    }
  ]
}