{
  "hash": "000000004386a66bc18dd4d224e34506c0694a3925e517bd6d18c8db34432873",
  "confirmations": 43875,
  "height": 9223,
  "version": 1,
  "versionHex": "00000001",
  "merkleroot": "1bce610d3d8911db4854e47d53ed4ff004a94e64e6d16c1cb44273637d4e2e1b",
  "time": 1238417342,
  "mediantime": 1238414125,
  "nonce": 2435670314,
  "bits": "1d00ffff",
  "difficulty": 1,
  "chainwork": "0000000000000000000000000000000000000000000000000000240824082408",
  "nTx": 1,
  "previousblockhash": "00000000a9181ba76a9b035cd65682e10bb61f5787cc56a9d59d12a6dd13823a",
  "nextblockhash": "0000000080d012f6ffe5c8839ed6119ea94c0cf8f64c58079a38fcf5ff86e64c",
  "strippedsize": 215,
  "size": 215,
  "weight": 860,
  "tx": [
    {
      "txid": "1bce610d3d8911db4854e47d53ed4ff004a94e64e6d16c1cb44273637d4e2e1b",
      "hash": "1bce610d3d8911db4854e47d53ed4ff004a94e64e6d16c1cb44273637d4e2e1b",
      "version": 1,
      "size": 134,
      "vsize": 134,
      "weight": 536,
      "locktime": 0,
      "vin": [
        {
          "coinbase": "04ffff001d0165",
          "sequence": 4294967295
        }
      ],
      "vout": [
        {
          "value": 50.0,
          "n": 0,
          "scriptPubKey": {
            "asm": "049eeb360e6d59e4b9c26c392a83def6fae6488ed6aa54527d4870eb95f9285e0c81f62494bebf04144eaeef508a1a71c9957df0db525533b8381e13ac50e21f9e OP_CHECKSIG",
            "desc": "pk(049eeb360e6d59e4b9c26c392a83def6fae6488ed6aa54527d4870eb95f9285e0c81f62494bebf04144eaeef508a1a71c9957df0db525533b8381e13ac50e21f9e)#asacxw26",
            "hex": "41049eeb360e6d59e4b9c26c392a83def6fae6488ed6aa54527d4870eb95f9285e0c81f62494bebf04144eaeef508a1a71c9957df0db525533b8381e13ac50e21f9eac",
            "type": "pubkey"
          }
        }
      ],
      "hex": "01000000010000000000000000000000000000000000000000000000000000000000000000ffffffff0704ffff001d0165ffffffff0100f2052a010000004341049eeb360e6d59e4b9c26c392a83def6fae6488ed6aa54527d4870eb95f9285e0c81f62494bebf04144eaeef508a1a71c9957df0db525533b8381e13ac50e21f9eac00000000"
    }
  ]
}