{
  "hash": "00000000f90b3671749bd2e1dfe405310731d554edd01603d6d2cc143a25054e",
  "confirmations": 51170,
  "height": 1928,
  "version": 1,
  "versionHex": "00000001",
  "merkleroot": "0add3c83456eeb4bf110210248a704c7ca3dcb74c1b80b4e4aee94619d8672d0",
  "time": 1232989459,
  "mediantime": 1232984571,
  "nonce": 986570268,
  "bits": "1d00ffff",
  "difficulty": 1,
  "chainwork": "0000000000000000000000000000000000000000000000000000078907890789",
  "nTx": 1,
  "previousblockhash": "00000000b51829036629cdaf3ebf7186478366a8f51120e267e7e66dfa75f0e6",
  "nextblockhash": "00000000b47e11bcd166f6da173d0af55ba9164f5d9020fd98278830319793d7",
  "strippedsize": 215,
  "size": 215,
  "weight": 860,
  "tx": [
    {
      "txid": "0add3c83456eeb4bf110210248a704c7ca3dcb74c1b80b4e4aee94619d8672d0",
      "hash": "0add3c83456eeb4bf110210248a704c7ca3dcb74c1b80b4e4aee94619d8672d0",
      "version": 1,
      "size": 134,
      "vsize": 134,
      "weight": 536,
      "locktime": 0,
      "vin": [
        {
          "coinbase": "04ffff001d012c",
          "sequence": 4294967295
        }
      ],
      "vout": [
        {
          "value": 50.0,
          "n": 0,
          "scriptPubKey": {
            "asm": "0433940c01f1613381ec45854caacc77481e07906a801229bad51bcb7876d76f7754ce74c9098862bccfc468b0b09b8358fcb9e0572409052667ec492f441935fd OP_CHECKSIG",
            "desc": "pk(0433940c01f1613381ec45854caacc77481e07906a801229bad51bcb7876d76f7754ce74c9098862bccfc468b0b09b8358fcb9e0572409052667ec492f441935fd)#9lj6d7dq",
            "hex": "410433940c01f1613381ec45854caacc77481e07906a801229bad51bcb7876d76f7754ce74c9098862bccfc468b0b09b8358fcb9e0572409052667ec492f441935fdac",
            "type": "pubkey"
          }
        }
      ],
      "hex": "01000000010000000000000000000000000000000000000000000000000000000000000000ffffffff0704ffff001d012cffffffff0100f2052a0100000043410433940c01f1613381ec45854caacc77481e07906a801229bad51bcb7876d76f7754ce74c9098862bccfc468b0b09b8358fcb9e0572409052667ec492f441935fdac00000000"
    }
  ]
}