{
  "hash": "00000000577e05b71bf9959a8061cfa13c0880d9c491479189c362de93a9ca44",
  "confirmations": 47189,
  "height": 5909,
  "version": 1,
  "versionHex": "00000001",
  "merkleroot": "003db385f38a4bcf5f66a005be0649bbf942c14685e65416570a19daaea91be8",
  "time": 1235850333,
  "mediantime": 1235847897,
  "nonce": 1197549090,
  "bits": "1d00ffff",
  "difficulty": 1,
  "chainwork": "0000000000000000000000000000000000000000000000000000171617161716",
  "nTx": 1,
  "previousblockhash": "00000000f66306644008245fffa7504cc56d8aebdcbe27cf34787dffd00be0b3",
  "nextblockhash": "000000000178c9e89ca1e4efb08deb3acc1c5bb3f7ba212417c1080cb8dec830",
  "strippedsize": 216,
  "size": 216,
  "weight": 864,
  "tx": [
    {
      "txid": "003db385f38a4bcf5f66a005be0649bbf942c14685e65416570a19daaea91be8",
      "hash": "003db385f38a4bcf5f66a005be0649bbf942c14685e65416570a19daaea91be8",
      "version": 1,
      "size": 135,
      "vsize": 135,
      "weight": 540,
      "locktime": 0,
      "vin": [
        {
          "coinbase": "04ffff001d022203",
          "sequence": 4294967295
        }
      ],
      "vout": [
        {
          "value": 50.0,
          "n": 0,
          "scriptPubKey": {
            "asm": "04bc4df57872ed9ee0e1eec74ae91d0d25f7e9d5c448a54c252008fdc8f1b4ad17df336f87f7183c8add111a67553a270beabdf543ce022a9620ab9fb67cd46321 OP_CHECKSIG",
            "desc": "pk(04bc4df57872ed9ee0e1eec74ae91d0d25f7e9d5c448a54c252008fdc8f1b4ad17df336f87f7183c8add111a67553a270beabdf543ce022a9620ab9fb67cd46321)#va90rclx",
            "hex": "4104bc4df57872ed9ee0e1eec74ae91d0d25f7e9d5c448a54c252008fdc8f1b4ad17df336f87f7183c8add111a67553a270beabdf543ce022a9620ab9fb67cd46321ac",
            "type": "pubkey"
          }
        }
      ],
      "hex": "01000000010000000000000000000000000000000000000000000000000000000000000000ffffffff0804ffff001d022203ffffffff0100f2052a01000000434104bc4df57872ed9ee0e1eec74ae91d0d25f7e9d5c448a54c252008fdc8f1b4ad17df336f87f7183c8add111a67553a270beabdf543ce022a9620ab9fb67cd46321ac00000000"
    }
  ]
}