{
  "hash": "000000009373ab8cf912050e3d9a3a7933b0ac1d3069ccca1a11efa6bbd9f4a5",
  "confirmations": 47552,
  "height": 5546,
  "version": 1,
  "versionHex": "00000001",
  "merkleroot": "1f4944204336d3a47bf2a13ef6e4816f5a12972593a627ca7d2ee3e41d05418b",
  "time": 1235558815,
  "mediantime": 1235554673,
  "nonce": 76592494,
  "bits": "1d00ffff",
  "difficulty": 1,
  "chainwork": "000000000000000000000000000000000000000000000000000015ab15ab15ab",
  "nTx": 1,
  "previousblockhash": "00000000d792554eb5222f19e1d3a91fdf66a3cd4949588cc1fc5bef7441d1c7",
  "nextblockhash": "00000000e89fa57610a2194b859ae2ff1d6129399b7f92fcf1e6dd81d0c07c57",
  "strippedsize": 215,
  "size": 215,
  "weight": 860,
  "tx": [
    {
      "txid": "1f4944204336d3a47bf2a13ef6e4816f5a12972593a627ca7d2ee3e41d05418b",
      "hash": "1f4944204336d3a47bf2a13ef6e4816f5a12972593a627ca7d2ee3e41d05418b",
      "version": 1,
      "size": 134,
      "vsize": 134,
      "weight": 536,
      "locktime": 0,
      "vin": [
        {
          "coinbase": "04ffff001d0134",
          "sequence": 4294967295
        }
      ],
      "vout": [
        {
          "value": 50.0,
          "n": 0,
          "scriptPubKey": {
            "asm": "04d4793715e6de056f98d5428ccf81790c7c3c073a40f951e74414bfb3d3fc00f924444ca22756879a0cd488eec25ccfaf51a1b6d864054e5122503e5a1535aed1 OP_CHECKSIG",
            "desc": "pk(04d4793715e6de056f98d5428ccf81790c7c3c073a40f951e74414bfb3d3fc00f924444ca22756879a0cd488eec25ccfaf51a1b6d864054e5122503e5a1535aed1)#g2pvzp05",
            "hex": "4104d4793715e6de056f98d5428ccf81790c7c3c073a40f951e74414bfb3d3fc00f924444ca22756879a0cd488eec25ccfaf51a1b6d864054e5122503e5a1535aed1ac",
            "type": "pubkey"
          }
        }
      ],
      "hex": "01000000010000000000000000000000000000000000000000000000000000000000000000ffffffff0704ffff001d0134ffffffff0100f2052a01000000434104d4793715e6de056f98d5428ccf81790c7c3c073a40f951e74414bfb3d3fc00f924444ca22756879a0cd488eec25ccfaf51a1b6d864054e5122503e5a1535aed1ac00000000"
    }
  ]
}