{
  "hash": "000000003e29a641e28e89ce938218a110f2a7f4ffed60c7b6c4634315755a36",
  "confirmations": 47342,
  "height": 5756,
  "version": 1,
  "versionHex": "00000001",
  "merkleroot": "d4288db99e65019db7ff02b1ef88e2147225963b1456ddaa2b838675fcf528fe",
  "time": 1235728431,
  "mediantime": 1235725399,
  "nonce": 335678315,
  "bits": "1d00ffff",
  "difficulty": 1,
  "chainwork": "0000000000000000000000000000000000000000000000000000167d167d167d",
  "nTx": 1,
  "previousblockhash": "00000000a8b2b31aba382f5d892001122d8d20a397dd979d3414907a8129ac97",
  "nextblockhash": "000000007c0b9e3b8c9ca8e7d46248818118358245d3d248c4c9a73367e1785e",
  "strippedsize": 215,
  "size": 215,
  "weight": 860,
  "tx": [
    {
      "txid": "d4288db99e65019db7ff02b1ef88e2147225963b1456ddaa2b838675fcf528fe",
      "hash": "d4288db99e65019db7ff02b1ef88e2147225963b1456ddaa2b838675fcf528fe",
      "version": 1,
      "size": 134,
      "vsize": 134,
      "weight": 536,
      "locktime": 0,
      "vin": [
        {
          "coinbase": "04ffff001d013f",
          "sequence": 4294967295
        }
      ],
      "vout": [
        {
          "value": 50.0,
          "n": 0,
          "scriptPubKey": {
            "asm": "044d4282588a9936ddae5d235c2e4ccfb3802534a61c943740f2f7b2c45c87759baaa3e4088db0aa20cc7a6e94f7af23af060d33fa8a414d0035c26aa7af9f6406 OP_CHECKSIG",
            "desc": "pk(044d4282588a9936ddae5d235c2e4ccfb3802534a61c943740f2f7b2c45c87759baaa3e4088db0aa20cc7a6e94f7af23af060d33fa8a414d0035c26aa7af9f6406)#j4wwt8kh",
            "hex": "41044d4282588a9936ddae5d235c2e4ccfb3802534a61c943740f2f7b2c45c87759baaa3e4088db0aa20cc7a6e94f7af23af060d33fa8a414d0035c26aa7af9f6406ac",
            "type": "pubkey"
          }
        }
      ],
      "hex": "01000000010000000000000000000000000000000000000000000000000000000000000000ffffffff0704ffff001d013fffffffff0100f2052a010000004341044d4282588a9936ddae5d235c2e4ccfb3802534a61c943740f2f7b2c45c87759baaa3e4088db0aa20cc7a6e94f7af23af060d33fa8a414d0035c26aa7af9f6406ac00000000"
    }
  ]
}