{
  "hash": "0000000029a5e818e3e74610dc1433265156472f21778c426f86797aece0f29c",
  "confirmations": 46087,
  "height": 7011,
  "version": 1,
  "versionHex": "00000001",
  "merkleroot": "3c44b9883cfc1d8fe78cf2075c392e34967b9979ab7f9909adabc3cbbe7eced6",
  "time": 1236727419,
  "mediantime": 1236722910,
  "nonce": 1813749028,
  "bits": "1d00ffff",
  "difficulty": 1,
  "chainwork": "00000000000000000000000000000000000000000000000000001b641b641b64",
  "nTx": 1,
  "previousblockhash": "000000004b7d7f8bcb61b74b3bf6af5c34bd504224da9476522b94b05ae6043e",
  "nextblockhash": "000000005e01dc927c8446c518f741f3f3776234e18a44b8db2979bc8b1ecff8",
  "strippedsize": 216,
  "size": 216,
  "weight": 864,
  "tx": [
    {
      "txid": "3c44b9883cfc1d8fe78cf2075c392e34967b9979ab7f9909adabc3cbbe7eced6",
      "hash": "3c44b9883cfc1d8fe78cf2075c392e34967b9979ab7f9909adabc3cbbe7eced6",
      "version": 1,
      "size": 135,
      "vsize": 135,
      "weight": 540,
      "locktime": 0,
      "vin": [
        {
          "coinbase": "04ffff001d028a02",
          "sequence": 4294967295
        }
      ],
      "vout": [
        {
          "value": 50.0,
          "n": 0,
          "scriptPubKey": {
            "asm": "043d2d661406ec9a2385c39ab96bdea6c009dd78bbc5eab740f5fe8120b62300a7764a7e896ec13155dacd6990adc8063e1444d3f0714548dfc0fea7e55f34f32c OP_CHECKSIG",
            "desc": "pk(043d2d661406ec9a2385c39ab96bdea6c009dd78bbc5eab740f5fe8120b62300a7764a7e896ec13155dacd6990adc8063e1444d3f0714548dfc0fea7e55f34f32c)#pxq640gm",
            "hex": "41043d2d661406ec9a2385c39ab96bdea6c009dd78bbc5eab740f5fe8120b62300a7764a7e896ec13155dacd6990adc8063e1444d3f0714548dfc0fea7e55f34f32cac",
            "type": "pubkey"
          }
        }
      ],
      "hex": "01000000010000000000000000000000000000000000000000000000000000000000000000ffffffff0804ffff001d028a02ffffffff0100f2052a010000004341043d2d661406ec9a2385c39ab96bdea6c009dd78bbc5eab740f5fe8120b62300a7764a7e896ec13155dacd6990adc8063e1444d3f0714548dfc0fea7e55f34f32cac00000000"
    }
  ]
}