{
  "hash": "0000000090be299a94be58d514ae5284df39d38359a6b3a9492363cdbfb4c7e5",
  "confirmations": 45524,
  "height": 7574,
  "version": 1,
  "versionHex": "00000001",
  "merkleroot": "adb1bc612f7daaae21ef287d483d708d3a61fb81f7948dded5681c1a3e3c2be8",
  "time": 1237150155,
  "mediantime": 1237148700,
  "nonce": 2443476255,
  "bits": "1d00ffff",
  "difficulty": 1,
  "chainwork": "00000000000000000000000000000000000000000000000000001d971d971d97",
  "nTx": 1,
  "previousblockhash": "000000002ca121063a1c4e01f11605a5fa2193972365c26e49439f5081b40acb",
  "nextblockhash": "000000007e3905634e9e1aea0ceb71782b58ccc33d12c05c35db2b7d9600c8ec",
  "strippedsize": 216,
  "size": 216,
  "weight": 864,
  "tx": [
    {
      "txid": "adb1bc612f7daaae21ef287d483d708d3a61fb81f7948dded5681c1a3e3c2be8",
      "hash": "adb1bc612f7daaae21ef287d483d708d3a61fb81f7948dded5681c1a3e3c2be8",
      "version": 1,
      "size": 135,
      "vsize": 135,
      "weight": 540,
      "locktime": 0,
      "vin": [
        {
          "coinbase": "04ffff001d023202",
          "sequence": 4294967295
        }
      ],
      "vout": [
        {
          "value": 50.0,
          "n": 0,
          "scriptPubKey": {
            "asm": "04af8248de97e124e280935dbd90cacb333078080c022997523db35a7e699ffb04846d77cd6c053ac0f3c7e8c0b149e9c00800949b4d75f7062f63bde50ea76aea OP_CHECKSIG",
            "desc": "pk(04af8248de97e124e280935dbd90cacb333078080c022997523db35a7e699ffb04846d77cd6c053ac0f3c7e8c0b149e9c00800949b4d75f7062f63bde50ea76aea)#x9t9u75v",
            "hex": "4104af8248de97e124e280935dbd90cacb333078080c022997523db35a7e699ffb04846d77cd6c053ac0f3c7e8c0b149e9c00800949b4d75f7062f63bde50ea76aeaac",
            "type": "pubkey"
          }
        }
      ],
      "hex": "01000000010000000000000000000000000000000000000000000000000000000000000000ffffffff0804ffff001d023202ffffffff0100f2052a01000000434104af8248de97e124e280935dbd90cacb333078080c022997523db35a7e699ffb04846d77cd6c053ac0f3c7e8c0b149e9c00800949b4d75f7062f63bde50ea76aeaac00000000"
    }
  ]
}