{
  "hash": "00000000c93e62441044c1d6e59612f1f7790d47c31ea5dea776257e778bebee",
  "confirmations": 49480,
  "height": 3618,
  "version": 1,
  "versionHex": "00000001",
  "merkleroot": "5537bf12c31ee995bd3d0fd354333f97eebdb5e93fb6f9f7d5a6c5acb8f84355",
  "time": 1234183855,
  "mediantime": 1234181013,
  "nonce": 1752279827,
  "bits": "1d00ffff",
  "difficulty": 1,
  "chainwork": "00000000000000000000000000000000000000000000000000000e230e230e23",
  "nTx": 1,
  "previousblockhash": "000000001ae26f03ba849a0b26c74199042a27e514c25d9cbe7d7986c3ec3511",
  "nextblockhash": "00000000a8dd2e9e5beb54cfd744331b383ac6f8fe89a2ca77b18dcb75686d01",
  "strippedsize": 216,
  "size": 216,
  "weight": 864,
  "tx": [
    {
      "txid": "5537bf12c31ee995bd3d0fd354333f97eebdb5e93fb6f9f7d5a6c5acb8f84355",
      "hash": "5537bf12c31ee995bd3d0fd354333f97eebdb5e93fb6f9f7d5a6c5acb8f84355",
      "version": 1,
      "size": 135,
      "vsize": 135,
      "weight": 540,
      "locktime": 0,
      "vin": [
        {
          "coinbase": "04ffff001d02db08",
          "sequence": 4294967295
        }
      ],
      "vout": [
        {
          "value": 50.0,
          "n": 0,
          "scriptPubKey": {
            "asm": "042e281225f7cdc2a59000d419ea83f8baa6ffde78fefe8804645720d509eaf3220dc0ff2151eb469c4832ac9b7993c2f4db77e532dd36170ffe0b21499488e3a5 OP_CHECKSIG",
            "desc": "pk(042e281225f7cdc2a59000d419ea83f8baa6ffde78fefe8804645720d509eaf3220dc0ff2151eb469c4832ac9b7993c2f4db77e532dd36170ffe0b21499488e3a5)#4rhqm0uj",
            "hex": "41042e281225f7cdc2a59000d419ea83f8baa6ffde78fefe8804645720d509eaf3220dc0ff2151eb469c4832ac9b7993c2f4db77e532dd36170ffe0b21499488e3a5ac",
            "type": "pubkey"
          }
        }
      ],
      "hex": "01000000010000000000000000000000000000000000000000000000000000000000000000ffffffff0804ffff001d02db08ffffffff0100f2052a010000004341042e281225f7cdc2a59000d419ea83f8baa6ffde78fefe8804645720d509eaf3220dc0ff2151eb469c4832ac9b7993c2f4db77e532dd36170ffe0b21499488e3a5ac00000000"
    }
  ]
}