{
  "hash": "000000000a57b458066939e046cabe71347f020e6a82c2fee68850d166863ddb",
  "confirmations": 46219,
  "height": 6879,
  "version": 1,
  "versionHex": "00000001",
  "merkleroot": "73f0c6bbe33617ba086158fcc456b59ba44533c11034edb9819356d98fbbf5e4",
  "time": 1236618275,
  "mediantime": 1236612785,
  "nonce": 358739494,
  "bits": "1d00ffff",
  "difficulty": 1,
  "chainwork": "00000000000000000000000000000000000000000000000000001ae01ae01ae0",
  "nTx": 1,
  "previousblockhash": "00000000eb0750ff4a5cc3cf05cc34c758dff20b7820059571faacee4124ebc9",
  "nextblockhash": "00000000cf47f975184db0b4df92c9f798f61aa8143ffb0ce1c48746a8bd63aa",
  "strippedsize": 216,
  "size": 216,
  "weight": 864,
  "tx": [
    {
      "txid": "73f0c6bbe33617ba086158fcc456b59ba44533c11034edb9819356d98fbbf5e4",
      "hash": "73f0c6bbe33617ba086158fcc456b59ba44533c11034edb9819356d98fbbf5e4",
      "version": 1,
      "size": 135,
      "vsize": 135,
      "weight": 540,
      "locktime": 0,
      "vin": [
        {
          "coinbase": "04ffff001d02330a",
          "sequence": 4294967295
        }
      ],
      "vout": [
        {
          "value": 50.0,
          "n": 0,
          "scriptPubKey": {
            "asm": "047a0d6aaf060d23ca36a33395e9f2469f72256d739d0decea053ceb926f0f5ffd2e29134677418722f69a15eecaec55e90106e7bab480e5ccbbd6afe34d8a8646 OP_CHECKSIG",
            "desc": "pk(047a0d6aaf060d23ca36a33395e9f2469f72256d739d0decea053ceb926f0f5ffd2e29134677418722f69a15eecaec55e90106e7bab480e5ccbbd6afe34d8a8646)#gjgj7jl0",
            "hex": "41047a0d6aaf060d23ca36a33395e9f2469f72256d739d0decea053ceb926f0f5ffd2e29134677418722f69a15eecaec55e90106e7bab480e5ccbbd6afe34d8a8646ac",
            "type": "pubkey"
          }
        }
      ],
      "hex": "01000000010000000000000000000000000000000000000000000000000000000000000000ffffffff0804ffff001d02330affffffff0100f2052a010000004341047a0d6aaf060d23ca36a33395e9f2469f72256d739d0decea053ceb926f0f5ffd2e29134677418722f69a15eecaec55e90106e7bab480e5ccbbd6afe34d8a8646ac00000000"
    }
  ]
}