{
  "hash": "0000000084fc48f2fc98e994ab6f676ef5a58992954775d6e02e5a864ca93455",
  "confirmations": 50782,
  "height": 2316,
  "version": 1,
  "versionHex": "00000001",
  "merkleroot": "14dafeca56ecceab41cd6ed9d3b6e107c35d831f84e279e77073878153561bd7",
  "time": 1233291610,
  "mediantime": 1233288050,
  "nonce": 4193607982,
  "bits": "1d00ffff",
  "difficulty": 1,
  "chainwork": "0000000000000000000000000000000000000000000000000000090d090d090d",
  "nTx": 1,
  "previousblockhash": "000000002d12c33db8318af7ea6836aabd8b2da30dca4b3a7e38a48dd99e6ceb",
  "nextblockhash": "00000000e0fb65763a98dd44af4150924c3be965b545c625f8999821cf7bf37b",
  "strippedsize": 216,
  "size": 216,
  "weight": 864,
  "tx": [
    {
      "txid": "14dafeca56ecceab41cd6ed9d3b6e107c35d831f84e279e77073878153561bd7",
      "hash": "14dafeca56ecceab41cd6ed9d3b6e107c35d831f84e279e77073878153561bd7",
      "version": 1,
      "size": 135,
      "vsize": 135,
      "weight": 540,
      "locktime": 0,
      "vin": [
        {
          "coinbase": "04ffff001d02e301",
          "sequence": 4294967295
        }
      ],
      "vout": [
        {
          "value": 50.0,
          "n": 0,
          "scriptPubKey": {
            "asm": "04262cf1b755f469047205e9f248132af8cb69a2a1b8c53f928cbd1ebbc7ac622e8ffc84ba00f22bbd4f89c4575715ccd5086008c0d91cb6d824c4a18d32f13c5f OP_CHECKSIG",
            "desc": "pk(04262cf1b755f469047205e9f248132af8cb69a2a1b8c53f928cbd1ebbc7ac622e8ffc84ba00f22bbd4f89c4575715ccd5086008c0d91cb6d824c4a18d32f13c5f)#2e29ksgr",
            "hex": "4104262cf1b755f469047205e9f248132af8cb69a2a1b8c53f928cbd1ebbc7ac622e8ffc84ba00f22bbd4f89c4575715ccd5086008c0d91cb6d824c4a18d32f13c5fac",
            "type": "pubkey"
          }
        }
      ],
      "hex": "01000000010000000000000000000000000000000000000000000000000000000000000000ffffffff0804ffff001d02e301ffffffff0100f2052a01000000434104262cf1b755f469047205e9f248132af8cb69a2a1b8c53f928cbd1ebbc7ac622e8ffc84ba00f22bbd4f89c4575715ccd5086008c0d91cb6d824c4a18d32f13c5fac00000000"
    }
  ]
}