{
  "hash": "000000002f17510c8ea06279554ebffbd926deb4f4d57b8f5ed8c4b435f5bf4d",
  "confirmations": 45796,
  "height": 7302,
  "version": 1,
  "versionHex": "00000001",
  "merkleroot": "2d3bfbe721136f6445107b9baa7560e0697fae6cc083d74e04d013339babe57d",
  "time": 1236950297,
  "mediantime": 1236947434,
  "nonce": 102171259,
  "bits": "1d00ffff",
  "difficulty": 1,
  "chainwork": "00000000000000000000000000000000000000000000000000001c871c871c87",
  "nTx": 1,
  "previousblockhash": "000000001f4f51ae1ff49aad126b6e1e2ad1630e68560638610f56818c253fda",
  "nextblockhash": "00000000dddb48473d55486c4d063039aaf7ebd6ce9cf1df04711f98ceb125c6",
  "strippedsize": 216,
  "size": 216,
  "weight": 864,
  "tx": [
    {
      "txid": "2d3bfbe721136f6445107b9baa7560e0697fae6cc083d74e04d013339babe57d",
      "hash": "2d3bfbe721136f6445107b9baa7560e0697fae6cc083d74e04d013339babe57d",
      "version": 1,
      "size": 135,
      "vsize": 135,
      "weight": 540,
      "locktime": 0,
      "vin": [
        {
          "coinbase": "04ffff001d023507",
          "sequence": 4294967295
        }
      ],
      "vout": [
        {
          "value": 50.0,
          "n": 0,
          "scriptPubKey": {
            "asm": "04354284fb16efcf4fb74599594bc1e79e22979b4cdf26330caef142851651d7aef2194fa6e307ee9fd7717208c6b0a6831afbb7f2433b47089388e6076748c417 OP_CHECKSIG",
            "desc": "pk(04354284fb16efcf4fb74599594bc1e79e22979b4cdf26330caef142851651d7aef2194fa6e307ee9fd7717208c6b0a6831afbb7f2433b47089388e6076748c417)#5p03g7yd",
            "hex": "4104354284fb16efcf4fb74599594bc1e79e22979b4cdf26330caef142851651d7aef2194fa6e307ee9fd7717208c6b0a6831afbb7f2433b47089388e6076748c417ac",
            "type": "pubkey"
          }
        }
      ],
      "hex": "01000000010000000000000000000000000000000000000000000000000000000000000000ffffffff0804ffff001d023507ffffffff0100f2052a01000000434104354284fb16efcf4fb74599594bc1e79e22979b4cdf26330caef142851651d7aef2194fa6e307ee9fd7717208c6b0a6831afbb7f2433b47089388e6076748c417ac00000000"
    }
  ]
}