{
  "hash": "00000000aded7e44ad131a9fcf28deb1299348327766d4d7a63ecb4b2d2df202",
  "confirmations": 50752,
  "height": 2346,
  "version": 1,
  "versionHex": "00000001",
  "merkleroot": "126ccfebb2cb498e512f7838a6dfeae9bd883967ad54c10bd63dec5ae6f53b9a",
  "time": 1233314376,
  "mediantime": 1233310222,
  "nonce": 1476955954,
  "bits": "1d00ffff",
  "difficulty": 1,
  "chainwork": "0000000000000000000000000000000000000000000000000000092b092b092b",
  "nTx": 1,
  "previousblockhash": "000000007024f233aa44bc7784a78926fb1c325f9985c936ae57b94530505062",
  "nextblockhash": "00000000844e0936a9990791b04e701d6ea7b7ad47b256545b760f848302aa99",
  "strippedsize": 216,
  "size": 216,
  "weight": 864,
  "tx": [
    {
      "txid": "126ccfebb2cb498e512f7838a6dfeae9bd883967ad54c10bd63dec5ae6f53b9a",
      "hash": "126ccfebb2cb498e512f7838a6dfeae9bd883967ad54c10bd63dec5ae6f53b9a",
      "version": 1,
      "size": 135,
      "vsize": 135,
      "weight": 540,
      "locktime": 0,
      "vin": [
        {
          "coinbase": "04ffff001d029c02",
          "sequence": 4294967295
        }
      ],
      "vout": [
        {
          "value": 50.0,
          "n": 0,
          "scriptPubKey": {
            "asm": "04cddfb2dd254589bc8ce1ed28aff6ef226a8b13b8d66d9ef88aa0c8852098759124e14d5d0af89d5ccaf0831568a5cc415c49d838db901b5452afa86d8045f2cb OP_CHECKSIG",
            "desc": "pk(04cddfb2dd254589bc8ce1ed28aff6ef226a8b13b8d66d9ef88aa0c8852098759124e14d5d0af89d5ccaf0831568a5cc415c49d838db901b5452afa86d8045f2cb)#43an94p5",
            "hex": "4104cddfb2dd254589bc8ce1ed28aff6ef226a8b13b8d66d9ef88aa0c8852098759124e14d5d0af89d5ccaf0831568a5cc415c49d838db901b5452afa86d8045f2cbac",
            "type": "pubkey"
          }
        }
      ],
      "hex": "01000000010000000000000000000000000000000000000000000000000000000000000000ffffffff0804ffff001d029c02ffffffff0100f2052a01000000434104cddfb2dd254589bc8ce1ed28aff6ef226a8b13b8d66d9ef88aa0c8852098759124e14d5d0af89d5ccaf0831568a5cc415c49d838db901b5452afa86d8045f2cbac00000000"
    }
  ]
}