{
  "hash": "00000000cdc8a422ac44dbba711a1a4b2e03f32234441ac423c311aca1b34d51",
  "confirmations": 47329,
  "height": 5769,
  "version": 1,
  "versionHex": "00000001",
  "merkleroot": "728ba775bbf05581ebfebabbd99e581b4cabaa60926f164db316715528ccaf52",
  "time": 1235737408,
  "mediantime": 1235732741,
  "nonce": 114157031,
  "bits": "1d00ffff",
  "difficulty": 1,
  "chainwork": "0000000000000000000000000000000000000000000000000000168a168a168a",
  "nTx": 1,
  "previousblockhash": "00000000ed97861e301d7d21c0f626ee2bd6827dc2c4ef1c1a34d991ceb8a9a8",
  "nextblockhash": "0000000011208966c8f880555b817111e57b091aa87d7001d9fb9d9f82a70e01",
  "strippedsize": 216,
  "size": 216,
  "weight": 864,
  "tx": [
    {
      "txid": "728ba775bbf05581ebfebabbd99e581b4cabaa60926f164db316715528ccaf52",
      "hash": "728ba775bbf05581ebfebabbd99e581b4cabaa60926f164db316715528ccaf52",
      "version": 1,
      "size": 135,
      "vsize": 135,
      "weight": 540,
      "locktime": 0,
      "vin": [
        {
          "coinbase": "04ffff001d020e01",
          "sequence": 4294967295
        }
      ],
      "vout": [
        {
          "value": 50.0,
          "n": 0,
          "scriptPubKey": {
            "asm": "049c1754cf95f448a90209e898c1da96d48f382ad4de90be720a9d7f9638dff2092fb6fea75bafed75437fcfd68fad9ccff4487d3bd564a3830d92db09b8aca24b OP_CHECKSIG",
            "desc": "pk(049c1754cf95f448a90209e898c1da96d48f382ad4de90be720a9d7f9638dff2092fb6fea75bafed75437fcfd68fad9ccff4487d3bd564a3830d92db09b8aca24b)#lzq00e7f",
            "hex": "41049c1754cf95f448a90209e898c1da96d48f382ad4de90be720a9d7f9638dff2092fb6fea75bafed75437fcfd68fad9ccff4487d3bd564a3830d92db09b8aca24bac",
            "type": "pubkey"
          }
        }
      ],
      "hex": "01000000010000000000000000000000000000000000000000000000000000000000000000ffffffff0804ffff001d020e01ffffffff0100f2052a010000004341049c1754cf95f448a90209e898c1da96d48f382ad4de90be720a9d7f9638dff2092fb6fea75bafed75437fcfd68fad9ccff4487d3bd564a3830d92db09b8aca24bac00000000"
    }
  ]
}