{
  "hash": "0000000062a9ed638b7297dcb39d7fafe4f5185f2777269f4f9cafa3560da318",
  "confirmations": 52019,
  "height": 319,
  "version": 1,
  "versionHex": "00000001",
  "merkleroot": "3c25b20d4959008a6c0d204696a7540ca3e66f6ca146c69230e3034c67781ac9",
  "time": 1231846048,
  "mediantime": 1231842444,
  "nonce": 3748451840,
  "bits": "1d00ffff",
  "difficulty": 1,
  "chainwork": "0000000000000000000000000000000000000000000000000000014001400140",
  "nTx": 1,
  "previousblockhash": "0000000074072a95ca7158d9f16a349f9b70f5ac67a2b0a5ff3d2753663d3784",
  "nextblockhash": "000000003f100bcb2790fbf45f69b6825094d75adf5ae9dbf8f4072fe2ff2ea7",
  "strippedsize": 216,
  "size": 216,
  "weight": 864,
  "tx": [
    {
      "txid": "3c25b20d4959008a6c0d204696a7540ca3e66f6ca146c69230e3034c67781ac9",
      "hash": "3c25b20d4959008a6c0d204696a7540ca3e66f6ca146c69230e3034c67781ac9",
      "version": 1,
      "size": 135,
      "vsize": 135,
      "weight": 540,
      "locktime": 0,
      "vin": [
        {
          "coinbase": "04ffff001d02d800",
          "sequence": 4294967295
        }
      ],
      "vout": [
        {
          "value": 50.0,
          "n": 0,
          "scriptPubKey": {
            "asm": "045f3f83b219045157c84461e0dd7641ffd2e97958dbafe71d021ae720dd29a6f06a56dd73a040699d30285a6b8f86fc4d0b471f3e3f7bfde257b8e5dba6c42f4d OP_CHECKSIG",
            "desc": "pk(045f3f83b219045157c84461e0dd7641ffd2e97958dbafe71d021ae720dd29a6f06a56dd73a040699d30285a6b8f86fc4d0b471f3e3f7bfde257b8e5dba6c42f4d)#42rv4xys",
            "hex": "41045f3f83b219045157c84461e0dd7641ffd2e97958dbafe71d021ae720dd29a6f06a56dd73a040699d30285a6b8f86fc4d0b471f3e3f7bfde257b8e5dba6c42f4dac",
            "type": "pubkey"
          }
        }
      ],
      "hex": "01000000010000000000000000000000000000000000000000000000000000000000000000ffffffff0804ffff001d02d800ffffffff0100f2052a010000004341045f3f83b219045157c84461e0dd7641ffd2e97958dbafe71d021ae720dd29a6f06a56dd73a040699d30285a6b8f86fc4d0b471f3e3f7bfde257b8e5dba6c42f4dac00000000"
    }
  ]
}