{
  "hash": "00000000fa5dae315bda889b42d81ec0d94de20d6ca6b446bf6e7747bafac665",
  "confirmations": 52255,
  "height": 843,
  "version": 1,
  "versionHex": "00000001",
  "merkleroot": "ec260ddbf213aa67b82992a91085706067eec3b7b1b3874f90df2ecb74260458",
  "time": 1232224123,
  "mediantime": 1232220551,
  "nonce": 573536799,
  "bits": "1d00ffff",
  "difficulty": 1,
  "chainwork": "0000000000000000000000000000000000000000000000000000034c034c034c",
  "nTx": 1,
  "previousblockhash": "00000000161207e01bb1fd2dcf487e7b16bf32149569b93d683eec4e23eb8919",
  "nextblockhash": "0000000091072446161b75b86354fac4270de72c0beb1281135892364b030931",
  "strippedsize": 216,
  "size": 216,
  "weight": 864,
  "tx": [
    {
      "txid": "ec260ddbf213aa67b82992a91085706067eec3b7b1b3874f90df2ecb74260458",
      "hash": "ec260ddbf213aa67b82992a91085706067eec3b7b1b3874f90df2ecb74260458",
      "version": 1,
      "size": 135,
      "vsize": 135,
      "weight": 540,
      "locktime": 0,
      "vin": [
        {
          "coinbase": "04ffff001d024602",
          "sequence": 4294967295
        }
      ],
      "vout": [
        {
          "value": 50.0,
          "n": 0,
          "scriptPubKey": {
            "asm": "04973b97401c3177436cedd95bf3cb0c86fde4ca3106654d7406b01e97468829501ded4533e0d8996d2be975c421060c653f29a22b954076ffd93e1058d7291c73 OP_CHECKSIG",
            "desc": "pk(04973b97401c3177436cedd95bf3cb0c86fde4ca3106654d7406b01e97468829501ded4533e0d8996d2be975c421060c653f29a22b954076ffd93e1058d7291c73)#dgj3p6ah",
            "hex": "4104973b97401c3177436cedd95bf3cb0c86fde4ca3106654d7406b01e97468829501ded4533e0d8996d2be975c421060c653f29a22b954076ffd93e1058d7291c73ac",
            "type": "pubkey"
          }
        }
      ],
      "hex": "01000000010000000000000000000000000000000000000000000000000000000000000000ffffffff0804ffff001d024602ffffffff0100f2052a01000000434104973b97401c3177436cedd95bf3cb0c86fde4ca3106654d7406b01e97468829501ded4533e0d8996d2be975c421060c653f29a22b954076ffd93e1058d7291c73ac00000000"
    }
  ]
}