{
  "hash": "00000000cb80ea8e006b699b241f3a98968cbbe277f0c397ab440045bc1ffcdc",
  "confirmations": 49649,
  "height": 3449,
  "version": 1,
  "versionHex": "00000001",
  "merkleroot": "705e56cc520d20c31a666adedd93828457dfd46cebc20ff384ddab2a560e4da7",
  "time": 1234070906,
  "mediantime": 1234068713,
  "nonce": 2930190105,
  "bits": "1d00ffff",
  "difficulty": 1,
  "chainwork": "00000000000000000000000000000000000000000000000000000d7a0d7a0d7a",
  "nTx": 1,
  "previousblockhash": "00000000f19fade0693c2b209c85dbe384bda8de7319909e1f8e60253af87ee8",
  "nextblockhash": "00000000df162b65a3d783883648ca7b04c21207649bbeb3e5741a5bb88b0f94",
  "strippedsize": 216,
  "size": 216,
  "weight": 864,
  "tx": [
    {
      "txid": "705e56cc520d20c31a666adedd93828457dfd46cebc20ff384ddab2a560e4da7",
      "hash": "705e56cc520d20c31a666adedd93828457dfd46cebc20ff384ddab2a560e4da7",
      "version": 1,
      "size": 135,
      "vsize": 135,
      "weight": 540,
      "locktime": 0,
      "vin": [
        {
          "coinbase": "04ffff001d024d06",
          "sequence": 4294967295
        }
      ],
      "vout": [
        {
          "value": 50.0,
          "n": 0,
          "scriptPubKey": {
            "asm": "04621e1940a12a8252ff3c79697f93d93d6a124950fe2cf4b0294959baddec7c616503621eb21be514ad895546124f5aafede271fe1bfdf221a2e6bb20b06f4e69 OP_CHECKSIG",
            "desc": "pk(04621e1940a12a8252ff3c79697f93d93d6a124950fe2cf4b0294959baddec7c616503621eb21be514ad895546124f5aafede271fe1bfdf221a2e6bb20b06f4e69)#yqc8cv8e",
            "hex": "4104621e1940a12a8252ff3c79697f93d93d6a124950fe2cf4b0294959baddec7c616503621eb21be514ad895546124f5aafede271fe1bfdf221a2e6bb20b06f4e69ac",
            "type": "pubkey"
          }
        }
      ],
      "hex": "01000000010000000000000000000000000000000000000000000000000000000000000000ffffffff0804ffff001d024d06ffffffff0100f2052a01000000434104621e1940a12a8252ff3c79697f93d93d6a124950fe2cf4b0294959baddec7c616503621eb21be514ad895546124f5aafede271fe1bfdf221a2e6bb20b06f4e69ac00000000"
    }
  ]
}