{
  "hash": "0000000082189e843992c00893ababb1c4fc1af7b3ee3f6ab71df2938dae5467",
  "confirmations": 48259,
  "height": 4839,
  "version": 1,
  "versionHex": "00000001",
  "merkleroot": "ef6b1bd7717ef5bfb0cd3890ddda15487f1b03bc50b4cd4d82b8f0c73ed354c7",
  "time": 1235028842,
  "mediantime": 1235022310,
  "nonce": 3201976095,
  "bits": "1d00ffff",
  "difficulty": 1,
  "chainwork": "000000000000000000000000000000000000000000000000000012e812e812e8",
  "nTx": 1,
  "previousblockhash": "000000001e1910f660a1264bbdeb70bb6416f674453dd0bf5e650da2c0256c27",
  "nextblockhash": "000000002e43d0746650ecdbea7fe84bf70a08d2a9e876aaa2b61a65065dc73e",
  "strippedsize": 216,
  "size": 216,
  "weight": 864,
  "tx": [
    {
      "txid": "ef6b1bd7717ef5bfb0cd3890ddda15487f1b03bc50b4cd4d82b8f0c73ed354c7",
      "hash": "ef6b1bd7717ef5bfb0cd3890ddda15487f1b03bc50b4cd4d82b8f0c73ed354c7",
      "version": 1,
      "size": 135,
      "vsize": 135,
      "weight": 540,
      "locktime": 0,
      "vin": [
        {
          "coinbase": "04ffff001d02f804",
          "sequence": 4294967295
        }
      ],
      "vout": [
        {
          "value": 50.0,
          "n": 0,
          "scriptPubKey": {
            "asm": "04946f52d02b2e9bcaa81d968a6f5ba299e250527c6143544a90fb3a230eb383caea2e3e4ff333f294b02bbecc69b280604fd235fc59295ccb7810ee249abc82ae OP_CHECKSIG",
            "desc": "pk(04946f52d02b2e9bcaa81d968a6f5ba299e250527c6143544a90fb3a230eb383caea2e3e4ff333f294b02bbecc69b280604fd235fc59295ccb7810ee249abc82ae)#p7ap436a",
            "hex": "4104946f52d02b2e9bcaa81d968a6f5ba299e250527c6143544a90fb3a230eb383caea2e3e4ff333f294b02bbecc69b280604fd235fc59295ccb7810ee249abc82aeac",
            "type": "pubkey"
          }
        }
      ],
      "hex": "01000000010000000000000000000000000000000000000000000000000000000000000000ffffffff0804ffff001d02f804ffffffff0100f2052a01000000434104946f52d02b2e9bcaa81d968a6f5ba299e250527c6143544a90fb3a230eb383caea2e3e4ff333f294b02bbecc69b280604fd235fc59295ccb7810ee249abc82aeac00000000"
    }
  ]
}