{
  "hash": "0000000069bdbe2e36965d41c2c112ffcbfa826ca545e732c11c52db36ff793f",
  "confirmations": 43361,
  "height": 9737,
  "version": 1,
  "versionHex": "00000001",
  "merkleroot": "033d94e5055b8bbb3a56abe492d0a1182e3faa21fd1f859cf80fe978ac2635e2",
  "time": 1238804543,
  "mediantime": 1238801354,
  "nonce": 599119662,
  "bits": "1d00ffff",
  "difficulty": 1,
  "chainwork": "0000000000000000000000000000000000000000000000000000260a260a260a",
  "nTx": 1,
  "previousblockhash": "00000000eec7665c5362282340a688a1e9a880ca255ce354ddd72b000815612a",
  "nextblockhash": "000000008d9f4089951a24ac34bf6310ebaa4fed57e0ad8ea2bd2d15daf66f14",
  "strippedsize": 216,
  "size": 216,
  "weight": 864,
  "tx": [
    {
      "txid": "033d94e5055b8bbb3a56abe492d0a1182e3faa21fd1f859cf80fe978ac2635e2",
      "hash": "033d94e5055b8bbb3a56abe492d0a1182e3faa21fd1f859cf80fe978ac2635e2",
      "version": 1,
      "size": 135,
      "vsize": 135,
      "weight": 540,
      "locktime": 0,
      "vin": [
        {
          "coinbase": "04ffff001d023509",
          "sequence": 4294967295
        }
      ],
      "vout": [
        {
          "value": 50.0,
          "n": 0,
          "scriptPubKey": {
            "asm": "04544c9cada9d8ad6737b910bb8a3f54c21885a9bc29c212d07225b217a0bfb33e06aa8ae320752bf92d6fe71188bddb715073544d327a45026d4c2c76c9d32138 OP_CHECKSIG",
            "desc": "pk(04544c9cada9d8ad6737b910bb8a3f54c21885a9bc29c212d07225b217a0bfb33e06aa8ae320752bf92d6fe71188bddb715073544d327a45026d4c2c76c9d32138)#h00u3ken",
            "hex": "4104544c9cada9d8ad6737b910bb8a3f54c21885a9bc29c212d07225b217a0bfb33e06aa8ae320752bf92d6fe71188bddb715073544d327a45026d4c2c76c9d32138ac",
            "type": "pubkey"
          }
        }
      ],
      "hex": "01000000010000000000000000000000000000000000000000000000000000000000000000ffffffff0804ffff001d023509ffffffff0100f2052a01000000434104544c9cada9d8ad6737b910bb8a3f54c21885a9bc29c212d07225b217a0bfb33e06aa8ae320752bf92d6fe71188bddb715073544d327a45026d4c2c76c9d32138ac00000000"
    }
  ]
}