{
  "hash": "00000000ddd47166f0e4c39fb2db653955cdc9bef87530e8844153c13faabe07",
  "confirmations": 52366,
  "height": 732,
  "version": 1,
  "versionHex": "00000001",
  "merkleroot": "ec26539b7bd6c264efeb609b1159de4b78f27830f77027e9b4e5523b40e15d0f",
  "time": 1232135969,
  "mediantime": 1232132515,
  "nonce": 3965776922,
  "bits": "1d00ffff",
  "difficulty": 1,
  "chainwork": "000000000000000000000000000000000000000000000000000002dd02dd02dd",
  "nTx": 1,
  "previousblockhash": "0000000019d382666db9959df7d76b1d3a68230dfe4ae9b6ab817260c02927a6",
  "nextblockhash": "000000003792ca071d4b698890b315448e6208f9f591ed88bebd3ed52012a505",
  "strippedsize": 215,
  "size": 215,
  "weight": 860,
  "tx": [
    {
      "txid": "ec26539b7bd6c264efeb609b1159de4b78f27830f77027e9b4e5523b40e15d0f",
      "hash": "ec26539b7bd6c264efeb609b1159de4b78f27830f77027e9b4e5523b40e15d0f",
      "version": 1,
      "size": 134,
      "vsize": 134,
      "weight": 536,
      "locktime": 0,
      "vin": [
        {
          "coinbase": "04ffff001d0143",
          "sequence": 4294967295
        }
      ],
      "vout": [
        {
          "value": 50.0,
          "n": 0,
          "scriptPubKey": {
            "asm": "04f13c34a8c32311739bc2230d471404c2752397956fa64dd19f09b32eac0f3665eaa3133c86ed1b6282f49afe6e0841fdc2d4a9cfc5d1fad0c47056b6e2fbf013 OP_CHECKSIG",
            "desc": "pk(04f13c34a8c32311739bc2230d471404c2752397956fa64dd19f09b32eac0f3665eaa3133c86ed1b6282f49afe6e0841fdc2d4a9cfc5d1fad0c47056b6e2fbf013)#38x4384s",
            "hex": "4104f13c34a8c32311739bc2230d471404c2752397956fa64dd19f09b32eac0f3665eaa3133c86ed1b6282f49afe6e0841fdc2d4a9cfc5d1fad0c47056b6e2fbf013ac",
            "type": "pubkey"
          }
        }
      ],
      "hex": "01000000010000000000000000000000000000000000000000000000000000000000000000ffffffff0704ffff001d0143ffffffff0100f2052a01000000434104f13c34a8c32311739bc2230d471404c2752397956fa64dd19f09b32eac0f3665eaa3133c86ed1b6282f49afe6e0841fdc2d4a9cfc5d1fad0c47056b6e2fbf013ac00000000"
    }
  ]
}