{
  "hash": "000000009693162dda45657adb691d84c66f42d2cc21075212a8695d243b9f5d",
  "confirmations": 44172,
  "height": 8926,
  "version": 1,
  "versionHex": "00000001",
  "merkleroot": "00fd6f826b16add9e6bacbd9adef9796bde2bebe9366e9ede5c7d14c1bbde291",
  "time": 1238198988,
  "mediantime": 1238196269,
  "nonce": 2203616282,
  "bits": "1d00ffff",
  "difficulty": 1,
  "chainwork": "000000000000000000000000000000000000000000000000000022df22df22df",
  "nTx": 1,
  "previousblockhash": "0000000034ef597f4ec8b0479e997836b76ce8f11cd14091105abc96297d4995",
  "nextblockhash": "000000009632edab3bad8322e22a52709c05d9257f0ea0c3649cf3b725f090d3",
  "strippedsize": 216,
  "size": 216,
  "weight": 864,
  "tx": [
    {
      "txid": "00fd6f826b16add9e6bacbd9adef9796bde2bebe9366e9ede5c7d14c1bbde291",
      "hash": "00fd6f826b16add9e6bacbd9adef9796bde2bebe9366e9ede5c7d14c1bbde291",
      "version": 1,
      "size": 135,
      "vsize": 135,
      "weight": 540,
      "locktime": 0,
      "vin": [
        {
          "coinbase": "04ffff001d021b05",
          "sequence": 4294967295
        }
      ],
      "vout": [
        {
          "value": 50.0,
          "n": 0,
          "scriptPubKey": {
            "asm": "04782f209e7b32e40dd3b96dd698ff376f071986fcfd74061dc2a84620e6429d337dbc2ff37d26089ba9c14c49609b78d665807c81fc139bacee730d9396c75cf5 OP_CHECKSIG",
            "desc": "pk(04782f209e7b32e40dd3b96dd698ff376f071986fcfd74061dc2a84620e6429d337dbc2ff37d26089ba9c14c49609b78d665807c81fc139bacee730d9396c75cf5)#lhtzat52",
            "hex": "4104782f209e7b32e40dd3b96dd698ff376f071986fcfd74061dc2a84620e6429d337dbc2ff37d26089ba9c14c49609b78d665807c81fc139bacee730d9396c75cf5ac",
            "type": "pubkey"
          }
        }
      ],
      "hex": "01000000010000000000000000000000000000000000000000000000000000000000000000ffffffff0804ffff001d021b05ffffffff0100f2052a01000000434104782f209e7b32e40dd3b96dd698ff376f071986fcfd74061dc2a84620e6429d337dbc2ff37d26089ba9c14c49609b78d665807c81fc139bacee730d9396c75cf5ac00000000"
    }
  ]
}