{
  "hash": "00000000cdaf56834e72c459dfa4ed9025b42e9fa5a86d5bde39f98b8848d0f1",
  "confirmations": 44482,
  "height": 8616,
  "version": 1,
  "versionHex": "00000001",
  "merkleroot": "d4a1cb6922554193a378c00fbb6dd48f2680f1fa8d27c7fcdadd125cb5a259d1",
  "time": 1237960199,
  "mediantime": 1237957434,
  "nonce": 1718704439,
  "bits": "1d00ffff",
  "difficulty": 1,
  "chainwork": "000000000000000000000000000000000000000000000000000021a921a921a9",
  "nTx": 1,
  "previousblockhash": "000000009d640b0a5751d997cffade8a7e2e1e91c0c0bf6b395581c2801de0d1",
  "nextblockhash": "0000000056715ad182f92728ad911ac9e5e7a2d5490b57d6a5b2001d049ee1ff",
  "strippedsize": 216,
  "size": 216,
  "weight": 864,
  "tx": [
    {
      "txid": "d4a1cb6922554193a378c00fbb6dd48f2680f1fa8d27c7fcdadd125cb5a259d1",
      "hash": "d4a1cb6922554193a378c00fbb6dd48f2680f1fa8d27c7fcdadd125cb5a259d1",
      "version": 1,
      "size": 135,
      "vsize": 135,
      "weight": 540,
      "locktime": 0,
      "vin": [
        {
          "coinbase": "04ffff001d02af09",
          "sequence": 4294967295
        }
      ],
      "vout": [
        {
          "value": 50.0,
          "n": 0,
          "scriptPubKey": {
            "asm": "042d07af8ca8fb3c06c58213befcee032348d11a3bd1db2c1a4813f9997bd4cc94864e99c95965bc4831ddf2a89ddf9dd20aa9499347bc47a3997f5f78569ae47f OP_CHECKSIG",
            "desc": "pk(042d07af8ca8fb3c06c58213befcee032348d11a3bd1db2c1a4813f9997bd4cc94864e99c95965bc4831ddf2a89ddf9dd20aa9499347bc47a3997f5f78569ae47f)#99rt66wr",
            "hex": "41042d07af8ca8fb3c06c58213befcee032348d11a3bd1db2c1a4813f9997bd4cc94864e99c95965bc4831ddf2a89ddf9dd20aa9499347bc47a3997f5f78569ae47fac",
            "type": "pubkey"
          }
        }
      ],
      "hex": "01000000010000000000000000000000000000000000000000000000000000000000000000ffffffff0804ffff001d02af09ffffffff0100f2052a010000004341042d07af8ca8fb3c06c58213befcee032348d11a3bd1db2c1a4813f9997bd4cc94864e99c95965bc4831ddf2a89ddf9dd20aa9499347bc47a3997f5f78569ae47fac00000000"
    }
  ]
}