{
  "hash": "00000000cb2c04f9b7cb34fbc68e839b917d50d28ee129591af4edad6254a8eb",
  "confirmations": 47819,
  "height": 5279,
  "version": 1,
  "versionHex": "00000001",
  "merkleroot": "df2bcec91691e6a10d66a728a349b6a19b6cee4473df5033124effbb1b2079e5",
  "time": 1235343970,
  "mediantime": 1235341081,
  "nonce": 1520290585,
  "bits": "1d00ffff",
  "difficulty": 1,
  "chainwork": "000000000000000000000000000000000000000000000000000014a014a014a0",
  "nTx": 1,
  "previousblockhash": "000000003d93032bb085e3e74aa574a2bad9d19444f85a60aa17436999d87a0f",
  "nextblockhash": "00000000f7eee1b588e0acb92963ea2d83c29d964133e379b94489803af89b7d",
  "strippedsize": 216,
  "size": 216,
  "weight": 864,
  "tx": [
    {
      "txid": "df2bcec91691e6a10d66a728a349b6a19b6cee4473df5033124effbb1b2079e5",
      "hash": "df2bcec91691e6a10d66a728a349b6a19b6cee4473df5033124effbb1b2079e5",
      "version": 1,
      "size": 135,
      "vsize": 135,
      "weight": 540,
      "locktime": 0,
      "vin": [
        {
          "coinbase": "04ffff001d02be01",
          "sequence": 4294967295
        }
      ],
      "vout": [
        {
          "value": 50.0,
          "n": 0,
          "scriptPubKey": {
            "asm": "0412d204f654845b9db7fa404f072cddc8c9304976a3a887fab4ccf137f37199a9f41d228aefe46124e86f7074c46371db3710d5eaeee255497901c455ce278f25 OP_CHECKSIG",
            "desc": "pk(0412d204f654845b9db7fa404f072cddc8c9304976a3a887fab4ccf137f37199a9f41d228aefe46124e86f7074c46371db3710d5eaeee255497901c455ce278f25)#xjw79w7z",
            "hex": "410412d204f654845b9db7fa404f072cddc8c9304976a3a887fab4ccf137f37199a9f41d228aefe46124e86f7074c46371db3710d5eaeee255497901c455ce278f25ac",
            "type": "pubkey"
          }
        }
      ],
      "hex": "01000000010000000000000000000000000000000000000000000000000000000000000000ffffffff0804ffff001d02be01ffffffff0100f2052a0100000043410412d204f654845b9db7fa404f072cddc8c9304976a3a887fab4ccf137f37199a9f41d228aefe46124e86f7074c46371db3710d5eaeee255497901c455ce278f25ac00000000"
    }
  ]
}