{
  "hash": "00000000febd91a57b25bc71ea677d2e3489f306550bb95e5d170c0d8f97a242",
  "confirmations": 47668,
  "height": 5430,
  "version": 1,
  "versionHex": "00000001",
  "merkleroot": "0921f67ca78b340749399c87199bdead12838bcf5275bbc30c2f8a7d1d1d5aba",
  "time": 1235464406,
  "mediantime": 1235460584,
  "nonce": 3937300228,
  "bits": "1d00ffff",
  "difficulty": 1,
  "chainwork": "0000000000000000000000000000000000000000000000000000153715371537",
  "nTx": 1,
  "previousblockhash": "000000005fa9181adbb3ede82c9a692974e06a3267429243c831b7031664a9e6",
  "nextblockhash": "000000000174ca114a54caeabe0a010627edaa72e94543110b22c14ea061ef5e",
  "strippedsize": 216,
  "size": 216,
  "weight": 864,
  "tx": [
    {
      "txid": "0921f67ca78b340749399c87199bdead12838bcf5275bbc30c2f8a7d1d1d5aba",
      "hash": "0921f67ca78b340749399c87199bdead12838bcf5275bbc30c2f8a7d1d1d5aba",
      "version": 1,
      "size": 135,
      "vsize": 135,
      "weight": 540,
      "locktime": 0,
      "vin": [
        {
          "coinbase": "04ffff001d022c04",
          "sequence": 4294967295
        }
      ],
      "vout": [
        {
          "value": 50.0,
          "n": 0,
          "scriptPubKey": {
            "asm": "0461b90bc9256abe54970a56664a4953e158e83e4182495ee3f66f8d0f8166396601167a5799b46d13b7d3bf9491f614324858f53bf4666a98eb65b10a73822d10 OP_CHECKSIG",
            "desc": "pk(0461b90bc9256abe54970a56664a4953e158e83e4182495ee3f66f8d0f8166396601167a5799b46d13b7d3bf9491f614324858f53bf4666a98eb65b10a73822d10)#vmnerf0q",
            "hex": "410461b90bc9256abe54970a56664a4953e158e83e4182495ee3f66f8d0f8166396601167a5799b46d13b7d3bf9491f614324858f53bf4666a98eb65b10a73822d10ac",
            "type": "pubkey"
          }
        }
      ],
      "hex": "01000000010000000000000000000000000000000000000000000000000000000000000000ffffffff0804ffff001d022c04ffffffff0100f2052a0100000043410461b90bc9256abe54970a56664a4953e158e83e4182495ee3f66f8d0f8166396601167a5799b46d13b7d3bf9491f614324858f53bf4666a98eb65b10a73822d10ac00000000"
    }
  ]
}