{
  "hash": "0000000040fe84dbc9264b107e16edea8538b4ce2066932823d3388d30983ca0",
  "confirmations": 44318,
  "height": 8780,
  "version": 1,
  "versionHex": "00000001",
  "merkleroot": "5883a4a398fe9e98d4d94071f3956a1f72884c803ff13681ee581838281a2af3",
  "time": 1238085936,
  "mediantime": 1238080902,
  "nonce": 87354162,
  "bits": "1d00ffff",
  "difficulty": 1,
  "chainwork": "0000000000000000000000000000000000000000000000000000224d224d224d",
  "nTx": 1,
  "previousblockhash": "000000007e982c1dfb6d928c0c185bba82f9bef5eed09f193454bec8a0bfb6ab",
  "nextblockhash": "0000000065af049a9fa93cea542046013d314e698055304d998bf89318f05c10",
  "strippedsize": 215,
  "size": 215,
  "weight": 860,
  "tx": [
    {
      "txid": "5883a4a398fe9e98d4d94071f3956a1f72884c803ff13681ee581838281a2af3",
      "hash": "5883a4a398fe9e98d4d94071f3956a1f72884c803ff13681ee581838281a2af3",
      "version": 1,
      "size": 134,
      "vsize": 134,
      "weight": 536,
      "locktime": 0,
      "vin": [
        {
          "coinbase": "04ffff001d0164",
          "sequence": 4294967295
        }
      ],
      "vout": [
        {
          "value": 50.0,
          "n": 0,
          "scriptPubKey": {
            "asm": "04088acbbe069757596dd10724d95910f10ac8f344f56732c1c4aec879c46c398dbfd56692bb53efe1ffe68d9eeb1ec65d9b22632cc99b042f7dba73600ffdb080 OP_CHECKSIG",
            "desc": "pk(04088acbbe069757596dd10724d95910f10ac8f344f56732c1c4aec879c46c398dbfd56692bb53efe1ffe68d9eeb1ec65d9b22632cc99b042f7dba73600ffdb080)#98prrfp8",
            "hex": "4104088acbbe069757596dd10724d95910f10ac8f344f56732c1c4aec879c46c398dbfd56692bb53efe1ffe68d9eeb1ec65d9b22632cc99b042f7dba73600ffdb080ac",
            "type": "pubkey"
          }
        }
      ],
      "hex": "01000000010000000000000000000000000000000000000000000000000000000000000000ffffffff0704ffff001d0164ffffffff0100f2052a01000000434104088acbbe069757596dd10724d95910f10ac8f344f56732c1c4aec879c46c398dbfd56692bb53efe1ffe68d9eeb1ec65d9b22632cc99b042f7dba73600ffdb080ac00000000"
    }
  ]
}