{
  "hash": "0000000032a4ee63719e555ba720f48b999c6927b8c5fc4ec1aa881b8cfad9d0",
  "confirmations": 46072,
  "height": 7026,
  "version": 1,
  "versionHex": "00000001",
  "merkleroot": "9f2b3ee95eda40dd10ceee4f4d04f34e3ccf268cffdac9f9b7603df09fdd4abb",
  "time": 1236738834,
  "mediantime": 1236734448,
  "nonce": 113313620,
  "bits": "1d00ffff",
  "difficulty": 1,
  "chainwork": "00000000000000000000000000000000000000000000000000001b731b731b73",
  "nTx": 1,
  "previousblockhash": "000000003fc7d34950a54c00a42dce0347bca5b7e8dddc355c7e5515689c3a51",
  "nextblockhash": "000000007770e0b928a9a972c10c1a7bd91afdefc0eaf09580158e1703d17cf2",
  "strippedsize": 216,
  "size": 216,
  "weight": 864,
  "tx": [
    {
      "txid": "9f2b3ee95eda40dd10ceee4f4d04f34e3ccf268cffdac9f9b7603df09fdd4abb",
      "hash": "9f2b3ee95eda40dd10ceee4f4d04f34e3ccf268cffdac9f9b7603df09fdd4abb",
      "version": 1,
      "size": 135,
      "vsize": 135,
      "weight": 540,
      "locktime": 0,
      "vin": [
        {
          "coinbase": "04ffff001d022106",
          "sequence": 4294967295
        }
      ],
      "vout": [
        {
          "value": 50.0,
          "n": 0,
          "scriptPubKey": {
            "asm": "044a1839efc63f658c575926bcf2bdd9118bed035b7e37eb55323b9cbea2e76fb2a0ad009531e0102cd9830da4cf194683ac39acacf256a6ef69a4460d75b313a2 OP_CHECKSIG",
            "desc": "pk(044a1839efc63f658c575926bcf2bdd9118bed035b7e37eb55323b9cbea2e76fb2a0ad009531e0102cd9830da4cf194683ac39acacf256a6ef69a4460d75b313a2)#kga5m2n6",
            "hex": "41044a1839efc63f658c575926bcf2bdd9118bed035b7e37eb55323b9cbea2e76fb2a0ad009531e0102cd9830da4cf194683ac39acacf256a6ef69a4460d75b313a2ac",
            "type": "pubkey"
          }
        }
      ],
      "hex": "01000000010000000000000000000000000000000000000000000000000000000000000000ffffffff0804ffff001d022106ffffffff0100f2052a010000004341044a1839efc63f658c575926bcf2bdd9118bed035b7e37eb55323b9cbea2e76fb2a0ad009531e0102cd9830da4cf194683ac39acacf256a6ef69a4460d75b313a2ac00000000"
    }
  ]
}