{
  "hash": "00000000843cc27b41ec1e55d9f8127282b0f7fb297c199e2433dcb5a7d37261",
  "confirmations": 47770,
  "height": 5328,
  "version": 1,
  "versionHex": "00000001",
  "merkleroot": "1e36974e2ad29d82cdaf38a9c6add10ff6faecd1cf3b143593ded738d0398080",
  "time": 1235384895,
  "mediantime": 1235380865,
  "nonce": 1050167335,
  "bits": "1d00ffff",
  "difficulty": 1,
  "chainwork": "000000000000000000000000000000000000000000000000000014d114d114d1",
  "nTx": 1,
  "previousblockhash": "0000000034996a68e2e034e1e2f0666529af14937e49bc92a8ea23f4500bc378",
  "nextblockhash": "0000000040298fb6cf9a5694b0553d93f82d3d5aadca420bf50182b8a9c1673e",
  "strippedsize": 216,
  "size": 216,
  "weight": 864,
  "tx": [
    {
      "txid": "1e36974e2ad29d82cdaf38a9c6add10ff6faecd1cf3b143593ded738d0398080",
      "hash": "1e36974e2ad29d82cdaf38a9c6add10ff6faecd1cf3b143593ded738d0398080",
      "version": 1,
      "size": 135,
      "vsize": 135,
      "weight": 540,
      "locktime": 0,
      "vin": [
        {
          "coinbase": "04ffff001d027902",
          "sequence": 4294967295
        }
      ],
      "vout": [
        {
          "value": 50.0,
          "n": 0,
          "scriptPubKey": {
            "asm": "043952b19a7c3372b409a5f919445238f265f46cbb670fea3d87f2049f8ba5c242165f17e2b9da864d67d943791d4198f86eb790cd3489ee9d68caa52f23807cf8 OP_CHECKSIG",
            "desc": "pk(043952b19a7c3372b409a5f919445238f265f46cbb670fea3d87f2049f8ba5c242165f17e2b9da864d67d943791d4198f86eb790cd3489ee9d68caa52f23807cf8)#se3hplnn",
            "hex": "41043952b19a7c3372b409a5f919445238f265f46cbb670fea3d87f2049f8ba5c242165f17e2b9da864d67d943791d4198f86eb790cd3489ee9d68caa52f23807cf8ac",
            "type": "pubkey"
          }
        }
      ],
      "hex": "01000000010000000000000000000000000000000000000000000000000000000000000000ffffffff0804ffff001d027902ffffffff0100f2052a010000004341043952b19a7c3372b409a5f919445238f265f46cbb670fea3d87f2049f8ba5c242165f17e2b9da864d67d943791d4198f86eb790cd3489ee9d68caa52f23807cf8ac00000000"
    }
  ]
}