{
  "hash": "000000000c10387a9c25bf199de9619ec0169ca480bf5be2fb176d195390936b",
  "confirmations": 50984,
  "height": 2114,
  "version": 1,
  "versionHex": "00000001",
  "merkleroot": "ff6ea183540a93dc0f55052f55b5d0a31dd464745d7e1e33bc6d4a45de4d06aa",
  "time": 1233148853,
  "mediantime": 1233143102,
  "nonce": 314644307,
  "bits": "1d00ffff",
  "difficulty": 1,
  "chainwork": "0000000000000000000000000000000000000000000000000000084308430843",
  "nTx": 1,
  "previousblockhash": "0000000074e6f8830b061e9496206845ca583f640e6ebc57add54cda51b0d981",
  "nextblockhash": "000000003b1a33fecc66ca72fc1742865736881bcf78306b80fa44195678313a",
  "strippedsize": 215,
  "size": 215,
  "weight": 860,
  "tx": [
    {
      "txid": "ff6ea183540a93dc0f55052f55b5d0a31dd464745d7e1e33bc6d4a45de4d06aa",
      "hash": "ff6ea183540a93dc0f55052f55b5d0a31dd464745d7e1e33bc6d4a45de4d06aa",
      "version": 1,
      "size": 134,
      "vsize": 134,
      "weight": 536,
      "locktime": 0,
      "vin": [
        {
          "coinbase": "04ffff001d0108",
          "sequence": 4294967295
        }
      ],
      "vout": [
        {
          "value": 50.0,
          "n": 0,
          "scriptPubKey": {
            "asm": "04e03bd6df7d1f44886163f0638950a09e9db7f0cb62bb71c41b30e1f3b648b5d6f7b2df37435d46b79653a38dc09a2d3391388cfbe03d3b716dc148bb1ec383b6 OP_CHECKSIG",
            "desc": "pk(04e03bd6df7d1f44886163f0638950a09e9db7f0cb62bb71c41b30e1f3b648b5d6f7b2df37435d46b79653a38dc09a2d3391388cfbe03d3b716dc148bb1ec383b6)#y4tl9rs8",
            "hex": "4104e03bd6df7d1f44886163f0638950a09e9db7f0cb62bb71c41b30e1f3b648b5d6f7b2df37435d46b79653a38dc09a2d3391388cfbe03d3b716dc148bb1ec383b6ac",
            "type": "pubkey"
          }
        }
      ],
      "hex": "01000000010000000000000000000000000000000000000000000000000000000000000000ffffffff0704ffff001d0108ffffffff0100f2052a01000000434104e03bd6df7d1f44886163f0638950a09e9db7f0cb62bb71c41b30e1f3b648b5d6f7b2df37435d46b79653a38dc09a2d3391388cfbe03d3b716dc148bb1ec383b6ac00000000"
    }
  ]
}