{
  "hash": "000000003a1f2355922617c1ce8c0b0ee6c08e2614ccc6d4a898191fe3f1c237",
  "confirmations": 46069,
  "height": 7029,
  "version": 1,
  "versionHex": "00000001",
  "merkleroot": "38aff376dcec42dab85e3fd2d30839b572becef481a19468e3db5e17bb9c5fa4",
  "time": 1236739372,
  "mediantime": 1236736771,
  "nonce": 679145505,
  "bits": "1d00ffff",
  "difficulty": 1,
  "chainwork": "00000000000000000000000000000000000000000000000000001b761b761b76",
  "nTx": 1,
  "previousblockhash": "00000000c8c441b920be149d400444f6cf0ac57d04974196d012430ad9746c5e",
  "nextblockhash": "000000000763975802abb62458b61145ed86ef888029acaccfa2bd567781419f",
  "strippedsize": 216,
  "size": 216,
  "weight": 864,
  "tx": [
    {
      "txid": "38aff376dcec42dab85e3fd2d30839b572becef481a19468e3db5e17bb9c5fa4",
      "hash": "38aff376dcec42dab85e3fd2d30839b572becef481a19468e3db5e17bb9c5fa4",
      "version": 1,
      "size": 135,
      "vsize": 135,
      "weight": 540,
      "locktime": 0,
      "vin": [
        {
          "coinbase": "04ffff001d02d902",
          "sequence": 4294967295
        }
      ],
      "vout": [
        {
          "value": 50.0,
          "n": 0,
          "scriptPubKey": {
            "asm": "040327d3d940bba287ccebdb9568bcb091ac132b69272ce5957b812e6a5d0a3a40f2580be18a5e751f2f486f20295319bd919527884e57caeccdb70ed063013f2f OP_CHECKSIG",
            "desc": "pk(040327d3d940bba287ccebdb9568bcb091ac132b69272ce5957b812e6a5d0a3a40f2580be18a5e751f2f486f20295319bd919527884e57caeccdb70ed063013f2f)#cfku9hu4",
            "hex": "41040327d3d940bba287ccebdb9568bcb091ac132b69272ce5957b812e6a5d0a3a40f2580be18a5e751f2f486f20295319bd919527884e57caeccdb70ed063013f2fac",
            "type": "pubkey"
          }
        }
      ],
      "hex": "01000000010000000000000000000000000000000000000000000000000000000000000000ffffffff0804ffff001d02d902ffffffff0100f2052a010000004341040327d3d940bba287ccebdb9568bcb091ac132b69272ce5957b812e6a5d0a3a40f2580be18a5e751f2f486f20295319bd919527884e57caeccdb70ed063013f2fac00000000"
    }
  ]
}