{
  "hash": "00000000783ce6fe6b2880adced900649c851851630043888079c76fbd3d670b",
  "confirmations": 50765,
  "height": 2333,
  "version": 1,
  "versionHex": "00000001",
  "merkleroot": "8b55afff325f41f68e3cd325ae42ba8fd117490d378d8e123da84026eae06e8f",
  "time": 1233304178,
  "mediantime": 1233300515,
  "nonce": 2960464419,
  "bits": "1d00ffff",
  "difficulty": 1,
  "chainwork": "0000000000000000000000000000000000000000000000000000091e091e091e",
  "nTx": 1,
  "previousblockhash": "000000008b352dceffae1085aff7a87bdaab4fc553418d0dbbab0a8727f19b02",
  "nextblockhash": "00000000005c71ed36bf631dd20841b2745cccb29d620b75f929738dba5d3e96",
  "strippedsize": 216,
  "size": 216,
  "weight": 864,
  "tx": [
    {
      "txid": "8b55afff325f41f68e3cd325ae42ba8fd117490d378d8e123da84026eae06e8f",
      "hash": "8b55afff325f41f68e3cd325ae42ba8fd117490d378d8e123da84026eae06e8f",
      "version": 1,
      "size": 135,
      "vsize": 135,
      "weight": 540,
      "locktime": 0,
      "vin": [
        {
          "coinbase": "04ffff001d025602",
          "sequence": 4294967295
        }
      ],
      "vout": [
        {
          "value": 50.0,
          "n": 0,
          "scriptPubKey": {
            "asm": "04ffbf610155201426ed7d50c39ee484d8662c52b2e66aadac7192b7c0dee739edd17146f16377b4bf00320dffbd3ce3d67a4679d2b1e91ea27bec8846cad8837e OP_CHECKSIG",
            "desc": "pk(04ffbf610155201426ed7d50c39ee484d8662c52b2e66aadac7192b7c0dee739edd17146f16377b4bf00320dffbd3ce3d67a4679d2b1e91ea27bec8846cad8837e)#js9xl9c5",
            "hex": "4104ffbf610155201426ed7d50c39ee484d8662c52b2e66aadac7192b7c0dee739edd17146f16377b4bf00320dffbd3ce3d67a4679d2b1e91ea27bec8846cad8837eac",
            "type": "pubkey"
          }
        }
      ],
      "hex": "01000000010000000000000000000000000000000000000000000000000000000000000000ffffffff0804ffff001d025602ffffffff0100f2052a01000000434104ffbf610155201426ed7d50c39ee484d8662c52b2e66aadac7192b7c0dee739edd17146f16377b4bf00320dffbd3ce3d67a4679d2b1e91ea27bec8846cad8837eac00000000"
    }
  ]
}