{
  "hash": "000000007f587e745a6a7466fc9e8833393355c21f160e44193af0ca5c500fa8",
  "confirmations": 43858,
  "height": 9240,
  "version": 1,
  "versionHex": "00000001",
  "merkleroot": "924a1ab2ccb52ab1c21336c5e4cd58fd09242d540c75ab01c4599ee85d70cc01",
  "time": 1238426427,
  "mediantime": 1238422747,
  "nonce": 16058871,
  "bits": "1d00ffff",
  "difficulty": 1,
  "chainwork": "0000000000000000000000000000000000000000000000000000241924192419",
  "nTx": 1,
  "previousblockhash": "00000000046a0e9eca9f1398d488821243c658362f060efb34da3f9b22e65709",
  "nextblockhash": "000000002967f2ddb3ed77b8de268cd71f35ff3db466570bea844ab75de82201",
  "strippedsize": 215,
  "size": 215,
  "weight": 860,
  "tx": [
    {
      "txid": "924a1ab2ccb52ab1c21336c5e4cd58fd09242d540c75ab01c4599ee85d70cc01",
      "hash": "924a1ab2ccb52ab1c21336c5e4cd58fd09242d540c75ab01c4599ee85d70cc01",
      "version": 1,
      "size": 134,
      "vsize": 134,
      "weight": 536,
      "locktime": 0,
      "vin": [
        {
          "coinbase": "04ffff001d0135",
          "sequence": 4294967295
        }
      ],
      "vout": [
        {
          "value": 50.0,
          "n": 0,
          "scriptPubKey": {
            "asm": "04a9853301abf4839362ae6cc39c4d35eb3f28bdfe68c7cc294e339d14e63bcab4db4f107e29c7c474a628c2ea8095211a065134a86ffc884653d5ea57e5a56ee0 OP_CHECKSIG",
            "desc": "pk(04a9853301abf4839362ae6cc39c4d35eb3f28bdfe68c7cc294e339d14e63bcab4db4f107e29c7c474a628c2ea8095211a065134a86ffc884653d5ea57e5a56ee0)#pfuguqpf",
            "hex": "4104a9853301abf4839362ae6cc39c4d35eb3f28bdfe68c7cc294e339d14e63bcab4db4f107e29c7c474a628c2ea8095211a065134a86ffc884653d5ea57e5a56ee0ac",
            "type": "pubkey"
          }
        }
      ],
      "hex": "01000000010000000000000000000000000000000000000000000000000000000000000000ffffffff0704ffff001d0135ffffffff0100f2052a01000000434104a9853301abf4839362ae6cc39c4d35eb3f28bdfe68c7cc294e339d14e63bcab4db4f107e29c7c474a628c2ea8095211a065134a86ffc884653d5ea57e5a56ee0ac00000000"
    }
  ]
}