{
  "hash": "00000000ae401b37b65edfe4e2627692d496db9d71ea701d371a24a1b0556128",
  "confirmations": 47841,
  "height": 5257,
  "version": 1,
  "versionHex": "00000001",
  "merkleroot": "c55423c8bcac92f4dd0974b05add92a1574470298492c77505c56ba9dceff176",
  "time": 1235328469,
  "mediantime": 1235324712,
  "nonce": 872501276,
  "bits": "1d00ffff",
  "difficulty": 1,
  "chainwork": "0000000000000000000000000000000000000000000000000000148a148a148a",
  "nTx": 1,
  "previousblockhash": "000000008e5508b05736619c7a9cccfe88b36f7ace69086e1a24c0546854db13",
  "nextblockhash": "00000000498f9d53b09d6b486716a8b79c60e43be439e4520517830fefd6f2d2",
  "strippedsize": 216,
  "size": 216,
  "weight": 864,
  "tx": [
    {
      "txid": "c55423c8bcac92f4dd0974b05add92a1574470298492c77505c56ba9dceff176",
      "hash": "c55423c8bcac92f4dd0974b05add92a1574470298492c77505c56ba9dceff176",
      "version": 1,
      "size": 135,
      "vsize": 135,
      "weight": 540,
      "locktime": 0,
      "vin": [
        {
          "coinbase": "04ffff001d026801",
          "sequence": 4294967295
        }
      ],
      "vout": [
        {
          "value": 50.0,
          "n": 0,
          "scriptPubKey": {
            "asm": "04a0fb0ddcfd8c5adccc908e5835aad7b7623cf90b56d506a7ea9299d2d27e4ed5764e87860db6fa2804a7f3e243ede7d5194740dde5f4660d9d8cea07f4412a7c OP_CHECKSIG",
            "desc": "pk(04a0fb0ddcfd8c5adccc908e5835aad7b7623cf90b56d506a7ea9299d2d27e4ed5764e87860db6fa2804a7f3e243ede7d5194740dde5f4660d9d8cea07f4412a7c)#hmrmafty",
            "hex": "4104a0fb0ddcfd8c5adccc908e5835aad7b7623cf90b56d506a7ea9299d2d27e4ed5764e87860db6fa2804a7f3e243ede7d5194740dde5f4660d9d8cea07f4412a7cac",
            "type": "pubkey"
          }
        }
      ],
      "hex": "01000000010000000000000000000000000000000000000000000000000000000000000000ffffffff0804ffff001d026801ffffffff0100f2052a01000000434104a0fb0ddcfd8c5adccc908e5835aad7b7623cf90b56d506a7ea9299d2d27e4ed5764e87860db6fa2804a7f3e243ede7d5194740dde5f4660d9d8cea07f4412a7cac00000000"
    }
  ]
}