{
  "hash": "00000000076e64aa17a89e633e321d82515abf289ed896ddfc5d5d320a3e9702",
  "confirmations": 47726,
  "height": 5372,
  "version": 1,
  "versionHex": "00000001",
  "merkleroot": "dac073e9bb01e426204c68a2a4c5c9e821b2d4b7efba64d32f82a3a0c1ebe68d",
  "time": 1235417902,
  "mediantime": 1235415906,
  "nonce": 38931887,
  "bits": "1d00ffff",
  "difficulty": 1,
  "chainwork": "000000000000000000000000000000000000000000000000000014fd14fd14fd",
  "nTx": 1,
  "previousblockhash": "00000000b4e549b545583b9f3f3823df84eeb43df830e7c7ff716b55d07817d9",
  "nextblockhash": "00000000dbec8cc619aa4609606dfe91703072ac19131d91037e0d6279d44ae7",
  "strippedsize": 216,
  "size": 216,
  "weight": 864,
  "tx": [
    {
      "txid": "dac073e9bb01e426204c68a2a4c5c9e821b2d4b7efba64d32f82a3a0c1ebe68d",
      "hash": "dac073e9bb01e426204c68a2a4c5c9e821b2d4b7efba64d32f82a3a0c1ebe68d",
      "version": 1,
      "size": 135,
      "vsize": 135,
      "weight": 540,
      "locktime": 0,
      "vin": [
        {
          "coinbase": "04ffff001d02da00",
          "sequence": 4294967295
        }
      ],
      "vout": [
        {
          "value": 50.0,
          "n": 0,
          "scriptPubKey": {
            "asm": "0416c27382651f70e0820a3588ae24f4effdd4616c635cf687b73a8244b5f6d9fd6f02fa18344d8a2391bd74a594f4ff176d90050fa4fe5e5e76c7acf20fb59fcc OP_CHECKSIG",
            "desc": "pk(0416c27382651f70e0820a3588ae24f4effdd4616c635cf687b73a8244b5f6d9fd6f02fa18344d8a2391bd74a594f4ff176d90050fa4fe5e5e76c7acf20fb59fcc)#khrnla8j",
            "hex": "410416c27382651f70e0820a3588ae24f4effdd4616c635cf687b73a8244b5f6d9fd6f02fa18344d8a2391bd74a594f4ff176d90050fa4fe5e5e76c7acf20fb59fccac",
            "type": "pubkey"
          }
        }
      ],
      "hex": "01000000010000000000000000000000000000000000000000000000000000000000000000ffffffff0804ffff001d02da00ffffffff0100f2052a0100000043410416c27382651f70e0820a3588ae24f4effdd4616c635cf687b73a8244b5f6d9fd6f02fa18344d8a2391bd74a594f4ff176d90050fa4fe5e5e76c7acf20fb59fccac00000000"
    }
  ]
}