{
  "hash": "00000000c3443b2573654522476c682b9a757d96e78c86e0587032c95d8057b9",
  "confirmations": 43277,
  "height": 9821,
  "version": 1,
  "versionHex": "00000001",
  "merkleroot": "af0e3553b621c386ae6a39f930270b0bede8d45c97eae9079e7c3f1f0d63c921",
  "time": 1238870123,
  "mediantime": 1238866686,
  "nonce": 2079804182,
  "bits": "1d00ffff",
  "difficulty": 1,
  "chainwork": "0000000000000000000000000000000000000000000000000000265e265e265e",
  "nTx": 1,
  "previousblockhash": "00000000aaee60d583925d51209d30fde95333270f40f19415e9b62ef7e39eea",
  "nextblockhash": "0000000095f7eb84f5123a78b3446c3d78b080b49ff11877f4bdca2ff8d8bce5",
  "strippedsize": 216,
  "size": 216,
  "weight": 864,
  "tx": [
    {
      "txid": "af0e3553b621c386ae6a39f930270b0bede8d45c97eae9079e7c3f1f0d63c921",
      "hash": "af0e3553b621c386ae6a39f930270b0bede8d45c97eae9079e7c3f1f0d63c921",
      "version": 1,
      "size": 135,
      "vsize": 135,
      "weight": 540,
      "locktime": 0,
      "vin": [
        {
          "coinbase": "04ffff001d029b00",
          "sequence": 4294967295
        }
      ],
      "vout": [
        {
          "value": 50.0,
          "n": 0,
          "scriptPubKey": {
            "asm": "04c1583eacde3c5845386a27a3a7453f1aadc823ec20360b6cbf472abfff378802a897b3cc20182078bd841deadfb21b8396d4f8a1d42930578e62cca4852edc06 OP_CHECKSIG",
            "desc": "pk(04c1583eacde3c5845386a27a3a7453f1aadc823ec20360b6cbf472abfff378802a897b3cc20182078bd841deadfb21b8396d4f8a1d42930578e62cca4852edc06)#df7hmqd2",
            "hex": "4104c1583eacde3c5845386a27a3a7453f1aadc823ec20360b6cbf472abfff378802a897b3cc20182078bd841deadfb21b8396d4f8a1d42930578e62cca4852edc06ac",
            "type": "pubkey"
          }
        }
      ],
      "hex": "01000000010000000000000000000000000000000000000000000000000000000000000000ffffffff0804ffff001d029b00ffffffff0100f2052a01000000434104c1583eacde3c5845386a27a3a7453f1aadc823ec20360b6cbf472abfff378802a897b3cc20182078bd841deadfb21b8396d4f8a1d42930578e62cca4852edc06ac00000000"
    }
  ]
}