{
  "hash": "00000000a9986bfca3dbfbbfe4bb9c093a8cc69e891d8f8cfb5d618ff7157dbf",
  "confirmations": 44336,
  "height": 8762,
  "version": 1,
  "versionHex": "00000001",
  "merkleroot": "2a7b7ccafde7ee30a0761be231702af4036a3f5c69cd538b402085f1cdb9f028",
  "time": 1238071859,
  "mediantime": 1238066320,
  "nonce": 2471907613,
  "bits": "1d00ffff",
  "difficulty": 1,
  "chainwork": "0000000000000000000000000000000000000000000000000000223b223b223b",
  "nTx": 1,
  "previousblockhash": "000000005797eb3df3db161fac7c403a6c45ba02866300cec4aefc587d68cd6d",
  "nextblockhash": "0000000092146e5abc54f7475e508978ead63a6cb638ae88eec5270b18026089",
  "strippedsize": 216,
  "size": 216,
  "weight": 864,
  "tx": [
    {
      "txid": "2a7b7ccafde7ee30a0761be231702af4036a3f5c69cd538b402085f1cdb9f028",
      "hash": "2a7b7ccafde7ee30a0761be231702af4036a3f5c69cd538b402085f1cdb9f028",
      "version": 1,
      "size": 135,
      "vsize": 135,
      "weight": 540,
      "locktime": 0,
      "vin": [
        {
          "coinbase": "04ffff001d02f701",
          "sequence": 4294967295
        }
      ],
      "vout": [
        {
          "value": 50.0,
          "n": 0,
          "scriptPubKey": {
            "asm": "041f8050c878b82a4dd06b7ab25cfc2d7d0e208b5d137b599ac70c42c568f760711678f1fa4002d7f264a97b911566e6b08d92b9873284b4eee7eb53f21837199b OP_CHECKSIG",
            "desc": "pk(041f8050c878b82a4dd06b7ab25cfc2d7d0e208b5d137b599ac70c42c568f760711678f1fa4002d7f264a97b911566e6b08d92b9873284b4eee7eb53f21837199b)#gy0pxntv",
            "hex": "41041f8050c878b82a4dd06b7ab25cfc2d7d0e208b5d137b599ac70c42c568f760711678f1fa4002d7f264a97b911566e6b08d92b9873284b4eee7eb53f21837199bac",
            "type": "pubkey"
          }
        }
      ],
      "hex": "01000000010000000000000000000000000000000000000000000000000000000000000000ffffffff0804ffff001d02f701ffffffff0100f2052a010000004341041f8050c878b82a4dd06b7ab25cfc2d7d0e208b5d137b599ac70c42c568f760711678f1fa4002d7f264a97b911566e6b08d92b9873284b4eee7eb53f21837199bac00000000"
    }
  ]
}