{
  "hash": "00000000d1f205ec80e83524fdc865c36ad93010a9e3189ac9fc651de1bea67e",
  "confirmations": 46186,
  "height": 6912,
  "version": 1,
  "versionHex": "00000001",
  "merkleroot": "ba379aabee25ec13869401d5064be226a771dc2e708ffc9f4ceb3992abb35d8d",
  "time": 1236647573,
  "mediantime": 1236643998,
  "nonce": 2087178023,
  "bits": "1d00ffff",
  "difficulty": 1,
  "chainwork": "00000000000000000000000000000000000000000000000000001b011b011b01",
  "nTx": 1,
  "previousblockhash": "00000000300be803b1f3a0eda0fc130389487f71325b8c506e48b3fabc69b9e9",
  "nextblockhash": "00000000e288b131db4d97f623323513bf6b46c492c8c6b7fc4f531756f056e5",
  "strippedsize": 216,
  "size": 216,
  "weight": 864,
  "tx": [
    {
      "txid": "ba379aabee25ec13869401d5064be226a771dc2e708ffc9f4ceb3992abb35d8d",
      "hash": "ba379aabee25ec13869401d5064be226a771dc2e708ffc9f4ceb3992abb35d8d",
      "version": 1,
      "size": 135,
      "vsize": 135,
      "weight": 540,
      "locktime": 0,
      "vin": [
        {
          "coinbase": "04ffff001d02a800",
          "sequence": 4294967295
        }
      ],
      "vout": [
        {
          "value": 50.0,
          "n": 0,
          "scriptPubKey": {
            "asm": "04ff4c3795e43fce0eafae89c09144733c232f5471f40ca7fe9f506fff0a1ac3e5d6fba9d23c0f53921b4b1629a57d23eaa56eeda0c961a21c18e739db1b8e59e3 OP_CHECKSIG",
            "desc": "pk(04ff4c3795e43fce0eafae89c09144733c232f5471f40ca7fe9f506fff0a1ac3e5d6fba9d23c0f53921b4b1629a57d23eaa56eeda0c961a21c18e739db1b8e59e3)#g5n3q9e8",
            "hex": "4104ff4c3795e43fce0eafae89c09144733c232f5471f40ca7fe9f506fff0a1ac3e5d6fba9d23c0f53921b4b1629a57d23eaa56eeda0c961a21c18e739db1b8e59e3ac",
            "type": "pubkey"
          }
        }
      ],
      "hex": "01000000010000000000000000000000000000000000000000000000000000000000000000ffffffff0804ffff001d02a800ffffffff0100f2052a01000000434104ff4c3795e43fce0eafae89c09144733c232f5471f40ca7fe9f506fff0a1ac3e5d6fba9d23c0f53921b4b1629a57d23eaa56eeda0c961a21c18e739db1b8e59e3ac00000000"
    }
  ]
}