{
  "hash": "00000000978739bcc064e4cf7da894ad98f4529e5c93b149cd4b6d134b265d7a",
  "confirmations": 50021,
  "height": 3077,
  "version": 1,
  "versionHex": "00000001",
  "merkleroot": "5c754d152cfcf692dde47204ad5f8b28fb00080a893be196614f92b2a48f7941",
  "time": 1233816522,
  "mediantime": 1233810799,
  "nonce": 3826382868,
  "bits": "1d00ffff",
  "difficulty": 1,
  "chainwork": "00000000000000000000000000000000000000000000000000000c060c060c06",
  "nTx": 1,
  "previousblockhash": "00000000f71567e68faebf55d2aff6d913af2e3a96007d29dd47c40478f3d9f6",
  "nextblockhash": "0000000093d83ef0269311b4c3c73e89ed5e1b7bfaddd27cb1442d8086f19202",
  "strippedsize": 216,
  "size": 216,
  "weight": 864,
  "tx": [
    {
      "txid": "5c754d152cfcf692dde47204ad5f8b28fb00080a893be196614f92b2a48f7941",
      "hash": "5c754d152cfcf692dde47204ad5f8b28fb00080a893be196614f92b2a48f7941",
      "version": 1,
      "size": 135,
      "vsize": 135,
      "weight": 540,
      "locktime": 0,
      "vin": [
        {
          "coinbase": "04ffff001d02d500",
          "sequence": 4294967295
        }
      ],
      "vout": [
        {
          "value": 50.0,
          "n": 0,
          "scriptPubKey": {
            "asm": "0457f8075b1b108a9809e04318d0e111e5119fb380b2a63bf4f1bdd31623188cdc800c93d7eebb6dc0bde4503e33289a3aefe3074fafcd37ff38c54333b1bb3346 OP_CHECKSIG",
            "desc": "pk(0457f8075b1b108a9809e04318d0e111e5119fb380b2a63bf4f1bdd31623188cdc800c93d7eebb6dc0bde4503e33289a3aefe3074fafcd37ff38c54333b1bb3346)#6hvdagyl",
            "hex": "410457f8075b1b108a9809e04318d0e111e5119fb380b2a63bf4f1bdd31623188cdc800c93d7eebb6dc0bde4503e33289a3aefe3074fafcd37ff38c54333b1bb3346ac",
            "type": "pubkey"
          }
        }
      ],
      "hex": "01000000010000000000000000000000000000000000000000000000000000000000000000ffffffff0804ffff001d02d500ffffffff0100f2052a0100000043410457f8075b1b108a9809e04318d0e111e5119fb380b2a63bf4f1bdd31623188cdc800c93d7eebb6dc0bde4503e33289a3aefe3074fafcd37ff38c54333b1bb3346ac00000000"
    }
  ]
}