{
  "hash": "00000000e8e5275ee81b979c52df51e0a1a9b8eb5134b68b469bf1b44486ce0c",
  "confirmations": 44347,
  "height": 8751,
  "version": 1,
  "versionHex": "00000001",
  "merkleroot": "4ef95013dae8064a8e82f30d89e0d976adb3789f28371d0d7a5e8ec4056ac76b",
  "time": 1238059802,
  "mediantime": 1238056755,
  "nonce": 285503542,
  "bits": "1d00ffff",
  "difficulty": 1,
  "chainwork": "0000000000000000000000000000000000000000000000000000223022302230",
  "nTx": 1,
  "previousblockhash": "00000000ffcb592e42740b24ff659f3f2e5d938175fe918e7ef46efa6b86e36d",
  "nextblockhash": "0000000005be062bfcbe94c974c8678e7b4248735c48e73c26340585d993726a",
  "strippedsize": 216,
  "size": 216,
  "weight": 864,
  "tx": [
    {
      "txid": "4ef95013dae8064a8e82f30d89e0d976adb3789f28371d0d7a5e8ec4056ac76b",
      "hash": "4ef95013dae8064a8e82f30d89e0d976adb3789f28371d0d7a5e8ec4056ac76b",
      "version": 1,
      "size": 135,
      "vsize": 135,
      "weight": 540,
      "locktime": 0,
      "vin": [
        {
          "coinbase": "04ffff001d02c001",
          "sequence": 4294967295
        }
      ],
      "vout": [
        {
          "value": 50.0,
          "n": 0,
          "scriptPubKey": {
            "asm": "04ca9888b24be87add53bf3af85c33b20c4acef8cfaf2599d417ad83ecfab7526a455be440f45923f76543be89dfc10e9b5d0cae926dabd384679a5ee791431ee6 OP_CHECKSIG",
            "desc": "pk(04ca9888b24be87add53bf3af85c33b20c4acef8cfaf2599d417ad83ecfab7526a455be440f45923f76543be89dfc10e9b5d0cae926dabd384679a5ee791431ee6)#8wrfhat7",
            "hex": "4104ca9888b24be87add53bf3af85c33b20c4acef8cfaf2599d417ad83ecfab7526a455be440f45923f76543be89dfc10e9b5d0cae926dabd384679a5ee791431ee6ac",
            "type": "pubkey"
          }
        }
      ],
      "hex": "01000000010000000000000000000000000000000000000000000000000000000000000000ffffffff0804ffff001d02c001ffffffff0100f2052a01000000434104ca9888b24be87add53bf3af85c33b20c4acef8cfaf2599d417ad83ecfab7526a455be440f45923f76543be89dfc10e9b5d0cae926dabd384679a5ee791431ee6ac00000000"
    }
  ]
}