{
  "hash": "00000000ee7cb461956c7fc73133ddf14c7592395f7063df1656bf62425bb8f6",
  "confirmations": 43803,
  "height": 9295,
  "version": 1,
  "versionHex": "00000001",
  "merkleroot": "0a6efe4bd856b33756a5fdd1d995a5de3838cc80f3902cdf0b9f7d5dd705d7d9",
  "time": 1238471500,
  "mediantime": 1238466937,
  "nonce": 1586039866,
  "bits": "1d00ffff",
  "difficulty": 1,
  "chainwork": "0000000000000000000000000000000000000000000000000000245024502450",
  "nTx": 1,
  "previousblockhash": "00000000b2ff1d0b976c244900e87f7434c26699e31c1ac5bcd7a3453f926fbd",
  "nextblockhash": "00000000ad2347640191fb915c0329933e87d7204d86594c06fff363103e9344",
  "strippedsize": 216,
  "size": 216,
  "weight": 864,
  "tx": [
    {
      "txid": "0a6efe4bd856b33756a5fdd1d995a5de3838cc80f3902cdf0b9f7d5dd705d7d9",
      "hash": "0a6efe4bd856b33756a5fdd1d995a5de3838cc80f3902cdf0b9f7d5dd705d7d9",
      "version": 1,
      "size": 135,
      "vsize": 135,
      "weight": 540,
      "locktime": 0,
      "vin": [
        {
          "coinbase": "04ffff001d02ab01",
          "sequence": 4294967295
        }
      ],
      "vout": [
        {
          "value": 50.0,
          "n": 0,
          "scriptPubKey": {
            "asm": "045eb4f16d5bf285b01337a0dacbf85c074f84510c3f7d50c31d5c1bb5a0f5065eceaf1273ae3a3bc235126b95cb02b9ee7af8e0e7f69483c670ebb27eede87e72 OP_CHECKSIG",
            "desc": "pk(045eb4f16d5bf285b01337a0dacbf85c074f84510c3f7d50c31d5c1bb5a0f5065eceaf1273ae3a3bc235126b95cb02b9ee7af8e0e7f69483c670ebb27eede87e72)#5lqmq70y",
            "hex": "41045eb4f16d5bf285b01337a0dacbf85c074f84510c3f7d50c31d5c1bb5a0f5065eceaf1273ae3a3bc235126b95cb02b9ee7af8e0e7f69483c670ebb27eede87e72ac",
            "type": "pubkey"
          }
        }
      ],
      "hex": "01000000010000000000000000000000000000000000000000000000000000000000000000ffffffff0804ffff001d02ab01ffffffff0100f2052a010000004341045eb4f16d5bf285b01337a0dacbf85c074f84510c3f7d50c31d5c1bb5a0f5065eceaf1273ae3a3bc235126b95cb02b9ee7af8e0e7f69483c670ebb27eede87e72ac00000000"
    }
  ]
}