{
  "hash": "00000000b4bf10a5470dad6a1f3f0dd290fb4e676fa17987908e6c0d3985bde5",
  "confirmations": 44278,
  "height": 8820,
  "version": 1,
  "versionHex": "00000001",
  "merkleroot": "46a9c0625c3c38d9d7139b882a29e78432a6418dfaf3bcf2add1acb9c125a097",
  "time": 1238113259,
  "mediantime": 1238110476,
  "nonce": 1981104438,
  "bits": "1d00ffff",
  "difficulty": 1,
  "chainwork": "0000000000000000000000000000000000000000000000000000227522752275",
  "nTx": 1,
  "previousblockhash": "00000000dfbb5618e8ee1779951eec919fceb99b88da02dd597c7d948fdf3833",
  "nextblockhash": "00000000d472029c58d8dd094b90f2be6ec2737bc62e9a1cabf79256af42384a",
  "strippedsize": 216,
  "size": 216,
  "weight": 864,
  "tx": [
    {
      "txid": "46a9c0625c3c38d9d7139b882a29e78432a6418dfaf3bcf2add1acb9c125a097",
      "hash": "46a9c0625c3c38d9d7139b882a29e78432a6418dfaf3bcf2add1acb9c125a097",
      "version": 1,
      "size": 135,
      "vsize": 135,
      "weight": 540,
      "locktime": 0,
      "vin": [
        {
          "coinbase": "04ffff001d021503",
          "sequence": 4294967295
        }
      ],
      "vout": [
        {
          "value": 50.0,
          "n": 0,
          "scriptPubKey": {
            "asm": "04bd170bbf9aa8fc81f1a36c98ea969248c2409d0de7dde185874d33d68fb4c53b69a98e1d013ea3268d2f6bb581a9ac165cb4ac7d4efe782e299dab3c3c27dcb0 OP_CHECKSIG",
            "desc": "pk(04bd170bbf9aa8fc81f1a36c98ea969248c2409d0de7dde185874d33d68fb4c53b69a98e1d013ea3268d2f6bb581a9ac165cb4ac7d4efe782e299dab3c3c27dcb0)#4af7vjy3",
            "hex": "4104bd170bbf9aa8fc81f1a36c98ea969248c2409d0de7dde185874d33d68fb4c53b69a98e1d013ea3268d2f6bb581a9ac165cb4ac7d4efe782e299dab3c3c27dcb0ac",
            "type": "pubkey"
          }
        }
      ],
      "hex": "01000000010000000000000000000000000000000000000000000000000000000000000000ffffffff0804ffff001d021503ffffffff0100f2052a01000000434104bd170bbf9aa8fc81f1a36c98ea969248c2409d0de7dde185874d33d68fb4c53b69a98e1d013ea3268d2f6bb581a9ac165cb4ac7d4efe782e299dab3c3c27dcb0ac00000000"
    }
  ]
}