{
  "hash": "000000004bde83b5eb086c3a4e8b85e09f743e5eb80b07f0a9df6047fa3a338b",
  "confirmations": 43252,
  "height": 9846,
  "version": 1,
  "versionHex": "00000001",
  "merkleroot": "56d16df503906c323ee13c575d3d90758a33eee13a84a2aedb879416468ab21a",
  "time": 1238888701,
  "mediantime": 1238884289,
  "nonce": 1189557021,
  "bits": "1d00ffff",
  "difficulty": 1,
  "chainwork": "0000000000000000000000000000000000000000000000000000267726772677",
  "nTx": 1,
  "previousblockhash": "00000000063331e3329b5d6372986310d4b9a85f793c8c34541dc788afba8ef3",
  "nextblockhash": "000000006ba2b4486646bee1b816212f2f33a30ab89cc2bffc5834d9462e908c",
  "strippedsize": 216,
  "size": 216,
  "weight": 864,
  "tx": [
    {
      "txid": "56d16df503906c323ee13c575d3d90758a33eee13a84a2aedb879416468ab21a",
      "hash": "56d16df503906c323ee13c575d3d90758a33eee13a84a2aedb879416468ab21a",
      "version": 1,
      "size": 135,
      "vsize": 135,
      "weight": 540,
      "locktime": 0,
      "vin": [
        {
          "coinbase": "04ffff001d023001",
          "sequence": 4294967295
        }
      ],
      "vout": [
        {
          "value": 50.0,
          "n": 0,
          "scriptPubKey": {
            "asm": "04c5aca889c1b1f58295616de217fb2848bd7f37f8ed594b0b7fd2c89a38d47b7004022006609daec607ebf3741d61061bd44c072fd97b8321eaf848ce4f06b6e5 OP_CHECKSIG",
            "desc": "pk(04c5aca889c1b1f58295616de217fb2848bd7f37f8ed594b0b7fd2c89a38d47b7004022006609daec607ebf3741d61061bd44c072fd97b8321eaf848ce4f06b6e5)#jy42crs8",
            "hex": "4104c5aca889c1b1f58295616de217fb2848bd7f37f8ed594b0b7fd2c89a38d47b7004022006609daec607ebf3741d61061bd44c072fd97b8321eaf848ce4f06b6e5ac",
            "type": "pubkey"
          }
        }
      ],
      "hex": "01000000010000000000000000000000000000000000000000000000000000000000000000ffffffff0804ffff001d023001ffffffff0100f2052a01000000434104c5aca889c1b1f58295616de217fb2848bd7f37f8ed594b0b7fd2c89a38d47b7004022006609daec607ebf3741d61061bd44c072fd97b8321eaf848ce4f06b6e5ac00000000"
    }
  ]
}