{
  "hash": "000000006005091f4aa4f2f9ab8fcdbedf71fa27a1eabeae6ef94b5e3811ef1e",
  "confirmations": 44121,
  "height": 8977,
  "version": 1,
  "versionHex": "00000001",
  "merkleroot": "19f0cbcbcf17916a1480d29b7c048c16fb0e69ed8fe1dc4169d178d3c533ad6a",
  "time": 1238236670,
  "mediantime": 1238232614,
  "nonce": 1842156087,
  "bits": "1d00ffff",
  "difficulty": 1,
  "chainwork": "0000000000000000000000000000000000000000000000000000231223122312",
  "nTx": 1,
  "previousblockhash": "00000000455c3231e43bb558f8baeb192818c59ba84cdd3f8ee5f31460a5aa29",
  "nextblockhash": "000000003bbe0019a8123a29bbf9555947e9367dff367cfda99c1999ba2f7d8d",
  "strippedsize": 216,
  "size": 216,
  "weight": 864,
  "tx": [
    {
      "txid": "19f0cbcbcf17916a1480d29b7c048c16fb0e69ed8fe1dc4169d178d3c533ad6a",
      "hash": "19f0cbcbcf17916a1480d29b7c048c16fb0e69ed8fe1dc4169d178d3c533ad6a",
      "version": 1,
      "size": 135,
      "vsize": 135,
      "weight": 540,
      "locktime": 0,
      "vin": [
        {
          "coinbase": "04ffff001d021806",
          "sequence": 4294967295
        }
      ],
      "vout": [
        {
          "value": 50.0,
          "n": 0,
          "scriptPubKey": {
            "asm": "04c15ca2c0497f873ad86a531a206ac6330d945f105dd43afeaa77970eea10c147003a777cbec3e02b6e3441f84cc866a42f3008fb2b177e170bc1592f2821f624 OP_CHECKSIG",
            "desc": "pk(04c15ca2c0497f873ad86a531a206ac6330d945f105dd43afeaa77970eea10c147003a777cbec3e02b6e3441f84cc866a42f3008fb2b177e170bc1592f2821f624)#jwmykq7z",
            "hex": "4104c15ca2c0497f873ad86a531a206ac6330d945f105dd43afeaa77970eea10c147003a777cbec3e02b6e3441f84cc866a42f3008fb2b177e170bc1592f2821f624ac",
            "type": "pubkey"
          }
        }
      ],
      "hex": "01000000010000000000000000000000000000000000000000000000000000000000000000ffffffff0804ffff001d021806ffffffff0100f2052a01000000434104c15ca2c0497f873ad86a531a206ac6330d945f105dd43afeaa77970eea10c147003a777cbec3e02b6e3441f84cc866a42f3008fb2b177e170bc1592f2821f624ac00000000"
    }
  ]
}