{
  "hash": "00000000c02cea79e7a14c92a7ebdc0a3ce377088df5bab6ce84d4ef871be01f",
  "confirmations": 46084,
  "height": 7014,
  "version": 1,
  "versionHex": "00000001",
  "merkleroot": "f7074f0b5ece7a84d89d6e055c9a850c6dd86b772bb9454ea2a2a945c177e879",
  "time": 1236729628,
  "mediantime": 1236726051,
  "nonce": 1936273204,
  "bits": "1d00ffff",
  "difficulty": 1,
  "chainwork": "00000000000000000000000000000000000000000000000000001b671b671b67",
  "nTx": 1,
  "previousblockhash": "000000003bbc16f32eea23690b57b647ea71582048c7033729868ee78b57e82d",
  "nextblockhash": "0000000015559531952fa7908718ede81c33efad510e8b18c4ffe8ded5764b85",
  "strippedsize": 216,
  "size": 216,
  "weight": 864,
  "tx": [
    {
      "txid": "f7074f0b5ece7a84d89d6e055c9a850c6dd86b772bb9454ea2a2a945c177e879",
      "hash": "f7074f0b5ece7a84d89d6e055c9a850c6dd86b772bb9454ea2a2a945c177e879",
      "version": 1,
      "size": 135,
      "vsize": 135,
      "weight": 540,
      "locktime": 0,
      "vin": [
        {
          "coinbase": "04ffff001d029a02",
          "sequence": 4294967295
        }
      ],
      "vout": [
        {
          "value": 50.0,
          "n": 0,
          "scriptPubKey": {
            "asm": "04d2127abc5023ce717b40ee1385f5a2666c556ffb489074deb1a19b2229e7ad1546322402aaeefb98c57284df55d8c877deb8f9ad52c50769cba0479e021b5fb3 OP_CHECKSIG",
            "desc": "pk(04d2127abc5023ce717b40ee1385f5a2666c556ffb489074deb1a19b2229e7ad1546322402aaeefb98c57284df55d8c877deb8f9ad52c50769cba0479e021b5fb3)#6kqsc9my",
            "hex": "4104d2127abc5023ce717b40ee1385f5a2666c556ffb489074deb1a19b2229e7ad1546322402aaeefb98c57284df55d8c877deb8f9ad52c50769cba0479e021b5fb3ac",
            "type": "pubkey"
          }
        }
      ],
      "hex": "01000000010000000000000000000000000000000000000000000000000000000000000000ffffffff0804ffff001d029a02ffffffff0100f2052a01000000434104d2127abc5023ce717b40ee1385f5a2666c556ffb489074deb1a19b2229e7ad1546322402aaeefb98c57284df55d8c877deb8f9ad52c50769cba0479e021b5fb3ac00000000"
    }
  ]
}