{
  "hash": "00000000d21f73b2c345ef705b54644a685eb7cac9e4d0a5fdea8ce4fdb287cd",
  "confirmations": 47083,
  "height": 6015,
  "version": 1,
  "versionHex": "00000001",
  "merkleroot": "e7b760d9809f09beffcddc4f33e305d85c20e2b4b57d7613efb62f80ced3a303",
  "time": 1235938374,
  "mediantime": 1235933574,
  "nonce": 2535897657,
  "bits": "1d00ffff",
  "difficulty": 1,
  "chainwork": "0000000000000000000000000000000000000000000000000000178017801780",
  "nTx": 1,
  "previousblockhash": "00000000bb4c9b10dc931eaf84e700b355db0a53c38c92113776b6e8ca40a053",
  "nextblockhash": "00000000a2e79f0e94d0b8fa757462c6d5924ac0ea9e506aec435c079412e770",
  "strippedsize": 216,
  "size": 216,
  "weight": 864,
  "tx": [
    {
      "txid": "e7b760d9809f09beffcddc4f33e305d85c20e2b4b57d7613efb62f80ced3a303",
      "hash": "e7b760d9809f09beffcddc4f33e305d85c20e2b4b57d7613efb62f80ced3a303",
      "version": 1,
      "size": 135,
      "vsize": 135,
      "weight": 540,
      "locktime": 0,
      "vin": [
        {
          "coinbase": "04ffff001d022f05",
          "sequence": 4294967295
        }
      ],
      "vout": [
        {
          "value": 50.0,
          "n": 0,
          "scriptPubKey": {
            "asm": "04a9ff61e387618eea2fcb28803573a752c2741ef462a8454b6333068b3bbd7c8961626e6e1069302335613667703322b2f15781af0091159488d73f7921c94b10 OP_CHECKSIG",
            "desc": "pk(04a9ff61e387618eea2fcb28803573a752c2741ef462a8454b6333068b3bbd7c8961626e6e1069302335613667703322b2f15781af0091159488d73f7921c94b10)#575r99jv",
            "hex": "4104a9ff61e387618eea2fcb28803573a752c2741ef462a8454b6333068b3bbd7c8961626e6e1069302335613667703322b2f15781af0091159488d73f7921c94b10ac",
            "type": "pubkey"
          }
        }
      ],
      "hex": "01000000010000000000000000000000000000000000000000000000000000000000000000ffffffff0804ffff001d022f05ffffffff0100f2052a01000000434104a9ff61e387618eea2fcb28803573a752c2741ef462a8454b6333068b3bbd7c8961626e6e1069302335613667703322b2f15781af0091159488d73f7921c94b10ac00000000"
    }
  ]
}