{
  "hash": "000000002e1f715b21279b96cce36ca9fce9caf871912b172fe6a10feef3c939",
  "confirmations": 47805,
  "height": 5293,
  "version": 1,
  "versionHex": "00000001",
  "merkleroot": "afcfab87aab78a511074c35da9d96362a2ec5b3c814246d8156e5a09c3dc306e",
  "time": 1235356303,
  "mediantime": 1235350314,
  "nonce": 4037228058,
  "bits": "1d00ffff",
  "difficulty": 1,
  "chainwork": "000000000000000000000000000000000000000000000000000014ae14ae14ae",
  "nTx": 1,
  "previousblockhash": "000000006b3275f11168b473cef0830a354e8e7ee4d4a740c84f0423adc4c54c",
  "nextblockhash": "00000000d58e34ea1a1817f2f8155597424256090d4701b3c23af6f2722cf988",
  "strippedsize": 216,
  "size": 216,
  "weight": 864,
  "tx": [
    {
      "txid": "afcfab87aab78a511074c35da9d96362a2ec5b3c814246d8156e5a09c3dc306e",
      "hash": "afcfab87aab78a511074c35da9d96362a2ec5b3c814246d8156e5a09c3dc306e",
      "version": 1,
      "size": 135,
      "vsize": 135,
      "weight": 540,
      "locktime": 0,
      "vin": [
        {
          "coinbase": "04ffff001d02f201",
          "sequence": 4294967295
        }
      ],
      "vout": [
        {
          "value": 50.0,
          "n": 0,
          "scriptPubKey": {
            "asm": "049c3da09db0b71698a09373f67d7606628e65805fd815d2290eb820b4bde35c1e8efc6c812b0deb9b539d25c19ad1bfd8cafe1311591663ac6713317895b33576 OP_CHECKSIG",
            "desc": "pk(049c3da09db0b71698a09373f67d7606628e65805fd815d2290eb820b4bde35c1e8efc6c812b0deb9b539d25c19ad1bfd8cafe1311591663ac6713317895b33576)#dew5me0h",
            "hex": "41049c3da09db0b71698a09373f67d7606628e65805fd815d2290eb820b4bde35c1e8efc6c812b0deb9b539d25c19ad1bfd8cafe1311591663ac6713317895b33576ac",
            "type": "pubkey"
          }
        }
      ],
      "hex": "01000000010000000000000000000000000000000000000000000000000000000000000000ffffffff0804ffff001d02f201ffffffff0100f2052a010000004341049c3da09db0b71698a09373f67d7606628e65805fd815d2290eb820b4bde35c1e8efc6c812b0deb9b539d25c19ad1bfd8cafe1311591663ac6713317895b33576ac00000000"
    }
  ]
}