{
  "hash": "000000003bef25ccaef6d6841f7a7f2e67817f212dca3e981dd0457c3c070fd3",
  "confirmations": 44726,
  "height": 8372,
  "version": 1,
  "versionHex": "00000001",
  "merkleroot": "42b8c0c9a6075dfeb980525e6ce21420de65d42a1e35cd8f8349f4dfa3ae6558",
  "time": 1237780245,
  "mediantime": 1237778740,
  "nonce": 3604739098,
  "bits": "1d00ffff",
  "difficulty": 1,
  "chainwork": "000000000000000000000000000000000000000000000000000020b520b520b5",
  "nTx": 1,
  "previousblockhash": "0000000087f4d4e4f161170d0b78e5ef6a9ec336b940ec6a14b2e1dfcdbbbb60",
  "nextblockhash": "000000002a9e31750bdef0772fdb2eb650d8e36231c2f6b4f62d80963bfe99d6",
  "strippedsize": 216,
  "size": 216,
  "weight": 864,
  "tx": [
    {
      "txid": "42b8c0c9a6075dfeb980525e6ce21420de65d42a1e35cd8f8349f4dfa3ae6558",
      "hash": "42b8c0c9a6075dfeb980525e6ce21420de65d42a1e35cd8f8349f4dfa3ae6558",
      "version": 1,
      "size": 135,
      "vsize": 135,
      "weight": 540,
      "locktime": 0,
      "vin": [
        {
          "coinbase": "04ffff001d026005",
          "sequence": 4294967295
        }
      ],
      "vout": [
        {
          "value": 50.0,
          "n": 0,
          "scriptPubKey": {
            "asm": "040e4ccfb2c46c0cca6f7ccd43fad5404b7b8ddabdaf079baa79d0a4a4e57c18e8bad47b34e68595411d0dd988483c1e3f42ce21445a496a58b372ad138f8550cc OP_CHECKSIG",
            "desc": "pk(040e4ccfb2c46c0cca6f7ccd43fad5404b7b8ddabdaf079baa79d0a4a4e57c18e8bad47b34e68595411d0dd988483c1e3f42ce21445a496a58b372ad138f8550cc)#8qzf6mcx",
            "hex": "41040e4ccfb2c46c0cca6f7ccd43fad5404b7b8ddabdaf079baa79d0a4a4e57c18e8bad47b34e68595411d0dd988483c1e3f42ce21445a496a58b372ad138f8550ccac",
            "type": "pubkey"
          }
        }
      ],
      "hex": "01000000010000000000000000000000000000000000000000000000000000000000000000ffffffff0804ffff001d026005ffffffff0100f2052a010000004341040e4ccfb2c46c0cca6f7ccd43fad5404b7b8ddabdaf079baa79d0a4a4e57c18e8bad47b34e68595411d0dd988483c1e3f42ce21445a496a58b372ad138f8550ccac00000000"
    }
  ]
}