{
  "hash": "00000000fbc97cc6c599ce9c24dd4a2243e2bfd518eda56e1d5e47d29e29c3a7",
  "confirmations": 43099,
  "height": 9999,
  "version": 1,
  "versionHex": "00000001",
  "merkleroot": "5012c1d2a46d5684aa0331f0d8a900767c86c0fd83bb632f357b1ea11fa69179",
  "time": 1238987491,
  "mediantime": 1238984702,
  "nonce": 3568610608,
  "bits": "1d00ffff",
  "difficulty": 1,
  "chainwork": "0000000000000000000000000000000000000000000000000000271027102710",
  "nTx": 1,
  "previousblockhash": "000000003dd32df94cfafd16e0a8300ea14d67dcfee9e1282786c2617b8daa09",
  "nextblockhash": "0000000099c744455f58e6c6e98b671e1bf7f37346bfd4cf5d0274ad8ee660cb",
  "strippedsize": 216,
  "size": 216,
  "weight": 864,
  "tx": [
    {
      "txid": "5012c1d2a46d5684aa0331f0d8a900767c86c0fd83bb632f357b1ea11fa69179",
      "hash": "5012c1d2a46d5684aa0331f0d8a900767c86c0fd83bb632f357b1ea11fa69179",
      "version": 1,
      "size": 135,
      "vsize": 135,
      "weight": 540,
      "locktime": 0,
      "vin": [
        {
          "coinbase": "04ffff001d026c03",
          "sequence": 4294967295
        }
      ],
      "vout": [
        {
          "value": 50.0,
          "n": 0,
          "scriptPubKey": {
            "asm": "04d4198172bb4bb030bf2f5dfd762c2ff6bcaa96640755663408994b74d842f35d0eb458ec697220172b7f30a38ea68fe270201385a895265ac23692cbc2aed2a6 OP_CHECKSIG",
            "desc": "pk(04d4198172bb4bb030bf2f5dfd762c2ff6bcaa96640755663408994b74d842f35d0eb458ec697220172b7f30a38ea68fe270201385a895265ac23692cbc2aed2a6)#jjt9dmqc",
            "hex": "4104d4198172bb4bb030bf2f5dfd762c2ff6bcaa96640755663408994b74d842f35d0eb458ec697220172b7f30a38ea68fe270201385a895265ac23692cbc2aed2a6ac",
            "type": "pubkey"
          }
        }
      ],
      "hex": "01000000010000000000000000000000000000000000000000000000000000000000000000ffffffff0804ffff001d026c03ffffffff0100f2052a01000000434104d4198172bb4bb030bf2f5dfd762c2ff6bcaa96640755663408994b74d842f35d0eb458ec697220172b7f30a38ea68fe270201385a895265ac23692cbc2aed2a6ac00000000"
    }
  ]
}