{
  "hash": "00000000835b3057385da02d39b2e0cac7a417d41f75036f6a48135e2287682a",
  "confirmations": 44603,
  "height": 8495,
  "version": 1,
  "versionHex": "00000001",
  "merkleroot": "894f64e77107023826baa882ef100f89bcabc736e1c82d2adff1dff46cb0345c",
  "time": 1237867816,
  "mediantime": 1237863291,
  "nonce": 740472626,
  "bits": "1d00ffff",
  "difficulty": 1,
  "chainwork": "0000000000000000000000000000000000000000000000000000213021302130",
  "nTx": 1,
  "previousblockhash": "00000000597c74ad4e5770cf0ff3a0463822b9b971d11f81b6371a19d6d76331",
  "nextblockhash": "00000000705189678f41af8579233325e1df6112d8fc3d4e5e2667931b437e36",
  "strippedsize": 216,
  "size": 216,
  "weight": 864,
  "tx": [
    {
      "txid": "894f64e77107023826baa882ef100f89bcabc736e1c82d2adff1dff46cb0345c",
      "hash": "894f64e77107023826baa882ef100f89bcabc736e1c82d2adff1dff46cb0345c",
      "version": 1,
      "size": 135,
      "vsize": 135,
      "weight": 540,
      "locktime": 0,
      "vin": [
        {
          "coinbase": "04ffff001d02ab07",
          "sequence": 4294967295
        }
      ],
      "vout": [
        {
          "value": 50.0,
          "n": 0,
          "scriptPubKey": {
            "asm": "04c263a0fbb1dc0c622a4ccd6fb8b799ff5da3020a79b13456cd30ab3b1cb86142a78b3868eedb0de7b29ca892b159b8d9f2bdf2fb2682b236d259aad98b56a787 OP_CHECKSIG",
            "desc": "pk(04c263a0fbb1dc0c622a4ccd6fb8b799ff5da3020a79b13456cd30ab3b1cb86142a78b3868eedb0de7b29ca892b159b8d9f2bdf2fb2682b236d259aad98b56a787)#lcj9hnrn",
            "hex": "4104c263a0fbb1dc0c622a4ccd6fb8b799ff5da3020a79b13456cd30ab3b1cb86142a78b3868eedb0de7b29ca892b159b8d9f2bdf2fb2682b236d259aad98b56a787ac",
            "type": "pubkey"
          }
        }
      ],
      "hex": "01000000010000000000000000000000000000000000000000000000000000000000000000ffffffff0804ffff001d02ab07ffffffff0100f2052a01000000434104c263a0fbb1dc0c622a4ccd6fb8b799ff5da3020a79b13456cd30ab3b1cb86142a78b3868eedb0de7b29ca892b159b8d9f2bdf2fb2682b236d259aad98b56a787ac00000000"
    }
  ]
}