{
  "hash": "00000000f179266e5fcbb409fbcffc0a1b7b2e684574da2269bc82a7eff03ee1",
  "confirmations": 51767,
  "height": 1331,
  "version": 1,
  "versionHex": "00000001",
  "merkleroot": "df31cd9bfd1331acee744ac67163f5c0d5fc6fefd3d3c0cfbe1957f1d6c937ea",
  "time": 1232623960,
  "mediantime": 1232619577,
  "nonce": 4294252548,
  "bits": "1d00ffff",
  "difficulty": 1,
  "chainwork": "0000000000000000000000000000000000000000000000000000053405340534",
  "nTx": 1,
  "previousblockhash": "000000003d244449bbd0f01087271506e9e19b8f7df9dceb121df70f6ba4b141",
  "nextblockhash": "000000007a885902364f016043460b19e0295dc331307c9323bad4d68be7290e",
  "strippedsize": 216,
  "size": 216,
  "weight": 864,
  "tx": [
    {
      "txid": "df31cd9bfd1331acee744ac67163f5c0d5fc6fefd3d3c0cfbe1957f1d6c937ea",
      "hash": "df31cd9bfd1331acee744ac67163f5c0d5fc6fefd3d3c0cfbe1957f1d6c937ea",
      "version": 1,
      "size": 135,
      "vsize": 135,
      "weight": 540,
      "locktime": 0,
      "vin": [
        {
          "coinbase": "04ffff001d02c300",
          "sequence": 4294967295
        }
      ],
      "vout": [
        {
          "value": 50.0,
          "n": 0,
          "scriptPubKey": {
            "asm": "04d5781eb2b9418899b8cf6d012e9ff0b3d44c36f279a69694ae969d2208f743df28024a8cfa2cc96052e449027f9b0ad7bcb7b189186d060ed8b730f4f4ae4866 OP_CHECKSIG",
            "desc": "pk(04d5781eb2b9418899b8cf6d012e9ff0b3d44c36f279a69694ae969d2208f743df28024a8cfa2cc96052e449027f9b0ad7bcb7b189186d060ed8b730f4f4ae4866)#xmsa2dgh",
            "hex": "4104d5781eb2b9418899b8cf6d012e9ff0b3d44c36f279a69694ae969d2208f743df28024a8cfa2cc96052e449027f9b0ad7bcb7b189186d060ed8b730f4f4ae4866ac",
            "type": "pubkey"
          }
        }
      ],
      "hex": "01000000010000000000000000000000000000000000000000000000000000000000000000ffffffff0804ffff001d02c300ffffffff0100f2052a01000000434104d5781eb2b9418899b8cf6d012e9ff0b3d44c36f279a69694ae969d2208f743df28024a8cfa2cc96052e449027f9b0ad7bcb7b189186d060ed8b730f4f4ae4866ac00000000"
    }
  ]
}