{
  "hash": "00000000390b31bb5fa93549aa99b5e86f877b4d07b725fd350f9c9481a31eb5",
  "confirmations": 49814,
  "height": 3284,
  "version": 1,
  "versionHex": "00000001",
  "merkleroot": "749f5876092f72f6911e5191446ec477a0f25066923aef9da66760bfc7cc1e15",
  "time": 1233959670,
  "mediantime": 1233955523,
  "nonce": 1430939139,
  "bits": "1d00ffff",
  "difficulty": 1,
  "chainwork": "00000000000000000000000000000000000000000000000000000cd50cd50cd5",
  "nTx": 1,
  "previousblockhash": "000000008cd94d166f06496bd1b706ac2ee225cad04386fac39f7ee8d66f79b8",
  "nextblockhash": "00000000b995aedc9be48fdfe76499c79c9db2b6515e72c10483cf573aa325af",
  "strippedsize": 216,
  "size": 216,
  "weight": 864,
  "tx": [
    {
      "txid": "749f5876092f72f6911e5191446ec477a0f25066923aef9da66760bfc7cc1e15",
      "hash": "749f5876092f72f6911e5191446ec477a0f25066923aef9da66760bfc7cc1e15",
      "version": 1,
      "size": 135,
      "vsize": 135,
      "weight": 540,
      "locktime": 0,
      "vin": [
        {
          "coinbase": "04ffff001d02fe03",
          "sequence": 4294967295
        }
      ],
      "vout": [
        {
          "value": 50.0,
          "n": 0,
          "scriptPubKey": {
            "asm": "04e3485325f7083d13b1af3481e824960b74f77554148ac8d192e529dbc50e3af2bd928b2feeba70d96785c4554f5dbd6eff62ffcc15963101820af4185a3e3d00 OP_CHECKSIG",
            "desc": "pk(04e3485325f7083d13b1af3481e824960b74f77554148ac8d192e529dbc50e3af2bd928b2feeba70d96785c4554f5dbd6eff62ffcc15963101820af4185a3e3d00)#k4mm45mn",
            "hex": "4104e3485325f7083d13b1af3481e824960b74f77554148ac8d192e529dbc50e3af2bd928b2feeba70d96785c4554f5dbd6eff62ffcc15963101820af4185a3e3d00ac",
            "type": "pubkey"
          }
        }
      ],
      "hex": "01000000010000000000000000000000000000000000000000000000000000000000000000ffffffff0804ffff001d02fe03ffffffff0100f2052a01000000434104e3485325f7083d13b1af3481e824960b74f77554148ac8d192e529dbc50e3af2bd928b2feeba70d96785c4554f5dbd6eff62ffcc15963101820af4185a3e3d00ac00000000"
    }
  ]
}