{
  "hash": "00000000b2eb9ca958d41e99e8d2adddd716526882ae94b7c40201d9b94f5f13",
  "confirmations": 44374,
  "height": 8724,
  "version": 1,
  "versionHex": "00000001",
  "merkleroot": "750de17442e00415ade812bc3dd5f7d7b62715f4c52f11d7aba42d4c610c78bf",
  "time": 1238038950,
  "mediantime": 1238035732,
  "nonce": 2542796343,
  "bits": "1d00ffff",
  "difficulty": 1,
  "chainwork": "0000000000000000000000000000000000000000000000000000221522152215",
  "nTx": 1,
  "previousblockhash": "00000000376773e9cc30f6b052dde766ae11ac33aa779dea7c1c1405db2a3e68",
  "nextblockhash": "00000000a24e620ecaaddc3c060014d5ea3cc48e450a682672e9af8389d83234",
  "strippedsize": 216,
  "size": 216,
  "weight": 864,
  "tx": [
    {
      "txid": "750de17442e00415ade812bc3dd5f7d7b62715f4c52f11d7aba42d4c610c78bf",
      "hash": "750de17442e00415ade812bc3dd5f7d7b62715f4c52f11d7aba42d4c610c78bf",
      "version": 1,
      "size": 135,
      "vsize": 135,
      "weight": 540,
      "locktime": 0,
      "vin": [
        {
          "coinbase": "04ffff001d025001",
          "sequence": 4294967295
        }
      ],
      "vout": [
        {
          "value": 50.0,
          "n": 0,
          "scriptPubKey": {
            "asm": "04df091f90fd89c06ba9609696a261dd1c2f2c1c6ece0309901e4baabf38aa294b030b4951da787b51157018d1d8f761c7005269086498ad95dd96a199e9a331d8 OP_CHECKSIG",
            "desc": "pk(04df091f90fd89c06ba9609696a261dd1c2f2c1c6ece0309901e4baabf38aa294b030b4951da787b51157018d1d8f761c7005269086498ad95dd96a199e9a331d8)#ndu3r63a",
            "hex": "4104df091f90fd89c06ba9609696a261dd1c2f2c1c6ece0309901e4baabf38aa294b030b4951da787b51157018d1d8f761c7005269086498ad95dd96a199e9a331d8ac",
            "type": "pubkey"
          }
        }
      ],
      "hex": "01000000010000000000000000000000000000000000000000000000000000000000000000ffffffff0804ffff001d025001ffffffff0100f2052a01000000434104df091f90fd89c06ba9609696a261dd1c2f2c1c6ece0309901e4baabf38aa294b030b4951da787b51157018d1d8f761c7005269086498ad95dd96a199e9a331d8ac00000000"
    }
  ]
}