{
  "hash": "0000000022f4585cc2153d6e049ff0664f100524da17823b04dd94a9f2aefe4b",
  "confirmations": 44065,
  "height": 9033,
  "version": 1,
  "versionHex": "00000001",
  "merkleroot": "5316632875182da2fdf1c6e32193b1323bccd87d7d69fb5117ef4f0d40d9a083",
  "time": 1238276072,
  "mediantime": 1238272155,
  "nonce": 2160248584,
  "bits": "1d00ffff",
  "difficulty": 1,
  "chainwork": "0000000000000000000000000000000000000000000000000000234a234a234a",
  "nTx": 1,
  "previousblockhash": "00000000f56c97f182190c37dda62092b99f2539fd70d7f71cd1206003a82975",
  "nextblockhash": "00000000e0f76cad79c0bb4af567f920bafd257ed493fb86e502447e5f66ab99",
  "strippedsize": 216,
  "size": 216,
  "weight": 864,
  "tx": [
    {
      "txid": "5316632875182da2fdf1c6e32193b1323bccd87d7d69fb5117ef4f0d40d9a083",
      "hash": "5316632875182da2fdf1c6e32193b1323bccd87d7d69fb5117ef4f0d40d9a083",
      "version": 1,
      "size": 135,
      "vsize": 135,
      "weight": 540,
      "locktime": 0,
      "vin": [
        {
          "coinbase": "04ffff001d02f006",
          "sequence": 4294967295
        }
      ],
      "vout": [
        {
          "value": 50.0,
          "n": 0,
          "scriptPubKey": {
            "asm": "047aea5dddf7d842401c38af8754694268bcaf78be318e56f7ee067043a01da086bdf019ac062fc23a896aed59182bbd6d66e9750b566b6c18f586c1c1eba00f35 OP_CHECKSIG",
            "desc": "pk(047aea5dddf7d842401c38af8754694268bcaf78be318e56f7ee067043a01da086bdf019ac062fc23a896aed59182bbd6d66e9750b566b6c18f586c1c1eba00f35)#sjfhc5en",
            "hex": "41047aea5dddf7d842401c38af8754694268bcaf78be318e56f7ee067043a01da086bdf019ac062fc23a896aed59182bbd6d66e9750b566b6c18f586c1c1eba00f35ac",
            "type": "pubkey"
          }
        }
      ],
      "hex": "01000000010000000000000000000000000000000000000000000000000000000000000000ffffffff0804ffff001d02f006ffffffff0100f2052a010000004341047aea5dddf7d842401c38af8754694268bcaf78be318e56f7ee067043a01da086bdf019ac062fc23a896aed59182bbd6d66e9750b566b6c18f586c1c1eba00f35ac00000000"
    }
  ]
}