{
  "hash": "000000000936904264b030a2bb864a0b8ac657779c5fdd319a0d683f9571f02a",
  "confirmations": 48584,
  "height": 4514,
  "version": 1,
  "versionHex": "00000001",
  "merkleroot": "9d2d1e305fbce8f9991aeeac28259c7c767e8f21e9be0829adf2540db2a3aaf7",
  "time": 1234790621,
  "mediantime": 1234787200,
  "nonce": 13468793,
  "bits": "1d00ffff",
  "difficulty": 1,
  "chainwork": "000000000000000000000000000000000000000000000000000011a311a311a3",
  "nTx": 1,
  "previousblockhash": "000000004a76a6d39a78d55245ad658eae8c760a8a9b03f0969d58db72bc1411",
  "nextblockhash": "000000006bda10ea791cf151d394d1274126da7f0eace8c45f7d95b86373cdae",
  "strippedsize": 215,
  "size": 215,
  "weight": 860,
  "tx": [
    {
      "txid": "9d2d1e305fbce8f9991aeeac28259c7c767e8f21e9be0829adf2540db2a3aaf7",
      "hash": "9d2d1e305fbce8f9991aeeac28259c7c767e8f21e9be0829adf2540db2a3aaf7",
      "version": 1,
      "size": 134,
      "vsize": 134,
      "weight": 536,
      "locktime": 0,
      "vin": [
        {
          "coinbase": "04ffff001d0113",
          "sequence": 4294967295
        }
      ],
      "vout": [
        {
          "value": 50.0,
          "n": 0,
          "scriptPubKey": {
            "asm": "048a1fcbea2bfca98e1a18e69a6484a5bf87ff4f1ac2aac3ec2323a21e158a9b6cd28b8c79e4e2519e61bbaee813b37ff827d06f6b79834c3eedab0f33e6ceeb86 OP_CHECKSIG",
            "desc": "pk(048a1fcbea2bfca98e1a18e69a6484a5bf87ff4f1ac2aac3ec2323a21e158a9b6cd28b8c79e4e2519e61bbaee813b37ff827d06f6b79834c3eedab0f33e6ceeb86)#50ykzeyu",
            "hex": "41048a1fcbea2bfca98e1a18e69a6484a5bf87ff4f1ac2aac3ec2323a21e158a9b6cd28b8c79e4e2519e61bbaee813b37ff827d06f6b79834c3eedab0f33e6ceeb86ac",
            "type": "pubkey"
          }
        }
      ],
      "hex": "01000000010000000000000000000000000000000000000000000000000000000000000000ffffffff0704ffff001d0113ffffffff0100f2052a010000004341048a1fcbea2bfca98e1a18e69a6484a5bf87ff4f1ac2aac3ec2323a21e158a9b6cd28b8c79e4e2519e61bbaee813b37ff827d06f6b79834c3eedab0f33e6ceeb86ac00000000"
    }
  ]
}