{
  "hash": "000000003cbf89153b0526e193ed74e5489a98c0b72f974d71c255425861eea4",
  "confirmations": 50907,
  "height": 2191,
  "version": 1,
  "versionHex": "00000001",
  "merkleroot": "ae3fb9cd957f071502f7f79ab4696ec0d3f7c81a43041bac95af165482d3348f",
  "time": 1233207804,
  "mediantime": 1233204480,
  "nonce": 3379578672,
  "bits": "1d00ffff",
  "difficulty": 1,
  "chainwork": "0000000000000000000000000000000000000000000000000000089008900890",
  "nTx": 1,
  "previousblockhash": "00000000990687d0eefcb17b6d04dd6a387ea75ff9233de72687f164e983f8e4",
  "nextblockhash": "0000000031fd90c9cb5be9db548a1767c9d3ceddebf9563f4791b858165d318e",
  "strippedsize": 215,
  "size": 215,
  "weight": 860,
  "tx": [
    {
      "txid": "ae3fb9cd957f071502f7f79ab4696ec0d3f7c81a43041bac95af165482d3348f",
      "hash": "ae3fb9cd957f071502f7f79ab4696ec0d3f7c81a43041bac95af165482d3348f",
      "version": 1,
      "size": 134,
      "vsize": 134,
      "weight": 536,
      "locktime": 0,
      "vin": [
        {
          "coinbase": "04ffff001d0127",
          "sequence": 4294967295
        }
      ],
      "vout": [
        {
          "value": 50.0,
          "n": 0,
          "scriptPubKey": {
            "asm": "04fbdcda42531da4491dd0ba722df08b07955900d486abf6ba1d2b1aeef19f8dbcb111181567d2fd2a1ca7649ad44dc07366840022efacf1030b1cbac2446c1f9d OP_CHECKSIG",
            "desc": "pk(04fbdcda42531da4491dd0ba722df08b07955900d486abf6ba1d2b1aeef19f8dbcb111181567d2fd2a1ca7649ad44dc07366840022efacf1030b1cbac2446c1f9d)#m5vhxt2s",
            "hex": "4104fbdcda42531da4491dd0ba722df08b07955900d486abf6ba1d2b1aeef19f8dbcb111181567d2fd2a1ca7649ad44dc07366840022efacf1030b1cbac2446c1f9dac",
            "type": "pubkey"
          }
        }
      ],
      "hex": "01000000010000000000000000000000000000000000000000000000000000000000000000ffffffff0704ffff001d0127ffffffff0100f2052a01000000434104fbdcda42531da4491dd0ba722df08b07955900d486abf6ba1d2b1aeef19f8dbcb111181567d2fd2a1ca7649ad44dc07366840022efacf1030b1cbac2446c1f9dac00000000"
    }
  ]
}