{
  "hash": "000000000d65885bb4ea77a06373014686b01788031f32d156578c131f66c2c5",
  "confirmations": 48857,
  "height": 4241,
  "version": 1,
  "versionHex": "00000001",
  "merkleroot": "28897ae9934839288d9b75343727d86296faa71ca7a736e458874625cf20b805",
  "time": 1234605696,
  "mediantime": 1234602314,
  "nonce": 968249382,
  "bits": "1d00ffff",
  "difficulty": 1,
  "chainwork": "0000000000000000000000000000000000000000000000000000109210921092",
  "nTx": 1,
  "previousblockhash": "0000000052a909b1042e914ce37ba3636aa89f6021ae3983a4b40a33cd0c063b",
  "nextblockhash": "00000000e6bf6aeca04656d69f4892135ed93903bd71dd868326cd9f483d8eaa",
  "strippedsize": 216,
  "size": 216,
  "weight": 864,
  "tx": [
    {
      "txid": "28897ae9934839288d9b75343727d86296faa71ca7a736e458874625cf20b805",
      "hash": "28897ae9934839288d9b75343727d86296faa71ca7a736e458874625cf20b805",
      "version": 1,
      "size": 135,
      "vsize": 135,
      "weight": 540,
      "locktime": 0,
      "vin": [
        {
          "coinbase": "04ffff001d02d707",
          "sequence": 4294967295
        }
      ],
      "vout": [
        {
          "value": 50.0,
          "n": 0,
          "scriptPubKey": {
            "asm": "04a2a7d93a6c1f6a5f3afd254b8e2777bf44cdc2c0cb59419046c169b1b1b4eb42f20a3813ee93b339995e352936cfd3f3aa20ddebcca208b78d22d5abc9a89be6 OP_CHECKSIG",
            "desc": "pk(04a2a7d93a6c1f6a5f3afd254b8e2777bf44cdc2c0cb59419046c169b1b1b4eb42f20a3813ee93b339995e352936cfd3f3aa20ddebcca208b78d22d5abc9a89be6)#l4amghw4",
            "hex": "4104a2a7d93a6c1f6a5f3afd254b8e2777bf44cdc2c0cb59419046c169b1b1b4eb42f20a3813ee93b339995e352936cfd3f3aa20ddebcca208b78d22d5abc9a89be6ac",
            "type": "pubkey"
          }
        }
      ],
      "hex": "01000000010000000000000000000000000000000000000000000000000000000000000000ffffffff0804ffff001d02d707ffffffff0100f2052a01000000434104a2a7d93a6c1f6a5f3afd254b8e2777bf44cdc2c0cb59419046c169b1b1b4eb42f20a3813ee93b339995e352936cfd3f3aa20ddebcca208b78d22d5abc9a89be6ac00000000"
    }
  ]
}