{
  "hash": "000000001b210aa3f5277e13754df8de4ba97804bab0f0fe370c34f18559bc50",
  "confirmations": 52385,
  "height": 713,
  "version": 1,
  "versionHex": "00000001",
  "merkleroot": "18687c2987f739b4afb377242751faae094bf517db58c1387b80397d3097d3e8",
  "time": 1232119341,
  "mediantime": 1232114037,
  "nonce": 15902171,
  "bits": "1d00ffff",
  "difficulty": 1,
  "chainwork": "000000000000000000000000000000000000000000000000000002ca02ca02ca",
  "nTx": 1,
  "previousblockhash": "000000001eed32ce8c925d0ce77ce5940c08378f997c67090338e23f956b2668",
  "nextblockhash": "00000000b60efe1822717bdb70ea1bf8e3a33c3d5cb0cf6ff42a96e93368b9fa",
  "strippedsize": 215,
  "size": 215,
  "weight": 860,
  "tx": [
    {
      "txid": "18687c2987f739b4afb377242751faae094bf517db58c1387b80397d3097d3e8",
      "hash": "18687c2987f739b4afb377242751faae094bf517db58c1387b80397d3097d3e8",
      "version": 1,
      "size": 134,
      "vsize": 134,
      "weight": 536,
      "locktime": 0,
      "vin": [
        {
          "coinbase": "04ffff001d0124",
          "sequence": 4294967295
        }
      ],
      "vout": [
        {
          "value": 50.0,
          "n": 0,
          "scriptPubKey": {
            "asm": "048d0e5274df726801845bf3a3d50596606f5de93c0b68e73e590fa8444fb91fd18b60f8928c64b31bd7db5e467ab813f61b9e0620611601f4239c1b48138ed204 OP_CHECKSIG",
            "desc": "pk(048d0e5274df726801845bf3a3d50596606f5de93c0b68e73e590fa8444fb91fd18b60f8928c64b31bd7db5e467ab813f61b9e0620611601f4239c1b48138ed204)#jxaetr9q",
            "hex": "41048d0e5274df726801845bf3a3d50596606f5de93c0b68e73e590fa8444fb91fd18b60f8928c64b31bd7db5e467ab813f61b9e0620611601f4239c1b48138ed204ac",
            "type": "pubkey"
          }
        }
      ],
      "hex": "01000000010000000000000000000000000000000000000000000000000000000000000000ffffffff0704ffff001d0124ffffffff0100f2052a010000004341048d0e5274df726801845bf3a3d50596606f5de93c0b68e73e590fa8444fb91fd18b60f8928c64b31bd7db5e467ab813f61b9e0620611601f4239c1b48138ed204ac00000000"
    }
  ]
}