{
  "hash": "00000000621ce9b7d0cdc9a4d2fa76a86902a4ee137f7fa937c8391d2e4f9183",
  "confirmations": 45110,
  "height": 7988,
  "version": 1,
  "versionHex": "00000001",
  "merkleroot": "d44671aee02726af2e3ace0d178153ddc451b4ba5080f278be42034077c7ea6e",
  "time": 1237454309,
  "mediantime": 1237450145,
  "nonce": 3038053401,
  "bits": "1d00ffff",
  "difficulty": 1,
  "chainwork": "00000000000000000000000000000000000000000000000000001f351f351f35",
  "nTx": 1,
  "previousblockhash": "00000000c6c7c842a63fa9d27b2553e894ef7471bc3f05778b3cd73b2d5d3bcb",
  "nextblockhash": "00000000ba00b9d939c51b37016e6b3064a50a2f058e0a38a03c2fb52a86c484",
  "strippedsize": 216,
  "size": 216,
  "weight": 864,
  "tx": [
    {
      "txid": "d44671aee02726af2e3ace0d178153ddc451b4ba5080f278be42034077c7ea6e",
      "hash": "d44671aee02726af2e3ace0d178153ddc451b4ba5080f278be42034077c7ea6e",
      "version": 1,
      "size": 135,
      "vsize": 135,
      "weight": 540,
      "locktime": 0,
      "vin": [
        {
          "coinbase": "04ffff001d023809",
          "sequence": 4294967295
        }
      ],
      "vout": [
        {
          "value": 50.0,
          "n": 0,
          "scriptPubKey": {
            "asm": "049b55eab8a7d8749d5a12dcf2aa8e85cb93c390660ab715199aa025b0f49089c59d357fff5e662b4543e0e49512738d404ff191f7131ef52b24ffd77b50612d15 OP_CHECKSIG",
            "desc": "pk(049b55eab8a7d8749d5a12dcf2aa8e85cb93c390660ab715199aa025b0f49089c59d357fff5e662b4543e0e49512738d404ff191f7131ef52b24ffd77b50612d15)#w3nqqjp2",
            "hex": "41049b55eab8a7d8749d5a12dcf2aa8e85cb93c390660ab715199aa025b0f49089c59d357fff5e662b4543e0e49512738d404ff191f7131ef52b24ffd77b50612d15ac",
            "type": "pubkey"
          }
        }
      ],
      "hex": "01000000010000000000000000000000000000000000000000000000000000000000000000ffffffff0804ffff001d023809ffffffff0100f2052a010000004341049b55eab8a7d8749d5a12dcf2aa8e85cb93c390660ab715199aa025b0f49089c59d357fff5e662b4543e0e49512738d404ff191f7131ef52b24ffd77b50612d15ac00000000"
    }
  ]
}