{
  "hash": "0000000034bc6216233635afce2939676a9da0090e423cd5946bfdbc8bf1c442",
  "confirmations": 50150,
  "height": 2948,
  "version": 1,
  "versionHex": "00000001",
  "merkleroot": "9839ed6c58bcc7ee267730f44dc342f6405a78ce73ec609075b1f1dbd0f5c244",
  "time": 1233724010,
  "mediantime": 1233719791,
  "nonce": 76914681,
  "bits": "1d00ffff",
  "difficulty": 1,
  "chainwork": "00000000000000000000000000000000000000000000000000000b850b850b85",
  "nTx": 1,
  "previousblockhash": "0000000003e906ad154d2b10f27253a6235228fb16566f96d45bbae382f3b81e",
  "nextblockhash": "0000000037f5171ec12d77a798b7b003c89ef28d45192a4afdd9982a904a796b",
  "strippedsize": 215,
  "size": 215,
  "weight": 860,
  "tx": [
    {
      "txid": "9839ed6c58bcc7ee267730f44dc342f6405a78ce73ec609075b1f1dbd0f5c244",
      "hash": "9839ed6c58bcc7ee267730f44dc342f6405a78ce73ec609075b1f1dbd0f5c244",
      "version": 1,
      "size": 134,
      "vsize": 134,
      "weight": 536,
      "locktime": 0,
      "vin": [
        {
          "coinbase": "04ffff001d010a",
          "sequence": 4294967295
        }
      ],
      "vout": [
        {
          "value": 50.0,
          "n": 0,
          "scriptPubKey": {
            "asm": "047bf2b559ba2ba930ce90d6fd436463eca634c519ed80834cfd2dcdacd5f2d48188f14ce04115cd2d150ccca98415244980125fd5ad3bc273bace462316472def OP_CHECKSIG",
            "desc": "pk(047bf2b559ba2ba930ce90d6fd436463eca634c519ed80834cfd2dcdacd5f2d48188f14ce04115cd2d150ccca98415244980125fd5ad3bc273bace462316472def)#w6khrdgy",
            "hex": "41047bf2b559ba2ba930ce90d6fd436463eca634c519ed80834cfd2dcdacd5f2d48188f14ce04115cd2d150ccca98415244980125fd5ad3bc273bace462316472defac",
            "type": "pubkey"
          }
        }
      ],
      "hex": "01000000010000000000000000000000000000000000000000000000000000000000000000ffffffff0704ffff001d010affffffff0100f2052a010000004341047bf2b559ba2ba930ce90d6fd436463eca634c519ed80834cfd2dcdacd5f2d48188f14ce04115cd2d150ccca98415244980125fd5ad3bc273bace462316472defac00000000"
    }
  ]
}