{
  "hash": "00000000ee3e5d6b3003677190edb6b43459eddfab9211072b22f26968b1c3db",
  "confirmations": 45699,
  "height": 7399,
  "version": 1,
  "versionHex": "00000001",
  "merkleroot": "06507f0e20a00efd7add7b12599eb1792fc532c4be02f485305eb9a567d8a50e",
  "time": 1237023435,
  "mediantime": 1237017708,
  "nonce": 1776814620,
  "bits": "1d00ffff",
  "difficulty": 1,
  "chainwork": "00000000000000000000000000000000000000000000000000001ce81ce81ce8",
  "nTx": 1,
  "previousblockhash": "00000000b2dbe08506622dfe67e00afcd15f202d8a27f8971f45adcdfd03d22e",
  "nextblockhash": "000000007f2bdcc71d60336ec1636e0d034d73362b86bd75256b4bdbddbeae78",
  "strippedsize": 216,
  "size": 216,
  "weight": 864,
  "tx": [
    {
      "txid": "06507f0e20a00efd7add7b12599eb1792fc532c4be02f485305eb9a567d8a50e",
      "hash": "06507f0e20a00efd7add7b12599eb1792fc532c4be02f485305eb9a567d8a50e",
      "version": 1,
      "size": 135,
      "vsize": 135,
      "weight": 540,
      "locktime": 0,
      "vin": [
        {
          "coinbase": "04ffff001d026209",
          "sequence": 4294967295
        }
      ],
      "vout": [
        {
          "value": 50.0,
          "n": 0,
          "scriptPubKey": {
            "asm": "0449da29b4447093e5aa6361dde276c415fe7d098644312342502ba680ef1553de2499eacab40c8fbd64165bcd912259719daf50945f4b0ee9cfb4a2bf6261409c OP_CHECKSIG",
            "desc": "pk(0449da29b4447093e5aa6361dde276c415fe7d098644312342502ba680ef1553de2499eacab40c8fbd64165bcd912259719daf50945f4b0ee9cfb4a2bf6261409c)#ytmygxmx",
            "hex": "410449da29b4447093e5aa6361dde276c415fe7d098644312342502ba680ef1553de2499eacab40c8fbd64165bcd912259719daf50945f4b0ee9cfb4a2bf6261409cac",
            "type": "pubkey"
          }
        }
      ],
      "hex": "01000000010000000000000000000000000000000000000000000000000000000000000000ffffffff0804ffff001d026209ffffffff0100f2052a0100000043410449da29b4447093e5aa6361dde276c415fe7d098644312342502ba680ef1553de2499eacab40c8fbd64165bcd912259719daf50945f4b0ee9cfb4a2bf6261409cac00000000"
    }
  ]
}