{
  "hash": "00000000a41f3c1b8bb414b1ec6718c9e9bc07db18310f38055be0ccfd6c45f8",
  "confirmations": 47623,
  "height": 5475,
  "version": 1,
  "versionHex": "00000001",
  "merkleroot": "7977eef0cee941c4379d83ebdd76a7d76922bdd66fe62bb8a58ac7bce102f3ea",
  "time": 1235501826,
  "mediantime": 1235497396,
  "nonce": 3584724231,
  "bits": "1d00ffff",
  "difficulty": 1,
  "chainwork": "0000000000000000000000000000000000000000000000000000156415641564",
  "nTx": 1,
  "previousblockhash": "00000000b2adbec7d75aced42b174f6cb2bc92483e5eeb895ff526c79bc9af49",
  "nextblockhash": "000000004a00af1c6e98a43a9e0d46d21cd5cbbf352ba4fa7b78ddbcc8dfed17",
  "strippedsize": 216,
  "size": 216,
  "weight": 864,
  "tx": [
    {
      "txid": "7977eef0cee941c4379d83ebdd76a7d76922bdd66fe62bb8a58ac7bce102f3ea",
      "hash": "7977eef0cee941c4379d83ebdd76a7d76922bdd66fe62bb8a58ac7bce102f3ea",
      "version": 1,
      "size": 135,
      "vsize": 135,
      "weight": 540,
      "locktime": 0,
      "vin": [
        {
          "coinbase": "04ffff001d021d05",
          "sequence": 4294967295
        }
      ],
      "vout": [
        {
          "value": 50.0,
          "n": 0,
          "scriptPubKey": {
            "asm": "04ae7abcc3801f070c0a5dd7ff6f0ada040f592f0aa1437d3c125e3d7c0f5c1f29b00efd79e86ecebfc6defdc9604d7c5eaa871e4f2ea5173a4af64fc66bb0af90 OP_CHECKSIG",
            "desc": "pk(04ae7abcc3801f070c0a5dd7ff6f0ada040f592f0aa1437d3c125e3d7c0f5c1f29b00efd79e86ecebfc6defdc9604d7c5eaa871e4f2ea5173a4af64fc66bb0af90)#r5gw58wq",
            "hex": "4104ae7abcc3801f070c0a5dd7ff6f0ada040f592f0aa1437d3c125e3d7c0f5c1f29b00efd79e86ecebfc6defdc9604d7c5eaa871e4f2ea5173a4af64fc66bb0af90ac",
            "type": "pubkey"
          }
        }
      ],
      "hex": "01000000010000000000000000000000000000000000000000000000000000000000000000ffffffff0804ffff001d021d05ffffffff0100f2052a01000000434104ae7abcc3801f070c0a5dd7ff6f0ada040f592f0aa1437d3c125e3d7c0f5c1f29b00efd79e86ecebfc6defdc9604d7c5eaa871e4f2ea5173a4af64fc66bb0af90ac00000000"
    }
  ]
}