{
  "hash": "000000005fee47bb2ea239c052d26077078e4d822155fbad9669475b705d708c",
  "confirmations": 47681,
  "height": 5417,
  "version": 1,
  "versionHex": "00000001",
  "merkleroot": "d3e7f37d1d7b190cdc80024fd74b524cc1cba5b3685cccb78abdba085c99b2d5",
  "time": 1235453733,
  "mediantime": 1235448932,
  "nonce": 1260205871,
  "bits": "1d00ffff",
  "difficulty": 1,
  "chainwork": "0000000000000000000000000000000000000000000000000000152a152a152a",
  "nTx": 1,
  "previousblockhash": "000000004f056cdad7e028b2227a96cf6db21d1c7767a89b922064fde5dab7f5",
  "nextblockhash": "00000000afda0e79f404bd04f14f6450eca2a9cb1cac617953e1841a4afa4e65",
  "strippedsize": 216,
  "size": 216,
  "weight": 864,
  "tx": [
    {
      "txid": "d3e7f37d1d7b190cdc80024fd74b524cc1cba5b3685cccb78abdba085c99b2d5",
      "hash": "d3e7f37d1d7b190cdc80024fd74b524cc1cba5b3685cccb78abdba085c99b2d5",
      "version": 1,
      "size": 135,
      "vsize": 135,
      "weight": 540,
      "locktime": 0,
      "vin": [
        {
          "coinbase": "04ffff001d02e303",
          "sequence": 4294967295
        }
      ],
      "vout": [
        {
          "value": 50.0,
          "n": 0,
          "scriptPubKey": {
            "asm": "04da1747f12edba31b57d8a50741dbfc752d77026cf3ef46e1845a3bf8a407402f8a68b544c5deb42c9eb5bf06dba43c4f69a4683db3a94dd0a1cc17df3f1e2d52 OP_CHECKSIG",
            "desc": "pk(04da1747f12edba31b57d8a50741dbfc752d77026cf3ef46e1845a3bf8a407402f8a68b544c5deb42c9eb5bf06dba43c4f69a4683db3a94dd0a1cc17df3f1e2d52)#j6zlmju8",
            "hex": "4104da1747f12edba31b57d8a50741dbfc752d77026cf3ef46e1845a3bf8a407402f8a68b544c5deb42c9eb5bf06dba43c4f69a4683db3a94dd0a1cc17df3f1e2d52ac",
            "type": "pubkey"
          }
        }
      ],
      "hex": "01000000010000000000000000000000000000000000000000000000000000000000000000ffffffff0804ffff001d02e303ffffffff0100f2052a01000000434104da1747f12edba31b57d8a50741dbfc752d77026cf3ef46e1845a3bf8a407402f8a68b544c5deb42c9eb5bf06dba43c4f69a4683db3a94dd0a1cc17df3f1e2d52ac00000000"
    }
  ]
}