{
  "hash": "000000002a5e1e00e34ab9175bd2ddaef1bc308596ed07d59ee3e4ecf31f2714",
  "confirmations": 51851,
  "height": 1247,
  "version": 1,
  "versionHex": "00000001",
  "merkleroot": "4d678bc5e43d7285ae1f8ab4c05a7d053937dc497923be024903364544998f88",
  "time": 1232536053,
  "mediantime": 1232533088,
  "nonce": 617890080,
  "bits": "1d00ffff",
  "difficulty": 1,
  "chainwork": "000000000000000000000000000000000000000000000000000004e004e004e0",
  "nTx": 1,
  "previousblockhash": "0000000040974ccb3370e53c9b10814d3ab23b613f9bf261982b16285348c4ed",
  "nextblockhash": "00000000ca72cf88430a81fd99c80ce40e72505b043584f2949f694e790e0fdb",
  "strippedsize": 216,
  "size": 216,
  "weight": 864,
  "tx": [
    {
      "txid": "4d678bc5e43d7285ae1f8ab4c05a7d053937dc497923be024903364544998f88",
      "hash": "4d678bc5e43d7285ae1f8ab4c05a7d053937dc497923be024903364544998f88",
      "version": 1,
      "size": 135,
      "vsize": 135,
      "weight": 540,
      "locktime": 0,
      "vin": [
        {
          "coinbase": "04ffff001d026109",
          "sequence": 4294967295
        }
      ],
      "vout": [
        {
          "value": 50.0,
          "n": 0,
          "scriptPubKey": {
            "asm": "04971fa77279be681d4c624de979ca078fe1c3074f70c8caf2c7d53e6a69e285b48679d34f0d38a1284f9475546105a6ec90223927ef6345b5263ae10eca81b03b OP_CHECKSIG",
            "desc": "pk(04971fa77279be681d4c624de979ca078fe1c3074f70c8caf2c7d53e6a69e285b48679d34f0d38a1284f9475546105a6ec90223927ef6345b5263ae10eca81b03b)#tq0s8rrp",
            "hex": "4104971fa77279be681d4c624de979ca078fe1c3074f70c8caf2c7d53e6a69e285b48679d34f0d38a1284f9475546105a6ec90223927ef6345b5263ae10eca81b03bac",
            "type": "pubkey"
          }
        }
      ],
      "hex": "01000000010000000000000000000000000000000000000000000000000000000000000000ffffffff0804ffff001d026109ffffffff0100f2052a01000000434104971fa77279be681d4c624de979ca078fe1c3074f70c8caf2c7d53e6a69e285b48679d34f0d38a1284f9475546105a6ec90223927ef6345b5263ae10eca81b03bac00000000"
    }
  ]
}