{
  "hash": "000000001c2911089b4bd7719e2607fa24c7e92f77f0ee909c6d511af52cbf4a",
  "confirmations": 44415,
  "height": 8683,
  "version": 1,
  "versionHex": "00000001",
  "merkleroot": "41e8a3e0c5131571cb0dc2f884b8998eaec87f1ffab5a271a0ce2cb8230781f2",
  "time": 1238014066,
  "mediantime": 1238008852,
  "nonce": 561448244,
  "bits": "1d00ffff",
  "difficulty": 1,
  "chainwork": "000000000000000000000000000000000000000000000000000021ec21ec21ec",
  "nTx": 1,
  "previousblockhash": "000000007b846c476b4a2f849f237922e5878bf1a90648a0e1d9ffdd5dee62e8",
  "nextblockhash": "000000000d46964118e4bebaff4f332290e1620f0296391fa90a42ca18d89878",
  "strippedsize": 216,
  "size": 216,
  "weight": 864,
  "tx": [
    {
      "txid": "41e8a3e0c5131571cb0dc2f884b8998eaec87f1ffab5a271a0ce2cb8230781f2",
      "hash": "41e8a3e0c5131571cb0dc2f884b8998eaec87f1ffab5a271a0ce2cb8230781f2",
      "version": 1,
      "size": 135,
      "vsize": 135,
      "weight": 540,
      "locktime": 0,
      "vin": [
        {
          "coinbase": "04ffff001d02a300",
          "sequence": 4294967295
        }
      ],
      "vout": [
        {
          "value": 50.0,
          "n": 0,
          "scriptPubKey": {
            "asm": "04bf3067c1d48379a9458805667c10c081b40c31e2e82a22da8e9e8434c141aca760bf5047e4f61a0c75f78be77530c7a0f82bd70b0555423a5347df9e7592fd78 OP_CHECKSIG",
            "desc": "pk(04bf3067c1d48379a9458805667c10c081b40c31e2e82a22da8e9e8434c141aca760bf5047e4f61a0c75f78be77530c7a0f82bd70b0555423a5347df9e7592fd78)#6eaw6plh",
            "hex": "4104bf3067c1d48379a9458805667c10c081b40c31e2e82a22da8e9e8434c141aca760bf5047e4f61a0c75f78be77530c7a0f82bd70b0555423a5347df9e7592fd78ac",
            "type": "pubkey"
          }
        }
      ],
      "hex": "01000000010000000000000000000000000000000000000000000000000000000000000000ffffffff0804ffff001d02a300ffffffff0100f2052a01000000434104bf3067c1d48379a9458805667c10c081b40c31e2e82a22da8e9e8434c141aca760bf5047e4f61a0c75f78be77530c7a0f82bd70b0555423a5347df9e7592fd78ac00000000"
    }
  ]
}