{
  "hash": "00000000cd00d20f77bbb9bc5fcec4b216270f57a28f61e545119cbd2fb117c4",
  "confirmations": 45076,
  "height": 8022,
  "version": 1,
  "versionHex": "00000001",
  "merkleroot": "017e4835d343c48dd35f7fe46b88d76cec4f298bfd25f740bc8aed04a3f0b733",
  "time": 1237478831,
  "mediantime": 1237475002,
  "nonce": 934678812,
  "bits": "1d00ffff",
  "difficulty": 1,
  "chainwork": "00000000000000000000000000000000000000000000000000001f571f571f57",
  "nTx": 1,
  "previousblockhash": "0000000004562798713fa81fdff3f8960ed3eb53948a25b05559aaa4ad9c63df",
  "nextblockhash": "0000000052033fc64a330d6083e0d78bf47b0cc286e061179800b569d78b7085",
  "strippedsize": 216,
  "size": 216,
  "weight": 864,
  "tx": [
    {
      "txid": "017e4835d343c48dd35f7fe46b88d76cec4f298bfd25f740bc8aed04a3f0b733",
      "hash": "017e4835d343c48dd35f7fe46b88d76cec4f298bfd25f740bc8aed04a3f0b733",
      "version": 1,
      "size": 135,
      "vsize": 135,
      "weight": 540,
      "locktime": 0,
      "vin": [
        {
          "coinbase": "04ffff001d02d909",
          "sequence": 4294967295
        }
      ],
      "vout": [
        {
          "value": 50.0,
          "n": 0,
          "scriptPubKey": {
            "asm": "04b3aadcb628915242d4d7f91bc89caf510aba2881072761ffd727b7b944001205cef3cf53686f7e06e135e9ce4a14f585edd1d27495a7d69d5c24644ff5d16f51 OP_CHECKSIG",
            "desc": "pk(04b3aadcb628915242d4d7f91bc89caf510aba2881072761ffd727b7b944001205cef3cf53686f7e06e135e9ce4a14f585edd1d27495a7d69d5c24644ff5d16f51)#epvwsasx",
            "hex": "4104b3aadcb628915242d4d7f91bc89caf510aba2881072761ffd727b7b944001205cef3cf53686f7e06e135e9ce4a14f585edd1d27495a7d69d5c24644ff5d16f51ac",
            "type": "pubkey"
          }
        }
      ],
      "hex": "01000000010000000000000000000000000000000000000000000000000000000000000000ffffffff0804ffff001d02d909ffffffff0100f2052a01000000434104b3aadcb628915242d4d7f91bc89caf510aba2881072761ffd727b7b944001205cef3cf53686f7e06e135e9ce4a14f585edd1d27495a7d69d5c24644ff5d16f51ac00000000"
    }
  ]
}