{
  "hash": "00000000389c21647e4c1444abfad4ef7d186694f5a0e080bf617bd99692611f",
  "confirmations": 51630,
  "height": 1468,
  "version": 1,
  "versionHex": "00000001",
  "merkleroot": "24e50af68dcd361999c6ffdade5b74037c615c1872adbfb92fdcc6c71beb3afc",
  "time": 1232754681,
  "mediantime": 1232752553,
  "nonce": 1630167866,
  "bits": "1d00ffff",
  "difficulty": 1,
  "chainwork": "000000000000000000000000000000000000000000000000000005bd05bd05bd",
  "nTx": 1,
  "previousblockhash": "00000000b50162424132d6ddff8beb0f9631dbab8b09effa3aba51e34a8aff59",
  "nextblockhash": "00000000275bc54ff48c36cd5226a3660155618cb73a7bb45550033dc29cfec1",
  "strippedsize": 216,
  "size": 216,
  "weight": 864,
  "tx": [
    {
      "txid": "24e50af68dcd361999c6ffdade5b74037c615c1872adbfb92fdcc6c71beb3afc",
      "hash": "24e50af68dcd361999c6ffdade5b74037c615c1872adbfb92fdcc6c71beb3afc",
      "version": 1,
      "size": 135,
      "vsize": 135,
      "weight": 540,
      "locktime": 0,
      "vin": [
        {
          "coinbase": "04ffff001d02d000",
          "sequence": 4294967295
        }
      ],
      "vout": [
        {
          "value": 50.0,
          "n": 0,
          "scriptPubKey": {
            "asm": "04e8989243877974ba957dc4f4f605185a3e9c2c51d8d3495b69ab2bc9730d59c91663d8f26e2014e400e507881548ecde7844be049f3ed04329dc387bcba88279 OP_CHECKSIG",
            "desc": "pk(04e8989243877974ba957dc4f4f605185a3e9c2c51d8d3495b69ab2bc9730d59c91663d8f26e2014e400e507881548ecde7844be049f3ed04329dc387bcba88279)#d5rpkap0",
            "hex": "4104e8989243877974ba957dc4f4f605185a3e9c2c51d8d3495b69ab2bc9730d59c91663d8f26e2014e400e507881548ecde7844be049f3ed04329dc387bcba88279ac",
            "type": "pubkey"
          }
        }
      ],
      "hex": "01000000010000000000000000000000000000000000000000000000000000000000000000ffffffff0804ffff001d02d000ffffffff0100f2052a01000000434104e8989243877974ba957dc4f4f605185a3e9c2c51d8d3495b69ab2bc9730d59c91663d8f26e2014e400e507881548ecde7844be049f3ed04329dc387bcba88279ac00000000"
    }
  ]
}