{
  "hash": "00000000949a6879f9658d4de693f9a393e6add7e383425fb1148fd288c51200",
  "confirmations": 47442,
  "height": 5656,
  "version": 1,
  "versionHex": "00000001",
  "merkleroot": "d93c1f92ab792723d4791033f3276c11fb68f7cf9c73be5782d7d73b554fa297",
  "time": 1235653503,
  "mediantime": 1235648630,
  "nonce": 4056410923,
  "bits": "1d00ffff",
  "difficulty": 1,
  "chainwork": "0000000000000000000000000000000000000000000000000000161916191619",
  "nTx": 1,
  "previousblockhash": "00000000b013ad8580836a6ac6a905371542f3693a7639a93e066c2c0e473570",
  "nextblockhash": "000000004d965280cf9e134acc9df0a18fd562b77500255d9b12f15d98095ab0",
  "strippedsize": 216,
  "size": 216,
  "weight": 864,
  "tx": [
    {
      "txid": "d93c1f92ab792723d4791033f3276c11fb68f7cf9c73be5782d7d73b554fa297",
      "hash": "d93c1f92ab792723d4791033f3276c11fb68f7cf9c73be5782d7d73b554fa297",
      "version": 1,
      "size": 135,
      "vsize": 135,
      "weight": 540,
      "locktime": 0,
      "vin": [
        {
          "coinbase": "04ffff001d02cc08",
          "sequence": 4294967295
        }
      ],
      "vout": [
        {
          "value": 50.0,
          "n": 0,
          "scriptPubKey": {
            "asm": "04e8baba6709644b88413813ab5707f25ec718deaaeb5b8afc9f15ef42c641abdf924cb6d6deee8366ec19cffc086d0d4ed9205b171f3764b3e4933ab77884dd84 OP_CHECKSIG",
            "desc": "pk(04e8baba6709644b88413813ab5707f25ec718deaaeb5b8afc9f15ef42c641abdf924cb6d6deee8366ec19cffc086d0d4ed9205b171f3764b3e4933ab77884dd84)#cws2kkz7",
            "hex": "4104e8baba6709644b88413813ab5707f25ec718deaaeb5b8afc9f15ef42c641abdf924cb6d6deee8366ec19cffc086d0d4ed9205b171f3764b3e4933ab77884dd84ac",
            "type": "pubkey"
          }
        }
      ],
      "hex": "01000000010000000000000000000000000000000000000000000000000000000000000000ffffffff0804ffff001d02cc08ffffffff0100f2052a01000000434104e8baba6709644b88413813ab5707f25ec718deaaeb5b8afc9f15ef42c641abdf924cb6d6deee8366ec19cffc086d0d4ed9205b171f3764b3e4933ab77884dd84ac00000000"
    }
  ]
}