{
  "hash": "00000000f0d78a6a132a64d889653e36e3467bd8c379ac720a21d379af53c8bd",
  "confirmations": 48128,
  "height": 4970,
  "version": 1,
  "versionHex": "00000001",
  "merkleroot": "a2c1d2a585cbe2cdfdd25881cee168fe4bff711928b6f69adcdb37ffa8644c7e",
  "time": 1235119456,
  "mediantime": 1235114948,
  "nonce": 354552676,
  "bits": "1d00ffff",
  "difficulty": 1,
  "chainwork": "0000000000000000000000000000000000000000000000000000136b136b136b",
  "nTx": 1,
  "previousblockhash": "000000009599b9daf24b787d76febb4b08ada0f80d87586456b6f523eb9f8352",
  "nextblockhash": "00000000262b0b63fcb7e829b82cfa1bfa8c6fff22539fd1590e9855f29e9ac5",
  "strippedsize": 216,
  "size": 216,
  "weight": 864,
  "tx": [
    {
      "txid": "a2c1d2a585cbe2cdfdd25881cee168fe4bff711928b6f69adcdb37ffa8644c7e",
      "hash": "a2c1d2a585cbe2cdfdd25881cee168fe4bff711928b6f69adcdb37ffa8644c7e",
      "version": 1,
      "size": 135,
      "vsize": 135,
      "weight": 540,
      "locktime": 0,
      "vin": [
        {
          "coinbase": "04ffff001d02030c",
          "sequence": 4294967295
        }
      ],
      "vout": [
        {
          "value": 50.0,
          "n": 0,
          "scriptPubKey": {
            "asm": "04e481a64781d90bba9554246496f40b04cb67ff28bbf70f02111cf858ca6284fc7407e51ca2da3252001f879d59fae7440f8106c973450fd3cab5a5e6d392c4dd OP_CHECKSIG",
            "desc": "pk(04e481a64781d90bba9554246496f40b04cb67ff28bbf70f02111cf858ca6284fc7407e51ca2da3252001f879d59fae7440f8106c973450fd3cab5a5e6d392c4dd)#vjfj07f6",
            "hex": "4104e481a64781d90bba9554246496f40b04cb67ff28bbf70f02111cf858ca6284fc7407e51ca2da3252001f879d59fae7440f8106c973450fd3cab5a5e6d392c4ddac",
            "type": "pubkey"
          }
        }
      ],
      "hex": "01000000010000000000000000000000000000000000000000000000000000000000000000ffffffff0804ffff001d02030cffffffff0100f2052a01000000434104e481a64781d90bba9554246496f40b04cb67ff28bbf70f02111cf858ca6284fc7407e51ca2da3252001f879d59fae7440f8106c973450fd3cab5a5e6d392c4ddac00000000"
    }
  ]
}