{
  "hash": "00000000a0163eeaabe7c01a481b2ed518f2da7cee9bb97d826df2a5a73b9a00",
  "confirmations": 43190,
  "height": 9908,
  "version": 1,
  "versionHex": "00000001",
  "merkleroot": "8c96f74e55f2788b7cdbf315ea8724e52f6f2df74e0db71ab098a113b4cd4054",
  "time": 1238927143,
  "mediantime": 1238925924,
  "nonce": 1369539111,
  "bits": "1d00ffff",
  "difficulty": 1,
  "chainwork": "000000000000000000000000000000000000000000000000000026b526b526b5",
  "nTx": 1,
  "previousblockhash": "00000000ca936077171d08f58b55f85ebdd4f97caf0bd047763ce496a2eb51c3",
  "nextblockhash": "0000000042f28c9a92ac3f9f1e5890789a3cf88e7bc52d2815126f907804b3c6",
  "strippedsize": 216,
  "size": 216,
  "weight": 864,
  "tx": [
    {
      "txid": "8c96f74e55f2788b7cdbf315ea8724e52f6f2df74e0db71ab098a113b4cd4054",
      "hash": "8c96f74e55f2788b7cdbf315ea8724e52f6f2df74e0db71ab098a113b4cd4054",
      "version": 1,
      "size": 135,
      "vsize": 135,
      "weight": 540,
      "locktime": 0,
      "vin": [
        {
          "coinbase": "04ffff001d023a02",
          "sequence": 4294967295
        }
      ],
      "vout": [
        {
          "value": 50.0,
          "n": 0,
          "scriptPubKey": {
            "asm": "044b5fb404384ce7f36d6e66437f4a579448a38f749cdf29aa957a762f30ef04d64b73cda602610bd3d5db9d32438b2bb79865e2124655b8af34ef3d794b4e779b OP_CHECKSIG",
            "desc": "pk(044b5fb404384ce7f36d6e66437f4a579448a38f749cdf29aa957a762f30ef04d64b73cda602610bd3d5db9d32438b2bb79865e2124655b8af34ef3d794b4e779b)#h4ee3fsx",
            "hex": "41044b5fb404384ce7f36d6e66437f4a579448a38f749cdf29aa957a762f30ef04d64b73cda602610bd3d5db9d32438b2bb79865e2124655b8af34ef3d794b4e779bac",
            "type": "pubkey"
          }
        }
      ],
      "hex": "01000000010000000000000000000000000000000000000000000000000000000000000000ffffffff0804ffff001d023a02ffffffff0100f2052a010000004341044b5fb404384ce7f36d6e66437f4a579448a38f749cdf29aa957a762f30ef04d64b73cda602610bd3d5db9d32438b2bb79865e2124655b8af34ef3d794b4e779bac00000000"
    }
  ]
}