{
  "hash": "00000000c3a81d9932edc9a2e3358e631b094d9628178bbf6089b12f75b08815",
  "confirmations": 52520,
  "height": 578,
  "version": 1,
  "versionHex": "00000001",
  "merkleroot": "307a857d68f4cc92a363d86a1e47d1a3343a4d4e61a48a245337811b696e7ca9",
  "time": 1232022521,
  "mediantime": 1232018781,
  "nonce": 1000219426,
  "bits": "1d00ffff",
  "difficulty": 1,
  "chainwork": "0000000000000000000000000000000000000000000000000000024302430243",
  "nTx": 1,
  "previousblockhash": "0000000011e36edf0c01ecffe36ac4be9f4674c5438d5bd02f47a59c798f663c",
  "nextblockhash": "0000000074e77a1e561ab5247bec8a977977d3dde3d70a74fabf0adc3d6bf4ac",
  "strippedsize": 216,
  "size": 216,
  "weight": 864,
  "tx": [
    {
      "txid": "307a857d68f4cc92a363d86a1e47d1a3343a4d4e61a48a245337811b696e7ca9",
      "hash": "307a857d68f4cc92a363d86a1e47d1a3343a4d4e61a48a245337811b696e7ca9",
      "version": 1,
      "size": 135,
      "vsize": 135,
      "weight": 540,
      "locktime": 0,
      "vin": [
        {
          "coinbase": "04ffff001d023606",
          "sequence": 4294967295
        }
      ],
      "vout": [
        {
          "value": 50.0,
          "n": 0,
          "scriptPubKey": {
            "asm": "04c0699b9801141aae1417cdd8080a4147a77244c9cd1c2547c3eec776f457cf882c28b56113a30b88913a809cb5b88f3de2d60138cc87f917e886a85fefdc2566 OP_CHECKSIG",
            "desc": "pk(04c0699b9801141aae1417cdd8080a4147a77244c9cd1c2547c3eec776f457cf882c28b56113a30b88913a809cb5b88f3de2d60138cc87f917e886a85fefdc2566)#xjsaravf",
            "hex": "4104c0699b9801141aae1417cdd8080a4147a77244c9cd1c2547c3eec776f457cf882c28b56113a30b88913a809cb5b88f3de2d60138cc87f917e886a85fefdc2566ac",
            "type": "pubkey"
          }
        }
      ],
      "hex": "01000000010000000000000000000000000000000000000000000000000000000000000000ffffffff0804ffff001d023606ffffffff0100f2052a01000000434104c0699b9801141aae1417cdd8080a4147a77244c9cd1c2547c3eec776f457cf882c28b56113a30b88913a809cb5b88f3de2d60138cc87f917e886a85fefdc2566ac00000000"
    }
  ]
}