{
  "hash": "00000000860ca8c60f8aec1e145540c0c9ed3e741e9a38dea2412d70db8b0785",
  "confirmations": 48382,
  "height": 4716,
  "version": 1,
  "versionHex": "00000001",
  "merkleroot": "ba6d39777f832b8145bac2ffa2b6891e06de7ca2882de7841da31ff6e20926d3",
  "time": 1234938132,
  "mediantime": 1234935301,
  "nonce": 3410282785,
  "bits": "1d00ffff",
  "difficulty": 1,
  "chainwork": "0000000000000000000000000000000000000000000000000000126d126d126d",
  "nTx": 1,
  "previousblockhash": "000000002a05ba76ab6d662d62679bc3b04effd6f3c3345ebb9e5331f8053473",
  "nextblockhash": "00000000db40a28de1fe7a8ee77a6e426524a7620d91823ceaccc44e1f358a2b",
  "strippedsize": 216,
  "size": 216,
  "weight": 864,
  "tx": [
    {
      "txid": "ba6d39777f832b8145bac2ffa2b6891e06de7ca2882de7841da31ff6e20926d3",
      "hash": "ba6d39777f832b8145bac2ffa2b6891e06de7ca2882de7841da31ff6e20926d3",
      "version": 1,
      "size": 135,
      "vsize": 135,
      "weight": 540,
      "locktime": 0,
      "vin": [
        {
          "coinbase": "04ffff001d02bc02",
          "sequence": 4294967295
        }
      ],
      "vout": [
        {
          "value": 50.0,
          "n": 0,
          "scriptPubKey": {
            "asm": "043bacaf8a4e46e46279924c788d48fd2a6032e03a210ee2e79bf8da72b222528010a043409721cd76e91e3f9a6e5338557c3f7c5699df0c2794fa06d8beda4345 OP_CHECKSIG",
            "desc": "pk(043bacaf8a4e46e46279924c788d48fd2a6032e03a210ee2e79bf8da72b222528010a043409721cd76e91e3f9a6e5338557c3f7c5699df0c2794fa06d8beda4345)#wzqglamw",
            "hex": "41043bacaf8a4e46e46279924c788d48fd2a6032e03a210ee2e79bf8da72b222528010a043409721cd76e91e3f9a6e5338557c3f7c5699df0c2794fa06d8beda4345ac",
            "type": "pubkey"
          }
        }
      ],
      "hex": "01000000010000000000000000000000000000000000000000000000000000000000000000ffffffff0804ffff001d02bc02ffffffff0100f2052a010000004341043bacaf8a4e46e46279924c788d48fd2a6032e03a210ee2e79bf8da72b222528010a043409721cd76e91e3f9a6e5338557c3f7c5699df0c2794fa06d8beda4345ac00000000"
    }
  ]
}