{
  "hash": "00000000c1699a2d6d7ed42822b2a831bec0a3746fc842497562b1b59d7f6075",
  "confirmations": 47759,
  "height": 5339,
  "version": 1,
  "versionHex": "00000001",
  "merkleroot": "fd10c1061487f7b8865aaa85cb0c707f0e6373b3d89a85c4db6722a29d421fcf",
  "time": 1235395518,
  "mediantime": 1235391276,
  "nonce": 30870817,
  "bits": "1d00ffff",
  "difficulty": 1,
  "chainwork": "000000000000000000000000000000000000000000000000000014dc14dc14dc",
  "nTx": 1,
  "previousblockhash": "00000000d057dbfef14efa6bd5f7d1e2a180c9b40c0ee4f71cfe1afd87debc61",
  "nextblockhash": "000000001b6ba78b9f23da0a6154a006d63e13e81e5cae8dc3d43f2db64b74a6",
  "strippedsize": 216,
  "size": 216,
  "weight": 864,
  "tx": [
    {
      "txid": "fd10c1061487f7b8865aaa85cb0c707f0e6373b3d89a85c4db6722a29d421fcf",
      "hash": "fd10c1061487f7b8865aaa85cb0c707f0e6373b3d89a85c4db6722a29d421fcf",
      "version": 1,
      "size": 135,
      "vsize": 135,
      "weight": 540,
      "locktime": 0,
      "vin": [
        {
          "coinbase": "04ffff001d02780d",
          "sequence": 4294967295
        }
      ],
      "vout": [
        {
          "value": 50.0,
          "n": 0,
          "scriptPubKey": {
            "asm": "0412ebc49bb9fe92824d5190cacd023ca032ae2ecaa3cfbf4cd68b4e6b67568f5dd77870136271de22ab7cbbf1dae22acde161d5702eca8726fe535ddb22b7d186 OP_CHECKSIG",
            "desc": "pk(0412ebc49bb9fe92824d5190cacd023ca032ae2ecaa3cfbf4cd68b4e6b67568f5dd77870136271de22ab7cbbf1dae22acde161d5702eca8726fe535ddb22b7d186)#aazwmrje",
            "hex": "410412ebc49bb9fe92824d5190cacd023ca032ae2ecaa3cfbf4cd68b4e6b67568f5dd77870136271de22ab7cbbf1dae22acde161d5702eca8726fe535ddb22b7d186ac",
            "type": "pubkey"
          }
        }
      ],
      "hex": "01000000010000000000000000000000000000000000000000000000000000000000000000ffffffff0804ffff001d02780dffffffff0100f2052a0100000043410412ebc49bb9fe92824d5190cacd023ca032ae2ecaa3cfbf4cd68b4e6b67568f5dd77870136271de22ab7cbbf1dae22acde161d5702eca8726fe535ddb22b7d186ac00000000"
    }
  ]
}