{
  "hash": "00000000e76c0650088fa82ecfe07574cf4f938c5cc46eb6195dbb4f083a776c",
  "confirmations": 51731,
  "height": 1367,
  "version": 1,
  "versionHex": "00000001",
  "merkleroot": "ccf88af0be92b32bd9fad60dda5cdaa955e392a6f1290c202da22513a4f88b44",
  "time": 1232655600,
  "mediantime": 1232652455,
  "nonce": 1011019541,
  "bits": "1d00ffff",
  "difficulty": 1,
  "chainwork": "0000000000000000000000000000000000000000000000000000055805580558",
  "nTx": 1,
  "previousblockhash": "000000001eaa0de9af3be951fdf24becbe29dad16d2b1ff71a863867ded88e29",
  "nextblockhash": "00000000c340d2a0b9c5b5406605c42eaf07b5ed410db83b6b352458739ccc3d",
  "strippedsize": 216,
  "size": 216,
  "weight": 864,
  "tx": [
    {
      "txid": "ccf88af0be92b32bd9fad60dda5cdaa955e392a6f1290c202da22513a4f88b44",
      "hash": "ccf88af0be92b32bd9fad60dda5cdaa955e392a6f1290c202da22513a4f88b44",
      "version": 1,
      "size": 135,
      "vsize": 135,
      "weight": 540,
      "locktime": 0,
      "vin": [
        {
          "coinbase": "04ffff001d027a01",
          "sequence": 4294967295
        }
      ],
      "vout": [
        {
          "value": 50.0,
          "n": 0,
          "scriptPubKey": {
            "asm": "04a8cb6d389a2514d695aaf852ec8d471ebedcb64b647ce2c5d201fc06cb11c292031e416437a698405dc695668d3c142880955bd5f5a2e4de32ed517537fc48c7 OP_CHECKSIG",
            "desc": "pk(04a8cb6d389a2514d695aaf852ec8d471ebedcb64b647ce2c5d201fc06cb11c292031e416437a698405dc695668d3c142880955bd5f5a2e4de32ed517537fc48c7)#mz6u2gqw",
            "hex": "4104a8cb6d389a2514d695aaf852ec8d471ebedcb64b647ce2c5d201fc06cb11c292031e416437a698405dc695668d3c142880955bd5f5a2e4de32ed517537fc48c7ac",
            "type": "pubkey"
          }
        }
      ],
      "hex": "01000000010000000000000000000000000000000000000000000000000000000000000000ffffffff0804ffff001d027a01ffffffff0100f2052a01000000434104a8cb6d389a2514d695aaf852ec8d471ebedcb64b647ce2c5d201fc06cb11c292031e416437a698405dc695668d3c142880955bd5f5a2e4de32ed517537fc48c7ac00000000"
    }
  ]
}