{
  "hash": "00000000199e509e7e2138f0d0b405d725e4b43aca45beb2278b52289d050ce8",
  "confirmations": 43295,
  "height": 9803,
  "version": 1,
  "versionHex": "00000001",
  "merkleroot": "f122dd88ac7fda58745f93b803728ffd06444360a17bdcd613bf9a49f96c2dad",
  "time": 1238859762,
  "mediantime": 1238855134,
  "nonce": 3407590958,
  "bits": "1d00ffff",
  "difficulty": 1,
  "chainwork": "0000000000000000000000000000000000000000000000000000264c264c264c",
  "nTx": 1,
  "previousblockhash": "000000002741cb4688dd9fa868f920a1f35e8145615c71b48ae8541ac400004c",
  "nextblockhash": "000000008c750dd0b1098b16c76b16c8f86b3f013350bd580cb84cd60ea099f7",
  "strippedsize": 215,
  "size": 215,
  "weight": 860,
  "tx": [
    {
      "txid": "f122dd88ac7fda58745f93b803728ffd06444360a17bdcd613bf9a49f96c2dad",
      "hash": "f122dd88ac7fda58745f93b803728ffd06444360a17bdcd613bf9a49f96c2dad",
      "version": 1,
      "size": 134,
      "vsize": 134,
      "weight": 536,
      "locktime": 0,
      "vin": [
        {
          "coinbase": "04ffff001d0166",
          "sequence": 4294967295
        }
      ],
      "vout": [
        {
          "value": 50.0,
          "n": 0,
          "scriptPubKey": {
            "asm": "041392d658e518bc0166be871e1ad57e2e9046212db1f39bb096b1648be5b1644fce5f32304a6145cc0d138d16e38fd31ce3819f704fb59f52d4284d7208b83806 OP_CHECKSIG",
            "desc": "pk(041392d658e518bc0166be871e1ad57e2e9046212db1f39bb096b1648be5b1644fce5f32304a6145cc0d138d16e38fd31ce3819f704fb59f52d4284d7208b83806)#5y64x3fr",
            "hex": "41041392d658e518bc0166be871e1ad57e2e9046212db1f39bb096b1648be5b1644fce5f32304a6145cc0d138d16e38fd31ce3819f704fb59f52d4284d7208b83806ac",
            "type": "pubkey"
          }
        }
      ],
      "hex": "01000000010000000000000000000000000000000000000000000000000000000000000000ffffffff0704ffff001d0166ffffffff0100f2052a010000004341041392d658e518bc0166be871e1ad57e2e9046212db1f39bb096b1648be5b1644fce5f32304a6145cc0d138d16e38fd31ce3819f704fb59f52d4284d7208b83806ac00000000"
    }
  ]
}