{
  "hash": "000000000b83cb62913e9a1fe957d8eaa2135c83cabb41abe781f4a89ef8bd43",
  "confirmations": 47590,
  "height": 5508,
  "version": 1,
  "versionHex": "00000001",
  "merkleroot": "7aab9aa0494763dbd925bb4d57941fef1bdfce4f5a3494f64e58bf9ac94a5021",
  "time": 1235527766,
  "mediantime": 1235524503,
  "nonce": 3809753641,
  "bits": "1d00ffff",
  "difficulty": 1,
  "chainwork": "0000000000000000000000000000000000000000000000000000158515851585",
  "nTx": 1,
  "previousblockhash": "00000000dbf58781d0fdd7038ff072f3de382a4b31ccd24d88ab49d229931369",
  "nextblockhash": "00000000931cb664384a4c637862f20287d8df407ab6de0afca432d98f6963f1",
  "strippedsize": 216,
  "size": 216,
  "weight": 864,
  "tx": [
    {
      "txid": "7aab9aa0494763dbd925bb4d57941fef1bdfce4f5a3494f64e58bf9ac94a5021",
      "hash": "7aab9aa0494763dbd925bb4d57941fef1bdfce4f5a3494f64e58bf9ac94a5021",
      "version": 1,
      "size": 135,
      "vsize": 135,
      "weight": 540,
      "locktime": 0,
      "vin": [
        {
          "coinbase": "04ffff001d02c705",
          "sequence": 4294967295
        }
      ],
      "vout": [
        {
          "value": 50.0,
          "n": 0,
          "scriptPubKey": {
            "asm": "041a9e811a4e96cc5e5745c403a697cba012f02488b4b32771c8dab970afa451a18730e280dd6b0414790021ccc9ffc265fe8ed7c9e74eed1011d59b7ae268e032 OP_CHECKSIG",
            "desc": "pk(041a9e811a4e96cc5e5745c403a697cba012f02488b4b32771c8dab970afa451a18730e280dd6b0414790021ccc9ffc265fe8ed7c9e74eed1011d59b7ae268e032)#tqg6awcm",
            "hex": "41041a9e811a4e96cc5e5745c403a697cba012f02488b4b32771c8dab970afa451a18730e280dd6b0414790021ccc9ffc265fe8ed7c9e74eed1011d59b7ae268e032ac",
            "type": "pubkey"
          }
        }
      ],
      "hex": "01000000010000000000000000000000000000000000000000000000000000000000000000ffffffff0804ffff001d02c705ffffffff0100f2052a010000004341041a9e811a4e96cc5e5745c403a697cba012f02488b4b32771c8dab970afa451a18730e280dd6b0414790021ccc9ffc265fe8ed7c9e74eed1011d59b7ae268e032ac00000000"
    }
  ]
}