{
  "hash": "0000000090020fa2437d58703509b476fad39f5a5c3008dcf305d5e4eeb610da",
  "confirmations": 45966,
  "height": 7132,
  "version": 1,
  "versionHex": "00000001",
  "merkleroot": "c94e3d085ca06ab4c36162dba184bf95345a1b84959cf3da1ea0793ee1d66ddf",
  "time": 1236819294,
  "mediantime": 1236815944,
  "nonce": 58908479,
  "bits": "1d00ffff",
  "difficulty": 1,
  "chainwork": "00000000000000000000000000000000000000000000000000001bdd1bdd1bdd",
  "nTx": 1,
  "previousblockhash": "000000003531ef6f6f09805c59bd25d089fc225838df2b80a3441c48165e58d2",
  "nextblockhash": "0000000070398cf8b7e35d5708b43beefdf2324dd9fa59cf3b596cc1d6ea94b2",
  "strippedsize": 216,
  "size": 216,
  "weight": 864,
  "tx": [
    {
      "txid": "c94e3d085ca06ab4c36162dba184bf95345a1b84959cf3da1ea0793ee1d66ddf",
      "hash": "c94e3d085ca06ab4c36162dba184bf95345a1b84959cf3da1ea0793ee1d66ddf",
      "version": 1,
      "size": 135,
      "vsize": 135,
      "weight": 540,
      "locktime": 0,
      "vin": [
        {
          "coinbase": "04ffff001d028000",
          "sequence": 4294967295
        }
      ],
      "vout": [
        {
          "value": 50.0,
          "n": 0,
          "scriptPubKey": {
            "asm": "04f218a4e8cb5153c2a734e623e59fc0f8fcb76ba97ee2d961d65d60182861c4c4d4d1a048ebccd3cd303bb685a8edaf0a0dfc90af2c94f9b50b207cf9f09a145a OP_CHECKSIG",
            "desc": "pk(04f218a4e8cb5153c2a734e623e59fc0f8fcb76ba97ee2d961d65d60182861c4c4d4d1a048ebccd3cd303bb685a8edaf0a0dfc90af2c94f9b50b207cf9f09a145a)#nm5gjh57",
            "hex": "4104f218a4e8cb5153c2a734e623e59fc0f8fcb76ba97ee2d961d65d60182861c4c4d4d1a048ebccd3cd303bb685a8edaf0a0dfc90af2c94f9b50b207cf9f09a145aac",
            "type": "pubkey"
          }
        }
      ],
      "hex": "01000000010000000000000000000000000000000000000000000000000000000000000000ffffffff0804ffff001d028000ffffffff0100f2052a01000000434104f218a4e8cb5153c2a734e623e59fc0f8fcb76ba97ee2d961d65d60182861c4c4d4d1a048ebccd3cd303bb685a8edaf0a0dfc90af2c94f9b50b207cf9f09a145aac00000000"
    }
  ]
}