{
  "hash": "00000000601c8f69fc2927982428de99f37fe129a1f191092daeba32a61bfb65",
  "confirmations": 50626,
  "height": 2472,
  "version": 1,
  "versionHex": "00000001",
  "merkleroot": "3eeec2d4a439167f4c3ba1fedec046a15d77b17fefddb7d2177519888d2f5bd4",
  "time": 1233405296,
  "mediantime": 1233402657,
  "nonce": 3605224985,
  "bits": "1d00ffff",
  "difficulty": 1,
  "chainwork": "000000000000000000000000000000000000000000000000000009a909a909a9",
  "nTx": 1,
  "previousblockhash": "0000000032e1104ffe8fe33902cb3bc9d632c056dd2e3e7cfcff8df93d3b4c96",
  "nextblockhash": "000000001bb6e245ba43ac29ffd68467c054359a50076617faa15641ffa24387",
  "strippedsize": 216,
  "size": 216,
  "weight": 864,
  "tx": [
    {
      "txid": "3eeec2d4a439167f4c3ba1fedec046a15d77b17fefddb7d2177519888d2f5bd4",
      "hash": "3eeec2d4a439167f4c3ba1fedec046a15d77b17fefddb7d2177519888d2f5bd4",
      "version": 1,
      "size": 135,
      "vsize": 135,
      "weight": 540,
      "locktime": 0,
      "vin": [
        {
          "coinbase": "04ffff001d02b800",
          "sequence": 4294967295
        }
      ],
      "vout": [
        {
          "value": 50.0,
          "n": 0,
          "scriptPubKey": {
            "asm": "04da4a5c492df4451d1534427f30bea947354b0c82b121b9c3e15a4fd72c9f710d541bb3fbef972d6ae6f7c3014100c1bc64fc66f990b39b5a63dc4cf17a6264d4 OP_CHECKSIG",
            "desc": "pk(04da4a5c492df4451d1534427f30bea947354b0c82b121b9c3e15a4fd72c9f710d541bb3fbef972d6ae6f7c3014100c1bc64fc66f990b39b5a63dc4cf17a6264d4)#wv3egjj9",
            "hex": "4104da4a5c492df4451d1534427f30bea947354b0c82b121b9c3e15a4fd72c9f710d541bb3fbef972d6ae6f7c3014100c1bc64fc66f990b39b5a63dc4cf17a6264d4ac",
            "type": "pubkey"
          }
        }
      ],
      "hex": "01000000010000000000000000000000000000000000000000000000000000000000000000ffffffff0804ffff001d02b800ffffffff0100f2052a01000000434104da4a5c492df4451d1534427f30bea947354b0c82b121b9c3e15a4fd72c9f710d541bb3fbef972d6ae6f7c3014100c1bc64fc66f990b39b5a63dc4cf17a6264d4ac00000000"
    }
  ]
}