{
  "hash": "000000004e833644bc7fb021abd3da831c64ec82bae73042cfa63923d47d3303",
  "confirmations": 52085,
  "height": 250,
  "version": 1,
  "versionHex": "00000001",
  "merkleroot": "d4f94674f0e13387b84e8b3d877e9c458bf00f170a2707ce5fc202084c5d2d0e",
  "time": 1231792456,
  "mediantime": 1231788397,
  "nonce": 3264821810,
  "bits": "1d00ffff",
  "difficulty": 1,
  "chainwork": "000000000000000000000000000000000000000000000000000000fb00fb00fb",
  "nTx": 1,
  "previousblockhash": "000000001a483a866ad69445e03a31db4ed5a9ea3f1cfec388fc18092f242155",
  "nextblockhash": "00000000eddf09d9b36274faf45b4b4629a28266ff952a69d554c1ed0b988dff",
  "strippedsize": 216,
  "size": 216,
  "weight": 864,
  "tx": [
    {
      "txid": "d4f94674f0e13387b84e8b3d877e9c458bf00f170a2707ce5fc202084c5d2d0e",
      "hash": "d4f94674f0e13387b84e8b3d877e9c458bf00f170a2707ce5fc202084c5d2d0e",
      "version": 1,
      "size": 135,
      "vsize": 135,
      "weight": 540,
      "locktime": 0,
      "vin": [
        {
          "coinbase": "04ffff001d021701",
          "sequence": 4294967295
        }
      ],
      "vout": [
        {
          "value": 50.0,
          "n": 0,
          "scriptPubKey": {
            "asm": "04066881c5e8aecf0f7db7254d105add6937feee5354922d3d74cbac744ffbed3351e218fc515f497f3f0d07daed5fe4ee6f250b05b8e7b2e6b320c88d337d855c OP_CHECKSIG",
            "desc": "pk(04066881c5e8aecf0f7db7254d105add6937feee5354922d3d74cbac744ffbed3351e218fc515f497f3f0d07daed5fe4ee6f250b05b8e7b2e6b320c88d337d855c)#n8g644jr",
            "hex": "4104066881c5e8aecf0f7db7254d105add6937feee5354922d3d74cbac744ffbed3351e218fc515f497f3f0d07daed5fe4ee6f250b05b8e7b2e6b320c88d337d855cac",
            "type": "pubkey"
          }
        }
      ],
      "hex": "01000000010000000000000000000000000000000000000000000000000000000000000000ffffffff0804ffff001d021701ffffffff0100f2052a01000000434104066881c5e8aecf0f7db7254d105add6937feee5354922d3d74cbac744ffbed3351e218fc515f497f3f0d07daed5fe4ee6f250b05b8e7b2e6b320c88d337d855cac00000000"
    }
  ]
}