{
  "hash": "00000000dbae13c4a1366d42db3967b7cfc7604675cbe8be06ecd08ca7fb97b4",
  "confirmations": 48597,
  "height": 4501,
  "version": 1,
  "versionHex": "00000001",
  "merkleroot": "ae66d98324f165c440a5a40b29cfe2f88a77f789697c035e97bfc1ad3cfb541d",
  "time": 1234780685,
  "mediantime": 1234777370,
  "nonce": 135474863,
  "bits": "1d00ffff",
  "difficulty": 1,
  "chainwork": "0000000000000000000000000000000000000000000000000000119611961196",
  "nTx": 1,
  "previousblockhash": "00000000015a64948e4248f08bae4f0e9754dc7a747b10eae2ba603d21dcf718",
  "nextblockhash": "00000000d16cbccbf3efd887605b96cfd70e4d4491dbbeb7e4f2d4114c1dc935",
  "strippedsize": 215,
  "size": 215,
  "weight": 860,
  "tx": [
    {
      "txid": "ae66d98324f165c440a5a40b29cfe2f88a77f789697c035e97bfc1ad3cfb541d",
      "hash": "ae66d98324f165c440a5a40b29cfe2f88a77f789697c035e97bfc1ad3cfb541d",
      "version": 1,
      "size": 134,
      "vsize": 134,
      "weight": 536,
      "locktime": 0,
      "vin": [
        {
          "coinbase": "04ffff001d0106",
          "sequence": 4294967295
        }
      ],
      "vout": [
        {
          "value": 50.0,
          "n": 0,
          "scriptPubKey": {
            "asm": "0425e7f743fb67fe6759046b79a62c352c1a45bebcef0a95c66d2e0f83c8945bbc0414e0aab3b71d4a2cadf262f9baae095a5d003cedafa0311752a37df690241d OP_CHECKSIG",
            "desc": "pk(0425e7f743fb67fe6759046b79a62c352c1a45bebcef0a95c66d2e0f83c8945bbc0414e0aab3b71d4a2cadf262f9baae095a5d003cedafa0311752a37df690241d)#zumx96ne",
            "hex": "410425e7f743fb67fe6759046b79a62c352c1a45bebcef0a95c66d2e0f83c8945bbc0414e0aab3b71d4a2cadf262f9baae095a5d003cedafa0311752a37df690241dac",
            "type": "pubkey"
          }
        }
      ],
      "hex": "01000000010000000000000000000000000000000000000000000000000000000000000000ffffffff0704ffff001d0106ffffffff0100f2052a0100000043410425e7f743fb67fe6759046b79a62c352c1a45bebcef0a95c66d2e0f83c8945bbc0414e0aab3b71d4a2cadf262f9baae095a5d003cedafa0311752a37df690241dac00000000"
    }
  ]
}