{
  "hash": "000000000324a4d2067b0d0d42a7ffd0d63a203e9a961672b39bd14f1dfcbf67",
  "confirmations": 46917,
  "height": 6181,
  "version": 1,
  "versionHex": "00000001",
  "merkleroot": "531338f445f9f80fd81813294e3774768c6342c7c00696d99814fc6faea38d32",
  "time": 1236076196,
  "mediantime": 1236071791,
  "nonce": 1510728997,
  "bits": "1d00ffff",
  "difficulty": 1,
  "chainwork": "0000000000000000000000000000000000000000000000000000182618261826",
  "nTx": 1,
  "previousblockhash": "00000000c90d2b130f106b815f0124d5dabd578c4cb411e7899f7f39b34900b1",
  "nextblockhash": "000000008c9da40f51b0ea34315f03ba7f367a69c71f1654ecf42d9fec355960",
  "strippedsize": 216,
  "size": 216,
  "weight": 864,
  "tx": [
    {
      "txid": "531338f445f9f80fd81813294e3774768c6342c7c00696d99814fc6faea38d32",
      "hash": "531338f445f9f80fd81813294e3774768c6342c7c00696d99814fc6faea38d32",
      "version": 1,
      "size": 135,
      "vsize": 135,
      "weight": 540,
      "locktime": 0,
      "vin": [
        {
          "coinbase": "04ffff001d022e08",
          "sequence": 4294967295
        }
      ],
      "vout": [
        {
          "value": 50.0,
          "n": 0,
          "scriptPubKey": {
            "asm": "04fa11b3e8eec4b840d40934e173fdadd12a3b569c33e9db5499e26bf64597d4a2671a6602236a54646ba94318878407d2e57c3ffcecaaee6fcab4b1a23e702b6e OP_CHECKSIG",
            "desc": "pk(04fa11b3e8eec4b840d40934e173fdadd12a3b569c33e9db5499e26bf64597d4a2671a6602236a54646ba94318878407d2e57c3ffcecaaee6fcab4b1a23e702b6e)#r0mahp4p",
            "hex": "4104fa11b3e8eec4b840d40934e173fdadd12a3b569c33e9db5499e26bf64597d4a2671a6602236a54646ba94318878407d2e57c3ffcecaaee6fcab4b1a23e702b6eac",
            "type": "pubkey"
          }
        }
      ],
      "hex": "01000000010000000000000000000000000000000000000000000000000000000000000000ffffffff0804ffff001d022e08ffffffff0100f2052a01000000434104fa11b3e8eec4b840d40934e173fdadd12a3b569c33e9db5499e26bf64597d4a2671a6602236a54646ba94318878407d2e57c3ffcecaaee6fcab4b1a23e702b6eac00000000"
    }
  ]
}