{
  "hash": "00000000fa68b47da2fff1d2a238f09256779c997964fc762c2b5cd6b6fdd842",
  "confirmations": 50501,
  "height": 2597,
  "version": 1,
  "versionHex": "00000001",
  "merkleroot": "878e503017a0594195ede3a203d56b215d6201a17ac94bc232b4a1248078fa3b",
  "time": 1233493514,
  "mediantime": 1233488998,
  "nonce": 31285312,
  "bits": "1d00ffff",
  "difficulty": 1,
  "chainwork": "00000000000000000000000000000000000000000000000000000a260a260a26",
  "nTx": 1,
  "previousblockhash": "00000000d66246fba8e33ff91fbbb77f902bc78328eec4d2790396bfb7987154",
  "nextblockhash": "00000000228868bd1c5fad818799827c4bbff4cecc5673511a1c594f7ccaff4b",
  "strippedsize": 215,
  "size": 215,
  "weight": 860,
  "tx": [
    {
      "txid": "878e503017a0594195ede3a203d56b215d6201a17ac94bc232b4a1248078fa3b",
      "hash": "878e503017a0594195ede3a203d56b215d6201a17ac94bc232b4a1248078fa3b",
      "version": 1,
      "size": 134,
      "vsize": 134,
      "weight": 536,
      "locktime": 0,
      "vin": [
        {
          "coinbase": "04ffff001d0108",
          "sequence": 4294967295
        }
      ],
      "vout": [
        {
          "value": 50.0,
          "n": 0,
          "scriptPubKey": {
            "asm": "0408f09c8dd9604f5211ddc51ea093b85ef8e4c324343754e29432666aa00e6d35e2de8dfeea2a6dcc91669bd81ed91bb73863f9924eb4affc343dfa9137ceb8c6 OP_CHECKSIG",
            "desc": "pk(0408f09c8dd9604f5211ddc51ea093b85ef8e4c324343754e29432666aa00e6d35e2de8dfeea2a6dcc91669bd81ed91bb73863f9924eb4affc343dfa9137ceb8c6)#yaxm9e6m",
            "hex": "410408f09c8dd9604f5211ddc51ea093b85ef8e4c324343754e29432666aa00e6d35e2de8dfeea2a6dcc91669bd81ed91bb73863f9924eb4affc343dfa9137ceb8c6ac",
            "type": "pubkey"
          }
        }
      ],
      "hex": "01000000010000000000000000000000000000000000000000000000000000000000000000ffffffff0704ffff001d0108ffffffff0100f2052a0100000043410408f09c8dd9604f5211ddc51ea093b85ef8e4c324343754e29432666aa00e6d35e2de8dfeea2a6dcc91669bd81ed91bb73863f9924eb4affc343dfa9137ceb8c6ac00000000"
    }
  ]
}