{
  "hash": "00000000a4312fe881244917a19231dfda84f629e3fb6a620f7ccd84a4fc2af4",
  "confirmations": 51264,
  "height": 1834,
  "version": 1,
  "versionHex": "00000001",
  "merkleroot": "8a3965ecc78611642a576deb36d0867e53ed8e0cc31a4d7164b5d873103b65a5",
  "time": 1232915500,
  "mediantime": 1232912933,
  "nonce": 1636505118,
  "bits": "1d00ffff",
  "difficulty": 1,
  "chainwork": "0000000000000000000000000000000000000000000000000000072b072b072b",
  "nTx": 1,
  "previousblockhash": "00000000bb3515b459870f58e6defd2b1ee555da2315328d8edb8981ae3dc130",
  "nextblockhash": "0000000018acfba39f5b2d3065a1705ee2df5640e8754d101eed68f443037150",
  "strippedsize": 216,
  "size": 216,
  "weight": 864,
  "tx": [
    {
      "txid": "8a3965ecc78611642a576deb36d0867e53ed8e0cc31a4d7164b5d873103b65a5",
      "hash": "8a3965ecc78611642a576deb36d0867e53ed8e0cc31a4d7164b5d873103b65a5",
      "version": 1,
      "size": 135,
      "vsize": 135,
      "weight": 540,
      "locktime": 0,
      "vin": [
        {
          "coinbase": "04ffff001d026304",
          "sequence": 4294967295
        }
      ],
      "vout": [
        {
          "value": 50.0,
          "n": 0,
          "scriptPubKey": {
            "asm": "04a6a9813271158abc0c3e534822e359bfd69687aa4530b1983c3da3afd9d4b072212a989b01fd7623bdad4ca29d4e7acb6d3889f34573cb1bd81c5b8c5cab7acc OP_CHECKSIG",
            "desc": "pk(04a6a9813271158abc0c3e534822e359bfd69687aa4530b1983c3da3afd9d4b072212a989b01fd7623bdad4ca29d4e7acb6d3889f34573cb1bd81c5b8c5cab7acc)#4nn9dnd4",
            "hex": "4104a6a9813271158abc0c3e534822e359bfd69687aa4530b1983c3da3afd9d4b072212a989b01fd7623bdad4ca29d4e7acb6d3889f34573cb1bd81c5b8c5cab7accac",
            "type": "pubkey"
          }
        }
      ],
      "hex": "01000000010000000000000000000000000000000000000000000000000000000000000000ffffffff0804ffff001d026304ffffffff0100f2052a01000000434104a6a9813271158abc0c3e534822e359bfd69687aa4530b1983c3da3afd9d4b072212a989b01fd7623bdad4ca29d4e7acb6d3889f34573cb1bd81c5b8c5cab7accac00000000"
    }
  ]
}