{
  "hash": "000000001313525cb4daed80d0f8cbd86fbb332374de8d778523358fe4d0aae6",
  "confirmations": 43109,
  "height": 9989,
  "version": 1,
  "versionHex": "00000001",
  "merkleroot": "02776ffe8a2b4b52e88adb16ef2739990548e28d07c9d1a3d9f2b7075621e419",
  "time": 1238981341,
  "mediantime": 1238977292,
  "nonce": 3129511978,
  "bits": "1d00ffff",
  "difficulty": 1,
  "chainwork": "0000000000000000000000000000000000000000000000000000270627062706",
  "nTx": 1,
  "previousblockhash": "0000000060420f7b7e05878eec12daf34f5960ea4eb7e70fdc64ae3184593628",
  "nextblockhash": "00000000edb29a7e6f15ff720d0e607611300dd0b995ad80ceac1e93c66be9a0",
  "strippedsize": 216,
  "size": 216,
  "weight": 864,
  "tx": [
    {
      "txid": "02776ffe8a2b4b52e88adb16ef2739990548e28d07c9d1a3d9f2b7075621e419",
      "hash": "02776ffe8a2b4b52e88adb16ef2739990548e28d07c9d1a3d9f2b7075621e419",
      "version": 1,
      "size": 135,
      "vsize": 135,
      "weight": 540,
      "locktime": 0,
      "vin": [
        {
          "coinbase": "04ffff001d023003",
          "sequence": 4294967295
        }
      ],
      "vout": [
        {
          "value": 50.0,
          "n": 0,
          "scriptPubKey": {
            "asm": "048b2e239c09f122fb0d753f7adb766aa50d9b1ae4628627f08a922400e9e1847b25c3371c68ca47acf52047de70ffe5872d4a4aada632aec7d5d798ec72d7bc10 OP_CHECKSIG",
            "desc": "pk(048b2e239c09f122fb0d753f7adb766aa50d9b1ae4628627f08a922400e9e1847b25c3371c68ca47acf52047de70ffe5872d4a4aada632aec7d5d798ec72d7bc10)#qyfwh3u0",
            "hex": "41048b2e239c09f122fb0d753f7adb766aa50d9b1ae4628627f08a922400e9e1847b25c3371c68ca47acf52047de70ffe5872d4a4aada632aec7d5d798ec72d7bc10ac",
            "type": "pubkey"
          }
        }
      ],
      "hex": "01000000010000000000000000000000000000000000000000000000000000000000000000ffffffff0804ffff001d023003ffffffff0100f2052a010000004341048b2e239c09f122fb0d753f7adb766aa50d9b1ae4628627f08a922400e9e1847b25c3371c68ca47acf52047de70ffe5872d4a4aada632aec7d5d798ec72d7bc10ac00000000"
    }
  ]
}