{
  "hash": "00000000c47a7d088188d3d7fdc2bf2beee5a4546796491bad5f3c0976cc8312",
  "confirmations": 46282,
  "height": 6816,
  "version": 1,
  "versionHex": "00000001",
  "merkleroot": "7df5418f43ba50e8fcf9d18a4945f3c2f8d62bab9764237b110de5f612e18c8d",
  "time": 1236567395,
  "mediantime": 1236564674,
  "nonce": 141435419,
  "bits": "1d00ffff",
  "difficulty": 1,
  "chainwork": "00000000000000000000000000000000000000000000000000001aa11aa11aa1",
  "nTx": 1,
  "previousblockhash": "00000000815f50e231547f23c2b67a932b6d9fd53f246c1aace8290ee2ba8b4e",
  "nextblockhash": "0000000080098f80993ab8399f06e3ab935cdfa98e90b4699b2d56aed410a785",
  "strippedsize": 216,
  "size": 216,
  "weight": 864,
  "tx": [
    {
      "txid": "7df5418f43ba50e8fcf9d18a4945f3c2f8d62bab9764237b110de5f612e18c8d",
      "hash": "7df5418f43ba50e8fcf9d18a4945f3c2f8d62bab9764237b110de5f612e18c8d",
      "version": 1,
      "size": 135,
      "vsize": 135,
      "weight": 540,
      "locktime": 0,
      "vin": [
        {
          "coinbase": "04ffff001d024009",
          "sequence": 4294967295
        }
      ],
      "vout": [
        {
          "value": 50.0,
          "n": 0,
          "scriptPubKey": {
            "asm": "049b5276ac43c67cac448c564981eeb388c7de3cfc4206a13abbe1609696e7b9f8357eaf49c5864967a7f2fb1d7e62a4c1db9752f96a5e7627a382e0119cd0c6f9 OP_CHECKSIG",
            "desc": "pk(049b5276ac43c67cac448c564981eeb388c7de3cfc4206a13abbe1609696e7b9f8357eaf49c5864967a7f2fb1d7e62a4c1db9752f96a5e7627a382e0119cd0c6f9)#appvzt0v",
            "hex": "41049b5276ac43c67cac448c564981eeb388c7de3cfc4206a13abbe1609696e7b9f8357eaf49c5864967a7f2fb1d7e62a4c1db9752f96a5e7627a382e0119cd0c6f9ac",
            "type": "pubkey"
          }
        }
      ],
      "hex": "01000000010000000000000000000000000000000000000000000000000000000000000000ffffffff0804ffff001d024009ffffffff0100f2052a010000004341049b5276ac43c67cac448c564981eeb388c7de3cfc4206a13abbe1609696e7b9f8357eaf49c5864967a7f2fb1d7e62a4c1db9752f96a5e7627a382e0119cd0c6f9ac00000000"
    }
  ]
}