{
  "hash": "00000000174841d2ff2709caf9c0c974e44cfbbb2c825a119c35f244806fd3cb",
  "confirmations": 45594,
  "height": 7504,
  "version": 1,
  "versionHex": "00000001",
  "merkleroot": "d9ad9f967707b0a5b0adc35d8785767db16befe3e868c3d7d5ebac27a2d26d34",
  "time": 1237099997,
  "mediantime": 1237096900,
  "nonce": 1982527236,
  "bits": "1d00ffff",
  "difficulty": 1,
  "chainwork": "00000000000000000000000000000000000000000000000000001d511d511d51",
  "nTx": 1,
  "previousblockhash": "000000002e311939271561d34b7ab85b55e3d4c13a631c581f265641f7c9be63",
  "nextblockhash": "00000000078c42fe4c24ca283e3d88a7b5457ef80b3e64807faade6549f16ca5",
  "strippedsize": 216,
  "size": 216,
  "weight": 864,
  "tx": [
    {
      "txid": "d9ad9f967707b0a5b0adc35d8785767db16befe3e868c3d7d5ebac27a2d26d34",
      "hash": "d9ad9f967707b0a5b0adc35d8785767db16befe3e868c3d7d5ebac27a2d26d34",
      "version": 1,
      "size": 135,
      "vsize": 135,
      "weight": 540,
      "locktime": 0,
      "vin": [
        {
          "coinbase": "04ffff001d02fa00",
          "sequence": 4294967295
        }
      ],
      "vout": [
        {
          "value": 50.0,
          "n": 0,
          "scriptPubKey": {
            "asm": "042ff9afde2fdb6ae2e085185e767b9e4122368525d47c5eb7910e8ba9c15ba2e0da1d7940d71082a4bde9c10273d4513afb368e14c60e877f3a018aef12071bf9 OP_CHECKSIG",
            "desc": "pk(042ff9afde2fdb6ae2e085185e767b9e4122368525d47c5eb7910e8ba9c15ba2e0da1d7940d71082a4bde9c10273d4513afb368e14c60e877f3a018aef12071bf9)#vf7aatgm",
            "hex": "41042ff9afde2fdb6ae2e085185e767b9e4122368525d47c5eb7910e8ba9c15ba2e0da1d7940d71082a4bde9c10273d4513afb368e14c60e877f3a018aef12071bf9ac",
            "type": "pubkey"
          }
        }
      ],
      "hex": "01000000010000000000000000000000000000000000000000000000000000000000000000ffffffff0804ffff001d02fa00ffffffff0100f2052a010000004341042ff9afde2fdb6ae2e085185e767b9e4122368525d47c5eb7910e8ba9c15ba2e0da1d7940d71082a4bde9c10273d4513afb368e14c60e877f3a018aef12071bf9ac00000000"
    }
  ]
}