{
  "hash": "00000000a55109f40d3248952445f823ecf316905693e0724e87e52a62d1ccda",
  "confirmations": 45812,
  "height": 7286,
  "version": 1,
  "versionHex": "00000001",
  "merkleroot": "17fd457b2b8d87775078ff962f50bf69945ac3e0a8a5dfa64a14b7fc84f0a7fb",
  "time": 1236937834,
  "mediantime": 1236932266,
  "nonce": 2694807847,
  "bits": "1d00ffff",
  "difficulty": 1,
  "chainwork": "00000000000000000000000000000000000000000000000000001c771c771c77",
  "nTx": 1,
  "previousblockhash": "00000000c1ce5aa35fb7732feb308969005173797b270b39790d32892eea7cff",
  "nextblockhash": "0000000072d663f7274a6232b84e45bbc9272d52e1a88901749b6f79531092ac",
  "strippedsize": 216,
  "size": 216,
  "weight": 864,
  "tx": [
    {
      "txid": "17fd457b2b8d87775078ff962f50bf69945ac3e0a8a5dfa64a14b7fc84f0a7fb",
      "hash": "17fd457b2b8d87775078ff962f50bf69945ac3e0a8a5dfa64a14b7fc84f0a7fb",
      "version": 1,
      "size": 135,
      "vsize": 135,
      "weight": 540,
      "locktime": 0,
      "vin": [
        {
          "coinbase": "04ffff001d021607",
          "sequence": 4294967295
        }
      ],
      "vout": [
        {
          "value": 50.0,
          "n": 0,
          "scriptPubKey": {
            "asm": "04a2e7b1dea21c7f0e30aaa4e968dd55eec443a0c3e9c51980c744c82edea18f4b23128842b5510eb3a772fdbfd26a9ad7d4a163fc4737fe01cec362c36bb1ddf2 OP_CHECKSIG",
            "desc": "pk(04a2e7b1dea21c7f0e30aaa4e968dd55eec443a0c3e9c51980c744c82edea18f4b23128842b5510eb3a772fdbfd26a9ad7d4a163fc4737fe01cec362c36bb1ddf2)#259c690c",
            "hex": "4104a2e7b1dea21c7f0e30aaa4e968dd55eec443a0c3e9c51980c744c82edea18f4b23128842b5510eb3a772fdbfd26a9ad7d4a163fc4737fe01cec362c36bb1ddf2ac",
            "type": "pubkey"
          }
        }
      ],
      "hex": "01000000010000000000000000000000000000000000000000000000000000000000000000ffffffff0804ffff001d021607ffffffff0100f2052a01000000434104a2e7b1dea21c7f0e30aaa4e968dd55eec443a0c3e9c51980c744c82edea18f4b23128842b5510eb3a772fdbfd26a9ad7d4a163fc4737fe01cec362c36bb1ddf2ac00000000"
    }
  ]
}