{
  "hash": "00000000ab44313c02d4f5d29fd7cc5364670194559520ed5ce54a4889526b4b",
  "confirmations": 49037,
  "height": 4061,
  "version": 1,
  "versionHex": "00000001",
  "merkleroot": "072e6ce424d4efa7982d99b037af391529e91a3215d542e1dc97cc7492a5b6a4",
  "time": 1234484398,
  "mediantime": 1234481879,
  "nonce": 4182367262,
  "bits": "1d00ffff",
  "difficulty": 1,
  "chainwork": "00000000000000000000000000000000000000000000000000000fde0fde0fde",
  "nTx": 1,
  "previousblockhash": "000000000d2c83ac675b8a9f3478215806d59a027b2ee0667069eca81141b2a0",
  "nextblockhash": "0000000082af2efb14069baca4956a8d6e07d14638aaa7631c4102614c372cc6",
  "strippedsize": 216,
  "size": 216,
  "weight": 864,
  "tx": [
    {
      "txid": "072e6ce424d4efa7982d99b037af391529e91a3215d542e1dc97cc7492a5b6a4",
      "hash": "072e6ce424d4efa7982d99b037af391529e91a3215d542e1dc97cc7492a5b6a4",
      "version": 1,
      "size": 135,
      "vsize": 135,
      "weight": 540,
      "locktime": 0,
      "vin": [
        {
          "coinbase": "04ffff001d025e05",
          "sequence": 4294967295
        }
      ],
      "vout": [
        {
          "value": 50.0,
          "n": 0,
          "scriptPubKey": {
            "asm": "0434f678732d68725bb46b3eea63473708188025bb414a3ebd3616402364edbe7d612f20872282551905c71c4dfcf564e9f50a24ea213066cac026029fc75edbf2 OP_CHECKSIG",
            "desc": "pk(0434f678732d68725bb46b3eea63473708188025bb414a3ebd3616402364edbe7d612f20872282551905c71c4dfcf564e9f50a24ea213066cac026029fc75edbf2)#qytf8gmt",
            "hex": "410434f678732d68725bb46b3eea63473708188025bb414a3ebd3616402364edbe7d612f20872282551905c71c4dfcf564e9f50a24ea213066cac026029fc75edbf2ac",
            "type": "pubkey"
          }
        }
      ],
      "hex": "01000000010000000000000000000000000000000000000000000000000000000000000000ffffffff0804ffff001d025e05ffffffff0100f2052a0100000043410434f678732d68725bb46b3eea63473708188025bb414a3ebd3616402364edbe7d612f20872282551905c71c4dfcf564e9f50a24ea213066cac026029fc75edbf2ac00000000"
    }
  ]
}