{
  "hash": "00000000b56a4f049ebbc4313090723ee73235accbb5dc53b72aa61a13b7b35d",
  "confirmations": 44233,
  "height": 8865,
  "version": 1,
  "versionHex": "00000001",
  "merkleroot": "ccfbeacb899edb57f80ca356c4e09e7147cc86f6dc56bcdc51857833c13a48e4",
  "time": 1238148467,
  "mediantime": 1238144021,
  "nonce": 168677731,
  "bits": "1d00ffff",
  "difficulty": 1,
  "chainwork": "000000000000000000000000000000000000000000000000000022a222a222a2",
  "nTx": 1,
  "previousblockhash": "00000000005ba4f850d0c3bc74a4bcdfa33f72f6becf62276b3a61f1e7ae9207",
  "nextblockhash": "00000000a308ba489aaf461365217e4ad97a38292c469a97fa34a0fd6b34e6a8",
  "strippedsize": 215,
  "size": 215,
  "weight": 860,
  "tx": [
    {
      "txid": "ccfbeacb899edb57f80ca356c4e09e7147cc86f6dc56bcdc51857833c13a48e4",
      "hash": "ccfbeacb899edb57f80ca356c4e09e7147cc86f6dc56bcdc51857833c13a48e4",
      "version": 1,
      "size": 134,
      "vsize": 134,
      "weight": 536,
      "locktime": 0,
      "vin": [
        {
          "coinbase": "04ffff001d015c",
          "sequence": 4294967295
        }
      ],
      "vout": [
        {
          "value": 50.0,
          "n": 0,
          "scriptPubKey": {
            "asm": "04f80c01346b4f86a5d129f9a8a9af9d392b83beb0e251395305e42ecea7022ec24a7996a89f4da13dd95bacb8c31ea4d21585c19cd9cd757231625066f6ebc45c OP_CHECKSIG",
            "desc": "pk(04f80c01346b4f86a5d129f9a8a9af9d392b83beb0e251395305e42ecea7022ec24a7996a89f4da13dd95bacb8c31ea4d21585c19cd9cd757231625066f6ebc45c)#fsj57xc7",
            "hex": "4104f80c01346b4f86a5d129f9a8a9af9d392b83beb0e251395305e42ecea7022ec24a7996a89f4da13dd95bacb8c31ea4d21585c19cd9cd757231625066f6ebc45cac",
            "type": "pubkey"
          }
        }
      ],
      "hex": "01000000010000000000000000000000000000000000000000000000000000000000000000ffffffff0704ffff001d015cffffffff0100f2052a01000000434104f80c01346b4f86a5d129f9a8a9af9d392b83beb0e251395305e42ecea7022ec24a7996a89f4da13dd95bacb8c31ea4d21585c19cd9cd757231625066f6ebc45cac00000000"
    }
  ]
}