{
  "hash": "00000000ed67353a39d14ae8a4991908892cb45b03965ed55330ac41294b5949",
  "confirmations": 44890,
  "height": 8208,
  "version": 1,
  "versionHex": "00000001",
  "merkleroot": "19b370184bc79b8c0c5ba1e5a39e20e06da0ef3a52f7172b62423d5915db0e52",
  "time": 1237610181,
  "mediantime": 1237607859,
  "nonce": 1104486427,
  "bits": "1d00ffff",
  "difficulty": 1,
  "chainwork": "0000000000000000000000000000000000000000000000000000201120112011",
  "nTx": 1,
  "previousblockhash": "000000001d8738aee722ee21cef23777c89abbb3a4fc4c5eb749fdd81189dac1",
  "nextblockhash": "000000006a51d284f0ea70af2bf905863887c908e718fe9bdfb5c1f98e6f0ca7",
  "strippedsize": 216,
  "size": 216,
  "weight": 864,
  "tx": [
    {
      "txid": "19b370184bc79b8c0c5ba1e5a39e20e06da0ef3a52f7172b62423d5915db0e52",
      "hash": "19b370184bc79b8c0c5ba1e5a39e20e06da0ef3a52f7172b62423d5915db0e52",
      "version": 1,
      "size": 135,
      "vsize": 135,
      "weight": 540,
      "locktime": 0,
      "vin": [
        {
          "coinbase": "04ffff001d02da02",
          "sequence": 4294967295
        }
      ],
      "vout": [
        {
          "value": 50.0,
          "n": 0,
          "scriptPubKey": {
            "asm": "041de86d03aacef1b5cec1b95b78a35c103b20d274a99dda251e5dd0d6b5c5d827b5e44a9b962ab8daa3c942ac74dd093d7a5a26e8c63a15cdcb422405d451b811 OP_CHECKSIG",
            "desc": "pk(041de86d03aacef1b5cec1b95b78a35c103b20d274a99dda251e5dd0d6b5c5d827b5e44a9b962ab8daa3c942ac74dd093d7a5a26e8c63a15cdcb422405d451b811)#2senuwjn",
            "hex": "41041de86d03aacef1b5cec1b95b78a35c103b20d274a99dda251e5dd0d6b5c5d827b5e44a9b962ab8daa3c942ac74dd093d7a5a26e8c63a15cdcb422405d451b811ac",
            "type": "pubkey"
          }
        }
      ],
      "hex": "01000000010000000000000000000000000000000000000000000000000000000000000000ffffffff0804ffff001d02da02ffffffff0100f2052a010000004341041de86d03aacef1b5cec1b95b78a35c103b20d274a99dda251e5dd0d6b5c5d827b5e44a9b962ab8daa3c942ac74dd093d7a5a26e8c63a15cdcb422405d451b811ac00000000"
    }
  ]
}