{
  "hash": "00000000feda8d3ff8f5ac9c9f3ba5f356ca182a909ad32a2ff4a60ee6e226d3",
  "confirmations": 49129,
  "height": 3969,
  "version": 1,
  "versionHex": "00000001",
  "merkleroot": "63f0e6982cd920ff2c173090f8d00818ad8a76d442a229da81b5628eb3824aa1",
  "time": 1234419303,
  "mediantime": 1234416299,
  "nonce": 4148058116,
  "bits": "1d00ffff",
  "difficulty": 1,
  "chainwork": "00000000000000000000000000000000000000000000000000000f820f820f82",
  "nTx": 1,
  "previousblockhash": "00000000fccfbb1f5dc4b8727578ac968b2faa2829e9a8fbf49dc4a1124cec6c",
  "nextblockhash": "000000006a8ab2599894c93fee1ec37de1125f0ae17cf4873f56a370b0458886",
  "strippedsize": 216,
  "size": 216,
  "weight": 864,
  "tx": [
    {
      "txid": "63f0e6982cd920ff2c173090f8d00818ad8a76d442a229da81b5628eb3824aa1",
      "hash": "63f0e6982cd920ff2c173090f8d00818ad8a76d442a229da81b5628eb3824aa1",
      "version": 1,
      "size": 135,
      "vsize": 135,
      "weight": 540,
      "locktime": 0,
      "vin": [
        {
          "coinbase": "04ffff001d02d603",
          "sequence": 4294967295
        }
      ],
      "vout": [
        {
          "value": 50.0,
          "n": 0,
          "scriptPubKey": {
            "asm": "04a2ef1d1fa94430556cdb22710db83423e5cecc10a6f2596a31acb33ff20b3f52fe0ec09184a5eddb983b16ffeedc2036a4bc8c8752ba1f98fbb7ef7b05ce4d6a OP_CHECKSIG",
            "desc": "pk(04a2ef1d1fa94430556cdb22710db83423e5cecc10a6f2596a31acb33ff20b3f52fe0ec09184a5eddb983b16ffeedc2036a4bc8c8752ba1f98fbb7ef7b05ce4d6a)#lg9cdh72",
            "hex": "4104a2ef1d1fa94430556cdb22710db83423e5cecc10a6f2596a31acb33ff20b3f52fe0ec09184a5eddb983b16ffeedc2036a4bc8c8752ba1f98fbb7ef7b05ce4d6aac",
            "type": "pubkey"
          }
        }
      ],
      "hex": "01000000010000000000000000000000000000000000000000000000000000000000000000ffffffff0804ffff001d02d603ffffffff0100f2052a01000000434104a2ef1d1fa94430556cdb22710db83423e5cecc10a6f2596a31acb33ff20b3f52fe0ec09184a5eddb983b16ffeedc2036a4bc8c8752ba1f98fbb7ef7b05ce4d6aac00000000"
    }
  ]
}