{
  "hash": "0000000055af85fb541bac9b94e0da5c06704adafe050186d64caf8330e6eb77",
  "confirmations": 52551,
  "height": 547,
  "version": 1,
  "versionHex": "00000001",
  "merkleroot": "bcf9cb402ec6a52f24f0bad81893163c391bda5d14e2598c36ce8537384c90d2",
  "time": 1232000330,
  "mediantime": 1231995860,
  "nonce": 3588796729,
  "bits": "1d00ffff",
  "difficulty": 1,
  "chainwork": "0000000000000000000000000000000000000000000000000000022402240224",
  "nTx": 1,
  "previousblockhash": "000000005a4ded781e667e06ceefafb71410b511fe0d5adc3e5a27ecbec34ae6",
  "nextblockhash": "00000000c2deb1dd86cbc700380541d6d7cebd18a6a7642849bc57919732d705",
  "strippedsize": 216,
  "size": 216,
  "weight": 864,
  "tx": [
    {
      "txid": "bcf9cb402ec6a52f24f0bad81893163c391bda5d14e2598c36ce8537384c90d2",
      "hash": "bcf9cb402ec6a52f24f0bad81893163c391bda5d14e2598c36ce8537384c90d2",
      "version": 1,
      "size": 135,
      "vsize": 135,
      "weight": 540,
      "locktime": 0,
      "vin": [
        {
          "coinbase": "04ffff001d029205",
          "sequence": 4294967295
        }
      ],
      "vout": [
        {
          "value": 50.0,
          "n": 0,
          "scriptPubKey": {
            "asm": "043ebb1849b12ad04c4f4c2532b1ae2f0acb52057ed952e28494ff4d0ded7e008c521fcb8dd4d8838805ce8cd0201223e7b5ee00363780c7288cd25c00c719226f OP_CHECKSIG",
            "desc": "pk(043ebb1849b12ad04c4f4c2532b1ae2f0acb52057ed952e28494ff4d0ded7e008c521fcb8dd4d8838805ce8cd0201223e7b5ee00363780c7288cd25c00c719226f)#kqzkaxjy",
            "hex": "41043ebb1849b12ad04c4f4c2532b1ae2f0acb52057ed952e28494ff4d0ded7e008c521fcb8dd4d8838805ce8cd0201223e7b5ee00363780c7288cd25c00c719226fac",
            "type": "pubkey"
          }
        }
      ],
      "hex": "01000000010000000000000000000000000000000000000000000000000000000000000000ffffffff0804ffff001d029205ffffffff0100f2052a010000004341043ebb1849b12ad04c4f4c2532b1ae2f0acb52057ed952e28494ff4d0ded7e008c521fcb8dd4d8838805ce8cd0201223e7b5ee00363780c7288cd25c00c719226fac00000000"
    }
  ]
}