{
  "hash": "000000003dd6c16a69dfbda332926bdb5f4c223fe804fc55346b1ae64f6c8513",
  "confirmations": 46224,
  "height": 6874,
  "version": 1,
  "versionHex": "00000001",
  "merkleroot": "4ee89302acc90f8d4a21a22836378e47faf39ec0fb07994e7e78a706717a6598",
  "time": 1236612785,
  "mediantime": 1236607955,
  "nonce": 634701869,
  "bits": "1d00ffff",
  "difficulty": 1,
  "chainwork": "00000000000000000000000000000000000000000000000000001adb1adb1adb",
  "nTx": 1,
  "previousblockhash": "00000000ad6361f79e31938dd028f4b87f60facd85f9cc8dde1ff2c9950ccf42",
  "nextblockhash": "00000000acfece9599f5bcaa4e596b52d12551aff9d5398a699f6dd4a0a56854",
  "strippedsize": 216,
  "size": 216,
  "weight": 864,
  "tx": [
    {
      "txid": "4ee89302acc90f8d4a21a22836378e47faf39ec0fb07994e7e78a706717a6598",
      "hash": "4ee89302acc90f8d4a21a22836378e47faf39ec0fb07994e7e78a706717a6598",
      "version": 1,
      "size": 135,
      "vsize": 135,
      "weight": 540,
      "locktime": 0,
      "vin": [
        {
          "coinbase": "04ffff001d02210a",
          "sequence": 4294967295
        }
      ],
      "vout": [
        {
          "value": 50.0,
          "n": 0,
          "scriptPubKey": {
            "asm": "0476c6fa4fd663768b4bb09b74128e25cb7bd4a34afe17af88cc7064ee4a739363ef6b5bc14c356709640c8ef5eadb2e9207d748f308cbbe3de5e3709f35faaf64 OP_CHECKSIG",
            "desc": "pk(0476c6fa4fd663768b4bb09b74128e25cb7bd4a34afe17af88cc7064ee4a739363ef6b5bc14c356709640c8ef5eadb2e9207d748f308cbbe3de5e3709f35faaf64)#senn56ne",
            "hex": "410476c6fa4fd663768b4bb09b74128e25cb7bd4a34afe17af88cc7064ee4a739363ef6b5bc14c356709640c8ef5eadb2e9207d748f308cbbe3de5e3709f35faaf64ac",
            "type": "pubkey"
          }
        }
      ],
      "hex": "01000000010000000000000000000000000000000000000000000000000000000000000000ffffffff0804ffff001d02210affffffff0100f2052a0100000043410476c6fa4fd663768b4bb09b74128e25cb7bd4a34afe17af88cc7064ee4a739363ef6b5bc14c356709640c8ef5eadb2e9207d748f308cbbe3de5e3709f35faaf64ac00000000"
    }
  ]
}