{
  "hash": "000000000033b4ee1cc40f05145b1a3987cca2473589e7e23082996e2fe7c899",
  "confirmations": 52376,
  "height": 722,
  "version": 1,
  "versionHex": "00000001",
  "merkleroot": "17e017e74707be1ef24ccdd7f15bc5edccbb407d455ff6307f373649caed12c6",
  "time": 1232127258,
  "mediantime": 1232122736,
  "nonce": 2475402808,
  "bits": "1d00ffff",
  "difficulty": 1,
  "chainwork": "000000000000000000000000000000000000000000000000000002d302d302d3",
  "nTx": 1,
  "previousblockhash": "000000005443178dfe42ea11ff3588d9b404c2584e886d3c0d798d4e9a67ae5a",
  "nextblockhash": "000000000452ee8a3bea263fc991f365968043fc5cdcbf581c88516f573355ee",
  "strippedsize": 215,
  "size": 215,
  "weight": 860,
  "tx": [
    {
      "txid": "17e017e74707be1ef24ccdd7f15bc5edccbb407d455ff6307f373649caed12c6",
      "hash": "17e017e74707be1ef24ccdd7f15bc5edccbb407d455ff6307f373649caed12c6",
      "version": 1,
      "size": 134,
      "vsize": 134,
      "weight": 536,
      "locktime": 0,
      "vin": [
        {
          "coinbase": "04ffff001d012e",
          "sequence": 4294967295
        }
      ],
      "vout": [
        {
          "value": 50.0,
          "n": 0,
          "scriptPubKey": {
            "asm": "04835f08e8eb44f30bb78ef62d20dcaeeb2c8a64c6ad638f1bb4a943fa1fd5d4a0219a7c65484e4b02c8ae8d8dfe29eb342cfd47841fa7b63717c802f989f5fd09 OP_CHECKSIG",
            "desc": "pk(04835f08e8eb44f30bb78ef62d20dcaeeb2c8a64c6ad638f1bb4a943fa1fd5d4a0219a7c65484e4b02c8ae8d8dfe29eb342cfd47841fa7b63717c802f989f5fd09)#slfxm2qk",
            "hex": "4104835f08e8eb44f30bb78ef62d20dcaeeb2c8a64c6ad638f1bb4a943fa1fd5d4a0219a7c65484e4b02c8ae8d8dfe29eb342cfd47841fa7b63717c802f989f5fd09ac",
            "type": "pubkey"
          }
        }
      ],
      "hex": "01000000010000000000000000000000000000000000000000000000000000000000000000ffffffff0704ffff001d012effffffff0100f2052a01000000434104835f08e8eb44f30bb78ef62d20dcaeeb2c8a64c6ad638f1bb4a943fa1fd5d4a0219a7c65484e4b02c8ae8d8dfe29eb342cfd47841fa7b63717c802f989f5fd09ac00000000"
    }
  ]
}