{
  "hash": "00000000874690df6c40179f473fbe73aca69963823cc6b886e250bae690466a",
  "confirmations": 52021,
  "height": 119,
  "version": 1,
  "versionHex": "00000001",
  "merkleroot": "3797c09006aaad367f7342e215820e499bfbb809f042c690fb7a71b8537c0868",
  "time": 1231674557,
  "mediantime": 1231671619,
  "nonce": 1766761990,
  "bits": "1d00ffff",
  "difficulty": 1,
  "chainwork": "0000000000000000000000000000000000000000000000000000007800780078",
  "nTx": 1,
  "previousblockhash": "0000000054584932c3ac880b5dab1d76043eeb5df437ef468f627791cb1541f3",
  "nextblockhash": "0000000068e1ce37e6d50d1e960255c00047d9c808146b77df2dc186ab1bc92a",
  "strippedsize": 216,
  "size": 216,
  "weight": 864,
  "tx": [
    {
      "txid": "3797c09006aaad367f7342e215820e499bfbb809f042c690fb7a71b8537c0868",
      "hash": "3797c09006aaad367f7342e215820e499bfbb809f042c690fb7a71b8537c0868",
      "version": 1,
      "size": 135,
      "vsize": 135,
      "weight": 540,
      "locktime": 0,
      "vin": [
        {
          "coinbase": "04ffff001d02c400",
          "sequence": 4294967295
        }
      ],
      "vout": [
        {
          "value": 50.0,
          "n": 0,
          "scriptPubKey": {
            "asm": "04a1e6391bf1c13349210f9cc74788d4f07ee5051d92a039436ca42bb607017ac0e773ab7c2f91541f57e8323e84c2a61f10b8d1fa7762417ba099a745224a8e06 OP_CHECKSIG",
            "desc": "pk(04a1e6391bf1c13349210f9cc74788d4f07ee5051d92a039436ca42bb607017ac0e773ab7c2f91541f57e8323e84c2a61f10b8d1fa7762417ba099a745224a8e06)#dvwwzfhy",
            "hex": "4104a1e6391bf1c13349210f9cc74788d4f07ee5051d92a039436ca42bb607017ac0e773ab7c2f91541f57e8323e84c2a61f10b8d1fa7762417ba099a745224a8e06ac",
            "type": "pubkey"
          }
        }
      ],
      "hex": "01000000010000000000000000000000000000000000000000000000000000000000000000ffffffff0804ffff001d02c400ffffffff0100f2052a01000000434104a1e6391bf1c13349210f9cc74788d4f07ee5051d92a039436ca42bb607017ac0e773ab7c2f91541f57e8323e84c2a61f10b8d1fa7762417ba099a745224a8e06ac00000000"
    }
  ]
}