{
  "hash": "000000003b2f4d7964d4786046cd595d8f7174dd503e354ee0bdde776d125625",
  "confirmations": 46611,
  "height": 6487,
  "version": 1,
  "versionHex": "00000001",
  "merkleroot": "0a5e5814435c46278c70e6252ea55b6b5fea6db38b6df97375645ed35699f6fe",
  "time": 1236320251,
  "mediantime": 1236317018,
  "nonce": 1407297048,
  "bits": "1d00ffff",
  "difficulty": 1,
  "chainwork": "0000000000000000000000000000000000000000000000000000195819581958",
  "nTx": 1,
  "previousblockhash": "00000000e71f13f1d27e643de3f7d7da9da6dff8dcff26702c4a682b243aa3dc",
  "nextblockhash": "000000003e05a51397427853324c21e9a1984bba8daafda81452adf1b89a5c63",
  "strippedsize": 216,
  "size": 216,
  "weight": 864,
  "tx": [
    {
      "txid": "0a5e5814435c46278c70e6252ea55b6b5fea6db38b6df97375645ed35699f6fe",
      "hash": "0a5e5814435c46278c70e6252ea55b6b5fea6db38b6df97375645ed35699f6fe",
      "version": 1,
      "size": 135,
      "vsize": 135,
      "weight": 540,
      "locktime": 0,
      "vin": [
        {
          "coinbase": "04ffff001d024d03",
          "sequence": 4294967295
        }
      ],
      "vout": [
        {
          "value": 50.0,
          "n": 0,
          "scriptPubKey": {
            "asm": "0418016423e8e4282ff1ddf9ee3cb79f46b294be49a2753f135528fd9c6723d126789b5d8c2488dce096834da64b7be942c36fe34c30ddd100564891aebb27c86c OP_CHECKSIG",
            "desc": "pk(0418016423e8e4282ff1ddf9ee3cb79f46b294be49a2753f135528fd9c6723d126789b5d8c2488dce096834da64b7be942c36fe34c30ddd100564891aebb27c86c)#zsf4jahm",
            "hex": "410418016423e8e4282ff1ddf9ee3cb79f46b294be49a2753f135528fd9c6723d126789b5d8c2488dce096834da64b7be942c36fe34c30ddd100564891aebb27c86cac",
            "type": "pubkey"
          }
        }
      ],
      "hex": "01000000010000000000000000000000000000000000000000000000000000000000000000ffffffff0804ffff001d024d03ffffffff0100f2052a0100000043410418016423e8e4282ff1ddf9ee3cb79f46b294be49a2753f135528fd9c6723d126789b5d8c2488dce096834da64b7be942c36fe34c30ddd100564891aebb27c86cac00000000"
    }
  ]
}