{
  "hash": "00000000d9fd29b707d54702c14547a384c3ed2e8ee0427e994d8901c5186fcd",
  "confirmations": 50641,
  "height": 2457,
  "version": 1,
  "versionHex": "00000001",
  "merkleroot": "7b56b287f412e1af294bd5327c1c6e432386c11dbb035d5696909d7eb20e3263",
  "time": 1233396932,
  "mediantime": 1233394600,
  "nonce": 86032302,
  "bits": "1d00ffff",
  "difficulty": 1,
  "chainwork": "0000000000000000000000000000000000000000000000000000099a099a099a",
  "nTx": 1,
  "previousblockhash": "0000000048510e76eb02fb23b43f6fdaf1f0758b7190d0181aedb170c84efb6a",
  "nextblockhash": "00000000c9c22e90d7a211af907d88630c48381fb7985a83d1cc1bf723f78205",
  "strippedsize": 216,
  "size": 216,
  "weight": 864,
  "tx": [
    {
      "txid": "7b56b287f412e1af294bd5327c1c6e432386c11dbb035d5696909d7eb20e3263",
      "hash": "7b56b287f412e1af294bd5327c1c6e432386c11dbb035d5696909d7eb20e3263",
      "version": 1,
      "size": 135,
      "vsize": 135,
      "weight": 540,
      "locktime": 0,
      "vin": [
        {
          "coinbase": "04ffff001d021202",
          "sequence": 4294967295
        }
      ],
      "vout": [
        {
          "value": 50.0,
          "n": 0,
          "scriptPubKey": {
            "asm": "049dd32f4f4c2fe4b4235b778764e561f438eaacb942c755b7e9f524f0834450480ce01a8bcd3fd86970de534790d767da683e07e95d552012d4a57bc2e4822320 OP_CHECKSIG",
            "desc": "pk(049dd32f4f4c2fe4b4235b778764e561f438eaacb942c755b7e9f524f0834450480ce01a8bcd3fd86970de534790d767da683e07e95d552012d4a57bc2e4822320)#jv32eqdg",
            "hex": "41049dd32f4f4c2fe4b4235b778764e561f438eaacb942c755b7e9f524f0834450480ce01a8bcd3fd86970de534790d767da683e07e95d552012d4a57bc2e4822320ac",
            "type": "pubkey"
          }
        }
      ],
      "hex": "01000000010000000000000000000000000000000000000000000000000000000000000000ffffffff0804ffff001d021202ffffffff0100f2052a010000004341049dd32f4f4c2fe4b4235b778764e561f438eaacb942c755b7e9f524f0834450480ce01a8bcd3fd86970de534790d767da683e07e95d552012d4a57bc2e4822320ac00000000"
    }
  ]
}