{
  "hash": "000000001704a08b0fc9d108a6f2b2cad455e5615fd3f0ed9e827093764ff8cc",
  "confirmations": 46125,
  "height": 6973,
  "version": 1,
  "versionHex": "00000001",
  "merkleroot": "78ad26f97b9f15205a0a0c8779f6f6e02d7b6530ff20c33e89d2aabe836f1216",
  "time": 1236695576,
  "mediantime": 1236692744,
  "nonce": 3907052851,
  "bits": "1d00ffff",
  "difficulty": 1,
  "chainwork": "00000000000000000000000000000000000000000000000000001b3e1b3e1b3e",
  "nTx": 1,
  "previousblockhash": "000000009c0a448008a09a3e3f32f0927bf3fff9dfb53f0a5ca63a0393844c61",
  "nextblockhash": "0000000083d7354495f32cedf2c906d176b085561786f46e7e9e161d04c0b628",
  "strippedsize": 216,
  "size": 216,
  "weight": 864,
  "tx": [
    {
      "txid": "78ad26f97b9f15205a0a0c8779f6f6e02d7b6530ff20c33e89d2aabe836f1216",
      "hash": "78ad26f97b9f15205a0a0c8779f6f6e02d7b6530ff20c33e89d2aabe836f1216",
      "version": 1,
      "size": 135,
      "vsize": 135,
      "weight": 540,
      "locktime": 0,
      "vin": [
        {
          "coinbase": "04ffff001d02c501",
          "sequence": 4294967295
        }
      ],
      "vout": [
        {
          "value": 50.0,
          "n": 0,
          "scriptPubKey": {
            "asm": "04deb0849f32884fc28037a6667ec38c3db240b86073443b5aba7955b0dc013bac9b272ce29212e58f02a8c3d6f26037e0e134ab56addcf68f1345392edeb77219 OP_CHECKSIG",
            "desc": "pk(04deb0849f32884fc28037a6667ec38c3db240b86073443b5aba7955b0dc013bac9b272ce29212e58f02a8c3d6f26037e0e134ab56addcf68f1345392edeb77219)#wasa0mf3",
            "hex": "4104deb0849f32884fc28037a6667ec38c3db240b86073443b5aba7955b0dc013bac9b272ce29212e58f02a8c3d6f26037e0e134ab56addcf68f1345392edeb77219ac",
            "type": "pubkey"
          }
        }
      ],
      "hex": "01000000010000000000000000000000000000000000000000000000000000000000000000ffffffff0804ffff001d02c501ffffffff0100f2052a01000000434104deb0849f32884fc28037a6667ec38c3db240b86073443b5aba7955b0dc013bac9b272ce29212e58f02a8c3d6f26037e0e134ab56addcf68f1345392edeb77219ac00000000"
    }
  ]
}