{
  "hash": "00000000a0b59cdb690a435633a8e533383e3de78b2d7605ec8eed2ece9b64e4",
  "confirmations": 51395,
  "height": 1703,
  "version": 1,
  "versionHex": "00000001",
  "merkleroot": "bd17fd68eff136556a33260155fda3e0840a04a7c53da2b6c74e57c7727f9a27",
  "time": 1232854459,
  "mediantime": 1232852525,
  "nonce": 2028549176,
  "bits": "1d00ffff",
  "difficulty": 1,
  "chainwork": "000000000000000000000000000000000000000000000000000006a806a806a8",
  "nTx": 1,
  "previousblockhash": "000000007dd71ae3fff47a7c60552dfd33b33250882f0d5d1751d7695681ba40",
  "nextblockhash": "00000000320e33f0755026d6eb0df394e8721c937b4528c8abcb49723026a794",
  "strippedsize": 216,
  "size": 216,
  "weight": 864,
  "tx": [
    {
      "txid": "bd17fd68eff136556a33260155fda3e0840a04a7c53da2b6c74e57c7727f9a27",
      "hash": "bd17fd68eff136556a33260155fda3e0840a04a7c53da2b6c74e57c7727f9a27",
      "version": 1,
      "size": 135,
      "vsize": 135,
      "weight": 540,
      "locktime": 0,
      "vin": [
        {
          "coinbase": "04ffff001d021503",
          "sequence": 4294967295
        }
      ],
      "vout": [
        {
          "value": 50.0,
          "n": 0,
          "scriptPubKey": {
            "asm": "040731a81db85eae3e4d30c3702e8171722544334cc803f35dac7184711c6727a09b585e0c95fa161c861f0aa52cc76602c4a4a4a95fe877b9df067a6e11d90ee6 OP_CHECKSIG",
            "desc": "pk(040731a81db85eae3e4d30c3702e8171722544334cc803f35dac7184711c6727a09b585e0c95fa161c861f0aa52cc76602c4a4a4a95fe877b9df067a6e11d90ee6)#59lfj927",
            "hex": "41040731a81db85eae3e4d30c3702e8171722544334cc803f35dac7184711c6727a09b585e0c95fa161c861f0aa52cc76602c4a4a4a95fe877b9df067a6e11d90ee6ac",
            "type": "pubkey"
          }
        }
      ],
      "hex": "01000000010000000000000000000000000000000000000000000000000000000000000000ffffffff0804ffff001d021503ffffffff0100f2052a010000004341040731a81db85eae3e4d30c3702e8171722544334cc803f35dac7184711c6727a09b585e0c95fa161c861f0aa52cc76602c4a4a4a95fe877b9df067a6e11d90ee6ac00000000"
    }
  ]
}