{
  "hash": "00000000dcb2953968350328c7e0198d4f1ccbf21df2896e6c131a207abcd2bb",
  "confirmations": 46908,
  "height": 6190,
  "version": 1,
  "versionHex": "00000001",
  "merkleroot": "efde72be700a99ec3f2d44dc45ecb7048b183064a67a82f3df66ffba6e694279",
  "time": 1236083606,
  "mediantime": 1236080034,
  "nonce": 45344044,
  "bits": "1d00ffff",
  "difficulty": 1,
  "chainwork": "0000000000000000000000000000000000000000000000000000182f182f182f",
  "nTx": 1,
  "previousblockhash": "00000000e01bc2b420a9005f6df58fe070e5227089b6cc7bfbfa34f5ec77c033",
  "nextblockhash": "0000000059be1d660bd064ff357d3bea51bd0fdcc18edd52a6d16dbd8524c6e3",
  "strippedsize": 215,
  "size": 215,
  "weight": 860,
  "tx": [
    {
      "txid": "efde72be700a99ec3f2d44dc45ecb7048b183064a67a82f3df66ffba6e694279",
      "hash": "efde72be700a99ec3f2d44dc45ecb7048b183064a67a82f3df66ffba6e694279",
      "version": 1,
      "size": 134,
      "vsize": 134,
      "weight": 536,
      "locktime": 0,
      "vin": [
        {
          "coinbase": "04ffff001d016c",
          "sequence": 4294967295
        }
      ],
      "vout": [
        {
          "value": 50.0,
          "n": 0,
          "scriptPubKey": {
            "asm": "0463627da612f48958992cc687a056cd2042fdf0016f77ace473096e3b1ebe476199627c233015e4927c2cdad553c7b65b58b9626f07d9b28c69c5c471f87d871c OP_CHECKSIG",
            "desc": "pk(0463627da612f48958992cc687a056cd2042fdf0016f77ace473096e3b1ebe476199627c233015e4927c2cdad553c7b65b58b9626f07d9b28c69c5c471f87d871c)#llcrkm7e",
            "hex": "410463627da612f48958992cc687a056cd2042fdf0016f77ace473096e3b1ebe476199627c233015e4927c2cdad553c7b65b58b9626f07d9b28c69c5c471f87d871cac",
            "type": "pubkey"
          }
        }
      ],
      "hex": "01000000010000000000000000000000000000000000000000000000000000000000000000ffffffff0704ffff001d016cffffffff0100f2052a0100000043410463627da612f48958992cc687a056cd2042fdf0016f77ace473096e3b1ebe476199627c233015e4927c2cdad553c7b65b58b9626f07d9b28c69c5c471f87d871cac00000000"
    }
  ]
}