{
  "hash": "00000000f5ae4cbc8185c894f38b43f5cc132b597e97a766b83422ccf50e3ec3",
  "confirmations": 45445,
  "height": 7653,
  "version": 1,
  "versionHex": "00000001",
  "merkleroot": "7dd450d4d667454d776b9f63301599439a4b247c83f8f4acddea39987e5b3ddc",
  "time": 1237203782,
  "mediantime": 1237202060,
  "nonce": 1634007586,
  "bits": "1d00ffff",
  "difficulty": 1,
  "chainwork": "00000000000000000000000000000000000000000000000000001de61de61de6",
  "nTx": 1,
  "previousblockhash": "000000000c6055a27271753713a01cf4d039bde8378e3ea82400a3467ecb4f89",
  "nextblockhash": "00000000a1700a066730f138d4d2a456ff10fdd5ddbf721d78dd767d8a4e4348",
  "strippedsize": 216,
  "size": 216,
  "weight": 864,
  "tx": [
    {
      "txid": "7dd450d4d667454d776b9f63301599439a4b247c83f8f4acddea39987e5b3ddc",
      "hash": "7dd450d4d667454d776b9f63301599439a4b247c83f8f4acddea39987e5b3ddc",
      "version": 1,
      "size": 135,
      "vsize": 135,
      "weight": 540,
      "locktime": 0,
      "vin": [
        {
          "coinbase": "04ffff001d025303",
          "sequence": 4294967295
        }
      ],
      "vout": [
        {
          "value": 50.0,
          "n": 0,
          "scriptPubKey": {
            "asm": "04b7fef1c83e0247af6063acc0f5578bd81806d4fbeb38be7e4cf3b42070f10a6bdcd7020da6f38bfce0c32aab0341bc92b65261040546b84c1840d55cf9939562 OP_CHECKSIG",
            "desc": "pk(04b7fef1c83e0247af6063acc0f5578bd81806d4fbeb38be7e4cf3b42070f10a6bdcd7020da6f38bfce0c32aab0341bc92b65261040546b84c1840d55cf9939562)#q23xg7ta",
            "hex": "4104b7fef1c83e0247af6063acc0f5578bd81806d4fbeb38be7e4cf3b42070f10a6bdcd7020da6f38bfce0c32aab0341bc92b65261040546b84c1840d55cf9939562ac",
            "type": "pubkey"
          }
        }
      ],
      "hex": "01000000010000000000000000000000000000000000000000000000000000000000000000ffffffff0804ffff001d025303ffffffff0100f2052a01000000434104b7fef1c83e0247af6063acc0f5578bd81806d4fbeb38be7e4cf3b42070f10a6bdcd7020da6f38bfce0c32aab0341bc92b65261040546b84c1840d55cf9939562ac00000000"
    }
  ]
}