{
  "hash": "00000000c19cb1fd730769e13f243bab5338163c044e5067e5b2a10e61159655",
  "confirmations": 45988,
  "height": 7110,
  "version": 1,
  "versionHex": "00000001",
  "merkleroot": "a1367bd0e51b304af3f2e1b7d482de5b80a3d9687d01296eb1bd2d37cf7c07f3",
  "time": 1236805653,
  "mediantime": 1236800760,
  "nonce": 3322366519,
  "bits": "1d00ffff",
  "difficulty": 1,
  "chainwork": "00000000000000000000000000000000000000000000000000001bc71bc71bc7",
  "nTx": 1,
  "previousblockhash": "000000002a555569598406c445badcbcf4af893f20d4c6d2c238802c53436511",
  "nextblockhash": "00000000fa07bb9eca2ba3e614471ed6cec04fb1e3d5d4c8ba6b90587a8ed7ab",
  "strippedsize": 216,
  "size": 216,
  "weight": 864,
  "tx": [
    {
      "txid": "a1367bd0e51b304af3f2e1b7d482de5b80a3d9687d01296eb1bd2d37cf7c07f3",
      "hash": "a1367bd0e51b304af3f2e1b7d482de5b80a3d9687d01296eb1bd2d37cf7c07f3",
      "version": 1,
      "size": 135,
      "vsize": 135,
      "weight": 540,
      "locktime": 0,
      "vin": [
        {
          "coinbase": "04ffff001d021e04",
          "sequence": 4294967295
        }
      ],
      "vout": [
        {
          "value": 50.0,
          "n": 0,
          "scriptPubKey": {
            "asm": "047b6365316068d74d1b4a9a592509d3fbd7255ad41174cf9fefeb5057d20a7bad74c6b4eb6f6bcb546108b06725e0d90cf29aa77bc3f0a4e76793c254e45d1e35 OP_CHECKSIG",
            "desc": "pk(047b6365316068d74d1b4a9a592509d3fbd7255ad41174cf9fefeb5057d20a7bad74c6b4eb6f6bcb546108b06725e0d90cf29aa77bc3f0a4e76793c254e45d1e35)#zzhl96w0",
            "hex": "41047b6365316068d74d1b4a9a592509d3fbd7255ad41174cf9fefeb5057d20a7bad74c6b4eb6f6bcb546108b06725e0d90cf29aa77bc3f0a4e76793c254e45d1e35ac",
            "type": "pubkey"
          }
        }
      ],
      "hex": "01000000010000000000000000000000000000000000000000000000000000000000000000ffffffff0804ffff001d021e04ffffffff0100f2052a010000004341047b6365316068d74d1b4a9a592509d3fbd7255ad41174cf9fefeb5057d20a7bad74c6b4eb6f6bcb546108b06725e0d90cf29aa77bc3f0a4e76793c254e45d1e35ac00000000"
    }
  ]
}