{
  "hash": "000000000943001d3fffff625b880567d5ca906d996f6908d1f8b461ac203403",
  "confirmations": 51670,
  "height": 1428,
  "version": 1,
  "versionHex": "00000001",
  "merkleroot": "2c60158374745cc547abe0bdbae9245347759df89e22b845c87fd6dace028ea1",
  "time": 1232736460,
  "mediantime": 1232734485,
  "nonce": 2934337331,
  "bits": "1d00ffff",
  "difficulty": 1,
  "chainwork": "0000000000000000000000000000000000000000000000000000059505950595",
  "nTx": 1,
  "previousblockhash": "00000000147473672b2be974c2fa0c56ef679a7a9a726457539bbdd30cb3b57a",
  "nextblockhash": "00000000edf28e8862df8c9c4d1496e89228c1472c67838e06198da1117ae40a",
  "strippedsize": 215,
  "size": 215,
  "weight": 860,
  "tx": [
    {
      "txid": "2c60158374745cc547abe0bdbae9245347759df89e22b845c87fd6dace028ea1",
      "hash": "2c60158374745cc547abe0bdbae9245347759df89e22b845c87fd6dace028ea1",
      "version": 1,
      "size": 134,
      "vsize": 134,
      "weight": 536,
      "locktime": 0,
      "vin": [
        {
          "coinbase": "04ffff001d0169",
          "sequence": 4294967295
        }
      ],
      "vout": [
        {
          "value": 50.0,
          "n": 0,
          "scriptPubKey": {
            "asm": "048bd54ab9c997a92b64f5ea703a5a8751eb913822c8603c20945485754a5f6b901427e1b27d4c7f6753a8a64e5c6da9e91b554d4702257576ba18744869e96e63 OP_CHECKSIG",
            "desc": "pk(048bd54ab9c997a92b64f5ea703a5a8751eb913822c8603c20945485754a5f6b901427e1b27d4c7f6753a8a64e5c6da9e91b554d4702257576ba18744869e96e63)#402llw3g",
            "hex": "41048bd54ab9c997a92b64f5ea703a5a8751eb913822c8603c20945485754a5f6b901427e1b27d4c7f6753a8a64e5c6da9e91b554d4702257576ba18744869e96e63ac",
            "type": "pubkey"
          }
        }
      ],
      "hex": "01000000010000000000000000000000000000000000000000000000000000000000000000ffffffff0704ffff001d0169ffffffff0100f2052a010000004341048bd54ab9c997a92b64f5ea703a5a8751eb913822c8603c20945485754a5f6b901427e1b27d4c7f6753a8a64e5c6da9e91b554d4702257576ba18744869e96e63ac00000000"
    }
  ]
}