{
  "hash": "00000000c326f5a6a64726709ddde82ba58a8fa78aa4b9b6fb6df3c23fa876f1",
  "confirmations": 46509,
  "height": 6589,
  "version": 1,
  "versionHex": "00000001",
  "merkleroot": "311378672a28c6979093dff2012c6ec4d6ac8d1c2695a76b452e1f6a9f5b5f84",
  "time": 1236396439,
  "mediantime": 1236391626,
  "nonce": 3915658033,
  "bits": "1d00ffff",
  "difficulty": 1,
  "chainwork": "000000000000000000000000000000000000000000000000000019be19be19be",
  "nTx": 1,
  "previousblockhash": "00000000004b536fdc5171605e51357a91b53f1cbdffa59448fa07c5ef07be47",
  "nextblockhash": "00000000ad3094bffd4b5f035d1f9fb4ec32fe786faef94d6557136540715199",
  "strippedsize": 216,
  "size": 216,
  "weight": 864,
  "tx": [
    {
      "txid": "311378672a28c6979093dff2012c6ec4d6ac8d1c2695a76b452e1f6a9f5b5f84",
      "hash": "311378672a28c6979093dff2012c6ec4d6ac8d1c2695a76b452e1f6a9f5b5f84",
      "version": 1,
      "size": 135,
      "vsize": 135,
      "weight": 540,
      "locktime": 0,
      "vin": [
        {
          "coinbase": "04ffff001d02f504",
          "sequence": 4294967295
        }
      ],
      "vout": [
        {
          "value": 50.0,
          "n": 0,
          "scriptPubKey": {
            "asm": "04ce67b69fa19c9079b0e1f3f6f940fbd8fde6e53bfd71b335632803dd7d0c74be7e37969a08f7a82560a7f005ab4bd0e94eb7079e32033a1b3a005aeb84be1a66 OP_CHECKSIG",
            "desc": "pk(04ce67b69fa19c9079b0e1f3f6f940fbd8fde6e53bfd71b335632803dd7d0c74be7e37969a08f7a82560a7f005ab4bd0e94eb7079e32033a1b3a005aeb84be1a66)#kgqkn3vd",
            "hex": "4104ce67b69fa19c9079b0e1f3f6f940fbd8fde6e53bfd71b335632803dd7d0c74be7e37969a08f7a82560a7f005ab4bd0e94eb7079e32033a1b3a005aeb84be1a66ac",
            "type": "pubkey"
          }
        }
      ],
      "hex": "01000000010000000000000000000000000000000000000000000000000000000000000000ffffffff0804ffff001d02f504ffffffff0100f2052a01000000434104ce67b69fa19c9079b0e1f3f6f940fbd8fde6e53bfd71b335632803dd7d0c74be7e37969a08f7a82560a7f005ab4bd0e94eb7079e32033a1b3a005aeb84be1a66ac00000000"
    }
  ]
}