{
  "hash": "00000000477a98f1bd6fe9c20c9a838564d58ae3ce92346b42f771d44a52abc2",
  "confirmations": 51593,
  "height": 1505,
  "version": 1,
  "versionHex": "00000001",
  "merkleroot": "c76c0154483a28fe13cd921378f9c7cbd911b83e546430c8f888eadadd90f351",
  "time": 1232770666,
  "mediantime": 1232768195,
  "nonce": 2893461780,
  "bits": "1d00ffff",
  "difficulty": 1,
  "chainwork": "000000000000000000000000000000000000000000000000000005e205e205e2",
  "nTx": 1,
  "previousblockhash": "00000000f046b243850d710ff764a552c10d8a9018a19bd0108e7a618c5ef2ee",
  "nextblockhash": "000000009b21280e899a42b1858cd2305835d548926eb7840653e040a536daf4",
  "strippedsize": 216,
  "size": 216,
  "weight": 864,
  "tx": [
    {
      "txid": "c76c0154483a28fe13cd921378f9c7cbd911b83e546430c8f888eadadd90f351",
      "hash": "c76c0154483a28fe13cd921378f9c7cbd911b83e546430c8f888eadadd90f351",
      "version": 1,
      "size": 135,
      "vsize": 135,
      "weight": 540,
      "locktime": 0,
      "vin": [
        {
          "coinbase": "04ffff001d023801",
          "sequence": 4294967295
        }
      ],
      "vout": [
        {
          "value": 50.0,
          "n": 0,
          "scriptPubKey": {
            "asm": "04e3293d8c7921c2aa548415b0adede6b382c3e168da4bbccfc0669f34494845408a048612549c4a1f3ef1b66f04182520473ea425b445067e75ed891d15292b7f OP_CHECKSIG",
            "desc": "pk(04e3293d8c7921c2aa548415b0adede6b382c3e168da4bbccfc0669f34494845408a048612549c4a1f3ef1b66f04182520473ea425b445067e75ed891d15292b7f)#hc6hhz97",
            "hex": "4104e3293d8c7921c2aa548415b0adede6b382c3e168da4bbccfc0669f34494845408a048612549c4a1f3ef1b66f04182520473ea425b445067e75ed891d15292b7fac",
            "type": "pubkey"
          }
        }
      ],
      "hex": "01000000010000000000000000000000000000000000000000000000000000000000000000ffffffff0804ffff001d023801ffffffff0100f2052a01000000434104e3293d8c7921c2aa548415b0adede6b382c3e168da4bbccfc0669f34494845408a048612549c4a1f3ef1b66f04182520473ea425b445067e75ed891d15292b7fac00000000"
    }
  ]
}