{
  "hash": "000000003488ac8d4788877b56beecf92915f25b7a788c1a7feb84e73cf67613",
  "confirmations": 46574,
  "height": 6524,
  "version": 1,
  "versionHex": "00000001",
  "merkleroot": "63003b045c27ce78a9483f3426faab9399b98b7a13e4cc7413836db123cf0af7",
  "time": 1236346477,
  "mediantime": 1236341814,
  "nonce": 3401495584,
  "bits": "1d00ffff",
  "difficulty": 1,
  "chainwork": "0000000000000000000000000000000000000000000000000000197d197d197d",
  "nTx": 1,
  "previousblockhash": "00000000c97af4753e18ca6e0d330227bd30aea82c010baa81b9cf1cfba54146",
  "nextblockhash": "000000005a4ed82552bf00045a7b80f73e9c0967dff8db3eb2d3c119e11adfd1",
  "strippedsize": 216,
  "size": 216,
  "weight": 864,
  "tx": [
    {
      "txid": "63003b045c27ce78a9483f3426faab9399b98b7a13e4cc7413836db123cf0af7",
      "hash": "63003b045c27ce78a9483f3426faab9399b98b7a13e4cc7413836db123cf0af7",
      "version": 1,
      "size": 135,
      "vsize": 135,
      "weight": 540,
      "locktime": 0,
      "vin": [
        {
          "coinbase": "04ffff001d021304",
          "sequence": 4294967295
        }
      ],
      "vout": [
        {
          "value": 50.0,
          "n": 0,
          "scriptPubKey": {
            "asm": "04b667f658cc94aba02eed3c095afaeb2aeb661f11ecefc3bc95e274840c913ecbe55e2179154afc53f7b9fcb079a9d355d533d0853d6baa3860beb03a255d5da3 OP_CHECKSIG",
            "desc": "pk(04b667f658cc94aba02eed3c095afaeb2aeb661f11ecefc3bc95e274840c913ecbe55e2179154afc53f7b9fcb079a9d355d533d0853d6baa3860beb03a255d5da3)#ssvzfskv",
            "hex": "4104b667f658cc94aba02eed3c095afaeb2aeb661f11ecefc3bc95e274840c913ecbe55e2179154afc53f7b9fcb079a9d355d533d0853d6baa3860beb03a255d5da3ac",
            "type": "pubkey"
          }
        }
      ],
      "hex": "01000000010000000000000000000000000000000000000000000000000000000000000000ffffffff0804ffff001d021304ffffffff0100f2052a01000000434104b667f658cc94aba02eed3c095afaeb2aeb661f11ecefc3bc95e274840c913ecbe55e2179154afc53f7b9fcb079a9d355d533d0853d6baa3860beb03a255d5da3ac00000000"
    }
  ]
}