{
  "hash": "000000006ed67fffd1fa1094b146ef28eb6666e707f89cae32cb8089e65f0de6",
  "confirmations": 49325,
  "height": 3773,
  "version": 1,
  "versionHex": "00000001",
  "merkleroot": "e6f42de3fce7ae0aebe104b8be5bbede9b3ea47e9d4bca376b4bb9d4b5432653",
  "time": 1234287468,
  "mediantime": 1234284895,
  "nonce": 35722345,
  "bits": "1d00ffff",
  "difficulty": 1,
  "chainwork": "00000000000000000000000000000000000000000000000000000ebe0ebe0ebe",
  "nTx": 1,
  "previousblockhash": "00000000be3b857e6a25ae86dd9ccca0bac407d6bdd7d2879dee9987b5dc1653",
  "nextblockhash": "00000000f02c723b9133020b3fd816c0ca646a17bc2a5142cf3b333e28f1db1a",
  "strippedsize": 215,
  "size": 215,
  "weight": 860,
  "tx": [
    {
      "txid": "e6f42de3fce7ae0aebe104b8be5bbede9b3ea47e9d4bca376b4bb9d4b5432653",
      "hash": "e6f42de3fce7ae0aebe104b8be5bbede9b3ea47e9d4bca376b4bb9d4b5432653",
      "version": 1,
      "size": 134,
      "vsize": 134,
      "weight": 536,
      "locktime": 0,
      "vin": [
        {
          "coinbase": "04ffff001d0106",
          "sequence": 4294967295
        }
      ],
      "vout": [
        {
          "value": 50.0,
          "n": 0,
          "scriptPubKey": {
            "asm": "04bc1ba87ca92f58be17b53d01e6b82ac10e4a5b79ce288cb1de78b2a0366a95120917496609eb7ae33b2c3a22a90c56f27e40ca1ff73a8e535d4ec8730be28ef0 OP_CHECKSIG",
            "desc": "pk(04bc1ba87ca92f58be17b53d01e6b82ac10e4a5b79ce288cb1de78b2a0366a95120917496609eb7ae33b2c3a22a90c56f27e40ca1ff73a8e535d4ec8730be28ef0)#4xwgxd5x",
            "hex": "4104bc1ba87ca92f58be17b53d01e6b82ac10e4a5b79ce288cb1de78b2a0366a95120917496609eb7ae33b2c3a22a90c56f27e40ca1ff73a8e535d4ec8730be28ef0ac",
            "type": "pubkey"
          }
        }
      ],
      "hex": "01000000010000000000000000000000000000000000000000000000000000000000000000ffffffff0704ffff001d0106ffffffff0100f2052a01000000434104bc1ba87ca92f58be17b53d01e6b82ac10e4a5b79ce288cb1de78b2a0366a95120917496609eb7ae33b2c3a22a90c56f27e40ca1ff73a8e535d4ec8730be28ef0ac00000000"
    }
  ]
}