{
  "hash": "00000000292caa61b5a0aae1528c4d1d629585b667f6a222020b638842a85f32",
  "confirmations": 50414,
  "height": 2684,
  "version": 1,
  "versionHex": "00000001",
  "merkleroot": "9fa5073a5c9ffae8b75cc51de6b3aa29ca00f2289884389098f0d780a6b7ba6e",
  "time": 1233552221,
  "mediantime": 1233547938,
  "nonce": 8894347,
  "bits": "1d00ffff",
  "difficulty": 1,
  "chainwork": "00000000000000000000000000000000000000000000000000000a7d0a7d0a7d",
  "nTx": 1,
  "previousblockhash": "000000002d843058f2fc99aeace4742b109010e09e99b42d08558af805a4a385",
  "nextblockhash": "000000006c4e83dbcb909960d95caaea9a823f304e4e7ca030c213c9b6a9a668",
  "strippedsize": 215,
  "size": 215,
  "weight": 860,
  "tx": [
    {
      "txid": "9fa5073a5c9ffae8b75cc51de6b3aa29ca00f2289884389098f0d780a6b7ba6e",
      "hash": "9fa5073a5c9ffae8b75cc51de6b3aa29ca00f2289884389098f0d780a6b7ba6e",
      "version": 1,
      "size": 134,
      "vsize": 134,
      "weight": 536,
      "locktime": 0,
      "vin": [
        {
          "coinbase": "04ffff001d015e",
          "sequence": 4294967295
        }
      ],
      "vout": [
        {
          "value": 50.0,
          "n": 0,
          "scriptPubKey": {
            "asm": "04ad501160ebd94a66a92260e0b6cf86ba1875551cd981f24ac31a74e033c1a2d05f3ed8009759c843da8ba1680286d1fb88826fc6252594808c0eaeab8381abc9 OP_CHECKSIG",
            "desc": "pk(04ad501160ebd94a66a92260e0b6cf86ba1875551cd981f24ac31a74e033c1a2d05f3ed8009759c843da8ba1680286d1fb88826fc6252594808c0eaeab8381abc9)#w7y5ncpp",
            "hex": "4104ad501160ebd94a66a92260e0b6cf86ba1875551cd981f24ac31a74e033c1a2d05f3ed8009759c843da8ba1680286d1fb88826fc6252594808c0eaeab8381abc9ac",
            "type": "pubkey"
          }
        }
      ],
      "hex": "01000000010000000000000000000000000000000000000000000000000000000000000000ffffffff0704ffff001d015effffffff0100f2052a01000000434104ad501160ebd94a66a92260e0b6cf86ba1875551cd981f24ac31a74e033c1a2d05f3ed8009759c843da8ba1680286d1fb88826fc6252594808c0eaeab8381abc9ac00000000"
    }
  ]
}