{
  "hash": "00000000f985ede57bfb30cf1ab942be3fe040abd6551830f7c7a3bbfed02174",
  "confirmations": 44916,
  "height": 8182,
  "version": 1,
  "versionHex": "00000001",
  "merkleroot": "8b9870e5b7d5ff714f2b57fd2fca5cad6c6bda3f23c20cddc8af5d393ecf284c",
  "time": 1237594363,
  "mediantime": 1237590923,
  "nonce": 2546579487,
  "bits": "1d00ffff",
  "difficulty": 1,
  "chainwork": "00000000000000000000000000000000000000000000000000001ff71ff71ff7",
  "nTx": 1,
  "previousblockhash": "000000001b56d9a8c00a289e21ece608739e3804b3459b334abcbff31e8c3f5a",
  "nextblockhash": "00000000600284b2ac8904389835976f3886256af7887f9643205f199e555877",
  "strippedsize": 216,
  "size": 216,
  "weight": 864,
  "tx": [
    {
      "txid": "8b9870e5b7d5ff714f2b57fd2fca5cad6c6bda3f23c20cddc8af5d393ecf284c",
      "hash": "8b9870e5b7d5ff714f2b57fd2fca5cad6c6bda3f23c20cddc8af5d393ecf284c",
      "version": 1,
      "size": 135,
      "vsize": 135,
      "weight": 540,
      "locktime": 0,
      "vin": [
        {
          "coinbase": "04ffff001d02ae02",
          "sequence": 4294967295
        }
      ],
      "vout": [
        {
          "value": 50.0,
          "n": 0,
          "scriptPubKey": {
            "asm": "044dfced21eb186208344bbf1b0258fdf90ddfe120139bcdee4fe5e8e0787a26a1ba635974b1fd01b5a221d990941dd5b607f421761978d147ee0afc51775210b8 OP_CHECKSIG",
            "desc": "pk(044dfced21eb186208344bbf1b0258fdf90ddfe120139bcdee4fe5e8e0787a26a1ba635974b1fd01b5a221d990941dd5b607f421761978d147ee0afc51775210b8)#u3uqw92f",
            "hex": "41044dfced21eb186208344bbf1b0258fdf90ddfe120139bcdee4fe5e8e0787a26a1ba635974b1fd01b5a221d990941dd5b607f421761978d147ee0afc51775210b8ac",
            "type": "pubkey"
          }
        }
      ],
      "hex": "01000000010000000000000000000000000000000000000000000000000000000000000000ffffffff0804ffff001d02ae02ffffffff0100f2052a010000004341044dfced21eb186208344bbf1b0258fdf90ddfe120139bcdee4fe5e8e0787a26a1ba635974b1fd01b5a221d990941dd5b607f421761978d147ee0afc51775210b8ac00000000"
    }
  ]
}