{
  "hash": "0000000041972e5277b5b27d91bf2661cbad02cbcaba2fcfe70512bb07676041",
  "confirmations": 44619,
  "height": 8479,
  "version": 1,
  "versionHex": "00000001",
  "merkleroot": "1459ab649ab050f2f3e33cd47122e9fd7d0ea8e1be6db6d2c561e52ae344ef3d",
  "time": 1237852768,
  "mediantime": 1237848045,
  "nonce": 1785872430,
  "bits": "1d00ffff",
  "difficulty": 1,
  "chainwork": "0000000000000000000000000000000000000000000000000000212021202120",
  "nTx": 1,
  "previousblockhash": "00000000c47e8c24b8c0fc198f9c3e45d722b6bb6fbab723640e2c429b19ae7e",
  "nextblockhash": "0000000061c6c683046cd91a002a8fd61ddd0ed4ca11667348b04fc50abc8db2",
  "strippedsize": 216,
  "size": 216,
  "weight": 864,
  "tx": [
    {
      "txid": "1459ab649ab050f2f3e33cd47122e9fd7d0ea8e1be6db6d2c561e52ae344ef3d",
      "hash": "1459ab649ab050f2f3e33cd47122e9fd7d0ea8e1be6db6d2c561e52ae344ef3d",
      "version": 1,
      "size": 135,
      "vsize": 135,
      "weight": 540,
      "locktime": 0,
      "vin": [
        {
          "coinbase": "04ffff001d024107",
          "sequence": 4294967295
        }
      ],
      "vout": [
        {
          "value": 50.0,
          "n": 0,
          "scriptPubKey": {
            "asm": "0440b23dbeae6217c0761af5ffd0c3bba7a8256f7c7187839b22ded7876a11bf9b3af3cd4dd8fdd3ec68ff28dcd8829a13e237c539485ed594dc98a2034c8751f5 OP_CHECKSIG",
            "desc": "pk(0440b23dbeae6217c0761af5ffd0c3bba7a8256f7c7187839b22ded7876a11bf9b3af3cd4dd8fdd3ec68ff28dcd8829a13e237c539485ed594dc98a2034c8751f5)#8uvrv2cy",
            "hex": "410440b23dbeae6217c0761af5ffd0c3bba7a8256f7c7187839b22ded7876a11bf9b3af3cd4dd8fdd3ec68ff28dcd8829a13e237c539485ed594dc98a2034c8751f5ac",
            "type": "pubkey"
          }
        }
      ],
      "hex": "01000000010000000000000000000000000000000000000000000000000000000000000000ffffffff0804ffff001d024107ffffffff0100f2052a0100000043410440b23dbeae6217c0761af5ffd0c3bba7a8256f7c7187839b22ded7876a11bf9b3af3cd4dd8fdd3ec68ff28dcd8829a13e237c539485ed594dc98a2034c8751f5ac00000000"
    }
  ]
}