{
  "hash": "0000000000f4560350f9ca6adfe15b05fd4d06389f32b7a3b7ec2fcc85fae341",
  "confirmations": 45447,
  "height": 7651,
  "version": 1,
  "versionHex": "00000001",
  "merkleroot": "cab7f2a79eddc5719bb8ce08865d98e5edfd13c74a07f5f1d01b12606843ad26",
  "time": 1237203246,
  "mediantime": 1237199853,
  "nonce": 10939900,
  "bits": "1d00ffff",
  "difficulty": 1,
  "chainwork": "00000000000000000000000000000000000000000000000000001de41de41de4",
  "nTx": 1,
  "previousblockhash": "00000000b5e5bdc399d6cc3b4312dd0ccd2c686663a7aa337647772473bf3570",
  "nextblockhash": "000000000c6055a27271753713a01cf4d039bde8378e3ea82400a3467ecb4f89",
  "strippedsize": 216,
  "size": 216,
  "weight": 864,
  "tx": [
    {
      "txid": "cab7f2a79eddc5719bb8ce08865d98e5edfd13c74a07f5f1d01b12606843ad26",
      "hash": "cab7f2a79eddc5719bb8ce08865d98e5edfd13c74a07f5f1d01b12606843ad26",
      "version": 1,
      "size": 135,
      "vsize": 135,
      "weight": 540,
      "locktime": 0,
      "vin": [
        {
          "coinbase": "04ffff001d025601",
          "sequence": 4294967295
        }
      ],
      "vout": [
        {
          "value": 50.0,
          "n": 0,
          "scriptPubKey": {
            "asm": "04630f03ccab242f302e641b580ccf9dfffa40c9369670bc8f99fd106c01c8cfa9f77b70e916ba19988626fe897ee0f19c3b85e6b2a7d7d252d107fa13f9b93d8a OP_CHECKSIG",
            "desc": "pk(04630f03ccab242f302e641b580ccf9dfffa40c9369670bc8f99fd106c01c8cfa9f77b70e916ba19988626fe897ee0f19c3b85e6b2a7d7d252d107fa13f9b93d8a)#y99mjwgw",
            "hex": "4104630f03ccab242f302e641b580ccf9dfffa40c9369670bc8f99fd106c01c8cfa9f77b70e916ba19988626fe897ee0f19c3b85e6b2a7d7d252d107fa13f9b93d8aac",
            "type": "pubkey"
          }
        }
      ],
      "hex": "01000000010000000000000000000000000000000000000000000000000000000000000000ffffffff0804ffff001d025601ffffffff0100f2052a01000000434104630f03ccab242f302e641b580ccf9dfffa40c9369670bc8f99fd106c01c8cfa9f77b70e916ba19988626fe897ee0f19c3b85e6b2a7d7d252d107fa13f9b93d8aac00000000"
    }
  ]
}