{
  "hash": "00000000b709637ba4f335f084ffa9687385450a7502fa22411bf813022c84bb",
  "confirmations": 47708,
  "height": 5390,
  "version": 1,
  "versionHex": "00000001",
  "merkleroot": "3a6f912f9e6d41cc23fe1cbbb0f849797a2de8a63f58ab42234f3a5afa2edee6",
  "time": 1235432692,
  "mediantime": 1235427257,
  "nonce": 7830060,
  "bits": "1d00ffff",
  "difficulty": 1,
  "chainwork": "0000000000000000000000000000000000000000000000000000150f150f150f",
  "nTx": 1,
  "previousblockhash": "0000000034f1e6ab1f1b6552354fe4484b7e1a01bfe6227dc24170ae0a3071f7",
  "nextblockhash": "0000000029f43c478ae858c7c74dde93566c7d96eef8d7ce5f06a9d9b0683448",
  "strippedsize": 216,
  "size": 216,
  "weight": 864,
  "tx": [
    {
      "txid": "3a6f912f9e6d41cc23fe1cbbb0f849797a2de8a63f58ab42234f3a5afa2edee6",
      "hash": "3a6f912f9e6d41cc23fe1cbbb0f849797a2de8a63f58ab42234f3a5afa2edee6",
      "version": 1,
      "size": 135,
      "vsize": 135,
      "weight": 540,
      "locktime": 0,
      "vin": [
        {
          "coinbase": "04ffff001d02ae00",
          "sequence": 4294967295
        }
      ],
      "vout": [
        {
          "value": 50.0,
          "n": 0,
          "scriptPubKey": {
            "asm": "04f2b6c612e4a2d50668fea7e9b321bccc7a6b02705d2ec450207e98c9ceea3f0c3f4854edae0fd9e5c55bde1ebbcf6412e318eb488c1891f016b95a7d9412ac87 OP_CHECKSIG",
            "desc": "pk(04f2b6c612e4a2d50668fea7e9b321bccc7a6b02705d2ec450207e98c9ceea3f0c3f4854edae0fd9e5c55bde1ebbcf6412e318eb488c1891f016b95a7d9412ac87)#v7gde0px",
            "hex": "4104f2b6c612e4a2d50668fea7e9b321bccc7a6b02705d2ec450207e98c9ceea3f0c3f4854edae0fd9e5c55bde1ebbcf6412e318eb488c1891f016b95a7d9412ac87ac",
            "type": "pubkey"
          }
        }
      ],
      "hex": "01000000010000000000000000000000000000000000000000000000000000000000000000ffffffff0804ffff001d02ae00ffffffff0100f2052a01000000434104f2b6c612e4a2d50668fea7e9b321bccc7a6b02705d2ec450207e98c9ceea3f0c3f4854edae0fd9e5c55bde1ebbcf6412e318eb488c1891f016b95a7d9412ac87ac00000000"
    }
  ]
}