{
  "hash": "0000000036bb59b475092498b2acaffb89d4da42940bea65419638e25a37ff07",
  "confirmations": 50110,
  "height": 2988,
  "version": 1,
  "versionHex": "00000001",
  "merkleroot": "60dad6be9a84f9abc2aa8234e223c1a3f5ecb098ee15c6565670dca0ad16dc77",
  "time": 1233753128,
  "mediantime": 1233750202,
  "nonce": 497699379,
  "bits": "1d00ffff",
  "difficulty": 1,
  "chainwork": "00000000000000000000000000000000000000000000000000000bad0bad0bad",
  "nTx": 1,
  "previousblockhash": "000000004648220d30d699f150e358923678b878a6800b5bfbe72119f9969447",
  "nextblockhash": "00000000255db9eba93d22c7b4beefe19c08289501ed42a1cfe3c470507f3139",
  "strippedsize": 216,
  "size": 216,
  "weight": 864,
  "tx": [
    {
      "txid": "60dad6be9a84f9abc2aa8234e223c1a3f5ecb098ee15c6565670dca0ad16dc77",
      "hash": "60dad6be9a84f9abc2aa8234e223c1a3f5ecb098ee15c6565670dca0ad16dc77",
      "version": 1,
      "size": 135,
      "vsize": 135,
      "weight": 540,
      "locktime": 0,
      "vin": [
        {
          "coinbase": "04ffff001d023b01",
          "sequence": 4294967295
        }
      ],
      "vout": [
        {
          "value": 50.0,
          "n": 0,
          "scriptPubKey": {
            "asm": "04de6f170ebf1dc42ffbda9ba23292718974214d06edabfe812d7d35105037ae1c4a39323a863bfaba79d5464bbc85a9561254298f37207c55bb40c2b50b0226d7 OP_CHECKSIG",
            "desc": "pk(04de6f170ebf1dc42ffbda9ba23292718974214d06edabfe812d7d35105037ae1c4a39323a863bfaba79d5464bbc85a9561254298f37207c55bb40c2b50b0226d7)#4cxpq6p6",
            "hex": "4104de6f170ebf1dc42ffbda9ba23292718974214d06edabfe812d7d35105037ae1c4a39323a863bfaba79d5464bbc85a9561254298f37207c55bb40c2b50b0226d7ac",
            "type": "pubkey"
          }
        }
      ],
      "hex": "01000000010000000000000000000000000000000000000000000000000000000000000000ffffffff0804ffff001d023b01ffffffff0100f2052a01000000434104de6f170ebf1dc42ffbda9ba23292718974214d06edabfe812d7d35105037ae1c4a39323a863bfaba79d5464bbc85a9561254298f37207c55bb40c2b50b0226d7ac00000000"
    }
  ]
}