{
  "hash": "000000000ffe966bd0cf881d3e0e96f0aceebc2a888e0f906fcb206b618f34f6",
  "confirmations": 46089,
  "height": 7009,
  "version": 1,
  "versionHex": "00000001",
  "merkleroot": "d4e3cb6414272d8121e9553739bc60e0b7ee7f4f6a805aba2f02a551cc903c2b",
  "time": 1236726051,
  "mediantime": 1236721524,
  "nonce": 1011253024,
  "bits": "1d00ffff",
  "difficulty": 1,
  "chainwork": "00000000000000000000000000000000000000000000000000001b621b621b62",
  "nTx": 1,
  "previousblockhash": "0000000006e019b125d0d3c80c1adb46bb8b6f5242967eda74904ccf68046766",
  "nextblockhash": "000000004b7d7f8bcb61b74b3bf6af5c34bd504224da9476522b94b05ae6043e",
  "strippedsize": 216,
  "size": 216,
  "weight": 864,
  "tx": [
    {
      "txid": "d4e3cb6414272d8121e9553739bc60e0b7ee7f4f6a805aba2f02a551cc903c2b",
      "hash": "d4e3cb6414272d8121e9553739bc60e0b7ee7f4f6a805aba2f02a551cc903c2b",
      "version": 1,
      "size": 135,
      "vsize": 135,
      "weight": 540,
      "locktime": 0,
      "vin": [
        {
          "coinbase": "04ffff001d027c02",
          "sequence": 4294967295
        }
      ],
      "vout": [
        {
          "value": 50.0,
          "n": 0,
          "scriptPubKey": {
            "asm": "04bcb48a0c97465a42a4c0b916f74ad3651310bea487dead02d1ce9bc4201aef535901f3b1627eb671dde0096d46666045e15499f895a9f4e05cc514119aabe046 OP_CHECKSIG",
            "desc": "pk(04bcb48a0c97465a42a4c0b916f74ad3651310bea487dead02d1ce9bc4201aef535901f3b1627eb671dde0096d46666045e15499f895a9f4e05cc514119aabe046)#dc9l7pww",
            "hex": "4104bcb48a0c97465a42a4c0b916f74ad3651310bea487dead02d1ce9bc4201aef535901f3b1627eb671dde0096d46666045e15499f895a9f4e05cc514119aabe046ac",
            "type": "pubkey"
          }
        }
      ],
      "hex": "01000000010000000000000000000000000000000000000000000000000000000000000000ffffffff0804ffff001d027c02ffffffff0100f2052a01000000434104bcb48a0c97465a42a4c0b916f74ad3651310bea487dead02d1ce9bc4201aef535901f3b1627eb671dde0096d46666045e15499f895a9f4e05cc514119aabe046ac00000000"
    }
  ]
}