{
  "hash": "0000000034513c8f15e871647ead42a924d597b5c9303e6aea529cf06ad302aa",
  "confirmations": 50795,
  "height": 2303,
  "version": 1,
  "versionHex": "00000001",
  "merkleroot": "cabc6481dee651e1e2ccf12516cc9d8a826b6faf7c077a1feccb2a9c344c9fa5",
  "time": 1233281887,
  "mediantime": 1233277983,
  "nonce": 2154603009,
  "bits": "1d00ffff",
  "difficulty": 1,
  "chainwork": "0000000000000000000000000000000000000000000000000000090009000900",
  "nTx": 1,
  "previousblockhash": "00000000c00a1d667be37a43eb5e5f2a409cc0a72d9f3fa89a42d41409cd5ba4",
  "nextblockhash": "0000000083a06109f41e330f5ccfba3c146cfa37496a821b05aebc7e40fa30d8",
  "strippedsize": 216,
  "size": 216,
  "weight": 864,
  "tx": [
    {
      "txid": "cabc6481dee651e1e2ccf12516cc9d8a826b6faf7c077a1feccb2a9c344c9fa5",
      "hash": "cabc6481dee651e1e2ccf12516cc9d8a826b6faf7c077a1feccb2a9c344c9fa5",
      "version": 1,
      "size": 135,
      "vsize": 135,
      "weight": 540,
      "locktime": 0,
      "vin": [
        {
          "coinbase": "04ffff001d02b401",
          "sequence": 4294967295
        }
      ],
      "vout": [
        {
          "value": 50.0,
          "n": 0,
          "scriptPubKey": {
            "asm": "04c089576153ca7b45b8a5f7c9d3e405108d385b69914b750bc00807b207fc0ddf305b383e8b5e4b0f8bfc3142a28f8004f61c98912f35592403294c4415593901 OP_CHECKSIG",
            "desc": "pk(04c089576153ca7b45b8a5f7c9d3e405108d385b69914b750bc00807b207fc0ddf305b383e8b5e4b0f8bfc3142a28f8004f61c98912f35592403294c4415593901)#2t80t242",
            "hex": "4104c089576153ca7b45b8a5f7c9d3e405108d385b69914b750bc00807b207fc0ddf305b383e8b5e4b0f8bfc3142a28f8004f61c98912f35592403294c4415593901ac",
            "type": "pubkey"
          }
        }
      ],
      "hex": "01000000010000000000000000000000000000000000000000000000000000000000000000ffffffff0804ffff001d02b401ffffffff0100f2052a01000000434104c089576153ca7b45b8a5f7c9d3e405108d385b69914b750bc00807b207fc0ddf305b383e8b5e4b0f8bfc3142a28f8004f61c98912f35592403294c4415593901ac00000000"
    }
  ]
}