{
  "hash": "0000000097f6a39d0e65f5d3b76083ffabc4312760f5b0d9bb16e72032cc1863",
  "confirmations": 44201,
  "height": 8897,
  "version": 1,
  "versionHex": "00000001",
  "merkleroot": "c1f5874de3e8a785965c6073588ff534143c3098da1e24cb5488cb77da706b07",
  "time": 1238176666,
  "mediantime": 1238171134,
  "nonce": 3304648732,
  "bits": "1d00ffff",
  "difficulty": 1,
  "chainwork": "000000000000000000000000000000000000000000000000000022c222c222c2",
  "nTx": 1,
  "previousblockhash": "00000000695bfd635ef616f7784ff80b9458fc2c967008241c356c1aba796fb3",
  "nextblockhash": "0000000070440a4fd1cd5dbbb22ff9df576f6e457ddee169b99103b696bc4ab4",
  "strippedsize": 216,
  "size": 216,
  "weight": 864,
  "tx": [
    {
      "txid": "c1f5874de3e8a785965c6073588ff534143c3098da1e24cb5488cb77da706b07",
      "hash": "c1f5874de3e8a785965c6073588ff534143c3098da1e24cb5488cb77da706b07",
      "version": 1,
      "size": 135,
      "vsize": 135,
      "weight": 540,
      "locktime": 0,
      "vin": [
        {
          "coinbase": "04ffff001d025904",
          "sequence": 4294967295
        }
      ],
      "vout": [
        {
          "value": 50.0,
          "n": 0,
          "scriptPubKey": {
            "asm": "041827c93a8e8507c5a8bcd1f42f5763b3c159c195d8a3481184dac8f93ce3dba9861a46c8ed9f9e6f93f9291b21044afcb6e3e95dc53791de0a824f5a59e18739 OP_CHECKSIG",
            "desc": "pk(041827c93a8e8507c5a8bcd1f42f5763b3c159c195d8a3481184dac8f93ce3dba9861a46c8ed9f9e6f93f9291b21044afcb6e3e95dc53791de0a824f5a59e18739)#wuf69wyp",
            "hex": "41041827c93a8e8507c5a8bcd1f42f5763b3c159c195d8a3481184dac8f93ce3dba9861a46c8ed9f9e6f93f9291b21044afcb6e3e95dc53791de0a824f5a59e18739ac",
            "type": "pubkey"
          }
        }
      ],
      "hex": "01000000010000000000000000000000000000000000000000000000000000000000000000ffffffff0804ffff001d025904ffffffff0100f2052a010000004341041827c93a8e8507c5a8bcd1f42f5763b3c159c195d8a3481184dac8f93ce3dba9861a46c8ed9f9e6f93f9291b21044afcb6e3e95dc53791de0a824f5a59e18739ac00000000"
    }
  ]
}