{
  "hash": "0000000010abb476c7bac26a22b8907f0299fa6a1486238b61b47d0370b6259d",
  "confirmations": 49807,
  "height": 3291,
  "version": 1,
  "versionHex": "00000001",
  "merkleroot": "986ec6cef1350ebf010cece0f5437fc6c1199236ca5ffcc47d870b2f251c7b73",
  "time": 1233965480,
  "mediantime": 1233961976,
  "nonce": 190739989,
  "bits": "1d00ffff",
  "difficulty": 1,
  "chainwork": "00000000000000000000000000000000000000000000000000000cdc0cdc0cdc",
  "nTx": 1,
  "previousblockhash": "0000000032450768c775c1ba0d5a64939d77b304553d46919061eac43a3d077f",
  "nextblockhash": "000000000e4523a52ec47847eb7bd92e9d2d2c535decd665807b577e62999b1e",
  "strippedsize": 216,
  "size": 216,
  "weight": 864,
  "tx": [
    {
      "txid": "986ec6cef1350ebf010cece0f5437fc6c1199236ca5ffcc47d870b2f251c7b73",
      "hash": "986ec6cef1350ebf010cece0f5437fc6c1199236ca5ffcc47d870b2f251c7b73",
      "version": 1,
      "size": 135,
      "vsize": 135,
      "weight": 540,
      "locktime": 0,
      "vin": [
        {
          "coinbase": "04ffff001d021f04",
          "sequence": 4294967295
        }
      ],
      "vout": [
        {
          "value": 50.0,
          "n": 0,
          "scriptPubKey": {
            "asm": "04e4dfd2ace9a5deab26170da9b98bfb1db24675793a2bfc1b3f306c65ab2ac9bf4dada80cdc01c1a54b824f56cb2dd46539228397916fd8f514ee7cc2679df083 OP_CHECKSIG",
            "desc": "pk(04e4dfd2ace9a5deab26170da9b98bfb1db24675793a2bfc1b3f306c65ab2ac9bf4dada80cdc01c1a54b824f56cb2dd46539228397916fd8f514ee7cc2679df083)#w9l5m2x5",
            "hex": "4104e4dfd2ace9a5deab26170da9b98bfb1db24675793a2bfc1b3f306c65ab2ac9bf4dada80cdc01c1a54b824f56cb2dd46539228397916fd8f514ee7cc2679df083ac",
            "type": "pubkey"
          }
        }
      ],
      "hex": "01000000010000000000000000000000000000000000000000000000000000000000000000ffffffff0804ffff001d021f04ffffffff0100f2052a01000000434104e4dfd2ace9a5deab26170da9b98bfb1db24675793a2bfc1b3f306c65ab2ac9bf4dada80cdc01c1a54b824f56cb2dd46539228397916fd8f514ee7cc2679df083ac00000000"
    }
  ]
}