{
  "hash": "000000006ece34627639ed4f61f50271c1728d7054aebc4125e94323d478de5e",
  "confirmations": 43935,
  "height": 9163,
  "version": 1,
  "versionHex": "00000001",
  "merkleroot": "4a81fb798dd84e7d96cf92188f5d1898a04ca1d1e0278c340fa32fdf773363a0",
  "time": 1238373286,
  "mediantime": 1238370187,
  "nonce": 1107019832,
  "bits": "1d00ffff",
  "difficulty": 1,
  "chainwork": "000000000000000000000000000000000000000000000000000023cc23cc23cc",
  "nTx": 1,
  "previousblockhash": "0000000013c1c955d8d14f7900f038967ed33183fb6dcd951e7c25447500e535",
  "nextblockhash": "00000000b9c5ea6944de09d7ce8fced015ecc0784884743ec09ecaae17cd7220",
  "strippedsize": 216,
  "size": 216,
  "weight": 864,
  "tx": [
    {
      "txid": "4a81fb798dd84e7d96cf92188f5d1898a04ca1d1e0278c340fa32fdf773363a0",
      "hash": "4a81fb798dd84e7d96cf92188f5d1898a04ca1d1e0278c340fa32fdf773363a0",
      "version": 1,
      "size": 135,
      "vsize": 135,
      "weight": 540,
      "locktime": 0,
      "vin": [
        {
          "coinbase": "04ffff001d029d09",
          "sequence": 4294967295
        }
      ],
      "vout": [
        {
          "value": 50.0,
          "n": 0,
          "scriptPubKey": {
            "asm": "04d02790a44aba5a954d21d68c381d0de3b6aeec2e14fc8cbffef7966e40852cf7ac2dabcf6953dbaea375f2921714adc3437743f790901992645e8339137fee7f OP_CHECKSIG",
            "desc": "pk(04d02790a44aba5a954d21d68c381d0de3b6aeec2e14fc8cbffef7966e40852cf7ac2dabcf6953dbaea375f2921714adc3437743f790901992645e8339137fee7f)#0utk69ut",
            "hex": "4104d02790a44aba5a954d21d68c381d0de3b6aeec2e14fc8cbffef7966e40852cf7ac2dabcf6953dbaea375f2921714adc3437743f790901992645e8339137fee7fac",
            "type": "pubkey"
          }
        }
      ],
      "hex": "01000000010000000000000000000000000000000000000000000000000000000000000000ffffffff0804ffff001d029d09ffffffff0100f2052a01000000434104d02790a44aba5a954d21d68c381d0de3b6aeec2e14fc8cbffef7966e40852cf7ac2dabcf6953dbaea375f2921714adc3437743f790901992645e8339137fee7fac00000000"
    }
  ]
}