{
  "hash": "00000000c340d2a0b9c5b5406605c42eaf07b5ed410db83b6b352458739ccc3d",
  "confirmations": 51730,
  "height": 1368,
  "version": 1,
  "versionHex": "00000001",
  "merkleroot": "012a2cf8d303ca428fbec87900a556e1d9b31fc7481a9c4c7a97ad37f2ccbc9f",
  "time": 1232656107,
  "mediantime": 1232653621,
  "nonce": 3213739544,
  "bits": "1d00ffff",
  "difficulty": 1,
  "chainwork": "0000000000000000000000000000000000000000000000000000055905590559",
  "nTx": 1,
  "previousblockhash": "00000000e76c0650088fa82ecfe07574cf4f938c5cc46eb6195dbb4f083a776c",
  "nextblockhash": "00000000de770fc335724bd3aadfc1a2172050a892d4379973c82fecdc974fa7",
  "strippedsize": 216,
  "size": 216,
  "weight": 864,
  "tx": [
    {
      "txid": "012a2cf8d303ca428fbec87900a556e1d9b31fc7481a9c4c7a97ad37f2ccbc9f",
      "hash": "012a2cf8d303ca428fbec87900a556e1d9b31fc7481a9c4c7a97ad37f2ccbc9f",
      "version": 1,
      "size": 135,
      "vsize": 135,
      "weight": 540,
      "locktime": 0,
      "vin": [
        {
          "coinbase": "04ffff001d028401",
          "sequence": 4294967295
        }
      ],
      "vout": [
        {
          "value": 50.0,
          "n": 0,
          "scriptPubKey": {
            "asm": "0413f7bb36347d0204f263fe23803e52e30893da5d9e5cb023af103d2dd4fa156ada6dc163e90d3e968602aca690189263d89db01765caf4d2e0df1685b25623d4 OP_CHECKSIG",
            "desc": "pk(0413f7bb36347d0204f263fe23803e52e30893da5d9e5cb023af103d2dd4fa156ada6dc163e90d3e968602aca690189263d89db01765caf4d2e0df1685b25623d4)#ea7cx2d9",
            "hex": "410413f7bb36347d0204f263fe23803e52e30893da5d9e5cb023af103d2dd4fa156ada6dc163e90d3e968602aca690189263d89db01765caf4d2e0df1685b25623d4ac",
            "type": "pubkey"
          }
        }
      ],
      "hex": "01000000010000000000000000000000000000000000000000000000000000000000000000ffffffff0804ffff001d028401ffffffff0100f2052a0100000043410413f7bb36347d0204f263fe23803e52e30893da5d9e5cb023af103d2dd4fa156ada6dc163e90d3e968602aca690189263d89db01765caf4d2e0df1685b25623d4ac00000000"
    }
  ]
}