{
  "hash": "00000000a38a77491d4f92644f9de9ab8c089dd65146dd9dfbe46a416eb08a21",
  "confirmations": 52234,
  "height": 864,
  "version": 1,
  "versionHex": "00000001",
  "merkleroot": "23e2ddcb0a75b0fb2f1321bf86e2b6050aee538cef8a42423b2c86ec45d8762a",
  "time": 1232243472,
  "mediantime": 1232238172,
  "nonce": 33365560,
  "bits": "1d00ffff",
  "difficulty": 1,
  "chainwork": "0000000000000000000000000000000000000000000000000000036103610361",
  "nTx": 1,
  "previousblockhash": "00000000bdc509334b7956b5da137759c024f6a1a35097f8a28ed425e9ae9909",
  "nextblockhash": "000000005ec265cdcd67bd76a48e73069972844c8e4be6aaff10d0fbc4e53a84",
  "strippedsize": 216,
  "size": 216,
  "weight": 864,
  "tx": [
    {
      "txid": "23e2ddcb0a75b0fb2f1321bf86e2b6050aee538cef8a42423b2c86ec45d8762a",
      "hash": "23e2ddcb0a75b0fb2f1321bf86e2b6050aee538cef8a42423b2c86ec45d8762a",
      "version": 1,
      "size": 135,
      "vsize": 135,
      "weight": 540,
      "locktime": 0,
      "vin": [
        {
          "coinbase": "04ffff001d02ca02",
          "sequence": 4294967295
        }
      ],
      "vout": [
        {
          "value": 50.0,
          "n": 0,
          "scriptPubKey": {
            "asm": "04e3f74a2229e9f754776e266b68f54247ecccc31f071b073d47db155eddab77b2ec51976b55e8a03895050e04282738e848504cfd31a5e94567ec3919b813dc12 OP_CHECKSIG",
            "desc": "pk(04e3f74a2229e9f754776e266b68f54247ecccc31f071b073d47db155eddab77b2ec51976b55e8a03895050e04282738e848504cfd31a5e94567ec3919b813dc12)#z8hwe6v3",
            "hex": "4104e3f74a2229e9f754776e266b68f54247ecccc31f071b073d47db155eddab77b2ec51976b55e8a03895050e04282738e848504cfd31a5e94567ec3919b813dc12ac",
            "type": "pubkey"
          }
        }
      ],
      "hex": "01000000010000000000000000000000000000000000000000000000000000000000000000ffffffff0804ffff001d02ca02ffffffff0100f2052a01000000434104e3f74a2229e9f754776e266b68f54247ecccc31f071b073d47db155eddab77b2ec51976b55e8a03895050e04282738e848504cfd31a5e94567ec3919b813dc12ac00000000"
    }
  ]
}