{
  "hash": "00000000327b1f1b3dcf06f2c09a64b3d7531a503c0f15cf32b3b73d8fb93a24",
  "confirmations": 44193,
  "height": 8905,
  "version": 1,
  "versionHex": "00000001",
  "merkleroot": "4d219789ee8255012d29b4fc735a8139623be7f328d409d069e8b580da78956a",
  "time": 1238183033,
  "mediantime": 1238178692,
  "nonce": 85140640,
  "bits": "1d00ffff",
  "difficulty": 1,
  "chainwork": "000000000000000000000000000000000000000000000000000022ca22ca22ca",
  "nTx": 1,
  "previousblockhash": "00000000607df3a786ddbe536beabae438e38b282f7bb2ee44facb82e7c331cf",
  "nextblockhash": "000000000a23d9816426df3bdd01c687abe91c34223151c44267f758e287f4f4",
  "strippedsize": 216,
  "size": 216,
  "weight": 864,
  "tx": [
    {
      "txid": "4d219789ee8255012d29b4fc735a8139623be7f328d409d069e8b580da78956a",
      "hash": "4d219789ee8255012d29b4fc735a8139623be7f328d409d069e8b580da78956a",
      "version": 1,
      "size": 135,
      "vsize": 135,
      "weight": 540,
      "locktime": 0,
      "vin": [
        {
          "coinbase": "04ffff001d02ce04",
          "sequence": 4294967295
        }
      ],
      "vout": [
        {
          "value": 50.0,
          "n": 0,
          "scriptPubKey": {
            "asm": "04ec4b6a9c6c5149cf6df73dd11d235b0f4e96f3369f55bbcaaee55ed9cfc247b092f312794d62dc015d12cdcf1dbe52d9a066c8f3644229380f84a94293f318f5 OP_CHECKSIG",
            "desc": "pk(04ec4b6a9c6c5149cf6df73dd11d235b0f4e96f3369f55bbcaaee55ed9cfc247b092f312794d62dc015d12cdcf1dbe52d9a066c8f3644229380f84a94293f318f5)#skqy38xn",
            "hex": "4104ec4b6a9c6c5149cf6df73dd11d235b0f4e96f3369f55bbcaaee55ed9cfc247b092f312794d62dc015d12cdcf1dbe52d9a066c8f3644229380f84a94293f318f5ac",
            "type": "pubkey"
          }
        }
      ],
      "hex": "01000000010000000000000000000000000000000000000000000000000000000000000000ffffffff0804ffff001d02ce04ffffffff0100f2052a01000000434104ec4b6a9c6c5149cf6df73dd11d235b0f4e96f3369f55bbcaaee55ed9cfc247b092f312794d62dc015d12cdcf1dbe52d9a066c8f3644229380f84a94293f318f5ac00000000"
    }
  ]
}