{
  "hash": "000000003224cd84d58e47966554a3799799cf2b46ff22e63ab1c106ee4c6e85",
  "confirmations": 50233,
  "height": 2865,
  "version": 1,
  "versionHex": "00000001",
  "merkleroot": "df37e7a35bfe8d1f659cf92d24dc09879b7a646f60989b2ace6cff5d6f04ed55",
  "time": 1233668501,
  "mediantime": 1233664875,
  "nonce": 124772757,
  "bits": "1d00ffff",
  "difficulty": 1,
  "chainwork": "00000000000000000000000000000000000000000000000000000b320b320b32",
  "nTx": 1,
  "previousblockhash": "00000000c8ef57c5b6e2186198e6a94bec3b6cd3d3b77b380611ef8c665f0429",
  "nextblockhash": "00000000350d428dc508d91c1716809c27bc9172d133608afdf00ffc8d7cefff",
  "strippedsize": 215,
  "size": 215,
  "weight": 860,
  "tx": [
    {
      "txid": "df37e7a35bfe8d1f659cf92d24dc09879b7a646f60989b2ace6cff5d6f04ed55",
      "hash": "df37e7a35bfe8d1f659cf92d24dc09879b7a646f60989b2ace6cff5d6f04ed55",
      "version": 1,
      "size": 134,
      "vsize": 134,
      "weight": 536,
      "locktime": 0,
      "vin": [
        {
          "coinbase": "04ffff001d0179",
          "sequence": 4294967295
        }
      ],
      "vout": [
        {
          "value": 50.0,
          "n": 0,
          "scriptPubKey": {
            "asm": "042532e8e39017a968cd2ce9873b1e4af5002062585e3ede2c07138a6dc85dd4fbb6b031c3e1ea27be500e6ef774494b1747055c70aae366bad300bf0f8cf304aa OP_CHECKSIG",
            "desc": "pk(042532e8e39017a968cd2ce9873b1e4af5002062585e3ede2c07138a6dc85dd4fbb6b031c3e1ea27be500e6ef774494b1747055c70aae366bad300bf0f8cf304aa)#0j838eyk",
            "hex": "41042532e8e39017a968cd2ce9873b1e4af5002062585e3ede2c07138a6dc85dd4fbb6b031c3e1ea27be500e6ef774494b1747055c70aae366bad300bf0f8cf304aaac",
            "type": "pubkey"
          }
        }
      ],
      "hex": "01000000010000000000000000000000000000000000000000000000000000000000000000ffffffff0704ffff001d0179ffffffff0100f2052a010000004341042532e8e39017a968cd2ce9873b1e4af5002062585e3ede2c07138a6dc85dd4fbb6b031c3e1ea27be500e6ef774494b1747055c70aae366bad300bf0f8cf304aaac00000000"
    }
  ]
}