{
  "hash": "0000000098487e634c1ca371e8ed656336983e8fb1a6836a1bb3e63d174182bf",
  "confirmations": 45219,
  "height": 7879,
  "version": 1,
  "versionHex": "00000001",
  "merkleroot": "a353f12523c409e3a62eb6230be3db27e4897de964665ab98c118759c42bc3fd",
  "time": 1237376784,
  "mediantime": 1237372330,
  "nonce": 3100925222,
  "bits": "1d00ffff",
  "difficulty": 1,
  "chainwork": "00000000000000000000000000000000000000000000000000001ec81ec81ec8",
  "nTx": 1,
  "previousblockhash": "00000000f2712c08fbe207228ca0c84887fa3ad29a92a526d09200a526542e69",
  "nextblockhash": "000000005648ebad9408c390f96dfae2ab036014ef4ab4001f0def471b83f049",
  "strippedsize": 216,
  "size": 216,
  "weight": 864,
  "tx": [
    {
      "txid": "a353f12523c409e3a62eb6230be3db27e4897de964665ab98c118759c42bc3fd",
      "hash": "a353f12523c409e3a62eb6230be3db27e4897de964665ab98c118759c42bc3fd",
      "version": 1,
      "size": 135,
      "vsize": 135,
      "weight": 540,
      "locktime": 0,
      "vin": [
        {
          "coinbase": "04ffff001d021d07",
          "sequence": 4294967295
        }
      ],
      "vout": [
        {
          "value": 50.0,
          "n": 0,
          "scriptPubKey": {
            "asm": "0433826683c388f1cf4752819c6c3cebc18b9bb603aa95f15cf030277d797fbb3b22337f499f4c89fd2ae4e51327c95321dfdd7a7dfd3f85863f99fefcf6457aaa OP_CHECKSIG",
            "desc": "pk(0433826683c388f1cf4752819c6c3cebc18b9bb603aa95f15cf030277d797fbb3b22337f499f4c89fd2ae4e51327c95321dfdd7a7dfd3f85863f99fefcf6457aaa)#jd9sehdm",
            "hex": "410433826683c388f1cf4752819c6c3cebc18b9bb603aa95f15cf030277d797fbb3b22337f499f4c89fd2ae4e51327c95321dfdd7a7dfd3f85863f99fefcf6457aaaac",
            "type": "pubkey"
          }
        }
      ],
      "hex": "01000000010000000000000000000000000000000000000000000000000000000000000000ffffffff0804ffff001d021d07ffffffff0100f2052a0100000043410433826683c388f1cf4752819c6c3cebc18b9bb603aa95f15cf030277d797fbb3b22337f499f4c89fd2ae4e51327c95321dfdd7a7dfd3f85863f99fefcf6457aaaac00000000"
    }
  ]
}