{
  "hash": "00000000de05c30563e3dd88926559b180df792fee1fe63f9b4d87504daffc20",
  "confirmations": 43695,
  "height": 9403,
  "version": 1,
  "versionHex": "00000001",
  "merkleroot": "fcc65db38338e0fb4d8914964efafe43e3c72a4d012806b453dbcef15fac9d8c",
  "time": 1238555549,
  "mediantime": 1238550491,
  "nonce": 289341171,
  "bits": "1d00ffff",
  "difficulty": 1,
  "chainwork": "000000000000000000000000000000000000000000000000000024bc24bc24bc",
  "nTx": 1,
  "previousblockhash": "0000000007ceec30862fd84b0aab7f69f396ab7efe405c4bdae0676f39204d47",
  "nextblockhash": "00000000671bd6f873976a5b9e2214457502de200d0b57211c9c66868fdb977a",
  "strippedsize": 216,
  "size": 216,
  "weight": 864,
  "tx": [
    {
      "txid": "fcc65db38338e0fb4d8914964efafe43e3c72a4d012806b453dbcef15fac9d8c",
      "hash": "fcc65db38338e0fb4d8914964efafe43e3c72a4d012806b453dbcef15fac9d8c",
      "version": 1,
      "size": 135,
      "vsize": 135,
      "weight": 540,
      "locktime": 0,
      "vin": [
        {
          "coinbase": "04ffff001d025e05",
          "sequence": 4294967295
        }
      ],
      "vout": [
        {
          "value": 50.0,
          "n": 0,
          "scriptPubKey": {
            "asm": "04437fb0a6c72466f16f136a34f020ebb492be7ae63a95d5a1074e6eef0639126d4dfd0e4bcd54bc64f839c6b01ab1b19493bdf4ae45489b8f0f84c07b064814a6 OP_CHECKSIG",
            "desc": "pk(04437fb0a6c72466f16f136a34f020ebb492be7ae63a95d5a1074e6eef0639126d4dfd0e4bcd54bc64f839c6b01ab1b19493bdf4ae45489b8f0f84c07b064814a6)#jgvmw8cn",
            "hex": "4104437fb0a6c72466f16f136a34f020ebb492be7ae63a95d5a1074e6eef0639126d4dfd0e4bcd54bc64f839c6b01ab1b19493bdf4ae45489b8f0f84c07b064814a6ac",
            "type": "pubkey"
          }
        }
      ],
      "hex": "01000000010000000000000000000000000000000000000000000000000000000000000000ffffffff0804ffff001d025e05ffffffff0100f2052a01000000434104437fb0a6c72466f16f136a34f020ebb492be7ae63a95d5a1074e6eef0639126d4dfd0e4bcd54bc64f839c6b01ab1b19493bdf4ae45489b8f0f84c07b064814a6ac00000000"
    }
  ]
}