{
  "hash": "0000000066356691a4353dd8bdc2c60da20d68ad34fff93d8839a133b2a6d42a",
  "confirmations": 52013,
  "height": 221,
  "version": 1,
  "versionHex": "00000001",
  "merkleroot": "67f445c708d28c16aeb6eaa81d7ccff29a0c39ff48c6d6298c9ff1e0b6899f07",
  "time": 1231770060,
  "mediantime": 1231764594,
  "nonce": 1772122369,
  "bits": "1d00ffff",
  "difficulty": 1,
  "chainwork": "000000000000000000000000000000000000000000000000000000de00de00de",
  "nTx": 2,
  "previousblockhash": "00000000b66ac539d2cdfebdd4720cb08603b48edec56cc07273c40b082b1d58",
  "nextblockhash": "000000004da68466ee873c7095c766baf62df93a16df579350e01e7f78911616",
  "strippedsize": 417,
  "size": 417,
  "weight": 1668,
  "tx": [
    {
      "txid": "264e7238ddc574d5d6ded85d77bfcb69d99a0de17dfcdef0b7e97d430c4f202d",
      "hash": "264e7238ddc574d5d6ded85d77bfcb69d99a0de17dfcdef0b7e97d430c4f202d",
      "version": 1,
      "size": 135,
      "vsize": 135,
      "weight": 540,
      "locktime": 0,
      "vin": [
        {
          "coinbase": "04ffff001d029e00",
          "sequence": 4294967295
        }
      ],
      "vout": [
        {
          "value": 50.0,
          "n": 0,
          "scriptPubKey": {
            "asm": "04b089ed9912db1edb2e7338154e2ba9c4eaac2ea1b9f95600005aac1fde07315ef3c16125cc387373232ac6fa6453f2046e317e2295321a58f244d6d2692d597e OP_CHECKSIG",
            "desc": "pk(04b089ed9912db1edb2e7338154e2ba9c4eaac2ea1b9f95600005aac1fde07315ef3c16125cc387373232ac6fa6453f2046e317e2295321a58f244d6d2692d597e)#v4s5d5lu",
            "hex": "4104b089ed9912db1edb2e7338154e2ba9c4eaac2ea1b9f95600005aac1fde07315ef3c16125cc387373232ac6fa6453f2046e317e2295321a58f244d6d2692d597eac",
            "type": "pubkey"
          }
        }
      ],
      "hex": "01000000010000000000000000000000000000000000000000000000000000000000000000ffffffff0804ffff001d029e00ffffffff0100f2052a01000000434104b089ed9912db1edb2e7338154e2ba9c4eaac2ea1b9f95600005aac1fde07315ef3c16125cc387373232ac6fa6453f2046e317e2295321a58f244d6d2692d597eac00000000"
    },
    {
      "txid": "298ca2045d174f8a158961806ffc4ef96fad02d71a6b84d9fa0491813a776160",
      "hash": "298ca2045d174f8a158961806ffc4ef96fad02d71a6b84d9fa0491813a776160",
      "version": 1,
      "size": 201,
      "vsize": 201,
      "weight": 804,
      "locktime": 0,
      "vin": [
        {
          "txid": "591e91f809d716912ca1d4a9295e70c3e78bab077683f79350f101da64588073",
          "vout": 0,
          "scriptSig": {
            "asm": "3046022100f493d504a670e6280bc76ee285accf2796fd6a630659d4fa55dccb793fc9346402210080ecfbe069101993eb01320bb1d6029c138b27835e20ad54c232c36ffe107863[ALL]",
            "hex": "493046022100f493d504a670e6280bc76ee285accf2796fd6a630659d4fa55dccb793fc9346402210080ecfbe069101993eb01320bb1d6029c138b27835e20ad54c232c36ffe10786301"
          },
          "sequence": 4294967295
        }
      ],
      "vout": [
        {
          "value": 1.0,
          "n": 0,
          "scriptPubKey": {
            "asm": "04ea0d6650c8305f1213a89c65fc8f4343a5dac8e985c869e51d3aa02879b57c60cff49fcb99314d02dfc612d654e4333150ef61fa569c1c66415602cae387baf7 OP_CHECKSIG",
            "desc": "pk(04ea0d6650c8305f1213a89c65fc8f4343a5dac8e985c869e51d3aa02879b57c60cff49fcb99314d02dfc612d654e4333150ef61fa569c1c66415602cae387baf7)#aqd9twp2",
            "hex": "4104ea0d6650c8305f1213a89c65fc8f4343a5dac8e985c869e51d3aa02879b57c60cff49fcb99314d02dfc612d654e4333150ef61fa569c1c66415602cae387baf7ac",
            "type": "pubkey"
          }
        }
      ],
      "fee": 0.0,
      "hex": "010000000173805864da01f15093f7837607ab8be7c3705e29a9d4a12c9116d709f8911e59000000004a493046022100f493d504a670e6280bc76ee285accf2796fd6a630659d4fa55dccb793fc9346402210080ecfbe069101993eb01320bb1d6029c138b27835e20ad54c232c36ffe10786301ffffffff0100e1f50500000000434104ea0d6650c8305f1213a89c65fc8f4343a5dac8e985c869e51d3aa02879b57c60cff49fcb99314d02dfc612d654e4333150ef61fa569c1c66415602cae387baf7ac00000000"
    }
  ]
}