{
  "hash": "00000000873b99a25f123d8b09a022b08d4a56a7b220f2b4ffce98c58f4e09bc",
  "confirmations": 43393,
  "height": 9705,
  "version": 1,
  "versionHex": "00000001",
  "merkleroot": "411fae4d34c9e45d355e0d4a6bf1ed732b51f60e362b918c1e1f8c26f184138d",
  "time": 1238781705,
  "mediantime": 1238777920,
  "nonce": 4122852409,
  "bits": "1d00ffff",
  "difficulty": 1,
  "chainwork": "000000000000000000000000000000000000000000000000000025ea25ea25ea",
  "nTx": 1,
  "previousblockhash": "00000000aa339ed7cfa279eb35e8ef16fee4f9f328c088f15d648d7ac4ed0a7e",
  "nextblockhash": "00000000da693e2626e038e5467c45d156ae8084285b09ac19b83d3b918a7b09",
  "strippedsize": 216,
  "size": 216,
  "weight": 864,
  "tx": [
    {
      "txid": "411fae4d34c9e45d355e0d4a6bf1ed732b51f60e362b918c1e1f8c26f184138d",
      "hash": "411fae4d34c9e45d355e0d4a6bf1ed732b51f60e362b918c1e1f8c26f184138d",
      "version": 1,
      "size": 135,
      "vsize": 135,
      "weight": 540,
      "locktime": 0,
      "vin": [
        {
          "coinbase": "04ffff001d028608",
          "sequence": 4294967295
        }
      ],
      "vout": [
        {
          "value": 50.0,
          "n": 0,
          "scriptPubKey": {
            "asm": "04cfd62b20b2441ea31cbc6779ccc468b84877c8781d68552e5515de1d08cf83e8ca2e7fd04adb39da12e07e4d4b9ee7c437fa6182156267c9d5a7a16888f11e95 OP_CHECKSIG",
            "desc": "pk(04cfd62b20b2441ea31cbc6779ccc468b84877c8781d68552e5515de1d08cf83e8ca2e7fd04adb39da12e07e4d4b9ee7c437fa6182156267c9d5a7a16888f11e95)#z4z55v3n",
            "hex": "4104cfd62b20b2441ea31cbc6779ccc468b84877c8781d68552e5515de1d08cf83e8ca2e7fd04adb39da12e07e4d4b9ee7c437fa6182156267c9d5a7a16888f11e95ac",
            "type": "pubkey"
          }
        }
      ],
      "hex": "01000000010000000000000000000000000000000000000000000000000000000000000000ffffffff0804ffff001d028608ffffffff0100f2052a01000000434104cfd62b20b2441ea31cbc6779ccc468b84877c8781d68552e5515de1d08cf83e8ca2e7fd04adb39da12e07e4d4b9ee7c437fa6182156267c9d5a7a16888f11e95ac00000000"
    }
  ]
}