{
  "hash": "00000000696b0f25ca63595ee901c059ca94ebb99ce16a84c421a8565f86c77a",
  "confirmations": 48168,
  "height": 4930,
  "version": 1,
  "versionHex": "00000001",
  "merkleroot": "f0e10d5bb31b182eb8d7509fd16490237345c3be2ad0a1376d3c5e9f5134ab0c",
  "time": 1235090852,
  "mediantime": 1235086346,
  "nonce": 33925770,
  "bits": "1d00ffff",
  "difficulty": 1,
  "chainwork": "0000000000000000000000000000000000000000000000000000134313431343",
  "nTx": 1,
  "previousblockhash": "00000000a0fa43da5b739b04bf5b561acab1e19617d28b334853101f59e0fc90",
  "nextblockhash": "00000000641e79528630c80390c83e2a9d70b0ae8c7d3d4c4091f73754eee564",
  "strippedsize": 216,
  "size": 216,
  "weight": 864,
  "tx": [
    {
      "txid": "f0e10d5bb31b182eb8d7509fd16490237345c3be2ad0a1376d3c5e9f5134ab0c",
      "hash": "f0e10d5bb31b182eb8d7509fd16490237345c3be2ad0a1376d3c5e9f5134ab0c",
      "version": 1,
      "size": 135,
      "vsize": 135,
      "weight": 540,
      "locktime": 0,
      "vin": [
        {
          "coinbase": "04ffff001d02be03",
          "sequence": 4294967295
        }
      ],
      "vout": [
        {
          "value": 50.0,
          "n": 0,
          "scriptPubKey": {
            "asm": "0495237ccc3df6bc8895d7a53b5c184b4f4c8e065ad068abad0f07f07e955cf148bd84ab8ed6186710fa1148efba4b1f1c863375c31fd1bbc625eaca651c1cb874 OP_CHECKSIG",
            "desc": "pk(0495237ccc3df6bc8895d7a53b5c184b4f4c8e065ad068abad0f07f07e955cf148bd84ab8ed6186710fa1148efba4b1f1c863375c31fd1bbc625eaca651c1cb874)#g9jp3v0m",
            "hex": "410495237ccc3df6bc8895d7a53b5c184b4f4c8e065ad068abad0f07f07e955cf148bd84ab8ed6186710fa1148efba4b1f1c863375c31fd1bbc625eaca651c1cb874ac",
            "type": "pubkey"
          }
        }
      ],
      "hex": "01000000010000000000000000000000000000000000000000000000000000000000000000ffffffff0804ffff001d02be03ffffffff0100f2052a0100000043410495237ccc3df6bc8895d7a53b5c184b4f4c8e065ad068abad0f07f07e955cf148bd84ab8ed6186710fa1148efba4b1f1c863375c31fd1bbc625eaca651c1cb874ac00000000"
    }
  ]
}