{
  "hash": "000000009c9a00e0b53d961b28f1a79245bea8b5835b10637e99dc22b2abd98f",
  "confirmations": 51017,
  "height": 2081,
  "version": 1,
  "versionHex": "00000001",
  "merkleroot": "e93e73b36ab32fb53d2638f26d5f77226c04c8ad539020df8bad18f8c5c9bdec",
  "time": 1233124789,
  "mediantime": 1233120156,
  "nonce": 3717056773,
  "bits": "1d00ffff",
  "difficulty": 1,
  "chainwork": "0000000000000000000000000000000000000000000000000000082208220822",
  "nTx": 1,
  "previousblockhash": "0000000056776041ebdc54bb829a88d4d6915793be1f08be507c4f7bcaf186d9",
  "nextblockhash": "0000000014c3bd382e733796a88b7e811f67e305bd9afe6733ceca8bd43e47b1",
  "strippedsize": 216,
  "size": 216,
  "weight": 864,
  "tx": [
    {
      "txid": "e93e73b36ab32fb53d2638f26d5f77226c04c8ad539020df8bad18f8c5c9bdec",
      "hash": "e93e73b36ab32fb53d2638f26d5f77226c04c8ad539020df8bad18f8c5c9bdec",
      "version": 1,
      "size": 135,
      "vsize": 135,
      "weight": 540,
      "locktime": 0,
      "vin": [
        {
          "coinbase": "04ffff001d026e03",
          "sequence": 4294967295
        }
      ],
      "vout": [
        {
          "value": 50.0,
          "n": 0,
          "scriptPubKey": {
            "asm": "0492ad0b9a6a8b5d063d2a48f68fa1a67f5abfb45518a81c7850d5c37adbc20c02df3b6a7073e1217446525e86bfe30b8b224f7fe06cb3fd7ac867a89ecce9aa4d OP_CHECKSIG",
            "desc": "pk(0492ad0b9a6a8b5d063d2a48f68fa1a67f5abfb45518a81c7850d5c37adbc20c02df3b6a7073e1217446525e86bfe30b8b224f7fe06cb3fd7ac867a89ecce9aa4d)#5fj6ktj4",
            "hex": "410492ad0b9a6a8b5d063d2a48f68fa1a67f5abfb45518a81c7850d5c37adbc20c02df3b6a7073e1217446525e86bfe30b8b224f7fe06cb3fd7ac867a89ecce9aa4dac",
            "type": "pubkey"
          }
        }
      ],
      "hex": "01000000010000000000000000000000000000000000000000000000000000000000000000ffffffff0804ffff001d026e03ffffffff0100f2052a0100000043410492ad0b9a6a8b5d063d2a48f68fa1a67f5abfb45518a81c7850d5c37adbc20c02df3b6a7073e1217446525e86bfe30b8b224f7fe06cb3fd7ac867a89ecce9aa4dac00000000"
    }
  ]
}