{
  "hash": "00000000621d217b83af87dcb7814936aa60bebaa1af67f6434944bf78a0fbf0",
  "confirmations": 50761,
  "height": 2337,
  "version": 1,
  "versionHex": "00000001",
  "merkleroot": "1e5bf6248dfe08e817f3f5f4222982ecddb21630125c8ae1160ed8ff240eeb68",
  "time": 1233307475,
  "mediantime": 1233302764,
  "nonce": 2505546289,
  "bits": "1d00ffff",
  "difficulty": 1,
  "chainwork": "0000000000000000000000000000000000000000000000000000092209220922",
  "nTx": 1,
  "previousblockhash": "00000000fce4189472e39f5ddb9d08d00b9f4004e2d1e962b93e0e4bdc4e3d7b",
  "nextblockhash": "0000000077972a815618cc4c5070715be0dd2af487410e9a381b6e96d96fda16",
  "strippedsize": 216,
  "size": 216,
  "weight": 864,
  "tx": [
    {
      "txid": "1e5bf6248dfe08e817f3f5f4222982ecddb21630125c8ae1160ed8ff240eeb68",
      "hash": "1e5bf6248dfe08e817f3f5f4222982ecddb21630125c8ae1160ed8ff240eeb68",
      "version": 1,
      "size": 135,
      "vsize": 135,
      "weight": 540,
      "locktime": 0,
      "vin": [
        {
          "coinbase": "04ffff001d026c02",
          "sequence": 4294967295
        }
      ],
      "vout": [
        {
          "value": 50.0,
          "n": 0,
          "scriptPubKey": {
            "asm": "044fc397a979ad07209c81b4fa950e5770f1cc151d9604154cf38b54484bf20bc3e8be053fc212aebb3f15bb206a1fda51ae7bf1b900284012d78a620aaabe1e50 OP_CHECKSIG",
            "desc": "pk(044fc397a979ad07209c81b4fa950e5770f1cc151d9604154cf38b54484bf20bc3e8be053fc212aebb3f15bb206a1fda51ae7bf1b900284012d78a620aaabe1e50)#zv9t23rf",
            "hex": "41044fc397a979ad07209c81b4fa950e5770f1cc151d9604154cf38b54484bf20bc3e8be053fc212aebb3f15bb206a1fda51ae7bf1b900284012d78a620aaabe1e50ac",
            "type": "pubkey"
          }
        }
      ],
      "hex": "01000000010000000000000000000000000000000000000000000000000000000000000000ffffffff0804ffff001d026c02ffffffff0100f2052a010000004341044fc397a979ad07209c81b4fa950e5770f1cc151d9604154cf38b54484bf20bc3e8be053fc212aebb3f15bb206a1fda51ae7bf1b900284012d78a620aaabe1e50ac00000000"
    }
  ]
}