{
  "hash": "00000000f650c21563c0dba2bad638a0a0723d33638a7114414d18fa05fe2335",
  "confirmations": 50679,
  "height": 2419,
  "version": 1,
  "versionHex": "00000001",
  "merkleroot": "e8e3f3a6ebe32cfb8b6a41de091cc1373e32a3b7a12e494695b19661b519de9a",
  "time": 1233369789,
  "mediantime": 1233366107,
  "nonce": 65667849,
  "bits": "1d00ffff",
  "difficulty": 1,
  "chainwork": "0000000000000000000000000000000000000000000000000000097409740974",
  "nTx": 1,
  "previousblockhash": "000000001c77c4cc9a7489390e942b5180a7a604309de003ad53d79813699dad",
  "nextblockhash": "00000000c590a1a09c8f579c04a50acef9a81a8a1bf1f026779be4d26a48d6ab",
  "strippedsize": 215,
  "size": 215,
  "weight": 860,
  "tx": [
    {
      "txid": "e8e3f3a6ebe32cfb8b6a41de091cc1373e32a3b7a12e494695b19661b519de9a",
      "hash": "e8e3f3a6ebe32cfb8b6a41de091cc1373e32a3b7a12e494695b19661b519de9a",
      "version": 1,
      "size": 134,
      "vsize": 134,
      "weight": 536,
      "locktime": 0,
      "vin": [
        {
          "coinbase": "04ffff001d010c",
          "sequence": 4294967295
        }
      ],
      "vout": [
        {
          "value": 50.0,
          "n": 0,
          "scriptPubKey": {
            "asm": "04380126e05661eb5442ece3dfbaa9165b112da9be6b523a168c9a6f9783e7295885c4de550a9cb4735429089f815c9baa13e32f1bf5dd07cdeafa51b32fab79b8 OP_CHECKSIG",
            "desc": "pk(04380126e05661eb5442ece3dfbaa9165b112da9be6b523a168c9a6f9783e7295885c4de550a9cb4735429089f815c9baa13e32f1bf5dd07cdeafa51b32fab79b8)#vv2fjf4s",
            "hex": "4104380126e05661eb5442ece3dfbaa9165b112da9be6b523a168c9a6f9783e7295885c4de550a9cb4735429089f815c9baa13e32f1bf5dd07cdeafa51b32fab79b8ac",
            "type": "pubkey"
          }
        }
      ],
      "hex": "01000000010000000000000000000000000000000000000000000000000000000000000000ffffffff0704ffff001d010cffffffff0100f2052a01000000434104380126e05661eb5442ece3dfbaa9165b112da9be6b523a168c9a6f9783e7295885c4de550a9cb4735429089f815c9baa13e32f1bf5dd07cdeafa51b32fab79b8ac00000000"
    }
  ]
}