{
  "hash": "00000000b01260abe5a6b9f8a300e8312032fcbe3caec6f68aed27a1fe4278ba",
  "confirmations": 44341,
  "height": 8757,
  "version": 1,
  "versionHex": "00000001",
  "merkleroot": "fde86aa969001892796f123536ae0c9ec972d956bf1c6988d840109223feec91",
  "time": 1238066320,
  "mediantime": 1238060850,
  "nonce": 3203033886,
  "bits": "1d00ffff",
  "difficulty": 1,
  "chainwork": "0000000000000000000000000000000000000000000000000000223622362236",
  "nTx": 1,
  "previousblockhash": "00000000b367d60936957ad2e4000240e663fbf225145aa4308f9f951600c559",
  "nextblockhash": "000000001e55fdab74acc0278ec428443553ac814df4bfeb6ea548195ece6b50",
  "strippedsize": 216,
  "size": 216,
  "weight": 864,
  "tx": [
    {
      "txid": "fde86aa969001892796f123536ae0c9ec972d956bf1c6988d840109223feec91",
      "hash": "fde86aa969001892796f123536ae0c9ec972d956bf1c6988d840109223feec91",
      "version": 1,
      "size": 135,
      "vsize": 135,
      "weight": 540,
      "locktime": 0,
      "vin": [
        {
          "coinbase": "04ffff001d02e201",
          "sequence": 4294967295
        }
      ],
      "vout": [
        {
          "value": 50.0,
          "n": 0,
          "scriptPubKey": {
            "asm": "04c175edf8c335dbdee725fb8ec99f1f05a606177f7f0d3de8812c73f178722aa439cae847e4c3743c3a8413cf9862119e5d7bf5673ac970360b7715d9c5d5dc67 OP_CHECKSIG",
            "desc": "pk(04c175edf8c335dbdee725fb8ec99f1f05a606177f7f0d3de8812c73f178722aa439cae847e4c3743c3a8413cf9862119e5d7bf5673ac970360b7715d9c5d5dc67)#nlf8ferh",
            "hex": "4104c175edf8c335dbdee725fb8ec99f1f05a606177f7f0d3de8812c73f178722aa439cae847e4c3743c3a8413cf9862119e5d7bf5673ac970360b7715d9c5d5dc67ac",
            "type": "pubkey"
          }
        }
      ],
      "hex": "01000000010000000000000000000000000000000000000000000000000000000000000000ffffffff0804ffff001d02e201ffffffff0100f2052a01000000434104c175edf8c335dbdee725fb8ec99f1f05a606177f7f0d3de8812c73f178722aa439cae847e4c3743c3a8413cf9862119e5d7bf5673ac970360b7715d9c5d5dc67ac00000000"
    }
  ]
}