{
  "hash": "000000006e8d376834398b7963042cf2d8764860457573c1bb54fc8723a35a6d",
  "confirmations": 52067,
  "height": 1031,
  "version": 1,
  "versionHex": "00000001",
  "merkleroot": "295517df651e2092d6e3e810a1f83a1252599a28cb5d13156398385a3b269bb2",
  "time": 1232370432,
  "mediantime": 1232368368,
  "nonce": 30480479,
  "bits": "1d00ffff",
  "difficulty": 1,
  "chainwork": "0000000000000000000000000000000000000000000000000000040804080408",
  "nTx": 1,
  "previousblockhash": "00000000f10051ec4605c41b0ce790793b794d490aadf9c9a5a2c09f717737b5",
  "nextblockhash": "000000001c1791a1ffa49c32784da7c51b77c9c3ea1c4484aebe8627104b93f8",
  "strippedsize": 215,
  "size": 215,
  "weight": 860,
  "tx": [
    {
      "txid": "295517df651e2092d6e3e810a1f83a1252599a28cb5d13156398385a3b269bb2",
      "hash": "295517df651e2092d6e3e810a1f83a1252599a28cb5d13156398385a3b269bb2",
      "version": 1,
      "size": 134,
      "vsize": 134,
      "weight": 536,
      "locktime": 0,
      "vin": [
        {
          "coinbase": "04ffff001d0159",
          "sequence": 4294967295
        }
      ],
      "vout": [
        {
          "value": 50.0,
          "n": 0,
          "scriptPubKey": {
            "asm": "0480ebded438bdb3090348a6d3625d8a700c2d1fec732ca4ef9848a88fcc49c8fe808ec5e0c35bb00affdb72a320f658147c5b4f6a8c46e33843ef643cfa8c328f OP_CHECKSIG",
            "desc": "pk(0480ebded438bdb3090348a6d3625d8a700c2d1fec732ca4ef9848a88fcc49c8fe808ec5e0c35bb00affdb72a320f658147c5b4f6a8c46e33843ef643cfa8c328f)#e2hfax02",
            "hex": "410480ebded438bdb3090348a6d3625d8a700c2d1fec732ca4ef9848a88fcc49c8fe808ec5e0c35bb00affdb72a320f658147c5b4f6a8c46e33843ef643cfa8c328fac",
            "type": "pubkey"
          }
        }
      ],
      "hex": "01000000010000000000000000000000000000000000000000000000000000000000000000ffffffff0704ffff001d0159ffffffff0100f2052a0100000043410480ebded438bdb3090348a6d3625d8a700c2d1fec732ca4ef9848a88fcc49c8fe808ec5e0c35bb00affdb72a320f658147c5b4f6a8c46e33843ef643cfa8c328fac00000000"
    }
  ]
}