{
  "hash": "0000000022e43352860ba926e8bec083b3a5813aa2765b41481120475eb5a972",
  "confirmations": 44378,
  "height": 8720,
  "version": 1,
  "versionHex": "00000001",
  "merkleroot": "2d5973246c948889abb1da16557f0913a031c13c5705158786c57b115c02a22e",
  "time": 1238036686,
  "mediantime": 1238033030,
  "nonce": 3003570203,
  "bits": "1d00ffff",
  "difficulty": 1,
  "chainwork": "0000000000000000000000000000000000000000000000000000221122112211",
  "nTx": 1,
  "previousblockhash": "00000000c9f97bd791965adb77b201eaa24250c158c2feff90ee940d899f1a67",
  "nextblockhash": "00000000ea88a91c6afaa042408c615fe734e0bb0318b552deb0313f5946a8c3",
  "strippedsize": 216,
  "size": 216,
  "weight": 864,
  "tx": [
    {
      "txid": "2d5973246c948889abb1da16557f0913a031c13c5705158786c57b115c02a22e",
      "hash": "2d5973246c948889abb1da16557f0913a031c13c5705158786c57b115c02a22e",
      "version": 1,
      "size": 135,
      "vsize": 135,
      "weight": 540,
      "locktime": 0,
      "vin": [
        {
          "coinbase": "04ffff001d024701",
          "sequence": 4294967295
        }
      ],
      "vout": [
        {
          "value": 50.0,
          "n": 0,
          "scriptPubKey": {
            "asm": "040f91cee80ffba2cfa4910db77f81109d19d8ac06b81dcf225756453eda934a4897216ea2ab19a16b629db321da1c7f8feea6901699dbac5afd6c4cf12a344f47 OP_CHECKSIG",
            "desc": "pk(040f91cee80ffba2cfa4910db77f81109d19d8ac06b81dcf225756453eda934a4897216ea2ab19a16b629db321da1c7f8feea6901699dbac5afd6c4cf12a344f47)#fc34d9f8",
            "hex": "41040f91cee80ffba2cfa4910db77f81109d19d8ac06b81dcf225756453eda934a4897216ea2ab19a16b629db321da1c7f8feea6901699dbac5afd6c4cf12a344f47ac",
            "type": "pubkey"
          }
        }
      ],
      "hex": "01000000010000000000000000000000000000000000000000000000000000000000000000ffffffff0804ffff001d024701ffffffff0100f2052a010000004341040f91cee80ffba2cfa4910db77f81109d19d8ac06b81dcf225756453eda934a4897216ea2ab19a16b629db321da1c7f8feea6901699dbac5afd6c4cf12a344f47ac00000000"
    }
  ]
}