{
  "hash": "00000000190bbcbb2a1d39f08098822eb54172123beac580660d1fe23944305a",
  "confirmations": 47177,
  "height": 5921,
  "version": 1,
  "versionHex": "00000001",
  "merkleroot": "4d873b06b19e0c78a883e5d6490ccacf9ec53e66957022927f008bb7b5b62019",
  "time": 1235862867,
  "mediantime": 1235857689,
  "nonce": 641357626,
  "bits": "1d00ffff",
  "difficulty": 1,
  "chainwork": "0000000000000000000000000000000000000000000000000000172217221722",
  "nTx": 1,
  "previousblockhash": "000000004186d7b78d2f7ad10b70e32015a8869680063689546b734fcabbe896",
  "nextblockhash": "0000000022c4ed981e60b3cccebb719b1fe19ab4d34dd968310dcd1c92a2b9d8",
  "strippedsize": 216,
  "size": 216,
  "weight": 864,
  "tx": [
    {
      "txid": "4d873b06b19e0c78a883e5d6490ccacf9ec53e66957022927f008bb7b5b62019",
      "hash": "4d873b06b19e0c78a883e5d6490ccacf9ec53e66957022927f008bb7b5b62019",
      "version": 1,
      "size": 135,
      "vsize": 135,
      "weight": 540,
      "locktime": 0,
      "vin": [
        {
          "coinbase": "04ffff001d028103",
          "sequence": 4294967295
        }
      ],
      "vout": [
        {
          "value": 50.0,
          "n": 0,
          "scriptPubKey": {
            "asm": "040cfe7fd8af0bb16fda666539620a102873abef33bb84f2ad9779dac253413ea0687f743cdd66c98821b768c9bb284ee7fae99d10684ad9a3015715b3a19c55dc OP_CHECKSIG",
            "desc": "pk(040cfe7fd8af0bb16fda666539620a102873abef33bb84f2ad9779dac253413ea0687f743cdd66c98821b768c9bb284ee7fae99d10684ad9a3015715b3a19c55dc)#nltfgm2w",
            "hex": "41040cfe7fd8af0bb16fda666539620a102873abef33bb84f2ad9779dac253413ea0687f743cdd66c98821b768c9bb284ee7fae99d10684ad9a3015715b3a19c55dcac",
            "type": "pubkey"
          }
        }
      ],
      "hex": "01000000010000000000000000000000000000000000000000000000000000000000000000ffffffff0804ffff001d028103ffffffff0100f2052a010000004341040cfe7fd8af0bb16fda666539620a102873abef33bb84f2ad9779dac253413ea0687f743cdd66c98821b768c9bb284ee7fae99d10684ad9a3015715b3a19c55dcac00000000"
    }
  ]
}