{
  "hash": "000000005c6249dd02d3e46c71bf449e50b6ba16d0e241d7da1c7df3eb422901",
  "confirmations": 46578,
  "height": 6520,
  "version": 1,
  "versionHex": "00000001",
  "merkleroot": "6b9abb64ff1da4ed2a7d2016ed3b3753b873689c7b50dd61d61ad582fefc57b1",
  "time": 1236342949,
  "mediantime": 1236339221,
  "nonce": 968189986,
  "bits": "1d00ffff",
  "difficulty": 1,
  "chainwork": "0000000000000000000000000000000000000000000000000000197919791979",
  "nTx": 1,
  "previousblockhash": "000000002dad07ba20fc8a110e570f4adfb105c1dd1f660ded4fa4b88838bdd8",
  "nextblockhash": "000000002175cd3fff9b3584773254d1ece5d01a6b651bc48f193eb2a79acac4",
  "strippedsize": 216,
  "size": 216,
  "weight": 864,
  "tx": [
    {
      "txid": "6b9abb64ff1da4ed2a7d2016ed3b3753b873689c7b50dd61d61ad582fefc57b1",
      "hash": "6b9abb64ff1da4ed2a7d2016ed3b3753b873689c7b50dd61d61ad582fefc57b1",
      "version": 1,
      "size": 135,
      "vsize": 135,
      "weight": 540,
      "locktime": 0,
      "vin": [
        {
          "coinbase": "04ffff001d020004",
          "sequence": 4294967295
        }
      ],
      "vout": [
        {
          "value": 50.0,
          "n": 0,
          "scriptPubKey": {
            "asm": "043d5414af3f62c09405946740b56834bc08f59aac25b84f007aad847ac97ae3367746198722377c137eb18e771a1b1b1d09471fd136ba61139dab4e0e9ab5082f OP_CHECKSIG",
            "desc": "pk(043d5414af3f62c09405946740b56834bc08f59aac25b84f007aad847ac97ae3367746198722377c137eb18e771a1b1b1d09471fd136ba61139dab4e0e9ab5082f)#rdt248ex",
            "hex": "41043d5414af3f62c09405946740b56834bc08f59aac25b84f007aad847ac97ae3367746198722377c137eb18e771a1b1b1d09471fd136ba61139dab4e0e9ab5082fac",
            "type": "pubkey"
          }
        }
      ],
      "hex": "01000000010000000000000000000000000000000000000000000000000000000000000000ffffffff0804ffff001d020004ffffffff0100f2052a010000004341043d5414af3f62c09405946740b56834bc08f59aac25b84f007aad847ac97ae3367746198722377c137eb18e771a1b1b1d09471fd136ba61139dab4e0e9ab5082fac00000000"
    }
  ]
}