{
  "hash": "0000000031714f49ff442632ef45b0e7148752e7e0a6c373ef6c857093e7036f",
  "confirmations": 52089,
  "height": 245,
  "version": 1,
  "versionHex": "00000001",
  "merkleroot": "f7126304f9e03c82c7c5ec4347c6c4e7ea9eb765a431307cb60d81c2c1b671b9",
  "time": 1231788397,
  "mediantime": 1231783494,
  "nonce": 2115289634,
  "bits": "1d00ffff",
  "difficulty": 1,
  "chainwork": "000000000000000000000000000000000000000000000000000000f600f600f6",
  "nTx": 1,
  "previousblockhash": "0000000047ebf1f452225ac287d79dcc8e4a840c2a097efa407679a213f9e5ba",
  "nextblockhash": "00000000ccc62f72d2e8e34c750d9ab72b6f2557d3b249b619d3e7f1860f1a32",
  "strippedsize": 216,
  "size": 216,
  "weight": 864,
  "tx": [
    {
      "txid": "f7126304f9e03c82c7c5ec4347c6c4e7ea9eb765a431307cb60d81c2c1b671b9",
      "hash": "f7126304f9e03c82c7c5ec4347c6c4e7ea9eb765a431307cb60d81c2c1b671b9",
      "version": 1,
      "size": 135,
      "vsize": 135,
      "weight": 540,
      "locktime": 0,
      "vin": [
        {
          "coinbase": "04ffff001d02fe00",
          "sequence": 4294967295
        }
      ],
      "vout": [
        {
          "value": 50.0,
          "n": 0,
          "scriptPubKey": {
            "asm": "043a19e774e0e436b70e6440aea899da467589a5b061f765adf6cf6f990d358d9d7e7d5620d8c179b37da0d84933eeedc1022cdb5bb51270953bd958058b64e02c OP_CHECKSIG",
            "desc": "pk(043a19e774e0e436b70e6440aea899da467589a5b061f765adf6cf6f990d358d9d7e7d5620d8c179b37da0d84933eeedc1022cdb5bb51270953bd958058b64e02c)#78ew6pxw",
            "hex": "41043a19e774e0e436b70e6440aea899da467589a5b061f765adf6cf6f990d358d9d7e7d5620d8c179b37da0d84933eeedc1022cdb5bb51270953bd958058b64e02cac",
            "type": "pubkey"
          }
        }
      ],
      "hex": "01000000010000000000000000000000000000000000000000000000000000000000000000ffffffff0804ffff001d02fe00ffffffff0100f2052a010000004341043a19e774e0e436b70e6440aea899da467589a5b061f765adf6cf6f990d358d9d7e7d5620d8c179b37da0d84933eeedc1022cdb5bb51270953bd958058b64e02cac00000000"
    }
  ]
}