{
  "hash": "000000003aabb2148cb1f0e9a9866a40f4b4cd0f4bd4922bd4fc059f968e144f",
  "confirmations": 44119,
  "height": 8979,
  "version": 1,
  "versionHex": "00000001",
  "merkleroot": "7ef9bc3dba7c24f632eb16e41272abbb30d50f497bcc4e6b22ae79d3f3313c26",
  "time": 1238237943,
  "mediantime": 1238234202,
  "nonce": 1897203224,
  "bits": "1d00ffff",
  "difficulty": 1,
  "chainwork": "0000000000000000000000000000000000000000000000000000231423142314",
  "nTx": 1,
  "previousblockhash": "000000003bbe0019a8123a29bbf9555947e9367dff367cfda99c1999ba2f7d8d",
  "nextblockhash": "000000002b6ddc71413d93249aeeb35ae0e0d2fbdb9d4333667a40826638589f",
  "strippedsize": 216,
  "size": 216,
  "weight": 864,
  "tx": [
    {
      "txid": "7ef9bc3dba7c24f632eb16e41272abbb30d50f497bcc4e6b22ae79d3f3313c26",
      "hash": "7ef9bc3dba7c24f632eb16e41272abbb30d50f497bcc4e6b22ae79d3f3313c26",
      "version": 1,
      "size": 135,
      "vsize": 135,
      "weight": 540,
      "locktime": 0,
      "vin": [
        {
          "coinbase": "04ffff001d022206",
          "sequence": 4294967295
        }
      ],
      "vout": [
        {
          "value": 50.0,
          "n": 0,
          "scriptPubKey": {
            "asm": "0419d0b221714e536326b3ba4464fafbf565ac7f69beaa9d2612939242c95b515c5f3e898a058b1fa133a2ca2d2ac25308958717f47474fde4c397430540f156af OP_CHECKSIG",
            "desc": "pk(0419d0b221714e536326b3ba4464fafbf565ac7f69beaa9d2612939242c95b515c5f3e898a058b1fa133a2ca2d2ac25308958717f47474fde4c397430540f156af)#9scwuwwp",
            "hex": "410419d0b221714e536326b3ba4464fafbf565ac7f69beaa9d2612939242c95b515c5f3e898a058b1fa133a2ca2d2ac25308958717f47474fde4c397430540f156afac",
            "type": "pubkey"
          }
        }
      ],
      "hex": "01000000010000000000000000000000000000000000000000000000000000000000000000ffffffff0804ffff001d022206ffffffff0100f2052a0100000043410419d0b221714e536326b3ba4464fafbf565ac7f69beaa9d2612939242c95b515c5f3e898a058b1fa133a2ca2d2ac25308958717f47474fde4c397430540f156afac00000000"
    }
  ]
}