{
  "hash": "0000000007e162784d52a035bfebf67d0b73813c09e2e23e6710fa237b301f0f",
  "confirmations": 52068,
  "height": 267,
  "version": 1,
  "versionHex": "00000001",
  "merkleroot": "ee8a69fe827fa3519b9fe8704eeb5923e655943b21f46f070935f8febbe6433d",
  "time": 1231806964,
  "mediantime": 1231803947,
  "nonce": 268450930,
  "bits": "1d00ffff",
  "difficulty": 1,
  "chainwork": "0000000000000000000000000000000000000000000000000000010c010c010c",
  "nTx": 1,
  "previousblockhash": "0000000054de543828fb973ecf9302291426f1e99189b03c97f618f79eebf4b3",
  "nextblockhash": "00000000f4226696e8eec65149a5d7bedc22200e0b9526b1bf6ba7ee5e66d126",
  "strippedsize": 215,
  "size": 215,
  "weight": 860,
  "tx": [
    {
      "txid": "ee8a69fe827fa3519b9fe8704eeb5923e655943b21f46f070935f8febbe6433d",
      "hash": "ee8a69fe827fa3519b9fe8704eeb5923e655943b21f46f070935f8febbe6433d",
      "version": 1,
      "size": 134,
      "vsize": 134,
      "weight": 536,
      "locktime": 0,
      "vin": [
        {
          "coinbase": "04ffff001d0126",
          "sequence": 4294967295
        }
      ],
      "vout": [
        {
          "value": 50.0,
          "n": 0,
          "scriptPubKey": {
            "asm": "0495e4452231085185e3aab1c2d624b32d8aea91db72e1fc761d4837f17056f457f4b1a9869086fe934b09f8ee25b2b6caec6f1bf24e9a08f3808fe5c8d270240b OP_CHECKSIG",
            "desc": "pk(0495e4452231085185e3aab1c2d624b32d8aea91db72e1fc761d4837f17056f457f4b1a9869086fe934b09f8ee25b2b6caec6f1bf24e9a08f3808fe5c8d270240b)#peuhxy3c",
            "hex": "410495e4452231085185e3aab1c2d624b32d8aea91db72e1fc761d4837f17056f457f4b1a9869086fe934b09f8ee25b2b6caec6f1bf24e9a08f3808fe5c8d270240bac",
            "type": "pubkey"
          }
        }
      ],
      "hex": "01000000010000000000000000000000000000000000000000000000000000000000000000ffffffff0704ffff001d0126ffffffff0100f2052a0100000043410495e4452231085185e3aab1c2d624b32d8aea91db72e1fc761d4837f17056f457f4b1a9869086fe934b09f8ee25b2b6caec6f1bf24e9a08f3808fe5c8d270240bac00000000"
    }
  ]
}