{
  "hash": "00000000bfbb523f267ed6fd206a7cab9a132e6fa4370d2aad406eb13dd1f60c",
  "confirmations": 51947,
  "height": 1151,
  "version": 1,
  "versionHex": "00000001",
  "merkleroot": "0664925fcc941898b97662dc272dd598333f95ef26645655b38ec3bb5cbd9f26",
  "time": 1232460645,
  "mediantime": 1232456479,
  "nonce": 114584882,
  "bits": "1d00ffff",
  "difficulty": 1,
  "chainwork": "0000000000000000000000000000000000000000000000000000048004800480",
  "nTx": 1,
  "previousblockhash": "00000000bc63b016e55ce7560e4647f7c8eee0b9edaa46477e6bd800149846b6",
  "nextblockhash": "000000000453e2b64d5a6f8fb5416136a8fb10d4bbee3425ff20857e1859eaf0",
  "strippedsize": 216,
  "size": 216,
  "weight": 864,
  "tx": [
    {
      "txid": "0664925fcc941898b97662dc272dd598333f95ef26645655b38ec3bb5cbd9f26",
      "hash": "0664925fcc941898b97662dc272dd598333f95ef26645655b38ec3bb5cbd9f26",
      "version": 1,
      "size": 135,
      "vsize": 135,
      "weight": 540,
      "locktime": 0,
      "vin": [
        {
          "coinbase": "04ffff001d02d007",
          "sequence": 4294967295
        }
      ],
      "vout": [
        {
          "value": 50.0,
          "n": 0,
          "scriptPubKey": {
            "asm": "04fb38f8c002470096b806b60b7bb2dbccc1286804073067a11d99dbd8af1e2349502bc809518cbbcea6afc0cf598d2a608f05690e420a6125ef9f64fdec0b7b71 OP_CHECKSIG",
            "desc": "pk(04fb38f8c002470096b806b60b7bb2dbccc1286804073067a11d99dbd8af1e2349502bc809518cbbcea6afc0cf598d2a608f05690e420a6125ef9f64fdec0b7b71)#dwyusfuh",
            "hex": "4104fb38f8c002470096b806b60b7bb2dbccc1286804073067a11d99dbd8af1e2349502bc809518cbbcea6afc0cf598d2a608f05690e420a6125ef9f64fdec0b7b71ac",
            "type": "pubkey"
          }
        }
      ],
      "hex": "01000000010000000000000000000000000000000000000000000000000000000000000000ffffffff0804ffff001d02d007ffffffff0100f2052a01000000434104fb38f8c002470096b806b60b7bb2dbccc1286804073067a11d99dbd8af1e2349502bc809518cbbcea6afc0cf598d2a608f05690e420a6125ef9f64fdec0b7b71ac00000000"
    }
  ]
}