{
  "hash": "000000009be075c2742955e8cad5aa09390e2e7feffdfecc371bdcae0fb60951",
  "confirmations": 43586,
  "height": 9512,
  "version": 1,
  "versionHex": "00000001",
  "merkleroot": "0d7107d83577e3d4354565fe4c6865ac4d04eff9608545be6aedecb001c66f64",
  "time": 1238639224,
  "mediantime": 1238632732,
  "nonce": 51274856,
  "bits": "1d00ffff",
  "difficulty": 1,
  "chainwork": "0000000000000000000000000000000000000000000000000000252925292529",
  "nTx": 1,
  "previousblockhash": "00000000faac558a7a5266c3c678e53b53b88a619b00dd825395b8e4ca44cdd9",
  "nextblockhash": "00000000c60596cdb860839242211d9a17ba734e397636135e7744303d189a0b",
  "strippedsize": 216,
  "size": 216,
  "weight": 864,
  "tx": [
    {
      "txid": "0d7107d83577e3d4354565fe4c6865ac4d04eff9608545be6aedecb001c66f64",
      "hash": "0d7107d83577e3d4354565fe4c6865ac4d04eff9608545be6aedecb001c66f64",
      "version": 1,
      "size": 135,
      "vsize": 135,
      "weight": 540,
      "locktime": 0,
      "vin": [
        {
          "coinbase": "04ffff001d021407",
          "sequence": 4294967295
        }
      ],
      "vout": [
        {
          "value": 50.0,
          "n": 0,
          "scriptPubKey": {
            "asm": "04346a889888c19f47ea1d99f1e5c28e821be5860768bf9a214d85c41cc88b23926035088bdcbf901d089ca1e2103f6fec8bc13a87f04116b268390052041eda7b OP_CHECKSIG",
            "desc": "pk(04346a889888c19f47ea1d99f1e5c28e821be5860768bf9a214d85c41cc88b23926035088bdcbf901d089ca1e2103f6fec8bc13a87f04116b268390052041eda7b)#0fl03gm8",
            "hex": "4104346a889888c19f47ea1d99f1e5c28e821be5860768bf9a214d85c41cc88b23926035088bdcbf901d089ca1e2103f6fec8bc13a87f04116b268390052041eda7bac",
            "type": "pubkey"
          }
        }
      ],
      "hex": "01000000010000000000000000000000000000000000000000000000000000000000000000ffffffff0804ffff001d021407ffffffff0100f2052a01000000434104346a889888c19f47ea1d99f1e5c28e821be5860768bf9a214d85c41cc88b23926035088bdcbf901d089ca1e2103f6fec8bc13a87f04116b268390052041eda7bac00000000"
    }
  ]
}