{
  "hash": "00000000abd582d872b2c2e2df95fd35ee849f06e74fe5a7cc715f9a59c68fe3",
  "confirmations": 44924,
  "height": 8174,
  "version": 1,
  "versionHex": "00000001",
  "merkleroot": "16d1ef98f9f8c10d438cf037b0ac89fef2b4f5f42fdc9a7a82ad2f2e0ca46421",
  "time": 1237588249,
  "mediantime": 1237585625,
  "nonce": 1177064989,
  "bits": "1d00ffff",
  "difficulty": 1,
  "chainwork": "00000000000000000000000000000000000000000000000000001fef1fef1fef",
  "nTx": 1,
  "previousblockhash": "000000006689f4b18ebae9f42d3aa3da53e2e353401b00f38daea70978518a2e",
  "nextblockhash": "0000000062f1563ca6cbd2ba1863adb9d249a9d0415e2e12eae2d55557d6577b",
  "strippedsize": 216,
  "size": 216,
  "weight": 864,
  "tx": [
    {
      "txid": "16d1ef98f9f8c10d438cf037b0ac89fef2b4f5f42fdc9a7a82ad2f2e0ca46421",
      "hash": "16d1ef98f9f8c10d438cf037b0ac89fef2b4f5f42fdc9a7a82ad2f2e0ca46421",
      "version": 1,
      "size": 135,
      "vsize": 135,
      "weight": 540,
      "locktime": 0,
      "vin": [
        {
          "coinbase": "04ffff001d026f02",
          "sequence": 4294967295
        }
      ],
      "vout": [
        {
          "value": 50.0,
          "n": 0,
          "scriptPubKey": {
            "asm": "04404ee62d63b3f8bfeb1ab9f7a6c9de949d4fc9886a4bb9157d020edf922abe186c0675a077cfb2ebc4a9b5191406c095a69f1b8c3a8b1fe82717b7420ce73658 OP_CHECKSIG",
            "desc": "pk(04404ee62d63b3f8bfeb1ab9f7a6c9de949d4fc9886a4bb9157d020edf922abe186c0675a077cfb2ebc4a9b5191406c095a69f1b8c3a8b1fe82717b7420ce73658)#s2ed43h6",
            "hex": "4104404ee62d63b3f8bfeb1ab9f7a6c9de949d4fc9886a4bb9157d020edf922abe186c0675a077cfb2ebc4a9b5191406c095a69f1b8c3a8b1fe82717b7420ce73658ac",
            "type": "pubkey"
          }
        }
      ],
      "hex": "01000000010000000000000000000000000000000000000000000000000000000000000000ffffffff0804ffff001d026f02ffffffff0100f2052a01000000434104404ee62d63b3f8bfeb1ab9f7a6c9de949d4fc9886a4bb9157d020edf922abe186c0675a077cfb2ebc4a9b5191406c095a69f1b8c3a8b1fe82717b7420ce73658ac00000000"
    }
  ]
}