{
  "hash": "00000000e56f6303c542afc1310d1cd1d72210096ee5aa525d440127eb4d1d0c",
  "confirmations": 50453,
  "height": 2645,
  "version": 1,
  "versionHex": "00000001",
  "merkleroot": "8e1bae4e4594703661e665d793d1894400916fb96b96b72bb8e2eda8516c763e",
  "time": 1233522724,
  "mediantime": 1233519880,
  "nonce": 3080536630,
  "bits": "1d00ffff",
  "difficulty": 1,
  "chainwork": "00000000000000000000000000000000000000000000000000000a560a560a56",
  "nTx": 1,
  "previousblockhash": "00000000d652307cc75e42d3d436e4d858ef808142ce3ddc4d7addcd33e55bc3",
  "nextblockhash": "00000000eb901ccbac335c161fe3c4ac12e913889739b606ab2c1b98df6ffd41",
  "strippedsize": 216,
  "size": 216,
  "weight": 864,
  "tx": [
    {
      "txid": "8e1bae4e4594703661e665d793d1894400916fb96b96b72bb8e2eda8516c763e",
      "hash": "8e1bae4e4594703661e665d793d1894400916fb96b96b72bb8e2eda8516c763e",
      "version": 1,
      "size": 135,
      "vsize": 135,
      "weight": 540,
      "locktime": 0,
      "vin": [
        {
          "coinbase": "04ffff001d02ce03",
          "sequence": 4294967295
        }
      ],
      "vout": [
        {
          "value": 50.0,
          "n": 0,
          "scriptPubKey": {
            "asm": "041c4c4b2c720cdfb77d3bc232f18a5058ee5eb505a98ac35bc39d06b6abe291f35b4b578467c21f9eb285dc10185132f6a99bf7d4500661c936caed2c96161dfd OP_CHECKSIG",
            "desc": "pk(041c4c4b2c720cdfb77d3bc232f18a5058ee5eb505a98ac35bc39d06b6abe291f35b4b578467c21f9eb285dc10185132f6a99bf7d4500661c936caed2c96161dfd)#gen9kq63",
            "hex": "41041c4c4b2c720cdfb77d3bc232f18a5058ee5eb505a98ac35bc39d06b6abe291f35b4b578467c21f9eb285dc10185132f6a99bf7d4500661c936caed2c96161dfdac",
            "type": "pubkey"
          }
        }
      ],
      "hex": "01000000010000000000000000000000000000000000000000000000000000000000000000ffffffff0804ffff001d02ce03ffffffff0100f2052a010000004341041c4c4b2c720cdfb77d3bc232f18a5058ee5eb505a98ac35bc39d06b6abe291f35b4b578467c21f9eb285dc10185132f6a99bf7d4500661c936caed2c96161dfdac00000000"
    }
  ]
}