{
  "hash": "00000000fbbf71a941e231a3f85b95ba4c06758f54fbcbd97c7ea37883d400d2",
  "confirmations": 45566,
  "height": 7532,
  "version": 1,
  "versionHex": "00000001",
  "merkleroot": "d1c3a113b73d426607520923ea83cdbaa468dabd6cdefaa51d64ee24198a1bd3",
  "time": 1237124000,
  "mediantime": 1237117996,
  "nonce": 4045846061,
  "bits": "1d00ffff",
  "difficulty": 1,
  "chainwork": "00000000000000000000000000000000000000000000000000001d6d1d6d1d6d",
  "nTx": 1,
  "previousblockhash": "00000000505b5f1b5d8ee24a9359332e902207b1993cc8a4d1ed3057b65495b8",
  "nextblockhash": "00000000be3148cc4f4f92ffbead5508a50e85befeeadc63933fc55f2aeb8183",
  "strippedsize": 216,
  "size": 216,
  "weight": 864,
  "tx": [
    {
      "txid": "d1c3a113b73d426607520923ea83cdbaa468dabd6cdefaa51d64ee24198a1bd3",
      "hash": "d1c3a113b73d426607520923ea83cdbaa468dabd6cdefaa51d64ee24198a1bd3",
      "version": 1,
      "size": 135,
      "vsize": 135,
      "weight": 540,
      "locktime": 0,
      "vin": [
        {
          "coinbase": "04ffff001d029901",
          "sequence": 4294967295
        }
      ],
      "vout": [
        {
          "value": 50.0,
          "n": 0,
          "scriptPubKey": {
            "asm": "04bb34defb2ddc6186ffbc8c846806cefc5566f10727852293c75b91d5d568ce654627a27ba798adef6dad166ce1e35b0eb17aee2fcc81db8837901314f9637040 OP_CHECKSIG",
            "desc": "pk(04bb34defb2ddc6186ffbc8c846806cefc5566f10727852293c75b91d5d568ce654627a27ba798adef6dad166ce1e35b0eb17aee2fcc81db8837901314f9637040)#808njvs8",
            "hex": "4104bb34defb2ddc6186ffbc8c846806cefc5566f10727852293c75b91d5d568ce654627a27ba798adef6dad166ce1e35b0eb17aee2fcc81db8837901314f9637040ac",
            "type": "pubkey"
          }
        }
      ],
      "hex": "01000000010000000000000000000000000000000000000000000000000000000000000000ffffffff0804ffff001d029901ffffffff0100f2052a01000000434104bb34defb2ddc6186ffbc8c846806cefc5566f10727852293c75b91d5d568ce654627a27ba798adef6dad166ce1e35b0eb17aee2fcc81db8837901314f9637040ac00000000"
    }
  ]
}