{
  "hash": "000000007108461df15994277cd6fe447410fa837d922e1fa5c6c5f1d8b69455",
  "confirmations": 46390,
  "height": 6708,
  "version": 1,
  "versionHex": "00000001",
  "merkleroot": "a6cacd4a8a07f982732fab5701fe8decbb937fbd05fc0d1cd8bccb42bdd50d17",
  "time": 1236488724,
  "mediantime": 1236485289,
  "nonce": 2029918488,
  "bits": "1d00ffff",
  "difficulty": 1,
  "chainwork": "00000000000000000000000000000000000000000000000000001a351a351a35",
  "nTx": 1,
  "previousblockhash": "0000000095f086ab3e55bd178474021ab170557040a1abc306ae24c311973008",
  "nextblockhash": "000000003f7771f4ccca354f0e638f7a2f3eab6df416e977f50abfa67d39a878",
  "strippedsize": 216,
  "size": 216,
  "weight": 864,
  "tx": [
    {
      "txid": "a6cacd4a8a07f982732fab5701fe8decbb937fbd05fc0d1cd8bccb42bdd50d17",
      "hash": "a6cacd4a8a07f982732fab5701fe8decbb937fbd05fc0d1cd8bccb42bdd50d17",
      "version": 1,
      "size": 135,
      "vsize": 135,
      "weight": 540,
      "locktime": 0,
      "vin": [
        {
          "coinbase": "04ffff001d023b07",
          "sequence": 4294967295
        }
      ],
      "vout": [
        {
          "value": 50.0,
          "n": 0,
          "scriptPubKey": {
            "asm": "0419fbf484b130617d69eca30fae9558dbc6f48f2cdc23ba830f179c9d27f5fc64ff8bcf2ef7349bc61e608334dbb8aa269a9debbb1ea41d5d62cf031f5c00e4eb OP_CHECKSIG",
            "desc": "pk(0419fbf484b130617d69eca30fae9558dbc6f48f2cdc23ba830f179c9d27f5fc64ff8bcf2ef7349bc61e608334dbb8aa269a9debbb1ea41d5d62cf031f5c00e4eb)#90tx6cme",
            "hex": "410419fbf484b130617d69eca30fae9558dbc6f48f2cdc23ba830f179c9d27f5fc64ff8bcf2ef7349bc61e608334dbb8aa269a9debbb1ea41d5d62cf031f5c00e4ebac",
            "type": "pubkey"
          }
        }
      ],
      "hex": "01000000010000000000000000000000000000000000000000000000000000000000000000ffffffff0804ffff001d023b07ffffffff0100f2052a0100000043410419fbf484b130617d69eca30fae9558dbc6f48f2cdc23ba830f179c9d27f5fc64ff8bcf2ef7349bc61e608334dbb8aa269a9debbb1ea41d5d62cf031f5c00e4ebac00000000"
    }
  ]
}