{
  "hash": "00000000a0db993943e1b10920aba4a85febd82dfed600baa3abfccb0cf16fec",
  "confirmations": 47785,
  "height": 5313,
  "version": 1,
  "versionHex": "00000001",
  "merkleroot": "3865b8be6a44b7c671b6b54e913cf477c8693eb121f210b1544f343572031f72",
  "time": 1235374491,
  "mediantime": 1235369187,
  "nonce": 938038806,
  "bits": "1d00ffff",
  "difficulty": 1,
  "chainwork": "000000000000000000000000000000000000000000000000000014c214c214c2",
  "nTx": 1,
  "previousblockhash": "00000000601a82b45f51455744837ea97833706b072ee40929e78f489c6cd00e",
  "nextblockhash": "00000000ac1000fcac73e8009d583f15519eb86423d5b142352d661e763a58af",
  "strippedsize": 216,
  "size": 216,
  "weight": 864,
  "tx": [
    {
      "txid": "3865b8be6a44b7c671b6b54e913cf477c8693eb121f210b1544f343572031f72",
      "hash": "3865b8be6a44b7c671b6b54e913cf477c8693eb121f210b1544f343572031f72",
      "version": 1,
      "size": 135,
      "vsize": 135,
      "weight": 540,
      "locktime": 0,
      "vin": [
        {
          "coinbase": "04ffff001d024302",
          "sequence": 4294967295
        }
      ],
      "vout": [
        {
          "value": 50.0,
          "n": 0,
          "scriptPubKey": {
            "asm": "04f570ee1c9b99d96bfe687a73a2b6287ade31e284dace802d15977461a34be7bbacd2a1db790ca2a5059d3d779f02faee6fc4ea246fcdd63ee22db0790e4d7c62 OP_CHECKSIG",
            "desc": "pk(04f570ee1c9b99d96bfe687a73a2b6287ade31e284dace802d15977461a34be7bbacd2a1db790ca2a5059d3d779f02faee6fc4ea246fcdd63ee22db0790e4d7c62)#y2cf5t8x",
            "hex": "4104f570ee1c9b99d96bfe687a73a2b6287ade31e284dace802d15977461a34be7bbacd2a1db790ca2a5059d3d779f02faee6fc4ea246fcdd63ee22db0790e4d7c62ac",
            "type": "pubkey"
          }
        }
      ],
      "hex": "01000000010000000000000000000000000000000000000000000000000000000000000000ffffffff0804ffff001d024302ffffffff0100f2052a01000000434104f570ee1c9b99d96bfe687a73a2b6287ade31e284dace802d15977461a34be7bbacd2a1db790ca2a5059d3d779f02faee6fc4ea246fcdd63ee22db0790e4d7c62ac00000000"
    }
  ]
}