{
  "hash": "0000000012f2ec57a6dfdcd59b36dce7e9e33107a8b809b507b04b7076019a08",
  "confirmations": 50654,
  "height": 2444,
  "version": 1,
  "versionHex": "00000001",
  "merkleroot": "4c079aeca71657fcd4130b42d9a636b856595829db61e9f9a242c3f0259a90b5",
  "time": 1233388584,
  "mediantime": 1233385305,
  "nonce": 1423646486,
  "bits": "1d00ffff",
  "difficulty": 1,
  "chainwork": "0000000000000000000000000000000000000000000000000000098d098d098d",
  "nTx": 1,
  "previousblockhash": "0000000083a8010a8c77c6e96e00586d04562dfc58d26a1dcf6520e73d1e5978",
  "nextblockhash": "000000000b25395a2280c0e3fdfb19149d1a0800093df9760e7714f72e40339d",
  "strippedsize": 215,
  "size": 215,
  "weight": 860,
  "tx": [
    {
      "txid": "4c079aeca71657fcd4130b42d9a636b856595829db61e9f9a242c3f0259a90b5",
      "hash": "4c079aeca71657fcd4130b42d9a636b856595829db61e9f9a242c3f0259a90b5",
      "version": 1,
      "size": 134,
      "vsize": 134,
      "weight": 536,
      "locktime": 0,
      "vin": [
        {
          "coinbase": "04ffff001d016b",
          "sequence": 4294967295
        }
      ],
      "vout": [
        {
          "value": 50.0,
          "n": 0,
          "scriptPubKey": {
            "asm": "04f995eb7418cda6d9e0099258317ea70ce5cfb44ec64deef1c1a29ed20bdeac44d04eb2d1d48a71d32a7aeb2030c8a89d25b015d92d41c2efcbfacc4a4a24312e OP_CHECKSIG",
            "desc": "pk(04f995eb7418cda6d9e0099258317ea70ce5cfb44ec64deef1c1a29ed20bdeac44d04eb2d1d48a71d32a7aeb2030c8a89d25b015d92d41c2efcbfacc4a4a24312e)#cjvr3h0f",
            "hex": "4104f995eb7418cda6d9e0099258317ea70ce5cfb44ec64deef1c1a29ed20bdeac44d04eb2d1d48a71d32a7aeb2030c8a89d25b015d92d41c2efcbfacc4a4a24312eac",
            "type": "pubkey"
          }
        }
      ],
      "hex": "01000000010000000000000000000000000000000000000000000000000000000000000000ffffffff0704ffff001d016bffffffff0100f2052a01000000434104f995eb7418cda6d9e0099258317ea70ce5cfb44ec64deef1c1a29ed20bdeac44d04eb2d1d48a71d32a7aeb2030c8a89d25b015d92d41c2efcbfacc4a4a24312eac00000000"
    }
  ]
}