{
  "hash": "00000000424fc94a50bc0390944cb4a73146b5d63be28de97ba901e311f34c9a",
  "confirmations": 51193,
  "height": 1905,
  "version": 1,
  "versionHex": "00000001",
  "merkleroot": "7143225ce9bfc25203d4a12ea5df5cfa28dc7d43acf66c18675643aae02c4b92",
  "time": 1232947277,
  "mediantime": 1232944937,
  "nonce": 1996636968,
  "bits": "1d00ffff",
  "difficulty": 1,
  "chainwork": "0000000000000000000000000000000000000000000000000000077207720772",
  "nTx": 1,
  "previousblockhash": "000000003cb957c9fdd08737db34b496c5240b50872b8527c660804c35fb6ee5",
  "nextblockhash": "00000000340b0d1288adc8d9da2d49e4da89798b3ee29e49b444a00ba6c4948c",
  "strippedsize": 216,
  "size": 216,
  "weight": 864,
  "tx": [
    {
      "txid": "7143225ce9bfc25203d4a12ea5df5cfa28dc7d43acf66c18675643aae02c4b92",
      "hash": "7143225ce9bfc25203d4a12ea5df5cfa28dc7d43acf66c18675643aae02c4b92",
      "version": 1,
      "size": 135,
      "vsize": 135,
      "weight": 540,
      "locktime": 0,
      "vin": [
        {
          "coinbase": "04ffff001d024805",
          "sequence": 4294967295
        }
      ],
      "vout": [
        {
          "value": 50.0,
          "n": 0,
          "scriptPubKey": {
            "asm": "048729638bc6bba6332ced33b37b324525f079fd16798ab31c0afde6c54698cd48ada1bf3070456b733e97aea9a95d021241767c455f49e87fb80fd587f59d4631 OP_CHECKSIG",
            "desc": "pk(048729638bc6bba6332ced33b37b324525f079fd16798ab31c0afde6c54698cd48ada1bf3070456b733e97aea9a95d021241767c455f49e87fb80fd587f59d4631)#24x6krqx",
            "hex": "41048729638bc6bba6332ced33b37b324525f079fd16798ab31c0afde6c54698cd48ada1bf3070456b733e97aea9a95d021241767c455f49e87fb80fd587f59d4631ac",
            "type": "pubkey"
          }
        }
      ],
      "hex": "01000000010000000000000000000000000000000000000000000000000000000000000000ffffffff0804ffff001d024805ffffffff0100f2052a010000004341048729638bc6bba6332ced33b37b324525f079fd16798ab31c0afde6c54698cd48ada1bf3070456b733e97aea9a95d021241767c455f49e87fb80fd587f59d4631ac00000000"
    }
  ]
}