{
  "hash": "000000000e6b706d07a86752164dd5d2cc8a6f4a381ec682a66173f2fc179245",
  "confirmations": 45592,
  "height": 7506,
  "version": 1,
  "versionHex": "00000001",
  "merkleroot": "ad2bbfaea56786ebefe9418b6e882d0805bdcb1a321cac87c9835372df3e8f53",
  "time": 1237101647,
  "mediantime": 1237099030,
  "nonce": 783789877,
  "bits": "1d00ffff",
  "difficulty": 1,
  "chainwork": "00000000000000000000000000000000000000000000000000001d531d531d53",
  "nTx": 1,
  "previousblockhash": "00000000078c42fe4c24ca283e3d88a7b5457ef80b3e64807faade6549f16ca5",
  "nextblockhash": "00000000e30e5f03da17b2d0a09237a7affb011f0708506e2ce1f1900d3ccd35",
  "strippedsize": 216,
  "size": 216,
  "weight": 864,
  "tx": [
    {
      "txid": "ad2bbfaea56786ebefe9418b6e882d0805bdcb1a321cac87c9835372df3e8f53",
      "hash": "ad2bbfaea56786ebefe9418b6e882d0805bdcb1a321cac87c9835372df3e8f53",
      "version": 1,
      "size": 135,
      "vsize": 135,
      "weight": 540,
      "locktime": 0,
      "vin": [
        {
          "coinbase": "04ffff001d020901",
          "sequence": 4294967295
        }
      ],
      "vout": [
        {
          "value": 50.0,
          "n": 0,
          "scriptPubKey": {
            "asm": "043c04cdcb946c02e336c267568d84542a268e42970db3e26aef4e316fab35bc7c190e7e7cd5ddf31551186fdddc8597d3ac7c089596eb194744dc32eb1ba50323 OP_CHECKSIG",
            "desc": "pk(043c04cdcb946c02e336c267568d84542a268e42970db3e26aef4e316fab35bc7c190e7e7cd5ddf31551186fdddc8597d3ac7c089596eb194744dc32eb1ba50323)#txtv5j40",
            "hex": "41043c04cdcb946c02e336c267568d84542a268e42970db3e26aef4e316fab35bc7c190e7e7cd5ddf31551186fdddc8597d3ac7c089596eb194744dc32eb1ba50323ac",
            "type": "pubkey"
          }
        }
      ],
      "hex": "01000000010000000000000000000000000000000000000000000000000000000000000000ffffffff0804ffff001d020901ffffffff0100f2052a010000004341043c04cdcb946c02e336c267568d84542a268e42970db3e26aef4e316fab35bc7c190e7e7cd5ddf31551186fdddc8597d3ac7c089596eb194744dc32eb1ba50323ac00000000"
    }
  ]
}