{
  "hash": "00000000ddf0c079fb6232270d79ef3f85102d2ed74603412da7ca95a37bb2a5",
  "confirmations": 47137,
  "height": 5961,
  "version": 1,
  "versionHex": "00000001",
  "merkleroot": "57377044b8003b6d458e42d0d9abe95c214236feedcbfa0fd46bb9acd685aae2",
  "time": 1235897323,
  "mediantime": 1235892868,
  "nonce": 30151072,
  "bits": "1d00ffff",
  "difficulty": 1,
  "chainwork": "0000000000000000000000000000000000000000000000000000174a174a174a",
  "nTx": 1,
  "previousblockhash": "00000000a70804e462feebaf48f2ccf36c646c84e5de8e589a90c0b703e7c4c7",
  "nextblockhash": "0000000007c7bba9a86bdfe0f613b76a521e7af8960a348ec401fb6a0ce1a0f3",
  "strippedsize": 216,
  "size": 216,
  "weight": 864,
  "tx": [
    {
      "txid": "57377044b8003b6d458e42d0d9abe95c214236feedcbfa0fd46bb9acd685aae2",
      "hash": "57377044b8003b6d458e42d0d9abe95c214236feedcbfa0fd46bb9acd685aae2",
      "version": 1,
      "size": 135,
      "vsize": 135,
      "weight": 540,
      "locktime": 0,
      "vin": [
        {
          "coinbase": "04ffff001d020e09",
          "sequence": 4294967295
        }
      ],
      "vout": [
        {
          "value": 50.0,
          "n": 0,
          "scriptPubKey": {
            "asm": "04e945582b8f932b53c27aff9b3eb8698d79ea14306ffa8bb57aa9a34fd59defe022246b003f4f052b2f88b02419a72ffe014d1809ee611c7fd39f62bab8fe6152 OP_CHECKSIG",
            "desc": "pk(04e945582b8f932b53c27aff9b3eb8698d79ea14306ffa8bb57aa9a34fd59defe022246b003f4f052b2f88b02419a72ffe014d1809ee611c7fd39f62bab8fe6152)#qsr0p963",
            "hex": "4104e945582b8f932b53c27aff9b3eb8698d79ea14306ffa8bb57aa9a34fd59defe022246b003f4f052b2f88b02419a72ffe014d1809ee611c7fd39f62bab8fe6152ac",
            "type": "pubkey"
          }
        }
      ],
      "hex": "01000000010000000000000000000000000000000000000000000000000000000000000000ffffffff0804ffff001d020e09ffffffff0100f2052a01000000434104e945582b8f932b53c27aff9b3eb8698d79ea14306ffa8bb57aa9a34fd59defe022246b003f4f052b2f88b02419a72ffe014d1809ee611c7fd39f62bab8fe6152ac00000000"
    }
  ]
}