{
  "hash": "00000000f7ca78dbae424e00b972afc986664b99ca163ce0738dd5f7af71e9dc",
  "confirmations": 44370,
  "height": 8728,
  "version": 1,
  "versionHex": "00000001",
  "merkleroot": "dfff6f326fcfd50900248e856f895d68f1e14f2660fe19adb3ae69bc8a5255ed",
  "time": 1238041500,
  "mediantime": 1238038413,
  "nonce": 3378836738,
  "bits": "1d00ffff",
  "difficulty": 1,
  "chainwork": "0000000000000000000000000000000000000000000000000000221922192219",
  "nTx": 1,
  "previousblockhash": "0000000066f9e170c5e8c33be66566562e044aba689af05a853c8784d2876823",
  "nextblockhash": "000000005d0beb201e6429cf8e1607f15a241cecb5d726b2e86b8b919d5e4b97",
  "strippedsize": 216,
  "size": 216,
  "weight": 864,
  "tx": [
    {
      "txid": "dfff6f326fcfd50900248e856f895d68f1e14f2660fe19adb3ae69bc8a5255ed",
      "hash": "dfff6f326fcfd50900248e856f895d68f1e14f2660fe19adb3ae69bc8a5255ed",
      "version": 1,
      "size": 135,
      "vsize": 135,
      "weight": 540,
      "locktime": 0,
      "vin": [
        {
          "coinbase": "04ffff001d025e01",
          "sequence": 4294967295
        }
      ],
      "vout": [
        {
          "value": 50.0,
          "n": 0,
          "scriptPubKey": {
            "asm": "044bbfab6c680d10a9b2c3a9777a284f7e130ebaa9b5c7172207b14152398d873c009779618f653f8be72a7979cc11467c752ae80a4ed7c12ddf2b7803f95f070d OP_CHECKSIG",
            "desc": "pk(044bbfab6c680d10a9b2c3a9777a284f7e130ebaa9b5c7172207b14152398d873c009779618f653f8be72a7979cc11467c752ae80a4ed7c12ddf2b7803f95f070d)#4wxk4tyy",
            "hex": "41044bbfab6c680d10a9b2c3a9777a284f7e130ebaa9b5c7172207b14152398d873c009779618f653f8be72a7979cc11467c752ae80a4ed7c12ddf2b7803f95f070dac",
            "type": "pubkey"
          }
        }
      ],
      "hex": "01000000010000000000000000000000000000000000000000000000000000000000000000ffffffff0804ffff001d025e01ffffffff0100f2052a010000004341044bbfab6c680d10a9b2c3a9777a284f7e130ebaa9b5c7172207b14152398d873c009779618f653f8be72a7979cc11467c752ae80a4ed7c12ddf2b7803f95f070dac00000000"
    }
  ]
}