{
  "hash": "0000000023681a59f33999c8d65be2ac85e9987641a79b02bc0531b4a22500bd",
  "confirmations": 50617,
  "height": 2481,
  "version": 1,
  "versionHex": "00000001",
  "merkleroot": "38020c05524edc74147c003384e0f9758cbd0fb556c9efc17922b6b7e403d9de",
  "time": 1233411180,
  "mediantime": 1233407374,
  "nonce": 3594805547,
  "bits": "1d00ffff",
  "difficulty": 1,
  "chainwork": "000000000000000000000000000000000000000000000000000009b209b209b2",
  "nTx": 1,
  "previousblockhash": "000000005d4a4a31dc5d868b2362fc4d474f312c8f9d3ccaaf8c410e6c70557a",
  "nextblockhash": "00000000471916db33ca96f0927d0c0cfaf7df62a88807f009a688db0bcfc132",
  "strippedsize": 216,
  "size": 216,
  "weight": 864,
  "tx": [
    {
      "txid": "38020c05524edc74147c003384e0f9758cbd0fb556c9efc17922b6b7e403d9de",
      "hash": "38020c05524edc74147c003384e0f9758cbd0fb556c9efc17922b6b7e403d9de",
      "version": 1,
      "size": 135,
      "vsize": 135,
      "weight": 540,
      "locktime": 0,
      "vin": [
        {
          "coinbase": "04ffff001d02e300",
          "sequence": 4294967295
        }
      ],
      "vout": [
        {
          "value": 50.0,
          "n": 0,
          "scriptPubKey": {
            "asm": "04f5825d58cca901ce70426b3d132e8ba1b5668dcd3d15af3a1c369fb9fe4c79abb06dc1fcc2ad577af51093d992dfc038ca57d6c68ca6468c7806d6126f8f40a6 OP_CHECKSIG",
            "desc": "pk(04f5825d58cca901ce70426b3d132e8ba1b5668dcd3d15af3a1c369fb9fe4c79abb06dc1fcc2ad577af51093d992dfc038ca57d6c68ca6468c7806d6126f8f40a6)#qffl0qsg",
            "hex": "4104f5825d58cca901ce70426b3d132e8ba1b5668dcd3d15af3a1c369fb9fe4c79abb06dc1fcc2ad577af51093d992dfc038ca57d6c68ca6468c7806d6126f8f40a6ac",
            "type": "pubkey"
          }
        }
      ],
      "hex": "01000000010000000000000000000000000000000000000000000000000000000000000000ffffffff0804ffff001d02e300ffffffff0100f2052a01000000434104f5825d58cca901ce70426b3d132e8ba1b5668dcd3d15af3a1c369fb9fe4c79abb06dc1fcc2ad577af51093d992dfc038ca57d6c68ca6468c7806d6126f8f40a6ac00000000"
    }
  ]
}