{
  "hash": "00000000faff9b6900e995e98f7d7817b6eb7563361bfc2c4577c39d27ad94ae",
  "confirmations": 51052,
  "height": 2046,
  "version": 1,
  "versionHex": "00000001",
  "merkleroot": "ada1f0faccb3e93f6ceadfb6e0a8219a4789ac5af8b3b6a43e1ed17b94704276",
  "time": 1233090420,
  "mediantime": 1233084760,
  "nonce": 1177992737,
  "bits": "1d00ffff",
  "difficulty": 1,
  "chainwork": "000000000000000000000000000000000000000000000000000007ff07ff07ff",
  "nTx": 1,
  "previousblockhash": "00000000cdbefeb24b2048802ab7a6d92b1a1e86ab4176f36bbe88180ff6e651",
  "nextblockhash": "000000007e8127fe750bed9f48a7c1ee882bb3a36615f9966b95f64074ae3254",
  "strippedsize": 216,
  "size": 216,
  "weight": 864,
  "tx": [
    {
      "txid": "ada1f0faccb3e93f6ceadfb6e0a8219a4789ac5af8b3b6a43e1ed17b94704276",
      "hash": "ada1f0faccb3e93f6ceadfb6e0a8219a4789ac5af8b3b6a43e1ed17b94704276",
      "version": 1,
      "size": 135,
      "vsize": 135,
      "weight": 540,
      "locktime": 0,
      "vin": [
        {
          "coinbase": "04ffff001d029502",
          "sequence": 4294967295
        }
      ],
      "vout": [
        {
          "value": 50.0,
          "n": 0,
          "scriptPubKey": {
            "asm": "040653e3d88821e908f92f7586b7a691f4bb3398bcbb76a96338a296f6213814560cf52b7ed591c3e51c9c0918c9c775a5c0b9e59307fb9d92c27778caf91f697e OP_CHECKSIG",
            "desc": "pk(040653e3d88821e908f92f7586b7a691f4bb3398bcbb76a96338a296f6213814560cf52b7ed591c3e51c9c0918c9c775a5c0b9e59307fb9d92c27778caf91f697e)#33wk9zyj",
            "hex": "41040653e3d88821e908f92f7586b7a691f4bb3398bcbb76a96338a296f6213814560cf52b7ed591c3e51c9c0918c9c775a5c0b9e59307fb9d92c27778caf91f697eac",
            "type": "pubkey"
          }
        }
      ],
      "hex": "01000000010000000000000000000000000000000000000000000000000000000000000000ffffffff0804ffff001d029502ffffffff0100f2052a010000004341040653e3d88821e908f92f7586b7a691f4bb3398bcbb76a96338a296f6213814560cf52b7ed591c3e51c9c0918c9c775a5c0b9e59307fb9d92c27778caf91f697eac00000000"
    }
  ]
}