{
  "hash": "000000003ee04ee60071265a1b483c7a127aa3c1d64373e89f3a1ab4330e6af7",
  "confirmations": 47887,
  "height": 5211,
  "version": 1,
  "versionHex": "00000001",
  "merkleroot": "a46a288e439f636efa0dacc94041a7f9998f8820a4ea9d9b1dd43d740e09e733",
  "time": 1235292929,
  "mediantime": 1235290125,
  "nonce": 26770047,
  "bits": "1d00ffff",
  "difficulty": 1,
  "chainwork": "0000000000000000000000000000000000000000000000000000145c145c145c",
  "nTx": 1,
  "previousblockhash": "00000000994224fb25bdb3642854d2c03137272675b05516e478dac3323873be",
  "nextblockhash": "00000000db30aefe9e1dd65c55d9bf2d28655f5ba8e557fa19fab50731304b7a",
  "strippedsize": 216,
  "size": 216,
  "weight": 864,
  "tx": [
    {
      "txid": "a46a288e439f636efa0dacc94041a7f9998f8820a4ea9d9b1dd43d740e09e733",
      "hash": "a46a288e439f636efa0dacc94041a7f9998f8820a4ea9d9b1dd43d740e09e733",
      "version": 1,
      "size": 135,
      "vsize": 135,
      "weight": 540,
      "locktime": 0,
      "vin": [
        {
          "coinbase": "04ffff001d02d704",
          "sequence": 4294967295
        }
      ],
      "vout": [
        {
          "value": 50.0,
          "n": 0,
          "scriptPubKey": {
            "asm": "041a2c7895180bb7f1c174a208f632983450936aca28d8d05bca6341ccce903202028afd9fb451d2a02f366e784e0b19bf121e6d0813d4c6912fd3b19c42b8538b OP_CHECKSIG",
            "desc": "pk(041a2c7895180bb7f1c174a208f632983450936aca28d8d05bca6341ccce903202028afd9fb451d2a02f366e784e0b19bf121e6d0813d4c6912fd3b19c42b8538b)#60fegvla",
            "hex": "41041a2c7895180bb7f1c174a208f632983450936aca28d8d05bca6341ccce903202028afd9fb451d2a02f366e784e0b19bf121e6d0813d4c6912fd3b19c42b8538bac",
            "type": "pubkey"
          }
        }
      ],
      "hex": "01000000010000000000000000000000000000000000000000000000000000000000000000ffffffff0804ffff001d02d704ffffffff0100f2052a010000004341041a2c7895180bb7f1c174a208f632983450936aca28d8d05bca6341ccce903202028afd9fb451d2a02f366e784e0b19bf121e6d0813d4c6912fd3b19c42b8538bac00000000"
    }
  ]
}