{
  "hash": "00000000d5fe6c3e1933e102f80a06050503d39177c4055f30efa6e68f53e632",
  "confirmations": 50570,
  "height": 2528,
  "version": 1,
  "versionHex": "00000001",
  "merkleroot": "5b20dce7603e892040f1e38f388c0fa062af45b1acbd67f9d78a6b683e2a3460",
  "time": 1233435545,
  "mediantime": 1233432682,
  "nonce": 2397095972,
  "bits": "1d00ffff",
  "difficulty": 1,
  "chainwork": "000000000000000000000000000000000000000000000000000009e109e109e1",
  "nTx": 1,
  "previousblockhash": "0000000016ef0ca7d0a7ee227ded3f37027c1c25a19aaa625e01a351a297f629",
  "nextblockhash": "000000001a3cb4676a0e06619cf40a6277b228b7d992ac29a90dd9f598d23793",
  "strippedsize": 216,
  "size": 216,
  "weight": 864,
  "tx": [
    {
      "txid": "5b20dce7603e892040f1e38f388c0fa062af45b1acbd67f9d78a6b683e2a3460",
      "hash": "5b20dce7603e892040f1e38f388c0fa062af45b1acbd67f9d78a6b683e2a3460",
      "version": 1,
      "size": 135,
      "vsize": 135,
      "weight": 540,
      "locktime": 0,
      "vin": [
        {
          "coinbase": "04ffff001d026f01",
          "sequence": 4294967295
        }
      ],
      "vout": [
        {
          "value": 50.0,
          "n": 0,
          "scriptPubKey": {
            "asm": "04c62ec476c58169bde9cb39ddab351dc0b97a469b7128166d63bc5e3889f369cb6cebb2609a317230077aec5d9c7cd693c21e58597b7a487f1088e23671c21715 OP_CHECKSIG",
            "desc": "pk(04c62ec476c58169bde9cb39ddab351dc0b97a469b7128166d63bc5e3889f369cb6cebb2609a317230077aec5d9c7cd693c21e58597b7a487f1088e23671c21715)#vf5wqrlh",
            "hex": "4104c62ec476c58169bde9cb39ddab351dc0b97a469b7128166d63bc5e3889f369cb6cebb2609a317230077aec5d9c7cd693c21e58597b7a487f1088e23671c21715ac",
            "type": "pubkey"
          }
        }
      ],
      "hex": "01000000010000000000000000000000000000000000000000000000000000000000000000ffffffff0804ffff001d026f01ffffffff0100f2052a01000000434104c62ec476c58169bde9cb39ddab351dc0b97a469b7128166d63bc5e3889f369cb6cebb2609a317230077aec5d9c7cd693c21e58597b7a487f1088e23671c21715ac00000000"
    }
  ]
}