{
  "hash": "00000000394cc54dee47569153413f1ccba4524d37746de5a74a1d2da3fadc32",
  "confirmations": 46928,
  "height": 6170,
  "version": 1,
  "versionHex": "00000001",
  "merkleroot": "faeb99fa026671e65d9040e418389c5b3faa7a119d571fe8dcb1940997fb6265",
  "time": 1236068089,
  "mediantime": 1236063344,
  "nonce": 1765046016,
  "bits": "1d00ffff",
  "difficulty": 1,
  "chainwork": "0000000000000000000000000000000000000000000000000000181b181b181b",
  "nTx": 1,
  "previousblockhash": "00000000207f82482acd5234af357c2646a304c5fef2e41473d051cc89438cec",
  "nextblockhash": "00000000a13aa7ed9fd62a5c4597457a12c2ebabb403a148f87695a2fbbf5eb1",
  "strippedsize": 216,
  "size": 216,
  "weight": 864,
  "tx": [
    {
      "txid": "faeb99fa026671e65d9040e418389c5b3faa7a119d571fe8dcb1940997fb6265",
      "hash": "faeb99fa026671e65d9040e418389c5b3faa7a119d571fe8dcb1940997fb6265",
      "version": 1,
      "size": 135,
      "vsize": 135,
      "weight": 540,
      "locktime": 0,
      "vin": [
        {
          "coinbase": "04ffff001d02f007",
          "sequence": 4294967295
        }
      ],
      "vout": [
        {
          "value": 50.0,
          "n": 0,
          "scriptPubKey": {
            "asm": "044ff7fab22cd6ca0990cbfdbf2f44541b9633d6c83e505821fddcfe5f4272c1634a9eebec9e185e8da81344bd25f69edd451b7f7bf2e0266ee3d6a1b8de149c1d OP_CHECKSIG",
            "desc": "pk(044ff7fab22cd6ca0990cbfdbf2f44541b9633d6c83e505821fddcfe5f4272c1634a9eebec9e185e8da81344bd25f69edd451b7f7bf2e0266ee3d6a1b8de149c1d)#qlvgr5fn",
            "hex": "41044ff7fab22cd6ca0990cbfdbf2f44541b9633d6c83e505821fddcfe5f4272c1634a9eebec9e185e8da81344bd25f69edd451b7f7bf2e0266ee3d6a1b8de149c1dac",
            "type": "pubkey"
          }
        }
      ],
      "hex": "01000000010000000000000000000000000000000000000000000000000000000000000000ffffffff0804ffff001d02f007ffffffff0100f2052a010000004341044ff7fab22cd6ca0990cbfdbf2f44541b9633d6c83e505821fddcfe5f4272c1634a9eebec9e185e8da81344bd25f69edd451b7f7bf2e0266ee3d6a1b8de149c1dac00000000"
    }
  ]
}