{
  "hash": "0000000004908e475fe3d92314ebd85b856e9ec677f13ee350e5648d6074a66a",
  "confirmations": 45214,
  "height": 7884,
  "version": 1,
  "versionHex": "00000001",
  "merkleroot": "26af0bf2caa3e9da9b706b37801dd8f0947ead349d8e455ed772fda2d4019008",
  "time": 1237380767,
  "mediantime": 1237376784,
  "nonce": 51617006,
  "bits": "1d00ffff",
  "difficulty": 1,
  "chainwork": "00000000000000000000000000000000000000000000000000001ecd1ecd1ecd",
  "nTx": 1,
  "previousblockhash": "0000000085a194d6ee90ede2b2ec84909ae810a659960dce5e3ee878b1b63384",
  "nextblockhash": "00000000d38e48295d524d9e7fb073069dd1b59b4a209c681814150c9f7265e1",
  "strippedsize": 216,
  "size": 216,
  "weight": 864,
  "tx": [
    {
      "txid": "26af0bf2caa3e9da9b706b37801dd8f0947ead349d8e455ed772fda2d4019008",
      "hash": "26af0bf2caa3e9da9b706b37801dd8f0947ead349d8e455ed772fda2d4019008",
      "version": 1,
      "size": 135,
      "vsize": 135,
      "weight": 540,
      "locktime": 0,
      "vin": [
        {
          "coinbase": "04ffff001d027d09",
          "sequence": 4294967295
        }
      ],
      "vout": [
        {
          "value": 50.0,
          "n": 0,
          "scriptPubKey": {
            "asm": "04689c85d1bcfd7889d5186b0ef8986053c8f1ef23281636c9508ca7e66f9c3f75e65ab208de3c95668aa651893e007c5cf1fc5238bd4c4c125515c6f9275d65db OP_CHECKSIG",
            "desc": "pk(04689c85d1bcfd7889d5186b0ef8986053c8f1ef23281636c9508ca7e66f9c3f75e65ab208de3c95668aa651893e007c5cf1fc5238bd4c4c125515c6f9275d65db)#z99e6hhm",
            "hex": "4104689c85d1bcfd7889d5186b0ef8986053c8f1ef23281636c9508ca7e66f9c3f75e65ab208de3c95668aa651893e007c5cf1fc5238bd4c4c125515c6f9275d65dbac",
            "type": "pubkey"
          }
        }
      ],
      "hex": "01000000010000000000000000000000000000000000000000000000000000000000000000ffffffff0804ffff001d027d09ffffffff0100f2052a01000000434104689c85d1bcfd7889d5186b0ef8986053c8f1ef23281636c9508ca7e66f9c3f75e65ab208de3c95668aa651893e007c5cf1fc5238bd4c4c125515c6f9275d65dbac00000000"
    }
  ]
}