{
  "hash": "00000000f9c20fdda7029f3d5eda156b6b7d4d2b3b8b850b9dea839483e145b6",
  "confirmations": 52085,
  "height": 1013,
  "version": 1,
  "versionHex": "00000001",
  "merkleroot": "efa8ed947aea5f464c1e3739f2334236ffdb8437100a2290b96b688912fa3d1d",
  "time": 1232358388,
  "mediantime": 1232354420,
  "nonce": 119561988,
  "bits": "1d00ffff",
  "difficulty": 1,
  "chainwork": "000000000000000000000000000000000000000000000000000003f603f603f6",
  "nTx": 1,
  "previousblockhash": "000000002048a8c44e5fcc9b0f19b2ed1fe2c63842ef88c9a29f54607087dc32",
  "nextblockhash": "00000000d2fb950a997c3a5f555ae3485293dc972bb2baa396283006fe3230dd",
  "strippedsize": 216,
  "size": 216,
  "weight": 864,
  "tx": [
    {
      "txid": "efa8ed947aea5f464c1e3739f2334236ffdb8437100a2290b96b688912fa3d1d",
      "hash": "efa8ed947aea5f464c1e3739f2334236ffdb8437100a2290b96b688912fa3d1d",
      "version": 1,
      "size": 135,
      "vsize": 135,
      "weight": 540,
      "locktime": 0,
      "vin": [
        {
          "coinbase": "04ffff001d024205",
          "sequence": 4294967295
        }
      ],
      "vout": [
        {
          "value": 50.0,
          "n": 0,
          "scriptPubKey": {
            "asm": "04f449e47fe5fcab36158f06a2b5d47618cb0cbe04edef7d418e08f34cfb8aed323d3df54397135e308cd921170f2308a1f84b05c6e1bc36be71ccb5776fbb6a5d OP_CHECKSIG",
            "desc": "pk(04f449e47fe5fcab36158f06a2b5d47618cb0cbe04edef7d418e08f34cfb8aed323d3df54397135e308cd921170f2308a1f84b05c6e1bc36be71ccb5776fbb6a5d)#nvv6twap",
            "hex": "4104f449e47fe5fcab36158f06a2b5d47618cb0cbe04edef7d418e08f34cfb8aed323d3df54397135e308cd921170f2308a1f84b05c6e1bc36be71ccb5776fbb6a5dac",
            "type": "pubkey"
          }
        }
      ],
      "hex": "01000000010000000000000000000000000000000000000000000000000000000000000000ffffffff0804ffff001d024205ffffffff0100f2052a01000000434104f449e47fe5fcab36158f06a2b5d47618cb0cbe04edef7d418e08f34cfb8aed323d3df54397135e308cd921170f2308a1f84b05c6e1bc36be71ccb5776fbb6a5dac00000000"
    }
  ]
}