{
  "hash": "0000000004c49f339a7672fb0f63328568728bd9740deefc271b9d0c29e61523",
  "confirmations": 50167,
  "height": 2931,
  "version": 1,
  "versionHex": "00000001",
  "merkleroot": "83d9f4815df51a74648f318d645f16608c3f37fde7fa7636c3cdd743f097a072",
  "time": 1233711440,
  "mediantime": 1233708027,
  "nonce": 3102621975,
  "bits": "1d00ffff",
  "difficulty": 1,
  "chainwork": "00000000000000000000000000000000000000000000000000000b740b740b74",
  "nTx": 1,
  "previousblockhash": "00000000d3bd57b12059b89b44344d6abee81321a1acfe178cb485be63ece6e7",
  "nextblockhash": "00000000f1687149c9658dfc89186a4404d3650a5674c3fba114c08f4355fb64",
  "strippedsize": 215,
  "size": 215,
  "weight": 860,
  "tx": [
    {
      "txid": "83d9f4815df51a74648f318d645f16608c3f37fde7fa7636c3cdd743f097a072",
      "hash": "83d9f4815df51a74648f318d645f16608c3f37fde7fa7636c3cdd743f097a072",
      "version": 1,
      "size": 134,
      "vsize": 134,
      "weight": 536,
      "locktime": 0,
      "vin": [
        {
          "coinbase": "04ffff001d013e",
          "sequence": 4294967295
        }
      ],
      "vout": [
        {
          "value": 50.0,
          "n": 0,
          "scriptPubKey": {
            "asm": "0455eb552c9aa3838886a1de7383f95ccdba08d0077118eaa83cb20ffb0413dea745dd905d0388754c1286c124097725c2e10fd99902af22357133efadad337b0c OP_CHECKSIG",
            "desc": "pk(0455eb552c9aa3838886a1de7383f95ccdba08d0077118eaa83cb20ffb0413dea745dd905d0388754c1286c124097725c2e10fd99902af22357133efadad337b0c)#ltms3zlu",
            "hex": "410455eb552c9aa3838886a1de7383f95ccdba08d0077118eaa83cb20ffb0413dea745dd905d0388754c1286c124097725c2e10fd99902af22357133efadad337b0cac",
            "type": "pubkey"
          }
        }
      ],
      "hex": "01000000010000000000000000000000000000000000000000000000000000000000000000ffffffff0704ffff001d013effffffff0100f2052a0100000043410455eb552c9aa3838886a1de7383f95ccdba08d0077118eaa83cb20ffb0413dea745dd905d0388754c1286c124097725c2e10fd99902af22357133efadad337b0cac00000000"
    }
  ]
}