{
  "hash": "0000000050fee4db745e655a222e46f9efbb70f1f97d78d75903e0ef70540e42",
  "confirmations": 43401,
  "height": 9697,
  "version": 1,
  "versionHex": "00000001",
  "merkleroot": "4111b5c113a2f374db41092c4afd5b9cb52a2ebdbc1215b27000094b4616b13c",
  "time": 1238775107,
  "mediantime": 1238772359,
  "nonce": 357753860,
  "bits": "1d00ffff",
  "difficulty": 1,
  "chainwork": "000000000000000000000000000000000000000000000000000025e225e225e2",
  "nTx": 1,
  "previousblockhash": "000000002315c8f1c413dbbe1ff7b8125885809255a42980e14307e7b625d327",
  "nextblockhash": "000000003c0c87bfe19edc6b6896955baf3ba562203870f1737e253aca5b5412",
  "strippedsize": 216,
  "size": 216,
  "weight": 864,
  "tx": [
    {
      "txid": "4111b5c113a2f374db41092c4afd5b9cb52a2ebdbc1215b27000094b4616b13c",
      "hash": "4111b5c113a2f374db41092c4afd5b9cb52a2ebdbc1215b27000094b4616b13c",
      "version": 1,
      "size": 135,
      "vsize": 135,
      "weight": 540,
      "locktime": 0,
      "vin": [
        {
          "coinbase": "04ffff001d025808",
          "sequence": 4294967295
        }
      ],
      "vout": [
        {
          "value": 50.0,
          "n": 0,
          "scriptPubKey": {
            "asm": "04b6818710ed07c8ac5aac1c9990c180db266e5924c92deb7092e8eec43dd24c281b6572eeeef847795d16b927176304375a5c2fae3d47fdfb4e3fb23aa422e03c OP_CHECKSIG",
            "desc": "pk(04b6818710ed07c8ac5aac1c9990c180db266e5924c92deb7092e8eec43dd24c281b6572eeeef847795d16b927176304375a5c2fae3d47fdfb4e3fb23aa422e03c)#un0tgv9c",
            "hex": "4104b6818710ed07c8ac5aac1c9990c180db266e5924c92deb7092e8eec43dd24c281b6572eeeef847795d16b927176304375a5c2fae3d47fdfb4e3fb23aa422e03cac",
            "type": "pubkey"
          }
        }
      ],
      "hex": "01000000010000000000000000000000000000000000000000000000000000000000000000ffffffff0804ffff001d025808ffffffff0100f2052a01000000434104b6818710ed07c8ac5aac1c9990c180db266e5924c92deb7092e8eec43dd24c281b6572eeeef847795d16b927176304375a5c2fae3d47fdfb4e3fb23aa422e03cac00000000"
    }
  ]
}