{
  "hash": "00000000348039e8d178858611718957e6f8276875638bce6aff8bd6d8e46aed",
  "confirmations": 45663,
  "height": 7435,
  "version": 1,
  "versionHex": "00000001",
  "merkleroot": "1d3ddb2d848b3c30d1729b149361e9a36c73afa845e38bfc4b50056622ccedbf",
  "time": 1237049576,
  "mediantime": 1237045148,
  "nonce": 4136764458,
  "bits": "1d00ffff",
  "difficulty": 1,
  "chainwork": "00000000000000000000000000000000000000000000000000001d0c1d0c1d0c",
  "nTx": 1,
  "previousblockhash": "00000000cb08aaaa6c03526aa0d8bda289575622284b66aa5a9aec7cfa97073b",
  "nextblockhash": "0000000087de57fc9b594b637aa9712042d6ecc17aa605a298a81301f7e9ea22",
  "strippedsize": 216,
  "size": 216,
  "weight": 864,
  "tx": [
    {
      "txid": "1d3ddb2d848b3c30d1729b149361e9a36c73afa845e38bfc4b50056622ccedbf",
      "hash": "1d3ddb2d848b3c30d1729b149361e9a36c73afa845e38bfc4b50056622ccedbf",
      "version": 1,
      "size": 135,
      "vsize": 135,
      "weight": 540,
      "locktime": 0,
      "vin": [
        {
          "coinbase": "04ffff001d021b0a",
          "sequence": 4294967295
        }
      ],
      "vout": [
        {
          "value": 50.0,
          "n": 0,
          "scriptPubKey": {
            "asm": "04d0f5befd9878e06b343e72eb9b47ebe8c26edff3761e94f3c3868d26e7c4248c10382451f385244a27400f80ba69ccb10136f17affc9b545ff7af53d73042dfb OP_CHECKSIG",
            "desc": "pk(04d0f5befd9878e06b343e72eb9b47ebe8c26edff3761e94f3c3868d26e7c4248c10382451f385244a27400f80ba69ccb10136f17affc9b545ff7af53d73042dfb)#jpvm5sas",
            "hex": "4104d0f5befd9878e06b343e72eb9b47ebe8c26edff3761e94f3c3868d26e7c4248c10382451f385244a27400f80ba69ccb10136f17affc9b545ff7af53d73042dfbac",
            "type": "pubkey"
          }
        }
      ],
      "hex": "01000000010000000000000000000000000000000000000000000000000000000000000000ffffffff0804ffff001d021b0affffffff0100f2052a01000000434104d0f5befd9878e06b343e72eb9b47ebe8c26edff3761e94f3c3868d26e7c4248c10382451f385244a27400f80ba69ccb10136f17affc9b545ff7af53d73042dfbac00000000"
    }
  ]
}