{
  "hash": "000000007bf41fadd7421e34b71f9e0f6accc14a323836e1bc8cc8445c9ebdfb",
  "confirmations": 45930,
  "height": 7168,
  "version": 1,
  "versionHex": "00000001",
  "merkleroot": "9dcd471f8fe9f08ed816205362de305d5393e31e2ee182598edb8df40c9f673c",
  "time": 1236847763,
  "mediantime": 1236843256,
  "nonce": 183093555,
  "bits": "1d00ffff",
  "difficulty": 1,
  "chainwork": "00000000000000000000000000000000000000000000000000001c011c011c01",
  "nTx": 1,
  "previousblockhash": "00000000d36f52dea96dba970bebce469442d89507eb5bf5b39991755b6e791f",
  "nextblockhash": "00000000483323979be9d096b592449ee0bfdf14cd4d8ce92f929777469467f5",
  "strippedsize": 216,
  "size": 216,
  "weight": 864,
  "tx": [
    {
      "txid": "9dcd471f8fe9f08ed816205362de305d5393e31e2ee182598edb8df40c9f673c",
      "hash": "9dcd471f8fe9f08ed816205362de305d5393e31e2ee182598edb8df40c9f673c",
      "version": 1,
      "size": 135,
      "vsize": 135,
      "weight": 540,
      "locktime": 0,
      "vin": [
        {
          "coinbase": "04ffff001d022a05",
          "sequence": 4294967295
        }
      ],
      "vout": [
        {
          "value": 50.0,
          "n": 0,
          "scriptPubKey": {
            "asm": "04548b53acfb92798836f62e2b5f5f6354f5a6808c230198cd83166a78c64a27457a2746c7fd329f57b3f3c6173af14bf9f310600cd1a6684d46c34114d6969940 OP_CHECKSIG",
            "desc": "pk(04548b53acfb92798836f62e2b5f5f6354f5a6808c230198cd83166a78c64a27457a2746c7fd329f57b3f3c6173af14bf9f310600cd1a6684d46c34114d6969940)#2ur68gle",
            "hex": "4104548b53acfb92798836f62e2b5f5f6354f5a6808c230198cd83166a78c64a27457a2746c7fd329f57b3f3c6173af14bf9f310600cd1a6684d46c34114d6969940ac",
            "type": "pubkey"
          }
        }
      ],
      "hex": "01000000010000000000000000000000000000000000000000000000000000000000000000ffffffff0804ffff001d022a05ffffffff0100f2052a01000000434104548b53acfb92798836f62e2b5f5f6354f5a6808c230198cd83166a78c64a27457a2746c7fd329f57b3f3c6173af14bf9f310600cd1a6684d46c34114d6969940ac00000000"
    }
  ]
}