{
  "hash": "0000000063111563901347f960324f320cfa61eb98beb60185a640068ac87f77",
  "confirmations": 52206,
  "height": 892,
  "version": 1,
  "versionHex": "00000001",
  "merkleroot": "c2abeca18a8f63ae6099184205ff927ad79e1228a91dd810dd904f53f134c4b8",
  "time": 1232268076,
  "mediantime": 1232262926,
  "nonce": 1533448968,
  "bits": "1d00ffff",
  "difficulty": 1,
  "chainwork": "0000000000000000000000000000000000000000000000000000037d037d037d",
  "nTx": 1,
  "previousblockhash": "000000008c9c8237506968afb5fdd89a970bb2a3a149b6234293e054f6c6ef52",
  "nextblockhash": "0000000001713f321b78d3333243e7f4f66ebf7113e534e771791b5aa876774e",
  "strippedsize": 216,
  "size": 216,
  "weight": 864,
  "tx": [
    {
      "txid": "c2abeca18a8f63ae6099184205ff927ad79e1228a91dd810dd904f53f134c4b8",
      "hash": "c2abeca18a8f63ae6099184205ff927ad79e1228a91dd810dd904f53f134c4b8",
      "version": 1,
      "size": 135,
      "vsize": 135,
      "weight": 540,
      "locktime": 0,
      "vin": [
        {
          "coinbase": "04ffff001d027d03",
          "sequence": 4294967295
        }
      ],
      "vout": [
        {
          "value": 50.0,
          "n": 0,
          "scriptPubKey": {
            "asm": "04d623a85e09bc8b0cc914815914393c98142e049e8c75ca3fd71e50c025e01d2df499eaf8ac47f6fcd86ed496380eb1946bd74655063bc1e08d717a70a8d7c9ca OP_CHECKSIG",
            "desc": "pk(04d623a85e09bc8b0cc914815914393c98142e049e8c75ca3fd71e50c025e01d2df499eaf8ac47f6fcd86ed496380eb1946bd74655063bc1e08d717a70a8d7c9ca)#p5thejgg",
            "hex": "4104d623a85e09bc8b0cc914815914393c98142e049e8c75ca3fd71e50c025e01d2df499eaf8ac47f6fcd86ed496380eb1946bd74655063bc1e08d717a70a8d7c9caac",
            "type": "pubkey"
          }
        }
      ],
      "hex": "01000000010000000000000000000000000000000000000000000000000000000000000000ffffffff0804ffff001d027d03ffffffff0100f2052a01000000434104d623a85e09bc8b0cc914815914393c98142e049e8c75ca3fd71e50c025e01d2df499eaf8ac47f6fcd86ed496380eb1946bd74655063bc1e08d717a70a8d7c9caac00000000"
    }
  ]
}