{
  "hash": "0000000065fb3894ac8259bdeca36b7c7e602602b63d411ba82a28e8f917e6c7",
  "confirmations": 47511,
  "height": 5587,
  "version": 1,
  "versionHex": "00000001",
  "merkleroot": "d72fe906ae95cfb3bc65f5ec5eb5dc04264a1547d2212447354f9f5771116361",
  "time": 1235589647,
  "mediantime": 1235587417,
  "nonce": 3328945189,
  "bits": "1d00ffff",
  "difficulty": 1,
  "chainwork": "000000000000000000000000000000000000000000000000000015d415d415d4",
  "nTx": 1,
  "previousblockhash": "00000000e4994b7328ab08b81a8c9f8653718d74bc5b0b107faa4533eaf6346a",
  "nextblockhash": "000000007314d0d5728eac04a7549becea8938b99a6c37171eba1c4948784f1d",
  "strippedsize": 216,
  "size": 216,
  "weight": 864,
  "tx": [
    {
      "txid": "d72fe906ae95cfb3bc65f5ec5eb5dc04264a1547d2212447354f9f5771116361",
      "hash": "d72fe906ae95cfb3bc65f5ec5eb5dc04264a1547d2212447354f9f5771116361",
      "version": 1,
      "size": 135,
      "vsize": 135,
      "weight": 540,
      "locktime": 0,
      "vin": [
        {
          "coinbase": "04ffff001d026207",
          "sequence": 4294967295
        }
      ],
      "vout": [
        {
          "value": 50.0,
          "n": 0,
          "scriptPubKey": {
            "asm": "04494d8aa973e8952ab2b6d8f01a0f5300905dfa4afc63ddcea408a86ee721459383433d89b8d96358ea9a27dfd6f1aa479769c976d0bdfac6944b92835fb58da4 OP_CHECKSIG",
            "desc": "pk(04494d8aa973e8952ab2b6d8f01a0f5300905dfa4afc63ddcea408a86ee721459383433d89b8d96358ea9a27dfd6f1aa479769c976d0bdfac6944b92835fb58da4)#4345ganf",
            "hex": "4104494d8aa973e8952ab2b6d8f01a0f5300905dfa4afc63ddcea408a86ee721459383433d89b8d96358ea9a27dfd6f1aa479769c976d0bdfac6944b92835fb58da4ac",
            "type": "pubkey"
          }
        }
      ],
      "hex": "01000000010000000000000000000000000000000000000000000000000000000000000000ffffffff0804ffff001d026207ffffffff0100f2052a01000000434104494d8aa973e8952ab2b6d8f01a0f5300905dfa4afc63ddcea408a86ee721459383433d89b8d96358ea9a27dfd6f1aa479769c976d0bdfac6944b92835fb58da4ac00000000"
    }
  ]
}