{
  "hash": "00000000a32fd98532b4bd1ca90c491e83d27d3238591bb93fddd080e903703c",
  "confirmations": 52408,
  "height": 690,
  "version": 1,
  "versionHex": "00000001",
  "merkleroot": "b18b8b4800ee32ea4433e60618c2322b8b4d2c9512d2c7d70e82b449205415e9",
  "time": 1232100266,
  "mediantime": 1232097041,
  "nonce": 1262565922,
  "bits": "1d00ffff",
  "difficulty": 1,
  "chainwork": "000000000000000000000000000000000000000000000000000002b302b302b3",
  "nTx": 1,
  "previousblockhash": "000000004f51ff3b75ee624c32e5b1fdc911bd0c07104b00e192fd1d375fa452",
  "nextblockhash": "0000000074440db626bad7f813b59e6a0e1328ae4205a2c5209e031b42c31ab7",
  "strippedsize": 216,
  "size": 216,
  "weight": 864,
  "tx": [
    {
      "txid": "b18b8b4800ee32ea4433e60618c2322b8b4d2c9512d2c7d70e82b449205415e9",
      "hash": "b18b8b4800ee32ea4433e60618c2322b8b4d2c9512d2c7d70e82b449205415e9",
      "version": 1,
      "size": 135,
      "vsize": 135,
      "weight": 540,
      "locktime": 0,
      "vin": [
        {
          "coinbase": "04ffff001d02ab00",
          "sequence": 4294967295
        }
      ],
      "vout": [
        {
          "value": 50.0,
          "n": 0,
          "scriptPubKey": {
            "asm": "04c79b9d912366b4705074cbdda562cba63bb8762763e04305988fa1dc7133be998d044776af0e2dca4d98934c2c847407d92d4ed22f47419e99f46e78139e25fe OP_CHECKSIG",
            "desc": "pk(04c79b9d912366b4705074cbdda562cba63bb8762763e04305988fa1dc7133be998d044776af0e2dca4d98934c2c847407d92d4ed22f47419e99f46e78139e25fe)#l293n3ql",
            "hex": "4104c79b9d912366b4705074cbdda562cba63bb8762763e04305988fa1dc7133be998d044776af0e2dca4d98934c2c847407d92d4ed22f47419e99f46e78139e25feac",
            "type": "pubkey"
          }
        }
      ],
      "hex": "01000000010000000000000000000000000000000000000000000000000000000000000000ffffffff0804ffff001d02ab00ffffffff0100f2052a01000000434104c79b9d912366b4705074cbdda562cba63bb8762763e04305988fa1dc7133be998d044776af0e2dca4d98934c2c847407d92d4ed22f47419e99f46e78139e25feac00000000"
    }
  ]
}