{
  "hash": "000000009ffcefd1e0d8cfc8defaf8fa597c82cef1ec88a577ebf9dce34c9379",
  "confirmations": 50270,
  "height": 2828,
  "version": 1,
  "versionHex": "00000001",
  "merkleroot": "73db7608c49d6a9b9854f1d2292754198b39c49bafd50d63df18b2dff4f26249",
  "time": 1233643589,
  "mediantime": 1233641557,
  "nonce": 3927196720,
  "bits": "1d00ffff",
  "difficulty": 1,
  "chainwork": "00000000000000000000000000000000000000000000000000000b0d0b0d0b0d",
  "nTx": 1,
  "previousblockhash": "000000005fc6aba2ca4495b7f54f27acb10411144a0b7ee392d8ed9d3727607b",
  "nextblockhash": "0000000012d8999e42e708bc07f05c29c4295e05578ea27db36767903d19a5d5",
  "strippedsize": 216,
  "size": 216,
  "weight": 864,
  "tx": [
    {
      "txid": "73db7608c49d6a9b9854f1d2292754198b39c49bafd50d63df18b2dff4f26249",
      "hash": "73db7608c49d6a9b9854f1d2292754198b39c49bafd50d63df18b2dff4f26249",
      "version": 1,
      "size": 135,
      "vsize": 135,
      "weight": 540,
      "locktime": 0,
      "vin": [
        {
          "coinbase": "04ffff001d026906",
          "sequence": 4294967295
        }
      ],
      "vout": [
        {
          "value": 50.0,
          "n": 0,
          "scriptPubKey": {
            "asm": "04e9d5fe1e69bf31f71e44f0bdd6d9504354369a472db413213a70b93b1497f3c8807da50cc9b0e41e5e22ebb2399c9cdefe5a0b6cdd5831442ee890ab52571558 OP_CHECKSIG",
            "desc": "pk(04e9d5fe1e69bf31f71e44f0bdd6d9504354369a472db413213a70b93b1497f3c8807da50cc9b0e41e5e22ebb2399c9cdefe5a0b6cdd5831442ee890ab52571558)#6tadsers",
            "hex": "4104e9d5fe1e69bf31f71e44f0bdd6d9504354369a472db413213a70b93b1497f3c8807da50cc9b0e41e5e22ebb2399c9cdefe5a0b6cdd5831442ee890ab52571558ac",
            "type": "pubkey"
          }
        }
      ],
      "hex": "01000000010000000000000000000000000000000000000000000000000000000000000000ffffffff0804ffff001d026906ffffffff0100f2052a01000000434104e9d5fe1e69bf31f71e44f0bdd6d9504354369a472db413213a70b93b1497f3c8807da50cc9b0e41e5e22ebb2399c9cdefe5a0b6cdd5831442ee890ab52571558ac00000000"
    }
  ]
}