{
  "hash": "00000000f6a31af28cfe8839f21bf7111283bedb001373f206f86067303355bc",
  "confirmations": 50104,
  "height": 2994,
  "version": 1,
  "versionHex": "00000001",
  "merkleroot": "229917bd80f2284dd7a22559749d2e3e4cdc8bc9fb96e4f1e4122fb6c1376ff9",
  "time": 1233756963,
  "mediantime": 1233753509,
  "nonce": 1672784941,
  "bits": "1d00ffff",
  "difficulty": 1,
  "chainwork": "00000000000000000000000000000000000000000000000000000bb30bb30bb3",
  "nTx": 1,
  "previousblockhash": "00000000f8931bdde30492fb78166a0c705306dcde00db5fc850a7b300ba0638",
  "nextblockhash": "00000000370965aeef98866ebed666de48547ec392759e178f2f2f34f73577ed",
  "strippedsize": 216,
  "size": 216,
  "weight": 864,
  "tx": [
    {
      "txid": "229917bd80f2284dd7a22559749d2e3e4cdc8bc9fb96e4f1e4122fb6c1376ff9",
      "hash": "229917bd80f2284dd7a22559749d2e3e4cdc8bc9fb96e4f1e4122fb6c1376ff9",
      "version": 1,
      "size": 135,
      "vsize": 135,
      "weight": 540,
      "locktime": 0,
      "vin": [
        {
          "coinbase": "04ffff001d025101",
          "sequence": 4294967295
        }
      ],
      "vout": [
        {
          "value": 50.0,
          "n": 0,
          "scriptPubKey": {
            "asm": "04ed63abff809edfa5d441f8d1769a6dd30325ec2c6a1386b63f575d18927c025411b0885b2b7f2f6c421d67be1927007b0ef2424d3bdb853f0b86a290ac833fa4 OP_CHECKSIG",
            "desc": "pk(04ed63abff809edfa5d441f8d1769a6dd30325ec2c6a1386b63f575d18927c025411b0885b2b7f2f6c421d67be1927007b0ef2424d3bdb853f0b86a290ac833fa4)#vv0lsgff",
            "hex": "4104ed63abff809edfa5d441f8d1769a6dd30325ec2c6a1386b63f575d18927c025411b0885b2b7f2f6c421d67be1927007b0ef2424d3bdb853f0b86a290ac833fa4ac",
            "type": "pubkey"
          }
        }
      ],
      "hex": "01000000010000000000000000000000000000000000000000000000000000000000000000ffffffff0804ffff001d025101ffffffff0100f2052a01000000434104ed63abff809edfa5d441f8d1769a6dd30325ec2c6a1386b63f575d18927c025411b0885b2b7f2f6c421d67be1927007b0ef2424d3bdb853f0b86a290ac833fa4ac00000000"
    }
  ]
}