{
  "hash": "00000000abb4dfabd0c9a846b7881f95f1cbb09aac9b6cb6c3e892c9cb05377a",
  "confirmations": 46359,
  "height": 6739,
  "version": 1,
  "versionHex": "00000001",
  "merkleroot": "993f06290e2e65a51ff28bcf584b43ee06c87f24b2e9820ef180c5ca820d38c8",
  "time": 1236510693,
  "mediantime": 1236507308,
  "nonce": 2595363330,
  "bits": "1d00ffff",
  "difficulty": 1,
  "chainwork": "00000000000000000000000000000000000000000000000000001a541a541a54",
  "nTx": 1,
  "previousblockhash": "00000000c2bd9f137f8e98e81660515a3310c92ef070114099e62dcb00e596d2",
  "nextblockhash": "000000007f533ee5c11b5b8e71e07a960ac16482a0e1c9a53843330f0bb3cfcd",
  "strippedsize": 216,
  "size": 216,
  "weight": 864,
  "tx": [
    {
      "txid": "993f06290e2e65a51ff28bcf584b43ee06c87f24b2e9820ef180c5ca820d38c8",
      "hash": "993f06290e2e65a51ff28bcf584b43ee06c87f24b2e9820ef180c5ca820d38c8",
      "version": 1,
      "size": 135,
      "vsize": 135,
      "weight": 540,
      "locktime": 0,
      "vin": [
        {
          "coinbase": "04ffff001d02f607",
          "sequence": 4294967295
        }
      ],
      "vout": [
        {
          "value": 50.0,
          "n": 0,
          "scriptPubKey": {
            "asm": "044fd4b9ba7b15d6777cb924621a5272e461bc58b0a45ea9ccf1f8a4f9d8909f26aea70900629c3b30e85ea2a7bf9123f0c0d760a52672af8db9b194aa91998bb4 OP_CHECKSIG",
            "desc": "pk(044fd4b9ba7b15d6777cb924621a5272e461bc58b0a45ea9ccf1f8a4f9d8909f26aea70900629c3b30e85ea2a7bf9123f0c0d760a52672af8db9b194aa91998bb4)#wj07uq8u",
            "hex": "41044fd4b9ba7b15d6777cb924621a5272e461bc58b0a45ea9ccf1f8a4f9d8909f26aea70900629c3b30e85ea2a7bf9123f0c0d760a52672af8db9b194aa91998bb4ac",
            "type": "pubkey"
          }
        }
      ],
      "hex": "01000000010000000000000000000000000000000000000000000000000000000000000000ffffffff0804ffff001d02f607ffffffff0100f2052a010000004341044fd4b9ba7b15d6777cb924621a5272e461bc58b0a45ea9ccf1f8a4f9d8909f26aea70900629c3b30e85ea2a7bf9123f0c0d760a52672af8db9b194aa91998bb4ac00000000"
    }
  ]
}