{
  "hash": "00000000e15a133d75d10d57785caa5092d7c7bd2a6d8adb4b6bc4a04cf6016d",
  "confirmations": 47271,
  "height": 5827,
  "version": 1,
  "versionHex": "00000001",
  "merkleroot": "9b348df53778173b6dc3c919ff57ce0c8cd4465b68815ac23f0f25bd1ec7df64",
  "time": 1235780824,
  "mediantime": 1235776258,
  "nonce": 2273641752,
  "bits": "1d00ffff",
  "difficulty": 1,
  "chainwork": "000000000000000000000000000000000000000000000000000016c416c416c4",
  "nTx": 1,
  "previousblockhash": "0000000020db9e9e3b94795ac258ed892816d54aea7954d9884fcc6529f1231c",
  "nextblockhash": "000000009aa258286ef2b93b9e9f435db70027bb8c67af64709500da5eeac52b",
  "strippedsize": 216,
  "size": 216,
  "weight": 864,
  "tx": [
    {
      "txid": "9b348df53778173b6dc3c919ff57ce0c8cd4465b68815ac23f0f25bd1ec7df64",
      "hash": "9b348df53778173b6dc3c919ff57ce0c8cd4465b68815ac23f0f25bd1ec7df64",
      "version": 1,
      "size": 135,
      "vsize": 135,
      "weight": 540,
      "locktime": 0,
      "vin": [
        {
          "coinbase": "04ffff001d025801",
          "sequence": 4294967295
        }
      ],
      "vout": [
        {
          "value": 50.0,
          "n": 0,
          "scriptPubKey": {
            "asm": "049adf265fe2b2e0052f6874e6d679d18b96ae1f9cae1b5136a6fe8adad989df0b437ff69a50dbd563e3df0534ca7fa0cca0912fb2c49b318e3cc7f85cb4478325 OP_CHECKSIG",
            "desc": "pk(049adf265fe2b2e0052f6874e6d679d18b96ae1f9cae1b5136a6fe8adad989df0b437ff69a50dbd563e3df0534ca7fa0cca0912fb2c49b318e3cc7f85cb4478325)#96e9xmz5",
            "hex": "41049adf265fe2b2e0052f6874e6d679d18b96ae1f9cae1b5136a6fe8adad989df0b437ff69a50dbd563e3df0534ca7fa0cca0912fb2c49b318e3cc7f85cb4478325ac",
            "type": "pubkey"
          }
        }
      ],
      "hex": "01000000010000000000000000000000000000000000000000000000000000000000000000ffffffff0804ffff001d025801ffffffff0100f2052a010000004341049adf265fe2b2e0052f6874e6d679d18b96ae1f9cae1b5136a6fe8adad989df0b437ff69a50dbd563e3df0534ca7fa0cca0912fb2c49b318e3cc7f85cb4478325ac00000000"
    }
  ]
}