{
  "hash": "0000000098a71523ddd1970642b2f5a8991b5aa911d2681bf1d3fb9f4bde7be7",
  "confirmations": 44592,
  "height": 8506,
  "version": 1,
  "versionHex": "00000001",
  "merkleroot": "5b4ba812e65146204d284127ca75154a52d162f1b0579f2e72b316ee251b6d36",
  "time": 1237876002,
  "mediantime": 1237873559,
  "nonce": 1322539033,
  "bits": "1d00ffff",
  "difficulty": 1,
  "chainwork": "0000000000000000000000000000000000000000000000000000213b213b213b",
  "nTx": 1,
  "previousblockhash": "00000000d1cd5801237dd8d330e5e7076d13fe5b04b60ba5e986a58ff8bf1c4b",
  "nextblockhash": "00000000aae2c3b8318803a611280d3938930d820772e43f92254f7d1921c8d5",
  "strippedsize": 216,
  "size": 216,
  "weight": 864,
  "tx": [
    {
      "txid": "5b4ba812e65146204d284127ca75154a52d162f1b0579f2e72b316ee251b6d36",
      "hash": "5b4ba812e65146204d284127ca75154a52d162f1b0579f2e72b316ee251b6d36",
      "version": 1,
      "size": 135,
      "vsize": 135,
      "weight": 540,
      "locktime": 0,
      "vin": [
        {
          "coinbase": "04ffff001d02dd07",
          "sequence": 4294967295
        }
      ],
      "vout": [
        {
          "value": 50.0,
          "n": 0,
          "scriptPubKey": {
            "asm": "04028c8113741e3d34014591164bf3fa869b140217d9f113d39e0b5f2694d879f889d0009820b80ef0a70e162c8a73c791170cb074f403c58da96b9ddd25890e2b OP_CHECKSIG",
            "desc": "pk(04028c8113741e3d34014591164bf3fa869b140217d9f113d39e0b5f2694d879f889d0009820b80ef0a70e162c8a73c791170cb074f403c58da96b9ddd25890e2b)#5648yyw5",
            "hex": "4104028c8113741e3d34014591164bf3fa869b140217d9f113d39e0b5f2694d879f889d0009820b80ef0a70e162c8a73c791170cb074f403c58da96b9ddd25890e2bac",
            "type": "pubkey"
          }
        }
      ],
      "hex": "01000000010000000000000000000000000000000000000000000000000000000000000000ffffffff0804ffff001d02dd07ffffffff0100f2052a01000000434104028c8113741e3d34014591164bf3fa869b140217d9f113d39e0b5f2694d879f889d0009820b80ef0a70e162c8a73c791170cb074f403c58da96b9ddd25890e2bac00000000"
    }
  ]
}