{
  "hash": "000000007b9f43b5e27860a43978f7fcba15828e2bec39588a55626982f458be",
  "confirmations": 50252,
  "height": 2846,
  "version": 1,
  "versionHex": "00000001",
  "merkleroot": "febbfa8456312bf90d3bc393dde7cd2c668d4720f90dd23f2c0a460d02931827",
  "time": 1233656722,
  "mediantime": 1233653970,
  "nonce": 1302364163,
  "bits": "1d00ffff",
  "difficulty": 1,
  "chainwork": "00000000000000000000000000000000000000000000000000000b1f0b1f0b1f",
  "nTx": 1,
  "previousblockhash": "000000005ba013d9607fb586984c48bbb76b931be424abfc5b5be18c33df43aa",
  "nextblockhash": "00000000dbf82ee2e246552dbd1595d345c8f1abc995d3f289a60d6e4ab851b0",
  "strippedsize": 216,
  "size": 216,
  "weight": 864,
  "tx": [
    {
      "txid": "febbfa8456312bf90d3bc393dde7cd2c668d4720f90dd23f2c0a460d02931827",
      "hash": "febbfa8456312bf90d3bc393dde7cd2c668d4720f90dd23f2c0a460d02931827",
      "version": 1,
      "size": 135,
      "vsize": 135,
      "weight": 540,
      "locktime": 0,
      "vin": [
        {
          "coinbase": "04ffff001d02c206",
          "sequence": 4294967295
        }
      ],
      "vout": [
        {
          "value": 50.0,
          "n": 0,
          "scriptPubKey": {
            "asm": "04971fe61e8ef154a9f07c9877c2eea18ccd0d6449c2d8840b29b18f7b650c7f78092ab4847bf03c16d80d91d1c3c81fcff22b29e797eb687d0eb112cb4726fa2c OP_CHECKSIG",
            "desc": "pk(04971fe61e8ef154a9f07c9877c2eea18ccd0d6449c2d8840b29b18f7b650c7f78092ab4847bf03c16d80d91d1c3c81fcff22b29e797eb687d0eb112cb4726fa2c)#fmflqefw",
            "hex": "4104971fe61e8ef154a9f07c9877c2eea18ccd0d6449c2d8840b29b18f7b650c7f78092ab4847bf03c16d80d91d1c3c81fcff22b29e797eb687d0eb112cb4726fa2cac",
            "type": "pubkey"
          }
        }
      ],
      "hex": "01000000010000000000000000000000000000000000000000000000000000000000000000ffffffff0804ffff001d02c206ffffffff0100f2052a01000000434104971fe61e8ef154a9f07c9877c2eea18ccd0d6449c2d8840b29b18f7b650c7f78092ab4847bf03c16d80d91d1c3c81fcff22b29e797eb687d0eb112cb4726fa2cac00000000"
    }
  ]
}