{
  "hash": "000000003481ff5d71910856ce839f5941e659ec472297aef821489bc368d3ea",
  "confirmations": 46778,
  "height": 6320,
  "version": 1,
  "versionHex": "00000001",
  "merkleroot": "098e1a6fa51023bdcf7c185ab7fb5a34384f8da6b229236d0ac1d97445d1efe6",
  "time": 1236188241,
  "mediantime": 1236183771,
  "nonce": 446000172,
  "bits": "1d00ffff",
  "difficulty": 1,
  "chainwork": "000000000000000000000000000000000000000000000000000018b118b118b1",
  "nTx": 1,
  "previousblockhash": "000000000d6d4a20d139d57985a6717a4583fad5b5b904a6706db831b9c8ec81",
  "nextblockhash": "00000000a6031e902c3cb08d4988b0d06d25c85ebb13f43a6afd12b759d21df8",
  "strippedsize": 215,
  "size": 215,
  "weight": 860,
  "tx": [
    {
      "txid": "098e1a6fa51023bdcf7c185ab7fb5a34384f8da6b229236d0ac1d97445d1efe6",
      "hash": "098e1a6fa51023bdcf7c185ab7fb5a34384f8da6b229236d0ac1d97445d1efe6",
      "version": 1,
      "size": 134,
      "vsize": 134,
      "weight": 536,
      "locktime": 0,
      "vin": [
        {
          "coinbase": "04ffff001d0175",
          "sequence": 4294967295
        }
      ],
      "vout": [
        {
          "value": 50.0,
          "n": 0,
          "scriptPubKey": {
            "asm": "04f2785eefd75e8684e93e65a2844ff5ee10e8a46442c90ea33e3b9c672c8ec71a0724fe153135e386de71abc4b081ffa0aabc4b4c048401305c55c802703df767 OP_CHECKSIG",
            "desc": "pk(04f2785eefd75e8684e93e65a2844ff5ee10e8a46442c90ea33e3b9c672c8ec71a0724fe153135e386de71abc4b081ffa0aabc4b4c048401305c55c802703df767)#h26jpmyg",
            "hex": "4104f2785eefd75e8684e93e65a2844ff5ee10e8a46442c90ea33e3b9c672c8ec71a0724fe153135e386de71abc4b081ffa0aabc4b4c048401305c55c802703df767ac",
            "type": "pubkey"
          }
        }
      ],
      "hex": "01000000010000000000000000000000000000000000000000000000000000000000000000ffffffff0704ffff001d0175ffffffff0100f2052a01000000434104f2785eefd75e8684e93e65a2844ff5ee10e8a46442c90ea33e3b9c672c8ec71a0724fe153135e386de71abc4b081ffa0aabc4b4c048401305c55c802703df767ac00000000"
    }
  ]
}