{
  "hash": "0000000002026d84baaf6c16bbc54f39bb89f10aa1b135d05265fad0266976a7",
  "confirmations": 43477,
  "height": 9621,
  "version": 1,
  "versionHex": "00000001",
  "merkleroot": "8241bdac140f0999b685dcc20409c3fd90bb243140699bb2c70061447c38ed21",
  "time": 1238719220,
  "mediantime": 1238714394,
  "nonce": 475104795,
  "bits": "1d00ffff",
  "difficulty": 1,
  "chainwork": "0000000000000000000000000000000000000000000000000000259625962596",
  "nTx": 1,
  "previousblockhash": "000000005c1911c1fced1a592b9ac697acf1e54bb46302cd7ec82de2570d9c87",
  "nextblockhash": "000000000276b83d2c228c3d7de5fdc026ea345e4a8d77c098d654ff9464f89c",
  "strippedsize": 216,
  "size": 216,
  "weight": 864,
  "tx": [
    {
      "txid": "8241bdac140f0999b685dcc20409c3fd90bb243140699bb2c70061447c38ed21",
      "hash": "8241bdac140f0999b685dcc20409c3fd90bb243140699bb2c70061447c38ed21",
      "version": 1,
      "size": 135,
      "vsize": 135,
      "weight": 540,
      "locktime": 0,
      "vin": [
        {
          "coinbase": "04ffff001d026607",
          "sequence": 4294967295
        }
      ],
      "vout": [
        {
          "value": 50.0,
          "n": 0,
          "scriptPubKey": {
            "asm": "046ad9f4f9c65b8f525f9a8c29560220545cfc6b1b0e937c05f5d5052cd9ee1e2c25ef6befdbbf6e96bbec0920836e3140a67b9a595d6754e9e8b8aecce18e7277 OP_CHECKSIG",
            "desc": "pk(046ad9f4f9c65b8f525f9a8c29560220545cfc6b1b0e937c05f5d5052cd9ee1e2c25ef6befdbbf6e96bbec0920836e3140a67b9a595d6754e9e8b8aecce18e7277)#pt4e60mg",
            "hex": "41046ad9f4f9c65b8f525f9a8c29560220545cfc6b1b0e937c05f5d5052cd9ee1e2c25ef6befdbbf6e96bbec0920836e3140a67b9a595d6754e9e8b8aecce18e7277ac",
            "type": "pubkey"
          }
        }
      ],
      "hex": "01000000010000000000000000000000000000000000000000000000000000000000000000ffffffff0804ffff001d026607ffffffff0100f2052a010000004341046ad9f4f9c65b8f525f9a8c29560220545cfc6b1b0e937c05f5d5052cd9ee1e2c25ef6befdbbf6e96bbec0920836e3140a67b9a595d6754e9e8b8aecce18e7277ac00000000"
    }
  ]
}