{
  "hash": "00000000841f8dff7aa728b2d97e385fbba5b54e48be02a3da64041e63fc71d5",
  "confirmations": 45435,
  "height": 7663,
  "version": 1,
  "versionHex": "00000001",
  "merkleroot": "49ca7aa87cad2af59cde8cc670ca53a03f7b7dd8c77e5c457b53be3478a46b96",
  "time": 1237212611,
  "mediantime": 1237209139,
  "nonce": 461554534,
  "bits": "1d00ffff",
  "difficulty": 1,
  "chainwork": "00000000000000000000000000000000000000000000000000001df01df01df0",
  "nTx": 1,
  "previousblockhash": "00000000ad9541c4e7e642c4ff2208bf2bf44aba0166b17763e1b438afe61ed6",
  "nextblockhash": "0000000061371d1d2960260e545f235dd1d541ac0344c0b294f6fef9e4b9710d",
  "strippedsize": 216,
  "size": 216,
  "weight": 864,
  "tx": [
    {
      "txid": "49ca7aa87cad2af59cde8cc670ca53a03f7b7dd8c77e5c457b53be3478a46b96",
      "hash": "49ca7aa87cad2af59cde8cc670ca53a03f7b7dd8c77e5c457b53be3478a46b96",
      "version": 1,
      "size": 135,
      "vsize": 135,
      "weight": 540,
      "locktime": 0,
      "vin": [
        {
          "coinbase": "04ffff001d028d03",
          "sequence": 4294967295
        }
      ],
      "vout": [
        {
          "value": 50.0,
          "n": 0,
          "scriptPubKey": {
            "asm": "04725f5e4043ea6cb7f91c4328d7d5dec1f1a5e596af2a05f2e1793458b8b5dc2f1d7b0d87bf380ffe1ed245a2c5748fdfaee2c621dd017d1d6193da344bd10f79 OP_CHECKSIG",
            "desc": "pk(04725f5e4043ea6cb7f91c4328d7d5dec1f1a5e596af2a05f2e1793458b8b5dc2f1d7b0d87bf380ffe1ed245a2c5748fdfaee2c621dd017d1d6193da344bd10f79)#0sg4unm8",
            "hex": "4104725f5e4043ea6cb7f91c4328d7d5dec1f1a5e596af2a05f2e1793458b8b5dc2f1d7b0d87bf380ffe1ed245a2c5748fdfaee2c621dd017d1d6193da344bd10f79ac",
            "type": "pubkey"
          }
        }
      ],
      "hex": "01000000010000000000000000000000000000000000000000000000000000000000000000ffffffff0804ffff001d028d03ffffffff0100f2052a01000000434104725f5e4043ea6cb7f91c4328d7d5dec1f1a5e596af2a05f2e1793458b8b5dc2f1d7b0d87bf380ffe1ed245a2c5748fdfaee2c621dd017d1d6193da344bd10f79ac00000000"
    }
  ]
}