{
  "hash": "000000009505ec73031ca38a87a4cc884075f1f75096845e24b1b74f5d133e20",
  "confirmations": 44660,
  "height": 8438,
  "version": 1,
  "versionHex": "00000001",
  "merkleroot": "72985a89f4dbce190fcf75846a3988d0c1b57c864b61b349eb1686cde11dbfa4",
  "time": 1237822742,
  "mediantime": 1237819474,
  "nonce": 1907433224,
  "bits": "1d00ffff",
  "difficulty": 1,
  "chainwork": "000000000000000000000000000000000000000000000000000020f720f720f7",
  "nTx": 1,
  "previousblockhash": "000000007e455915d0126553db50e09d93bb381650d60f48c54081adf544be70",
  "nextblockhash": "000000003bd708485b603f9d21e0d840ed5bfd25f9de87570c05fde1b6abc2be",
  "strippedsize": 216,
  "size": 216,
  "weight": 864,
  "tx": [
    {
      "txid": "72985a89f4dbce190fcf75846a3988d0c1b57c864b61b349eb1686cde11dbfa4",
      "hash": "72985a89f4dbce190fcf75846a3988d0c1b57c864b61b349eb1686cde11dbfa4",
      "version": 1,
      "size": 135,
      "vsize": 135,
      "weight": 540,
      "locktime": 0,
      "vin": [
        {
          "coinbase": "04ffff001d02aa06",
          "sequence": 4294967295
        }
      ],
      "vout": [
        {
          "value": 50.0,
          "n": 0,
          "scriptPubKey": {
            "asm": "040513ce9be3c1a041149b666536ae71984da13b34c90cf6d9677eb5106d187e795546a1603f99aa999c0bbdab899be903555983c309d73f89d14cbe2e6afc2ba4 OP_CHECKSIG",
            "desc": "pk(040513ce9be3c1a041149b666536ae71984da13b34c90cf6d9677eb5106d187e795546a1603f99aa999c0bbdab899be903555983c309d73f89d14cbe2e6afc2ba4)#pys37zgl",
            "hex": "41040513ce9be3c1a041149b666536ae71984da13b34c90cf6d9677eb5106d187e795546a1603f99aa999c0bbdab899be903555983c309d73f89d14cbe2e6afc2ba4ac",
            "type": "pubkey"
          }
        }
      ],
      "hex": "01000000010000000000000000000000000000000000000000000000000000000000000000ffffffff0804ffff001d02aa06ffffffff0100f2052a010000004341040513ce9be3c1a041149b666536ae71984da13b34c90cf6d9677eb5106d187e795546a1603f99aa999c0bbdab899be903555983c309d73f89d14cbe2e6afc2ba4ac00000000"
    }
  ]
}