{
  "hash": "0000000099b9897953e0ce9ff781acde095228557b9fa095e5a51b7d2804ac16",
  "confirmations": 46127,
  "height": 6971,
  "version": 1,
  "versionHex": "00000001",
  "merkleroot": "ba854e27713684807daa58c47a6eacc3294ddf781a0e7b4911f6e36f96a30f1e",
  "time": 1236694188,
  "mediantime": 1236691314,
  "nonce": 1455907883,
  "bits": "1d00ffff",
  "difficulty": 1,
  "chainwork": "00000000000000000000000000000000000000000000000000001b3c1b3c1b3c",
  "nTx": 1,
  "previousblockhash": "000000009c14fcf25accc008b8e411fbdc7cad3ac899e5f7150de1fca3a7c913",
  "nextblockhash": "000000009c0a448008a09a3e3f32f0927bf3fff9dfb53f0a5ca63a0393844c61",
  "strippedsize": 216,
  "size": 216,
  "weight": 864,
  "tx": [
    {
      "txid": "ba854e27713684807daa58c47a6eacc3294ddf781a0e7b4911f6e36f96a30f1e",
      "hash": "ba854e27713684807daa58c47a6eacc3294ddf781a0e7b4911f6e36f96a30f1e",
      "version": 1,
      "size": 135,
      "vsize": 135,
      "weight": 540,
      "locktime": 0,
      "vin": [
        {
          "coinbase": "04ffff001d02b801",
          "sequence": 4294967295
        }
      ],
      "vout": [
        {
          "value": 50.0,
          "n": 0,
          "scriptPubKey": {
            "asm": "04e0702c83b2bd88cee90c4189416b8310e1bfb671cc95fbc729b1f1f9f3ea391f5b50727128805dc1bf0f3af04a3fc091c35348dc84f8e2c151252295da752807 OP_CHECKSIG",
            "desc": "pk(04e0702c83b2bd88cee90c4189416b8310e1bfb671cc95fbc729b1f1f9f3ea391f5b50727128805dc1bf0f3af04a3fc091c35348dc84f8e2c151252295da752807)#cvzpcmsr",
            "hex": "4104e0702c83b2bd88cee90c4189416b8310e1bfb671cc95fbc729b1f1f9f3ea391f5b50727128805dc1bf0f3af04a3fc091c35348dc84f8e2c151252295da752807ac",
            "type": "pubkey"
          }
        }
      ],
      "hex": "01000000010000000000000000000000000000000000000000000000000000000000000000ffffffff0804ffff001d02b801ffffffff0100f2052a01000000434104e0702c83b2bd88cee90c4189416b8310e1bfb671cc95fbc729b1f1f9f3ea391f5b50727128805dc1bf0f3af04a3fc091c35348dc84f8e2c151252295da752807ac00000000"
    }
  ]
}