{
  "hash": "000000009ecf2e19ea3bab1b9186bd44f85cca06a86b029933c441f01312126d",
  "confirmations": 46133,
  "height": 6965,
  "version": 1,
  "versionHex": "00000001",
  "merkleroot": "6307e52509449be8e91282993d83d100d74d3a74a151793cfa7940765894c099",
  "time": 1236690721,
  "mediantime": 1236687450,
  "nonce": 3663202073,
  "bits": "1d00ffff",
  "difficulty": 1,
  "chainwork": "00000000000000000000000000000000000000000000000000001b361b361b36",
  "nTx": 1,
  "previousblockhash": "00000000da00b8154b4ade8c1d36147fc61b6c5973a99a562ce5213f8ea7979f",
  "nextblockhash": "000000000ced11649abe4bb6dda4b2f48629c5484cd26dd57419d9b0ffec9608",
  "strippedsize": 216,
  "size": 216,
  "weight": 864,
  "tx": [
    {
      "txid": "6307e52509449be8e91282993d83d100d74d3a74a151793cfa7940765894c099",
      "hash": "6307e52509449be8e91282993d83d100d74d3a74a151793cfa7940765894c099",
      "version": 1,
      "size": 135,
      "vsize": 135,
      "weight": 540,
      "locktime": 0,
      "vin": [
        {
          "coinbase": "04ffff001d029b01",
          "sequence": 4294967295
        }
      ],
      "vout": [
        {
          "value": 50.0,
          "n": 0,
          "scriptPubKey": {
            "asm": "0479d6a2a4c87be015d80325b1d365dae28b859a61cae34ff44d4a1faefd1c58bbd42d4fadce54bf214bada4fb189863b569ebecf5abc3fc6f83532ff1d594bebb OP_CHECKSIG",
            "desc": "pk(0479d6a2a4c87be015d80325b1d365dae28b859a61cae34ff44d4a1faefd1c58bbd42d4fadce54bf214bada4fb189863b569ebecf5abc3fc6f83532ff1d594bebb)#deypxjtt",
            "hex": "410479d6a2a4c87be015d80325b1d365dae28b859a61cae34ff44d4a1faefd1c58bbd42d4fadce54bf214bada4fb189863b569ebecf5abc3fc6f83532ff1d594bebbac",
            "type": "pubkey"
          }
        }
      ],
      "hex": "01000000010000000000000000000000000000000000000000000000000000000000000000ffffffff0804ffff001d029b01ffffffff0100f2052a0100000043410479d6a2a4c87be015d80325b1d365dae28b859a61cae34ff44d4a1faefd1c58bbd42d4fadce54bf214bada4fb189863b569ebecf5abc3fc6f83532ff1d594bebbac00000000"
    }
  ]
}