{
  "hash": "000000009599b9daf24b787d76febb4b08ada0f80d87586456b6f523eb9f8352",
  "confirmations": 48129,
  "height": 4969,
  "version": 1,
  "versionHex": "00000001",
  "merkleroot": "1793b1aca3a437e05b0939464752431e366cbb078d50d9c5f38b4eeaa50da923",
  "time": 1235118307,
  "mediantime": 1235114221,
  "nonce": 652500269,
  "bits": "1d00ffff",
  "difficulty": 1,
  "chainwork": "0000000000000000000000000000000000000000000000000000136a136a136a",
  "nTx": 1,
  "previousblockhash": "000000007424ba7641af26de3067e92d49ba8d21c2b726e7f28fe99898cb3f5b",
  "nextblockhash": "00000000f0d78a6a132a64d889653e36e3467bd8c379ac720a21d379af53c8bd",
  "strippedsize": 216,
  "size": 216,
  "weight": 864,
  "tx": [
    {
      "txid": "1793b1aca3a437e05b0939464752431e366cbb078d50d9c5f38b4eeaa50da923",
      "hash": "1793b1aca3a437e05b0939464752431e366cbb078d50d9c5f38b4eeaa50da923",
      "version": 1,
      "size": 135,
      "vsize": 135,
      "weight": 540,
      "locktime": 0,
      "vin": [
        {
          "coinbase": "04ffff001d02a606",
          "sequence": 4294967295
        }
      ],
      "vout": [
        {
          "value": 50.0,
          "n": 0,
          "scriptPubKey": {
            "asm": "04186d857eb2e6d77c393b43a2508a566d0d94ca89a30883bce60b747efa99a2a4143002e2b32d1708c61c48a7702940d3c63569fa69e554211a3e5f1fda9c7556 OP_CHECKSIG",
            "desc": "pk(04186d857eb2e6d77c393b43a2508a566d0d94ca89a30883bce60b747efa99a2a4143002e2b32d1708c61c48a7702940d3c63569fa69e554211a3e5f1fda9c7556)#yc8yvd5w",
            "hex": "4104186d857eb2e6d77c393b43a2508a566d0d94ca89a30883bce60b747efa99a2a4143002e2b32d1708c61c48a7702940d3c63569fa69e554211a3e5f1fda9c7556ac",
            "type": "pubkey"
          }
        }
      ],
      "hex": "01000000010000000000000000000000000000000000000000000000000000000000000000ffffffff0804ffff001d02a606ffffffff0100f2052a01000000434104186d857eb2e6d77c393b43a2508a566d0d94ca89a30883bce60b747efa99a2a4143002e2b32d1708c61c48a7702940d3c63569fa69e554211a3e5f1fda9c7556ac00000000"
    }
  ]
}