{
  "hash": "000000007d3037617d7804e2376266203f19861de946a3490c3525e1034cddb7",
  "confirmations": 48840,
  "height": 4258,
  "version": 1,
  "versionHex": "00000001",
  "merkleroot": "221ecf077a0bf56c54b4f5413f751d8e3e9a9cf8451a16c793adfa1bbb9b39b9",
  "time": 1234614955,
  "mediantime": 1234612026,
  "nonce": 914373404,
  "bits": "1d00ffff",
  "difficulty": 1,
  "chainwork": "000000000000000000000000000000000000000000000000000010a310a310a3",
  "nTx": 1,
  "previousblockhash": "00000000dfb27b850a46d9ee253211c00e5bc5db9fe745a18d7ba318cdaa6a81",
  "nextblockhash": "000000003156b74fbbd80830bc22f8da3ad08a6114a53fb30782995470d1db1b",
  "strippedsize": 216,
  "size": 216,
  "weight": 864,
  "tx": [
    {
      "txid": "221ecf077a0bf56c54b4f5413f751d8e3e9a9cf8451a16c793adfa1bbb9b39b9",
      "hash": "221ecf077a0bf56c54b4f5413f751d8e3e9a9cf8451a16c793adfa1bbb9b39b9",
      "version": 1,
      "size": 135,
      "vsize": 135,
      "weight": 540,
      "locktime": 0,
      "vin": [
        {
          "coinbase": "04ffff001d020408",
          "sequence": 4294967295
        }
      ],
      "vout": [
        {
          "value": 50.0,
          "n": 0,
          "scriptPubKey": {
            "asm": "04ad26cf162aa0ab8f5d9022171ae0bc11ff815d1981412fe4272ab22cde50d89d63ef7139280e9ed8be143a00f7e1217d8df338e61a11824eea50030b155ee00b OP_CHECKSIG",
            "desc": "pk(04ad26cf162aa0ab8f5d9022171ae0bc11ff815d1981412fe4272ab22cde50d89d63ef7139280e9ed8be143a00f7e1217d8df338e61a11824eea50030b155ee00b)#eewmuy6d",
            "hex": "4104ad26cf162aa0ab8f5d9022171ae0bc11ff815d1981412fe4272ab22cde50d89d63ef7139280e9ed8be143a00f7e1217d8df338e61a11824eea50030b155ee00bac",
            "type": "pubkey"
          }
        }
      ],
      "hex": "01000000010000000000000000000000000000000000000000000000000000000000000000ffffffff0804ffff001d020408ffffffff0100f2052a01000000434104ad26cf162aa0ab8f5d9022171ae0bc11ff815d1981412fe4272ab22cde50d89d63ef7139280e9ed8be143a00f7e1217d8df338e61a11824eea50030b155ee00bac00000000"
    }
  ]
}