{
  "hash": "00000000ccfe932c3a2a2129b5eb7415dc6775643c4bdb9fa58f9117cc8eaad6",
  "confirmations": 46615,
  "height": 6483,
  "version": 1,
  "versionHex": "00000001",
  "merkleroot": "1fbe82aa1591f9df23337318d903d97b0ed70c1cf0310caa403b998659e7f317",
  "time": 1236318335,
  "mediantime": 1236314151,
  "nonce": 1713142549,
  "bits": "1d00ffff",
  "difficulty": 1,
  "chainwork": "0000000000000000000000000000000000000000000000000000195419541954",
  "nTx": 1,
  "previousblockhash": "000000008f3d4381c02a83d069df55b39200d7e8d539ccfcf258f61e07fa5db8",
  "nextblockhash": "000000004d91e40fc5fbb5be48f2a11e5ef393d914623636a330817a4e809cba",
  "strippedsize": 216,
  "size": 216,
  "weight": 864,
  "tx": [
    {
      "txid": "1fbe82aa1591f9df23337318d903d97b0ed70c1cf0310caa403b998659e7f317",
      "hash": "1fbe82aa1591f9df23337318d903d97b0ed70c1cf0310caa403b998659e7f317",
      "version": 1,
      "size": 135,
      "vsize": 135,
      "weight": 540,
      "locktime": 0,
      "vin": [
        {
          "coinbase": "04ffff001d022a03",
          "sequence": 4294967295
        }
      ],
      "vout": [
        {
          "value": 50.0,
          "n": 0,
          "scriptPubKey": {
            "asm": "04e10d5bb7f3d16aff9e0e4e5f2f441ef30c5a1934babb516727d7d2c5d04d325aff5d1b6b01553c700246d5b54b706001b053bbb98c1aeeb013abcd424217f30c OP_CHECKSIG",
            "desc": "pk(04e10d5bb7f3d16aff9e0e4e5f2f441ef30c5a1934babb516727d7d2c5d04d325aff5d1b6b01553c700246d5b54b706001b053bbb98c1aeeb013abcd424217f30c)#jjkjewzf",
            "hex": "4104e10d5bb7f3d16aff9e0e4e5f2f441ef30c5a1934babb516727d7d2c5d04d325aff5d1b6b01553c700246d5b54b706001b053bbb98c1aeeb013abcd424217f30cac",
            "type": "pubkey"
          }
        }
      ],
      "hex": "01000000010000000000000000000000000000000000000000000000000000000000000000ffffffff0804ffff001d022a03ffffffff0100f2052a01000000434104e10d5bb7f3d16aff9e0e4e5f2f441ef30c5a1934babb516727d7d2c5d04d325aff5d1b6b01553c700246d5b54b706001b053bbb98c1aeeb013abcd424217f30cac00000000"
    }
  ]
}