{
  "hash": "0000000074440db626bad7f813b59e6a0e1328ae4205a2c5209e031b42c31ab7",
  "confirmations": 52407,
  "height": 691,
  "version": 1,
  "versionHex": "00000001",
  "merkleroot": "5f4fb51444bc0fef5106a83b2ed929323370bb23b94b3f87908351100fb89d5e",
  "time": 1232100803,
  "mediantime": 1232098329,
  "nonce": 2692816925,
  "bits": "1d00ffff",
  "difficulty": 1,
  "chainwork": "000000000000000000000000000000000000000000000000000002b402b402b4",
  "nTx": 1,
  "previousblockhash": "00000000a32fd98532b4bd1ca90c491e83d27d3238591bb93fddd080e903703c",
  "nextblockhash": "000000004d46a24e850882dfc0f3397636f7785c388f28a5e910effa29e070a8",
  "strippedsize": 216,
  "size": 216,
  "weight": 864,
  "tx": [
    {
      "txid": "5f4fb51444bc0fef5106a83b2ed929323370bb23b94b3f87908351100fb89d5e",
      "hash": "5f4fb51444bc0fef5106a83b2ed929323370bb23b94b3f87908351100fb89d5e",
      "version": 1,
      "size": 135,
      "vsize": 135,
      "weight": 540,
      "locktime": 0,
      "vin": [
        {
          "coinbase": "04ffff001d02ad00",
          "sequence": 4294967295
        }
      ],
      "vout": [
        {
          "value": 50.0,
          "n": 0,
          "scriptPubKey": {
            "asm": "046b2cea199a5f82a43e6242f5ed476bc12b24cf81cc27f0e68a9078b03e89a6b9e78531d0d0ebec1477fe741fae005b1cce0c446ccf8dc86b3b3c4a3795f990a0 OP_CHECKSIG",
            "desc": "pk(046b2cea199a5f82a43e6242f5ed476bc12b24cf81cc27f0e68a9078b03e89a6b9e78531d0d0ebec1477fe741fae005b1cce0c446ccf8dc86b3b3c4a3795f990a0)#h0fk2h7f",
            "hex": "41046b2cea199a5f82a43e6242f5ed476bc12b24cf81cc27f0e68a9078b03e89a6b9e78531d0d0ebec1477fe741fae005b1cce0c446ccf8dc86b3b3c4a3795f990a0ac",
            "type": "pubkey"
          }
        }
      ],
      "hex": "01000000010000000000000000000000000000000000000000000000000000000000000000ffffffff0804ffff001d02ad00ffffffff0100f2052a010000004341046b2cea199a5f82a43e6242f5ed476bc12b24cf81cc27f0e68a9078b03e89a6b9e78531d0d0ebec1477fe741fae005b1cce0c446ccf8dc86b3b3c4a3795f990a0ac00000000"
    }
  ]
}