{
  "hash": "000000006e7fe1ebbae18fd9ea0c8b696f1fec8e5de738ef47af1299374a081c",
  "confirmations": 52074,
  "height": 146,
  "version": 1,
  "versionHex": "00000001",
  "merkleroot": "429cb6f783a85f46b55ae3066d01dad772c14a53abcab4973182eb24413783a6",
  "time": 1231694075,
  "mediantime": 1231690260,
  "nonce": 245945608,
  "bits": "1d00ffff",
  "difficulty": 1,
  "chainwork": "0000000000000000000000000000000000000000000000000000009300930093",
  "nTx": 1,
  "previousblockhash": "000000002e76e88e6ca526f324505fae2cc8245af31e92279f031a6019270512",
  "nextblockhash": "000000001a7a484e9f1e96f2c103162cc0146ca7ce648c2498726a2dbb51967e",
  "strippedsize": 216,
  "size": 216,
  "weight": 864,
  "tx": [
    {
      "txid": "429cb6f783a85f46b55ae3066d01dad772c14a53abcab4973182eb24413783a6",
      "hash": "429cb6f783a85f46b55ae3066d01dad772c14a53abcab4973182eb24413783a6",
      "version": 1,
      "size": 135,
      "vsize": 135,
      "weight": 540,
      "locktime": 0,
      "vin": [
        {
          "coinbase": "04ffff001d028800",
          "sequence": 4294967295
        }
      ],
      "vout": [
        {
          "value": 50.0,
          "n": 0,
          "scriptPubKey": {
            "asm": "049ffcef9e42d9c8ba9394ff3a105810e8eccfb014bdb34d425a2df526be8de06c554311f92ac36904ddadc93cdef0d666aee8a9fc7b51c471836bd6d1efeb62de OP_CHECKSIG",
            "desc": "pk(049ffcef9e42d9c8ba9394ff3a105810e8eccfb014bdb34d425a2df526be8de06c554311f92ac36904ddadc93cdef0d666aee8a9fc7b51c471836bd6d1efeb62de)#yvm3njd2",
            "hex": "41049ffcef9e42d9c8ba9394ff3a105810e8eccfb014bdb34d425a2df526be8de06c554311f92ac36904ddadc93cdef0d666aee8a9fc7b51c471836bd6d1efeb62deac",
            "type": "pubkey"
          }
        }
      ],
      "hex": "01000000010000000000000000000000000000000000000000000000000000000000000000ffffffff0804ffff001d028800ffffffff0100f2052a010000004341049ffcef9e42d9c8ba9394ff3a105810e8eccfb014bdb34d425a2df526be8de06c554311f92ac36904ddadc93cdef0d666aee8a9fc7b51c471836bd6d1efeb62deac00000000"
    }
  ]
}