{
  "hash": "00000000829b51e7c4cbb2a0036320eeb71460015c2ecd7bbc337f1a2206e261",
  "confirmations": 50338,
  "height": 2760,
  "version": 1,
  "versionHex": "00000001",
  "merkleroot": "c142a78680baac7993ec787ffdf79a97759321bda742fbc5aef75135a92b2c2a",
  "time": 1233602636,
  "mediantime": 1233598932,
  "nonce": 76267531,
  "bits": "1d00ffff",
  "difficulty": 1,
  "chainwork": "00000000000000000000000000000000000000000000000000000ac90ac90ac9",
  "nTx": 1,
  "previousblockhash": "000000008575917f148887b09412c7655c7b463a0aa4c1884ce146b2f5aee9b7",
  "nextblockhash": "00000000d553fbc81c7d7b14be1975dcaf50d728a9c88e9730408a33083a5cd2",
  "strippedsize": 215,
  "size": 215,
  "weight": 860,
  "tx": [
    {
      "txid": "c142a78680baac7993ec787ffdf79a97759321bda742fbc5aef75135a92b2c2a",
      "hash": "c142a78680baac7993ec787ffdf79a97759321bda742fbc5aef75135a92b2c2a",
      "version": 1,
      "size": 134,
      "vsize": 134,
      "weight": 536,
      "locktime": 0,
      "vin": [
        {
          "coinbase": "04ffff001d0133",
          "sequence": 4294967295
        }
      ],
      "vout": [
        {
          "value": 50.0,
          "n": 0,
          "scriptPubKey": {
            "asm": "044bd0a65f2b370b3e4598d610d533d20f897b0d473e8e53982a1eecceb835e33ef1d25728df0d0e76ea60fee5eff33f47f7144f75711215a2da8ea0500a60718e OP_CHECKSIG",
            "desc": "pk(044bd0a65f2b370b3e4598d610d533d20f897b0d473e8e53982a1eecceb835e33ef1d25728df0d0e76ea60fee5eff33f47f7144f75711215a2da8ea0500a60718e)#fyxr3nt4",
            "hex": "41044bd0a65f2b370b3e4598d610d533d20f897b0d473e8e53982a1eecceb835e33ef1d25728df0d0e76ea60fee5eff33f47f7144f75711215a2da8ea0500a60718eac",
            "type": "pubkey"
          }
        }
      ],
      "hex": "01000000010000000000000000000000000000000000000000000000000000000000000000ffffffff0704ffff001d0133ffffffff0100f2052a010000004341044bd0a65f2b370b3e4598d610d533d20f897b0d473e8e53982a1eecceb835e33ef1d25728df0d0e76ea60fee5eff33f47f7144f75711215a2da8ea0500a60718eac00000000"
    }
  ]
}