{
  "hash": "00000000706322bbe5698eb5833f6a9ecc1f77154e5cb4efcb87b696cbb4ef89",
  "confirmations": 47907,
  "height": 5191,
  "version": 1,
  "versionHex": "00000001",
  "merkleroot": "820f3a0c0f6d40579cd7014ba9457d91eb36a5baae98bc36a388a473ade8f04a",
  "time": 1235280367,
  "mediantime": 1235276883,
  "nonce": 124390016,
  "bits": "1d00ffff",
  "difficulty": 1,
  "chainwork": "0000000000000000000000000000000000000000000000000000144814481448",
  "nTx": 1,
  "previousblockhash": "0000000067651305205a78f27820c114c89115966c2fbe62ea20d2b571088c2d",
  "nextblockhash": "00000000a6a591abb20891a698480583a76b4313eb5d6f6dcda282755aecbf36",
  "strippedsize": 216,
  "size": 216,
  "weight": 864,
  "tx": [
    {
      "txid": "820f3a0c0f6d40579cd7014ba9457d91eb36a5baae98bc36a388a473ade8f04a",
      "hash": "820f3a0c0f6d40579cd7014ba9457d91eb36a5baae98bc36a388a473ade8f04a",
      "version": 1,
      "size": 135,
      "vsize": 135,
      "weight": 540,
      "locktime": 0,
      "vin": [
        {
          "coinbase": "04ffff001d020606",
          "sequence": 4294967295
        }
      ],
      "vout": [
        {
          "value": 50.0,
          "n": 0,
          "scriptPubKey": {
            "asm": "041394bc314d535f6db70690aa3c83a9683d8f5ed4051edcfe8f261466eed9ea884b15fc891ecff62aeb3df2c9e2c83de67a15f0606473d931d0b581bab01ed914 OP_CHECKSIG",
            "desc": "pk(041394bc314d535f6db70690aa3c83a9683d8f5ed4051edcfe8f261466eed9ea884b15fc891ecff62aeb3df2c9e2c83de67a15f0606473d931d0b581bab01ed914)#dudtqdj7",
            "hex": "41041394bc314d535f6db70690aa3c83a9683d8f5ed4051edcfe8f261466eed9ea884b15fc891ecff62aeb3df2c9e2c83de67a15f0606473d931d0b581bab01ed914ac",
            "type": "pubkey"
          }
        }
      ],
      "hex": "01000000010000000000000000000000000000000000000000000000000000000000000000ffffffff0804ffff001d020606ffffffff0100f2052a010000004341041394bc314d535f6db70690aa3c83a9683d8f5ed4051edcfe8f261466eed9ea884b15fc891ecff62aeb3df2c9e2c83de67a15f0606473d931d0b581bab01ed914ac00000000"
    }
  ]
}