{
  "hash": "000000002e3b1b61162fc7c08b70b1a9df2c253134b844c046083821930e789b",
  "confirmations": 46075,
  "height": 7023,
  "version": 1,
  "versionHex": "00000001",
  "merkleroot": "9c66b14c008cb91629bad78160abd399da478c0173348cca566aa87a1386a0b9",
  "time": 1236735699,
  "mediantime": 1236732190,
  "nonce": 3891988769,
  "bits": "1d00ffff",
  "difficulty": 1,
  "chainwork": "00000000000000000000000000000000000000000000000000001b701b701b70",
  "nTx": 1,
  "previousblockhash": "00000000342b46b1e6065f47026233fce49956695019d8d3425a6f13ec5df957",
  "nextblockhash": "0000000062bb306418e50588a575dc942bdaa89d3aad7f5f05cf7e5515ea145e",
  "strippedsize": 216,
  "size": 216,
  "weight": 864,
  "tx": [
    {
      "txid": "9c66b14c008cb91629bad78160abd399da478c0173348cca566aa87a1386a0b9",
      "hash": "9c66b14c008cb91629bad78160abd399da478c0173348cca566aa87a1386a0b9",
      "version": 1,
      "size": 135,
      "vsize": 135,
      "weight": 540,
      "locktime": 0,
      "vin": [
        {
          "coinbase": "04ffff001d02c902",
          "sequence": 4294967295
        }
      ],
      "vout": [
        {
          "value": 50.0,
          "n": 0,
          "scriptPubKey": {
            "asm": "045c2b2a98b1e7daec838bd0a771d426a881581e239b6f6e7e76f8477e316072ea3ff670c70c5b8f2efcd131b820678a2c8f6e679d44d64f2b914111d46c3634f3 OP_CHECKSIG",
            "desc": "pk(045c2b2a98b1e7daec838bd0a771d426a881581e239b6f6e7e76f8477e316072ea3ff670c70c5b8f2efcd131b820678a2c8f6e679d44d64f2b914111d46c3634f3)#m0y6a0sd",
            "hex": "41045c2b2a98b1e7daec838bd0a771d426a881581e239b6f6e7e76f8477e316072ea3ff670c70c5b8f2efcd131b820678a2c8f6e679d44d64f2b914111d46c3634f3ac",
            "type": "pubkey"
          }
        }
      ],
      "hex": "01000000010000000000000000000000000000000000000000000000000000000000000000ffffffff0804ffff001d02c902ffffffff0100f2052a010000004341045c2b2a98b1e7daec838bd0a771d426a881581e239b6f6e7e76f8477e316072ea3ff670c70c5b8f2efcd131b820678a2c8f6e679d44d64f2b914111d46c3634f3ac00000000"
    }
  ]
}