{
  "hash": "00000000c5374443d80fb0078de87bb5e727277dc7a6edece1550de11ca6bcd6",
  "confirmations": 49560,
  "height": 3538,
  "version": 1,
  "versionHex": "00000001",
  "merkleroot": "3c14e17c1bf4f4aa57bae39479652d6838b3a32f1ffe7d0bc539fa891711f265",
  "time": 1234127399,
  "mediantime": 1234124868,
  "nonce": 2839679267,
  "bits": "1d00ffff",
  "difficulty": 1,
  "chainwork": "00000000000000000000000000000000000000000000000000000dd30dd30dd3",
  "nTx": 1,
  "previousblockhash": "0000000090a3f95819fc5ae42d8e1175ec0909dee27194b9076f0b479fe2507e",
  "nextblockhash": "000000007360e54b88252b4c84e3d6a6ccb8fe56b9149ec43485c97c7a471b8a",
  "strippedsize": 216,
  "size": 216,
  "weight": 864,
  "tx": [
    {
      "txid": "3c14e17c1bf4f4aa57bae39479652d6838b3a32f1ffe7d0bc539fa891711f265",
      "hash": "3c14e17c1bf4f4aa57bae39479652d6838b3a32f1ffe7d0bc539fa891711f265",
      "version": 1,
      "size": 135,
      "vsize": 135,
      "weight": 540,
      "locktime": 0,
      "vin": [
        {
          "coinbase": "04ffff001d02d107",
          "sequence": 4294967295
        }
      ],
      "vout": [
        {
          "value": 50.0,
          "n": 0,
          "scriptPubKey": {
            "asm": "0443206846e6e2e110b03180ac4d68aa8e9a329b49eadc6d44d223a749a5255b5abd27b588c0fae74428b0b00a8ae6c0c7869969e810092ac20f95e3abe070ccb8 OP_CHECKSIG",
            "desc": "pk(0443206846e6e2e110b03180ac4d68aa8e9a329b49eadc6d44d223a749a5255b5abd27b588c0fae74428b0b00a8ae6c0c7869969e810092ac20f95e3abe070ccb8)#50udqy3j",
            "hex": "410443206846e6e2e110b03180ac4d68aa8e9a329b49eadc6d44d223a749a5255b5abd27b588c0fae74428b0b00a8ae6c0c7869969e810092ac20f95e3abe070ccb8ac",
            "type": "pubkey"
          }
        }
      ],
      "hex": "01000000010000000000000000000000000000000000000000000000000000000000000000ffffffff0804ffff001d02d107ffffffff0100f2052a0100000043410443206846e6e2e110b03180ac4d68aa8e9a329b49eadc6d44d223a749a5255b5abd27b588c0fae74428b0b00a8ae6c0c7869969e810092ac20f95e3abe070ccb8ac00000000"
    }
  ]
}