{
  "hash": "000000003cd7e9095cccffcb41462fb67407b66e0245717d06b322732fd2633e",
  "confirmations": 52191,
  "height": 472,
  "version": 1,
  "versionHex": "00000001",
  "merkleroot": "c14e72a67dabbcae60c8f42d2d52e62888d4a61756a977039fb8cb12193ed8a5",
  "time": 1231950232,
  "mediantime": 1231946092,
  "nonce": 2498884640,
  "bits": "1d00ffff",
  "difficulty": 1,
  "chainwork": "000000000000000000000000000000000000000000000000000001d901d901d9",
  "nTx": 1,
  "previousblockhash": "0000000015484ff1d18afb86c7581eabeaf7146813ce140595e2f136af7a393b",
  "nextblockhash": "00000000c9bc7c652131a084b2bd201dc3d4592d2251fac7b2e6ed1b674aebcf",
  "strippedsize": 216,
  "size": 216,
  "weight": 864,
  "tx": [
    {
      "txid": "c14e72a67dabbcae60c8f42d2d52e62888d4a61756a977039fb8cb12193ed8a5",
      "hash": "c14e72a67dabbcae60c8f42d2d52e62888d4a61756a977039fb8cb12193ed8a5",
      "version": 1,
      "size": 135,
      "vsize": 135,
      "weight": 540,
      "locktime": 0,
      "vin": [
        {
          "coinbase": "04ffff001d02ff03",
          "sequence": 4294967295
        }
      ],
      "vout": [
        {
          "value": 50.0,
          "n": 0,
          "scriptPubKey": {
            "asm": "047c6c1b955c38287c97b7f0aaa59eee59079688213ea172c305ab25fdea3fd75081ce5c7183f49190cab8796f8bc483f6a8fdae5fb5826d4f763263989f42d1f1 OP_CHECKSIG",
            "desc": "pk(047c6c1b955c38287c97b7f0aaa59eee59079688213ea172c305ab25fdea3fd75081ce5c7183f49190cab8796f8bc483f6a8fdae5fb5826d4f763263989f42d1f1)#92l4g7g4",
            "hex": "41047c6c1b955c38287c97b7f0aaa59eee59079688213ea172c305ab25fdea3fd75081ce5c7183f49190cab8796f8bc483f6a8fdae5fb5826d4f763263989f42d1f1ac",
            "type": "pubkey"
          }
        }
      ],
      "hex": "01000000010000000000000000000000000000000000000000000000000000000000000000ffffffff0804ffff001d02ff03ffffffff0100f2052a010000004341047c6c1b955c38287c97b7f0aaa59eee59079688213ea172c305ab25fdea3fd75081ce5c7183f49190cab8796f8bc483f6a8fdae5fb5826d4f763263989f42d1f1ac00000000"
    }
  ]
}