{
  "hash": "00000000a991eb99233461c8f4462aa648e9415a44d92878bf6f605ff26a8a27",
  "confirmations": 43978,
  "height": 9120,
  "version": 1,
  "versionHex": "00000001",
  "merkleroot": "864c6d435c29b89323e63c705da6e617a130310dfb4d07d1c1dbb607de3842ab",
  "time": 1238344377,
  "mediantime": 1238340199,
  "nonce": 3424103730,
  "bits": "1d00ffff",
  "difficulty": 1,
  "chainwork": "000000000000000000000000000000000000000000000000000023a123a123a1",
  "nTx": 1,
  "previousblockhash": "000000004a0bb4b37415e5ff3b37a4102545d867d74f12eb075548287b793569",
  "nextblockhash": "00000000819d198eb8ce9df3d5ddba6ee710cc637e83d5d806dbb541ebd85445",
  "strippedsize": 216,
  "size": 216,
  "weight": 864,
  "tx": [
    {
      "txid": "864c6d435c29b89323e63c705da6e617a130310dfb4d07d1c1dbb607de3842ab",
      "hash": "864c6d435c29b89323e63c705da6e617a130310dfb4d07d1c1dbb607de3842ab",
      "version": 1,
      "size": 135,
      "vsize": 135,
      "weight": 540,
      "locktime": 0,
      "vin": [
        {
          "coinbase": "04ffff001d02c708",
          "sequence": 4294967295
        }
      ],
      "vout": [
        {
          "value": 50.0,
          "n": 0,
          "scriptPubKey": {
            "asm": "04883b6f422fbb85a35bae545bb57a1984c4179f33c5e1bed8055040078b5128ae98288d429f9da082fc2692bda6cdb60b6ae3d0998c9fbeb8a87efbf8f5d5f98e OP_CHECKSIG",
            "desc": "pk(04883b6f422fbb85a35bae545bb57a1984c4179f33c5e1bed8055040078b5128ae98288d429f9da082fc2692bda6cdb60b6ae3d0998c9fbeb8a87efbf8f5d5f98e)#jp5srnra",
            "hex": "4104883b6f422fbb85a35bae545bb57a1984c4179f33c5e1bed8055040078b5128ae98288d429f9da082fc2692bda6cdb60b6ae3d0998c9fbeb8a87efbf8f5d5f98eac",
            "type": "pubkey"
          }
        }
      ],
      "hex": "01000000010000000000000000000000000000000000000000000000000000000000000000ffffffff0804ffff001d02c708ffffffff0100f2052a01000000434104883b6f422fbb85a35bae545bb57a1984c4179f33c5e1bed8055040078b5128ae98288d429f9da082fc2692bda6cdb60b6ae3d0998c9fbeb8a87efbf8f5d5f98eac00000000"
    }
  ]
}