{
  "hash": "000000000f1e972f5b48d69335b485ad2601f826da6f5722d6d9f2de5215251d",
  "confirmations": 43949,
  "height": 9149,
  "version": 1,
  "versionHex": "00000001",
  "merkleroot": "befb377b599da8a699e5edae22987ddb64f95f28d470e3212385f9324447ce3e",
  "time": 1238366484,
  "mediantime": 1238364051,
  "nonce": 1286775581,
  "bits": "1d00ffff",
  "difficulty": 1,
  "chainwork": "000000000000000000000000000000000000000000000000000023be23be23be",
  "nTx": 1,
  "previousblockhash": "00000000e14af04bc1b66ab55b729aa82d27f69a1cfa41546b5f0e0c8debfd9c",
  "nextblockhash": "000000009f8717ab59587de3c519d762fe0cc1b9b3e778eed40bac05969f4217",
  "strippedsize": 216,
  "size": 216,
  "weight": 864,
  "tx": [
    {
      "txid": "befb377b599da8a699e5edae22987ddb64f95f28d470e3212385f9324447ce3e",
      "hash": "befb377b599da8a699e5edae22987ddb64f95f28d470e3212385f9324447ce3e",
      "version": 1,
      "size": 135,
      "vsize": 135,
      "weight": 540,
      "locktime": 0,
      "vin": [
        {
          "coinbase": "04ffff001d025009",
          "sequence": 4294967295
        }
      ],
      "vout": [
        {
          "value": 50.0,
          "n": 0,
          "scriptPubKey": {
            "asm": "04238ba80503069c0c2ef992ebecc86a633c0e400979c81932cb70fbbe2d6903760421b1c1b673542c669e6944249f58c1903e359c106f98fc0a83c23782627562 OP_CHECKSIG",
            "desc": "pk(04238ba80503069c0c2ef992ebecc86a633c0e400979c81932cb70fbbe2d6903760421b1c1b673542c669e6944249f58c1903e359c106f98fc0a83c23782627562)#tpk90t63",
            "hex": "4104238ba80503069c0c2ef992ebecc86a633c0e400979c81932cb70fbbe2d6903760421b1c1b673542c669e6944249f58c1903e359c106f98fc0a83c23782627562ac",
            "type": "pubkey"
          }
        }
      ],
      "hex": "01000000010000000000000000000000000000000000000000000000000000000000000000ffffffff0804ffff001d025009ffffffff0100f2052a01000000434104238ba80503069c0c2ef992ebecc86a633c0e400979c81932cb70fbbe2d6903760421b1c1b673542c669e6944249f58c1903e359c106f98fc0a83c23782627562ac00000000"
    }
  ]
}