{
  "hash": "0000000060eb46c50cca1b37bf0bd6446740a2cb07498a15b590b22f48e6a5be",
  "confirmations": 51612,
  "height": 1486,
  "version": 1,
  "versionHex": "00000001",
  "merkleroot": "9af517c8a8b231e674915e394a1a200b08deadf923405dc6ba6ab89c2df647e9",
  "time": 1232761985,
  "mediantime": 1232759294,
  "nonce": 57975843,
  "bits": "1d00ffff",
  "difficulty": 1,
  "chainwork": "000000000000000000000000000000000000000000000000000005cf05cf05cf",
  "nTx": 1,
  "previousblockhash": "0000000028e31f00c3cdcfb301a40e3b1169efd6018c463ed47e7b51a9243784",
  "nextblockhash": "0000000067ee90b45db11656beafa2968a4caaf966fd6fecfca909495a63a47f",
  "strippedsize": 216,
  "size": 216,
  "weight": 864,
  "tx": [
    {
      "txid": "9af517c8a8b231e674915e394a1a200b08deadf923405dc6ba6ab89c2df647e9",
      "hash": "9af517c8a8b231e674915e394a1a200b08deadf923405dc6ba6ab89c2df647e9",
      "version": 1,
      "size": 135,
      "vsize": 135,
      "weight": 540,
      "locktime": 0,
      "vin": [
        {
          "coinbase": "04ffff001d024903",
          "sequence": 4294967295
        }
      ],
      "vout": [
        {
          "value": 50.0,
          "n": 0,
          "scriptPubKey": {
            "asm": "041b8853cb910d55bafa739c7d66d08c9c073ef2bb52b3b8a19f562a09c5d4d5fd00db42200608b438d3da2f081be40d01c1675f5e58aadb3d2a7c226849f13494 OP_CHECKSIG",
            "desc": "pk(041b8853cb910d55bafa739c7d66d08c9c073ef2bb52b3b8a19f562a09c5d4d5fd00db42200608b438d3da2f081be40d01c1675f5e58aadb3d2a7c226849f13494)#5hk9m46m",
            "hex": "41041b8853cb910d55bafa739c7d66d08c9c073ef2bb52b3b8a19f562a09c5d4d5fd00db42200608b438d3da2f081be40d01c1675f5e58aadb3d2a7c226849f13494ac",
            "type": "pubkey"
          }
        }
      ],
      "hex": "01000000010000000000000000000000000000000000000000000000000000000000000000ffffffff0804ffff001d024903ffffffff0100f2052a010000004341041b8853cb910d55bafa739c7d66d08c9c073ef2bb52b3b8a19f562a09c5d4d5fd00db42200608b438d3da2f081be40d01c1675f5e58aadb3d2a7c226849f13494ac00000000"
    }
  ]
}