{
  "hash": "00000000dc5cc02c005e9ca3d4d605099ddde5a28c7a091a8384f67e3362b88f",
  "confirmations": 52046,
  "height": 1052,
  "version": 1,
  "versionHex": "00000001",
  "merkleroot": "7ae46b0ef7b39ae901196b404dd8fb99b84b8db7b6cb1fd1b9ecc3ef64bbb51e",
  "time": 1232388789,
  "mediantime": 1232385004,
  "nonce": 2650268422,
  "bits": "1d00ffff",
  "difficulty": 1,
  "chainwork": "0000000000000000000000000000000000000000000000000000041d041d041d",
  "nTx": 1,
  "previousblockhash": "000000003409ded9db68c486f8a296192c76eb810579bbcb1cf07bfbd4c03e20",
  "nextblockhash": "000000009dfac9a157e2b19374478d54251f28c8c488f091b86dc1d38d813425",
  "strippedsize": 216,
  "size": 216,
  "weight": 864,
  "tx": [
    {
      "txid": "7ae46b0ef7b39ae901196b404dd8fb99b84b8db7b6cb1fd1b9ecc3ef64bbb51e",
      "hash": "7ae46b0ef7b39ae901196b404dd8fb99b84b8db7b6cb1fd1b9ecc3ef64bbb51e",
      "version": 1,
      "size": 135,
      "vsize": 135,
      "weight": 540,
      "locktime": 0,
      "vin": [
        {
          "coinbase": "04ffff001d020c06",
          "sequence": 4294967295
        }
      ],
      "vout": [
        {
          "value": 50.0,
          "n": 0,
          "scriptPubKey": {
            "asm": "04002f4be36185939e35241b04cb940f8938544987c9b810371524253172b05a64ea74a05e13425409271e0f72daf4760259faf0ecff0fea894304e277752a2065 OP_CHECKSIG",
            "desc": "pk(04002f4be36185939e35241b04cb940f8938544987c9b810371524253172b05a64ea74a05e13425409271e0f72daf4760259faf0ecff0fea894304e277752a2065)#qwwl4kar",
            "hex": "4104002f4be36185939e35241b04cb940f8938544987c9b810371524253172b05a64ea74a05e13425409271e0f72daf4760259faf0ecff0fea894304e277752a2065ac",
            "type": "pubkey"
          }
        }
      ],
      "hex": "01000000010000000000000000000000000000000000000000000000000000000000000000ffffffff0804ffff001d020c06ffffffff0100f2052a01000000434104002f4be36185939e35241b04cb940f8938544987c9b810371524253172b05a64ea74a05e13425409271e0f72daf4760259faf0ecff0fea894304e277752a2065ac00000000"
    }
  ]
}