{
  "hash": "0000000061d5ec8fb1e4b5ece099519a437af09b8b5e9590604760964e188b14",
  "confirmations": 51139,
  "height": 1959,
  "version": 1,
  "versionHex": "00000001",
  "merkleroot": "a111f64596e728199114af474cd65669bc9f59675682c139f540ae61d276d8e3",
  "time": 1233015153,
  "mediantime": 1233010905,
  "nonce": 2554199072,
  "bits": "1d00ffff",
  "difficulty": 1,
  "chainwork": "000000000000000000000000000000000000000000000000000007a807a807a8",
  "nTx": 1,
  "previousblockhash": "0000000054573a9e32aed11105dd68d64a00ee431f17846f5ff3b3d198a453d8",
  "nextblockhash": "00000000c362f74664af60d2dd1841a9151c81eee7f61fe9efb67d3e4ca15dbc",
  "strippedsize": 216,
  "size": 216,
  "weight": 864,
  "tx": [
    {
      "txid": "a111f64596e728199114af474cd65669bc9f59675682c139f540ae61d276d8e3",
      "hash": "a111f64596e728199114af474cd65669bc9f59675682c139f540ae61d276d8e3",
      "version": 1,
      "size": 135,
      "vsize": 135,
      "weight": 540,
      "locktime": 0,
      "vin": [
        {
          "coinbase": "04ffff001d02bb00",
          "sequence": 4294967295
        }
      ],
      "vout": [
        {
          "value": 50.0,
          "n": 0,
          "scriptPubKey": {
            "asm": "047f4cb00397b774e7374b48c922ae852513ed6f6249ed3748e30fb7bd25eb361831ccfabcb43100c94bec67d7ee9be2bd549dbe2a9cb55afb59f4947990f82662 OP_CHECKSIG",
            "desc": "pk(047f4cb00397b774e7374b48c922ae852513ed6f6249ed3748e30fb7bd25eb361831ccfabcb43100c94bec67d7ee9be2bd549dbe2a9cb55afb59f4947990f82662)#xjgpeywj",
            "hex": "41047f4cb00397b774e7374b48c922ae852513ed6f6249ed3748e30fb7bd25eb361831ccfabcb43100c94bec67d7ee9be2bd549dbe2a9cb55afb59f4947990f82662ac",
            "type": "pubkey"
          }
        }
      ],
      "hex": "01000000010000000000000000000000000000000000000000000000000000000000000000ffffffff0804ffff001d02bb00ffffffff0100f2052a010000004341047f4cb00397b774e7374b48c922ae852513ed6f6249ed3748e30fb7bd25eb361831ccfabcb43100c94bec67d7ee9be2bd549dbe2a9cb55afb59f4947990f82662ac00000000"
    }
  ]
}