{
  "hash": "00000000731219aec041addd2c99cea903071350b0944fc2988bbec86877abaa",
  "confirmations": 52355,
  "height": 743,
  "version": 1,
  "versionHex": "00000001",
  "merkleroot": "04916fa6032abc23bef344520843a7079047361c31a1187a5a0fbb53bbdf77a8",
  "time": 1232144951,
  "mediantime": 1232140366,
  "nonce": 2945671454,
  "bits": "1d00ffff",
  "difficulty": 1,
  "chainwork": "000000000000000000000000000000000000000000000000000002e802e802e8",
  "nTx": 1,
  "previousblockhash": "00000000727ad4862f92633549f451cd8f478f1bc40e9149f80eb415da3a7533",
  "nextblockhash": "00000000349816587f5e5a9095174256b53c5f457222e3ef5362db55ab026620",
  "strippedsize": 216,
  "size": 216,
  "weight": 864,
  "tx": [
    {
      "txid": "04916fa6032abc23bef344520843a7079047361c31a1187a5a0fbb53bbdf77a8",
      "hash": "04916fa6032abc23bef344520843a7079047361c31a1187a5a0fbb53bbdf77a8",
      "version": 1,
      "size": 135,
      "vsize": 135,
      "weight": 540,
      "locktime": 0,
      "vin": [
        {
          "coinbase": "04ffff001d028b00",
          "sequence": 4294967295
        }
      ],
      "vout": [
        {
          "value": 50.0,
          "n": 0,
          "scriptPubKey": {
            "asm": "045827f12e54c834e51d97054b77fa001e479802f35cbe13f4222049b395d1bd6d824d4711817dff6e776ea9787840c64ecd9e40e761df4bbc76b3d2395e2bf969 OP_CHECKSIG",
            "desc": "pk(045827f12e54c834e51d97054b77fa001e479802f35cbe13f4222049b395d1bd6d824d4711817dff6e776ea9787840c64ecd9e40e761df4bbc76b3d2395e2bf969)#8u0wjx70",
            "hex": "41045827f12e54c834e51d97054b77fa001e479802f35cbe13f4222049b395d1bd6d824d4711817dff6e776ea9787840c64ecd9e40e761df4bbc76b3d2395e2bf969ac",
            "type": "pubkey"
          }
        }
      ],
      "hex": "01000000010000000000000000000000000000000000000000000000000000000000000000ffffffff0804ffff001d028b00ffffffff0100f2052a010000004341045827f12e54c834e51d97054b77fa001e479802f35cbe13f4222049b395d1bd6d824d4711817dff6e776ea9787840c64ecd9e40e761df4bbc76b3d2395e2bf969ac00000000"
    }
  ]
}