{
  "hash": "000000007d0e1add254a6d6802da19f7059e218b3ae57bf29caa843694efd121",
  "confirmations": 50121,
  "height": 2977,
  "version": 1,
  "versionHex": "00000001",
  "merkleroot": "ed9fc779149d1a2d5a87409454f8a2ea4d28dfffc1dda89547174d2ce1dfd834",
  "time": 1233747043,
  "mediantime": 1233742726,
  "nonce": 75846566,
  "bits": "1d00ffff",
  "difficulty": 1,
  "chainwork": "00000000000000000000000000000000000000000000000000000ba20ba20ba2",
  "nTx": 1,
  "previousblockhash": "000000002c7d06e470034ede0b49597c3743b1c717ec1605f4a86cbb07647e08",
  "nextblockhash": "00000000949dca9b431c0e7ab2824ea53720fe54a897f3f70b7d1b910935f3b2",
  "strippedsize": 215,
  "size": 215,
  "weight": 860,
  "tx": [
    {
      "txid": "ed9fc779149d1a2d5a87409454f8a2ea4d28dfffc1dda89547174d2ce1dfd834",
      "hash": "ed9fc779149d1a2d5a87409454f8a2ea4d28dfffc1dda89547174d2ce1dfd834",
      "version": 1,
      "size": 134,
      "vsize": 134,
      "weight": 536,
      "locktime": 0,
      "vin": [
        {
          "coinbase": "04ffff001d0106",
          "sequence": 4294967295
        }
      ],
      "vout": [
        {
          "value": 50.0,
          "n": 0,
          "scriptPubKey": {
            "asm": "04219768924cdf0fd5743d1279efa8faa9b3e4be85dc968837fe57a11451bd9c55aa634d3f439bf26f3c041f962476b09768e6d9d7c93d2fe95bc3aad3134a1f39 OP_CHECKSIG",
            "desc": "pk(04219768924cdf0fd5743d1279efa8faa9b3e4be85dc968837fe57a11451bd9c55aa634d3f439bf26f3c041f962476b09768e6d9d7c93d2fe95bc3aad3134a1f39)#e68p8lz2",
            "hex": "4104219768924cdf0fd5743d1279efa8faa9b3e4be85dc968837fe57a11451bd9c55aa634d3f439bf26f3c041f962476b09768e6d9d7c93d2fe95bc3aad3134a1f39ac",
            "type": "pubkey"
          }
        }
      ],
      "hex": "01000000010000000000000000000000000000000000000000000000000000000000000000ffffffff0704ffff001d0106ffffffff0100f2052a01000000434104219768924cdf0fd5743d1279efa8faa9b3e4be85dc968837fe57a11451bd9c55aa634d3f439bf26f3c041f962476b09768e6d9d7c93d2fe95bc3aad3134a1f39ac00000000"
    }
  ]
}