{
  "hash": "00000000f613d83e9b1a66d1daa4e62ee49e0112db1c52c26816ee2f917d197a",
  "confirmations": 43657,
  "height": 9441,
  "version": 1,
  "versionHex": "00000001",
  "merkleroot": "7b487dd453c423e510e22857a0c3ec8f734219973dac75819731d54e1a68fe3f",
  "time": 1238585497,
  "mediantime": 1238581763,
  "nonce": 23776150,
  "bits": "1d00ffff",
  "difficulty": 1,
  "chainwork": "000000000000000000000000000000000000000000000000000024e224e224e2",
  "nTx": 1,
  "previousblockhash": "000000001a34e973180b1fe80c130e46ba96249accbe7e240ed23a386d0bd8ba",
  "nextblockhash": "00000000142eb98f462be0b16008fb3bc58c2e77a9aee2bc278277d60df0bab2",
  "strippedsize": 216,
  "size": 216,
  "weight": 864,
  "tx": [
    {
      "txid": "7b487dd453c423e510e22857a0c3ec8f734219973dac75819731d54e1a68fe3f",
      "hash": "7b487dd453c423e510e22857a0c3ec8f734219973dac75819731d54e1a68fe3f",
      "version": 1,
      "size": 135,
      "vsize": 135,
      "weight": 540,
      "locktime": 0,
      "vin": [
        {
          "coinbase": "04ffff001d02990f",
          "sequence": 4294967295
        }
      ],
      "vout": [
        {
          "value": 50.0,
          "n": 0,
          "scriptPubKey": {
            "asm": "04a2b8ec7c339b411b587f7c0771aa2748e159727e8604de6beb0f5ea1dc15ab48a4f6dea26eb8f0efe924632ccf32802f9c56c3bf8568aef19f06608da06bd19b OP_CHECKSIG",
            "desc": "pk(04a2b8ec7c339b411b587f7c0771aa2748e159727e8604de6beb0f5ea1dc15ab48a4f6dea26eb8f0efe924632ccf32802f9c56c3bf8568aef19f06608da06bd19b)#pmgtmzah",
            "hex": "4104a2b8ec7c339b411b587f7c0771aa2748e159727e8604de6beb0f5ea1dc15ab48a4f6dea26eb8f0efe924632ccf32802f9c56c3bf8568aef19f06608da06bd19bac",
            "type": "pubkey"
          }
        }
      ],
      "hex": "01000000010000000000000000000000000000000000000000000000000000000000000000ffffffff0804ffff001d02990fffffffff0100f2052a01000000434104a2b8ec7c339b411b587f7c0771aa2748e159727e8604de6beb0f5ea1dc15ab48a4f6dea26eb8f0efe924632ccf32802f9c56c3bf8568aef19f06608da06bd19bac00000000"
    }
  ]
}