{
  "hash": "000000000f50c9b97b28606ad3d8bcae55684984b93b5dfea87f47f4fc7b9dd6",
  "confirmations": 52228,
  "height": 870,
  "version": 1,
  "versionHex": "00000001",
  "merkleroot": "d39f36f74a4853ecbac3104c4b8663b5e042715185c632a5480518c095d56116",
  "time": 1232247477,
  "mediantime": 1232243873,
  "nonce": 4029003271,
  "bits": "1d00ffff",
  "difficulty": 1,
  "chainwork": "0000000000000000000000000000000000000000000000000000036703670367",
  "nTx": 1,
  "previousblockhash": "000000004a5988864cd783ea9a53a3e874bdaf50d7adb915ed700472bdd1ae07",
  "nextblockhash": "00000000a2708e0112d83a00106dfcd39a4b56f0895c8e083b030cf2897c67b7",
  "strippedsize": 216,
  "size": 216,
  "weight": 864,
  "tx": [
    {
      "txid": "d39f36f74a4853ecbac3104c4b8663b5e042715185c632a5480518c095d56116",
      "hash": "d39f36f74a4853ecbac3104c4b8663b5e042715185c632a5480518c095d56116",
      "version": 1,
      "size": 135,
      "vsize": 135,
      "weight": 540,
      "locktime": 0,
      "vin": [
        {
          "coinbase": "04ffff001d02ea02",
          "sequence": 4294967295
        }
      ],
      "vout": [
        {
          "value": 50.0,
          "n": 0,
          "scriptPubKey": {
            "asm": "049a98e22f6fcf467f92a5812e4b61581f4579bfb949f4884cee2cafb9c1eb951f8c7cdaf3d98767b446dd13a3153262d3d75428e15e18b86b9f72a32ac30438e0 OP_CHECKSIG",
            "desc": "pk(049a98e22f6fcf467f92a5812e4b61581f4579bfb949f4884cee2cafb9c1eb951f8c7cdaf3d98767b446dd13a3153262d3d75428e15e18b86b9f72a32ac30438e0)#xh036prn",
            "hex": "41049a98e22f6fcf467f92a5812e4b61581f4579bfb949f4884cee2cafb9c1eb951f8c7cdaf3d98767b446dd13a3153262d3d75428e15e18b86b9f72a32ac30438e0ac",
            "type": "pubkey"
          }
        }
      ],
      "hex": "01000000010000000000000000000000000000000000000000000000000000000000000000ffffffff0804ffff001d02ea02ffffffff0100f2052a010000004341049a98e22f6fcf467f92a5812e4b61581f4579bfb949f4884cee2cafb9c1eb951f8c7cdaf3d98767b446dd13a3153262d3d75428e15e18b86b9f72a32ac30438e0ac00000000"
    }
  ]
}