{
  "hash": "000000002acb7a5ef424a6a916e458c1dc55f1da37892bd55ce0605feba3a216",
  "confirmations": 49241,
  "height": 3857,
  "version": 1,
  "versionHex": "00000001",
  "merkleroot": "ae3467b87e4d1f3a6b2296650fe4d67136e3b6fe55e0512bac1c2064ec2a928e",
  "time": 1234338414,
  "mediantime": 1234334848,
  "nonce": 3683737863,
  "bits": "1d00ffff",
  "difficulty": 1,
  "chainwork": "00000000000000000000000000000000000000000000000000000f120f120f12",
  "nTx": 1,
  "previousblockhash": "00000000de6bcd4f223c8bdbab8a2d9af296290be0e24c94caa98a8e3150401a",
  "nextblockhash": "00000000e6e9d05164c9fc62ff8ab2e3273aa8b7258ae3f97cf2d93bc940094c",
  "strippedsize": 216,
  "size": 216,
  "weight": 864,
  "tx": [
    {
      "txid": "ae3467b87e4d1f3a6b2296650fe4d67136e3b6fe55e0512bac1c2064ec2a928e",
      "hash": "ae3467b87e4d1f3a6b2296650fe4d67136e3b6fe55e0512bac1c2064ec2a928e",
      "version": 1,
      "size": 135,
      "vsize": 135,
      "weight": 540,
      "locktime": 0,
      "vin": [
        {
          "coinbase": "04ffff001d020a02",
          "sequence": 4294967295
        }
      ],
      "vout": [
        {
          "value": 50.0,
          "n": 0,
          "scriptPubKey": {
            "asm": "04a3dff39f6322d07bd448763ad77b9e60cf7de33fa660991131d62146d502f7804d87b761ee36cebcd986024f2530695dcfb36ca7b4c6832a0b8cc82bf6b03dce OP_CHECKSIG",
            "desc": "pk(04a3dff39f6322d07bd448763ad77b9e60cf7de33fa660991131d62146d502f7804d87b761ee36cebcd986024f2530695dcfb36ca7b4c6832a0b8cc82bf6b03dce)#hxum73up",
            "hex": "4104a3dff39f6322d07bd448763ad77b9e60cf7de33fa660991131d62146d502f7804d87b761ee36cebcd986024f2530695dcfb36ca7b4c6832a0b8cc82bf6b03dceac",
            "type": "pubkey"
          }
        }
      ],
      "hex": "01000000010000000000000000000000000000000000000000000000000000000000000000ffffffff0804ffff001d020a02ffffffff0100f2052a01000000434104a3dff39f6322d07bd448763ad77b9e60cf7de33fa660991131d62146d502f7804d87b761ee36cebcd986024f2530695dcfb36ca7b4c6832a0b8cc82bf6b03dceac00000000"
    }
  ]
}