{
  "hash": "00000000c041cb35fa7c3f2f8a71cd3ed85838d21cdfe93aee6d48a131e9866f",
  "confirmations": 45773,
  "height": 7325,
  "version": 1,
  "versionHex": "00000001",
  "merkleroot": "d17d5f1ae3cec427c0e05fb2b47defb945bdf97fe65b309b95f95b7931e2b193",
  "time": 1236965483,
  "mediantime": 1236962389,
  "nonce": 1496293171,
  "bits": "1d00ffff",
  "difficulty": 1,
  "chainwork": "00000000000000000000000000000000000000000000000000001c9e1c9e1c9e",
  "nTx": 1,
  "previousblockhash": "00000000354d483f419e60e7ff916d057431715b2bc8d9361e6f66d8818b5ebe",
  "nextblockhash": "00000000d4b08aca34609811875a3c8f9570c00e9763baea6c4d640a418ce7bc",
  "strippedsize": 216,
  "size": 216,
  "weight": 864,
  "tx": [
    {
      "txid": "d17d5f1ae3cec427c0e05fb2b47defb945bdf97fe65b309b95f95b7931e2b193",
      "hash": "d17d5f1ae3cec427c0e05fb2b47defb945bdf97fe65b309b95f95b7931e2b193",
      "version": 1,
      "size": 135,
      "vsize": 135,
      "weight": 540,
      "locktime": 0,
      "vin": [
        {
          "coinbase": "04ffff001d020108",
          "sequence": 4294967295
        }
      ],
      "vout": [
        {
          "value": 50.0,
          "n": 0,
          "scriptPubKey": {
            "asm": "044e78c96f298e4ea3845ac628ecf4e2bdeb0e1077cbd87a83664272ffb5212a5420d3723a07541b44c085b28f79f6f25b51038060fd79c3bf1012f02aad6c5d97 OP_CHECKSIG",
            "desc": "pk(044e78c96f298e4ea3845ac628ecf4e2bdeb0e1077cbd87a83664272ffb5212a5420d3723a07541b44c085b28f79f6f25b51038060fd79c3bf1012f02aad6c5d97)#jxp7c45m",
            "hex": "41044e78c96f298e4ea3845ac628ecf4e2bdeb0e1077cbd87a83664272ffb5212a5420d3723a07541b44c085b28f79f6f25b51038060fd79c3bf1012f02aad6c5d97ac",
            "type": "pubkey"
          }
        }
      ],
      "hex": "01000000010000000000000000000000000000000000000000000000000000000000000000ffffffff0804ffff001d020108ffffffff0100f2052a010000004341044e78c96f298e4ea3845ac628ecf4e2bdeb0e1077cbd87a83664272ffb5212a5420d3723a07541b44c085b28f79f6f25b51038060fd79c3bf1012f02aad6c5d97ac00000000"
    }
  ]
}