{
  "hash": "00000000901236b6b60ea294338dc498e2691d40e5d6fd931aa7e5e694935f36",
  "confirmations": 44219,
  "height": 8879,
  "version": 1,
  "versionHex": "00000001",
  "merkleroot": "3dcd6a1a9d56b8ae4ea58ec8f9ec065f080364531d03723eed669a9824f670ff",
  "time": 1238160514,
  "mediantime": 1238155253,
  "nonce": 3022136377,
  "bits": "1d00ffff",
  "difficulty": 1,
  "chainwork": "000000000000000000000000000000000000000000000000000022b022b022b0",
  "nTx": 1,
  "previousblockhash": "00000000ec7c949e12fc0b74c64b8fa8c78f8d53f69868a4b3408450c82d136e",
  "nextblockhash": "0000000024ddc3c8de38e778defa4cbe136ec6d5533fb38649a06738f122bd2f",
  "strippedsize": 216,
  "size": 216,
  "weight": 864,
  "tx": [
    {
      "txid": "3dcd6a1a9d56b8ae4ea58ec8f9ec065f080364531d03723eed669a9824f670ff",
      "hash": "3dcd6a1a9d56b8ae4ea58ec8f9ec065f080364531d03723eed669a9824f670ff",
      "version": 1,
      "size": 135,
      "vsize": 135,
      "weight": 540,
      "locktime": 0,
      "vin": [
        {
          "coinbase": "04ffff001d021304",
          "sequence": 4294967295
        }
      ],
      "vout": [
        {
          "value": 50.0,
          "n": 0,
          "scriptPubKey": {
            "asm": "04aec4de5c7d57e58675073019331a11eb6a82c96901dbf3841fdba9b47bd0054de15644cdf745128ca13896a7a78764db3a802da7e17c74f5cc5d2b32ab6c9f95 OP_CHECKSIG",
            "desc": "pk(04aec4de5c7d57e58675073019331a11eb6a82c96901dbf3841fdba9b47bd0054de15644cdf745128ca13896a7a78764db3a802da7e17c74f5cc5d2b32ab6c9f95)#p0k5ud2w",
            "hex": "4104aec4de5c7d57e58675073019331a11eb6a82c96901dbf3841fdba9b47bd0054de15644cdf745128ca13896a7a78764db3a802da7e17c74f5cc5d2b32ab6c9f95ac",
            "type": "pubkey"
          }
        }
      ],
      "hex": "01000000010000000000000000000000000000000000000000000000000000000000000000ffffffff0804ffff001d021304ffffffff0100f2052a01000000434104aec4de5c7d57e58675073019331a11eb6a82c96901dbf3841fdba9b47bd0054de15644cdf745128ca13896a7a78764db3a802da7e17c74f5cc5d2b32ab6c9f95ac00000000"
    }
  ]
}