{
  "hash": "000000009e48aa3498ce546a1cbfccbc083e080108b06e0ad4bcea59c74a1af1",
  "confirmations": 52427,
  "height": 671,
  "version": 1,
  "versionHex": "00000001",
  "merkleroot": "300bc4662e5e573fec5bc2433c2301aa920099f708767ec96ed09681f816e61f",
  "time": 1232084566,
  "mediantime": 1232079036,
  "nonce": 2407549237,
  "bits": "1d00ffff",
  "difficulty": 1,
  "chainwork": "000000000000000000000000000000000000000000000000000002a002a002a0",
  "nTx": 1,
  "previousblockhash": "00000000bb7f77903d7ebcd8849cc4c6570bbd52e623f6ee341e8e67241251fc",
  "nextblockhash": "000000005d0ceb9dfcec53ef56b48f949f6e7a4e76b6fe9641fd02beff7134b4",
  "strippedsize": 215,
  "size": 215,
  "weight": 860,
  "tx": [
    {
      "txid": "300bc4662e5e573fec5bc2433c2301aa920099f708767ec96ed09681f816e61f",
      "hash": "300bc4662e5e573fec5bc2433c2301aa920099f708767ec96ed09681f816e61f",
      "version": 1,
      "size": 134,
      "vsize": 134,
      "weight": 536,
      "locktime": 0,
      "vin": [
        {
          "coinbase": "04ffff001d0145",
          "sequence": 4294967295
        }
      ],
      "vout": [
        {
          "value": 50.0,
          "n": 0,
          "scriptPubKey": {
            "asm": "04eaedca3318c5930289c7771ed31cfa9e9010c72858278f28daef55cc9355db49fda3f0f8f0ad6dd70d4644d9a7f293de17eab81accde0ff06b4dce368fd1317b OP_CHECKSIG",
            "desc": "pk(04eaedca3318c5930289c7771ed31cfa9e9010c72858278f28daef55cc9355db49fda3f0f8f0ad6dd70d4644d9a7f293de17eab81accde0ff06b4dce368fd1317b)#v3xtawu7",
            "hex": "4104eaedca3318c5930289c7771ed31cfa9e9010c72858278f28daef55cc9355db49fda3f0f8f0ad6dd70d4644d9a7f293de17eab81accde0ff06b4dce368fd1317bac",
            "type": "pubkey"
          }
        }
      ],
      "hex": "01000000010000000000000000000000000000000000000000000000000000000000000000ffffffff0704ffff001d0145ffffffff0100f2052a01000000434104eaedca3318c5930289c7771ed31cfa9e9010c72858278f28daef55cc9355db49fda3f0f8f0ad6dd70d4644d9a7f293de17eab81accde0ff06b4dce368fd1317bac00000000"
    }
  ]
}