{
  "hash": "00000000f13281e1792ffa0dfa5147fb8a602737a15f2227eb341d0204fef65f",
  "confirmations": 45518,
  "height": 7580,
  "version": 1,
  "versionHex": "00000001",
  "merkleroot": "bf261748f781ccccebbb5730e8abddcc9fc4b3c2d3e60fd175e26a820b79d94e",
  "time": 1237154244,
  "mediantime": 1237150200,
  "nonce": 130234613,
  "bits": "1d00ffff",
  "difficulty": 1,
  "chainwork": "00000000000000000000000000000000000000000000000000001d9d1d9d1d9d",
  "nTx": 1,
  "previousblockhash": "000000004bc858764b741d6f795a2e4c50b313a8e62d574064d2a0890c5e0476",
  "nextblockhash": "0000000035c2f89067fbf0e092d87b3dcc259898471b07056faaf69d2222e915",
  "strippedsize": 216,
  "size": 216,
  "weight": 864,
  "tx": [
    {
      "txid": "bf261748f781ccccebbb5730e8abddcc9fc4b3c2d3e60fd175e26a820b79d94e",
      "hash": "bf261748f781ccccebbb5730e8abddcc9fc4b3c2d3e60fd175e26a820b79d94e",
      "version": 1,
      "size": 135,
      "vsize": 135,
      "weight": 540,
      "locktime": 0,
      "vin": [
        {
          "coinbase": "04ffff001d02ff01",
          "sequence": 4294967295
        }
      ],
      "vout": [
        {
          "value": 50.0,
          "n": 0,
          "scriptPubKey": {
            "asm": "049e76a998e8acad4c839e6ff8b5e5ec0cb536c42cd98997572c9f46977aa2fe2c68e09528849c340f24511b20dbd82b39f52772a8f4d797e48a22a550dd0e0ddb OP_CHECKSIG",
            "desc": "pk(049e76a998e8acad4c839e6ff8b5e5ec0cb536c42cd98997572c9f46977aa2fe2c68e09528849c340f24511b20dbd82b39f52772a8f4d797e48a22a550dd0e0ddb)#3heggvl3",
            "hex": "41049e76a998e8acad4c839e6ff8b5e5ec0cb536c42cd98997572c9f46977aa2fe2c68e09528849c340f24511b20dbd82b39f52772a8f4d797e48a22a550dd0e0ddbac",
            "type": "pubkey"
          }
        }
      ],
      "hex": "01000000010000000000000000000000000000000000000000000000000000000000000000ffffffff0804ffff001d02ff01ffffffff0100f2052a010000004341049e76a998e8acad4c839e6ff8b5e5ec0cb536c42cd98997572c9f46977aa2fe2c68e09528849c340f24511b20dbd82b39f52772a8f4d797e48a22a550dd0e0ddbac00000000"
    }
  ]
}