{
  "hash": "0000000087e87b084602a425e53819b65dc0f0ac9bff48631c7d24972a0537b6",
  "confirmations": 47156,
  "height": 5942,
  "version": 1,
  "versionHex": "00000001",
  "merkleroot": "71be026bd9181870131f9ef5d21901ee3471b1ca15e4e6d9cf62c5c760a58dc1",
  "time": 1235882167,
  "mediantime": 1235878007,
  "nonce": 2143833620,
  "bits": "1d00ffff",
  "difficulty": 1,
  "chainwork": "0000000000000000000000000000000000000000000000000000173717371737",
  "nTx": 1,
  "previousblockhash": "000000009b8514d16b4a64f6a458de01da3b633275dea5b511be12c121782d46",
  "nextblockhash": "00000000cdf2d26cf41ed165002a30ef49d9e8071dd8335607f19c6080e79bc6",
  "strippedsize": 216,
  "size": 216,
  "weight": 864,
  "tx": [
    {
      "txid": "71be026bd9181870131f9ef5d21901ee3471b1ca15e4e6d9cf62c5c760a58dc1",
      "hash": "71be026bd9181870131f9ef5d21901ee3471b1ca15e4e6d9cf62c5c760a58dc1",
      "version": 1,
      "size": 135,
      "vsize": 135,
      "weight": 540,
      "locktime": 0,
      "vin": [
        {
          "coinbase": "04ffff001d02e203",
          "sequence": 4294967295
        }
      ],
      "vout": [
        {
          "value": 50.0,
          "n": 0,
          "scriptPubKey": {
            "asm": "043456c9f83920060bd563e05b95c1eca0c15d72f5c28681762fc7cdb5738e4cbd0927f3dc5e1d66ba3631e013e9b3fa97ef25df5ba10a0ce49290d9a383388212 OP_CHECKSIG",
            "desc": "pk(043456c9f83920060bd563e05b95c1eca0c15d72f5c28681762fc7cdb5738e4cbd0927f3dc5e1d66ba3631e013e9b3fa97ef25df5ba10a0ce49290d9a383388212)#r7ndjz4a",
            "hex": "41043456c9f83920060bd563e05b95c1eca0c15d72f5c28681762fc7cdb5738e4cbd0927f3dc5e1d66ba3631e013e9b3fa97ef25df5ba10a0ce49290d9a383388212ac",
            "type": "pubkey"
          }
        }
      ],
      "hex": "01000000010000000000000000000000000000000000000000000000000000000000000000ffffffff0804ffff001d02e203ffffffff0100f2052a010000004341043456c9f83920060bd563e05b95c1eca0c15d72f5c28681762fc7cdb5738e4cbd0927f3dc5e1d66ba3631e013e9b3fa97ef25df5ba10a0ce49290d9a383388212ac00000000"
    }
  ]
}