{
  "hash": "0000000055fcaf04cb9a82bb86b46a21b15fcaa75ac8c18679b0234f79c4c615",
  "confirmations": 47097,
  "height": 6001,
  "version": 1,
  "versionHex": "00000001",
  "merkleroot": "43692803a91208232ef82817225448d37b6802eb97721a2211d8b1d7fa368cc8",
  "time": 1235928384,
  "mediantime": 1235925065,
  "nonce": 236042503,
  "bits": "1d00ffff",
  "difficulty": 1,
  "chainwork": "0000000000000000000000000000000000000000000000000000177217721772",
  "nTx": 1,
  "previousblockhash": "00000000dbbb79792303bdd1c6c4d7ab9c21bba0667213c2eca955e11230c5a5",
  "nextblockhash": "00000000198dcc55f787401f8d0fe034d1bcf67c1132422eeb590db42bf780f5",
  "strippedsize": 216,
  "size": 216,
  "weight": 864,
  "tx": [
    {
      "txid": "43692803a91208232ef82817225448d37b6802eb97721a2211d8b1d7fa368cc8",
      "hash": "43692803a91208232ef82817225448d37b6802eb97721a2211d8b1d7fa368cc8",
      "version": 1,
      "size": 135,
      "vsize": 135,
      "weight": 540,
      "locktime": 0,
      "vin": [
        {
          "coinbase": "04ffff001d02fc04",
          "sequence": 4294967295
        }
      ],
      "vout": [
        {
          "value": 50.0,
          "n": 0,
          "scriptPubKey": {
            "asm": "040076c4dde91d6dd619a4ac257ef0086ae6c592d250cc33c8ef7d83883e1213a53dfbdce278488b6f76b4c69526b018145b9029fb850f04b6f26fe57d1d376911 OP_CHECKSIG",
            "desc": "pk(040076c4dde91d6dd619a4ac257ef0086ae6c592d250cc33c8ef7d83883e1213a53dfbdce278488b6f76b4c69526b018145b9029fb850f04b6f26fe57d1d376911)#q92gcdr4",
            "hex": "41040076c4dde91d6dd619a4ac257ef0086ae6c592d250cc33c8ef7d83883e1213a53dfbdce278488b6f76b4c69526b018145b9029fb850f04b6f26fe57d1d376911ac",
            "type": "pubkey"
          }
        }
      ],
      "hex": "01000000010000000000000000000000000000000000000000000000000000000000000000ffffffff0804ffff001d02fc04ffffffff0100f2052a010000004341040076c4dde91d6dd619a4ac257ef0086ae6c592d250cc33c8ef7d83883e1213a53dfbdce278488b6f76b4c69526b018145b9029fb850f04b6f26fe57d1d376911ac00000000"
    }
  ]
}