{
  "hash": "00000000aa76e6a124d09dc0dc182a8f7632f9121e34db37def27648f71fdf52",
  "confirmations": 48538,
  "height": 4560,
  "version": 1,
  "versionHex": "00000001",
  "merkleroot": "9b1f2d8cd3c542a2ca747997855459a1e27ff9e79e1fce814eae8c02d9023431",
  "time": 1234824948,
  "mediantime": 1234820711,
  "nonce": 1316363543,
  "bits": "1d00ffff",
  "difficulty": 1,
  "chainwork": "000000000000000000000000000000000000000000000000000011d111d111d1",
  "nTx": 1,
  "previousblockhash": "00000000fdcd3d7a60e714c9e42edc818e9017865642b80783d85b5bfa69b6fb",
  "nextblockhash": "0000000089abf237d732a1515f7066e7ba29e1833664da8b704c8575c0465223",
  "strippedsize": 215,
  "size": 215,
  "weight": 860,
  "tx": [
    {
      "txid": "9b1f2d8cd3c542a2ca747997855459a1e27ff9e79e1fce814eae8c02d9023431",
      "hash": "9b1f2d8cd3c542a2ca747997855459a1e27ff9e79e1fce814eae8c02d9023431",
      "version": 1,
      "size": 134,
      "vsize": 134,
      "weight": 536,
      "locktime": 0,
      "vin": [
        {
          "coinbase": "04ffff001d0150",
          "sequence": 4294967295
        }
      ],
      "vout": [
        {
          "value": 50.0,
          "n": 0,
          "scriptPubKey": {
            "asm": "04981376d295b2fb521180d0ad2200057cd8ae311747bf87e8fb0a10becf4fe0bc8d62b5271e72e6f96cf42b66d292ca752a2345176742846383a917de3cea7109 OP_CHECKSIG",
            "desc": "pk(04981376d295b2fb521180d0ad2200057cd8ae311747bf87e8fb0a10becf4fe0bc8d62b5271e72e6f96cf42b66d292ca752a2345176742846383a917de3cea7109)#2texdj9v",
            "hex": "4104981376d295b2fb521180d0ad2200057cd8ae311747bf87e8fb0a10becf4fe0bc8d62b5271e72e6f96cf42b66d292ca752a2345176742846383a917de3cea7109ac",
            "type": "pubkey"
          }
        }
      ],
      "hex": "01000000010000000000000000000000000000000000000000000000000000000000000000ffffffff0704ffff001d0150ffffffff0100f2052a01000000434104981376d295b2fb521180d0ad2200057cd8ae311747bf87e8fb0a10becf4fe0bc8d62b5271e72e6f96cf42b66d292ca752a2345176742846383a917de3cea7109ac00000000"
    }
  ]
}