{
  "hash": "00000000aeace44d57a51c231a1b5e9a0edc21b77c32503c0b0c186161ce4e17",
  "confirmations": 44461,
  "height": 8637,
  "version": 1,
  "versionHex": "00000001",
  "merkleroot": "a9dd4be91d9bf032935d02db094e42907d40ed4724f4667d8d2baf51ec88bc02",
  "time": 1237974029,
  "mediantime": 1237970391,
  "nonce": 69336528,
  "bits": "1d00ffff",
  "difficulty": 1,
  "chainwork": "000000000000000000000000000000000000000000000000000021be21be21be",
  "nTx": 1,
  "previousblockhash": "000000004a639e0267d63fbe57f54bbad6fbb10f8b261b66ec1806a1b788fd38",
  "nextblockhash": "000000004aed3ecd7f4eee639eacb046187f06ec5baf02c8434134f914d3156f",
  "strippedsize": 216,
  "size": 216,
  "weight": 864,
  "tx": [
    {
      "txid": "a9dd4be91d9bf032935d02db094e42907d40ed4724f4667d8d2baf51ec88bc02",
      "hash": "a9dd4be91d9bf032935d02db094e42907d40ed4724f4667d8d2baf51ec88bc02",
      "version": 1,
      "size": 135,
      "vsize": 135,
      "weight": 540,
      "locktime": 0,
      "vin": [
        {
          "coinbase": "04ffff001d02c103",
          "sequence": 4294967295
        }
      ],
      "vout": [
        {
          "value": 50.0,
          "n": 0,
          "scriptPubKey": {
            "asm": "04822a133c17092874af53a998f116acc593d7badd5faf75581bb1de0e14f7f1cc7fcc43fd31cb67ebc99d3fa6e4e6a20dc0e76a74ad451687a959ddc1aa8f3e25 OP_CHECKSIG",
            "desc": "pk(04822a133c17092874af53a998f116acc593d7badd5faf75581bb1de0e14f7f1cc7fcc43fd31cb67ebc99d3fa6e4e6a20dc0e76a74ad451687a959ddc1aa8f3e25)#8ugx2al9",
            "hex": "4104822a133c17092874af53a998f116acc593d7badd5faf75581bb1de0e14f7f1cc7fcc43fd31cb67ebc99d3fa6e4e6a20dc0e76a74ad451687a959ddc1aa8f3e25ac",
            "type": "pubkey"
          }
        }
      ],
      "hex": "01000000010000000000000000000000000000000000000000000000000000000000000000ffffffff0804ffff001d02c103ffffffff0100f2052a01000000434104822a133c17092874af53a998f116acc593d7badd5faf75581bb1de0e14f7f1cc7fcc43fd31cb67ebc99d3fa6e4e6a20dc0e76a74ad451687a959ddc1aa8f3e25ac00000000"
    }
  ]
}