{
  "hash": "00000000d704e101720a1f3e58b0d96ab456b72964aef734b82a323f80ac5df4",
  "confirmations": 43310,
  "height": 9788,
  "version": 1,
  "versionHex": "00000001",
  "merkleroot": "79571d0692193e643dd782f783b94ad630f9fe90f29069f9f201c173ffab5895",
  "time": 1238848944,
  "mediantime": 1238845986,
  "nonce": 2140807213,
  "bits": "1d00ffff",
  "difficulty": 1,
  "chainwork": "0000000000000000000000000000000000000000000000000000263d263d263d",
  "nTx": 1,
  "previousblockhash": "00000000b06330c887ba63611ef49b7f2a7ec6e32e12c0600a304757c2295df7",
  "nextblockhash": "00000000e2c7a3ddc1f2cb885bc41cd2c8cc701006f6f85a337cdd96db9778a7",
  "strippedsize": 215,
  "size": 215,
  "weight": 860,
  "tx": [
    {
      "txid": "79571d0692193e643dd782f783b94ad630f9fe90f29069f9f201c173ffab5895",
      "hash": "79571d0692193e643dd782f783b94ad630f9fe90f29069f9f201c173ffab5895",
      "version": 1,
      "size": 134,
      "vsize": 134,
      "weight": 536,
      "locktime": 0,
      "vin": [
        {
          "coinbase": "04ffff001d0123",
          "sequence": 4294967295
        }
      ],
      "vout": [
        {
          "value": 50.0,
          "n": 0,
          "scriptPubKey": {
            "asm": "0478e2d1d3251942be54475d39e5a938761a9d219473bd9d710522eff08ccefa7130765b791a6d6e65da886dabcd36c33a00457ce5a37f34c71554fd8392da26c9 OP_CHECKSIG",
            "desc": "pk(0478e2d1d3251942be54475d39e5a938761a9d219473bd9d710522eff08ccefa7130765b791a6d6e65da886dabcd36c33a00457ce5a37f34c71554fd8392da26c9)#xfl3n3zj",
            "hex": "410478e2d1d3251942be54475d39e5a938761a9d219473bd9d710522eff08ccefa7130765b791a6d6e65da886dabcd36c33a00457ce5a37f34c71554fd8392da26c9ac",
            "type": "pubkey"
          }
        }
      ],
      "hex": "01000000010000000000000000000000000000000000000000000000000000000000000000ffffffff0704ffff001d0123ffffffff0100f2052a0100000043410478e2d1d3251942be54475d39e5a938761a9d219473bd9d710522eff08ccefa7130765b791a6d6e65da886dabcd36c33a00457ce5a37f34c71554fd8392da26c9ac00000000"
    }
  ]
}