{
  "hash": "000000007aa473a866d49bbfd76cf24f9bedfdb02ddf3da031ffe6617fe54054",
  "confirmations": 51442,
  "height": 1656,
  "version": 1,
  "versionHex": "00000001",
  "merkleroot": "2daa705dbcb841cb56b474766ec0968ceecae8583d5cf498f059aaa8b878e742",
  "time": 1232835785,
  "mediantime": 1232833881,
  "nonce": 1665527841,
  "bits": "1d00ffff",
  "difficulty": 1,
  "chainwork": "0000000000000000000000000000000000000000000000000000067906790679",
  "nTx": 1,
  "previousblockhash": "0000000013e4b004621f9f0fd3bd4960644f5d641bea7035f308ed1591e49a42",
  "nextblockhash": "00000000ce93cde80c0995a881d0c5520d122089f6d78f7edf5368bc0128114b",
  "strippedsize": 216,
  "size": 216,
  "weight": 864,
  "tx": [
    {
      "txid": "2daa705dbcb841cb56b474766ec0968ceecae8583d5cf498f059aaa8b878e742",
      "hash": "2daa705dbcb841cb56b474766ec0968ceecae8583d5cf498f059aaa8b878e742",
      "version": 1,
      "size": 135,
      "vsize": 135,
      "weight": 540,
      "locktime": 0,
      "vin": [
        {
          "coinbase": "04ffff001d02b302",
          "sequence": 4294967295
        }
      ],
      "vout": [
        {
          "value": 50.0,
          "n": 0,
          "scriptPubKey": {
            "asm": "04c0c0238625d1e54a104ff5f3e2e52fb551468417d6aeecf1252ebf39c6cc1ae8ab061d27084f953584332ad14953f1991c7c384fb80f404f712868e8326517ce OP_CHECKSIG",
            "desc": "pk(04c0c0238625d1e54a104ff5f3e2e52fb551468417d6aeecf1252ebf39c6cc1ae8ab061d27084f953584332ad14953f1991c7c384fb80f404f712868e8326517ce)#z7zas37d",
            "hex": "4104c0c0238625d1e54a104ff5f3e2e52fb551468417d6aeecf1252ebf39c6cc1ae8ab061d27084f953584332ad14953f1991c7c384fb80f404f712868e8326517ceac",
            "type": "pubkey"
          }
        }
      ],
      "hex": "01000000010000000000000000000000000000000000000000000000000000000000000000ffffffff0804ffff001d02b302ffffffff0100f2052a01000000434104c0c0238625d1e54a104ff5f3e2e52fb551468417d6aeecf1252ebf39c6cc1ae8ab061d27084f953584332ad14953f1991c7c384fb80f404f712868e8326517ceac00000000"
    }
  ]
}