{
  "hash": "0000000092da292cd2347953dc0a331af3353e4708ad95455318f5d7ad1a3299",
  "confirmations": 46959,
  "height": 6139,
  "version": 1,
  "versionHex": "00000001",
  "merkleroot": "64ec9d5b53ce2b1007f3a4f53e06168d38298a688cb2f95841715e6b63d77046",
  "time": 1236040591,
  "mediantime": 1236036279,
  "nonce": 1979597870,
  "bits": "1d00ffff",
  "difficulty": 1,
  "chainwork": "000000000000000000000000000000000000000000000000000017fc17fc17fc",
  "nTx": 1,
  "previousblockhash": "00000000ee1a46427e38ee9e582cb273806cbd7ad7dde48d2ea68e8d6a138f73",
  "nextblockhash": "00000000d39fb19e2d805d2603a5ee371464f8a4cced6ab327d54811887b8483",
  "strippedsize": 216,
  "size": 216,
  "weight": 864,
  "tx": [
    {
      "txid": "64ec9d5b53ce2b1007f3a4f53e06168d38298a688cb2f95841715e6b63d77046",
      "hash": "64ec9d5b53ce2b1007f3a4f53e06168d38298a688cb2f95841715e6b63d77046",
      "version": 1,
      "size": 135,
      "vsize": 135,
      "weight": 540,
      "locktime": 0,
      "vin": [
        {
          "coinbase": "04ffff001d028407",
          "sequence": 4294967295
        }
      ],
      "vout": [
        {
          "value": 50.0,
          "n": 0,
          "scriptPubKey": {
            "asm": "0474155a6c32d09bbb5f843a0f465d3898152e2ea1cac54a96f07509fe377c82c585b9835054711d90e8e979fa811e6ed3cf12850474fa736279a5f81d3fbedce4 OP_CHECKSIG",
            "desc": "pk(0474155a6c32d09bbb5f843a0f465d3898152e2ea1cac54a96f07509fe377c82c585b9835054711d90e8e979fa811e6ed3cf12850474fa736279a5f81d3fbedce4)#fgf2l759",
            "hex": "410474155a6c32d09bbb5f843a0f465d3898152e2ea1cac54a96f07509fe377c82c585b9835054711d90e8e979fa811e6ed3cf12850474fa736279a5f81d3fbedce4ac",
            "type": "pubkey"
          }
        }
      ],
      "hex": "01000000010000000000000000000000000000000000000000000000000000000000000000ffffffff0804ffff001d028407ffffffff0100f2052a0100000043410474155a6c32d09bbb5f843a0f465d3898152e2ea1cac54a96f07509fe377c82c585b9835054711d90e8e979fa811e6ed3cf12850474fa736279a5f81d3fbedce4ac00000000"
    }
  ]
}