{
  "hash": "00000000deb704fba930460b98b866320eca8626fc6eae98242fe49e698b319e",
  "confirmations": 51704,
  "height": 1394,
  "version": 1,
  "versionHex": "00000001",
  "merkleroot": "430d1cce55a9851710fd1c479c6e4c16ada7a1bdf93e29c8c7a01bfdf7bdd3e4",
  "time": 1232703311,
  "mediantime": 1232682580,
  "nonce": 443463594,
  "bits": "1d00ffff",
  "difficulty": 1,
  "chainwork": "0000000000000000000000000000000000000000000000000000057305730573",
  "nTx": 1,
  "previousblockhash": "00000000e5b5336b44848b1fda341c5a925a3db43d3db5c9ed694990a705b462",
  "nextblockhash": "00000000d48dc4f87ea7fd0a24fdf68437293a2ce9f1c382340921a7db4b4bd7",
  "strippedsize": 216,
  "size": 216,
  "weight": 864,
  "tx": [
    {
      "txid": "430d1cce55a9851710fd1c479c6e4c16ada7a1bdf93e29c8c7a01bfdf7bdd3e4",
      "hash": "430d1cce55a9851710fd1c479c6e4c16ada7a1bdf93e29c8c7a01bfdf7bdd3e4",
      "version": 1,
      "size": 135,
      "vsize": 135,
      "weight": 540,
      "locktime": 0,
      "vin": [
        {
          "coinbase": "04ffff001d025f02",
          "sequence": 4294967295
        }
      ],
      "vout": [
        {
          "value": 50.0,
          "n": 0,
          "scriptPubKey": {
            "asm": "047c34cbfba9b2913b12bebbfa74853714f1749b3765323720e101e216cf2b8291f7b8a1a801bf73cb2be2fc32562dea0e7891d9c90d5d40c30a44a05d462b7ba9 OP_CHECKSIG",
            "desc": "pk(047c34cbfba9b2913b12bebbfa74853714f1749b3765323720e101e216cf2b8291f7b8a1a801bf73cb2be2fc32562dea0e7891d9c90d5d40c30a44a05d462b7ba9)#rqrt8hse",
            "hex": "41047c34cbfba9b2913b12bebbfa74853714f1749b3765323720e101e216cf2b8291f7b8a1a801bf73cb2be2fc32562dea0e7891d9c90d5d40c30a44a05d462b7ba9ac",
            "type": "pubkey"
          }
        }
      ],
      "hex": "01000000010000000000000000000000000000000000000000000000000000000000000000ffffffff0804ffff001d025f02ffffffff0100f2052a010000004341047c34cbfba9b2913b12bebbfa74853714f1749b3765323720e101e216cf2b8291f7b8a1a801bf73cb2be2fc32562dea0e7891d9c90d5d40c30a44a05d462b7ba9ac00000000"
    }
  ]
}