{
  "hash": "00000000524557572e1f396e9c54c44bf7183c7c84d9286407ce823a994e8406",
  "confirmations": 45711,
  "height": 7387,
  "version": 1,
  "versionHex": "00000001",
  "merkleroot": "8b545d05207307cc49b65fe32c57bdc1d48c2e294929de690a355463e03eb299",
  "time": 1237011107,
  "mediantime": 1237007418,
  "nonce": 2230314537,
  "bits": "1d00ffff",
  "difficulty": 1,
  "chainwork": "00000000000000000000000000000000000000000000000000001cdc1cdc1cdc",
  "nTx": 1,
  "previousblockhash": "000000003a3cf35ae842a1ec066d2ee285c22a32f48c442ec58e1e31d312bdd7",
  "nextblockhash": "00000000f7cae754b61022f00739d16d76387b62677e050e4cf533027e51421c",
  "strippedsize": 216,
  "size": 216,
  "weight": 864,
  "tx": [
    {
      "txid": "8b545d05207307cc49b65fe32c57bdc1d48c2e294929de690a355463e03eb299",
      "hash": "8b545d05207307cc49b65fe32c57bdc1d48c2e294929de690a355463e03eb299",
      "version": 1,
      "size": 135,
      "vsize": 135,
      "weight": 540,
      "locktime": 0,
      "vin": [
        {
          "coinbase": "04ffff001d021b09",
          "sequence": 4294967295
        }
      ],
      "vout": [
        {
          "value": 50.0,
          "n": 0,
          "scriptPubKey": {
            "asm": "0468f97e6938f165f15d1878792aba8fcdb7b655bc6cb7013413a8ccf36c256c206c966da69e3a5a3fb6879ddd7eccfa76044d136ce073db50de331e69340f523f OP_CHECKSIG",
            "desc": "pk(0468f97e6938f165f15d1878792aba8fcdb7b655bc6cb7013413a8ccf36c256c206c966da69e3a5a3fb6879ddd7eccfa76044d136ce073db50de331e69340f523f)#4g2u8suw",
            "hex": "410468f97e6938f165f15d1878792aba8fcdb7b655bc6cb7013413a8ccf36c256c206c966da69e3a5a3fb6879ddd7eccfa76044d136ce073db50de331e69340f523fac",
            "type": "pubkey"
          }
        }
      ],
      "hex": "01000000010000000000000000000000000000000000000000000000000000000000000000ffffffff0804ffff001d021b09ffffffff0100f2052a0100000043410468f97e6938f165f15d1878792aba8fcdb7b655bc6cb7013413a8ccf36c256c206c966da69e3a5a3fb6879ddd7eccfa76044d136ce073db50de331e69340f523fac00000000"
    }
  ]
}