{
  "hash": "000000001520f175deec6aa18a3175b2ba70f826fd13b537b6e625c2a2cdcfb0",
  "confirmations": 50573,
  "height": 2525,
  "version": 1,
  "versionHex": "00000001",
  "merkleroot": "3e1a7ed50b2d0c600cbd04de58de1942f8b7ecebb7a40d13c8a18f2eb508c2be",
  "time": 1233434034,
  "mediantime": 1233430684,
  "nonce": 286461993,
  "bits": "1d00ffff",
  "difficulty": 1,
  "chainwork": "000000000000000000000000000000000000000000000000000009de09de09de",
  "nTx": 1,
  "previousblockhash": "000000000e1a27ff4c29ef750fb620bef5697a32554e007f008c36bdc129b150",
  "nextblockhash": "000000009b292446110215b7e9909c0ff7caa80b6d5a18ca5197d8ee5e083ead",
  "strippedsize": 215,
  "size": 215,
  "weight": 860,
  "tx": [
    {
      "txid": "3e1a7ed50b2d0c600cbd04de58de1942f8b7ecebb7a40d13c8a18f2eb508c2be",
      "hash": "3e1a7ed50b2d0c600cbd04de58de1942f8b7ecebb7a40d13c8a18f2eb508c2be",
      "version": 1,
      "size": 134,
      "vsize": 134,
      "weight": 536,
      "locktime": 0,
      "vin": [
        {
          "coinbase": "04ffff001d0123",
          "sequence": 4294967295
        }
      ],
      "vout": [
        {
          "value": 50.0,
          "n": 0,
          "scriptPubKey": {
            "asm": "04144d5e1b24a04181d72dfddf6973854a7e2f94f1b6f67981256d7ead253c5fa4865ffadf9e2086fdaf7d07e9675fe5521256b0c9489a65c1cbf821ebb079348c OP_CHECKSIG",
            "desc": "pk(04144d5e1b24a04181d72dfddf6973854a7e2f94f1b6f67981256d7ead253c5fa4865ffadf9e2086fdaf7d07e9675fe5521256b0c9489a65c1cbf821ebb079348c)#s99g6jg8",
            "hex": "4104144d5e1b24a04181d72dfddf6973854a7e2f94f1b6f67981256d7ead253c5fa4865ffadf9e2086fdaf7d07e9675fe5521256b0c9489a65c1cbf821ebb079348cac",
            "type": "pubkey"
          }
        }
      ],
      "hex": "01000000010000000000000000000000000000000000000000000000000000000000000000ffffffff0704ffff001d0123ffffffff0100f2052a01000000434104144d5e1b24a04181d72dfddf6973854a7e2f94f1b6f67981256d7ead253c5fa4865ffadf9e2086fdaf7d07e9675fe5521256b0c9489a65c1cbf821ebb079348cac00000000"
    }
  ]
}