{
  "hash": "000000009528e65fa55b5dfdfbb9662aececf54169bc5e2a7379128ec4345765",
  "confirmations": 46145,
  "height": 6953,
  "version": 1,
  "versionHex": "00000001",
  "merkleroot": "c667418580e130fe3f7824717b6e3ae108fe197e1d71d6903ddc083f3729b5d7",
  "time": 1236682346,
  "mediantime": 1236679263,
  "nonce": 1033740318,
  "bits": "1d00ffff",
  "difficulty": 1,
  "chainwork": "00000000000000000000000000000000000000000000000000001b2a1b2a1b2a",
  "nTx": 1,
  "previousblockhash": "00000000bb35826c0a9294ae63c59e8b906bfa6e7801ecd9b26d75021131df66",
  "nextblockhash": "000000005446a2e7544a571fe72aac68046ad5e18d31badde7196eff89f2c43c",
  "strippedsize": 216,
  "size": 216,
  "weight": 864,
  "tx": [
    {
      "txid": "c667418580e130fe3f7824717b6e3ae108fe197e1d71d6903ddc083f3729b5d7",
      "hash": "c667418580e130fe3f7824717b6e3ae108fe197e1d71d6903ddc083f3729b5d7",
      "version": 1,
      "size": 135,
      "vsize": 135,
      "weight": 540,
      "locktime": 0,
      "vin": [
        {
          "coinbase": "04ffff001d026301",
          "sequence": 4294967295
        }
      ],
      "vout": [
        {
          "value": 50.0,
          "n": 0,
          "scriptPubKey": {
            "asm": "04f6eac7ea7a50ab4265cb17d3c29fb87d996cbb0f7fe6ac65c08e701e2f5984bda5a164a5aa4c1e3ec28a675c5d47568635f32171932259e57229fbb46efeb93b OP_CHECKSIG",
            "desc": "pk(04f6eac7ea7a50ab4265cb17d3c29fb87d996cbb0f7fe6ac65c08e701e2f5984bda5a164a5aa4c1e3ec28a675c5d47568635f32171932259e57229fbb46efeb93b)#zax9ygyq",
            "hex": "4104f6eac7ea7a50ab4265cb17d3c29fb87d996cbb0f7fe6ac65c08e701e2f5984bda5a164a5aa4c1e3ec28a675c5d47568635f32171932259e57229fbb46efeb93bac",
            "type": "pubkey"
          }
        }
      ],
      "hex": "01000000010000000000000000000000000000000000000000000000000000000000000000ffffffff0804ffff001d026301ffffffff0100f2052a01000000434104f6eac7ea7a50ab4265cb17d3c29fb87d996cbb0f7fe6ac65c08e701e2f5984bda5a164a5aa4c1e3ec28a675c5d47568635f32171932259e57229fbb46efeb93bac00000000"
    }
  ]
}