{
  "hash": "0000000076408cdaa9d8fbb05251fd29fd0c1160c38b644a47a4e495521a3c03",
  "confirmations": 49867,
  "height": 3231,
  "version": 1,
  "versionHex": "00000001",
  "merkleroot": "47dbf8847a3aab378a881978e41fe81142040a2220558213bc907118774cc620",
  "time": 1233921395,
  "mediantime": 1233918385,
  "nonce": 856450090,
  "bits": "1d00ffff",
  "difficulty": 1,
  "chainwork": "00000000000000000000000000000000000000000000000000000ca00ca00ca0",
  "nTx": 1,
  "previousblockhash": "0000000076c21f273b8a5ee56437b29190fd820cc8fbb8c4020e9c60a35ffe91",
  "nextblockhash": "000000006e6beb21a9b43035cc1db8a2fc5a31e8ca6df2935c522977c8258a49",
  "strippedsize": 216,
  "size": 216,
  "weight": 864,
  "tx": [
    {
      "txid": "47dbf8847a3aab378a881978e41fe81142040a2220558213bc907118774cc620",
      "hash": "47dbf8847a3aab378a881978e41fe81142040a2220558213bc907118774cc620",
      "version": 1,
      "size": 135,
      "vsize": 135,
      "weight": 540,
      "locktime": 0,
      "vin": [
        {
          "coinbase": "04ffff001d022e03",
          "sequence": 4294967295
        }
      ],
      "vout": [
        {
          "value": 50.0,
          "n": 0,
          "scriptPubKey": {
            "asm": "04350568337bf84d59b7a8e06cc8643bb63adfdb429437e5bd2b3dc868276269a0a2a53426ace42b633869ba4839d6f35bf4eec6efe2d4231ab0f622ca0a3b6e55 OP_CHECKSIG",
            "desc": "pk(04350568337bf84d59b7a8e06cc8643bb63adfdb429437e5bd2b3dc868276269a0a2a53426ace42b633869ba4839d6f35bf4eec6efe2d4231ab0f622ca0a3b6e55)#xq7xgl75",
            "hex": "4104350568337bf84d59b7a8e06cc8643bb63adfdb429437e5bd2b3dc868276269a0a2a53426ace42b633869ba4839d6f35bf4eec6efe2d4231ab0f622ca0a3b6e55ac",
            "type": "pubkey"
          }
        }
      ],
      "hex": "01000000010000000000000000000000000000000000000000000000000000000000000000ffffffff0804ffff001d022e03ffffffff0100f2052a01000000434104350568337bf84d59b7a8e06cc8643bb63adfdb429437e5bd2b3dc868276269a0a2a53426ace42b633869ba4839d6f35bf4eec6efe2d4231ab0f622ca0a3b6e55ac00000000"
    }
  ]
}