{
  "hash": "00000000066ab05249afd45856e1dc0f66eb3243ea241170d0ed503e0c9a9d0f",
  "confirmations": 49926,
  "height": 3172,
  "version": 1,
  "versionHex": "00000001",
  "merkleroot": "7d7dde58df0ec9c3e3558bb30ef7ae7c6b5ca75580404440243cb339ef4cfe25",
  "time": 1233880658,
  "mediantime": 1233877789,
  "nonce": 1548242724,
  "bits": "1d00ffff",
  "difficulty": 1,
  "chainwork": "00000000000000000000000000000000000000000000000000000c650c650c65",
  "nTx": 1,
  "previousblockhash": "00000000a288b596d38e26514d3b5824953338c17824a84d1380bfe6c1e1b0a8",
  "nextblockhash": "000000004d45f9c50da31b2c243c285e2468022343df15862d3c659bcfaf480c",
  "strippedsize": 216,
  "size": 216,
  "weight": 864,
  "tx": [
    {
      "txid": "7d7dde58df0ec9c3e3558bb30ef7ae7c6b5ca75580404440243cb339ef4cfe25",
      "hash": "7d7dde58df0ec9c3e3558bb30ef7ae7c6b5ca75580404440243cb339ef4cfe25",
      "version": 1,
      "size": 135,
      "vsize": 135,
      "weight": 540,
      "locktime": 0,
      "vin": [
        {
          "coinbase": "04ffff001d024002",
          "sequence": 4294967295
        }
      ],
      "vout": [
        {
          "value": 50.0,
          "n": 0,
          "scriptPubKey": {
            "asm": "04f9c9ae4ebe0ab5a4eccd5e3b78b1b294e5f8e7bc135863ee5550e0400ba0450a3316b213f0bacaee3c9c48267aa59e35c6a9436dd73c3a5af24241c85fa0cb52 OP_CHECKSIG",
            "desc": "pk(04f9c9ae4ebe0ab5a4eccd5e3b78b1b294e5f8e7bc135863ee5550e0400ba0450a3316b213f0bacaee3c9c48267aa59e35c6a9436dd73c3a5af24241c85fa0cb52)#wsn6a0u7",
            "hex": "4104f9c9ae4ebe0ab5a4eccd5e3b78b1b294e5f8e7bc135863ee5550e0400ba0450a3316b213f0bacaee3c9c48267aa59e35c6a9436dd73c3a5af24241c85fa0cb52ac",
            "type": "pubkey"
          }
        }
      ],
      "hex": "01000000010000000000000000000000000000000000000000000000000000000000000000ffffffff0804ffff001d024002ffffffff0100f2052a01000000434104f9c9ae4ebe0ab5a4eccd5e3b78b1b294e5f8e7bc135863ee5550e0400ba0450a3316b213f0bacaee3c9c48267aa59e35c6a9436dd73c3a5af24241c85fa0cb52ac00000000"
    }
  ]
}