{
  "hash": "000000008c503c6c56dfee6a4ce1091875c8d7d9defe2c72f9eb5db0454f00c7",
  "confirmations": 52014,
  "height": 324,
  "version": 1,
  "versionHex": "00000001",
  "merkleroot": "9350f8022ba85d248c58719692d374e0198689b84e8f2b108760be4c6d78a01f",
  "time": 1231849416,
  "mediantime": 1231846048,
  "nonce": 1686297623,
  "bits": "1d00ffff",
  "difficulty": 1,
  "chainwork": "0000000000000000000000000000000000000000000000000000014501450145",
  "nTx": 1,
  "previousblockhash": "00000000900d1e70b9606b562b92b62c0dafb82e14068aef08f0e5694fd433d4",
  "nextblockhash": "00000000b4e2799499c9e64dfbe13fc772be5e9c1eb284eac1b501710fb48ccb",
  "strippedsize": 216,
  "size": 216,
  "weight": 864,
  "tx": [
    {
      "txid": "9350f8022ba85d248c58719692d374e0198689b84e8f2b108760be4c6d78a01f",
      "hash": "9350f8022ba85d248c58719692d374e0198689b84e8f2b108760be4c6d78a01f",
      "version": 1,
      "size": 135,
      "vsize": 135,
      "weight": 540,
      "locktime": 0,
      "vin": [
        {
          "coinbase": "04ffff001d02e300",
          "sequence": 4294967295
        }
      ],
      "vout": [
        {
          "value": 50.0,
          "n": 0,
          "scriptPubKey": {
            "asm": "040b78fd185d49d3159005a4ae4e34163bc4f083c4f7151e146091e38abf14d3e2c85f13ea39304351bf4a125d9b828ea9e07b99b2aa7c86ca0510937cbb835202 OP_CHECKSIG",
            "desc": "pk(040b78fd185d49d3159005a4ae4e34163bc4f083c4f7151e146091e38abf14d3e2c85f13ea39304351bf4a125d9b828ea9e07b99b2aa7c86ca0510937cbb835202)#ccuzgtys",
            "hex": "41040b78fd185d49d3159005a4ae4e34163bc4f083c4f7151e146091e38abf14d3e2c85f13ea39304351bf4a125d9b828ea9e07b99b2aa7c86ca0510937cbb835202ac",
            "type": "pubkey"
          }
        }
      ],
      "hex": "01000000010000000000000000000000000000000000000000000000000000000000000000ffffffff0804ffff001d02e300ffffffff0100f2052a010000004341040b78fd185d49d3159005a4ae4e34163bc4f083c4f7151e146091e38abf14d3e2c85f13ea39304351bf4a125d9b828ea9e07b99b2aa7c86ca0510937cbb835202ac00000000"
    }
  ]
}