{
  "hash": "000000000759edba4552e80a22a25e679441435ed6244ac41656b786798915f5",
  "confirmations": 49423,
  "height": 3675,
  "version": 1,
  "versionHex": "00000001",
  "merkleroot": "7df0e13a39beca9db1525b7fecc00970d58ac72554de9a2026255a8cc5434934",
  "time": 1234218159,
  "mediantime": 1234213815,
  "nonce": 2831707962,
  "bits": "1d00ffff",
  "difficulty": 1,
  "chainwork": "00000000000000000000000000000000000000000000000000000e5c0e5c0e5c",
  "nTx": 1,
  "previousblockhash": "0000000023889e8a1728f2cf31b073a2f488728470291952291a8196cf401599",
  "nextblockhash": "00000000748e201e29c8d5e6cc6b5842bd8f7eb3b63893c194a2f4de4b1fb772",
  "strippedsize": 216,
  "size": 216,
  "weight": 864,
  "tx": [
    {
      "txid": "7df0e13a39beca9db1525b7fecc00970d58ac72554de9a2026255a8cc5434934",
      "hash": "7df0e13a39beca9db1525b7fecc00970d58ac72554de9a2026255a8cc5434934",
      "version": 1,
      "size": 135,
      "vsize": 135,
      "weight": 540,
      "locktime": 0,
      "vin": [
        {
          "coinbase": "04ffff001d02a409",
          "sequence": 4294967295
        }
      ],
      "vout": [
        {
          "value": 50.0,
          "n": 0,
          "scriptPubKey": {
            "asm": "04e0e1bab6c5fe32ea5f1da4104d9df57aedba94b3aef0231efcc60579ca8d6fdda6ee694a3ee884cfc2f5ba32ffbd22330958e4d7f810b7094f83349fad6c49c6 OP_CHECKSIG",
            "desc": "pk(04e0e1bab6c5fe32ea5f1da4104d9df57aedba94b3aef0231efcc60579ca8d6fdda6ee694a3ee884cfc2f5ba32ffbd22330958e4d7f810b7094f83349fad6c49c6)#hq04t6wu",
            "hex": "4104e0e1bab6c5fe32ea5f1da4104d9df57aedba94b3aef0231efcc60579ca8d6fdda6ee694a3ee884cfc2f5ba32ffbd22330958e4d7f810b7094f83349fad6c49c6ac",
            "type": "pubkey"
          }
        }
      ],
      "hex": "01000000010000000000000000000000000000000000000000000000000000000000000000ffffffff0804ffff001d02a409ffffffff0100f2052a01000000434104e0e1bab6c5fe32ea5f1da4104d9df57aedba94b3aef0231efcc60579ca8d6fdda6ee694a3ee884cfc2f5ba32ffbd22330958e4d7f810b7094f83349fad6c49c6ac00000000"
    }
  ]
}