{
  "hash": "000000003dd59e05f88a63e32d18ced5ee2b2cbab396d5563c3ac8eecd75065d",
  "confirmations": 47296,
  "height": 5802,
  "version": 1,
  "versionHex": "00000001",
  "merkleroot": "8cdb38a7985ccfaab5f9ae32f8edb5289c8acc9e19c37b77cd912de179d2a057",
  "time": 1235760135,
  "mediantime": 1235757639,
  "nonce": 28567718,
  "bits": "1d00ffff",
  "difficulty": 1,
  "chainwork": "000000000000000000000000000000000000000000000000000016ab16ab16ab",
  "nTx": 1,
  "previousblockhash": "00000000f94d02c84f733bfa4cf26bb87a44b6261c2b62c659e6f582a402727a",
  "nextblockhash": "00000000ed6a39c203dce1462025e86b25cd26fec82b02323e2e72c55b4326cd",
  "strippedsize": 216,
  "size": 216,
  "weight": 864,
  "tx": [
    {
      "txid": "8cdb38a7985ccfaab5f9ae32f8edb5289c8acc9e19c37b77cd912de179d2a057",
      "hash": "8cdb38a7985ccfaab5f9ae32f8edb5289c8acc9e19c37b77cd912de179d2a057",
      "version": 1,
      "size": 135,
      "vsize": 135,
      "weight": 540,
      "locktime": 0,
      "vin": [
        {
          "coinbase": "04ffff001d022d01",
          "sequence": 4294967295
        }
      ],
      "vout": [
        {
          "value": 50.0,
          "n": 0,
          "scriptPubKey": {
            "asm": "04fb12eae30ca86b02e0fd4905d79336bc4489a004b24796127ae8b3b2375872fbe4ca4be68a62c2dd77562414509c005309125206afea7b7398a67b8f957a86fd OP_CHECKSIG",
            "desc": "pk(04fb12eae30ca86b02e0fd4905d79336bc4489a004b24796127ae8b3b2375872fbe4ca4be68a62c2dd77562414509c005309125206afea7b7398a67b8f957a86fd)#0ppx64pf",
            "hex": "4104fb12eae30ca86b02e0fd4905d79336bc4489a004b24796127ae8b3b2375872fbe4ca4be68a62c2dd77562414509c005309125206afea7b7398a67b8f957a86fdac",
            "type": "pubkey"
          }
        }
      ],
      "hex": "01000000010000000000000000000000000000000000000000000000000000000000000000ffffffff0804ffff001d022d01ffffffff0100f2052a01000000434104fb12eae30ca86b02e0fd4905d79336bc4489a004b24796127ae8b3b2375872fbe4ca4be68a62c2dd77562414509c005309125206afea7b7398a67b8f957a86fdac00000000"
    }
  ]
}