{
  "hash": "000000005b9cb994d9eb7d7cd8f9d1e5f7132826a601072a205b13ccb84f2237",
  "confirmations": 51511,
  "height": 1587,
  "version": 1,
  "versionHex": "00000001",
  "merkleroot": "0802faa692f0f583e7fa79c7a546292e7be6c1105b5900fa075a894a1f5345c3",
  "time": 1232805920,
  "mediantime": 1232803272,
  "nonce": 2628464168,
  "bits": "1d00ffff",
  "difficulty": 1,
  "chainwork": "0000000000000000000000000000000000000000000000000000063406340634",
  "nTx": 1,
  "previousblockhash": "000000005c66e047b5ed4244911c203fac9507adb6d8e378a15db84841751b6f",
  "nextblockhash": "000000009f3ca6b97241f9224a114fe9e8174a68130c34db98fb2bbbd1bf01db",
  "strippedsize": 216,
  "size": 216,
  "weight": 864,
  "tx": [
    {
      "txid": "0802faa692f0f583e7fa79c7a546292e7be6c1105b5900fa075a894a1f5345c3",
      "hash": "0802faa692f0f583e7fa79c7a546292e7be6c1105b5900fa075a894a1f5345c3",
      "version": 1,
      "size": 135,
      "vsize": 135,
      "weight": 540,
      "locktime": 0,
      "vin": [
        {
          "coinbase": "04ffff001d020202",
          "sequence": 4294967295
        }
      ],
      "vout": [
        {
          "value": 50.0,
          "n": 0,
          "scriptPubKey": {
            "asm": "04cd8b8804b6bd184910ed191133a1c9c04e2149e5f30da86040320ad8d9f3aaa62283d614e88ca04af1a20c75f350023aaad8328f5dca993f476ae0452d4a2c1d OP_CHECKSIG",
            "desc": "pk(04cd8b8804b6bd184910ed191133a1c9c04e2149e5f30da86040320ad8d9f3aaa62283d614e88ca04af1a20c75f350023aaad8328f5dca993f476ae0452d4a2c1d)#vaqyyu5h",
            "hex": "4104cd8b8804b6bd184910ed191133a1c9c04e2149e5f30da86040320ad8d9f3aaa62283d614e88ca04af1a20c75f350023aaad8328f5dca993f476ae0452d4a2c1dac",
            "type": "pubkey"
          }
        }
      ],
      "hex": "01000000010000000000000000000000000000000000000000000000000000000000000000ffffffff0804ffff001d020202ffffffff0100f2052a01000000434104cd8b8804b6bd184910ed191133a1c9c04e2149e5f30da86040320ad8d9f3aaa62283d614e88ca04af1a20c75f350023aaad8328f5dca993f476ae0452d4a2c1dac00000000"
    }
  ]
}