{
  "hash": "000000005f94dc8d776ffe1d1e27e0116fb5308d3f65b6c4c077c675d3d92e84",
  "confirmations": 50784,
  "height": 2314,
  "version": 1,
  "versionHex": "00000001",
  "merkleroot": "8aa6266e7772f01875b42cdff5c311267d263f162423d22fe789710fa7f48c28",
  "time": 1233290818,
  "mediantime": 1233285837,
  "nonce": 3212635936,
  "bits": "1d00ffff",
  "difficulty": 1,
  "chainwork": "0000000000000000000000000000000000000000000000000000090b090b090b",
  "nTx": 1,
  "previousblockhash": "000000000c7cc1382aea8698cd52304cfcff6f3f044958acbf890da20f096674",
  "nextblockhash": "000000002d12c33db8318af7ea6836aabd8b2da30dca4b3a7e38a48dd99e6ceb",
  "strippedsize": 216,
  "size": 216,
  "weight": 864,
  "tx": [
    {
      "txid": "8aa6266e7772f01875b42cdff5c311267d263f162423d22fe789710fa7f48c28",
      "hash": "8aa6266e7772f01875b42cdff5c311267d263f162423d22fe789710fa7f48c28",
      "version": 1,
      "size": 135,
      "vsize": 135,
      "weight": 540,
      "locktime": 0,
      "vin": [
        {
          "coinbase": "04ffff001d02dc01",
          "sequence": 4294967295
        }
      ],
      "vout": [
        {
          "value": 50.0,
          "n": 0,
          "scriptPubKey": {
            "asm": "043ddf3d42e3813daf4fd3db4f0fa7f93172eb8b99342cfd531093845019a2941ab711d2cde9caf67b94f96da8f874919c7ab206c8f75f846d1cca23e59eba8e5d OP_CHECKSIG",
            "desc": "pk(043ddf3d42e3813daf4fd3db4f0fa7f93172eb8b99342cfd531093845019a2941ab711d2cde9caf67b94f96da8f874919c7ab206c8f75f846d1cca23e59eba8e5d)#tsdtzjwt",
            "hex": "41043ddf3d42e3813daf4fd3db4f0fa7f93172eb8b99342cfd531093845019a2941ab711d2cde9caf67b94f96da8f874919c7ab206c8f75f846d1cca23e59eba8e5dac",
            "type": "pubkey"
          }
        }
      ],
      "hex": "01000000010000000000000000000000000000000000000000000000000000000000000000ffffffff0804ffff001d02dc01ffffffff0100f2052a010000004341043ddf3d42e3813daf4fd3db4f0fa7f93172eb8b99342cfd531093845019a2941ab711d2cde9caf67b94f96da8f874919c7ab206c8f75f846d1cca23e59eba8e5dac00000000"
    }
  ]
}