{
  "hash": "0000000066c016c875f0e56c552f406f69de471c76f85781228457826582f03a",
  "confirmations": 45729,
  "height": 7369,
  "version": 1,
  "versionHex": "00000001",
  "merkleroot": "4d14444f218b4a97b2a3638c57af2f314d3ad262431d25eee360f3721ea0bf6c",
  "time": 1236997673,
  "mediantime": 1236993660,
  "nonce": 1769337889,
  "bits": "1d00ffff",
  "difficulty": 1,
  "chainwork": "00000000000000000000000000000000000000000000000000001cca1cca1cca",
  "nTx": 1,
  "previousblockhash": "00000000dc83b7cb494a538f1524c387fb4bba7946af422bd383dffc62c7229a",
  "nextblockhash": "000000000562da619caf26409ae3dab49f39c1856e960f0cef7028768cbd6711",
  "strippedsize": 216,
  "size": 216,
  "weight": 864,
  "tx": [
    {
      "txid": "4d14444f218b4a97b2a3638c57af2f314d3ad262431d25eee360f3721ea0bf6c",
      "hash": "4d14444f218b4a97b2a3638c57af2f314d3ad262431d25eee360f3721ea0bf6c",
      "version": 1,
      "size": 135,
      "vsize": 135,
      "weight": 540,
      "locktime": 0,
      "vin": [
        {
          "coinbase": "04ffff001d02d708",
          "sequence": 4294967295
        }
      ],
      "vout": [
        {
          "value": 50.0,
          "n": 0,
          "scriptPubKey": {
            "asm": "04d687cf58febb83e68aff7055f65bc96583043d25be8a627165d579706e0636c7bbabe70fc8976f76a13de96fc06622192cf8cc6a4da3a078e87f4d8ace257c0d OP_CHECKSIG",
            "desc": "pk(04d687cf58febb83e68aff7055f65bc96583043d25be8a627165d579706e0636c7bbabe70fc8976f76a13de96fc06622192cf8cc6a4da3a078e87f4d8ace257c0d)#aax3v77z",
            "hex": "4104d687cf58febb83e68aff7055f65bc96583043d25be8a627165d579706e0636c7bbabe70fc8976f76a13de96fc06622192cf8cc6a4da3a078e87f4d8ace257c0dac",
            "type": "pubkey"
          }
        }
      ],
      "hex": "01000000010000000000000000000000000000000000000000000000000000000000000000ffffffff0804ffff001d02d708ffffffff0100f2052a01000000434104d687cf58febb83e68aff7055f65bc96583043d25be8a627165d579706e0636c7bbabe70fc8976f76a13de96fc06622192cf8cc6a4da3a078e87f4d8ace257c0dac00000000"
    }
  ]
}