{
  "hash": "00000000429a5c03424de0a0d38c1137d5375022192d3d005c8d177d34b19aa7",
  "confirmations": 46940,
  "height": 6158,
  "version": 1,
  "versionHex": "00000001",
  "merkleroot": "37e89d3b40ccd2f0771bb7be0484a2ee521569d0434422a2c72588a5ea1af69c",
  "time": 1236056345,
  "mediantime": 1236051554,
  "nonce": 1431865384,
  "bits": "1d00ffff",
  "difficulty": 1,
  "chainwork": "0000000000000000000000000000000000000000000000000000180f180f180f",
  "nTx": 1,
  "previousblockhash": "00000000a8b2e10ddb8996b9abf88a6f421a1c5eb961396e7b79a08ab648078c",
  "nextblockhash": "00000000d2da033fe3ebe3a8bb696f8b3bd08beb97b514507af1152ccbc45cd6",
  "strippedsize": 216,
  "size": 216,
  "weight": 864,
  "tx": [
    {
      "txid": "37e89d3b40ccd2f0771bb7be0484a2ee521569d0434422a2c72588a5ea1af69c",
      "hash": "37e89d3b40ccd2f0771bb7be0484a2ee521569d0434422a2c72588a5ea1af69c",
      "version": 1,
      "size": 135,
      "vsize": 135,
      "weight": 540,
      "locktime": 0,
      "vin": [
        {
          "coinbase": "04ffff001d02c407",
          "sequence": 4294967295
        }
      ],
      "vout": [
        {
          "value": 50.0,
          "n": 0,
          "scriptPubKey": {
            "asm": "044f548477452922fe6ef24c43c0a7606d90851b81525d8f110f7346da5b32087da8541fe8ca1404726fccf9a80b1c64065a611d94536e9e870ee39824b4589489 OP_CHECKSIG",
            "desc": "pk(044f548477452922fe6ef24c43c0a7606d90851b81525d8f110f7346da5b32087da8541fe8ca1404726fccf9a80b1c64065a611d94536e9e870ee39824b4589489)#7d4x5msr",
            "hex": "41044f548477452922fe6ef24c43c0a7606d90851b81525d8f110f7346da5b32087da8541fe8ca1404726fccf9a80b1c64065a611d94536e9e870ee39824b4589489ac",
            "type": "pubkey"
          }
        }
      ],
      "hex": "01000000010000000000000000000000000000000000000000000000000000000000000000ffffffff0804ffff001d02c407ffffffff0100f2052a010000004341044f548477452922fe6ef24c43c0a7606d90851b81525d8f110f7346da5b32087da8541fe8ca1404726fccf9a80b1c64065a611d94536e9e870ee39824b4589489ac00000000"
    }
  ]
}