{
  "hash": "000000003f7e074587fa1684ac863519fea3c64040b05ddd04948a13f7b19b42",
  "confirmations": 52206,
  "height": 415,
  "version": 1,
  "versionHex": "00000001",
  "merkleroot": "9f53223f570d2a5434d3a1b5b2ccb969a312618101f8e1808730f55d97a854e8",
  "time": 1231912565,
  "mediantime": 1231909577,
  "nonce": 1910704928,
  "bits": "1d00ffff",
  "difficulty": 1,
  "chainwork": "000000000000000000000000000000000000000000000000000001a001a001a0",
  "nTx": 1,
  "previousblockhash": "0000000054f5445a546e095668d56d66fbf5c977561da29b3ae8b97db9526d7b",
  "nextblockhash": "00000000accb9001c11866848a686bc3f2c42111cbcf2ee52cc5f5c7fcac508f",
  "strippedsize": 216,
  "size": 216,
  "weight": 864,
  "tx": [
    {
      "txid": "9f53223f570d2a5434d3a1b5b2ccb969a312618101f8e1808730f55d97a854e8",
      "hash": "9f53223f570d2a5434d3a1b5b2ccb969a312618101f8e1808730f55d97a854e8",
      "version": 1,
      "size": 135,
      "vsize": 135,
      "weight": 540,
      "locktime": 0,
      "vin": [
        {
          "coinbase": "04ffff001d02e302",
          "sequence": 4294967295
        }
      ],
      "vout": [
        {
          "value": 50.0,
          "n": 0,
          "scriptPubKey": {
            "asm": "04bd049622bee449533d770630bdccb130af4e9d1065964f190db9238b538fc12e90c57a354e74e312858679eee9b9eaa86f8f60cdc9565f549c94b9106a0ebfe9 OP_CHECKSIG",
            "desc": "pk(04bd049622bee449533d770630bdccb130af4e9d1065964f190db9238b538fc12e90c57a354e74e312858679eee9b9eaa86f8f60cdc9565f549c94b9106a0ebfe9)#jj38wprt",
            "hex": "4104bd049622bee449533d770630bdccb130af4e9d1065964f190db9238b538fc12e90c57a354e74e312858679eee9b9eaa86f8f60cdc9565f549c94b9106a0ebfe9ac",
            "type": "pubkey"
          }
        }
      ],
      "hex": "01000000010000000000000000000000000000000000000000000000000000000000000000ffffffff0804ffff001d02e302ffffffff0100f2052a01000000434104bd049622bee449533d770630bdccb130af4e9d1065964f190db9238b538fc12e90c57a354e74e312858679eee9b9eaa86f8f60cdc9565f549c94b9106a0ebfe9ac00000000"
    }
  ]
}