{
  "hash": "000000000af8d998f9358c2288930f510664fda475d566bf8fdfb2e1b5076e48",
  "confirmations": 52330,
  "height": 768,
  "version": 1,
  "versionHex": "00000001",
  "merkleroot": "bd6925db4de3f2512cf137fa5d50554a6aa7c896f0a89c1ba6d8ce9af82570de",
  "time": 1232165677,
  "mediantime": 1232161744,
  "nonce": 789951003,
  "bits": "1d00ffff",
  "difficulty": 1,
  "chainwork": "0000000000000000000000000000000000000000000000000000030103010301",
  "nTx": 1,
  "previousblockhash": "000000002ba5875b0cfb046a7d16da3b3fca7fc4c31935d470db3883c593c98e",
  "nextblockhash": "0000000014ae7c9765f35c9522e3632c3115142a7f985015f708339cc94878b2",
  "strippedsize": 216,
  "size": 216,
  "weight": 864,
  "tx": [
    {
      "txid": "bd6925db4de3f2512cf137fa5d50554a6aa7c896f0a89c1ba6d8ce9af82570de",
      "hash": "bd6925db4de3f2512cf137fa5d50554a6aa7c896f0a89c1ba6d8ce9af82570de",
      "version": 1,
      "size": 135,
      "vsize": 135,
      "weight": 540,
      "locktime": 0,
      "vin": [
        {
          "coinbase": "04ffff001d02e100",
          "sequence": 4294967295
        }
      ],
      "vout": [
        {
          "value": 50.0,
          "n": 0,
          "scriptPubKey": {
            "asm": "04cedb6da2990328d07a4b2767255aa58346a0541a72b8d1c9fd8e45c931bad16a136431d1943cd7752b5d807996fe4e4525b83b5665d9c71a1633bd2f82ab18d3 OP_CHECKSIG",
            "desc": "pk(04cedb6da2990328d07a4b2767255aa58346a0541a72b8d1c9fd8e45c931bad16a136431d1943cd7752b5d807996fe4e4525b83b5665d9c71a1633bd2f82ab18d3)#9c45mmrk",
            "hex": "4104cedb6da2990328d07a4b2767255aa58346a0541a72b8d1c9fd8e45c931bad16a136431d1943cd7752b5d807996fe4e4525b83b5665d9c71a1633bd2f82ab18d3ac",
            "type": "pubkey"
          }
        }
      ],
      "hex": "01000000010000000000000000000000000000000000000000000000000000000000000000ffffffff0804ffff001d02e100ffffffff0100f2052a01000000434104cedb6da2990328d07a4b2767255aa58346a0541a72b8d1c9fd8e45c931bad16a136431d1943cd7752b5d807996fe4e4525b83b5665d9c71a1633bd2f82ab18d3ac00000000"
    }
  ]
}