{
  "hash": "000000008010738f01223f740b6881d3c86fc05b0dd4ce8b20e6300f448a904c",
  "confirmations": 52400,
  "height": 698,
  "version": 1,
  "versionHex": "00000001",
  "merkleroot": "d347053c660613b5ab6700963c94eba2df557eae4434573e1429c014071b5756",
  "time": 1232107813,
  "mediantime": 1232103320,
  "nonce": 2919762214,
  "bits": "1d00ffff",
  "difficulty": 1,
  "chainwork": "000000000000000000000000000000000000000000000000000002bb02bb02bb",
  "nTx": 1,
  "previousblockhash": "00000000a3f4050652cb60d37dee6056b322fa2f3f8aa633e0162cb021c8a1df",
  "nextblockhash": "0000000083a0c39422ed93422badb3f877fba97199b42ec7e7c7054e921e90f2",
  "strippedsize": 216,
  "size": 216,
  "weight": 864,
  "tx": [
    {
      "txid": "d347053c660613b5ab6700963c94eba2df557eae4434573e1429c014071b5756",
      "hash": "d347053c660613b5ab6700963c94eba2df557eae4434573e1429c014071b5756",
      "version": 1,
      "size": 135,
      "vsize": 135,
      "weight": 540,
      "locktime": 0,
      "vin": [
        {
          "coinbase": "04ffff001d020101",
          "sequence": 4294967295
        }
      ],
      "vout": [
        {
          "value": 50.0,
          "n": 0,
          "scriptPubKey": {
            "asm": "0453661bf665b39569a86d1b03a1833500a1d2985942fcacb0cf3a8547a525590ed4cba651a518639181b3aeabb742393de36920f9947aab51ca7ab3d082444820 OP_CHECKSIG",
            "desc": "pk(0453661bf665b39569a86d1b03a1833500a1d2985942fcacb0cf3a8547a525590ed4cba651a518639181b3aeabb742393de36920f9947aab51ca7ab3d082444820)#v5fyafy0",
            "hex": "410453661bf665b39569a86d1b03a1833500a1d2985942fcacb0cf3a8547a525590ed4cba651a518639181b3aeabb742393de36920f9947aab51ca7ab3d082444820ac",
            "type": "pubkey"
          }
        }
      ],
      "hex": "01000000010000000000000000000000000000000000000000000000000000000000000000ffffffff0804ffff001d020101ffffffff0100f2052a0100000043410453661bf665b39569a86d1b03a1833500a1d2985942fcacb0cf3a8547a525590ed4cba651a518639181b3aeabb742393de36920f9947aab51ca7ab3d082444820ac00000000"
    }
  ]
}