{
  "hash": "00000000c2bd9f137f8e98e81660515a3310c92ef070114099e62dcb00e596d2",
  "confirmations": 46360,
  "height": 6738,
  "version": 1,
  "versionHex": "00000001",
  "merkleroot": "686fe06b7edc19a9571cbb4e67ec36ec85d2e4a199bb89a5c94e6f2423dade4f",
  "time": 1236510098,
  "mediantime": 1236506241,
  "nonce": 362547499,
  "bits": "1d00ffff",
  "difficulty": 1,
  "chainwork": "00000000000000000000000000000000000000000000000000001a531a531a53",
  "nTx": 1,
  "previousblockhash": "000000009752ad49ba70f50e5fb03df6b0fd89c4fa7aed73f8a4470a7a20ab1b",
  "nextblockhash": "00000000abb4dfabd0c9a846b7881f95f1cbb09aac9b6cb6c3e892c9cb05377a",
  "strippedsize": 216,
  "size": 216,
  "weight": 864,
  "tx": [
    {
      "txid": "686fe06b7edc19a9571cbb4e67ec36ec85d2e4a199bb89a5c94e6f2423dade4f",
      "hash": "686fe06b7edc19a9571cbb4e67ec36ec85d2e4a199bb89a5c94e6f2423dade4f",
      "version": 1,
      "size": 135,
      "vsize": 135,
      "weight": 540,
      "locktime": 0,
      "vin": [
        {
          "coinbase": "04ffff001d02f007",
          "sequence": 4294967295
        }
      ],
      "vout": [
        {
          "value": 50.0,
          "n": 0,
          "scriptPubKey": {
            "asm": "04a2dc28d193d2746ac45e72aa21a0fa94c82029e4b9b4b2fd242642389c181a74bd9b9b3102005c80ecf6e5c423322fbf49979e0ebf177d219fd029164637a0bf OP_CHECKSIG",
            "desc": "pk(04a2dc28d193d2746ac45e72aa21a0fa94c82029e4b9b4b2fd242642389c181a74bd9b9b3102005c80ecf6e5c423322fbf49979e0ebf177d219fd029164637a0bf)#gxm2q83f",
            "hex": "4104a2dc28d193d2746ac45e72aa21a0fa94c82029e4b9b4b2fd242642389c181a74bd9b9b3102005c80ecf6e5c423322fbf49979e0ebf177d219fd029164637a0bfac",
            "type": "pubkey"
          }
        }
      ],
      "hex": "01000000010000000000000000000000000000000000000000000000000000000000000000ffffffff0804ffff001d02f007ffffffff0100f2052a01000000434104a2dc28d193d2746ac45e72aa21a0fa94c82029e4b9b4b2fd242642389c181a74bd9b9b3102005c80ecf6e5c423322fbf49979e0ebf177d219fd029164637a0bfac00000000"
    }
  ]
}