{
  "hash": "000000002612547d0fcea4f7d8b80a3df6659b71d346e3d306a3c86e21be8d22",
  "confirmations": 45954,
  "height": 7144,
  "version": 1,
  "versionHex": "00000001",
  "merkleroot": "d98be8b2538bc9897cd3fc782d290f5f95a18fa2b135861405c3e2e05499fd70",
  "time": 1236830336,
  "mediantime": 1236825290,
  "nonce": 265410824,
  "bits": "1d00ffff",
  "difficulty": 1,
  "chainwork": "00000000000000000000000000000000000000000000000000001be91be91be9",
  "nTx": 1,
  "previousblockhash": "00000000645b15f8aa73a5e715e35a22fb59144498bbb3b784a47a340ef6af9a",
  "nextblockhash": "00000000197e908be9fe98cc0a77e7578be2c575db0033ba7fb8e5e277a35149",
  "strippedsize": 216,
  "size": 216,
  "weight": 864,
  "tx": [
    {
      "txid": "d98be8b2538bc9897cd3fc782d290f5f95a18fa2b135861405c3e2e05499fd70",
      "hash": "d98be8b2538bc9897cd3fc782d290f5f95a18fa2b135861405c3e2e05499fd70",
      "version": 1,
      "size": 135,
      "vsize": 135,
      "weight": 540,
      "locktime": 0,
      "vin": [
        {
          "coinbase": "04ffff001d02df04",
          "sequence": 4294967295
        }
      ],
      "vout": [
        {
          "value": 50.0,
          "n": 0,
          "scriptPubKey": {
            "asm": "04dce5617edb72367ca46c6d8f170b2a9ff0863bdc8bb367119a8e5c5225a7e85e9a3e3145c65926ed60a9fdfe26b46133f87d21b7eb33f6c3b64add66caf2eb64 OP_CHECKSIG",
            "desc": "pk(04dce5617edb72367ca46c6d8f170b2a9ff0863bdc8bb367119a8e5c5225a7e85e9a3e3145c65926ed60a9fdfe26b46133f87d21b7eb33f6c3b64add66caf2eb64)#2ngvjwl6",
            "hex": "4104dce5617edb72367ca46c6d8f170b2a9ff0863bdc8bb367119a8e5c5225a7e85e9a3e3145c65926ed60a9fdfe26b46133f87d21b7eb33f6c3b64add66caf2eb64ac",
            "type": "pubkey"
          }
        }
      ],
      "hex": "01000000010000000000000000000000000000000000000000000000000000000000000000ffffffff0804ffff001d02df04ffffffff0100f2052a01000000434104dce5617edb72367ca46c6d8f170b2a9ff0863bdc8bb367119a8e5c5225a7e85e9a3e3145c65926ed60a9fdfe26b46133f87d21b7eb33f6c3b64add66caf2eb64ac00000000"
    }
  ]
}