{
  "hash": "00000000728d8d5a898b120f1538dc68e4df44fe486cc91e6a172b65a75aeb04",
  "confirmations": 49993,
  "height": 3105,
  "version": 1,
  "versionHex": "00000001",
  "merkleroot": "58051f27bd7ab3a532a4efd8f734ea9d13bdcece56e406ac2c3fa109c1e49aee",
  "time": 1233839042,
  "mediantime": 1233833636,
  "nonce": 1293941508,
  "bits": "1d00ffff",
  "difficulty": 1,
  "chainwork": "00000000000000000000000000000000000000000000000000000c220c220c22",
  "nTx": 1,
  "previousblockhash": "00000000a2381ea41f749c4242e3e55d4e8f4477f9ba83cb3ade3a234f86b365",
  "nextblockhash": "000000005306af166149744b0fc04e9fcf561b2669ffcd026355750a007a89f8",
  "strippedsize": 216,
  "size": 216,
  "weight": 864,
  "tx": [
    {
      "txid": "58051f27bd7ab3a532a4efd8f734ea9d13bdcece56e406ac2c3fa109c1e49aee",
      "hash": "58051f27bd7ab3a532a4efd8f734ea9d13bdcece56e406ac2c3fa109c1e49aee",
      "version": 1,
      "size": 135,
      "vsize": 135,
      "weight": 540,
      "locktime": 0,
      "vin": [
        {
          "coinbase": "04ffff001d024801",
          "sequence": 4294967295
        }
      ],
      "vout": [
        {
          "value": 50.0,
          "n": 0,
          "scriptPubKey": {
            "asm": "0442e3ff02fe483f6e9499debb44987b72f6c301261d5840df98d6c226722c392e9cba2241f4810253c0f96e22dc17a07cbc46cdbd0018dd1825377b5874abde9f OP_CHECKSIG",
            "desc": "pk(0442e3ff02fe483f6e9499debb44987b72f6c301261d5840df98d6c226722c392e9cba2241f4810253c0f96e22dc17a07cbc46cdbd0018dd1825377b5874abde9f)#aldukxfe",
            "hex": "410442e3ff02fe483f6e9499debb44987b72f6c301261d5840df98d6c226722c392e9cba2241f4810253c0f96e22dc17a07cbc46cdbd0018dd1825377b5874abde9fac",
            "type": "pubkey"
          }
        }
      ],
      "hex": "01000000010000000000000000000000000000000000000000000000000000000000000000ffffffff0804ffff001d024801ffffffff0100f2052a0100000043410442e3ff02fe483f6e9499debb44987b72f6c301261d5840df98d6c226722c392e9cba2241f4810253c0f96e22dc17a07cbc46cdbd0018dd1825377b5874abde9fac00000000"
    }
  ]
}