{
  "hash": "0000000010e9b57889d2eb77bb99a44cf06e1a80d0b1d18cc599bd472b335bcc",
  "confirmations": 52458,
  "height": 640,
  "version": 1,
  "versionHex": "00000001",
  "merkleroot": "0ae846d06e9d3c453c567e9381779717e9c8363fe96f67fd6d59e550be8909ac",
  "time": 1232063044,
  "mediantime": 1232059171,
  "nonce": 2887291155,
  "bits": "1d00ffff",
  "difficulty": 1,
  "chainwork": "0000000000000000000000000000000000000000000000000000028102810281",
  "nTx": 1,
  "previousblockhash": "0000000019c1d965032c1dc22f8a3ba3ab94cfeafd3b52a09f032de06b047dcb",
  "nextblockhash": "00000000f139dfd20ba64eb915d36c026616a01e36cde0a6383583e40bf7f5d8",
  "strippedsize": 216,
  "size": 216,
  "weight": 864,
  "tx": [
    {
      "txid": "0ae846d06e9d3c453c567e9381779717e9c8363fe96f67fd6d59e550be8909ac",
      "hash": "0ae846d06e9d3c453c567e9381779717e9c8363fe96f67fd6d59e550be8909ac",
      "version": 1,
      "size": 135,
      "vsize": 135,
      "weight": 540,
      "locktime": 0,
      "vin": [
        {
          "coinbase": "04ffff001d024407",
          "sequence": 4294967295
        }
      ],
      "vout": [
        {
          "value": 50.0,
          "n": 0,
          "scriptPubKey": {
            "asm": "0425431cab951d2f385164e83c90dd73c5c40dd3a0cc544186f314f8b23cf70c9dfb7dc7318cd60c33bde9a802e1898e42235e224a1b2f52afdc9f16471786aa4c OP_CHECKSIG",
            "desc": "pk(0425431cab951d2f385164e83c90dd73c5c40dd3a0cc544186f314f8b23cf70c9dfb7dc7318cd60c33bde9a802e1898e42235e224a1b2f52afdc9f16471786aa4c)#tj7ctqa6",
            "hex": "410425431cab951d2f385164e83c90dd73c5c40dd3a0cc544186f314f8b23cf70c9dfb7dc7318cd60c33bde9a802e1898e42235e224a1b2f52afdc9f16471786aa4cac",
            "type": "pubkey"
          }
        }
      ],
      "hex": "01000000010000000000000000000000000000000000000000000000000000000000000000ffffffff0804ffff001d024407ffffffff0100f2052a0100000043410425431cab951d2f385164e83c90dd73c5c40dd3a0cc544186f314f8b23cf70c9dfb7dc7318cd60c33bde9a802e1898e42235e224a1b2f52afdc9f16471786aa4cac00000000"
    }
  ]
}