{
  "hash": "00000000300be803b1f3a0eda0fc130389487f71325b8c506e48b3fabc69b9e9",
  "confirmations": 46187,
  "height": 6911,
  "version": 1,
  "versionHex": "00000001",
  "merkleroot": "16c9489df29b702a31188cbca3d86effebf69f2d386c34eac0e933bda4a90b1f",
  "time": 1236646355,
  "mediantime": 1236641749,
  "nonce": 2163580201,
  "bits": "1d00ffff",
  "difficulty": 1,
  "chainwork": "00000000000000000000000000000000000000000000000000001b001b001b00",
  "nTx": 1,
  "previousblockhash": "00000000328493f88635f27acead8943a955a4aae184a7c3ef28e025deeb88f6",
  "nextblockhash": "00000000d1f205ec80e83524fdc865c36ad93010a9e3189ac9fc651de1bea67e",
  "strippedsize": 216,
  "size": 216,
  "weight": 864,
  "tx": [
    {
      "txid": "16c9489df29b702a31188cbca3d86effebf69f2d386c34eac0e933bda4a90b1f",
      "hash": "16c9489df29b702a31188cbca3d86effebf69f2d386c34eac0e933bda4a90b1f",
      "version": 1,
      "size": 135,
      "vsize": 135,
      "weight": 540,
      "locktime": 0,
      "vin": [
        {
          "coinbase": "04ffff001d02a600",
          "sequence": 4294967295
        }
      ],
      "vout": [
        {
          "value": 50.0,
          "n": 0,
          "scriptPubKey": {
            "asm": "04f603b3a5531a942587be0bf123e763fdf6b4535908bc57d50caa36421944368dcf321c6da5b610173a0e4f3bea8cc95542fc72cc92d06f15a0a54869a3c4a912 OP_CHECKSIG",
            "desc": "pk(04f603b3a5531a942587be0bf123e763fdf6b4535908bc57d50caa36421944368dcf321c6da5b610173a0e4f3bea8cc95542fc72cc92d06f15a0a54869a3c4a912)#2dzpfj7f",
            "hex": "4104f603b3a5531a942587be0bf123e763fdf6b4535908bc57d50caa36421944368dcf321c6da5b610173a0e4f3bea8cc95542fc72cc92d06f15a0a54869a3c4a912ac",
            "type": "pubkey"
          }
        }
      ],
      "hex": "01000000010000000000000000000000000000000000000000000000000000000000000000ffffffff0804ffff001d02a600ffffffff0100f2052a01000000434104f603b3a5531a942587be0bf123e763fdf6b4535908bc57d50caa36421944368dcf321c6da5b610173a0e4f3bea8cc95542fc72cc92d06f15a0a54869a3c4a912ac00000000"
    }
  ]
}