{
  "hash": "00000000ded2e141b0a967c28babfa0894f3825cebb06b42de3489925acbc461",
  "confirmations": 51848,
  "height": 1250,
  "version": 1,
  "versionHex": "00000001",
  "merkleroot": "0708f96ea23e591f56cbbb2f7519857d4779d77dc2e23f0b355aef9fadfb855e",
  "time": 1232538338,
  "mediantime": 1232534559,
  "nonce": 2343033637,
  "bits": "1d00ffff",
  "difficulty": 1,
  "chainwork": "000000000000000000000000000000000000000000000000000004e304e304e3",
  "nTx": 1,
  "previousblockhash": "000000004ac87f99aef41b034dd585692863874c0455cc9ccd8c3a90636fd97a",
  "nextblockhash": "00000000d9d7747e14af87d83517e248087792b2786cd730b7f192917305390c",
  "strippedsize": 216,
  "size": 216,
  "weight": 864,
  "tx": [
    {
      "txid": "0708f96ea23e591f56cbbb2f7519857d4779d77dc2e23f0b355aef9fadfb855e",
      "hash": "0708f96ea23e591f56cbbb2f7519857d4779d77dc2e23f0b355aef9fadfb855e",
      "version": 1,
      "size": 135,
      "vsize": 135,
      "weight": 540,
      "locktime": 0,
      "vin": [
        {
          "coinbase": "04ffff001d026e09",
          "sequence": 4294967295
        }
      ],
      "vout": [
        {
          "value": 50.0,
          "n": 0,
          "scriptPubKey": {
            "asm": "04a29807e114191fe5a8347f1349b11af11ad6ef00359de0f3f1bef7146c8bebc8254809870edc38789b9af02a3c1ce7ea4ad41521110a2f4e9f6e8985c5692b26 OP_CHECKSIG",
            "desc": "pk(04a29807e114191fe5a8347f1349b11af11ad6ef00359de0f3f1bef7146c8bebc8254809870edc38789b9af02a3c1ce7ea4ad41521110a2f4e9f6e8985c5692b26)#9gzare62",
            "hex": "4104a29807e114191fe5a8347f1349b11af11ad6ef00359de0f3f1bef7146c8bebc8254809870edc38789b9af02a3c1ce7ea4ad41521110a2f4e9f6e8985c5692b26ac",
            "type": "pubkey"
          }
        }
      ],
      "hex": "01000000010000000000000000000000000000000000000000000000000000000000000000ffffffff0804ffff001d026e09ffffffff0100f2052a01000000434104a29807e114191fe5a8347f1349b11af11ad6ef00359de0f3f1bef7146c8bebc8254809870edc38789b9af02a3c1ce7ea4ad41521110a2f4e9f6e8985c5692b26ac00000000"
    }
  ]
}