{
  "hash": "00000000d30fb8670693d4ac551134110e54bc13dbac82b58332f054ffa97192",
  "confirmations": 51409,
  "height": 1689,
  "version": 1,
  "versionHex": "00000001",
  "merkleroot": "655c75e27f542b99eeb5c93ae46a54e5730de6126af31f3b3d2649a5e227d254",
  "time": 1232848378,
  "mediantime": 1232845992,
  "nonce": 2543587364,
  "bits": "1d00ffff",
  "difficulty": 1,
  "chainwork": "0000000000000000000000000000000000000000000000000000069a069a069a",
  "nTx": 1,
  "previousblockhash": "000000003bde7050ee6fbd219f93e2192f03897d9f49103e4ad383c8ad8e395d",
  "nextblockhash": "000000001d807cfd1880f185030f815b7afb6733ce6b09b2e3ce11145112f20b",
  "strippedsize": 216,
  "size": 216,
  "weight": 864,
  "tx": [
    {
      "txid": "655c75e27f542b99eeb5c93ae46a54e5730de6126af31f3b3d2649a5e227d254",
      "hash": "655c75e27f542b99eeb5c93ae46a54e5730de6126af31f3b3d2649a5e227d254",
      "version": 1,
      "size": 135,
      "vsize": 135,
      "weight": 540,
      "locktime": 0,
      "vin": [
        {
          "coinbase": "04ffff001d02fe02",
          "sequence": 4294967295
        }
      ],
      "vout": [
        {
          "value": 50.0,
          "n": 0,
          "scriptPubKey": {
            "asm": "04bebddca3f54f3d3872108112b4117fe16a4b837fb919d72d141669af5978ef4cb32bfa0e332a24a38b44957a49ef5d1474225fc81a218a6030f357b0a398bfd1 OP_CHECKSIG",
            "desc": "pk(04bebddca3f54f3d3872108112b4117fe16a4b837fb919d72d141669af5978ef4cb32bfa0e332a24a38b44957a49ef5d1474225fc81a218a6030f357b0a398bfd1)#a58f3rmm",
            "hex": "4104bebddca3f54f3d3872108112b4117fe16a4b837fb919d72d141669af5978ef4cb32bfa0e332a24a38b44957a49ef5d1474225fc81a218a6030f357b0a398bfd1ac",
            "type": "pubkey"
          }
        }
      ],
      "hex": "01000000010000000000000000000000000000000000000000000000000000000000000000ffffffff0804ffff001d02fe02ffffffff0100f2052a01000000434104bebddca3f54f3d3872108112b4117fe16a4b837fb919d72d141669af5978ef4cb32bfa0e332a24a38b44957a49ef5d1474225fc81a218a6030f357b0a398bfd1ac00000000"
    }
  ]
}