{
  "hash": "00000000a5ae2c2c8b85706a041592fd81b9d3f4f56e8e760999003bd1eaed93",
  "confirmations": 51189,
  "height": 1909,
  "version": 1,
  "versionHex": "00000001",
  "merkleroot": "9fd2608f02b450830f1025ee3bbbecad5f4d2fdc02e488ee800858cf794f4f79",
  "time": 1232948973,
  "mediantime": 1232946143,
  "nonce": 8534707,
  "bits": "1d00ffff",
  "difficulty": 1,
  "chainwork": "0000000000000000000000000000000000000000000000000000077607760776",
  "nTx": 1,
  "previousblockhash": "000000001c3119accc6f62bc92607a4bd4a3878bfeb643ac91b95ca547159ffe",
  "nextblockhash": "0000000000d4325fa7c9e97ac69cdf22a6803e925c5297d925fab14fd53e86a6",
  "strippedsize": 216,
  "size": 216,
  "weight": 864,
  "tx": [
    {
      "txid": "9fd2608f02b450830f1025ee3bbbecad5f4d2fdc02e488ee800858cf794f4f79",
      "hash": "9fd2608f02b450830f1025ee3bbbecad5f4d2fdc02e488ee800858cf794f4f79",
      "version": 1,
      "size": 135,
      "vsize": 135,
      "weight": 540,
      "locktime": 0,
      "vin": [
        {
          "coinbase": "04ffff001d02a400",
          "sequence": 4294967295
        }
      ],
      "vout": [
        {
          "value": 50.0,
          "n": 0,
          "scriptPubKey": {
            "asm": "0486167416d1d0cc06c2e2995bed291afa1eea9f8f093872f24a2bc1ace7aa42223fe50cd485f62d7559b9361e431cce9f5e0239a531e4afbe0bb271b1fc6e7b0f OP_CHECKSIG",
            "desc": "pk(0486167416d1d0cc06c2e2995bed291afa1eea9f8f093872f24a2bc1ace7aa42223fe50cd485f62d7559b9361e431cce9f5e0239a531e4afbe0bb271b1fc6e7b0f)#pd4f9ulk",
            "hex": "410486167416d1d0cc06c2e2995bed291afa1eea9f8f093872f24a2bc1ace7aa42223fe50cd485f62d7559b9361e431cce9f5e0239a531e4afbe0bb271b1fc6e7b0fac",
            "type": "pubkey"
          }
        }
      ],
      "hex": "01000000010000000000000000000000000000000000000000000000000000000000000000ffffffff0804ffff001d02a400ffffffff0100f2052a0100000043410486167416d1d0cc06c2e2995bed291afa1eea9f8f093872f24a2bc1ace7aa42223fe50cd485f62d7559b9361e431cce9f5e0239a531e4afbe0bb271b1fc6e7b0fac00000000"
    }
  ]
}