{
  "hash": "000000003db6a8c848dcadb131d97296db6047219bf845af05a69aa73bc88bdd",
  "confirmations": 47871,
  "height": 5227,
  "version": 1,
  "versionHex": "00000001",
  "merkleroot": "39c377e08e779aa8d1ea869bc7c3a1104ab1bfc988d6a97abc5f1a7538f07008",
  "time": 1235308020,
  "mediantime": 1235302968,
  "nonce": 232001849,
  "bits": "1d00ffff",
  "difficulty": 1,
  "chainwork": "0000000000000000000000000000000000000000000000000000146c146c146c",
  "nTx": 1,
  "previousblockhash": "00000000894026d9592927a8801cc0205481186c66c9b5798e0b052c3951940c",
  "nextblockhash": "000000000b34c8f671d5578392dbf957b15a7af94cb5b7308934636e9055eed3",
  "strippedsize": 216,
  "size": 216,
  "weight": 864,
  "tx": [
    {
      "txid": "39c377e08e779aa8d1ea869bc7c3a1104ab1bfc988d6a97abc5f1a7538f07008",
      "hash": "39c377e08e779aa8d1ea869bc7c3a1104ab1bfc988d6a97abc5f1a7538f07008",
      "version": 1,
      "size": 135,
      "vsize": 135,
      "weight": 540,
      "locktime": 0,
      "vin": [
        {
          "coinbase": "04ffff001d02e700",
          "sequence": 4294967295
        }
      ],
      "vout": [
        {
          "value": 50.0,
          "n": 0,
          "scriptPubKey": {
            "asm": "04f3cee75822908d6db3df22377994af05f52c785c22ebf9d84323c802e5a23fb5bf2d11a87fe8bd73f5329bc809fcbc454fce8c093fe1246721a2c961454fced3 OP_CHECKSIG",
            "desc": "pk(04f3cee75822908d6db3df22377994af05f52c785c22ebf9d84323c802e5a23fb5bf2d11a87fe8bd73f5329bc809fcbc454fce8c093fe1246721a2c961454fced3)#nwlv0pyj",
            "hex": "4104f3cee75822908d6db3df22377994af05f52c785c22ebf9d84323c802e5a23fb5bf2d11a87fe8bd73f5329bc809fcbc454fce8c093fe1246721a2c961454fced3ac",
            "type": "pubkey"
          }
        }
      ],
      "hex": "01000000010000000000000000000000000000000000000000000000000000000000000000ffffffff0804ffff001d02e700ffffffff0100f2052a01000000434104f3cee75822908d6db3df22377994af05f52c785c22ebf9d84323c802e5a23fb5bf2d11a87fe8bd73f5329bc809fcbc454fce8c093fe1246721a2c961454fced3ac00000000"
    }
  ]
}