{
  "hash": "000000007c150a245e1c17f799f07529a601d2fc2d272e86184f82ee6188d13e",
  "confirmations": 50831,
  "height": 2267,
  "version": 1,
  "versionHex": "00000001",
  "merkleroot": "9a89f417aa50f7dfd18d4a582f67711d7e0db21307683976978aff019dfcca59",
  "time": 1233257635,
  "mediantime": 1233253190,
  "nonce": 3421840433,
  "bits": "1d00ffff",
  "difficulty": 1,
  "chainwork": "000000000000000000000000000000000000000000000000000008dc08dc08dc",
  "nTx": 1,
  "previousblockhash": "00000000f38fc7d1caf8aecc55ea5180b003355e08efcdc565fc30dc9300f3bb",
  "nextblockhash": "000000006c7010bbbcf0a3799dc409ba75543e9beb4345e9532cab613d6f7d5e",
  "strippedsize": 216,
  "size": 216,
  "weight": 864,
  "tx": [
    {
      "txid": "9a89f417aa50f7dfd18d4a582f67711d7e0db21307683976978aff019dfcca59",
      "hash": "9a89f417aa50f7dfd18d4a582f67711d7e0db21307683976978aff019dfcca59",
      "version": 1,
      "size": 135,
      "vsize": 135,
      "weight": 540,
      "locktime": 0,
      "vin": [
        {
          "coinbase": "04ffff001d023501",
          "sequence": 4294967295
        }
      ],
      "vout": [
        {
          "value": 50.0,
          "n": 0,
          "scriptPubKey": {
            "asm": "04811903822f4f55f98cd7b87d6d54368abb22a83b6bb57f5c3678bd2a412984d5c7a40ba7a87a27e03f0610e03dbc688efffdb20ea5430ada128f0de43ca15cd3 OP_CHECKSIG",
            "desc": "pk(04811903822f4f55f98cd7b87d6d54368abb22a83b6bb57f5c3678bd2a412984d5c7a40ba7a87a27e03f0610e03dbc688efffdb20ea5430ada128f0de43ca15cd3)#z88aqfjr",
            "hex": "4104811903822f4f55f98cd7b87d6d54368abb22a83b6bb57f5c3678bd2a412984d5c7a40ba7a87a27e03f0610e03dbc688efffdb20ea5430ada128f0de43ca15cd3ac",
            "type": "pubkey"
          }
        }
      ],
      "hex": "01000000010000000000000000000000000000000000000000000000000000000000000000ffffffff0804ffff001d023501ffffffff0100f2052a01000000434104811903822f4f55f98cd7b87d6d54368abb22a83b6bb57f5c3678bd2a412984d5c7a40ba7a87a27e03f0610e03dbc688efffdb20ea5430ada128f0de43ca15cd3ac00000000"
    }
  ]
}