{
  "hash": "000000009ee07a92b2efac3583968f836a5adca93c525e085f2512644e0cae26",
  "confirmations": 52203,
  "height": 895,
  "version": 1,
  "versionHex": "00000001",
  "merkleroot": "528142b32cc3ada9240db552b43090b1b7efe63672b92476cc162826449f11d4",
  "time": 1232271496,
  "mediantime": 1232266126,
  "nonce": 3952768302,
  "bits": "1d00ffff",
  "difficulty": 1,
  "chainwork": "0000000000000000000000000000000000000000000000000000038003800380",
  "nTx": 1,
  "previousblockhash": "0000000057c7d5c0a5aea3f950bd831a938d8e57a98b07557a964fb62d7d06ff",
  "nextblockhash": "00000000dabe35441efb615ad072e22ece58326cf0a43b990fc00aab808e8589",
  "strippedsize": 216,
  "size": 216,
  "weight": 864,
  "tx": [
    {
      "txid": "528142b32cc3ada9240db552b43090b1b7efe63672b92476cc162826449f11d4",
      "hash": "528142b32cc3ada9240db552b43090b1b7efe63672b92476cc162826449f11d4",
      "version": 1,
      "size": 135,
      "vsize": 135,
      "weight": 540,
      "locktime": 0,
      "vin": [
        {
          "coinbase": "04ffff001d029a03",
          "sequence": 4294967295
        }
      ],
      "vout": [
        {
          "value": 50.0,
          "n": 0,
          "scriptPubKey": {
            "asm": "042dd330d2a2ee97eebf59eac18a2f422e2304f2ba670532ce119047531e51bdea2ac832fa89da68cd9828cddc65c6818071eb2de648f79fa1b63216b405ce9c60 OP_CHECKSIG",
            "desc": "pk(042dd330d2a2ee97eebf59eac18a2f422e2304f2ba670532ce119047531e51bdea2ac832fa89da68cd9828cddc65c6818071eb2de648f79fa1b63216b405ce9c60)#8lxp7xqv",
            "hex": "41042dd330d2a2ee97eebf59eac18a2f422e2304f2ba670532ce119047531e51bdea2ac832fa89da68cd9828cddc65c6818071eb2de648f79fa1b63216b405ce9c60ac",
            "type": "pubkey"
          }
        }
      ],
      "hex": "01000000010000000000000000000000000000000000000000000000000000000000000000ffffffff0804ffff001d029a03ffffffff0100f2052a010000004341042dd330d2a2ee97eebf59eac18a2f422e2304f2ba670532ce119047531e51bdea2ac832fa89da68cd9828cddc65c6818071eb2de648f79fa1b63216b405ce9c60ac00000000"
    }
  ]
}