{
  "hash": "00000000370965aeef98866ebed666de48547ec392759e178f2f2f34f73577ed",
  "confirmations": 50103,
  "height": 2995,
  "version": 1,
  "versionHex": "00000001",
  "merkleroot": "07a6b25406c26fd21095b4440feb7a4570c9aa9e983e2ea17ad798dcfc6bc766",
  "time": 1233757102,
  "mediantime": 1233753984,
  "nonce": 17845227,
  "bits": "1d00ffff",
  "difficulty": 1,
  "chainwork": "00000000000000000000000000000000000000000000000000000bb40bb40bb4",
  "nTx": 1,
  "previousblockhash": "00000000f6a31af28cfe8839f21bf7111283bedb001373f206f86067303355bc",
  "nextblockhash": "00000000f7168274a3047ef33ba3ed9f9faa5e6acb890d9195a1e8be3bad8f18",
  "strippedsize": 216,
  "size": 216,
  "weight": 864,
  "tx": [
    {
      "txid": "07a6b25406c26fd21095b4440feb7a4570c9aa9e983e2ea17ad798dcfc6bc766",
      "hash": "07a6b25406c26fd21095b4440feb7a4570c9aa9e983e2ea17ad798dcfc6bc766",
      "version": 1,
      "size": 135,
      "vsize": 135,
      "weight": 540,
      "locktime": 0,
      "vin": [
        {
          "coinbase": "04ffff001d02f701",
          "sequence": 4294967295
        }
      ],
      "vout": [
        {
          "value": 50.0,
          "n": 0,
          "scriptPubKey": {
            "asm": "048aed03fceeb11f40e004d01abe8208d3e3f24592901fa82c4142a517fefb186e8d800603e45425a5fd69840b55ea8dce32dc90f81b074bc74430f900fce3a2c9 OP_CHECKSIG",
            "desc": "pk(048aed03fceeb11f40e004d01abe8208d3e3f24592901fa82c4142a517fefb186e8d800603e45425a5fd69840b55ea8dce32dc90f81b074bc74430f900fce3a2c9)#z9ucgl6x",
            "hex": "41048aed03fceeb11f40e004d01abe8208d3e3f24592901fa82c4142a517fefb186e8d800603e45425a5fd69840b55ea8dce32dc90f81b074bc74430f900fce3a2c9ac",
            "type": "pubkey"
          }
        }
      ],
      "hex": "01000000010000000000000000000000000000000000000000000000000000000000000000ffffffff0804ffff001d02f701ffffffff0100f2052a010000004341048aed03fceeb11f40e004d01abe8208d3e3f24592901fa82c4142a517fefb186e8d800603e45425a5fd69840b55ea8dce32dc90f81b074bc74430f900fce3a2c9ac00000000"
    }
  ]
}