{
  "hash": "0000000068975438bbac81a6b529250759fcb7a5be799b6e90058590b45422b4",
  "confirmations": 46938,
  "height": 6160,
  "version": 1,
  "versionHex": "00000001",
  "merkleroot": "0d0575e73f56cb30f97ce62a5c74648664b62194114b8db61a05b5b2ab01ac34",
  "time": 1236058735,
  "mediantime": 1236052881,
  "nonce": 183685428,
  "bits": "1d00ffff",
  "difficulty": 1,
  "chainwork": "0000000000000000000000000000000000000000000000000000181118111811",
  "nTx": 1,
  "previousblockhash": "00000000d2da033fe3ebe3a8bb696f8b3bd08beb97b514507af1152ccbc45cd6",
  "nextblockhash": "00000000ad574610042954c95b3a5434af0dc728385180d44998a97b224825df",
  "strippedsize": 216,
  "size": 216,
  "weight": 864,
  "tx": [
    {
      "txid": "0d0575e73f56cb30f97ce62a5c74648664b62194114b8db61a05b5b2ab01ac34",
      "hash": "0d0575e73f56cb30f97ce62a5c74648664b62194114b8db61a05b5b2ab01ac34",
      "version": 1,
      "size": 135,
      "vsize": 135,
      "weight": 540,
      "locktime": 0,
      "vin": [
        {
          "coinbase": "04ffff001d02c907",
          "sequence": 4294967295
        }
      ],
      "vout": [
        {
          "value": 50.0,
          "n": 0,
          "scriptPubKey": {
            "asm": "049aba87defa8a5655759f19f5ba8da2280e432b0be5049b43b27a0a64645c7c314a4120d6ee55f7a06594e48755930d3b4d1c7119c684252b564054f37c705977 OP_CHECKSIG",
            "desc": "pk(049aba87defa8a5655759f19f5ba8da2280e432b0be5049b43b27a0a64645c7c314a4120d6ee55f7a06594e48755930d3b4d1c7119c684252b564054f37c705977)#elhjv7a9",
            "hex": "41049aba87defa8a5655759f19f5ba8da2280e432b0be5049b43b27a0a64645c7c314a4120d6ee55f7a06594e48755930d3b4d1c7119c684252b564054f37c705977ac",
            "type": "pubkey"
          }
        }
      ],
      "hex": "01000000010000000000000000000000000000000000000000000000000000000000000000ffffffff0804ffff001d02c907ffffffff0100f2052a010000004341049aba87defa8a5655759f19f5ba8da2280e432b0be5049b43b27a0a64645c7c314a4120d6ee55f7a06594e48755930d3b4d1c7119c684252b564054f37c705977ac00000000"
    }
  ]
}