{
  "hash": "0000000027f580ad00870def8ed31820e28c2e54f1424ac6d2e4af81728d019d",
  "confirmations": 44311,
  "height": 8787,
  "version": 1,
  "versionHex": "00000001",
  "merkleroot": "25e5e16a60c68f15a4dbd41fa2a8a17371b025196dbee8cf3d5d546f9a68ce79",
  "time": 1238090637,
  "mediantime": 1238086859,
  "nonce": 1610996511,
  "bits": "1d00ffff",
  "difficulty": 1,
  "chainwork": "0000000000000000000000000000000000000000000000000000225422542254",
  "nTx": 1,
  "previousblockhash": "00000000b7ece1645d4b5dc3a620f6bbb71f7e80ddbde2474583250edcc0c96f",
  "nextblockhash": "000000003ef8641b45ab8c40166fff978a628ccdbd1cc4582859734ac968c87f",
  "strippedsize": 216,
  "size": 216,
  "weight": 864,
  "tx": [
    {
      "txid": "25e5e16a60c68f15a4dbd41fa2a8a17371b025196dbee8cf3d5d546f9a68ce79",
      "hash": "25e5e16a60c68f15a4dbd41fa2a8a17371b025196dbee8cf3d5d546f9a68ce79",
      "version": 1,
      "size": 135,
      "vsize": 135,
      "weight": 540,
      "locktime": 0,
      "vin": [
        {
          "coinbase": "04ffff001d025c02",
          "sequence": 4294967295
        }
      ],
      "vout": [
        {
          "value": 50.0,
          "n": 0,
          "scriptPubKey": {
            "asm": "042474f1b19c7a08dc3f48d0cf47c61c1beda179cd98d177dc6e1aede1f806b7e59f777448a533efc223cdf1d47b8d8c902bfaa4ceb227c5b83f590eeb9e126ea7 OP_CHECKSIG",
            "desc": "pk(042474f1b19c7a08dc3f48d0cf47c61c1beda179cd98d177dc6e1aede1f806b7e59f777448a533efc223cdf1d47b8d8c902bfaa4ceb227c5b83f590eeb9e126ea7)#shk7nlq8",
            "hex": "41042474f1b19c7a08dc3f48d0cf47c61c1beda179cd98d177dc6e1aede1f806b7e59f777448a533efc223cdf1d47b8d8c902bfaa4ceb227c5b83f590eeb9e126ea7ac",
            "type": "pubkey"
          }
        }
      ],
      "hex": "01000000010000000000000000000000000000000000000000000000000000000000000000ffffffff0804ffff001d025c02ffffffff0100f2052a010000004341042474f1b19c7a08dc3f48d0cf47c61c1beda179cd98d177dc6e1aede1f806b7e59f777448a533efc223cdf1d47b8d8c902bfaa4ceb227c5b83f590eeb9e126ea7ac00000000"
    }
  ]
}