{
  "hash": "000000000b2c1d0ce75fe618d605ae55865d82fc045f959ddff2c839e66f3e52",
  "confirmations": 47106,
  "height": 5992,
  "version": 1,
  "versionHex": "00000001",
  "merkleroot": "99442173fd7cae05c4469966fc9870c99b94d6c9784be2a80ddbb5bfd247bc0c",
  "time": 1235922008,
  "mediantime": 1235917907,
  "nonce": 101958797,
  "bits": "1d00ffff",
  "difficulty": 1,
  "chainwork": "0000000000000000000000000000000000000000000000000000176917691769",
  "nTx": 1,
  "previousblockhash": "00000000527063ef7283eef1af012ceb119299e948d44175941d6c3ef6da4109",
  "nextblockhash": "00000000008cd551822768cf78bfd9ffdc68471338636ce7cfb5b22822f0aa74",
  "strippedsize": 215,
  "size": 215,
  "weight": 860,
  "tx": [
    {
      "txid": "99442173fd7cae05c4469966fc9870c99b94d6c9784be2a80ddbb5bfd247bc0c",
      "hash": "99442173fd7cae05c4469966fc9870c99b94d6c9784be2a80ddbb5bfd247bc0c",
      "version": 1,
      "size": 134,
      "vsize": 134,
      "weight": 536,
      "locktime": 0,
      "vin": [
        {
          "coinbase": "04ffff001d014c",
          "sequence": 4294967295
        }
      ],
      "vout": [
        {
          "value": 50.0,
          "n": 0,
          "scriptPubKey": {
            "asm": "04b81577e241c34e586613683819e77d447573db86df5778c374d29a01b6289dc66ffe252758155426a1377be2c6ad93570f24f7bf1bb729222442af72b23dc21f OP_CHECKSIG",
            "desc": "pk(04b81577e241c34e586613683819e77d447573db86df5778c374d29a01b6289dc66ffe252758155426a1377be2c6ad93570f24f7bf1bb729222442af72b23dc21f)#9m0awc3t",
            "hex": "4104b81577e241c34e586613683819e77d447573db86df5778c374d29a01b6289dc66ffe252758155426a1377be2c6ad93570f24f7bf1bb729222442af72b23dc21fac",
            "type": "pubkey"
          }
        }
      ],
      "hex": "01000000010000000000000000000000000000000000000000000000000000000000000000ffffffff0704ffff001d014cffffffff0100f2052a01000000434104b81577e241c34e586613683819e77d447573db86df5778c374d29a01b6289dc66ffe252758155426a1377be2c6ad93570f24f7bf1bb729222442af72b23dc21fac00000000"
    }
  ]
}