{
  "hash": "000000006ebbe7c070bd446a35674b91da43e5e2dc3e72b9bfcf1afae351a7fe",
  "confirmations": 50719,
  "height": 2379,
  "version": 1,
  "versionHex": "00000001",
  "merkleroot": "5e230ebfa8ab0496f19dd02ce14f8eb6d339e497c696bb4cb7f85c0241fc02b5",
  "time": 1233337915,
  "mediantime": 1233333720,
  "nonce": 62492657,
  "bits": "1d00ffff",
  "difficulty": 1,
  "chainwork": "0000000000000000000000000000000000000000000000000000094c094c094c",
  "nTx": 1,
  "previousblockhash": "00000000dbe99fe90915218f74be250fffd6140041b1e8cf139543ae88af0795",
  "nextblockhash": "00000000e2907c985adfec04949724dabcf39b401d1fe20cf1709a6f146ad0ee",
  "strippedsize": 216,
  "size": 216,
  "weight": 864,
  "tx": [
    {
      "txid": "5e230ebfa8ab0496f19dd02ce14f8eb6d339e497c696bb4cb7f85c0241fc02b5",
      "hash": "5e230ebfa8ab0496f19dd02ce14f8eb6d339e497c696bb4cb7f85c0241fc02b5",
      "version": 1,
      "size": 135,
      "vsize": 135,
      "weight": 540,
      "locktime": 0,
      "vin": [
        {
          "coinbase": "04ffff001d02b804",
          "sequence": 4294967295
        }
      ],
      "vout": [
        {
          "value": 50.0,
          "n": 0,
          "scriptPubKey": {
            "asm": "040d65409d6fa48b85492ff88133d3886b3dbbe805316e60d924c13ba3ab1b9fcf0307ad2daa279590a4afc6d07f699b0287cdb0762b2eddaeb70aab335c04c133 OP_CHECKSIG",
            "desc": "pk(040d65409d6fa48b85492ff88133d3886b3dbbe805316e60d924c13ba3ab1b9fcf0307ad2daa279590a4afc6d07f699b0287cdb0762b2eddaeb70aab335c04c133)#47j7dcz7",
            "hex": "41040d65409d6fa48b85492ff88133d3886b3dbbe805316e60d924c13ba3ab1b9fcf0307ad2daa279590a4afc6d07f699b0287cdb0762b2eddaeb70aab335c04c133ac",
            "type": "pubkey"
          }
        }
      ],
      "hex": "01000000010000000000000000000000000000000000000000000000000000000000000000ffffffff0804ffff001d02b804ffffffff0100f2052a010000004341040d65409d6fa48b85492ff88133d3886b3dbbe805316e60d924c13ba3ab1b9fcf0307ad2daa279590a4afc6d07f699b0287cdb0762b2eddaeb70aab335c04c133ac00000000"
    }
  ]
}