{
  "hash": "000000003255163ea0bf1f01d5f559727ae71685d261baca156e2cd3c6e9e0f2",
  "confirmations": 52203,
  "height": 418,
  "version": 1,
  "versionHex": "00000001",
  "merkleroot": "6bff10c43dcc68b5e19eb6da2d57a2237cabe57d0b54f7a1253218d58dcc4664",
  "time": 1231914025,
  "mediantime": 1231911838,
  "nonce": 4116767233,
  "bits": "1d00ffff",
  "difficulty": 1,
  "chainwork": "000000000000000000000000000000000000000000000000000001a301a301a3",
  "nTx": 1,
  "previousblockhash": "00000000f334596d5afdb4b5ee5fb6974718f1d94160e57a10c4db598144b808",
  "nextblockhash": "0000000022d4d7a47758faf2674bf884b08cb54400d62d1736978895ca20914f",
  "strippedsize": 216,
  "size": 216,
  "weight": 864,
  "tx": [
    {
      "txid": "6bff10c43dcc68b5e19eb6da2d57a2237cabe57d0b54f7a1253218d58dcc4664",
      "hash": "6bff10c43dcc68b5e19eb6da2d57a2237cabe57d0b54f7a1253218d58dcc4664",
      "version": 1,
      "size": 135,
      "vsize": 135,
      "weight": 540,
      "locktime": 0,
      "vin": [
        {
          "coinbase": "04ffff001d02ec02",
          "sequence": 4294967295
        }
      ],
      "vout": [
        {
          "value": 50.0,
          "n": 0,
          "scriptPubKey": {
            "asm": "042c01fef6da0e5b956787f9fe6a6c0d06b7db303682848af163b62b72b5297be39459f77e00d89523da2ce351a279b543eb3d2c3a56d13f4d7199c4566d5a1ae8 OP_CHECKSIG",
            "desc": "pk(042c01fef6da0e5b956787f9fe6a6c0d06b7db303682848af163b62b72b5297be39459f77e00d89523da2ce351a279b543eb3d2c3a56d13f4d7199c4566d5a1ae8)#lgrc8l5n",
            "hex": "41042c01fef6da0e5b956787f9fe6a6c0d06b7db303682848af163b62b72b5297be39459f77e00d89523da2ce351a279b543eb3d2c3a56d13f4d7199c4566d5a1ae8ac",
            "type": "pubkey"
          }
        }
      ],
      "hex": "01000000010000000000000000000000000000000000000000000000000000000000000000ffffffff0804ffff001d02ec02ffffffff0100f2052a010000004341042c01fef6da0e5b956787f9fe6a6c0d06b7db303682848af163b62b72b5297be39459f77e00d89523da2ce351a279b543eb3d2c3a56d13f4d7199c4566d5a1ae8ac00000000"
    }
  ]
}