{
  "hash": "00000000219c44b7a974528cfe22f831631ba20a4bd8e7a238918d1d2f13aec3",
  "confirmations": 52441,
  "height": 657,
  "version": 1,
  "versionHex": "00000001",
  "merkleroot": "3f48ddd137f019fddc607b2368c8231b6cae3184df5f9a2ea44c60eda58b8395",
  "time": 1232073815,
  "mediantime": 1232070480,
  "nonce": 2538430215,
  "bits": "1d00ffff",
  "difficulty": 1,
  "chainwork": "0000000000000000000000000000000000000000000000000000029202920292",
  "nTx": 1,
  "previousblockhash": "00000000915f7a477e3df905e1625c9e59ce63e6c26fa349f427b9cc314a4a76",
  "nextblockhash": "000000006aad240f2485670793fcc62eb5006a42aba22e32b6918d710a2583b3",
  "strippedsize": 216,
  "size": 216,
  "weight": 864,
  "tx": [
    {
      "txid": "3f48ddd137f019fddc607b2368c8231b6cae3184df5f9a2ea44c60eda58b8395",
      "hash": "3f48ddd137f019fddc607b2368c8231b6cae3184df5f9a2ea44c60eda58b8395",
      "version": 1,
      "size": 135,
      "vsize": 135,
      "weight": 540,
      "locktime": 0,
      "vin": [
        {
          "coinbase": "04ffff001d02b707",
          "sequence": 4294967295
        }
      ],
      "vout": [
        {
          "value": 50.0,
          "n": 0,
          "scriptPubKey": {
            "asm": "04739a32bab32aa66b1d0a2a67ec802aed4f98fdee0ee7c05c2e21f6b33554d00327f0ae05e3af118a2bceebfed6e6f0d8fc274a78502f01458762d407f5615819 OP_CHECKSIG",
            "desc": "pk(04739a32bab32aa66b1d0a2a67ec802aed4f98fdee0ee7c05c2e21f6b33554d00327f0ae05e3af118a2bceebfed6e6f0d8fc274a78502f01458762d407f5615819)#ckw7p9vw",
            "hex": "4104739a32bab32aa66b1d0a2a67ec802aed4f98fdee0ee7c05c2e21f6b33554d00327f0ae05e3af118a2bceebfed6e6f0d8fc274a78502f01458762d407f5615819ac",
            "type": "pubkey"
          }
        }
      ],
      "hex": "01000000010000000000000000000000000000000000000000000000000000000000000000ffffffff0804ffff001d02b707ffffffff0100f2052a01000000434104739a32bab32aa66b1d0a2a67ec802aed4f98fdee0ee7c05c2e21f6b33554d00327f0ae05e3af118a2bceebfed6e6f0d8fc274a78502f01458762d407f5615819ac00000000"
    }
  ]
}