{
  "hash": "00000000f91934e5f42cb57e2c3241a4bb7c178c85593613e7b2e43c3a9ff2ab",
  "confirmations": 52131,
  "height": 373,
  "version": 1,
  "versionHex": "00000001",
  "merkleroot": "a19e4d81067330d49611e94b7046962a259ae2954697d9287de1ddb2046c81e6",
  "time": 1231880887,
  "mediantime": 1231878378,
  "nonce": 2925680950,
  "bits": "1d00ffff",
  "difficulty": 1,
  "chainwork": "0000000000000000000000000000000000000000000000000000017601760176",
  "nTx": 1,
  "previousblockhash": "000000002612c92d24f533bfc280284354cb4f561c91bfaec2932f6da4e8959b",
  "nextblockhash": "000000007ead0a1b0b1faa566697697600fbc24dadef627cf76169c8631e7453",
  "strippedsize": 216,
  "size": 216,
  "weight": 864,
  "tx": [
    {
      "txid": "a19e4d81067330d49611e94b7046962a259ae2954697d9287de1ddb2046c81e6",
      "hash": "a19e4d81067330d49611e94b7046962a259ae2954697d9287de1ddb2046c81e6",
      "version": 1,
      "size": 135,
      "vsize": 135,
      "weight": 540,
      "locktime": 0,
      "vin": [
        {
          "coinbase": "04ffff001d02e201",
          "sequence": 4294967295
        }
      ],
      "vout": [
        {
          "value": 50.0,
          "n": 0,
          "scriptPubKey": {
            "asm": "04d5e5528f59178fa0c6ab6c862e4b338f6e6396d29c992759033f8faf4714d48ce9477ec4e4b24bdb21a844199d87815b3e2758acee5327d92cc8256e44083432 OP_CHECKSIG",
            "desc": "pk(04d5e5528f59178fa0c6ab6c862e4b338f6e6396d29c992759033f8faf4714d48ce9477ec4e4b24bdb21a844199d87815b3e2758acee5327d92cc8256e44083432)#azw06fqq",
            "hex": "4104d5e5528f59178fa0c6ab6c862e4b338f6e6396d29c992759033f8faf4714d48ce9477ec4e4b24bdb21a844199d87815b3e2758acee5327d92cc8256e44083432ac",
            "type": "pubkey"
          }
        }
      ],
      "hex": "01000000010000000000000000000000000000000000000000000000000000000000000000ffffffff0804ffff001d02e201ffffffff0100f2052a01000000434104d5e5528f59178fa0c6ab6c862e4b338f6e6396d29c992759033f8faf4714d48ce9477ec4e4b24bdb21a844199d87815b3e2758acee5327d92cc8256e44083432ac00000000"
    }
  ]
}