{
  "hash": "000000004a5988864cd783ea9a53a3e874bdaf50d7adb915ed700472bdd1ae07",
  "confirmations": 52229,
  "height": 869,
  "version": 1,
  "versionHex": "00000001",
  "merkleroot": "8727eb9a871076420775a93fc141e309133394b4ae58d924c6c95670b7d3c782",
  "time": 1232247229,
  "mediantime": 1232243472,
  "nonce": 176109123,
  "bits": "1d00ffff",
  "difficulty": 1,
  "chainwork": "0000000000000000000000000000000000000000000000000000036603660366",
  "nTx": 1,
  "previousblockhash": "00000000129a2736ea37e637c00dee22006c096a56a61cdb7a7d810732697878",
  "nextblockhash": "000000000f50c9b97b28606ad3d8bcae55684984b93b5dfea87f47f4fc7b9dd6",
  "strippedsize": 216,
  "size": 216,
  "weight": 864,
  "tx": [
    {
      "txid": "8727eb9a871076420775a93fc141e309133394b4ae58d924c6c95670b7d3c782",
      "hash": "8727eb9a871076420775a93fc141e309133394b4ae58d924c6c95670b7d3c782",
      "version": 1,
      "size": 135,
      "vsize": 135,
      "weight": 540,
      "locktime": 0,
      "vin": [
        {
          "coinbase": "04ffff001d02f100",
          "sequence": 4294967295
        }
      ],
      "vout": [
        {
          "value": 50.0,
          "n": 0,
          "scriptPubKey": {
            "asm": "04db2b9d5df00a1b46c2edeefd8e797dd58acfe64527e2598a020b643c8251f79f15cdf3ca2e37430627289895a5db993fe2a5711d209e476e805757c5ca1b3159 OP_CHECKSIG",
            "desc": "pk(04db2b9d5df00a1b46c2edeefd8e797dd58acfe64527e2598a020b643c8251f79f15cdf3ca2e37430627289895a5db993fe2a5711d209e476e805757c5ca1b3159)#7uhfd76s",
            "hex": "4104db2b9d5df00a1b46c2edeefd8e797dd58acfe64527e2598a020b643c8251f79f15cdf3ca2e37430627289895a5db993fe2a5711d209e476e805757c5ca1b3159ac",
            "type": "pubkey"
          }
        }
      ],
      "hex": "01000000010000000000000000000000000000000000000000000000000000000000000000ffffffff0804ffff001d02f100ffffffff0100f2052a01000000434104db2b9d5df00a1b46c2edeefd8e797dd58acfe64527e2598a020b643c8251f79f15cdf3ca2e37430627289895a5db993fe2a5711d209e476e805757c5ca1b3159ac00000000"
    }
  ]
}