{
  "hash": "00000000f4f728599c73fd0a2c30e5b8f601804e1173bbab7f12691fb80312e8",
  "confirmations": 47503,
  "height": 5595,
  "version": 1,
  "versionHex": "00000001",
  "merkleroot": "deb35b964f497da76dca0c47a95eb5bd47d76d772f69d3200f66e2c2fa19b0d3",
  "time": 1235597708,
  "mediantime": 1235591918,
  "nonce": 1438995246,
  "bits": "1d00ffff",
  "difficulty": 1,
  "chainwork": "000000000000000000000000000000000000000000000000000015dc15dc15dc",
  "nTx": 1,
  "previousblockhash": "00000000f70e7488c538fe667e2aef73aa5a8c4748be06ed6bcd6dcf2c4ac7dc",
  "nextblockhash": "000000002a86bb282a6a0ecf60ff4c0bb9a01cfb02643dc170029966854d80c3",
  "strippedsize": 216,
  "size": 216,
  "weight": 864,
  "tx": [
    {
      "txid": "deb35b964f497da76dca0c47a95eb5bd47d76d772f69d3200f66e2c2fa19b0d3",
      "hash": "deb35b964f497da76dca0c47a95eb5bd47d76d772f69d3200f66e2c2fa19b0d3",
      "version": 1,
      "size": 135,
      "vsize": 135,
      "weight": 540,
      "locktime": 0,
      "vin": [
        {
          "coinbase": "04ffff001d029907",
          "sequence": 4294967295
        }
      ],
      "vout": [
        {
          "value": 50.0,
          "n": 0,
          "scriptPubKey": {
            "asm": "0429f77b904a197786bb88e134be66d86d79f2864295aa6cf9853032f7f81572f69bccf8596c74727648211584f8a5991d8f87ec6aca239f213abbb17fde36c638 OP_CHECKSIG",
            "desc": "pk(0429f77b904a197786bb88e134be66d86d79f2864295aa6cf9853032f7f81572f69bccf8596c74727648211584f8a5991d8f87ec6aca239f213abbb17fde36c638)#lfjl76zu",
            "hex": "410429f77b904a197786bb88e134be66d86d79f2864295aa6cf9853032f7f81572f69bccf8596c74727648211584f8a5991d8f87ec6aca239f213abbb17fde36c638ac",
            "type": "pubkey"
          }
        }
      ],
      "hex": "01000000010000000000000000000000000000000000000000000000000000000000000000ffffffff0804ffff001d029907ffffffff0100f2052a0100000043410429f77b904a197786bb88e134be66d86d79f2864295aa6cf9853032f7f81572f69bccf8596c74727648211584f8a5991d8f87ec6aca239f213abbb17fde36c638ac00000000"
    }
  ]
}