{
  "hash": "00000000427e8425bb4358f01c712a09cc9bf815933fb5d9f6c1a4d24d0b88f5",
  "confirmations": 45963,
  "height": 7135,
  "version": 1,
  "versionHex": "00000001",
  "merkleroot": "561d808b20cf3458aaaaa0ba7d00876c84680efe6f4f9facbee5dc0802f18aa7",
  "time": 1236821174,
  "mediantime": 1236817091,
  "nonce": 1280615188,
  "bits": "1d00ffff",
  "difficulty": 1,
  "chainwork": "00000000000000000000000000000000000000000000000000001be01be01be0",
  "nTx": 1,
  "previousblockhash": "00000000e9653d89013ce7e2051c794af796f366083b0832f1d55b91647866df",
  "nextblockhash": "00000000cab5562be91a7b14c914e4363e209ff4c9140f8d1bf21be79f889395",
  "strippedsize": 216,
  "size": 216,
  "weight": 864,
  "tx": [
    {
      "txid": "561d808b20cf3458aaaaa0ba7d00876c84680efe6f4f9facbee5dc0802f18aa7",
      "hash": "561d808b20cf3458aaaaa0ba7d00876c84680efe6f4f9facbee5dc0802f18aa7",
      "version": 1,
      "size": 135,
      "vsize": 135,
      "weight": 540,
      "locktime": 0,
      "vin": [
        {
          "coinbase": "04ffff001d02a904",
          "sequence": 4294967295
        }
      ],
      "vout": [
        {
          "value": 50.0,
          "n": 0,
          "scriptPubKey": {
            "asm": "049554d574ee0063cc6bdc0eef73486c65518acc24e7b2797b700e393fe5a3fb68615565eb3eb73d4b2c276dec027b11fb4764dca77512918c0ad709d4a9d20bd7 OP_CHECKSIG",
            "desc": "pk(049554d574ee0063cc6bdc0eef73486c65518acc24e7b2797b700e393fe5a3fb68615565eb3eb73d4b2c276dec027b11fb4764dca77512918c0ad709d4a9d20bd7)#4z5jdalx",
            "hex": "41049554d574ee0063cc6bdc0eef73486c65518acc24e7b2797b700e393fe5a3fb68615565eb3eb73d4b2c276dec027b11fb4764dca77512918c0ad709d4a9d20bd7ac",
            "type": "pubkey"
          }
        }
      ],
      "hex": "01000000010000000000000000000000000000000000000000000000000000000000000000ffffffff0804ffff001d02a904ffffffff0100f2052a010000004341049554d574ee0063cc6bdc0eef73486c65518acc24e7b2797b700e393fe5a3fb68615565eb3eb73d4b2c276dec027b11fb4764dca77512918c0ad709d4a9d20bd7ac00000000"
    }
  ]
}