{
  "hash": "000000004191891622f30db0f878e37a050a73a249e097f9d98d41829aba80ca",
  "confirmations": 43412,
  "height": 9686,
  "version": 1,
  "versionHex": "00000001",
  "merkleroot": "5092455040aa2859ec6be1e0769e2fb085a8bcdc28b41e6828d735109165a0d9",
  "time": 1238769178,
  "mediantime": 1238764731,
  "nonce": 3318419258,
  "bits": "1d00ffff",
  "difficulty": 1,
  "chainwork": "000000000000000000000000000000000000000000000000000025d725d725d7",
  "nTx": 1,
  "previousblockhash": "00000000e1116365ea84f9145752abec2853a8f558afde6142e0129aee00909a",
  "nextblockhash": "0000000082069a2b9a9b2428da4fc3cca39b636ca4bfd79abf85016906daca71",
  "strippedsize": 216,
  "size": 216,
  "weight": 864,
  "tx": [
    {
      "txid": "5092455040aa2859ec6be1e0769e2fb085a8bcdc28b41e6828d735109165a0d9",
      "hash": "5092455040aa2859ec6be1e0769e2fb085a8bcdc28b41e6828d735109165a0d9",
      "version": 1,
      "size": 135,
      "vsize": 135,
      "weight": 540,
      "locktime": 0,
      "vin": [
        {
          "coinbase": "04ffff001d023008",
          "sequence": 4294967295
        }
      ],
      "vout": [
        {
          "value": 50.0,
          "n": 0,
          "scriptPubKey": {
            "asm": "04bd12292e94b9ad6a3f9767e53903b71e3480a0ffbf87d3b3bebcb8b9959cc123f164e2207c32dd5fed47b28bb7ecf1201ccf5296ee49d14f90b426614b237fb7 OP_CHECKSIG",
            "desc": "pk(04bd12292e94b9ad6a3f9767e53903b71e3480a0ffbf87d3b3bebcb8b9959cc123f164e2207c32dd5fed47b28bb7ecf1201ccf5296ee49d14f90b426614b237fb7)#yjjpus2q",
            "hex": "4104bd12292e94b9ad6a3f9767e53903b71e3480a0ffbf87d3b3bebcb8b9959cc123f164e2207c32dd5fed47b28bb7ecf1201ccf5296ee49d14f90b426614b237fb7ac",
            "type": "pubkey"
          }
        }
      ],
      "hex": "01000000010000000000000000000000000000000000000000000000000000000000000000ffffffff0804ffff001d023008ffffffff0100f2052a01000000434104bd12292e94b9ad6a3f9767e53903b71e3480a0ffbf87d3b3bebcb8b9959cc123f164e2207c32dd5fed47b28bb7ecf1201ccf5296ee49d14f90b426614b237fb7ac00000000"
    }
  ]
}