{
  "hash": "00000000784b30e19707950458dddfb34cd42dfc3949c164633d9d2d216ab00d",
  "confirmations": 48619,
  "height": 4479,
  "version": 1,
  "versionHex": "00000001",
  "merkleroot": "53804c37a4c148d2176d86e837dae36ed27ee511830864aa5407b04b5b678470",
  "time": 1234765314,
  "mediantime": 1234761615,
  "nonce": 1406439465,
  "bits": "1d00ffff",
  "difficulty": 1,
  "chainwork": "0000000000000000000000000000000000000000000000000000118011801180",
  "nTx": 1,
  "previousblockhash": "0000000003a0415581df304c38440e3168ea271a45e134b91125f1175ddfaf7a",
  "nextblockhash": "000000004fed09c6a05bca51c68115a2ec631d463d449f0b6da2fbceff86de24",
  "strippedsize": 216,
  "size": 216,
  "weight": 864,
  "tx": [
    {
      "txid": "53804c37a4c148d2176d86e837dae36ed27ee511830864aa5407b04b5b678470",
      "hash": "53804c37a4c148d2176d86e837dae36ed27ee511830864aa5407b04b5b678470",
      "version": 1,
      "size": 135,
      "vsize": 135,
      "weight": 540,
      "locktime": 0,
      "vin": [
        {
          "coinbase": "04ffff001d027002",
          "sequence": 4294967295
        }
      ],
      "vout": [
        {
          "value": 50.0,
          "n": 0,
          "scriptPubKey": {
            "asm": "04ea10fbbdeb3e3a14bd9d2b8624cfe7823d43f94616f8e6510bb7555e5f592c3301a93d44aafb0c9320d2f8e95355c10925c080a27febf97e923019c59bb630c4 OP_CHECKSIG",
            "desc": "pk(04ea10fbbdeb3e3a14bd9d2b8624cfe7823d43f94616f8e6510bb7555e5f592c3301a93d44aafb0c9320d2f8e95355c10925c080a27febf97e923019c59bb630c4)#eajtr9ns",
            "hex": "4104ea10fbbdeb3e3a14bd9d2b8624cfe7823d43f94616f8e6510bb7555e5f592c3301a93d44aafb0c9320d2f8e95355c10925c080a27febf97e923019c59bb630c4ac",
            "type": "pubkey"
          }
        }
      ],
      "hex": "01000000010000000000000000000000000000000000000000000000000000000000000000ffffffff0804ffff001d027002ffffffff0100f2052a01000000434104ea10fbbdeb3e3a14bd9d2b8624cfe7823d43f94616f8e6510bb7555e5f592c3301a93d44aafb0c9320d2f8e95355c10925c080a27febf97e923019c59bb630c4ac00000000"
    }
  ]
}