{
  "hash": "000000005c9813a94061e4cd2c831cb47bad634c8b2995b3e9ed976a43df9087",
  "confirmations": 50156,
  "height": 2942,
  "version": 1,
  "versionHex": "00000001",
  "merkleroot": "5a3dc5ab27c3fb2e08773b29a9ac4d4b59bbd3121289376b1309812a6211b8e1",
  "time": 1233719325,
  "mediantime": 1233715573,
  "nonce": 1493803783,
  "bits": "1d00ffff",
  "difficulty": 1,
  "chainwork": "00000000000000000000000000000000000000000000000000000b7f0b7f0b7f",
  "nTx": 1,
  "previousblockhash": "000000001c9a6bbe76159eedc2a94c514ec7e8e2d98202c699cfc095c39daab1",
  "nextblockhash": "0000000089919eef6b1b30911aa9d30be93a778c412416922b10d0ce9190bf61",
  "strippedsize": 216,
  "size": 216,
  "weight": 864,
  "tx": [
    {
      "txid": "5a3dc5ab27c3fb2e08773b29a9ac4d4b59bbd3121289376b1309812a6211b8e1",
      "hash": "5a3dc5ab27c3fb2e08773b29a9ac4d4b59bbd3121289376b1309812a6211b8e1",
      "version": 1,
      "size": 135,
      "vsize": 135,
      "weight": 540,
      "locktime": 0,
      "vin": [
        {
          "coinbase": "04ffff001d028800",
          "sequence": 4294967295
        }
      ],
      "vout": [
        {
          "value": 50.0,
          "n": 0,
          "scriptPubKey": {
            "asm": "048c115aed5fa8bee690d86e62f09550762b9c95bcc51cb7342fe91fd74ba0a937f6c38ccfb3f02d8a78e3e179bf279c0d7422ff1e02b702cb86549a3d4a053e99 OP_CHECKSIG",
            "desc": "pk(048c115aed5fa8bee690d86e62f09550762b9c95bcc51cb7342fe91fd74ba0a937f6c38ccfb3f02d8a78e3e179bf279c0d7422ff1e02b702cb86549a3d4a053e99)#ll3pzuh4",
            "hex": "41048c115aed5fa8bee690d86e62f09550762b9c95bcc51cb7342fe91fd74ba0a937f6c38ccfb3f02d8a78e3e179bf279c0d7422ff1e02b702cb86549a3d4a053e99ac",
            "type": "pubkey"
          }
        }
      ],
      "hex": "01000000010000000000000000000000000000000000000000000000000000000000000000ffffffff0804ffff001d028800ffffffff0100f2052a010000004341048c115aed5fa8bee690d86e62f09550762b9c95bcc51cb7342fe91fd74ba0a937f6c38ccfb3f02d8a78e3e179bf279c0d7422ff1e02b702cb86549a3d4a053e99ac00000000"
    }
  ]
}