{
  "hash": "00000000685c9967b0f497a1358d5116131cdaac75d859a91aaa39baded2772f",
  "confirmations": 47460,
  "height": 5638,
  "version": 1,
  "versionHex": "00000001",
  "merkleroot": "df07ef95108a6179440ffa0c33787c900211a9c947ea4fab534b55eb15dfaaba",
  "time": 1235635669,
  "mediantime": 1235633497,
  "nonce": 4054372,
  "bits": "1d00ffff",
  "difficulty": 1,
  "chainwork": "0000000000000000000000000000000000000000000000000000160716071607",
  "nTx": 1,
  "previousblockhash": "000000000a73e64735a2b75c97ea674950a9018da1420d01328a918c9ff9852c",
  "nextblockhash": "0000000008e4138ffcfef67b05bfb3d91a3bb6c9b82eff62db0a20fcd34d28f7",
  "strippedsize": 215,
  "size": 215,
  "weight": 860,
  "tx": [
    {
      "txid": "df07ef95108a6179440ffa0c33787c900211a9c947ea4fab534b55eb15dfaaba",
      "hash": "df07ef95108a6179440ffa0c33787c900211a9c947ea4fab534b55eb15dfaaba",
      "version": 1,
      "size": 134,
      "vsize": 134,
      "weight": 536,
      "locktime": 0,
      "vin": [
        {
          "coinbase": "04ffff001d0128",
          "sequence": 4294967295
        }
      ],
      "vout": [
        {
          "value": 50.0,
          "n": 0,
          "scriptPubKey": {
            "asm": "04fa938c9fdead97d362b04e4b028bb846a719a1cbb57016cd7b35117fea0c3b22ae8a09083ed51620bfcb5905b03e94a01b0ea7a33772a9e314c363114cefd792 OP_CHECKSIG",
            "desc": "pk(04fa938c9fdead97d362b04e4b028bb846a719a1cbb57016cd7b35117fea0c3b22ae8a09083ed51620bfcb5905b03e94a01b0ea7a33772a9e314c363114cefd792)#0wkgh2d5",
            "hex": "4104fa938c9fdead97d362b04e4b028bb846a719a1cbb57016cd7b35117fea0c3b22ae8a09083ed51620bfcb5905b03e94a01b0ea7a33772a9e314c363114cefd792ac",
            "type": "pubkey"
          }
        }
      ],
      "hex": "01000000010000000000000000000000000000000000000000000000000000000000000000ffffffff0704ffff001d0128ffffffff0100f2052a01000000434104fa938c9fdead97d362b04e4b028bb846a719a1cbb57016cd7b35117fea0c3b22ae8a09083ed51620bfcb5905b03e94a01b0ea7a33772a9e314c363114cefd792ac00000000"
    }
  ]
}