{
  "hash": "0000000057c9dda16419004d83bcc83dc9db159fbecb6db628cf61453b835917",
  "confirmations": 45385,
  "height": 7713,
  "version": 1,
  "versionHex": "00000001",
  "merkleroot": "d06ffc76dc391f2cd230d574707b3446427ca925c39e47c22512ede87c8fc970",
  "time": 1237248648,
  "mediantime": 1237243874,
  "nonce": 3148804386,
  "bits": "1d00ffff",
  "difficulty": 1,
  "chainwork": "00000000000000000000000000000000000000000000000000001e221e221e22",
  "nTx": 1,
  "previousblockhash": "00000000a1c6b3a12c162d08014b97781715cca86992f7e44df51b96afdd8b79",
  "nextblockhash": "0000000040c06516cc9424ea574731fd6fd8804e31dabbafb7113b637969b08a",
  "strippedsize": 216,
  "size": 216,
  "weight": 864,
  "tx": [
    {
      "txid": "d06ffc76dc391f2cd230d574707b3446427ca925c39e47c22512ede87c8fc970",
      "hash": "d06ffc76dc391f2cd230d574707b3446427ca925c39e47c22512ede87c8fc970",
      "version": 1,
      "size": 135,
      "vsize": 135,
      "weight": 540,
      "locktime": 0,
      "vin": [
        {
          "coinbase": "04ffff001d026904",
          "sequence": 4294967295
        }
      ],
      "vout": [
        {
          "value": 50.0,
          "n": 0,
          "scriptPubKey": {
            "asm": "04782d2c877b67843df868ddb8a5d28fdade05aadeee03c024136221a7be6f19fa4c3dc20386932496b7988b9af7cd5e6c606e40d7295e700432cb8b831171841e OP_CHECKSIG",
            "desc": "pk(04782d2c877b67843df868ddb8a5d28fdade05aadeee03c024136221a7be6f19fa4c3dc20386932496b7988b9af7cd5e6c606e40d7295e700432cb8b831171841e)#z4vq6h2w",
            "hex": "4104782d2c877b67843df868ddb8a5d28fdade05aadeee03c024136221a7be6f19fa4c3dc20386932496b7988b9af7cd5e6c606e40d7295e700432cb8b831171841eac",
            "type": "pubkey"
          }
        }
      ],
      "hex": "01000000010000000000000000000000000000000000000000000000000000000000000000ffffffff0804ffff001d026904ffffffff0100f2052a01000000434104782d2c877b67843df868ddb8a5d28fdade05aadeee03c024136221a7be6f19fa4c3dc20386932496b7988b9af7cd5e6c606e40d7295e700432cb8b831171841eac00000000"
    }
  ]
}