{
  "hash": "00000000e6f3ddd1f93c53a57d4f00e1e96246d1484b4dd7c3169f3a01f13841",
  "confirmations": 50395,
  "height": 2703,
  "version": 1,
  "versionHex": "00000001",
  "merkleroot": "baa767b004413527be6db35dacfb3a3e23bf29d93cf42db3f6241d36b89f2f89",
  "time": 1233563268,
  "mediantime": 1233559016,
  "nonce": 3113174535,
  "bits": "1d00ffff",
  "difficulty": 1,
  "chainwork": "00000000000000000000000000000000000000000000000000000a900a900a90",
  "nTx": 1,
  "previousblockhash": "000000003a230554eeafcf23be3d2d283d5c93a5750d13f77c1b6f343e9dd2d9",
  "nextblockhash": "00000000464f691ad2d73b68206aff6e217f806aa30dfe2b54fdb53765fd2e0b",
  "strippedsize": 216,
  "size": 216,
  "weight": 864,
  "tx": [
    {
      "txid": "baa767b004413527be6db35dacfb3a3e23bf29d93cf42db3f6241d36b89f2f89",
      "hash": "baa767b004413527be6db35dacfb3a3e23bf29d93cf42db3f6241d36b89f2f89",
      "version": 1,
      "size": 135,
      "vsize": 135,
      "weight": 540,
      "locktime": 0,
      "vin": [
        {
          "coinbase": "04ffff001d02ca04",
          "sequence": 4294967295
        }
      ],
      "vout": [
        {
          "value": 50.0,
          "n": 0,
          "scriptPubKey": {
            "asm": "04b508e206b34dd15df62f8894e5914d4e3496cc684be336d85fdab684b300020045e02533094ab40c44c0bfaa8b108a9d9d8c3baa9f713a10245fbb70d40fec51 OP_CHECKSIG",
            "desc": "pk(04b508e206b34dd15df62f8894e5914d4e3496cc684be336d85fdab684b300020045e02533094ab40c44c0bfaa8b108a9d9d8c3baa9f713a10245fbb70d40fec51)#vrc3v5vm",
            "hex": "4104b508e206b34dd15df62f8894e5914d4e3496cc684be336d85fdab684b300020045e02533094ab40c44c0bfaa8b108a9d9d8c3baa9f713a10245fbb70d40fec51ac",
            "type": "pubkey"
          }
        }
      ],
      "hex": "01000000010000000000000000000000000000000000000000000000000000000000000000ffffffff0804ffff001d02ca04ffffffff0100f2052a01000000434104b508e206b34dd15df62f8894e5914d4e3496cc684be336d85fdab684b300020045e02533094ab40c44c0bfaa8b108a9d9d8c3baa9f713a10245fbb70d40fec51ac00000000"
    }
  ]
}