{
  "hash": "00000000793b1b2b35c9d7565ea731452e87a835b79de58f65875879c6c195d8",
  "confirmations": 52291,
  "height": 807,
  "version": 1,
  "versionHex": "00000001",
  "merkleroot": "6b272b55dabc0c54fd2f190ccd07d7b86d9de04a8ee8721638fd1bc29b8d67a7",
  "time": 1232198652,
  "mediantime": 1232195855,
  "nonce": 3708842040,
  "bits": "1d00ffff",
  "difficulty": 1,
  "chainwork": "0000000000000000000000000000000000000000000000000000032803280328",
  "nTx": 1,
  "previousblockhash": "000000009c76994726d17e4caa1676a390e6b2eafbe3faf175f4fbcaee0bf289",
  "nextblockhash": "000000002414cdffabf5c98a9efc4108833154356594f9121835c702ddc337d2",
  "strippedsize": 216,
  "size": 216,
  "weight": 864,
  "tx": [
    {
      "txid": "6b272b55dabc0c54fd2f190ccd07d7b86d9de04a8ee8721638fd1bc29b8d67a7",
      "hash": "6b272b55dabc0c54fd2f190ccd07d7b86d9de04a8ee8721638fd1bc29b8d67a7",
      "version": 1,
      "size": 135,
      "vsize": 135,
      "weight": 540,
      "locktime": 0,
      "vin": [
        {
          "coinbase": "04ffff001d029f01",
          "sequence": 4294967295
        }
      ],
      "vout": [
        {
          "value": 50.0,
          "n": 0,
          "scriptPubKey": {
            "asm": "04a013a600a51f7a7b06ab1b980375f8d472f16f7c12eb3c15bdb6c6ab437137308885c0b1df841d6dc5a0151df93adc06b3616e13beb2447228df40c8ce45436f OP_CHECKSIG",
            "desc": "pk(04a013a600a51f7a7b06ab1b980375f8d472f16f7c12eb3c15bdb6c6ab437137308885c0b1df841d6dc5a0151df93adc06b3616e13beb2447228df40c8ce45436f)#jp5pkenh",
            "hex": "4104a013a600a51f7a7b06ab1b980375f8d472f16f7c12eb3c15bdb6c6ab437137308885c0b1df841d6dc5a0151df93adc06b3616e13beb2447228df40c8ce45436fac",
            "type": "pubkey"
          }
        }
      ],
      "hex": "01000000010000000000000000000000000000000000000000000000000000000000000000ffffffff0804ffff001d029f01ffffffff0100f2052a01000000434104a013a600a51f7a7b06ab1b980375f8d472f16f7c12eb3c15bdb6c6ab437137308885c0b1df841d6dc5a0151df93adc06b3616e13beb2447228df40c8ce45436fac00000000"
    }
  ]
}