{
  "hash": "00000000cf799aca1e2d24f8fb6af83f1645858d370d402b091e031282230b25",
  "confirmations": 46667,
  "height": 6431,
  "version": 1,
  "versionHex": "00000001",
  "merkleroot": "be43ef704cf775fb8709238a9321beaf1aa1bb170ace78c7d51067200f903ffc",
  "time": 1236279164,
  "mediantime": 1236275504,
  "nonce": 4168169265,
  "bits": "1d00ffff",
  "difficulty": 1,
  "chainwork": "0000000000000000000000000000000000000000000000000000192019201920",
  "nTx": 1,
  "previousblockhash": "000000005a7b929d8c155d3d813cb95d61b50f1a5ad050a2df0d4ef5d3609cfc",
  "nextblockhash": "00000000e69b23348fc7c54152140fa220eb2cd7886b5ff2e13bbe05f9b27e7f",
  "strippedsize": 216,
  "size": 216,
  "weight": 864,
  "tx": [
    {
      "txid": "be43ef704cf775fb8709238a9321beaf1aa1bb170ace78c7d51067200f903ffc",
      "hash": "be43ef704cf775fb8709238a9321beaf1aa1bb170ace78c7d51067200f903ffc",
      "version": 1,
      "size": 135,
      "vsize": 135,
      "weight": 540,
      "locktime": 0,
      "vin": [
        {
          "coinbase": "04ffff001d025f02",
          "sequence": 4294967295
        }
      ],
      "vout": [
        {
          "value": 50.0,
          "n": 0,
          "scriptPubKey": {
            "asm": "04d9045ec0eeb28c1d96639f5aa5fcce7b53c13f9bd040abefcb823063b05b88bcb0e9fec3742929a9b2ad8ac3421e1cec392fc50f75236c3bbb6262ec2cdad6ab OP_CHECKSIG",
            "desc": "pk(04d9045ec0eeb28c1d96639f5aa5fcce7b53c13f9bd040abefcb823063b05b88bcb0e9fec3742929a9b2ad8ac3421e1cec392fc50f75236c3bbb6262ec2cdad6ab)#wnvk4ars",
            "hex": "4104d9045ec0eeb28c1d96639f5aa5fcce7b53c13f9bd040abefcb823063b05b88bcb0e9fec3742929a9b2ad8ac3421e1cec392fc50f75236c3bbb6262ec2cdad6abac",
            "type": "pubkey"
          }
        }
      ],
      "hex": "01000000010000000000000000000000000000000000000000000000000000000000000000ffffffff0804ffff001d025f02ffffffff0100f2052a01000000434104d9045ec0eeb28c1d96639f5aa5fcce7b53c13f9bd040abefcb823063b05b88bcb0e9fec3742929a9b2ad8ac3421e1cec392fc50f75236c3bbb6262ec2cdad6abac00000000"
    }
  ]
}