{
  "hash": "00000000f87322df1a585b17e45ed0bd817db29fcba4188e413c006f785db504",
  "confirmations": 50391,
  "height": 2707,
  "version": 1,
  "versionHex": "00000001",
  "merkleroot": "67e8524fdbcc7b605ac5915d24dfeabe13a68ad05dc01b3fa0b1c70c60364ded",
  "time": 1233565865,
  "mediantime": 1233562157,
  "nonce": 3649812232,
  "bits": "1d00ffff",
  "difficulty": 1,
  "chainwork": "00000000000000000000000000000000000000000000000000000a940a940a94",
  "nTx": 1,
  "previousblockhash": "00000000a53c7454947e3cd86eb81c958285d5cefbff5910cf692968d443fcff",
  "nextblockhash": "00000000bd8c7e54921ec8e98bc15f806b3f238d35a12f41d7caca5a3aec97e7",
  "strippedsize": 216,
  "size": 216,
  "weight": 864,
  "tx": [
    {
      "txid": "67e8524fdbcc7b605ac5915d24dfeabe13a68ad05dc01b3fa0b1c70c60364ded",
      "hash": "67e8524fdbcc7b605ac5915d24dfeabe13a68ad05dc01b3fa0b1c70c60364ded",
      "version": 1,
      "size": 135,
      "vsize": 135,
      "weight": 540,
      "locktime": 0,
      "vin": [
        {
          "coinbase": "04ffff001d02d204",
          "sequence": 4294967295
        }
      ],
      "vout": [
        {
          "value": 50.0,
          "n": 0,
          "scriptPubKey": {
            "asm": "04e1ffe9bf97fa2da32ca6b3e3099aa254067ae77694fdb6be20840430d97b13787fec19fe17abd71b37f661610f212ffb33ef198204c3e01676edc4c31116f321 OP_CHECKSIG",
            "desc": "pk(04e1ffe9bf97fa2da32ca6b3e3099aa254067ae77694fdb6be20840430d97b13787fec19fe17abd71b37f661610f212ffb33ef198204c3e01676edc4c31116f321)#ekemder0",
            "hex": "4104e1ffe9bf97fa2da32ca6b3e3099aa254067ae77694fdb6be20840430d97b13787fec19fe17abd71b37f661610f212ffb33ef198204c3e01676edc4c31116f321ac",
            "type": "pubkey"
          }
        }
      ],
      "hex": "01000000010000000000000000000000000000000000000000000000000000000000000000ffffffff0804ffff001d02d204ffffffff0100f2052a01000000434104e1ffe9bf97fa2da32ca6b3e3099aa254067ae77694fdb6be20840430d97b13787fec19fe17abd71b37f661610f212ffb33ef198204c3e01676edc4c31116f321ac00000000"
    }
  ]
}