{
  "hash": "000000006dd6ba3f019c7057a6e127319318d7dbef4efb7f2f3d39d7d53013b7",
  "confirmations": 50688,
  "height": 2410,
  "version": 1,
  "versionHex": "00000001",
  "merkleroot": "c7110506e1df433652ebe684df478075e9be337d1243cdec2ccf94c86042d432",
  "time": 1233362307,
  "mediantime": 1233359337,
  "nonce": 169998106,
  "bits": "1d00ffff",
  "difficulty": 1,
  "chainwork": "0000000000000000000000000000000000000000000000000000096b096b096b",
  "nTx": 1,
  "previousblockhash": "000000007a85fe470ab4ebd7672f2ca9cd8b61f4d7c788520d82983c98c27f37",
  "nextblockhash": "000000003c88883fbfb5820a0ce9af26ea2c1c5c11180dc75ad47e6d0e9f0877",
  "strippedsize": 215,
  "size": 215,
  "weight": 860,
  "tx": [
    {
      "txid": "c7110506e1df433652ebe684df478075e9be337d1243cdec2ccf94c86042d432",
      "hash": "c7110506e1df433652ebe684df478075e9be337d1243cdec2ccf94c86042d432",
      "version": 1,
      "size": 134,
      "vsize": 134,
      "weight": 536,
      "locktime": 0,
      "vin": [
        {
          "coinbase": "04ffff001d012d",
          "sequence": 4294967295
        }
      ],
      "vout": [
        {
          "value": 50.0,
          "n": 0,
          "scriptPubKey": {
            "asm": "0431c6e9de935419b43cb7dbc8c021ea26fe6a69e71552a2fa21e5a2c4ccb44d7fc38ccf2dea62896417db080a6e82d5076fb4335984e7eca3ef8ab18a6ac1b159 OP_CHECKSIG",
            "desc": "pk(0431c6e9de935419b43cb7dbc8c021ea26fe6a69e71552a2fa21e5a2c4ccb44d7fc38ccf2dea62896417db080a6e82d5076fb4335984e7eca3ef8ab18a6ac1b159)#ywrpw2re",
            "hex": "410431c6e9de935419b43cb7dbc8c021ea26fe6a69e71552a2fa21e5a2c4ccb44d7fc38ccf2dea62896417db080a6e82d5076fb4335984e7eca3ef8ab18a6ac1b159ac",
            "type": "pubkey"
          }
        }
      ],
      "hex": "01000000010000000000000000000000000000000000000000000000000000000000000000ffffffff0704ffff001d012dffffffff0100f2052a0100000043410431c6e9de935419b43cb7dbc8c021ea26fe6a69e71552a2fa21e5a2c4ccb44d7fc38ccf2dea62896417db080a6e82d5076fb4335984e7eca3ef8ab18a6ac1b159ac00000000"
    }
  ]
}