{
  "hash": "000000006006272b61243f806117f2b4d4482e1d3e83ee799b00015e551b81d2",
  "confirmations": 52096,
  "height": 235,
  "version": 1,
  "versionHex": "00000001",
  "merkleroot": "0cc917bf15f8807f224e7524c1eca22c3740ddefb7bf6694f7c2262b490cc706",
  "time": 1231780771,
  "mediantime": 1231776531,
  "nonce": 140056530,
  "bits": "1d00ffff",
  "difficulty": 1,
  "chainwork": "000000000000000000000000000000000000000000000000000000ec00ec00ec",
  "nTx": 1,
  "previousblockhash": "00000000c2edc9f0ed8e33627247bbf78b89ee62b23ae48e6201debc28ff208e",
  "nextblockhash": "00000000297e095567db935fefecb1d495b3fbcbbe5ce37dee325a98ba357a2b",
  "strippedsize": 215,
  "size": 215,
  "weight": 860,
  "tx": [
    {
      "txid": "0cc917bf15f8807f224e7524c1eca22c3740ddefb7bf6694f7c2262b490cc706",
      "hash": "0cc917bf15f8807f224e7524c1eca22c3740ddefb7bf6694f7c2262b490cc706",
      "version": 1,
      "size": 134,
      "vsize": 134,
      "weight": 536,
      "locktime": 0,
      "vin": [
        {
          "coinbase": "04ffff001d0109",
          "sequence": 4294967295
        }
      ],
      "vout": [
        {
          "value": 50.0,
          "n": 0,
          "scriptPubKey": {
            "asm": "0437949b7f3c4358c5d9c2211f7ab10d10d3a034d250d26388ad89a67709c43130c3208cbe7a438a34a90d75fc5d9a1934c812bebf67d0b7e8aa09093dea1f129c OP_CHECKSIG",
            "desc": "pk(0437949b7f3c4358c5d9c2211f7ab10d10d3a034d250d26388ad89a67709c43130c3208cbe7a438a34a90d75fc5d9a1934c812bebf67d0b7e8aa09093dea1f129c)#zt84cunv",
            "hex": "410437949b7f3c4358c5d9c2211f7ab10d10d3a034d250d26388ad89a67709c43130c3208cbe7a438a34a90d75fc5d9a1934c812bebf67d0b7e8aa09093dea1f129cac",
            "type": "pubkey"
          }
        }
      ],
      "hex": "01000000010000000000000000000000000000000000000000000000000000000000000000ffffffff0704ffff001d0109ffffffff0100f2052a0100000043410437949b7f3c4358c5d9c2211f7ab10d10d3a034d250d26388ad89a67709c43130c3208cbe7a438a34a90d75fc5d9a1934c812bebf67d0b7e8aa09093dea1f129cac00000000"
    }
  ]
}