{
  "hash": "00000000dbec8cc619aa4609606dfe91703072ac19131d91037e0d6279d44ae7",
  "confirmations": 47725,
  "height": 5373,
  "version": 1,
  "versionHex": "00000001",
  "merkleroot": "968736f625627b67ad2b821031d9ede9837ea47806d0067d0845c746fab71152",
  "time": 1235418407,
  "mediantime": 1235416245,
  "nonce": 4174667286,
  "bits": "1d00ffff",
  "difficulty": 1,
  "chainwork": "000000000000000000000000000000000000000000000000000014fe14fe14fe",
  "nTx": 1,
  "previousblockhash": "00000000076e64aa17a89e633e321d82515abf289ed896ddfc5d5d320a3e9702",
  "nextblockhash": "00000000c534ed7b5a33633e2481928211755b6fc1aa34a3594b8050c85227cf",
  "strippedsize": 216,
  "size": 216,
  "weight": 864,
  "tx": [
    {
      "txid": "968736f625627b67ad2b821031d9ede9837ea47806d0067d0845c746fab71152",
      "hash": "968736f625627b67ad2b821031d9ede9837ea47806d0067d0845c746fab71152",
      "version": 1,
      "size": 135,
      "vsize": 135,
      "weight": 540,
      "locktime": 0,
      "vin": [
        {
          "coinbase": "04ffff001d023d03",
          "sequence": 4294967295
        }
      ],
      "vout": [
        {
          "value": 50.0,
          "n": 0,
          "scriptPubKey": {
            "asm": "043efdedc9dd0734a5bf905bf983d0274c2fe5a55b78ec9e99e27e2b2682d40849cae00649a818a8a95364b5a207c862381887329fd1b091e63bfa1db0920a271b OP_CHECKSIG",
            "desc": "pk(043efdedc9dd0734a5bf905bf983d0274c2fe5a55b78ec9e99e27e2b2682d40849cae00649a818a8a95364b5a207c862381887329fd1b091e63bfa1db0920a271b)#72l8z2wu",
            "hex": "41043efdedc9dd0734a5bf905bf983d0274c2fe5a55b78ec9e99e27e2b2682d40849cae00649a818a8a95364b5a207c862381887329fd1b091e63bfa1db0920a271bac",
            "type": "pubkey"
          }
        }
      ],
      "hex": "01000000010000000000000000000000000000000000000000000000000000000000000000ffffffff0804ffff001d023d03ffffffff0100f2052a010000004341043efdedc9dd0734a5bf905bf983d0274c2fe5a55b78ec9e99e27e2b2682d40849cae00649a818a8a95364b5a207c862381887329fd1b091e63bfa1db0920a271bac00000000"
    }
  ]
}