{
  "hash": "000000003c883c858ec953652a66caa23265ac9f331b602691f3092cf1ae7299",
  "confirmations": 51252,
  "height": 1846,
  "version": 1,
  "versionHex": "00000001",
  "merkleroot": "ecaf66057be191cb974225eb15b0b1c37cc1b34cce7951d57df193342b255d9f",
  "time": 1232920337,
  "mediantime": 1232917716,
  "nonce": 3402602272,
  "bits": "1d00ffff",
  "difficulty": 1,
  "chainwork": "0000000000000000000000000000000000000000000000000000073707370737",
  "nTx": 1,
  "previousblockhash": "000000009b0925dc129edfd20a7c4bc33eb5ddc41bee1dff262e3b0d8b83cdaa",
  "nextblockhash": "00000000ebcbd04dd834b0709bcd74a05dd7a8f1524bfa30a603e3db1d888053",
  "strippedsize": 216,
  "size": 216,
  "weight": 864,
  "tx": [
    {
      "txid": "ecaf66057be191cb974225eb15b0b1c37cc1b34cce7951d57df193342b255d9f",
      "hash": "ecaf66057be191cb974225eb15b0b1c37cc1b34cce7951d57df193342b255d9f",
      "version": 1,
      "size": 135,
      "vsize": 135,
      "weight": 540,
      "locktime": 0,
      "vin": [
        {
          "coinbase": "04ffff001d028c04",
          "sequence": 4294967295
        }
      ],
      "vout": [
        {
          "value": 50.0,
          "n": 0,
          "scriptPubKey": {
            "asm": "04449e89209a3fe78289289d79e83847c7136c8364b27e8a9f3075201d62f7082c366dfe182f0aff5ebcef91602582c0762a90b50eb37e244a1ca78a5bb85bd6e4 OP_CHECKSIG",
            "desc": "pk(04449e89209a3fe78289289d79e83847c7136c8364b27e8a9f3075201d62f7082c366dfe182f0aff5ebcef91602582c0762a90b50eb37e244a1ca78a5bb85bd6e4)#uq5yjja0",
            "hex": "4104449e89209a3fe78289289d79e83847c7136c8364b27e8a9f3075201d62f7082c366dfe182f0aff5ebcef91602582c0762a90b50eb37e244a1ca78a5bb85bd6e4ac",
            "type": "pubkey"
          }
        }
      ],
      "hex": "01000000010000000000000000000000000000000000000000000000000000000000000000ffffffff0804ffff001d028c04ffffffff0100f2052a01000000434104449e89209a3fe78289289d79e83847c7136c8364b27e8a9f3075201d62f7082c366dfe182f0aff5ebcef91602582c0762a90b50eb37e244a1ca78a5bb85bd6e4ac00000000"
    }
  ]
}