{
  "hash": "00000000ace02fba9eb2b25bd11b8c632343111cdac17b25071557b5c788cb47",
  "confirmations": 44868,
  "height": 8230,
  "version": 1,
  "versionHex": "00000001",
  "merkleroot": "c3964f4afdf96886ebe3593ef8e9b9d5cab98e982fca2decca38908d500672ce",
  "time": 1237670411,
  "mediantime": 1237647071,
  "nonce": 177425889,
  "bits": "1d00ffff",
  "difficulty": 1,
  "chainwork": "0000000000000000000000000000000000000000000000000000202720272027",
  "nTx": 1,
  "previousblockhash": "000000005d26a37e9d1b0f0582a58906b945c27cfd0bb7b8873cb336b98cbcd5",
  "nextblockhash": "0000000081ac433c596a735022c5e1f19afcce061a68da4e8547521f647e5ca4",
  "strippedsize": 216,
  "size": 216,
  "weight": 864,
  "tx": [
    {
      "txid": "c3964f4afdf96886ebe3593ef8e9b9d5cab98e982fca2decca38908d500672ce",
      "hash": "c3964f4afdf96886ebe3593ef8e9b9d5cab98e982fca2decca38908d500672ce",
      "version": 1,
      "size": 135,
      "vsize": 135,
      "weight": 540,
      "locktime": 0,
      "vin": [
        {
          "coinbase": "04ffff001d028d04",
          "sequence": 4294967295
        }
      ],
      "vout": [
        {
          "value": 50.0,
          "n": 0,
          "scriptPubKey": {
            "asm": "0474a21a9cd55bac0ffbc2adf0e3e79795df4bda5b00cf8e9ff7d697da700fe11be0f34eef3398d8b131d8e9f3c65c43a155c5f900693fedfb8fd8798e8003d3c6 OP_CHECKSIG",
            "desc": "pk(0474a21a9cd55bac0ffbc2adf0e3e79795df4bda5b00cf8e9ff7d697da700fe11be0f34eef3398d8b131d8e9f3c65c43a155c5f900693fedfb8fd8798e8003d3c6)#k08r0vd0",
            "hex": "410474a21a9cd55bac0ffbc2adf0e3e79795df4bda5b00cf8e9ff7d697da700fe11be0f34eef3398d8b131d8e9f3c65c43a155c5f900693fedfb8fd8798e8003d3c6ac",
            "type": "pubkey"
          }
        }
      ],
      "hex": "01000000010000000000000000000000000000000000000000000000000000000000000000ffffffff0804ffff001d028d04ffffffff0100f2052a0100000043410474a21a9cd55bac0ffbc2adf0e3e79795df4bda5b00cf8e9ff7d697da700fe11be0f34eef3398d8b131d8e9f3c65c43a155c5f900693fedfb8fd8798e8003d3c6ac00000000"
    }
  ]
}