{
  "hash": "00000000af7bf7fc346a50fd2614cd168ad7c1acd70c0ed7d725e440e64a0e2c",
  "confirmations": 43492,
  "height": 9606,
  "version": 1,
  "versionHex": "00000001",
  "merkleroot": "bb292eb805e0271aae46f76b7ee18f902f42130e64daaabe5c0584048307cc78",
  "time": 1238705340,
  "mediantime": 1238701671,
  "nonce": 269087794,
  "bits": "1d00ffff",
  "difficulty": 1,
  "chainwork": "0000000000000000000000000000000000000000000000000000258725872587",
  "nTx": 1,
  "previousblockhash": "0000000090b3ceebaf2a03e2ed6e3044e3a436361579e94dab1d711bb560fe23",
  "nextblockhash": "0000000038dfaa7ef44dfea851e1804e72c6fed0afff56fdc1a4e9cabff63699",
  "strippedsize": 216,
  "size": 216,
  "weight": 864,
  "tx": [
    {
      "txid": "bb292eb805e0271aae46f76b7ee18f902f42130e64daaabe5c0584048307cc78",
      "hash": "bb292eb805e0271aae46f76b7ee18f902f42130e64daaabe5c0584048307cc78",
      "version": 1,
      "size": 135,
      "vsize": 135,
      "weight": 540,
      "locktime": 0,
      "vin": [
        {
          "coinbase": "04ffff001d023207",
          "sequence": 4294967295
        }
      ],
      "vout": [
        {
          "value": 50.0,
          "n": 0,
          "scriptPubKey": {
            "asm": "042a34fd6503ad8b602f3e657f7017a918ac09dd38fe138f6f88c21bffd2b042d16af01b798cdea92da0dbf5333b1c9b566dc305c6638d72ce72b14ed79da24212 OP_CHECKSIG",
            "desc": "pk(042a34fd6503ad8b602f3e657f7017a918ac09dd38fe138f6f88c21bffd2b042d16af01b798cdea92da0dbf5333b1c9b566dc305c6638d72ce72b14ed79da24212)#qxa5a3w9",
            "hex": "41042a34fd6503ad8b602f3e657f7017a918ac09dd38fe138f6f88c21bffd2b042d16af01b798cdea92da0dbf5333b1c9b566dc305c6638d72ce72b14ed79da24212ac",
            "type": "pubkey"
          }
        }
      ],
      "hex": "01000000010000000000000000000000000000000000000000000000000000000000000000ffffffff0804ffff001d023207ffffffff0100f2052a010000004341042a34fd6503ad8b602f3e657f7017a918ac09dd38fe138f6f88c21bffd2b042d16af01b798cdea92da0dbf5333b1c9b566dc305c6638d72ce72b14ed79da24212ac00000000"
    }
  ]
}