{
  "hash": "00000000ea5c1e26bc1d5c062b837f3f639477515b23b093e7ab0de78a718572",
  "confirmations": 46066,
  "height": 7032,
  "version": 1,
  "versionHex": "00000001",
  "merkleroot": "24a640a2d279939a99e16733a4c25f902900500b878b8bf5ae5956ceb1ca189a",
  "time": 1236742160,
  "mediantime": 1236739038,
  "nonce": 1844718126,
  "bits": "1d00ffff",
  "difficulty": 1,
  "chainwork": "00000000000000000000000000000000000000000000000000001b791b791b79",
  "nTx": 1,
  "previousblockhash": "0000000064c177ee27588d11dffda0f450f131ca155ece5987a88d211976adb9",
  "nextblockhash": "00000000ed6073468988f71c78808ce5ad2a0f5f0c648681478e4dcec6032b29",
  "strippedsize": 216,
  "size": 216,
  "weight": 864,
  "tx": [
    {
      "txid": "24a640a2d279939a99e16733a4c25f902900500b878b8bf5ae5956ceb1ca189a",
      "hash": "24a640a2d279939a99e16733a4c25f902900500b878b8bf5ae5956ceb1ca189a",
      "version": 1,
      "size": 135,
      "vsize": 135,
      "weight": 540,
      "locktime": 0,
      "vin": [
        {
          "coinbase": "04ffff001d02e202",
          "sequence": 4294967295
        }
      ],
      "vout": [
        {
          "value": 50.0,
          "n": 0,
          "scriptPubKey": {
            "asm": "04552931cd63cff980789f5e8cd4bec1814f8c0bf861aea8b56c5b075f2f3090a6b53e9e89b7ba540667bd41d24bd7dad2d7fb2ff7b2588c1794df5f6303681d4b OP_CHECKSIG",
            "desc": "pk(04552931cd63cff980789f5e8cd4bec1814f8c0bf861aea8b56c5b075f2f3090a6b53e9e89b7ba540667bd41d24bd7dad2d7fb2ff7b2588c1794df5f6303681d4b)#apaqz96s",
            "hex": "4104552931cd63cff980789f5e8cd4bec1814f8c0bf861aea8b56c5b075f2f3090a6b53e9e89b7ba540667bd41d24bd7dad2d7fb2ff7b2588c1794df5f6303681d4bac",
            "type": "pubkey"
          }
        }
      ],
      "hex": "01000000010000000000000000000000000000000000000000000000000000000000000000ffffffff0804ffff001d02e202ffffffff0100f2052a01000000434104552931cd63cff980789f5e8cd4bec1814f8c0bf861aea8b56c5b075f2f3090a6b53e9e89b7ba540667bd41d24bd7dad2d7fb2ff7b2588c1794df5f6303681d4bac00000000"
    }
  ]
}