{
  "hash": "00000000894b02b664866d8499e159ed4cbf3f03480dd53e6f4fef3350115329",
  "confirmations": 45746,
  "height": 7352,
  "version": 1,
  "versionHex": "00000001",
  "merkleroot": "914762cc8a45e31c76fe8dd52a80247273317899772670c59c0ef4ad1cb21356",
  "time": 1236984961,
  "mediantime": 1236981466,
  "nonce": 354505268,
  "bits": "1d00ffff",
  "difficulty": 1,
  "chainwork": "00000000000000000000000000000000000000000000000000001cb91cb91cb9",
  "nTx": 1,
  "previousblockhash": "0000000076825dbf5a525d8fab9a7477b76c062ecd2aa9b35fbe3b987a4890e0",
  "nextblockhash": "00000000aab2f42ccb56bb0b294168dd1e0cac0edeaabdc05867ccaaf9cd306a",
  "strippedsize": 216,
  "size": 216,
  "weight": 864,
  "tx": [
    {
      "txid": "914762cc8a45e31c76fe8dd52a80247273317899772670c59c0ef4ad1cb21356",
      "hash": "914762cc8a45e31c76fe8dd52a80247273317899772670c59c0ef4ad1cb21356",
      "version": 1,
      "size": 135,
      "vsize": 135,
      "weight": 540,
      "locktime": 0,
      "vin": [
        {
          "coinbase": "04ffff001d028508",
          "sequence": 4294967295
        }
      ],
      "vout": [
        {
          "value": 50.0,
          "n": 0,
          "scriptPubKey": {
            "asm": "0426b1ff1ba4bce768059239018a3b7b3c3bc3df81c5873b003c05a751a674a34a24909e63826e0aa2172759d42659a57c76cb2bf14a36552098c241aacfbdbe2c OP_CHECKSIG",
            "desc": "pk(0426b1ff1ba4bce768059239018a3b7b3c3bc3df81c5873b003c05a751a674a34a24909e63826e0aa2172759d42659a57c76cb2bf14a36552098c241aacfbdbe2c)#ckapnpml",
            "hex": "410426b1ff1ba4bce768059239018a3b7b3c3bc3df81c5873b003c05a751a674a34a24909e63826e0aa2172759d42659a57c76cb2bf14a36552098c241aacfbdbe2cac",
            "type": "pubkey"
          }
        }
      ],
      "hex": "01000000010000000000000000000000000000000000000000000000000000000000000000ffffffff0804ffff001d028508ffffffff0100f2052a0100000043410426b1ff1ba4bce768059239018a3b7b3c3bc3df81c5873b003c05a751a674a34a24909e63826e0aa2172759d42659a57c76cb2bf14a36552098c241aacfbdbe2cac00000000"
    }
  ]
}