{
  "hash": "00000000a8ed265d3d7d4a829dac44c97b30f1a519bcd7ca038a7c680755a30c",
  "confirmations": 52193,
  "height": 905,
  "version": 1,
  "versionHex": "00000001",
  "merkleroot": "4b4642c2f07835ca1299b7085c08d8702d66e659ff8dde9e6091661834860b19",
  "time": 1232280459,
  "mediantime": 1232275729,
  "nonce": 54277128,
  "bits": "1d00ffff",
  "difficulty": 1,
  "chainwork": "0000000000000000000000000000000000000000000000000000038a038a038a",
  "nTx": 1,
  "previousblockhash": "00000000e971a5014d9f7a70e26b223dbb68a51c4a6340824ef8deca00a30430",
  "nextblockhash": "0000000096732a5e1eb8fd8da3bc5024cfb882a9ed4c04b3a0077eae470169cb",
  "strippedsize": 215,
  "size": 215,
  "weight": 860,
  "tx": [
    {
      "txid": "4b4642c2f07835ca1299b7085c08d8702d66e659ff8dde9e6091661834860b19",
      "hash": "4b4642c2f07835ca1299b7085c08d8702d66e659ff8dde9e6091661834860b19",
      "version": 1,
      "size": 134,
      "vsize": 134,
      "weight": 536,
      "locktime": 0,
      "vin": [
        {
          "coinbase": "04ffff001d0170",
          "sequence": 4294967295
        }
      ],
      "vout": [
        {
          "value": 50.0,
          "n": 0,
          "scriptPubKey": {
            "asm": "0453d43b63b445d20a63e25fe67fcc503a191e962fe953b8dc5005025da8bd90c3673aaf719fefe5d0f77c1b16c915c24e53c5cc23e4eb87c9972a80de0da20105 OP_CHECKSIG",
            "desc": "pk(0453d43b63b445d20a63e25fe67fcc503a191e962fe953b8dc5005025da8bd90c3673aaf719fefe5d0f77c1b16c915c24e53c5cc23e4eb87c9972a80de0da20105)#jnpql60y",
            "hex": "410453d43b63b445d20a63e25fe67fcc503a191e962fe953b8dc5005025da8bd90c3673aaf719fefe5d0f77c1b16c915c24e53c5cc23e4eb87c9972a80de0da20105ac",
            "type": "pubkey"
          }
        }
      ],
      "hex": "01000000010000000000000000000000000000000000000000000000000000000000000000ffffffff0704ffff001d0170ffffffff0100f2052a0100000043410453d43b63b445d20a63e25fe67fcc503a191e962fe953b8dc5005025da8bd90c3673aaf719fefe5d0f77c1b16c915c24e53c5cc23e4eb87c9972a80de0da20105ac00000000"
    }
  ]
}