{
  "hash": "00000000d1536f0336c4a77c538f08ef87e00f6b1c1f846d59093d9511d023f9",
  "confirmations": 46786,
  "height": 6312,
  "version": 1,
  "versionHex": "00000001",
  "merkleroot": "09754cf009cf38f6b6860c75da894a3b2aaa0dff143139586ae60da7160001dd",
  "time": 1236180341,
  "mediantime": 1236177370,
  "nonce": 1185485826,
  "bits": "1d00ffff",
  "difficulty": 1,
  "chainwork": "000000000000000000000000000000000000000000000000000018a918a918a9",
  "nTx": 1,
  "previousblockhash": "00000000f878c7445b66af5c25c426fe2882c9f015f4e26c6a6b44608bc661d6",
  "nextblockhash": "00000000d74c8248447e9303185424232883e10679a38547a417d1dde615baff",
  "strippedsize": 215,
  "size": 215,
  "weight": 860,
  "tx": [
    {
      "txid": "09754cf009cf38f6b6860c75da894a3b2aaa0dff143139586ae60da7160001dd",
      "hash": "09754cf009cf38f6b6860c75da894a3b2aaa0dff143139586ae60da7160001dd",
      "version": 1,
      "size": 134,
      "vsize": 134,
      "weight": 536,
      "locktime": 0,
      "vin": [
        {
          "coinbase": "04ffff001d014e",
          "sequence": 4294967295
        }
      ],
      "vout": [
        {
          "value": 50.0,
          "n": 0,
          "scriptPubKey": {
            "asm": "0400b227c64696d6ee9c766115522e10bbf9119d9fc493472b4f6fc9e75fb3a001115dee3cef82edaae355a8b94bdab83955f855414f5bf30693de718d3ba7f543 OP_CHECKSIG",
            "desc": "pk(0400b227c64696d6ee9c766115522e10bbf9119d9fc493472b4f6fc9e75fb3a001115dee3cef82edaae355a8b94bdab83955f855414f5bf30693de718d3ba7f543)#p3wlhhct",
            "hex": "410400b227c64696d6ee9c766115522e10bbf9119d9fc493472b4f6fc9e75fb3a001115dee3cef82edaae355a8b94bdab83955f855414f5bf30693de718d3ba7f543ac",
            "type": "pubkey"
          }
        }
      ],
      "hex": "01000000010000000000000000000000000000000000000000000000000000000000000000ffffffff0704ffff001d014effffffff0100f2052a0100000043410400b227c64696d6ee9c766115522e10bbf9119d9fc493472b4f6fc9e75fb3a001115dee3cef82edaae355a8b94bdab83955f855414f5bf30693de718d3ba7f543ac00000000"
    }
  ]
}