{
  "hash": "000000008bd4fc0326715015db1c8d00bfa9649ffe6fb5fc02f60517ff70f42b",
  "confirmations": 44139,
  "height": 8959,
  "version": 1,
  "versionHex": "00000001",
  "merkleroot": "1b5436453221f1a0dbef5934b604e539966d86a503b482f839f9e15912acdbd3",
  "time": 1238223926,
  "mediantime": 1238220813,
  "nonce": 2199312156,
  "bits": "1d00ffff",
  "difficulty": 1,
  "chainwork": "0000000000000000000000000000000000000000000000000000230023002300",
  "nTx": 1,
  "previousblockhash": "00000000cee528a564ecef212f781c6a45665cfbaae208302bb13cc6b9e26304",
  "nextblockhash": "00000000c2253ed36167903b09d3f2189d0ff81e3190ddca8a17a721de88cfb6",
  "strippedsize": 216,
  "size": 216,
  "weight": 864,
  "tx": [
    {
      "txid": "1b5436453221f1a0dbef5934b604e539966d86a503b482f839f9e15912acdbd3",
      "hash": "1b5436453221f1a0dbef5934b604e539966d86a503b482f839f9e15912acdbd3",
      "version": 1,
      "size": 135,
      "vsize": 135,
      "weight": 540,
      "locktime": 0,
      "vin": [
        {
          "coinbase": "04ffff001d02ab05",
          "sequence": 4294967295
        }
      ],
      "vout": [
        {
          "value": 50.0,
          "n": 0,
          "scriptPubKey": {
            "asm": "0473e27579ad0cc915078e51b1e462a3c2139a8f6391f10ecf7f5e3d66bc0c3940a606d90f88de12da3085fbbf4b1c410ae50304ac561f65ff2addb45850569cfe OP_CHECKSIG",
            "desc": "pk(0473e27579ad0cc915078e51b1e462a3c2139a8f6391f10ecf7f5e3d66bc0c3940a606d90f88de12da3085fbbf4b1c410ae50304ac561f65ff2addb45850569cfe)#dl3ch73z",
            "hex": "410473e27579ad0cc915078e51b1e462a3c2139a8f6391f10ecf7f5e3d66bc0c3940a606d90f88de12da3085fbbf4b1c410ae50304ac561f65ff2addb45850569cfeac",
            "type": "pubkey"
          }
        }
      ],
      "hex": "01000000010000000000000000000000000000000000000000000000000000000000000000ffffffff0804ffff001d02ab05ffffffff0100f2052a0100000043410473e27579ad0cc915078e51b1e462a3c2139a8f6391f10ecf7f5e3d66bc0c3940a606d90f88de12da3085fbbf4b1c410ae50304ac561f65ff2addb45850569cfeac00000000"
    }
  ]
}