{
  "hash": "0000000055486616fe970fa8bdc9b735dd3b35e9193f7bbdaf5ce0eb4ed5cde7",
  "confirmations": 44530,
  "height": 8568,
  "version": 1,
  "versionHex": "00000001",
  "merkleroot": "a454ab5783c044ea9a5037235c6229c42898b52f7a4ac3b7f437219f623c2516",
  "time": 1237925868,
  "mediantime": 1237920905,
  "nonce": 168568590,
  "bits": "1d00ffff",
  "difficulty": 1,
  "chainwork": "0000000000000000000000000000000000000000000000000000217921792179",
  "nTx": 1,
  "previousblockhash": "00000000dd233dca7573fee337fb05740e539a4ccc153e8d73c4a92d1207a273",
  "nextblockhash": "00000000954c9ba50cdfad508b066b2c318f54f14d0b4a5724cc3c6c4dce02cd",
  "strippedsize": 216,
  "size": 216,
  "weight": 864,
  "tx": [
    {
      "txid": "a454ab5783c044ea9a5037235c6229c42898b52f7a4ac3b7f437219f623c2516",
      "hash": "a454ab5783c044ea9a5037235c6229c42898b52f7a4ac3b7f437219f623c2516",
      "version": 1,
      "size": 135,
      "vsize": 135,
      "weight": 540,
      "locktime": 0,
      "vin": [
        {
          "coinbase": "04ffff001d027c03",
          "sequence": 4294967295
        }
      ],
      "vout": [
        {
          "value": 50.0,
          "n": 0,
          "scriptPubKey": {
            "asm": "044b2ee76bbbf60a07e9a913fe9a6749fb48d233d94ef92b1ef879e3a1c2b09a44e4d5a1738c9c6bc10a2b67ece932fcfcbcddb3a7df4bb1c3d4617429bef95563 OP_CHECKSIG",
            "desc": "pk(044b2ee76bbbf60a07e9a913fe9a6749fb48d233d94ef92b1ef879e3a1c2b09a44e4d5a1738c9c6bc10a2b67ece932fcfcbcddb3a7df4bb1c3d4617429bef95563)#9jvsd3s5",
            "hex": "41044b2ee76bbbf60a07e9a913fe9a6749fb48d233d94ef92b1ef879e3a1c2b09a44e4d5a1738c9c6bc10a2b67ece932fcfcbcddb3a7df4bb1c3d4617429bef95563ac",
            "type": "pubkey"
          }
        }
      ],
      "hex": "01000000010000000000000000000000000000000000000000000000000000000000000000ffffffff0804ffff001d027c03ffffffff0100f2052a010000004341044b2ee76bbbf60a07e9a913fe9a6749fb48d233d94ef92b1ef879e3a1c2b09a44e4d5a1738c9c6bc10a2b67ece932fcfcbcddb3a7df4bb1c3d4617429bef95563ac00000000"
    }
  ]
}