{
  "hash": "0000000055156abeea523f65997cbf0a950a8364d3bda7ef1ea190dfd3842761",
  "confirmations": 48474,
  "height": 4624,
  "version": 1,
  "versionHex": "00000001",
  "merkleroot": "1619902e5c581c2d44c1ad117d5134ca199ee80d9ce289a6823e093aeca219a6",
  "time": 1234872977,
  "mediantime": 1234869472,
  "nonce": 64956247,
  "bits": "1d00ffff",
  "difficulty": 1,
  "chainwork": "0000000000000000000000000000000000000000000000000000121112111211",
  "nTx": 1,
  "previousblockhash": "0000000097d58f75cb49c3e56951672c32ab0c03b99cf6a16aed4cab43f42853",
  "nextblockhash": "00000000552bbfd847afa166607c9c91349b5ec62e42a1c52cc5704d933182ad",
  "strippedsize": 215,
  "size": 215,
  "weight": 860,
  "tx": [
    {
      "txid": "1619902e5c581c2d44c1ad117d5134ca199ee80d9ce289a6823e093aeca219a6",
      "hash": "1619902e5c581c2d44c1ad117d5134ca199ee80d9ce289a6823e093aeca219a6",
      "version": 1,
      "size": 134,
      "vsize": 134,
      "weight": 536,
      "locktime": 0,
      "vin": [
        {
          "coinbase": "04ffff001d015e",
          "sequence": 4294967295
        }
      ],
      "vout": [
        {
          "value": 50.0,
          "n": 0,
          "scriptPubKey": {
            "asm": "04e0454308e0d736783dac32951487a4dfe13c4f90f884803538113b11109698d9e1605ec8161769e3ebc60d87886cf3a6dfd30b456dfa69397bf07185d1b520a2 OP_CHECKSIG",
            "desc": "pk(04e0454308e0d736783dac32951487a4dfe13c4f90f884803538113b11109698d9e1605ec8161769e3ebc60d87886cf3a6dfd30b456dfa69397bf07185d1b520a2)#wa5pxlwy",
            "hex": "4104e0454308e0d736783dac32951487a4dfe13c4f90f884803538113b11109698d9e1605ec8161769e3ebc60d87886cf3a6dfd30b456dfa69397bf07185d1b520a2ac",
            "type": "pubkey"
          }
        }
      ],
      "hex": "01000000010000000000000000000000000000000000000000000000000000000000000000ffffffff0704ffff001d015effffffff0100f2052a01000000434104e0454308e0d736783dac32951487a4dfe13c4f90f884803538113b11109698d9e1605ec8161769e3ebc60d87886cf3a6dfd30b456dfa69397bf07185d1b520a2ac00000000"
    }
  ]
}