{
  "hash": "00000000158b0585927acbb1fec533a7883045dabff45a3ee95fb9750a514344",
  "confirmations": 52435,
  "height": 663,
  "version": 1,
  "versionHex": "00000001",
  "merkleroot": "d4713853a31daeebd0d7582dc1b033b039db62183446e4d0149098300222d470",
  "time": 1232077965,
  "mediantime": 1232073893,
  "nonce": 1851521591,
  "bits": "1d00ffff",
  "difficulty": 1,
  "chainwork": "0000000000000000000000000000000000000000000000000000029802980298",
  "nTx": 1,
  "previousblockhash": "00000000ae07b04e64e658c2dd85bfab0da646352a42037940dd0d18ea6ed8a4",
  "nextblockhash": "00000000314adfb954aa27794bf6015ff65112ad64adf179338e979108277226",
  "strippedsize": 215,
  "size": 215,
  "weight": 860,
  "tx": [
    {
      "txid": "d4713853a31daeebd0d7582dc1b033b039db62183446e4d0149098300222d470",
      "hash": "d4713853a31daeebd0d7582dc1b033b039db62183446e4d0149098300222d470",
      "version": 1,
      "size": 134,
      "vsize": 134,
      "weight": 536,
      "locktime": 0,
      "vin": [
        {
          "coinbase": "04ffff001d0115",
          "sequence": 4294967295
        }
      ],
      "vout": [
        {
          "value": 50.0,
          "n": 0,
          "scriptPubKey": {
            "asm": "041d0989c41bcca9a869027352a89f7b71e704dbce30fa6bb5bd091388dc7140210f05805e385823a19553d1d145a17cfca5cab3a0f4358d0562b3b304d464ca1c OP_CHECKSIG",
            "desc": "pk(041d0989c41bcca9a869027352a89f7b71e704dbce30fa6bb5bd091388dc7140210f05805e385823a19553d1d145a17cfca5cab3a0f4358d0562b3b304d464ca1c)#wl5d3yuv",
            "hex": "41041d0989c41bcca9a869027352a89f7b71e704dbce30fa6bb5bd091388dc7140210f05805e385823a19553d1d145a17cfca5cab3a0f4358d0562b3b304d464ca1cac",
            "type": "pubkey"
          }
        }
      ],
      "hex": "01000000010000000000000000000000000000000000000000000000000000000000000000ffffffff0704ffff001d0115ffffffff0100f2052a010000004341041d0989c41bcca9a869027352a89f7b71e704dbce30fa6bb5bd091388dc7140210f05805e385823a19553d1d145a17cfca5cab3a0f4358d0562b3b304d464ca1cac00000000"
    }
  ]
}