{
  "hash": "000000007503606c5218229b5ed7dec308060951202a32eba433ec53e07a827f",
  "confirmations": 44926,
  "height": 8172,
  "version": 1,
  "versionHex": "00000001",
  "merkleroot": "c97e63f034978e6984b6dd2292c5fd411a3bc4f96f723430323e8b8c0dbd7d8b",
  "time": 1237587138,
  "mediantime": 1237584291,
  "nonce": 9865899,
  "bits": "1d00ffff",
  "difficulty": 1,
  "chainwork": "00000000000000000000000000000000000000000000000000001fed1fed1fed",
  "nTx": 1,
  "previousblockhash": "000000002fec941ddc71a8e9d1ce5ddbb84f8deeb21a8a1998056fb6ebe10c68",
  "nextblockhash": "000000006689f4b18ebae9f42d3aa3da53e2e353401b00f38daea70978518a2e",
  "strippedsize": 215,
  "size": 215,
  "weight": 860,
  "tx": [
    {
      "txid": "c97e63f034978e6984b6dd2292c5fd411a3bc4f96f723430323e8b8c0dbd7d8b",
      "hash": "c97e63f034978e6984b6dd2292c5fd411a3bc4f96f723430323e8b8c0dbd7d8b",
      "version": 1,
      "size": 134,
      "vsize": 134,
      "weight": 536,
      "locktime": 0,
      "vin": [
        {
          "coinbase": "04ffff001d0129",
          "sequence": 4294967295
        }
      ],
      "vout": [
        {
          "value": 50.0,
          "n": 0,
          "scriptPubKey": {
            "asm": "04f3136013546ccf199865eec40794fa89b8db7e22d8ab3324f192d87419107b0437051357dbf50dd23df08eca1968bc14e0bc353147071eff46c95c958aed5fb0 OP_CHECKSIG",
            "desc": "pk(04f3136013546ccf199865eec40794fa89b8db7e22d8ab3324f192d87419107b0437051357dbf50dd23df08eca1968bc14e0bc353147071eff46c95c958aed5fb0)#d6cukhsk",
            "hex": "4104f3136013546ccf199865eec40794fa89b8db7e22d8ab3324f192d87419107b0437051357dbf50dd23df08eca1968bc14e0bc353147071eff46c95c958aed5fb0ac",
            "type": "pubkey"
          }
        }
      ],
      "hex": "01000000010000000000000000000000000000000000000000000000000000000000000000ffffffff0704ffff001d0129ffffffff0100f2052a01000000434104f3136013546ccf199865eec40794fa89b8db7e22d8ab3324f192d87419107b0437051357dbf50dd23df08eca1968bc14e0bc353147071eff46c95c958aed5fb0ac00000000"
    }
  ]
}