{
  "hash": "000000005d7dd40c24c4b6334812f48d4386c7756fb9006d6c74300837c91ebd",
  "confirmations": 52010,
  "height": 114,
  "version": 1,
  "versionHex": "00000001",
  "merkleroot": "ca7b0295546806c9b6631f8bc89ed0b55434ee5f8ce6198a918af18c6da9237c",
  "time": 1231671619,
  "mediantime": 1231667774,
  "nonce": 2979771436,
  "bits": "1d00ffff",
  "difficulty": 1,
  "chainwork": "0000000000000000000000000000000000000000000000000000007300730073",
  "nTx": 1,
  "previousblockhash": "00000000019176838de40606d70738084f2fbc48a50548eeeac3ceb857677c6d",
  "nextblockhash": "000000002c49a539fd73c253dbcd8afaa392bb36e02863bcca3e84456e05aec8",
  "strippedsize": 216,
  "size": 216,
  "weight": 864,
  "tx": [
    {
      "txid": "ca7b0295546806c9b6631f8bc89ed0b55434ee5f8ce6198a918af18c6da9237c",
      "hash": "ca7b0295546806c9b6631f8bc89ed0b55434ee5f8ce6198a918af18c6da9237c",
      "version": 1,
      "size": 135,
      "vsize": 135,
      "weight": 540,
      "locktime": 0,
      "vin": [
        {
          "coinbase": "04ffff001d02ae00",
          "sequence": 4294967295
        }
      ],
      "vout": [
        {
          "value": 50.0,
          "n": 0,
          "scriptPubKey": {
            "asm": "04cd10ce592a9c4918948a5b4e92e9702e6c36eed1a627594f67066792b3a227cedba7be9df6e8117bee0499e243e4df90e13efdd8e14e1778e2247c0e16661057 OP_CHECKSIG",
            "desc": "pk(04cd10ce592a9c4918948a5b4e92e9702e6c36eed1a627594f67066792b3a227cedba7be9df6e8117bee0499e243e4df90e13efdd8e14e1778e2247c0e16661057)#z3urcape",
            "hex": "4104cd10ce592a9c4918948a5b4e92e9702e6c36eed1a627594f67066792b3a227cedba7be9df6e8117bee0499e243e4df90e13efdd8e14e1778e2247c0e16661057ac",
            "type": "pubkey"
          }
        }
      ],
      "hex": "01000000010000000000000000000000000000000000000000000000000000000000000000ffffffff0804ffff001d02ae00ffffffff0100f2052a01000000434104cd10ce592a9c4918948a5b4e92e9702e6c36eed1a627594f67066792b3a227cedba7be9df6e8117bee0499e243e4df90e13efdd8e14e1778e2247c0e16661057ac00000000"
    }
  ]
}