{
  "hash": "000000008e8f2115f9160f0cb721e2cd068423bba95ba74b50b9cbcd1f4a2fb6",
  "confirmations": 48736,
  "height": 4362,
  "version": 1,
  "versionHex": "00000001",
  "merkleroot": "97efc29a694f67808cf0f996488d183c565779cc3bb9b1f70a8f3c7ecb4d78f3",
  "time": 1234683908,
  "mediantime": 1234681655,
  "nonce": 20960833,
  "bits": "1d00ffff",
  "difficulty": 1,
  "chainwork": "0000000000000000000000000000000000000000000000000000110b110b110b",
  "nTx": 1,
  "previousblockhash": "00000000bbaff67d3365991da62579401419060002bf2c059431fbedd3939217",
  "nextblockhash": "00000000d84564d3ae642b0318b5488a780f0dd8e992ffdbe9ea76af78b934fc",
  "strippedsize": 216,
  "size": 216,
  "weight": 864,
  "tx": [
    {
      "txid": "97efc29a694f67808cf0f996488d183c565779cc3bb9b1f70a8f3c7ecb4d78f3",
      "hash": "97efc29a694f67808cf0f996488d183c565779cc3bb9b1f70a8f3c7ecb4d78f3",
      "version": 1,
      "size": 135,
      "vsize": 135,
      "weight": 540,
      "locktime": 0,
      "vin": [
        {
          "coinbase": "04ffff001d02c402",
          "sequence": 4294967295
        }
      ],
      "vout": [
        {
          "value": 50.0,
          "n": 0,
          "scriptPubKey": {
            "asm": "04ce665bb53d1d18f0dec85a8b127defc8da8ccf7fb2f9bf57f1419c23020c542234728b2690cbbeda9b872808297fff96047560c3e8cc496c6ab0b6aba636b878 OP_CHECKSIG",
            "desc": "pk(04ce665bb53d1d18f0dec85a8b127defc8da8ccf7fb2f9bf57f1419c23020c542234728b2690cbbeda9b872808297fff96047560c3e8cc496c6ab0b6aba636b878)#wnx36mwh",
            "hex": "4104ce665bb53d1d18f0dec85a8b127defc8da8ccf7fb2f9bf57f1419c23020c542234728b2690cbbeda9b872808297fff96047560c3e8cc496c6ab0b6aba636b878ac",
            "type": "pubkey"
          }
        }
      ],
      "hex": "01000000010000000000000000000000000000000000000000000000000000000000000000ffffffff0804ffff001d02c402ffffffff0100f2052a01000000434104ce665bb53d1d18f0dec85a8b127defc8da8ccf7fb2f9bf57f1419c23020c542234728b2690cbbeda9b872808297fff96047560c3e8cc496c6ab0b6aba636b878ac00000000"
    }
  ]
}