{
  "hash": "00000000a2558fe5bf9316e7c289ba6c1ea8b1a229add9d4ffa259c53b8b4185",
  "confirmations": 49680,
  "height": 3418,
  "version": 1,
  "versionHex": "00000001",
  "merkleroot": "4aa0a76c528713159b088f154b11ea7d09792d1c867dd9f9a3508355fe11cd3e",
  "time": 1234050608,
  "mediantime": 1234047166,
  "nonce": 18481666,
  "bits": "1d00ffff",
  "difficulty": 1,
  "chainwork": "00000000000000000000000000000000000000000000000000000d5b0d5b0d5b",
  "nTx": 1,
  "previousblockhash": "000000000e05727f996038fa8b7d8b5826d567c90df934f383c29cb8d9dd5d8f",
  "nextblockhash": "000000006c144faa0127522b218d07d0f6d8918fa39e327540e124d45ccefa0c",
  "strippedsize": 215,
  "size": 215,
  "weight": 860,
  "tx": [
    {
      "txid": "4aa0a76c528713159b088f154b11ea7d09792d1c867dd9f9a3508355fe11cd3e",
      "hash": "4aa0a76c528713159b088f154b11ea7d09792d1c867dd9f9a3508355fe11cd3e",
      "version": 1,
      "size": 134,
      "vsize": 134,
      "weight": 536,
      "locktime": 0,
      "vin": [
        {
          "coinbase": "04ffff001d016e",
          "sequence": 4294967295
        }
      ],
      "vout": [
        {
          "value": 50.0,
          "n": 0,
          "scriptPubKey": {
            "asm": "04d3a23ab6bb0a2b11fc482d11329e8bc21247e150dd801e4d9bac8065d6b58bd069a212917dda322521dd789078b720741c5be55afe61c7f0a0b12b7697d337b0 OP_CHECKSIG",
            "desc": "pk(04d3a23ab6bb0a2b11fc482d11329e8bc21247e150dd801e4d9bac8065d6b58bd069a212917dda322521dd789078b720741c5be55afe61c7f0a0b12b7697d337b0)#u6qhd4u9",
            "hex": "4104d3a23ab6bb0a2b11fc482d11329e8bc21247e150dd801e4d9bac8065d6b58bd069a212917dda322521dd789078b720741c5be55afe61c7f0a0b12b7697d337b0ac",
            "type": "pubkey"
          }
        }
      ],
      "hex": "01000000010000000000000000000000000000000000000000000000000000000000000000ffffffff0704ffff001d016effffffff0100f2052a01000000434104d3a23ab6bb0a2b11fc482d11329e8bc21247e150dd801e4d9bac8065d6b58bd069a212917dda322521dd789078b720741c5be55afe61c7f0a0b12b7697d337b0ac00000000"
    }
  ]
}