{
  "hash": "0000000050feb633e9a51d6720ec2a056632d5e05a36b6f66b651ce0b8a445d5",
  "confirmations": 43333,
  "height": 9765,
  "version": 1,
  "versionHex": "00000001",
  "merkleroot": "7ddb50fe4ff8b7722d94e513b2c34e3de8e502469547c88b6a920a7ec5f563ab",
  "time": 1238830317,
  "mediantime": 1238824592,
  "nonce": 3916840963,
  "bits": "1d00ffff",
  "difficulty": 1,
  "chainwork": "0000000000000000000000000000000000000000000000000000262626262626",
  "nTx": 1,
  "previousblockhash": "000000000c1d42bcd697373daa90bbdd622557c57d315edb8adf930d76770cda",
  "nextblockhash": "000000007619e5cedd018cf6e66990df5bf1326813e5ea15905e15033fe6e8b9",
  "strippedsize": 216,
  "size": 216,
  "weight": 864,
  "tx": [
    {
      "txid": "7ddb50fe4ff8b7722d94e513b2c34e3de8e502469547c88b6a920a7ec5f563ab",
      "hash": "7ddb50fe4ff8b7722d94e513b2c34e3de8e502469547c88b6a920a7ec5f563ab",
      "version": 1,
      "size": 135,
      "vsize": 135,
      "weight": 540,
      "locktime": 0,
      "vin": [
        {
          "coinbase": "04ffff001d020d0a",
          "sequence": 4294967295
        }
      ],
      "vout": [
        {
          "value": 50.0,
          "n": 0,
          "scriptPubKey": {
            "asm": "044012505545e5e1ffbf49ad1e7fa77dd74d2f09eb2a3c96b9247a72dfb78e86168aa8ea0290b575c1c57f5b70d0ec5ead1c38400a4404fb41c7e48fc40c7b97e5 OP_CHECKSIG",
            "desc": "pk(044012505545e5e1ffbf49ad1e7fa77dd74d2f09eb2a3c96b9247a72dfb78e86168aa8ea0290b575c1c57f5b70d0ec5ead1c38400a4404fb41c7e48fc40c7b97e5)#0hfhhs6k",
            "hex": "41044012505545e5e1ffbf49ad1e7fa77dd74d2f09eb2a3c96b9247a72dfb78e86168aa8ea0290b575c1c57f5b70d0ec5ead1c38400a4404fb41c7e48fc40c7b97e5ac",
            "type": "pubkey"
          }
        }
      ],
      "hex": "01000000010000000000000000000000000000000000000000000000000000000000000000ffffffff0804ffff001d020d0affffffff0100f2052a010000004341044012505545e5e1ffbf49ad1e7fa77dd74d2f09eb2a3c96b9247a72dfb78e86168aa8ea0290b575c1c57f5b70d0ec5ead1c38400a4404fb41c7e48fc40c7b97e5ac00000000"
    }
  ]
}