{
  "hash": "00000000703049cdf8677b655afc88c370a89788f39a5c76a0489af5d3b8477e",
  "confirmations": 52219,
  "height": 879,
  "version": 1,
  "versionHex": "00000001",
  "merkleroot": "d7969ac76bbf667dec3a3989febffd8ecddeb706b6554dc37aeb88e9611b16c2",
  "time": 1232257224,
  "mediantime": 1232252254,
  "nonce": 292183603,
  "bits": "1d00ffff",
  "difficulty": 1,
  "chainwork": "0000000000000000000000000000000000000000000000000000037003700370",
  "nTx": 1,
  "previousblockhash": "00000000ee13abb6a7b843cd46d0a5318e27139585832922a4a2dd16096eca50",
  "nextblockhash": "00000000722571752a29b6e318a450d1b09181b51ca3ff498ba52d8dfcb82f19",
  "strippedsize": 216,
  "size": 216,
  "weight": 864,
  "tx": [
    {
      "txid": "d7969ac76bbf667dec3a3989febffd8ecddeb706b6554dc37aeb88e9611b16c2",
      "hash": "d7969ac76bbf667dec3a3989febffd8ecddeb706b6554dc37aeb88e9611b16c2",
      "version": 1,
      "size": 135,
      "vsize": 135,
      "weight": 540,
      "locktime": 0,
      "vin": [
        {
          "coinbase": "04ffff001d023103",
          "sequence": 4294967295
        }
      ],
      "vout": [
        {
          "value": 50.0,
          "n": 0,
          "scriptPubKey": {
            "asm": "048ece7dcea690bf5d1209ba2796c729c41a6836c79578ffc58a399ee502457ce37d9978c6025ab96a1ee2d3dcb5ae133fae272ebbc60aa9d4c1c7be7cbb2bbda5 OP_CHECKSIG",
            "desc": "pk(048ece7dcea690bf5d1209ba2796c729c41a6836c79578ffc58a399ee502457ce37d9978c6025ab96a1ee2d3dcb5ae133fae272ebbc60aa9d4c1c7be7cbb2bbda5)#lqqeg26p",
            "hex": "41048ece7dcea690bf5d1209ba2796c729c41a6836c79578ffc58a399ee502457ce37d9978c6025ab96a1ee2d3dcb5ae133fae272ebbc60aa9d4c1c7be7cbb2bbda5ac",
            "type": "pubkey"
          }
        }
      ],
      "hex": "01000000010000000000000000000000000000000000000000000000000000000000000000ffffffff0804ffff001d023103ffffffff0100f2052a010000004341048ece7dcea690bf5d1209ba2796c729c41a6836c79578ffc58a399ee502457ce37d9978c6025ab96a1ee2d3dcb5ae133fae272ebbc60aa9d4c1c7be7cbb2bbda5ac00000000"
    }
  ]
}