{
  "hash": "00000000a45e19b32d9e615ee47c821ccf3bb0b9fa9a8a6a82a9620603390ce5",
  "confirmations": 45221,
  "height": 7877,
  "version": 1,
  "versionHex": "00000001",
  "merkleroot": "c6667be01d99a318c2cd759f1f3a65dbda42b44b8626150c5fd4b7619fc8d843",
  "time": 1237375553,
  "mediantime": 1237369759,
  "nonce": 226709093,
  "bits": "1d00ffff",
  "difficulty": 1,
  "chainwork": "00000000000000000000000000000000000000000000000000001ec61ec61ec6",
  "nTx": 1,
  "previousblockhash": "0000000026e4bbcf491b1bbf1778ca07bcf144c5836642b42bcd2c5db563f3b1",
  "nextblockhash": "00000000f2712c08fbe207228ca0c84887fa3ad29a92a526d09200a526542e69",
  "strippedsize": 216,
  "size": 216,
  "weight": 864,
  "tx": [
    {
      "txid": "c6667be01d99a318c2cd759f1f3a65dbda42b44b8626150c5fd4b7619fc8d843",
      "hash": "c6667be01d99a318c2cd759f1f3a65dbda42b44b8626150c5fd4b7619fc8d843",
      "version": 1,
      "size": 135,
      "vsize": 135,
      "weight": 540,
      "locktime": 0,
      "vin": [
        {
          "coinbase": "04ffff001d02d400",
          "sequence": 4294967295
        }
      ],
      "vout": [
        {
          "value": 50.0,
          "n": 0,
          "scriptPubKey": {
            "asm": "04a8dcb9fa0d5275cdf09989dfe4c56121404e052cd917ed48e718a231903c303fea642eb938736610d691471abf025b5627866814da6b332f22c16e5c17745ba3 OP_CHECKSIG",
            "desc": "pk(04a8dcb9fa0d5275cdf09989dfe4c56121404e052cd917ed48e718a231903c303fea642eb938736610d691471abf025b5627866814da6b332f22c16e5c17745ba3)#vxa2r46n",
            "hex": "4104a8dcb9fa0d5275cdf09989dfe4c56121404e052cd917ed48e718a231903c303fea642eb938736610d691471abf025b5627866814da6b332f22c16e5c17745ba3ac",
            "type": "pubkey"
          }
        }
      ],
      "hex": "01000000010000000000000000000000000000000000000000000000000000000000000000ffffffff0804ffff001d02d400ffffffff0100f2052a01000000434104a8dcb9fa0d5275cdf09989dfe4c56121404e052cd917ed48e718a231903c303fea642eb938736610d691471abf025b5627866814da6b332f22c16e5c17745ba3ac00000000"
    }
  ]
}