{
  "hash": "000000003f315849a6af7f1b3d056f8c554c5e0c687dae7b7134fabb7f35d201",
  "confirmations": 52183,
  "height": 446,
  "version": 1,
  "versionHex": "00000001",
  "merkleroot": "d56c79e679b225cbcccdda810c704ddb45d3a956c0ebe2ac318d7954c5f4c24e",
  "time": 1231932921,
  "mediantime": 1231929745,
  "nonce": 2135683618,
  "bits": "1d00ffff",
  "difficulty": 1,
  "chainwork": "000000000000000000000000000000000000000000000000000001bf01bf01bf",
  "nTx": 1,
  "previousblockhash": "00000000cc07f5ed1508f93332c84f983e429e53ce2391792d114578500df442",
  "nextblockhash": "00000000e1798bc5da65746383737a855f94dd9cc73edd26eb4ec0dc3fe8d505",
  "strippedsize": 216,
  "size": 216,
  "weight": 864,
  "tx": [
    {
      "txid": "d56c79e679b225cbcccdda810c704ddb45d3a956c0ebe2ac318d7954c5f4c24e",
      "hash": "d56c79e679b225cbcccdda810c704ddb45d3a956c0ebe2ac318d7954c5f4c24e",
      "version": 1,
      "size": 135,
      "vsize": 135,
      "weight": 540,
      "locktime": 0,
      "vin": [
        {
          "coinbase": "04ffff001d028903",
          "sequence": 4294967295
        }
      ],
      "vout": [
        {
          "value": 50.0,
          "n": 0,
          "scriptPubKey": {
            "asm": "04178e68b047b016b058a48aaa41385a1023acc14099b8f6604acdcb9778733546ecdf3f5e895534bb610e0d2bbb0a6000cb515c5acd8314e29e54d67a49abe70c OP_CHECKSIG",
            "desc": "pk(04178e68b047b016b058a48aaa41385a1023acc14099b8f6604acdcb9778733546ecdf3f5e895534bb610e0d2bbb0a6000cb515c5acd8314e29e54d67a49abe70c)#99jl9nw3",
            "hex": "4104178e68b047b016b058a48aaa41385a1023acc14099b8f6604acdcb9778733546ecdf3f5e895534bb610e0d2bbb0a6000cb515c5acd8314e29e54d67a49abe70cac",
            "type": "pubkey"
          }
        }
      ],
      "hex": "01000000010000000000000000000000000000000000000000000000000000000000000000ffffffff0804ffff001d028903ffffffff0100f2052a01000000434104178e68b047b016b058a48aaa41385a1023acc14099b8f6604acdcb9778733546ecdf3f5e895534bb610e0d2bbb0a6000cb515c5acd8314e29e54d67a49abe70cac00000000"
    }
  ]
}