{
  "hash": "00000000e9666bdf76e2bbf2e3001ed4bb926cda54aaf2c72af365d21ba90490",
  "confirmations": 44809,
  "height": 8289,
  "version": 1,
  "versionHex": "00000001",
  "merkleroot": "e48c40286daa0cf30aafe643e498f03c2794465d8d6e8dc8bce2f67eab87394b",
  "time": 1237724072,
  "mediantime": 1237721645,
  "nonce": 587494704,
  "bits": "1d00ffff",
  "difficulty": 1,
  "chainwork": "0000000000000000000000000000000000000000000000000000206220622062",
  "nTx": 1,
  "previousblockhash": "00000000d973bc6a279b81b6da4d8fdbfd4242312181f4c094c420d3ac8c6a48",
  "nextblockhash": "00000000caa0e60be223d5b7cfe335d6742ddb3f4006a2cb5a81d02e2d2884de",
  "strippedsize": 216,
  "size": 216,
  "weight": 864,
  "tx": [
    {
      "txid": "e48c40286daa0cf30aafe643e498f03c2794465d8d6e8dc8bce2f67eab87394b",
      "hash": "e48c40286daa0cf30aafe643e498f03c2794465d8d6e8dc8bce2f67eab87394b",
      "version": 1,
      "size": 135,
      "vsize": 135,
      "weight": 540,
      "locktime": 0,
      "vin": [
        {
          "coinbase": "04ffff001d020404",
          "sequence": 4294967295
        }
      ],
      "vout": [
        {
          "value": 50.0,
          "n": 0,
          "scriptPubKey": {
            "asm": "0448b3733785264db58e0b52cfa4e795fd8d3cbe03ef9deec3d92ce25bb45d71eeeee55189d0614415671f090ac9a495cb710f253aaebc93b2b15851d2c8b213c3 OP_CHECKSIG",
            "desc": "pk(0448b3733785264db58e0b52cfa4e795fd8d3cbe03ef9deec3d92ce25bb45d71eeeee55189d0614415671f090ac9a495cb710f253aaebc93b2b15851d2c8b213c3)#k6788pjr",
            "hex": "410448b3733785264db58e0b52cfa4e795fd8d3cbe03ef9deec3d92ce25bb45d71eeeee55189d0614415671f090ac9a495cb710f253aaebc93b2b15851d2c8b213c3ac",
            "type": "pubkey"
          }
        }
      ],
      "hex": "01000000010000000000000000000000000000000000000000000000000000000000000000ffffffff0804ffff001d020404ffffffff0100f2052a0100000043410448b3733785264db58e0b52cfa4e795fd8d3cbe03ef9deec3d92ce25bb45d71eeeee55189d0614415671f090ac9a495cb710f253aaebc93b2b15851d2c8b213c3ac00000000"
    }
  ]
}