{
  "hash": "000000000a7ae7a132acdd5a3f29570d100a2685140d3ae0d08ce62d5a810faa",
  "confirmations": 47927,
  "height": 5171,
  "version": 1,
  "versionHex": "00000001",
  "merkleroot": "9cc9d37c6b85012055f13447d0678d8d88ad528e4f22a8f36738abbcb8505192",
  "time": 1235267013,
  "mediantime": 1235262568,
  "nonce": 42465685,
  "bits": "1d00ffff",
  "difficulty": 1,
  "chainwork": "0000000000000000000000000000000000000000000000000000143414341434",
  "nTx": 1,
  "previousblockhash": "0000000064ddf1743e850fe5a7ae1f7be47288855b373dc0d1f745fb5d3328ae",
  "nextblockhash": "00000000b65437c5b0e4a650609fcd24fc5233789e8913616fdfbd947ee92875",
  "strippedsize": 215,
  "size": 215,
  "weight": 860,
  "tx": [
    {
      "txid": "9cc9d37c6b85012055f13447d0678d8d88ad528e4f22a8f36738abbcb8505192",
      "hash": "9cc9d37c6b85012055f13447d0678d8d88ad528e4f22a8f36738abbcb8505192",
      "version": 1,
      "size": 134,
      "vsize": 134,
      "weight": 536,
      "locktime": 0,
      "vin": [
        {
          "coinbase": "04ffff001d010f",
          "sequence": 4294967295
        }
      ],
      "vout": [
        {
          "value": 50.0,
          "n": 0,
          "scriptPubKey": {
            "asm": "04675f186dd434b15bbc4e1ab23cf0e3d26a277fda291c9068c1a1c84b04e5ef18c0ff1058623603dead4ff330cefc3bf55cb4951facb140ee700e71635b433d9f OP_CHECKSIG",
            "desc": "pk(04675f186dd434b15bbc4e1ab23cf0e3d26a277fda291c9068c1a1c84b04e5ef18c0ff1058623603dead4ff330cefc3bf55cb4951facb140ee700e71635b433d9f)#e9e9q8pr",
            "hex": "4104675f186dd434b15bbc4e1ab23cf0e3d26a277fda291c9068c1a1c84b04e5ef18c0ff1058623603dead4ff330cefc3bf55cb4951facb140ee700e71635b433d9fac",
            "type": "pubkey"
          }
        }
      ],
      "hex": "01000000010000000000000000000000000000000000000000000000000000000000000000ffffffff0704ffff001d010fffffffff0100f2052a01000000434104675f186dd434b15bbc4e1ab23cf0e3d26a277fda291c9068c1a1c84b04e5ef18c0ff1058623603dead4ff330cefc3bf55cb4951facb140ee700e71635b433d9fac00000000"
    }
  ]
}