{
  "hash": "00000000b17315fca0d8b3f8229e49aae2912e9d5de1f94b772f1412e932a4a0",
  "confirmations": 46515,
  "height": 6583,
  "version": 1,
  "versionHex": "00000001",
  "merkleroot": "d1c3b26c9a9b02ba8319149ffa7e89648f3eadfcaad79a4cd83d01e3ae3d7158",
  "time": 1236390715,
  "mediantime": 1236386225,
  "nonce": 3802246445,
  "bits": "1d00ffff",
  "difficulty": 1,
  "chainwork": "000000000000000000000000000000000000000000000000000019b819b819b8",
  "nTx": 1,
  "previousblockhash": "000000007fc54ccef03a1386155e5fd10229a80d592bd6b299064d1572635378",
  "nextblockhash": "0000000053bdb21d6c70a969c058e3bf30405bad6eb9d7f95ef88bc265a61741",
  "strippedsize": 216,
  "size": 216,
  "weight": 864,
  "tx": [
    {
      "txid": "d1c3b26c9a9b02ba8319149ffa7e89648f3eadfcaad79a4cd83d01e3ae3d7158",
      "hash": "d1c3b26c9a9b02ba8319149ffa7e89648f3eadfcaad79a4cd83d01e3ae3d7158",
      "version": 1,
      "size": 135,
      "vsize": 135,
      "weight": 540,
      "locktime": 0,
      "vin": [
        {
          "coinbase": "04ffff001d02d504",
          "sequence": 4294967295
        }
      ],
      "vout": [
        {
          "value": 50.0,
          "n": 0,
          "scriptPubKey": {
            "asm": "042f76a0543b2baf8421a97ef90831409c51c4855851d31983e210b47fddb37a5c152543f15e4cdc53dd73886d9c2427321a34fedfa7ff76b95f66241b79719c3d OP_CHECKSIG",
            "desc": "pk(042f76a0543b2baf8421a97ef90831409c51c4855851d31983e210b47fddb37a5c152543f15e4cdc53dd73886d9c2427321a34fedfa7ff76b95f66241b79719c3d)#w4m73ndr",
            "hex": "41042f76a0543b2baf8421a97ef90831409c51c4855851d31983e210b47fddb37a5c152543f15e4cdc53dd73886d9c2427321a34fedfa7ff76b95f66241b79719c3dac",
            "type": "pubkey"
          }
        }
      ],
      "hex": "01000000010000000000000000000000000000000000000000000000000000000000000000ffffffff0804ffff001d02d504ffffffff0100f2052a010000004341042f76a0543b2baf8421a97ef90831409c51c4855851d31983e210b47fddb37a5c152543f15e4cdc53dd73886d9c2427321a34fedfa7ff76b95f66241b79719c3dac00000000"
    }
  ]
}