{
  "hash": "000000005009c3864ca16b54b61d09c914ac312e260de44776811287f41ffab2",
  "confirmations": 52177,
  "height": 452,
  "version": 1,
  "versionHex": "00000001",
  "merkleroot": "59bb9a65d1d533803837721e8a028470c3094d0ccdbcd9697af2eb855a1cc183",
  "time": 1231937405,
  "mediantime": 1231933666,
  "nonce": 1558600739,
  "bits": "1d00ffff",
  "difficulty": 1,
  "chainwork": "000000000000000000000000000000000000000000000000000001c501c501c5",
  "nTx": 1,
  "previousblockhash": "00000000816d44ea23b86ccf0b98736ee06d66e2af72f0f542976f0a92bcea98",
  "nextblockhash": "000000003eadc8cf26a2fb8e9c563ade586e31c608b6bcdde50327c694d6f714",
  "strippedsize": 216,
  "size": 216,
  "weight": 864,
  "tx": [
    {
      "txid": "59bb9a65d1d533803837721e8a028470c3094d0ccdbcd9697af2eb855a1cc183",
      "hash": "59bb9a65d1d533803837721e8a028470c3094d0ccdbcd9697af2eb855a1cc183",
      "version": 1,
      "size": 135,
      "vsize": 135,
      "weight": 540,
      "locktime": 0,
      "vin": [
        {
          "coinbase": "04ffff001d02b403",
          "sequence": 4294967295
        }
      ],
      "vout": [
        {
          "value": 50.0,
          "n": 0,
          "scriptPubKey": {
            "asm": "04202e227a4efbb9f476ed26fd44182534930d522900b52ae24617925febd2dd5e7be54bf4948008e297156020cafc4d05c56ff51912fe3ec4e487399f60f99e59 OP_CHECKSIG",
            "desc": "pk(04202e227a4efbb9f476ed26fd44182534930d522900b52ae24617925febd2dd5e7be54bf4948008e297156020cafc4d05c56ff51912fe3ec4e487399f60f99e59)#wt6m5uh4",
            "hex": "4104202e227a4efbb9f476ed26fd44182534930d522900b52ae24617925febd2dd5e7be54bf4948008e297156020cafc4d05c56ff51912fe3ec4e487399f60f99e59ac",
            "type": "pubkey"
          }
        }
      ],
      "hex": "01000000010000000000000000000000000000000000000000000000000000000000000000ffffffff0804ffff001d02b403ffffffff0100f2052a01000000434104202e227a4efbb9f476ed26fd44182534930d522900b52ae24617925febd2dd5e7be54bf4948008e297156020cafc4d05c56ff51912fe3ec4e487399f60f99e59ac00000000"
    }
  ]
}