{
  "hash": "00000000ed7ccf7b89a2f3fc7eac955412ba92f29f1a3f7fa336e05be728724e",
  "confirmations": 52122,
  "height": 976,
  "version": 1,
  "versionHex": "00000001",
  "merkleroot": "a3fa9a291400544650f612fae54945d47427f1277f087d1a616a342e88c141bb",
  "time": 1232331030,
  "mediantime": 1232327230,
  "nonce": 872297248,
  "bits": "1d00ffff",
  "difficulty": 1,
  "chainwork": "000000000000000000000000000000000000000000000000000003d103d103d1",
  "nTx": 1,
  "previousblockhash": "00000000d67ac3dab052ac69301316b73678703e719ce3757e31e5b92444e64c",
  "nextblockhash": "0000000070cf8785d9d0366ae6c926a53ed9be82701455f8c96fbd5a4ea149d5",
  "strippedsize": 216,
  "size": 216,
  "weight": 864,
  "tx": [
    {
      "txid": "a3fa9a291400544650f612fae54945d47427f1277f087d1a616a342e88c141bb",
      "hash": "a3fa9a291400544650f612fae54945d47427f1277f087d1a616a342e88c141bb",
      "version": 1,
      "size": 135,
      "vsize": 135,
      "weight": 540,
      "locktime": 0,
      "vin": [
        {
          "coinbase": "04ffff001d02ca04",
          "sequence": 4294967295
        }
      ],
      "vout": [
        {
          "value": 50.0,
          "n": 0,
          "scriptPubKey": {
            "asm": "04efbd5128c3dc3689c22e122e7856660f948e99d517390f4ec6c9b5bb9476bab8ce5cd418c3093990a5dad6cac4f521bc0a122aca81686c5786b787ecdab49793 OP_CHECKSIG",
            "desc": "pk(04efbd5128c3dc3689c22e122e7856660f948e99d517390f4ec6c9b5bb9476bab8ce5cd418c3093990a5dad6cac4f521bc0a122aca81686c5786b787ecdab49793)#sgmqpa07",
            "hex": "4104efbd5128c3dc3689c22e122e7856660f948e99d517390f4ec6c9b5bb9476bab8ce5cd418c3093990a5dad6cac4f521bc0a122aca81686c5786b787ecdab49793ac",
            "type": "pubkey"
          }
        }
      ],
      "hex": "01000000010000000000000000000000000000000000000000000000000000000000000000ffffffff0804ffff001d02ca04ffffffff0100f2052a01000000434104efbd5128c3dc3689c22e122e7856660f948e99d517390f4ec6c9b5bb9476bab8ce5cd418c3093990a5dad6cac4f521bc0a122aca81686c5786b787ecdab49793ac00000000"
    }
  ]
}