{
  "hash": "00000000bb4c9b10dc931eaf84e700b355db0a53c38c92113776b6e8ca40a053",
  "confirmations": 47084,
  "height": 6014,
  "version": 1,
  "versionHex": "00000001",
  "merkleroot": "68dfdec1dcadb09a2de480078b31b3a7da00d305ab1bf9b14ac6de9fe55e7f48",
  "time": 1235937810,
  "mediantime": 1235932177,
  "nonce": 3242966536,
  "bits": "1d00ffff",
  "difficulty": 1,
  "chainwork": "0000000000000000000000000000000000000000000000000000177f177f177f",
  "nTx": 1,
  "previousblockhash": "000000007755eb823c04747e00e18de3c3e586208f2a1915f41aac57c9fb84f7",
  "nextblockhash": "00000000d21f73b2c345ef705b54644a685eb7cac9e4d0a5fdea8ce4fdb287cd",
  "strippedsize": 216,
  "size": 216,
  "weight": 864,
  "tx": [
    {
      "txid": "68dfdec1dcadb09a2de480078b31b3a7da00d305ab1bf9b14ac6de9fe55e7f48",
      "hash": "68dfdec1dcadb09a2de480078b31b3a7da00d305ab1bf9b14ac6de9fe55e7f48",
      "version": 1,
      "size": 135,
      "vsize": 135,
      "weight": 540,
      "locktime": 0,
      "vin": [
        {
          "coinbase": "04ffff001d022d05",
          "sequence": 4294967295
        }
      ],
      "vout": [
        {
          "value": 50.0,
          "n": 0,
          "scriptPubKey": {
            "asm": "043c1e52d3471d49fb88711336169626efc7c0ec30b8239677618075620fd4e9048095ced3f38b7281591cc8ef285da55edad6e0cdd44f873622dd7e22fa0b6010 OP_CHECKSIG",
            "desc": "pk(043c1e52d3471d49fb88711336169626efc7c0ec30b8239677618075620fd4e9048095ced3f38b7281591cc8ef285da55edad6e0cdd44f873622dd7e22fa0b6010)#7h44f8v4",
            "hex": "41043c1e52d3471d49fb88711336169626efc7c0ec30b8239677618075620fd4e9048095ced3f38b7281591cc8ef285da55edad6e0cdd44f873622dd7e22fa0b6010ac",
            "type": "pubkey"
          }
        }
      ],
      "hex": "01000000010000000000000000000000000000000000000000000000000000000000000000ffffffff0804ffff001d022d05ffffffff0100f2052a010000004341043c1e52d3471d49fb88711336169626efc7c0ec30b8239677618075620fd4e9048095ced3f38b7281591cc8ef285da55edad6e0cdd44f873622dd7e22fa0b6010ac00000000"
    }
  ]
}