{
  "hash": "00000000ecc3ba4a80a6d61ea3abc22a8fddf11d1f8019b7fbbde92e2b4dd4a8",
  "confirmations": 52523,
  "height": 575,
  "version": 1,
  "versionHex": "00000001",
  "merkleroot": "7932cefd406d0ea2b4f5168527cd412a7fa3d5650a4c6e7316731a8fbca7a790",
  "time": 1232020171,
  "mediantime": 1232016648,
  "nonce": 194515029,
  "bits": "1d00ffff",
  "difficulty": 1,
  "chainwork": "0000000000000000000000000000000000000000000000000000024002400240",
  "nTx": 1,
  "previousblockhash": "000000005cd735eccf4aefbc7427efee70ee4adc886be67cc68f6f925c9c7e41",
  "nextblockhash": "000000002436274e351576ee5c9d6a96ce64072d02713d20c32c36bf70f9fbb5",
  "strippedsize": 216,
  "size": 216,
  "weight": 864,
  "tx": [
    {
      "txid": "7932cefd406d0ea2b4f5168527cd412a7fa3d5650a4c6e7316731a8fbca7a790",
      "hash": "7932cefd406d0ea2b4f5168527cd412a7fa3d5650a4c6e7316731a8fbca7a790",
      "version": 1,
      "size": 135,
      "vsize": 135,
      "weight": 540,
      "locktime": 0,
      "vin": [
        {
          "coinbase": "04ffff001d023401",
          "sequence": 4294967295
        }
      ],
      "vout": [
        {
          "value": 50.0,
          "n": 0,
          "scriptPubKey": {
            "asm": "041ae541132847b51afce169fd69e0a80232df1743f0509199b94de9917ac333f0b946e1152db373069fb4e22bc48fcb08616ba32e1311d64725d84a5bf486414e OP_CHECKSIG",
            "desc": "pk(041ae541132847b51afce169fd69e0a80232df1743f0509199b94de9917ac333f0b946e1152db373069fb4e22bc48fcb08616ba32e1311d64725d84a5bf486414e)#gw0ywkmr",
            "hex": "41041ae541132847b51afce169fd69e0a80232df1743f0509199b94de9917ac333f0b946e1152db373069fb4e22bc48fcb08616ba32e1311d64725d84a5bf486414eac",
            "type": "pubkey"
          }
        }
      ],
      "hex": "01000000010000000000000000000000000000000000000000000000000000000000000000ffffffff0804ffff001d023401ffffffff0100f2052a010000004341041ae541132847b51afce169fd69e0a80232df1743f0509199b94de9917ac333f0b946e1152db373069fb4e22bc48fcb08616ba32e1311d64725d84a5bf486414eac00000000"
    }
  ]
}