{
  "hash": "00000000a1987ee5fea1bae12454b15dc47546d2f15e95223983c9b4c3a822de",
  "confirmations": 52064,
  "height": 1034,
  "version": 1,
  "versionHex": "00000001",
  "merkleroot": "db8bd3fc1f6acf81628ad26b8aaf69ff54d48f496cde0205c4b351c88a5d9727",
  "time": 1232373619,
  "mediantime": 1232369217,
  "nonce": 3747872560,
  "bits": "1d00ffff",
  "difficulty": 1,
  "chainwork": "0000000000000000000000000000000000000000000000000000040b040b040b",
  "nTx": 1,
  "previousblockhash": "00000000223bbe66d010f869ffdd9a50b7ecc5e952dcf496fd8824c386cdd30a",
  "nextblockhash": "00000000bc0c29229324b6b2d483ce7da1c9adbd406cbcf5aeb8824c0b5fef7c",
  "strippedsize": 216,
  "size": 216,
  "weight": 864,
  "tx": [
    {
      "txid": "db8bd3fc1f6acf81628ad26b8aaf69ff54d48f496cde0205c4b351c88a5d9727",
      "hash": "db8bd3fc1f6acf81628ad26b8aaf69ff54d48f496cde0205c4b351c88a5d9727",
      "version": 1,
      "size": 135,
      "vsize": 135,
      "weight": 540,
      "locktime": 0,
      "vin": [
        {
          "coinbase": "04ffff001d02b105",
          "sequence": 4294967295
        }
      ],
      "vout": [
        {
          "value": 50.0,
          "n": 0,
          "scriptPubKey": {
            "asm": "04a44254cc40f516034be7f1bce7f4e27f0a31a4c9143453ae9e7e0cc0ec1c6ad865adc2c75762722bba88b90c8b42572c031084e034903548589dd14a8412f2fd OP_CHECKSIG",
            "desc": "pk(04a44254cc40f516034be7f1bce7f4e27f0a31a4c9143453ae9e7e0cc0ec1c6ad865adc2c75762722bba88b90c8b42572c031084e034903548589dd14a8412f2fd)#4exnmng6",
            "hex": "4104a44254cc40f516034be7f1bce7f4e27f0a31a4c9143453ae9e7e0cc0ec1c6ad865adc2c75762722bba88b90c8b42572c031084e034903548589dd14a8412f2fdac",
            "type": "pubkey"
          }
        }
      ],
      "hex": "01000000010000000000000000000000000000000000000000000000000000000000000000ffffffff0804ffff001d02b105ffffffff0100f2052a01000000434104a44254cc40f516034be7f1bce7f4e27f0a31a4c9143453ae9e7e0cc0ec1c6ad865adc2c75762722bba88b90c8b42572c031084e034903548589dd14a8412f2fdac00000000"
    }
  ]
}