{
  "hash": "00000000586c6c91ae629eb7333c295da0fa4d980f1b7340e0c4a0b4a250326a",
  "confirmations": 50224,
  "height": 2874,
  "version": 1,
  "versionHex": "00000001",
  "merkleroot": "4dc71f5541af53e2341d393a62b40487dd6811d414ac649f9a6e6ef915507ed4",
  "time": 1233673827,
  "mediantime": 1233671315,
  "nonce": 2577105154,
  "bits": "1d00ffff",
  "difficulty": 1,
  "chainwork": "00000000000000000000000000000000000000000000000000000b3b0b3b0b3b",
  "nTx": 1,
  "previousblockhash": "00000000c9d078a1c9b44c8a052a6fc7b2cecc3d290c8133289a6edee1340e74",
  "nextblockhash": "00000000b755e7fa6b511a6f89d7c1748cfd4bcf98724b95d7ebda8add953975",
  "strippedsize": 216,
  "size": 216,
  "weight": 864,
  "tx": [
    {
      "txid": "4dc71f5541af53e2341d393a62b40487dd6811d414ac649f9a6e6ef915507ed4",
      "hash": "4dc71f5541af53e2341d393a62b40487dd6811d414ac649f9a6e6ef915507ed4",
      "version": 1,
      "size": 135,
      "vsize": 135,
      "weight": 540,
      "locktime": 0,
      "vin": [
        {
          "coinbase": "04ffff001d020607",
          "sequence": 4294967295
        }
      ],
      "vout": [
        {
          "value": 50.0,
          "n": 0,
          "scriptPubKey": {
            "asm": "043d7525e852fc276c93799ed59b3959d612ffd5c8abcd1a9fb7b873207b8f239e6ab9818b311b5fa6c4e7801604da1e44a9c31714e1dee5e0acc69bec3d3cad9a OP_CHECKSIG",
            "desc": "pk(043d7525e852fc276c93799ed59b3959d612ffd5c8abcd1a9fb7b873207b8f239e6ab9818b311b5fa6c4e7801604da1e44a9c31714e1dee5e0acc69bec3d3cad9a)#a0an92ad",
            "hex": "41043d7525e852fc276c93799ed59b3959d612ffd5c8abcd1a9fb7b873207b8f239e6ab9818b311b5fa6c4e7801604da1e44a9c31714e1dee5e0acc69bec3d3cad9aac",
            "type": "pubkey"
          }
        }
      ],
      "hex": "01000000010000000000000000000000000000000000000000000000000000000000000000ffffffff0804ffff001d020607ffffffff0100f2052a010000004341043d7525e852fc276c93799ed59b3959d612ffd5c8abcd1a9fb7b873207b8f239e6ab9818b311b5fa6c4e7801604da1e44a9c31714e1dee5e0acc69bec3d3cad9aac00000000"
    }
  ]
}