{
  "hash": "00000000fa07bb9eca2ba3e614471ed6cec04fb1e3d5d4c8ba6b90587a8ed7ab",
  "confirmations": 45987,
  "height": 7111,
  "version": 1,
  "versionHex": "00000001",
  "merkleroot": "a3ad8da4ab63a2b9409f8d8131b320940655aad4092ff824dc128307fc962aa3",
  "time": 1236806079,
  "mediantime": 1236801772,
  "nonce": 2276753692,
  "bits": "1d00ffff",
  "difficulty": 1,
  "chainwork": "00000000000000000000000000000000000000000000000000001bc81bc81bc8",
  "nTx": 1,
  "previousblockhash": "00000000c19cb1fd730769e13f243bab5338163c044e5067e5b2a10e61159655",
  "nextblockhash": "00000000127c54aaa91faa3c9a2b9d9c2526936703122b5b6fd38d2ef21735bf",
  "strippedsize": 216,
  "size": 216,
  "weight": 864,
  "tx": [
    {
      "txid": "a3ad8da4ab63a2b9409f8d8131b320940655aad4092ff824dc128307fc962aa3",
      "hash": "a3ad8da4ab63a2b9409f8d8131b320940655aad4092ff824dc128307fc962aa3",
      "version": 1,
      "size": 135,
      "vsize": 135,
      "weight": 540,
      "locktime": 0,
      "vin": [
        {
          "coinbase": "04ffff001d022904",
          "sequence": 4294967295
        }
      ],
      "vout": [
        {
          "value": 50.0,
          "n": 0,
          "scriptPubKey": {
            "asm": "041b77475c2b1e590b1dc49d12dab357ebb140b152edec4d35ec1fd35dd2e3cad14de253031f2d08f5a50925209312e5ce2a7f5c0a8b7181007c30f91b6362aef4 OP_CHECKSIG",
            "desc": "pk(041b77475c2b1e590b1dc49d12dab357ebb140b152edec4d35ec1fd35dd2e3cad14de253031f2d08f5a50925209312e5ce2a7f5c0a8b7181007c30f91b6362aef4)#d92wzcrd",
            "hex": "41041b77475c2b1e590b1dc49d12dab357ebb140b152edec4d35ec1fd35dd2e3cad14de253031f2d08f5a50925209312e5ce2a7f5c0a8b7181007c30f91b6362aef4ac",
            "type": "pubkey"
          }
        }
      ],
      "hex": "01000000010000000000000000000000000000000000000000000000000000000000000000ffffffff0804ffff001d022904ffffffff0100f2052a010000004341041b77475c2b1e590b1dc49d12dab357ebb140b152edec4d35ec1fd35dd2e3cad14de253031f2d08f5a50925209312e5ce2a7f5c0a8b7181007c30f91b6362aef4ac00000000"
    }
  ]
}