{
  "hash": "00000000ce8c52b0de848862ffbb838d8f6786072cc2a52289cb75b9809e73f8",
  "confirmations": 51634,
  "height": 1464,
  "version": 1,
  "versionHex": "00000001",
  "merkleroot": "b3bc798b0690664fad6c65a147784a87e1ab3035d8cedfe620437332326b8ba7",
  "time": 1232752933,
  "mediantime": 1232750857,
  "nonce": 3127953960,
  "bits": "1d00ffff",
  "difficulty": 1,
  "chainwork": "000000000000000000000000000000000000000000000000000005b905b905b9",
  "nTx": 1,
  "previousblockhash": "0000000015243c91c068abb57207f19c67825df2fcee5ca28c6e78eb66901b8d",
  "nextblockhash": "00000000b7116161c85d3b8cbbc147f5fa841a6506a7da03e9173fb4c04deae4",
  "strippedsize": 216,
  "size": 216,
  "weight": 864,
  "tx": [
    {
      "txid": "b3bc798b0690664fad6c65a147784a87e1ab3035d8cedfe620437332326b8ba7",
      "hash": "b3bc798b0690664fad6c65a147784a87e1ab3035d8cedfe620437332326b8ba7",
      "version": 1,
      "size": 135,
      "vsize": 135,
      "weight": 540,
      "locktime": 0,
      "vin": [
        {
          "coinbase": "04ffff001d02bc00",
          "sequence": 4294967295
        }
      ],
      "vout": [
        {
          "value": 50.0,
          "n": 0,
          "scriptPubKey": {
            "asm": "04de7e15d66945e30c3bd55672d159f7acf7afc8027a408eb75e06b5cbb74b1a1d554defb656461d4a4c00601666302888b03397c345c7af59ac3fe1a8f7576f39 OP_CHECKSIG",
            "desc": "pk(04de7e15d66945e30c3bd55672d159f7acf7afc8027a408eb75e06b5cbb74b1a1d554defb656461d4a4c00601666302888b03397c345c7af59ac3fe1a8f7576f39)#fppa9ry9",
            "hex": "4104de7e15d66945e30c3bd55672d159f7acf7afc8027a408eb75e06b5cbb74b1a1d554defb656461d4a4c00601666302888b03397c345c7af59ac3fe1a8f7576f39ac",
            "type": "pubkey"
          }
        }
      ],
      "hex": "01000000010000000000000000000000000000000000000000000000000000000000000000ffffffff0804ffff001d02bc00ffffffff0100f2052a01000000434104de7e15d66945e30c3bd55672d159f7acf7afc8027a408eb75e06b5cbb74b1a1d554defb656461d4a4c00601666302888b03397c345c7af59ac3fe1a8f7576f39ac00000000"
    }
  ]
}