{
  "hash": "00000000c665269a9d5cf61af5fd43e73840d933179c55a6d681957d3d214f28",
  "confirmations": 52010,
  "height": 225,
  "version": 1,
  "versionHex": "00000001",
  "merkleroot": "1b1ae506a3cf0cf2e190e8c88fd45646b8a5f95e69c7cb0cd0b6de4bef5f4dad",
  "time": 1231773076,
  "mediantime": 1231768665,
  "nonce": 4084879389,
  "bits": "1d00ffff",
  "difficulty": 1,
  "chainwork": "000000000000000000000000000000000000000000000000000000e200e200e2",
  "nTx": 1,
  "previousblockhash": "000000003c29d5cb24584ddb079dd51cf9ecd02a96de0aecf05f8c2bcfa709f2",
  "nextblockhash": "000000005153e11361b28644ee63887e11f0b4b5a14d8e3da826d215dc1ce364",
  "strippedsize": 216,
  "size": 216,
  "weight": 864,
  "tx": [
    {
      "txid": "1b1ae506a3cf0cf2e190e8c88fd45646b8a5f95e69c7cb0cd0b6de4bef5f4dad",
      "hash": "1b1ae506a3cf0cf2e190e8c88fd45646b8a5f95e69c7cb0cd0b6de4bef5f4dad",
      "version": 1,
      "size": 135,
      "vsize": 135,
      "weight": 540,
      "locktime": 0,
      "vin": [
        {
          "coinbase": "04ffff001d02b100",
          "sequence": 4294967295
        }
      ],
      "vout": [
        {
          "value": 50.0,
          "n": 0,
          "scriptPubKey": {
            "asm": "04cb335cf14b41bee210c316d22c2bbac7cb3a97a664f49420fd31e409d808bd7ecb09a5a4c9e2e6698d52600abc42adda3dd60ada703610698137ce8eb29fe941 OP_CHECKSIG",
            "desc": "pk(04cb335cf14b41bee210c316d22c2bbac7cb3a97a664f49420fd31e409d808bd7ecb09a5a4c9e2e6698d52600abc42adda3dd60ada703610698137ce8eb29fe941)#84pypr3f",
            "hex": "4104cb335cf14b41bee210c316d22c2bbac7cb3a97a664f49420fd31e409d808bd7ecb09a5a4c9e2e6698d52600abc42adda3dd60ada703610698137ce8eb29fe941ac",
            "type": "pubkey"
          }
        }
      ],
      "hex": "01000000010000000000000000000000000000000000000000000000000000000000000000ffffffff0804ffff001d02b100ffffffff0100f2052a01000000434104cb335cf14b41bee210c316d22c2bbac7cb3a97a664f49420fd31e409d808bd7ecb09a5a4c9e2e6698d52600abc42adda3dd60ada703610698137ce8eb29fe941ac00000000"
    }
  ]
}