{
  "hash": "00000000649197a8e7d6973b4ed5207b689384b54ba117e3914a65f57de20b33",
  "confirmations": 46477,
  "height": 6621,
  "version": 1,
  "versionHex": "00000001",
  "merkleroot": "721629fa1cc6728af211da4fdfd5b2385f9f168676ca25943d114bf72e1c103a",
  "time": 1236419366,
  "mediantime": 1236416032,
  "nonce": 4242456095,
  "bits": "1d00ffff",
  "difficulty": 1,
  "chainwork": "000000000000000000000000000000000000000000000000000019de19de19de",
  "nTx": 1,
  "previousblockhash": "0000000066b25775f936f1f49ecf24a5f35a35276c00ab59b0dc4b4668554523",
  "nextblockhash": "00000000ecfde649a703099b196b7701ba0bf15736cd00ed21cef9d9cc59a940",
  "strippedsize": 216,
  "size": 216,
  "weight": 864,
  "tx": [
    {
      "txid": "721629fa1cc6728af211da4fdfd5b2385f9f168676ca25943d114bf72e1c103a",
      "hash": "721629fa1cc6728af211da4fdfd5b2385f9f168676ca25943d114bf72e1c103a",
      "version": 1,
      "size": 135,
      "vsize": 135,
      "weight": 540,
      "locktime": 0,
      "vin": [
        {
          "coinbase": "04ffff001d027c05",
          "sequence": 4294967295
        }
      ],
      "vout": [
        {
          "value": 50.0,
          "n": 0,
          "scriptPubKey": {
            "asm": "049c088e371d033a47f7a263d1f04492b301c1fe995914762ddd5ed933fe1bb06f4b3c0b746fabb69aee40db6cfff602b8d7aea127c4d288739d6aabb0ae26b678 OP_CHECKSIG",
            "desc": "pk(049c088e371d033a47f7a263d1f04492b301c1fe995914762ddd5ed933fe1bb06f4b3c0b746fabb69aee40db6cfff602b8d7aea127c4d288739d6aabb0ae26b678)#p6pxp7lj",
            "hex": "41049c088e371d033a47f7a263d1f04492b301c1fe995914762ddd5ed933fe1bb06f4b3c0b746fabb69aee40db6cfff602b8d7aea127c4d288739d6aabb0ae26b678ac",
            "type": "pubkey"
          }
        }
      ],
      "hex": "01000000010000000000000000000000000000000000000000000000000000000000000000ffffffff0804ffff001d027c05ffffffff0100f2052a010000004341049c088e371d033a47f7a263d1f04492b301c1fe995914762ddd5ed933fe1bb06f4b3c0b746fabb69aee40db6cfff602b8d7aea127c4d288739d6aabb0ae26b678ac00000000"
    }
  ]
}