{
  "hash": "00000000e385882d51277d4d761613f0442b29c8725ab8a77b5306cc34fb5419",
  "confirmations": 47495,
  "height": 5603,
  "version": 1,
  "versionHex": "00000001",
  "merkleroot": "98ba5d75af4b01a6a53e76aab198791e136199ec9de8fd7a1bf8ead396e06c59",
  "time": 1235606600,
  "mediantime": 1235600615,
  "nonce": 3126673966,
  "bits": "1d00ffff",
  "difficulty": 1,
  "chainwork": "000000000000000000000000000000000000000000000000000015e415e415e4",
  "nTx": 1,
  "previousblockhash": "0000000026c4976eb7c9aca41d68da02bba7201a2c33510fcc9f73272a72b028",
  "nextblockhash": "00000000be64a3fbf13da1507fbaf05763df31306d5a5650c2e841272d077774",
  "strippedsize": 216,
  "size": 216,
  "weight": 864,
  "tx": [
    {
      "txid": "98ba5d75af4b01a6a53e76aab198791e136199ec9de8fd7a1bf8ead396e06c59",
      "hash": "98ba5d75af4b01a6a53e76aab198791e136199ec9de8fd7a1bf8ead396e06c59",
      "version": 1,
      "size": 135,
      "vsize": 135,
      "weight": 540,
      "locktime": 0,
      "vin": [
        {
          "coinbase": "04ffff001d02b307",
          "sequence": 4294967295
        }
      ],
      "vout": [
        {
          "value": 50.0,
          "n": 0,
          "scriptPubKey": {
            "asm": "0497a365d29a7a180ccae20b2cdaffae9f7711fa7b17cf44215265bb1d3bf68c7919bad664274a33b630923eeea290dfa25e25d81b49bf350156638de2ab9c9687 OP_CHECKSIG",
            "desc": "pk(0497a365d29a7a180ccae20b2cdaffae9f7711fa7b17cf44215265bb1d3bf68c7919bad664274a33b630923eeea290dfa25e25d81b49bf350156638de2ab9c9687)#zlu04xh6",
            "hex": "410497a365d29a7a180ccae20b2cdaffae9f7711fa7b17cf44215265bb1d3bf68c7919bad664274a33b630923eeea290dfa25e25d81b49bf350156638de2ab9c9687ac",
            "type": "pubkey"
          }
        }
      ],
      "hex": "01000000010000000000000000000000000000000000000000000000000000000000000000ffffffff0804ffff001d02b307ffffffff0100f2052a0100000043410497a365d29a7a180ccae20b2cdaffae9f7711fa7b17cf44215265bb1d3bf68c7919bad664274a33b630923eeea290dfa25e25d81b49bf350156638de2ab9c9687ac00000000"
    }
  ]
}