{
  "hash": "00000000739781c45a78004847a0fef20c7499222aef74bff79efac2033f3039",
  "confirmations": 43530,
  "height": 9568,
  "version": 1,
  "versionHex": "00000001",
  "merkleroot": "278b38123a7d2efb784d07352cb7e7dab8488a6d5a3896bab8c4b48141f5c793",
  "time": 1238676896,
  "mediantime": 1238672244,
  "nonce": 1918614792,
  "bits": "1d00ffff",
  "difficulty": 1,
  "chainwork": "0000000000000000000000000000000000000000000000000000256125612561",
  "nTx": 1,
  "previousblockhash": "00000000914e22b7e449f8e5d8b33e3a3c123d9a357439a097ec9720723a52a0",
  "nextblockhash": "00000000be92f0a72cdffd19883ad65491233f589c56513157723f11e341ed24",
  "strippedsize": 216,
  "size": 216,
  "weight": 864,
  "tx": [
    {
      "txid": "278b38123a7d2efb784d07352cb7e7dab8488a6d5a3896bab8c4b48141f5c793",
      "hash": "278b38123a7d2efb784d07352cb7e7dab8488a6d5a3896bab8c4b48141f5c793",
      "version": 1,
      "size": 135,
      "vsize": 135,
      "weight": 540,
      "locktime": 0,
      "vin": [
        {
          "coinbase": "04ffff001d026c06",
          "sequence": 4294967295
        }
      ],
      "vout": [
        {
          "value": 50.0,
          "n": 0,
          "scriptPubKey": {
            "asm": "0425b61dec3686632cad5798312000194e798429fb192a1fa5fe43df8a07a3e533f080317af3762bda833fbac2ca5046551e230870172fe22784c1d3b4de3497c3 OP_CHECKSIG",
            "desc": "pk(0425b61dec3686632cad5798312000194e798429fb192a1fa5fe43df8a07a3e533f080317af3762bda833fbac2ca5046551e230870172fe22784c1d3b4de3497c3)#nz0jzjrk",
            "hex": "410425b61dec3686632cad5798312000194e798429fb192a1fa5fe43df8a07a3e533f080317af3762bda833fbac2ca5046551e230870172fe22784c1d3b4de3497c3ac",
            "type": "pubkey"
          }
        }
      ],
      "hex": "01000000010000000000000000000000000000000000000000000000000000000000000000ffffffff0804ffff001d026c06ffffffff0100f2052a0100000043410425b61dec3686632cad5798312000194e798429fb192a1fa5fe43df8a07a3e533f080317af3762bda833fbac2ca5046551e230870172fe22784c1d3b4de3497c3ac00000000"
    }
  ]
}