{
  "hash": "000000003ee212a38ae0326c5982e3012754bb6a730f885bd955673982df83ca",
  "confirmations": 52096,
  "height": 237,
  "version": 1,
  "versionHex": "00000001",
  "merkleroot": "516ddeb08d48ddce1682a0a81f8f1b73fcc4483978d2798d00bdd4a525204ef6",
  "time": 1231781185,
  "mediantime": 1231778080,
  "nonce": 3312748288,
  "bits": "1d00ffff",
  "difficulty": 1,
  "chainwork": "000000000000000000000000000000000000000000000000000000ee00ee00ee",
  "nTx": 1,
  "previousblockhash": "00000000297e095567db935fefecb1d495b3fbcbbe5ce37dee325a98ba357a2b",
  "nextblockhash": "00000000d153d95cdb1fbdc9bd7f4e9fdbd784af7e0b0536a390d8d5b2c38a8d",
  "strippedsize": 216,
  "size": 216,
  "weight": 864,
  "tx": [
    {
      "txid": "516ddeb08d48ddce1682a0a81f8f1b73fcc4483978d2798d00bdd4a525204ef6",
      "hash": "516ddeb08d48ddce1682a0a81f8f1b73fcc4483978d2798d00bdd4a525204ef6",
      "version": 1,
      "size": 135,
      "vsize": 135,
      "weight": 540,
      "locktime": 0,
      "vin": [
        {
          "coinbase": "04ffff001d02dd00",
          "sequence": 4294967295
        }
      ],
      "vout": [
        {
          "value": 50.0,
          "n": 0,
          "scriptPubKey": {
            "asm": "0495dadac2ffc3742c6cfe0c253860cc8155d4c62fb644e7f3d8ce16372e194e2bfc0a49e920d7f57e62345495381412909f980753c72455abbefe5dbf23f41cef OP_CHECKSIG",
            "desc": "pk(0495dadac2ffc3742c6cfe0c253860cc8155d4c62fb644e7f3d8ce16372e194e2bfc0a49e920d7f57e62345495381412909f980753c72455abbefe5dbf23f41cef)#ug0fussf",
            "hex": "410495dadac2ffc3742c6cfe0c253860cc8155d4c62fb644e7f3d8ce16372e194e2bfc0a49e920d7f57e62345495381412909f980753c72455abbefe5dbf23f41cefac",
            "type": "pubkey"
          }
        }
      ],
      "hex": "01000000010000000000000000000000000000000000000000000000000000000000000000ffffffff0804ffff001d02dd00ffffffff0100f2052a0100000043410495dadac2ffc3742c6cfe0c253860cc8155d4c62fb644e7f3d8ce16372e194e2bfc0a49e920d7f57e62345495381412909f980753c72455abbefe5dbf23f41cefac00000000"
    }
  ]
}