{
  "hash": "00000000f1a971b62c9a02a0fa58bf46d84275a9a529c5803f14bc4067385430",
  "confirmations": 45666,
  "height": 7432,
  "version": 1,
  "versionHex": "00000001",
  "merkleroot": "519ed3812bb58dad0aefcf65a8c39ddab0ab9b4f2de801019ba764b573446e27",
  "time": 1237047347,
  "mediantime": 1237043565,
  "nonce": 3546405913,
  "bits": "1d00ffff",
  "difficulty": 1,
  "chainwork": "00000000000000000000000000000000000000000000000000001d091d091d09",
  "nTx": 1,
  "previousblockhash": "0000000012bdcd3576bdef9371a94e68dcdf31351e79ae7911f822c084a966c6",
  "nextblockhash": "00000000e10bbc74e8d27d553d1d2c9b27a024ec3c358401a2e1b2ba8b0ea5bc",
  "strippedsize": 216,
  "size": 216,
  "weight": 864,
  "tx": [
    {
      "txid": "519ed3812bb58dad0aefcf65a8c39ddab0ab9b4f2de801019ba764b573446e27",
      "hash": "519ed3812bb58dad0aefcf65a8c39ddab0ab9b4f2de801019ba764b573446e27",
      "version": 1,
      "size": 135,
      "vsize": 135,
      "weight": 540,
      "locktime": 0,
      "vin": [
        {
          "coinbase": "04ffff001d020f0a",
          "sequence": 4294967295
        }
      ],
      "vout": [
        {
          "value": 50.0,
          "n": 0,
          "scriptPubKey": {
            "asm": "04d7ed1e7a4008711dec00ff0614a7b861dcae37d116513c6165dbbb2a83550e1d64182d36ad2613cbed3cf75f3d29ce7be99266e4481c9e0e24e5d2b139330ff9 OP_CHECKSIG",
            "desc": "pk(04d7ed1e7a4008711dec00ff0614a7b861dcae37d116513c6165dbbb2a83550e1d64182d36ad2613cbed3cf75f3d29ce7be99266e4481c9e0e24e5d2b139330ff9)#8g4rnzrt",
            "hex": "4104d7ed1e7a4008711dec00ff0614a7b861dcae37d116513c6165dbbb2a83550e1d64182d36ad2613cbed3cf75f3d29ce7be99266e4481c9e0e24e5d2b139330ff9ac",
            "type": "pubkey"
          }
        }
      ],
      "hex": "01000000010000000000000000000000000000000000000000000000000000000000000000ffffffff0804ffff001d020f0affffffff0100f2052a01000000434104d7ed1e7a4008711dec00ff0614a7b861dcae37d116513c6165dbbb2a83550e1d64182d36ad2613cbed3cf75f3d29ce7be99266e4481c9e0e24e5d2b139330ff9ac00000000"
    }
  ]
}