{
  "hash": "0000000032428f2545047f6e32b40ad6df7a96b2feb287467aa20013b2790f8d",
  "confirmations": 46628,
  "height": 6470,
  "version": 1,
  "versionHex": "00000001",
  "merkleroot": "62ef0e59196c8387b9b01fc73dff7510362ab271d94453fcb5690fa5879d4e43",
  "time": 1236307561,
  "mediantime": 1236302558,
  "nonce": 2708992046,
  "bits": "1d00ffff",
  "difficulty": 1,
  "chainwork": "0000000000000000000000000000000000000000000000000000194719471947",
  "nTx": 1,
  "previousblockhash": "00000000923fedf5838df2d0813d7b3131e3261ba0c5194c123ef1b6eebbaa20",
  "nextblockhash": "000000006ba84c4373f6c8372932e76e51da59ee24fdfa01afdc337f7f8d978d",
  "strippedsize": 216,
  "size": 216,
  "weight": 864,
  "tx": [
    {
      "txid": "62ef0e59196c8387b9b01fc73dff7510362ab271d94453fcb5690fa5879d4e43",
      "hash": "62ef0e59196c8387b9b01fc73dff7510362ab271d94453fcb5690fa5879d4e43",
      "version": 1,
      "size": 135,
      "vsize": 135,
      "weight": 540,
      "locktime": 0,
      "vin": [
        {
          "coinbase": "04ffff001d02d502",
          "sequence": 4294967295
        }
      ],
      "vout": [
        {
          "value": 50.0,
          "n": 0,
          "scriptPubKey": {
            "asm": "04e831af6cc8c6765ebd8e3978c04309cdbfcdcf7ecab3fd09ef45a27888cdad30f9f552e13fac0833228be1ed72797a4334ee92f5932b807c161a37769d29707a OP_CHECKSIG",
            "desc": "pk(04e831af6cc8c6765ebd8e3978c04309cdbfcdcf7ecab3fd09ef45a27888cdad30f9f552e13fac0833228be1ed72797a4334ee92f5932b807c161a37769d29707a)#m428sz0a",
            "hex": "4104e831af6cc8c6765ebd8e3978c04309cdbfcdcf7ecab3fd09ef45a27888cdad30f9f552e13fac0833228be1ed72797a4334ee92f5932b807c161a37769d29707aac",
            "type": "pubkey"
          }
        }
      ],
      "hex": "01000000010000000000000000000000000000000000000000000000000000000000000000ffffffff0804ffff001d02d502ffffffff0100f2052a01000000434104e831af6cc8c6765ebd8e3978c04309cdbfcdcf7ecab3fd09ef45a27888cdad30f9f552e13fac0833228be1ed72797a4334ee92f5932b807c161a37769d29707aac00000000"
    }
  ]
}