{
  "hash": "000000007dfc6054330e1b046f5f1aae82f5ed04097809faba5ca0aa9e91e35e",
  "confirmations": 52026,
  "height": 312,
  "version": 1,
  "versionHex": "00000001",
  "merkleroot": "66b2b260ae4964b7756725729b8b6d56b1d4cd19e3ffdaba2cdbec3babaed948",
  "time": 1231841124,
  "mediantime": 1231838493,
  "nonce": 1096026653,
  "bits": "1d00ffff",
  "difficulty": 1,
  "chainwork": "0000000000000000000000000000000000000000000000000000013901390139",
  "nTx": 1,
  "previousblockhash": "000000006dafd39a923d401a734f4654489b8194459aac53ab52493776f7d031",
  "nextblockhash": "00000000d9d81a18ab18a373998df7230e8248d077612a6ac6f947cc02900889",
  "strippedsize": 216,
  "size": 216,
  "weight": 864,
  "tx": [
    {
      "txid": "66b2b260ae4964b7756725729b8b6d56b1d4cd19e3ffdaba2cdbec3babaed948",
      "hash": "66b2b260ae4964b7756725729b8b6d56b1d4cd19e3ffdaba2cdbec3babaed948",
      "version": 1,
      "size": 135,
      "vsize": 135,
      "weight": 540,
      "locktime": 0,
      "vin": [
        {
          "coinbase": "04ffff001d02b000",
          "sequence": 4294967295
        }
      ],
      "vout": [
        {
          "value": 50.0,
          "n": 0,
          "scriptPubKey": {
            "asm": "04343435ef9025309815f5f7bedce06a4e7cdfd555f25029a685da9ff129964af80dfe8adb573c02a6d0f59389bcaa76db3efdc346aa372d96a319fb2bc3e6d762 OP_CHECKSIG",
            "desc": "pk(04343435ef9025309815f5f7bedce06a4e7cdfd555f25029a685da9ff129964af80dfe8adb573c02a6d0f59389bcaa76db3efdc346aa372d96a319fb2bc3e6d762)#r8rv7232",
            "hex": "4104343435ef9025309815f5f7bedce06a4e7cdfd555f25029a685da9ff129964af80dfe8adb573c02a6d0f59389bcaa76db3efdc346aa372d96a319fb2bc3e6d762ac",
            "type": "pubkey"
          }
        }
      ],
      "hex": "01000000010000000000000000000000000000000000000000000000000000000000000000ffffffff0804ffff001d02b000ffffffff0100f2052a01000000434104343435ef9025309815f5f7bedce06a4e7cdfd555f25029a685da9ff129964af80dfe8adb573c02a6d0f59389bcaa76db3efdc346aa372d96a319fb2bc3e6d762ac00000000"
    }
  ]
}