{
  "hash": "000000002178dae529077386d68c48b1660f6168baadbabb6bcbd0a59dc10b17",
  "confirmations": 46829,
  "height": 6269,
  "version": 1,
  "versionHex": "00000001",
  "merkleroot": "f06ea324bff6e9099830032a5b0337a2a5dce84d710bb1dc811fe438bdd4760a",
  "time": 1236148684,
  "mediantime": 1236145269,
  "nonce": 246931966,
  "bits": "1d00ffff",
  "difficulty": 1,
  "chainwork": "0000000000000000000000000000000000000000000000000000187e187e187e",
  "nTx": 1,
  "previousblockhash": "000000002c1a2986aed5907c096e19ecf3ce132056d178b029bd0cbf273afb95",
  "nextblockhash": "00000000927235e53245ffade6c852fa742e51265d4a4657c61d085ad9cafba7",
  "strippedsize": 215,
  "size": 215,
  "weight": 860,
  "tx": [
    {
      "txid": "f06ea324bff6e9099830032a5b0337a2a5dce84d710bb1dc811fe438bdd4760a",
      "hash": "f06ea324bff6e9099830032a5b0337a2a5dce84d710bb1dc811fe438bdd4760a",
      "version": 1,
      "size": 134,
      "vsize": 134,
      "weight": 536,
      "locktime": 0,
      "vin": [
        {
          "coinbase": "04ffff001d010d",
          "sequence": 4294967295
        }
      ],
      "vout": [
        {
          "value": 50.0,
          "n": 0,
          "scriptPubKey": {
            "asm": "04e21c594b60475674a20e2f91b4535ff2d4bff1e8226d978fc798e5c2470673325f2f1d3f7d15222b5de7e544c32108be57fe5a1b0b7cf0695dddbf92801dc325 OP_CHECKSIG",
            "desc": "pk(04e21c594b60475674a20e2f91b4535ff2d4bff1e8226d978fc798e5c2470673325f2f1d3f7d15222b5de7e544c32108be57fe5a1b0b7cf0695dddbf92801dc325)#xcp6kmf9",
            "hex": "4104e21c594b60475674a20e2f91b4535ff2d4bff1e8226d978fc798e5c2470673325f2f1d3f7d15222b5de7e544c32108be57fe5a1b0b7cf0695dddbf92801dc325ac",
            "type": "pubkey"
          }
        }
      ],
      "hex": "01000000010000000000000000000000000000000000000000000000000000000000000000ffffffff0704ffff001d010dffffffff0100f2052a01000000434104e21c594b60475674a20e2f91b4535ff2d4bff1e8226d978fc798e5c2470673325f2f1d3f7d15222b5de7e544c32108be57fe5a1b0b7cf0695dddbf92801dc325ac00000000"
    }
  ]
}