{
  "hash": "00000000d03eaa6098f26f0d241b7d7310348f2140256af8b92a13dcfa4dc7ee",
  "confirmations": 46869,
  "height": 6229,
  "version": 1,
  "versionHex": "00000001",
  "merkleroot": "ced81bb6169e30f132f1747141ffaf9df5665f6e837606d152e4514926c07d93",
  "time": 1236114909,
  "mediantime": 1236110973,
  "nonce": 3217234459,
  "bits": "1d00ffff",
  "difficulty": 1,
  "chainwork": "0000000000000000000000000000000000000000000000000000185618561856",
  "nTx": 1,
  "previousblockhash": "00000000a2d1ca6edd9db559451b983726275adabc3f299baf7eebfcd98454c1",
  "nextblockhash": "00000000f7ee7b7d1595abfcf9b2a9d06cb365e11076b97ad6ee2b9674486158",
  "strippedsize": 216,
  "size": 216,
  "weight": 864,
  "tx": [
    {
      "txid": "ced81bb6169e30f132f1747141ffaf9df5665f6e837606d152e4514926c07d93",
      "hash": "ced81bb6169e30f132f1747141ffaf9df5665f6e837606d152e4514926c07d93",
      "version": 1,
      "size": 135,
      "vsize": 135,
      "weight": 540,
      "locktime": 0,
      "vin": [
        {
          "coinbase": "04ffff001d021809",
          "sequence": 4294967295
        }
      ],
      "vout": [
        {
          "value": 50.0,
          "n": 0,
          "scriptPubKey": {
            "asm": "04631567aa785dc97d0da3686c4e678de9f7970ac2b70d633000559d3a48571f7f5b01be216ea66b71abeb2db6c05b42a4ab0be1ed3fd5a79c8e2cd0d4a34c58b2 OP_CHECKSIG",
            "desc": "pk(04631567aa785dc97d0da3686c4e678de9f7970ac2b70d633000559d3a48571f7f5b01be216ea66b71abeb2db6c05b42a4ab0be1ed3fd5a79c8e2cd0d4a34c58b2)#gmqasn7r",
            "hex": "4104631567aa785dc97d0da3686c4e678de9f7970ac2b70d633000559d3a48571f7f5b01be216ea66b71abeb2db6c05b42a4ab0be1ed3fd5a79c8e2cd0d4a34c58b2ac",
            "type": "pubkey"
          }
        }
      ],
      "hex": "01000000010000000000000000000000000000000000000000000000000000000000000000ffffffff0804ffff001d021809ffffffff0100f2052a01000000434104631567aa785dc97d0da3686c4e678de9f7970ac2b70d633000559d3a48571f7f5b01be216ea66b71abeb2db6c05b42a4ab0be1ed3fd5a79c8e2cd0d4a34c58b2ac00000000"
    }
  ]
}