{
  "hash": "000000004fb7e21c803fbcea643b54990da805a851e11cf5fc17af614a00c9e5",
  "confirmations": 50846,
  "height": 2252,
  "version": 1,
  "versionHex": "00000001",
  "merkleroot": "21db86421acbd170940183dc9bccd1df6339d55ada53e936119df3bfe24b22d5",
  "time": 1233247374,
  "mediantime": 1233245164,
  "nonce": 37941835,
  "bits": "1d00ffff",
  "difficulty": 1,
  "chainwork": "000000000000000000000000000000000000000000000000000008cd08cd08cd",
  "nTx": 1,
  "previousblockhash": "00000000fdaa632818dc340c1583270703135e1c919315e526e679ee873f7ef2",
  "nextblockhash": "000000009b2fb1f7423e64170bdc70f65d5a2ff9b51201e87e04d8f93a550b63",
  "strippedsize": 215,
  "size": 215,
  "weight": 860,
  "tx": [
    {
      "txid": "21db86421acbd170940183dc9bccd1df6339d55ada53e936119df3bfe24b22d5",
      "hash": "21db86421acbd170940183dc9bccd1df6339d55ada53e936119df3bfe24b22d5",
      "version": 1,
      "size": 134,
      "vsize": 134,
      "weight": 536,
      "locktime": 0,
      "vin": [
        {
          "coinbase": "04ffff001d0163",
          "sequence": 4294967295
        }
      ],
      "vout": [
        {
          "value": 50.0,
          "n": 0,
          "scriptPubKey": {
            "asm": "048de61446154d7f788869f32993be3fbd0749418b06a6528bd0634a466092ff45b1515649373b9c55005f6c55f8f1e754df250ce42955879908ddaf80becadc87 OP_CHECKSIG",
            "desc": "pk(048de61446154d7f788869f32993be3fbd0749418b06a6528bd0634a466092ff45b1515649373b9c55005f6c55f8f1e754df250ce42955879908ddaf80becadc87)#m0pt2utr",
            "hex": "41048de61446154d7f788869f32993be3fbd0749418b06a6528bd0634a466092ff45b1515649373b9c55005f6c55f8f1e754df250ce42955879908ddaf80becadc87ac",
            "type": "pubkey"
          }
        }
      ],
      "hex": "01000000010000000000000000000000000000000000000000000000000000000000000000ffffffff0704ffff001d0163ffffffff0100f2052a010000004341048de61446154d7f788869f32993be3fbd0749418b06a6528bd0634a466092ff45b1515649373b9c55005f6c55f8f1e754df250ce42955879908ddaf80becadc87ac00000000"
    }
  ]
}