{
  "hash": "00000000bd8f46dbdec0d53e9587f240ac60eb01473663e9526d21692172c8d3",
  "confirmations": 48177,
  "height": 4921,
  "version": 1,
  "versionHex": "00000001",
  "merkleroot": "5be570a00da70727245c2391a2b8c506c474ab33de053a333d18d0dda14feea9",
  "time": 1235084892,
  "mediantime": 1235082002,
  "nonce": 303712150,
  "bits": "1d00ffff",
  "difficulty": 1,
  "chainwork": "0000000000000000000000000000000000000000000000000000133a133a133a",
  "nTx": 1,
  "previousblockhash": "000000008ade7f7f12bd85d04ffe6fdab4cb22c02cfaef5650469bec1e2a289d",
  "nextblockhash": "000000009921191d67470d126d1e4957849aa909b4f14c9ddd228b35db08e2b4",
  "strippedsize": 215,
  "size": 215,
  "weight": 860,
  "tx": [
    {
      "txid": "5be570a00da70727245c2391a2b8c506c474ab33de053a333d18d0dda14feea9",
      "hash": "5be570a00da70727245c2391a2b8c506c474ab33de053a333d18d0dda14feea9",
      "version": 1,
      "size": 134,
      "vsize": 134,
      "weight": 536,
      "locktime": 0,
      "vin": [
        {
          "coinbase": "04ffff001d0102",
          "sequence": 4294967295
        }
      ],
      "vout": [
        {
          "value": 50.0,
          "n": 0,
          "scriptPubKey": {
            "asm": "04e43056868b2eb392ad78136adb941323cd1dcd6d99e349913c508aa3a4eee5bcaa86473ab0b5d5e80212ac2c12f35e27c43dbc6eba07ff08657dc77a5feadb3b OP_CHECKSIG",
            "desc": "pk(04e43056868b2eb392ad78136adb941323cd1dcd6d99e349913c508aa3a4eee5bcaa86473ab0b5d5e80212ac2c12f35e27c43dbc6eba07ff08657dc77a5feadb3b)#w9slaa9y",
            "hex": "4104e43056868b2eb392ad78136adb941323cd1dcd6d99e349913c508aa3a4eee5bcaa86473ab0b5d5e80212ac2c12f35e27c43dbc6eba07ff08657dc77a5feadb3bac",
            "type": "pubkey"
          }
        }
      ],
      "hex": "01000000010000000000000000000000000000000000000000000000000000000000000000ffffffff0704ffff001d0102ffffffff0100f2052a01000000434104e43056868b2eb392ad78136adb941323cd1dcd6d99e349913c508aa3a4eee5bcaa86473ab0b5d5e80212ac2c12f35e27c43dbc6eba07ff08657dc77a5feadb3bac00000000"
    }
  ]
}