{
  "hash": "00000000ea632440f0d82612c132320fe0ac68c320468054c6cf836c4db50c85",
  "confirmations": 50123,
  "height": 2975,
  "version": 1,
  "versionHex": "00000001",
  "merkleroot": "079f68f8f657868bb66e0723bcbe2147783f5ab54ab745581f4d5ef3cdca191b",
  "time": 1233745475,
  "mediantime": 1233741343,
  "nonce": 1590416924,
  "bits": "1d00ffff",
  "difficulty": 1,
  "chainwork": "00000000000000000000000000000000000000000000000000000ba00ba00ba0",
  "nTx": 1,
  "previousblockhash": "00000000e38cd27491d5a6ada8965ab82a6e24ff12ef2f9aae81f4c30beab55c",
  "nextblockhash": "000000002c7d06e470034ede0b49597c3743b1c717ec1605f4a86cbb07647e08",
  "strippedsize": 216,
  "size": 216,
  "weight": 864,
  "tx": [
    {
      "txid": "079f68f8f657868bb66e0723bcbe2147783f5ab54ab745581f4d5ef3cdca191b",
      "hash": "079f68f8f657868bb66e0723bcbe2147783f5ab54ab745581f4d5ef3cdca191b",
      "version": 1,
      "size": 135,
      "vsize": 135,
      "weight": 540,
      "locktime": 0,
      "vin": [
        {
          "coinbase": "04ffff001d020301",
          "sequence": 4294967295
        }
      ],
      "vout": [
        {
          "value": 50.0,
          "n": 0,
          "scriptPubKey": {
            "asm": "047380391fff25038aa94e4fcc4290c7024f61a234e9debe1984c6f022421c093312f7c08c26f04199048464ed1dab6ecea49ff22e2f77cba67c6d59d4feb752e4 OP_CHECKSIG",
            "desc": "pk(047380391fff25038aa94e4fcc4290c7024f61a234e9debe1984c6f022421c093312f7c08c26f04199048464ed1dab6ecea49ff22e2f77cba67c6d59d4feb752e4)#zxlf7nup",
            "hex": "41047380391fff25038aa94e4fcc4290c7024f61a234e9debe1984c6f022421c093312f7c08c26f04199048464ed1dab6ecea49ff22e2f77cba67c6d59d4feb752e4ac",
            "type": "pubkey"
          }
        }
      ],
      "hex": "01000000010000000000000000000000000000000000000000000000000000000000000000ffffffff0804ffff001d020301ffffffff0100f2052a010000004341047380391fff25038aa94e4fcc4290c7024f61a234e9debe1984c6f022421c093312f7c08c26f04199048464ed1dab6ecea49ff22e2f77cba67c6d59d4feb752e4ac00000000"
    }
  ]
}