{
  "hash": "00000000b7b198680cf2afca0342000147150a1e7fd947e51f934f1efab309fe",
  "confirmations": 50402,
  "height": 2696,
  "version": 1,
  "versionHex": "00000001",
  "merkleroot": "e73c369368924e3eff618e24748c5cae2b09881926ef061948e8cc5b1c6205a6",
  "time": 1233557681,
  "mediantime": 1233555604,
  "nonce": 28583942,
  "bits": "1d00ffff",
  "difficulty": 1,
  "chainwork": "00000000000000000000000000000000000000000000000000000a890a890a89",
  "nTx": 1,
  "previousblockhash": "000000007a1b08a534ce7e00b4e0f3f15e598ea2cf8400a2f68077780dd786c0",
  "nextblockhash": "00000000dc9d553f5c5b7d4999ac4893a3a4c04ad264c92a0d096ad6698feeec",
  "strippedsize": 216,
  "size": 216,
  "weight": 864,
  "tx": [
    {
      "txid": "e73c369368924e3eff618e24748c5cae2b09881926ef061948e8cc5b1c6205a6",
      "hash": "e73c369368924e3eff618e24748c5cae2b09881926ef061948e8cc5b1c6205a6",
      "version": 1,
      "size": 135,
      "vsize": 135,
      "weight": 540,
      "locktime": 0,
      "vin": [
        {
          "coinbase": "04ffff001d02f705",
          "sequence": 4294967295
        }
      ],
      "vout": [
        {
          "value": 50.0,
          "n": 0,
          "scriptPubKey": {
            "asm": "0430f6f2f7b350bb34e2b438738c77f39cf01a3fbe6a4817f66ccf24499a9cb0cec46220f4fcdfae678a7887af6d1ea8c0db9b9a7ccc32de06b95e0c9bda867f6e OP_CHECKSIG",
            "desc": "pk(0430f6f2f7b350bb34e2b438738c77f39cf01a3fbe6a4817f66ccf24499a9cb0cec46220f4fcdfae678a7887af6d1ea8c0db9b9a7ccc32de06b95e0c9bda867f6e)#cmg2ay54",
            "hex": "410430f6f2f7b350bb34e2b438738c77f39cf01a3fbe6a4817f66ccf24499a9cb0cec46220f4fcdfae678a7887af6d1ea8c0db9b9a7ccc32de06b95e0c9bda867f6eac",
            "type": "pubkey"
          }
        }
      ],
      "hex": "01000000010000000000000000000000000000000000000000000000000000000000000000ffffffff0804ffff001d02f705ffffffff0100f2052a0100000043410430f6f2f7b350bb34e2b438738c77f39cf01a3fbe6a4817f66ccf24499a9cb0cec46220f4fcdfae678a7887af6d1ea8c0db9b9a7ccc32de06b95e0c9bda867f6eac00000000"
    }
  ]
}