{
  "hash": "000000001fdd75f2fd988cea23e2299bc922d3e62e9d0c9480b8e0d88c408d40",
  "confirmations": 48605,
  "height": 4493,
  "version": 1,
  "versionHex": "00000001",
  "merkleroot": "9e9c7f938c16b5ef77304112443ad9168394110cb93baf17f5a48cfc06a449c7",
  "time": 1234775807,
  "mediantime": 1234771206,
  "nonce": 1748861973,
  "bits": "1d00ffff",
  "difficulty": 1,
  "chainwork": "0000000000000000000000000000000000000000000000000000118e118e118e",
  "nTx": 1,
  "previousblockhash": "000000005a40feb0df143aa622a1aac57edd38a5d2c2bc51b7ac27f8e7177af0",
  "nextblockhash": "00000000d9a23cf059f612caf2022047961128a17bce3000d833e5e5af8b3c42",
  "strippedsize": 216,
  "size": 216,
  "weight": 864,
  "tx": [
    {
      "txid": "9e9c7f938c16b5ef77304112443ad9168394110cb93baf17f5a48cfc06a449c7",
      "hash": "9e9c7f938c16b5ef77304112443ad9168394110cb93baf17f5a48cfc06a449c7",
      "version": 1,
      "size": 135,
      "vsize": 135,
      "weight": 540,
      "locktime": 0,
      "vin": [
        {
          "coinbase": "04ffff001d02c102",
          "sequence": 4294967295
        }
      ],
      "vout": [
        {
          "value": 50.0,
          "n": 0,
          "scriptPubKey": {
            "asm": "041238fef8343c3ae3fdda11e69b5befb6d8c91ded2bb4950c290392baa3db1c9eb681a1f0ba712950541547a4d41e1c7c163cfcf63da4c3d468711359737f6683 OP_CHECKSIG",
            "desc": "pk(041238fef8343c3ae3fdda11e69b5befb6d8c91ded2bb4950c290392baa3db1c9eb681a1f0ba712950541547a4d41e1c7c163cfcf63da4c3d468711359737f6683)#weqhs4f3",
            "hex": "41041238fef8343c3ae3fdda11e69b5befb6d8c91ded2bb4950c290392baa3db1c9eb681a1f0ba712950541547a4d41e1c7c163cfcf63da4c3d468711359737f6683ac",
            "type": "pubkey"
          }
        }
      ],
      "hex": "01000000010000000000000000000000000000000000000000000000000000000000000000ffffffff0804ffff001d02c102ffffffff0100f2052a010000004341041238fef8343c3ae3fdda11e69b5befb6d8c91ded2bb4950c290392baa3db1c9eb681a1f0ba712950541547a4d41e1c7c163cfcf63da4c3d468711359737f6683ac00000000"
    }
  ]
}