{
  "hash": "000000009527b99654e2466f510181719fe0db7077818498d07d30b00728aa66",
  "confirmations": 44550,
  "height": 8548,
  "version": 1,
  "versionHex": "00000001",
  "merkleroot": "c805ee2d1092007f0a824671e4f8ef304971ebeac2befd55127923392c73f4a7",
  "time": 1237910614,
  "mediantime": 1237906593,
  "nonce": 2948036401,
  "bits": "1d00ffff",
  "difficulty": 1,
  "chainwork": "0000000000000000000000000000000000000000000000000000216521652165",
  "nTx": 1,
  "previousblockhash": "00000000fd3a79266d790c01ce9f779c6c87d2f15560dabcdf0c7de0b7fefe44",
  "nextblockhash": "0000000073c033b4861b754589d7843e31858bb5197ffa4c62f5c15446c3ac90",
  "strippedsize": 216,
  "size": 216,
  "weight": 864,
  "tx": [
    {
      "txid": "c805ee2d1092007f0a824671e4f8ef304971ebeac2befd55127923392c73f4a7",
      "hash": "c805ee2d1092007f0a824671e4f8ef304971ebeac2befd55127923392c73f4a7",
      "version": 1,
      "size": 135,
      "vsize": 135,
      "weight": 540,
      "locktime": 0,
      "vin": [
        {
          "coinbase": "04ffff001d02b008",
          "sequence": 4294967295
        }
      ],
      "vout": [
        {
          "value": 50.0,
          "n": 0,
          "scriptPubKey": {
            "asm": "0446532f1f0f2ce2706b7d76a4e14d8b41424b3be9aebae53f25b3eab91ebb96504a902c0f325da2a265d5a3278a3e82009f7abc8fccf9d35030499fc30a2a2574 OP_CHECKSIG",
            "desc": "pk(0446532f1f0f2ce2706b7d76a4e14d8b41424b3be9aebae53f25b3eab91ebb96504a902c0f325da2a265d5a3278a3e82009f7abc8fccf9d35030499fc30a2a2574)#evwsn0z2",
            "hex": "410446532f1f0f2ce2706b7d76a4e14d8b41424b3be9aebae53f25b3eab91ebb96504a902c0f325da2a265d5a3278a3e82009f7abc8fccf9d35030499fc30a2a2574ac",
            "type": "pubkey"
          }
        }
      ],
      "hex": "01000000010000000000000000000000000000000000000000000000000000000000000000ffffffff0804ffff001d02b008ffffffff0100f2052a0100000043410446532f1f0f2ce2706b7d76a4e14d8b41424b3be9aebae53f25b3eab91ebb96504a902c0f325da2a265d5a3278a3e82009f7abc8fccf9d35030499fc30a2a2574ac00000000"
    }
  ]
}