{
  "hash": "00000000bc8243c8b97e217b7ecc2b9b75eebfec61407e76ea29df12c676b149",
  "confirmations": 51422,
  "height": 1676,
  "version": 1,
  "versionHex": "00000001",
  "merkleroot": "391bb6804d0fcb53534e8a8ede8c61583bcf68b940c4b116add23374d887151a",
  "time": 1232842734,
  "mediantime": 1232841371,
  "nonce": 50986790,
  "bits": "1d00ffff",
  "difficulty": 1,
  "chainwork": "0000000000000000000000000000000000000000000000000000068d068d068d",
  "nTx": 1,
  "previousblockhash": "00000000921d00495e1b5fe6244e51580fdb85ee7bf0e9318d6f323a8ae76e17",
  "nextblockhash": "000000006bbca4fb6c2a1b6f1d1a625afd94b9493e491420637ac29ee626010f",
  "strippedsize": 216,
  "size": 216,
  "weight": 864,
  "tx": [
    {
      "txid": "391bb6804d0fcb53534e8a8ede8c61583bcf68b940c4b116add23374d887151a",
      "hash": "391bb6804d0fcb53534e8a8ede8c61583bcf68b940c4b116add23374d887151a",
      "version": 1,
      "size": 135,
      "vsize": 135,
      "weight": 540,
      "locktime": 0,
      "vin": [
        {
          "coinbase": "04ffff001d02c802",
          "sequence": 4294967295
        }
      ],
      "vout": [
        {
          "value": 50.0,
          "n": 0,
          "scriptPubKey": {
            "asm": "041554a5a3440bdae5d901d08eb1df829d29bffa4f5370cb068c203bb485e92c6bbac5c8c43a3777f8268d5dffb081eefaec5ad42372a549338e207f94a18a39ba OP_CHECKSIG",
            "desc": "pk(041554a5a3440bdae5d901d08eb1df829d29bffa4f5370cb068c203bb485e92c6bbac5c8c43a3777f8268d5dffb081eefaec5ad42372a549338e207f94a18a39ba)#ftn6a5el",
            "hex": "41041554a5a3440bdae5d901d08eb1df829d29bffa4f5370cb068c203bb485e92c6bbac5c8c43a3777f8268d5dffb081eefaec5ad42372a549338e207f94a18a39baac",
            "type": "pubkey"
          }
        }
      ],
      "hex": "01000000010000000000000000000000000000000000000000000000000000000000000000ffffffff0804ffff001d02c802ffffffff0100f2052a010000004341041554a5a3440bdae5d901d08eb1df829d29bffa4f5370cb068c203bb485e92c6bbac5c8c43a3777f8268d5dffb081eefaec5ad42372a549338e207f94a18a39baac00000000"
    }
  ]
}