{
  "hash": "000000006947fb1ec7bda93f3bdb54372faaea393807409c6c7cfa236da44c8c",
  "confirmations": 51328,
  "height": 1770,
  "version": 1,
  "versionHex": "00000001",
  "merkleroot": "9fcae3358a09480876212cb38e4d76b47d7d4b9ed9e0c9454dc9b5c0f6b8df0e",
  "time": 1232883618,
  "mediantime": 1232881342,
  "nonce": 1344613937,
  "bits": "1d00ffff",
  "difficulty": 1,
  "chainwork": "000000000000000000000000000000000000000000000000000006eb06eb06eb",
  "nTx": 1,
  "previousblockhash": "00000000772003e7b81cac7d63a1195f55a321347eb0a6190140176906d64469",
  "nextblockhash": "00000000a5e1552a1ea5e75e7680eb205a8fc32849d4d61ca9826935e2e204e2",
  "strippedsize": 216,
  "size": 216,
  "weight": 864,
  "tx": [
    {
      "txid": "9fcae3358a09480876212cb38e4d76b47d7d4b9ed9e0c9454dc9b5c0f6b8df0e",
      "hash": "9fcae3358a09480876212cb38e4d76b47d7d4b9ed9e0c9454dc9b5c0f6b8df0e",
      "version": 1,
      "size": 135,
      "vsize": 135,
      "weight": 540,
      "locktime": 0,
      "vin": [
        {
          "coinbase": "04ffff001d02cf03",
          "sequence": 4294967295
        }
      ],
      "vout": [
        {
          "value": 50.0,
          "n": 0,
          "scriptPubKey": {
            "asm": "045c4720b9c8392d4c21736f9dcaa1ef6d83fcc381ab924913da3be0560c7f79d3f92b5283cea88c5bed6410200cfe318c4f3068487d23e101b8b0e441b21c7c7e OP_CHECKSIG",
            "desc": "pk(045c4720b9c8392d4c21736f9dcaa1ef6d83fcc381ab924913da3be0560c7f79d3f92b5283cea88c5bed6410200cfe318c4f3068487d23e101b8b0e441b21c7c7e)#ecju2v7z",
            "hex": "41045c4720b9c8392d4c21736f9dcaa1ef6d83fcc381ab924913da3be0560c7f79d3f92b5283cea88c5bed6410200cfe318c4f3068487d23e101b8b0e441b21c7c7eac",
            "type": "pubkey"
          }
        }
      ],
      "hex": "01000000010000000000000000000000000000000000000000000000000000000000000000ffffffff0804ffff001d02cf03ffffffff0100f2052a010000004341045c4720b9c8392d4c21736f9dcaa1ef6d83fcc381ab924913da3be0560c7f79d3f92b5283cea88c5bed6410200cfe318c4f3068487d23e101b8b0e441b21c7c7eac00000000"
    }
  ]
}