{
  "hash": "00000000deffc03974a267485011beda250fb16aa0fcdc26399c8e6bf32061b9",
  "confirmations": 46872,
  "height": 6226,
  "version": 1,
  "versionHex": "00000001",
  "merkleroot": "f0200cc58d8757ddf076eee82aaca1fad8652640239f2cce03e82ae7b2a9b81a",
  "time": 1236112631,
  "mediantime": 1236107632,
  "nonce": 3821993754,
  "bits": "1d00ffff",
  "difficulty": 1,
  "chainwork": "0000000000000000000000000000000000000000000000000000185318531853",
  "nTx": 1,
  "previousblockhash": "00000000ca11e8575b26f7ba2146b171976cb227f2e1193484181ff324226711",
  "nextblockhash": "0000000053e4697b1b98f884acc39ded8adaa934527c974468d5fa3925bda2f7",
  "strippedsize": 216,
  "size": 216,
  "weight": 864,
  "tx": [
    {
      "txid": "f0200cc58d8757ddf076eee82aaca1fad8652640239f2cce03e82ae7b2a9b81a",
      "hash": "f0200cc58d8757ddf076eee82aaca1fad8652640239f2cce03e82ae7b2a9b81a",
      "version": 1,
      "size": 135,
      "vsize": 135,
      "weight": 540,
      "locktime": 0,
      "vin": [
        {
          "coinbase": "04ffff001d020409",
          "sequence": 4294967295
        }
      ],
      "vout": [
        {
          "value": 50.0,
          "n": 0,
          "scriptPubKey": {
            "asm": "04e7e839dbbf584b82507ffbcf930f916ea33d0bbce3466448be06fed38a5eca46dd38949218e42692229a779cbb2782d117dc86b783fc6c620996160f56524edc OP_CHECKSIG",
            "desc": "pk(04e7e839dbbf584b82507ffbcf930f916ea33d0bbce3466448be06fed38a5eca46dd38949218e42692229a779cbb2782d117dc86b783fc6c620996160f56524edc)#5puzra9a",
            "hex": "4104e7e839dbbf584b82507ffbcf930f916ea33d0bbce3466448be06fed38a5eca46dd38949218e42692229a779cbb2782d117dc86b783fc6c620996160f56524edcac",
            "type": "pubkey"
          }
        }
      ],
      "hex": "01000000010000000000000000000000000000000000000000000000000000000000000000ffffffff0804ffff001d020409ffffffff0100f2052a01000000434104e7e839dbbf584b82507ffbcf930f916ea33d0bbce3466448be06fed38a5eca46dd38949218e42692229a779cbb2782d117dc86b783fc6c620996160f56524edcac00000000"
    }
  ]
}