{
  "hash": "00000000220d3c67d4cf9a9aff38eeda2170b0fa30ffd922e3ed7ff58a59a2ed",
  "confirmations": 43159,
  "height": 9939,
  "version": 1,
  "versionHex": "00000001",
  "merkleroot": "8b0f580bfaff3ddcc04f3866eb431fbb5d5c0b94ee569ce46a1c638e3388db03",
  "time": 1238946965,
  "mediantime": 1238945137,
  "nonce": 416192034,
  "bits": "1d00ffff",
  "difficulty": 1,
  "chainwork": "000000000000000000000000000000000000000000000000000026d426d426d4",
  "nTx": 1,
  "previousblockhash": "00000000212d49b27f9085ff0f64ce3da962dc1d14288c75e1bd75c4be84458e",
  "nextblockhash": "000000007f6a6d00793ede59bcc8956df1667a82f3ea95811d2e07e449d75710",
  "strippedsize": 216,
  "size": 216,
  "weight": 864,
  "tx": [
    {
      "txid": "8b0f580bfaff3ddcc04f3866eb431fbb5d5c0b94ee569ce46a1c638e3388db03",
      "hash": "8b0f580bfaff3ddcc04f3866eb431fbb5d5c0b94ee569ce46a1c638e3388db03",
      "version": 1,
      "size": 135,
      "vsize": 135,
      "weight": 540,
      "locktime": 0,
      "vin": [
        {
          "coinbase": "04ffff001d029202",
          "sequence": 4294967295
        }
      ],
      "vout": [
        {
          "value": 50.0,
          "n": 0,
          "scriptPubKey": {
            "asm": "0421f06c61043e58da411f0ec439a0b4936b7bf9947da698c36f724bb8488965e2730e673b1edc79e131102dcda119d44b5c74553cf71e2774a454f16647e28773 OP_CHECKSIG",
            "desc": "pk(0421f06c61043e58da411f0ec439a0b4936b7bf9947da698c36f724bb8488965e2730e673b1edc79e131102dcda119d44b5c74553cf71e2774a454f16647e28773)#jrrae0md",
            "hex": "410421f06c61043e58da411f0ec439a0b4936b7bf9947da698c36f724bb8488965e2730e673b1edc79e131102dcda119d44b5c74553cf71e2774a454f16647e28773ac",
            "type": "pubkey"
          }
        }
      ],
      "hex": "01000000010000000000000000000000000000000000000000000000000000000000000000ffffffff0804ffff001d029202ffffffff0100f2052a0100000043410421f06c61043e58da411f0ec439a0b4936b7bf9947da698c36f724bb8488965e2730e673b1edc79e131102dcda119d44b5c74553cf71e2774a454f16647e28773ac00000000"
    }
  ]
}