{
  "hash": "00000000326650214b4292b19928852e84a355cea3745d9e014795548775723f",
  "confirmations": 47728,
  "height": 5370,
  "version": 1,
  "versionHex": "00000001",
  "merkleroot": "fb0c4bff341fb670ee798cbed5b0f2ebfe763ff9b7a203ec652fd8322ee882fe",
  "time": 1235417179,
  "mediantime": 1235415149,
  "nonce": 2366908470,
  "bits": "1d00ffff",
  "difficulty": 1,
  "chainwork": "000000000000000000000000000000000000000000000000000014fb14fb14fb",
  "nTx": 1,
  "previousblockhash": "0000000096fded8ab52ba7f6286358b8853568210d2e1cd103b575d260dfad48",
  "nextblockhash": "00000000b4e549b545583b9f3f3823df84eeb43df830e7c7ff716b55d07817d9",
  "strippedsize": 216,
  "size": 216,
  "weight": 864,
  "tx": [
    {
      "txid": "fb0c4bff341fb670ee798cbed5b0f2ebfe763ff9b7a203ec652fd8322ee882fe",
      "hash": "fb0c4bff341fb670ee798cbed5b0f2ebfe763ff9b7a203ec652fd8322ee882fe",
      "version": 1,
      "size": 135,
      "vsize": 135,
      "weight": 540,
      "locktime": 0,
      "vin": [
        {
          "coinbase": "04ffff001d023603",
          "sequence": 4294967295
        }
      ],
      "vout": [
        {
          "value": 50.0,
          "n": 0,
          "scriptPubKey": {
            "asm": "0475089f5ac3401f3d7dd911e86a3bc9aa2e1253cc7805b5934949a3997b6d774ddf289238da349bb3656041aa0dd266e0170a720e7c3f42d689b1229805f9a8d4 OP_CHECKSIG",
            "desc": "pk(0475089f5ac3401f3d7dd911e86a3bc9aa2e1253cc7805b5934949a3997b6d774ddf289238da349bb3656041aa0dd266e0170a720e7c3f42d689b1229805f9a8d4)#nq2rdh66",
            "hex": "410475089f5ac3401f3d7dd911e86a3bc9aa2e1253cc7805b5934949a3997b6d774ddf289238da349bb3656041aa0dd266e0170a720e7c3f42d689b1229805f9a8d4ac",
            "type": "pubkey"
          }
        }
      ],
      "hex": "01000000010000000000000000000000000000000000000000000000000000000000000000ffffffff0804ffff001d023603ffffffff0100f2052a0100000043410475089f5ac3401f3d7dd911e86a3bc9aa2e1253cc7805b5934949a3997b6d774ddf289238da349bb3656041aa0dd266e0170a720e7c3f42d689b1229805f9a8d4ac00000000"
    }
  ]
}