{
  "hash": "00000000524a5789deef37e630a93efb34117b75e0907c68745d2634d0c9b4e0",
  "confirmations": 47228,
  "height": 5870,
  "version": 1,
  "versionHex": "00000001",
  "merkleroot": "9b175c175d4c9f979b895eb5f7d765a3ccddcc2ad70c7d7239dea30b0d3f51e8",
  "time": 1235818940,
  "mediantime": 1235812336,
  "nonce": 1215233308,
  "bits": "1d00ffff",
  "difficulty": 1,
  "chainwork": "000000000000000000000000000000000000000000000000000016ef16ef16ef",
  "nTx": 1,
  "previousblockhash": "00000000404b5328de24b1830dc776736e2c9ad9b64497929be592d84a856eae",
  "nextblockhash": "00000000c5a96455c917eab60e8a5d033483148c93a96ee1da638286781d24cf",
  "strippedsize": 216,
  "size": 216,
  "weight": 864,
  "tx": [
    {
      "txid": "9b175c175d4c9f979b895eb5f7d765a3ccddcc2ad70c7d7239dea30b0d3f51e8",
      "hash": "9b175c175d4c9f979b895eb5f7d765a3ccddcc2ad70c7d7239dea30b0d3f51e8",
      "version": 1,
      "size": 135,
      "vsize": 135,
      "weight": 540,
      "locktime": 0,
      "vin": [
        {
          "coinbase": "04ffff001d025f02",
          "sequence": 4294967295
        }
      ],
      "vout": [
        {
          "value": 50.0,
          "n": 0,
          "scriptPubKey": {
            "asm": "044c723131f4bf60d9d8b07af1159cee8c6f00d3a267875bfa0b66aa4c2d9973cfa85fd111d05caad7f79d754bb88c0379d9d31b0882a1f4597e271558623854f6 OP_CHECKSIG",
            "desc": "pk(044c723131f4bf60d9d8b07af1159cee8c6f00d3a267875bfa0b66aa4c2d9973cfa85fd111d05caad7f79d754bb88c0379d9d31b0882a1f4597e271558623854f6)#vqf9nglc",
            "hex": "41044c723131f4bf60d9d8b07af1159cee8c6f00d3a267875bfa0b66aa4c2d9973cfa85fd111d05caad7f79d754bb88c0379d9d31b0882a1f4597e271558623854f6ac",
            "type": "pubkey"
          }
        }
      ],
      "hex": "01000000010000000000000000000000000000000000000000000000000000000000000000ffffffff0804ffff001d025f02ffffffff0100f2052a010000004341044c723131f4bf60d9d8b07af1159cee8c6f00d3a267875bfa0b66aa4c2d9973cfa85fd111d05caad7f79d754bb88c0379d9d31b0882a1f4597e271558623854f6ac00000000"
    }
  ]
}