{
  "hash": "00000000b9938ade2272609da8a83179d919aa80774c5f2577168dfb1eb51a8f",
  "confirmations": 52012,
  "height": 223,
  "version": 1,
  "versionHex": "00000001",
  "merkleroot": "2038fd408bb42f6c8a0484c82e6ad2d11756cf7d6b47716ed663fa2addeeb1b4",
  "time": 1231771213,
  "mediantime": 1231766966,
  "nonce": 2776679704,
  "bits": "1d00ffff",
  "difficulty": 1,
  "chainwork": "000000000000000000000000000000000000000000000000000000e000e000e0",
  "nTx": 1,
  "previousblockhash": "000000004da68466ee873c7095c766baf62df93a16df579350e01e7f78911616",
  "nextblockhash": "000000003c29d5cb24584ddb079dd51cf9ecd02a96de0aecf05f8c2bcfa709f2",
  "strippedsize": 216,
  "size": 216,
  "weight": 864,
  "tx": [
    {
      "txid": "2038fd408bb42f6c8a0484c82e6ad2d11756cf7d6b47716ed663fa2addeeb1b4",
      "hash": "2038fd408bb42f6c8a0484c82e6ad2d11756cf7d6b47716ed663fa2addeeb1b4",
      "version": 1,
      "size": 135,
      "vsize": 135,
      "weight": 540,
      "locktime": 0,
      "vin": [
        {
          "coinbase": "04ffff001d02a300",
          "sequence": 4294967295
        }
      ],
      "vout": [
        {
          "value": 50.0,
          "n": 0,
          "scriptPubKey": {
            "asm": "04840625cc27ae2cf9792d2a42ad091e729ee6ae09784126ca676453d9196bfcc88bf7c8958a8bebbae043f7863d2f9254d81222de0263ae1283a3ec28cf9e41bd OP_CHECKSIG",
            "desc": "pk(04840625cc27ae2cf9792d2a42ad091e729ee6ae09784126ca676453d9196bfcc88bf7c8958a8bebbae043f7863d2f9254d81222de0263ae1283a3ec28cf9e41bd)#ayuk6mnh",
            "hex": "4104840625cc27ae2cf9792d2a42ad091e729ee6ae09784126ca676453d9196bfcc88bf7c8958a8bebbae043f7863d2f9254d81222de0263ae1283a3ec28cf9e41bdac",
            "type": "pubkey"
          }
        }
      ],
      "hex": "01000000010000000000000000000000000000000000000000000000000000000000000000ffffffff0804ffff001d02a300ffffffff0100f2052a01000000434104840625cc27ae2cf9792d2a42ad091e729ee6ae09784126ca676453d9196bfcc88bf7c8958a8bebbae043f7863d2f9254d81222de0263ae1283a3ec28cf9e41bdac00000000"
    }
  ]
}