{
  "hash": "00000000657735ca6d3368548751e8c4cde75698d0ed4f55e3f1297e27724c21",
  "confirmations": 52262,
  "height": 836,
  "version": 1,
  "versionHex": "00000001",
  "merkleroot": "284a4ecb86e143dad168e76c1c8a9a802faaa56545c289d736462994f21eb686",
  "time": 1232219534,
  "mediantime": 1232214634,
  "nonce": 1301568296,
  "bits": "1d00ffff",
  "difficulty": 1,
  "chainwork": "0000000000000000000000000000000000000000000000000000034503450345",
  "nTx": 1,
  "previousblockhash": "000000000d307eda232d986738cdd01ee4161cb51a3994f8a54f6e67fd1b4554",
  "nextblockhash": "0000000064ce70558fb016627685f36a7a5ef46cd818e850baa21ce5fe4ea041",
  "strippedsize": 216,
  "size": 216,
  "weight": 864,
  "tx": [
    {
      "txid": "284a4ecb86e143dad168e76c1c8a9a802faaa56545c289d736462994f21eb686",
      "hash": "284a4ecb86e143dad168e76c1c8a9a802faaa56545c289d736462994f21eb686",
      "version": 1,
      "size": 135,
      "vsize": 135,
      "weight": 540,
      "locktime": 0,
      "vin": [
        {
          "coinbase": "04ffff001d022602",
          "sequence": 4294967295
        }
      ],
      "vout": [
        {
          "value": 50.0,
          "n": 0,
          "scriptPubKey": {
            "asm": "04bf498941cce46614f90059d2904109fa24966342218bb2a27c5f4024957c316288c8cd0d78510b3e013ca507ebffd146285b46b570d3f1548f9266b2bf68347b OP_CHECKSIG",
            "desc": "pk(04bf498941cce46614f90059d2904109fa24966342218bb2a27c5f4024957c316288c8cd0d78510b3e013ca507ebffd146285b46b570d3f1548f9266b2bf68347b)#ufejldjj",
            "hex": "4104bf498941cce46614f90059d2904109fa24966342218bb2a27c5f4024957c316288c8cd0d78510b3e013ca507ebffd146285b46b570d3f1548f9266b2bf68347bac",
            "type": "pubkey"
          }
        }
      ],
      "hex": "01000000010000000000000000000000000000000000000000000000000000000000000000ffffffff0804ffff001d022602ffffffff0100f2052a01000000434104bf498941cce46614f90059d2904109fa24966342218bb2a27c5f4024957c316288c8cd0d78510b3e013ca507ebffd146285b46b570d3f1548f9266b2bf68347bac00000000"
    }
  ]
}