{
  "hash": "0000000083be2e513d76f87ebdf93310040ecb5ec14556bbe2b635bad65bdbdb",
  "confirmations": 47747,
  "height": 5351,
  "version": 1,
  "versionHex": "00000001",
  "merkleroot": "c16a1581c43b2fe718727c035f7dbd5e56d7f459b18b79863f86dc2304db46bc",
  "time": 1235404597,
  "mediantime": 1235399945,
  "nonce": 52413337,
  "bits": "1d00ffff",
  "difficulty": 1,
  "chainwork": "000000000000000000000000000000000000000000000000000014e814e814e8",
  "nTx": 1,
  "previousblockhash": "00000000660aaa727ebc610ed069e23abd28f516c614de894e1492994df78edc",
  "nextblockhash": "000000005ddd8f039574aca662cbb1bb13d4e295b6bcbc48f602859d2c44a651",
  "strippedsize": 216,
  "size": 216,
  "weight": 864,
  "tx": [
    {
      "txid": "c16a1581c43b2fe718727c035f7dbd5e56d7f459b18b79863f86dc2304db46bc",
      "hash": "c16a1581c43b2fe718727c035f7dbd5e56d7f459b18b79863f86dc2304db46bc",
      "version": 1,
      "size": 135,
      "vsize": 135,
      "weight": 540,
      "locktime": 0,
      "vin": [
        {
          "coinbase": "04ffff001d02840d",
          "sequence": 4294967295
        }
      ],
      "vout": [
        {
          "value": 50.0,
          "n": 0,
          "scriptPubKey": {
            "asm": "041bc874cf41bd813a81a3d476ce3f1837bae0629642ca1731db61573280cfb4e365265b45eafec70277534b2eb026e271d68c11e19a0ae28218b1e16f3910d6c7 OP_CHECKSIG",
            "desc": "pk(041bc874cf41bd813a81a3d476ce3f1837bae0629642ca1731db61573280cfb4e365265b45eafec70277534b2eb026e271d68c11e19a0ae28218b1e16f3910d6c7)#9gtyulsp",
            "hex": "41041bc874cf41bd813a81a3d476ce3f1837bae0629642ca1731db61573280cfb4e365265b45eafec70277534b2eb026e271d68c11e19a0ae28218b1e16f3910d6c7ac",
            "type": "pubkey"
          }
        }
      ],
      "hex": "01000000010000000000000000000000000000000000000000000000000000000000000000ffffffff0804ffff001d02840dffffffff0100f2052a010000004341041bc874cf41bd813a81a3d476ce3f1837bae0629642ca1731db61573280cfb4e365265b45eafec70277534b2eb026e271d68c11e19a0ae28218b1e16f3910d6c7ac00000000"
    }
  ]
}