{
  "hash": "00000000a96bdf4e502b7d85a83d49210c87c078b6660db63223c18b80ed1e01",
  "confirmations": 45300,
  "height": 7798,
  "version": 1,
  "versionHex": "00000001",
  "merkleroot": "016e1b250bfc5baa746442c821a9877d07bfd564598ab6ae26a84707720abd79",
  "time": 1237311626,
  "mediantime": 1237307800,
  "nonce": 2271219458,
  "bits": "1d00ffff",
  "difficulty": 1,
  "chainwork": "00000000000000000000000000000000000000000000000000001e771e771e77",
  "nTx": 1,
  "previousblockhash": "00000000b277e2c2a4394ee3db957aa51a3cfd7b69d0927775dab0240be3d0c3",
  "nextblockhash": "000000007dcb08390ceb41de84f0d2afdbbdb073158860d1b07b869817817bdd",
  "strippedsize": 216,
  "size": 216,
  "weight": 864,
  "tx": [
    {
      "txid": "016e1b250bfc5baa746442c821a9877d07bfd564598ab6ae26a84707720abd79",
      "hash": "016e1b250bfc5baa746442c821a9877d07bfd564598ab6ae26a84707720abd79",
      "version": 1,
      "size": 135,
      "vsize": 135,
      "weight": 540,
      "locktime": 0,
      "vin": [
        {
          "coinbase": "04ffff001d02d305",
          "sequence": 4294967295
        }
      ],
      "vout": [
        {
          "value": 50.0,
          "n": 0,
          "scriptPubKey": {
            "asm": "045d5f8b8b9b07409c77d658a01cd7f63876d2562854972daccb2466246e18fed9e281bced5cc3d6fd72766bc1e8e5ae3f4fe652bf0cee9b635afeb815e2992870 OP_CHECKSIG",
            "desc": "pk(045d5f8b8b9b07409c77d658a01cd7f63876d2562854972daccb2466246e18fed9e281bced5cc3d6fd72766bc1e8e5ae3f4fe652bf0cee9b635afeb815e2992870)#hzsjtxu8",
            "hex": "41045d5f8b8b9b07409c77d658a01cd7f63876d2562854972daccb2466246e18fed9e281bced5cc3d6fd72766bc1e8e5ae3f4fe652bf0cee9b635afeb815e2992870ac",
            "type": "pubkey"
          }
        }
      ],
      "hex": "01000000010000000000000000000000000000000000000000000000000000000000000000ffffffff0804ffff001d02d305ffffffff0100f2052a010000004341045d5f8b8b9b07409c77d658a01cd7f63876d2562854972daccb2466246e18fed9e281bced5cc3d6fd72766bc1e8e5ae3f4fe652bf0cee9b635afeb815e2992870ac00000000"
    }
  ]
}