{
  "hash": "00000000932e1c579fbada13c7168d6dc307e09c9e1499926731018a73abe236",
  "confirmations": 43354,
  "height": 9744,
  "version": 1,
  "versionHex": "00000001",
  "merkleroot": "1a039d96f168532dc8f4213faf3da816eb09ce985a271e7ff794af64ca82a2cf",
  "time": 1238810075,
  "mediantime": 1238805277,
  "nonce": 1136691,
  "bits": "1d00ffff",
  "difficulty": 1,
  "chainwork": "0000000000000000000000000000000000000000000000000000261126112611",
  "nTx": 1,
  "previousblockhash": "00000000f2a763b0145769996922672b59668d446bf457b349e428deedb63475",
  "nextblockhash": "0000000098821d4ed9bf9ea134102e88a46b64179a0c9dcfe9d47f4734780e9a",
  "strippedsize": 216,
  "size": 216,
  "weight": 864,
  "tx": [
    {
      "txid": "1a039d96f168532dc8f4213faf3da816eb09ce985a271e7ff794af64ca82a2cf",
      "hash": "1a039d96f168532dc8f4213faf3da816eb09ce985a271e7ff794af64ca82a2cf",
      "version": 1,
      "size": 135,
      "vsize": 135,
      "weight": 540,
      "locktime": 0,
      "vin": [
        {
          "coinbase": "04ffff001d027309",
          "sequence": 4294967295
        }
      ],
      "vout": [
        {
          "value": 50.0,
          "n": 0,
          "scriptPubKey": {
            "asm": "04503a1b28e4ca4e79158a4b3105dd2339ca8ac73df9239bed612807391c7e5b9e625f3acacb5632fe49c0c89346e76d34390bafe9264be8ef27f0df0ddc9424c0 OP_CHECKSIG",
            "desc": "pk(04503a1b28e4ca4e79158a4b3105dd2339ca8ac73df9239bed612807391c7e5b9e625f3acacb5632fe49c0c89346e76d34390bafe9264be8ef27f0df0ddc9424c0)#k2ayup75",
            "hex": "4104503a1b28e4ca4e79158a4b3105dd2339ca8ac73df9239bed612807391c7e5b9e625f3acacb5632fe49c0c89346e76d34390bafe9264be8ef27f0df0ddc9424c0ac",
            "type": "pubkey"
          }
        }
      ],
      "hex": "01000000010000000000000000000000000000000000000000000000000000000000000000ffffffff0804ffff001d027309ffffffff0100f2052a01000000434104503a1b28e4ca4e79158a4b3105dd2339ca8ac73df9239bed612807391c7e5b9e625f3acacb5632fe49c0c89346e76d34390bafe9264be8ef27f0df0ddc9424c0ac00000000"
    }
  ]
}