{
  "hash": "00000000887d1fe5c13d7f73e8a449dafd2b2748bb55e4510526c9dbb9eebf09",
  "confirmations": 52278,
  "height": 820,
  "version": 1,
  "versionHex": "00000001",
  "merkleroot": "749dae073371bbe5a1ddc5b127c1f7a6f81afe84740626570eed953cc5872401",
  "time": 1232207788,
  "mediantime": 1232203123,
  "nonce": 3732512823,
  "bits": "1d00ffff",
  "difficulty": 1,
  "chainwork": "0000000000000000000000000000000000000000000000000000033503350335",
  "nTx": 1,
  "previousblockhash": "000000000b87c229c784a01753187dfb220686a651cc0074626a68e1cf7f12ec",
  "nextblockhash": "00000000e21e0a8b165db2ab777088ac1e8872870751f7e9f66bcac95e4d0bbc",
  "strippedsize": 216,
  "size": 216,
  "weight": 864,
  "tx": [
    {
      "txid": "749dae073371bbe5a1ddc5b127c1f7a6f81afe84740626570eed953cc5872401",
      "hash": "749dae073371bbe5a1ddc5b127c1f7a6f81afe84740626570eed953cc5872401",
      "version": 1,
      "size": 135,
      "vsize": 135,
      "weight": 540,
      "locktime": 0,
      "vin": [
        {
          "coinbase": "04ffff001d02da01",
          "sequence": 4294967295
        }
      ],
      "vout": [
        {
          "value": 50.0,
          "n": 0,
          "scriptPubKey": {
            "asm": "043925fdf930bc8feb80b4b78dbddae4b7c1701b633b79832e660631109d7b08c5f1317a6826847968ca44fb2ffcedcb690e17d5a126f792bdcc57e0e499a712cb OP_CHECKSIG",
            "desc": "pk(043925fdf930bc8feb80b4b78dbddae4b7c1701b633b79832e660631109d7b08c5f1317a6826847968ca44fb2ffcedcb690e17d5a126f792bdcc57e0e499a712cb)#ujjserue",
            "hex": "41043925fdf930bc8feb80b4b78dbddae4b7c1701b633b79832e660631109d7b08c5f1317a6826847968ca44fb2ffcedcb690e17d5a126f792bdcc57e0e499a712cbac",
            "type": "pubkey"
          }
        }
      ],
      "hex": "01000000010000000000000000000000000000000000000000000000000000000000000000ffffffff0804ffff001d02da01ffffffff0100f2052a010000004341043925fdf930bc8feb80b4b78dbddae4b7c1701b633b79832e660631109d7b08c5f1317a6826847968ca44fb2ffcedcb690e17d5a126f792bdcc57e0e499a712cbac00000000"
    }
  ]
}