{
  "hash": "00000000dd9da4f4a2a548c90f3cb923088ad0cfc34a81fd3ff89f53e079ed8a",
  "confirmations": 46833,
  "height": 6265,
  "version": 1,
  "versionHex": "00000001",
  "merkleroot": "276191236913c59fab13c5e6d0e17ce4dcabf3ca23df1abb3bba946220811920",
  "time": 1236146014,
  "mediantime": 1236141814,
  "nonce": 3793446403,
  "bits": "1d00ffff",
  "difficulty": 1,
  "chainwork": "0000000000000000000000000000000000000000000000000000187a187a187a",
  "nTx": 1,
  "previousblockhash": "000000005e0d1e0091ef61960feb9f0505ab33748ebd951095e74070f902582e",
  "nextblockhash": "00000000db8062ab6a11d1854fb52903c0264308a9d8ea3ec191417cba5e3cb4",
  "strippedsize": 216,
  "size": 216,
  "weight": 864,
  "tx": [
    {
      "txid": "276191236913c59fab13c5e6d0e17ce4dcabf3ca23df1abb3bba946220811920",
      "hash": "276191236913c59fab13c5e6d0e17ce4dcabf3ca23df1abb3bba946220811920",
      "version": 1,
      "size": 135,
      "vsize": 135,
      "weight": 540,
      "locktime": 0,
      "vin": [
        {
          "coinbase": "04ffff001d02df09",
          "sequence": 4294967295
        }
      ],
      "vout": [
        {
          "value": 50.0,
          "n": 0,
          "scriptPubKey": {
            "asm": "0487fece47e101b011034d41ac2ee87e3aa8e04bc6b2ae88a3236224638a9b6377d865ffd59d809a94d28d5879e6b50354bc12081309590407c4bae757ffe38ba0 OP_CHECKSIG",
            "desc": "pk(0487fece47e101b011034d41ac2ee87e3aa8e04bc6b2ae88a3236224638a9b6377d865ffd59d809a94d28d5879e6b50354bc12081309590407c4bae757ffe38ba0)#qexk0z72",
            "hex": "410487fece47e101b011034d41ac2ee87e3aa8e04bc6b2ae88a3236224638a9b6377d865ffd59d809a94d28d5879e6b50354bc12081309590407c4bae757ffe38ba0ac",
            "type": "pubkey"
          }
        }
      ],
      "hex": "01000000010000000000000000000000000000000000000000000000000000000000000000ffffffff0804ffff001d02df09ffffffff0100f2052a0100000043410487fece47e101b011034d41ac2ee87e3aa8e04bc6b2ae88a3236224638a9b6377d865ffd59d809a94d28d5879e6b50354bc12081309590407c4bae757ffe38ba0ac00000000"
    }
  ]
}