{
  "hash": "00000000b293631d7242437048e2cd5e2a731d32095bccc9dd59f3279b904dc6",
  "confirmations": 45332,
  "height": 7766,
  "version": 1,
  "versionHex": "00000001",
  "merkleroot": "c902892d4a4f2b522c4e6768e78a69df64e2d1045058e5fb21deeda64b7c7d20",
  "time": 1237289885,
  "mediantime": 1237285075,
  "nonce": 3938615319,
  "bits": "1d00ffff",
  "difficulty": 1,
  "chainwork": "00000000000000000000000000000000000000000000000000001e571e571e57",
  "nTx": 1,
  "previousblockhash": "000000005e5eaebb1f806e1f3d72a9f8c0d79a096346e6dd5a68c0de1fe0da8d",
  "nextblockhash": "00000000c8150258cb19b6a22698c759d3ea773574836ee67fe90bb0c9e87e3b",
  "strippedsize": 216,
  "size": 216,
  "weight": 864,
  "tx": [
    {
      "txid": "c902892d4a4f2b522c4e6768e78a69df64e2d1045058e5fb21deeda64b7c7d20",
      "hash": "c902892d4a4f2b522c4e6768e78a69df64e2d1045058e5fb21deeda64b7c7d20",
      "version": 1,
      "size": 135,
      "vsize": 135,
      "weight": 540,
      "locktime": 0,
      "vin": [
        {
          "coinbase": "04ffff001d024c05",
          "sequence": 4294967295
        }
      ],
      "vout": [
        {
          "value": 50.0,
          "n": 0,
          "scriptPubKey": {
            "asm": "0441f009927c9ea94603ac4da72b33d2eacab3438a436a726331a1f83a4070164017c72e3f59f3532e3c00483d5d215ccdaa47286a9796171d44f71ea9aa596b06 OP_CHECKSIG",
            "desc": "pk(0441f009927c9ea94603ac4da72b33d2eacab3438a436a726331a1f83a4070164017c72e3f59f3532e3c00483d5d215ccdaa47286a9796171d44f71ea9aa596b06)#344xt3mn",
            "hex": "410441f009927c9ea94603ac4da72b33d2eacab3438a436a726331a1f83a4070164017c72e3f59f3532e3c00483d5d215ccdaa47286a9796171d44f71ea9aa596b06ac",
            "type": "pubkey"
          }
        }
      ],
      "hex": "01000000010000000000000000000000000000000000000000000000000000000000000000ffffffff0804ffff001d024c05ffffffff0100f2052a0100000043410441f009927c9ea94603ac4da72b33d2eacab3438a436a726331a1f83a4070164017c72e3f59f3532e3c00483d5d215ccdaa47286a9796171d44f71ea9aa596b06ac00000000"
    }
  ]
}