{
  "hash": "000000006be552db28deaa17365da062c1c82d22b03ef060d58b27464c868a2e",
  "confirmations": 49752,
  "height": 3346,
  "version": 1,
  "versionHex": "00000001",
  "merkleroot": "e6ef04ac369d55b2c8b07fbb74a3c80bc3e571b9d64fe926fa34384c03d72e0e",
  "time": 1234001243,
  "mediantime": 1233995847,
  "nonce": 72714682,
  "bits": "1d00ffff",
  "difficulty": 1,
  "chainwork": "00000000000000000000000000000000000000000000000000000d130d130d13",
  "nTx": 1,
  "previousblockhash": "000000008f663714de2265ecff8386ee55bc278abf3c7fa9911c57d6f12f60bb",
  "nextblockhash": "000000004e77aa6cc95fb1b775671d07b1fed4f470c66e86f1b9b39770f5fa71",
  "strippedsize": 216,
  "size": 216,
  "weight": 864,
  "tx": [
    {
      "txid": "e6ef04ac369d55b2c8b07fbb74a3c80bc3e571b9d64fe926fa34384c03d72e0e",
      "hash": "e6ef04ac369d55b2c8b07fbb74a3c80bc3e571b9d64fe926fa34384c03d72e0e",
      "version": 1,
      "size": 135,
      "vsize": 135,
      "weight": 540,
      "locktime": 0,
      "vin": [
        {
          "coinbase": "04ffff001d028908",
          "sequence": 4294967295
        }
      ],
      "vout": [
        {
          "value": 50.0,
          "n": 0,
          "scriptPubKey": {
            "asm": "0444ffcb9259635c7ffbe461aa98293bd368b29ded25a0671a30b478d50036157ae9f2c6adfc00f0a88ced906f6dc1c21106afc44727ff22bd9adf4e1f2b86277f OP_CHECKSIG",
            "desc": "pk(0444ffcb9259635c7ffbe461aa98293bd368b29ded25a0671a30b478d50036157ae9f2c6adfc00f0a88ced906f6dc1c21106afc44727ff22bd9adf4e1f2b86277f)#7tw6d4h4",
            "hex": "410444ffcb9259635c7ffbe461aa98293bd368b29ded25a0671a30b478d50036157ae9f2c6adfc00f0a88ced906f6dc1c21106afc44727ff22bd9adf4e1f2b86277fac",
            "type": "pubkey"
          }
        }
      ],
      "hex": "01000000010000000000000000000000000000000000000000000000000000000000000000ffffffff0804ffff001d028908ffffffff0100f2052a0100000043410444ffcb9259635c7ffbe461aa98293bd368b29ded25a0671a30b478d50036157ae9f2c6adfc00f0a88ced906f6dc1c21106afc44727ff22bd9adf4e1f2b86277fac00000000"
    }
  ]
}