{
  "hash": "000000002741cb4688dd9fa868f920a1f35e8145615c71b48ae8541ac400004c",
  "confirmations": 43296,
  "height": 9802,
  "version": 1,
  "versionHex": "00000001",
  "merkleroot": "e7d3e3ada7cd1f8b50347ab955b87da6cd684029e14c69fa3b600fe26bfab5d4",
  "time": 1238858246,
  "mediantime": 1238854937,
  "nonce": 3206163720,
  "bits": "1d00ffff",
  "difficulty": 1,
  "chainwork": "0000000000000000000000000000000000000000000000000000264b264b264b",
  "nTx": 1,
  "previousblockhash": "000000001e46be0459127a37770c88d455485b00d3ea4a4b93dd76dca6055401",
  "nextblockhash": "00000000199e509e7e2138f0d0b405d725e4b43aca45beb2278b52289d050ce8",
  "strippedsize": 215,
  "size": 215,
  "weight": 860,
  "tx": [
    {
      "txid": "e7d3e3ada7cd1f8b50347ab955b87da6cd684029e14c69fa3b600fe26bfab5d4",
      "hash": "e7d3e3ada7cd1f8b50347ab955b87da6cd684029e14c69fa3b600fe26bfab5d4",
      "version": 1,
      "size": 134,
      "vsize": 134,
      "weight": 536,
      "locktime": 0,
      "vin": [
        {
          "coinbase": "04ffff001d015f",
          "sequence": 4294967295
        }
      ],
      "vout": [
        {
          "value": 50.0,
          "n": 0,
          "scriptPubKey": {
            "asm": "04bc41c0f463571d9995c0ebe6751e0b8dcfe782bdb8b65ea9186a8ff572839822b14e532ff30e41f512a87bd7e686d9f8e68c3243a966466522ab1e750f8cb8dc OP_CHECKSIG",
            "desc": "pk(04bc41c0f463571d9995c0ebe6751e0b8dcfe782bdb8b65ea9186a8ff572839822b14e532ff30e41f512a87bd7e686d9f8e68c3243a966466522ab1e750f8cb8dc)#h4t4zcmn",
            "hex": "4104bc41c0f463571d9995c0ebe6751e0b8dcfe782bdb8b65ea9186a8ff572839822b14e532ff30e41f512a87bd7e686d9f8e68c3243a966466522ab1e750f8cb8dcac",
            "type": "pubkey"
          }
        }
      ],
      "hex": "01000000010000000000000000000000000000000000000000000000000000000000000000ffffffff0704ffff001d015fffffffff0100f2052a01000000434104bc41c0f463571d9995c0ebe6751e0b8dcfe782bdb8b65ea9186a8ff572839822b14e532ff30e41f512a87bd7e686d9f8e68c3243a966466522ab1e750f8cb8dcac00000000"
    }
  ]
}