{
  "hash": "000000003c1432390c69b55b7797cc61d73c1c26b78eaa0d46796b1c6ccaf8c8",
  "confirmations": 52062,
  "height": 274,
  "version": 1,
  "versionHex": "00000001",
  "merkleroot": "9e8c82aed2631cc68d823f7e753b906cf26a5f2d1ce089d147de4d2175cbcb22",
  "time": 1231811622,
  "mediantime": 1231807293,
  "nonce": 2011367712,
  "bits": "1d00ffff",
  "difficulty": 1,
  "chainwork": "0000000000000000000000000000000000000000000000000000011301130113",
  "nTx": 1,
  "previousblockhash": "000000009ed94f7234f1c82c7874b938dc2e3e09551eed7ae86c2295d4ac7dd0",
  "nextblockhash": "00000000cb9259bda1b43bb1bc7ee46f1f04ddea0afe7ab542193b3c8761f918",
  "strippedsize": 216,
  "size": 216,
  "weight": 864,
  "tx": [
    {
      "txid": "9e8c82aed2631cc68d823f7e753b906cf26a5f2d1ce089d147de4d2175cbcb22",
      "hash": "9e8c82aed2631cc68d823f7e753b906cf26a5f2d1ce089d147de4d2175cbcb22",
      "version": 1,
      "size": 135,
      "vsize": 135,
      "weight": 540,
      "locktime": 0,
      "vin": [
        {
          "coinbase": "04ffff001d028901",
          "sequence": 4294967295
        }
      ],
      "vout": [
        {
          "value": 50.0,
          "n": 0,
          "scriptPubKey": {
            "asm": "04eaf79a39f52571f66fe621e20a94679cc05c9aba52e8a468c1cd39192f50e8e969da47be611d2a74bd02c36fdb8cb4317b530976055663fd9195f2f8d7c35e87 OP_CHECKSIG",
            "desc": "pk(04eaf79a39f52571f66fe621e20a94679cc05c9aba52e8a468c1cd39192f50e8e969da47be611d2a74bd02c36fdb8cb4317b530976055663fd9195f2f8d7c35e87)#7d8t94yh",
            "hex": "4104eaf79a39f52571f66fe621e20a94679cc05c9aba52e8a468c1cd39192f50e8e969da47be611d2a74bd02c36fdb8cb4317b530976055663fd9195f2f8d7c35e87ac",
            "type": "pubkey"
          }
        }
      ],
      "hex": "01000000010000000000000000000000000000000000000000000000000000000000000000ffffffff0804ffff001d028901ffffffff0100f2052a01000000434104eaf79a39f52571f66fe621e20a94679cc05c9aba52e8a468c1cd39192f50e8e969da47be611d2a74bd02c36fdb8cb4317b530976055663fd9195f2f8d7c35e87ac00000000"
    }
  ]
}