{
  "hash": "0000000003e0d27d803c20957f34bd5f12758f7c4bf2e9db2a399338439f27ba",
  "confirmations": 51680,
  "height": 1418,
  "version": 1,
  "versionHex": "00000001",
  "merkleroot": "c6a40435705fa52c5c4b80204a2061d120ab98a27fea406ea65e97343751af75",
  "time": 1232732779,
  "mediantime": 1232730965,
  "nonce": 1889362205,
  "bits": "1d00ffff",
  "difficulty": 1,
  "chainwork": "0000000000000000000000000000000000000000000000000000058b058b058b",
  "nTx": 1,
  "previousblockhash": "00000000bc4155ab5b60547430a8447e80b75e4eb7662f1bdfb10ad6031c27e0",
  "nextblockhash": "00000000c987e02ccad0264c844cdd8b93bd4e8a21339b0335ea0a14c33ffd1e",
  "strippedsize": 215,
  "size": 215,
  "weight": 860,
  "tx": [
    {
      "txid": "c6a40435705fa52c5c4b80204a2061d120ab98a27fea406ea65e97343751af75",
      "hash": "c6a40435705fa52c5c4b80204a2061d120ab98a27fea406ea65e97343751af75",
      "version": 1,
      "size": 134,
      "vsize": 134,
      "weight": 536,
      "locktime": 0,
      "vin": [
        {
          "coinbase": "04ffff001d0156",
          "sequence": 4294967295
        }
      ],
      "vout": [
        {
          "value": 50.0,
          "n": 0,
          "scriptPubKey": {
            "asm": "04b66770b8614ed317e43be9ddeab339318795325100c64210787d475fc0d9042ef91fc8db4eacc1ac4abf03fdbb71061468646bc5c4c1c55c19e61d7da61788b3 OP_CHECKSIG",
            "desc": "pk(04b66770b8614ed317e43be9ddeab339318795325100c64210787d475fc0d9042ef91fc8db4eacc1ac4abf03fdbb71061468646bc5c4c1c55c19e61d7da61788b3)#cr5mmdcm",
            "hex": "4104b66770b8614ed317e43be9ddeab339318795325100c64210787d475fc0d9042ef91fc8db4eacc1ac4abf03fdbb71061468646bc5c4c1c55c19e61d7da61788b3ac",
            "type": "pubkey"
          }
        }
      ],
      "hex": "01000000010000000000000000000000000000000000000000000000000000000000000000ffffffff0704ffff001d0156ffffffff0100f2052a01000000434104b66770b8614ed317e43be9ddeab339318795325100c64210787d475fc0d9042ef91fc8db4eacc1ac4abf03fdbb71061468646bc5c4c1c55c19e61d7da61788b3ac00000000"
    }
  ]
}