{
  "hash": "000000004dca9d4af3df4fa16dc3dc9e04d37cce4c925da7ef0b91f33733dc1c",
  "confirmations": 49169,
  "height": 3929,
  "version": 1,
  "versionHex": "00000001",
  "merkleroot": "5d854369ffe85d5cffff9c62c6ba31ed9a9d0a9804f51b4153d9cfb40f8eda5f",
  "time": 1234391796,
  "mediantime": 1234388265,
  "nonce": 3276248582,
  "bits": "1d00ffff",
  "difficulty": 1,
  "chainwork": "00000000000000000000000000000000000000000000000000000f5a0f5a0f5a",
  "nTx": 1,
  "previousblockhash": "00000000976965a8a42bea78796d37483a549fb4c6dacb197efca98361ca1c8e",
  "nextblockhash": "00000000a4c3f917d2f918328c416affb1c33d3fa4f048474c43804d689878db",
  "strippedsize": 216,
  "size": 216,
  "weight": 864,
  "tx": [
    {
      "txid": "5d854369ffe85d5cffff9c62c6ba31ed9a9d0a9804f51b4153d9cfb40f8eda5f",
      "hash": "5d854369ffe85d5cffff9c62c6ba31ed9a9d0a9804f51b4153d9cfb40f8eda5f",
      "version": 1,
      "size": 135,
      "vsize": 135,
      "weight": 540,
      "locktime": 0,
      "vin": [
        {
          "coinbase": "04ffff001d024a03",
          "sequence": 4294967295
        }
      ],
      "vout": [
        {
          "value": 50.0,
          "n": 0,
          "scriptPubKey": {
            "asm": "04590fb95d1f8b3808411c876a7904dc5f3f16c99cc75bde99361f1fe6cf01a2a0602c0da2dbd01fd91df5319c79e884af582d4479e2c17d223c6cf8cf0b749179 OP_CHECKSIG",
            "desc": "pk(04590fb95d1f8b3808411c876a7904dc5f3f16c99cc75bde99361f1fe6cf01a2a0602c0da2dbd01fd91df5319c79e884af582d4479e2c17d223c6cf8cf0b749179)#n4ze4qya",
            "hex": "4104590fb95d1f8b3808411c876a7904dc5f3f16c99cc75bde99361f1fe6cf01a2a0602c0da2dbd01fd91df5319c79e884af582d4479e2c17d223c6cf8cf0b749179ac",
            "type": "pubkey"
          }
        }
      ],
      "hex": "01000000010000000000000000000000000000000000000000000000000000000000000000ffffffff0804ffff001d024a03ffffffff0100f2052a01000000434104590fb95d1f8b3808411c876a7904dc5f3f16c99cc75bde99361f1fe6cf01a2a0602c0da2dbd01fd91df5319c79e884af582d4479e2c17d223c6cf8cf0b749179ac00000000"
    }
  ]
}