{
  "hash": "0000000002f68be966d73de0212c2b7b0f1184c99d700b076dcfda31edb88d0c",
  "confirmations": 45758,
  "height": 7340,
  "version": 1,
  "versionHex": "00000001",
  "merkleroot": "cc26ac1f72f1ee3dfe0e8c97273d2556e2a12776d02a7b0bde19ee7fd3253bb7",
  "time": 1236977252,
  "mediantime": 1236973719,
  "nonce": 2294964531,
  "bits": "1d00ffff",
  "difficulty": 1,
  "chainwork": "00000000000000000000000000000000000000000000000000001cad1cad1cad",
  "nTx": 1,
  "previousblockhash": "000000000c6426c4056160cbc92d0d1cdecf1b6684c4eecefedeec1d25c03a24",
  "nextblockhash": "00000000f9951538ba14b27d91a73a555eb06c0a7ac2c05f6a9eacc0b75565b1",
  "strippedsize": 216,
  "size": 216,
  "weight": 864,
  "tx": [
    {
      "txid": "cc26ac1f72f1ee3dfe0e8c97273d2556e2a12776d02a7b0bde19ee7fd3253bb7",
      "hash": "cc26ac1f72f1ee3dfe0e8c97273d2556e2a12776d02a7b0bde19ee7fd3253bb7",
      "version": 1,
      "size": 135,
      "vsize": 135,
      "weight": 540,
      "locktime": 0,
      "vin": [
        {
          "coinbase": "04ffff001d025608",
          "sequence": 4294967295
        }
      ],
      "vout": [
        {
          "value": 50.0,
          "n": 0,
          "scriptPubKey": {
            "asm": "0414751a8e734da3b90274de3cbfb0df166c9f9967d60c3827765cd584bc987ed0178c7d04ca201f5b85491cc6a04840e9a05a08597fd942a467bc5f9ce8ea32cf OP_CHECKSIG",
            "desc": "pk(0414751a8e734da3b90274de3cbfb0df166c9f9967d60c3827765cd584bc987ed0178c7d04ca201f5b85491cc6a04840e9a05a08597fd942a467bc5f9ce8ea32cf)#rpxwapcf",
            "hex": "410414751a8e734da3b90274de3cbfb0df166c9f9967d60c3827765cd584bc987ed0178c7d04ca201f5b85491cc6a04840e9a05a08597fd942a467bc5f9ce8ea32cfac",
            "type": "pubkey"
          }
        }
      ],
      "hex": "01000000010000000000000000000000000000000000000000000000000000000000000000ffffffff0804ffff001d025608ffffffff0100f2052a0100000043410414751a8e734da3b90274de3cbfb0df166c9f9967d60c3827765cd584bc987ed0178c7d04ca201f5b85491cc6a04840e9a05a08597fd942a467bc5f9ce8ea32cfac00000000"
    }
  ]
}