{
  "hash": "000000004a55646233610a6524b766a472a8764e8a8db78e752b9fcefd9cb01c",
  "confirmations": 52281,
  "height": 817,
  "version": 1,
  "versionHex": "00000001",
  "merkleroot": "818d4e526d9069e9aba5651a7a4417a4478959fc0e5a59f9a898e9435e485804",
  "time": 1232205957,
  "mediantime": 1232201792,
  "nonce": 2779824183,
  "bits": "1d00ffff",
  "difficulty": 1,
  "chainwork": "0000000000000000000000000000000000000000000000000000033203320332",
  "nTx": 1,
  "previousblockhash": "0000000099b87777f68f4308d652508aff9e586f314c69a58f30bb6c22b6b58c",
  "nextblockhash": "00000000c43eb3505e99a37a7e5c85de0c04a8fdb16462b900f7f3c6b9ed586e",
  "strippedsize": 216,
  "size": 216,
  "weight": 864,
  "tx": [
    {
      "txid": "818d4e526d9069e9aba5651a7a4417a4478959fc0e5a59f9a898e9435e485804",
      "hash": "818d4e526d9069e9aba5651a7a4417a4478959fc0e5a59f9a898e9435e485804",
      "version": 1,
      "size": 135,
      "vsize": 135,
      "weight": 540,
      "locktime": 0,
      "vin": [
        {
          "coinbase": "04ffff001d02cb01",
          "sequence": 4294967295
        }
      ],
      "vout": [
        {
          "value": 50.0,
          "n": 0,
          "scriptPubKey": {
            "asm": "04ac0a089c753113a10e6d195102b496ec1e2a547eb5a4016d75791455d6149e3e4d4a8160e3260cd90dc60a99bb7294f3351b114ca011e03744b43339b6b9bdcd OP_CHECKSIG",
            "desc": "pk(04ac0a089c753113a10e6d195102b496ec1e2a547eb5a4016d75791455d6149e3e4d4a8160e3260cd90dc60a99bb7294f3351b114ca011e03744b43339b6b9bdcd)#wegy745y",
            "hex": "4104ac0a089c753113a10e6d195102b496ec1e2a547eb5a4016d75791455d6149e3e4d4a8160e3260cd90dc60a99bb7294f3351b114ca011e03744b43339b6b9bdcdac",
            "type": "pubkey"
          }
        }
      ],
      "hex": "01000000010000000000000000000000000000000000000000000000000000000000000000ffffffff0804ffff001d02cb01ffffffff0100f2052a01000000434104ac0a089c753113a10e6d195102b496ec1e2a547eb5a4016d75791455d6149e3e4d4a8160e3260cd90dc60a99bb7294f3351b114ca011e03744b43339b6b9bdcdac00000000"
    }
  ]
}