{
  "hash": "00000000791c28f549fcdbacd3b4abeff8ea70825c0fc155badb8897f62a2051",
  "confirmations": 46566,
  "height": 6532,
  "version": 1,
  "versionHex": "00000001",
  "merkleroot": "f5c16e3dc1256f5674573a8b77d200a17cd24303d9c2fde2cbb9569290e77c82",
  "time": 1236351531,
  "mediantime": 1236349029,
  "nonce": 9454115,
  "bits": "1d00ffff",
  "difficulty": 1,
  "chainwork": "0000000000000000000000000000000000000000000000000000198519851985",
  "nTx": 1,
  "previousblockhash": "0000000041d7905b4d2c6a48716ce577653b5a136b0a4abce3c2cb9c014908a1",
  "nextblockhash": "000000001bd3bd7c4440227437814ea02c136812b5b542a64b4432984adb71fd",
  "strippedsize": 216,
  "size": 216,
  "weight": 864,
  "tx": [
    {
      "txid": "f5c16e3dc1256f5674573a8b77d200a17cd24303d9c2fde2cbb9569290e77c82",
      "hash": "f5c16e3dc1256f5674573a8b77d200a17cd24303d9c2fde2cbb9569290e77c82",
      "version": 1,
      "size": 135,
      "vsize": 135,
      "weight": 540,
      "locktime": 0,
      "vin": [
        {
          "coinbase": "04ffff001d022304",
          "sequence": 4294967295
        }
      ],
      "vout": [
        {
          "value": 50.0,
          "n": 0,
          "scriptPubKey": {
            "asm": "04b7fb7b8c2d013c091bed99781dc926503c477c2ee7f5975cb6852c9202f42f2883be1bce8bf1d0716bdb8b7f4b4a976e09632695d7d3a659a9f9015d8a2f0a2e OP_CHECKSIG",
            "desc": "pk(04b7fb7b8c2d013c091bed99781dc926503c477c2ee7f5975cb6852c9202f42f2883be1bce8bf1d0716bdb8b7f4b4a976e09632695d7d3a659a9f9015d8a2f0a2e)#tdkn0ck6",
            "hex": "4104b7fb7b8c2d013c091bed99781dc926503c477c2ee7f5975cb6852c9202f42f2883be1bce8bf1d0716bdb8b7f4b4a976e09632695d7d3a659a9f9015d8a2f0a2eac",
            "type": "pubkey"
          }
        }
      ],
      "hex": "01000000010000000000000000000000000000000000000000000000000000000000000000ffffffff0804ffff001d022304ffffffff0100f2052a01000000434104b7fb7b8c2d013c091bed99781dc926503c477c2ee7f5975cb6852c9202f42f2883be1bce8bf1d0716bdb8b7f4b4a976e09632695d7d3a659a9f9015d8a2f0a2eac00000000"
    }
  ]
}