{
  "hash": "000000009bbc82871dd828a2573d035d05cc2947c7d99668609f6c671779436c",
  "confirmations": 51986,
  "height": 354,
  "version": 1,
  "versionHex": "00000001",
  "merkleroot": "987ab2614f1d64bd6315a5e76ca3393716b77cc523be7356d264ee2d9b9b970d",
  "time": 1231868549,
  "mediantime": 1231864857,
  "nonce": 2770300165,
  "bits": "1d00ffff",
  "difficulty": 1,
  "chainwork": "0000000000000000000000000000000000000000000000000000016301630163",
  "nTx": 1,
  "previousblockhash": "00000000dec5e5fbf851495db241e624012d675bbef96ec6dab5cdc91fa3b53b",
  "nextblockhash": "000000006b6a210ca5b715e587c0155a2524c3d592266bdbd75cf1186172dab8",
  "strippedsize": 216,
  "size": 216,
  "weight": 864,
  "tx": [
    {
      "txid": "987ab2614f1d64bd6315a5e76ca3393716b77cc523be7356d264ee2d9b9b970d",
      "hash": "987ab2614f1d64bd6315a5e76ca3393716b77cc523be7356d264ee2d9b9b970d",
      "version": 1,
      "size": 135,
      "vsize": 135,
      "weight": 540,
      "locktime": 0,
      "vin": [
        {
          "coinbase": "04ffff001d029501",
          "sequence": 4294967295
        }
      ],
      "vout": [
        {
          "value": 50.0,
          "n": 0,
          "scriptPubKey": {
            "asm": "04485dcd87397fbc6ee9a028b07fb9e06de0b75d125aee1a0fd5eb2caa75c09192425d607ea78495f068c083cb966482935cdcd4258a9a967d8166c8f05b1d2030 OP_CHECKSIG",
            "desc": "pk(04485dcd87397fbc6ee9a028b07fb9e06de0b75d125aee1a0fd5eb2caa75c09192425d607ea78495f068c083cb966482935cdcd4258a9a967d8166c8f05b1d2030)#5euugez4",
            "hex": "4104485dcd87397fbc6ee9a028b07fb9e06de0b75d125aee1a0fd5eb2caa75c09192425d607ea78495f068c083cb966482935cdcd4258a9a967d8166c8f05b1d2030ac",
            "type": "pubkey"
          }
        }
      ],
      "hex": "01000000010000000000000000000000000000000000000000000000000000000000000000ffffffff0804ffff001d029501ffffffff0100f2052a01000000434104485dcd87397fbc6ee9a028b07fb9e06de0b75d125aee1a0fd5eb2caa75c09192425d607ea78495f068c083cb966482935cdcd4258a9a967d8166c8f05b1d2030ac00000000"
    }
  ]
}