{
  "hash": "00000000bf877e260208f54a9edde2c9689a5990c93467cc4e0becea8a3180d7",
  "confirmations": 52182,
  "height": 439,
  "version": 1,
  "versionHex": "00000001",
  "merkleroot": "729c429213b0de74f61a89ad7da09fc63143e16c7738c1b59130f283e4991dc9",
  "time": 1231928740,
  "mediantime": 1231924394,
  "nonce": 269962849,
  "bits": "1d00ffff",
  "difficulty": 1,
  "chainwork": "000000000000000000000000000000000000000000000000000001b801b801b8",
  "nTx": 1,
  "previousblockhash": "0000000025c6b644f8add734be7e666fa4afa43ca0204d623a0c0b1fd2104c7a",
  "nextblockhash": "000000004b9dfe906e0c97aaaa3dbb84a933d14788ddef29eb34c4054f884dfd",
  "strippedsize": 215,
  "size": 215,
  "weight": 860,
  "tx": [
    {
      "txid": "729c429213b0de74f61a89ad7da09fc63143e16c7738c1b59130f283e4991dc9",
      "hash": "729c429213b0de74f61a89ad7da09fc63143e16c7738c1b59130f283e4991dc9",
      "version": 1,
      "size": 134,
      "vsize": 134,
      "weight": 536,
      "locktime": 0,
      "vin": [
        {
          "coinbase": "04ffff001d0136",
          "sequence": 4294967295
        }
      ],
      "vout": [
        {
          "value": 50.0,
          "n": 0,
          "scriptPubKey": {
            "asm": "04da40df988e0b0f0dff125cce7b7a120b870641fa95147d96513334111c852b5c1c36b5661c56034a00fba43c23112f309016fd08a572a9cd8e15d401f2732461 OP_CHECKSIG",
            "desc": "pk(04da40df988e0b0f0dff125cce7b7a120b870641fa95147d96513334111c852b5c1c36b5661c56034a00fba43c23112f309016fd08a572a9cd8e15d401f2732461)#8zy2e8ml",
            "hex": "4104da40df988e0b0f0dff125cce7b7a120b870641fa95147d96513334111c852b5c1c36b5661c56034a00fba43c23112f309016fd08a572a9cd8e15d401f2732461ac",
            "type": "pubkey"
          }
        }
      ],
      "hex": "01000000010000000000000000000000000000000000000000000000000000000000000000ffffffff0704ffff001d0136ffffffff0100f2052a01000000434104da40df988e0b0f0dff125cce7b7a120b870641fa95147d96513334111c852b5c1c36b5661c56034a00fba43c23112f309016fd08a572a9cd8e15d401f2732461ac00000000"
    }
  ]
}