{
  "hash": "00000000c2b16a00083a94ffad81805bc6cc639138e967f2af6a4bf165a0d599",
  "confirmations": 47144,
  "height": 5954,
  "version": 1,
  "versionHex": "00000001",
  "merkleroot": "5732203f0555c435dea41a5ec126d6d6d05012ab704e94728d91a5cc068bd601",
  "time": 1235890624,
  "mediantime": 1235888199,
  "nonce": 444400947,
  "bits": "1d00ffff",
  "difficulty": 1,
  "chainwork": "0000000000000000000000000000000000000000000000000000174317431743",
  "nTx": 1,
  "previousblockhash": "00000000fda6b58ccc636f9ead09ec00b1f1935124bdf27031c3719009ce395c",
  "nextblockhash": "00000000493731c59d3f2c93a61e501a0f837e5605beabcf3a6ad9cd7987071e",
  "strippedsize": 216,
  "size": 216,
  "weight": 864,
  "tx": [
    {
      "txid": "5732203f0555c435dea41a5ec126d6d6d05012ab704e94728d91a5cc068bd601",
      "hash": "5732203f0555c435dea41a5ec126d6d6d05012ab704e94728d91a5cc068bd601",
      "version": 1,
      "size": 135,
      "vsize": 135,
      "weight": 540,
      "locktime": 0,
      "vin": [
        {
          "coinbase": "04ffff001d021104",
          "sequence": 4294967295
        }
      ],
      "vout": [
        {
          "value": 50.0,
          "n": 0,
          "scriptPubKey": {
            "asm": "046fa06a813f00df51425b85444a46ed9c4dc81f01dc54d266a9b8699d8d657bbc76a07e368fa6e1f4bb31fef01b50855f6d5c6261b48b01bf390d9086fcb431c5 OP_CHECKSIG",
            "desc": "pk(046fa06a813f00df51425b85444a46ed9c4dc81f01dc54d266a9b8699d8d657bbc76a07e368fa6e1f4bb31fef01b50855f6d5c6261b48b01bf390d9086fcb431c5)#afkhcpt5",
            "hex": "41046fa06a813f00df51425b85444a46ed9c4dc81f01dc54d266a9b8699d8d657bbc76a07e368fa6e1f4bb31fef01b50855f6d5c6261b48b01bf390d9086fcb431c5ac",
            "type": "pubkey"
          }
        }
      ],
      "hex": "01000000010000000000000000000000000000000000000000000000000000000000000000ffffffff0804ffff001d021104ffffffff0100f2052a010000004341046fa06a813f00df51425b85444a46ed9c4dc81f01dc54d266a9b8699d8d657bbc76a07e368fa6e1f4bb31fef01b50855f6d5c6261b48b01bf390d9086fcb431c5ac00000000"
    }
  ]
}