{
  "hash": "0000000085292b3042abf1f35a48e42db1406537d4937986a42fa8d5b3250979",
  "confirmations": 46799,
  "height": 6299,
  "version": 1,
  "versionHex": "00000001",
  "merkleroot": "29c6d087269fdcf9d70060d8ff6e0f2a674c9a4e2b2fc62c96853543cf14b648",
  "time": 1236172726,
  "mediantime": 1236165740,
  "nonce": 1422542394,
  "bits": "1d00ffff",
  "difficulty": 1,
  "chainwork": "0000000000000000000000000000000000000000000000000000189c189c189c",
  "nTx": 1,
  "previousblockhash": "00000000d205842217d63b3197988b6753161e593281ec4e14fdda672143daa9",
  "nextblockhash": "00000000d75f53340a8ec23ae9396ac489ad788c2d1becba57a2e468b29bdee7",
  "strippedsize": 215,
  "size": 215,
  "weight": 860,
  "tx": [
    {
      "txid": "29c6d087269fdcf9d70060d8ff6e0f2a674c9a4e2b2fc62c96853543cf14b648",
      "hash": "29c6d087269fdcf9d70060d8ff6e0f2a674c9a4e2b2fc62c96853543cf14b648",
      "version": 1,
      "size": 134,
      "vsize": 134,
      "weight": 536,
      "locktime": 0,
      "vin": [
        {
          "coinbase": "04ffff001d0120",
          "sequence": 4294967295
        }
      ],
      "vout": [
        {
          "value": 50.0,
          "n": 0,
          "scriptPubKey": {
            "asm": "049d261427c010c9cdf9ac9688d44cec6fa497eaaf14fc770dbcfef5dc2453d8c8222f1a771123c592de9a216b3b3741ab40c9c9fb6aed808a0883b71dd751cce0 OP_CHECKSIG",
            "desc": "pk(049d261427c010c9cdf9ac9688d44cec6fa497eaaf14fc770dbcfef5dc2453d8c8222f1a771123c592de9a216b3b3741ab40c9c9fb6aed808a0883b71dd751cce0)#jezqz7h4",
            "hex": "41049d261427c010c9cdf9ac9688d44cec6fa497eaaf14fc770dbcfef5dc2453d8c8222f1a771123c592de9a216b3b3741ab40c9c9fb6aed808a0883b71dd751cce0ac",
            "type": "pubkey"
          }
        }
      ],
      "hex": "01000000010000000000000000000000000000000000000000000000000000000000000000ffffffff0704ffff001d0120ffffffff0100f2052a010000004341049d261427c010c9cdf9ac9688d44cec6fa497eaaf14fc770dbcfef5dc2453d8c8222f1a771123c592de9a216b3b3741ab40c9c9fb6aed808a0883b71dd751cce0ac00000000"
    }
  ]
}