{
  "hash": "00000000b6a6c5d987b928a698cdf797baa7e2c1e8d4be0421f704bbc0fde5a5",
  "confirmations": 52208,
  "height": 890,
  "version": 1,
  "versionHex": "00000001",
  "merkleroot": "dabcf01b5f3223c3414d0bcf4b0c9230f2d2ec6d10b0724f760ba231415486f9",
  "time": 1232266126,
  "mediantime": 1232262359,
  "nonce": 2493845815,
  "bits": "1d00ffff",
  "difficulty": 1,
  "chainwork": "0000000000000000000000000000000000000000000000000000037b037b037b",
  "nTx": 1,
  "previousblockhash": "00000000c18cd3547c7e848abdb4b42966970abb1e8cfb4857bbc13e0e8dae06",
  "nextblockhash": "000000008c9c8237506968afb5fdd89a970bb2a3a149b6234293e054f6c6ef52",
  "strippedsize": 216,
  "size": 216,
  "weight": 864,
  "tx": [
    {
      "txid": "dabcf01b5f3223c3414d0bcf4b0c9230f2d2ec6d10b0724f760ba231415486f9",
      "hash": "dabcf01b5f3223c3414d0bcf4b0c9230f2d2ec6d10b0724f760ba231415486f9",
      "version": 1,
      "size": 135,
      "vsize": 135,
      "weight": 540,
      "locktime": 0,
      "vin": [
        {
          "coinbase": "04ffff001d027703",
          "sequence": 4294967295
        }
      ],
      "vout": [
        {
          "value": 50.0,
          "n": 0,
          "scriptPubKey": {
            "asm": "046a462ca9584c07ea42589f5362a5e222b2277c87f4481d93ac5339f9f9123c52ae1acf44c9f20fab23ce9610254f6265b71c443cfe5154d10e29054bd9c43636 OP_CHECKSIG",
            "desc": "pk(046a462ca9584c07ea42589f5362a5e222b2277c87f4481d93ac5339f9f9123c52ae1acf44c9f20fab23ce9610254f6265b71c443cfe5154d10e29054bd9c43636)#gy793yuk",
            "hex": "41046a462ca9584c07ea42589f5362a5e222b2277c87f4481d93ac5339f9f9123c52ae1acf44c9f20fab23ce9610254f6265b71c443cfe5154d10e29054bd9c43636ac",
            "type": "pubkey"
          }
        }
      ],
      "hex": "01000000010000000000000000000000000000000000000000000000000000000000000000ffffffff0804ffff001d027703ffffffff0100f2052a010000004341046a462ca9584c07ea42589f5362a5e222b2277c87f4481d93ac5339f9f9123c52ae1acf44c9f20fab23ce9610254f6265b71c443cfe5154d10e29054bd9c43636ac00000000"
    }
  ]
}