{
  "hash": "00000000c56f613c78509701f4564954047124e8313743795ae073b86003012c",
  "confirmations": 50787,
  "height": 2311,
  "version": 1,
  "versionHex": "00000001",
  "merkleroot": "6d1fd0b8ffb966a01d76c571eebe1365078b0548aa5a831c304e25a4a722dc8a",
  "time": 1233288050,
  "mediantime": 1233283614,
  "nonce": 2730109231,
  "bits": "1d00ffff",
  "difficulty": 1,
  "chainwork": "0000000000000000000000000000000000000000000000000000090809080908",
  "nTx": 1,
  "previousblockhash": "00000000947dddd5cc9dab71d3088ca43f02bb3dab80712f693dd7ce67c0077a",
  "nextblockhash": "00000000c07fd2bc50c21d3acd40b37f591ceaeb6dedcbc87c2f5a92b8c880ea",
  "strippedsize": 216,
  "size": 216,
  "weight": 864,
  "tx": [
    {
      "txid": "6d1fd0b8ffb966a01d76c571eebe1365078b0548aa5a831c304e25a4a722dc8a",
      "hash": "6d1fd0b8ffb966a01d76c571eebe1365078b0548aa5a831c304e25a4a722dc8a",
      "version": 1,
      "size": 135,
      "vsize": 135,
      "weight": 540,
      "locktime": 0,
      "vin": [
        {
          "coinbase": "04ffff001d02d601",
          "sequence": 4294967295
        }
      ],
      "vout": [
        {
          "value": 50.0,
          "n": 0,
          "scriptPubKey": {
            "asm": "0454fa6f121c98db5479295d39fe2b6756efe1ed2b7bcf238222302252b70438f70043686777afd8096fa3a3ca1e9eb3222da6912261adf5cec443ea977a764e6d OP_CHECKSIG",
            "desc": "pk(0454fa6f121c98db5479295d39fe2b6756efe1ed2b7bcf238222302252b70438f70043686777afd8096fa3a3ca1e9eb3222da6912261adf5cec443ea977a764e6d)#s5dc2lel",
            "hex": "410454fa6f121c98db5479295d39fe2b6756efe1ed2b7bcf238222302252b70438f70043686777afd8096fa3a3ca1e9eb3222da6912261adf5cec443ea977a764e6dac",
            "type": "pubkey"
          }
        }
      ],
      "hex": "01000000010000000000000000000000000000000000000000000000000000000000000000ffffffff0804ffff001d02d601ffffffff0100f2052a0100000043410454fa6f121c98db5479295d39fe2b6756efe1ed2b7bcf238222302252b70438f70043686777afd8096fa3a3ca1e9eb3222da6912261adf5cec443ea977a764e6dac00000000"
    }
  ]
}