{
  "hash": "0000000099731fe1e5dcc7b7aeb1f00c54abefb676a96f2a08c36117b89c18f8",
  "confirmations": 50805,
  "height": 2293,
  "version": 1,
  "versionHex": "00000001",
  "merkleroot": "9a84c87d872302b54d05549a0660d5055e651a0492b289bd93fc7e008d980d52",
  "time": 1233275497,
  "mediantime": 1233273125,
  "nonce": 3133831975,
  "bits": "1d00ffff",
  "difficulty": 1,
  "chainwork": "000000000000000000000000000000000000000000000000000008f608f608f6",
  "nTx": 1,
  "previousblockhash": "00000000f428507fbe8d6d33c51180fba0c9fa5bb937430d86d84ac649f6fd1a",
  "nextblockhash": "0000000018f5849fabd683aa992bea25e2d9c8a7d8744dca5f67176d414d7df6",
  "strippedsize": 216,
  "size": 216,
  "weight": 864,
  "tx": [
    {
      "txid": "9a84c87d872302b54d05549a0660d5055e651a0492b289bd93fc7e008d980d52",
      "hash": "9a84c87d872302b54d05549a0660d5055e651a0492b289bd93fc7e008d980d52",
      "version": 1,
      "size": 135,
      "vsize": 135,
      "weight": 540,
      "locktime": 0,
      "vin": [
        {
          "coinbase": "04ffff001d029701",
          "sequence": 4294967295
        }
      ],
      "vout": [
        {
          "value": 50.0,
          "n": 0,
          "scriptPubKey": {
            "asm": "0424c622776d336e33cc52b64b079ffc1b380b0f8b70a7d0f2a7a9e5c8daf9254c3cb6416ad1db372448f5632f82e8595601ca72a0b805040ddbe8518968e5eb0e OP_CHECKSIG",
            "desc": "pk(0424c622776d336e33cc52b64b079ffc1b380b0f8b70a7d0f2a7a9e5c8daf9254c3cb6416ad1db372448f5632f82e8595601ca72a0b805040ddbe8518968e5eb0e)#aujhvn8d",
            "hex": "410424c622776d336e33cc52b64b079ffc1b380b0f8b70a7d0f2a7a9e5c8daf9254c3cb6416ad1db372448f5632f82e8595601ca72a0b805040ddbe8518968e5eb0eac",
            "type": "pubkey"
          }
        }
      ],
      "hex": "01000000010000000000000000000000000000000000000000000000000000000000000000ffffffff0804ffff001d029701ffffffff0100f2052a0100000043410424c622776d336e33cc52b64b079ffc1b380b0f8b70a7d0f2a7a9e5c8daf9254c3cb6416ad1db372448f5632f82e8595601ca72a0b805040ddbe8518968e5eb0eac00000000"
    }
  ]
}