{
  "hash": "000000008f05edfb0fbbde763d148df2841f634cf1667488f9606cbb2df33063",
  "confirmations": 44822,
  "height": 8276,
  "version": 1,
  "versionHex": "00000001",
  "merkleroot": "6c3cd31e35f89300de20a4a5876d092692662d78f67c3bb140dd552835cb1cb9",
  "time": 1237716828,
  "mediantime": 1237714277,
  "nonce": 44528459,
  "bits": "1d00ffff",
  "difficulty": 1,
  "chainwork": "0000000000000000000000000000000000000000000000000000205520552055",
  "nTx": 1,
  "previousblockhash": "00000000427c706b1dc49235b057115f17cc762726739e7c4777a2b66fc480f1",
  "nextblockhash": "000000001098e5eeaface1388dd57a76983180699df43b1c06fd8ff0e3786c63",
  "strippedsize": 216,
  "size": 216,
  "weight": 864,
  "tx": [
    {
      "txid": "6c3cd31e35f89300de20a4a5876d092692662d78f67c3bb140dd552835cb1cb9",
      "hash": "6c3cd31e35f89300de20a4a5876d092692662d78f67c3bb140dd552835cb1cb9",
      "version": 1,
      "size": 135,
      "vsize": 135,
      "weight": 540,
      "locktime": 0,
      "vin": [
        {
          "coinbase": "04ffff001d025301",
          "sequence": 4294967295
        }
      ],
      "vout": [
        {
          "value": 50.0,
          "n": 0,
          "scriptPubKey": {
            "asm": "048db3581d09b0c8f0e30e1dcdcef691514cfbb19b2c6d800fc6e2f6d5542e2275c0bc05a8ca8e700e1849f913f301902b424b2ac6169166e9e2c3a4fe55c9b3b0 OP_CHECKSIG",
            "desc": "pk(048db3581d09b0c8f0e30e1dcdcef691514cfbb19b2c6d800fc6e2f6d5542e2275c0bc05a8ca8e700e1849f913f301902b424b2ac6169166e9e2c3a4fe55c9b3b0)#zg9xgerq",
            "hex": "41048db3581d09b0c8f0e30e1dcdcef691514cfbb19b2c6d800fc6e2f6d5542e2275c0bc05a8ca8e700e1849f913f301902b424b2ac6169166e9e2c3a4fe55c9b3b0ac",
            "type": "pubkey"
          }
        }
      ],
      "hex": "01000000010000000000000000000000000000000000000000000000000000000000000000ffffffff0804ffff001d025301ffffffff0100f2052a010000004341048db3581d09b0c8f0e30e1dcdcef691514cfbb19b2c6d800fc6e2f6d5542e2275c0bc05a8ca8e700e1849f913f301902b424b2ac6169166e9e2c3a4fe55c9b3b0ac00000000"
    }
  ]
}