{
  "hash": "00000000b4031742b28cdc8fe0e635ec01094d35d2ca2bf8e3c5f7f28d505acc",
  "confirmations": 45071,
  "height": 8027,
  "version": 1,
  "versionHex": "00000001",
  "merkleroot": "226b2def1dab9ff456858c240191b68685606416a58c32563deed1de2fe454fc",
  "time": 1237483362,
  "mediantime": 1237478831,
  "nonce": 2102844729,
  "bits": "1d00ffff",
  "difficulty": 1,
  "chainwork": "00000000000000000000000000000000000000000000000000001f5c1f5c1f5c",
  "nTx": 1,
  "previousblockhash": "0000000018d3c1af76b8f47452d5a9abfe5f564a97ab3879311fef9cae55431c",
  "nextblockhash": "000000009953925f26893de421307f9917fdb5e74473a8d6779facacf2d6180d",
  "strippedsize": 216,
  "size": 216,
  "weight": 864,
  "tx": [
    {
      "txid": "226b2def1dab9ff456858c240191b68685606416a58c32563deed1de2fe454fc",
      "hash": "226b2def1dab9ff456858c240191b68685606416a58c32563deed1de2fe454fc",
      "version": 1,
      "size": 135,
      "vsize": 135,
      "weight": 540,
      "locktime": 0,
      "vin": [
        {
          "coinbase": "04ffff001d02f109",
          "sequence": 4294967295
        }
      ],
      "vout": [
        {
          "value": 50.0,
          "n": 0,
          "scriptPubKey": {
            "asm": "040fb7d06ad03c132d90f7761dad784d1e90340b542527a247b0ccd2f79a896239add8043248aa49b18fd92c82a11ca0f163db857f126261ab5ee9fbbb7c5c7433 OP_CHECKSIG",
            "desc": "pk(040fb7d06ad03c132d90f7761dad784d1e90340b542527a247b0ccd2f79a896239add8043248aa49b18fd92c82a11ca0f163db857f126261ab5ee9fbbb7c5c7433)#cvygwj7l",
            "hex": "41040fb7d06ad03c132d90f7761dad784d1e90340b542527a247b0ccd2f79a896239add8043248aa49b18fd92c82a11ca0f163db857f126261ab5ee9fbbb7c5c7433ac",
            "type": "pubkey"
          }
        }
      ],
      "hex": "01000000010000000000000000000000000000000000000000000000000000000000000000ffffffff0804ffff001d02f109ffffffff0100f2052a010000004341040fb7d06ad03c132d90f7761dad784d1e90340b542527a247b0ccd2f79a896239add8043248aa49b18fd92c82a11ca0f163db857f126261ab5ee9fbbb7c5c7433ac00000000"
    }
  ]
}