{
  "hash": "00000000813a89c779e6d6649c4e8f3ccfd4bfd188d7608f8f652f6b4f28d1f3",
  "confirmations": 52036,
  "height": 1062,
  "version": 1,
  "versionHex": "00000001",
  "merkleroot": "ea768331a499b9226c3ec3e14b9bbcfae7ffead2647a4e3c9c0c21b0dae8df07",
  "time": 1232396840,
  "mediantime": 1232393819,
  "nonce": 2504717363,
  "bits": "1d00ffff",
  "difficulty": 1,
  "chainwork": "0000000000000000000000000000000000000000000000000000042704270427",
  "nTx": 1,
  "previousblockhash": "0000000062499825b027659fceb5959e09bfb6c2b856533941f6a090a02ce433",
  "nextblockhash": "000000002d878e299ee9592fa673e49c36fc1b38a5a8021eb3daf19cf85aec07",
  "strippedsize": 216,
  "size": 216,
  "weight": 864,
  "tx": [
    {
      "txid": "ea768331a499b9226c3ec3e14b9bbcfae7ffead2647a4e3c9c0c21b0dae8df07",
      "hash": "ea768331a499b9226c3ec3e14b9bbcfae7ffead2647a4e3c9c0c21b0dae8df07",
      "version": 1,
      "size": 135,
      "vsize": 135,
      "weight": 540,
      "locktime": 0,
      "vin": [
        {
          "coinbase": "04ffff001d023f06",
          "sequence": 4294967295
        }
      ],
      "vout": [
        {
          "value": 50.0,
          "n": 0,
          "scriptPubKey": {
            "asm": "040ea7ac61d156510932378db93d35b5be786909c741fb5249167b0d17020cfa5a052b77283902522569949903008eb8023dc10209a4c758b21e70da2c3711e690 OP_CHECKSIG",
            "desc": "pk(040ea7ac61d156510932378db93d35b5be786909c741fb5249167b0d17020cfa5a052b77283902522569949903008eb8023dc10209a4c758b21e70da2c3711e690)#q8dlcqvg",
            "hex": "41040ea7ac61d156510932378db93d35b5be786909c741fb5249167b0d17020cfa5a052b77283902522569949903008eb8023dc10209a4c758b21e70da2c3711e690ac",
            "type": "pubkey"
          }
        }
      ],
      "hex": "01000000010000000000000000000000000000000000000000000000000000000000000000ffffffff0804ffff001d023f06ffffffff0100f2052a010000004341040ea7ac61d156510932378db93d35b5be786909c741fb5249167b0d17020cfa5a052b77283902522569949903008eb8023dc10209a4c758b21e70da2c3711e690ac00000000"
    }
  ]
}