{
  "hash": "000000002507d02560207b4aeb0ac78bc42160d83965e6aab4160a078c6ffe65",
  "confirmations": 50383,
  "height": 2715,
  "version": 1,
  "versionHex": "00000001",
  "merkleroot": "6b13d505572d069b2a11b1b2d3af0aadd534008ae6994ba9955608231d34d2cd",
  "time": 1233574829,
  "mediantime": 1233569285,
  "nonce": 1709090325,
  "bits": "1d00ffff",
  "difficulty": 1,
  "chainwork": "00000000000000000000000000000000000000000000000000000a9c0a9c0a9c",
  "nTx": 1,
  "previousblockhash": "0000000029b8f33ee6c012e0011773682777b93555aee7d41b7f4f51db6b5ddb",
  "nextblockhash": "000000003306f2059ee41b485afd73b10175a8821f6d3733fa34f7eaa482e35a",
  "strippedsize": 216,
  "size": 216,
  "weight": 864,
  "tx": [
    {
      "txid": "6b13d505572d069b2a11b1b2d3af0aadd534008ae6994ba9955608231d34d2cd",
      "hash": "6b13d505572d069b2a11b1b2d3af0aadd534008ae6994ba9955608231d34d2cd",
      "version": 1,
      "size": 135,
      "vsize": 135,
      "weight": 540,
      "locktime": 0,
      "vin": [
        {
          "coinbase": "04ffff001d02f104",
          "sequence": 4294967295
        }
      ],
      "vout": [
        {
          "value": 50.0,
          "n": 0,
          "scriptPubKey": {
            "asm": "045862a40efe88b2f4d16776c880739451dfccb8080c44cd4c82090a43c594f75c93c8060920eb2175cd732f4f7551f3a671cfbdc196a049a207320480b42311c2 OP_CHECKSIG",
            "desc": "pk(045862a40efe88b2f4d16776c880739451dfccb8080c44cd4c82090a43c594f75c93c8060920eb2175cd732f4f7551f3a671cfbdc196a049a207320480b42311c2)#er957um5",
            "hex": "41045862a40efe88b2f4d16776c880739451dfccb8080c44cd4c82090a43c594f75c93c8060920eb2175cd732f4f7551f3a671cfbdc196a049a207320480b42311c2ac",
            "type": "pubkey"
          }
        }
      ],
      "hex": "01000000010000000000000000000000000000000000000000000000000000000000000000ffffffff0804ffff001d02f104ffffffff0100f2052a010000004341045862a40efe88b2f4d16776c880739451dfccb8080c44cd4c82090a43c594f75c93c8060920eb2175cd732f4f7551f3a671cfbdc196a049a207320480b42311c2ac00000000"
    }
  ]
}