{
  "hash": "0000000022fa7cb365cc0e556ad0f9afc0148c9f2e73d18b6ff7f6d82af6f31e",
  "confirmations": 51260,
  "height": 1838,
  "version": 1,
  "versionHex": "00000001",
  "merkleroot": "d687991250569d11a460b3caff082492bfecf5d6095bc973a4c48951c9197a88",
  "time": 1232917006,
  "mediantime": 1232914637,
  "nonce": 2065028899,
  "bits": "1d00ffff",
  "difficulty": 1,
  "chainwork": "0000000000000000000000000000000000000000000000000000072f072f072f",
  "nTx": 1,
  "previousblockhash": "00000000f78078420299b8d5c188bb8afcbaa49085569c106de370ff0b39289f",
  "nextblockhash": "000000003085602911b9da7c4b636f2f809a3a3d1db4155e2bf9b9e572791ab1",
  "strippedsize": 216,
  "size": 216,
  "weight": 864,
  "tx": [
    {
      "txid": "d687991250569d11a460b3caff082492bfecf5d6095bc973a4c48951c9197a88",
      "hash": "d687991250569d11a460b3caff082492bfecf5d6095bc973a4c48951c9197a88",
      "version": 1,
      "size": 135,
      "vsize": 135,
      "weight": 540,
      "locktime": 0,
      "vin": [
        {
          "coinbase": "04ffff001d026504",
          "sequence": 4294967295
        }
      ],
      "vout": [
        {
          "value": 50.0,
          "n": 0,
          "scriptPubKey": {
            "asm": "04a577219aabbf620da52578e5a6353381986ffd838f33380978eb49312f8bccb2af4f1e161dfc9914f1ffe4f07d0dbd6d2276b6dd33842fa9e21aab716aeb1ee0 OP_CHECKSIG",
            "desc": "pk(04a577219aabbf620da52578e5a6353381986ffd838f33380978eb49312f8bccb2af4f1e161dfc9914f1ffe4f07d0dbd6d2276b6dd33842fa9e21aab716aeb1ee0)#8hfs4ha0",
            "hex": "4104a577219aabbf620da52578e5a6353381986ffd838f33380978eb49312f8bccb2af4f1e161dfc9914f1ffe4f07d0dbd6d2276b6dd33842fa9e21aab716aeb1ee0ac",
            "type": "pubkey"
          }
        }
      ],
      "hex": "01000000010000000000000000000000000000000000000000000000000000000000000000ffffffff0804ffff001d026504ffffffff0100f2052a01000000434104a577219aabbf620da52578e5a6353381986ffd838f33380978eb49312f8bccb2af4f1e161dfc9914f1ffe4f07d0dbd6d2276b6dd33842fa9e21aab716aeb1ee0ac00000000"
    }
  ]
}