{
  "hash": "00000000fbab7c9e35b8bf53bdba6dc996708b38a94091881cefbb0f7940891a",
  "confirmations": 43119,
  "height": 9979,
  "version": 1,
  "versionHex": "00000001",
  "merkleroot": "eca1cf25895881a307dcea2d8dcf46310e18d31f381fe2da178657a039aaddf6",
  "time": 1238976226,
  "mediantime": 1238973164,
  "nonce": 49044971,
  "bits": "1d00ffff",
  "difficulty": 1,
  "chainwork": "000000000000000000000000000000000000000000000000000026fc26fc26fc",
  "nTx": 1,
  "previousblockhash": "000000007c2f2579d08b7400ebd4c113ab3ac8c42669b26599aa2f0c13eaa8ff",
  "nextblockhash": "00000000ad6b4d8f001b75c63309d1616a1b6a65236603b4c407232c65411d1e",
  "strippedsize": 216,
  "size": 216,
  "weight": 864,
  "tx": [
    {
      "txid": "eca1cf25895881a307dcea2d8dcf46310e18d31f381fe2da178657a039aaddf6",
      "hash": "eca1cf25895881a307dcea2d8dcf46310e18d31f381fe2da178657a039aaddf6",
      "version": 1,
      "size": 135,
      "vsize": 135,
      "weight": 540,
      "locktime": 0,
      "vin": [
        {
          "coinbase": "04ffff001d025a01",
          "sequence": 4294967295
        }
      ],
      "vout": [
        {
          "value": 50.0,
          "n": 0,
          "scriptPubKey": {
            "asm": "041cb76c7e01c7566fd60ff644512d38c042525414a20d64da0c572a8236f01736617a637ecf1b035a2d5a2a13ea00bf39f3e1486c1b024b4a7baf8b2cdbf680a9 OP_CHECKSIG",
            "desc": "pk(041cb76c7e01c7566fd60ff644512d38c042525414a20d64da0c572a8236f01736617a637ecf1b035a2d5a2a13ea00bf39f3e1486c1b024b4a7baf8b2cdbf680a9)#f0fajva9",
            "hex": "41041cb76c7e01c7566fd60ff644512d38c042525414a20d64da0c572a8236f01736617a637ecf1b035a2d5a2a13ea00bf39f3e1486c1b024b4a7baf8b2cdbf680a9ac",
            "type": "pubkey"
          }
        }
      ],
      "hex": "01000000010000000000000000000000000000000000000000000000000000000000000000ffffffff0804ffff001d025a01ffffffff0100f2052a010000004341041cb76c7e01c7566fd60ff644512d38c042525414a20d64da0c572a8236f01736617a637ecf1b035a2d5a2a13ea00bf39f3e1486c1b024b4a7baf8b2cdbf680a9ac00000000"
    }
  ]
}