{
  "hash": "0000000034477170a51f40da9bce78f85c555a26be1361ce8c2900b02786f0c4",
  "confirmations": 51742,
  "height": 1356,
  "version": 1,
  "versionHex": "00000001",
  "merkleroot": "9669ba726f99d9fb5e9dd3509163e5e1482053421cfbaca9cec6f006c9fe3425",
  "time": 1232647460,
  "mediantime": 1232642922,
  "nonce": 3968208182,
  "bits": "1d00ffff",
  "difficulty": 1,
  "chainwork": "0000000000000000000000000000000000000000000000000000054d054d054d",
  "nTx": 1,
  "previousblockhash": "0000000019668292e90a9b0e7246f4f829e1f99e8818482203203d5e25b2ecab",
  "nextblockhash": "00000000bf4dcf6e329283e7182d438a8f1f89703593bac3a7d11f4e31d33dd9",
  "strippedsize": 216,
  "size": 216,
  "weight": 864,
  "tx": [
    {
      "txid": "9669ba726f99d9fb5e9dd3509163e5e1482053421cfbaca9cec6f006c9fe3425",
      "hash": "9669ba726f99d9fb5e9dd3509163e5e1482053421cfbaca9cec6f006c9fe3425",
      "version": 1,
      "size": 135,
      "vsize": 135,
      "weight": 540,
      "locktime": 0,
      "vin": [
        {
          "coinbase": "04ffff001d024e01",
          "sequence": 4294967295
        }
      ],
      "vout": [
        {
          "value": 50.0,
          "n": 0,
          "scriptPubKey": {
            "asm": "04ba1580bd1c7e65ab48737ac2d01f3f76dcfa4b9a946312d590b3a39c6ee7b75144e25c371461be97c4b1c0808e3ccf96638b95b8405fc7117f29e5f790e60626 OP_CHECKSIG",
            "desc": "pk(04ba1580bd1c7e65ab48737ac2d01f3f76dcfa4b9a946312d590b3a39c6ee7b75144e25c371461be97c4b1c0808e3ccf96638b95b8405fc7117f29e5f790e60626)#g3wptyre",
            "hex": "4104ba1580bd1c7e65ab48737ac2d01f3f76dcfa4b9a946312d590b3a39c6ee7b75144e25c371461be97c4b1c0808e3ccf96638b95b8405fc7117f29e5f790e60626ac",
            "type": "pubkey"
          }
        }
      ],
      "hex": "01000000010000000000000000000000000000000000000000000000000000000000000000ffffffff0804ffff001d024e01ffffffff0100f2052a01000000434104ba1580bd1c7e65ab48737ac2d01f3f76dcfa4b9a946312d590b3a39c6ee7b75144e25c371461be97c4b1c0808e3ccf96638b95b8405fc7117f29e5f790e60626ac00000000"
    }
  ]
}