{
  "hash": "00000000ff46ebbbb998f968ba271e2a5b7a5c460dd330cefd0b32c1363b9159",
  "confirmations": 45912,
  "height": 7186,
  "version": 1,
  "versionHex": "00000001",
  "merkleroot": "b0f4fb5fcbe30a7405f533f65cd46ce5fa6f6363d46ae91d20d2f9071bfca0d6",
  "time": 1236859644,
  "mediantime": 1236856935,
  "nonce": 3784775188,
  "bits": "1d00ffff",
  "difficulty": 1,
  "chainwork": "00000000000000000000000000000000000000000000000000001c131c131c13",
  "nTx": 1,
  "previousblockhash": "00000000ba551e37af3b1851fdec32e283363af5d8df34a37fab9095d333097d",
  "nextblockhash": "000000009fa8c9846e3c061913a3ff7a8fa240770e4ecd06d319b302f51f4e73",
  "strippedsize": 216,
  "size": 216,
  "weight": 864,
  "tx": [
    {
      "txid": "b0f4fb5fcbe30a7405f533f65cd46ce5fa6f6363d46ae91d20d2f9071bfca0d6",
      "hash": "b0f4fb5fcbe30a7405f533f65cd46ce5fa6f6363d46ae91d20d2f9071bfca0d6",
      "version": 1,
      "size": 135,
      "vsize": 135,
      "weight": 540,
      "locktime": 0,
      "vin": [
        {
          "coinbase": "04ffff001d027205",
          "sequence": 4294967295
        }
      ],
      "vout": [
        {
          "value": 50.0,
          "n": 0,
          "scriptPubKey": {
            "asm": "040911f40310b642c4950104af7154de58b7d108f460b11bfcf09f7c8e3a773e36ebf1540232cec608368d1c7d480315959bebb5d8dcc02c9ffc034b95ca2b8fd1 OP_CHECKSIG",
            "desc": "pk(040911f40310b642c4950104af7154de58b7d108f460b11bfcf09f7c8e3a773e36ebf1540232cec608368d1c7d480315959bebb5d8dcc02c9ffc034b95ca2b8fd1)#jpqlkxhf",
            "hex": "41040911f40310b642c4950104af7154de58b7d108f460b11bfcf09f7c8e3a773e36ebf1540232cec608368d1c7d480315959bebb5d8dcc02c9ffc034b95ca2b8fd1ac",
            "type": "pubkey"
          }
        }
      ],
      "hex": "01000000010000000000000000000000000000000000000000000000000000000000000000ffffffff0804ffff001d027205ffffffff0100f2052a010000004341040911f40310b642c4950104af7154de58b7d108f460b11bfcf09f7c8e3a773e36ebf1540232cec608368d1c7d480315959bebb5d8dcc02c9ffc034b95ca2b8fd1ac00000000"
    }
  ]
}