{
  "hash": "00000000a23332a5740d8676baabcbffe490fd8849b6d30f7399b83aedd733f6",
  "confirmations": 52036,
  "height": 301,
  "version": 1,
  "versionHex": "00000001",
  "merkleroot": "a6bfbb7c1fdddcf4a356f0e23a4d141020d6308027c2edc2313ca2399cae2474",
  "time": 1231833175,
  "mediantime": 1231829684,
  "nonce": 573037870,
  "bits": "1d00ffff",
  "difficulty": 1,
  "chainwork": "0000000000000000000000000000000000000000000000000000012e012e012e",
  "nTx": 1,
  "previousblockhash": "0000000062b69e4a2c3312a5782d7798b0711e9ebac065cd5d19f946439f8609",
  "nextblockhash": "000000007eff6cf2aaf401206860911f5c41565162de63e687d627e20335ef0a",
  "strippedsize": 215,
  "size": 215,
  "weight": 860,
  "tx": [
    {
      "txid": "a6bfbb7c1fdddcf4a356f0e23a4d141020d6308027c2edc2313ca2399cae2474",
      "hash": "a6bfbb7c1fdddcf4a356f0e23a4d141020d6308027c2edc2313ca2399cae2474",
      "version": 1,
      "size": 134,
      "vsize": 134,
      "weight": 536,
      "locktime": 0,
      "vin": [
        {
          "coinbase": "04ffff001d016f",
          "sequence": 4294967295
        }
      ],
      "vout": [
        {
          "value": 50.0,
          "n": 0,
          "scriptPubKey": {
            "asm": "04775188a177293003d8f00a903450f9446d26b24667422fbd200325b2b0acd4d2abf9ca8802bb77d8e5da92803ef988261eafcc95959206b12fa02a8c720f6539 OP_CHECKSIG",
            "desc": "pk(04775188a177293003d8f00a903450f9446d26b24667422fbd200325b2b0acd4d2abf9ca8802bb77d8e5da92803ef988261eafcc95959206b12fa02a8c720f6539)#j0t8dgq2",
            "hex": "4104775188a177293003d8f00a903450f9446d26b24667422fbd200325b2b0acd4d2abf9ca8802bb77d8e5da92803ef988261eafcc95959206b12fa02a8c720f6539ac",
            "type": "pubkey"
          }
        }
      ],
      "hex": "01000000010000000000000000000000000000000000000000000000000000000000000000ffffffff0704ffff001d016fffffffff0100f2052a01000000434104775188a177293003d8f00a903450f9446d26b24667422fbd200325b2b0acd4d2abf9ca8802bb77d8e5da92803ef988261eafcc95959206b12fa02a8c720f6539ac00000000"
    }
  ]
}