{
  "hash": "00000000c45c54342d8846b07f5c75b188871a9c31b3495aa682b8c0f193712c",
  "confirmations": 50961,
  "height": 2137,
  "version": 1,
  "versionHex": "00000001",
  "merkleroot": "12cd534192566c1eab57a3cda9159d4785550e2636d5794c207b2fac20c75c0c",
  "time": 1233165291,
  "mediantime": 1233161093,
  "nonce": 3873646601,
  "bits": "1d00ffff",
  "difficulty": 1,
  "chainwork": "0000000000000000000000000000000000000000000000000000085a085a085a",
  "nTx": 1,
  "previousblockhash": "000000004cae720c41e23ebf521ab2f9d35bfe364d670b2b195618213dde8783",
  "nextblockhash": "00000000066b91b7693f4fd69b0d3b1bb42df76b8e040e01310c086fa234c6a2",
  "strippedsize": 215,
  "size": 215,
  "weight": 860,
  "tx": [
    {
      "txid": "12cd534192566c1eab57a3cda9159d4785550e2636d5794c207b2fac20c75c0c",
      "hash": "12cd534192566c1eab57a3cda9159d4785550e2636d5794c207b2fac20c75c0c",
      "version": 1,
      "size": 134,
      "vsize": 134,
      "weight": 536,
      "locktime": 0,
      "vin": [
        {
          "coinbase": "04ffff001d0116",
          "sequence": 4294967295
        }
      ],
      "vout": [
        {
          "value": 50.0,
          "n": 0,
          "scriptPubKey": {
            "asm": "04a0bc398a0be2d208f051a0bb35b10fe4e2aa22f431266b57028ebf6be238c1c92deed3a86d921d27d0d09233599cef9eaa378a05b01ee0c330d52cbebe427214 OP_CHECKSIG",
            "desc": "pk(04a0bc398a0be2d208f051a0bb35b10fe4e2aa22f431266b57028ebf6be238c1c92deed3a86d921d27d0d09233599cef9eaa378a05b01ee0c330d52cbebe427214)#8mk5sp86",
            "hex": "4104a0bc398a0be2d208f051a0bb35b10fe4e2aa22f431266b57028ebf6be238c1c92deed3a86d921d27d0d09233599cef9eaa378a05b01ee0c330d52cbebe427214ac",
            "type": "pubkey"
          }
        }
      ],
      "hex": "01000000010000000000000000000000000000000000000000000000000000000000000000ffffffff0704ffff001d0116ffffffff0100f2052a01000000434104a0bc398a0be2d208f051a0bb35b10fe4e2aa22f431266b57028ebf6be238c1c92deed3a86d921d27d0d09233599cef9eaa378a05b01ee0c330d52cbebe427214ac00000000"
    }
  ]
}