{
  "hash": "000000002a97e6e8121066414b7b000246aaa7d342285e1a02341e69aac4511f",
  "confirmations": 43315,
  "height": 9783,
  "version": 1,
  "versionHex": "00000001",
  "merkleroot": "e9f36506bbbc53e43e36a2ad3ad43b9012b685515f386d2edc1a16d1d898e174",
  "time": 1238845986,
  "mediantime": 1238839536,
  "nonce": 633020447,
  "bits": "1d00ffff",
  "difficulty": 1,
  "chainwork": "0000000000000000000000000000000000000000000000000000263826382638",
  "nTx": 1,
  "previousblockhash": "00000000f2a17654fc79013aaaa16119685509933ead0c4a986dcf5c4fbc885b",
  "nextblockhash": "0000000016e447db6b826944c678cda4dc1a71af94ff6ff9452281f0677c442f",
  "strippedsize": 215,
  "size": 215,
  "weight": 860,
  "tx": [
    {
      "txid": "e9f36506bbbc53e43e36a2ad3ad43b9012b685515f386d2edc1a16d1d898e174",
      "hash": "e9f36506bbbc53e43e36a2ad3ad43b9012b685515f386d2edc1a16d1d898e174",
      "version": 1,
      "size": 134,
      "vsize": 134,
      "weight": 536,
      "locktime": 0,
      "vin": [
        {
          "coinbase": "04ffff001d0117",
          "sequence": 4294967295
        }
      ],
      "vout": [
        {
          "value": 50.0,
          "n": 0,
          "scriptPubKey": {
            "asm": "04d6e1c95304392dce640b464b19a1a08b5c76d54a89ff47f2e9c7cf9254d4d0b7ebef6c56e154a256ad7925eb6d6cef52f552278282daa476c1fe67fc17a65b9f OP_CHECKSIG",
            "desc": "pk(04d6e1c95304392dce640b464b19a1a08b5c76d54a89ff47f2e9c7cf9254d4d0b7ebef6c56e154a256ad7925eb6d6cef52f552278282daa476c1fe67fc17a65b9f)#f0n9lzwd",
            "hex": "4104d6e1c95304392dce640b464b19a1a08b5c76d54a89ff47f2e9c7cf9254d4d0b7ebef6c56e154a256ad7925eb6d6cef52f552278282daa476c1fe67fc17a65b9fac",
            "type": "pubkey"
          }
        }
      ],
      "hex": "01000000010000000000000000000000000000000000000000000000000000000000000000ffffffff0704ffff001d0117ffffffff0100f2052a01000000434104d6e1c95304392dce640b464b19a1a08b5c76d54a89ff47f2e9c7cf9254d4d0b7ebef6c56e154a256ad7925eb6d6cef52f552278282daa476c1fe67fc17a65b9fac00000000"
    }
  ]
}