{
  "hash": "00000000ef1d02cf7fdf0667eea606115e0110f4bde999a246fa70055df8dfe7",
  "confirmations": 45787,
  "height": 7311,
  "version": 1,
  "versionHex": "00000001",
  "merkleroot": "8afed4adf456ccd35018015764127c99f2aed2dd25416053de42c2fd8fe395a5",
  "time": 1236956079,
  "mediantime": 1236952094,
  "nonce": 703240756,
  "bits": "1d00ffff",
  "difficulty": 1,
  "chainwork": "00000000000000000000000000000000000000000000000000001c901c901c90",
  "nTx": 1,
  "previousblockhash": "000000009369ccf708bcbddc8ce403768980668bea2a97b036fc9d091860bfec",
  "nextblockhash": "00000000b5d55a9931ad2e1d2b12e21de816d0994ab5f94065a402c23674c601",
  "strippedsize": 216,
  "size": 216,
  "weight": 864,
  "tx": [
    {
      "txid": "8afed4adf456ccd35018015764127c99f2aed2dd25416053de42c2fd8fe395a5",
      "hash": "8afed4adf456ccd35018015764127c99f2aed2dd25416053de42c2fd8fe395a5",
      "version": 1,
      "size": 135,
      "vsize": 135,
      "weight": 540,
      "locktime": 0,
      "vin": [
        {
          "coinbase": "04ffff001d02c407",
          "sequence": 4294967295
        }
      ],
      "vout": [
        {
          "value": 50.0,
          "n": 0,
          "scriptPubKey": {
            "asm": "04f0630b7ac69b554e02878fe3321051611da507e87e08bb84d0f8f4547304c0f590d1b8871f2a43278ed132d40e6ca2413feb1bfead9a1fc755cc8430276d0fe6 OP_CHECKSIG",
            "desc": "pk(04f0630b7ac69b554e02878fe3321051611da507e87e08bb84d0f8f4547304c0f590d1b8871f2a43278ed132d40e6ca2413feb1bfead9a1fc755cc8430276d0fe6)#vrx47cl9",
            "hex": "4104f0630b7ac69b554e02878fe3321051611da507e87e08bb84d0f8f4547304c0f590d1b8871f2a43278ed132d40e6ca2413feb1bfead9a1fc755cc8430276d0fe6ac",
            "type": "pubkey"
          }
        }
      ],
      "hex": "01000000010000000000000000000000000000000000000000000000000000000000000000ffffffff0804ffff001d02c407ffffffff0100f2052a01000000434104f0630b7ac69b554e02878fe3321051611da507e87e08bb84d0f8f4547304c0f590d1b8871f2a43278ed132d40e6ca2413feb1bfead9a1fc755cc8430276d0fe6ac00000000"
    }
  ]
}