{
  "hash": "0000000045afd708ddcc88a12ff8f843a462dd0ab6dda3ae3846e07a24aa3470",
  "confirmations": 43664,
  "height": 9434,
  "version": 1,
  "versionHex": "00000001",
  "merkleroot": "e42b1a015cb83ad6f71b0b9fe74389515716b0e14bcda7798349cc34441521a9",
  "time": 1238580250,
  "mediantime": 1238575531,
  "nonce": 3781303608,
  "bits": "1d00ffff",
  "difficulty": 1,
  "chainwork": "000000000000000000000000000000000000000000000000000024db24db24db",
  "nTx": 1,
  "previousblockhash": "000000008c0a10d1e24abe11a6ce80c47d8467886baf588b19df87db64a201ea",
  "nextblockhash": "00000000b34ff50a225ae6d5a127ae5a8ad8f3c96a0a3a3bdb41976b8a2eb450",
  "strippedsize": 216,
  "size": 216,
  "weight": 864,
  "tx": [
    {
      "txid": "e42b1a015cb83ad6f71b0b9fe74389515716b0e14bcda7798349cc34441521a9",
      "hash": "e42b1a015cb83ad6f71b0b9fe74389515716b0e14bcda7798349cc34441521a9",
      "version": 1,
      "size": 135,
      "vsize": 135,
      "weight": 540,
      "locktime": 0,
      "vin": [
        {
          "coinbase": "04ffff001d025204",
          "sequence": 4294967295
        }
      ],
      "vout": [
        {
          "value": 50.0,
          "n": 0,
          "scriptPubKey": {
            "asm": "040568f4094644d4fe6850fb43bae59c6a4d2dee68737b8135a35542f5ced905254cfa650781c1a2b778ec708d4f89aa7a5c371dfc28f2aae2ebd64dc09eb43354 OP_CHECKSIG",
            "desc": "pk(040568f4094644d4fe6850fb43bae59c6a4d2dee68737b8135a35542f5ced905254cfa650781c1a2b778ec708d4f89aa7a5c371dfc28f2aae2ebd64dc09eb43354)#9gal688e",
            "hex": "41040568f4094644d4fe6850fb43bae59c6a4d2dee68737b8135a35542f5ced905254cfa650781c1a2b778ec708d4f89aa7a5c371dfc28f2aae2ebd64dc09eb43354ac",
            "type": "pubkey"
          }
        }
      ],
      "hex": "01000000010000000000000000000000000000000000000000000000000000000000000000ffffffff0804ffff001d025204ffffffff0100f2052a010000004341040568f4094644d4fe6850fb43bae59c6a4d2dee68737b8135a35542f5ced905254cfa650781c1a2b778ec708d4f89aa7a5c371dfc28f2aae2ebd64dc09eb43354ac00000000"
    }
  ]
}