{
  "hash": "000000008b204785ceb2627905d1bdffbcd9629d2571fb4cc7d39ffc298323ce",
  "confirmations": 51377,
  "height": 1721,
  "version": 1,
  "versionHex": "00000001",
  "merkleroot": "1ffc48414ee444280e0a9dea7029f22fbb83291c1d2b3e5c10ad296a0a622ebe",
  "time": 1232860485,
  "mediantime": 1232858639,
  "nonce": 1964632857,
  "bits": "1d00ffff",
  "difficulty": 1,
  "chainwork": "000000000000000000000000000000000000000000000000000006ba06ba06ba",
  "nTx": 1,
  "previousblockhash": "00000000349ece8e0646fff3b5d97166f2331177bbb693111ed51fd9ba1d7886",
  "nextblockhash": "000000009d2c5c3da2b431430c224e45d6f8ae9f99f883530749328503569fc9",
  "strippedsize": 216,
  "size": 216,
  "weight": 864,
  "tx": [
    {
      "txid": "1ffc48414ee444280e0a9dea7029f22fbb83291c1d2b3e5c10ad296a0a622ebe",
      "hash": "1ffc48414ee444280e0a9dea7029f22fbb83291c1d2b3e5c10ad296a0a622ebe",
      "version": 1,
      "size": 135,
      "vsize": 135,
      "weight": 540,
      "locktime": 0,
      "vin": [
        {
          "coinbase": "04ffff001d023403",
          "sequence": 4294967295
        }
      ],
      "vout": [
        {
          "value": 50.0,
          "n": 0,
          "scriptPubKey": {
            "asm": "04c2011d83e3323d23502734b97e48c6b09ce50200a3b13eb57de2b14f7e4b4b216f79c27e12084caccafcd52291f8b2e1c8e46b09fdd32915dd944de4f7e64432 OP_CHECKSIG",
            "desc": "pk(04c2011d83e3323d23502734b97e48c6b09ce50200a3b13eb57de2b14f7e4b4b216f79c27e12084caccafcd52291f8b2e1c8e46b09fdd32915dd944de4f7e64432)#m3m8psdx",
            "hex": "4104c2011d83e3323d23502734b97e48c6b09ce50200a3b13eb57de2b14f7e4b4b216f79c27e12084caccafcd52291f8b2e1c8e46b09fdd32915dd944de4f7e64432ac",
            "type": "pubkey"
          }
        }
      ],
      "hex": "01000000010000000000000000000000000000000000000000000000000000000000000000ffffffff0804ffff001d023403ffffffff0100f2052a01000000434104c2011d83e3323d23502734b97e48c6b09ce50200a3b13eb57de2b14f7e4b4b216f79c27e12084caccafcd52291f8b2e1c8e46b09fdd32915dd944de4f7e64432ac00000000"
    }
  ]
}