{
  "hash": "00000000c21019f786fd488fa69f708d66e5a383c17db5652e2adb0f4191e16d",
  "confirmations": 49453,
  "height": 3645,
  "version": 1,
  "versionHex": "00000001",
  "merkleroot": "22df11aa755b5edff0a2e379636ea66289ff72ad47cfe5c1a78606655b406ea1",
  "time": 1234200634,
  "mediantime": 1234196370,
  "nonce": 303713305,
  "bits": "1d00ffff",
  "difficulty": 1,
  "chainwork": "00000000000000000000000000000000000000000000000000000e3e0e3e0e3e",
  "nTx": 2,
  "previousblockhash": "00000000ac14f2374d7deeb757629a415f45ce41fd63e897100826ba57d24f35",
  "nextblockhash": "00000000d8687454589387620174191e81cd8a9d92300b78f3d4a848be7091a3",
  "strippedsize": 5271,
  "size": 5271,
  "weight": 21084,
  "tx": [
    {
      "txid": "9672ae0d16fddba0a825c3bd6b3edec18a1346ef04dbc64e0a63a8333af217f2",
      "hash": "9672ae0d16fddba0a825c3bd6b3edec18a1346ef04dbc64e0a63a8333af217f2",
      "version": 1,
      "size": 135,
      "vsize": 135,
      "weight": 540,
      "locktime": 0,
      "vin": [
        {
          "coinbase": "04ffff001d023009",
          "sequence": 4294967295
        }
      ],
      "vout": [
        {
          "value": 50.0,
          "n": 0,
          "scriptPubKey": {
            "asm": "0492bd5a6a07dece15dce4cf5817f85056ef8b93620bd716335d33d1b915cec0c1b1b226bf58c8404e16931541e18eb131182c92c6b5b8fb510e6d43e28b774313 OP_CHECKSIG",
            "desc": "pk(0492bd5a6a07dece15dce4cf5817f85056ef8b93620bd716335d33d1b915cec0c1b1b226bf58c8404e16931541e18eb131182c92c6b5b8fb510e6d43e28b774313)#qsnxywuu",
            "hex": "410492bd5a6a07dece15dce4cf5817f85056ef8b93620bd716335d33d1b915cec0c1b1b226bf58c8404e16931541e18eb131182c92c6b5b8fb510e6d43e28b774313ac",
            "type": "pubkey"
          }
        }
      ],
      "hex": "01000000010000000000000000000000000000000000000000000000000000000000000000ffffffff0804ffff001d023009ffffffff0100f2052a0100000043410492bd5a6a07dece15dce4cf5817f85056ef8b93620bd716335d33d1b915cec0c1b1b226bf58c8404e16931541e18eb131182c92c6b5b8fb510e6d43e28b774313ac00000000"
    },
    {
      "txid": "cec658ace2eb9fe79473a0161ea726a69924fdc17d59c39d7c58f44c36d034c1",
      "hash": "cec658ace2eb9fe79473a0161ea726a69924fdc17d59c39d7c58f44c36d034c1",
      "version": 1,
      "size": 5055,
      "vsize": 5055,
      "weight": 20220,
      "locktime": 0,
      "vin": [
        {
          "txid": "b7ebd169818b321601b816c3b2dd2f58674bf3ed9c3bdbc78ad0ed8a24a56e67",
          "vout": 0,
          "scriptSig": {
            "asm": "3046022100db44b20ca80e2d562e3648c2a124f7d4070e0040b03f7e019c69c28eedf76e09022100ae7613dac70d52d4bccee31fab27c50f086219d0fd7451183dbfcc396f8bea87[ALL]",
            "hex": "493046022100db44b20ca80e2d562e3648c2a124f7d4070e0040b03f7e019c69c28eedf76e09022100ae7613dac70d52d4bccee31fab27c50f086219d0fd7451183dbfcc396f8bea8701"
          },
          "sequence": 4294967295
        },
        {
          "txid": "726a6b6f059cdc625bfb0fe1555e7c83bfa53f7d1aa53a22d5c91e6377aacf6a",
          "vout": 0,
          "scriptSig": {
            "asm": "3045022055bb81be2001fea561afca9e65d3830fa2bfabd81ab01d4ec006716a646af293022100f29297a41e40226064291527700f0a4be1acba2b4ba8542001c6c74cc6718c88[ALL]",
            "hex": "483045022055bb81be2001fea561afca9e65d3830fa2bfabd81ab01d4ec006716a646af293022100f29297a41e40226064291527700f0a4be1acba2b4ba8542001c6c74cc6718c8801"
          },
          "sequence": 4294967295
        },
        {
          "txid": "c0bcbb06da5dd0cd9ad25861af4a7074b43f3dc80439a6ae9c10e9da44e5076d",
          "vout": 0,
          "scriptSig": {
            "asm": "304402206c4a2d0825bae8cba1cd7ca0b545724b4d3818a0fe4f0b8f56ffb7e81944bca702203dfd2fbdce9e254e34e98e27af0af96e22f8efc4d90b6eac60fd0c617b3e6363[ALL]",
            "hex": "47304402206c4a2d0825bae8cba1cd7ca0b545724b4d3818a0fe4f0b8f56ffb7e81944bca702203dfd2fbdce9e254e34e98e27af0af96e22f8efc4d90b6eac60fd0c617b3e636301"
          },
          "sequence": 4294967295
        },
        {
          "txid": "3e2b92f709e2543252b5e04ef08f57d8adf48a1e3c9dc14cd95b844cf4149d63",
          "vout": 0,
          "scriptSig": {
            "asm": "304402202db85b727284ff09e389b7b4fe112dded69f5c2dafd585cc840b3763d9cc8740022029ee2f9c313422d90d58ee8a3b0f62ef37afda91e943a98b147776c363fec5c4[ALL]",
            "hex": "47304402202db85b727284ff09e389b7b4fe112dded69f5c2dafd585cc840b3763d9cc8740022029ee2f9c313422d90d58ee8a3b0f62ef37afda91e943a98b147776c363fec5c401"
          },
          "sequence": 4294967295
        },
        {
          "txid": "31a1b9907e56b0dc812ad996bea8d6030b2922c5f2f798a544080cad860bfadd",
          "vout": 0,
          "scriptSig": {
            "asm": "3046022100f099f8494968a932d5be7b1168718c0c2bf08ae23cbab76c9ee962a2ed400591022100982d5524e4df6ca952a633145ed6cd1cb1f33f14c95835503c78600adef6832f[ALL]",
            "hex": "493046022100f099f8494968a932d5be7b1168718c0c2bf08ae23cbab76c9ee962a2ed400591022100982d5524e4df6ca952a633145ed6cd1cb1f33f14c95835503c78600adef6832f01"
          },
          "sequence": 4294967295
        },
        {
          "txid": "903ad736c850767375b87409999184dde61ab41081ea7ba8b28d1746be9dbf4d",
          "vout": 0,
          "scriptSig": {
            "asm": "3045022100b5a15eefbe0bd3c28fa336e55691393e2f183268ef20af473d5de64b58a9cd5302204435e89230afc5f1addb1ba2001fbfa0324bb18807530fa80c546ada310562ad[ALL]",
            "hex": "483045022100b5a15eefbe0bd3c28fa336e55691393e2f183268ef20af473d5de64b58a9cd5302204435e89230afc5f1addb1ba2001fbfa0324bb18807530fa80c546ada310562ad01"
          },
          "sequence": 4294967295
        },
        {
          "txid": "58ce9edff9eab240a14d5b02f18e51b846527fb0a34ba970cc8c9440abc527b1",
          "vout": 0,
          "scriptSig": {
            "asm": "3045022100942bf5c2dfaf3cdf45117069467a8666d8cbff78d6c07e3f45475ccc4c68cdfc02202c3e8bb85305c3a433aa03bd20e6c61d3aaa2f09f895fdd0ff50b6c7d7b518a7[ALL]",
            "hex": "483045022100942bf5c2dfaf3cdf45117069467a8666d8cbff78d6c07e3f45475ccc4c68cdfc02202c3e8bb85305c3a433aa03bd20e6c61d3aaa2f09f895fdd0ff50b6c7d7b518a701"
          },
          "sequence": 4294967295
        },
        {
          "txid": "15f74420d690ea9e199581c305f8a7156a0554c940773581c2cee5d1bbd9c648",
          "vout": 0,
          "scriptSig": {
            "asm": "3044022051ab67fc1217686bf62a8949d876b04e31d2f09ebfa9376ac17589c89c6f000c02206d1748bdf7a894684e4885d05e381cd7c53b5989167eb9eb37365c1695bb8552[ALL]",
            "hex": "473044022051ab67fc1217686bf62a8949d876b04e31d2f09ebfa9376ac17589c89c6f000c02206d1748bdf7a894684e4885d05e381cd7c53b5989167eb9eb37365c1695bb855201"
          },
          "sequence": 4294967295
        },
        {
          "txid": "fd72587921c8c13dcaf410a0bd500a55f1b49cd7d0000a40d34f09b1f6515c99",
          "vout": 0,
          "scriptSig": {
            "asm": "3045022100acefac1192462e087557bdda4ef729a8022687c17fb54f5d5916bfdf5ace946302206a9b0ccba95d9a2b9015d0007615e016fdcc45d6a2f3f5657c8a35be62285bd6[ALL]",
            "hex": "483045022100acefac1192462e087557bdda4ef729a8022687c17fb54f5d5916bfdf5ace946302206a9b0ccba95d9a2b9015d0007615e016fdcc45d6a2f3f5657c8a35be62285bd601"
          },
          "sequence": 4294967295
        },
        {
          "txid": "0c886c29d95f095cc5b8ff9d1eabe8acab2a9fdf0118a12984d2a506a1c5c330",
          "vout": 0,
          "scriptSig": {
            "asm": "3046022100ac1755649022816d17a4784fbbe42f83b9493cf36a63f02ecfbe871674ffabda022100cbf3f8f979d4b85af70134933492c04a7d37c058fc01b02d5a733c4d59d8f99f[ALL]",
            "hex": "493046022100ac1755649022816d17a4784fbbe42f83b9493cf36a63f02ecfbe871674ffabda022100cbf3f8f979d4b85af70134933492c04a7d37c058fc01b02d5a733c4d59d8f99f01"
          },
          "sequence": 4294967295
        },
        {
          "txid": "9f2ad7e33e280ee1f7dc6ec3c2044e430445d4a54a9c12679f69d7ce399b67c5",
          "vout": 0,
          "scriptSig": {
            "asm": "3045022070375a85ecef52438d60eeaa776e74352c341a86a1498d8664f300b3ac7ecd5602210096ae08aad9f0f64db8d5c96fcbfd8ca76ae6e0275183f896c3d7d88f2fb3e39a[ALL]",
            "hex": "483045022070375a85ecef52438d60eeaa776e74352c341a86a1498d8664f300b3ac7ecd5602210096ae08aad9f0f64db8d5c96fcbfd8ca76ae6e0275183f896c3d7d88f2fb3e39a01"
          },
          "sequence": 4294967295
        },
        {
          "txid": "e73c369368924e3eff618e24748c5cae2b09881926ef061948e8cc5b1c6205a6",
          "vout": 0,
          "scriptSig": {
            "asm": "3044022001f1b905c6888decac761841d4f116d2f9925dc7f71d12b055d7511eba555c5f022022653c6f2b1e2ba971b5dc853a097791f4cbe5d565335fd791978391d1697b19[ALL]",
            "hex": "473044022001f1b905c6888decac761841d4f116d2f9925dc7f71d12b055d7511eba555c5f022022653c6f2b1e2ba971b5dc853a097791f4cbe5d565335fd791978391d1697b1901"
          },
          "sequence": 4294967295
        },
        {
          "txid": "12745c30d634df6e42cf5aa2485bd53e16891bb945ebdbb6af7b34e0b1aa5c92",
          "vout": 0,
          "scriptSig": {
            "asm": "30450220383bd7f2051d7f1555b3457af37751a49efd09a891988d173a3a87736e74748f022100ded92e4025f71a118c1cb154b73cccb7aabf828a2759593af6d7230364483831[ALL]",
            "hex": "4830450220383bd7f2051d7f1555b3457af37751a49efd09a891988d173a3a87736e74748f022100ded92e4025f71a118c1cb154b73cccb7aabf828a2759593af6d723036448383101"
          },
          "sequence": 4294967295
        },
        {
          "txid": "fd6571d53c347152b4c999aacac464aeef60d1cefd3dee902ac2b762a548cc89",
          "vout": 0,
          "scriptSig": {
            "asm": "304402204682ce3f0148a608836ac77020ac5e874eef530146b15b8039410aee1722eea802205433da561efc47442b4e335465996edddf30514564049b2d1f904e8397f53f30[ALL]",
            "hex": "47304402204682ce3f0148a608836ac77020ac5e874eef530146b15b8039410aee1722eea802205433da561efc47442b4e335465996edddf30514564049b2d1f904e8397f53f3001"
          },
          "sequence": 4294967295
        },
        {
          "txid": "23d8d73172f834cac313d3fb26f9a23a113a02b012590b68bad447dffeeb0973",
          "vout": 0,
          "scriptSig": {
            "asm": "304402205a487b74ea99f6af1057ec92048c902b62b781e80c8859b2c1b4885932c212c2022036d2c667f9a0a58412c3691216c5fb6c084c09756a6eaf6f7a944d4f4c9c0c8a[ALL]",
            "hex": "47304402205a487b74ea99f6af1057ec92048c902b62b781e80c8859b2c1b4885932c212c2022036d2c667f9a0a58412c3691216c5fb6c084c09756a6eaf6f7a944d4f4c9c0c8a01"
          },
          "sequence": 4294967295
        },
        {
          "txid": "876d199a6c4a30430e38880af455e03f80742e278ef4fe4390988ba83e177d2f",
          "vout": 0,
          "scriptSig": {
            "asm": "304502200af5ed819beb7884213e03f7030bf309fa4674f43a98641f40644e14cd2cb751022100de173a10f76929b322764cecebbdbb1184bbcd4eb01142b4af9dc528b6ba1b52[ALL]",
            "hex": "48304502200af5ed819beb7884213e03f7030bf309fa4674f43a98641f40644e14cd2cb751022100de173a10f76929b322764cecebbdbb1184bbcd4eb01142b4af9dc528b6ba1b5201"
          },
          "sequence": 4294967295
        },
        {
          "txid": "50e68a2f3aa1e58f2b1d3ee8923aaabab28c8750bca0207f1899c370ad0b8474",
          "vout": 0,
          "scriptSig": {
            "asm": "3045022100bb0c5938d978740c0f9d571b8031912cf29e1a82245942ec1d965a321f553d0e02200f50ba3c79eb4875c9cc29a60913c907b8b861c09c1f5588259f92fb7543534e[ALL]",
            "hex": "483045022100bb0c5938d978740c0f9d571b8031912cf29e1a82245942ec1d965a321f553d0e02200f50ba3c79eb4875c9cc29a60913c907b8b861c09c1f5588259f92fb7543534e01"
          },
          "sequence": 4294967295
        },
        {
          "txid": "826acde1b04471f9c84f2762b165f96772ab59161030ab56d35dab5abceb929c",
          "vout": 0,
          "scriptSig": {
            "asm": "30440220744337aefc34a997f94cd3387899c36f2ed937966f3573884b35a72742ce635002205fb72f491217722fe6d0bbd1333eaa354f05d4dd71cd72640303755994ea868d[ALL]",
            "hex": "4730440220744337aefc34a997f94cd3387899c36f2ed937966f3573884b35a72742ce635002205fb72f491217722fe6d0bbd1333eaa354f05d4dd71cd72640303755994ea868d01"
          },
          "sequence": 4294967295
        },
        {
          "txid": "ec725ddfe0d4ae522bfce85e90f16ad24b4f3e6467e8b283384148013c1e569e",
          "vout": 0,
          "scriptSig": {
            "asm": "304402206e50e064d15f75ef67c8aed319fa446b2395c30e360e1ca1b1c5e89626b3e096022003617207521119b692e858cd72af2e7cb08ce2815e6f63f415bc8a5648935eb4[ALL]",
            "hex": "47304402206e50e064d15f75ef67c8aed319fa446b2395c30e360e1ca1b1c5e89626b3e096022003617207521119b692e858cd72af2e7cb08ce2815e6f63f415bc8a5648935eb401"
          },
          "sequence": 4294967295
        },
        {
          "txid": "a695670a3ba30572c1c4cc150ae18a934c669528f29371c28abc6e50ce4c5dd2",
          "vout": 0,
          "scriptSig": {
            "asm": "3046022100a0e27840ffb3e2587874278f09619ddceb24be47f0b57b2df4bc492434ca8428022100905450b209180aec37503975552766df0b5e9906ca4162be56f797e029cfcbab[ALL]",
            "hex": "493046022100a0e27840ffb3e2587874278f09619ddceb24be47f0b57b2df4bc492434ca8428022100905450b209180aec37503975552766df0b5e9906ca4162be56f797e029cfcbab01"
          },
          "sequence": 4294967295
        },
        {
          "txid": "8098b7e6420c3ba6ce473cd230498153c6575ec6bf6df4ed288268bc49416e39",
          "vout": 0,
          "scriptSig": {
            "asm": "304402205bfd0910eb99c10f1615dcbd75919d6dc9dcf101b8959b5d045208ca5f67e15d02200c010239a11ed0236b2d1272c7c3ace746a02929f869e90e4150fac7fe7b075e[ALL]",
            "hex": "47304402205bfd0910eb99c10f1615dcbd75919d6dc9dcf101b8959b5d045208ca5f67e15d02200c010239a11ed0236b2d1272c7c3ace746a02929f869e90e4150fac7fe7b075e01"
          },
          "sequence": 4294967295
        },
        {
          "txid": "f16f667ecafc45b7f935d8cf3951e4c020ceea4144a84132e5eda3bb30937501",
          "vout": 0,
          "scriptSig": {
            "asm": "30460221009e3e2fbdba921c5ce60ed3b155da9185ea32b2d2f51d430622e5767224f5acbe022100e26167b5015a2071508576e4e1eb3cbeb595b082ae45edd5d6aeeb023d6c11b3[ALL]",
            "hex": "4930460221009e3e2fbdba921c5ce60ed3b155da9185ea32b2d2f51d430622e5767224f5acbe022100e26167b5015a2071508576e4e1eb3cbeb595b082ae45edd5d6aeeb023d6c11b301"
          },
          "sequence": 4294967295
        },
        {
          "txid": "9065cd8dd3d9d295c850459a398999657fc32d21351b06444d954354213fbd57",
          "vout": 0,
          "scriptSig": {
            "asm": "3046022100fa5b122dc555196b6c33d10f43e473554130f5b9029ba95b817bf96005bd98c70221009ac325e1ac8ce5c3064f5cc95e08a744447d8b18248b049b5fe257704019c278[ALL]",
            "hex": "493046022100fa5b122dc555196b6c33d10f43e473554130f5b9029ba95b817bf96005bd98c70221009ac325e1ac8ce5c3064f5cc95e08a744447d8b18248b049b5fe257704019c27801"
          },
          "sequence": 4294967295
        },
        {
          "txid": "348b9eac1629c1ba1087d6441273570cba5382dffed986f5fb7b79e7113e2b05",
          "vout": 0,
          "scriptSig": {
            "asm": "3046022100ee4bff99ade46e4411764c3ff7bfc0b344e9faa15b65a8cf603daf5ba6270c3c022100a5fa6cd731a59f3e2aca784e11be765d664de4605f38ba1ef475f695ec431ade[ALL]",
            "hex": "493046022100ee4bff99ade46e4411764c3ff7bfc0b344e9faa15b65a8cf603daf5ba6270c3c022100a5fa6cd731a59f3e2aca784e11be765d664de4605f38ba1ef475f695ec431ade01"
          },
          "sequence": 4294967295
        },
        {
          "txid": "af745d2107ea16e4b1c1a6abf6b410c944d18bf0132bf8b70089b9416accbde3",
          "vout": 0,
          "scriptSig": {
            "asm": "30450221009908b3f92e78fb42c727ac986163f72b8e732c4140230371269292ae4d3d7d3c02206e057df205d574aaf90a6d452e899109bd17d82d5aa272779e0d17cd4e4a6097[ALL]",
            "hex": "4830450221009908b3f92e78fb42c727ac986163f72b8e732c4140230371269292ae4d3d7d3c02206e057df205d574aaf90a6d452e899109bd17d82d5aa272779e0d17cd4e4a609701"
          },
          "sequence": 4294967295
        },
        {
          "txid": "d38e5057d0efe83a74066bbaeb7dc9669a210e612997457e432025ca913639ef",
          "vout": 0,
          "scriptSig": {
            "asm": "3044022015d7abe850d4ff4600c0ec05f51496f3c7c6e3c7897a8313a6b9bf3e8492fbf002200344d0fc20a713ef72136628d2a3cc5aa7c5e0de46f6f5a318017d6e648ab93a[ALL]",
            "hex": "473044022015d7abe850d4ff4600c0ec05f51496f3c7c6e3c7897a8313a6b9bf3e8492fbf002200344d0fc20a713ef72136628d2a3cc5aa7c5e0de46f6f5a318017d6e648ab93a01"
          },
          "sequence": 4294967295
        },
        {
          "txid": "916940882e1e5c0aa36533ce84197ff6ec72600b1fff10c31be5417c5f69e4ff",
          "vout": 0,
          "scriptSig": {
            "asm": "3045022100c483333c1c8347883af8562bb29765785eecb1ea8e31ade49090d6adf9a1c84b022017bd7be155db3daf6de512b4cd4730bf245cea0ca06673c1f3d6f0ee3edeedba[ALL]",
            "hex": "483045022100c483333c1c8347883af8562bb29765785eecb1ea8e31ade49090d6adf9a1c84b022017bd7be155db3daf6de512b4cd4730bf245cea0ca06673c1f3d6f0ee3edeedba01"
          },
          "sequence": 4294967295
        },
        {
          "txid": "a3d029e4adb5f34ca63d818944dc575ba42d6b01b42fcd8b3092277cdd4bdeee",
          "vout": 0,
          "scriptSig": {
            "asm": "304402200d8e5a858f39098f32e45d33769cff1db4190ad66c156f31efbde1e4addb3f64022045fefbc4e410251c8317d14ea2e9b3fbdaa0ef89d023cfd4714adedadbb4e813[ALL]",
            "hex": "47304402200d8e5a858f39098f32e45d33769cff1db4190ad66c156f31efbde1e4addb3f64022045fefbc4e410251c8317d14ea2e9b3fbdaa0ef89d023cfd4714adedadbb4e81301"
          },
          "sequence": 4294967295
        },
        {
          "txid": "c3ce4bc435dfcaf97c16f9f76cd07059628ba5630919184155706c1507eabd4c",
          "vout": 0,
          "scriptSig": {
            "asm": "3046022100a3f874d02281d392d9caef401fcfcd7f4436b2c5abaa2f2d03864f6f246ea42f022100beb15169cffe498ddbd3952038f14dd2305895b948499784b6c1ce3b40d5e5c5[ALL]",
            "hex": "493046022100a3f874d02281d392d9caef401fcfcd7f4436b2c5abaa2f2d03864f6f246ea42f022100beb15169cffe498ddbd3952038f14dd2305895b948499784b6c1ce3b40d5e5c501"
          },
          "sequence": 4294967295
        },
        {
          "txid": "e6b91806f8bd27f632c66273d8387635b1fe09a90613ce90c6d35161bfb1df8d",
          "vout": 0,
          "scriptSig": {
            "asm": "304502205efb8b8c2d6cfc8eb6aeaf9404c594fe4373e7697bba6e19e5fb49656c31fd1a022100a9244645825b3c11421f46ab11f8525b23b854dd9c3274c70d95eea717369376[ALL]",
            "hex": "48304502205efb8b8c2d6cfc8eb6aeaf9404c594fe4373e7697bba6e19e5fb49656c31fd1a022100a9244645825b3c11421f46ab11f8525b23b854dd9c3274c70d95eea71736937601"
          },
          "sequence": 4294967295
        },
        {
          "txid": "94e495d21a9b14b71c6cdb06d2e3ab2cd1bd2059b0a4324a5c4763afd1293dcf",
          "vout": 0,
          "scriptSig": {
            "asm": "304402203194f5dd67abd1287996546ce681c64ac9721a2bf8d75242d40375338abbdd4802207012c6025d973f2372ad5802de114607c526c0b5bd53410e201bdcec898a3e05[ALL]",
            "hex": "47304402203194f5dd67abd1287996546ce681c64ac9721a2bf8d75242d40375338abbdd4802207012c6025d973f2372ad5802de114607c526c0b5bd53410e201bdcec898a3e0501"
          },
          "sequence": 4294967295
        },
        {
          "txid": "6ef4d3b0955c13d2386a26afef8599b2ab694fd9775f0eff1fe3ff3bc32c0ee9",
          "vout": 0,
          "scriptSig": {
            "asm": "3045022100ad6a446cbe0a4dfa7db7f83a8bc64beb4881bd2ad43c238843979bd96115bf15022058e0a64e43b6bc4491f4244c0619f8972282b7c114de2777c6cd9a7321e02a42[ALL]",
            "hex": "483045022100ad6a446cbe0a4dfa7db7f83a8bc64beb4881bd2ad43c238843979bd96115bf15022058e0a64e43b6bc4491f4244c0619f8972282b7c114de2777c6cd9a7321e02a4201"
          },
          "sequence": 4294967295
        },
        {
          "txid": "5e230ebfa8ab0496f19dd02ce14f8eb6d339e497c696bb4cb7f85c0241fc02b5",
          "vout": 0,
          "scriptSig": {
            "asm": "30450220661edbc919ab490b2aa66e96638635b0490f4d381b1d99b1df8f88f72b75c07a022100e3b8a0fd546cd69349011fa1b1df149aa4ecf509ca820c6f3d55ad740ab3dfc7[ALL]",
            "hex": "4830450220661edbc919ab490b2aa66e96638635b0490f4d381b1d99b1df8f88f72b75c07a022100e3b8a0fd546cd69349011fa1b1df149aa4ecf509ca820c6f3d55ad740ab3dfc701"
          },
          "sequence": 4294967295
        },
        {
          "txid": "87975d875bd5273f7e21f20982438feaf343e234886d6526b15d3bf3a0d26a90",
          "vout": 0,
          "scriptSig": {
            "asm": "304502203217f28f2efcf08d833f248c0b16b733e1fd07fbffa8483ea3bea1806ad5b2b9022100c0beb253f5745f84fa30853506da45fa7a00c91b8e370108a235999e38523878[ALL]",
            "hex": "48304502203217f28f2efcf08d833f248c0b16b733e1fd07fbffa8483ea3bea1806ad5b2b9022100c0beb253f5745f84fa30853506da45fa7a00c91b8e370108a235999e3852387801"
          },
          "sequence": 4294967295
        },
        {
          "txid": "8159a411eb9863c3986c5ca3fc4ef5cfe414731eca1dbdf5edfa9cd21997578f",
          "vout": 0,
          "scriptSig": {
            "asm": "30440220211ac0058376dd566348b449568742c683bc428261fd3240e8344427f41c552902200be1f74c71faf86e5177cfb96e7da44817f0c103cd9f9263ee7c6e685d467a36[ALL]",
            "hex": "4730440220211ac0058376dd566348b449568742c683bc428261fd3240e8344427f41c552902200be1f74c71faf86e5177cfb96e7da44817f0c103cd9f9263ee7c6e685d467a3601"
          },
          "sequence": 4294967295
        },
        {
          "txid": "ce1696efce1817ead20ad5b974a21ee85c01130c1d550a771de51eadda8722bc",
          "vout": 0,
          "scriptSig": {
            "asm": "304402203749502256d2f0c3d6948764e7fdebba5cde20976bbe48ef255dec5392a4973b022001c76337313d1b46cc727a204f03c7833e49ff14d5881cadd4c10f3c82d5ab23[ALL]",
            "hex": "47304402203749502256d2f0c3d6948764e7fdebba5cde20976bbe48ef255dec5392a4973b022001c76337313d1b46cc727a204f03c7833e49ff14d5881cadd4c10f3c82d5ab2301"
          },
          "sequence": 4294967295
        },
        {
          "txid": "e3e07bd3bb9c295e898c6f679f3b75c844b759d292b3191a5260cc08ce50d1b5",
          "vout": 0,
          "scriptSig": {
            "asm": "3044022054dc832e4597d47279f224b985cff5d1c2f6c00971f455032f19affca41e6f32022071111360779c63571a6a17c62b9aef53476c2574c60c9f29c92e0aec6ca7d1ad[ALL]",
            "hex": "473044022054dc832e4597d47279f224b985cff5d1c2f6c00971f455032f19affca41e6f32022071111360779c63571a6a17c62b9aef53476c2574c60c9f29c92e0aec6ca7d1ad01"
          },
          "sequence": 4294967295
        },
        {
          "txid": "11859ded6828a0ee059fbe6420538918183be4e92a93f0d5050890ea9d992dd8",
          "vout": 0,
          "scriptSig": {
            "asm": "3044022077ca29f4daa1d0ad420587b0ba918b86f0774bc3650b303897674c3c560c221502205fa04a105a7f0be0fb90fd73ae0eac40639d2263779ce71cd86bbf4754c30d1f[ALL]",
            "hex": "473044022077ca29f4daa1d0ad420587b0ba918b86f0774bc3650b303897674c3c560c221502205fa04a105a7f0be0fb90fd73ae0eac40639d2263779ce71cd86bbf4754c30d1f01"
          },
          "sequence": 4294967295
        },
        {
          "txid": "e8fb92ddfc0c4e0738ff6ac32693e9ea03b33b61f153b0dab4823df7a0aa3d61",
          "vout": 0,
          "scriptSig": {
            "asm": "3046022100c7d4b4054845359e2e8d39b8669c1032d4bde01b6fff1182321e2e6f9ab38cac022100bd2f09c7ff44fbf8be2686eaba4efa50f337234feb41247d15f1e5530616e010[ALL]",
            "hex": "493046022100c7d4b4054845359e2e8d39b8669c1032d4bde01b6fff1182321e2e6f9ab38cac022100bd2f09c7ff44fbf8be2686eaba4efa50f337234feb41247d15f1e5530616e01001"
          },
          "sequence": 4294967295
        },
        {
          "txid": "84f22a293d5f7884a0b5d108bb38d6b68d6d88ff4c9d2a21888f1b21f5e888a4",
          "vout": 0,
          "scriptSig": {
            "asm": "3045022036c16ebe26fd2574e7094b912a75406eff6c75cbd03c53a6c1cd70c1385d0a9c0221008375d22b873b322d2a88b8c61600154a59b0a117108fd5aaac64e7589a99cc53[ALL]",
            "hex": "483045022036c16ebe26fd2574e7094b912a75406eff6c75cbd03c53a6c1cd70c1385d0a9c0221008375d22b873b322d2a88b8c61600154a59b0a117108fd5aaac64e7589a99cc5301"
          },
          "sequence": 4294967295
        },
        {
          "txid": "e6ef04ac369d55b2c8b07fbb74a3c80bc3e571b9d64fe926fa34384c03d72e0e",
          "vout": 0,
          "scriptSig": {
            "asm": "304502203cc49bfede1e5228a8a7ec6c4e4f9c9af18df316571711cd04dd689fa0e86e9c022100a94c6110eb5c652efee37e0f90eeb0f5f3f6265d75a874a93d87c5d378a2218b[ALL]",
            "hex": "48304502203cc49bfede1e5228a8a7ec6c4e4f9c9af18df316571711cd04dd689fa0e86e9c022100a94c6110eb5c652efee37e0f90eeb0f5f3f6265d75a874a93d87c5d378a2218b01"
          },
          "sequence": 4294967295
        },
        {
          "txid": "c1aa87732f05aad17cec22accd8a1efabdaf671faff7f5cc5f329fd0779464db",
          "vout": 0,
          "scriptSig": {
            "asm": "3046022100c08552355010e37c606bcb3f34f612fc898f1caac83a97e7edf41af3d87d5c6f022100e37408979a20d1c9930364090f928802aeeeabcabf472b3747f2ce41a4ef8651[ALL]",
            "hex": "493046022100c08552355010e37c606bcb3f34f612fc898f1caac83a97e7edf41af3d87d5c6f022100e37408979a20d1c9930364090f928802aeeeabcabf472b3747f2ce41a4ef865101"
          },
          "sequence": 4294967295
        },
        {
          "txid": "ab0dde40c4597da649a9ab1a688f1bda0e648104707379d4c1d43ab1aa61d164",
          "vout": 0,
          "scriptSig": {
            "asm": "3046022100c69417ff4c74694b46e5eca8c65f4ccd6a147b0bf0aa9aadd36f8e6219f6862802210099f170ab6ae211528e1d40e2027c5f3fe4b6bd7e818896c34d79a59b872ce067[ALL]",
            "hex": "493046022100c69417ff4c74694b46e5eca8c65f4ccd6a147b0bf0aa9aadd36f8e6219f6862802210099f170ab6ae211528e1d40e2027c5f3fe4b6bd7e818896c34d79a59b872ce06701"
          },
          "sequence": 4294967295
        },
        {
          "txid": "0c6f29aaa69006b83e41bbc6f0de77df6a210c1536fa0ccb3f0e7741178a3785",
          "vout": 0,
          "scriptSig": {
            "asm": "3045022047ccd73bc5d875989a235fec50ed2b221462544077eacdd0ed0d02cfe37af37d022100d3cedb474063c0e5c6806b5bfca9394385d50191f3cd2bb6d427be45573393c7[ALL]",
            "hex": "483045022047ccd73bc5d875989a235fec50ed2b221462544077eacdd0ed0d02cfe37af37d022100d3cedb474063c0e5c6806b5bfca9394385d50191f3cd2bb6d427be45573393c701"
          },
          "sequence": 4294967295
        }
      ],
      "vout": [
        {
          "value": 2200.0,
          "n": 0,
          "scriptPubKey": {
            "asm": "OP_DUP OP_HASH160 12ab8dc588ca9d5787dde7eb29569da63c3a238c OP_EQUALVERIFY OP_CHECKSIG",
            "desc": "addr(12higDjoCCNXSA95xZMWUdPvXNmkAduhWv)#zn56zju2",
            "hex": "76a91412ab8dc588ca9d5787dde7eb29569da63c3a238c88ac",
            "address": "12higDjoCCNXSA95xZMWUdPvXNmkAduhWv",
            "type": "pubkeyhash"
          }
        }
      ],
      "fee": 0.0,
      "hex": "010000002c676ea5248aedd08ac7db3b9cedf34b67582fddb2c316b80116328b8169d1ebb7000000004a493046022100db44b20ca80e2d562e3648c2a124f7d4070e0040b03f7e019c69c28eedf76e09022100ae7613dac70d52d4bccee31fab27c50f086219d0fd7451183dbfcc396f8bea8701ffffffff6acfaa77631ec9d5223aa51a7d3fa5bf837c5e55e10ffb5b62dc9c056f6b6a720000000049483045022055bb81be2001fea561afca9e65d3830fa2bfabd81ab01d4ec006716a646af293022100f29297a41e40226064291527700f0a4be1acba2b4ba8542001c6c74cc6718c8801ffffffff6d07e544dae9109caea63904c83d3fb474704aaf6158d29acdd05dda06bbbcc0000000004847304402206c4a2d0825bae8cba1cd7ca0b545724b4d3818a0fe4f0b8f56ffb7e81944bca702203dfd2fbdce9e254e34e98e27af0af96e22f8efc4d90b6eac60fd0c617b3e636301ffffffff639d14f44c845bd94cc19d3c1e8af4add8578ff04ee0b5523254e209f7922b3e000000004847304402202db85b727284ff09e389b7b4fe112dded69f5c2dafd585cc840b3763d9cc8740022029ee2f9c313422d90d58ee8a3b0f62ef37afda91e943a98b147776c363fec5c401ffffffffddfa0b86ad0c0844a598f7f2c522290b03d6a8be96d92a81dcb0567e90b9a131000000004a493046022100f099f8494968a932d5be7b1168718c0c2bf08ae23cbab76c9ee962a2ed400591022100982d5524e4df6ca952a633145ed6cd1cb1f33f14c95835503c78600adef6832f01ffffffff4dbf9dbe46178db2a87bea8110b41ae6dd8491990974b875737650c836d73a900000000049483045022100b5a15eefbe0bd3c28fa336e55691393e2f183268ef20af473d5de64b58a9cd5302204435e89230afc5f1addb1ba2001fbfa0324bb18807530fa80c546ada310562ad01ffffffffb127c5ab40948ccc70a94ba3b07f5246b8518ef1025b4da140b2eaf9df9ece580000000049483045022100942bf5c2dfaf3cdf45117069467a8666d8cbff78d6c07e3f45475ccc4c68cdfc02202c3e8bb85305c3a433aa03bd20e6c61d3aaa2f09f895fdd0ff50b6c7d7b518a701ffffffff48c6d9bbd1e5cec281357740c954056a15a7f805c38195199eea90d62044f7150000000048473044022051ab67fc1217686bf62a8949d876b04e31d2f09ebfa9376ac17589c89c6f000c02206d1748bdf7a894684e4885d05e381cd7c53b5989167eb9eb37365c1695bb855201ffffffff995c51f6b1094fd3400a00d0d79cb4f1550a50bda010f4ca3dc1c821795872fd0000000049483045022100acefac1192462e087557bdda4ef729a8022687c17fb54f5d5916bfdf5ace946302206a9b0ccba95d9a2b9015d0007615e016fdcc45d6a2f3f5657c8a35be62285bd601ffffffff30c3c5a106a5d28429a11801df9f2aabace8ab1e9dffb8c55c095fd9296c880c000000004a493046022100ac1755649022816d17a4784fbbe42f83b9493cf36a63f02ecfbe871674ffabda022100cbf3f8f979d4b85af70134933492c04a7d37c058fc01b02d5a733c4d59d8f99f01ffffffffc5679b39ced7699f67129c4aa5d44504434e04c2c36edcf7e10e283ee3d72a9f0000000049483045022070375a85ecef52438d60eeaa776e74352c341a86a1498d8664f300b3ac7ecd5602210096ae08aad9f0f64db8d5c96fcbfd8ca76ae6e0275183f896c3d7d88f2fb3e39a01ffffffffa605621c5bcce8481906ef261988092bae5c8c74248e61ff3e4e926893363ce70000000048473044022001f1b905c6888decac761841d4f116d2f9925dc7f71d12b055d7511eba555c5f022022653c6f2b1e2ba971b5dc853a097791f4cbe5d565335fd791978391d1697b1901ffffffff925caab1e0347bafb6dbeb45b91b89163ed55b48a25acf426edf34d6305c741200000000494830450220383bd7f2051d7f1555b3457af37751a49efd09a891988d173a3a87736e74748f022100ded92e4025f71a118c1cb154b73cccb7aabf828a2759593af6d723036448383101ffffffff89cc48a562b7c22a90ee3dfdced160efae64c4caaa99c9b45271343cd57165fd000000004847304402204682ce3f0148a608836ac77020ac5e874eef530146b15b8039410aee1722eea802205433da561efc47442b4e335465996edddf30514564049b2d1f904e8397f53f3001ffffffff7309ebfedf47d4ba680b5912b0023a113aa2f926fbd313c3ca34f87231d7d823000000004847304402205a487b74ea99f6af1057ec92048c902b62b781e80c8859b2c1b4885932c212c2022036d2c667f9a0a58412c3691216c5fb6c084c09756a6eaf6f7a944d4f4c9c0c8a01ffffffff2f7d173ea88b989043fef48e272e74803fe055f40a88380e43304a6c9a196d87000000004948304502200af5ed819beb7884213e03f7030bf309fa4674f43a98641f40644e14cd2cb751022100de173a10f76929b322764cecebbdbb1184bbcd4eb01142b4af9dc528b6ba1b5201ffffffff74840bad70c399187f20a0bc50878cb2baaa3a92e83e1d2b8fe5a13a2f8ae6500000000049483045022100bb0c5938d978740c0f9d571b8031912cf29e1a82245942ec1d965a321f553d0e02200f50ba3c79eb4875c9cc29a60913c907b8b861c09c1f5588259f92fb7543534e01ffffffff9c92ebbc5aab5dd356ab30101659ab7267f965b162274fc8f97144b0e1cd6a8200000000484730440220744337aefc34a997f94cd3387899c36f2ed937966f3573884b35a72742ce635002205fb72f491217722fe6d0bbd1333eaa354f05d4dd71cd72640303755994ea868d01ffffffff9e561e3c0148413883b2e867643e4f4bd26af1905ee8fc2b52aed4e0df5d72ec000000004847304402206e50e064d15f75ef67c8aed319fa446b2395c30e360e1ca1b1c5e89626b3e096022003617207521119b692e858cd72af2e7cb08ce2815e6f63f415bc8a5648935eb401ffffffffd25d4cce506ebc8ac27193f22895664c938ae10a15ccc4c17205a33b0a6795a6000000004a493046022100a0e27840ffb3e2587874278f09619ddceb24be47f0b57b2df4bc492434ca8428022100905450b209180aec37503975552766df0b5e9906ca4162be56f797e029cfcbab01ffffffff396e4149bc688228edf46dbfc65e57c653814930d23c47cea63b0c42e6b79880000000004847304402205bfd0910eb99c10f1615dcbd75919d6dc9dcf101b8959b5d045208ca5f67e15d02200c010239a11ed0236b2d1272c7c3ace746a02929f869e90e4150fac7fe7b075e01ffffffff01759330bba3ede53241a84441eace20c0e45139cfd835f9b745fcca7e666ff1000000004a4930460221009e3e2fbdba921c5ce60ed3b155da9185ea32b2d2f51d430622e5767224f5acbe022100e26167b5015a2071508576e4e1eb3cbeb595b082ae45edd5d6aeeb023d6c11b301ffffffff57bd3f215443954d44061b35212dc37f659989399a4550c895d2d9d38dcd6590000000004a493046022100fa5b122dc555196b6c33d10f43e473554130f5b9029ba95b817bf96005bd98c70221009ac325e1ac8ce5c3064f5cc95e08a744447d8b18248b049b5fe257704019c27801ffffffff052b3e11e7797bfbf586d9fedf8253ba0c57731244d68710bac12916ac9e8b34000000004a493046022100ee4bff99ade46e4411764c3ff7bfc0b344e9faa15b65a8cf603daf5ba6270c3c022100a5fa6cd731a59f3e2aca784e11be765d664de4605f38ba1ef475f695ec431ade01ffffffffe3bdcc6a41b98900b7f82b13f08bd144c910b4f6aba6c1b1e416ea07215d74af00000000494830450221009908b3f92e78fb42c727ac986163f72b8e732c4140230371269292ae4d3d7d3c02206e057df205d574aaf90a6d452e899109bd17d82d5aa272779e0d17cd4e4a609701ffffffffef393691ca2520437e459729610e219a66c97debba6b06743ae8efd057508ed30000000048473044022015d7abe850d4ff4600c0ec05f51496f3c7c6e3c7897a8313a6b9bf3e8492fbf002200344d0fc20a713ef72136628d2a3cc5aa7c5e0de46f6f5a318017d6e648ab93a01ffffffffffe4695f7c41e51bc310ff1f0b6072ecf67f1984ce3365a30a5c1e2e884069910000000049483045022100c483333c1c8347883af8562bb29765785eecb1ea8e31ade49090d6adf9a1c84b022017bd7be155db3daf6de512b4cd4730bf245cea0ca06673c1f3d6f0ee3edeedba01ffffffffeede4bdd7c2792308bcd2fb4016b2da45b57dc4489813da64cf3b5ade429d0a3000000004847304402200d8e5a858f39098f32e45d33769cff1db4190ad66c156f31efbde1e4addb3f64022045fefbc4e410251c8317d14ea2e9b3fbdaa0ef89d023cfd4714adedadbb4e81301ffffffff4cbdea07156c70554118190963a58b625970d06cf7f9167cf9cadf35c44bcec3000000004a493046022100a3f874d02281d392d9caef401fcfcd7f4436b2c5abaa2f2d03864f6f246ea42f022100beb15169cffe498ddbd3952038f14dd2305895b948499784b6c1ce3b40d5e5c501ffffffff8ddfb1bf6151d3c690ce1306a909feb1357638d87362c632f627bdf80618b9e6000000004948304502205efb8b8c2d6cfc8eb6aeaf9404c594fe4373e7697bba6e19e5fb49656c31fd1a022100a9244645825b3c11421f46ab11f8525b23b854dd9c3274c70d95eea71736937601ffffffffcf3d29d1af63475c4a32a4b05920bdd12cabe3d206db6c1cb7149b1ad295e494000000004847304402203194f5dd67abd1287996546ce681c64ac9721a2bf8d75242d40375338abbdd4802207012c6025d973f2372ad5802de114607c526c0b5bd53410e201bdcec898a3e0501ffffffffe90e2cc33bffe31fff0e5f77d94f69abb29985efaf266a38d2135c95b0d3f46e0000000049483045022100ad6a446cbe0a4dfa7db7f83a8bc64beb4881bd2ad43c238843979bd96115bf15022058e0a64e43b6bc4491f4244c0619f8972282b7c114de2777c6cd9a7321e02a4201ffffffffb502fc41025cf8b74cbb96c697e439d3b68e4fe12cd09df19604aba8bf0e235e00000000494830450220661edbc919ab490b2aa66e96638635b0490f4d381b1d99b1df8f88f72b75c07a022100e3b8a0fd546cd69349011fa1b1df149aa4ecf509ca820c6f3d55ad740ab3dfc701ffffffff906ad2a0f33b5db126656d8834e243f3ea8f438209f2217e3f27d55b875d9787000000004948304502203217f28f2efcf08d833f248c0b16b733e1fd07fbffa8483ea3bea1806ad5b2b9022100c0beb253f5745f84fa30853506da45fa7a00c91b8e370108a235999e3852387801ffffffff8f579719d29cfaedf5bd1dca1e7314e4cff54efca35c6c98c36398eb11a4598100000000484730440220211ac0058376dd566348b449568742c683bc428261fd3240e8344427f41c552902200be1f74c71faf86e5177cfb96e7da44817f0c103cd9f9263ee7c6e685d467a3601ffffffffbc2287daad1ee51d770a551d0c13015ce81ea274b9d50ad2ea1718ceef9616ce000000004847304402203749502256d2f0c3d6948764e7fdebba5cde20976bbe48ef255dec5392a4973b022001c76337313d1b46cc727a204f03c7833e49ff14d5881cadd4c10f3c82d5ab2301ffffffffb5d150ce08cc60521a19b392d259b744c8753b9f676f8c895e299cbbd37be0e30000000048473044022054dc832e4597d47279f224b985cff5d1c2f6c00971f455032f19affca41e6f32022071111360779c63571a6a17c62b9aef53476c2574c60c9f29c92e0aec6ca7d1ad01ffffffffd82d999dea900805d5f0932ae9e43b181889532064be9f05eea02868ed9d85110000000048473044022077ca29f4daa1d0ad420587b0ba918b86f0774bc3650b303897674c3c560c221502205fa04a105a7f0be0fb90fd73ae0eac40639d2263779ce71cd86bbf4754c30d1f01ffffffff613daaa0f73d82b4dab053f1613bb303eae99326c36aff38074e0cfcdd92fbe8000000004a493046022100c7d4b4054845359e2e8d39b8669c1032d4bde01b6fff1182321e2e6f9ab38cac022100bd2f09c7ff44fbf8be2686eaba4efa50f337234feb41247d15f1e5530616e01001ffffffffa488e8f5211b8f88212a9d4cff886d8db6d638bb08d1b5a084785f3d292af2840000000049483045022036c16ebe26fd2574e7094b912a75406eff6c75cbd03c53a6c1cd70c1385d0a9c0221008375d22b873b322d2a88b8c61600154a59b0a117108fd5aaac64e7589a99cc5301ffffffff0e2ed7034c3834fa26e94fd6b971e5c30bc8a374bb7fb0c8b2559d36ac04efe6000000004948304502203cc49bfede1e5228a8a7ec6c4e4f9c9af18df316571711cd04dd689fa0e86e9c022100a94c6110eb5c652efee37e0f90eeb0f5f3f6265d75a874a93d87c5d378a2218b01ffffffffdb649477d09f325fccf5f7af1f67afbdfa1e8acdac22ec7cd1aa052f7387aac1000000004a493046022100c08552355010e37c606bcb3f34f612fc898f1caac83a97e7edf41af3d87d5c6f022100e37408979a20d1c9930364090f928802aeeeabcabf472b3747f2ce41a4ef865101ffffffff64d161aab13ad4c1d47973700481640eda1b8f681aaba949a67d59c440de0dab000000004a493046022100c69417ff4c74694b46e5eca8c65f4ccd6a147b0bf0aa9aadd36f8e6219f6862802210099f170ab6ae211528e1d40e2027c5f3fe4b6bd7e818896c34d79a59b872ce06701ffffffff85378a1741770e3fcb0cfa36150c216adf77def0c6bb413eb80690a6aa296f0c0000000049483045022047ccd73bc5d875989a235fec50ed2b221462544077eacdd0ed0d02cfe37af37d022100d3cedb474063c0e5c6806b5bfca9394385d50191f3cd2bb6d427be45573393c701ffffffff0100980539330000001976a91412ab8dc588ca9d5787dde7eb29569da63c3a238c88ac00000000"
    }
  ]
}