{
  "hash": "00000000b9b003c04b2fe21b4f7a2fa809eb643852573c3a1748653e2019f01c",
  "confirmations": 52038,
  "height": 299,
  "version": 1,
  "versionHex": "00000001",
  "merkleroot": "4f730d9ea9f3217440df67d200d74f49b2f6f5f794674ba3b24b5c905c1c937e",
  "time": 1231831694,
  "mediantime": 1231828541,
  "nonce": 2492032789,
  "bits": "1d00ffff",
  "difficulty": 1,
  "chainwork": "0000000000000000000000000000000000000000000000000000012c012c012c",
  "nTx": 1,
  "previousblockhash": "00000000db29ac0d2a702411bd9ed3972ed81fedc25a9a84635b09949f077ca9",
  "nextblockhash": "0000000062b69e4a2c3312a5782d7798b0711e9ebac065cd5d19f946439f8609",
  "strippedsize": 215,
  "size": 215,
  "weight": 860,
  "tx": [
    {
      "txid": "4f730d9ea9f3217440df67d200d74f49b2f6f5f794674ba3b24b5c905c1c937e",
      "hash": "4f730d9ea9f3217440df67d200d74f49b2f6f5f794674ba3b24b5c905c1c937e",
      "version": 1,
      "size": 134,
      "vsize": 134,
      "weight": 536,
      "locktime": 0,
      "vin": [
        {
          "coinbase": "04ffff001d0164",
          "sequence": 4294967295
        }
      ],
      "vout": [
        {
          "value": 50.0,
          "n": 0,
          "scriptPubKey": {
            "asm": "04f1d8aedbb24f698b2fde2266671f792367fa55e88d8071ebe67cdb8778123c4714091d4a833a2f5bd23015e45ac258e001d1ffac52cec6ec5ebfd3974439d74f OP_CHECKSIG",
            "desc": "pk(04f1d8aedbb24f698b2fde2266671f792367fa55e88d8071ebe67cdb8778123c4714091d4a833a2f5bd23015e45ac258e001d1ffac52cec6ec5ebfd3974439d74f)#x0u765lq",
            "hex": "4104f1d8aedbb24f698b2fde2266671f792367fa55e88d8071ebe67cdb8778123c4714091d4a833a2f5bd23015e45ac258e001d1ffac52cec6ec5ebfd3974439d74fac",
            "type": "pubkey"
          }
        }
      ],
      "hex": "01000000010000000000000000000000000000000000000000000000000000000000000000ffffffff0704ffff001d0164ffffffff0100f2052a01000000434104f1d8aedbb24f698b2fde2266671f792367fa55e88d8071ebe67cdb8778123c4714091d4a833a2f5bd23015e45ac258e001d1ffac52cec6ec5ebfd3974439d74fac00000000"
    }
  ]
}