{
  "hash": "000000002d93c9fc83d40de38e3c7c4840955293ef8f76a7092653b8f70778cf",
  "confirmations": 48850,
  "height": 4248,
  "version": 1,
  "versionHex": "00000001",
  "merkleroot": "cdcc70d32aeee0f364771d15338ebca26077df8ef9eb26075dbcc7b734860282",
  "time": 1234610316,
  "mediantime": 1234608165,
  "nonce": 3637983546,
  "bits": "1d00ffff",
  "difficulty": 1,
  "chainwork": "0000000000000000000000000000000000000000000000000000109910991099",
  "nTx": 1,
  "previousblockhash": "00000000585e91db957d47f372cd5df84a590835e99f6eb761a5d086f52519f4",
  "nextblockhash": "00000000f59bbb0c2905796a460a6de2fe4cba70960ea124946a6d204f214ffa",
  "strippedsize": 216,
  "size": 216,
  "weight": 864,
  "tx": [
    {
      "txid": "cdcc70d32aeee0f364771d15338ebca26077df8ef9eb26075dbcc7b734860282",
      "hash": "cdcc70d32aeee0f364771d15338ebca26077df8ef9eb26075dbcc7b734860282",
      "version": 1,
      "size": 135,
      "vsize": 135,
      "weight": 540,
      "locktime": 0,
      "vin": [
        {
          "coinbase": "04ffff001d02e807",
          "sequence": 4294967295
        }
      ],
      "vout": [
        {
          "value": 50.0,
          "n": 0,
          "scriptPubKey": {
            "asm": "044ed210405a9dc466c5244b0cfdc2c675df67eb123425618d0ae4ee0ac33eb3073c29d3e97c21efc9e286f67fdeefc250faa2a81f86da3db659c79e11796a8ff5 OP_CHECKSIG",
            "desc": "pk(044ed210405a9dc466c5244b0cfdc2c675df67eb123425618d0ae4ee0ac33eb3073c29d3e97c21efc9e286f67fdeefc250faa2a81f86da3db659c79e11796a8ff5)#n6gvnets",
            "hex": "41044ed210405a9dc466c5244b0cfdc2c675df67eb123425618d0ae4ee0ac33eb3073c29d3e97c21efc9e286f67fdeefc250faa2a81f86da3db659c79e11796a8ff5ac",
            "type": "pubkey"
          }
        }
      ],
      "hex": "01000000010000000000000000000000000000000000000000000000000000000000000000ffffffff0804ffff001d02e807ffffffff0100f2052a010000004341044ed210405a9dc466c5244b0cfdc2c675df67eb123425618d0ae4ee0ac33eb3073c29d3e97c21efc9e286f67fdeefc250faa2a81f86da3db659c79e11796a8ff5ac00000000"
    }
  ]
}