{
  "hash": "000000002d843058f2fc99aeace4742b109010e09e99b42d08558af805a4a385",
  "confirmations": 50415,
  "height": 2683,
  "version": 1,
  "versionHex": "00000001",
  "merkleroot": "5e7264e82b59545777f69b7ae7be106bd33d6cb488d07d2f6548380dde245666",
  "time": 1233552172,
  "mediantime": 1233547404,
  "nonce": 1683847943,
  "bits": "1d00ffff",
  "difficulty": 1,
  "chainwork": "00000000000000000000000000000000000000000000000000000a7c0a7c0a7c",
  "nTx": 1,
  "previousblockhash": "00000000eaead7d7a8ec90b0d5759b24cb40d84fc6d5331bce0d0be4613723ae",
  "nextblockhash": "00000000292caa61b5a0aae1528c4d1d629585b667f6a222020b638842a85f32",
  "strippedsize": 216,
  "size": 216,
  "weight": 864,
  "tx": [
    {
      "txid": "5e7264e82b59545777f69b7ae7be106bd33d6cb488d07d2f6548380dde245666",
      "hash": "5e7264e82b59545777f69b7ae7be106bd33d6cb488d07d2f6548380dde245666",
      "version": 1,
      "size": 135,
      "vsize": 135,
      "weight": 540,
      "locktime": 0,
      "vin": [
        {
          "coinbase": "04ffff001d028604",
          "sequence": 4294967295
        }
      ],
      "vout": [
        {
          "value": 50.0,
          "n": 0,
          "scriptPubKey": {
            "asm": "04d65cc4ca813f8f69d7fceef8c79d6c48a6e8b4fdf892f3a0447e7b6e3f404e3d0ef0cd1e8c6e755fcdda1a14c7dace8fce14319f30aefc626330626cd88b1f8c OP_CHECKSIG",
            "desc": "pk(04d65cc4ca813f8f69d7fceef8c79d6c48a6e8b4fdf892f3a0447e7b6e3f404e3d0ef0cd1e8c6e755fcdda1a14c7dace8fce14319f30aefc626330626cd88b1f8c)#zzzp4rky",
            "hex": "4104d65cc4ca813f8f69d7fceef8c79d6c48a6e8b4fdf892f3a0447e7b6e3f404e3d0ef0cd1e8c6e755fcdda1a14c7dace8fce14319f30aefc626330626cd88b1f8cac",
            "type": "pubkey"
          }
        }
      ],
      "hex": "01000000010000000000000000000000000000000000000000000000000000000000000000ffffffff0804ffff001d028604ffffffff0100f2052a01000000434104d65cc4ca813f8f69d7fceef8c79d6c48a6e8b4fdf892f3a0447e7b6e3f404e3d0ef0cd1e8c6e755fcdda1a14c7dace8fce14319f30aefc626330626cd88b1f8cac00000000"
    }
  ]
}