{
  "hash": "0000000068a7430d09809d047b72ef05d2c9a1e4283bdc4cdcffc72ccca83001",
  "confirmations": 45485,
  "height": 7613,
  "version": 1,
  "versionHex": "00000001",
  "merkleroot": "1d6a6f0074fbf5f5ca6d5b8f58af7920d559de56b3ec00168500067ef04b2a3a",
  "time": 1237176856,
  "mediantime": 1237174587,
  "nonce": 2132519215,
  "bits": "1d00ffff",
  "difficulty": 1,
  "chainwork": "00000000000000000000000000000000000000000000000000001dbe1dbe1dbe",
  "nTx": 1,
  "previousblockhash": "000000007f8db6511db0e101debcb9748cab4a8428be673df8ad7c520713195a",
  "nextblockhash": "00000000a422e4a3175b9d9d77c923a6dc14c893ba0a0f9b56c9018ffa908701",
  "strippedsize": 216,
  "size": 216,
  "weight": 864,
  "tx": [
    {
      "txid": "1d6a6f0074fbf5f5ca6d5b8f58af7920d559de56b3ec00168500067ef04b2a3a",
      "hash": "1d6a6f0074fbf5f5ca6d5b8f58af7920d559de56b3ec00168500067ef04b2a3a",
      "version": 1,
      "size": 135,
      "vsize": 135,
      "weight": 540,
      "locktime": 0,
      "vin": [
        {
          "coinbase": "04ffff001d02cd02",
          "sequence": 4294967295
        }
      ],
      "vout": [
        {
          "value": 50.0,
          "n": 0,
          "scriptPubKey": {
            "asm": "04676aff5dcddb5cdb01cc234c31669d7fcaa5922241e43d069ab7cbbfb4f0c0b668c2fe09c621336487811c5d42a6fabb05a92eb917491d1b93967aeffc3f18bc OP_CHECKSIG",
            "desc": "pk(04676aff5dcddb5cdb01cc234c31669d7fcaa5922241e43d069ab7cbbfb4f0c0b668c2fe09c621336487811c5d42a6fabb05a92eb917491d1b93967aeffc3f18bc)#s09mrqdw",
            "hex": "4104676aff5dcddb5cdb01cc234c31669d7fcaa5922241e43d069ab7cbbfb4f0c0b668c2fe09c621336487811c5d42a6fabb05a92eb917491d1b93967aeffc3f18bcac",
            "type": "pubkey"
          }
        }
      ],
      "hex": "01000000010000000000000000000000000000000000000000000000000000000000000000ffffffff0804ffff001d02cd02ffffffff0100f2052a01000000434104676aff5dcddb5cdb01cc234c31669d7fcaa5922241e43d069ab7cbbfb4f0c0b668c2fe09c621336487811c5d42a6fabb05a92eb917491d1b93967aeffc3f18bcac00000000"
    }
  ]
}