{
  "hash": "00000000a55bd68777b9412975ad67eaccf5d37259c182a2d7e15aa37a7816b3",
  "confirmations": 51682,
  "height": 1416,
  "version": 1,
  "versionHex": "00000001",
  "merkleroot": "1370bef70336d889a35223402f9797da1813ab48f4dda0a6ae5ed2b5ed06eb6d",
  "time": 1232732329,
  "mediantime": 1232729636,
  "nonce": 3981573665,
  "bits": "1d00ffff",
  "difficulty": 1,
  "chainwork": "0000000000000000000000000000000000000000000000000000058905890589",
  "nTx": 1,
  "previousblockhash": "00000000e9470e3bcf702822ecee32a6f686f0dac42b5dcfc4a3b1feffce6128",
  "nextblockhash": "00000000bc4155ab5b60547430a8447e80b75e4eb7662f1bdfb10ad6031c27e0",
  "strippedsize": 215,
  "size": 215,
  "weight": 860,
  "tx": [
    {
      "txid": "1370bef70336d889a35223402f9797da1813ab48f4dda0a6ae5ed2b5ed06eb6d",
      "hash": "1370bef70336d889a35223402f9797da1813ab48f4dda0a6ae5ed2b5ed06eb6d",
      "version": 1,
      "size": 134,
      "vsize": 134,
      "weight": 536,
      "locktime": 0,
      "vin": [
        {
          "coinbase": "04ffff001d0153",
          "sequence": 4294967295
        }
      ],
      "vout": [
        {
          "value": 50.0,
          "n": 0,
          "scriptPubKey": {
            "asm": "043021c1a24473902dcda3afe59928e8d3afa939c9154a657dd8805ec1ed06f37023b8750958e1ec24695e6eed5209e4d3efc089fe467cfed0ba1307ea33df3b4d OP_CHECKSIG",
            "desc": "pk(043021c1a24473902dcda3afe59928e8d3afa939c9154a657dd8805ec1ed06f37023b8750958e1ec24695e6eed5209e4d3efc089fe467cfed0ba1307ea33df3b4d)#yqens6rj",
            "hex": "41043021c1a24473902dcda3afe59928e8d3afa939c9154a657dd8805ec1ed06f37023b8750958e1ec24695e6eed5209e4d3efc089fe467cfed0ba1307ea33df3b4dac",
            "type": "pubkey"
          }
        }
      ],
      "hex": "01000000010000000000000000000000000000000000000000000000000000000000000000ffffffff0704ffff001d0153ffffffff0100f2052a010000004341043021c1a24473902dcda3afe59928e8d3afa939c9154a657dd8805ec1ed06f37023b8750958e1ec24695e6eed5209e4d3efc089fe467cfed0ba1307ea33df3b4dac00000000"
    }
  ]
}