{
  "hash": "0000000007be87cc100137cc086df3322658c8c0197b54b11b37ad8e1c9adb21",
  "confirmations": 44077,
  "height": 9021,
  "version": 1,
  "versionHex": "00000001",
  "merkleroot": "8a75a58578d6af446c6f1da4f48b691df16332e1150c5c80b8b07d0002019321",
  "time": 1238267241,
  "mediantime": 1238263697,
  "nonce": 747021093,
  "bits": "1d00ffff",
  "difficulty": 1,
  "chainwork": "0000000000000000000000000000000000000000000000000000233e233e233e",
  "nTx": 1,
  "previousblockhash": "00000000dc72caa6de5ee3e75c099be6c4496f06b957994446c9494e69c9972b",
  "nextblockhash": "000000005985ddd407d323e19488030a5e48531ba2c9b69fb0451cb49425ea98",
  "strippedsize": 216,
  "size": 216,
  "weight": 864,
  "tx": [
    {
      "txid": "8a75a58578d6af446c6f1da4f48b691df16332e1150c5c80b8b07d0002019321",
      "hash": "8a75a58578d6af446c6f1da4f48b691df16332e1150c5c80b8b07d0002019321",
      "version": 1,
      "size": 135,
      "vsize": 135,
      "weight": 540,
      "locktime": 0,
      "vin": [
        {
          "coinbase": "04ffff001d02b806",
          "sequence": 4294967295
        }
      ],
      "vout": [
        {
          "value": 50.0,
          "n": 0,
          "scriptPubKey": {
            "asm": "04544f7e32ac6cc4910b169a65f8384dac49f133a93749cefd43605363720c6eea74372fa92eef70ac88f6b27296ee5b72e6f10c68d3fc6b1e4585f0ff0b4ee102 OP_CHECKSIG",
            "desc": "pk(04544f7e32ac6cc4910b169a65f8384dac49f133a93749cefd43605363720c6eea74372fa92eef70ac88f6b27296ee5b72e6f10c68d3fc6b1e4585f0ff0b4ee102)#ukfs6mpy",
            "hex": "4104544f7e32ac6cc4910b169a65f8384dac49f133a93749cefd43605363720c6eea74372fa92eef70ac88f6b27296ee5b72e6f10c68d3fc6b1e4585f0ff0b4ee102ac",
            "type": "pubkey"
          }
        }
      ],
      "hex": "01000000010000000000000000000000000000000000000000000000000000000000000000ffffffff0804ffff001d02b806ffffffff0100f2052a01000000434104544f7e32ac6cc4910b169a65f8384dac49f133a93749cefd43605363720c6eea74372fa92eef70ac88f6b27296ee5b72e6f10c68d3fc6b1e4585f0ff0b4ee102ac00000000"
    }
  ]
}