{
  "hash": "00000000eb7ad499b9bb85905ac97b514418ab030f74424d21f4bd88e4271b16",
  "confirmations": 45256,
  "height": 7842,
  "version": 1,
  "versionHex": "00000001",
  "merkleroot": "ae7ee52718bf46b62ff50fdae6dacee5a84d1a611f056df3e8857e25e02f3af9",
  "time": 1237346771,
  "mediantime": 1237341969,
  "nonce": 3903478807,
  "bits": "1d00ffff",
  "difficulty": 1,
  "chainwork": "00000000000000000000000000000000000000000000000000001ea31ea31ea3",
  "nTx": 1,
  "previousblockhash": "000000001ee7109f7e57c96d5b1d125caa3e15ed967fa2e98c5b9228162d6c4f",
  "nextblockhash": "00000000e059c4a708adca010d217e484600c568859708cf67cb8900c82c1a04",
  "strippedsize": 216,
  "size": 216,
  "weight": 864,
  "tx": [
    {
      "txid": "ae7ee52718bf46b62ff50fdae6dacee5a84d1a611f056df3e8857e25e02f3af9",
      "hash": "ae7ee52718bf46b62ff50fdae6dacee5a84d1a611f056df3e8857e25e02f3af9",
      "version": 1,
      "size": 135,
      "vsize": 135,
      "weight": 540,
      "locktime": 0,
      "vin": [
        {
          "coinbase": "04ffff001d029606",
          "sequence": 4294967295
        }
      ],
      "vout": [
        {
          "value": 50.0,
          "n": 0,
          "scriptPubKey": {
            "asm": "04e1b36e7f84f450a72f16e808c3dc061de2ea84632ee4aeac5e8d1665ca90b025e50e97c2d950b40b7a5d1098c66994893a51c692fd969896dedf11e63645b5b7 OP_CHECKSIG",
            "desc": "pk(04e1b36e7f84f450a72f16e808c3dc061de2ea84632ee4aeac5e8d1665ca90b025e50e97c2d950b40b7a5d1098c66994893a51c692fd969896dedf11e63645b5b7)#jas4u7wk",
            "hex": "4104e1b36e7f84f450a72f16e808c3dc061de2ea84632ee4aeac5e8d1665ca90b025e50e97c2d950b40b7a5d1098c66994893a51c692fd969896dedf11e63645b5b7ac",
            "type": "pubkey"
          }
        }
      ],
      "hex": "01000000010000000000000000000000000000000000000000000000000000000000000000ffffffff0804ffff001d029606ffffffff0100f2052a01000000434104e1b36e7f84f450a72f16e808c3dc061de2ea84632ee4aeac5e8d1665ca90b025e50e97c2d950b40b7a5d1098c66994893a51c692fd969896dedf11e63645b5b7ac00000000"
    }
  ]
}