{
  "hash": "0000000023311cd98613c2cbb881308d8aef4cb7db953ec576f77db3bab87562",
  "confirmations": 45053,
  "height": 8045,
  "version": 1,
  "versionHex": "00000001",
  "merkleroot": "5dad2dd9ca5adf5a55942c61c87d988c0f45e211a17a49a53bf5f55f43d76005",
  "time": 1237492406,
  "mediantime": 1237490088,
  "nonce": 104350970,
  "bits": "1d00ffff",
  "difficulty": 1,
  "chainwork": "00000000000000000000000000000000000000000000000000001f6e1f6e1f6e",
  "nTx": 1,
  "previousblockhash": "0000000088ed35839dd1bacc958bf26f019a96fbebb0ce838793643632c7cafa",
  "nextblockhash": "00000000ca9c0a2d6b297c9569d1d8d0be7154fa5cbc2a3aa3289d50765498bd",
  "strippedsize": 216,
  "size": 216,
  "weight": 864,
  "tx": [
    {
      "txid": "5dad2dd9ca5adf5a55942c61c87d988c0f45e211a17a49a53bf5f55f43d76005",
      "hash": "5dad2dd9ca5adf5a55942c61c87d988c0f45e211a17a49a53bf5f55f43d76005",
      "version": 1,
      "size": 135,
      "vsize": 135,
      "weight": 540,
      "locktime": 0,
      "vin": [
        {
          "coinbase": "04ffff001d027e01",
          "sequence": 4294967295
        }
      ],
      "vout": [
        {
          "value": 50.0,
          "n": 0,
          "scriptPubKey": {
            "asm": "04a13f8f0b904538d2b5868c3c88d90d06b67ea2a0d72964a6344449a3d4c86e0869307a3c0665edfa2ff6563f6fc6cc74d7dee84e6f9edf9e9591f29aa6222a15 OP_CHECKSIG",
            "desc": "pk(04a13f8f0b904538d2b5868c3c88d90d06b67ea2a0d72964a6344449a3d4c86e0869307a3c0665edfa2ff6563f6fc6cc74d7dee84e6f9edf9e9591f29aa6222a15)#yjrp5uw5",
            "hex": "4104a13f8f0b904538d2b5868c3c88d90d06b67ea2a0d72964a6344449a3d4c86e0869307a3c0665edfa2ff6563f6fc6cc74d7dee84e6f9edf9e9591f29aa6222a15ac",
            "type": "pubkey"
          }
        }
      ],
      "hex": "01000000010000000000000000000000000000000000000000000000000000000000000000ffffffff0804ffff001d027e01ffffffff0100f2052a01000000434104a13f8f0b904538d2b5868c3c88d90d06b67ea2a0d72964a6344449a3d4c86e0869307a3c0665edfa2ff6563f6fc6cc74d7dee84e6f9edf9e9591f29aa6222a15ac00000000"
    }
  ]
}