{
  "hash": "00000000d55d8453b7ee461a86125a9612f42f52b39c253e76ae760b9712b283",
  "confirmations": 43429,
  "height": 9669,
  "version": 1,
  "versionHex": "00000001",
  "merkleroot": "b279ba92e328a5d52d11493d7eb6530177f472ced5091ad69efb5929838aec97",
  "time": 1238754022,
  "mediantime": 1238750568,
  "nonce": 530660868,
  "bits": "1d00ffff",
  "difficulty": 1,
  "chainwork": "000000000000000000000000000000000000000000000000000025c625c625c6",
  "nTx": 1,
  "previousblockhash": "0000000067bd9714807dede7f1dd893b220b10f4b367a0e5b7e96b1f3b82080a",
  "nextblockhash": "0000000090eb010c9944710e54cb525b6e1c062603a2f935c6c758b5209b4ff4",
  "strippedsize": 216,
  "size": 216,
  "weight": 864,
  "tx": [
    {
      "txid": "b279ba92e328a5d52d11493d7eb6530177f472ced5091ad69efb5929838aec97",
      "hash": "b279ba92e328a5d52d11493d7eb6530177f472ced5091ad69efb5929838aec97",
      "version": 1,
      "size": 135,
      "vsize": 135,
      "weight": 540,
      "locktime": 0,
      "vin": [
        {
          "coinbase": "04ffff001d02ed07",
          "sequence": 4294967295
        }
      ],
      "vout": [
        {
          "value": 50.0,
          "n": 0,
          "scriptPubKey": {
            "asm": "04063e86dbee5ec00d966239aa64d20d7ff244a5295de946933cc85739092df9b3b6d9107322e56eee0e3fe3b25a93a63cd32860298a72e0ca4108f66947162bec OP_CHECKSIG",
            "desc": "pk(04063e86dbee5ec00d966239aa64d20d7ff244a5295de946933cc85739092df9b3b6d9107322e56eee0e3fe3b25a93a63cd32860298a72e0ca4108f66947162bec)#08c4uade",
            "hex": "4104063e86dbee5ec00d966239aa64d20d7ff244a5295de946933cc85739092df9b3b6d9107322e56eee0e3fe3b25a93a63cd32860298a72e0ca4108f66947162becac",
            "type": "pubkey"
          }
        }
      ],
      "hex": "01000000010000000000000000000000000000000000000000000000000000000000000000ffffffff0804ffff001d02ed07ffffffff0100f2052a01000000434104063e86dbee5ec00d966239aa64d20d7ff244a5295de946933cc85739092df9b3b6d9107322e56eee0e3fe3b25a93a63cd32860298a72e0ca4108f66947162becac00000000"
    }
  ]
}