{
  "hash": "00000000249d85e360e7fa196bb6cb040fc5bb6cabc4f8e3c0bf5a0a160eae8e",
  "confirmations": 52340,
  "height": 758,
  "version": 1,
  "versionHex": "00000001",
  "merkleroot": "9ce098a623e47776b7392c9ff0f30f6a32fc91fee1b34b348ed012ebc358fd2a",
  "time": 1232157221,
  "mediantime": 1232153864,
  "nonce": 1470955546,
  "bits": "1d00ffff",
  "difficulty": 1,
  "chainwork": "000000000000000000000000000000000000000000000000000002f702f702f7",
  "nTx": 1,
  "previousblockhash": "0000000085dc21acb05334554ee42d3564a9131b589511bb261f026fa99822d2",
  "nextblockhash": "00000000eaf0da6bac4f877a43261dd151550d4103b4d57f6ece36c143e48a17",
  "strippedsize": 216,
  "size": 216,
  "weight": 864,
  "tx": [
    {
      "txid": "9ce098a623e47776b7392c9ff0f30f6a32fc91fee1b34b348ed012ebc358fd2a",
      "hash": "9ce098a623e47776b7392c9ff0f30f6a32fc91fee1b34b348ed012ebc358fd2a",
      "version": 1,
      "size": 135,
      "vsize": 135,
      "weight": 540,
      "locktime": 0,
      "vin": [
        {
          "coinbase": "04ffff001d02b900",
          "sequence": 4294967295
        }
      ],
      "vout": [
        {
          "value": 50.0,
          "n": 0,
          "scriptPubKey": {
            "asm": "04958187f815567a223f90fafbb7308c02ad4c8d931d4fd89dc3bd3c4a230e91abd4526e478adf9e93abfc92f1dddb30b7695c5ffb9ab2d893d736b54f11be4ec7 OP_CHECKSIG",
            "desc": "pk(04958187f815567a223f90fafbb7308c02ad4c8d931d4fd89dc3bd3c4a230e91abd4526e478adf9e93abfc92f1dddb30b7695c5ffb9ab2d893d736b54f11be4ec7)#gagxgv3f",
            "hex": "4104958187f815567a223f90fafbb7308c02ad4c8d931d4fd89dc3bd3c4a230e91abd4526e478adf9e93abfc92f1dddb30b7695c5ffb9ab2d893d736b54f11be4ec7ac",
            "type": "pubkey"
          }
        }
      ],
      "hex": "01000000010000000000000000000000000000000000000000000000000000000000000000ffffffff0804ffff001d02b900ffffffff0100f2052a01000000434104958187f815567a223f90fafbb7308c02ad4c8d931d4fd89dc3bd3c4a230e91abd4526e478adf9e93abfc92f1dddb30b7695c5ffb9ab2d893d736b54f11be4ec7ac00000000"
    }
  ]
}