{
  "hash": "000000006788b1fda2bd5cd87dd4bf65c3eaa7bc84c435b11a7f6dda4b8a591a",
  "confirmations": 51009,
  "height": 2089,
  "version": 1,
  "versionHex": "00000001",
  "merkleroot": "879de1abc00f2adc3a5522d16861c07cb0a10b15b5685122a13a650f269e1e90",
  "time": 1233128620,
  "mediantime": 1233127451,
  "nonce": 74294491,
  "bits": "1d00ffff",
  "difficulty": 1,
  "chainwork": "0000000000000000000000000000000000000000000000000000082a082a082a",
  "nTx": 1,
  "previousblockhash": "00000000b1915dd2367819ab3b5fec9ca28eb03936dfe34900a7a57efc298980",
  "nextblockhash": "000000008cb4680dd14cccadebd9e6127373c71f948015a502eded2921f72db9",
  "strippedsize": 215,
  "size": 215,
  "weight": 860,
  "tx": [
    {
      "txid": "879de1abc00f2adc3a5522d16861c07cb0a10b15b5685122a13a650f269e1e90",
      "hash": "879de1abc00f2adc3a5522d16861c07cb0a10b15b5685122a13a650f269e1e90",
      "version": 1,
      "size": 134,
      "vsize": 134,
      "weight": 536,
      "locktime": 0,
      "vin": [
        {
          "coinbase": "04ffff001d013d",
          "sequence": 4294967295
        }
      ],
      "vout": [
        {
          "value": 50.0,
          "n": 0,
          "scriptPubKey": {
            "asm": "04907db4bcb2bcd5bf728288b78e5b03cc5d46bd799ae0a4aae22c4904238bd468476ef574b075a6c7291278bcc02c7b8149fe32aede4a5971c5f8656ab52efdbc OP_CHECKSIG",
            "desc": "pk(04907db4bcb2bcd5bf728288b78e5b03cc5d46bd799ae0a4aae22c4904238bd468476ef574b075a6c7291278bcc02c7b8149fe32aede4a5971c5f8656ab52efdbc)#7tt2u9qq",
            "hex": "4104907db4bcb2bcd5bf728288b78e5b03cc5d46bd799ae0a4aae22c4904238bd468476ef574b075a6c7291278bcc02c7b8149fe32aede4a5971c5f8656ab52efdbcac",
            "type": "pubkey"
          }
        }
      ],
      "hex": "01000000010000000000000000000000000000000000000000000000000000000000000000ffffffff0704ffff001d013dffffffff0100f2052a01000000434104907db4bcb2bcd5bf728288b78e5b03cc5d46bd799ae0a4aae22c4904238bd468476ef574b075a6c7291278bcc02c7b8149fe32aede4a5971c5f8656ab52efdbcac00000000"
    }
  ]
}