{
  "hash": "0000000060b5d78901f42d7caafa58a3a65050302180313f4f8ff30face3d066",
  "confirmations": 52389,
  "height": 709,
  "version": 1,
  "versionHex": "00000001",
  "merkleroot": "bf6d1f4d6155853304ace4df4328e02ac7497fc4bb7ee129c080e6b03be2a4c6",
  "time": 1232115216,
  "mediantime": 1232111152,
  "nonce": 4177225269,
  "bits": "1d00ffff",
  "difficulty": 1,
  "chainwork": "000000000000000000000000000000000000000000000000000002c602c602c6",
  "nTx": 1,
  "previousblockhash": "00000000e4f0ff6c0defc41f1b44db9519708cb667e8d07ca982f8ab473e6786",
  "nextblockhash": "00000000791fb1702dd6462b58168d1d93dd26fb6f4755e350c319f17d208645",
  "strippedsize": 216,
  "size": 216,
  "weight": 864,
  "tx": [
    {
      "txid": "bf6d1f4d6155853304ace4df4328e02ac7497fc4bb7ee129c080e6b03be2a4c6",
      "hash": "bf6d1f4d6155853304ace4df4328e02ac7497fc4bb7ee129c080e6b03be2a4c6",
      "version": 1,
      "size": 135,
      "vsize": 135,
      "weight": 540,
      "locktime": 0,
      "vin": [
        {
          "coinbase": "04ffff001d023801",
          "sequence": 4294967295
        }
      ],
      "vout": [
        {
          "value": 50.0,
          "n": 0,
          "scriptPubKey": {
            "asm": "04fb85999eba791eaba8e15ca2182864bebe7cf41affa4ed4c25a371bf48bf052a9c1966dd8a4004889ab30ea1af2a335f1bccf3f86673ceb77befd773c4ec62cd OP_CHECKSIG",
            "desc": "pk(04fb85999eba791eaba8e15ca2182864bebe7cf41affa4ed4c25a371bf48bf052a9c1966dd8a4004889ab30ea1af2a335f1bccf3f86673ceb77befd773c4ec62cd)#lmcjkda5",
            "hex": "4104fb85999eba791eaba8e15ca2182864bebe7cf41affa4ed4c25a371bf48bf052a9c1966dd8a4004889ab30ea1af2a335f1bccf3f86673ceb77befd773c4ec62cdac",
            "type": "pubkey"
          }
        }
      ],
      "hex": "01000000010000000000000000000000000000000000000000000000000000000000000000ffffffff0804ffff001d023801ffffffff0100f2052a01000000434104fb85999eba791eaba8e15ca2182864bebe7cf41affa4ed4c25a371bf48bf052a9c1966dd8a4004889ab30ea1af2a335f1bccf3f86673ceb77befd773c4ec62cdac00000000"
    }
  ]
}