{
  "hash": "000000009c20a2575989ac67bccf3f4aa91d6291bffe8ededd1b9552b372dfd1",
  "confirmations": 51465,
  "height": 1633,
  "version": 1,
  "versionHex": "00000001",
  "merkleroot": "5c23da2d56dc7b525985cef8daae62e1eef35f8a0efd03fd612bade9dfe945cc",
  "time": 1232825250,
  "mediantime": 1232823104,
  "nonce": 2810468903,
  "bits": "1d00ffff",
  "difficulty": 1,
  "chainwork": "0000000000000000000000000000000000000000000000000000066206620662",
  "nTx": 1,
  "previousblockhash": "00000000efd06192ee4bef48bd5b88b42c5ddfab8081c6470e10ea5187ce316d",
  "nextblockhash": "00000000e9442450d3f43bde529cfadc488a105152d6b607fc332b3a13d497e8",
  "strippedsize": 216,
  "size": 216,
  "weight": 864,
  "tx": [
    {
      "txid": "5c23da2d56dc7b525985cef8daae62e1eef35f8a0efd03fd612bade9dfe945cc",
      "hash": "5c23da2d56dc7b525985cef8daae62e1eef35f8a0efd03fd612bade9dfe945cc",
      "version": 1,
      "size": 135,
      "vsize": 135,
      "weight": 540,
      "locktime": 0,
      "vin": [
        {
          "coinbase": "04ffff001d027c02",
          "sequence": 4294967295
        }
      ],
      "vout": [
        {
          "value": 50.0,
          "n": 0,
          "scriptPubKey": {
            "asm": "0475d02b901bff7dcbd23256b8b24c5fa25792ffc461328882cf6e3ad339212386b1099671423c76033b778997eda9d557b6f33fd10ab44dec2126055b1630a5a9 OP_CHECKSIG",
            "desc": "pk(0475d02b901bff7dcbd23256b8b24c5fa25792ffc461328882cf6e3ad339212386b1099671423c76033b778997eda9d557b6f33fd10ab44dec2126055b1630a5a9)#zjfgwatv",
            "hex": "410475d02b901bff7dcbd23256b8b24c5fa25792ffc461328882cf6e3ad339212386b1099671423c76033b778997eda9d557b6f33fd10ab44dec2126055b1630a5a9ac",
            "type": "pubkey"
          }
        }
      ],
      "hex": "01000000010000000000000000000000000000000000000000000000000000000000000000ffffffff0804ffff001d027c02ffffffff0100f2052a0100000043410475d02b901bff7dcbd23256b8b24c5fa25792ffc461328882cf6e3ad339212386b1099671423c76033b778997eda9d557b6f33fd10ab44dec2126055b1630a5a9ac00000000"
    }
  ]
}