{
  "hash": "000000008748157cc4a9d11adf210412878a20d64b4e2a4fb08bc252fbde2199",
  "confirmations": 44793,
  "height": 8305,
  "version": 1,
  "versionHex": "00000001",
  "merkleroot": "2fd3e11de77af57ea118eaf3c638d8d4a046111d80e4e28eeb07b08b37dfb60b",
  "time": 1237733282,
  "mediantime": 1237730069,
  "nonce": 36163438,
  "bits": "1d00ffff",
  "difficulty": 1,
  "chainwork": "0000000000000000000000000000000000000000000000000000207220722072",
  "nTx": 1,
  "previousblockhash": "0000000026cb5f5f1a5482e8a3fccd8328053f01d84765966b61c3b8468f9872",
  "nextblockhash": "000000004b8ac7b1d1dc61bbe0dfa958b832d03fc167e2f277b53801536822a1",
  "strippedsize": 216,
  "size": 216,
  "weight": 864,
  "tx": [
    {
      "txid": "2fd3e11de77af57ea118eaf3c638d8d4a046111d80e4e28eeb07b08b37dfb60b",
      "hash": "2fd3e11de77af57ea118eaf3c638d8d4a046111d80e4e28eeb07b08b37dfb60b",
      "version": 1,
      "size": 135,
      "vsize": 135,
      "weight": 540,
      "locktime": 0,
      "vin": [
        {
          "coinbase": "04ffff001d023801",
          "sequence": 4294967295
        }
      ],
      "vout": [
        {
          "value": 50.0,
          "n": 0,
          "scriptPubKey": {
            "asm": "04be2f2a34b963733ff775e3a9e7291bcb4c8d66ccec83235c5cadfe7559fe0a56975da7b13f719de8751f3df10459ae725c4ab113267d5b1e398d50b3f9b50dbd OP_CHECKSIG",
            "desc": "pk(04be2f2a34b963733ff775e3a9e7291bcb4c8d66ccec83235c5cadfe7559fe0a56975da7b13f719de8751f3df10459ae725c4ab113267d5b1e398d50b3f9b50dbd)#mw44mdef",
            "hex": "4104be2f2a34b963733ff775e3a9e7291bcb4c8d66ccec83235c5cadfe7559fe0a56975da7b13f719de8751f3df10459ae725c4ab113267d5b1e398d50b3f9b50dbdac",
            "type": "pubkey"
          }
        }
      ],
      "hex": "01000000010000000000000000000000000000000000000000000000000000000000000000ffffffff0804ffff001d023801ffffffff0100f2052a01000000434104be2f2a34b963733ff775e3a9e7291bcb4c8d66ccec83235c5cadfe7559fe0a56975da7b13f719de8751f3df10459ae725c4ab113267d5b1e398d50b3f9b50dbdac00000000"
    }
  ]
}