{
  "hash": "0000000066fea8a71cb20396330ec02326f37544afce250d847ff8d8eadb199b",
  "confirmations": 47101,
  "height": 5997,
  "version": 1,
  "versionHex": "00000001",
  "merkleroot": "c661099e349d77bab1c2a7b493128fd04b74721dd77d330dd99d00671ccebe3d",
  "time": 1235925558,
  "mediantime": 1235922008,
  "nonce": 154320682,
  "bits": "1d00ffff",
  "difficulty": 1,
  "chainwork": "0000000000000000000000000000000000000000000000000000176e176e176e",
  "nTx": 1,
  "previousblockhash": "00000000504506810152c882121f64de975bd9074fffbd0e6a01ae1f7d132eef",
  "nextblockhash": "000000000c6d92c5720d01287a7067f6694b81c32f980449f412176f43a6305b",
  "strippedsize": 216,
  "size": 216,
  "weight": 864,
  "tx": [
    {
      "txid": "c661099e349d77bab1c2a7b493128fd04b74721dd77d330dd99d00671ccebe3d",
      "hash": "c661099e349d77bab1c2a7b493128fd04b74721dd77d330dd99d00671ccebe3d",
      "version": 1,
      "size": 135,
      "vsize": 135,
      "weight": 540,
      "locktime": 0,
      "vin": [
        {
          "coinbase": "04ffff001d02e801",
          "sequence": 4294967295
        }
      ],
      "vout": [
        {
          "value": 50.0,
          "n": 0,
          "scriptPubKey": {
            "asm": "04956759e3b766b8d379bc7a923989e14df0de529966d3f36e3eae1506b6a664041ed1cb4ec806ea693e17d67eb3d316d1599da3bb2b28b1c2d4a8c55a622599e3 OP_CHECKSIG",
            "desc": "pk(04956759e3b766b8d379bc7a923989e14df0de529966d3f36e3eae1506b6a664041ed1cb4ec806ea693e17d67eb3d316d1599da3bb2b28b1c2d4a8c55a622599e3)#hkswvh3f",
            "hex": "4104956759e3b766b8d379bc7a923989e14df0de529966d3f36e3eae1506b6a664041ed1cb4ec806ea693e17d67eb3d316d1599da3bb2b28b1c2d4a8c55a622599e3ac",
            "type": "pubkey"
          }
        }
      ],
      "hex": "01000000010000000000000000000000000000000000000000000000000000000000000000ffffffff0804ffff001d02e801ffffffff0100f2052a01000000434104956759e3b766b8d379bc7a923989e14df0de529966d3f36e3eae1506b6a664041ed1cb4ec806ea693e17d67eb3d316d1599da3bb2b28b1c2d4a8c55a622599e3ac00000000"
    }
  ]
}