{
  "hash": "000000002dd130f8c71b6daaf45d330e9fee8b0b48bd35d8400f17de41769313",
  "confirmations": 44030,
  "height": 9068,
  "version": 1,
  "versionHex": "00000001",
  "merkleroot": "8364af6e860cd65044280abef1767520b17597a1e233bd779ea21d869e93ae87",
  "time": 1238309553,
  "mediantime": 1238304937,
  "nonce": 3032699395,
  "bits": "1d00ffff",
  "difficulty": 1,
  "chainwork": "0000000000000000000000000000000000000000000000000000236d236d236d",
  "nTx": 1,
  "previousblockhash": "00000000e49bdcc21050b26aa589674b27b57c1b7d487af694c79997be574bdc",
  "nextblockhash": "00000000710587f7287724069f6e9c0266cac0fd334435efe8af228b7d9269a2",
  "strippedsize": 216,
  "size": 216,
  "weight": 864,
  "tx": [
    {
      "txid": "8364af6e860cd65044280abef1767520b17597a1e233bd779ea21d869e93ae87",
      "hash": "8364af6e860cd65044280abef1767520b17597a1e233bd779ea21d869e93ae87",
      "version": 1,
      "size": 135,
      "vsize": 135,
      "weight": 540,
      "locktime": 0,
      "vin": [
        {
          "coinbase": "04ffff001d02a107",
          "sequence": 4294967295
        }
      ],
      "vout": [
        {
          "value": 50.0,
          "n": 0,
          "scriptPubKey": {
            "asm": "04c50710f73028c322a794361d50443173025241f4c1c6f0f1cdc9be6d65af4c2c71cf9fa26cdc44cadd9e1097869c1529298fcaf8818ea393175e348f2163f12d OP_CHECKSIG",
            "desc": "pk(04c50710f73028c322a794361d50443173025241f4c1c6f0f1cdc9be6d65af4c2c71cf9fa26cdc44cadd9e1097869c1529298fcaf8818ea393175e348f2163f12d)#lk9az8eq",
            "hex": "4104c50710f73028c322a794361d50443173025241f4c1c6f0f1cdc9be6d65af4c2c71cf9fa26cdc44cadd9e1097869c1529298fcaf8818ea393175e348f2163f12dac",
            "type": "pubkey"
          }
        }
      ],
      "hex": "01000000010000000000000000000000000000000000000000000000000000000000000000ffffffff0804ffff001d02a107ffffffff0100f2052a01000000434104c50710f73028c322a794361d50443173025241f4c1c6f0f1cdc9be6d65af4c2c71cf9fa26cdc44cadd9e1097869c1529298fcaf8818ea393175e348f2163f12dac00000000"
    }
  ]
}