{
  "hash": "00000000ff01a6a381f5e801336233d4b9b5580ab45b692b69dd319f40569127",
  "confirmations": 44877,
  "height": 8221,
  "version": 1,
  "versionHex": "00000001",
  "merkleroot": "36778232b27e7aa530aad69032c58d80845427dc86a582ae9d640d6d5461fd69",
  "time": 1237639653,
  "mediantime": 1237633258,
  "nonce": 269494784,
  "bits": "1d00ffff",
  "difficulty": 1,
  "chainwork": "0000000000000000000000000000000000000000000000000000201e201e201e",
  "nTx": 1,
  "previousblockhash": "00000000981ca0dc378f6a82d52e1f9dbbc8bd6886c6207f2c4d9a92ffe37f93",
  "nextblockhash": "00000000e1dcdcbf6ca736a8abc419fa5d565d45c855e092fd6655d5fb8ea60f",
  "strippedsize": 216,
  "size": 216,
  "weight": 864,
  "tx": [
    {
      "txid": "36778232b27e7aa530aad69032c58d80845427dc86a582ae9d640d6d5461fd69",
      "hash": "36778232b27e7aa530aad69032c58d80845427dc86a582ae9d640d6d5461fd69",
      "version": 1,
      "size": 135,
      "vsize": 135,
      "weight": 540,
      "locktime": 0,
      "vin": [
        {
          "coinbase": "04ffff001d02e600",
          "sequence": 4294967295
        }
      ],
      "vout": [
        {
          "value": 50.0,
          "n": 0,
          "scriptPubKey": {
            "asm": "04930c75ba3f8b3919beba56c7d0ecd4f78ab4e6cde07c9fbf5f062f9bbe43572711deeef98c745f36e168d7f67fbaf929dce94cd403ba7cd7293af4d88c7f2a20 OP_CHECKSIG",
            "desc": "pk(04930c75ba3f8b3919beba56c7d0ecd4f78ab4e6cde07c9fbf5f062f9bbe43572711deeef98c745f36e168d7f67fbaf929dce94cd403ba7cd7293af4d88c7f2a20)#e98atdl4",
            "hex": "4104930c75ba3f8b3919beba56c7d0ecd4f78ab4e6cde07c9fbf5f062f9bbe43572711deeef98c745f36e168d7f67fbaf929dce94cd403ba7cd7293af4d88c7f2a20ac",
            "type": "pubkey"
          }
        }
      ],
      "hex": "01000000010000000000000000000000000000000000000000000000000000000000000000ffffffff0804ffff001d02e600ffffffff0100f2052a01000000434104930c75ba3f8b3919beba56c7d0ecd4f78ab4e6cde07c9fbf5f062f9bbe43572711deeef98c745f36e168d7f67fbaf929dce94cd403ba7cd7293af4d88c7f2a20ac00000000"
    }
  ]
}