{
  "hash": "000000002aecd7fc095a30421b1be32c40dfc6c10ed9f7baebcdc2c94073aab4",
  "confirmations": 45493,
  "height": 7605,
  "version": 1,
  "versionHex": "00000001",
  "merkleroot": "c19e68bbfabbdb984e2c1d0870302ea5a66fda48f0ce3e7579ef67f7e382cc9c",
  "time": 1237172486,
  "mediantime": 1237169025,
  "nonce": 3491530525,
  "bits": "1d00ffff",
  "difficulty": 1,
  "chainwork": "00000000000000000000000000000000000000000000000000001db61db61db6",
  "nTx": 1,
  "previousblockhash": "00000000884dc2f64bec3f605e0cc6794dc2cbfa25cda2886ce28fa00ab2411a",
  "nextblockhash": "00000000279429a34234aeb42efdfcd5644b4f76d2aff4b3c29519596b977016",
  "strippedsize": 216,
  "size": 216,
  "weight": 864,
  "tx": [
    {
      "txid": "c19e68bbfabbdb984e2c1d0870302ea5a66fda48f0ce3e7579ef67f7e382cc9c",
      "hash": "c19e68bbfabbdb984e2c1d0870302ea5a66fda48f0ce3e7579ef67f7e382cc9c",
      "version": 1,
      "size": 135,
      "vsize": 135,
      "weight": 540,
      "locktime": 0,
      "vin": [
        {
          "coinbase": "04ffff001d02b402",
          "sequence": 4294967295
        }
      ],
      "vout": [
        {
          "value": 50.0,
          "n": 0,
          "scriptPubKey": {
            "asm": "0410c71d3390bc00c7e4c0a7e76cf0c2b534823843209e1ad6501b3cf136d4198f9da1e77bf2029d1630da5d3b8798121f1017145f0558c33ecbba3bfb925c5c9d OP_CHECKSIG",
            "desc": "pk(0410c71d3390bc00c7e4c0a7e76cf0c2b534823843209e1ad6501b3cf136d4198f9da1e77bf2029d1630da5d3b8798121f1017145f0558c33ecbba3bfb925c5c9d)#y4x9eyr8",
            "hex": "410410c71d3390bc00c7e4c0a7e76cf0c2b534823843209e1ad6501b3cf136d4198f9da1e77bf2029d1630da5d3b8798121f1017145f0558c33ecbba3bfb925c5c9dac",
            "type": "pubkey"
          }
        }
      ],
      "hex": "01000000010000000000000000000000000000000000000000000000000000000000000000ffffffff0804ffff001d02b402ffffffff0100f2052a0100000043410410c71d3390bc00c7e4c0a7e76cf0c2b534823843209e1ad6501b3cf136d4198f9da1e77bf2029d1630da5d3b8798121f1017145f0558c33ecbba3bfb925c5c9dac00000000"
    }
  ]
}