{
  "hash": "000000007d8eb6a31643d9e47f437b2a777b5696508fa78f8781ae656c06dc2b",
  "confirmations": 45122,
  "height": 7976,
  "version": 1,
  "versionHex": "00000001",
  "merkleroot": "aed88ea2aa4006f56742fe495473946b733aeff3b2243fd61076f1fd0138922d",
  "time": 1237445649,
  "mediantime": 1237442500,
  "nonce": 24279841,
  "bits": "1d00ffff",
  "difficulty": 1,
  "chainwork": "00000000000000000000000000000000000000000000000000001f291f291f29",
  "nTx": 1,
  "previousblockhash": "00000000d9c0e9269ed8bdcb6e29e73dd26fa5c38773f6a9d294734687cef0c3",
  "nextblockhash": "00000000229d2373f7b69198cb09cd32f4ccfa81076d5f36d630b10962217823",
  "strippedsize": 216,
  "size": 216,
  "weight": 864,
  "tx": [
    {
      "txid": "aed88ea2aa4006f56742fe495473946b733aeff3b2243fd61076f1fd0138922d",
      "hash": "aed88ea2aa4006f56742fe495473946b733aeff3b2243fd61076f1fd0138922d",
      "version": 1,
      "size": 135,
      "vsize": 135,
      "weight": 540,
      "locktime": 0,
      "vin": [
        {
          "coinbase": "04ffff001d023901",
          "sequence": 4294967295
        }
      ],
      "vout": [
        {
          "value": 50.0,
          "n": 0,
          "scriptPubKey": {
            "asm": "044216888afc4edcb029d345f84be0a84c5a1c9c9c8bae0e89c7359560415af9c2fade3f377ec551a8c7dc1da42335decab3a7ac14ea2f956d5719f33910be567f OP_CHECKSIG",
            "desc": "pk(044216888afc4edcb029d345f84be0a84c5a1c9c9c8bae0e89c7359560415af9c2fade3f377ec551a8c7dc1da42335decab3a7ac14ea2f956d5719f33910be567f)#tqzgavwg",
            "hex": "41044216888afc4edcb029d345f84be0a84c5a1c9c9c8bae0e89c7359560415af9c2fade3f377ec551a8c7dc1da42335decab3a7ac14ea2f956d5719f33910be567fac",
            "type": "pubkey"
          }
        }
      ],
      "hex": "01000000010000000000000000000000000000000000000000000000000000000000000000ffffffff0804ffff001d023901ffffffff0100f2052a010000004341044216888afc4edcb029d345f84be0a84c5a1c9c9c8bae0e89c7359560415af9c2fade3f377ec551a8c7dc1da42335decab3a7ac14ea2f956d5719f33910be567fac00000000"
    }
  ]
}