{
  "hash": "00000000efeaab82fbc4270997b41c11481f4d92c6e334585f744d0d7074cf89",
  "confirmations": 43818,
  "height": 9280,
  "version": 1,
  "versionHex": "00000001",
  "merkleroot": "f30b3be637c9ef737c640a658007f9baa0fcd0724fef1746628ab5ddebbb8e86",
  "time": 1238457673,
  "mediantime": 1238454106,
  "nonce": 3331595034,
  "bits": "1d00ffff",
  "difficulty": 1,
  "chainwork": "0000000000000000000000000000000000000000000000000000244124412441",
  "nTx": 1,
  "previousblockhash": "0000000078ae4a8815ec71240175f5cf33e23ab1d5b37261a3ed92070dcc4aca",
  "nextblockhash": "000000002bbc2f916e063afff0c1e62318a4e924749a799f7fee57751ad97ece",
  "strippedsize": 216,
  "size": 216,
  "weight": 864,
  "tx": [
    {
      "txid": "f30b3be637c9ef737c640a658007f9baa0fcd0724fef1746628ab5ddebbb8e86",
      "hash": "f30b3be637c9ef737c640a658007f9baa0fcd0724fef1746628ab5ddebbb8e86",
      "version": 1,
      "size": 135,
      "vsize": 135,
      "weight": 540,
      "locktime": 0,
      "vin": [
        {
          "coinbase": "04ffff001d026a01",
          "sequence": 4294967295
        }
      ],
      "vout": [
        {
          "value": 50.0,
          "n": 0,
          "scriptPubKey": {
            "asm": "04bb4008599ed730d3402632968a6c0cce474bbc5a3e1979dcd9501e585d8f4db8f71a461ca582b44118d237d5b4693e6d52eecc1fb6b02b6f6f2390944802b5bf OP_CHECKSIG",
            "desc": "pk(04bb4008599ed730d3402632968a6c0cce474bbc5a3e1979dcd9501e585d8f4db8f71a461ca582b44118d237d5b4693e6d52eecc1fb6b02b6f6f2390944802b5bf)#89eg9vzg",
            "hex": "4104bb4008599ed730d3402632968a6c0cce474bbc5a3e1979dcd9501e585d8f4db8f71a461ca582b44118d237d5b4693e6d52eecc1fb6b02b6f6f2390944802b5bfac",
            "type": "pubkey"
          }
        }
      ],
      "hex": "01000000010000000000000000000000000000000000000000000000000000000000000000ffffffff0804ffff001d026a01ffffffff0100f2052a01000000434104bb4008599ed730d3402632968a6c0cce474bbc5a3e1979dcd9501e585d8f4db8f71a461ca582b44118d237d5b4693e6d52eecc1fb6b02b6f6f2390944802b5bfac00000000"
    }
  ]
}