{
  "hash": "00000000a063fd1a980aa4a1347f935a419ace3f25146d46966f7cbb861d1a5d",
  "confirmations": 45899,
  "height": 7199,
  "version": 1,
  "versionHex": "00000001",
  "merkleroot": "c29a37c8b8b5b99c24b45876a6ead937c6ed0cb7dceada09eeff3ee503f3b401",
  "time": 1236870162,
  "mediantime": 1236864895,
  "nonce": 2379808264,
  "bits": "1d00ffff",
  "difficulty": 1,
  "chainwork": "00000000000000000000000000000000000000000000000000001c201c201c20",
  "nTx": 1,
  "previousblockhash": "00000000a588431277ece14d08d79f3f2ea6a937f7e2571a9246f7a3e7752614",
  "nextblockhash": "000000004418cd7e82b76420e68870d9200d1deeaa334e5733a41a348fd948b1",
  "strippedsize": 216,
  "size": 216,
  "weight": 864,
  "tx": [
    {
      "txid": "c29a37c8b8b5b99c24b45876a6ead937c6ed0cb7dceada09eeff3ee503f3b401",
      "hash": "c29a37c8b8b5b99c24b45876a6ead937c6ed0cb7dceada09eeff3ee503f3b401",
      "version": 1,
      "size": 135,
      "vsize": 135,
      "weight": 540,
      "locktime": 0,
      "vin": [
        {
          "coinbase": "04ffff001d02b405",
          "sequence": 4294967295
        }
      ],
      "vout": [
        {
          "value": 50.0,
          "n": 0,
          "scriptPubKey": {
            "asm": "04d2eb79eea6e468ee7c5ff2e60afed3de60f1a6e877f9ede4eb5d091b99b94bfb00f3db4ec2ac15e2eb8ab4c2f5399e95ccf635f21fc4d2cece8e8eec4b93128a OP_CHECKSIG",
            "desc": "pk(04d2eb79eea6e468ee7c5ff2e60afed3de60f1a6e877f9ede4eb5d091b99b94bfb00f3db4ec2ac15e2eb8ab4c2f5399e95ccf635f21fc4d2cece8e8eec4b93128a)#y3axjctn",
            "hex": "4104d2eb79eea6e468ee7c5ff2e60afed3de60f1a6e877f9ede4eb5d091b99b94bfb00f3db4ec2ac15e2eb8ab4c2f5399e95ccf635f21fc4d2cece8e8eec4b93128aac",
            "type": "pubkey"
          }
        }
      ],
      "hex": "01000000010000000000000000000000000000000000000000000000000000000000000000ffffffff0804ffff001d02b405ffffffff0100f2052a01000000434104d2eb79eea6e468ee7c5ff2e60afed3de60f1a6e877f9ede4eb5d091b99b94bfb00f3db4ec2ac15e2eb8ab4c2f5399e95ccf635f21fc4d2cece8e8eec4b93128aac00000000"
    }
  ]
}