{
  "hash": "00000000f139dfd20ba64eb915d36c026616a01e36cde0a6383583e40bf7f5d8",
  "confirmations": 52457,
  "height": 641,
  "version": 1,
  "versionHex": "00000001",
  "merkleroot": "8ce144c09da2e66a94f475cbebda39c5c0cb49d306c2d180fc96841796efbcdc",
  "time": 1232064028,
  "mediantime": 1232060248,
  "nonce": 1918319368,
  "bits": "1d00ffff",
  "difficulty": 1,
  "chainwork": "0000000000000000000000000000000000000000000000000000028202820282",
  "nTx": 1,
  "previousblockhash": "0000000010e9b57889d2eb77bb99a44cf06e1a80d0b1d18cc599bd472b335bcc",
  "nextblockhash": "00000000dc33f1794f744e76099e89015bb9de186004867bf8f09d4bbac0930b",
  "strippedsize": 216,
  "size": 216,
  "weight": 864,
  "tx": [
    {
      "txid": "8ce144c09da2e66a94f475cbebda39c5c0cb49d306c2d180fc96841796efbcdc",
      "hash": "8ce144c09da2e66a94f475cbebda39c5c0cb49d306c2d180fc96841796efbcdc",
      "version": 1,
      "size": 135,
      "vsize": 135,
      "weight": 540,
      "locktime": 0,
      "vin": [
        {
          "coinbase": "04ffff001d024607",
          "sequence": 4294967295
        }
      ],
      "vout": [
        {
          "value": 50.0,
          "n": 0,
          "scriptPubKey": {
            "asm": "0465cc35ad2dec6551327e19b8b9de65f34d65787876047e5aaca0eae8fe74493bbb3ecc22cb93d19e0802c9315013e29ef305ed620a477541b3a840c200da5ff2 OP_CHECKSIG",
            "desc": "pk(0465cc35ad2dec6551327e19b8b9de65f34d65787876047e5aaca0eae8fe74493bbb3ecc22cb93d19e0802c9315013e29ef305ed620a477541b3a840c200da5ff2)#8z8l20sl",
            "hex": "410465cc35ad2dec6551327e19b8b9de65f34d65787876047e5aaca0eae8fe74493bbb3ecc22cb93d19e0802c9315013e29ef305ed620a477541b3a840c200da5ff2ac",
            "type": "pubkey"
          }
        }
      ],
      "hex": "01000000010000000000000000000000000000000000000000000000000000000000000000ffffffff0804ffff001d024607ffffffff0100f2052a0100000043410465cc35ad2dec6551327e19b8b9de65f34d65787876047e5aaca0eae8fe74493bbb3ecc22cb93d19e0802c9315013e29ef305ed620a477541b3a840c200da5ff2ac00000000"
    }
  ]
}