{
  "hash": "00000000005cdd0f359287d4c5c9e3611c2cc53bc45010c1139bfc1660794ef3",
  "confirmations": 47379,
  "height": 5719,
  "version": 1,
  "versionHex": "00000001",
  "merkleroot": "a943cca60de2e2f2503061497135f8bbea73ad09888eee2aa40420314506b435",
  "time": 1235700493,
  "mediantime": 1235696011,
  "nonce": 969748274,
  "bits": "1d00ffff",
  "difficulty": 1,
  "chainwork": "0000000000000000000000000000000000000000000000000000165816581658",
  "nTx": 1,
  "previousblockhash": "000000004fd3f62c52990111e9f9be4350c25bb978b7680a68d8aa61473100e1",
  "nextblockhash": "00000000f186a4eb5955699ad0334f4726331c254f0259601d4150d2f19497d2",
  "strippedsize": 216,
  "size": 216,
  "weight": 864,
  "tx": [
    {
      "txid": "a943cca60de2e2f2503061497135f8bbea73ad09888eee2aa40420314506b435",
      "hash": "a943cca60de2e2f2503061497135f8bbea73ad09888eee2aa40420314506b435",
      "version": 1,
      "size": 135,
      "vsize": 135,
      "weight": 540,
      "locktime": 0,
      "vin": [
        {
          "coinbase": "04ffff001d02c809",
          "sequence": 4294967295
        }
      ],
      "vout": [
        {
          "value": 50.0,
          "n": 0,
          "scriptPubKey": {
            "asm": "0432c917182887870c18048b125e228f4793f7028bb9e913fd031d0c8735c7282dc06b3a67250d027849c70311190eb5c611c80f7580cac9d21372367eefcec44b OP_CHECKSIG",
            "desc": "pk(0432c917182887870c18048b125e228f4793f7028bb9e913fd031d0c8735c7282dc06b3a67250d027849c70311190eb5c611c80f7580cac9d21372367eefcec44b)#dem8lqh7",
            "hex": "410432c917182887870c18048b125e228f4793f7028bb9e913fd031d0c8735c7282dc06b3a67250d027849c70311190eb5c611c80f7580cac9d21372367eefcec44bac",
            "type": "pubkey"
          }
        }
      ],
      "hex": "01000000010000000000000000000000000000000000000000000000000000000000000000ffffffff0804ffff001d02c809ffffffff0100f2052a0100000043410432c917182887870c18048b125e228f4793f7028bb9e913fd031d0c8735c7282dc06b3a67250d027849c70311190eb5c611c80f7580cac9d21372367eefcec44bac00000000"
    }
  ]
}