{
  "hash": "00000000a085db01af8e3c4197c6b3c9b650c756de8c0c5956ab1f43a46bdbfa",
  "confirmations": 48913,
  "height": 4185,
  "version": 1,
  "versionHex": "00000001",
  "merkleroot": "e9f10db8632cbcd0cda85d1b75e8f5f8cd28c7ced1242bdfaa241a44f7319f9c",
  "time": 1234570762,
  "mediantime": 1234569308,
  "nonce": 79330556,
  "bits": "1d00ffff",
  "difficulty": 1,
  "chainwork": "0000000000000000000000000000000000000000000000000000105a105a105a",
  "nTx": 1,
  "previousblockhash": "000000005a7388fdbdddbd2daa6ab2ab9f2e15ab3b7ecfb1d1c010d178198e0a",
  "nextblockhash": "00000000729b2e9a03294cfc4f3532a1b240c1ba69ce698bf77388dac3fe08ed",
  "strippedsize": 215,
  "size": 215,
  "weight": 860,
  "tx": [
    {
      "txid": "e9f10db8632cbcd0cda85d1b75e8f5f8cd28c7ced1242bdfaa241a44f7319f9c",
      "hash": "e9f10db8632cbcd0cda85d1b75e8f5f8cd28c7ced1242bdfaa241a44f7319f9c",
      "version": 1,
      "size": 134,
      "vsize": 134,
      "weight": 536,
      "locktime": 0,
      "vin": [
        {
          "coinbase": "04ffff001d0109",
          "sequence": 4294967295
        }
      ],
      "vout": [
        {
          "value": 50.0,
          "n": 0,
          "scriptPubKey": {
            "asm": "0474a8d185cd2e042a8e0b893ff46148a00b454add19e1269d2acf14f6866f1e9fcfbe5851afa7521e8abd802981f0d7374c6a689820a6b3cd8768dd735040e439 OP_CHECKSIG",
            "desc": "pk(0474a8d185cd2e042a8e0b893ff46148a00b454add19e1269d2acf14f6866f1e9fcfbe5851afa7521e8abd802981f0d7374c6a689820a6b3cd8768dd735040e439)#45lvzawj",
            "hex": "410474a8d185cd2e042a8e0b893ff46148a00b454add19e1269d2acf14f6866f1e9fcfbe5851afa7521e8abd802981f0d7374c6a689820a6b3cd8768dd735040e439ac",
            "type": "pubkey"
          }
        }
      ],
      "hex": "01000000010000000000000000000000000000000000000000000000000000000000000000ffffffff0704ffff001d0109ffffffff0100f2052a0100000043410474a8d185cd2e042a8e0b893ff46148a00b454add19e1269d2acf14f6866f1e9fcfbe5851afa7521e8abd802981f0d7374c6a689820a6b3cd8768dd735040e439ac00000000"
    }
  ]
}