{
  "hash": "000000001e9722b33a88ee9a0d17b921361aa499cfa545c60ba629ee82bba42a",
  "confirmations": 52190,
  "height": 431,
  "version": 1,
  "versionHex": "00000001",
  "merkleroot": "b6c967d8f3a3d5fe859a12e9f385531655c2c457326845065fc3942da9e19920",
  "time": 1231923141,
  "mediantime": 1231919092,
  "nonce": 26951791,
  "bits": "1d00ffff",
  "difficulty": 1,
  "chainwork": "000000000000000000000000000000000000000000000000000001b001b001b0",
  "nTx": 1,
  "previousblockhash": "00000000f57b8d9a6585b22868e8729515a4ce7c466a4b8713317a90fefdcd59",
  "nextblockhash": "00000000fa6066998c588e2c3933e036ed64907a65ec593fd8ab37316fed0e8f",
  "strippedsize": 216,
  "size": 216,
  "weight": 864,
  "tx": [
    {
      "txid": "b6c967d8f3a3d5fe859a12e9f385531655c2c457326845065fc3942da9e19920",
      "hash": "b6c967d8f3a3d5fe859a12e9f385531655c2c457326845065fc3942da9e19920",
      "version": 1,
      "size": 135,
      "vsize": 135,
      "weight": 540,
      "locktime": 0,
      "vin": [
        {
          "coinbase": "04ffff001d029200",
          "sequence": 4294967295
        }
      ],
      "vout": [
        {
          "value": 50.0,
          "n": 0,
          "scriptPubKey": {
            "asm": "04c6bde3eeded1fec8fad5d40da09ddaa16dca5d02089a97f90b8f02deb92f482d229a8f66e8a91c7cf0ecc7b3d10762ec2784100719aeff0296dc987142d39e57 OP_CHECKSIG",
            "desc": "pk(04c6bde3eeded1fec8fad5d40da09ddaa16dca5d02089a97f90b8f02deb92f482d229a8f66e8a91c7cf0ecc7b3d10762ec2784100719aeff0296dc987142d39e57)#92x5ced4",
            "hex": "4104c6bde3eeded1fec8fad5d40da09ddaa16dca5d02089a97f90b8f02deb92f482d229a8f66e8a91c7cf0ecc7b3d10762ec2784100719aeff0296dc987142d39e57ac",
            "type": "pubkey"
          }
        }
      ],
      "hex": "01000000010000000000000000000000000000000000000000000000000000000000000000ffffffff0804ffff001d029200ffffffff0100f2052a01000000434104c6bde3eeded1fec8fad5d40da09ddaa16dca5d02089a97f90b8f02deb92f482d229a8f66e8a91c7cf0ecc7b3d10762ec2784100719aeff0296dc987142d39e57ac00000000"
    }
  ]
}