{
  "hash": "00000000806df68baab17e49e567d4211177fef4849ffd8242d095c6a1169f45",
  "confirmations": 52315,
  "height": 499,
  "version": 1,
  "versionHex": "00000001",
  "merkleroot": "4276b897239b3f35a0d341ed09f7b8fc33da58ca2a641d82681254ec4efdef43",
  "time": 1231967680,
  "mediantime": 1231963503,
  "nonce": 1725922346,
  "bits": "1d00ffff",
  "difficulty": 1,
  "chainwork": "000000000000000000000000000000000000000000000000000001f401f401f4",
  "nTx": 1,
  "previousblockhash": "00000000693a6d6b068cab3e207d570764f6bad293e3e98920246eeda81c496a",
  "nextblockhash": "000000004ff664bfa7d217f6df64c1627089061429408e1da5ef903b8f3c77db",
  "strippedsize": 216,
  "size": 216,
  "weight": 864,
  "tx": [
    {
      "txid": "4276b897239b3f35a0d341ed09f7b8fc33da58ca2a641d82681254ec4efdef43",
      "hash": "4276b897239b3f35a0d341ed09f7b8fc33da58ca2a641d82681254ec4efdef43",
      "version": 1,
      "size": 135,
      "vsize": 135,
      "weight": 540,
      "locktime": 0,
      "vin": [
        {
          "coinbase": "04ffff001d027604",
          "sequence": 4294967295
        }
      ],
      "vout": [
        {
          "value": 50.0,
          "n": 0,
          "scriptPubKey": {
            "asm": "04021c7c25cb2d22b9b07874b88483696b4d99e2861872b614a137212e63bde5a0a561b4e093e7f3567033c2b71731f0d1c2ff4d19377c2821d488eed16c045993 OP_CHECKSIG",
            "desc": "pk(04021c7c25cb2d22b9b07874b88483696b4d99e2861872b614a137212e63bde5a0a561b4e093e7f3567033c2b71731f0d1c2ff4d19377c2821d488eed16c045993)#lu29xpwr",
            "hex": "4104021c7c25cb2d22b9b07874b88483696b4d99e2861872b614a137212e63bde5a0a561b4e093e7f3567033c2b71731f0d1c2ff4d19377c2821d488eed16c045993ac",
            "type": "pubkey"
          }
        }
      ],
      "hex": "01000000010000000000000000000000000000000000000000000000000000000000000000ffffffff0804ffff001d027604ffffffff0100f2052a01000000434104021c7c25cb2d22b9b07874b88483696b4d99e2861872b614a137212e63bde5a0a561b4e093e7f3567033c2b71731f0d1c2ff4d19377c2821d488eed16c045993ac00000000"
    }
  ]
}