{
  "hash": "00000000d12068880fc7112623ea833c31ebc94e7d61e474fb86ecdc6f963230",
  "confirmations": 51303,
  "height": 1795,
  "version": 1,
  "versionHex": "00000001",
  "merkleroot": "208ea1805b956c4cfa6a1164f48b2460f9e15ac73fa253bbd99d212da2ed5ad5",
  "time": 1232895832,
  "mediantime": 1232892878,
  "nonce": 1043134750,
  "bits": "1d00ffff",
  "difficulty": 1,
  "chainwork": "0000000000000000000000000000000000000000000000000000070407040704",
  "nTx": 1,
  "previousblockhash": "00000000d4c2a115266ddb1b20aed4f868efc0b331bc0b912cbf9b833a7074a1",
  "nextblockhash": "00000000e655a6b283f0b716725fd5681aa41b08a679d65b1564ec8515ef45f0",
  "strippedsize": 216,
  "size": 216,
  "weight": 864,
  "tx": [
    {
      "txid": "208ea1805b956c4cfa6a1164f48b2460f9e15ac73fa253bbd99d212da2ed5ad5",
      "hash": "208ea1805b956c4cfa6a1164f48b2460f9e15ac73fa253bbd99d212da2ed5ad5",
      "version": 1,
      "size": 135,
      "vsize": 135,
      "weight": 540,
      "locktime": 0,
      "vin": [
        {
          "coinbase": "04ffff001d02f003",
          "sequence": 4294967295
        }
      ],
      "vout": [
        {
          "value": 50.0,
          "n": 0,
          "scriptPubKey": {
            "asm": "04daa2fd460681c644b4944f7979163a9157f5a10589067150ce5d347510017f243587eb5ef327da68c19c459383b41b0fa512485837b7c19244f3d309d73a76d2 OP_CHECKSIG",
            "desc": "pk(04daa2fd460681c644b4944f7979163a9157f5a10589067150ce5d347510017f243587eb5ef327da68c19c459383b41b0fa512485837b7c19244f3d309d73a76d2)#jf82tny5",
            "hex": "4104daa2fd460681c644b4944f7979163a9157f5a10589067150ce5d347510017f243587eb5ef327da68c19c459383b41b0fa512485837b7c19244f3d309d73a76d2ac",
            "type": "pubkey"
          }
        }
      ],
      "hex": "01000000010000000000000000000000000000000000000000000000000000000000000000ffffffff0804ffff001d02f003ffffffff0100f2052a01000000434104daa2fd460681c644b4944f7979163a9157f5a10589067150ce5d347510017f243587eb5ef327da68c19c459383b41b0fa512485837b7c19244f3d309d73a76d2ac00000000"
    }
  ]
}