{
  "hash": "00000000f7168274a3047ef33ba3ed9f9faa5e6acb890d9195a1e8be3bad8f18",
  "confirmations": 50102,
  "height": 2996,
  "version": 1,
  "versionHex": "00000001",
  "merkleroot": "dc57bd04bb76f31f23b434681e6fa845eb06d912842b74bb33083dcd441f1956",
  "time": 1233758050,
  "mediantime": 1233754777,
  "nonce": 1991814702,
  "bits": "1d00ffff",
  "difficulty": 1,
  "chainwork": "00000000000000000000000000000000000000000000000000000bb50bb50bb5",
  "nTx": 1,
  "previousblockhash": "00000000370965aeef98866ebed666de48547ec392759e178f2f2f34f73577ed",
  "nextblockhash": "00000000ce0798f32548181acbb91e85ddaf67f44bc2cda454ea7f9ec5e891a8",
  "strippedsize": 216,
  "size": 216,
  "weight": 864,
  "tx": [
    {
      "txid": "dc57bd04bb76f31f23b434681e6fa845eb06d912842b74bb33083dcd441f1956",
      "hash": "dc57bd04bb76f31f23b434681e6fa845eb06d912842b74bb33083dcd441f1956",
      "version": 1,
      "size": 135,
      "vsize": 135,
      "weight": 540,
      "locktime": 0,
      "vin": [
        {
          "coinbase": "04ffff001d025601",
          "sequence": 4294967295
        }
      ],
      "vout": [
        {
          "value": 50.0,
          "n": 0,
          "scriptPubKey": {
            "asm": "0420fcc2ffac06a9430a2dabc65bf3adc2297f7583757d82dec8fc650e41a5f71b5507b1ee4091345740a1b0ba59c431dfdab994664a85b659091d335ae29ec42c OP_CHECKSIG",
            "desc": "pk(0420fcc2ffac06a9430a2dabc65bf3adc2297f7583757d82dec8fc650e41a5f71b5507b1ee4091345740a1b0ba59c431dfdab994664a85b659091d335ae29ec42c)#vv6gq47w",
            "hex": "410420fcc2ffac06a9430a2dabc65bf3adc2297f7583757d82dec8fc650e41a5f71b5507b1ee4091345740a1b0ba59c431dfdab994664a85b659091d335ae29ec42cac",
            "type": "pubkey"
          }
        }
      ],
      "hex": "01000000010000000000000000000000000000000000000000000000000000000000000000ffffffff0804ffff001d025601ffffffff0100f2052a0100000043410420fcc2ffac06a9430a2dabc65bf3adc2297f7583757d82dec8fc650e41a5f71b5507b1ee4091345740a1b0ba59c431dfdab994664a85b659091d335ae29ec42cac00000000"
    }
  ]
}