{
  "hash": "000000006d3d2980b9c32d15159d096877af85bfae5477556f5609bdfe6f9727",
  "confirmations": 43227,
  "height": 9871,
  "version": 1,
  "versionHex": "00000001",
  "merkleroot": "521698dee03f4ef7631fce2ec5efe4e3b372bad5ec867649367d79daea53db2b",
  "time": 1238907300,
  "mediantime": 1238903584,
  "nonce": 1590396198,
  "bits": "1d00ffff",
  "difficulty": 1,
  "chainwork": "0000000000000000000000000000000000000000000000000000269026902690",
  "nTx": 1,
  "previousblockhash": "00000000f2c4d9b29a159aea94962590b23485560002754f850b77931a5e075e",
  "nextblockhash": "0000000096fed37ea3ca79072dcd1deb328413843550fd271a01bc4e56ea4854",
  "strippedsize": 216,
  "size": 216,
  "weight": 864,
  "tx": [
    {
      "txid": "521698dee03f4ef7631fce2ec5efe4e3b372bad5ec867649367d79daea53db2b",
      "hash": "521698dee03f4ef7631fce2ec5efe4e3b372bad5ec867649367d79daea53db2b",
      "version": 1,
      "size": 135,
      "vsize": 135,
      "weight": 540,
      "locktime": 0,
      "vin": [
        {
          "coinbase": "04ffff001d02aa01",
          "sequence": 4294967295
        }
      ],
      "vout": [
        {
          "value": 50.0,
          "n": 0,
          "scriptPubKey": {
            "asm": "04c7be675995199f76481036f2891209ec2bc912a3597b0eaa930c6fd7058401e51a169701c54db8e414374f5ddeadcec2c423a7d8ae9fdae4fa86f16d743da9e5 OP_CHECKSIG",
            "desc": "pk(04c7be675995199f76481036f2891209ec2bc912a3597b0eaa930c6fd7058401e51a169701c54db8e414374f5ddeadcec2c423a7d8ae9fdae4fa86f16d743da9e5)#hq2auzt2",
            "hex": "4104c7be675995199f76481036f2891209ec2bc912a3597b0eaa930c6fd7058401e51a169701c54db8e414374f5ddeadcec2c423a7d8ae9fdae4fa86f16d743da9e5ac",
            "type": "pubkey"
          }
        }
      ],
      "hex": "01000000010000000000000000000000000000000000000000000000000000000000000000ffffffff0804ffff001d02aa01ffffffff0100f2052a01000000434104c7be675995199f76481036f2891209ec2bc912a3597b0eaa930c6fd7058401e51a169701c54db8e414374f5ddeadcec2c423a7d8ae9fdae4fa86f16d743da9e5ac00000000"
    }
  ]
}