{
  "hash": "000000006282666c70f10cb0d1c13b3488cf0ed5140dc0893ce176ae01988548",
  "confirmations": 49675,
  "height": 3423,
  "version": 1,
  "versionHex": "00000001",
  "merkleroot": "7a1ea0c4c663799899a8cef43cdbd546344fc80d989c38ad211a2bb34151019b",
  "time": 1234054634,
  "mediantime": 1234050608,
  "nonce": 1085700911,
  "bits": "1d00ffff",
  "difficulty": 1,
  "chainwork": "00000000000000000000000000000000000000000000000000000d600d600d60",
  "nTx": 1,
  "previousblockhash": "00000000c2fd7031ee6eca967579eb4000094bdfbc11214bd62d6be4eb9c7f35",
  "nextblockhash": "0000000021fe503ceff7ddc10ed10ad00ef14f965e6b9f315ea43af238e9176a",
  "strippedsize": 216,
  "size": 216,
  "weight": 864,
  "tx": [
    {
      "txid": "7a1ea0c4c663799899a8cef43cdbd546344fc80d989c38ad211a2bb34151019b",
      "hash": "7a1ea0c4c663799899a8cef43cdbd546344fc80d989c38ad211a2bb34151019b",
      "version": 1,
      "size": 135,
      "vsize": 135,
      "weight": 540,
      "locktime": 0,
      "vin": [
        {
          "coinbase": "04ffff001d02f805",
          "sequence": 4294967295
        }
      ],
      "vout": [
        {
          "value": 50.0,
          "n": 0,
          "scriptPubKey": {
            "asm": "04756008782e98325562f5a9e2fe4a7659f07d667b69fbf72b92db3a34bcb748c83d549c8bc2dad080df3557729fb89fbdc972aa3aaa0df4ede3ce36cadf65920b OP_CHECKSIG",
            "desc": "pk(04756008782e98325562f5a9e2fe4a7659f07d667b69fbf72b92db3a34bcb748c83d549c8bc2dad080df3557729fb89fbdc972aa3aaa0df4ede3ce36cadf65920b)#gvv2hey9",
            "hex": "4104756008782e98325562f5a9e2fe4a7659f07d667b69fbf72b92db3a34bcb748c83d549c8bc2dad080df3557729fb89fbdc972aa3aaa0df4ede3ce36cadf65920bac",
            "type": "pubkey"
          }
        }
      ],
      "hex": "01000000010000000000000000000000000000000000000000000000000000000000000000ffffffff0804ffff001d02f805ffffffff0100f2052a01000000434104756008782e98325562f5a9e2fe4a7659f07d667b69fbf72b92db3a34bcb748c83d549c8bc2dad080df3557729fb89fbdc972aa3aaa0df4ede3ce36cadf65920bac00000000"
    }
  ]
}