{
  "hash": "00000000b34b9a7ae8ea4703cbee350933c903eca08df98c0b2d5642d7ba8436",
  "confirmations": 44532,
  "height": 8566,
  "version": 1,
  "versionHex": "00000001",
  "merkleroot": "c16ef4573d99b6283c58161d2306c62aad9c34b7e50c439f37fe103fe65249b2",
  "time": 1237924731,
  "mediantime": 1237920500,
  "nonce": 3502099492,
  "bits": "1d00ffff",
  "difficulty": 1,
  "chainwork": "0000000000000000000000000000000000000000000000000000217721772177",
  "nTx": 1,
  "previousblockhash": "00000000f813dd91503284c6b4fb0e07fe19955d47c5609e84c563f022b6d010",
  "nextblockhash": "00000000dd233dca7573fee337fb05740e539a4ccc153e8d73c4a92d1207a273",
  "strippedsize": 216,
  "size": 216,
  "weight": 864,
  "tx": [
    {
      "txid": "c16ef4573d99b6283c58161d2306c62aad9c34b7e50c439f37fe103fe65249b2",
      "hash": "c16ef4573d99b6283c58161d2306c62aad9c34b7e50c439f37fe103fe65249b2",
      "version": 1,
      "size": 135,
      "vsize": 135,
      "weight": 540,
      "locktime": 0,
      "vin": [
        {
          "coinbase": "04ffff001d020f09",
          "sequence": 4294967295
        }
      ],
      "vout": [
        {
          "value": 50.0,
          "n": 0,
          "scriptPubKey": {
            "asm": "04fc7b006e355e77e9713e49da44f3903401bd5fd1cac6288b4d94fcffc15e8643fd9143952575a3702439c3d05c99b3a2008509b3f04145243ab6bcf0d5bb623d OP_CHECKSIG",
            "desc": "pk(04fc7b006e355e77e9713e49da44f3903401bd5fd1cac6288b4d94fcffc15e8643fd9143952575a3702439c3d05c99b3a2008509b3f04145243ab6bcf0d5bb623d)#0frkzx37",
            "hex": "4104fc7b006e355e77e9713e49da44f3903401bd5fd1cac6288b4d94fcffc15e8643fd9143952575a3702439c3d05c99b3a2008509b3f04145243ab6bcf0d5bb623dac",
            "type": "pubkey"
          }
        }
      ],
      "hex": "01000000010000000000000000000000000000000000000000000000000000000000000000ffffffff0804ffff001d020f09ffffffff0100f2052a01000000434104fc7b006e355e77e9713e49da44f3903401bd5fd1cac6288b4d94fcffc15e8643fd9143952575a3702439c3d05c99b3a2008509b3f04145243ab6bcf0d5bb623dac00000000"
    }
  ]
}