{
  "hash": "00000000aba483f70dda91842e94012c30598643be0ec53d19598781e85b5b4f",
  "confirmations": 50895,
  "height": 2203,
  "version": 1,
  "versionHex": "00000001",
  "merkleroot": "f68911b42f1b6478614825f8b99a23d8cdbdf57bedf219e7af4695843e01c5ec",
  "time": 1233217787,
  "mediantime": 1233213742,
  "nonce": 7734764,
  "bits": "1d00ffff",
  "difficulty": 1,
  "chainwork": "0000000000000000000000000000000000000000000000000000089c089c089c",
  "nTx": 1,
  "previousblockhash": "000000001be95682d66918627de7fab580a6f07f286a72f9c9d365f0e8b325d3",
  "nextblockhash": "0000000021fbd71a0e845db9ad31c9a3f31d79e2a8da66f460efeb1ad903c898",
  "strippedsize": 216,
  "size": 216,
  "weight": 864,
  "tx": [
    {
      "txid": "f68911b42f1b6478614825f8b99a23d8cdbdf57bedf219e7af4695843e01c5ec",
      "hash": "f68911b42f1b6478614825f8b99a23d8cdbdf57bedf219e7af4695843e01c5ec",
      "version": 1,
      "size": 135,
      "vsize": 135,
      "weight": 540,
      "locktime": 0,
      "vin": [
        {
          "coinbase": "04ffff001d029a00",
          "sequence": 4294967295
        }
      ],
      "vout": [
        {
          "value": 50.0,
          "n": 0,
          "scriptPubKey": {
            "asm": "04fd2ab0ae4226e9511e130530763b1e011177dcc5178380aaecd331af574082ff0b81a07e9e8c5f4f333734da545d8c5601deb60c6d3ab4743053c546ce50f0af OP_CHECKSIG",
            "desc": "pk(04fd2ab0ae4226e9511e130530763b1e011177dcc5178380aaecd331af574082ff0b81a07e9e8c5f4f333734da545d8c5601deb60c6d3ab4743053c546ce50f0af)#eec65l39",
            "hex": "4104fd2ab0ae4226e9511e130530763b1e011177dcc5178380aaecd331af574082ff0b81a07e9e8c5f4f333734da545d8c5601deb60c6d3ab4743053c546ce50f0afac",
            "type": "pubkey"
          }
        }
      ],
      "hex": "01000000010000000000000000000000000000000000000000000000000000000000000000ffffffff0804ffff001d029a00ffffffff0100f2052a01000000434104fd2ab0ae4226e9511e130530763b1e011177dcc5178380aaecd331af574082ff0b81a07e9e8c5f4f333734da545d8c5601deb60c6d3ab4743053c546ce50f0afac00000000"
    }
  ]
}