{
  "hash": "00000000007adb697bf21410b4353bcaea2d15fe61b15ab47bd521b70825cb1d",
  "confirmations": 43731,
  "height": 9367,
  "version": 1,
  "versionHex": "00000001",
  "merkleroot": "c15e1bb2cf21fbcefecc2e8898166b6c7c647f39ab71f65666c7e414c529d4cd",
  "time": 1238523991,
  "mediantime": 1238519804,
  "nonce": 3608718384,
  "bits": "1d00ffff",
  "difficulty": 1,
  "chainwork": "0000000000000000000000000000000000000000000000000000249824982498",
  "nTx": 1,
  "previousblockhash": "00000000d369b00038746b0d8c11eede8effb6577b5be268bfdcbd96e23f00f8",
  "nextblockhash": "00000000835a4f694206958ee0ea6195675d37c6a8c0daefebbc1b4ebcdf5be5",
  "strippedsize": 216,
  "size": 216,
  "weight": 864,
  "tx": [
    {
      "txid": "c15e1bb2cf21fbcefecc2e8898166b6c7c647f39ab71f65666c7e414c529d4cd",
      "hash": "c15e1bb2cf21fbcefecc2e8898166b6c7c647f39ab71f65666c7e414c529d4cd",
      "version": 1,
      "size": 135,
      "vsize": 135,
      "weight": 540,
      "locktime": 0,
      "vin": [
        {
          "coinbase": "04ffff001d02da02",
          "sequence": 4294967295
        }
      ],
      "vout": [
        {
          "value": 50.0,
          "n": 0,
          "scriptPubKey": {
            "asm": "041d694ed5f07cae5a92d2e3c9b1cdae77c658d617186f27d04b0613a4e1032017e7f948d1e754d15e4dfcb080df929f5549ac9686016cbb9f22ea3a7ffcdaee9a OP_CHECKSIG",
            "desc": "pk(041d694ed5f07cae5a92d2e3c9b1cdae77c658d617186f27d04b0613a4e1032017e7f948d1e754d15e4dfcb080df929f5549ac9686016cbb9f22ea3a7ffcdaee9a)#a7agf9rc",
            "hex": "41041d694ed5f07cae5a92d2e3c9b1cdae77c658d617186f27d04b0613a4e1032017e7f948d1e754d15e4dfcb080df929f5549ac9686016cbb9f22ea3a7ffcdaee9aac",
            "type": "pubkey"
          }
        }
      ],
      "hex": "01000000010000000000000000000000000000000000000000000000000000000000000000ffffffff0804ffff001d02da02ffffffff0100f2052a010000004341041d694ed5f07cae5a92d2e3c9b1cdae77c658d617186f27d04b0613a4e1032017e7f948d1e754d15e4dfcb080df929f5549ac9686016cbb9f22ea3a7ffcdaee9aac00000000"
    }
  ]
}