{
  "hash": "00000000428a416c6536f785c18af1fb6094c653f2e847086eb58755303e2d39",
  "confirmations": 44457,
  "height": 8641,
  "version": 1,
  "versionHex": "00000001",
  "merkleroot": "95833d9b5f5f0c01e0403bcc2913760c62a8139c418ba209f52b435fa6e07e24",
  "time": 1237977223,
  "mediantime": 1237973774,
  "nonce": 2172738605,
  "bits": "1d00ffff",
  "difficulty": 1,
  "chainwork": "000000000000000000000000000000000000000000000000000021c221c221c2",
  "nTx": 1,
  "previousblockhash": "0000000007b3d3d27c5e2a41f72a6f8325a8c0bcef7b3816f085c7c3e3f6f8dd",
  "nextblockhash": "000000003819757b4093ca235dc2355734229ffb44e6dbb3191e9cd38d8f36c8",
  "strippedsize": 216,
  "size": 216,
  "weight": 864,
  "tx": [
    {
      "txid": "95833d9b5f5f0c01e0403bcc2913760c62a8139c418ba209f52b435fa6e07e24",
      "hash": "95833d9b5f5f0c01e0403bcc2913760c62a8139c418ba209f52b435fa6e07e24",
      "version": 1,
      "size": 135,
      "vsize": 135,
      "weight": 540,
      "locktime": 0,
      "vin": [
        {
          "coinbase": "04ffff001d022c0a",
          "sequence": 4294967295
        }
      ],
      "vout": [
        {
          "value": 50.0,
          "n": 0,
          "scriptPubKey": {
            "asm": "045ee7ae349c4995a35256b494fe6eeac1789713bf03fe4fa954d7792e83031077da9e50fde3ca99760e1fd981c82394e146b9d17a03b57fd34d0e5a8970e2ea66 OP_CHECKSIG",
            "desc": "pk(045ee7ae349c4995a35256b494fe6eeac1789713bf03fe4fa954d7792e83031077da9e50fde3ca99760e1fd981c82394e146b9d17a03b57fd34d0e5a8970e2ea66)#x99ae35n",
            "hex": "41045ee7ae349c4995a35256b494fe6eeac1789713bf03fe4fa954d7792e83031077da9e50fde3ca99760e1fd981c82394e146b9d17a03b57fd34d0e5a8970e2ea66ac",
            "type": "pubkey"
          }
        }
      ],
      "hex": "01000000010000000000000000000000000000000000000000000000000000000000000000ffffffff0804ffff001d022c0affffffff0100f2052a010000004341045ee7ae349c4995a35256b494fe6eeac1789713bf03fe4fa954d7792e83031077da9e50fde3ca99760e1fd981c82394e146b9d17a03b57fd34d0e5a8970e2ea66ac00000000"
    }
  ]
}