{
  "hash": "00000000913fdbf224ecda1a0f1f8f3f77cf4decea5053f2511ef01091339475",
  "confirmations": 43740,
  "height": 9358,
  "version": 1,
  "versionHex": "00000001",
  "merkleroot": "66e4d07ee358addf293cb504e73984ca87d95f38132705f611c6cc46196e6a61",
  "time": 1238516753,
  "mediantime": 1238513987,
  "nonce": 15060919,
  "bits": "1d00ffff",
  "difficulty": 1,
  "chainwork": "0000000000000000000000000000000000000000000000000000248f248f248f",
  "nTx": 1,
  "previousblockhash": "00000000b7c37ebcca8672e12da0dfaebbc6f8808ce57e5fff7123259d51d644",
  "nextblockhash": "00000000e3895990e541f0e1728fe4114db8a7ed0fdb461d190dd4308817abe6",
  "strippedsize": 216,
  "size": 216,
  "weight": 864,
  "tx": [
    {
      "txid": "66e4d07ee358addf293cb504e73984ca87d95f38132705f611c6cc46196e6a61",
      "hash": "66e4d07ee358addf293cb504e73984ca87d95f38132705f611c6cc46196e6a61",
      "version": 1,
      "size": 135,
      "vsize": 135,
      "weight": 540,
      "locktime": 0,
      "vin": [
        {
          "coinbase": "04ffff001d023205",
          "sequence": 4294967295
        }
      ],
      "vout": [
        {
          "value": 50.0,
          "n": 0,
          "scriptPubKey": {
            "asm": "04d73f91c3bd36a915a1fdbd647819c7735aa696d21397b0a26fe541b10d47bbfc2b1625b7a4d3144b319d07bd06abc76c18d8394b477fc726eb1fb938a4992d7d OP_CHECKSIG",
            "desc": "pk(04d73f91c3bd36a915a1fdbd647819c7735aa696d21397b0a26fe541b10d47bbfc2b1625b7a4d3144b319d07bd06abc76c18d8394b477fc726eb1fb938a4992d7d)#8mtaygpe",
            "hex": "4104d73f91c3bd36a915a1fdbd647819c7735aa696d21397b0a26fe541b10d47bbfc2b1625b7a4d3144b319d07bd06abc76c18d8394b477fc726eb1fb938a4992d7dac",
            "type": "pubkey"
          }
        }
      ],
      "hex": "01000000010000000000000000000000000000000000000000000000000000000000000000ffffffff0804ffff001d023205ffffffff0100f2052a01000000434104d73f91c3bd36a915a1fdbd647819c7735aa696d21397b0a26fe541b10d47bbfc2b1625b7a4d3144b319d07bd06abc76c18d8394b477fc726eb1fb938a4992d7dac00000000"
    }
  ]
}