{
  "hash": "00000000507fcfe6138eaf4ebbb1766337d78bbbda1f5e15fba2c822d77ec01c",
  "confirmations": 47336,
  "height": 5762,
  "version": 1,
  "versionHex": "00000001",
  "merkleroot": "074fb2dbb87a20f38fb3cacd13313db97527520bb03174a5ab6416446c231fce",
  "time": 1235732018,
  "mediantime": 1235728613,
  "nonce": 406934296,
  "bits": "1d00ffff",
  "difficulty": 1,
  "chainwork": "0000000000000000000000000000000000000000000000000000168316831683",
  "nTx": 1,
  "previousblockhash": "00000000d040404ade368aae49e4d4603feacf06ac7beb9777aa0872035b3eef",
  "nextblockhash": "00000000832caba3ebe2eb5c2b579129c5f364d2f8030b138f0d445199a4e713",
  "strippedsize": 215,
  "size": 215,
  "weight": 860,
  "tx": [
    {
      "txid": "074fb2dbb87a20f38fb3cacd13313db97527520bb03174a5ab6416446c231fce",
      "hash": "074fb2dbb87a20f38fb3cacd13313db97527520bb03174a5ab6416446c231fce",
      "version": 1,
      "size": 134,
      "vsize": 134,
      "weight": 536,
      "locktime": 0,
      "vin": [
        {
          "coinbase": "04ffff001d0130",
          "sequence": 4294967295
        }
      ],
      "vout": [
        {
          "value": 50.0,
          "n": 0,
          "scriptPubKey": {
            "asm": "04c6aa6e7ffda3f9aec7f1b3512aac170dc45eac5e2b645831a5f3f20879283362ab16d0b0174e801086a244494212ab0eebb98561f6553ea60fa2150d8ae2c361 OP_CHECKSIG",
            "desc": "pk(04c6aa6e7ffda3f9aec7f1b3512aac170dc45eac5e2b645831a5f3f20879283362ab16d0b0174e801086a244494212ab0eebb98561f6553ea60fa2150d8ae2c361)#wyf2aeza",
            "hex": "4104c6aa6e7ffda3f9aec7f1b3512aac170dc45eac5e2b645831a5f3f20879283362ab16d0b0174e801086a244494212ab0eebb98561f6553ea60fa2150d8ae2c361ac",
            "type": "pubkey"
          }
        }
      ],
      "hex": "01000000010000000000000000000000000000000000000000000000000000000000000000ffffffff0704ffff001d0130ffffffff0100f2052a01000000434104c6aa6e7ffda3f9aec7f1b3512aac170dc45eac5e2b645831a5f3f20879283362ab16d0b0174e801086a244494212ab0eebb98561f6553ea60fa2150d8ae2c361ac00000000"
    }
  ]
}