{
  "hash": "00000000842f1233d4040d4b2001215b1a5c7f0ee5b64074b903c9b65464839a",
  "confirmations": 48113,
  "height": 4985,
  "version": 1,
  "versionHex": "00000001",
  "merkleroot": "261b672e921c6b6365cf19eb459bd4e2ce75adb1c2e7d72b5aa5b22991d18751",
  "time": 1235130254,
  "mediantime": 1235126444,
  "nonce": 2462943272,
  "bits": "1d00ffff",
  "difficulty": 1,
  "chainwork": "0000000000000000000000000000000000000000000000000000137a137a137a",
  "nTx": 1,
  "previousblockhash": "000000006ec9015f567e367b1a1537e5313a6c78c9f59277fda0e9a3321589cb",
  "nextblockhash": "000000009b2bfcd7a02de567370eb623a301530e64b31fb084dc68a47d3f53cf",
  "strippedsize": 216,
  "size": 216,
  "weight": 864,
  "tx": [
    {
      "txid": "261b672e921c6b6365cf19eb459bd4e2ce75adb1c2e7d72b5aa5b22991d18751",
      "hash": "261b672e921c6b6365cf19eb459bd4e2ce75adb1c2e7d72b5aa5b22991d18751",
      "version": 1,
      "size": 135,
      "vsize": 135,
      "weight": 540,
      "locktime": 0,
      "vin": [
        {
          "coinbase": "04ffff001d02d306",
          "sequence": 4294967295
        }
      ],
      "vout": [
        {
          "value": 50.0,
          "n": 0,
          "scriptPubKey": {
            "asm": "049788bf7b9ec5a5cb9cc05ef4b3bdcb65954da379baf0f92cce1e8ca41013d7ae43133316b15e00c704d68aa16089b0be8caf0aee46b94ca0c48804bceba78522 OP_CHECKSIG",
            "desc": "pk(049788bf7b9ec5a5cb9cc05ef4b3bdcb65954da379baf0f92cce1e8ca41013d7ae43133316b15e00c704d68aa16089b0be8caf0aee46b94ca0c48804bceba78522)#8gye9dg8",
            "hex": "41049788bf7b9ec5a5cb9cc05ef4b3bdcb65954da379baf0f92cce1e8ca41013d7ae43133316b15e00c704d68aa16089b0be8caf0aee46b94ca0c48804bceba78522ac",
            "type": "pubkey"
          }
        }
      ],
      "hex": "01000000010000000000000000000000000000000000000000000000000000000000000000ffffffff0804ffff001d02d306ffffffff0100f2052a010000004341049788bf7b9ec5a5cb9cc05ef4b3bdcb65954da379baf0f92cce1e8ca41013d7ae43133316b15e00c704d68aa16089b0be8caf0aee46b94ca0c48804bceba78522ac00000000"
    }
  ]
}