{
  "hash": "000000006871c85a9b37ed343d5d22f60fe188d69831e61e8123264507a577bb",
  "confirmations": 46286,
  "height": 6812,
  "version": 1,
  "versionHex": "00000001",
  "merkleroot": "d15b4a2dee21da8652dd375e1ea656fdd133634ba0411ad51e82361d3fd16f05",
  "time": 1236564874,
  "mediantime": 1236562421,
  "nonce": 57151527,
  "bits": "1d00ffff",
  "difficulty": 1,
  "chainwork": "00000000000000000000000000000000000000000000000000001a9d1a9d1a9d",
  "nTx": 1,
  "previousblockhash": "000000003a307b43839268cda17218fa04b2c2c98fc7fc916ffe2165d0b3a136",
  "nextblockhash": "00000000b0584849a2d5df998c8cb640333a1841cce54dd0ac207d339735907d",
  "strippedsize": 216,
  "size": 216,
  "weight": 864,
  "tx": [
    {
      "txid": "d15b4a2dee21da8652dd375e1ea656fdd133634ba0411ad51e82361d3fd16f05",
      "hash": "d15b4a2dee21da8652dd375e1ea656fdd133634ba0411ad51e82361d3fd16f05",
      "version": 1,
      "size": 135,
      "vsize": 135,
      "weight": 540,
      "locktime": 0,
      "vin": [
        {
          "coinbase": "04ffff001d02680c",
          "sequence": 4294967295
        }
      ],
      "vout": [
        {
          "value": 50.0,
          "n": 0,
          "scriptPubKey": {
            "asm": "04b43a372a22ef4e079bb4dc52c09a7764e7251cbbc8eaf5e08e87af3f69057c5c14a310746cac75aea57aad8d47e8b1a3a91356b5c08dea05c4d0e327fabc8048 OP_CHECKSIG",
            "desc": "pk(04b43a372a22ef4e079bb4dc52c09a7764e7251cbbc8eaf5e08e87af3f69057c5c14a310746cac75aea57aad8d47e8b1a3a91356b5c08dea05c4d0e327fabc8048)#va6slfew",
            "hex": "4104b43a372a22ef4e079bb4dc52c09a7764e7251cbbc8eaf5e08e87af3f69057c5c14a310746cac75aea57aad8d47e8b1a3a91356b5c08dea05c4d0e327fabc8048ac",
            "type": "pubkey"
          }
        }
      ],
      "hex": "01000000010000000000000000000000000000000000000000000000000000000000000000ffffffff0804ffff001d02680cffffffff0100f2052a01000000434104b43a372a22ef4e079bb4dc52c09a7764e7251cbbc8eaf5e08e87af3f69057c5c14a310746cac75aea57aad8d47e8b1a3a91356b5c08dea05c4d0e327fabc8048ac00000000"
    }
  ]
}