{
  "hash": "00000000705189678f41af8579233325e1df6112d8fc3d4e5e2667931b437e36",
  "confirmations": 44602,
  "height": 8496,
  "version": 1,
  "versionHex": "00000001",
  "merkleroot": "7dfaa213cd6178106ebcd356a2a23c382169ff2662bf16d35961d0fad5ee3261",
  "time": 1237869220,
  "mediantime": 1237864286,
  "nonce": 233885480,
  "bits": "1d00ffff",
  "difficulty": 1,
  "chainwork": "0000000000000000000000000000000000000000000000000000213121312131",
  "nTx": 1,
  "previousblockhash": "00000000835b3057385da02d39b2e0cac7a417d41f75036f6a48135e2287682a",
  "nextblockhash": "00000000746f6bca4d7fb62aaca814a7847937b878b6f256f63d2c569fc96de1",
  "strippedsize": 216,
  "size": 216,
  "weight": 864,
  "tx": [
    {
      "txid": "7dfaa213cd6178106ebcd356a2a23c382169ff2662bf16d35961d0fad5ee3261",
      "hash": "7dfaa213cd6178106ebcd356a2a23c382169ff2662bf16d35961d0fad5ee3261",
      "version": 1,
      "size": 135,
      "vsize": 135,
      "weight": 540,
      "locktime": 0,
      "vin": [
        {
          "coinbase": "04ffff001d02b207",
          "sequence": 4294967295
        }
      ],
      "vout": [
        {
          "value": 50.0,
          "n": 0,
          "scriptPubKey": {
            "asm": "04d8d690103d16349d1f8e71a1dbde4dd030c4b6a31f137d0f153828d1544faa26a3f954cf75925786870ac4c5cb477d7aa65244ac4224c8ae96669759df8e895d OP_CHECKSIG",
            "desc": "pk(04d8d690103d16349d1f8e71a1dbde4dd030c4b6a31f137d0f153828d1544faa26a3f954cf75925786870ac4c5cb477d7aa65244ac4224c8ae96669759df8e895d)#zkhult9a",
            "hex": "4104d8d690103d16349d1f8e71a1dbde4dd030c4b6a31f137d0f153828d1544faa26a3f954cf75925786870ac4c5cb477d7aa65244ac4224c8ae96669759df8e895dac",
            "type": "pubkey"
          }
        }
      ],
      "hex": "01000000010000000000000000000000000000000000000000000000000000000000000000ffffffff0804ffff001d02b207ffffffff0100f2052a01000000434104d8d690103d16349d1f8e71a1dbde4dd030c4b6a31f137d0f153828d1544faa26a3f954cf75925786870ac4c5cb477d7aa65244ac4224c8ae96669759df8e895dac00000000"
    }
  ]
}