{
  "hash": "000000000049d528e1ff957e93e089491752d69a924e4de2b5a6ad2f2c05f446",
  "confirmations": 46860,
  "height": 6238,
  "version": 1,
  "versionHex": "00000001",
  "merkleroot": "ae8816679e9ab6b3fe84580171ef56834145a730bd497a001b54a9bf6f1f4b19",
  "time": 1236123193,
  "mediantime": 1236119307,
  "nonce": 1736664608,
  "bits": "1d00ffff",
  "difficulty": 1,
  "chainwork": "0000000000000000000000000000000000000000000000000000185f185f185f",
  "nTx": 1,
  "previousblockhash": "000000002d7648884f84ea6960f99a08bc8aa07a714a4099fa23cf66d166b28f",
  "nextblockhash": "000000001d1cca193a7055038fae6e5eb81b8cf60b600767f85d0fc87d9086d8",
  "strippedsize": 216,
  "size": 216,
  "weight": 864,
  "tx": [
    {
      "txid": "ae8816679e9ab6b3fe84580171ef56834145a730bd497a001b54a9bf6f1f4b19",
      "hash": "ae8816679e9ab6b3fe84580171ef56834145a730bd497a001b54a9bf6f1f4b19",
      "version": 1,
      "size": 135,
      "vsize": 135,
      "weight": 540,
      "locktime": 0,
      "vin": [
        {
          "coinbase": "04ffff001d024109",
          "sequence": 4294967295
        }
      ],
      "vout": [
        {
          "value": 50.0,
          "n": 0,
          "scriptPubKey": {
            "asm": "04be17fc76820af35c6cf9497acd85cc6ab257b32f89d9279e332f9938c096dbb5878046d3760f8aacaa4dcdb67c9b33010f985620ac4b8445c383f0655ffea1fc OP_CHECKSIG",
            "desc": "pk(04be17fc76820af35c6cf9497acd85cc6ab257b32f89d9279e332f9938c096dbb5878046d3760f8aacaa4dcdb67c9b33010f985620ac4b8445c383f0655ffea1fc)#scvjvj7w",
            "hex": "4104be17fc76820af35c6cf9497acd85cc6ab257b32f89d9279e332f9938c096dbb5878046d3760f8aacaa4dcdb67c9b33010f985620ac4b8445c383f0655ffea1fcac",
            "type": "pubkey"
          }
        }
      ],
      "hex": "01000000010000000000000000000000000000000000000000000000000000000000000000ffffffff0804ffff001d024109ffffffff0100f2052a01000000434104be17fc76820af35c6cf9497acd85cc6ab257b32f89d9279e332f9938c096dbb5878046d3760f8aacaa4dcdb67c9b33010f985620ac4b8445c383f0655ffea1fcac00000000"
    }
  ]
}