{
  "hash": "00000000c6bf37659ded32d61de724202589c3450efce4a5c23e18f83efc4b31",
  "confirmations": 49990,
  "height": 3108,
  "version": 1,
  "versionHex": "00000001",
  "merkleroot": "88a7ea881fb5e1e11dd9ef0d2f0a609f663c771450ea877c3031b2273bc9be3e",
  "time": 1233840717,
  "mediantime": 1233837098,
  "nonce": 4146781493,
  "bits": "1d00ffff",
  "difficulty": 1,
  "chainwork": "00000000000000000000000000000000000000000000000000000c250c250c25",
  "nTx": 1,
  "previousblockhash": "000000006d7aa7b2a57502a9fdf8df7781011c74138372c16233b21d80be0e17",
  "nextblockhash": "000000001e146282060620f817e7665d9a815b2ea955d1de5e0cc7061592ee2b",
  "strippedsize": 216,
  "size": 216,
  "weight": 864,
  "tx": [
    {
      "txid": "88a7ea881fb5e1e11dd9ef0d2f0a609f663c771450ea877c3031b2273bc9be3e",
      "hash": "88a7ea881fb5e1e11dd9ef0d2f0a609f663c771450ea877c3031b2273bc9be3e",
      "version": 1,
      "size": 135,
      "vsize": 135,
      "weight": 540,
      "locktime": 0,
      "vin": [
        {
          "coinbase": "04ffff001d025101",
          "sequence": 4294967295
        }
      ],
      "vout": [
        {
          "value": 50.0,
          "n": 0,
          "scriptPubKey": {
            "asm": "0403e427aedc61bc85f907be7f2afb8fddb4d8fc60c10623016fd879be7b6b031921083860b36eb77b8b87f23339e125831cb0a4e1540b53347794f6780d49b8f0 OP_CHECKSIG",
            "desc": "pk(0403e427aedc61bc85f907be7f2afb8fddb4d8fc60c10623016fd879be7b6b031921083860b36eb77b8b87f23339e125831cb0a4e1540b53347794f6780d49b8f0)#63e52x86",
            "hex": "410403e427aedc61bc85f907be7f2afb8fddb4d8fc60c10623016fd879be7b6b031921083860b36eb77b8b87f23339e125831cb0a4e1540b53347794f6780d49b8f0ac",
            "type": "pubkey"
          }
        }
      ],
      "hex": "01000000010000000000000000000000000000000000000000000000000000000000000000ffffffff0804ffff001d025101ffffffff0100f2052a0100000043410403e427aedc61bc85f907be7f2afb8fddb4d8fc60c10623016fd879be7b6b031921083860b36eb77b8b87f23339e125831cb0a4e1540b53347794f6780d49b8f0ac00000000"
    }
  ]
}