{
  "hash": "000000009773d904b7757de228872b799112cce5de8cbede02e7591143bd8f5e",
  "confirmations": 43115,
  "height": 9983,
  "version": 1,
  "versionHex": "00000001",
  "merkleroot": "10792a007fab132bd0eb0c864b967aa253c65c23c9bd33d205df7addfe172e50",
  "time": 1238976997,
  "mediantime": 1238976042,
  "nonce": 25220711,
  "bits": "1d00ffff",
  "difficulty": 1,
  "chainwork": "0000000000000000000000000000000000000000000000000000270027002700",
  "nTx": 1,
  "previousblockhash": "0000000040e61c40113675fdf6b0768915280df3a2911a7c57a859bca93d7d7a",
  "nextblockhash": "00000000bce85f66d15636312105bb2e4f8a25122690a2667dfa3330a21da065",
  "strippedsize": 216,
  "size": 216,
  "weight": 864,
  "tx": [
    {
      "txid": "10792a007fab132bd0eb0c864b967aa253c65c23c9bd33d205df7addfe172e50",
      "hash": "10792a007fab132bd0eb0c864b967aa253c65c23c9bd33d205df7addfe172e50",
      "version": 1,
      "size": 135,
      "vsize": 135,
      "weight": 540,
      "locktime": 0,
      "vin": [
        {
          "coinbase": "04ffff001d02b900",
          "sequence": 4294967295
        }
      ],
      "vout": [
        {
          "value": 50.0,
          "n": 0,
          "scriptPubKey": {
            "asm": "040ad2dba97ab097466db62fbbc171ce720c11c50553977170d64c7f6d8cb4c2e98b98f06f4b3f8a30972a0cc6722a2bcae84a688f26a09ab205198fbb8c20ad9b OP_CHECKSIG",
            "desc": "pk(040ad2dba97ab097466db62fbbc171ce720c11c50553977170d64c7f6d8cb4c2e98b98f06f4b3f8a30972a0cc6722a2bcae84a688f26a09ab205198fbb8c20ad9b)#l0wj3xga",
            "hex": "41040ad2dba97ab097466db62fbbc171ce720c11c50553977170d64c7f6d8cb4c2e98b98f06f4b3f8a30972a0cc6722a2bcae84a688f26a09ab205198fbb8c20ad9bac",
            "type": "pubkey"
          }
        }
      ],
      "hex": "01000000010000000000000000000000000000000000000000000000000000000000000000ffffffff0804ffff001d02b900ffffffff0100f2052a010000004341040ad2dba97ab097466db62fbbc171ce720c11c50553977170d64c7f6d8cb4c2e98b98f06f4b3f8a30972a0cc6722a2bcae84a688f26a09ab205198fbb8c20ad9bac00000000"
    }
  ]
}