{
  "hash": "000000001c5df40d83ecddc84084e23c1ddc4b9008ebeb18eb62f7da38355402",
  "confirmations": 45401,
  "height": 7697,
  "version": 1,
  "versionHex": "00000001",
  "merkleroot": "5d7bdfc83b4bdfbcbb7c3dbe0d53ee98486e7588460fafcc1bdffa488d015e3d",
  "time": 1237237569,
  "mediantime": 1237234340,
  "nonce": 50123209,
  "bits": "1d00ffff",
  "difficulty": 1,
  "chainwork": "00000000000000000000000000000000000000000000000000001e121e121e12",
  "nTx": 1,
  "previousblockhash": "00000000d13d438d86345ef8e2f72bd5b63007dadbbd6390d6333e33daab14c6",
  "nextblockhash": "00000000ca0431fe8b104ae5b137c1881017e0afb16080c194b60391769cd987",
  "strippedsize": 216,
  "size": 216,
  "weight": 864,
  "tx": [
    {
      "txid": "5d7bdfc83b4bdfbcbb7c3dbe0d53ee98486e7588460fafcc1bdffa488d015e3d",
      "hash": "5d7bdfc83b4bdfbcbb7c3dbe0d53ee98486e7588460fafcc1bdffa488d015e3d",
      "version": 1,
      "size": 135,
      "vsize": 135,
      "weight": 540,
      "locktime": 0,
      "vin": [
        {
          "coinbase": "04ffff001d02b003",
          "sequence": 4294967295
        }
      ],
      "vout": [
        {
          "value": 50.0,
          "n": 0,
          "scriptPubKey": {
            "asm": "04f54d8b4e2f596bc2e9fc685da5c7427a96ea880dffbd8024b59e890575fb206a90010e38c86a31bf947f53394e2c54ca2483f5b098d82c91eb787e21d99ad8d2 OP_CHECKSIG",
            "desc": "pk(04f54d8b4e2f596bc2e9fc685da5c7427a96ea880dffbd8024b59e890575fb206a90010e38c86a31bf947f53394e2c54ca2483f5b098d82c91eb787e21d99ad8d2)#sn2wl3vp",
            "hex": "4104f54d8b4e2f596bc2e9fc685da5c7427a96ea880dffbd8024b59e890575fb206a90010e38c86a31bf947f53394e2c54ca2483f5b098d82c91eb787e21d99ad8d2ac",
            "type": "pubkey"
          }
        }
      ],
      "hex": "01000000010000000000000000000000000000000000000000000000000000000000000000ffffffff0804ffff001d02b003ffffffff0100f2052a01000000434104f54d8b4e2f596bc2e9fc685da5c7427a96ea880dffbd8024b59e890575fb206a90010e38c86a31bf947f53394e2c54ca2483f5b098d82c91eb787e21d99ad8d2ac00000000"
    }
  ]
}