{
  "hash": "00000000f38367acbcdf031b784f66ce4dee8274ae8007e68db34475b8cf707d",
  "confirmations": 47238,
  "height": 5860,
  "version": 1,
  "versionHex": "00000001",
  "merkleroot": "55919b88320e706b61af2712c8890857dc4a026ed133df5b5c3e7fc94aef82dd",
  "time": 1235809486,
  "mediantime": 1235805957,
  "nonce": 439839535,
  "bits": "1d00ffff",
  "difficulty": 1,
  "chainwork": "000000000000000000000000000000000000000000000000000016e516e516e5",
  "nTx": 1,
  "previousblockhash": "000000002301e5593a516241fa2a884f334c1f1b5883c7109aad1b7f3e168c34",
  "nextblockhash": "0000000010a3730834656b9c3a6bc67e733eaa8750a97d8270626a24c62b4f78",
  "strippedsize": 216,
  "size": 216,
  "weight": 864,
  "tx": [
    {
      "txid": "55919b88320e706b61af2712c8890857dc4a026ed133df5b5c3e7fc94aef82dd",
      "hash": "55919b88320e706b61af2712c8890857dc4a026ed133df5b5c3e7fc94aef82dd",
      "version": 1,
      "size": 135,
      "vsize": 135,
      "weight": 540,
      "locktime": 0,
      "vin": [
        {
          "coinbase": "04ffff001d022702",
          "sequence": 4294967295
        }
      ],
      "vout": [
        {
          "value": 50.0,
          "n": 0,
          "scriptPubKey": {
            "asm": "048247cf6bec4ac6d09109950d9acde267b17f1dc16892644536c47efb7a8a93b476317ebd0234209cf5323e3cb736c6896697ded25e554a75ebe813246756427a OP_CHECKSIG",
            "desc": "pk(048247cf6bec4ac6d09109950d9acde267b17f1dc16892644536c47efb7a8a93b476317ebd0234209cf5323e3cb736c6896697ded25e554a75ebe813246756427a)#puxh6386",
            "hex": "41048247cf6bec4ac6d09109950d9acde267b17f1dc16892644536c47efb7a8a93b476317ebd0234209cf5323e3cb736c6896697ded25e554a75ebe813246756427aac",
            "type": "pubkey"
          }
        }
      ],
      "hex": "01000000010000000000000000000000000000000000000000000000000000000000000000ffffffff0804ffff001d022702ffffffff0100f2052a010000004341048247cf6bec4ac6d09109950d9acde267b17f1dc16892644536c47efb7a8a93b476317ebd0234209cf5323e3cb736c6896697ded25e554a75ebe813246756427aac00000000"
    }
  ]
}