{
  "hash": "000000002fec941ddc71a8e9d1ce5ddbb84f8deeb21a8a1998056fb6ebe10c68",
  "confirmations": 44927,
  "height": 8171,
  "version": 1,
  "versionHex": "00000001",
  "merkleroot": "9ca24e767f3ab34aa9e83074b6090aff19df2e23030daf32542b0cf944fed57d",
  "time": 1237587086,
  "mediantime": 1237583761,
  "nonce": 2801660208,
  "bits": "1d00ffff",
  "difficulty": 1,
  "chainwork": "00000000000000000000000000000000000000000000000000001fec1fec1fec",
  "nTx": 1,
  "previousblockhash": "0000000099a10ad867d932cb4c83be9d3c1015a5651371c9036ae3a72435094c",
  "nextblockhash": "000000007503606c5218229b5ed7dec308060951202a32eba433ec53e07a827f",
  "strippedsize": 216,
  "size": 216,
  "weight": 864,
  "tx": [
    {
      "txid": "9ca24e767f3ab34aa9e83074b6090aff19df2e23030daf32542b0cf944fed57d",
      "hash": "9ca24e767f3ab34aa9e83074b6090aff19df2e23030daf32542b0cf944fed57d",
      "version": 1,
      "size": 135,
      "vsize": 135,
      "weight": 540,
      "locktime": 0,
      "vin": [
        {
          "coinbase": "04ffff001d026c02",
          "sequence": 4294967295
        }
      ],
      "vout": [
        {
          "value": 50.0,
          "n": 0,
          "scriptPubKey": {
            "asm": "046c216d99665563c6d24fdc7e474d2148bf4bdc5a87643853a7894fc2a5793f2fb551ac5a85aaf2ad7bb0df606a00fe8db46c5791a5b0a2ff159e5cbf9cec4e45 OP_CHECKSIG",
            "desc": "pk(046c216d99665563c6d24fdc7e474d2148bf4bdc5a87643853a7894fc2a5793f2fb551ac5a85aaf2ad7bb0df606a00fe8db46c5791a5b0a2ff159e5cbf9cec4e45)#zczw6j2j",
            "hex": "41046c216d99665563c6d24fdc7e474d2148bf4bdc5a87643853a7894fc2a5793f2fb551ac5a85aaf2ad7bb0df606a00fe8db46c5791a5b0a2ff159e5cbf9cec4e45ac",
            "type": "pubkey"
          }
        }
      ],
      "hex": "01000000010000000000000000000000000000000000000000000000000000000000000000ffffffff0804ffff001d026c02ffffffff0100f2052a010000004341046c216d99665563c6d24fdc7e474d2148bf4bdc5a87643853a7894fc2a5793f2fb551ac5a85aaf2ad7bb0df606a00fe8db46c5791a5b0a2ff159e5cbf9cec4e45ac00000000"
    }
  ]
}