{
  "hash": "000000001b10f4df762874dbef05fdcedfd087af7f5b858c8ad83960b3346508",
  "confirmations": 45058,
  "height": 8040,
  "version": 1,
  "versionHex": "00000001",
  "merkleroot": "aa6930ae1f504e79de995128e7e8236854d114b1d70d2d3b0923e03465a8f9fd",
  "time": 1237490056,
  "mediantime": 1237488527,
  "nonce": 398737,
  "bits": "1d00ffff",
  "difficulty": 1,
  "chainwork": "00000000000000000000000000000000000000000000000000001f691f691f69",
  "nTx": 1,
  "previousblockhash": "0000000032a22799fdb7730d3bc467008cf38bc76735233c78348379e67e4ed4",
  "nextblockhash": "000000001611341fe66ce445f6db203ac0a1636529b43bb2e871a3356d526350",
  "strippedsize": 216,
  "size": 216,
  "weight": 864,
  "tx": [
    {
      "txid": "aa6930ae1f504e79de995128e7e8236854d114b1d70d2d3b0923e03465a8f9fd",
      "hash": "aa6930ae1f504e79de995128e7e8236854d114b1d70d2d3b0923e03465a8f9fd",
      "version": 1,
      "size": 135,
      "vsize": 135,
      "weight": 540,
      "locktime": 0,
      "vin": [
        {
          "coinbase": "04ffff001d021b0a",
          "sequence": 4294967295
        }
      ],
      "vout": [
        {
          "value": 50.0,
          "n": 0,
          "scriptPubKey": {
            "asm": "04530cf0375fca7c0d88d4fbde6e2bf363b060834aad9405e63b187c0b4afefa6678cb1f14a731c9067edcc78ba44b4bf428b813643df3918faf8b61ff98477f09 OP_CHECKSIG",
            "desc": "pk(04530cf0375fca7c0d88d4fbde6e2bf363b060834aad9405e63b187c0b4afefa6678cb1f14a731c9067edcc78ba44b4bf428b813643df3918faf8b61ff98477f09)#upccukwy",
            "hex": "4104530cf0375fca7c0d88d4fbde6e2bf363b060834aad9405e63b187c0b4afefa6678cb1f14a731c9067edcc78ba44b4bf428b813643df3918faf8b61ff98477f09ac",
            "type": "pubkey"
          }
        }
      ],
      "hex": "01000000010000000000000000000000000000000000000000000000000000000000000000ffffffff0804ffff001d021b0affffffff0100f2052a01000000434104530cf0375fca7c0d88d4fbde6e2bf363b060834aad9405e63b187c0b4afefa6678cb1f14a731c9067edcc78ba44b4bf428b813643df3918faf8b61ff98477f09ac00000000"
    }
  ]
}