{
  "hash": "00000000bfa0f0d66b2151934f61ef683341ecfc28a8ddd47e4cbc8b18a37029",
  "confirmations": 45118,
  "height": 7980,
  "version": 1,
  "versionHex": "00000001",
  "merkleroot": "1424f40ce15ce1c0d4a13eddc69e2dd667de52213b32f52f82bc4929c91a8ce5",
  "time": 1237447605,
  "mediantime": 1237445557,
  "nonce": 1357654036,
  "bits": "1d00ffff",
  "difficulty": 1,
  "chainwork": "00000000000000000000000000000000000000000000000000001f2d1f2d1f2d",
  "nTx": 1,
  "previousblockhash": "00000000d1875178e5bee1a42932a35c2572580ff016df27a33d75f802b0ae6f",
  "nextblockhash": "0000000015711ec0cd8d5b71ef8ac65df81f6ad95a0449d90ca5bf6820881efb",
  "strippedsize": 216,
  "size": 216,
  "weight": 864,
  "tx": [
    {
      "txid": "1424f40ce15ce1c0d4a13eddc69e2dd667de52213b32f52f82bc4929c91a8ce5",
      "hash": "1424f40ce15ce1c0d4a13eddc69e2dd667de52213b32f52f82bc4929c91a8ce5",
      "version": 1,
      "size": 135,
      "vsize": 135,
      "weight": 540,
      "locktime": 0,
      "vin": [
        {
          "coinbase": "04ffff001d020609",
          "sequence": 4294967295
        }
      ],
      "vout": [
        {
          "value": 50.0,
          "n": 0,
          "scriptPubKey": {
            "asm": "0403d3833b0464edc45b691c696f988de387733e9f3210f933ff49f87bd728e569bb7caff035b7ccaaf2f4ab2db6b10792a4727e06731c1e96c74c0c3d188f30de OP_CHECKSIG",
            "desc": "pk(0403d3833b0464edc45b691c696f988de387733e9f3210f933ff49f87bd728e569bb7caff035b7ccaaf2f4ab2db6b10792a4727e06731c1e96c74c0c3d188f30de)#86er9ktf",
            "hex": "410403d3833b0464edc45b691c696f988de387733e9f3210f933ff49f87bd728e569bb7caff035b7ccaaf2f4ab2db6b10792a4727e06731c1e96c74c0c3d188f30deac",
            "type": "pubkey"
          }
        }
      ],
      "hex": "01000000010000000000000000000000000000000000000000000000000000000000000000ffffffff0804ffff001d020609ffffffff0100f2052a0100000043410403d3833b0464edc45b691c696f988de387733e9f3210f933ff49f87bd728e569bb7caff035b7ccaaf2f4ab2db6b10792a4727e06731c1e96c74c0c3d188f30deac00000000"
    }
  ]
}