{
  "hash": "000000005e122b0170381a09ecb22a7bb188a4a20fed31eb7ae5f498872a7d28",
  "confirmations": 52034,
  "height": 1064,
  "version": 1,
  "versionHex": "00000001",
  "merkleroot": "4c26190116fb030844992b0e1d9ec893b4ec1cb86f06fde2ba22733353195e2a",
  "time": 1232397730,
  "mediantime": 1232395609,
  "nonce": 4042178308,
  "bits": "1d00ffff",
  "difficulty": 1,
  "chainwork": "0000000000000000000000000000000000000000000000000000042904290429",
  "nTx": 1,
  "previousblockhash": "000000002d878e299ee9592fa673e49c36fc1b38a5a8021eb3daf19cf85aec07",
  "nextblockhash": "00000000901629857911af89940f25968fed60168ecefe3f843ea98ed604032d",
  "strippedsize": 216,
  "size": 216,
  "weight": 864,
  "tx": [
    {
      "txid": "4c26190116fb030844992b0e1d9ec893b4ec1cb86f06fde2ba22733353195e2a",
      "hash": "4c26190116fb030844992b0e1d9ec893b4ec1cb86f06fde2ba22733353195e2a",
      "version": 1,
      "size": 135,
      "vsize": 135,
      "weight": 540,
      "locktime": 0,
      "vin": [
        {
          "coinbase": "04ffff001d024606",
          "sequence": 4294967295
        }
      ],
      "vout": [
        {
          "value": 50.0,
          "n": 0,
          "scriptPubKey": {
            "asm": "04834cf9e0b1686747c08f4463e9f98f18b880c81c8f8b4759be3c08ce0d236292c1f35a4eb25738b6885532e96a4a2e49976761ae28cbcb7eb2e3e2e2b3bb2e89 OP_CHECKSIG",
            "desc": "pk(04834cf9e0b1686747c08f4463e9f98f18b880c81c8f8b4759be3c08ce0d236292c1f35a4eb25738b6885532e96a4a2e49976761ae28cbcb7eb2e3e2e2b3bb2e89)#7r3q96we",
            "hex": "4104834cf9e0b1686747c08f4463e9f98f18b880c81c8f8b4759be3c08ce0d236292c1f35a4eb25738b6885532e96a4a2e49976761ae28cbcb7eb2e3e2e2b3bb2e89ac",
            "type": "pubkey"
          }
        }
      ],
      "hex": "01000000010000000000000000000000000000000000000000000000000000000000000000ffffffff0804ffff001d024606ffffffff0100f2052a01000000434104834cf9e0b1686747c08f4463e9f98f18b880c81c8f8b4759be3c08ce0d236292c1f35a4eb25738b6885532e96a4a2e49976761ae28cbcb7eb2e3e2e2b3bb2e89ac00000000"
    }
  ]
}