{
  "hash": "00000000c39060871c6665d8307228083949ced6652605b764b2ffd52bac8d7d",
  "confirmations": 52358,
  "height": 740,
  "version": 1,
  "versionHex": "00000001",
  "merkleroot": "bba9efba08eaebe56f3ce26c388aba9dc558677a6cd46ee93654bd3094a1d534",
  "time": 1232141960,
  "mediantime": 1232138546,
  "nonce": 284725464,
  "bits": "1d00ffff",
  "difficulty": 1,
  "chainwork": "000000000000000000000000000000000000000000000000000002e502e502e5",
  "nTx": 1,
  "previousblockhash": "00000000f7e47202ba95186d565b3484fe1db2b83183160a285f4da8ae9b76c4",
  "nextblockhash": "000000006e86c045f9802af84992d9b1d5f099157b9eb89328477ce57ec6f038",
  "strippedsize": 216,
  "size": 216,
  "weight": 864,
  "tx": [
    {
      "txid": "bba9efba08eaebe56f3ce26c388aba9dc558677a6cd46ee93654bd3094a1d534",
      "hash": "bba9efba08eaebe56f3ce26c388aba9dc558677a6cd46ee93654bd3094a1d534",
      "version": 1,
      "size": 135,
      "vsize": 135,
      "weight": 540,
      "locktime": 0,
      "vin": [
        {
          "coinbase": "04ffff001d028300",
          "sequence": 4294967295
        }
      ],
      "vout": [
        {
          "value": 50.0,
          "n": 0,
          "scriptPubKey": {
            "asm": "04ee90145f166a6a0cab6a1b65c80d9e855d14e8e011eda78c6a330ba36516a61d0b8088eea4538af98f3e8036a6bbc4662613f495e9fc20b5c680cde791e8531d OP_CHECKSIG",
            "desc": "pk(04ee90145f166a6a0cab6a1b65c80d9e855d14e8e011eda78c6a330ba36516a61d0b8088eea4538af98f3e8036a6bbc4662613f495e9fc20b5c680cde791e8531d)#pe5sv6cw",
            "hex": "4104ee90145f166a6a0cab6a1b65c80d9e855d14e8e011eda78c6a330ba36516a61d0b8088eea4538af98f3e8036a6bbc4662613f495e9fc20b5c680cde791e8531dac",
            "type": "pubkey"
          }
        }
      ],
      "hex": "01000000010000000000000000000000000000000000000000000000000000000000000000ffffffff0804ffff001d028300ffffffff0100f2052a01000000434104ee90145f166a6a0cab6a1b65c80d9e855d14e8e011eda78c6a330ba36516a61d0b8088eea4538af98f3e8036a6bbc4662613f495e9fc20b5c680cde791e8531dac00000000"
    }
  ]
}