{
  "hash": "000000006c8f8fcdcfb7753b51c27738169f8fba3526f196619fab7520dc0063",
  "confirmations": 43683,
  "height": 9415,
  "version": 1,
  "versionHex": "00000001",
  "merkleroot": "768cc9257bf5982cf26db97ba854b3f3cd4296b2052165f5a0e194f1a0e9a73e",
  "time": 1238564727,
  "mediantime": 1238561130,
  "nonce": 2447808552,
  "bits": "1d00ffff",
  "difficulty": 1,
  "chainwork": "000000000000000000000000000000000000000000000000000024c824c824c8",
  "nTx": 1,
  "previousblockhash": "000000000544b4c67b17b7e08038569f6fe70496e6ddab51eb044caef1597331",
  "nextblockhash": "00000000c30dfd2ed5be57055c7b9feb276a7b6771e4b521d6db46f7c19aea4d",
  "strippedsize": 216,
  "size": 216,
  "weight": 864,
  "tx": [
    {
      "txid": "768cc9257bf5982cf26db97ba854b3f3cd4296b2052165f5a0e194f1a0e9a73e",
      "hash": "768cc9257bf5982cf26db97ba854b3f3cd4296b2052165f5a0e194f1a0e9a73e",
      "version": 1,
      "size": 135,
      "vsize": 135,
      "weight": 540,
      "locktime": 0,
      "vin": [
        {
          "coinbase": "04ffff001d02eb03",
          "sequence": 4294967295
        }
      ],
      "vout": [
        {
          "value": 50.0,
          "n": 0,
          "scriptPubKey": {
            "asm": "045b71ab449ddbbdefa36071f62b4d1e4f37d3b93662b752a7ffcc935884e9b9e4c4888f7066dcad45d86b8cdc7283daf8cf5a391196a78c51389e16c96fab14c4 OP_CHECKSIG",
            "desc": "pk(045b71ab449ddbbdefa36071f62b4d1e4f37d3b93662b752a7ffcc935884e9b9e4c4888f7066dcad45d86b8cdc7283daf8cf5a391196a78c51389e16c96fab14c4)#euedt7x6",
            "hex": "41045b71ab449ddbbdefa36071f62b4d1e4f37d3b93662b752a7ffcc935884e9b9e4c4888f7066dcad45d86b8cdc7283daf8cf5a391196a78c51389e16c96fab14c4ac",
            "type": "pubkey"
          }
        }
      ],
      "hex": "01000000010000000000000000000000000000000000000000000000000000000000000000ffffffff0804ffff001d02eb03ffffffff0100f2052a010000004341045b71ab449ddbbdefa36071f62b4d1e4f37d3b93662b752a7ffcc935884e9b9e4c4888f7066dcad45d86b8cdc7283daf8cf5a391196a78c51389e16c96fab14c4ac00000000"
    }
  ]
}