{
  "hash": "000000003eb751f538e66bf2d6ce2131184b11e3e804a87b4a839b1f50a1ee14",
  "confirmations": 47218,
  "height": 5880,
  "version": 1,
  "versionHex": "00000001",
  "merkleroot": "081a9ff8d9b1bbebb34c95ca059bc9eab65b3132d35bc1207059ca8e34d7cc17",
  "time": 1235828355,
  "mediantime": 1235823574,
  "nonce": 3727877140,
  "bits": "1d00ffff",
  "difficulty": 1,
  "chainwork": "000000000000000000000000000000000000000000000000000016f916f916f9",
  "nTx": 1,
  "previousblockhash": "000000000509d8351af50926d7a305d2e4044bfaf5f394894702c5c2be083c37",
  "nextblockhash": "000000005d0d04bca775ea7b312834c415ab28b40f623b19084186c78b3a56d8",
  "strippedsize": 216,
  "size": 216,
  "weight": 864,
  "tx": [
    {
      "txid": "081a9ff8d9b1bbebb34c95ca059bc9eab65b3132d35bc1207059ca8e34d7cc17",
      "hash": "081a9ff8d9b1bbebb34c95ca059bc9eab65b3132d35bc1207059ca8e34d7cc17",
      "version": 1,
      "size": 135,
      "vsize": 135,
      "weight": 540,
      "locktime": 0,
      "vin": [
        {
          "coinbase": "04ffff001d02aa02",
          "sequence": 4294967295
        }
      ],
      "vout": [
        {
          "value": 50.0,
          "n": 0,
          "scriptPubKey": {
            "asm": "04932f992f205aa12911403f732c1c47415303aa7eda94031dd3a83d8a65f1561e1bda177b0aca1812c11eddcade14160bedcbe69f7e04d5f1be884bb15c65d191 OP_CHECKSIG",
            "desc": "pk(04932f992f205aa12911403f732c1c47415303aa7eda94031dd3a83d8a65f1561e1bda177b0aca1812c11eddcade14160bedcbe69f7e04d5f1be884bb15c65d191)#wjfm2u4n",
            "hex": "4104932f992f205aa12911403f732c1c47415303aa7eda94031dd3a83d8a65f1561e1bda177b0aca1812c11eddcade14160bedcbe69f7e04d5f1be884bb15c65d191ac",
            "type": "pubkey"
          }
        }
      ],
      "hex": "01000000010000000000000000000000000000000000000000000000000000000000000000ffffffff0804ffff001d02aa02ffffffff0100f2052a01000000434104932f992f205aa12911403f732c1c47415303aa7eda94031dd3a83d8a65f1561e1bda177b0aca1812c11eddcade14160bedcbe69f7e04d5f1be884bb15c65d191ac00000000"
    }
  ]
}