{
  "hash": "0000000027639216483775437aaf3bfbc8153ba2f40ab525511ff55732996bef",
  "confirmations": 50949,
  "height": 2149,
  "version": 1,
  "versionHex": "00000001",
  "merkleroot": "446c537c81b971a243d2dcd5ea955587a97722c206321fd43457a7094e2b3b78",
  "time": 1233174913,
  "mediantime": 1233171952,
  "nonce": 1083569970,
  "bits": "1d00ffff",
  "difficulty": 1,
  "chainwork": "0000000000000000000000000000000000000000000000000000086608660866",
  "nTx": 1,
  "previousblockhash": "000000007d8b560a19bdbb1b8686f23266329ab888c60238fb5071078110e1b8",
  "nextblockhash": "000000003a9d525344b3aac97bbfca6a7898642ff2e072fb9bac354d0aec5217",
  "strippedsize": 215,
  "size": 215,
  "weight": 860,
  "tx": [
    {
      "txid": "446c537c81b971a243d2dcd5ea955587a97722c206321fd43457a7094e2b3b78",
      "hash": "446c537c81b971a243d2dcd5ea955587a97722c206321fd43457a7094e2b3b78",
      "version": 1,
      "size": 134,
      "vsize": 134,
      "weight": 536,
      "locktime": 0,
      "vin": [
        {
          "coinbase": "04ffff001d0179",
          "sequence": 4294967295
        }
      ],
      "vout": [
        {
          "value": 50.0,
          "n": 0,
          "scriptPubKey": {
            "asm": "043ed0b10782fcaa09aa36f6e0a46dcfc60ed5273c2f9f2f63cfa20be7337e487029877ca932b43791964240d1310cc7e6a083e203e6d1238ef9fce51b3a314e84 OP_CHECKSIG",
            "desc": "pk(043ed0b10782fcaa09aa36f6e0a46dcfc60ed5273c2f9f2f63cfa20be7337e487029877ca932b43791964240d1310cc7e6a083e203e6d1238ef9fce51b3a314e84)#6mcc33pp",
            "hex": "41043ed0b10782fcaa09aa36f6e0a46dcfc60ed5273c2f9f2f63cfa20be7337e487029877ca932b43791964240d1310cc7e6a083e203e6d1238ef9fce51b3a314e84ac",
            "type": "pubkey"
          }
        }
      ],
      "hex": "01000000010000000000000000000000000000000000000000000000000000000000000000ffffffff0704ffff001d0179ffffffff0100f2052a010000004341043ed0b10782fcaa09aa36f6e0a46dcfc60ed5273c2f9f2f63cfa20be7337e487029877ca932b43791964240d1310cc7e6a083e203e6d1238ef9fce51b3a314e84ac00000000"
    }
  ]
}