{
  "hash": "00000000927924e2175928d9fbbed5c4021c09ef534adf11faad418698ca71f4",
  "confirmations": 47666,
  "height": 5432,
  "version": 1,
  "versionHex": "00000001",
  "merkleroot": "812327ccacbb47d40f814fce6f7e1a00bda58ce7fcab003c259ff89d2ed4fcf8",
  "time": 1235465735,
  "mediantime": 1235462536,
  "nonce": 2421157163,
  "bits": "1d00ffff",
  "difficulty": 1,
  "chainwork": "0000000000000000000000000000000000000000000000000000153915391539",
  "nTx": 1,
  "previousblockhash": "000000000174ca114a54caeabe0a010627edaa72e94543110b22c14ea061ef5e",
  "nextblockhash": "000000003a92733bcbe53293e9473154db46952662b64d5dcbd4aece69eceac8",
  "strippedsize": 216,
  "size": 216,
  "weight": 864,
  "tx": [
    {
      "txid": "812327ccacbb47d40f814fce6f7e1a00bda58ce7fcab003c259ff89d2ed4fcf8",
      "hash": "812327ccacbb47d40f814fce6f7e1a00bda58ce7fcab003c259ff89d2ed4fcf8",
      "version": 1,
      "size": 135,
      "vsize": 135,
      "weight": 540,
      "locktime": 0,
      "vin": [
        {
          "coinbase": "04ffff001d023404",
          "sequence": 4294967295
        }
      ],
      "vout": [
        {
          "value": 50.0,
          "n": 0,
          "scriptPubKey": {
            "asm": "0454432dcca92dd8268371563eb91603bce2cab1eb61ac285939d4885b3754ad39dd956f9758fa6f727b2251854e3e20f7785284b61dfc674395ab1521fdbb4a39 OP_CHECKSIG",
            "desc": "pk(0454432dcca92dd8268371563eb91603bce2cab1eb61ac285939d4885b3754ad39dd956f9758fa6f727b2251854e3e20f7785284b61dfc674395ab1521fdbb4a39)#3xhx7j77",
            "hex": "410454432dcca92dd8268371563eb91603bce2cab1eb61ac285939d4885b3754ad39dd956f9758fa6f727b2251854e3e20f7785284b61dfc674395ab1521fdbb4a39ac",
            "type": "pubkey"
          }
        }
      ],
      "hex": "01000000010000000000000000000000000000000000000000000000000000000000000000ffffffff0804ffff001d023404ffffffff0100f2052a0100000043410454432dcca92dd8268371563eb91603bce2cab1eb61ac285939d4885b3754ad39dd956f9758fa6f727b2251854e3e20f7785284b61dfc674395ab1521fdbb4a39ac00000000"
    }
  ]
}