{
  "hash": "00000000a639917e11de9c36aa5d2e5f3352c2fcef06729ac9540b84837c59a1",
  "confirmations": 52035,
  "height": 130,
  "version": 1,
  "versionHex": "00000001",
  "merkleroot": "9200bf5bccb0e27e20939be38d83e4b1d337e219e0e254a4d0c57a1a9973ba36",
  "time": 1231684125,
  "mediantime": 1231679255,
  "nonce": 4112489989,
  "bits": "1d00ffff",
  "difficulty": 1,
  "chainwork": "0000000000000000000000000000000000000000000000000000008300830083",
  "nTx": 1,
  "previousblockhash": "000000001884b26b0a2482be00f3dc03131154430462453c7193b6079daaf0eb",
  "nextblockhash": "00000000c022945291aca0d76b730dccbb0161ac83fa86feaea192d5c70cce67",
  "strippedsize": 215,
  "size": 215,
  "weight": 860,
  "tx": [
    {
      "txid": "9200bf5bccb0e27e20939be38d83e4b1d337e219e0e254a4d0c57a1a9973ba36",
      "hash": "9200bf5bccb0e27e20939be38d83e4b1d337e219e0e254a4d0c57a1a9973ba36",
      "version": 1,
      "size": 134,
      "vsize": 134,
      "weight": 536,
      "locktime": 0,
      "vin": [
        {
          "coinbase": "04ffff001d0115",
          "sequence": 4294967295
        }
      ],
      "vout": [
        {
          "value": 50.0,
          "n": 0,
          "scriptPubKey": {
            "asm": "046a69b845c9932aec279e8be18bb5a634f281e403e5a4d2acae4bafd91a50d07324fa27e8d514dddc94d7a4c2cd93514a928390cc260ff6b834190077d09879ec OP_CHECKSIG",
            "desc": "pk(046a69b845c9932aec279e8be18bb5a634f281e403e5a4d2acae4bafd91a50d07324fa27e8d514dddc94d7a4c2cd93514a928390cc260ff6b834190077d09879ec)#df2ss42u",
            "hex": "41046a69b845c9932aec279e8be18bb5a634f281e403e5a4d2acae4bafd91a50d07324fa27e8d514dddc94d7a4c2cd93514a928390cc260ff6b834190077d09879ecac",
            "type": "pubkey"
          }
        }
      ],
      "hex": "01000000010000000000000000000000000000000000000000000000000000000000000000ffffffff0704ffff001d0115ffffffff0100f2052a010000004341046a69b845c9932aec279e8be18bb5a634f281e403e5a4d2acae4bafd91a50d07324fa27e8d514dddc94d7a4c2cd93514a928390cc260ff6b834190077d09879ecac00000000"
    }
  ]
}