{
  "hash": "000000001b2e09818f9532fd3cc10ab377057d49ad36fd41c3e8534476c08f60",
  "confirmations": 43603,
  "height": 9495,
  "version": 1,
  "versionHex": "00000001",
  "merkleroot": "705f6da898bf085004d176ccf4f45c1a7de2cea19ce438ea813164cc98e8cea6",
  "time": 1238624646,
  "mediantime": 1238622163,
  "nonce": 4441321,
  "bits": "1d00ffff",
  "difficulty": 1,
  "chainwork": "0000000000000000000000000000000000000000000000000000251825182518",
  "nTx": 1,
  "previousblockhash": "00000000f5db965f7137dc1776a87c9846b54c9851f955e69ae0234bfb996496",
  "nextblockhash": "00000000796bb0f3d5bed9f22a473ea57366647ed904a0f212c29d21e29b49b1",
  "strippedsize": 215,
  "size": 215,
  "weight": 860,
  "tx": [
    {
      "txid": "705f6da898bf085004d176ccf4f45c1a7de2cea19ce438ea813164cc98e8cea6",
      "hash": "705f6da898bf085004d176ccf4f45c1a7de2cea19ce438ea813164cc98e8cea6",
      "version": 1,
      "size": 134,
      "vsize": 134,
      "weight": 536,
      "locktime": 0,
      "vin": [
        {
          "coinbase": "04ffff001d014d",
          "sequence": 4294967295
        }
      ],
      "vout": [
        {
          "value": 50.0,
          "n": 0,
          "scriptPubKey": {
            "asm": "0459a8a24d108495dfe3551207c6b92d2340478708595f678b1b4d21a29cc0be3bb5655c75d40f86234b51cc847b53e8ef749bed7438f69b014ddfc3c371a5af46 OP_CHECKSIG",
            "desc": "pk(0459a8a24d108495dfe3551207c6b92d2340478708595f678b1b4d21a29cc0be3bb5655c75d40f86234b51cc847b53e8ef749bed7438f69b014ddfc3c371a5af46)#4vmcwhd9",
            "hex": "410459a8a24d108495dfe3551207c6b92d2340478708595f678b1b4d21a29cc0be3bb5655c75d40f86234b51cc847b53e8ef749bed7438f69b014ddfc3c371a5af46ac",
            "type": "pubkey"
          }
        }
      ],
      "hex": "01000000010000000000000000000000000000000000000000000000000000000000000000ffffffff0704ffff001d014dffffffff0100f2052a0100000043410459a8a24d108495dfe3551207c6b92d2340478708595f678b1b4d21a29cc0be3bb5655c75d40f86234b51cc847b53e8ef749bed7438f69b014ddfc3c371a5af46ac00000000"
    }
  ]
}