{
  "hash": "000000008447de49d0f9ba366fc7e7e8b09699af48bab369ba849220fcf4ffca",
  "confirmations": 49662,
  "height": 3436,
  "version": 1,
  "versionHex": "00000001",
  "merkleroot": "0b4097cf608f66a580262e1b01e4cdfeb5b90123c53ec9adb876e881ea4ca4f2",
  "time": 1234063155,
  "mediantime": 1234059037,
  "nonce": 858735139,
  "bits": "1d00ffff",
  "difficulty": 1,
  "chainwork": "00000000000000000000000000000000000000000000000000000d6d0d6d0d6d",
  "nTx": 1,
  "previousblockhash": "0000000037bbf8540f82bd8ea365f9c454998b2ca2111d0d6d40abb5a92f6b1f",
  "nextblockhash": "000000005c0011e37b2350ab6599e62b52663b38f26f85292a556c2923253020",
  "strippedsize": 216,
  "size": 216,
  "weight": 864,
  "tx": [
    {
      "txid": "0b4097cf608f66a580262e1b01e4cdfeb5b90123c53ec9adb876e881ea4ca4f2",
      "hash": "0b4097cf608f66a580262e1b01e4cdfeb5b90123c53ec9adb876e881ea4ca4f2",
      "version": 1,
      "size": 135,
      "vsize": 135,
      "weight": 540,
      "locktime": 0,
      "vin": [
        {
          "coinbase": "04ffff001d021c06",
          "sequence": 4294967295
        }
      ],
      "vout": [
        {
          "value": 50.0,
          "n": 0,
          "scriptPubKey": {
            "asm": "0422f277547582c2a0ca28ecbc8ff458967987f97283445ab815f7e6f5fb5937f2af2c5f1770304a461e462d1af9059af7f0fb3454beab8efbd86913c84c2e1215 OP_CHECKSIG",
            "desc": "pk(0422f277547582c2a0ca28ecbc8ff458967987f97283445ab815f7e6f5fb5937f2af2c5f1770304a461e462d1af9059af7f0fb3454beab8efbd86913c84c2e1215)#h6ar64ng",
            "hex": "410422f277547582c2a0ca28ecbc8ff458967987f97283445ab815f7e6f5fb5937f2af2c5f1770304a461e462d1af9059af7f0fb3454beab8efbd86913c84c2e1215ac",
            "type": "pubkey"
          }
        }
      ],
      "hex": "01000000010000000000000000000000000000000000000000000000000000000000000000ffffffff0804ffff001d021c06ffffffff0100f2052a0100000043410422f277547582c2a0ca28ecbc8ff458967987f97283445ab815f7e6f5fb5937f2af2c5f1770304a461e462d1af9059af7f0fb3454beab8efbd86913c84c2e1215ac00000000"
    }
  ]
}