{
  "hash": "000000002e9d7d4da21c0f03c168500cb0f1273dad7d7adfbfa7409a4323fe43",
  "confirmations": 49373,
  "height": 3725,
  "version": 1,
  "versionHex": "00000001",
  "merkleroot": "d19787e22ab6b35bc62de6b0f96b73e07d3052caca6c8010600d0c12fc1e3f24",
  "time": 1234251356,
  "mediantime": 1234247138,
  "nonce": 191317303,
  "bits": "1d00ffff",
  "difficulty": 1,
  "chainwork": "00000000000000000000000000000000000000000000000000000e8e0e8e0e8e",
  "nTx": 1,
  "previousblockhash": "000000003e944bca9bbe8438a6dfbf3c874cb1d71c9478d23685cef48b584ce1",
  "nextblockhash": "000000003a83e8631edb1a7ebc0530e2991b8acd0fbfc7339e90ae84464df978",
  "strippedsize": 215,
  "size": 215,
  "weight": 860,
  "tx": [
    {
      "txid": "d19787e22ab6b35bc62de6b0f96b73e07d3052caca6c8010600d0c12fc1e3f24",
      "hash": "d19787e22ab6b35bc62de6b0f96b73e07d3052caca6c8010600d0c12fc1e3f24",
      "version": 1,
      "size": 134,
      "vsize": 134,
      "weight": 536,
      "locktime": 0,
      "vin": [
        {
          "coinbase": "04ffff001d012e",
          "sequence": 4294967295
        }
      ],
      "vout": [
        {
          "value": 50.0,
          "n": 0,
          "scriptPubKey": {
            "asm": "048f085add87b3ad69b9636c364dc3cf9583f8e30795a90e080e2f08744fc8ee6a6fd54f0f1cc6dc0f6c7227bace7cdc0fe932621385d625ba4ee979d5541a6440 OP_CHECKSIG",
            "desc": "pk(048f085add87b3ad69b9636c364dc3cf9583f8e30795a90e080e2f08744fc8ee6a6fd54f0f1cc6dc0f6c7227bace7cdc0fe932621385d625ba4ee979d5541a6440)#p4jh7ju5",
            "hex": "41048f085add87b3ad69b9636c364dc3cf9583f8e30795a90e080e2f08744fc8ee6a6fd54f0f1cc6dc0f6c7227bace7cdc0fe932621385d625ba4ee979d5541a6440ac",
            "type": "pubkey"
          }
        }
      ],
      "hex": "01000000010000000000000000000000000000000000000000000000000000000000000000ffffffff0704ffff001d012effffffff0100f2052a010000004341048f085add87b3ad69b9636c364dc3cf9583f8e30795a90e080e2f08744fc8ee6a6fd54f0f1cc6dc0f6c7227bace7cdc0fe932621385d625ba4ee979d5541a6440ac00000000"
    }
  ]
}