{
  "hash": "00000000cf441bf382cfcee46c9521425a1e46af5791d5a18a7bf51e422049d8",
  "confirmations": 43648,
  "height": 9450,
  "version": 1,
  "versionHex": "00000001",
  "merkleroot": "fb10cbcb64b23126d76d6e6076751d34bd51196ee2a983a65831adda0cd5aaa7",
  "time": 1238592164,
  "mediantime": 1238587918,
  "nonce": 2040914219,
  "bits": "1d00ffff",
  "difficulty": 1,
  "chainwork": "000000000000000000000000000000000000000000000000000024eb24eb24eb",
  "nTx": 1,
  "previousblockhash": "000000003861da874b0590b3bd88b8caffa9a8d8edefa0571a87e9afdcd7d3a0",
  "nextblockhash": "000000001c39affddfdda1c130d9d3ec2f70ed98c5304aec20982f642a6dc4ee",
  "strippedsize": 216,
  "size": 216,
  "weight": 864,
  "tx": [
    {
      "txid": "fb10cbcb64b23126d76d6e6076751d34bd51196ee2a983a65831adda0cd5aaa7",
      "hash": "fb10cbcb64b23126d76d6e6076751d34bd51196ee2a983a65831adda0cd5aaa7",
      "version": 1,
      "size": 135,
      "vsize": 135,
      "weight": 540,
      "locktime": 0,
      "vin": [
        {
          "coinbase": "04ffff001d029404",
          "sequence": 4294967295
        }
      ],
      "vout": [
        {
          "value": 50.0,
          "n": 0,
          "scriptPubKey": {
            "asm": "04d9482f5aa56b6be11d2cf1440f703ffcbee6ae4526203e2f8f0b4c80dad646f0cc7cf34ae3b8556b0d432e89c74cf506b96837fcde60c684fdddafa4cc651123 OP_CHECKSIG",
            "desc": "pk(04d9482f5aa56b6be11d2cf1440f703ffcbee6ae4526203e2f8f0b4c80dad646f0cc7cf34ae3b8556b0d432e89c74cf506b96837fcde60c684fdddafa4cc651123)#26xvzx02",
            "hex": "4104d9482f5aa56b6be11d2cf1440f703ffcbee6ae4526203e2f8f0b4c80dad646f0cc7cf34ae3b8556b0d432e89c74cf506b96837fcde60c684fdddafa4cc651123ac",
            "type": "pubkey"
          }
        }
      ],
      "hex": "01000000010000000000000000000000000000000000000000000000000000000000000000ffffffff0804ffff001d029404ffffffff0100f2052a01000000434104d9482f5aa56b6be11d2cf1440f703ffcbee6ae4526203e2f8f0b4c80dad646f0cc7cf34ae3b8556b0d432e89c74cf506b96837fcde60c684fdddafa4cc651123ac00000000"
    }
  ]
}