{
  "hash": "00000000a82a81f206e2bee2fc10dfcc107ad1a56312e0ebe94cffc1d05e7def",
  "confirmations": 52177,
  "height": 384,
  "version": 1,
  "versionHex": "00000001",
  "merkleroot": "2e3b0de1b9a3aa0079751ef19453acfe929805ac18a5b42621186c6b5312e877",
  "time": 1231890178,
  "mediantime": 1231886424,
  "nonce": 2018936869,
  "bits": "1d00ffff",
  "difficulty": 1,
  "chainwork": "0000000000000000000000000000000000000000000000000000018101810181",
  "nTx": 1,
  "previousblockhash": "000000002f10da7a6a0c302a3a800722764a863e32fa1730cafacce35cb023b8",
  "nextblockhash": "00000000cdaf0290cbd8caac684c2cb2bb32b8153b53c074df8e366ceb647da6",
  "strippedsize": 216,
  "size": 216,
  "weight": 864,
  "tx": [
    {
      "txid": "2e3b0de1b9a3aa0079751ef19453acfe929805ac18a5b42621186c6b5312e877",
      "hash": "2e3b0de1b9a3aa0079751ef19453acfe929805ac18a5b42621186c6b5312e877",
      "version": 1,
      "size": 135,
      "vsize": 135,
      "weight": 540,
      "locktime": 0,
      "vin": [
        {
          "coinbase": "04ffff001d022302",
          "sequence": 4294967295
        }
      ],
      "vout": [
        {
          "value": 50.0,
          "n": 0,
          "scriptPubKey": {
            "asm": "04f58719b6943bf4afb0860e40b856fd4a61b56a0f17c4bcde69b9eb9f8183c0cdeefb325fe800562b458c6211556109a63fe3addf12a1adae60f399b2a5715bb9 OP_CHECKSIG",
            "desc": "pk(04f58719b6943bf4afb0860e40b856fd4a61b56a0f17c4bcde69b9eb9f8183c0cdeefb325fe800562b458c6211556109a63fe3addf12a1adae60f399b2a5715bb9)#qf0vsyzy",
            "hex": "4104f58719b6943bf4afb0860e40b856fd4a61b56a0f17c4bcde69b9eb9f8183c0cdeefb325fe800562b458c6211556109a63fe3addf12a1adae60f399b2a5715bb9ac",
            "type": "pubkey"
          }
        }
      ],
      "hex": "01000000010000000000000000000000000000000000000000000000000000000000000000ffffffff0804ffff001d022302ffffffff0100f2052a01000000434104f58719b6943bf4afb0860e40b856fd4a61b56a0f17c4bcde69b9eb9f8183c0cdeefb325fe800562b458c6211556109a63fe3addf12a1adae60f399b2a5715bb9ac00000000"
    }
  ]
}