{
  "hash": "000000006714b9228d28fec96bff6f515ad2a7e5749a0d05976c9f7636bffaee",
  "confirmations": 43937,
  "height": 9161,
  "version": 1,
  "versionHex": "00000001",
  "merkleroot": "dec705002f2e5e2b58507197ab8419cf4056762ae0fa412aba7bddbec444203a",
  "time": 1238372121,
  "mediantime": 1238369661,
  "nonce": 3416391680,
  "bits": "1d00ffff",
  "difficulty": 1,
  "chainwork": "000000000000000000000000000000000000000000000000000023ca23ca23ca",
  "nTx": 1,
  "previousblockhash": "00000000acd2ef888a5ffac36d379c510bcb6ceb522bceb36c199d1b0fe7589e",
  "nextblockhash": "0000000013c1c955d8d14f7900f038967ed33183fb6dcd951e7c25447500e535",
  "strippedsize": 216,
  "size": 216,
  "weight": 864,
  "tx": [
    {
      "txid": "dec705002f2e5e2b58507197ab8419cf4056762ae0fa412aba7bddbec444203a",
      "hash": "dec705002f2e5e2b58507197ab8419cf4056762ae0fa412aba7bddbec444203a",
      "version": 1,
      "size": 135,
      "vsize": 135,
      "weight": 540,
      "locktime": 0,
      "vin": [
        {
          "coinbase": "04ffff001d028b09",
          "sequence": 4294967295
        }
      ],
      "vout": [
        {
          "value": 50.0,
          "n": 0,
          "scriptPubKey": {
            "asm": "04e835b08222ab88e5ae4d90a852d38acc4f547e6572fafcdd79d88130c2fa15311011ad6a68278d1996655677a6c80999ca1503047a292972ba7d4123deaec1be OP_CHECKSIG",
            "desc": "pk(04e835b08222ab88e5ae4d90a852d38acc4f547e6572fafcdd79d88130c2fa15311011ad6a68278d1996655677a6c80999ca1503047a292972ba7d4123deaec1be)#mz6qs76f",
            "hex": "4104e835b08222ab88e5ae4d90a852d38acc4f547e6572fafcdd79d88130c2fa15311011ad6a68278d1996655677a6c80999ca1503047a292972ba7d4123deaec1beac",
            "type": "pubkey"
          }
        }
      ],
      "hex": "01000000010000000000000000000000000000000000000000000000000000000000000000ffffffff0804ffff001d028b09ffffffff0100f2052a01000000434104e835b08222ab88e5ae4d90a852d38acc4f547e6572fafcdd79d88130c2fa15311011ad6a68278d1996655677a6c80999ca1503047a292972ba7d4123deaec1beac00000000"
    }
  ]
}