{
  "hash": "00000000ac6b33792b859763d4324896e68a3c3c63fd7fe1c9c9744a37e0dd9e",
  "confirmations": 45212,
  "height": 7886,
  "version": 1,
  "versionHex": "00000001",
  "merkleroot": "a502d418d19fc60be660aec55e3c45966e2f013dbb804986a9f12d91e1b468d4",
  "time": 1237381737,
  "mediantime": 1237378208,
  "nonce": 166734065,
  "bits": "1d00ffff",
  "difficulty": 1,
  "chainwork": "00000000000000000000000000000000000000000000000000001ecf1ecf1ecf",
  "nTx": 1,
  "previousblockhash": "00000000d38e48295d524d9e7fb073069dd1b59b4a209c681814150c9f7265e1",
  "nextblockhash": "00000000f8006e255ca799402a87be613573d181a450a42ddd6fa2ad2d56afcc",
  "strippedsize": 216,
  "size": 216,
  "weight": 864,
  "tx": [
    {
      "txid": "a502d418d19fc60be660aec55e3c45966e2f013dbb804986a9f12d91e1b468d4",
      "hash": "a502d418d19fc60be660aec55e3c45966e2f013dbb804986a9f12d91e1b468d4",
      "version": 1,
      "size": 135,
      "vsize": 135,
      "weight": 540,
      "locktime": 0,
      "vin": [
        {
          "coinbase": "04ffff001d02dd00",
          "sequence": 4294967295
        }
      ],
      "vout": [
        {
          "value": 50.0,
          "n": 0,
          "scriptPubKey": {
            "asm": "04e03485d1a0e08e92c4bebff3c5ab4b1d2c9d8b983fc2153089b4965c2d756384a2b29b883aca77da33444be0c7d24e7f5b225e9367387ecbb8be5936caee7313 OP_CHECKSIG",
            "desc": "pk(04e03485d1a0e08e92c4bebff3c5ab4b1d2c9d8b983fc2153089b4965c2d756384a2b29b883aca77da33444be0c7d24e7f5b225e9367387ecbb8be5936caee7313)#99535lzj",
            "hex": "4104e03485d1a0e08e92c4bebff3c5ab4b1d2c9d8b983fc2153089b4965c2d756384a2b29b883aca77da33444be0c7d24e7f5b225e9367387ecbb8be5936caee7313ac",
            "type": "pubkey"
          }
        }
      ],
      "hex": "01000000010000000000000000000000000000000000000000000000000000000000000000ffffffff0804ffff001d02dd00ffffffff0100f2052a01000000434104e03485d1a0e08e92c4bebff3c5ab4b1d2c9d8b983fc2153089b4965c2d756384a2b29b883aca77da33444be0c7d24e7f5b225e9367387ecbb8be5936caee7313ac00000000"
    }
  ]
}