{
  "hash": "00000000c4d23fc94f3939e26f249fee98ce464d38415a9299606399dce8e923",
  "confirmations": 47417,
  "height": 5681,
  "version": 1,
  "versionHex": "00000001",
  "merkleroot": "8e87c12bce7afd18255e9deb9b689dbbb9b6db4bfebf619e29aafccd7d162113",
  "time": 1235674521,
  "mediantime": 1235672295,
  "nonce": 1841701148,
  "bits": "1d00ffff",
  "difficulty": 1,
  "chainwork": "0000000000000000000000000000000000000000000000000000163216321632",
  "nTx": 1,
  "previousblockhash": "00000000f10cbb89e740b80162df1f679def8d249371d46e6ddc671b63d360de",
  "nextblockhash": "00000000aab648cb52d04762cb733b4cce193f960abdc1e6d888e2f05d6440a7",
  "strippedsize": 216,
  "size": 216,
  "weight": 864,
  "tx": [
    {
      "txid": "8e87c12bce7afd18255e9deb9b689dbbb9b6db4bfebf619e29aafccd7d162113",
      "hash": "8e87c12bce7afd18255e9deb9b689dbbb9b6db4bfebf619e29aafccd7d162113",
      "version": 1,
      "size": 135,
      "vsize": 135,
      "weight": 540,
      "locktime": 0,
      "vin": [
        {
          "coinbase": "04ffff001d022109",
          "sequence": 4294967295
        }
      ],
      "vout": [
        {
          "value": 50.0,
          "n": 0,
          "scriptPubKey": {
            "asm": "049ea77c4917ddb7d39825b8422ed58103b04f20b05ea14ccff75d092175d74d6f8b37071a5847f1cfd6b3c9eb0c5a4251ae4670bb12f69faf4e758b9a4d481cd7 OP_CHECKSIG",
            "desc": "pk(049ea77c4917ddb7d39825b8422ed58103b04f20b05ea14ccff75d092175d74d6f8b37071a5847f1cfd6b3c9eb0c5a4251ae4670bb12f69faf4e758b9a4d481cd7)#86mktcju",
            "hex": "41049ea77c4917ddb7d39825b8422ed58103b04f20b05ea14ccff75d092175d74d6f8b37071a5847f1cfd6b3c9eb0c5a4251ae4670bb12f69faf4e758b9a4d481cd7ac",
            "type": "pubkey"
          }
        }
      ],
      "hex": "01000000010000000000000000000000000000000000000000000000000000000000000000ffffffff0804ffff001d022109ffffffff0100f2052a010000004341049ea77c4917ddb7d39825b8422ed58103b04f20b05ea14ccff75d092175d74d6f8b37071a5847f1cfd6b3c9eb0c5a4251ae4670bb12f69faf4e758b9a4d481cd7ac00000000"
    }
  ]
}