{
  "hash": "0000000042c37bff3a0a89a0460b76b7e8fb9bca1ab626ababbdf9b5cc47929e",
  "confirmations": 51943,
  "height": 1155,
  "version": 1,
  "versionHex": "00000001",
  "merkleroot": "c461a1299da3873502e5addc605130c50af537118181dd728197f6be12dc2c20",
  "time": 1232463836,
  "mediantime": 1232459495,
  "nonce": 1129285924,
  "bits": "1d00ffff",
  "difficulty": 1,
  "chainwork": "0000000000000000000000000000000000000000000000000000048404840484",
  "nTx": 1,
  "previousblockhash": "00000000259e1bc251ed1341c5c905ac3497ba8cb8a6669cacf14fc396e02313",
  "nextblockhash": "00000000bec4948cf315910ff844cd28f553afac320755783ed0f2e2f0aa2382",
  "strippedsize": 216,
  "size": 216,
  "weight": 864,
  "tx": [
    {
      "txid": "c461a1299da3873502e5addc605130c50af537118181dd728197f6be12dc2c20",
      "hash": "c461a1299da3873502e5addc605130c50af537118181dd728197f6be12dc2c20",
      "version": 1,
      "size": 135,
      "vsize": 135,
      "weight": 540,
      "locktime": 0,
      "vin": [
        {
          "coinbase": "04ffff001d02d807",
          "sequence": 4294967295
        }
      ],
      "vout": [
        {
          "value": 50.0,
          "n": 0,
          "scriptPubKey": {
            "asm": "04c7f39d83545b0f4051e1b1929f08ab0217a75520e14c6a5a7c4128c7da2b6f934c1ca57bf660248fb71fa1646b8b04aaf619463e6e17d64ba7d69983af218710 OP_CHECKSIG",
            "desc": "pk(04c7f39d83545b0f4051e1b1929f08ab0217a75520e14c6a5a7c4128c7da2b6f934c1ca57bf660248fb71fa1646b8b04aaf619463e6e17d64ba7d69983af218710)#xgraded9",
            "hex": "4104c7f39d83545b0f4051e1b1929f08ab0217a75520e14c6a5a7c4128c7da2b6f934c1ca57bf660248fb71fa1646b8b04aaf619463e6e17d64ba7d69983af218710ac",
            "type": "pubkey"
          }
        }
      ],
      "hex": "01000000010000000000000000000000000000000000000000000000000000000000000000ffffffff0804ffff001d02d807ffffffff0100f2052a01000000434104c7f39d83545b0f4051e1b1929f08ab0217a75520e14c6a5a7c4128c7da2b6f934c1ca57bf660248fb71fa1646b8b04aaf619463e6e17d64ba7d69983af218710ac00000000"
    }
  ]
}