{
  "hash": "000000007606feb4a137da68d4c5d49c5f65ed0c8dd0a9445ac17cbc79eb2a4c",
  "confirmations": 49872,
  "height": 3226,
  "version": 1,
  "versionHex": "00000001",
  "merkleroot": "e8ce87c78643cad4cb9c181a21cf1bacc37ffe4907655b076c1ff6614ed9d5c3",
  "time": 1233918385,
  "mediantime": 1233916520,
  "nonce": 215731509,
  "bits": "1d00ffff",
  "difficulty": 1,
  "chainwork": "00000000000000000000000000000000000000000000000000000c9b0c9b0c9b",
  "nTx": 1,
  "previousblockhash": "0000000075f8e3f80475a02d12f734a947d99c8be55a7e884fd0a615982fcd63",
  "nextblockhash": "000000000e33b16c879b77e0b44b831345d744bcce5875665d80ad175dabd11f",
  "strippedsize": 216,
  "size": 216,
  "weight": 864,
  "tx": [
    {
      "txid": "e8ce87c78643cad4cb9c181a21cf1bacc37ffe4907655b076c1ff6614ed9d5c3",
      "hash": "e8ce87c78643cad4cb9c181a21cf1bacc37ffe4907655b076c1ff6614ed9d5c3",
      "version": 1,
      "size": 135,
      "vsize": 135,
      "weight": 540,
      "locktime": 0,
      "vin": [
        {
          "coinbase": "04ffff001d022605",
          "sequence": 4294967295
        }
      ],
      "vout": [
        {
          "value": 50.0,
          "n": 0,
          "scriptPubKey": {
            "asm": "0495b9aa014c814b884d705b84020f8b8c5dc0f69b3b01f88bfae9b35b8d8a388cf6b5306850fc5f7b029c3d7f9cbfb2a9f248eb20030b55e52739aecc813551ac OP_CHECKSIG",
            "desc": "pk(0495b9aa014c814b884d705b84020f8b8c5dc0f69b3b01f88bfae9b35b8d8a388cf6b5306850fc5f7b029c3d7f9cbfb2a9f248eb20030b55e52739aecc813551ac)#qtwe864x",
            "hex": "410495b9aa014c814b884d705b84020f8b8c5dc0f69b3b01f88bfae9b35b8d8a388cf6b5306850fc5f7b029c3d7f9cbfb2a9f248eb20030b55e52739aecc813551acac",
            "type": "pubkey"
          }
        }
      ],
      "hex": "01000000010000000000000000000000000000000000000000000000000000000000000000ffffffff0804ffff001d022605ffffffff0100f2052a0100000043410495b9aa014c814b884d705b84020f8b8c5dc0f69b3b01f88bfae9b35b8d8a388cf6b5306850fc5f7b029c3d7f9cbfb2a9f248eb20030b55e52739aecc813551acac00000000"
    }
  ]
}