{
  "hash": "00000000c953f01403a0cbe00542665cd32ada242efe97ecb3683e546fd353c7",
  "confirmations": 50226,
  "height": 2872,
  "version": 1,
  "versionHex": "00000001",
  "merkleroot": "d7a5891086b18093188ea80a7d19bb54bc02461c012cf249b32d3cdb9c0a064a",
  "time": 1233672495,
  "mediantime": 1233669680,
  "nonce": 58228010,
  "bits": "1d00ffff",
  "difficulty": 1,
  "chainwork": "00000000000000000000000000000000000000000000000000000b390b390b39",
  "nTx": 1,
  "previousblockhash": "000000009989f65f74bd9d5e812cba076c340474cc3a174472b1f4895ae36907",
  "nextblockhash": "00000000c9d078a1c9b44c8a052a6fc7b2cecc3d290c8133289a6edee1340e74",
  "strippedsize": 216,
  "size": 216,
  "weight": 864,
  "tx": [
    {
      "txid": "d7a5891086b18093188ea80a7d19bb54bc02461c012cf249b32d3cdb9c0a064a",
      "hash": "d7a5891086b18093188ea80a7d19bb54bc02461c012cf249b32d3cdb9c0a064a",
      "version": 1,
      "size": 135,
      "vsize": 135,
      "weight": 540,
      "locktime": 0,
      "vin": [
        {
          "coinbase": "04ffff001d02c103",
          "sequence": 4294967295
        }
      ],
      "vout": [
        {
          "value": 50.0,
          "n": 0,
          "scriptPubKey": {
            "asm": "04caeaeac6f101112eee8ec133c92b90cdc49d14552a9988392cdd43b0e81a26e715cdf5c8df7e7e78c67f9811b76f866cd3cb06e7dcbaeb6f061289747a3e5d98 OP_CHECKSIG",
            "desc": "pk(04caeaeac6f101112eee8ec133c92b90cdc49d14552a9988392cdd43b0e81a26e715cdf5c8df7e7e78c67f9811b76f866cd3cb06e7dcbaeb6f061289747a3e5d98)#dq5l3p2d",
            "hex": "4104caeaeac6f101112eee8ec133c92b90cdc49d14552a9988392cdd43b0e81a26e715cdf5c8df7e7e78c67f9811b76f866cd3cb06e7dcbaeb6f061289747a3e5d98ac",
            "type": "pubkey"
          }
        }
      ],
      "hex": "01000000010000000000000000000000000000000000000000000000000000000000000000ffffffff0804ffff001d02c103ffffffff0100f2052a01000000434104caeaeac6f101112eee8ec133c92b90cdc49d14552a9988392cdd43b0e81a26e715cdf5c8df7e7e78c67f9811b76f866cd3cb06e7dcbaeb6f061289747a3e5d98ac00000000"
    }
  ]
}