{
  "hash": "00000000e90ca9bd8807f5dbf163877b8841aa4b69be0b3988a1f8075db9af35",
  "confirmations": 44166,
  "height": 8932,
  "version": 1,
  "versionHex": "00000001",
  "merkleroot": "668cf710a5667b9bc95901a533bb0aa790b3640012119c7b159abefcd6ff3f2b",
  "time": 1238202951,
  "mediantime": 1238200285,
  "nonce": 699012,
  "bits": "1d00ffff",
  "difficulty": 1,
  "chainwork": "000000000000000000000000000000000000000000000000000022e522e522e5",
  "nTx": 1,
  "previousblockhash": "000000004c1c619de034b362b803027e8e0f2dafcab0ab6b8fc9913f59d9e8dc",
  "nextblockhash": "00000000e7c8a4559b4adcec6a6b80f638f6450ca61642d340a26d8600bb6140",
  "strippedsize": 216,
  "size": 216,
  "weight": 864,
  "tx": [
    {
      "txid": "668cf710a5667b9bc95901a533bb0aa790b3640012119c7b159abefcd6ff3f2b",
      "hash": "668cf710a5667b9bc95901a533bb0aa790b3640012119c7b159abefcd6ff3f2b",
      "version": 1,
      "size": 135,
      "vsize": 135,
      "weight": 540,
      "locktime": 0,
      "vin": [
        {
          "coinbase": "04ffff001d024807",
          "sequence": 4294967295
        }
      ],
      "vout": [
        {
          "value": 50.0,
          "n": 0,
          "scriptPubKey": {
            "asm": "043db11cab95edf0dc0494b23a79229eb7893c9941307ba76962036450dcbf244d27a79e0169adf9fa8ab6e906b33c2053edd268f26f57febf3def74096048ef79 OP_CHECKSIG",
            "desc": "pk(043db11cab95edf0dc0494b23a79229eb7893c9941307ba76962036450dcbf244d27a79e0169adf9fa8ab6e906b33c2053edd268f26f57febf3def74096048ef79)#agvmp8g5",
            "hex": "41043db11cab95edf0dc0494b23a79229eb7893c9941307ba76962036450dcbf244d27a79e0169adf9fa8ab6e906b33c2053edd268f26f57febf3def74096048ef79ac",
            "type": "pubkey"
          }
        }
      ],
      "hex": "01000000010000000000000000000000000000000000000000000000000000000000000000ffffffff0804ffff001d024807ffffffff0100f2052a010000004341043db11cab95edf0dc0494b23a79229eb7893c9941307ba76962036450dcbf244d27a79e0169adf9fa8ab6e906b33c2053edd268f26f57febf3def74096048ef79ac00000000"
    }
  ]
}