{
  "hash": "00000000663ebb1ec7628c45761296e2fd4a1d0efeb27b561695c25ebe0ae9d4",
  "confirmations": 50088,
  "height": 3010,
  "version": 1,
  "versionHex": "00000001",
  "merkleroot": "de3552a4fc38414b6681d1bbfa605b30a8a2d7992e8eca5689ee268e310ecc03",
  "time": 1233769134,
  "mediantime": 1233765972,
  "nonce": 58795200,
  "bits": "1d00ffff",
  "difficulty": 1,
  "chainwork": "00000000000000000000000000000000000000000000000000000bc30bc30bc3",
  "nTx": 1,
  "previousblockhash": "0000000060ca21bb10f560e97aba228ccf5be2b0bd9da7caba42d57ac9b47066",
  "nextblockhash": "00000000c9e9198636900eff14109b07f973871c12e78d11e8a7ba1bae64f05b",
  "strippedsize": 215,
  "size": 215,
  "weight": 860,
  "tx": [
    {
      "txid": "de3552a4fc38414b6681d1bbfa605b30a8a2d7992e8eca5689ee268e310ecc03",
      "hash": "de3552a4fc38414b6681d1bbfa605b30a8a2d7992e8eca5689ee268e310ecc03",
      "version": 1,
      "size": 134,
      "vsize": 134,
      "weight": 536,
      "locktime": 0,
      "vin": [
        {
          "coinbase": "04ffff001d0127",
          "sequence": 4294967295
        }
      ],
      "vout": [
        {
          "value": 50.0,
          "n": 0,
          "scriptPubKey": {
            "asm": "048cc843ce3aad090f5386f96cebae236c96c39c6abfe1b4c9357cd76f2812bc86348ab9ae457a364a6a8c76265363690e17d55d788529c526584f5817f89ef8f2 OP_CHECKSIG",
            "desc": "pk(048cc843ce3aad090f5386f96cebae236c96c39c6abfe1b4c9357cd76f2812bc86348ab9ae457a364a6a8c76265363690e17d55d788529c526584f5817f89ef8f2)#yfe8feu5",
            "hex": "41048cc843ce3aad090f5386f96cebae236c96c39c6abfe1b4c9357cd76f2812bc86348ab9ae457a364a6a8c76265363690e17d55d788529c526584f5817f89ef8f2ac",
            "type": "pubkey"
          }
        }
      ],
      "hex": "01000000010000000000000000000000000000000000000000000000000000000000000000ffffffff0704ffff001d0127ffffffff0100f2052a010000004341048cc843ce3aad090f5386f96cebae236c96c39c6abfe1b4c9357cd76f2812bc86348ab9ae457a364a6a8c76265363690e17d55d788529c526584f5817f89ef8f2ac00000000"
    }
  ]
}