{
  "hash": "00000000e7c8a4559b4adcec6a6b80f638f6450ca61642d340a26d8600bb6140",
  "confirmations": 44165,
  "height": 8933,
  "version": 1,
  "versionHex": "00000001",
  "merkleroot": "2bbd79f5ef987b9ebd7262a9eecf760970f45114ded1ced18f1ef1bfdba1c226",
  "time": 1238203873,
  "mediantime": 1238200299,
  "nonce": 624804130,
  "bits": "1d00ffff",
  "difficulty": 1,
  "chainwork": "000000000000000000000000000000000000000000000000000022e622e622e6",
  "nTx": 1,
  "previousblockhash": "00000000e90ca9bd8807f5dbf163877b8841aa4b69be0b3988a1f8075db9af35",
  "nextblockhash": "00000000b9738a7ee984bd3e48848e1ceb05f685dc78fe664c1f0cab5a106441",
  "strippedsize": 216,
  "size": 216,
  "weight": 864,
  "tx": [
    {
      "txid": "2bbd79f5ef987b9ebd7262a9eecf760970f45114ded1ced18f1ef1bfdba1c226",
      "hash": "2bbd79f5ef987b9ebd7262a9eecf760970f45114ded1ced18f1ef1bfdba1c226",
      "version": 1,
      "size": 135,
      "vsize": 135,
      "weight": 540,
      "locktime": 0,
      "vin": [
        {
          "coinbase": "04ffff001d023205",
          "sequence": 4294967295
        }
      ],
      "vout": [
        {
          "value": 50.0,
          "n": 0,
          "scriptPubKey": {
            "asm": "0472a695faf794b7fb0254af276bfc97890cba7dd5e8c4200b16e8709a218bc5111f8af6c83d59ae761289677bf2b976d4c48700607ecbd814a8b6adb4e881b20c OP_CHECKSIG",
            "desc": "pk(0472a695faf794b7fb0254af276bfc97890cba7dd5e8c4200b16e8709a218bc5111f8af6c83d59ae761289677bf2b976d4c48700607ecbd814a8b6adb4e881b20c)#999r5a49",
            "hex": "410472a695faf794b7fb0254af276bfc97890cba7dd5e8c4200b16e8709a218bc5111f8af6c83d59ae761289677bf2b976d4c48700607ecbd814a8b6adb4e881b20cac",
            "type": "pubkey"
          }
        }
      ],
      "hex": "01000000010000000000000000000000000000000000000000000000000000000000000000ffffffff0804ffff001d023205ffffffff0100f2052a0100000043410472a695faf794b7fb0254af276bfc97890cba7dd5e8c4200b16e8709a218bc5111f8af6c83d59ae761289677bf2b976d4c48700607ecbd814a8b6adb4e881b20cac00000000"
    }
  ]
}