{
  "hash": "000000004fb61ae8e99040c4e1e3b4d333dbe867f97f63ab4238cba80f59204a",
  "confirmations": 52244,
  "height": 494,
  "version": 1,
  "versionHex": "00000001",
  "merkleroot": "1ac8783028a63fa8b36ade0911bb0fb7655c268156c38a439cf1e8f6cfb2c585",
  "time": 1231963503,
  "mediantime": 1231962187,
  "nonce": 1933985841,
  "bits": "1d00ffff",
  "difficulty": 1,
  "chainwork": "000000000000000000000000000000000000000000000000000001ef01ef01ef",
  "nTx": 1,
  "previousblockhash": "0000000008884067dbe80128da09a16315bb208a69e9894287a3c9e0fb671f8b",
  "nextblockhash": "00000000e47349de5a0193abc5a2fe0be81cb1d1987e45ab85f3289d54cddc4d",
  "strippedsize": 216,
  "size": 216,
  "weight": 864,
  "tx": [
    {
      "txid": "1ac8783028a63fa8b36ade0911bb0fb7655c268156c38a439cf1e8f6cfb2c585",
      "hash": "1ac8783028a63fa8b36ade0911bb0fb7655c268156c38a439cf1e8f6cfb2c585",
      "version": 1,
      "size": 135,
      "vsize": 135,
      "weight": 540,
      "locktime": 0,
      "vin": [
        {
          "coinbase": "04ffff001d026004",
          "sequence": 4294967295
        }
      ],
      "vout": [
        {
          "value": 50.0,
          "n": 0,
          "scriptPubKey": {
            "asm": "04b161f265fbc99140b7cb5ab3fb682e9fae145e8b7c6609c017d12948455d7d5bfc91af26c32769a304b70efaa6fd537c7f11b9da3849baa895d5d6ad5db593a6 OP_CHECKSIG",
            "desc": "pk(04b161f265fbc99140b7cb5ab3fb682e9fae145e8b7c6609c017d12948455d7d5bfc91af26c32769a304b70efaa6fd537c7f11b9da3849baa895d5d6ad5db593a6)#6u9yag4u",
            "hex": "4104b161f265fbc99140b7cb5ab3fb682e9fae145e8b7c6609c017d12948455d7d5bfc91af26c32769a304b70efaa6fd537c7f11b9da3849baa895d5d6ad5db593a6ac",
            "type": "pubkey"
          }
        }
      ],
      "hex": "01000000010000000000000000000000000000000000000000000000000000000000000000ffffffff0804ffff001d026004ffffffff0100f2052a01000000434104b161f265fbc99140b7cb5ab3fb682e9fae145e8b7c6609c017d12948455d7d5bfc91af26c32769a304b70efaa6fd537c7f11b9da3849baa895d5d6ad5db593a6ac00000000"
    }
  ]
}