{
  "hash": "0000000090b3ceebaf2a03e2ed6e3044e3a436361579e94dab1d711bb560fe23",
  "confirmations": 43493,
  "height": 9605,
  "version": 1,
  "versionHex": "00000001",
  "merkleroot": "5dd74fd13a2565275b656b3aa3f311955b2a496c52b39eb81a69ea756e588225",
  "time": 1238705173,
  "mediantime": 1238700831,
  "nonce": 124449281,
  "bits": "1d00ffff",
  "difficulty": 1,
  "chainwork": "0000000000000000000000000000000000000000000000000000258625862586",
  "nTx": 1,
  "previousblockhash": "00000000a1042f523e813cb727f4a35553f2f7f8240a693a8b7ba078b3a40164",
  "nextblockhash": "00000000af7bf7fc346a50fd2614cd168ad7c1acd70c0ed7d725e440e64a0e2c",
  "strippedsize": 215,
  "size": 215,
  "weight": 860,
  "tx": [
    {
      "txid": "5dd74fd13a2565275b656b3aa3f311955b2a496c52b39eb81a69ea756e588225",
      "hash": "5dd74fd13a2565275b656b3aa3f311955b2a496c52b39eb81a69ea756e588225",
      "version": 1,
      "size": 134,
      "vsize": 134,
      "weight": 536,
      "locktime": 0,
      "vin": [
        {
          "coinbase": "04ffff001d0170",
          "sequence": 4294967295
        }
      ],
      "vout": [
        {
          "value": 50.0,
          "n": 0,
          "scriptPubKey": {
            "asm": "04da40e38c9323f7f2f03a8e42e6fd5796b095ddc476a89c4ffb72e382c1b8e870ac7b3e10fb9a24c70355b5cef39799bd8a8455739391ba1644475d6078345b22 OP_CHECKSIG",
            "desc": "pk(04da40e38c9323f7f2f03a8e42e6fd5796b095ddc476a89c4ffb72e382c1b8e870ac7b3e10fb9a24c70355b5cef39799bd8a8455739391ba1644475d6078345b22)#6rkrlpwg",
            "hex": "4104da40e38c9323f7f2f03a8e42e6fd5796b095ddc476a89c4ffb72e382c1b8e870ac7b3e10fb9a24c70355b5cef39799bd8a8455739391ba1644475d6078345b22ac",
            "type": "pubkey"
          }
        }
      ],
      "hex": "01000000010000000000000000000000000000000000000000000000000000000000000000ffffffff0704ffff001d0170ffffffff0100f2052a01000000434104da40e38c9323f7f2f03a8e42e6fd5796b095ddc476a89c4ffb72e382c1b8e870ac7b3e10fb9a24c70355b5cef39799bd8a8455739391ba1644475d6078345b22ac00000000"
    }
  ]
}