{
  "hash": "0000000095c81ef621ffd5b8c7fbea7608b672ac81fd5f03c43ab3a7b27353b1",
  "confirmations": 52167,
  "height": 462,
  "version": 1,
  "versionHex": "00000001",
  "merkleroot": "060c1c42cd25e8e929d032236478d864a9245e19bed417c0a839b4ae831b83f7",
  "time": 1231944234,
  "mediantime": 1231942187,
  "nonce": 344845355,
  "bits": "1d00ffff",
  "difficulty": 1,
  "chainwork": "000000000000000000000000000000000000000000000000000001cf01cf01cf",
  "nTx": 1,
  "previousblockhash": "000000002082739d0e82596fb69243b1ca9db66db623d3fdcf283f18486cdbaf",
  "nextblockhash": "000000007796883846053d0be8621d0fe1d88987da1d627a1cba650cd4efebfc",
  "strippedsize": 216,
  "size": 216,
  "weight": 864,
  "tx": [
    {
      "txid": "060c1c42cd25e8e929d032236478d864a9245e19bed417c0a839b4ae831b83f7",
      "hash": "060c1c42cd25e8e929d032236478d864a9245e19bed417c0a839b4ae831b83f7",
      "version": 1,
      "size": 135,
      "vsize": 135,
      "weight": 540,
      "locktime": 0,
      "vin": [
        {
          "coinbase": "04ffff001d02d603",
          "sequence": 4294967295
        }
      ],
      "vout": [
        {
          "value": 50.0,
          "n": 0,
          "scriptPubKey": {
            "asm": "04bc242debe6e91f7d7873b64fd5e0bca45a9b0d98c79a901c5f2684cb24f1c62fa81fbbc851716de25ddd65aaeab67a5243513459401a310a0d2f3cecc26f90f5 OP_CHECKSIG",
            "desc": "pk(04bc242debe6e91f7d7873b64fd5e0bca45a9b0d98c79a901c5f2684cb24f1c62fa81fbbc851716de25ddd65aaeab67a5243513459401a310a0d2f3cecc26f90f5)#q2f4cm74",
            "hex": "4104bc242debe6e91f7d7873b64fd5e0bca45a9b0d98c79a901c5f2684cb24f1c62fa81fbbc851716de25ddd65aaeab67a5243513459401a310a0d2f3cecc26f90f5ac",
            "type": "pubkey"
          }
        }
      ],
      "hex": "01000000010000000000000000000000000000000000000000000000000000000000000000ffffffff0804ffff001d02d603ffffffff0100f2052a01000000434104bc242debe6e91f7d7873b64fd5e0bca45a9b0d98c79a901c5f2684cb24f1c62fa81fbbc851716de25ddd65aaeab67a5243513459401a310a0d2f3cecc26f90f5ac00000000"
    }
  ]
}