{
  "hash": "00000000917055ca56f73122581850ffaaab9fc2d0276e1dffbc02d6249f87ae",
  "confirmations": 44288,
  "height": 8810,
  "version": 1,
  "versionHex": "00000001",
  "merkleroot": "720b62bde7d6510c9b12984c0aecc499378c0ca25a57390f286b0078c53cf38f",
  "time": 1238107107,
  "mediantime": 1238103928,
  "nonce": 3817847349,
  "bits": "1d00ffff",
  "difficulty": 1,
  "chainwork": "0000000000000000000000000000000000000000000000000000226b226b226b",
  "nTx": 1,
  "previousblockhash": "0000000097901cf10df46a15283576c23c20e28456949ab9d0131b14e75bf6b2",
  "nextblockhash": "0000000014c10689f16de16ce0afe82248be5fb5c22544de41ac6e6e550f8051",
  "strippedsize": 216,
  "size": 216,
  "weight": 864,
  "tx": [
    {
      "txid": "720b62bde7d6510c9b12984c0aecc499378c0ca25a57390f286b0078c53cf38f",
      "hash": "720b62bde7d6510c9b12984c0aecc499378c0ca25a57390f286b0078c53cf38f",
      "version": 1,
      "size": 135,
      "vsize": 135,
      "weight": 540,
      "locktime": 0,
      "vin": [
        {
          "coinbase": "04ffff001d02ec02",
          "sequence": 4294967295
        }
      ],
      "vout": [
        {
          "value": 50.0,
          "n": 0,
          "scriptPubKey": {
            "asm": "0429d8204f8609294965a586779c2baa5a6f49f0fd7141cae42a22cddfa20a14c4854ccda722f48840fc62e14639ba72be50a78d2f18af3d122c0d092bd95c4466 OP_CHECKSIG",
            "desc": "pk(0429d8204f8609294965a586779c2baa5a6f49f0fd7141cae42a22cddfa20a14c4854ccda722f48840fc62e14639ba72be50a78d2f18af3d122c0d092bd95c4466)#jptgcdda",
            "hex": "410429d8204f8609294965a586779c2baa5a6f49f0fd7141cae42a22cddfa20a14c4854ccda722f48840fc62e14639ba72be50a78d2f18af3d122c0d092bd95c4466ac",
            "type": "pubkey"
          }
        }
      ],
      "hex": "01000000010000000000000000000000000000000000000000000000000000000000000000ffffffff0804ffff001d02ec02ffffffff0100f2052a0100000043410429d8204f8609294965a586779c2baa5a6f49f0fd7141cae42a22cddfa20a14c4854ccda722f48840fc62e14639ba72be50a78d2f18af3d122c0d092bd95c4466ac00000000"
    }
  ]
}