{
  "hash": "000000008140175d3b9fdb901d50138c560afa3272403a575eec7d17bea7f054",
  "confirmations": 44080,
  "height": 9018,
  "version": 1,
  "versionHex": "00000001",
  "merkleroot": "7d854e81607442d9c2a9653192dba91328178fb07bafc3f68b71ff7108636507",
  "time": 1238264808,
  "mediantime": 1238260454,
  "nonce": 2119172911,
  "bits": "1d00ffff",
  "difficulty": 1,
  "chainwork": "0000000000000000000000000000000000000000000000000000233b233b233b",
  "nTx": 1,
  "previousblockhash": "00000000e9572df5611fe04e290d9cfecc23794f1200c59efc9330312a324833",
  "nextblockhash": "00000000dd4a55f4f2a1375e4d0f712335b8ed7d0704927495c0e75c26ef7604",
  "strippedsize": 216,
  "size": 216,
  "weight": 864,
  "tx": [
    {
      "txid": "7d854e81607442d9c2a9653192dba91328178fb07bafc3f68b71ff7108636507",
      "hash": "7d854e81607442d9c2a9653192dba91328178fb07bafc3f68b71ff7108636507",
      "version": 1,
      "size": 135,
      "vsize": 135,
      "weight": 540,
      "locktime": 0,
      "vin": [
        {
          "coinbase": "04ffff001d02a706",
          "sequence": 4294967295
        }
      ],
      "vout": [
        {
          "value": 50.0,
          "n": 0,
          "scriptPubKey": {
            "asm": "04e54874a08c4a5d536af4caac4a9a5f079bc20cdd36f679ccdc69213821372f98e2cc93b72b664a6e2fa1a7837f3edbb725eb4afbed022c79cfa741660e72d496 OP_CHECKSIG",
            "desc": "pk(04e54874a08c4a5d536af4caac4a9a5f079bc20cdd36f679ccdc69213821372f98e2cc93b72b664a6e2fa1a7837f3edbb725eb4afbed022c79cfa741660e72d496)#ut7upr94",
            "hex": "4104e54874a08c4a5d536af4caac4a9a5f079bc20cdd36f679ccdc69213821372f98e2cc93b72b664a6e2fa1a7837f3edbb725eb4afbed022c79cfa741660e72d496ac",
            "type": "pubkey"
          }
        }
      ],
      "hex": "01000000010000000000000000000000000000000000000000000000000000000000000000ffffffff0804ffff001d02a706ffffffff0100f2052a01000000434104e54874a08c4a5d536af4caac4a9a5f079bc20cdd36f679ccdc69213821372f98e2cc93b72b664a6e2fa1a7837f3edbb725eb4afbed022c79cfa741660e72d496ac00000000"
    }
  ]
}