{
  "hash": "00000000b225bff1ddefbf7c5bdfc50b19aed87958532634dafa17dc62ed1556",
  "confirmations": 47121,
  "height": 5977,
  "version": 1,
  "versionHex": "00000001",
  "merkleroot": "c3f39018e21049c76a9963b1db8ea1836eabaf84d7debac1532619882387d35f",
  "time": 1235909597,
  "mediantime": 1235906033,
  "nonce": 3999609892,
  "bits": "1d00ffff",
  "difficulty": 1,
  "chainwork": "0000000000000000000000000000000000000000000000000000175a175a175a",
  "nTx": 1,
  "previousblockhash": "000000004426ab753a1b3200a81baea251f6914e2427668906dee1b8df015788",
  "nextblockhash": "0000000023a6db2eb5ebd4045692676a474871628fb1df3e54eb5871dfb79ef4",
  "strippedsize": 216,
  "size": 216,
  "weight": 864,
  "tx": [
    {
      "txid": "c3f39018e21049c76a9963b1db8ea1836eabaf84d7debac1532619882387d35f",
      "hash": "c3f39018e21049c76a9963b1db8ea1836eabaf84d7debac1532619882387d35f",
      "version": 1,
      "size": 135,
      "vsize": 135,
      "weight": 540,
      "locktime": 0,
      "vin": [
        {
          "coinbase": "04ffff001d027e04",
          "sequence": 4294967295
        }
      ],
      "vout": [
        {
          "value": 50.0,
          "n": 0,
          "scriptPubKey": {
            "asm": "043491286627b108accd741d8fa769316b04e3b17e8840e428e004c0297b4bc339645c66c2cbe7505238c05984e900e64b96222598ff1ce83409e6639722c7f59e OP_CHECKSIG",
            "desc": "pk(043491286627b108accd741d8fa769316b04e3b17e8840e428e004c0297b4bc339645c66c2cbe7505238c05984e900e64b96222598ff1ce83409e6639722c7f59e)#aexq6zpe",
            "hex": "41043491286627b108accd741d8fa769316b04e3b17e8840e428e004c0297b4bc339645c66c2cbe7505238c05984e900e64b96222598ff1ce83409e6639722c7f59eac",
            "type": "pubkey"
          }
        }
      ],
      "hex": "01000000010000000000000000000000000000000000000000000000000000000000000000ffffffff0804ffff001d027e04ffffffff0100f2052a010000004341043491286627b108accd741d8fa769316b04e3b17e8840e428e004c0297b4bc339645c66c2cbe7505238c05984e900e64b96222598ff1ce83409e6639722c7f59eac00000000"
    }
  ]
}