{
  "hash": "000000006182f684cdbe2dd5bc7b5b7dcd059c2ee1ae2c7b39659f2d44355e03",
  "confirmations": 45654,
  "height": 7444,
  "version": 1,
  "versionHex": "00000001",
  "merkleroot": "ddb12443af0453454e74078416da7948d837df7af4980a9f0214c46fcc0ff114",
  "time": 1237057527,
  "mediantime": 1237052326,
  "nonce": 3856762135,
  "bits": "1d00ffff",
  "difficulty": 1,
  "chainwork": "00000000000000000000000000000000000000000000000000001d151d151d15",
  "nTx": 1,
  "previousblockhash": "0000000054562c25534c2c8815706f6ec67b01e1ebfd15bd81352c0438e5b38a",
  "nextblockhash": "000000005401086bc69a6bd6d9b58b0de1ec274d1789ca42b359dd9897aa8b59",
  "strippedsize": 215,
  "size": 215,
  "weight": 860,
  "tx": [
    {
      "txid": "ddb12443af0453454e74078416da7948d837df7af4980a9f0214c46fcc0ff114",
      "hash": "ddb12443af0453454e74078416da7948d837df7af4980a9f0214c46fcc0ff114",
      "version": 1,
      "size": 134,
      "vsize": 134,
      "weight": 536,
      "locktime": 0,
      "vin": [
        {
          "coinbase": "04ffff001d0108",
          "sequence": 4294967295
        }
      ],
      "vout": [
        {
          "value": 50.0,
          "n": 0,
          "scriptPubKey": {
            "asm": "04e204a200d49a82a210183bf8d2e717423f373709967e68b6e214012763ccb3f9490541dcaf3a3fa2d60d8311c305acf18a7865d60f82e55cd32be46dab2dabbe OP_CHECKSIG",
            "desc": "pk(04e204a200d49a82a210183bf8d2e717423f373709967e68b6e214012763ccb3f9490541dcaf3a3fa2d60d8311c305acf18a7865d60f82e55cd32be46dab2dabbe)#8pp5kr8n",
            "hex": "4104e204a200d49a82a210183bf8d2e717423f373709967e68b6e214012763ccb3f9490541dcaf3a3fa2d60d8311c305acf18a7865d60f82e55cd32be46dab2dabbeac",
            "type": "pubkey"
          }
        }
      ],
      "hex": "01000000010000000000000000000000000000000000000000000000000000000000000000ffffffff0704ffff001d0108ffffffff0100f2052a01000000434104e204a200d49a82a210183bf8d2e717423f373709967e68b6e214012763ccb3f9490541dcaf3a3fa2d60d8311c305acf18a7865d60f82e55cd32be46dab2dabbeac00000000"
    }
  ]
}