{
  "hash": "000000008b57d05f433a6fcf0942b7fef226678fc0a6a623088fd846f48274e0",
  "confirmations": 43469,
  "height": 9629,
  "version": 1,
  "versionHex": "00000001",
  "merkleroot": "c9f546bef112e1cea748a6bee67044bad590d8d2e2f3f97adc3d77cde46cc3c3",
  "time": 1238723820,
  "mediantime": 1238720579,
  "nonce": 4076937520,
  "bits": "1d00ffff",
  "difficulty": 1,
  "chainwork": "0000000000000000000000000000000000000000000000000000259e259e259e",
  "nTx": 1,
  "previousblockhash": "0000000019bee828395d1d6a283362222991a5bcfa37604b381ca0db25b1c191",
  "nextblockhash": "00000000de934300732c23fa07ebc4778d9b64a14d998e6eb3cffbefe01ad950",
  "strippedsize": 216,
  "size": 216,
  "weight": 864,
  "tx": [
    {
      "txid": "c9f546bef112e1cea748a6bee67044bad590d8d2e2f3f97adc3d77cde46cc3c3",
      "hash": "c9f546bef112e1cea748a6bee67044bad590d8d2e2f3f97adc3d77cde46cc3c3",
      "version": 1,
      "size": 135,
      "vsize": 135,
      "weight": 540,
      "locktime": 0,
      "vin": [
        {
          "coinbase": "04ffff001d027f07",
          "sequence": 4294967295
        }
      ],
      "vout": [
        {
          "value": 50.0,
          "n": 0,
          "scriptPubKey": {
            "asm": "0478eeebf22608f22984e852a8d035a613733a44c9882f60192dc3d55ade84c18d7e5c2ac949d936fb20b106c9844a20f65f6fd2f8341a70ed1af9cf91f173a5e4 OP_CHECKSIG",
            "desc": "pk(0478eeebf22608f22984e852a8d035a613733a44c9882f60192dc3d55ade84c18d7e5c2ac949d936fb20b106c9844a20f65f6fd2f8341a70ed1af9cf91f173a5e4)#r7q3vcce",
            "hex": "410478eeebf22608f22984e852a8d035a613733a44c9882f60192dc3d55ade84c18d7e5c2ac949d936fb20b106c9844a20f65f6fd2f8341a70ed1af9cf91f173a5e4ac",
            "type": "pubkey"
          }
        }
      ],
      "hex": "01000000010000000000000000000000000000000000000000000000000000000000000000ffffffff0804ffff001d027f07ffffffff0100f2052a0100000043410478eeebf22608f22984e852a8d035a613733a44c9882f60192dc3d55ade84c18d7e5c2ac949d936fb20b106c9844a20f65f6fd2f8341a70ed1af9cf91f173a5e4ac00000000"
    }
  ]
}