{
  "hash": "00000000d072e1522f8c7d632eb3d560e4dee54ab2cc4ba7097f9ac1cc880b74",
  "confirmations": 44937,
  "height": 8161,
  "version": 1,
  "versionHex": "00000001",
  "merkleroot": "2db69ef685d789f76b52e12b3db6eb88324a87eda0b8c22ace86692ac93326c7",
  "time": 1237579124,
  "mediantime": 1237576328,
  "nonce": 232353570,
  "bits": "1d00ffff",
  "difficulty": 1,
  "chainwork": "00000000000000000000000000000000000000000000000000001fe21fe21fe2",
  "nTx": 1,
  "previousblockhash": "0000000091159b34a415d274e7a7f0c8ecc8a7f7f61ab7264082b1f22e58acd8",
  "nextblockhash": "00000000727061d8b632e2bdcf51984a2731f8ee595b0627e47113856d926810",
  "strippedsize": 216,
  "size": 216,
  "weight": 864,
  "tx": [
    {
      "txid": "2db69ef685d789f76b52e12b3db6eb88324a87eda0b8c22ace86692ac93326c7",
      "hash": "2db69ef685d789f76b52e12b3db6eb88324a87eda0b8c22ace86692ac93326c7",
      "version": 1,
      "size": 135,
      "vsize": 135,
      "weight": 540,
      "locktime": 0,
      "vin": [
        {
          "coinbase": "04ffff001d022e02",
          "sequence": 4294967295
        }
      ],
      "vout": [
        {
          "value": 50.0,
          "n": 0,
          "scriptPubKey": {
            "asm": "0439e7a3e3248a6d39795727f17cb1f46ae2ee28a2375d81d03b9d0cf1ed751a4785249aac5d72be5284dc798ee77b1ccfee2b1253ed90ebb09e42687e9d501b64 OP_CHECKSIG",
            "desc": "pk(0439e7a3e3248a6d39795727f17cb1f46ae2ee28a2375d81d03b9d0cf1ed751a4785249aac5d72be5284dc798ee77b1ccfee2b1253ed90ebb09e42687e9d501b64)#y6cwtuuf",
            "hex": "410439e7a3e3248a6d39795727f17cb1f46ae2ee28a2375d81d03b9d0cf1ed751a4785249aac5d72be5284dc798ee77b1ccfee2b1253ed90ebb09e42687e9d501b64ac",
            "type": "pubkey"
          }
        }
      ],
      "hex": "01000000010000000000000000000000000000000000000000000000000000000000000000ffffffff0804ffff001d022e02ffffffff0100f2052a0100000043410439e7a3e3248a6d39795727f17cb1f46ae2ee28a2375d81d03b9d0cf1ed751a4785249aac5d72be5284dc798ee77b1ccfee2b1253ed90ebb09e42687e9d501b64ac00000000"
    }
  ]
}