{
  "hash": "00000000dd34882aa41218fc886e50e48a06081a1627f28e4da45c4d554dfce6",
  "confirmations": 45055,
  "height": 8043,
  "version": 1,
  "versionHex": "00000001",
  "merkleroot": "33b8fc17fef597d4934cf674705ef50295a37dbf7cac5ab4f589a31c6afae494",
  "time": 1237491335,
  "mediantime": 1237489622,
  "nonce": 1690606389,
  "bits": "1d00ffff",
  "difficulty": 1,
  "chainwork": "00000000000000000000000000000000000000000000000000001f6c1f6c1f6c",
  "nTx": 1,
  "previousblockhash": "00000000312ae1c84d144d140a2f2fc196bd4159f51d3f0932119cf96dac1006",
  "nextblockhash": "0000000088ed35839dd1bacc958bf26f019a96fbebb0ce838793643632c7cafa",
  "strippedsize": 216,
  "size": 216,
  "weight": 864,
  "tx": [
    {
      "txid": "33b8fc17fef597d4934cf674705ef50295a37dbf7cac5ab4f589a31c6afae494",
      "hash": "33b8fc17fef597d4934cf674705ef50295a37dbf7cac5ab4f589a31c6afae494",
      "version": 1,
      "size": 135,
      "vsize": 135,
      "weight": 540,
      "locktime": 0,
      "vin": [
        {
          "coinbase": "04ffff001d02340a",
          "sequence": 4294967295
        }
      ],
      "vout": [
        {
          "value": 50.0,
          "n": 0,
          "scriptPubKey": {
            "asm": "04cc2d851898cfe093222c34bb10458740ea8d0f6bf8ddc28c7436cf355537fd59a5ba077ee27016cf95c4f42f75050946ad39faf3e5788549aed76609921c4d43 OP_CHECKSIG",
            "desc": "pk(04cc2d851898cfe093222c34bb10458740ea8d0f6bf8ddc28c7436cf355537fd59a5ba077ee27016cf95c4f42f75050946ad39faf3e5788549aed76609921c4d43)#cdpzrrmn",
            "hex": "4104cc2d851898cfe093222c34bb10458740ea8d0f6bf8ddc28c7436cf355537fd59a5ba077ee27016cf95c4f42f75050946ad39faf3e5788549aed76609921c4d43ac",
            "type": "pubkey"
          }
        }
      ],
      "hex": "01000000010000000000000000000000000000000000000000000000000000000000000000ffffffff0804ffff001d02340affffffff0100f2052a01000000434104cc2d851898cfe093222c34bb10458740ea8d0f6bf8ddc28c7436cf355537fd59a5ba077ee27016cf95c4f42f75050946ad39faf3e5788549aed76609921c4d43ac00000000"
    }
  ]
}