{
  "hash": "0000000098d3bdbb973ec3db8f5c017ae018110a2f95df5b8d621fedbe27d23d",
  "confirmations": 51800,
  "height": 1298,
  "version": 1,
  "versionHex": "00000001",
  "merkleroot": "e0449b8c1ee2fd514dad99031ebff2600bc698a40a85783944bf8d33e429615d",
  "time": 1232591800,
  "mediantime": 1232569600,
  "nonce": 1206081141,
  "bits": "1d00ffff",
  "difficulty": 1,
  "chainwork": "0000000000000000000000000000000000000000000000000000051305130513",
  "nTx": 1,
  "previousblockhash": "00000000c909f46277e6748d6f987d6d6b395f0b68cd7b4d50a2286a917fc365",
  "nextblockhash": "00000000e79bd48bbc4416ad172e69b505694be0dd7566aac1063751dc37ce3f",
  "strippedsize": 215,
  "size": 215,
  "weight": 860,
  "tx": [
    {
      "txid": "e0449b8c1ee2fd514dad99031ebff2600bc698a40a85783944bf8d33e429615d",
      "hash": "e0449b8c1ee2fd514dad99031ebff2600bc698a40a85783944bf8d33e429615d",
      "version": 1,
      "size": 134,
      "vsize": 134,
      "weight": 536,
      "locktime": 0,
      "vin": [
        {
          "coinbase": "04ffff001d0120",
          "sequence": 4294967295
        }
      ],
      "vout": [
        {
          "value": 50.0,
          "n": 0,
          "scriptPubKey": {
            "asm": "04b80c5e02bc719641ba7b53ce877142b4fe08467a704258cc6a3aeda0a0d226114a2ebc9751c69a2526cb5607203b9be76e10872439525b988ba1982eb0458dc9 OP_CHECKSIG",
            "desc": "pk(04b80c5e02bc719641ba7b53ce877142b4fe08467a704258cc6a3aeda0a0d226114a2ebc9751c69a2526cb5607203b9be76e10872439525b988ba1982eb0458dc9)#rc3g2twu",
            "hex": "4104b80c5e02bc719641ba7b53ce877142b4fe08467a704258cc6a3aeda0a0d226114a2ebc9751c69a2526cb5607203b9be76e10872439525b988ba1982eb0458dc9ac",
            "type": "pubkey"
          }
        }
      ],
      "hex": "01000000010000000000000000000000000000000000000000000000000000000000000000ffffffff0704ffff001d0120ffffffff0100f2052a01000000434104b80c5e02bc719641ba7b53ce877142b4fe08467a704258cc6a3aeda0a0d226114a2ebc9751c69a2526cb5607203b9be76e10872439525b988ba1982eb0458dc9ac00000000"
    }
  ]
}