{
  "hash": "0000000041a4c447be35d04d14eba4764a359e3798001a44406152ad67d12587",
  "confirmations": 47424,
  "height": 5674,
  "version": 1,
  "versionHex": "00000001",
  "merkleroot": "ea072d27ecb0dacf6b06fe70acc120a7ba387fc427b4504d4b637bb050f9e6f4",
  "time": 1235670492,
  "mediantime": 1235665647,
  "nonce": 1654508550,
  "bits": "1d00ffff",
  "difficulty": 1,
  "chainwork": "0000000000000000000000000000000000000000000000000000162b162b162b",
  "nTx": 1,
  "previousblockhash": "00000000cfa3e85c598e71a7b4af92c21d60c63f2f5234d7d4a241e4a6263ab2",
  "nextblockhash": "000000001e2e1d2434b7a484ba71e34b5e76d665eeef0f2e7dbe77784b71e045",
  "strippedsize": 216,
  "size": 216,
  "weight": 864,
  "tx": [
    {
      "txid": "ea072d27ecb0dacf6b06fe70acc120a7ba387fc427b4504d4b637bb050f9e6f4",
      "hash": "ea072d27ecb0dacf6b06fe70acc120a7ba387fc427b4504d4b637bb050f9e6f4",
      "version": 1,
      "size": 135,
      "vsize": 135,
      "weight": 540,
      "locktime": 0,
      "vin": [
        {
          "coinbase": "04ffff001d020909",
          "sequence": 4294967295
        }
      ],
      "vout": [
        {
          "value": 50.0,
          "n": 0,
          "scriptPubKey": {
            "asm": "0494bd37cb1d6be9f6b5cff631801b232d6299f946130956e3f2ce75712e3a6bfa37836c43816442e523d0bdecf49c5ac1b97001136403c5adb41bd720ccf5af5c OP_CHECKSIG",
            "desc": "pk(0494bd37cb1d6be9f6b5cff631801b232d6299f946130956e3f2ce75712e3a6bfa37836c43816442e523d0bdecf49c5ac1b97001136403c5adb41bd720ccf5af5c)#93fzwhr3",
            "hex": "410494bd37cb1d6be9f6b5cff631801b232d6299f946130956e3f2ce75712e3a6bfa37836c43816442e523d0bdecf49c5ac1b97001136403c5adb41bd720ccf5af5cac",
            "type": "pubkey"
          }
        }
      ],
      "hex": "01000000010000000000000000000000000000000000000000000000000000000000000000ffffffff0804ffff001d020909ffffffff0100f2052a0100000043410494bd37cb1d6be9f6b5cff631801b232d6299f946130956e3f2ce75712e3a6bfa37836c43816442e523d0bdecf49c5ac1b97001136403c5adb41bd720ccf5af5cac00000000"
    }
  ]
}