{
  "hash": "00000000305fd11c9d5e286ab19b452848a784abc927905d8d91e57928114f85",
  "confirmations": 43217,
  "height": 9881,
  "version": 1,
  "versionHex": "00000001",
  "merkleroot": "07a8c6c67a021218efca419e2d2ce830eebd8721312b078d875ef8f1a197a391",
  "time": 1238912705,
  "mediantime": 1238909966,
  "nonce": 101977805,
  "bits": "1d00ffff",
  "difficulty": 1,
  "chainwork": "0000000000000000000000000000000000000000000000000000269a269a269a",
  "nTx": 1,
  "previousblockhash": "000000003abc5f04a0388406a3f268716e293394f6824f8e05b8808fcba633c0",
  "nextblockhash": "000000002feb2d6954b845d99c1453a0f157eada14f663cabc96138c1a2faa6e",
  "strippedsize": 216,
  "size": 216,
  "weight": 864,
  "tx": [
    {
      "txid": "07a8c6c67a021218efca419e2d2ce830eebd8721312b078d875ef8f1a197a391",
      "hash": "07a8c6c67a021218efca419e2d2ce830eebd8721312b078d875ef8f1a197a391",
      "version": 1,
      "size": 135,
      "vsize": 135,
      "weight": 540,
      "locktime": 0,
      "vin": [
        {
          "coinbase": "04ffff001d025111",
          "sequence": 4294967295
        }
      ],
      "vout": [
        {
          "value": 50.0,
          "n": 0,
          "scriptPubKey": {
            "asm": "0443507e4e8ec67b64231b6f88db7bd4e8b2d9733e0afe1ad40621d81d6f7d42eea260832b03179bd31b2f84a505967e3602f96ab4660475ddb761747826c3c558 OP_CHECKSIG",
            "desc": "pk(0443507e4e8ec67b64231b6f88db7bd4e8b2d9733e0afe1ad40621d81d6f7d42eea260832b03179bd31b2f84a505967e3602f96ab4660475ddb761747826c3c558)#pr02860r",
            "hex": "410443507e4e8ec67b64231b6f88db7bd4e8b2d9733e0afe1ad40621d81d6f7d42eea260832b03179bd31b2f84a505967e3602f96ab4660475ddb761747826c3c558ac",
            "type": "pubkey"
          }
        }
      ],
      "hex": "01000000010000000000000000000000000000000000000000000000000000000000000000ffffffff0804ffff001d025111ffffffff0100f2052a0100000043410443507e4e8ec67b64231b6f88db7bd4e8b2d9733e0afe1ad40621d81d6f7d42eea260832b03179bd31b2f84a505967e3602f96ab4660475ddb761747826c3c558ac00000000"
    }
  ]
}