{
  "hash": "00000000170b8ee3d8c6a3c70a8049ed290b7d2105af86d2f177b28849193311",
  "confirmations": 49923,
  "height": 3175,
  "version": 1,
  "versionHex": "00000001",
  "merkleroot": "3faf832df1e8a993e67d4e352a89714f4cd60236ee32a9aa5818a6b89d62e48a",
  "time": 1233882832,
  "mediantime": 1233880255,
  "nonce": 3728272691,
  "bits": "1d00ffff",
  "difficulty": 1,
  "chainwork": "00000000000000000000000000000000000000000000000000000c680c680c68",
  "nTx": 1,
  "previousblockhash": "00000000783f5a38b7644e2a4687cf79047bde32429a62441170dcaa34a8a38b",
  "nextblockhash": "000000002b3a1be079ae0b707c5f208b5484cb8adeed5a2e683825cc3c047fbf",
  "strippedsize": 216,
  "size": 216,
  "weight": 864,
  "tx": [
    {
      "txid": "3faf832df1e8a993e67d4e352a89714f4cd60236ee32a9aa5818a6b89d62e48a",
      "hash": "3faf832df1e8a993e67d4e352a89714f4cd60236ee32a9aa5818a6b89d62e48a",
      "version": 1,
      "size": 135,
      "vsize": 135,
      "weight": 540,
      "locktime": 0,
      "vin": [
        {
          "coinbase": "04ffff001d024d02",
          "sequence": 4294967295
        }
      ],
      "vout": [
        {
          "value": 50.0,
          "n": 0,
          "scriptPubKey": {
            "asm": "04c75b0260430cf3ced940461bbe464f74c63bcb85b8b9fb3a59e35713efefd126cd42aae5140a956c2b4a6a3557a4b6760a1060c4891800bbc42c9d66a10fd62e OP_CHECKSIG",
            "desc": "pk(04c75b0260430cf3ced940461bbe464f74c63bcb85b8b9fb3a59e35713efefd126cd42aae5140a956c2b4a6a3557a4b6760a1060c4891800bbc42c9d66a10fd62e)#yq6mf854",
            "hex": "4104c75b0260430cf3ced940461bbe464f74c63bcb85b8b9fb3a59e35713efefd126cd42aae5140a956c2b4a6a3557a4b6760a1060c4891800bbc42c9d66a10fd62eac",
            "type": "pubkey"
          }
        }
      ],
      "hex": "01000000010000000000000000000000000000000000000000000000000000000000000000ffffffff0804ffff001d024d02ffffffff0100f2052a01000000434104c75b0260430cf3ced940461bbe464f74c63bcb85b8b9fb3a59e35713efefd126cd42aae5140a956c2b4a6a3557a4b6760a1060c4891800bbc42c9d66a10fd62eac00000000"
    }
  ]
}