{
  "hash": "00000000f8a0d381cb1e1774bc0521b94b1cdb8284cfa9cb046915def70be38f",
  "confirmations": 49916,
  "height": 3182,
  "version": 1,
  "versionHex": "00000001",
  "merkleroot": "7b8157aa3f62ae2bbaafa2aab44d99f72c8cd2d3954b353d0b31402c614a3259",
  "time": 1233887562,
  "mediantime": 1233884272,
  "nonce": 9385800,
  "bits": "1d00ffff",
  "difficulty": 1,
  "chainwork": "00000000000000000000000000000000000000000000000000000c6f0c6f0c6f",
  "nTx": 1,
  "previousblockhash": "0000000001872c838e03a9cb5ead26df64328a0986161f493e157a53e449f00a",
  "nextblockhash": "00000000dad0ecbdc542059731fcb46178186d954884a13109eeac05a9eea5cb",
  "strippedsize": 215,
  "size": 215,
  "weight": 860,
  "tx": [
    {
      "txid": "7b8157aa3f62ae2bbaafa2aab44d99f72c8cd2d3954b353d0b31402c614a3259",
      "hash": "7b8157aa3f62ae2bbaafa2aab44d99f72c8cd2d3954b353d0b31402c614a3259",
      "version": 1,
      "size": 134,
      "vsize": 134,
      "weight": 536,
      "locktime": 0,
      "vin": [
        {
          "coinbase": "04ffff001d0106",
          "sequence": 4294967295
        }
      ],
      "vout": [
        {
          "value": 50.0,
          "n": 0,
          "scriptPubKey": {
            "asm": "043e0466fc2a01ce76bcb53622a2bea7bf16af2f5b6e2a7478287402b535a3392e0a137bc342372429da0cc427d4f223b9922d8bf583ab683263ed79bad6814b4d OP_CHECKSIG",
            "desc": "pk(043e0466fc2a01ce76bcb53622a2bea7bf16af2f5b6e2a7478287402b535a3392e0a137bc342372429da0cc427d4f223b9922d8bf583ab683263ed79bad6814b4d)#2wvd2fa2",
            "hex": "41043e0466fc2a01ce76bcb53622a2bea7bf16af2f5b6e2a7478287402b535a3392e0a137bc342372429da0cc427d4f223b9922d8bf583ab683263ed79bad6814b4dac",
            "type": "pubkey"
          }
        }
      ],
      "hex": "01000000010000000000000000000000000000000000000000000000000000000000000000ffffffff0704ffff001d0106ffffffff0100f2052a010000004341043e0466fc2a01ce76bcb53622a2bea7bf16af2f5b6e2a7478287402b535a3392e0a137bc342372429da0cc427d4f223b9922d8bf583ab683263ed79bad6814b4dac00000000"
    }
  ]
}