{
  "hash": "000000002e311939271561d34b7ab85b55e3d4c13a631c581f265641f7c9be63",
  "confirmations": 45595,
  "height": 7503,
  "version": 1,
  "versionHex": "00000001",
  "merkleroot": "7aec741a2200b17fa3a09c5b98c6a6d8fad47a64fa81a2cdfc0eab730af3e644",
  "time": 1237099552,
  "mediantime": 1237096575,
  "nonce": 1291515160,
  "bits": "1d00ffff",
  "difficulty": 1,
  "chainwork": "00000000000000000000000000000000000000000000000000001d501d501d50",
  "nTx": 1,
  "previousblockhash": "00000000c79101d0ebfe2dae22ea09d43d6503f35c99ae6f1082209fb56d1123",
  "nextblockhash": "00000000174841d2ff2709caf9c0c974e44cfbbb2c825a119c35f244806fd3cb",
  "strippedsize": 216,
  "size": 216,
  "weight": 864,
  "tx": [
    {
      "txid": "7aec741a2200b17fa3a09c5b98c6a6d8fad47a64fa81a2cdfc0eab730af3e644",
      "hash": "7aec741a2200b17fa3a09c5b98c6a6d8fad47a64fa81a2cdfc0eab730af3e644",
      "version": 1,
      "size": 135,
      "vsize": 135,
      "weight": 540,
      "locktime": 0,
      "vin": [
        {
          "coinbase": "04ffff001d02f900",
          "sequence": 4294967295
        }
      ],
      "vout": [
        {
          "value": 50.0,
          "n": 0,
          "scriptPubKey": {
            "asm": "042bea3f76f80750dd6b939210c67d5ba6649f79ef2bd00686fc58c83f00269ea860338682d7666fefae94d5f8ee28b47a9f89aa3c7f2aa31c4359b246a1179e93 OP_CHECKSIG",
            "desc": "pk(042bea3f76f80750dd6b939210c67d5ba6649f79ef2bd00686fc58c83f00269ea860338682d7666fefae94d5f8ee28b47a9f89aa3c7f2aa31c4359b246a1179e93)#cwfg88e7",
            "hex": "41042bea3f76f80750dd6b939210c67d5ba6649f79ef2bd00686fc58c83f00269ea860338682d7666fefae94d5f8ee28b47a9f89aa3c7f2aa31c4359b246a1179e93ac",
            "type": "pubkey"
          }
        }
      ],
      "hex": "01000000010000000000000000000000000000000000000000000000000000000000000000ffffffff0804ffff001d02f900ffffffff0100f2052a010000004341042bea3f76f80750dd6b939210c67d5ba6649f79ef2bd00686fc58c83f00269ea860338682d7666fefae94d5f8ee28b47a9f89aa3c7f2aa31c4359b246a1179e93ac00000000"
    }
  ]
}