{
  "hash": "000000000cce01e2809bc75a5e5ab1cd7ffe29b096e39ccdd6dc413009f90cdd",
  "confirmations": 45856,
  "height": 7242,
  "version": 1,
  "versionHex": "00000001",
  "merkleroot": "92cadc30c10d779693e5cd2865530bdaaf00d6f46b8ad4a965d26c6f30661472",
  "time": 1236899722,
  "mediantime": 1236896156,
  "nonce": 3770256646,
  "bits": "1d00ffff",
  "difficulty": 1,
  "chainwork": "00000000000000000000000000000000000000000000000000001c4b1c4b1c4b",
  "nTx": 1,
  "previousblockhash": "00000000c3882d892a7c8a51e4069b096a645c82dabe7f48c8275faa5f369a2f",
  "nextblockhash": "00000000d42cb1712710823a6673ae59100b89fa2a63b00d82622954e607dd06",
  "strippedsize": 216,
  "size": 216,
  "weight": 864,
  "tx": [
    {
      "txid": "92cadc30c10d779693e5cd2865530bdaaf00d6f46b8ad4a965d26c6f30661472",
      "hash": "92cadc30c10d779693e5cd2865530bdaaf00d6f46b8ad4a965d26c6f30661472",
      "version": 1,
      "size": 135,
      "vsize": 135,
      "weight": 540,
      "locktime": 0,
      "vin": [
        {
          "coinbase": "04ffff001d024806",
          "sequence": 4294967295
        }
      ],
      "vout": [
        {
          "value": 50.0,
          "n": 0,
          "scriptPubKey": {
            "asm": "04b6dfa21a14f7c7dca54e2549ee4972f6000ea8457ebe0df7f49d05f38315ddc43d6d819e53ca06a789735bb7d5dbacab3c493f18cd1018630a5a760b9914a01c OP_CHECKSIG",
            "desc": "pk(04b6dfa21a14f7c7dca54e2549ee4972f6000ea8457ebe0df7f49d05f38315ddc43d6d819e53ca06a789735bb7d5dbacab3c493f18cd1018630a5a760b9914a01c)#3xquscy0",
            "hex": "4104b6dfa21a14f7c7dca54e2549ee4972f6000ea8457ebe0df7f49d05f38315ddc43d6d819e53ca06a789735bb7d5dbacab3c493f18cd1018630a5a760b9914a01cac",
            "type": "pubkey"
          }
        }
      ],
      "hex": "01000000010000000000000000000000000000000000000000000000000000000000000000ffffffff0804ffff001d024806ffffffff0100f2052a01000000434104b6dfa21a14f7c7dca54e2549ee4972f6000ea8457ebe0df7f49d05f38315ddc43d6d819e53ca06a789735bb7d5dbacab3c493f18cd1018630a5a760b9914a01cac00000000"
    }
  ]
}