{
  "hash": "0000000084d973c18381c87a63a2430ad2eff1d84934ec34e3bfd78ffd3cd9c1",
  "confirmations": 52398,
  "height": 700,
  "version": 1,
  "versionHex": "00000001",
  "merkleroot": "17573dc4eed8e66e5f8b83395ce09fd8aa50eea51a3a0586f0655b41fe06eb19",
  "time": 1232108688,
  "mediantime": 1232104729,
  "nonce": 3680906518,
  "bits": "1d00ffff",
  "difficulty": 1,
  "chainwork": "000000000000000000000000000000000000000000000000000002bd02bd02bd",
  "nTx": 1,
  "previousblockhash": "0000000083a0c39422ed93422badb3f877fba97199b42ec7e7c7054e921e90f2",
  "nextblockhash": "000000009185a6d894df317ab79ff4ea68bcd9b7bd972888de20a9e4ba9c06d5",
  "strippedsize": 216,
  "size": 216,
  "weight": 864,
  "tx": [
    {
      "txid": "17573dc4eed8e66e5f8b83395ce09fd8aa50eea51a3a0586f0655b41fe06eb19",
      "hash": "17573dc4eed8e66e5f8b83395ce09fd8aa50eea51a3a0586f0655b41fe06eb19",
      "version": 1,
      "size": 135,
      "vsize": 135,
      "weight": 540,
      "locktime": 0,
      "vin": [
        {
          "coinbase": "04ffff001d020901",
          "sequence": 4294967295
        }
      ],
      "vout": [
        {
          "value": 50.0,
          "n": 0,
          "scriptPubKey": {
            "asm": "04f76a7cfec0fc2ea65e200bc21e38ced173fae04a474c475d495b5ee39d2576b3e501df98aa9f14b98e7669c115ca6b036f4599c34e0cdc5bb253386076e40789 OP_CHECKSIG",
            "desc": "pk(04f76a7cfec0fc2ea65e200bc21e38ced173fae04a474c475d495b5ee39d2576b3e501df98aa9f14b98e7669c115ca6b036f4599c34e0cdc5bb253386076e40789)#kjq30f8a",
            "hex": "4104f76a7cfec0fc2ea65e200bc21e38ced173fae04a474c475d495b5ee39d2576b3e501df98aa9f14b98e7669c115ca6b036f4599c34e0cdc5bb253386076e40789ac",
            "type": "pubkey"
          }
        }
      ],
      "hex": "01000000010000000000000000000000000000000000000000000000000000000000000000ffffffff0804ffff001d020901ffffffff0100f2052a01000000434104f76a7cfec0fc2ea65e200bc21e38ced173fae04a474c475d495b5ee39d2576b3e501df98aa9f14b98e7669c115ca6b036f4599c34e0cdc5bb253386076e40789ac00000000"
    }
  ]
}