{
  "hash": "00000000c39ea29ad310c1f80409e24b3fbfd671c0b3599198b7cfdebf790bde",
  "confirmations": 52278,
  "height": 497,
  "version": 1,
  "versionHex": "00000001",
  "merkleroot": "5bf65baa0bdda46e32f558cd0172c0ea4b9ab5331f19467333c3c8ad665bf33c",
  "time": 1231966316,
  "mediantime": 1231963006,
  "nonce": 3540538911,
  "bits": "1d00ffff",
  "difficulty": 1,
  "chainwork": "000000000000000000000000000000000000000000000000000001f201f201f2",
  "nTx": 1,
  "previousblockhash": "00000000b0c5a240b2a61d2e75692224efd4cbecdf6eaf4cc2cf477ca7c270e7",
  "nextblockhash": "00000000693a6d6b068cab3e207d570764f6bad293e3e98920246eeda81c496a",
  "strippedsize": 216,
  "size": 216,
  "weight": 864,
  "tx": [
    {
      "txid": "5bf65baa0bdda46e32f558cd0172c0ea4b9ab5331f19467333c3c8ad665bf33c",
      "hash": "5bf65baa0bdda46e32f558cd0172c0ea4b9ab5331f19467333c3c8ad665bf33c",
      "version": 1,
      "size": 135,
      "vsize": 135,
      "weight": 540,
      "locktime": 0,
      "vin": [
        {
          "coinbase": "04ffff001d027104",
          "sequence": 4294967295
        }
      ],
      "vout": [
        {
          "value": 50.0,
          "n": 0,
          "scriptPubKey": {
            "asm": "0480b8d11042dba0e8175bd4fb0067f6b01efd10f0378b9abb640c1feb4b329941b5af394ce71a66cc1f49f9227db9f4eb742bae7eeea6a48f79934a6c02fca3fe OP_CHECKSIG",
            "desc": "pk(0480b8d11042dba0e8175bd4fb0067f6b01efd10f0378b9abb640c1feb4b329941b5af394ce71a66cc1f49f9227db9f4eb742bae7eeea6a48f79934a6c02fca3fe)#x46ezygq",
            "hex": "410480b8d11042dba0e8175bd4fb0067f6b01efd10f0378b9abb640c1feb4b329941b5af394ce71a66cc1f49f9227db9f4eb742bae7eeea6a48f79934a6c02fca3feac",
            "type": "pubkey"
          }
        }
      ],
      "hex": "01000000010000000000000000000000000000000000000000000000000000000000000000ffffffff0804ffff001d027104ffffffff0100f2052a0100000043410480b8d11042dba0e8175bd4fb0067f6b01efd10f0378b9abb640c1feb4b329941b5af394ce71a66cc1f49f9227db9f4eb742bae7eeea6a48f79934a6c02fca3feac00000000"
    }
  ]
}