{
  "hash": "00000000a70804e462feebaf48f2ccf36c646c84e5de8e589a90c0b703e7c4c7",
  "confirmations": 47138,
  "height": 5960,
  "version": 1,
  "versionHex": "00000001",
  "merkleroot": "2f99823c013a3b7459e494ea4b940c4e8d37a64d62ae767754371fdc5a5427f0",
  "time": 1235897200,
  "mediantime": 1235891808,
  "nonce": 209603634,
  "bits": "1d00ffff",
  "difficulty": 1,
  "chainwork": "0000000000000000000000000000000000000000000000000000174917491749",
  "nTx": 1,
  "previousblockhash": "00000000d278a052e5ea6fc38e1e32bdc5aecbc1b7ae50bf71270724f4e22576",
  "nextblockhash": "00000000ddf0c079fb6232270d79ef3f85102d2ed74603412da7ca95a37bb2a5",
  "strippedsize": 216,
  "size": 216,
  "weight": 864,
  "tx": [
    {
      "txid": "2f99823c013a3b7459e494ea4b940c4e8d37a64d62ae767754371fdc5a5427f0",
      "hash": "2f99823c013a3b7459e494ea4b940c4e8d37a64d62ae767754371fdc5a5427f0",
      "version": 1,
      "size": 135,
      "vsize": 135,
      "weight": 540,
      "locktime": 0,
      "vin": [
        {
          "coinbase": "04ffff001d023b04",
          "sequence": 4294967295
        }
      ],
      "vout": [
        {
          "value": 50.0,
          "n": 0,
          "scriptPubKey": {
            "asm": "042626c7e44190b19b0bfbf254615a9795e197db70845343716b515c0925c763619788712a064be3b69d5bfcf032b0588bc6ef3c34ec318be21ace945314d76eb5 OP_CHECKSIG",
            "desc": "pk(042626c7e44190b19b0bfbf254615a9795e197db70845343716b515c0925c763619788712a064be3b69d5bfcf032b0588bc6ef3c34ec318be21ace945314d76eb5)#jh3yuqa9",
            "hex": "41042626c7e44190b19b0bfbf254615a9795e197db70845343716b515c0925c763619788712a064be3b69d5bfcf032b0588bc6ef3c34ec318be21ace945314d76eb5ac",
            "type": "pubkey"
          }
        }
      ],
      "hex": "01000000010000000000000000000000000000000000000000000000000000000000000000ffffffff0804ffff001d023b04ffffffff0100f2052a010000004341042626c7e44190b19b0bfbf254615a9795e197db70845343716b515c0925c763619788712a064be3b69d5bfcf032b0588bc6ef3c34ec318be21ace945314d76eb5ac00000000"
    }
  ]
}