{
  "hash": "00000000e33bf1e239295ac9a277869c45947278fb020bf8ee87bbc321ca6407",
  "confirmations": 48647,
  "height": 4451,
  "version": 1,
  "versionHex": "00000001",
  "merkleroot": "6858a4cd0dea5627e65ee5ed6dc217eead2e3043ab6ac360f1a22e1430fc5c4b",
  "time": 1234745953,
  "mediantime": 1234742924,
  "nonce": 4005896227,
  "bits": "1d00ffff",
  "difficulty": 1,
  "chainwork": "0000000000000000000000000000000000000000000000000000116411641164",
  "nTx": 1,
  "previousblockhash": "00000000ad06f4f7511021eacda0cba44939053c6718d998407772ec47c1b79f",
  "nextblockhash": "00000000507ab3dd0467321183049f1453f731876a8c77129969377e6a2912c7",
  "strippedsize": 216,
  "size": 216,
  "weight": 864,
  "tx": [
    {
      "txid": "6858a4cd0dea5627e65ee5ed6dc217eead2e3043ab6ac360f1a22e1430fc5c4b",
      "hash": "6858a4cd0dea5627e65ee5ed6dc217eead2e3043ab6ac360f1a22e1430fc5c4b",
      "version": 1,
      "size": 135,
      "vsize": 135,
      "weight": 540,
      "locktime": 0,
      "vin": [
        {
          "coinbase": "04ffff001d02f901",
          "sequence": 4294967295
        }
      ],
      "vout": [
        {
          "value": 50.0,
          "n": 0,
          "scriptPubKey": {
            "asm": "04f169dce4262a1bd74ed7fb85a014f52517808b1f8ff5096bf043590fe2de1b1d8a435bd8b8d7eb78f5d8e11b2b01084c5e9a2ef8ec4b06a7ab00afd36aff1566 OP_CHECKSIG",
            "desc": "pk(04f169dce4262a1bd74ed7fb85a014f52517808b1f8ff5096bf043590fe2de1b1d8a435bd8b8d7eb78f5d8e11b2b01084c5e9a2ef8ec4b06a7ab00afd36aff1566)#w7jl3jgr",
            "hex": "4104f169dce4262a1bd74ed7fb85a014f52517808b1f8ff5096bf043590fe2de1b1d8a435bd8b8d7eb78f5d8e11b2b01084c5e9a2ef8ec4b06a7ab00afd36aff1566ac",
            "type": "pubkey"
          }
        }
      ],
      "hex": "01000000010000000000000000000000000000000000000000000000000000000000000000ffffffff0804ffff001d02f901ffffffff0100f2052a01000000434104f169dce4262a1bd74ed7fb85a014f52517808b1f8ff5096bf043590fe2de1b1d8a435bd8b8d7eb78f5d8e11b2b01084c5e9a2ef8ec4b06a7ab00afd36aff1566ac00000000"
    }
  ]
}