{
  "hash": "00000000924b0bb46e45576c1761f768da718a0db88610472a58ccab56d881c5",
  "confirmations": 48654,
  "height": 4444,
  "version": 1,
  "versionHex": "00000001",
  "merkleroot": "f68866194bd0a6349063c44e904fa946e0653db8ec28d0c579b3d6edc05bdf20",
  "time": 1234740837,
  "mediantime": 1234739274,
  "nonce": 316063285,
  "bits": "1d00ffff",
  "difficulty": 1,
  "chainwork": "0000000000000000000000000000000000000000000000000000115d115d115d",
  "nTx": 1,
  "previousblockhash": "00000000196f013b289d476b5fff7442c0ea5f9084658402fa676931ec48de47",
  "nextblockhash": "00000000470ac8b6c57e2c93a74258bfa83df81a9c5200ab7e57f479f61135d1",
  "strippedsize": 216,
  "size": 216,
  "weight": 864,
  "tx": [
    {
      "txid": "f68866194bd0a6349063c44e904fa946e0653db8ec28d0c579b3d6edc05bdf20",
      "hash": "f68866194bd0a6349063c44e904fa946e0653db8ec28d0c579b3d6edc05bdf20",
      "version": 1,
      "size": 135,
      "vsize": 135,
      "weight": 540,
      "locktime": 0,
      "vin": [
        {
          "coinbase": "04ffff001d02ca01",
          "sequence": 4294967295
        }
      ],
      "vout": [
        {
          "value": 50.0,
          "n": 0,
          "scriptPubKey": {
            "asm": "0492853f612edcb7f8c531832d7b73de6197a9fe972a4a881df1595e343d9dd4f09a1b119890dab5c6fbc9f9b6f6006717817fccc853af4a6f7ac60e4b42cad346 OP_CHECKSIG",
            "desc": "pk(0492853f612edcb7f8c531832d7b73de6197a9fe972a4a881df1595e343d9dd4f09a1b119890dab5c6fbc9f9b6f6006717817fccc853af4a6f7ac60e4b42cad346)#84xnap2x",
            "hex": "410492853f612edcb7f8c531832d7b73de6197a9fe972a4a881df1595e343d9dd4f09a1b119890dab5c6fbc9f9b6f6006717817fccc853af4a6f7ac60e4b42cad346ac",
            "type": "pubkey"
          }
        }
      ],
      "hex": "01000000010000000000000000000000000000000000000000000000000000000000000000ffffffff0804ffff001d02ca01ffffffff0100f2052a0100000043410492853f612edcb7f8c531832d7b73de6197a9fe972a4a881df1595e343d9dd4f09a1b119890dab5c6fbc9f9b6f6006717817fccc853af4a6f7ac60e4b42cad346ac00000000"
    }
  ]
}