{
  "hash": "0000000075d570602de5c172f1c16a5d6f7f3ffd063a6c413042863742ec3473",
  "confirmations": 43369,
  "height": 9729,
  "version": 1,
  "versionHex": "00000001",
  "merkleroot": "fa479ffb19cbf4067fdcd79e763b690c49454a299cb6ae7bbc8c6cea87dac396",
  "time": 1238799340,
  "mediantime": 1238797107,
  "nonce": 3755348021,
  "bits": "1d00ffff",
  "difficulty": 1,
  "chainwork": "0000000000000000000000000000000000000000000000000000260226022602",
  "nTx": 1,
  "previousblockhash": "00000000852cdd8fbc5098c192225567123d44b737f4581c3b1b395e60ff78a7",
  "nextblockhash": "000000007838923a6208aa50e3a758d28faeddd2d710d0c2056656eb02422345",
  "strippedsize": 216,
  "size": 216,
  "weight": 864,
  "tx": [
    {
      "txid": "fa479ffb19cbf4067fdcd79e763b690c49454a299cb6ae7bbc8c6cea87dac396",
      "hash": "fa479ffb19cbf4067fdcd79e763b690c49454a299cb6ae7bbc8c6cea87dac396",
      "version": 1,
      "size": 135,
      "vsize": 135,
      "weight": 540,
      "locktime": 0,
      "vin": [
        {
          "coinbase": "04ffff001d020509",
          "sequence": 4294967295
        }
      ],
      "vout": [
        {
          "value": 50.0,
          "n": 0,
          "scriptPubKey": {
            "asm": "044deac2cce5c11004d219c1aa530395fe9a791511269ef61f67e2f8cf3b55bddfa8562f879452c4e08f67834852160fb184043cc5788ce445824b9cce28513e75 OP_CHECKSIG",
            "desc": "pk(044deac2cce5c11004d219c1aa530395fe9a791511269ef61f67e2f8cf3b55bddfa8562f879452c4e08f67834852160fb184043cc5788ce445824b9cce28513e75)#x4rmruqc",
            "hex": "41044deac2cce5c11004d219c1aa530395fe9a791511269ef61f67e2f8cf3b55bddfa8562f879452c4e08f67834852160fb184043cc5788ce445824b9cce28513e75ac",
            "type": "pubkey"
          }
        }
      ],
      "hex": "01000000010000000000000000000000000000000000000000000000000000000000000000ffffffff0804ffff001d020509ffffffff0100f2052a010000004341044deac2cce5c11004d219c1aa530395fe9a791511269ef61f67e2f8cf3b55bddfa8562f879452c4e08f67834852160fb184043cc5788ce445824b9cce28513e75ac00000000"
    }
  ]
}