{
  "hash": "000000000ad2e08201d27fd6cb17f87c0e4f980a5668bd619f294ff99f0f2c2e",
  "confirmations": 47954,
  "height": 5144,
  "version": 1,
  "versionHex": "00000001",
  "merkleroot": "9d07bb08495d8bfb2086a21da20bb8667ab41a8708252f46689820fe827e13a9",
  "time": 1235248338,
  "mediantime": 1235244052,
  "nonce": 4289976605,
  "bits": "1d00ffff",
  "difficulty": 1,
  "chainwork": "0000000000000000000000000000000000000000000000000000141914191419",
  "nTx": 1,
  "previousblockhash": "00000000216216c3bd47e4c75660053f43b6035828f00e4ade750de93b1efcec",
  "nextblockhash": "00000000cc30603558574da11534c8f3c8e2e44f5f96b438dd287f3cc3992a2a",
  "strippedsize": 216,
  "size": 216,
  "weight": 864,
  "tx": [
    {
      "txid": "9d07bb08495d8bfb2086a21da20bb8667ab41a8708252f46689820fe827e13a9",
      "hash": "9d07bb08495d8bfb2086a21da20bb8667ab41a8708252f46689820fe827e13a9",
      "version": 1,
      "size": 135,
      "vsize": 135,
      "weight": 540,
      "locktime": 0,
      "vin": [
        {
          "coinbase": "04ffff001d02cd09",
          "sequence": 4294967295
        }
      ],
      "vout": [
        {
          "value": 50.0,
          "n": 0,
          "scriptPubKey": {
            "asm": "04d2dd76026f5b73395e6ed5f706daa9a7cfedc504ad310d11397292ffb9d92178069c3e1853ff434009ed44733794c994db18e9e5148d92098fd898d10b07e1b6 OP_CHECKSIG",
            "desc": "pk(04d2dd76026f5b73395e6ed5f706daa9a7cfedc504ad310d11397292ffb9d92178069c3e1853ff434009ed44733794c994db18e9e5148d92098fd898d10b07e1b6)#ltjxela5",
            "hex": "4104d2dd76026f5b73395e6ed5f706daa9a7cfedc504ad310d11397292ffb9d92178069c3e1853ff434009ed44733794c994db18e9e5148d92098fd898d10b07e1b6ac",
            "type": "pubkey"
          }
        }
      ],
      "hex": "01000000010000000000000000000000000000000000000000000000000000000000000000ffffffff0804ffff001d02cd09ffffffff0100f2052a01000000434104d2dd76026f5b73395e6ed5f706daa9a7cfedc504ad310d11397292ffb9d92178069c3e1853ff434009ed44733794c994db18e9e5148d92098fd898d10b07e1b6ac00000000"
    }
  ]
}