{
  "hash": "000000005a4ded781e667e06ceefafb71410b511fe0d5adc3e5a27ecbec34ae6",
  "confirmations": 52552,
  "height": 546,
  "version": 1,
  "versionHex": "00000001",
  "merkleroot": "e10a7f8442ea6cc6803a2b83713765c0b1199924110205f601f90fef125e7dfe",
  "time": 1231999700,
  "mediantime": 1231995747,
  "nonce": 1101328384,
  "bits": "1d00ffff",
  "difficulty": 1,
  "chainwork": "0000000000000000000000000000000000000000000000000000022302230223",
  "nTx": 4,
  "previousblockhash": "00000000689051c09ff2cd091cc4c22c10b965eb8db3ad5f032621cc36626175",
  "nextblockhash": "0000000055af85fb541bac9b94e0da5c06704adafe050186d64caf8330e6eb77",
  "strippedsize": 1385,
  "size": 1385,
  "weight": 5540,
  "tx": [
    {
      "txid": "e980fe9f792d014e73b95203dc1335c5f9ce19ac537a419e6df5b47aecb93b70",
      "hash": "e980fe9f792d014e73b95203dc1335c5f9ce19ac537a419e6df5b47aecb93b70",
      "version": 1,
      "size": 135,
      "vsize": 135,
      "weight": 540,
      "locktime": 0,
      "vin": [
        {
          "coinbase": "04ffff001d029105",
          "sequence": 4294967295
        }
      ],
      "vout": [
        {
          "value": 50.0,
          "n": 0,
          "scriptPubKey": {
            "asm": "046d8709a041d34357697dfcb30a9d05900a6294078012bf3bb09c6f9b525f1d16d5503d7905db1ada9501446ea00728668fc5719aa80be2fdfc8a858a4dbdd4fb OP_CHECKSIG",
            "desc": "pk(046d8709a041d34357697dfcb30a9d05900a6294078012bf3bb09c6f9b525f1d16d5503d7905db1ada9501446ea00728668fc5719aa80be2fdfc8a858a4dbdd4fb)#gsudn5lv",
            "hex": "41046d8709a041d34357697dfcb30a9d05900a6294078012bf3bb09c6f9b525f1d16d5503d7905db1ada9501446ea00728668fc5719aa80be2fdfc8a858a4dbdd4fbac",
            "type": "pubkey"
          }
        }
      ],
      "hex": "01000000010000000000000000000000000000000000000000000000000000000000000000ffffffff0804ffff001d029105ffffffff0100f2052a010000004341046d8709a041d34357697dfcb30a9d05900a6294078012bf3bb09c6f9b525f1d16d5503d7905db1ada9501446ea00728668fc5719aa80be2fdfc8a858a4dbdd4fbac00000000"
    },
    {
      "txid": "28204cad1d7fc1d199e8ef4fa22f182de6258a3eaafe1bbe56ebdcacd3069a5f",
      "hash": "28204cad1d7fc1d199e8ef4fa22f182de6258a3eaafe1bbe56ebdcacd3069a5f",
      "version": 1,
      "size": 389,
      "vsize": 389,
      "weight": 1556,
      "locktime": 0,
      "vin": [
        {
          "txid": "35288d269cee1941eaebb2ea85e32b42cdb2b04284a56d8b14dcc3f5c65d6055",
          "vout": 0,
          "scriptSig": {
            "asm": "3045022100aa46504baa86df8a33b1192b1b9367b4d729dc41e389f2c04f3e5c7f0559aae702205e82253a54bf5c4f65b7428551554b2045167d6d206dfe6a2e198127d3f7df15[ALL]",
            "hex": "483045022100aa46504baa86df8a33b1192b1b9367b4d729dc41e389f2c04f3e5c7f0559aae702205e82253a54bf5c4f65b7428551554b2045167d6d206dfe6a2e198127d3f7df1501"
          },
          "sequence": 4294967295
        },
        {
          "txid": "35288d269cee1941eaebb2ea85e32b42cdb2b04284a56d8b14dcc3f5c65d6055",
          "vout": 1,
          "scriptSig": {
            "asm": "304402202329484c35fa9d6bb32a55a70c0982f606ce0e3634b69006138683bcd12cbb6602200c28feb1e2555c3210f1dddb299738b4ff8bbe9667b68cb8764b5ac17b7adf00[ALL]",
            "hex": "47304402202329484c35fa9d6bb32a55a70c0982f606ce0e3634b69006138683bcd12cbb6602200c28feb1e2555c3210f1dddb299738b4ff8bbe9667b68cb8764b5ac17b7adf0001"
          },
          "sequence": 4294967295
        }
      ],
      "vout": [
        {
          "value": 1.0,
          "n": 0,
          "scriptPubKey": {
            "asm": "046a0765b5865641ce08dd39690aade26dfbf5511430ca428a3089261361cef170e3929a68aee3d8d4848b0c5111b0a37b82b86ad559fd2a745b44d8e8d9dfdc0c OP_CHECKSIG",
            "desc": "pk(046a0765b5865641ce08dd39690aade26dfbf5511430ca428a3089261361cef170e3929a68aee3d8d4848b0c5111b0a37b82b86ad559fd2a745b44d8e8d9dfdc0c)#5jneylk9",
            "hex": "41046a0765b5865641ce08dd39690aade26dfbf5511430ca428a3089261361cef170e3929a68aee3d8d4848b0c5111b0a37b82b86ad559fd2a745b44d8e8d9dfdc0cac",
            "type": "pubkey"
          }
        },
        {
          "value": 24.0,
          "n": 1,
          "scriptPubKey": {
            "asm": "044a656f065871a353f216ca26cef8dde2f03e8c16202d2e8ad769f02032cb86a5eb5e56842e92e19141d60a01928f8dd2c875a390f67c1f6c94cfc617c0ea45af OP_CHECKSIG",
            "desc": "pk(044a656f065871a353f216ca26cef8dde2f03e8c16202d2e8ad769f02032cb86a5eb5e56842e92e19141d60a01928f8dd2c875a390f67c1f6c94cfc617c0ea45af)#zm987h72",
            "hex": "41044a656f065871a353f216ca26cef8dde2f03e8c16202d2e8ad769f02032cb86a5eb5e56842e92e19141d60a01928f8dd2c875a390f67c1f6c94cfc617c0ea45afac",
            "type": "pubkey"
          }
        }
      ],
      "fee": 0.0,
      "hex": "010000000255605dc6f5c3dc148b6da58442b0b2cd422be385eab2ebea4119ee9c268d28350000000049483045022100aa46504baa86df8a33b1192b1b9367b4d729dc41e389f2c04f3e5c7f0559aae702205e82253a54bf5c4f65b7428551554b2045167d6d206dfe6a2e198127d3f7df1501ffffffff55605dc6f5c3dc148b6da58442b0b2cd422be385eab2ebea4119ee9c268d2835010000004847304402202329484c35fa9d6bb32a55a70c0982f606ce0e3634b69006138683bcd12cbb6602200c28feb1e2555c3210f1dddb299738b4ff8bbe9667b68cb8764b5ac17b7adf0001ffffffff0200e1f505000000004341046a0765b5865641ce08dd39690aade26dfbf5511430ca428a3089261361cef170e3929a68aee3d8d4848b0c5111b0a37b82b86ad559fd2a745b44d8e8d9dfdc0cac00180d8f000000004341044a656f065871a353f216ca26cef8dde2f03e8c16202d2e8ad769f02032cb86a5eb5e56842e92e19141d60a01928f8dd2c875a390f67c1f6c94cfc617c0ea45afac00000000"
    },
    {
      "txid": "6b0f8a73a56c04b519f1883e8aafda643ba61a30bd1439969df21bea5f4e27e2",
      "hash": "6b0f8a73a56c04b519f1883e8aafda643ba61a30bd1439969df21bea5f4e27e2",
      "version": 1,
      "size": 390,
      "vsize": 390,
      "weight": 1560,
      "locktime": 0,
      "vin": [
        {
          "txid": "28204cad1d7fc1d199e8ef4fa22f182de6258a3eaafe1bbe56ebdcacd3069a5f",
          "vout": 0,
          "scriptSig": {
            "asm": "304402205d6058484157235b06028c30736c15613a28bdb768ee628094ca8b0030d4d6eb0220328789c9a2ec27ddaec0ad5ef58efded42e6ea17c2e1ce838f3d6913f5e95db6[ALL]",
            "hex": "47304402205d6058484157235b06028c30736c15613a28bdb768ee628094ca8b0030d4d6eb0220328789c9a2ec27ddaec0ad5ef58efded42e6ea17c2e1ce838f3d6913f5e95db601"
          },
          "sequence": 4294967295
        },
        {
          "txid": "28204cad1d7fc1d199e8ef4fa22f182de6258a3eaafe1bbe56ebdcacd3069a5f",
          "vout": 1,
          "scriptSig": {
            "asm": "3046022100c45af050d3cea806cedd0ab22520c53ebe63b987b8954146cdca42487b84bdd6022100b9b027716a6b59e640da50a864d6dd8a0ef24c76ce62391fa3eabaf4d2886d2d[ALL]",
            "hex": "493046022100c45af050d3cea806cedd0ab22520c53ebe63b987b8954146cdca42487b84bdd6022100b9b027716a6b59e640da50a864d6dd8a0ef24c76ce62391fa3eabaf4d2886d2d01"
          },
          "sequence": 4294967295
        }
      ],
      "vout": [
        {
          "value": 1.0,
          "n": 0,
          "scriptPubKey": {
            "asm": "046a0765b5865641ce08dd39690aade26dfbf5511430ca428a3089261361cef170e3929a68aee3d8d4848b0c5111b0a37b82b86ad559fd2a745b44d8e8d9dfdc0c OP_CHECKSIG",
            "desc": "pk(046a0765b5865641ce08dd39690aade26dfbf5511430ca428a3089261361cef170e3929a68aee3d8d4848b0c5111b0a37b82b86ad559fd2a745b44d8e8d9dfdc0c)#5jneylk9",
            "hex": "41046a0765b5865641ce08dd39690aade26dfbf5511430ca428a3089261361cef170e3929a68aee3d8d4848b0c5111b0a37b82b86ad559fd2a745b44d8e8d9dfdc0cac",
            "type": "pubkey"
          }
        },
        {
          "value": 24.0,
          "n": 1,
          "scriptPubKey": {
            "asm": "046a0765b5865641ce08dd39690aade26dfbf5511430ca428a3089261361cef170e3929a68aee3d8d4848b0c5111b0a37b82b86ad559fd2a745b44d8e8d9dfdc0c OP_CHECKSIG",
            "desc": "pk(046a0765b5865641ce08dd39690aade26dfbf5511430ca428a3089261361cef170e3929a68aee3d8d4848b0c5111b0a37b82b86ad559fd2a745b44d8e8d9dfdc0c)#5jneylk9",
            "hex": "41046a0765b5865641ce08dd39690aade26dfbf5511430ca428a3089261361cef170e3929a68aee3d8d4848b0c5111b0a37b82b86ad559fd2a745b44d8e8d9dfdc0cac",
            "type": "pubkey"
          }
        }
      ],
      "fee": 0.0,
      "hex": "01000000025f9a06d3acdceb56be1bfeaa3e8a25e62d182fa24fefe899d1c17f1dad4c2028000000004847304402205d6058484157235b06028c30736c15613a28bdb768ee628094ca8b0030d4d6eb0220328789c9a2ec27ddaec0ad5ef58efded42e6ea17c2e1ce838f3d6913f5e95db601ffffffff5f9a06d3acdceb56be1bfeaa3e8a25e62d182fa24fefe899d1c17f1dad4c2028010000004a493046022100c45af050d3cea806cedd0ab22520c53ebe63b987b8954146cdca42487b84bdd6022100b9b027716a6b59e640da50a864d6dd8a0ef24c76ce62391fa3eabaf4d2886d2d01ffffffff0200e1f505000000004341046a0765b5865641ce08dd39690aade26dfbf5511430ca428a3089261361cef170e3929a68aee3d8d4848b0c5111b0a37b82b86ad559fd2a745b44d8e8d9dfdc0cac00180d8f000000004341046a0765b5865641ce08dd39690aade26dfbf5511430ca428a3089261361cef170e3929a68aee3d8d4848b0c5111b0a37b82b86ad559fd2a745b44d8e8d9dfdc0cac00000000"
    },
    {
      "txid": "3c1d7e82342158e4109df2e0b6348b6e84e403d8b4046d7007663ace63cddb23",
      "hash": "3c1d7e82342158e4109df2e0b6348b6e84e403d8b4046d7007663ace63cddb23",
      "version": 1,
      "size": 390,
      "vsize": 390,
      "weight": 1560,
      "locktime": 0,
      "vin": [
        {
          "txid": "6b0f8a73a56c04b519f1883e8aafda643ba61a30bd1439969df21bea5f4e27e2",
          "vout": 0,
          "scriptSig": {
            "asm": "3044022016e7a727a061ea2254a6c358376aaa617ac537eb836c77d646ebda4c748aac8b0220192ce28bf9f2c06a6467e6531e27648d2b3e2e2bae85159c9242939840295ba5[ALL]",
            "hex": "473044022016e7a727a061ea2254a6c358376aaa617ac537eb836c77d646ebda4c748aac8b0220192ce28bf9f2c06a6467e6531e27648d2b3e2e2bae85159c9242939840295ba501"
          },
          "sequence": 4294967295
        },
        {
          "txid": "6b0f8a73a56c04b519f1883e8aafda643ba61a30bd1439969df21bea5f4e27e2",
          "vout": 1,
          "scriptSig": {
            "asm": "3046022100b7a1a755588d4190118936e15cd217d133b0e4a53c3c15924010d5648d8925c9022100aaef031874db2114f2d869ac2de4ae53908fbfea5b2b1862e181626bb9005c9f[ALL]",
            "hex": "493046022100b7a1a755588d4190118936e15cd217d133b0e4a53c3c15924010d5648d8925c9022100aaef031874db2114f2d869ac2de4ae53908fbfea5b2b1862e181626bb9005c9f01"
          },
          "sequence": 4294967295
        }
      ],
      "vout": [
        {
          "value": 1.0,
          "n": 0,
          "scriptPubKey": {
            "asm": "044a656f065871a353f216ca26cef8dde2f03e8c16202d2e8ad769f02032cb86a5eb5e56842e92e19141d60a01928f8dd2c875a390f67c1f6c94cfc617c0ea45af OP_CHECKSIG",
            "desc": "pk(044a656f065871a353f216ca26cef8dde2f03e8c16202d2e8ad769f02032cb86a5eb5e56842e92e19141d60a01928f8dd2c875a390f67c1f6c94cfc617c0ea45af)#zm987h72",
            "hex": "41044a656f065871a353f216ca26cef8dde2f03e8c16202d2e8ad769f02032cb86a5eb5e56842e92e19141d60a01928f8dd2c875a390f67c1f6c94cfc617c0ea45afac",
            "type": "pubkey"
          }
        },
        {
          "value": 24.0,
          "n": 1,
          "scriptPubKey": {
            "asm": "046a0765b5865641ce08dd39690aade26dfbf5511430ca428a3089261361cef170e3929a68aee3d8d4848b0c5111b0a37b82b86ad559fd2a745b44d8e8d9dfdc0c OP_CHECKSIG",
            "desc": "pk(046a0765b5865641ce08dd39690aade26dfbf5511430ca428a3089261361cef170e3929a68aee3d8d4848b0c5111b0a37b82b86ad559fd2a745b44d8e8d9dfdc0c)#5jneylk9",
            "hex": "41046a0765b5865641ce08dd39690aade26dfbf5511430ca428a3089261361cef170e3929a68aee3d8d4848b0c5111b0a37b82b86ad559fd2a745b44d8e8d9dfdc0cac",
            "type": "pubkey"
          }
        }
      ],
      "fee": 0.0,
      "hex": "0100000002e2274e5fea1bf29d963914bd301aa63b64daaf8a3e88f119b5046ca5738a0f6b0000000048473044022016e7a727a061ea2254a6c358376aaa617ac537eb836c77d646ebda4c748aac8b0220192ce28bf9f2c06a6467e6531e27648d2b3e2e2bae85159c9242939840295ba501ffffffffe2274e5fea1bf29d963914bd301aa63b64daaf8a3e88f119b5046ca5738a0f6b010000004a493046022100b7a1a755588d4190118936e15cd217d133b0e4a53c3c15924010d5648d8925c9022100aaef031874db2114f2d869ac2de4ae53908fbfea5b2b1862e181626bb9005c9f01ffffffff0200e1f505000000004341044a656f065871a353f216ca26cef8dde2f03e8c16202d2e8ad769f02032cb86a5eb5e56842e92e19141d60a01928f8dd2c875a390f67c1f6c94cfc617c0ea45afac00180d8f000000004341046a0765b5865641ce08dd39690aade26dfbf5511430ca428a3089261361cef170e3929a68aee3d8d4848b0c5111b0a37b82b86ad559fd2a745b44d8e8d9dfdc0cac00000000"
    }
  ]
}