{
  "hash": "000000003f6405145c3d3e36acfeb3aefb090ee17e4e97554882f7dfc2ec4c34",
  "confirmations": 52293,
  "height": 805,
  "version": 1,
  "versionHex": "00000001",
  "merkleroot": "38f28bf4ad7118fa0145ba1425ebf6b1559856e3e9eae603966dd20b8bc9a48e",
  "time": 1232196637,
  "mediantime": 1232194705,
  "nonce": 2273299764,
  "bits": "1d00ffff",
  "difficulty": 1,
  "chainwork": "0000000000000000000000000000000000000000000000000000032603260326",
  "nTx": 1,
  "previousblockhash": "00000000d39e254b36f2332bf52c65b6ad300b8cfde371c7126cc04ef8a27f8e",
  "nextblockhash": "000000009c76994726d17e4caa1676a390e6b2eafbe3faf175f4fbcaee0bf289",
  "strippedsize": 216,
  "size": 216,
  "weight": 864,
  "tx": [
    {
      "txid": "38f28bf4ad7118fa0145ba1425ebf6b1559856e3e9eae603966dd20b8bc9a48e",
      "hash": "38f28bf4ad7118fa0145ba1425ebf6b1559856e3e9eae603966dd20b8bc9a48e",
      "version": 1,
      "size": 135,
      "vsize": 135,
      "weight": 540,
      "locktime": 0,
      "vin": [
        {
          "coinbase": "04ffff001d029301",
          "sequence": 4294967295
        }
      ],
      "vout": [
        {
          "value": 50.0,
          "n": 0,
          "scriptPubKey": {
            "asm": "0466a858fd0c504b4272301071637be1221ab2a2074cff2848e5af73ca2b5e2ef651ba751719c1ef582943c7e93a512fee139bec1024014be4f9603b47a33e4dc7 OP_CHECKSIG",
            "desc": "pk(0466a858fd0c504b4272301071637be1221ab2a2074cff2848e5af73ca2b5e2ef651ba751719c1ef582943c7e93a512fee139bec1024014be4f9603b47a33e4dc7)#2epjgxw7",
            "hex": "410466a858fd0c504b4272301071637be1221ab2a2074cff2848e5af73ca2b5e2ef651ba751719c1ef582943c7e93a512fee139bec1024014be4f9603b47a33e4dc7ac",
            "type": "pubkey"
          }
        }
      ],
      "hex": "01000000010000000000000000000000000000000000000000000000000000000000000000ffffffff0804ffff001d029301ffffffff0100f2052a0100000043410466a858fd0c504b4272301071637be1221ab2a2074cff2848e5af73ca2b5e2ef651ba751719c1ef582943c7e93a512fee139bec1024014be4f9603b47a33e4dc7ac00000000"
    }
  ]
}