{
  "hash": "000000003c0c87bfe19edc6b6896955baf3ba562203870f1737e253aca5b5412",
  "confirmations": 43400,
  "height": 9698,
  "version": 1,
  "versionHex": "00000001",
  "merkleroot": "7fb8fa3a595aaddf952334a06d5de34eaf33eeae2d41538f887ca25493b0f235",
  "time": 1238776423,
  "mediantime": 1238772372,
  "nonce": 2013976609,
  "bits": "1d00ffff",
  "difficulty": 1,
  "chainwork": "000000000000000000000000000000000000000000000000000025e325e325e3",
  "nTx": 1,
  "previousblockhash": "0000000050fee4db745e655a222e46f9efbb70f1f97d78d75903e0ef70540e42",
  "nextblockhash": "00000000132ba96301789fd490f26e5f0f0b849877f0c3a7e2d2df09dace892d",
  "strippedsize": 216,
  "size": 216,
  "weight": 864,
  "tx": [
    {
      "txid": "7fb8fa3a595aaddf952334a06d5de34eaf33eeae2d41538f887ca25493b0f235",
      "hash": "7fb8fa3a595aaddf952334a06d5de34eaf33eeae2d41538f887ca25493b0f235",
      "version": 1,
      "size": 135,
      "vsize": 135,
      "weight": 540,
      "locktime": 0,
      "vin": [
        {
          "coinbase": "04ffff001d025e08",
          "sequence": 4294967295
        }
      ],
      "vout": [
        {
          "value": 50.0,
          "n": 0,
          "scriptPubKey": {
            "asm": "04fc837565f3902106ce9e2a7d996dc1ad26e3163a95949cd6c18e148d21b232e1ace8c359f92eef48938aafbc30a587fac58a5f6ce28a60947d51e77755a37224 OP_CHECKSIG",
            "desc": "pk(04fc837565f3902106ce9e2a7d996dc1ad26e3163a95949cd6c18e148d21b232e1ace8c359f92eef48938aafbc30a587fac58a5f6ce28a60947d51e77755a37224)#hvxzjpvm",
            "hex": "4104fc837565f3902106ce9e2a7d996dc1ad26e3163a95949cd6c18e148d21b232e1ace8c359f92eef48938aafbc30a587fac58a5f6ce28a60947d51e77755a37224ac",
            "type": "pubkey"
          }
        }
      ],
      "hex": "01000000010000000000000000000000000000000000000000000000000000000000000000ffffffff0804ffff001d025e08ffffffff0100f2052a01000000434104fc837565f3902106ce9e2a7d996dc1ad26e3163a95949cd6c18e148d21b232e1ace8c359f92eef48938aafbc30a587fac58a5f6ce28a60947d51e77755a37224ac00000000"
    }
  ]
}