{
  "hash": "00000000d77df12843c43e959cf8afbb1b20e3625f698602639bec1635c7eb96",
  "confirmations": 51197,
  "height": 1901,
  "version": 1,
  "versionHex": "00000001",
  "merkleroot": "ff4ab3ed0f98f526791cbedd17c55567d49e0cd43f5b0e1bf59bf378032809d5",
  "time": 1232945096,
  "mediantime": 1232943270,
  "nonce": 3153356802,
  "bits": "1d00ffff",
  "difficulty": 1,
  "chainwork": "0000000000000000000000000000000000000000000000000000076e076e076e",
  "nTx": 1,
  "previousblockhash": "00000000e67f39a80dbba80e5bf130294ef460b89022c7a56c3df76ab2df2e71",
  "nextblockhash": "000000001ec525370be8bda598710df2b258cddb541c03d0d71fcaeb7fdfb2d1",
  "strippedsize": 216,
  "size": 216,
  "weight": 864,
  "tx": [
    {
      "txid": "ff4ab3ed0f98f526791cbedd17c55567d49e0cd43f5b0e1bf59bf378032809d5",
      "hash": "ff4ab3ed0f98f526791cbedd17c55567d49e0cd43f5b0e1bf59bf378032809d5",
      "version": 1,
      "size": 135,
      "vsize": 135,
      "weight": 540,
      "locktime": 0,
      "vin": [
        {
          "coinbase": "04ffff001d022805",
          "sequence": 4294967295
        }
      ],
      "vout": [
        {
          "value": 50.0,
          "n": 0,
          "scriptPubKey": {
            "asm": "043039675b7a54e7fe74da2c5c5ddf2cbc5f42cffd09b3f9dba5284359713395f8c6554e73c7fc3a238b4d91932005c69f77ae7d1382bb8fd53d9c5619023035b2 OP_CHECKSIG",
            "desc": "pk(043039675b7a54e7fe74da2c5c5ddf2cbc5f42cffd09b3f9dba5284359713395f8c6554e73c7fc3a238b4d91932005c69f77ae7d1382bb8fd53d9c5619023035b2)#ch8hjy2k",
            "hex": "41043039675b7a54e7fe74da2c5c5ddf2cbc5f42cffd09b3f9dba5284359713395f8c6554e73c7fc3a238b4d91932005c69f77ae7d1382bb8fd53d9c5619023035b2ac",
            "type": "pubkey"
          }
        }
      ],
      "hex": "01000000010000000000000000000000000000000000000000000000000000000000000000ffffffff0804ffff001d022805ffffffff0100f2052a010000004341043039675b7a54e7fe74da2c5c5ddf2cbc5f42cffd09b3f9dba5284359713395f8c6554e73c7fc3a238b4d91932005c69f77ae7d1382bb8fd53d9c5619023035b2ac00000000"
    }
  ]
}