{
  "hash": "000000005bcc4c9b9f0fd22ea09985abd17896a063be8ac81390e3d56b5eec71",
  "confirmations": 51817,
  "height": 1281,
  "version": 1,
  "versionHex": "00000001",
  "merkleroot": "e22ec1dbdb07a440786baa717fd1dc196bf03a3e2aeda2010fde9db78a21999a",
  "time": 1232560551,
  "mediantime": 1232556771,
  "nonce": 2551638324,
  "bits": "1d00ffff",
  "difficulty": 1,
  "chainwork": "0000000000000000000000000000000000000000000000000000050205020502",
  "nTx": 1,
  "previousblockhash": "00000000f6fe35b1054765089f743de53ae686fdf13b55d064399c2385404a22",
  "nextblockhash": "00000000671b1e2b5c146ae4a256ab6ae673eb09c8bae09500372fda89a9010f",
  "strippedsize": 216,
  "size": 216,
  "weight": 864,
  "tx": [
    {
      "txid": "e22ec1dbdb07a440786baa717fd1dc196bf03a3e2aeda2010fde9db78a21999a",
      "hash": "e22ec1dbdb07a440786baa717fd1dc196bf03a3e2aeda2010fde9db78a21999a",
      "version": 1,
      "size": 135,
      "vsize": 135,
      "weight": 540,
      "locktime": 0,
      "vin": [
        {
          "coinbase": "04ffff001d02fe09",
          "sequence": 4294967295
        }
      ],
      "vout": [
        {
          "value": 50.0,
          "n": 0,
          "scriptPubKey": {
            "asm": "049e470eef8095e2a32d23923da50a6a7cf2f9a6f2f993e3c5a0b3f73492a86fd117b11ad7e1f9c4c72acfe7d07a7b78f89c002c0cea38fa44e01856265750e4fd OP_CHECKSIG",
            "desc": "pk(049e470eef8095e2a32d23923da50a6a7cf2f9a6f2f993e3c5a0b3f73492a86fd117b11ad7e1f9c4c72acfe7d07a7b78f89c002c0cea38fa44e01856265750e4fd)#zjq2l5te",
            "hex": "41049e470eef8095e2a32d23923da50a6a7cf2f9a6f2f993e3c5a0b3f73492a86fd117b11ad7e1f9c4c72acfe7d07a7b78f89c002c0cea38fa44e01856265750e4fdac",
            "type": "pubkey"
          }
        }
      ],
      "hex": "01000000010000000000000000000000000000000000000000000000000000000000000000ffffffff0804ffff001d02fe09ffffffff0100f2052a010000004341049e470eef8095e2a32d23923da50a6a7cf2f9a6f2f993e3c5a0b3f73492a86fd117b11ad7e1f9c4c72acfe7d07a7b78f89c002c0cea38fa44e01856265750e4fdac00000000"
    }
  ]
}