{
  "hash": "00000000328493f88635f27acead8943a955a4aae184a7c3ef28e025deeb88f6",
  "confirmations": 46188,
  "height": 6910,
  "version": 1,
  "versionHex": "00000001",
  "merkleroot": "540280ec8fe43a497e24dbc888c967c6d8ab64e8edc7e2e60c4c15bc32a0092a",
  "time": 1236645846,
  "mediantime": 1236641477,
  "nonce": 67208812,
  "bits": "1d00ffff",
  "difficulty": 1,
  "chainwork": "00000000000000000000000000000000000000000000000000001aff1aff1aff",
  "nTx": 1,
  "previousblockhash": "00000000c38e2807c90c9c1a3fd5034e69d1f2710217ab0683a62a1bde438645",
  "nextblockhash": "00000000300be803b1f3a0eda0fc130389487f71325b8c506e48b3fabc69b9e9",
  "strippedsize": 216,
  "size": 216,
  "weight": 864,
  "tx": [
    {
      "txid": "540280ec8fe43a497e24dbc888c967c6d8ab64e8edc7e2e60c4c15bc32a0092a",
      "hash": "540280ec8fe43a497e24dbc888c967c6d8ab64e8edc7e2e60c4c15bc32a0092a",
      "version": 1,
      "size": 135,
      "vsize": 135,
      "weight": 540,
      "locktime": 0,
      "vin": [
        {
          "coinbase": "04ffff001d02c90c",
          "sequence": 4294967295
        }
      ],
      "vout": [
        {
          "value": 50.0,
          "n": 0,
          "scriptPubKey": {
            "asm": "042bd0eccc75f19e6ba81bc2bbe629af7dcd39c8861c823bc8b0132fad7af78e2ff06bba35e395a557703f60f8b398d27d09dacf71c451a2b3454dda638398a7a2 OP_CHECKSIG",
            "desc": "pk(042bd0eccc75f19e6ba81bc2bbe629af7dcd39c8861c823bc8b0132fad7af78e2ff06bba35e395a557703f60f8b398d27d09dacf71c451a2b3454dda638398a7a2)#gu3594fg",
            "hex": "41042bd0eccc75f19e6ba81bc2bbe629af7dcd39c8861c823bc8b0132fad7af78e2ff06bba35e395a557703f60f8b398d27d09dacf71c451a2b3454dda638398a7a2ac",
            "type": "pubkey"
          }
        }
      ],
      "hex": "01000000010000000000000000000000000000000000000000000000000000000000000000ffffffff0804ffff001d02c90cffffffff0100f2052a010000004341042bd0eccc75f19e6ba81bc2bbe629af7dcd39c8861c823bc8b0132fad7af78e2ff06bba35e395a557703f60f8b398d27d09dacf71c451a2b3454dda638398a7a2ac00000000"
    }
  ]
}