{
  "hash": "000000000f05d756c81fdd85f43ddea8eee709710427b43dbd6587a4a1c24ac0",
  "confirmations": 43331,
  "height": 9767,
  "version": 1,
  "versionHex": "00000001",
  "merkleroot": "aeb65d65aab6201c8d213a5fb435b13abe2e1190bb750c81a050b93e31a7555d",
  "time": 1238831224,
  "mediantime": 1238826752,
  "nonce": 2135401269,
  "bits": "1d00ffff",
  "difficulty": 1,
  "chainwork": "0000000000000000000000000000000000000000000000000000262826282628",
  "nTx": 1,
  "previousblockhash": "000000007619e5cedd018cf6e66990df5bf1326813e5ea15905e15033fe6e8b9",
  "nextblockhash": "00000000791297c9579f5746c8ab7d491c5f919ca930bc621d1dcfb5680111f6",
  "strippedsize": 216,
  "size": 216,
  "weight": 864,
  "tx": [
    {
      "txid": "aeb65d65aab6201c8d213a5fb435b13abe2e1190bb750c81a050b93e31a7555d",
      "hash": "aeb65d65aab6201c8d213a5fb435b13abe2e1190bb750c81a050b93e31a7555d",
      "version": 1,
      "size": 135,
      "vsize": 135,
      "weight": 540,
      "locktime": 0,
      "vin": [
        {
          "coinbase": "04ffff001d02100a",
          "sequence": 4294967295
        }
      ],
      "vout": [
        {
          "value": 50.0,
          "n": 0,
          "scriptPubKey": {
            "asm": "04d7288aad6dcb0bb5aa5788273e262dba22a217677ea5c6d51780f94e5ff61f9999443a7fe3986abc24e341625698116c07772f70c72acb430dd527208dd15383 OP_CHECKSIG",
            "desc": "pk(04d7288aad6dcb0bb5aa5788273e262dba22a217677ea5c6d51780f94e5ff61f9999443a7fe3986abc24e341625698116c07772f70c72acb430dd527208dd15383)#nh8l3d4f",
            "hex": "4104d7288aad6dcb0bb5aa5788273e262dba22a217677ea5c6d51780f94e5ff61f9999443a7fe3986abc24e341625698116c07772f70c72acb430dd527208dd15383ac",
            "type": "pubkey"
          }
        }
      ],
      "hex": "01000000010000000000000000000000000000000000000000000000000000000000000000ffffffff0804ffff001d02100affffffff0100f2052a01000000434104d7288aad6dcb0bb5aa5788273e262dba22a217677ea5c6d51780f94e5ff61f9999443a7fe3986abc24e341625698116c07772f70c72acb430dd527208dd15383ac00000000"
    }
  ]
}