{
  "hash": "000000005e7b8a93fc0b3a92f6a71382431519a6650b0609c3bf40fb539e8020",
  "confirmations": 48109,
  "height": 4989,
  "version": 1,
  "versionHex": "00000001",
  "merkleroot": "0cb37483da53abed07751ff50ef91ce3a76b186606acc26fbebbf191dc0a8ce3",
  "time": 1235131193,
  "mediantime": 1235129952,
  "nonce": 1978129,
  "bits": "1d00ffff",
  "difficulty": 1,
  "chainwork": "0000000000000000000000000000000000000000000000000000137e137e137e",
  "nTx": 1,
  "previousblockhash": "000000007ca8e0774811e5f1ccfd2492a57b6b4196b1b6a932f6768f4574374b",
  "nextblockhash": "0000000040ad5982384733ca14e235a6804d310646e0f53e1f9fa9919101eb40",
  "strippedsize": 215,
  "size": 215,
  "weight": 860,
  "tx": [
    {
      "txid": "0cb37483da53abed07751ff50ef91ce3a76b186606acc26fbebbf191dc0a8ce3",
      "hash": "0cb37483da53abed07751ff50ef91ce3a76b186606acc26fbebbf191dc0a8ce3",
      "version": 1,
      "size": 134,
      "vsize": 134,
      "weight": 536,
      "locktime": 0,
      "vin": [
        {
          "coinbase": "04ffff001d014e",
          "sequence": 4294967295
        }
      ],
      "vout": [
        {
          "value": 50.0,
          "n": 0,
          "scriptPubKey": {
            "asm": "04cb72507f44f5fab84b4bc9f7393be0081cfd76b56d7104b5123e4370d695656f8fd6ae53cb72656e46c5457905921b618af5026bd15c8345ca0d5f8032cd1961 OP_CHECKSIG",
            "desc": "pk(04cb72507f44f5fab84b4bc9f7393be0081cfd76b56d7104b5123e4370d695656f8fd6ae53cb72656e46c5457905921b618af5026bd15c8345ca0d5f8032cd1961)#ywje5xzf",
            "hex": "4104cb72507f44f5fab84b4bc9f7393be0081cfd76b56d7104b5123e4370d695656f8fd6ae53cb72656e46c5457905921b618af5026bd15c8345ca0d5f8032cd1961ac",
            "type": "pubkey"
          }
        }
      ],
      "hex": "01000000010000000000000000000000000000000000000000000000000000000000000000ffffffff0704ffff001d014effffffff0100f2052a01000000434104cb72507f44f5fab84b4bc9f7393be0081cfd76b56d7104b5123e4370d695656f8fd6ae53cb72656e46c5457905921b618af5026bd15c8345ca0d5f8032cd1961ac00000000"
    }
  ]
}