{
  "hash": "0000000068e1ce37e6d50d1e960255c00047d9c808146b77df2dc186ab1bc92a",
  "confirmations": 52023,
  "height": 120,
  "version": 1,
  "versionHex": "00000001",
  "merkleroot": "41d65efc188d9394e47987b39891254cdb35cdfbbcc5876193685994e8a6e6f5",
  "time": 1231675623,
  "mediantime": 1231671963,
  "nonce": 4019953974,
  "bits": "1d00ffff",
  "difficulty": 1,
  "chainwork": "0000000000000000000000000000000000000000000000000000007900790079",
  "nTx": 1,
  "previousblockhash": "00000000874690df6c40179f473fbe73aca69963823cc6b886e250bae690466a",
  "nextblockhash": "000000008a6086520151f1385c6f5a148572b0c36156d713b48e6e5b6330529b",
  "strippedsize": 216,
  "size": 216,
  "weight": 864,
  "tx": [
    {
      "txid": "41d65efc188d9394e47987b39891254cdb35cdfbbcc5876193685994e8a6e6f5",
      "hash": "41d65efc188d9394e47987b39891254cdb35cdfbbcc5876193685994e8a6e6f5",
      "version": 1,
      "size": 135,
      "vsize": 135,
      "weight": 540,
      "locktime": 0,
      "vin": [
        {
          "coinbase": "04ffff001d02cc00",
          "sequence": 4294967295
        }
      ],
      "vout": [
        {
          "value": 50.0,
          "n": 0,
          "scriptPubKey": {
            "asm": "0414f296079b181ab76cd817f8583761d9ba5b00ca46f16eadfab8e0bb3a2b0420831cfea00b5cfcd97a12fd14b469d9385140d187d2bd8add9a1044685db9552b OP_CHECKSIG",
            "desc": "pk(0414f296079b181ab76cd817f8583761d9ba5b00ca46f16eadfab8e0bb3a2b0420831cfea00b5cfcd97a12fd14b469d9385140d187d2bd8add9a1044685db9552b)#92j57jgs",
            "hex": "410414f296079b181ab76cd817f8583761d9ba5b00ca46f16eadfab8e0bb3a2b0420831cfea00b5cfcd97a12fd14b469d9385140d187d2bd8add9a1044685db9552bac",
            "type": "pubkey"
          }
        }
      ],
      "hex": "01000000010000000000000000000000000000000000000000000000000000000000000000ffffffff0804ffff001d02cc00ffffffff0100f2052a0100000043410414f296079b181ab76cd817f8583761d9ba5b00ca46f16eadfab8e0bb3a2b0420831cfea00b5cfcd97a12fd14b469d9385140d187d2bd8add9a1044685db9552bac00000000"
    }
  ]
}