{
  "hash": "00000000a84e2c5f5ffe8aeadbe796134a1882e69caf9c2d3ca8eaae4ae5a042",
  "confirmations": 47537,
  "height": 5561,
  "version": 1,
  "versionHex": "00000001",
  "merkleroot": "40ea042d9d6f3c8e0edad9d1204c1fb14585aec97e31f26809e61020aa7b4488",
  "time": 1235571910,
  "mediantime": 1235567328,
  "nonce": 3900399380,
  "bits": "1d00ffff",
  "difficulty": 1,
  "chainwork": "000000000000000000000000000000000000000000000000000015ba15ba15ba",
  "nTx": 1,
  "previousblockhash": "0000000089d94663a7f2c146c6aabca394848d8b87bcf685f8b2018883c27327",
  "nextblockhash": "0000000044dd5254c03c119184b8fa2aa777a0afe325ff152ef4dc877277a26a",
  "strippedsize": 216,
  "size": 216,
  "weight": 864,
  "tx": [
    {
      "txid": "40ea042d9d6f3c8e0edad9d1204c1fb14585aec97e31f26809e61020aa7b4488",
      "hash": "40ea042d9d6f3c8e0edad9d1204c1fb14585aec97e31f26809e61020aa7b4488",
      "version": 1,
      "size": 135,
      "vsize": 135,
      "weight": 540,
      "locktime": 0,
      "vin": [
        {
          "coinbase": "04ffff001d02d606",
          "sequence": 4294967295
        }
      ],
      "vout": [
        {
          "value": 50.0,
          "n": 0,
          "scriptPubKey": {
            "asm": "04e1a30e054a8f7f992a950e149f7aa794bb13b8c102fd2bc7b9ae51a4bed4866cc5f76addab4287249283e571de65c189e4b501fc2c73bbf599f32b98a31d49ea OP_CHECKSIG",
            "desc": "pk(04e1a30e054a8f7f992a950e149f7aa794bb13b8c102fd2bc7b9ae51a4bed4866cc5f76addab4287249283e571de65c189e4b501fc2c73bbf599f32b98a31d49ea)#gqpwuyx0",
            "hex": "4104e1a30e054a8f7f992a950e149f7aa794bb13b8c102fd2bc7b9ae51a4bed4866cc5f76addab4287249283e571de65c189e4b501fc2c73bbf599f32b98a31d49eaac",
            "type": "pubkey"
          }
        }
      ],
      "hex": "01000000010000000000000000000000000000000000000000000000000000000000000000ffffffff0804ffff001d02d606ffffffff0100f2052a01000000434104e1a30e054a8f7f992a950e149f7aa794bb13b8c102fd2bc7b9ae51a4bed4866cc5f76addab4287249283e571de65c189e4b501fc2c73bbf599f32b98a31d49eaac00000000"
    }
  ]
}