{
  "hash": "000000004e4adedd77c0d4f21d173f014969e998558f9dd3d512d9a53d322317",
  "confirmations": 50487,
  "height": 2611,
  "version": 1,
  "versionHex": "00000001",
  "merkleroot": "2883524d8f79dfb00749f87ed4b76f8b344c6fe0f854f93f65358c847ca8f6c6",
  "time": 1233501853,
  "mediantime": 1233499099,
  "nonce": 113060259,
  "bits": "1d00ffff",
  "difficulty": 1,
  "chainwork": "00000000000000000000000000000000000000000000000000000a340a340a34",
  "nTx": 1,
  "previousblockhash": "00000000279241dc111765893cab93b90d93fc75d307fa4894c70b90a4aaab54",
  "nextblockhash": "000000000d94d4bce4eb076b5f0bd4dc784887ac8bbb2fe9b45efbe34e20f897",
  "strippedsize": 216,
  "size": 216,
  "weight": 864,
  "tx": [
    {
      "txid": "2883524d8f79dfb00749f87ed4b76f8b344c6fe0f854f93f65358c847ca8f6c6",
      "hash": "2883524d8f79dfb00749f87ed4b76f8b344c6fe0f854f93f65358c847ca8f6c6",
      "version": 1,
      "size": 135,
      "vsize": 135,
      "weight": 540,
      "locktime": 0,
      "vin": [
        {
          "coinbase": "04ffff001d02db00",
          "sequence": 4294967295
        }
      ],
      "vout": [
        {
          "value": 50.0,
          "n": 0,
          "scriptPubKey": {
            "asm": "049ba426b1aa78cae9ae1fdef6fe9d400ccdb466edb86886e3bdef3e4804ee1fe48f8ff8bf5aeef6752296969b07ad1b69cbcf48b3a7d913a55113771603adaf03 OP_CHECKSIG",
            "desc": "pk(049ba426b1aa78cae9ae1fdef6fe9d400ccdb466edb86886e3bdef3e4804ee1fe48f8ff8bf5aeef6752296969b07ad1b69cbcf48b3a7d913a55113771603adaf03)#mdsu4zp0",
            "hex": "41049ba426b1aa78cae9ae1fdef6fe9d400ccdb466edb86886e3bdef3e4804ee1fe48f8ff8bf5aeef6752296969b07ad1b69cbcf48b3a7d913a55113771603adaf03ac",
            "type": "pubkey"
          }
        }
      ],
      "hex": "01000000010000000000000000000000000000000000000000000000000000000000000000ffffffff0804ffff001d02db00ffffffff0100f2052a010000004341049ba426b1aa78cae9ae1fdef6fe9d400ccdb466edb86886e3bdef3e4804ee1fe48f8ff8bf5aeef6752296969b07ad1b69cbcf48b3a7d913a55113771603adaf03ac00000000"
    }
  ]
}