{
  "hash": "00000000040ea4732f40af0f7392e3b97a4b58309fb012a625120be5899f3f2d",
  "confirmations": 50696,
  "height": 2402,
  "version": 1,
  "versionHex": "00000001",
  "merkleroot": "ff9229aec4b808183fd9a38f7408d5ef0a6e2417e5c3374890fb62827a701142",
  "time": 1233356505,
  "mediantime": 1233352257,
  "nonce": 3135827461,
  "bits": "1d00ffff",
  "difficulty": 1,
  "chainwork": "0000000000000000000000000000000000000000000000000000096309630963",
  "nTx": 1,
  "previousblockhash": "00000000b127bfefe6afc98908e6071840b979cbd26a54f8b545908176ca4022",
  "nextblockhash": "00000000a8dbbd2c5c1b17611ddde87ef045a49e528dd91df13d4ef0f80ef03e",
  "strippedsize": 215,
  "size": 215,
  "weight": 860,
  "tx": [
    {
      "txid": "ff9229aec4b808183fd9a38f7408d5ef0a6e2417e5c3374890fb62827a701142",
      "hash": "ff9229aec4b808183fd9a38f7408d5ef0a6e2417e5c3374890fb62827a701142",
      "version": 1,
      "size": 134,
      "vsize": 134,
      "weight": 536,
      "locktime": 0,
      "vin": [
        {
          "coinbase": "04ffff001d0108",
          "sequence": 4294967295
        }
      ],
      "vout": [
        {
          "value": 50.0,
          "n": 0,
          "scriptPubKey": {
            "asm": "0496ea94bcd883de92e9095a4e1b0f5ec122dc91fc24f6b4384422f23b67e03a67e543a8ee5850b4f9c54fb0eed464a0a992ef73acfeb8eb1158bfdd8a975b8dab OP_CHECKSIG",
            "desc": "pk(0496ea94bcd883de92e9095a4e1b0f5ec122dc91fc24f6b4384422f23b67e03a67e543a8ee5850b4f9c54fb0eed464a0a992ef73acfeb8eb1158bfdd8a975b8dab)#gt9qr6aj",
            "hex": "410496ea94bcd883de92e9095a4e1b0f5ec122dc91fc24f6b4384422f23b67e03a67e543a8ee5850b4f9c54fb0eed464a0a992ef73acfeb8eb1158bfdd8a975b8dabac",
            "type": "pubkey"
          }
        }
      ],
      "hex": "01000000010000000000000000000000000000000000000000000000000000000000000000ffffffff0704ffff001d0108ffffffff0100f2052a0100000043410496ea94bcd883de92e9095a4e1b0f5ec122dc91fc24f6b4384422f23b67e03a67e543a8ee5850b4f9c54fb0eed464a0a992ef73acfeb8eb1158bfdd8a975b8dabac00000000"
    }
  ]
}