{
  "hash": "00000000cf4d5db0e86593924cd37beade54cd8085942f83248d1f5fa3871284",
  "confirmations": 46851,
  "height": 6247,
  "version": 1,
  "versionHex": "00000001",
  "merkleroot": "83e5cf40a2f4017b3fef05694f65d0f787c72e77f7e4694862bae342691a413e",
  "time": 1236130062,
  "mediantime": 1236124908,
  "nonce": 2791535113,
  "bits": "1d00ffff",
  "difficulty": 1,
  "chainwork": "0000000000000000000000000000000000000000000000000000186818681868",
  "nTx": 1,
  "previousblockhash": "0000000061a39096a7d96eefd98961e4c82fc750e9a5ebef9fdcb8706f6ed828",
  "nextblockhash": "00000000b032d6ca616df20b1c993ec5ff58b856ac76ed8c43a967b688e0c28d",
  "strippedsize": 216,
  "size": 216,
  "weight": 864,
  "tx": [
    {
      "txid": "83e5cf40a2f4017b3fef05694f65d0f787c72e77f7e4694862bae342691a413e",
      "hash": "83e5cf40a2f4017b3fef05694f65d0f787c72e77f7e4694862bae342691a413e",
      "version": 1,
      "size": 135,
      "vsize": 135,
      "weight": 540,
      "locktime": 0,
      "vin": [
        {
          "coinbase": "04ffff001d027c09",
          "sequence": 4294967295
        }
      ],
      "vout": [
        {
          "value": 50.0,
          "n": 0,
          "scriptPubKey": {
            "asm": "047f0d7123156cf0da8eed55dbc9919645f3f8ae6d53aed007c7fa44c777144768342d3d60447b8bdadaa5ae2c7706953169ddecc3478ae2ac3e173f14d6e725f8 OP_CHECKSIG",
            "desc": "pk(047f0d7123156cf0da8eed55dbc9919645f3f8ae6d53aed007c7fa44c777144768342d3d60447b8bdadaa5ae2c7706953169ddecc3478ae2ac3e173f14d6e725f8)#7j2sggee",
            "hex": "41047f0d7123156cf0da8eed55dbc9919645f3f8ae6d53aed007c7fa44c777144768342d3d60447b8bdadaa5ae2c7706953169ddecc3478ae2ac3e173f14d6e725f8ac",
            "type": "pubkey"
          }
        }
      ],
      "hex": "01000000010000000000000000000000000000000000000000000000000000000000000000ffffffff0804ffff001d027c09ffffffff0100f2052a010000004341047f0d7123156cf0da8eed55dbc9919645f3f8ae6d53aed007c7fa44c777144768342d3d60447b8bdadaa5ae2c7706953169ddecc3478ae2ac3e173f14d6e725f8ac00000000"
    }
  ]
}