{
  "hash": "00000000745067eb1bc28aa5f31d157455e8eef074c8c998174bfcecaeb488f4",
  "confirmations": 51490,
  "height": 1608,
  "version": 1,
  "versionHex": "00000001",
  "merkleroot": "f8577d0e9ee99cc1af28a838e5f371d84b588fb8c1b3c84f0f146a6dce7e6298",
  "time": 1232814699,
  "mediantime": 1232812543,
  "nonce": 2505509889,
  "bits": "1d00ffff",
  "difficulty": 1,
  "chainwork": "0000000000000000000000000000000000000000000000000000064906490649",
  "nTx": 1,
  "previousblockhash": "00000000fc33b76de0621880e0cad2f6bd24e48250c461258dc8c6a6a3253c7a",
  "nextblockhash": "000000008b1ffe418820785bc733082b62377cb97b2ee2282e4bcb6d70823738",
  "strippedsize": 216,
  "size": 216,
  "weight": 864,
  "tx": [
    {
      "txid": "f8577d0e9ee99cc1af28a838e5f371d84b588fb8c1b3c84f0f146a6dce7e6298",
      "hash": "f8577d0e9ee99cc1af28a838e5f371d84b588fb8c1b3c84f0f146a6dce7e6298",
      "version": 1,
      "size": 135,
      "vsize": 135,
      "weight": 540,
      "locktime": 0,
      "vin": [
        {
          "coinbase": "04ffff001d021d02",
          "sequence": 4294967295
        }
      ],
      "vout": [
        {
          "value": 50.0,
          "n": 0,
          "scriptPubKey": {
            "asm": "04141a5da5074f4d237d4c202fdcf65f9dcec998c5dccb06d5d3e53b31d2835d73d5ff1ca81d7b5ff28b9f1734259c6fda0ac917b3804720f21af3cd04461597fa OP_CHECKSIG",
            "desc": "pk(04141a5da5074f4d237d4c202fdcf65f9dcec998c5dccb06d5d3e53b31d2835d73d5ff1ca81d7b5ff28b9f1734259c6fda0ac917b3804720f21af3cd04461597fa)#qwnzfjgs",
            "hex": "4104141a5da5074f4d237d4c202fdcf65f9dcec998c5dccb06d5d3e53b31d2835d73d5ff1ca81d7b5ff28b9f1734259c6fda0ac917b3804720f21af3cd04461597faac",
            "type": "pubkey"
          }
        }
      ],
      "hex": "01000000010000000000000000000000000000000000000000000000000000000000000000ffffffff0804ffff001d021d02ffffffff0100f2052a01000000434104141a5da5074f4d237d4c202fdcf65f9dcec998c5dccb06d5d3e53b31d2835d73d5ff1ca81d7b5ff28b9f1734259c6fda0ac917b3804720f21af3cd04461597faac00000000"
    }
  ]
}