{
  "hash": "00000000f87025fc25b08d602f23a4754d368fe8e3c9fc8505b1a101874dd1eb",
  "confirmations": 45683,
  "height": 7415,
  "version": 1,
  "versionHex": "00000001",
  "merkleroot": "63dcc2d06545a6e149335987db08a4f53baa6a4d9106b8c59ac9ba5f516c7b2a",
  "time": 1237034193,
  "mediantime": 1237030594,
  "nonce": 3121633026,
  "bits": "1d00ffff",
  "difficulty": 1,
  "chainwork": "00000000000000000000000000000000000000000000000000001cf81cf81cf8",
  "nTx": 1,
  "previousblockhash": "00000000b442dac97577aad8d7530f80664023dd5634e13887563239ffb45f6a",
  "nextblockhash": "0000000059824cf5bc5d1d0af1c7dd8608d5c7d91d49b2d9c233332e47dd9d22",
  "strippedsize": 216,
  "size": 216,
  "weight": 864,
  "tx": [
    {
      "txid": "63dcc2d06545a6e149335987db08a4f53baa6a4d9106b8c59ac9ba5f516c7b2a",
      "hash": "63dcc2d06545a6e149335987db08a4f53baa6a4d9106b8c59ac9ba5f516c7b2a",
      "version": 1,
      "size": 135,
      "vsize": 135,
      "weight": 540,
      "locktime": 0,
      "vin": [
        {
          "coinbase": "04ffff001d02ac09",
          "sequence": 4294967295
        }
      ],
      "vout": [
        {
          "value": 50.0,
          "n": 0,
          "scriptPubKey": {
            "asm": "041cc8aa5eb3e54412dddfb7cba120d323542743b0a8978aa60db4be3d4a10c78bc99d9505ae3743d0979eb2f7dd3016c8acfa11ebe8a17d6dd6b32a3a38ef7e73 OP_CHECKSIG",
            "desc": "pk(041cc8aa5eb3e54412dddfb7cba120d323542743b0a8978aa60db4be3d4a10c78bc99d9505ae3743d0979eb2f7dd3016c8acfa11ebe8a17d6dd6b32a3a38ef7e73)#sxwdz5hq",
            "hex": "41041cc8aa5eb3e54412dddfb7cba120d323542743b0a8978aa60db4be3d4a10c78bc99d9505ae3743d0979eb2f7dd3016c8acfa11ebe8a17d6dd6b32a3a38ef7e73ac",
            "type": "pubkey"
          }
        }
      ],
      "hex": "01000000010000000000000000000000000000000000000000000000000000000000000000ffffffff0804ffff001d02ac09ffffffff0100f2052a010000004341041cc8aa5eb3e54412dddfb7cba120d323542743b0a8978aa60db4be3d4a10c78bc99d9505ae3743d0979eb2f7dd3016c8acfa11ebe8a17d6dd6b32a3a38ef7e73ac00000000"
    }
  ]
}