{
  "hash": "00000000fba98431e9ae62d68ffb4c6f36f7bfe5183f606a0d81ec57a248705e",
  "confirmations": 44330,
  "height": 8768,
  "version": 1,
  "versionHex": "00000001",
  "merkleroot": "62af137628dd159c38846bb9f8f19b49fa43a57716d3eda586933edf77c03d24",
  "time": 1238075709,
  "mediantime": 1238073203,
  "nonce": 3404279834,
  "bits": "1d00ffff",
  "difficulty": 1,
  "chainwork": "0000000000000000000000000000000000000000000000000000224122412241",
  "nTx": 1,
  "previousblockhash": "00000000271b3f3bdfb6cc077990cfb6dc26c45dcda1c398159bf66eef14fb83",
  "nextblockhash": "0000000058151e93ee65c129781f080761d8ef0292d3a47a67b8a562304272e9",
  "strippedsize": 216,
  "size": 216,
  "weight": 864,
  "tx": [
    {
      "txid": "62af137628dd159c38846bb9f8f19b49fa43a57716d3eda586933edf77c03d24",
      "hash": "62af137628dd159c38846bb9f8f19b49fa43a57716d3eda586933edf77c03d24",
      "version": 1,
      "size": 135,
      "vsize": 135,
      "weight": 540,
      "locktime": 0,
      "vin": [
        {
          "coinbase": "04ffff001d020302",
          "sequence": 4294967295
        }
      ],
      "vout": [
        {
          "value": 50.0,
          "n": 0,
          "scriptPubKey": {
            "asm": "04e21c99bf3af5ca36cd2b96b2dbd86c9aec65aaed013441e10518c088da8ad9a1c34f3f61ee75775af7b8236436263a6294026a354c6a933bd94efa54cd5b8732 OP_CHECKSIG",
            "desc": "pk(04e21c99bf3af5ca36cd2b96b2dbd86c9aec65aaed013441e10518c088da8ad9a1c34f3f61ee75775af7b8236436263a6294026a354c6a933bd94efa54cd5b8732)#2t87jdp4",
            "hex": "4104e21c99bf3af5ca36cd2b96b2dbd86c9aec65aaed013441e10518c088da8ad9a1c34f3f61ee75775af7b8236436263a6294026a354c6a933bd94efa54cd5b8732ac",
            "type": "pubkey"
          }
        }
      ],
      "hex": "01000000010000000000000000000000000000000000000000000000000000000000000000ffffffff0804ffff001d020302ffffffff0100f2052a01000000434104e21c99bf3af5ca36cd2b96b2dbd86c9aec65aaed013441e10518c088da8ad9a1c34f3f61ee75775af7b8236436263a6294026a354c6a933bd94efa54cd5b8732ac00000000"
    }
  ]
}