{
  "hash": "00000000fa26cfce2cdce6a5df7491f71cdfc8e75c61b6e26ecdd361ff052763",
  "confirmations": 51079,
  "height": 2019,
  "version": 1,
  "versionHex": "00000001",
  "merkleroot": "af9873d29df492e031ce1121322ac591a81084568efe78cb3e410fde03e68d63",
  "time": 1233067200,
  "mediantime": 1233061610,
  "nonce": 193239592,
  "bits": "1d00ffff",
  "difficulty": 1,
  "chainwork": "000000000000000000000000000000000000000000000000000007e407e407e4",
  "nTx": 1,
  "previousblockhash": "00000000f42278032e65a8fc09a41fbbd1779421d166e59c205a37b6fdad1340",
  "nextblockhash": "00000000a2090ecd638c98afa5785d69eb9c84fbc1201f259f729a28190791d3",
  "strippedsize": 216,
  "size": 216,
  "weight": 864,
  "tx": [
    {
      "txid": "af9873d29df492e031ce1121322ac591a81084568efe78cb3e410fde03e68d63",
      "hash": "af9873d29df492e031ce1121322ac591a81084568efe78cb3e410fde03e68d63",
      "version": 1,
      "size": 135,
      "vsize": 135,
      "weight": 540,
      "locktime": 0,
      "vin": [
        {
          "coinbase": "04ffff001d020b02",
          "sequence": 4294967295
        }
      ],
      "vout": [
        {
          "value": 50.0,
          "n": 0,
          "scriptPubKey": {
            "asm": "0448fc3fd6ddc82d80e695d9d4fdc0bdb6a79aaddeda034944e3b3b06964d8a612f5b84e1ab10d4863c864d95e0552ab7830b1931e1494bc35cd633faba0ec90d2 OP_CHECKSIG",
            "desc": "pk(0448fc3fd6ddc82d80e695d9d4fdc0bdb6a79aaddeda034944e3b3b06964d8a612f5b84e1ab10d4863c864d95e0552ab7830b1931e1494bc35cd633faba0ec90d2)#fx373669",
            "hex": "410448fc3fd6ddc82d80e695d9d4fdc0bdb6a79aaddeda034944e3b3b06964d8a612f5b84e1ab10d4863c864d95e0552ab7830b1931e1494bc35cd633faba0ec90d2ac",
            "type": "pubkey"
          }
        }
      ],
      "hex": "01000000010000000000000000000000000000000000000000000000000000000000000000ffffffff0804ffff001d020b02ffffffff0100f2052a0100000043410448fc3fd6ddc82d80e695d9d4fdc0bdb6a79aaddeda034944e3b3b06964d8a612f5b84e1ab10d4863c864d95e0552ab7830b1931e1494bc35cd633faba0ec90d2ac00000000"
    }
  ]
}