{
  "hash": "000000009d640b0a5751d997cffade8a7e2e1e91c0c0bf6b395581c2801de0d1",
  "confirmations": 44483,
  "height": 8615,
  "version": 1,
  "versionHex": "00000001",
  "merkleroot": "49b79502558f5f30f74b62a6279e69ce4a23707971c6475e6d070a6b77ee2408",
  "time": 1237959793,
  "mediantime": 1237956667,
  "nonce": 116492086,
  "bits": "1d00ffff",
  "difficulty": 1,
  "chainwork": "000000000000000000000000000000000000000000000000000021a821a821a8",
  "nTx": 1,
  "previousblockhash": "000000008787f54e90e3b15e55ee664fdedd2a5c2bd37d51cb52324c6a41cc40",
  "nextblockhash": "00000000cdaf56834e72c459dfa4ed9025b42e9fa5a86d5bde39f98b8848d0f1",
  "strippedsize": 216,
  "size": 216,
  "weight": 864,
  "tx": [
    {
      "txid": "49b79502558f5f30f74b62a6279e69ce4a23707971c6475e6d070a6b77ee2408",
      "hash": "49b79502558f5f30f74b62a6279e69ce4a23707971c6475e6d070a6b77ee2408",
      "version": 1,
      "size": 135,
      "vsize": 135,
      "weight": 540,
      "locktime": 0,
      "vin": [
        {
          "coinbase": "04ffff001d02ab03",
          "sequence": 4294967295
        }
      ],
      "vout": [
        {
          "value": 50.0,
          "n": 0,
          "scriptPubKey": {
            "asm": "049e3a195834b429075dd86644c1d8ee0eab7bbf58d844ce0297818d0a2923e00ad9ae479ec1bb380995310c2a35d6f9f9d319d00519b4cbab57dcbc6c9c3f4696 OP_CHECKSIG",
            "desc": "pk(049e3a195834b429075dd86644c1d8ee0eab7bbf58d844ce0297818d0a2923e00ad9ae479ec1bb380995310c2a35d6f9f9d319d00519b4cbab57dcbc6c9c3f4696)#c6qrlfs4",
            "hex": "41049e3a195834b429075dd86644c1d8ee0eab7bbf58d844ce0297818d0a2923e00ad9ae479ec1bb380995310c2a35d6f9f9d319d00519b4cbab57dcbc6c9c3f4696ac",
            "type": "pubkey"
          }
        }
      ],
      "hex": "01000000010000000000000000000000000000000000000000000000000000000000000000ffffffff0804ffff001d02ab03ffffffff0100f2052a010000004341049e3a195834b429075dd86644c1d8ee0eab7bbf58d844ce0297818d0a2923e00ad9ae479ec1bb380995310c2a35d6f9f9d319d00519b4cbab57dcbc6c9c3f4696ac00000000"
    }
  ]
}