{
  "hash": "00000000b2985c1d290f3ccdbb5c91f0bbed2f3a220b363e5abe11106e596351",
  "confirmations": 46280,
  "height": 6818,
  "version": 1,
  "versionHex": "00000001",
  "merkleroot": "c54091444b6c3a52b2e5c15d2b6f09f549e03fa2a5d5f50363b860bc2b61bf94",
  "time": 1236569466,
  "mediantime": 1236564981,
  "nonce": 1213330713,
  "bits": "1d00ffff",
  "difficulty": 1,
  "chainwork": "00000000000000000000000000000000000000000000000000001aa31aa31aa3",
  "nTx": 1,
  "previousblockhash": "0000000080098f80993ab8399f06e3ab935cdfa98e90b4699b2d56aed410a785",
  "nextblockhash": "00000000ff2ed20ea31ca87c034d0ce0c3624572ad84f1025d41b070b599c7b5",
  "strippedsize": 216,
  "size": 216,
  "weight": 864,
  "tx": [
    {
      "txid": "c54091444b6c3a52b2e5c15d2b6f09f549e03fa2a5d5f50363b860bc2b61bf94",
      "hash": "c54091444b6c3a52b2e5c15d2b6f09f549e03fa2a5d5f50363b860bc2b61bf94",
      "version": 1,
      "size": 135,
      "vsize": 135,
      "weight": 540,
      "locktime": 0,
      "vin": [
        {
          "coinbase": "04ffff001d024b09",
          "sequence": 4294967295
        }
      ],
      "vout": [
        {
          "value": 50.0,
          "n": 0,
          "scriptPubKey": {
            "asm": "04634448c32b05dbddf55c221b220ec3d58d1f635c96b37b448a95c3232429e7fde038e2452a512658a7bb4c5d37af90265f83e4942d43b9e60e0a7410bfa08ce9 OP_CHECKSIG",
            "desc": "pk(04634448c32b05dbddf55c221b220ec3d58d1f635c96b37b448a95c3232429e7fde038e2452a512658a7bb4c5d37af90265f83e4942d43b9e60e0a7410bfa08ce9)#gnst9xnd",
            "hex": "4104634448c32b05dbddf55c221b220ec3d58d1f635c96b37b448a95c3232429e7fde038e2452a512658a7bb4c5d37af90265f83e4942d43b9e60e0a7410bfa08ce9ac",
            "type": "pubkey"
          }
        }
      ],
      "hex": "01000000010000000000000000000000000000000000000000000000000000000000000000ffffffff0804ffff001d024b09ffffffff0100f2052a01000000434104634448c32b05dbddf55c221b220ec3d58d1f635c96b37b448a95c3232429e7fde038e2452a512658a7bb4c5d37af90265f83e4942d43b9e60e0a7410bfa08ce9ac00000000"
    }
  ]
}