{
  "hash": "00000000f60e812b7507868fc262a287ac319700056d56b54e41737604e2f6a3",
  "confirmations": 45582,
  "height": 7516,
  "version": 1,
  "versionHex": "00000001",
  "merkleroot": "bb667352230b94d709eb8d3fa408b8bfffaa886a3c845c78667c68e9ca474d7a",
  "time": 1237108155,
  "mediantime": 1237104696,
  "nonce": 2391422997,
  "bits": "1d00ffff",
  "difficulty": 1,
  "chainwork": "00000000000000000000000000000000000000000000000000001d5d1d5d1d5d",
  "nTx": 1,
  "previousblockhash": "000000009644cb78cc9e69845adb7bcb6840f5077f259854dda255f722576cc8",
  "nextblockhash": "000000001f91e37ad5165ede25490fb2933149d8beb4de4505a7fa734f997edb",
  "strippedsize": 216,
  "size": 216,
  "weight": 864,
  "tx": [
    {
      "txid": "bb667352230b94d709eb8d3fa408b8bfffaa886a3c845c78667c68e9ca474d7a",
      "hash": "bb667352230b94d709eb8d3fa408b8bfffaa886a3c845c78667c68e9ca474d7a",
      "version": 1,
      "size": 135,
      "vsize": 135,
      "weight": 540,
      "locktime": 0,
      "vin": [
        {
          "coinbase": "04ffff001d023201",
          "sequence": 4294967295
        }
      ],
      "vout": [
        {
          "value": 50.0,
          "n": 0,
          "scriptPubKey": {
            "asm": "04058989c98fd4f184e102768d6bfd863d898528e77b6ee1887e9226d181899a07a3116deec3208c5f864918e59b271565d0afae465cb442708c70992968cb81ee OP_CHECKSIG",
            "desc": "pk(04058989c98fd4f184e102768d6bfd863d898528e77b6ee1887e9226d181899a07a3116deec3208c5f864918e59b271565d0afae465cb442708c70992968cb81ee)#jj93tvu7",
            "hex": "4104058989c98fd4f184e102768d6bfd863d898528e77b6ee1887e9226d181899a07a3116deec3208c5f864918e59b271565d0afae465cb442708c70992968cb81eeac",
            "type": "pubkey"
          }
        }
      ],
      "hex": "01000000010000000000000000000000000000000000000000000000000000000000000000ffffffff0804ffff001d023201ffffffff0100f2052a01000000434104058989c98fd4f184e102768d6bfd863d898528e77b6ee1887e9226d181899a07a3116deec3208c5f864918e59b271565d0afae465cb442708c70992968cb81eeac00000000"
    }
  ]
}