{
  "hash": "000000005a2d6394da35269c09425f59f4d76c5b486b2d6b617f30bbd4fb79dd",
  "confirmations": 51038,
  "height": 2060,
  "version": 1,
  "versionHex": "00000001",
  "merkleroot": "feeef0e8e1681699d136811d32903bbf069acb7fac3eb2efb25b1d970ee169a4",
  "time": 1233105973,
  "mediantime": 1233100473,
  "nonce": 1143729702,
  "bits": "1d00ffff",
  "difficulty": 1,
  "chainwork": "0000000000000000000000000000000000000000000000000000080d080d080d",
  "nTx": 1,
  "previousblockhash": "000000004fdc363a128276c9acbf4e4e9217a9a88852b6682d71a637d029c21f",
  "nextblockhash": "00000000cd2ae5e37f774026a30f6880fb5de6e73f0c6f27cb0e119e607e4b6d",
  "strippedsize": 216,
  "size": 216,
  "weight": 864,
  "tx": [
    {
      "txid": "feeef0e8e1681699d136811d32903bbf069acb7fac3eb2efb25b1d970ee169a4",
      "hash": "feeef0e8e1681699d136811d32903bbf069acb7fac3eb2efb25b1d970ee169a4",
      "version": 1,
      "size": 135,
      "vsize": 135,
      "weight": 540,
      "locktime": 0,
      "vin": [
        {
          "coinbase": "04ffff001d02fa02",
          "sequence": 4294967295
        }
      ],
      "vout": [
        {
          "value": 50.0,
          "n": 0,
          "scriptPubKey": {
            "asm": "04515bcc7007451a591400a8faf5ce043cf9c50645d6703fa4eaf3f2b4be1611aee55c7e98daedb8e25ef8c06a82ace317622c153ca325c16c0749629a2560e817 OP_CHECKSIG",
            "desc": "pk(04515bcc7007451a591400a8faf5ce043cf9c50645d6703fa4eaf3f2b4be1611aee55c7e98daedb8e25ef8c06a82ace317622c153ca325c16c0749629a2560e817)#k98mhw0g",
            "hex": "4104515bcc7007451a591400a8faf5ce043cf9c50645d6703fa4eaf3f2b4be1611aee55c7e98daedb8e25ef8c06a82ace317622c153ca325c16c0749629a2560e817ac",
            "type": "pubkey"
          }
        }
      ],
      "hex": "01000000010000000000000000000000000000000000000000000000000000000000000000ffffffff0804ffff001d02fa02ffffffff0100f2052a01000000434104515bcc7007451a591400a8faf5ce043cf9c50645d6703fa4eaf3f2b4be1611aee55c7e98daedb8e25ef8c06a82ace317622c153ca325c16c0749629a2560e817ac00000000"
    }
  ]
}