{
  "hash": "000000001c3119accc6f62bc92607a4bd4a3878bfeb643ac91b95ca547159ffe",
  "confirmations": 51190,
  "height": 1908,
  "version": 1,
  "versionHex": "00000001",
  "merkleroot": "24b2662cf01fcd0fc1a967ee409c94da18616f32592cf4d85f1099cf7bbeb59d",
  "time": 1232948917,
  "mediantime": 1232946068,
  "nonce": 1755126300,
  "bits": "1d00ffff",
  "difficulty": 1,
  "chainwork": "0000000000000000000000000000000000000000000000000000077507750775",
  "nTx": 1,
  "previousblockhash": "000000002878b44af3dd0ef5065c5846c14b092f842b3a4a5377f0e28bc174b6",
  "nextblockhash": "00000000a5ae2c2c8b85706a041592fd81b9d3f4f56e8e760999003bd1eaed93",
  "strippedsize": 216,
  "size": 216,
  "weight": 864,
  "tx": [
    {
      "txid": "24b2662cf01fcd0fc1a967ee409c94da18616f32592cf4d85f1099cf7bbeb59d",
      "hash": "24b2662cf01fcd0fc1a967ee409c94da18616f32592cf4d85f1099cf7bbeb59d",
      "version": 1,
      "size": 135,
      "vsize": 135,
      "weight": 540,
      "locktime": 0,
      "vin": [
        {
          "coinbase": "04ffff001d025f05",
          "sequence": 4294967295
        }
      ],
      "vout": [
        {
          "value": 50.0,
          "n": 0,
          "scriptPubKey": {
            "asm": "046782966c7f9d66d28ad0278b87c38c2c9770f77eea5b7f4f3678f4ee86ca39fcf32b9ed8b10ab84d20410fb84dc3a9457579a47d5f6c9e1af79939c1acb9eafe OP_CHECKSIG",
            "desc": "pk(046782966c7f9d66d28ad0278b87c38c2c9770f77eea5b7f4f3678f4ee86ca39fcf32b9ed8b10ab84d20410fb84dc3a9457579a47d5f6c9e1af79939c1acb9eafe)#9jyy38nd",
            "hex": "41046782966c7f9d66d28ad0278b87c38c2c9770f77eea5b7f4f3678f4ee86ca39fcf32b9ed8b10ab84d20410fb84dc3a9457579a47d5f6c9e1af79939c1acb9eafeac",
            "type": "pubkey"
          }
        }
      ],
      "hex": "01000000010000000000000000000000000000000000000000000000000000000000000000ffffffff0804ffff001d025f05ffffffff0100f2052a010000004341046782966c7f9d66d28ad0278b87c38c2c9770f77eea5b7f4f3678f4ee86ca39fcf32b9ed8b10ab84d20410fb84dc3a9457579a47d5f6c9e1af79939c1acb9eafeac00000000"
    }
  ]
}