{
  "hash": "0000000004b12b69f025ec124d120991d8a18a5df3cb66acf9b74ddfd689b35c",
  "confirmations": 49948,
  "height": 3150,
  "version": 1,
  "versionHex": "00000001",
  "merkleroot": "3aea95a02f8cf08f568cf577ec39d66538d806a1bf296a7b6ac76e4c73ad9ba2",
  "time": 1233867744,
  "mediantime": 1233864577,
  "nonce": 1910399253,
  "bits": "1d00ffff",
  "difficulty": 1,
  "chainwork": "00000000000000000000000000000000000000000000000000000c4f0c4f0c4f",
  "nTx": 1,
  "previousblockhash": "0000000006bbd39938ca25952dc97fef0da6068940059f044bcee1aa7771ec2c",
  "nextblockhash": "00000000a51617eee6b4a6e4e5ba4dd9f79aa59c92f7be03f4c4cca995995b51",
  "strippedsize": 216,
  "size": 216,
  "weight": 864,
  "tx": [
    {
      "txid": "3aea95a02f8cf08f568cf577ec39d66538d806a1bf296a7b6ac76e4c73ad9ba2",
      "hash": "3aea95a02f8cf08f568cf577ec39d66538d806a1bf296a7b6ac76e4c73ad9ba2",
      "version": 1,
      "size": 135,
      "vsize": 135,
      "weight": 540,
      "locktime": 0,
      "vin": [
        {
          "coinbase": "04ffff001d020102",
          "sequence": 4294967295
        }
      ],
      "vout": [
        {
          "value": 50.0,
          "n": 0,
          "scriptPubKey": {
            "asm": "046dee732a049d6e0f8af41d197ecdc771bf481b36e09b301a3edfdd0d8bb1a3cbfe1ec9dfa7b04d2990b0e0e0ad9ff15f466103bcfaab7ed42f5eaf44e772e661 OP_CHECKSIG",
            "desc": "pk(046dee732a049d6e0f8af41d197ecdc771bf481b36e09b301a3edfdd0d8bb1a3cbfe1ec9dfa7b04d2990b0e0e0ad9ff15f466103bcfaab7ed42f5eaf44e772e661)#2pelh2tz",
            "hex": "41046dee732a049d6e0f8af41d197ecdc771bf481b36e09b301a3edfdd0d8bb1a3cbfe1ec9dfa7b04d2990b0e0e0ad9ff15f466103bcfaab7ed42f5eaf44e772e661ac",
            "type": "pubkey"
          }
        }
      ],
      "hex": "01000000010000000000000000000000000000000000000000000000000000000000000000ffffffff0804ffff001d020102ffffffff0100f2052a010000004341046dee732a049d6e0f8af41d197ecdc771bf481b36e09b301a3edfdd0d8bb1a3cbfe1ec9dfa7b04d2990b0e0e0ad9ff15f466103bcfaab7ed42f5eaf44e772e661ac00000000"
    }
  ]
}