{
  "hash": "00000000c4eeaa02cf94004eba86b724fe3c47634292a3ae0aa20339f17aae87",
  "confirmations": 47984,
  "height": 5114,
  "version": 1,
  "versionHex": "00000001",
  "merkleroot": "0c4edf73f942931b2e2f7e4a3c8836971048cfaa29de5bc4c7a5bd3f6fe72067",
  "time": 1235226857,
  "mediantime": 1235223740,
  "nonce": 806249770,
  "bits": "1d00ffff",
  "difficulty": 1,
  "chainwork": "000000000000000000000000000000000000000000000000000013fb13fb13fb",
  "nTx": 1,
  "previousblockhash": "00000000a4ebc8522eb6edb64d11ab3f048b7f19567bd6222c69b4b420336910",
  "nextblockhash": "000000008b2cde95da2c8c37affea1854ed3f450172249e2533990dd63a41bcd",
  "strippedsize": 216,
  "size": 216,
  "weight": 864,
  "tx": [
    {
      "txid": "0c4edf73f942931b2e2f7e4a3c8836971048cfaa29de5bc4c7a5bd3f6fe72067",
      "hash": "0c4edf73f942931b2e2f7e4a3c8836971048cfaa29de5bc4c7a5bd3f6fe72067",
      "version": 1,
      "size": 135,
      "vsize": 135,
      "weight": 540,
      "locktime": 0,
      "vin": [
        {
          "coinbase": "04ffff001d024409",
          "sequence": 4294967295
        }
      ],
      "vout": [
        {
          "value": 50.0,
          "n": 0,
          "scriptPubKey": {
            "asm": "04f28e0d31f9af66a5fd3b0674c4650e5125761c1143b07d078e11d225ac1399fd8be5ae77ba3526a7e229bf790c1446bdeb987250e2f824a6678b89159dbd913e OP_CHECKSIG",
            "desc": "pk(04f28e0d31f9af66a5fd3b0674c4650e5125761c1143b07d078e11d225ac1399fd8be5ae77ba3526a7e229bf790c1446bdeb987250e2f824a6678b89159dbd913e)#wxy8mh7z",
            "hex": "4104f28e0d31f9af66a5fd3b0674c4650e5125761c1143b07d078e11d225ac1399fd8be5ae77ba3526a7e229bf790c1446bdeb987250e2f824a6678b89159dbd913eac",
            "type": "pubkey"
          }
        }
      ],
      "hex": "01000000010000000000000000000000000000000000000000000000000000000000000000ffffffff0804ffff001d024409ffffffff0100f2052a01000000434104f28e0d31f9af66a5fd3b0674c4650e5125761c1143b07d078e11d225ac1399fd8be5ae77ba3526a7e229bf790c1446bdeb987250e2f824a6678b89159dbd913eac00000000"
    }
  ]
}