{
  "hash": "000000002318be75dc17291f702b90fdaa2d232d77228159b4ddc3e45252daba",
  "confirmations": 47766,
  "height": 5332,
  "version": 1,
  "versionHex": "00000001",
  "merkleroot": "6253a8a5e6df3145e1a4d30c1a6e3ecf9d4c4e737ae7d385eb9a7600ee959bbb",
  "time": 1235388675,
  "mediantime": 1235383957,
  "nonce": 3907496227,
  "bits": "1d00ffff",
  "difficulty": 1,
  "chainwork": "000000000000000000000000000000000000000000000000000014d514d514d5",
  "nTx": 1,
  "previousblockhash": "000000009efdd8d604a9250d5fc1cc992139b5ace5580a5fe00494ef99f016d7",
  "nextblockhash": "00000000b0bf481b4d8b9bf9f01097f68a6227893b588b019ca8dc69b70b8821",
  "strippedsize": 216,
  "size": 216,
  "weight": 864,
  "tx": [
    {
      "txid": "6253a8a5e6df3145e1a4d30c1a6e3ecf9d4c4e737ae7d385eb9a7600ee959bbb",
      "hash": "6253a8a5e6df3145e1a4d30c1a6e3ecf9d4c4e737ae7d385eb9a7600ee959bbb",
      "version": 1,
      "size": 135,
      "vsize": 135,
      "weight": 540,
      "locktime": 0,
      "vin": [
        {
          "coinbase": "04ffff001d028402",
          "sequence": 4294967295
        }
      ],
      "vout": [
        {
          "value": 50.0,
          "n": 0,
          "scriptPubKey": {
            "asm": "0434cd41e53cc1d8c7b87fdfd5d8a5cdaf28f694a91066558ccb189da344f4fbdb3d455073d10c5935fa716514a225da4a7fdb506e24d76dcba72af13a5c17a1b8 OP_CHECKSIG",
            "desc": "pk(0434cd41e53cc1d8c7b87fdfd5d8a5cdaf28f694a91066558ccb189da344f4fbdb3d455073d10c5935fa716514a225da4a7fdb506e24d76dcba72af13a5c17a1b8)#jhh6nfn3",
            "hex": "410434cd41e53cc1d8c7b87fdfd5d8a5cdaf28f694a91066558ccb189da344f4fbdb3d455073d10c5935fa716514a225da4a7fdb506e24d76dcba72af13a5c17a1b8ac",
            "type": "pubkey"
          }
        }
      ],
      "hex": "01000000010000000000000000000000000000000000000000000000000000000000000000ffffffff0804ffff001d028402ffffffff0100f2052a0100000043410434cd41e53cc1d8c7b87fdfd5d8a5cdaf28f694a91066558ccb189da344f4fbdb3d455073d10c5935fa716514a225da4a7fdb506e24d76dcba72af13a5c17a1b8ac00000000"
    }
  ]
}