{
  "hash": "00000000c8639381b18dce57fef549cbba67e84d9c602ea343b02eaf67e5042f",
  "confirmations": 43117,
  "height": 9981,
  "version": 1,
  "versionHex": "00000001",
  "merkleroot": "bb4856e62fc8b85ea9de139ef18575791257db93041e64e1d7a7f2ff4020728a",
  "time": 1238976852,
  "mediantime": 1238974237,
  "nonce": 32336417,
  "bits": "1d00ffff",
  "difficulty": 1,
  "chainwork": "000000000000000000000000000000000000000000000000000026fe26fe26fe",
  "nTx": 1,
  "previousblockhash": "00000000ad6b4d8f001b75c63309d1616a1b6a65236603b4c407232c65411d1e",
  "nextblockhash": "0000000040e61c40113675fdf6b0768915280df3a2911a7c57a859bca93d7d7a",
  "strippedsize": 216,
  "size": 216,
  "weight": 864,
  "tx": [
    {
      "txid": "bb4856e62fc8b85ea9de139ef18575791257db93041e64e1d7a7f2ff4020728a",
      "hash": "bb4856e62fc8b85ea9de139ef18575791257db93041e64e1d7a7f2ff4020728a",
      "version": 1,
      "size": 135,
      "vsize": 135,
      "weight": 540,
      "locktime": 0,
      "vin": [
        {
          "coinbase": "04ffff001d02e70b",
          "sequence": 4294967295
        }
      ],
      "vout": [
        {
          "value": 50.0,
          "n": 0,
          "scriptPubKey": {
            "asm": "04c0be21fdf0e021422a8ea0ead5a2ec58c8bb85cb1ad24a1fe1af9fb72bf0fceb70b78406f9ebea412a11b1e74b3c08e00eea958789359669f3e1c66b140ace96 OP_CHECKSIG",
            "desc": "pk(04c0be21fdf0e021422a8ea0ead5a2ec58c8bb85cb1ad24a1fe1af9fb72bf0fceb70b78406f9ebea412a11b1e74b3c08e00eea958789359669f3e1c66b140ace96)#6dlaqxxz",
            "hex": "4104c0be21fdf0e021422a8ea0ead5a2ec58c8bb85cb1ad24a1fe1af9fb72bf0fceb70b78406f9ebea412a11b1e74b3c08e00eea958789359669f3e1c66b140ace96ac",
            "type": "pubkey"
          }
        }
      ],
      "hex": "01000000010000000000000000000000000000000000000000000000000000000000000000ffffffff0804ffff001d02e70bffffffff0100f2052a01000000434104c0be21fdf0e021422a8ea0ead5a2ec58c8bb85cb1ad24a1fe1af9fb72bf0fceb70b78406f9ebea412a11b1e74b3c08e00eea958789359669f3e1c66b140ace96ac00000000"
    }
  ]
}