{
  "hash": "00000000ea9dcccb784ba77961ebb85765ce9cabd3e05d052ac3fe08dc2c270c",
  "confirmations": 44972,
  "height": 8126,
  "version": 1,
  "versionHex": "00000001",
  "merkleroot": "aa91a8872193cde8b03d3a271a16cc1ee7612a54418e6c3ed870c42a184f1fc6",
  "time": 1237552348,
  "mediantime": 1237547800,
  "nonce": 3411619107,
  "bits": "1d00ffff",
  "difficulty": 1,
  "chainwork": "00000000000000000000000000000000000000000000000000001fbf1fbf1fbf",
  "nTx": 1,
  "previousblockhash": "0000000053897dae26fe1b7b5b317d55c24f5eac70b99da2aa8fb086a05a624d",
  "nextblockhash": "00000000750319651a28016fe2b40c351032097d3c134ddd57509c0236a12f30",
  "strippedsize": 216,
  "size": 216,
  "weight": 864,
  "tx": [
    {
      "txid": "aa91a8872193cde8b03d3a271a16cc1ee7612a54418e6c3ed870c42a184f1fc6",
      "hash": "aa91a8872193cde8b03d3a271a16cc1ee7612a54418e6c3ed870c42a184f1fc6",
      "version": 1,
      "size": 135,
      "vsize": 135,
      "weight": 540,
      "locktime": 0,
      "vin": [
        {
          "coinbase": "04ffff001d029701",
          "sequence": 4294967295
        }
      ],
      "vout": [
        {
          "value": 50.0,
          "n": 0,
          "scriptPubKey": {
            "asm": "044903921b61448721646c2c458db8d5311ecde47e3a50fa3a5ecd3bde1c7be7782075e0f498d1f85f6124bcf33f942ab2f832ccb067f63b0dff40355a506622e7 OP_CHECKSIG",
            "desc": "pk(044903921b61448721646c2c458db8d5311ecde47e3a50fa3a5ecd3bde1c7be7782075e0f498d1f85f6124bcf33f942ab2f832ccb067f63b0dff40355a506622e7)#ntle80ea",
            "hex": "41044903921b61448721646c2c458db8d5311ecde47e3a50fa3a5ecd3bde1c7be7782075e0f498d1f85f6124bcf33f942ab2f832ccb067f63b0dff40355a506622e7ac",
            "type": "pubkey"
          }
        }
      ],
      "hex": "01000000010000000000000000000000000000000000000000000000000000000000000000ffffffff0804ffff001d029701ffffffff0100f2052a010000004341044903921b61448721646c2c458db8d5311ecde47e3a50fa3a5ecd3bde1c7be7782075e0f498d1f85f6124bcf33f942ab2f832ccb067f63b0dff40355a506622e7ac00000000"
    }
  ]
}