{
  "hash": "00000000572d35219bf83f85f0d8a3e972df391ff75c000ffff80455ef526abf",
  "confirmations": 50118,
  "height": 2980,
  "version": 1,
  "versionHex": "00000001",
  "merkleroot": "da46340a48dba313a98d0d3b5935edfcfa8d6d89ac3c82ab6baf2355cb53878f",
  "time": 1233748129,
  "mediantime": 1233745475,
  "nonce": 886227508,
  "bits": "1d00ffff",
  "difficulty": 1,
  "chainwork": "00000000000000000000000000000000000000000000000000000ba50ba50ba5",
  "nTx": 1,
  "previousblockhash": "0000000093d886b022912d12fa6e21555ae43d1c5c980083e44eff6195e1fef7",
  "nextblockhash": "00000000c8e5e14194fb10f3f4000368b750dde2d1055cc4ffa29be0f875b9cf",
  "strippedsize": 216,
  "size": 216,
  "weight": 864,
  "tx": [
    {
      "txid": "da46340a48dba313a98d0d3b5935edfcfa8d6d89ac3c82ab6baf2355cb53878f",
      "hash": "da46340a48dba313a98d0d3b5935edfcfa8d6d89ac3c82ab6baf2355cb53878f",
      "version": 1,
      "size": 135,
      "vsize": 135,
      "weight": 540,
      "locktime": 0,
      "vin": [
        {
          "coinbase": "04ffff001d020f01",
          "sequence": 4294967295
        }
      ],
      "vout": [
        {
          "value": 50.0,
          "n": 0,
          "scriptPubKey": {
            "asm": "04cd2dc9f640870f4142665fd6a5da8b71f2ce8f495e542be35602d901d17c92ce7b3a390df06f9e64e8651c7e63d7cf34e85dda9823c37765ddd90dbc98018d49 OP_CHECKSIG",
            "desc": "pk(04cd2dc9f640870f4142665fd6a5da8b71f2ce8f495e542be35602d901d17c92ce7b3a390df06f9e64e8651c7e63d7cf34e85dda9823c37765ddd90dbc98018d49)#v6x4asp3",
            "hex": "4104cd2dc9f640870f4142665fd6a5da8b71f2ce8f495e542be35602d901d17c92ce7b3a390df06f9e64e8651c7e63d7cf34e85dda9823c37765ddd90dbc98018d49ac",
            "type": "pubkey"
          }
        }
      ],
      "hex": "01000000010000000000000000000000000000000000000000000000000000000000000000ffffffff0804ffff001d020f01ffffffff0100f2052a01000000434104cd2dc9f640870f4142665fd6a5da8b71f2ce8f495e542be35602d901d17c92ce7b3a390df06f9e64e8651c7e63d7cf34e85dda9823c37765ddd90dbc98018d49ac00000000"
    }
  ]
}