{
  "hash": "000000005ef21d4d4f403af302b3f855335e85a0e7ead44c2cb5ec1bb3be30d1",
  "confirmations": 51936,
  "height": 1162,
  "version": 1,
  "versionHex": "00000001",
  "merkleroot": "257a9c45f5bda15b704384f2d0c14ea5809e8d61d90b18586df4f3e52cf3089b",
  "time": 1232469448,
  "mediantime": 1232466217,
  "nonce": 2625472769,
  "bits": "1d00ffff",
  "difficulty": 1,
  "chainwork": "0000000000000000000000000000000000000000000000000000048b048b048b",
  "nTx": 1,
  "previousblockhash": "00000000a51304fe9f8c826c8434ff8b8f6926cf14e10ee34657a6c9daee8e4a",
  "nextblockhash": "000000002feb5d88964e58ace2ca025968febc52ba0e9249b452a741c3d619f5",
  "strippedsize": 216,
  "size": 216,
  "weight": 864,
  "tx": [
    {
      "txid": "257a9c45f5bda15b704384f2d0c14ea5809e8d61d90b18586df4f3e52cf3089b",
      "hash": "257a9c45f5bda15b704384f2d0c14ea5809e8d61d90b18586df4f3e52cf3089b",
      "version": 1,
      "size": 135,
      "vsize": 135,
      "weight": 540,
      "locktime": 0,
      "vin": [
        {
          "coinbase": "04ffff001d02fd07",
          "sequence": 4294967295
        }
      ],
      "vout": [
        {
          "value": 50.0,
          "n": 0,
          "scriptPubKey": {
            "asm": "0419f99df8ccd0b5df18228f3c199958c4d624fe1e8bc5f877f24a80d16fe871b160a66119a040954d2461cda977a927ae2255ce9c75cf192356cbc452dcce88b7 OP_CHECKSIG",
            "desc": "pk(0419f99df8ccd0b5df18228f3c199958c4d624fe1e8bc5f877f24a80d16fe871b160a66119a040954d2461cda977a927ae2255ce9c75cf192356cbc452dcce88b7)#ahugvfwm",
            "hex": "410419f99df8ccd0b5df18228f3c199958c4d624fe1e8bc5f877f24a80d16fe871b160a66119a040954d2461cda977a927ae2255ce9c75cf192356cbc452dcce88b7ac",
            "type": "pubkey"
          }
        }
      ],
      "hex": "01000000010000000000000000000000000000000000000000000000000000000000000000ffffffff0804ffff001d02fd07ffffffff0100f2052a0100000043410419f99df8ccd0b5df18228f3c199958c4d624fe1e8bc5f877f24a80d16fe871b160a66119a040954d2461cda977a927ae2255ce9c75cf192356cbc452dcce88b7ac00000000"
    }
  ]
}