{
  "hash": "000000003da6400c43ccb3501c3e943da24435bbb4b6c490e3988b81f9791eb3",
  "confirmations": 51021,
  "height": 2077,
  "version": 1,
  "versionHex": "00000001",
  "merkleroot": "f6ce8818f9b85dc2f49848d8420b72580bbe77f6a1b00671fa83d5f36edea54f",
  "time": 1233121259,
  "mediantime": 1233116687,
  "nonce": 2913759746,
  "bits": "1d00ffff",
  "difficulty": 1,
  "chainwork": "0000000000000000000000000000000000000000000000000000081e081e081e",
  "nTx": 1,
  "previousblockhash": "000000006b5d6191bd2f345fa1b1c168bd2591ac56aaa392ee4da2efa9ece829",
  "nextblockhash": "00000000da22c6db7dc40587b7f964223547e5291ecaa63274ebff0fc1981e21",
  "strippedsize": 216,
  "size": 216,
  "weight": 864,
  "tx": [
    {
      "txid": "f6ce8818f9b85dc2f49848d8420b72580bbe77f6a1b00671fa83d5f36edea54f",
      "hash": "f6ce8818f9b85dc2f49848d8420b72580bbe77f6a1b00671fa83d5f36edea54f",
      "version": 1,
      "size": 135,
      "vsize": 135,
      "weight": 540,
      "locktime": 0,
      "vin": [
        {
          "coinbase": "04ffff001d025d03",
          "sequence": 4294967295
        }
      ],
      "vout": [
        {
          "value": 50.0,
          "n": 0,
          "scriptPubKey": {
            "asm": "04303dbbbd8544f0d44e1bb0412c4a041e7950596a80e289f9263610c8ecafb492c84fd420df3c6e9fc62eed721e5c72122100a49e8817b2e2b2b035d9cf58ef7a OP_CHECKSIG",
            "desc": "pk(04303dbbbd8544f0d44e1bb0412c4a041e7950596a80e289f9263610c8ecafb492c84fd420df3c6e9fc62eed721e5c72122100a49e8817b2e2b2b035d9cf58ef7a)#0jf27ej4",
            "hex": "4104303dbbbd8544f0d44e1bb0412c4a041e7950596a80e289f9263610c8ecafb492c84fd420df3c6e9fc62eed721e5c72122100a49e8817b2e2b2b035d9cf58ef7aac",
            "type": "pubkey"
          }
        }
      ],
      "hex": "01000000010000000000000000000000000000000000000000000000000000000000000000ffffffff0804ffff001d025d03ffffffff0100f2052a01000000434104303dbbbd8544f0d44e1bb0412c4a041e7950596a80e289f9263610c8ecafb492c84fd420df3c6e9fc62eed721e5c72122100a49e8817b2e2b2b035d9cf58ef7aac00000000"
    }
  ]
}