{
  "hash": "000000004b23d8bfe2c7f7c631bd6080ac46d7b3460a848817e6d7755dd1ba89",
  "confirmations": 43985,
  "height": 9113,
  "version": 1,
  "versionHex": "00000001",
  "merkleroot": "5d57a06294b9b6085afc4986afdedfe99d1fd33d4bdbb6a4bbef9324004f6cae",
  "time": 1238338597,
  "mediantime": 1238337136,
  "nonce": 3435983409,
  "bits": "1d00ffff",
  "difficulty": 1,
  "chainwork": "0000000000000000000000000000000000000000000000000000239a239a239a",
  "nTx": 1,
  "previousblockhash": "0000000070e7c2095f3e9d63e095b55bd48df7610b9dddaebb9309568c84c675",
  "nextblockhash": "00000000b22ba847638a63488558753ffeb6d32bd4f373443544c73afa54a1f2",
  "strippedsize": 216,
  "size": 216,
  "weight": 864,
  "tx": [
    {
      "txid": "5d57a06294b9b6085afc4986afdedfe99d1fd33d4bdbb6a4bbef9324004f6cae",
      "hash": "5d57a06294b9b6085afc4986afdedfe99d1fd33d4bdbb6a4bbef9324004f6cae",
      "version": 1,
      "size": 135,
      "vsize": 135,
      "weight": 540,
      "locktime": 0,
      "vin": [
        {
          "coinbase": "04ffff001d028108",
          "sequence": 4294967295
        }
      ],
      "vout": [
        {
          "value": 50.0,
          "n": 0,
          "scriptPubKey": {
            "asm": "04d859bedf7c4f1f29b09aaf5cc843020f322ef8d4185a9924e401a2982bee961e9c8aaaa5b411c3268e35101232b4327f6909b7478f122bae4e1f2600fdd33072 OP_CHECKSIG",
            "desc": "pk(04d859bedf7c4f1f29b09aaf5cc843020f322ef8d4185a9924e401a2982bee961e9c8aaaa5b411c3268e35101232b4327f6909b7478f122bae4e1f2600fdd33072)#s2czg69a",
            "hex": "4104d859bedf7c4f1f29b09aaf5cc843020f322ef8d4185a9924e401a2982bee961e9c8aaaa5b411c3268e35101232b4327f6909b7478f122bae4e1f2600fdd33072ac",
            "type": "pubkey"
          }
        }
      ],
      "hex": "01000000010000000000000000000000000000000000000000000000000000000000000000ffffffff0804ffff001d028108ffffffff0100f2052a01000000434104d859bedf7c4f1f29b09aaf5cc843020f322ef8d4185a9924e401a2982bee961e9c8aaaa5b411c3268e35101232b4327f6909b7478f122bae4e1f2600fdd33072ac00000000"
    }
  ]
}