{
  "hash": "00000000a5a942cd3d90de837d81c64b996c8d28e985933a3ff324c2269436c1",
  "confirmations": 48187,
  "height": 4911,
  "version": 1,
  "versionHex": "00000001",
  "merkleroot": "5f4e1012d9c995906e6d861b44cc7bb14f10913eac43c234936b93b4d05aa95e",
  "time": 1235078327,
  "mediantime": 1235075241,
  "nonce": 1928641540,
  "bits": "1d00ffff",
  "difficulty": 1,
  "chainwork": "0000000000000000000000000000000000000000000000000000133013301330",
  "nTx": 1,
  "previousblockhash": "00000000166b50796c0b5ab088976e3dc8c5ac45403c287f97a8fb77d4bd125d",
  "nextblockhash": "000000008b8d737b88327bc66edc676668f56db95c623bbe91aa945342983c3b",
  "strippedsize": 216,
  "size": 216,
  "weight": 864,
  "tx": [
    {
      "txid": "5f4e1012d9c995906e6d861b44cc7bb14f10913eac43c234936b93b4d05aa95e",
      "hash": "5f4e1012d9c995906e6d861b44cc7bb14f10913eac43c234936b93b4d05aa95e",
      "version": 1,
      "size": 135,
      "vsize": 135,
      "weight": 540,
      "locktime": 0,
      "vin": [
        {
          "coinbase": "04ffff001d02c705",
          "sequence": 4294967295
        }
      ],
      "vout": [
        {
          "value": 50.0,
          "n": 0,
          "scriptPubKey": {
            "asm": "04849c25e9877f10456c5f35d00746596a8a063804a072290b485183a33a4240badd708e15ad21fd0f56df4a23f1f5a38f748213fdf4a9f0d275e85dfdd3188ce0 OP_CHECKSIG",
            "desc": "pk(04849c25e9877f10456c5f35d00746596a8a063804a072290b485183a33a4240badd708e15ad21fd0f56df4a23f1f5a38f748213fdf4a9f0d275e85dfdd3188ce0)#5r8kyxh9",
            "hex": "4104849c25e9877f10456c5f35d00746596a8a063804a072290b485183a33a4240badd708e15ad21fd0f56df4a23f1f5a38f748213fdf4a9f0d275e85dfdd3188ce0ac",
            "type": "pubkey"
          }
        }
      ],
      "hex": "01000000010000000000000000000000000000000000000000000000000000000000000000ffffffff0804ffff001d02c705ffffffff0100f2052a01000000434104849c25e9877f10456c5f35d00746596a8a063804a072290b485183a33a4240badd708e15ad21fd0f56df4a23f1f5a38f748213fdf4a9f0d275e85dfdd3188ce0ac00000000"
    }
  ]
}