{
  "hash": "0000000033f9151c79fa660b8d84dc8d0278509b1ce41a4257d6d5e0ec4f58b1",
  "confirmations": 46040,
  "height": 7058,
  "version": 1,
  "versionHex": "00000001",
  "merkleroot": "8b6a97e0d12b738eeaf3a4887b1f07a36863761dbcfb3ccd6699ae1f10abe4bb",
  "time": 1236762121,
  "mediantime": 1236760388,
  "nonce": 2334557997,
  "bits": "1d00ffff",
  "difficulty": 1,
  "chainwork": "00000000000000000000000000000000000000000000000000001b931b931b93",
  "nTx": 1,
  "previousblockhash": "00000000333f5127071366020e74466a47cae8ce19784dbaba976d7aa7d11819",
  "nextblockhash": "000000005923cc03a2f16a6b0522ac290deb290cc13822598968159492c9d669",
  "strippedsize": 216,
  "size": 216,
  "weight": 864,
  "tx": [
    {
      "txid": "8b6a97e0d12b738eeaf3a4887b1f07a36863761dbcfb3ccd6699ae1f10abe4bb",
      "hash": "8b6a97e0d12b738eeaf3a4887b1f07a36863761dbcfb3ccd6699ae1f10abe4bb",
      "version": 1,
      "size": 135,
      "vsize": 135,
      "weight": 540,
      "locktime": 0,
      "vin": [
        {
          "coinbase": "04ffff001d023203",
          "sequence": 4294967295
        }
      ],
      "vout": [
        {
          "value": 50.0,
          "n": 0,
          "scriptPubKey": {
            "asm": "04e0ced49750fa771acb34e1c8447635027440fb1939212b9f493dfbb0b0349d601a0875d1d0e8cf808028be5585e0aedcd7b01d56356b1a26eafee844770bbec4 OP_CHECKSIG",
            "desc": "pk(04e0ced49750fa771acb34e1c8447635027440fb1939212b9f493dfbb0b0349d601a0875d1d0e8cf808028be5585e0aedcd7b01d56356b1a26eafee844770bbec4)#cvt9rj95",
            "hex": "4104e0ced49750fa771acb34e1c8447635027440fb1939212b9f493dfbb0b0349d601a0875d1d0e8cf808028be5585e0aedcd7b01d56356b1a26eafee844770bbec4ac",
            "type": "pubkey"
          }
        }
      ],
      "hex": "01000000010000000000000000000000000000000000000000000000000000000000000000ffffffff0804ffff001d023203ffffffff0100f2052a01000000434104e0ced49750fa771acb34e1c8447635027440fb1939212b9f493dfbb0b0349d601a0875d1d0e8cf808028be5585e0aedcd7b01d56356b1a26eafee844770bbec4ac00000000"
    }
  ]
}