{
  "hash": "0000000067c381ab839b6af5e3107e0b268fe07cd689ff6dc83214e5d310f714",
  "confirmations": 48183,
  "height": 4915,
  "version": 1,
  "versionHex": "00000001",
  "merkleroot": "1ec1b91d73088139f3eb32e2c228ce9b13c71fa6c8996d882d75668b0ec3981c",
  "time": 1235081335,
  "mediantime": 1235077785,
  "nonce": 231066162,
  "bits": "1d00ffff",
  "difficulty": 1,
  "chainwork": "0000000000000000000000000000000000000000000000000000133413341334",
  "nTx": 1,
  "previousblockhash": "0000000063f2a8df3250c9ed3a88b3dd03c156a7de74219a3fca969d04dce318",
  "nextblockhash": "000000002e837d054e162d8bcada74abb938e4a97c2d0743f80377f177707f9b",
  "strippedsize": 216,
  "size": 216,
  "weight": 864,
  "tx": [
    {
      "txid": "1ec1b91d73088139f3eb32e2c228ce9b13c71fa6c8996d882d75668b0ec3981c",
      "hash": "1ec1b91d73088139f3eb32e2c228ce9b13c71fa6c8996d882d75668b0ec3981c",
      "version": 1,
      "size": 135,
      "vsize": 135,
      "weight": 540,
      "locktime": 0,
      "vin": [
        {
          "coinbase": "04ffff001d02d405",
          "sequence": 4294967295
        }
      ],
      "vout": [
        {
          "value": 50.0,
          "n": 0,
          "scriptPubKey": {
            "asm": "043f7a3c2fb8c7e07aaa1051611697be3749c269221f33ed3fdc39f1ef7535c454a28131f9bb7722573763892b30cdfbf299ade7dec79ad5b32b9bcf856ba15e0b OP_CHECKSIG",
            "desc": "pk(043f7a3c2fb8c7e07aaa1051611697be3749c269221f33ed3fdc39f1ef7535c454a28131f9bb7722573763892b30cdfbf299ade7dec79ad5b32b9bcf856ba15e0b)#mat6ydwd",
            "hex": "41043f7a3c2fb8c7e07aaa1051611697be3749c269221f33ed3fdc39f1ef7535c454a28131f9bb7722573763892b30cdfbf299ade7dec79ad5b32b9bcf856ba15e0bac",
            "type": "pubkey"
          }
        }
      ],
      "hex": "01000000010000000000000000000000000000000000000000000000000000000000000000ffffffff0804ffff001d02d405ffffffff0100f2052a010000004341043f7a3c2fb8c7e07aaa1051611697be3749c269221f33ed3fdc39f1ef7535c454a28131f9bb7722573763892b30cdfbf299ade7dec79ad5b32b9bcf856ba15e0bac00000000"
    }
  ]
}