{
  "hash": "00000000d392b645badf51c237aa5d2b2b124437fe17e688507fdb98bd2de352",
  "confirmations": 47685,
  "height": 5413,
  "version": 1,
  "versionHex": "00000001",
  "merkleroot": "233077887246138ea7c58b883099035f6264d79ed25a1a2572ad0987d9655c8f",
  "time": 1235450046,
  "mediantime": 1235446073,
  "nonce": 357280079,
  "bits": "1d00ffff",
  "difficulty": 1,
  "chainwork": "0000000000000000000000000000000000000000000000000000152615261526",
  "nTx": 1,
  "previousblockhash": "00000000853a0470dde4d2d61765f4a3925a8fa6df8d8651bd65484ad3c0b003",
  "nextblockhash": "000000006eadd08ea3948769f170df099a3e1f523d1191cca9ba91e97fa31e59",
  "strippedsize": 216,
  "size": 216,
  "weight": 864,
  "tx": [
    {
      "txid": "233077887246138ea7c58b883099035f6264d79ed25a1a2572ad0987d9655c8f",
      "hash": "233077887246138ea7c58b883099035f6264d79ed25a1a2572ad0987d9655c8f",
      "version": 1,
      "size": 135,
      "vsize": 135,
      "weight": 540,
      "locktime": 0,
      "vin": [
        {
          "coinbase": "04ffff001d020101",
          "sequence": 4294967295
        }
      ],
      "vout": [
        {
          "value": 50.0,
          "n": 0,
          "scriptPubKey": {
            "asm": "04d8b9febd4b67af2a2024f65a01084c13783c8065532545f3f0a89ad79cd20dd9b9a9a4ac2ec35e12702f9f1c8590534ac7906bc4fb27ade969ccc8ab3db2c422 OP_CHECKSIG",
            "desc": "pk(04d8b9febd4b67af2a2024f65a01084c13783c8065532545f3f0a89ad79cd20dd9b9a9a4ac2ec35e12702f9f1c8590534ac7906bc4fb27ade969ccc8ab3db2c422)#hq6u3kwk",
            "hex": "4104d8b9febd4b67af2a2024f65a01084c13783c8065532545f3f0a89ad79cd20dd9b9a9a4ac2ec35e12702f9f1c8590534ac7906bc4fb27ade969ccc8ab3db2c422ac",
            "type": "pubkey"
          }
        }
      ],
      "hex": "01000000010000000000000000000000000000000000000000000000000000000000000000ffffffff0804ffff001d020101ffffffff0100f2052a01000000434104d8b9febd4b67af2a2024f65a01084c13783c8065532545f3f0a89ad79cd20dd9b9a9a4ac2ec35e12702f9f1c8590534ac7906bc4fb27ade969ccc8ab3db2c422ac00000000"
    }
  ]
}