{
  "hash": "00000000508a91354e9ea0b022772e4880ffadf21b97ed341f047887fa153d2e",
  "confirmations": 49472,
  "height": 3626,
  "version": 1,
  "versionHex": "00000001",
  "merkleroot": "6a9322b8fea558dedf41fe3ecf20f58cb6db7c5bf8dce9bf85cf84432d5cd812",
  "time": 1234188727,
  "mediantime": 1234185310,
  "nonce": 3963646757,
  "bits": "1d00ffff",
  "difficulty": 1,
  "chainwork": "00000000000000000000000000000000000000000000000000000e2b0e2b0e2b",
  "nTx": 1,
  "previousblockhash": "000000001089b8daa01146187596c7f81c8ed253a1af379bebb06f9271334679",
  "nextblockhash": "0000000054482b901c92a940bdff1472426043be7833f969d98e27b93adf8dd6",
  "strippedsize": 216,
  "size": 216,
  "weight": 864,
  "tx": [
    {
      "txid": "6a9322b8fea558dedf41fe3ecf20f58cb6db7c5bf8dce9bf85cf84432d5cd812",
      "hash": "6a9322b8fea558dedf41fe3ecf20f58cb6db7c5bf8dce9bf85cf84432d5cd812",
      "version": 1,
      "size": 135,
      "vsize": 135,
      "weight": 540,
      "locktime": 0,
      "vin": [
        {
          "coinbase": "04ffff001d02f108",
          "sequence": 4294967295
        }
      ],
      "vout": [
        {
          "value": 50.0,
          "n": 0,
          "scriptPubKey": {
            "asm": "04c16a9b78b6a8eef3b4d0524453c4f81acdb84ed07a75ed9a6b3270b247e1413707b9f8e258277d435e766c2591ac1e2e556ee5ff018c7b15ddec14b15fe38d35 OP_CHECKSIG",
            "desc": "pk(04c16a9b78b6a8eef3b4d0524453c4f81acdb84ed07a75ed9a6b3270b247e1413707b9f8e258277d435e766c2591ac1e2e556ee5ff018c7b15ddec14b15fe38d35)#wrwzq3rc",
            "hex": "4104c16a9b78b6a8eef3b4d0524453c4f81acdb84ed07a75ed9a6b3270b247e1413707b9f8e258277d435e766c2591ac1e2e556ee5ff018c7b15ddec14b15fe38d35ac",
            "type": "pubkey"
          }
        }
      ],
      "hex": "01000000010000000000000000000000000000000000000000000000000000000000000000ffffffff0804ffff001d02f108ffffffff0100f2052a01000000434104c16a9b78b6a8eef3b4d0524453c4f81acdb84ed07a75ed9a6b3270b247e1413707b9f8e258277d435e766c2591ac1e2e556ee5ff018c7b15ddec14b15fe38d35ac00000000"
    }
  ]
}