{
  "hash": "000000007bc8e919eee03106ec5c15b9e3f49ca6c33a67bfc70e9ec1b14a0d02",
  "confirmations": 46893,
  "height": 6205,
  "version": 1,
  "versionHex": "00000001",
  "merkleroot": "67764d42e417fe4ff00c80ac85cdc98b86a47e3c408276466e3c015857646740",
  "time": 1236095564,
  "mediantime": 1236091245,
  "nonce": 15850632,
  "bits": "1d00ffff",
  "difficulty": 1,
  "chainwork": "0000000000000000000000000000000000000000000000000000183e183e183e",
  "nTx": 1,
  "previousblockhash": "0000000081d5a9f81b92293bd9233d5e2045c7299cc02c0847e80afce6e56e6f",
  "nextblockhash": "000000009e0f57bcddbafced11db614e839dba4a9070da7afb69ccdeb50b2cb0",
  "strippedsize": 216,
  "size": 216,
  "weight": 864,
  "tx": [
    {
      "txid": "67764d42e417fe4ff00c80ac85cdc98b86a47e3c408276466e3c015857646740",
      "hash": "67764d42e417fe4ff00c80ac85cdc98b86a47e3c408276466e3c015857646740",
      "version": 1,
      "size": 135,
      "vsize": 135,
      "weight": 540,
      "locktime": 0,
      "vin": [
        {
          "coinbase": "04ffff001d02040a",
          "sequence": 4294967295
        }
      ],
      "vout": [
        {
          "value": 50.0,
          "n": 0,
          "scriptPubKey": {
            "asm": "040558753a4e5a4cde6bc12707de045aa8affb3fecfafa011aa397ed4ba7b8ab50528482da01a3bf532f76010c8f799ae6f9ee017d407561e2239aa7e09c31265b OP_CHECKSIG",
            "desc": "pk(040558753a4e5a4cde6bc12707de045aa8affb3fecfafa011aa397ed4ba7b8ab50528482da01a3bf532f76010c8f799ae6f9ee017d407561e2239aa7e09c31265b)#32juwgmj",
            "hex": "41040558753a4e5a4cde6bc12707de045aa8affb3fecfafa011aa397ed4ba7b8ab50528482da01a3bf532f76010c8f799ae6f9ee017d407561e2239aa7e09c31265bac",
            "type": "pubkey"
          }
        }
      ],
      "hex": "01000000010000000000000000000000000000000000000000000000000000000000000000ffffffff0804ffff001d02040affffffff0100f2052a010000004341040558753a4e5a4cde6bc12707de045aa8affb3fecfafa011aa397ed4ba7b8ab50528482da01a3bf532f76010c8f799ae6f9ee017d407561e2239aa7e09c31265bac00000000"
    }
  ]
}