{
  "hash": "000000000ab7ac9a9423071d674d8104ee4b220d5664387d90850e3f76e979ae",
  "confirmations": 46520,
  "height": 6578,
  "version": 1,
  "versionHex": "00000001",
  "merkleroot": "4b01ee8cf3657a1dca7f5bebb80d13da9fa1ae3f855ea685c4e17c7daee9b9ac",
  "time": 1236386225,
  "mediantime": 1236381721,
  "nonce": 452945978,
  "bits": "1d00ffff",
  "difficulty": 1,
  "chainwork": "000000000000000000000000000000000000000000000000000019b319b319b3",
  "nTx": 1,
  "previousblockhash": "00000000ea4728c14bcbbfda30b77e8f84eaf7646daa9090debba19770b9fb57",
  "nextblockhash": "00000000580a7a7cd537bfac354996f0d5ab1d1779e316968b524153bfff09fc",
  "strippedsize": 216,
  "size": 216,
  "weight": 864,
  "tx": [
    {
      "txid": "4b01ee8cf3657a1dca7f5bebb80d13da9fa1ae3f855ea685c4e17c7daee9b9ac",
      "hash": "4b01ee8cf3657a1dca7f5bebb80d13da9fa1ae3f855ea685c4e17c7daee9b9ac",
      "version": 1,
      "size": 135,
      "vsize": 135,
      "weight": 540,
      "locktime": 0,
      "vin": [
        {
          "coinbase": "04ffff001d02bd04",
          "sequence": 4294967295
        }
      ],
      "vout": [
        {
          "value": 50.0,
          "n": 0,
          "scriptPubKey": {
            "asm": "0479192adfc4443ec4f7fe5177f6637d5e2a82b3b575bfed2d9be8b315828af2630293b09a3031810c3617730d9116960ab1b3fcc9429c2356b64a8ed8daea278d OP_CHECKSIG",
            "desc": "pk(0479192adfc4443ec4f7fe5177f6637d5e2a82b3b575bfed2d9be8b315828af2630293b09a3031810c3617730d9116960ab1b3fcc9429c2356b64a8ed8daea278d)#0ff8y3mr",
            "hex": "410479192adfc4443ec4f7fe5177f6637d5e2a82b3b575bfed2d9be8b315828af2630293b09a3031810c3617730d9116960ab1b3fcc9429c2356b64a8ed8daea278dac",
            "type": "pubkey"
          }
        }
      ],
      "hex": "01000000010000000000000000000000000000000000000000000000000000000000000000ffffffff0804ffff001d02bd04ffffffff0100f2052a0100000043410479192adfc4443ec4f7fe5177f6637d5e2a82b3b575bfed2d9be8b315828af2630293b09a3031810c3617730d9116960ab1b3fcc9429c2356b64a8ed8daea278dac00000000"
    }
  ]
}