{
  "hash": "00000000622a1d4b2f9791040a829a78b914f52cc6e48ad4386895a88a9b19b0",
  "confirmations": 43751,
  "height": 9347,
  "version": 1,
  "versionHex": "00000001",
  "merkleroot": "05bfcffa6827f62cb8a6ce5435165852478d7d648873d72bc5e605cd08c0cf70",
  "time": 1238508675,
  "mediantime": 1238506977,
  "nonce": 2953347353,
  "bits": "1d00ffff",
  "difficulty": 1,
  "chainwork": "0000000000000000000000000000000000000000000000000000248424842484",
  "nTx": 1,
  "previousblockhash": "0000000048bb414dabe36b4d47bbc9abb9a35ebd871906df4841b731d8b3797d",
  "nextblockhash": "00000000a668f03769f53ff7d95f75cfb08ede733e9b65143e707544f5e11bd4",
  "strippedsize": 216,
  "size": 216,
  "weight": 864,
  "tx": [
    {
      "txid": "05bfcffa6827f62cb8a6ce5435165852478d7d648873d72bc5e605cd08c0cf70",
      "hash": "05bfcffa6827f62cb8a6ce5435165852478d7d648873d72bc5e605cd08c0cf70",
      "version": 1,
      "size": 135,
      "vsize": 135,
      "weight": 540,
      "locktime": 0,
      "vin": [
        {
          "coinbase": "04ffff001d029b02",
          "sequence": 4294967295
        }
      ],
      "vout": [
        {
          "value": 50.0,
          "n": 0,
          "scriptPubKey": {
            "asm": "041a79742e9b936c4d1328e6011cc01be9798029f350b20040369aa69447fbc55d8ffcdffd21d9579c18ef1287ee4639cd6647028b067060c3af0136b82fb56c0e OP_CHECKSIG",
            "desc": "pk(041a79742e9b936c4d1328e6011cc01be9798029f350b20040369aa69447fbc55d8ffcdffd21d9579c18ef1287ee4639cd6647028b067060c3af0136b82fb56c0e)#4xkss5l5",
            "hex": "41041a79742e9b936c4d1328e6011cc01be9798029f350b20040369aa69447fbc55d8ffcdffd21d9579c18ef1287ee4639cd6647028b067060c3af0136b82fb56c0eac",
            "type": "pubkey"
          }
        }
      ],
      "hex": "01000000010000000000000000000000000000000000000000000000000000000000000000ffffffff0804ffff001d029b02ffffffff0100f2052a010000004341041a79742e9b936c4d1328e6011cc01be9798029f350b20040369aa69447fbc55d8ffcdffd21d9579c18ef1287ee4639cd6647028b067060c3af0136b82fb56c0eac00000000"
    }
  ]
}