{
  "hash": "00000000bb40a23fb280ea5366272d4b6b2f60c80bda840e5517e34f4a797eab",
  "confirmations": 46789,
  "height": 6309,
  "version": 1,
  "versionHex": "00000001",
  "merkleroot": "a1beac774df019212d7adb376cfb892756f3c0acf241d0b0affbb7edb8383606",
  "time": 1236178764,
  "mediantime": 1236175882,
  "nonce": 3288294452,
  "bits": "1d00ffff",
  "difficulty": 1,
  "chainwork": "000000000000000000000000000000000000000000000000000018a618a618a6",
  "nTx": 1,
  "previousblockhash": "0000000053a3118668459bbae5707b06702966d5100c9c96a9dfcfd2476f32ed",
  "nextblockhash": "000000004d01cf13e444c7e3e6d79b7ac75a8712985de947710d2e5b2b99527f",
  "strippedsize": 215,
  "size": 215,
  "weight": 860,
  "tx": [
    {
      "txid": "a1beac774df019212d7adb376cfb892756f3c0acf241d0b0affbb7edb8383606",
      "hash": "a1beac774df019212d7adb376cfb892756f3c0acf241d0b0affbb7edb8383606",
      "version": 1,
      "size": 134,
      "vsize": 134,
      "weight": 536,
      "locktime": 0,
      "vin": [
        {
          "coinbase": "04ffff001d0148",
          "sequence": 4294967295
        }
      ],
      "vout": [
        {
          "value": 50.0,
          "n": 0,
          "scriptPubKey": {
            "asm": "041debbde76b9b8e5c6fe399ffab119c9044abc386a2b8cf29564c0475928406d8d8852ec9cae3e084716ad1c5f52bbba754fad67fa932db7bde8c558976b08970 OP_CHECKSIG",
            "desc": "pk(041debbde76b9b8e5c6fe399ffab119c9044abc386a2b8cf29564c0475928406d8d8852ec9cae3e084716ad1c5f52bbba754fad67fa932db7bde8c558976b08970)#g4gtmh97",
            "hex": "41041debbde76b9b8e5c6fe399ffab119c9044abc386a2b8cf29564c0475928406d8d8852ec9cae3e084716ad1c5f52bbba754fad67fa932db7bde8c558976b08970ac",
            "type": "pubkey"
          }
        }
      ],
      "hex": "01000000010000000000000000000000000000000000000000000000000000000000000000ffffffff0704ffff001d0148ffffffff0100f2052a010000004341041debbde76b9b8e5c6fe399ffab119c9044abc386a2b8cf29564c0475928406d8d8852ec9cae3e084716ad1c5f52bbba754fad67fa932db7bde8c558976b08970ac00000000"
    }
  ]
}