{
  "hash": "000000001d1e170d3466be882c61a21480840ecd8892250a284d8cdc27bf0ff6",
  "confirmations": 49425,
  "height": 3673,
  "version": 1,
  "versionHex": "00000001",
  "merkleroot": "094e9f0c4519c66ba46f69a90176f8c58037a4d4da401d8797550fcb8aa9e2ce",
  "time": 1234215924,
  "mediantime": 1234213216,
  "nonce": 2431819560,
  "bits": "1d00ffff",
  "difficulty": 1,
  "chainwork": "00000000000000000000000000000000000000000000000000000e5a0e5a0e5a",
  "nTx": 1,
  "previousblockhash": "0000000099a190c5e30c9607241446f3494fc8bfb9fa04fb12d4b14ad494ed80",
  "nextblockhash": "0000000023889e8a1728f2cf31b073a2f488728470291952291a8196cf401599",
  "strippedsize": 216,
  "size": 216,
  "weight": 864,
  "tx": [
    {
      "txid": "094e9f0c4519c66ba46f69a90176f8c58037a4d4da401d8797550fcb8aa9e2ce",
      "hash": "094e9f0c4519c66ba46f69a90176f8c58037a4d4da401d8797550fcb8aa9e2ce",
      "version": 1,
      "size": 135,
      "vsize": 135,
      "weight": 540,
      "locktime": 0,
      "vin": [
        {
          "coinbase": "04ffff001d028d09",
          "sequence": 4294967295
        }
      ],
      "vout": [
        {
          "value": 50.0,
          "n": 0,
          "scriptPubKey": {
            "asm": "04c40267428b63b3fea83199da906e0ba000497a3ebc1994a38e81363f50a07776577b650ad630e44148e8ab1835b5d1da987ffa0c7faea91dd44792eee3d18022 OP_CHECKSIG",
            "desc": "pk(04c40267428b63b3fea83199da906e0ba000497a3ebc1994a38e81363f50a07776577b650ad630e44148e8ab1835b5d1da987ffa0c7faea91dd44792eee3d18022)#8wwual99",
            "hex": "4104c40267428b63b3fea83199da906e0ba000497a3ebc1994a38e81363f50a07776577b650ad630e44148e8ab1835b5d1da987ffa0c7faea91dd44792eee3d18022ac",
            "type": "pubkey"
          }
        }
      ],
      "hex": "01000000010000000000000000000000000000000000000000000000000000000000000000ffffffff0804ffff001d028d09ffffffff0100f2052a01000000434104c40267428b63b3fea83199da906e0ba000497a3ebc1994a38e81363f50a07776577b650ad630e44148e8ab1835b5d1da987ffa0c7faea91dd44792eee3d18022ac00000000"
    }
  ]
}