{
  "hash": "0000000067ae27927eb8e062c1c959bca4e569724e3f32d841d8b8f7101aa953",
  "confirmations": 52140,
  "height": 958,
  "version": 1,
  "versionHex": "00000001",
  "merkleroot": "3af03a7d617071c82737d04c378a2c607a95f0bea275347fd6ac75de260c771d",
  "time": 1232317818,
  "mediantime": 1232315776,
  "nonce": 38829685,
  "bits": "1d00ffff",
  "difficulty": 1,
  "chainwork": "000000000000000000000000000000000000000000000000000003bf03bf03bf",
  "nTx": 1,
  "previousblockhash": "0000000074162224a54140815b571531707bacd94259d5593424f35aad5d35d1",
  "nextblockhash": "000000001472bfd85bc45db02fe9b76f4334b38427bdd1e40c192807a6d725e2",
  "strippedsize": 216,
  "size": 216,
  "weight": 864,
  "tx": [
    {
      "txid": "3af03a7d617071c82737d04c378a2c607a95f0bea275347fd6ac75de260c771d",
      "hash": "3af03a7d617071c82737d04c378a2c607a95f0bea275347fd6ac75de260c771d",
      "version": 1,
      "size": 135,
      "vsize": 135,
      "weight": 540,
      "locktime": 0,
      "vin": [
        {
          "coinbase": "04ffff001d023201",
          "sequence": 4294967295
        }
      ],
      "vout": [
        {
          "value": 50.0,
          "n": 0,
          "scriptPubKey": {
            "asm": "047e4bcb249e84f3cecfa3328bda853482c38ea593f153eb38e3ff891838a63261a62cca37d0353e18fa3ab2d3cd9b2ca2147d93eee72769478991c94ee792c531 OP_CHECKSIG",
            "desc": "pk(047e4bcb249e84f3cecfa3328bda853482c38ea593f153eb38e3ff891838a63261a62cca37d0353e18fa3ab2d3cd9b2ca2147d93eee72769478991c94ee792c531)#05v2mgvj",
            "hex": "41047e4bcb249e84f3cecfa3328bda853482c38ea593f153eb38e3ff891838a63261a62cca37d0353e18fa3ab2d3cd9b2ca2147d93eee72769478991c94ee792c531ac",
            "type": "pubkey"
          }
        }
      ],
      "hex": "01000000010000000000000000000000000000000000000000000000000000000000000000ffffffff0804ffff001d023201ffffffff0100f2052a010000004341047e4bcb249e84f3cecfa3328bda853482c38ea593f153eb38e3ff891838a63261a62cca37d0353e18fa3ab2d3cd9b2ca2147d93eee72769478991c94ee792c531ac00000000"
    }
  ]
}