{
  "hash": "0000000074072a95ca7158d9f16a349f9b70f5ac67a2b0a5ff3d2753663d3784",
  "confirmations": 52020,
  "height": 318,
  "version": 1,
  "versionHex": "00000001",
  "merkleroot": "485b1a237ec9ae57051e37ea4f2db852373cef6ed32d7f18869c0359e5972296",
  "time": 1231845101,
  "mediantime": 1231841699,
  "nonce": 2007980055,
  "bits": "1d00ffff",
  "difficulty": 1,
  "chainwork": "0000000000000000000000000000000000000000000000000000013f013f013f",
  "nTx": 1,
  "previousblockhash": "000000004929d251b3802ccff6876d044ac68e0bedd37edb2ac735f771ffb04a",
  "nextblockhash": "0000000062a9ed638b7297dcb39d7fafe4f5185f2777269f4f9cafa3560da318",
  "strippedsize": 216,
  "size": 216,
  "weight": 864,
  "tx": [
    {
      "txid": "485b1a237ec9ae57051e37ea4f2db852373cef6ed32d7f18869c0359e5972296",
      "hash": "485b1a237ec9ae57051e37ea4f2db852373cef6ed32d7f18869c0359e5972296",
      "version": 1,
      "size": 135,
      "vsize": 135,
      "weight": 540,
      "locktime": 0,
      "vin": [
        {
          "coinbase": "04ffff001d02d400",
          "sequence": 4294967295
        }
      ],
      "vout": [
        {
          "value": 50.0,
          "n": 0,
          "scriptPubKey": {
            "asm": "043bbbc4f769156c71999e8a6fb97910093bcb152891db8d49a12110dddec23e226d1a308573721d0004ccae976979521ea9762d7479756ba9ce6809d4d64c94ac OP_CHECKSIG",
            "desc": "pk(043bbbc4f769156c71999e8a6fb97910093bcb152891db8d49a12110dddec23e226d1a308573721d0004ccae976979521ea9762d7479756ba9ce6809d4d64c94ac)#8uzmqh3e",
            "hex": "41043bbbc4f769156c71999e8a6fb97910093bcb152891db8d49a12110dddec23e226d1a308573721d0004ccae976979521ea9762d7479756ba9ce6809d4d64c94acac",
            "type": "pubkey"
          }
        }
      ],
      "hex": "01000000010000000000000000000000000000000000000000000000000000000000000000ffffffff0804ffff001d02d400ffffffff0100f2052a010000004341043bbbc4f769156c71999e8a6fb97910093bcb152891db8d49a12110dddec23e226d1a308573721d0004ccae976979521ea9762d7479756ba9ce6809d4d64c94acac00000000"
    }
  ]
}