{
  "hash": "0000000072d95c134f9a33b8f94bfe96186efc32fe8c6d13bdc2a196e40e2df0",
  "confirmations": 52209,
  "height": 412,
  "version": 1,
  "versionHex": "00000001",
  "merkleroot": "be4e4a6dda8d5d09a649606bcda395d39b7f674ceea00af7159a49be6047807e",
  "time": 1231910935,
  "mediantime": 1231907580,
  "nonce": 1908384035,
  "bits": "1d00ffff",
  "difficulty": 1,
  "chainwork": "0000000000000000000000000000000000000000000000000000019d019d019d",
  "nTx": 1,
  "previousblockhash": "000000003ddeb377f8c85e3c7b1ac78715fbb90fe65a617d0c57c0a6f62baf94",
  "nextblockhash": "00000000621e04b0b315c9d341f8b4ff269443178a9e895e49042e3dee11fda1",
  "strippedsize": 216,
  "size": 216,
  "weight": 864,
  "tx": [
    {
      "txid": "be4e4a6dda8d5d09a649606bcda395d39b7f674ceea00af7159a49be6047807e",
      "hash": "be4e4a6dda8d5d09a649606bcda395d39b7f674ceea00af7159a49be6047807e",
      "version": 1,
      "size": 135,
      "vsize": 135,
      "weight": 540,
      "locktime": 0,
      "vin": [
        {
          "coinbase": "04ffff001d02cc02",
          "sequence": 4294967295
        }
      ],
      "vout": [
        {
          "value": 50.0,
          "n": 0,
          "scriptPubKey": {
            "asm": "04db8b3eaf5bc0ff56aaf5827cee3ff23867f858d10336988203d691c210638956898ef8146a92a30a64494b1dfde5228eb1ebf1e6c44093d6f261c4bb13fe85dd OP_CHECKSIG",
            "desc": "pk(04db8b3eaf5bc0ff56aaf5827cee3ff23867f858d10336988203d691c210638956898ef8146a92a30a64494b1dfde5228eb1ebf1e6c44093d6f261c4bb13fe85dd)#jltswza6",
            "hex": "4104db8b3eaf5bc0ff56aaf5827cee3ff23867f858d10336988203d691c210638956898ef8146a92a30a64494b1dfde5228eb1ebf1e6c44093d6f261c4bb13fe85ddac",
            "type": "pubkey"
          }
        }
      ],
      "hex": "01000000010000000000000000000000000000000000000000000000000000000000000000ffffffff0804ffff001d02cc02ffffffff0100f2052a01000000434104db8b3eaf5bc0ff56aaf5827cee3ff23867f858d10336988203d691c210638956898ef8146a92a30a64494b1dfde5228eb1ebf1e6c44093d6f261c4bb13fe85ddac00000000"
    }
  ]
}