{
  "hash": "00000000ef9b99b56eb53d5fc71bcd9a5c4d437ce434dfcc9dca183a33615636",
  "confirmations": 51977,
  "height": 1121,
  "version": 1,
  "versionHex": "00000001",
  "merkleroot": "b6c632d3545e1fb483d6354a1557dde09ec31babb74013f2f8ad525acb564eee",
  "time": 1232436493,
  "mediantime": 1232434247,
  "nonce": 3353387288,
  "bits": "1d00ffff",
  "difficulty": 1,
  "chainwork": "0000000000000000000000000000000000000000000000000000046204620462",
  "nTx": 1,
  "previousblockhash": "00000000696beb62d821a7c6dfa05a1b763b25d05f8cbc80afe22397d563921e",
  "nextblockhash": "000000009fbb06401af2691eec5fcff8b79d7202720670d492dc88117b57fd15",
  "strippedsize": 216,
  "size": 216,
  "weight": 864,
  "tx": [
    {
      "txid": "b6c632d3545e1fb483d6354a1557dde09ec31babb74013f2f8ad525acb564eee",
      "hash": "b6c632d3545e1fb483d6354a1557dde09ec31babb74013f2f8ad525acb564eee",
      "version": 1,
      "size": 135,
      "vsize": 135,
      "weight": 540,
      "locktime": 0,
      "vin": [
        {
          "coinbase": "04ffff001d025907",
          "sequence": 4294967295
        }
      ],
      "vout": [
        {
          "value": 50.0,
          "n": 0,
          "scriptPubKey": {
            "asm": "0432b8674e797465d1ac46da73ffe6dd72e2103d24b8fc467de8da728b9744bfe2fb661fedf9304400021b0cfee21ea2ef3edee8a1527c4de07b3c8267fecbf2e7 OP_CHECKSIG",
            "desc": "pk(0432b8674e797465d1ac46da73ffe6dd72e2103d24b8fc467de8da728b9744bfe2fb661fedf9304400021b0cfee21ea2ef3edee8a1527c4de07b3c8267fecbf2e7)#cef3x5my",
            "hex": "410432b8674e797465d1ac46da73ffe6dd72e2103d24b8fc467de8da728b9744bfe2fb661fedf9304400021b0cfee21ea2ef3edee8a1527c4de07b3c8267fecbf2e7ac",
            "type": "pubkey"
          }
        }
      ],
      "hex": "01000000010000000000000000000000000000000000000000000000000000000000000000ffffffff0804ffff001d025907ffffffff0100f2052a0100000043410432b8674e797465d1ac46da73ffe6dd72e2103d24b8fc467de8da728b9744bfe2fb661fedf9304400021b0cfee21ea2ef3edee8a1527c4de07b3c8267fecbf2e7ac00000000"
    }
  ]
}