{
  "hash": "0000000081c4b4acd5cdac45547858be7c09eee0186e8f6e39d94ec89226b8cb",
  "confirmations": 45916,
  "height": 7182,
  "version": 1,
  "versionHex": "00000001",
  "merkleroot": "ff47af2d5d1a4ca7a49a04c032ad8c3ca1f8bc9734028ae556e95c3b98dd4019",
  "time": 1236858206,
  "mediantime": 1236854095,
  "nonce": 4273028408,
  "bits": "1d00ffff",
  "difficulty": 1,
  "chainwork": "00000000000000000000000000000000000000000000000000001c0f1c0f1c0f",
  "nTx": 1,
  "previousblockhash": "000000008ed2ec3c0472d8ee8fe6006203e00aeb19def1e71d03b1ffec214241",
  "nextblockhash": "000000002d887db4fdd897322408e7fe207537801e55ee17fbe498d2dc133a7f",
  "strippedsize": 216,
  "size": 216,
  "weight": 864,
  "tx": [
    {
      "txid": "ff47af2d5d1a4ca7a49a04c032ad8c3ca1f8bc9734028ae556e95c3b98dd4019",
      "hash": "ff47af2d5d1a4ca7a49a04c032ad8c3ca1f8bc9734028ae556e95c3b98dd4019",
      "version": 1,
      "size": 135,
      "vsize": 135,
      "weight": 540,
      "locktime": 0,
      "vin": [
        {
          "coinbase": "04ffff001d027105",
          "sequence": 4294967295
        }
      ],
      "vout": [
        {
          "value": 50.0,
          "n": 0,
          "scriptPubKey": {
            "asm": "040378011003a4cfb1e82de23069a08d67683b5f413d53e8072e55f930291d22be3b3ce152acdc0c2b7e19750aea0615a3815eb643971743ba2c9c0c59d7eabb01 OP_CHECKSIG",
            "desc": "pk(040378011003a4cfb1e82de23069a08d67683b5f413d53e8072e55f930291d22be3b3ce152acdc0c2b7e19750aea0615a3815eb643971743ba2c9c0c59d7eabb01)#vu5y87us",
            "hex": "41040378011003a4cfb1e82de23069a08d67683b5f413d53e8072e55f930291d22be3b3ce152acdc0c2b7e19750aea0615a3815eb643971743ba2c9c0c59d7eabb01ac",
            "type": "pubkey"
          }
        }
      ],
      "hex": "01000000010000000000000000000000000000000000000000000000000000000000000000ffffffff0804ffff001d027105ffffffff0100f2052a010000004341040378011003a4cfb1e82de23069a08d67683b5f413d53e8072e55f930291d22be3b3ce152acdc0c2b7e19750aea0615a3815eb643971743ba2c9c0c59d7eabb01ac00000000"
    }
  ]
}