{
  "hash": "0000000057921684b09457cbaba3b5c7809b40b1e37f71dc54e3b86b5bfaec7e",
  "confirmations": 44739,
  "height": 8359,
  "version": 1,
  "versionHex": "00000001",
  "merkleroot": "71057336df72e10e7b940d3783d58688935a53e9fa72ceb59dc4406e1a6a367e",
  "time": 1237772804,
  "mediantime": 1237771346,
  "nonce": 2355126790,
  "bits": "1d00ffff",
  "difficulty": 1,
  "chainwork": "000000000000000000000000000000000000000000000000000020a820a820a8",
  "nTx": 1,
  "previousblockhash": "0000000080a79cd6eb65fe147f655d0f17a00e2629dba2800a1563982cf91f12",
  "nextblockhash": "00000000d50a093110c3cde6536f10c7ca57e46896397372930d74534ac16879",
  "strippedsize": 216,
  "size": 216,
  "weight": 864,
  "tx": [
    {
      "txid": "71057336df72e10e7b940d3783d58688935a53e9fa72ceb59dc4406e1a6a367e",
      "hash": "71057336df72e10e7b940d3783d58688935a53e9fa72ceb59dc4406e1a6a367e",
      "version": 1,
      "size": 135,
      "vsize": 135,
      "weight": 540,
      "locktime": 0,
      "vin": [
        {
          "coinbase": "04ffff001d023505",
          "sequence": 4294967295
        }
      ],
      "vout": [
        {
          "value": 50.0,
          "n": 0,
          "scriptPubKey": {
            "asm": "04f9d9e2b890af2588e3663c6eeed2f1502c570b739e63c652c55b733f56fb10cfe67331a1441b2a070933c3b4384eb535372be6737d48ef22e1349b81ea2fc315 OP_CHECKSIG",
            "desc": "pk(04f9d9e2b890af2588e3663c6eeed2f1502c570b739e63c652c55b733f56fb10cfe67331a1441b2a070933c3b4384eb535372be6737d48ef22e1349b81ea2fc315)#l0rvuwxz",
            "hex": "4104f9d9e2b890af2588e3663c6eeed2f1502c570b739e63c652c55b733f56fb10cfe67331a1441b2a070933c3b4384eb535372be6737d48ef22e1349b81ea2fc315ac",
            "type": "pubkey"
          }
        }
      ],
      "hex": "01000000010000000000000000000000000000000000000000000000000000000000000000ffffffff0804ffff001d023505ffffffff0100f2052a01000000434104f9d9e2b890af2588e3663c6eeed2f1502c570b739e63c652c55b733f56fb10cfe67331a1441b2a070933c3b4384eb535372be6737d48ef22e1349b81ea2fc315ac00000000"
    }
  ]
}