{
  "hash": "0000000072decba8d531c499f60ba06e5a1f652bd27acce716c421770d8e1717",
  "confirmations": 47721,
  "height": 5377,
  "version": 1,
  "versionHex": "00000001",
  "merkleroot": "f6ee907f0da8c96ce2da2864c6fb6f05957600e2c2031e88f19885d1a695b707",
  "time": 1235422034,
  "mediantime": 1235417902,
  "nonce": 251076869,
  "bits": "1d00ffff",
  "difficulty": 1,
  "chainwork": "0000000000000000000000000000000000000000000000000000150215021502",
  "nTx": 1,
  "previousblockhash": "00000000ceffe58b53f20d14bec6c194968983ddab9504e187f88c0b5aea8d7e",
  "nextblockhash": "000000005b3b88b319812d3b189e398e206567f518dd0e3cea34c43b7bf2d710",
  "strippedsize": 216,
  "size": 216,
  "weight": 864,
  "tx": [
    {
      "txid": "f6ee907f0da8c96ce2da2864c6fb6f05957600e2c2031e88f19885d1a695b707",
      "hash": "f6ee907f0da8c96ce2da2864c6fb6f05957600e2c2031e88f19885d1a695b707",
      "version": 1,
      "size": 135,
      "vsize": 135,
      "weight": 540,
      "locktime": 0,
      "vin": [
        {
          "coinbase": "04ffff001d024d03",
          "sequence": 4294967295
        }
      ],
      "vout": [
        {
          "value": 50.0,
          "n": 0,
          "scriptPubKey": {
            "asm": "047ad38f09dfa93d166a466171929c32b25bbcd21aa06a4be8129257443aff4e2b7b9cb32859dd24f736f323cb471ec126c015a8ca3186048df00e7b11d4157ff1 OP_CHECKSIG",
            "desc": "pk(047ad38f09dfa93d166a466171929c32b25bbcd21aa06a4be8129257443aff4e2b7b9cb32859dd24f736f323cb471ec126c015a8ca3186048df00e7b11d4157ff1)#p52mnvdy",
            "hex": "41047ad38f09dfa93d166a466171929c32b25bbcd21aa06a4be8129257443aff4e2b7b9cb32859dd24f736f323cb471ec126c015a8ca3186048df00e7b11d4157ff1ac",
            "type": "pubkey"
          }
        }
      ],
      "hex": "01000000010000000000000000000000000000000000000000000000000000000000000000ffffffff0804ffff001d024d03ffffffff0100f2052a010000004341047ad38f09dfa93d166a466171929c32b25bbcd21aa06a4be8129257443aff4e2b7b9cb32859dd24f736f323cb471ec126c015a8ca3186048df00e7b11d4157ff1ac00000000"
    }
  ]
}