{
  "hash": "00000000be92f0a72cdffd19883ad65491233f589c56513157723f11e341ed24",
  "confirmations": 43529,
  "height": 9569,
  "version": 1,
  "versionHex": "00000001",
  "merkleroot": "a06d267838dd0b867e229662fa7462f0a09733d7b20403d5c8e589eeb84e5303",
  "time": 1238676951,
  "mediantime": 1238673578,
  "nonce": 14973493,
  "bits": "1d00ffff",
  "difficulty": 1,
  "chainwork": "0000000000000000000000000000000000000000000000000000256225622562",
  "nTx": 1,
  "previousblockhash": "00000000739781c45a78004847a0fef20c7499222aef74bff79efac2033f3039",
  "nextblockhash": "000000003c53a5818f50e81b12fff3f32d2356a551b101fe0ceba27232f21c02",
  "strippedsize": 216,
  "size": 216,
  "weight": 864,
  "tx": [
    {
      "txid": "a06d267838dd0b867e229662fa7462f0a09733d7b20403d5c8e589eeb84e5303",
      "hash": "a06d267838dd0b867e229662fa7462f0a09733d7b20403d5c8e589eeb84e5303",
      "version": 1,
      "size": 135,
      "vsize": 135,
      "weight": 540,
      "locktime": 0,
      "vin": [
        {
          "coinbase": "04ffff001d02af00",
          "sequence": 4294967295
        }
      ],
      "vout": [
        {
          "value": 50.0,
          "n": 0,
          "scriptPubKey": {
            "asm": "04319c4f9bfb514cd0f14f9f75a6ab910f54a92cc07e6082662c6f76dcf5e033051bebed44b73bb2c9076e785884b5dc2fb283a360856fce576816f1f2f6c5273e OP_CHECKSIG",
            "desc": "pk(04319c4f9bfb514cd0f14f9f75a6ab910f54a92cc07e6082662c6f76dcf5e033051bebed44b73bb2c9076e785884b5dc2fb283a360856fce576816f1f2f6c5273e)#ncp0qtxl",
            "hex": "4104319c4f9bfb514cd0f14f9f75a6ab910f54a92cc07e6082662c6f76dcf5e033051bebed44b73bb2c9076e785884b5dc2fb283a360856fce576816f1f2f6c5273eac",
            "type": "pubkey"
          }
        }
      ],
      "hex": "01000000010000000000000000000000000000000000000000000000000000000000000000ffffffff0804ffff001d02af00ffffffff0100f2052a01000000434104319c4f9bfb514cd0f14f9f75a6ab910f54a92cc07e6082662c6f76dcf5e033051bebed44b73bb2c9076e785884b5dc2fb283a360856fce576816f1f2f6c5273eac00000000"
    }
  ]
}