{
  "hash": "00000000f351863005e8f240791c68ee047da2ff39be926ca5602e6daaef1368",
  "confirmations": 44919,
  "height": 8179,
  "version": 1,
  "versionHex": "00000001",
  "merkleroot": "024c8aff871ee9c9313a2edd70e2d27f4a9548e212509cfea748a3e60f8ddfcc",
  "time": 1237592073,
  "mediantime": 1237588249,
  "nonce": 202868725,
  "bits": "1d00ffff",
  "difficulty": 1,
  "chainwork": "00000000000000000000000000000000000000000000000000001ff41ff41ff4",
  "nTx": 1,
  "previousblockhash": "00000000359782b3098dbc324b8bffb279761040ca8cf3572a877a947753f1ec",
  "nextblockhash": "00000000eefefddda4f86c29ec384785e4dd253f849b007a1f62f9191cc50c9f",
  "strippedsize": 216,
  "size": 216,
  "weight": 864,
  "tx": [
    {
      "txid": "024c8aff871ee9c9313a2edd70e2d27f4a9548e212509cfea748a3e60f8ddfcc",
      "hash": "024c8aff871ee9c9313a2edd70e2d27f4a9548e212509cfea748a3e60f8ddfcc",
      "version": 1,
      "size": 135,
      "vsize": 135,
      "weight": 540,
      "locktime": 0,
      "vin": [
        {
          "coinbase": "04ffff001d02bc00",
          "sequence": 4294967295
        }
      ],
      "vout": [
        {
          "value": 50.0,
          "n": 0,
          "scriptPubKey": {
            "asm": "04ba927ca4eb4d8035bd5b43dc6d09a8f59f0cb6fef7a38a02bf605f17b48a39548c5e1c038b34b472db93f23460f7383354bbce1f9016db83fde63dcf4fddd3f7 OP_CHECKSIG",
            "desc": "pk(04ba927ca4eb4d8035bd5b43dc6d09a8f59f0cb6fef7a38a02bf605f17b48a39548c5e1c038b34b472db93f23460f7383354bbce1f9016db83fde63dcf4fddd3f7)#88avq9t3",
            "hex": "4104ba927ca4eb4d8035bd5b43dc6d09a8f59f0cb6fef7a38a02bf605f17b48a39548c5e1c038b34b472db93f23460f7383354bbce1f9016db83fde63dcf4fddd3f7ac",
            "type": "pubkey"
          }
        }
      ],
      "hex": "01000000010000000000000000000000000000000000000000000000000000000000000000ffffffff0804ffff001d02bc00ffffffff0100f2052a01000000434104ba927ca4eb4d8035bd5b43dc6d09a8f59f0cb6fef7a38a02bf605f17b48a39548c5e1c038b34b472db93f23460f7383354bbce1f9016db83fde63dcf4fddd3f7ac00000000"
    }
  ]
}