{
  "hash": "0000000025bc5e1e48fa381ac934cbdf4c59345deb9fcffc7566de29da908317",
  "confirmations": 43926,
  "height": 9172,
  "version": 1,
  "versionHex": "00000001",
  "merkleroot": "055728d600cb487ef458b9a664455f4d7ca1d21505c56fea0eee425fb13bc6f6",
  "time": 1238380586,
  "mediantime": 1238377241,
  "nonce": 630052899,
  "bits": "1d00ffff",
  "difficulty": 1,
  "chainwork": "000000000000000000000000000000000000000000000000000023d523d523d5",
  "nTx": 1,
  "previousblockhash": "000000006566568c459e2b3b65fffae27ecac3b43b7903a5adb2b94bb5836c33",
  "nextblockhash": "000000008725c2ef27dc2a293c97bb446586d4aeeb1f9b62eb9f94c347bd1a76",
  "strippedsize": 216,
  "size": 216,
  "weight": 864,
  "tx": [
    {
      "txid": "055728d600cb487ef458b9a664455f4d7ca1d21505c56fea0eee425fb13bc6f6",
      "hash": "055728d600cb487ef458b9a664455f4d7ca1d21505c56fea0eee425fb13bc6f6",
      "version": 1,
      "size": 135,
      "vsize": 135,
      "weight": 540,
      "locktime": 0,
      "vin": [
        {
          "coinbase": "04ffff001d02bc09",
          "sequence": 4294967295
        }
      ],
      "vout": [
        {
          "value": 50.0,
          "n": 0,
          "scriptPubKey": {
            "asm": "0407dae1723fd78d5ca62881349e788a2ea1a15f8cc50de9e9aec2aee113ade75c2cf75d6df005fbb54c634cc0991457aa583d66e8bbb779c3e2ede472a146fe97 OP_CHECKSIG",
            "desc": "pk(0407dae1723fd78d5ca62881349e788a2ea1a15f8cc50de9e9aec2aee113ade75c2cf75d6df005fbb54c634cc0991457aa583d66e8bbb779c3e2ede472a146fe97)#nfws4umn",
            "hex": "410407dae1723fd78d5ca62881349e788a2ea1a15f8cc50de9e9aec2aee113ade75c2cf75d6df005fbb54c634cc0991457aa583d66e8bbb779c3e2ede472a146fe97ac",
            "type": "pubkey"
          }
        }
      ],
      "hex": "01000000010000000000000000000000000000000000000000000000000000000000000000ffffffff0804ffff001d02bc09ffffffff0100f2052a0100000043410407dae1723fd78d5ca62881349e788a2ea1a15f8cc50de9e9aec2aee113ade75c2cf75d6df005fbb54c634cc0991457aa583d66e8bbb779c3e2ede472a146fe97ac00000000"
    }
  ]
}