{
  "hash": "000000006b383d48b71cdf1aa824697863b286e6d302150d898c9783ff20aef9",
  "confirmations": 47896,
  "height": 5202,
  "version": 1,
  "versionHex": "00000001",
  "merkleroot": "aee59bef69c06be99be780970be7d32d1d954c99dbbf08e364355b73490b7a80",
  "time": 1235288001,
  "mediantime": 1235286304,
  "nonce": 99793703,
  "bits": "1d00ffff",
  "difficulty": 1,
  "chainwork": "0000000000000000000000000000000000000000000000000000145314531453",
  "nTx": 1,
  "previousblockhash": "00000000a7900a5c3cac254aa7db9052d2f694529a49c5b0477bf4d1e09269ec",
  "nextblockhash": "00000000cca557c753f23c8402cbce795b4cb399e94142b429ff16a7d2cca758",
  "strippedsize": 215,
  "size": 215,
  "weight": 860,
  "tx": [
    {
      "txid": "aee59bef69c06be99be780970be7d32d1d954c99dbbf08e364355b73490b7a80",
      "hash": "aee59bef69c06be99be780970be7d32d1d954c99dbbf08e364355b73490b7a80",
      "version": 1,
      "size": 134,
      "vsize": 134,
      "weight": 536,
      "locktime": 0,
      "vin": [
        {
          "coinbase": "04ffff001d0124",
          "sequence": 4294967295
        }
      ],
      "vout": [
        {
          "value": 50.0,
          "n": 0,
          "scriptPubKey": {
            "asm": "0430a765a8a94776ba58e4a1feb4fbba419fc6cf49b0fb63ab98aead2dc03083d32766ffbdc2495e9392e6a65c03880bdf18e145c12fc4da72dbd16a2ae1fa1840 OP_CHECKSIG",
            "desc": "pk(0430a765a8a94776ba58e4a1feb4fbba419fc6cf49b0fb63ab98aead2dc03083d32766ffbdc2495e9392e6a65c03880bdf18e145c12fc4da72dbd16a2ae1fa1840)#6llajhjz",
            "hex": "410430a765a8a94776ba58e4a1feb4fbba419fc6cf49b0fb63ab98aead2dc03083d32766ffbdc2495e9392e6a65c03880bdf18e145c12fc4da72dbd16a2ae1fa1840ac",
            "type": "pubkey"
          }
        }
      ],
      "hex": "01000000010000000000000000000000000000000000000000000000000000000000000000ffffffff0704ffff001d0124ffffffff0100f2052a0100000043410430a765a8a94776ba58e4a1feb4fbba419fc6cf49b0fb63ab98aead2dc03083d32766ffbdc2495e9392e6a65c03880bdf18e145c12fc4da72dbd16a2ae1fa1840ac00000000"
    }
  ]
}