{
  "hash": "00000000c7a90f69f3edd1bc0bbf1391decc8367519b61fbbf81a05b43e04a6c",
  "confirmations": 50216,
  "height": 2882,
  "version": 1,
  "versionHex": "00000001",
  "merkleroot": "5229e8b841da79ef8a1db9b52f1b675ad24bd4a67f8c732d3efb95286a93c905",
  "time": 1233679888,
  "mediantime": 1233676732,
  "nonce": 2773095194,
  "bits": "1d00ffff",
  "difficulty": 1,
  "chainwork": "00000000000000000000000000000000000000000000000000000b430b430b43",
  "nTx": 1,
  "previousblockhash": "00000000a411b5574b9c9c5a2a8418244fc0506ea48c8aa6415218a7a44b98c9",
  "nextblockhash": "000000007e10e9dae52f6354019e0eed8092447a6cf2a5686759b6824767ad61",
  "strippedsize": 216,
  "size": 216,
  "weight": 864,
  "tx": [
    {
      "txid": "5229e8b841da79ef8a1db9b52f1b675ad24bd4a67f8c732d3efb95286a93c905",
      "hash": "5229e8b841da79ef8a1db9b52f1b675ad24bd4a67f8c732d3efb95286a93c905",
      "version": 1,
      "size": 135,
      "vsize": 135,
      "weight": 540,
      "locktime": 0,
      "vin": [
        {
          "coinbase": "04ffff001d022a07",
          "sequence": 4294967295
        }
      ],
      "vout": [
        {
          "value": 50.0,
          "n": 0,
          "scriptPubKey": {
            "asm": "04c4005d1bcc5082f674a19c5e6ae59313b414a2de271a5438eab3ee3fc3e3b874575dea743eed5754faa6c0e2687f487010713f65b97ff8ccdd053c8cafc646d3 OP_CHECKSIG",
            "desc": "pk(04c4005d1bcc5082f674a19c5e6ae59313b414a2de271a5438eab3ee3fc3e3b874575dea743eed5754faa6c0e2687f487010713f65b97ff8ccdd053c8cafc646d3)#xtkput2f",
            "hex": "4104c4005d1bcc5082f674a19c5e6ae59313b414a2de271a5438eab3ee3fc3e3b874575dea743eed5754faa6c0e2687f487010713f65b97ff8ccdd053c8cafc646d3ac",
            "type": "pubkey"
          }
        }
      ],
      "hex": "01000000010000000000000000000000000000000000000000000000000000000000000000ffffffff0804ffff001d022a07ffffffff0100f2052a01000000434104c4005d1bcc5082f674a19c5e6ae59313b414a2de271a5438eab3ee3fc3e3b874575dea743eed5754faa6c0e2687f487010713f65b97ff8ccdd053c8cafc646d3ac00000000"
    }
  ]
}