{
  "hash": "00000000df891453f150fb58d0b08bdeed2419916265e5801d61a6e4db217d29",
  "confirmations": 46801,
  "height": 6297,
  "version": 1,
  "versionHex": "00000001",
  "merkleroot": "833e604e346c1046f17f474b93005e4e1bb50e7607a93dec9a22d7aaa8aaf2c4",
  "time": 1236170639,
  "mediantime": 1236164431,
  "nonce": 1905464602,
  "bits": "1d00ffff",
  "difficulty": 1,
  "chainwork": "0000000000000000000000000000000000000000000000000000189a189a189a",
  "nTx": 1,
  "previousblockhash": "000000004dc7e0fd5f7b7e694df8a2ada39f5263b0facdb37c5d6027eca50ef3",
  "nextblockhash": "00000000d205842217d63b3197988b6753161e593281ec4e14fdda672143daa9",
  "strippedsize": 215,
  "size": 215,
  "weight": 860,
  "tx": [
    {
      "txid": "833e604e346c1046f17f474b93005e4e1bb50e7607a93dec9a22d7aaa8aaf2c4",
      "hash": "833e604e346c1046f17f474b93005e4e1bb50e7607a93dec9a22d7aaa8aaf2c4",
      "version": 1,
      "size": 134,
      "vsize": 134,
      "weight": 536,
      "locktime": 0,
      "vin": [
        {
          "coinbase": "04ffff001d0117",
          "sequence": 4294967295
        }
      ],
      "vout": [
        {
          "value": 50.0,
          "n": 0,
          "scriptPubKey": {
            "asm": "04d36a23a93848428e482cbd0931b8613a175bce3d74dc02d4de5d679610fe235c50b83286cf74fd1d87323aea939aad3c6435bc107ffeabc2ec0ff56b5473cc2f OP_CHECKSIG",
            "desc": "pk(04d36a23a93848428e482cbd0931b8613a175bce3d74dc02d4de5d679610fe235c50b83286cf74fd1d87323aea939aad3c6435bc107ffeabc2ec0ff56b5473cc2f)#8kz8k459",
            "hex": "4104d36a23a93848428e482cbd0931b8613a175bce3d74dc02d4de5d679610fe235c50b83286cf74fd1d87323aea939aad3c6435bc107ffeabc2ec0ff56b5473cc2fac",
            "type": "pubkey"
          }
        }
      ],
      "hex": "01000000010000000000000000000000000000000000000000000000000000000000000000ffffffff0704ffff001d0117ffffffff0100f2052a01000000434104d36a23a93848428e482cbd0931b8613a175bce3d74dc02d4de5d679610fe235c50b83286cf74fd1d87323aea939aad3c6435bc107ffeabc2ec0ff56b5473cc2fac00000000"
    }
  ]
}