{
  "hash": "000000003a8935612caceaa7181d1c4a66f09cd8745573611d2fbadd43f25033",
  "confirmations": 50353,
  "height": 2745,
  "version": 1,
  "versionHex": "00000001",
  "merkleroot": "c9c14594465dc741ed1cd906e0721a5fd42b5355ee34ef2b0a16a88830d02a48",
  "time": 1233592278,
  "mediantime": 1233589478,
  "nonce": 1929113893,
  "bits": "1d00ffff",
  "difficulty": 1,
  "chainwork": "00000000000000000000000000000000000000000000000000000aba0aba0aba",
  "nTx": 1,
  "previousblockhash": "00000000159eb744e992115bfe47a11714ca04643037989d9da3c9579afb41cb",
  "nextblockhash": "00000000e2c4a4e9a491e5e82bc4284f9a28db4abe1c8109f952b9e25747dfb4",
  "strippedsize": 216,
  "size": 216,
  "weight": 864,
  "tx": [
    {
      "txid": "c9c14594465dc741ed1cd906e0721a5fd42b5355ee34ef2b0a16a88830d02a48",
      "hash": "c9c14594465dc741ed1cd906e0721a5fd42b5355ee34ef2b0a16a88830d02a48",
      "version": 1,
      "size": 135,
      "vsize": 135,
      "weight": 540,
      "locktime": 0,
      "vin": [
        {
          "coinbase": "04ffff001d026205",
          "sequence": 4294967295
        }
      ],
      "vout": [
        {
          "value": 50.0,
          "n": 0,
          "scriptPubKey": {
            "asm": "04ea69fa00275afff590a42e5b6a00b7e37487f07e555ef9f7165d80c72e31bf1f5a2408ddd1f3e52adf307104b2892f75725970c3f88902a3efe5e91ddc68d02b OP_CHECKSIG",
            "desc": "pk(04ea69fa00275afff590a42e5b6a00b7e37487f07e555ef9f7165d80c72e31bf1f5a2408ddd1f3e52adf307104b2892f75725970c3f88902a3efe5e91ddc68d02b)#6r97jfvv",
            "hex": "4104ea69fa00275afff590a42e5b6a00b7e37487f07e555ef9f7165d80c72e31bf1f5a2408ddd1f3e52adf307104b2892f75725970c3f88902a3efe5e91ddc68d02bac",
            "type": "pubkey"
          }
        }
      ],
      "hex": "01000000010000000000000000000000000000000000000000000000000000000000000000ffffffff0804ffff001d026205ffffffff0100f2052a01000000434104ea69fa00275afff590a42e5b6a00b7e37487f07e555ef9f7165d80c72e31bf1f5a2408ddd1f3e52adf307104b2892f75725970c3f88902a3efe5e91ddc68d02bac00000000"
    }
  ]
}