{
  "hash": "00000000508635742fe3c95ba2d1c8a4a985de308e5e4b45b0d88c3e9beaa210",
  "confirmations": 51814,
  "height": 1284,
  "version": 1,
  "versionHex": "00000001",
  "merkleroot": "9ef7223cbf16b956755dc2282e6acf25a0a0e001d8cb317794268f47b66d34a9",
  "time": 1232563152,
  "mediantime": 1232558706,
  "nonce": 96563514,
  "bits": "1d00ffff",
  "difficulty": 1,
  "chainwork": "0000000000000000000000000000000000000000000000000000050505050505",
  "nTx": 1,
  "previousblockhash": "000000005bc20e95e988500042863abf7ccfdc188b69762108dc653947281c58",
  "nextblockhash": "00000000146e6b3b4659cacbcda38e5d26d1d3d668fa1048fb99d84a03789932",
  "strippedsize": 215,
  "size": 215,
  "weight": 860,
  "tx": [
    {
      "txid": "9ef7223cbf16b956755dc2282e6acf25a0a0e001d8cb317794268f47b66d34a9",
      "hash": "9ef7223cbf16b956755dc2282e6acf25a0a0e001d8cb317794268f47b66d34a9",
      "version": 1,
      "size": 134,
      "vsize": 134,
      "weight": 536,
      "locktime": 0,
      "vin": [
        {
          "coinbase": "04ffff001d0113",
          "sequence": 4294967295
        }
      ],
      "vout": [
        {
          "value": 50.0,
          "n": 0,
          "scriptPubKey": {
            "asm": "04c8aaa0c08194912aa9e0214983f95864ebdbe3c1405e1cb0293288aea8726464cc243ccd4e6198886e2e17ca297c082b1df14d11540515b3bd60bb1d3e498a9d OP_CHECKSIG",
            "desc": "pk(04c8aaa0c08194912aa9e0214983f95864ebdbe3c1405e1cb0293288aea8726464cc243ccd4e6198886e2e17ca297c082b1df14d11540515b3bd60bb1d3e498a9d)#87vu8j49",
            "hex": "4104c8aaa0c08194912aa9e0214983f95864ebdbe3c1405e1cb0293288aea8726464cc243ccd4e6198886e2e17ca297c082b1df14d11540515b3bd60bb1d3e498a9dac",
            "type": "pubkey"
          }
        }
      ],
      "hex": "01000000010000000000000000000000000000000000000000000000000000000000000000ffffffff0704ffff001d0113ffffffff0100f2052a01000000434104c8aaa0c08194912aa9e0214983f95864ebdbe3c1405e1cb0293288aea8726464cc243ccd4e6198886e2e17ca297c082b1df14d11540515b3bd60bb1d3e498a9dac00000000"
    }
  ]
}