{
  "hash": "00000000ec7f892e14f2f3f2314f072443b96bc52c6eb982f4728c3a9761e544",
  "confirmations": 43326,
  "height": 9772,
  "version": 1,
  "versionHex": "00000001",
  "merkleroot": "ed7d3c6080cce5a80c0da222ab5aeb20770d893ce66545370fea1c849907c9b9",
  "time": 1238835416,
  "mediantime": 1238831224,
  "nonce": 1439029297,
  "bits": "1d00ffff",
  "difficulty": 1,
  "chainwork": "0000000000000000000000000000000000000000000000000000262d262d262d",
  "nTx": 1,
  "previousblockhash": "0000000093f6623ff5855f72bbd8893a8a3f6f482d9365a882c23540c1354c4b",
  "nextblockhash": "000000001d3b956fdb37433fa326005ca53162f7a9ac1afb26afd09dce24454d",
  "strippedsize": 216,
  "size": 216,
  "weight": 864,
  "tx": [
    {
      "txid": "ed7d3c6080cce5a80c0da222ab5aeb20770d893ce66545370fea1c849907c9b9",
      "hash": "ed7d3c6080cce5a80c0da222ab5aeb20770d893ce66545370fea1c849907c9b9",
      "version": 1,
      "size": 135,
      "vsize": 135,
      "weight": 540,
      "locktime": 0,
      "vin": [
        {
          "coinbase": "04ffff001d02210a",
          "sequence": 4294967295
        }
      ],
      "vout": [
        {
          "value": 50.0,
          "n": 0,
          "scriptPubKey": {
            "asm": "0455788e94957442c2e5918eb79f4a7bc3716b41ba661a7df41664c894bf74ac39d0a2772570bba2f74fd493aa8d3dfb0ac2d1a4032e40e9ff595d0ce31e319502 OP_CHECKSIG",
            "desc": "pk(0455788e94957442c2e5918eb79f4a7bc3716b41ba661a7df41664c894bf74ac39d0a2772570bba2f74fd493aa8d3dfb0ac2d1a4032e40e9ff595d0ce31e319502)#76jjtnu4",
            "hex": "410455788e94957442c2e5918eb79f4a7bc3716b41ba661a7df41664c894bf74ac39d0a2772570bba2f74fd493aa8d3dfb0ac2d1a4032e40e9ff595d0ce31e319502ac",
            "type": "pubkey"
          }
        }
      ],
      "hex": "01000000010000000000000000000000000000000000000000000000000000000000000000ffffffff0804ffff001d02210affffffff0100f2052a0100000043410455788e94957442c2e5918eb79f4a7bc3716b41ba661a7df41664c894bf74ac39d0a2772570bba2f74fd493aa8d3dfb0ac2d1a4032e40e9ff595d0ce31e319502ac00000000"
    }
  ]
}