{
  "hash": "00000000ed97861e301d7d21c0f626ee2bd6827dc2c4ef1c1a34d991ceb8a9a8",
  "confirmations": 47330,
  "height": 5768,
  "version": 1,
  "versionHex": "00000001",
  "merkleroot": "fd28ad94c787820efd01b2b1f55099dd69e379fc27cbdaa2748a79c7a02071a2",
  "time": 1235737042,
  "mediantime": 1235732198,
  "nonce": 2677969717,
  "bits": "1d00ffff",
  "difficulty": 1,
  "chainwork": "0000000000000000000000000000000000000000000000000000168916891689",
  "nTx": 1,
  "previousblockhash": "000000001c5e1c8d9368ad6d4d7101a6176525856fd6aa81ca6b8b6ce25782a8",
  "nextblockhash": "00000000cdc8a422ac44dbba711a1a4b2e03f32234441ac423c311aca1b34d51",
  "strippedsize": 215,
  "size": 215,
  "weight": 860,
  "tx": [
    {
      "txid": "fd28ad94c787820efd01b2b1f55099dd69e379fc27cbdaa2748a79c7a02071a2",
      "hash": "fd28ad94c787820efd01b2b1f55099dd69e379fc27cbdaa2748a79c7a02071a2",
      "version": 1,
      "size": 134,
      "vsize": 134,
      "weight": 536,
      "locktime": 0,
      "vin": [
        {
          "coinbase": "04ffff001d0145",
          "sequence": 4294967295
        }
      ],
      "vout": [
        {
          "value": 50.0,
          "n": 0,
          "scriptPubKey": {
            "asm": "04698d5dda92937a4d9a2fdfc69be7082824f5192b702dab1c55c610bca72852285057f33c595e5ed5f4a56b804a76378bfbc6db62dabbaeeeb8c09876c3f30413 OP_CHECKSIG",
            "desc": "pk(04698d5dda92937a4d9a2fdfc69be7082824f5192b702dab1c55c610bca72852285057f33c595e5ed5f4a56b804a76378bfbc6db62dabbaeeeb8c09876c3f30413)#vtqwnk0h",
            "hex": "4104698d5dda92937a4d9a2fdfc69be7082824f5192b702dab1c55c610bca72852285057f33c595e5ed5f4a56b804a76378bfbc6db62dabbaeeeb8c09876c3f30413ac",
            "type": "pubkey"
          }
        }
      ],
      "hex": "01000000010000000000000000000000000000000000000000000000000000000000000000ffffffff0704ffff001d0145ffffffff0100f2052a01000000434104698d5dda92937a4d9a2fdfc69be7082824f5192b702dab1c55c610bca72852285057f33c595e5ed5f4a56b804a76378bfbc6db62dabbaeeeb8c09876c3f30413ac00000000"
    }
  ]
}