{
  "hash": "00000000e8b0ee07bedc4499aced3524a875ed74cf71a6b3b30e2d887edaf6f0",
  "confirmations": 50874,
  "height": 2224,
  "version": 1,
  "versionHex": "00000001",
  "merkleroot": "3a6168e6da09dcc8be5ad8f366d433573c99605da38dd468213eb03900e9a045",
  "time": 1233229987,
  "mediantime": 1233227246,
  "nonce": 14860477,
  "bits": "1d00ffff",
  "difficulty": 1,
  "chainwork": "000000000000000000000000000000000000000000000000000008b108b108b1",
  "nTx": 1,
  "previousblockhash": "000000006d89216b4cf7bbe9f6dec95741e4f7069259c32a4efe31091e63fffb",
  "nextblockhash": "00000000a0fd3885392267c114707089340faf95dd6e8cd1f31a688a1eaaf120",
  "strippedsize": 216,
  "size": 216,
  "weight": 864,
  "tx": [
    {
      "txid": "3a6168e6da09dcc8be5ad8f366d433573c99605da38dd468213eb03900e9a045",
      "hash": "3a6168e6da09dcc8be5ad8f366d433573c99605da38dd468213eb03900e9a045",
      "version": 1,
      "size": 135,
      "vsize": 135,
      "weight": 540,
      "locktime": 0,
      "vin": [
        {
          "coinbase": "04ffff001d022801",
          "sequence": 4294967295
        }
      ],
      "vout": [
        {
          "value": 50.0,
          "n": 0,
          "scriptPubKey": {
            "asm": "04be4a082e2c8b3d3133fca1989a70f95b823b8a8c402e13f9402723e0b5d58f668376ae63e1dfe53f7f38ef07b27fef94dbbe50708fbd2b205d937c6e1a66dfe0 OP_CHECKSIG",
            "desc": "pk(04be4a082e2c8b3d3133fca1989a70f95b823b8a8c402e13f9402723e0b5d58f668376ae63e1dfe53f7f38ef07b27fef94dbbe50708fbd2b205d937c6e1a66dfe0)#th8gh3f5",
            "hex": "4104be4a082e2c8b3d3133fca1989a70f95b823b8a8c402e13f9402723e0b5d58f668376ae63e1dfe53f7f38ef07b27fef94dbbe50708fbd2b205d937c6e1a66dfe0ac",
            "type": "pubkey"
          }
        }
      ],
      "hex": "01000000010000000000000000000000000000000000000000000000000000000000000000ffffffff0804ffff001d022801ffffffff0100f2052a01000000434104be4a082e2c8b3d3133fca1989a70f95b823b8a8c402e13f9402723e0b5d58f668376ae63e1dfe53f7f38ef07b27fef94dbbe50708fbd2b205d937c6e1a66dfe0ac00000000"
    }
  ]
}