{
  "hash": "0000000079991e4f34d867e6fbc96e94397bfe08b1d6acbcb5d631f63765cab2",
  "confirmations": 47920,
  "height": 5178,
  "version": 1,
  "versionHex": "00000001",
  "merkleroot": "1cfdb3b2c76db3979eb7b36d5cb2098876942340ff00fd033a7b7d1e99b32302",
  "time": 1235271659,
  "mediantime": 1235268374,
  "nonce": 229465380,
  "bits": "1d00ffff",
  "difficulty": 1,
  "chainwork": "0000000000000000000000000000000000000000000000000000143b143b143b",
  "nTx": 1,
  "previousblockhash": "000000009f72207cffa94789713facfc7eb8c8527b131973db9b38ceaadaa6b2",
  "nextblockhash": "000000008050b24ff10e080b01a1276e756bc6a60d4e94e720c24a7f15876d8c",
  "strippedsize": 215,
  "size": 215,
  "weight": 860,
  "tx": [
    {
      "txid": "1cfdb3b2c76db3979eb7b36d5cb2098876942340ff00fd033a7b7d1e99b32302",
      "hash": "1cfdb3b2c76db3979eb7b36d5cb2098876942340ff00fd033a7b7d1e99b32302",
      "version": 1,
      "size": 134,
      "vsize": 134,
      "weight": 536,
      "locktime": 0,
      "vin": [
        {
          "coinbase": "04ffff001d0116",
          "sequence": 4294967295
        }
      ],
      "vout": [
        {
          "value": 50.0,
          "n": 0,
          "scriptPubKey": {
            "asm": "043bfd2007f95a6ba20fb4cd2b2aee03d3bdd79205fdc9fa7f9cbcf154e598b07b29d65e9a99136039b223b6c1d733f7cadc0703e3548635ca48ed77df6bd85829 OP_CHECKSIG",
            "desc": "pk(043bfd2007f95a6ba20fb4cd2b2aee03d3bdd79205fdc9fa7f9cbcf154e598b07b29d65e9a99136039b223b6c1d733f7cadc0703e3548635ca48ed77df6bd85829)#c9e7faj5",
            "hex": "41043bfd2007f95a6ba20fb4cd2b2aee03d3bdd79205fdc9fa7f9cbcf154e598b07b29d65e9a99136039b223b6c1d733f7cadc0703e3548635ca48ed77df6bd85829ac",
            "type": "pubkey"
          }
        }
      ],
      "hex": "01000000010000000000000000000000000000000000000000000000000000000000000000ffffffff0704ffff001d0116ffffffff0100f2052a010000004341043bfd2007f95a6ba20fb4cd2b2aee03d3bdd79205fdc9fa7f9cbcf154e598b07b29d65e9a99136039b223b6c1d733f7cadc0703e3548635ca48ed77df6bd85829ac00000000"
    }
  ]
}