{
  "hash": "00000000d3b133a1d66eed1dc2fa01e976817224a009363f65110059256dc317",
  "confirmations": 48068,
  "height": 5030,
  "version": 1,
  "versionHex": "00000001",
  "merkleroot": "bfdfd652207d8e26758126e74997464cfa650d26e6ade32bc03e875fae360e5a",
  "time": 1235159381,
  "mediantime": 1235154781,
  "nonce": 36008227,
  "bits": "1d00ffff",
  "difficulty": 1,
  "chainwork": "000000000000000000000000000000000000000000000000000013a713a713a7",
  "nTx": 1,
  "previousblockhash": "00000000f3739ac268a4b17119a5f131b0a7dee165799a959bb541081ad82727",
  "nextblockhash": "0000000020510fc6ab7b2c0bc24fe4524d83cd9238f29619097fbf17fbad7331",
  "strippedsize": 216,
  "size": 216,
  "weight": 864,
  "tx": [
    {
      "txid": "bfdfd652207d8e26758126e74997464cfa650d26e6ade32bc03e875fae360e5a",
      "hash": "bfdfd652207d8e26758126e74997464cfa650d26e6ade32bc03e875fae360e5a",
      "version": 1,
      "size": 135,
      "vsize": 135,
      "weight": 540,
      "locktime": 0,
      "vin": [
        {
          "coinbase": "04ffff001d026505",
          "sequence": 4294967295
        }
      ],
      "vout": [
        {
          "value": 50.0,
          "n": 0,
          "scriptPubKey": {
            "asm": "04aab0945dfdedcddee6136608fdbf1f913d67037b11825ec8eb7d339c21e2fb28654fa3c3c55b797f6e85184d4a21ff2536a05ef24df1a0dbbd7f100672d68f4d OP_CHECKSIG",
            "desc": "pk(04aab0945dfdedcddee6136608fdbf1f913d67037b11825ec8eb7d339c21e2fb28654fa3c3c55b797f6e85184d4a21ff2536a05ef24df1a0dbbd7f100672d68f4d)#ghrm0t59",
            "hex": "4104aab0945dfdedcddee6136608fdbf1f913d67037b11825ec8eb7d339c21e2fb28654fa3c3c55b797f6e85184d4a21ff2536a05ef24df1a0dbbd7f100672d68f4dac",
            "type": "pubkey"
          }
        }
      ],
      "hex": "01000000010000000000000000000000000000000000000000000000000000000000000000ffffffff0804ffff001d026505ffffffff0100f2052a01000000434104aab0945dfdedcddee6136608fdbf1f913d67037b11825ec8eb7d339c21e2fb28654fa3c3c55b797f6e85184d4a21ff2536a05ef24df1a0dbbd7f100672d68f4dac00000000"
    }
  ]
}