{
  "hash": "000000009a7cd048d59081828decc229eb4ea671f0fd10b1ed8aee3b4c2759fd",
  "confirmations": 46855,
  "height": 6243,
  "version": 1,
  "versionHex": "00000001",
  "merkleroot": "22a1621fcf12ad651b16d3ab5e1c7abee1f7304986a5071980bb5e27a25dcbc1",
  "time": 1236125887,
  "mediantime": 1236123193,
  "nonce": 1429200686,
  "bits": "1d00ffff",
  "difficulty": 1,
  "chainwork": "0000000000000000000000000000000000000000000000000000186418641864",
  "nTx": 1,
  "previousblockhash": "000000004e99495b7d628aaf118be591159fe24e62b9e579c54b13fca19cbaa2",
  "nextblockhash": "00000000d5b191939be02a3657d5c784bd713d3389602765791989ba9cde529b",
  "strippedsize": 216,
  "size": 216,
  "weight": 864,
  "tx": [
    {
      "txid": "22a1621fcf12ad651b16d3ab5e1c7abee1f7304986a5071980bb5e27a25dcbc1",
      "hash": "22a1621fcf12ad651b16d3ab5e1c7abee1f7304986a5071980bb5e27a25dcbc1",
      "version": 1,
      "size": 135,
      "vsize": 135,
      "weight": 540,
      "locktime": 0,
      "vin": [
        {
          "coinbase": "04ffff001d026509",
          "sequence": 4294967295
        }
      ],
      "vout": [
        {
          "value": 50.0,
          "n": 0,
          "scriptPubKey": {
            "asm": "042037f56593b7a94c8936bc41ffece8c938f51572ddc6671a0635c3d9a84f5eb687a9976a59e1e54566d09b6faa4cf1b569e5f7cb35842d21a86c2398addada54 OP_CHECKSIG",
            "desc": "pk(042037f56593b7a94c8936bc41ffece8c938f51572ddc6671a0635c3d9a84f5eb687a9976a59e1e54566d09b6faa4cf1b569e5f7cb35842d21a86c2398addada54)#624sfsym",
            "hex": "41042037f56593b7a94c8936bc41ffece8c938f51572ddc6671a0635c3d9a84f5eb687a9976a59e1e54566d09b6faa4cf1b569e5f7cb35842d21a86c2398addada54ac",
            "type": "pubkey"
          }
        }
      ],
      "hex": "01000000010000000000000000000000000000000000000000000000000000000000000000ffffffff0804ffff001d026509ffffffff0100f2052a010000004341042037f56593b7a94c8936bc41ffece8c938f51572ddc6671a0635c3d9a84f5eb687a9976a59e1e54566d09b6faa4cf1b569e5f7cb35842d21a86c2398addada54ac00000000"
    }
  ]
}