{
  "hash": "00000000b715b0c5b5812ff95850038bf5af4e00112511d9d673d9043f26fbe2",
  "confirmations": 52217,
  "height": 881,
  "version": 1,
  "versionHex": "00000001",
  "merkleroot": "fa2d79be4f9dd000fd596aba2a9a062ccad4f7d0e8a9d98cd9c47f7e46538585",
  "time": 1232259101,
  "mediantime": 1232253850,
  "nonce": 1295616799,
  "bits": "1d00ffff",
  "difficulty": 1,
  "chainwork": "0000000000000000000000000000000000000000000000000000037203720372",
  "nTx": 1,
  "previousblockhash": "00000000722571752a29b6e318a450d1b09181b51ca3ff498ba52d8dfcb82f19",
  "nextblockhash": "000000009efd98f417a034d1b38cbf06a6026766cdba84dc1357ba6259610576",
  "strippedsize": 216,
  "size": 216,
  "weight": 864,
  "tx": [
    {
      "txid": "fa2d79be4f9dd000fd596aba2a9a062ccad4f7d0e8a9d98cd9c47f7e46538585",
      "hash": "fa2d79be4f9dd000fd596aba2a9a062ccad4f7d0e8a9d98cd9c47f7e46538585",
      "version": 1,
      "size": 135,
      "vsize": 135,
      "weight": 540,
      "locktime": 0,
      "vin": [
        {
          "coinbase": "04ffff001d025003",
          "sequence": 4294967295
        }
      ],
      "vout": [
        {
          "value": 50.0,
          "n": 0,
          "scriptPubKey": {
            "asm": "04fb2ff3a120a443910821dbc2c4d089527a60faaaaa7faa2266659e8f74839af4cfddd8bf0239b65252178ed3f2469616491f0ebc1f7572e82457742627670ac3 OP_CHECKSIG",
            "desc": "pk(04fb2ff3a120a443910821dbc2c4d089527a60faaaaa7faa2266659e8f74839af4cfddd8bf0239b65252178ed3f2469616491f0ebc1f7572e82457742627670ac3)#pc7g4dxg",
            "hex": "4104fb2ff3a120a443910821dbc2c4d089527a60faaaaa7faa2266659e8f74839af4cfddd8bf0239b65252178ed3f2469616491f0ebc1f7572e82457742627670ac3ac",
            "type": "pubkey"
          }
        }
      ],
      "hex": "01000000010000000000000000000000000000000000000000000000000000000000000000ffffffff0804ffff001d025003ffffffff0100f2052a01000000434104fb2ff3a120a443910821dbc2c4d089527a60faaaaa7faa2266659e8f74839af4cfddd8bf0239b65252178ed3f2469616491f0ebc1f7572e82457742627670ac3ac00000000"
    }
  ]
}