{
  "hash": "000000002b2f5f9fad5dd5242e028305482b2afef1ab84f113e5f2e53717dc32",
  "confirmations": 45316,
  "height": 7782,
  "version": 1,
  "versionHex": "00000001",
  "merkleroot": "fc3ec7b327969f7d641bf72ff35e32acf8b75c5daf382976c90a28a9e27c4175",
  "time": 1237299491,
  "mediantime": 1237296120,
  "nonce": 3024260128,
  "bits": "1d00ffff",
  "difficulty": 1,
  "chainwork": "00000000000000000000000000000000000000000000000000001e671e671e67",
  "nTx": 1,
  "previousblockhash": "0000000051123fc90ab6e36edce52fe309924cdcd5160313d82d00536c868ef3",
  "nextblockhash": "000000000357e2b033c9e9bac5ea4fcafed732f89da87ad837738ad61f6a5c38",
  "strippedsize": 216,
  "size": 216,
  "weight": 864,
  "tx": [
    {
      "txid": "fc3ec7b327969f7d641bf72ff35e32acf8b75c5daf382976c90a28a9e27c4175",
      "hash": "fc3ec7b327969f7d641bf72ff35e32acf8b75c5daf382976c90a28a9e27c4175",
      "version": 1,
      "size": 135,
      "vsize": 135,
      "weight": 540,
      "locktime": 0,
      "vin": [
        {
          "coinbase": "04ffff001d028005",
          "sequence": 4294967295
        }
      ],
      "vout": [
        {
          "value": 50.0,
          "n": 0,
          "scriptPubKey": {
            "asm": "04b6bcd5e4027b96b219f09a1f309c42a69d35cd345880ea1c1f520a6308320cba4d2def0179e78bf001b46ea272adaba467989adec79c8a13896e8e00d83fc31f OP_CHECKSIG",
            "desc": "pk(04b6bcd5e4027b96b219f09a1f309c42a69d35cd345880ea1c1f520a6308320cba4d2def0179e78bf001b46ea272adaba467989adec79c8a13896e8e00d83fc31f)#gctvzky5",
            "hex": "4104b6bcd5e4027b96b219f09a1f309c42a69d35cd345880ea1c1f520a6308320cba4d2def0179e78bf001b46ea272adaba467989adec79c8a13896e8e00d83fc31fac",
            "type": "pubkey"
          }
        }
      ],
      "hex": "01000000010000000000000000000000000000000000000000000000000000000000000000ffffffff0804ffff001d028005ffffffff0100f2052a01000000434104b6bcd5e4027b96b219f09a1f309c42a69d35cd345880ea1c1f520a6308320cba4d2def0179e78bf001b46ea272adaba467989adec79c8a13896e8e00d83fc31fac00000000"
    }
  ]
}