{
  "hash": "00000000224f87652440834f6721b3c552a5f6e4173c73c433d62b7514daa960",
  "confirmations": 50707,
  "height": 2391,
  "version": 1,
  "versionHex": "00000001",
  "merkleroot": "5183c399ae4a55b1663713c952001a27ca2390d36b6b24d463b82880cd494a67",
  "time": 1233347106,
  "mediantime": 1233343630,
  "nonce": 1688696884,
  "bits": "1d00ffff",
  "difficulty": 1,
  "chainwork": "0000000000000000000000000000000000000000000000000000095809580958",
  "nTx": 1,
  "previousblockhash": "000000004e2bc7beaf29dbeb96d856e7bbf8c639732cb87ab3fe77a3dfc184a1",
  "nextblockhash": "00000000038d5c6837cc130a0e36af97fa212aa86cbf5d629e7289d6c67a263f",
  "strippedsize": 216,
  "size": 216,
  "weight": 864,
  "tx": [
    {
      "txid": "5183c399ae4a55b1663713c952001a27ca2390d36b6b24d463b82880cd494a67",
      "hash": "5183c399ae4a55b1663713c952001a27ca2390d36b6b24d463b82880cd494a67",
      "version": 1,
      "size": 135,
      "vsize": 135,
      "weight": 540,
      "locktime": 0,
      "vin": [
        {
          "coinbase": "04ffff001d028703",
          "sequence": 4294967295
        }
      ],
      "vout": [
        {
          "value": 50.0,
          "n": 0,
          "scriptPubKey": {
            "asm": "048246083ef52105282853177235a8808a9425d956d67177af533098eee2d69bfcc12627147191d97ff5fecf459ef0bc6a8462f9097d6dcf7f14e7cd8b7e523cc1 OP_CHECKSIG",
            "desc": "pk(048246083ef52105282853177235a8808a9425d956d67177af533098eee2d69bfcc12627147191d97ff5fecf459ef0bc6a8462f9097d6dcf7f14e7cd8b7e523cc1)#67udy3h5",
            "hex": "41048246083ef52105282853177235a8808a9425d956d67177af533098eee2d69bfcc12627147191d97ff5fecf459ef0bc6a8462f9097d6dcf7f14e7cd8b7e523cc1ac",
            "type": "pubkey"
          }
        }
      ],
      "hex": "01000000010000000000000000000000000000000000000000000000000000000000000000ffffffff0804ffff001d028703ffffffff0100f2052a010000004341048246083ef52105282853177235a8808a9425d956d67177af533098eee2d69bfcc12627147191d97ff5fecf459ef0bc6a8462f9097d6dcf7f14e7cd8b7e523cc1ac00000000"
    }
  ]
}