{
  "hash": "000000002fecabbc819af928732ad3456e68e554f2d8b136992238ac5e5ed8ef",
  "confirmations": 44871,
  "height": 8227,
  "version": 1,
  "versionHex": "00000001",
  "merkleroot": "87e8e4375a4b90983635928ea693cdd4d81ef351e654a987ea1f691038c79563",
  "time": 1237663763,
  "mediantime": 1237640366,
  "nonce": 1603655861,
  "bits": "1d00ffff",
  "difficulty": 1,
  "chainwork": "0000000000000000000000000000000000000000000000000000202420242024",
  "nTx": 1,
  "previousblockhash": "000000001d0998f0ebe37d8518d71098603e3897bc2b69d7ca75dcb380af405b",
  "nextblockhash": "00000000da7e782dea38b21a6df77376601e6d15662496736187bb4984147d07",
  "strippedsize": 215,
  "size": 215,
  "weight": 860,
  "tx": [
    {
      "txid": "87e8e4375a4b90983635928ea693cdd4d81ef351e654a987ea1f691038c79563",
      "hash": "87e8e4375a4b90983635928ea693cdd4d81ef351e654a987ea1f691038c79563",
      "version": 1,
      "size": 134,
      "vsize": 134,
      "weight": 536,
      "locktime": 0,
      "vin": [
        {
          "coinbase": "04ffff001d0160",
          "sequence": 4294967295
        }
      ],
      "vout": [
        {
          "value": 50.0,
          "n": 0,
          "scriptPubKey": {
            "asm": "04669aaca83d087202cf928fa2ce45ee45093f855a2cac9058ef32eae9dd7663562383e0ce26f4b7b3b809a6bb53d5db670b0223a3b2253b208dc95329b49ed5dd OP_CHECKSIG",
            "desc": "pk(04669aaca83d087202cf928fa2ce45ee45093f855a2cac9058ef32eae9dd7663562383e0ce26f4b7b3b809a6bb53d5db670b0223a3b2253b208dc95329b49ed5dd)#cec8tsns",
            "hex": "4104669aaca83d087202cf928fa2ce45ee45093f855a2cac9058ef32eae9dd7663562383e0ce26f4b7b3b809a6bb53d5db670b0223a3b2253b208dc95329b49ed5ddac",
            "type": "pubkey"
          }
        }
      ],
      "hex": "01000000010000000000000000000000000000000000000000000000000000000000000000ffffffff0704ffff001d0160ffffffff0100f2052a01000000434104669aaca83d087202cf928fa2ce45ee45093f855a2cac9058ef32eae9dd7663562383e0ce26f4b7b3b809a6bb53d5db670b0223a3b2253b208dc95329b49ed5ddac00000000"
    }
  ]
}