{
  "hash": "000000004ef9f4fa413e3d825463e0faa0a446966a920f39433b7bc348ad9ca7",
  "confirmations": 49682,
  "height": 3416,
  "version": 1,
  "versionHex": "00000001",
  "merkleroot": "1f935ddae2d0c46d34c350a232a8f6bbea0873254915a4738f63ecdd524d4b16",
  "time": 1234048878,
  "mediantime": 1234045561,
  "nonce": 84151423,
  "bits": "1d00ffff",
  "difficulty": 1,
  "chainwork": "00000000000000000000000000000000000000000000000000000d590d590d59",
  "nTx": 1,
  "previousblockhash": "00000000261f1b92e5650e378b90cc8f779a3b644723b81f3400dbbbf3e233fe",
  "nextblockhash": "000000000e05727f996038fa8b7d8b5826d567c90df934f383c29cb8d9dd5d8f",
  "strippedsize": 216,
  "size": 216,
  "weight": 864,
  "tx": [
    {
      "txid": "1f935ddae2d0c46d34c350a232a8f6bbea0873254915a4738f63ecdd524d4b16",
      "hash": "1f935ddae2d0c46d34c350a232a8f6bbea0873254915a4738f63ecdd524d4b16",
      "version": 1,
      "size": 135,
      "vsize": 135,
      "weight": 540,
      "locktime": 0,
      "vin": [
        {
          "coinbase": "04ffff001d02e805",
          "sequence": 4294967295
        }
      ],
      "vout": [
        {
          "value": 50.0,
          "n": 0,
          "scriptPubKey": {
            "asm": "046807ebb80f86723732ac61d873a038f9a90b2be0e3c9c2f95e7009f90bfee2fdfb39d8c570c8c635132ae285d3354aafd2a27321cffa3d0422c0de1e54df51c8 OP_CHECKSIG",
            "desc": "pk(046807ebb80f86723732ac61d873a038f9a90b2be0e3c9c2f95e7009f90bfee2fdfb39d8c570c8c635132ae285d3354aafd2a27321cffa3d0422c0de1e54df51c8)#mfgwt0ng",
            "hex": "41046807ebb80f86723732ac61d873a038f9a90b2be0e3c9c2f95e7009f90bfee2fdfb39d8c570c8c635132ae285d3354aafd2a27321cffa3d0422c0de1e54df51c8ac",
            "type": "pubkey"
          }
        }
      ],
      "hex": "01000000010000000000000000000000000000000000000000000000000000000000000000ffffffff0804ffff001d02e805ffffffff0100f2052a010000004341046807ebb80f86723732ac61d873a038f9a90b2be0e3c9c2f95e7009f90bfee2fdfb39d8c570c8c635132ae285d3354aafd2a27321cffa3d0422c0de1e54df51c8ac00000000"
    }
  ]
}