{
  "hash": "000000005d4a5902a4b909926739a348f7789b6d7b24a9623c3364ea7e5ceeed",
  "confirmations": 50956,
  "height": 2142,
  "version": 1,
  "versionHex": "00000001",
  "merkleroot": "de293b1fee6df5dd0159b6450b4f9767fae69e6b42513e378b827652e8035cd0",
  "time": 1233170232,
  "mediantime": 1233165291,
  "nonce": 2309875479,
  "bits": "1d00ffff",
  "difficulty": 1,
  "chainwork": "0000000000000000000000000000000000000000000000000000085f085f085f",
  "nTx": 1,
  "previousblockhash": "00000000ef796e6b802f79520d9d13ba41987733459d5fca01e9ed70ff2c1e72",
  "nextblockhash": "000000005e007f176975230d68510149ef9d80b5180cf9110099b09d7a23e80b",
  "strippedsize": 215,
  "size": 215,
  "weight": 860,
  "tx": [
    {
      "txid": "de293b1fee6df5dd0159b6450b4f9767fae69e6b42513e378b827652e8035cd0",
      "hash": "de293b1fee6df5dd0159b6450b4f9767fae69e6b42513e378b827652e8035cd0",
      "version": 1,
      "size": 134,
      "vsize": 134,
      "weight": 536,
      "locktime": 0,
      "vin": [
        {
          "coinbase": "04ffff001d012a",
          "sequence": 4294967295
        }
      ],
      "vout": [
        {
          "value": 50.0,
          "n": 0,
          "scriptPubKey": {
            "asm": "043730d98ad9006a29f8af69ab639c1f5fc9d7429f7de9100bc58b904a4178923375aa93b6d48152ccdc43391b1ebf58875b6f1349e264a9c233ae7cda54b39c52 OP_CHECKSIG",
            "desc": "pk(043730d98ad9006a29f8af69ab639c1f5fc9d7429f7de9100bc58b904a4178923375aa93b6d48152ccdc43391b1ebf58875b6f1349e264a9c233ae7cda54b39c52)#7840dfj7",
            "hex": "41043730d98ad9006a29f8af69ab639c1f5fc9d7429f7de9100bc58b904a4178923375aa93b6d48152ccdc43391b1ebf58875b6f1349e264a9c233ae7cda54b39c52ac",
            "type": "pubkey"
          }
        }
      ],
      "hex": "01000000010000000000000000000000000000000000000000000000000000000000000000ffffffff0704ffff001d012affffffff0100f2052a010000004341043730d98ad9006a29f8af69ab639c1f5fc9d7429f7de9100bc58b904a4178923375aa93b6d48152ccdc43391b1ebf58875b6f1349e264a9c233ae7cda54b39c52ac00000000"
    }
  ]
}