{
  "hash": "00000000fa668eed9c9ee748c9f471eac60736b3ccb05e44250deef05dd41238",
  "confirmations": 44976,
  "height": 8122,
  "version": 1,
  "versionHex": "00000001",
  "merkleroot": "9953ff2c0cc8f230c1ccfd857e11a252635bc1051b51491ad6b35c6ce8de0f74",
  "time": 1237548874,
  "mediantime": 1237543446,
  "nonce": 1270047771,
  "bits": "1d00ffff",
  "difficulty": 1,
  "chainwork": "00000000000000000000000000000000000000000000000000001fbb1fbb1fbb",
  "nTx": 1,
  "previousblockhash": "0000000090f1b16494d3cac0f6e2d6e9a5cec48a562565ad3ab3ffae7c99868d",
  "nextblockhash": "0000000010739b7f33cdfa9c9df25973362825c0af59c3f28f769c6a85a0b155",
  "strippedsize": 216,
  "size": 216,
  "weight": 864,
  "tx": [
    {
      "txid": "9953ff2c0cc8f230c1ccfd857e11a252635bc1051b51491ad6b35c6ce8de0f74",
      "hash": "9953ff2c0cc8f230c1ccfd857e11a252635bc1051b51491ad6b35c6ce8de0f74",
      "version": 1,
      "size": 135,
      "vsize": 135,
      "weight": 540,
      "locktime": 0,
      "vin": [
        {
          "coinbase": "04ffff001d026701",
          "sequence": 4294967295
        }
      ],
      "vout": [
        {
          "value": 50.0,
          "n": 0,
          "scriptPubKey": {
            "asm": "0486055a88592446121a2b8fc7f8df7c1507742de845e737345cfea55ff7dd16c0e7e639c8a19549fdf552b10858d10922a715a18305c8c80a35f49b6f3e4b2460 OP_CHECKSIG",
            "desc": "pk(0486055a88592446121a2b8fc7f8df7c1507742de845e737345cfea55ff7dd16c0e7e639c8a19549fdf552b10858d10922a715a18305c8c80a35f49b6f3e4b2460)#xc4zgfud",
            "hex": "410486055a88592446121a2b8fc7f8df7c1507742de845e737345cfea55ff7dd16c0e7e639c8a19549fdf552b10858d10922a715a18305c8c80a35f49b6f3e4b2460ac",
            "type": "pubkey"
          }
        }
      ],
      "hex": "01000000010000000000000000000000000000000000000000000000000000000000000000ffffffff0804ffff001d026701ffffffff0100f2052a0100000043410486055a88592446121a2b8fc7f8df7c1507742de845e737345cfea55ff7dd16c0e7e639c8a19549fdf552b10858d10922a715a18305c8c80a35f49b6f3e4b2460ac00000000"
    }
  ]
}