{
  "hash": "000000008d98d186565441057e87cc03251b95b9042956c9fb11325e2d4a847a",
  "confirmations": 52023,
  "height": 122,
  "version": 1,
  "versionHex": "00000001",
  "merkleroot": "d637b6d9c9847fb9fad159f6a60d6d8c93fc546f9fd61c317d61315bea9fdbef",
  "time": 1231676873,
  "mediantime": 1231673147,
  "nonce": 3487994399,
  "bits": "1d00ffff",
  "difficulty": 1,
  "chainwork": "0000000000000000000000000000000000000000000000000000007b007b007b",
  "nTx": 1,
  "previousblockhash": "000000008a6086520151f1385c6f5a148572b0c36156d713b48e6e5b6330529b",
  "nextblockhash": "00000000a3bbe4fd1da16a29dbdaba01cc35d6fc74ee17f794cf3aab94f7aaa0",
  "strippedsize": 216,
  "size": 216,
  "weight": 864,
  "tx": [
    {
      "txid": "d637b6d9c9847fb9fad159f6a60d6d8c93fc546f9fd61c317d61315bea9fdbef",
      "hash": "d637b6d9c9847fb9fad159f6a60d6d8c93fc546f9fd61c317d61315bea9fdbef",
      "version": 1,
      "size": 135,
      "vsize": 135,
      "weight": 540,
      "locktime": 0,
      "vin": [
        {
          "coinbase": "04ffff001d02da00",
          "sequence": 4294967295
        }
      ],
      "vout": [
        {
          "value": 50.0,
          "n": 0,
          "scriptPubKey": {
            "asm": "049345479778f20f34e515b68e02e3ed614ffc5f08b226ef1bbb7f6b9550dc0e753ba54b8842dfb290fdd5089928673118a546536f5275a18f5c243e6a9766f642 OP_CHECKSIG",
            "desc": "pk(049345479778f20f34e515b68e02e3ed614ffc5f08b226ef1bbb7f6b9550dc0e753ba54b8842dfb290fdd5089928673118a546536f5275a18f5c243e6a9766f642)#wnef060t",
            "hex": "41049345479778f20f34e515b68e02e3ed614ffc5f08b226ef1bbb7f6b9550dc0e753ba54b8842dfb290fdd5089928673118a546536f5275a18f5c243e6a9766f642ac",
            "type": "pubkey"
          }
        }
      ],
      "hex": "01000000010000000000000000000000000000000000000000000000000000000000000000ffffffff0804ffff001d02da00ffffffff0100f2052a010000004341049345479778f20f34e515b68e02e3ed614ffc5f08b226ef1bbb7f6b9550dc0e753ba54b8842dfb290fdd5089928673118a546536f5275a18f5c243e6a9766f642ac00000000"
    }
  ]
}