{
  "hash": "00000000c744db57e41f4555b8ab84f2484e6898754de72289cd6f176d1dfc5e",
  "confirmations": 46214,
  "height": 6884,
  "version": 1,
  "versionHex": "00000001",
  "merkleroot": "b79ad1b9bb3a0164746b03041d7014e3eebda4541f5c092d0b7339599701a40a",
  "time": 1236624577,
  "mediantime": 1236618275,
  "nonce": 334440488,
  "bits": "1d00ffff",
  "difficulty": 1,
  "chainwork": "00000000000000000000000000000000000000000000000000001ae51ae51ae5",
  "nTx": 1,
  "previousblockhash": "00000000c243644e8dad87233f1c211b682562a49c2f27137557b06ccf6a4fb1",
  "nextblockhash": "0000000029975ed506251a4c335d060c02e9e8fd068c3752c92a46278b64181a",
  "strippedsize": 215,
  "size": 215,
  "weight": 860,
  "tx": [
    {
      "txid": "b79ad1b9bb3a0164746b03041d7014e3eebda4541f5c092d0b7339599701a40a",
      "hash": "b79ad1b9bb3a0164746b03041d7014e3eebda4541f5c092d0b7339599701a40a",
      "version": 1,
      "size": 134,
      "vsize": 134,
      "weight": 536,
      "locktime": 0,
      "vin": [
        {
          "coinbase": "04ffff001d0109",
          "sequence": 4294967295
        }
      ],
      "vout": [
        {
          "value": 50.0,
          "n": 0,
          "scriptPubKey": {
            "asm": "040a9b5c88b7619bafc263c0823a7b97123e2536d58bdec3d213f99988fc136db26cdf15ffb794f3d2164d7d2977cd547c2703a532a1cbd740ba5b530e70e0145e OP_CHECKSIG",
            "desc": "pk(040a9b5c88b7619bafc263c0823a7b97123e2536d58bdec3d213f99988fc136db26cdf15ffb794f3d2164d7d2977cd547c2703a532a1cbd740ba5b530e70e0145e)#4yqv4cpe",
            "hex": "41040a9b5c88b7619bafc263c0823a7b97123e2536d58bdec3d213f99988fc136db26cdf15ffb794f3d2164d7d2977cd547c2703a532a1cbd740ba5b530e70e0145eac",
            "type": "pubkey"
          }
        }
      ],
      "hex": "01000000010000000000000000000000000000000000000000000000000000000000000000ffffffff0704ffff001d0109ffffffff0100f2052a010000004341040a9b5c88b7619bafc263c0823a7b97123e2536d58bdec3d213f99988fc136db26cdf15ffb794f3d2164d7d2977cd547c2703a532a1cbd740ba5b530e70e0145eac00000000"
    }
  ]
}