{
  "hash": "00000000795e7c45910089c42d961483b7c4c0a6d39567e7476d353533688bd9",
  "confirmations": 43676,
  "height": 9422,
  "version": 1,
  "versionHex": "00000001",
  "merkleroot": "7392540a28483a8819e2064e6ec90ef93eefaac388d8802c39e9390a95fe516a",
  "time": 1238570028,
  "mediantime": 1238566287,
  "nonce": 1760451369,
  "bits": "1d00ffff",
  "difficulty": 1,
  "chainwork": "000000000000000000000000000000000000000000000000000024cf24cf24cf",
  "nTx": 1,
  "previousblockhash": "00000000f6137280c0651f47875d46fe828cf47ff6c4a102cbb7468592692a25",
  "nextblockhash": "0000000054be58a206f6d11d4ce49f7e5164c071559a6520a5e5aeab3fe42f7d",
  "strippedsize": 216,
  "size": 216,
  "weight": 864,
  "tx": [
    {
      "txid": "7392540a28483a8819e2064e6ec90ef93eefaac388d8802c39e9390a95fe516a",
      "hash": "7392540a28483a8819e2064e6ec90ef93eefaac388d8802c39e9390a95fe516a",
      "version": 1,
      "size": 135,
      "vsize": 135,
      "weight": 540,
      "locktime": 0,
      "vin": [
        {
          "coinbase": "04ffff001d02fc03",
          "sequence": 4294967295
        }
      ],
      "vout": [
        {
          "value": 50.0,
          "n": 0,
          "scriptPubKey": {
            "asm": "044d7ca7b3183ede9e9a98bbe1da17c8cbdd90ee13feeedd2d5d713b9aa9562a138b29594f1f67b55497dd6aead5b0295bdf747a56a4dfa0bf4e2899696b5b51ed OP_CHECKSIG",
            "desc": "pk(044d7ca7b3183ede9e9a98bbe1da17c8cbdd90ee13feeedd2d5d713b9aa9562a138b29594f1f67b55497dd6aead5b0295bdf747a56a4dfa0bf4e2899696b5b51ed)#8whqv6k4",
            "hex": "41044d7ca7b3183ede9e9a98bbe1da17c8cbdd90ee13feeedd2d5d713b9aa9562a138b29594f1f67b55497dd6aead5b0295bdf747a56a4dfa0bf4e2899696b5b51edac",
            "type": "pubkey"
          }
        }
      ],
      "hex": "01000000010000000000000000000000000000000000000000000000000000000000000000ffffffff0804ffff001d02fc03ffffffff0100f2052a010000004341044d7ca7b3183ede9e9a98bbe1da17c8cbdd90ee13feeedd2d5d713b9aa9562a138b29594f1f67b55497dd6aead5b0295bdf747a56a4dfa0bf4e2899696b5b51edac00000000"
    }
  ]
}