{
  "hash": "00000000702e7b69c325bea462f7190738615f60d5c9531896d5deb3cfec5c9b",
  "confirmations": 49392,
  "height": 3706,
  "version": 1,
  "versionHex": "00000001",
  "merkleroot": "f54988cd67599798a4d5e64e944e67136b65f381ea5ccf4f4ec52218c8725de8",
  "time": 1234236217,
  "mediantime": 1234233492,
  "nonce": 1833496582,
  "bits": "1d00ffff",
  "difficulty": 1,
  "chainwork": "00000000000000000000000000000000000000000000000000000e7b0e7b0e7b",
  "nTx": 1,
  "previousblockhash": "00000000203261e4d716b8705b15d46a94bd85514196033a80c9d9b2407992f1",
  "nextblockhash": "00000000692efff77c79410ae0715c121a6cd4f6c69b04acadcb1b5991c8054b",
  "strippedsize": 216,
  "size": 216,
  "weight": 864,
  "tx": [
    {
      "txid": "f54988cd67599798a4d5e64e944e67136b65f381ea5ccf4f4ec52218c8725de8",
      "hash": "f54988cd67599798a4d5e64e944e67136b65f381ea5ccf4f4ec52218c8725de8",
      "version": 1,
      "size": 135,
      "vsize": 135,
      "weight": 540,
      "locktime": 0,
      "vin": [
        {
          "coinbase": "04ffff001d02100a",
          "sequence": 4294967295
        }
      ],
      "vout": [
        {
          "value": 50.0,
          "n": 0,
          "scriptPubKey": {
            "asm": "04d37d5d74a4e4b434c85926fe195d7c41bca8511c09edc8fe76b3af9ee7ec514b18f401610401688ea9c1ccd3f4573723da47c47f93f1d92054df5d9044a179c9 OP_CHECKSIG",
            "desc": "pk(04d37d5d74a4e4b434c85926fe195d7c41bca8511c09edc8fe76b3af9ee7ec514b18f401610401688ea9c1ccd3f4573723da47c47f93f1d92054df5d9044a179c9)#7nfez6vq",
            "hex": "4104d37d5d74a4e4b434c85926fe195d7c41bca8511c09edc8fe76b3af9ee7ec514b18f401610401688ea9c1ccd3f4573723da47c47f93f1d92054df5d9044a179c9ac",
            "type": "pubkey"
          }
        }
      ],
      "hex": "01000000010000000000000000000000000000000000000000000000000000000000000000ffffffff0804ffff001d02100affffffff0100f2052a01000000434104d37d5d74a4e4b434c85926fe195d7c41bca8511c09edc8fe76b3af9ee7ec514b18f401610401688ea9c1ccd3f4573723da47c47f93f1d92054df5d9044a179c9ac00000000"
    }
  ]
}