{
  "hash": "00000000f14f2b5a54b3f3f9a6c75d6d7472d28273c62b524b457fb1bc98ffe3",
  "confirmations": 49960,
  "height": 3138,
  "version": 1,
  "versionHex": "00000001",
  "merkleroot": "899216f8aff9b5d75b0939420286c425cb6270603414eeedb5e17f2666712433",
  "time": 1233860585,
  "mediantime": 1233856991,
  "nonce": 169669054,
  "bits": "1d00ffff",
  "difficulty": 1,
  "chainwork": "00000000000000000000000000000000000000000000000000000c430c430c43",
  "nTx": 1,
  "previousblockhash": "000000004b2bc2b09f8fb49682dbc60a36e4af393440876806b1f19f560417e6",
  "nextblockhash": "000000003689c00dccabe8863c98de945967966a8c563a4ae94ddf9384b4ddf2",
  "strippedsize": 215,
  "size": 215,
  "weight": 860,
  "tx": [
    {
      "txid": "899216f8aff9b5d75b0939420286c425cb6270603414eeedb5e17f2666712433",
      "hash": "899216f8aff9b5d75b0939420286c425cb6270603414eeedb5e17f2666712433",
      "version": 1,
      "size": 134,
      "vsize": 134,
      "weight": 536,
      "locktime": 0,
      "vin": [
        {
          "coinbase": "04ffff001d012e",
          "sequence": 4294967295
        }
      ],
      "vout": [
        {
          "value": 50.0,
          "n": 0,
          "scriptPubKey": {
            "asm": "04c37119433582fa081ebb7024faef125ed54e1a03239ff74a139ede15f7d91e598f8f410be529eb8b4e3e4c6a21b9dcfa2dcba38f220d8ce422187648aa6acd1e OP_CHECKSIG",
            "desc": "pk(04c37119433582fa081ebb7024faef125ed54e1a03239ff74a139ede15f7d91e598f8f410be529eb8b4e3e4c6a21b9dcfa2dcba38f220d8ce422187648aa6acd1e)#6qarg03u",
            "hex": "4104c37119433582fa081ebb7024faef125ed54e1a03239ff74a139ede15f7d91e598f8f410be529eb8b4e3e4c6a21b9dcfa2dcba38f220d8ce422187648aa6acd1eac",
            "type": "pubkey"
          }
        }
      ],
      "hex": "01000000010000000000000000000000000000000000000000000000000000000000000000ffffffff0704ffff001d012effffffff0100f2052a01000000434104c37119433582fa081ebb7024faef125ed54e1a03239ff74a139ede15f7d91e598f8f410be529eb8b4e3e4c6a21b9dcfa2dcba38f220d8ce422187648aa6acd1eac00000000"
    }
  ]
}