{
  "hash": "000000005237a22a923fe226df891ab01954ceb464144196ec4ba26533a4016c",
  "confirmations": 45030,
  "height": 8068,
  "version": 1,
  "versionHex": "00000001",
  "merkleroot": "1351865e891f3bda828fa8713110d85d1cb2ac58ba3e00692160c7b8ce514ed0",
  "time": 1237511766,
  "mediantime": 1237507400,
  "nonce": 4059114543,
  "bits": "1d00ffff",
  "difficulty": 1,
  "chainwork": "00000000000000000000000000000000000000000000000000001f851f851f85",
  "nTx": 1,
  "previousblockhash": "000000001d1292bc16af274b5490c29412e7e14c99a4ee3f154c984e05724b7f",
  "nextblockhash": "00000000a31c317345e12f82a0719fe2a8e3a1313d1972ef997e87f66c19eb6e",
  "strippedsize": 216,
  "size": 216,
  "weight": 864,
  "tx": [
    {
      "txid": "1351865e891f3bda828fa8713110d85d1cb2ac58ba3e00692160c7b8ce514ed0",
      "hash": "1351865e891f3bda828fa8713110d85d1cb2ac58ba3e00692160c7b8ce514ed0",
      "version": 1,
      "size": 135,
      "vsize": 135,
      "weight": 540,
      "locktime": 0,
      "vin": [
        {
          "coinbase": "04ffff001d02aa00",
          "sequence": 4294967295
        }
      ],
      "vout": [
        {
          "value": 50.0,
          "n": 0,
          "scriptPubKey": {
            "asm": "041595090b5042d2bff761fe9588d1762536a8ef19cbe2f66e5f17182406881f7607f490473e359af6fa75440afa9c51ebca53bdcb29ce36f9b98ae0b0ac5f5098 OP_CHECKSIG",
            "desc": "pk(041595090b5042d2bff761fe9588d1762536a8ef19cbe2f66e5f17182406881f7607f490473e359af6fa75440afa9c51ebca53bdcb29ce36f9b98ae0b0ac5f5098)#6xw73yd9",
            "hex": "41041595090b5042d2bff761fe9588d1762536a8ef19cbe2f66e5f17182406881f7607f490473e359af6fa75440afa9c51ebca53bdcb29ce36f9b98ae0b0ac5f5098ac",
            "type": "pubkey"
          }
        }
      ],
      "hex": "01000000010000000000000000000000000000000000000000000000000000000000000000ffffffff0804ffff001d02aa00ffffffff0100f2052a010000004341041595090b5042d2bff761fe9588d1762536a8ef19cbe2f66e5f17182406881f7607f490473e359af6fa75440afa9c51ebca53bdcb29ce36f9b98ae0b0ac5f5098ac00000000"
    }
  ]
}