{
  "hash": "0000000096c03ecac0f1f4ee4c253505ee03a16b27d81327861edfbc360ca9d3",
  "confirmations": 50321,
  "height": 2777,
  "version": 1,
  "versionHex": "00000001",
  "merkleroot": "07b906f8159f33ea886dd622b970bb5ca654d70cbc22399544190a1a9f5250a6",
  "time": 1233615305,
  "mediantime": 1233611257,
  "nonce": 1949148959,
  "bits": "1d00ffff",
  "difficulty": 1,
  "chainwork": "00000000000000000000000000000000000000000000000000000ada0ada0ada",
  "nTx": 1,
  "previousblockhash": "00000000492ea80aba09540dbb3bc2a12c6a67f107543fc487adc178207424dc",
  "nextblockhash": "00000000101ef076a211b3ae84724c8c6af1a7992a44f8750f99df28921e8e70",
  "strippedsize": 216,
  "size": 216,
  "weight": 864,
  "tx": [
    {
      "txid": "07b906f8159f33ea886dd622b970bb5ca654d70cbc22399544190a1a9f5250a6",
      "hash": "07b906f8159f33ea886dd622b970bb5ca654d70cbc22399544190a1a9f5250a6",
      "version": 1,
      "size": 135,
      "vsize": 135,
      "weight": 540,
      "locktime": 0,
      "vin": [
        {
          "coinbase": "04ffff001d02eb05",
          "sequence": 4294967295
        }
      ],
      "vout": [
        {
          "value": 50.0,
          "n": 0,
          "scriptPubKey": {
            "asm": "04776549ebf4670c8639759ef34f4da7a686eef9f436268b0ba1aabe9be2a60a55a2ac89ecf687a0647655e0e9256f6e48c50e6e8cdc4da9b6bd6f061697f58363 OP_CHECKSIG",
            "desc": "pk(04776549ebf4670c8639759ef34f4da7a686eef9f436268b0ba1aabe9be2a60a55a2ac89ecf687a0647655e0e9256f6e48c50e6e8cdc4da9b6bd6f061697f58363)#0tajqxxv",
            "hex": "4104776549ebf4670c8639759ef34f4da7a686eef9f436268b0ba1aabe9be2a60a55a2ac89ecf687a0647655e0e9256f6e48c50e6e8cdc4da9b6bd6f061697f58363ac",
            "type": "pubkey"
          }
        }
      ],
      "hex": "01000000010000000000000000000000000000000000000000000000000000000000000000ffffffff0804ffff001d02eb05ffffffff0100f2052a01000000434104776549ebf4670c8639759ef34f4da7a686eef9f436268b0ba1aabe9be2a60a55a2ac89ecf687a0647655e0e9256f6e48c50e6e8cdc4da9b6bd6f061697f58363ac00000000"
    }
  ]
}