{
  "hash": "00000000f57b72d02f4e1e00ac446de10f311caad10c45c8dd97301bad27ab5d",
  "confirmations": 47444,
  "height": 5654,
  "version": 1,
  "versionHex": "00000001",
  "merkleroot": "d1c135472af5be9a135b48c876de48c3894973c5d05ff96a133a6d52faa5430e",
  "time": 1235651519,
  "mediantime": 1235647438,
  "nonce": 498734895,
  "bits": "1d00ffff",
  "difficulty": 1,
  "chainwork": "0000000000000000000000000000000000000000000000000000161716171617",
  "nTx": 1,
  "previousblockhash": "0000000014a04e29a42928c4c640f51fa022cc822b31fce4f0146bcf60abdbc1",
  "nextblockhash": "00000000b013ad8580836a6ac6a905371542f3693a7639a93e066c2c0e473570",
  "strippedsize": 216,
  "size": 216,
  "weight": 864,
  "tx": [
    {
      "txid": "d1c135472af5be9a135b48c876de48c3894973c5d05ff96a133a6d52faa5430e",
      "hash": "d1c135472af5be9a135b48c876de48c3894973c5d05ff96a133a6d52faa5430e",
      "version": 1,
      "size": 135,
      "vsize": 135,
      "weight": 540,
      "locktime": 0,
      "vin": [
        {
          "coinbase": "04ffff001d02bc08",
          "sequence": 4294967295
        }
      ],
      "vout": [
        {
          "value": 50.0,
          "n": 0,
          "scriptPubKey": {
            "asm": "04a10360834140be22f20172c1025e15ab8ed6609d0580d76d88f41820d14451c3ac5fbfcafd94d1db6711d483bceb4d2284d0954b4056fe0d73c0e4c706353344 OP_CHECKSIG",
            "desc": "pk(04a10360834140be22f20172c1025e15ab8ed6609d0580d76d88f41820d14451c3ac5fbfcafd94d1db6711d483bceb4d2284d0954b4056fe0d73c0e4c706353344)#0t8phm6z",
            "hex": "4104a10360834140be22f20172c1025e15ab8ed6609d0580d76d88f41820d14451c3ac5fbfcafd94d1db6711d483bceb4d2284d0954b4056fe0d73c0e4c706353344ac",
            "type": "pubkey"
          }
        }
      ],
      "hex": "01000000010000000000000000000000000000000000000000000000000000000000000000ffffffff0804ffff001d02bc08ffffffff0100f2052a01000000434104a10360834140be22f20172c1025e15ab8ed6609d0580d76d88f41820d14451c3ac5fbfcafd94d1db6711d483bceb4d2284d0954b4056fe0d73c0e4c706353344ac00000000"
    }
  ]
}