{
  "hash": "0000000085a99775be185c1c86668f64c415ed150af0c150e1332c88fa128993",
  "confirmations": 51363,
  "height": 1735,
  "version": 1,
  "versionHex": "00000001",
  "merkleroot": "77182d9b0408dba082453ea1a89a0c2b31a49ebe7db23d9a4c6bc1a5af1dd156",
  "time": 1232867061,
  "mediantime": 1232864396,
  "nonce": 74130831,
  "bits": "1d00ffff",
  "difficulty": 1,
  "chainwork": "000000000000000000000000000000000000000000000000000006c806c806c8",
  "nTx": 1,
  "previousblockhash": "00000000e83a8dccb7792a9597503bfbfb08a6310df0a997b3921e3e3e9fa843",
  "nextblockhash": "000000004de37d28a0f1229e7b34e6206dc18288431efda04eb8730edcc8282c",
  "strippedsize": 216,
  "size": 216,
  "weight": 864,
  "tx": [
    {
      "txid": "77182d9b0408dba082453ea1a89a0c2b31a49ebe7db23d9a4c6bc1a5af1dd156",
      "hash": "77182d9b0408dba082453ea1a89a0c2b31a49ebe7db23d9a4c6bc1a5af1dd156",
      "version": 1,
      "size": 135,
      "vsize": 135,
      "weight": 540,
      "locktime": 0,
      "vin": [
        {
          "coinbase": "04ffff001d023102",
          "sequence": 4294967295
        }
      ],
      "vout": [
        {
          "value": 50.0,
          "n": 0,
          "scriptPubKey": {
            "asm": "04d2f0a3b5cadb7acae07be8e96ac3bc01e67531a545682d7b00f7d3e88dd5b1649d420b9d7984781f2429579c233cb8ed66b7e962e4d8b414a8fde9750a83c71d OP_CHECKSIG",
            "desc": "pk(04d2f0a3b5cadb7acae07be8e96ac3bc01e67531a545682d7b00f7d3e88dd5b1649d420b9d7984781f2429579c233cb8ed66b7e962e4d8b414a8fde9750a83c71d)#rfgt9c36",
            "hex": "4104d2f0a3b5cadb7acae07be8e96ac3bc01e67531a545682d7b00f7d3e88dd5b1649d420b9d7984781f2429579c233cb8ed66b7e962e4d8b414a8fde9750a83c71dac",
            "type": "pubkey"
          }
        }
      ],
      "hex": "01000000010000000000000000000000000000000000000000000000000000000000000000ffffffff0804ffff001d023102ffffffff0100f2052a01000000434104d2f0a3b5cadb7acae07be8e96ac3bc01e67531a545682d7b00f7d3e88dd5b1649d420b9d7984781f2429579c233cb8ed66b7e962e4d8b414a8fde9750a83c71dac00000000"
    }
  ]
}