{
  "hash": "00000000ff07313367117bf73fbd45434bfecd85390c308b42e5cec8fbaa92b5",
  "confirmations": 51973,
  "height": 1125,
  "version": 1,
  "versionHex": "00000001",
  "merkleroot": "8327792a69129226e32f0a0ef0cf7bcbef94210e013edd717a3ccc335e1e26af",
  "time": 1232439045,
  "mediantime": 1232436132,
  "nonce": 142271706,
  "bits": "1d00ffff",
  "difficulty": 1,
  "chainwork": "0000000000000000000000000000000000000000000000000000046604660466",
  "nTx": 1,
  "previousblockhash": "0000000047cb2b6dfa319b6149aafd70bc4c2fd22dfac67c253ec92c95c0c607",
  "nextblockhash": "000000000aa50343f24420ca0c897bf8ce616cbca9be08997c6ecbed99960386",
  "strippedsize": 216,
  "size": 216,
  "weight": 864,
  "tx": [
    {
      "txid": "8327792a69129226e32f0a0ef0cf7bcbef94210e013edd717a3ccc335e1e26af",
      "hash": "8327792a69129226e32f0a0ef0cf7bcbef94210e013edd717a3ccc335e1e26af",
      "version": 1,
      "size": 135,
      "vsize": 135,
      "weight": 540,
      "locktime": 0,
      "vin": [
        {
          "coinbase": "04ffff001d029e01",
          "sequence": 4294967295
        }
      ],
      "vout": [
        {
          "value": 50.0,
          "n": 0,
          "scriptPubKey": {
            "asm": "04259b978c73c91c0c9e200aa98da0e525642c777261d56a559b80cc75979d6cae933e55b894df03e7fc66257a105a987dc4832e243f2fb9bca9c3d8d12b400b46 OP_CHECKSIG",
            "desc": "pk(04259b978c73c91c0c9e200aa98da0e525642c777261d56a559b80cc75979d6cae933e55b894df03e7fc66257a105a987dc4832e243f2fb9bca9c3d8d12b400b46)#z9lram4h",
            "hex": "4104259b978c73c91c0c9e200aa98da0e525642c777261d56a559b80cc75979d6cae933e55b894df03e7fc66257a105a987dc4832e243f2fb9bca9c3d8d12b400b46ac",
            "type": "pubkey"
          }
        }
      ],
      "hex": "01000000010000000000000000000000000000000000000000000000000000000000000000ffffffff0804ffff001d029e01ffffffff0100f2052a01000000434104259b978c73c91c0c9e200aa98da0e525642c777261d56a559b80cc75979d6cae933e55b894df03e7fc66257a105a987dc4832e243f2fb9bca9c3d8d12b400b46ac00000000"
    }
  ]
}