{
  "hash": "0000000031b4908babc1ec2ab421b0c29b9008f060e84739031836f8ddf30255",
  "confirmations": 47691,
  "height": 5407,
  "version": 1,
  "versionHex": "00000001",
  "merkleroot": "e674e28344950171cad30d9b0326458006b0a199c92c7a8fa0b5b18bdf4e8fb5",
  "time": 1235444541,
  "mediantime": 1235442006,
  "nonce": 3942803988,
  "bits": "1d00ffff",
  "difficulty": 1,
  "chainwork": "0000000000000000000000000000000000000000000000000000152015201520",
  "nTx": 1,
  "previousblockhash": "00000000dc94a1535f74f830a00f6fc3ded90465a64f2bc128a600e5009cc882",
  "nextblockhash": "000000009b7c5fa97e36106f2c0de5fdb16520f7ba249b67e48aa863a9fe3ac0",
  "strippedsize": 216,
  "size": 216,
  "weight": 864,
  "tx": [
    {
      "txid": "e674e28344950171cad30d9b0326458006b0a199c92c7a8fa0b5b18bdf4e8fb5",
      "hash": "e674e28344950171cad30d9b0326458006b0a199c92c7a8fa0b5b18bdf4e8fb5",
      "version": 1,
      "size": 135,
      "vsize": 135,
      "weight": 540,
      "locktime": 0,
      "vin": [
        {
          "coinbase": "04ffff001d02bc03",
          "sequence": 4294967295
        }
      ],
      "vout": [
        {
          "value": 50.0,
          "n": 0,
          "scriptPubKey": {
            "asm": "04d55169d71b494b2de5a67bafc996ababf52ee716d0040fff41564ae00e110818e94203e3594f916df1b04695fed34e6afe79da59d1c0c891009d2d528b91b75f OP_CHECKSIG",
            "desc": "pk(04d55169d71b494b2de5a67bafc996ababf52ee716d0040fff41564ae00e110818e94203e3594f916df1b04695fed34e6afe79da59d1c0c891009d2d528b91b75f)#e49syhw3",
            "hex": "4104d55169d71b494b2de5a67bafc996ababf52ee716d0040fff41564ae00e110818e94203e3594f916df1b04695fed34e6afe79da59d1c0c891009d2d528b91b75fac",
            "type": "pubkey"
          }
        }
      ],
      "hex": "01000000010000000000000000000000000000000000000000000000000000000000000000ffffffff0804ffff001d02bc03ffffffff0100f2052a01000000434104d55169d71b494b2de5a67bafc996ababf52ee716d0040fff41564ae00e110818e94203e3594f916df1b04695fed34e6afe79da59d1c0c891009d2d528b91b75fac00000000"
    }
  ]
}