{
  "hash": "00000000b111c9f1c8b271a1add221c8c4b26b5af4950eac6661eee1f25c3b2b",
  "confirmations": 44364,
  "height": 8734,
  "version": 1,
  "versionHex": "00000001",
  "merkleroot": "fbe0a8d23295f52eed87fd5bf8df3f6385298e913693c9265788eaebc4f73039",
  "time": 1238046556,
  "mediantime": 1238043051,
  "nonce": 1717470777,
  "bits": "1d00ffff",
  "difficulty": 1,
  "chainwork": "0000000000000000000000000000000000000000000000000000221f221f221f",
  "nTx": 1,
  "previousblockhash": "00000000f332186781b7f38a2bc6fc08010610e5d14403753b0c86a88e7651ca",
  "nextblockhash": "000000009bf588ec242454e1343b03c8f1934b1cae89fd96f6ea8906b81a7e46",
  "strippedsize": 216,
  "size": 216,
  "weight": 864,
  "tx": [
    {
      "txid": "fbe0a8d23295f52eed87fd5bf8df3f6385298e913693c9265788eaebc4f73039",
      "hash": "fbe0a8d23295f52eed87fd5bf8df3f6385298e913693c9265788eaebc4f73039",
      "version": 1,
      "size": 135,
      "vsize": 135,
      "weight": 540,
      "locktime": 0,
      "vin": [
        {
          "coinbase": "04ffff001d027901",
          "sequence": 4294967295
        }
      ],
      "vout": [
        {
          "value": 50.0,
          "n": 0,
          "scriptPubKey": {
            "asm": "048a90238e232414c895c39db9c70ca8d384e6b0532dcf7d88847305283305da0b39e86e5c6d8f544d1eadd23f98642ee92aa5d345abef37d32a3b2ea761822d68 OP_CHECKSIG",
            "desc": "pk(048a90238e232414c895c39db9c70ca8d384e6b0532dcf7d88847305283305da0b39e86e5c6d8f544d1eadd23f98642ee92aa5d345abef37d32a3b2ea761822d68)#pf0nxx8n",
            "hex": "41048a90238e232414c895c39db9c70ca8d384e6b0532dcf7d88847305283305da0b39e86e5c6d8f544d1eadd23f98642ee92aa5d345abef37d32a3b2ea761822d68ac",
            "type": "pubkey"
          }
        }
      ],
      "hex": "01000000010000000000000000000000000000000000000000000000000000000000000000ffffffff0804ffff001d027901ffffffff0100f2052a010000004341048a90238e232414c895c39db9c70ca8d384e6b0532dcf7d88847305283305da0b39e86e5c6d8f544d1eadd23f98642ee92aa5d345abef37d32a3b2ea761822d68ac00000000"
    }
  ]
}