{
  "hash": "0000000053e4697b1b98f884acc39ded8adaa934527c974468d5fa3925bda2f7",
  "confirmations": 46871,
  "height": 6227,
  "version": 1,
  "versionHex": "00000001",
  "merkleroot": "943a2e05e68969e1e6f802e5fb68746673daf7fea0a88a6c4e9ae7330c20dd9c",
  "time": 1236113905,
  "mediantime": 1236108836,
  "nonce": 1052829956,
  "bits": "1d00ffff",
  "difficulty": 1,
  "chainwork": "0000000000000000000000000000000000000000000000000000185418541854",
  "nTx": 1,
  "previousblockhash": "00000000deffc03974a267485011beda250fb16aa0fcdc26399c8e6bf32061b9",
  "nextblockhash": "00000000a2d1ca6edd9db559451b983726275adabc3f299baf7eebfcd98454c1",
  "strippedsize": 216,
  "size": 216,
  "weight": 864,
  "tx": [
    {
      "txid": "943a2e05e68969e1e6f802e5fb68746673daf7fea0a88a6c4e9ae7330c20dd9c",
      "hash": "943a2e05e68969e1e6f802e5fb68746673daf7fea0a88a6c4e9ae7330c20dd9c",
      "version": 1,
      "size": 135,
      "vsize": 135,
      "weight": 540,
      "locktime": 0,
      "vin": [
        {
          "coinbase": "04ffff001d020709",
          "sequence": 4294967295
        }
      ],
      "vout": [
        {
          "value": 50.0,
          "n": 0,
          "scriptPubKey": {
            "asm": "04ee6856cc0fbedf4d5d56e9ed23613597ef3aef2b75c4d263773d4e70890df23775af3322059d482be48f5ecf248793ec670bea114742b52c401d90c92b64c394 OP_CHECKSIG",
            "desc": "pk(04ee6856cc0fbedf4d5d56e9ed23613597ef3aef2b75c4d263773d4e70890df23775af3322059d482be48f5ecf248793ec670bea114742b52c401d90c92b64c394)#5r5fg2jg",
            "hex": "4104ee6856cc0fbedf4d5d56e9ed23613597ef3aef2b75c4d263773d4e70890df23775af3322059d482be48f5ecf248793ec670bea114742b52c401d90c92b64c394ac",
            "type": "pubkey"
          }
        }
      ],
      "hex": "01000000010000000000000000000000000000000000000000000000000000000000000000ffffffff0804ffff001d020709ffffffff0100f2052a01000000434104ee6856cc0fbedf4d5d56e9ed23613597ef3aef2b75c4d263773d4e70890df23775af3322059d482be48f5ecf248793ec670bea114742b52c401d90c92b64c394ac00000000"
    }
  ]
}