{
  "hash": "00000000f6fe35b1054765089f743de53ae686fdf13b55d064399c2385404a22",
  "confirmations": 51818,
  "height": 1280,
  "version": 1,
  "versionHex": "00000001",
  "merkleroot": "df09d5cbb6113b80f47607d549348ac6d80a270c8f353617bffe4e480177b540",
  "time": 1232560088,
  "mediantime": 1232555808,
  "nonce": 2679483941,
  "bits": "1d00ffff",
  "difficulty": 1,
  "chainwork": "0000000000000000000000000000000000000000000000000000050105010501",
  "nTx": 1,
  "previousblockhash": "0000000054e0f2952d4cff87f3478ab319271123878173676b3531c3d90a2653",
  "nextblockhash": "000000005bcc4c9b9f0fd22ea09985abd17896a063be8ac81390e3d56b5eec71",
  "strippedsize": 216,
  "size": 216,
  "weight": 864,
  "tx": [
    {
      "txid": "df09d5cbb6113b80f47607d549348ac6d80a270c8f353617bffe4e480177b540",
      "hash": "df09d5cbb6113b80f47607d549348ac6d80a270c8f353617bffe4e480177b540",
      "version": 1,
      "size": 135,
      "vsize": 135,
      "weight": 540,
      "locktime": 0,
      "vin": [
        {
          "coinbase": "04ffff001d02fd09",
          "sequence": 4294967295
        }
      ],
      "vout": [
        {
          "value": 50.0,
          "n": 0,
          "scriptPubKey": {
            "asm": "0422dd53fdf8540e8a9311243e65caa22deabeecee95ed4eb00c52292aecbe24f042f4c951985960920b7814c5fb993a9d930c3975832984c69f2d0a074a17ca47 OP_CHECKSIG",
            "desc": "pk(0422dd53fdf8540e8a9311243e65caa22deabeecee95ed4eb00c52292aecbe24f042f4c951985960920b7814c5fb993a9d930c3975832984c69f2d0a074a17ca47)#xyv7638k",
            "hex": "410422dd53fdf8540e8a9311243e65caa22deabeecee95ed4eb00c52292aecbe24f042f4c951985960920b7814c5fb993a9d930c3975832984c69f2d0a074a17ca47ac",
            "type": "pubkey"
          }
        }
      ],
      "hex": "01000000010000000000000000000000000000000000000000000000000000000000000000ffffffff0804ffff001d02fd09ffffffff0100f2052a0100000043410422dd53fdf8540e8a9311243e65caa22deabeecee95ed4eb00c52292aecbe24f042f4c951985960920b7814c5fb993a9d930c3975832984c69f2d0a074a17ca47ac00000000"
    }
  ]
}