{
  "hash": "000000006862c7d7752b33db6dc770cba20c33fd5586decc8cfd84b350ae72b0",
  "confirmations": 44523,
  "height": 8575,
  "version": 1,
  "versionHex": "00000001",
  "merkleroot": "6e9e7652b5a38305ae081e241522107c47da871bbc4388882b9a0a3e8a8df5fc",
  "time": 1237931184,
  "mediantime": 1237927038,
  "nonce": 3802330145,
  "bits": "1d00ffff",
  "difficulty": 1,
  "chainwork": "0000000000000000000000000000000000000000000000000000218021802180",
  "nTx": 1,
  "previousblockhash": "00000000e04953d178b1142b710bee3bb6e072d7a9505aff6d3a5d4a2a280262",
  "nextblockhash": "000000004b58591a63574cd8932346e261357f8bbd0a2b95b5e8f10a72c01e0d",
  "strippedsize": 216,
  "size": 216,
  "weight": 864,
  "tx": [
    {
      "txid": "6e9e7652b5a38305ae081e241522107c47da871bbc4388882b9a0a3e8a8df5fc",
      "hash": "6e9e7652b5a38305ae081e241522107c47da871bbc4388882b9a0a3e8a8df5fc",
      "version": 1,
      "size": 135,
      "vsize": 135,
      "weight": 540,
      "locktime": 0,
      "vin": [
        {
          "coinbase": "04ffff001d022f09",
          "sequence": 4294967295
        }
      ],
      "vout": [
        {
          "value": 50.0,
          "n": 0,
          "scriptPubKey": {
            "asm": "04480e0ad04ca66e645257f5bd100ce854709affa1cb154e0f265bb334ff633c77214a759462e90c6d35c9571a0b47f815ade2b08fb4fd30e7bae2be816061e1da OP_CHECKSIG",
            "desc": "pk(04480e0ad04ca66e645257f5bd100ce854709affa1cb154e0f265bb334ff633c77214a759462e90c6d35c9571a0b47f815ade2b08fb4fd30e7bae2be816061e1da)#f6z7ty7l",
            "hex": "4104480e0ad04ca66e645257f5bd100ce854709affa1cb154e0f265bb334ff633c77214a759462e90c6d35c9571a0b47f815ade2b08fb4fd30e7bae2be816061e1daac",
            "type": "pubkey"
          }
        }
      ],
      "hex": "01000000010000000000000000000000000000000000000000000000000000000000000000ffffffff0804ffff001d022f09ffffffff0100f2052a01000000434104480e0ad04ca66e645257f5bd100ce854709affa1cb154e0f265bb334ff633c77214a759462e90c6d35c9571a0b47f815ade2b08fb4fd30e7bae2be816061e1daac00000000"
    }
  ]
}