{
  "hash": "000000004bf01051fa90794d4ea563d350304a1abab32ea0359f9a0369057e25",
  "confirmations": 50376,
  "height": 2722,
  "version": 1,
  "versionHex": "00000001",
  "merkleroot": "48eda3465ac57953c56b4e3825a0b24db5c4e89f6cf064e18b9134aeef3da5c7",
  "time": 1233578799,
  "mediantime": 1233574954,
  "nonce": 1914013460,
  "bits": "1d00ffff",
  "difficulty": 1,
  "chainwork": "00000000000000000000000000000000000000000000000000000aa30aa30aa3",
  "nTx": 1,
  "previousblockhash": "00000000ee0241f476b222d6e2aa219d8882cc04927a7b32ee1a7ca1f4408112",
  "nextblockhash": "00000000cff88241b632ae5260a48a0a96a6cb6b90d237d05ab8181bd97470c0",
  "strippedsize": 216,
  "size": 216,
  "weight": 864,
  "tx": [
    {
      "txid": "48eda3465ac57953c56b4e3825a0b24db5c4e89f6cf064e18b9134aeef3da5c7",
      "hash": "48eda3465ac57953c56b4e3825a0b24db5c4e89f6cf064e18b9134aeef3da5c7",
      "version": 1,
      "size": 135,
      "vsize": 135,
      "weight": 540,
      "locktime": 0,
      "vin": [
        {
          "coinbase": "04ffff001d020c05",
          "sequence": 4294967295
        }
      ],
      "vout": [
        {
          "value": 50.0,
          "n": 0,
          "scriptPubKey": {
            "asm": "04d10dc72ed82c9ab06b8f309408b9f57b62d4e2b286d85a3ef6fc72dac3c95d224ae6e4a3fe53461a5e234d1c7a2e33e455f4d0600b9bc92e55848f4f8652c76a OP_CHECKSIG",
            "desc": "pk(04d10dc72ed82c9ab06b8f309408b9f57b62d4e2b286d85a3ef6fc72dac3c95d224ae6e4a3fe53461a5e234d1c7a2e33e455f4d0600b9bc92e55848f4f8652c76a)#9s879s3k",
            "hex": "4104d10dc72ed82c9ab06b8f309408b9f57b62d4e2b286d85a3ef6fc72dac3c95d224ae6e4a3fe53461a5e234d1c7a2e33e455f4d0600b9bc92e55848f4f8652c76aac",
            "type": "pubkey"
          }
        }
      ],
      "hex": "01000000010000000000000000000000000000000000000000000000000000000000000000ffffffff0804ffff001d020c05ffffffff0100f2052a01000000434104d10dc72ed82c9ab06b8f309408b9f57b62d4e2b286d85a3ef6fc72dac3c95d224ae6e4a3fe53461a5e234d1c7a2e33e455f4d0600b9bc92e55848f4f8652c76aac00000000"
    }
  ]
}