{
  "hash": "00000000a70a77fc3609554fb6ffca2a1bc7b24245332f9d57aa16a8656dcb46",
  "confirmations": 51450,
  "height": 1648,
  "version": 1,
  "versionHex": "00000001",
  "merkleroot": "7f58a273aed20bf38a48653e7d7c1eb0f8a00598a53bdddddadc91a1e5f9de0e",
  "time": 1232832723,
  "mediantime": 1232830642,
  "nonce": 3678111009,
  "bits": "1d00ffff",
  "difficulty": 1,
  "chainwork": "0000000000000000000000000000000000000000000000000000067106710671",
  "nTx": 1,
  "previousblockhash": "000000007e40d9bf46f137a213b51e51e11f40ed4e038f8b1c4837b569d2318c",
  "nextblockhash": "0000000036830127678f188ce9655d890af60dbe64a0d0dba8c306dce4ab6d46",
  "strippedsize": 216,
  "size": 216,
  "weight": 864,
  "tx": [
    {
      "txid": "7f58a273aed20bf38a48653e7d7c1eb0f8a00598a53bdddddadc91a1e5f9de0e",
      "hash": "7f58a273aed20bf38a48653e7d7c1eb0f8a00598a53bdddddadc91a1e5f9de0e",
      "version": 1,
      "size": 135,
      "vsize": 135,
      "weight": 540,
      "locktime": 0,
      "vin": [
        {
          "coinbase": "04ffff001d029e02",
          "sequence": 4294967295
        }
      ],
      "vout": [
        {
          "value": 50.0,
          "n": 0,
          "scriptPubKey": {
            "asm": "04751c5eebbe353fc5fa221e62ae1a7f669473d3caea52dc75d3041bad9195c59a6049795e8fa972635e523e65c10fbd397063a460ed77f09eddf4fbe5eb60a3e0 OP_CHECKSIG",
            "desc": "pk(04751c5eebbe353fc5fa221e62ae1a7f669473d3caea52dc75d3041bad9195c59a6049795e8fa972635e523e65c10fbd397063a460ed77f09eddf4fbe5eb60a3e0)#cyjll6mk",
            "hex": "4104751c5eebbe353fc5fa221e62ae1a7f669473d3caea52dc75d3041bad9195c59a6049795e8fa972635e523e65c10fbd397063a460ed77f09eddf4fbe5eb60a3e0ac",
            "type": "pubkey"
          }
        }
      ],
      "hex": "01000000010000000000000000000000000000000000000000000000000000000000000000ffffffff0804ffff001d029e02ffffffff0100f2052a01000000434104751c5eebbe353fc5fa221e62ae1a7f669473d3caea52dc75d3041bad9195c59a6049795e8fa972635e523e65c10fbd397063a460ed77f09eddf4fbe5eb60a3e0ac00000000"
    }
  ]
}