{
  "hash": "000000004dc7e0fd5f7b7e694df8a2ada39f5263b0facdb37c5d6027eca50ef3",
  "confirmations": 46802,
  "height": 6296,
  "version": 1,
  "versionHex": "00000001",
  "merkleroot": "0353b3e003e000155dd701e564d2baeafa4ca0e794e76a3293d24ce3bf672701",
  "time": 1236170034,
  "mediantime": 1236163546,
  "nonce": 217808800,
  "bits": "1d00ffff",
  "difficulty": 1,
  "chainwork": "0000000000000000000000000000000000000000000000000000189918991899",
  "nTx": 1,
  "previousblockhash": "00000000e2468860edf9b2d10dd231c4e02ef10e6b5deb4585f273b16046e293",
  "nextblockhash": "00000000df891453f150fb58d0b08bdeed2419916265e5801d61a6e4db217d29",
  "strippedsize": 216,
  "size": 216,
  "weight": 864,
  "tx": [
    {
      "txid": "0353b3e003e000155dd701e564d2baeafa4ca0e794e76a3293d24ce3bf672701",
      "hash": "0353b3e003e000155dd701e564d2baeafa4ca0e794e76a3293d24ce3bf672701",
      "version": 1,
      "size": 135,
      "vsize": 135,
      "weight": 540,
      "locktime": 0,
      "vin": [
        {
          "coinbase": "04ffff001d029900",
          "sequence": 4294967295
        }
      ],
      "vout": [
        {
          "value": 50.0,
          "n": 0,
          "scriptPubKey": {
            "asm": "041fd964c9cb47b8e1bbb99f98b94ce5135865d4fe8e8ed3727fc9b8ff2af70fc458d0f77c846debe63480ecccc8425bb3601a99cac4a5a422f633b6adc9b28198 OP_CHECKSIG",
            "desc": "pk(041fd964c9cb47b8e1bbb99f98b94ce5135865d4fe8e8ed3727fc9b8ff2af70fc458d0f77c846debe63480ecccc8425bb3601a99cac4a5a422f633b6adc9b28198)#6ch2jj0j",
            "hex": "41041fd964c9cb47b8e1bbb99f98b94ce5135865d4fe8e8ed3727fc9b8ff2af70fc458d0f77c846debe63480ecccc8425bb3601a99cac4a5a422f633b6adc9b28198ac",
            "type": "pubkey"
          }
        }
      ],
      "hex": "01000000010000000000000000000000000000000000000000000000000000000000000000ffffffff0804ffff001d029900ffffffff0100f2052a010000004341041fd964c9cb47b8e1bbb99f98b94ce5135865d4fe8e8ed3727fc9b8ff2af70fc458d0f77c846debe63480ecccc8425bb3601a99cac4a5a422f633b6adc9b28198ac00000000"
    }
  ]
}