{
  "hash": "000000002b2c78c5e2bfbf4029566dec8764020c0c119d41dd072c95c153eaa6",
  "confirmations": 45262,
  "height": 7836,
  "version": 1,
  "versionHex": "00000001",
  "merkleroot": "820f9ff53cd0e3e0d56af82f1fb5d18424672acfce0ad8d55d49bba3fa2a8c0e",
  "time": 1237340506,
  "mediantime": 1237336742,
  "nonce": 987482138,
  "bits": "1d00ffff",
  "difficulty": 1,
  "chainwork": "00000000000000000000000000000000000000000000000000001e9d1e9d1e9d",
  "nTx": 1,
  "previousblockhash": "000000001e2aec11362bd8db223b1eaf2e910effe00f08a6a51bb7f93ccf9199",
  "nextblockhash": "00000000fa3dc261b67cd450002c1e439370f8401e7c5db6eb2cc93e10883a92",
  "strippedsize": 216,
  "size": 216,
  "weight": 864,
  "tx": [
    {
      "txid": "820f9ff53cd0e3e0d56af82f1fb5d18424672acfce0ad8d55d49bba3fa2a8c0e",
      "hash": "820f9ff53cd0e3e0d56af82f1fb5d18424672acfce0ad8d55d49bba3fa2a8c0e",
      "version": 1,
      "size": 135,
      "vsize": 135,
      "weight": 540,
      "locktime": 0,
      "vin": [
        {
          "coinbase": "04ffff001d027606",
          "sequence": 4294967295
        }
      ],
      "vout": [
        {
          "value": 50.0,
          "n": 0,
          "scriptPubKey": {
            "asm": "043af0398a1f8c11380a55cdd6527384b18af9c47291ec6b4f41e88276d4c98a73fc678d6cd722509fcad6702ab828d6b6ab6f4921941eb906a2d4ba0b86a982d3 OP_CHECKSIG",
            "desc": "pk(043af0398a1f8c11380a55cdd6527384b18af9c47291ec6b4f41e88276d4c98a73fc678d6cd722509fcad6702ab828d6b6ab6f4921941eb906a2d4ba0b86a982d3)#ttj4jcrs",
            "hex": "41043af0398a1f8c11380a55cdd6527384b18af9c47291ec6b4f41e88276d4c98a73fc678d6cd722509fcad6702ab828d6b6ab6f4921941eb906a2d4ba0b86a982d3ac",
            "type": "pubkey"
          }
        }
      ],
      "hex": "01000000010000000000000000000000000000000000000000000000000000000000000000ffffffff0804ffff001d027606ffffffff0100f2052a010000004341043af0398a1f8c11380a55cdd6527384b18af9c47291ec6b4f41e88276d4c98a73fc678d6cd722509fcad6702ab828d6b6ab6f4921941eb906a2d4ba0b86a982d3ac00000000"
    }
  ]
}