{
  "hash": "00000000c028057c1ef4bf6644cc46914497268119170f2fb2d2823aa1f71e43",
  "confirmations": 47613,
  "height": 5485,
  "version": 1,
  "versionHex": "00000001",
  "merkleroot": "dd20f2d8b3997efc5caadb1bc0fa866251a559790cb2c179e4b53f58d30f43be",
  "time": 1235507965,
  "mediantime": 1235504236,
  "nonce": 3071361059,
  "bits": "1d00ffff",
  "difficulty": 1,
  "chainwork": "0000000000000000000000000000000000000000000000000000156e156e156e",
  "nTx": 1,
  "previousblockhash": "00000000a51d7f1727d1b484ae0c8cfdcc0576c291be93622b1be931134225e0",
  "nextblockhash": "000000009c34fcc049fc268d8928fc07d36896ffff4c97a285f479301aaf9473",
  "strippedsize": 216,
  "size": 216,
  "weight": 864,
  "tx": [
    {
      "txid": "dd20f2d8b3997efc5caadb1bc0fa866251a559790cb2c179e4b53f58d30f43be",
      "hash": "dd20f2d8b3997efc5caadb1bc0fa866251a559790cb2c179e4b53f58d30f43be",
      "version": 1,
      "size": 135,
      "vsize": 135,
      "weight": 540,
      "locktime": 0,
      "vin": [
        {
          "coinbase": "04ffff001d025805",
          "sequence": 4294967295
        }
      ],
      "vout": [
        {
          "value": 50.0,
          "n": 0,
          "scriptPubKey": {
            "asm": "041e23478c0497231e3274b74e97a10aeb872ba15b6220178bf78f431ec0809c6eb7bb647e487d3a64ccd2cb1d61a5c72f7fa2ef0b5f730049b83aac5cb70a8dd6 OP_CHECKSIG",
            "desc": "pk(041e23478c0497231e3274b74e97a10aeb872ba15b6220178bf78f431ec0809c6eb7bb647e487d3a64ccd2cb1d61a5c72f7fa2ef0b5f730049b83aac5cb70a8dd6)#pe4dlyqj",
            "hex": "41041e23478c0497231e3274b74e97a10aeb872ba15b6220178bf78f431ec0809c6eb7bb647e487d3a64ccd2cb1d61a5c72f7fa2ef0b5f730049b83aac5cb70a8dd6ac",
            "type": "pubkey"
          }
        }
      ],
      "hex": "01000000010000000000000000000000000000000000000000000000000000000000000000ffffffff0804ffff001d025805ffffffff0100f2052a010000004341041e23478c0497231e3274b74e97a10aeb872ba15b6220178bf78f431ec0809c6eb7bb647e487d3a64ccd2cb1d61a5c72f7fa2ef0b5f730049b83aac5cb70a8dd6ac00000000"
    }
  ]
}