{
  "hash": "00000000ab0236e1656a988050fc919231136e6e3a21d5782a9efac7c8f40e29",
  "confirmations": 43946,
  "height": 9152,
  "version": 1,
  "versionHex": "00000001",
  "merkleroot": "b640c52b2e1eef9fd54e29a6d5cda58d4196cd560d8e5e55439343f9b915c75b",
  "time": 1238368119,
  "mediantime": 1238364973,
  "nonce": 37990238,
  "bits": "1d00ffff",
  "difficulty": 1,
  "chainwork": "000000000000000000000000000000000000000000000000000023c123c123c1",
  "nTx": 1,
  "previousblockhash": "000000000cc48842faf0df1dd7621449ff8b4d28007d56c77a59be45df5b4036",
  "nextblockhash": "00000000dfb37670075b0cdcb36dfe3e733a450ab4b2a27ccd4278edbcfeb8fb",
  "strippedsize": 216,
  "size": 216,
  "weight": 864,
  "tx": [
    {
      "txid": "b640c52b2e1eef9fd54e29a6d5cda58d4196cd560d8e5e55439343f9b915c75b",
      "hash": "b640c52b2e1eef9fd54e29a6d5cda58d4196cd560d8e5e55439343f9b915c75b",
      "version": 1,
      "size": 135,
      "vsize": 135,
      "weight": 540,
      "locktime": 0,
      "vin": [
        {
          "coinbase": "04ffff001d02ef00",
          "sequence": 4294967295
        }
      ],
      "vout": [
        {
          "value": 50.0,
          "n": 0,
          "scriptPubKey": {
            "asm": "0409871822b8124913e8ac455d01978f37565cd362228b4e36d62c06916929e99d8a4c3d821acbd46da4b9f91ed3a58db7e072a6d02e799c94e738359789b562dd OP_CHECKSIG",
            "desc": "pk(0409871822b8124913e8ac455d01978f37565cd362228b4e36d62c06916929e99d8a4c3d821acbd46da4b9f91ed3a58db7e072a6d02e799c94e738359789b562dd)#kmg37vsl",
            "hex": "410409871822b8124913e8ac455d01978f37565cd362228b4e36d62c06916929e99d8a4c3d821acbd46da4b9f91ed3a58db7e072a6d02e799c94e738359789b562ddac",
            "type": "pubkey"
          }
        }
      ],
      "hex": "01000000010000000000000000000000000000000000000000000000000000000000000000ffffffff0804ffff001d02ef00ffffffff0100f2052a0100000043410409871822b8124913e8ac455d01978f37565cd362228b4e36d62c06916929e99d8a4c3d821acbd46da4b9f91ed3a58db7e072a6d02e799c94e738359789b562ddac00000000"
    }
  ]
}