{
  "hash": "00000000f7ee7b7d1595abfcf9b2a9d06cb365e11076b97ad6ee2b9674486158",
  "confirmations": 46868,
  "height": 6230,
  "version": 1,
  "versionHex": "00000001",
  "merkleroot": "a65a70d3587da33427bcd08de09a7c1b27f020e6b0097ff53ef6e3ae4f19e468",
  "time": 1236115865,
  "mediantime": 1236112264,
  "nonce": 3473180438,
  "bits": "1d00ffff",
  "difficulty": 1,
  "chainwork": "0000000000000000000000000000000000000000000000000000185718571857",
  "nTx": 1,
  "previousblockhash": "00000000d03eaa6098f26f0d241b7d7310348f2140256af8b92a13dcfa4dc7ee",
  "nextblockhash": "00000000db50a10eeeab0f2111c2ddab9daffa42cfdadc5bdf343824f2b22aab",
  "strippedsize": 216,
  "size": 216,
  "weight": 864,
  "tx": [
    {
      "txid": "a65a70d3587da33427bcd08de09a7c1b27f020e6b0097ff53ef6e3ae4f19e468",
      "hash": "a65a70d3587da33427bcd08de09a7c1b27f020e6b0097ff53ef6e3ae4f19e468",
      "version": 1,
      "size": 135,
      "vsize": 135,
      "weight": 540,
      "locktime": 0,
      "vin": [
        {
          "coinbase": "04ffff001d022409",
          "sequence": 4294967295
        }
      ],
      "vout": [
        {
          "value": 50.0,
          "n": 0,
          "scriptPubKey": {
            "asm": "044dc4b493a80194cd7d1786ddc038ff5e6bbf5696d0c7cc38abb2392981286e10285452bfcb768388d8d09387621ca929466d7bd1c5198f0db67bc7b033ed8aa7 OP_CHECKSIG",
            "desc": "pk(044dc4b493a80194cd7d1786ddc038ff5e6bbf5696d0c7cc38abb2392981286e10285452bfcb768388d8d09387621ca929466d7bd1c5198f0db67bc7b033ed8aa7)#xcvaya9r",
            "hex": "41044dc4b493a80194cd7d1786ddc038ff5e6bbf5696d0c7cc38abb2392981286e10285452bfcb768388d8d09387621ca929466d7bd1c5198f0db67bc7b033ed8aa7ac",
            "type": "pubkey"
          }
        }
      ],
      "hex": "01000000010000000000000000000000000000000000000000000000000000000000000000ffffffff0804ffff001d022409ffffffff0100f2052a010000004341044dc4b493a80194cd7d1786ddc038ff5e6bbf5696d0c7cc38abb2392981286e10285452bfcb768388d8d09387621ca929466d7bd1c5198f0db67bc7b033ed8aa7ac00000000"
    }
  ]
}