{
  "hash": "000000005c89dfca5c244fd866a9de84cda8e0c15f15d3e9a8536a9758d69384",
  "confirmations": 43723,
  "height": 9375,
  "version": 1,
  "versionHex": "00000001",
  "merkleroot": "55c8543c6106e3928dcd19a225d40e4bc3688bba29c2241f8134912e818ca8f7",
  "time": 1238529731,
  "mediantime": 1238525274,
  "nonce": 1584443444,
  "bits": "1d00ffff",
  "difficulty": 1,
  "chainwork": "000000000000000000000000000000000000000000000000000024a024a024a0",
  "nTx": 1,
  "previousblockhash": "00000000edc746c8ce121ac5a287fb48215a258eba3e7c4fde8b1c91c1816dab",
  "nextblockhash": "000000003cda70eebd121313f31fac0070e06dcd2e7a9ee5bb6e7467299ed4d9",
  "strippedsize": 216,
  "size": 216,
  "weight": 864,
  "tx": [
    {
      "txid": "55c8543c6106e3928dcd19a225d40e4bc3688bba29c2241f8134912e818ca8f7",
      "hash": "55c8543c6106e3928dcd19a225d40e4bc3688bba29c2241f8134912e818ca8f7",
      "version": 1,
      "size": 135,
      "vsize": 135,
      "weight": 540,
      "locktime": 0,
      "vin": [
        {
          "coinbase": "04ffff001d021103",
          "sequence": 4294967295
        }
      ],
      "vout": [
        {
          "value": 50.0,
          "n": 0,
          "scriptPubKey": {
            "asm": "04d0cdd9adfb265fd81d71707a40aa2e89170df19f3ee9a22f258af21a18dc66ce8bc0295fdf8b87e9983a6d7ab88c276fadbb690a285ae580e683f023db236027 OP_CHECKSIG",
            "desc": "pk(04d0cdd9adfb265fd81d71707a40aa2e89170df19f3ee9a22f258af21a18dc66ce8bc0295fdf8b87e9983a6d7ab88c276fadbb690a285ae580e683f023db236027)#3dqk703f",
            "hex": "4104d0cdd9adfb265fd81d71707a40aa2e89170df19f3ee9a22f258af21a18dc66ce8bc0295fdf8b87e9983a6d7ab88c276fadbb690a285ae580e683f023db236027ac",
            "type": "pubkey"
          }
        }
      ],
      "hex": "01000000010000000000000000000000000000000000000000000000000000000000000000ffffffff0804ffff001d021103ffffffff0100f2052a01000000434104d0cdd9adfb265fd81d71707a40aa2e89170df19f3ee9a22f258af21a18dc66ce8bc0295fdf8b87e9983a6d7ab88c276fadbb690a285ae580e683f023db236027ac00000000"
    }
  ]
}