{
  "hash": "0000000031348600da1c5b2dadd17d6c37c6ebdfa8a4780d10648701a7a0be16",
  "confirmations": 49801,
  "height": 3297,
  "version": 1,
  "versionHex": "00000001",
  "merkleroot": "2dfa135ff8aae0b9d906bc1247409cfdcefcc82019bf4fc7a965ab1cab1a4284",
  "time": 1233967632,
  "mediantime": 1233965983,
  "nonce": 675726633,
  "bits": "1d00ffff",
  "difficulty": 1,
  "chainwork": "00000000000000000000000000000000000000000000000000000ce20ce20ce2",
  "nTx": 1,
  "previousblockhash": "000000005e77d434e55f6e6cbde60cd5b829fba71b09859232e7dc7198884e40",
  "nextblockhash": "0000000009b872c83e6911694e0af5989fa0c8fd958f1d741629da4c32d53001",
  "strippedsize": 216,
  "size": 216,
  "weight": 864,
  "tx": [
    {
      "txid": "2dfa135ff8aae0b9d906bc1247409cfdcefcc82019bf4fc7a965ab1cab1a4284",
      "hash": "2dfa135ff8aae0b9d906bc1247409cfdcefcc82019bf4fc7a965ab1cab1a4284",
      "version": 1,
      "size": 135,
      "vsize": 135,
      "weight": 540,
      "locktime": 0,
      "vin": [
        {
          "coinbase": "04ffff001d022d04",
          "sequence": 4294967295
        }
      ],
      "vout": [
        {
          "value": 50.0,
          "n": 0,
          "scriptPubKey": {
            "asm": "0485b796fcbc705edad93049d9ce2313133961114a42cbb3c707fa12a496ef3863710b2115e8b9660267625bd36c092ad5bc197b961021aeedcb683dddea38d0da OP_CHECKSIG",
            "desc": "pk(0485b796fcbc705edad93049d9ce2313133961114a42cbb3c707fa12a496ef3863710b2115e8b9660267625bd36c092ad5bc197b961021aeedcb683dddea38d0da)#n6vjm8fp",
            "hex": "410485b796fcbc705edad93049d9ce2313133961114a42cbb3c707fa12a496ef3863710b2115e8b9660267625bd36c092ad5bc197b961021aeedcb683dddea38d0daac",
            "type": "pubkey"
          }
        }
      ],
      "hex": "01000000010000000000000000000000000000000000000000000000000000000000000000ffffffff0804ffff001d022d04ffffffff0100f2052a0100000043410485b796fcbc705edad93049d9ce2313133961114a42cbb3c707fa12a496ef3863710b2115e8b9660267625bd36c092ad5bc197b961021aeedcb683dddea38d0daac00000000"
    }
  ]
}