{
  "hash": "000000000b06eccdae6229a5386160f8e3896e4fa8b6d2cb3e8a445115a693d2",
  "confirmations": 48010,
  "height": 5088,
  "version": 1,
  "versionHex": "00000001",
  "merkleroot": "032606329204acbc3ee54fcdef36d98182a34446ebccec8f83bcd31a0cda4fc6",
  "time": 1235207976,
  "mediantime": 1235204314,
  "nonce": 1486066723,
  "bits": "1d00ffff",
  "difficulty": 1,
  "chainwork": "000000000000000000000000000000000000000000000000000013e113e113e1",
  "nTx": 1,
  "previousblockhash": "000000003a470f36740bbfe1e35696cf6093a3551638ddb8df4d4de45016276f",
  "nextblockhash": "000000006aa8473ec129d0d46edbdbeb8f9f1c05835080372918b2c2c54ffb80",
  "strippedsize": 216,
  "size": 216,
  "weight": 864,
  "tx": [
    {
      "txid": "032606329204acbc3ee54fcdef36d98182a34446ebccec8f83bcd31a0cda4fc6",
      "hash": "032606329204acbc3ee54fcdef36d98182a34446ebccec8f83bcd31a0cda4fc6",
      "version": 1,
      "size": 135,
      "vsize": 135,
      "weight": 540,
      "locktime": 0,
      "vin": [
        {
          "coinbase": "04ffff001d02c208",
          "sequence": 4294967295
        }
      ],
      "vout": [
        {
          "value": 50.0,
          "n": 0,
          "scriptPubKey": {
            "asm": "04bcfa12ce591557b850952f397638cbfe21deaa85665f97e8caed0630328ac5bfab9843377f8fd1c9f9abe89c080521abd0a5fc0aeabb108c163c4028fe3ff030 OP_CHECKSIG",
            "desc": "pk(04bcfa12ce591557b850952f397638cbfe21deaa85665f97e8caed0630328ac5bfab9843377f8fd1c9f9abe89c080521abd0a5fc0aeabb108c163c4028fe3ff030)#hh7lcc4x",
            "hex": "4104bcfa12ce591557b850952f397638cbfe21deaa85665f97e8caed0630328ac5bfab9843377f8fd1c9f9abe89c080521abd0a5fc0aeabb108c163c4028fe3ff030ac",
            "type": "pubkey"
          }
        }
      ],
      "hex": "01000000010000000000000000000000000000000000000000000000000000000000000000ffffffff0804ffff001d02c208ffffffff0100f2052a01000000434104bcfa12ce591557b850952f397638cbfe21deaa85665f97e8caed0630328ac5bfab9843377f8fd1c9f9abe89c080521abd0a5fc0aeabb108c163c4028fe3ff030ac00000000"
    }
  ]
}