{
  "hash": "00000000b37596a3da4047bd87f87308fcd341f4cde8e6c7e6e1e490b0e9a80b",
  "confirmations": 43605,
  "height": 9493,
  "version": 1,
  "versionHex": "00000001",
  "merkleroot": "321adf417c50f48d4b18115fb0137bb3ba53cacabf101b6dc71417251db8fdd9",
  "time": 1238623511,
  "mediantime": 1238621203,
  "nonce": 2639955465,
  "bits": "1d00ffff",
  "difficulty": 1,
  "chainwork": "0000000000000000000000000000000000000000000000000000251625162516",
  "nTx": 1,
  "previousblockhash": "00000000aed0c1fc5c31ed59240dbe97b4fcb8e38595216a2e7070b15393da51",
  "nextblockhash": "00000000f5db965f7137dc1776a87c9846b54c9851f955e69ae0234bfb996496",
  "strippedsize": 216,
  "size": 216,
  "weight": 864,
  "tx": [
    {
      "txid": "321adf417c50f48d4b18115fb0137bb3ba53cacabf101b6dc71417251db8fdd9",
      "hash": "321adf417c50f48d4b18115fb0137bb3ba53cacabf101b6dc71417251db8fdd9",
      "version": 1,
      "size": 135,
      "vsize": 135,
      "weight": 540,
      "locktime": 0,
      "vin": [
        {
          "coinbase": "04ffff001d026105",
          "sequence": 4294967295
        }
      ],
      "vout": [
        {
          "value": 50.0,
          "n": 0,
          "scriptPubKey": {
            "asm": "04bc68f661bcb8afeee60d838a8824d852f9650455b1055561745eca3c60b76b78ef58564752d24f724e45f7e48f9e7d95e5cc4e8d0771ad2acd6f60f42a66ad7d OP_CHECKSIG",
            "desc": "pk(04bc68f661bcb8afeee60d838a8824d852f9650455b1055561745eca3c60b76b78ef58564752d24f724e45f7e48f9e7d95e5cc4e8d0771ad2acd6f60f42a66ad7d)#evafdmzv",
            "hex": "4104bc68f661bcb8afeee60d838a8824d852f9650455b1055561745eca3c60b76b78ef58564752d24f724e45f7e48f9e7d95e5cc4e8d0771ad2acd6f60f42a66ad7dac",
            "type": "pubkey"
          }
        }
      ],
      "hex": "01000000010000000000000000000000000000000000000000000000000000000000000000ffffffff0804ffff001d026105ffffffff0100f2052a01000000434104bc68f661bcb8afeee60d838a8824d852f9650455b1055561745eca3c60b76b78ef58564752d24f724e45f7e48f9e7d95e5cc4e8d0771ad2acd6f60f42a66ad7dac00000000"
    }
  ]
}