{
  "hash": "0000000019a37c6cc7caa8914a6351398a3656cdcd89031a0c52998fcd3f9076",
  "confirmations": 49216,
  "height": 3882,
  "version": 1,
  "versionHex": "00000001",
  "merkleroot": "464480cf9f7310133a7fb5b632d4145572b1393d367b9d50ae020b265143d920",
  "time": 1234355269,
  "mediantime": 1234351910,
  "nonce": 127852690,
  "bits": "1d00ffff",
  "difficulty": 1,
  "chainwork": "00000000000000000000000000000000000000000000000000000f2b0f2b0f2b",
  "nTx": 1,
  "previousblockhash": "00000000c723fcfb145646bd41a0344c02e2a6e490d0fc15bee1c5be5ddc404e",
  "nextblockhash": "00000000ea2b48f085f41cd7e00c313c50966070e408246887fe32ba87082482",
  "strippedsize": 215,
  "size": 215,
  "weight": 860,
  "tx": [
    {
      "txid": "464480cf9f7310133a7fb5b632d4145572b1393d367b9d50ae020b265143d920",
      "hash": "464480cf9f7310133a7fb5b632d4145572b1393d367b9d50ae020b265143d920",
      "version": 1,
      "size": 134,
      "vsize": 134,
      "weight": 536,
      "locktime": 0,
      "vin": [
        {
          "coinbase": "04ffff001d013a",
          "sequence": 4294967295
        }
      ],
      "vout": [
        {
          "value": 50.0,
          "n": 0,
          "scriptPubKey": {
            "asm": "049d4fb04f331d13417155e191c4499f9464489f909068d39d8aa46ca641e620469e437f9a22c7bce47df2297606fdab229f05b66f68e92b91ace8bad6c5ac60f3 OP_CHECKSIG",
            "desc": "pk(049d4fb04f331d13417155e191c4499f9464489f909068d39d8aa46ca641e620469e437f9a22c7bce47df2297606fdab229f05b66f68e92b91ace8bad6c5ac60f3)#pm5skjd2",
            "hex": "41049d4fb04f331d13417155e191c4499f9464489f909068d39d8aa46ca641e620469e437f9a22c7bce47df2297606fdab229f05b66f68e92b91ace8bad6c5ac60f3ac",
            "type": "pubkey"
          }
        }
      ],
      "hex": "01000000010000000000000000000000000000000000000000000000000000000000000000ffffffff0704ffff001d013affffffff0100f2052a010000004341049d4fb04f331d13417155e191c4499f9464489f909068d39d8aa46ca641e620469e437f9a22c7bce47df2297606fdab229f05b66f68e92b91ace8bad6c5ac60f3ac00000000"
    }
  ]
}