{
  "hash": "000000001d82b15d56e5709d4a816cb433e129b737f5d20651e6fbffabc2bdc5",
  "confirmations": 48730,
  "height": 4368,
  "version": 1,
  "versionHex": "00000001",
  "merkleroot": "af9e8ee5c96e963f1a29599ad9a8d996bf4902c334c39e7ac06779f80dda4b8e",
  "time": 1234687678,
  "mediantime": 1234684146,
  "nonce": 2556577567,
  "bits": "1d00ffff",
  "difficulty": 1,
  "chainwork": "0000000000000000000000000000000000000000000000000000111111111111",
  "nTx": 1,
  "previousblockhash": "0000000020322edfa2aedb4efbd2d5836cb7b92ff854a0baa4dfd11e50a7f92a",
  "nextblockhash": "0000000001c8797046ebb23244debdead79fa24fedfbae2ef7a2b32e4e976348",
  "strippedsize": 216,
  "size": 216,
  "weight": 864,
  "tx": [
    {
      "txid": "af9e8ee5c96e963f1a29599ad9a8d996bf4902c334c39e7ac06779f80dda4b8e",
      "hash": "af9e8ee5c96e963f1a29599ad9a8d996bf4902c334c39e7ac06779f80dda4b8e",
      "version": 1,
      "size": 135,
      "vsize": 135,
      "weight": 540,
      "locktime": 0,
      "vin": [
        {
          "coinbase": "04ffff001d02b300",
          "sequence": 4294967295
        }
      ],
      "vout": [
        {
          "value": 50.0,
          "n": 0,
          "scriptPubKey": {
            "asm": "0467ec3b148c1418e8ac067c95192c794e76381978eeb3798fa2f70fbe02214fa2650f9887be53b308d603253ae17250e6c4a199a5ba843e912d6da065e150b7e7 OP_CHECKSIG",
            "desc": "pk(0467ec3b148c1418e8ac067c95192c794e76381978eeb3798fa2f70fbe02214fa2650f9887be53b308d603253ae17250e6c4a199a5ba843e912d6da065e150b7e7)#3ha2ztza",
            "hex": "410467ec3b148c1418e8ac067c95192c794e76381978eeb3798fa2f70fbe02214fa2650f9887be53b308d603253ae17250e6c4a199a5ba843e912d6da065e150b7e7ac",
            "type": "pubkey"
          }
        }
      ],
      "hex": "01000000010000000000000000000000000000000000000000000000000000000000000000ffffffff0804ffff001d02b300ffffffff0100f2052a0100000043410467ec3b148c1418e8ac067c95192c794e76381978eeb3798fa2f70fbe02214fa2650f9887be53b308d603253ae17250e6c4a199a5ba843e912d6da065e150b7e7ac00000000"
    }
  ]
}