{
  "hash": "000000008da15afed11cf8e45a21c133d6133242a847863614794f110791bc82",
  "confirmations": 44732,
  "height": 8366,
  "version": 1,
  "versionHex": "00000001",
  "merkleroot": "870bdce5884142245762e49afb609716856030ec3086ee0c9898a83ab7b22a9e",
  "time": 1237778447,
  "mediantime": 1237774023,
  "nonce": 517231415,
  "bits": "1d00ffff",
  "difficulty": 1,
  "chainwork": "000000000000000000000000000000000000000000000000000020af20af20af",
  "nTx": 1,
  "previousblockhash": "000000003c8f1e429b24b31c5207148b23000925746559c7b5a18d361723b173",
  "nextblockhash": "00000000dd6b035a3923661961d3cbf16e793ab324a32f21b57b02afbf7697cc",
  "strippedsize": 216,
  "size": 216,
  "weight": 864,
  "tx": [
    {
      "txid": "870bdce5884142245762e49afb609716856030ec3086ee0c9898a83ab7b22a9e",
      "hash": "870bdce5884142245762e49afb609716856030ec3086ee0c9898a83ab7b22a9e",
      "version": 1,
      "size": 135,
      "vsize": 135,
      "weight": 540,
      "locktime": 0,
      "vin": [
        {
          "coinbase": "04ffff001d025205",
          "sequence": 4294967295
        }
      ],
      "vout": [
        {
          "value": 50.0,
          "n": 0,
          "scriptPubKey": {
            "asm": "0466ac24844890cf80ebbb58b4dbb0f4bba8f7547568739175f89bda1a83702de8a6cd5549e6bbdffc4924fd33eacfdd575732912f08194da5f346bfaa3992db6e OP_CHECKSIG",
            "desc": "pk(0466ac24844890cf80ebbb58b4dbb0f4bba8f7547568739175f89bda1a83702de8a6cd5549e6bbdffc4924fd33eacfdd575732912f08194da5f346bfaa3992db6e)#tw58h989",
            "hex": "410466ac24844890cf80ebbb58b4dbb0f4bba8f7547568739175f89bda1a83702de8a6cd5549e6bbdffc4924fd33eacfdd575732912f08194da5f346bfaa3992db6eac",
            "type": "pubkey"
          }
        }
      ],
      "hex": "01000000010000000000000000000000000000000000000000000000000000000000000000ffffffff0804ffff001d025205ffffffff0100f2052a0100000043410466ac24844890cf80ebbb58b4dbb0f4bba8f7547568739175f89bda1a83702de8a6cd5549e6bbdffc4924fd33eacfdd575732912f08194da5f346bfaa3992db6eac00000000"
    }
  ]
}