{
  "hash": "00000000dbbc4c005a427f94b9b7da4c55981aed04d46cfc76f8fc97b75de846",
  "confirmations": 46966,
  "height": 6132,
  "version": 1,
  "versionHex": "00000001",
  "merkleroot": "976ef1b54ee821a29699c85ac94ecc203db4ab1540ce0ef15d3878864e2b0b19",
  "time": 1236033786,
  "mediantime": 1236029858,
  "nonce": 3192559874,
  "bits": "1d00ffff",
  "difficulty": 1,
  "chainwork": "000000000000000000000000000000000000000000000000000017f517f517f5",
  "nTx": 1,
  "previousblockhash": "00000000e5a432606e00173535adf891aed6e759d2a45b9a6c2988c3f8e70a3c",
  "nextblockhash": "00000000ce3f95831ae055a9fe6e497340a15a10a1edc7c06473564635f7f1c2",
  "strippedsize": 216,
  "size": 216,
  "weight": 864,
  "tx": [
    {
      "txid": "976ef1b54ee821a29699c85ac94ecc203db4ab1540ce0ef15d3878864e2b0b19",
      "hash": "976ef1b54ee821a29699c85ac94ecc203db4ab1540ce0ef15d3878864e2b0b19",
      "version": 1,
      "size": 135,
      "vsize": 135,
      "weight": 540,
      "locktime": 0,
      "vin": [
        {
          "coinbase": "04ffff001d026307",
          "sequence": 4294967295
        }
      ],
      "vout": [
        {
          "value": 50.0,
          "n": 0,
          "scriptPubKey": {
            "asm": "0451335cdffebb3f313196776f6a06b86dd7625c4abc836bc8f5dade5fe0845959ce67e6a1234adaa42fe7fe1d2ac51eaa19e1c96306892d0eac5697c7efce2d1d OP_CHECKSIG",
            "desc": "pk(0451335cdffebb3f313196776f6a06b86dd7625c4abc836bc8f5dade5fe0845959ce67e6a1234adaa42fe7fe1d2ac51eaa19e1c96306892d0eac5697c7efce2d1d)#c8gljrt7",
            "hex": "410451335cdffebb3f313196776f6a06b86dd7625c4abc836bc8f5dade5fe0845959ce67e6a1234adaa42fe7fe1d2ac51eaa19e1c96306892d0eac5697c7efce2d1dac",
            "type": "pubkey"
          }
        }
      ],
      "hex": "01000000010000000000000000000000000000000000000000000000000000000000000000ffffffff0804ffff001d026307ffffffff0100f2052a0100000043410451335cdffebb3f313196776f6a06b86dd7625c4abc836bc8f5dade5fe0845959ce67e6a1234adaa42fe7fe1d2ac51eaa19e1c96306892d0eac5697c7efce2d1dac00000000"
    }
  ]
}