{
  "hash": "000000005bf0467f52dbded6b81ae713b4f06d7e99bb0546adcdb6b569b9c5bf",
  "confirmations": 47309,
  "height": 5789,
  "version": 1,
  "versionHex": "00000001",
  "merkleroot": "0f2500459b196b1018bbf1ad117a4ffbd659cc1105a45cb5aa742a3e4f9e38a6",
  "time": 1235752284,
  "mediantime": 1235749053,
  "nonce": 4026296596,
  "bits": "1d00ffff",
  "difficulty": 1,
  "chainwork": "0000000000000000000000000000000000000000000000000000169e169e169e",
  "nTx": 1,
  "previousblockhash": "00000000fba87969be71e6f44277e1ae6547b90a2cdd76ea4b5fdf5096c243ef",
  "nextblockhash": "00000000ab7e34e40570e019b8f9f8d3cca13b293244f38b6dd40992ebcdd61f",
  "strippedsize": 216,
  "size": 216,
  "weight": 864,
  "tx": [
    {
      "txid": "0f2500459b196b1018bbf1ad117a4ffbd659cc1105a45cb5aa742a3e4f9e38a6",
      "hash": "0f2500459b196b1018bbf1ad117a4ffbd659cc1105a45cb5aa742a3e4f9e38a6",
      "version": 1,
      "size": 135,
      "vsize": 135,
      "weight": 540,
      "locktime": 0,
      "vin": [
        {
          "coinbase": "04ffff001d028e00",
          "sequence": 4294967295
        }
      ],
      "vout": [
        {
          "value": 50.0,
          "n": 0,
          "scriptPubKey": {
            "asm": "04af599cfc407b618e34af3e288e7d6365bddd823351ace0d800b4ce8260270b95615fcc2134a28f6089ae6f4c599d9e0366993ebbdba645915a8e85ef4e07bc6c OP_CHECKSIG",
            "desc": "pk(04af599cfc407b618e34af3e288e7d6365bddd823351ace0d800b4ce8260270b95615fcc2134a28f6089ae6f4c599d9e0366993ebbdba645915a8e85ef4e07bc6c)#vufvnxk6",
            "hex": "4104af599cfc407b618e34af3e288e7d6365bddd823351ace0d800b4ce8260270b95615fcc2134a28f6089ae6f4c599d9e0366993ebbdba645915a8e85ef4e07bc6cac",
            "type": "pubkey"
          }
        }
      ],
      "hex": "01000000010000000000000000000000000000000000000000000000000000000000000000ffffffff0804ffff001d028e00ffffffff0100f2052a01000000434104af599cfc407b618e34af3e288e7d6365bddd823351ace0d800b4ce8260270b95615fcc2134a28f6089ae6f4c599d9e0366993ebbdba645915a8e85ef4e07bc6cac00000000"
    }
  ]
}