{
  "hash": "00000000854a8934112c424a10acfcd13cbdad732192bc4931ffcb1d303d85e7",
  "confirmations": 48937,
  "height": 4161,
  "version": 1,
  "versionHex": "00000001",
  "merkleroot": "3323bbf3b9a5465d449b3012fef2e83caa1e0386f47d2c8226b55ea4cd74bbea",
  "time": 1234554372,
  "mediantime": 1234552082,
  "nonce": 2973695798,
  "bits": "1d00ffff",
  "difficulty": 1,
  "chainwork": "0000000000000000000000000000000000000000000000000000104210421042",
  "nTx": 1,
  "previousblockhash": "00000000632eb42f520db5b639ef966aa5df61b2a196b70134e2f6ea0db234af",
  "nextblockhash": "00000000b4299197a0a6eba1ae63363c9d8f890e8acf1fba782100078b8fd991",
  "strippedsize": 216,
  "size": 216,
  "weight": 864,
  "tx": [
    {
      "txid": "3323bbf3b9a5465d449b3012fef2e83caa1e0386f47d2c8226b55ea4cd74bbea",
      "hash": "3323bbf3b9a5465d449b3012fef2e83caa1e0386f47d2c8226b55ea4cd74bbea",
      "version": 1,
      "size": 135,
      "vsize": 135,
      "weight": 540,
      "locktime": 0,
      "vin": [
        {
          "coinbase": "04ffff001d02a106",
          "sequence": 4294967295
        }
      ],
      "vout": [
        {
          "value": 50.0,
          "n": 0,
          "scriptPubKey": {
            "asm": "04fdf24e6a0cb3bcfe7e135a543988a030e73524fc8993d2fb6af03f00a33b317645d08c8bd69d944d71a8fc80e41b6e700d955de319811d15e8804593556c5e94 OP_CHECKSIG",
            "desc": "pk(04fdf24e6a0cb3bcfe7e135a543988a030e73524fc8993d2fb6af03f00a33b317645d08c8bd69d944d71a8fc80e41b6e700d955de319811d15e8804593556c5e94)#cndzsj94",
            "hex": "4104fdf24e6a0cb3bcfe7e135a543988a030e73524fc8993d2fb6af03f00a33b317645d08c8bd69d944d71a8fc80e41b6e700d955de319811d15e8804593556c5e94ac",
            "type": "pubkey"
          }
        }
      ],
      "hex": "01000000010000000000000000000000000000000000000000000000000000000000000000ffffffff0804ffff001d02a106ffffffff0100f2052a01000000434104fdf24e6a0cb3bcfe7e135a543988a030e73524fc8993d2fb6af03f00a33b317645d08c8bd69d944d71a8fc80e41b6e700d955de319811d15e8804593556c5e94ac00000000"
    }
  ]
}