{
  "hash": "000000003fe5373a8e99ba134df067f55f44cfdd29904fb71b6d86f69c209a0a",
  "confirmations": 51316,
  "height": 1782,
  "version": 1,
  "versionHex": "00000001",
  "merkleroot": "4fb56620cf252e380eb2d648ae039d1250fde57bf9b5c13806366473b4f3029b",
  "time": 1232889114,
  "mediantime": 1232886578,
  "nonce": 3372832040,
  "bits": "1d00ffff",
  "difficulty": 1,
  "chainwork": "000000000000000000000000000000000000000000000000000006f706f706f7",
  "nTx": 1,
  "previousblockhash": "0000000026c7079d0d3839cc1071227ae16a55ee2c52a2360bdd39c0774f0ee0",
  "nextblockhash": "0000000030953d7744f4906c21c1ff46cf0913593319e0b0e42e07b11bffcb31",
  "strippedsize": 216,
  "size": 216,
  "weight": 864,
  "tx": [
    {
      "txid": "4fb56620cf252e380eb2d648ae039d1250fde57bf9b5c13806366473b4f3029b",
      "hash": "4fb56620cf252e380eb2d648ae039d1250fde57bf9b5c13806366473b4f3029b",
      "version": 1,
      "size": 135,
      "vsize": 135,
      "weight": 540,
      "locktime": 0,
      "vin": [
        {
          "coinbase": "04ffff001d02e503",
          "sequence": 4294967295
        }
      ],
      "vout": [
        {
          "value": 50.0,
          "n": 0,
          "scriptPubKey": {
            "asm": "047bc3104cd4151bac897b5c4a3c8142262fd9b952889268d20d37226a8b3f2bb5259d120a8a6ffe893576ba15b6dfc58722b273c9a40e2adb87f2a5c51c7c61a1 OP_CHECKSIG",
            "desc": "pk(047bc3104cd4151bac897b5c4a3c8142262fd9b952889268d20d37226a8b3f2bb5259d120a8a6ffe893576ba15b6dfc58722b273c9a40e2adb87f2a5c51c7c61a1)#8er7slwk",
            "hex": "41047bc3104cd4151bac897b5c4a3c8142262fd9b952889268d20d37226a8b3f2bb5259d120a8a6ffe893576ba15b6dfc58722b273c9a40e2adb87f2a5c51c7c61a1ac",
            "type": "pubkey"
          }
        }
      ],
      "hex": "01000000010000000000000000000000000000000000000000000000000000000000000000ffffffff0804ffff001d02e503ffffffff0100f2052a010000004341047bc3104cd4151bac897b5c4a3c8142262fd9b952889268d20d37226a8b3f2bb5259d120a8a6ffe893576ba15b6dfc58722b273c9a40e2adb87f2a5c51c7c61a1ac00000000"
    }
  ]
}