{
  "hash": "00000000884dc2f64bec3f605e0cc6794dc2cbfa25cda2886ce28fa00ab2411a",
  "confirmations": 45494,
  "height": 7604,
  "version": 1,
  "versionHex": "00000001",
  "merkleroot": "3d1d0356aed012862bb3ad546fd3433be6c62e136731ff600d7ddf5d09670381",
  "time": 1237172016,
  "mediantime": 1237168551,
  "nonce": 2600255543,
  "bits": "1d00ffff",
  "difficulty": 1,
  "chainwork": "00000000000000000000000000000000000000000000000000001db51db51db5",
  "nTx": 1,
  "previousblockhash": "00000000a50651375eb50f836f61db9e470b60ad1538806a3c1151fbeadbd199",
  "nextblockhash": "000000002aecd7fc095a30421b1be32c40dfc6c10ed9f7baebcdc2c94073aab4",
  "strippedsize": 216,
  "size": 216,
  "weight": 864,
  "tx": [
    {
      "txid": "3d1d0356aed012862bb3ad546fd3433be6c62e136731ff600d7ddf5d09670381",
      "hash": "3d1d0356aed012862bb3ad546fd3433be6c62e136731ff600d7ddf5d09670381",
      "version": 1,
      "size": 135,
      "vsize": 135,
      "weight": 540,
      "locktime": 0,
      "vin": [
        {
          "coinbase": "04ffff001d02b102",
          "sequence": 4294967295
        }
      ],
      "vout": [
        {
          "value": 50.0,
          "n": 0,
          "scriptPubKey": {
            "asm": "040ab974f95819583505a38b72180a5d76016eb18dd824037e814835a5870019669812cf673c5143d01910214360d59e9405e1b9992695fcb37c38973873aaaa7f OP_CHECKSIG",
            "desc": "pk(040ab974f95819583505a38b72180a5d76016eb18dd824037e814835a5870019669812cf673c5143d01910214360d59e9405e1b9992695fcb37c38973873aaaa7f)#6rlzyec5",
            "hex": "41040ab974f95819583505a38b72180a5d76016eb18dd824037e814835a5870019669812cf673c5143d01910214360d59e9405e1b9992695fcb37c38973873aaaa7fac",
            "type": "pubkey"
          }
        }
      ],
      "hex": "01000000010000000000000000000000000000000000000000000000000000000000000000ffffffff0804ffff001d02b102ffffffff0100f2052a010000004341040ab974f95819583505a38b72180a5d76016eb18dd824037e814835a5870019669812cf673c5143d01910214360d59e9405e1b9992695fcb37c38973873aaaa7fac00000000"
    }
  ]
}