{
  "hash": "00000000cb90c4ffd5137b447ed860afaf7c3640ef5ecd1e205d1d3776f3fa63",
  "confirmations": 46715,
  "height": 6383,
  "version": 1,
  "versionHex": "00000001",
  "merkleroot": "b8dd50ace3be2e162d41aadf94d30ee789f59444c954158e34948d7162aa7205",
  "time": 1236244350,
  "mediantime": 1236241310,
  "nonce": 3322470191,
  "bits": "1d00ffff",
  "difficulty": 1,
  "chainwork": "000000000000000000000000000000000000000000000000000018f018f018f0",
  "nTx": 1,
  "previousblockhash": "00000000778ec9dc56936fd5a0f40a87453a6d2477ae0196e5aced945cb6507f",
  "nextblockhash": "000000001e7812cf1ad8e830c33154147e3bfcf4bc3b94c87493ca3cf524719e",
  "strippedsize": 216,
  "size": 216,
  "weight": 864,
  "tx": [
    {
      "txid": "b8dd50ace3be2e162d41aadf94d30ee789f59444c954158e34948d7162aa7205",
      "hash": "b8dd50ace3be2e162d41aadf94d30ee789f59444c954158e34948d7162aa7205",
      "version": 1,
      "size": 135,
      "vsize": 135,
      "weight": 540,
      "locktime": 0,
      "vin": [
        {
          "coinbase": "04ffff001d028a01",
          "sequence": 4294967295
        }
      ],
      "vout": [
        {
          "value": 50.0,
          "n": 0,
          "scriptPubKey": {
            "asm": "04d7816ff212f3ad42518a23b13397266c799871261444fd4039a634f9818fc332b49bd4820f15495afe4f3d0565492839006c7f6b19dc1ab8648f49c88ae390ae OP_CHECKSIG",
            "desc": "pk(04d7816ff212f3ad42518a23b13397266c799871261444fd4039a634f9818fc332b49bd4820f15495afe4f3d0565492839006c7f6b19dc1ab8648f49c88ae390ae)#jfdc3ls4",
            "hex": "4104d7816ff212f3ad42518a23b13397266c799871261444fd4039a634f9818fc332b49bd4820f15495afe4f3d0565492839006c7f6b19dc1ab8648f49c88ae390aeac",
            "type": "pubkey"
          }
        }
      ],
      "hex": "01000000010000000000000000000000000000000000000000000000000000000000000000ffffffff0804ffff001d028a01ffffffff0100f2052a01000000434104d7816ff212f3ad42518a23b13397266c799871261444fd4039a634f9818fc332b49bd4820f15495afe4f3d0565492839006c7f6b19dc1ab8648f49c88ae390aeac00000000"
    }
  ]
}