{
  "hash": "00000000f443b5bd000c5b0683c9aaaf104cb7d8e4cdff2f7e5a1b99c4e0a68a",
  "confirmations": 51843,
  "height": 1255,
  "version": 1,
  "versionHex": "00000001",
  "merkleroot": "8908c26fe156c326f0b032a47b88b53bb94e64890fbfc1ce40d484fa3839f40d",
  "time": 1232542450,
  "mediantime": 1232538338,
  "nonce": 34340488,
  "bits": "1d00ffff",
  "difficulty": 1,
  "chainwork": "000000000000000000000000000000000000000000000000000004e804e804e8",
  "nTx": 1,
  "previousblockhash": "0000000010f9ffbf8f2248da958afcb92422f1b98beb747ec96271b7eeb2f023",
  "nextblockhash": "0000000056720bcfadf3ae8342a8b37ffecdd46bc6cb9df631bbf68f899053a7",
  "strippedsize": 215,
  "size": 215,
  "weight": 860,
  "tx": [
    {
      "txid": "8908c26fe156c326f0b032a47b88b53bb94e64890fbfc1ce40d484fa3839f40d",
      "hash": "8908c26fe156c326f0b032a47b88b53bb94e64890fbfc1ce40d484fa3839f40d",
      "version": 1,
      "size": 134,
      "vsize": 134,
      "weight": 536,
      "locktime": 0,
      "vin": [
        {
          "coinbase": "04ffff001d0130",
          "sequence": 4294967295
        }
      ],
      "vout": [
        {
          "value": 50.0,
          "n": 0,
          "scriptPubKey": {
            "asm": "0441b172551661f2da51d5594354894d0736d696ffbb212b4b4b8a9669fd243e7c18df99923555f12cc4fd96ac5e88ccd71079f0676123aa8dc9b05086af37f314 OP_CHECKSIG",
            "desc": "pk(0441b172551661f2da51d5594354894d0736d696ffbb212b4b4b8a9669fd243e7c18df99923555f12cc4fd96ac5e88ccd71079f0676123aa8dc9b05086af37f314)#y8lnrnmd",
            "hex": "410441b172551661f2da51d5594354894d0736d696ffbb212b4b4b8a9669fd243e7c18df99923555f12cc4fd96ac5e88ccd71079f0676123aa8dc9b05086af37f314ac",
            "type": "pubkey"
          }
        }
      ],
      "hex": "01000000010000000000000000000000000000000000000000000000000000000000000000ffffffff0704ffff001d0130ffffffff0100f2052a0100000043410441b172551661f2da51d5594354894d0736d696ffbb212b4b4b8a9669fd243e7c18df99923555f12cc4fd96ac5e88ccd71079f0676123aa8dc9b05086af37f314ac00000000"
    }
  ]
}