{
  "hash": "00000000a075a8baeda1ecd9043458877c9cb9abc68ccd035fcbf450b91fd3b5",
  "confirmations": 52129,
  "height": 375,
  "version": 1,
  "versionHex": "00000001",
  "merkleroot": "bb8b5ef6ae34dc5b05089fac252376b871c71f820ccc624ed37f3289dc56cfea",
  "time": 1231882823,
  "mediantime": 1231879977,
  "nonce": 3625391873,
  "bits": "1d00ffff",
  "difficulty": 1,
  "chainwork": "0000000000000000000000000000000000000000000000000000017801780178",
  "nTx": 1,
  "previousblockhash": "000000007ead0a1b0b1faa566697697600fbc24dadef627cf76169c8631e7453",
  "nextblockhash": "0000000045c48b53f19d5a3e73ef6d22930737080b6bdea398303e2ae2ba27e2",
  "strippedsize": 216,
  "size": 216,
  "weight": 864,
  "tx": [
    {
      "txid": "bb8b5ef6ae34dc5b05089fac252376b871c71f820ccc624ed37f3289dc56cfea",
      "hash": "bb8b5ef6ae34dc5b05089fac252376b871c71f820ccc624ed37f3289dc56cfea",
      "version": 1,
      "size": 135,
      "vsize": 135,
      "weight": 540,
      "locktime": 0,
      "vin": [
        {
          "coinbase": "04ffff001d02f701",
          "sequence": 4294967295
        }
      ],
      "vout": [
        {
          "value": 50.0,
          "n": 0,
          "scriptPubKey": {
            "asm": "04ad43efa156cc43194c8c41d548d26ef97be8eea67fab437d0dfc855212e5e1cf312627315c23406fe7895539425e64ea90899ebfe63cd2b10298784af230537b OP_CHECKSIG",
            "desc": "pk(04ad43efa156cc43194c8c41d548d26ef97be8eea67fab437d0dfc855212e5e1cf312627315c23406fe7895539425e64ea90899ebfe63cd2b10298784af230537b)#l7gdl7zd",
            "hex": "4104ad43efa156cc43194c8c41d548d26ef97be8eea67fab437d0dfc855212e5e1cf312627315c23406fe7895539425e64ea90899ebfe63cd2b10298784af230537bac",
            "type": "pubkey"
          }
        }
      ],
      "hex": "01000000010000000000000000000000000000000000000000000000000000000000000000ffffffff0804ffff001d02f701ffffffff0100f2052a01000000434104ad43efa156cc43194c8c41d548d26ef97be8eea67fab437d0dfc855212e5e1cf312627315c23406fe7895539425e64ea90899ebfe63cd2b10298784af230537bac00000000"
    }
  ]
}