{
  "hash": "0000000010cbb7b07ff1ee301b25e6eb8c1f7a5e6350c9c6c04ef68618891a05",
  "confirmations": 49910,
  "height": 3188,
  "version": 1,
  "versionHex": "00000001",
  "merkleroot": "1185cc9459946d0d8c95cff10f0cb28910e7b859e6b6c305628e766a639f2b2a",
  "time": 1233891352,
  "mediantime": 1233888302,
  "nonce": 4063512856,
  "bits": "1d00ffff",
  "difficulty": 1,
  "chainwork": "00000000000000000000000000000000000000000000000000000c750c750c75",
  "nTx": 1,
  "previousblockhash": "00000000b9850887a5fd7ba79a6d1194fc43008d2eea05ef63e61d5098ce6575",
  "nextblockhash": "00000000f6bbfa19474a023fd7eb6310eec81d491df7ce2fd83c8a2cd0b50f08",
  "strippedsize": 216,
  "size": 216,
  "weight": 864,
  "tx": [
    {
      "txid": "1185cc9459946d0d8c95cff10f0cb28910e7b859e6b6c305628e766a639f2b2a",
      "hash": "1185cc9459946d0d8c95cff10f0cb28910e7b859e6b6c305628e766a639f2b2a",
      "version": 1,
      "size": 135,
      "vsize": 135,
      "weight": 540,
      "locktime": 0,
      "vin": [
        {
          "coinbase": "04ffff001d028702",
          "sequence": 4294967295
        }
      ],
      "vout": [
        {
          "value": 50.0,
          "n": 0,
          "scriptPubKey": {
            "asm": "04ba5fac283afbbc8f6472ac4c80b0a5e4957407255f4f2279eab71ac76326638e6c3387e990a02798cbbeeeea1f52d630d179e9455b8f4ebdd12984b032da0f64 OP_CHECKSIG",
            "desc": "pk(04ba5fac283afbbc8f6472ac4c80b0a5e4957407255f4f2279eab71ac76326638e6c3387e990a02798cbbeeeea1f52d630d179e9455b8f4ebdd12984b032da0f64)#0ay6hrcl",
            "hex": "4104ba5fac283afbbc8f6472ac4c80b0a5e4957407255f4f2279eab71ac76326638e6c3387e990a02798cbbeeeea1f52d630d179e9455b8f4ebdd12984b032da0f64ac",
            "type": "pubkey"
          }
        }
      ],
      "hex": "01000000010000000000000000000000000000000000000000000000000000000000000000ffffffff0804ffff001d028702ffffffff0100f2052a01000000434104ba5fac283afbbc8f6472ac4c80b0a5e4957407255f4f2279eab71ac76326638e6c3387e990a02798cbbeeeea1f52d630d179e9455b8f4ebdd12984b032da0f64ac00000000"
    }
  ]
}