{
  "hash": "000000004cac8222aa5d6cd3e4a977e97aef95ec92263bb22e12d965824309af",
  "confirmations": 45496,
  "height": 7602,
  "version": 1,
  "versionHex": "00000001",
  "merkleroot": "eb90fe1b6bab5f4bf36652b4717e456c4c62d0f1286f45b33f9e4130742a53c4",
  "time": 1237170500,
  "mediantime": 1237166903,
  "nonce": 2448015912,
  "bits": "1d00ffff",
  "difficulty": 1,
  "chainwork": "00000000000000000000000000000000000000000000000000001db31db31db3",
  "nTx": 1,
  "previousblockhash": "00000000c8891dd7682afc1be593d084b2ac3f0d43427b307df172ba50bef104",
  "nextblockhash": "00000000a50651375eb50f836f61db9e470b60ad1538806a3c1151fbeadbd199",
  "strippedsize": 216,
  "size": 216,
  "weight": 864,
  "tx": [
    {
      "txid": "eb90fe1b6bab5f4bf36652b4717e456c4c62d0f1286f45b33f9e4130742a53c4",
      "hash": "eb90fe1b6bab5f4bf36652b4717e456c4c62d0f1286f45b33f9e4130742a53c4",
      "version": 1,
      "size": 135,
      "vsize": 135,
      "weight": 540,
      "locktime": 0,
      "vin": [
        {
          "coinbase": "04ffff001d02ac02",
          "sequence": 4294967295
        }
      ],
      "vout": [
        {
          "value": 50.0,
          "n": 0,
          "scriptPubKey": {
            "asm": "04b00f995b876bca442746209c6f46878f8e913ab39d8558be73f41e1f6f6da6b1d93c2968271ebbc2a427d3fc407a29661f2efe61ab09d441f8b54d3cd533abe2 OP_CHECKSIG",
            "desc": "pk(04b00f995b876bca442746209c6f46878f8e913ab39d8558be73f41e1f6f6da6b1d93c2968271ebbc2a427d3fc407a29661f2efe61ab09d441f8b54d3cd533abe2)#8q5h6kj0",
            "hex": "4104b00f995b876bca442746209c6f46878f8e913ab39d8558be73f41e1f6f6da6b1d93c2968271ebbc2a427d3fc407a29661f2efe61ab09d441f8b54d3cd533abe2ac",
            "type": "pubkey"
          }
        }
      ],
      "hex": "01000000010000000000000000000000000000000000000000000000000000000000000000ffffffff0804ffff001d02ac02ffffffff0100f2052a01000000434104b00f995b876bca442746209c6f46878f8e913ab39d8558be73f41e1f6f6da6b1d93c2968271ebbc2a427d3fc407a29661f2efe61ab09d441f8b54d3cd533abe2ac00000000"
    }
  ]
}