{
  "hash": "0000000016c9a2b06db02a157b3eae0309e0075c43eb94b3da72bd3ff7c81a14",
  "confirmations": 50842,
  "height": 2256,
  "version": 1,
  "versionHex": "00000001",
  "merkleroot": "947a8c2cb1b02311d1794622b16b1617574f6ab69d8d22c241a472088ce0c086",
  "time": 1233248908,
  "mediantime": 1233247146,
  "nonce": 2830846722,
  "bits": "1d00ffff",
  "difficulty": 1,
  "chainwork": "000000000000000000000000000000000000000000000000000008d108d108d1",
  "nTx": 1,
  "previousblockhash": "00000000a2a171ff52ca3c9d046592c8ac623b136b8d6910003728a3d22691cc",
  "nextblockhash": "00000000aaea93b8453e6ce62678ec19c0adf491e2156170ba6a4651d9a0ff6f",
  "strippedsize": 216,
  "size": 216,
  "weight": 864,
  "tx": [
    {
      "txid": "947a8c2cb1b02311d1794622b16b1617574f6ab69d8d22c241a472088ce0c086",
      "hash": "947a8c2cb1b02311d1794622b16b1617574f6ab69d8d22c241a472088ce0c086",
      "version": 1,
      "size": 135,
      "vsize": 135,
      "weight": 540,
      "locktime": 0,
      "vin": [
        {
          "coinbase": "04ffff001d021701",
          "sequence": 4294967295
        }
      ],
      "vout": [
        {
          "value": 50.0,
          "n": 0,
          "scriptPubKey": {
            "asm": "0472c7eea0efbec2cfa976d728d1f4864986b640effc7423ac0d67b98f9620ecf7de745ee1d907a6297c196020c1852c07b65d10328e9857c12f5468e6a3293c21 OP_CHECKSIG",
            "desc": "pk(0472c7eea0efbec2cfa976d728d1f4864986b640effc7423ac0d67b98f9620ecf7de745ee1d907a6297c196020c1852c07b65d10328e9857c12f5468e6a3293c21)#p2zju6y6",
            "hex": "410472c7eea0efbec2cfa976d728d1f4864986b640effc7423ac0d67b98f9620ecf7de745ee1d907a6297c196020c1852c07b65d10328e9857c12f5468e6a3293c21ac",
            "type": "pubkey"
          }
        }
      ],
      "hex": "01000000010000000000000000000000000000000000000000000000000000000000000000ffffffff0804ffff001d021701ffffffff0100f2052a0100000043410472c7eea0efbec2cfa976d728d1f4864986b640effc7423ac0d67b98f9620ecf7de745ee1d907a6297c196020c1852c07b65d10328e9857c12f5468e6a3293c21ac00000000"
    }
  ]
}