{
  "hash": "0000000053bdb21d6c70a969c058e3bf30405bad6eb9d7f95ef88bc265a61741",
  "confirmations": 46514,
  "height": 6584,
  "version": 1,
  "versionHex": "00000001",
  "merkleroot": "7787e82512f705528b7a5c1c5e76640e64450bec167cf56522d9857b0fd4b602",
  "time": 1236391626,
  "mediantime": 1236386844,
  "nonce": 2914962717,
  "bits": "1d00ffff",
  "difficulty": 1,
  "chainwork": "000000000000000000000000000000000000000000000000000019b919b919b9",
  "nTx": 1,
  "previousblockhash": "00000000b17315fca0d8b3f8229e49aae2912e9d5de1f94b772f1412e932a4a0",
  "nextblockhash": "00000000f4d5cf9c261c366bdbf152fdd78e50c4cd577e389345ba2822baf208",
  "strippedsize": 216,
  "size": 216,
  "weight": 864,
  "tx": [
    {
      "txid": "7787e82512f705528b7a5c1c5e76640e64450bec167cf56522d9857b0fd4b602",
      "hash": "7787e82512f705528b7a5c1c5e76640e64450bec167cf56522d9857b0fd4b602",
      "version": 1,
      "size": 135,
      "vsize": 135,
      "weight": 540,
      "locktime": 0,
      "vin": [
        {
          "coinbase": "04ffff001d02d804",
          "sequence": 4294967295
        }
      ],
      "vout": [
        {
          "value": 50.0,
          "n": 0,
          "scriptPubKey": {
            "asm": "049b27908571ca340d2b6e36e2b1b96ba02a1206a63e8db09dc82dc8b76c6fb5550c8f633ebc2bea7ef122cc196d2eb5aa0890e19af82dc27fa665f9ef2936fdc6 OP_CHECKSIG",
            "desc": "pk(049b27908571ca340d2b6e36e2b1b96ba02a1206a63e8db09dc82dc8b76c6fb5550c8f633ebc2bea7ef122cc196d2eb5aa0890e19af82dc27fa665f9ef2936fdc6)#u5rk0hk0",
            "hex": "41049b27908571ca340d2b6e36e2b1b96ba02a1206a63e8db09dc82dc8b76c6fb5550c8f633ebc2bea7ef122cc196d2eb5aa0890e19af82dc27fa665f9ef2936fdc6ac",
            "type": "pubkey"
          }
        }
      ],
      "hex": "01000000010000000000000000000000000000000000000000000000000000000000000000ffffffff0804ffff001d02d804ffffffff0100f2052a010000004341049b27908571ca340d2b6e36e2b1b96ba02a1206a63e8db09dc82dc8b76c6fb5550c8f633ebc2bea7ef122cc196d2eb5aa0890e19af82dc27fa665f9ef2936fdc6ac00000000"
    }
  ]
}