{
  "hash": "00000000332b32f70008b5275e72fc2a2d103b2559da7f0679db424c2d2eb928",
  "confirmations": 43591,
  "height": 9507,
  "version": 1,
  "versionHex": "00000001",
  "merkleroot": "45862df0008567df2d1c27547c437b982996672bf71f05ba28f1319dbad1834e",
  "time": 1238632660,
  "mediantime": 1238629658,
  "nonce": 5736661,
  "bits": "1d00ffff",
  "difficulty": 1,
  "chainwork": "0000000000000000000000000000000000000000000000000000252425242524",
  "nTx": 1,
  "previousblockhash": "00000000e0aa228fd33ef41299c7451f0c1d331ffb77cfcdf27379fa75bac6ff",
  "nextblockhash": "0000000050a320dbfdef05548c50321c8acf5a611feba3d7103771f9638cc397",
  "strippedsize": 215,
  "size": 215,
  "weight": 860,
  "tx": [
    {
      "txid": "45862df0008567df2d1c27547c437b982996672bf71f05ba28f1319dbad1834e",
      "hash": "45862df0008567df2d1c27547c437b982996672bf71f05ba28f1319dbad1834e",
      "version": 1,
      "size": 134,
      "vsize": 134,
      "weight": 536,
      "locktime": 0,
      "vin": [
        {
          "coinbase": "04ffff001d015a",
          "sequence": 4294967295
        }
      ],
      "vout": [
        {
          "value": 50.0,
          "n": 0,
          "scriptPubKey": {
            "asm": "04d1eeb620813d50ab9d7d819450e75cedd7ca0b4c134b8ff9c81d53d9d7673d9b1eb74fcd3ff29534ae22af7bbb752960a993e5ae9de288935ecdf69df38c479b OP_CHECKSIG",
            "desc": "pk(04d1eeb620813d50ab9d7d819450e75cedd7ca0b4c134b8ff9c81d53d9d7673d9b1eb74fcd3ff29534ae22af7bbb752960a993e5ae9de288935ecdf69df38c479b)#07juryt6",
            "hex": "4104d1eeb620813d50ab9d7d819450e75cedd7ca0b4c134b8ff9c81d53d9d7673d9b1eb74fcd3ff29534ae22af7bbb752960a993e5ae9de288935ecdf69df38c479bac",
            "type": "pubkey"
          }
        }
      ],
      "hex": "01000000010000000000000000000000000000000000000000000000000000000000000000ffffffff0704ffff001d015affffffff0100f2052a01000000434104d1eeb620813d50ab9d7d819450e75cedd7ca0b4c134b8ff9c81d53d9d7673d9b1eb74fcd3ff29534ae22af7bbb752960a993e5ae9de288935ecdf69df38c479bac00000000"
    }
  ]
}