{
  "hash": "00000000e0bb8c9569709a55dbb9e36ee754534ec28fd438fab74312d60533a9",
  "confirmations": 47302,
  "height": 5796,
  "version": 1,
  "versionHex": "00000001",
  "merkleroot": "263226be58e737acaa4fe3797d7ddf23aa3940b0220b9c6d662f6fd0d6302481",
  "time": 1235757451,
  "mediantime": 1235753616,
  "nonce": 197603152,
  "bits": "1d00ffff",
  "difficulty": 1,
  "chainwork": "000000000000000000000000000000000000000000000000000016a516a516a5",
  "nTx": 1,
  "previousblockhash": "00000000bcb00981ddc55628072c9e8e4420d6eb062df616f9b2c2dc1aa29c26",
  "nextblockhash": "0000000017599abe29157e86036b8a99bf38c80efd5b24aada62218b32e66670",
  "strippedsize": 216,
  "size": 216,
  "weight": 864,
  "tx": [
    {
      "txid": "263226be58e737acaa4fe3797d7ddf23aa3940b0220b9c6d662f6fd0d6302481",
      "hash": "263226be58e737acaa4fe3797d7ddf23aa3940b0220b9c6d662f6fd0d6302481",
      "version": 1,
      "size": 135,
      "vsize": 135,
      "weight": 540,
      "locktime": 0,
      "vin": [
        {
          "coinbase": "04ffff001d02c600",
          "sequence": 4294967295
        }
      ],
      "vout": [
        {
          "value": 50.0,
          "n": 0,
          "scriptPubKey": {
            "asm": "04546e5b58c11782a3e0db27c326b9215c1877d62c7e47a6ee81150d62f0c72d4082a6d6becd557e824b94521f549f86f95db7a68a7108cf25f82b3eb5d976f641 OP_CHECKSIG",
            "desc": "pk(04546e5b58c11782a3e0db27c326b9215c1877d62c7e47a6ee81150d62f0c72d4082a6d6becd557e824b94521f549f86f95db7a68a7108cf25f82b3eb5d976f641)#cnqvlyze",
            "hex": "4104546e5b58c11782a3e0db27c326b9215c1877d62c7e47a6ee81150d62f0c72d4082a6d6becd557e824b94521f549f86f95db7a68a7108cf25f82b3eb5d976f641ac",
            "type": "pubkey"
          }
        }
      ],
      "hex": "01000000010000000000000000000000000000000000000000000000000000000000000000ffffffff0804ffff001d02c600ffffffff0100f2052a01000000434104546e5b58c11782a3e0db27c326b9215c1877d62c7e47a6ee81150d62f0c72d4082a6d6becd557e824b94521f549f86f95db7a68a7108cf25f82b3eb5d976f641ac00000000"
    }
  ]
}