{
  "hash": "000000007eb86c59d99cec735679e8b12d6ddd1fae49f0e19a6b18bdd2929916",
  "confirmations": 43134,
  "height": 9964,
  "version": 1,
  "versionHex": "00000001",
  "merkleroot": "772b5b99915a1ffdbca000e7efdf182498c370e5ca7e0a185a06682292ae3258",
  "time": 1238966173,
  "mediantime": 1238962186,
  "nonce": 1168310293,
  "bits": "1d00ffff",
  "difficulty": 1,
  "chainwork": "000000000000000000000000000000000000000000000000000026ed26ed26ed",
  "nTx": 1,
  "previousblockhash": "000000008be5e6accefdb72a72d470f4e52c32cb3a4728f6b4da46d34bcaaa93",
  "nextblockhash": "0000000010ba65d0044209335b49136db602c977f675444752d29cb0e05cac1d",
  "strippedsize": 216,
  "size": 216,
  "weight": 864,
  "tx": [
    {
      "txid": "772b5b99915a1ffdbca000e7efdf182498c370e5ca7e0a185a06682292ae3258",
      "hash": "772b5b99915a1ffdbca000e7efdf182498c370e5ca7e0a185a06682292ae3258",
      "version": 1,
      "size": 135,
      "vsize": 135,
      "weight": 540,
      "locktime": 0,
      "vin": [
        {
          "coinbase": "04ffff001d02e602",
          "sequence": 4294967295
        }
      ],
      "vout": [
        {
          "value": 50.0,
          "n": 0,
          "scriptPubKey": {
            "asm": "046ce921a841f60c9b5efd36aa08bc5956e52dc743d60fae8b46856eeaae7dc8aa4d8c9aa546226cd1e8b641b3e08489f8373f35d5803da7198bfec1b3c32b9609 OP_CHECKSIG",
            "desc": "pk(046ce921a841f60c9b5efd36aa08bc5956e52dc743d60fae8b46856eeaae7dc8aa4d8c9aa546226cd1e8b641b3e08489f8373f35d5803da7198bfec1b3c32b9609)#qgh7dje6",
            "hex": "41046ce921a841f60c9b5efd36aa08bc5956e52dc743d60fae8b46856eeaae7dc8aa4d8c9aa546226cd1e8b641b3e08489f8373f35d5803da7198bfec1b3c32b9609ac",
            "type": "pubkey"
          }
        }
      ],
      "hex": "01000000010000000000000000000000000000000000000000000000000000000000000000ffffffff0804ffff001d02e602ffffffff0100f2052a010000004341046ce921a841f60c9b5efd36aa08bc5956e52dc743d60fae8b46856eeaae7dc8aa4d8c9aa546226cd1e8b641b3e08489f8373f35d5803da7198bfec1b3c32b9609ac00000000"
    }
  ]
}