{
  "hash": "00000000a1042f523e813cb727f4a35553f2f7f8240a693a8b7ba078b3a40164",
  "confirmations": 43494,
  "height": 9604,
  "version": 1,
  "versionHex": "00000001",
  "merkleroot": "4bc9ed51082742af925f5e0b985d4aae58d7e46803132da7a770dd277372e3e1",
  "time": 1238704800,
  "mediantime": 1238700202,
  "nonce": 299818523,
  "bits": "1d00ffff",
  "difficulty": 1,
  "chainwork": "0000000000000000000000000000000000000000000000000000258525852585",
  "nTx": 1,
  "previousblockhash": "0000000013d5e7718cc000c9663ba96ee043f057bb36abb7850c083afd68506b",
  "nextblockhash": "0000000090b3ceebaf2a03e2ed6e3044e3a436361579e94dab1d711bb560fe23",
  "strippedsize": 216,
  "size": 216,
  "weight": 864,
  "tx": [
    {
      "txid": "4bc9ed51082742af925f5e0b985d4aae58d7e46803132da7a770dd277372e3e1",
      "hash": "4bc9ed51082742af925f5e0b985d4aae58d7e46803132da7a770dd277372e3e1",
      "version": 1,
      "size": 135,
      "vsize": 135,
      "weight": 540,
      "locktime": 0,
      "vin": [
        {
          "coinbase": "04ffff001d023107",
          "sequence": 4294967295
        }
      ],
      "vout": [
        {
          "value": 50.0,
          "n": 0,
          "scriptPubKey": {
            "asm": "0408c18e0614a4b46b7b374e77886645a3917c5b60b7e9bb838c08ea39728faccc912447af9abd702eae6c5d3a30c941c9e9cf9ae48be0f8c31eec0d52a75ee005 OP_CHECKSIG",
            "desc": "pk(0408c18e0614a4b46b7b374e77886645a3917c5b60b7e9bb838c08ea39728faccc912447af9abd702eae6c5d3a30c941c9e9cf9ae48be0f8c31eec0d52a75ee005)#wemm5rf0",
            "hex": "410408c18e0614a4b46b7b374e77886645a3917c5b60b7e9bb838c08ea39728faccc912447af9abd702eae6c5d3a30c941c9e9cf9ae48be0f8c31eec0d52a75ee005ac",
            "type": "pubkey"
          }
        }
      ],
      "hex": "01000000010000000000000000000000000000000000000000000000000000000000000000ffffffff0804ffff001d023107ffffffff0100f2052a0100000043410408c18e0614a4b46b7b374e77886645a3917c5b60b7e9bb838c08ea39728faccc912447af9abd702eae6c5d3a30c941c9e9cf9ae48be0f8c31eec0d52a75ee005ac00000000"
    }
  ]
}