{
  "hash": "0000000045a2fc575bc2bcfc864763f5906e2024702b840ddc63713b3db28178",
  "confirmations": 46267,
  "height": 6831,
  "version": 1,
  "versionHex": "00000001",
  "merkleroot": "3dc6fe8e4845c16db056142b4ad814e540421759f06d4c9b2f20f53ccdcd7e94",
  "time": 1236580536,
  "mediantime": 1236577521,
  "nonce": 3289732101,
  "bits": "1d00ffff",
  "difficulty": 1,
  "chainwork": "00000000000000000000000000000000000000000000000000001ab01ab01ab0",
  "nTx": 1,
  "previousblockhash": "000000000fb6035db81d019f7ffbc2e6fdc308a2c9c428e62b8d90fd7d3ac2c3",
  "nextblockhash": "000000005a0ad65fd0c1010d8158886f7a863569706caec527f126550c3b0c84",
  "strippedsize": 216,
  "size": 216,
  "weight": 864,
  "tx": [
    {
      "txid": "3dc6fe8e4845c16db056142b4ad814e540421759f06d4c9b2f20f53ccdcd7e94",
      "hash": "3dc6fe8e4845c16db056142b4ad814e540421759f06d4c9b2f20f53ccdcd7e94",
      "version": 1,
      "size": 135,
      "vsize": 135,
      "weight": 540,
      "locktime": 0,
      "vin": [
        {
          "coinbase": "04ffff001d026c09",
          "sequence": 4294967295
        }
      ],
      "vout": [
        {
          "value": 50.0,
          "n": 0,
          "scriptPubKey": {
            "asm": "0427e394815d30f8e92099b44877b90566f3f700a15b52bd87685280bb2632f3be1bbd127bf469fec98763352ac269a855bd4151c4ad82c6a3337c5f44f0f8a74e OP_CHECKSIG",
            "desc": "pk(0427e394815d30f8e92099b44877b90566f3f700a15b52bd87685280bb2632f3be1bbd127bf469fec98763352ac269a855bd4151c4ad82c6a3337c5f44f0f8a74e)#lzcw9fsl",
            "hex": "410427e394815d30f8e92099b44877b90566f3f700a15b52bd87685280bb2632f3be1bbd127bf469fec98763352ac269a855bd4151c4ad82c6a3337c5f44f0f8a74eac",
            "type": "pubkey"
          }
        }
      ],
      "hex": "01000000010000000000000000000000000000000000000000000000000000000000000000ffffffff0804ffff001d026c09ffffffff0100f2052a0100000043410427e394815d30f8e92099b44877b90566f3f700a15b52bd87685280bb2632f3be1bbd127bf469fec98763352ac269a855bd4151c4ad82c6a3337c5f44f0f8a74eac00000000"
    }
  ]
}