{
  "hash": "00000000a90c31d13d61094610003a0b344903d36edb41645edde01cb89c8278",
  "confirmations": 45203,
  "height": 7895,
  "version": 1,
  "versionHex": "00000001",
  "merkleroot": "2e337faa70932c44a014c8c9bd6e5333931ab90336ab70654393bbe8ac74aabe",
  "time": 1237387799,
  "mediantime": 1237383602,
  "nonce": 2860381477,
  "bits": "1d00ffff",
  "difficulty": 1,
  "chainwork": "00000000000000000000000000000000000000000000000000001ed81ed81ed8",
  "nTx": 1,
  "previousblockhash": "0000000087d980ceff702ede31f080889d76fea4c6a4d98cab6bebbd8a5a28b8",
  "nextblockhash": "00000000a8d779d2cfdb8dab67997b995c5ff426d117e6c54a06d785080e66a1",
  "strippedsize": 216,
  "size": 216,
  "weight": 864,
  "tx": [
    {
      "txid": "2e337faa70932c44a014c8c9bd6e5333931ab90336ab70654393bbe8ac74aabe",
      "hash": "2e337faa70932c44a014c8c9bd6e5333931ab90336ab70654393bbe8ac74aabe",
      "version": 1,
      "size": 135,
      "vsize": 135,
      "weight": 540,
      "locktime": 0,
      "vin": [
        {
          "coinbase": "04ffff001d026007",
          "sequence": 4294967295
        }
      ],
      "vout": [
        {
          "value": 50.0,
          "n": 0,
          "scriptPubKey": {
            "asm": "04aa7ff4a33b1a5814eeb2db12f247cac31b87e0e05bd4c56ab89a75a17656c62568e3ded80a4e9581b2739882a9b0845aeed9437a254570e77db19cd76140b2a2 OP_CHECKSIG",
            "desc": "pk(04aa7ff4a33b1a5814eeb2db12f247cac31b87e0e05bd4c56ab89a75a17656c62568e3ded80a4e9581b2739882a9b0845aeed9437a254570e77db19cd76140b2a2)#5wlnvdjs",
            "hex": "4104aa7ff4a33b1a5814eeb2db12f247cac31b87e0e05bd4c56ab89a75a17656c62568e3ded80a4e9581b2739882a9b0845aeed9437a254570e77db19cd76140b2a2ac",
            "type": "pubkey"
          }
        }
      ],
      "hex": "01000000010000000000000000000000000000000000000000000000000000000000000000ffffffff0804ffff001d026007ffffffff0100f2052a01000000434104aa7ff4a33b1a5814eeb2db12f247cac31b87e0e05bd4c56ab89a75a17656c62568e3ded80a4e9581b2739882a9b0845aeed9437a254570e77db19cd76140b2a2ac00000000"
    }
  ]
}