{
  "hash": "00000000c9ccddfd2f3e45036a8d04fcc3263a83b82b4a9fe134dc1d8c7ef295",
  "confirmations": 51297,
  "height": 1801,
  "version": 1,
  "versionHex": "00000001",
  "merkleroot": "675988d27196bcef77c383ba526905fa9dc7bdaf3b0c159dd48095de1be1b94c",
  "time": 1232899409,
  "mediantime": 1232896069,
  "nonce": 3503785005,
  "bits": "1d00ffff",
  "difficulty": 1,
  "chainwork": "0000000000000000000000000000000000000000000000000000070a070a070a",
  "nTx": 1,
  "previousblockhash": "00000000046d4e2de13c9a31dec05fafcae393ae7de773242abd4db47e9e747f",
  "nextblockhash": "00000000d238b9599d98265f4313d8d57662bb8f8c51a2c6dfe54fcb847194ea",
  "strippedsize": 216,
  "size": 216,
  "weight": 864,
  "tx": [
    {
      "txid": "675988d27196bcef77c383ba526905fa9dc7bdaf3b0c159dd48095de1be1b94c",
      "hash": "675988d27196bcef77c383ba526905fa9dc7bdaf3b0c159dd48095de1be1b94c",
      "version": 1,
      "size": 135,
      "vsize": 135,
      "weight": 540,
      "locktime": 0,
      "vin": [
        {
          "coinbase": "04ffff001d020004",
          "sequence": 4294967295
        }
      ],
      "vout": [
        {
          "value": 50.0,
          "n": 0,
          "scriptPubKey": {
            "asm": "04a1d076154ff52043947902bb2049d3de3cf62a91106492c050b39974efa1787810871f062764c7920fb0afceaf30dcda31c0b5451ccd9f1853e80aaad7ecace1 OP_CHECKSIG",
            "desc": "pk(04a1d076154ff52043947902bb2049d3de3cf62a91106492c050b39974efa1787810871f062764c7920fb0afceaf30dcda31c0b5451ccd9f1853e80aaad7ecace1)#e55j7akh",
            "hex": "4104a1d076154ff52043947902bb2049d3de3cf62a91106492c050b39974efa1787810871f062764c7920fb0afceaf30dcda31c0b5451ccd9f1853e80aaad7ecace1ac",
            "type": "pubkey"
          }
        }
      ],
      "hex": "01000000010000000000000000000000000000000000000000000000000000000000000000ffffffff0804ffff001d020004ffffffff0100f2052a01000000434104a1d076154ff52043947902bb2049d3de3cf62a91106492c050b39974efa1787810871f062764c7920fb0afceaf30dcda31c0b5451ccd9f1853e80aaad7ecace1ac00000000"
    }
  ]
}