{
  "hash": "00000000edfc7e98bd5a4a3adb7722e1dbd65ce0acd756ebb5fe28f5522f56b9",
  "confirmations": 50144,
  "height": 2954,
  "version": 1,
  "versionHex": "00000001",
  "merkleroot": "3d1def7dd8d140f031ece420a333ac58b7e4142dda38a0c3ea3b94cbc91f7494",
  "time": 1233729155,
  "mediantime": 1233724391,
  "nonce": 230226961,
  "bits": "1d00ffff",
  "difficulty": 1,
  "chainwork": "00000000000000000000000000000000000000000000000000000b8b0b8b0b8b",
  "nTx": 1,
  "previousblockhash": "00000000a98fac937fd0e2a74db339b25b3b0b948b99438c86b9d2a3a7b931da",
  "nextblockhash": "000000009eabf8d88547aa7101656e7517fb67461e73c148440b2c3d878bd02f",
  "strippedsize": 215,
  "size": 215,
  "weight": 860,
  "tx": [
    {
      "txid": "3d1def7dd8d140f031ece420a333ac58b7e4142dda38a0c3ea3b94cbc91f7494",
      "hash": "3d1def7dd8d140f031ece420a333ac58b7e4142dda38a0c3ea3b94cbc91f7494",
      "version": 1,
      "size": 134,
      "vsize": 134,
      "weight": 536,
      "locktime": 0,
      "vin": [
        {
          "coinbase": "04ffff001d016d",
          "sequence": 4294967295
        }
      ],
      "vout": [
        {
          "value": 50.0,
          "n": 0,
          "scriptPubKey": {
            "asm": "04b79b5b3652408d4f573bed2a9e56bde9e4831dd861ac4720347bf892f3bea42ed639a98a5ba8c1dbf83e4e6699cddf5bac1ce65040335bdf361834f36d3ec501 OP_CHECKSIG",
            "desc": "pk(04b79b5b3652408d4f573bed2a9e56bde9e4831dd861ac4720347bf892f3bea42ed639a98a5ba8c1dbf83e4e6699cddf5bac1ce65040335bdf361834f36d3ec501)#suknnrt0",
            "hex": "4104b79b5b3652408d4f573bed2a9e56bde9e4831dd861ac4720347bf892f3bea42ed639a98a5ba8c1dbf83e4e6699cddf5bac1ce65040335bdf361834f36d3ec501ac",
            "type": "pubkey"
          }
        }
      ],
      "hex": "01000000010000000000000000000000000000000000000000000000000000000000000000ffffffff0704ffff001d016dffffffff0100f2052a01000000434104b79b5b3652408d4f573bed2a9e56bde9e4831dd861ac4720347bf892f3bea42ed639a98a5ba8c1dbf83e4e6699cddf5bac1ce65040335bdf361834f36d3ec501ac00000000"
    }
  ]
}