{
  "hash": "000000009124fb96be321a11f2cc8550c8f8336fae21fa3589f59f4c4eff7a0f",
  "confirmations": 44034,
  "height": 9064,
  "version": 1,
  "versionHex": "00000001",
  "merkleroot": "c09bd846a82a52cdc3bfd548f11b7f61d4ecacfc695166dd039d17dd9a7f4c5e",
  "time": 1238305670,
  "mediantime": 1238301874,
  "nonce": 176140080,
  "bits": "1d00ffff",
  "difficulty": 1,
  "chainwork": "0000000000000000000000000000000000000000000000000000236923692369",
  "nTx": 1,
  "previousblockhash": "000000003b89eaf7515f9d5445a550e904aac936d8c8a1ef6d29805ab00fb25e",
  "nextblockhash": "00000000af232d6445a1f73540ffc5294805b202819f341f3947b24335285e4a",
  "strippedsize": 216,
  "size": 216,
  "weight": 864,
  "tx": [
    {
      "txid": "c09bd846a82a52cdc3bfd548f11b7f61d4ecacfc695166dd039d17dd9a7f4c5e",
      "hash": "c09bd846a82a52cdc3bfd548f11b7f61d4ecacfc695166dd039d17dd9a7f4c5e",
      "version": 1,
      "size": 135,
      "vsize": 135,
      "weight": 540,
      "locktime": 0,
      "vin": [
        {
          "coinbase": "04ffff001d029307",
          "sequence": 4294967295
        }
      ],
      "vout": [
        {
          "value": 50.0,
          "n": 0,
          "scriptPubKey": {
            "asm": "0419fa7ea16b1e08960346c547eb7c3301064a3573abb214c014f84dd2d6a3fcdd7ecb2ad776c5d5eed2fad253794a324744c85707c7764464d33faaf5e91f9f64 OP_CHECKSIG",
            "desc": "pk(0419fa7ea16b1e08960346c547eb7c3301064a3573abb214c014f84dd2d6a3fcdd7ecb2ad776c5d5eed2fad253794a324744c85707c7764464d33faaf5e91f9f64)#kt8smrqt",
            "hex": "410419fa7ea16b1e08960346c547eb7c3301064a3573abb214c014f84dd2d6a3fcdd7ecb2ad776c5d5eed2fad253794a324744c85707c7764464d33faaf5e91f9f64ac",
            "type": "pubkey"
          }
        }
      ],
      "hex": "01000000010000000000000000000000000000000000000000000000000000000000000000ffffffff0804ffff001d029307ffffffff0100f2052a0100000043410419fa7ea16b1e08960346c547eb7c3301064a3573abb214c014f84dd2d6a3fcdd7ecb2ad776c5d5eed2fad253794a324744c85707c7764464d33faaf5e91f9f64ac00000000"
    }
  ]
}