{
  "hash": "000000006fa261e29cc80504fac0e4da88f7c3ae63880659d0098aec3f0d3780",
  "confirmations": 47581,
  "height": 5517,
  "version": 1,
  "versionHex": "00000001",
  "merkleroot": "9492025c2a0e5d1060a962061f8499d64764688994b4a45e0ef58477559896ae",
  "time": 1235534915,
  "mediantime": 1235531059,
  "nonce": 80193221,
  "bits": "1d00ffff",
  "difficulty": 1,
  "chainwork": "0000000000000000000000000000000000000000000000000000158e158e158e",
  "nTx": 1,
  "previousblockhash": "000000000edc7289e1ea1e8a20b1a5acfec2d6000aaa9bb7b77f38fc332194a0",
  "nextblockhash": "000000002c55068583ce918095a4af4de0a3be5c9195bf2ddae3be724ea77315",
  "strippedsize": 215,
  "size": 215,
  "weight": 860,
  "tx": [
    {
      "txid": "9492025c2a0e5d1060a962061f8499d64764688994b4a45e0ef58477559896ae",
      "hash": "9492025c2a0e5d1060a962061f8499d64764688994b4a45e0ef58477559896ae",
      "version": 1,
      "size": 134,
      "vsize": 134,
      "weight": 536,
      "locktime": 0,
      "vin": [
        {
          "coinbase": "04ffff001d0117",
          "sequence": 4294967295
        }
      ],
      "vout": [
        {
          "value": 50.0,
          "n": 0,
          "scriptPubKey": {
            "asm": "04ff715a616055c584f00251e740b57ed1162e421e15c83c9041bc27efb6c6f3360bb8a457481682b6a7b00471c5fbd5f364f4bcf1d654fc1f1e3677d27fb6657e OP_CHECKSIG",
            "desc": "pk(04ff715a616055c584f00251e740b57ed1162e421e15c83c9041bc27efb6c6f3360bb8a457481682b6a7b00471c5fbd5f364f4bcf1d654fc1f1e3677d27fb6657e)#9dqzyk0f",
            "hex": "4104ff715a616055c584f00251e740b57ed1162e421e15c83c9041bc27efb6c6f3360bb8a457481682b6a7b00471c5fbd5f364f4bcf1d654fc1f1e3677d27fb6657eac",
            "type": "pubkey"
          }
        }
      ],
      "hex": "01000000010000000000000000000000000000000000000000000000000000000000000000ffffffff0704ffff001d0117ffffffff0100f2052a01000000434104ff715a616055c584f00251e740b57ed1162e421e15c83c9041bc27efb6c6f3360bb8a457481682b6a7b00471c5fbd5f364f4bcf1d654fc1f1e3677d27fb6657eac00000000"
    }
  ]
}