{
  "hash": "000000007d0185eba9d8d4e3f5d396b6cc793871b16e31f5490f59fa8f7cdf08",
  "confirmations": 46562,
  "height": 6536,
  "version": 1,
  "versionHex": "00000001",
  "merkleroot": "6dfbe13bd6d5fdc051550704c86d3092ab011dd97f415620abcbc7f472e1acaa",
  "time": 1236355856,
  "mediantime": 1236351303,
  "nonce": 2109780256,
  "bits": "1d00ffff",
  "difficulty": 1,
  "chainwork": "0000000000000000000000000000000000000000000000000000198919891989",
  "nTx": 1,
  "previousblockhash": "000000002f630be6eb6913a67ad6bccb21daf7e1d4e3697b58ff32564246dc5d",
  "nextblockhash": "00000000be977b98fa3affe971e3f4bab32449c93077a14752d3579410aba581",
  "strippedsize": 216,
  "size": 216,
  "weight": 864,
  "tx": [
    {
      "txid": "6dfbe13bd6d5fdc051550704c86d3092ab011dd97f415620abcbc7f472e1acaa",
      "hash": "6dfbe13bd6d5fdc051550704c86d3092ab011dd97f415620abcbc7f472e1acaa",
      "version": 1,
      "size": 135,
      "vsize": 135,
      "weight": 540,
      "locktime": 0,
      "vin": [
        {
          "coinbase": "04ffff001d022e04",
          "sequence": 4294967295
        }
      ],
      "vout": [
        {
          "value": 50.0,
          "n": 0,
          "scriptPubKey": {
            "asm": "049dba97640c4259f5bcf23d9fdfea460180a79ce568c7379909dcff8e001ec59bb2ae2b01495c44748be05e4ec8e994d35376d4b1df1080ccb86e8254e5e7c88d OP_CHECKSIG",
            "desc": "pk(049dba97640c4259f5bcf23d9fdfea460180a79ce568c7379909dcff8e001ec59bb2ae2b01495c44748be05e4ec8e994d35376d4b1df1080ccb86e8254e5e7c88d)#lmsmllmv",
            "hex": "41049dba97640c4259f5bcf23d9fdfea460180a79ce568c7379909dcff8e001ec59bb2ae2b01495c44748be05e4ec8e994d35376d4b1df1080ccb86e8254e5e7c88dac",
            "type": "pubkey"
          }
        }
      ],
      "hex": "01000000010000000000000000000000000000000000000000000000000000000000000000ffffffff0804ffff001d022e04ffffffff0100f2052a010000004341049dba97640c4259f5bcf23d9fdfea460180a79ce568c7379909dcff8e001ec59bb2ae2b01495c44748be05e4ec8e994d35376d4b1df1080ccb86e8254e5e7c88dac00000000"
    }
  ]
}