{
  "hash": "00000000d7ddd69dd39ee2adcec570054fbfdf5c7ae222d5b9778e176308962c",
  "confirmations": 50931,
  "height": 2167,
  "version": 1,
  "versionHex": "00000001",
  "merkleroot": "9c92d678d8d09562f516d799dad97957cf3ccdf0ad434043fc5f1383557859d0",
  "time": 1233187130,
  "mediantime": 1233183087,
  "nonce": 3929953847,
  "bits": "1d00ffff",
  "difficulty": 1,
  "chainwork": "0000000000000000000000000000000000000000000000000000087808780878",
  "nTx": 1,
  "previousblockhash": "0000000068c27222034055d5bd2d4e3611442c3bc237fa1663bb76c46c1ac4ba",
  "nextblockhash": "00000000543ef2a2077d9b423251b1293fa4ed573a7c38a3553ffc7917e2013e",
  "strippedsize": 216,
  "size": 216,
  "weight": 864,
  "tx": [
    {
      "txid": "9c92d678d8d09562f516d799dad97957cf3ccdf0ad434043fc5f1383557859d0",
      "hash": "9c92d678d8d09562f516d799dad97957cf3ccdf0ad434043fc5f1383557859d0",
      "version": 1,
      "size": 135,
      "vsize": 135,
      "weight": 540,
      "locktime": 0,
      "vin": [
        {
          "coinbase": "04ffff001d02c900",
          "sequence": 4294967295
        }
      ],
      "vout": [
        {
          "value": 50.0,
          "n": 0,
          "scriptPubKey": {
            "asm": "04cedf74be265a086e5d2dd25de1b278ee56f06c33fe5fa9efc253b0d90588159cd3c8d14658afa3d82e05bd120905f03b761f51569ab957614dc6942922924aea OP_CHECKSIG",
            "desc": "pk(04cedf74be265a086e5d2dd25de1b278ee56f06c33fe5fa9efc253b0d90588159cd3c8d14658afa3d82e05bd120905f03b761f51569ab957614dc6942922924aea)#fhldr6ku",
            "hex": "4104cedf74be265a086e5d2dd25de1b278ee56f06c33fe5fa9efc253b0d90588159cd3c8d14658afa3d82e05bd120905f03b761f51569ab957614dc6942922924aeaac",
            "type": "pubkey"
          }
        }
      ],
      "hex": "01000000010000000000000000000000000000000000000000000000000000000000000000ffffffff0804ffff001d02c900ffffffff0100f2052a01000000434104cedf74be265a086e5d2dd25de1b278ee56f06c33fe5fa9efc253b0d90588159cd3c8d14658afa3d82e05bd120905f03b761f51569ab957614dc6942922924aeaac00000000"
    }
  ]
}