{
  "hash": "00000000c8e6d6e1e61e22c780e255ffb21b420fc82f6b4d10a16bcd7710fc89",
  "confirmations": 52303,
  "height": 795,
  "version": 1,
  "versionHex": "00000001",
  "merkleroot": "e5d263abd86ec2c2100c1857d69e504657385bd7ca192921d8134af2bedf58af",
  "time": 1232188579,
  "mediantime": 1232182083,
  "nonce": 253631253,
  "bits": "1d00ffff",
  "difficulty": 1,
  "chainwork": "0000000000000000000000000000000000000000000000000000031c031c031c",
  "nTx": 1,
  "previousblockhash": "000000006470ca6145469a3b54dba5c1a03c54f330e036061571d580b7023ee2",
  "nextblockhash": "00000000b5c41fc778883bb00fe535d3510d8c01209e1201151d819795740b0e",
  "strippedsize": 216,
  "size": 216,
  "weight": 864,
  "tx": [
    {
      "txid": "e5d263abd86ec2c2100c1857d69e504657385bd7ca192921d8134af2bedf58af",
      "hash": "e5d263abd86ec2c2100c1857d69e504657385bd7ca192921d8134af2bedf58af",
      "version": 1,
      "size": 135,
      "vsize": 135,
      "weight": 540,
      "locktime": 0,
      "vin": [
        {
          "coinbase": "04ffff001d026801",
          "sequence": 4294967295
        }
      ],
      "vout": [
        {
          "value": 50.0,
          "n": 0,
          "scriptPubKey": {
            "asm": "04e8409b84404fddbf24a3f1a49f6950d38cbb326426268893ad5314bc7dba9c90f40fe7470c69a461824f4d4fcbe521d7e628709f7dcfd6815aa3d48dd1995b63 OP_CHECKSIG",
            "desc": "pk(04e8409b84404fddbf24a3f1a49f6950d38cbb326426268893ad5314bc7dba9c90f40fe7470c69a461824f4d4fcbe521d7e628709f7dcfd6815aa3d48dd1995b63)#nm0dgz5s",
            "hex": "4104e8409b84404fddbf24a3f1a49f6950d38cbb326426268893ad5314bc7dba9c90f40fe7470c69a461824f4d4fcbe521d7e628709f7dcfd6815aa3d48dd1995b63ac",
            "type": "pubkey"
          }
        }
      ],
      "hex": "01000000010000000000000000000000000000000000000000000000000000000000000000ffffffff0804ffff001d026801ffffffff0100f2052a01000000434104e8409b84404fddbf24a3f1a49f6950d38cbb326426268893ad5314bc7dba9c90f40fe7470c69a461824f4d4fcbe521d7e628709f7dcfd6815aa3d48dd1995b63ac00000000"
    }
  ]
}