{
  "hash": "00000000b669d0b14d368ad802dafa51d94ce86a30cbe1e1c9a58a412ce478c9",
  "confirmations": 47525,
  "height": 5573,
  "version": 1,
  "versionHex": "00000001",
  "merkleroot": "4066a8bd94932c2f2e1033718c36bbc0c289b9d3ebc70d71ffda728654886574",
  "time": 1235580436,
  "mediantime": 1235576718,
  "nonce": 1165599010,
  "bits": "1d00ffff",
  "difficulty": 1,
  "chainwork": "000000000000000000000000000000000000000000000000000015c615c615c6",
  "nTx": 1,
  "previousblockhash": "000000005d33fab13686ef8117ed7302cf56310c2246455e4c704d2b4ba111bf",
  "nextblockhash": "000000000f66c52ee306c5bb6fa99bddfc40eca4f00ac7f9a9018712c1fb3247",
  "strippedsize": 216,
  "size": 216,
  "weight": 864,
  "tx": [
    {
      "txid": "4066a8bd94932c2f2e1033718c36bbc0c289b9d3ebc70d71ffda728654886574",
      "hash": "4066a8bd94932c2f2e1033718c36bbc0c289b9d3ebc70d71ffda728654886574",
      "version": 1,
      "size": 135,
      "vsize": 135,
      "weight": 540,
      "locktime": 0,
      "vin": [
        {
          "coinbase": "04ffff001d022b07",
          "sequence": 4294967295
        }
      ],
      "vout": [
        {
          "value": 50.0,
          "n": 0,
          "scriptPubKey": {
            "asm": "04f98eff89f3116e6433b3324227490dafd6d2342d5016691f0c4fbc0f9a76fc6719aa6c45a9f175beb9a30951684ac1bed9fae012b049c4ced5dc17c8ad30496f OP_CHECKSIG",
            "desc": "pk(04f98eff89f3116e6433b3324227490dafd6d2342d5016691f0c4fbc0f9a76fc6719aa6c45a9f175beb9a30951684ac1bed9fae012b049c4ced5dc17c8ad30496f)#478mtksx",
            "hex": "4104f98eff89f3116e6433b3324227490dafd6d2342d5016691f0c4fbc0f9a76fc6719aa6c45a9f175beb9a30951684ac1bed9fae012b049c4ced5dc17c8ad30496fac",
            "type": "pubkey"
          }
        }
      ],
      "hex": "01000000010000000000000000000000000000000000000000000000000000000000000000ffffffff0804ffff001d022b07ffffffff0100f2052a01000000434104f98eff89f3116e6433b3324227490dafd6d2342d5016691f0c4fbc0f9a76fc6719aa6c45a9f175beb9a30951684ac1bed9fae012b049c4ced5dc17c8ad30496fac00000000"
    }
  ]
}