{
  "hash": "00000000b9ce11097e53e17a5ba46f8b46d086e1b1df167c8ebfc4df79348a70",
  "confirmations": 43595,
  "height": 9503,
  "version": 1,
  "versionHex": "00000001",
  "merkleroot": "8ede434963c69371e71ee24769fa478383fe1bad8ee6fe3eebcf7eb243f19ddf",
  "time": 1238630379,
  "mediantime": 1238627089,
  "nonce": 837590068,
  "bits": "1d00ffff",
  "difficulty": 1,
  "chainwork": "0000000000000000000000000000000000000000000000000000252025202520",
  "nTx": 1,
  "previousblockhash": "000000004b8c683b747f0a827be10e572eaaf511022bf1b32a0d9819b1b16192",
  "nextblockhash": "00000000ded0a3a301999ea452d2618bcfc875556f3516fa01772b9ba3f47c9f",
  "strippedsize": 216,
  "size": 216,
  "weight": 864,
  "tx": [
    {
      "txid": "8ede434963c69371e71ee24769fa478383fe1bad8ee6fe3eebcf7eb243f19ddf",
      "hash": "8ede434963c69371e71ee24769fa478383fe1bad8ee6fe3eebcf7eb243f19ddf",
      "version": 1,
      "size": 135,
      "vsize": 135,
      "weight": 540,
      "locktime": 0,
      "vin": [
        {
          "coinbase": "04ffff001d027405",
          "sequence": 4294967295
        }
      ],
      "vout": [
        {
          "value": 50.0,
          "n": 0,
          "scriptPubKey": {
            "asm": "0499e8034a9d19ce94cf697c4d770d6b22b04d7a639b2e6dcff09e2af91c13b2f1db9c99943b43ff285ab589dc4522cf4c958859e68e35d1d01f890503151bd031 OP_CHECKSIG",
            "desc": "pk(0499e8034a9d19ce94cf697c4d770d6b22b04d7a639b2e6dcff09e2af91c13b2f1db9c99943b43ff285ab589dc4522cf4c958859e68e35d1d01f890503151bd031)#tu5npnlq",
            "hex": "410499e8034a9d19ce94cf697c4d770d6b22b04d7a639b2e6dcff09e2af91c13b2f1db9c99943b43ff285ab589dc4522cf4c958859e68e35d1d01f890503151bd031ac",
            "type": "pubkey"
          }
        }
      ],
      "hex": "01000000010000000000000000000000000000000000000000000000000000000000000000ffffffff0804ffff001d027405ffffffff0100f2052a0100000043410499e8034a9d19ce94cf697c4d770d6b22b04d7a639b2e6dcff09e2af91c13b2f1db9c99943b43ff285ab589dc4522cf4c958859e68e35d1d01f890503151bd031ac00000000"
    }
  ]
}