{
  "hash": "00000000ebbb247235e07381bad04d008cf3cab6ac377f9607e09616261df944",
  "confirmations": 45104,
  "height": 7994,
  "version": 1,
  "versionHex": "00000001",
  "merkleroot": "378efbe37f9e551f51517431f24345f979fd6c24ec3af2c36d1f97f7754f21ea",
  "time": 1237459871,
  "mediantime": 1237454419,
  "nonce": 3220780290,
  "bits": "1d00ffff",
  "difficulty": 1,
  "chainwork": "00000000000000000000000000000000000000000000000000001f3b1f3b1f3b",
  "nTx": 1,
  "previousblockhash": "000000005a4e3d0a0d7c4374759f6fd17e95f99bcd6d16d43d3c0358ddd04816",
  "nextblockhash": "000000002a8ab9346f438588ff09c25a4b12e632cbae4ad54164ba5ea121cbe5",
  "strippedsize": 216,
  "size": 216,
  "weight": 864,
  "tx": [
    {
      "txid": "378efbe37f9e551f51517431f24345f979fd6c24ec3af2c36d1f97f7754f21ea",
      "hash": "378efbe37f9e551f51517431f24345f979fd6c24ec3af2c36d1f97f7754f21ea",
      "version": 1,
      "size": 135,
      "vsize": 135,
      "weight": 540,
      "locktime": 0,
      "vin": [
        {
          "coinbase": "04ffff001d026509",
          "sequence": 4294967295
        }
      ],
      "vout": [
        {
          "value": 50.0,
          "n": 0,
          "scriptPubKey": {
            "asm": "042450ea3d17e4f1c8020dbc095639cea1924ee2861d25bcb779eee66bc7e18cdbc726c72becfcd140373fcdfea8ed84a0f0a637ca1006640bfc7d945f58d1ae05 OP_CHECKSIG",
            "desc": "pk(042450ea3d17e4f1c8020dbc095639cea1924ee2861d25bcb779eee66bc7e18cdbc726c72becfcd140373fcdfea8ed84a0f0a637ca1006640bfc7d945f58d1ae05)#t9c2wwan",
            "hex": "41042450ea3d17e4f1c8020dbc095639cea1924ee2861d25bcb779eee66bc7e18cdbc726c72becfcd140373fcdfea8ed84a0f0a637ca1006640bfc7d945f58d1ae05ac",
            "type": "pubkey"
          }
        }
      ],
      "hex": "01000000010000000000000000000000000000000000000000000000000000000000000000ffffffff0804ffff001d026509ffffffff0100f2052a010000004341042450ea3d17e4f1c8020dbc095639cea1924ee2861d25bcb779eee66bc7e18cdbc726c72becfcd140373fcdfea8ed84a0f0a637ca1006640bfc7d945f58d1ae05ac00000000"
    }
  ]
}