{
  "hash": "000000009d2fd5533a9775da3723e39226b9658e7f373e41aef7755530ac3f57",
  "confirmations": 47961,
  "height": 5137,
  "version": 1,
  "versionHex": "00000001",
  "merkleroot": "c66d9b4da70c02ea9c48a0690d67a649d838d1d2a3b888e2316a2c3ba8c3ad06",
  "time": 1235242369,
  "mediantime": 1235237884,
  "nonce": 1168911137,
  "bits": "1d00ffff",
  "difficulty": 1,
  "chainwork": "0000000000000000000000000000000000000000000000000000141214121412",
  "nTx": 1,
  "previousblockhash": "00000000ec450b5fcda1012a7f550b95942a3286b6e417b18bdd90e6e36bf79c",
  "nextblockhash": "000000005ed1735c348257670a302cde2d55b5bdeed2ebdc25626f238c736da3",
  "strippedsize": 216,
  "size": 216,
  "weight": 864,
  "tx": [
    {
      "txid": "c66d9b4da70c02ea9c48a0690d67a649d838d1d2a3b888e2316a2c3ba8c3ad06",
      "hash": "c66d9b4da70c02ea9c48a0690d67a649d838d1d2a3b888e2316a2c3ba8c3ad06",
      "version": 1,
      "size": 135,
      "vsize": 135,
      "weight": 540,
      "locktime": 0,
      "vin": [
        {
          "coinbase": "04ffff001d02b109",
          "sequence": 4294967295
        }
      ],
      "vout": [
        {
          "value": 50.0,
          "n": 0,
          "scriptPubKey": {
            "asm": "04c9801823b83e33fbdd538dc8996c64a9358e1fe590af7c9c5feb894b0519c9c6d494ed0735a46293319fa78ab94e92e142cd6ac03cf99f6b7f267f547c82e489 OP_CHECKSIG",
            "desc": "pk(04c9801823b83e33fbdd538dc8996c64a9358e1fe590af7c9c5feb894b0519c9c6d494ed0735a46293319fa78ab94e92e142cd6ac03cf99f6b7f267f547c82e489)#zcmhlwqn",
            "hex": "4104c9801823b83e33fbdd538dc8996c64a9358e1fe590af7c9c5feb894b0519c9c6d494ed0735a46293319fa78ab94e92e142cd6ac03cf99f6b7f267f547c82e489ac",
            "type": "pubkey"
          }
        }
      ],
      "hex": "01000000010000000000000000000000000000000000000000000000000000000000000000ffffffff0804ffff001d02b109ffffffff0100f2052a01000000434104c9801823b83e33fbdd538dc8996c64a9358e1fe590af7c9c5feb894b0519c9c6d494ed0735a46293319fa78ab94e92e142cd6ac03cf99f6b7f267f547c82e489ac00000000"
    }
  ]
}