{
  "hash": "00000000f813a8083b5736a6a509ab49dba5d3bdb08da5650522d7817845b168",
  "confirmations": 44563,
  "height": 8535,
  "version": 1,
  "versionHex": "00000001",
  "merkleroot": "692693edf504454067dac3af40517cea6bcff4d499b416d24094d706a1dd2d6e",
  "time": 1237899041,
  "mediantime": 1237896909,
  "nonce": 1759911168,
  "bits": "1d00ffff",
  "difficulty": 1,
  "chainwork": "0000000000000000000000000000000000000000000000000000215821582158",
  "nTx": 1,
  "previousblockhash": "00000000be893e7b26be5ad696a8a3a13772e0362530dc7c7149ffd13348bbdf",
  "nextblockhash": "000000003bae4b1b6ddd3fb07ce2d562feaa4893b8087e10b6a40cb04fafb65d",
  "strippedsize": 216,
  "size": 216,
  "weight": 864,
  "tx": [
    {
      "txid": "692693edf504454067dac3af40517cea6bcff4d499b416d24094d706a1dd2d6e",
      "hash": "692693edf504454067dac3af40517cea6bcff4d499b416d24094d706a1dd2d6e",
      "version": 1,
      "size": 135,
      "vsize": 135,
      "weight": 540,
      "locktime": 0,
      "vin": [
        {
          "coinbase": "04ffff001d025808",
          "sequence": 4294967295
        }
      ],
      "vout": [
        {
          "value": 50.0,
          "n": 0,
          "scriptPubKey": {
            "asm": "042868349f8365a6d3d7a7a186e621a662e81af6694ef23f1e5080f037012959c9e24d731a0fcbf2dfb90e9776da3f3172b9eeca034870df875ea6c74778880df0 OP_CHECKSIG",
            "desc": "pk(042868349f8365a6d3d7a7a186e621a662e81af6694ef23f1e5080f037012959c9e24d731a0fcbf2dfb90e9776da3f3172b9eeca034870df875ea6c74778880df0)#jfh8jkcj",
            "hex": "41042868349f8365a6d3d7a7a186e621a662e81af6694ef23f1e5080f037012959c9e24d731a0fcbf2dfb90e9776da3f3172b9eeca034870df875ea6c74778880df0ac",
            "type": "pubkey"
          }
        }
      ],
      "hex": "01000000010000000000000000000000000000000000000000000000000000000000000000ffffffff0804ffff001d025808ffffffff0100f2052a010000004341042868349f8365a6d3d7a7a186e621a662e81af6694ef23f1e5080f037012959c9e24d731a0fcbf2dfb90e9776da3f3172b9eeca034870df875ea6c74778880df0ac00000000"
    }
  ]
}