{
  "hash": "000000008d1094720ae4f22693d7b4226f581ca03a2295dde57bc242a264fe4b",
  "confirmations": 51308,
  "height": 1790,
  "version": 1,
  "versionHex": "00000001",
  "merkleroot": "5b0b43891fd3e399369a76518db3e8805450e4a23205dde94fab42107714f77e",
  "time": 1232892878,
  "mediantime": 1232890344,
  "nonce": 1839652889,
  "bits": "1d00ffff",
  "difficulty": 1,
  "chainwork": "000000000000000000000000000000000000000000000000000006ff06ff06ff",
  "nTx": 1,
  "previousblockhash": "0000000009b35360c2046d14e4d5972fc1c41bc2c67f963bbb3497623c15f651",
  "nextblockhash": "000000000d3fbaa25f0227c92f29637a5ae5c86d3b580b4501c36ac81341f375",
  "strippedsize": 216,
  "size": 216,
  "weight": 864,
  "tx": [
    {
      "txid": "5b0b43891fd3e399369a76518db3e8805450e4a23205dde94fab42107714f77e",
      "hash": "5b0b43891fd3e399369a76518db3e8805450e4a23205dde94fab42107714f77e",
      "version": 1,
      "size": 135,
      "vsize": 135,
      "weight": 540,
      "locktime": 0,
      "vin": [
        {
          "coinbase": "04ffff001d02d803",
          "sequence": 4294967295
        }
      ],
      "vout": [
        {
          "value": 50.0,
          "n": 0,
          "scriptPubKey": {
            "asm": "04e442a02009f8c4872c2124bf5bb85d73c0db012d7164f2178ceab6be2cea739a2576548d1c59ce227231df06593e56908eb1097b1b5e6dbdee86eb84cef2b0e2 OP_CHECKSIG",
            "desc": "pk(04e442a02009f8c4872c2124bf5bb85d73c0db012d7164f2178ceab6be2cea739a2576548d1c59ce227231df06593e56908eb1097b1b5e6dbdee86eb84cef2b0e2)#z256rud6",
            "hex": "4104e442a02009f8c4872c2124bf5bb85d73c0db012d7164f2178ceab6be2cea739a2576548d1c59ce227231df06593e56908eb1097b1b5e6dbdee86eb84cef2b0e2ac",
            "type": "pubkey"
          }
        }
      ],
      "hex": "01000000010000000000000000000000000000000000000000000000000000000000000000ffffffff0804ffff001d02d803ffffffff0100f2052a01000000434104e442a02009f8c4872c2124bf5bb85d73c0db012d7164f2178ceab6be2cea739a2576548d1c59ce227231df06593e56908eb1097b1b5e6dbdee86eb84cef2b0e2ac00000000"
    }
  ]
}