{
  "hash": "00000000446f4aca4f8a35100496a83d97502b35129ed1301cafe7943d2dfec1",
  "confirmations": 51352,
  "height": 1746,
  "version": 1,
  "versionHex": "00000001",
  "merkleroot": "17b9dc938bcf242bd27880e4dc40e8eeabf0f09a4a38090f302fd5d3c56789f7",
  "time": 1232872780,
  "mediantime": 1232870333,
  "nonce": 867459080,
  "bits": "1d00ffff",
  "difficulty": 1,
  "chainwork": "000000000000000000000000000000000000000000000000000006d306d306d3",
  "nTx": 1,
  "previousblockhash": "00000000047d04b3f745bdb8aae8f84313a611c3a68d0d23a6c2326fcc0dafd3",
  "nextblockhash": "0000000059976df5b284b60f9aeb7bf97cc76b2647a47bced51168848c0f113b",
  "strippedsize": 216,
  "size": 216,
  "weight": 864,
  "tx": [
    {
      "txid": "17b9dc938bcf242bd27880e4dc40e8eeabf0f09a4a38090f302fd5d3c56789f7",
      "hash": "17b9dc938bcf242bd27880e4dc40e8eeabf0f09a4a38090f302fd5d3c56789f7",
      "version": 1,
      "size": 135,
      "vsize": 135,
      "weight": 540,
      "locktime": 0,
      "vin": [
        {
          "coinbase": "04ffff001d028803",
          "sequence": 4294967295
        }
      ],
      "vout": [
        {
          "value": 50.0,
          "n": 0,
          "scriptPubKey": {
            "asm": "044ffbfc28642bb8b3d0787074539982810b350d1c0cc616a20318bd89ab6502b6736650fd10ddbc4e0f98f40ac8758d07b3f68ed9ac0327acf3cafe65d2ae30f0 OP_CHECKSIG",
            "desc": "pk(044ffbfc28642bb8b3d0787074539982810b350d1c0cc616a20318bd89ab6502b6736650fd10ddbc4e0f98f40ac8758d07b3f68ed9ac0327acf3cafe65d2ae30f0)#qucxexld",
            "hex": "41044ffbfc28642bb8b3d0787074539982810b350d1c0cc616a20318bd89ab6502b6736650fd10ddbc4e0f98f40ac8758d07b3f68ed9ac0327acf3cafe65d2ae30f0ac",
            "type": "pubkey"
          }
        }
      ],
      "hex": "01000000010000000000000000000000000000000000000000000000000000000000000000ffffffff0804ffff001d028803ffffffff0100f2052a010000004341044ffbfc28642bb8b3d0787074539982810b350d1c0cc616a20318bd89ab6502b6736650fd10ddbc4e0f98f40ac8758d07b3f68ed9ac0327acf3cafe65d2ae30f0ac00000000"
    }
  ]
}