{
  "hash": "000000004e8bcc37893d2785c1929dd69cb7a03b2daded0ad0576385e1ce9705",
  "confirmations": 47688,
  "height": 5410,
  "version": 1,
  "versionHex": "00000001",
  "merkleroot": "c71c494c7ab9fb228d3b28a7ec6688c4364029f0137a3842164b731b47aba40d",
  "time": 1235447475,
  "mediantime": 1235443934,
  "nonce": 454254848,
  "bits": "1d00ffff",
  "difficulty": 1,
  "chainwork": "0000000000000000000000000000000000000000000000000000152315231523",
  "nTx": 1,
  "previousblockhash": "0000000064b2fede9902af1a7c5de4bd5fcbc15e766bef1792e3c3a63eff0624",
  "nextblockhash": "0000000084a35f342311098378bfa518f6d08533b855aea88a18fbbb8bf61033",
  "strippedsize": 216,
  "size": 216,
  "weight": 864,
  "tx": [
    {
      "txid": "c71c494c7ab9fb228d3b28a7ec6688c4364029f0137a3842164b731b47aba40d",
      "hash": "c71c494c7ab9fb228d3b28a7ec6688c4364029f0137a3842164b731b47aba40d",
      "version": 1,
      "size": 135,
      "vsize": 135,
      "weight": 540,
      "locktime": 0,
      "vin": [
        {
          "coinbase": "04ffff001d02c803",
          "sequence": 4294967295
        }
      ],
      "vout": [
        {
          "value": 50.0,
          "n": 0,
          "scriptPubKey": {
            "asm": "04fd0edaad50c8452865249faaf02335bf61cc2221a7dcbc5e7c0f8be86991bbcbca468c0ad3af5685a511e59b22f4bca426c93e90d650ee8537f2292d7c19bd31 OP_CHECKSIG",
            "desc": "pk(04fd0edaad50c8452865249faaf02335bf61cc2221a7dcbc5e7c0f8be86991bbcbca468c0ad3af5685a511e59b22f4bca426c93e90d650ee8537f2292d7c19bd31)#dz5wffwg",
            "hex": "4104fd0edaad50c8452865249faaf02335bf61cc2221a7dcbc5e7c0f8be86991bbcbca468c0ad3af5685a511e59b22f4bca426c93e90d650ee8537f2292d7c19bd31ac",
            "type": "pubkey"
          }
        }
      ],
      "hex": "01000000010000000000000000000000000000000000000000000000000000000000000000ffffffff0804ffff001d02c803ffffffff0100f2052a01000000434104fd0edaad50c8452865249faaf02335bf61cc2221a7dcbc5e7c0f8be86991bbcbca468c0ad3af5685a511e59b22f4bca426c93e90d650ee8537f2292d7c19bd31ac00000000"
    }
  ]
}