{
  "hash": "000000001a878278a10b68554eedb02f49aa249c75453f2f339c417365fdc8b9",
  "confirmations": 46080,
  "height": 7018,
  "version": 1,
  "versionHex": "00000001",
  "merkleroot": "a49d28345b1730a674c6f3796a57e337138de587395de7406e5bf681e06c3226",
  "time": 1236732190,
  "mediantime": 1236728669,
  "nonce": 2269611571,
  "bits": "1d00ffff",
  "difficulty": 1,
  "chainwork": "00000000000000000000000000000000000000000000000000001b6b1b6b1b6b",
  "nTx": 1,
  "previousblockhash": "000000008432d271e10da213c08719ee38207b54c24dcdced3f1dbee2f773dd0",
  "nextblockhash": "0000000014cada73a7c2576a7a394c885b2f9f2d2a2b86bccfb431141d1f32cc",
  "strippedsize": 216,
  "size": 216,
  "weight": 864,
  "tx": [
    {
      "txid": "a49d28345b1730a674c6f3796a57e337138de587395de7406e5bf681e06c3226",
      "hash": "a49d28345b1730a674c6f3796a57e337138de587395de7406e5bf681e06c3226",
      "version": 1,
      "size": 135,
      "vsize": 135,
      "weight": 540,
      "locktime": 0,
      "vin": [
        {
          "coinbase": "04ffff001d02aa02",
          "sequence": 4294967295
        }
      ],
      "vout": [
        {
          "value": 50.0,
          "n": 0,
          "scriptPubKey": {
            "asm": "04acefb9882b5a338bd2b0dd2d85d1271527eb4b1057a7012e30e73f28a51072be946da90b2f4358a67898e35654cc914caf06ec10bdd60be312df0afe9b1dd436 OP_CHECKSIG",
            "desc": "pk(04acefb9882b5a338bd2b0dd2d85d1271527eb4b1057a7012e30e73f28a51072be946da90b2f4358a67898e35654cc914caf06ec10bdd60be312df0afe9b1dd436)#54ufs722",
            "hex": "4104acefb9882b5a338bd2b0dd2d85d1271527eb4b1057a7012e30e73f28a51072be946da90b2f4358a67898e35654cc914caf06ec10bdd60be312df0afe9b1dd436ac",
            "type": "pubkey"
          }
        }
      ],
      "hex": "01000000010000000000000000000000000000000000000000000000000000000000000000ffffffff0804ffff001d02aa02ffffffff0100f2052a01000000434104acefb9882b5a338bd2b0dd2d85d1271527eb4b1057a7012e30e73f28a51072be946da90b2f4358a67898e35654cc914caf06ec10bdd60be312df0afe9b1dd436ac00000000"
    }
  ]
}