{
  "hash": "000000007682077f8453fc346491e6eba69684b2641012aadcd3f2c49b581d77",
  "confirmations": 45526,
  "height": 7572,
  "version": 1,
  "versionHex": "00000001",
  "merkleroot": "ad38157f30103a58b1c04c901a789efab6e36af4e0d84882ecd626d2048b6778",
  "time": 1237149632,
  "mediantime": 1237148238,
  "nonce": 3263343380,
  "bits": "1d00ffff",
  "difficulty": 1,
  "chainwork": "00000000000000000000000000000000000000000000000000001d951d951d95",
  "nTx": 1,
  "previousblockhash": "00000000c24b5993eb0426eb291351037788c32543276f2a8c22c370d4a87bb9",
  "nextblockhash": "000000002ca121063a1c4e01f11605a5fa2193972365c26e49439f5081b40acb",
  "strippedsize": 216,
  "size": 216,
  "weight": 864,
  "tx": [
    {
      "txid": "ad38157f30103a58b1c04c901a789efab6e36af4e0d84882ecd626d2048b6778",
      "hash": "ad38157f30103a58b1c04c901a789efab6e36af4e0d84882ecd626d2048b6778",
      "version": 1,
      "size": 135,
      "vsize": 135,
      "weight": 540,
      "locktime": 0,
      "vin": [
        {
          "coinbase": "04ffff001d022f02",
          "sequence": 4294967295
        }
      ],
      "vout": [
        {
          "value": 50.0,
          "n": 0,
          "scriptPubKey": {
            "asm": "0453ca4c2b0870a8dd815da9742db56955e40962cceb99ff94c9abce325ebf53611379b975411e4d09820aeb0b806f3a85f8add97ef52d3e8a0269adc189410233 OP_CHECKSIG",
            "desc": "pk(0453ca4c2b0870a8dd815da9742db56955e40962cceb99ff94c9abce325ebf53611379b975411e4d09820aeb0b806f3a85f8add97ef52d3e8a0269adc189410233)#68gu956v",
            "hex": "410453ca4c2b0870a8dd815da9742db56955e40962cceb99ff94c9abce325ebf53611379b975411e4d09820aeb0b806f3a85f8add97ef52d3e8a0269adc189410233ac",
            "type": "pubkey"
          }
        }
      ],
      "hex": "01000000010000000000000000000000000000000000000000000000000000000000000000ffffffff0804ffff001d022f02ffffffff0100f2052a0100000043410453ca4c2b0870a8dd815da9742db56955e40962cceb99ff94c9abce325ebf53611379b975411e4d09820aeb0b806f3a85f8add97ef52d3e8a0269adc189410233ac00000000"
    }
  ]
}