{
  "hash": "000000009369ccf708bcbddc8ce403768980668bea2a97b036fc9d091860bfec",
  "confirmations": 45788,
  "height": 7310,
  "version": 1,
  "versionHex": "00000001",
  "merkleroot": "928f0db0a409b321fa07348bff78e4c369031343b94188b2811d15d7d9bc80ea",
  "time": 1236954555,
  "mediantime": 1236951761,
  "nonce": 1510622500,
  "bits": "1d00ffff",
  "difficulty": 1,
  "chainwork": "00000000000000000000000000000000000000000000000000001c8f1c8f1c8f",
  "nTx": 1,
  "previousblockhash": "00000000e43cec48ecf4f3eff99257f9bbbad40cb358a1370140226ddc728542",
  "nextblockhash": "00000000ef1d02cf7fdf0667eea606115e0110f4bde999a246fa70055df8dfe7",
  "strippedsize": 216,
  "size": 216,
  "weight": 864,
  "tx": [
    {
      "txid": "928f0db0a409b321fa07348bff78e4c369031343b94188b2811d15d7d9bc80ea",
      "hash": "928f0db0a409b321fa07348bff78e4c369031343b94188b2811d15d7d9bc80ea",
      "version": 1,
      "size": 135,
      "vsize": 135,
      "weight": 540,
      "locktime": 0,
      "vin": [
        {
          "coinbase": "04ffff001d02b607",
          "sequence": 4294967295
        }
      ],
      "vout": [
        {
          "value": 50.0,
          "n": 0,
          "scriptPubKey": {
            "asm": "0429dc5ba44bef68f981815e98b5132fbd938616e186cc6c4c676dd8ac0cd30d7bd3a11fa38b02e8d8f619951ee4ac3da6a3fd0d937528b6073b2b6949c0b5780f OP_CHECKSIG",
            "desc": "pk(0429dc5ba44bef68f981815e98b5132fbd938616e186cc6c4c676dd8ac0cd30d7bd3a11fa38b02e8d8f619951ee4ac3da6a3fd0d937528b6073b2b6949c0b5780f)#hh5wh3vq",
            "hex": "410429dc5ba44bef68f981815e98b5132fbd938616e186cc6c4c676dd8ac0cd30d7bd3a11fa38b02e8d8f619951ee4ac3da6a3fd0d937528b6073b2b6949c0b5780fac",
            "type": "pubkey"
          }
        }
      ],
      "hex": "01000000010000000000000000000000000000000000000000000000000000000000000000ffffffff0804ffff001d02b607ffffffff0100f2052a0100000043410429dc5ba44bef68f981815e98b5132fbd938616e186cc6c4c676dd8ac0cd30d7bd3a11fa38b02e8d8f619951ee4ac3da6a3fd0d937528b6073b2b6949c0b5780fac00000000"
    }
  ]
}