{
  "hash": "000000005aa8a9d638da96e3718740efd14361e73beba28e0d44ba9b4757d5cc",
  "confirmations": 44501,
  "height": 8597,
  "version": 1,
  "versionHex": "00000001",
  "merkleroot": "1df0d5c165172e2f40a7867bb51e5b0888925f6a9749c86b3fe65a670f5fa9a8",
  "time": 1237948208,
  "mediantime": 1237945408,
  "nonce": 78354061,
  "bits": "1d00ffff",
  "difficulty": 1,
  "chainwork": "0000000000000000000000000000000000000000000000000000219621962196",
  "nTx": 1,
  "previousblockhash": "000000004876452a113e591ba291529948560abf6c7b780bd3d539d4dc3e512a",
  "nextblockhash": "0000000063711ec944b72f90125bed39f840752b394b42d95ccba0cf0a61dcd7",
  "strippedsize": 216,
  "size": 216,
  "weight": 864,
  "tx": [
    {
      "txid": "1df0d5c165172e2f40a7867bb51e5b0888925f6a9749c86b3fe65a670f5fa9a8",
      "hash": "1df0d5c165172e2f40a7867bb51e5b0888925f6a9749c86b3fe65a670f5fa9a8",
      "version": 1,
      "size": 135,
      "vsize": 135,
      "weight": 540,
      "locktime": 0,
      "vin": [
        {
          "coinbase": "04ffff001d025b02",
          "sequence": 4294967295
        }
      ],
      "vout": [
        {
          "value": 50.0,
          "n": 0,
          "scriptPubKey": {
            "asm": "041c5fcdd25fab6d6377a0078e124ece46175bdbe2c77d64b10f5a67d6d54ffde0cbc10397cb0a3077ef0a755b0e395701d1589634c5bf88811c4481adf2319f24 OP_CHECKSIG",
            "desc": "pk(041c5fcdd25fab6d6377a0078e124ece46175bdbe2c77d64b10f5a67d6d54ffde0cbc10397cb0a3077ef0a755b0e395701d1589634c5bf88811c4481adf2319f24)#cqmafdfm",
            "hex": "41041c5fcdd25fab6d6377a0078e124ece46175bdbe2c77d64b10f5a67d6d54ffde0cbc10397cb0a3077ef0a755b0e395701d1589634c5bf88811c4481adf2319f24ac",
            "type": "pubkey"
          }
        }
      ],
      "hex": "01000000010000000000000000000000000000000000000000000000000000000000000000ffffffff0804ffff001d025b02ffffffff0100f2052a010000004341041c5fcdd25fab6d6377a0078e124ece46175bdbe2c77d64b10f5a67d6d54ffde0cbc10397cb0a3077ef0a755b0e395701d1589634c5bf88811c4481adf2319f24ac00000000"
    }
  ]
}