{
  "hash": "00000000b961f4f74b927560c40d888f30181aed323566e62f8e07b118de57fb",
  "confirmations": 46327,
  "height": 6771,
  "version": 1,
  "versionHex": "00000001",
  "merkleroot": "9597d9b8a0d43187d82a4b9444b4e9e03a59a525b12cb280133baf7704b59f3c",
  "time": 1236537793,
  "mediantime": 1236534402,
  "nonce": 21596038,
  "bits": "1d00ffff",
  "difficulty": 1,
  "chainwork": "00000000000000000000000000000000000000000000000000001a741a741a74",
  "nTx": 1,
  "previousblockhash": "000000007c3f149cfcb9a9ef8a9c865c549e816b8b68ab2bbaa3b8700e658af7",
  "nextblockhash": "00000000f03dc0954fa8b920fca34258c1f84c5b4bb89b5c1198ad23a1332cd7",
  "strippedsize": 216,
  "size": 216,
  "weight": 864,
  "tx": [
    {
      "txid": "9597d9b8a0d43187d82a4b9444b4e9e03a59a525b12cb280133baf7704b59f3c",
      "hash": "9597d9b8a0d43187d82a4b9444b4e9e03a59a525b12cb280133baf7704b59f3c",
      "version": 1,
      "size": 135,
      "vsize": 135,
      "weight": 540,
      "locktime": 0,
      "vin": [
        {
          "coinbase": "04ffff001d029701",
          "sequence": 4294967295
        }
      ],
      "vout": [
        {
          "value": 50.0,
          "n": 0,
          "scriptPubKey": {
            "asm": "04598529029f00760fa340d6212e46bdb8f68a7bc53b1dccdbc0148629fb10af016528bd38cc7648381a716831192d9d2c79438a8b7b19bfd2e414c8fd8d832a3c OP_CHECKSIG",
            "desc": "pk(04598529029f00760fa340d6212e46bdb8f68a7bc53b1dccdbc0148629fb10af016528bd38cc7648381a716831192d9d2c79438a8b7b19bfd2e414c8fd8d832a3c)#7cl9a38f",
            "hex": "4104598529029f00760fa340d6212e46bdb8f68a7bc53b1dccdbc0148629fb10af016528bd38cc7648381a716831192d9d2c79438a8b7b19bfd2e414c8fd8d832a3cac",
            "type": "pubkey"
          }
        }
      ],
      "hex": "01000000010000000000000000000000000000000000000000000000000000000000000000ffffffff0804ffff001d029701ffffffff0100f2052a01000000434104598529029f00760fa340d6212e46bdb8f68a7bc53b1dccdbc0148629fb10af016528bd38cc7648381a716831192d9d2c79438a8b7b19bfd2e414c8fd8d832a3cac00000000"
    }
  ]
}